{"abi":[{"anonymous":false,"inputs":[{"indexed":true,"internalType":"address","name":"owner","type":"address"},{"indexed":true,"internalType":"address","name":"spender","type":"address"},{"indexed":false,"internalType":"uint256","name":"amount","type":"uint256"}],"name":"Approval","type":"event"},{"anonymous":false,"inputs":[{"indexed":true,"internalType":"address","name":"from","type":"address"},{"indexed":true,"internalType":"address","name":"to","type":"address"},{"indexed":false,"internalType":"uint256","name":"amount","type":"uint256"}],"name":"Transfer","type":"event"},{"inputs":[],"name":"getLibInfo","outputs":[{"internalType":"address","name":"","type":"address"},{"internalType":"address","name":"","type":"address"}],"stateMutability":"pure","type":"function"},{"inputs":[{"internalType":"uint16","name":"currencyId","type":"uint16"},{"internalType":"address","name":"account","type":"address"}],"name":"nTokenBalanceOf","outputs":[{"internalType":"uint256","name":"","type":"uint256"}],"stateMutability":"view","type":"function"},{"inputs":[],"name":"nTokenClaimIncentives","outputs":[{"internalType":"uint256","name":"","type":"uint256"}],"stateMutability":"nonpayable","type":"function"},{"inputs":[{"internalType":"address","name":"nTokenAddress","type":"address"}],"name":"nTokenTotalSupply","outputs":[{"internalType":"uint256","name":"totalSupply","type":"uint256"}],"stateMutability":"view","type":"function"},{"inputs":[{"internalType":"uint16","name":"currencyId","type":"uint16"},{"internalType":"address","name":"from","type":"address"},{"internalType":"address","name":"to","type":"address"},{"internalType":"uint256","name":"amount","type":"uint256"}],"name":"nTokenTransfer","outputs":[{"internalType":"bool","name":"","type":"bool"}],"stateMutability":"nonpayable","type":"function"},{"inputs":[{"internalType":"uint16","name":"currencyId","type":"uint16"},{"internalType":"address","name":"tokenHolder","type":"address"},{"internalType":"address","name":"spender","type":"address"}],"name":"nTokenTransferAllowance","outputs":[{"internalType":"uint256","name":"","type":"uint256"}],"stateMutability":"view","type":"function"},{"inputs":[{"internalType":"uint16","name":"currencyId","type":"uint16"},{"internalType":"address","name":"tokenHolder","type":"address"},{"internalType":"address","name":"spender","type":"address"},{"internalType":"uint256","name":"amount","type":"uint256"}],"name":"nTokenTransferApprove","outputs":[{"internalType":"bool","name":"","type":"bool"}],"stateMutability":"nonpayable","type":"function"},{"inputs":[{"internalType":"address","name":"spender","type":"address"},{"internalType":"uint256","name":"amount","type":"uint256"}],"name":"nTokenTransferApproveAll","outputs":[{"internalType":"bool","name":"","type":"bool"}],"stateMutability":"nonpayable","type":"function"},{"inputs":[{"internalType":"uint16","name":"currencyId","type":"uint16"},{"internalType":"address","name":"spender","type":"address"},{"internalType":"address","name":"from","type":"address"},{"internalType":"address","name":"to","type":"address"},{"internalType":"uint256","name":"amount","type":"uint256"}],"name":"nTokenTransferFrom","outputs":[{"internalType":"bool","name":"","type":"bool"}],"stateMutability":"nonpayable","type":"function"},{"inputs":[],"name":"owner","outputs":[{"internalType":"address","name":"","type":"address"}],"stateMutability":"view","type":"function"},{"inputs":[{"internalType":"uint16","name":"currencyId","type":"uint16"},{"internalType":"address","name":"from","type":"address"},{"internalType":"address","name":"to","type":"address"},{"internalType":"uint256","name":"amount","type":"uint256"}],"name":"pCashTransfer","outputs":[{"internalType":"bool","name":"","type":"bool"}],"stateMutability":"nonpayable","type":"function"},{"inputs":[{"internalType":"uint16","name":"currencyId","type":"uint16"},{"internalType":"address","name":"tokenHolder","type":"address"},{"internalType":"address","name":"spender","type":"address"}],"name":"pCashTransferAllowance","outputs":[{"internalType":"uint256","name":"","type":"uint256"}],"stateMutability":"view","type":"function"},{"inputs":[{"internalType":"uint16","name":"currencyId","type":"uint16"},{"internalType":"address","name":"tokenHolder","type":"address"},{"internalType":"address","name":"spender","type":"address"},{"internalType":"uint256","name":"amount","type":"uint256"}],"name":"pCashTransferApprove","outputs":[{"internalType":"bool","name":"","type":"bool"}],"stateMutability":"nonpayable","type":"function"},{"inputs":[{"internalType":"uint16","name":"currencyId","type":"uint16"},{"internalType":"address","name":"spender","type":"address"},{"internalType":"address","name":"from","type":"address"},{"internalType":"address","name":"to","type":"address"},{"internalType":"uint256","name":"amount","type":"uint256"}],"name":"pCashTransferFrom","outputs":[{"internalType":"bool","name":"","type":"bool"}],"stateMutability":"nonpayable","type":"function"},{"inputs":[],"name":"pauseGuardian","outputs":[{"internalType":"address","name":"","type":"address"}],"stateMutability":"view","type":"function"},{"inputs":[],"name":"pauseRouter","outputs":[{"internalType":"address","name":"","type":"address"}],"stateMutability":"view","type":"function"}],"bytecode":"608060405234801561001057600080fd5b506144c6806100206000396000f3fe608060405234801561001057600080fd5b50600436106101005760003560e01c80638246336711610097578063c4c96dae11610066578063c4c96dae146101f8578063ca2cc3611461020e578063daca07a614610221578063e571164e1461022957610100565b806382463367146101c2578063884a7092146101ca5780638da5cb5b146101dd578063a78dbfff146101e557610100565b806341075971116100d357806341075971146101695780636a96e86f146101895780637c735c1c1461019c5780637db31ab9146101af57610100565b806318ae40d71461010557806324a3d6221461012e5780632e0ecba814610143578063309c00a614610156575b600080fd5b6101186101133660046141b3565b61023c565b604051610125919061432a565b60405180910390f35b6101366102a3565b604051610125919061423e565b610118610151366004613ee1565b6102b2565b6101186101643660046141b3565b61031d565b61017c610177366004614106565b610396565b6040516101259190614407565b61017c610197366004613ec5565b6103dc565b6101186101aa3660046141b3565b6103f0565b61017c6101bd366004614106565b610449565b6101366104bf565b6101186101d8366004614150565b6104ce565b610136610647565b61017c6101f33660046140ce565b61065e565b61020061067f565b604051610125929190614252565b61011861021c3660046141b3565b6106ad565b61017c610729565b610118610237366004614150565b6107e9565b60008061024c8661ffff166108e3565b9050336001600160a01b0382161461026357600080fd5b836001600160a01b0316856001600160a01b0316141561028257600080fd5b61028b84610910565b61029986868686600161098f565b9695505050505050565b6002546001600160a01b031681565b3360008181526004602090815260408083206001600160a01b038716808552925280832085905551919290917f8c5be1e5ebec7d5bd14f71427d1e84f3dd0314c0f7b2291e5b200ac8c7c3b9259061030b908690614407565b60405180910390a35060015b92915050565b60008061032d8661ffff166108e3565b9050336001600160a01b0382161461034457600080fd5b6001600160a01b03851661035757600080fd5b50506001600160a01b03928316600090815260056020908152604080832094909516825292835283812061ffff95909516815293909152912055600190565b60006103a0610bba565b6001600160a01b03808516600090815260209283526040808220928616825291835281812061ffff8816825290925290205490505b9392505050565b60006103e782610bc7565b50909392505050565b6000806103fc86610c23565b9050336001600160a01b0382161461041357600080fd5b836001600160a01b0316856001600160a01b0316141561043257600080fd5b61043b84610910565b61029986868686600061098f565b6001600160a01b038083166000908152600560209081526040808320938516835292815282822061ffff87168352905290812054801561048a5790506103d5565b50506001600160a01b038083166000908152600460209081526040808320938516835292905220546103d5565b509392505050565b6001546001600160a01b031681565b6000806104de8761ffff166108e3565b9050336001600160a01b038216146104f557600080fd5b836001600160a01b0316856001600160a01b0316141561051457600080fd5b61051d84610910565b6001600160a01b038086166000908152600560209081526040808320938a16835292815282822061ffff8b1683529052205480156105b9578381101561057e5760405162461bcd60e51b815260040161057590614335565b60405180910390fd5b6001600160a01b038087166000908152600560209081526040808320938b16835292815282822061ffff8c168352905220848203905561062b565b506001600160a01b038086166000908152600460209081526040808320938a1683529290522054838110156106005760405162461bcd60e51b815260040161057590614335565b6001600160a01b038087166000908152600460209081526040808320938b1683529290522084820390555b61063988878787600161098f565b925050505b95945050505050565b60005464010000000090046001600160a01b031681565b60008061066c838542610c50565b505091505060008112156103d557600080fd5b73__FreeCollateralExternal________________73__SettleAssetsExternal__________________9091565b6000806106b986610c23565b9050336001600160a01b038216146106d057600080fd5b6001600160a01b0385166106e357600080fd5b826106ec610bba565b6001600160a01b0396871660009081526020918252604080822097909816815295815286862061ffff989098168652969096525050502055600190565b6000338161073682610c83565b90506000610742613b85565b61074b83610d31565b1561077d576060830151610763908290869086610d3e565b60008160400151131561077d5761077a8185610d5f565b91505b60808301515b6001600160701b03198116156107df5760f081901c613fff166107a883878388610d3e565b6000836040015113156107cc576107c96107c28488610d5f565b8590610da3565b93505b5060101b6001600160801b031916610783565b5090935050505090565b6000806107f587610c23565b9050336001600160a01b0382161461080c57600080fd5b836001600160a01b0316856001600160a01b0316141561082b57600080fd5b61083484610910565b600061083e610bba565b6001600160a01b03808816600090815260209283526040808220928b16825291835281812061ffff8c1682529092529020549050838110156108925760405162461bcd60e51b815260040161057590614335565b83810361089d610bba565b6001600160a01b03808916600090815260209283526040808220928c16825291835281812061ffff8d16825290925281209190915561063990899088908890889061098f565b6000806108ee610db5565b600084815260209190915260409020546001600160a01b03169150505b919050565b6001600160a01b03811661092357600080fd5b6001600160a01b038116610fee141561093b57600080fd5b6001600160a01b0381166105e7141561095357600080fd5b6001600160a01b03811630141561096957600080fd5b600061097482610dc2565b5050505061ffff1690508060001461098b57600080fd5b5050565b60008061099b84610e2b565b905060006109a887610c83565b90506109b381610e45565b15610a44576040516337b5fc2160e11b815273__SettleAssetsExternal__________________90636f6bf842906109f1908a908590600401614285565b60c06040518083038186803b158015610a0957600080fd5b505af4158015610a1d573d6000803e3d6000fd5b505050506040513d601f19601f82011682018060405250810190610a41919061402b565b90505b610a4c613b85565b610a5881898b85610d3e565b8415610a7157610a6783610e99565b60a0820152610ac8565b6000816020015113610a955760405162461bcd60e51b815260040161057590614365565b8060200151831315610ab95760405162461bcd60e51b815260040161057590614365565b610ac283610e99565b60608201525b610ad3818984610ea7565b610add8289610ec6565b6000610ae888610c83565b9050610af2613b85565b610afe818a8d85610d3e565b8615610b105760a08101859052610b18565b606081018590525b610b23818a84610ea7565b610b2d828a610ec6565b60208401516001600160f81b03191615610ba957604051636ccc642f60e01b815273__FreeCollateralExternal________________90636ccc642f90610b78908d9060040161423e565b60006040518083038186803b158015610b9057600080fd5b505af4158015610ba4573d6000803e3d6000fd5b505050505b5060019a9950505050505050505050565b6000806103176023610fe3565b600080600080610bd5610ffc565b6001600160a01b0395909516600090815260209590955250506040909220546001600160601b03811693600160601b82046001600160801b03169350600160e01b90910463ffffffff169150565b6000610c2d611009565b61ffff90921660009081526020929092525060409020546001600160a01b031690565b6000806000806000610c628787611016565b509050610c708888836110d4565b9450945094509450505b93509350935093565b610c8b613be1565b6000610c9561118e565b6001600160a01b03841660009081526020918252604090819020815160c081018352905464ffffffffff811682526001600160f81b0319600160281b820460f81b169382019390935260ff600160301b840481169282019290925261ffff600160381b84041660608201526001600160701b0319600160481b840460701b166080820152600160d81b90920416151560a0820152915050919050565b6060015161ffff16151590565b610d478261119b565b610120850152610d59848484846111ad565b50505050565b6000610d788383610d738660400151611255565b611264565b9050610317828460000151856020015186604001518760e0015188610100015189610120015161135b565b6000828201838110156103d557600080fd5b6000806103176003610fe3565b600080600080600080610dd3611496565b6001600160a01b039097166000908152602097909752505060409094205461ffff81169563ffffffff62010000830481169650600160301b830416945060ff600160501b8304169350600160581b90910460d01b9150565b60006001600160ff1b03821115610e4157600080fd5b5090565b600042610e5183610d31565b15610e7257610e5f816114a3565b835164ffffffffff1610915061090b9050565b825164ffffffffff1615801590610e915750825164ffffffffff168110155b91505061090b565b6000610317600019836114c1565b608083015115610eb657600080fd5b610d59838384846000600161150f565b6000610ed061118e565b6001600160a01b03831660008181526020838152604080832088518154938a01518a84015160608c015160808d015160a08e015164ffffffffff1990981664ffffffffff9095169490941765ff00000000001916600160281b60f89490941c939093029290921766ff0000000000001916600160301b60ff909216919091021768ffff000000000000001916600160381b61ffff90921691909102177affffffffffffffffffffffffffffffffffff0000000000000000001916600160481b60709290921c919091021760ff60d81b1916600160d81b93151593909302929092179091555192935090917f6bd4b121bca854a191536a2ca891155c42ee2fb23f307fb34e8bc65cfcb5412e9190a2505050565b6000620f4240826026811115610ff557fe5b0192915050565b6000806103176011610fe3565b6000806103176021610fe3565b61101e613c16565b611026613c37565b61102f846116e6565b90508281600001511015611060576000611048856117ae565b905061105685838387611831565b50915061106d9050565b8051831461106d57600080fd5b604051806060016040528061109b6110968460a001518560c001516118d590919063ffffffff16565b610e2b565b81526020016110be6110968460a001518560e001516118d590919063ffffffff16565b8152602001826060015181525091509250929050565b60008060008060006110e46118fc565b6001600160a01b03891660009081526020828152604080832061ffff8c168452909152902080546001600160501b0381169650600160501b900463ffffffff169450909150831561115157805461114a90600160701b900466ffffffffffffff16611909565b9250611166565b8054600160701b900466ffffffffffffff1692505b8054611181908890600160a81b9004600a90810b900b611917565b9550505093509350935093565b6000806103176001610fe3565b6111a3613c16565b610317824261194b565b8161ffff1660001080156111c75750613fff61ffff831611155b6111d057600080fd5b61ffff82168085526111e3908290611a0c565b15611212576111f883838661012001516110d4565b61010088015260e087015260408601526020850152611230565b6000602085018190526040850181905260e085018190526101008501525b50506000606083018190526080830181905260a0830181905260c09092019190915250565b600080821215610e4157600080fd5b82516000904290829061127a9061ffff166108e3565b9050600061128782610bc7565b50509050600061129c838960c0015186611a96565b90506112aa88848389611b79565b945060006112b784611bf8565b90506001600160a01b0381161561133f57806001600160a01b0316633f3ef50d898b600001516112ea8d60400151611255565b8b886040518663ffffffff1660e01b815260040161130c9594939291906142f8565b600060405180830381600087803b15801561132657600080fd5b505af115801561133a573d6000803e3d6000fd5b505050505b851561134f5761134f8887611c6a565b50505050509392505050565b60006113656118fc565b6001600160a01b03891660009081526020828152604080832061ffff8c1684529091529020909150846113cd5766ffffffffffffff8411156113a657600080fd5b805466ffffffffffffff60701b1916600160701b66ffffffffffffff8616021781556113e7565b8054600160501b900463ffffffff1685146113e757600080fd5b6113f085611c89565b815463ffffffff91909116600160501b0263ffffffff60501b1990911617815561142161141c87611255565b611c9c565b815469ffffffffffffffffffff19166001600160501b039190911617808255611467906114629085908c908c90600160a81b9004600a90810b900b8c611cb2565b611cd5565b8154600a9190910b6001600160581b0316600160a81b026001600160a81b039091161790555050505050505050565b6000806103176002610fe3565b6000620151808210156114b557600080fd5b50620151808106900390565b8181026000198314156114f1578115806114e35750828282816114e057fe5b05145b6114ec57600080fd5b610317565b82158061150657508183828161150357fe5b05145b61031757600080fd5b600080600061152f88888b600001518c608001518d61012001518a611d07565b9250600061154e8a608001518b60600151611db090919063ffffffff16565b905084801561155d5750600081125b8015611578575060208a01516000906115769083611db0565b125b156115a3578660a0015161159e5760405162461bcd60e51b815260040161057590614393565b600191505b80156115c25760208a01516115b89082611db0565b60208b0152600192505b5060a08901511515806115d8575060c089015115155b156116415760006116088a60c001516116028c60a001518d60400151611db090919063ffffffff16565b90611db0565b9050600081121561162b5760405162461bcd60e51b8152600401610575906143bc565b6116368a8a83611264565b5060408a0152600191505b811561167057611670888a600001518b602001518c604001518d60e001518e61010001518f610120015161135b565b885160208a015161169d9161ffff1690151580611690575060408b015115155b889190600160fe1b611dc6565b6000896020015112156116c357602086018051600160f91b176001600160f81b03191690525b80156116da5788516101208a01516116da91611fc5565b50509695505050505050565b6116ee613c37565b60006116f8612008565b61ffff93841660009081526020918252604090819020805464ffffffffff81168652600160281b81046001600160581b03908116948701949094526001820154841692860192909252600160d81b820463ffffffff166060860152600160801b9091049091166080840152600201546001600160501b0380821660a0850152600160501b8204811660c0850152600160a01b82041660e0840152600160f01b900460ff1661012c02909216610100820152919050565b6000806117ba83612015565b6001600160a01b031663a77c05b86040518163ffffffff1660e01b8152600401604080518083038186803b1580156117f157600080fd5b505afa158015611805573d6000803e3d6000fd5b505050506040513d601f19601f82011682018060405250810190611829919061421b565b949350505050565b611839613c37565b6000806000611849888689612045565b60c08b019290925260e08a01929092526020890151919350915061186d9083610da3565b602088015260808701516000901561189b57608088015161189890611892898261214f565b90612164565b90505b6118bb6118b0670de0b6b3a764000083610da3565b60a08a015190612181565b60a089015250506080860194909452505082529092909150565b6000826118e457506000610317565b828202828482816118f157fe5b04146103d557600080fd5b6000806103176006610fe3565b600881901c60ff9091161b90565b6000808212611927575080610317565b82516020840151611944919061193e9085906114c1565b9061219e565b9050610317565b611953613c16565b600061195e846116e6565b9050828160000151101561199d57600080611978866121cf565b905061198686848388611831565b9093509150611996868385612228565b50506119aa565b805183146119aa57600080fd5b60405180606001604052806119d36110968460a001518560c001516118d590919063ffffffff16565b81526020016119f66110968460a001518560e001516118d590919063ffffffff16565b8152602001826060015181525091505092915050565b60008115801590611a1f5750613fff8211155b611a2857600080fd5b6080830151606084015161ffff16831415611a47576001915050610317565b6001600160701b0319811615611a8c5760f081901c613fff1683811415611a795750600160fe1b908116149050610317565b5060101b6001600160801b031916611a47565b5060009392505050565b6000806000611aa5868561245c565b50915091506000611ab4610ffc565b6001600160a01b0388166000908152602082905260408120919250611ad98589611db0565b905080600013158015611af257506001600160601b0381105b611afb57600080fd5b81546bffffffffffffffffffffffff19166001600160601b038216176fffffffffffffffffffffffffffffffff60601b1916600160601b6001600160801b0386160217825563ffffffff8710611b5057600080fd5b50805463ffffffff8716600160e01b026001600160e01b03909116179055509150509392505050565b60008460e00151600014611b8c57600080fd5b611bce611bc7866101000151611bc1670de0b6b3a7640000611bbb88611bb58c60400151611255565b906118d5565b906124f2565b9061214f565b8290610da3565b9050611be6670de0b6b3a7640000611bbb84866118d5565b85610100018181525050949350505050565b600080611c03611496565b6001600160a01b0384166000908152602082905260409020805491925090600160f81b900460ff1615611c5f57611c38612511565b6001600160a01b03808616600090815260209290925260409091205416925061090b915050565b60009250505061090b565b61098b73019be259bc299f3f653688c7655c87f998bc7bc1838361251e565b600063ffffffff821115610e4157600080fd5b60006001600160501b03821115610e4157600080fd5b6000611cbe868361259a565b905061063e868686611cd087866125d9565b612660565b60006a7fffffffffffffffffffff198212801590611cfe57506a7fffffffffffffffffffff8213155b610e4157600080fd5b600083611d1657506000610299565b60008412611d2357600080fd5b6000611d328661ffff16612694565b9050611d4781611d4286886126a7565b6126f0565b91506000611d5483610e99565b9050611d61878383612728565b600382606001516005811115611d7357fe5b1415611d8957611d8488828661281e565b611d96565b8151611d9690898361251e565b611da389888585896128e6565b5050509695505050505050565b8181018281121560008312151461031757600080fd5b826000108015611dd85750613fff8311155b611de157600080fd5b818015611df5575082846060015161ffff16145b15611dff57610d59565b6080840151600090815b6001600160701b0319821615611f7a5760f082901c613fff168681148015611e2e5750855b15611e6657506080870180516001600160f01b0319861660109093029290921c919091176001600160701b031916905250610d599050565b8681148015611e73575085155b15611ec8576001600160f01b03198516199290921691600360fe1b8316611ea6576010836001600160701b031916901b92505b506001600160701b031991821660109091021c91909117166080850152610d59565b8681118015611ed45750855b15611f2e576080888101516001600160f01b031960f08a901b88178116601086021c9690961795911b1615611f0857600080fd5b506001600160701b03199182166001919091016010021c91909117166080850152610d59565b8681118015611f3b575085155b15611f495750505050610d59565b506001600160f01b0319821660108281029190911c93909317929190911b6001600160801b03191690600101611e09565b84611f8757505050610d59565b60098110611f9457600080fd5b6001600160f01b031960f087901b85171660109091021c919091176001600160701b03191660808601525050505050565b600080611fd2848461292d565b9350935050508160001415611fe857505061098b565b81811115610d595760405162461bcd60e51b8152600401610575906143e0565b600080610317601d610fe3565b6000806120206129f1565b61ffff939093166000908152602093909352505060409020546001600160a01b031690565b60008060008060008061205889886129fe565b8951909550919350915060009061207f90612074908b9061214f565b633b9aca00906118d5565b90506120b96120ae6301da9c0061209685856118d5565b8161209d57fe5b670de0b6b3a7640000919004610da3565b60e08a015190612181565b96506120db6120d06301da9c0061209687856118d5565b60c08a015190612181565b9550818314156120f2575060009350610c7a915050565b60006121146121096301da9c0061209687866118d5565b60e08b015190612181565b90506000612122898361214f565b905061213f88611bbb838d604001516118d590919063ffffffff16565b9650505050505093509350935093565b60008282111561215e57600080fd5b50900390565b60006103d561217b84670de0b6b3a76400006118d5565b836124f2565b60006103d561219084846118d5565b670de0b6b3a76400006124f2565b6000816000191480156121b45750600160ff1b83145b156121be57600080fd5b8183816121c757fe5b059392505050565b6000806121db83612015565b6001600160a01b031663ef81f2166040518163ffffffff1660e01b81526004016040805180830381600087803b15801561221457600080fd5b505af1158015611805573d6000803e3d6000fd5b6000612232612008565b60008561ffff16815260200190815260200160002090506122568260000151612a98565b815464ffffffffff191664ffffffffff9190911617815560a082015161227b90611c9c565b60028201805469ffffffffffffffffffff19166001600160501b039290921691909117905560c08201516122ae90611c9c565b81600201600a6101000a8154816001600160501b0302191690836001600160501b031602179055506122e38260e00151611c9c565b8160020160146101000a8154816001600160501b0302191690836001600160501b031602179055506123188260200151612aac565b81546001600160581b0391909116600160281b026fffffffffffffffffffffff000000000019909116178155604082015161235290612aac565b6001820180546affffffffffffffffffffff19166001600160581b0392909216919091179055608082015161238690612aac565b81546001600160581b0391909116600160801b026affffffffffffffffffffff60801b1990911617815560608201516123be90611c89565b815463ffffffff91909116600160d81b0263ffffffff60d81b19909116178155821561240a5760006123ef84610e2b565b90506123fb8582612ac2565b612408610fee8683612af9565b505b8361ffff167fef25641e225e493886510ca1ad6584fa7b442b9fea820a29d1de3ce27d270fd28360a001518460c001518560e0015160405161244e93929190614410565b60405180910390a250505050565b600080600061246a85610bc7565b9194509250905080841180156124805750600081115b801561248c5750600083115b156124eb57600061249c86610dc2565b50505091505060006124c76124be6305f5e100846118d590919063ffffffff16565b84880387612b79565b90506124d38482610da3565b93506001600160801b0384106124e857600080fd5b50505b9250925092565b600080821161250057600080fd5b81838161250957fe5b049392505050565b6000806103176012610fe3565b826001600160a01b031663a9059cbb83836040518363ffffffff1660e01b815260040180836001600160a01b0316815260200182815260200192505050600060405180830381600087803b15801561257557600080fd5b505af1158015612589573d6000803e3d6000fd5b50505050612595612b9b565b505050565b6000808212156125d3576125ce60016125c8856020015161193e8760000151876114c190919063ffffffff16565b90612c08565b6103d5565b50919050565b6000818314806125f65750600083121580156125f6575060008212155b1561260357506000610317565b600083131580156126145750816000125b15612620575081610317565b600082131580156126315750826000125b1561263f5761194482610e99565b60008313158015612651575060008213155b15610100576119448383612c08565b8015610d59578351602085015160009161267f9161193e9085906114c1565b905061268d84848484612c1e565b5050505050565b61269c613c83565b610317826001612d69565b6000806126d46ec097ce7bc90715b34b9f100000000061193e8660000151866114c190919063ffffffff16565b9050600083126126e45780611829565b61182981600019612e03565b60006305f5e10083604001511415612709575080610317565b6103d56305f5e10061193e8560400151856114c190919063ffffffff16565b6000612732612e19565b83516001600160a01b031660009081526020829052604090205490915080831161275d575050612595565b600061276886612015565b90506000816001600160a01b031663b5e4da238487036040518263ffffffff1660e01b815260040161279a9190614407565b60006040518083038186803b1580156127b257600080fd5b505afa1580156127c6573d6000803e3d6000fd5b505050506040513d6000823e601f3d908101601f191682016040526127ee9190810190613f0c565b905060006127fc8783612e26565b90506128088482610da3565b86111561281457600080fd5b5050505050505050565b80156128b0577382af49447d8a07e3bd95bd0d56f35241523fbab16001600160a01b031663d0e30db0836040518263ffffffff1660e01b81526004016000604051808303818588803b15801561287357600080fd5b505af1158015612887573d6000803e3d6000fd5b50505050506128ab7382af49447d8a07e3bd95bd0d56f35241523fbab1848461251e565b612595565b6040516001600160a01b0384169083156108fc029084906000818181858888f19350505050158015610d59573d6000803e3d6000fd5b6000806128f38486613069565b90506128ff8382613099565b915061290c878784612af9565b6129178683836130bd565b835161292390866131c4565b5095945050505050565b600080600080600061293d612008565b61ffff8716600090815260209190915260409020600181015490915061296f90600160581b900463ffffffff16611909565b600182015490955061299390606490611bbb908890600160781b900460ff166118d5565b8154909350600160281b90046001600160581b03166129ba6129b589836126a7565b611255565b60018301549095506001600160581b03166000036129e36129b56129de8b84613219565b610e99565b935050505092959194509250565b600080610317601f610fe3565b600080600080600085602001511115612a4b57612a48612a2f8660c0015187602001516118d590919063ffffffff16565b60e08701516040880151612a42916118d5565b90613264565b90505b6000612a5687613277565b9050612a6281836132aa565b94508115612a7957612a7681866001613363565b93505b6020860151156124e857612a8d85836133db565b925050509250925092565b600064ffffffffff821115610e4157600080fd5b60006001600160581b03821115610e4157600080fd5b6000811215612ad057600080fd5b6000612ade610fee846133f4565b9050612aea8183611db0565b9050612595610fee848361344d565b6000612b03611009565b61ffff8416600090815260209190915260409081902054905163ad1c095d60e01b81526001600160a01b039091169150819063ad1c095d90612b4b908790869060040161426c565b600060405180830381600087803b158015612b6557600080fd5b505af1158015612814573d6000803e3d6000fd5b600061182982611bbb6301da9c008188611bb589670de0b6b3a76400006118d5565b6000612ba5613cb2565b3d8015612bb95760208114612bc257600080fd5b60019250612bcd565b60206000833e815192505b508161098b576040805162461bcd60e51b8152602060048201526005602482015264045524332360dc1b604482015290519081900360640190fd5b8082038281131560008312151461031757600080fd5b6000612c28612008565b61ffff8516600090815260209190915260409020805490915064ffffffffff164214612c5357600080fd5b8054600160f81b900460ff16612c6857600080fd5b6001810154600090612c83906001600160581b031685611db0565b8254909150600090612ca590600160281b90046001600160581b031685611db0565b905081600919128015612cb85750600082125b15612cc257600091505b80600919128015612cd35750600081125b15612cdc575060005b612ced612ce883611255565b612aac565b6001840180546affffffffffffffffffffff19166001600160581b0392909216919091179055612d1f612ce882611255565b83546001600160581b0391909116600160281b026fffffffffffffffffffffff000000000019909116178355612d57878786886134c1565b612d60836135d5565b50505050505050565b612d71613c83565b6000612d7b6136a0565b6000858152602082815260408083208715158452825291829020825160a08101845281546001600160a01b038116825260ff600160a01b82048116151594830194909452600160b01b81048416600a0a9482019490945293945092916060830191600160a81b909104166005811115612df057fe5b8152600060209091015295945050505050565b6000818312612e1257816103d5565b5090919050565b6000806103176026610fe3565b6000805b8251811015613062576000838281518110612e4157fe5b60200260200101519050600081606001516001600160a01b03166370a08231306040518263ffffffff1660e01b8152600401612e7d919061423e565b60206040518083038186803b158015612e9557600080fd5b505afa158015612ea9573d6000803e3d6000fd5b505050506040513d601f19601f82011682018060405250810190612ecd9190614203565b90506000612edb87306136ad565b905060005b835151811015612f2c57612f2484600001518281518110612efd57fe5b6020026020010151600086602001518481518110612f1757fe5b6020026020010151613757565b600101612ee0565b506000612f3988306136ad565b90506000612f47828461214f565b90508085604001511115612f5a57600080fd5b60608501516040516370a0823160e01b81526000916001600160a01b0316906370a0823190612f8d90309060040161423e565b60206040518083038186803b158015612fa557600080fd5b505afa158015612fb9573d6000803e3d6000fd5b505050506040513d601f19601f82011682018060405250810190612fdd9190614203565b905084811115612fec57600080fd5b608086015160ff161580159061300b5750613007858261214f565b8214155b1561302657608086015161302390829060ff16610da3565b90505b61303586606001518683613894565b61303f8883610da3565b97506130508a600001518585613894565b505060019094019350612e2a92505050565b5092915050565b60006305f5e10083604001511415613082575080610317565b60408301516103d59061193e846305f5e1006114c1565b815160009081906126d49061193e856ec097ce7bc90715b34b9f10000000006114c1565b60006130c7612008565b61ffff8516600090815260209190915260409020805490915064ffffffffff1642146130f257600080fd5b805460009061311190600160281b90046001600160581b031685611db0565b825490915060009061313390600160801b90046001600160581b031685611db0565b905080624c4b40131561314557600080fd5b613151612ce882611255565b83546001600160581b0391909116600160801b026affffffffffffffffffffff60801b19909116178355613187612ce883611255565b83546001600160581b0391909116600160281b026fffffffffffffffffffffff0000000000199091161783556131bc836135d5565b505050505050565b60006131ce612e19565b6001600160a01b0384166000908152602082905260409020549091506131f76129b58285611db0565b6001600160a01b03909416600090815260209290925250604090209190915550565b60006001821261322857600080fd5b8161323557506000610317565b6103d560016125c86ec097ce7bc90715b34b9f100000000061193e8760200151876114c190919063ffffffff16565b60006103d561217b84633b9aca006118d5565b61327f613cd0565b6000613289613911565b61ffff84166000908152602091909152604081205491506103d5908261391e565b6000808360800151116132bc57600080fd5b633b9aca008211156132cd57600080fd5b825182116132ec57825160408401516119449190611bbb9085906118d5565b8260200151821161332a57604083015183516020850151606086015161194493926133249281900391611bbb918803908590036118d5565b90610da3565b6103d583606001516133248560200151633b9aca0003611bbb8760600151886080015103886020015188036118d590919063ffffffff16565b6000806133826064611bbb8760e00151876118d590919063ffffffff16565b90508460a00151811015613397575060a08401515b8460c001518111156133aa575060c08401515b82156133c1576133ba8482610da3565b91506104b7565b8381116133d05780840361063e565b600095945050505050565b60006103d56133ea84846118d5565b633b9aca006124f2565b6000806133ff6118fc565b6001600160a01b03851660009081526020828152604080832061ffff8816845290915281208054600160a81b9004600a90810b900b945091925083121561344557600080fd5b505092915050565b600081121561345b57600080fd5b60006134656118fc565b6001600160a01b03851660009081526020828152604080832061ffff88168452909152902090915061349683611cd5565b8154600a9190910b6001600160581b0316600160a81b026001600160a81b0390911617905550505050565b60006134cb611009565b61ffff8516600090815260209190915260408120546001600160a01b031691506134f3613a3d565b61ffff8616600090815260209190915260409081902054905163ad1c095d60e01b81526001600160a01b039091169150819063ad1c095d9061353b908990879060040161426c565b600060405180830381600087803b15801561355557600080fd5b505af1158015613569573d6000803e3d6000fd5b505060405163ad1c095d60e01b81526001600160a01b038516925063ad1c095d915061359b908990889060040161426c565b600060405180830381600087803b1580156135b557600080fd5b505af11580156135c9573d6000803e3d6000fd5b50505050505050505050565b8054600282015460009161361791600160281b9091046001600160581b031690613611906001600160501b03600160501b8204811691166114c1565b906114c1565b60018301546002840154919250600091613651916001600160581b031690613611906001600160501b03600160a01b8204811691166114c1565b83549091506000906136889060016001600160581b03600160801b909204821601166ec097ce7bc90715b34b9f10000000006114c1565b9050806136958484612c08565b1315610d5957600080fd5b6000806103176007610fe3565b60006003836060015160058111156136c157fe5b14156136d857506001600160a01b03811631610317565b82516040516370a0823160e01b81526001600160a01b03909116906370a082319061370790859060040161423e565b60206040518083038186803b15801561371f57600080fd5b505afa158015613733573d6000803e3d6000fd5b505050506040513d601f19601f820116820180604052508101906119449190614203565b600080846001600160a01b031684846040518082805190602001908083835b602083106137955780518252601f199092019160209182019101613776565b6001836020036101000a03801982511681845116808217855250505050505090500191505060006040518083038185875af1925050503d80600081146137f7576040519150601f19603f3d011682016040523d82523d6000602084013e6137fc565b606091505b50915091508161380b82613a4a565b906131bc5760405162461bcd60e51b81526004018080602001828103825283818151815260200191508051906020019080838360005b83811015613859578181015183820152602001613841565b50505050905090810190601f1680156138865780820380516001836020036101000a031916815260200191505b509250505060405180910390fd5b600061389e612e19565b6001600160a01b038516600090815260208290526040902054909150838111156138c757600080fd5b60006138de6138d586610e2b565b6125c886610e2b565b90506138ed6129b58383611db0565b6001600160a01b039096166000908152602093909352505060409020929092555050565b600080610317601b610fe3565b613926613cd0565b6064633b9aca008360ff86166020811061393c57fe5b1a028161394557fe5b0481526064633b9aca008360ff86166001016020811061396157fe5b1a028161396a57fe5b0481602001818152505061398f8260028560ff16016020811061398957fe5b1a613b51565b60808201819052610100908360ff8616600301602081106139ac57fe5b1a02816139b557fe5b0460408201526080810151610100908360ff8616600401602081106139d657fe5b1a02816139df57fe5b0460608201526207a1208260ff8516600501602081106139fb57fe5b1a0260a0820152622625a08260ff851660060160208110613a1857fe5b1a0260c08201528160ff841660070160208110613a3157fe5b1a60e082015292915050565b6000806103176022610fe3565b6060604482511015613a80575060408051808201909152600d81526c14da5b195b9d0814995d995c9d609a1b602082015261090b565b6004820180519092602401906020811015613a9a57600080fd5b8101908080516040519392919084640100000000821115613aba57600080fd5b908301906020820185811115613acf57600080fd5b8251640100000000811182820188101715613ae957600080fd5b82525081516020918201929091019080838360005b83811015613b16578181015183820152602001613afe565b50505050905090810190601f168015613b435780820380516001836020036101000a031916815260200191505b506040525050509050919050565b60008160ff16609610613b6c5760ff8216622625a002610317565b5060951960ff919091160162e4e1c00263165a0bc00190565b604051806101400160405280600061ffff1681526020016000815260200160008152602001600081526020016000815260200160008152602001600081526020016000815260200160008152602001613bdc613c16565b905290565b6040805160c081018252600080825260208201819052918101829052606081018290526080810182905260a081019190915290565b60405180606001604052806000815260200160008152602001600081525090565b6040518061012001604052806000815260200160008152602001600081526020016000815260200160008152602001600081526020016000815260200160008152602001600081525090565b6040805160a0810182526000808252602082018190529181018290529060608201908152602001600081525090565b60405180602001604052806001906020820280368337509192915050565b60405180610100016040528060008152602001600081526020016000815260200160008152602001600081526020016000815260200160008152602001600081525090565b805161090b81614468565b600082601f830112613d30578081fd5b81516020613d45613d408361444a565b614426565b8281528181019085830183850287018401881015613d61578586fd5b855b85811015613d88578151613d7681614468565b84529284019290840190600101613d63565b5090979650505050505050565b6000601f8381840112613da6578182fd5b82516020613db6613d408361444a565b82815281810190868301865b85811015613e5b57815189018a603f820112613ddc578889fd5b8581015167ffffffffffffffff811115613df257fe5b613e03818a01601f19168801614426565b81815260408d81848601011115613e18578b8cfd5b8b5b83811015613e35578481018201518382018b01528901613e1a565b83811115613e45578c8a85850101525b5050865250509284019290840190600101613dc2565b509098975050505050505050565b8051801515811461090b57600080fd5b80516001600160701b03198116811461090b57600080fd5b80516001600160f81b03198116811461090b57600080fd5b805161090b81614480565b805160ff8116811461090b57600080fd5b600060208284031215613ed6578081fd5b81356103d581614468565b60008060408385031215613ef3578081fd5b8235613efe81614468565b946020939093013593505050565b60006020808385031215613f1e578182fd5b825167ffffffffffffffff80821115613f35578384fd5b818501915085601f830112613f48578384fd5b8151613f56613d408261444a565b81815284810190848601875b8481101561401c578151870160a0818d03601f19011215613f8157898afd5b6040805160a081018181108a82111715613f9757fe5b8252828b015189811115613fa9578c8dfd5b613fb78f8d83870101613d20565b8252508183015189811115613fca578c8dfd5b613fd88f8d83870101613d95565b8c83015250606083015182820152613ff260808401613d15565b606082015261400360a08401613eb4565b6080820152865250509287019290870190600101613f62565b50909998505050505050505050565b600060c0828403121561403c578081fd5b60405160c0810181811067ffffffffffffffff8211171561405957fe5b604052825164ffffffffff81168114614070578283fd5b815261407e60208401613e91565b602082015261408f60408401613eb4565b60408201526140a060608401613ea9565b60608201526140b160808401613e79565b60808201526140c260a08401613e69565b60a08201529392505050565b600080604083850312156140e0578182fd5b82356140eb81614480565b915060208301356140fb81614468565b809150509250929050565b60008060006060848603121561411a578081fd5b833561412581614480565b9250602084013561413581614468565b9150604084013561414581614468565b809150509250925092565b600080600080600060a08688031215614167578283fd5b853561417281614480565b9450602086013561418281614468565b9350604086013561419281614468565b925060608601356141a281614468565b949793965091946080013592915050565b600080600080608085870312156141c8578182fd5b84356141d381614480565b935060208501356141e381614468565b925060408501356141f381614468565b9396929550929360600135925050565b600060208284031215614214578081fd5b5051919050565b6000806040838503121561422d578182fd5b505080516020909101519092909150565b6001600160a01b0391909116815260200190565b6001600160a01b0392831681529116602082015260400190565b6001600160a01b03929092168252602082015260400190565b600060e08201905060018060a01b038416825264ffffffffff835116602083015260ff60f81b602084015116604083015260ff604084015116606083015261ffff60608401511660808301526001600160701b031960808401511660a083015260a0830151151560c08301529392505050565b6001600160a01b0395909516855261ffff93909316602085015260408401919091526060830152608082015260a00190565b901515815260200190565b602080825260169082015275496e73756666696369656e7420616c6c6f77616e636560501b604082015260600190565b602080825260149082015273496e73756666696369656e742062616c616e636560601b604082015260600190565b6020808252600f908201526e4e6f205072696d6520426f72726f7760881b604082015260600190565b6020808252600a90820152692732b390372a37b5b2b760b11b604082015260600190565b6020808252600d908201526c04f76657220446562742043617609c1b604082015260600190565b90815260200190565b9283526020830191909152604082015260600190565b60405181810167ffffffffffffffff8111828210171561444257fe5b604052919050565b600067ffffffffffffffff82111561445e57fe5b5060209081020190565b6001600160a01b038116811461447d57600080fd5b50565b61ffff8116811461447d57600080fdfea26469706673582212208f977de2afd3742cb8f7fba7c2c4f9d53fd3530ea16eadb297565ab9382d055764736f6c63430007060033","bytecodeSha1":"9df337829b5794266c3825f27e8c880fc153dba2","compiler":{"evm_version":"istanbul","optimizer":{"enabled":true,"runs":200},"version":"0.7.6+commit.7338295f"},"contractName":"nTokenAction","deployedBytecode":"608060405234801561001057600080fd5b50600436106101005760003560e01c80638246336711610097578063c4c96dae11610066578063c4c96dae146101f8578063ca2cc3611461020e578063daca07a614610221578063e571164e1461022957610100565b806382463367146101c2578063884a7092146101ca5780638da5cb5b146101dd578063a78dbfff146101e557610100565b806341075971116100d357806341075971146101695780636a96e86f146101895780637c735c1c1461019c5780637db31ab9146101af57610100565b806318ae40d71461010557806324a3d6221461012e5780632e0ecba814610143578063309c00a614610156575b600080fd5b6101186101133660046141b3565b61023c565b604051610125919061432a565b60405180910390f35b6101366102a3565b604051610125919061423e565b610118610151366004613ee1565b6102b2565b6101186101643660046141b3565b61031d565b61017c610177366004614106565b610396565b6040516101259190614407565b61017c610197366004613ec5565b6103dc565b6101186101aa3660046141b3565b6103f0565b61017c6101bd366004614106565b610449565b6101366104bf565b6101186101d8366004614150565b6104ce565b610136610647565b61017c6101f33660046140ce565b61065e565b61020061067f565b604051610125929190614252565b61011861021c3660046141b3565b6106ad565b61017c610729565b610118610237366004614150565b6107e9565b60008061024c8661ffff166108e3565b9050336001600160a01b0382161461026357600080fd5b836001600160a01b0316856001600160a01b0316141561028257600080fd5b61028b84610910565b61029986868686600161098f565b9695505050505050565b6002546001600160a01b031681565b3360008181526004602090815260408083206001600160a01b038716808552925280832085905551919290917f8c5be1e5ebec7d5bd14f71427d1e84f3dd0314c0f7b2291e5b200ac8c7c3b9259061030b908690614407565b60405180910390a35060015b92915050565b60008061032d8661ffff166108e3565b9050336001600160a01b0382161461034457600080fd5b6001600160a01b03851661035757600080fd5b50506001600160a01b03928316600090815260056020908152604080832094909516825292835283812061ffff95909516815293909152912055600190565b60006103a0610bba565b6001600160a01b03808516600090815260209283526040808220928616825291835281812061ffff8816825290925290205490505b9392505050565b60006103e782610bc7565b50909392505050565b6000806103fc86610c23565b9050336001600160a01b0382161461041357600080fd5b836001600160a01b0316856001600160a01b0316141561043257600080fd5b61043b84610910565b61029986868686600061098f565b6001600160a01b038083166000908152600560209081526040808320938516835292815282822061ffff87168352905290812054801561048a5790506103d5565b50506001600160a01b038083166000908152600460209081526040808320938516835292905220546103d5565b509392505050565b6001546001600160a01b031681565b6000806104de8761ffff166108e3565b9050336001600160a01b038216146104f557600080fd5b836001600160a01b0316856001600160a01b0316141561051457600080fd5b61051d84610910565b6001600160a01b038086166000908152600560209081526040808320938a16835292815282822061ffff8b1683529052205480156105b9578381101561057e5760405162461bcd60e51b815260040161057590614335565b60405180910390fd5b6001600160a01b038087166000908152600560209081526040808320938b16835292815282822061ffff8c168352905220848203905561062b565b506001600160a01b038086166000908152600460209081526040808320938a1683529290522054838110156106005760405162461bcd60e51b815260040161057590614335565b6001600160a01b038087166000908152600460209081526040808320938b1683529290522084820390555b61063988878787600161098f565b925050505b95945050505050565b60005464010000000090046001600160a01b031681565b60008061066c838542610c50565b505091505060008112156103d557600080fd5b73__$841fddfe32830bb6dbc3a02d7f16c53722$__73__$f6541b0d362a0c7d99a2a29cd3d373d61b$__9091565b6000806106b986610c23565b9050336001600160a01b038216146106d057600080fd5b6001600160a01b0385166106e357600080fd5b826106ec610bba565b6001600160a01b0396871660009081526020918252604080822097909816815295815286862061ffff989098168652969096525050502055600190565b6000338161073682610c83565b90506000610742613b85565b61074b83610d31565b1561077d576060830151610763908290869086610d3e565b60008160400151131561077d5761077a8185610d5f565b91505b60808301515b6001600160701b03198116156107df5760f081901c613fff166107a883878388610d3e565b6000836040015113156107cc576107c96107c28488610d5f565b8590610da3565b93505b5060101b6001600160801b031916610783565b5090935050505090565b6000806107f587610c23565b9050336001600160a01b0382161461080c57600080fd5b836001600160a01b0316856001600160a01b0316141561082b57600080fd5b61083484610910565b600061083e610bba565b6001600160a01b03808816600090815260209283526040808220928b16825291835281812061ffff8c1682529092529020549050838110156108925760405162461bcd60e51b815260040161057590614335565b83810361089d610bba565b6001600160a01b03808916600090815260209283526040808220928c16825291835281812061ffff8d16825290925281209190915561063990899088908890889061098f565b6000806108ee610db5565b600084815260209190915260409020546001600160a01b03169150505b919050565b6001600160a01b03811661092357600080fd5b6001600160a01b038116610fee141561093b57600080fd5b6001600160a01b0381166105e7141561095357600080fd5b6001600160a01b03811630141561096957600080fd5b600061097482610dc2565b5050505061ffff1690508060001461098b57600080fd5b5050565b60008061099b84610e2b565b905060006109a887610c83565b90506109b381610e45565b15610a44576040516337b5fc2160e11b815273__$f6541b0d362a0c7d99a2a29cd3d373d61b$__90636f6bf842906109f1908a908590600401614285565b60c06040518083038186803b158015610a0957600080fd5b505af4158015610a1d573d6000803e3d6000fd5b505050506040513d601f19601f82011682018060405250810190610a41919061402b565b90505b610a4c613b85565b610a5881898b85610d3e565b8415610a7157610a6783610e99565b60a0820152610ac8565b6000816020015113610a955760405162461bcd60e51b815260040161057590614365565b8060200151831315610ab95760405162461bcd60e51b815260040161057590614365565b610ac283610e99565b60608201525b610ad3818984610ea7565b610add8289610ec6565b6000610ae888610c83565b9050610af2613b85565b610afe818a8d85610d3e565b8615610b105760a08101859052610b18565b606081018590525b610b23818a84610ea7565b610b2d828a610ec6565b60208401516001600160f81b03191615610ba957604051636ccc642f60e01b815273__$841fddfe32830bb6dbc3a02d7f16c53722$__90636ccc642f90610b78908d9060040161423e565b60006040518083038186803b158015610b9057600080fd5b505af4158015610ba4573d6000803e3d6000fd5b505050505b5060019a9950505050505050505050565b6000806103176023610fe3565b600080600080610bd5610ffc565b6001600160a01b0395909516600090815260209590955250506040909220546001600160601b03811693600160601b82046001600160801b03169350600160e01b90910463ffffffff169150565b6000610c2d611009565b61ffff90921660009081526020929092525060409020546001600160a01b031690565b6000806000806000610c628787611016565b509050610c708888836110d4565b9450945094509450505b93509350935093565b610c8b613be1565b6000610c9561118e565b6001600160a01b03841660009081526020918252604090819020815160c081018352905464ffffffffff811682526001600160f81b0319600160281b820460f81b169382019390935260ff600160301b840481169282019290925261ffff600160381b84041660608201526001600160701b0319600160481b840460701b166080820152600160d81b90920416151560a0820152915050919050565b6060015161ffff16151590565b610d478261119b565b610120850152610d59848484846111ad565b50505050565b6000610d788383610d738660400151611255565b611264565b9050610317828460000151856020015186604001518760e0015188610100015189610120015161135b565b6000828201838110156103d557600080fd5b6000806103176003610fe3565b600080600080600080610dd3611496565b6001600160a01b039097166000908152602097909752505060409094205461ffff81169563ffffffff62010000830481169650600160301b830416945060ff600160501b8304169350600160581b90910460d01b9150565b60006001600160ff1b03821115610e4157600080fd5b5090565b600042610e5183610d31565b15610e7257610e5f816114a3565b835164ffffffffff1610915061090b9050565b825164ffffffffff1615801590610e915750825164ffffffffff168110155b91505061090b565b6000610317600019836114c1565b608083015115610eb657600080fd5b610d59838384846000600161150f565b6000610ed061118e565b6001600160a01b03831660008181526020838152604080832088518154938a01518a84015160608c015160808d015160a08e015164ffffffffff1990981664ffffffffff9095169490941765ff00000000001916600160281b60f89490941c939093029290921766ff0000000000001916600160301b60ff909216919091021768ffff000000000000001916600160381b61ffff90921691909102177affffffffffffffffffffffffffffffffffff0000000000000000001916600160481b60709290921c919091021760ff60d81b1916600160d81b93151593909302929092179091555192935090917f6bd4b121bca854a191536a2ca891155c42ee2fb23f307fb34e8bc65cfcb5412e9190a2505050565b6000620f4240826026811115610ff557fe5b0192915050565b6000806103176011610fe3565b6000806103176021610fe3565b61101e613c16565b611026613c37565b61102f846116e6565b90508281600001511015611060576000611048856117ae565b905061105685838387611831565b50915061106d9050565b8051831461106d57600080fd5b604051806060016040528061109b6110968460a001518560c001516118d590919063ffffffff16565b610e2b565b81526020016110be6110968460a001518560e001516118d590919063ffffffff16565b8152602001826060015181525091509250929050565b60008060008060006110e46118fc565b6001600160a01b03891660009081526020828152604080832061ffff8c168452909152902080546001600160501b0381169650600160501b900463ffffffff169450909150831561115157805461114a90600160701b900466ffffffffffffff16611909565b9250611166565b8054600160701b900466ffffffffffffff1692505b8054611181908890600160a81b9004600a90810b900b611917565b9550505093509350935093565b6000806103176001610fe3565b6111a3613c16565b610317824261194b565b8161ffff1660001080156111c75750613fff61ffff831611155b6111d057600080fd5b61ffff82168085526111e3908290611a0c565b15611212576111f883838661012001516110d4565b61010088015260e087015260408601526020850152611230565b6000602085018190526040850181905260e085018190526101008501525b50506000606083018190526080830181905260a0830181905260c09092019190915250565b600080821215610e4157600080fd5b82516000904290829061127a9061ffff166108e3565b9050600061128782610bc7565b50509050600061129c838960c0015186611a96565b90506112aa88848389611b79565b945060006112b784611bf8565b90506001600160a01b0381161561133f57806001600160a01b0316633f3ef50d898b600001516112ea8d60400151611255565b8b886040518663ffffffff1660e01b815260040161130c9594939291906142f8565b600060405180830381600087803b15801561132657600080fd5b505af115801561133a573d6000803e3d6000fd5b505050505b851561134f5761134f8887611c6a565b50505050509392505050565b60006113656118fc565b6001600160a01b03891660009081526020828152604080832061ffff8c1684529091529020909150846113cd5766ffffffffffffff8411156113a657600080fd5b805466ffffffffffffff60701b1916600160701b66ffffffffffffff8616021781556113e7565b8054600160501b900463ffffffff1685146113e757600080fd5b6113f085611c89565b815463ffffffff91909116600160501b0263ffffffff60501b1990911617815561142161141c87611255565b611c9c565b815469ffffffffffffffffffff19166001600160501b039190911617808255611467906114629085908c908c90600160a81b9004600a90810b900b8c611cb2565b611cd5565b8154600a9190910b6001600160581b0316600160a81b026001600160a81b039091161790555050505050505050565b6000806103176002610fe3565b6000620151808210156114b557600080fd5b50620151808106900390565b8181026000198314156114f1578115806114e35750828282816114e057fe5b05145b6114ec57600080fd5b610317565b82158061150657508183828161150357fe5b05145b61031757600080fd5b600080600061152f88888b600001518c608001518d61012001518a611d07565b9250600061154e8a608001518b60600151611db090919063ffffffff16565b905084801561155d5750600081125b8015611578575060208a01516000906115769083611db0565b125b156115a3578660a0015161159e5760405162461bcd60e51b815260040161057590614393565b600191505b80156115c25760208a01516115b89082611db0565b60208b0152600192505b5060a08901511515806115d8575060c089015115155b156116415760006116088a60c001516116028c60a001518d60400151611db090919063ffffffff16565b90611db0565b9050600081121561162b5760405162461bcd60e51b8152600401610575906143bc565b6116368a8a83611264565b5060408a0152600191505b811561167057611670888a600001518b602001518c604001518d60e001518e61010001518f610120015161135b565b885160208a015161169d9161ffff1690151580611690575060408b015115155b889190600160fe1b611dc6565b6000896020015112156116c357602086018051600160f91b176001600160f81b03191690525b80156116da5788516101208a01516116da91611fc5565b50509695505050505050565b6116ee613c37565b60006116f8612008565b61ffff93841660009081526020918252604090819020805464ffffffffff81168652600160281b81046001600160581b03908116948701949094526001820154841692860192909252600160d81b820463ffffffff166060860152600160801b9091049091166080840152600201546001600160501b0380821660a0850152600160501b8204811660c0850152600160a01b82041660e0840152600160f01b900460ff1661012c02909216610100820152919050565b6000806117ba83612015565b6001600160a01b031663a77c05b86040518163ffffffff1660e01b8152600401604080518083038186803b1580156117f157600080fd5b505afa158015611805573d6000803e3d6000fd5b505050506040513d601f19601f82011682018060405250810190611829919061421b565b949350505050565b611839613c37565b6000806000611849888689612045565b60c08b019290925260e08a01929092526020890151919350915061186d9083610da3565b602088015260808701516000901561189b57608088015161189890611892898261214f565b90612164565b90505b6118bb6118b0670de0b6b3a764000083610da3565b60a08a015190612181565b60a089015250506080860194909452505082529092909150565b6000826118e457506000610317565b828202828482816118f157fe5b04146103d557600080fd5b6000806103176006610fe3565b600881901c60ff9091161b90565b6000808212611927575080610317565b82516020840151611944919061193e9085906114c1565b9061219e565b9050610317565b611953613c16565b600061195e846116e6565b9050828160000151101561199d57600080611978866121cf565b905061198686848388611831565b9093509150611996868385612228565b50506119aa565b805183146119aa57600080fd5b60405180606001604052806119d36110968460a001518560c001516118d590919063ffffffff16565b81526020016119f66110968460a001518560e001516118d590919063ffffffff16565b8152602001826060015181525091505092915050565b60008115801590611a1f5750613fff8211155b611a2857600080fd5b6080830151606084015161ffff16831415611a47576001915050610317565b6001600160701b0319811615611a8c5760f081901c613fff1683811415611a795750600160fe1b908116149050610317565b5060101b6001600160801b031916611a47565b5060009392505050565b6000806000611aa5868561245c565b50915091506000611ab4610ffc565b6001600160a01b0388166000908152602082905260408120919250611ad98589611db0565b905080600013158015611af257506001600160601b0381105b611afb57600080fd5b81546bffffffffffffffffffffffff19166001600160601b038216176fffffffffffffffffffffffffffffffff60601b1916600160601b6001600160801b0386160217825563ffffffff8710611b5057600080fd5b50805463ffffffff8716600160e01b026001600160e01b03909116179055509150509392505050565b60008460e00151600014611b8c57600080fd5b611bce611bc7866101000151611bc1670de0b6b3a7640000611bbb88611bb58c60400151611255565b906118d5565b906124f2565b9061214f565b8290610da3565b9050611be6670de0b6b3a7640000611bbb84866118d5565b85610100018181525050949350505050565b600080611c03611496565b6001600160a01b0384166000908152602082905260409020805491925090600160f81b900460ff1615611c5f57611c38612511565b6001600160a01b03808616600090815260209290925260409091205416925061090b915050565b60009250505061090b565b61098b73019be259bc299f3f653688c7655c87f998bc7bc1838361251e565b600063ffffffff821115610e4157600080fd5b60006001600160501b03821115610e4157600080fd5b6000611cbe868361259a565b905061063e868686611cd087866125d9565b612660565b60006a7fffffffffffffffffffff198212801590611cfe57506a7fffffffffffffffffffff8213155b610e4157600080fd5b600083611d1657506000610299565b60008412611d2357600080fd5b6000611d328661ffff16612694565b9050611d4781611d4286886126a7565b6126f0565b91506000611d5483610e99565b9050611d61878383612728565b600382606001516005811115611d7357fe5b1415611d8957611d8488828661281e565b611d96565b8151611d9690898361251e565b611da389888585896128e6565b5050509695505050505050565b8181018281121560008312151461031757600080fd5b826000108015611dd85750613fff8311155b611de157600080fd5b818015611df5575082846060015161ffff16145b15611dff57610d59565b6080840151600090815b6001600160701b0319821615611f7a5760f082901c613fff168681148015611e2e5750855b15611e6657506080870180516001600160f01b0319861660109093029290921c919091176001600160701b031916905250610d599050565b8681148015611e73575085155b15611ec8576001600160f01b03198516199290921691600360fe1b8316611ea6576010836001600160701b031916901b92505b506001600160701b031991821660109091021c91909117166080850152610d59565b8681118015611ed45750855b15611f2e576080888101516001600160f01b031960f08a901b88178116601086021c9690961795911b1615611f0857600080fd5b506001600160701b03199182166001919091016010021c91909117166080850152610d59565b8681118015611f3b575085155b15611f495750505050610d59565b506001600160f01b0319821660108281029190911c93909317929190911b6001600160801b03191690600101611e09565b84611f8757505050610d59565b60098110611f9457600080fd5b6001600160f01b031960f087901b85171660109091021c919091176001600160701b03191660808601525050505050565b600080611fd2848461292d565b9350935050508160001415611fe857505061098b565b81811115610d595760405162461bcd60e51b8152600401610575906143e0565b600080610317601d610fe3565b6000806120206129f1565b61ffff939093166000908152602093909352505060409020546001600160a01b031690565b60008060008060008061205889886129fe565b8951909550919350915060009061207f90612074908b9061214f565b633b9aca00906118d5565b90506120b96120ae6301da9c0061209685856118d5565b8161209d57fe5b670de0b6b3a7640000919004610da3565b60e08a015190612181565b96506120db6120d06301da9c0061209687856118d5565b60c08a015190612181565b9550818314156120f2575060009350610c7a915050565b60006121146121096301da9c0061209687866118d5565b60e08b015190612181565b90506000612122898361214f565b905061213f88611bbb838d604001516118d590919063ffffffff16565b9650505050505093509350935093565b60008282111561215e57600080fd5b50900390565b60006103d561217b84670de0b6b3a76400006118d5565b836124f2565b60006103d561219084846118d5565b670de0b6b3a76400006124f2565b6000816000191480156121b45750600160ff1b83145b156121be57600080fd5b8183816121c757fe5b059392505050565b6000806121db83612015565b6001600160a01b031663ef81f2166040518163ffffffff1660e01b81526004016040805180830381600087803b15801561221457600080fd5b505af1158015611805573d6000803e3d6000fd5b6000612232612008565b60008561ffff16815260200190815260200160002090506122568260000151612a98565b815464ffffffffff191664ffffffffff9190911617815560a082015161227b90611c9c565b60028201805469ffffffffffffffffffff19166001600160501b039290921691909117905560c08201516122ae90611c9c565b81600201600a6101000a8154816001600160501b0302191690836001600160501b031602179055506122e38260e00151611c9c565b8160020160146101000a8154816001600160501b0302191690836001600160501b031602179055506123188260200151612aac565b81546001600160581b0391909116600160281b026fffffffffffffffffffffff000000000019909116178155604082015161235290612aac565b6001820180546affffffffffffffffffffff19166001600160581b0392909216919091179055608082015161238690612aac565b81546001600160581b0391909116600160801b026affffffffffffffffffffff60801b1990911617815560608201516123be90611c89565b815463ffffffff91909116600160d81b0263ffffffff60d81b19909116178155821561240a5760006123ef84610e2b565b90506123fb8582612ac2565b612408610fee8683612af9565b505b8361ffff167fef25641e225e493886510ca1ad6584fa7b442b9fea820a29d1de3ce27d270fd28360a001518460c001518560e0015160405161244e93929190614410565b60405180910390a250505050565b600080600061246a85610bc7565b9194509250905080841180156124805750600081115b801561248c5750600083115b156124eb57600061249c86610dc2565b50505091505060006124c76124be6305f5e100846118d590919063ffffffff16565b84880387612b79565b90506124d38482610da3565b93506001600160801b0384106124e857600080fd5b50505b9250925092565b600080821161250057600080fd5b81838161250957fe5b049392505050565b6000806103176012610fe3565b826001600160a01b031663a9059cbb83836040518363ffffffff1660e01b815260040180836001600160a01b0316815260200182815260200192505050600060405180830381600087803b15801561257557600080fd5b505af1158015612589573d6000803e3d6000fd5b50505050612595612b9b565b505050565b6000808212156125d3576125ce60016125c8856020015161193e8760000151876114c190919063ffffffff16565b90612c08565b6103d5565b50919050565b6000818314806125f65750600083121580156125f6575060008212155b1561260357506000610317565b600083131580156126145750816000125b15612620575081610317565b600082131580156126315750826000125b1561263f5761194482610e99565b60008313158015612651575060008213155b15610100576119448383612c08565b8015610d59578351602085015160009161267f9161193e9085906114c1565b905061268d84848484612c1e565b5050505050565b61269c613c83565b610317826001612d69565b6000806126d46ec097ce7bc90715b34b9f100000000061193e8660000151866114c190919063ffffffff16565b9050600083126126e45780611829565b61182981600019612e03565b60006305f5e10083604001511415612709575080610317565b6103d56305f5e10061193e8560400151856114c190919063ffffffff16565b6000612732612e19565b83516001600160a01b031660009081526020829052604090205490915080831161275d575050612595565b600061276886612015565b90506000816001600160a01b031663b5e4da238487036040518263ffffffff1660e01b815260040161279a9190614407565b60006040518083038186803b1580156127b257600080fd5b505afa1580156127c6573d6000803e3d6000fd5b505050506040513d6000823e601f3d908101601f191682016040526127ee9190810190613f0c565b905060006127fc8783612e26565b90506128088482610da3565b86111561281457600080fd5b5050505050505050565b80156128b0577382af49447d8a07e3bd95bd0d56f35241523fbab16001600160a01b031663d0e30db0836040518263ffffffff1660e01b81526004016000604051808303818588803b15801561287357600080fd5b505af1158015612887573d6000803e3d6000fd5b50505050506128ab7382af49447d8a07e3bd95bd0d56f35241523fbab1848461251e565b612595565b6040516001600160a01b0384169083156108fc029084906000818181858888f19350505050158015610d59573d6000803e3d6000fd5b6000806128f38486613069565b90506128ff8382613099565b915061290c878784612af9565b6129178683836130bd565b835161292390866131c4565b5095945050505050565b600080600080600061293d612008565b61ffff8716600090815260209190915260409020600181015490915061296f90600160581b900463ffffffff16611909565b600182015490955061299390606490611bbb908890600160781b900460ff166118d5565b8154909350600160281b90046001600160581b03166129ba6129b589836126a7565b611255565b60018301549095506001600160581b03166000036129e36129b56129de8b84613219565b610e99565b935050505092959194509250565b600080610317601f610fe3565b600080600080600085602001511115612a4b57612a48612a2f8660c0015187602001516118d590919063ffffffff16565b60e08701516040880151612a42916118d5565b90613264565b90505b6000612a5687613277565b9050612a6281836132aa565b94508115612a7957612a7681866001613363565b93505b6020860151156124e857612a8d85836133db565b925050509250925092565b600064ffffffffff821115610e4157600080fd5b60006001600160581b03821115610e4157600080fd5b6000811215612ad057600080fd5b6000612ade610fee846133f4565b9050612aea8183611db0565b9050612595610fee848361344d565b6000612b03611009565b61ffff8416600090815260209190915260409081902054905163ad1c095d60e01b81526001600160a01b039091169150819063ad1c095d90612b4b908790869060040161426c565b600060405180830381600087803b158015612b6557600080fd5b505af1158015612814573d6000803e3d6000fd5b600061182982611bbb6301da9c008188611bb589670de0b6b3a76400006118d5565b6000612ba5613cb2565b3d8015612bb95760208114612bc257600080fd5b60019250612bcd565b60206000833e815192505b508161098b576040805162461bcd60e51b8152602060048201526005602482015264045524332360dc1b604482015290519081900360640190fd5b8082038281131560008312151461031757600080fd5b6000612c28612008565b61ffff8516600090815260209190915260409020805490915064ffffffffff164214612c5357600080fd5b8054600160f81b900460ff16612c6857600080fd5b6001810154600090612c83906001600160581b031685611db0565b8254909150600090612ca590600160281b90046001600160581b031685611db0565b905081600919128015612cb85750600082125b15612cc257600091505b80600919128015612cd35750600081125b15612cdc575060005b612ced612ce883611255565b612aac565b6001840180546affffffffffffffffffffff19166001600160581b0392909216919091179055612d1f612ce882611255565b83546001600160581b0391909116600160281b026fffffffffffffffffffffff000000000019909116178355612d57878786886134c1565b612d60836135d5565b50505050505050565b612d71613c83565b6000612d7b6136a0565b6000858152602082815260408083208715158452825291829020825160a08101845281546001600160a01b038116825260ff600160a01b82048116151594830194909452600160b01b81048416600a0a9482019490945293945092916060830191600160a81b909104166005811115612df057fe5b8152600060209091015295945050505050565b6000818312612e1257816103d5565b5090919050565b6000806103176026610fe3565b6000805b8251811015613062576000838281518110612e4157fe5b60200260200101519050600081606001516001600160a01b03166370a08231306040518263ffffffff1660e01b8152600401612e7d919061423e565b60206040518083038186803b158015612e9557600080fd5b505afa158015612ea9573d6000803e3d6000fd5b505050506040513d601f19601f82011682018060405250810190612ecd9190614203565b90506000612edb87306136ad565b905060005b835151811015612f2c57612f2484600001518281518110612efd57fe5b6020026020010151600086602001518481518110612f1757fe5b6020026020010151613757565b600101612ee0565b506000612f3988306136ad565b90506000612f47828461214f565b90508085604001511115612f5a57600080fd5b60608501516040516370a0823160e01b81526000916001600160a01b0316906370a0823190612f8d90309060040161423e565b60206040518083038186803b158015612fa557600080fd5b505afa158015612fb9573d6000803e3d6000fd5b505050506040513d601f19601f82011682018060405250810190612fdd9190614203565b905084811115612fec57600080fd5b608086015160ff161580159061300b5750613007858261214f565b8214155b1561302657608086015161302390829060ff16610da3565b90505b61303586606001518683613894565b61303f8883610da3565b97506130508a600001518585613894565b505060019094019350612e2a92505050565b5092915050565b60006305f5e10083604001511415613082575080610317565b60408301516103d59061193e846305f5e1006114c1565b815160009081906126d49061193e856ec097ce7bc90715b34b9f10000000006114c1565b60006130c7612008565b61ffff8516600090815260209190915260409020805490915064ffffffffff1642146130f257600080fd5b805460009061311190600160281b90046001600160581b031685611db0565b825490915060009061313390600160801b90046001600160581b031685611db0565b905080624c4b40131561314557600080fd5b613151612ce882611255565b83546001600160581b0391909116600160801b026affffffffffffffffffffff60801b19909116178355613187612ce883611255565b83546001600160581b0391909116600160281b026fffffffffffffffffffffff0000000000199091161783556131bc836135d5565b505050505050565b60006131ce612e19565b6001600160a01b0384166000908152602082905260409020549091506131f76129b58285611db0565b6001600160a01b03909416600090815260209290925250604090209190915550565b60006001821261322857600080fd5b8161323557506000610317565b6103d560016125c86ec097ce7bc90715b34b9f100000000061193e8760200151876114c190919063ffffffff16565b60006103d561217b84633b9aca006118d5565b61327f613cd0565b6000613289613911565b61ffff84166000908152602091909152604081205491506103d5908261391e565b6000808360800151116132bc57600080fd5b633b9aca008211156132cd57600080fd5b825182116132ec57825160408401516119449190611bbb9085906118d5565b8260200151821161332a57604083015183516020850151606086015161194493926133249281900391611bbb918803908590036118d5565b90610da3565b6103d583606001516133248560200151633b9aca0003611bbb8760600151886080015103886020015188036118d590919063ffffffff16565b6000806133826064611bbb8760e00151876118d590919063ffffffff16565b90508460a00151811015613397575060a08401515b8460c001518111156133aa575060c08401515b82156133c1576133ba8482610da3565b91506104b7565b8381116133d05780840361063e565b600095945050505050565b60006103d56133ea84846118d5565b633b9aca006124f2565b6000806133ff6118fc565b6001600160a01b03851660009081526020828152604080832061ffff8816845290915281208054600160a81b9004600a90810b900b945091925083121561344557600080fd5b505092915050565b600081121561345b57600080fd5b60006134656118fc565b6001600160a01b03851660009081526020828152604080832061ffff88168452909152902090915061349683611cd5565b8154600a9190910b6001600160581b0316600160a81b026001600160a81b0390911617905550505050565b60006134cb611009565b61ffff8516600090815260209190915260408120546001600160a01b031691506134f3613a3d565b61ffff8616600090815260209190915260409081902054905163ad1c095d60e01b81526001600160a01b039091169150819063ad1c095d9061353b908990879060040161426c565b600060405180830381600087803b15801561355557600080fd5b505af1158015613569573d6000803e3d6000fd5b505060405163ad1c095d60e01b81526001600160a01b038516925063ad1c095d915061359b908990889060040161426c565b600060405180830381600087803b1580156135b557600080fd5b505af11580156135c9573d6000803e3d6000fd5b50505050505050505050565b8054600282015460009161361791600160281b9091046001600160581b031690613611906001600160501b03600160501b8204811691166114c1565b906114c1565b60018301546002840154919250600091613651916001600160581b031690613611906001600160501b03600160a01b8204811691166114c1565b83549091506000906136889060016001600160581b03600160801b909204821601166ec097ce7bc90715b34b9f10000000006114c1565b9050806136958484612c08565b1315610d5957600080fd5b6000806103176007610fe3565b60006003836060015160058111156136c157fe5b14156136d857506001600160a01b03811631610317565b82516040516370a0823160e01b81526001600160a01b03909116906370a082319061370790859060040161423e565b60206040518083038186803b15801561371f57600080fd5b505afa158015613733573d6000803e3d6000fd5b505050506040513d601f19601f820116820180604052508101906119449190614203565b600080846001600160a01b031684846040518082805190602001908083835b602083106137955780518252601f199092019160209182019101613776565b6001836020036101000a03801982511681845116808217855250505050505090500191505060006040518083038185875af1925050503d80600081146137f7576040519150601f19603f3d011682016040523d82523d6000602084013e6137fc565b606091505b50915091508161380b82613a4a565b906131bc5760405162461bcd60e51b81526004018080602001828103825283818151815260200191508051906020019080838360005b83811015613859578181015183820152602001613841565b50505050905090810190601f1680156138865780820380516001836020036101000a031916815260200191505b509250505060405180910390fd5b600061389e612e19565b6001600160a01b038516600090815260208290526040902054909150838111156138c757600080fd5b60006138de6138d586610e2b565b6125c886610e2b565b90506138ed6129b58383611db0565b6001600160a01b039096166000908152602093909352505060409020929092555050565b600080610317601b610fe3565b613926613cd0565b6064633b9aca008360ff86166020811061393c57fe5b1a028161394557fe5b0481526064633b9aca008360ff86166001016020811061396157fe5b1a028161396a57fe5b0481602001818152505061398f8260028560ff16016020811061398957fe5b1a613b51565b60808201819052610100908360ff8616600301602081106139ac57fe5b1a02816139b557fe5b0460408201526080810151610100908360ff8616600401602081106139d657fe5b1a02816139df57fe5b0460608201526207a1208260ff8516600501602081106139fb57fe5b1a0260a0820152622625a08260ff851660060160208110613a1857fe5b1a0260c08201528160ff841660070160208110613a3157fe5b1a60e082015292915050565b6000806103176022610fe3565b6060604482511015613a80575060408051808201909152600d81526c14da5b195b9d0814995d995c9d609a1b602082015261090b565b6004820180519092602401906020811015613a9a57600080fd5b8101908080516040519392919084640100000000821115613aba57600080fd5b908301906020820185811115613acf57600080fd5b8251640100000000811182820188101715613ae957600080fd5b82525081516020918201929091019080838360005b83811015613b16578181015183820152602001613afe565b50505050905090810190601f168015613b435780820380516001836020036101000a031916815260200191505b506040525050509050919050565b60008160ff16609610613b6c5760ff8216622625a002610317565b5060951960ff919091160162e4e1c00263165a0bc00190565b604051806101400160405280600061ffff1681526020016000815260200160008152602001600081526020016000815260200160008152602001600081526020016000815260200160008152602001613bdc613c16565b905290565b6040805160c081018252600080825260208201819052918101829052606081018290526080810182905260a081019190915290565b60405180606001604052806000815260200160008152602001600081525090565b6040518061012001604052806000815260200160008152602001600081526020016000815260200160008152602001600081526020016000815260200160008152602001600081525090565b6040805160a0810182526000808252602082018190529181018290529060608201908152602001600081525090565b60405180602001604052806001906020820280368337509192915050565b60405180610100016040528060008152602001600081526020016000815260200160008152602001600081526020016000815260200160008152602001600081525090565b805161090b81614468565b600082601f830112613d30578081fd5b81516020613d45613d408361444a565b614426565b8281528181019085830183850287018401881015613d61578586fd5b855b85811015613d88578151613d7681614468565b84529284019290840190600101613d63565b5090979650505050505050565b6000601f8381840112613da6578182fd5b82516020613db6613d408361444a565b82815281810190868301865b85811015613e5b57815189018a603f820112613ddc578889fd5b8581015167ffffffffffffffff811115613df257fe5b613e03818a01601f19168801614426565b81815260408d81848601011115613e18578b8cfd5b8b5b83811015613e35578481018201518382018b01528901613e1a565b83811115613e45578c8a85850101525b5050865250509284019290840190600101613dc2565b509098975050505050505050565b8051801515811461090b57600080fd5b80516001600160701b03198116811461090b57600080fd5b80516001600160f81b03198116811461090b57600080fd5b805161090b81614480565b805160ff8116811461090b57600080fd5b600060208284031215613ed6578081fd5b81356103d581614468565b60008060408385031215613ef3578081fd5b8235613efe81614468565b946020939093013593505050565b60006020808385031215613f1e578182fd5b825167ffffffffffffffff80821115613f35578384fd5b818501915085601f830112613f48578384fd5b8151613f56613d408261444a565b81815284810190848601875b8481101561401c578151870160a0818d03601f19011215613f8157898afd5b6040805160a081018181108a82111715613f9757fe5b8252828b015189811115613fa9578c8dfd5b613fb78f8d83870101613d20565b8252508183015189811115613fca578c8dfd5b613fd88f8d83870101613d95565b8c83015250606083015182820152613ff260808401613d15565b606082015261400360a08401613eb4565b6080820152865250509287019290870190600101613f62565b50909998505050505050505050565b600060c0828403121561403c578081fd5b60405160c0810181811067ffffffffffffffff8211171561405957fe5b604052825164ffffffffff81168114614070578283fd5b815261407e60208401613e91565b602082015261408f60408401613eb4565b60408201526140a060608401613ea9565b60608201526140b160808401613e79565b60808201526140c260a08401613e69565b60a08201529392505050565b600080604083850312156140e0578182fd5b82356140eb81614480565b915060208301356140fb81614468565b809150509250929050565b60008060006060848603121561411a578081fd5b833561412581614480565b9250602084013561413581614468565b9150604084013561414581614468565b809150509250925092565b600080600080600060a08688031215614167578283fd5b853561417281614480565b9450602086013561418281614468565b9350604086013561419281614468565b925060608601356141a281614468565b949793965091946080013592915050565b600080600080608085870312156141c8578182fd5b84356141d381614480565b935060208501356141e381614468565b925060408501356141f381614468565b9396929550929360600135925050565b600060208284031215614214578081fd5b5051919050565b6000806040838503121561422d578182fd5b505080516020909101519092909150565b6001600160a01b0391909116815260200190565b6001600160a01b0392831681529116602082015260400190565b6001600160a01b03929092168252602082015260400190565b600060e08201905060018060a01b038416825264ffffffffff835116602083015260ff60f81b602084015116604083015260ff604084015116606083015261ffff60608401511660808301526001600160701b031960808401511660a083015260a0830151151560c08301529392505050565b6001600160a01b0395909516855261ffff93909316602085015260408401919091526060830152608082015260a00190565b901515815260200190565b602080825260169082015275496e73756666696369656e7420616c6c6f77616e636560501b604082015260600190565b602080825260149082015273496e73756666696369656e742062616c616e636560601b604082015260600190565b6020808252600f908201526e4e6f205072696d6520426f72726f7760881b604082015260600190565b6020808252600a90820152692732b390372a37b5b2b760b11b604082015260600190565b6020808252600d908201526c04f76657220446562742043617609c1b604082015260600190565b90815260200190565b9283526020830191909152604082015260600190565b60405181810167ffffffffffffffff8111828210171561444257fe5b604052919050565b600067ffffffffffffffff82111561445e57fe5b5060209081020190565b6001600160a01b038116811461447d57600080fd5b50565b61ffff8116811461447d57600080fdfea26469706673582212208f977de2afd3742cb8f7fba7c2c4f9d53fd3530ea16eadb297565ab9382d055764736f6c63430007060033","language":"Solidity","natspec":{"kind":"dev","methods":{"getLibInfo()":{"notice":"Get a list of deployed library addresses (sorted by library name)"},"nTokenBalanceOf(uint16,address)":{"notice":"Get the number of tokens held by the `account`","params":{"account":"The address of the account to get the balance of"},"returns":{"_0":"The number of tokens held"}},"nTokenClaimIncentives()":{"details":"auth:msg.sender","notice":"Claims incentives accrued on all nToken balances and transfers them to the msg.sender","returns":{"_0":"Total amount of incentives claimed"}},"nTokenTotalSupply(address)":{"notice":"Total number of tokens in circulation","params":{"nTokenAddress":"The address of the nToken"},"returns":{"totalSupply":"number of tokens held"}},"nTokenTransfer(uint16,address,address,uint256)":{"details":"auth:nTokenProxy","notice":"Transfer `amount` tokens from `msg.sender` to `dst`","params":{"amount":"The number of tokens to transfer","from":"The address of the destination account","to":"The address of the destination account"},"returns":{"_0":"Whether or not the transfer succeeded"}},"nTokenTransferAllowance(uint16,address,address)":{"notice":"Get the number of tokens `spender` is approved to spend on behalf of `account`","params":{"currencyId":"Currency id of the nToken account","spender":"The address of the account spending the funds","tokenHolder":"The address of the account holding the funds"},"returns":{"_0":"The number of tokens approved"}},"nTokenTransferApprove(uint16,address,address,uint256)":{"details":"auth:nTokenProxy","notice":"Approve `spender` to transfer up to `amount` from `src`","params":{"amount":"The number of tokens that are approved (2^256-1 means infinite)","currencyId":"Currency id of the nToken account","spender":"The address of the account which may transfer tokens","tokenHolder":"The address of the account holding the funds"},"returns":{"_0":"Whether or not the approval succeeded"}},"nTokenTransferApproveAll(address,uint256)":{"details":"emit:Approvalauth:msg.sender","notice":"Will approve all nToken transfers to the specific sender. This is used for simplifying UX, a user can approve all token transfers to an external exchange or protocol in a single txn. This must be called directly on the Notional contract, not available via the ERC20 proxy.","params":{"amount":"The number of tokens that are approved","spender":"The address of the account which may transfer tokens"},"returns":{"_0":"Whether or not the approval succeeded"}},"nTokenTransferFrom(uint16,address,address,address,uint256)":{"details":"auth:nTokenProxy","notice":"Transfer `amount` tokens from `src` to `dst`","params":{"amount":"The number of tokens to transfer","currencyId":"Currency id of the nToken","from":"The address of the source account","spender":"The address of the original caller","to":"The address of the destination account"},"returns":{"_0":"Whether or not the transfer succeeded"}}},"version":1},"opcodes":"PUSH1 0x80 PUSH1 0x40 MSTORE CALLVALUE DUP1 ISZERO PUSH2 0x10 JUMPI PUSH1 0x0 DUP1 REVERT JUMPDEST POP PUSH1 0x4 CALLDATASIZE LT PUSH2 0x100 JUMPI PUSH1 0x0 CALLDATALOAD PUSH1 0xE0 SHR DUP1 PUSH4 0x82463367 GT PUSH2 0x97 JUMPI DUP1 PUSH4 0xC4C96DAE GT PUSH2 0x66 JUMPI DUP1 PUSH4 0xC4C96DAE EQ PUSH2 0x1F8 JUMPI DUP1 PUSH4 0xCA2CC361 EQ PUSH2 0x20E JUMPI DUP1 PUSH4 0xDACA07A6 EQ PUSH2 0x221 JUMPI DUP1 PUSH4 0xE571164E EQ PUSH2 0x229 JUMPI PUSH2 0x100 JUMP JUMPDEST DUP1 PUSH4 0x82463367 EQ PUSH2 0x1C2 JUMPI DUP1 PUSH4 0x884A7092 EQ PUSH2 0x1CA JUMPI DUP1 PUSH4 0x8DA5CB5B EQ PUSH2 0x1DD JUMPI DUP1 PUSH4 0xA78DBFFF EQ PUSH2 0x1E5 JUMPI PUSH2 0x100 JUMP JUMPDEST DUP1 PUSH4 0x41075971 GT PUSH2 0xD3 JUMPI DUP1 PUSH4 0x41075971 EQ PUSH2 0x169 JUMPI DUP1 PUSH4 0x6A96E86F EQ PUSH2 0x189 JUMPI DUP1 PUSH4 0x7C735C1C EQ PUSH2 0x19C JUMPI DUP1 PUSH4 0x7DB31AB9 EQ PUSH2 0x1AF JUMPI PUSH2 0x100 JUMP JUMPDEST DUP1 PUSH4 0x18AE40D7 EQ PUSH2 0x105 JUMPI DUP1 PUSH4 0x24A3D622 EQ PUSH2 0x12E JUMPI DUP1 PUSH4 0x2E0ECBA8 EQ PUSH2 0x143 JUMPI DUP1 PUSH4 0x309C00A6 EQ PUSH2 0x156 JUMPI JUMPDEST PUSH1 0x0 DUP1 REVERT JUMPDEST PUSH2 0x118 PUSH2 0x113 CALLDATASIZE PUSH1 0x4 PUSH2 0x41B3 JUMP JUMPDEST PUSH2 0x23C JUMP JUMPDEST PUSH1 0x40 MLOAD PUSH2 0x125 SWAP2 SWAP1 PUSH2 0x432A JUMP JUMPDEST PUSH1 0x40 MLOAD DUP1 SWAP2 SUB SWAP1 RETURN JUMPDEST PUSH2 0x136 PUSH2 0x2A3 JUMP JUMPDEST PUSH1 0x40 MLOAD PUSH2 0x125 SWAP2 SWAP1 PUSH2 0x423E JUMP JUMPDEST PUSH2 0x118 PUSH2 0x151 CALLDATASIZE PUSH1 0x4 PUSH2 0x3EE1 JUMP JUMPDEST PUSH2 0x2B2 JUMP JUMPDEST PUSH2 0x118 PUSH2 0x164 CALLDATASIZE PUSH1 0x4 PUSH2 0x41B3 JUMP JUMPDEST PUSH2 0x31D JUMP JUMPDEST PUSH2 0x17C PUSH2 0x177 CALLDATASIZE PUSH1 0x4 PUSH2 0x4106 JUMP JUMPDEST PUSH2 0x396 JUMP JUMPDEST PUSH1 0x40 MLOAD PUSH2 0x125 SWAP2 SWAP1 PUSH2 0x4407 JUMP JUMPDEST PUSH2 0x17C PUSH2 0x197 CALLDATASIZE PUSH1 0x4 PUSH2 0x3EC5 JUMP JUMPDEST PUSH2 0x3DC JUMP JUMPDEST PUSH2 0x118 PUSH2 0x1AA CALLDATASIZE PUSH1 0x4 PUSH2 0x41B3 JUMP JUMPDEST PUSH2 0x3F0 JUMP JUMPDEST PUSH2 0x17C PUSH2 0x1BD CALLDATASIZE PUSH1 0x4 PUSH2 0x4106 JUMP JUMPDEST PUSH2 0x449 JUMP JUMPDEST PUSH2 0x136 PUSH2 0x4BF JUMP JUMPDEST PUSH2 0x118 PUSH2 0x1D8 CALLDATASIZE PUSH1 0x4 PUSH2 0x4150 JUMP JUMPDEST PUSH2 0x4CE JUMP JUMPDEST PUSH2 0x136 PUSH2 0x647 JUMP JUMPDEST PUSH2 0x17C PUSH2 0x1F3 CALLDATASIZE PUSH1 0x4 PUSH2 0x40CE JUMP JUMPDEST PUSH2 0x65E JUMP JUMPDEST PUSH2 0x200 PUSH2 0x67F JUMP JUMPDEST PUSH1 0x40 MLOAD PUSH2 0x125 SWAP3 SWAP2 SWAP1 PUSH2 0x4252 JUMP JUMPDEST PUSH2 0x118 PUSH2 0x21C CALLDATASIZE PUSH1 0x4 PUSH2 0x41B3 JUMP JUMPDEST PUSH2 0x6AD JUMP JUMPDEST PUSH2 0x17C PUSH2 0x729 JUMP JUMPDEST PUSH2 0x118 PUSH2 0x237 CALLDATASIZE PUSH1 0x4 PUSH2 0x4150 JUMP JUMPDEST PUSH2 0x7E9 JUMP JUMPDEST PUSH1 0x0 DUP1 PUSH2 0x24C DUP7 PUSH2 0xFFFF AND PUSH2 0x8E3 JUMP JUMPDEST SWAP1 POP CALLER PUSH1 0x1 PUSH1 0x1 PUSH1 0xA0 SHL SUB DUP3 AND EQ PUSH2 0x263 JUMPI PUSH1 0x0 DUP1 REVERT JUMPDEST DUP4 PUSH1 0x1 PUSH1 0x1 PUSH1 0xA0 SHL SUB AND DUP6 PUSH1 0x1 PUSH1 0x1 PUSH1 0xA0 SHL SUB AND EQ ISZERO PUSH2 0x282 JUMPI PUSH1 0x0 DUP1 REVERT JUMPDEST PUSH2 0x28B DUP5 PUSH2 0x910 JUMP JUMPDEST PUSH2 0x299 DUP7 DUP7 DUP7 DUP7 PUSH1 0x1 PUSH2 0x98F JUMP JUMPDEST SWAP7 SWAP6 POP POP POP POP POP POP JUMP JUMPDEST PUSH1 0x2 SLOAD PUSH1 0x1 PUSH1 0x1 PUSH1 0xA0 SHL SUB AND DUP2 JUMP JUMPDEST CALLER PUSH1 0x0 DUP2 DUP2 MSTORE PUSH1 0x4 PUSH1 0x20 SWAP1 DUP2 MSTORE PUSH1 0x40 DUP1 DUP4 KECCAK256 PUSH1 0x1 PUSH1 0x1 PUSH1 0xA0 SHL SUB DUP8 AND DUP1 DUP6 MSTORE SWAP3 MSTORE DUP1 DUP4 KECCAK256 DUP6 SWAP1 SSTORE MLOAD SWAP2 SWAP3 SWAP1 SWAP2 PUSH32 0x8C5BE1E5EBEC7D5BD14F71427D1E84F3DD0314C0F7B2291E5B200AC8C7C3B925 SWAP1 PUSH2 0x30B SWAP1 DUP7 SWAP1 PUSH2 0x4407 JUMP JUMPDEST PUSH1 0x40 MLOAD DUP1 SWAP2 SUB SWAP1 LOG3 POP PUSH1 0x1 JUMPDEST SWAP3 SWAP2 POP POP JUMP JUMPDEST PUSH1 0x0 DUP1 PUSH2 0x32D DUP7 PUSH2 0xFFFF AND PUSH2 0x8E3 JUMP JUMPDEST SWAP1 POP CALLER PUSH1 0x1 PUSH1 0x1 PUSH1 0xA0 SHL SUB DUP3 AND EQ PUSH2 0x344 JUMPI PUSH1 0x0 DUP1 REVERT JUMPDEST PUSH1 0x1 PUSH1 0x1 PUSH1 0xA0 SHL SUB DUP6 AND PUSH2 0x357 JUMPI PUSH1 0x0 DUP1 REVERT JUMPDEST POP POP PUSH1 0x1 PUSH1 0x1 PUSH1 0xA0 SHL SUB SWAP3 DUP4 AND PUSH1 0x0 SWAP1 DUP2 MSTORE PUSH1 0x5 PUSH1 0x20 SWAP1 DUP2 MSTORE PUSH1 0x40 DUP1 DUP4 KECCAK256 SWAP5 SWAP1 SWAP6 AND DUP3 MSTORE SWAP3 DUP4 MSTORE DUP4 DUP2 KECCAK256 PUSH2 0xFFFF SWAP6 SWAP1 SWAP6 AND DUP2 MSTORE SWAP4 SWAP1 SWAP2 MSTORE SWAP2 KECCAK256 SSTORE PUSH1 0x1 SWAP1 JUMP JUMPDEST PUSH1 0x0 PUSH2 0x3A0 PUSH2 0xBBA JUMP JUMPDEST PUSH1 0x1 PUSH1 0x1 PUSH1 0xA0 SHL SUB DUP1 DUP6 AND PUSH1 0x0 SWAP1 DUP2 MSTORE PUSH1 0x20 SWAP3 DUP4 MSTORE PUSH1 0x40 DUP1 DUP3 KECCAK256 SWAP3 DUP7 AND DUP3 MSTORE SWAP2 DUP4 MSTORE DUP2 DUP2 KECCAK256 PUSH2 0xFFFF DUP9 AND DUP3 MSTORE SWAP1 SWAP3 MSTORE SWAP1 KECCAK256 SLOAD SWAP1 POP JUMPDEST SWAP4 SWAP3 POP POP POP JUMP JUMPDEST PUSH1 0x0 PUSH2 0x3E7 DUP3 PUSH2 0xBC7 JUMP JUMPDEST POP SWAP1 SWAP4 SWAP3 POP POP POP JUMP JUMPDEST PUSH1 0x0 DUP1 PUSH2 0x3FC DUP7 PUSH2 0xC23 JUMP JUMPDEST SWAP1 POP CALLER PUSH1 0x1 PUSH1 0x1 PUSH1 0xA0 SHL SUB DUP3 AND EQ PUSH2 0x413 JUMPI PUSH1 0x0 DUP1 REVERT JUMPDEST DUP4 PUSH1 0x1 PUSH1 0x1 PUSH1 0xA0 SHL SUB AND DUP6 PUSH1 0x1 PUSH1 0x1 PUSH1 0xA0 SHL SUB AND EQ ISZERO PUSH2 0x432 JUMPI PUSH1 0x0 DUP1 REVERT JUMPDEST PUSH2 0x43B DUP5 PUSH2 0x910 JUMP JUMPDEST PUSH2 0x299 DUP7 DUP7 DUP7 DUP7 PUSH1 0x0 PUSH2 0x98F JUMP JUMPDEST PUSH1 0x1 PUSH1 0x1 PUSH1 0xA0 SHL SUB DUP1 DUP4 AND PUSH1 0x0 SWAP1 DUP2 MSTORE PUSH1 0x5 PUSH1 0x20 SWAP1 DUP2 MSTORE PUSH1 0x40 DUP1 DUP4 KECCAK256 SWAP4 DUP6 AND DUP4 MSTORE SWAP3 DUP2 MSTORE DUP3 DUP3 KECCAK256 PUSH2 0xFFFF DUP8 AND DUP4 MSTORE SWAP1 MSTORE SWAP1 DUP2 KECCAK256 SLOAD DUP1 ISZERO PUSH2 0x48A JUMPI SWAP1 POP PUSH2 0x3D5 JUMP JUMPDEST POP POP PUSH1 0x1 PUSH1 0x1 PUSH1 0xA0 SHL SUB DUP1 DUP4 AND PUSH1 0x0 SWAP1 DUP2 MSTORE PUSH1 0x4 PUSH1 0x20 SWAP1 DUP2 MSTORE PUSH1 0x40 DUP1 DUP4 KECCAK256 SWAP4 DUP6 AND DUP4 MSTORE SWAP3 SWAP1 MSTORE KECCAK256 SLOAD PUSH2 0x3D5 JUMP JUMPDEST POP SWAP4 SWAP3 POP POP POP JUMP JUMPDEST PUSH1 0x1 SLOAD PUSH1 0x1 PUSH1 0x1 PUSH1 0xA0 SHL SUB AND DUP2 JUMP JUMPDEST PUSH1 0x0 DUP1 PUSH2 0x4DE DUP8 PUSH2 0xFFFF AND PUSH2 0x8E3 JUMP JUMPDEST SWAP1 POP CALLER PUSH1 0x1 PUSH1 0x1 PUSH1 0xA0 SHL SUB DUP3 AND EQ PUSH2 0x4F5 JUMPI PUSH1 0x0 DUP1 REVERT JUMPDEST DUP4 PUSH1 0x1 PUSH1 0x1 PUSH1 0xA0 SHL SUB AND DUP6 PUSH1 0x1 PUSH1 0x1 PUSH1 0xA0 SHL SUB AND EQ ISZERO PUSH2 0x514 JUMPI PUSH1 0x0 DUP1 REVERT JUMPDEST PUSH2 0x51D DUP5 PUSH2 0x910 JUMP JUMPDEST PUSH1 0x1 PUSH1 0x1 PUSH1 0xA0 SHL SUB DUP1 DUP7 AND PUSH1 0x0 SWAP1 DUP2 MSTORE PUSH1 0x5 PUSH1 0x20 SWAP1 DUP2 MSTORE PUSH1 0x40 DUP1 DUP4 KECCAK256 SWAP4 DUP11 AND DUP4 MSTORE SWAP3 DUP2 MSTORE DUP3 DUP3 KECCAK256 PUSH2 0xFFFF DUP12 AND DUP4 MSTORE SWAP1 MSTORE KECCAK256 SLOAD DUP1 ISZERO PUSH2 0x5B9 JUMPI DUP4 DUP2 LT ISZERO PUSH2 0x57E JUMPI PUSH1 0x40 MLOAD PUSH3 0x461BCD PUSH1 0xE5 SHL DUP2 MSTORE PUSH1 0x4 ADD PUSH2 0x575 SWAP1 PUSH2 0x4335 JUMP JUMPDEST PUSH1 0x40 MLOAD DUP1 SWAP2 SUB SWAP1 REVERT JUMPDEST PUSH1 0x1 PUSH1 0x1 PUSH1 0xA0 SHL SUB DUP1 DUP8 AND PUSH1 0x0 SWAP1 DUP2 MSTORE PUSH1 0x5 PUSH1 0x20 SWAP1 DUP2 MSTORE PUSH1 0x40 DUP1 DUP4 KECCAK256 SWAP4 DUP12 AND DUP4 MSTORE SWAP3 DUP2 MSTORE DUP3 DUP3 KECCAK256 PUSH2 0xFFFF DUP13 AND DUP4 MSTORE SWAP1 MSTORE KECCAK256 DUP5 DUP3 SUB SWAP1 SSTORE PUSH2 0x62B JUMP JUMPDEST POP PUSH1 0x1 PUSH1 0x1 PUSH1 0xA0 SHL SUB DUP1 DUP7 AND PUSH1 0x0 SWAP1 DUP2 MSTORE PUSH1 0x4 PUSH1 0x20 SWAP1 DUP2 MSTORE PUSH1 0x40 DUP1 DUP4 KECCAK256 SWAP4 DUP11 AND DUP4 MSTORE SWAP3 SWAP1 MSTORE KECCAK256 SLOAD DUP4 DUP2 LT ISZERO PUSH2 0x600 JUMPI PUSH1 0x40 MLOAD PUSH3 0x461BCD PUSH1 0xE5 SHL DUP2 MSTORE PUSH1 0x4 ADD PUSH2 0x575 SWAP1 PUSH2 0x4335 JUMP JUMPDEST PUSH1 0x1 PUSH1 0x1 PUSH1 0xA0 SHL SUB DUP1 DUP8 AND PUSH1 0x0 SWAP1 DUP2 MSTORE PUSH1 0x4 PUSH1 0x20 SWAP1 DUP2 MSTORE PUSH1 0x40 DUP1 DUP4 KECCAK256 SWAP4 DUP12 AND DUP4 MSTORE SWAP3 SWAP1 MSTORE KECCAK256 DUP5 DUP3 SUB SWAP1 SSTORE JUMPDEST PUSH2 0x639 DUP9 DUP8 DUP8 DUP8 PUSH1 0x1 PUSH2 0x98F JUMP JUMPDEST SWAP3 POP POP POP JUMPDEST SWAP6 SWAP5 POP POP POP POP POP JUMP JUMPDEST PUSH1 0x0 SLOAD PUSH5 0x100000000 SWAP1 DIV PUSH1 0x1 PUSH1 0x1 PUSH1 0xA0 SHL SUB AND DUP2 JUMP JUMPDEST PUSH1 0x0 DUP1 PUSH2 0x66C DUP4 DUP6 TIMESTAMP PUSH2 0xC50 JUMP JUMPDEST POP POP SWAP2 POP POP PUSH1 0x0 DUP2 SLT ISZERO PUSH2 0x3D5 JUMPI PUSH1 0x0 DUP1 REVERT JUMPDEST PUSH20 0x0 PUSH20 0x0 SWAP1 SWAP2 JUMP JUMPDEST PUSH1 0x0 DUP1 PUSH2 0x6B9 DUP7 PUSH2 0xC23 JUMP JUMPDEST SWAP1 POP CALLER PUSH1 0x1 PUSH1 0x1 PUSH1 0xA0 SHL SUB DUP3 AND EQ PUSH2 0x6D0 JUMPI PUSH1 0x0 DUP1 REVERT JUMPDEST PUSH1 0x1 PUSH1 0x1 PUSH1 0xA0 SHL SUB DUP6 AND PUSH2 0x6E3 JUMPI PUSH1 0x0 DUP1 REVERT JUMPDEST DUP3 PUSH2 0x6EC PUSH2 0xBBA JUMP JUMPDEST PUSH1 0x1 PUSH1 0x1 PUSH1 0xA0 SHL SUB SWAP7 DUP8 AND PUSH1 0x0 SWAP1 DUP2 MSTORE PUSH1 0x20 SWAP2 DUP3 MSTORE PUSH1 0x40 DUP1 DUP3 KECCAK256 SWAP8 SWAP1 SWAP9 AND DUP2 MSTORE SWAP6 DUP2 MSTORE DUP7 DUP7 KECCAK256 PUSH2 0xFFFF SWAP9 SWAP1 SWAP9 AND DUP7 MSTORE SWAP7 SWAP1 SWAP7 MSTORE POP POP POP KECCAK256 SSTORE PUSH1 0x1 SWAP1 JUMP JUMPDEST PUSH1 0x0 CALLER DUP2 PUSH2 0x736 DUP3 PUSH2 0xC83 JUMP JUMPDEST SWAP1 POP PUSH1 0x0 PUSH2 0x742 PUSH2 0x3B85 JUMP JUMPDEST PUSH2 0x74B DUP4 PUSH2 0xD31 JUMP JUMPDEST ISZERO PUSH2 0x77D JUMPI PUSH1 0x60 DUP4 ADD MLOAD PUSH2 0x763 SWAP1 DUP3 SWAP1 DUP7 SWAP1 DUP7 PUSH2 0xD3E JUMP JUMPDEST PUSH1 0x0 DUP2 PUSH1 0x40 ADD MLOAD SGT ISZERO PUSH2 0x77D JUMPI PUSH2 0x77A DUP2 DUP6 PUSH2 0xD5F JUMP JUMPDEST SWAP2 POP JUMPDEST PUSH1 0x80 DUP4 ADD MLOAD JUMPDEST PUSH1 0x1 PUSH1 0x1 PUSH1 0x70 SHL SUB NOT DUP2 AND ISZERO PUSH2 0x7DF JUMPI PUSH1 0xF0 DUP2 SWAP1 SHR PUSH2 0x3FFF AND PUSH2 0x7A8 DUP4 DUP8 DUP4 DUP9 PUSH2 0xD3E JUMP JUMPDEST PUSH1 0x0 DUP4 PUSH1 0x40 ADD MLOAD SGT ISZERO PUSH2 0x7CC JUMPI PUSH2 0x7C9 PUSH2 0x7C2 DUP5 DUP9 PUSH2 0xD5F JUMP JUMPDEST DUP6 SWAP1 PUSH2 0xDA3 JUMP JUMPDEST SWAP4 POP JUMPDEST POP PUSH1 0x10 SHL PUSH1 0x1 PUSH1 0x1 PUSH1 0x80 SHL SUB NOT AND PUSH2 0x783 JUMP JUMPDEST POP SWAP1 SWAP4 POP POP POP POP SWAP1 JUMP JUMPDEST PUSH1 0x0 DUP1 PUSH2 0x7F5 DUP8 PUSH2 0xC23 JUMP JUMPDEST SWAP1 POP CALLER PUSH1 0x1 PUSH1 0x1 PUSH1 0xA0 SHL SUB DUP3 AND EQ PUSH2 0x80C JUMPI PUSH1 0x0 DUP1 REVERT JUMPDEST DUP4 PUSH1 0x1 PUSH1 0x1 PUSH1 0xA0 SHL SUB AND DUP6 PUSH1 0x1 PUSH1 0x1 PUSH1 0xA0 SHL SUB AND EQ ISZERO PUSH2 0x82B JUMPI PUSH1 0x0 DUP1 REVERT JUMPDEST PUSH2 0x834 DUP5 PUSH2 0x910 JUMP JUMPDEST PUSH1 0x0 PUSH2 0x83E PUSH2 0xBBA JUMP JUMPDEST PUSH1 0x1 PUSH1 0x1 PUSH1 0xA0 SHL SUB DUP1 DUP9 AND PUSH1 0x0 SWAP1 DUP2 MSTORE PUSH1 0x20 SWAP3 DUP4 MSTORE PUSH1 0x40 DUP1 DUP3 KECCAK256 SWAP3 DUP12 AND DUP3 MSTORE SWAP2 DUP4 MSTORE DUP2 DUP2 KECCAK256 PUSH2 0xFFFF DUP13 AND DUP3 MSTORE SWAP1 SWAP3 MSTORE SWAP1 KECCAK256 SLOAD SWAP1 POP DUP4 DUP2 LT ISZERO PUSH2 0x892 JUMPI PUSH1 0x40 MLOAD PUSH3 0x461BCD PUSH1 0xE5 SHL DUP2 MSTORE PUSH1 0x4 ADD PUSH2 0x575 SWAP1 PUSH2 0x4335 JUMP JUMPDEST DUP4 DUP2 SUB PUSH2 0x89D PUSH2 0xBBA JUMP JUMPDEST PUSH1 0x1 PUSH1 0x1 PUSH1 0xA0 SHL SUB DUP1 DUP10 AND PUSH1 0x0 SWAP1 DUP2 MSTORE PUSH1 0x20 SWAP3 DUP4 MSTORE PUSH1 0x40 DUP1 DUP3 KECCAK256 SWAP3 DUP13 AND DUP3 MSTORE SWAP2 DUP4 MSTORE DUP2 DUP2 KECCAK256 PUSH2 0xFFFF DUP14 AND DUP3 MSTORE SWAP1 SWAP3 MSTORE DUP2 KECCAK256 SWAP2 SWAP1 SWAP2 SSTORE PUSH2 0x639 SWAP1 DUP10 SWAP1 DUP9 SWAP1 DUP9 SWAP1 DUP9 SWAP1 PUSH2 0x98F JUMP JUMPDEST PUSH1 0x0 DUP1 PUSH2 0x8EE PUSH2 0xDB5 JUMP JUMPDEST PUSH1 0x0 DUP5 DUP2 MSTORE PUSH1 0x20 SWAP2 SWAP1 SWAP2 MSTORE PUSH1 0x40 SWAP1 KECCAK256 SLOAD PUSH1 0x1 PUSH1 0x1 PUSH1 0xA0 SHL SUB AND SWAP2 POP POP JUMPDEST SWAP2 SWAP1 POP JUMP JUMPDEST PUSH1 0x1 PUSH1 0x1 PUSH1 0xA0 SHL SUB DUP2 AND PUSH2 0x923 JUMPI PUSH1 0x0 DUP1 REVERT JUMPDEST PUSH1 0x1 PUSH1 0x1 PUSH1 0xA0 SHL SUB DUP2 AND PUSH2 0xFEE EQ ISZERO PUSH2 0x93B JUMPI PUSH1 0x0 DUP1 REVERT JUMPDEST PUSH1 0x1 PUSH1 0x1 PUSH1 0xA0 SHL SUB DUP2 AND PUSH2 0x5E7 EQ ISZERO PUSH2 0x953 JUMPI PUSH1 0x0 DUP1 REVERT JUMPDEST PUSH1 0x1 PUSH1 0x1 PUSH1 0xA0 SHL SUB DUP2 AND ADDRESS EQ ISZERO PUSH2 0x969 JUMPI PUSH1 0x0 DUP1 REVERT JUMPDEST PUSH1 0x0 PUSH2 0x974 DUP3 PUSH2 0xDC2 JUMP JUMPDEST POP POP POP POP PUSH2 0xFFFF AND SWAP1 POP DUP1 PUSH1 0x0 EQ PUSH2 0x98B JUMPI PUSH1 0x0 DUP1 REVERT JUMPDEST POP POP JUMP JUMPDEST PUSH1 0x0 DUP1 PUSH2 0x99B DUP5 PUSH2 0xE2B JUMP JUMPDEST SWAP1 POP PUSH1 0x0 PUSH2 0x9A8 DUP8 PUSH2 0xC83 JUMP JUMPDEST SWAP1 POP PUSH2 0x9B3 DUP2 PUSH2 0xE45 JUMP JUMPDEST ISZERO PUSH2 0xA44 JUMPI PUSH1 0x40 MLOAD PUSH4 0x37B5FC21 PUSH1 0xE1 SHL DUP2 MSTORE PUSH20 0x0 SWAP1 PUSH4 0x6F6BF842 SWAP1 PUSH2 0x9F1 SWAP1 DUP11 SWAP1 DUP6 SWAP1 PUSH1 0x4 ADD PUSH2 0x4285 JUMP JUMPDEST PUSH1 0xC0 PUSH1 0x40 MLOAD DUP1 DUP4 SUB DUP2 DUP7 DUP1 EXTCODESIZE ISZERO DUP1 ISZERO PUSH2 0xA09 JUMPI PUSH1 0x0 DUP1 REVERT JUMPDEST POP GAS DELEGATECALL ISZERO DUP1 ISZERO PUSH2 0xA1D JUMPI RETURNDATASIZE PUSH1 0x0 DUP1 RETURNDATACOPY RETURNDATASIZE PUSH1 0x0 REVERT JUMPDEST POP POP POP POP PUSH1 0x40 MLOAD RETURNDATASIZE PUSH1 0x1F NOT PUSH1 0x1F DUP3 ADD AND DUP3 ADD DUP1 PUSH1 0x40 MSTORE POP DUP2 ADD SWAP1 PUSH2 0xA41 SWAP2 SWAP1 PUSH2 0x402B JUMP JUMPDEST SWAP1 POP JUMPDEST PUSH2 0xA4C PUSH2 0x3B85 JUMP JUMPDEST PUSH2 0xA58 DUP2 DUP10 DUP12 DUP6 PUSH2 0xD3E JUMP JUMPDEST DUP5 ISZERO PUSH2 0xA71 JUMPI PUSH2 0xA67 DUP4 PUSH2 0xE99 JUMP JUMPDEST PUSH1 0xA0 DUP3 ADD MSTORE PUSH2 0xAC8 JUMP JUMPDEST PUSH1 0x0 DUP2 PUSH1 0x20 ADD MLOAD SGT PUSH2 0xA95 JUMPI PUSH1 0x40 MLOAD PUSH3 0x461BCD PUSH1 0xE5 SHL DUP2 MSTORE PUSH1 0x4 ADD PUSH2 0x575 SWAP1 PUSH2 0x4365 JUMP JUMPDEST DUP1 PUSH1 0x20 ADD MLOAD DUP4 SGT ISZERO PUSH2 0xAB9 JUMPI PUSH1 0x40 MLOAD PUSH3 0x461BCD PUSH1 0xE5 SHL DUP2 MSTORE PUSH1 0x4 ADD PUSH2 0x575 SWAP1 PUSH2 0x4365 JUMP JUMPDEST PUSH2 0xAC2 DUP4 PUSH2 0xE99 JUMP JUMPDEST PUSH1 0x60 DUP3 ADD MSTORE JUMPDEST PUSH2 0xAD3 DUP2 DUP10 DUP5 PUSH2 0xEA7 JUMP JUMPDEST PUSH2 0xADD DUP3 DUP10 PUSH2 0xEC6 JUMP JUMPDEST PUSH1 0x0 PUSH2 0xAE8 DUP9 PUSH2 0xC83 JUMP JUMPDEST SWAP1 POP PUSH2 0xAF2 PUSH2 0x3B85 JUMP JUMPDEST PUSH2 0xAFE DUP2 DUP11 DUP14 DUP6 PUSH2 0xD3E JUMP JUMPDEST DUP7 ISZERO PUSH2 0xB10 JUMPI PUSH1 0xA0 DUP2 ADD DUP6 SWAP1 MSTORE PUSH2 0xB18 JUMP JUMPDEST PUSH1 0x60 DUP2 ADD DUP6 SWAP1 MSTORE JUMPDEST PUSH2 0xB23 DUP2 DUP11 DUP5 PUSH2 0xEA7 JUMP JUMPDEST PUSH2 0xB2D DUP3 DUP11 PUSH2 0xEC6 JUMP JUMPDEST PUSH1 0x20 DUP5 ADD MLOAD PUSH1 0x1 PUSH1 0x1 PUSH1 0xF8 SHL SUB NOT AND ISZERO PUSH2 0xBA9 JUMPI PUSH1 0x40 MLOAD PUSH4 0x6CCC642F PUSH1 0xE0 SHL DUP2 MSTORE PUSH20 0x0 SWAP1 PUSH4 0x6CCC642F SWAP1 PUSH2 0xB78 SWAP1 DUP14 SWAP1 PUSH1 0x4 ADD PUSH2 0x423E JUMP JUMPDEST PUSH1 0x0 PUSH1 0x40 MLOAD DUP1 DUP4 SUB DUP2 DUP7 DUP1 EXTCODESIZE ISZERO DUP1 ISZERO PUSH2 0xB90 JUMPI PUSH1 0x0 DUP1 REVERT JUMPDEST POP GAS DELEGATECALL ISZERO DUP1 ISZERO PUSH2 0xBA4 JUMPI RETURNDATASIZE PUSH1 0x0 DUP1 RETURNDATACOPY RETURNDATASIZE PUSH1 0x0 REVERT JUMPDEST POP POP POP POP JUMPDEST POP PUSH1 0x1 SWAP11 SWAP10 POP POP POP POP POP POP POP POP POP POP JUMP JUMPDEST PUSH1 0x0 DUP1 PUSH2 0x317 PUSH1 0x23 PUSH2 0xFE3 JUMP JUMPDEST PUSH1 0x0 DUP1 PUSH1 0x0 DUP1 PUSH2 0xBD5 PUSH2 0xFFC JUMP JUMPDEST PUSH1 0x1 PUSH1 0x1 PUSH1 0xA0 SHL SUB SWAP6 SWAP1 SWAP6 AND PUSH1 0x0 SWAP1 DUP2 MSTORE PUSH1 0x20 SWAP6 SWAP1 SWAP6 MSTORE POP POP PUSH1 0x40 SWAP1 SWAP3 KECCAK256 SLOAD PUSH1 0x1 PUSH1 0x1 PUSH1 0x60 SHL SUB DUP2 AND SWAP4 PUSH1 0x1 PUSH1 0x60 SHL DUP3 DIV PUSH1 0x1 PUSH1 0x1 PUSH1 0x80 SHL SUB AND SWAP4 POP PUSH1 0x1 PUSH1 0xE0 SHL SWAP1 SWAP2 DIV PUSH4 0xFFFFFFFF AND SWAP2 POP JUMP JUMPDEST PUSH1 0x0 PUSH2 0xC2D PUSH2 0x1009 JUMP JUMPDEST PUSH2 0xFFFF SWAP1 SWAP3 AND PUSH1 0x0 SWAP1 DUP2 MSTORE PUSH1 0x20 SWAP3 SWAP1 SWAP3 MSTORE POP PUSH1 0x40 SWAP1 KECCAK256 SLOAD PUSH1 0x1 PUSH1 0x1 PUSH1 0xA0 SHL SUB AND SWAP1 JUMP JUMPDEST PUSH1 0x0 DUP1 PUSH1 0x0 DUP1 PUSH1 0x0 PUSH2 0xC62 DUP8 DUP8 PUSH2 0x1016 JUMP JUMPDEST POP SWAP1 POP PUSH2 0xC70 DUP9 DUP9 DUP4 PUSH2 0x10D4 JUMP JUMPDEST SWAP5 POP SWAP5 POP SWAP5 POP SWAP5 POP POP JUMPDEST SWAP4 POP SWAP4 POP SWAP4 POP SWAP4 JUMP JUMPDEST PUSH2 0xC8B PUSH2 0x3BE1 JUMP JUMPDEST PUSH1 0x0 PUSH2 0xC95 PUSH2 0x118E JUMP JUMPDEST PUSH1 0x1 PUSH1 0x1 PUSH1 0xA0 SHL SUB DUP5 AND PUSH1 0x0 SWAP1 DUP2 MSTORE PUSH1 0x20 SWAP2 DUP3 MSTORE PUSH1 0x40 SWAP1 DUP2 SWAP1 KECCAK256 DUP2 MLOAD PUSH1 0xC0 DUP2 ADD DUP4 MSTORE SWAP1 SLOAD PUSH5 0xFFFFFFFFFF DUP2 AND DUP3 MSTORE PUSH1 0x1 PUSH1 0x1 PUSH1 0xF8 SHL SUB NOT PUSH1 0x1 PUSH1 0x28 SHL DUP3 DIV PUSH1 0xF8 SHL AND SWAP4 DUP3 ADD SWAP4 SWAP1 SWAP4 MSTORE PUSH1 0xFF PUSH1 0x1 PUSH1 0x30 SHL DUP5 DIV DUP2 AND SWAP3 DUP3 ADD SWAP3 SWAP1 SWAP3 MSTORE PUSH2 0xFFFF PUSH1 0x1 PUSH1 0x38 SHL DUP5 DIV AND PUSH1 0x60 DUP3 ADD MSTORE PUSH1 0x1 PUSH1 0x1 PUSH1 0x70 SHL SUB NOT PUSH1 0x1 PUSH1 0x48 SHL DUP5 DIV PUSH1 0x70 SHL AND PUSH1 0x80 DUP3 ADD MSTORE PUSH1 0x1 PUSH1 0xD8 SHL SWAP1 SWAP3 DIV AND ISZERO ISZERO PUSH1 0xA0 DUP3 ADD MSTORE SWAP2 POP POP SWAP2 SWAP1 POP JUMP JUMPDEST PUSH1 0x60 ADD MLOAD PUSH2 0xFFFF AND ISZERO ISZERO SWAP1 JUMP JUMPDEST PUSH2 0xD47 DUP3 PUSH2 0x119B JUMP JUMPDEST PUSH2 0x120 DUP6 ADD MSTORE PUSH2 0xD59 DUP5 DUP5 DUP5 DUP5 PUSH2 0x11AD JUMP JUMPDEST POP POP POP POP JUMP JUMPDEST PUSH1 0x0 PUSH2 0xD78 DUP4 DUP4 PUSH2 0xD73 DUP7 PUSH1 0x40 ADD MLOAD PUSH2 0x1255 JUMP JUMPDEST PUSH2 0x1264 JUMP JUMPDEST SWAP1 POP PUSH2 0x317 DUP3 DUP5 PUSH1 0x0 ADD MLOAD DUP6 PUSH1 0x20 ADD MLOAD DUP7 PUSH1 0x40 ADD MLOAD DUP8 PUSH1 0xE0 ADD MLOAD DUP9 PUSH2 0x100 ADD MLOAD DUP10 PUSH2 0x120 ADD MLOAD PUSH2 0x135B JUMP JUMPDEST PUSH1 0x0 DUP3 DUP3 ADD DUP4 DUP2 LT ISZERO PUSH2 0x3D5 JUMPI PUSH1 0x0 DUP1 REVERT JUMPDEST PUSH1 0x0 DUP1 PUSH2 0x317 PUSH1 0x3 PUSH2 0xFE3 JUMP JUMPDEST PUSH1 0x0 DUP1 PUSH1 0x0 DUP1 PUSH1 0x0 DUP1 PUSH2 0xDD3 PUSH2 0x1496 JUMP JUMPDEST PUSH1 0x1 PUSH1 0x1 PUSH1 0xA0 SHL SUB SWAP1 SWAP8 AND PUSH1 0x0 SWAP1 DUP2 MSTORE PUSH1 0x20 SWAP8 SWAP1 SWAP8 MSTORE POP POP PUSH1 0x40 SWAP1 SWAP5 KECCAK256 SLOAD PUSH2 0xFFFF DUP2 AND SWAP6 PUSH4 0xFFFFFFFF PUSH3 0x10000 DUP4 DIV DUP2 AND SWAP7 POP PUSH1 0x1 PUSH1 0x30 SHL DUP4 DIV AND SWAP5 POP PUSH1 0xFF PUSH1 0x1 PUSH1 0x50 SHL DUP4 DIV AND SWAP4 POP PUSH1 0x1 PUSH1 0x58 SHL SWAP1 SWAP2 DIV PUSH1 0xD0 SHL SWAP2 POP JUMP JUMPDEST PUSH1 0x0 PUSH1 0x1 PUSH1 0x1 PUSH1 0xFF SHL SUB DUP3 GT ISZERO PUSH2 0xE41 JUMPI PUSH1 0x0 DUP1 REVERT JUMPDEST POP SWAP1 JUMP JUMPDEST PUSH1 0x0 TIMESTAMP PUSH2 0xE51 DUP4 PUSH2 0xD31 JUMP JUMPDEST ISZERO PUSH2 0xE72 JUMPI PUSH2 0xE5F DUP2 PUSH2 0x14A3 JUMP JUMPDEST DUP4 MLOAD PUSH5 0xFFFFFFFFFF AND LT SWAP2 POP PUSH2 0x90B SWAP1 POP JUMP JUMPDEST DUP3 MLOAD PUSH5 0xFFFFFFFFFF AND ISZERO DUP1 ISZERO SWAP1 PUSH2 0xE91 JUMPI POP DUP3 MLOAD PUSH5 0xFFFFFFFFFF AND DUP2 LT ISZERO JUMPDEST SWAP2 POP POP PUSH2 0x90B JUMP JUMPDEST PUSH1 0x0 PUSH2 0x317 PUSH1 0x0 NOT DUP4 PUSH2 0x14C1 JUMP JUMPDEST PUSH1 0x80 DUP4 ADD MLOAD ISZERO PUSH2 0xEB6 JUMPI PUSH1 0x0 DUP1 REVERT JUMPDEST PUSH2 0xD59 DUP4 DUP4 DUP5 DUP5 PUSH1 0x0 PUSH1 0x1 PUSH2 0x150F JUMP JUMPDEST PUSH1 0x0 PUSH2 0xED0 PUSH2 0x118E JUMP JUMPDEST PUSH1 0x1 PUSH1 0x1 PUSH1 0xA0 SHL SUB DUP4 AND PUSH1 0x0 DUP2 DUP2 MSTORE PUSH1 0x20 DUP4 DUP2 MSTORE PUSH1 0x40 DUP1 DUP4 KECCAK256 DUP9 MLOAD DUP2 SLOAD SWAP4 DUP11 ADD MLOAD DUP11 DUP5 ADD MLOAD PUSH1 0x60 DUP13 ADD MLOAD PUSH1 0x80 DUP14 ADD MLOAD PUSH1 0xA0 DUP15 ADD MLOAD PUSH5 0xFFFFFFFFFF NOT SWAP1 SWAP9 AND PUSH5 0xFFFFFFFFFF SWAP1 SWAP6 AND SWAP5 SWAP1 SWAP5 OR PUSH6 0xFF0000000000 NOT AND PUSH1 0x1 PUSH1 0x28 SHL PUSH1 0xF8 SWAP5 SWAP1 SWAP5 SHR SWAP4 SWAP1 SWAP4 MUL SWAP3 SWAP1 SWAP3 OR PUSH7 0xFF000000000000 NOT AND PUSH1 0x1 PUSH1 0x30 SHL PUSH1 0xFF SWAP1 SWAP3 AND SWAP2 SWAP1 SWAP2 MUL OR PUSH9 0xFFFF00000000000000 NOT AND PUSH1 0x1 PUSH1 0x38 SHL PUSH2 0xFFFF SWAP1 SWAP3 AND SWAP2 SWAP1 SWAP2 MUL OR PUSH27 0xFFFFFFFFFFFFFFFFFFFFFFFFFFFFFFFFFFFF000000000000000000 NOT AND PUSH1 0x1 PUSH1 0x48 SHL PUSH1 0x70 SWAP3 SWAP1 SWAP3 SHR SWAP2 SWAP1 SWAP2 MUL OR PUSH1 0xFF PUSH1 0xD8 SHL NOT AND PUSH1 0x1 PUSH1 0xD8 SHL SWAP4 ISZERO ISZERO SWAP4 SWAP1 SWAP4 MUL SWAP3 SWAP1 SWAP3 OR SWAP1 SWAP2 SSTORE MLOAD SWAP3 SWAP4 POP SWAP1 SWAP2 PUSH32 0x6BD4B121BCA854A191536A2CA891155C42EE2FB23F307FB34E8BC65CFCB5412E SWAP2 SWAP1 LOG2 POP POP POP JUMP JUMPDEST PUSH1 0x0 PUSH3 0xF4240 DUP3 PUSH1 0x26 DUP2 GT ISZERO PUSH2 0xFF5 JUMPI INVALID JUMPDEST ADD SWAP3 SWAP2 POP POP JUMP JUMPDEST PUSH1 0x0 DUP1 PUSH2 0x317 PUSH1 0x11 PUSH2 0xFE3 JUMP JUMPDEST PUSH1 0x0 DUP1 PUSH2 0x317 PUSH1 0x21 PUSH2 0xFE3 JUMP JUMPDEST PUSH2 0x101E PUSH2 0x3C16 JUMP JUMPDEST PUSH2 0x1026 PUSH2 0x3C37 JUMP JUMPDEST PUSH2 0x102F DUP5 PUSH2 0x16E6 JUMP JUMPDEST SWAP1 POP DUP3 DUP2 PUSH1 0x0 ADD MLOAD LT ISZERO PUSH2 0x1060 JUMPI PUSH1 0x0 PUSH2 0x1048 DUP6 PUSH2 0x17AE JUMP JUMPDEST SWAP1 POP PUSH2 0x1056 DUP6 DUP4 DUP4 DUP8 PUSH2 0x1831 JUMP JUMPDEST POP SWAP2 POP PUSH2 0x106D SWAP1 POP JUMP JUMPDEST DUP1 MLOAD DUP4 EQ PUSH2 0x106D JUMPI PUSH1 0x0 DUP1 REVERT JUMPDEST PUSH1 0x40 MLOAD DUP1 PUSH1 0x60 ADD PUSH1 0x40 MSTORE DUP1 PUSH2 0x109B PUSH2 0x1096 DUP5 PUSH1 0xA0 ADD MLOAD DUP6 PUSH1 0xC0 ADD MLOAD PUSH2 0x18D5 SWAP1 SWAP2 SWAP1 PUSH4 0xFFFFFFFF AND JUMP JUMPDEST PUSH2 0xE2B JUMP JUMPDEST DUP2 MSTORE PUSH1 0x20 ADD PUSH2 0x10BE PUSH2 0x1096 DUP5 PUSH1 0xA0 ADD MLOAD DUP6 PUSH1 0xE0 ADD MLOAD PUSH2 0x18D5 SWAP1 SWAP2 SWAP1 PUSH4 0xFFFFFFFF AND JUMP JUMPDEST DUP2 MSTORE PUSH1 0x20 ADD DUP3 PUSH1 0x60 ADD MLOAD DUP2 MSTORE POP SWAP2 POP SWAP3 POP SWAP3 SWAP1 POP JUMP JUMPDEST PUSH1 0x0 DUP1 PUSH1 0x0 DUP1 PUSH1 0x0 PUSH2 0x10E4 PUSH2 0x18FC JUMP JUMPDEST PUSH1 0x1 PUSH1 0x1 PUSH1 0xA0 SHL SUB DUP10 AND PUSH1 0x0 SWAP1 DUP2 MSTORE PUSH1 0x20 DUP3 DUP2 MSTORE PUSH1 0x40 DUP1 DUP4 KECCAK256 PUSH2 0xFFFF DUP13 AND DUP5 MSTORE SWAP1 SWAP2 MSTORE SWAP1 KECCAK256 DUP1 SLOAD PUSH1 0x1 PUSH1 0x1 PUSH1 0x50 SHL SUB DUP2 AND SWAP7 POP PUSH1 0x1 PUSH1 0x50 SHL SWAP1 DIV PUSH4 0xFFFFFFFF AND SWAP5 POP SWAP1 SWAP2 POP DUP4 ISZERO PUSH2 0x1151 JUMPI DUP1 SLOAD PUSH2 0x114A SWAP1 PUSH1 0x1 PUSH1 0x70 SHL SWAP1 DIV PUSH7 0xFFFFFFFFFFFFFF AND PUSH2 0x1909 JUMP JUMPDEST SWAP3 POP PUSH2 0x1166 JUMP JUMPDEST DUP1 SLOAD PUSH1 0x1 PUSH1 0x70 SHL SWAP1 DIV PUSH7 0xFFFFFFFFFFFFFF AND SWAP3 POP JUMPDEST DUP1 SLOAD PUSH2 0x1181 SWAP1 DUP9 SWAP1 PUSH1 0x1 PUSH1 0xA8 SHL SWAP1 DIV PUSH1 0xA SWAP1 DUP2 SIGNEXTEND SWAP1 SIGNEXTEND PUSH2 0x1917 JUMP JUMPDEST SWAP6 POP POP POP SWAP4 POP SWAP4 POP SWAP4 POP SWAP4 JUMP JUMPDEST PUSH1 0x0 DUP1 PUSH2 0x317 PUSH1 0x1 PUSH2 0xFE3 JUMP JUMPDEST PUSH2 0x11A3 PUSH2 0x3C16 JUMP JUMPDEST PUSH2 0x317 DUP3 TIMESTAMP PUSH2 0x194B JUMP JUMPDEST DUP2 PUSH2 0xFFFF AND PUSH1 0x0 LT DUP1 ISZERO PUSH2 0x11C7 JUMPI POP PUSH2 0x3FFF PUSH2 0xFFFF DUP4 AND GT ISZERO JUMPDEST PUSH2 0x11D0 JUMPI PUSH1 0x0 DUP1 REVERT JUMPDEST PUSH2 0xFFFF DUP3 AND DUP1 DUP6 MSTORE PUSH2 0x11E3 SWAP1 DUP3 SWAP1 PUSH2 0x1A0C JUMP JUMPDEST ISZERO PUSH2 0x1212 JUMPI PUSH2 0x11F8 DUP4 DUP4 DUP7 PUSH2 0x120 ADD MLOAD PUSH2 0x10D4 JUMP JUMPDEST PUSH2 0x100 DUP9 ADD MSTORE PUSH1 0xE0 DUP8 ADD MSTORE PUSH1 0x40 DUP7 ADD MSTORE PUSH1 0x20 DUP6 ADD MSTORE PUSH2 0x1230 JUMP JUMPDEST PUSH1 0x0 PUSH1 0x20 DUP6 ADD DUP2 SWAP1 MSTORE PUSH1 0x40 DUP6 ADD DUP2 SWAP1 MSTORE PUSH1 0xE0 DUP6 ADD DUP2 SWAP1 MSTORE PUSH2 0x100 DUP6 ADD MSTORE JUMPDEST POP POP PUSH1 0x0 PUSH1 0x60 DUP4 ADD DUP2 SWAP1 MSTORE PUSH1 0x80 DUP4 ADD DUP2 SWAP1 MSTORE PUSH1 0xA0 DUP4 ADD DUP2 SWAP1 MSTORE PUSH1 0xC0 SWAP1 SWAP3 ADD SWAP2 SWAP1 SWAP2 MSTORE POP JUMP JUMPDEST PUSH1 0x0 DUP1 DUP3 SLT ISZERO PUSH2 0xE41 JUMPI PUSH1 0x0 DUP1 REVERT JUMPDEST DUP3 MLOAD PUSH1 0x0 SWAP1 TIMESTAMP SWAP1 DUP3 SWAP1 PUSH2 0x127A SWAP1 PUSH2 0xFFFF AND PUSH2 0x8E3 JUMP JUMPDEST SWAP1 POP PUSH1 0x0 PUSH2 0x1287 DUP3 PUSH2 0xBC7 JUMP JUMPDEST POP POP SWAP1 POP PUSH1 0x0 PUSH2 0x129C DUP4 DUP10 PUSH1 0xC0 ADD MLOAD DUP7 PUSH2 0x1A96 JUMP JUMPDEST SWAP1 POP PUSH2 0x12AA DUP9 DUP5 DUP4 DUP10 PUSH2 0x1B79 JUMP JUMPDEST SWAP5 POP PUSH1 0x0 PUSH2 0x12B7 DUP5 PUSH2 0x1BF8 JUMP JUMPDEST SWAP1 POP PUSH1 0x1 PUSH1 0x1 PUSH1 0xA0 SHL SUB DUP2 AND ISZERO PUSH2 0x133F JUMPI DUP1 PUSH1 0x1 PUSH1 0x1 PUSH1 0xA0 SHL SUB AND PUSH4 0x3F3EF50D DUP10 DUP12 PUSH1 0x0 ADD MLOAD PUSH2 0x12EA DUP14 PUSH1 0x40 ADD MLOAD PUSH2 0x1255 JUMP JUMPDEST DUP12 DUP9 PUSH1 0x40 MLOAD DUP7 PUSH4 0xFFFFFFFF AND PUSH1 0xE0 SHL DUP2 MSTORE PUSH1 0x4 ADD PUSH2 0x130C SWAP6 SWAP5 SWAP4 SWAP3 SWAP2 SWAP1 PUSH2 0x42F8 JUMP JUMPDEST PUSH1 0x0 PUSH1 0x40 MLOAD DUP1 DUP4 SUB DUP2 PUSH1 0x0 DUP8 DUP1 EXTCODESIZE ISZERO DUP1 ISZERO PUSH2 0x1326 JUMPI PUSH1 0x0 DUP1 REVERT JUMPDEST POP GAS CALL ISZERO DUP1 ISZERO PUSH2 0x133A JUMPI RETURNDATASIZE PUSH1 0x0 DUP1 RETURNDATACOPY RETURNDATASIZE PUSH1 0x0 REVERT JUMPDEST POP POP POP POP JUMPDEST DUP6 ISZERO PUSH2 0x134F JUMPI PUSH2 0x134F DUP9 DUP8 PUSH2 0x1C6A JUMP JUMPDEST POP POP POP POP POP SWAP4 SWAP3 POP POP POP JUMP JUMPDEST PUSH1 0x0 PUSH2 0x1365 PUSH2 0x18FC JUMP JUMPDEST PUSH1 0x1 PUSH1 0x1 PUSH1 0xA0 SHL SUB DUP10 AND PUSH1 0x0 SWAP1 DUP2 MSTORE PUSH1 0x20 DUP3 DUP2 MSTORE PUSH1 0x40 DUP1 DUP4 KECCAK256 PUSH2 0xFFFF DUP13 AND DUP5 MSTORE SWAP1 SWAP2 MSTORE SWAP1 KECCAK256 SWAP1 SWAP2 POP DUP5 PUSH2 0x13CD JUMPI PUSH7 0xFFFFFFFFFFFFFF DUP5 GT ISZERO PUSH2 0x13A6 JUMPI PUSH1 0x0 DUP1 REVERT JUMPDEST DUP1 SLOAD PUSH7 0xFFFFFFFFFFFFFF PUSH1 0x70 SHL NOT AND PUSH1 0x1 PUSH1 0x70 SHL PUSH7 0xFFFFFFFFFFFFFF DUP7 AND MUL OR DUP2 SSTORE PUSH2 0x13E7 JUMP JUMPDEST DUP1 SLOAD PUSH1 0x1 PUSH1 0x50 SHL SWAP1 DIV PUSH4 0xFFFFFFFF AND DUP6 EQ PUSH2 0x13E7 JUMPI PUSH1 0x0 DUP1 REVERT JUMPDEST PUSH2 0x13F0 DUP6 PUSH2 0x1C89 JUMP JUMPDEST DUP2 SLOAD PUSH4 0xFFFFFFFF SWAP2 SWAP1 SWAP2 AND PUSH1 0x1 PUSH1 0x50 SHL MUL PUSH4 0xFFFFFFFF PUSH1 0x50 SHL NOT SWAP1 SWAP2 AND OR DUP2 SSTORE PUSH2 0x1421 PUSH2 0x141C DUP8 PUSH2 0x1255 JUMP JUMPDEST PUSH2 0x1C9C JUMP JUMPDEST DUP2 SLOAD PUSH10 0xFFFFFFFFFFFFFFFFFFFF NOT AND PUSH1 0x1 PUSH1 0x1 PUSH1 0x50 SHL SUB SWAP2 SWAP1 SWAP2 AND OR DUP1 DUP3 SSTORE PUSH2 0x1467 SWAP1 PUSH2 0x1462 SWAP1 DUP6 SWAP1 DUP13 SWAP1 DUP13 SWAP1 PUSH1 0x1 PUSH1 0xA8 SHL SWAP1 DIV PUSH1 0xA SWAP1 DUP2 SIGNEXTEND SWAP1 SIGNEXTEND DUP13 PUSH2 0x1CB2 JUMP JUMPDEST PUSH2 0x1CD5 JUMP JUMPDEST DUP2 SLOAD PUSH1 0xA SWAP2 SWAP1 SWAP2 SIGNEXTEND PUSH1 0x1 PUSH1 0x1 PUSH1 0x58 SHL SUB AND PUSH1 0x1 PUSH1 0xA8 SHL MUL PUSH1 0x1 PUSH1 0x1 PUSH1 0xA8 SHL SUB SWAP1 SWAP2 AND OR SWAP1 SSTORE POP POP POP POP POP POP POP POP JUMP JUMPDEST PUSH1 0x0 DUP1 PUSH2 0x317 PUSH1 0x2 PUSH2 0xFE3 JUMP JUMPDEST PUSH1 0x0 PUSH3 0x15180 DUP3 LT ISZERO PUSH2 0x14B5 JUMPI PUSH1 0x0 DUP1 REVERT JUMPDEST POP PUSH3 0x15180 DUP2 MOD SWAP1 SUB SWAP1 JUMP JUMPDEST DUP2 DUP2 MUL PUSH1 0x0 NOT DUP4 EQ ISZERO PUSH2 0x14F1 JUMPI DUP2 ISZERO DUP1 PUSH2 0x14E3 JUMPI POP DUP3 DUP3 DUP3 DUP2 PUSH2 0x14E0 JUMPI INVALID JUMPDEST SDIV EQ JUMPDEST PUSH2 0x14EC JUMPI PUSH1 0x0 DUP1 REVERT JUMPDEST PUSH2 0x317 JUMP JUMPDEST DUP3 ISZERO DUP1 PUSH2 0x1506 JUMPI POP DUP2 DUP4 DUP3 DUP2 PUSH2 0x1503 JUMPI INVALID JUMPDEST SDIV EQ JUMPDEST PUSH2 0x317 JUMPI PUSH1 0x0 DUP1 REVERT JUMPDEST PUSH1 0x0 DUP1 PUSH1 0x0 PUSH2 0x152F DUP9 DUP9 DUP12 PUSH1 0x0 ADD MLOAD DUP13 PUSH1 0x80 ADD MLOAD DUP14 PUSH2 0x120 ADD MLOAD DUP11 PUSH2 0x1D07 JUMP JUMPDEST SWAP3 POP PUSH1 0x0 PUSH2 0x154E DUP11 PUSH1 0x80 ADD MLOAD DUP12 PUSH1 0x60 ADD MLOAD PUSH2 0x1DB0 SWAP1 SWAP2 SWAP1 PUSH4 0xFFFFFFFF AND JUMP JUMPDEST SWAP1 POP DUP5 DUP1 ISZERO PUSH2 0x155D JUMPI POP PUSH1 0x0 DUP2 SLT JUMPDEST DUP1 ISZERO PUSH2 0x1578 JUMPI POP PUSH1 0x20 DUP11 ADD MLOAD PUSH1 0x0 SWAP1 PUSH2 0x1576 SWAP1 DUP4 PUSH2 0x1DB0 JUMP JUMPDEST SLT JUMPDEST ISZERO PUSH2 0x15A3 JUMPI DUP7 PUSH1 0xA0 ADD MLOAD PUSH2 0x159E JUMPI PUSH1 0x40 MLOAD PUSH3 0x461BCD PUSH1 0xE5 SHL DUP2 MSTORE PUSH1 0x4 ADD PUSH2 0x575 SWAP1 PUSH2 0x4393 JUMP JUMPDEST PUSH1 0x1 SWAP2 POP JUMPDEST DUP1 ISZERO PUSH2 0x15C2 JUMPI PUSH1 0x20 DUP11 ADD MLOAD PUSH2 0x15B8 SWAP1 DUP3 PUSH2 0x1DB0 JUMP JUMPDEST PUSH1 0x20 DUP12 ADD MSTORE PUSH1 0x1 SWAP3 POP JUMPDEST POP PUSH1 0xA0 DUP10 ADD MLOAD ISZERO ISZERO DUP1 PUSH2 0x15D8 JUMPI POP PUSH1 0xC0 DUP10 ADD MLOAD ISZERO ISZERO JUMPDEST ISZERO PUSH2 0x1641 JUMPI PUSH1 0x0 PUSH2 0x1608 DUP11 PUSH1 0xC0 ADD MLOAD PUSH2 0x1602 DUP13 PUSH1 0xA0 ADD MLOAD DUP14 PUSH1 0x40 ADD MLOAD PUSH2 0x1DB0 SWAP1 SWAP2 SWAP1 PUSH4 0xFFFFFFFF AND JUMP JUMPDEST SWAP1 PUSH2 0x1DB0 JUMP JUMPDEST SWAP1 POP PUSH1 0x0 DUP2 SLT ISZERO PUSH2 0x162B JUMPI PUSH1 0x40 MLOAD PUSH3 0x461BCD PUSH1 0xE5 SHL DUP2 MSTORE PUSH1 0x4 ADD PUSH2 0x575 SWAP1 PUSH2 0x43BC JUMP JUMPDEST PUSH2 0x1636 DUP11 DUP11 DUP4 PUSH2 0x1264 JUMP JUMPDEST POP PUSH1 0x40 DUP11 ADD MSTORE PUSH1 0x1 SWAP2 POP JUMPDEST DUP2 ISZERO PUSH2 0x1670 JUMPI PUSH2 0x1670 DUP9 DUP11 PUSH1 0x0 ADD MLOAD DUP12 PUSH1 0x20 ADD MLOAD DUP13 PUSH1 0x40 ADD MLOAD DUP14 PUSH1 0xE0 ADD MLOAD DUP15 PUSH2 0x100 ADD MLOAD DUP16 PUSH2 0x120 ADD MLOAD PUSH2 0x135B JUMP JUMPDEST DUP9 MLOAD PUSH1 0x20 DUP11 ADD MLOAD PUSH2 0x169D SWAP2 PUSH2 0xFFFF AND SWAP1 ISZERO ISZERO DUP1 PUSH2 0x1690 JUMPI POP PUSH1 0x40 DUP12 ADD MLOAD ISZERO ISZERO JUMPDEST DUP9 SWAP2 SWAP1 PUSH1 0x1 PUSH1 0xFE SHL PUSH2 0x1DC6 JUMP JUMPDEST PUSH1 0x0 DUP10 PUSH1 0x20 ADD MLOAD SLT ISZERO PUSH2 0x16C3 JUMPI PUSH1 0x20 DUP7 ADD DUP1 MLOAD PUSH1 0x1 PUSH1 0xF9 SHL OR PUSH1 0x1 PUSH1 0x1 PUSH1 0xF8 SHL SUB NOT AND SWAP1 MSTORE JUMPDEST DUP1 ISZERO PUSH2 0x16DA JUMPI DUP9 MLOAD PUSH2 0x120 DUP11 ADD MLOAD PUSH2 0x16DA SWAP2 PUSH2 0x1FC5 JUMP JUMPDEST POP POP SWAP7 SWAP6 POP POP POP POP POP POP JUMP JUMPDEST PUSH2 0x16EE PUSH2 0x3C37 JUMP JUMPDEST PUSH1 0x0 PUSH2 0x16F8 PUSH2 0x2008 JUMP JUMPDEST PUSH2 0xFFFF SWAP4 DUP5 AND PUSH1 0x0 SWAP1 DUP2 MSTORE PUSH1 0x20 SWAP2 DUP3 MSTORE PUSH1 0x40 SWAP1 DUP2 SWAP1 KECCAK256 DUP1 SLOAD PUSH5 0xFFFFFFFFFF DUP2 AND DUP7 MSTORE PUSH1 0x1 PUSH1 0x28 SHL DUP2 DIV PUSH1 0x1 PUSH1 0x1 PUSH1 0x58 SHL SUB SWAP1 DUP2 AND SWAP5 DUP8 ADD SWAP5 SWAP1 SWAP5 MSTORE PUSH1 0x1 DUP3 ADD SLOAD DUP5 AND SWAP3 DUP7 ADD SWAP3 SWAP1 SWAP3 MSTORE PUSH1 0x1 PUSH1 0xD8 SHL DUP3 DIV PUSH4 0xFFFFFFFF AND PUSH1 0x60 DUP7 ADD MSTORE PUSH1 0x1 PUSH1 0x80 SHL SWAP1 SWAP2 DIV SWAP1 SWAP2 AND PUSH1 0x80 DUP5 ADD MSTORE PUSH1 0x2 ADD SLOAD PUSH1 0x1 PUSH1 0x1 PUSH1 0x50 SHL SUB DUP1 DUP3 AND PUSH1 0xA0 DUP6 ADD MSTORE PUSH1 0x1 PUSH1 0x50 SHL DUP3 DIV DUP2 AND PUSH1 0xC0 DUP6 ADD MSTORE PUSH1 0x1 PUSH1 0xA0 SHL DUP3 DIV AND PUSH1 0xE0 DUP5 ADD MSTORE PUSH1 0x1 PUSH1 0xF0 SHL SWAP1 DIV PUSH1 0xFF AND PUSH2 0x12C MUL SWAP1 SWAP3 AND PUSH2 0x100 DUP3 ADD MSTORE SWAP2 SWAP1 POP JUMP JUMPDEST PUSH1 0x0 DUP1 PUSH2 0x17BA DUP4 PUSH2 0x2015 JUMP JUMPDEST PUSH1 0x1 PUSH1 0x1 PUSH1 0xA0 SHL SUB AND PUSH4 0xA77C05B8 PUSH1 0x40 MLOAD DUP2 PUSH4 0xFFFFFFFF AND PUSH1 0xE0 SHL DUP2 MSTORE PUSH1 0x4 ADD PUSH1 0x40 DUP1 MLOAD DUP1 DUP4 SUB DUP2 DUP7 DUP1 EXTCODESIZE ISZERO DUP1 ISZERO PUSH2 0x17F1 JUMPI PUSH1 0x0 DUP1 REVERT JUMPDEST POP GAS STATICCALL ISZERO DUP1 ISZERO PUSH2 0x1805 JUMPI RETURNDATASIZE PUSH1 0x0 DUP1 RETURNDATACOPY RETURNDATASIZE PUSH1 0x0 REVERT JUMPDEST POP POP POP POP PUSH1 0x40 MLOAD RETURNDATASIZE PUSH1 0x1F NOT PUSH1 0x1F DUP3 ADD AND DUP3 ADD DUP1 PUSH1 0x40 MSTORE POP DUP2 ADD SWAP1 PUSH2 0x1829 SWAP2 SWAP1 PUSH2 0x421B JUMP JUMPDEST SWAP5 SWAP4 POP POP POP POP JUMP JUMPDEST PUSH2 0x1839 PUSH2 0x3C37 JUMP JUMPDEST PUSH1 0x0 DUP1 PUSH1 0x0 PUSH2 0x1849 DUP9 DUP7 DUP10 PUSH2 0x2045 JUMP JUMPDEST PUSH1 0xC0 DUP12 ADD SWAP3 SWAP1 SWAP3 MSTORE PUSH1 0xE0 DUP11 ADD SWAP3 SWAP1 SWAP3 MSTORE PUSH1 0x20 DUP10 ADD MLOAD SWAP2 SWAP4 POP SWAP2 POP PUSH2 0x186D SWAP1 DUP4 PUSH2 0xDA3 JUMP JUMPDEST PUSH1 0x20 DUP9 ADD MSTORE PUSH1 0x80 DUP8 ADD MLOAD PUSH1 0x0 SWAP1 ISZERO PUSH2 0x189B JUMPI PUSH1 0x80 DUP9 ADD MLOAD PUSH2 0x1898 SWAP1 PUSH2 0x1892 DUP10 DUP3 PUSH2 0x214F JUMP JUMPDEST SWAP1 PUSH2 0x2164 JUMP JUMPDEST SWAP1 POP JUMPDEST PUSH2 0x18BB PUSH2 0x18B0 PUSH8 0xDE0B6B3A7640000 DUP4 PUSH2 0xDA3 JUMP JUMPDEST PUSH1 0xA0 DUP11 ADD MLOAD SWAP1 PUSH2 0x2181 JUMP JUMPDEST PUSH1 0xA0 DUP10 ADD MSTORE POP POP PUSH1 0x80 DUP7 ADD SWAP5 SWAP1 SWAP5 MSTORE POP POP DUP3 MSTORE SWAP1 SWAP3 SWAP1 SWAP2 POP JUMP JUMPDEST PUSH1 0x0 DUP3 PUSH2 0x18E4 JUMPI POP PUSH1 0x0 PUSH2 0x317 JUMP JUMPDEST DUP3 DUP3 MUL DUP3 DUP5 DUP3 DUP2 PUSH2 0x18F1 JUMPI INVALID JUMPDEST DIV EQ PUSH2 0x3D5 JUMPI PUSH1 0x0 DUP1 REVERT JUMPDEST PUSH1 0x0 DUP1 PUSH2 0x317 PUSH1 0x6 PUSH2 0xFE3 JUMP JUMPDEST PUSH1 0x8 DUP2 SWAP1 SHR PUSH1 0xFF SWAP1 SWAP2 AND SHL SWAP1 JUMP JUMPDEST PUSH1 0x0 DUP1 DUP3 SLT PUSH2 0x1927 JUMPI POP DUP1 PUSH2 0x317 JUMP JUMPDEST DUP3 MLOAD PUSH1 0x20 DUP5 ADD MLOAD PUSH2 0x1944 SWAP2 SWAP1 PUSH2 0x193E SWAP1 DUP6 SWAP1 PUSH2 0x14C1 JUMP JUMPDEST SWAP1 PUSH2 0x219E JUMP JUMPDEST SWAP1 POP PUSH2 0x317 JUMP JUMPDEST PUSH2 0x1953 PUSH2 0x3C16 JUMP JUMPDEST PUSH1 0x0 PUSH2 0x195E DUP5 PUSH2 0x16E6 JUMP JUMPDEST SWAP1 POP DUP3 DUP2 PUSH1 0x0 ADD MLOAD LT ISZERO PUSH2 0x199D JUMPI PUSH1 0x0 DUP1 PUSH2 0x1978 DUP7 PUSH2 0x21CF JUMP JUMPDEST SWAP1 POP PUSH2 0x1986 DUP7 DUP5 DUP4 DUP9 PUSH2 0x1831 JUMP JUMPDEST SWAP1 SWAP4 POP SWAP2 POP PUSH2 0x1996 DUP7 DUP4 DUP6 PUSH2 0x2228 JUMP JUMPDEST POP POP PUSH2 0x19AA JUMP JUMPDEST DUP1 MLOAD DUP4 EQ PUSH2 0x19AA JUMPI PUSH1 0x0 DUP1 REVERT JUMPDEST PUSH1 0x40 MLOAD DUP1 PUSH1 0x60 ADD PUSH1 0x40 MSTORE DUP1 PUSH2 0x19D3 PUSH2 0x1096 DUP5 PUSH1 0xA0 ADD MLOAD DUP6 PUSH1 0xC0 ADD MLOAD PUSH2 0x18D5 SWAP1 SWAP2 SWAP1 PUSH4 0xFFFFFFFF AND JUMP JUMPDEST DUP2 MSTORE PUSH1 0x20 ADD PUSH2 0x19F6 PUSH2 0x1096 DUP5 PUSH1 0xA0 ADD MLOAD DUP6 PUSH1 0xE0 ADD MLOAD PUSH2 0x18D5 SWAP1 SWAP2 SWAP1 PUSH4 0xFFFFFFFF AND JUMP JUMPDEST DUP2 MSTORE PUSH1 0x20 ADD DUP3 PUSH1 0x60 ADD MLOAD DUP2 MSTORE POP SWAP2 POP POP SWAP3 SWAP2 POP POP JUMP JUMPDEST PUSH1 0x0 DUP2 ISZERO DUP1 ISZERO SWAP1 PUSH2 0x1A1F JUMPI POP PUSH2 0x3FFF DUP3 GT ISZERO JUMPDEST PUSH2 0x1A28 JUMPI PUSH1 0x0 DUP1 REVERT JUMPDEST PUSH1 0x80 DUP4 ADD MLOAD PUSH1 0x60 DUP5 ADD MLOAD PUSH2 0xFFFF AND DUP4 EQ ISZERO PUSH2 0x1A47 JUMPI PUSH1 0x1 SWAP2 POP POP PUSH2 0x317 JUMP JUMPDEST PUSH1 0x1 PUSH1 0x1 PUSH1 0x70 SHL SUB NOT DUP2 AND ISZERO PUSH2 0x1A8C JUMPI PUSH1 0xF0 DUP2 SWAP1 SHR PUSH2 0x3FFF AND DUP4 DUP2 EQ ISZERO PUSH2 0x1A79 JUMPI POP PUSH1 0x1 PUSH1 0xFE SHL SWAP1 DUP2 AND EQ SWAP1 POP PUSH2 0x317 JUMP JUMPDEST POP PUSH1 0x10 SHL PUSH1 0x1 PUSH1 0x1 PUSH1 0x80 SHL SUB NOT AND PUSH2 0x1A47 JUMP JUMPDEST POP PUSH1 0x0 SWAP4 SWAP3 POP POP POP JUMP JUMPDEST PUSH1 0x0 DUP1 PUSH1 0x0 PUSH2 0x1AA5 DUP7 DUP6 PUSH2 0x245C JUMP JUMPDEST POP SWAP2 POP SWAP2 POP PUSH1 0x0 PUSH2 0x1AB4 PUSH2 0xFFC JUMP JUMPDEST PUSH1 0x1 PUSH1 0x1 PUSH1 0xA0 SHL SUB DUP9 AND PUSH1 0x0 SWAP1 DUP2 MSTORE PUSH1 0x20 DUP3 SWAP1 MSTORE PUSH1 0x40 DUP2 KECCAK256 SWAP2 SWAP3 POP PUSH2 0x1AD9 DUP6 DUP10 PUSH2 0x1DB0 JUMP JUMPDEST SWAP1 POP DUP1 PUSH1 0x0 SGT ISZERO DUP1 ISZERO PUSH2 0x1AF2 JUMPI POP PUSH1 0x1 PUSH1 0x1 PUSH1 0x60 SHL SUB DUP2 LT JUMPDEST PUSH2 0x1AFB JUMPI PUSH1 0x0 DUP1 REVERT JUMPDEST DUP2 SLOAD PUSH12 0xFFFFFFFFFFFFFFFFFFFFFFFF NOT AND PUSH1 0x1 PUSH1 0x1 PUSH1 0x60 SHL SUB DUP3 AND OR PUSH16 0xFFFFFFFFFFFFFFFFFFFFFFFFFFFFFFFF PUSH1 0x60 SHL NOT AND PUSH1 0x1 PUSH1 0x60 SHL PUSH1 0x1 PUSH1 0x1 PUSH1 0x80 SHL SUB DUP7 AND MUL OR DUP3 SSTORE PUSH4 0xFFFFFFFF DUP8 LT PUSH2 0x1B50 JUMPI PUSH1 0x0 DUP1 REVERT JUMPDEST POP DUP1 SLOAD PUSH4 0xFFFFFFFF DUP8 AND PUSH1 0x1 PUSH1 0xE0 SHL MUL PUSH1 0x1 PUSH1 0x1 PUSH1 0xE0 SHL SUB SWAP1 SWAP2 AND OR SWAP1 SSTORE POP SWAP2 POP POP SWAP4 SWAP3 POP POP POP JUMP JUMPDEST PUSH1 0x0 DUP5 PUSH1 0xE0 ADD MLOAD PUSH1 0x0 EQ PUSH2 0x1B8C JUMPI PUSH1 0x0 DUP1 REVERT JUMPDEST PUSH2 0x1BCE PUSH2 0x1BC7 DUP7 PUSH2 0x100 ADD MLOAD PUSH2 0x1BC1 PUSH8 0xDE0B6B3A7640000 PUSH2 0x1BBB DUP9 PUSH2 0x1BB5 DUP13 PUSH1 0x40 ADD MLOAD PUSH2 0x1255 JUMP JUMPDEST SWAP1 PUSH2 0x18D5 JUMP JUMPDEST SWAP1 PUSH2 0x24F2 JUMP JUMPDEST SWAP1 PUSH2 0x214F JUMP JUMPDEST DUP3 SWAP1 PUSH2 0xDA3 JUMP JUMPDEST SWAP1 POP PUSH2 0x1BE6 PUSH8 0xDE0B6B3A7640000 PUSH2 0x1BBB DUP5 DUP7 PUSH2 0x18D5 JUMP JUMPDEST DUP6 PUSH2 0x100 ADD DUP2 DUP2 MSTORE POP POP SWAP5 SWAP4 POP POP POP POP JUMP JUMPDEST PUSH1 0x0 DUP1 PUSH2 0x1C03 PUSH2 0x1496 JUMP JUMPDEST PUSH1 0x1 PUSH1 0x1 PUSH1 0xA0 SHL SUB DUP5 AND PUSH1 0x0 SWAP1 DUP2 MSTORE PUSH1 0x20 DUP3 SWAP1 MSTORE PUSH1 0x40 SWAP1 KECCAK256 DUP1 SLOAD SWAP2 SWAP3 POP SWAP1 PUSH1 0x1 PUSH1 0xF8 SHL SWAP1 DIV PUSH1 0xFF AND ISZERO PUSH2 0x1C5F JUMPI PUSH2 0x1C38 PUSH2 0x2511 JUMP JUMPDEST PUSH1 0x1 PUSH1 0x1 PUSH1 0xA0 SHL SUB DUP1 DUP7 AND PUSH1 0x0 SWAP1 DUP2 MSTORE PUSH1 0x20 SWAP3 SWAP1 SWAP3 MSTORE PUSH1 0x40 SWAP1 SWAP2 KECCAK256 SLOAD AND SWAP3 POP PUSH2 0x90B SWAP2 POP POP JUMP JUMPDEST PUSH1 0x0 SWAP3 POP POP POP PUSH2 0x90B JUMP JUMPDEST PUSH2 0x98B PUSH20 0x19BE259BC299F3F653688C7655C87F998BC7BC1 DUP4 DUP4 PUSH2 0x251E JUMP JUMPDEST PUSH1 0x0 PUSH4 0xFFFFFFFF DUP3 GT ISZERO PUSH2 0xE41 JUMPI PUSH1 0x0 DUP1 REVERT JUMPDEST PUSH1 0x0 PUSH1 0x1 PUSH1 0x1 PUSH1 0x50 SHL SUB DUP3 GT ISZERO PUSH2 0xE41 JUMPI PUSH1 0x0 DUP1 REVERT JUMPDEST PUSH1 0x0 PUSH2 0x1CBE DUP7 DUP4 PUSH2 0x259A JUMP JUMPDEST SWAP1 POP PUSH2 0x63E DUP7 DUP7 DUP7 PUSH2 0x1CD0 DUP8 DUP7 PUSH2 0x25D9 JUMP JUMPDEST PUSH2 0x2660 JUMP JUMPDEST PUSH1 0x0 PUSH11 0x7FFFFFFFFFFFFFFFFFFFFF NOT DUP3 SLT DUP1 ISZERO SWAP1 PUSH2 0x1CFE JUMPI POP PUSH11 0x7FFFFFFFFFFFFFFFFFFFFF DUP3 SGT ISZERO JUMPDEST PUSH2 0xE41 JUMPI PUSH1 0x0 DUP1 REVERT JUMPDEST PUSH1 0x0 DUP4 PUSH2 0x1D16 JUMPI POP PUSH1 0x0 PUSH2 0x299 JUMP JUMPDEST PUSH1 0x0 DUP5 SLT PUSH2 0x1D23 JUMPI PUSH1 0x0 DUP1 REVERT JUMPDEST PUSH1 0x0 PUSH2 0x1D32 DUP7 PUSH2 0xFFFF AND PUSH2 0x2694 JUMP JUMPDEST SWAP1 POP PUSH2 0x1D47 DUP2 PUSH2 0x1D42 DUP7 DUP9 PUSH2 0x26A7 JUMP JUMPDEST PUSH2 0x26F0 JUMP JUMPDEST SWAP2 POP PUSH1 0x0 PUSH2 0x1D54 DUP4 PUSH2 0xE99 JUMP JUMPDEST SWAP1 POP PUSH2 0x1D61 DUP8 DUP4 DUP4 PUSH2 0x2728 JUMP JUMPDEST PUSH1 0x3 DUP3 PUSH1 0x60 ADD MLOAD PUSH1 0x5 DUP2 GT ISZERO PUSH2 0x1D73 JUMPI INVALID JUMPDEST EQ ISZERO PUSH2 0x1D89 JUMPI PUSH2 0x1D84 DUP9 DUP3 DUP7 PUSH2 0x281E JUMP JUMPDEST PUSH2 0x1D96 JUMP JUMPDEST DUP2 MLOAD PUSH2 0x1D96 SWAP1 DUP10 DUP4 PUSH2 0x251E JUMP JUMPDEST PUSH2 0x1DA3 DUP10 DUP9 DUP6 DUP6 DUP10 PUSH2 0x28E6 JUMP JUMPDEST POP POP POP SWAP7 SWAP6 POP POP POP POP POP POP JUMP JUMPDEST DUP2 DUP2 ADD DUP3 DUP2 SLT ISZERO PUSH1 0x0 DUP4 SLT ISZERO EQ PUSH2 0x317 JUMPI PUSH1 0x0 DUP1 REVERT JUMPDEST DUP3 PUSH1 0x0 LT DUP1 ISZERO PUSH2 0x1DD8 JUMPI POP PUSH2 0x3FFF DUP4 GT ISZERO JUMPDEST PUSH2 0x1DE1 JUMPI PUSH1 0x0 DUP1 REVERT JUMPDEST DUP2 DUP1 ISZERO PUSH2 0x1DF5 JUMPI POP DUP3 DUP5 PUSH1 0x60 ADD MLOAD PUSH2 0xFFFF AND EQ JUMPDEST ISZERO PUSH2 0x1DFF JUMPI PUSH2 0xD59 JUMP JUMPDEST PUSH1 0x80 DUP5 ADD MLOAD PUSH1 0x0 SWAP1 DUP2 JUMPDEST PUSH1 0x1 PUSH1 0x1 PUSH1 0x70 SHL SUB NOT DUP3 AND ISZERO PUSH2 0x1F7A JUMPI PUSH1 0xF0 DUP3 SWAP1 SHR PUSH2 0x3FFF AND DUP7 DUP2 EQ DUP1 ISZERO PUSH2 0x1E2E JUMPI POP DUP6 JUMPDEST ISZERO PUSH2 0x1E66 JUMPI POP PUSH1 0x80 DUP8 ADD DUP1 MLOAD PUSH1 0x1 PUSH1 0x1 PUSH1 0xF0 SHL SUB NOT DUP7 AND PUSH1 0x10 SWAP1 SWAP4 MUL SWAP3 SWAP1 SWAP3 SHR SWAP2 SWAP1 SWAP2 OR PUSH1 0x1 PUSH1 0x1 PUSH1 0x70 SHL SUB NOT AND SWAP1 MSTORE POP PUSH2 0xD59 SWAP1 POP JUMP JUMPDEST DUP7 DUP2 EQ DUP1 ISZERO PUSH2 0x1E73 JUMPI POP DUP6 ISZERO JUMPDEST ISZERO PUSH2 0x1EC8 JUMPI PUSH1 0x1 PUSH1 0x1 PUSH1 0xF0 SHL SUB NOT DUP6 AND NOT SWAP3 SWAP1 SWAP3 AND SWAP2 PUSH1 0x3 PUSH1 0xFE SHL DUP4 AND PUSH2 0x1EA6 JUMPI PUSH1 0x10 DUP4 PUSH1 0x1 PUSH1 0x1 PUSH1 0x70 SHL SUB NOT AND SWAP1 SHL SWAP3 POP JUMPDEST POP PUSH1 0x1 PUSH1 0x1 PUSH1 0x70 SHL SUB NOT SWAP2 DUP3 AND PUSH1 0x10 SWAP1 SWAP2 MUL SHR SWAP2 SWAP1 SWAP2 OR AND PUSH1 0x80 DUP6 ADD MSTORE PUSH2 0xD59 JUMP JUMPDEST DUP7 DUP2 GT DUP1 ISZERO PUSH2 0x1ED4 JUMPI POP DUP6 JUMPDEST ISZERO PUSH2 0x1F2E JUMPI PUSH1 0x80 DUP9 DUP2 ADD MLOAD PUSH1 0x1 PUSH1 0x1 PUSH1 0xF0 SHL SUB NOT PUSH1 0xF0 DUP11 SWAP1 SHL DUP9 OR DUP2 AND PUSH1 0x10 DUP7 MUL SHR SWAP7 SWAP1 SWAP7 OR SWAP6 SWAP2 SHL AND ISZERO PUSH2 0x1F08 JUMPI PUSH1 0x0 DUP1 REVERT JUMPDEST POP PUSH1 0x1 PUSH1 0x1 PUSH1 0x70 SHL SUB NOT SWAP2 DUP3 AND PUSH1 0x1 SWAP2 SWAP1 SWAP2 ADD PUSH1 0x10 MUL SHR SWAP2 SWAP1 SWAP2 OR AND PUSH1 0x80 DUP6 ADD MSTORE PUSH2 0xD59 JUMP JUMPDEST DUP7 DUP2 GT DUP1 ISZERO PUSH2 0x1F3B JUMPI POP DUP6 ISZERO JUMPDEST ISZERO PUSH2 0x1F49 JUMPI POP POP POP POP PUSH2 0xD59 JUMP JUMPDEST POP PUSH1 0x1 PUSH1 0x1 PUSH1 0xF0 SHL SUB NOT DUP3 AND PUSH1 0x10 DUP3 DUP2 MUL SWAP2 SWAP1 SWAP2 SHR SWAP4 SWAP1 SWAP4 OR SWAP3 SWAP2 SWAP1 SWAP2 SHL PUSH1 0x1 PUSH1 0x1 PUSH1 0x80 SHL SUB NOT AND SWAP1 PUSH1 0x1 ADD PUSH2 0x1E09 JUMP JUMPDEST DUP5 PUSH2 0x1F87 JUMPI POP POP POP PUSH2 0xD59 JUMP JUMPDEST PUSH1 0x9 DUP2 LT PUSH2 0x1F94 JUMPI PUSH1 0x0 DUP1 REVERT JUMPDEST PUSH1 0x1 PUSH1 0x1 PUSH1 0xF0 SHL SUB NOT PUSH1 0xF0 DUP8 SWAP1 SHL DUP6 OR AND PUSH1 0x10 SWAP1 SWAP2 MUL SHR SWAP2 SWAP1 SWAP2 OR PUSH1 0x1 PUSH1 0x1 PUSH1 0x70 SHL SUB NOT AND PUSH1 0x80 DUP7 ADD MSTORE POP POP POP POP POP JUMP JUMPDEST PUSH1 0x0 DUP1 PUSH2 0x1FD2 DUP5 DUP5 PUSH2 0x292D JUMP JUMPDEST SWAP4 POP SWAP4 POP POP POP DUP2 PUSH1 0x0 EQ ISZERO PUSH2 0x1FE8 JUMPI POP POP PUSH2 0x98B JUMP JUMPDEST DUP2 DUP2 GT ISZERO PUSH2 0xD59 JUMPI PUSH1 0x40 MLOAD PUSH3 0x461BCD PUSH1 0xE5 SHL DUP2 MSTORE PUSH1 0x4 ADD PUSH2 0x575 SWAP1 PUSH2 0x43E0 JUMP JUMPDEST PUSH1 0x0 DUP1 PUSH2 0x317 PUSH1 0x1D PUSH2 0xFE3 JUMP JUMPDEST PUSH1 0x0 DUP1 PUSH2 0x2020 PUSH2 0x29F1 JUMP JUMPDEST PUSH2 0xFFFF SWAP4 SWAP1 SWAP4 AND PUSH1 0x0 SWAP1 DUP2 MSTORE PUSH1 0x20 SWAP4 SWAP1 SWAP4 MSTORE POP POP PUSH1 0x40 SWAP1 KECCAK256 SLOAD PUSH1 0x1 PUSH1 0x1 PUSH1 0xA0 SHL SUB AND SWAP1 JUMP JUMPDEST PUSH1 0x0 DUP1 PUSH1 0x0 DUP1 PUSH1 0x0 DUP1 PUSH2 0x2058 DUP10 DUP9 PUSH2 0x29FE JUMP JUMPDEST DUP10 MLOAD SWAP1 SWAP6 POP SWAP2 SWAP4 POP SWAP2 POP PUSH1 0x0 SWAP1 PUSH2 0x207F SWAP1 PUSH2 0x2074 SWAP1 DUP12 SWAP1 PUSH2 0x214F JUMP JUMPDEST PUSH4 0x3B9ACA00 SWAP1 PUSH2 0x18D5 JUMP JUMPDEST SWAP1 POP PUSH2 0x20B9 PUSH2 0x20AE PUSH4 0x1DA9C00 PUSH2 0x2096 DUP6 DUP6 PUSH2 0x18D5 JUMP JUMPDEST DUP2 PUSH2 0x209D JUMPI INVALID JUMPDEST PUSH8 0xDE0B6B3A7640000 SWAP2 SWAP1 DIV PUSH2 0xDA3 JUMP JUMPDEST PUSH1 0xE0 DUP11 ADD MLOAD SWAP1 PUSH2 0x2181 JUMP JUMPDEST SWAP7 POP PUSH2 0x20DB PUSH2 0x20D0 PUSH4 0x1DA9C00 PUSH2 0x2096 DUP8 DUP6 PUSH2 0x18D5 JUMP JUMPDEST PUSH1 0xC0 DUP11 ADD MLOAD SWAP1 PUSH2 0x2181 JUMP JUMPDEST SWAP6 POP DUP2 DUP4 EQ ISZERO PUSH2 0x20F2 JUMPI POP PUSH1 0x0 SWAP4 POP PUSH2 0xC7A SWAP2 POP POP JUMP JUMPDEST PUSH1 0x0 PUSH2 0x2114 PUSH2 0x2109 PUSH4 0x1DA9C00 PUSH2 0x2096 DUP8 DUP7 PUSH2 0x18D5 JUMP JUMPDEST PUSH1 0xE0 DUP12 ADD MLOAD SWAP1 PUSH2 0x2181 JUMP JUMPDEST SWAP1 POP PUSH1 0x0 PUSH2 0x2122 DUP10 DUP4 PUSH2 0x214F JUMP JUMPDEST SWAP1 POP PUSH2 0x213F DUP9 PUSH2 0x1BBB DUP4 DUP14 PUSH1 0x40 ADD MLOAD PUSH2 0x18D5 SWAP1 SWAP2 SWAP1 PUSH4 0xFFFFFFFF AND JUMP JUMPDEST SWAP7 POP POP POP POP POP POP SWAP4 POP SWAP4 POP SWAP4 POP SWAP4 JUMP JUMPDEST PUSH1 0x0 DUP3 DUP3 GT ISZERO PUSH2 0x215E JUMPI PUSH1 0x0 DUP1 REVERT JUMPDEST POP SWAP1 SUB SWAP1 JUMP JUMPDEST PUSH1 0x0 PUSH2 0x3D5 PUSH2 0x217B DUP5 PUSH8 0xDE0B6B3A7640000 PUSH2 0x18D5 JUMP JUMPDEST DUP4 PUSH2 0x24F2 JUMP JUMPDEST PUSH1 0x0 PUSH2 0x3D5 PUSH2 0x2190 DUP5 DUP5 PUSH2 0x18D5 JUMP JUMPDEST PUSH8 0xDE0B6B3A7640000 PUSH2 0x24F2 JUMP JUMPDEST PUSH1 0x0 DUP2 PUSH1 0x0 NOT EQ DUP1 ISZERO PUSH2 0x21B4 JUMPI POP PUSH1 0x1 PUSH1 0xFF SHL DUP4 EQ JUMPDEST ISZERO PUSH2 0x21BE JUMPI PUSH1 0x0 DUP1 REVERT JUMPDEST DUP2 DUP4 DUP2 PUSH2 0x21C7 JUMPI INVALID JUMPDEST SDIV SWAP4 SWAP3 POP POP POP JUMP JUMPDEST PUSH1 0x0 DUP1 PUSH2 0x21DB DUP4 PUSH2 0x2015 JUMP JUMPDEST PUSH1 0x1 PUSH1 0x1 PUSH1 0xA0 SHL SUB AND PUSH4 0xEF81F216 PUSH1 0x40 MLOAD DUP2 PUSH4 0xFFFFFFFF AND PUSH1 0xE0 SHL DUP2 MSTORE PUSH1 0x4 ADD PUSH1 0x40 DUP1 MLOAD DUP1 DUP4 SUB DUP2 PUSH1 0x0 DUP8 DUP1 EXTCODESIZE ISZERO DUP1 ISZERO PUSH2 0x2214 JUMPI PUSH1 0x0 DUP1 REVERT JUMPDEST POP GAS CALL ISZERO DUP1 ISZERO PUSH2 0x1805 JUMPI RETURNDATASIZE PUSH1 0x0 DUP1 RETURNDATACOPY RETURNDATASIZE PUSH1 0x0 REVERT JUMPDEST PUSH1 0x0 PUSH2 0x2232 PUSH2 0x2008 JUMP JUMPDEST PUSH1 0x0 DUP6 PUSH2 0xFFFF AND DUP2 MSTORE PUSH1 0x20 ADD SWAP1 DUP2 MSTORE PUSH1 0x20 ADD PUSH1 0x0 KECCAK256 SWAP1 POP PUSH2 0x2256 DUP3 PUSH1 0x0 ADD MLOAD PUSH2 0x2A98 JUMP JUMPDEST DUP2 SLOAD PUSH5 0xFFFFFFFFFF NOT AND PUSH5 0xFFFFFFFFFF SWAP2 SWAP1 SWAP2 AND OR DUP2 SSTORE PUSH1 0xA0 DUP3 ADD MLOAD PUSH2 0x227B SWAP1 PUSH2 0x1C9C JUMP JUMPDEST PUSH1 0x2 DUP3 ADD DUP1 SLOAD PUSH10 0xFFFFFFFFFFFFFFFFFFFF NOT AND PUSH1 0x1 PUSH1 0x1 PUSH1 0x50 SHL SUB SWAP3 SWAP1 SWAP3 AND SWAP2 SWAP1 SWAP2 OR SWAP1 SSTORE PUSH1 0xC0 DUP3 ADD MLOAD PUSH2 0x22AE SWAP1 PUSH2 0x1C9C JUMP JUMPDEST DUP2 PUSH1 0x2 ADD PUSH1 0xA PUSH2 0x100 EXP DUP2 SLOAD DUP2 PUSH1 0x1 PUSH1 0x1 PUSH1 0x50 SHL SUB MUL NOT AND SWAP1 DUP4 PUSH1 0x1 PUSH1 0x1 PUSH1 0x50 SHL SUB AND MUL OR SWAP1 SSTORE POP PUSH2 0x22E3 DUP3 PUSH1 0xE0 ADD MLOAD PUSH2 0x1C9C JUMP JUMPDEST DUP2 PUSH1 0x2 ADD PUSH1 0x14 PUSH2 0x100 EXP DUP2 SLOAD DUP2 PUSH1 0x1 PUSH1 0x1 PUSH1 0x50 SHL SUB MUL NOT AND SWAP1 DUP4 PUSH1 0x1 PUSH1 0x1 PUSH1 0x50 SHL SUB AND MUL OR SWAP1 SSTORE POP PUSH2 0x2318 DUP3 PUSH1 0x20 ADD MLOAD PUSH2 0x2AAC JUMP JUMPDEST DUP2 SLOAD PUSH1 0x1 PUSH1 0x1 PUSH1 0x58 SHL SUB SWAP2 SWAP1 SWAP2 AND PUSH1 0x1 PUSH1 0x28 SHL MUL PUSH16 0xFFFFFFFFFFFFFFFFFFFFFF0000000000 NOT SWAP1 SWAP2 AND OR DUP2 SSTORE PUSH1 0x40 DUP3 ADD MLOAD PUSH2 0x2352 SWAP1 PUSH2 0x2AAC JUMP JUMPDEST PUSH1 0x1 DUP3 ADD DUP1 SLOAD PUSH11 0xFFFFFFFFFFFFFFFFFFFFFF NOT AND PUSH1 0x1 PUSH1 0x1 PUSH1 0x58 SHL SUB SWAP3 SWAP1 SWAP3 AND SWAP2 SWAP1 SWAP2 OR SWAP1 SSTORE PUSH1 0x80 DUP3 ADD MLOAD PUSH2 0x2386 SWAP1 PUSH2 0x2AAC JUMP JUMPDEST DUP2 SLOAD PUSH1 0x1 PUSH1 0x1 PUSH1 0x58 SHL SUB SWAP2 SWAP1 SWAP2 AND PUSH1 0x1 PUSH1 0x80 SHL MUL PUSH11 0xFFFFFFFFFFFFFFFFFFFFFF PUSH1 0x80 SHL NOT SWAP1 SWAP2 AND OR DUP2 SSTORE PUSH1 0x60 DUP3 ADD MLOAD PUSH2 0x23BE SWAP1 PUSH2 0x1C89 JUMP JUMPDEST DUP2 SLOAD PUSH4 0xFFFFFFFF SWAP2 SWAP1 SWAP2 AND PUSH1 0x1 PUSH1 0xD8 SHL MUL PUSH4 0xFFFFFFFF PUSH1 0xD8 SHL NOT SWAP1 SWAP2 AND OR DUP2 SSTORE DUP3 ISZERO PUSH2 0x240A JUMPI PUSH1 0x0 PUSH2 0x23EF DUP5 PUSH2 0xE2B JUMP JUMPDEST SWAP1 POP PUSH2 0x23FB DUP6 DUP3 PUSH2 0x2AC2 JUMP JUMPDEST PUSH2 0x2408 PUSH2 0xFEE DUP7 DUP4 PUSH2 0x2AF9 JUMP JUMPDEST POP JUMPDEST DUP4 PUSH2 0xFFFF AND PUSH32 0xEF25641E225E493886510CA1AD6584FA7B442B9FEA820A29D1DE3CE27D270FD2 DUP4 PUSH1 0xA0 ADD MLOAD DUP5 PUSH1 0xC0 ADD MLOAD DUP6 PUSH1 0xE0 ADD MLOAD PUSH1 0x40 MLOAD PUSH2 0x244E SWAP4 SWAP3 SWAP2 SWAP1 PUSH2 0x4410 JUMP JUMPDEST PUSH1 0x40 MLOAD DUP1 SWAP2 SUB SWAP1 LOG2 POP POP POP POP JUMP JUMPDEST PUSH1 0x0 DUP1 PUSH1 0x0 PUSH2 0x246A DUP6 PUSH2 0xBC7 JUMP JUMPDEST SWAP2 SWAP5 POP SWAP3 POP SWAP1 POP DUP1 DUP5 GT DUP1 ISZERO PUSH2 0x2480 JUMPI POP PUSH1 0x0 DUP2 GT JUMPDEST DUP1 ISZERO PUSH2 0x248C JUMPI POP PUSH1 0x0 DUP4 GT JUMPDEST ISZERO PUSH2 0x24EB JUMPI PUSH1 0x0 PUSH2 0x249C DUP7 PUSH2 0xDC2 JUMP JUMPDEST POP POP POP SWAP2 POP POP PUSH1 0x0 PUSH2 0x24C7 PUSH2 0x24BE PUSH4 0x5F5E100 DUP5 PUSH2 0x18D5 SWAP1 SWAP2 SWAP1 PUSH4 0xFFFFFFFF AND JUMP JUMPDEST DUP5 DUP9 SUB DUP8 PUSH2 0x2B79 JUMP JUMPDEST SWAP1 POP PUSH2 0x24D3 DUP5 DUP3 PUSH2 0xDA3 JUMP JUMPDEST SWAP4 POP PUSH1 0x1 PUSH1 0x1 PUSH1 0x80 SHL SUB DUP5 LT PUSH2 0x24E8 JUMPI PUSH1 0x0 DUP1 REVERT JUMPDEST POP POP JUMPDEST SWAP3 POP SWAP3 POP SWAP3 JUMP JUMPDEST PUSH1 0x0 DUP1 DUP3 GT PUSH2 0x2500 JUMPI PUSH1 0x0 DUP1 REVERT JUMPDEST DUP2 DUP4 DUP2 PUSH2 0x2509 JUMPI INVALID JUMPDEST DIV SWAP4 SWAP3 POP POP POP JUMP JUMPDEST PUSH1 0x0 DUP1 PUSH2 0x317 PUSH1 0x12 PUSH2 0xFE3 JUMP JUMPDEST DUP3 PUSH1 0x1 PUSH1 0x1 PUSH1 0xA0 SHL SUB AND PUSH4 0xA9059CBB DUP4 DUP4 PUSH1 0x40 MLOAD DUP4 PUSH4 0xFFFFFFFF AND PUSH1 0xE0 SHL DUP2 MSTORE PUSH1 0x4 ADD DUP1 DUP4 PUSH1 0x1 PUSH1 0x1 PUSH1 0xA0 SHL SUB AND DUP2 MSTORE PUSH1 0x20 ADD DUP3 DUP2 MSTORE PUSH1 0x20 ADD SWAP3 POP POP POP PUSH1 0x0 PUSH1 0x40 MLOAD DUP1 DUP4 SUB DUP2 PUSH1 0x0 DUP8 DUP1 EXTCODESIZE ISZERO DUP1 ISZERO PUSH2 0x2575 JUMPI PUSH1 0x0 DUP1 REVERT JUMPDEST POP GAS CALL ISZERO DUP1 ISZERO PUSH2 0x2589 JUMPI RETURNDATASIZE PUSH1 0x0 DUP1 RETURNDATACOPY RETURNDATASIZE PUSH1 0x0 REVERT JUMPDEST POP POP POP POP PUSH2 0x2595 PUSH2 0x2B9B JUMP JUMPDEST POP POP POP JUMP JUMPDEST PUSH1 0x0 DUP1 DUP3 SLT ISZERO PUSH2 0x25D3 JUMPI PUSH2 0x25CE PUSH1 0x1 PUSH2 0x25C8 DUP6 PUSH1 0x20 ADD MLOAD PUSH2 0x193E DUP8 PUSH1 0x0 ADD MLOAD DUP8 PUSH2 0x14C1 SWAP1 SWAP2 SWAP1 PUSH4 0xFFFFFFFF AND JUMP JUMPDEST SWAP1 PUSH2 0x2C08 JUMP JUMPDEST PUSH2 0x3D5 JUMP JUMPDEST POP SWAP2 SWAP1 POP JUMP JUMPDEST PUSH1 0x0 DUP2 DUP4 EQ DUP1 PUSH2 0x25F6 JUMPI POP PUSH1 0x0 DUP4 SLT ISZERO DUP1 ISZERO PUSH2 0x25F6 JUMPI POP PUSH1 0x0 DUP3 SLT ISZERO JUMPDEST ISZERO PUSH2 0x2603 JUMPI POP PUSH1 0x0 PUSH2 0x317 JUMP JUMPDEST PUSH1 0x0 DUP4 SGT ISZERO DUP1 ISZERO PUSH2 0x2614 JUMPI POP DUP2 PUSH1 0x0 SLT JUMPDEST ISZERO PUSH2 0x2620 JUMPI POP DUP2 PUSH2 0x317 JUMP JUMPDEST PUSH1 0x0 DUP3 SGT ISZERO DUP1 ISZERO PUSH2 0x2631 JUMPI POP DUP3 PUSH1 0x0 SLT JUMPDEST ISZERO PUSH2 0x263F JUMPI PUSH2 0x1944 DUP3 PUSH2 0xE99 JUMP JUMPDEST PUSH1 0x0 DUP4 SGT ISZERO DUP1 ISZERO PUSH2 0x2651 JUMPI POP PUSH1 0x0 DUP3 SGT ISZERO JUMPDEST ISZERO PUSH2 0x100 JUMPI PUSH2 0x1944 DUP4 DUP4 PUSH2 0x2C08 JUMP JUMPDEST DUP1 ISZERO PUSH2 0xD59 JUMPI DUP4 MLOAD PUSH1 0x20 DUP6 ADD MLOAD PUSH1 0x0 SWAP2 PUSH2 0x267F SWAP2 PUSH2 0x193E SWAP1 DUP6 SWAP1 PUSH2 0x14C1 JUMP JUMPDEST SWAP1 POP PUSH2 0x268D DUP5 DUP5 DUP5 DUP5 PUSH2 0x2C1E JUMP JUMPDEST POP POP POP POP POP JUMP JUMPDEST PUSH2 0x269C PUSH2 0x3C83 JUMP JUMPDEST PUSH2 0x317 DUP3 PUSH1 0x1 PUSH2 0x2D69 JUMP JUMPDEST PUSH1 0x0 DUP1 PUSH2 0x26D4 PUSH15 0xC097CE7BC90715B34B9F1000000000 PUSH2 0x193E DUP7 PUSH1 0x0 ADD MLOAD DUP7 PUSH2 0x14C1 SWAP1 SWAP2 SWAP1 PUSH4 0xFFFFFFFF AND JUMP JUMPDEST SWAP1 POP PUSH1 0x0 DUP4 SLT PUSH2 0x26E4 JUMPI DUP1 PUSH2 0x1829 JUMP JUMPDEST PUSH2 0x1829 DUP2 PUSH1 0x0 NOT PUSH2 0x2E03 JUMP JUMPDEST PUSH1 0x0 PUSH4 0x5F5E100 DUP4 PUSH1 0x40 ADD MLOAD EQ ISZERO PUSH2 0x2709 JUMPI POP DUP1 PUSH2 0x317 JUMP JUMPDEST PUSH2 0x3D5 PUSH4 0x5F5E100 PUSH2 0x193E DUP6 PUSH1 0x40 ADD MLOAD DUP6 PUSH2 0x14C1 SWAP1 SWAP2 SWAP1 PUSH4 0xFFFFFFFF AND JUMP JUMPDEST PUSH1 0x0 PUSH2 0x2732 PUSH2 0x2E19 JUMP JUMPDEST DUP4 MLOAD PUSH1 0x1 PUSH1 0x1 PUSH1 0xA0 SHL SUB AND PUSH1 0x0 SWAP1 DUP2 MSTORE PUSH1 0x20 DUP3 SWAP1 MSTORE PUSH1 0x40 SWAP1 KECCAK256 SLOAD SWAP1 SWAP2 POP DUP1 DUP4 GT PUSH2 0x275D JUMPI POP POP PUSH2 0x2595 JUMP JUMPDEST PUSH1 0x0 PUSH2 0x2768 DUP7 PUSH2 0x2015 JUMP JUMPDEST SWAP1 POP PUSH1 0x0 DUP2 PUSH1 0x1 PUSH1 0x1 PUSH1 0xA0 SHL SUB AND PUSH4 0xB5E4DA23 DUP5 DUP8 SUB PUSH1 0x40 MLOAD DUP3 PUSH4 0xFFFFFFFF AND PUSH1 0xE0 SHL DUP2 MSTORE PUSH1 0x4 ADD PUSH2 0x279A SWAP2 SWAP1 PUSH2 0x4407 JUMP JUMPDEST PUSH1 0x0 PUSH1 0x40 MLOAD DUP1 DUP4 SUB DUP2 DUP7 DUP1 EXTCODESIZE ISZERO DUP1 ISZERO PUSH2 0x27B2 JUMPI PUSH1 0x0 DUP1 REVERT JUMPDEST POP GAS STATICCALL ISZERO DUP1 ISZERO PUSH2 0x27C6 JUMPI RETURNDATASIZE PUSH1 0x0 DUP1 RETURNDATACOPY RETURNDATASIZE PUSH1 0x0 REVERT JUMPDEST POP POP POP POP PUSH1 0x40 MLOAD RETURNDATASIZE PUSH1 0x0 DUP3 RETURNDATACOPY PUSH1 0x1F RETURNDATASIZE SWAP1 DUP2 ADD PUSH1 0x1F NOT AND DUP3 ADD PUSH1 0x40 MSTORE PUSH2 0x27EE SWAP2 SWAP1 DUP2 ADD SWAP1 PUSH2 0x3F0C JUMP JUMPDEST SWAP1 POP PUSH1 0x0 PUSH2 0x27FC DUP8 DUP4 PUSH2 0x2E26 JUMP JUMPDEST SWAP1 POP PUSH2 0x2808 DUP5 DUP3 PUSH2 0xDA3 JUMP JUMPDEST DUP7 GT ISZERO PUSH2 0x2814 JUMPI PUSH1 0x0 DUP1 REVERT JUMPDEST POP POP POP POP POP POP POP POP JUMP JUMPDEST DUP1 ISZERO PUSH2 0x28B0 JUMPI PUSH20 0x82AF49447D8A07E3BD95BD0D56F35241523FBAB1 PUSH1 0x1 PUSH1 0x1 PUSH1 0xA0 SHL SUB AND PUSH4 0xD0E30DB0 DUP4 PUSH1 0x40 MLOAD DUP3 PUSH4 0xFFFFFFFF AND PUSH1 0xE0 SHL DUP2 MSTORE PUSH1 0x4 ADD PUSH1 0x0 PUSH1 0x40 MLOAD DUP1 DUP4 SUB DUP2 DUP6 DUP9 DUP1 EXTCODESIZE ISZERO DUP1 ISZERO PUSH2 0x2873 JUMPI PUSH1 0x0 DUP1 REVERT JUMPDEST POP GAS CALL ISZERO DUP1 ISZERO PUSH2 0x2887 JUMPI RETURNDATASIZE PUSH1 0x0 DUP1 RETURNDATACOPY RETURNDATASIZE PUSH1 0x0 REVERT JUMPDEST POP POP POP POP POP PUSH2 0x28AB PUSH20 0x82AF49447D8A07E3BD95BD0D56F35241523FBAB1 DUP5 DUP5 PUSH2 0x251E JUMP JUMPDEST PUSH2 0x2595 JUMP JUMPDEST PUSH1 0x40 MLOAD PUSH1 0x1 PUSH1 0x1 PUSH1 0xA0 SHL SUB DUP5 AND SWAP1 DUP4 ISZERO PUSH2 0x8FC MUL SWAP1 DUP5 SWAP1 PUSH1 0x0 DUP2 DUP2 DUP2 DUP6 DUP9 DUP9 CALL SWAP4 POP POP POP POP ISZERO DUP1 ISZERO PUSH2 0xD59 JUMPI RETURNDATASIZE PUSH1 0x0 DUP1 RETURNDATACOPY RETURNDATASIZE PUSH1 0x0 REVERT JUMPDEST PUSH1 0x0 DUP1 PUSH2 0x28F3 DUP5 DUP7 PUSH2 0x3069 JUMP JUMPDEST SWAP1 POP PUSH2 0x28FF DUP4 DUP3 PUSH2 0x3099 JUMP JUMPDEST SWAP2 POP PUSH2 0x290C DUP8 DUP8 DUP5 PUSH2 0x2AF9 JUMP JUMPDEST PUSH2 0x2917 DUP7 DUP4 DUP4 PUSH2 0x30BD JUMP JUMPDEST DUP4 MLOAD PUSH2 0x2923 SWAP1 DUP7 PUSH2 0x31C4 JUMP JUMPDEST POP SWAP6 SWAP5 POP POP POP POP POP JUMP JUMPDEST PUSH1 0x0 DUP1 PUSH1 0x0 DUP1 PUSH1 0x0 PUSH2 0x293D PUSH2 0x2008 JUMP JUMPDEST PUSH2 0xFFFF DUP8 AND PUSH1 0x0 SWAP1 DUP2 MSTORE PUSH1 0x20 SWAP2 SWAP1 SWAP2 MSTORE PUSH1 0x40 SWAP1 KECCAK256 PUSH1 0x1 DUP2 ADD SLOAD SWAP1 SWAP2 POP PUSH2 0x296F SWAP1 PUSH1 0x1 PUSH1 0x58 SHL SWAP1 DIV PUSH4 0xFFFFFFFF AND PUSH2 0x1909 JUMP JUMPDEST PUSH1 0x1 DUP3 ADD SLOAD SWAP1 SWAP6 POP PUSH2 0x2993 SWAP1 PUSH1 0x64 SWAP1 PUSH2 0x1BBB SWAP1 DUP9 SWAP1 PUSH1 0x1 PUSH1 0x78 SHL SWAP1 DIV PUSH1 0xFF AND PUSH2 0x18D5 JUMP JUMPDEST DUP2 SLOAD SWAP1 SWAP4 POP PUSH1 0x1 PUSH1 0x28 SHL SWAP1 DIV PUSH1 0x1 PUSH1 0x1 PUSH1 0x58 SHL SUB AND PUSH2 0x29BA PUSH2 0x29B5 DUP10 DUP4 PUSH2 0x26A7 JUMP JUMPDEST PUSH2 0x1255 JUMP JUMPDEST PUSH1 0x1 DUP4 ADD SLOAD SWAP1 SWAP6 POP PUSH1 0x1 PUSH1 0x1 PUSH1 0x58 SHL SUB AND PUSH1 0x0 SUB PUSH2 0x29E3 PUSH2 0x29B5 PUSH2 0x29DE DUP12 DUP5 PUSH2 0x3219 JUMP JUMPDEST PUSH2 0xE99 JUMP JUMPDEST SWAP4 POP POP POP POP SWAP3 SWAP6 SWAP2 SWAP5 POP SWAP3 POP JUMP JUMPDEST PUSH1 0x0 DUP1 PUSH2 0x317 PUSH1 0x1F PUSH2 0xFE3 JUMP JUMPDEST PUSH1 0x0 DUP1 PUSH1 0x0 DUP1 PUSH1 0x0 DUP6 PUSH1 0x20 ADD MLOAD GT ISZERO PUSH2 0x2A4B JUMPI PUSH2 0x2A48 PUSH2 0x2A2F DUP7 PUSH1 0xC0 ADD MLOAD DUP8 PUSH1 0x20 ADD MLOAD PUSH2 0x18D5 SWAP1 SWAP2 SWAP1 PUSH4 0xFFFFFFFF AND JUMP JUMPDEST PUSH1 0xE0 DUP8 ADD MLOAD PUSH1 0x40 DUP9 ADD MLOAD PUSH2 0x2A42 SWAP2 PUSH2 0x18D5 JUMP JUMPDEST SWAP1 PUSH2 0x3264 JUMP JUMPDEST SWAP1 POP JUMPDEST PUSH1 0x0 PUSH2 0x2A56 DUP8 PUSH2 0x3277 JUMP JUMPDEST SWAP1 POP PUSH2 0x2A62 DUP2 DUP4 PUSH2 0x32AA JUMP JUMPDEST SWAP5 POP DUP2 ISZERO PUSH2 0x2A79 JUMPI PUSH2 0x2A76 DUP2 DUP7 PUSH1 0x1 PUSH2 0x3363 JUMP JUMPDEST SWAP4 POP JUMPDEST PUSH1 0x20 DUP7 ADD MLOAD ISZERO PUSH2 0x24E8 JUMPI PUSH2 0x2A8D DUP6 DUP4 PUSH2 0x33DB JUMP JUMPDEST SWAP3 POP POP POP SWAP3 POP SWAP3 POP SWAP3 JUMP JUMPDEST PUSH1 0x0 PUSH5 0xFFFFFFFFFF DUP3 GT ISZERO PUSH2 0xE41 JUMPI PUSH1 0x0 DUP1 REVERT JUMPDEST PUSH1 0x0 PUSH1 0x1 PUSH1 0x1 PUSH1 0x58 SHL SUB DUP3 GT ISZERO PUSH2 0xE41 JUMPI PUSH1 0x0 DUP1 REVERT JUMPDEST PUSH1 0x0 DUP2 SLT ISZERO PUSH2 0x2AD0 JUMPI PUSH1 0x0 DUP1 REVERT JUMPDEST PUSH1 0x0 PUSH2 0x2ADE PUSH2 0xFEE DUP5 PUSH2 0x33F4 JUMP JUMPDEST SWAP1 POP PUSH2 0x2AEA DUP2 DUP4 PUSH2 0x1DB0 JUMP JUMPDEST SWAP1 POP PUSH2 0x2595 PUSH2 0xFEE DUP5 DUP4 PUSH2 0x344D JUMP JUMPDEST PUSH1 0x0 PUSH2 0x2B03 PUSH2 0x1009 JUMP JUMPDEST PUSH2 0xFFFF DUP5 AND PUSH1 0x0 SWAP1 DUP2 MSTORE PUSH1 0x20 SWAP2 SWAP1 SWAP2 MSTORE PUSH1 0x40 SWAP1 DUP2 SWAP1 KECCAK256 SLOAD SWAP1 MLOAD PUSH4 0xAD1C095D PUSH1 0xE0 SHL DUP2 MSTORE PUSH1 0x1 PUSH1 0x1 PUSH1 0xA0 SHL SUB SWAP1 SWAP2 AND SWAP2 POP DUP2 SWAP1 PUSH4 0xAD1C095D SWAP1 PUSH2 0x2B4B SWAP1 DUP8 SWAP1 DUP7 SWAP1 PUSH1 0x4 ADD PUSH2 0x426C JUMP JUMPDEST PUSH1 0x0 PUSH1 0x40 MLOAD DUP1 DUP4 SUB DUP2 PUSH1 0x0 DUP8 DUP1 EXTCODESIZE ISZERO DUP1 ISZERO PUSH2 0x2B65 JUMPI PUSH1 0x0 DUP1 REVERT JUMPDEST POP GAS CALL ISZERO DUP1 ISZERO PUSH2 0x2814 JUMPI RETURNDATASIZE PUSH1 0x0 DUP1 RETURNDATACOPY RETURNDATASIZE PUSH1 0x0 REVERT JUMPDEST PUSH1 0x0 PUSH2 0x1829 DUP3 PUSH2 0x1BBB PUSH4 0x1DA9C00 DUP2 DUP9 PUSH2 0x1BB5 DUP10 PUSH8 0xDE0B6B3A7640000 PUSH2 0x18D5 JUMP JUMPDEST PUSH1 0x0 PUSH2 0x2BA5 PUSH2 0x3CB2 JUMP JUMPDEST RETURNDATASIZE DUP1 ISZERO PUSH2 0x2BB9 JUMPI PUSH1 0x20 DUP2 EQ PUSH2 0x2BC2 JUMPI PUSH1 0x0 DUP1 REVERT JUMPDEST PUSH1 0x1 SWAP3 POP PUSH2 0x2BCD JUMP JUMPDEST PUSH1 0x20 PUSH1 0x0 DUP4 RETURNDATACOPY DUP2 MLOAD SWAP3 POP JUMPDEST POP DUP2 PUSH2 0x98B JUMPI PUSH1 0x40 DUP1 MLOAD PUSH3 0x461BCD PUSH1 0xE5 SHL DUP2 MSTORE PUSH1 0x20 PUSH1 0x4 DUP3 ADD MSTORE PUSH1 0x5 PUSH1 0x24 DUP3 ADD MSTORE PUSH5 0x455243323 PUSH1 0xDC SHL PUSH1 0x44 DUP3 ADD MSTORE SWAP1 MLOAD SWAP1 DUP2 SWAP1 SUB PUSH1 0x64 ADD SWAP1 REVERT JUMPDEST DUP1 DUP3 SUB DUP3 DUP2 SGT ISZERO PUSH1 0x0 DUP4 SLT ISZERO EQ PUSH2 0x317 JUMPI PUSH1 0x0 DUP1 REVERT JUMPDEST PUSH1 0x0 PUSH2 0x2C28 PUSH2 0x2008 JUMP JUMPDEST PUSH2 0xFFFF DUP6 AND PUSH1 0x0 SWAP1 DUP2 MSTORE PUSH1 0x20 SWAP2 SWAP1 SWAP2 MSTORE PUSH1 0x40 SWAP1 KECCAK256 DUP1 SLOAD SWAP1 SWAP2 POP PUSH5 0xFFFFFFFFFF AND TIMESTAMP EQ PUSH2 0x2C53 JUMPI PUSH1 0x0 DUP1 REVERT JUMPDEST DUP1 SLOAD PUSH1 0x1 PUSH1 0xF8 SHL SWAP1 DIV PUSH1 0xFF AND PUSH2 0x2C68 JUMPI PUSH1 0x0 DUP1 REVERT JUMPDEST PUSH1 0x1 DUP2 ADD SLOAD PUSH1 0x0 SWAP1 PUSH2 0x2C83 SWAP1 PUSH1 0x1 PUSH1 0x1 PUSH1 0x58 SHL SUB AND DUP6 PUSH2 0x1DB0 JUMP JUMPDEST DUP3 SLOAD SWAP1 SWAP2 POP PUSH1 0x0 SWAP1 PUSH2 0x2CA5 SWAP1 PUSH1 0x1 PUSH1 0x28 SHL SWAP1 DIV PUSH1 0x1 PUSH1 0x1 PUSH1 0x58 SHL SUB AND DUP6 PUSH2 0x1DB0 JUMP JUMPDEST SWAP1 POP DUP2 PUSH1 0x9 NOT SLT DUP1 ISZERO PUSH2 0x2CB8 JUMPI POP PUSH1 0x0 DUP3 SLT JUMPDEST ISZERO PUSH2 0x2CC2 JUMPI PUSH1 0x0 SWAP2 POP JUMPDEST DUP1 PUSH1 0x9 NOT SLT DUP1 ISZERO PUSH2 0x2CD3 JUMPI POP PUSH1 0x0 DUP2 SLT JUMPDEST ISZERO PUSH2 0x2CDC JUMPI POP PUSH1 0x0 JUMPDEST PUSH2 0x2CED PUSH2 0x2CE8 DUP4 PUSH2 0x1255 JUMP JUMPDEST PUSH2 0x2AAC JUMP JUMPDEST PUSH1 0x1 DUP5 ADD DUP1 SLOAD PUSH11 0xFFFFFFFFFFFFFFFFFFFFFF NOT AND PUSH1 0x1 PUSH1 0x1 PUSH1 0x58 SHL SUB SWAP3 SWAP1 SWAP3 AND SWAP2 SWAP1 SWAP2 OR SWAP1 SSTORE PUSH2 0x2D1F PUSH2 0x2CE8 DUP3 PUSH2 0x1255 JUMP JUMPDEST DUP4 SLOAD PUSH1 0x1 PUSH1 0x1 PUSH1 0x58 SHL SUB SWAP2 SWAP1 SWAP2 AND PUSH1 0x1 PUSH1 0x28 SHL MUL PUSH16 0xFFFFFFFFFFFFFFFFFFFFFF0000000000 NOT SWAP1 SWAP2 AND OR DUP4 SSTORE PUSH2 0x2D57 DUP8 DUP8 DUP7 DUP9 PUSH2 0x34C1 JUMP JUMPDEST PUSH2 0x2D60 DUP4 PUSH2 0x35D5 JUMP JUMPDEST POP POP POP POP POP POP POP JUMP JUMPDEST PUSH2 0x2D71 PUSH2 0x3C83 JUMP JUMPDEST PUSH1 0x0 PUSH2 0x2D7B PUSH2 0x36A0 JUMP JUMPDEST PUSH1 0x0 DUP6 DUP2 MSTORE PUSH1 0x20 DUP3 DUP2 MSTORE PUSH1 0x40 DUP1 DUP4 KECCAK256 DUP8 ISZERO ISZERO DUP5 MSTORE DUP3 MSTORE SWAP2 DUP3 SWAP1 KECCAK256 DUP3 MLOAD PUSH1 0xA0 DUP2 ADD DUP5 MSTORE DUP2 SLOAD PUSH1 0x1 PUSH1 0x1 PUSH1 0xA0 SHL SUB DUP2 AND DUP3 MSTORE PUSH1 0xFF PUSH1 0x1 PUSH1 0xA0 SHL DUP3 DIV DUP2 AND ISZERO ISZERO SWAP5 DUP4 ADD SWAP5 SWAP1 SWAP5 MSTORE PUSH1 0x1 PUSH1 0xB0 SHL DUP2 DIV DUP5 AND PUSH1 0xA EXP SWAP5 DUP3 ADD SWAP5 SWAP1 SWAP5 MSTORE SWAP4 SWAP5 POP SWAP3 SWAP2 PUSH1 0x60 DUP4 ADD SWAP2 PUSH1 0x1 PUSH1 0xA8 SHL SWAP1 SWAP2 DIV AND PUSH1 0x5 DUP2 GT ISZERO PUSH2 0x2DF0 JUMPI INVALID JUMPDEST DUP2 MSTORE PUSH1 0x0 PUSH1 0x20 SWAP1 SWAP2 ADD MSTORE SWAP6 SWAP5 POP POP POP POP POP JUMP JUMPDEST PUSH1 0x0 DUP2 DUP4 SLT PUSH2 0x2E12 JUMPI DUP2 PUSH2 0x3D5 JUMP JUMPDEST POP SWAP1 SWAP2 SWAP1 POP JUMP JUMPDEST PUSH1 0x0 DUP1 PUSH2 0x317 PUSH1 0x26 PUSH2 0xFE3 JUMP JUMPDEST PUSH1 0x0 DUP1 JUMPDEST DUP3 MLOAD DUP2 LT ISZERO PUSH2 0x3062 JUMPI PUSH1 0x0 DUP4 DUP3 DUP2 MLOAD DUP2 LT PUSH2 0x2E41 JUMPI INVALID JUMPDEST PUSH1 0x20 MUL PUSH1 0x20 ADD ADD MLOAD SWAP1 POP PUSH1 0x0 DUP2 PUSH1 0x60 ADD MLOAD PUSH1 0x1 PUSH1 0x1 PUSH1 0xA0 SHL SUB AND PUSH4 0x70A08231 ADDRESS PUSH1 0x40 MLOAD DUP3 PUSH4 0xFFFFFFFF AND PUSH1 0xE0 SHL DUP2 MSTORE PUSH1 0x4 ADD PUSH2 0x2E7D SWAP2 SWAP1 PUSH2 0x423E JUMP JUMPDEST PUSH1 0x20 PUSH1 0x40 MLOAD DUP1 DUP4 SUB DUP2 DUP7 DUP1 EXTCODESIZE ISZERO DUP1 ISZERO PUSH2 0x2E95 JUMPI PUSH1 0x0 DUP1 REVERT JUMPDEST POP GAS STATICCALL ISZERO DUP1 ISZERO PUSH2 0x2EA9 JUMPI RETURNDATASIZE PUSH1 0x0 DUP1 RETURNDATACOPY RETURNDATASIZE PUSH1 0x0 REVERT JUMPDEST POP POP POP POP PUSH1 0x40 MLOAD RETURNDATASIZE PUSH1 0x1F NOT PUSH1 0x1F DUP3 ADD AND DUP3 ADD DUP1 PUSH1 0x40 MSTORE POP DUP2 ADD SWAP1 PUSH2 0x2ECD SWAP2 SWAP1 PUSH2 0x4203 JUMP JUMPDEST SWAP1 POP PUSH1 0x0 PUSH2 0x2EDB DUP8 ADDRESS PUSH2 0x36AD JUMP JUMPDEST SWAP1 POP PUSH1 0x0 JUMPDEST DUP4 MLOAD MLOAD DUP2 LT ISZERO PUSH2 0x2F2C JUMPI PUSH2 0x2F24 DUP5 PUSH1 0x0 ADD MLOAD DUP3 DUP2 MLOAD DUP2 LT PUSH2 0x2EFD JUMPI INVALID JUMPDEST PUSH1 0x20 MUL PUSH1 0x20 ADD ADD MLOAD PUSH1 0x0 DUP7 PUSH1 0x20 ADD MLOAD DUP5 DUP2 MLOAD DUP2 LT PUSH2 0x2F17 JUMPI INVALID JUMPDEST PUSH1 0x20 MUL PUSH1 0x20 ADD ADD MLOAD PUSH2 0x3757 JUMP JUMPDEST PUSH1 0x1 ADD PUSH2 0x2EE0 JUMP JUMPDEST POP PUSH1 0x0 PUSH2 0x2F39 DUP9 ADDRESS PUSH2 0x36AD JUMP JUMPDEST SWAP1 POP PUSH1 0x0 PUSH2 0x2F47 DUP3 DUP5 PUSH2 0x214F JUMP JUMPDEST SWAP1 POP DUP1 DUP6 PUSH1 0x40 ADD MLOAD GT ISZERO PUSH2 0x2F5A JUMPI PUSH1 0x0 DUP1 REVERT JUMPDEST PUSH1 0x60 DUP6 ADD MLOAD PUSH1 0x40 MLOAD PUSH4 0x70A08231 PUSH1 0xE0 SHL DUP2 MSTORE PUSH1 0x0 SWAP2 PUSH1 0x1 PUSH1 0x1 PUSH1 0xA0 SHL SUB AND SWAP1 PUSH4 0x70A08231 SWAP1 PUSH2 0x2F8D SWAP1 ADDRESS SWAP1 PUSH1 0x4 ADD PUSH2 0x423E JUMP JUMPDEST PUSH1 0x20 PUSH1 0x40 MLOAD DUP1 DUP4 SUB DUP2 DUP7 DUP1 EXTCODESIZE ISZERO DUP1 ISZERO PUSH2 0x2FA5 JUMPI PUSH1 0x0 DUP1 REVERT JUMPDEST POP GAS STATICCALL ISZERO DUP1 ISZERO PUSH2 0x2FB9 JUMPI RETURNDATASIZE PUSH1 0x0 DUP1 RETURNDATACOPY RETURNDATASIZE PUSH1 0x0 REVERT JUMPDEST POP POP POP POP PUSH1 0x40 MLOAD RETURNDATASIZE PUSH1 0x1F NOT PUSH1 0x1F DUP3 ADD AND DUP3 ADD DUP1 PUSH1 0x40 MSTORE POP DUP2 ADD SWAP1 PUSH2 0x2FDD SWAP2 SWAP1 PUSH2 0x4203 JUMP JUMPDEST SWAP1 POP DUP5 DUP2 GT ISZERO PUSH2 0x2FEC JUMPI PUSH1 0x0 DUP1 REVERT JUMPDEST PUSH1 0x80 DUP7 ADD MLOAD PUSH1 0xFF AND ISZERO DUP1 ISZERO SWAP1 PUSH2 0x300B JUMPI POP PUSH2 0x3007 DUP6 DUP3 PUSH2 0x214F JUMP JUMPDEST DUP3 EQ ISZERO JUMPDEST ISZERO PUSH2 0x3026 JUMPI PUSH1 0x80 DUP7 ADD MLOAD PUSH2 0x3023 SWAP1 DUP3 SWAP1 PUSH1 0xFF AND PUSH2 0xDA3 JUMP JUMPDEST SWAP1 POP JUMPDEST PUSH2 0x3035 DUP7 PUSH1 0x60 ADD MLOAD DUP7 DUP4 PUSH2 0x3894 JUMP JUMPDEST PUSH2 0x303F DUP9 DUP4 PUSH2 0xDA3 JUMP JUMPDEST SWAP8 POP PUSH2 0x3050 DUP11 PUSH1 0x0 ADD MLOAD DUP6 DUP6 PUSH2 0x3894 JUMP JUMPDEST POP POP PUSH1 0x1 SWAP1 SWAP5 ADD SWAP4 POP PUSH2 0x2E2A SWAP3 POP POP POP JUMP JUMPDEST POP SWAP3 SWAP2 POP POP JUMP JUMPDEST PUSH1 0x0 PUSH4 0x5F5E100 DUP4 PUSH1 0x40 ADD MLOAD EQ ISZERO PUSH2 0x3082 JUMPI POP DUP1 PUSH2 0x317 JUMP JUMPDEST PUSH1 0x40 DUP4 ADD MLOAD PUSH2 0x3D5 SWAP1 PUSH2 0x193E DUP5 PUSH4 0x5F5E100 PUSH2 0x14C1 JUMP JUMPDEST DUP2 MLOAD PUSH1 0x0 SWAP1 DUP2 SWAP1 PUSH2 0x26D4 SWAP1 PUSH2 0x193E DUP6 PUSH15 0xC097CE7BC90715B34B9F1000000000 PUSH2 0x14C1 JUMP JUMPDEST PUSH1 0x0 PUSH2 0x30C7 PUSH2 0x2008 JUMP JUMPDEST PUSH2 0xFFFF DUP6 AND PUSH1 0x0 SWAP1 DUP2 MSTORE PUSH1 0x20 SWAP2 SWAP1 SWAP2 MSTORE PUSH1 0x40 SWAP1 KECCAK256 DUP1 SLOAD SWAP1 SWAP2 POP PUSH5 0xFFFFFFFFFF AND TIMESTAMP EQ PUSH2 0x30F2 JUMPI PUSH1 0x0 DUP1 REVERT JUMPDEST DUP1 SLOAD PUSH1 0x0 SWAP1 PUSH2 0x3111 SWAP1 PUSH1 0x1 PUSH1 0x28 SHL SWAP1 DIV PUSH1 0x1 PUSH1 0x1 PUSH1 0x58 SHL SUB AND DUP6 PUSH2 0x1DB0 JUMP JUMPDEST DUP3 SLOAD SWAP1 SWAP2 POP PUSH1 0x0 SWAP1 PUSH2 0x3133 SWAP1 PUSH1 0x1 PUSH1 0x80 SHL SWAP1 DIV PUSH1 0x1 PUSH1 0x1 PUSH1 0x58 SHL SUB AND DUP6 PUSH2 0x1DB0 JUMP JUMPDEST SWAP1 POP DUP1 PUSH3 0x4C4B40 SGT ISZERO PUSH2 0x3145 JUMPI PUSH1 0x0 DUP1 REVERT JUMPDEST PUSH2 0x3151 PUSH2 0x2CE8 DUP3 PUSH2 0x1255 JUMP JUMPDEST DUP4 SLOAD PUSH1 0x1 PUSH1 0x1 PUSH1 0x58 SHL SUB SWAP2 SWAP1 SWAP2 AND PUSH1 0x1 PUSH1 0x80 SHL MUL PUSH11 0xFFFFFFFFFFFFFFFFFFFFFF PUSH1 0x80 SHL NOT SWAP1 SWAP2 AND OR DUP4 SSTORE PUSH2 0x3187 PUSH2 0x2CE8 DUP4 PUSH2 0x1255 JUMP JUMPDEST DUP4 SLOAD PUSH1 0x1 PUSH1 0x1 PUSH1 0x58 SHL SUB SWAP2 SWAP1 SWAP2 AND PUSH1 0x1 PUSH1 0x28 SHL MUL PUSH16 0xFFFFFFFFFFFFFFFFFFFFFF0000000000 NOT SWAP1 SWAP2 AND OR DUP4 SSTORE PUSH2 0x31BC DUP4 PUSH2 0x35D5 JUMP JUMPDEST POP POP POP POP POP POP JUMP JUMPDEST PUSH1 0x0 PUSH2 0x31CE PUSH2 0x2E19 JUMP JUMPDEST PUSH1 0x1 PUSH1 0x1 PUSH1 0xA0 SHL SUB DUP5 AND PUSH1 0x0 SWAP1 DUP2 MSTORE PUSH1 0x20 DUP3 SWAP1 MSTORE PUSH1 0x40 SWAP1 KECCAK256 SLOAD SWAP1 SWAP2 POP PUSH2 0x31F7 PUSH2 0x29B5 DUP3 DUP6 PUSH2 0x1DB0 JUMP JUMPDEST PUSH1 0x1 PUSH1 0x1 PUSH1 0xA0 SHL SUB SWAP1 SWAP5 AND PUSH1 0x0 SWAP1 DUP2 MSTORE PUSH1 0x20 SWAP3 SWAP1 SWAP3 MSTORE POP PUSH1 0x40 SWAP1 KECCAK256 SWAP2 SWAP1 SWAP2 SSTORE POP JUMP JUMPDEST PUSH1 0x0 PUSH1 0x1 DUP3 SLT PUSH2 0x3228 JUMPI PUSH1 0x0 DUP1 REVERT JUMPDEST DUP2 PUSH2 0x3235 JUMPI POP PUSH1 0x0 PUSH2 0x317 JUMP JUMPDEST PUSH2 0x3D5 PUSH1 0x1 PUSH2 0x25C8 PUSH15 0xC097CE7BC90715B34B9F1000000000 PUSH2 0x193E DUP8 PUSH1 0x20 ADD MLOAD DUP8 PUSH2 0x14C1 SWAP1 SWAP2 SWAP1 PUSH4 0xFFFFFFFF AND JUMP JUMPDEST PUSH1 0x0 PUSH2 0x3D5 PUSH2 0x217B DUP5 PUSH4 0x3B9ACA00 PUSH2 0x18D5 JUMP JUMPDEST PUSH2 0x327F PUSH2 0x3CD0 JUMP JUMPDEST PUSH1 0x0 PUSH2 0x3289 PUSH2 0x3911 JUMP JUMPDEST PUSH2 0xFFFF DUP5 AND PUSH1 0x0 SWAP1 DUP2 MSTORE PUSH1 0x20 SWAP2 SWAP1 SWAP2 MSTORE PUSH1 0x40 DUP2 KECCAK256 SLOAD SWAP2 POP PUSH2 0x3D5 SWAP1 DUP3 PUSH2 0x391E JUMP JUMPDEST PUSH1 0x0 DUP1 DUP4 PUSH1 0x80 ADD MLOAD GT PUSH2 0x32BC JUMPI PUSH1 0x0 DUP1 REVERT JUMPDEST PUSH4 0x3B9ACA00 DUP3 GT ISZERO PUSH2 0x32CD JUMPI PUSH1 0x0 DUP1 REVERT JUMPDEST DUP3 MLOAD DUP3 GT PUSH2 0x32EC JUMPI DUP3 MLOAD PUSH1 0x40 DUP5 ADD MLOAD PUSH2 0x1944 SWAP2 SWAP1 PUSH2 0x1BBB SWAP1 DUP6 SWAP1 PUSH2 0x18D5 JUMP JUMPDEST DUP3 PUSH1 0x20 ADD MLOAD DUP3 GT PUSH2 0x332A JUMPI PUSH1 0x40 DUP4 ADD MLOAD DUP4 MLOAD PUSH1 0x20 DUP6 ADD MLOAD PUSH1 0x60 DUP7 ADD MLOAD PUSH2 0x1944 SWAP4 SWAP3 PUSH2 0x3324 SWAP3 DUP2 SWAP1 SUB SWAP2 PUSH2 0x1BBB SWAP2 DUP9 SUB SWAP1 DUP6 SWAP1 SUB PUSH2 0x18D5 JUMP JUMPDEST SWAP1 PUSH2 0xDA3 JUMP JUMPDEST PUSH2 0x3D5 DUP4 PUSH1 0x60 ADD MLOAD PUSH2 0x3324 DUP6 PUSH1 0x20 ADD MLOAD PUSH4 0x3B9ACA00 SUB PUSH2 0x1BBB DUP8 PUSH1 0x60 ADD MLOAD DUP9 PUSH1 0x80 ADD MLOAD SUB DUP9 PUSH1 0x20 ADD MLOAD DUP9 SUB PUSH2 0x18D5 SWAP1 SWAP2 SWAP1 PUSH4 0xFFFFFFFF AND JUMP JUMPDEST PUSH1 0x0 DUP1 PUSH2 0x3382 PUSH1 0x64 PUSH2 0x1BBB DUP8 PUSH1 0xE0 ADD MLOAD DUP8 PUSH2 0x18D5 SWAP1 SWAP2 SWAP1 PUSH4 0xFFFFFFFF AND JUMP JUMPDEST SWAP1 POP DUP5 PUSH1 0xA0 ADD MLOAD DUP2 LT ISZERO PUSH2 0x3397 JUMPI POP PUSH1 0xA0 DUP5 ADD MLOAD JUMPDEST DUP5 PUSH1 0xC0 ADD MLOAD DUP2 GT ISZERO PUSH2 0x33AA JUMPI POP PUSH1 0xC0 DUP5 ADD MLOAD JUMPDEST DUP3 ISZERO PUSH2 0x33C1 JUMPI PUSH2 0x33BA DUP5 DUP3 PUSH2 0xDA3 JUMP JUMPDEST SWAP2 POP PUSH2 0x4B7 JUMP JUMPDEST DUP4 DUP2 GT PUSH2 0x33D0 JUMPI DUP1 DUP5 SUB PUSH2 0x63E JUMP JUMPDEST PUSH1 0x0 SWAP6 SWAP5 POP POP POP POP POP JUMP JUMPDEST PUSH1 0x0 PUSH2 0x3D5 PUSH2 0x33EA DUP5 DUP5 PUSH2 0x18D5 JUMP JUMPDEST PUSH4 0x3B9ACA00 PUSH2 0x24F2 JUMP JUMPDEST PUSH1 0x0 DUP1 PUSH2 0x33FF PUSH2 0x18FC JUMP JUMPDEST PUSH1 0x1 PUSH1 0x1 PUSH1 0xA0 SHL SUB DUP6 AND PUSH1 0x0 SWAP1 DUP2 MSTORE PUSH1 0x20 DUP3 DUP2 MSTORE PUSH1 0x40 DUP1 DUP4 KECCAK256 PUSH2 0xFFFF DUP9 AND DUP5 MSTORE SWAP1 SWAP2 MSTORE DUP2 KECCAK256 DUP1 SLOAD PUSH1 0x1 PUSH1 0xA8 SHL SWAP1 DIV PUSH1 0xA SWAP1 DUP2 SIGNEXTEND SWAP1 SIGNEXTEND SWAP5 POP SWAP2 SWAP3 POP DUP4 SLT ISZERO PUSH2 0x3445 JUMPI PUSH1 0x0 DUP1 REVERT JUMPDEST POP POP SWAP3 SWAP2 POP POP JUMP JUMPDEST PUSH1 0x0 DUP2 SLT ISZERO PUSH2 0x345B JUMPI PUSH1 0x0 DUP1 REVERT JUMPDEST PUSH1 0x0 PUSH2 0x3465 PUSH2 0x18FC JUMP JUMPDEST PUSH1 0x1 PUSH1 0x1 PUSH1 0xA0 SHL SUB DUP6 AND PUSH1 0x0 SWAP1 DUP2 MSTORE PUSH1 0x20 DUP3 DUP2 MSTORE PUSH1 0x40 DUP1 DUP4 KECCAK256 PUSH2 0xFFFF DUP9 AND DUP5 MSTORE SWAP1 SWAP2 MSTORE SWAP1 KECCAK256 SWAP1 SWAP2 POP PUSH2 0x3496 DUP4 PUSH2 0x1CD5 JUMP JUMPDEST DUP2 SLOAD PUSH1 0xA SWAP2 SWAP1 SWAP2 SIGNEXTEND PUSH1 0x1 PUSH1 0x1 PUSH1 0x58 SHL SUB AND PUSH1 0x1 PUSH1 0xA8 SHL MUL PUSH1 0x1 PUSH1 0x1 PUSH1 0xA8 SHL SUB SWAP1 SWAP2 AND OR SWAP1 SSTORE POP POP POP POP JUMP JUMPDEST PUSH1 0x0 PUSH2 0x34CB PUSH2 0x1009 JUMP JUMPDEST PUSH2 0xFFFF DUP6 AND PUSH1 0x0 SWAP1 DUP2 MSTORE PUSH1 0x20 SWAP2 SWAP1 SWAP2 MSTORE PUSH1 0x40 DUP2 KECCAK256 SLOAD PUSH1 0x1 PUSH1 0x1 PUSH1 0xA0 SHL SUB AND SWAP2 POP PUSH2 0x34F3 PUSH2 0x3A3D JUMP JUMPDEST PUSH2 0xFFFF DUP7 AND PUSH1 0x0 SWAP1 DUP2 MSTORE PUSH1 0x20 SWAP2 SWAP1 SWAP2 MSTORE PUSH1 0x40 SWAP1 DUP2 SWAP1 KECCAK256 SLOAD SWAP1 MLOAD PUSH4 0xAD1C095D PUSH1 0xE0 SHL DUP2 MSTORE PUSH1 0x1 PUSH1 0x1 PUSH1 0xA0 SHL SUB SWAP1 SWAP2 AND SWAP2 POP DUP2 SWAP1 PUSH4 0xAD1C095D SWAP1 PUSH2 0x353B SWAP1 DUP10 SWAP1 DUP8 SWAP1 PUSH1 0x4 ADD PUSH2 0x426C JUMP JUMPDEST PUSH1 0x0 PUSH1 0x40 MLOAD DUP1 DUP4 SUB DUP2 PUSH1 0x0 DUP8 DUP1 EXTCODESIZE ISZERO DUP1 ISZERO PUSH2 0x3555 JUMPI PUSH1 0x0 DUP1 REVERT JUMPDEST POP GAS CALL ISZERO DUP1 ISZERO PUSH2 0x3569 JUMPI RETURNDATASIZE PUSH1 0x0 DUP1 RETURNDATACOPY RETURNDATASIZE PUSH1 0x0 REVERT JUMPDEST POP POP PUSH1 0x40 MLOAD PUSH4 0xAD1C095D PUSH1 0xE0 SHL DUP2 MSTORE PUSH1 0x1 PUSH1 0x1 PUSH1 0xA0 SHL SUB DUP6 AND SWAP3 POP PUSH4 0xAD1C095D SWAP2 POP PUSH2 0x359B SWAP1 DUP10 SWAP1 DUP9 SWAP1 PUSH1 0x4 ADD PUSH2 0x426C JUMP JUMPDEST PUSH1 0x0 PUSH1 0x40 MLOAD DUP1 DUP4 SUB DUP2 PUSH1 0x0 DUP8 DUP1 EXTCODESIZE ISZERO DUP1 ISZERO PUSH2 0x35B5 JUMPI PUSH1 0x0 DUP1 REVERT JUMPDEST POP GAS CALL ISZERO DUP1 ISZERO PUSH2 0x35C9 JUMPI RETURNDATASIZE PUSH1 0x0 DUP1 RETURNDATACOPY RETURNDATASIZE PUSH1 0x0 REVERT JUMPDEST POP POP POP POP POP POP POP POP POP POP JUMP JUMPDEST DUP1 SLOAD PUSH1 0x2 DUP3 ADD SLOAD PUSH1 0x0 SWAP2 PUSH2 0x3617 SWAP2 PUSH1 0x1 PUSH1 0x28 SHL SWAP1 SWAP2 DIV PUSH1 0x1 PUSH1 0x1 PUSH1 0x58 SHL SUB AND SWAP1 PUSH2 0x3611 SWAP1 PUSH1 0x1 PUSH1 0x1 PUSH1 0x50 SHL SUB PUSH1 0x1 PUSH1 0x50 SHL DUP3 DIV DUP2 AND SWAP2 AND PUSH2 0x14C1 JUMP JUMPDEST SWAP1 PUSH2 0x14C1 JUMP JUMPDEST PUSH1 0x1 DUP4 ADD SLOAD PUSH1 0x2 DUP5 ADD SLOAD SWAP2 SWAP3 POP PUSH1 0x0 SWAP2 PUSH2 0x3651 SWAP2 PUSH1 0x1 PUSH1 0x1 PUSH1 0x58 SHL SUB AND SWAP1 PUSH2 0x3611 SWAP1 PUSH1 0x1 PUSH1 0x1 PUSH1 0x50 SHL SUB PUSH1 0x1 PUSH1 0xA0 SHL DUP3 DIV DUP2 AND SWAP2 AND PUSH2 0x14C1 JUMP JUMPDEST DUP4 SLOAD SWAP1 SWAP2 POP PUSH1 0x0 SWAP1 PUSH2 0x3688 SWAP1 PUSH1 0x1 PUSH1 0x1 PUSH1 0x1 PUSH1 0x58 SHL SUB PUSH1 0x1 PUSH1 0x80 SHL SWAP1 SWAP3 DIV DUP3 AND ADD AND PUSH15 0xC097CE7BC90715B34B9F1000000000 PUSH2 0x14C1 JUMP JUMPDEST SWAP1 POP DUP1 PUSH2 0x3695 DUP5 DUP5 PUSH2 0x2C08 JUMP JUMPDEST SGT ISZERO PUSH2 0xD59 JUMPI PUSH1 0x0 DUP1 REVERT JUMPDEST PUSH1 0x0 DUP1 PUSH2 0x317 PUSH1 0x7 PUSH2 0xFE3 JUMP JUMPDEST PUSH1 0x0 PUSH1 0x3 DUP4 PUSH1 0x60 ADD MLOAD PUSH1 0x5 DUP2 GT ISZERO PUSH2 0x36C1 JUMPI INVALID JUMPDEST EQ ISZERO PUSH2 0x36D8 JUMPI POP PUSH1 0x1 PUSH1 0x1 PUSH1 0xA0 SHL SUB DUP2 AND BALANCE PUSH2 0x317 JUMP JUMPDEST DUP3 MLOAD PUSH1 0x40 MLOAD PUSH4 0x70A08231 PUSH1 0xE0 SHL DUP2 MSTORE PUSH1 0x1 PUSH1 0x1 PUSH1 0xA0 SHL SUB SWAP1 SWAP2 AND SWAP1 PUSH4 0x70A08231 SWAP1 PUSH2 0x3707 SWAP1 DUP6 SWAP1 PUSH1 0x4 ADD PUSH2 0x423E JUMP JUMPDEST PUSH1 0x20 PUSH1 0x40 MLOAD DUP1 DUP4 SUB DUP2 DUP7 DUP1 EXTCODESIZE ISZERO DUP1 ISZERO PUSH2 0x371F JUMPI PUSH1 0x0 DUP1 REVERT JUMPDEST POP GAS STATICCALL ISZERO DUP1 ISZERO PUSH2 0x3733 JUMPI RETURNDATASIZE PUSH1 0x0 DUP1 RETURNDATACOPY RETURNDATASIZE PUSH1 0x0 REVERT JUMPDEST POP POP POP POP PUSH1 0x40 MLOAD RETURNDATASIZE PUSH1 0x1F NOT PUSH1 0x1F DUP3 ADD AND DUP3 ADD DUP1 PUSH1 0x40 MSTORE POP DUP2 ADD SWAP1 PUSH2 0x1944 SWAP2 SWAP1 PUSH2 0x4203 JUMP JUMPDEST PUSH1 0x0 DUP1 DUP5 PUSH1 0x1 PUSH1 0x1 PUSH1 0xA0 SHL SUB AND DUP5 DUP5 PUSH1 0x40 MLOAD DUP1 DUP3 DUP1 MLOAD SWAP1 PUSH1 0x20 ADD SWAP1 DUP1 DUP4 DUP4 JUMPDEST PUSH1 0x20 DUP4 LT PUSH2 0x3795 JUMPI DUP1 MLOAD DUP3 MSTORE PUSH1 0x1F NOT SWAP1 SWAP3 ADD SWAP2 PUSH1 0x20 SWAP2 DUP3 ADD SWAP2 ADD PUSH2 0x3776 JUMP JUMPDEST PUSH1 0x1 DUP4 PUSH1 0x20 SUB PUSH2 0x100 EXP SUB DUP1 NOT DUP3 MLOAD AND DUP2 DUP5 MLOAD AND DUP1 DUP3 OR DUP6 MSTORE POP POP POP POP POP POP SWAP1 POP ADD SWAP2 POP POP PUSH1 0x0 PUSH1 0x40 MLOAD DUP1 DUP4 SUB DUP2 DUP6 DUP8 GAS CALL SWAP3 POP POP POP RETURNDATASIZE DUP1 PUSH1 0x0 DUP2 EQ PUSH2 0x37F7 JUMPI PUSH1 0x40 MLOAD SWAP2 POP PUSH1 0x1F NOT PUSH1 0x3F RETURNDATASIZE ADD AND DUP3 ADD PUSH1 0x40 MSTORE RETURNDATASIZE DUP3 MSTORE RETURNDATASIZE PUSH1 0x0 PUSH1 0x20 DUP5 ADD RETURNDATACOPY PUSH2 0x37FC JUMP JUMPDEST PUSH1 0x60 SWAP2 POP JUMPDEST POP SWAP2 POP SWAP2 POP DUP2 PUSH2 0x380B DUP3 PUSH2 0x3A4A JUMP JUMPDEST SWAP1 PUSH2 0x31BC JUMPI PUSH1 0x40 MLOAD PUSH3 0x461BCD PUSH1 0xE5 SHL DUP2 MSTORE PUSH1 0x4 ADD DUP1 DUP1 PUSH1 0x20 ADD DUP3 DUP2 SUB DUP3 MSTORE DUP4 DUP2 DUP2 MLOAD DUP2 MSTORE PUSH1 0x20 ADD SWAP2 POP DUP1 MLOAD SWAP1 PUSH1 0x20 ADD SWAP1 DUP1 DUP4 DUP4 PUSH1 0x0 JUMPDEST DUP4 DUP2 LT ISZERO PUSH2 0x3859 JUMPI DUP2 DUP2 ADD MLOAD DUP4 DUP3 ADD MSTORE PUSH1 0x20 ADD PUSH2 0x3841 JUMP JUMPDEST POP POP POP POP SWAP1 POP SWAP1 DUP2 ADD SWAP1 PUSH1 0x1F AND DUP1 ISZERO PUSH2 0x3886 JUMPI DUP1 DUP3 SUB DUP1 MLOAD PUSH1 0x1 DUP4 PUSH1 0x20 SUB PUSH2 0x100 EXP SUB NOT AND DUP2 MSTORE PUSH1 0x20 ADD SWAP2 POP JUMPDEST POP SWAP3 POP POP POP PUSH1 0x40 MLOAD DUP1 SWAP2 SUB SWAP1 REVERT JUMPDEST PUSH1 0x0 PUSH2 0x389E PUSH2 0x2E19 JUMP JUMPDEST PUSH1 0x1 PUSH1 0x1 PUSH1 0xA0 SHL SUB DUP6 AND PUSH1 0x0 SWAP1 DUP2 MSTORE PUSH1 0x20 DUP3 SWAP1 MSTORE PUSH1 0x40 SWAP1 KECCAK256 SLOAD SWAP1 SWAP2 POP DUP4 DUP2 GT ISZERO PUSH2 0x38C7 JUMPI PUSH1 0x0 DUP1 REVERT JUMPDEST PUSH1 0x0 PUSH2 0x38DE PUSH2 0x38D5 DUP7 PUSH2 0xE2B JUMP JUMPDEST PUSH2 0x25C8 DUP7 PUSH2 0xE2B JUMP JUMPDEST SWAP1 POP PUSH2 0x38ED PUSH2 0x29B5 DUP4 DUP4 PUSH2 0x1DB0 JUMP JUMPDEST PUSH1 0x1 PUSH1 0x1 PUSH1 0xA0 SHL SUB SWAP1 SWAP7 AND PUSH1 0x0 SWAP1 DUP2 MSTORE PUSH1 0x20 SWAP4 SWAP1 SWAP4 MSTORE POP POP PUSH1 0x40 SWAP1 KECCAK256 SWAP3 SWAP1 SWAP3 SSTORE POP POP JUMP JUMPDEST PUSH1 0x0 DUP1 PUSH2 0x317 PUSH1 0x1B PUSH2 0xFE3 JUMP JUMPDEST PUSH2 0x3926 PUSH2 0x3CD0 JUMP JUMPDEST PUSH1 0x64 PUSH4 0x3B9ACA00 DUP4 PUSH1 0xFF DUP7 AND PUSH1 0x20 DUP2 LT PUSH2 0x393C JUMPI INVALID JUMPDEST BYTE MUL DUP2 PUSH2 0x3945 JUMPI INVALID JUMPDEST DIV DUP2 MSTORE PUSH1 0x64 PUSH4 0x3B9ACA00 DUP4 PUSH1 0xFF DUP7 AND PUSH1 0x1 ADD PUSH1 0x20 DUP2 LT PUSH2 0x3961 JUMPI INVALID JUMPDEST BYTE MUL DUP2 PUSH2 0x396A JUMPI INVALID JUMPDEST DIV DUP2 PUSH1 0x20 ADD DUP2 DUP2 MSTORE POP POP PUSH2 0x398F DUP3 PUSH1 0x2 DUP6 PUSH1 0xFF AND ADD PUSH1 0x20 DUP2 LT PUSH2 0x3989 JUMPI INVALID JUMPDEST BYTE PUSH2 0x3B51 JUMP JUMPDEST PUSH1 0x80 DUP3 ADD DUP2 SWAP1 MSTORE PUSH2 0x100 SWAP1 DUP4 PUSH1 0xFF DUP7 AND PUSH1 0x3 ADD PUSH1 0x20 DUP2 LT PUSH2 0x39AC JUMPI INVALID JUMPDEST BYTE MUL DUP2 PUSH2 0x39B5 JUMPI INVALID JUMPDEST DIV PUSH1 0x40 DUP3 ADD MSTORE PUSH1 0x80 DUP2 ADD MLOAD PUSH2 0x100 SWAP1 DUP4 PUSH1 0xFF DUP7 AND PUSH1 0x4 ADD PUSH1 0x20 DUP2 LT PUSH2 0x39D6 JUMPI INVALID JUMPDEST BYTE MUL DUP2 PUSH2 0x39DF JUMPI INVALID JUMPDEST DIV PUSH1 0x60 DUP3 ADD MSTORE PUSH3 0x7A120 DUP3 PUSH1 0xFF DUP6 AND PUSH1 0x5 ADD PUSH1 0x20 DUP2 LT PUSH2 0x39FB JUMPI INVALID JUMPDEST BYTE MUL PUSH1 0xA0 DUP3 ADD MSTORE PUSH3 0x2625A0 DUP3 PUSH1 0xFF DUP6 AND PUSH1 0x6 ADD PUSH1 0x20 DUP2 LT PUSH2 0x3A18 JUMPI INVALID JUMPDEST BYTE MUL PUSH1 0xC0 DUP3 ADD MSTORE DUP2 PUSH1 0xFF DUP5 AND PUSH1 0x7 ADD PUSH1 0x20 DUP2 LT PUSH2 0x3A31 JUMPI INVALID JUMPDEST BYTE PUSH1 0xE0 DUP3 ADD MSTORE SWAP3 SWAP2 POP POP JUMP JUMPDEST PUSH1 0x0 DUP1 PUSH2 0x317 PUSH1 0x22 PUSH2 0xFE3 JUMP JUMPDEST PUSH1 0x60 PUSH1 0x44 DUP3 MLOAD LT ISZERO PUSH2 0x3A80 JUMPI POP PUSH1 0x40 DUP1 MLOAD DUP1 DUP3 ADD SWAP1 SWAP2 MSTORE PUSH1 0xD DUP2 MSTORE PUSH13 0x14DA5B195B9D0814995D995C9D PUSH1 0x9A SHL PUSH1 0x20 DUP3 ADD MSTORE PUSH2 0x90B JUMP JUMPDEST PUSH1 0x4 DUP3 ADD DUP1 MLOAD SWAP1 SWAP3 PUSH1 0x24 ADD SWAP1 PUSH1 0x20 DUP2 LT ISZERO PUSH2 0x3A9A JUMPI PUSH1 0x0 DUP1 REVERT JUMPDEST DUP2 ADD SWAP1 DUP1 DUP1 MLOAD PUSH1 0x40 MLOAD SWAP4 SWAP3 SWAP2 SWAP1 DUP5 PUSH5 0x100000000 DUP3 GT ISZERO PUSH2 0x3ABA JUMPI PUSH1 0x0 DUP1 REVERT JUMPDEST SWAP1 DUP4 ADD SWAP1 PUSH1 0x20 DUP3 ADD DUP6 DUP2 GT ISZERO PUSH2 0x3ACF JUMPI PUSH1 0x0 DUP1 REVERT JUMPDEST DUP3 MLOAD PUSH5 0x100000000 DUP2 GT DUP3 DUP3 ADD DUP9 LT OR ISZERO PUSH2 0x3AE9 JUMPI PUSH1 0x0 DUP1 REVERT JUMPDEST DUP3 MSTORE POP DUP2 MLOAD PUSH1 0x20 SWAP2 DUP3 ADD SWAP3 SWAP1 SWAP2 ADD SWAP1 DUP1 DUP4 DUP4 PUSH1 0x0 JUMPDEST DUP4 DUP2 LT ISZERO PUSH2 0x3B16 JUMPI DUP2 DUP2 ADD MLOAD DUP4 DUP3 ADD MSTORE PUSH1 0x20 ADD PUSH2 0x3AFE JUMP JUMPDEST POP POP POP POP SWAP1 POP SWAP1 DUP2 ADD SWAP1 PUSH1 0x1F AND DUP1 ISZERO PUSH2 0x3B43 JUMPI DUP1 DUP3 SUB DUP1 MLOAD PUSH1 0x1 DUP4 PUSH1 0x20 SUB PUSH2 0x100 EXP SUB NOT AND DUP2 MSTORE PUSH1 0x20 ADD SWAP2 POP JUMPDEST POP PUSH1 0x40 MSTORE POP POP POP SWAP1 POP SWAP2 SWAP1 POP JUMP JUMPDEST PUSH1 0x0 DUP2 PUSH1 0xFF AND PUSH1 0x96 LT PUSH2 0x3B6C JUMPI PUSH1 0xFF DUP3 AND PUSH3 0x2625A0 MUL PUSH2 0x317 JUMP JUMPDEST POP PUSH1 0x95 NOT PUSH1 0xFF SWAP2 SWAP1 SWAP2 AND ADD PUSH3 0xE4E1C0 MUL PUSH4 0x165A0BC0 ADD SWAP1 JUMP JUMPDEST PUSH1 0x40 MLOAD DUP1 PUSH2 0x140 ADD PUSH1 0x40 MSTORE DUP1 PUSH1 0x0 PUSH2 0xFFFF AND DUP2 MSTORE PUSH1 0x20 ADD PUSH1 0x0 DUP2 MSTORE PUSH1 0x20 ADD PUSH1 0x0 DUP2 MSTORE PUSH1 0x20 ADD PUSH1 0x0 DUP2 MSTORE PUSH1 0x20 ADD PUSH1 0x0 DUP2 MSTORE PUSH1 0x20 ADD PUSH1 0x0 DUP2 MSTORE PUSH1 0x20 ADD PUSH1 0x0 DUP2 MSTORE PUSH1 0x20 ADD PUSH1 0x0 DUP2 MSTORE PUSH1 0x20 ADD PUSH1 0x0 DUP2 MSTORE PUSH1 0x20 ADD PUSH2 0x3BDC PUSH2 0x3C16 JUMP JUMPDEST SWAP1 MSTORE SWAP1 JUMP JUMPDEST PUSH1 0x40 DUP1 MLOAD PUSH1 0xC0 DUP2 ADD DUP3 MSTORE PUSH1 0x0 DUP1 DUP3 MSTORE PUSH1 0x20 DUP3 ADD DUP2 SWAP1 MSTORE SWAP2 DUP2 ADD DUP3 SWAP1 MSTORE PUSH1 0x60 DUP2 ADD DUP3 SWAP1 MSTORE PUSH1 0x80 DUP2 ADD DUP3 SWAP1 MSTORE PUSH1 0xA0 DUP2 ADD SWAP2 SWAP1 SWAP2 MSTORE SWAP1 JUMP JUMPDEST PUSH1 0x40 MLOAD DUP1 PUSH1 0x60 ADD PUSH1 0x40 MSTORE DUP1 PUSH1 0x0 DUP2 MSTORE PUSH1 0x20 ADD PUSH1 0x0 DUP2 MSTORE PUSH1 0x20 ADD PUSH1 0x0 DUP2 MSTORE POP SWAP1 JUMP JUMPDEST PUSH1 0x40 MLOAD DUP1 PUSH2 0x120 ADD PUSH1 0x40 MSTORE DUP1 PUSH1 0x0 DUP2 MSTORE PUSH1 0x20 ADD PUSH1 0x0 DUP2 MSTORE PUSH1 0x20 ADD PUSH1 0x0 DUP2 MSTORE PUSH1 0x20 ADD PUSH1 0x0 DUP2 MSTORE PUSH1 0x20 ADD PUSH1 0x0 DUP2 MSTORE PUSH1 0x20 ADD PUSH1 0x0 DUP2 MSTORE PUSH1 0x20 ADD PUSH1 0x0 DUP2 MSTORE PUSH1 0x20 ADD PUSH1 0x0 DUP2 MSTORE PUSH1 0x20 ADD PUSH1 0x0 DUP2 MSTORE POP SWAP1 JUMP JUMPDEST PUSH1 0x40 DUP1 MLOAD PUSH1 0xA0 DUP2 ADD DUP3 MSTORE PUSH1 0x0 DUP1 DUP3 MSTORE PUSH1 0x20 DUP3 ADD DUP2 SWAP1 MSTORE SWAP2 DUP2 ADD DUP3 SWAP1 MSTORE SWAP1 PUSH1 0x60 DUP3 ADD SWAP1 DUP2 MSTORE PUSH1 0x20 ADD PUSH1 0x0 DUP2 MSTORE POP SWAP1 JUMP JUMPDEST PUSH1 0x40 MLOAD DUP1 PUSH1 0x20 ADD PUSH1 0x40 MSTORE DUP1 PUSH1 0x1 SWAP1 PUSH1 0x20 DUP3 MUL DUP1 CALLDATASIZE DUP4 CALLDATACOPY POP SWAP2 SWAP3 SWAP2 POP POP JUMP JUMPDEST PUSH1 0x40 MLOAD DUP1 PUSH2 0x100 ADD PUSH1 0x40 MSTORE DUP1 PUSH1 0x0 DUP2 MSTORE PUSH1 0x20 ADD PUSH1 0x0 DUP2 MSTORE PUSH1 0x20 ADD PUSH1 0x0 DUP2 MSTORE PUSH1 0x20 ADD PUSH1 0x0 DUP2 MSTORE PUSH1 0x20 ADD PUSH1 0x0 DUP2 MSTORE PUSH1 0x20 ADD PUSH1 0x0 DUP2 MSTORE PUSH1 0x20 ADD PUSH1 0x0 DUP2 MSTORE PUSH1 0x20 ADD PUSH1 0x0 DUP2 MSTORE POP SWAP1 JUMP JUMPDEST DUP1 MLOAD PUSH2 0x90B DUP2 PUSH2 0x4468 JUMP JUMPDEST PUSH1 0x0 DUP3 PUSH1 0x1F DUP4 ADD SLT PUSH2 0x3D30 JUMPI DUP1 DUP2 REVERT JUMPDEST DUP2 MLOAD PUSH1 0x20 PUSH2 0x3D45 PUSH2 0x3D40 DUP4 PUSH2 0x444A JUMP JUMPDEST PUSH2 0x4426 JUMP JUMPDEST DUP3 DUP2 MSTORE DUP2 DUP2 ADD SWAP1 DUP6 DUP4 ADD DUP4 DUP6 MUL DUP8 ADD DUP5 ADD DUP9 LT ISZERO PUSH2 0x3D61 JUMPI DUP6 DUP7 REVERT JUMPDEST DUP6 JUMPDEST DUP6 DUP2 LT ISZERO PUSH2 0x3D88 JUMPI DUP2 MLOAD PUSH2 0x3D76 DUP2 PUSH2 0x4468 JUMP JUMPDEST DUP5 MSTORE SWAP3 DUP5 ADD SWAP3 SWAP1 DUP5 ADD SWAP1 PUSH1 0x1 ADD PUSH2 0x3D63 JUMP JUMPDEST POP SWAP1 SWAP8 SWAP7 POP POP POP POP POP POP POP JUMP JUMPDEST PUSH1 0x0 PUSH1 0x1F DUP4 DUP2 DUP5 ADD SLT PUSH2 0x3DA6 JUMPI DUP2 DUP3 REVERT JUMPDEST DUP3 MLOAD PUSH1 0x20 PUSH2 0x3DB6 PUSH2 0x3D40 DUP4 PUSH2 0x444A JUMP JUMPDEST DUP3 DUP2 MSTORE DUP2 DUP2 ADD SWAP1 DUP7 DUP4 ADD DUP7 JUMPDEST DUP6 DUP2 LT ISZERO PUSH2 0x3E5B JUMPI DUP2 MLOAD DUP10 ADD DUP11 PUSH1 0x3F DUP3 ADD SLT PUSH2 0x3DDC JUMPI DUP9 DUP10 REVERT JUMPDEST DUP6 DUP2 ADD MLOAD PUSH8 0xFFFFFFFFFFFFFFFF DUP2 GT ISZERO PUSH2 0x3DF2 JUMPI INVALID JUMPDEST PUSH2 0x3E03 DUP2 DUP11 ADD PUSH1 0x1F NOT AND DUP9 ADD PUSH2 0x4426 JUMP JUMPDEST DUP2 DUP2 MSTORE PUSH1 0x40 DUP14 DUP2 DUP5 DUP7 ADD ADD GT ISZERO PUSH2 0x3E18 JUMPI DUP12 DUP13 REVERT JUMPDEST DUP12 JUMPDEST DUP4 DUP2 LT ISZERO PUSH2 0x3E35 JUMPI DUP5 DUP2 ADD DUP3 ADD MLOAD DUP4 DUP3 ADD DUP12 ADD MSTORE DUP10 ADD PUSH2 0x3E1A JUMP JUMPDEST DUP4 DUP2 GT ISZERO PUSH2 0x3E45 JUMPI DUP13 DUP11 DUP6 DUP6 ADD ADD MSTORE JUMPDEST POP POP DUP7 MSTORE POP POP SWAP3 DUP5 ADD SWAP3 SWAP1 DUP5 ADD SWAP1 PUSH1 0x1 ADD PUSH2 0x3DC2 JUMP JUMPDEST POP SWAP1 SWAP9 SWAP8 POP POP POP POP POP POP POP POP JUMP JUMPDEST DUP1 MLOAD DUP1 ISZERO ISZERO DUP2 EQ PUSH2 0x90B JUMPI PUSH1 0x0 DUP1 REVERT JUMPDEST DUP1 MLOAD PUSH1 0x1 PUSH1 0x1 PUSH1 0x70 SHL SUB NOT DUP2 AND DUP2 EQ PUSH2 0x90B JUMPI PUSH1 0x0 DUP1 REVERT JUMPDEST DUP1 MLOAD PUSH1 0x1 PUSH1 0x1 PUSH1 0xF8 SHL SUB NOT DUP2 AND DUP2 EQ PUSH2 0x90B JUMPI PUSH1 0x0 DUP1 REVERT JUMPDEST DUP1 MLOAD PUSH2 0x90B DUP2 PUSH2 0x4480 JUMP JUMPDEST DUP1 MLOAD PUSH1 0xFF DUP2 AND DUP2 EQ PUSH2 0x90B JUMPI PUSH1 0x0 DUP1 REVERT JUMPDEST PUSH1 0x0 PUSH1 0x20 DUP3 DUP5 SUB SLT ISZERO PUSH2 0x3ED6 JUMPI DUP1 DUP2 REVERT JUMPDEST DUP2 CALLDATALOAD PUSH2 0x3D5 DUP2 PUSH2 0x4468 JUMP JUMPDEST PUSH1 0x0 DUP1 PUSH1 0x40 DUP4 DUP6 SUB SLT ISZERO PUSH2 0x3EF3 JUMPI DUP1 DUP2 REVERT JUMPDEST DUP3 CALLDATALOAD PUSH2 0x3EFE DUP2 PUSH2 0x4468 JUMP JUMPDEST SWAP5 PUSH1 0x20 SWAP4 SWAP1 SWAP4 ADD CALLDATALOAD SWAP4 POP POP POP JUMP JUMPDEST PUSH1 0x0 PUSH1 0x20 DUP1 DUP4 DUP6 SUB SLT ISZERO PUSH2 0x3F1E JUMPI DUP2 DUP3 REVERT JUMPDEST DUP3 MLOAD PUSH8 0xFFFFFFFFFFFFFFFF DUP1 DUP3 GT ISZERO PUSH2 0x3F35 JUMPI DUP4 DUP5 REVERT JUMPDEST DUP2 DUP6 ADD SWAP2 POP DUP6 PUSH1 0x1F DUP4 ADD SLT PUSH2 0x3F48 JUMPI DUP4 DUP5 REVERT JUMPDEST DUP2 MLOAD PUSH2 0x3F56 PUSH2 0x3D40 DUP3 PUSH2 0x444A JUMP JUMPDEST DUP2 DUP2 MSTORE DUP5 DUP2 ADD SWAP1 DUP5 DUP7 ADD DUP8 JUMPDEST DUP5 DUP2 LT ISZERO PUSH2 0x401C JUMPI DUP2 MLOAD DUP8 ADD PUSH1 0xA0 DUP2 DUP14 SUB PUSH1 0x1F NOT ADD SLT ISZERO PUSH2 0x3F81 JUMPI DUP10 DUP11 REVERT JUMPDEST PUSH1 0x40 DUP1 MLOAD PUSH1 0xA0 DUP2 ADD DUP2 DUP2 LT DUP11 DUP3 GT OR ISZERO PUSH2 0x3F97 JUMPI INVALID JUMPDEST DUP3 MSTORE DUP3 DUP12 ADD MLOAD DUP10 DUP2 GT ISZERO PUSH2 0x3FA9 JUMPI DUP13 DUP14 REVERT JUMPDEST PUSH2 0x3FB7 DUP16 DUP14 DUP4 DUP8 ADD ADD PUSH2 0x3D20 JUMP JUMPDEST DUP3 MSTORE POP DUP2 DUP4 ADD MLOAD DUP10 DUP2 GT ISZERO PUSH2 0x3FCA JUMPI DUP13 DUP14 REVERT JUMPDEST PUSH2 0x3FD8 DUP16 DUP14 DUP4 DUP8 ADD ADD PUSH2 0x3D95 JUMP JUMPDEST DUP13 DUP4 ADD MSTORE POP PUSH1 0x60 DUP4 ADD MLOAD DUP3 DUP3 ADD MSTORE PUSH2 0x3FF2 PUSH1 0x80 DUP5 ADD PUSH2 0x3D15 JUMP JUMPDEST PUSH1 0x60 DUP3 ADD MSTORE PUSH2 0x4003 PUSH1 0xA0 DUP5 ADD PUSH2 0x3EB4 JUMP JUMPDEST PUSH1 0x80 DUP3 ADD MSTORE DUP7 MSTORE POP POP SWAP3 DUP8 ADD SWAP3 SWAP1 DUP8 ADD SWAP1 PUSH1 0x1 ADD PUSH2 0x3F62 JUMP JUMPDEST POP SWAP1 SWAP10 SWAP9 POP POP POP POP POP POP POP POP POP JUMP JUMPDEST PUSH1 0x0 PUSH1 0xC0 DUP3 DUP5 SUB SLT ISZERO PUSH2 0x403C JUMPI DUP1 DUP2 REVERT JUMPDEST PUSH1 0x40 MLOAD PUSH1 0xC0 DUP2 ADD DUP2 DUP2 LT PUSH8 0xFFFFFFFFFFFFFFFF DUP3 GT OR ISZERO PUSH2 0x4059 JUMPI INVALID JUMPDEST PUSH1 0x40 MSTORE DUP3 MLOAD PUSH5 0xFFFFFFFFFF DUP2 AND DUP2 EQ PUSH2 0x4070 JUMPI DUP3 DUP4 REVERT JUMPDEST DUP2 MSTORE PUSH2 0x407E PUSH1 0x20 DUP5 ADD PUSH2 0x3E91 JUMP JUMPDEST PUSH1 0x20 DUP3 ADD MSTORE PUSH2 0x408F PUSH1 0x40 DUP5 ADD PUSH2 0x3EB4 JUMP JUMPDEST PUSH1 0x40 DUP3 ADD MSTORE PUSH2 0x40A0 PUSH1 0x60 DUP5 ADD PUSH2 0x3EA9 JUMP JUMPDEST PUSH1 0x60 DUP3 ADD MSTORE PUSH2 0x40B1 PUSH1 0x80 DUP5 ADD PUSH2 0x3E79 JUMP JUMPDEST PUSH1 0x80 DUP3 ADD MSTORE PUSH2 0x40C2 PUSH1 0xA0 DUP5 ADD PUSH2 0x3E69 JUMP JUMPDEST PUSH1 0xA0 DUP3 ADD MSTORE SWAP4 SWAP3 POP POP POP JUMP JUMPDEST PUSH1 0x0 DUP1 PUSH1 0x40 DUP4 DUP6 SUB SLT ISZERO PUSH2 0x40E0 JUMPI DUP2 DUP3 REVERT JUMPDEST DUP3 CALLDATALOAD PUSH2 0x40EB DUP2 PUSH2 0x4480 JUMP JUMPDEST SWAP2 POP PUSH1 0x20 DUP4 ADD CALLDATALOAD PUSH2 0x40FB DUP2 PUSH2 0x4468 JUMP JUMPDEST DUP1 SWAP2 POP POP SWAP3 POP SWAP3 SWAP1 POP JUMP JUMPDEST PUSH1 0x0 DUP1 PUSH1 0x0 PUSH1 0x60 DUP5 DUP7 SUB SLT ISZERO PUSH2 0x411A JUMPI DUP1 DUP2 REVERT JUMPDEST DUP4 CALLDATALOAD PUSH2 0x4125 DUP2 PUSH2 0x4480 JUMP JUMPDEST SWAP3 POP PUSH1 0x20 DUP5 ADD CALLDATALOAD PUSH2 0x4135 DUP2 PUSH2 0x4468 JUMP JUMPDEST SWAP2 POP PUSH1 0x40 DUP5 ADD CALLDATALOAD PUSH2 0x4145 DUP2 PUSH2 0x4468 JUMP JUMPDEST DUP1 SWAP2 POP POP SWAP3 POP SWAP3 POP SWAP3 JUMP JUMPDEST PUSH1 0x0 DUP1 PUSH1 0x0 DUP1 PUSH1 0x0 PUSH1 0xA0 DUP7 DUP9 SUB SLT ISZERO PUSH2 0x4167 JUMPI DUP3 DUP4 REVERT JUMPDEST DUP6 CALLDATALOAD PUSH2 0x4172 DUP2 PUSH2 0x4480 JUMP JUMPDEST SWAP5 POP PUSH1 0x20 DUP7 ADD CALLDATALOAD PUSH2 0x4182 DUP2 PUSH2 0x4468 JUMP JUMPDEST SWAP4 POP PUSH1 0x40 DUP7 ADD CALLDATALOAD PUSH2 0x4192 DUP2 PUSH2 0x4468 JUMP JUMPDEST SWAP3 POP PUSH1 0x60 DUP7 ADD CALLDATALOAD PUSH2 0x41A2 DUP2 PUSH2 0x4468 JUMP JUMPDEST SWAP5 SWAP8 SWAP4 SWAP7 POP SWAP2 SWAP5 PUSH1 0x80 ADD CALLDATALOAD SWAP3 SWAP2 POP POP JUMP JUMPDEST PUSH1 0x0 DUP1 PUSH1 0x0 DUP1 PUSH1 0x80 DUP6 DUP8 SUB SLT ISZERO PUSH2 0x41C8 JUMPI DUP2 DUP3 REVERT JUMPDEST DUP5 CALLDATALOAD PUSH2 0x41D3 DUP2 PUSH2 0x4480 JUMP JUMPDEST SWAP4 POP PUSH1 0x20 DUP6 ADD CALLDATALOAD PUSH2 0x41E3 DUP2 PUSH2 0x4468 JUMP JUMPDEST SWAP3 POP PUSH1 0x40 DUP6 ADD CALLDATALOAD PUSH2 0x41F3 DUP2 PUSH2 0x4468 JUMP JUMPDEST SWAP4 SWAP7 SWAP3 SWAP6 POP SWAP3 SWAP4 PUSH1 0x60 ADD CALLDATALOAD SWAP3 POP POP JUMP JUMPDEST PUSH1 0x0 PUSH1 0x20 DUP3 DUP5 SUB SLT ISZERO PUSH2 0x4214 JUMPI DUP1 DUP2 REVERT JUMPDEST POP MLOAD SWAP2 SWAP1 POP JUMP JUMPDEST PUSH1 0x0 DUP1 PUSH1 0x40 DUP4 DUP6 SUB SLT ISZERO PUSH2 0x422D JUMPI DUP2 DUP3 REVERT JUMPDEST POP POP DUP1 MLOAD PUSH1 0x20 SWAP1 SWAP2 ADD MLOAD SWAP1 SWAP3 SWAP1 SWAP2 POP JUMP JUMPDEST PUSH1 0x1 PUSH1 0x1 PUSH1 0xA0 SHL SUB SWAP2 SWAP1 SWAP2 AND DUP2 MSTORE PUSH1 0x20 ADD SWAP1 JUMP JUMPDEST PUSH1 0x1 PUSH1 0x1 PUSH1 0xA0 SHL SUB SWAP3 DUP4 AND DUP2 MSTORE SWAP2 AND PUSH1 0x20 DUP3 ADD MSTORE PUSH1 0x40 ADD SWAP1 JUMP JUMPDEST PUSH1 0x1 PUSH1 0x1 PUSH1 0xA0 SHL SUB SWAP3 SWAP1 SWAP3 AND DUP3 MSTORE PUSH1 0x20 DUP3 ADD MSTORE PUSH1 0x40 ADD SWAP1 JUMP JUMPDEST PUSH1 0x0 PUSH1 0xE0 DUP3 ADD SWAP1 POP PUSH1 0x1 DUP1 PUSH1 0xA0 SHL SUB DUP5 AND DUP3 MSTORE PUSH5 0xFFFFFFFFFF DUP4 MLOAD AND PUSH1 0x20 DUP4 ADD MSTORE PUSH1 0xFF PUSH1 0xF8 SHL PUSH1 0x20 DUP5 ADD MLOAD AND PUSH1 0x40 DUP4 ADD MSTORE PUSH1 0xFF PUSH1 0x40 DUP5 ADD MLOAD AND PUSH1 0x60 DUP4 ADD MSTORE PUSH2 0xFFFF PUSH1 0x60 DUP5 ADD MLOAD AND PUSH1 0x80 DUP4 ADD MSTORE PUSH1 0x1 PUSH1 0x1 PUSH1 0x70 SHL SUB NOT PUSH1 0x80 DUP5 ADD MLOAD AND PUSH1 0xA0 DUP4 ADD MSTORE PUSH1 0xA0 DUP4 ADD MLOAD ISZERO ISZERO PUSH1 0xC0 DUP4 ADD MSTORE SWAP4 SWAP3 POP POP POP JUMP JUMPDEST PUSH1 0x1 PUSH1 0x1 PUSH1 0xA0 SHL SUB SWAP6 SWAP1 SWAP6 AND DUP6 MSTORE PUSH2 0xFFFF SWAP4 SWAP1 SWAP4 AND PUSH1 0x20 DUP6 ADD MSTORE PUSH1 0x40 DUP5 ADD SWAP2 SWAP1 SWAP2 MSTORE PUSH1 0x60 DUP4 ADD MSTORE PUSH1 0x80 DUP3 ADD MSTORE PUSH1 0xA0 ADD SWAP1 JUMP JUMPDEST SWAP1 ISZERO ISZERO DUP2 MSTORE PUSH1 0x20 ADD SWAP1 JUMP JUMPDEST PUSH1 0x20 DUP1 DUP3 MSTORE PUSH1 0x16 SWAP1 DUP3 ADD MSTORE PUSH22 0x496E73756666696369656E7420616C6C6F77616E6365 PUSH1 0x50 SHL PUSH1 0x40 DUP3 ADD MSTORE PUSH1 0x60 ADD SWAP1 JUMP JUMPDEST PUSH1 0x20 DUP1 DUP3 MSTORE PUSH1 0x14 SWAP1 DUP3 ADD MSTORE PUSH20 0x496E73756666696369656E742062616C616E6365 PUSH1 0x60 SHL PUSH1 0x40 DUP3 ADD MSTORE PUSH1 0x60 ADD SWAP1 JUMP JUMPDEST PUSH1 0x20 DUP1 DUP3 MSTORE PUSH1 0xF SWAP1 DUP3 ADD MSTORE PUSH15 0x4E6F205072696D6520426F72726F77 PUSH1 0x88 SHL PUSH1 0x40 DUP3 ADD MSTORE PUSH1 0x60 ADD SWAP1 JUMP JUMPDEST PUSH1 0x20 DUP1 DUP3 MSTORE PUSH1 0xA SWAP1 DUP3 ADD MSTORE PUSH10 0x2732B390372A37B5B2B7 PUSH1 0xB1 SHL PUSH1 0x40 DUP3 ADD MSTORE PUSH1 0x60 ADD SWAP1 JUMP JUMPDEST PUSH1 0x20 DUP1 DUP3 MSTORE PUSH1 0xD SWAP1 DUP3 ADD MSTORE PUSH13 0x4F76657220446562742043617 PUSH1 0x9C SHL PUSH1 0x40 DUP3 ADD MSTORE PUSH1 0x60 ADD SWAP1 JUMP JUMPDEST SWAP1 DUP2 MSTORE PUSH1 0x20 ADD SWAP1 JUMP JUMPDEST SWAP3 DUP4 MSTORE PUSH1 0x20 DUP4 ADD SWAP2 SWAP1 SWAP2 MSTORE PUSH1 0x40 DUP3 ADD MSTORE PUSH1 0x60 ADD SWAP1 JUMP JUMPDEST PUSH1 0x40 MLOAD DUP2 DUP2 ADD PUSH8 0xFFFFFFFFFFFFFFFF DUP2 GT DUP3 DUP3 LT OR ISZERO PUSH2 0x4442 JUMPI INVALID JUMPDEST PUSH1 0x40 MSTORE SWAP2 SWAP1 POP JUMP JUMPDEST PUSH1 0x0 PUSH8 0xFFFFFFFFFFFFFFFF DUP3 GT ISZERO PUSH2 0x445E JUMPI INVALID JUMPDEST POP PUSH1 0x20 SWAP1 DUP2 MUL ADD SWAP1 JUMP JUMPDEST PUSH1 0x1 PUSH1 0x1 PUSH1 0xA0 SHL SUB DUP2 AND DUP2 EQ PUSH2 0x447D JUMPI PUSH1 0x0 DUP1 REVERT JUMPDEST POP JUMP JUMPDEST PUSH2 0xFFFF DUP2 AND DUP2 EQ PUSH2 0x447D JUMPI PUSH1 0x0 DUP1 REVERT INVALID LOG2 PUSH5 0x6970667358 0x22 SLT KECCAK256 DUP16 SWAP8 PUSH30 0xE2AFD3742CB8F7FBA7C2C4F9D53FD3530EA16EADB297565AB9382D055764 PUSH20 0x6F6C634300070600330000000000000000000000 ","sha1":"38939b4249d169da7b379fc2fb09c2ac04f5ef28","source":"// SPDX-License-Identifier: BSUL-1.1\npragma solidity =0.7.6;\npragma abicoder v2;\n\nimport {\n    PrimeRate,\n    BalanceState,\n    AccountContext,\n    nTokenPortfolio\n} from \"../../global/Types.sol\";\nimport {Constants} from \"../../global/Constants.sol\";\nimport {StorageLayoutV1} from \"../../global/StorageLayoutV1.sol\";\nimport {LibStorage} from \"../../global/LibStorage.sol\";\nimport {SafeInt256} from \"../../math/SafeInt256.sol\";\nimport {SafeUint256} from \"../../math/SafeUint256.sol\";\n\nimport {AccountContextHandler} from \"../../internal/AccountContextHandler.sol\";\nimport {nTokenHandler} from \"../../internal/nToken/nTokenHandler.sol\";\nimport {nTokenSupply} from \"../../internal/nToken/nTokenSupply.sol\";\nimport {nTokenCalculations} from \"../../internal/nToken/nTokenCalculations.sol\";\nimport {PrimeRateLib} from \"../../internal/pCash/PrimeRateLib.sol\";\nimport {PrimeCashExchangeRate} from \"../../internal/pCash/PrimeCashExchangeRate.sol\";\nimport {BalanceHandler} from \"../../internal/balances/BalanceHandler.sol\";\nimport {Incentives} from \"../../internal/balances/Incentives.sol\";\n\nimport {FreeCollateralExternal} from \"../FreeCollateralExternal.sol\";\nimport {SettleAssetsExternal} from \"../SettleAssetsExternal.sol\";\nimport {ActionGuards} from \"./ActionGuards.sol\";\n\nimport {nTokenERC20} from \"../../../interfaces/notional/nTokenERC20.sol\";\n\ncontract nTokenAction is StorageLayoutV1, nTokenERC20, ActionGuards {\n    using BalanceHandler for BalanceState;\n    using PrimeRateLib for PrimeRate;\n    using AccountContextHandler for AccountContext;\n    using nTokenHandler for nTokenPortfolio;\n    using SafeInt256 for int256;\n    using SafeUint256 for uint256;\n\n    /// @notice Total number of tokens in circulation\n    /// @param nTokenAddress The address of the nToken\n    /// @return totalSupply number of tokens held\n    function nTokenTotalSupply(address nTokenAddress) external view override returns (uint256 totalSupply) {\n        // prettier-ignore\n        (\n            totalSupply,\n            /* accumulatedNOTEPerNToken */,\n            /* lastAccumulatedTime */\n        ) = nTokenSupply.getStoredNTokenSupplyFactors(nTokenAddress);\n    }\n\n    /// @notice Get the number of tokens held by the `account`\n    /// @param account The address of the account to get the balance of\n    /// @return The number of tokens held\n    function nTokenBalanceOf(uint16 currencyId, address account) external view override returns (uint256) {\n        // prettier-ignore\n        (\n            /* int cashBalance */,\n            int256 nTokenBalance,\n            /* uint lastClaimTime */,\n            /* uint accountIncentiveDebt */\n        ) = BalanceHandler.getBalanceStorageView(account, currencyId, block.timestamp);\n\n        require(nTokenBalance >= 0); // dev: negative nToken balance\n        return uint256(nTokenBalance);\n    }\n\n    /// @notice Get the number of tokens `spender` is approved to spend on behalf of `account`\n    /// @param currencyId Currency id of the nToken account\n    /// @param tokenHolder The address of the account holding the funds\n    /// @param spender The address of the account spending the funds\n    /// @return The number of tokens approved\n    function nTokenTransferAllowance(\n        uint16 currencyId,\n        address tokenHolder,\n        address spender\n    ) external view override returns (uint256) {\n        // The specific allowance overrides the blanket whitelist\n        uint256 allowance = nTokenAllowance[tokenHolder][spender][currencyId];\n        if (allowance > 0) {\n            return allowance;\n        } else {\n            return nTokenWhitelist[tokenHolder][spender];\n        }\n    }\n\n    function pCashTransferAllowance(\n        uint16 currencyId,\n        address tokenHolder,\n        address spender\n    ) external view override returns (uint256) {\n        return LibStorage.getPCashTransferAllowance()[tokenHolder][spender][currencyId];\n    }\n\n    /// @notice Approve `spender` to transfer up to `amount` from `src`\n    /// @dev auth:nTokenProxy\n    /// @param currencyId Currency id of the nToken account\n    /// @param tokenHolder The address of the account holding the funds\n    /// @param spender The address of the account which may transfer tokens\n    /// @param amount The number of tokens that are approved (2^256-1 means infinite)\n    /// @return Whether or not the approval succeeded\n    function nTokenTransferApprove(\n        uint16 currencyId,\n        address tokenHolder,\n        address spender,\n        uint256 amount\n    ) external override returns (bool) {\n        address nTokenAddress = nTokenHandler.nTokenAddress(currencyId);\n        require(msg.sender == nTokenAddress);\n        require(tokenHolder != address(0));\n\n        nTokenAllowance[tokenHolder][spender][currencyId] = amount;\n        return true;\n    }\n\n    function pCashTransferApprove(\n        uint16 currencyId,\n        address tokenHolder,\n        address spender,\n        uint256 amount\n    ) external override returns (bool) {\n        address pCashAddress = PrimeCashExchangeRate.getCashProxyAddress(currencyId);\n        require(msg.sender == pCashAddress);\n        require(tokenHolder != address(0));\n\n        LibStorage.getPCashTransferAllowance()[tokenHolder][spender][currencyId] = amount;\n        return true;\n    }\n\n    /// @notice Transfer `amount` tokens from `msg.sender` to `dst`\n    /// @dev auth:nTokenProxy\n    /// @param from The address of the destination account\n    /// @param to The address of the destination account\n    /// @param amount The number of tokens to transfer\n    /// @return Whether or not the transfer succeeded\n    function nTokenTransfer(\n        uint16 currencyId,\n        address from,\n        address to,\n        uint256 amount\n    ) external override returns (bool) {\n        address nTokenAddress = nTokenHandler.nTokenAddress(currencyId);\n        require(msg.sender == nTokenAddress);\n        require(from != to);\n        requireValidAccount(to);\n\n        return _transfer(currencyId, from, to, amount, true);\n    }\n\n    function pCashTransfer(\n        uint16 currencyId,\n        address from,\n        address to,\n        uint256 amount\n    ) external override returns (bool) {\n        address pCashAddress = PrimeCashExchangeRate.getCashProxyAddress(currencyId);\n        require(msg.sender == pCashAddress);\n        require(from != to);\n        requireValidAccount(to);\n\n        return _transfer(currencyId, from, to, amount, false);\n    }\n\n    /// @notice Transfer `amount` tokens from `src` to `dst`\n    /// @dev auth:nTokenProxy\n    /// @param currencyId Currency id of the nToken\n    /// @param spender The address of the original caller\n    /// @param from The address of the source account\n    /// @param to The address of the destination account\n    /// @param amount The number of tokens to transfer\n    /// @return Whether or not the transfer succeeded\n    function nTokenTransferFrom(\n        uint16 currencyId,\n        address spender,\n        address from,\n        address to,\n        uint256 amount\n    ) external override returns (bool) {\n        address nTokenAddress = nTokenHandler.nTokenAddress(currencyId);\n        require(msg.sender == nTokenAddress);\n        require(from != to);\n        requireValidAccount(to);\n\n        uint256 allowance = nTokenAllowance[from][spender][currencyId];\n\n        if (allowance > 0) {\n            // This is the specific allowance for the nToken.\n            require(allowance >= amount, \"Insufficient allowance\");\n            // Overflow checked above\n            nTokenAllowance[from][spender][currencyId] = allowance - amount;\n        } else {\n            // This whitelist allowance works across all nTokens\n            allowance = nTokenWhitelist[from][spender];\n            require(allowance >= amount, \"Insufficient allowance\");\n            // Overflow checked above\n            nTokenWhitelist[from][spender] = allowance - amount;\n        }\n\n        return _transfer(currencyId, from, to, amount, true);\n    }\n\n    function pCashTransferFrom(\n        uint16 currencyId,\n        address spender,\n        address from,\n        address to,\n        uint256 amount\n    ) external override returns (bool) {\n        address pCashAddress = PrimeCashExchangeRate.getCashProxyAddress(currencyId);\n        require(msg.sender == pCashAddress);\n        require(from != to);\n        requireValidAccount(to);\n\n        uint256 allowance = LibStorage.getPCashTransferAllowance()[from][spender][currencyId];\n        require(allowance >= amount, \"Insufficient allowance\");\n        LibStorage.getPCashTransferAllowance()[from][spender][currencyId] = allowance - amount;\n\n        return _transfer(currencyId, from, to, amount, false);\n    }\n\n    /// @notice Will approve all nToken transfers to the specific sender. This is used for simplifying UX, a user can approve\n    /// all token transfers to an external exchange or protocol in a single txn. This must be called directly\n    /// on the Notional contract, not available via the ERC20 proxy.\n    /// @dev emit:Approval\n    /// @dev auth:msg.sender\n    /// @param spender The address of the account which may transfer tokens\n    /// @param amount The number of tokens that are approved\n    /// @return Whether or not the approval succeeded\n    function nTokenTransferApproveAll(address spender, uint256 amount) external override returns (bool) {\n        nTokenWhitelist[msg.sender][spender] = amount;\n        emit Approval(msg.sender, spender, amount);\n        return true;\n    }\n\n    /// @notice Claims incentives accrued on all nToken balances and transfers them to the msg.sender\n    /// @dev auth:msg.sender\n    /// @return Total amount of incentives claimed\n    function nTokenClaimIncentives() external override returns (uint256) {\n        address account = msg.sender;\n        AccountContext memory accountContext = AccountContextHandler.getAccountContext(account);\n        uint256 totalIncentivesClaimed = 0;\n        BalanceState memory balanceState;\n\n        if (accountContext.isBitmapEnabled()) {\n            balanceState.loadBalanceState(account, accountContext.bitmapCurrencyId, accountContext);\n            if (balanceState.storedNTokenBalance > 0) {\n                // balance state is updated inside claim incentives manual\n                totalIncentivesClaimed = balanceState.claimIncentivesManual(account);\n            }\n        }\n\n        bytes18 currencies = accountContext.activeCurrencies;\n        while (currencies != 0) {\n            uint16 currencyId = uint16(bytes2(currencies) & Constants.UNMASK_FLAGS);\n\n            balanceState.loadBalanceState(account, currencyId, accountContext);\n            if (balanceState.storedNTokenBalance > 0) {\n                // balance state is updated inside claim incentives manual\n                totalIncentivesClaimed = totalIncentivesClaimed\n                    .add(balanceState.claimIncentivesManual(account));\n            }\n\n            currencies = currencies << 16;\n        }\n\n        // NOTE: no need to set account context after claiming incentives. No currencies\n        // or fCash assets have been added or changed.\n        return totalIncentivesClaimed;\n    }\n\n    /// @notice Transferring tokens will also claim incentives at the same time\n    function _transfer(\n        uint16 currencyId,\n        address sender,\n        address recipient,\n        uint256 amount,\n        bool isNToken\n    ) internal returns (bool) {\n        // This prevents amountInt from being negative\n        int256 amountInt = amount.toInt();\n\n        AccountContext memory senderContext = AccountContextHandler.getAccountContext(sender);\n        // If sender has debt then we will check free collateral which will revert if we have not\n        // settled assets first. To prevent this we settle sender context if required.\n        if (senderContext.mustSettleAssets()) {\n            senderContext = SettleAssetsExternal.settleAccount(sender, senderContext);\n        }\n\n        BalanceState memory senderBalance;\n        senderBalance.loadBalanceState(sender, currencyId, senderContext);\n        if (isNToken) {\n            senderBalance.netNTokenTransfer = amountInt.neg();\n        } else {\n            // Do not allow debt to accrue during transfer. This would violate standard\n            // expectations around ERC20 transfers\n            require(senderBalance.storedCashBalance > 0, \"Insufficient balance\");\n            require(amountInt <= senderBalance.storedCashBalance, \"Insufficient balance\");\n            senderBalance.netCashChange = amountInt.neg();\n        }\n        senderBalance.finalizeNoWithdraw(sender, senderContext);\n        senderContext.setAccountContext(sender);\n\n        AccountContext memory recipientContext = AccountContextHandler.getAccountContext(recipient);\n        BalanceState memory recipientBalance;\n        recipientBalance.loadBalanceState(recipient, currencyId, recipientContext);\n        if (isNToken) {\n            recipientBalance.netNTokenTransfer = amountInt;\n        } else {\n            recipientBalance.netCashChange = amountInt;\n        }\n        recipientBalance.finalizeNoWithdraw(recipient, recipientContext);\n        recipientContext.setAccountContext(recipient);\n\n        // nTokens and pCash are used as collateral so we have to check the free collateral when we transfer.\n        // Only the sender needs a free collateral check, the receiver's net free collateral position will\n        // only increase\n        if (senderContext.hasDebt != 0x00) {\n            FreeCollateralExternal.checkFreeCollateralAndRevert(sender);\n        }\n\n        return true;\n    }\n\n    /// @notice Get a list of deployed library addresses (sorted by library name)\n    function getLibInfo() external pure returns (address, address) {\n        return (\n            address(FreeCollateralExternal),\n            address(SettleAssetsExternal)\n        );\n    }\n}\n","sourcePath":"contracts/external/actions/nTokenAction.sol","type":"contract","deployment":{"address":"0x14bFf9f2a16A7AeBef20d6E06c28a6aBa9CD2628","chainid":"42161","blockHeight":182815870}}