{"abi":[{"inputs":[{"internalType":"address","name":"account","type":"address"},{"components":[{"internalType":"enum DepositActionType","name":"actionType","type":"uint8"},{"internalType":"uint16","name":"currencyId","type":"uint16"},{"internalType":"uint256","name":"depositActionAmount","type":"uint256"},{"internalType":"uint256","name":"withdrawAmountInternalPrecision","type":"uint256"},{"internalType":"bool","name":"withdrawEntireCashBalance","type":"bool"},{"internalType":"bool","name":"redeemToUnderlying","type":"bool"}],"internalType":"struct BalanceAction[]","name":"actions","type":"tuple[]"}],"name":"batchBalanceAction","outputs":[],"stateMutability":"payable","type":"function"},{"inputs":[{"internalType":"address","name":"account","type":"address"},{"components":[{"internalType":"enum DepositActionType","name":"actionType","type":"uint8"},{"internalType":"uint16","name":"currencyId","type":"uint16"},{"internalType":"uint256","name":"depositActionAmount","type":"uint256"},{"internalType":"uint256","name":"withdrawAmountInternalPrecision","type":"uint256"},{"internalType":"bool","name":"withdrawEntireCashBalance","type":"bool"},{"internalType":"bool","name":"redeemToUnderlying","type":"bool"},{"internalType":"bytes32[]","name":"trades","type":"bytes32[]"}],"internalType":"struct BalanceActionWithTrades[]","name":"actions","type":"tuple[]"}],"name":"batchBalanceAndTradeAction","outputs":[],"stateMutability":"payable","type":"function"},{"inputs":[{"internalType":"address","name":"account","type":"address"},{"components":[{"internalType":"enum DepositActionType","name":"actionType","type":"uint8"},{"internalType":"uint16","name":"currencyId","type":"uint16"},{"internalType":"uint256","name":"depositActionAmount","type":"uint256"},{"internalType":"uint256","name":"withdrawAmountInternalPrecision","type":"uint256"},{"internalType":"bool","name":"withdrawEntireCashBalance","type":"bool"},{"internalType":"bool","name":"redeemToUnderlying","type":"bool"},{"internalType":"bytes32[]","name":"trades","type":"bytes32[]"}],"internalType":"struct BalanceActionWithTrades[]","name":"actions","type":"tuple[]"},{"internalType":"bytes","name":"callbackData","type":"bytes"}],"name":"batchBalanceAndTradeActionWithCallback","outputs":[],"stateMutability":"payable","type":"function"},{"inputs":[{"internalType":"address","name":"account","type":"address"},{"components":[{"internalType":"uint16","name":"currencyId","type":"uint16"},{"internalType":"bool","name":"depositUnderlying","type":"bool"},{"internalType":"bytes32[]","name":"trades","type":"bytes32[]"}],"internalType":"struct BatchLend[]","name":"actions","type":"tuple[]"}],"name":"batchLend","outputs":[],"stateMutability":"nonpayable","type":"function"},{"inputs":[],"name":"getLibInfo","outputs":[{"internalType":"address","name":"","type":"address"},{"internalType":"address","name":"","type":"address"},{"internalType":"address","name":"","type":"address"},{"internalType":"address","name":"","type":"address"},{"internalType":"address","name":"","type":"address"},{"internalType":"address","name":"","type":"address"}],"stateMutability":"pure","type":"function"},{"inputs":[],"name":"owner","outputs":[{"internalType":"address","name":"","type":"address"}],"stateMutability":"view","type":"function"},{"inputs":[],"name":"pauseGuardian","outputs":[{"internalType":"address","name":"","type":"address"}],"stateMutability":"view","type":"function"},{"inputs":[],"name":"pauseRouter","outputs":[{"internalType":"address","name":"","type":"address"}],"stateMutability":"view","type":"function"}],"bytecode":"608060405234801561001057600080fd5b50615bce80620000216000396000f3fe60806040526004361061007b5760003560e01c80636e6a32a61161004e5780636e6a32a6146100f357806382463367146101065780638da5cb5b1461011b578063c4c96dae146101305761007b565b80630276b64b1461008057806324a3d62214610095578063541f5270146100c05780635950d8e9146100e0575b600080fd5b61009361008e36600461505c565b610157565b005b3480156100a157600080fd5b506100aa6101d4565b6040516100b79190615694565b60405180910390f35b3480156100cc57600080fd5b506100936100db3660046151d6565b6101e3565b6100936100ee3660046150ae565b61056f565b610093610101366004615154565b61069f565b34801561011257600080fd5b506100aa610812565b34801561012757600080fd5b506100aa610821565b34801561013c57600080fd5b50610145610838565b6040516100b7969594939291906156f1565b6002600a54141561016757600080fd5b6002600a556001600160a01b03831633148061018257503330145b6101a75760405162461bcd60e51b815260040161019e906158b4565b60405180910390fd5b6101b0836108be565b60006101bd84848461093d565b90506101c98482610b60565b50506001600a555050565b6002546001600160a01b031681565b6002600a5414156101f357600080fd5b6002600a556001600160a01b03831633148061020e57503330145b61022a5760405162461bcd60e51b815260040161019e906158b4565b610233836108be565b600061023e84610be1565b905060006102528583604001516000610c9d565b905061025c614b87565b60005b848110156104bc573686868381811061027457fe5b90506020028101906102869190615b0d565b905081156102ef5786866001840381811061029d57fe5b90506020028101906102af9190615b0d565b6102bd9060208101906154fb565b61ffff166102ce60208301836154fb565b61ffff16116102ef5760405162461bcd60e51b815260040161019e90615948565b60006102fe6040830183615aa8565b9150508061030b57600080fd5b60005b8181101561034e5760006103256040850185615aa8565b8381811061032f57fe5b9050602002013560f81c60ff161461034657600080fd5b60010161030e565b506103698961036060208501856154fb565b86919089610d2f565b61038e8961037a60208501856154fb565b6103876040860186615aa8565b8a8a610d50565b606086018290529550600012156103a457600080fd5b60006103c96103c486606001518760200151610ef690919063ffffffff16565b610f12565b90506000811315610495576000806103f06103e760208701876154fb565b61ffff16610f20565b9050600061041661040f858a6101200151610f3390919063ffffffff16565b8390610f65565b9050610428604087016020880161531c565b156104415761043a888e836000610fa1565b9250610471565b61046e8d610466600161046061045a60208c018c6154fb565b86610ff4565b90610ef6565b8a91906110aa565b92505b838312156104915760405162461bcd60e51b815260040161019e90615a5b565b5050505b6104a0858b89611185565b84516101208601516104b1916111a3565b50505060010161025f565b506104c6836111e4565b61055857604051635c5763b360e01b815273__SettleAssetsExternal__________________90635c5763b39061050590899087908790600401615761565b60c06040518083038186803b15801561051d57600080fd5b505af4158015610531573d6000803e3d6000fd5b505050506040513d601f19601f82011682018060405250810190610555919061539e565b92505b6105628684610b60565b50506001600a5550505050565b3360009081526008602052604090205460ff1661059e5760405162461bcd60e51b815260040161019e906158b4565b6105a7856108be565b60006105b486868661093d565b90506105c081876111f1565b60405163550d065760e11b8152339063aa1a0cae906105e99083908a90889088906004016156a8565b600060405180830381600087803b15801561060357600080fd5b505af1158015610617573d6000803e3d6000fd5b5050505060208101516001600160f81b0319161561069757604051636ccc642f60e01b815273__FreeCollateralExternal________________90636ccc642f90610666908990600401615694565b60006040518083038186803b15801561067e57600080fd5b505af4158015610692573d6000803e3d6000fd5b505050505b505050505050565b6002600a5414156106af57600080fd5b6002600a556001600160a01b0383163314806106ca57503330145b6106e65760405162461bcd60e51b815260040161019e906158b4565b6106ef836108be565b60006106fa84610be1565b9050610704614b87565b60005b838110156107fb573685858381811061071c57fe5b905060c00201905060008211156107895785856001840381811061073c57fe5b905060c00201602001602081019061075491906154fb565b61ffff1661076860408301602084016154fb565b61ffff16116107895760405162461bcd60e51b815260040161019e90615948565b6107a68761079d60408401602085016154fb565b85919087610d2f565b6107c287846107b86020850185615338565b846040013561130e565b6107f287858560608501356107dd60a087016080880161531c565b6107ed60c0880160a0890161531c565b6113dc565b50600101610707565b506108068583610b60565b50506001600a55505050565b6001546001600160a01b031681565b60005464010000000090046001600160a01b031681565b73__FreeCollateralExternal________________73__MigrateIncentives_____________________73__SettleAssetsExternal__________________73__TradingAction_________________________73__nTokenMintAction______________________73__nTokenRedeemAction____________________909192939495565b6001600160a01b0381166108d157600080fd5b6001600160a01b038116610fee14156108e957600080fd5b6001600160a01b0381166105e7141561090157600080fd5b6001600160a01b03811630141561091757600080fd5b60006109228261147f565b5050505061ffff1690508060001461093957600080fd5b5050565b610945614be3565b600061095085610be1565b905061095a614b87565b600061096c8784604001516000610c9d565b905060005b85811015610ab7573687878381811061098657fe5b90506020028101906109989190615aee565b90508115610a07578787600184038181106109af57fe5b90506020028101906109c19190615aee565b6109d29060408101906020016154fb565b61ffff166109e660408301602084016154fb565b61ffff1611610a075760405162461bcd60e51b815260040161019e90615948565b610a2489610a1b60408401602085016154fb565b86919088610d2f565b610a3689856107b86020850185615338565b6000610a4560c0830183615aa8565b90501115610a93576000610a778a610a6360408501602086016154fb565b610a7060c0860186615aa8565b8a89610d50565b6060870151909550909150610a8c9082610ef6565b6060860152505b610aae89868660608501356107dd60a087016080880161531c565b50600101610971565b50610ac1836111e4565b610b5357604051635c5763b360e01b815273__SettleAssetsExternal__________________90635c5763b390610b00908a9087908690600401615761565b60c06040518083038186803b158015610b1857600080fd5b505af4158015610b2c573d6000803e3d6000fd5b505050506040513d601f19601f82011682018060405250810190610b50919061539e565b92505b50909150505b9392505050565b610b6a81836111f1565b60208101516001600160f81b0319161561093957604051636ccc642f60e01b815273__FreeCollateralExternal________________90636ccc642f90610bb5908590600401615694565b60006040518083038186803b158015610bcd57600080fd5b505af4158015610697573d6000803e3d6000fd5b610be9614be3565b6000610bf4836114e8565b9050610bff81611596565b15610c95576040516337b5fc2160e11b815273__SettleAssetsExternal__________________90636f6bf84290610c3d9086908590600401615744565b60c06040518083038186803b158015610c5557600080fd5b505af4158015610c69573d6000803e3d6000fd5b505050506040513d601f19601f82011682018060405250810190610c8d919061539e565b915050610c98565b90505b919050565b610ca5614c18565b610cad614c18565b60ff8416610cbc579050610b59565b610cc685856115e7565b815260ff84166060820152826001600160401b0381118015610ce757600080fd5b50604051908082528060200260200182016040528015610d2157816020015b610d0e614c40565b815260200190600190039081610d065790505b506020820152949350505050565b610d38826115f3565b610120850152610d4a84848484611605565b50505050565b6000610d5a614c18565b610d63846111e4565b15610e53578661ffff16846060015161ffff1614610d935760405162461bcd60e51b815260040161019e906159de565b60608401518451604051633643f39b60e01b815260009273__TradingAction_________________________92633643f39b92610dda928e9290918d908d90600401615829565b604080518083038186803b158015610df157600080fd5b505af4158015610e05573d6000803e3d6000fd5b505050506040513d601f19601f82011682018060405250810190610e29919061536f565b90935090508015610e4d57602085018051600160f81b176001600160f81b03191690525b50610eeb565b60405163b58f83ed60e01b815273__TradingAction_________________________9063b58f83ed90610e92908b908b9088908c908c906004016157b6565b60006040518083038186803b158015610eaa57600080fd5b505af4158015610ebe573d6000803e3d6000fd5b505050506040513d6000823e601f3d908101601f19168201604052610ee69190810190615440565b925090505b965096945050505050565b81810182811215600083121514610f0c57600080fd5b92915050565b6000610c95600019836116ad565b610f28614c7f565b610c958260016116fb565b6000610b596ec097ce7bc90715b34b9f1000000000610f5f8560000151856116ad90919063ffffffff16565b90611795565b60006305f5e10083604001511215610f8d57610f86600161046085856117c6565b9050610f0c565b610b5983610f9c846001610ef6565b6117c6565b600082610fb057506000610fec565b60008313610fbd57600080fd5b610fd384866000015185886101200151866117fe565b6060870151909250610fe6915082610ef6565b60608601525b949350505050565b6000806110048461ffff166118c0565b5090506000816001600160a01b0316631ee108336040518163ffffffff1660e01b8152600401602060405180830381600087803b15801561104457600080fd5b505af1158015611058573d6000803e3d6000fd5b505050506040513d601f19601f8201168201806040525081019061107c9190615357565b90506000811361108b57600080fd5b6110a181610f5f86670de0b6b3a76400006116ad565b95945050505050565b6000816110b957506000610b59565b600082136110c657600080fd5b60006110d9856000015161ffff166118f7565b80519091506001600160a01b03166110f057600080fd5b60018160600151600581111561110257fe5b148061111d575060028160600151600581111561111b57fe5b145b156111555784516101208601516111399183918690889061190a565b606086015190925061114b9083610ef6565b606086015261117d565b60048160600151600581111561116757fe5b141561007b5761117a8585856000610fa1565b91505b509392505050565b60808301511561119457600080fd5b610d4a8383836000600161199b565b6000806111b08484611b4b565b9150915081600014156111c4575050610939565b81811115610d4a5760405162461bcd60e51b815260040161019e9061588b565b6060015161ffff16151590565b60006111fb611bbc565b6001600160a01b03831660008181526020838152604080832088518154938a01518a84015160608c015160808d015160a08e015164ffffffffff1990981664ffffffffff9095169490941765ff00000000001916600160281b60f89490941c939093029290921766ff0000000000001916600160301b60ff909216919091021768ffff000000000000001916600160381b61ffff90921691909102177affffffffffffffffffffffffffffffffffff0000000000000000001916600160481b60709290921c919091021760ff60d81b1916600160d81b93151593909302929092179091555192935090917f6bd4b121bca854a191536a2ca891155c42ee2fb23f307fb34e8bc65cfcb5412e9190a2505050565b600061131982611bc9565b905060008082121561132a57600080fd5b600084600681111561133857fe5b1415611345575050610d4a565b600184600681111561135357fe5b148061136a5750600384600681111561136857fe5b145b156113815761137a8587846110aa565b90506113cf565b600284600681111561138f57fe5b14806113a6575060048460068111156113a457fe5b145b156113b85761137a8587846000610fa1565b60068460068111156113c657fe5b14156113cf5750805b6106978686868585611be3565b60006113e784611bc9565b905060008112156113f757600080fd5b845161ffff1660011461142157816114215760405162461bcd60e51b815260040161019e90615972565b8215611449576060850151602086015161143a91610ef6565b90506000811215611449575060005b61145281610f12565b60808601526114648588888515611d68565b508451610120860151611476916111a3565b50505050505050565b600080600080600080611490611d78565b6001600160a01b039097166000908152602097909752505060409094205461ffff81169563ffffffff62010000830481169650600160301b830416945060ff600160501b8304169350600160581b90910460d01b9150565b6114f0614be3565b60006114fa611bbc565b6001600160a01b03841660009081526020918252604090819020815160c081018352905464ffffffffff811682526001600160f81b0319600160281b820460f81b169382019390935260ff600160301b840481169282019290925261ffff600160381b84041660608201526001600160701b0319600160481b840460701b166080820152600160d81b90920416151560a0820152915050919050565b6000426115a2836111e4565b156115c3576115b081611d85565b835164ffffffffff16109150610c989050565b825164ffffffffff1615801590610c8d5750825164ffffffffff1611159050610c98565b606061117d8383611da3565b6115fb614cae565b610c958242611dc4565b8161ffff16600010801561161f5750613fff61ffff831611155b61162857600080fd5b61ffff821680855261163b908290611e85565b1561166a576116508383866101200151611f0f565b61010088015260e087015260408601526020850152611688565b6000602085018190526040850181905260e085018190526101008501525b50506000606083018190526080830181905260a0830181905260c09092019190915250565b8181026000198314156116dd578115806116cf5750828282816116cc57fe5b05145b6116d857600080fd5b610f0c565b8215806116f25750818382816116ef57fe5b05145b610f0c57600080fd5b611703614c7f565b600061170d611fc9565b6000858152602082815260408083208715158452825291829020825160a08101845281546001600160a01b038116825260ff600160a01b82048116151594830194909452600160b01b81048416600a0a9482019490945293945092916060830191600160a81b90910416600581111561178257fe5b8152600060209091015295945050505050565b6000816000191480156117ab5750600160ff1b83145b156117b557600080fd5b8183816117be57fe5b059392505050565b60006305f5e100836040015114156117df575080610f0c565b610b596305f5e100610f5f8560400151856116ad90919063ffffffff16565b600080600061180c86611fd6565b9050806118205760008092509250506118b6565b600061182f8861ffff16610f20565b905060038160600151600581111561184357fe5b141561188a57348210156118635761185e8983340387611fe5565b611882565b3482146118825760405162461bcd60e51b815260040161019e906158da565b8693506118a4565b6118a161189c82600001518b856120b2565b611bc9565b93505b6118b1898986848a61223a565b925050505b9550959350505050565b60008060006118cd612281565b600094855260205250506040909120546001600160a01b03811692600160a01b90910460ff169150565b6118ff614c7f565b610c958260006116fb565b600061191b866000015184866120b2565b9350600061192c8661ffff16610f20565b9050600060028860600151600581111561194257fe5b141561195c5761195561189c898861228e565b9050611982565b60018860600151600581111561196e57fe5b141561007b5761195561189c89848961233f565b61198f858883858861223a565b98975050505050505050565b6000806119b886886000015189608001518a6101200151886124ff565b915060006119d788608001518960600151610ef690919063ffffffff16565b90508380156119e65750600081125b8015611a01575060208801516000906119ff9083610ef6565b125b15611a27578560a00151611a275760405162461bcd60e51b815260040161019e9061591f565b8015611a46576020880151611a3c9082610ef6565b6020890152600191505b60a0880151151580611a5b575060c088015115155b15611abe576000611a858960c001516104608b60a001518c60400151610ef690919063ffffffff16565b90506000811215611aa85760405162461bcd60e51b815260040161019e90615a37565b611ab38989836125a2565b506040890152600191505b8115611aed57611aed8789600001518a602001518b604001518c60e001518d61010001518e6101200151612699565b87516020890151611b1a9161ffff1690151580611b0d575060408a015115155b889190600160fe1b6127d4565b600088602001511215611b4057602086018051600160f91b176001600160f81b03191690525b505095945050505050565b6000806000611b586129da565b61ffff85166000908152602091909152604090206001810154909150611b8a90600160581b900463ffffffff166129e7565b8154909350600160281b90046001600160581b0316611bb1611bac8783610f33565b611fd6565b925050509250929050565b600080610f0c60016129f5565b60006001600160ff1b03821115611bdf57600080fd5b5090565b6003836006811115611bf157fe5b1480611c0857506004836006811115611c0657fe5b145b80611c1e57506006836006811115611c1c57fe5b145b15611c4f576060840151611c329082612a0e565b606085015260405162461bcd60e51b815261019e90600401615a15565b6005836006811115611c5d57fe5b1415611d615781611c878560c001516104608760a001518860400151610ef690919063ffffffff16565b1215611ca55760405162461bcd60e51b815260040161019e906159a7565b60c0840151611cb49083612a0e565b60c08501528351604051630e22aaa360e01b815260009173__nTokenRedeemAction____________________91630e22aaa391611cf8918a91908890600401615791565b60206040518083038186803b158015611d1057600080fd5b505af4158015611d24573d6000803e3d6000fd5b505050506040513d601f19601f82011682018060405250810190611d489190615357565b6060860151909150611d5a9082610ef6565b6060860152505b5050505050565b60006110a185858585600161199b565b600080610f0c60026129f5565b600062015180821015611d9757600080fd5b50620151808106900390565b606080611db08484612a24565b9150611dbb82612b40565b90509250929050565b611dcc614cae565b6000611dd784612d00565b90508281600001511015611e1657600080611df186612dc8565b9050611dff86848388612e45565b9093509150611e0f868385612ee9565b5050611e23565b80518314611e2357600080fd5b6040518060600160405280611e4c61189c8460a001518560c0015161311d90919063ffffffff16565b8152602001611e6f61189c8460a001518560e0015161311d90919063ffffffff16565b8152602001826060015181525091505092915050565b60008115801590611e985750613fff8211155b611ea157600080fd5b6080830151606084015161ffff16831415611ec0576001915050610f0c565b6001600160701b0319811615611f055760f081901c613fff1683811415611ef25750600160fe1b908116149050610f0c565b5060101b6001600160801b031916611ec0565b5060009392505050565b6000806000806000611f1f613144565b6001600160a01b03891660009081526020828152604080832061ffff8c168452909152902080546001600160501b0381169650600160501b900463ffffffff1694509091508315611f8c578054611f8590600160701b900466ffffffffffffff166129e7565b9250611fa1565b8054600160701b900466ffffffffffffff1692505b8054611fbc908890600160a81b9004600a90810b900b613151565b9550505093509350935093565b600080610f0c60076129f5565b600080821215611bdf57600080fd5b80156120775773c02aaa39b223fe8d0a0e5c4f27ead9083c756cc26001600160a01b031663d0e30db0836040518263ffffffff1660e01b81526004016000604051808303818588803b15801561203a57600080fd5b505af115801561204e573d6000803e3d6000fd5b505050505061207273c02aaa39b223fe8d0a0e5c4f27ead9083c756cc28484613178565b6120ad565b6040516001600160a01b0384169083156108fc029084906000818181858888f19350505050158015610d4a573d6000803e3d6000fd5b505050565b600080846001600160a01b03166370a08231306040518263ffffffff1660e01b815260040180826001600160a01b0316815260200191505060206040518083038186803b15801561210257600080fd5b505afa158015612116573d6000803e3d6000fd5b505050506040513d602081101561212c57600080fd5b5051604080516323b872dd60e01b81526001600160a01b038781166004830152306024830152604482018790529151929350908716916323b872dd9160648082019260009290919082900301818387803b15801561218957600080fd5b505af115801561219d573d6000803e3d6000fd5b505050506121a96131eb565b6000856001600160a01b03166370a08231306040518263ffffffff1660e01b815260040180826001600160a01b0316815260200191505060206040518083038186803b1580156121f857600080fd5b505afa15801561220c573d6000803e3d6000fd5b505050506040513d602081101561222257600080fd5b505190506122308183613258565b9695505050505050565b600080612247848661326d565b9050612253838261329d565b91506122608787846132bf565b61226b868383613349565b8351612277908661344d565b5095945050505050565b600080610f0c600f6129f5565b815160405163db006a7560e01b8152600091479183916001600160a01b03169063db006a75906122c2908790600401615a89565b602060405180830381600087803b1580156122dc57600080fd5b505af11580156122f0573d6000803e3d6000fd5b505050506040513d601f19601f820116820180604052508101906123149190615357565b905080156123345760405162461bcd60e51b815260040161019e906158ff565b476122308184613258565b60008083600001516001600160a01b03166370a08231306040518263ffffffff1660e01b81526004016123729190615694565b60206040518083038186803b15801561238a57600080fd5b505afa15801561239e573d6000803e3d6000fd5b505050506040513d601f19601f820116820180604052508101906123c29190615357565b9050600085600001516001600160a01b031663db006a75856040518263ffffffff1660e01b81526004016123f69190615a89565b602060405180830381600087803b15801561241057600080fd5b505af1158015612424573d6000803e3d6000fd5b505050506040513d601f19601f820116820180604052508101906124489190615357565b905080156124685760405162461bcd60e51b815260040161019e906158ff565b84516040516370a0823160e01b81526000916001600160a01b0316906370a0823190612498903090600401615694565b60206040518083038186803b1580156124b057600080fd5b505afa1580156124c4573d6000803e3d6000fd5b505050506040513d601f19601f820116820180604052508101906124e89190615357565b90506124f48184613258565b979650505050505050565b60008361250e575060006110a1565b6000841261251b57600080fd5b600061252a8661ffff16610f20565b905061253a81610f9c8688610f33565b9150600061254783610f12565b90506125548783836134a2565b60038260600151600581111561256657fe5b141561257c57612577888286611fe5565b612589565b8151612589908983613178565b612596888885858961223a565b50505095945050505050565b8251600090429082906125b89061ffff16613590565b905060006125c5826135b6565b5050905060006125da838960c0015186613612565b90506125e8888483896136f5565b945060006125f584613822565b90506001600160a01b0381161561267d57806001600160a01b0316633f3ef50d898b600001516126288d60400151611fd6565b8b886040518663ffffffff1660e01b815260040161264a9594939291906157f7565b600060405180830381600087803b15801561266457600080fd5b505af1158015612678573d6000803e3d6000fd5b505050505b851561268d5761268d8887613894565b50505050509392505050565b60006126a3613144565b6001600160a01b03891660009081526020828152604080832061ffff8c16845290915290209091508461270b5766ffffffffffffff8411156126e457600080fd5b805466ffffffffffffff60701b1916600160701b66ffffffffffffff861602178155612725565b8054600160501b900463ffffffff16851461272557600080fd5b61272e856138b3565b815463ffffffff91909116600160501b0263ffffffff60501b1990911617815561275f61275a87611fd6565b6138c6565b815469ffffffffffffffffffff19166001600160501b0391909116178082556127a5906127a09085908c908c90600160a81b9004600a90810b900b8c6138dc565b6138ff565b8154600a9190910b6001600160581b0316600160a81b026001600160a81b039091161790555050505050505050565b8260001080156127e65750613fff8311155b6127ef57600080fd5b818015612803575082846060015161ffff16145b1561280d57610d4a565b6080840151600090815b6001600160701b031982161561298f5760f082901c613fff16868114801561283c5750855b1561287457506080870180516001600160f01b0319861660109093029290921c919091176001600160701b031916905250610d4a9050565b8681148015612881575085155b156128dd576001600160f01b03198516199290921691600360fe1b83166128bb576010836dffffffffffffffffffffffffffff1916901b92505b506001600160701b031991821660109091021c91909117166080850152610d4a565b86811180156128e95750855b15612943576080888101516001600160f01b031960f08a901b88178116601086021c9690961795911b161561291d57600080fd5b506001600160701b03199182166001919091016010021c91909117166080850152610d4a565b8681118015612950575085155b1561295e5750505050610d4a565b506001600160f01b0319821660108281029190911c93909317929190911b6001600160801b03191690600101612817565b8461299c57505050610d4a565b600981106129a957600080fd5b6001600160f01b031960f087901b85171660109091021c919091176001600160701b03191660808601525050505050565b600080610f0c601d6129f5565b600881901c60ff9091161b90565b6000620f4240826026811115612a0757fe5b0192915050565b80820382811315600083121514610f0c57600080fd5b606060088260ff161115612a3757600080fd5b6000612a41613931565b6001600160a01b038516600090815260208290526040812091925060ff85166001600160401b0381118015612a7557600080fd5b50604051908082528060200260200182016040528015612aaf57816020015b612a9c614c40565b815260200190600190039081612a945790505b50905060005b8560ff16811015612277576000838260088110612ace57fe5b0190506000838381518110612adf57fe5b602090810291909101810151835461ffff8116825264ffffffffff620100008204169282019290925260ff600160381b830416604082015268010000000000000000909104600a90810b900b60608201526080019190915250600101612ab5565b8051606090806001600160401b0381118015612b5b57600080fd5b50604051908082528060200260200182016040528015612b85578160200160208202803683370190505b50915060005b81811015612be2576000848281518110612ba157fe5b60200260200101519050612bc281600001518260200151836040015161393e565b848381518110612bce57fe5b602090810291909101015250600101612b8b565b5060015b81811015612cf957805b600081118015612c285750838181518110612c0757fe5b6020026020010151846001830381518110612c1e57fe5b6020026020010151115b15612cf057838181518110612c3957fe5b6020026020010151846001830381518110612c5057fe5b6020026020010151856001840381518110612c6757fe5b60200260200101868481518110612c7a57fe5b6020026020010182815250828152505050848181518110612c9757fe5b6020026020010151856001830381518110612cae57fe5b6020026020010151866001840381518110612cc557fe5b60200260200101878481518110612cd857fe5b60209081029190910101919091525260001901612bf0565b50600101612be6565b5050919050565b612d08614ccf565b6000612d126129da565b61ffff93841660009081526020918252604090819020805464ffffffffff81168652600160281b81046001600160581b03908116948701949094526001820154841692860192909252600160d81b820463ffffffff166060860152600160801b9091049091166080840152600201546001600160501b0380821660a0850152600160501b8204811660c0850152600160a01b82041660e0840152600160f01b900460ff1661012c02909216610100820152919050565b600080612dd483613967565b6001600160a01b031663ef81f2166040518163ffffffff1660e01b81526004016040805180830381600087803b158015612e0d57600080fd5b505af1158015612e21573d6000803e3d6000fd5b505050506040513d601f19601f82011682018060405250810190610fec9190615517565b612e4d614ccf565b6000806000612e5d888689613997565b60c08b019290925260e08a019290925260208901519193509150612e819083613aa2565b6020880152608087015160009015612eaf576080880151612eac90612ea68982613258565b90613ab4565b90505b612ecf612ec4670de0b6b3a764000083613aa2565b60a08a015190613ad1565b60a089015250506080860194909452505082529092909150565b6000612ef36129da565b60008561ffff1681526020019081526020016000209050612f178260000151613aee565b815464ffffffffff191664ffffffffff9190911617815560a0820151612f3c906138c6565b60028201805469ffffffffffffffffffff19166001600160501b039290921691909117905560c0820151612f6f906138c6565b81600201600a6101000a8154816001600160501b0302191690836001600160501b03160217905550612fa48260e001516138c6565b8160020160146101000a8154816001600160501b0302191690836001600160501b03160217905550612fd98260200151613b02565b81546001600160581b0391909116600160281b026fffffffffffffffffffffff000000000019909116178155604082015161301390613b02565b6001820180546affffffffffffffffffffff19166001600160581b0392909216919091179055608082015161304790613b02565b81546001600160581b0391909116600160801b026affffffffffffffffffffff60801b19909116178155606082015161307f906138b3565b815463ffffffff91909116600160d81b0263ffffffff60d81b1990911617815582156130cb5760006130b084611bc9565b90506130bc8582613b18565b6130c9610fee86836132bf565b505b8361ffff167fef25641e225e493886510ca1ad6584fa7b442b9fea820a29d1de3ce27d270fd28360a001518460c001518560e0015160405161310f93929190615a92565b60405180910390a250505050565b60008261312c57506000610f0c565b8282028284828161313957fe5b0414610b5957600080fd5b600080610f0c60066129f5565b6000808212613161575080610f0c565b82516020840151610f869190610f5f9085906116ad565b826001600160a01b031663a9059cbb83836040518363ffffffff1660e01b815260040180836001600160a01b0316815260200182815260200192505050600060405180830381600087803b1580156131cf57600080fd5b505af11580156131e3573d6000803e3d6000fd5b505050506120ad5b60006131f5614d1b565b3d8015613209576020811461321257600080fd5b6001925061321d565b60206000833e815192505b5081610939576040805162461bcd60e51b8152602060048201526005602482015264045524332360dc1b604482015290519081900360640190fd5b60008282111561326757600080fd5b50900390565b60006305f5e10083604001511415613286575080610f0c565b6040830151610b5990610f5f846305f5e1006116ad565b8151600090610b5990610f5f846ec097ce7bc90715b34b9f10000000006116ad565b60006132c9613b4f565b61ffff8416600090815260209190915260409081902054905163ad1c095d60e01b81526001600160a01b039091169150819063ad1c095d90613311908790869060040161572b565b600060405180830381600087803b15801561332b57600080fd5b505af115801561333f573d6000803e3d6000fd5b5050505050505050565b60006133536129da565b61ffff8516600090815260209190915260409020805490915064ffffffffff16421461337e57600080fd5b805460009061339d90600160281b90046001600160581b031685610ef6565b82549091506000906133bf90600160801b90046001600160581b031685610ef6565b905080624c4b4013156133d157600080fd5b6133e26133dd82611fd6565b613b02565b83546001600160581b0391909116600160801b026affffffffffffffffffffff60801b199091161783556134186133dd83611fd6565b83546001600160581b0391909116600160281b026fffffffffffffffffffffff00000000001990911617835561069783613b5c565b6000613457613c27565b6001600160a01b038416600090815260208290526040902054909150613480611bac8285610ef6565b6001600160a01b03909416600090815260209290925250604090209190915550565b60006134ac613c27565b83516001600160a01b03166000908152602082905260409020549091508083116134d75750506120ad565b60006134e286613967565b90506000816001600160a01b031663b5e4da238487036040518263ffffffff1660e01b81526004016135149190615a89565b60006040518083038186803b15801561352c57600080fd5b505afa158015613540573d6000803e3d6000fd5b505050506040513d6000823e601f3d908101601f19168201604052613568919081019061520f565b905060006135768783613c34565b915061358490508482613aa2565b86111561333f57600080fd5b60008061359b613e4b565b6000938452602052505060409020546001600160a01b031690565b6000806000806135c4613e58565b6001600160a01b0395909516600090815260209590955250506040909220546001600160601b03811693600160601b82046001600160801b03169350600160e01b90910463ffffffff169150565b60008060006136218685613e65565b50915091506000613630613e58565b6001600160a01b03881660009081526020829052604081209192506136558589610ef6565b90508060001315801561366e57506001600160601b0381105b61367757600080fd5b81546bffffffffffffffffffffffff19166001600160601b038216176fffffffffffffffffffffffffffffffff60601b1916600160601b6001600160801b0386160217825563ffffffff87106136cc57600080fd5b50805463ffffffff8716600160e01b026001600160e01b03909116179055509150509392505050565b60e0840151600090156137b65773__MigrateIncentives_____________________63e0c01a728561372a8860400151611fd6565b8860e001518961010001516040518563ffffffff1660e01b81526004016137549493929190615865565b60206040518083038186803b15801561376c57600080fd5b505af4158015613780573d6000803e3d6000fd5b505050506040513d601f19601f820116820180604052508101906137a49190615357565b600060e0870181905261010087015290505b6137f86137f18661010001516137eb670de0b6b3a76400006137e5886137df8c60400151611fd6565b9061311d565b90613efb565b90613258565b8290613aa2565b9050613810670de0b6b3a76400006137e5848661311d565b85610100018181525050949350505050565b60008061382d611d78565b6001600160a01b0384166000908152602082905260409020805491925090600160f81b900460ff161561388957613862613f1a565b6001600160a01b038086166000908152602092909252604090912054169250610c98915050565b600092505050610c98565b61093973cfeaead4947f0705a14ec42ac3d44129e1ef3ed58383613178565b600063ffffffff821115611bdf57600080fd5b60006001600160501b03821115611bdf57600080fd5b60006138e88683613f27565b90506110a18686866138fa8786613f66565b613fed565b60006a7fffffffffffffffffffff19821280159061392857506a7fffffffffffffffffffff8213155b611bdf57600080fd5b600080610f0c600d6129f5565b67ffff000000000000603084901b1665ffffffffff00600884901b161760ff8216179392505050565b60008061397261401a565b61ffff939093166000908152602093909352505060409020546001600160a01b031690565b6000806000806000806139aa8988614027565b895190955091935091506000906139d1906139c6908b90613258565b633b9aca009061311d565b9050613a0b613a006301da9c006139e8858561311d565b816139ef57fe5b670de0b6b3a7640000919004613aa2565b60e08a015190613ad1565b9650613a2d613a226301da9c006139e8878561311d565b60c08a015190613ad1565b955081831415613a44575060009350613a99915050565b6000613a66613a5b6301da9c006139e8878661311d565b60e08b015190613ad1565b90506000613a748983613258565b9050613a91886137e5838d6040015161311d90919063ffffffff16565b965050505050505b93509350935093565b600082820183811015610b5957600080fd5b6000610b59613acb84670de0b6b3a764000061311d565b83613efb565b6000610b59613ae0848461311d565b670de0b6b3a7640000613efb565b600064ffffffffff821115611bdf57600080fd5b60006001600160581b03821115611bdf57600080fd5b6000811215613b2657600080fd5b6000613b34610fee846140c1565b9050613b408183610ef6565b90506120ad610fee848361411a565b600080610f0c60216129f5565b80546002820154600091613b9e91600160281b9091046001600160581b031690613b98906001600160501b03600160501b8204811691166116ad565b906116ad565b60018301546002840154919250600091613bd8916001600160581b031690613b98906001600160501b03600160a01b8204811691166116ad565b8354909150600090613c0f9060016001600160581b03600160801b909204821601166ec097ce7bc90715b34b9f10000000006116ad565b905080613c1c8484612a0e565b1315610d4a57600080fd5b600080610f0c60266129f5565b60008060005b8351811015613e43576000848281518110613c5157fe5b60200260200101519050600081606001516001600160a01b03166370a08231306040518263ffffffff1660e01b8152600401613c8d9190615694565b60206040518083038186803b158015613ca557600080fd5b505afa158015613cb9573d6000803e3d6000fd5b505050506040513d601f19601f82011682018060405250810190613cdd9190615357565b90506000613ceb883061418e565b905060005b835151811015613d4757613d3684600001518281518110613d0d57fe5b6020026020010151600086602001518481518110613d2757fe5b60200260200101516001614238565b613d3f57600196505b600101613cf0565b506000613d54893061418e565b90506000613d628284613258565b90508085604001511115613d7557600080fd5b60608501516040516370a0823160e01b81526000916001600160a01b0316906370a0823190613da8903090600401615694565b60206040518083038186803b158015613dc057600080fd5b505afa158015613dd4573d6000803e3d6000fd5b505050506040513d601f19601f82011682018060405250810190613df89190615357565b905084811115613e0757600080fd5b613e16866060015186836144a6565b613e208883613aa2565b9750613e318b6000015185856144a6565b505060019094019350613c3a92505050565b509250929050565b600080610f0c60036129f5565b600080610f0c60116129f5565b6000806000613e73856135b6565b919450925090508084118015613e895750600081115b8015613e955750600083115b15613ef4576000613ea58661147f565b5050509150506000613ed0613ec76305f5e1008461311d90919063ffffffff16565b84880387614523565b9050613edc8482613aa2565b93506001600160801b038410613ef157600080fd5b50505b9250925092565b6000808211613f0957600080fd5b818381613f1257fe5b049392505050565b600080610f0c60126129f5565b600080821215613f6057613f5b6001613f558560200151610f5f8760000151876116ad90919063ffffffff16565b90612a0e565b610b59565b50919050565b600081831480613f83575060008312158015613f83575060008212155b15613f9057506000610f0c565b60008313158015613fa15750816000125b15613fad575081610f0c565b60008213158015613fbe5750826000125b15613fcc57610f8682610f12565b60008313158015613fde575060008213155b1561007b57610f868383612a0e565b8015610d4a578351602085015160009161400c91610f5f9085906116ad565b9050611d6184848484614545565b600080610f0c601f6129f5565b600080600080600085602001511115614074576140716140588660c00151876020015161311d90919063ffffffff16565b60e0870151604088015161406b9161311d565b90614682565b90505b600061407f87614695565b905061408b81836146c8565b945081156140a25761409f81866001614781565b93505b602086015115613ef1576140b685836147f2565b925050509250925092565b6000806140cc613144565b6001600160a01b03851660009081526020828152604080832061ffff8816845290915281208054600160a81b9004600a90810b900b945091925083121561411257600080fd5b505092915050565b600081121561412857600080fd5b6000614132613144565b6001600160a01b03851660009081526020828152604080832061ffff881684529091529020909150614163836138ff565b8154600a9190910b6001600160581b0316600160a81b026001600160a81b0390911617905550505050565b60006003836060015160058111156141a257fe5b14156141b957506001600160a01b03811631610f0c565b82516040516370a0823160e01b81526001600160a01b03909116906370a08231906141e8908590600401615694565b60206040518083038186803b15801561420057600080fd5b505afa158015614214573d6000803e3d6000fd5b505050506040513d601f19601f82011682018060405250810190610f869190615357565b6000806000866001600160a01b031686866040518082805190602001908083835b602083106142785780518252601f199092019160209182019101614259565b6001836020036101000a03801982511681845116808217855250505050505090500191505060006040518083038185875af1925050503d80600081146142da576040519150601f19603f3d011682016040523d82523d6000602084013e6142df565b606091505b50915091508361438257816142f38261480b565b9061437c5760405162461bcd60e51b81526004018080602001828103825283818151815260200191508051906020019080838360005b83811015614341578181015183820152602001614329565b50505050905090810190601f16801561436e5780820380516001836020036101000a031916815260200191505b509250505060405180910390fd5b50612277565b866001600160a01b03167f3c7e398c5e91088cae639370e35b25ea669d81fbdf0def5388e73661bc34e08e87876143b88561480b565b604051808481526020018060200180602001838103835285818151815260200191508051906020019080838360005b838110156143ff5781810151838201526020016143e7565b50505050905090810190601f16801561442c5780820380516001836020036101000a031916815260200191505b50838103825284518152845160209182019186019080838360005b8381101561445f578181015183820152602001614447565b50505050905090810190601f16801561448c5780820380516001836020036101000a031916815260200191505b509550505050505060405180910390a25095945050505050565b60006144b0613c27565b6001600160a01b038516600090815260208290526040902054909150838111156144d957600080fd5b60006144f06144e786611bc9565b613f5586611bc9565b90506144ff611bac8383610ef6565b6001600160a01b039096166000908152602093909352505060409020929092555050565b6000610fec826137e56301da9c0081886137df89670de0b6b3a764000061311d565b600061454f6129da565b61ffff8516600090815260209190915260409020805490915064ffffffffff16421461457a57600080fd5b8054600160f81b900460ff1661458f57600080fd5b60018101546000906145aa906001600160581b031685610ef6565b82549091506000906145cc90600160281b90046001600160581b031685610ef6565b9050816009191280156145df5750600082125b156145e957600091505b806009191280156145fa5750600081125b15614603575060005b61460f6133dd83611fd6565b6001840180546affffffffffffffffffffff19166001600160581b03929092169190911790556146416133dd82611fd6565b83546001600160581b0391909116600160281b026fffffffffffffffffffffff00000000001990911617835561467987878688614912565b61147683613b5c565b6000610b59613acb84633b9aca0061311d565b61469d614d39565b60006146a7614a1a565b61ffff8416600090815260209190915260408120549150610b599082614a27565b6000808360800151116146da57600080fd5b633b9aca008211156146eb57600080fd5b8251821161470a5782516040840151610f8691906137e590859061311d565b82602001518211614748576040830151835160208501516060860151610f86939261474292819003916137e59188039085900361311d565b90613aa2565b610b5983606001516147428560200151633b9aca00036137e587606001518860800151038860200151880361311d90919063ffffffff16565b6000806147a060646137e58760e001518761311d90919063ffffffff16565b90508460a001518110156147b5575060a08401515b8460c001518111156147c8575060c08401515b82156147d85761117a8482613aa2565b8381116147e75780840361117a565b600095945050505050565b6000610b59614801848461311d565b633b9aca00613efb565b6060604482511015614841575060408051808201909152600d81526c14da5b195b9d0814995d995c9d609a1b6020820152610c98565b600482018051909260240190602081101561485b57600080fd5b810190808051604051939291908464010000000082111561487b57600080fd5b90830190602082018581111561489057600080fd5b82516401000000008111828201881017156148aa57600080fd5b82525081516020918201929091019080838360005b838110156148d75781810151838201526020016148bf565b50505050905090810190601f1680156149045780820380516001836020036101000a031916815260200191505b506040525050509050919050565b600061491c613b4f565b61ffff8516600090815260209190915260408120546001600160a01b03169150614944614b46565b61ffff8616600090815260209190915260409081902054905163ad1c095d60e01b81526001600160a01b039091169150819063ad1c095d9061498c908990879060040161572b565b600060405180830381600087803b1580156149a657600080fd5b505af11580156149ba573d6000803e3d6000fd5b505060405163ad1c095d60e01b81526001600160a01b038516925063ad1c095d91506149ec908990889060040161572b565b600060405180830381600087803b158015614a0657600080fd5b505af1158015610692573d6000803e3d6000fd5b600080610f0c601b6129f5565b614a2f614d39565b6064633b9aca008360ff861660208110614a4557fe5b1a0281614a4e57fe5b0481526064633b9aca008360ff861660010160208110614a6a57fe5b1a0281614a7357fe5b04816020018181525050614a988260028560ff160160208110614a9257fe5b1a614b53565b60808201819052610100908360ff861660030160208110614ab557fe5b1a0281614abe57fe5b0460408201526080810151610100908360ff861660040160208110614adf57fe5b1a0281614ae857fe5b0460608201526207a1208260ff851660050160208110614b0457fe5b1a0260a0820152622625a08260ff851660060160208110614b2157fe5b1a0260c08201528160ff841660070160208110614b3a57fe5b1a60e082015292915050565b600080610f0c60226129f5565b60008160ff16609610614b6e5760ff8216622625a002610c95565b5060951960ff919091160162e4e1c00263165a0bc00190565b604051806101400160405280600061ffff1681526020016000815260200160008152602001600081526020016000815260200160008152602001600081526020016000815260200160008152602001614bde614cae565b905290565b6040805160c081018252600080825260208201819052918101829052606081018290526080810182905260a081019190915290565b6040518060800160405280606081526020016060815260200160008152602001600081525090565b6040518060c00160405280600061ffff1681526020016000815260200160008152602001600081526020016000815260200160006003811115614bde57fe5b6040805160a0810182526000808252602082018190529181018290529060608201908152602001600081525090565b60405180606001604052806000815260200160008152602001600081525090565b6040518061012001604052806000815260200160008152602001600081526020016000815260200160008152602001600081526020016000815260200160008152602001600081525090565b60405180602001604052806001906020820280368337509192915050565b60405180610100016040528060008152602001600081526020016000815260200160008152602001600081526020016000815260200160008152602001600081525090565b8051610c9881615b62565b600082601f830112614d99578081fd5b81516020614dae614da983615b45565b615b22565b8281528181019085830183850287018401881015614dca578586fd5b855b85811015614df1578151614ddf81615b62565b84529284019290840190600101614dcc565b5090979650505050505050565b6000601f8381840112614e0f578182fd5b82516020614e1f614da983615b45565b82815281810190868301865b85811015614ec357815189018a603f820112614e45578889fd5b858101516001600160401b03811115614e5a57fe5b614e6b818a01601f19168801615b22565b81815260408d81848601011115614e80578b8cfd5b8b5b83811015614e9d578481018201518382018b01528901614e82565b83811115614ead578c8a85850101525b5050865250509284019290840190600101614e2b565b509098975050505050505050565b60008083601f840112614ee2578182fd5b5081356001600160401b03811115614ef8578182fd5b6020830191508360208083028501011115614f1257600080fd5b9250929050565b600082601f830112614f29578081fd5b81516020614f39614da983615b45565b8281528181019085830160c080860288018501891015614f57578687fd5b865b86811015614fe85781838b031215614f6f578788fd5b604080518381018181106001600160401b0382111715614f8b57fe5b82528451614f9881615b88565b815284880151888201528185015191810191909152606080850151908201526080808501519082015260a090614fcf828601615031565b9181019190915285529385019391810191600101614f59565b509198975050505050505050565b8051610c9881615b7a565b80516001600160701b031981168114610c9857600080fd5b80516001600160f81b031981168114610c9857600080fd5b805160048110610c9857600080fd5b8051610c9881615b88565b805160ff81168114610c9857600080fd5b600080600060408486031215615070578283fd5b833561507b81615b62565b925060208401356001600160401b03811115615095578283fd5b6150a186828701614ed1565b9497909650939450505050565b6000806000806000606086880312156150c5578283fd5b85356150d081615b62565b945060208601356001600160401b03808211156150eb578485fd5b6150f789838a01614ed1565b9096509450604088013591508082111561510f578283fd5b818801915088601f830112615122578283fd5b813581811115615130578384fd5b896020828501011115615141578384fd5b9699959850939650602001949392505050565b600080600060408486031215615168578081fd5b833561517381615b62565b925060208401356001600160401b038082111561518e578283fd5b818601915086601f8301126151a1578283fd5b8135818111156151af578384fd5b87602060c0830285010111156151c3578384fd5b6020830194508093505050509250925092565b6000806000604084860312156151ea578081fd5b83356151f581615b62565b925060208401356001600160401b03811115615095578182fd5b60006020808385031215615221578182fd5b82516001600160401b0380821115615237578384fd5b818501915085601f83011261524a578384fd5b8151615258614da982615b45565b81815284810190848601875b8481101561530d57815187016080818d03601f1901121561528357898afd5b60408051608081018181108a8211171561529957fe5b8252828b0151898111156152ab578c8dfd5b6152b98f8d83870101614d89565b82525081830151898111156152cc578c8dfd5b6152da8f8d83870101614dfe565b8c830152506060830151828201526152f460808401614d7e565b6060820152865250509287019290870190600101615264565b50909998505050505050505050565b60006020828403121561532d578081fd5b8135610b5981615b7a565b600060208284031215615349578081fd5b813560078110610b59578182fd5b600060208284031215615368578081fd5b5051919050565b60008060408385031215615381578182fd5b82519150602083015161539381615b7a565b809150509250929050565b600060c082840312156153af578081fd5b60405160c081018181106001600160401b03821117156153cb57fe5b604052825164ffffffffff811681146153e2578283fd5b81526153f060208401615019565b60208201526154016040840161504b565b604082015261541260608401615040565b606082015261542360808401615001565b608082015261543460a08401614ff6565b60a08201529392505050565b60008060408385031215615452578182fd5b82516001600160401b0380821115615468578384fd5b908401906080828703121561547b578384fd5b60405160808101818110838211171561549057fe5b6040528251828111156154a1578586fd5b6154ad88828601614f19565b8252506020830151828111156154c1578586fd5b6154cd88828601614f19565b6020830152506040830151604082015260608301516060820152809450505050602083015190509250929050565b60006020828403121561550c578081fd5b8135610b5981615b88565b60008060408385031215615529578182fd5b505080516020909101519092909150565b81835260006001600160fb1b03831115615552578081fd5b6020830280836020870137939093016020019283525090919050565b6000815180845260208085019450808401835b838110156155df578151805161ffff168852838101518489015260408082015190890152606080820151908901526080808201519089015260a09081015190600482106155ca57fe5b88015260c09096019590820190600101615581565b509495945050505050565b805164ffffffffff1682526020808201516001600160f81b0319169083015260408082015160ff169083015260608082015161ffff16908301526080808201516001600160701b0319169083015260a0908101511515910152565b600081516080845261565a608085018261556e565b905060208301518482036020860152615673828261556e565b91505060408301516040850152606083015160608501528091505092915050565b6001600160a01b0391909116815260200190565b6001600160a01b038581168252841660208201526060604082018190528101829052600082846080840137818301608090810191909152601f909201601f191601019392505050565b6001600160a01b0396871681529486166020860152928516604085015290841660608401528316608083015290911660a082015260c00190565b6001600160a01b03929092168252602082015260400190565b6001600160a01b038316815260e08101610b5960208301846155ea565b6001600160a01b0384168152600061010061577f60208401866155ea565b8060e084015261223081840185615645565b6001600160a01b0393909316835261ffff919091166020830152604082015260600190565b6001600160a01b038616815261ffff851660208201526080604082018190526000906157e490830186615645565b828103606084015261198f81858761553a565b6001600160a01b0395909516855261ffff93909316602085015260408401919091526060830152608082015260a00190565b6001600160a01b038616815261ffff8516602082015264ffffffffff841660408201526080606082018190526000906124f4908301848661553a565b6001600160a01b0394909416845260208401929092526040830152606082015260800190565b6020808252600f908201526e04f76657220537570706c792043617608c1b604082015260600190565b6020808252600c908201526b155b985d5d1a1bdc9a5e995960a21b604082015260600190565b6020808252600b908201526a4554482042616c616e636560a81b604082015260600190565b60208082526006908201526552656465656d60d01b604082015260600190565b6020808252600f908201526e4e6f205072696d6520426f72726f7760881b604082015260600190565b60208082526010908201526f556e736f7274656420616374696f6e7360801b604082015260600190565b6020808252818101527f446570726563617465643a20526564656d7074696f6e20746f2063546f6b656e604082015260600190565b6020808252601a908201527f496e73756666696369656e7420746f6b656e2062616c616e6365000000000000604082015260600190565b6020808252601a908201527f496e76616c69642074726164657320666f72206163636f756e74000000000000604082015260600190565b602080825260089082015267111a5cd8589b195960c21b604082015260600190565b6020808252600a90820152692732b390372a37b5b2b760b11b604082015260600190565b602080825260149082015273125b9cdd59999a58da595b9d0819195c1bdcda5d60621b604082015260600190565b90815260200190565b9283526020830191909152604082015260600190565b6000808335601e19843603018112615abe578283fd5b8301803591506001600160401b03821115615ad7578283fd5b6020908101925081023603821315614f1257600080fd5b6000823560de19833603018112615b03578182fd5b9190910192915050565b60008235605e19833603018112615b03578182fd5b6040518181016001600160401b0381118282101715615b3d57fe5b604052919050565b60006001600160401b03821115615b5857fe5b5060209081020190565b6001600160a01b0381168114615b7757600080fd5b50565b8015158114615b7757600080fd5b61ffff81168114615b7757600080fdfea26469706673582212203cc49d13976097b951053e791e3fef03744e573cae90f5442a2c9771c59b5be564736f6c63430007060033","bytecodeSha1":"99fa2560fd1096474ccaaa54a524fd19070136c6","compiler":{"evm_version":"istanbul","optimizer":{"enabled":true,"runs":200},"version":"0.7.6+commit.7338295f"},"contractName":"BatchAction","deployedBytecode":"60806040526004361061007b5760003560e01c80636e6a32a61161004e5780636e6a32a6146100f357806382463367146101065780638da5cb5b1461011b578063c4c96dae146101305761007b565b80630276b64b1461008057806324a3d62214610095578063541f5270146100c05780635950d8e9146100e0575b600080fd5b61009361008e36600461505c565b610157565b005b3480156100a157600080fd5b506100aa6101d4565b6040516100b79190615694565b60405180910390f35b3480156100cc57600080fd5b506100936100db3660046151d6565b6101e3565b6100936100ee3660046150ae565b61056f565b610093610101366004615154565b61069f565b34801561011257600080fd5b506100aa610812565b34801561012757600080fd5b506100aa610821565b34801561013c57600080fd5b50610145610838565b6040516100b7969594939291906156f1565b6002600a54141561016757600080fd5b6002600a556001600160a01b03831633148061018257503330145b6101a75760405162461bcd60e51b815260040161019e906158b4565b60405180910390fd5b6101b0836108be565b60006101bd84848461093d565b90506101c98482610b60565b50506001600a555050565b6002546001600160a01b031681565b6002600a5414156101f357600080fd5b6002600a556001600160a01b03831633148061020e57503330145b61022a5760405162461bcd60e51b815260040161019e906158b4565b610233836108be565b600061023e84610be1565b905060006102528583604001516000610c9d565b905061025c614b87565b60005b848110156104bc573686868381811061027457fe5b90506020028101906102869190615b0d565b905081156102ef5786866001840381811061029d57fe5b90506020028101906102af9190615b0d565b6102bd9060208101906154fb565b61ffff166102ce60208301836154fb565b61ffff16116102ef5760405162461bcd60e51b815260040161019e90615948565b60006102fe6040830183615aa8565b9150508061030b57600080fd5b60005b8181101561034e5760006103256040850185615aa8565b8381811061032f57fe5b9050602002013560f81c60ff161461034657600080fd5b60010161030e565b506103698961036060208501856154fb565b86919089610d2f565b61038e8961037a60208501856154fb565b6103876040860186615aa8565b8a8a610d50565b606086018290529550600012156103a457600080fd5b60006103c96103c486606001518760200151610ef690919063ffffffff16565b610f12565b90506000811315610495576000806103f06103e760208701876154fb565b61ffff16610f20565b9050600061041661040f858a6101200151610f3390919063ffffffff16565b8390610f65565b9050610428604087016020880161531c565b156104415761043a888e836000610fa1565b9250610471565b61046e8d610466600161046061045a60208c018c6154fb565b86610ff4565b90610ef6565b8a91906110aa565b92505b838312156104915760405162461bcd60e51b815260040161019e90615a5b565b5050505b6104a0858b89611185565b84516101208601516104b1916111a3565b50505060010161025f565b506104c6836111e4565b61055857604051635c5763b360e01b815273__$f6541b0d362a0c7d99a2a29cd3d373d61b$__90635c5763b39061050590899087908790600401615761565b60c06040518083038186803b15801561051d57600080fd5b505af4158015610531573d6000803e3d6000fd5b505050506040513d601f19601f82011682018060405250810190610555919061539e565b92505b6105628684610b60565b50506001600a5550505050565b3360009081526008602052604090205460ff1661059e5760405162461bcd60e51b815260040161019e906158b4565b6105a7856108be565b60006105b486868661093d565b90506105c081876111f1565b60405163550d065760e11b8152339063aa1a0cae906105e99083908a90889088906004016156a8565b600060405180830381600087803b15801561060357600080fd5b505af1158015610617573d6000803e3d6000fd5b5050505060208101516001600160f81b0319161561069757604051636ccc642f60e01b815273__$841fddfe32830bb6dbc3a02d7f16c53722$__90636ccc642f90610666908990600401615694565b60006040518083038186803b15801561067e57600080fd5b505af4158015610692573d6000803e3d6000fd5b505050505b505050505050565b6002600a5414156106af57600080fd5b6002600a556001600160a01b0383163314806106ca57503330145b6106e65760405162461bcd60e51b815260040161019e906158b4565b6106ef836108be565b60006106fa84610be1565b9050610704614b87565b60005b838110156107fb573685858381811061071c57fe5b905060c00201905060008211156107895785856001840381811061073c57fe5b905060c00201602001602081019061075491906154fb565b61ffff1661076860408301602084016154fb565b61ffff16116107895760405162461bcd60e51b815260040161019e90615948565b6107a68761079d60408401602085016154fb565b85919087610d2f565b6107c287846107b86020850185615338565b846040013561130e565b6107f287858560608501356107dd60a087016080880161531c565b6107ed60c0880160a0890161531c565b6113dc565b50600101610707565b506108068583610b60565b50506001600a55505050565b6001546001600160a01b031681565b60005464010000000090046001600160a01b031681565b73__$841fddfe32830bb6dbc3a02d7f16c53722$__73__$b21a4dc043b77aa57922ad9143a3cb040e$__73__$f6541b0d362a0c7d99a2a29cd3d373d61b$__73__$7ac922d04bd7a1b42c7f6e5f1dd89a70af$__73__$892f367d396be2b92d3b049e6e62920984$__73__$43fd92ea4ea9b72ca0014644dbfd757564$__909192939495565b6001600160a01b0381166108d157600080fd5b6001600160a01b038116610fee14156108e957600080fd5b6001600160a01b0381166105e7141561090157600080fd5b6001600160a01b03811630141561091757600080fd5b60006109228261147f565b5050505061ffff1690508060001461093957600080fd5b5050565b610945614be3565b600061095085610be1565b905061095a614b87565b600061096c8784604001516000610c9d565b905060005b85811015610ab7573687878381811061098657fe5b90506020028101906109989190615aee565b90508115610a07578787600184038181106109af57fe5b90506020028101906109c19190615aee565b6109d29060408101906020016154fb565b61ffff166109e660408301602084016154fb565b61ffff1611610a075760405162461bcd60e51b815260040161019e90615948565b610a2489610a1b60408401602085016154fb565b86919088610d2f565b610a3689856107b86020850185615338565b6000610a4560c0830183615aa8565b90501115610a93576000610a778a610a6360408501602086016154fb565b610a7060c0860186615aa8565b8a89610d50565b6060870151909550909150610a8c9082610ef6565b6060860152505b610aae89868660608501356107dd60a087016080880161531c565b50600101610971565b50610ac1836111e4565b610b5357604051635c5763b360e01b815273__$f6541b0d362a0c7d99a2a29cd3d373d61b$__90635c5763b390610b00908a9087908690600401615761565b60c06040518083038186803b158015610b1857600080fd5b505af4158015610b2c573d6000803e3d6000fd5b505050506040513d601f19601f82011682018060405250810190610b50919061539e565b92505b50909150505b9392505050565b610b6a81836111f1565b60208101516001600160f81b0319161561093957604051636ccc642f60e01b815273__$841fddfe32830bb6dbc3a02d7f16c53722$__90636ccc642f90610bb5908590600401615694565b60006040518083038186803b158015610bcd57600080fd5b505af4158015610697573d6000803e3d6000fd5b610be9614be3565b6000610bf4836114e8565b9050610bff81611596565b15610c95576040516337b5fc2160e11b815273__$f6541b0d362a0c7d99a2a29cd3d373d61b$__90636f6bf84290610c3d9086908590600401615744565b60c06040518083038186803b158015610c5557600080fd5b505af4158015610c69573d6000803e3d6000fd5b505050506040513d601f19601f82011682018060405250810190610c8d919061539e565b915050610c98565b90505b919050565b610ca5614c18565b610cad614c18565b60ff8416610cbc579050610b59565b610cc685856115e7565b815260ff84166060820152826001600160401b0381118015610ce757600080fd5b50604051908082528060200260200182016040528015610d2157816020015b610d0e614c40565b815260200190600190039081610d065790505b506020820152949350505050565b610d38826115f3565b610120850152610d4a84848484611605565b50505050565b6000610d5a614c18565b610d63846111e4565b15610e53578661ffff16846060015161ffff1614610d935760405162461bcd60e51b815260040161019e906159de565b60608401518451604051633643f39b60e01b815260009273__$7ac922d04bd7a1b42c7f6e5f1dd89a70af$__92633643f39b92610dda928e9290918d908d90600401615829565b604080518083038186803b158015610df157600080fd5b505af4158015610e05573d6000803e3d6000fd5b505050506040513d601f19601f82011682018060405250810190610e29919061536f565b90935090508015610e4d57602085018051600160f81b176001600160f81b03191690525b50610eeb565b60405163b58f83ed60e01b815273__$7ac922d04bd7a1b42c7f6e5f1dd89a70af$__9063b58f83ed90610e92908b908b9088908c908c906004016157b6565b60006040518083038186803b158015610eaa57600080fd5b505af4158015610ebe573d6000803e3d6000fd5b505050506040513d6000823e601f3d908101601f19168201604052610ee69190810190615440565b925090505b965096945050505050565b81810182811215600083121514610f0c57600080fd5b92915050565b6000610c95600019836116ad565b610f28614c7f565b610c958260016116fb565b6000610b596ec097ce7bc90715b34b9f1000000000610f5f8560000151856116ad90919063ffffffff16565b90611795565b60006305f5e10083604001511215610f8d57610f86600161046085856117c6565b9050610f0c565b610b5983610f9c846001610ef6565b6117c6565b600082610fb057506000610fec565b60008313610fbd57600080fd5b610fd384866000015185886101200151866117fe565b6060870151909250610fe6915082610ef6565b60608601525b949350505050565b6000806110048461ffff166118c0565b5090506000816001600160a01b0316631ee108336040518163ffffffff1660e01b8152600401602060405180830381600087803b15801561104457600080fd5b505af1158015611058573d6000803e3d6000fd5b505050506040513d601f19601f8201168201806040525081019061107c9190615357565b90506000811361108b57600080fd5b6110a181610f5f86670de0b6b3a76400006116ad565b95945050505050565b6000816110b957506000610b59565b600082136110c657600080fd5b60006110d9856000015161ffff166118f7565b80519091506001600160a01b03166110f057600080fd5b60018160600151600581111561110257fe5b148061111d575060028160600151600581111561111b57fe5b145b156111555784516101208601516111399183918690889061190a565b606086015190925061114b9083610ef6565b606086015261117d565b60048160600151600581111561116757fe5b141561007b5761117a8585856000610fa1565b91505b509392505050565b60808301511561119457600080fd5b610d4a8383836000600161199b565b6000806111b08484611b4b565b9150915081600014156111c4575050610939565b81811115610d4a5760405162461bcd60e51b815260040161019e9061588b565b6060015161ffff16151590565b60006111fb611bbc565b6001600160a01b03831660008181526020838152604080832088518154938a01518a84015160608c015160808d015160a08e015164ffffffffff1990981664ffffffffff9095169490941765ff00000000001916600160281b60f89490941c939093029290921766ff0000000000001916600160301b60ff909216919091021768ffff000000000000001916600160381b61ffff90921691909102177affffffffffffffffffffffffffffffffffff0000000000000000001916600160481b60709290921c919091021760ff60d81b1916600160d81b93151593909302929092179091555192935090917f6bd4b121bca854a191536a2ca891155c42ee2fb23f307fb34e8bc65cfcb5412e9190a2505050565b600061131982611bc9565b905060008082121561132a57600080fd5b600084600681111561133857fe5b1415611345575050610d4a565b600184600681111561135357fe5b148061136a5750600384600681111561136857fe5b145b156113815761137a8587846110aa565b90506113cf565b600284600681111561138f57fe5b14806113a6575060048460068111156113a457fe5b145b156113b85761137a8587846000610fa1565b60068460068111156113c657fe5b14156113cf5750805b6106978686868585611be3565b60006113e784611bc9565b905060008112156113f757600080fd5b845161ffff1660011461142157816114215760405162461bcd60e51b815260040161019e90615972565b8215611449576060850151602086015161143a91610ef6565b90506000811215611449575060005b61145281610f12565b60808601526114648588888515611d68565b508451610120860151611476916111a3565b50505050505050565b600080600080600080611490611d78565b6001600160a01b039097166000908152602097909752505060409094205461ffff81169563ffffffff62010000830481169650600160301b830416945060ff600160501b8304169350600160581b90910460d01b9150565b6114f0614be3565b60006114fa611bbc565b6001600160a01b03841660009081526020918252604090819020815160c081018352905464ffffffffff811682526001600160f81b0319600160281b820460f81b169382019390935260ff600160301b840481169282019290925261ffff600160381b84041660608201526001600160701b0319600160481b840460701b166080820152600160d81b90920416151560a0820152915050919050565b6000426115a2836111e4565b156115c3576115b081611d85565b835164ffffffffff16109150610c989050565b825164ffffffffff1615801590610c8d5750825164ffffffffff1611159050610c98565b606061117d8383611da3565b6115fb614cae565b610c958242611dc4565b8161ffff16600010801561161f5750613fff61ffff831611155b61162857600080fd5b61ffff821680855261163b908290611e85565b1561166a576116508383866101200151611f0f565b61010088015260e087015260408601526020850152611688565b6000602085018190526040850181905260e085018190526101008501525b50506000606083018190526080830181905260a0830181905260c09092019190915250565b8181026000198314156116dd578115806116cf5750828282816116cc57fe5b05145b6116d857600080fd5b610f0c565b8215806116f25750818382816116ef57fe5b05145b610f0c57600080fd5b611703614c7f565b600061170d611fc9565b6000858152602082815260408083208715158452825291829020825160a08101845281546001600160a01b038116825260ff600160a01b82048116151594830194909452600160b01b81048416600a0a9482019490945293945092916060830191600160a81b90910416600581111561178257fe5b8152600060209091015295945050505050565b6000816000191480156117ab5750600160ff1b83145b156117b557600080fd5b8183816117be57fe5b059392505050565b60006305f5e100836040015114156117df575080610f0c565b610b596305f5e100610f5f8560400151856116ad90919063ffffffff16565b600080600061180c86611fd6565b9050806118205760008092509250506118b6565b600061182f8861ffff16610f20565b905060038160600151600581111561184357fe5b141561188a57348210156118635761185e8983340387611fe5565b611882565b3482146118825760405162461bcd60e51b815260040161019e906158da565b8693506118a4565b6118a161189c82600001518b856120b2565b611bc9565b93505b6118b1898986848a61223a565b925050505b9550959350505050565b60008060006118cd612281565b600094855260205250506040909120546001600160a01b03811692600160a01b90910460ff169150565b6118ff614c7f565b610c958260006116fb565b600061191b866000015184866120b2565b9350600061192c8661ffff16610f20565b9050600060028860600151600581111561194257fe5b141561195c5761195561189c898861228e565b9050611982565b60018860600151600581111561196e57fe5b141561007b5761195561189c89848961233f565b61198f858883858861223a565b98975050505050505050565b6000806119b886886000015189608001518a6101200151886124ff565b915060006119d788608001518960600151610ef690919063ffffffff16565b90508380156119e65750600081125b8015611a01575060208801516000906119ff9083610ef6565b125b15611a27578560a00151611a275760405162461bcd60e51b815260040161019e9061591f565b8015611a46576020880151611a3c9082610ef6565b6020890152600191505b60a0880151151580611a5b575060c088015115155b15611abe576000611a858960c001516104608b60a001518c60400151610ef690919063ffffffff16565b90506000811215611aa85760405162461bcd60e51b815260040161019e90615a37565b611ab38989836125a2565b506040890152600191505b8115611aed57611aed8789600001518a602001518b604001518c60e001518d61010001518e6101200151612699565b87516020890151611b1a9161ffff1690151580611b0d575060408a015115155b889190600160fe1b6127d4565b600088602001511215611b4057602086018051600160f91b176001600160f81b03191690525b505095945050505050565b6000806000611b586129da565b61ffff85166000908152602091909152604090206001810154909150611b8a90600160581b900463ffffffff166129e7565b8154909350600160281b90046001600160581b0316611bb1611bac8783610f33565b611fd6565b925050509250929050565b600080610f0c60016129f5565b60006001600160ff1b03821115611bdf57600080fd5b5090565b6003836006811115611bf157fe5b1480611c0857506004836006811115611c0657fe5b145b80611c1e57506006836006811115611c1c57fe5b145b15611c4f576060840151611c329082612a0e565b606085015260405162461bcd60e51b815261019e90600401615a15565b6005836006811115611c5d57fe5b1415611d615781611c878560c001516104608760a001518860400151610ef690919063ffffffff16565b1215611ca55760405162461bcd60e51b815260040161019e906159a7565b60c0840151611cb49083612a0e565b60c08501528351604051630e22aaa360e01b815260009173__$43fd92ea4ea9b72ca0014644dbfd757564$__91630e22aaa391611cf8918a91908890600401615791565b60206040518083038186803b158015611d1057600080fd5b505af4158015611d24573d6000803e3d6000fd5b505050506040513d601f19601f82011682018060405250810190611d489190615357565b6060860151909150611d5a9082610ef6565b6060860152505b5050505050565b60006110a185858585600161199b565b600080610f0c60026129f5565b600062015180821015611d9757600080fd5b50620151808106900390565b606080611db08484612a24565b9150611dbb82612b40565b90509250929050565b611dcc614cae565b6000611dd784612d00565b90508281600001511015611e1657600080611df186612dc8565b9050611dff86848388612e45565b9093509150611e0f868385612ee9565b5050611e23565b80518314611e2357600080fd5b6040518060600160405280611e4c61189c8460a001518560c0015161311d90919063ffffffff16565b8152602001611e6f61189c8460a001518560e0015161311d90919063ffffffff16565b8152602001826060015181525091505092915050565b60008115801590611e985750613fff8211155b611ea157600080fd5b6080830151606084015161ffff16831415611ec0576001915050610f0c565b6001600160701b0319811615611f055760f081901c613fff1683811415611ef25750600160fe1b908116149050610f0c565b5060101b6001600160801b031916611ec0565b5060009392505050565b6000806000806000611f1f613144565b6001600160a01b03891660009081526020828152604080832061ffff8c168452909152902080546001600160501b0381169650600160501b900463ffffffff1694509091508315611f8c578054611f8590600160701b900466ffffffffffffff166129e7565b9250611fa1565b8054600160701b900466ffffffffffffff1692505b8054611fbc908890600160a81b9004600a90810b900b613151565b9550505093509350935093565b600080610f0c60076129f5565b600080821215611bdf57600080fd5b80156120775773c02aaa39b223fe8d0a0e5c4f27ead9083c756cc26001600160a01b031663d0e30db0836040518263ffffffff1660e01b81526004016000604051808303818588803b15801561203a57600080fd5b505af115801561204e573d6000803e3d6000fd5b505050505061207273c02aaa39b223fe8d0a0e5c4f27ead9083c756cc28484613178565b6120ad565b6040516001600160a01b0384169083156108fc029084906000818181858888f19350505050158015610d4a573d6000803e3d6000fd5b505050565b600080846001600160a01b03166370a08231306040518263ffffffff1660e01b815260040180826001600160a01b0316815260200191505060206040518083038186803b15801561210257600080fd5b505afa158015612116573d6000803e3d6000fd5b505050506040513d602081101561212c57600080fd5b5051604080516323b872dd60e01b81526001600160a01b038781166004830152306024830152604482018790529151929350908716916323b872dd9160648082019260009290919082900301818387803b15801561218957600080fd5b505af115801561219d573d6000803e3d6000fd5b505050506121a96131eb565b6000856001600160a01b03166370a08231306040518263ffffffff1660e01b815260040180826001600160a01b0316815260200191505060206040518083038186803b1580156121f857600080fd5b505afa15801561220c573d6000803e3d6000fd5b505050506040513d602081101561222257600080fd5b505190506122308183613258565b9695505050505050565b600080612247848661326d565b9050612253838261329d565b91506122608787846132bf565b61226b868383613349565b8351612277908661344d565b5095945050505050565b600080610f0c600f6129f5565b815160405163db006a7560e01b8152600091479183916001600160a01b03169063db006a75906122c2908790600401615a89565b602060405180830381600087803b1580156122dc57600080fd5b505af11580156122f0573d6000803e3d6000fd5b505050506040513d601f19601f820116820180604052508101906123149190615357565b905080156123345760405162461bcd60e51b815260040161019e906158ff565b476122308184613258565b60008083600001516001600160a01b03166370a08231306040518263ffffffff1660e01b81526004016123729190615694565b60206040518083038186803b15801561238a57600080fd5b505afa15801561239e573d6000803e3d6000fd5b505050506040513d601f19601f820116820180604052508101906123c29190615357565b9050600085600001516001600160a01b031663db006a75856040518263ffffffff1660e01b81526004016123f69190615a89565b602060405180830381600087803b15801561241057600080fd5b505af1158015612424573d6000803e3d6000fd5b505050506040513d601f19601f820116820180604052508101906124489190615357565b905080156124685760405162461bcd60e51b815260040161019e906158ff565b84516040516370a0823160e01b81526000916001600160a01b0316906370a0823190612498903090600401615694565b60206040518083038186803b1580156124b057600080fd5b505afa1580156124c4573d6000803e3d6000fd5b505050506040513d601f19601f820116820180604052508101906124e89190615357565b90506124f48184613258565b979650505050505050565b60008361250e575060006110a1565b6000841261251b57600080fd5b600061252a8661ffff16610f20565b905061253a81610f9c8688610f33565b9150600061254783610f12565b90506125548783836134a2565b60038260600151600581111561256657fe5b141561257c57612577888286611fe5565b612589565b8151612589908983613178565b612596888885858961223a565b50505095945050505050565b8251600090429082906125b89061ffff16613590565b905060006125c5826135b6565b5050905060006125da838960c0015186613612565b90506125e8888483896136f5565b945060006125f584613822565b90506001600160a01b0381161561267d57806001600160a01b0316633f3ef50d898b600001516126288d60400151611fd6565b8b886040518663ffffffff1660e01b815260040161264a9594939291906157f7565b600060405180830381600087803b15801561266457600080fd5b505af1158015612678573d6000803e3d6000fd5b505050505b851561268d5761268d8887613894565b50505050509392505050565b60006126a3613144565b6001600160a01b03891660009081526020828152604080832061ffff8c16845290915290209091508461270b5766ffffffffffffff8411156126e457600080fd5b805466ffffffffffffff60701b1916600160701b66ffffffffffffff861602178155612725565b8054600160501b900463ffffffff16851461272557600080fd5b61272e856138b3565b815463ffffffff91909116600160501b0263ffffffff60501b1990911617815561275f61275a87611fd6565b6138c6565b815469ffffffffffffffffffff19166001600160501b0391909116178082556127a5906127a09085908c908c90600160a81b9004600a90810b900b8c6138dc565b6138ff565b8154600a9190910b6001600160581b0316600160a81b026001600160a81b039091161790555050505050505050565b8260001080156127e65750613fff8311155b6127ef57600080fd5b818015612803575082846060015161ffff16145b1561280d57610d4a565b6080840151600090815b6001600160701b031982161561298f5760f082901c613fff16868114801561283c5750855b1561287457506080870180516001600160f01b0319861660109093029290921c919091176001600160701b031916905250610d4a9050565b8681148015612881575085155b156128dd576001600160f01b03198516199290921691600360fe1b83166128bb576010836dffffffffffffffffffffffffffff1916901b92505b506001600160701b031991821660109091021c91909117166080850152610d4a565b86811180156128e95750855b15612943576080888101516001600160f01b031960f08a901b88178116601086021c9690961795911b161561291d57600080fd5b506001600160701b03199182166001919091016010021c91909117166080850152610d4a565b8681118015612950575085155b1561295e5750505050610d4a565b506001600160f01b0319821660108281029190911c93909317929190911b6001600160801b03191690600101612817565b8461299c57505050610d4a565b600981106129a957600080fd5b6001600160f01b031960f087901b85171660109091021c919091176001600160701b03191660808601525050505050565b600080610f0c601d6129f5565b600881901c60ff9091161b90565b6000620f4240826026811115612a0757fe5b0192915050565b80820382811315600083121514610f0c57600080fd5b606060088260ff161115612a3757600080fd5b6000612a41613931565b6001600160a01b038516600090815260208290526040812091925060ff85166001600160401b0381118015612a7557600080fd5b50604051908082528060200260200182016040528015612aaf57816020015b612a9c614c40565b815260200190600190039081612a945790505b50905060005b8560ff16811015612277576000838260088110612ace57fe5b0190506000838381518110612adf57fe5b602090810291909101810151835461ffff8116825264ffffffffff620100008204169282019290925260ff600160381b830416604082015268010000000000000000909104600a90810b900b60608201526080019190915250600101612ab5565b8051606090806001600160401b0381118015612b5b57600080fd5b50604051908082528060200260200182016040528015612b85578160200160208202803683370190505b50915060005b81811015612be2576000848281518110612ba157fe5b60200260200101519050612bc281600001518260200151836040015161393e565b848381518110612bce57fe5b602090810291909101015250600101612b8b565b5060015b81811015612cf957805b600081118015612c285750838181518110612c0757fe5b6020026020010151846001830381518110612c1e57fe5b6020026020010151115b15612cf057838181518110612c3957fe5b6020026020010151846001830381518110612c5057fe5b6020026020010151856001840381518110612c6757fe5b60200260200101868481518110612c7a57fe5b6020026020010182815250828152505050848181518110612c9757fe5b6020026020010151856001830381518110612cae57fe5b6020026020010151866001840381518110612cc557fe5b60200260200101878481518110612cd857fe5b60209081029190910101919091525260001901612bf0565b50600101612be6565b5050919050565b612d08614ccf565b6000612d126129da565b61ffff93841660009081526020918252604090819020805464ffffffffff81168652600160281b81046001600160581b03908116948701949094526001820154841692860192909252600160d81b820463ffffffff166060860152600160801b9091049091166080840152600201546001600160501b0380821660a0850152600160501b8204811660c0850152600160a01b82041660e0840152600160f01b900460ff1661012c02909216610100820152919050565b600080612dd483613967565b6001600160a01b031663ef81f2166040518163ffffffff1660e01b81526004016040805180830381600087803b158015612e0d57600080fd5b505af1158015612e21573d6000803e3d6000fd5b505050506040513d601f19601f82011682018060405250810190610fec9190615517565b612e4d614ccf565b6000806000612e5d888689613997565b60c08b019290925260e08a019290925260208901519193509150612e819083613aa2565b6020880152608087015160009015612eaf576080880151612eac90612ea68982613258565b90613ab4565b90505b612ecf612ec4670de0b6b3a764000083613aa2565b60a08a015190613ad1565b60a089015250506080860194909452505082529092909150565b6000612ef36129da565b60008561ffff1681526020019081526020016000209050612f178260000151613aee565b815464ffffffffff191664ffffffffff9190911617815560a0820151612f3c906138c6565b60028201805469ffffffffffffffffffff19166001600160501b039290921691909117905560c0820151612f6f906138c6565b81600201600a6101000a8154816001600160501b0302191690836001600160501b03160217905550612fa48260e001516138c6565b8160020160146101000a8154816001600160501b0302191690836001600160501b03160217905550612fd98260200151613b02565b81546001600160581b0391909116600160281b026fffffffffffffffffffffff000000000019909116178155604082015161301390613b02565b6001820180546affffffffffffffffffffff19166001600160581b0392909216919091179055608082015161304790613b02565b81546001600160581b0391909116600160801b026affffffffffffffffffffff60801b19909116178155606082015161307f906138b3565b815463ffffffff91909116600160d81b0263ffffffff60d81b1990911617815582156130cb5760006130b084611bc9565b90506130bc8582613b18565b6130c9610fee86836132bf565b505b8361ffff167fef25641e225e493886510ca1ad6584fa7b442b9fea820a29d1de3ce27d270fd28360a001518460c001518560e0015160405161310f93929190615a92565b60405180910390a250505050565b60008261312c57506000610f0c565b8282028284828161313957fe5b0414610b5957600080fd5b600080610f0c60066129f5565b6000808212613161575080610f0c565b82516020840151610f869190610f5f9085906116ad565b826001600160a01b031663a9059cbb83836040518363ffffffff1660e01b815260040180836001600160a01b0316815260200182815260200192505050600060405180830381600087803b1580156131cf57600080fd5b505af11580156131e3573d6000803e3d6000fd5b505050506120ad5b60006131f5614d1b565b3d8015613209576020811461321257600080fd5b6001925061321d565b60206000833e815192505b5081610939576040805162461bcd60e51b8152602060048201526005602482015264045524332360dc1b604482015290519081900360640190fd5b60008282111561326757600080fd5b50900390565b60006305f5e10083604001511415613286575080610f0c565b6040830151610b5990610f5f846305f5e1006116ad565b8151600090610b5990610f5f846ec097ce7bc90715b34b9f10000000006116ad565b60006132c9613b4f565b61ffff8416600090815260209190915260409081902054905163ad1c095d60e01b81526001600160a01b039091169150819063ad1c095d90613311908790869060040161572b565b600060405180830381600087803b15801561332b57600080fd5b505af115801561333f573d6000803e3d6000fd5b5050505050505050565b60006133536129da565b61ffff8516600090815260209190915260409020805490915064ffffffffff16421461337e57600080fd5b805460009061339d90600160281b90046001600160581b031685610ef6565b82549091506000906133bf90600160801b90046001600160581b031685610ef6565b905080624c4b4013156133d157600080fd5b6133e26133dd82611fd6565b613b02565b83546001600160581b0391909116600160801b026affffffffffffffffffffff60801b199091161783556134186133dd83611fd6565b83546001600160581b0391909116600160281b026fffffffffffffffffffffff00000000001990911617835561069783613b5c565b6000613457613c27565b6001600160a01b038416600090815260208290526040902054909150613480611bac8285610ef6565b6001600160a01b03909416600090815260209290925250604090209190915550565b60006134ac613c27565b83516001600160a01b03166000908152602082905260409020549091508083116134d75750506120ad565b60006134e286613967565b90506000816001600160a01b031663b5e4da238487036040518263ffffffff1660e01b81526004016135149190615a89565b60006040518083038186803b15801561352c57600080fd5b505afa158015613540573d6000803e3d6000fd5b505050506040513d6000823e601f3d908101601f19168201604052613568919081019061520f565b905060006135768783613c34565b915061358490508482613aa2565b86111561333f57600080fd5b60008061359b613e4b565b6000938452602052505060409020546001600160a01b031690565b6000806000806135c4613e58565b6001600160a01b0395909516600090815260209590955250506040909220546001600160601b03811693600160601b82046001600160801b03169350600160e01b90910463ffffffff169150565b60008060006136218685613e65565b50915091506000613630613e58565b6001600160a01b03881660009081526020829052604081209192506136558589610ef6565b90508060001315801561366e57506001600160601b0381105b61367757600080fd5b81546bffffffffffffffffffffffff19166001600160601b038216176fffffffffffffffffffffffffffffffff60601b1916600160601b6001600160801b0386160217825563ffffffff87106136cc57600080fd5b50805463ffffffff8716600160e01b026001600160e01b03909116179055509150509392505050565b60e0840151600090156137b65773__$b21a4dc043b77aa57922ad9143a3cb040e$__63e0c01a728561372a8860400151611fd6565b8860e001518961010001516040518563ffffffff1660e01b81526004016137549493929190615865565b60206040518083038186803b15801561376c57600080fd5b505af4158015613780573d6000803e3d6000fd5b505050506040513d601f19601f820116820180604052508101906137a49190615357565b600060e0870181905261010087015290505b6137f86137f18661010001516137eb670de0b6b3a76400006137e5886137df8c60400151611fd6565b9061311d565b90613efb565b90613258565b8290613aa2565b9050613810670de0b6b3a76400006137e5848661311d565b85610100018181525050949350505050565b60008061382d611d78565b6001600160a01b0384166000908152602082905260409020805491925090600160f81b900460ff161561388957613862613f1a565b6001600160a01b038086166000908152602092909252604090912054169250610c98915050565b600092505050610c98565b61093973cfeaead4947f0705a14ec42ac3d44129e1ef3ed58383613178565b600063ffffffff821115611bdf57600080fd5b60006001600160501b03821115611bdf57600080fd5b60006138e88683613f27565b90506110a18686866138fa8786613f66565b613fed565b60006a7fffffffffffffffffffff19821280159061392857506a7fffffffffffffffffffff8213155b611bdf57600080fd5b600080610f0c600d6129f5565b67ffff000000000000603084901b1665ffffffffff00600884901b161760ff8216179392505050565b60008061397261401a565b61ffff939093166000908152602093909352505060409020546001600160a01b031690565b6000806000806000806139aa8988614027565b895190955091935091506000906139d1906139c6908b90613258565b633b9aca009061311d565b9050613a0b613a006301da9c006139e8858561311d565b816139ef57fe5b670de0b6b3a7640000919004613aa2565b60e08a015190613ad1565b9650613a2d613a226301da9c006139e8878561311d565b60c08a015190613ad1565b955081831415613a44575060009350613a99915050565b6000613a66613a5b6301da9c006139e8878661311d565b60e08b015190613ad1565b90506000613a748983613258565b9050613a91886137e5838d6040015161311d90919063ffffffff16565b965050505050505b93509350935093565b600082820183811015610b5957600080fd5b6000610b59613acb84670de0b6b3a764000061311d565b83613efb565b6000610b59613ae0848461311d565b670de0b6b3a7640000613efb565b600064ffffffffff821115611bdf57600080fd5b60006001600160581b03821115611bdf57600080fd5b6000811215613b2657600080fd5b6000613b34610fee846140c1565b9050613b408183610ef6565b90506120ad610fee848361411a565b600080610f0c60216129f5565b80546002820154600091613b9e91600160281b9091046001600160581b031690613b98906001600160501b03600160501b8204811691166116ad565b906116ad565b60018301546002840154919250600091613bd8916001600160581b031690613b98906001600160501b03600160a01b8204811691166116ad565b8354909150600090613c0f9060016001600160581b03600160801b909204821601166ec097ce7bc90715b34b9f10000000006116ad565b905080613c1c8484612a0e565b1315610d4a57600080fd5b600080610f0c60266129f5565b60008060005b8351811015613e43576000848281518110613c5157fe5b60200260200101519050600081606001516001600160a01b03166370a08231306040518263ffffffff1660e01b8152600401613c8d9190615694565b60206040518083038186803b158015613ca557600080fd5b505afa158015613cb9573d6000803e3d6000fd5b505050506040513d601f19601f82011682018060405250810190613cdd9190615357565b90506000613ceb883061418e565b905060005b835151811015613d4757613d3684600001518281518110613d0d57fe5b6020026020010151600086602001518481518110613d2757fe5b60200260200101516001614238565b613d3f57600196505b600101613cf0565b506000613d54893061418e565b90506000613d628284613258565b90508085604001511115613d7557600080fd5b60608501516040516370a0823160e01b81526000916001600160a01b0316906370a0823190613da8903090600401615694565b60206040518083038186803b158015613dc057600080fd5b505afa158015613dd4573d6000803e3d6000fd5b505050506040513d601f19601f82011682018060405250810190613df89190615357565b905084811115613e0757600080fd5b613e16866060015186836144a6565b613e208883613aa2565b9750613e318b6000015185856144a6565b505060019094019350613c3a92505050565b509250929050565b600080610f0c60036129f5565b600080610f0c60116129f5565b6000806000613e73856135b6565b919450925090508084118015613e895750600081115b8015613e955750600083115b15613ef4576000613ea58661147f565b5050509150506000613ed0613ec76305f5e1008461311d90919063ffffffff16565b84880387614523565b9050613edc8482613aa2565b93506001600160801b038410613ef157600080fd5b50505b9250925092565b6000808211613f0957600080fd5b818381613f1257fe5b049392505050565b600080610f0c60126129f5565b600080821215613f6057613f5b6001613f558560200151610f5f8760000151876116ad90919063ffffffff16565b90612a0e565b610b59565b50919050565b600081831480613f83575060008312158015613f83575060008212155b15613f9057506000610f0c565b60008313158015613fa15750816000125b15613fad575081610f0c565b60008213158015613fbe5750826000125b15613fcc57610f8682610f12565b60008313158015613fde575060008213155b1561007b57610f868383612a0e565b8015610d4a578351602085015160009161400c91610f5f9085906116ad565b9050611d6184848484614545565b600080610f0c601f6129f5565b600080600080600085602001511115614074576140716140588660c00151876020015161311d90919063ffffffff16565b60e0870151604088015161406b9161311d565b90614682565b90505b600061407f87614695565b905061408b81836146c8565b945081156140a25761409f81866001614781565b93505b602086015115613ef1576140b685836147f2565b925050509250925092565b6000806140cc613144565b6001600160a01b03851660009081526020828152604080832061ffff8816845290915281208054600160a81b9004600a90810b900b945091925083121561411257600080fd5b505092915050565b600081121561412857600080fd5b6000614132613144565b6001600160a01b03851660009081526020828152604080832061ffff881684529091529020909150614163836138ff565b8154600a9190910b6001600160581b0316600160a81b026001600160a81b0390911617905550505050565b60006003836060015160058111156141a257fe5b14156141b957506001600160a01b03811631610f0c565b82516040516370a0823160e01b81526001600160a01b03909116906370a08231906141e8908590600401615694565b60206040518083038186803b15801561420057600080fd5b505afa158015614214573d6000803e3d6000fd5b505050506040513d601f19601f82011682018060405250810190610f869190615357565b6000806000866001600160a01b031686866040518082805190602001908083835b602083106142785780518252601f199092019160209182019101614259565b6001836020036101000a03801982511681845116808217855250505050505090500191505060006040518083038185875af1925050503d80600081146142da576040519150601f19603f3d011682016040523d82523d6000602084013e6142df565b606091505b50915091508361438257816142f38261480b565b9061437c5760405162461bcd60e51b81526004018080602001828103825283818151815260200191508051906020019080838360005b83811015614341578181015183820152602001614329565b50505050905090810190601f16801561436e5780820380516001836020036101000a031916815260200191505b509250505060405180910390fd5b50612277565b866001600160a01b03167f3c7e398c5e91088cae639370e35b25ea669d81fbdf0def5388e73661bc34e08e87876143b88561480b565b604051808481526020018060200180602001838103835285818151815260200191508051906020019080838360005b838110156143ff5781810151838201526020016143e7565b50505050905090810190601f16801561442c5780820380516001836020036101000a031916815260200191505b50838103825284518152845160209182019186019080838360005b8381101561445f578181015183820152602001614447565b50505050905090810190601f16801561448c5780820380516001836020036101000a031916815260200191505b509550505050505060405180910390a25095945050505050565b60006144b0613c27565b6001600160a01b038516600090815260208290526040902054909150838111156144d957600080fd5b60006144f06144e786611bc9565b613f5586611bc9565b90506144ff611bac8383610ef6565b6001600160a01b039096166000908152602093909352505060409020929092555050565b6000610fec826137e56301da9c0081886137df89670de0b6b3a764000061311d565b600061454f6129da565b61ffff8516600090815260209190915260409020805490915064ffffffffff16421461457a57600080fd5b8054600160f81b900460ff1661458f57600080fd5b60018101546000906145aa906001600160581b031685610ef6565b82549091506000906145cc90600160281b90046001600160581b031685610ef6565b9050816009191280156145df5750600082125b156145e957600091505b806009191280156145fa5750600081125b15614603575060005b61460f6133dd83611fd6565b6001840180546affffffffffffffffffffff19166001600160581b03929092169190911790556146416133dd82611fd6565b83546001600160581b0391909116600160281b026fffffffffffffffffffffff00000000001990911617835561467987878688614912565b61147683613b5c565b6000610b59613acb84633b9aca0061311d565b61469d614d39565b60006146a7614a1a565b61ffff8416600090815260209190915260408120549150610b599082614a27565b6000808360800151116146da57600080fd5b633b9aca008211156146eb57600080fd5b8251821161470a5782516040840151610f8691906137e590859061311d565b82602001518211614748576040830151835160208501516060860151610f86939261474292819003916137e59188039085900361311d565b90613aa2565b610b5983606001516147428560200151633b9aca00036137e587606001518860800151038860200151880361311d90919063ffffffff16565b6000806147a060646137e58760e001518761311d90919063ffffffff16565b90508460a001518110156147b5575060a08401515b8460c001518111156147c8575060c08401515b82156147d85761117a8482613aa2565b8381116147e75780840361117a565b600095945050505050565b6000610b59614801848461311d565b633b9aca00613efb565b6060604482511015614841575060408051808201909152600d81526c14da5b195b9d0814995d995c9d609a1b6020820152610c98565b600482018051909260240190602081101561485b57600080fd5b810190808051604051939291908464010000000082111561487b57600080fd5b90830190602082018581111561489057600080fd5b82516401000000008111828201881017156148aa57600080fd5b82525081516020918201929091019080838360005b838110156148d75781810151838201526020016148bf565b50505050905090810190601f1680156149045780820380516001836020036101000a031916815260200191505b506040525050509050919050565b600061491c613b4f565b61ffff8516600090815260209190915260408120546001600160a01b03169150614944614b46565b61ffff8616600090815260209190915260409081902054905163ad1c095d60e01b81526001600160a01b039091169150819063ad1c095d9061498c908990879060040161572b565b600060405180830381600087803b1580156149a657600080fd5b505af11580156149ba573d6000803e3d6000fd5b505060405163ad1c095d60e01b81526001600160a01b038516925063ad1c095d91506149ec908990889060040161572b565b600060405180830381600087803b158015614a0657600080fd5b505af1158015610692573d6000803e3d6000fd5b600080610f0c601b6129f5565b614a2f614d39565b6064633b9aca008360ff861660208110614a4557fe5b1a0281614a4e57fe5b0481526064633b9aca008360ff861660010160208110614a6a57fe5b1a0281614a7357fe5b04816020018181525050614a988260028560ff160160208110614a9257fe5b1a614b53565b60808201819052610100908360ff861660030160208110614ab557fe5b1a0281614abe57fe5b0460408201526080810151610100908360ff861660040160208110614adf57fe5b1a0281614ae857fe5b0460608201526207a1208260ff851660050160208110614b0457fe5b1a0260a0820152622625a08260ff851660060160208110614b2157fe5b1a0260c08201528160ff841660070160208110614b3a57fe5b1a60e082015292915050565b600080610f0c60226129f5565b60008160ff16609610614b6e5760ff8216622625a002610c95565b5060951960ff919091160162e4e1c00263165a0bc00190565b604051806101400160405280600061ffff1681526020016000815260200160008152602001600081526020016000815260200160008152602001600081526020016000815260200160008152602001614bde614cae565b905290565b6040805160c081018252600080825260208201819052918101829052606081018290526080810182905260a081019190915290565b6040518060800160405280606081526020016060815260200160008152602001600081525090565b6040518060c00160405280600061ffff1681526020016000815260200160008152602001600081526020016000815260200160006003811115614bde57fe5b6040805160a0810182526000808252602082018190529181018290529060608201908152602001600081525090565b60405180606001604052806000815260200160008152602001600081525090565b6040518061012001604052806000815260200160008152602001600081526020016000815260200160008152602001600081526020016000815260200160008152602001600081525090565b60405180602001604052806001906020820280368337509192915050565b60405180610100016040528060008152602001600081526020016000815260200160008152602001600081526020016000815260200160008152602001600081525090565b8051610c9881615b62565b600082601f830112614d99578081fd5b81516020614dae614da983615b45565b615b22565b8281528181019085830183850287018401881015614dca578586fd5b855b85811015614df1578151614ddf81615b62565b84529284019290840190600101614dcc565b5090979650505050505050565b6000601f8381840112614e0f578182fd5b82516020614e1f614da983615b45565b82815281810190868301865b85811015614ec357815189018a603f820112614e45578889fd5b858101516001600160401b03811115614e5a57fe5b614e6b818a01601f19168801615b22565b81815260408d81848601011115614e80578b8cfd5b8b5b83811015614e9d578481018201518382018b01528901614e82565b83811115614ead578c8a85850101525b5050865250509284019290840190600101614e2b565b509098975050505050505050565b60008083601f840112614ee2578182fd5b5081356001600160401b03811115614ef8578182fd5b6020830191508360208083028501011115614f1257600080fd5b9250929050565b600082601f830112614f29578081fd5b81516020614f39614da983615b45565b8281528181019085830160c080860288018501891015614f57578687fd5b865b86811015614fe85781838b031215614f6f578788fd5b604080518381018181106001600160401b0382111715614f8b57fe5b82528451614f9881615b88565b815284880151888201528185015191810191909152606080850151908201526080808501519082015260a090614fcf828601615031565b9181019190915285529385019391810191600101614f59565b509198975050505050505050565b8051610c9881615b7a565b80516001600160701b031981168114610c9857600080fd5b80516001600160f81b031981168114610c9857600080fd5b805160048110610c9857600080fd5b8051610c9881615b88565b805160ff81168114610c9857600080fd5b600080600060408486031215615070578283fd5b833561507b81615b62565b925060208401356001600160401b03811115615095578283fd5b6150a186828701614ed1565b9497909650939450505050565b6000806000806000606086880312156150c5578283fd5b85356150d081615b62565b945060208601356001600160401b03808211156150eb578485fd5b6150f789838a01614ed1565b9096509450604088013591508082111561510f578283fd5b818801915088601f830112615122578283fd5b813581811115615130578384fd5b896020828501011115615141578384fd5b9699959850939650602001949392505050565b600080600060408486031215615168578081fd5b833561517381615b62565b925060208401356001600160401b038082111561518e578283fd5b818601915086601f8301126151a1578283fd5b8135818111156151af578384fd5b87602060c0830285010111156151c3578384fd5b6020830194508093505050509250925092565b6000806000604084860312156151ea578081fd5b83356151f581615b62565b925060208401356001600160401b03811115615095578182fd5b60006020808385031215615221578182fd5b82516001600160401b0380821115615237578384fd5b818501915085601f83011261524a578384fd5b8151615258614da982615b45565b81815284810190848601875b8481101561530d57815187016080818d03601f1901121561528357898afd5b60408051608081018181108a8211171561529957fe5b8252828b0151898111156152ab578c8dfd5b6152b98f8d83870101614d89565b82525081830151898111156152cc578c8dfd5b6152da8f8d83870101614dfe565b8c830152506060830151828201526152f460808401614d7e565b6060820152865250509287019290870190600101615264565b50909998505050505050505050565b60006020828403121561532d578081fd5b8135610b5981615b7a565b600060208284031215615349578081fd5b813560078110610b59578182fd5b600060208284031215615368578081fd5b5051919050565b60008060408385031215615381578182fd5b82519150602083015161539381615b7a565b809150509250929050565b600060c082840312156153af578081fd5b60405160c081018181106001600160401b03821117156153cb57fe5b604052825164ffffffffff811681146153e2578283fd5b81526153f060208401615019565b60208201526154016040840161504b565b604082015261541260608401615040565b606082015261542360808401615001565b608082015261543460a08401614ff6565b60a08201529392505050565b60008060408385031215615452578182fd5b82516001600160401b0380821115615468578384fd5b908401906080828703121561547b578384fd5b60405160808101818110838211171561549057fe5b6040528251828111156154a1578586fd5b6154ad88828601614f19565b8252506020830151828111156154c1578586fd5b6154cd88828601614f19565b6020830152506040830151604082015260608301516060820152809450505050602083015190509250929050565b60006020828403121561550c578081fd5b8135610b5981615b88565b60008060408385031215615529578182fd5b505080516020909101519092909150565b81835260006001600160fb1b03831115615552578081fd5b6020830280836020870137939093016020019283525090919050565b6000815180845260208085019450808401835b838110156155df578151805161ffff168852838101518489015260408082015190890152606080820151908901526080808201519089015260a09081015190600482106155ca57fe5b88015260c09096019590820190600101615581565b509495945050505050565b805164ffffffffff1682526020808201516001600160f81b0319169083015260408082015160ff169083015260608082015161ffff16908301526080808201516001600160701b0319169083015260a0908101511515910152565b600081516080845261565a608085018261556e565b905060208301518482036020860152615673828261556e565b91505060408301516040850152606083015160608501528091505092915050565b6001600160a01b0391909116815260200190565b6001600160a01b038581168252841660208201526060604082018190528101829052600082846080840137818301608090810191909152601f909201601f191601019392505050565b6001600160a01b0396871681529486166020860152928516604085015290841660608401528316608083015290911660a082015260c00190565b6001600160a01b03929092168252602082015260400190565b6001600160a01b038316815260e08101610b5960208301846155ea565b6001600160a01b0384168152600061010061577f60208401866155ea565b8060e084015261223081840185615645565b6001600160a01b0393909316835261ffff919091166020830152604082015260600190565b6001600160a01b038616815261ffff851660208201526080604082018190526000906157e490830186615645565b828103606084015261198f81858761553a565b6001600160a01b0395909516855261ffff93909316602085015260408401919091526060830152608082015260a00190565b6001600160a01b038616815261ffff8516602082015264ffffffffff841660408201526080606082018190526000906124f4908301848661553a565b6001600160a01b0394909416845260208401929092526040830152606082015260800190565b6020808252600f908201526e04f76657220537570706c792043617608c1b604082015260600190565b6020808252600c908201526b155b985d5d1a1bdc9a5e995960a21b604082015260600190565b6020808252600b908201526a4554482042616c616e636560a81b604082015260600190565b60208082526006908201526552656465656d60d01b604082015260600190565b6020808252600f908201526e4e6f205072696d6520426f72726f7760881b604082015260600190565b60208082526010908201526f556e736f7274656420616374696f6e7360801b604082015260600190565b6020808252818101527f446570726563617465643a20526564656d7074696f6e20746f2063546f6b656e604082015260600190565b6020808252601a908201527f496e73756666696369656e7420746f6b656e2062616c616e6365000000000000604082015260600190565b6020808252601a908201527f496e76616c69642074726164657320666f72206163636f756e74000000000000604082015260600190565b602080825260089082015267111a5cd8589b195960c21b604082015260600190565b6020808252600a90820152692732b390372a37b5b2b760b11b604082015260600190565b602080825260149082015273125b9cdd59999a58da595b9d0819195c1bdcda5d60621b604082015260600190565b90815260200190565b9283526020830191909152604082015260600190565b6000808335601e19843603018112615abe578283fd5b8301803591506001600160401b03821115615ad7578283fd5b6020908101925081023603821315614f1257600080fd5b6000823560de19833603018112615b03578182fd5b9190910192915050565b60008235605e19833603018112615b03578182fd5b6040518181016001600160401b0381118282101715615b3d57fe5b604052919050565b60006001600160401b03821115615b5857fe5b5060209081020190565b6001600160a01b0381168114615b7757600080fd5b50565b8015158114615b7757600080fd5b61ffff81168114615b7757600080fdfea26469706673582212203cc49d13976097b951053e791e3fef03744e573cae90f5442a2c9771c59b5be564736f6c63430007060033","language":"Solidity","natspec":{"kind":"dev","methods":{"batchBalanceAction(address,(uint8,uint16,uint256,uint256,bool,bool)[])":{"details":"emit:CashBalanceChange, emit:nTokenSupplyChangeauth:msg.sender auth:ERC1155","notice":"Executes a batch of balance transfers including minting and redeeming nTokens.","params":{"account":"the account for the action","actions":"array of balance actions to take, must be sorted by currency id"}},"batchBalanceAndTradeAction(address,(uint8,uint16,uint256,uint256,bool,bool,bytes32[])[])":{"details":"auth:msg.sender auth:ERC1155","notice":"Executes a batch of balance transfers and trading actions","params":{"account":"the account for the action","actions":"array of balance actions with trades to take, must be sorted by currency id"}},"batchBalanceAndTradeActionWithCallback(address,(uint8,uint16,uint256,uint256,bool,bool,bytes32[])[],bytes)":{"details":"auth:authorizedCallbackContract","notice":"Executes a batch of balance transfers and trading actions via an authorized callback contract. This can be used as a \"flash loan\" facility for special contracts that migrate assets between protocols or perform other actions on behalf of the user. Contracts can borrow from Notional and receive a callback prior to an FC check, this can be useful if the contract needs to perform a trade or repay a debt on a different protocol before depositing collateral. Since Notional's AMM will never be as capital efficient or gas efficient as other flash loan facilities, this method requires whitelisting and will mainly be used for contracts that make migrating assets a better user experience.","params":{"account":"the account that will take all the actions","actions":"array of balance actions with trades to take, must be sorted by currency id","callbackData":"arbitrary bytes to be passed backed to the caller in the callback"}},"batchLend(address,(uint16,bool,bytes32[])[])":{"details":"Note that this method does not work with native ETH because it requires the ability to pull payment from an ERC20 token. Therefore, this method is marked as nonpayable. It will still work with cETH or aETH.auth:msg.sender auth:ERC1155","notice":"Executes a batch of lending actions. This is different from batchBalanceAndTrade because it always pulls the required amount of tokens to get an account to a cash balance of zero. It reduces the gas costs for lending because there is no second token transfer where residual balances are sent back to the account.","params":{"account":"the account for the action","actions":"array of batch lending actions"}},"getLibInfo()":{"notice":"Get a list of deployed library addresses (sorted by library name)"}},"version":1},"opcodes":"PUSH1 0x80 PUSH1 0x40 MSTORE PUSH1 0x4 CALLDATASIZE LT PUSH2 0x7B JUMPI PUSH1 0x0 CALLDATALOAD PUSH1 0xE0 SHR DUP1 PUSH4 0x6E6A32A6 GT PUSH2 0x4E JUMPI DUP1 PUSH4 0x6E6A32A6 EQ PUSH2 0xF3 JUMPI DUP1 PUSH4 0x82463367 EQ PUSH2 0x106 JUMPI DUP1 PUSH4 0x8DA5CB5B EQ PUSH2 0x11B JUMPI DUP1 PUSH4 0xC4C96DAE EQ PUSH2 0x130 JUMPI PUSH2 0x7B JUMP JUMPDEST DUP1 PUSH4 0x276B64B EQ PUSH2 0x80 JUMPI DUP1 PUSH4 0x24A3D622 EQ PUSH2 0x95 JUMPI DUP1 PUSH4 0x541F5270 EQ PUSH2 0xC0 JUMPI DUP1 PUSH4 0x5950D8E9 EQ PUSH2 0xE0 JUMPI JUMPDEST PUSH1 0x0 DUP1 REVERT JUMPDEST PUSH2 0x93 PUSH2 0x8E CALLDATASIZE PUSH1 0x4 PUSH2 0x505C JUMP JUMPDEST PUSH2 0x157 JUMP JUMPDEST STOP JUMPDEST CALLVALUE DUP1 ISZERO PUSH2 0xA1 JUMPI PUSH1 0x0 DUP1 REVERT JUMPDEST POP PUSH2 0xAA PUSH2 0x1D4 JUMP JUMPDEST PUSH1 0x40 MLOAD PUSH2 0xB7 SWAP2 SWAP1 PUSH2 0x5694 JUMP JUMPDEST PUSH1 0x40 MLOAD DUP1 SWAP2 SUB SWAP1 RETURN JUMPDEST CALLVALUE DUP1 ISZERO PUSH2 0xCC JUMPI PUSH1 0x0 DUP1 REVERT JUMPDEST POP PUSH2 0x93 PUSH2 0xDB CALLDATASIZE PUSH1 0x4 PUSH2 0x51D6 JUMP JUMPDEST PUSH2 0x1E3 JUMP JUMPDEST PUSH2 0x93 PUSH2 0xEE CALLDATASIZE PUSH1 0x4 PUSH2 0x50AE JUMP JUMPDEST PUSH2 0x56F JUMP JUMPDEST PUSH2 0x93 PUSH2 0x101 CALLDATASIZE PUSH1 0x4 PUSH2 0x5154 JUMP JUMPDEST PUSH2 0x69F JUMP JUMPDEST CALLVALUE DUP1 ISZERO PUSH2 0x112 JUMPI PUSH1 0x0 DUP1 REVERT JUMPDEST POP PUSH2 0xAA PUSH2 0x812 JUMP JUMPDEST CALLVALUE DUP1 ISZERO PUSH2 0x127 JUMPI PUSH1 0x0 DUP1 REVERT JUMPDEST POP PUSH2 0xAA PUSH2 0x821 JUMP JUMPDEST CALLVALUE DUP1 ISZERO PUSH2 0x13C JUMPI PUSH1 0x0 DUP1 REVERT JUMPDEST POP PUSH2 0x145 PUSH2 0x838 JUMP JUMPDEST PUSH1 0x40 MLOAD PUSH2 0xB7 SWAP7 SWAP6 SWAP5 SWAP4 SWAP3 SWAP2 SWAP1 PUSH2 0x56F1 JUMP JUMPDEST PUSH1 0x2 PUSH1 0xA SLOAD EQ ISZERO PUSH2 0x167 JUMPI PUSH1 0x0 DUP1 REVERT JUMPDEST PUSH1 0x2 PUSH1 0xA SSTORE PUSH1 0x1 PUSH1 0x1 PUSH1 0xA0 SHL SUB DUP4 AND CALLER EQ DUP1 PUSH2 0x182 JUMPI POP CALLER ADDRESS EQ JUMPDEST PUSH2 0x1A7 JUMPI PUSH1 0x40 MLOAD PUSH3 0x461BCD PUSH1 0xE5 SHL DUP2 MSTORE PUSH1 0x4 ADD PUSH2 0x19E SWAP1 PUSH2 0x58B4 JUMP JUMPDEST PUSH1 0x40 MLOAD DUP1 SWAP2 SUB SWAP1 REVERT JUMPDEST PUSH2 0x1B0 DUP4 PUSH2 0x8BE JUMP JUMPDEST PUSH1 0x0 PUSH2 0x1BD DUP5 DUP5 DUP5 PUSH2 0x93D JUMP JUMPDEST SWAP1 POP PUSH2 0x1C9 DUP5 DUP3 PUSH2 0xB60 JUMP JUMPDEST POP POP PUSH1 0x1 PUSH1 0xA SSTORE POP POP JUMP JUMPDEST PUSH1 0x2 SLOAD PUSH1 0x1 PUSH1 0x1 PUSH1 0xA0 SHL SUB AND DUP2 JUMP JUMPDEST PUSH1 0x2 PUSH1 0xA SLOAD EQ ISZERO PUSH2 0x1F3 JUMPI PUSH1 0x0 DUP1 REVERT JUMPDEST PUSH1 0x2 PUSH1 0xA SSTORE PUSH1 0x1 PUSH1 0x1 PUSH1 0xA0 SHL SUB DUP4 AND CALLER EQ DUP1 PUSH2 0x20E JUMPI POP CALLER ADDRESS EQ JUMPDEST PUSH2 0x22A JUMPI PUSH1 0x40 MLOAD PUSH3 0x461BCD PUSH1 0xE5 SHL DUP2 MSTORE PUSH1 0x4 ADD PUSH2 0x19E SWAP1 PUSH2 0x58B4 JUMP JUMPDEST PUSH2 0x233 DUP4 PUSH2 0x8BE JUMP JUMPDEST PUSH1 0x0 PUSH2 0x23E DUP5 PUSH2 0xBE1 JUMP JUMPDEST SWAP1 POP PUSH1 0x0 PUSH2 0x252 DUP6 DUP4 PUSH1 0x40 ADD MLOAD PUSH1 0x0 PUSH2 0xC9D JUMP JUMPDEST SWAP1 POP PUSH2 0x25C PUSH2 0x4B87 JUMP JUMPDEST PUSH1 0x0 JUMPDEST DUP5 DUP2 LT ISZERO PUSH2 0x4BC JUMPI CALLDATASIZE DUP7 DUP7 DUP4 DUP2 DUP2 LT PUSH2 0x274 JUMPI INVALID JUMPDEST SWAP1 POP PUSH1 0x20 MUL DUP2 ADD SWAP1 PUSH2 0x286 SWAP2 SWAP1 PUSH2 0x5B0D JUMP JUMPDEST SWAP1 POP DUP2 ISZERO PUSH2 0x2EF JUMPI DUP7 DUP7 PUSH1 0x1 DUP5 SUB DUP2 DUP2 LT PUSH2 0x29D JUMPI INVALID JUMPDEST SWAP1 POP PUSH1 0x20 MUL DUP2 ADD SWAP1 PUSH2 0x2AF SWAP2 SWAP1 PUSH2 0x5B0D JUMP JUMPDEST PUSH2 0x2BD SWAP1 PUSH1 0x20 DUP2 ADD SWAP1 PUSH2 0x54FB JUMP JUMPDEST PUSH2 0xFFFF AND PUSH2 0x2CE PUSH1 0x20 DUP4 ADD DUP4 PUSH2 0x54FB JUMP JUMPDEST PUSH2 0xFFFF AND GT PUSH2 0x2EF JUMPI PUSH1 0x40 MLOAD PUSH3 0x461BCD PUSH1 0xE5 SHL DUP2 MSTORE PUSH1 0x4 ADD PUSH2 0x19E SWAP1 PUSH2 0x5948 JUMP JUMPDEST PUSH1 0x0 PUSH2 0x2FE PUSH1 0x40 DUP4 ADD DUP4 PUSH2 0x5AA8 JUMP JUMPDEST SWAP2 POP POP DUP1 PUSH2 0x30B JUMPI PUSH1 0x0 DUP1 REVERT JUMPDEST PUSH1 0x0 JUMPDEST DUP2 DUP2 LT ISZERO PUSH2 0x34E JUMPI PUSH1 0x0 PUSH2 0x325 PUSH1 0x40 DUP6 ADD DUP6 PUSH2 0x5AA8 JUMP JUMPDEST DUP4 DUP2 DUP2 LT PUSH2 0x32F JUMPI INVALID JUMPDEST SWAP1 POP PUSH1 0x20 MUL ADD CALLDATALOAD PUSH1 0xF8 SHR PUSH1 0xFF AND EQ PUSH2 0x346 JUMPI PUSH1 0x0 DUP1 REVERT JUMPDEST PUSH1 0x1 ADD PUSH2 0x30E JUMP JUMPDEST POP PUSH2 0x369 DUP10 PUSH2 0x360 PUSH1 0x20 DUP6 ADD DUP6 PUSH2 0x54FB JUMP JUMPDEST DUP7 SWAP2 SWAP1 DUP10 PUSH2 0xD2F JUMP JUMPDEST PUSH2 0x38E DUP10 PUSH2 0x37A PUSH1 0x20 DUP6 ADD DUP6 PUSH2 0x54FB JUMP JUMPDEST PUSH2 0x387 PUSH1 0x40 DUP7 ADD DUP7 PUSH2 0x5AA8 JUMP JUMPDEST DUP11 DUP11 PUSH2 0xD50 JUMP JUMPDEST PUSH1 0x60 DUP7 ADD DUP3 SWAP1 MSTORE SWAP6 POP PUSH1 0x0 SLT ISZERO PUSH2 0x3A4 JUMPI PUSH1 0x0 DUP1 REVERT JUMPDEST PUSH1 0x0 PUSH2 0x3C9 PUSH2 0x3C4 DUP7 PUSH1 0x60 ADD MLOAD DUP8 PUSH1 0x20 ADD MLOAD PUSH2 0xEF6 SWAP1 SWAP2 SWAP1 PUSH4 0xFFFFFFFF AND JUMP JUMPDEST PUSH2 0xF12 JUMP JUMPDEST SWAP1 POP PUSH1 0x0 DUP2 SGT ISZERO PUSH2 0x495 JUMPI PUSH1 0x0 DUP1 PUSH2 0x3F0 PUSH2 0x3E7 PUSH1 0x20 DUP8 ADD DUP8 PUSH2 0x54FB JUMP JUMPDEST PUSH2 0xFFFF AND PUSH2 0xF20 JUMP JUMPDEST SWAP1 POP PUSH1 0x0 PUSH2 0x416 PUSH2 0x40F DUP6 DUP11 PUSH2 0x120 ADD MLOAD PUSH2 0xF33 SWAP1 SWAP2 SWAP1 PUSH4 0xFFFFFFFF AND JUMP JUMPDEST DUP4 SWAP1 PUSH2 0xF65 JUMP JUMPDEST SWAP1 POP PUSH2 0x428 PUSH1 0x40 DUP8 ADD PUSH1 0x20 DUP9 ADD PUSH2 0x531C JUMP JUMPDEST ISZERO PUSH2 0x441 JUMPI PUSH2 0x43A DUP9 DUP15 DUP4 PUSH1 0x0 PUSH2 0xFA1 JUMP JUMPDEST SWAP3 POP PUSH2 0x471 JUMP JUMPDEST PUSH2 0x46E DUP14 PUSH2 0x466 PUSH1 0x1 PUSH2 0x460 PUSH2 0x45A PUSH1 0x20 DUP13 ADD DUP13 PUSH2 0x54FB JUMP JUMPDEST DUP7 PUSH2 0xFF4 JUMP JUMPDEST SWAP1 PUSH2 0xEF6 JUMP JUMPDEST DUP11 SWAP2 SWAP1 PUSH2 0x10AA JUMP JUMPDEST SWAP3 POP JUMPDEST DUP4 DUP4 SLT ISZERO PUSH2 0x491 JUMPI PUSH1 0x40 MLOAD PUSH3 0x461BCD PUSH1 0xE5 SHL DUP2 MSTORE PUSH1 0x4 ADD PUSH2 0x19E SWAP1 PUSH2 0x5A5B JUMP JUMPDEST POP POP POP JUMPDEST PUSH2 0x4A0 DUP6 DUP12 DUP10 PUSH2 0x1185 JUMP JUMPDEST DUP5 MLOAD PUSH2 0x120 DUP7 ADD MLOAD PUSH2 0x4B1 SWAP2 PUSH2 0x11A3 JUMP JUMPDEST POP POP POP PUSH1 0x1 ADD PUSH2 0x25F JUMP JUMPDEST POP PUSH2 0x4C6 DUP4 PUSH2 0x11E4 JUMP JUMPDEST PUSH2 0x558 JUMPI PUSH1 0x40 MLOAD PUSH4 0x5C5763B3 PUSH1 0xE0 SHL DUP2 MSTORE PUSH20 0x0 SWAP1 PUSH4 0x5C5763B3 SWAP1 PUSH2 0x505 SWAP1 DUP10 SWAP1 DUP8 SWAP1 DUP8 SWAP1 PUSH1 0x4 ADD PUSH2 0x5761 JUMP JUMPDEST PUSH1 0xC0 PUSH1 0x40 MLOAD DUP1 DUP4 SUB DUP2 DUP7 DUP1 EXTCODESIZE ISZERO DUP1 ISZERO PUSH2 0x51D JUMPI PUSH1 0x0 DUP1 REVERT JUMPDEST POP GAS DELEGATECALL ISZERO DUP1 ISZERO PUSH2 0x531 JUMPI RETURNDATASIZE PUSH1 0x0 DUP1 RETURNDATACOPY RETURNDATASIZE PUSH1 0x0 REVERT JUMPDEST POP POP POP POP PUSH1 0x40 MLOAD RETURNDATASIZE PUSH1 0x1F NOT PUSH1 0x1F DUP3 ADD AND DUP3 ADD DUP1 PUSH1 0x40 MSTORE POP DUP2 ADD SWAP1 PUSH2 0x555 SWAP2 SWAP1 PUSH2 0x539E JUMP JUMPDEST SWAP3 POP JUMPDEST PUSH2 0x562 DUP7 DUP5 PUSH2 0xB60 JUMP JUMPDEST POP POP PUSH1 0x1 PUSH1 0xA SSTORE POP POP POP POP JUMP JUMPDEST CALLER PUSH1 0x0 SWAP1 DUP2 MSTORE PUSH1 0x8 PUSH1 0x20 MSTORE PUSH1 0x40 SWAP1 KECCAK256 SLOAD PUSH1 0xFF AND PUSH2 0x59E JUMPI PUSH1 0x40 MLOAD PUSH3 0x461BCD PUSH1 0xE5 SHL DUP2 MSTORE PUSH1 0x4 ADD PUSH2 0x19E SWAP1 PUSH2 0x58B4 JUMP JUMPDEST PUSH2 0x5A7 DUP6 PUSH2 0x8BE JUMP JUMPDEST PUSH1 0x0 PUSH2 0x5B4 DUP7 DUP7 DUP7 PUSH2 0x93D JUMP JUMPDEST SWAP1 POP PUSH2 0x5C0 DUP2 DUP8 PUSH2 0x11F1 JUMP JUMPDEST PUSH1 0x40 MLOAD PUSH4 0x550D0657 PUSH1 0xE1 SHL DUP2 MSTORE CALLER SWAP1 PUSH4 0xAA1A0CAE SWAP1 PUSH2 0x5E9 SWAP1 DUP4 SWAP1 DUP11 SWAP1 DUP9 SWAP1 DUP9 SWAP1 PUSH1 0x4 ADD PUSH2 0x56A8 JUMP JUMPDEST PUSH1 0x0 PUSH1 0x40 MLOAD DUP1 DUP4 SUB DUP2 PUSH1 0x0 DUP8 DUP1 EXTCODESIZE ISZERO DUP1 ISZERO PUSH2 0x603 JUMPI PUSH1 0x0 DUP1 REVERT JUMPDEST POP GAS CALL ISZERO DUP1 ISZERO PUSH2 0x617 JUMPI RETURNDATASIZE PUSH1 0x0 DUP1 RETURNDATACOPY RETURNDATASIZE PUSH1 0x0 REVERT JUMPDEST POP POP POP POP PUSH1 0x20 DUP2 ADD MLOAD PUSH1 0x1 PUSH1 0x1 PUSH1 0xF8 SHL SUB NOT AND ISZERO PUSH2 0x697 JUMPI PUSH1 0x40 MLOAD PUSH4 0x6CCC642F PUSH1 0xE0 SHL DUP2 MSTORE PUSH20 0x0 SWAP1 PUSH4 0x6CCC642F SWAP1 PUSH2 0x666 SWAP1 DUP10 SWAP1 PUSH1 0x4 ADD PUSH2 0x5694 JUMP JUMPDEST PUSH1 0x0 PUSH1 0x40 MLOAD DUP1 DUP4 SUB DUP2 DUP7 DUP1 EXTCODESIZE ISZERO DUP1 ISZERO PUSH2 0x67E JUMPI PUSH1 0x0 DUP1 REVERT JUMPDEST POP GAS DELEGATECALL ISZERO DUP1 ISZERO PUSH2 0x692 JUMPI RETURNDATASIZE PUSH1 0x0 DUP1 RETURNDATACOPY RETURNDATASIZE PUSH1 0x0 REVERT JUMPDEST POP POP POP POP JUMPDEST POP POP POP POP POP POP JUMP JUMPDEST PUSH1 0x2 PUSH1 0xA SLOAD EQ ISZERO PUSH2 0x6AF JUMPI PUSH1 0x0 DUP1 REVERT JUMPDEST PUSH1 0x2 PUSH1 0xA SSTORE PUSH1 0x1 PUSH1 0x1 PUSH1 0xA0 SHL SUB DUP4 AND CALLER EQ DUP1 PUSH2 0x6CA JUMPI POP CALLER ADDRESS EQ JUMPDEST PUSH2 0x6E6 JUMPI PUSH1 0x40 MLOAD PUSH3 0x461BCD PUSH1 0xE5 SHL DUP2 MSTORE PUSH1 0x4 ADD PUSH2 0x19E SWAP1 PUSH2 0x58B4 JUMP JUMPDEST PUSH2 0x6EF DUP4 PUSH2 0x8BE JUMP JUMPDEST PUSH1 0x0 PUSH2 0x6FA DUP5 PUSH2 0xBE1 JUMP JUMPDEST SWAP1 POP PUSH2 0x704 PUSH2 0x4B87 JUMP JUMPDEST PUSH1 0x0 JUMPDEST DUP4 DUP2 LT ISZERO PUSH2 0x7FB JUMPI CALLDATASIZE DUP6 DUP6 DUP4 DUP2 DUP2 LT PUSH2 0x71C JUMPI INVALID JUMPDEST SWAP1 POP PUSH1 0xC0 MUL ADD SWAP1 POP PUSH1 0x0 DUP3 GT ISZERO PUSH2 0x789 JUMPI DUP6 DUP6 PUSH1 0x1 DUP5 SUB DUP2 DUP2 LT PUSH2 0x73C JUMPI INVALID JUMPDEST SWAP1 POP PUSH1 0xC0 MUL ADD PUSH1 0x20 ADD PUSH1 0x20 DUP2 ADD SWAP1 PUSH2 0x754 SWAP2 SWAP1 PUSH2 0x54FB JUMP JUMPDEST PUSH2 0xFFFF AND PUSH2 0x768 PUSH1 0x40 DUP4 ADD PUSH1 0x20 DUP5 ADD PUSH2 0x54FB JUMP JUMPDEST PUSH2 0xFFFF AND GT PUSH2 0x789 JUMPI PUSH1 0x40 MLOAD PUSH3 0x461BCD PUSH1 0xE5 SHL DUP2 MSTORE PUSH1 0x4 ADD PUSH2 0x19E SWAP1 PUSH2 0x5948 JUMP JUMPDEST PUSH2 0x7A6 DUP8 PUSH2 0x79D PUSH1 0x40 DUP5 ADD PUSH1 0x20 DUP6 ADD PUSH2 0x54FB JUMP JUMPDEST DUP6 SWAP2 SWAP1 DUP8 PUSH2 0xD2F JUMP JUMPDEST PUSH2 0x7C2 DUP8 DUP5 PUSH2 0x7B8 PUSH1 0x20 DUP6 ADD DUP6 PUSH2 0x5338 JUMP JUMPDEST DUP5 PUSH1 0x40 ADD CALLDATALOAD PUSH2 0x130E JUMP JUMPDEST PUSH2 0x7F2 DUP8 DUP6 DUP6 PUSH1 0x60 DUP6 ADD CALLDATALOAD PUSH2 0x7DD PUSH1 0xA0 DUP8 ADD PUSH1 0x80 DUP9 ADD PUSH2 0x531C JUMP JUMPDEST PUSH2 0x7ED PUSH1 0xC0 DUP9 ADD PUSH1 0xA0 DUP10 ADD PUSH2 0x531C JUMP JUMPDEST PUSH2 0x13DC JUMP JUMPDEST POP PUSH1 0x1 ADD PUSH2 0x707 JUMP JUMPDEST POP PUSH2 0x806 DUP6 DUP4 PUSH2 0xB60 JUMP JUMPDEST POP POP PUSH1 0x1 PUSH1 0xA SSTORE POP POP POP JUMP JUMPDEST PUSH1 0x1 SLOAD PUSH1 0x1 PUSH1 0x1 PUSH1 0xA0 SHL SUB AND DUP2 JUMP JUMPDEST PUSH1 0x0 SLOAD PUSH5 0x100000000 SWAP1 DIV PUSH1 0x1 PUSH1 0x1 PUSH1 0xA0 SHL SUB AND DUP2 JUMP JUMPDEST PUSH20 0x0 PUSH20 0x0 PUSH20 0x0 PUSH20 0x0 PUSH20 0x0 PUSH20 0x0 SWAP1 SWAP2 SWAP3 SWAP4 SWAP5 SWAP6 JUMP JUMPDEST PUSH1 0x1 PUSH1 0x1 PUSH1 0xA0 SHL SUB DUP2 AND PUSH2 0x8D1 JUMPI PUSH1 0x0 DUP1 REVERT JUMPDEST PUSH1 0x1 PUSH1 0x1 PUSH1 0xA0 SHL SUB DUP2 AND PUSH2 0xFEE EQ ISZERO PUSH2 0x8E9 JUMPI PUSH1 0x0 DUP1 REVERT JUMPDEST PUSH1 0x1 PUSH1 0x1 PUSH1 0xA0 SHL SUB DUP2 AND PUSH2 0x5E7 EQ ISZERO PUSH2 0x901 JUMPI PUSH1 0x0 DUP1 REVERT JUMPDEST PUSH1 0x1 PUSH1 0x1 PUSH1 0xA0 SHL SUB DUP2 AND ADDRESS EQ ISZERO PUSH2 0x917 JUMPI PUSH1 0x0 DUP1 REVERT JUMPDEST PUSH1 0x0 PUSH2 0x922 DUP3 PUSH2 0x147F JUMP JUMPDEST POP POP POP POP PUSH2 0xFFFF AND SWAP1 POP DUP1 PUSH1 0x0 EQ PUSH2 0x939 JUMPI PUSH1 0x0 DUP1 REVERT JUMPDEST POP POP JUMP JUMPDEST PUSH2 0x945 PUSH2 0x4BE3 JUMP JUMPDEST PUSH1 0x0 PUSH2 0x950 DUP6 PUSH2 0xBE1 JUMP JUMPDEST SWAP1 POP PUSH2 0x95A PUSH2 0x4B87 JUMP JUMPDEST PUSH1 0x0 PUSH2 0x96C DUP8 DUP5 PUSH1 0x40 ADD MLOAD PUSH1 0x0 PUSH2 0xC9D JUMP JUMPDEST SWAP1 POP PUSH1 0x0 JUMPDEST DUP6 DUP2 LT ISZERO PUSH2 0xAB7 JUMPI CALLDATASIZE DUP8 DUP8 DUP4 DUP2 DUP2 LT PUSH2 0x986 JUMPI INVALID JUMPDEST SWAP1 POP PUSH1 0x20 MUL DUP2 ADD SWAP1 PUSH2 0x998 SWAP2 SWAP1 PUSH2 0x5AEE JUMP JUMPDEST SWAP1 POP DUP2 ISZERO PUSH2 0xA07 JUMPI DUP8 DUP8 PUSH1 0x1 DUP5 SUB DUP2 DUP2 LT PUSH2 0x9AF JUMPI INVALID JUMPDEST SWAP1 POP PUSH1 0x20 MUL DUP2 ADD SWAP1 PUSH2 0x9C1 SWAP2 SWAP1 PUSH2 0x5AEE JUMP JUMPDEST PUSH2 0x9D2 SWAP1 PUSH1 0x40 DUP2 ADD SWAP1 PUSH1 0x20 ADD PUSH2 0x54FB JUMP JUMPDEST PUSH2 0xFFFF AND PUSH2 0x9E6 PUSH1 0x40 DUP4 ADD PUSH1 0x20 DUP5 ADD PUSH2 0x54FB JUMP JUMPDEST PUSH2 0xFFFF AND GT PUSH2 0xA07 JUMPI PUSH1 0x40 MLOAD PUSH3 0x461BCD PUSH1 0xE5 SHL DUP2 MSTORE PUSH1 0x4 ADD PUSH2 0x19E SWAP1 PUSH2 0x5948 JUMP JUMPDEST PUSH2 0xA24 DUP10 PUSH2 0xA1B PUSH1 0x40 DUP5 ADD PUSH1 0x20 DUP6 ADD PUSH2 0x54FB JUMP JUMPDEST DUP7 SWAP2 SWAP1 DUP9 PUSH2 0xD2F JUMP JUMPDEST PUSH2 0xA36 DUP10 DUP6 PUSH2 0x7B8 PUSH1 0x20 DUP6 ADD DUP6 PUSH2 0x5338 JUMP JUMPDEST PUSH1 0x0 PUSH2 0xA45 PUSH1 0xC0 DUP4 ADD DUP4 PUSH2 0x5AA8 JUMP JUMPDEST SWAP1 POP GT ISZERO PUSH2 0xA93 JUMPI PUSH1 0x0 PUSH2 0xA77 DUP11 PUSH2 0xA63 PUSH1 0x40 DUP6 ADD PUSH1 0x20 DUP7 ADD PUSH2 0x54FB JUMP JUMPDEST PUSH2 0xA70 PUSH1 0xC0 DUP7 ADD DUP7 PUSH2 0x5AA8 JUMP JUMPDEST DUP11 DUP10 PUSH2 0xD50 JUMP JUMPDEST PUSH1 0x60 DUP8 ADD MLOAD SWAP1 SWAP6 POP SWAP1 SWAP2 POP PUSH2 0xA8C SWAP1 DUP3 PUSH2 0xEF6 JUMP JUMPDEST PUSH1 0x60 DUP7 ADD MSTORE POP JUMPDEST PUSH2 0xAAE DUP10 DUP7 DUP7 PUSH1 0x60 DUP6 ADD CALLDATALOAD PUSH2 0x7DD PUSH1 0xA0 DUP8 ADD PUSH1 0x80 DUP9 ADD PUSH2 0x531C JUMP JUMPDEST POP PUSH1 0x1 ADD PUSH2 0x971 JUMP JUMPDEST POP PUSH2 0xAC1 DUP4 PUSH2 0x11E4 JUMP JUMPDEST PUSH2 0xB53 JUMPI PUSH1 0x40 MLOAD PUSH4 0x5C5763B3 PUSH1 0xE0 SHL DUP2 MSTORE PUSH20 0x0 SWAP1 PUSH4 0x5C5763B3 SWAP1 PUSH2 0xB00 SWAP1 DUP11 SWAP1 DUP8 SWAP1 DUP7 SWAP1 PUSH1 0x4 ADD PUSH2 0x5761 JUMP JUMPDEST PUSH1 0xC0 PUSH1 0x40 MLOAD DUP1 DUP4 SUB DUP2 DUP7 DUP1 EXTCODESIZE ISZERO DUP1 ISZERO PUSH2 0xB18 JUMPI PUSH1 0x0 DUP1 REVERT JUMPDEST POP GAS DELEGATECALL ISZERO DUP1 ISZERO PUSH2 0xB2C JUMPI RETURNDATASIZE PUSH1 0x0 DUP1 RETURNDATACOPY RETURNDATASIZE PUSH1 0x0 REVERT JUMPDEST POP POP POP POP PUSH1 0x40 MLOAD RETURNDATASIZE PUSH1 0x1F NOT PUSH1 0x1F DUP3 ADD AND DUP3 ADD DUP1 PUSH1 0x40 MSTORE POP DUP2 ADD SWAP1 PUSH2 0xB50 SWAP2 SWAP1 PUSH2 0x539E JUMP JUMPDEST SWAP3 POP JUMPDEST POP SWAP1 SWAP2 POP POP JUMPDEST SWAP4 SWAP3 POP POP POP JUMP JUMPDEST PUSH2 0xB6A DUP2 DUP4 PUSH2 0x11F1 JUMP JUMPDEST PUSH1 0x20 DUP2 ADD MLOAD PUSH1 0x1 PUSH1 0x1 PUSH1 0xF8 SHL SUB NOT AND ISZERO PUSH2 0x939 JUMPI PUSH1 0x40 MLOAD PUSH4 0x6CCC642F PUSH1 0xE0 SHL DUP2 MSTORE PUSH20 0x0 SWAP1 PUSH4 0x6CCC642F SWAP1 PUSH2 0xBB5 SWAP1 DUP6 SWAP1 PUSH1 0x4 ADD PUSH2 0x5694 JUMP JUMPDEST PUSH1 0x0 PUSH1 0x40 MLOAD DUP1 DUP4 SUB DUP2 DUP7 DUP1 EXTCODESIZE ISZERO DUP1 ISZERO PUSH2 0xBCD JUMPI PUSH1 0x0 DUP1 REVERT JUMPDEST POP GAS DELEGATECALL ISZERO DUP1 ISZERO PUSH2 0x697 JUMPI RETURNDATASIZE PUSH1 0x0 DUP1 RETURNDATACOPY RETURNDATASIZE PUSH1 0x0 REVERT JUMPDEST PUSH2 0xBE9 PUSH2 0x4BE3 JUMP JUMPDEST PUSH1 0x0 PUSH2 0xBF4 DUP4 PUSH2 0x14E8 JUMP JUMPDEST SWAP1 POP PUSH2 0xBFF DUP2 PUSH2 0x1596 JUMP JUMPDEST ISZERO PUSH2 0xC95 JUMPI PUSH1 0x40 MLOAD PUSH4 0x37B5FC21 PUSH1 0xE1 SHL DUP2 MSTORE PUSH20 0x0 SWAP1 PUSH4 0x6F6BF842 SWAP1 PUSH2 0xC3D SWAP1 DUP7 SWAP1 DUP6 SWAP1 PUSH1 0x4 ADD PUSH2 0x5744 JUMP JUMPDEST PUSH1 0xC0 PUSH1 0x40 MLOAD DUP1 DUP4 SUB DUP2 DUP7 DUP1 EXTCODESIZE ISZERO DUP1 ISZERO PUSH2 0xC55 JUMPI PUSH1 0x0 DUP1 REVERT JUMPDEST POP GAS DELEGATECALL ISZERO DUP1 ISZERO PUSH2 0xC69 JUMPI RETURNDATASIZE PUSH1 0x0 DUP1 RETURNDATACOPY RETURNDATASIZE PUSH1 0x0 REVERT JUMPDEST POP POP POP POP PUSH1 0x40 MLOAD RETURNDATASIZE PUSH1 0x1F NOT PUSH1 0x1F DUP3 ADD AND DUP3 ADD DUP1 PUSH1 0x40 MSTORE POP DUP2 ADD SWAP1 PUSH2 0xC8D SWAP2 SWAP1 PUSH2 0x539E JUMP JUMPDEST SWAP2 POP POP PUSH2 0xC98 JUMP JUMPDEST SWAP1 POP JUMPDEST SWAP2 SWAP1 POP JUMP JUMPDEST PUSH2 0xCA5 PUSH2 0x4C18 JUMP JUMPDEST PUSH2 0xCAD PUSH2 0x4C18 JUMP JUMPDEST PUSH1 0xFF DUP5 AND PUSH2 0xCBC JUMPI SWAP1 POP PUSH2 0xB59 JUMP JUMPDEST PUSH2 0xCC6 DUP6 DUP6 PUSH2 0x15E7 JUMP JUMPDEST DUP2 MSTORE PUSH1 0xFF DUP5 AND PUSH1 0x60 DUP3 ADD MSTORE DUP3 PUSH1 0x1 PUSH1 0x1 PUSH1 0x40 SHL SUB DUP2 GT DUP1 ISZERO PUSH2 0xCE7 JUMPI PUSH1 0x0 DUP1 REVERT JUMPDEST POP PUSH1 0x40 MLOAD SWAP1 DUP1 DUP3 MSTORE DUP1 PUSH1 0x20 MUL PUSH1 0x20 ADD DUP3 ADD PUSH1 0x40 MSTORE DUP1 ISZERO PUSH2 0xD21 JUMPI DUP2 PUSH1 0x20 ADD JUMPDEST PUSH2 0xD0E PUSH2 0x4C40 JUMP JUMPDEST DUP2 MSTORE PUSH1 0x20 ADD SWAP1 PUSH1 0x1 SWAP1 SUB SWAP1 DUP2 PUSH2 0xD06 JUMPI SWAP1 POP JUMPDEST POP PUSH1 0x20 DUP3 ADD MSTORE SWAP5 SWAP4 POP POP POP POP JUMP JUMPDEST PUSH2 0xD38 DUP3 PUSH2 0x15F3 JUMP JUMPDEST PUSH2 0x120 DUP6 ADD MSTORE PUSH2 0xD4A DUP5 DUP5 DUP5 DUP5 PUSH2 0x1605 JUMP JUMPDEST POP POP POP POP JUMP JUMPDEST PUSH1 0x0 PUSH2 0xD5A PUSH2 0x4C18 JUMP JUMPDEST PUSH2 0xD63 DUP5 PUSH2 0x11E4 JUMP JUMPDEST ISZERO PUSH2 0xE53 JUMPI DUP7 PUSH2 0xFFFF AND DUP5 PUSH1 0x60 ADD MLOAD PUSH2 0xFFFF AND EQ PUSH2 0xD93 JUMPI PUSH1 0x40 MLOAD PUSH3 0x461BCD PUSH1 0xE5 SHL DUP2 MSTORE PUSH1 0x4 ADD PUSH2 0x19E SWAP1 PUSH2 0x59DE JUMP JUMPDEST PUSH1 0x60 DUP5 ADD MLOAD DUP5 MLOAD PUSH1 0x40 MLOAD PUSH4 0x3643F39B PUSH1 0xE0 SHL DUP2 MSTORE PUSH1 0x0 SWAP3 PUSH20 0x0 SWAP3 PUSH4 0x3643F39B SWAP3 PUSH2 0xDDA SWAP3 DUP15 SWAP3 SWAP1 SWAP2 DUP14 SWAP1 DUP14 SWAP1 PUSH1 0x4 ADD PUSH2 0x5829 JUMP JUMPDEST PUSH1 0x40 DUP1 MLOAD DUP1 DUP4 SUB DUP2 DUP7 DUP1 EXTCODESIZE ISZERO DUP1 ISZERO PUSH2 0xDF1 JUMPI PUSH1 0x0 DUP1 REVERT JUMPDEST POP GAS DELEGATECALL ISZERO DUP1 ISZERO PUSH2 0xE05 JUMPI RETURNDATASIZE PUSH1 0x0 DUP1 RETURNDATACOPY RETURNDATASIZE PUSH1 0x0 REVERT JUMPDEST POP POP POP POP PUSH1 0x40 MLOAD RETURNDATASIZE PUSH1 0x1F NOT PUSH1 0x1F DUP3 ADD AND DUP3 ADD DUP1 PUSH1 0x40 MSTORE POP DUP2 ADD SWAP1 PUSH2 0xE29 SWAP2 SWAP1 PUSH2 0x536F JUMP JUMPDEST SWAP1 SWAP4 POP SWAP1 POP DUP1 ISZERO PUSH2 0xE4D JUMPI PUSH1 0x20 DUP6 ADD DUP1 MLOAD PUSH1 0x1 PUSH1 0xF8 SHL OR PUSH1 0x1 PUSH1 0x1 PUSH1 0xF8 SHL SUB NOT AND SWAP1 MSTORE JUMPDEST POP PUSH2 0xEEB JUMP JUMPDEST PUSH1 0x40 MLOAD PUSH4 0xB58F83ED PUSH1 0xE0 SHL DUP2 MSTORE PUSH20 0x0 SWAP1 PUSH4 0xB58F83ED SWAP1 PUSH2 0xE92 SWAP1 DUP12 SWAP1 DUP12 SWAP1 DUP9 SWAP1 DUP13 SWAP1 DUP13 SWAP1 PUSH1 0x4 ADD PUSH2 0x57B6 JUMP JUMPDEST PUSH1 0x0 PUSH1 0x40 MLOAD DUP1 DUP4 SUB DUP2 DUP7 DUP1 EXTCODESIZE ISZERO DUP1 ISZERO PUSH2 0xEAA JUMPI PUSH1 0x0 DUP1 REVERT JUMPDEST POP GAS DELEGATECALL ISZERO DUP1 ISZERO PUSH2 0xEBE JUMPI RETURNDATASIZE PUSH1 0x0 DUP1 RETURNDATACOPY RETURNDATASIZE PUSH1 0x0 REVERT JUMPDEST POP POP POP POP PUSH1 0x40 MLOAD RETURNDATASIZE PUSH1 0x0 DUP3 RETURNDATACOPY PUSH1 0x1F RETURNDATASIZE SWAP1 DUP2 ADD PUSH1 0x1F NOT AND DUP3 ADD PUSH1 0x40 MSTORE PUSH2 0xEE6 SWAP2 SWAP1 DUP2 ADD SWAP1 PUSH2 0x5440 JUMP JUMPDEST SWAP3 POP SWAP1 POP JUMPDEST SWAP7 POP SWAP7 SWAP5 POP POP POP POP POP JUMP JUMPDEST DUP2 DUP2 ADD DUP3 DUP2 SLT ISZERO PUSH1 0x0 DUP4 SLT ISZERO EQ PUSH2 0xF0C JUMPI PUSH1 0x0 DUP1 REVERT JUMPDEST SWAP3 SWAP2 POP POP JUMP JUMPDEST PUSH1 0x0 PUSH2 0xC95 PUSH1 0x0 NOT DUP4 PUSH2 0x16AD JUMP JUMPDEST PUSH2 0xF28 PUSH2 0x4C7F JUMP JUMPDEST PUSH2 0xC95 DUP3 PUSH1 0x1 PUSH2 0x16FB JUMP JUMPDEST PUSH1 0x0 PUSH2 0xB59 PUSH15 0xC097CE7BC90715B34B9F1000000000 PUSH2 0xF5F DUP6 PUSH1 0x0 ADD MLOAD DUP6 PUSH2 0x16AD SWAP1 SWAP2 SWAP1 PUSH4 0xFFFFFFFF AND JUMP JUMPDEST SWAP1 PUSH2 0x1795 JUMP JUMPDEST PUSH1 0x0 PUSH4 0x5F5E100 DUP4 PUSH1 0x40 ADD MLOAD SLT ISZERO PUSH2 0xF8D JUMPI PUSH2 0xF86 PUSH1 0x1 PUSH2 0x460 DUP6 DUP6 PUSH2 0x17C6 JUMP JUMPDEST SWAP1 POP PUSH2 0xF0C JUMP JUMPDEST PUSH2 0xB59 DUP4 PUSH2 0xF9C DUP5 PUSH1 0x1 PUSH2 0xEF6 JUMP JUMPDEST PUSH2 0x17C6 JUMP JUMPDEST PUSH1 0x0 DUP3 PUSH2 0xFB0 JUMPI POP PUSH1 0x0 PUSH2 0xFEC JUMP JUMPDEST PUSH1 0x0 DUP4 SGT PUSH2 0xFBD JUMPI PUSH1 0x0 DUP1 REVERT JUMPDEST PUSH2 0xFD3 DUP5 DUP7 PUSH1 0x0 ADD MLOAD DUP6 DUP9 PUSH2 0x120 ADD MLOAD DUP7 PUSH2 0x17FE JUMP JUMPDEST PUSH1 0x60 DUP8 ADD MLOAD SWAP1 SWAP3 POP PUSH2 0xFE6 SWAP2 POP DUP3 PUSH2 0xEF6 JUMP JUMPDEST PUSH1 0x60 DUP7 ADD MSTORE JUMPDEST SWAP5 SWAP4 POP POP POP POP JUMP JUMPDEST PUSH1 0x0 DUP1 PUSH2 0x1004 DUP5 PUSH2 0xFFFF AND PUSH2 0x18C0 JUMP JUMPDEST POP SWAP1 POP PUSH1 0x0 DUP2 PUSH1 0x1 PUSH1 0x1 PUSH1 0xA0 SHL SUB AND PUSH4 0x1EE10833 PUSH1 0x40 MLOAD DUP2 PUSH4 0xFFFFFFFF AND PUSH1 0xE0 SHL DUP2 MSTORE PUSH1 0x4 ADD PUSH1 0x20 PUSH1 0x40 MLOAD DUP1 DUP4 SUB DUP2 PUSH1 0x0 DUP8 DUP1 EXTCODESIZE ISZERO DUP1 ISZERO PUSH2 0x1044 JUMPI PUSH1 0x0 DUP1 REVERT JUMPDEST POP GAS CALL ISZERO DUP1 ISZERO PUSH2 0x1058 JUMPI RETURNDATASIZE PUSH1 0x0 DUP1 RETURNDATACOPY RETURNDATASIZE PUSH1 0x0 REVERT JUMPDEST POP POP POP POP PUSH1 0x40 MLOAD RETURNDATASIZE PUSH1 0x1F NOT PUSH1 0x1F DUP3 ADD AND DUP3 ADD DUP1 PUSH1 0x40 MSTORE POP DUP2 ADD SWAP1 PUSH2 0x107C SWAP2 SWAP1 PUSH2 0x5357 JUMP JUMPDEST SWAP1 POP PUSH1 0x0 DUP2 SGT PUSH2 0x108B JUMPI PUSH1 0x0 DUP1 REVERT JUMPDEST PUSH2 0x10A1 DUP2 PUSH2 0xF5F DUP7 PUSH8 0xDE0B6B3A7640000 PUSH2 0x16AD JUMP JUMPDEST SWAP6 SWAP5 POP POP POP POP POP JUMP JUMPDEST PUSH1 0x0 DUP2 PUSH2 0x10B9 JUMPI POP PUSH1 0x0 PUSH2 0xB59 JUMP JUMPDEST PUSH1 0x0 DUP3 SGT PUSH2 0x10C6 JUMPI PUSH1 0x0 DUP1 REVERT JUMPDEST PUSH1 0x0 PUSH2 0x10D9 DUP6 PUSH1 0x0 ADD MLOAD PUSH2 0xFFFF AND PUSH2 0x18F7 JUMP JUMPDEST DUP1 MLOAD SWAP1 SWAP2 POP PUSH1 0x1 PUSH1 0x1 PUSH1 0xA0 SHL SUB AND PUSH2 0x10F0 JUMPI PUSH1 0x0 DUP1 REVERT JUMPDEST PUSH1 0x1 DUP2 PUSH1 0x60 ADD MLOAD PUSH1 0x5 DUP2 GT ISZERO PUSH2 0x1102 JUMPI INVALID JUMPDEST EQ DUP1 PUSH2 0x111D JUMPI POP PUSH1 0x2 DUP2 PUSH1 0x60 ADD MLOAD PUSH1 0x5 DUP2 GT ISZERO PUSH2 0x111B JUMPI INVALID JUMPDEST EQ JUMPDEST ISZERO PUSH2 0x1155 JUMPI DUP5 MLOAD PUSH2 0x120 DUP7 ADD MLOAD PUSH2 0x1139 SWAP2 DUP4 SWAP2 DUP7 SWAP1 DUP9 SWAP1 PUSH2 0x190A JUMP JUMPDEST PUSH1 0x60 DUP7 ADD MLOAD SWAP1 SWAP3 POP PUSH2 0x114B SWAP1 DUP4 PUSH2 0xEF6 JUMP JUMPDEST PUSH1 0x60 DUP7 ADD MSTORE PUSH2 0x117D JUMP JUMPDEST PUSH1 0x4 DUP2 PUSH1 0x60 ADD MLOAD PUSH1 0x5 DUP2 GT ISZERO PUSH2 0x1167 JUMPI INVALID JUMPDEST EQ ISZERO PUSH2 0x7B JUMPI PUSH2 0x117A DUP6 DUP6 DUP6 PUSH1 0x0 PUSH2 0xFA1 JUMP JUMPDEST SWAP2 POP JUMPDEST POP SWAP4 SWAP3 POP POP POP JUMP JUMPDEST PUSH1 0x80 DUP4 ADD MLOAD ISZERO PUSH2 0x1194 JUMPI PUSH1 0x0 DUP1 REVERT JUMPDEST PUSH2 0xD4A DUP4 DUP4 DUP4 PUSH1 0x0 PUSH1 0x1 PUSH2 0x199B JUMP JUMPDEST PUSH1 0x0 DUP1 PUSH2 0x11B0 DUP5 DUP5 PUSH2 0x1B4B JUMP JUMPDEST SWAP2 POP SWAP2 POP DUP2 PUSH1 0x0 EQ ISZERO PUSH2 0x11C4 JUMPI POP POP PUSH2 0x939 JUMP JUMPDEST DUP2 DUP2 GT ISZERO PUSH2 0xD4A JUMPI PUSH1 0x40 MLOAD PUSH3 0x461BCD PUSH1 0xE5 SHL DUP2 MSTORE PUSH1 0x4 ADD PUSH2 0x19E SWAP1 PUSH2 0x588B JUMP JUMPDEST PUSH1 0x60 ADD MLOAD PUSH2 0xFFFF AND ISZERO ISZERO SWAP1 JUMP JUMPDEST PUSH1 0x0 PUSH2 0x11FB PUSH2 0x1BBC JUMP JUMPDEST PUSH1 0x1 PUSH1 0x1 PUSH1 0xA0 SHL SUB DUP4 AND PUSH1 0x0 DUP2 DUP2 MSTORE PUSH1 0x20 DUP4 DUP2 MSTORE PUSH1 0x40 DUP1 DUP4 KECCAK256 DUP9 MLOAD DUP2 SLOAD SWAP4 DUP11 ADD MLOAD DUP11 DUP5 ADD MLOAD PUSH1 0x60 DUP13 ADD MLOAD PUSH1 0x80 DUP14 ADD MLOAD PUSH1 0xA0 DUP15 ADD MLOAD PUSH5 0xFFFFFFFFFF NOT SWAP1 SWAP9 AND PUSH5 0xFFFFFFFFFF SWAP1 SWAP6 AND SWAP5 SWAP1 SWAP5 OR PUSH6 0xFF0000000000 NOT AND PUSH1 0x1 PUSH1 0x28 SHL PUSH1 0xF8 SWAP5 SWAP1 SWAP5 SHR SWAP4 SWAP1 SWAP4 MUL SWAP3 SWAP1 SWAP3 OR PUSH7 0xFF000000000000 NOT AND PUSH1 0x1 PUSH1 0x30 SHL PUSH1 0xFF SWAP1 SWAP3 AND SWAP2 SWAP1 SWAP2 MUL OR PUSH9 0xFFFF00000000000000 NOT AND PUSH1 0x1 PUSH1 0x38 SHL PUSH2 0xFFFF SWAP1 SWAP3 AND SWAP2 SWAP1 SWAP2 MUL OR PUSH27 0xFFFFFFFFFFFFFFFFFFFFFFFFFFFFFFFFFFFF000000000000000000 NOT AND PUSH1 0x1 PUSH1 0x48 SHL PUSH1 0x70 SWAP3 SWAP1 SWAP3 SHR SWAP2 SWAP1 SWAP2 MUL OR PUSH1 0xFF PUSH1 0xD8 SHL NOT AND PUSH1 0x1 PUSH1 0xD8 SHL SWAP4 ISZERO ISZERO SWAP4 SWAP1 SWAP4 MUL SWAP3 SWAP1 SWAP3 OR SWAP1 SWAP2 SSTORE MLOAD SWAP3 SWAP4 POP SWAP1 SWAP2 PUSH32 0x6BD4B121BCA854A191536A2CA891155C42EE2FB23F307FB34E8BC65CFCB5412E SWAP2 SWAP1 LOG2 POP POP POP JUMP JUMPDEST PUSH1 0x0 PUSH2 0x1319 DUP3 PUSH2 0x1BC9 JUMP JUMPDEST SWAP1 POP PUSH1 0x0 DUP1 DUP3 SLT ISZERO PUSH2 0x132A JUMPI PUSH1 0x0 DUP1 REVERT JUMPDEST PUSH1 0x0 DUP5 PUSH1 0x6 DUP2 GT ISZERO PUSH2 0x1338 JUMPI INVALID JUMPDEST EQ ISZERO PUSH2 0x1345 JUMPI POP POP PUSH2 0xD4A JUMP JUMPDEST PUSH1 0x1 DUP5 PUSH1 0x6 DUP2 GT ISZERO PUSH2 0x1353 JUMPI INVALID JUMPDEST EQ DUP1 PUSH2 0x136A JUMPI POP PUSH1 0x3 DUP5 PUSH1 0x6 DUP2 GT ISZERO PUSH2 0x1368 JUMPI INVALID JUMPDEST EQ JUMPDEST ISZERO PUSH2 0x1381 JUMPI PUSH2 0x137A DUP6 DUP8 DUP5 PUSH2 0x10AA JUMP JUMPDEST SWAP1 POP PUSH2 0x13CF JUMP JUMPDEST PUSH1 0x2 DUP5 PUSH1 0x6 DUP2 GT ISZERO PUSH2 0x138F JUMPI INVALID JUMPDEST EQ DUP1 PUSH2 0x13A6 JUMPI POP PUSH1 0x4 DUP5 PUSH1 0x6 DUP2 GT ISZERO PUSH2 0x13A4 JUMPI INVALID JUMPDEST EQ JUMPDEST ISZERO PUSH2 0x13B8 JUMPI PUSH2 0x137A DUP6 DUP8 DUP5 PUSH1 0x0 PUSH2 0xFA1 JUMP JUMPDEST PUSH1 0x6 DUP5 PUSH1 0x6 DUP2 GT ISZERO PUSH2 0x13C6 JUMPI INVALID JUMPDEST EQ ISZERO PUSH2 0x13CF JUMPI POP DUP1 JUMPDEST PUSH2 0x697 DUP7 DUP7 DUP7 DUP6 DUP6 PUSH2 0x1BE3 JUMP JUMPDEST PUSH1 0x0 PUSH2 0x13E7 DUP5 PUSH2 0x1BC9 JUMP JUMPDEST SWAP1 POP PUSH1 0x0 DUP2 SLT ISZERO PUSH2 0x13F7 JUMPI PUSH1 0x0 DUP1 REVERT JUMPDEST DUP5 MLOAD PUSH2 0xFFFF AND PUSH1 0x1 EQ PUSH2 0x1421 JUMPI DUP2 PUSH2 0x1421 JUMPI PUSH1 0x40 MLOAD PUSH3 0x461BCD PUSH1 0xE5 SHL DUP2 MSTORE PUSH1 0x4 ADD PUSH2 0x19E SWAP1 PUSH2 0x5972 JUMP JUMPDEST DUP3 ISZERO PUSH2 0x1449 JUMPI PUSH1 0x60 DUP6 ADD MLOAD PUSH1 0x20 DUP7 ADD MLOAD PUSH2 0x143A SWAP2 PUSH2 0xEF6 JUMP JUMPDEST SWAP1 POP PUSH1 0x0 DUP2 SLT ISZERO PUSH2 0x1449 JUMPI POP PUSH1 0x0 JUMPDEST PUSH2 0x1452 DUP2 PUSH2 0xF12 JUMP JUMPDEST PUSH1 0x80 DUP7 ADD MSTORE PUSH2 0x1464 DUP6 DUP9 DUP9 DUP6 ISZERO PUSH2 0x1D68 JUMP JUMPDEST POP DUP5 MLOAD PUSH2 0x120 DUP7 ADD MLOAD PUSH2 0x1476 SWAP2 PUSH2 0x11A3 JUMP JUMPDEST POP POP POP POP POP POP POP JUMP JUMPDEST PUSH1 0x0 DUP1 PUSH1 0x0 DUP1 PUSH1 0x0 DUP1 PUSH2 0x1490 PUSH2 0x1D78 JUMP JUMPDEST PUSH1 0x1 PUSH1 0x1 PUSH1 0xA0 SHL SUB SWAP1 SWAP8 AND PUSH1 0x0 SWAP1 DUP2 MSTORE PUSH1 0x20 SWAP8 SWAP1 SWAP8 MSTORE POP POP PUSH1 0x40 SWAP1 SWAP5 KECCAK256 SLOAD PUSH2 0xFFFF DUP2 AND SWAP6 PUSH4 0xFFFFFFFF PUSH3 0x10000 DUP4 DIV DUP2 AND SWAP7 POP PUSH1 0x1 PUSH1 0x30 SHL DUP4 DIV AND SWAP5 POP PUSH1 0xFF PUSH1 0x1 PUSH1 0x50 SHL DUP4 DIV AND SWAP4 POP PUSH1 0x1 PUSH1 0x58 SHL SWAP1 SWAP2 DIV PUSH1 0xD0 SHL SWAP2 POP JUMP JUMPDEST PUSH2 0x14F0 PUSH2 0x4BE3 JUMP JUMPDEST PUSH1 0x0 PUSH2 0x14FA PUSH2 0x1BBC JUMP JUMPDEST PUSH1 0x1 PUSH1 0x1 PUSH1 0xA0 SHL SUB DUP5 AND PUSH1 0x0 SWAP1 DUP2 MSTORE PUSH1 0x20 SWAP2 DUP3 MSTORE PUSH1 0x40 SWAP1 DUP2 SWAP1 KECCAK256 DUP2 MLOAD PUSH1 0xC0 DUP2 ADD DUP4 MSTORE SWAP1 SLOAD PUSH5 0xFFFFFFFFFF DUP2 AND DUP3 MSTORE PUSH1 0x1 PUSH1 0x1 PUSH1 0xF8 SHL SUB NOT PUSH1 0x1 PUSH1 0x28 SHL DUP3 DIV PUSH1 0xF8 SHL AND SWAP4 DUP3 ADD SWAP4 SWAP1 SWAP4 MSTORE PUSH1 0xFF PUSH1 0x1 PUSH1 0x30 SHL DUP5 DIV DUP2 AND SWAP3 DUP3 ADD SWAP3 SWAP1 SWAP3 MSTORE PUSH2 0xFFFF PUSH1 0x1 PUSH1 0x38 SHL DUP5 DIV AND PUSH1 0x60 DUP3 ADD MSTORE PUSH1 0x1 PUSH1 0x1 PUSH1 0x70 SHL SUB NOT PUSH1 0x1 PUSH1 0x48 SHL DUP5 DIV PUSH1 0x70 SHL AND PUSH1 0x80 DUP3 ADD MSTORE PUSH1 0x1 PUSH1 0xD8 SHL SWAP1 SWAP3 DIV AND ISZERO ISZERO PUSH1 0xA0 DUP3 ADD MSTORE SWAP2 POP POP SWAP2 SWAP1 POP JUMP JUMPDEST PUSH1 0x0 TIMESTAMP PUSH2 0x15A2 DUP4 PUSH2 0x11E4 JUMP JUMPDEST ISZERO PUSH2 0x15C3 JUMPI PUSH2 0x15B0 DUP2 PUSH2 0x1D85 JUMP JUMPDEST DUP4 MLOAD PUSH5 0xFFFFFFFFFF AND LT SWAP2 POP PUSH2 0xC98 SWAP1 POP JUMP JUMPDEST DUP3 MLOAD PUSH5 0xFFFFFFFFFF AND ISZERO DUP1 ISZERO SWAP1 PUSH2 0xC8D JUMPI POP DUP3 MLOAD PUSH5 0xFFFFFFFFFF AND GT ISZERO SWAP1 POP PUSH2 0xC98 JUMP JUMPDEST PUSH1 0x60 PUSH2 0x117D DUP4 DUP4 PUSH2 0x1DA3 JUMP JUMPDEST PUSH2 0x15FB PUSH2 0x4CAE JUMP JUMPDEST PUSH2 0xC95 DUP3 TIMESTAMP PUSH2 0x1DC4 JUMP JUMPDEST DUP2 PUSH2 0xFFFF AND PUSH1 0x0 LT DUP1 ISZERO PUSH2 0x161F JUMPI POP PUSH2 0x3FFF PUSH2 0xFFFF DUP4 AND GT ISZERO JUMPDEST PUSH2 0x1628 JUMPI PUSH1 0x0 DUP1 REVERT JUMPDEST PUSH2 0xFFFF DUP3 AND DUP1 DUP6 MSTORE PUSH2 0x163B SWAP1 DUP3 SWAP1 PUSH2 0x1E85 JUMP JUMPDEST ISZERO PUSH2 0x166A JUMPI PUSH2 0x1650 DUP4 DUP4 DUP7 PUSH2 0x120 ADD MLOAD PUSH2 0x1F0F JUMP JUMPDEST PUSH2 0x100 DUP9 ADD MSTORE PUSH1 0xE0 DUP8 ADD MSTORE PUSH1 0x40 DUP7 ADD MSTORE PUSH1 0x20 DUP6 ADD MSTORE PUSH2 0x1688 JUMP JUMPDEST PUSH1 0x0 PUSH1 0x20 DUP6 ADD DUP2 SWAP1 MSTORE PUSH1 0x40 DUP6 ADD DUP2 SWAP1 MSTORE PUSH1 0xE0 DUP6 ADD DUP2 SWAP1 MSTORE PUSH2 0x100 DUP6 ADD MSTORE JUMPDEST POP POP PUSH1 0x0 PUSH1 0x60 DUP4 ADD DUP2 SWAP1 MSTORE PUSH1 0x80 DUP4 ADD DUP2 SWAP1 MSTORE PUSH1 0xA0 DUP4 ADD DUP2 SWAP1 MSTORE PUSH1 0xC0 SWAP1 SWAP3 ADD SWAP2 SWAP1 SWAP2 MSTORE POP JUMP JUMPDEST DUP2 DUP2 MUL PUSH1 0x0 NOT DUP4 EQ ISZERO PUSH2 0x16DD JUMPI DUP2 ISZERO DUP1 PUSH2 0x16CF JUMPI POP DUP3 DUP3 DUP3 DUP2 PUSH2 0x16CC JUMPI INVALID JUMPDEST SDIV EQ JUMPDEST PUSH2 0x16D8 JUMPI PUSH1 0x0 DUP1 REVERT JUMPDEST PUSH2 0xF0C JUMP JUMPDEST DUP3 ISZERO DUP1 PUSH2 0x16F2 JUMPI POP DUP2 DUP4 DUP3 DUP2 PUSH2 0x16EF JUMPI INVALID JUMPDEST SDIV EQ JUMPDEST PUSH2 0xF0C JUMPI PUSH1 0x0 DUP1 REVERT JUMPDEST PUSH2 0x1703 PUSH2 0x4C7F JUMP JUMPDEST PUSH1 0x0 PUSH2 0x170D PUSH2 0x1FC9 JUMP JUMPDEST PUSH1 0x0 DUP6 DUP2 MSTORE PUSH1 0x20 DUP3 DUP2 MSTORE PUSH1 0x40 DUP1 DUP4 KECCAK256 DUP8 ISZERO ISZERO DUP5 MSTORE DUP3 MSTORE SWAP2 DUP3 SWAP1 KECCAK256 DUP3 MLOAD PUSH1 0xA0 DUP2 ADD DUP5 MSTORE DUP2 SLOAD PUSH1 0x1 PUSH1 0x1 PUSH1 0xA0 SHL SUB DUP2 AND DUP3 MSTORE PUSH1 0xFF PUSH1 0x1 PUSH1 0xA0 SHL DUP3 DIV DUP2 AND ISZERO ISZERO SWAP5 DUP4 ADD SWAP5 SWAP1 SWAP5 MSTORE PUSH1 0x1 PUSH1 0xB0 SHL DUP2 DIV DUP5 AND PUSH1 0xA EXP SWAP5 DUP3 ADD SWAP5 SWAP1 SWAP5 MSTORE SWAP4 SWAP5 POP SWAP3 SWAP2 PUSH1 0x60 DUP4 ADD SWAP2 PUSH1 0x1 PUSH1 0xA8 SHL SWAP1 SWAP2 DIV AND PUSH1 0x5 DUP2 GT ISZERO PUSH2 0x1782 JUMPI INVALID JUMPDEST DUP2 MSTORE PUSH1 0x0 PUSH1 0x20 SWAP1 SWAP2 ADD MSTORE SWAP6 SWAP5 POP POP POP POP POP JUMP JUMPDEST PUSH1 0x0 DUP2 PUSH1 0x0 NOT EQ DUP1 ISZERO PUSH2 0x17AB JUMPI POP PUSH1 0x1 PUSH1 0xFF SHL DUP4 EQ JUMPDEST ISZERO PUSH2 0x17B5 JUMPI PUSH1 0x0 DUP1 REVERT JUMPDEST DUP2 DUP4 DUP2 PUSH2 0x17BE JUMPI INVALID JUMPDEST SDIV SWAP4 SWAP3 POP POP POP JUMP JUMPDEST PUSH1 0x0 PUSH4 0x5F5E100 DUP4 PUSH1 0x40 ADD MLOAD EQ ISZERO PUSH2 0x17DF JUMPI POP DUP1 PUSH2 0xF0C JUMP JUMPDEST PUSH2 0xB59 PUSH4 0x5F5E100 PUSH2 0xF5F DUP6 PUSH1 0x40 ADD MLOAD DUP6 PUSH2 0x16AD SWAP1 SWAP2 SWAP1 PUSH4 0xFFFFFFFF AND JUMP JUMPDEST PUSH1 0x0 DUP1 PUSH1 0x0 PUSH2 0x180C DUP7 PUSH2 0x1FD6 JUMP JUMPDEST SWAP1 POP DUP1 PUSH2 0x1820 JUMPI PUSH1 0x0 DUP1 SWAP3 POP SWAP3 POP POP PUSH2 0x18B6 JUMP JUMPDEST PUSH1 0x0 PUSH2 0x182F DUP9 PUSH2 0xFFFF AND PUSH2 0xF20 JUMP JUMPDEST SWAP1 POP PUSH1 0x3 DUP2 PUSH1 0x60 ADD MLOAD PUSH1 0x5 DUP2 GT ISZERO PUSH2 0x1843 JUMPI INVALID JUMPDEST EQ ISZERO PUSH2 0x188A JUMPI CALLVALUE DUP3 LT ISZERO PUSH2 0x1863 JUMPI PUSH2 0x185E DUP10 DUP4 CALLVALUE SUB DUP8 PUSH2 0x1FE5 JUMP JUMPDEST PUSH2 0x1882 JUMP JUMPDEST CALLVALUE DUP3 EQ PUSH2 0x1882 JUMPI PUSH1 0x40 MLOAD PUSH3 0x461BCD PUSH1 0xE5 SHL DUP2 MSTORE PUSH1 0x4 ADD PUSH2 0x19E SWAP1 PUSH2 0x58DA JUMP JUMPDEST DUP7 SWAP4 POP PUSH2 0x18A4 JUMP JUMPDEST PUSH2 0x18A1 PUSH2 0x189C DUP3 PUSH1 0x0 ADD MLOAD DUP12 DUP6 PUSH2 0x20B2 JUMP JUMPDEST PUSH2 0x1BC9 JUMP JUMPDEST SWAP4 POP JUMPDEST PUSH2 0x18B1 DUP10 DUP10 DUP7 DUP5 DUP11 PUSH2 0x223A JUMP JUMPDEST SWAP3 POP POP POP JUMPDEST SWAP6 POP SWAP6 SWAP4 POP POP POP POP JUMP JUMPDEST PUSH1 0x0 DUP1 PUSH1 0x0 PUSH2 0x18CD PUSH2 0x2281 JUMP JUMPDEST PUSH1 0x0 SWAP5 DUP6 MSTORE PUSH1 0x20 MSTORE POP POP PUSH1 0x40 SWAP1 SWAP2 KECCAK256 SLOAD PUSH1 0x1 PUSH1 0x1 PUSH1 0xA0 SHL SUB DUP2 AND SWAP3 PUSH1 0x1 PUSH1 0xA0 SHL SWAP1 SWAP2 DIV PUSH1 0xFF AND SWAP2 POP JUMP JUMPDEST PUSH2 0x18FF PUSH2 0x4C7F JUMP JUMPDEST PUSH2 0xC95 DUP3 PUSH1 0x0 PUSH2 0x16FB JUMP JUMPDEST PUSH1 0x0 PUSH2 0x191B DUP7 PUSH1 0x0 ADD MLOAD DUP5 DUP7 PUSH2 0x20B2 JUMP JUMPDEST SWAP4 POP PUSH1 0x0 PUSH2 0x192C DUP7 PUSH2 0xFFFF AND PUSH2 0xF20 JUMP JUMPDEST SWAP1 POP PUSH1 0x0 PUSH1 0x2 DUP9 PUSH1 0x60 ADD MLOAD PUSH1 0x5 DUP2 GT ISZERO PUSH2 0x1942 JUMPI INVALID JUMPDEST EQ ISZERO PUSH2 0x195C JUMPI PUSH2 0x1955 PUSH2 0x189C DUP10 DUP9 PUSH2 0x228E JUMP JUMPDEST SWAP1 POP PUSH2 0x1982 JUMP JUMPDEST PUSH1 0x1 DUP9 PUSH1 0x60 ADD MLOAD PUSH1 0x5 DUP2 GT ISZERO PUSH2 0x196E JUMPI INVALID JUMPDEST EQ ISZERO PUSH2 0x7B JUMPI PUSH2 0x1955 PUSH2 0x189C DUP10 DUP5 DUP10 PUSH2 0x233F JUMP JUMPDEST PUSH2 0x198F DUP6 DUP9 DUP4 DUP6 DUP9 PUSH2 0x223A JUMP JUMPDEST SWAP9 SWAP8 POP POP POP POP POP POP POP POP JUMP JUMPDEST PUSH1 0x0 DUP1 PUSH2 0x19B8 DUP7 DUP9 PUSH1 0x0 ADD MLOAD DUP10 PUSH1 0x80 ADD MLOAD DUP11 PUSH2 0x120 ADD MLOAD DUP9 PUSH2 0x24FF JUMP JUMPDEST SWAP2 POP PUSH1 0x0 PUSH2 0x19D7 DUP9 PUSH1 0x80 ADD MLOAD DUP10 PUSH1 0x60 ADD MLOAD PUSH2 0xEF6 SWAP1 SWAP2 SWAP1 PUSH4 0xFFFFFFFF AND JUMP JUMPDEST SWAP1 POP DUP4 DUP1 ISZERO PUSH2 0x19E6 JUMPI POP PUSH1 0x0 DUP2 SLT JUMPDEST DUP1 ISZERO PUSH2 0x1A01 JUMPI POP PUSH1 0x20 DUP9 ADD MLOAD PUSH1 0x0 SWAP1 PUSH2 0x19FF SWAP1 DUP4 PUSH2 0xEF6 JUMP JUMPDEST SLT JUMPDEST ISZERO PUSH2 0x1A27 JUMPI DUP6 PUSH1 0xA0 ADD MLOAD PUSH2 0x1A27 JUMPI PUSH1 0x40 MLOAD PUSH3 0x461BCD PUSH1 0xE5 SHL DUP2 MSTORE PUSH1 0x4 ADD PUSH2 0x19E SWAP1 PUSH2 0x591F JUMP JUMPDEST DUP1 ISZERO PUSH2 0x1A46 JUMPI PUSH1 0x20 DUP9 ADD MLOAD PUSH2 0x1A3C SWAP1 DUP3 PUSH2 0xEF6 JUMP JUMPDEST PUSH1 0x20 DUP10 ADD MSTORE PUSH1 0x1 SWAP2 POP JUMPDEST PUSH1 0xA0 DUP9 ADD MLOAD ISZERO ISZERO DUP1 PUSH2 0x1A5B JUMPI POP PUSH1 0xC0 DUP9 ADD MLOAD ISZERO ISZERO JUMPDEST ISZERO PUSH2 0x1ABE JUMPI PUSH1 0x0 PUSH2 0x1A85 DUP10 PUSH1 0xC0 ADD MLOAD PUSH2 0x460 DUP12 PUSH1 0xA0 ADD MLOAD DUP13 PUSH1 0x40 ADD MLOAD PUSH2 0xEF6 SWAP1 SWAP2 SWAP1 PUSH4 0xFFFFFFFF AND JUMP JUMPDEST SWAP1 POP PUSH1 0x0 DUP2 SLT ISZERO PUSH2 0x1AA8 JUMPI PUSH1 0x40 MLOAD PUSH3 0x461BCD PUSH1 0xE5 SHL DUP2 MSTORE PUSH1 0x4 ADD PUSH2 0x19E SWAP1 PUSH2 0x5A37 JUMP JUMPDEST PUSH2 0x1AB3 DUP10 DUP10 DUP4 PUSH2 0x25A2 JUMP JUMPDEST POP PUSH1 0x40 DUP10 ADD MSTORE PUSH1 0x1 SWAP2 POP JUMPDEST DUP2 ISZERO PUSH2 0x1AED JUMPI PUSH2 0x1AED DUP8 DUP10 PUSH1 0x0 ADD MLOAD DUP11 PUSH1 0x20 ADD MLOAD DUP12 PUSH1 0x40 ADD MLOAD DUP13 PUSH1 0xE0 ADD MLOAD DUP14 PUSH2 0x100 ADD MLOAD DUP15 PUSH2 0x120 ADD MLOAD PUSH2 0x2699 JUMP JUMPDEST DUP8 MLOAD PUSH1 0x20 DUP10 ADD MLOAD PUSH2 0x1B1A SWAP2 PUSH2 0xFFFF AND SWAP1 ISZERO ISZERO DUP1 PUSH2 0x1B0D JUMPI POP PUSH1 0x40 DUP11 ADD MLOAD ISZERO ISZERO JUMPDEST DUP9 SWAP2 SWAP1 PUSH1 0x1 PUSH1 0xFE SHL PUSH2 0x27D4 JUMP JUMPDEST PUSH1 0x0 DUP9 PUSH1 0x20 ADD MLOAD SLT ISZERO PUSH2 0x1B40 JUMPI PUSH1 0x20 DUP7 ADD DUP1 MLOAD PUSH1 0x1 PUSH1 0xF9 SHL OR PUSH1 0x1 PUSH1 0x1 PUSH1 0xF8 SHL SUB NOT AND SWAP1 MSTORE JUMPDEST POP POP SWAP6 SWAP5 POP POP POP POP POP JUMP JUMPDEST PUSH1 0x0 DUP1 PUSH1 0x0 PUSH2 0x1B58 PUSH2 0x29DA JUMP JUMPDEST PUSH2 0xFFFF DUP6 AND PUSH1 0x0 SWAP1 DUP2 MSTORE PUSH1 0x20 SWAP2 SWAP1 SWAP2 MSTORE PUSH1 0x40 SWAP1 KECCAK256 PUSH1 0x1 DUP2 ADD SLOAD SWAP1 SWAP2 POP PUSH2 0x1B8A SWAP1 PUSH1 0x1 PUSH1 0x58 SHL SWAP1 DIV PUSH4 0xFFFFFFFF AND PUSH2 0x29E7 JUMP JUMPDEST DUP2 SLOAD SWAP1 SWAP4 POP PUSH1 0x1 PUSH1 0x28 SHL SWAP1 DIV PUSH1 0x1 PUSH1 0x1 PUSH1 0x58 SHL SUB AND PUSH2 0x1BB1 PUSH2 0x1BAC DUP8 DUP4 PUSH2 0xF33 JUMP JUMPDEST PUSH2 0x1FD6 JUMP JUMPDEST SWAP3 POP POP POP SWAP3 POP SWAP3 SWAP1 POP JUMP JUMPDEST PUSH1 0x0 DUP1 PUSH2 0xF0C PUSH1 0x1 PUSH2 0x29F5 JUMP JUMPDEST PUSH1 0x0 PUSH1 0x1 PUSH1 0x1 PUSH1 0xFF SHL SUB DUP3 GT ISZERO PUSH2 0x1BDF JUMPI PUSH1 0x0 DUP1 REVERT JUMPDEST POP SWAP1 JUMP JUMPDEST PUSH1 0x3 DUP4 PUSH1 0x6 DUP2 GT ISZERO PUSH2 0x1BF1 JUMPI INVALID JUMPDEST EQ DUP1 PUSH2 0x1C08 JUMPI POP PUSH1 0x4 DUP4 PUSH1 0x6 DUP2 GT ISZERO PUSH2 0x1C06 JUMPI INVALID JUMPDEST EQ JUMPDEST DUP1 PUSH2 0x1C1E JUMPI POP PUSH1 0x6 DUP4 PUSH1 0x6 DUP2 GT ISZERO PUSH2 0x1C1C JUMPI INVALID JUMPDEST EQ JUMPDEST ISZERO PUSH2 0x1C4F JUMPI PUSH1 0x60 DUP5 ADD MLOAD PUSH2 0x1C32 SWAP1 DUP3 PUSH2 0x2A0E JUMP JUMPDEST PUSH1 0x60 DUP6 ADD MSTORE PUSH1 0x40 MLOAD PUSH3 0x461BCD PUSH1 0xE5 SHL DUP2 MSTORE PUSH2 0x19E SWAP1 PUSH1 0x4 ADD PUSH2 0x5A15 JUMP JUMPDEST PUSH1 0x5 DUP4 PUSH1 0x6 DUP2 GT ISZERO PUSH2 0x1C5D JUMPI INVALID JUMPDEST EQ ISZERO PUSH2 0x1D61 JUMPI DUP2 PUSH2 0x1C87 DUP6 PUSH1 0xC0 ADD MLOAD PUSH2 0x460 DUP8 PUSH1 0xA0 ADD MLOAD DUP9 PUSH1 0x40 ADD MLOAD PUSH2 0xEF6 SWAP1 SWAP2 SWAP1 PUSH4 0xFFFFFFFF AND JUMP JUMPDEST SLT ISZERO PUSH2 0x1CA5 JUMPI PUSH1 0x40 MLOAD PUSH3 0x461BCD PUSH1 0xE5 SHL DUP2 MSTORE PUSH1 0x4 ADD PUSH2 0x19E SWAP1 PUSH2 0x59A7 JUMP JUMPDEST PUSH1 0xC0 DUP5 ADD MLOAD PUSH2 0x1CB4 SWAP1 DUP4 PUSH2 0x2A0E JUMP JUMPDEST PUSH1 0xC0 DUP6 ADD MSTORE DUP4 MLOAD PUSH1 0x40 MLOAD PUSH4 0xE22AAA3 PUSH1 0xE0 SHL DUP2 MSTORE PUSH1 0x0 SWAP2 PUSH20 0x0 SWAP2 PUSH4 0xE22AAA3 SWAP2 PUSH2 0x1CF8 SWAP2 DUP11 SWAP2 SWAP1 DUP9 SWAP1 PUSH1 0x4 ADD PUSH2 0x5791 JUMP JUMPDEST PUSH1 0x20 PUSH1 0x40 MLOAD DUP1 DUP4 SUB DUP2 DUP7 DUP1 EXTCODESIZE ISZERO DUP1 ISZERO PUSH2 0x1D10 JUMPI PUSH1 0x0 DUP1 REVERT JUMPDEST POP GAS DELEGATECALL ISZERO DUP1 ISZERO PUSH2 0x1D24 JUMPI RETURNDATASIZE PUSH1 0x0 DUP1 RETURNDATACOPY RETURNDATASIZE PUSH1 0x0 REVERT JUMPDEST POP POP POP POP PUSH1 0x40 MLOAD RETURNDATASIZE PUSH1 0x1F NOT PUSH1 0x1F DUP3 ADD AND DUP3 ADD DUP1 PUSH1 0x40 MSTORE POP DUP2 ADD SWAP1 PUSH2 0x1D48 SWAP2 SWAP1 PUSH2 0x5357 JUMP JUMPDEST PUSH1 0x60 DUP7 ADD MLOAD SWAP1 SWAP2 POP PUSH2 0x1D5A SWAP1 DUP3 PUSH2 0xEF6 JUMP JUMPDEST PUSH1 0x60 DUP7 ADD MSTORE POP JUMPDEST POP POP POP POP POP JUMP JUMPDEST PUSH1 0x0 PUSH2 0x10A1 DUP6 DUP6 DUP6 DUP6 PUSH1 0x1 PUSH2 0x199B JUMP JUMPDEST PUSH1 0x0 DUP1 PUSH2 0xF0C PUSH1 0x2 PUSH2 0x29F5 JUMP JUMPDEST PUSH1 0x0 PUSH3 0x15180 DUP3 LT ISZERO PUSH2 0x1D97 JUMPI PUSH1 0x0 DUP1 REVERT JUMPDEST POP PUSH3 0x15180 DUP2 MOD SWAP1 SUB SWAP1 JUMP JUMPDEST PUSH1 0x60 DUP1 PUSH2 0x1DB0 DUP5 DUP5 PUSH2 0x2A24 JUMP JUMPDEST SWAP2 POP PUSH2 0x1DBB DUP3 PUSH2 0x2B40 JUMP JUMPDEST SWAP1 POP SWAP3 POP SWAP3 SWAP1 POP JUMP JUMPDEST PUSH2 0x1DCC PUSH2 0x4CAE JUMP JUMPDEST PUSH1 0x0 PUSH2 0x1DD7 DUP5 PUSH2 0x2D00 JUMP JUMPDEST SWAP1 POP DUP3 DUP2 PUSH1 0x0 ADD MLOAD LT ISZERO PUSH2 0x1E16 JUMPI PUSH1 0x0 DUP1 PUSH2 0x1DF1 DUP7 PUSH2 0x2DC8 JUMP JUMPDEST SWAP1 POP PUSH2 0x1DFF DUP7 DUP5 DUP4 DUP9 PUSH2 0x2E45 JUMP JUMPDEST SWAP1 SWAP4 POP SWAP2 POP PUSH2 0x1E0F DUP7 DUP4 DUP6 PUSH2 0x2EE9 JUMP JUMPDEST POP POP PUSH2 0x1E23 JUMP JUMPDEST DUP1 MLOAD DUP4 EQ PUSH2 0x1E23 JUMPI PUSH1 0x0 DUP1 REVERT JUMPDEST PUSH1 0x40 MLOAD DUP1 PUSH1 0x60 ADD PUSH1 0x40 MSTORE DUP1 PUSH2 0x1E4C PUSH2 0x189C DUP5 PUSH1 0xA0 ADD MLOAD DUP6 PUSH1 0xC0 ADD MLOAD PUSH2 0x311D SWAP1 SWAP2 SWAP1 PUSH4 0xFFFFFFFF AND JUMP JUMPDEST DUP2 MSTORE PUSH1 0x20 ADD PUSH2 0x1E6F PUSH2 0x189C DUP5 PUSH1 0xA0 ADD MLOAD DUP6 PUSH1 0xE0 ADD MLOAD PUSH2 0x311D SWAP1 SWAP2 SWAP1 PUSH4 0xFFFFFFFF AND JUMP JUMPDEST DUP2 MSTORE PUSH1 0x20 ADD DUP3 PUSH1 0x60 ADD MLOAD DUP2 MSTORE POP SWAP2 POP POP SWAP3 SWAP2 POP POP JUMP JUMPDEST PUSH1 0x0 DUP2 ISZERO DUP1 ISZERO SWAP1 PUSH2 0x1E98 JUMPI POP PUSH2 0x3FFF DUP3 GT ISZERO JUMPDEST PUSH2 0x1EA1 JUMPI PUSH1 0x0 DUP1 REVERT JUMPDEST PUSH1 0x80 DUP4 ADD MLOAD PUSH1 0x60 DUP5 ADD MLOAD PUSH2 0xFFFF AND DUP4 EQ ISZERO PUSH2 0x1EC0 JUMPI PUSH1 0x1 SWAP2 POP POP PUSH2 0xF0C JUMP JUMPDEST PUSH1 0x1 PUSH1 0x1 PUSH1 0x70 SHL SUB NOT DUP2 AND ISZERO PUSH2 0x1F05 JUMPI PUSH1 0xF0 DUP2 SWAP1 SHR PUSH2 0x3FFF AND DUP4 DUP2 EQ ISZERO PUSH2 0x1EF2 JUMPI POP PUSH1 0x1 PUSH1 0xFE SHL SWAP1 DUP2 AND EQ SWAP1 POP PUSH2 0xF0C JUMP JUMPDEST POP PUSH1 0x10 SHL PUSH1 0x1 PUSH1 0x1 PUSH1 0x80 SHL SUB NOT AND PUSH2 0x1EC0 JUMP JUMPDEST POP PUSH1 0x0 SWAP4 SWAP3 POP POP POP JUMP JUMPDEST PUSH1 0x0 DUP1 PUSH1 0x0 DUP1 PUSH1 0x0 PUSH2 0x1F1F PUSH2 0x3144 JUMP JUMPDEST PUSH1 0x1 PUSH1 0x1 PUSH1 0xA0 SHL SUB DUP10 AND PUSH1 0x0 SWAP1 DUP2 MSTORE PUSH1 0x20 DUP3 DUP2 MSTORE PUSH1 0x40 DUP1 DUP4 KECCAK256 PUSH2 0xFFFF DUP13 AND DUP5 MSTORE SWAP1 SWAP2 MSTORE SWAP1 KECCAK256 DUP1 SLOAD PUSH1 0x1 PUSH1 0x1 PUSH1 0x50 SHL SUB DUP2 AND SWAP7 POP PUSH1 0x1 PUSH1 0x50 SHL SWAP1 DIV PUSH4 0xFFFFFFFF AND SWAP5 POP SWAP1 SWAP2 POP DUP4 ISZERO PUSH2 0x1F8C JUMPI DUP1 SLOAD PUSH2 0x1F85 SWAP1 PUSH1 0x1 PUSH1 0x70 SHL SWAP1 DIV PUSH7 0xFFFFFFFFFFFFFF AND PUSH2 0x29E7 JUMP JUMPDEST SWAP3 POP PUSH2 0x1FA1 JUMP JUMPDEST DUP1 SLOAD PUSH1 0x1 PUSH1 0x70 SHL SWAP1 DIV PUSH7 0xFFFFFFFFFFFFFF AND SWAP3 POP JUMPDEST DUP1 SLOAD PUSH2 0x1FBC SWAP1 DUP9 SWAP1 PUSH1 0x1 PUSH1 0xA8 SHL SWAP1 DIV PUSH1 0xA SWAP1 DUP2 SIGNEXTEND SWAP1 SIGNEXTEND PUSH2 0x3151 JUMP JUMPDEST SWAP6 POP POP POP SWAP4 POP SWAP4 POP SWAP4 POP SWAP4 JUMP JUMPDEST PUSH1 0x0 DUP1 PUSH2 0xF0C PUSH1 0x7 PUSH2 0x29F5 JUMP JUMPDEST PUSH1 0x0 DUP1 DUP3 SLT ISZERO PUSH2 0x1BDF JUMPI PUSH1 0x0 DUP1 REVERT JUMPDEST DUP1 ISZERO PUSH2 0x2077 JUMPI PUSH20 0xC02AAA39B223FE8D0A0E5C4F27EAD9083C756CC2 PUSH1 0x1 PUSH1 0x1 PUSH1 0xA0 SHL SUB AND PUSH4 0xD0E30DB0 DUP4 PUSH1 0x40 MLOAD DUP3 PUSH4 0xFFFFFFFF AND PUSH1 0xE0 SHL DUP2 MSTORE PUSH1 0x4 ADD PUSH1 0x0 PUSH1 0x40 MLOAD DUP1 DUP4 SUB DUP2 DUP6 DUP9 DUP1 EXTCODESIZE ISZERO DUP1 ISZERO PUSH2 0x203A JUMPI PUSH1 0x0 DUP1 REVERT JUMPDEST POP GAS CALL ISZERO DUP1 ISZERO PUSH2 0x204E JUMPI RETURNDATASIZE PUSH1 0x0 DUP1 RETURNDATACOPY RETURNDATASIZE PUSH1 0x0 REVERT JUMPDEST POP POP POP POP POP PUSH2 0x2072 PUSH20 0xC02AAA39B223FE8D0A0E5C4F27EAD9083C756CC2 DUP5 DUP5 PUSH2 0x3178 JUMP JUMPDEST PUSH2 0x20AD JUMP JUMPDEST PUSH1 0x40 MLOAD PUSH1 0x1 PUSH1 0x1 PUSH1 0xA0 SHL SUB DUP5 AND SWAP1 DUP4 ISZERO PUSH2 0x8FC MUL SWAP1 DUP5 SWAP1 PUSH1 0x0 DUP2 DUP2 DUP2 DUP6 DUP9 DUP9 CALL SWAP4 POP POP POP POP ISZERO DUP1 ISZERO PUSH2 0xD4A JUMPI RETURNDATASIZE PUSH1 0x0 DUP1 RETURNDATACOPY RETURNDATASIZE PUSH1 0x0 REVERT JUMPDEST POP POP POP JUMP JUMPDEST PUSH1 0x0 DUP1 DUP5 PUSH1 0x1 PUSH1 0x1 PUSH1 0xA0 SHL SUB AND PUSH4 0x70A08231 ADDRESS PUSH1 0x40 MLOAD DUP3 PUSH4 0xFFFFFFFF AND PUSH1 0xE0 SHL DUP2 MSTORE PUSH1 0x4 ADD DUP1 DUP3 PUSH1 0x1 PUSH1 0x1 PUSH1 0xA0 SHL SUB AND DUP2 MSTORE PUSH1 0x20 ADD SWAP2 POP POP PUSH1 0x20 PUSH1 0x40 MLOAD DUP1 DUP4 SUB DUP2 DUP7 DUP1 EXTCODESIZE ISZERO DUP1 ISZERO PUSH2 0x2102 JUMPI PUSH1 0x0 DUP1 REVERT JUMPDEST POP GAS STATICCALL ISZERO DUP1 ISZERO PUSH2 0x2116 JUMPI RETURNDATASIZE PUSH1 0x0 DUP1 RETURNDATACOPY RETURNDATASIZE PUSH1 0x0 REVERT JUMPDEST POP POP POP POP PUSH1 0x40 MLOAD RETURNDATASIZE PUSH1 0x20 DUP2 LT ISZERO PUSH2 0x212C JUMPI PUSH1 0x0 DUP1 REVERT JUMPDEST POP MLOAD PUSH1 0x40 DUP1 MLOAD PUSH4 0x23B872DD PUSH1 0xE0 SHL DUP2 MSTORE PUSH1 0x1 PUSH1 0x1 PUSH1 0xA0 SHL SUB DUP8 DUP2 AND PUSH1 0x4 DUP4 ADD MSTORE ADDRESS PUSH1 0x24 DUP4 ADD MSTORE PUSH1 0x44 DUP3 ADD DUP8 SWAP1 MSTORE SWAP2 MLOAD SWAP3 SWAP4 POP SWAP1 DUP8 AND SWAP2 PUSH4 0x23B872DD SWAP2 PUSH1 0x64 DUP1 DUP3 ADD SWAP3 PUSH1 0x0 SWAP3 SWAP1 SWAP2 SWAP1 DUP3 SWAP1 SUB ADD DUP2 DUP4 DUP8 DUP1 EXTCODESIZE ISZERO DUP1 ISZERO PUSH2 0x2189 JUMPI PUSH1 0x0 DUP1 REVERT JUMPDEST POP GAS CALL ISZERO DUP1 ISZERO PUSH2 0x219D JUMPI RETURNDATASIZE PUSH1 0x0 DUP1 RETURNDATACOPY RETURNDATASIZE PUSH1 0x0 REVERT JUMPDEST POP POP POP POP PUSH2 0x21A9 PUSH2 0x31EB JUMP JUMPDEST PUSH1 0x0 DUP6 PUSH1 0x1 PUSH1 0x1 PUSH1 0xA0 SHL SUB AND PUSH4 0x70A08231 ADDRESS PUSH1 0x40 MLOAD DUP3 PUSH4 0xFFFFFFFF AND PUSH1 0xE0 SHL DUP2 MSTORE PUSH1 0x4 ADD DUP1 DUP3 PUSH1 0x1 PUSH1 0x1 PUSH1 0xA0 SHL SUB AND DUP2 MSTORE PUSH1 0x20 ADD SWAP2 POP POP PUSH1 0x20 PUSH1 0x40 MLOAD DUP1 DUP4 SUB DUP2 DUP7 DUP1 EXTCODESIZE ISZERO DUP1 ISZERO PUSH2 0x21F8 JUMPI PUSH1 0x0 DUP1 REVERT JUMPDEST POP GAS STATICCALL ISZERO DUP1 ISZERO PUSH2 0x220C JUMPI RETURNDATASIZE PUSH1 0x0 DUP1 RETURNDATACOPY RETURNDATASIZE PUSH1 0x0 REVERT JUMPDEST POP POP POP POP PUSH1 0x40 MLOAD RETURNDATASIZE PUSH1 0x20 DUP2 LT ISZERO PUSH2 0x2222 JUMPI PUSH1 0x0 DUP1 REVERT JUMPDEST POP MLOAD SWAP1 POP PUSH2 0x2230 DUP2 DUP4 PUSH2 0x3258 JUMP JUMPDEST SWAP7 SWAP6 POP POP POP POP POP POP JUMP JUMPDEST PUSH1 0x0 DUP1 PUSH2 0x2247 DUP5 DUP7 PUSH2 0x326D JUMP JUMPDEST SWAP1 POP PUSH2 0x2253 DUP4 DUP3 PUSH2 0x329D JUMP JUMPDEST SWAP2 POP PUSH2 0x2260 DUP8 DUP8 DUP5 PUSH2 0x32BF JUMP JUMPDEST PUSH2 0x226B DUP7 DUP4 DUP4 PUSH2 0x3349 JUMP JUMPDEST DUP4 MLOAD PUSH2 0x2277 SWAP1 DUP7 PUSH2 0x344D JUMP JUMPDEST POP SWAP6 SWAP5 POP POP POP POP POP JUMP JUMPDEST PUSH1 0x0 DUP1 PUSH2 0xF0C PUSH1 0xF PUSH2 0x29F5 JUMP JUMPDEST DUP2 MLOAD PUSH1 0x40 MLOAD PUSH4 0xDB006A75 PUSH1 0xE0 SHL DUP2 MSTORE PUSH1 0x0 SWAP2 SELFBALANCE SWAP2 DUP4 SWAP2 PUSH1 0x1 PUSH1 0x1 PUSH1 0xA0 SHL SUB AND SWAP1 PUSH4 0xDB006A75 SWAP1 PUSH2 0x22C2 SWAP1 DUP8 SWAP1 PUSH1 0x4 ADD PUSH2 0x5A89 JUMP JUMPDEST PUSH1 0x20 PUSH1 0x40 MLOAD DUP1 DUP4 SUB DUP2 PUSH1 0x0 DUP8 DUP1 EXTCODESIZE ISZERO DUP1 ISZERO PUSH2 0x22DC JUMPI PUSH1 0x0 DUP1 REVERT JUMPDEST POP GAS CALL ISZERO DUP1 ISZERO PUSH2 0x22F0 JUMPI RETURNDATASIZE PUSH1 0x0 DUP1 RETURNDATACOPY RETURNDATASIZE PUSH1 0x0 REVERT JUMPDEST POP POP POP POP PUSH1 0x40 MLOAD RETURNDATASIZE PUSH1 0x1F NOT PUSH1 0x1F DUP3 ADD AND DUP3 ADD DUP1 PUSH1 0x40 MSTORE POP DUP2 ADD SWAP1 PUSH2 0x2314 SWAP2 SWAP1 PUSH2 0x5357 JUMP JUMPDEST SWAP1 POP DUP1 ISZERO PUSH2 0x2334 JUMPI PUSH1 0x40 MLOAD PUSH3 0x461BCD PUSH1 0xE5 SHL DUP2 MSTORE PUSH1 0x4 ADD PUSH2 0x19E SWAP1 PUSH2 0x58FF JUMP JUMPDEST SELFBALANCE PUSH2 0x2230 DUP2 DUP5 PUSH2 0x3258 JUMP JUMPDEST PUSH1 0x0 DUP1 DUP4 PUSH1 0x0 ADD MLOAD PUSH1 0x1 PUSH1 0x1 PUSH1 0xA0 SHL SUB AND PUSH4 0x70A08231 ADDRESS PUSH1 0x40 MLOAD DUP3 PUSH4 0xFFFFFFFF AND PUSH1 0xE0 SHL DUP2 MSTORE PUSH1 0x4 ADD PUSH2 0x2372 SWAP2 SWAP1 PUSH2 0x5694 JUMP JUMPDEST PUSH1 0x20 PUSH1 0x40 MLOAD DUP1 DUP4 SUB DUP2 DUP7 DUP1 EXTCODESIZE ISZERO DUP1 ISZERO PUSH2 0x238A JUMPI PUSH1 0x0 DUP1 REVERT JUMPDEST POP GAS STATICCALL ISZERO DUP1 ISZERO PUSH2 0x239E JUMPI RETURNDATASIZE PUSH1 0x0 DUP1 RETURNDATACOPY RETURNDATASIZE PUSH1 0x0 REVERT JUMPDEST POP POP POP POP PUSH1 0x40 MLOAD RETURNDATASIZE PUSH1 0x1F NOT PUSH1 0x1F DUP3 ADD AND DUP3 ADD DUP1 PUSH1 0x40 MSTORE POP DUP2 ADD SWAP1 PUSH2 0x23C2 SWAP2 SWAP1 PUSH2 0x5357 JUMP JUMPDEST SWAP1 POP PUSH1 0x0 DUP6 PUSH1 0x0 ADD MLOAD PUSH1 0x1 PUSH1 0x1 PUSH1 0xA0 SHL SUB AND PUSH4 0xDB006A75 DUP6 PUSH1 0x40 MLOAD DUP3 PUSH4 0xFFFFFFFF AND PUSH1 0xE0 SHL DUP2 MSTORE PUSH1 0x4 ADD PUSH2 0x23F6 SWAP2 SWAP1 PUSH2 0x5A89 JUMP JUMPDEST PUSH1 0x20 PUSH1 0x40 MLOAD DUP1 DUP4 SUB DUP2 PUSH1 0x0 DUP8 DUP1 EXTCODESIZE ISZERO DUP1 ISZERO PUSH2 0x2410 JUMPI PUSH1 0x0 DUP1 REVERT JUMPDEST POP GAS CALL ISZERO DUP1 ISZERO PUSH2 0x2424 JUMPI RETURNDATASIZE PUSH1 0x0 DUP1 RETURNDATACOPY RETURNDATASIZE PUSH1 0x0 REVERT JUMPDEST POP POP POP POP PUSH1 0x40 MLOAD RETURNDATASIZE PUSH1 0x1F NOT PUSH1 0x1F DUP3 ADD AND DUP3 ADD DUP1 PUSH1 0x40 MSTORE POP DUP2 ADD SWAP1 PUSH2 0x2448 SWAP2 SWAP1 PUSH2 0x5357 JUMP JUMPDEST SWAP1 POP DUP1 ISZERO PUSH2 0x2468 JUMPI PUSH1 0x40 MLOAD PUSH3 0x461BCD PUSH1 0xE5 SHL DUP2 MSTORE PUSH1 0x4 ADD PUSH2 0x19E SWAP1 PUSH2 0x58FF JUMP JUMPDEST DUP5 MLOAD PUSH1 0x40 MLOAD PUSH4 0x70A08231 PUSH1 0xE0 SHL DUP2 MSTORE PUSH1 0x0 SWAP2 PUSH1 0x1 PUSH1 0x1 PUSH1 0xA0 SHL SUB AND SWAP1 PUSH4 0x70A08231 SWAP1 PUSH2 0x2498 SWAP1 ADDRESS SWAP1 PUSH1 0x4 ADD PUSH2 0x5694 JUMP JUMPDEST PUSH1 0x20 PUSH1 0x40 MLOAD DUP1 DUP4 SUB DUP2 DUP7 DUP1 EXTCODESIZE ISZERO DUP1 ISZERO PUSH2 0x24B0 JUMPI PUSH1 0x0 DUP1 REVERT JUMPDEST POP GAS STATICCALL ISZERO DUP1 ISZERO PUSH2 0x24C4 JUMPI RETURNDATASIZE PUSH1 0x0 DUP1 RETURNDATACOPY RETURNDATASIZE PUSH1 0x0 REVERT JUMPDEST POP POP POP POP PUSH1 0x40 MLOAD RETURNDATASIZE PUSH1 0x1F NOT PUSH1 0x1F DUP3 ADD AND DUP3 ADD DUP1 PUSH1 0x40 MSTORE POP DUP2 ADD SWAP1 PUSH2 0x24E8 SWAP2 SWAP1 PUSH2 0x5357 JUMP JUMPDEST SWAP1 POP PUSH2 0x24F4 DUP2 DUP5 PUSH2 0x3258 JUMP JUMPDEST SWAP8 SWAP7 POP POP POP POP POP POP POP JUMP JUMPDEST PUSH1 0x0 DUP4 PUSH2 0x250E JUMPI POP PUSH1 0x0 PUSH2 0x10A1 JUMP JUMPDEST PUSH1 0x0 DUP5 SLT PUSH2 0x251B JUMPI PUSH1 0x0 DUP1 REVERT JUMPDEST PUSH1 0x0 PUSH2 0x252A DUP7 PUSH2 0xFFFF AND PUSH2 0xF20 JUMP JUMPDEST SWAP1 POP PUSH2 0x253A DUP2 PUSH2 0xF9C DUP7 DUP9 PUSH2 0xF33 JUMP JUMPDEST SWAP2 POP PUSH1 0x0 PUSH2 0x2547 DUP4 PUSH2 0xF12 JUMP JUMPDEST SWAP1 POP PUSH2 0x2554 DUP8 DUP4 DUP4 PUSH2 0x34A2 JUMP JUMPDEST PUSH1 0x3 DUP3 PUSH1 0x60 ADD MLOAD PUSH1 0x5 DUP2 GT ISZERO PUSH2 0x2566 JUMPI INVALID JUMPDEST EQ ISZERO PUSH2 0x257C JUMPI PUSH2 0x2577 DUP9 DUP3 DUP7 PUSH2 0x1FE5 JUMP JUMPDEST PUSH2 0x2589 JUMP JUMPDEST DUP2 MLOAD PUSH2 0x2589 SWAP1 DUP10 DUP4 PUSH2 0x3178 JUMP JUMPDEST PUSH2 0x2596 DUP9 DUP9 DUP6 DUP6 DUP10 PUSH2 0x223A JUMP JUMPDEST POP POP POP SWAP6 SWAP5 POP POP POP POP POP JUMP JUMPDEST DUP3 MLOAD PUSH1 0x0 SWAP1 TIMESTAMP SWAP1 DUP3 SWAP1 PUSH2 0x25B8 SWAP1 PUSH2 0xFFFF AND PUSH2 0x3590 JUMP JUMPDEST SWAP1 POP PUSH1 0x0 PUSH2 0x25C5 DUP3 PUSH2 0x35B6 JUMP JUMPDEST POP POP SWAP1 POP PUSH1 0x0 PUSH2 0x25DA DUP4 DUP10 PUSH1 0xC0 ADD MLOAD DUP7 PUSH2 0x3612 JUMP JUMPDEST SWAP1 POP PUSH2 0x25E8 DUP9 DUP5 DUP4 DUP10 PUSH2 0x36F5 JUMP JUMPDEST SWAP5 POP PUSH1 0x0 PUSH2 0x25F5 DUP5 PUSH2 0x3822 JUMP JUMPDEST SWAP1 POP PUSH1 0x1 PUSH1 0x1 PUSH1 0xA0 SHL SUB DUP2 AND ISZERO PUSH2 0x267D JUMPI DUP1 PUSH1 0x1 PUSH1 0x1 PUSH1 0xA0 SHL SUB AND PUSH4 0x3F3EF50D DUP10 DUP12 PUSH1 0x0 ADD MLOAD PUSH2 0x2628 DUP14 PUSH1 0x40 ADD MLOAD PUSH2 0x1FD6 JUMP JUMPDEST DUP12 DUP9 PUSH1 0x40 MLOAD DUP7 PUSH4 0xFFFFFFFF AND PUSH1 0xE0 SHL DUP2 MSTORE PUSH1 0x4 ADD PUSH2 0x264A SWAP6 SWAP5 SWAP4 SWAP3 SWAP2 SWAP1 PUSH2 0x57F7 JUMP JUMPDEST PUSH1 0x0 PUSH1 0x40 MLOAD DUP1 DUP4 SUB DUP2 PUSH1 0x0 DUP8 DUP1 EXTCODESIZE ISZERO DUP1 ISZERO PUSH2 0x2664 JUMPI PUSH1 0x0 DUP1 REVERT JUMPDEST POP GAS CALL ISZERO DUP1 ISZERO PUSH2 0x2678 JUMPI RETURNDATASIZE PUSH1 0x0 DUP1 RETURNDATACOPY RETURNDATASIZE PUSH1 0x0 REVERT JUMPDEST POP POP POP POP JUMPDEST DUP6 ISZERO PUSH2 0x268D JUMPI PUSH2 0x268D DUP9 DUP8 PUSH2 0x3894 JUMP JUMPDEST POP POP POP POP POP SWAP4 SWAP3 POP POP POP JUMP JUMPDEST PUSH1 0x0 PUSH2 0x26A3 PUSH2 0x3144 JUMP JUMPDEST PUSH1 0x1 PUSH1 0x1 PUSH1 0xA0 SHL SUB DUP10 AND PUSH1 0x0 SWAP1 DUP2 MSTORE PUSH1 0x20 DUP3 DUP2 MSTORE PUSH1 0x40 DUP1 DUP4 KECCAK256 PUSH2 0xFFFF DUP13 AND DUP5 MSTORE SWAP1 SWAP2 MSTORE SWAP1 KECCAK256 SWAP1 SWAP2 POP DUP5 PUSH2 0x270B JUMPI PUSH7 0xFFFFFFFFFFFFFF DUP5 GT ISZERO PUSH2 0x26E4 JUMPI PUSH1 0x0 DUP1 REVERT JUMPDEST DUP1 SLOAD PUSH7 0xFFFFFFFFFFFFFF PUSH1 0x70 SHL NOT AND PUSH1 0x1 PUSH1 0x70 SHL PUSH7 0xFFFFFFFFFFFFFF DUP7 AND MUL OR DUP2 SSTORE PUSH2 0x2725 JUMP JUMPDEST DUP1 SLOAD PUSH1 0x1 PUSH1 0x50 SHL SWAP1 DIV PUSH4 0xFFFFFFFF AND DUP6 EQ PUSH2 0x2725 JUMPI PUSH1 0x0 DUP1 REVERT JUMPDEST PUSH2 0x272E DUP6 PUSH2 0x38B3 JUMP JUMPDEST DUP2 SLOAD PUSH4 0xFFFFFFFF SWAP2 SWAP1 SWAP2 AND PUSH1 0x1 PUSH1 0x50 SHL MUL PUSH4 0xFFFFFFFF PUSH1 0x50 SHL NOT SWAP1 SWAP2 AND OR DUP2 SSTORE PUSH2 0x275F PUSH2 0x275A DUP8 PUSH2 0x1FD6 JUMP JUMPDEST PUSH2 0x38C6 JUMP JUMPDEST DUP2 SLOAD PUSH10 0xFFFFFFFFFFFFFFFFFFFF NOT AND PUSH1 0x1 PUSH1 0x1 PUSH1 0x50 SHL SUB SWAP2 SWAP1 SWAP2 AND OR DUP1 DUP3 SSTORE PUSH2 0x27A5 SWAP1 PUSH2 0x27A0 SWAP1 DUP6 SWAP1 DUP13 SWAP1 DUP13 SWAP1 PUSH1 0x1 PUSH1 0xA8 SHL SWAP1 DIV PUSH1 0xA SWAP1 DUP2 SIGNEXTEND SWAP1 SIGNEXTEND DUP13 PUSH2 0x38DC JUMP JUMPDEST PUSH2 0x38FF JUMP JUMPDEST DUP2 SLOAD PUSH1 0xA SWAP2 SWAP1 SWAP2 SIGNEXTEND PUSH1 0x1 PUSH1 0x1 PUSH1 0x58 SHL SUB AND PUSH1 0x1 PUSH1 0xA8 SHL MUL PUSH1 0x1 PUSH1 0x1 PUSH1 0xA8 SHL SUB SWAP1 SWAP2 AND OR SWAP1 SSTORE POP POP POP POP POP POP POP POP JUMP JUMPDEST DUP3 PUSH1 0x0 LT DUP1 ISZERO PUSH2 0x27E6 JUMPI POP PUSH2 0x3FFF DUP4 GT ISZERO JUMPDEST PUSH2 0x27EF JUMPI PUSH1 0x0 DUP1 REVERT JUMPDEST DUP2 DUP1 ISZERO PUSH2 0x2803 JUMPI POP DUP3 DUP5 PUSH1 0x60 ADD MLOAD PUSH2 0xFFFF AND EQ JUMPDEST ISZERO PUSH2 0x280D JUMPI PUSH2 0xD4A JUMP JUMPDEST PUSH1 0x80 DUP5 ADD MLOAD PUSH1 0x0 SWAP1 DUP2 JUMPDEST PUSH1 0x1 PUSH1 0x1 PUSH1 0x70 SHL SUB NOT DUP3 AND ISZERO PUSH2 0x298F JUMPI PUSH1 0xF0 DUP3 SWAP1 SHR PUSH2 0x3FFF AND DUP7 DUP2 EQ DUP1 ISZERO PUSH2 0x283C JUMPI POP DUP6 JUMPDEST ISZERO PUSH2 0x2874 JUMPI POP PUSH1 0x80 DUP8 ADD DUP1 MLOAD PUSH1 0x1 PUSH1 0x1 PUSH1 0xF0 SHL SUB NOT DUP7 AND PUSH1 0x10 SWAP1 SWAP4 MUL SWAP3 SWAP1 SWAP3 SHR SWAP2 SWAP1 SWAP2 OR PUSH1 0x1 PUSH1 0x1 PUSH1 0x70 SHL SUB NOT AND SWAP1 MSTORE POP PUSH2 0xD4A SWAP1 POP JUMP JUMPDEST DUP7 DUP2 EQ DUP1 ISZERO PUSH2 0x2881 JUMPI POP DUP6 ISZERO JUMPDEST ISZERO PUSH2 0x28DD JUMPI PUSH1 0x1 PUSH1 0x1 PUSH1 0xF0 SHL SUB NOT DUP6 AND NOT SWAP3 SWAP1 SWAP3 AND SWAP2 PUSH1 0x3 PUSH1 0xFE SHL DUP4 AND PUSH2 0x28BB JUMPI PUSH1 0x10 DUP4 PUSH14 0xFFFFFFFFFFFFFFFFFFFFFFFFFFFF NOT AND SWAP1 SHL SWAP3 POP JUMPDEST POP PUSH1 0x1 PUSH1 0x1 PUSH1 0x70 SHL SUB NOT SWAP2 DUP3 AND PUSH1 0x10 SWAP1 SWAP2 MUL SHR SWAP2 SWAP1 SWAP2 OR AND PUSH1 0x80 DUP6 ADD MSTORE PUSH2 0xD4A JUMP JUMPDEST DUP7 DUP2 GT DUP1 ISZERO PUSH2 0x28E9 JUMPI POP DUP6 JUMPDEST ISZERO PUSH2 0x2943 JUMPI PUSH1 0x80 DUP9 DUP2 ADD MLOAD PUSH1 0x1 PUSH1 0x1 PUSH1 0xF0 SHL SUB NOT PUSH1 0xF0 DUP11 SWAP1 SHL DUP9 OR DUP2 AND PUSH1 0x10 DUP7 MUL SHR SWAP7 SWAP1 SWAP7 OR SWAP6 SWAP2 SHL AND ISZERO PUSH2 0x291D JUMPI PUSH1 0x0 DUP1 REVERT JUMPDEST POP PUSH1 0x1 PUSH1 0x1 PUSH1 0x70 SHL SUB NOT SWAP2 DUP3 AND PUSH1 0x1 SWAP2 SWAP1 SWAP2 ADD PUSH1 0x10 MUL SHR SWAP2 SWAP1 SWAP2 OR AND PUSH1 0x80 DUP6 ADD MSTORE PUSH2 0xD4A JUMP JUMPDEST DUP7 DUP2 GT DUP1 ISZERO PUSH2 0x2950 JUMPI POP DUP6 ISZERO JUMPDEST ISZERO PUSH2 0x295E JUMPI POP POP POP POP PUSH2 0xD4A JUMP JUMPDEST POP PUSH1 0x1 PUSH1 0x1 PUSH1 0xF0 SHL SUB NOT DUP3 AND PUSH1 0x10 DUP3 DUP2 MUL SWAP2 SWAP1 SWAP2 SHR SWAP4 SWAP1 SWAP4 OR SWAP3 SWAP2 SWAP1 SWAP2 SHL PUSH1 0x1 PUSH1 0x1 PUSH1 0x80 SHL SUB NOT AND SWAP1 PUSH1 0x1 ADD PUSH2 0x2817 JUMP JUMPDEST DUP5 PUSH2 0x299C JUMPI POP POP POP PUSH2 0xD4A JUMP JUMPDEST PUSH1 0x9 DUP2 LT PUSH2 0x29A9 JUMPI PUSH1 0x0 DUP1 REVERT JUMPDEST PUSH1 0x1 PUSH1 0x1 PUSH1 0xF0 SHL SUB NOT PUSH1 0xF0 DUP8 SWAP1 SHL DUP6 OR AND PUSH1 0x10 SWAP1 SWAP2 MUL SHR SWAP2 SWAP1 SWAP2 OR PUSH1 0x1 PUSH1 0x1 PUSH1 0x70 SHL SUB NOT AND PUSH1 0x80 DUP7 ADD MSTORE POP POP POP POP POP JUMP JUMPDEST PUSH1 0x0 DUP1 PUSH2 0xF0C PUSH1 0x1D PUSH2 0x29F5 JUMP JUMPDEST PUSH1 0x8 DUP2 SWAP1 SHR PUSH1 0xFF SWAP1 SWAP2 AND SHL SWAP1 JUMP JUMPDEST PUSH1 0x0 PUSH3 0xF4240 DUP3 PUSH1 0x26 DUP2 GT ISZERO PUSH2 0x2A07 JUMPI INVALID JUMPDEST ADD SWAP3 SWAP2 POP POP JUMP JUMPDEST DUP1 DUP3 SUB DUP3 DUP2 SGT ISZERO PUSH1 0x0 DUP4 SLT ISZERO EQ PUSH2 0xF0C JUMPI PUSH1 0x0 DUP1 REVERT JUMPDEST PUSH1 0x60 PUSH1 0x8 DUP3 PUSH1 0xFF AND GT ISZERO PUSH2 0x2A37 JUMPI PUSH1 0x0 DUP1 REVERT JUMPDEST PUSH1 0x0 PUSH2 0x2A41 PUSH2 0x3931 JUMP JUMPDEST PUSH1 0x1 PUSH1 0x1 PUSH1 0xA0 SHL SUB DUP6 AND PUSH1 0x0 SWAP1 DUP2 MSTORE PUSH1 0x20 DUP3 SWAP1 MSTORE PUSH1 0x40 DUP2 KECCAK256 SWAP2 SWAP3 POP PUSH1 0xFF DUP6 AND PUSH1 0x1 PUSH1 0x1 PUSH1 0x40 SHL SUB DUP2 GT DUP1 ISZERO PUSH2 0x2A75 JUMPI PUSH1 0x0 DUP1 REVERT JUMPDEST POP PUSH1 0x40 MLOAD SWAP1 DUP1 DUP3 MSTORE DUP1 PUSH1 0x20 MUL PUSH1 0x20 ADD DUP3 ADD PUSH1 0x40 MSTORE DUP1 ISZERO PUSH2 0x2AAF JUMPI DUP2 PUSH1 0x20 ADD JUMPDEST PUSH2 0x2A9C PUSH2 0x4C40 JUMP JUMPDEST DUP2 MSTORE PUSH1 0x20 ADD SWAP1 PUSH1 0x1 SWAP1 SUB SWAP1 DUP2 PUSH2 0x2A94 JUMPI SWAP1 POP JUMPDEST POP SWAP1 POP PUSH1 0x0 JUMPDEST DUP6 PUSH1 0xFF AND DUP2 LT ISZERO PUSH2 0x2277 JUMPI PUSH1 0x0 DUP4 DUP3 PUSH1 0x8 DUP2 LT PUSH2 0x2ACE JUMPI INVALID JUMPDEST ADD SWAP1 POP PUSH1 0x0 DUP4 DUP4 DUP2 MLOAD DUP2 LT PUSH2 0x2ADF JUMPI INVALID JUMPDEST PUSH1 0x20 SWAP1 DUP2 MUL SWAP2 SWAP1 SWAP2 ADD DUP2 ADD MLOAD DUP4 SLOAD PUSH2 0xFFFF DUP2 AND DUP3 MSTORE PUSH5 0xFFFFFFFFFF PUSH3 0x10000 DUP3 DIV AND SWAP3 DUP3 ADD SWAP3 SWAP1 SWAP3 MSTORE PUSH1 0xFF PUSH1 0x1 PUSH1 0x38 SHL DUP4 DIV AND PUSH1 0x40 DUP3 ADD MSTORE PUSH9 0x10000000000000000 SWAP1 SWAP2 DIV PUSH1 0xA SWAP1 DUP2 SIGNEXTEND SWAP1 SIGNEXTEND PUSH1 0x60 DUP3 ADD MSTORE PUSH1 0x80 ADD SWAP2 SWAP1 SWAP2 MSTORE POP PUSH1 0x1 ADD PUSH2 0x2AB5 JUMP JUMPDEST DUP1 MLOAD PUSH1 0x60 SWAP1 DUP1 PUSH1 0x1 PUSH1 0x1 PUSH1 0x40 SHL SUB DUP2 GT DUP1 ISZERO PUSH2 0x2B5B JUMPI PUSH1 0x0 DUP1 REVERT JUMPDEST POP PUSH1 0x40 MLOAD SWAP1 DUP1 DUP3 MSTORE DUP1 PUSH1 0x20 MUL PUSH1 0x20 ADD DUP3 ADD PUSH1 0x40 MSTORE DUP1 ISZERO PUSH2 0x2B85 JUMPI DUP2 PUSH1 0x20 ADD PUSH1 0x20 DUP3 MUL DUP1 CALLDATASIZE DUP4 CALLDATACOPY ADD SWAP1 POP JUMPDEST POP SWAP2 POP PUSH1 0x0 JUMPDEST DUP2 DUP2 LT ISZERO PUSH2 0x2BE2 JUMPI PUSH1 0x0 DUP5 DUP3 DUP2 MLOAD DUP2 LT PUSH2 0x2BA1 JUMPI INVALID JUMPDEST PUSH1 0x20 MUL PUSH1 0x20 ADD ADD MLOAD SWAP1 POP PUSH2 0x2BC2 DUP2 PUSH1 0x0 ADD MLOAD DUP3 PUSH1 0x20 ADD MLOAD DUP4 PUSH1 0x40 ADD MLOAD PUSH2 0x393E JUMP JUMPDEST DUP5 DUP4 DUP2 MLOAD DUP2 LT PUSH2 0x2BCE JUMPI INVALID JUMPDEST PUSH1 0x20 SWAP1 DUP2 MUL SWAP2 SWAP1 SWAP2 ADD ADD MSTORE POP PUSH1 0x1 ADD PUSH2 0x2B8B JUMP JUMPDEST POP PUSH1 0x1 JUMPDEST DUP2 DUP2 LT ISZERO PUSH2 0x2CF9 JUMPI DUP1 JUMPDEST PUSH1 0x0 DUP2 GT DUP1 ISZERO PUSH2 0x2C28 JUMPI POP DUP4 DUP2 DUP2 MLOAD DUP2 LT PUSH2 0x2C07 JUMPI INVALID JUMPDEST PUSH1 0x20 MUL PUSH1 0x20 ADD ADD MLOAD DUP5 PUSH1 0x1 DUP4 SUB DUP2 MLOAD DUP2 LT PUSH2 0x2C1E JUMPI INVALID JUMPDEST PUSH1 0x20 MUL PUSH1 0x20 ADD ADD MLOAD GT JUMPDEST ISZERO PUSH2 0x2CF0 JUMPI DUP4 DUP2 DUP2 MLOAD DUP2 LT PUSH2 0x2C39 JUMPI INVALID JUMPDEST PUSH1 0x20 MUL PUSH1 0x20 ADD ADD MLOAD DUP5 PUSH1 0x1 DUP4 SUB DUP2 MLOAD DUP2 LT PUSH2 0x2C50 JUMPI INVALID JUMPDEST PUSH1 0x20 MUL PUSH1 0x20 ADD ADD MLOAD DUP6 PUSH1 0x1 DUP5 SUB DUP2 MLOAD DUP2 LT PUSH2 0x2C67 JUMPI INVALID JUMPDEST PUSH1 0x20 MUL PUSH1 0x20 ADD ADD DUP7 DUP5 DUP2 MLOAD DUP2 LT PUSH2 0x2C7A JUMPI INVALID JUMPDEST PUSH1 0x20 MUL PUSH1 0x20 ADD ADD DUP3 DUP2 MSTORE POP DUP3 DUP2 MSTORE POP POP POP DUP5 DUP2 DUP2 MLOAD DUP2 LT PUSH2 0x2C97 JUMPI INVALID JUMPDEST PUSH1 0x20 MUL PUSH1 0x20 ADD ADD MLOAD DUP6 PUSH1 0x1 DUP4 SUB DUP2 MLOAD DUP2 LT PUSH2 0x2CAE JUMPI INVALID JUMPDEST PUSH1 0x20 MUL PUSH1 0x20 ADD ADD MLOAD DUP7 PUSH1 0x1 DUP5 SUB DUP2 MLOAD DUP2 LT PUSH2 0x2CC5 JUMPI INVALID JUMPDEST PUSH1 0x20 MUL PUSH1 0x20 ADD ADD DUP8 DUP5 DUP2 MLOAD DUP2 LT PUSH2 0x2CD8 JUMPI INVALID JUMPDEST PUSH1 0x20 SWAP1 DUP2 MUL SWAP2 SWAP1 SWAP2 ADD ADD SWAP2 SWAP1 SWAP2 MSTORE MSTORE PUSH1 0x0 NOT ADD PUSH2 0x2BF0 JUMP JUMPDEST POP PUSH1 0x1 ADD PUSH2 0x2BE6 JUMP JUMPDEST POP POP SWAP2 SWAP1 POP JUMP JUMPDEST PUSH2 0x2D08 PUSH2 0x4CCF JUMP JUMPDEST PUSH1 0x0 PUSH2 0x2D12 PUSH2 0x29DA JUMP JUMPDEST PUSH2 0xFFFF SWAP4 DUP5 AND PUSH1 0x0 SWAP1 DUP2 MSTORE PUSH1 0x20 SWAP2 DUP3 MSTORE PUSH1 0x40 SWAP1 DUP2 SWAP1 KECCAK256 DUP1 SLOAD PUSH5 0xFFFFFFFFFF DUP2 AND DUP7 MSTORE PUSH1 0x1 PUSH1 0x28 SHL DUP2 DIV PUSH1 0x1 PUSH1 0x1 PUSH1 0x58 SHL SUB SWAP1 DUP2 AND SWAP5 DUP8 ADD SWAP5 SWAP1 SWAP5 MSTORE PUSH1 0x1 DUP3 ADD SLOAD DUP5 AND SWAP3 DUP7 ADD SWAP3 SWAP1 SWAP3 MSTORE PUSH1 0x1 PUSH1 0xD8 SHL DUP3 DIV PUSH4 0xFFFFFFFF AND PUSH1 0x60 DUP7 ADD MSTORE PUSH1 0x1 PUSH1 0x80 SHL SWAP1 SWAP2 DIV SWAP1 SWAP2 AND PUSH1 0x80 DUP5 ADD MSTORE PUSH1 0x2 ADD SLOAD PUSH1 0x1 PUSH1 0x1 PUSH1 0x50 SHL SUB DUP1 DUP3 AND PUSH1 0xA0 DUP6 ADD MSTORE PUSH1 0x1 PUSH1 0x50 SHL DUP3 DIV DUP2 AND PUSH1 0xC0 DUP6 ADD MSTORE PUSH1 0x1 PUSH1 0xA0 SHL DUP3 DIV AND PUSH1 0xE0 DUP5 ADD MSTORE PUSH1 0x1 PUSH1 0xF0 SHL SWAP1 DIV PUSH1 0xFF AND PUSH2 0x12C MUL SWAP1 SWAP3 AND PUSH2 0x100 DUP3 ADD MSTORE SWAP2 SWAP1 POP JUMP JUMPDEST PUSH1 0x0 DUP1 PUSH2 0x2DD4 DUP4 PUSH2 0x3967 JUMP JUMPDEST PUSH1 0x1 PUSH1 0x1 PUSH1 0xA0 SHL SUB AND PUSH4 0xEF81F216 PUSH1 0x40 MLOAD DUP2 PUSH4 0xFFFFFFFF AND PUSH1 0xE0 SHL DUP2 MSTORE PUSH1 0x4 ADD PUSH1 0x40 DUP1 MLOAD DUP1 DUP4 SUB DUP2 PUSH1 0x0 DUP8 DUP1 EXTCODESIZE ISZERO DUP1 ISZERO PUSH2 0x2E0D JUMPI PUSH1 0x0 DUP1 REVERT JUMPDEST POP GAS CALL ISZERO DUP1 ISZERO PUSH2 0x2E21 JUMPI RETURNDATASIZE PUSH1 0x0 DUP1 RETURNDATACOPY RETURNDATASIZE PUSH1 0x0 REVERT JUMPDEST POP POP POP POP PUSH1 0x40 MLOAD RETURNDATASIZE PUSH1 0x1F NOT PUSH1 0x1F DUP3 ADD AND DUP3 ADD DUP1 PUSH1 0x40 MSTORE POP DUP2 ADD SWAP1 PUSH2 0xFEC SWAP2 SWAP1 PUSH2 0x5517 JUMP JUMPDEST PUSH2 0x2E4D PUSH2 0x4CCF JUMP JUMPDEST PUSH1 0x0 DUP1 PUSH1 0x0 PUSH2 0x2E5D DUP9 DUP7 DUP10 PUSH2 0x3997 JUMP JUMPDEST PUSH1 0xC0 DUP12 ADD SWAP3 SWAP1 SWAP3 MSTORE PUSH1 0xE0 DUP11 ADD SWAP3 SWAP1 SWAP3 MSTORE PUSH1 0x20 DUP10 ADD MLOAD SWAP2 SWAP4 POP SWAP2 POP PUSH2 0x2E81 SWAP1 DUP4 PUSH2 0x3AA2 JUMP JUMPDEST PUSH1 0x20 DUP9 ADD MSTORE PUSH1 0x80 DUP8 ADD MLOAD PUSH1 0x0 SWAP1 ISZERO PUSH2 0x2EAF JUMPI PUSH1 0x80 DUP9 ADD MLOAD PUSH2 0x2EAC SWAP1 PUSH2 0x2EA6 DUP10 DUP3 PUSH2 0x3258 JUMP JUMPDEST SWAP1 PUSH2 0x3AB4 JUMP JUMPDEST SWAP1 POP JUMPDEST PUSH2 0x2ECF PUSH2 0x2EC4 PUSH8 0xDE0B6B3A7640000 DUP4 PUSH2 0x3AA2 JUMP JUMPDEST PUSH1 0xA0 DUP11 ADD MLOAD SWAP1 PUSH2 0x3AD1 JUMP JUMPDEST PUSH1 0xA0 DUP10 ADD MSTORE POP POP PUSH1 0x80 DUP7 ADD SWAP5 SWAP1 SWAP5 MSTORE POP POP DUP3 MSTORE SWAP1 SWAP3 SWAP1 SWAP2 POP JUMP JUMPDEST PUSH1 0x0 PUSH2 0x2EF3 PUSH2 0x29DA JUMP JUMPDEST PUSH1 0x0 DUP6 PUSH2 0xFFFF AND DUP2 MSTORE PUSH1 0x20 ADD SWAP1 DUP2 MSTORE PUSH1 0x20 ADD PUSH1 0x0 KECCAK256 SWAP1 POP PUSH2 0x2F17 DUP3 PUSH1 0x0 ADD MLOAD PUSH2 0x3AEE JUMP JUMPDEST DUP2 SLOAD PUSH5 0xFFFFFFFFFF NOT AND PUSH5 0xFFFFFFFFFF SWAP2 SWAP1 SWAP2 AND OR DUP2 SSTORE PUSH1 0xA0 DUP3 ADD MLOAD PUSH2 0x2F3C SWAP1 PUSH2 0x38C6 JUMP JUMPDEST PUSH1 0x2 DUP3 ADD DUP1 SLOAD PUSH10 0xFFFFFFFFFFFFFFFFFFFF NOT AND PUSH1 0x1 PUSH1 0x1 PUSH1 0x50 SHL SUB SWAP3 SWAP1 SWAP3 AND SWAP2 SWAP1 SWAP2 OR SWAP1 SSTORE PUSH1 0xC0 DUP3 ADD MLOAD PUSH2 0x2F6F SWAP1 PUSH2 0x38C6 JUMP JUMPDEST DUP2 PUSH1 0x2 ADD PUSH1 0xA PUSH2 0x100 EXP DUP2 SLOAD DUP2 PUSH1 0x1 PUSH1 0x1 PUSH1 0x50 SHL SUB MUL NOT AND SWAP1 DUP4 PUSH1 0x1 PUSH1 0x1 PUSH1 0x50 SHL SUB AND MUL OR SWAP1 SSTORE POP PUSH2 0x2FA4 DUP3 PUSH1 0xE0 ADD MLOAD PUSH2 0x38C6 JUMP JUMPDEST DUP2 PUSH1 0x2 ADD PUSH1 0x14 PUSH2 0x100 EXP DUP2 SLOAD DUP2 PUSH1 0x1 PUSH1 0x1 PUSH1 0x50 SHL SUB MUL NOT AND SWAP1 DUP4 PUSH1 0x1 PUSH1 0x1 PUSH1 0x50 SHL SUB AND MUL OR SWAP1 SSTORE POP PUSH2 0x2FD9 DUP3 PUSH1 0x20 ADD MLOAD PUSH2 0x3B02 JUMP JUMPDEST DUP2 SLOAD PUSH1 0x1 PUSH1 0x1 PUSH1 0x58 SHL SUB SWAP2 SWAP1 SWAP2 AND PUSH1 0x1 PUSH1 0x28 SHL MUL PUSH16 0xFFFFFFFFFFFFFFFFFFFFFF0000000000 NOT SWAP1 SWAP2 AND OR DUP2 SSTORE PUSH1 0x40 DUP3 ADD MLOAD PUSH2 0x3013 SWAP1 PUSH2 0x3B02 JUMP JUMPDEST PUSH1 0x1 DUP3 ADD DUP1 SLOAD PUSH11 0xFFFFFFFFFFFFFFFFFFFFFF NOT AND PUSH1 0x1 PUSH1 0x1 PUSH1 0x58 SHL SUB SWAP3 SWAP1 SWAP3 AND SWAP2 SWAP1 SWAP2 OR SWAP1 SSTORE PUSH1 0x80 DUP3 ADD MLOAD PUSH2 0x3047 SWAP1 PUSH2 0x3B02 JUMP JUMPDEST DUP2 SLOAD PUSH1 0x1 PUSH1 0x1 PUSH1 0x58 SHL SUB SWAP2 SWAP1 SWAP2 AND PUSH1 0x1 PUSH1 0x80 SHL MUL PUSH11 0xFFFFFFFFFFFFFFFFFFFFFF PUSH1 0x80 SHL NOT SWAP1 SWAP2 AND OR DUP2 SSTORE PUSH1 0x60 DUP3 ADD MLOAD PUSH2 0x307F SWAP1 PUSH2 0x38B3 JUMP JUMPDEST DUP2 SLOAD PUSH4 0xFFFFFFFF SWAP2 SWAP1 SWAP2 AND PUSH1 0x1 PUSH1 0xD8 SHL MUL PUSH4 0xFFFFFFFF PUSH1 0xD8 SHL NOT SWAP1 SWAP2 AND OR DUP2 SSTORE DUP3 ISZERO PUSH2 0x30CB JUMPI PUSH1 0x0 PUSH2 0x30B0 DUP5 PUSH2 0x1BC9 JUMP JUMPDEST SWAP1 POP PUSH2 0x30BC DUP6 DUP3 PUSH2 0x3B18 JUMP JUMPDEST PUSH2 0x30C9 PUSH2 0xFEE DUP7 DUP4 PUSH2 0x32BF JUMP JUMPDEST POP JUMPDEST DUP4 PUSH2 0xFFFF AND PUSH32 0xEF25641E225E493886510CA1AD6584FA7B442B9FEA820A29D1DE3CE27D270FD2 DUP4 PUSH1 0xA0 ADD MLOAD DUP5 PUSH1 0xC0 ADD MLOAD DUP6 PUSH1 0xE0 ADD MLOAD PUSH1 0x40 MLOAD PUSH2 0x310F SWAP4 SWAP3 SWAP2 SWAP1 PUSH2 0x5A92 JUMP JUMPDEST PUSH1 0x40 MLOAD DUP1 SWAP2 SUB SWAP1 LOG2 POP POP POP POP JUMP JUMPDEST PUSH1 0x0 DUP3 PUSH2 0x312C JUMPI POP PUSH1 0x0 PUSH2 0xF0C JUMP JUMPDEST DUP3 DUP3 MUL DUP3 DUP5 DUP3 DUP2 PUSH2 0x3139 JUMPI INVALID JUMPDEST DIV EQ PUSH2 0xB59 JUMPI PUSH1 0x0 DUP1 REVERT JUMPDEST PUSH1 0x0 DUP1 PUSH2 0xF0C PUSH1 0x6 PUSH2 0x29F5 JUMP JUMPDEST PUSH1 0x0 DUP1 DUP3 SLT PUSH2 0x3161 JUMPI POP DUP1 PUSH2 0xF0C JUMP JUMPDEST DUP3 MLOAD PUSH1 0x20 DUP5 ADD MLOAD PUSH2 0xF86 SWAP2 SWAP1 PUSH2 0xF5F SWAP1 DUP6 SWAP1 PUSH2 0x16AD JUMP JUMPDEST DUP3 PUSH1 0x1 PUSH1 0x1 PUSH1 0xA0 SHL SUB AND PUSH4 0xA9059CBB DUP4 DUP4 PUSH1 0x40 MLOAD DUP4 PUSH4 0xFFFFFFFF AND PUSH1 0xE0 SHL DUP2 MSTORE PUSH1 0x4 ADD DUP1 DUP4 PUSH1 0x1 PUSH1 0x1 PUSH1 0xA0 SHL SUB AND DUP2 MSTORE PUSH1 0x20 ADD DUP3 DUP2 MSTORE PUSH1 0x20 ADD SWAP3 POP POP POP PUSH1 0x0 PUSH1 0x40 MLOAD DUP1 DUP4 SUB DUP2 PUSH1 0x0 DUP8 DUP1 EXTCODESIZE ISZERO DUP1 ISZERO PUSH2 0x31CF JUMPI PUSH1 0x0 DUP1 REVERT JUMPDEST POP GAS CALL ISZERO DUP1 ISZERO PUSH2 0x31E3 JUMPI RETURNDATASIZE PUSH1 0x0 DUP1 RETURNDATACOPY RETURNDATASIZE PUSH1 0x0 REVERT JUMPDEST POP POP POP POP PUSH2 0x20AD JUMPDEST PUSH1 0x0 PUSH2 0x31F5 PUSH2 0x4D1B JUMP JUMPDEST RETURNDATASIZE DUP1 ISZERO PUSH2 0x3209 JUMPI PUSH1 0x20 DUP2 EQ PUSH2 0x3212 JUMPI PUSH1 0x0 DUP1 REVERT JUMPDEST PUSH1 0x1 SWAP3 POP PUSH2 0x321D JUMP JUMPDEST PUSH1 0x20 PUSH1 0x0 DUP4 RETURNDATACOPY DUP2 MLOAD SWAP3 POP JUMPDEST POP DUP2 PUSH2 0x939 JUMPI PUSH1 0x40 DUP1 MLOAD PUSH3 0x461BCD PUSH1 0xE5 SHL DUP2 MSTORE PUSH1 0x20 PUSH1 0x4 DUP3 ADD MSTORE PUSH1 0x5 PUSH1 0x24 DUP3 ADD MSTORE PUSH5 0x455243323 PUSH1 0xDC SHL PUSH1 0x44 DUP3 ADD MSTORE SWAP1 MLOAD SWAP1 DUP2 SWAP1 SUB PUSH1 0x64 ADD SWAP1 REVERT JUMPDEST PUSH1 0x0 DUP3 DUP3 GT ISZERO PUSH2 0x3267 JUMPI PUSH1 0x0 DUP1 REVERT JUMPDEST POP SWAP1 SUB SWAP1 JUMP JUMPDEST PUSH1 0x0 PUSH4 0x5F5E100 DUP4 PUSH1 0x40 ADD MLOAD EQ ISZERO PUSH2 0x3286 JUMPI POP DUP1 PUSH2 0xF0C JUMP JUMPDEST PUSH1 0x40 DUP4 ADD MLOAD PUSH2 0xB59 SWAP1 PUSH2 0xF5F DUP5 PUSH4 0x5F5E100 PUSH2 0x16AD JUMP JUMPDEST DUP2 MLOAD PUSH1 0x0 SWAP1 PUSH2 0xB59 SWAP1 PUSH2 0xF5F DUP5 PUSH15 0xC097CE7BC90715B34B9F1000000000 PUSH2 0x16AD JUMP JUMPDEST PUSH1 0x0 PUSH2 0x32C9 PUSH2 0x3B4F JUMP JUMPDEST PUSH2 0xFFFF DUP5 AND PUSH1 0x0 SWAP1 DUP2 MSTORE PUSH1 0x20 SWAP2 SWAP1 SWAP2 MSTORE PUSH1 0x40 SWAP1 DUP2 SWAP1 KECCAK256 SLOAD SWAP1 MLOAD PUSH4 0xAD1C095D PUSH1 0xE0 SHL DUP2 MSTORE PUSH1 0x1 PUSH1 0x1 PUSH1 0xA0 SHL SUB SWAP1 SWAP2 AND SWAP2 POP DUP2 SWAP1 PUSH4 0xAD1C095D SWAP1 PUSH2 0x3311 SWAP1 DUP8 SWAP1 DUP7 SWAP1 PUSH1 0x4 ADD PUSH2 0x572B JUMP JUMPDEST PUSH1 0x0 PUSH1 0x40 MLOAD DUP1 DUP4 SUB DUP2 PUSH1 0x0 DUP8 DUP1 EXTCODESIZE ISZERO DUP1 ISZERO PUSH2 0x332B JUMPI PUSH1 0x0 DUP1 REVERT JUMPDEST POP GAS CALL ISZERO DUP1 ISZERO PUSH2 0x333F JUMPI RETURNDATASIZE PUSH1 0x0 DUP1 RETURNDATACOPY RETURNDATASIZE PUSH1 0x0 REVERT JUMPDEST POP POP POP POP POP POP POP POP JUMP JUMPDEST PUSH1 0x0 PUSH2 0x3353 PUSH2 0x29DA JUMP JUMPDEST PUSH2 0xFFFF DUP6 AND PUSH1 0x0 SWAP1 DUP2 MSTORE PUSH1 0x20 SWAP2 SWAP1 SWAP2 MSTORE PUSH1 0x40 SWAP1 KECCAK256 DUP1 SLOAD SWAP1 SWAP2 POP PUSH5 0xFFFFFFFFFF AND TIMESTAMP EQ PUSH2 0x337E JUMPI PUSH1 0x0 DUP1 REVERT JUMPDEST DUP1 SLOAD PUSH1 0x0 SWAP1 PUSH2 0x339D SWAP1 PUSH1 0x1 PUSH1 0x28 SHL SWAP1 DIV PUSH1 0x1 PUSH1 0x1 PUSH1 0x58 SHL SUB AND DUP6 PUSH2 0xEF6 JUMP JUMPDEST DUP3 SLOAD SWAP1 SWAP2 POP PUSH1 0x0 SWAP1 PUSH2 0x33BF SWAP1 PUSH1 0x1 PUSH1 0x80 SHL SWAP1 DIV PUSH1 0x1 PUSH1 0x1 PUSH1 0x58 SHL SUB AND DUP6 PUSH2 0xEF6 JUMP JUMPDEST SWAP1 POP DUP1 PUSH3 0x4C4B40 SGT ISZERO PUSH2 0x33D1 JUMPI PUSH1 0x0 DUP1 REVERT JUMPDEST PUSH2 0x33E2 PUSH2 0x33DD DUP3 PUSH2 0x1FD6 JUMP JUMPDEST PUSH2 0x3B02 JUMP JUMPDEST DUP4 SLOAD PUSH1 0x1 PUSH1 0x1 PUSH1 0x58 SHL SUB SWAP2 SWAP1 SWAP2 AND PUSH1 0x1 PUSH1 0x80 SHL MUL PUSH11 0xFFFFFFFFFFFFFFFFFFFFFF PUSH1 0x80 SHL NOT SWAP1 SWAP2 AND OR DUP4 SSTORE PUSH2 0x3418 PUSH2 0x33DD DUP4 PUSH2 0x1FD6 JUMP JUMPDEST DUP4 SLOAD PUSH1 0x1 PUSH1 0x1 PUSH1 0x58 SHL SUB SWAP2 SWAP1 SWAP2 AND PUSH1 0x1 PUSH1 0x28 SHL MUL PUSH16 0xFFFFFFFFFFFFFFFFFFFFFF0000000000 NOT SWAP1 SWAP2 AND OR DUP4 SSTORE PUSH2 0x697 DUP4 PUSH2 0x3B5C JUMP JUMPDEST PUSH1 0x0 PUSH2 0x3457 PUSH2 0x3C27 JUMP JUMPDEST PUSH1 0x1 PUSH1 0x1 PUSH1 0xA0 SHL SUB DUP5 AND PUSH1 0x0 SWAP1 DUP2 MSTORE PUSH1 0x20 DUP3 SWAP1 MSTORE PUSH1 0x40 SWAP1 KECCAK256 SLOAD SWAP1 SWAP2 POP PUSH2 0x3480 PUSH2 0x1BAC DUP3 DUP6 PUSH2 0xEF6 JUMP JUMPDEST PUSH1 0x1 PUSH1 0x1 PUSH1 0xA0 SHL SUB SWAP1 SWAP5 AND PUSH1 0x0 SWAP1 DUP2 MSTORE PUSH1 0x20 SWAP3 SWAP1 SWAP3 MSTORE POP PUSH1 0x40 SWAP1 KECCAK256 SWAP2 SWAP1 SWAP2 SSTORE POP JUMP JUMPDEST PUSH1 0x0 PUSH2 0x34AC PUSH2 0x3C27 JUMP JUMPDEST DUP4 MLOAD PUSH1 0x1 PUSH1 0x1 PUSH1 0xA0 SHL SUB AND PUSH1 0x0 SWAP1 DUP2 MSTORE PUSH1 0x20 DUP3 SWAP1 MSTORE PUSH1 0x40 SWAP1 KECCAK256 SLOAD SWAP1 SWAP2 POP DUP1 DUP4 GT PUSH2 0x34D7 JUMPI POP POP PUSH2 0x20AD JUMP JUMPDEST PUSH1 0x0 PUSH2 0x34E2 DUP7 PUSH2 0x3967 JUMP JUMPDEST SWAP1 POP PUSH1 0x0 DUP2 PUSH1 0x1 PUSH1 0x1 PUSH1 0xA0 SHL SUB AND PUSH4 0xB5E4DA23 DUP5 DUP8 SUB PUSH1 0x40 MLOAD DUP3 PUSH4 0xFFFFFFFF AND PUSH1 0xE0 SHL DUP2 MSTORE PUSH1 0x4 ADD PUSH2 0x3514 SWAP2 SWAP1 PUSH2 0x5A89 JUMP JUMPDEST PUSH1 0x0 PUSH1 0x40 MLOAD DUP1 DUP4 SUB DUP2 DUP7 DUP1 EXTCODESIZE ISZERO DUP1 ISZERO PUSH2 0x352C JUMPI PUSH1 0x0 DUP1 REVERT JUMPDEST POP GAS STATICCALL ISZERO DUP1 ISZERO PUSH2 0x3540 JUMPI RETURNDATASIZE PUSH1 0x0 DUP1 RETURNDATACOPY RETURNDATASIZE PUSH1 0x0 REVERT JUMPDEST POP POP POP POP PUSH1 0x40 MLOAD RETURNDATASIZE PUSH1 0x0 DUP3 RETURNDATACOPY PUSH1 0x1F RETURNDATASIZE SWAP1 DUP2 ADD PUSH1 0x1F NOT AND DUP3 ADD PUSH1 0x40 MSTORE PUSH2 0x3568 SWAP2 SWAP1 DUP2 ADD SWAP1 PUSH2 0x520F JUMP JUMPDEST SWAP1 POP PUSH1 0x0 PUSH2 0x3576 DUP8 DUP4 PUSH2 0x3C34 JUMP JUMPDEST SWAP2 POP PUSH2 0x3584 SWAP1 POP DUP5 DUP3 PUSH2 0x3AA2 JUMP JUMPDEST DUP7 GT ISZERO PUSH2 0x333F JUMPI PUSH1 0x0 DUP1 REVERT JUMPDEST PUSH1 0x0 DUP1 PUSH2 0x359B PUSH2 0x3E4B JUMP JUMPDEST PUSH1 0x0 SWAP4 DUP5 MSTORE PUSH1 0x20 MSTORE POP POP PUSH1 0x40 SWAP1 KECCAK256 SLOAD PUSH1 0x1 PUSH1 0x1 PUSH1 0xA0 SHL SUB AND SWAP1 JUMP JUMPDEST PUSH1 0x0 DUP1 PUSH1 0x0 DUP1 PUSH2 0x35C4 PUSH2 0x3E58 JUMP JUMPDEST PUSH1 0x1 PUSH1 0x1 PUSH1 0xA0 SHL SUB SWAP6 SWAP1 SWAP6 AND PUSH1 0x0 SWAP1 DUP2 MSTORE PUSH1 0x20 SWAP6 SWAP1 SWAP6 MSTORE POP POP PUSH1 0x40 SWAP1 SWAP3 KECCAK256 SLOAD PUSH1 0x1 PUSH1 0x1 PUSH1 0x60 SHL SUB DUP2 AND SWAP4 PUSH1 0x1 PUSH1 0x60 SHL DUP3 DIV PUSH1 0x1 PUSH1 0x1 PUSH1 0x80 SHL SUB AND SWAP4 POP PUSH1 0x1 PUSH1 0xE0 SHL SWAP1 SWAP2 DIV PUSH4 0xFFFFFFFF AND SWAP2 POP JUMP JUMPDEST PUSH1 0x0 DUP1 PUSH1 0x0 PUSH2 0x3621 DUP7 DUP6 PUSH2 0x3E65 JUMP JUMPDEST POP SWAP2 POP SWAP2 POP PUSH1 0x0 PUSH2 0x3630 PUSH2 0x3E58 JUMP JUMPDEST PUSH1 0x1 PUSH1 0x1 PUSH1 0xA0 SHL SUB DUP9 AND PUSH1 0x0 SWAP1 DUP2 MSTORE PUSH1 0x20 DUP3 SWAP1 MSTORE PUSH1 0x40 DUP2 KECCAK256 SWAP2 SWAP3 POP PUSH2 0x3655 DUP6 DUP10 PUSH2 0xEF6 JUMP JUMPDEST SWAP1 POP DUP1 PUSH1 0x0 SGT ISZERO DUP1 ISZERO PUSH2 0x366E JUMPI POP PUSH1 0x1 PUSH1 0x1 PUSH1 0x60 SHL SUB DUP2 LT JUMPDEST PUSH2 0x3677 JUMPI PUSH1 0x0 DUP1 REVERT JUMPDEST DUP2 SLOAD PUSH12 0xFFFFFFFFFFFFFFFFFFFFFFFF NOT AND PUSH1 0x1 PUSH1 0x1 PUSH1 0x60 SHL SUB DUP3 AND OR PUSH16 0xFFFFFFFFFFFFFFFFFFFFFFFFFFFFFFFF PUSH1 0x60 SHL NOT AND PUSH1 0x1 PUSH1 0x60 SHL PUSH1 0x1 PUSH1 0x1 PUSH1 0x80 SHL SUB DUP7 AND MUL OR DUP3 SSTORE PUSH4 0xFFFFFFFF DUP8 LT PUSH2 0x36CC JUMPI PUSH1 0x0 DUP1 REVERT JUMPDEST POP DUP1 SLOAD PUSH4 0xFFFFFFFF DUP8 AND PUSH1 0x1 PUSH1 0xE0 SHL MUL PUSH1 0x1 PUSH1 0x1 PUSH1 0xE0 SHL SUB SWAP1 SWAP2 AND OR SWAP1 SSTORE POP SWAP2 POP POP SWAP4 SWAP3 POP POP POP JUMP JUMPDEST PUSH1 0xE0 DUP5 ADD MLOAD PUSH1 0x0 SWAP1 ISZERO PUSH2 0x37B6 JUMPI PUSH20 0x0 PUSH4 0xE0C01A72 DUP6 PUSH2 0x372A DUP9 PUSH1 0x40 ADD MLOAD PUSH2 0x1FD6 JUMP JUMPDEST DUP9 PUSH1 0xE0 ADD MLOAD DUP10 PUSH2 0x100 ADD MLOAD PUSH1 0x40 MLOAD DUP6 PUSH4 0xFFFFFFFF AND PUSH1 0xE0 SHL DUP2 MSTORE PUSH1 0x4 ADD PUSH2 0x3754 SWAP5 SWAP4 SWAP3 SWAP2 SWAP1 PUSH2 0x5865 JUMP JUMPDEST PUSH1 0x20 PUSH1 0x40 MLOAD DUP1 DUP4 SUB DUP2 DUP7 DUP1 EXTCODESIZE ISZERO DUP1 ISZERO PUSH2 0x376C JUMPI PUSH1 0x0 DUP1 REVERT JUMPDEST POP GAS DELEGATECALL ISZERO DUP1 ISZERO PUSH2 0x3780 JUMPI RETURNDATASIZE PUSH1 0x0 DUP1 RETURNDATACOPY RETURNDATASIZE PUSH1 0x0 REVERT JUMPDEST POP POP POP POP PUSH1 0x40 MLOAD RETURNDATASIZE PUSH1 0x1F NOT PUSH1 0x1F DUP3 ADD AND DUP3 ADD DUP1 PUSH1 0x40 MSTORE POP DUP2 ADD SWAP1 PUSH2 0x37A4 SWAP2 SWAP1 PUSH2 0x5357 JUMP JUMPDEST PUSH1 0x0 PUSH1 0xE0 DUP8 ADD DUP2 SWAP1 MSTORE PUSH2 0x100 DUP8 ADD MSTORE SWAP1 POP JUMPDEST PUSH2 0x37F8 PUSH2 0x37F1 DUP7 PUSH2 0x100 ADD MLOAD PUSH2 0x37EB PUSH8 0xDE0B6B3A7640000 PUSH2 0x37E5 DUP9 PUSH2 0x37DF DUP13 PUSH1 0x40 ADD MLOAD PUSH2 0x1FD6 JUMP JUMPDEST SWAP1 PUSH2 0x311D JUMP JUMPDEST SWAP1 PUSH2 0x3EFB JUMP JUMPDEST SWAP1 PUSH2 0x3258 JUMP JUMPDEST DUP3 SWAP1 PUSH2 0x3AA2 JUMP JUMPDEST SWAP1 POP PUSH2 0x3810 PUSH8 0xDE0B6B3A7640000 PUSH2 0x37E5 DUP5 DUP7 PUSH2 0x311D JUMP JUMPDEST DUP6 PUSH2 0x100 ADD DUP2 DUP2 MSTORE POP POP SWAP5 SWAP4 POP POP POP POP JUMP JUMPDEST PUSH1 0x0 DUP1 PUSH2 0x382D PUSH2 0x1D78 JUMP JUMPDEST PUSH1 0x1 PUSH1 0x1 PUSH1 0xA0 SHL SUB DUP5 AND PUSH1 0x0 SWAP1 DUP2 MSTORE PUSH1 0x20 DUP3 SWAP1 MSTORE PUSH1 0x40 SWAP1 KECCAK256 DUP1 SLOAD SWAP2 SWAP3 POP SWAP1 PUSH1 0x1 PUSH1 0xF8 SHL SWAP1 DIV PUSH1 0xFF AND ISZERO PUSH2 0x3889 JUMPI PUSH2 0x3862 PUSH2 0x3F1A JUMP JUMPDEST PUSH1 0x1 PUSH1 0x1 PUSH1 0xA0 SHL SUB DUP1 DUP7 AND PUSH1 0x0 SWAP1 DUP2 MSTORE PUSH1 0x20 SWAP3 SWAP1 SWAP3 MSTORE PUSH1 0x40 SWAP1 SWAP2 KECCAK256 SLOAD AND SWAP3 POP PUSH2 0xC98 SWAP2 POP POP JUMP JUMPDEST PUSH1 0x0 SWAP3 POP POP POP PUSH2 0xC98 JUMP JUMPDEST PUSH2 0x939 PUSH20 0xCFEAEAD4947F0705A14EC42AC3D44129E1EF3ED5 DUP4 DUP4 PUSH2 0x3178 JUMP JUMPDEST PUSH1 0x0 PUSH4 0xFFFFFFFF DUP3 GT ISZERO PUSH2 0x1BDF JUMPI PUSH1 0x0 DUP1 REVERT JUMPDEST PUSH1 0x0 PUSH1 0x1 PUSH1 0x1 PUSH1 0x50 SHL SUB DUP3 GT ISZERO PUSH2 0x1BDF JUMPI PUSH1 0x0 DUP1 REVERT JUMPDEST PUSH1 0x0 PUSH2 0x38E8 DUP7 DUP4 PUSH2 0x3F27 JUMP JUMPDEST SWAP1 POP PUSH2 0x10A1 DUP7 DUP7 DUP7 PUSH2 0x38FA DUP8 DUP7 PUSH2 0x3F66 JUMP JUMPDEST PUSH2 0x3FED JUMP JUMPDEST PUSH1 0x0 PUSH11 0x7FFFFFFFFFFFFFFFFFFFFF NOT DUP3 SLT DUP1 ISZERO SWAP1 PUSH2 0x3928 JUMPI POP PUSH11 0x7FFFFFFFFFFFFFFFFFFFFF DUP3 SGT ISZERO JUMPDEST PUSH2 0x1BDF JUMPI PUSH1 0x0 DUP1 REVERT JUMPDEST PUSH1 0x0 DUP1 PUSH2 0xF0C PUSH1 0xD PUSH2 0x29F5 JUMP JUMPDEST PUSH8 0xFFFF000000000000 PUSH1 0x30 DUP5 SWAP1 SHL AND PUSH6 0xFFFFFFFFFF00 PUSH1 0x8 DUP5 SWAP1 SHL AND OR PUSH1 0xFF DUP3 AND OR SWAP4 SWAP3 POP POP POP JUMP JUMPDEST PUSH1 0x0 DUP1 PUSH2 0x3972 PUSH2 0x401A JUMP JUMPDEST PUSH2 0xFFFF SWAP4 SWAP1 SWAP4 AND PUSH1 0x0 SWAP1 DUP2 MSTORE PUSH1 0x20 SWAP4 SWAP1 SWAP4 MSTORE POP POP PUSH1 0x40 SWAP1 KECCAK256 SLOAD PUSH1 0x1 PUSH1 0x1 PUSH1 0xA0 SHL SUB AND SWAP1 JUMP JUMPDEST PUSH1 0x0 DUP1 PUSH1 0x0 DUP1 PUSH1 0x0 DUP1 PUSH2 0x39AA DUP10 DUP9 PUSH2 0x4027 JUMP JUMPDEST DUP10 MLOAD SWAP1 SWAP6 POP SWAP2 SWAP4 POP SWAP2 POP PUSH1 0x0 SWAP1 PUSH2 0x39D1 SWAP1 PUSH2 0x39C6 SWAP1 DUP12 SWAP1 PUSH2 0x3258 JUMP JUMPDEST PUSH4 0x3B9ACA00 SWAP1 PUSH2 0x311D JUMP JUMPDEST SWAP1 POP PUSH2 0x3A0B PUSH2 0x3A00 PUSH4 0x1DA9C00 PUSH2 0x39E8 DUP6 DUP6 PUSH2 0x311D JUMP JUMPDEST DUP2 PUSH2 0x39EF JUMPI INVALID JUMPDEST PUSH8 0xDE0B6B3A7640000 SWAP2 SWAP1 DIV PUSH2 0x3AA2 JUMP JUMPDEST PUSH1 0xE0 DUP11 ADD MLOAD SWAP1 PUSH2 0x3AD1 JUMP JUMPDEST SWAP7 POP PUSH2 0x3A2D PUSH2 0x3A22 PUSH4 0x1DA9C00 PUSH2 0x39E8 DUP8 DUP6 PUSH2 0x311D JUMP JUMPDEST PUSH1 0xC0 DUP11 ADD MLOAD SWAP1 PUSH2 0x3AD1 JUMP JUMPDEST SWAP6 POP DUP2 DUP4 EQ ISZERO PUSH2 0x3A44 JUMPI POP PUSH1 0x0 SWAP4 POP PUSH2 0x3A99 SWAP2 POP POP JUMP JUMPDEST PUSH1 0x0 PUSH2 0x3A66 PUSH2 0x3A5B PUSH4 0x1DA9C00 PUSH2 0x39E8 DUP8 DUP7 PUSH2 0x311D JUMP JUMPDEST PUSH1 0xE0 DUP12 ADD MLOAD SWAP1 PUSH2 0x3AD1 JUMP JUMPDEST SWAP1 POP PUSH1 0x0 PUSH2 0x3A74 DUP10 DUP4 PUSH2 0x3258 JUMP JUMPDEST SWAP1 POP PUSH2 0x3A91 DUP9 PUSH2 0x37E5 DUP4 DUP14 PUSH1 0x40 ADD MLOAD PUSH2 0x311D SWAP1 SWAP2 SWAP1 PUSH4 0xFFFFFFFF AND JUMP JUMPDEST SWAP7 POP POP POP POP POP POP JUMPDEST SWAP4 POP SWAP4 POP SWAP4 POP SWAP4 JUMP JUMPDEST PUSH1 0x0 DUP3 DUP3 ADD DUP4 DUP2 LT ISZERO PUSH2 0xB59 JUMPI PUSH1 0x0 DUP1 REVERT JUMPDEST PUSH1 0x0 PUSH2 0xB59 PUSH2 0x3ACB DUP5 PUSH8 0xDE0B6B3A7640000 PUSH2 0x311D JUMP JUMPDEST DUP4 PUSH2 0x3EFB JUMP JUMPDEST PUSH1 0x0 PUSH2 0xB59 PUSH2 0x3AE0 DUP5 DUP5 PUSH2 0x311D JUMP JUMPDEST PUSH8 0xDE0B6B3A7640000 PUSH2 0x3EFB JUMP JUMPDEST PUSH1 0x0 PUSH5 0xFFFFFFFFFF DUP3 GT ISZERO PUSH2 0x1BDF JUMPI PUSH1 0x0 DUP1 REVERT JUMPDEST PUSH1 0x0 PUSH1 0x1 PUSH1 0x1 PUSH1 0x58 SHL SUB DUP3 GT ISZERO PUSH2 0x1BDF JUMPI PUSH1 0x0 DUP1 REVERT JUMPDEST PUSH1 0x0 DUP2 SLT ISZERO PUSH2 0x3B26 JUMPI PUSH1 0x0 DUP1 REVERT JUMPDEST PUSH1 0x0 PUSH2 0x3B34 PUSH2 0xFEE DUP5 PUSH2 0x40C1 JUMP JUMPDEST SWAP1 POP PUSH2 0x3B40 DUP2 DUP4 PUSH2 0xEF6 JUMP JUMPDEST SWAP1 POP PUSH2 0x20AD PUSH2 0xFEE DUP5 DUP4 PUSH2 0x411A JUMP JUMPDEST PUSH1 0x0 DUP1 PUSH2 0xF0C PUSH1 0x21 PUSH2 0x29F5 JUMP JUMPDEST DUP1 SLOAD PUSH1 0x2 DUP3 ADD SLOAD PUSH1 0x0 SWAP2 PUSH2 0x3B9E SWAP2 PUSH1 0x1 PUSH1 0x28 SHL SWAP1 SWAP2 DIV PUSH1 0x1 PUSH1 0x1 PUSH1 0x58 SHL SUB AND SWAP1 PUSH2 0x3B98 SWAP1 PUSH1 0x1 PUSH1 0x1 PUSH1 0x50 SHL SUB PUSH1 0x1 PUSH1 0x50 SHL DUP3 DIV DUP2 AND SWAP2 AND PUSH2 0x16AD JUMP JUMPDEST SWAP1 PUSH2 0x16AD JUMP JUMPDEST PUSH1 0x1 DUP4 ADD SLOAD PUSH1 0x2 DUP5 ADD SLOAD SWAP2 SWAP3 POP PUSH1 0x0 SWAP2 PUSH2 0x3BD8 SWAP2 PUSH1 0x1 PUSH1 0x1 PUSH1 0x58 SHL SUB AND SWAP1 PUSH2 0x3B98 SWAP1 PUSH1 0x1 PUSH1 0x1 PUSH1 0x50 SHL SUB PUSH1 0x1 PUSH1 0xA0 SHL DUP3 DIV DUP2 AND SWAP2 AND PUSH2 0x16AD JUMP JUMPDEST DUP4 SLOAD SWAP1 SWAP2 POP PUSH1 0x0 SWAP1 PUSH2 0x3C0F SWAP1 PUSH1 0x1 PUSH1 0x1 PUSH1 0x1 PUSH1 0x58 SHL SUB PUSH1 0x1 PUSH1 0x80 SHL SWAP1 SWAP3 DIV DUP3 AND ADD AND PUSH15 0xC097CE7BC90715B34B9F1000000000 PUSH2 0x16AD JUMP JUMPDEST SWAP1 POP DUP1 PUSH2 0x3C1C DUP5 DUP5 PUSH2 0x2A0E JUMP JUMPDEST SGT ISZERO PUSH2 0xD4A JUMPI PUSH1 0x0 DUP1 REVERT JUMPDEST PUSH1 0x0 DUP1 PUSH2 0xF0C PUSH1 0x26 PUSH2 0x29F5 JUMP JUMPDEST PUSH1 0x0 DUP1 PUSH1 0x0 JUMPDEST DUP4 MLOAD DUP2 LT ISZERO PUSH2 0x3E43 JUMPI PUSH1 0x0 DUP5 DUP3 DUP2 MLOAD DUP2 LT PUSH2 0x3C51 JUMPI INVALID JUMPDEST PUSH1 0x20 MUL PUSH1 0x20 ADD ADD MLOAD SWAP1 POP PUSH1 0x0 DUP2 PUSH1 0x60 ADD MLOAD PUSH1 0x1 PUSH1 0x1 PUSH1 0xA0 SHL SUB AND PUSH4 0x70A08231 ADDRESS PUSH1 0x40 MLOAD DUP3 PUSH4 0xFFFFFFFF AND PUSH1 0xE0 SHL DUP2 MSTORE PUSH1 0x4 ADD PUSH2 0x3C8D SWAP2 SWAP1 PUSH2 0x5694 JUMP JUMPDEST PUSH1 0x20 PUSH1 0x40 MLOAD DUP1 DUP4 SUB DUP2 DUP7 DUP1 EXTCODESIZE ISZERO DUP1 ISZERO PUSH2 0x3CA5 JUMPI PUSH1 0x0 DUP1 REVERT JUMPDEST POP GAS STATICCALL ISZERO DUP1 ISZERO PUSH2 0x3CB9 JUMPI RETURNDATASIZE PUSH1 0x0 DUP1 RETURNDATACOPY RETURNDATASIZE PUSH1 0x0 REVERT JUMPDEST POP POP POP POP PUSH1 0x40 MLOAD RETURNDATASIZE PUSH1 0x1F NOT PUSH1 0x1F DUP3 ADD AND DUP3 ADD DUP1 PUSH1 0x40 MSTORE POP DUP2 ADD SWAP1 PUSH2 0x3CDD SWAP2 SWAP1 PUSH2 0x5357 JUMP JUMPDEST SWAP1 POP PUSH1 0x0 PUSH2 0x3CEB DUP9 ADDRESS PUSH2 0x418E JUMP JUMPDEST SWAP1 POP PUSH1 0x0 JUMPDEST DUP4 MLOAD MLOAD DUP2 LT ISZERO PUSH2 0x3D47 JUMPI PUSH2 0x3D36 DUP5 PUSH1 0x0 ADD MLOAD DUP3 DUP2 MLOAD DUP2 LT PUSH2 0x3D0D JUMPI INVALID JUMPDEST PUSH1 0x20 MUL PUSH1 0x20 ADD ADD MLOAD PUSH1 0x0 DUP7 PUSH1 0x20 ADD MLOAD DUP5 DUP2 MLOAD DUP2 LT PUSH2 0x3D27 JUMPI INVALID JUMPDEST PUSH1 0x20 MUL PUSH1 0x20 ADD ADD MLOAD PUSH1 0x1 PUSH2 0x4238 JUMP JUMPDEST PUSH2 0x3D3F JUMPI PUSH1 0x1 SWAP7 POP JUMPDEST PUSH1 0x1 ADD PUSH2 0x3CF0 JUMP JUMPDEST POP PUSH1 0x0 PUSH2 0x3D54 DUP10 ADDRESS PUSH2 0x418E JUMP JUMPDEST SWAP1 POP PUSH1 0x0 PUSH2 0x3D62 DUP3 DUP5 PUSH2 0x3258 JUMP JUMPDEST SWAP1 POP DUP1 DUP6 PUSH1 0x40 ADD MLOAD GT ISZERO PUSH2 0x3D75 JUMPI PUSH1 0x0 DUP1 REVERT JUMPDEST PUSH1 0x60 DUP6 ADD MLOAD PUSH1 0x40 MLOAD PUSH4 0x70A08231 PUSH1 0xE0 SHL DUP2 MSTORE PUSH1 0x0 SWAP2 PUSH1 0x1 PUSH1 0x1 PUSH1 0xA0 SHL SUB AND SWAP1 PUSH4 0x70A08231 SWAP1 PUSH2 0x3DA8 SWAP1 ADDRESS SWAP1 PUSH1 0x4 ADD PUSH2 0x5694 JUMP JUMPDEST PUSH1 0x20 PUSH1 0x40 MLOAD DUP1 DUP4 SUB DUP2 DUP7 DUP1 EXTCODESIZE ISZERO DUP1 ISZERO PUSH2 0x3DC0 JUMPI PUSH1 0x0 DUP1 REVERT JUMPDEST POP GAS STATICCALL ISZERO DUP1 ISZERO PUSH2 0x3DD4 JUMPI RETURNDATASIZE PUSH1 0x0 DUP1 RETURNDATACOPY RETURNDATASIZE PUSH1 0x0 REVERT JUMPDEST POP POP POP POP PUSH1 0x40 MLOAD RETURNDATASIZE PUSH1 0x1F NOT PUSH1 0x1F DUP3 ADD AND DUP3 ADD DUP1 PUSH1 0x40 MSTORE POP DUP2 ADD SWAP1 PUSH2 0x3DF8 SWAP2 SWAP1 PUSH2 0x5357 JUMP JUMPDEST SWAP1 POP DUP5 DUP2 GT ISZERO PUSH2 0x3E07 JUMPI PUSH1 0x0 DUP1 REVERT JUMPDEST PUSH2 0x3E16 DUP7 PUSH1 0x60 ADD MLOAD DUP7 DUP4 PUSH2 0x44A6 JUMP JUMPDEST PUSH2 0x3E20 DUP9 DUP4 PUSH2 0x3AA2 JUMP JUMPDEST SWAP8 POP PUSH2 0x3E31 DUP12 PUSH1 0x0 ADD MLOAD DUP6 DUP6 PUSH2 0x44A6 JUMP JUMPDEST POP POP PUSH1 0x1 SWAP1 SWAP5 ADD SWAP4 POP PUSH2 0x3C3A SWAP3 POP POP POP JUMP JUMPDEST POP SWAP3 POP SWAP3 SWAP1 POP JUMP JUMPDEST PUSH1 0x0 DUP1 PUSH2 0xF0C PUSH1 0x3 PUSH2 0x29F5 JUMP JUMPDEST PUSH1 0x0 DUP1 PUSH2 0xF0C PUSH1 0x11 PUSH2 0x29F5 JUMP JUMPDEST PUSH1 0x0 DUP1 PUSH1 0x0 PUSH2 0x3E73 DUP6 PUSH2 0x35B6 JUMP JUMPDEST SWAP2 SWAP5 POP SWAP3 POP SWAP1 POP DUP1 DUP5 GT DUP1 ISZERO PUSH2 0x3E89 JUMPI POP PUSH1 0x0 DUP2 GT JUMPDEST DUP1 ISZERO PUSH2 0x3E95 JUMPI POP PUSH1 0x0 DUP4 GT JUMPDEST ISZERO PUSH2 0x3EF4 JUMPI PUSH1 0x0 PUSH2 0x3EA5 DUP7 PUSH2 0x147F JUMP JUMPDEST POP POP POP SWAP2 POP POP PUSH1 0x0 PUSH2 0x3ED0 PUSH2 0x3EC7 PUSH4 0x5F5E100 DUP5 PUSH2 0x311D SWAP1 SWAP2 SWAP1 PUSH4 0xFFFFFFFF AND JUMP JUMPDEST DUP5 DUP9 SUB DUP8 PUSH2 0x4523 JUMP JUMPDEST SWAP1 POP PUSH2 0x3EDC DUP5 DUP3 PUSH2 0x3AA2 JUMP JUMPDEST SWAP4 POP PUSH1 0x1 PUSH1 0x1 PUSH1 0x80 SHL SUB DUP5 LT PUSH2 0x3EF1 JUMPI PUSH1 0x0 DUP1 REVERT JUMPDEST POP POP JUMPDEST SWAP3 POP SWAP3 POP SWAP3 JUMP JUMPDEST PUSH1 0x0 DUP1 DUP3 GT PUSH2 0x3F09 JUMPI PUSH1 0x0 DUP1 REVERT JUMPDEST DUP2 DUP4 DUP2 PUSH2 0x3F12 JUMPI INVALID JUMPDEST DIV SWAP4 SWAP3 POP POP POP JUMP JUMPDEST PUSH1 0x0 DUP1 PUSH2 0xF0C PUSH1 0x12 PUSH2 0x29F5 JUMP JUMPDEST PUSH1 0x0 DUP1 DUP3 SLT ISZERO PUSH2 0x3F60 JUMPI PUSH2 0x3F5B PUSH1 0x1 PUSH2 0x3F55 DUP6 PUSH1 0x20 ADD MLOAD PUSH2 0xF5F DUP8 PUSH1 0x0 ADD MLOAD DUP8 PUSH2 0x16AD SWAP1 SWAP2 SWAP1 PUSH4 0xFFFFFFFF AND JUMP JUMPDEST SWAP1 PUSH2 0x2A0E JUMP JUMPDEST PUSH2 0xB59 JUMP JUMPDEST POP SWAP2 SWAP1 POP JUMP JUMPDEST PUSH1 0x0 DUP2 DUP4 EQ DUP1 PUSH2 0x3F83 JUMPI POP PUSH1 0x0 DUP4 SLT ISZERO DUP1 ISZERO PUSH2 0x3F83 JUMPI POP PUSH1 0x0 DUP3 SLT ISZERO JUMPDEST ISZERO PUSH2 0x3F90 JUMPI POP PUSH1 0x0 PUSH2 0xF0C JUMP JUMPDEST PUSH1 0x0 DUP4 SGT ISZERO DUP1 ISZERO PUSH2 0x3FA1 JUMPI POP DUP2 PUSH1 0x0 SLT JUMPDEST ISZERO PUSH2 0x3FAD JUMPI POP DUP2 PUSH2 0xF0C JUMP JUMPDEST PUSH1 0x0 DUP3 SGT ISZERO DUP1 ISZERO PUSH2 0x3FBE JUMPI POP DUP3 PUSH1 0x0 SLT JUMPDEST ISZERO PUSH2 0x3FCC JUMPI PUSH2 0xF86 DUP3 PUSH2 0xF12 JUMP JUMPDEST PUSH1 0x0 DUP4 SGT ISZERO DUP1 ISZERO PUSH2 0x3FDE JUMPI POP PUSH1 0x0 DUP3 SGT ISZERO JUMPDEST ISZERO PUSH2 0x7B JUMPI PUSH2 0xF86 DUP4 DUP4 PUSH2 0x2A0E JUMP JUMPDEST DUP1 ISZERO PUSH2 0xD4A JUMPI DUP4 MLOAD PUSH1 0x20 DUP6 ADD MLOAD PUSH1 0x0 SWAP2 PUSH2 0x400C SWAP2 PUSH2 0xF5F SWAP1 DUP6 SWAP1 PUSH2 0x16AD JUMP JUMPDEST SWAP1 POP PUSH2 0x1D61 DUP5 DUP5 DUP5 DUP5 PUSH2 0x4545 JUMP JUMPDEST PUSH1 0x0 DUP1 PUSH2 0xF0C PUSH1 0x1F PUSH2 0x29F5 JUMP JUMPDEST PUSH1 0x0 DUP1 PUSH1 0x0 DUP1 PUSH1 0x0 DUP6 PUSH1 0x20 ADD MLOAD GT ISZERO PUSH2 0x4074 JUMPI PUSH2 0x4071 PUSH2 0x4058 DUP7 PUSH1 0xC0 ADD MLOAD DUP8 PUSH1 0x20 ADD MLOAD PUSH2 0x311D SWAP1 SWAP2 SWAP1 PUSH4 0xFFFFFFFF AND JUMP JUMPDEST PUSH1 0xE0 DUP8 ADD MLOAD PUSH1 0x40 DUP9 ADD MLOAD PUSH2 0x406B SWAP2 PUSH2 0x311D JUMP JUMPDEST SWAP1 PUSH2 0x4682 JUMP JUMPDEST SWAP1 POP JUMPDEST PUSH1 0x0 PUSH2 0x407F DUP8 PUSH2 0x4695 JUMP JUMPDEST SWAP1 POP PUSH2 0x408B DUP2 DUP4 PUSH2 0x46C8 JUMP JUMPDEST SWAP5 POP DUP2 ISZERO PUSH2 0x40A2 JUMPI PUSH2 0x409F DUP2 DUP7 PUSH1 0x1 PUSH2 0x4781 JUMP JUMPDEST SWAP4 POP JUMPDEST PUSH1 0x20 DUP7 ADD MLOAD ISZERO PUSH2 0x3EF1 JUMPI PUSH2 0x40B6 DUP6 DUP4 PUSH2 0x47F2 JUMP JUMPDEST SWAP3 POP POP POP SWAP3 POP SWAP3 POP SWAP3 JUMP JUMPDEST PUSH1 0x0 DUP1 PUSH2 0x40CC PUSH2 0x3144 JUMP JUMPDEST PUSH1 0x1 PUSH1 0x1 PUSH1 0xA0 SHL SUB DUP6 AND PUSH1 0x0 SWAP1 DUP2 MSTORE PUSH1 0x20 DUP3 DUP2 MSTORE PUSH1 0x40 DUP1 DUP4 KECCAK256 PUSH2 0xFFFF DUP9 AND DUP5 MSTORE SWAP1 SWAP2 MSTORE DUP2 KECCAK256 DUP1 SLOAD PUSH1 0x1 PUSH1 0xA8 SHL SWAP1 DIV PUSH1 0xA SWAP1 DUP2 SIGNEXTEND SWAP1 SIGNEXTEND SWAP5 POP SWAP2 SWAP3 POP DUP4 SLT ISZERO PUSH2 0x4112 JUMPI PUSH1 0x0 DUP1 REVERT JUMPDEST POP POP SWAP3 SWAP2 POP POP JUMP JUMPDEST PUSH1 0x0 DUP2 SLT ISZERO PUSH2 0x4128 JUMPI PUSH1 0x0 DUP1 REVERT JUMPDEST PUSH1 0x0 PUSH2 0x4132 PUSH2 0x3144 JUMP JUMPDEST PUSH1 0x1 PUSH1 0x1 PUSH1 0xA0 SHL SUB DUP6 AND PUSH1 0x0 SWAP1 DUP2 MSTORE PUSH1 0x20 DUP3 DUP2 MSTORE PUSH1 0x40 DUP1 DUP4 KECCAK256 PUSH2 0xFFFF DUP9 AND DUP5 MSTORE SWAP1 SWAP2 MSTORE SWAP1 KECCAK256 SWAP1 SWAP2 POP PUSH2 0x4163 DUP4 PUSH2 0x38FF JUMP JUMPDEST DUP2 SLOAD PUSH1 0xA SWAP2 SWAP1 SWAP2 SIGNEXTEND PUSH1 0x1 PUSH1 0x1 PUSH1 0x58 SHL SUB AND PUSH1 0x1 PUSH1 0xA8 SHL MUL PUSH1 0x1 PUSH1 0x1 PUSH1 0xA8 SHL SUB SWAP1 SWAP2 AND OR SWAP1 SSTORE POP POP POP POP JUMP JUMPDEST PUSH1 0x0 PUSH1 0x3 DUP4 PUSH1 0x60 ADD MLOAD PUSH1 0x5 DUP2 GT ISZERO PUSH2 0x41A2 JUMPI INVALID JUMPDEST EQ ISZERO PUSH2 0x41B9 JUMPI POP PUSH1 0x1 PUSH1 0x1 PUSH1 0xA0 SHL SUB DUP2 AND BALANCE PUSH2 0xF0C JUMP JUMPDEST DUP3 MLOAD PUSH1 0x40 MLOAD PUSH4 0x70A08231 PUSH1 0xE0 SHL DUP2 MSTORE PUSH1 0x1 PUSH1 0x1 PUSH1 0xA0 SHL SUB SWAP1 SWAP2 AND SWAP1 PUSH4 0x70A08231 SWAP1 PUSH2 0x41E8 SWAP1 DUP6 SWAP1 PUSH1 0x4 ADD PUSH2 0x5694 JUMP JUMPDEST PUSH1 0x20 PUSH1 0x40 MLOAD DUP1 DUP4 SUB DUP2 DUP7 DUP1 EXTCODESIZE ISZERO DUP1 ISZERO PUSH2 0x4200 JUMPI PUSH1 0x0 DUP1 REVERT JUMPDEST POP GAS STATICCALL ISZERO DUP1 ISZERO PUSH2 0x4214 JUMPI RETURNDATASIZE PUSH1 0x0 DUP1 RETURNDATACOPY RETURNDATASIZE PUSH1 0x0 REVERT JUMPDEST POP POP POP POP PUSH1 0x40 MLOAD RETURNDATASIZE PUSH1 0x1F NOT PUSH1 0x1F DUP3 ADD AND DUP3 ADD DUP1 PUSH1 0x40 MSTORE POP DUP2 ADD SWAP1 PUSH2 0xF86 SWAP2 SWAP1 PUSH2 0x5357 JUMP JUMPDEST PUSH1 0x0 DUP1 PUSH1 0x0 DUP7 PUSH1 0x1 PUSH1 0x1 PUSH1 0xA0 SHL SUB AND DUP7 DUP7 PUSH1 0x40 MLOAD DUP1 DUP3 DUP1 MLOAD SWAP1 PUSH1 0x20 ADD SWAP1 DUP1 DUP4 DUP4 JUMPDEST PUSH1 0x20 DUP4 LT PUSH2 0x4278 JUMPI DUP1 MLOAD DUP3 MSTORE PUSH1 0x1F NOT SWAP1 SWAP3 ADD SWAP2 PUSH1 0x20 SWAP2 DUP3 ADD SWAP2 ADD PUSH2 0x4259 JUMP JUMPDEST PUSH1 0x1 DUP4 PUSH1 0x20 SUB PUSH2 0x100 EXP SUB DUP1 NOT DUP3 MLOAD AND DUP2 DUP5 MLOAD AND DUP1 DUP3 OR DUP6 MSTORE POP POP POP POP POP POP SWAP1 POP ADD SWAP2 POP POP PUSH1 0x0 PUSH1 0x40 MLOAD DUP1 DUP4 SUB DUP2 DUP6 DUP8 GAS CALL SWAP3 POP POP POP RETURNDATASIZE DUP1 PUSH1 0x0 DUP2 EQ PUSH2 0x42DA JUMPI PUSH1 0x40 MLOAD SWAP2 POP PUSH1 0x1F NOT PUSH1 0x3F RETURNDATASIZE ADD AND DUP3 ADD PUSH1 0x40 MSTORE RETURNDATASIZE DUP3 MSTORE RETURNDATASIZE PUSH1 0x0 PUSH1 0x20 DUP5 ADD RETURNDATACOPY PUSH2 0x42DF JUMP JUMPDEST PUSH1 0x60 SWAP2 POP JUMPDEST POP SWAP2 POP SWAP2 POP DUP4 PUSH2 0x4382 JUMPI DUP2 PUSH2 0x42F3 DUP3 PUSH2 0x480B JUMP JUMPDEST SWAP1 PUSH2 0x437C JUMPI PUSH1 0x40 MLOAD PUSH3 0x461BCD PUSH1 0xE5 SHL DUP2 MSTORE PUSH1 0x4 ADD DUP1 DUP1 PUSH1 0x20 ADD DUP3 DUP2 SUB DUP3 MSTORE DUP4 DUP2 DUP2 MLOAD DUP2 MSTORE PUSH1 0x20 ADD SWAP2 POP DUP1 MLOAD SWAP1 PUSH1 0x20 ADD SWAP1 DUP1 DUP4 DUP4 PUSH1 0x0 JUMPDEST DUP4 DUP2 LT ISZERO PUSH2 0x4341 JUMPI DUP2 DUP2 ADD MLOAD DUP4 DUP3 ADD MSTORE PUSH1 0x20 ADD PUSH2 0x4329 JUMP JUMPDEST POP POP POP POP SWAP1 POP SWAP1 DUP2 ADD SWAP1 PUSH1 0x1F AND DUP1 ISZERO PUSH2 0x436E JUMPI DUP1 DUP3 SUB DUP1 MLOAD PUSH1 0x1 DUP4 PUSH1 0x20 SUB PUSH2 0x100 EXP SUB NOT AND DUP2 MSTORE PUSH1 0x20 ADD SWAP2 POP JUMPDEST POP SWAP3 POP POP POP PUSH1 0x40 MLOAD DUP1 SWAP2 SUB SWAP1 REVERT JUMPDEST POP PUSH2 0x2277 JUMP JUMPDEST DUP7 PUSH1 0x1 PUSH1 0x1 PUSH1 0xA0 SHL SUB AND PUSH32 0x3C7E398C5E91088CAE639370E35B25EA669D81FBDF0DEF5388E73661BC34E08E DUP8 DUP8 PUSH2 0x43B8 DUP6 PUSH2 0x480B JUMP JUMPDEST PUSH1 0x40 MLOAD DUP1 DUP5 DUP2 MSTORE PUSH1 0x20 ADD DUP1 PUSH1 0x20 ADD DUP1 PUSH1 0x20 ADD DUP4 DUP2 SUB DUP4 MSTORE DUP6 DUP2 DUP2 MLOAD DUP2 MSTORE PUSH1 0x20 ADD SWAP2 POP DUP1 MLOAD SWAP1 PUSH1 0x20 ADD SWAP1 DUP1 DUP4 DUP4 PUSH1 0x0 JUMPDEST DUP4 DUP2 LT ISZERO PUSH2 0x43FF JUMPI DUP2 DUP2 ADD MLOAD DUP4 DUP3 ADD MSTORE PUSH1 0x20 ADD PUSH2 0x43E7 JUMP JUMPDEST POP POP POP POP SWAP1 POP SWAP1 DUP2 ADD SWAP1 PUSH1 0x1F AND DUP1 ISZERO PUSH2 0x442C JUMPI DUP1 DUP3 SUB DUP1 MLOAD PUSH1 0x1 DUP4 PUSH1 0x20 SUB PUSH2 0x100 EXP SUB NOT AND DUP2 MSTORE PUSH1 0x20 ADD SWAP2 POP JUMPDEST POP DUP4 DUP2 SUB DUP3 MSTORE DUP5 MLOAD DUP2 MSTORE DUP5 MLOAD PUSH1 0x20 SWAP2 DUP3 ADD SWAP2 DUP7 ADD SWAP1 DUP1 DUP4 DUP4 PUSH1 0x0 JUMPDEST DUP4 DUP2 LT ISZERO PUSH2 0x445F JUMPI DUP2 DUP2 ADD MLOAD DUP4 DUP3 ADD MSTORE PUSH1 0x20 ADD PUSH2 0x4447 JUMP JUMPDEST POP POP POP POP SWAP1 POP SWAP1 DUP2 ADD SWAP1 PUSH1 0x1F AND DUP1 ISZERO PUSH2 0x448C JUMPI DUP1 DUP3 SUB DUP1 MLOAD PUSH1 0x1 DUP4 PUSH1 0x20 SUB PUSH2 0x100 EXP SUB NOT AND DUP2 MSTORE PUSH1 0x20 ADD SWAP2 POP JUMPDEST POP SWAP6 POP POP POP POP POP POP PUSH1 0x40 MLOAD DUP1 SWAP2 SUB SWAP1 LOG2 POP SWAP6 SWAP5 POP POP POP POP POP JUMP JUMPDEST PUSH1 0x0 PUSH2 0x44B0 PUSH2 0x3C27 JUMP JUMPDEST PUSH1 0x1 PUSH1 0x1 PUSH1 0xA0 SHL SUB DUP6 AND PUSH1 0x0 SWAP1 DUP2 MSTORE PUSH1 0x20 DUP3 SWAP1 MSTORE PUSH1 0x40 SWAP1 KECCAK256 SLOAD SWAP1 SWAP2 POP DUP4 DUP2 GT ISZERO PUSH2 0x44D9 JUMPI PUSH1 0x0 DUP1 REVERT JUMPDEST PUSH1 0x0 PUSH2 0x44F0 PUSH2 0x44E7 DUP7 PUSH2 0x1BC9 JUMP JUMPDEST PUSH2 0x3F55 DUP7 PUSH2 0x1BC9 JUMP JUMPDEST SWAP1 POP PUSH2 0x44FF PUSH2 0x1BAC DUP4 DUP4 PUSH2 0xEF6 JUMP JUMPDEST PUSH1 0x1 PUSH1 0x1 PUSH1 0xA0 SHL SUB SWAP1 SWAP7 AND PUSH1 0x0 SWAP1 DUP2 MSTORE PUSH1 0x20 SWAP4 SWAP1 SWAP4 MSTORE POP POP PUSH1 0x40 SWAP1 KECCAK256 SWAP3 SWAP1 SWAP3 SSTORE POP POP JUMP JUMPDEST PUSH1 0x0 PUSH2 0xFEC DUP3 PUSH2 0x37E5 PUSH4 0x1DA9C00 DUP2 DUP9 PUSH2 0x37DF DUP10 PUSH8 0xDE0B6B3A7640000 PUSH2 0x311D JUMP JUMPDEST PUSH1 0x0 PUSH2 0x454F PUSH2 0x29DA JUMP JUMPDEST PUSH2 0xFFFF DUP6 AND PUSH1 0x0 SWAP1 DUP2 MSTORE PUSH1 0x20 SWAP2 SWAP1 SWAP2 MSTORE PUSH1 0x40 SWAP1 KECCAK256 DUP1 SLOAD SWAP1 SWAP2 POP PUSH5 0xFFFFFFFFFF AND TIMESTAMP EQ PUSH2 0x457A JUMPI PUSH1 0x0 DUP1 REVERT JUMPDEST DUP1 SLOAD PUSH1 0x1 PUSH1 0xF8 SHL SWAP1 DIV PUSH1 0xFF AND PUSH2 0x458F JUMPI PUSH1 0x0 DUP1 REVERT JUMPDEST PUSH1 0x1 DUP2 ADD SLOAD PUSH1 0x0 SWAP1 PUSH2 0x45AA SWAP1 PUSH1 0x1 PUSH1 0x1 PUSH1 0x58 SHL SUB AND DUP6 PUSH2 0xEF6 JUMP JUMPDEST DUP3 SLOAD SWAP1 SWAP2 POP PUSH1 0x0 SWAP1 PUSH2 0x45CC SWAP1 PUSH1 0x1 PUSH1 0x28 SHL SWAP1 DIV PUSH1 0x1 PUSH1 0x1 PUSH1 0x58 SHL SUB AND DUP6 PUSH2 0xEF6 JUMP JUMPDEST SWAP1 POP DUP2 PUSH1 0x9 NOT SLT DUP1 ISZERO PUSH2 0x45DF JUMPI POP PUSH1 0x0 DUP3 SLT JUMPDEST ISZERO PUSH2 0x45E9 JUMPI PUSH1 0x0 SWAP2 POP JUMPDEST DUP1 PUSH1 0x9 NOT SLT DUP1 ISZERO PUSH2 0x45FA JUMPI POP PUSH1 0x0 DUP2 SLT JUMPDEST ISZERO PUSH2 0x4603 JUMPI POP PUSH1 0x0 JUMPDEST PUSH2 0x460F PUSH2 0x33DD DUP4 PUSH2 0x1FD6 JUMP JUMPDEST PUSH1 0x1 DUP5 ADD DUP1 SLOAD PUSH11 0xFFFFFFFFFFFFFFFFFFFFFF NOT AND PUSH1 0x1 PUSH1 0x1 PUSH1 0x58 SHL SUB SWAP3 SWAP1 SWAP3 AND SWAP2 SWAP1 SWAP2 OR SWAP1 SSTORE PUSH2 0x4641 PUSH2 0x33DD DUP3 PUSH2 0x1FD6 JUMP JUMPDEST DUP4 SLOAD PUSH1 0x1 PUSH1 0x1 PUSH1 0x58 SHL SUB SWAP2 SWAP1 SWAP2 AND PUSH1 0x1 PUSH1 0x28 SHL MUL PUSH16 0xFFFFFFFFFFFFFFFFFFFFFF0000000000 NOT SWAP1 SWAP2 AND OR DUP4 SSTORE PUSH2 0x4679 DUP8 DUP8 DUP7 DUP9 PUSH2 0x4912 JUMP JUMPDEST PUSH2 0x1476 DUP4 PUSH2 0x3B5C JUMP JUMPDEST PUSH1 0x0 PUSH2 0xB59 PUSH2 0x3ACB DUP5 PUSH4 0x3B9ACA00 PUSH2 0x311D JUMP JUMPDEST PUSH2 0x469D PUSH2 0x4D39 JUMP JUMPDEST PUSH1 0x0 PUSH2 0x46A7 PUSH2 0x4A1A JUMP JUMPDEST PUSH2 0xFFFF DUP5 AND PUSH1 0x0 SWAP1 DUP2 MSTORE PUSH1 0x20 SWAP2 SWAP1 SWAP2 MSTORE PUSH1 0x40 DUP2 KECCAK256 SLOAD SWAP2 POP PUSH2 0xB59 SWAP1 DUP3 PUSH2 0x4A27 JUMP JUMPDEST PUSH1 0x0 DUP1 DUP4 PUSH1 0x80 ADD MLOAD GT PUSH2 0x46DA JUMPI PUSH1 0x0 DUP1 REVERT JUMPDEST PUSH4 0x3B9ACA00 DUP3 GT ISZERO PUSH2 0x46EB JUMPI PUSH1 0x0 DUP1 REVERT JUMPDEST DUP3 MLOAD DUP3 GT PUSH2 0x470A JUMPI DUP3 MLOAD PUSH1 0x40 DUP5 ADD MLOAD PUSH2 0xF86 SWAP2 SWAP1 PUSH2 0x37E5 SWAP1 DUP6 SWAP1 PUSH2 0x311D JUMP JUMPDEST DUP3 PUSH1 0x20 ADD MLOAD DUP3 GT PUSH2 0x4748 JUMPI PUSH1 0x40 DUP4 ADD MLOAD DUP4 MLOAD PUSH1 0x20 DUP6 ADD MLOAD PUSH1 0x60 DUP7 ADD MLOAD PUSH2 0xF86 SWAP4 SWAP3 PUSH2 0x4742 SWAP3 DUP2 SWAP1 SUB SWAP2 PUSH2 0x37E5 SWAP2 DUP9 SUB SWAP1 DUP6 SWAP1 SUB PUSH2 0x311D JUMP JUMPDEST SWAP1 PUSH2 0x3AA2 JUMP JUMPDEST PUSH2 0xB59 DUP4 PUSH1 0x60 ADD MLOAD PUSH2 0x4742 DUP6 PUSH1 0x20 ADD MLOAD PUSH4 0x3B9ACA00 SUB PUSH2 0x37E5 DUP8 PUSH1 0x60 ADD MLOAD DUP9 PUSH1 0x80 ADD MLOAD SUB DUP9 PUSH1 0x20 ADD MLOAD DUP9 SUB PUSH2 0x311D SWAP1 SWAP2 SWAP1 PUSH4 0xFFFFFFFF AND JUMP JUMPDEST PUSH1 0x0 DUP1 PUSH2 0x47A0 PUSH1 0x64 PUSH2 0x37E5 DUP8 PUSH1 0xE0 ADD MLOAD DUP8 PUSH2 0x311D SWAP1 SWAP2 SWAP1 PUSH4 0xFFFFFFFF AND JUMP JUMPDEST SWAP1 POP DUP5 PUSH1 0xA0 ADD MLOAD DUP2 LT ISZERO PUSH2 0x47B5 JUMPI POP PUSH1 0xA0 DUP5 ADD MLOAD JUMPDEST DUP5 PUSH1 0xC0 ADD MLOAD DUP2 GT ISZERO PUSH2 0x47C8 JUMPI POP PUSH1 0xC0 DUP5 ADD MLOAD JUMPDEST DUP3 ISZERO PUSH2 0x47D8 JUMPI PUSH2 0x117A DUP5 DUP3 PUSH2 0x3AA2 JUMP JUMPDEST DUP4 DUP2 GT PUSH2 0x47E7 JUMPI DUP1 DUP5 SUB PUSH2 0x117A JUMP JUMPDEST PUSH1 0x0 SWAP6 SWAP5 POP POP POP POP POP JUMP JUMPDEST PUSH1 0x0 PUSH2 0xB59 PUSH2 0x4801 DUP5 DUP5 PUSH2 0x311D JUMP JUMPDEST PUSH4 0x3B9ACA00 PUSH2 0x3EFB JUMP JUMPDEST PUSH1 0x60 PUSH1 0x44 DUP3 MLOAD LT ISZERO PUSH2 0x4841 JUMPI POP PUSH1 0x40 DUP1 MLOAD DUP1 DUP3 ADD SWAP1 SWAP2 MSTORE PUSH1 0xD DUP2 MSTORE PUSH13 0x14DA5B195B9D0814995D995C9D PUSH1 0x9A SHL PUSH1 0x20 DUP3 ADD MSTORE PUSH2 0xC98 JUMP JUMPDEST PUSH1 0x4 DUP3 ADD DUP1 MLOAD SWAP1 SWAP3 PUSH1 0x24 ADD SWAP1 PUSH1 0x20 DUP2 LT ISZERO PUSH2 0x485B JUMPI PUSH1 0x0 DUP1 REVERT JUMPDEST DUP2 ADD SWAP1 DUP1 DUP1 MLOAD PUSH1 0x40 MLOAD SWAP4 SWAP3 SWAP2 SWAP1 DUP5 PUSH5 0x100000000 DUP3 GT ISZERO PUSH2 0x487B JUMPI PUSH1 0x0 DUP1 REVERT JUMPDEST SWAP1 DUP4 ADD SWAP1 PUSH1 0x20 DUP3 ADD DUP6 DUP2 GT ISZERO PUSH2 0x4890 JUMPI PUSH1 0x0 DUP1 REVERT JUMPDEST DUP3 MLOAD PUSH5 0x100000000 DUP2 GT DUP3 DUP3 ADD DUP9 LT OR ISZERO PUSH2 0x48AA JUMPI PUSH1 0x0 DUP1 REVERT JUMPDEST DUP3 MSTORE POP DUP2 MLOAD PUSH1 0x20 SWAP2 DUP3 ADD SWAP3 SWAP1 SWAP2 ADD SWAP1 DUP1 DUP4 DUP4 PUSH1 0x0 JUMPDEST DUP4 DUP2 LT ISZERO PUSH2 0x48D7 JUMPI DUP2 DUP2 ADD MLOAD DUP4 DUP3 ADD MSTORE PUSH1 0x20 ADD PUSH2 0x48BF JUMP JUMPDEST POP POP POP POP SWAP1 POP SWAP1 DUP2 ADD SWAP1 PUSH1 0x1F AND DUP1 ISZERO PUSH2 0x4904 JUMPI DUP1 DUP3 SUB DUP1 MLOAD PUSH1 0x1 DUP4 PUSH1 0x20 SUB PUSH2 0x100 EXP SUB NOT AND DUP2 MSTORE PUSH1 0x20 ADD SWAP2 POP JUMPDEST POP PUSH1 0x40 MSTORE POP POP POP SWAP1 POP SWAP2 SWAP1 POP JUMP JUMPDEST PUSH1 0x0 PUSH2 0x491C PUSH2 0x3B4F JUMP JUMPDEST PUSH2 0xFFFF DUP6 AND PUSH1 0x0 SWAP1 DUP2 MSTORE PUSH1 0x20 SWAP2 SWAP1 SWAP2 MSTORE PUSH1 0x40 DUP2 KECCAK256 SLOAD PUSH1 0x1 PUSH1 0x1 PUSH1 0xA0 SHL SUB AND SWAP2 POP PUSH2 0x4944 PUSH2 0x4B46 JUMP JUMPDEST PUSH2 0xFFFF DUP7 AND PUSH1 0x0 SWAP1 DUP2 MSTORE PUSH1 0x20 SWAP2 SWAP1 SWAP2 MSTORE PUSH1 0x40 SWAP1 DUP2 SWAP1 KECCAK256 SLOAD SWAP1 MLOAD PUSH4 0xAD1C095D PUSH1 0xE0 SHL DUP2 MSTORE PUSH1 0x1 PUSH1 0x1 PUSH1 0xA0 SHL SUB SWAP1 SWAP2 AND SWAP2 POP DUP2 SWAP1 PUSH4 0xAD1C095D SWAP1 PUSH2 0x498C SWAP1 DUP10 SWAP1 DUP8 SWAP1 PUSH1 0x4 ADD PUSH2 0x572B JUMP JUMPDEST PUSH1 0x0 PUSH1 0x40 MLOAD DUP1 DUP4 SUB DUP2 PUSH1 0x0 DUP8 DUP1 EXTCODESIZE ISZERO DUP1 ISZERO PUSH2 0x49A6 JUMPI PUSH1 0x0 DUP1 REVERT JUMPDEST POP GAS CALL ISZERO DUP1 ISZERO PUSH2 0x49BA JUMPI RETURNDATASIZE PUSH1 0x0 DUP1 RETURNDATACOPY RETURNDATASIZE PUSH1 0x0 REVERT JUMPDEST POP POP PUSH1 0x40 MLOAD PUSH4 0xAD1C095D PUSH1 0xE0 SHL DUP2 MSTORE PUSH1 0x1 PUSH1 0x1 PUSH1 0xA0 SHL SUB DUP6 AND SWAP3 POP PUSH4 0xAD1C095D SWAP2 POP PUSH2 0x49EC SWAP1 DUP10 SWAP1 DUP9 SWAP1 PUSH1 0x4 ADD PUSH2 0x572B JUMP JUMPDEST PUSH1 0x0 PUSH1 0x40 MLOAD DUP1 DUP4 SUB DUP2 PUSH1 0x0 DUP8 DUP1 EXTCODESIZE ISZERO DUP1 ISZERO PUSH2 0x4A06 JUMPI PUSH1 0x0 DUP1 REVERT JUMPDEST POP GAS CALL ISZERO DUP1 ISZERO PUSH2 0x692 JUMPI RETURNDATASIZE PUSH1 0x0 DUP1 RETURNDATACOPY RETURNDATASIZE PUSH1 0x0 REVERT JUMPDEST PUSH1 0x0 DUP1 PUSH2 0xF0C PUSH1 0x1B PUSH2 0x29F5 JUMP JUMPDEST PUSH2 0x4A2F PUSH2 0x4D39 JUMP JUMPDEST PUSH1 0x64 PUSH4 0x3B9ACA00 DUP4 PUSH1 0xFF DUP7 AND PUSH1 0x20 DUP2 LT PUSH2 0x4A45 JUMPI INVALID JUMPDEST BYTE MUL DUP2 PUSH2 0x4A4E JUMPI INVALID JUMPDEST DIV DUP2 MSTORE PUSH1 0x64 PUSH4 0x3B9ACA00 DUP4 PUSH1 0xFF DUP7 AND PUSH1 0x1 ADD PUSH1 0x20 DUP2 LT PUSH2 0x4A6A JUMPI INVALID JUMPDEST BYTE MUL DUP2 PUSH2 0x4A73 JUMPI INVALID JUMPDEST DIV DUP2 PUSH1 0x20 ADD DUP2 DUP2 MSTORE POP POP PUSH2 0x4A98 DUP3 PUSH1 0x2 DUP6 PUSH1 0xFF AND ADD PUSH1 0x20 DUP2 LT PUSH2 0x4A92 JUMPI INVALID JUMPDEST BYTE PUSH2 0x4B53 JUMP JUMPDEST PUSH1 0x80 DUP3 ADD DUP2 SWAP1 MSTORE PUSH2 0x100 SWAP1 DUP4 PUSH1 0xFF DUP7 AND PUSH1 0x3 ADD PUSH1 0x20 DUP2 LT PUSH2 0x4AB5 JUMPI INVALID JUMPDEST BYTE MUL DUP2 PUSH2 0x4ABE JUMPI INVALID JUMPDEST DIV PUSH1 0x40 DUP3 ADD MSTORE PUSH1 0x80 DUP2 ADD MLOAD PUSH2 0x100 SWAP1 DUP4 PUSH1 0xFF DUP7 AND PUSH1 0x4 ADD PUSH1 0x20 DUP2 LT PUSH2 0x4ADF JUMPI INVALID JUMPDEST BYTE MUL DUP2 PUSH2 0x4AE8 JUMPI INVALID JUMPDEST DIV PUSH1 0x60 DUP3 ADD MSTORE PUSH3 0x7A120 DUP3 PUSH1 0xFF DUP6 AND PUSH1 0x5 ADD PUSH1 0x20 DUP2 LT PUSH2 0x4B04 JUMPI INVALID JUMPDEST BYTE MUL PUSH1 0xA0 DUP3 ADD MSTORE PUSH3 0x2625A0 DUP3 PUSH1 0xFF DUP6 AND PUSH1 0x6 ADD PUSH1 0x20 DUP2 LT PUSH2 0x4B21 JUMPI INVALID JUMPDEST BYTE MUL PUSH1 0xC0 DUP3 ADD MSTORE DUP2 PUSH1 0xFF DUP5 AND PUSH1 0x7 ADD PUSH1 0x20 DUP2 LT PUSH2 0x4B3A JUMPI INVALID JUMPDEST BYTE PUSH1 0xE0 DUP3 ADD MSTORE SWAP3 SWAP2 POP POP JUMP JUMPDEST PUSH1 0x0 DUP1 PUSH2 0xF0C PUSH1 0x22 PUSH2 0x29F5 JUMP JUMPDEST PUSH1 0x0 DUP2 PUSH1 0xFF AND PUSH1 0x96 LT PUSH2 0x4B6E JUMPI PUSH1 0xFF DUP3 AND PUSH3 0x2625A0 MUL PUSH2 0xC95 JUMP JUMPDEST POP PUSH1 0x95 NOT PUSH1 0xFF SWAP2 SWAP1 SWAP2 AND ADD PUSH3 0xE4E1C0 MUL PUSH4 0x165A0BC0 ADD SWAP1 JUMP JUMPDEST PUSH1 0x40 MLOAD DUP1 PUSH2 0x140 ADD PUSH1 0x40 MSTORE DUP1 PUSH1 0x0 PUSH2 0xFFFF AND DUP2 MSTORE PUSH1 0x20 ADD PUSH1 0x0 DUP2 MSTORE PUSH1 0x20 ADD PUSH1 0x0 DUP2 MSTORE PUSH1 0x20 ADD PUSH1 0x0 DUP2 MSTORE PUSH1 0x20 ADD PUSH1 0x0 DUP2 MSTORE PUSH1 0x20 ADD PUSH1 0x0 DUP2 MSTORE PUSH1 0x20 ADD PUSH1 0x0 DUP2 MSTORE PUSH1 0x20 ADD PUSH1 0x0 DUP2 MSTORE PUSH1 0x20 ADD PUSH1 0x0 DUP2 MSTORE PUSH1 0x20 ADD PUSH2 0x4BDE PUSH2 0x4CAE JUMP JUMPDEST SWAP1 MSTORE SWAP1 JUMP JUMPDEST PUSH1 0x40 DUP1 MLOAD PUSH1 0xC0 DUP2 ADD DUP3 MSTORE PUSH1 0x0 DUP1 DUP3 MSTORE PUSH1 0x20 DUP3 ADD DUP2 SWAP1 MSTORE SWAP2 DUP2 ADD DUP3 SWAP1 MSTORE PUSH1 0x60 DUP2 ADD DUP3 SWAP1 MSTORE PUSH1 0x80 DUP2 ADD DUP3 SWAP1 MSTORE PUSH1 0xA0 DUP2 ADD SWAP2 SWAP1 SWAP2 MSTORE SWAP1 JUMP JUMPDEST PUSH1 0x40 MLOAD DUP1 PUSH1 0x80 ADD PUSH1 0x40 MSTORE DUP1 PUSH1 0x60 DUP2 MSTORE PUSH1 0x20 ADD PUSH1 0x60 DUP2 MSTORE PUSH1 0x20 ADD PUSH1 0x0 DUP2 MSTORE PUSH1 0x20 ADD PUSH1 0x0 DUP2 MSTORE POP SWAP1 JUMP JUMPDEST PUSH1 0x40 MLOAD DUP1 PUSH1 0xC0 ADD PUSH1 0x40 MSTORE DUP1 PUSH1 0x0 PUSH2 0xFFFF AND DUP2 MSTORE PUSH1 0x20 ADD PUSH1 0x0 DUP2 MSTORE PUSH1 0x20 ADD PUSH1 0x0 DUP2 MSTORE PUSH1 0x20 ADD PUSH1 0x0 DUP2 MSTORE PUSH1 0x20 ADD PUSH1 0x0 DUP2 MSTORE PUSH1 0x20 ADD PUSH1 0x0 PUSH1 0x3 DUP2 GT ISZERO PUSH2 0x4BDE JUMPI INVALID JUMPDEST PUSH1 0x40 DUP1 MLOAD PUSH1 0xA0 DUP2 ADD DUP3 MSTORE PUSH1 0x0 DUP1 DUP3 MSTORE PUSH1 0x20 DUP3 ADD DUP2 SWAP1 MSTORE SWAP2 DUP2 ADD DUP3 SWAP1 MSTORE SWAP1 PUSH1 0x60 DUP3 ADD SWAP1 DUP2 MSTORE PUSH1 0x20 ADD PUSH1 0x0 DUP2 MSTORE POP SWAP1 JUMP JUMPDEST PUSH1 0x40 MLOAD DUP1 PUSH1 0x60 ADD PUSH1 0x40 MSTORE DUP1 PUSH1 0x0 DUP2 MSTORE PUSH1 0x20 ADD PUSH1 0x0 DUP2 MSTORE PUSH1 0x20 ADD PUSH1 0x0 DUP2 MSTORE POP SWAP1 JUMP JUMPDEST PUSH1 0x40 MLOAD DUP1 PUSH2 0x120 ADD PUSH1 0x40 MSTORE DUP1 PUSH1 0x0 DUP2 MSTORE PUSH1 0x20 ADD PUSH1 0x0 DUP2 MSTORE PUSH1 0x20 ADD PUSH1 0x0 DUP2 MSTORE PUSH1 0x20 ADD PUSH1 0x0 DUP2 MSTORE PUSH1 0x20 ADD PUSH1 0x0 DUP2 MSTORE PUSH1 0x20 ADD PUSH1 0x0 DUP2 MSTORE PUSH1 0x20 ADD PUSH1 0x0 DUP2 MSTORE PUSH1 0x20 ADD PUSH1 0x0 DUP2 MSTORE PUSH1 0x20 ADD PUSH1 0x0 DUP2 MSTORE POP SWAP1 JUMP JUMPDEST PUSH1 0x40 MLOAD DUP1 PUSH1 0x20 ADD PUSH1 0x40 MSTORE DUP1 PUSH1 0x1 SWAP1 PUSH1 0x20 DUP3 MUL DUP1 CALLDATASIZE DUP4 CALLDATACOPY POP SWAP2 SWAP3 SWAP2 POP POP JUMP JUMPDEST PUSH1 0x40 MLOAD DUP1 PUSH2 0x100 ADD PUSH1 0x40 MSTORE DUP1 PUSH1 0x0 DUP2 MSTORE PUSH1 0x20 ADD PUSH1 0x0 DUP2 MSTORE PUSH1 0x20 ADD PUSH1 0x0 DUP2 MSTORE PUSH1 0x20 ADD PUSH1 0x0 DUP2 MSTORE PUSH1 0x20 ADD PUSH1 0x0 DUP2 MSTORE PUSH1 0x20 ADD PUSH1 0x0 DUP2 MSTORE PUSH1 0x20 ADD PUSH1 0x0 DUP2 MSTORE PUSH1 0x20 ADD PUSH1 0x0 DUP2 MSTORE POP SWAP1 JUMP JUMPDEST DUP1 MLOAD PUSH2 0xC98 DUP2 PUSH2 0x5B62 JUMP JUMPDEST PUSH1 0x0 DUP3 PUSH1 0x1F DUP4 ADD SLT PUSH2 0x4D99 JUMPI DUP1 DUP2 REVERT JUMPDEST DUP2 MLOAD PUSH1 0x20 PUSH2 0x4DAE PUSH2 0x4DA9 DUP4 PUSH2 0x5B45 JUMP JUMPDEST PUSH2 0x5B22 JUMP JUMPDEST DUP3 DUP2 MSTORE DUP2 DUP2 ADD SWAP1 DUP6 DUP4 ADD DUP4 DUP6 MUL DUP8 ADD DUP5 ADD DUP9 LT ISZERO PUSH2 0x4DCA JUMPI DUP6 DUP7 REVERT JUMPDEST DUP6 JUMPDEST DUP6 DUP2 LT ISZERO PUSH2 0x4DF1 JUMPI DUP2 MLOAD PUSH2 0x4DDF DUP2 PUSH2 0x5B62 JUMP JUMPDEST DUP5 MSTORE SWAP3 DUP5 ADD SWAP3 SWAP1 DUP5 ADD SWAP1 PUSH1 0x1 ADD PUSH2 0x4DCC JUMP JUMPDEST POP SWAP1 SWAP8 SWAP7 POP POP POP POP POP POP POP JUMP JUMPDEST PUSH1 0x0 PUSH1 0x1F DUP4 DUP2 DUP5 ADD SLT PUSH2 0x4E0F JUMPI DUP2 DUP3 REVERT JUMPDEST DUP3 MLOAD PUSH1 0x20 PUSH2 0x4E1F PUSH2 0x4DA9 DUP4 PUSH2 0x5B45 JUMP JUMPDEST DUP3 DUP2 MSTORE DUP2 DUP2 ADD SWAP1 DUP7 DUP4 ADD DUP7 JUMPDEST DUP6 DUP2 LT ISZERO PUSH2 0x4EC3 JUMPI DUP2 MLOAD DUP10 ADD DUP11 PUSH1 0x3F DUP3 ADD SLT PUSH2 0x4E45 JUMPI DUP9 DUP10 REVERT JUMPDEST DUP6 DUP2 ADD MLOAD PUSH1 0x1 PUSH1 0x1 PUSH1 0x40 SHL SUB DUP2 GT ISZERO PUSH2 0x4E5A JUMPI INVALID JUMPDEST PUSH2 0x4E6B DUP2 DUP11 ADD PUSH1 0x1F NOT AND DUP9 ADD PUSH2 0x5B22 JUMP JUMPDEST DUP2 DUP2 MSTORE PUSH1 0x40 DUP14 DUP2 DUP5 DUP7 ADD ADD GT ISZERO PUSH2 0x4E80 JUMPI DUP12 DUP13 REVERT JUMPDEST DUP12 JUMPDEST DUP4 DUP2 LT ISZERO PUSH2 0x4E9D JUMPI DUP5 DUP2 ADD DUP3 ADD MLOAD DUP4 DUP3 ADD DUP12 ADD MSTORE DUP10 ADD PUSH2 0x4E82 JUMP JUMPDEST DUP4 DUP2 GT ISZERO PUSH2 0x4EAD JUMPI DUP13 DUP11 DUP6 DUP6 ADD ADD MSTORE JUMPDEST POP POP DUP7 MSTORE POP POP SWAP3 DUP5 ADD SWAP3 SWAP1 DUP5 ADD SWAP1 PUSH1 0x1 ADD PUSH2 0x4E2B JUMP JUMPDEST POP SWAP1 SWAP9 SWAP8 POP POP POP POP POP POP POP POP JUMP JUMPDEST PUSH1 0x0 DUP1 DUP4 PUSH1 0x1F DUP5 ADD SLT PUSH2 0x4EE2 JUMPI DUP2 DUP3 REVERT JUMPDEST POP DUP2 CALLDATALOAD PUSH1 0x1 PUSH1 0x1 PUSH1 0x40 SHL SUB DUP2 GT ISZERO PUSH2 0x4EF8 JUMPI DUP2 DUP3 REVERT JUMPDEST PUSH1 0x20 DUP4 ADD SWAP2 POP DUP4 PUSH1 0x20 DUP1 DUP4 MUL DUP6 ADD ADD GT ISZERO PUSH2 0x4F12 JUMPI PUSH1 0x0 DUP1 REVERT JUMPDEST SWAP3 POP SWAP3 SWAP1 POP JUMP JUMPDEST PUSH1 0x0 DUP3 PUSH1 0x1F DUP4 ADD SLT PUSH2 0x4F29 JUMPI DUP1 DUP2 REVERT JUMPDEST DUP2 MLOAD PUSH1 0x20 PUSH2 0x4F39 PUSH2 0x4DA9 DUP4 PUSH2 0x5B45 JUMP JUMPDEST DUP3 DUP2 MSTORE DUP2 DUP2 ADD SWAP1 DUP6 DUP4 ADD PUSH1 0xC0 DUP1 DUP7 MUL DUP9 ADD DUP6 ADD DUP10 LT ISZERO PUSH2 0x4F57 JUMPI DUP7 DUP8 REVERT JUMPDEST DUP7 JUMPDEST DUP7 DUP2 LT ISZERO PUSH2 0x4FE8 JUMPI DUP2 DUP4 DUP12 SUB SLT ISZERO PUSH2 0x4F6F JUMPI DUP8 DUP9 REVERT JUMPDEST PUSH1 0x40 DUP1 MLOAD DUP4 DUP2 ADD DUP2 DUP2 LT PUSH1 0x1 PUSH1 0x1 PUSH1 0x40 SHL SUB DUP3 GT OR ISZERO PUSH2 0x4F8B JUMPI INVALID JUMPDEST DUP3 MSTORE DUP5 MLOAD PUSH2 0x4F98 DUP2 PUSH2 0x5B88 JUMP JUMPDEST DUP2 MSTORE DUP5 DUP9 ADD MLOAD DUP9 DUP3 ADD MSTORE DUP2 DUP6 ADD MLOAD SWAP2 DUP2 ADD SWAP2 SWAP1 SWAP2 MSTORE PUSH1 0x60 DUP1 DUP6 ADD MLOAD SWAP1 DUP3 ADD MSTORE PUSH1 0x80 DUP1 DUP6 ADD MLOAD SWAP1 DUP3 ADD MSTORE PUSH1 0xA0 SWAP1 PUSH2 0x4FCF DUP3 DUP7 ADD PUSH2 0x5031 JUMP JUMPDEST SWAP2 DUP2 ADD SWAP2 SWAP1 SWAP2 MSTORE DUP6 MSTORE SWAP4 DUP6 ADD SWAP4 SWAP2 DUP2 ADD SWAP2 PUSH1 0x1 ADD PUSH2 0x4F59 JUMP JUMPDEST POP SWAP2 SWAP9 SWAP8 POP POP POP POP POP POP POP POP JUMP JUMPDEST DUP1 MLOAD PUSH2 0xC98 DUP2 PUSH2 0x5B7A JUMP JUMPDEST DUP1 MLOAD PUSH1 0x1 PUSH1 0x1 PUSH1 0x70 SHL SUB NOT DUP2 AND DUP2 EQ PUSH2 0xC98 JUMPI PUSH1 0x0 DUP1 REVERT JUMPDEST DUP1 MLOAD PUSH1 0x1 PUSH1 0x1 PUSH1 0xF8 SHL SUB NOT DUP2 AND DUP2 EQ PUSH2 0xC98 JUMPI PUSH1 0x0 DUP1 REVERT JUMPDEST DUP1 MLOAD PUSH1 0x4 DUP2 LT PUSH2 0xC98 JUMPI PUSH1 0x0 DUP1 REVERT JUMPDEST DUP1 MLOAD PUSH2 0xC98 DUP2 PUSH2 0x5B88 JUMP JUMPDEST DUP1 MLOAD PUSH1 0xFF DUP2 AND DUP2 EQ PUSH2 0xC98 JUMPI PUSH1 0x0 DUP1 REVERT JUMPDEST PUSH1 0x0 DUP1 PUSH1 0x0 PUSH1 0x40 DUP5 DUP7 SUB SLT ISZERO PUSH2 0x5070 JUMPI DUP3 DUP4 REVERT JUMPDEST DUP4 CALLDATALOAD PUSH2 0x507B DUP2 PUSH2 0x5B62 JUMP JUMPDEST SWAP3 POP PUSH1 0x20 DUP5 ADD CALLDATALOAD PUSH1 0x1 PUSH1 0x1 PUSH1 0x40 SHL SUB DUP2 GT ISZERO PUSH2 0x5095 JUMPI DUP3 DUP4 REVERT JUMPDEST PUSH2 0x50A1 DUP7 DUP3 DUP8 ADD PUSH2 0x4ED1 JUMP JUMPDEST SWAP5 SWAP8 SWAP1 SWAP7 POP SWAP4 SWAP5 POP POP POP POP JUMP JUMPDEST PUSH1 0x0 DUP1 PUSH1 0x0 DUP1 PUSH1 0x0 PUSH1 0x60 DUP7 DUP9 SUB SLT ISZERO PUSH2 0x50C5 JUMPI DUP3 DUP4 REVERT JUMPDEST DUP6 CALLDATALOAD PUSH2 0x50D0 DUP2 PUSH2 0x5B62 JUMP JUMPDEST SWAP5 POP PUSH1 0x20 DUP7 ADD CALLDATALOAD PUSH1 0x1 PUSH1 0x1 PUSH1 0x40 SHL SUB DUP1 DUP3 GT ISZERO PUSH2 0x50EB JUMPI DUP5 DUP6 REVERT JUMPDEST PUSH2 0x50F7 DUP10 DUP4 DUP11 ADD PUSH2 0x4ED1 JUMP JUMPDEST SWAP1 SWAP7 POP SWAP5 POP PUSH1 0x40 DUP9 ADD CALLDATALOAD SWAP2 POP DUP1 DUP3 GT ISZERO PUSH2 0x510F JUMPI DUP3 DUP4 REVERT JUMPDEST DUP2 DUP9 ADD SWAP2 POP DUP9 PUSH1 0x1F DUP4 ADD SLT PUSH2 0x5122 JUMPI DUP3 DUP4 REVERT JUMPDEST DUP2 CALLDATALOAD DUP2 DUP2 GT ISZERO PUSH2 0x5130 JUMPI DUP4 DUP5 REVERT JUMPDEST DUP10 PUSH1 0x20 DUP3 DUP6 ADD ADD GT ISZERO PUSH2 0x5141 JUMPI DUP4 DUP5 REVERT JUMPDEST SWAP7 SWAP10 SWAP6 SWAP9 POP SWAP4 SWAP7 POP PUSH1 0x20 ADD SWAP5 SWAP4 SWAP3 POP POP POP JUMP JUMPDEST PUSH1 0x0 DUP1 PUSH1 0x0 PUSH1 0x40 DUP5 DUP7 SUB SLT ISZERO PUSH2 0x5168 JUMPI DUP1 DUP2 REVERT JUMPDEST DUP4 CALLDATALOAD PUSH2 0x5173 DUP2 PUSH2 0x5B62 JUMP JUMPDEST SWAP3 POP PUSH1 0x20 DUP5 ADD CALLDATALOAD PUSH1 0x1 PUSH1 0x1 PUSH1 0x40 SHL SUB DUP1 DUP3 GT ISZERO PUSH2 0x518E JUMPI DUP3 DUP4 REVERT JUMPDEST DUP2 DUP7 ADD SWAP2 POP DUP7 PUSH1 0x1F DUP4 ADD SLT PUSH2 0x51A1 JUMPI DUP3 DUP4 REVERT JUMPDEST DUP2 CALLDATALOAD DUP2 DUP2 GT ISZERO PUSH2 0x51AF JUMPI DUP4 DUP5 REVERT JUMPDEST DUP8 PUSH1 0x20 PUSH1 0xC0 DUP4 MUL DUP6 ADD ADD GT ISZERO PUSH2 0x51C3 JUMPI DUP4 DUP5 REVERT JUMPDEST PUSH1 0x20 DUP4 ADD SWAP5 POP DUP1 SWAP4 POP POP POP POP SWAP3 POP SWAP3 POP SWAP3 JUMP JUMPDEST PUSH1 0x0 DUP1 PUSH1 0x0 PUSH1 0x40 DUP5 DUP7 SUB SLT ISZERO PUSH2 0x51EA JUMPI DUP1 DUP2 REVERT JUMPDEST DUP4 CALLDATALOAD PUSH2 0x51F5 DUP2 PUSH2 0x5B62 JUMP JUMPDEST SWAP3 POP PUSH1 0x20 DUP5 ADD CALLDATALOAD PUSH1 0x1 PUSH1 0x1 PUSH1 0x40 SHL SUB DUP2 GT ISZERO PUSH2 0x5095 JUMPI DUP2 DUP3 REVERT JUMPDEST PUSH1 0x0 PUSH1 0x20 DUP1 DUP4 DUP6 SUB SLT ISZERO PUSH2 0x5221 JUMPI DUP2 DUP3 REVERT JUMPDEST DUP3 MLOAD PUSH1 0x1 PUSH1 0x1 PUSH1 0x40 SHL SUB DUP1 DUP3 GT ISZERO PUSH2 0x5237 JUMPI DUP4 DUP5 REVERT JUMPDEST DUP2 DUP6 ADD SWAP2 POP DUP6 PUSH1 0x1F DUP4 ADD SLT PUSH2 0x524A JUMPI DUP4 DUP5 REVERT JUMPDEST DUP2 MLOAD PUSH2 0x5258 PUSH2 0x4DA9 DUP3 PUSH2 0x5B45 JUMP JUMPDEST DUP2 DUP2 MSTORE DUP5 DUP2 ADD SWAP1 DUP5 DUP7 ADD DUP8 JUMPDEST DUP5 DUP2 LT ISZERO PUSH2 0x530D JUMPI DUP2 MLOAD DUP8 ADD PUSH1 0x80 DUP2 DUP14 SUB PUSH1 0x1F NOT ADD SLT ISZERO PUSH2 0x5283 JUMPI DUP10 DUP11 REVERT JUMPDEST PUSH1 0x40 DUP1 MLOAD PUSH1 0x80 DUP2 ADD DUP2 DUP2 LT DUP11 DUP3 GT OR ISZERO PUSH2 0x5299 JUMPI INVALID JUMPDEST DUP3 MSTORE DUP3 DUP12 ADD MLOAD DUP10 DUP2 GT ISZERO PUSH2 0x52AB JUMPI DUP13 DUP14 REVERT JUMPDEST PUSH2 0x52B9 DUP16 DUP14 DUP4 DUP8 ADD ADD PUSH2 0x4D89 JUMP JUMPDEST DUP3 MSTORE POP DUP2 DUP4 ADD MLOAD DUP10 DUP2 GT ISZERO PUSH2 0x52CC JUMPI DUP13 DUP14 REVERT JUMPDEST PUSH2 0x52DA DUP16 DUP14 DUP4 DUP8 ADD ADD PUSH2 0x4DFE JUMP JUMPDEST DUP13 DUP4 ADD MSTORE POP PUSH1 0x60 DUP4 ADD MLOAD DUP3 DUP3 ADD MSTORE PUSH2 0x52F4 PUSH1 0x80 DUP5 ADD PUSH2 0x4D7E JUMP JUMPDEST PUSH1 0x60 DUP3 ADD MSTORE DUP7 MSTORE POP POP SWAP3 DUP8 ADD SWAP3 SWAP1 DUP8 ADD SWAP1 PUSH1 0x1 ADD PUSH2 0x5264 JUMP JUMPDEST POP SWAP1 SWAP10 SWAP9 POP POP POP POP POP POP POP POP POP JUMP JUMPDEST PUSH1 0x0 PUSH1 0x20 DUP3 DUP5 SUB SLT ISZERO PUSH2 0x532D JUMPI DUP1 DUP2 REVERT JUMPDEST DUP2 CALLDATALOAD PUSH2 0xB59 DUP2 PUSH2 0x5B7A JUMP JUMPDEST PUSH1 0x0 PUSH1 0x20 DUP3 DUP5 SUB SLT ISZERO PUSH2 0x5349 JUMPI DUP1 DUP2 REVERT JUMPDEST DUP2 CALLDATALOAD PUSH1 0x7 DUP2 LT PUSH2 0xB59 JUMPI DUP2 DUP3 REVERT JUMPDEST PUSH1 0x0 PUSH1 0x20 DUP3 DUP5 SUB SLT ISZERO PUSH2 0x5368 JUMPI DUP1 DUP2 REVERT JUMPDEST POP MLOAD SWAP2 SWAP1 POP JUMP JUMPDEST PUSH1 0x0 DUP1 PUSH1 0x40 DUP4 DUP6 SUB SLT ISZERO PUSH2 0x5381 JUMPI DUP2 DUP3 REVERT JUMPDEST DUP3 MLOAD SWAP2 POP PUSH1 0x20 DUP4 ADD MLOAD PUSH2 0x5393 DUP2 PUSH2 0x5B7A JUMP JUMPDEST DUP1 SWAP2 POP POP SWAP3 POP SWAP3 SWAP1 POP JUMP JUMPDEST PUSH1 0x0 PUSH1 0xC0 DUP3 DUP5 SUB SLT ISZERO PUSH2 0x53AF JUMPI DUP1 DUP2 REVERT JUMPDEST PUSH1 0x40 MLOAD PUSH1 0xC0 DUP2 ADD DUP2 DUP2 LT PUSH1 0x1 PUSH1 0x1 PUSH1 0x40 SHL SUB DUP3 GT OR ISZERO PUSH2 0x53CB JUMPI INVALID JUMPDEST PUSH1 0x40 MSTORE DUP3 MLOAD PUSH5 0xFFFFFFFFFF DUP2 AND DUP2 EQ PUSH2 0x53E2 JUMPI DUP3 DUP4 REVERT JUMPDEST DUP2 MSTORE PUSH2 0x53F0 PUSH1 0x20 DUP5 ADD PUSH2 0x5019 JUMP JUMPDEST PUSH1 0x20 DUP3 ADD MSTORE PUSH2 0x5401 PUSH1 0x40 DUP5 ADD PUSH2 0x504B JUMP JUMPDEST PUSH1 0x40 DUP3 ADD MSTORE PUSH2 0x5412 PUSH1 0x60 DUP5 ADD PUSH2 0x5040 JUMP JUMPDEST PUSH1 0x60 DUP3 ADD MSTORE PUSH2 0x5423 PUSH1 0x80 DUP5 ADD PUSH2 0x5001 JUMP JUMPDEST PUSH1 0x80 DUP3 ADD MSTORE PUSH2 0x5434 PUSH1 0xA0 DUP5 ADD PUSH2 0x4FF6 JUMP JUMPDEST PUSH1 0xA0 DUP3 ADD MSTORE SWAP4 SWAP3 POP POP POP JUMP JUMPDEST PUSH1 0x0 DUP1 PUSH1 0x40 DUP4 DUP6 SUB SLT ISZERO PUSH2 0x5452 JUMPI DUP2 DUP3 REVERT JUMPDEST DUP3 MLOAD PUSH1 0x1 PUSH1 0x1 PUSH1 0x40 SHL SUB DUP1 DUP3 GT ISZERO PUSH2 0x5468 JUMPI DUP4 DUP5 REVERT JUMPDEST SWAP1 DUP5 ADD SWAP1 PUSH1 0x80 DUP3 DUP8 SUB SLT ISZERO PUSH2 0x547B JUMPI DUP4 DUP5 REVERT JUMPDEST PUSH1 0x40 MLOAD PUSH1 0x80 DUP2 ADD DUP2 DUP2 LT DUP4 DUP3 GT OR ISZERO PUSH2 0x5490 JUMPI INVALID JUMPDEST PUSH1 0x40 MSTORE DUP3 MLOAD DUP3 DUP2 GT ISZERO PUSH2 0x54A1 JUMPI DUP6 DUP7 REVERT JUMPDEST PUSH2 0x54AD DUP9 DUP3 DUP7 ADD PUSH2 0x4F19 JUMP JUMPDEST DUP3 MSTORE POP PUSH1 0x20 DUP4 ADD MLOAD DUP3 DUP2 GT ISZERO PUSH2 0x54C1 JUMPI DUP6 DUP7 REVERT JUMPDEST PUSH2 0x54CD DUP9 DUP3 DUP7 ADD PUSH2 0x4F19 JUMP JUMPDEST PUSH1 0x20 DUP4 ADD MSTORE POP PUSH1 0x40 DUP4 ADD MLOAD PUSH1 0x40 DUP3 ADD MSTORE PUSH1 0x60 DUP4 ADD MLOAD PUSH1 0x60 DUP3 ADD MSTORE DUP1 SWAP5 POP POP POP POP PUSH1 0x20 DUP4 ADD MLOAD SWAP1 POP SWAP3 POP SWAP3 SWAP1 POP JUMP JUMPDEST PUSH1 0x0 PUSH1 0x20 DUP3 DUP5 SUB SLT ISZERO PUSH2 0x550C JUMPI DUP1 DUP2 REVERT JUMPDEST DUP2 CALLDATALOAD PUSH2 0xB59 DUP2 PUSH2 0x5B88 JUMP JUMPDEST PUSH1 0x0 DUP1 PUSH1 0x40 DUP4 DUP6 SUB SLT ISZERO PUSH2 0x5529 JUMPI DUP2 DUP3 REVERT JUMPDEST POP POP DUP1 MLOAD PUSH1 0x20 SWAP1 SWAP2 ADD MLOAD SWAP1 SWAP3 SWAP1 SWAP2 POP JUMP JUMPDEST DUP2 DUP4 MSTORE PUSH1 0x0 PUSH1 0x1 PUSH1 0x1 PUSH1 0xFB SHL SUB DUP4 GT ISZERO PUSH2 0x5552 JUMPI DUP1 DUP2 REVERT JUMPDEST PUSH1 0x20 DUP4 MUL DUP1 DUP4 PUSH1 0x20 DUP8 ADD CALLDATACOPY SWAP4 SWAP1 SWAP4 ADD PUSH1 0x20 ADD SWAP3 DUP4 MSTORE POP SWAP1 SWAP2 SWAP1 POP JUMP JUMPDEST PUSH1 0x0 DUP2 MLOAD DUP1 DUP5 MSTORE PUSH1 0x20 DUP1 DUP6 ADD SWAP5 POP DUP1 DUP5 ADD DUP4 JUMPDEST DUP4 DUP2 LT ISZERO PUSH2 0x55DF JUMPI DUP2 MLOAD DUP1 MLOAD PUSH2 0xFFFF AND DUP9 MSTORE DUP4 DUP2 ADD MLOAD DUP5 DUP10 ADD MSTORE PUSH1 0x40 DUP1 DUP3 ADD MLOAD SWAP1 DUP10 ADD MSTORE PUSH1 0x60 DUP1 DUP3 ADD MLOAD SWAP1 DUP10 ADD MSTORE PUSH1 0x80 DUP1 DUP3 ADD MLOAD SWAP1 DUP10 ADD MSTORE PUSH1 0xA0 SWAP1 DUP2 ADD MLOAD SWAP1 PUSH1 0x4 DUP3 LT PUSH2 0x55CA JUMPI INVALID JUMPDEST DUP9 ADD MSTORE PUSH1 0xC0 SWAP1 SWAP7 ADD SWAP6 SWAP1 DUP3 ADD SWAP1 PUSH1 0x1 ADD PUSH2 0x5581 JUMP JUMPDEST POP SWAP5 SWAP6 SWAP5 POP POP POP POP POP JUMP JUMPDEST DUP1 MLOAD PUSH5 0xFFFFFFFFFF AND DUP3 MSTORE PUSH1 0x20 DUP1 DUP3 ADD MLOAD PUSH1 0x1 PUSH1 0x1 PUSH1 0xF8 SHL SUB NOT AND SWAP1 DUP4 ADD MSTORE PUSH1 0x40 DUP1 DUP3 ADD MLOAD PUSH1 0xFF AND SWAP1 DUP4 ADD MSTORE PUSH1 0x60 DUP1 DUP3 ADD MLOAD PUSH2 0xFFFF AND SWAP1 DUP4 ADD MSTORE PUSH1 0x80 DUP1 DUP3 ADD MLOAD PUSH1 0x1 PUSH1 0x1 PUSH1 0x70 SHL SUB NOT AND SWAP1 DUP4 ADD MSTORE PUSH1 0xA0 SWAP1 DUP2 ADD MLOAD ISZERO ISZERO SWAP2 ADD MSTORE JUMP JUMPDEST PUSH1 0x0 DUP2 MLOAD PUSH1 0x80 DUP5 MSTORE PUSH2 0x565A PUSH1 0x80 DUP6 ADD DUP3 PUSH2 0x556E JUMP JUMPDEST SWAP1 POP PUSH1 0x20 DUP4 ADD MLOAD DUP5 DUP3 SUB PUSH1 0x20 DUP7 ADD MSTORE PUSH2 0x5673 DUP3 DUP3 PUSH2 0x556E JUMP JUMPDEST SWAP2 POP POP PUSH1 0x40 DUP4 ADD MLOAD PUSH1 0x40 DUP6 ADD MSTORE PUSH1 0x60 DUP4 ADD MLOAD PUSH1 0x60 DUP6 ADD MSTORE DUP1 SWAP2 POP POP SWAP3 SWAP2 POP POP JUMP JUMPDEST PUSH1 0x1 PUSH1 0x1 PUSH1 0xA0 SHL SUB SWAP2 SWAP1 SWAP2 AND DUP2 MSTORE PUSH1 0x20 ADD SWAP1 JUMP JUMPDEST PUSH1 0x1 PUSH1 0x1 PUSH1 0xA0 SHL SUB DUP6 DUP2 AND DUP3 MSTORE DUP5 AND PUSH1 0x20 DUP3 ADD MSTORE PUSH1 0x60 PUSH1 0x40 DUP3 ADD DUP2 SWAP1 MSTORE DUP2 ADD DUP3 SWAP1 MSTORE PUSH1 0x0 DUP3 DUP5 PUSH1 0x80 DUP5 ADD CALLDATACOPY DUP2 DUP4 ADD PUSH1 0x80 SWAP1 DUP2 ADD SWAP2 SWAP1 SWAP2 MSTORE PUSH1 0x1F SWAP1 SWAP3 ADD PUSH1 0x1F NOT AND ADD ADD SWAP4 SWAP3 POP POP POP JUMP JUMPDEST PUSH1 0x1 PUSH1 0x1 PUSH1 0xA0 SHL SUB SWAP7 DUP8 AND DUP2 MSTORE SWAP5 DUP7 AND PUSH1 0x20 DUP7 ADD MSTORE SWAP3 DUP6 AND PUSH1 0x40 DUP6 ADD MSTORE SWAP1 DUP5 AND PUSH1 0x60 DUP5 ADD MSTORE DUP4 AND PUSH1 0x80 DUP4 ADD MSTORE SWAP1 SWAP2 AND PUSH1 0xA0 DUP3 ADD MSTORE PUSH1 0xC0 ADD SWAP1 JUMP JUMPDEST PUSH1 0x1 PUSH1 0x1 PUSH1 0xA0 SHL SUB SWAP3 SWAP1 SWAP3 AND DUP3 MSTORE PUSH1 0x20 DUP3 ADD MSTORE PUSH1 0x40 ADD SWAP1 JUMP JUMPDEST PUSH1 0x1 PUSH1 0x1 PUSH1 0xA0 SHL SUB DUP4 AND DUP2 MSTORE PUSH1 0xE0 DUP2 ADD PUSH2 0xB59 PUSH1 0x20 DUP4 ADD DUP5 PUSH2 0x55EA JUMP JUMPDEST PUSH1 0x1 PUSH1 0x1 PUSH1 0xA0 SHL SUB DUP5 AND DUP2 MSTORE PUSH1 0x0 PUSH2 0x100 PUSH2 0x577F PUSH1 0x20 DUP5 ADD DUP7 PUSH2 0x55EA JUMP JUMPDEST DUP1 PUSH1 0xE0 DUP5 ADD MSTORE PUSH2 0x2230 DUP2 DUP5 ADD DUP6 PUSH2 0x5645 JUMP JUMPDEST PUSH1 0x1 PUSH1 0x1 PUSH1 0xA0 SHL SUB SWAP4 SWAP1 SWAP4 AND DUP4 MSTORE PUSH2 0xFFFF SWAP2 SWAP1 SWAP2 AND PUSH1 0x20 DUP4 ADD MSTORE PUSH1 0x40 DUP3 ADD MSTORE PUSH1 0x60 ADD SWAP1 JUMP JUMPDEST PUSH1 0x1 PUSH1 0x1 PUSH1 0xA0 SHL SUB DUP7 AND DUP2 MSTORE PUSH2 0xFFFF DUP6 AND PUSH1 0x20 DUP3 ADD MSTORE PUSH1 0x80 PUSH1 0x40 DUP3 ADD DUP2 SWAP1 MSTORE PUSH1 0x0 SWAP1 PUSH2 0x57E4 SWAP1 DUP4 ADD DUP7 PUSH2 0x5645 JUMP JUMPDEST DUP3 DUP2 SUB PUSH1 0x60 DUP5 ADD MSTORE PUSH2 0x198F DUP2 DUP6 DUP8 PUSH2 0x553A JUMP JUMPDEST PUSH1 0x1 PUSH1 0x1 PUSH1 0xA0 SHL SUB SWAP6 SWAP1 SWAP6 AND DUP6 MSTORE PUSH2 0xFFFF SWAP4 SWAP1 SWAP4 AND PUSH1 0x20 DUP6 ADD MSTORE PUSH1 0x40 DUP5 ADD SWAP2 SWAP1 SWAP2 MSTORE PUSH1 0x60 DUP4 ADD MSTORE PUSH1 0x80 DUP3 ADD MSTORE PUSH1 0xA0 ADD SWAP1 JUMP JUMPDEST PUSH1 0x1 PUSH1 0x1 PUSH1 0xA0 SHL SUB DUP7 AND DUP2 MSTORE PUSH2 0xFFFF DUP6 AND PUSH1 0x20 DUP3 ADD MSTORE PUSH5 0xFFFFFFFFFF DUP5 AND PUSH1 0x40 DUP3 ADD MSTORE PUSH1 0x80 PUSH1 0x60 DUP3 ADD DUP2 SWAP1 MSTORE PUSH1 0x0 SWAP1 PUSH2 0x24F4 SWAP1 DUP4 ADD DUP5 DUP7 PUSH2 0x553A JUMP JUMPDEST PUSH1 0x1 PUSH1 0x1 PUSH1 0xA0 SHL SUB SWAP5 SWAP1 SWAP5 AND DUP5 MSTORE PUSH1 0x20 DUP5 ADD SWAP3 SWAP1 SWAP3 MSTORE PUSH1 0x40 DUP4 ADD MSTORE PUSH1 0x60 DUP3 ADD MSTORE PUSH1 0x80 ADD SWAP1 JUMP JUMPDEST PUSH1 0x20 DUP1 DUP3 MSTORE PUSH1 0xF SWAP1 DUP3 ADD MSTORE PUSH15 0x4F76657220537570706C792043617 PUSH1 0x8C SHL PUSH1 0x40 DUP3 ADD MSTORE PUSH1 0x60 ADD SWAP1 JUMP JUMPDEST PUSH1 0x20 DUP1 DUP3 MSTORE PUSH1 0xC SWAP1 DUP3 ADD MSTORE PUSH12 0x155B985D5D1A1BDC9A5E9959 PUSH1 0xA2 SHL PUSH1 0x40 DUP3 ADD MSTORE PUSH1 0x60 ADD SWAP1 JUMP JUMPDEST PUSH1 0x20 DUP1 DUP3 MSTORE PUSH1 0xB SWAP1 DUP3 ADD MSTORE PUSH11 0x4554482042616C616E6365 PUSH1 0xA8 SHL PUSH1 0x40 DUP3 ADD MSTORE PUSH1 0x60 ADD SWAP1 JUMP JUMPDEST PUSH1 0x20 DUP1 DUP3 MSTORE PUSH1 0x6 SWAP1 DUP3 ADD MSTORE PUSH6 0x52656465656D PUSH1 0xD0 SHL PUSH1 0x40 DUP3 ADD MSTORE PUSH1 0x60 ADD SWAP1 JUMP JUMPDEST PUSH1 0x20 DUP1 DUP3 MSTORE PUSH1 0xF SWAP1 DUP3 ADD MSTORE PUSH15 0x4E6F205072696D6520426F72726F77 PUSH1 0x88 SHL PUSH1 0x40 DUP3 ADD MSTORE PUSH1 0x60 ADD SWAP1 JUMP JUMPDEST PUSH1 0x20 DUP1 DUP3 MSTORE PUSH1 0x10 SWAP1 DUP3 ADD MSTORE PUSH16 0x556E736F7274656420616374696F6E73 PUSH1 0x80 SHL PUSH1 0x40 DUP3 ADD MSTORE PUSH1 0x60 ADD SWAP1 JUMP JUMPDEST PUSH1 0x20 DUP1 DUP3 MSTORE DUP2 DUP2 ADD MSTORE PUSH32 0x446570726563617465643A20526564656D7074696F6E20746F2063546F6B656E PUSH1 0x40 DUP3 ADD MSTORE PUSH1 0x60 ADD SWAP1 JUMP JUMPDEST PUSH1 0x20 DUP1 DUP3 MSTORE PUSH1 0x1A SWAP1 DUP3 ADD MSTORE PUSH32 0x496E73756666696369656E7420746F6B656E2062616C616E6365000000000000 PUSH1 0x40 DUP3 ADD MSTORE PUSH1 0x60 ADD SWAP1 JUMP JUMPDEST PUSH1 0x20 DUP1 DUP3 MSTORE PUSH1 0x1A SWAP1 DUP3 ADD MSTORE PUSH32 0x496E76616C69642074726164657320666F72206163636F756E74000000000000 PUSH1 0x40 DUP3 ADD MSTORE PUSH1 0x60 ADD SWAP1 JUMP JUMPDEST PUSH1 0x20 DUP1 DUP3 MSTORE PUSH1 0x8 SWAP1 DUP3 ADD MSTORE PUSH8 0x111A5CD8589B1959 PUSH1 0xC2 SHL PUSH1 0x40 DUP3 ADD MSTORE PUSH1 0x60 ADD SWAP1 JUMP JUMPDEST PUSH1 0x20 DUP1 DUP3 MSTORE PUSH1 0xA SWAP1 DUP3 ADD MSTORE PUSH10 0x2732B390372A37B5B2B7 PUSH1 0xB1 SHL PUSH1 0x40 DUP3 ADD MSTORE PUSH1 0x60 ADD SWAP1 JUMP JUMPDEST PUSH1 0x20 DUP1 DUP3 MSTORE PUSH1 0x14 SWAP1 DUP3 ADD MSTORE PUSH20 0x125B9CDD59999A58DA595B9D0819195C1BDCDA5D PUSH1 0x62 SHL PUSH1 0x40 DUP3 ADD MSTORE PUSH1 0x60 ADD SWAP1 JUMP JUMPDEST SWAP1 DUP2 MSTORE PUSH1 0x20 ADD SWAP1 JUMP JUMPDEST SWAP3 DUP4 MSTORE PUSH1 0x20 DUP4 ADD SWAP2 SWAP1 SWAP2 MSTORE PUSH1 0x40 DUP3 ADD MSTORE PUSH1 0x60 ADD SWAP1 JUMP JUMPDEST PUSH1 0x0 DUP1 DUP4 CALLDATALOAD PUSH1 0x1E NOT DUP5 CALLDATASIZE SUB ADD DUP2 SLT PUSH2 0x5ABE JUMPI DUP3 DUP4 REVERT JUMPDEST DUP4 ADD DUP1 CALLDATALOAD SWAP2 POP PUSH1 0x1 PUSH1 0x1 PUSH1 0x40 SHL SUB DUP3 GT ISZERO PUSH2 0x5AD7 JUMPI DUP3 DUP4 REVERT JUMPDEST PUSH1 0x20 SWAP1 DUP2 ADD SWAP3 POP DUP2 MUL CALLDATASIZE SUB DUP3 SGT ISZERO PUSH2 0x4F12 JUMPI PUSH1 0x0 DUP1 REVERT JUMPDEST PUSH1 0x0 DUP3 CALLDATALOAD PUSH1 0xDE NOT DUP4 CALLDATASIZE SUB ADD DUP2 SLT PUSH2 0x5B03 JUMPI DUP2 DUP3 REVERT JUMPDEST SWAP2 SWAP1 SWAP2 ADD SWAP3 SWAP2 POP POP JUMP JUMPDEST PUSH1 0x0 DUP3 CALLDATALOAD PUSH1 0x5E NOT DUP4 CALLDATASIZE SUB ADD DUP2 SLT PUSH2 0x5B03 JUMPI DUP2 DUP3 REVERT JUMPDEST PUSH1 0x40 MLOAD DUP2 DUP2 ADD PUSH1 0x1 PUSH1 0x1 PUSH1 0x40 SHL SUB DUP2 GT DUP3 DUP3 LT OR ISZERO PUSH2 0x5B3D JUMPI INVALID JUMPDEST PUSH1 0x40 MSTORE SWAP2 SWAP1 POP JUMP JUMPDEST PUSH1 0x0 PUSH1 0x1 PUSH1 0x1 PUSH1 0x40 SHL SUB DUP3 GT ISZERO PUSH2 0x5B58 JUMPI INVALID JUMPDEST POP PUSH1 0x20 SWAP1 DUP2 MUL ADD SWAP1 JUMP JUMPDEST PUSH1 0x1 PUSH1 0x1 PUSH1 0xA0 SHL SUB DUP2 AND DUP2 EQ PUSH2 0x5B77 JUMPI PUSH1 0x0 DUP1 REVERT JUMPDEST POP JUMP JUMPDEST DUP1 ISZERO ISZERO DUP2 EQ PUSH2 0x5B77 JUMPI PUSH1 0x0 DUP1 REVERT JUMPDEST PUSH2 0xFFFF DUP2 AND DUP2 EQ PUSH2 0x5B77 JUMPI PUSH1 0x0 DUP1 REVERT INVALID LOG2 PUSH5 0x6970667358 0x22 SLT KECCAK256 EXTCODECOPY 0xC4 SWAP14 SGT SWAP8 PUSH1 0x97 0xB9 MLOAD SDIV RETURNDATACOPY PUSH26 0x1E3FEF03744E573CAE90F5442A2C9771C59B5BE564736F6C6343 STOP SMOD MOD STOP CALLER ","sha1":"044d09c82af15b77e59e85c0a087ea62ad24dea4","source":"// SPDX-License-Identifier: BSUL-1.1\npragma solidity =0.7.6;\npragma abicoder v2;\n\nimport {\n    BalanceState,\n    PortfolioState,\n    AccountContext,\n    PrimeRate,\n    BatchLend,\n    BalanceAction,\n    BalanceActionWithTrades,\n    DepositActionType,\n    TradeActionType,\n    Token\n} from \"../../global/Types.sol\";\nimport {Constants} from \"../../global/Constants.sol\";\nimport {SafeInt256} from \"../../math/SafeInt256.sol\";\nimport {StorageLayoutV1} from \"../../global/StorageLayoutV1.sol\";\n\nimport {BalanceHandler} from \"../../internal/balances/BalanceHandler.sol\";\nimport {TokenHandler} from \"../../internal/balances/TokenHandler.sol\";\nimport {PortfolioHandler} from \"../../internal/portfolio/PortfolioHandler.sol\";\nimport {PrimeRateLib} from \"../../internal/pCash/PrimeRateLib.sol\";\nimport {AccountContextHandler} from \"../../internal/AccountContextHandler.sol\";\nimport {NotionalCallback} from \"../../../interfaces/notional/NotionalCallback.sol\";\nimport {DeprecatedAssetRate} from \"../../internal/markets/DeprecatedAssetRate.sol\";\n\nimport {MigrateIncentives} from \"../MigrateIncentives.sol\";\nimport {TradingAction} from \"./TradingAction.sol\";\nimport {ActionGuards} from \"./ActionGuards.sol\";\nimport {nTokenMintAction} from \"./nTokenMintAction.sol\";\nimport {nTokenRedeemAction} from \"./nTokenRedeemAction.sol\";\nimport {SettleAssetsExternal} from \"../SettleAssetsExternal.sol\";\nimport {FreeCollateralExternal} from \"../FreeCollateralExternal.sol\";\n\ncontract BatchAction is StorageLayoutV1, ActionGuards {\n    using BalanceHandler for BalanceState;\n    using PortfolioHandler for PortfolioState;\n    using AccountContextHandler for AccountContext;\n    using PrimeRateLib for PrimeRate;\n    using TokenHandler for Token;\n    using SafeInt256 for int256;\n\n    /// @notice Executes a batch of balance transfers including minting and redeeming nTokens.\n    /// @param account the account for the action\n    /// @param actions array of balance actions to take, must be sorted by currency id\n    /// @dev emit:CashBalanceChange, emit:nTokenSupplyChange\n    /// @dev auth:msg.sender auth:ERC1155\n    function batchBalanceAction(address account, BalanceAction[] calldata actions)\n        external\n        payable\n        nonReentrant\n    {\n        require(account == msg.sender || msg.sender == address(this), \"Unauthorized\");\n        requireValidAccount(account);\n\n        AccountContext memory accountContext = _settleAccountIfRequired(account);\n        BalanceState memory balanceState;\n\n        for (uint256 i = 0; i < actions.length; i++) {\n            BalanceAction calldata action = actions[i];\n            // msg.value will only be used when currency id == 1, referencing ETH. The requirement\n            // to sort actions by increasing id enforces that msg.value will only be used once.\n            if (i > 0) {\n                require(action.currencyId > actions[i - 1].currencyId, \"Unsorted actions\");\n            }\n            // Loads the currencyId into balance state\n            balanceState.loadBalanceState(account, action.currencyId, accountContext);\n\n            _executeDepositAction(\n                account,\n                balanceState,\n                action.actionType,\n                action.depositActionAmount\n            );\n\n            _calculateWithdrawActionAndFinalize(\n                account,\n                accountContext,\n                balanceState,\n                action.withdrawAmountInternalPrecision,\n                action.withdrawEntireCashBalance,\n                action.redeemToUnderlying\n            );\n        }\n\n        _finalizeAccountContext(account, accountContext);\n    }\n\n    /// @notice Executes a batch of balance transfers and trading actions\n    /// @param account the account for the action\n    /// @param actions array of balance actions with trades to take, must be sorted by currency id\n    /// @dev auth:msg.sender auth:ERC1155\n    function batchBalanceAndTradeAction(address account, BalanceActionWithTrades[] calldata actions)\n        external\n        payable\n        nonReentrant\n    {\n        require(account == msg.sender || msg.sender == address(this), \"Unauthorized\");\n        requireValidAccount(account);\n        AccountContext memory accountContext = _batchBalanceAndTradeAction(account, actions);\n        _finalizeAccountContext(account, accountContext);\n    }\n\n    /// @notice Executes a batch of lending actions. This is different from batchBalanceAndTrade because\n    /// it always pulls the required amount of tokens to get an account to a cash balance of zero. It reduces\n    /// the gas costs for lending because there is no second token transfer where residual balances are sent\n    /// back to the account.\n    /// @dev Note that this method does not work with native ETH because it requires the ability to pull payment\n    /// from an ERC20 token. Therefore, this method is marked as nonpayable. It will still work with cETH or aETH.\n    /// @param account the account for the action\n    /// @param actions array of batch lending actions\n    /// @dev auth:msg.sender auth:ERC1155\n    function batchLend(address account, BatchLend[] calldata actions)\n        external\n        nonReentrant\n    {\n        require(account == msg.sender || msg.sender == address(this), \"Unauthorized\");\n        requireValidAccount(account);\n\n        AccountContext memory accountContext = _settleAccountIfRequired(account);\n        // NOTE: loading the portfolio state must happen after settle account to get the\n        // correct portfolio, it will have changed if the account is settled.\n        PortfolioState memory portfolioState = PortfolioHandler.buildPortfolioState(\n            account,\n            accountContext.assetArrayLength,\n            0\n        );\n        BalanceState memory balanceState;\n\n        for (uint256 i = 0; i < actions.length; i++) {\n            BatchLend calldata action = actions[i];\n            // msg.value will never be used in this method because it is non-payable\n            if (i > 0) {\n                require(action.currencyId > actions[i - 1].currencyId, \"Unsorted actions\");\n            }\n\n            // Require that each action have at least 1 trade and all trades are lending trades\n            uint256 numTrades = action.trades.length;\n            require(numTrades > 0); // dev: no actions\n            for (uint256 j = 0; j < numTrades; j++) {\n                require(uint8(bytes1(action.trades[j])) == uint8(TradeActionType.Lend)); // dev: only lend trades\n            }\n\n            // Loads the currencyId into balance state\n            balanceState.loadBalanceState(account, action.currencyId, accountContext);\n            (balanceState.netCashChange, portfolioState) = _executeTrades(\n                account,\n                action.currencyId,\n                action.trades,\n                accountContext,\n                portfolioState\n            );\n            // This must be negative as a result of requiring only lending\n            require(balanceState.netCashChange <= 0);\n\n            // Deposit sufficient cash to get the balance up to zero. If required cash is negative (i.e. there\n            // is sufficient cash) then we don't need to do anything. The account's cash balance will be net off\n            // and there will be no token transfer.\n            // NOTE: it is possible that free collateral decreases as a result of lending a cash balance, will\n            // check FC at the end of the method.\n            int256 requiredCash = balanceState.storedCashBalance.add(balanceState.netCashChange).neg();\n            if (requiredCash > 0) {\n                int256 primeCashDeposited;\n                Token memory underlyingToken = TokenHandler.getUnderlyingToken(action.currencyId);\n                int256 underlyingExternalAmount = underlyingToken.convertToUnderlyingExternalWithAdjustment(\n                    balanceState.primeRate.convertToUnderlying(requiredCash)\n                );\n\n                if (action.depositUnderlying) {\n                    // If depositing underlying, get the current asset rate and convert the required cash\n                    // back to underlying.\n                    primeCashDeposited = balanceState.depositUnderlyingToken(\n                        account,\n                        underlyingExternalAmount,\n                        false // ETH is never used here since the method is non-payable\n                    );\n                } else {\n                    // This code remains to support deprecated asset tokens. AssetRate is no longer used within\n                    // Notional, however, it is used here to calculate the proper amount of asset (cTokens) to\n                    // deposit in this lending scenario.\n                    primeCashDeposited = balanceState.depositDeprecatedAssetToken(\n                        account,\n                        DeprecatedAssetRate.convertUnderlyingExternalToAsset(\n                            action.currencyId,\n                            underlyingExternalAmount\n                        ).add(1)\n                    );\n                }\n\n                // Batch lending requires that the balance state does not go below zero, i.e. it does not allow users\n                // to borrow variable to lend fixed. That can be accomplished via batchActionWithTrades.\n                require(primeCashDeposited >= requiredCash, \"Insufficient deposit\");\n            }\n\n            balanceState.finalizeNoWithdraw(account, accountContext);\n\n            // Check the supply cap after balances have been finalized\n            balanceState.primeRate.checkSupplyCap(balanceState.currencyId);\n        }\n\n        // Update the portfolio state if bitmap is not enabled. If bitmap is already enabled\n        // then all the assets have already been updated in in storage.\n        if (!accountContext.isBitmapEnabled()) {\n            // NOTE: a new account context memory location is returned here\n            accountContext = SettleAssetsExternal.storeAssetsInPortfolioState(\n                account, accountContext, portfolioState\n            );\n        }\n\n        // This will save the account context and check free collateral\n        _finalizeAccountContext(account, accountContext);\n    }\n\n    /// @notice Executes a batch of balance transfers and trading actions via an authorized callback contract. This\n    /// can be used as a \"flash loan\" facility for special contracts that migrate assets between protocols or perform\n    /// other actions on behalf of the user.\n    /// Contracts can borrow from Notional and receive a callback prior to an FC check, this can be useful if the contract\n    /// needs to perform a trade or repay a debt on a different protocol before depositing collateral. Since Notional's AMM\n    /// will never be as capital efficient or gas efficient as other flash loan facilities, this method requires whitelisting\n    /// and will mainly be used for contracts that make migrating assets a better user experience.\n    /// @param account the account that will take all the actions\n    /// @param actions array of balance actions with trades to take, must be sorted by currency id\n    /// @param callbackData arbitrary bytes to be passed backed to the caller in the callback\n    /// @dev auth:authorizedCallbackContract\n    function batchBalanceAndTradeActionWithCallback(\n        address account,\n        BalanceActionWithTrades[] calldata actions,\n        bytes calldata callbackData\n    ) external payable {\n        // NOTE: Re-entrancy is allowed for authorized callback functions.\n        require(authorizedCallbackContract[msg.sender], \"Unauthorized\");\n        requireValidAccount(account);\n\n        AccountContext memory accountContext = _batchBalanceAndTradeAction(account, actions);\n        accountContext.setAccountContext(account);\n\n        // Be sure to set the account context before initiating the callback, all stateful updates\n        // have been finalized at this point so we are safe to issue a callback. This callback may\n        // re-enter Notional safely to deposit or take other actions.\n        NotionalCallback(msg.sender).notionalCallback(msg.sender, account, callbackData);\n\n        if (accountContext.hasDebt != 0x00) {\n            // NOTE: this method may update the account context to turn off the hasDebt flag, this\n            // is ok because the worst case would be causing an extra free collateral check when it\n            // is not required. This check will be entered if the account hasDebt prior to the callback\n            // being triggered above, so it will happen regardless of what the callback function does.\n            FreeCollateralExternal.checkFreeCollateralAndRevert(account);\n        }\n    }\n\n    function _batchBalanceAndTradeAction(\n        address account,\n        BalanceActionWithTrades[] calldata actions\n    ) internal returns (AccountContext memory) {\n        AccountContext memory accountContext = _settleAccountIfRequired(account);\n        BalanceState memory balanceState;\n        // NOTE: loading the portfolio state must happen after settle account to get the\n        // correct portfolio, it will have changed if the account is settled.\n        PortfolioState memory portfolioState = PortfolioHandler.buildPortfolioState(\n            account,\n            accountContext.assetArrayLength,\n            0\n        );\n\n        for (uint256 i = 0; i < actions.length; i++) {\n            BalanceActionWithTrades calldata action = actions[i];\n            // msg.value will only be used when currency id == 1, referencing ETH. The requirement\n            // to sort actions by increasing id enforces that msg.value will only be used once.\n            if (i > 0) {\n                require(action.currencyId > actions[i - 1].currencyId, \"Unsorted actions\");\n            }\n            // Loads the currencyId into balance state\n            balanceState.loadBalanceState(account, action.currencyId, accountContext);\n\n            // Does not revert on invalid action types here, they also have no effect.\n            _executeDepositAction(\n                account,\n                balanceState,\n                action.actionType,\n                action.depositActionAmount\n            );\n\n            if (action.trades.length > 0) {\n                int256 netCash;\n                (netCash, portfolioState) = _executeTrades(\n                    account,\n                    action.currencyId,\n                    action.trades,\n                    accountContext,\n                    portfolioState\n                );\n\n                // If the account owes cash after trading, ensure that it has enough\n                balanceState.netCashChange = balanceState.netCashChange.add(netCash);\n            }\n\n            _calculateWithdrawActionAndFinalize(\n                account,\n                accountContext,\n                balanceState,\n                action.withdrawAmountInternalPrecision,\n                action.withdrawEntireCashBalance,\n                action.redeemToUnderlying\n            );\n        }\n\n        // Update the portfolio state if bitmap is not enabled. If bitmap is already enabled\n        // then all the assets have already been updated in in storage.\n        if (!accountContext.isBitmapEnabled()) {\n            // NOTE: a new account context memory location is returned here\n            accountContext = SettleAssetsExternal.storeAssetsInPortfolioState(\n                account, accountContext, portfolioState\n            );\n        }\n\n        // NOTE: free collateral and account context will be set outside of this method call.\n        return accountContext;\n    }\n\n    /// @dev Executes deposits\n    function _executeDepositAction(\n        address account,\n        BalanceState memory balanceState,\n        DepositActionType depositType,\n        uint256 depositActionAmount_\n    ) private {\n        int256 depositActionAmount = SafeInt256.toInt(depositActionAmount_);\n        int256 primeCashDeposited;\n        require(depositActionAmount >= 0);\n\n        if (depositType == DepositActionType.None) {\n            return;\n        } else if (\n            depositType == DepositActionType.DepositAsset ||\n            depositType == DepositActionType.DepositAssetAndMintNToken\n        ) {\n            // This transfer will happen immediately.\n            primeCashDeposited = balanceState.depositDeprecatedAssetToken(\n                account,\n                depositActionAmount\n            );\n        } else if (\n            depositType == DepositActionType.DepositUnderlying ||\n            depositType == DepositActionType.DepositUnderlyingAndMintNToken\n        ) {\n            // This transfer will be deferred until balanceState.finalize\n            primeCashDeposited = balanceState.depositUnderlyingToken(\n                account,\n                depositActionAmount,\n                false // No excess ETH by definition\n            );\n        } else if (depositType == DepositActionType.ConvertCashToNToken) {\n            // _executeNTokenAction will check if the account has sufficient cash\n            primeCashDeposited = depositActionAmount;\n        }\n\n        _executeNTokenAction(\n            account, balanceState, depositType, depositActionAmount, primeCashDeposited\n        );\n    }\n\n    /// @dev Executes nToken actions\n    function _executeNTokenAction(\n        address account,\n        BalanceState memory balanceState,\n        DepositActionType depositType,\n        int256 depositActionAmount,\n        int256 primeCashDeposited\n    ) private {\n        // After deposits have occurred, check if we are minting nTokens\n        if (\n            depositType == DepositActionType.DepositAssetAndMintNToken ||\n            depositType == DepositActionType.DepositUnderlyingAndMintNToken ||\n            depositType == DepositActionType.ConvertCashToNToken\n        ) {\n            balanceState.netCashChange = balanceState.netCashChange.sub(primeCashDeposited);\n            revert(\"Disabled\");\n\n            // Converts a given amount of cash (denominated in internal precision) into nTokens\n            int256 tokensMinted = nTokenMintAction.nTokenMint(\n                account, balanceState.currencyId, primeCashDeposited\n            );\n\n            balanceState.netNTokenSupplyChange = balanceState.netNTokenSupplyChange.add(\n                tokensMinted\n            );\n        } else if (depositType == DepositActionType.RedeemNToken) {\n            require(\n                // prettier-ignore\n                balanceState\n                    .storedNTokenBalance\n                    .add(balanceState.netNTokenTransfer) // transfers would not occur at this point\n                    .add(balanceState.netNTokenSupplyChange) >= depositActionAmount,\n                \"Insufficient token balance\"\n            );\n\n            balanceState.netNTokenSupplyChange = balanceState.netNTokenSupplyChange.sub(\n                depositActionAmount\n            );\n\n            int256 primeCash = nTokenRedeemAction.nTokenRedeemViaBatch(\n                account, balanceState.currencyId, depositActionAmount\n            );\n\n            balanceState.netCashChange = balanceState.netCashChange.add(primeCash);\n        }\n    }\n\n    /// @dev Calculations any withdraws and finalizes balances\n    function _calculateWithdrawActionAndFinalize(\n        address account,\n        AccountContext memory accountContext,\n        BalanceState memory balanceState,\n        uint256 withdrawAmountInternalPrecision,\n        bool withdrawEntireCashBalance,\n        bool redeemToUnderlying\n    ) private {\n        int256 withdrawAmount = SafeInt256.toInt(withdrawAmountInternalPrecision);\n        require(withdrawAmount >= 0); // dev: withdraw action overflow\n        // Prior to the prime cash migration, accounts could withdraw cash as cTokens. This is no longer\n        // possible. In the case of ETH, if redeemToUnderlying == false then ETH will be redeemed as WETH.\n        if (balanceState.currencyId != Constants.ETH_CURRENCY_ID) {\n            require(redeemToUnderlying, \"Deprecated: Redemption to cToken\");\n        }\n\n        // NOTE: if withdrawEntireCashBalance is set it will override the withdrawAmountInternalPrecision input\n        if (withdrawEntireCashBalance) {\n            // This option is here so that accounts do not end up with dust after lending since we generally\n            // cannot calculate exact cash amounts from the liquidity curve.\n            withdrawAmount = balanceState.storedCashBalance.add(balanceState.netCashChange);\n\n            // If the account has a negative cash balance then cannot withdraw\n            if (withdrawAmount < 0) withdrawAmount = 0;\n        }\n\n        balanceState.primeCashWithdraw = withdrawAmount.neg();\n        balanceState.finalizeWithWithdraw(account, accountContext, !redeemToUnderlying);\n\n        // Check the supply cap after all balances have been finalized.\n        // NOTE: there is an edge condition when attempting to redeem nTokens while the supply cap has\n        // been breached that will cause this to revert. Accounts should be able to redeem their nTokens\n        // regardless of the supply cap situation. In order to work around this, accounts can call\n        // AccountAction#nTokenRedeem and then AccountAction#withdraw, neither of which check supply caps.\n        balanceState.primeRate.checkSupplyCap(balanceState.currencyId);\n    }\n\n    function _finalizeAccountContext(address account, AccountContext memory accountContext)\n        private\n    {\n        // At this point all balances, market states and portfolio states should be finalized. Just need to check free\n        // collateral if required.\n        accountContext.setAccountContext(account);\n        if (accountContext.hasDebt != 0x00) {\n            FreeCollateralExternal.checkFreeCollateralAndRevert(account);\n        }\n    }\n\n    function _executeTrades(\n        address account,\n        uint16 currencyId,\n        bytes32[] calldata trades,\n        AccountContext memory accountContext,\n        PortfolioState memory portfolioState\n    ) private returns (int256 netCash, PortfolioState memory postTradeState) {\n        if (accountContext.isBitmapEnabled()) {\n            require(\n                accountContext.bitmapCurrencyId == currencyId,\n                \"Invalid trades for account\"\n            );\n            bool didIncurDebt;\n            (netCash, didIncurDebt) = TradingAction.executeTradesBitmapBatch(\n                account,\n                accountContext.bitmapCurrencyId,\n                accountContext.nextSettleTime,\n                trades\n            );\n            if (didIncurDebt) {\n                accountContext.hasDebt = Constants.HAS_ASSET_DEBT | accountContext.hasDebt;\n            }\n        } else {\n            // NOTE: we return portfolio state here instead of setting it inside executeTradesArrayBatch\n            // because we want to only write to storage once after all trades are completed\n            (postTradeState, netCash) = TradingAction.executeTradesArrayBatch(\n                account,\n                currencyId,\n                portfolioState,\n                trades\n            );\n        }\n    }\n\n    function _settleAccountIfRequired(address account)\n        private\n        returns (AccountContext memory)\n    {\n        AccountContext memory accountContext = AccountContextHandler.getAccountContext(account);\n        if (accountContext.mustSettleAssets()) {\n            // Returns a new memory reference to account context\n            return SettleAssetsExternal.settleAccount(account, accountContext);\n        } else {\n            return accountContext;\n        }\n    }\n\n    /// @notice Get a list of deployed library addresses (sorted by library name)\n    function getLibInfo() external pure returns (address, address, address, address, address, address) {\n        return (\n            address(FreeCollateralExternal), \n            address(MigrateIncentives), \n            address(SettleAssetsExternal), \n            address(TradingAction),\n            address(nTokenMintAction), \n            address(nTokenRedeemAction)\n        );\n    }\n}","sourcePath":"contracts/external/actions/BatchAction.sol","type":"contract","deployment":{"address":"0x1A8a610b11709FeABb13f4fA279982b96052F652","chainid":"42161","blockHeight":171469922}}