{"abi":[{"inputs":[{"internalType":"uint16","name":"currencyId","type":"uint16"}],"name":"accruePrimeInterest","outputs":[{"components":[{"internalType":"int256","name":"supplyFactor","type":"int256"},{"internalType":"int256","name":"debtFactor","type":"int256"},{"internalType":"uint256","name":"oracleSupplyRate","type":"uint256"}],"internalType":"struct PrimeRate","name":"pr","type":"tuple"},{"components":[{"internalType":"uint256","name":"lastAccrueTime","type":"uint256"},{"internalType":"uint256","name":"totalPrimeSupply","type":"uint256"},{"internalType":"uint256","name":"totalPrimeDebt","type":"uint256"},{"internalType":"uint256","name":"oracleSupplyRate","type":"uint256"},{"internalType":"uint256","name":"lastTotalUnderlyingValue","type":"uint256"},{"internalType":"uint256","name":"underlyingScalar","type":"uint256"},{"internalType":"uint256","name":"supplyScalar","type":"uint256"},{"internalType":"uint256","name":"debtScalar","type":"uint256"},{"internalType":"uint256","name":"rateOracleTimeWindow","type":"uint256"}],"internalType":"struct PrimeCashFactors","name":"factors","type":"tuple"}],"stateMutability":"nonpayable","type":"function"},{"inputs":[{"internalType":"uint16","name":"currencyId","type":"uint16"},{"internalType":"uint88","name":"amountToDepositExternalPrecision","type":"uint88"}],"name":"calculateNTokensToMint","outputs":[{"internalType":"uint256","name":"","type":"uint256"}],"stateMutability":"view","type":"function"},{"inputs":[{"internalType":"uint16","name":"currencyId","type":"uint16"},{"internalType":"int256","name":"primeCashBalance","type":"int256"},{"internalType":"bool","name":"convertToUnderlying","type":"bool"}],"name":"convertCashBalanceToExternal","outputs":[{"internalType":"int256","name":"","type":"int256"}],"stateMutability":"view","type":"function"},{"inputs":[{"internalType":"uint16","name":"currencyId","type":"uint16"},{"internalType":"int256","name":"nTokenBalance","type":"int256"}],"name":"convertNTokenToUnderlying","outputs":[{"internalType":"int256","name":"","type":"int256"}],"stateMutability":"view","type":"function"},{"inputs":[{"internalType":"uint16","name":"currencyId","type":"uint16"},{"internalType":"uint256","name":"maturity","type":"uint256"},{"internalType":"int256","name":"fCashBalance","type":"int256"},{"internalType":"uint256","name":"blockTime","type":"uint256"}],"name":"convertSettledfCash","outputs":[{"internalType":"int256","name":"signedPrimeSupplyValue","type":"int256"}],"stateMutability":"view","type":"function"},{"inputs":[{"internalType":"uint16","name":"currencyId","type":"uint16"},{"internalType":"int256","name":"underlyingExternal","type":"int256"}],"name":"convertUnderlyingToPrimeCash","outputs":[{"internalType":"int256","name":"","type":"int256"}],"stateMutability":"view","type":"function"},{"inputs":[{"internalType":"uint16","name":"currencyId","type":"uint16"},{"internalType":"int88","name":"fCashAmount","type":"int88"},{"internalType":"uint256","name":"marketIndex","type":"uint256"},{"internalType":"uint256","name":"blockTime","type":"uint256"}],"name":"getCashAmountGivenfCashAmount","outputs":[{"internalType":"int256","name":"","type":"int256"},{"internalType":"int256","name":"","type":"int256"}],"stateMutability":"view","type":"function"},{"inputs":[{"internalType":"uint16","name":"currencyId","type":"uint16"},{"internalType":"uint256","name":"fCashAmount","type":"uint256"},{"internalType":"uint256","name":"maturity","type":"uint256"},{"internalType":"uint32","name":"minLendRate","type":"uint32"},{"internalType":"uint256","name":"blockTime","type":"uint256"}],"name":"getDepositFromfCashLend","outputs":[{"internalType":"uint256","name":"depositAmountUnderlying","type":"uint256"},{"internalType":"uint256","name":"depositAmountPrimeCash","type":"uint256"},{"internalType":"uint8","name":"marketIndex","type":"uint8"},{"internalType":"bytes32","name":"encodedTrade","type":"bytes32"}],"stateMutability":"view","type":"function"},{"inputs":[],"name":"getLibInfo","outputs":[{"internalType":"address","name":"","type":"address"}],"stateMutability":"pure","type":"function"},{"inputs":[{"internalType":"uint256","name":"maturity","type":"uint256"},{"internalType":"uint256","name":"blockTime","type":"uint256"}],"name":"getMarketIndex","outputs":[{"internalType":"uint8","name":"marketIndex","type":"uint8"}],"stateMutability":"pure","type":"function"},{"inputs":[{"internalType":"uint16","name":"currencyId","type":"uint16"},{"internalType":"uint256","name":"maturity","type":"uint256"},{"internalType":"int256","name":"notional","type":"int256"},{"internalType":"uint256","name":"blockTime","type":"uint256"},{"internalType":"bool","name":"riskAdjusted","type":"bool"}],"name":"getPresentfCashValue","outputs":[{"internalType":"int256","name":"presentValue","type":"int256"}],"stateMutability":"view","type":"function"},{"inputs":[{"internalType":"uint16","name":"currencyId","type":"uint16"},{"internalType":"uint256","name":"fCashBorrow","type":"uint256"},{"internalType":"uint256","name":"maturity","type":"uint256"},{"internalType":"uint32","name":"maxBorrowRate","type":"uint32"},{"internalType":"uint256","name":"blockTime","type":"uint256"}],"name":"getPrincipalFromfCashBorrow","outputs":[{"internalType":"uint256","name":"borrowAmountUnderlying","type":"uint256"},{"internalType":"uint256","name":"borrowAmountPrimeCash","type":"uint256"},{"internalType":"uint8","name":"marketIndex","type":"uint8"},{"internalType":"bytes32","name":"encodedTrade","type":"bytes32"}],"stateMutability":"view","type":"function"},{"inputs":[{"internalType":"uint16","name":"currencyId","type":"uint16"},{"internalType":"int88","name":"netCashToAccount","type":"int88"},{"internalType":"uint256","name":"marketIndex","type":"uint256"},{"internalType":"uint256","name":"blockTime","type":"uint256"}],"name":"getfCashAmountGivenCashAmount","outputs":[{"internalType":"int256","name":"","type":"int256"}],"stateMutability":"view","type":"function"},{"inputs":[{"internalType":"uint16","name":"currencyId","type":"uint16"},{"internalType":"uint256","name":"borrowedAmountExternal","type":"uint256"},{"internalType":"uint256","name":"maturity","type":"uint256"},{"internalType":"uint32","name":"maxBorrowRate","type":"uint32"},{"internalType":"uint256","name":"blockTime","type":"uint256"},{"internalType":"bool","name":"useUnderlying","type":"bool"}],"name":"getfCashBorrowFromPrincipal","outputs":[{"internalType":"uint88","name":"fCashDebt","type":"uint88"},{"internalType":"uint8","name":"marketIndex","type":"uint8"},{"internalType":"bytes32","name":"encodedTrade","type":"bytes32"}],"stateMutability":"view","type":"function"},{"inputs":[{"internalType":"uint16","name":"currencyId","type":"uint16"},{"internalType":"uint256","name":"depositAmountExternal","type":"uint256"},{"internalType":"uint256","name":"maturity","type":"uint256"},{"internalType":"uint32","name":"minLendRate","type":"uint32"},{"internalType":"uint256","name":"blockTime","type":"uint256"},{"internalType":"bool","name":"useUnderlying","type":"bool"}],"name":"getfCashLendFromDeposit","outputs":[{"internalType":"uint88","name":"fCashAmount","type":"uint88"},{"internalType":"uint8","name":"marketIndex","type":"uint8"},{"internalType":"bytes32","name":"encodedTrade","type":"bytes32"}],"stateMutability":"view","type":"function"},{"inputs":[{"internalType":"address","name":"account","type":"address"},{"internalType":"uint256","name":"blockTime","type":"uint256"}],"name":"nTokenGetClaimableIncentives","outputs":[{"internalType":"uint256","name":"","type":"uint256"}],"stateMutability":"view","type":"function"},{"inputs":[{"internalType":"uint16","name":"currencyId","type":"uint16"}],"name":"nTokenPresentValueAssetDenominated","outputs":[{"internalType":"int256","name":"","type":"int256"}],"stateMutability":"view","type":"function"},{"inputs":[{"internalType":"uint16","name":"currencyId","type":"uint16"}],"name":"nTokenPresentValueUnderlyingDenominated","outputs":[{"internalType":"int256","name":"","type":"int256"}],"stateMutability":"view","type":"function"},{"inputs":[],"name":"owner","outputs":[{"internalType":"address","name":"","type":"address"}],"stateMutability":"view","type":"function"},{"inputs":[],"name":"pauseGuardian","outputs":[{"internalType":"address","name":"","type":"address"}],"stateMutability":"view","type":"function"},{"inputs":[],"name":"pauseRouter","outputs":[{"internalType":"address","name":"","type":"address"}],"stateMutability":"view","type":"function"}],"bytecode":"608060405234801561001057600080fd5b5061554a806100206000396000f3fe608060405234801561001057600080fd5b50600436106101375760003560e01c806382463367116100b8578063bac9e8b11161007c578063bac9e8b114610286578063c4c96dae146102a8578063c50a6134146102b0578063c52c43e1146102d1578063f11ff573146102e4578063f83a8608146102f757610137565b8063824633671461023d5780638355e895146102455780638da5cb5b1461025857806397d6db2e14610260578063aaae47b51461027357610137565b8063416a1587116100ff578063416a1587146101c15780635953c77b146101e45780636a09a2a3146102045780636d48c794146102175780636ebbf1741461022a57610137565b8063094614df1461013c5780630eb49480146101665780631a05bce11461018657806324a3d622146101995780633b2987b3146101ae575b600080fd5b61014f61014a366004614ff1565b61030a565b60405161015d929190615264565b60405180910390f35b610179610174366004615039565b610328565b60405161015d919061525b565b610179610194366004614f81565b61035f565b6101a1610375565b60405161015d9190615208565b6101796101bc366004614f81565b610384565b6101d46101cf3660046150c0565b6103a7565b60405161015d94939291906154c4565b6101f76101f23660046151c4565b61044d565b60405161015d9190615506565b61017961021236600461516b565b610479565b610179610225366004614f9b565b6104f5565b610179610238366004614fb6565b61055c565b6101a16105bf565b610179610253366004614ff1565b6105ce565b6101a16105f2565b61017961026e366004614f4b565b610609565b6101d46102813660046150c0565b610741565b61029961029436600461510d565b6107d3565b60405161015d939291906154e2565b6101a161084e565b6102c36102be366004614f81565b610866565b60405161015d929190615428565b6101796102df366004615071565b610891565b6101796102f2366004614f9b565b6108d9565b61029961030536600461510d565b61091c565b60008061031b868686866000610981565b9150915094509492505050565b60008184111561033757600080fd5b60006103438684610a7a565b5090506103538187878787610b33565b9150505b949350505050565b60008061036b83610b5a565b509150505b919050565b6002546001600160a01b031681565b600080600061039284610b5a565b80516040015191935091506103579083610b8f565b6000806000806103b7878661044d565b915060008260ff16116103c957600080fd5b6a7fffffffffffffffffffff88106103e057600080fd5b60006103f36103ee8a610bbb565b610bd5565b905060008061040e8c848760ff168b8d63ffffffff16610981565b9150915061041c8c82610be3565b965061042782610c2f565b955061043960018685600a0b8c610c3e565b508094505050505095509550955095915050565b600080600061045e60078686610c9c565b915091508061046d5781610470565b60005b95945050505050565b600061048483610d2b565b60006104938461ffff16610d68565b905060006104aa826001600160581b038616610d7b565b90506104b4614c7f565b6104be8187610dab565b8051604001516000906104dd9083906104d79086610dc4565b42610de6565b90506104e881610c2f565b9450505050505b92915050565b600080600061050385610b5a565b91509150600061052a82604001516105248588610ee590919063ffffffff16565b90610f33565b8251604001519091506000906105409083610b8f565b90506104e86105578861055284610f64565b610be3565b610bbb565b60008161056a5750816105b8565b60006105768542610a7a565b50905060006105858286610b8f565b905060006105996105578861055285610f64565b9050600082126105a957806105b2565b6105b281610bd5565b93505050505b9392505050565b6001546001600160a01b031681565b60006105d985610d2b565b60006105e486610f85565b905061035385858584610fa6565b60005464010000000090046001600160a01b031681565b60008061061584611038565b905061061f614cc8565b600061062a836110ec565b156106a05760608301516106429083908890866110f9565b6000826040015113156106a0576000610662836000015161ffff1661111c565b905060006106708288611142565b50915050600061068e8584846106898960400151610c2f565b6111d8565b905061069a8482611305565b93505050505b60808301515b6001600160701b03198116156107375760f081901c613fff166106cb848983886110f9565b6000846040015113156107245760006106eb856000015161ffff1661111c565b905060006106f9828a611142565b5091505060006107128784846106898b60400151610c2f565b905061071e8682611305565b95505050505b5060101b6001600160801b0319166106a6565b5095945050505050565b600080600080610751878661044d565b915060008260ff161161076357600080fd5b6a7fffffffffffffffffffff881061077a57600080fd5b600061078589610bbb565b90506000806107a08c848760ff168b8d63ffffffff16610981565b915091506107ae8c82610be3565b96506107c16107bc83610bd5565b610c2f565b955061043960008685600a0b8c610c3e565b60008060006107e2878661044d565b915060008260ff16116107f457600080fd5b6000806108028b8b88611317565b91509150600061081f6108148461137d565b8660ff168a85610fa6565b90506000811261082e57600080fd5b61083b600186838c610c3e565b9d959c509a509398505050505050505050565b73__MigrateIncentives_____________________90565b61086e614d24565b610876614d45565b61087f836113af565b915061088a836113c1565b9050915091565b60008061089d87610f85565b905082156108b8576108b181868887611489565b9150610737565b6108ce8587866108c98583836114d9565b6115c2565b979650505050505050565b6000806108e68442610a7a565b50905060006108f88561ffff16610d68565b905060006109068286610d7b565b90506109128382610dc4565b9695505050505050565b600080600061092b878661044d565b915060008260ff161161093d57600080fd5b60008061094b8b8b88611317565b91509150600061096561081461096085610bd5565b61137d565b90508060001261097457600080fd5b61083b600086838c610c3e565b60008061098d87610d2b565b600061099888610f85565b90506109a2614d91565b6109b082828960008a611608565b858160200151116109dc5760405162461bcd60e51b81526004016109d390615376565b60405180910390fd5b60208101518690036000806109f88486600a8e900b868e611683565b925050915087600014610a565760008b600a0b1215610a365787811115610a315760405162461bcd60e51b81526004016109d390615346565b610a56565b87811015610a565760405162461bcd60e51b81526004016109d390615346565b60408501518290610a679082610b8f565b9650965050505050509550959350505050565b610a82614d24565b610a8a614d45565b610a93846113c1565b90508281600001511015610ac4576000610aac856117c3565b9050610aba8583838761183e565b509150610ad19050565b80518314610ad157600080fd5b6040518060600160405280610afa6105578460a001518560c001516118e290919063ffffffff16565b8152602001610b1d6105578460a001518560e001516118e290919063ffffffff16565b8152602001826060015181525091509250929050565b600080610b41868685611909565b9050610b4e87828661193d565b50979650505050505050565b6000610b64614c7f565b42610b6d614c7f565b610b778186610dab565b6000610b8382846119a5565b94509092505050915091565b60006105b86ec097ce7bc90715b34b9f1000000000610524856000015185610ee590919063ffffffff16565b60006001600160ff1b03821115610bd157600080fd5b5090565b60006104ef60001983610ee5565b600080610bf38461ffff16610d68565b90506000808412610c1557610c10610c0b83866119fb565b610f64565b610c28565b610c28610c2185610bd5565b8390611a33565b9050610470815b600080821215610bd157600080fd5b6000806000610c4c85610f64565b90506001600160581b03811115610c6257600080fd5b60788463ffffffff16901b609882901b60f08860ff16901b60f88a6005811115610c8857fe5b60ff16901b17171797909650945050505050565b60008060008511610cac57600080fd5b6007851115610cba57600080fd5b6000610cc584611a6f565b905060015b868111610d1d576000610ce6610cdf83611a90565b8490611305565b905086811415610cfe5750925060009150610d239050565b86811115610d145750925060019150610d239050565b50600101610cca565b50600080fd5b935093915050565b8061ffff166000108015610d49575060005461ffff90811690821611155b610d655760405162461bcd60e51b81526004016109d3906153a2565b50565b610d70614dd9565b6104ef826001611b34565b60006305f5e10083604001511415610d945750806104ef565b60408301516105b890610524846305f5e100610ee5565b610db58282611bce565b610dbe81610f85565b90915250565b81516000906105b890610524846ec097ce7bc90715b34b9f1000000000610ee5565b600080831215610df557600080fd5b82610e02575060006105b8565b608084015115610e3a576000610e1785611c6a565b9050828111610e385760405162461bcd60e51b81526004016109d3906152a2565b505b6040840151610e4a5750816105b8565b600080610e578685611c9b565b915091506000821215610e6957600080fd5b6000811215610e7757600080fd5b60a086015160051a6000610e9d846105246064610e97610c0b8489611d04565b90610ee5565b905081811315610ebf5760405162461bcd60e51b81526004016109d3906153fa565b610eda836105248a604001518a610ee590919063ffffffff16565b9450505050506105b8565b818102600019831415610f1557811580610f07575082828281610f0457fe5b05145b610f1057600080fd5b6104ef565b821580610f2a575081838281610f2757fe5b05145b6104ef57600080fd5b600081600019148015610f495750600160ff1b83145b15610f5357600080fd5b818381610f5c57fe5b059392505050565b600080821215610f7e57610f7782610bd5565b9050610370565b5080610370565b610f8d614e08565b6000610f998342610a7a565b5090506105b88382611d1a565b6000610fb0614d91565b610fbe838287600088611608565b83816020015111610fe15760405162461bcd60e51b81526004016109d390615376565b60008482602001510390506000610ffc856000015188611d5d565b905061102c8184604001518a600a0b61102687606001518a60400151610b8f90919063ffffffff16565b86611d77565b98975050505050505050565b611040614e34565b600061104a611eb3565b6001600160a01b03841660009081526020918252604090819020815160c081018352905464ffffffffff811682526001600160f81b0319600160281b820460f81b169382019390935260ff600160301b840481169282019290925261ffff600160381b84041660608201526001600160701b03196901000000000000000000840460701b166080820152600160d81b90920416151560a0820152915050919050565b6060015161ffff16151590565b6111038242610a7a565b5061012085015261111684848484611ec0565b50505050565b600080611127611f68565b6000938452602052505060409020546001600160a01b031690565b600080600061115085611f75565b9194509250905080841180156111665750600081115b80156111725750600083115b156111d157600061118286611fd6565b50505091505060006111ad6111a46305f5e100846118e290919063ffffffff16565b8488038761203f565b90506111b98482611305565b93506001600160801b0384106111ce57600080fd5b50505b9250925092565b60e0840151600090156112995773__MigrateIncentives_____________________63e0c01a728561120d8860400151610c2f565b8860e001518961010001516040518563ffffffff1660e01b81526004016112379493929190615235565b60206040518083038186803b15801561124f57600080fd5b505af4158015611263573d6000803e3d6000fd5b505050506040513d601f19601f8201168201806040525081019061128791906151ac565b600060e0870181905261010087015290505b6112db6112d48661010001516112ce670de0b6b3a76400006112c8886112c28c60400151610c2f565b906118e2565b90612061565b90612080565b8290611305565b90506112f3670de0b6b3a76400006112c884866118e2565b85610100018181525050949350505050565b6000828201838110156105b857600080fd5b6000611321614e08565b600061132c85610bbb565b905061133786610f85565b9150831561136257600061134e8761ffff16610d68565b905061135a8183610d7b565b935050611374565b60408201516113719082610b8f565b92505b50935093915050565b60006a7fffffffffffffffffffff1982128015906113a657506a7fffffffffffffffffffff8213155b610bd157600080fd5b6113b7614d24565b6104ef8242612095565b6113c9614d45565b60006113d3612156565b61ffff93841660009081526020918252604090819020805464ffffffffff81168652600160281b81046001600160581b03908116948701949094526001820154841692860192909252600160d81b820463ffffffff166060860152600160801b9091049091166080840152600201546001600160501b0380821660a0850152600160501b8204811660c0850152600160a01b82041660e0840152600160f01b900460ff1661012c02909216610100820152919050565b60008361149857506000610357565b60008085136114b1576114ac868585612163565b6114bc565b6114bc86858561219f565b9050633b9aca008113156114cf57600080fd5b61035385826121e0565b60008060006114ed86602001518686610c9c565b9150915060006114fc876121f9565b90508161151c5786516115159061ffff1687838861220d565b93506115b8565b600061152786611a6f565b9050600061153e61153786611a90565b8390611305565b905060006115568a6000015161ffff1683868b61220d565b905060008087600114156115745750506040808b01510151886115a3565b61158a61158360018a03611a90565b8690611305565b90506115a08c6000015161ffff1682888d61220d565b91505b6115b0818584868f6122ac565b985050505050505b5050509392505050565b6000846115d157506000610357565b60006115dd8585612080565b905060006115eb828561230a565b9050633b9aca008113156115fe57600080fd5b6108ce87826121e0565b8260011115801561161d575084602001518311155b6116395760405162461bcd60e51b81526004016109d39061531e565b600061165661164785611a90565b61165084611a6f565b90611305565b905061167b866000015161ffff168284866116708b6121f9565b8a9493929190612377565b505050505050565b600080600080841161169457600080fd5b858860400151136116ad575060009150819050806117b8565b60006116bd886000015186611d5d565b905060006116dc8a606001518a60400151610b8f90919063ffffffff16565b905060008060006116f1858e8e878f8f6123a1565b9850919450925090508261171457600080600097509750975050505050506117b8565b60408d0151611723908c61247b565b60408e01526117328483612497565b9350600061174660008f60400151876124ad565b9050633b9aca0081111561176a5760008060009850985098505050505050506117b8565b600061177687836124ea565b905080611794576000806000995099509950505050505050506117b8565b60a08f01525060408c01516117ad908e9085858561259d565b909850965050505050505b955095509592505050565b6000806117cf836125f2565b6001600160a01b031663a77c05b86040518163ffffffff1660e01b8152600401604080518083038186803b15801561180657600080fd5b505afa15801561181a573d6000803e3d6000fd5b505050506040513d601f19601f8201168201806040525081019061035791906151e5565b611846614d45565b6000806000611856888689612622565b60c08b019290925260e08a01929092526020890151919350915061187a9083611305565b60208801526080870151600090156118a85760808801516118a59061189f8982612080565b9061272d565b90505b6118c86118bd670de0b6b3a764000083611305565b60a08a01519061274a565b60a089015250506080860194909452505082529092909150565b6000826118f1575060006104ef565b828202828482816118fe57fe5b04146105b857600080fd5b611911614d24565b600061191d8585612767565b909250905080611935576119318584610a7a565b5091505b509392505050565b60008061194a8484610dc4565b915061195684836127fa565b90506000821215610d235761199b600161199587600001516105248960200151610e978a602001516105248c600001518b610ee590919063ffffffff16565b90611d04565b9150935093915050565b6000806119b184611c6a565b90508281116119c1576001810392505b5060006119d084846001612833565b50905060006119df8585612996565b6060860151909150610470906119f58484612497565b90612497565b60006305f5e10083604001511415611a145750806104ef565b6105b86305f5e100610524856040015185610ee590919063ffffffff16565b60006305f5e10083604001511215611a5b57611a5460016119f585856119fb565b90506104ef565b6105b883611a6a846001612497565b6119fb565b60006276a700821015611a8157600080fd5b6276a700825b06909103919050565b60008160011415611aa557506276a700610370565b8160021415611ab8575062ed4e00610370565b8160031415611acc57506301da9c00610370565b8160041415611ae057506303b53800610370565b8160051415611af457506309450c00610370565b8160061415611b08575063128a1800610370565b8160071415611b1c57506325143000610370565b60405162461bcd60e51b81526004016109d3906152f7565b611b3c614dd9565b6000611b46612a1b565b6000858152602082815260408083208715158452825291829020825160a08101845281546001600160a01b038116825260ff600160a01b82048116151594830194909452600160b01b81048416600a0a9482019490945293945092916060830191600160a81b909104166005811115611bbb57fe5b8152600060209091015295945050505050565b611bdb8161ffff1661111c565b6001600160a01b031660c0830181905260009081908190611bfb90611fd6565b94509450945050506000611c128660c00151611f75565b505060808701859052604087018190526001600160d01b0319831660a088015260c0870151909150611c4690846000612a28565b602087015260c0860151611c5a9086612abb565b6060909601959095525050505050565b6000816080015160001415611c8157506000610370565b60808201516276a70090611c9490611a6f565b0192915050565b6000806000611cac85856001612833565b5090506000611cbd86866000612833565b5090506000611ccc8787612996565b6060880151909150611ce2906119f58584612497565b6060880151909550611cf8906119f58484612497565b93505050509250929050565b808203828113156000831215146104ef57600080fd5b611d22614e08565b6000611d318461ffff16612b14565b6040805160808101825261ffff96909616865260ff821660208701528501939093525050606082015290565b611d65614e69565b6105b88383611d72612b31565b612b3e565b600083611d8357600080fd5b82841315611da35760405162461bcd60e51b81526004016109d3906153cf565b6000806000611dc78989888860008c13611dbe576001611dc2565b6000195b612b95565b90506000871215611df157611ddb87610bd5565b9250611dea6103ee88836121e0565b9150611e1e565b611dfe6103ee88836121e0565b9250611e1b6103ee611e148b6080015188612bc6565b89906121e0565b91505b506000611e2f89898886898c612c2c565b905060005b60fa8160ff161015611e9a5783830380611e55578395505050505050610470565b6000611e658c8c8b888c8f612c2c565b90506000611e8a611e83611e798488611d04565b6105248587610ee5565b8790611d04565b9596509093505050600101611e34565b5060405162461bcd60e51b81526004016109d3906152cf565b6000806104ef6001612c52565b8161ffff166000108015611eda5750613fff61ffff831611155b611ee357600080fd5b61ffff8216808552611ef6908290612c64565b15611f2557611f0b8383866101200151612cee565b61010088015260e087015260408601526020850152611f43565b6000602085018190526040850181905260e085018190526101008501525b50506000606083018190526080830181905260a0830181905260c09092019190915250565b6000806104ef6003612c52565b600080600080611f83612da8565b6001600160a01b0395909516600090815260209590955250506040909220546bffffffffffffffffffffffff811693600160601b82046001600160801b03169350600160e01b90910463ffffffff169150565b600080600080600080611fe7612db5565b6001600160a01b039097166000908152602097909752505060409094205461ffff81169563ffffffff62010000830481169650600160301b830416945060ff600160501b8304169350600160581b90910460d01b9150565b6000610357826112c86301da9c0081886112c289670de0b6b3a76400006118e2565b600080821161206f57600080fd5b81838161207857fe5b049392505050565b60008282111561208f57600080fd5b50900390565b61209d614d24565b60006120a8846113c1565b905082816000015110156120e7576000806120c286612dc2565b90506120d08684838861183e565b90935091506120e0868385612e1b565b50506120f4565b805183146120f457600080fd5b604051806060016040528061211d6105578460a001518560c001516118e290919063ffffffff16565b81526020016121406105578460a001518560e001516118e290919063ffffffff16565b8152602001826060015181525091505092915050565b6000806104ef601d612c52565b60008061217185858561304f565b905080156121915761218c6121868585612080565b8261230a565b610470565b633b9aca0095945050505050565b6000806121ad85858561309f565b90506121bc6121868585612080565b915060006121c9866130d9565b9050828112156121d7578092505b50509392505050565b60006105b86121ef8484610ee5565b633b9aca00610f33565b6060015161012c60089190911c60ff160290565b6000806122186130f4565b905060006276a70061222985611a6f565b6000898152602085815260408083208b84528252808320949093018083529390522080549192509063ffffffff600160a01b8204811691600160c01b8104821691600160e01b90910416816122905760405162461bcd60e51b81526004016109d390615272565b61229d8184848c8c613101565b9b9a5050505050505050505050565b60008186106122ba57600080fd5b8482106122c657600080fd5b8383106122ec576122e5846116508888036112c88388038b88036118e2565b9050610470565b6122e56123038787036112c88688038a87036118e2565b8590612080565b6000806123276123226301da9c006112c886886118e2565b613189565b905061233981621dcd6560491b6131a7565b905061234c612347826131fa565b61321c565b905061235e81621dcd6560491b613271565b9050600061236b826132a7565b60070b95945050505050565b60006276a70061238685611a6f565b019050612398878787878787876132b0565b50505050505050565b60008060008060006123b8878b604001518a6124ad565b9050633b9aca008111156123da5760008060008094509450945094505061246e565b60006123e68c836124ea565b905060006124016103ee6123fa848b612bc6565b8b906132e7565b90506124118d8360008c12613300565b93506124236103ee6123fa868b612bc6565b96508087131561243257600080fd5b600061243e8289611d04565b905061245860646105246124518f613378565b8490610ee5565b95506124676103ee8988612497565b9650505050505b9650965096509692505050565b60006124878383611d04565b905060008112156104ef57600080fd5b818101828112156000831215146104ef57600080fd5b6000808312156124bc57600080fd5b60008212156124ca57600080fd5b6103576107bc6124da8486612497565b6124e4868861247b565b906132e7565b6000808360800151116124fc57600080fd5b633b9aca0082111561250d57600080fd5b8251821161252c5782516040840151611a5491906112c89085906118e2565b82602001518211612564576040830151835160208501516060860151611a54939261165092819003916112c8918803908590036118e2565b6105b883606001516116508560200151633b9aca00036112c88760600151886080015103886020015188036118e290919063ffffffff16565b600080806125ab8786610dc4565b60608901519091506125bd9082612497565b60608901524260e089015260006125d48886610dc4565b905060006125e28989610dc4565b9a91995090975050505050505050565b6000806125fd613385565b61ffff939093166000908152602093909352505060409020546001600160a01b031690565b6000806000806000806126358988613392565b8951909550919350915060009061265c90612651908b90612080565b633b9aca00906118e2565b905061269661268b6301da9c0061267385856118e2565b8161267a57fe5b670de0b6b3a7640000919004611305565b60e08a01519061274a565b96506126b86126ad6301da9c0061267387856118e2565b60c08a01519061274a565b9550818314156126cf575060009350612724915050565b60006126f16126e66301da9c0061267387866118e2565b60e08b01519061274a565b905060006126ff8983612080565b905061271c886112c8838d604001516118e290919063ffffffff16565b965050505050505b93509350935093565b60006105b861274484670de0b6b3a76400006118e2565b83612061565b60006105b861275984846118e2565b670de0b6b3a7640000612061565b61276f614d24565b60008061277a61342c565b61ffff861660009081526020828152604080832088845290915290208054600160f01b900460ff16935090915082156127f15780546001600160501b03600160a01b82048116916127cc9116826118e2565b855281546127ea90600160501b90046001600160501b0316826118e2565b6020860152505b50509250929050565b60008082121561282d5761282860016119958560200151610524876000015187610ee590919063ffffffff16565b6105b8565b50919050565b602083015151516000906060908067ffffffffffffffff8111801561285757600080fd5b50604051908082528060200260200182016040528015612881578160200160208202803683370190505b50915061288c614d91565b60005b8281101561298b5787516128aa90836001808501908b611608565b600088602001516000015182815181106128c057fe5b602002602001015190506000806128d78386613439565b915091506129046128fd8c60c001518d600001516000015161ffff1686602001516134b4565b8290612497565b87858151811061291057fe5b602002602001018181525050600061296d61296661295a8a888151811061293357fe5b602002602001015187602001518f8f612950578b60a001516108c9565b8b60c001516115c2565b8e516040015190610dc4565b8490612497565b90506129798982612497565b9850506001909301925061288f915050565b505050935093915050565b6000806129c28460c0015185600001516000015161ffff168660800151868860000151602001516134f9565b90508015612a115760006129f48560c0015186600001516000015161ffff1687608001518789600001516000886135a5565b50855160400151909150612a089082610dc4565b925050506104ef565b60009150506104ef565b6000806104ef6007612c52565b612a30614eae565b612a38614eae565b60ff8416612a475790506105b8565b612a518585613623565b815260ff841660608201528267ffffffffffffffff81118015612a7357600080fd5b50604051908082528060200260200182016040528015612aad57816020015b612a9a614ed6565b815260200190600190039081612a925790505b506020820152949350505050565b600080612ac661362f565b6001600160a01b03851660009081526020828152604080832061ffff8816845290915281208054600160a81b9004600a90810b900b9450919250831215612b0c57600080fd5b505092915050565b600080612b1f61363c565b60009384526020525050604090205490565b6000806104ef601b612c52565b612b46614e69565b6000612b5184613649565b61ffff861660009081526020859052604081209192509060048610612b77576001612b7a565b60005b60ff1660028110612b8757fe5b015490506109128282613682565b600080612bac87612ba78589896124ad565b6124ea565b90506000612bbe888360008712613300565b905061102c81865b600080612bde6123226301da9c006112c887876118e2565b90506000612bf282621dcd6560491b6131a7565b90506000612bff8261321c565b90506000612c1382621dcd6560491b613271565b9050612c1e816132a7565b60070b979650505050505050565b600080612c3c8888888789612b95565b905061102c612c4b84836121e0565b8690612497565b6000620f4240826026811115611c9457fe5b60008115801590612c775750613fff8211155b612c8057600080fd5b6080830151606084015161ffff16831415612c9f5760019150506104ef565b6001600160701b0319811615612ce45760f081901c613fff1683811415612cd15750600160fe1b9081161490506104ef565b5060101b6001600160801b031916612c9f565b5060009392505050565b6000806000806000612cfe61362f565b6001600160a01b03891660009081526020828152604080832061ffff8c168452909152902080546001600160501b0381169650600160501b900463ffffffff1694509091508315612d6b578054612d6490600160701b900466ffffffffffffff166137a1565b9250612d80565b8054600160701b900466ffffffffffffff1692505b8054612d9b908890600160a81b9004600a90810b900b6137af565b9550505093509350935093565b6000806104ef6011612c52565b6000806104ef6002612c52565b600080612dce836125f2565b6001600160a01b031663ef81f2166040518163ffffffff1660e01b81526004016040805180830381600087803b158015612e0757600080fd5b505af115801561181a573d6000803e3d6000fd5b6000612e25612156565b60008561ffff1681526020019081526020016000209050612e4982600001516137d6565b815464ffffffffff191664ffffffffff9190911617815560a0820151612e6e906137ea565b60028201805469ffffffffffffffffffff19166001600160501b039290921691909117905560c0820151612ea1906137ea565b81600201600a6101000a8154816001600160501b0302191690836001600160501b03160217905550612ed68260e001516137ea565b8160020160146101000a8154816001600160501b0302191690836001600160501b03160217905550612f0b8260200151613800565b81546001600160581b0391909116600160281b026fffffffffffffffffffffff0000000000199091161781556040820151612f4590613800565b6001820180546affffffffffffffffffffff19166001600160581b03929092169190911790556080820151612f7990613800565b81546001600160581b0391909116600160801b026affffffffffffffffffffff60801b199091161781556060820151612fb190613816565b815463ffffffff91909116600160d81b0263ffffffff60d81b199091161781558215612ffd576000612fe284610bbb565b9050612fee8582613829565b612ffb610fee8683613865565b505b8361ffff167fef25641e225e493886510ca1ad6584fa7b442b9fea820a29d1de3ce27d270fd28360a001518460c001518560e00151604051613041939291906154ae565b60405180910390a250505050565b600061305c8484846114d9565b90506000613069856138ef565b905080821161307c5760009150506105b8565b8082039150600061308c866138fc565b9050828110156121d75795945050505050565b60006130ac8484846114d9565b90506130ba6112d485613909565b905060006130c785613916565b90508082101561193557949350505050565b606001516207a12060109190911c60ff1602633b9aca000390565b6000806104ef600a612c52565b600080831161310f57600080fd5b8186111561311e575083610470565b600061312a8388612080565b90508381111561313d5785915050610470565b60006131498286613923565b9050600061315b633b9aca0083612080565b905061317c633b9aca006112c86131728a856118e2565b6116508c876118e2565b9998505050505050505050565b6000677fffffffffffffff8211156131a057600080fd5b5060401b90565b600081600f0b600014156131ba57600080fd5b600082600f0b604085600f0b901b816131cf57fe5b05905060016001607f1b031981128015906131f1575060016001607f1b038113155b6105b857600080fd5b6000600f82900b60016001607f1b0319141561321557600080fd5b5060000390565b6000600160461b82600f0b1261323157600080fd5b683fffffffffffffffff1982600f0b121561324e57506000610370565b6104ef608083600f0b700171547652b82fe1777d0ffda0d23a7d1202901d613936565b6000600f83810b9083900b0260401d60016001607f1b031981128015906131f1575060016001607f1b038113156105b857600080fd5b600f0b60401d90565b6132bd87878786856143e6565b6132d68760e001518860a001518960c001518588613101565b60c090970196909652505050505050565b60006105b86132fa84633b9aca00610ee5565b83610f33565b60008061331f60646112c88760e00151876118e290919063ffffffff16565b90508460a00151811015613334575060a08401515b8460c00151811115613347575060c08401515b821561335e576133578482611305565b9150611935565b83811161336d57808403610470565b506000949350505050565b6060015160181c60ff1690565b6000806104ef601f612c52565b6000806000806000856020015111156133df576133dc6133c38660c0015187602001516118e290919063ffffffff16565b60e087015160408801516133d6916118e2565b90613923565b90505b60006133ea876144a0565b90506133f681836124ea565b9450811561340d5761340a81866001613300565b93505b6020860151156111ce5761342185836144d3565b925050509250925092565b6000806104ef601e612c52565b60008061344984604001516144ec565b801561345a57506000846060015112155b61346357600080fd5b613486836080015161052486606001518660600151610ee590919063ffffffff16565b91506134ab836080015161052486606001518660400151610ee590919063ffffffff16565b90509250929050565b6000806134bf614502565b6001600160a01b03861660009081526020918252604080822087835283528082208683529092522054600f90810b900b9150509392505050565b60006002821161350b57506000610470565b6000613517878761450f565b905080613525579050610470565b600061353085611a6f565b90508581141561355a57507440008000000200200000000200000020000000002019169050610470565b60015b84811161359a57600061356f82611a90565b83019050600061357f8983614544565b50905061358e8582600061464f565b9450505060010161355d565b508192505050610470565b60008060006135b38461469a565b90505b80156136165760006135c889836146bf565b905060006135da8c8c848c8c8c614772565b90506135e68582612497565b945060008112156135f657600193505b6136028684600061464f565b955061360d8661469a565b925050506135b6565b5097509795505050505050565b606061193583836147ce565b6000806104ef6006612c52565b6000806104ef6009612c52565b60008160001061365857600080fd5b600782111561366657600080fd5b600482106136775760048203613679565b815b60080292915050565b61368a614e69565b6064633b9aca008360ff8616602081106136a057fe5b1a02816136a957fe5b0481526064633b9aca008360ff8616600101602081106136c557fe5b1a02816136ce57fe5b048160200181815250506136f38260028560ff1601602081106136ed57fe5b1a6147e6565b60808201819052610100908360ff86166003016020811061371057fe5b1a028161371957fe5b0460408201526080810151610100908360ff86166004016020811061373a57fe5b1a028161374357fe5b0460608201526207a1208260ff85166005016020811061375f57fe5b1a0260a0820152622625a08260ff85166006016020811061377c57fe5b1a0260c08201528160ff84166007016020811061379557fe5b1a60e082015292915050565b600881901c60ff9091161b90565b60008082126137bf5750806104ef565b82516020840151611a549190610524908590610ee5565b600064ffffffffff821115610bd157600080fd5b60006001600160501b03821115610bd157600080fd5b60006001600160581b03821115610bd157600080fd5b600063ffffffff821115610bd157600080fd5b600081121561383757600080fd5b6000613845610fee84612abb565b90506138518183612497565b9050613860610fee848361481a565b505050565b600061386f61488e565b61ffff8416600090815260209190915260409081902054905163ad1c095d60e01b81526001600160a01b039091169150819063ad1c095d906138b7908790869060040161521c565b600060405180830381600087803b1580156138d157600080fd5b505af11580156138e5573d6000803e3d6000fd5b5050505050505050565b60006104ef82602061489b565b60006104ef82604861489b565b60006104ef82602861489b565b60006104ef82603061489b565b60006105b861274484633b9aca006118e2565b6000600160461b82600f0b1261394b57600080fd5b683fffffffffffffffff1982600f0b121561396857506000610370565b6001607f1b60006780000000000000008416600f0b131561399a5770016a09e667f3bcc908b2fb1366ea957d3e0260801c5b60008367400000000000000016600f0b13156139c7577001306fe0a31b7152de8d5a46305c85edec0260801c5b60008367200000000000000016600f0b13156139f4577001172b83c7d517adcdf7c8c50eb14a791f0260801c5b60008367100000000000000016600f0b1315613a215770010b5586cf9890f6298b92b71842a983630260801c5b60008367080000000000000016600f0b1315613a4e577001059b0d31585743ae7c548eb68ca417fd0260801c5b60008367040000000000000016600f0b1315613a7b57700102c9a3e778060ee6f7caca4f7a29bde80260801c5b60008367020000000000000016600f0b1315613aa85770010163da9fb33356d84a66ae336dcdfa3f0260801c5b600083600160381b16600f0b1315613ad157700100b1afa5abcbed6129ab13ec11dc95430260801c5b600083668000000000000016600f0b1315613afd5770010058c86da1c09ea1ff19d294cf2f679b0260801c5b600083664000000000000016600f0b1315613b29577001002c605e2e8cec506d21bfc89a23a00f0260801c5b600083662000000000000016600f0b1315613b5557700100162f3904051fa128bca9c55c31e5df0260801c5b600083661000000000000016600f0b1315613b81577001000b175effdc76ba38e31671ca9397250260801c5b600083660800000000000016600f0b1315613bad57700100058ba01fb9f96d6cacd4b180917c3d0260801c5b600083660400000000000016600f0b1315613bd95770010002c5cc37da9491d0985c348c68e7b30260801c5b600083660200000000000016600f0b1315613c05577001000162e525ee054754457d59952920260260801c5b600083600160301b16600f0b1315613c2e5770010000b17255775c040618bf4a4ade83fc0260801c5b6000836580000000000016600f0b1315613c59577001000058b91b5bc9ae2eed81e9b7d4cfab0260801c5b6000836540000000000016600f0b1315613c8457700100002c5c89d5ec6ca4d7c8acc017b7c90260801c5b6000836520000000000016600f0b1315613caf5770010000162e43f4f831060e02d839a9d16d0260801c5b6000836510000000000016600f0b1315613cda57700100000b1721bcfc99d9f890ea069117630260801c5b6000836508000000000016600f0b1315613d055770010000058b90cf1e6d97f9ca14dbcc16280260801c5b6000836504000000000016600f0b1315613d30577001000002c5c863b73f016468f6bac5ca2b0260801c5b6000836502000000000016600f0b1315613d5b57700100000162e430e5a18f6119e3c02282a50260801c5b600083600160281b16600f0b1315613d84577001000000b1721835514b86e6d96efd1bfe0260801c5b60008364800000000016600f0b1315613dae57700100000058b90c0b48c6be5df846c5b2ef0260801c5b60008364400000000016600f0b1315613dd85770010000002c5c8601cc6b9e94213c72737a0260801c5b60008364200000000016600f0b1315613e02577001000000162e42fff037df38aa2b219f060260801c5b60008364100000000016600f0b1315613e2c5770010000000b17217fba9c739aa5819f44f90260801c5b60008364080000000016600f0b1315613e56577001000000058b90bfcdee5acd3c1cedc8230260801c5b60008364040000000016600f0b1315613e8057700100000002c5c85fe31f35a6a30da1be500260801c5b60008364020000000016600f0b1315613eaa5770010000000162e42ff0999ce3541b9fffcf0260801c5b60008364010000000016600f0b1315613ed457700100000000b17217f80f4ef5aadda455540260801c5b600083638000000016600f0b1315613efd5770010000000058b90bfbf8479bd5a81b51ad0260801c5b600083634000000016600f0b1315613f26577001000000002c5c85fdf84bd62ae30a74cc0260801c5b600083632000000016600f0b1315613f4f57700100000000162e42fefb2fed257559bdaa0260801c5b600083631000000016600f0b1315613f78577001000000000b17217f7d5a7716bba4a9ae0260801c5b600083630800000016600f0b1315613fa157700100000000058b90bfbe9ddbac5e109cce0260801c5b600083630400000016600f0b1315613fca5770010000000002c5c85fdf4b15de6f17eb0d0260801c5b600083630200000016600f0b1315613ff3577001000000000162e42fefa494f1478fde050260801c5b600083630100000016600f0b131561401c5770010000000000b17217f7d20cf927c8e94c0260801c5b6000836280000016600f0b1315614044577001000000000058b90bfbe8f71cb4e4b33d0260801c5b6000836240000016600f0b131561406c57700100000000002c5c85fdf477b662b269450260801c5b6000836220000016600f0b13156140945770010000000000162e42fefa3ae53369388c0260801c5b6000836210000016600f0b13156140bc57700100000000000b17217f7d1d351a389d400260801c5b6000836208000016600f0b13156140e45770010000000000058b90bfbe8e8b2d3d4ede0260801c5b6000836204000016600f0b131561410c577001000000000002c5c85fdf4741bea6e77e0260801c5b6000836202000016600f0b131561413457700100000000000162e42fefa39fe95583c20260801c5b6000836201000016600f0b131561415c577001000000000000b17217f7d1cfb72b45e10260801c5b60008361800016600f0b131561418357700100000000000058b90bfbe8e7cc35c3f00260801c5b60008361400016600f0b13156141aa5770010000000000002c5c85fdf473e242ea380260801c5b60008361200016600f0b13156141d1577001000000000000162e42fefa39f02b772c0260801c5b60008361100016600f0b13156141f85770010000000000000b17217f7d1cf7d83c1a0260801c5b60008361080016600f0b131561421f577001000000000000058b90bfbe8e7bdcbe2e0260801c5b60008361040016600f0b131561424657700100000000000002c5c85fdf473dea871f0260801c5b60008361020016600f0b131561426d5770010000000000000162e42fefa39ef44d910260801c5b60008361010016600f0b131561429457700100000000000000b17217f7d1cf79e9490260801c5b600083608016600f0b13156142ba5770010000000000000058b90bfbe8e7bce5440260801c5b600083604016600f0b13156142e0577001000000000000002c5c85fdf473de6eca0260801c5b600083602016600f0b131561430657700100000000000000162e42fefa39ef366f0260801c5b600083601016600f0b131561432c577001000000000000000b17217f7d1cf79afa0260801c5b600083600816600f0b131561435257700100000000000000058b90bfbe8e7bcd6d0260801c5b600083600416600f0b13156143785770010000000000000002c5c85fdf473de6b20260801c5b600083600216600f0b131561439e577001000000000000000162e42fefa39ef3580260801c5b600083600116600f0b13156143c45770010000000000000000b17217f7d1cf79ab0260801c5b600f83810b60401d603f03900b1c60016001607f1b038111156104ef57600080fd5b60006143f06130f4565b6000868152602082815260408083208884528252808320868452825291829020808a5290890187905280546001600160501b03808216938b0193909352600160501b810490921660608a015263ffffffff600160a01b8304811660a08b0152600160c01b8304811660c08b0152600160e01b90920490911660e089015290915080841561448f5760018201546001600160501b031660808901526138e5565b600060808901525050505050505050565b6144a8614e69565b60006144b2612b31565b61ffff84166000908152602091909152604081205491506105b89082613682565b60006105b86144e284846118e2565b633b9aca00612061565b6000600282108015906104ef5750506008101590565b6000806104ef600c612c52565b60008061451a6148ae565b6001600160a01b038516600090815260209182526040808220868352909252205491505092915050565b6000806000614552856148bb565b90506201518084061561456c576000809250925050614648565b838110614580576000809250925050614648565b6201518081850304605a811161459d579250600191506146489050565b61016881116145dc576000620151806207e900840604820160591901905060068104605a01600682816145cc57fe5b0660001494509450505050614648565b610870811161460c5760006201518062278d00840604820161016719019050601e8104608701601e82816145cc57fe5b611de2811161463c576000620151806276a700840604820161086f19019050605a810460c301605a82816145cc57fe5b61010060009350935050505b9250929050565b60006001831015801561466457506101008311155b61466d57600080fd5b81156146865750600160ff1b60001983011c83176105b8565b50600160ff1b60001983011c1983166105b8565b6000816146a957506000610370565b6146b2826148d7565b60ff036001019050919050565b6000816146cb57600080fd5b6101008211156146da57600080fd5b60006146e5846148bb565b90506000605a841161470057506201518083020190506104ef565b60878411614728575060591983016207e900908102908206909103016276a7000190506104ef565b60c384116147515750608619830162278d00908102908206909103016301da9c000190506104ef565b5060c21983016276a70090810290820690910301630b1fa8000190506104ef565b6000806147808888886134b4565b9050848611614790579050610912565b82156147aa576147a284828888611489565b915050610912565b60006147b78588886114d9565b90506147c5828888846115c2565b92505050610912565b6060806147db8484614970565b91506134ab82614a88565b60008160ff166096106148015760ff8216622625a0026104ef565b5060951960ff919091160162e4e1c00263165a0bc00190565b600081121561482857600080fd5b600061483261362f565b6001600160a01b03851660009081526020828152604080832061ffff8816845290915290209091506148638361137d565b8154600a9190910b6001600160581b0316600160a81b026001600160a81b0390911617905550505050565b6000806104ef6021612c52565b60609091015160ff911c16622625a00290565b6000806104ef600b612c52565b6000620151808210156148cd57600080fd5b6201518082611a87565b6000816148e357600080fd5b600160801b82106148f657608091821c91015b600160401b821061490957604091821c91015b640100000000821061491d57602091821c91015b62010000821061492f57601091821c91015b610100821061494057600891821c91015b6010821061495057600491821c91015b6004821061496057600291821c91015b6002821061037057600101919050565b606060088260ff16111561498357600080fd5b600061498d614c49565b6001600160a01b038516600090815260208290526040812091925060ff851667ffffffffffffffff811180156149c257600080fd5b506040519080825280602002602001820160405280156149fc57816020015b6149e9614ed6565b8152602001906001900390816149e15790505b50905060005b8560ff16811015610737576000838260088110614a1b57fe5b0190506000838381518110614a2c57fe5b602090810291909101810151835461ffff8116825264ffffffffff620100008204169282019290925260ff600160381b8304166040820152600160401b909104600a90810b900b60608201526080019190915250600101614a02565b80516060908067ffffffffffffffff81118015614aa457600080fd5b50604051908082528060200260200182016040528015614ace578160200160208202803683370190505b50915060005b81811015614b2b576000848281518110614aea57fe5b60200260200101519050614b0b816000015182602001518360400151614c56565b848381518110614b1757fe5b602090810291909101015250600101614ad4565b5060015b81811015614c4257805b600081118015614b715750838181518110614b5057fe5b6020026020010151846001830381518110614b6757fe5b6020026020010151115b15614c3957838181518110614b8257fe5b6020026020010151846001830381518110614b9957fe5b6020026020010151856001840381518110614bb057fe5b60200260200101868481518110614bc357fe5b6020026020010182815250828152505050848181518110614be057fe5b6020026020010151856001830381518110614bf757fe5b6020026020010151866001840381518110614c0e57fe5b60200260200101878481518110614c2157fe5b60209081029190910101919091525260001901614b39565b50600101614b2f565b5050919050565b6000806104ef600d612c52565b67ffff000000000000603084901b1665ffffffffff00600884901b161760ff8216179392505050565b6040518060e00160405280614c92614e08565b8152602001614c9f614eae565b815260006020820181905260408201819052606082018190526080820181905260a09091015290565b604051806101400160405280600061ffff1681526020016000815260200160008152602001600081526020016000815260200160008152602001600081526020016000815260200160008152602001614d1f614d24565b905290565b60405180606001604052806000815260200160008152602001600081525090565b6040518061012001604052806000815260200160008152602001600081526020016000815260200160008152602001600081526020016000815260200160008152602001600081525090565b60405180610100016040528060008019168152602001600081526020016000815260200160008152602001600081526020016000815260200160008152602001600081525090565b6040805160a0810182526000808252602082018190529181018290529060608201908152602001600081525090565b6040805160808101825260008082526020820152908101614e27614d24565b8152600060209091015290565b6040805160c081018252600080825260208201819052918101829052606081018290526080810182905260a081019190915290565b60405180610100016040528060008152602001600081526020016000815260200160008152602001600081526020016000815260200160008152602001600081525090565b6040518060800160405280606081526020016060815260200160008152602001600081525090565b6040518060c00160405280600061ffff1681526020016000815260200160008152602001600081526020016000815260200160006003811115614d1f57fe5b8035801515811461037057600080fd5b803561ffff8116811461037057600080fd5b803563ffffffff8116811461037057600080fd5b60008060408385031215614f5d578182fd5b82356001600160a01b0381168114614f73578283fd5b946020939093013593505050565b600060208284031215614f92578081fd5b6105b882614f25565b60008060408385031215614fad578182fd5b614f7383614f25565b600080600060608486031215614fca578081fd5b614fd384614f25565b925060208401359150614fe860408501614f15565b90509250925092565b60008060008060808587031215615006578081fd5b61500f85614f25565b9350602085013580600a0b8114615024578182fd5b93969395505050506040820135916060013590565b6000806000806080858703121561504e578384fd5b61505785614f25565b966020860135965060408601359560600135945092505050565b600080600080600060a08688031215615088578081fd5b61509186614f25565b94506020860135935060408601359250606086013591506150b460808701614f15565b90509295509295909350565b600080600080600060a086880312156150d7578081fd5b6150e086614f25565b945060208601359350604086013592506150fc60608701614f37565b949793965091946080013592915050565b60008060008060008060c08789031215615125578081fd5b61512e87614f25565b9550602087013594506040870135935061514a60608801614f37565b92506080870135915061515f60a08801614f15565b90509295509295509295565b6000806040838503121561517d578182fd5b61518683614f25565b915060208301356001600160581b03811681146151a1578182fd5b809150509250929050565b6000602082840312156151bd578081fd5b5051919050565b600080604083850312156151d6578182fd5b50508035926020909101359150565b600080604083850312156151f7578182fd5b505080516020909101519092909150565b6001600160a01b0391909116815260200190565b6001600160a01b03929092168252602082015260400190565b6001600160a01b0394909416845260208401929092526040830152606082015260800190565b90815260200190565b918252602082015260400190565b60208082526016908201527513585c9ad95d081b9bdd081a5b9a5d1a585b1a5e995960521b604082015260600190565b60208082526013908201527214995c5d5a5c995cc81cd95d1d1b195b595b9d606a1b604082015260600190565b6020808252600e908201526d4e6f20636f6e76657267656e636560901b604082015260600190565b6020808252600d908201526c092dcecc2d8d2c840d2dcc8caf609b1b604082015260600190565b6020808252600e908201526d125b9d985b1a59081b585c9ad95d60921b604082015260600190565b6020808252601690820152755472616465206661696c65642c20736c69707061676560501b604082015260600190565b602080825260129082015271496e76616c696420626c6f636b2074696d6560701b604082015260600190565b602080825260139082015272125b9d985b1a590818dd5c9c995b98de481a59606a1b604082015260600190565b60208082526011908201527013dd995c8813585c9ad95d08131a5b5a5d607a1b604082015260600190565b60208082526014908201527313dd995c8811195d9a585d1a5bdb88131a5b5a5d60621b604082015260600190565b6000610180820190508351825260208401516020830152604084015160408301528251606083015260208301516080830152604083015160a0830152606083015160c0830152608083015160e083015260a0830151610100818185015260c085015161012085015260e08501516101408501528085015161016085015250509392505050565b9283526020830191909152604082015260600190565b938452602084019290925260ff166040830152606082015260800190565b6001600160581b0393909316835260ff919091166020830152604082015260600190565b60ff9190911681526020019056fea2646970667358221220f57d8ab47e89d760699e3759fc22b8f0da0cc17d8d9c0cb743a239cb039f160864736f6c63430007060033","bytecodeSha1":"8308de7675656e5a6363a98ed25154ec0313439e","compiler":{"evm_version":"istanbul","optimizer":{"enabled":true,"runs":200},"version":"0.7.6+commit.7338295f"},"contractName":"CalculationViews","deployedBytecode":"608060405234801561001057600080fd5b50600436106101375760003560e01c806382463367116100b8578063bac9e8b11161007c578063bac9e8b114610286578063c4c96dae146102a8578063c50a6134146102b0578063c52c43e1146102d1578063f11ff573146102e4578063f83a8608146102f757610137565b8063824633671461023d5780638355e895146102455780638da5cb5b1461025857806397d6db2e14610260578063aaae47b51461027357610137565b8063416a1587116100ff578063416a1587146101c15780635953c77b146101e45780636a09a2a3146102045780636d48c794146102175780636ebbf1741461022a57610137565b8063094614df1461013c5780630eb49480146101665780631a05bce11461018657806324a3d622146101995780633b2987b3146101ae575b600080fd5b61014f61014a366004614ff1565b61030a565b60405161015d929190615264565b60405180910390f35b610179610174366004615039565b610328565b60405161015d919061525b565b610179610194366004614f81565b61035f565b6101a1610375565b60405161015d9190615208565b6101796101bc366004614f81565b610384565b6101d46101cf3660046150c0565b6103a7565b60405161015d94939291906154c4565b6101f76101f23660046151c4565b61044d565b60405161015d9190615506565b61017961021236600461516b565b610479565b610179610225366004614f9b565b6104f5565b610179610238366004614fb6565b61055c565b6101a16105bf565b610179610253366004614ff1565b6105ce565b6101a16105f2565b61017961026e366004614f4b565b610609565b6101d46102813660046150c0565b610741565b61029961029436600461510d565b6107d3565b60405161015d939291906154e2565b6101a161084e565b6102c36102be366004614f81565b610866565b60405161015d929190615428565b6101796102df366004615071565b610891565b6101796102f2366004614f9b565b6108d9565b61029961030536600461510d565b61091c565b60008061031b868686866000610981565b9150915094509492505050565b60008184111561033757600080fd5b60006103438684610a7a565b5090506103538187878787610b33565b9150505b949350505050565b60008061036b83610b5a565b509150505b919050565b6002546001600160a01b031681565b600080600061039284610b5a565b80516040015191935091506103579083610b8f565b6000806000806103b7878661044d565b915060008260ff16116103c957600080fd5b6a7fffffffffffffffffffff88106103e057600080fd5b60006103f36103ee8a610bbb565b610bd5565b905060008061040e8c848760ff168b8d63ffffffff16610981565b9150915061041c8c82610be3565b965061042782610c2f565b955061043960018685600a0b8c610c3e565b508094505050505095509550955095915050565b600080600061045e60078686610c9c565b915091508061046d5781610470565b60005b95945050505050565b600061048483610d2b565b60006104938461ffff16610d68565b905060006104aa826001600160581b038616610d7b565b90506104b4614c7f565b6104be8187610dab565b8051604001516000906104dd9083906104d79086610dc4565b42610de6565b90506104e881610c2f565b9450505050505b92915050565b600080600061050385610b5a565b91509150600061052a82604001516105248588610ee590919063ffffffff16565b90610f33565b8251604001519091506000906105409083610b8f565b90506104e86105578861055284610f64565b610be3565b610bbb565b60008161056a5750816105b8565b60006105768542610a7a565b50905060006105858286610b8f565b905060006105996105578861055285610f64565b9050600082126105a957806105b2565b6105b281610bd5565b93505050505b9392505050565b6001546001600160a01b031681565b60006105d985610d2b565b60006105e486610f85565b905061035385858584610fa6565b60005464010000000090046001600160a01b031681565b60008061061584611038565b905061061f614cc8565b600061062a836110ec565b156106a05760608301516106429083908890866110f9565b6000826040015113156106a0576000610662836000015161ffff1661111c565b905060006106708288611142565b50915050600061068e8584846106898960400151610c2f565b6111d8565b905061069a8482611305565b93505050505b60808301515b6001600160701b03198116156107375760f081901c613fff166106cb848983886110f9565b6000846040015113156107245760006106eb856000015161ffff1661111c565b905060006106f9828a611142565b5091505060006107128784846106898b60400151610c2f565b905061071e8682611305565b95505050505b5060101b6001600160801b0319166106a6565b5095945050505050565b600080600080610751878661044d565b915060008260ff161161076357600080fd5b6a7fffffffffffffffffffff881061077a57600080fd5b600061078589610bbb565b90506000806107a08c848760ff168b8d63ffffffff16610981565b915091506107ae8c82610be3565b96506107c16107bc83610bd5565b610c2f565b955061043960008685600a0b8c610c3e565b60008060006107e2878661044d565b915060008260ff16116107f457600080fd5b6000806108028b8b88611317565b91509150600061081f6108148461137d565b8660ff168a85610fa6565b90506000811261082e57600080fd5b61083b600186838c610c3e565b9d959c509a509398505050505050505050565b73__$b21a4dc043b77aa57922ad9143a3cb040e$__90565b61086e614d24565b610876614d45565b61087f836113af565b915061088a836113c1565b9050915091565b60008061089d87610f85565b905082156108b8576108b181868887611489565b9150610737565b6108ce8587866108c98583836114d9565b6115c2565b979650505050505050565b6000806108e68442610a7a565b50905060006108f88561ffff16610d68565b905060006109068286610d7b565b90506109128382610dc4565b9695505050505050565b600080600061092b878661044d565b915060008260ff161161093d57600080fd5b60008061094b8b8b88611317565b91509150600061096561081461096085610bd5565b61137d565b90508060001261097457600080fd5b61083b600086838c610c3e565b60008061098d87610d2b565b600061099888610f85565b90506109a2614d91565b6109b082828960008a611608565b858160200151116109dc5760405162461bcd60e51b81526004016109d390615376565b60405180910390fd5b60208101518690036000806109f88486600a8e900b868e611683565b925050915087600014610a565760008b600a0b1215610a365787811115610a315760405162461bcd60e51b81526004016109d390615346565b610a56565b87811015610a565760405162461bcd60e51b81526004016109d390615346565b60408501518290610a679082610b8f565b9650965050505050509550959350505050565b610a82614d24565b610a8a614d45565b610a93846113c1565b90508281600001511015610ac4576000610aac856117c3565b9050610aba8583838761183e565b509150610ad19050565b80518314610ad157600080fd5b6040518060600160405280610afa6105578460a001518560c001516118e290919063ffffffff16565b8152602001610b1d6105578460a001518560e001516118e290919063ffffffff16565b8152602001826060015181525091509250929050565b600080610b41868685611909565b9050610b4e87828661193d565b50979650505050505050565b6000610b64614c7f565b42610b6d614c7f565b610b778186610dab565b6000610b8382846119a5565b94509092505050915091565b60006105b86ec097ce7bc90715b34b9f1000000000610524856000015185610ee590919063ffffffff16565b60006001600160ff1b03821115610bd157600080fd5b5090565b60006104ef60001983610ee5565b600080610bf38461ffff16610d68565b90506000808412610c1557610c10610c0b83866119fb565b610f64565b610c28565b610c28610c2185610bd5565b8390611a33565b9050610470815b600080821215610bd157600080fd5b6000806000610c4c85610f64565b90506001600160581b03811115610c6257600080fd5b60788463ffffffff16901b609882901b60f08860ff16901b60f88a6005811115610c8857fe5b60ff16901b17171797909650945050505050565b60008060008511610cac57600080fd5b6007851115610cba57600080fd5b6000610cc584611a6f565b905060015b868111610d1d576000610ce6610cdf83611a90565b8490611305565b905086811415610cfe5750925060009150610d239050565b86811115610d145750925060019150610d239050565b50600101610cca565b50600080fd5b935093915050565b8061ffff166000108015610d49575060005461ffff90811690821611155b610d655760405162461bcd60e51b81526004016109d3906153a2565b50565b610d70614dd9565b6104ef826001611b34565b60006305f5e10083604001511415610d945750806104ef565b60408301516105b890610524846305f5e100610ee5565b610db58282611bce565b610dbe81610f85565b90915250565b81516000906105b890610524846ec097ce7bc90715b34b9f1000000000610ee5565b600080831215610df557600080fd5b82610e02575060006105b8565b608084015115610e3a576000610e1785611c6a565b9050828111610e385760405162461bcd60e51b81526004016109d3906152a2565b505b6040840151610e4a5750816105b8565b600080610e578685611c9b565b915091506000821215610e6957600080fd5b6000811215610e7757600080fd5b60a086015160051a6000610e9d846105246064610e97610c0b8489611d04565b90610ee5565b905081811315610ebf5760405162461bcd60e51b81526004016109d3906153fa565b610eda836105248a604001518a610ee590919063ffffffff16565b9450505050506105b8565b818102600019831415610f1557811580610f07575082828281610f0457fe5b05145b610f1057600080fd5b6104ef565b821580610f2a575081838281610f2757fe5b05145b6104ef57600080fd5b600081600019148015610f495750600160ff1b83145b15610f5357600080fd5b818381610f5c57fe5b059392505050565b600080821215610f7e57610f7782610bd5565b9050610370565b5080610370565b610f8d614e08565b6000610f998342610a7a565b5090506105b88382611d1a565b6000610fb0614d91565b610fbe838287600088611608565b83816020015111610fe15760405162461bcd60e51b81526004016109d390615376565b60008482602001510390506000610ffc856000015188611d5d565b905061102c8184604001518a600a0b61102687606001518a60400151610b8f90919063ffffffff16565b86611d77565b98975050505050505050565b611040614e34565b600061104a611eb3565b6001600160a01b03841660009081526020918252604090819020815160c081018352905464ffffffffff811682526001600160f81b0319600160281b820460f81b169382019390935260ff600160301b840481169282019290925261ffff600160381b84041660608201526001600160701b03196901000000000000000000840460701b166080820152600160d81b90920416151560a0820152915050919050565b6060015161ffff16151590565b6111038242610a7a565b5061012085015261111684848484611ec0565b50505050565b600080611127611f68565b6000938452602052505060409020546001600160a01b031690565b600080600061115085611f75565b9194509250905080841180156111665750600081115b80156111725750600083115b156111d157600061118286611fd6565b50505091505060006111ad6111a46305f5e100846118e290919063ffffffff16565b8488038761203f565b90506111b98482611305565b93506001600160801b0384106111ce57600080fd5b50505b9250925092565b60e0840151600090156112995773__$b21a4dc043b77aa57922ad9143a3cb040e$__63e0c01a728561120d8860400151610c2f565b8860e001518961010001516040518563ffffffff1660e01b81526004016112379493929190615235565b60206040518083038186803b15801561124f57600080fd5b505af4158015611263573d6000803e3d6000fd5b505050506040513d601f19601f8201168201806040525081019061128791906151ac565b600060e0870181905261010087015290505b6112db6112d48661010001516112ce670de0b6b3a76400006112c8886112c28c60400151610c2f565b906118e2565b90612061565b90612080565b8290611305565b90506112f3670de0b6b3a76400006112c884866118e2565b85610100018181525050949350505050565b6000828201838110156105b857600080fd5b6000611321614e08565b600061132c85610bbb565b905061133786610f85565b9150831561136257600061134e8761ffff16610d68565b905061135a8183610d7b565b935050611374565b60408201516113719082610b8f565b92505b50935093915050565b60006a7fffffffffffffffffffff1982128015906113a657506a7fffffffffffffffffffff8213155b610bd157600080fd5b6113b7614d24565b6104ef8242612095565b6113c9614d45565b60006113d3612156565b61ffff93841660009081526020918252604090819020805464ffffffffff81168652600160281b81046001600160581b03908116948701949094526001820154841692860192909252600160d81b820463ffffffff166060860152600160801b9091049091166080840152600201546001600160501b0380821660a0850152600160501b8204811660c0850152600160a01b82041660e0840152600160f01b900460ff1661012c02909216610100820152919050565b60008361149857506000610357565b60008085136114b1576114ac868585612163565b6114bc565b6114bc86858561219f565b9050633b9aca008113156114cf57600080fd5b61035385826121e0565b60008060006114ed86602001518686610c9c565b9150915060006114fc876121f9565b90508161151c5786516115159061ffff1687838861220d565b93506115b8565b600061152786611a6f565b9050600061153e61153786611a90565b8390611305565b905060006115568a6000015161ffff1683868b61220d565b905060008087600114156115745750506040808b01510151886115a3565b61158a61158360018a03611a90565b8690611305565b90506115a08c6000015161ffff1682888d61220d565b91505b6115b0818584868f6122ac565b985050505050505b5050509392505050565b6000846115d157506000610357565b60006115dd8585612080565b905060006115eb828561230a565b9050633b9aca008113156115fe57600080fd5b6108ce87826121e0565b8260011115801561161d575084602001518311155b6116395760405162461bcd60e51b81526004016109d39061531e565b600061165661164785611a90565b61165084611a6f565b90611305565b905061167b866000015161ffff168284866116708b6121f9565b8a9493929190612377565b505050505050565b600080600080841161169457600080fd5b858860400151136116ad575060009150819050806117b8565b60006116bd886000015186611d5d565b905060006116dc8a606001518a60400151610b8f90919063ffffffff16565b905060008060006116f1858e8e878f8f6123a1565b9850919450925090508261171457600080600097509750975050505050506117b8565b60408d0151611723908c61247b565b60408e01526117328483612497565b9350600061174660008f60400151876124ad565b9050633b9aca0081111561176a5760008060009850985098505050505050506117b8565b600061177687836124ea565b905080611794576000806000995099509950505050505050506117b8565b60a08f01525060408c01516117ad908e9085858561259d565b909850965050505050505b955095509592505050565b6000806117cf836125f2565b6001600160a01b031663a77c05b86040518163ffffffff1660e01b8152600401604080518083038186803b15801561180657600080fd5b505afa15801561181a573d6000803e3d6000fd5b505050506040513d601f19601f8201168201806040525081019061035791906151e5565b611846614d45565b6000806000611856888689612622565b60c08b019290925260e08a01929092526020890151919350915061187a9083611305565b60208801526080870151600090156118a85760808801516118a59061189f8982612080565b9061272d565b90505b6118c86118bd670de0b6b3a764000083611305565b60a08a01519061274a565b60a089015250506080860194909452505082529092909150565b6000826118f1575060006104ef565b828202828482816118fe57fe5b04146105b857600080fd5b611911614d24565b600061191d8585612767565b909250905080611935576119318584610a7a565b5091505b509392505050565b60008061194a8484610dc4565b915061195684836127fa565b90506000821215610d235761199b600161199587600001516105248960200151610e978a602001516105248c600001518b610ee590919063ffffffff16565b90611d04565b9150935093915050565b6000806119b184611c6a565b90508281116119c1576001810392505b5060006119d084846001612833565b50905060006119df8585612996565b6060860151909150610470906119f58484612497565b90612497565b60006305f5e10083604001511415611a145750806104ef565b6105b86305f5e100610524856040015185610ee590919063ffffffff16565b60006305f5e10083604001511215611a5b57611a5460016119f585856119fb565b90506104ef565b6105b883611a6a846001612497565b6119fb565b60006276a700821015611a8157600080fd5b6276a700825b06909103919050565b60008160011415611aa557506276a700610370565b8160021415611ab8575062ed4e00610370565b8160031415611acc57506301da9c00610370565b8160041415611ae057506303b53800610370565b8160051415611af457506309450c00610370565b8160061415611b08575063128a1800610370565b8160071415611b1c57506325143000610370565b60405162461bcd60e51b81526004016109d3906152f7565b611b3c614dd9565b6000611b46612a1b565b6000858152602082815260408083208715158452825291829020825160a08101845281546001600160a01b038116825260ff600160a01b82048116151594830194909452600160b01b81048416600a0a9482019490945293945092916060830191600160a81b909104166005811115611bbb57fe5b8152600060209091015295945050505050565b611bdb8161ffff1661111c565b6001600160a01b031660c0830181905260009081908190611bfb90611fd6565b94509450945050506000611c128660c00151611f75565b505060808701859052604087018190526001600160d01b0319831660a088015260c0870151909150611c4690846000612a28565b602087015260c0860151611c5a9086612abb565b6060909601959095525050505050565b6000816080015160001415611c8157506000610370565b60808201516276a70090611c9490611a6f565b0192915050565b6000806000611cac85856001612833565b5090506000611cbd86866000612833565b5090506000611ccc8787612996565b6060880151909150611ce2906119f58584612497565b6060880151909550611cf8906119f58484612497565b93505050509250929050565b808203828113156000831215146104ef57600080fd5b611d22614e08565b6000611d318461ffff16612b14565b6040805160808101825261ffff96909616865260ff821660208701528501939093525050606082015290565b611d65614e69565b6105b88383611d72612b31565b612b3e565b600083611d8357600080fd5b82841315611da35760405162461bcd60e51b81526004016109d3906153cf565b6000806000611dc78989888860008c13611dbe576001611dc2565b6000195b612b95565b90506000871215611df157611ddb87610bd5565b9250611dea6103ee88836121e0565b9150611e1e565b611dfe6103ee88836121e0565b9250611e1b6103ee611e148b6080015188612bc6565b89906121e0565b91505b506000611e2f89898886898c612c2c565b905060005b60fa8160ff161015611e9a5783830380611e55578395505050505050610470565b6000611e658c8c8b888c8f612c2c565b90506000611e8a611e83611e798488611d04565b6105248587610ee5565b8790611d04565b9596509093505050600101611e34565b5060405162461bcd60e51b81526004016109d3906152cf565b6000806104ef6001612c52565b8161ffff166000108015611eda5750613fff61ffff831611155b611ee357600080fd5b61ffff8216808552611ef6908290612c64565b15611f2557611f0b8383866101200151612cee565b61010088015260e087015260408601526020850152611f43565b6000602085018190526040850181905260e085018190526101008501525b50506000606083018190526080830181905260a0830181905260c09092019190915250565b6000806104ef6003612c52565b600080600080611f83612da8565b6001600160a01b0395909516600090815260209590955250506040909220546bffffffffffffffffffffffff811693600160601b82046001600160801b03169350600160e01b90910463ffffffff169150565b600080600080600080611fe7612db5565b6001600160a01b039097166000908152602097909752505060409094205461ffff81169563ffffffff62010000830481169650600160301b830416945060ff600160501b8304169350600160581b90910460d01b9150565b6000610357826112c86301da9c0081886112c289670de0b6b3a76400006118e2565b600080821161206f57600080fd5b81838161207857fe5b049392505050565b60008282111561208f57600080fd5b50900390565b61209d614d24565b60006120a8846113c1565b905082816000015110156120e7576000806120c286612dc2565b90506120d08684838861183e565b90935091506120e0868385612e1b565b50506120f4565b805183146120f457600080fd5b604051806060016040528061211d6105578460a001518560c001516118e290919063ffffffff16565b81526020016121406105578460a001518560e001516118e290919063ffffffff16565b8152602001826060015181525091505092915050565b6000806104ef601d612c52565b60008061217185858561304f565b905080156121915761218c6121868585612080565b8261230a565b610470565b633b9aca0095945050505050565b6000806121ad85858561309f565b90506121bc6121868585612080565b915060006121c9866130d9565b9050828112156121d7578092505b50509392505050565b60006105b86121ef8484610ee5565b633b9aca00610f33565b6060015161012c60089190911c60ff160290565b6000806122186130f4565b905060006276a70061222985611a6f565b6000898152602085815260408083208b84528252808320949093018083529390522080549192509063ffffffff600160a01b8204811691600160c01b8104821691600160e01b90910416816122905760405162461bcd60e51b81526004016109d390615272565b61229d8184848c8c613101565b9b9a5050505050505050505050565b60008186106122ba57600080fd5b8482106122c657600080fd5b8383106122ec576122e5846116508888036112c88388038b88036118e2565b9050610470565b6122e56123038787036112c88688038a87036118e2565b8590612080565b6000806123276123226301da9c006112c886886118e2565b613189565b905061233981621dcd6560491b6131a7565b905061234c612347826131fa565b61321c565b905061235e81621dcd6560491b613271565b9050600061236b826132a7565b60070b95945050505050565b60006276a70061238685611a6f565b019050612398878787878787876132b0565b50505050505050565b60008060008060006123b8878b604001518a6124ad565b9050633b9aca008111156123da5760008060008094509450945094505061246e565b60006123e68c836124ea565b905060006124016103ee6123fa848b612bc6565b8b906132e7565b90506124118d8360008c12613300565b93506124236103ee6123fa868b612bc6565b96508087131561243257600080fd5b600061243e8289611d04565b905061245860646105246124518f613378565b8490610ee5565b95506124676103ee8988612497565b9650505050505b9650965096509692505050565b60006124878383611d04565b905060008112156104ef57600080fd5b818101828112156000831215146104ef57600080fd5b6000808312156124bc57600080fd5b60008212156124ca57600080fd5b6103576107bc6124da8486612497565b6124e4868861247b565b906132e7565b6000808360800151116124fc57600080fd5b633b9aca0082111561250d57600080fd5b8251821161252c5782516040840151611a5491906112c89085906118e2565b82602001518211612564576040830151835160208501516060860151611a54939261165092819003916112c8918803908590036118e2565b6105b883606001516116508560200151633b9aca00036112c88760600151886080015103886020015188036118e290919063ffffffff16565b600080806125ab8786610dc4565b60608901519091506125bd9082612497565b60608901524260e089015260006125d48886610dc4565b905060006125e28989610dc4565b9a91995090975050505050505050565b6000806125fd613385565b61ffff939093166000908152602093909352505060409020546001600160a01b031690565b6000806000806000806126358988613392565b8951909550919350915060009061265c90612651908b90612080565b633b9aca00906118e2565b905061269661268b6301da9c0061267385856118e2565b8161267a57fe5b670de0b6b3a7640000919004611305565b60e08a01519061274a565b96506126b86126ad6301da9c0061267387856118e2565b60c08a01519061274a565b9550818314156126cf575060009350612724915050565b60006126f16126e66301da9c0061267387866118e2565b60e08b01519061274a565b905060006126ff8983612080565b905061271c886112c8838d604001516118e290919063ffffffff16565b965050505050505b93509350935093565b60006105b861274484670de0b6b3a76400006118e2565b83612061565b60006105b861275984846118e2565b670de0b6b3a7640000612061565b61276f614d24565b60008061277a61342c565b61ffff861660009081526020828152604080832088845290915290208054600160f01b900460ff16935090915082156127f15780546001600160501b03600160a01b82048116916127cc9116826118e2565b855281546127ea90600160501b90046001600160501b0316826118e2565b6020860152505b50509250929050565b60008082121561282d5761282860016119958560200151610524876000015187610ee590919063ffffffff16565b6105b8565b50919050565b602083015151516000906060908067ffffffffffffffff8111801561285757600080fd5b50604051908082528060200260200182016040528015612881578160200160208202803683370190505b50915061288c614d91565b60005b8281101561298b5787516128aa90836001808501908b611608565b600088602001516000015182815181106128c057fe5b602002602001015190506000806128d78386613439565b915091506129046128fd8c60c001518d600001516000015161ffff1686602001516134b4565b8290612497565b87858151811061291057fe5b602002602001018181525050600061296d61296661295a8a888151811061293357fe5b602002602001015187602001518f8f612950578b60a001516108c9565b8b60c001516115c2565b8e516040015190610dc4565b8490612497565b90506129798982612497565b9850506001909301925061288f915050565b505050935093915050565b6000806129c28460c0015185600001516000015161ffff168660800151868860000151602001516134f9565b90508015612a115760006129f48560c0015186600001516000015161ffff1687608001518789600001516000886135a5565b50855160400151909150612a089082610dc4565b925050506104ef565b60009150506104ef565b6000806104ef6007612c52565b612a30614eae565b612a38614eae565b60ff8416612a475790506105b8565b612a518585613623565b815260ff841660608201528267ffffffffffffffff81118015612a7357600080fd5b50604051908082528060200260200182016040528015612aad57816020015b612a9a614ed6565b815260200190600190039081612a925790505b506020820152949350505050565b600080612ac661362f565b6001600160a01b03851660009081526020828152604080832061ffff8816845290915281208054600160a81b9004600a90810b900b9450919250831215612b0c57600080fd5b505092915050565b600080612b1f61363c565b60009384526020525050604090205490565b6000806104ef601b612c52565b612b46614e69565b6000612b5184613649565b61ffff861660009081526020859052604081209192509060048610612b77576001612b7a565b60005b60ff1660028110612b8757fe5b015490506109128282613682565b600080612bac87612ba78589896124ad565b6124ea565b90506000612bbe888360008712613300565b905061102c81865b600080612bde6123226301da9c006112c887876118e2565b90506000612bf282621dcd6560491b6131a7565b90506000612bff8261321c565b90506000612c1382621dcd6560491b613271565b9050612c1e816132a7565b60070b979650505050505050565b600080612c3c8888888789612b95565b905061102c612c4b84836121e0565b8690612497565b6000620f4240826026811115611c9457fe5b60008115801590612c775750613fff8211155b612c8057600080fd5b6080830151606084015161ffff16831415612c9f5760019150506104ef565b6001600160701b0319811615612ce45760f081901c613fff1683811415612cd15750600160fe1b9081161490506104ef565b5060101b6001600160801b031916612c9f565b5060009392505050565b6000806000806000612cfe61362f565b6001600160a01b03891660009081526020828152604080832061ffff8c168452909152902080546001600160501b0381169650600160501b900463ffffffff1694509091508315612d6b578054612d6490600160701b900466ffffffffffffff166137a1565b9250612d80565b8054600160701b900466ffffffffffffff1692505b8054612d9b908890600160a81b9004600a90810b900b6137af565b9550505093509350935093565b6000806104ef6011612c52565b6000806104ef6002612c52565b600080612dce836125f2565b6001600160a01b031663ef81f2166040518163ffffffff1660e01b81526004016040805180830381600087803b158015612e0757600080fd5b505af115801561181a573d6000803e3d6000fd5b6000612e25612156565b60008561ffff1681526020019081526020016000209050612e4982600001516137d6565b815464ffffffffff191664ffffffffff9190911617815560a0820151612e6e906137ea565b60028201805469ffffffffffffffffffff19166001600160501b039290921691909117905560c0820151612ea1906137ea565b81600201600a6101000a8154816001600160501b0302191690836001600160501b03160217905550612ed68260e001516137ea565b8160020160146101000a8154816001600160501b0302191690836001600160501b03160217905550612f0b8260200151613800565b81546001600160581b0391909116600160281b026fffffffffffffffffffffff0000000000199091161781556040820151612f4590613800565b6001820180546affffffffffffffffffffff19166001600160581b03929092169190911790556080820151612f7990613800565b81546001600160581b0391909116600160801b026affffffffffffffffffffff60801b199091161781556060820151612fb190613816565b815463ffffffff91909116600160d81b0263ffffffff60d81b199091161781558215612ffd576000612fe284610bbb565b9050612fee8582613829565b612ffb610fee8683613865565b505b8361ffff167fef25641e225e493886510ca1ad6584fa7b442b9fea820a29d1de3ce27d270fd28360a001518460c001518560e00151604051613041939291906154ae565b60405180910390a250505050565b600061305c8484846114d9565b90506000613069856138ef565b905080821161307c5760009150506105b8565b8082039150600061308c866138fc565b9050828110156121d75795945050505050565b60006130ac8484846114d9565b90506130ba6112d485613909565b905060006130c785613916565b90508082101561193557949350505050565b606001516207a12060109190911c60ff1602633b9aca000390565b6000806104ef600a612c52565b600080831161310f57600080fd5b8186111561311e575083610470565b600061312a8388612080565b90508381111561313d5785915050610470565b60006131498286613923565b9050600061315b633b9aca0083612080565b905061317c633b9aca006112c86131728a856118e2565b6116508c876118e2565b9998505050505050505050565b6000677fffffffffffffff8211156131a057600080fd5b5060401b90565b600081600f0b600014156131ba57600080fd5b600082600f0b604085600f0b901b816131cf57fe5b05905060016001607f1b031981128015906131f1575060016001607f1b038113155b6105b857600080fd5b6000600f82900b60016001607f1b0319141561321557600080fd5b5060000390565b6000600160461b82600f0b1261323157600080fd5b683fffffffffffffffff1982600f0b121561324e57506000610370565b6104ef608083600f0b700171547652b82fe1777d0ffda0d23a7d1202901d613936565b6000600f83810b9083900b0260401d60016001607f1b031981128015906131f1575060016001607f1b038113156105b857600080fd5b600f0b60401d90565b6132bd87878786856143e6565b6132d68760e001518860a001518960c001518588613101565b60c090970196909652505050505050565b60006105b86132fa84633b9aca00610ee5565b83610f33565b60008061331f60646112c88760e00151876118e290919063ffffffff16565b90508460a00151811015613334575060a08401515b8460c00151811115613347575060c08401515b821561335e576133578482611305565b9150611935565b83811161336d57808403610470565b506000949350505050565b6060015160181c60ff1690565b6000806104ef601f612c52565b6000806000806000856020015111156133df576133dc6133c38660c0015187602001516118e290919063ffffffff16565b60e087015160408801516133d6916118e2565b90613923565b90505b60006133ea876144a0565b90506133f681836124ea565b9450811561340d5761340a81866001613300565b93505b6020860151156111ce5761342185836144d3565b925050509250925092565b6000806104ef601e612c52565b60008061344984604001516144ec565b801561345a57506000846060015112155b61346357600080fd5b613486836080015161052486606001518660600151610ee590919063ffffffff16565b91506134ab836080015161052486606001518660400151610ee590919063ffffffff16565b90509250929050565b6000806134bf614502565b6001600160a01b03861660009081526020918252604080822087835283528082208683529092522054600f90810b900b9150509392505050565b60006002821161350b57506000610470565b6000613517878761450f565b905080613525579050610470565b600061353085611a6f565b90508581141561355a57507440008000000200200000000200000020000000002019169050610470565b60015b84811161359a57600061356f82611a90565b83019050600061357f8983614544565b50905061358e8582600061464f565b9450505060010161355d565b508192505050610470565b60008060006135b38461469a565b90505b80156136165760006135c889836146bf565b905060006135da8c8c848c8c8c614772565b90506135e68582612497565b945060008112156135f657600193505b6136028684600061464f565b955061360d8661469a565b925050506135b6565b5097509795505050505050565b606061193583836147ce565b6000806104ef6006612c52565b6000806104ef6009612c52565b60008160001061365857600080fd5b600782111561366657600080fd5b600482106136775760048203613679565b815b60080292915050565b61368a614e69565b6064633b9aca008360ff8616602081106136a057fe5b1a02816136a957fe5b0481526064633b9aca008360ff8616600101602081106136c557fe5b1a02816136ce57fe5b048160200181815250506136f38260028560ff1601602081106136ed57fe5b1a6147e6565b60808201819052610100908360ff86166003016020811061371057fe5b1a028161371957fe5b0460408201526080810151610100908360ff86166004016020811061373a57fe5b1a028161374357fe5b0460608201526207a1208260ff85166005016020811061375f57fe5b1a0260a0820152622625a08260ff85166006016020811061377c57fe5b1a0260c08201528160ff84166007016020811061379557fe5b1a60e082015292915050565b600881901c60ff9091161b90565b60008082126137bf5750806104ef565b82516020840151611a549190610524908590610ee5565b600064ffffffffff821115610bd157600080fd5b60006001600160501b03821115610bd157600080fd5b60006001600160581b03821115610bd157600080fd5b600063ffffffff821115610bd157600080fd5b600081121561383757600080fd5b6000613845610fee84612abb565b90506138518183612497565b9050613860610fee848361481a565b505050565b600061386f61488e565b61ffff8416600090815260209190915260409081902054905163ad1c095d60e01b81526001600160a01b039091169150819063ad1c095d906138b7908790869060040161521c565b600060405180830381600087803b1580156138d157600080fd5b505af11580156138e5573d6000803e3d6000fd5b5050505050505050565b60006104ef82602061489b565b60006104ef82604861489b565b60006104ef82602861489b565b60006104ef82603061489b565b60006105b861274484633b9aca006118e2565b6000600160461b82600f0b1261394b57600080fd5b683fffffffffffffffff1982600f0b121561396857506000610370565b6001607f1b60006780000000000000008416600f0b131561399a5770016a09e667f3bcc908b2fb1366ea957d3e0260801c5b60008367400000000000000016600f0b13156139c7577001306fe0a31b7152de8d5a46305c85edec0260801c5b60008367200000000000000016600f0b13156139f4577001172b83c7d517adcdf7c8c50eb14a791f0260801c5b60008367100000000000000016600f0b1315613a215770010b5586cf9890f6298b92b71842a983630260801c5b60008367080000000000000016600f0b1315613a4e577001059b0d31585743ae7c548eb68ca417fd0260801c5b60008367040000000000000016600f0b1315613a7b57700102c9a3e778060ee6f7caca4f7a29bde80260801c5b60008367020000000000000016600f0b1315613aa85770010163da9fb33356d84a66ae336dcdfa3f0260801c5b600083600160381b16600f0b1315613ad157700100b1afa5abcbed6129ab13ec11dc95430260801c5b600083668000000000000016600f0b1315613afd5770010058c86da1c09ea1ff19d294cf2f679b0260801c5b600083664000000000000016600f0b1315613b29577001002c605e2e8cec506d21bfc89a23a00f0260801c5b600083662000000000000016600f0b1315613b5557700100162f3904051fa128bca9c55c31e5df0260801c5b600083661000000000000016600f0b1315613b81577001000b175effdc76ba38e31671ca9397250260801c5b600083660800000000000016600f0b1315613bad57700100058ba01fb9f96d6cacd4b180917c3d0260801c5b600083660400000000000016600f0b1315613bd95770010002c5cc37da9491d0985c348c68e7b30260801c5b600083660200000000000016600f0b1315613c05577001000162e525ee054754457d59952920260260801c5b600083600160301b16600f0b1315613c2e5770010000b17255775c040618bf4a4ade83fc0260801c5b6000836580000000000016600f0b1315613c59577001000058b91b5bc9ae2eed81e9b7d4cfab0260801c5b6000836540000000000016600f0b1315613c8457700100002c5c89d5ec6ca4d7c8acc017b7c90260801c5b6000836520000000000016600f0b1315613caf5770010000162e43f4f831060e02d839a9d16d0260801c5b6000836510000000000016600f0b1315613cda57700100000b1721bcfc99d9f890ea069117630260801c5b6000836508000000000016600f0b1315613d055770010000058b90cf1e6d97f9ca14dbcc16280260801c5b6000836504000000000016600f0b1315613d30577001000002c5c863b73f016468f6bac5ca2b0260801c5b6000836502000000000016600f0b1315613d5b57700100000162e430e5a18f6119e3c02282a50260801c5b600083600160281b16600f0b1315613d84577001000000b1721835514b86e6d96efd1bfe0260801c5b60008364800000000016600f0b1315613dae57700100000058b90c0b48c6be5df846c5b2ef0260801c5b60008364400000000016600f0b1315613dd85770010000002c5c8601cc6b9e94213c72737a0260801c5b60008364200000000016600f0b1315613e02577001000000162e42fff037df38aa2b219f060260801c5b60008364100000000016600f0b1315613e2c5770010000000b17217fba9c739aa5819f44f90260801c5b60008364080000000016600f0b1315613e56577001000000058b90bfcdee5acd3c1cedc8230260801c5b60008364040000000016600f0b1315613e8057700100000002c5c85fe31f35a6a30da1be500260801c5b60008364020000000016600f0b1315613eaa5770010000000162e42ff0999ce3541b9fffcf0260801c5b60008364010000000016600f0b1315613ed457700100000000b17217f80f4ef5aadda455540260801c5b600083638000000016600f0b1315613efd5770010000000058b90bfbf8479bd5a81b51ad0260801c5b600083634000000016600f0b1315613f26577001000000002c5c85fdf84bd62ae30a74cc0260801c5b600083632000000016600f0b1315613f4f57700100000000162e42fefb2fed257559bdaa0260801c5b600083631000000016600f0b1315613f78577001000000000b17217f7d5a7716bba4a9ae0260801c5b600083630800000016600f0b1315613fa157700100000000058b90bfbe9ddbac5e109cce0260801c5b600083630400000016600f0b1315613fca5770010000000002c5c85fdf4b15de6f17eb0d0260801c5b600083630200000016600f0b1315613ff3577001000000000162e42fefa494f1478fde050260801c5b600083630100000016600f0b131561401c5770010000000000b17217f7d20cf927c8e94c0260801c5b6000836280000016600f0b1315614044577001000000000058b90bfbe8f71cb4e4b33d0260801c5b6000836240000016600f0b131561406c57700100000000002c5c85fdf477b662b269450260801c5b6000836220000016600f0b13156140945770010000000000162e42fefa3ae53369388c0260801c5b6000836210000016600f0b13156140bc57700100000000000b17217f7d1d351a389d400260801c5b6000836208000016600f0b13156140e45770010000000000058b90bfbe8e8b2d3d4ede0260801c5b6000836204000016600f0b131561410c577001000000000002c5c85fdf4741bea6e77e0260801c5b6000836202000016600f0b131561413457700100000000000162e42fefa39fe95583c20260801c5b6000836201000016600f0b131561415c577001000000000000b17217f7d1cfb72b45e10260801c5b60008361800016600f0b131561418357700100000000000058b90bfbe8e7cc35c3f00260801c5b60008361400016600f0b13156141aa5770010000000000002c5c85fdf473e242ea380260801c5b60008361200016600f0b13156141d1577001000000000000162e42fefa39f02b772c0260801c5b60008361100016600f0b13156141f85770010000000000000b17217f7d1cf7d83c1a0260801c5b60008361080016600f0b131561421f577001000000000000058b90bfbe8e7bdcbe2e0260801c5b60008361040016600f0b131561424657700100000000000002c5c85fdf473dea871f0260801c5b60008361020016600f0b131561426d5770010000000000000162e42fefa39ef44d910260801c5b60008361010016600f0b131561429457700100000000000000b17217f7d1cf79e9490260801c5b600083608016600f0b13156142ba5770010000000000000058b90bfbe8e7bce5440260801c5b600083604016600f0b13156142e0577001000000000000002c5c85fdf473de6eca0260801c5b600083602016600f0b131561430657700100000000000000162e42fefa39ef366f0260801c5b600083601016600f0b131561432c577001000000000000000b17217f7d1cf79afa0260801c5b600083600816600f0b131561435257700100000000000000058b90bfbe8e7bcd6d0260801c5b600083600416600f0b13156143785770010000000000000002c5c85fdf473de6b20260801c5b600083600216600f0b131561439e577001000000000000000162e42fefa39ef3580260801c5b600083600116600f0b13156143c45770010000000000000000b17217f7d1cf79ab0260801c5b600f83810b60401d603f03900b1c60016001607f1b038111156104ef57600080fd5b60006143f06130f4565b6000868152602082815260408083208884528252808320868452825291829020808a5290890187905280546001600160501b03808216938b0193909352600160501b810490921660608a015263ffffffff600160a01b8304811660a08b0152600160c01b8304811660c08b0152600160e01b90920490911660e089015290915080841561448f5760018201546001600160501b031660808901526138e5565b600060808901525050505050505050565b6144a8614e69565b60006144b2612b31565b61ffff84166000908152602091909152604081205491506105b89082613682565b60006105b86144e284846118e2565b633b9aca00612061565b6000600282108015906104ef5750506008101590565b6000806104ef600c612c52565b60008061451a6148ae565b6001600160a01b038516600090815260209182526040808220868352909252205491505092915050565b6000806000614552856148bb565b90506201518084061561456c576000809250925050614648565b838110614580576000809250925050614648565b6201518081850304605a811161459d579250600191506146489050565b61016881116145dc576000620151806207e900840604820160591901905060068104605a01600682816145cc57fe5b0660001494509450505050614648565b610870811161460c5760006201518062278d00840604820161016719019050601e8104608701601e82816145cc57fe5b611de2811161463c576000620151806276a700840604820161086f19019050605a810460c301605a82816145cc57fe5b61010060009350935050505b9250929050565b60006001831015801561466457506101008311155b61466d57600080fd5b81156146865750600160ff1b60001983011c83176105b8565b50600160ff1b60001983011c1983166105b8565b6000816146a957506000610370565b6146b2826148d7565b60ff036001019050919050565b6000816146cb57600080fd5b6101008211156146da57600080fd5b60006146e5846148bb565b90506000605a841161470057506201518083020190506104ef565b60878411614728575060591983016207e900908102908206909103016276a7000190506104ef565b60c384116147515750608619830162278d00908102908206909103016301da9c000190506104ef565b5060c21983016276a70090810290820690910301630b1fa8000190506104ef565b6000806147808888886134b4565b9050848611614790579050610912565b82156147aa576147a284828888611489565b915050610912565b60006147b78588886114d9565b90506147c5828888846115c2565b92505050610912565b6060806147db8484614970565b91506134ab82614a88565b60008160ff166096106148015760ff8216622625a0026104ef565b5060951960ff919091160162e4e1c00263165a0bc00190565b600081121561482857600080fd5b600061483261362f565b6001600160a01b03851660009081526020828152604080832061ffff8816845290915290209091506148638361137d565b8154600a9190910b6001600160581b0316600160a81b026001600160a81b0390911617905550505050565b6000806104ef6021612c52565b60609091015160ff911c16622625a00290565b6000806104ef600b612c52565b6000620151808210156148cd57600080fd5b6201518082611a87565b6000816148e357600080fd5b600160801b82106148f657608091821c91015b600160401b821061490957604091821c91015b640100000000821061491d57602091821c91015b62010000821061492f57601091821c91015b610100821061494057600891821c91015b6010821061495057600491821c91015b6004821061496057600291821c91015b6002821061037057600101919050565b606060088260ff16111561498357600080fd5b600061498d614c49565b6001600160a01b038516600090815260208290526040812091925060ff851667ffffffffffffffff811180156149c257600080fd5b506040519080825280602002602001820160405280156149fc57816020015b6149e9614ed6565b8152602001906001900390816149e15790505b50905060005b8560ff16811015610737576000838260088110614a1b57fe5b0190506000838381518110614a2c57fe5b602090810291909101810151835461ffff8116825264ffffffffff620100008204169282019290925260ff600160381b8304166040820152600160401b909104600a90810b900b60608201526080019190915250600101614a02565b80516060908067ffffffffffffffff81118015614aa457600080fd5b50604051908082528060200260200182016040528015614ace578160200160208202803683370190505b50915060005b81811015614b2b576000848281518110614aea57fe5b60200260200101519050614b0b816000015182602001518360400151614c56565b848381518110614b1757fe5b602090810291909101015250600101614ad4565b5060015b81811015614c4257805b600081118015614b715750838181518110614b5057fe5b6020026020010151846001830381518110614b6757fe5b6020026020010151115b15614c3957838181518110614b8257fe5b6020026020010151846001830381518110614b9957fe5b6020026020010151856001840381518110614bb057fe5b60200260200101868481518110614bc357fe5b6020026020010182815250828152505050848181518110614be057fe5b6020026020010151856001830381518110614bf757fe5b6020026020010151866001840381518110614c0e57fe5b60200260200101878481518110614c2157fe5b60209081029190910101919091525260001901614b39565b50600101614b2f565b5050919050565b6000806104ef600d612c52565b67ffff000000000000603084901b1665ffffffffff00600884901b161760ff8216179392505050565b6040518060e00160405280614c92614e08565b8152602001614c9f614eae565b815260006020820181905260408201819052606082018190526080820181905260a09091015290565b604051806101400160405280600061ffff1681526020016000815260200160008152602001600081526020016000815260200160008152602001600081526020016000815260200160008152602001614d1f614d24565b905290565b60405180606001604052806000815260200160008152602001600081525090565b6040518061012001604052806000815260200160008152602001600081526020016000815260200160008152602001600081526020016000815260200160008152602001600081525090565b60405180610100016040528060008019168152602001600081526020016000815260200160008152602001600081526020016000815260200160008152602001600081525090565b6040805160a0810182526000808252602082018190529181018290529060608201908152602001600081525090565b6040805160808101825260008082526020820152908101614e27614d24565b8152600060209091015290565b6040805160c081018252600080825260208201819052918101829052606081018290526080810182905260a081019190915290565b60405180610100016040528060008152602001600081526020016000815260200160008152602001600081526020016000815260200160008152602001600081525090565b6040518060800160405280606081526020016060815260200160008152602001600081525090565b6040518060c00160405280600061ffff1681526020016000815260200160008152602001600081526020016000815260200160006003811115614d1f57fe5b8035801515811461037057600080fd5b803561ffff8116811461037057600080fd5b803563ffffffff8116811461037057600080fd5b60008060408385031215614f5d578182fd5b82356001600160a01b0381168114614f73578283fd5b946020939093013593505050565b600060208284031215614f92578081fd5b6105b882614f25565b60008060408385031215614fad578182fd5b614f7383614f25565b600080600060608486031215614fca578081fd5b614fd384614f25565b925060208401359150614fe860408501614f15565b90509250925092565b60008060008060808587031215615006578081fd5b61500f85614f25565b9350602085013580600a0b8114615024578182fd5b93969395505050506040820135916060013590565b6000806000806080858703121561504e578384fd5b61505785614f25565b966020860135965060408601359560600135945092505050565b600080600080600060a08688031215615088578081fd5b61509186614f25565b94506020860135935060408601359250606086013591506150b460808701614f15565b90509295509295909350565b600080600080600060a086880312156150d7578081fd5b6150e086614f25565b945060208601359350604086013592506150fc60608701614f37565b949793965091946080013592915050565b60008060008060008060c08789031215615125578081fd5b61512e87614f25565b9550602087013594506040870135935061514a60608801614f37565b92506080870135915061515f60a08801614f15565b90509295509295509295565b6000806040838503121561517d578182fd5b61518683614f25565b915060208301356001600160581b03811681146151a1578182fd5b809150509250929050565b6000602082840312156151bd578081fd5b5051919050565b600080604083850312156151d6578182fd5b50508035926020909101359150565b600080604083850312156151f7578182fd5b505080516020909101519092909150565b6001600160a01b0391909116815260200190565b6001600160a01b03929092168252602082015260400190565b6001600160a01b0394909416845260208401929092526040830152606082015260800190565b90815260200190565b918252602082015260400190565b60208082526016908201527513585c9ad95d081b9bdd081a5b9a5d1a585b1a5e995960521b604082015260600190565b60208082526013908201527214995c5d5a5c995cc81cd95d1d1b195b595b9d606a1b604082015260600190565b6020808252600e908201526d4e6f20636f6e76657267656e636560901b604082015260600190565b6020808252600d908201526c092dcecc2d8d2c840d2dcc8caf609b1b604082015260600190565b6020808252600e908201526d125b9d985b1a59081b585c9ad95d60921b604082015260600190565b6020808252601690820152755472616465206661696c65642c20736c69707061676560501b604082015260600190565b602080825260129082015271496e76616c696420626c6f636b2074696d6560701b604082015260600190565b602080825260139082015272125b9d985b1a590818dd5c9c995b98de481a59606a1b604082015260600190565b60208082526011908201527013dd995c8813585c9ad95d08131a5b5a5d607a1b604082015260600190565b60208082526014908201527313dd995c8811195d9a585d1a5bdb88131a5b5a5d60621b604082015260600190565b6000610180820190508351825260208401516020830152604084015160408301528251606083015260208301516080830152604083015160a0830152606083015160c0830152608083015160e083015260a0830151610100818185015260c085015161012085015260e08501516101408501528085015161016085015250509392505050565b9283526020830191909152604082015260600190565b938452602084019290925260ff166040830152606082015260800190565b6001600160581b0393909316835260ff919091166020830152604082015260600190565b60ff9190911681526020019056fea2646970667358221220f57d8ab47e89d760699e3759fc22b8f0da0cc17d8d9c0cb743a239cb039f160864736f6c63430007060033","language":"Solidity","natspec":{"kind":"dev","methods":{"accruePrimeInterest(uint16)":{"notice":"Accrues prime interest and updates state up to the current block"},"calculateNTokensToMint(uint16,uint88)":{"notice":"Returns the nTokens that will be minted when some amount of asset tokens are deposited","params":{"amountToDepositExternalPrecision":"amount of underlying tokens in native precision","currencyId":"id number of the currency"},"returns":{"_0":"the amount of nTokens that will be minted"}},"convertCashBalanceToExternal(uint16,int256,bool)":{"notice":"Converts an prime cash balance to an external token denomination","params":{"convertToUnderlying":"true if the value should be converted to underlying","currencyId":"the currency id of the cash balance","primeCashBalance":"the signed cash balance that is stored in Notional"},"returns":{"_0":"the cash balance converted to the external token denomination"}},"convertSettledfCash(uint16,uint256,int256,uint256)":{"notice":"Converts fCash to its settled prime cash value at the specified block time","params":{"blockTime":"block time to convert to settled prime value, must be greater than maturity","currencyId":"the currency id of the fCash asset","fCashBalance":"signed balance of fcash","maturity":"the timestamp when the fCash asset matures"},"returns":{"signedPrimeSupplyValue":"amount of prime cash to be received or owed to the protocol"}},"convertUnderlyingToPrimeCash(uint16,int256)":{"notice":"Converts an underlying balance to prime cash","params":{"currencyId":"the currency id of the cash balance","underlyingExternal":"the underlying external token balance"},"returns":{"_0":"the underlying balance converted to prime cash"}},"getCashAmountGivenfCashAmount(uint16,int88,uint256,uint256)":{"notice":"Returns the cash amount that will be traded given an fCash amount, be sure to buffer these amounts slightly because the liquidity curve is sensitive to changes in block time","params":{"blockTime":"the block time for when the trade will be calculated","currencyId":"id number of the currency","fCashAmount":"amount of fCash to trade, negative for borrowing, positive for lending","marketIndex":"market index of the fCash market"},"returns":{"_0":"net asset cash amount (positive for borrowing, negative for lending) in 8 decimal precision","_1":"underlying cash amount (positive for borrowing, negative for lending) in 8 decimal precision"}},"getDepositFromfCashLend(uint16,uint256,uint256,uint32,uint256)":{"notice":"Returns the amount of underlying cash and asset cash required to lend fCash. When specifying a trade, deposit either underlying or asset tokens (not both). Asset tokens tend to be more gas efficient.","params":{"blockTime":"the block time for when the trade will be calculated","currencyId":"id number of the currency","fCashAmount":"amount of fCash (in underlying) that will be received at maturity. Always 8 decimal precision.","maturity":"the maturity of the fCash to lend","minLendRate":"the minimum lending rate (slippage protection)"},"returns":{"depositAmountPrimeCash":"the amount of prime cash tokens the lender must deposit or mint","depositAmountUnderlying":"the amount of underlying tokens the lender must deposit","encodedTrade":"the encoded bytes32 object to pass to batch trade","marketIndex":"the corresponding market index for the lending"}},"getLibInfo()":{"notice":"Get a list of deployed library addresses (sorted by library name)"},"getMarketIndex(uint256,uint256)":{"notice":"Returns a market index value for a given maturity","params":{"blockTime":"the block time for when the trade will be calculated","maturity":"an fCash maturity"},"returns":{"marketIndex":"a value between 1 and 7 that represents the marketIndex (tenor) that corresponds to the maturity. Returns 0 if there is no corresponding marketIndex"}},"getPresentfCashValue(uint16,uint256,int256,uint256,bool)":{"notice":"Returns the present value of the given fCash amount using Notional internal oracle rates","params":{"blockTime":"the block time for when the trade will be calculated","currencyId":"id number of the currency","maturity":"timestamp of the fCash maturity","notional":"amount of fCash notional","riskAdjusted":"true if haircuts and buffers should be applied to the oracle rate"},"returns":{"presentValue":"of fCash in 8 decimal precision and underlying denomination"}},"getPrincipalFromfCashBorrow(uint16,uint256,uint256,uint32,uint256)":{"notice":"Returns the amount of underlying cash and asset cash required to borrow fCash. When specifying a trade, choose to receive either underlying or asset tokens (not both). Asset tokens tend to be more gas efficient.","params":{"blockTime":"the block time for when the trade will be calculated","currencyId":"id number of the currency","fCashBorrow":"amount of fCash (in underlying) that will be received at maturity. Always 8 decimal precision.","maturity":"the maturity of the fCash to lend","maxBorrowRate":"the maximum borrow rate (slippage protection)"},"returns":{"borrowAmountPrimeCash":"the amount of prime cash tokens the borrower will receive","borrowAmountUnderlying":"the amount of underlying tokens the borrower will receive","encodedTrade":"the encoded bytes32 object to pass to batch trade","marketIndex":"the corresponding market index for the lending"}},"getfCashAmountGivenCashAmount(uint16,int88,uint256,uint256)":{"params":{"blockTime":"the block time for when the trade will be calculated","marketIndex":"market index of the fCash market"},"returns":{"_0":"the fCash amount from the trade, positive when lending, negative when borrowing. Always in 8 decimals."}},"getfCashBorrowFromPrincipal(uint16,uint256,uint256,uint32,uint256,bool)":{"notice":"Returns the amount of fCash that would received if lending deposit amount.","params":{"blockTime":"the block time for when the trade will be calculated","borrowedAmountExternal":"amount to borrow in the token's native precision.","currencyId":"id number of the currency","maturity":"the maturity of the fCash to lend","maxBorrowRate":"the maximum borrow rate (slippage protection). If zero then no slippage will be applied","useUnderlying":"true if specifying the underlying token, false if specifying prime cash"},"returns":{"encodedTrade":"the encoded bytes32 object to pass to batch trade","fCashDebt":"the amount of fCash that the borrower will owe, this will be stored as a negative balance in Notional","marketIndex":"the corresponding market index for the lending"}},"getfCashLendFromDeposit(uint16,uint256,uint256,uint32,uint256,bool)":{"notice":"Returns the amount of fCash that would received if lending deposit amount.","params":{"blockTime":"the block time for when the trade will be calculated","currencyId":"id number of the currency","depositAmountExternal":"amount to deposit in the token's native precision. For aTokens use what is returned by the balanceOf selector (not scaledBalanceOf).","maturity":"the maturity of the fCash to lend","minLendRate":"the minimum lending rate (slippage protection)","useUnderlying":"true if specifying the underlying token, false if specifying prime cash"},"returns":{"encodedTrade":"the encoded bytes32 object to pass to batch trade","fCashAmount":"the amount of fCash that the lender will receive","marketIndex":"the corresponding market index for the lending"}},"nTokenGetClaimableIncentives(address,uint256)":{"notice":"Returns the claimable incentives for all nToken balances","params":{"account":"The address of the account which holds the tokens","blockTime":"The block time when incentives will be minted"},"returns":{"_0":"Incentives an account is eligible to claim"}},"nTokenPresentValueAssetDenominated(uint16)":{"notice":"Returns the present value of the nToken's assets denominated in asset tokens"},"nTokenPresentValueUnderlyingDenominated(uint16)":{"notice":"Returns the present value of the nToken's assets denominated in underlying"}},"version":1},"opcodes":"PUSH1 0x80 PUSH1 0x40 MSTORE CALLVALUE DUP1 ISZERO PUSH2 0x10 JUMPI PUSH1 0x0 DUP1 REVERT JUMPDEST POP PUSH1 0x4 CALLDATASIZE LT PUSH2 0x137 JUMPI PUSH1 0x0 CALLDATALOAD PUSH1 0xE0 SHR DUP1 PUSH4 0x82463367 GT PUSH2 0xB8 JUMPI DUP1 PUSH4 0xBAC9E8B1 GT PUSH2 0x7C JUMPI DUP1 PUSH4 0xBAC9E8B1 EQ PUSH2 0x286 JUMPI DUP1 PUSH4 0xC4C96DAE EQ PUSH2 0x2A8 JUMPI DUP1 PUSH4 0xC50A6134 EQ PUSH2 0x2B0 JUMPI DUP1 PUSH4 0xC52C43E1 EQ PUSH2 0x2D1 JUMPI DUP1 PUSH4 0xF11FF573 EQ PUSH2 0x2E4 JUMPI DUP1 PUSH4 0xF83A8608 EQ PUSH2 0x2F7 JUMPI PUSH2 0x137 JUMP JUMPDEST DUP1 PUSH4 0x82463367 EQ PUSH2 0x23D JUMPI DUP1 PUSH4 0x8355E895 EQ PUSH2 0x245 JUMPI DUP1 PUSH4 0x8DA5CB5B EQ PUSH2 0x258 JUMPI DUP1 PUSH4 0x97D6DB2E EQ PUSH2 0x260 JUMPI DUP1 PUSH4 0xAAAE47B5 EQ PUSH2 0x273 JUMPI PUSH2 0x137 JUMP JUMPDEST DUP1 PUSH4 0x416A1587 GT PUSH2 0xFF JUMPI DUP1 PUSH4 0x416A1587 EQ PUSH2 0x1C1 JUMPI DUP1 PUSH4 0x5953C77B EQ PUSH2 0x1E4 JUMPI DUP1 PUSH4 0x6A09A2A3 EQ PUSH2 0x204 JUMPI DUP1 PUSH4 0x6D48C794 EQ PUSH2 0x217 JUMPI DUP1 PUSH4 0x6EBBF174 EQ PUSH2 0x22A JUMPI PUSH2 0x137 JUMP JUMPDEST DUP1 PUSH4 0x94614DF EQ PUSH2 0x13C JUMPI DUP1 PUSH4 0xEB49480 EQ PUSH2 0x166 JUMPI DUP1 PUSH4 0x1A05BCE1 EQ PUSH2 0x186 JUMPI DUP1 PUSH4 0x24A3D622 EQ PUSH2 0x199 JUMPI DUP1 PUSH4 0x3B2987B3 EQ PUSH2 0x1AE JUMPI JUMPDEST PUSH1 0x0 DUP1 REVERT JUMPDEST PUSH2 0x14F PUSH2 0x14A CALLDATASIZE PUSH1 0x4 PUSH2 0x4FF1 JUMP JUMPDEST PUSH2 0x30A JUMP JUMPDEST PUSH1 0x40 MLOAD PUSH2 0x15D SWAP3 SWAP2 SWAP1 PUSH2 0x5264 JUMP JUMPDEST PUSH1 0x40 MLOAD DUP1 SWAP2 SUB SWAP1 RETURN JUMPDEST PUSH2 0x179 PUSH2 0x174 CALLDATASIZE PUSH1 0x4 PUSH2 0x5039 JUMP JUMPDEST PUSH2 0x328 JUMP JUMPDEST PUSH1 0x40 MLOAD PUSH2 0x15D SWAP2 SWAP1 PUSH2 0x525B JUMP JUMPDEST PUSH2 0x179 PUSH2 0x194 CALLDATASIZE PUSH1 0x4 PUSH2 0x4F81 JUMP JUMPDEST PUSH2 0x35F JUMP JUMPDEST PUSH2 0x1A1 PUSH2 0x375 JUMP JUMPDEST PUSH1 0x40 MLOAD PUSH2 0x15D SWAP2 SWAP1 PUSH2 0x5208 JUMP JUMPDEST PUSH2 0x179 PUSH2 0x1BC CALLDATASIZE PUSH1 0x4 PUSH2 0x4F81 JUMP JUMPDEST PUSH2 0x384 JUMP JUMPDEST PUSH2 0x1D4 PUSH2 0x1CF CALLDATASIZE PUSH1 0x4 PUSH2 0x50C0 JUMP JUMPDEST PUSH2 0x3A7 JUMP JUMPDEST PUSH1 0x40 MLOAD PUSH2 0x15D SWAP5 SWAP4 SWAP3 SWAP2 SWAP1 PUSH2 0x54C4 JUMP JUMPDEST PUSH2 0x1F7 PUSH2 0x1F2 CALLDATASIZE PUSH1 0x4 PUSH2 0x51C4 JUMP JUMPDEST PUSH2 0x44D JUMP JUMPDEST PUSH1 0x40 MLOAD PUSH2 0x15D SWAP2 SWAP1 PUSH2 0x5506 JUMP JUMPDEST PUSH2 0x179 PUSH2 0x212 CALLDATASIZE PUSH1 0x4 PUSH2 0x516B JUMP JUMPDEST PUSH2 0x479 JUMP JUMPDEST PUSH2 0x179 PUSH2 0x225 CALLDATASIZE PUSH1 0x4 PUSH2 0x4F9B JUMP JUMPDEST PUSH2 0x4F5 JUMP JUMPDEST PUSH2 0x179 PUSH2 0x238 CALLDATASIZE PUSH1 0x4 PUSH2 0x4FB6 JUMP JUMPDEST PUSH2 0x55C JUMP JUMPDEST PUSH2 0x1A1 PUSH2 0x5BF JUMP JUMPDEST PUSH2 0x179 PUSH2 0x253 CALLDATASIZE PUSH1 0x4 PUSH2 0x4FF1 JUMP JUMPDEST PUSH2 0x5CE JUMP JUMPDEST PUSH2 0x1A1 PUSH2 0x5F2 JUMP JUMPDEST PUSH2 0x179 PUSH2 0x26E CALLDATASIZE PUSH1 0x4 PUSH2 0x4F4B JUMP JUMPDEST PUSH2 0x609 JUMP JUMPDEST PUSH2 0x1D4 PUSH2 0x281 CALLDATASIZE PUSH1 0x4 PUSH2 0x50C0 JUMP JUMPDEST PUSH2 0x741 JUMP JUMPDEST PUSH2 0x299 PUSH2 0x294 CALLDATASIZE PUSH1 0x4 PUSH2 0x510D JUMP JUMPDEST PUSH2 0x7D3 JUMP JUMPDEST PUSH1 0x40 MLOAD PUSH2 0x15D SWAP4 SWAP3 SWAP2 SWAP1 PUSH2 0x54E2 JUMP JUMPDEST PUSH2 0x1A1 PUSH2 0x84E JUMP JUMPDEST PUSH2 0x2C3 PUSH2 0x2BE CALLDATASIZE PUSH1 0x4 PUSH2 0x4F81 JUMP JUMPDEST PUSH2 0x866 JUMP JUMPDEST PUSH1 0x40 MLOAD PUSH2 0x15D SWAP3 SWAP2 SWAP1 PUSH2 0x5428 JUMP JUMPDEST PUSH2 0x179 PUSH2 0x2DF CALLDATASIZE PUSH1 0x4 PUSH2 0x5071 JUMP JUMPDEST PUSH2 0x891 JUMP JUMPDEST PUSH2 0x179 PUSH2 0x2F2 CALLDATASIZE PUSH1 0x4 PUSH2 0x4F9B JUMP JUMPDEST PUSH2 0x8D9 JUMP JUMPDEST PUSH2 0x299 PUSH2 0x305 CALLDATASIZE PUSH1 0x4 PUSH2 0x510D JUMP JUMPDEST PUSH2 0x91C JUMP JUMPDEST PUSH1 0x0 DUP1 PUSH2 0x31B DUP7 DUP7 DUP7 DUP7 PUSH1 0x0 PUSH2 0x981 JUMP JUMPDEST SWAP2 POP SWAP2 POP SWAP5 POP SWAP5 SWAP3 POP POP POP JUMP JUMPDEST PUSH1 0x0 DUP2 DUP5 GT ISZERO PUSH2 0x337 JUMPI PUSH1 0x0 DUP1 REVERT JUMPDEST PUSH1 0x0 PUSH2 0x343 DUP7 DUP5 PUSH2 0xA7A JUMP JUMPDEST POP SWAP1 POP PUSH2 0x353 DUP2 DUP8 DUP8 DUP8 DUP8 PUSH2 0xB33 JUMP JUMPDEST SWAP2 POP POP JUMPDEST SWAP5 SWAP4 POP POP POP POP JUMP JUMPDEST PUSH1 0x0 DUP1 PUSH2 0x36B DUP4 PUSH2 0xB5A JUMP JUMPDEST POP SWAP2 POP POP JUMPDEST SWAP2 SWAP1 POP JUMP JUMPDEST PUSH1 0x2 SLOAD PUSH1 0x1 PUSH1 0x1 PUSH1 0xA0 SHL SUB AND DUP2 JUMP JUMPDEST PUSH1 0x0 DUP1 PUSH1 0x0 PUSH2 0x392 DUP5 PUSH2 0xB5A JUMP JUMPDEST DUP1 MLOAD PUSH1 0x40 ADD MLOAD SWAP2 SWAP4 POP SWAP2 POP PUSH2 0x357 SWAP1 DUP4 PUSH2 0xB8F JUMP JUMPDEST PUSH1 0x0 DUP1 PUSH1 0x0 DUP1 PUSH2 0x3B7 DUP8 DUP7 PUSH2 0x44D JUMP JUMPDEST SWAP2 POP PUSH1 0x0 DUP3 PUSH1 0xFF AND GT PUSH2 0x3C9 JUMPI PUSH1 0x0 DUP1 REVERT JUMPDEST PUSH11 0x7FFFFFFFFFFFFFFFFFFFFF DUP9 LT PUSH2 0x3E0 JUMPI PUSH1 0x0 DUP1 REVERT JUMPDEST PUSH1 0x0 PUSH2 0x3F3 PUSH2 0x3EE DUP11 PUSH2 0xBBB JUMP JUMPDEST PUSH2 0xBD5 JUMP JUMPDEST SWAP1 POP PUSH1 0x0 DUP1 PUSH2 0x40E DUP13 DUP5 DUP8 PUSH1 0xFF AND DUP12 DUP14 PUSH4 0xFFFFFFFF AND PUSH2 0x981 JUMP JUMPDEST SWAP2 POP SWAP2 POP PUSH2 0x41C DUP13 DUP3 PUSH2 0xBE3 JUMP JUMPDEST SWAP7 POP PUSH2 0x427 DUP3 PUSH2 0xC2F JUMP JUMPDEST SWAP6 POP PUSH2 0x439 PUSH1 0x1 DUP7 DUP6 PUSH1 0xA SIGNEXTEND DUP13 PUSH2 0xC3E JUMP JUMPDEST POP DUP1 SWAP5 POP POP POP POP POP SWAP6 POP SWAP6 POP SWAP6 POP SWAP6 SWAP2 POP POP JUMP JUMPDEST PUSH1 0x0 DUP1 PUSH1 0x0 PUSH2 0x45E PUSH1 0x7 DUP7 DUP7 PUSH2 0xC9C JUMP JUMPDEST SWAP2 POP SWAP2 POP DUP1 PUSH2 0x46D JUMPI DUP2 PUSH2 0x470 JUMP JUMPDEST PUSH1 0x0 JUMPDEST SWAP6 SWAP5 POP POP POP POP POP JUMP JUMPDEST PUSH1 0x0 PUSH2 0x484 DUP4 PUSH2 0xD2B JUMP JUMPDEST PUSH1 0x0 PUSH2 0x493 DUP5 PUSH2 0xFFFF AND PUSH2 0xD68 JUMP JUMPDEST SWAP1 POP PUSH1 0x0 PUSH2 0x4AA DUP3 PUSH1 0x1 PUSH1 0x1 PUSH1 0x58 SHL SUB DUP7 AND PUSH2 0xD7B JUMP JUMPDEST SWAP1 POP PUSH2 0x4B4 PUSH2 0x4C7F JUMP JUMPDEST PUSH2 0x4BE DUP2 DUP8 PUSH2 0xDAB JUMP JUMPDEST DUP1 MLOAD PUSH1 0x40 ADD MLOAD PUSH1 0x0 SWAP1 PUSH2 0x4DD SWAP1 DUP4 SWAP1 PUSH2 0x4D7 SWAP1 DUP7 PUSH2 0xDC4 JUMP JUMPDEST TIMESTAMP PUSH2 0xDE6 JUMP JUMPDEST SWAP1 POP PUSH2 0x4E8 DUP2 PUSH2 0xC2F JUMP JUMPDEST SWAP5 POP POP POP POP POP JUMPDEST SWAP3 SWAP2 POP POP JUMP JUMPDEST PUSH1 0x0 DUP1 PUSH1 0x0 PUSH2 0x503 DUP6 PUSH2 0xB5A JUMP JUMPDEST SWAP2 POP SWAP2 POP PUSH1 0x0 PUSH2 0x52A DUP3 PUSH1 0x40 ADD MLOAD PUSH2 0x524 DUP6 DUP9 PUSH2 0xEE5 SWAP1 SWAP2 SWAP1 PUSH4 0xFFFFFFFF AND JUMP JUMPDEST SWAP1 PUSH2 0xF33 JUMP JUMPDEST DUP3 MLOAD PUSH1 0x40 ADD MLOAD SWAP1 SWAP2 POP PUSH1 0x0 SWAP1 PUSH2 0x540 SWAP1 DUP4 PUSH2 0xB8F JUMP JUMPDEST SWAP1 POP PUSH2 0x4E8 PUSH2 0x557 DUP9 PUSH2 0x552 DUP5 PUSH2 0xF64 JUMP JUMPDEST PUSH2 0xBE3 JUMP JUMPDEST PUSH2 0xBBB JUMP JUMPDEST PUSH1 0x0 DUP2 PUSH2 0x56A JUMPI POP DUP2 PUSH2 0x5B8 JUMP JUMPDEST PUSH1 0x0 PUSH2 0x576 DUP6 TIMESTAMP PUSH2 0xA7A JUMP JUMPDEST POP SWAP1 POP PUSH1 0x0 PUSH2 0x585 DUP3 DUP7 PUSH2 0xB8F JUMP JUMPDEST SWAP1 POP PUSH1 0x0 PUSH2 0x599 PUSH2 0x557 DUP9 PUSH2 0x552 DUP6 PUSH2 0xF64 JUMP JUMPDEST SWAP1 POP PUSH1 0x0 DUP3 SLT PUSH2 0x5A9 JUMPI DUP1 PUSH2 0x5B2 JUMP JUMPDEST PUSH2 0x5B2 DUP2 PUSH2 0xBD5 JUMP JUMPDEST SWAP4 POP POP POP POP JUMPDEST SWAP4 SWAP3 POP POP POP JUMP JUMPDEST PUSH1 0x1 SLOAD PUSH1 0x1 PUSH1 0x1 PUSH1 0xA0 SHL SUB AND DUP2 JUMP JUMPDEST PUSH1 0x0 PUSH2 0x5D9 DUP6 PUSH2 0xD2B JUMP JUMPDEST PUSH1 0x0 PUSH2 0x5E4 DUP7 PUSH2 0xF85 JUMP JUMPDEST SWAP1 POP PUSH2 0x353 DUP6 DUP6 DUP6 DUP5 PUSH2 0xFA6 JUMP JUMPDEST PUSH1 0x0 SLOAD PUSH5 0x100000000 SWAP1 DIV PUSH1 0x1 PUSH1 0x1 PUSH1 0xA0 SHL SUB AND DUP2 JUMP JUMPDEST PUSH1 0x0 DUP1 PUSH2 0x615 DUP5 PUSH2 0x1038 JUMP JUMPDEST SWAP1 POP PUSH2 0x61F PUSH2 0x4CC8 JUMP JUMPDEST PUSH1 0x0 PUSH2 0x62A DUP4 PUSH2 0x10EC JUMP JUMPDEST ISZERO PUSH2 0x6A0 JUMPI PUSH1 0x60 DUP4 ADD MLOAD PUSH2 0x642 SWAP1 DUP4 SWAP1 DUP9 SWAP1 DUP7 PUSH2 0x10F9 JUMP JUMPDEST PUSH1 0x0 DUP3 PUSH1 0x40 ADD MLOAD SGT ISZERO PUSH2 0x6A0 JUMPI PUSH1 0x0 PUSH2 0x662 DUP4 PUSH1 0x0 ADD MLOAD PUSH2 0xFFFF AND PUSH2 0x111C JUMP JUMPDEST SWAP1 POP PUSH1 0x0 PUSH2 0x670 DUP3 DUP9 PUSH2 0x1142 JUMP JUMPDEST POP SWAP2 POP POP PUSH1 0x0 PUSH2 0x68E DUP6 DUP5 DUP5 PUSH2 0x689 DUP10 PUSH1 0x40 ADD MLOAD PUSH2 0xC2F JUMP JUMPDEST PUSH2 0x11D8 JUMP JUMPDEST SWAP1 POP PUSH2 0x69A DUP5 DUP3 PUSH2 0x1305 JUMP JUMPDEST SWAP4 POP POP POP POP JUMPDEST PUSH1 0x80 DUP4 ADD MLOAD JUMPDEST PUSH1 0x1 PUSH1 0x1 PUSH1 0x70 SHL SUB NOT DUP2 AND ISZERO PUSH2 0x737 JUMPI PUSH1 0xF0 DUP2 SWAP1 SHR PUSH2 0x3FFF AND PUSH2 0x6CB DUP5 DUP10 DUP4 DUP9 PUSH2 0x10F9 JUMP JUMPDEST PUSH1 0x0 DUP5 PUSH1 0x40 ADD MLOAD SGT ISZERO PUSH2 0x724 JUMPI PUSH1 0x0 PUSH2 0x6EB DUP6 PUSH1 0x0 ADD MLOAD PUSH2 0xFFFF AND PUSH2 0x111C JUMP JUMPDEST SWAP1 POP PUSH1 0x0 PUSH2 0x6F9 DUP3 DUP11 PUSH2 0x1142 JUMP JUMPDEST POP SWAP2 POP POP PUSH1 0x0 PUSH2 0x712 DUP8 DUP5 DUP5 PUSH2 0x689 DUP12 PUSH1 0x40 ADD MLOAD PUSH2 0xC2F JUMP JUMPDEST SWAP1 POP PUSH2 0x71E DUP7 DUP3 PUSH2 0x1305 JUMP JUMPDEST SWAP6 POP POP POP POP JUMPDEST POP PUSH1 0x10 SHL PUSH1 0x1 PUSH1 0x1 PUSH1 0x80 SHL SUB NOT AND PUSH2 0x6A6 JUMP JUMPDEST POP SWAP6 SWAP5 POP POP POP POP POP JUMP JUMPDEST PUSH1 0x0 DUP1 PUSH1 0x0 DUP1 PUSH2 0x751 DUP8 DUP7 PUSH2 0x44D JUMP JUMPDEST SWAP2 POP PUSH1 0x0 DUP3 PUSH1 0xFF AND GT PUSH2 0x763 JUMPI PUSH1 0x0 DUP1 REVERT JUMPDEST PUSH11 0x7FFFFFFFFFFFFFFFFFFFFF DUP9 LT PUSH2 0x77A JUMPI PUSH1 0x0 DUP1 REVERT JUMPDEST PUSH1 0x0 PUSH2 0x785 DUP10 PUSH2 0xBBB JUMP JUMPDEST SWAP1 POP PUSH1 0x0 DUP1 PUSH2 0x7A0 DUP13 DUP5 DUP8 PUSH1 0xFF AND DUP12 DUP14 PUSH4 0xFFFFFFFF AND PUSH2 0x981 JUMP JUMPDEST SWAP2 POP SWAP2 POP PUSH2 0x7AE DUP13 DUP3 PUSH2 0xBE3 JUMP JUMPDEST SWAP7 POP PUSH2 0x7C1 PUSH2 0x7BC DUP4 PUSH2 0xBD5 JUMP JUMPDEST PUSH2 0xC2F JUMP JUMPDEST SWAP6 POP PUSH2 0x439 PUSH1 0x0 DUP7 DUP6 PUSH1 0xA SIGNEXTEND DUP13 PUSH2 0xC3E JUMP JUMPDEST PUSH1 0x0 DUP1 PUSH1 0x0 PUSH2 0x7E2 DUP8 DUP7 PUSH2 0x44D JUMP JUMPDEST SWAP2 POP PUSH1 0x0 DUP3 PUSH1 0xFF AND GT PUSH2 0x7F4 JUMPI PUSH1 0x0 DUP1 REVERT JUMPDEST PUSH1 0x0 DUP1 PUSH2 0x802 DUP12 DUP12 DUP9 PUSH2 0x1317 JUMP JUMPDEST SWAP2 POP SWAP2 POP PUSH1 0x0 PUSH2 0x81F PUSH2 0x814 DUP5 PUSH2 0x137D JUMP JUMPDEST DUP7 PUSH1 0xFF AND DUP11 DUP6 PUSH2 0xFA6 JUMP JUMPDEST SWAP1 POP PUSH1 0x0 DUP2 SLT PUSH2 0x82E JUMPI PUSH1 0x0 DUP1 REVERT JUMPDEST PUSH2 0x83B PUSH1 0x1 DUP7 DUP4 DUP13 PUSH2 0xC3E JUMP JUMPDEST SWAP14 SWAP6 SWAP13 POP SWAP11 POP SWAP4 SWAP9 POP POP POP POP POP POP POP POP POP JUMP JUMPDEST PUSH20 0x0 SWAP1 JUMP JUMPDEST PUSH2 0x86E PUSH2 0x4D24 JUMP JUMPDEST PUSH2 0x876 PUSH2 0x4D45 JUMP JUMPDEST PUSH2 0x87F DUP4 PUSH2 0x13AF JUMP JUMPDEST SWAP2 POP PUSH2 0x88A DUP4 PUSH2 0x13C1 JUMP JUMPDEST SWAP1 POP SWAP2 POP SWAP2 JUMP JUMPDEST PUSH1 0x0 DUP1 PUSH2 0x89D DUP8 PUSH2 0xF85 JUMP JUMPDEST SWAP1 POP DUP3 ISZERO PUSH2 0x8B8 JUMPI PUSH2 0x8B1 DUP2 DUP7 DUP9 DUP8 PUSH2 0x1489 JUMP JUMPDEST SWAP2 POP PUSH2 0x737 JUMP JUMPDEST PUSH2 0x8CE DUP6 DUP8 DUP7 PUSH2 0x8C9 DUP6 DUP4 DUP4 PUSH2 0x14D9 JUMP JUMPDEST PUSH2 0x15C2 JUMP JUMPDEST SWAP8 SWAP7 POP POP POP POP POP POP POP JUMP JUMPDEST PUSH1 0x0 DUP1 PUSH2 0x8E6 DUP5 TIMESTAMP PUSH2 0xA7A JUMP JUMPDEST POP SWAP1 POP PUSH1 0x0 PUSH2 0x8F8 DUP6 PUSH2 0xFFFF AND PUSH2 0xD68 JUMP JUMPDEST SWAP1 POP PUSH1 0x0 PUSH2 0x906 DUP3 DUP7 PUSH2 0xD7B JUMP JUMPDEST SWAP1 POP PUSH2 0x912 DUP4 DUP3 PUSH2 0xDC4 JUMP JUMPDEST SWAP7 SWAP6 POP POP POP POP POP POP JUMP JUMPDEST PUSH1 0x0 DUP1 PUSH1 0x0 PUSH2 0x92B DUP8 DUP7 PUSH2 0x44D JUMP JUMPDEST SWAP2 POP PUSH1 0x0 DUP3 PUSH1 0xFF AND GT PUSH2 0x93D JUMPI PUSH1 0x0 DUP1 REVERT JUMPDEST PUSH1 0x0 DUP1 PUSH2 0x94B DUP12 DUP12 DUP9 PUSH2 0x1317 JUMP JUMPDEST SWAP2 POP SWAP2 POP PUSH1 0x0 PUSH2 0x965 PUSH2 0x814 PUSH2 0x960 DUP6 PUSH2 0xBD5 JUMP JUMPDEST PUSH2 0x137D JUMP JUMPDEST SWAP1 POP DUP1 PUSH1 0x0 SLT PUSH2 0x974 JUMPI PUSH1 0x0 DUP1 REVERT JUMPDEST PUSH2 0x83B PUSH1 0x0 DUP7 DUP4 DUP13 PUSH2 0xC3E JUMP JUMPDEST PUSH1 0x0 DUP1 PUSH2 0x98D DUP8 PUSH2 0xD2B JUMP JUMPDEST PUSH1 0x0 PUSH2 0x998 DUP9 PUSH2 0xF85 JUMP JUMPDEST SWAP1 POP PUSH2 0x9A2 PUSH2 0x4D91 JUMP JUMPDEST PUSH2 0x9B0 DUP3 DUP3 DUP10 PUSH1 0x0 DUP11 PUSH2 0x1608 JUMP JUMPDEST DUP6 DUP2 PUSH1 0x20 ADD MLOAD GT PUSH2 0x9DC JUMPI PUSH1 0x40 MLOAD PUSH3 0x461BCD PUSH1 0xE5 SHL DUP2 MSTORE PUSH1 0x4 ADD PUSH2 0x9D3 SWAP1 PUSH2 0x5376 JUMP JUMPDEST PUSH1 0x40 MLOAD DUP1 SWAP2 SUB SWAP1 REVERT JUMPDEST PUSH1 0x20 DUP2 ADD MLOAD DUP7 SWAP1 SUB PUSH1 0x0 DUP1 PUSH2 0x9F8 DUP5 DUP7 PUSH1 0xA DUP15 SWAP1 SIGNEXTEND DUP7 DUP15 PUSH2 0x1683 JUMP JUMPDEST SWAP3 POP POP SWAP2 POP DUP8 PUSH1 0x0 EQ PUSH2 0xA56 JUMPI PUSH1 0x0 DUP12 PUSH1 0xA SIGNEXTEND SLT ISZERO PUSH2 0xA36 JUMPI DUP8 DUP2 GT ISZERO PUSH2 0xA31 JUMPI PUSH1 0x40 MLOAD PUSH3 0x461BCD PUSH1 0xE5 SHL DUP2 MSTORE PUSH1 0x4 ADD PUSH2 0x9D3 SWAP1 PUSH2 0x5346 JUMP JUMPDEST PUSH2 0xA56 JUMP JUMPDEST DUP8 DUP2 LT ISZERO PUSH2 0xA56 JUMPI PUSH1 0x40 MLOAD PUSH3 0x461BCD PUSH1 0xE5 SHL DUP2 MSTORE PUSH1 0x4 ADD PUSH2 0x9D3 SWAP1 PUSH2 0x5346 JUMP JUMPDEST PUSH1 0x40 DUP6 ADD MLOAD DUP3 SWAP1 PUSH2 0xA67 SWAP1 DUP3 PUSH2 0xB8F JUMP JUMPDEST SWAP7 POP SWAP7 POP POP POP POP POP POP SWAP6 POP SWAP6 SWAP4 POP POP POP POP JUMP JUMPDEST PUSH2 0xA82 PUSH2 0x4D24 JUMP JUMPDEST PUSH2 0xA8A PUSH2 0x4D45 JUMP JUMPDEST PUSH2 0xA93 DUP5 PUSH2 0x13C1 JUMP JUMPDEST SWAP1 POP DUP3 DUP2 PUSH1 0x0 ADD MLOAD LT ISZERO PUSH2 0xAC4 JUMPI PUSH1 0x0 PUSH2 0xAAC DUP6 PUSH2 0x17C3 JUMP JUMPDEST SWAP1 POP PUSH2 0xABA DUP6 DUP4 DUP4 DUP8 PUSH2 0x183E JUMP JUMPDEST POP SWAP2 POP PUSH2 0xAD1 SWAP1 POP JUMP JUMPDEST DUP1 MLOAD DUP4 EQ PUSH2 0xAD1 JUMPI PUSH1 0x0 DUP1 REVERT JUMPDEST PUSH1 0x40 MLOAD DUP1 PUSH1 0x60 ADD PUSH1 0x40 MSTORE DUP1 PUSH2 0xAFA PUSH2 0x557 DUP5 PUSH1 0xA0 ADD MLOAD DUP6 PUSH1 0xC0 ADD MLOAD PUSH2 0x18E2 SWAP1 SWAP2 SWAP1 PUSH4 0xFFFFFFFF AND JUMP JUMPDEST DUP2 MSTORE PUSH1 0x20 ADD PUSH2 0xB1D PUSH2 0x557 DUP5 PUSH1 0xA0 ADD MLOAD DUP6 PUSH1 0xE0 ADD MLOAD PUSH2 0x18E2 SWAP1 SWAP2 SWAP1 PUSH4 0xFFFFFFFF AND JUMP JUMPDEST DUP2 MSTORE PUSH1 0x20 ADD DUP3 PUSH1 0x60 ADD MLOAD DUP2 MSTORE POP SWAP2 POP SWAP3 POP SWAP3 SWAP1 POP JUMP JUMPDEST PUSH1 0x0 DUP1 PUSH2 0xB41 DUP7 DUP7 DUP6 PUSH2 0x1909 JUMP JUMPDEST SWAP1 POP PUSH2 0xB4E DUP8 DUP3 DUP7 PUSH2 0x193D JUMP JUMPDEST POP SWAP8 SWAP7 POP POP POP POP POP POP POP JUMP JUMPDEST PUSH1 0x0 PUSH2 0xB64 PUSH2 0x4C7F JUMP JUMPDEST TIMESTAMP PUSH2 0xB6D PUSH2 0x4C7F JUMP JUMPDEST PUSH2 0xB77 DUP2 DUP7 PUSH2 0xDAB JUMP JUMPDEST PUSH1 0x0 PUSH2 0xB83 DUP3 DUP5 PUSH2 0x19A5 JUMP JUMPDEST SWAP5 POP SWAP1 SWAP3 POP POP POP SWAP2 POP SWAP2 JUMP JUMPDEST PUSH1 0x0 PUSH2 0x5B8 PUSH15 0xC097CE7BC90715B34B9F1000000000 PUSH2 0x524 DUP6 PUSH1 0x0 ADD MLOAD DUP6 PUSH2 0xEE5 SWAP1 SWAP2 SWAP1 PUSH4 0xFFFFFFFF AND JUMP JUMPDEST PUSH1 0x0 PUSH1 0x1 PUSH1 0x1 PUSH1 0xFF SHL SUB DUP3 GT ISZERO PUSH2 0xBD1 JUMPI PUSH1 0x0 DUP1 REVERT JUMPDEST POP SWAP1 JUMP JUMPDEST PUSH1 0x0 PUSH2 0x4EF PUSH1 0x0 NOT DUP4 PUSH2 0xEE5 JUMP JUMPDEST PUSH1 0x0 DUP1 PUSH2 0xBF3 DUP5 PUSH2 0xFFFF AND PUSH2 0xD68 JUMP JUMPDEST SWAP1 POP PUSH1 0x0 DUP1 DUP5 SLT PUSH2 0xC15 JUMPI PUSH2 0xC10 PUSH2 0xC0B DUP4 DUP7 PUSH2 0x19FB JUMP JUMPDEST PUSH2 0xF64 JUMP JUMPDEST PUSH2 0xC28 JUMP JUMPDEST PUSH2 0xC28 PUSH2 0xC21 DUP6 PUSH2 0xBD5 JUMP JUMPDEST DUP4 SWAP1 PUSH2 0x1A33 JUMP JUMPDEST SWAP1 POP PUSH2 0x470 DUP2 JUMPDEST PUSH1 0x0 DUP1 DUP3 SLT ISZERO PUSH2 0xBD1 JUMPI PUSH1 0x0 DUP1 REVERT JUMPDEST PUSH1 0x0 DUP1 PUSH1 0x0 PUSH2 0xC4C DUP6 PUSH2 0xF64 JUMP JUMPDEST SWAP1 POP PUSH1 0x1 PUSH1 0x1 PUSH1 0x58 SHL SUB DUP2 GT ISZERO PUSH2 0xC62 JUMPI PUSH1 0x0 DUP1 REVERT JUMPDEST PUSH1 0x78 DUP5 PUSH4 0xFFFFFFFF AND SWAP1 SHL PUSH1 0x98 DUP3 SWAP1 SHL PUSH1 0xF0 DUP9 PUSH1 0xFF AND SWAP1 SHL PUSH1 0xF8 DUP11 PUSH1 0x5 DUP2 GT ISZERO PUSH2 0xC88 JUMPI INVALID JUMPDEST PUSH1 0xFF AND SWAP1 SHL OR OR OR SWAP8 SWAP1 SWAP7 POP SWAP5 POP POP POP POP POP JUMP JUMPDEST PUSH1 0x0 DUP1 PUSH1 0x0 DUP6 GT PUSH2 0xCAC JUMPI PUSH1 0x0 DUP1 REVERT JUMPDEST PUSH1 0x7 DUP6 GT ISZERO PUSH2 0xCBA JUMPI PUSH1 0x0 DUP1 REVERT JUMPDEST PUSH1 0x0 PUSH2 0xCC5 DUP5 PUSH2 0x1A6F JUMP JUMPDEST SWAP1 POP PUSH1 0x1 JUMPDEST DUP7 DUP2 GT PUSH2 0xD1D JUMPI PUSH1 0x0 PUSH2 0xCE6 PUSH2 0xCDF DUP4 PUSH2 0x1A90 JUMP JUMPDEST DUP5 SWAP1 PUSH2 0x1305 JUMP JUMPDEST SWAP1 POP DUP7 DUP2 EQ ISZERO PUSH2 0xCFE JUMPI POP SWAP3 POP PUSH1 0x0 SWAP2 POP PUSH2 0xD23 SWAP1 POP JUMP JUMPDEST DUP7 DUP2 GT ISZERO PUSH2 0xD14 JUMPI POP SWAP3 POP PUSH1 0x1 SWAP2 POP PUSH2 0xD23 SWAP1 POP JUMP JUMPDEST POP PUSH1 0x1 ADD PUSH2 0xCCA JUMP JUMPDEST POP PUSH1 0x0 DUP1 REVERT JUMPDEST SWAP4 POP SWAP4 SWAP2 POP POP JUMP JUMPDEST DUP1 PUSH2 0xFFFF AND PUSH1 0x0 LT DUP1 ISZERO PUSH2 0xD49 JUMPI POP PUSH1 0x0 SLOAD PUSH2 0xFFFF SWAP1 DUP2 AND SWAP1 DUP3 AND GT ISZERO JUMPDEST PUSH2 0xD65 JUMPI PUSH1 0x40 MLOAD PUSH3 0x461BCD PUSH1 0xE5 SHL DUP2 MSTORE PUSH1 0x4 ADD PUSH2 0x9D3 SWAP1 PUSH2 0x53A2 JUMP JUMPDEST POP JUMP JUMPDEST PUSH2 0xD70 PUSH2 0x4DD9 JUMP JUMPDEST PUSH2 0x4EF DUP3 PUSH1 0x1 PUSH2 0x1B34 JUMP JUMPDEST PUSH1 0x0 PUSH4 0x5F5E100 DUP4 PUSH1 0x40 ADD MLOAD EQ ISZERO PUSH2 0xD94 JUMPI POP DUP1 PUSH2 0x4EF JUMP JUMPDEST PUSH1 0x40 DUP4 ADD MLOAD PUSH2 0x5B8 SWAP1 PUSH2 0x524 DUP5 PUSH4 0x5F5E100 PUSH2 0xEE5 JUMP JUMPDEST PUSH2 0xDB5 DUP3 DUP3 PUSH2 0x1BCE JUMP JUMPDEST PUSH2 0xDBE DUP2 PUSH2 0xF85 JUMP JUMPDEST SWAP1 SWAP2 MSTORE POP JUMP JUMPDEST DUP2 MLOAD PUSH1 0x0 SWAP1 PUSH2 0x5B8 SWAP1 PUSH2 0x524 DUP5 PUSH15 0xC097CE7BC90715B34B9F1000000000 PUSH2 0xEE5 JUMP JUMPDEST PUSH1 0x0 DUP1 DUP4 SLT ISZERO PUSH2 0xDF5 JUMPI PUSH1 0x0 DUP1 REVERT JUMPDEST DUP3 PUSH2 0xE02 JUMPI POP PUSH1 0x0 PUSH2 0x5B8 JUMP JUMPDEST PUSH1 0x80 DUP5 ADD MLOAD ISZERO PUSH2 0xE3A JUMPI PUSH1 0x0 PUSH2 0xE17 DUP6 PUSH2 0x1C6A JUMP JUMPDEST SWAP1 POP DUP3 DUP2 GT PUSH2 0xE38 JUMPI PUSH1 0x40 MLOAD PUSH3 0x461BCD PUSH1 0xE5 SHL DUP2 MSTORE PUSH1 0x4 ADD PUSH2 0x9D3 SWAP1 PUSH2 0x52A2 JUMP JUMPDEST POP JUMPDEST PUSH1 0x40 DUP5 ADD MLOAD PUSH2 0xE4A JUMPI POP DUP2 PUSH2 0x5B8 JUMP JUMPDEST PUSH1 0x0 DUP1 PUSH2 0xE57 DUP7 DUP6 PUSH2 0x1C9B JUMP JUMPDEST SWAP2 POP SWAP2 POP PUSH1 0x0 DUP3 SLT ISZERO PUSH2 0xE69 JUMPI PUSH1 0x0 DUP1 REVERT JUMPDEST PUSH1 0x0 DUP2 SLT ISZERO PUSH2 0xE77 JUMPI PUSH1 0x0 DUP1 REVERT JUMPDEST PUSH1 0xA0 DUP7 ADD MLOAD PUSH1 0x5 BYTE PUSH1 0x0 PUSH2 0xE9D DUP5 PUSH2 0x524 PUSH1 0x64 PUSH2 0xE97 PUSH2 0xC0B DUP5 DUP10 PUSH2 0x1D04 JUMP JUMPDEST SWAP1 PUSH2 0xEE5 JUMP JUMPDEST SWAP1 POP DUP2 DUP2 SGT ISZERO PUSH2 0xEBF JUMPI PUSH1 0x40 MLOAD PUSH3 0x461BCD PUSH1 0xE5 SHL DUP2 MSTORE PUSH1 0x4 ADD PUSH2 0x9D3 SWAP1 PUSH2 0x53FA JUMP JUMPDEST PUSH2 0xEDA DUP4 PUSH2 0x524 DUP11 PUSH1 0x40 ADD MLOAD DUP11 PUSH2 0xEE5 SWAP1 SWAP2 SWAP1 PUSH4 0xFFFFFFFF AND JUMP JUMPDEST SWAP5 POP POP POP POP POP PUSH2 0x5B8 JUMP JUMPDEST DUP2 DUP2 MUL PUSH1 0x0 NOT DUP4 EQ ISZERO PUSH2 0xF15 JUMPI DUP2 ISZERO DUP1 PUSH2 0xF07 JUMPI POP DUP3 DUP3 DUP3 DUP2 PUSH2 0xF04 JUMPI INVALID JUMPDEST SDIV EQ JUMPDEST PUSH2 0xF10 JUMPI PUSH1 0x0 DUP1 REVERT JUMPDEST PUSH2 0x4EF JUMP JUMPDEST DUP3 ISZERO DUP1 PUSH2 0xF2A JUMPI POP DUP2 DUP4 DUP3 DUP2 PUSH2 0xF27 JUMPI INVALID JUMPDEST SDIV EQ JUMPDEST PUSH2 0x4EF JUMPI PUSH1 0x0 DUP1 REVERT JUMPDEST PUSH1 0x0 DUP2 PUSH1 0x0 NOT EQ DUP1 ISZERO PUSH2 0xF49 JUMPI POP PUSH1 0x1 PUSH1 0xFF SHL DUP4 EQ JUMPDEST ISZERO PUSH2 0xF53 JUMPI PUSH1 0x0 DUP1 REVERT JUMPDEST DUP2 DUP4 DUP2 PUSH2 0xF5C JUMPI INVALID JUMPDEST SDIV SWAP4 SWAP3 POP POP POP JUMP JUMPDEST PUSH1 0x0 DUP1 DUP3 SLT ISZERO PUSH2 0xF7E JUMPI PUSH2 0xF77 DUP3 PUSH2 0xBD5 JUMP JUMPDEST SWAP1 POP PUSH2 0x370 JUMP JUMPDEST POP DUP1 PUSH2 0x370 JUMP JUMPDEST PUSH2 0xF8D PUSH2 0x4E08 JUMP JUMPDEST PUSH1 0x0 PUSH2 0xF99 DUP4 TIMESTAMP PUSH2 0xA7A JUMP JUMPDEST POP SWAP1 POP PUSH2 0x5B8 DUP4 DUP3 PUSH2 0x1D1A JUMP JUMPDEST PUSH1 0x0 PUSH2 0xFB0 PUSH2 0x4D91 JUMP JUMPDEST PUSH2 0xFBE DUP4 DUP3 DUP8 PUSH1 0x0 DUP9 PUSH2 0x1608 JUMP JUMPDEST DUP4 DUP2 PUSH1 0x20 ADD MLOAD GT PUSH2 0xFE1 JUMPI PUSH1 0x40 MLOAD PUSH3 0x461BCD PUSH1 0xE5 SHL DUP2 MSTORE PUSH1 0x4 ADD PUSH2 0x9D3 SWAP1 PUSH2 0x5376 JUMP JUMPDEST PUSH1 0x0 DUP5 DUP3 PUSH1 0x20 ADD MLOAD SUB SWAP1 POP PUSH1 0x0 PUSH2 0xFFC DUP6 PUSH1 0x0 ADD MLOAD DUP9 PUSH2 0x1D5D JUMP JUMPDEST SWAP1 POP PUSH2 0x102C DUP2 DUP5 PUSH1 0x40 ADD MLOAD DUP11 PUSH1 0xA SIGNEXTEND PUSH2 0x1026 DUP8 PUSH1 0x60 ADD MLOAD DUP11 PUSH1 0x40 ADD MLOAD PUSH2 0xB8F SWAP1 SWAP2 SWAP1 PUSH4 0xFFFFFFFF AND JUMP JUMPDEST DUP7 PUSH2 0x1D77 JUMP JUMPDEST SWAP9 SWAP8 POP POP POP POP POP POP POP POP JUMP JUMPDEST PUSH2 0x1040 PUSH2 0x4E34 JUMP JUMPDEST PUSH1 0x0 PUSH2 0x104A PUSH2 0x1EB3 JUMP JUMPDEST PUSH1 0x1 PUSH1 0x1 PUSH1 0xA0 SHL SUB DUP5 AND PUSH1 0x0 SWAP1 DUP2 MSTORE PUSH1 0x20 SWAP2 DUP3 MSTORE PUSH1 0x40 SWAP1 DUP2 SWAP1 KECCAK256 DUP2 MLOAD PUSH1 0xC0 DUP2 ADD DUP4 MSTORE SWAP1 SLOAD PUSH5 0xFFFFFFFFFF DUP2 AND DUP3 MSTORE PUSH1 0x1 PUSH1 0x1 PUSH1 0xF8 SHL SUB NOT PUSH1 0x1 PUSH1 0x28 SHL DUP3 DIV PUSH1 0xF8 SHL AND SWAP4 DUP3 ADD SWAP4 SWAP1 SWAP4 MSTORE PUSH1 0xFF PUSH1 0x1 PUSH1 0x30 SHL DUP5 DIV DUP2 AND SWAP3 DUP3 ADD SWAP3 SWAP1 SWAP3 MSTORE PUSH2 0xFFFF PUSH1 0x1 PUSH1 0x38 SHL DUP5 DIV AND PUSH1 0x60 DUP3 ADD MSTORE PUSH1 0x1 PUSH1 0x1 PUSH1 0x70 SHL SUB NOT PUSH10 0x1000000000000000000 DUP5 DIV PUSH1 0x70 SHL AND PUSH1 0x80 DUP3 ADD MSTORE PUSH1 0x1 PUSH1 0xD8 SHL SWAP1 SWAP3 DIV AND ISZERO ISZERO PUSH1 0xA0 DUP3 ADD MSTORE SWAP2 POP POP SWAP2 SWAP1 POP JUMP JUMPDEST PUSH1 0x60 ADD MLOAD PUSH2 0xFFFF AND ISZERO ISZERO SWAP1 JUMP JUMPDEST PUSH2 0x1103 DUP3 TIMESTAMP PUSH2 0xA7A JUMP JUMPDEST POP PUSH2 0x120 DUP6 ADD MSTORE PUSH2 0x1116 DUP5 DUP5 DUP5 DUP5 PUSH2 0x1EC0 JUMP JUMPDEST POP POP POP POP JUMP JUMPDEST PUSH1 0x0 DUP1 PUSH2 0x1127 PUSH2 0x1F68 JUMP JUMPDEST PUSH1 0x0 SWAP4 DUP5 MSTORE PUSH1 0x20 MSTORE POP POP PUSH1 0x40 SWAP1 KECCAK256 SLOAD PUSH1 0x1 PUSH1 0x1 PUSH1 0xA0 SHL SUB AND SWAP1 JUMP JUMPDEST PUSH1 0x0 DUP1 PUSH1 0x0 PUSH2 0x1150 DUP6 PUSH2 0x1F75 JUMP JUMPDEST SWAP2 SWAP5 POP SWAP3 POP SWAP1 POP DUP1 DUP5 GT DUP1 ISZERO PUSH2 0x1166 JUMPI POP PUSH1 0x0 DUP2 GT JUMPDEST DUP1 ISZERO PUSH2 0x1172 JUMPI POP PUSH1 0x0 DUP4 GT JUMPDEST ISZERO PUSH2 0x11D1 JUMPI PUSH1 0x0 PUSH2 0x1182 DUP7 PUSH2 0x1FD6 JUMP JUMPDEST POP POP POP SWAP2 POP POP PUSH1 0x0 PUSH2 0x11AD PUSH2 0x11A4 PUSH4 0x5F5E100 DUP5 PUSH2 0x18E2 SWAP1 SWAP2 SWAP1 PUSH4 0xFFFFFFFF AND JUMP JUMPDEST DUP5 DUP9 SUB DUP8 PUSH2 0x203F JUMP JUMPDEST SWAP1 POP PUSH2 0x11B9 DUP5 DUP3 PUSH2 0x1305 JUMP JUMPDEST SWAP4 POP PUSH1 0x1 PUSH1 0x1 PUSH1 0x80 SHL SUB DUP5 LT PUSH2 0x11CE JUMPI PUSH1 0x0 DUP1 REVERT JUMPDEST POP POP JUMPDEST SWAP3 POP SWAP3 POP SWAP3 JUMP JUMPDEST PUSH1 0xE0 DUP5 ADD MLOAD PUSH1 0x0 SWAP1 ISZERO PUSH2 0x1299 JUMPI PUSH20 0x0 PUSH4 0xE0C01A72 DUP6 PUSH2 0x120D DUP9 PUSH1 0x40 ADD MLOAD PUSH2 0xC2F JUMP JUMPDEST DUP9 PUSH1 0xE0 ADD MLOAD DUP10 PUSH2 0x100 ADD MLOAD PUSH1 0x40 MLOAD DUP6 PUSH4 0xFFFFFFFF AND PUSH1 0xE0 SHL DUP2 MSTORE PUSH1 0x4 ADD PUSH2 0x1237 SWAP5 SWAP4 SWAP3 SWAP2 SWAP1 PUSH2 0x5235 JUMP JUMPDEST PUSH1 0x20 PUSH1 0x40 MLOAD DUP1 DUP4 SUB DUP2 DUP7 DUP1 EXTCODESIZE ISZERO DUP1 ISZERO PUSH2 0x124F JUMPI PUSH1 0x0 DUP1 REVERT JUMPDEST POP GAS DELEGATECALL ISZERO DUP1 ISZERO PUSH2 0x1263 JUMPI RETURNDATASIZE PUSH1 0x0 DUP1 RETURNDATACOPY RETURNDATASIZE PUSH1 0x0 REVERT JUMPDEST POP POP POP POP PUSH1 0x40 MLOAD RETURNDATASIZE PUSH1 0x1F NOT PUSH1 0x1F DUP3 ADD AND DUP3 ADD DUP1 PUSH1 0x40 MSTORE POP DUP2 ADD SWAP1 PUSH2 0x1287 SWAP2 SWAP1 PUSH2 0x51AC JUMP JUMPDEST PUSH1 0x0 PUSH1 0xE0 DUP8 ADD DUP2 SWAP1 MSTORE PUSH2 0x100 DUP8 ADD MSTORE SWAP1 POP JUMPDEST PUSH2 0x12DB PUSH2 0x12D4 DUP7 PUSH2 0x100 ADD MLOAD PUSH2 0x12CE PUSH8 0xDE0B6B3A7640000 PUSH2 0x12C8 DUP9 PUSH2 0x12C2 DUP13 PUSH1 0x40 ADD MLOAD PUSH2 0xC2F JUMP JUMPDEST SWAP1 PUSH2 0x18E2 JUMP JUMPDEST SWAP1 PUSH2 0x2061 JUMP JUMPDEST SWAP1 PUSH2 0x2080 JUMP JUMPDEST DUP3 SWAP1 PUSH2 0x1305 JUMP JUMPDEST SWAP1 POP PUSH2 0x12F3 PUSH8 0xDE0B6B3A7640000 PUSH2 0x12C8 DUP5 DUP7 PUSH2 0x18E2 JUMP JUMPDEST DUP6 PUSH2 0x100 ADD DUP2 DUP2 MSTORE POP POP SWAP5 SWAP4 POP POP POP POP JUMP JUMPDEST PUSH1 0x0 DUP3 DUP3 ADD DUP4 DUP2 LT ISZERO PUSH2 0x5B8 JUMPI PUSH1 0x0 DUP1 REVERT JUMPDEST PUSH1 0x0 PUSH2 0x1321 PUSH2 0x4E08 JUMP JUMPDEST PUSH1 0x0 PUSH2 0x132C DUP6 PUSH2 0xBBB JUMP JUMPDEST SWAP1 POP PUSH2 0x1337 DUP7 PUSH2 0xF85 JUMP JUMPDEST SWAP2 POP DUP4 ISZERO PUSH2 0x1362 JUMPI PUSH1 0x0 PUSH2 0x134E DUP8 PUSH2 0xFFFF AND PUSH2 0xD68 JUMP JUMPDEST SWAP1 POP PUSH2 0x135A DUP2 DUP4 PUSH2 0xD7B JUMP JUMPDEST SWAP4 POP POP PUSH2 0x1374 JUMP JUMPDEST PUSH1 0x40 DUP3 ADD MLOAD PUSH2 0x1371 SWAP1 DUP3 PUSH2 0xB8F JUMP JUMPDEST SWAP3 POP JUMPDEST POP SWAP4 POP SWAP4 SWAP2 POP POP JUMP JUMPDEST PUSH1 0x0 PUSH11 0x7FFFFFFFFFFFFFFFFFFFFF NOT DUP3 SLT DUP1 ISZERO SWAP1 PUSH2 0x13A6 JUMPI POP PUSH11 0x7FFFFFFFFFFFFFFFFFFFFF DUP3 SGT ISZERO JUMPDEST PUSH2 0xBD1 JUMPI PUSH1 0x0 DUP1 REVERT JUMPDEST PUSH2 0x13B7 PUSH2 0x4D24 JUMP JUMPDEST PUSH2 0x4EF DUP3 TIMESTAMP PUSH2 0x2095 JUMP JUMPDEST PUSH2 0x13C9 PUSH2 0x4D45 JUMP JUMPDEST PUSH1 0x0 PUSH2 0x13D3 PUSH2 0x2156 JUMP JUMPDEST PUSH2 0xFFFF SWAP4 DUP5 AND PUSH1 0x0 SWAP1 DUP2 MSTORE PUSH1 0x20 SWAP2 DUP3 MSTORE PUSH1 0x40 SWAP1 DUP2 SWAP1 KECCAK256 DUP1 SLOAD PUSH5 0xFFFFFFFFFF DUP2 AND DUP7 MSTORE PUSH1 0x1 PUSH1 0x28 SHL DUP2 DIV PUSH1 0x1 PUSH1 0x1 PUSH1 0x58 SHL SUB SWAP1 DUP2 AND SWAP5 DUP8 ADD SWAP5 SWAP1 SWAP5 MSTORE PUSH1 0x1 DUP3 ADD SLOAD DUP5 AND SWAP3 DUP7 ADD SWAP3 SWAP1 SWAP3 MSTORE PUSH1 0x1 PUSH1 0xD8 SHL DUP3 DIV PUSH4 0xFFFFFFFF AND PUSH1 0x60 DUP7 ADD MSTORE PUSH1 0x1 PUSH1 0x80 SHL SWAP1 SWAP2 DIV SWAP1 SWAP2 AND PUSH1 0x80 DUP5 ADD MSTORE PUSH1 0x2 ADD SLOAD PUSH1 0x1 PUSH1 0x1 PUSH1 0x50 SHL SUB DUP1 DUP3 AND PUSH1 0xA0 DUP6 ADD MSTORE PUSH1 0x1 PUSH1 0x50 SHL DUP3 DIV DUP2 AND PUSH1 0xC0 DUP6 ADD MSTORE PUSH1 0x1 PUSH1 0xA0 SHL DUP3 DIV AND PUSH1 0xE0 DUP5 ADD MSTORE PUSH1 0x1 PUSH1 0xF0 SHL SWAP1 DIV PUSH1 0xFF AND PUSH2 0x12C MUL SWAP1 SWAP3 AND PUSH2 0x100 DUP3 ADD MSTORE SWAP2 SWAP1 POP JUMP JUMPDEST PUSH1 0x0 DUP4 PUSH2 0x1498 JUMPI POP PUSH1 0x0 PUSH2 0x357 JUMP JUMPDEST PUSH1 0x0 DUP1 DUP6 SGT PUSH2 0x14B1 JUMPI PUSH2 0x14AC DUP7 DUP6 DUP6 PUSH2 0x2163 JUMP JUMPDEST PUSH2 0x14BC JUMP JUMPDEST PUSH2 0x14BC DUP7 DUP6 DUP6 PUSH2 0x219F JUMP JUMPDEST SWAP1 POP PUSH4 0x3B9ACA00 DUP2 SGT ISZERO PUSH2 0x14CF JUMPI PUSH1 0x0 DUP1 REVERT JUMPDEST PUSH2 0x353 DUP6 DUP3 PUSH2 0x21E0 JUMP JUMPDEST PUSH1 0x0 DUP1 PUSH1 0x0 PUSH2 0x14ED DUP7 PUSH1 0x20 ADD MLOAD DUP7 DUP7 PUSH2 0xC9C JUMP JUMPDEST SWAP2 POP SWAP2 POP PUSH1 0x0 PUSH2 0x14FC DUP8 PUSH2 0x21F9 JUMP JUMPDEST SWAP1 POP DUP2 PUSH2 0x151C JUMPI DUP7 MLOAD PUSH2 0x1515 SWAP1 PUSH2 0xFFFF AND DUP8 DUP4 DUP9 PUSH2 0x220D JUMP JUMPDEST SWAP4 POP PUSH2 0x15B8 JUMP JUMPDEST PUSH1 0x0 PUSH2 0x1527 DUP7 PUSH2 0x1A6F JUMP JUMPDEST SWAP1 POP PUSH1 0x0 PUSH2 0x153E PUSH2 0x1537 DUP7 PUSH2 0x1A90 JUMP JUMPDEST DUP4 SWAP1 PUSH2 0x1305 JUMP JUMPDEST SWAP1 POP PUSH1 0x0 PUSH2 0x1556 DUP11 PUSH1 0x0 ADD MLOAD PUSH2 0xFFFF AND DUP4 DUP7 DUP12 PUSH2 0x220D JUMP JUMPDEST SWAP1 POP PUSH1 0x0 DUP1 DUP8 PUSH1 0x1 EQ ISZERO PUSH2 0x1574 JUMPI POP POP PUSH1 0x40 DUP1 DUP12 ADD MLOAD ADD MLOAD DUP9 PUSH2 0x15A3 JUMP JUMPDEST PUSH2 0x158A PUSH2 0x1583 PUSH1 0x1 DUP11 SUB PUSH2 0x1A90 JUMP JUMPDEST DUP7 SWAP1 PUSH2 0x1305 JUMP JUMPDEST SWAP1 POP PUSH2 0x15A0 DUP13 PUSH1 0x0 ADD MLOAD PUSH2 0xFFFF AND DUP3 DUP9 DUP14 PUSH2 0x220D JUMP JUMPDEST SWAP2 POP JUMPDEST PUSH2 0x15B0 DUP2 DUP6 DUP5 DUP7 DUP16 PUSH2 0x22AC JUMP JUMPDEST SWAP9 POP POP POP POP POP POP JUMPDEST POP POP POP SWAP4 SWAP3 POP POP POP JUMP JUMPDEST PUSH1 0x0 DUP5 PUSH2 0x15D1 JUMPI POP PUSH1 0x0 PUSH2 0x357 JUMP JUMPDEST PUSH1 0x0 PUSH2 0x15DD DUP6 DUP6 PUSH2 0x2080 JUMP JUMPDEST SWAP1 POP PUSH1 0x0 PUSH2 0x15EB DUP3 DUP6 PUSH2 0x230A JUMP JUMPDEST SWAP1 POP PUSH4 0x3B9ACA00 DUP2 SGT ISZERO PUSH2 0x15FE JUMPI PUSH1 0x0 DUP1 REVERT JUMPDEST PUSH2 0x8CE DUP8 DUP3 PUSH2 0x21E0 JUMP JUMPDEST DUP3 PUSH1 0x1 GT ISZERO DUP1 ISZERO PUSH2 0x161D JUMPI POP DUP5 PUSH1 0x20 ADD MLOAD DUP4 GT ISZERO JUMPDEST PUSH2 0x1639 JUMPI PUSH1 0x40 MLOAD PUSH3 0x461BCD PUSH1 0xE5 SHL DUP2 MSTORE PUSH1 0x4 ADD PUSH2 0x9D3 SWAP1 PUSH2 0x531E JUMP JUMPDEST PUSH1 0x0 PUSH2 0x1656 PUSH2 0x1647 DUP6 PUSH2 0x1A90 JUMP JUMPDEST PUSH2 0x1650 DUP5 PUSH2 0x1A6F JUMP JUMPDEST SWAP1 PUSH2 0x1305 JUMP JUMPDEST SWAP1 POP PUSH2 0x167B DUP7 PUSH1 0x0 ADD MLOAD PUSH2 0xFFFF AND DUP3 DUP5 DUP7 PUSH2 0x1670 DUP12 PUSH2 0x21F9 JUMP JUMPDEST DUP11 SWAP5 SWAP4 SWAP3 SWAP2 SWAP1 PUSH2 0x2377 JUMP JUMPDEST POP POP POP POP POP POP JUMP JUMPDEST PUSH1 0x0 DUP1 PUSH1 0x0 DUP1 DUP5 GT PUSH2 0x1694 JUMPI PUSH1 0x0 DUP1 REVERT JUMPDEST DUP6 DUP9 PUSH1 0x40 ADD MLOAD SGT PUSH2 0x16AD JUMPI POP PUSH1 0x0 SWAP2 POP DUP2 SWAP1 POP DUP1 PUSH2 0x17B8 JUMP JUMPDEST PUSH1 0x0 PUSH2 0x16BD DUP9 PUSH1 0x0 ADD MLOAD DUP7 PUSH2 0x1D5D JUMP JUMPDEST SWAP1 POP PUSH1 0x0 PUSH2 0x16DC DUP11 PUSH1 0x60 ADD MLOAD DUP11 PUSH1 0x40 ADD MLOAD PUSH2 0xB8F SWAP1 SWAP2 SWAP1 PUSH4 0xFFFFFFFF AND JUMP JUMPDEST SWAP1 POP PUSH1 0x0 DUP1 PUSH1 0x0 PUSH2 0x16F1 DUP6 DUP15 DUP15 DUP8 DUP16 DUP16 PUSH2 0x23A1 JUMP JUMPDEST SWAP9 POP SWAP2 SWAP5 POP SWAP3 POP SWAP1 POP DUP3 PUSH2 0x1714 JUMPI PUSH1 0x0 DUP1 PUSH1 0x0 SWAP8 POP SWAP8 POP SWAP8 POP POP POP POP POP POP PUSH2 0x17B8 JUMP JUMPDEST PUSH1 0x40 DUP14 ADD MLOAD PUSH2 0x1723 SWAP1 DUP13 PUSH2 0x247B JUMP JUMPDEST PUSH1 0x40 DUP15 ADD MSTORE PUSH2 0x1732 DUP5 DUP4 PUSH2 0x2497 JUMP JUMPDEST SWAP4 POP PUSH1 0x0 PUSH2 0x1746 PUSH1 0x0 DUP16 PUSH1 0x40 ADD MLOAD DUP8 PUSH2 0x24AD JUMP JUMPDEST SWAP1 POP PUSH4 0x3B9ACA00 DUP2 GT ISZERO PUSH2 0x176A JUMPI PUSH1 0x0 DUP1 PUSH1 0x0 SWAP9 POP SWAP9 POP SWAP9 POP POP POP POP POP POP POP PUSH2 0x17B8 JUMP JUMPDEST PUSH1 0x0 PUSH2 0x1776 DUP8 DUP4 PUSH2 0x24EA JUMP JUMPDEST SWAP1 POP DUP1 PUSH2 0x1794 JUMPI PUSH1 0x0 DUP1 PUSH1 0x0 SWAP10 POP SWAP10 POP SWAP10 POP POP POP POP POP POP POP POP PUSH2 0x17B8 JUMP JUMPDEST PUSH1 0xA0 DUP16 ADD MSTORE POP PUSH1 0x40 DUP13 ADD MLOAD PUSH2 0x17AD SWAP1 DUP15 SWAP1 DUP6 DUP6 DUP6 PUSH2 0x259D JUMP JUMPDEST SWAP1 SWAP9 POP SWAP7 POP POP POP POP POP POP JUMPDEST SWAP6 POP SWAP6 POP SWAP6 SWAP3 POP POP POP JUMP JUMPDEST PUSH1 0x0 DUP1 PUSH2 0x17CF DUP4 PUSH2 0x25F2 JUMP JUMPDEST PUSH1 0x1 PUSH1 0x1 PUSH1 0xA0 SHL SUB AND PUSH4 0xA77C05B8 PUSH1 0x40 MLOAD DUP2 PUSH4 0xFFFFFFFF AND PUSH1 0xE0 SHL DUP2 MSTORE PUSH1 0x4 ADD PUSH1 0x40 DUP1 MLOAD DUP1 DUP4 SUB DUP2 DUP7 DUP1 EXTCODESIZE ISZERO DUP1 ISZERO PUSH2 0x1806 JUMPI PUSH1 0x0 DUP1 REVERT JUMPDEST POP GAS STATICCALL ISZERO DUP1 ISZERO PUSH2 0x181A JUMPI RETURNDATASIZE PUSH1 0x0 DUP1 RETURNDATACOPY RETURNDATASIZE PUSH1 0x0 REVERT JUMPDEST POP POP POP POP PUSH1 0x40 MLOAD RETURNDATASIZE PUSH1 0x1F NOT PUSH1 0x1F DUP3 ADD AND DUP3 ADD DUP1 PUSH1 0x40 MSTORE POP DUP2 ADD SWAP1 PUSH2 0x357 SWAP2 SWAP1 PUSH2 0x51E5 JUMP JUMPDEST PUSH2 0x1846 PUSH2 0x4D45 JUMP JUMPDEST PUSH1 0x0 DUP1 PUSH1 0x0 PUSH2 0x1856 DUP9 DUP7 DUP10 PUSH2 0x2622 JUMP JUMPDEST PUSH1 0xC0 DUP12 ADD SWAP3 SWAP1 SWAP3 MSTORE PUSH1 0xE0 DUP11 ADD SWAP3 SWAP1 SWAP3 MSTORE PUSH1 0x20 DUP10 ADD MLOAD SWAP2 SWAP4 POP SWAP2 POP PUSH2 0x187A SWAP1 DUP4 PUSH2 0x1305 JUMP JUMPDEST PUSH1 0x20 DUP9 ADD MSTORE PUSH1 0x80 DUP8 ADD MLOAD PUSH1 0x0 SWAP1 ISZERO PUSH2 0x18A8 JUMPI PUSH1 0x80 DUP9 ADD MLOAD PUSH2 0x18A5 SWAP1 PUSH2 0x189F DUP10 DUP3 PUSH2 0x2080 JUMP JUMPDEST SWAP1 PUSH2 0x272D JUMP JUMPDEST SWAP1 POP JUMPDEST PUSH2 0x18C8 PUSH2 0x18BD PUSH8 0xDE0B6B3A7640000 DUP4 PUSH2 0x1305 JUMP JUMPDEST PUSH1 0xA0 DUP11 ADD MLOAD SWAP1 PUSH2 0x274A JUMP JUMPDEST PUSH1 0xA0 DUP10 ADD MSTORE POP POP PUSH1 0x80 DUP7 ADD SWAP5 SWAP1 SWAP5 MSTORE POP POP DUP3 MSTORE SWAP1 SWAP3 SWAP1 SWAP2 POP JUMP JUMPDEST PUSH1 0x0 DUP3 PUSH2 0x18F1 JUMPI POP PUSH1 0x0 PUSH2 0x4EF JUMP JUMPDEST DUP3 DUP3 MUL DUP3 DUP5 DUP3 DUP2 PUSH2 0x18FE JUMPI INVALID JUMPDEST DIV EQ PUSH2 0x5B8 JUMPI PUSH1 0x0 DUP1 REVERT JUMPDEST PUSH2 0x1911 PUSH2 0x4D24 JUMP JUMPDEST PUSH1 0x0 PUSH2 0x191D DUP6 DUP6 PUSH2 0x2767 JUMP JUMPDEST SWAP1 SWAP3 POP SWAP1 POP DUP1 PUSH2 0x1935 JUMPI PUSH2 0x1931 DUP6 DUP5 PUSH2 0xA7A JUMP JUMPDEST POP SWAP2 POP JUMPDEST POP SWAP4 SWAP3 POP POP POP JUMP JUMPDEST PUSH1 0x0 DUP1 PUSH2 0x194A DUP5 DUP5 PUSH2 0xDC4 JUMP JUMPDEST SWAP2 POP PUSH2 0x1956 DUP5 DUP4 PUSH2 0x27FA JUMP JUMPDEST SWAP1 POP PUSH1 0x0 DUP3 SLT ISZERO PUSH2 0xD23 JUMPI PUSH2 0x199B PUSH1 0x1 PUSH2 0x1995 DUP8 PUSH1 0x0 ADD MLOAD PUSH2 0x524 DUP10 PUSH1 0x20 ADD MLOAD PUSH2 0xE97 DUP11 PUSH1 0x20 ADD MLOAD PUSH2 0x524 DUP13 PUSH1 0x0 ADD MLOAD DUP12 PUSH2 0xEE5 SWAP1 SWAP2 SWAP1 PUSH4 0xFFFFFFFF AND JUMP JUMPDEST SWAP1 PUSH2 0x1D04 JUMP JUMPDEST SWAP2 POP SWAP4 POP SWAP4 SWAP2 POP POP JUMP JUMPDEST PUSH1 0x0 DUP1 PUSH2 0x19B1 DUP5 PUSH2 0x1C6A JUMP JUMPDEST SWAP1 POP DUP3 DUP2 GT PUSH2 0x19C1 JUMPI PUSH1 0x1 DUP2 SUB SWAP3 POP JUMPDEST POP PUSH1 0x0 PUSH2 0x19D0 DUP5 DUP5 PUSH1 0x1 PUSH2 0x2833 JUMP JUMPDEST POP SWAP1 POP PUSH1 0x0 PUSH2 0x19DF DUP6 DUP6 PUSH2 0x2996 JUMP JUMPDEST PUSH1 0x60 DUP7 ADD MLOAD SWAP1 SWAP2 POP PUSH2 0x470 SWAP1 PUSH2 0x19F5 DUP5 DUP5 PUSH2 0x2497 JUMP JUMPDEST SWAP1 PUSH2 0x2497 JUMP JUMPDEST PUSH1 0x0 PUSH4 0x5F5E100 DUP4 PUSH1 0x40 ADD MLOAD EQ ISZERO PUSH2 0x1A14 JUMPI POP DUP1 PUSH2 0x4EF JUMP JUMPDEST PUSH2 0x5B8 PUSH4 0x5F5E100 PUSH2 0x524 DUP6 PUSH1 0x40 ADD MLOAD DUP6 PUSH2 0xEE5 SWAP1 SWAP2 SWAP1 PUSH4 0xFFFFFFFF AND JUMP JUMPDEST PUSH1 0x0 PUSH4 0x5F5E100 DUP4 PUSH1 0x40 ADD MLOAD SLT ISZERO PUSH2 0x1A5B JUMPI PUSH2 0x1A54 PUSH1 0x1 PUSH2 0x19F5 DUP6 DUP6 PUSH2 0x19FB JUMP JUMPDEST SWAP1 POP PUSH2 0x4EF JUMP JUMPDEST PUSH2 0x5B8 DUP4 PUSH2 0x1A6A DUP5 PUSH1 0x1 PUSH2 0x2497 JUMP JUMPDEST PUSH2 0x19FB JUMP JUMPDEST PUSH1 0x0 PUSH3 0x76A700 DUP3 LT ISZERO PUSH2 0x1A81 JUMPI PUSH1 0x0 DUP1 REVERT JUMPDEST PUSH3 0x76A700 DUP3 JUMPDEST MOD SWAP1 SWAP2 SUB SWAP2 SWAP1 POP JUMP JUMPDEST PUSH1 0x0 DUP2 PUSH1 0x1 EQ ISZERO PUSH2 0x1AA5 JUMPI POP PUSH3 0x76A700 PUSH2 0x370 JUMP JUMPDEST DUP2 PUSH1 0x2 EQ ISZERO PUSH2 0x1AB8 JUMPI POP PUSH3 0xED4E00 PUSH2 0x370 JUMP JUMPDEST DUP2 PUSH1 0x3 EQ ISZERO PUSH2 0x1ACC JUMPI POP PUSH4 0x1DA9C00 PUSH2 0x370 JUMP JUMPDEST DUP2 PUSH1 0x4 EQ ISZERO PUSH2 0x1AE0 JUMPI POP PUSH4 0x3B53800 PUSH2 0x370 JUMP JUMPDEST DUP2 PUSH1 0x5 EQ ISZERO PUSH2 0x1AF4 JUMPI POP PUSH4 0x9450C00 PUSH2 0x370 JUMP JUMPDEST DUP2 PUSH1 0x6 EQ ISZERO PUSH2 0x1B08 JUMPI POP PUSH4 0x128A1800 PUSH2 0x370 JUMP JUMPDEST DUP2 PUSH1 0x7 EQ ISZERO PUSH2 0x1B1C JUMPI POP PUSH4 0x25143000 PUSH2 0x370 JUMP JUMPDEST PUSH1 0x40 MLOAD PUSH3 0x461BCD PUSH1 0xE5 SHL DUP2 MSTORE PUSH1 0x4 ADD PUSH2 0x9D3 SWAP1 PUSH2 0x52F7 JUMP JUMPDEST PUSH2 0x1B3C PUSH2 0x4DD9 JUMP JUMPDEST PUSH1 0x0 PUSH2 0x1B46 PUSH2 0x2A1B JUMP JUMPDEST PUSH1 0x0 DUP6 DUP2 MSTORE PUSH1 0x20 DUP3 DUP2 MSTORE PUSH1 0x40 DUP1 DUP4 KECCAK256 DUP8 ISZERO ISZERO DUP5 MSTORE DUP3 MSTORE SWAP2 DUP3 SWAP1 KECCAK256 DUP3 MLOAD PUSH1 0xA0 DUP2 ADD DUP5 MSTORE DUP2 SLOAD PUSH1 0x1 PUSH1 0x1 PUSH1 0xA0 SHL SUB DUP2 AND DUP3 MSTORE PUSH1 0xFF PUSH1 0x1 PUSH1 0xA0 SHL DUP3 DIV DUP2 AND ISZERO ISZERO SWAP5 DUP4 ADD SWAP5 SWAP1 SWAP5 MSTORE PUSH1 0x1 PUSH1 0xB0 SHL DUP2 DIV DUP5 AND PUSH1 0xA EXP SWAP5 DUP3 ADD SWAP5 SWAP1 SWAP5 MSTORE SWAP4 SWAP5 POP SWAP3 SWAP2 PUSH1 0x60 DUP4 ADD SWAP2 PUSH1 0x1 PUSH1 0xA8 SHL SWAP1 SWAP2 DIV AND PUSH1 0x5 DUP2 GT ISZERO PUSH2 0x1BBB JUMPI INVALID JUMPDEST DUP2 MSTORE PUSH1 0x0 PUSH1 0x20 SWAP1 SWAP2 ADD MSTORE SWAP6 SWAP5 POP POP POP POP POP JUMP JUMPDEST PUSH2 0x1BDB DUP2 PUSH2 0xFFFF AND PUSH2 0x111C JUMP JUMPDEST PUSH1 0x1 PUSH1 0x1 PUSH1 0xA0 SHL SUB AND PUSH1 0xC0 DUP4 ADD DUP2 SWAP1 MSTORE PUSH1 0x0 SWAP1 DUP2 SWAP1 DUP2 SWAP1 PUSH2 0x1BFB SWAP1 PUSH2 0x1FD6 JUMP JUMPDEST SWAP5 POP SWAP5 POP SWAP5 POP POP POP PUSH1 0x0 PUSH2 0x1C12 DUP7 PUSH1 0xC0 ADD MLOAD PUSH2 0x1F75 JUMP JUMPDEST POP POP PUSH1 0x80 DUP8 ADD DUP6 SWAP1 MSTORE PUSH1 0x40 DUP8 ADD DUP2 SWAP1 MSTORE PUSH1 0x1 PUSH1 0x1 PUSH1 0xD0 SHL SUB NOT DUP4 AND PUSH1 0xA0 DUP9 ADD MSTORE PUSH1 0xC0 DUP8 ADD MLOAD SWAP1 SWAP2 POP PUSH2 0x1C46 SWAP1 DUP5 PUSH1 0x0 PUSH2 0x2A28 JUMP JUMPDEST PUSH1 0x20 DUP8 ADD MSTORE PUSH1 0xC0 DUP7 ADD MLOAD PUSH2 0x1C5A SWAP1 DUP7 PUSH2 0x2ABB JUMP JUMPDEST PUSH1 0x60 SWAP1 SWAP7 ADD SWAP6 SWAP1 SWAP6 MSTORE POP POP POP POP POP JUMP JUMPDEST PUSH1 0x0 DUP2 PUSH1 0x80 ADD MLOAD PUSH1 0x0 EQ ISZERO PUSH2 0x1C81 JUMPI POP PUSH1 0x0 PUSH2 0x370 JUMP JUMPDEST PUSH1 0x80 DUP3 ADD MLOAD PUSH3 0x76A700 SWAP1 PUSH2 0x1C94 SWAP1 PUSH2 0x1A6F JUMP JUMPDEST ADD SWAP3 SWAP2 POP POP JUMP JUMPDEST PUSH1 0x0 DUP1 PUSH1 0x0 PUSH2 0x1CAC DUP6 DUP6 PUSH1 0x1 PUSH2 0x2833 JUMP JUMPDEST POP SWAP1 POP PUSH1 0x0 PUSH2 0x1CBD DUP7 DUP7 PUSH1 0x0 PUSH2 0x2833 JUMP JUMPDEST POP SWAP1 POP PUSH1 0x0 PUSH2 0x1CCC DUP8 DUP8 PUSH2 0x2996 JUMP JUMPDEST PUSH1 0x60 DUP9 ADD MLOAD SWAP1 SWAP2 POP PUSH2 0x1CE2 SWAP1 PUSH2 0x19F5 DUP6 DUP5 PUSH2 0x2497 JUMP JUMPDEST PUSH1 0x60 DUP9 ADD MLOAD SWAP1 SWAP6 POP PUSH2 0x1CF8 SWAP1 PUSH2 0x19F5 DUP5 DUP5 PUSH2 0x2497 JUMP JUMPDEST SWAP4 POP POP POP POP SWAP3 POP SWAP3 SWAP1 POP JUMP JUMPDEST DUP1 DUP3 SUB DUP3 DUP2 SGT ISZERO PUSH1 0x0 DUP4 SLT ISZERO EQ PUSH2 0x4EF JUMPI PUSH1 0x0 DUP1 REVERT JUMPDEST PUSH2 0x1D22 PUSH2 0x4E08 JUMP JUMPDEST PUSH1 0x0 PUSH2 0x1D31 DUP5 PUSH2 0xFFFF AND PUSH2 0x2B14 JUMP JUMPDEST PUSH1 0x40 DUP1 MLOAD PUSH1 0x80 DUP2 ADD DUP3 MSTORE PUSH2 0xFFFF SWAP7 SWAP1 SWAP7 AND DUP7 MSTORE PUSH1 0xFF DUP3 AND PUSH1 0x20 DUP8 ADD MSTORE DUP6 ADD SWAP4 SWAP1 SWAP4 MSTORE POP POP PUSH1 0x60 DUP3 ADD MSTORE SWAP1 JUMP JUMPDEST PUSH2 0x1D65 PUSH2 0x4E69 JUMP JUMPDEST PUSH2 0x5B8 DUP4 DUP4 PUSH2 0x1D72 PUSH2 0x2B31 JUMP JUMPDEST PUSH2 0x2B3E JUMP JUMPDEST PUSH1 0x0 DUP4 PUSH2 0x1D83 JUMPI PUSH1 0x0 DUP1 REVERT JUMPDEST DUP3 DUP5 SGT ISZERO PUSH2 0x1DA3 JUMPI PUSH1 0x40 MLOAD PUSH3 0x461BCD PUSH1 0xE5 SHL DUP2 MSTORE PUSH1 0x4 ADD PUSH2 0x9D3 SWAP1 PUSH2 0x53CF JUMP JUMPDEST PUSH1 0x0 DUP1 PUSH1 0x0 PUSH2 0x1DC7 DUP10 DUP10 DUP9 DUP9 PUSH1 0x0 DUP13 SGT PUSH2 0x1DBE JUMPI PUSH1 0x1 PUSH2 0x1DC2 JUMP JUMPDEST PUSH1 0x0 NOT JUMPDEST PUSH2 0x2B95 JUMP JUMPDEST SWAP1 POP PUSH1 0x0 DUP8 SLT ISZERO PUSH2 0x1DF1 JUMPI PUSH2 0x1DDB DUP8 PUSH2 0xBD5 JUMP JUMPDEST SWAP3 POP PUSH2 0x1DEA PUSH2 0x3EE DUP9 DUP4 PUSH2 0x21E0 JUMP JUMPDEST SWAP2 POP PUSH2 0x1E1E JUMP JUMPDEST PUSH2 0x1DFE PUSH2 0x3EE DUP9 DUP4 PUSH2 0x21E0 JUMP JUMPDEST SWAP3 POP PUSH2 0x1E1B PUSH2 0x3EE PUSH2 0x1E14 DUP12 PUSH1 0x80 ADD MLOAD DUP9 PUSH2 0x2BC6 JUMP JUMPDEST DUP10 SWAP1 PUSH2 0x21E0 JUMP JUMPDEST SWAP2 POP JUMPDEST POP PUSH1 0x0 PUSH2 0x1E2F DUP10 DUP10 DUP9 DUP7 DUP10 DUP13 PUSH2 0x2C2C JUMP JUMPDEST SWAP1 POP PUSH1 0x0 JUMPDEST PUSH1 0xFA DUP2 PUSH1 0xFF AND LT ISZERO PUSH2 0x1E9A JUMPI DUP4 DUP4 SUB DUP1 PUSH2 0x1E55 JUMPI DUP4 SWAP6 POP POP POP POP POP POP PUSH2 0x470 JUMP JUMPDEST PUSH1 0x0 PUSH2 0x1E65 DUP13 DUP13 DUP12 DUP9 DUP13 DUP16 PUSH2 0x2C2C JUMP JUMPDEST SWAP1 POP PUSH1 0x0 PUSH2 0x1E8A PUSH2 0x1E83 PUSH2 0x1E79 DUP5 DUP9 PUSH2 0x1D04 JUMP JUMPDEST PUSH2 0x524 DUP6 DUP8 PUSH2 0xEE5 JUMP JUMPDEST DUP8 SWAP1 PUSH2 0x1D04 JUMP JUMPDEST SWAP6 SWAP7 POP SWAP1 SWAP4 POP POP POP PUSH1 0x1 ADD PUSH2 0x1E34 JUMP JUMPDEST POP PUSH1 0x40 MLOAD PUSH3 0x461BCD PUSH1 0xE5 SHL DUP2 MSTORE PUSH1 0x4 ADD PUSH2 0x9D3 SWAP1 PUSH2 0x52CF JUMP JUMPDEST PUSH1 0x0 DUP1 PUSH2 0x4EF PUSH1 0x1 PUSH2 0x2C52 JUMP JUMPDEST DUP2 PUSH2 0xFFFF AND PUSH1 0x0 LT DUP1 ISZERO PUSH2 0x1EDA JUMPI POP PUSH2 0x3FFF PUSH2 0xFFFF DUP4 AND GT ISZERO JUMPDEST PUSH2 0x1EE3 JUMPI PUSH1 0x0 DUP1 REVERT JUMPDEST PUSH2 0xFFFF DUP3 AND DUP1 DUP6 MSTORE PUSH2 0x1EF6 SWAP1 DUP3 SWAP1 PUSH2 0x2C64 JUMP JUMPDEST ISZERO PUSH2 0x1F25 JUMPI PUSH2 0x1F0B DUP4 DUP4 DUP7 PUSH2 0x120 ADD MLOAD PUSH2 0x2CEE JUMP JUMPDEST PUSH2 0x100 DUP9 ADD MSTORE PUSH1 0xE0 DUP8 ADD MSTORE PUSH1 0x40 DUP7 ADD MSTORE PUSH1 0x20 DUP6 ADD MSTORE PUSH2 0x1F43 JUMP JUMPDEST PUSH1 0x0 PUSH1 0x20 DUP6 ADD DUP2 SWAP1 MSTORE PUSH1 0x40 DUP6 ADD DUP2 SWAP1 MSTORE PUSH1 0xE0 DUP6 ADD DUP2 SWAP1 MSTORE PUSH2 0x100 DUP6 ADD MSTORE JUMPDEST POP POP PUSH1 0x0 PUSH1 0x60 DUP4 ADD DUP2 SWAP1 MSTORE PUSH1 0x80 DUP4 ADD DUP2 SWAP1 MSTORE PUSH1 0xA0 DUP4 ADD DUP2 SWAP1 MSTORE PUSH1 0xC0 SWAP1 SWAP3 ADD SWAP2 SWAP1 SWAP2 MSTORE POP JUMP JUMPDEST PUSH1 0x0 DUP1 PUSH2 0x4EF PUSH1 0x3 PUSH2 0x2C52 JUMP JUMPDEST PUSH1 0x0 DUP1 PUSH1 0x0 DUP1 PUSH2 0x1F83 PUSH2 0x2DA8 JUMP JUMPDEST PUSH1 0x1 PUSH1 0x1 PUSH1 0xA0 SHL SUB SWAP6 SWAP1 SWAP6 AND PUSH1 0x0 SWAP1 DUP2 MSTORE PUSH1 0x20 SWAP6 SWAP1 SWAP6 MSTORE POP POP PUSH1 0x40 SWAP1 SWAP3 KECCAK256 SLOAD PUSH12 0xFFFFFFFFFFFFFFFFFFFFFFFF DUP2 AND SWAP4 PUSH1 0x1 PUSH1 0x60 SHL DUP3 DIV PUSH1 0x1 PUSH1 0x1 PUSH1 0x80 SHL SUB AND SWAP4 POP PUSH1 0x1 PUSH1 0xE0 SHL SWAP1 SWAP2 DIV PUSH4 0xFFFFFFFF AND SWAP2 POP JUMP JUMPDEST PUSH1 0x0 DUP1 PUSH1 0x0 DUP1 PUSH1 0x0 DUP1 PUSH2 0x1FE7 PUSH2 0x2DB5 JUMP JUMPDEST PUSH1 0x1 PUSH1 0x1 PUSH1 0xA0 SHL SUB SWAP1 SWAP8 AND PUSH1 0x0 SWAP1 DUP2 MSTORE PUSH1 0x20 SWAP8 SWAP1 SWAP8 MSTORE POP POP PUSH1 0x40 SWAP1 SWAP5 KECCAK256 SLOAD PUSH2 0xFFFF DUP2 AND SWAP6 PUSH4 0xFFFFFFFF PUSH3 0x10000 DUP4 DIV DUP2 AND SWAP7 POP PUSH1 0x1 PUSH1 0x30 SHL DUP4 DIV AND SWAP5 POP PUSH1 0xFF PUSH1 0x1 PUSH1 0x50 SHL DUP4 DIV AND SWAP4 POP PUSH1 0x1 PUSH1 0x58 SHL SWAP1 SWAP2 DIV PUSH1 0xD0 SHL SWAP2 POP JUMP JUMPDEST PUSH1 0x0 PUSH2 0x357 DUP3 PUSH2 0x12C8 PUSH4 0x1DA9C00 DUP2 DUP9 PUSH2 0x12C2 DUP10 PUSH8 0xDE0B6B3A7640000 PUSH2 0x18E2 JUMP JUMPDEST PUSH1 0x0 DUP1 DUP3 GT PUSH2 0x206F JUMPI PUSH1 0x0 DUP1 REVERT JUMPDEST DUP2 DUP4 DUP2 PUSH2 0x2078 JUMPI INVALID JUMPDEST DIV SWAP4 SWAP3 POP POP POP JUMP JUMPDEST PUSH1 0x0 DUP3 DUP3 GT ISZERO PUSH2 0x208F JUMPI PUSH1 0x0 DUP1 REVERT JUMPDEST POP SWAP1 SUB SWAP1 JUMP JUMPDEST PUSH2 0x209D PUSH2 0x4D24 JUMP JUMPDEST PUSH1 0x0 PUSH2 0x20A8 DUP5 PUSH2 0x13C1 JUMP JUMPDEST SWAP1 POP DUP3 DUP2 PUSH1 0x0 ADD MLOAD LT ISZERO PUSH2 0x20E7 JUMPI PUSH1 0x0 DUP1 PUSH2 0x20C2 DUP7 PUSH2 0x2DC2 JUMP JUMPDEST SWAP1 POP PUSH2 0x20D0 DUP7 DUP5 DUP4 DUP9 PUSH2 0x183E JUMP JUMPDEST SWAP1 SWAP4 POP SWAP2 POP PUSH2 0x20E0 DUP7 DUP4 DUP6 PUSH2 0x2E1B JUMP JUMPDEST POP POP PUSH2 0x20F4 JUMP JUMPDEST DUP1 MLOAD DUP4 EQ PUSH2 0x20F4 JUMPI PUSH1 0x0 DUP1 REVERT JUMPDEST PUSH1 0x40 MLOAD DUP1 PUSH1 0x60 ADD PUSH1 0x40 MSTORE DUP1 PUSH2 0x211D PUSH2 0x557 DUP5 PUSH1 0xA0 ADD MLOAD DUP6 PUSH1 0xC0 ADD MLOAD PUSH2 0x18E2 SWAP1 SWAP2 SWAP1 PUSH4 0xFFFFFFFF AND JUMP JUMPDEST DUP2 MSTORE PUSH1 0x20 ADD PUSH2 0x2140 PUSH2 0x557 DUP5 PUSH1 0xA0 ADD MLOAD DUP6 PUSH1 0xE0 ADD MLOAD PUSH2 0x18E2 SWAP1 SWAP2 SWAP1 PUSH4 0xFFFFFFFF AND JUMP JUMPDEST DUP2 MSTORE PUSH1 0x20 ADD DUP3 PUSH1 0x60 ADD MLOAD DUP2 MSTORE POP SWAP2 POP POP SWAP3 SWAP2 POP POP JUMP JUMPDEST PUSH1 0x0 DUP1 PUSH2 0x4EF PUSH1 0x1D PUSH2 0x2C52 JUMP JUMPDEST PUSH1 0x0 DUP1 PUSH2 0x2171 DUP6 DUP6 DUP6 PUSH2 0x304F JUMP JUMPDEST SWAP1 POP DUP1 ISZERO PUSH2 0x2191 JUMPI PUSH2 0x218C PUSH2 0x2186 DUP6 DUP6 PUSH2 0x2080 JUMP JUMPDEST DUP3 PUSH2 0x230A JUMP JUMPDEST PUSH2 0x470 JUMP JUMPDEST PUSH4 0x3B9ACA00 SWAP6 SWAP5 POP POP POP POP POP JUMP JUMPDEST PUSH1 0x0 DUP1 PUSH2 0x21AD DUP6 DUP6 DUP6 PUSH2 0x309F JUMP JUMPDEST SWAP1 POP PUSH2 0x21BC PUSH2 0x2186 DUP6 DUP6 PUSH2 0x2080 JUMP JUMPDEST SWAP2 POP PUSH1 0x0 PUSH2 0x21C9 DUP7 PUSH2 0x30D9 JUMP JUMPDEST SWAP1 POP DUP3 DUP2 SLT ISZERO PUSH2 0x21D7 JUMPI DUP1 SWAP3 POP JUMPDEST POP POP SWAP4 SWAP3 POP POP POP JUMP JUMPDEST PUSH1 0x0 PUSH2 0x5B8 PUSH2 0x21EF DUP5 DUP5 PUSH2 0xEE5 JUMP JUMPDEST PUSH4 0x3B9ACA00 PUSH2 0xF33 JUMP JUMPDEST PUSH1 0x60 ADD MLOAD PUSH2 0x12C PUSH1 0x8 SWAP2 SWAP1 SWAP2 SHR PUSH1 0xFF AND MUL SWAP1 JUMP JUMPDEST PUSH1 0x0 DUP1 PUSH2 0x2218 PUSH2 0x30F4 JUMP JUMPDEST SWAP1 POP PUSH1 0x0 PUSH3 0x76A700 PUSH2 0x2229 DUP6 PUSH2 0x1A6F JUMP JUMPDEST PUSH1 0x0 DUP10 DUP2 MSTORE PUSH1 0x20 DUP6 DUP2 MSTORE PUSH1 0x40 DUP1 DUP4 KECCAK256 DUP12 DUP5 MSTORE DUP3 MSTORE DUP1 DUP4 KECCAK256 SWAP5 SWAP1 SWAP4 ADD DUP1 DUP4 MSTORE SWAP4 SWAP1 MSTORE KECCAK256 DUP1 SLOAD SWAP2 SWAP3 POP SWAP1 PUSH4 0xFFFFFFFF PUSH1 0x1 PUSH1 0xA0 SHL DUP3 DIV DUP2 AND SWAP2 PUSH1 0x1 PUSH1 0xC0 SHL DUP2 DIV DUP3 AND SWAP2 PUSH1 0x1 PUSH1 0xE0 SHL SWAP1 SWAP2 DIV AND DUP2 PUSH2 0x2290 JUMPI PUSH1 0x40 MLOAD PUSH3 0x461BCD PUSH1 0xE5 SHL DUP2 MSTORE PUSH1 0x4 ADD PUSH2 0x9D3 SWAP1 PUSH2 0x5272 JUMP JUMPDEST PUSH2 0x229D DUP2 DUP5 DUP5 DUP13 DUP13 PUSH2 0x3101 JUMP JUMPDEST SWAP12 SWAP11 POP POP POP POP POP POP POP POP POP POP POP JUMP JUMPDEST PUSH1 0x0 DUP2 DUP7 LT PUSH2 0x22BA JUMPI PUSH1 0x0 DUP1 REVERT JUMPDEST DUP5 DUP3 LT PUSH2 0x22C6 JUMPI PUSH1 0x0 DUP1 REVERT JUMPDEST DUP4 DUP4 LT PUSH2 0x22EC JUMPI PUSH2 0x22E5 DUP5 PUSH2 0x1650 DUP9 DUP9 SUB PUSH2 0x12C8 DUP4 DUP9 SUB DUP12 DUP9 SUB PUSH2 0x18E2 JUMP JUMPDEST SWAP1 POP PUSH2 0x470 JUMP JUMPDEST PUSH2 0x22E5 PUSH2 0x2303 DUP8 DUP8 SUB PUSH2 0x12C8 DUP7 DUP9 SUB DUP11 DUP8 SUB PUSH2 0x18E2 JUMP JUMPDEST DUP6 SWAP1 PUSH2 0x2080 JUMP JUMPDEST PUSH1 0x0 DUP1 PUSH2 0x2327 PUSH2 0x2322 PUSH4 0x1DA9C00 PUSH2 0x12C8 DUP7 DUP9 PUSH2 0x18E2 JUMP JUMPDEST PUSH2 0x3189 JUMP JUMPDEST SWAP1 POP PUSH2 0x2339 DUP2 PUSH3 0x1DCD65 PUSH1 0x49 SHL PUSH2 0x31A7 JUMP JUMPDEST SWAP1 POP PUSH2 0x234C PUSH2 0x2347 DUP3 PUSH2 0x31FA JUMP JUMPDEST PUSH2 0x321C JUMP JUMPDEST SWAP1 POP PUSH2 0x235E DUP2 PUSH3 0x1DCD65 PUSH1 0x49 SHL PUSH2 0x3271 JUMP JUMPDEST SWAP1 POP PUSH1 0x0 PUSH2 0x236B DUP3 PUSH2 0x32A7 JUMP JUMPDEST PUSH1 0x7 SIGNEXTEND SWAP6 SWAP5 POP POP POP POP POP JUMP JUMPDEST PUSH1 0x0 PUSH3 0x76A700 PUSH2 0x2386 DUP6 PUSH2 0x1A6F JUMP JUMPDEST ADD SWAP1 POP PUSH2 0x2398 DUP8 DUP8 DUP8 DUP8 DUP8 DUP8 DUP8 PUSH2 0x32B0 JUMP JUMPDEST POP POP POP POP POP POP POP JUMP JUMPDEST PUSH1 0x0 DUP1 PUSH1 0x0 DUP1 PUSH1 0x0 PUSH2 0x23B8 DUP8 DUP12 PUSH1 0x40 ADD MLOAD DUP11 PUSH2 0x24AD JUMP JUMPDEST SWAP1 POP PUSH4 0x3B9ACA00 DUP2 GT ISZERO PUSH2 0x23DA JUMPI PUSH1 0x0 DUP1 PUSH1 0x0 DUP1 SWAP5 POP SWAP5 POP SWAP5 POP SWAP5 POP POP PUSH2 0x246E JUMP JUMPDEST PUSH1 0x0 PUSH2 0x23E6 DUP13 DUP4 PUSH2 0x24EA JUMP JUMPDEST SWAP1 POP PUSH1 0x0 PUSH2 0x2401 PUSH2 0x3EE PUSH2 0x23FA DUP5 DUP12 PUSH2 0x2BC6 JUMP JUMPDEST DUP12 SWAP1 PUSH2 0x32E7 JUMP JUMPDEST SWAP1 POP PUSH2 0x2411 DUP14 DUP4 PUSH1 0x0 DUP13 SLT PUSH2 0x3300 JUMP JUMPDEST SWAP4 POP PUSH2 0x2423 PUSH2 0x3EE PUSH2 0x23FA DUP7 DUP12 PUSH2 0x2BC6 JUMP JUMPDEST SWAP7 POP DUP1 DUP8 SGT ISZERO PUSH2 0x2432 JUMPI PUSH1 0x0 DUP1 REVERT JUMPDEST PUSH1 0x0 PUSH2 0x243E DUP3 DUP10 PUSH2 0x1D04 JUMP JUMPDEST SWAP1 POP PUSH2 0x2458 PUSH1 0x64 PUSH2 0x524 PUSH2 0x2451 DUP16 PUSH2 0x3378 JUMP JUMPDEST DUP5 SWAP1 PUSH2 0xEE5 JUMP JUMPDEST SWAP6 POP PUSH2 0x2467 PUSH2 0x3EE DUP10 DUP9 PUSH2 0x2497 JUMP JUMPDEST SWAP7 POP POP POP POP POP JUMPDEST SWAP7 POP SWAP7 POP SWAP7 POP SWAP7 SWAP3 POP POP POP JUMP JUMPDEST PUSH1 0x0 PUSH2 0x2487 DUP4 DUP4 PUSH2 0x1D04 JUMP JUMPDEST SWAP1 POP PUSH1 0x0 DUP2 SLT ISZERO PUSH2 0x4EF JUMPI PUSH1 0x0 DUP1 REVERT JUMPDEST DUP2 DUP2 ADD DUP3 DUP2 SLT ISZERO PUSH1 0x0 DUP4 SLT ISZERO EQ PUSH2 0x4EF JUMPI PUSH1 0x0 DUP1 REVERT JUMPDEST PUSH1 0x0 DUP1 DUP4 SLT ISZERO PUSH2 0x24BC JUMPI PUSH1 0x0 DUP1 REVERT JUMPDEST PUSH1 0x0 DUP3 SLT ISZERO PUSH2 0x24CA JUMPI PUSH1 0x0 DUP1 REVERT JUMPDEST PUSH2 0x357 PUSH2 0x7BC PUSH2 0x24DA DUP5 DUP7 PUSH2 0x2497 JUMP JUMPDEST PUSH2 0x24E4 DUP7 DUP9 PUSH2 0x247B JUMP JUMPDEST SWAP1 PUSH2 0x32E7 JUMP JUMPDEST PUSH1 0x0 DUP1 DUP4 PUSH1 0x80 ADD MLOAD GT PUSH2 0x24FC JUMPI PUSH1 0x0 DUP1 REVERT JUMPDEST PUSH4 0x3B9ACA00 DUP3 GT ISZERO PUSH2 0x250D JUMPI PUSH1 0x0 DUP1 REVERT JUMPDEST DUP3 MLOAD DUP3 GT PUSH2 0x252C JUMPI DUP3 MLOAD PUSH1 0x40 DUP5 ADD MLOAD PUSH2 0x1A54 SWAP2 SWAP1 PUSH2 0x12C8 SWAP1 DUP6 SWAP1 PUSH2 0x18E2 JUMP JUMPDEST DUP3 PUSH1 0x20 ADD MLOAD DUP3 GT PUSH2 0x2564 JUMPI PUSH1 0x40 DUP4 ADD MLOAD DUP4 MLOAD PUSH1 0x20 DUP6 ADD MLOAD PUSH1 0x60 DUP7 ADD MLOAD PUSH2 0x1A54 SWAP4 SWAP3 PUSH2 0x1650 SWAP3 DUP2 SWAP1 SUB SWAP2 PUSH2 0x12C8 SWAP2 DUP9 SUB SWAP1 DUP6 SWAP1 SUB PUSH2 0x18E2 JUMP JUMPDEST PUSH2 0x5B8 DUP4 PUSH1 0x60 ADD MLOAD PUSH2 0x1650 DUP6 PUSH1 0x20 ADD MLOAD PUSH4 0x3B9ACA00 SUB PUSH2 0x12C8 DUP8 PUSH1 0x60 ADD MLOAD DUP9 PUSH1 0x80 ADD MLOAD SUB DUP9 PUSH1 0x20 ADD MLOAD DUP9 SUB PUSH2 0x18E2 SWAP1 SWAP2 SWAP1 PUSH4 0xFFFFFFFF AND JUMP JUMPDEST PUSH1 0x0 DUP1 DUP1 PUSH2 0x25AB DUP8 DUP7 PUSH2 0xDC4 JUMP JUMPDEST PUSH1 0x60 DUP10 ADD MLOAD SWAP1 SWAP2 POP PUSH2 0x25BD SWAP1 DUP3 PUSH2 0x2497 JUMP JUMPDEST PUSH1 0x60 DUP10 ADD MSTORE TIMESTAMP PUSH1 0xE0 DUP10 ADD MSTORE PUSH1 0x0 PUSH2 0x25D4 DUP9 DUP7 PUSH2 0xDC4 JUMP JUMPDEST SWAP1 POP PUSH1 0x0 PUSH2 0x25E2 DUP10 DUP10 PUSH2 0xDC4 JUMP JUMPDEST SWAP11 SWAP2 SWAP10 POP SWAP1 SWAP8 POP POP POP POP POP POP POP POP JUMP JUMPDEST PUSH1 0x0 DUP1 PUSH2 0x25FD PUSH2 0x3385 JUMP JUMPDEST PUSH2 0xFFFF SWAP4 SWAP1 SWAP4 AND PUSH1 0x0 SWAP1 DUP2 MSTORE PUSH1 0x20 SWAP4 SWAP1 SWAP4 MSTORE POP POP PUSH1 0x40 SWAP1 KECCAK256 SLOAD PUSH1 0x1 PUSH1 0x1 PUSH1 0xA0 SHL SUB AND SWAP1 JUMP JUMPDEST PUSH1 0x0 DUP1 PUSH1 0x0 DUP1 PUSH1 0x0 DUP1 PUSH2 0x2635 DUP10 DUP9 PUSH2 0x3392 JUMP JUMPDEST DUP10 MLOAD SWAP1 SWAP6 POP SWAP2 SWAP4 POP SWAP2 POP PUSH1 0x0 SWAP1 PUSH2 0x265C SWAP1 PUSH2 0x2651 SWAP1 DUP12 SWAP1 PUSH2 0x2080 JUMP JUMPDEST PUSH4 0x3B9ACA00 SWAP1 PUSH2 0x18E2 JUMP JUMPDEST SWAP1 POP PUSH2 0x2696 PUSH2 0x268B PUSH4 0x1DA9C00 PUSH2 0x2673 DUP6 DUP6 PUSH2 0x18E2 JUMP JUMPDEST DUP2 PUSH2 0x267A JUMPI INVALID JUMPDEST PUSH8 0xDE0B6B3A7640000 SWAP2 SWAP1 DIV PUSH2 0x1305 JUMP JUMPDEST PUSH1 0xE0 DUP11 ADD MLOAD SWAP1 PUSH2 0x274A JUMP JUMPDEST SWAP7 POP PUSH2 0x26B8 PUSH2 0x26AD PUSH4 0x1DA9C00 PUSH2 0x2673 DUP8 DUP6 PUSH2 0x18E2 JUMP JUMPDEST PUSH1 0xC0 DUP11 ADD MLOAD SWAP1 PUSH2 0x274A JUMP JUMPDEST SWAP6 POP DUP2 DUP4 EQ ISZERO PUSH2 0x26CF JUMPI POP PUSH1 0x0 SWAP4 POP PUSH2 0x2724 SWAP2 POP POP JUMP JUMPDEST PUSH1 0x0 PUSH2 0x26F1 PUSH2 0x26E6 PUSH4 0x1DA9C00 PUSH2 0x2673 DUP8 DUP7 PUSH2 0x18E2 JUMP JUMPDEST PUSH1 0xE0 DUP12 ADD MLOAD SWAP1 PUSH2 0x274A JUMP JUMPDEST SWAP1 POP PUSH1 0x0 PUSH2 0x26FF DUP10 DUP4 PUSH2 0x2080 JUMP JUMPDEST SWAP1 POP PUSH2 0x271C DUP9 PUSH2 0x12C8 DUP4 DUP14 PUSH1 0x40 ADD MLOAD PUSH2 0x18E2 SWAP1 SWAP2 SWAP1 PUSH4 0xFFFFFFFF AND JUMP JUMPDEST SWAP7 POP POP POP POP POP POP JUMPDEST SWAP4 POP SWAP4 POP SWAP4 POP SWAP4 JUMP JUMPDEST PUSH1 0x0 PUSH2 0x5B8 PUSH2 0x2744 DUP5 PUSH8 0xDE0B6B3A7640000 PUSH2 0x18E2 JUMP JUMPDEST DUP4 PUSH2 0x2061 JUMP JUMPDEST PUSH1 0x0 PUSH2 0x5B8 PUSH2 0x2759 DUP5 DUP5 PUSH2 0x18E2 JUMP JUMPDEST PUSH8 0xDE0B6B3A7640000 PUSH2 0x2061 JUMP JUMPDEST PUSH2 0x276F PUSH2 0x4D24 JUMP JUMPDEST PUSH1 0x0 DUP1 PUSH2 0x277A PUSH2 0x342C JUMP JUMPDEST PUSH2 0xFFFF DUP7 AND PUSH1 0x0 SWAP1 DUP2 MSTORE PUSH1 0x20 DUP3 DUP2 MSTORE PUSH1 0x40 DUP1 DUP4 KECCAK256 DUP9 DUP5 MSTORE SWAP1 SWAP2 MSTORE SWAP1 KECCAK256 DUP1 SLOAD PUSH1 0x1 PUSH1 0xF0 SHL SWAP1 DIV PUSH1 0xFF AND SWAP4 POP SWAP1 SWAP2 POP DUP3 ISZERO PUSH2 0x27F1 JUMPI DUP1 SLOAD PUSH1 0x1 PUSH1 0x1 PUSH1 0x50 SHL SUB PUSH1 0x1 PUSH1 0xA0 SHL DUP3 DIV DUP2 AND SWAP2 PUSH2 0x27CC SWAP2 AND DUP3 PUSH2 0x18E2 JUMP JUMPDEST DUP6 MSTORE DUP2 SLOAD PUSH2 0x27EA SWAP1 PUSH1 0x1 PUSH1 0x50 SHL SWAP1 DIV PUSH1 0x1 PUSH1 0x1 PUSH1 0x50 SHL SUB AND DUP3 PUSH2 0x18E2 JUMP JUMPDEST PUSH1 0x20 DUP7 ADD MSTORE POP JUMPDEST POP POP SWAP3 POP SWAP3 SWAP1 POP JUMP JUMPDEST PUSH1 0x0 DUP1 DUP3 SLT ISZERO PUSH2 0x282D JUMPI PUSH2 0x2828 PUSH1 0x1 PUSH2 0x1995 DUP6 PUSH1 0x20 ADD MLOAD PUSH2 0x524 DUP8 PUSH1 0x0 ADD MLOAD DUP8 PUSH2 0xEE5 SWAP1 SWAP2 SWAP1 PUSH4 0xFFFFFFFF AND JUMP JUMPDEST PUSH2 0x5B8 JUMP JUMPDEST POP SWAP2 SWAP1 POP JUMP JUMPDEST PUSH1 0x20 DUP4 ADD MLOAD MLOAD MLOAD PUSH1 0x0 SWAP1 PUSH1 0x60 SWAP1 DUP1 PUSH8 0xFFFFFFFFFFFFFFFF DUP2 GT DUP1 ISZERO PUSH2 0x2857 JUMPI PUSH1 0x0 DUP1 REVERT JUMPDEST POP PUSH1 0x40 MLOAD SWAP1 DUP1 DUP3 MSTORE DUP1 PUSH1 0x20 MUL PUSH1 0x20 ADD DUP3 ADD PUSH1 0x40 MSTORE DUP1 ISZERO PUSH2 0x2881 JUMPI DUP2 PUSH1 0x20 ADD PUSH1 0x20 DUP3 MUL DUP1 CALLDATASIZE DUP4 CALLDATACOPY ADD SWAP1 POP JUMPDEST POP SWAP2 POP PUSH2 0x288C PUSH2 0x4D91 JUMP JUMPDEST PUSH1 0x0 JUMPDEST DUP3 DUP2 LT ISZERO PUSH2 0x298B JUMPI DUP8 MLOAD PUSH2 0x28AA SWAP1 DUP4 PUSH1 0x1 DUP1 DUP6 ADD SWAP1 DUP12 PUSH2 0x1608 JUMP JUMPDEST PUSH1 0x0 DUP9 PUSH1 0x20 ADD MLOAD PUSH1 0x0 ADD MLOAD DUP3 DUP2 MLOAD DUP2 LT PUSH2 0x28C0 JUMPI INVALID JUMPDEST PUSH1 0x20 MUL PUSH1 0x20 ADD ADD MLOAD SWAP1 POP PUSH1 0x0 DUP1 PUSH2 0x28D7 DUP4 DUP7 PUSH2 0x3439 JUMP JUMPDEST SWAP2 POP SWAP2 POP PUSH2 0x2904 PUSH2 0x28FD DUP13 PUSH1 0xC0 ADD MLOAD DUP14 PUSH1 0x0 ADD MLOAD PUSH1 0x0 ADD MLOAD PUSH2 0xFFFF AND DUP7 PUSH1 0x20 ADD MLOAD PUSH2 0x34B4 JUMP JUMPDEST DUP3 SWAP1 PUSH2 0x2497 JUMP JUMPDEST DUP8 DUP6 DUP2 MLOAD DUP2 LT PUSH2 0x2910 JUMPI INVALID JUMPDEST PUSH1 0x20 MUL PUSH1 0x20 ADD ADD DUP2 DUP2 MSTORE POP POP PUSH1 0x0 PUSH2 0x296D PUSH2 0x2966 PUSH2 0x295A DUP11 DUP9 DUP2 MLOAD DUP2 LT PUSH2 0x2933 JUMPI INVALID JUMPDEST PUSH1 0x20 MUL PUSH1 0x20 ADD ADD MLOAD DUP8 PUSH1 0x20 ADD MLOAD DUP16 DUP16 PUSH2 0x2950 JUMPI DUP12 PUSH1 0xA0 ADD MLOAD PUSH2 0x8C9 JUMP JUMPDEST DUP12 PUSH1 0xC0 ADD MLOAD PUSH2 0x15C2 JUMP JUMPDEST DUP15 MLOAD PUSH1 0x40 ADD MLOAD SWAP1 PUSH2 0xDC4 JUMP JUMPDEST DUP5 SWAP1 PUSH2 0x2497 JUMP JUMPDEST SWAP1 POP PUSH2 0x2979 DUP10 DUP3 PUSH2 0x2497 JUMP JUMPDEST SWAP9 POP POP PUSH1 0x1 SWAP1 SWAP4 ADD SWAP3 POP PUSH2 0x288F SWAP2 POP POP JUMP JUMPDEST POP POP POP SWAP4 POP SWAP4 SWAP2 POP POP JUMP JUMPDEST PUSH1 0x0 DUP1 PUSH2 0x29C2 DUP5 PUSH1 0xC0 ADD MLOAD DUP6 PUSH1 0x0 ADD MLOAD PUSH1 0x0 ADD MLOAD PUSH2 0xFFFF AND DUP7 PUSH1 0x80 ADD MLOAD DUP7 DUP9 PUSH1 0x0 ADD MLOAD PUSH1 0x20 ADD MLOAD PUSH2 0x34F9 JUMP JUMPDEST SWAP1 POP DUP1 ISZERO PUSH2 0x2A11 JUMPI PUSH1 0x0 PUSH2 0x29F4 DUP6 PUSH1 0xC0 ADD MLOAD DUP7 PUSH1 0x0 ADD MLOAD PUSH1 0x0 ADD MLOAD PUSH2 0xFFFF AND DUP8 PUSH1 0x80 ADD MLOAD DUP8 DUP10 PUSH1 0x0 ADD MLOAD PUSH1 0x0 DUP9 PUSH2 0x35A5 JUMP JUMPDEST POP DUP6 MLOAD PUSH1 0x40 ADD MLOAD SWAP1 SWAP2 POP PUSH2 0x2A08 SWAP1 DUP3 PUSH2 0xDC4 JUMP JUMPDEST SWAP3 POP POP POP PUSH2 0x4EF JUMP JUMPDEST PUSH1 0x0 SWAP2 POP POP PUSH2 0x4EF JUMP JUMPDEST PUSH1 0x0 DUP1 PUSH2 0x4EF PUSH1 0x7 PUSH2 0x2C52 JUMP JUMPDEST PUSH2 0x2A30 PUSH2 0x4EAE JUMP JUMPDEST PUSH2 0x2A38 PUSH2 0x4EAE JUMP JUMPDEST PUSH1 0xFF DUP5 AND PUSH2 0x2A47 JUMPI SWAP1 POP PUSH2 0x5B8 JUMP JUMPDEST PUSH2 0x2A51 DUP6 DUP6 PUSH2 0x3623 JUMP JUMPDEST DUP2 MSTORE PUSH1 0xFF DUP5 AND PUSH1 0x60 DUP3 ADD MSTORE DUP3 PUSH8 0xFFFFFFFFFFFFFFFF DUP2 GT DUP1 ISZERO PUSH2 0x2A73 JUMPI PUSH1 0x0 DUP1 REVERT JUMPDEST POP PUSH1 0x40 MLOAD SWAP1 DUP1 DUP3 MSTORE DUP1 PUSH1 0x20 MUL PUSH1 0x20 ADD DUP3 ADD PUSH1 0x40 MSTORE DUP1 ISZERO PUSH2 0x2AAD JUMPI DUP2 PUSH1 0x20 ADD JUMPDEST PUSH2 0x2A9A PUSH2 0x4ED6 JUMP JUMPDEST DUP2 MSTORE PUSH1 0x20 ADD SWAP1 PUSH1 0x1 SWAP1 SUB SWAP1 DUP2 PUSH2 0x2A92 JUMPI SWAP1 POP JUMPDEST POP PUSH1 0x20 DUP3 ADD MSTORE SWAP5 SWAP4 POP POP POP POP JUMP JUMPDEST PUSH1 0x0 DUP1 PUSH2 0x2AC6 PUSH2 0x362F JUMP JUMPDEST PUSH1 0x1 PUSH1 0x1 PUSH1 0xA0 SHL SUB DUP6 AND PUSH1 0x0 SWAP1 DUP2 MSTORE PUSH1 0x20 DUP3 DUP2 MSTORE PUSH1 0x40 DUP1 DUP4 KECCAK256 PUSH2 0xFFFF DUP9 AND DUP5 MSTORE SWAP1 SWAP2 MSTORE DUP2 KECCAK256 DUP1 SLOAD PUSH1 0x1 PUSH1 0xA8 SHL SWAP1 DIV PUSH1 0xA SWAP1 DUP2 SIGNEXTEND SWAP1 SIGNEXTEND SWAP5 POP SWAP2 SWAP3 POP DUP4 SLT ISZERO PUSH2 0x2B0C JUMPI PUSH1 0x0 DUP1 REVERT JUMPDEST POP POP SWAP3 SWAP2 POP POP JUMP JUMPDEST PUSH1 0x0 DUP1 PUSH2 0x2B1F PUSH2 0x363C JUMP JUMPDEST PUSH1 0x0 SWAP4 DUP5 MSTORE PUSH1 0x20 MSTORE POP POP PUSH1 0x40 SWAP1 KECCAK256 SLOAD SWAP1 JUMP JUMPDEST PUSH1 0x0 DUP1 PUSH2 0x4EF PUSH1 0x1B PUSH2 0x2C52 JUMP JUMPDEST PUSH2 0x2B46 PUSH2 0x4E69 JUMP JUMPDEST PUSH1 0x0 PUSH2 0x2B51 DUP5 PUSH2 0x3649 JUMP JUMPDEST PUSH2 0xFFFF DUP7 AND PUSH1 0x0 SWAP1 DUP2 MSTORE PUSH1 0x20 DUP6 SWAP1 MSTORE PUSH1 0x40 DUP2 KECCAK256 SWAP2 SWAP3 POP SWAP1 PUSH1 0x4 DUP7 LT PUSH2 0x2B77 JUMPI PUSH1 0x1 PUSH2 0x2B7A JUMP JUMPDEST PUSH1 0x0 JUMPDEST PUSH1 0xFF AND PUSH1 0x2 DUP2 LT PUSH2 0x2B87 JUMPI INVALID JUMPDEST ADD SLOAD SWAP1 POP PUSH2 0x912 DUP3 DUP3 PUSH2 0x3682 JUMP JUMPDEST PUSH1 0x0 DUP1 PUSH2 0x2BAC DUP8 PUSH2 0x2BA7 DUP6 DUP10 DUP10 PUSH2 0x24AD JUMP JUMPDEST PUSH2 0x24EA JUMP JUMPDEST SWAP1 POP PUSH1 0x0 PUSH2 0x2BBE DUP9 DUP4 PUSH1 0x0 DUP8 SLT PUSH2 0x3300 JUMP JUMPDEST SWAP1 POP PUSH2 0x102C DUP2 DUP7 JUMPDEST PUSH1 0x0 DUP1 PUSH2 0x2BDE PUSH2 0x2322 PUSH4 0x1DA9C00 PUSH2 0x12C8 DUP8 DUP8 PUSH2 0x18E2 JUMP JUMPDEST SWAP1 POP PUSH1 0x0 PUSH2 0x2BF2 DUP3 PUSH3 0x1DCD65 PUSH1 0x49 SHL PUSH2 0x31A7 JUMP JUMPDEST SWAP1 POP PUSH1 0x0 PUSH2 0x2BFF DUP3 PUSH2 0x321C JUMP JUMPDEST SWAP1 POP PUSH1 0x0 PUSH2 0x2C13 DUP3 PUSH3 0x1DCD65 PUSH1 0x49 SHL PUSH2 0x3271 JUMP JUMPDEST SWAP1 POP PUSH2 0x2C1E DUP2 PUSH2 0x32A7 JUMP JUMPDEST PUSH1 0x7 SIGNEXTEND SWAP8 SWAP7 POP POP POP POP POP POP POP JUMP JUMPDEST PUSH1 0x0 DUP1 PUSH2 0x2C3C DUP9 DUP9 DUP9 DUP8 DUP10 PUSH2 0x2B95 JUMP JUMPDEST SWAP1 POP PUSH2 0x102C PUSH2 0x2C4B DUP5 DUP4 PUSH2 0x21E0 JUMP JUMPDEST DUP7 SWAP1 PUSH2 0x2497 JUMP JUMPDEST PUSH1 0x0 PUSH3 0xF4240 DUP3 PUSH1 0x26 DUP2 GT ISZERO PUSH2 0x1C94 JUMPI INVALID JUMPDEST PUSH1 0x0 DUP2 ISZERO DUP1 ISZERO SWAP1 PUSH2 0x2C77 JUMPI POP PUSH2 0x3FFF DUP3 GT ISZERO JUMPDEST PUSH2 0x2C80 JUMPI PUSH1 0x0 DUP1 REVERT JUMPDEST PUSH1 0x80 DUP4 ADD MLOAD PUSH1 0x60 DUP5 ADD MLOAD PUSH2 0xFFFF AND DUP4 EQ ISZERO PUSH2 0x2C9F JUMPI PUSH1 0x1 SWAP2 POP POP PUSH2 0x4EF JUMP JUMPDEST PUSH1 0x1 PUSH1 0x1 PUSH1 0x70 SHL SUB NOT DUP2 AND ISZERO PUSH2 0x2CE4 JUMPI PUSH1 0xF0 DUP2 SWAP1 SHR PUSH2 0x3FFF AND DUP4 DUP2 EQ ISZERO PUSH2 0x2CD1 JUMPI POP PUSH1 0x1 PUSH1 0xFE SHL SWAP1 DUP2 AND EQ SWAP1 POP PUSH2 0x4EF JUMP JUMPDEST POP PUSH1 0x10 SHL PUSH1 0x1 PUSH1 0x1 PUSH1 0x80 SHL SUB NOT AND PUSH2 0x2C9F JUMP JUMPDEST POP PUSH1 0x0 SWAP4 SWAP3 POP POP POP JUMP JUMPDEST PUSH1 0x0 DUP1 PUSH1 0x0 DUP1 PUSH1 0x0 PUSH2 0x2CFE PUSH2 0x362F JUMP JUMPDEST PUSH1 0x1 PUSH1 0x1 PUSH1 0xA0 SHL SUB DUP10 AND PUSH1 0x0 SWAP1 DUP2 MSTORE PUSH1 0x20 DUP3 DUP2 MSTORE PUSH1 0x40 DUP1 DUP4 KECCAK256 PUSH2 0xFFFF DUP13 AND DUP5 MSTORE SWAP1 SWAP2 MSTORE SWAP1 KECCAK256 DUP1 SLOAD PUSH1 0x1 PUSH1 0x1 PUSH1 0x50 SHL SUB DUP2 AND SWAP7 POP PUSH1 0x1 PUSH1 0x50 SHL SWAP1 DIV PUSH4 0xFFFFFFFF AND SWAP5 POP SWAP1 SWAP2 POP DUP4 ISZERO PUSH2 0x2D6B JUMPI DUP1 SLOAD PUSH2 0x2D64 SWAP1 PUSH1 0x1 PUSH1 0x70 SHL SWAP1 DIV PUSH7 0xFFFFFFFFFFFFFF AND PUSH2 0x37A1 JUMP JUMPDEST SWAP3 POP PUSH2 0x2D80 JUMP JUMPDEST DUP1 SLOAD PUSH1 0x1 PUSH1 0x70 SHL SWAP1 DIV PUSH7 0xFFFFFFFFFFFFFF AND SWAP3 POP JUMPDEST DUP1 SLOAD PUSH2 0x2D9B SWAP1 DUP9 SWAP1 PUSH1 0x1 PUSH1 0xA8 SHL SWAP1 DIV PUSH1 0xA SWAP1 DUP2 SIGNEXTEND SWAP1 SIGNEXTEND PUSH2 0x37AF JUMP JUMPDEST SWAP6 POP POP POP SWAP4 POP SWAP4 POP SWAP4 POP SWAP4 JUMP JUMPDEST PUSH1 0x0 DUP1 PUSH2 0x4EF PUSH1 0x11 PUSH2 0x2C52 JUMP JUMPDEST PUSH1 0x0 DUP1 PUSH2 0x4EF PUSH1 0x2 PUSH2 0x2C52 JUMP JUMPDEST PUSH1 0x0 DUP1 PUSH2 0x2DCE DUP4 PUSH2 0x25F2 JUMP JUMPDEST PUSH1 0x1 PUSH1 0x1 PUSH1 0xA0 SHL SUB AND PUSH4 0xEF81F216 PUSH1 0x40 MLOAD DUP2 PUSH4 0xFFFFFFFF AND PUSH1 0xE0 SHL DUP2 MSTORE PUSH1 0x4 ADD PUSH1 0x40 DUP1 MLOAD DUP1 DUP4 SUB DUP2 PUSH1 0x0 DUP8 DUP1 EXTCODESIZE ISZERO DUP1 ISZERO PUSH2 0x2E07 JUMPI PUSH1 0x0 DUP1 REVERT JUMPDEST POP GAS CALL ISZERO DUP1 ISZERO PUSH2 0x181A JUMPI RETURNDATASIZE PUSH1 0x0 DUP1 RETURNDATACOPY RETURNDATASIZE PUSH1 0x0 REVERT JUMPDEST PUSH1 0x0 PUSH2 0x2E25 PUSH2 0x2156 JUMP JUMPDEST PUSH1 0x0 DUP6 PUSH2 0xFFFF AND DUP2 MSTORE PUSH1 0x20 ADD SWAP1 DUP2 MSTORE PUSH1 0x20 ADD PUSH1 0x0 KECCAK256 SWAP1 POP PUSH2 0x2E49 DUP3 PUSH1 0x0 ADD MLOAD PUSH2 0x37D6 JUMP JUMPDEST DUP2 SLOAD PUSH5 0xFFFFFFFFFF NOT AND PUSH5 0xFFFFFFFFFF SWAP2 SWAP1 SWAP2 AND OR DUP2 SSTORE PUSH1 0xA0 DUP3 ADD MLOAD PUSH2 0x2E6E SWAP1 PUSH2 0x37EA JUMP JUMPDEST PUSH1 0x2 DUP3 ADD DUP1 SLOAD PUSH10 0xFFFFFFFFFFFFFFFFFFFF NOT AND PUSH1 0x1 PUSH1 0x1 PUSH1 0x50 SHL SUB SWAP3 SWAP1 SWAP3 AND SWAP2 SWAP1 SWAP2 OR SWAP1 SSTORE PUSH1 0xC0 DUP3 ADD MLOAD PUSH2 0x2EA1 SWAP1 PUSH2 0x37EA JUMP JUMPDEST DUP2 PUSH1 0x2 ADD PUSH1 0xA PUSH2 0x100 EXP DUP2 SLOAD DUP2 PUSH1 0x1 PUSH1 0x1 PUSH1 0x50 SHL SUB MUL NOT AND SWAP1 DUP4 PUSH1 0x1 PUSH1 0x1 PUSH1 0x50 SHL SUB AND MUL OR SWAP1 SSTORE POP PUSH2 0x2ED6 DUP3 PUSH1 0xE0 ADD MLOAD PUSH2 0x37EA JUMP JUMPDEST DUP2 PUSH1 0x2 ADD PUSH1 0x14 PUSH2 0x100 EXP DUP2 SLOAD DUP2 PUSH1 0x1 PUSH1 0x1 PUSH1 0x50 SHL SUB MUL NOT AND SWAP1 DUP4 PUSH1 0x1 PUSH1 0x1 PUSH1 0x50 SHL SUB AND MUL OR SWAP1 SSTORE POP PUSH2 0x2F0B DUP3 PUSH1 0x20 ADD MLOAD PUSH2 0x3800 JUMP JUMPDEST DUP2 SLOAD PUSH1 0x1 PUSH1 0x1 PUSH1 0x58 SHL SUB SWAP2 SWAP1 SWAP2 AND PUSH1 0x1 PUSH1 0x28 SHL MUL PUSH16 0xFFFFFFFFFFFFFFFFFFFFFF0000000000 NOT SWAP1 SWAP2 AND OR DUP2 SSTORE PUSH1 0x40 DUP3 ADD MLOAD PUSH2 0x2F45 SWAP1 PUSH2 0x3800 JUMP JUMPDEST PUSH1 0x1 DUP3 ADD DUP1 SLOAD PUSH11 0xFFFFFFFFFFFFFFFFFFFFFF NOT AND PUSH1 0x1 PUSH1 0x1 PUSH1 0x58 SHL SUB SWAP3 SWAP1 SWAP3 AND SWAP2 SWAP1 SWAP2 OR SWAP1 SSTORE PUSH1 0x80 DUP3 ADD MLOAD PUSH2 0x2F79 SWAP1 PUSH2 0x3800 JUMP JUMPDEST DUP2 SLOAD PUSH1 0x1 PUSH1 0x1 PUSH1 0x58 SHL SUB SWAP2 SWAP1 SWAP2 AND PUSH1 0x1 PUSH1 0x80 SHL MUL PUSH11 0xFFFFFFFFFFFFFFFFFFFFFF PUSH1 0x80 SHL NOT SWAP1 SWAP2 AND OR DUP2 SSTORE PUSH1 0x60 DUP3 ADD MLOAD PUSH2 0x2FB1 SWAP1 PUSH2 0x3816 JUMP JUMPDEST DUP2 SLOAD PUSH4 0xFFFFFFFF SWAP2 SWAP1 SWAP2 AND PUSH1 0x1 PUSH1 0xD8 SHL MUL PUSH4 0xFFFFFFFF PUSH1 0xD8 SHL NOT SWAP1 SWAP2 AND OR DUP2 SSTORE DUP3 ISZERO PUSH2 0x2FFD JUMPI PUSH1 0x0 PUSH2 0x2FE2 DUP5 PUSH2 0xBBB JUMP JUMPDEST SWAP1 POP PUSH2 0x2FEE DUP6 DUP3 PUSH2 0x3829 JUMP JUMPDEST PUSH2 0x2FFB PUSH2 0xFEE DUP7 DUP4 PUSH2 0x3865 JUMP JUMPDEST POP JUMPDEST DUP4 PUSH2 0xFFFF AND PUSH32 0xEF25641E225E493886510CA1AD6584FA7B442B9FEA820A29D1DE3CE27D270FD2 DUP4 PUSH1 0xA0 ADD MLOAD DUP5 PUSH1 0xC0 ADD MLOAD DUP6 PUSH1 0xE0 ADD MLOAD PUSH1 0x40 MLOAD PUSH2 0x3041 SWAP4 SWAP3 SWAP2 SWAP1 PUSH2 0x54AE JUMP JUMPDEST PUSH1 0x40 MLOAD DUP1 SWAP2 SUB SWAP1 LOG2 POP POP POP POP JUMP JUMPDEST PUSH1 0x0 PUSH2 0x305C DUP5 DUP5 DUP5 PUSH2 0x14D9 JUMP JUMPDEST SWAP1 POP PUSH1 0x0 PUSH2 0x3069 DUP6 PUSH2 0x38EF JUMP JUMPDEST SWAP1 POP DUP1 DUP3 GT PUSH2 0x307C JUMPI PUSH1 0x0 SWAP2 POP POP PUSH2 0x5B8 JUMP JUMPDEST DUP1 DUP3 SUB SWAP2 POP PUSH1 0x0 PUSH2 0x308C DUP7 PUSH2 0x38FC JUMP JUMPDEST SWAP1 POP DUP3 DUP2 LT ISZERO PUSH2 0x21D7 JUMPI SWAP6 SWAP5 POP POP POP POP POP JUMP JUMPDEST PUSH1 0x0 PUSH2 0x30AC DUP5 DUP5 DUP5 PUSH2 0x14D9 JUMP JUMPDEST SWAP1 POP PUSH2 0x30BA PUSH2 0x12D4 DUP6 PUSH2 0x3909 JUMP JUMPDEST SWAP1 POP PUSH1 0x0 PUSH2 0x30C7 DUP6 PUSH2 0x3916 JUMP JUMPDEST SWAP1 POP DUP1 DUP3 LT ISZERO PUSH2 0x1935 JUMPI SWAP5 SWAP4 POP POP POP POP JUMP JUMPDEST PUSH1 0x60 ADD MLOAD PUSH3 0x7A120 PUSH1 0x10 SWAP2 SWAP1 SWAP2 SHR PUSH1 0xFF AND MUL PUSH4 0x3B9ACA00 SUB SWAP1 JUMP JUMPDEST PUSH1 0x0 DUP1 PUSH2 0x4EF PUSH1 0xA PUSH2 0x2C52 JUMP JUMPDEST PUSH1 0x0 DUP1 DUP4 GT PUSH2 0x310F JUMPI PUSH1 0x0 DUP1 REVERT JUMPDEST DUP2 DUP7 GT ISZERO PUSH2 0x311E JUMPI POP DUP4 PUSH2 0x470 JUMP JUMPDEST PUSH1 0x0 PUSH2 0x312A DUP4 DUP9 PUSH2 0x2080 JUMP JUMPDEST SWAP1 POP DUP4 DUP2 GT ISZERO PUSH2 0x313D JUMPI DUP6 SWAP2 POP POP PUSH2 0x470 JUMP JUMPDEST PUSH1 0x0 PUSH2 0x3149 DUP3 DUP7 PUSH2 0x3923 JUMP JUMPDEST SWAP1 POP PUSH1 0x0 PUSH2 0x315B PUSH4 0x3B9ACA00 DUP4 PUSH2 0x2080 JUMP JUMPDEST SWAP1 POP PUSH2 0x317C PUSH4 0x3B9ACA00 PUSH2 0x12C8 PUSH2 0x3172 DUP11 DUP6 PUSH2 0x18E2 JUMP JUMPDEST PUSH2 0x1650 DUP13 DUP8 PUSH2 0x18E2 JUMP JUMPDEST SWAP10 SWAP9 POP POP POP POP POP POP POP POP POP JUMP JUMPDEST PUSH1 0x0 PUSH8 0x7FFFFFFFFFFFFFFF DUP3 GT ISZERO PUSH2 0x31A0 JUMPI PUSH1 0x0 DUP1 REVERT JUMPDEST POP PUSH1 0x40 SHL SWAP1 JUMP JUMPDEST PUSH1 0x0 DUP2 PUSH1 0xF SIGNEXTEND PUSH1 0x0 EQ ISZERO PUSH2 0x31BA JUMPI PUSH1 0x0 DUP1 REVERT JUMPDEST PUSH1 0x0 DUP3 PUSH1 0xF SIGNEXTEND PUSH1 0x40 DUP6 PUSH1 0xF SIGNEXTEND SWAP1 SHL DUP2 PUSH2 0x31CF JUMPI INVALID JUMPDEST SDIV SWAP1 POP PUSH1 0x1 PUSH1 0x1 PUSH1 0x7F SHL SUB NOT DUP2 SLT DUP1 ISZERO SWAP1 PUSH2 0x31F1 JUMPI POP PUSH1 0x1 PUSH1 0x1 PUSH1 0x7F SHL SUB DUP2 SGT ISZERO JUMPDEST PUSH2 0x5B8 JUMPI PUSH1 0x0 DUP1 REVERT JUMPDEST PUSH1 0x0 PUSH1 0xF DUP3 SWAP1 SIGNEXTEND PUSH1 0x1 PUSH1 0x1 PUSH1 0x7F SHL SUB NOT EQ ISZERO PUSH2 0x3215 JUMPI PUSH1 0x0 DUP1 REVERT JUMPDEST POP PUSH1 0x0 SUB SWAP1 JUMP JUMPDEST PUSH1 0x0 PUSH1 0x1 PUSH1 0x46 SHL DUP3 PUSH1 0xF SIGNEXTEND SLT PUSH2 0x3231 JUMPI PUSH1 0x0 DUP1 REVERT JUMPDEST PUSH9 0x3FFFFFFFFFFFFFFFFF NOT DUP3 PUSH1 0xF SIGNEXTEND SLT ISZERO PUSH2 0x324E JUMPI POP PUSH1 0x0 PUSH2 0x370 JUMP JUMPDEST PUSH2 0x4EF PUSH1 0x80 DUP4 PUSH1 0xF SIGNEXTEND PUSH17 0x171547652B82FE1777D0FFDA0D23A7D12 MUL SWAP1 SAR PUSH2 0x3936 JUMP JUMPDEST PUSH1 0x0 PUSH1 0xF DUP4 DUP2 SIGNEXTEND SWAP1 DUP4 SWAP1 SIGNEXTEND MUL PUSH1 0x40 SAR PUSH1 0x1 PUSH1 0x1 PUSH1 0x7F SHL SUB NOT DUP2 SLT DUP1 ISZERO SWAP1 PUSH2 0x31F1 JUMPI POP PUSH1 0x1 PUSH1 0x1 PUSH1 0x7F SHL SUB DUP2 SGT ISZERO PUSH2 0x5B8 JUMPI PUSH1 0x0 DUP1 REVERT JUMPDEST PUSH1 0xF SIGNEXTEND PUSH1 0x40 SAR SWAP1 JUMP JUMPDEST PUSH2 0x32BD DUP8 DUP8 DUP8 DUP7 DUP6 PUSH2 0x43E6 JUMP JUMPDEST PUSH2 0x32D6 DUP8 PUSH1 0xE0 ADD MLOAD DUP9 PUSH1 0xA0 ADD MLOAD DUP10 PUSH1 0xC0 ADD MLOAD DUP6 DUP9 PUSH2 0x3101 JUMP JUMPDEST PUSH1 0xC0 SWAP1 SWAP8 ADD SWAP7 SWAP1 SWAP7 MSTORE POP POP POP POP POP POP JUMP JUMPDEST PUSH1 0x0 PUSH2 0x5B8 PUSH2 0x32FA DUP5 PUSH4 0x3B9ACA00 PUSH2 0xEE5 JUMP JUMPDEST DUP4 PUSH2 0xF33 JUMP JUMPDEST PUSH1 0x0 DUP1 PUSH2 0x331F PUSH1 0x64 PUSH2 0x12C8 DUP8 PUSH1 0xE0 ADD MLOAD DUP8 PUSH2 0x18E2 SWAP1 SWAP2 SWAP1 PUSH4 0xFFFFFFFF AND JUMP JUMPDEST SWAP1 POP DUP5 PUSH1 0xA0 ADD MLOAD DUP2 LT ISZERO PUSH2 0x3334 JUMPI POP PUSH1 0xA0 DUP5 ADD MLOAD JUMPDEST DUP5 PUSH1 0xC0 ADD MLOAD DUP2 GT ISZERO PUSH2 0x3347 JUMPI POP PUSH1 0xC0 DUP5 ADD MLOAD JUMPDEST DUP3 ISZERO PUSH2 0x335E JUMPI PUSH2 0x3357 DUP5 DUP3 PUSH2 0x1305 JUMP JUMPDEST SWAP2 POP PUSH2 0x1935 JUMP JUMPDEST DUP4 DUP2 GT PUSH2 0x336D JUMPI DUP1 DUP5 SUB PUSH2 0x470 JUMP JUMPDEST POP PUSH1 0x0 SWAP5 SWAP4 POP POP POP POP JUMP JUMPDEST PUSH1 0x60 ADD MLOAD PUSH1 0x18 SHR PUSH1 0xFF AND SWAP1 JUMP JUMPDEST PUSH1 0x0 DUP1 PUSH2 0x4EF PUSH1 0x1F PUSH2 0x2C52 JUMP JUMPDEST PUSH1 0x0 DUP1 PUSH1 0x0 DUP1 PUSH1 0x0 DUP6 PUSH1 0x20 ADD MLOAD GT ISZERO PUSH2 0x33DF JUMPI PUSH2 0x33DC PUSH2 0x33C3 DUP7 PUSH1 0xC0 ADD MLOAD DUP8 PUSH1 0x20 ADD MLOAD PUSH2 0x18E2 SWAP1 SWAP2 SWAP1 PUSH4 0xFFFFFFFF AND JUMP JUMPDEST PUSH1 0xE0 DUP8 ADD MLOAD PUSH1 0x40 DUP9 ADD MLOAD PUSH2 0x33D6 SWAP2 PUSH2 0x18E2 JUMP JUMPDEST SWAP1 PUSH2 0x3923 JUMP JUMPDEST SWAP1 POP JUMPDEST PUSH1 0x0 PUSH2 0x33EA DUP8 PUSH2 0x44A0 JUMP JUMPDEST SWAP1 POP PUSH2 0x33F6 DUP2 DUP4 PUSH2 0x24EA JUMP JUMPDEST SWAP5 POP DUP2 ISZERO PUSH2 0x340D JUMPI PUSH2 0x340A DUP2 DUP7 PUSH1 0x1 PUSH2 0x3300 JUMP JUMPDEST SWAP4 POP JUMPDEST PUSH1 0x20 DUP7 ADD MLOAD ISZERO PUSH2 0x11CE JUMPI PUSH2 0x3421 DUP6 DUP4 PUSH2 0x44D3 JUMP JUMPDEST SWAP3 POP POP POP SWAP3 POP SWAP3 POP SWAP3 JUMP JUMPDEST PUSH1 0x0 DUP1 PUSH2 0x4EF PUSH1 0x1E PUSH2 0x2C52 JUMP JUMPDEST PUSH1 0x0 DUP1 PUSH2 0x3449 DUP5 PUSH1 0x40 ADD MLOAD PUSH2 0x44EC JUMP JUMPDEST DUP1 ISZERO PUSH2 0x345A JUMPI POP PUSH1 0x0 DUP5 PUSH1 0x60 ADD MLOAD SLT ISZERO JUMPDEST PUSH2 0x3463 JUMPI PUSH1 0x0 DUP1 REVERT JUMPDEST PUSH2 0x3486 DUP4 PUSH1 0x80 ADD MLOAD PUSH2 0x524 DUP7 PUSH1 0x60 ADD MLOAD DUP7 PUSH1 0x60 ADD MLOAD PUSH2 0xEE5 SWAP1 SWAP2 SWAP1 PUSH4 0xFFFFFFFF AND JUMP JUMPDEST SWAP2 POP PUSH2 0x34AB DUP4 PUSH1 0x80 ADD MLOAD PUSH2 0x524 DUP7 PUSH1 0x60 ADD MLOAD DUP7 PUSH1 0x40 ADD MLOAD PUSH2 0xEE5 SWAP1 SWAP2 SWAP1 PUSH4 0xFFFFFFFF AND JUMP JUMPDEST SWAP1 POP SWAP3 POP SWAP3 SWAP1 POP JUMP JUMPDEST PUSH1 0x0 DUP1 PUSH2 0x34BF PUSH2 0x4502 JUMP JUMPDEST PUSH1 0x1 PUSH1 0x1 PUSH1 0xA0 SHL SUB DUP7 AND PUSH1 0x0 SWAP1 DUP2 MSTORE PUSH1 0x20 SWAP2 DUP3 MSTORE PUSH1 0x40 DUP1 DUP3 KECCAK256 DUP8 DUP4 MSTORE DUP4 MSTORE DUP1 DUP3 KECCAK256 DUP7 DUP4 MSTORE SWAP1 SWAP3 MSTORE KECCAK256 SLOAD PUSH1 0xF SWAP1 DUP2 SIGNEXTEND SWAP1 SIGNEXTEND SWAP2 POP POP SWAP4 SWAP3 POP POP POP JUMP JUMPDEST PUSH1 0x0 PUSH1 0x2 DUP3 GT PUSH2 0x350B JUMPI POP PUSH1 0x0 PUSH2 0x470 JUMP JUMPDEST PUSH1 0x0 PUSH2 0x3517 DUP8 DUP8 PUSH2 0x450F JUMP JUMPDEST SWAP1 POP DUP1 PUSH2 0x3525 JUMPI SWAP1 POP PUSH2 0x470 JUMP JUMPDEST PUSH1 0x0 PUSH2 0x3530 DUP6 PUSH2 0x1A6F JUMP JUMPDEST SWAP1 POP DUP6 DUP2 EQ ISZERO PUSH2 0x355A JUMPI POP PUSH21 0x400080000002002000000002000000200000000020 NOT AND SWAP1 POP PUSH2 0x470 JUMP JUMPDEST PUSH1 0x1 JUMPDEST DUP5 DUP2 GT PUSH2 0x359A JUMPI PUSH1 0x0 PUSH2 0x356F DUP3 PUSH2 0x1A90 JUMP JUMPDEST DUP4 ADD SWAP1 POP PUSH1 0x0 PUSH2 0x357F DUP10 DUP4 PUSH2 0x4544 JUMP JUMPDEST POP SWAP1 POP PUSH2 0x358E DUP6 DUP3 PUSH1 0x0 PUSH2 0x464F JUMP JUMPDEST SWAP5 POP POP POP PUSH1 0x1 ADD PUSH2 0x355D JUMP JUMPDEST POP DUP2 SWAP3 POP POP POP PUSH2 0x470 JUMP JUMPDEST PUSH1 0x0 DUP1 PUSH1 0x0 PUSH2 0x35B3 DUP5 PUSH2 0x469A JUMP JUMPDEST SWAP1 POP JUMPDEST DUP1 ISZERO PUSH2 0x3616 JUMPI PUSH1 0x0 PUSH2 0x35C8 DUP10 DUP4 PUSH2 0x46BF JUMP JUMPDEST SWAP1 POP PUSH1 0x0 PUSH2 0x35DA DUP13 DUP13 DUP5 DUP13 DUP13 DUP13 PUSH2 0x4772 JUMP JUMPDEST SWAP1 POP PUSH2 0x35E6 DUP6 DUP3 PUSH2 0x2497 JUMP JUMPDEST SWAP5 POP PUSH1 0x0 DUP2 SLT ISZERO PUSH2 0x35F6 JUMPI PUSH1 0x1 SWAP4 POP JUMPDEST PUSH2 0x3602 DUP7 DUP5 PUSH1 0x0 PUSH2 0x464F JUMP JUMPDEST SWAP6 POP PUSH2 0x360D DUP7 PUSH2 0x469A JUMP JUMPDEST SWAP3 POP POP POP PUSH2 0x35B6 JUMP JUMPDEST POP SWAP8 POP SWAP8 SWAP6 POP POP POP POP POP POP JUMP JUMPDEST PUSH1 0x60 PUSH2 0x1935 DUP4 DUP4 PUSH2 0x47CE JUMP JUMPDEST PUSH1 0x0 DUP1 PUSH2 0x4EF PUSH1 0x6 PUSH2 0x2C52 JUMP JUMPDEST PUSH1 0x0 DUP1 PUSH2 0x4EF PUSH1 0x9 PUSH2 0x2C52 JUMP JUMPDEST PUSH1 0x0 DUP2 PUSH1 0x0 LT PUSH2 0x3658 JUMPI PUSH1 0x0 DUP1 REVERT JUMPDEST PUSH1 0x7 DUP3 GT ISZERO PUSH2 0x3666 JUMPI PUSH1 0x0 DUP1 REVERT JUMPDEST PUSH1 0x4 DUP3 LT PUSH2 0x3677 JUMPI PUSH1 0x4 DUP3 SUB PUSH2 0x3679 JUMP JUMPDEST DUP2 JUMPDEST PUSH1 0x8 MUL SWAP3 SWAP2 POP POP JUMP JUMPDEST PUSH2 0x368A PUSH2 0x4E69 JUMP JUMPDEST PUSH1 0x64 PUSH4 0x3B9ACA00 DUP4 PUSH1 0xFF DUP7 AND PUSH1 0x20 DUP2 LT PUSH2 0x36A0 JUMPI INVALID JUMPDEST BYTE MUL DUP2 PUSH2 0x36A9 JUMPI INVALID JUMPDEST DIV DUP2 MSTORE PUSH1 0x64 PUSH4 0x3B9ACA00 DUP4 PUSH1 0xFF DUP7 AND PUSH1 0x1 ADD PUSH1 0x20 DUP2 LT PUSH2 0x36C5 JUMPI INVALID JUMPDEST BYTE MUL DUP2 PUSH2 0x36CE JUMPI INVALID JUMPDEST DIV DUP2 PUSH1 0x20 ADD DUP2 DUP2 MSTORE POP POP PUSH2 0x36F3 DUP3 PUSH1 0x2 DUP6 PUSH1 0xFF AND ADD PUSH1 0x20 DUP2 LT PUSH2 0x36ED JUMPI INVALID JUMPDEST BYTE PUSH2 0x47E6 JUMP JUMPDEST PUSH1 0x80 DUP3 ADD DUP2 SWAP1 MSTORE PUSH2 0x100 SWAP1 DUP4 PUSH1 0xFF DUP7 AND PUSH1 0x3 ADD PUSH1 0x20 DUP2 LT PUSH2 0x3710 JUMPI INVALID JUMPDEST BYTE MUL DUP2 PUSH2 0x3719 JUMPI INVALID JUMPDEST DIV PUSH1 0x40 DUP3 ADD MSTORE PUSH1 0x80 DUP2 ADD MLOAD PUSH2 0x100 SWAP1 DUP4 PUSH1 0xFF DUP7 AND PUSH1 0x4 ADD PUSH1 0x20 DUP2 LT PUSH2 0x373A JUMPI INVALID JUMPDEST BYTE MUL DUP2 PUSH2 0x3743 JUMPI INVALID JUMPDEST DIV PUSH1 0x60 DUP3 ADD MSTORE PUSH3 0x7A120 DUP3 PUSH1 0xFF DUP6 AND PUSH1 0x5 ADD PUSH1 0x20 DUP2 LT PUSH2 0x375F JUMPI INVALID JUMPDEST BYTE MUL PUSH1 0xA0 DUP3 ADD MSTORE PUSH3 0x2625A0 DUP3 PUSH1 0xFF DUP6 AND PUSH1 0x6 ADD PUSH1 0x20 DUP2 LT PUSH2 0x377C JUMPI INVALID JUMPDEST BYTE MUL PUSH1 0xC0 DUP3 ADD MSTORE DUP2 PUSH1 0xFF DUP5 AND PUSH1 0x7 ADD PUSH1 0x20 DUP2 LT PUSH2 0x3795 JUMPI INVALID JUMPDEST BYTE PUSH1 0xE0 DUP3 ADD MSTORE SWAP3 SWAP2 POP POP JUMP JUMPDEST PUSH1 0x8 DUP2 SWAP1 SHR PUSH1 0xFF SWAP1 SWAP2 AND SHL SWAP1 JUMP JUMPDEST PUSH1 0x0 DUP1 DUP3 SLT PUSH2 0x37BF JUMPI POP DUP1 PUSH2 0x4EF JUMP JUMPDEST DUP3 MLOAD PUSH1 0x20 DUP5 ADD MLOAD PUSH2 0x1A54 SWAP2 SWAP1 PUSH2 0x524 SWAP1 DUP6 SWAP1 PUSH2 0xEE5 JUMP JUMPDEST PUSH1 0x0 PUSH5 0xFFFFFFFFFF DUP3 GT ISZERO PUSH2 0xBD1 JUMPI PUSH1 0x0 DUP1 REVERT JUMPDEST PUSH1 0x0 PUSH1 0x1 PUSH1 0x1 PUSH1 0x50 SHL SUB DUP3 GT ISZERO PUSH2 0xBD1 JUMPI PUSH1 0x0 DUP1 REVERT JUMPDEST PUSH1 0x0 PUSH1 0x1 PUSH1 0x1 PUSH1 0x58 SHL SUB DUP3 GT ISZERO PUSH2 0xBD1 JUMPI PUSH1 0x0 DUP1 REVERT JUMPDEST PUSH1 0x0 PUSH4 0xFFFFFFFF DUP3 GT ISZERO PUSH2 0xBD1 JUMPI PUSH1 0x0 DUP1 REVERT JUMPDEST PUSH1 0x0 DUP2 SLT ISZERO PUSH2 0x3837 JUMPI PUSH1 0x0 DUP1 REVERT JUMPDEST PUSH1 0x0 PUSH2 0x3845 PUSH2 0xFEE DUP5 PUSH2 0x2ABB JUMP JUMPDEST SWAP1 POP PUSH2 0x3851 DUP2 DUP4 PUSH2 0x2497 JUMP JUMPDEST SWAP1 POP PUSH2 0x3860 PUSH2 0xFEE DUP5 DUP4 PUSH2 0x481A JUMP JUMPDEST POP POP POP JUMP JUMPDEST PUSH1 0x0 PUSH2 0x386F PUSH2 0x488E JUMP JUMPDEST PUSH2 0xFFFF DUP5 AND PUSH1 0x0 SWAP1 DUP2 MSTORE PUSH1 0x20 SWAP2 SWAP1 SWAP2 MSTORE PUSH1 0x40 SWAP1 DUP2 SWAP1 KECCAK256 SLOAD SWAP1 MLOAD PUSH4 0xAD1C095D PUSH1 0xE0 SHL DUP2 MSTORE PUSH1 0x1 PUSH1 0x1 PUSH1 0xA0 SHL SUB SWAP1 SWAP2 AND SWAP2 POP DUP2 SWAP1 PUSH4 0xAD1C095D SWAP1 PUSH2 0x38B7 SWAP1 DUP8 SWAP1 DUP7 SWAP1 PUSH1 0x4 ADD PUSH2 0x521C JUMP JUMPDEST PUSH1 0x0 PUSH1 0x40 MLOAD DUP1 DUP4 SUB DUP2 PUSH1 0x0 DUP8 DUP1 EXTCODESIZE ISZERO DUP1 ISZERO PUSH2 0x38D1 JUMPI PUSH1 0x0 DUP1 REVERT JUMPDEST POP GAS CALL ISZERO DUP1 ISZERO PUSH2 0x38E5 JUMPI RETURNDATASIZE PUSH1 0x0 DUP1 RETURNDATACOPY RETURNDATASIZE PUSH1 0x0 REVERT JUMPDEST POP POP POP POP POP POP POP POP JUMP JUMPDEST PUSH1 0x0 PUSH2 0x4EF DUP3 PUSH1 0x20 PUSH2 0x489B JUMP JUMPDEST PUSH1 0x0 PUSH2 0x4EF DUP3 PUSH1 0x48 PUSH2 0x489B JUMP JUMPDEST PUSH1 0x0 PUSH2 0x4EF DUP3 PUSH1 0x28 PUSH2 0x489B JUMP JUMPDEST PUSH1 0x0 PUSH2 0x4EF DUP3 PUSH1 0x30 PUSH2 0x489B JUMP JUMPDEST PUSH1 0x0 PUSH2 0x5B8 PUSH2 0x2744 DUP5 PUSH4 0x3B9ACA00 PUSH2 0x18E2 JUMP JUMPDEST PUSH1 0x0 PUSH1 0x1 PUSH1 0x46 SHL DUP3 PUSH1 0xF SIGNEXTEND SLT PUSH2 0x394B JUMPI PUSH1 0x0 DUP1 REVERT JUMPDEST PUSH9 0x3FFFFFFFFFFFFFFFFF NOT DUP3 PUSH1 0xF SIGNEXTEND SLT ISZERO PUSH2 0x3968 JUMPI POP PUSH1 0x0 PUSH2 0x370 JUMP JUMPDEST PUSH1 0x1 PUSH1 0x7F SHL PUSH1 0x0 PUSH8 0x8000000000000000 DUP5 AND PUSH1 0xF SIGNEXTEND SGT ISZERO PUSH2 0x399A JUMPI PUSH17 0x16A09E667F3BCC908B2FB1366EA957D3E MUL PUSH1 0x80 SHR JUMPDEST PUSH1 0x0 DUP4 PUSH8 0x4000000000000000 AND PUSH1 0xF SIGNEXTEND SGT ISZERO PUSH2 0x39C7 JUMPI PUSH17 0x1306FE0A31B7152DE8D5A46305C85EDEC MUL PUSH1 0x80 SHR JUMPDEST PUSH1 0x0 DUP4 PUSH8 0x2000000000000000 AND PUSH1 0xF SIGNEXTEND SGT ISZERO PUSH2 0x39F4 JUMPI PUSH17 0x1172B83C7D517ADCDF7C8C50EB14A791F MUL PUSH1 0x80 SHR JUMPDEST PUSH1 0x0 DUP4 PUSH8 0x1000000000000000 AND PUSH1 0xF SIGNEXTEND SGT ISZERO PUSH2 0x3A21 JUMPI PUSH17 0x10B5586CF9890F6298B92B71842A98363 MUL PUSH1 0x80 SHR JUMPDEST PUSH1 0x0 DUP4 PUSH8 0x800000000000000 AND PUSH1 0xF SIGNEXTEND SGT ISZERO PUSH2 0x3A4E JUMPI PUSH17 0x1059B0D31585743AE7C548EB68CA417FD MUL PUSH1 0x80 SHR JUMPDEST PUSH1 0x0 DUP4 PUSH8 0x400000000000000 AND PUSH1 0xF SIGNEXTEND SGT ISZERO PUSH2 0x3A7B JUMPI PUSH17 0x102C9A3E778060EE6F7CACA4F7A29BDE8 MUL PUSH1 0x80 SHR JUMPDEST PUSH1 0x0 DUP4 PUSH8 0x200000000000000 AND PUSH1 0xF SIGNEXTEND SGT ISZERO PUSH2 0x3AA8 JUMPI PUSH17 0x10163DA9FB33356D84A66AE336DCDFA3F MUL PUSH1 0x80 SHR JUMPDEST PUSH1 0x0 DUP4 PUSH1 0x1 PUSH1 0x38 SHL AND PUSH1 0xF SIGNEXTEND SGT ISZERO PUSH2 0x3AD1 JUMPI PUSH17 0x100B1AFA5ABCBED6129AB13EC11DC9543 MUL PUSH1 0x80 SHR JUMPDEST PUSH1 0x0 DUP4 PUSH7 0x80000000000000 AND PUSH1 0xF SIGNEXTEND SGT ISZERO PUSH2 0x3AFD JUMPI PUSH17 0x10058C86DA1C09EA1FF19D294CF2F679B MUL PUSH1 0x80 SHR JUMPDEST PUSH1 0x0 DUP4 PUSH7 0x40000000000000 AND PUSH1 0xF SIGNEXTEND SGT ISZERO PUSH2 0x3B29 JUMPI PUSH17 0x1002C605E2E8CEC506D21BFC89A23A00F MUL PUSH1 0x80 SHR JUMPDEST PUSH1 0x0 DUP4 PUSH7 0x20000000000000 AND PUSH1 0xF SIGNEXTEND SGT ISZERO PUSH2 0x3B55 JUMPI PUSH17 0x100162F3904051FA128BCA9C55C31E5DF MUL PUSH1 0x80 SHR JUMPDEST PUSH1 0x0 DUP4 PUSH7 0x10000000000000 AND PUSH1 0xF SIGNEXTEND SGT ISZERO PUSH2 0x3B81 JUMPI PUSH17 0x1000B175EFFDC76BA38E31671CA939725 MUL PUSH1 0x80 SHR JUMPDEST PUSH1 0x0 DUP4 PUSH7 0x8000000000000 AND PUSH1 0xF SIGNEXTEND SGT ISZERO PUSH2 0x3BAD JUMPI PUSH17 0x100058BA01FB9F96D6CACD4B180917C3D MUL PUSH1 0x80 SHR JUMPDEST PUSH1 0x0 DUP4 PUSH7 0x4000000000000 AND PUSH1 0xF SIGNEXTEND SGT ISZERO PUSH2 0x3BD9 JUMPI PUSH17 0x10002C5CC37DA9491D0985C348C68E7B3 MUL PUSH1 0x80 SHR JUMPDEST PUSH1 0x0 DUP4 PUSH7 0x2000000000000 AND PUSH1 0xF SIGNEXTEND SGT ISZERO PUSH2 0x3C05 JUMPI PUSH17 0x1000162E525EE054754457D5995292026 MUL PUSH1 0x80 SHR JUMPDEST PUSH1 0x0 DUP4 PUSH1 0x1 PUSH1 0x30 SHL AND PUSH1 0xF SIGNEXTEND SGT ISZERO PUSH2 0x3C2E JUMPI PUSH17 0x10000B17255775C040618BF4A4ADE83FC MUL PUSH1 0x80 SHR JUMPDEST PUSH1 0x0 DUP4 PUSH6 0x800000000000 AND PUSH1 0xF SIGNEXTEND SGT ISZERO PUSH2 0x3C59 JUMPI PUSH17 0x1000058B91B5BC9AE2EED81E9B7D4CFAB MUL PUSH1 0x80 SHR JUMPDEST PUSH1 0x0 DUP4 PUSH6 0x400000000000 AND PUSH1 0xF SIGNEXTEND SGT ISZERO PUSH2 0x3C84 JUMPI PUSH17 0x100002C5C89D5EC6CA4D7C8ACC017B7C9 MUL PUSH1 0x80 SHR JUMPDEST PUSH1 0x0 DUP4 PUSH6 0x200000000000 AND PUSH1 0xF SIGNEXTEND SGT ISZERO PUSH2 0x3CAF JUMPI PUSH17 0x10000162E43F4F831060E02D839A9D16D MUL PUSH1 0x80 SHR JUMPDEST PUSH1 0x0 DUP4 PUSH6 0x100000000000 AND PUSH1 0xF SIGNEXTEND SGT ISZERO PUSH2 0x3CDA JUMPI PUSH17 0x100000B1721BCFC99D9F890EA06911763 MUL PUSH1 0x80 SHR JUMPDEST PUSH1 0x0 DUP4 PUSH6 0x80000000000 AND PUSH1 0xF SIGNEXTEND SGT ISZERO PUSH2 0x3D05 JUMPI PUSH17 0x10000058B90CF1E6D97F9CA14DBCC1628 MUL PUSH1 0x80 SHR JUMPDEST PUSH1 0x0 DUP4 PUSH6 0x40000000000 AND PUSH1 0xF SIGNEXTEND SGT ISZERO PUSH2 0x3D30 JUMPI PUSH17 0x1000002C5C863B73F016468F6BAC5CA2B MUL PUSH1 0x80 SHR JUMPDEST PUSH1 0x0 DUP4 PUSH6 0x20000000000 AND PUSH1 0xF SIGNEXTEND SGT ISZERO PUSH2 0x3D5B JUMPI PUSH17 0x100000162E430E5A18F6119E3C02282A5 MUL PUSH1 0x80 SHR JUMPDEST PUSH1 0x0 DUP4 PUSH1 0x1 PUSH1 0x28 SHL AND PUSH1 0xF SIGNEXTEND SGT ISZERO PUSH2 0x3D84 JUMPI PUSH17 0x1000000B1721835514B86E6D96EFD1BFE MUL PUSH1 0x80 SHR JUMPDEST PUSH1 0x0 DUP4 PUSH5 0x8000000000 AND PUSH1 0xF SIGNEXTEND SGT ISZERO PUSH2 0x3DAE JUMPI PUSH17 0x100000058B90C0B48C6BE5DF846C5B2EF MUL PUSH1 0x80 SHR JUMPDEST PUSH1 0x0 DUP4 PUSH5 0x4000000000 AND PUSH1 0xF SIGNEXTEND SGT ISZERO PUSH2 0x3DD8 JUMPI PUSH17 0x10000002C5C8601CC6B9E94213C72737A MUL PUSH1 0x80 SHR JUMPDEST PUSH1 0x0 DUP4 PUSH5 0x2000000000 AND PUSH1 0xF SIGNEXTEND SGT ISZERO PUSH2 0x3E02 JUMPI PUSH17 0x1000000162E42FFF037DF38AA2B219F06 MUL PUSH1 0x80 SHR JUMPDEST PUSH1 0x0 DUP4 PUSH5 0x1000000000 AND PUSH1 0xF SIGNEXTEND SGT ISZERO PUSH2 0x3E2C JUMPI PUSH17 0x10000000B17217FBA9C739AA5819F44F9 MUL PUSH1 0x80 SHR JUMPDEST PUSH1 0x0 DUP4 PUSH5 0x800000000 AND PUSH1 0xF SIGNEXTEND SGT ISZERO PUSH2 0x3E56 JUMPI PUSH17 0x1000000058B90BFCDEE5ACD3C1CEDC823 MUL PUSH1 0x80 SHR JUMPDEST PUSH1 0x0 DUP4 PUSH5 0x400000000 AND PUSH1 0xF SIGNEXTEND SGT ISZERO PUSH2 0x3E80 JUMPI PUSH17 0x100000002C5C85FE31F35A6A30DA1BE50 MUL PUSH1 0x80 SHR JUMPDEST PUSH1 0x0 DUP4 PUSH5 0x200000000 AND PUSH1 0xF SIGNEXTEND SGT ISZERO PUSH2 0x3EAA JUMPI PUSH17 0x10000000162E42FF0999CE3541B9FFFCF MUL PUSH1 0x80 SHR JUMPDEST PUSH1 0x0 DUP4 PUSH5 0x100000000 AND PUSH1 0xF SIGNEXTEND SGT ISZERO PUSH2 0x3ED4 JUMPI PUSH17 0x100000000B17217F80F4EF5AADDA45554 MUL PUSH1 0x80 SHR JUMPDEST PUSH1 0x0 DUP4 PUSH4 0x80000000 AND PUSH1 0xF SIGNEXTEND SGT ISZERO PUSH2 0x3EFD JUMPI PUSH17 0x10000000058B90BFBF8479BD5A81B51AD MUL PUSH1 0x80 SHR JUMPDEST PUSH1 0x0 DUP4 PUSH4 0x40000000 AND PUSH1 0xF SIGNEXTEND SGT ISZERO PUSH2 0x3F26 JUMPI PUSH17 0x1000000002C5C85FDF84BD62AE30A74CC MUL PUSH1 0x80 SHR JUMPDEST PUSH1 0x0 DUP4 PUSH4 0x20000000 AND PUSH1 0xF SIGNEXTEND SGT ISZERO PUSH2 0x3F4F JUMPI PUSH17 0x100000000162E42FEFB2FED257559BDAA MUL PUSH1 0x80 SHR JUMPDEST PUSH1 0x0 DUP4 PUSH4 0x10000000 AND PUSH1 0xF SIGNEXTEND SGT ISZERO PUSH2 0x3F78 JUMPI PUSH17 0x1000000000B17217F7D5A7716BBA4A9AE MUL PUSH1 0x80 SHR JUMPDEST PUSH1 0x0 DUP4 PUSH4 0x8000000 AND PUSH1 0xF SIGNEXTEND SGT ISZERO PUSH2 0x3FA1 JUMPI PUSH17 0x100000000058B90BFBE9DDBAC5E109CCE MUL PUSH1 0x80 SHR JUMPDEST PUSH1 0x0 DUP4 PUSH4 0x4000000 AND PUSH1 0xF SIGNEXTEND SGT ISZERO PUSH2 0x3FCA JUMPI PUSH17 0x10000000002C5C85FDF4B15DE6F17EB0D MUL PUSH1 0x80 SHR JUMPDEST PUSH1 0x0 DUP4 PUSH4 0x2000000 AND PUSH1 0xF SIGNEXTEND SGT ISZERO PUSH2 0x3FF3 JUMPI PUSH17 0x1000000000162E42FEFA494F1478FDE05 MUL PUSH1 0x80 SHR JUMPDEST PUSH1 0x0 DUP4 PUSH4 0x1000000 AND PUSH1 0xF SIGNEXTEND SGT ISZERO PUSH2 0x401C JUMPI PUSH17 0x10000000000B17217F7D20CF927C8E94C MUL PUSH1 0x80 SHR JUMPDEST PUSH1 0x0 DUP4 PUSH3 0x800000 AND PUSH1 0xF SIGNEXTEND SGT ISZERO PUSH2 0x4044 JUMPI PUSH17 0x1000000000058B90BFBE8F71CB4E4B33D MUL PUSH1 0x80 SHR JUMPDEST PUSH1 0x0 DUP4 PUSH3 0x400000 AND PUSH1 0xF SIGNEXTEND SGT ISZERO PUSH2 0x406C JUMPI PUSH17 0x100000000002C5C85FDF477B662B26945 MUL PUSH1 0x80 SHR JUMPDEST PUSH1 0x0 DUP4 PUSH3 0x200000 AND PUSH1 0xF SIGNEXTEND SGT ISZERO PUSH2 0x4094 JUMPI PUSH17 0x10000000000162E42FEFA3AE53369388C MUL PUSH1 0x80 SHR JUMPDEST PUSH1 0x0 DUP4 PUSH3 0x100000 AND PUSH1 0xF SIGNEXTEND SGT ISZERO PUSH2 0x40BC JUMPI PUSH17 0x100000000000B17217F7D1D351A389D40 MUL PUSH1 0x80 SHR JUMPDEST PUSH1 0x0 DUP4 PUSH3 0x80000 AND PUSH1 0xF SIGNEXTEND SGT ISZERO PUSH2 0x40E4 JUMPI PUSH17 0x10000000000058B90BFBE8E8B2D3D4EDE MUL PUSH1 0x80 SHR JUMPDEST PUSH1 0x0 DUP4 PUSH3 0x40000 AND PUSH1 0xF SIGNEXTEND SGT ISZERO PUSH2 0x410C JUMPI PUSH17 0x1000000000002C5C85FDF4741BEA6E77E MUL PUSH1 0x80 SHR JUMPDEST PUSH1 0x0 DUP4 PUSH3 0x20000 AND PUSH1 0xF SIGNEXTEND SGT ISZERO PUSH2 0x4134 JUMPI PUSH17 0x100000000000162E42FEFA39FE95583C2 MUL PUSH1 0x80 SHR JUMPDEST PUSH1 0x0 DUP4 PUSH3 0x10000 AND PUSH1 0xF SIGNEXTEND SGT ISZERO PUSH2 0x415C JUMPI PUSH17 0x1000000000000B17217F7D1CFB72B45E1 MUL PUSH1 0x80 SHR JUMPDEST PUSH1 0x0 DUP4 PUSH2 0x8000 AND PUSH1 0xF SIGNEXTEND SGT ISZERO PUSH2 0x4183 JUMPI PUSH17 0x100000000000058B90BFBE8E7CC35C3F0 MUL PUSH1 0x80 SHR JUMPDEST PUSH1 0x0 DUP4 PUSH2 0x4000 AND PUSH1 0xF SIGNEXTEND SGT ISZERO PUSH2 0x41AA JUMPI PUSH17 0x10000000000002C5C85FDF473E242EA38 MUL PUSH1 0x80 SHR JUMPDEST PUSH1 0x0 DUP4 PUSH2 0x2000 AND PUSH1 0xF SIGNEXTEND SGT ISZERO PUSH2 0x41D1 JUMPI PUSH17 0x1000000000000162E42FEFA39F02B772C MUL PUSH1 0x80 SHR JUMPDEST PUSH1 0x0 DUP4 PUSH2 0x1000 AND PUSH1 0xF SIGNEXTEND SGT ISZERO PUSH2 0x41F8 JUMPI PUSH17 0x10000000000000B17217F7D1CF7D83C1A MUL PUSH1 0x80 SHR JUMPDEST PUSH1 0x0 DUP4 PUSH2 0x800 AND PUSH1 0xF SIGNEXTEND SGT ISZERO PUSH2 0x421F JUMPI PUSH17 0x1000000000000058B90BFBE8E7BDCBE2E MUL PUSH1 0x80 SHR JUMPDEST PUSH1 0x0 DUP4 PUSH2 0x400 AND PUSH1 0xF SIGNEXTEND SGT ISZERO PUSH2 0x4246 JUMPI PUSH17 0x100000000000002C5C85FDF473DEA871F MUL PUSH1 0x80 SHR JUMPDEST PUSH1 0x0 DUP4 PUSH2 0x200 AND PUSH1 0xF SIGNEXTEND SGT ISZERO PUSH2 0x426D JUMPI PUSH17 0x10000000000000162E42FEFA39EF44D91 MUL PUSH1 0x80 SHR JUMPDEST PUSH1 0x0 DUP4 PUSH2 0x100 AND PUSH1 0xF SIGNEXTEND SGT ISZERO PUSH2 0x4294 JUMPI PUSH17 0x100000000000000B17217F7D1CF79E949 MUL PUSH1 0x80 SHR JUMPDEST PUSH1 0x0 DUP4 PUSH1 0x80 AND PUSH1 0xF SIGNEXTEND SGT ISZERO PUSH2 0x42BA JUMPI PUSH17 0x10000000000000058B90BFBE8E7BCE544 MUL PUSH1 0x80 SHR JUMPDEST PUSH1 0x0 DUP4 PUSH1 0x40 AND PUSH1 0xF SIGNEXTEND SGT ISZERO PUSH2 0x42E0 JUMPI PUSH17 0x1000000000000002C5C85FDF473DE6ECA MUL PUSH1 0x80 SHR JUMPDEST PUSH1 0x0 DUP4 PUSH1 0x20 AND PUSH1 0xF SIGNEXTEND SGT ISZERO PUSH2 0x4306 JUMPI PUSH17 0x100000000000000162E42FEFA39EF366F MUL PUSH1 0x80 SHR JUMPDEST PUSH1 0x0 DUP4 PUSH1 0x10 AND PUSH1 0xF SIGNEXTEND SGT ISZERO PUSH2 0x432C JUMPI PUSH17 0x1000000000000000B17217F7D1CF79AFA MUL PUSH1 0x80 SHR JUMPDEST PUSH1 0x0 DUP4 PUSH1 0x8 AND PUSH1 0xF SIGNEXTEND SGT ISZERO PUSH2 0x4352 JUMPI PUSH17 0x100000000000000058B90BFBE8E7BCD6D MUL PUSH1 0x80 SHR JUMPDEST PUSH1 0x0 DUP4 PUSH1 0x4 AND PUSH1 0xF SIGNEXTEND SGT ISZERO PUSH2 0x4378 JUMPI PUSH17 0x10000000000000002C5C85FDF473DE6B2 MUL PUSH1 0x80 SHR JUMPDEST PUSH1 0x0 DUP4 PUSH1 0x2 AND PUSH1 0xF SIGNEXTEND SGT ISZERO PUSH2 0x439E JUMPI PUSH17 0x1000000000000000162E42FEFA39EF358 MUL PUSH1 0x80 SHR JUMPDEST PUSH1 0x0 DUP4 PUSH1 0x1 AND PUSH1 0xF SIGNEXTEND SGT ISZERO PUSH2 0x43C4 JUMPI PUSH17 0x10000000000000000B17217F7D1CF79AB MUL PUSH1 0x80 SHR JUMPDEST PUSH1 0xF DUP4 DUP2 SIGNEXTEND PUSH1 0x40 SAR PUSH1 0x3F SUB SWAP1 SIGNEXTEND SHR PUSH1 0x1 PUSH1 0x1 PUSH1 0x7F SHL SUB DUP2 GT ISZERO PUSH2 0x4EF JUMPI PUSH1 0x0 DUP1 REVERT JUMPDEST PUSH1 0x0 PUSH2 0x43F0 PUSH2 0x30F4 JUMP JUMPDEST PUSH1 0x0 DUP7 DUP2 MSTORE PUSH1 0x20 DUP3 DUP2 MSTORE PUSH1 0x40 DUP1 DUP4 KECCAK256 DUP9 DUP5 MSTORE DUP3 MSTORE DUP1 DUP4 KECCAK256 DUP7 DUP5 MSTORE DUP3 MSTORE SWAP2 DUP3 SWAP1 KECCAK256 DUP1 DUP11 MSTORE SWAP1 DUP10 ADD DUP8 SWAP1 MSTORE DUP1 SLOAD PUSH1 0x1 PUSH1 0x1 PUSH1 0x50 SHL SUB DUP1 DUP3 AND SWAP4 DUP12 ADD SWAP4 SWAP1 SWAP4 MSTORE PUSH1 0x1 PUSH1 0x50 SHL DUP2 DIV SWAP1 SWAP3 AND PUSH1 0x60 DUP11 ADD MSTORE PUSH4 0xFFFFFFFF PUSH1 0x1 PUSH1 0xA0 SHL DUP4 DIV DUP2 AND PUSH1 0xA0 DUP12 ADD MSTORE PUSH1 0x1 PUSH1 0xC0 SHL DUP4 DIV DUP2 AND PUSH1 0xC0 DUP12 ADD MSTORE PUSH1 0x1 PUSH1 0xE0 SHL SWAP1 SWAP3 DIV SWAP1 SWAP2 AND PUSH1 0xE0 DUP10 ADD MSTORE SWAP1 SWAP2 POP DUP1 DUP5 ISZERO PUSH2 0x448F JUMPI PUSH1 0x1 DUP3 ADD SLOAD PUSH1 0x1 PUSH1 0x1 PUSH1 0x50 SHL SUB AND PUSH1 0x80 DUP10 ADD MSTORE PUSH2 0x38E5 JUMP JUMPDEST PUSH1 0x0 PUSH1 0x80 DUP10 ADD MSTORE POP POP POP POP POP POP POP POP JUMP JUMPDEST PUSH2 0x44A8 PUSH2 0x4E69 JUMP JUMPDEST PUSH1 0x0 PUSH2 0x44B2 PUSH2 0x2B31 JUMP JUMPDEST PUSH2 0xFFFF DUP5 AND PUSH1 0x0 SWAP1 DUP2 MSTORE PUSH1 0x20 SWAP2 SWAP1 SWAP2 MSTORE PUSH1 0x40 DUP2 KECCAK256 SLOAD SWAP2 POP PUSH2 0x5B8 SWAP1 DUP3 PUSH2 0x3682 JUMP JUMPDEST PUSH1 0x0 PUSH2 0x5B8 PUSH2 0x44E2 DUP5 DUP5 PUSH2 0x18E2 JUMP JUMPDEST PUSH4 0x3B9ACA00 PUSH2 0x2061 JUMP JUMPDEST PUSH1 0x0 PUSH1 0x2 DUP3 LT DUP1 ISZERO SWAP1 PUSH2 0x4EF JUMPI POP POP PUSH1 0x8 LT ISZERO SWAP1 JUMP JUMPDEST PUSH1 0x0 DUP1 PUSH2 0x4EF PUSH1 0xC PUSH2 0x2C52 JUMP JUMPDEST PUSH1 0x0 DUP1 PUSH2 0x451A PUSH2 0x48AE JUMP JUMPDEST PUSH1 0x1 PUSH1 0x1 PUSH1 0xA0 SHL SUB DUP6 AND PUSH1 0x0 SWAP1 DUP2 MSTORE PUSH1 0x20 SWAP2 DUP3 MSTORE PUSH1 0x40 DUP1 DUP3 KECCAK256 DUP7 DUP4 MSTORE SWAP1 SWAP3 MSTORE KECCAK256 SLOAD SWAP2 POP POP SWAP3 SWAP2 POP POP JUMP JUMPDEST PUSH1 0x0 DUP1 PUSH1 0x0 PUSH2 0x4552 DUP6 PUSH2 0x48BB JUMP JUMPDEST SWAP1 POP PUSH3 0x15180 DUP5 MOD ISZERO PUSH2 0x456C JUMPI PUSH1 0x0 DUP1 SWAP3 POP SWAP3 POP POP PUSH2 0x4648 JUMP JUMPDEST DUP4 DUP2 LT PUSH2 0x4580 JUMPI PUSH1 0x0 DUP1 SWAP3 POP SWAP3 POP POP PUSH2 0x4648 JUMP JUMPDEST PUSH3 0x15180 DUP2 DUP6 SUB DIV PUSH1 0x5A DUP2 GT PUSH2 0x459D JUMPI SWAP3 POP PUSH1 0x1 SWAP2 POP PUSH2 0x4648 SWAP1 POP JUMP JUMPDEST PUSH2 0x168 DUP2 GT PUSH2 0x45DC JUMPI PUSH1 0x0 PUSH3 0x15180 PUSH3 0x7E900 DUP5 MOD DIV DUP3 ADD PUSH1 0x59 NOT ADD SWAP1 POP PUSH1 0x6 DUP2 DIV PUSH1 0x5A ADD PUSH1 0x6 DUP3 DUP2 PUSH2 0x45CC JUMPI INVALID JUMPDEST MOD PUSH1 0x0 EQ SWAP5 POP SWAP5 POP POP POP POP PUSH2 0x4648 JUMP JUMPDEST PUSH2 0x870 DUP2 GT PUSH2 0x460C JUMPI PUSH1 0x0 PUSH3 0x15180 PUSH3 0x278D00 DUP5 MOD DIV DUP3 ADD PUSH2 0x167 NOT ADD SWAP1 POP PUSH1 0x1E DUP2 DIV PUSH1 0x87 ADD PUSH1 0x1E DUP3 DUP2 PUSH2 0x45CC JUMPI INVALID JUMPDEST PUSH2 0x1DE2 DUP2 GT PUSH2 0x463C JUMPI PUSH1 0x0 PUSH3 0x15180 PUSH3 0x76A700 DUP5 MOD DIV DUP3 ADD PUSH2 0x86F NOT ADD SWAP1 POP PUSH1 0x5A DUP2 DIV PUSH1 0xC3 ADD PUSH1 0x5A DUP3 DUP2 PUSH2 0x45CC JUMPI INVALID JUMPDEST PUSH2 0x100 PUSH1 0x0 SWAP4 POP SWAP4 POP POP POP JUMPDEST SWAP3 POP SWAP3 SWAP1 POP JUMP JUMPDEST PUSH1 0x0 PUSH1 0x1 DUP4 LT ISZERO DUP1 ISZERO PUSH2 0x4664 JUMPI POP PUSH2 0x100 DUP4 GT ISZERO JUMPDEST PUSH2 0x466D JUMPI PUSH1 0x0 DUP1 REVERT JUMPDEST DUP2 ISZERO PUSH2 0x4686 JUMPI POP PUSH1 0x1 PUSH1 0xFF SHL PUSH1 0x0 NOT DUP4 ADD SHR DUP4 OR PUSH2 0x5B8 JUMP JUMPDEST POP PUSH1 0x1 PUSH1 0xFF SHL PUSH1 0x0 NOT DUP4 ADD SHR NOT DUP4 AND PUSH2 0x5B8 JUMP JUMPDEST PUSH1 0x0 DUP2 PUSH2 0x46A9 JUMPI POP PUSH1 0x0 PUSH2 0x370 JUMP JUMPDEST PUSH2 0x46B2 DUP3 PUSH2 0x48D7 JUMP JUMPDEST PUSH1 0xFF SUB PUSH1 0x1 ADD SWAP1 POP SWAP2 SWAP1 POP JUMP JUMPDEST PUSH1 0x0 DUP2 PUSH2 0x46CB JUMPI PUSH1 0x0 DUP1 REVERT JUMPDEST PUSH2 0x100 DUP3 GT ISZERO PUSH2 0x46DA JUMPI PUSH1 0x0 DUP1 REVERT JUMPDEST PUSH1 0x0 PUSH2 0x46E5 DUP5 PUSH2 0x48BB JUMP JUMPDEST SWAP1 POP PUSH1 0x0 PUSH1 0x5A DUP5 GT PUSH2 0x4700 JUMPI POP PUSH3 0x15180 DUP4 MUL ADD SWAP1 POP PUSH2 0x4EF JUMP JUMPDEST PUSH1 0x87 DUP5 GT PUSH2 0x4728 JUMPI POP PUSH1 0x59 NOT DUP4 ADD PUSH3 0x7E900 SWAP1 DUP2 MUL SWAP1 DUP3 MOD SWAP1 SWAP2 SUB ADD PUSH3 0x76A700 ADD SWAP1 POP PUSH2 0x4EF JUMP JUMPDEST PUSH1 0xC3 DUP5 GT PUSH2 0x4751 JUMPI POP PUSH1 0x86 NOT DUP4 ADD PUSH3 0x278D00 SWAP1 DUP2 MUL SWAP1 DUP3 MOD SWAP1 SWAP2 SUB ADD PUSH4 0x1DA9C00 ADD SWAP1 POP PUSH2 0x4EF JUMP JUMPDEST POP PUSH1 0xC2 NOT DUP4 ADD PUSH3 0x76A700 SWAP1 DUP2 MUL SWAP1 DUP3 MOD SWAP1 SWAP2 SUB ADD PUSH4 0xB1FA800 ADD SWAP1 POP PUSH2 0x4EF JUMP JUMPDEST PUSH1 0x0 DUP1 PUSH2 0x4780 DUP9 DUP9 DUP9 PUSH2 0x34B4 JUMP JUMPDEST SWAP1 POP DUP5 DUP7 GT PUSH2 0x4790 JUMPI SWAP1 POP PUSH2 0x912 JUMP JUMPDEST DUP3 ISZERO PUSH2 0x47AA JUMPI PUSH2 0x47A2 DUP5 DUP3 DUP9 DUP9 PUSH2 0x1489 JUMP JUMPDEST SWAP2 POP POP PUSH2 0x912 JUMP JUMPDEST PUSH1 0x0 PUSH2 0x47B7 DUP6 DUP9 DUP9 PUSH2 0x14D9 JUMP JUMPDEST SWAP1 POP PUSH2 0x47C5 DUP3 DUP9 DUP9 DUP5 PUSH2 0x15C2 JUMP JUMPDEST SWAP3 POP POP POP PUSH2 0x912 JUMP JUMPDEST PUSH1 0x60 DUP1 PUSH2 0x47DB DUP5 DUP5 PUSH2 0x4970 JUMP JUMPDEST SWAP2 POP PUSH2 0x34AB DUP3 PUSH2 0x4A88 JUMP JUMPDEST PUSH1 0x0 DUP2 PUSH1 0xFF AND PUSH1 0x96 LT PUSH2 0x4801 JUMPI PUSH1 0xFF DUP3 AND PUSH3 0x2625A0 MUL PUSH2 0x4EF JUMP JUMPDEST POP PUSH1 0x95 NOT PUSH1 0xFF SWAP2 SWAP1 SWAP2 AND ADD PUSH3 0xE4E1C0 MUL PUSH4 0x165A0BC0 ADD SWAP1 JUMP JUMPDEST PUSH1 0x0 DUP2 SLT ISZERO PUSH2 0x4828 JUMPI PUSH1 0x0 DUP1 REVERT JUMPDEST PUSH1 0x0 PUSH2 0x4832 PUSH2 0x362F JUMP JUMPDEST PUSH1 0x1 PUSH1 0x1 PUSH1 0xA0 SHL SUB DUP6 AND PUSH1 0x0 SWAP1 DUP2 MSTORE PUSH1 0x20 DUP3 DUP2 MSTORE PUSH1 0x40 DUP1 DUP4 KECCAK256 PUSH2 0xFFFF DUP9 AND DUP5 MSTORE SWAP1 SWAP2 MSTORE SWAP1 KECCAK256 SWAP1 SWAP2 POP PUSH2 0x4863 DUP4 PUSH2 0x137D JUMP JUMPDEST DUP2 SLOAD PUSH1 0xA SWAP2 SWAP1 SWAP2 SIGNEXTEND PUSH1 0x1 PUSH1 0x1 PUSH1 0x58 SHL SUB AND PUSH1 0x1 PUSH1 0xA8 SHL MUL PUSH1 0x1 PUSH1 0x1 PUSH1 0xA8 SHL SUB SWAP1 SWAP2 AND OR SWAP1 SSTORE POP POP POP POP JUMP JUMPDEST PUSH1 0x0 DUP1 PUSH2 0x4EF PUSH1 0x21 PUSH2 0x2C52 JUMP JUMPDEST PUSH1 0x60 SWAP1 SWAP2 ADD MLOAD PUSH1 0xFF SWAP2 SHR AND PUSH3 0x2625A0 MUL SWAP1 JUMP JUMPDEST PUSH1 0x0 DUP1 PUSH2 0x4EF PUSH1 0xB PUSH2 0x2C52 JUMP JUMPDEST PUSH1 0x0 PUSH3 0x15180 DUP3 LT ISZERO PUSH2 0x48CD JUMPI PUSH1 0x0 DUP1 REVERT JUMPDEST PUSH3 0x15180 DUP3 PUSH2 0x1A87 JUMP JUMPDEST PUSH1 0x0 DUP2 PUSH2 0x48E3 JUMPI PUSH1 0x0 DUP1 REVERT JUMPDEST PUSH1 0x1 PUSH1 0x80 SHL DUP3 LT PUSH2 0x48F6 JUMPI PUSH1 0x80 SWAP2 DUP3 SHR SWAP2 ADD JUMPDEST PUSH1 0x1 PUSH1 0x40 SHL DUP3 LT PUSH2 0x4909 JUMPI PUSH1 0x40 SWAP2 DUP3 SHR SWAP2 ADD JUMPDEST PUSH5 0x100000000 DUP3 LT PUSH2 0x491D JUMPI PUSH1 0x20 SWAP2 DUP3 SHR SWAP2 ADD JUMPDEST PUSH3 0x10000 DUP3 LT PUSH2 0x492F JUMPI PUSH1 0x10 SWAP2 DUP3 SHR SWAP2 ADD JUMPDEST PUSH2 0x100 DUP3 LT PUSH2 0x4940 JUMPI PUSH1 0x8 SWAP2 DUP3 SHR SWAP2 ADD JUMPDEST PUSH1 0x10 DUP3 LT PUSH2 0x4950 JUMPI PUSH1 0x4 SWAP2 DUP3 SHR SWAP2 ADD JUMPDEST PUSH1 0x4 DUP3 LT PUSH2 0x4960 JUMPI PUSH1 0x2 SWAP2 DUP3 SHR SWAP2 ADD JUMPDEST PUSH1 0x2 DUP3 LT PUSH2 0x370 JUMPI PUSH1 0x1 ADD SWAP2 SWAP1 POP JUMP JUMPDEST PUSH1 0x60 PUSH1 0x8 DUP3 PUSH1 0xFF AND GT ISZERO PUSH2 0x4983 JUMPI PUSH1 0x0 DUP1 REVERT JUMPDEST PUSH1 0x0 PUSH2 0x498D PUSH2 0x4C49 JUMP JUMPDEST PUSH1 0x1 PUSH1 0x1 PUSH1 0xA0 SHL SUB DUP6 AND PUSH1 0x0 SWAP1 DUP2 MSTORE PUSH1 0x20 DUP3 SWAP1 MSTORE PUSH1 0x40 DUP2 KECCAK256 SWAP2 SWAP3 POP PUSH1 0xFF DUP6 AND PUSH8 0xFFFFFFFFFFFFFFFF DUP2 GT DUP1 ISZERO PUSH2 0x49C2 JUMPI PUSH1 0x0 DUP1 REVERT JUMPDEST POP PUSH1 0x40 MLOAD SWAP1 DUP1 DUP3 MSTORE DUP1 PUSH1 0x20 MUL PUSH1 0x20 ADD DUP3 ADD PUSH1 0x40 MSTORE DUP1 ISZERO PUSH2 0x49FC JUMPI DUP2 PUSH1 0x20 ADD JUMPDEST PUSH2 0x49E9 PUSH2 0x4ED6 JUMP JUMPDEST DUP2 MSTORE PUSH1 0x20 ADD SWAP1 PUSH1 0x1 SWAP1 SUB SWAP1 DUP2 PUSH2 0x49E1 JUMPI SWAP1 POP JUMPDEST POP SWAP1 POP PUSH1 0x0 JUMPDEST DUP6 PUSH1 0xFF AND DUP2 LT ISZERO PUSH2 0x737 JUMPI PUSH1 0x0 DUP4 DUP3 PUSH1 0x8 DUP2 LT PUSH2 0x4A1B JUMPI INVALID JUMPDEST ADD SWAP1 POP PUSH1 0x0 DUP4 DUP4 DUP2 MLOAD DUP2 LT PUSH2 0x4A2C JUMPI INVALID JUMPDEST PUSH1 0x20 SWAP1 DUP2 MUL SWAP2 SWAP1 SWAP2 ADD DUP2 ADD MLOAD DUP4 SLOAD PUSH2 0xFFFF DUP2 AND DUP3 MSTORE PUSH5 0xFFFFFFFFFF PUSH3 0x10000 DUP3 DIV AND SWAP3 DUP3 ADD SWAP3 SWAP1 SWAP3 MSTORE PUSH1 0xFF PUSH1 0x1 PUSH1 0x38 SHL DUP4 DIV AND PUSH1 0x40 DUP3 ADD MSTORE PUSH1 0x1 PUSH1 0x40 SHL SWAP1 SWAP2 DIV PUSH1 0xA SWAP1 DUP2 SIGNEXTEND SWAP1 SIGNEXTEND PUSH1 0x60 DUP3 ADD MSTORE PUSH1 0x80 ADD SWAP2 SWAP1 SWAP2 MSTORE POP PUSH1 0x1 ADD PUSH2 0x4A02 JUMP JUMPDEST DUP1 MLOAD PUSH1 0x60 SWAP1 DUP1 PUSH8 0xFFFFFFFFFFFFFFFF DUP2 GT DUP1 ISZERO PUSH2 0x4AA4 JUMPI PUSH1 0x0 DUP1 REVERT JUMPDEST POP PUSH1 0x40 MLOAD SWAP1 DUP1 DUP3 MSTORE DUP1 PUSH1 0x20 MUL PUSH1 0x20 ADD DUP3 ADD PUSH1 0x40 MSTORE DUP1 ISZERO PUSH2 0x4ACE JUMPI DUP2 PUSH1 0x20 ADD PUSH1 0x20 DUP3 MUL DUP1 CALLDATASIZE DUP4 CALLDATACOPY ADD SWAP1 POP JUMPDEST POP SWAP2 POP PUSH1 0x0 JUMPDEST DUP2 DUP2 LT ISZERO PUSH2 0x4B2B JUMPI PUSH1 0x0 DUP5 DUP3 DUP2 MLOAD DUP2 LT PUSH2 0x4AEA JUMPI INVALID JUMPDEST PUSH1 0x20 MUL PUSH1 0x20 ADD ADD MLOAD SWAP1 POP PUSH2 0x4B0B DUP2 PUSH1 0x0 ADD MLOAD DUP3 PUSH1 0x20 ADD MLOAD DUP4 PUSH1 0x40 ADD MLOAD PUSH2 0x4C56 JUMP JUMPDEST DUP5 DUP4 DUP2 MLOAD DUP2 LT PUSH2 0x4B17 JUMPI INVALID JUMPDEST PUSH1 0x20 SWAP1 DUP2 MUL SWAP2 SWAP1 SWAP2 ADD ADD MSTORE POP PUSH1 0x1 ADD PUSH2 0x4AD4 JUMP JUMPDEST POP PUSH1 0x1 JUMPDEST DUP2 DUP2 LT ISZERO PUSH2 0x4C42 JUMPI DUP1 JUMPDEST PUSH1 0x0 DUP2 GT DUP1 ISZERO PUSH2 0x4B71 JUMPI POP DUP4 DUP2 DUP2 MLOAD DUP2 LT PUSH2 0x4B50 JUMPI INVALID JUMPDEST PUSH1 0x20 MUL PUSH1 0x20 ADD ADD MLOAD DUP5 PUSH1 0x1 DUP4 SUB DUP2 MLOAD DUP2 LT PUSH2 0x4B67 JUMPI INVALID JUMPDEST PUSH1 0x20 MUL PUSH1 0x20 ADD ADD MLOAD GT JUMPDEST ISZERO PUSH2 0x4C39 JUMPI DUP4 DUP2 DUP2 MLOAD DUP2 LT PUSH2 0x4B82 JUMPI INVALID JUMPDEST PUSH1 0x20 MUL PUSH1 0x20 ADD ADD MLOAD DUP5 PUSH1 0x1 DUP4 SUB DUP2 MLOAD DUP2 LT PUSH2 0x4B99 JUMPI INVALID JUMPDEST PUSH1 0x20 MUL PUSH1 0x20 ADD ADD MLOAD DUP6 PUSH1 0x1 DUP5 SUB DUP2 MLOAD DUP2 LT PUSH2 0x4BB0 JUMPI INVALID JUMPDEST PUSH1 0x20 MUL PUSH1 0x20 ADD ADD DUP7 DUP5 DUP2 MLOAD DUP2 LT PUSH2 0x4BC3 JUMPI INVALID JUMPDEST PUSH1 0x20 MUL PUSH1 0x20 ADD ADD DUP3 DUP2 MSTORE POP DUP3 DUP2 MSTORE POP POP POP DUP5 DUP2 DUP2 MLOAD DUP2 LT PUSH2 0x4BE0 JUMPI INVALID JUMPDEST PUSH1 0x20 MUL PUSH1 0x20 ADD ADD MLOAD DUP6 PUSH1 0x1 DUP4 SUB DUP2 MLOAD DUP2 LT PUSH2 0x4BF7 JUMPI INVALID JUMPDEST PUSH1 0x20 MUL PUSH1 0x20 ADD ADD MLOAD DUP7 PUSH1 0x1 DUP5 SUB DUP2 MLOAD DUP2 LT PUSH2 0x4C0E JUMPI INVALID JUMPDEST PUSH1 0x20 MUL PUSH1 0x20 ADD ADD DUP8 DUP5 DUP2 MLOAD DUP2 LT PUSH2 0x4C21 JUMPI INVALID JUMPDEST PUSH1 0x20 SWAP1 DUP2 MUL SWAP2 SWAP1 SWAP2 ADD ADD SWAP2 SWAP1 SWAP2 MSTORE MSTORE PUSH1 0x0 NOT ADD PUSH2 0x4B39 JUMP JUMPDEST POP PUSH1 0x1 ADD PUSH2 0x4B2F JUMP JUMPDEST POP POP SWAP2 SWAP1 POP JUMP JUMPDEST PUSH1 0x0 DUP1 PUSH2 0x4EF PUSH1 0xD PUSH2 0x2C52 JUMP JUMPDEST PUSH8 0xFFFF000000000000 PUSH1 0x30 DUP5 SWAP1 SHL AND PUSH6 0xFFFFFFFFFF00 PUSH1 0x8 DUP5 SWAP1 SHL AND OR PUSH1 0xFF DUP3 AND OR SWAP4 SWAP3 POP POP POP JUMP JUMPDEST PUSH1 0x40 MLOAD DUP1 PUSH1 0xE0 ADD PUSH1 0x40 MSTORE DUP1 PUSH2 0x4C92 PUSH2 0x4E08 JUMP JUMPDEST DUP2 MSTORE PUSH1 0x20 ADD PUSH2 0x4C9F PUSH2 0x4EAE JUMP JUMPDEST DUP2 MSTORE PUSH1 0x0 PUSH1 0x20 DUP3 ADD DUP2 SWAP1 MSTORE PUSH1 0x40 DUP3 ADD DUP2 SWAP1 MSTORE PUSH1 0x60 DUP3 ADD DUP2 SWAP1 MSTORE PUSH1 0x80 DUP3 ADD DUP2 SWAP1 MSTORE PUSH1 0xA0 SWAP1 SWAP2 ADD MSTORE SWAP1 JUMP JUMPDEST PUSH1 0x40 MLOAD DUP1 PUSH2 0x140 ADD PUSH1 0x40 MSTORE DUP1 PUSH1 0x0 PUSH2 0xFFFF AND DUP2 MSTORE PUSH1 0x20 ADD PUSH1 0x0 DUP2 MSTORE PUSH1 0x20 ADD PUSH1 0x0 DUP2 MSTORE PUSH1 0x20 ADD PUSH1 0x0 DUP2 MSTORE PUSH1 0x20 ADD PUSH1 0x0 DUP2 MSTORE PUSH1 0x20 ADD PUSH1 0x0 DUP2 MSTORE PUSH1 0x20 ADD PUSH1 0x0 DUP2 MSTORE PUSH1 0x20 ADD PUSH1 0x0 DUP2 MSTORE PUSH1 0x20 ADD PUSH1 0x0 DUP2 MSTORE PUSH1 0x20 ADD PUSH2 0x4D1F PUSH2 0x4D24 JUMP JUMPDEST SWAP1 MSTORE SWAP1 JUMP JUMPDEST PUSH1 0x40 MLOAD DUP1 PUSH1 0x60 ADD PUSH1 0x40 MSTORE DUP1 PUSH1 0x0 DUP2 MSTORE PUSH1 0x20 ADD PUSH1 0x0 DUP2 MSTORE PUSH1 0x20 ADD PUSH1 0x0 DUP2 MSTORE POP SWAP1 JUMP JUMPDEST PUSH1 0x40 MLOAD DUP1 PUSH2 0x120 ADD PUSH1 0x40 MSTORE DUP1 PUSH1 0x0 DUP2 MSTORE PUSH1 0x20 ADD PUSH1 0x0 DUP2 MSTORE PUSH1 0x20 ADD PUSH1 0x0 DUP2 MSTORE PUSH1 0x20 ADD PUSH1 0x0 DUP2 MSTORE PUSH1 0x20 ADD PUSH1 0x0 DUP2 MSTORE PUSH1 0x20 ADD PUSH1 0x0 DUP2 MSTORE PUSH1 0x20 ADD PUSH1 0x0 DUP2 MSTORE PUSH1 0x20 ADD PUSH1 0x0 DUP2 MSTORE PUSH1 0x20 ADD PUSH1 0x0 DUP2 MSTORE POP SWAP1 JUMP JUMPDEST PUSH1 0x40 MLOAD DUP1 PUSH2 0x100 ADD PUSH1 0x40 MSTORE DUP1 PUSH1 0x0 DUP1 NOT AND DUP2 MSTORE PUSH1 0x20 ADD PUSH1 0x0 DUP2 MSTORE PUSH1 0x20 ADD PUSH1 0x0 DUP2 MSTORE PUSH1 0x20 ADD PUSH1 0x0 DUP2 MSTORE PUSH1 0x20 ADD PUSH1 0x0 DUP2 MSTORE PUSH1 0x20 ADD PUSH1 0x0 DUP2 MSTORE PUSH1 0x20 ADD PUSH1 0x0 DUP2 MSTORE PUSH1 0x20 ADD PUSH1 0x0 DUP2 MSTORE POP SWAP1 JUMP JUMPDEST PUSH1 0x40 DUP1 MLOAD PUSH1 0xA0 DUP2 ADD DUP3 MSTORE PUSH1 0x0 DUP1 DUP3 MSTORE PUSH1 0x20 DUP3 ADD DUP2 SWAP1 MSTORE SWAP2 DUP2 ADD DUP3 SWAP1 MSTORE SWAP1 PUSH1 0x60 DUP3 ADD SWAP1 DUP2 MSTORE PUSH1 0x20 ADD PUSH1 0x0 DUP2 MSTORE POP SWAP1 JUMP JUMPDEST PUSH1 0x40 DUP1 MLOAD PUSH1 0x80 DUP2 ADD DUP3 MSTORE PUSH1 0x0 DUP1 DUP3 MSTORE PUSH1 0x20 DUP3 ADD MSTORE SWAP1 DUP2 ADD PUSH2 0x4E27 PUSH2 0x4D24 JUMP JUMPDEST DUP2 MSTORE PUSH1 0x0 PUSH1 0x20 SWAP1 SWAP2 ADD MSTORE SWAP1 JUMP JUMPDEST PUSH1 0x40 DUP1 MLOAD PUSH1 0xC0 DUP2 ADD DUP3 MSTORE PUSH1 0x0 DUP1 DUP3 MSTORE PUSH1 0x20 DUP3 ADD DUP2 SWAP1 MSTORE SWAP2 DUP2 ADD DUP3 SWAP1 MSTORE PUSH1 0x60 DUP2 ADD DUP3 SWAP1 MSTORE PUSH1 0x80 DUP2 ADD DUP3 SWAP1 MSTORE PUSH1 0xA0 DUP2 ADD SWAP2 SWAP1 SWAP2 MSTORE SWAP1 JUMP JUMPDEST PUSH1 0x40 MLOAD DUP1 PUSH2 0x100 ADD PUSH1 0x40 MSTORE DUP1 PUSH1 0x0 DUP2 MSTORE PUSH1 0x20 ADD PUSH1 0x0 DUP2 MSTORE PUSH1 0x20 ADD PUSH1 0x0 DUP2 MSTORE PUSH1 0x20 ADD PUSH1 0x0 DUP2 MSTORE PUSH1 0x20 ADD PUSH1 0x0 DUP2 MSTORE PUSH1 0x20 ADD PUSH1 0x0 DUP2 MSTORE PUSH1 0x20 ADD PUSH1 0x0 DUP2 MSTORE PUSH1 0x20 ADD PUSH1 0x0 DUP2 MSTORE POP SWAP1 JUMP JUMPDEST PUSH1 0x40 MLOAD DUP1 PUSH1 0x80 ADD PUSH1 0x40 MSTORE DUP1 PUSH1 0x60 DUP2 MSTORE PUSH1 0x20 ADD PUSH1 0x60 DUP2 MSTORE PUSH1 0x20 ADD PUSH1 0x0 DUP2 MSTORE PUSH1 0x20 ADD PUSH1 0x0 DUP2 MSTORE POP SWAP1 JUMP JUMPDEST PUSH1 0x40 MLOAD DUP1 PUSH1 0xC0 ADD PUSH1 0x40 MSTORE DUP1 PUSH1 0x0 PUSH2 0xFFFF AND DUP2 MSTORE PUSH1 0x20 ADD PUSH1 0x0 DUP2 MSTORE PUSH1 0x20 ADD PUSH1 0x0 DUP2 MSTORE PUSH1 0x20 ADD PUSH1 0x0 DUP2 MSTORE PUSH1 0x20 ADD PUSH1 0x0 DUP2 MSTORE PUSH1 0x20 ADD PUSH1 0x0 PUSH1 0x3 DUP2 GT ISZERO PUSH2 0x4D1F JUMPI INVALID JUMPDEST DUP1 CALLDATALOAD DUP1 ISZERO ISZERO DUP2 EQ PUSH2 0x370 JUMPI PUSH1 0x0 DUP1 REVERT JUMPDEST DUP1 CALLDATALOAD PUSH2 0xFFFF DUP2 AND DUP2 EQ PUSH2 0x370 JUMPI PUSH1 0x0 DUP1 REVERT JUMPDEST DUP1 CALLDATALOAD PUSH4 0xFFFFFFFF DUP2 AND DUP2 EQ PUSH2 0x370 JUMPI PUSH1 0x0 DUP1 REVERT JUMPDEST PUSH1 0x0 DUP1 PUSH1 0x40 DUP4 DUP6 SUB SLT ISZERO PUSH2 0x4F5D JUMPI DUP2 DUP3 REVERT JUMPDEST DUP3 CALLDATALOAD PUSH1 0x1 PUSH1 0x1 PUSH1 0xA0 SHL SUB DUP2 AND DUP2 EQ PUSH2 0x4F73 JUMPI DUP3 DUP4 REVERT JUMPDEST SWAP5 PUSH1 0x20 SWAP4 SWAP1 SWAP4 ADD CALLDATALOAD SWAP4 POP POP POP JUMP JUMPDEST PUSH1 0x0 PUSH1 0x20 DUP3 DUP5 SUB SLT ISZERO PUSH2 0x4F92 JUMPI DUP1 DUP2 REVERT JUMPDEST PUSH2 0x5B8 DUP3 PUSH2 0x4F25 JUMP JUMPDEST PUSH1 0x0 DUP1 PUSH1 0x40 DUP4 DUP6 SUB SLT ISZERO PUSH2 0x4FAD JUMPI DUP2 DUP3 REVERT JUMPDEST PUSH2 0x4F73 DUP4 PUSH2 0x4F25 JUMP JUMPDEST PUSH1 0x0 DUP1 PUSH1 0x0 PUSH1 0x60 DUP5 DUP7 SUB SLT ISZERO PUSH2 0x4FCA JUMPI DUP1 DUP2 REVERT JUMPDEST PUSH2 0x4FD3 DUP5 PUSH2 0x4F25 JUMP JUMPDEST SWAP3 POP PUSH1 0x20 DUP5 ADD CALLDATALOAD SWAP2 POP PUSH2 0x4FE8 PUSH1 0x40 DUP6 ADD PUSH2 0x4F15 JUMP JUMPDEST SWAP1 POP SWAP3 POP SWAP3 POP SWAP3 JUMP JUMPDEST PUSH1 0x0 DUP1 PUSH1 0x0 DUP1 PUSH1 0x80 DUP6 DUP8 SUB SLT ISZERO PUSH2 0x5006 JUMPI DUP1 DUP2 REVERT JUMPDEST PUSH2 0x500F DUP6 PUSH2 0x4F25 JUMP JUMPDEST SWAP4 POP PUSH1 0x20 DUP6 ADD CALLDATALOAD DUP1 PUSH1 0xA SIGNEXTEND DUP2 EQ PUSH2 0x5024 JUMPI DUP2 DUP3 REVERT JUMPDEST SWAP4 SWAP7 SWAP4 SWAP6 POP POP POP POP PUSH1 0x40 DUP3 ADD CALLDATALOAD SWAP2 PUSH1 0x60 ADD CALLDATALOAD SWAP1 JUMP JUMPDEST PUSH1 0x0 DUP1 PUSH1 0x0 DUP1 PUSH1 0x80 DUP6 DUP8 SUB SLT ISZERO PUSH2 0x504E JUMPI DUP4 DUP5 REVERT JUMPDEST PUSH2 0x5057 DUP6 PUSH2 0x4F25 JUMP JUMPDEST SWAP7 PUSH1 0x20 DUP7 ADD CALLDATALOAD SWAP7 POP PUSH1 0x40 DUP7 ADD CALLDATALOAD SWAP6 PUSH1 0x60 ADD CALLDATALOAD SWAP5 POP SWAP3 POP POP POP JUMP JUMPDEST PUSH1 0x0 DUP1 PUSH1 0x0 DUP1 PUSH1 0x0 PUSH1 0xA0 DUP7 DUP9 SUB SLT ISZERO PUSH2 0x5088 JUMPI DUP1 DUP2 REVERT JUMPDEST PUSH2 0x5091 DUP7 PUSH2 0x4F25 JUMP JUMPDEST SWAP5 POP PUSH1 0x20 DUP7 ADD CALLDATALOAD SWAP4 POP PUSH1 0x40 DUP7 ADD CALLDATALOAD SWAP3 POP PUSH1 0x60 DUP7 ADD CALLDATALOAD SWAP2 POP PUSH2 0x50B4 PUSH1 0x80 DUP8 ADD PUSH2 0x4F15 JUMP JUMPDEST SWAP1 POP SWAP3 SWAP6 POP SWAP3 SWAP6 SWAP1 SWAP4 POP JUMP JUMPDEST PUSH1 0x0 DUP1 PUSH1 0x0 DUP1 PUSH1 0x0 PUSH1 0xA0 DUP7 DUP9 SUB SLT ISZERO PUSH2 0x50D7 JUMPI DUP1 DUP2 REVERT JUMPDEST PUSH2 0x50E0 DUP7 PUSH2 0x4F25 JUMP JUMPDEST SWAP5 POP PUSH1 0x20 DUP7 ADD CALLDATALOAD SWAP4 POP PUSH1 0x40 DUP7 ADD CALLDATALOAD SWAP3 POP PUSH2 0x50FC PUSH1 0x60 DUP8 ADD PUSH2 0x4F37 JUMP JUMPDEST SWAP5 SWAP8 SWAP4 SWAP7 POP SWAP2 SWAP5 PUSH1 0x80 ADD CALLDATALOAD SWAP3 SWAP2 POP POP JUMP JUMPDEST PUSH1 0x0 DUP1 PUSH1 0x0 DUP1 PUSH1 0x0 DUP1 PUSH1 0xC0 DUP8 DUP10 SUB SLT ISZERO PUSH2 0x5125 JUMPI DUP1 DUP2 REVERT JUMPDEST PUSH2 0x512E DUP8 PUSH2 0x4F25 JUMP JUMPDEST SWAP6 POP PUSH1 0x20 DUP8 ADD CALLDATALOAD SWAP5 POP PUSH1 0x40 DUP8 ADD CALLDATALOAD SWAP4 POP PUSH2 0x514A PUSH1 0x60 DUP9 ADD PUSH2 0x4F37 JUMP JUMPDEST SWAP3 POP PUSH1 0x80 DUP8 ADD CALLDATALOAD SWAP2 POP PUSH2 0x515F PUSH1 0xA0 DUP9 ADD PUSH2 0x4F15 JUMP JUMPDEST SWAP1 POP SWAP3 SWAP6 POP SWAP3 SWAP6 POP SWAP3 SWAP6 JUMP JUMPDEST PUSH1 0x0 DUP1 PUSH1 0x40 DUP4 DUP6 SUB SLT ISZERO PUSH2 0x517D JUMPI DUP2 DUP3 REVERT JUMPDEST PUSH2 0x5186 DUP4 PUSH2 0x4F25 JUMP JUMPDEST SWAP2 POP PUSH1 0x20 DUP4 ADD CALLDATALOAD PUSH1 0x1 PUSH1 0x1 PUSH1 0x58 SHL SUB DUP2 AND DUP2 EQ PUSH2 0x51A1 JUMPI DUP2 DUP3 REVERT JUMPDEST DUP1 SWAP2 POP POP SWAP3 POP SWAP3 SWAP1 POP JUMP JUMPDEST PUSH1 0x0 PUSH1 0x20 DUP3 DUP5 SUB SLT ISZERO PUSH2 0x51BD JUMPI DUP1 DUP2 REVERT JUMPDEST POP MLOAD SWAP2 SWAP1 POP JUMP JUMPDEST PUSH1 0x0 DUP1 PUSH1 0x40 DUP4 DUP6 SUB SLT ISZERO PUSH2 0x51D6 JUMPI DUP2 DUP3 REVERT JUMPDEST POP POP DUP1 CALLDATALOAD SWAP3 PUSH1 0x20 SWAP1 SWAP2 ADD CALLDATALOAD SWAP2 POP JUMP JUMPDEST PUSH1 0x0 DUP1 PUSH1 0x40 DUP4 DUP6 SUB SLT ISZERO PUSH2 0x51F7 JUMPI DUP2 DUP3 REVERT JUMPDEST POP POP DUP1 MLOAD PUSH1 0x20 SWAP1 SWAP2 ADD MLOAD SWAP1 SWAP3 SWAP1 SWAP2 POP JUMP JUMPDEST PUSH1 0x1 PUSH1 0x1 PUSH1 0xA0 SHL SUB SWAP2 SWAP1 SWAP2 AND DUP2 MSTORE PUSH1 0x20 ADD SWAP1 JUMP JUMPDEST PUSH1 0x1 PUSH1 0x1 PUSH1 0xA0 SHL SUB SWAP3 SWAP1 SWAP3 AND DUP3 MSTORE PUSH1 0x20 DUP3 ADD MSTORE PUSH1 0x40 ADD SWAP1 JUMP JUMPDEST PUSH1 0x1 PUSH1 0x1 PUSH1 0xA0 SHL SUB SWAP5 SWAP1 SWAP5 AND DUP5 MSTORE PUSH1 0x20 DUP5 ADD SWAP3 SWAP1 SWAP3 MSTORE PUSH1 0x40 DUP4 ADD MSTORE PUSH1 0x60 DUP3 ADD MSTORE PUSH1 0x80 ADD SWAP1 JUMP JUMPDEST SWAP1 DUP2 MSTORE PUSH1 0x20 ADD SWAP1 JUMP JUMPDEST SWAP2 DUP3 MSTORE PUSH1 0x20 DUP3 ADD MSTORE PUSH1 0x40 ADD SWAP1 JUMP JUMPDEST PUSH1 0x20 DUP1 DUP3 MSTORE PUSH1 0x16 SWAP1 DUP3 ADD MSTORE PUSH22 0x13585C9AD95D081B9BDD081A5B9A5D1A585B1A5E9959 PUSH1 0x52 SHL PUSH1 0x40 DUP3 ADD MSTORE PUSH1 0x60 ADD SWAP1 JUMP JUMPDEST PUSH1 0x20 DUP1 DUP3 MSTORE PUSH1 0x13 SWAP1 DUP3 ADD MSTORE PUSH19 0x14995C5D5A5C995CC81CD95D1D1B195B595B9D PUSH1 0x6A SHL PUSH1 0x40 DUP3 ADD MSTORE PUSH1 0x60 ADD SWAP1 JUMP JUMPDEST PUSH1 0x20 DUP1 DUP3 MSTORE PUSH1 0xE SWAP1 DUP3 ADD MSTORE PUSH14 0x4E6F20636F6E76657267656E6365 PUSH1 0x90 SHL PUSH1 0x40 DUP3 ADD MSTORE PUSH1 0x60 ADD SWAP1 JUMP JUMPDEST PUSH1 0x20 DUP1 DUP3 MSTORE PUSH1 0xD SWAP1 DUP3 ADD MSTORE PUSH13 0x92DCECC2D8D2C840D2DCC8CAF PUSH1 0x9B SHL PUSH1 0x40 DUP3 ADD MSTORE PUSH1 0x60 ADD SWAP1 JUMP JUMPDEST PUSH1 0x20 DUP1 DUP3 MSTORE PUSH1 0xE SWAP1 DUP3 ADD MSTORE PUSH14 0x125B9D985B1A59081B585C9AD95D PUSH1 0x92 SHL PUSH1 0x40 DUP3 ADD MSTORE PUSH1 0x60 ADD SWAP1 JUMP JUMPDEST PUSH1 0x20 DUP1 DUP3 MSTORE PUSH1 0x16 SWAP1 DUP3 ADD MSTORE PUSH22 0x5472616465206661696C65642C20736C697070616765 PUSH1 0x50 SHL PUSH1 0x40 DUP3 ADD MSTORE PUSH1 0x60 ADD SWAP1 JUMP JUMPDEST PUSH1 0x20 DUP1 DUP3 MSTORE PUSH1 0x12 SWAP1 DUP3 ADD MSTORE PUSH18 0x496E76616C696420626C6F636B2074696D65 PUSH1 0x70 SHL PUSH1 0x40 DUP3 ADD MSTORE PUSH1 0x60 ADD SWAP1 JUMP JUMPDEST PUSH1 0x20 DUP1 DUP3 MSTORE PUSH1 0x13 SWAP1 DUP3 ADD MSTORE PUSH19 0x125B9D985B1A590818DD5C9C995B98DE481A59 PUSH1 0x6A SHL PUSH1 0x40 DUP3 ADD MSTORE PUSH1 0x60 ADD SWAP1 JUMP JUMPDEST PUSH1 0x20 DUP1 DUP3 MSTORE PUSH1 0x11 SWAP1 DUP3 ADD MSTORE PUSH17 0x13DD995C8813585C9AD95D08131A5B5A5D PUSH1 0x7A SHL PUSH1 0x40 DUP3 ADD MSTORE PUSH1 0x60 ADD SWAP1 JUMP JUMPDEST PUSH1 0x20 DUP1 DUP3 MSTORE PUSH1 0x14 SWAP1 DUP3 ADD MSTORE PUSH20 0x13DD995C8811195D9A585D1A5BDB88131A5B5A5D PUSH1 0x62 SHL PUSH1 0x40 DUP3 ADD MSTORE PUSH1 0x60 ADD SWAP1 JUMP JUMPDEST PUSH1 0x0 PUSH2 0x180 DUP3 ADD SWAP1 POP DUP4 MLOAD DUP3 MSTORE PUSH1 0x20 DUP5 ADD MLOAD PUSH1 0x20 DUP4 ADD MSTORE PUSH1 0x40 DUP5 ADD MLOAD PUSH1 0x40 DUP4 ADD MSTORE DUP3 MLOAD PUSH1 0x60 DUP4 ADD MSTORE PUSH1 0x20 DUP4 ADD MLOAD PUSH1 0x80 DUP4 ADD MSTORE PUSH1 0x40 DUP4 ADD MLOAD PUSH1 0xA0 DUP4 ADD MSTORE PUSH1 0x60 DUP4 ADD MLOAD PUSH1 0xC0 DUP4 ADD MSTORE PUSH1 0x80 DUP4 ADD MLOAD PUSH1 0xE0 DUP4 ADD MSTORE PUSH1 0xA0 DUP4 ADD MLOAD PUSH2 0x100 DUP2 DUP2 DUP6 ADD MSTORE PUSH1 0xC0 DUP6 ADD MLOAD PUSH2 0x120 DUP6 ADD MSTORE PUSH1 0xE0 DUP6 ADD MLOAD PUSH2 0x140 DUP6 ADD MSTORE DUP1 DUP6 ADD MLOAD PUSH2 0x160 DUP6 ADD MSTORE POP POP SWAP4 SWAP3 POP POP POP JUMP JUMPDEST SWAP3 DUP4 MSTORE PUSH1 0x20 DUP4 ADD SWAP2 SWAP1 SWAP2 MSTORE PUSH1 0x40 DUP3 ADD MSTORE PUSH1 0x60 ADD SWAP1 JUMP JUMPDEST SWAP4 DUP5 MSTORE PUSH1 0x20 DUP5 ADD SWAP3 SWAP1 SWAP3 MSTORE PUSH1 0xFF AND PUSH1 0x40 DUP4 ADD MSTORE PUSH1 0x60 DUP3 ADD MSTORE PUSH1 0x80 ADD SWAP1 JUMP JUMPDEST PUSH1 0x1 PUSH1 0x1 PUSH1 0x58 SHL SUB SWAP4 SWAP1 SWAP4 AND DUP4 MSTORE PUSH1 0xFF SWAP2 SWAP1 SWAP2 AND PUSH1 0x20 DUP4 ADD MSTORE PUSH1 0x40 DUP3 ADD MSTORE PUSH1 0x60 ADD SWAP1 JUMP JUMPDEST PUSH1 0xFF SWAP2 SWAP1 SWAP2 AND DUP2 MSTORE PUSH1 0x20 ADD SWAP1 JUMP INVALID LOG2 PUSH5 0x6970667358 0x22 SLT KECCAK256 CREATE2 PUSH30 0x8AB47E89D760699E3759FC22B8F0DA0CC17D8D9C0CB743A239CB039F1608 PUSH5 0x736F6C6343 STOP SMOD MOD STOP CALLER ","sha1":"749f909dcf2e68216c86979b05fd4002b4bbd7e4","source":"// SPDX-License-Identifier: BSUL-1.1\npragma solidity =0.7.6;\npragma abicoder v2;\n\nimport {\n    PrimeRate,\n    MarketParameters,\n    Token,\n    CashGroupParameters,\n    nTokenPortfolio,\n    AccountContext,\n    BalanceState,\n    TradeActionType,\n    InterestRateParameters,\n    PrimeCashFactors\n} from \"../global/Types.sol\";\nimport {StorageLayoutV1} from \"../global/StorageLayoutV1.sol\";\nimport {Constants} from \"../global/Constants.sol\";\nimport {SafeInt256} from \"../math/SafeInt256.sol\";\nimport {SafeUint256} from \"../math/SafeUint256.sol\";\n\nimport {AccountContextHandler} from \"../internal/AccountContextHandler.sol\";\nimport {BalanceHandler} from \"../internal/balances/BalanceHandler.sol\";\nimport {TokenHandler} from \"../internal/balances/TokenHandler.sol\";\nimport {Incentives} from \"../internal/balances/Incentives.sol\";\nimport {Market} from \"../internal/markets/Market.sol\";\nimport {CashGroup} from \"../internal/markets/CashGroup.sol\";\nimport {DateTime} from \"../internal/markets/DateTime.sol\";\nimport {InterestRateCurve} from \"../internal/markets/InterestRateCurve.sol\";\nimport {PrimeRateLib} from \"../internal/pCash/PrimeRateLib.sol\";\nimport {PrimeCashExchangeRate} from \"../internal/pCash/PrimeCashExchangeRate.sol\";\nimport {nTokenSupply} from \"../internal/nToken/nTokenSupply.sol\";\nimport {nTokenHandler} from \"../internal/nToken/nTokenHandler.sol\";\nimport {nTokenCalculations} from \"../internal/nToken/nTokenCalculations.sol\";\nimport {AssetHandler} from \"../internal/valuation/AssetHandler.sol\";\n\nimport {MigrateIncentives} from \"./MigrateIncentives.sol\";\nimport {nTokenMintAction} from \"./actions/nTokenMintAction.sol\";\nimport {NotionalCalculations} from \"../../interfaces/notional/NotionalCalculations.sol\";\n\ncontract CalculationViews is StorageLayoutV1, NotionalCalculations {\n    using TokenHandler for Token;\n    using Market for MarketParameters;\n    using PrimeRateLib for PrimeRate;\n    using CashGroup for CashGroupParameters;\n    using nTokenHandler for nTokenPortfolio;\n    using AccountContextHandler for AccountContext;\n    using BalanceHandler for BalanceState;\n    using SafeInt256 for int256;\n    using SafeUint256 for uint256;\n\n    function _checkValidCurrency(uint16 currencyId) internal view {\n        require(0 < currencyId && currencyId <= maxCurrencyId, \"Invalid currency id\");\n    }\n\n    /** General Calculation View Methods **/\n\n    /// @notice Returns the nTokens that will be minted when some amount of asset tokens are deposited\n    /// @param currencyId id number of the currency\n    /// @param amountToDepositExternalPrecision amount of underlying tokens in native precision\n    /// @return the amount of nTokens that will be minted\n    function calculateNTokensToMint(uint16 currencyId, uint88 amountToDepositExternalPrecision)\n        external\n        view\n        override\n        returns (uint256)\n    {\n        _checkValidCurrency(currencyId);\n        Token memory token = TokenHandler.getUnderlyingToken(currencyId);\n        int256 amountToDepositInternal = token.convertToInternal(int256(amountToDepositExternalPrecision));\n        nTokenPortfolio memory nToken;\n        nToken.loadNTokenPortfolioView(currencyId);\n\n        int256 tokensToMint = nTokenCalculations.calculateTokensToMint(\n            nToken,\n            nToken.cashGroup.primeRate.convertFromUnderlying(amountToDepositInternal),\n            block.timestamp\n        );\n\n        return tokensToMint.toUint();\n    }\n\n    function convertNTokenToUnderlying(uint16 currencyId, int256 nTokenBalance) external view override returns (int256) {\n        (int256 totalPrimePV, nTokenPortfolio memory nToken) = _getNTokenPV(currencyId);\n        int256 valueInPrimeCash = nTokenBalance.mul(totalPrimePV).div(nToken.totalSupply);\n        int256 valueInUnderlying = nToken.cashGroup.primeRate.convertToUnderlying(valueInPrimeCash);\n        return _convertToAmountExternal(currencyId, valueInUnderlying.abs()).toInt();\n    }\n\n    /// @notice Returns the present value of the nToken's assets denominated in asset tokens\n    function nTokenPresentValueAssetDenominated(uint16 currencyId) external view override returns (int256) {\n        (int256 totalPrimePV, /* */) = _getNTokenPV(currencyId);\n        return totalPrimePV;\n    }\n\n    /// @notice Returns the present value of the nToken's assets denominated in underlying\n    function nTokenPresentValueUnderlyingDenominated(uint16 currencyId) external view override returns (int256) {\n        (int256 totalPrimePV, nTokenPortfolio memory nToken) = _getNTokenPV(currencyId);\n        return nToken.cashGroup.primeRate.convertToUnderlying(totalPrimePV);\n    }\n\n    function _getNTokenPV(uint16 currencyId) private view returns (int256, nTokenPortfolio memory) {\n        uint256 blockTime = block.timestamp;\n        nTokenPortfolio memory nToken;\n        nToken.loadNTokenPortfolioView(currencyId);\n\n        int256 totalPrimePV = nTokenCalculations.getNTokenPrimePV(nToken, blockTime);\n        return (totalPrimePV, nToken);\n    }\n\n    /// @notice Returns the fCash amount to send when given a cash amount, be sure to buffer these amounts\n    /// slightly because the liquidity curve is sensitive to changes in block time\n    /// @param currencyId id number of the currency\n    /// @param netCashToAccount denominated in underlying terms in 1e8 decimal precision,\n    //// positive for borrowing, negative for lending\n    /// @param marketIndex market index of the fCash market\n    /// @param blockTime the block time for when the trade will be calculated\n    /// @return the fCash amount from the trade, positive when lending, negative when borrowing. Always in 8 decimals.\n    function getfCashAmountGivenCashAmount(\n        uint16 currencyId,\n        int88 netCashToAccount,\n        uint256 marketIndex,\n        uint256 blockTime\n    ) external view override returns (int256) {\n        _checkValidCurrency(currencyId);\n        CashGroupParameters memory cashGroup = CashGroup.buildCashGroupView(currencyId);\n        return _getfCashAmountGivenCashAmount(netCashToAccount, marketIndex, blockTime, cashGroup);\n    }\n        \n    function _getfCashAmountGivenCashAmount(\n        int88 netUnderlyingToAccount,\n        uint256 marketIndex,\n        uint256 blockTime,\n        CashGroupParameters memory cashGroup\n    ) internal view returns (int256) {\n        MarketParameters memory market;\n        cashGroup.loadMarket(market, marketIndex, false, blockTime);\n\n        require(market.maturity > blockTime, \"Invalid block time\");\n        uint256 timeToMaturity = market.maturity - blockTime;\n        InterestRateParameters memory irParams = InterestRateCurve.getActiveInterestRateParameters(\n            cashGroup.currencyId, marketIndex\n        );\n\n        return InterestRateCurve.getfCashGivenCashAmount(\n            irParams,\n            market.totalfCash,\n            netUnderlyingToAccount,\n            cashGroup.primeRate.convertToUnderlying(market.totalPrimeCash),\n            timeToMaturity\n        );\n    }\n\n    /// @notice Returns the cash amount that will be traded given an fCash amount, be sure to buffer these amounts\n    /// slightly because the liquidity curve is sensitive to changes in block time\n    /// @param currencyId id number of the currency\n    /// @param fCashAmount amount of fCash to trade, negative for borrowing, positive for lending\n    /// @param marketIndex market index of the fCash market\n    /// @param blockTime the block time for when the trade will be calculated\n    /// @return net asset cash amount (positive for borrowing, negative for lending) in 8 decimal precision\n    /// @return underlying cash amount (positive for borrowing, negative for lending) in 8 decimal precision\n    function getCashAmountGivenfCashAmount(\n        uint16 currencyId,\n        int88 fCashAmount,\n        uint256 marketIndex,\n        uint256 blockTime\n    ) external view override returns (int256, int256) {\n        return _getCashAmountGivenfCashAmount(currencyId, fCashAmount, marketIndex, blockTime, 0);\n    }\n\n    function _getCashAmountGivenfCashAmount(\n        uint16 currencyId,\n        int88 fCashAmount,\n        uint256 marketIndex,\n        uint256 blockTime, \n        uint256 rateLimit\n    ) internal view returns (int256, int256) {\n        _checkValidCurrency(currencyId);\n        CashGroupParameters memory cashGroup = CashGroup.buildCashGroupView(currencyId);\n        MarketParameters memory market;\n        cashGroup.loadMarket(market, marketIndex, false, blockTime);\n\n        require(market.maturity > blockTime, \"Invalid block time\");\n        uint256 timeToMaturity = market.maturity - blockTime;\n\n        // prettier-ignore\n        (int256 primeCash, /* int fee */, uint256 postFeeInterestRate) =\n            InterestRateCurve.calculatefCashTrade(market, cashGroup, fCashAmount, timeToMaturity, marketIndex);\n\n        // Check the slippage here and revert\n        if (rateLimit != 0) {\n            if (fCashAmount < 0) {\n                // Do not allow borrows over the rate limit\n                require(postFeeInterestRate <= rateLimit, \"Trade failed, slippage\");\n            } else {\n                // Do not allow lends under the rate limit\n                require(postFeeInterestRate >= rateLimit, \"Trade failed, slippage\");\n            }\n        }\n\n        return (primeCash, cashGroup.primeRate.convertToUnderlying(primeCash));\n    }\n\n    /// @notice Returns the claimable incentives for all nToken balances\n    /// @param account The address of the account which holds the tokens\n    /// @param blockTime The block time when incentives will be minted\n    /// @return Incentives an account is eligible to claim\n    function nTokenGetClaimableIncentives(address account, uint256 blockTime)\n        external\n        view\n        override\n        returns (uint256)\n    {\n        AccountContext memory accountContext = AccountContextHandler.getAccountContext(account);\n        BalanceState memory balanceState;\n        uint256 totalIncentivesClaimable;\n\n        if (accountContext.isBitmapEnabled()) {\n            balanceState.loadBalanceStateView(account, accountContext.bitmapCurrencyId, accountContext);\n            if (balanceState.storedNTokenBalance > 0) {\n                address tokenAddress = nTokenHandler.nTokenAddress(balanceState.currencyId);\n                (\n                    /* uint256 totalSupply */,\n                    uint256 accumulatedNOTEPerNToken,\n                    /* uint256 lastAccumulatedTime */\n                ) = nTokenSupply.getUpdatedAccumulatedNOTEPerNToken(tokenAddress, blockTime);\n\n                uint256 incentivesToClaim = Incentives.calculateIncentivesToClaim(\n                    balanceState,\n                    tokenAddress,\n                    accumulatedNOTEPerNToken,\n                    balanceState.storedNTokenBalance.toUint()\n                );\n                totalIncentivesClaimable = totalIncentivesClaimable.add(incentivesToClaim);\n            }\n        }\n\n        bytes18 currencies = accountContext.activeCurrencies;\n        while (currencies != 0) {\n            uint16 currencyId = uint16(bytes2(currencies) & Constants.UNMASK_FLAGS);\n            balanceState.loadBalanceStateView(account, currencyId, accountContext);\n\n            if (balanceState.storedNTokenBalance > 0) {\n                address tokenAddress = nTokenHandler.nTokenAddress(balanceState.currencyId);\n                (\n                    /* uint256 totalSupply */,\n                    uint256 accumulatedNOTEPerNToken,\n                    /* uint256 lastAccumulatedTime */\n                ) = nTokenSupply.getUpdatedAccumulatedNOTEPerNToken(tokenAddress, blockTime);\n\n                uint256 incentivesToClaim = Incentives.calculateIncentivesToClaim(\n                    balanceState,\n                    tokenAddress,\n                    accumulatedNOTEPerNToken,\n                    balanceState.storedNTokenBalance.toUint()\n                );\n                totalIncentivesClaimable = totalIncentivesClaimable.add(incentivesToClaim);\n            }\n\n            currencies = currencies << 16;\n        }\n\n        return totalIncentivesClaimable;\n    }\n\n    /// @notice Returns the present value of the given fCash amount using Notional internal oracle rates\n    /// @param currencyId id number of the currency\n    /// @param maturity timestamp of the fCash maturity\n    /// @param notional amount of fCash notional\n    /// @param blockTime the block time for when the trade will be calculated\n    /// @param riskAdjusted true if haircuts and buffers should be applied to the oracle rate\n    /// @return presentValue of fCash in 8 decimal precision and underlying denomination\n    function getPresentfCashValue(\n        uint16 currencyId,\n        uint256 maturity,\n        int256 notional,\n        uint256 blockTime,\n        bool riskAdjusted\n    ) external view override returns (int256 presentValue) {\n        CashGroupParameters memory cg = CashGroup.buildCashGroupView(currencyId);\n        if (riskAdjusted) {\n            presentValue = AssetHandler.getRiskAdjustedPresentfCashValue(\n                cg, notional, maturity, blockTime\n            );\n        } else {\n            presentValue = AssetHandler.getPresentfCashValue(\n                notional,\n                maturity,\n                blockTime,\n                cg.calculateOracleRate(maturity, blockTime)\n            );\n        }\n    }\n\n    /// @notice Returns a market index value for a given maturity\n    /// @param maturity an fCash maturity\n    /// @param blockTime the block time for when the trade will be calculated\n    /// @return marketIndex a value between 1 and 7 that represents the marketIndex (tenor)\n    /// that corresponds to the maturity. Returns 0 if there is no corresponding marketIndex\n    function getMarketIndex(\n        uint256 maturity,\n        uint256 blockTime\n    ) public pure override returns (uint8 marketIndex) {\n        (\n            uint256 _marketIndex,\n            bool isIdiosyncratic\n        ) = DateTime.getMarketIndex(Constants.MAX_TRADED_MARKET_INDEX, maturity, blockTime);\n\n        // Market Index cannot be greater than 7 by construction\n        marketIndex = isIdiosyncratic ? 0 : uint8(_marketIndex);\n    }\n\n    /// @notice Returns the amount of fCash that would received if lending deposit amount.\n    /// @param currencyId id number of the currency\n    /// @param depositAmountExternal amount to deposit in the token's native precision. For aTokens use\n    /// what is returned by the balanceOf selector (not scaledBalanceOf).\n    /// @param maturity the maturity of the fCash to lend\n    /// @param minLendRate the minimum lending rate (slippage protection)\n    /// @param blockTime the block time for when the trade will be calculated\n    /// @param useUnderlying true if specifying the underlying token, false if specifying prime cash\n    /// @return fCashAmount the amount of fCash that the lender will receive\n    /// @return marketIndex the corresponding market index for the lending\n    /// @return encodedTrade the encoded bytes32 object to pass to batch trade\n    function getfCashLendFromDeposit(\n        uint16 currencyId,\n        uint256 depositAmountExternal,\n        uint256 maturity,\n        uint32 minLendRate,\n        uint256 blockTime,\n        bool useUnderlying\n    ) external view override returns (\n        uint88 fCashAmount,\n        uint8 marketIndex,\n        bytes32 encodedTrade\n    ) {\n        marketIndex = getMarketIndex(maturity, blockTime);\n        require(marketIndex > 0);\n\n        (\n            int256 underlyingInternal,\n            CashGroupParameters memory cashGroup\n        ) = _convertDepositAmountToUnderlyingInternal(currencyId, depositAmountExternal, useUnderlying);\n        int256 fCash = _getfCashAmountGivenCashAmount(underlyingInternal.neg().toInt88(), marketIndex, blockTime, cashGroup);\n        require(0 < fCash);\n\n        (\n            encodedTrade,\n            fCashAmount\n        ) = _encodeLendBorrowTrade(TradeActionType.Lend, marketIndex, fCash, minLendRate);\n    }\n\n    /// @notice Returns the amount of fCash that would received if lending deposit amount.\n    /// @param currencyId id number of the currency\n    /// @param borrowedAmountExternal amount to borrow in the token's native precision.\n    /// @param maturity the maturity of the fCash to lend\n    /// @param maxBorrowRate the maximum borrow rate (slippage protection). If zero then no slippage will be applied\n    /// @param blockTime the block time for when the trade will be calculated\n    /// @param useUnderlying true if specifying the underlying token, false if specifying prime cash\n    /// @return fCashDebt the amount of fCash that the borrower will owe, this will be stored as a negative\n    /// balance in Notional\n    /// @return marketIndex the corresponding market index for the lending\n    /// @return encodedTrade the encoded bytes32 object to pass to batch trade\n    function getfCashBorrowFromPrincipal(\n        uint16 currencyId,\n        uint256 borrowedAmountExternal,\n        uint256 maturity,\n        uint32 maxBorrowRate,\n        uint256 blockTime,\n        bool useUnderlying\n    ) external view override returns (\n        uint88 fCashDebt,\n        uint8 marketIndex,\n        bytes32 encodedTrade\n    ) {\n        marketIndex = getMarketIndex(maturity, blockTime);\n        require(marketIndex > 0);\n\n        (\n            int256 underlyingInternal,\n            CashGroupParameters memory cashGroup\n        ) = _convertDepositAmountToUnderlyingInternal(currencyId, borrowedAmountExternal, useUnderlying);\n        int256 fCash = _getfCashAmountGivenCashAmount(underlyingInternal.toInt88(), marketIndex, blockTime, cashGroup);\n        require(fCash < 0);\n\n        (\n            encodedTrade,\n            fCashDebt\n        ) = _encodeLendBorrowTrade(TradeActionType.Borrow, marketIndex, fCash, maxBorrowRate);\n    }\n\n    /// @notice Returns the amount of underlying cash and asset cash required to lend fCash. When specifying a\n    /// trade, deposit either underlying or asset tokens (not both). Asset tokens tend to be more gas efficient.\n    /// @param currencyId id number of the currency\n    /// @param fCashAmount amount of fCash (in underlying) that will be received at maturity. Always 8 decimal precision.\n    /// @param maturity the maturity of the fCash to lend\n    /// @param minLendRate the minimum lending rate (slippage protection)\n    /// @param blockTime the block time for when the trade will be calculated\n    /// @return depositAmountUnderlying the amount of underlying tokens the lender must deposit\n    /// @return depositAmountPrimeCash the amount of prime cash tokens the lender must deposit or mint\n    /// @return marketIndex the corresponding market index for the lending\n    /// @return encodedTrade the encoded bytes32 object to pass to batch trade\n    function getDepositFromfCashLend(\n        uint16 currencyId,\n        uint256 fCashAmount,\n        uint256 maturity,\n        uint32 minLendRate,\n        uint256 blockTime\n    ) external view override returns (\n        uint256 depositAmountUnderlying,\n        uint256 depositAmountPrimeCash,\n        uint8 marketIndex,\n        bytes32 encodedTrade\n    ) {\n        marketIndex = getMarketIndex(maturity, blockTime);\n        require(marketIndex > 0);\n        require(fCashAmount < uint256(int256(type(int88).max)));\n\n        int88 fCash = int88(SafeInt256.toInt(fCashAmount));\n        (\n            int256 primeCash,\n            int256 underlyingCashInternal\n        ) = _getCashAmountGivenfCashAmount(currencyId, fCash, marketIndex, blockTime, minLendRate);\n\n        depositAmountUnderlying = _convertToAmountExternal(currencyId, underlyingCashInternal);\n        depositAmountPrimeCash = primeCash.neg().toUint();\n        (encodedTrade, /* */) = _encodeLendBorrowTrade(TradeActionType.Lend, marketIndex, fCash, minLendRate);\n    }\n\n    /// @notice Returns the amount of underlying cash and asset cash required to borrow fCash. When specifying a\n    /// trade, choose to receive either underlying or asset tokens (not both). Asset tokens tend to be more gas efficient.\n    /// @param currencyId id number of the currency\n    /// @param fCashBorrow amount of fCash (in underlying) that will be received at maturity. Always 8 decimal precision.\n    /// @param maturity the maturity of the fCash to lend\n    /// @param maxBorrowRate the maximum borrow rate (slippage protection)\n    /// @param blockTime the block time for when the trade will be calculated\n    /// @return borrowAmountUnderlying the amount of underlying tokens the borrower will receive\n    /// @return borrowAmountPrimeCash the amount of prime cash tokens the borrower will receive\n    /// @return marketIndex the corresponding market index for the lending\n    /// @return encodedTrade the encoded bytes32 object to pass to batch trade\n    function getPrincipalFromfCashBorrow(\n        uint16 currencyId,\n        uint256 fCashBorrow,\n        uint256 maturity,\n        uint32 maxBorrowRate,\n        uint256 blockTime\n    ) external view override returns (\n        uint256 borrowAmountUnderlying,\n        uint256 borrowAmountPrimeCash,\n        uint8 marketIndex,\n        bytes32 encodedTrade\n    ) {\n        marketIndex = getMarketIndex(maturity, blockTime);\n        require(marketIndex > 0);\n        require(fCashBorrow < uint256(int256(type(int88).max)));\n\n        int88 fCash = int88(SafeInt256.toInt(fCashBorrow).neg());\n        (\n            int256 primeCash,\n            int256 underlyingCashInternal\n        ) = _getCashAmountGivenfCashAmount(currencyId, fCash, marketIndex, blockTime, maxBorrowRate);\n\n        borrowAmountUnderlying = _convertToAmountExternal(currencyId, underlyingCashInternal);\n        borrowAmountPrimeCash = primeCash.toUint();\n        (encodedTrade, /* */) = _encodeLendBorrowTrade(TradeActionType.Borrow, marketIndex, fCash, maxBorrowRate);\n    }\n\n    /// @notice Converts an prime cash balance to an external token denomination\n    /// @param currencyId the currency id of the cash balance\n    /// @param primeCashBalance the signed cash balance that is stored in Notional\n    /// @param convertToUnderlying true if the value should be converted to underlying\n    /// @return the cash balance converted to the external token denomination\n    function convertCashBalanceToExternal(\n        uint16 currencyId,\n        int256 primeCashBalance,\n        bool convertToUnderlying\n    ) external view override returns (int256) {\n        // Prime cash is just 1-1 with itself, no external conversion\n        if (!convertToUnderlying) return primeCashBalance;\n\n        (PrimeRate memory pr, /* */) = PrimeCashExchangeRate\n            .getPrimeCashRateView(currencyId, block.timestamp);\n\n        int256 underlyingBalance = pr.convertToUnderlying(primeCashBalance);\n        int256 externalAmount = _convertToAmountExternal(currencyId, underlyingBalance.abs()).toInt();\n        return underlyingBalance < 0 ? externalAmount.neg() : externalAmount;\n    }\n\n    /// @notice Converts an underlying balance to prime cash\n    /// @param currencyId the currency id of the cash balance\n    /// @param underlyingExternal the underlying external token balance\n    /// @return the underlying balance converted to prime cash\n    function convertUnderlyingToPrimeCash(\n        uint16 currencyId,\n        int256 underlyingExternal\n    ) external view override returns (int256) {\n        (PrimeRate memory pr, /* */) = PrimeCashExchangeRate.getPrimeCashRateView(currencyId, block.timestamp);\n        Token memory token = TokenHandler.getUnderlyingToken(currencyId);\n        int256 underlyingInternal = token.convertToInternal(underlyingExternal);\n        return pr.convertFromUnderlying(underlyingInternal);\n    }\n\n    /// @notice Converts fCash to its settled prime cash value at the specified block time\n    /// @param currencyId the currency id of the fCash asset\n    /// @param maturity the timestamp when the fCash asset matures\n    /// @param fCashBalance signed balance of fcash\n    /// @param blockTime block time to convert to settled prime value, must be greater than maturity\n    /// @return signedPrimeSupplyValue amount of prime cash to be received or owed to the protocol\n    function convertSettledfCash(\n        uint16 currencyId,\n        uint256 maturity,\n        int256 fCashBalance,\n        uint256 blockTime\n    ) external view override returns (int256 signedPrimeSupplyValue) {\n        require(maturity <= blockTime);\n        (PrimeRate memory pr, /* */) = PrimeCashExchangeRate.getPrimeCashRateView(currencyId, blockTime);\n        return pr.convertSettledfCashView(currencyId, maturity, fCashBalance, blockTime);\n    }\n\n    /// @notice Accrues prime interest and updates state up to the current block\n    function accruePrimeInterest(\n        uint16 currencyId\n    ) external override returns (PrimeRate memory pr, PrimeCashFactors memory factors) {\n        pr = PrimeRateLib.buildPrimeRateStateful(currencyId);\n        factors = PrimeCashExchangeRate.getPrimeCashFactors(currencyId);\n    }\n\n    function _convertToAmountExternal(uint16 currencyId, int256 depositAmountInternal) private view returns (uint256) {\n        Token memory token = TokenHandler.getUnderlyingToken(currencyId);\n        int256 amountExternal = depositAmountInternal < 0 ?\n            // We have to do a special rounding adjustment for underlying internal deposits from lending.\n            token.convertToUnderlyingExternalWithAdjustment(depositAmountInternal.neg()) :\n            token.convertToExternal(depositAmountInternal).abs();\n\n        return SafeInt256.toUint(amountExternal);\n    }\n\n    /// @notice Converts an external deposit amount to an internal deposit amount\n    function _convertDepositAmountToUnderlyingInternal(\n        uint16 currencyId,\n        uint256 depositAmountExternal,\n        bool useUnderlying\n    ) private view returns (int256 underlyingInternal, CashGroupParameters memory cashGroup) {\n        int256 depositAmount = depositAmountExternal.toInt();\n        cashGroup = CashGroup.buildCashGroupView(currencyId);\n\n        if (useUnderlying) {\n            Token memory token = TokenHandler.getUnderlyingToken(currencyId);\n            underlyingInternal = token.convertToInternal(depositAmount);\n        } else {\n            // In this case, depositAmount is prime cash denominated\n            underlyingInternal = cashGroup.primeRate.convertToUnderlying(depositAmount);\n        }\n    }\n\n    function _encodeLendBorrowTrade(\n        TradeActionType actionType,\n        uint8 marketIndex,\n        int256 fCash,\n        uint32 slippage\n    ) private pure returns (bytes32 encodedTrade, uint88 fCashAmount) {\n        uint256 absfCash = uint256(fCash.abs());\n        require(absfCash <= uint256(type(uint88).max));\n\n        encodedTrade = bytes32(\n            (uint256(uint8(actionType)) << 248) |\n            (uint256(marketIndex) << 240) |\n            (uint256(absfCash) << 152) |\n            (uint256(slippage) << 120)\n        );\n\n        fCashAmount = uint88(absfCash);\n    }\n\n    /// @notice Get a list of deployed library addresses (sorted by library name)\n    function getLibInfo() external pure returns (address) {\n        return (address(MigrateIncentives));\n    }\n}","sourcePath":"contracts/external/CalculationViews.sol","type":"contract","deployment":{"address":"0x1fc8F62c75f7d5F031dB78277bA64C3E20ca1a0a","chainid":"42161","blockHeight":164626300}}