{"abi":[{"anonymous":false,"inputs":[{"indexed":true,"internalType":"address","name":"vault","type":"address"},{"indexed":true,"internalType":"uint16","name":"currencyId","type":"uint16"},{"indexed":false,"internalType":"uint256","name":"totalUsedBorrowCapacity","type":"uint256"}],"name":"VaultBorrowCapacityChange","type":"event"},{"anonymous":false,"inputs":[{"indexed":true,"internalType":"address","name":"vaultAddress","type":"address"},{"indexed":false,"internalType":"bool","name":"disableDeleverage","type":"bool"}],"name":"VaultDeleverageStatus","type":"event"},{"anonymous":false,"inputs":[{"indexed":true,"internalType":"address","name":"vault","type":"address"},{"indexed":false,"internalType":"bool","name":"enabled","type":"bool"}],"name":"VaultPauseStatus","type":"event"},{"anonymous":false,"inputs":[{"indexed":true,"internalType":"address","name":"vault","type":"address"},{"indexed":true,"internalType":"address","name":"account","type":"address"},{"indexed":true,"internalType":"uint16","name":"currencyId","type":"uint16"},{"indexed":false,"internalType":"uint256","name":"maturity","type":"uint256"},{"indexed":false,"internalType":"int256","name":"netUnderlyingDebt","type":"int256"},{"indexed":false,"internalType":"int256","name":"netPrimeSupply","type":"int256"}],"name":"VaultSecondaryTransaction","type":"event"},{"anonymous":false,"inputs":[{"indexed":true,"internalType":"address","name":"vault","type":"address"},{"indexed":true,"internalType":"uint16","name":"currencyId","type":"uint16"},{"indexed":false,"internalType":"uint80","name":"maxSecondaryBorrowCapacity","type":"uint80"}],"name":"VaultUpdateSecondaryBorrowCapacity","type":"event"},{"anonymous":false,"inputs":[{"indexed":true,"internalType":"address","name":"vault","type":"address"},{"indexed":false,"internalType":"bool","name":"enabled","type":"bool"},{"indexed":false,"internalType":"uint80","name":"maxPrimaryBorrowCapacity","type":"uint80"}],"name":"VaultUpdated","type":"event"},{"inputs":[{"internalType":"address","name":"account","type":"address"},{"internalType":"uint256","name":"maturity","type":"uint256"},{"internalType":"uint256[2]","name":"underlyingToBorrow","type":"uint256[2]"},{"internalType":"uint32[2]","name":"maxBorrowRate","type":"uint32[2]"},{"internalType":"uint32[2]","name":"minRollLendRate","type":"uint32[2]"}],"name":"borrowSecondaryCurrencyToVault","outputs":[{"internalType":"int256[2]","name":"underlyingTokensTransferred","type":"int256[2]"}],"stateMutability":"nonpayable","type":"function"},{"inputs":[],"name":"getLibInfo","outputs":[{"internalType":"address","name":"","type":"address"}],"stateMutability":"pure","type":"function"},{"inputs":[],"name":"owner","outputs":[{"internalType":"address","name":"","type":"address"}],"stateMutability":"view","type":"function"},{"inputs":[],"name":"pauseGuardian","outputs":[{"internalType":"address","name":"","type":"address"}],"stateMutability":"view","type":"function"},{"inputs":[],"name":"pauseRouter","outputs":[{"internalType":"address","name":"","type":"address"}],"stateMutability":"view","type":"function"},{"inputs":[{"internalType":"address","name":"account","type":"address"},{"internalType":"uint256","name":"maturity","type":"uint256"},{"internalType":"uint256[2]","name":"underlyingToRepay","type":"uint256[2]"},{"internalType":"uint32[2]","name":"minLendRate","type":"uint32[2]"}],"name":"repaySecondaryCurrencyFromVault","outputs":[{"internalType":"int256[2]","name":"underlyingDepositExternal","type":"int256[2]"}],"stateMutability":"payable","type":"function"},{"inputs":[{"internalType":"address","name":"vaultAddress","type":"address"},{"internalType":"uint80","name":"maxVaultBorrowCapacity","type":"uint80"}],"name":"setMaxBorrowCapacity","outputs":[],"stateMutability":"nonpayable","type":"function"},{"inputs":[{"internalType":"address","name":"vaultAddress","type":"address"},{"internalType":"bool","name":"disableDeleverage","type":"bool"}],"name":"setVaultDeleverageStatus","outputs":[],"stateMutability":"nonpayable","type":"function"},{"inputs":[{"internalType":"address","name":"vaultAddress","type":"address"},{"internalType":"bool","name":"enable","type":"bool"}],"name":"setVaultPauseStatus","outputs":[],"stateMutability":"nonpayable","type":"function"},{"inputs":[{"internalType":"address","name":"vault","type":"address"},{"internalType":"address","name":"account","type":"address"}],"name":"settleSecondaryBorrowForAccount","outputs":[],"stateMutability":"nonpayable","type":"function"},{"inputs":[{"internalType":"address","name":"vaultAddress","type":"address"},{"internalType":"uint16","name":"secondaryCurrencyId","type":"uint16"},{"internalType":"uint80","name":"maxBorrowCapacity","type":"uint80"}],"name":"updateSecondaryBorrowCapacity","outputs":[],"stateMutability":"nonpayable","type":"function"},{"inputs":[{"internalType":"address","name":"vaultAddress","type":"address"},{"components":[{"internalType":"uint16","name":"flags","type":"uint16"},{"internalType":"uint16","name":"borrowCurrencyId","type":"uint16"},{"internalType":"uint256","name":"minAccountBorrowSize","type":"uint256"},{"internalType":"uint16","name":"minCollateralRatioBPS","type":"uint16"},{"internalType":"uint8","name":"feeRate5BPS","type":"uint8"},{"internalType":"uint8","name":"liquidationRate","type":"uint8"},{"internalType":"uint8","name":"reserveFeeShare","type":"uint8"},{"internalType":"uint8","name":"maxBorrowMarketIndex","type":"uint8"},{"internalType":"uint16","name":"maxDeleverageCollateralRatioBPS","type":"uint16"},{"internalType":"uint16[2]","name":"secondaryBorrowCurrencies","type":"uint16[2]"},{"internalType":"uint16","name":"maxRequiredAccountCollateralRatioBPS","type":"uint16"},{"internalType":"uint256[2]","name":"minAccountSecondaryBorrow","type":"uint256[2]"},{"internalType":"uint8","name":"excessCashLiquidationBonus","type":"uint8"}],"internalType":"struct VaultConfigParams","name":"vaultParams","type":"tuple"},{"internalType":"uint80","name":"maxPrimaryBorrowCapacity","type":"uint80"}],"name":"updateVault","outputs":[],"stateMutability":"nonpayable","type":"function"}],"bytecode":"608060405234801561001057600080fd5b50615e7780620000216000396000f3fe6080604052600436106100a75760003560e01c806369a6d1cc1161006457806369a6d1cc1461017957806382463367146101995780638281ec6a146101ae5780638da5cb5b146101ce578063b67138aa146101e3578063c4c96dae14610203576100a7565b80630bc08cdc146100ac57806324a3d622146100e2578063291afdf31461010457806354cceaf71461012657806356f428c4146101465780636966692c14610166575b600080fd5b3480156100b857600080fd5b506100cc6100c73660046156a2565b610218565b6040516100d99190615a97565b60405180910390f35b3480156100ee57600080fd5b506100f761039c565b6040516100d99190615a46565b34801561011057600080fd5b5061012461011f366004615615565b6103ab565b005b34801561013257600080fd5b506101246101413660046154aa565b610494565b34801561015257600080fd5b506101246101613660046154aa565b610514565b6100cc610174366004615652565b610588565b34801561018557600080fd5b506101246101943660046154db565b610671565b3480156101a557600080fd5b506100f76107c7565b3480156101ba57600080fd5b506101246101c9366004615472565b6107d6565b3480156101da57600080fd5b506100f76107fe565b3480156101ef57600080fd5b506101246101fe366004615705565b610814565b34801561020f57600080fd5b506100f76108b3565b610220614dfa565b600061022b336108cb565b90506102388160016108f6565b61024157600080fd5b6001600160a01b03871633141561025757600080fd5b6102608161090d565b61026957600080fd5b60006102748261093c565b90506000806000610286858c8661099c565b925092509250600080846000141580156102a057508b8514155b80156102b257506102b28760026108f6565b156102dc576102d6878e876102c688610a30565b6102cf88610a30565b8b8f610a3e565b90925090505b6102ec878e8e8e8e87878d610b3d565b9092509050600082121561031b5760405162461bcd60e51b815260040161031290615b84565b60405180910390fd5b600081121561033c5760405162461bcd60e51b815260040161031290615b84565b610369338e89610140015160006002811061035357fe5b6020020151858a60005b60200201516000610b9b565b8852610140870151602001516103869033908f90848a600161035d565b602089015250959b9a5050505050505050505050565b6002546001600160a01b031681565b600054600160201b90046001600160a01b031633146103dc5760405162461bcd60e51b815260040161031290615c05565b60006103e7846108cb565b905060006103f88461ffff16610c1a565b905080602001511561040957600080fd5b6101408201515161ffff8581169116148061043357506101408201516020015161ffff8581169116145b61043c57600080fd5b610447858585610c2d565b8361ffff16856001600160a01b03167f8f868f60e49b80b48ee5de8b7bc703cfc4b5c826a05d3ea1b00cf4159c155a90856040516104859190615d82565b60405180910390a35050505050565b600054600160201b90046001600160a01b031633146104c55760405162461bcd60e51b815260040161031290615c05565b6104cf8282610c81565b816001600160a01b03167f9066b2f4ad4552447bd5ddeae159ff6b5a28a4eec9421da5a9d502deb99974e1826040516105089190615aed565b60405180910390a25050565b600054600160201b90046001600160a01b031633146105455760405162461bcd60e51b815260040161031290615c05565b61054f8282610ce2565b816001600160a01b03167f7c51c6aa77346c54cb051d9e792f9b7bde5c28a9b57e6fb2d2dd727b38438ca9826040516105089190615aed565b610590614dfa565b6001600160a01b0385163314156105a657600080fd5b60006105b1336108cb565b90506105be8160016108f6565b6105c757600080fd5b6105d08161090d565b6105d957600080fd5b60006105e48261093c565b9050600080610611848a8a6105ff8b865b6020020135610d41565b61060a8c60016105f5565b888c610a3e565b91509150610642338a86610140015160006002811061062c57fe5b6020020151858760005b60200201516001610b9b565b85526101408401516020015161065f9033908b9084876001610636565b60208601525092979650505050505050565b600054600160201b90046001600160a01b031633146106a25760405162461bcd60e51b815260040161031290615c05565b6106af8260400151610d5b565b63ffffffff1660408301526101608201516106d19060005b6020020151610d5b565b63ffffffff168261016001516000600281106106e957fe5b60200201526101608201516106ff9060016106c7565b63ffffffff1682610160015160016002811061071757fe5b6020020181815250506000826040516020016107339190615c3a565b6040516020818303038152906040528060200190518101906107559190615870565b90506107618482610d86565b61077084826020015184610c2d565b80516040516001918216909114906001600160a01b038616907fb441d7ca09abc712b4504256717707ce40e8d43895266b46abf9cd58619c07dc906107b89084908790615af8565b60405180910390a25050505050565b6001546001600160a01b031681565b3330146107e257600080fd5b60006107ed836108cb565b90506107f98183611212565b505050565b600054600160201b90046001600160a01b031681565b600054600160201b90046001600160a01b031633146108455760405162461bcd60e51b815260040161031290615c05565b6000610850836108cb565b905061086183826040015184610c2d565b6001600160a01b0383167fb441d7ca09abc712b4504256717707ce40e8d43895266b46abf9cd58619c07dc6108978360016108f6565b846040516108a6929190615af8565b60405180910390a2505050565b73__TradingAction_________________________90565b6108d3614e18565b6108dc8261144d565b90506108eb816040015161163a565b610160820152919050565b602082015161ffff80831691831616145b92915050565b6101408101515160009061ffff1615158061093457506101408201516020015161ffff1615155b90505b919050565b610944614eb1565b6101408201515161ffff161561096e5761014082015161096b9060005b602002015161163a565b81525b6101408201516020015161ffff161561093757610140820151610992906001610961565b6020820152919050565b6000806000806109aa61164c565b6001600160a01b038781166000908152602092835260408082208b5190931682529190925290208054865164ffffffffff821696509192506109fe91908690600160281b90046001600160501b0316611659565b9250610a24856001602002015182548690600160781b90046001600160501b0316611659565b91505093509350939050565b600061093460001983611697565b600080610a528989898989896001806116e5565b50508515610a8c57610140890151518451610a88908b90838b8b8960005b602002016020810190610a839190615997565b611917565b9250505b8415610ab75761014089015160209081015190850151610ab3908b90838b8a896001610a70565b9150505b600080610ac88a8c600001516119c5565b91509150610afb8a8c600001518d6101400151600060028110610ae757fe5b60200201518c610af687610a30565b611a42565b8a516101408c015160200151610b17918c918c610af686610a30565b610b218483611ad8565b9350610b2d8382611ad8565b9250505097509795505050505050565b6000808080610b6f8c8c8c610b5a610b558e876105f5565b610a30565b610b68610b558f60016105f5565b8a8e610a3e565b9092509050610b7e8783611ad8565b610b888783611ad8565b9350935050509850989650505050505050565b60008084138015610ba95750815b15610bce57610bba87878787611aee565b610bc8868686866000611b94565b50610c10565b6000841315610bf757610bf0610b55610beb898888886000611b94565b610d41565b9050610c10565b610c0d8786610c0587610a30565b866000611bc8565b90505b9695505050505050565b610c22614ede565b610934826001611c3e565b6000610c37611cd8565b6001600160a01b0390941660009081526020948552604080822061ffff90951682529390945250912080546001600160501b039092166001600160501b0319909216919091179055565b6000610c8b611ce5565b6001600160a01b038416600090815260208290526040902080549192509061ffff168315610ccb57815461ffff1916610100821761ffff16178255610cdb565b815461ffff191661feff82161782555b5050505050565b6000610cec611ce5565b6001600160a01b038416600090815260208290526040902080549192509061ffff168315610d2b57815461ffff19166001821761ffff16178255610cdb565b815461ffff191661fffe91909116179055505050565b60006001600160ff1b03821115610d5757600080fd5b5090565b60008062ffffff831115610d78576017610d7484611cf2565b0390505b82811c60081b179050919050565b6000610d90611ce5565b90506000610d9d8461144d565b9050826020015161ffff1660001415610db557600080fd5b604081015161ffff161580610dd95750826020015161ffff16816040015161ffff16145b610de257600080fd5b8260a0015160ff1660641315610df757600080fd5b60006064808560a0015160ff1603029050836060015161ffff168161ffff1610610e2057600080fd5b83610100015161ffff16846060015161ffff1610610e3d57600080fd5b83610140015161ffff1684610100015161ffff1610610e5b57600080fd5b60648460c0015160ff161315610e7057600080fd5b6101408201515161ffff161580610e9a5750610120840151516101408301515161ffff9081169116145b610ea357600080fd5b6101408201516020015161ffff161580610edc57506101208401516020015161014083015161ffff909116906001602002015161ffff16145b610ee557600080fd5b61012084015151602085015161ffff90811691161415610f0457600080fd5b6101208401516001602002015161ffff16846020015161ffff161415610f2957600080fd5b6101208401515161ffff1615801590610f4e57506101208401516020015161ffff1615155b15610f73576101208401516020810151905161ffff90811691161415610f7357600080fd5b6101208401515161ffff16151580610f9757506101208401516020015161ffff1615155b15610fb257606484610180015160ff161215610fb257600080fd5b6000610fc5856020015161ffff16610c1a565b9050806020015115610fd657600080fd5b6101208501515161ffff161561100f576101208501516110019060005b602002015161ffff16610c1a565b602001511561100f57600080fd5b6101208501516020015161ffff161561104157610120850151611033906001610ff3565b602001511561104157600080fd5b84846000886001600160a01b03166001600160a01b0316815260200190815260200160002060008201518160000160006101000a81548161ffff021916908361ffff16021790555060208201518160000160026101000a81548161ffff021916908361ffff16021790555060408201518160000160046101000a81548163ffffffff021916908363ffffffff16021790555060608201518160000160086101000a81548161ffff021916908361ffff160217905550608082015181600001600a6101000a81548160ff021916908360ff16021790555060a082015181600001600b6101000a81548160ff021916908360ff16021790555060c082015181600001600c6101000a81548160ff021916908360ff16021790555060e082015181600001600d6101000a81548160ff021916908360ff16021790555061010082015181600001600e6101000a81548161ffff021916908361ffff160217905550610120820151816001019060026111b6929190614f05565b506101408201516002828101805461ffff191661ffff909316929092179091556101608301516111eb91600384019190614f97565b5061018091909101516004909101805460ff191660ff909216919091179055505050505050565b61121b8261090d565b61122457611449565b600061122e61164c565b6001600160a01b0380841660009081526020928352604080822087519093168252919092528120805490925064ffffffffff8116916001600160501b03600160281b83048116820392600160781b9004169003826112a05781158015611292575080155b61129b57600080fd5b6112ad565b428311156112ad57600080fd5b6000806112be8789600001516119c5565b6101408a015151919350915061ffff1615611368578751610140890151516112ec91899188610af687610a30565b87516101408901515161130491908990888887611d8a565b909450915061132261131d61131886610a30565b611ec1565b611ed0565b86546001600160501b0391909116600160281b026effffffffffffffffffff00000000001990911617865587516101408901515161136891899164ffffffffff86611a42565b6101408801516020015161ffff161561140d5787516101408901516020015161139791899188610af686610a30565b8751610140890151602001516113b291908990888786611d8a565b90935090506113c661131d61131885610a30565b86546001600160501b0391909116600160781b0269ffffffffffffffffffff60781b1990911617865587516101408901516020015161140d91899164ffffffffff85611a42565b600082138061141c5750600081135b15611431576114318789600001518484611ee6565b61144286858564ffffffffff611fb5565b5050505050505b5050565b611455614e18565b600061145f611ce5565b6001600160a01b03841660008181526020838152604091829020928652825461ffff8082169288019290925262010000900416908501529091506114bb612710633b9aca008354600160501b900460ff16919005600502611ff3565b608084015280546114da90600160401b900461ffff16620186a0611ff3565b60a084015280546114f990600160701b900461ffff16620186a0611ff3565b61012084015260028101546115159061ffff16620186a0611ff3565b610180840152805460649060ff600160581b90910416633b9aca00020560c08401528054600160601b810460ff90811660e0860152600160681b909104166101008401526040805180820191829052906001830190600290826000855b82829054906101000a900461ffff1661ffff168152602001906002019060208260010104928301926001038202915080841161157257505050505061014085019190915250600481015460ff166101c084015280546115dd90600160201b900463ffffffff16612021565b60608401526116136003820160005b600891828204019190066004029054906101000a900463ffffffff1663ffffffff16612021565b6101a0840151526116286003820160016115ec565b6101a084015160200152509092915050565b611642615021565b610934824261202f565b600080610907601a6120f0565b600064ffffffffff831461167957816001600160501b031660000361168f565b61168f846001600160501b038416600003612109565b949350505050565b8181026000198314156116c7578115806116b95750828282816116b657fe5b05145b6116c257600080fd5b610907565b8215806116dc5750818382816116d957fe5b05145b61090757600080fd5b60008060006116f261164c565b6001600160a01b03808c166000908152602092835260408082208f519093168252919092529020805490915064ffffffffff1689811480611731575080155b61173a57600080fd5b8651825461175a91908c90600160281b90046001600160501b0316611659565b9350611780876001602002015183548c90600160781b90046001600160501b0316611659565b9250881561180857611792848a611ad8565b93506117c18c8c8e61014001516000600281106117ab57fe5b60200201518d8d8c60005b60200201518b612160565b6117dc61131d611318610b558a600060200201518e8961223a565b82546001600160501b0391909116600160281b026effffffffffffffffffff0000000000199091161782555b8715611885576118188389611ad8565b92506118408c8c8e610140015160016002811061183157fe5b60200201518d8c8c60016117b6565b61185b61131d611318610b558a600160200201518e8861223a565b82546001600160501b0391909116600160781b0269ffffffffffffffffffff60781b199091161782555b85156118f4578315806118a257506101a08c015151600085900312155b6118be5760405162461bcd60e51b815260040161031290615be1565b8215806118d857506101a08c015160200151600084900312155b6118f45760405162461bcd60e51b815260040161031290615be1565b6119088285856119038e612258565b611fb5565b50509850989650505050505050565b6000866040015161ffff168561ffff16141561193257600080fd5b8261193f57506000610c10565b64ffffffffff841461198e576119638588600001518686868c61010001514261226c565b9050600083121561198e576000811361198e5760405162461bcd60e51b815260040161031290615b11565b80610c10576119a0610b55878561237a565b905064ffffffffff8414610c10578651610c109086866119bf85610a30565b876123ba565b60008060006119d26124aa565b6001600160a01b039586166000908152602091825260408082209690971681529490525050502060010180547fffff0000000000000000000000000000000000000000ffffffffffffffffffff81169091556001600160501b03600160501b8204811692600160a01b9092041690565b80611a4c57610cdb565b6000611a5b858585600b6124b7565b90506000806000841215611a7457508690506000611a7b565b5060009050865b6000611a86856124ed565b9050816001600160a01b0316836001600160a01b0316336001600160a01b0316600080516020615e228339815191528785604051611ac5929190615d5e565b60405180910390a4505050505050505050565b8181018281121560008312151461090757600080fd5b6000611af861250e565b61ffff8416600090815260209190915260408120546001600160a01b03169150821215611b23579293925b806001600160a01b03166323de66518686611b3d866124ed565b6040518463ffffffff1660e01b8152600401611b5b93929190615a5a565b600060405180830381600087803b158015611b7557600080fd5b505af1158015611b89573d6000803e3d6000fd5b505050505050505050565b600080611bad878888611ba689610a30565b888861251b565b9050611bbb61131882610a30565b9150505b95945050505050565b600083611bd757506000611bbf565b60008413611be457600080fd5b6000611bf38661ffff16610c1a565b90506000611c0a82611c0587896125c4565b6125f1565b90506000611c1b898984898961262e565b90945090508681036000811215611c3157600080fd5b5050505095945050505050565b611c46614ede565b6000611c506126eb565b6000858152602082815260408083208715158452825291829020825160a08101845281546001600160a01b038116825260ff600160a01b82048116151594830194909452600160b01b81048416600a0a9482019490945293945092916060830191600160a81b909104166005811115611cc557fe5b8152600060209091015295945050505050565b60008061090760176120f0565b60008061090760146120f0565b600081611cfe57600080fd5b600160801b8210611d1157608091821c91015b600160401b8210611d2457604091821c91015b600160201b8210611d3757602091821c91015b620100008210611d4957601091821c91015b6101008210611d5a57600891821c91015b60108210611d6a57600491821c91015b60048210611d7a57600291821c91015b6002821061093757600101919050565b6000806000611d988761163a565b90506000611da46126f8565b6001600160a01b038b1660009081526020918252604080822064ffffffffff8352835280822061ffff8c1683529092522090508615611e64576000611de76126f8565b6001600160a01b038c166000908152602091825260408082208b8352835280822061ffff8d16835290925290812080549092506001600160501b03811690910390600160f01b900460ff16611e6157611e43838d8c8c85612705565b81546001600160501b031960ff60f01b19909116600160f01b171682555b50505b8615611e7a57611e778888886000612769565b93505b611e8882828a8d89896127b8565b9094509250611ea2898b8a8a611e9d8b610a30565b612881565b611eb4898b8a64ffffffffff88612881565b5050965096945050505050565b600080821215610d5757600080fd5b60006001600160501b03821115610d5757600080fd5b6000611ef06124aa565b6001600160a01b0386811660009081526020928352604080822092881682529190925290206001810154909150611f3f9061131d9061131890600160501b90046001600160501b031686611ad8565b60018201805469ffffffffffffffffffff60501b1916600160501b6001600160501b03938416021790819055611f869161131d9161131891600160a01b9091041685611ad8565b8160010160146101000a8154816001600160501b0302191690836001600160501b031602179055505050505050565b82158015611fc1575081155b15611fd757835464ffffffffff19168455611fed565b835464ffffffffff191664ffffffffff82161784555b50505050565b60008261200257506000610907565b8282028284828161200f57fe5b041461201a57600080fd5b9392505050565b600881901c60ff9091161b90565b612037615021565b600061204284612903565b905082816000015110156120815760008061205c866129cb565b905061206a86848388612a48565b909350915061207a868385612aec565b505061208e565b8051831461208e57600080fd5b60405180606001604052806120b7610beb8460a001518560c00151611ff390919063ffffffff16565b81526020016120da610beb8460a001518560e00151611ff390919063ffffffff16565b8152602001826060015181525091505092915050565b6000620f424082602681111561210257fe5b0192915050565b60006001821261211857600080fd5b8161212557506000610907565b61201a600161215a6ec097ce7bc90715b34b9f100000000061215487602001518761169790919063ffffffff16565b90612d1d565b90612d4e565b600061216a6126f8565b88516001600160a01b0316600090815260209182526040808220888352835280822061ffff8a16835290925290812080549092506121b490859088906001600160501b0316611659565b90506121c08186611ad8565b90506121d282858b8a8a866000612d64565b600080861380156121e7575064ffffffffff87145b1561220957612202610b5586896121fd8a610a30565b61223a565b9050612217565b61221485888861223a565b90505b831561222e5761222e898b600001518a8a85612881565b50505050505050505050565b600064ffffffffff831461224e578161168f565b61168f8483612e3e565b600064ffffffffff821115610d5757600080fd5b60008061227b89888686612e9a565b90506000612288876124ed565b90506001600160581b03811061229d57600080fd5b600060788763ffffffff16901b609883901b60f085901b60f860008c136122c55760016122c8565b60005b60058111156122d357fe5b60ff16901b17171760001b905073__TradingAction_________________________63715e90028c8c846040518463ffffffff1660e01b815260040161231b93929190615d30565b60206040518083038186803b15801561233357600080fd5b505af4158015612347573d6000803e3d6000fd5b505050506040513d601f19601f8201168201806040525081019061236b9190615858565b9b9a5050505050505050505050565b8151600090819061239e90612154856ec097ce7bc90715b34b9f1000000000611697565b9050600083126123ae578061168f565b61168f81600019612ed9565b60006123c4612eef565b61ffff8616600090815260208281526040808320888452909152902080549192509061240d9061131d90600160501b90046001600160501b031661240786611ec1565b90612efc565b815469ffffffffffffffffffff60501b1916600160501b6001600160501b03928316021780835561244d9161131d91600160a01b90041661240787611ec1565b81546001600160501b0391909116600160a01b0269ffffffffffffffffffff60a01b19909116178155612484876105e78887611aee565b6124926105e7878786612f0e565b6124a16105e788888887612f86565b50505050505050565b60008061090760166120f0565b68010000000000000000600160e01b03604085901b1667ffff000000000000603085901b1617600883901b178117949350505050565b6000808212156125075761250082610a30565b9050610937565b5080610937565b60008061090760216120f0565b60008361252a57506000610c10565b6000841261253757600080fd5b60006125468661ffff16610c1a565b905061255b8161255686886125c4565b612ff1565b9150600061256883610a30565b9050612575878383613029565b60038260600151600581111561258757fe5b141561259d57612598888286613115565b6125aa565b81516125aa9089836131dd565b6125b78988858589613254565b5050509695505050505050565b60008061239e6ec097ce7bc90715b34b9f100000000061215486600001518661169790919063ffffffff16565b60006305f5e1008360400151121561261f5761261860016126128585612ff1565b90611ad8565b9050610907565b61201a83612556846001611ad8565b600080600061263c86611ec1565b9050806126505760008092509250506126e1565b600061265f8861ffff16610c1a565b905060038160600151600581111561267357fe5b14156126ba57348210156126935761268e8983340387613115565b6126b2565b3482146126b25760405162461bcd60e51b815260040161031290615b38565b8693506126cf565b6126cc610beb82600001518b8561329b565b93505b6126dc898986848a613254565b925050505b9550959350505050565b60008061090760076120f0565b60008061090760186120f0565b600061271384848488612769565b86549091506001600160501b0316600061272d8284612d4e565b905061273b61131d82611ec1565b88546001600160501b0319166001600160501b0391909116178855611442878761276487610a30565b613419565b600080600061277887876134e0565b915091508061278657600080fd5b6127908286612e3e565b92506001600160a01b038416156127ae576127ae8488888887613573565b5050949350505050565b806000808413156128765760006127dc6127d5610b558b886125c4565b8a90612e3e565b90506000848212156128165750600092508361280f612808610b556128018585612d4e565b8d90612109565b8b9061237a565b9250612825565b50806128228582612d4e565b93505b6128318a888a84613646565b88546001600160501b031660006128488284611ad8565b905061285661131d82611ec1565b8b546001600160501b0319166001600160501b0391909116178b55505050505b965096945050505050565b8061288b57610cdb565b6000808061289c878787600a6124b7565b905060008413156128b357879250600091506128bb565b600092508791505b6001600160a01b0380831690841633600080516020615e22833981519152846128e3896124ed565b6040516128f1929190615d5e565b60405180910390a45050505050505050565b61290b615042565b6000612915613673565b61ffff93841660009081526020918252604090819020805464ffffffffff81168652600160281b81046001600160581b03908116948701949094526001820154841692860192909252600160d81b820463ffffffff166060860152600160801b9091049091166080840152600201546001600160501b0380821660a0850152600160501b8204811660c0850152600160a01b82041660e0840152600160f01b900460ff1661012c02909216610100820152919050565b6000806129d783613680565b6001600160a01b031663ef81f2166040518163ffffffff1660e01b81526004016040805180830381600087803b158015612a1057600080fd5b505af1158015612a24573d6000803e3d6000fd5b505050506040513d601f19601f8201168201806040525081019061168f9190615974565b612a50615042565b6000806000612a608886896136b0565b60c08b019290925260e08a019290925260208901519193509150612a849083612efc565b6020880152608087015160009015612ab2576080880151612aaf90612aa989826137c1565b906137d6565b90505b612ad2612ac7670de0b6b3a764000083612efc565b60a08a0151906137f3565b60a089015250506080860194909452505082529092909150565b6000612af6613673565b60008561ffff1681526020019081526020016000209050612b1a8260000151612258565b815464ffffffffff191664ffffffffff9190911617815560a0820151612b3f90611ed0565b6002820180546001600160501b0319166001600160501b039290921691909117905560c0820151612b6f90611ed0565b81600201600a6101000a8154816001600160501b0302191690836001600160501b03160217905550612ba48260e00151611ed0565b8160020160146101000a8154816001600160501b0302191690836001600160501b03160217905550612bd98260200151613810565b81546001600160581b0391909116600160281b026fffffffffffffffffffffff0000000000199091161781556040820151612c1390613810565b6001820180546affffffffffffffffffffff19166001600160581b03929092169190911790556080820151612c4790613810565b81546001600160581b0391909116600160801b026affffffffffffffffffffff60801b199091161781556060820151612c7f90613826565b815463ffffffff91909116600160d81b0263ffffffff60d81b199091161781558215612ccb576000612cb084610d41565b9050612cbc8582613839565b612cc9610fee8683613870565b505b8361ffff167fef25641e225e493886510ca1ad6584fa7b442b9fea820a29d1de3ce27d270fd28360a001518460c001518560e00151604051612d0f93929190615d6c565b60405180910390a250505050565b600081600019148015612d335750600160ff1b83145b15612d3d57600080fd5b818381612d4657fe5b059392505050565b8082038281131560008312151461090757600080fd5b86546001600160501b0316600090810390612d8088868661223a565b9050612d9161131d61131883610a30565b89546001600160501b0319166001600160501b03919091161789556000612db883836138f0565b9050600064ffffffffff871415612ddf578851612dd8908b908a85613646565b5084612e11565b84612e11578851612df39089898787613977565b8851612e03908961276485610a30565b612e0e898b8a613a37565b90505b600082138015612e1f575084155b15612e31578851612e31908983613add565b5050505050505050505050565b600081600013158015612e515750600a82125b15612e5e57506000610907565b60008212612e6b57600080fd5b61201a600161215a85602001516121546ec097ce7bc90715b34b9f10000000008761169790919063ffffffff16565b6000806000612eac8761ffff16613b59565b9050612ebc8160ff168786613b6f565b909350915084831115612ece57600080fd5b81156127ae57600080fd5b6000818312612ee8578161201a565b5090919050565b60008061090760206120f0565b60008282018381101561201a57600080fd5b600080612f1c858585613bfe565b915091506000806000851215612f3457879150612f37565b50865b806001600160a01b0316826001600160a01b0316336001600160a01b03167f4a39dc06d4c0dbc64b70af90fd698a233a518aa5d07e595d983b8c0526c8f7fb87876040516128f1929190615ac8565b80612f9057610cdb565b6000612f9c8484613ce3565b90506000821215612fab579394935b6001600160a01b0380861690871633600080516020615e2283398151915284612fd3876124ed565b604051612fe1929190615d5e565b60405180910390a4505050505050565b60006305f5e1008360400151141561300a575080610907565b61201a6305f5e10061215485604001518561169790919063ffffffff16565b6000613033613d01565b83516001600160a01b031660009081526020829052604090205490915080831161305e5750506107f9565b600061306986613680565b90506000816001600160a01b031663b5e4da238487036040518263ffffffff1660e01b815260040161309b9190615d55565b60006040518083038186803b1580156130b357600080fd5b505afa1580156130c7573d6000803e3d6000fd5b505050506040513d6000823e601f3d908101601f191682016040526130ef9190810190615739565b905060006130fd8783613d0e565b90506131098482612efc565b86111561144257600080fd5b80156131a7577382af49447d8a07e3bd95bd0d56f35241523fbab16001600160a01b031663d0e30db0836040518263ffffffff1660e01b81526004016000604051808303818588803b15801561316a57600080fd5b505af115801561317e573d6000803e3d6000fd5b50505050506131a27382af49447d8a07e3bd95bd0d56f35241523fbab184846131dd565b6107f9565b6040516001600160a01b0384169083156108fc029084906000818181858888f19350505050158015611fed573d6000803e3d6000fd5b826001600160a01b031663a9059cbb83836040518363ffffffff1660e01b815260040180836001600160a01b0316815260200182815260200192505050600060405180830381600087803b15801561323457600080fd5b505af1158015613248573d6000803e3d6000fd5b505050506107f9613f51565b6000806132618486613fbe565b905061326d838261237a565b915061327a878784613870565b613285868383613fee565b835161329190866140fa565b5095945050505050565b600080846001600160a01b03166370a08231306040518263ffffffff1660e01b815260040180826001600160a01b0316815260200191505060206040518083038186803b1580156132eb57600080fd5b505afa1580156132ff573d6000803e3d6000fd5b505050506040513d602081101561331557600080fd5b5051604080516323b872dd60e01b81526001600160a01b038781166004830152306024830152604482018790529151929350908716916323b872dd9160648082019260009290919082900301818387803b15801561337257600080fd5b505af1158015613386573d6000803e3d6000fd5b50505050613392613f51565b6000856001600160a01b03166370a08231306040518263ffffffff1660e01b815260040180826001600160a01b0316815260200191505060206040518083038186803b1580156133e157600080fd5b505afa1580156133f5573d6000803e3d6000fd5b505050506040513d602081101561340b57600080fd5b50519050610c1081836137c1565b6000613423611cd8565b6001600160a01b03851660009081526020918252604080822061ffff87168352909252908120805490925061346890600160501b90046001600160501b031684612d4e565b905061347661131d82611ec1565b82546001600160501b0391909116600160501b0269ffffffffffffffffffff60501b1990911617825560405161ffff8516906001600160a01b038716907f20478ef460e49d010960d4f3fff35d8dae385443abfac09035d6a2ccbcd834c490610485908590615d55565b6134e8615021565b6000806134f361414f565b61ffff861660009081526020828152604080832088845290915290208054600160f01b900460ff169350909150821561356a5780546001600160501b03600160a01b8204811691613545911682611ff3565b8552815461356390600160501b90046001600160501b031682611ff3565b6020860152505b50509250929050565b600061357f8585613ce3565b9050600083121561359157600160401b175b60006001600160a01b03871633600080516020615e22833981519152846135b7886124ed565b6040516135c5929190615d5e565b60405180910390a460006135dc600084128761415c565b9050806001600160a01b03166323de66516105e7896135fa876124ed565b6040518463ffffffff1660e01b815260040161361893929190615a5a565b600060405180830381600087803b15801561363257600080fd5b505af1158015612e31573d6000803e3d6000fd5b8015611fed578351602085015160009161366591612154908590611697565b9050610cdb848484846141bc565b600080610907601d6120f0565b60008061368b6142f9565b61ffff939093166000908152602093909352505060409020546001600160a01b031690565b6000806000806000806136c38988614306565b895190955091935091506000906136ea906136df908b906137c1565b633b9aca0090611ff3565b90506137246137196301da9c006137018585611ff3565b8161370857fe5b670de0b6b3a7640000919004612efc565b60e08a0151906137f3565b965061374661373b6301da9c006137018785611ff3565b60c08a0151906137f3565b95508183141561375d5750600093506137b8915050565b600061377f6137746301da9c006137018786611ff3565b60e08b0151906137f3565b9050600061378d89836137c1565b90506137b0886137aa838d60400151611ff390919063ffffffff16565b906143a1565b965050505050505b93509350935093565b6000828211156137d057600080fd5b50900390565b600061201a6137ed84670de0b6b3a7640000611ff3565b836143a1565b600061201a6138028484611ff3565b670de0b6b3a76400006143a1565b60006001600160581b03821115610d5757600080fd5b600063ffffffff821115610d5757600080fd5b600081121561384757600080fd5b6000613855610fee846143c0565b90506138618183611ad8565b90506107f9610fee8483614419565b600061387a61250e565b61ffff8416600090815260209190915260409081902054905163ad1c095d60e01b81526001600160a01b039091169150819063ad1c095d906138c29087908690600401615a7e565b600060405180830381600087803b1580156138dc57600080fd5b505af1158015611442573d6000803e3d6000fd5b60008183148061390d57506000831215801561390d575060008212155b1561391a57506000610907565b6000831315801561392b5750816000125b15613937575081610907565b600082131580156139485750826000125b156139565761261882610a30565b60008313158015613968575060008213155b156100a7576126188383612d4e565b600061398383836138f0565b9050806139905750610cdb565b600061399a612eef565b61ffff87166000908152602082815260408083208984529091528120549192506001600160501b039091168103906139d28285612d4e565b905060008113156139e257600080fd5b6139f161131d61131883610a30565b61ffff89166000908152602085815260408083208b8452909152902080546001600160501b0319166001600160501b0392909216919091179055611b8989898987612f0e565b600080846040015161ffff168361ffff161415613a8357613a5661448d565b85516001600160a01b031660009081526020918252604080822064ffffffffff8352909252209050613ac0565b613a8b6126f8565b85516001600160a01b031660009081526020918252604080822064ffffffffff8352835280822061ffff871683529092522090505b8054611bbf90859064ffffffffff906001600160501b0316611659565b6000613ae7611cd8565b6001600160a01b03851660009081526020918252604080822061ffff871683529092529081208054909250613b2c90600160501b90046001600160501b031684612d4e565b82549091506001600160501b0316811315610cdb5760405162461bcd60e51b815260040161031290615bbb565b600080613b658361449a565b60ff169392505050565b60008060008511613b7f57600080fd5b6007851115613b8d57600080fd5b6000613b98846144b7565b905060015b868111613bf0576000613bb9613bb2836144d5565b8490612efc565b905086811415613bd15750925060009150613bf69050565b86811115613be75750925060019150613bf69050565b50600101613b9d565b50600080fd5b935093915050565b604080516002808252606082810190935282916000918160200160208202803683370190505090506000613c328787613ce3565b90508082600081518110613c4257fe5b602002602001018181525050600160401b811782600181518110613c6257fe5b602090810291909101015260408051600280825260608201909252600091816020016020820280368337019050509050613c9b866124ed565b81600081518110613ca857fe5b602002602001018181525050613cbd866124ed565b81600181518110613cca57fe5b6020908102919091010152919791965090945050505050565b67ffff000000000000603083901b16600882901b1760011792915050565b60008061090760266120f0565b6000805b8251811015613f4a576000838281518110613d2957fe5b60200260200101519050600081606001516001600160a01b03166370a08231306040518263ffffffff1660e01b8152600401613d659190615a46565b60206040518083038186803b158015613d7d57600080fd5b505afa158015613d91573d6000803e3d6000fd5b505050506040513d601f19601f82011682018060405250810190613db59190615858565b90506000613dc38730614579565b905060005b835151811015613e1457613e0c84600001518281518110613de557fe5b6020026020010151600086602001518481518110613dff57fe5b6020026020010151614623565b600101613dc8565b506000613e218830614579565b90506000613e2f82846137c1565b90508085604001511115613e4257600080fd5b60608501516040516370a0823160e01b81526000916001600160a01b0316906370a0823190613e75903090600401615a46565b60206040518083038186803b158015613e8d57600080fd5b505afa158015613ea1573d6000803e3d6000fd5b505050506040513d601f19601f82011682018060405250810190613ec59190615858565b905084811115613ed457600080fd5b608086015160ff1615801590613ef35750613eef85826137c1565b8214155b15613f0e576080860151613f0b90829060ff16612efc565b90505b613f1d86606001518683614760565b613f278883612efc565b9750613f388a600001518585614760565b505060019094019350613d1292505050565b5092915050565b6000613f5b61508e565b3d8015613f6f5760208114613f7857600080fd5b60019250613f83565b60206000833e815192505b5081611449576040805162461bcd60e51b8152602060048201526005602482015264045524332360dc1b604482015290519081900360640190fd5b60006305f5e10083604001511415613fd7575080610907565b604083015161201a90612154846305f5e100611697565b6000613ff8613673565b61ffff8516600090815260209190915260409020805490915064ffffffffff16421461402357600080fd5b805460009061404290600160281b90046001600160581b031685611ad8565b825490915060009061406490600160801b90046001600160581b031685611ad8565b905080624c4b40131561407657600080fd5b61408761408282611ec1565b613810565b83546001600160581b0391909116600160801b026affffffffffffffffffffff60801b199091161783556140bd61408283611ec1565b83546001600160581b0391909116600160281b026fffffffffffffffffffffff0000000000199091161783556140f2836147dd565b505050505050565b6000614104613d01565b6001600160a01b03841660009081526020829052604090205490915061412d6113188285611ad8565b6001600160a01b03909416600090815260209290925250604090209190915550565b600080610907601e6120f0565b60008261418e5761416b61250e565b61ffff8316600090815260209190915260409020546001600160a01b031661201a565b6141966148a8565b61ffff8316600090815260209190915260409020546001600160a01b0316905092915050565b60006141c6613673565b61ffff8516600090815260209190915260409020805490915064ffffffffff1642146141f157600080fd5b8054600160f81b900460ff1661420657600080fd5b6001810154600090614221906001600160581b031685611ad8565b825490915060009061424390600160281b90046001600160581b031685611ad8565b9050816009191280156142565750600082125b1561426057600091505b806009191280156142715750600081125b1561427a575060005b61428661408283611ec1565b6001840180546affffffffffffffffffffff19166001600160581b03929092169190911790556142b861408282611ec1565b83546001600160581b0391909116600160281b026fffffffffffffffffffffff0000000000199091161783556142f0878786886148b5565b6124a1836147dd565b600080610907601f6120f0565b600080600080600085602001511115614353576143506143378660c001518760200151611ff390919063ffffffff16565b60e0870151604088015161434a91611ff3565b906149bd565b90505b600061435e876149d0565b905061436a8183614a03565b945081156143815761437e81866001614ab6565b93505b602086015115614398576143958583614b30565b92505b50509250925092565b60008082116143af57600080fd5b8183816143b857fe5b049392505050565b6000806143cb614b49565b6001600160a01b03851660009081526020828152604080832061ffff8816845290915281208054600160a81b9004600a90810b900b945091925083121561441157600080fd5b505092915050565b600081121561442757600080fd5b6000614431614b49565b6001600160a01b03851660009081526020828152604080832061ffff88168452909152902090915061446283614b56565b8154600a9190910b6001600160581b0316600160a81b026001600160a81b0390911617905550505050565b60008061090760156120f0565b6000806144a5614b88565b60009384526020525050604090205490565b60006276a7008210156144c957600080fd5b506276a7008106900390565b600081600114156144ea57506276a700610937565b81600214156144fd575062ed4e00610937565b816003141561451157506301da9c00610937565b816004141561452557506303b53800610937565b816005141561453957506309450c00610937565b816006141561454d575063128a1800610937565b816007141561456157506325143000610937565b60405162461bcd60e51b815260040161031290615b5d565b600060038360600151600581111561458d57fe5b14156145a457506001600160a01b03811631610907565b82516040516370a0823160e01b81526001600160a01b03909116906370a08231906145d3908590600401615a46565b60206040518083038186803b1580156145eb57600080fd5b505afa1580156145ff573d6000803e3d6000fd5b505050506040513d601f19601f820116820180604052508101906126189190615858565b600080846001600160a01b031684846040518082805190602001908083835b602083106146615780518252601f199092019160209182019101614642565b6001836020036101000a03801982511681845116808217855250505050505090500191505060006040518083038185875af1925050503d80600081146146c3576040519150601f19603f3d011682016040523d82523d6000602084013e6146c8565b606091505b5091509150816146d782614b95565b906140f25760405162461bcd60e51b81526004018080602001828103825283818151815260200191508051906020019080838360005b8381101561472557818101518382015260200161470d565b50505050905090810190601f1680156147525780820380516001836020036101000a031916815260200191505b509250505060405180910390fd5b600061476a613d01565b6001600160a01b0385166000908152602082905260409020549091508381111561479357600080fd5b60006147aa6147a186610d41565b61215a86610d41565b90506147b96113188383611ad8565b6001600160a01b039096166000908152602093909352505060409020929092555050565b8054600282015460009161481f91600160281b9091046001600160581b031690614819906001600160501b03600160501b820481169116611697565b90611697565b60018301546002840154919250600091614859916001600160581b031690614819906001600160501b03600160a01b820481169116611697565b83549091506000906148909060016001600160581b03600160801b909204821601166ec097ce7bc90715b34b9f1000000000611697565b90508061489d8484612d4e565b1315611fed57600080fd5b60008061090760226120f0565b60006148bf61250e565b61ffff8516600090815260209190915260408120546001600160a01b031691506148e76148a8565b61ffff8616600090815260209190915260409081902054905163ad1c095d60e01b81526001600160a01b039091169150819063ad1c095d9061492f9089908790600401615a7e565b600060405180830381600087803b15801561494957600080fd5b505af115801561495d573d6000803e3d6000fd5b505060405163ad1c095d60e01b81526001600160a01b038516925063ad1c095d915061498f9089908890600401615a7e565b600060405180830381600087803b1580156149a957600080fd5b505af115801561222e573d6000803e3d6000fd5b600061201a6137ed84633b9aca00611ff3565b6149d86150ac565b60006149e2614c9a565b61ffff841660009081526020919091526040812054915061201a9082614ca7565b600080836080015111614a1557600080fd5b633b9aca00821115614a2657600080fd5b82518211614a45578251604084015161261891906137aa908590611ff3565b82602001518211614a7d576040830151835160208501516060860151612618939261240792819003916137aa91880390859003611ff3565b61201a83606001516124078560200151633b9aca00036137aa876060015188608001510388602001518803611ff390919063ffffffff16565b600080614ad560646137aa8760e0015187611ff390919063ffffffff16565b90508460a00151811015614aea575060a08401515b8460c00151811115614afd575060c08401515b8215614b1457614b0d8482612efc565b9150614b28565b838111614b2357808403611bbf565b600091505b509392505050565b600061201a614b3f8484611ff3565b633b9aca006143a1565b60008061090760066120f0565b60006a7fffffffffffffffffffff198212801590614b7f57506a7fffffffffffffffffffff8213155b610d5757600080fd5b60008061090760096120f0565b6060604482511015614bcb575060408051808201909152600d81526c14da5b195b9d0814995d995c9d609a1b6020820152610937565b6004820180519092602401906020811015614be557600080fd5b8101908080516040519392919084600160201b821115614c0457600080fd5b908301906020820185811115614c1957600080fd5b8251600160201b811182820188101715614c3257600080fd5b82525081516020918201929091019080838360005b83811015614c5f578181015183820152602001614c47565b50505050905090810190601f168015614c8c5780820380516001836020036101000a031916815260200191505b506040525050509050919050565b600080610907601b6120f0565b614caf6150ac565b6064633b9aca008360ff861660208110614cc557fe5b1a0281614cce57fe5b0481526064633b9aca008360ff861660010160208110614cea57fe5b1a0281614cf357fe5b04816020018181525050614d188260028560ff160160208110614d1257fe5b1a614dc6565b60808201819052610100908360ff861660030160208110614d3557fe5b1a0281614d3e57fe5b0460408201526080810151610100908360ff861660040160208110614d5f57fe5b1a0281614d6857fe5b0460608201526207a1208260ff851660050160208110614d8457fe5b1a0260a0820152622625a08260ff851660060160208110614da157fe5b1a0260c08201528160ff841660070160208110614dba57fe5b1a60e082015292915050565b60008160ff16609610614de15760ff8216622625a002610934565b5060951960ff919091160162e4e1c00263165a0bc00190565b60405180604001604052806002906020820280368337509192915050565b604051806101e0016040528060006001600160a01b03168152602001600061ffff168152602001600061ffff16815260200160008152602001600081526020016000815260200160008152602001600081526020016000815260200160008152602001614e83614dfa565b8152602001614e90615021565b815260200160008152602001614ea4614dfa565b8152602001600081525090565b60405180604001604052806002905b614ec8615021565b815260200190600190039081614ec05790505090565b6040805160a081018252600080825260208201819052918101829052906060820190614ea4565b600183019183908215614f8b5791602002820160005b83821115614f5b57835183826101000a81548161ffff021916908361ffff1602179055509260200192600201602081600101049283019260010302614f1b565b8015614f895782816101000a81549061ffff0219169055600201602081600101049283019260010302614f5b565b505b50610d579291506150f1565b600183019183908215614f8b5791602002820160005b83821115614ff157835183826101000a81548163ffffffff021916908363ffffffff1602179055509260200192600401602081600301049283019260010302614fad565b8015614f895782816101000a81549063ffffffff0219169055600401602081600301049283019260010302614ff1565b60405180606001604052806000815260200160008152602001600081525090565b6040518061012001604052806000815260200160008152602001600081526020016000815260200160008152602001600081526020016000815260200160008152602001600081525090565b60405180602001604052806001906020820280368337509192915050565b60405180610100016040528060008152602001600081526020016000815260200160008152602001600081526020016000815260200160008152602001600081525090565b5b80821115610d5757600081556001016150f2565b805161093781615dd8565b600082601f830112615121578081fd5b8151602061513661513183615dba565b615d96565b8281528181019085830183850287018401881015615152578586fd5b855b8581101561517957815161516781615dd8565b84529284019290840190600101615154565b5090979650505050505050565b6000601f8381840112615197578182fd5b825160206151a761513183615dba565b82815281810190868301865b8581101561524c57815189018a603f8201126151cd578889fd5b8581015167ffffffffffffffff8111156151e357fe5b6151f4818a01601f19168801615d96565b81815260408d81848601011115615209578b8cfd5b8b5b83811015615226578481018201518382018b0152890161520b565b83811115615236578c8a85850101525b50508652505092840192908401906001016151b3565b509098975050505050505050565b600082601f83011261526a578081fd5b6040516040810181811067ffffffffffffffff8211171561528757fe5b806040525080838560408601111561529d578384fd5b835b60028110156152c85781356152b381615df0565b8352602092830192919091019060010161529f565b509195945050505050565b600082601f8301126152e3578081fd5b6040516040810181811067ffffffffffffffff8211171561530057fe5b8060405250808385604086011115615316578384fd5b835b60028110156152c857815161532c81615df0565b83526020928301929190910190600101615318565b806040810183101561090757600080fd5b600082601f830112615362578081fd5b6040516040810181811067ffffffffffffffff8211171561537f57fe5b8060405250808385604086011115615395578384fd5b835b60028110156152c8578135835260209283019290910190600101615397565b600082601f8301126153c6578081fd5b6040516040810181811067ffffffffffffffff821117156153e357fe5b80604052508083856040860111156153f9578384fd5b835b60028110156152c857815161540f81615e00565b835260209283019291909101906001016153fb565b803561093781615df0565b805161093781615df0565b805161093781615e00565b803561093781615e12565b80356001600160501b038116811461093757600080fd5b805161093781615e12565b60008060408385031215615484578182fd5b823561548f81615dd8565b9150602083013561549f81615dd8565b809150509250929050565b600080604083850312156154bc578182fd5b82356154c781615dd8565b91506020830135801515811461549f578182fd5b60008060008385036102208112156154f1578182fd5b84356154fc81615dd8565b93506101e0601f198201811315615511578283fd5b6101a0915061551f82615d96565b61552b60208801615424565b815261553960408801615424565b60208201526060870135604082015261555460808801615424565b606082015261556560a08801615445565b608082015261557660c08801615445565b60a082015261558760e08801615445565b60c082015261010061559a818901615445565b60e08301526101206155ad818a01615424565b8284015261014091506155c28a838b0161525a565b908301526101806155d4898201615424565b828401526155e48a868b01615352565b6101608401526155f5848a01615445565b9083015250935061560c9150506102008501615450565b90509250925092565b600080600060608486031215615629578081fd5b833561563481615dd8565b9250602084013561564481615df0565b915061560c60408501615450565b60008060008060c08587031215615667578182fd5b843561567281615dd8565b9350602085013592506156888660408701615341565b91506156978660808701615341565b905092959194509250565b600080600080600061010086880312156156ba578283fd5b85356156c581615dd8565b9450602086013593506156db8760408801615341565b92506156ea8760808801615341565b91506156f98760c08801615341565b90509295509295909350565b60008060408385031215615717578182fd5b823561572281615dd8565b915061573060208401615450565b90509250929050565b6000602080838503121561574b578182fd5b825167ffffffffffffffff80821115615762578384fd5b818501915085601f830112615775578384fd5b815161578361513182615dba565b81815284810190848601875b84811015615849578151870160a0818d03601f190112156157ae57898afd5b6040805160a081018181108a821117156157c457fe5b8252828b0151898111156157d6578c8dfd5b6157e48f8d83870101615111565b82525081830151898111156157f7578c8dfd5b6158058f8d83870101615186565b8c8301525060608301518282015261581f60808401615106565b606082015261583060a08401615467565b608082015286525050928701929087019060010161578f565b50909998505050505050505050565b600060208284031215615869578081fd5b5051919050565b60006101e08284031215615882578081fd5b61588d6101a0615d96565b6158968361542f565b81526158a46020840161542f565b60208201526158b56040840161543a565b60408201526158c66060840161542f565b60608201526158d760808401615467565b60808201526158e860a08401615467565b60a08201526158f960c08401615467565b60c082015261590a60e08401615467565b60e082015261010061591d81850161542f565b90820152610120615930858583016152d3565b9082015261016061594284820161542f565b610140830152610180615957868287016153b6565b828401526159686101c08601615467565b90830152509392505050565b60008060408385031215615986578182fd5b505080516020909101519092909150565b6000602082840312156159a8578081fd5b813561201a81615e00565b8060005b6002811015611fed57815161ffff168452602093840193909101906001016159b7565b8060005b6002811015611fed5781518452602093840193909101906001016159de565b6000815180845260208085019450808401835b83811015615a2c57815187529582019590820190600101615a10565b509495945050505050565b61ffff169052565b60ff169052565b6001600160a01b0391909116815260200190565b6001600160a01b039384168152919092166020820152604081019190915260600190565b6001600160a01b03929092168252602082015260400190565b60408101818360005b6002811015615abf578151835260209283019290910190600101615aa0565b50505092915050565b600060408252615adb60408301856159fd565b8281036020840152611bbf81856159fd565b901515815260200190565b91151582526001600160501b0316602082015260400190565b6020808252600d908201526c109bdc9c9bddc811985a5b1959609a1b604082015260600190565b6020808252600b908201526a4554482042616c616e636560a81b604082015260600190565b6020808252600d908201526c092dcecc2d8d2c840d2dcc8caf609b1b604082015260600190565b6020808252601d908201527f496e73756666696369656e74205365636f6e6461727920426f72726f77000000604082015260600190565b6020808252600c908201526b4d617820436170616369747960a01b604082015260600190565b6020808252600a90820152696d696e20626f72726f7760b01b604082015260600190565b6020808252818101527f4f776e61626c653a2063616c6c6572206973206e6f7420746865206f776e6572604082015260600190565b60006101e082019050615c4e828451615a37565b6020830151615c606020840182615a37565b50604083015160408301526060830151615c7d6060840182615a37565b506080830151615c906080840182615a3f565b5060a0830151615ca360a0840182615a3f565b5060c0830151615cb660c0840182615a3f565b5060e0830151615cc960e0840182615a3f565b5061010080840151615cdd82850182615a37565b505061012080840151615cf2828501826159b3565b5050610140830151610160615d0981850183615a37565b8401519050610180615d1d848201836159da565b8401519050613f4a6101c0840182615a3f565b61ffff9390931683526001600160a01b03919091166020830152604082015260600190565b90815260200190565b918252602082015260400190565b9283526020830191909152604082015260600190565b6001600160501b0391909116815260200190565b60405181810167ffffffffffffffff81118282101715615db257fe5b604052919050565b600067ffffffffffffffff821115615dce57fe5b5060209081020190565b6001600160a01b0381168114615ded57600080fd5b50565b61ffff81168114615ded57600080fd5b63ffffffff81168114615ded57600080fd5b60ff81168114615ded57600080fdfec3d58168c5ae7397731d063d5bbf3d657854427343f4c083240f7aacaa2d0f62a264697066735822122028249430afb90e03948cb8613008023c964f2716d7d984ae1896b4bac4b1a86864736f6c63430007060033","bytecodeSha1":"134b81b3cffff96864627fd70021ed19912f5277","compiler":{"evm_version":"istanbul","optimizer":{"enabled":true,"runs":200},"version":"0.7.6+commit.7338295f"},"contractName":"VaultAction","deployedBytecode":"6080604052600436106100a75760003560e01c806369a6d1cc1161006457806369a6d1cc1461017957806382463367146101995780638281ec6a146101ae5780638da5cb5b146101ce578063b67138aa146101e3578063c4c96dae14610203576100a7565b80630bc08cdc146100ac57806324a3d622146100e2578063291afdf31461010457806354cceaf71461012657806356f428c4146101465780636966692c14610166575b600080fd5b3480156100b857600080fd5b506100cc6100c73660046156a2565b610218565b6040516100d99190615a97565b60405180910390f35b3480156100ee57600080fd5b506100f761039c565b6040516100d99190615a46565b34801561011057600080fd5b5061012461011f366004615615565b6103ab565b005b34801561013257600080fd5b506101246101413660046154aa565b610494565b34801561015257600080fd5b506101246101613660046154aa565b610514565b6100cc610174366004615652565b610588565b34801561018557600080fd5b506101246101943660046154db565b610671565b3480156101a557600080fd5b506100f76107c7565b3480156101ba57600080fd5b506101246101c9366004615472565b6107d6565b3480156101da57600080fd5b506100f76107fe565b3480156101ef57600080fd5b506101246101fe366004615705565b610814565b34801561020f57600080fd5b506100f76108b3565b610220614dfa565b600061022b336108cb565b90506102388160016108f6565b61024157600080fd5b6001600160a01b03871633141561025757600080fd5b6102608161090d565b61026957600080fd5b60006102748261093c565b90506000806000610286858c8661099c565b925092509250600080846000141580156102a057508b8514155b80156102b257506102b28760026108f6565b156102dc576102d6878e876102c688610a30565b6102cf88610a30565b8b8f610a3e565b90925090505b6102ec878e8e8e8e87878d610b3d565b9092509050600082121561031b5760405162461bcd60e51b815260040161031290615b84565b60405180910390fd5b600081121561033c5760405162461bcd60e51b815260040161031290615b84565b610369338e89610140015160006002811061035357fe5b6020020151858a60005b60200201516000610b9b565b8852610140870151602001516103869033908f90848a600161035d565b602089015250959b9a5050505050505050505050565b6002546001600160a01b031681565b600054600160201b90046001600160a01b031633146103dc5760405162461bcd60e51b815260040161031290615c05565b60006103e7846108cb565b905060006103f88461ffff16610c1a565b905080602001511561040957600080fd5b6101408201515161ffff8581169116148061043357506101408201516020015161ffff8581169116145b61043c57600080fd5b610447858585610c2d565b8361ffff16856001600160a01b03167f8f868f60e49b80b48ee5de8b7bc703cfc4b5c826a05d3ea1b00cf4159c155a90856040516104859190615d82565b60405180910390a35050505050565b600054600160201b90046001600160a01b031633146104c55760405162461bcd60e51b815260040161031290615c05565b6104cf8282610c81565b816001600160a01b03167f9066b2f4ad4552447bd5ddeae159ff6b5a28a4eec9421da5a9d502deb99974e1826040516105089190615aed565b60405180910390a25050565b600054600160201b90046001600160a01b031633146105455760405162461bcd60e51b815260040161031290615c05565b61054f8282610ce2565b816001600160a01b03167f7c51c6aa77346c54cb051d9e792f9b7bde5c28a9b57e6fb2d2dd727b38438ca9826040516105089190615aed565b610590614dfa565b6001600160a01b0385163314156105a657600080fd5b60006105b1336108cb565b90506105be8160016108f6565b6105c757600080fd5b6105d08161090d565b6105d957600080fd5b60006105e48261093c565b9050600080610611848a8a6105ff8b865b6020020135610d41565b61060a8c60016105f5565b888c610a3e565b91509150610642338a86610140015160006002811061062c57fe5b6020020151858760005b60200201516001610b9b565b85526101408401516020015161065f9033908b9084876001610636565b60208601525092979650505050505050565b600054600160201b90046001600160a01b031633146106a25760405162461bcd60e51b815260040161031290615c05565b6106af8260400151610d5b565b63ffffffff1660408301526101608201516106d19060005b6020020151610d5b565b63ffffffff168261016001516000600281106106e957fe5b60200201526101608201516106ff9060016106c7565b63ffffffff1682610160015160016002811061071757fe5b6020020181815250506000826040516020016107339190615c3a565b6040516020818303038152906040528060200190518101906107559190615870565b90506107618482610d86565b61077084826020015184610c2d565b80516040516001918216909114906001600160a01b038616907fb441d7ca09abc712b4504256717707ce40e8d43895266b46abf9cd58619c07dc906107b89084908790615af8565b60405180910390a25050505050565b6001546001600160a01b031681565b3330146107e257600080fd5b60006107ed836108cb565b90506107f98183611212565b505050565b600054600160201b90046001600160a01b031681565b600054600160201b90046001600160a01b031633146108455760405162461bcd60e51b815260040161031290615c05565b6000610850836108cb565b905061086183826040015184610c2d565b6001600160a01b0383167fb441d7ca09abc712b4504256717707ce40e8d43895266b46abf9cd58619c07dc6108978360016108f6565b846040516108a6929190615af8565b60405180910390a2505050565b73__$7ac922d04bd7a1b42c7f6e5f1dd89a70af$__90565b6108d3614e18565b6108dc8261144d565b90506108eb816040015161163a565b610160820152919050565b602082015161ffff80831691831616145b92915050565b6101408101515160009061ffff1615158061093457506101408201516020015161ffff1615155b90505b919050565b610944614eb1565b6101408201515161ffff161561096e5761014082015161096b9060005b602002015161163a565b81525b6101408201516020015161ffff161561093757610140820151610992906001610961565b6020820152919050565b6000806000806109aa61164c565b6001600160a01b038781166000908152602092835260408082208b5190931682529190925290208054865164ffffffffff821696509192506109fe91908690600160281b90046001600160501b0316611659565b9250610a24856001602002015182548690600160781b90046001600160501b0316611659565b91505093509350939050565b600061093460001983611697565b600080610a528989898989896001806116e5565b50508515610a8c57610140890151518451610a88908b90838b8b8960005b602002016020810190610a839190615997565b611917565b9250505b8415610ab75761014089015160209081015190850151610ab3908b90838b8a896001610a70565b9150505b600080610ac88a8c600001516119c5565b91509150610afb8a8c600001518d6101400151600060028110610ae757fe5b60200201518c610af687610a30565b611a42565b8a516101408c015160200151610b17918c918c610af686610a30565b610b218483611ad8565b9350610b2d8382611ad8565b9250505097509795505050505050565b6000808080610b6f8c8c8c610b5a610b558e876105f5565b610a30565b610b68610b558f60016105f5565b8a8e610a3e565b9092509050610b7e8783611ad8565b610b888783611ad8565b9350935050509850989650505050505050565b60008084138015610ba95750815b15610bce57610bba87878787611aee565b610bc8868686866000611b94565b50610c10565b6000841315610bf757610bf0610b55610beb898888886000611b94565b610d41565b9050610c10565b610c0d8786610c0587610a30565b866000611bc8565b90505b9695505050505050565b610c22614ede565b610934826001611c3e565b6000610c37611cd8565b6001600160a01b0390941660009081526020948552604080822061ffff90951682529390945250912080546001600160501b039092166001600160501b0319909216919091179055565b6000610c8b611ce5565b6001600160a01b038416600090815260208290526040902080549192509061ffff168315610ccb57815461ffff1916610100821761ffff16178255610cdb565b815461ffff191661feff82161782555b5050505050565b6000610cec611ce5565b6001600160a01b038416600090815260208290526040902080549192509061ffff168315610d2b57815461ffff19166001821761ffff16178255610cdb565b815461ffff191661fffe91909116179055505050565b60006001600160ff1b03821115610d5757600080fd5b5090565b60008062ffffff831115610d78576017610d7484611cf2565b0390505b82811c60081b179050919050565b6000610d90611ce5565b90506000610d9d8461144d565b9050826020015161ffff1660001415610db557600080fd5b604081015161ffff161580610dd95750826020015161ffff16816040015161ffff16145b610de257600080fd5b8260a0015160ff1660641315610df757600080fd5b60006064808560a0015160ff1603029050836060015161ffff168161ffff1610610e2057600080fd5b83610100015161ffff16846060015161ffff1610610e3d57600080fd5b83610140015161ffff1684610100015161ffff1610610e5b57600080fd5b60648460c0015160ff161315610e7057600080fd5b6101408201515161ffff161580610e9a5750610120840151516101408301515161ffff9081169116145b610ea357600080fd5b6101408201516020015161ffff161580610edc57506101208401516020015161014083015161ffff909116906001602002015161ffff16145b610ee557600080fd5b61012084015151602085015161ffff90811691161415610f0457600080fd5b6101208401516001602002015161ffff16846020015161ffff161415610f2957600080fd5b6101208401515161ffff1615801590610f4e57506101208401516020015161ffff1615155b15610f73576101208401516020810151905161ffff90811691161415610f7357600080fd5b6101208401515161ffff16151580610f9757506101208401516020015161ffff1615155b15610fb257606484610180015160ff161215610fb257600080fd5b6000610fc5856020015161ffff16610c1a565b9050806020015115610fd657600080fd5b6101208501515161ffff161561100f576101208501516110019060005b602002015161ffff16610c1a565b602001511561100f57600080fd5b6101208501516020015161ffff161561104157610120850151611033906001610ff3565b602001511561104157600080fd5b84846000886001600160a01b03166001600160a01b0316815260200190815260200160002060008201518160000160006101000a81548161ffff021916908361ffff16021790555060208201518160000160026101000a81548161ffff021916908361ffff16021790555060408201518160000160046101000a81548163ffffffff021916908363ffffffff16021790555060608201518160000160086101000a81548161ffff021916908361ffff160217905550608082015181600001600a6101000a81548160ff021916908360ff16021790555060a082015181600001600b6101000a81548160ff021916908360ff16021790555060c082015181600001600c6101000a81548160ff021916908360ff16021790555060e082015181600001600d6101000a81548160ff021916908360ff16021790555061010082015181600001600e6101000a81548161ffff021916908361ffff160217905550610120820151816001019060026111b6929190614f05565b506101408201516002828101805461ffff191661ffff909316929092179091556101608301516111eb91600384019190614f97565b5061018091909101516004909101805460ff191660ff909216919091179055505050505050565b61121b8261090d565b61122457611449565b600061122e61164c565b6001600160a01b0380841660009081526020928352604080822087519093168252919092528120805490925064ffffffffff8116916001600160501b03600160281b83048116820392600160781b9004169003826112a05781158015611292575080155b61129b57600080fd5b6112ad565b428311156112ad57600080fd5b6000806112be8789600001516119c5565b6101408a015151919350915061ffff1615611368578751610140890151516112ec91899188610af687610a30565b87516101408901515161130491908990888887611d8a565b909450915061132261131d61131886610a30565b611ec1565b611ed0565b86546001600160501b0391909116600160281b026effffffffffffffffffff00000000001990911617865587516101408901515161136891899164ffffffffff86611a42565b6101408801516020015161ffff161561140d5787516101408901516020015161139791899188610af686610a30565b8751610140890151602001516113b291908990888786611d8a565b90935090506113c661131d61131885610a30565b86546001600160501b0391909116600160781b0269ffffffffffffffffffff60781b1990911617865587516101408901516020015161140d91899164ffffffffff85611a42565b600082138061141c5750600081135b15611431576114318789600001518484611ee6565b61144286858564ffffffffff611fb5565b5050505050505b5050565b611455614e18565b600061145f611ce5565b6001600160a01b03841660008181526020838152604091829020928652825461ffff8082169288019290925262010000900416908501529091506114bb612710633b9aca008354600160501b900460ff16919005600502611ff3565b608084015280546114da90600160401b900461ffff16620186a0611ff3565b60a084015280546114f990600160701b900461ffff16620186a0611ff3565b61012084015260028101546115159061ffff16620186a0611ff3565b610180840152805460649060ff600160581b90910416633b9aca00020560c08401528054600160601b810460ff90811660e0860152600160681b909104166101008401526040805180820191829052906001830190600290826000855b82829054906101000a900461ffff1661ffff168152602001906002019060208260010104928301926001038202915080841161157257505050505061014085019190915250600481015460ff166101c084015280546115dd90600160201b900463ffffffff16612021565b60608401526116136003820160005b600891828204019190066004029054906101000a900463ffffffff1663ffffffff16612021565b6101a0840151526116286003820160016115ec565b6101a084015160200152509092915050565b611642615021565b610934824261202f565b600080610907601a6120f0565b600064ffffffffff831461167957816001600160501b031660000361168f565b61168f846001600160501b038416600003612109565b949350505050565b8181026000198314156116c7578115806116b95750828282816116b657fe5b05145b6116c257600080fd5b610907565b8215806116dc5750818382816116d957fe5b05145b61090757600080fd5b60008060006116f261164c565b6001600160a01b03808c166000908152602092835260408082208f519093168252919092529020805490915064ffffffffff1689811480611731575080155b61173a57600080fd5b8651825461175a91908c90600160281b90046001600160501b0316611659565b9350611780876001602002015183548c90600160781b90046001600160501b0316611659565b9250881561180857611792848a611ad8565b93506117c18c8c8e61014001516000600281106117ab57fe5b60200201518d8d8c60005b60200201518b612160565b6117dc61131d611318610b558a600060200201518e8961223a565b82546001600160501b0391909116600160281b026effffffffffffffffffff0000000000199091161782555b8715611885576118188389611ad8565b92506118408c8c8e610140015160016002811061183157fe5b60200201518d8c8c60016117b6565b61185b61131d611318610b558a600160200201518e8861223a565b82546001600160501b0391909116600160781b0269ffffffffffffffffffff60781b199091161782555b85156118f4578315806118a257506101a08c015151600085900312155b6118be5760405162461bcd60e51b815260040161031290615be1565b8215806118d857506101a08c015160200151600084900312155b6118f45760405162461bcd60e51b815260040161031290615be1565b6119088285856119038e612258565b611fb5565b50509850989650505050505050565b6000866040015161ffff168561ffff16141561193257600080fd5b8261193f57506000610c10565b64ffffffffff841461198e576119638588600001518686868c61010001514261226c565b9050600083121561198e576000811361198e5760405162461bcd60e51b815260040161031290615b11565b80610c10576119a0610b55878561237a565b905064ffffffffff8414610c10578651610c109086866119bf85610a30565b876123ba565b60008060006119d26124aa565b6001600160a01b039586166000908152602091825260408082209690971681529490525050502060010180547fffff0000000000000000000000000000000000000000ffffffffffffffffffff81169091556001600160501b03600160501b8204811692600160a01b9092041690565b80611a4c57610cdb565b6000611a5b858585600b6124b7565b90506000806000841215611a7457508690506000611a7b565b5060009050865b6000611a86856124ed565b9050816001600160a01b0316836001600160a01b0316336001600160a01b0316600080516020615e228339815191528785604051611ac5929190615d5e565b60405180910390a4505050505050505050565b8181018281121560008312151461090757600080fd5b6000611af861250e565b61ffff8416600090815260209190915260408120546001600160a01b03169150821215611b23579293925b806001600160a01b03166323de66518686611b3d866124ed565b6040518463ffffffff1660e01b8152600401611b5b93929190615a5a565b600060405180830381600087803b158015611b7557600080fd5b505af1158015611b89573d6000803e3d6000fd5b505050505050505050565b600080611bad878888611ba689610a30565b888861251b565b9050611bbb61131882610a30565b9150505b95945050505050565b600083611bd757506000611bbf565b60008413611be457600080fd5b6000611bf38661ffff16610c1a565b90506000611c0a82611c0587896125c4565b6125f1565b90506000611c1b898984898961262e565b90945090508681036000811215611c3157600080fd5b5050505095945050505050565b611c46614ede565b6000611c506126eb565b6000858152602082815260408083208715158452825291829020825160a08101845281546001600160a01b038116825260ff600160a01b82048116151594830194909452600160b01b81048416600a0a9482019490945293945092916060830191600160a81b909104166005811115611cc557fe5b8152600060209091015295945050505050565b60008061090760176120f0565b60008061090760146120f0565b600081611cfe57600080fd5b600160801b8210611d1157608091821c91015b600160401b8210611d2457604091821c91015b600160201b8210611d3757602091821c91015b620100008210611d4957601091821c91015b6101008210611d5a57600891821c91015b60108210611d6a57600491821c91015b60048210611d7a57600291821c91015b6002821061093757600101919050565b6000806000611d988761163a565b90506000611da46126f8565b6001600160a01b038b1660009081526020918252604080822064ffffffffff8352835280822061ffff8c1683529092522090508615611e64576000611de76126f8565b6001600160a01b038c166000908152602091825260408082208b8352835280822061ffff8d16835290925290812080549092506001600160501b03811690910390600160f01b900460ff16611e6157611e43838d8c8c85612705565b81546001600160501b031960ff60f01b19909116600160f01b171682555b50505b8615611e7a57611e778888886000612769565b93505b611e8882828a8d89896127b8565b9094509250611ea2898b8a8a611e9d8b610a30565b612881565b611eb4898b8a64ffffffffff88612881565b5050965096945050505050565b600080821215610d5757600080fd5b60006001600160501b03821115610d5757600080fd5b6000611ef06124aa565b6001600160a01b0386811660009081526020928352604080822092881682529190925290206001810154909150611f3f9061131d9061131890600160501b90046001600160501b031686611ad8565b60018201805469ffffffffffffffffffff60501b1916600160501b6001600160501b03938416021790819055611f869161131d9161131891600160a01b9091041685611ad8565b8160010160146101000a8154816001600160501b0302191690836001600160501b031602179055505050505050565b82158015611fc1575081155b15611fd757835464ffffffffff19168455611fed565b835464ffffffffff191664ffffffffff82161784555b50505050565b60008261200257506000610907565b8282028284828161200f57fe5b041461201a57600080fd5b9392505050565b600881901c60ff9091161b90565b612037615021565b600061204284612903565b905082816000015110156120815760008061205c866129cb565b905061206a86848388612a48565b909350915061207a868385612aec565b505061208e565b8051831461208e57600080fd5b60405180606001604052806120b7610beb8460a001518560c00151611ff390919063ffffffff16565b81526020016120da610beb8460a001518560e00151611ff390919063ffffffff16565b8152602001826060015181525091505092915050565b6000620f424082602681111561210257fe5b0192915050565b60006001821261211857600080fd5b8161212557506000610907565b61201a600161215a6ec097ce7bc90715b34b9f100000000061215487602001518761169790919063ffffffff16565b90612d1d565b90612d4e565b600061216a6126f8565b88516001600160a01b0316600090815260209182526040808220888352835280822061ffff8a16835290925290812080549092506121b490859088906001600160501b0316611659565b90506121c08186611ad8565b90506121d282858b8a8a866000612d64565b600080861380156121e7575064ffffffffff87145b1561220957612202610b5586896121fd8a610a30565b61223a565b9050612217565b61221485888861223a565b90505b831561222e5761222e898b600001518a8a85612881565b50505050505050505050565b600064ffffffffff831461224e578161168f565b61168f8483612e3e565b600064ffffffffff821115610d5757600080fd5b60008061227b89888686612e9a565b90506000612288876124ed565b90506001600160581b03811061229d57600080fd5b600060788763ffffffff16901b609883901b60f085901b60f860008c136122c55760016122c8565b60005b60058111156122d357fe5b60ff16901b17171760001b905073__$7ac922d04bd7a1b42c7f6e5f1dd89a70af$__63715e90028c8c846040518463ffffffff1660e01b815260040161231b93929190615d30565b60206040518083038186803b15801561233357600080fd5b505af4158015612347573d6000803e3d6000fd5b505050506040513d601f19601f8201168201806040525081019061236b9190615858565b9b9a5050505050505050505050565b8151600090819061239e90612154856ec097ce7bc90715b34b9f1000000000611697565b9050600083126123ae578061168f565b61168f81600019612ed9565b60006123c4612eef565b61ffff8616600090815260208281526040808320888452909152902080549192509061240d9061131d90600160501b90046001600160501b031661240786611ec1565b90612efc565b815469ffffffffffffffffffff60501b1916600160501b6001600160501b03928316021780835561244d9161131d91600160a01b90041661240787611ec1565b81546001600160501b0391909116600160a01b0269ffffffffffffffffffff60a01b19909116178155612484876105e78887611aee565b6124926105e7878786612f0e565b6124a16105e788888887612f86565b50505050505050565b60008061090760166120f0565b68010000000000000000600160e01b03604085901b1667ffff000000000000603085901b1617600883901b178117949350505050565b6000808212156125075761250082610a30565b9050610937565b5080610937565b60008061090760216120f0565b60008361252a57506000610c10565b6000841261253757600080fd5b60006125468661ffff16610c1a565b905061255b8161255686886125c4565b612ff1565b9150600061256883610a30565b9050612575878383613029565b60038260600151600581111561258757fe5b141561259d57612598888286613115565b6125aa565b81516125aa9089836131dd565b6125b78988858589613254565b5050509695505050505050565b60008061239e6ec097ce7bc90715b34b9f100000000061215486600001518661169790919063ffffffff16565b60006305f5e1008360400151121561261f5761261860016126128585612ff1565b90611ad8565b9050610907565b61201a83612556846001611ad8565b600080600061263c86611ec1565b9050806126505760008092509250506126e1565b600061265f8861ffff16610c1a565b905060038160600151600581111561267357fe5b14156126ba57348210156126935761268e8983340387613115565b6126b2565b3482146126b25760405162461bcd60e51b815260040161031290615b38565b8693506126cf565b6126cc610beb82600001518b8561329b565b93505b6126dc898986848a613254565b925050505b9550959350505050565b60008061090760076120f0565b60008061090760186120f0565b600061271384848488612769565b86549091506001600160501b0316600061272d8284612d4e565b905061273b61131d82611ec1565b88546001600160501b0319166001600160501b0391909116178855611442878761276487610a30565b613419565b600080600061277887876134e0565b915091508061278657600080fd5b6127908286612e3e565b92506001600160a01b038416156127ae576127ae8488888887613573565b5050949350505050565b806000808413156128765760006127dc6127d5610b558b886125c4565b8a90612e3e565b90506000848212156128165750600092508361280f612808610b556128018585612d4e565b8d90612109565b8b9061237a565b9250612825565b50806128228582612d4e565b93505b6128318a888a84613646565b88546001600160501b031660006128488284611ad8565b905061285661131d82611ec1565b8b546001600160501b0319166001600160501b0391909116178b55505050505b965096945050505050565b8061288b57610cdb565b6000808061289c878787600a6124b7565b905060008413156128b357879250600091506128bb565b600092508791505b6001600160a01b0380831690841633600080516020615e22833981519152846128e3896124ed565b6040516128f1929190615d5e565b60405180910390a45050505050505050565b61290b615042565b6000612915613673565b61ffff93841660009081526020918252604090819020805464ffffffffff81168652600160281b81046001600160581b03908116948701949094526001820154841692860192909252600160d81b820463ffffffff166060860152600160801b9091049091166080840152600201546001600160501b0380821660a0850152600160501b8204811660c0850152600160a01b82041660e0840152600160f01b900460ff1661012c02909216610100820152919050565b6000806129d783613680565b6001600160a01b031663ef81f2166040518163ffffffff1660e01b81526004016040805180830381600087803b158015612a1057600080fd5b505af1158015612a24573d6000803e3d6000fd5b505050506040513d601f19601f8201168201806040525081019061168f9190615974565b612a50615042565b6000806000612a608886896136b0565b60c08b019290925260e08a019290925260208901519193509150612a849083612efc565b6020880152608087015160009015612ab2576080880151612aaf90612aa989826137c1565b906137d6565b90505b612ad2612ac7670de0b6b3a764000083612efc565b60a08a0151906137f3565b60a089015250506080860194909452505082529092909150565b6000612af6613673565b60008561ffff1681526020019081526020016000209050612b1a8260000151612258565b815464ffffffffff191664ffffffffff9190911617815560a0820151612b3f90611ed0565b6002820180546001600160501b0319166001600160501b039290921691909117905560c0820151612b6f90611ed0565b81600201600a6101000a8154816001600160501b0302191690836001600160501b03160217905550612ba48260e00151611ed0565b8160020160146101000a8154816001600160501b0302191690836001600160501b03160217905550612bd98260200151613810565b81546001600160581b0391909116600160281b026fffffffffffffffffffffff0000000000199091161781556040820151612c1390613810565b6001820180546affffffffffffffffffffff19166001600160581b03929092169190911790556080820151612c4790613810565b81546001600160581b0391909116600160801b026affffffffffffffffffffff60801b199091161781556060820151612c7f90613826565b815463ffffffff91909116600160d81b0263ffffffff60d81b199091161781558215612ccb576000612cb084610d41565b9050612cbc8582613839565b612cc9610fee8683613870565b505b8361ffff167fef25641e225e493886510ca1ad6584fa7b442b9fea820a29d1de3ce27d270fd28360a001518460c001518560e00151604051612d0f93929190615d6c565b60405180910390a250505050565b600081600019148015612d335750600160ff1b83145b15612d3d57600080fd5b818381612d4657fe5b059392505050565b8082038281131560008312151461090757600080fd5b86546001600160501b0316600090810390612d8088868661223a565b9050612d9161131d61131883610a30565b89546001600160501b0319166001600160501b03919091161789556000612db883836138f0565b9050600064ffffffffff871415612ddf578851612dd8908b908a85613646565b5084612e11565b84612e11578851612df39089898787613977565b8851612e03908961276485610a30565b612e0e898b8a613a37565b90505b600082138015612e1f575084155b15612e31578851612e31908983613add565b5050505050505050505050565b600081600013158015612e515750600a82125b15612e5e57506000610907565b60008212612e6b57600080fd5b61201a600161215a85602001516121546ec097ce7bc90715b34b9f10000000008761169790919063ffffffff16565b6000806000612eac8761ffff16613b59565b9050612ebc8160ff168786613b6f565b909350915084831115612ece57600080fd5b81156127ae57600080fd5b6000818312612ee8578161201a565b5090919050565b60008061090760206120f0565b60008282018381101561201a57600080fd5b600080612f1c858585613bfe565b915091506000806000851215612f3457879150612f37565b50865b806001600160a01b0316826001600160a01b0316336001600160a01b03167f4a39dc06d4c0dbc64b70af90fd698a233a518aa5d07e595d983b8c0526c8f7fb87876040516128f1929190615ac8565b80612f9057610cdb565b6000612f9c8484613ce3565b90506000821215612fab579394935b6001600160a01b0380861690871633600080516020615e2283398151915284612fd3876124ed565b604051612fe1929190615d5e565b60405180910390a4505050505050565b60006305f5e1008360400151141561300a575080610907565b61201a6305f5e10061215485604001518561169790919063ffffffff16565b6000613033613d01565b83516001600160a01b031660009081526020829052604090205490915080831161305e5750506107f9565b600061306986613680565b90506000816001600160a01b031663b5e4da238487036040518263ffffffff1660e01b815260040161309b9190615d55565b60006040518083038186803b1580156130b357600080fd5b505afa1580156130c7573d6000803e3d6000fd5b505050506040513d6000823e601f3d908101601f191682016040526130ef9190810190615739565b905060006130fd8783613d0e565b90506131098482612efc565b86111561144257600080fd5b80156131a7577382af49447d8a07e3bd95bd0d56f35241523fbab16001600160a01b031663d0e30db0836040518263ffffffff1660e01b81526004016000604051808303818588803b15801561316a57600080fd5b505af115801561317e573d6000803e3d6000fd5b50505050506131a27382af49447d8a07e3bd95bd0d56f35241523fbab184846131dd565b6107f9565b6040516001600160a01b0384169083156108fc029084906000818181858888f19350505050158015611fed573d6000803e3d6000fd5b826001600160a01b031663a9059cbb83836040518363ffffffff1660e01b815260040180836001600160a01b0316815260200182815260200192505050600060405180830381600087803b15801561323457600080fd5b505af1158015613248573d6000803e3d6000fd5b505050506107f9613f51565b6000806132618486613fbe565b905061326d838261237a565b915061327a878784613870565b613285868383613fee565b835161329190866140fa565b5095945050505050565b600080846001600160a01b03166370a08231306040518263ffffffff1660e01b815260040180826001600160a01b0316815260200191505060206040518083038186803b1580156132eb57600080fd5b505afa1580156132ff573d6000803e3d6000fd5b505050506040513d602081101561331557600080fd5b5051604080516323b872dd60e01b81526001600160a01b038781166004830152306024830152604482018790529151929350908716916323b872dd9160648082019260009290919082900301818387803b15801561337257600080fd5b505af1158015613386573d6000803e3d6000fd5b50505050613392613f51565b6000856001600160a01b03166370a08231306040518263ffffffff1660e01b815260040180826001600160a01b0316815260200191505060206040518083038186803b1580156133e157600080fd5b505afa1580156133f5573d6000803e3d6000fd5b505050506040513d602081101561340b57600080fd5b50519050610c1081836137c1565b6000613423611cd8565b6001600160a01b03851660009081526020918252604080822061ffff87168352909252908120805490925061346890600160501b90046001600160501b031684612d4e565b905061347661131d82611ec1565b82546001600160501b0391909116600160501b0269ffffffffffffffffffff60501b1990911617825560405161ffff8516906001600160a01b038716907f20478ef460e49d010960d4f3fff35d8dae385443abfac09035d6a2ccbcd834c490610485908590615d55565b6134e8615021565b6000806134f361414f565b61ffff861660009081526020828152604080832088845290915290208054600160f01b900460ff169350909150821561356a5780546001600160501b03600160a01b8204811691613545911682611ff3565b8552815461356390600160501b90046001600160501b031682611ff3565b6020860152505b50509250929050565b600061357f8585613ce3565b9050600083121561359157600160401b175b60006001600160a01b03871633600080516020615e22833981519152846135b7886124ed565b6040516135c5929190615d5e565b60405180910390a460006135dc600084128761415c565b9050806001600160a01b03166323de66516105e7896135fa876124ed565b6040518463ffffffff1660e01b815260040161361893929190615a5a565b600060405180830381600087803b15801561363257600080fd5b505af1158015612e31573d6000803e3d6000fd5b8015611fed578351602085015160009161366591612154908590611697565b9050610cdb848484846141bc565b600080610907601d6120f0565b60008061368b6142f9565b61ffff939093166000908152602093909352505060409020546001600160a01b031690565b6000806000806000806136c38988614306565b895190955091935091506000906136ea906136df908b906137c1565b633b9aca0090611ff3565b90506137246137196301da9c006137018585611ff3565b8161370857fe5b670de0b6b3a7640000919004612efc565b60e08a0151906137f3565b965061374661373b6301da9c006137018785611ff3565b60c08a0151906137f3565b95508183141561375d5750600093506137b8915050565b600061377f6137746301da9c006137018786611ff3565b60e08b0151906137f3565b9050600061378d89836137c1565b90506137b0886137aa838d60400151611ff390919063ffffffff16565b906143a1565b965050505050505b93509350935093565b6000828211156137d057600080fd5b50900390565b600061201a6137ed84670de0b6b3a7640000611ff3565b836143a1565b600061201a6138028484611ff3565b670de0b6b3a76400006143a1565b60006001600160581b03821115610d5757600080fd5b600063ffffffff821115610d5757600080fd5b600081121561384757600080fd5b6000613855610fee846143c0565b90506138618183611ad8565b90506107f9610fee8483614419565b600061387a61250e565b61ffff8416600090815260209190915260409081902054905163ad1c095d60e01b81526001600160a01b039091169150819063ad1c095d906138c29087908690600401615a7e565b600060405180830381600087803b1580156138dc57600080fd5b505af1158015611442573d6000803e3d6000fd5b60008183148061390d57506000831215801561390d575060008212155b1561391a57506000610907565b6000831315801561392b5750816000125b15613937575081610907565b600082131580156139485750826000125b156139565761261882610a30565b60008313158015613968575060008213155b156100a7576126188383612d4e565b600061398383836138f0565b9050806139905750610cdb565b600061399a612eef565b61ffff87166000908152602082815260408083208984529091528120549192506001600160501b039091168103906139d28285612d4e565b905060008113156139e257600080fd5b6139f161131d61131883610a30565b61ffff89166000908152602085815260408083208b8452909152902080546001600160501b0319166001600160501b0392909216919091179055611b8989898987612f0e565b600080846040015161ffff168361ffff161415613a8357613a5661448d565b85516001600160a01b031660009081526020918252604080822064ffffffffff8352909252209050613ac0565b613a8b6126f8565b85516001600160a01b031660009081526020918252604080822064ffffffffff8352835280822061ffff871683529092522090505b8054611bbf90859064ffffffffff906001600160501b0316611659565b6000613ae7611cd8565b6001600160a01b03851660009081526020918252604080822061ffff871683529092529081208054909250613b2c90600160501b90046001600160501b031684612d4e565b82549091506001600160501b0316811315610cdb5760405162461bcd60e51b815260040161031290615bbb565b600080613b658361449a565b60ff169392505050565b60008060008511613b7f57600080fd5b6007851115613b8d57600080fd5b6000613b98846144b7565b905060015b868111613bf0576000613bb9613bb2836144d5565b8490612efc565b905086811415613bd15750925060009150613bf69050565b86811115613be75750925060019150613bf69050565b50600101613b9d565b50600080fd5b935093915050565b604080516002808252606082810190935282916000918160200160208202803683370190505090506000613c328787613ce3565b90508082600081518110613c4257fe5b602002602001018181525050600160401b811782600181518110613c6257fe5b602090810291909101015260408051600280825260608201909252600091816020016020820280368337019050509050613c9b866124ed565b81600081518110613ca857fe5b602002602001018181525050613cbd866124ed565b81600181518110613cca57fe5b6020908102919091010152919791965090945050505050565b67ffff000000000000603083901b16600882901b1760011792915050565b60008061090760266120f0565b6000805b8251811015613f4a576000838281518110613d2957fe5b60200260200101519050600081606001516001600160a01b03166370a08231306040518263ffffffff1660e01b8152600401613d659190615a46565b60206040518083038186803b158015613d7d57600080fd5b505afa158015613d91573d6000803e3d6000fd5b505050506040513d601f19601f82011682018060405250810190613db59190615858565b90506000613dc38730614579565b905060005b835151811015613e1457613e0c84600001518281518110613de557fe5b6020026020010151600086602001518481518110613dff57fe5b6020026020010151614623565b600101613dc8565b506000613e218830614579565b90506000613e2f82846137c1565b90508085604001511115613e4257600080fd5b60608501516040516370a0823160e01b81526000916001600160a01b0316906370a0823190613e75903090600401615a46565b60206040518083038186803b158015613e8d57600080fd5b505afa158015613ea1573d6000803e3d6000fd5b505050506040513d601f19601f82011682018060405250810190613ec59190615858565b905084811115613ed457600080fd5b608086015160ff1615801590613ef35750613eef85826137c1565b8214155b15613f0e576080860151613f0b90829060ff16612efc565b90505b613f1d86606001518683614760565b613f278883612efc565b9750613f388a600001518585614760565b505060019094019350613d1292505050565b5092915050565b6000613f5b61508e565b3d8015613f6f5760208114613f7857600080fd5b60019250613f83565b60206000833e815192505b5081611449576040805162461bcd60e51b8152602060048201526005602482015264045524332360dc1b604482015290519081900360640190fd5b60006305f5e10083604001511415613fd7575080610907565b604083015161201a90612154846305f5e100611697565b6000613ff8613673565b61ffff8516600090815260209190915260409020805490915064ffffffffff16421461402357600080fd5b805460009061404290600160281b90046001600160581b031685611ad8565b825490915060009061406490600160801b90046001600160581b031685611ad8565b905080624c4b40131561407657600080fd5b61408761408282611ec1565b613810565b83546001600160581b0391909116600160801b026affffffffffffffffffffff60801b199091161783556140bd61408283611ec1565b83546001600160581b0391909116600160281b026fffffffffffffffffffffff0000000000199091161783556140f2836147dd565b505050505050565b6000614104613d01565b6001600160a01b03841660009081526020829052604090205490915061412d6113188285611ad8565b6001600160a01b03909416600090815260209290925250604090209190915550565b600080610907601e6120f0565b60008261418e5761416b61250e565b61ffff8316600090815260209190915260409020546001600160a01b031661201a565b6141966148a8565b61ffff8316600090815260209190915260409020546001600160a01b0316905092915050565b60006141c6613673565b61ffff8516600090815260209190915260409020805490915064ffffffffff1642146141f157600080fd5b8054600160f81b900460ff1661420657600080fd5b6001810154600090614221906001600160581b031685611ad8565b825490915060009061424390600160281b90046001600160581b031685611ad8565b9050816009191280156142565750600082125b1561426057600091505b806009191280156142715750600081125b1561427a575060005b61428661408283611ec1565b6001840180546affffffffffffffffffffff19166001600160581b03929092169190911790556142b861408282611ec1565b83546001600160581b0391909116600160281b026fffffffffffffffffffffff0000000000199091161783556142f0878786886148b5565b6124a1836147dd565b600080610907601f6120f0565b600080600080600085602001511115614353576143506143378660c001518760200151611ff390919063ffffffff16565b60e0870151604088015161434a91611ff3565b906149bd565b90505b600061435e876149d0565b905061436a8183614a03565b945081156143815761437e81866001614ab6565b93505b602086015115614398576143958583614b30565b92505b50509250925092565b60008082116143af57600080fd5b8183816143b857fe5b049392505050565b6000806143cb614b49565b6001600160a01b03851660009081526020828152604080832061ffff8816845290915281208054600160a81b9004600a90810b900b945091925083121561441157600080fd5b505092915050565b600081121561442757600080fd5b6000614431614b49565b6001600160a01b03851660009081526020828152604080832061ffff88168452909152902090915061446283614b56565b8154600a9190910b6001600160581b0316600160a81b026001600160a81b0390911617905550505050565b60008061090760156120f0565b6000806144a5614b88565b60009384526020525050604090205490565b60006276a7008210156144c957600080fd5b506276a7008106900390565b600081600114156144ea57506276a700610937565b81600214156144fd575062ed4e00610937565b816003141561451157506301da9c00610937565b816004141561452557506303b53800610937565b816005141561453957506309450c00610937565b816006141561454d575063128a1800610937565b816007141561456157506325143000610937565b60405162461bcd60e51b815260040161031290615b5d565b600060038360600151600581111561458d57fe5b14156145a457506001600160a01b03811631610907565b82516040516370a0823160e01b81526001600160a01b03909116906370a08231906145d3908590600401615a46565b60206040518083038186803b1580156145eb57600080fd5b505afa1580156145ff573d6000803e3d6000fd5b505050506040513d601f19601f820116820180604052508101906126189190615858565b600080846001600160a01b031684846040518082805190602001908083835b602083106146615780518252601f199092019160209182019101614642565b6001836020036101000a03801982511681845116808217855250505050505090500191505060006040518083038185875af1925050503d80600081146146c3576040519150601f19603f3d011682016040523d82523d6000602084013e6146c8565b606091505b5091509150816146d782614b95565b906140f25760405162461bcd60e51b81526004018080602001828103825283818151815260200191508051906020019080838360005b8381101561472557818101518382015260200161470d565b50505050905090810190601f1680156147525780820380516001836020036101000a031916815260200191505b509250505060405180910390fd5b600061476a613d01565b6001600160a01b0385166000908152602082905260409020549091508381111561479357600080fd5b60006147aa6147a186610d41565b61215a86610d41565b90506147b96113188383611ad8565b6001600160a01b039096166000908152602093909352505060409020929092555050565b8054600282015460009161481f91600160281b9091046001600160581b031690614819906001600160501b03600160501b820481169116611697565b90611697565b60018301546002840154919250600091614859916001600160581b031690614819906001600160501b03600160a01b820481169116611697565b83549091506000906148909060016001600160581b03600160801b909204821601166ec097ce7bc90715b34b9f1000000000611697565b90508061489d8484612d4e565b1315611fed57600080fd5b60008061090760226120f0565b60006148bf61250e565b61ffff8516600090815260209190915260408120546001600160a01b031691506148e76148a8565b61ffff8616600090815260209190915260409081902054905163ad1c095d60e01b81526001600160a01b039091169150819063ad1c095d9061492f9089908790600401615a7e565b600060405180830381600087803b15801561494957600080fd5b505af115801561495d573d6000803e3d6000fd5b505060405163ad1c095d60e01b81526001600160a01b038516925063ad1c095d915061498f9089908890600401615a7e565b600060405180830381600087803b1580156149a957600080fd5b505af115801561222e573d6000803e3d6000fd5b600061201a6137ed84633b9aca00611ff3565b6149d86150ac565b60006149e2614c9a565b61ffff841660009081526020919091526040812054915061201a9082614ca7565b600080836080015111614a1557600080fd5b633b9aca00821115614a2657600080fd5b82518211614a45578251604084015161261891906137aa908590611ff3565b82602001518211614a7d576040830151835160208501516060860151612618939261240792819003916137aa91880390859003611ff3565b61201a83606001516124078560200151633b9aca00036137aa876060015188608001510388602001518803611ff390919063ffffffff16565b600080614ad560646137aa8760e0015187611ff390919063ffffffff16565b90508460a00151811015614aea575060a08401515b8460c00151811115614afd575060c08401515b8215614b1457614b0d8482612efc565b9150614b28565b838111614b2357808403611bbf565b600091505b509392505050565b600061201a614b3f8484611ff3565b633b9aca006143a1565b60008061090760066120f0565b60006a7fffffffffffffffffffff198212801590614b7f57506a7fffffffffffffffffffff8213155b610d5757600080fd5b60008061090760096120f0565b6060604482511015614bcb575060408051808201909152600d81526c14da5b195b9d0814995d995c9d609a1b6020820152610937565b6004820180519092602401906020811015614be557600080fd5b8101908080516040519392919084600160201b821115614c0457600080fd5b908301906020820185811115614c1957600080fd5b8251600160201b811182820188101715614c3257600080fd5b82525081516020918201929091019080838360005b83811015614c5f578181015183820152602001614c47565b50505050905090810190601f168015614c8c5780820380516001836020036101000a031916815260200191505b506040525050509050919050565b600080610907601b6120f0565b614caf6150ac565b6064633b9aca008360ff861660208110614cc557fe5b1a0281614cce57fe5b0481526064633b9aca008360ff861660010160208110614cea57fe5b1a0281614cf357fe5b04816020018181525050614d188260028560ff160160208110614d1257fe5b1a614dc6565b60808201819052610100908360ff861660030160208110614d3557fe5b1a0281614d3e57fe5b0460408201526080810151610100908360ff861660040160208110614d5f57fe5b1a0281614d6857fe5b0460608201526207a1208260ff851660050160208110614d8457fe5b1a0260a0820152622625a08260ff851660060160208110614da157fe5b1a0260c08201528160ff841660070160208110614dba57fe5b1a60e082015292915050565b60008160ff16609610614de15760ff8216622625a002610934565b5060951960ff919091160162e4e1c00263165a0bc00190565b60405180604001604052806002906020820280368337509192915050565b604051806101e0016040528060006001600160a01b03168152602001600061ffff168152602001600061ffff16815260200160008152602001600081526020016000815260200160008152602001600081526020016000815260200160008152602001614e83614dfa565b8152602001614e90615021565b815260200160008152602001614ea4614dfa565b8152602001600081525090565b60405180604001604052806002905b614ec8615021565b815260200190600190039081614ec05790505090565b6040805160a081018252600080825260208201819052918101829052906060820190614ea4565b600183019183908215614f8b5791602002820160005b83821115614f5b57835183826101000a81548161ffff021916908361ffff1602179055509260200192600201602081600101049283019260010302614f1b565b8015614f895782816101000a81549061ffff0219169055600201602081600101049283019260010302614f5b565b505b50610d579291506150f1565b600183019183908215614f8b5791602002820160005b83821115614ff157835183826101000a81548163ffffffff021916908363ffffffff1602179055509260200192600401602081600301049283019260010302614fad565b8015614f895782816101000a81549063ffffffff0219169055600401602081600301049283019260010302614ff1565b60405180606001604052806000815260200160008152602001600081525090565b6040518061012001604052806000815260200160008152602001600081526020016000815260200160008152602001600081526020016000815260200160008152602001600081525090565b60405180602001604052806001906020820280368337509192915050565b60405180610100016040528060008152602001600081526020016000815260200160008152602001600081526020016000815260200160008152602001600081525090565b5b80821115610d5757600081556001016150f2565b805161093781615dd8565b600082601f830112615121578081fd5b8151602061513661513183615dba565b615d96565b8281528181019085830183850287018401881015615152578586fd5b855b8581101561517957815161516781615dd8565b84529284019290840190600101615154565b5090979650505050505050565b6000601f8381840112615197578182fd5b825160206151a761513183615dba565b82815281810190868301865b8581101561524c57815189018a603f8201126151cd578889fd5b8581015167ffffffffffffffff8111156151e357fe5b6151f4818a01601f19168801615d96565b81815260408d81848601011115615209578b8cfd5b8b5b83811015615226578481018201518382018b0152890161520b565b83811115615236578c8a85850101525b50508652505092840192908401906001016151b3565b509098975050505050505050565b600082601f83011261526a578081fd5b6040516040810181811067ffffffffffffffff8211171561528757fe5b806040525080838560408601111561529d578384fd5b835b60028110156152c85781356152b381615df0565b8352602092830192919091019060010161529f565b509195945050505050565b600082601f8301126152e3578081fd5b6040516040810181811067ffffffffffffffff8211171561530057fe5b8060405250808385604086011115615316578384fd5b835b60028110156152c857815161532c81615df0565b83526020928301929190910190600101615318565b806040810183101561090757600080fd5b600082601f830112615362578081fd5b6040516040810181811067ffffffffffffffff8211171561537f57fe5b8060405250808385604086011115615395578384fd5b835b60028110156152c8578135835260209283019290910190600101615397565b600082601f8301126153c6578081fd5b6040516040810181811067ffffffffffffffff821117156153e357fe5b80604052508083856040860111156153f9578384fd5b835b60028110156152c857815161540f81615e00565b835260209283019291909101906001016153fb565b803561093781615df0565b805161093781615df0565b805161093781615e00565b803561093781615e12565b80356001600160501b038116811461093757600080fd5b805161093781615e12565b60008060408385031215615484578182fd5b823561548f81615dd8565b9150602083013561549f81615dd8565b809150509250929050565b600080604083850312156154bc578182fd5b82356154c781615dd8565b91506020830135801515811461549f578182fd5b60008060008385036102208112156154f1578182fd5b84356154fc81615dd8565b93506101e0601f198201811315615511578283fd5b6101a0915061551f82615d96565b61552b60208801615424565b815261553960408801615424565b60208201526060870135604082015261555460808801615424565b606082015261556560a08801615445565b608082015261557660c08801615445565b60a082015261558760e08801615445565b60c082015261010061559a818901615445565b60e08301526101206155ad818a01615424565b8284015261014091506155c28a838b0161525a565b908301526101806155d4898201615424565b828401526155e48a868b01615352565b6101608401526155f5848a01615445565b9083015250935061560c9150506102008501615450565b90509250925092565b600080600060608486031215615629578081fd5b833561563481615dd8565b9250602084013561564481615df0565b915061560c60408501615450565b60008060008060c08587031215615667578182fd5b843561567281615dd8565b9350602085013592506156888660408701615341565b91506156978660808701615341565b905092959194509250565b600080600080600061010086880312156156ba578283fd5b85356156c581615dd8565b9450602086013593506156db8760408801615341565b92506156ea8760808801615341565b91506156f98760c08801615341565b90509295509295909350565b60008060408385031215615717578182fd5b823561572281615dd8565b915061573060208401615450565b90509250929050565b6000602080838503121561574b578182fd5b825167ffffffffffffffff80821115615762578384fd5b818501915085601f830112615775578384fd5b815161578361513182615dba565b81815284810190848601875b84811015615849578151870160a0818d03601f190112156157ae57898afd5b6040805160a081018181108a821117156157c457fe5b8252828b0151898111156157d6578c8dfd5b6157e48f8d83870101615111565b82525081830151898111156157f7578c8dfd5b6158058f8d83870101615186565b8c8301525060608301518282015261581f60808401615106565b606082015261583060a08401615467565b608082015286525050928701929087019060010161578f565b50909998505050505050505050565b600060208284031215615869578081fd5b5051919050565b60006101e08284031215615882578081fd5b61588d6101a0615d96565b6158968361542f565b81526158a46020840161542f565b60208201526158b56040840161543a565b60408201526158c66060840161542f565b60608201526158d760808401615467565b60808201526158e860a08401615467565b60a08201526158f960c08401615467565b60c082015261590a60e08401615467565b60e082015261010061591d81850161542f565b90820152610120615930858583016152d3565b9082015261016061594284820161542f565b610140830152610180615957868287016153b6565b828401526159686101c08601615467565b90830152509392505050565b60008060408385031215615986578182fd5b505080516020909101519092909150565b6000602082840312156159a8578081fd5b813561201a81615e00565b8060005b6002811015611fed57815161ffff168452602093840193909101906001016159b7565b8060005b6002811015611fed5781518452602093840193909101906001016159de565b6000815180845260208085019450808401835b83811015615a2c57815187529582019590820190600101615a10565b509495945050505050565b61ffff169052565b60ff169052565b6001600160a01b0391909116815260200190565b6001600160a01b039384168152919092166020820152604081019190915260600190565b6001600160a01b03929092168252602082015260400190565b60408101818360005b6002811015615abf578151835260209283019290910190600101615aa0565b50505092915050565b600060408252615adb60408301856159fd565b8281036020840152611bbf81856159fd565b901515815260200190565b91151582526001600160501b0316602082015260400190565b6020808252600d908201526c109bdc9c9bddc811985a5b1959609a1b604082015260600190565b6020808252600b908201526a4554482042616c616e636560a81b604082015260600190565b6020808252600d908201526c092dcecc2d8d2c840d2dcc8caf609b1b604082015260600190565b6020808252601d908201527f496e73756666696369656e74205365636f6e6461727920426f72726f77000000604082015260600190565b6020808252600c908201526b4d617820436170616369747960a01b604082015260600190565b6020808252600a90820152696d696e20626f72726f7760b01b604082015260600190565b6020808252818101527f4f776e61626c653a2063616c6c6572206973206e6f7420746865206f776e6572604082015260600190565b60006101e082019050615c4e828451615a37565b6020830151615c606020840182615a37565b50604083015160408301526060830151615c7d6060840182615a37565b506080830151615c906080840182615a3f565b5060a0830151615ca360a0840182615a3f565b5060c0830151615cb660c0840182615a3f565b5060e0830151615cc960e0840182615a3f565b5061010080840151615cdd82850182615a37565b505061012080840151615cf2828501826159b3565b5050610140830151610160615d0981850183615a37565b8401519050610180615d1d848201836159da565b8401519050613f4a6101c0840182615a3f565b61ffff9390931683526001600160a01b03919091166020830152604082015260600190565b90815260200190565b918252602082015260400190565b9283526020830191909152604082015260600190565b6001600160501b0391909116815260200190565b60405181810167ffffffffffffffff81118282101715615db257fe5b604052919050565b600067ffffffffffffffff821115615dce57fe5b5060209081020190565b6001600160a01b0381168114615ded57600080fd5b50565b61ffff81168114615ded57600080fd5b63ffffffff81168114615ded57600080fd5b60ff81168114615ded57600080fdfec3d58168c5ae7397731d063d5bbf3d657854427343f4c083240f7aacaa2d0f62a264697066735822122028249430afb90e03948cb8613008023c964f2716d7d984ae1896b4bac4b1a86864736f6c63430007060033","language":"Solidity","natspec":{"kind":"dev","methods":{"borrowSecondaryCurrencyToVault(address,uint256,uint256[2],uint32[2],uint32[2])":{"notice":"Allows a vault to borrow a secondary currency if it is whitelisted to do so","params":{"account":"account that is borrowing the secondary currency","maturity":"the maturity to borrow at","maxBorrowRate":"maximum borrow rate for the first and second secondary currencies","minRollLendRate":"max roll lend rate for the first and second borrow currencies","underlyingToBorrow":"fCash to borrow for the first and second secondary currencies"},"returns":{"underlyingTokensTransferred":"amount of tokens transferred back to the vault"}},"repaySecondaryCurrencyFromVault(address,uint256,uint256[2],uint32[2])":{"notice":"Allows a vault to repay a secondary currency that it has borrowed. Will be executed via a callback which will request that the vault repay a specific amount of underlying tokens.","params":{"account":"account that is repaying the secondary currency","maturity":"the maturity to lend at","minLendRate":"minimum lend rate","underlyingToRepay":"amount of debt shares to repay (used to calculate fCashToLend)"},"returns":{"underlyingDepositExternal":"the amount of underlying transferred from the vault"}},"setMaxBorrowCapacity(address,uint80)":{"notice":"Allows the owner to reduce the max borrow capacity on the vault","params":{"maxVaultBorrowCapacity":"the new max vault borrow capacity on the primary currency","vaultAddress":"address of the vault"}},"setVaultDeleverageStatus(address,bool)":{"notice":"Enables or disables deleverage on a vault.","params":{"disableDeleverage":"true if the vault deleverage should be disabled","vaultAddress":"address of deployed vault"}},"setVaultPauseStatus(address,bool)":{"notice":"Enables or disables a vault. If a vault is disabled, no one can enter the vault but exits are still possible.","params":{"enable":"true if the vault should be enabled immediately","vaultAddress":"address of deployed vault"}},"updateSecondaryBorrowCapacity(address,uint16,uint80)":{"notice":"Whitelists a secondary borrow currency for a vault, vaults can borrow up to the capacity using the `borrowSecondaryCurrencyToVault` and `repaySecondaryCurrencyToVault` methods. Vaults that use a secondary currency must ALWAYS repay the secondary debt during redemption and handle accounting for the secondary currency themselves.","params":{"maxBorrowCapacity":"maximum borrow capacity","secondaryCurrencyId":"struct of vault configuration","vaultAddress":"address of deployed vault"}},"updateVault(address,(uint16,uint16,uint256,uint16,uint8,uint8,uint8,uint8,uint16,uint16[2],uint16,uint256[2],uint8),uint80)":{"notice":"Updates or lists a deployed vault along with its configuration.","params":{"maxPrimaryBorrowCapacity":"maximum borrow capacity","vaultAddress":"address of deployed vault","vaultParams":"struct of vault configuration"}}},"version":1},"opcodes":"PUSH1 0x80 PUSH1 0x40 MSTORE PUSH1 0x4 CALLDATASIZE LT PUSH2 0xA7 JUMPI PUSH1 0x0 CALLDATALOAD PUSH1 0xE0 SHR DUP1 PUSH4 0x69A6D1CC GT PUSH2 0x64 JUMPI DUP1 PUSH4 0x69A6D1CC EQ PUSH2 0x179 JUMPI DUP1 PUSH4 0x82463367 EQ PUSH2 0x199 JUMPI DUP1 PUSH4 0x8281EC6A EQ PUSH2 0x1AE JUMPI DUP1 PUSH4 0x8DA5CB5B EQ PUSH2 0x1CE JUMPI DUP1 PUSH4 0xB67138AA EQ PUSH2 0x1E3 JUMPI DUP1 PUSH4 0xC4C96DAE EQ PUSH2 0x203 JUMPI PUSH2 0xA7 JUMP JUMPDEST DUP1 PUSH4 0xBC08CDC EQ PUSH2 0xAC JUMPI DUP1 PUSH4 0x24A3D622 EQ PUSH2 0xE2 JUMPI DUP1 PUSH4 0x291AFDF3 EQ PUSH2 0x104 JUMPI DUP1 PUSH4 0x54CCEAF7 EQ PUSH2 0x126 JUMPI DUP1 PUSH4 0x56F428C4 EQ PUSH2 0x146 JUMPI DUP1 PUSH4 0x6966692C EQ PUSH2 0x166 JUMPI JUMPDEST PUSH1 0x0 DUP1 REVERT JUMPDEST CALLVALUE DUP1 ISZERO PUSH2 0xB8 JUMPI PUSH1 0x0 DUP1 REVERT JUMPDEST POP PUSH2 0xCC PUSH2 0xC7 CALLDATASIZE PUSH1 0x4 PUSH2 0x56A2 JUMP JUMPDEST PUSH2 0x218 JUMP JUMPDEST PUSH1 0x40 MLOAD PUSH2 0xD9 SWAP2 SWAP1 PUSH2 0x5A97 JUMP JUMPDEST PUSH1 0x40 MLOAD DUP1 SWAP2 SUB SWAP1 RETURN JUMPDEST CALLVALUE DUP1 ISZERO PUSH2 0xEE JUMPI PUSH1 0x0 DUP1 REVERT JUMPDEST POP PUSH2 0xF7 PUSH2 0x39C JUMP JUMPDEST PUSH1 0x40 MLOAD PUSH2 0xD9 SWAP2 SWAP1 PUSH2 0x5A46 JUMP JUMPDEST CALLVALUE DUP1 ISZERO PUSH2 0x110 JUMPI PUSH1 0x0 DUP1 REVERT JUMPDEST POP PUSH2 0x124 PUSH2 0x11F CALLDATASIZE PUSH1 0x4 PUSH2 0x5615 JUMP JUMPDEST PUSH2 0x3AB JUMP JUMPDEST STOP JUMPDEST CALLVALUE DUP1 ISZERO PUSH2 0x132 JUMPI PUSH1 0x0 DUP1 REVERT JUMPDEST POP PUSH2 0x124 PUSH2 0x141 CALLDATASIZE PUSH1 0x4 PUSH2 0x54AA JUMP JUMPDEST PUSH2 0x494 JUMP JUMPDEST CALLVALUE DUP1 ISZERO PUSH2 0x152 JUMPI PUSH1 0x0 DUP1 REVERT JUMPDEST POP PUSH2 0x124 PUSH2 0x161 CALLDATASIZE PUSH1 0x4 PUSH2 0x54AA JUMP JUMPDEST PUSH2 0x514 JUMP JUMPDEST PUSH2 0xCC PUSH2 0x174 CALLDATASIZE PUSH1 0x4 PUSH2 0x5652 JUMP JUMPDEST PUSH2 0x588 JUMP JUMPDEST CALLVALUE DUP1 ISZERO PUSH2 0x185 JUMPI PUSH1 0x0 DUP1 REVERT JUMPDEST POP PUSH2 0x124 PUSH2 0x194 CALLDATASIZE PUSH1 0x4 PUSH2 0x54DB JUMP JUMPDEST PUSH2 0x671 JUMP JUMPDEST CALLVALUE DUP1 ISZERO PUSH2 0x1A5 JUMPI PUSH1 0x0 DUP1 REVERT JUMPDEST POP PUSH2 0xF7 PUSH2 0x7C7 JUMP JUMPDEST CALLVALUE DUP1 ISZERO PUSH2 0x1BA JUMPI PUSH1 0x0 DUP1 REVERT JUMPDEST POP PUSH2 0x124 PUSH2 0x1C9 CALLDATASIZE PUSH1 0x4 PUSH2 0x5472 JUMP JUMPDEST PUSH2 0x7D6 JUMP JUMPDEST CALLVALUE DUP1 ISZERO PUSH2 0x1DA JUMPI PUSH1 0x0 DUP1 REVERT JUMPDEST POP PUSH2 0xF7 PUSH2 0x7FE JUMP JUMPDEST CALLVALUE DUP1 ISZERO PUSH2 0x1EF JUMPI PUSH1 0x0 DUP1 REVERT JUMPDEST POP PUSH2 0x124 PUSH2 0x1FE CALLDATASIZE PUSH1 0x4 PUSH2 0x5705 JUMP JUMPDEST PUSH2 0x814 JUMP JUMPDEST CALLVALUE DUP1 ISZERO PUSH2 0x20F JUMPI PUSH1 0x0 DUP1 REVERT JUMPDEST POP PUSH2 0xF7 PUSH2 0x8B3 JUMP JUMPDEST PUSH2 0x220 PUSH2 0x4DFA JUMP JUMPDEST PUSH1 0x0 PUSH2 0x22B CALLER PUSH2 0x8CB JUMP JUMPDEST SWAP1 POP PUSH2 0x238 DUP2 PUSH1 0x1 PUSH2 0x8F6 JUMP JUMPDEST PUSH2 0x241 JUMPI PUSH1 0x0 DUP1 REVERT JUMPDEST PUSH1 0x1 PUSH1 0x1 PUSH1 0xA0 SHL SUB DUP8 AND CALLER EQ ISZERO PUSH2 0x257 JUMPI PUSH1 0x0 DUP1 REVERT JUMPDEST PUSH2 0x260 DUP2 PUSH2 0x90D JUMP JUMPDEST PUSH2 0x269 JUMPI PUSH1 0x0 DUP1 REVERT JUMPDEST PUSH1 0x0 PUSH2 0x274 DUP3 PUSH2 0x93C JUMP JUMPDEST SWAP1 POP PUSH1 0x0 DUP1 PUSH1 0x0 PUSH2 0x286 DUP6 DUP13 DUP7 PUSH2 0x99C JUMP JUMPDEST SWAP3 POP SWAP3 POP SWAP3 POP PUSH1 0x0 DUP1 DUP5 PUSH1 0x0 EQ ISZERO DUP1 ISZERO PUSH2 0x2A0 JUMPI POP DUP12 DUP6 EQ ISZERO JUMPDEST DUP1 ISZERO PUSH2 0x2B2 JUMPI POP PUSH2 0x2B2 DUP8 PUSH1 0x2 PUSH2 0x8F6 JUMP JUMPDEST ISZERO PUSH2 0x2DC JUMPI PUSH2 0x2D6 DUP8 DUP15 DUP8 PUSH2 0x2C6 DUP9 PUSH2 0xA30 JUMP JUMPDEST PUSH2 0x2CF DUP9 PUSH2 0xA30 JUMP JUMPDEST DUP12 DUP16 PUSH2 0xA3E JUMP JUMPDEST SWAP1 SWAP3 POP SWAP1 POP JUMPDEST PUSH2 0x2EC DUP8 DUP15 DUP15 DUP15 DUP15 DUP8 DUP8 DUP14 PUSH2 0xB3D JUMP JUMPDEST SWAP1 SWAP3 POP SWAP1 POP PUSH1 0x0 DUP3 SLT ISZERO PUSH2 0x31B JUMPI PUSH1 0x40 MLOAD PUSH3 0x461BCD PUSH1 0xE5 SHL DUP2 MSTORE PUSH1 0x4 ADD PUSH2 0x312 SWAP1 PUSH2 0x5B84 JUMP JUMPDEST PUSH1 0x40 MLOAD DUP1 SWAP2 SUB SWAP1 REVERT JUMPDEST PUSH1 0x0 DUP2 SLT ISZERO PUSH2 0x33C JUMPI PUSH1 0x40 MLOAD PUSH3 0x461BCD PUSH1 0xE5 SHL DUP2 MSTORE PUSH1 0x4 ADD PUSH2 0x312 SWAP1 PUSH2 0x5B84 JUMP JUMPDEST PUSH2 0x369 CALLER DUP15 DUP10 PUSH2 0x140 ADD MLOAD PUSH1 0x0 PUSH1 0x2 DUP2 LT PUSH2 0x353 JUMPI INVALID JUMPDEST PUSH1 0x20 MUL ADD MLOAD DUP6 DUP11 PUSH1 0x0 JUMPDEST PUSH1 0x20 MUL ADD MLOAD PUSH1 0x0 PUSH2 0xB9B JUMP JUMPDEST DUP9 MSTORE PUSH2 0x140 DUP8 ADD MLOAD PUSH1 0x20 ADD MLOAD PUSH2 0x386 SWAP1 CALLER SWAP1 DUP16 SWAP1 DUP5 DUP11 PUSH1 0x1 PUSH2 0x35D JUMP JUMPDEST PUSH1 0x20 DUP10 ADD MSTORE POP SWAP6 SWAP12 SWAP11 POP POP POP POP POP POP POP POP POP POP POP JUMP JUMPDEST PUSH1 0x2 SLOAD PUSH1 0x1 PUSH1 0x1 PUSH1 0xA0 SHL SUB AND DUP2 JUMP JUMPDEST PUSH1 0x0 SLOAD PUSH1 0x1 PUSH1 0x20 SHL SWAP1 DIV PUSH1 0x1 PUSH1 0x1 PUSH1 0xA0 SHL SUB AND CALLER EQ PUSH2 0x3DC JUMPI PUSH1 0x40 MLOAD PUSH3 0x461BCD PUSH1 0xE5 SHL DUP2 MSTORE PUSH1 0x4 ADD PUSH2 0x312 SWAP1 PUSH2 0x5C05 JUMP JUMPDEST PUSH1 0x0 PUSH2 0x3E7 DUP5 PUSH2 0x8CB JUMP JUMPDEST SWAP1 POP PUSH1 0x0 PUSH2 0x3F8 DUP5 PUSH2 0xFFFF AND PUSH2 0xC1A JUMP JUMPDEST SWAP1 POP DUP1 PUSH1 0x20 ADD MLOAD ISZERO PUSH2 0x409 JUMPI PUSH1 0x0 DUP1 REVERT JUMPDEST PUSH2 0x140 DUP3 ADD MLOAD MLOAD PUSH2 0xFFFF DUP6 DUP2 AND SWAP2 AND EQ DUP1 PUSH2 0x433 JUMPI POP PUSH2 0x140 DUP3 ADD MLOAD PUSH1 0x20 ADD MLOAD PUSH2 0xFFFF DUP6 DUP2 AND SWAP2 AND EQ JUMPDEST PUSH2 0x43C JUMPI PUSH1 0x0 DUP1 REVERT JUMPDEST PUSH2 0x447 DUP6 DUP6 DUP6 PUSH2 0xC2D JUMP JUMPDEST DUP4 PUSH2 0xFFFF AND DUP6 PUSH1 0x1 PUSH1 0x1 PUSH1 0xA0 SHL SUB AND PUSH32 0x8F868F60E49B80B48EE5DE8B7BC703CFC4B5C826A05D3EA1B00CF4159C155A90 DUP6 PUSH1 0x40 MLOAD PUSH2 0x485 SWAP2 SWAP1 PUSH2 0x5D82 JUMP JUMPDEST PUSH1 0x40 MLOAD DUP1 SWAP2 SUB SWAP1 LOG3 POP POP POP POP POP JUMP JUMPDEST PUSH1 0x0 SLOAD PUSH1 0x1 PUSH1 0x20 SHL SWAP1 DIV PUSH1 0x1 PUSH1 0x1 PUSH1 0xA0 SHL SUB AND CALLER EQ PUSH2 0x4C5 JUMPI PUSH1 0x40 MLOAD PUSH3 0x461BCD PUSH1 0xE5 SHL DUP2 MSTORE PUSH1 0x4 ADD PUSH2 0x312 SWAP1 PUSH2 0x5C05 JUMP JUMPDEST PUSH2 0x4CF DUP3 DUP3 PUSH2 0xC81 JUMP JUMPDEST DUP2 PUSH1 0x1 PUSH1 0x1 PUSH1 0xA0 SHL SUB AND PUSH32 0x9066B2F4AD4552447BD5DDEAE159FF6B5A28A4EEC9421DA5A9D502DEB99974E1 DUP3 PUSH1 0x40 MLOAD PUSH2 0x508 SWAP2 SWAP1 PUSH2 0x5AED JUMP JUMPDEST PUSH1 0x40 MLOAD DUP1 SWAP2 SUB SWAP1 LOG2 POP POP JUMP JUMPDEST PUSH1 0x0 SLOAD PUSH1 0x1 PUSH1 0x20 SHL SWAP1 DIV PUSH1 0x1 PUSH1 0x1 PUSH1 0xA0 SHL SUB AND CALLER EQ PUSH2 0x545 JUMPI PUSH1 0x40 MLOAD PUSH3 0x461BCD PUSH1 0xE5 SHL DUP2 MSTORE PUSH1 0x4 ADD PUSH2 0x312 SWAP1 PUSH2 0x5C05 JUMP JUMPDEST PUSH2 0x54F DUP3 DUP3 PUSH2 0xCE2 JUMP JUMPDEST DUP2 PUSH1 0x1 PUSH1 0x1 PUSH1 0xA0 SHL SUB AND PUSH32 0x7C51C6AA77346C54CB051D9E792F9B7BDE5C28A9B57E6FB2D2DD727B38438CA9 DUP3 PUSH1 0x40 MLOAD PUSH2 0x508 SWAP2 SWAP1 PUSH2 0x5AED JUMP JUMPDEST PUSH2 0x590 PUSH2 0x4DFA JUMP JUMPDEST PUSH1 0x1 PUSH1 0x1 PUSH1 0xA0 SHL SUB DUP6 AND CALLER EQ ISZERO PUSH2 0x5A6 JUMPI PUSH1 0x0 DUP1 REVERT JUMPDEST PUSH1 0x0 PUSH2 0x5B1 CALLER PUSH2 0x8CB JUMP JUMPDEST SWAP1 POP PUSH2 0x5BE DUP2 PUSH1 0x1 PUSH2 0x8F6 JUMP JUMPDEST PUSH2 0x5C7 JUMPI PUSH1 0x0 DUP1 REVERT JUMPDEST PUSH2 0x5D0 DUP2 PUSH2 0x90D JUMP JUMPDEST PUSH2 0x5D9 JUMPI PUSH1 0x0 DUP1 REVERT JUMPDEST PUSH1 0x0 PUSH2 0x5E4 DUP3 PUSH2 0x93C JUMP JUMPDEST SWAP1 POP PUSH1 0x0 DUP1 PUSH2 0x611 DUP5 DUP11 DUP11 PUSH2 0x5FF DUP12 DUP7 JUMPDEST PUSH1 0x20 MUL ADD CALLDATALOAD PUSH2 0xD41 JUMP JUMPDEST PUSH2 0x60A DUP13 PUSH1 0x1 PUSH2 0x5F5 JUMP JUMPDEST DUP9 DUP13 PUSH2 0xA3E JUMP JUMPDEST SWAP2 POP SWAP2 POP PUSH2 0x642 CALLER DUP11 DUP7 PUSH2 0x140 ADD MLOAD PUSH1 0x0 PUSH1 0x2 DUP2 LT PUSH2 0x62C JUMPI INVALID JUMPDEST PUSH1 0x20 MUL ADD MLOAD DUP6 DUP8 PUSH1 0x0 JUMPDEST PUSH1 0x20 MUL ADD MLOAD PUSH1 0x1 PUSH2 0xB9B JUMP JUMPDEST DUP6 MSTORE PUSH2 0x140 DUP5 ADD MLOAD PUSH1 0x20 ADD MLOAD PUSH2 0x65F SWAP1 CALLER SWAP1 DUP12 SWAP1 DUP5 DUP8 PUSH1 0x1 PUSH2 0x636 JUMP JUMPDEST PUSH1 0x20 DUP7 ADD MSTORE POP SWAP3 SWAP8 SWAP7 POP POP POP POP POP POP POP JUMP JUMPDEST PUSH1 0x0 SLOAD PUSH1 0x1 PUSH1 0x20 SHL SWAP1 DIV PUSH1 0x1 PUSH1 0x1 PUSH1 0xA0 SHL SUB AND CALLER EQ PUSH2 0x6A2 JUMPI PUSH1 0x40 MLOAD PUSH3 0x461BCD PUSH1 0xE5 SHL DUP2 MSTORE PUSH1 0x4 ADD PUSH2 0x312 SWAP1 PUSH2 0x5C05 JUMP JUMPDEST PUSH2 0x6AF DUP3 PUSH1 0x40 ADD MLOAD PUSH2 0xD5B JUMP JUMPDEST PUSH4 0xFFFFFFFF AND PUSH1 0x40 DUP4 ADD MSTORE PUSH2 0x160 DUP3 ADD MLOAD PUSH2 0x6D1 SWAP1 PUSH1 0x0 JUMPDEST PUSH1 0x20 MUL ADD MLOAD PUSH2 0xD5B JUMP JUMPDEST PUSH4 0xFFFFFFFF AND DUP3 PUSH2 0x160 ADD MLOAD PUSH1 0x0 PUSH1 0x2 DUP2 LT PUSH2 0x6E9 JUMPI INVALID JUMPDEST PUSH1 0x20 MUL ADD MSTORE PUSH2 0x160 DUP3 ADD MLOAD PUSH2 0x6FF SWAP1 PUSH1 0x1 PUSH2 0x6C7 JUMP JUMPDEST PUSH4 0xFFFFFFFF AND DUP3 PUSH2 0x160 ADD MLOAD PUSH1 0x1 PUSH1 0x2 DUP2 LT PUSH2 0x717 JUMPI INVALID JUMPDEST PUSH1 0x20 MUL ADD DUP2 DUP2 MSTORE POP POP PUSH1 0x0 DUP3 PUSH1 0x40 MLOAD PUSH1 0x20 ADD PUSH2 0x733 SWAP2 SWAP1 PUSH2 0x5C3A JUMP JUMPDEST PUSH1 0x40 MLOAD PUSH1 0x20 DUP2 DUP4 SUB SUB DUP2 MSTORE SWAP1 PUSH1 0x40 MSTORE DUP1 PUSH1 0x20 ADD SWAP1 MLOAD DUP2 ADD SWAP1 PUSH2 0x755 SWAP2 SWAP1 PUSH2 0x5870 JUMP JUMPDEST SWAP1 POP PUSH2 0x761 DUP5 DUP3 PUSH2 0xD86 JUMP JUMPDEST PUSH2 0x770 DUP5 DUP3 PUSH1 0x20 ADD MLOAD DUP5 PUSH2 0xC2D JUMP JUMPDEST DUP1 MLOAD PUSH1 0x40 MLOAD PUSH1 0x1 SWAP2 DUP3 AND SWAP1 SWAP2 EQ SWAP1 PUSH1 0x1 PUSH1 0x1 PUSH1 0xA0 SHL SUB DUP7 AND SWAP1 PUSH32 0xB441D7CA09ABC712B4504256717707CE40E8D43895266B46ABF9CD58619C07DC SWAP1 PUSH2 0x7B8 SWAP1 DUP5 SWAP1 DUP8 SWAP1 PUSH2 0x5AF8 JUMP JUMPDEST PUSH1 0x40 MLOAD DUP1 SWAP2 SUB SWAP1 LOG2 POP POP POP POP POP JUMP JUMPDEST PUSH1 0x1 SLOAD PUSH1 0x1 PUSH1 0x1 PUSH1 0xA0 SHL SUB AND DUP2 JUMP JUMPDEST CALLER ADDRESS EQ PUSH2 0x7E2 JUMPI PUSH1 0x0 DUP1 REVERT JUMPDEST PUSH1 0x0 PUSH2 0x7ED DUP4 PUSH2 0x8CB JUMP JUMPDEST SWAP1 POP PUSH2 0x7F9 DUP2 DUP4 PUSH2 0x1212 JUMP JUMPDEST POP POP POP JUMP JUMPDEST PUSH1 0x0 SLOAD PUSH1 0x1 PUSH1 0x20 SHL SWAP1 DIV PUSH1 0x1 PUSH1 0x1 PUSH1 0xA0 SHL SUB AND DUP2 JUMP JUMPDEST PUSH1 0x0 SLOAD PUSH1 0x1 PUSH1 0x20 SHL SWAP1 DIV PUSH1 0x1 PUSH1 0x1 PUSH1 0xA0 SHL SUB AND CALLER EQ PUSH2 0x845 JUMPI PUSH1 0x40 MLOAD PUSH3 0x461BCD PUSH1 0xE5 SHL DUP2 MSTORE PUSH1 0x4 ADD PUSH2 0x312 SWAP1 PUSH2 0x5C05 JUMP JUMPDEST PUSH1 0x0 PUSH2 0x850 DUP4 PUSH2 0x8CB JUMP JUMPDEST SWAP1 POP PUSH2 0x861 DUP4 DUP3 PUSH1 0x40 ADD MLOAD DUP5 PUSH2 0xC2D JUMP JUMPDEST PUSH1 0x1 PUSH1 0x1 PUSH1 0xA0 SHL SUB DUP4 AND PUSH32 0xB441D7CA09ABC712B4504256717707CE40E8D43895266B46ABF9CD58619C07DC PUSH2 0x897 DUP4 PUSH1 0x1 PUSH2 0x8F6 JUMP JUMPDEST DUP5 PUSH1 0x40 MLOAD PUSH2 0x8A6 SWAP3 SWAP2 SWAP1 PUSH2 0x5AF8 JUMP JUMPDEST PUSH1 0x40 MLOAD DUP1 SWAP2 SUB SWAP1 LOG2 POP POP POP JUMP JUMPDEST PUSH20 0x0 SWAP1 JUMP JUMPDEST PUSH2 0x8D3 PUSH2 0x4E18 JUMP JUMPDEST PUSH2 0x8DC DUP3 PUSH2 0x144D JUMP JUMPDEST SWAP1 POP PUSH2 0x8EB DUP2 PUSH1 0x40 ADD MLOAD PUSH2 0x163A JUMP JUMPDEST PUSH2 0x160 DUP3 ADD MSTORE SWAP2 SWAP1 POP JUMP JUMPDEST PUSH1 0x20 DUP3 ADD MLOAD PUSH2 0xFFFF DUP1 DUP4 AND SWAP2 DUP4 AND AND EQ JUMPDEST SWAP3 SWAP2 POP POP JUMP JUMPDEST PUSH2 0x140 DUP2 ADD MLOAD MLOAD PUSH1 0x0 SWAP1 PUSH2 0xFFFF AND ISZERO ISZERO DUP1 PUSH2 0x934 JUMPI POP PUSH2 0x140 DUP3 ADD MLOAD PUSH1 0x20 ADD MLOAD PUSH2 0xFFFF AND ISZERO ISZERO JUMPDEST SWAP1 POP JUMPDEST SWAP2 SWAP1 POP JUMP JUMPDEST PUSH2 0x944 PUSH2 0x4EB1 JUMP JUMPDEST PUSH2 0x140 DUP3 ADD MLOAD MLOAD PUSH2 0xFFFF AND ISZERO PUSH2 0x96E JUMPI PUSH2 0x140 DUP3 ADD MLOAD PUSH2 0x96B SWAP1 PUSH1 0x0 JUMPDEST PUSH1 0x20 MUL ADD MLOAD PUSH2 0x163A JUMP JUMPDEST DUP2 MSTORE JUMPDEST PUSH2 0x140 DUP3 ADD MLOAD PUSH1 0x20 ADD MLOAD PUSH2 0xFFFF AND ISZERO PUSH2 0x937 JUMPI PUSH2 0x140 DUP3 ADD MLOAD PUSH2 0x992 SWAP1 PUSH1 0x1 PUSH2 0x961 JUMP JUMPDEST PUSH1 0x20 DUP3 ADD MSTORE SWAP2 SWAP1 POP JUMP JUMPDEST PUSH1 0x0 DUP1 PUSH1 0x0 DUP1 PUSH2 0x9AA PUSH2 0x164C JUMP JUMPDEST PUSH1 0x1 PUSH1 0x1 PUSH1 0xA0 SHL SUB DUP8 DUP2 AND PUSH1 0x0 SWAP1 DUP2 MSTORE PUSH1 0x20 SWAP3 DUP4 MSTORE PUSH1 0x40 DUP1 DUP3 KECCAK256 DUP12 MLOAD SWAP1 SWAP4 AND DUP3 MSTORE SWAP2 SWAP1 SWAP3 MSTORE SWAP1 KECCAK256 DUP1 SLOAD DUP7 MLOAD PUSH5 0xFFFFFFFFFF DUP3 AND SWAP7 POP SWAP2 SWAP3 POP PUSH2 0x9FE SWAP2 SWAP1 DUP7 SWAP1 PUSH1 0x1 PUSH1 0x28 SHL SWAP1 DIV PUSH1 0x1 PUSH1 0x1 PUSH1 0x50 SHL SUB AND PUSH2 0x1659 JUMP JUMPDEST SWAP3 POP PUSH2 0xA24 DUP6 PUSH1 0x1 PUSH1 0x20 MUL ADD MLOAD DUP3 SLOAD DUP7 SWAP1 PUSH1 0x1 PUSH1 0x78 SHL SWAP1 DIV PUSH1 0x1 PUSH1 0x1 PUSH1 0x50 SHL SUB AND PUSH2 0x1659 JUMP JUMPDEST SWAP2 POP POP SWAP4 POP SWAP4 POP SWAP4 SWAP1 POP JUMP JUMPDEST PUSH1 0x0 PUSH2 0x934 PUSH1 0x0 NOT DUP4 PUSH2 0x1697 JUMP JUMPDEST PUSH1 0x0 DUP1 PUSH2 0xA52 DUP10 DUP10 DUP10 DUP10 DUP10 DUP10 PUSH1 0x1 DUP1 PUSH2 0x16E5 JUMP JUMPDEST POP POP DUP6 ISZERO PUSH2 0xA8C JUMPI PUSH2 0x140 DUP10 ADD MLOAD MLOAD DUP5 MLOAD PUSH2 0xA88 SWAP1 DUP12 SWAP1 DUP4 DUP12 DUP12 DUP10 PUSH1 0x0 JUMPDEST PUSH1 0x20 MUL ADD PUSH1 0x20 DUP2 ADD SWAP1 PUSH2 0xA83 SWAP2 SWAP1 PUSH2 0x5997 JUMP JUMPDEST PUSH2 0x1917 JUMP JUMPDEST SWAP3 POP POP JUMPDEST DUP5 ISZERO PUSH2 0xAB7 JUMPI PUSH2 0x140 DUP10 ADD MLOAD PUSH1 0x20 SWAP1 DUP2 ADD MLOAD SWAP1 DUP6 ADD MLOAD PUSH2 0xAB3 SWAP1 DUP12 SWAP1 DUP4 DUP12 DUP11 DUP10 PUSH1 0x1 PUSH2 0xA70 JUMP JUMPDEST SWAP2 POP POP JUMPDEST PUSH1 0x0 DUP1 PUSH2 0xAC8 DUP11 DUP13 PUSH1 0x0 ADD MLOAD PUSH2 0x19C5 JUMP JUMPDEST SWAP2 POP SWAP2 POP PUSH2 0xAFB DUP11 DUP13 PUSH1 0x0 ADD MLOAD DUP14 PUSH2 0x140 ADD MLOAD PUSH1 0x0 PUSH1 0x2 DUP2 LT PUSH2 0xAE7 JUMPI INVALID JUMPDEST PUSH1 0x20 MUL ADD MLOAD DUP13 PUSH2 0xAF6 DUP8 PUSH2 0xA30 JUMP JUMPDEST PUSH2 0x1A42 JUMP JUMPDEST DUP11 MLOAD PUSH2 0x140 DUP13 ADD MLOAD PUSH1 0x20 ADD MLOAD PUSH2 0xB17 SWAP2 DUP13 SWAP2 DUP13 PUSH2 0xAF6 DUP7 PUSH2 0xA30 JUMP JUMPDEST PUSH2 0xB21 DUP5 DUP4 PUSH2 0x1AD8 JUMP JUMPDEST SWAP4 POP PUSH2 0xB2D DUP4 DUP3 PUSH2 0x1AD8 JUMP JUMPDEST SWAP3 POP POP POP SWAP8 POP SWAP8 SWAP6 POP POP POP POP POP POP JUMP JUMPDEST PUSH1 0x0 DUP1 DUP1 DUP1 PUSH2 0xB6F DUP13 DUP13 DUP13 PUSH2 0xB5A PUSH2 0xB55 DUP15 DUP8 PUSH2 0x5F5 JUMP JUMPDEST PUSH2 0xA30 JUMP JUMPDEST PUSH2 0xB68 PUSH2 0xB55 DUP16 PUSH1 0x1 PUSH2 0x5F5 JUMP JUMPDEST DUP11 DUP15 PUSH2 0xA3E JUMP JUMPDEST SWAP1 SWAP3 POP SWAP1 POP PUSH2 0xB7E DUP8 DUP4 PUSH2 0x1AD8 JUMP JUMPDEST PUSH2 0xB88 DUP8 DUP4 PUSH2 0x1AD8 JUMP JUMPDEST SWAP4 POP SWAP4 POP POP POP SWAP9 POP SWAP9 SWAP7 POP POP POP POP POP POP POP JUMP JUMPDEST PUSH1 0x0 DUP1 DUP5 SGT DUP1 ISZERO PUSH2 0xBA9 JUMPI POP DUP2 JUMPDEST ISZERO PUSH2 0xBCE JUMPI PUSH2 0xBBA DUP8 DUP8 DUP8 DUP8 PUSH2 0x1AEE JUMP JUMPDEST PUSH2 0xBC8 DUP7 DUP7 DUP7 DUP7 PUSH1 0x0 PUSH2 0x1B94 JUMP JUMPDEST POP PUSH2 0xC10 JUMP JUMPDEST PUSH1 0x0 DUP5 SGT ISZERO PUSH2 0xBF7 JUMPI PUSH2 0xBF0 PUSH2 0xB55 PUSH2 0xBEB DUP10 DUP9 DUP9 DUP9 PUSH1 0x0 PUSH2 0x1B94 JUMP JUMPDEST PUSH2 0xD41 JUMP JUMPDEST SWAP1 POP PUSH2 0xC10 JUMP JUMPDEST PUSH2 0xC0D DUP8 DUP7 PUSH2 0xC05 DUP8 PUSH2 0xA30 JUMP JUMPDEST DUP7 PUSH1 0x0 PUSH2 0x1BC8 JUMP JUMPDEST SWAP1 POP JUMPDEST SWAP7 SWAP6 POP POP POP POP POP POP JUMP JUMPDEST PUSH2 0xC22 PUSH2 0x4EDE JUMP JUMPDEST PUSH2 0x934 DUP3 PUSH1 0x1 PUSH2 0x1C3E JUMP JUMPDEST PUSH1 0x0 PUSH2 0xC37 PUSH2 0x1CD8 JUMP JUMPDEST PUSH1 0x1 PUSH1 0x1 PUSH1 0xA0 SHL SUB SWAP1 SWAP5 AND PUSH1 0x0 SWAP1 DUP2 MSTORE PUSH1 0x20 SWAP5 DUP6 MSTORE PUSH1 0x40 DUP1 DUP3 KECCAK256 PUSH2 0xFFFF SWAP1 SWAP6 AND DUP3 MSTORE SWAP4 SWAP1 SWAP5 MSTORE POP SWAP2 KECCAK256 DUP1 SLOAD PUSH1 0x1 PUSH1 0x1 PUSH1 0x50 SHL SUB SWAP1 SWAP3 AND PUSH1 0x1 PUSH1 0x1 PUSH1 0x50 SHL SUB NOT SWAP1 SWAP3 AND SWAP2 SWAP1 SWAP2 OR SWAP1 SSTORE JUMP JUMPDEST PUSH1 0x0 PUSH2 0xC8B PUSH2 0x1CE5 JUMP JUMPDEST PUSH1 0x1 PUSH1 0x1 PUSH1 0xA0 SHL SUB DUP5 AND PUSH1 0x0 SWAP1 DUP2 MSTORE PUSH1 0x20 DUP3 SWAP1 MSTORE PUSH1 0x40 SWAP1 KECCAK256 DUP1 SLOAD SWAP2 SWAP3 POP SWAP1 PUSH2 0xFFFF AND DUP4 ISZERO PUSH2 0xCCB JUMPI DUP2 SLOAD PUSH2 0xFFFF NOT AND PUSH2 0x100 DUP3 OR PUSH2 0xFFFF AND OR DUP3 SSTORE PUSH2 0xCDB JUMP JUMPDEST DUP2 SLOAD PUSH2 0xFFFF NOT AND PUSH2 0xFEFF DUP3 AND OR DUP3 SSTORE JUMPDEST POP POP POP POP POP JUMP JUMPDEST PUSH1 0x0 PUSH2 0xCEC PUSH2 0x1CE5 JUMP JUMPDEST PUSH1 0x1 PUSH1 0x1 PUSH1 0xA0 SHL SUB DUP5 AND PUSH1 0x0 SWAP1 DUP2 MSTORE PUSH1 0x20 DUP3 SWAP1 MSTORE PUSH1 0x40 SWAP1 KECCAK256 DUP1 SLOAD SWAP2 SWAP3 POP SWAP1 PUSH2 0xFFFF AND DUP4 ISZERO PUSH2 0xD2B JUMPI DUP2 SLOAD PUSH2 0xFFFF NOT AND PUSH1 0x1 DUP3 OR PUSH2 0xFFFF AND OR DUP3 SSTORE PUSH2 0xCDB JUMP JUMPDEST DUP2 SLOAD PUSH2 0xFFFF NOT AND PUSH2 0xFFFE SWAP2 SWAP1 SWAP2 AND OR SWAP1 SSTORE POP POP POP JUMP JUMPDEST PUSH1 0x0 PUSH1 0x1 PUSH1 0x1 PUSH1 0xFF SHL SUB DUP3 GT ISZERO PUSH2 0xD57 JUMPI PUSH1 0x0 DUP1 REVERT JUMPDEST POP SWAP1 JUMP JUMPDEST PUSH1 0x0 DUP1 PUSH3 0xFFFFFF DUP4 GT ISZERO PUSH2 0xD78 JUMPI PUSH1 0x17 PUSH2 0xD74 DUP5 PUSH2 0x1CF2 JUMP JUMPDEST SUB SWAP1 POP JUMPDEST DUP3 DUP2 SHR PUSH1 0x8 SHL OR SWAP1 POP SWAP2 SWAP1 POP JUMP JUMPDEST PUSH1 0x0 PUSH2 0xD90 PUSH2 0x1CE5 JUMP JUMPDEST SWAP1 POP PUSH1 0x0 PUSH2 0xD9D DUP5 PUSH2 0x144D JUMP JUMPDEST SWAP1 POP DUP3 PUSH1 0x20 ADD MLOAD PUSH2 0xFFFF AND PUSH1 0x0 EQ ISZERO PUSH2 0xDB5 JUMPI PUSH1 0x0 DUP1 REVERT JUMPDEST PUSH1 0x40 DUP2 ADD MLOAD PUSH2 0xFFFF AND ISZERO DUP1 PUSH2 0xDD9 JUMPI POP DUP3 PUSH1 0x20 ADD MLOAD PUSH2 0xFFFF AND DUP2 PUSH1 0x40 ADD MLOAD PUSH2 0xFFFF AND EQ JUMPDEST PUSH2 0xDE2 JUMPI PUSH1 0x0 DUP1 REVERT JUMPDEST DUP3 PUSH1 0xA0 ADD MLOAD PUSH1 0xFF AND PUSH1 0x64 SGT ISZERO PUSH2 0xDF7 JUMPI PUSH1 0x0 DUP1 REVERT JUMPDEST PUSH1 0x0 PUSH1 0x64 DUP1 DUP6 PUSH1 0xA0 ADD MLOAD PUSH1 0xFF AND SUB MUL SWAP1 POP DUP4 PUSH1 0x60 ADD MLOAD PUSH2 0xFFFF AND DUP2 PUSH2 0xFFFF AND LT PUSH2 0xE20 JUMPI PUSH1 0x0 DUP1 REVERT JUMPDEST DUP4 PUSH2 0x100 ADD MLOAD PUSH2 0xFFFF AND DUP5 PUSH1 0x60 ADD MLOAD PUSH2 0xFFFF AND LT PUSH2 0xE3D JUMPI PUSH1 0x0 DUP1 REVERT JUMPDEST DUP4 PUSH2 0x140 ADD MLOAD PUSH2 0xFFFF AND DUP5 PUSH2 0x100 ADD MLOAD PUSH2 0xFFFF AND LT PUSH2 0xE5B JUMPI PUSH1 0x0 DUP1 REVERT JUMPDEST PUSH1 0x64 DUP5 PUSH1 0xC0 ADD MLOAD PUSH1 0xFF AND SGT ISZERO PUSH2 0xE70 JUMPI PUSH1 0x0 DUP1 REVERT JUMPDEST PUSH2 0x140 DUP3 ADD MLOAD MLOAD PUSH2 0xFFFF AND ISZERO DUP1 PUSH2 0xE9A JUMPI POP PUSH2 0x120 DUP5 ADD MLOAD MLOAD PUSH2 0x140 DUP4 ADD MLOAD MLOAD PUSH2 0xFFFF SWAP1 DUP2 AND SWAP2 AND EQ JUMPDEST PUSH2 0xEA3 JUMPI PUSH1 0x0 DUP1 REVERT JUMPDEST PUSH2 0x140 DUP3 ADD MLOAD PUSH1 0x20 ADD MLOAD PUSH2 0xFFFF AND ISZERO DUP1 PUSH2 0xEDC JUMPI POP PUSH2 0x120 DUP5 ADD MLOAD PUSH1 0x20 ADD MLOAD PUSH2 0x140 DUP4 ADD MLOAD PUSH2 0xFFFF SWAP1 SWAP2 AND SWAP1 PUSH1 0x1 PUSH1 0x20 MUL ADD MLOAD PUSH2 0xFFFF AND EQ JUMPDEST PUSH2 0xEE5 JUMPI PUSH1 0x0 DUP1 REVERT JUMPDEST PUSH2 0x120 DUP5 ADD MLOAD MLOAD PUSH1 0x20 DUP6 ADD MLOAD PUSH2 0xFFFF SWAP1 DUP2 AND SWAP2 AND EQ ISZERO PUSH2 0xF04 JUMPI PUSH1 0x0 DUP1 REVERT JUMPDEST PUSH2 0x120 DUP5 ADD MLOAD PUSH1 0x1 PUSH1 0x20 MUL ADD MLOAD PUSH2 0xFFFF AND DUP5 PUSH1 0x20 ADD MLOAD PUSH2 0xFFFF AND EQ ISZERO PUSH2 0xF29 JUMPI PUSH1 0x0 DUP1 REVERT JUMPDEST PUSH2 0x120 DUP5 ADD MLOAD MLOAD PUSH2 0xFFFF AND ISZERO DUP1 ISZERO SWAP1 PUSH2 0xF4E JUMPI POP PUSH2 0x120 DUP5 ADD MLOAD PUSH1 0x20 ADD MLOAD PUSH2 0xFFFF AND ISZERO ISZERO JUMPDEST ISZERO PUSH2 0xF73 JUMPI PUSH2 0x120 DUP5 ADD MLOAD PUSH1 0x20 DUP2 ADD MLOAD SWAP1 MLOAD PUSH2 0xFFFF SWAP1 DUP2 AND SWAP2 AND EQ ISZERO PUSH2 0xF73 JUMPI PUSH1 0x0 DUP1 REVERT JUMPDEST PUSH2 0x120 DUP5 ADD MLOAD MLOAD PUSH2 0xFFFF AND ISZERO ISZERO DUP1 PUSH2 0xF97 JUMPI POP PUSH2 0x120 DUP5 ADD MLOAD PUSH1 0x20 ADD MLOAD PUSH2 0xFFFF AND ISZERO ISZERO JUMPDEST ISZERO PUSH2 0xFB2 JUMPI PUSH1 0x64 DUP5 PUSH2 0x180 ADD MLOAD PUSH1 0xFF AND SLT ISZERO PUSH2 0xFB2 JUMPI PUSH1 0x0 DUP1 REVERT JUMPDEST PUSH1 0x0 PUSH2 0xFC5 DUP6 PUSH1 0x20 ADD MLOAD PUSH2 0xFFFF AND PUSH2 0xC1A JUMP JUMPDEST SWAP1 POP DUP1 PUSH1 0x20 ADD MLOAD ISZERO PUSH2 0xFD6 JUMPI PUSH1 0x0 DUP1 REVERT JUMPDEST PUSH2 0x120 DUP6 ADD MLOAD MLOAD PUSH2 0xFFFF AND ISZERO PUSH2 0x100F JUMPI PUSH2 0x120 DUP6 ADD MLOAD PUSH2 0x1001 SWAP1 PUSH1 0x0 JUMPDEST PUSH1 0x20 MUL ADD MLOAD PUSH2 0xFFFF AND PUSH2 0xC1A JUMP JUMPDEST PUSH1 0x20 ADD MLOAD ISZERO PUSH2 0x100F JUMPI PUSH1 0x0 DUP1 REVERT JUMPDEST PUSH2 0x120 DUP6 ADD MLOAD PUSH1 0x20 ADD MLOAD PUSH2 0xFFFF AND ISZERO PUSH2 0x1041 JUMPI PUSH2 0x120 DUP6 ADD MLOAD PUSH2 0x1033 SWAP1 PUSH1 0x1 PUSH2 0xFF3 JUMP JUMPDEST PUSH1 0x20 ADD MLOAD ISZERO PUSH2 0x1041 JUMPI PUSH1 0x0 DUP1 REVERT JUMPDEST DUP5 DUP5 PUSH1 0x0 DUP9 PUSH1 0x1 PUSH1 0x1 PUSH1 0xA0 SHL SUB AND PUSH1 0x1 PUSH1 0x1 PUSH1 0xA0 SHL SUB AND DUP2 MSTORE PUSH1 0x20 ADD SWAP1 DUP2 MSTORE PUSH1 0x20 ADD PUSH1 0x0 KECCAK256 PUSH1 0x0 DUP3 ADD MLOAD DUP2 PUSH1 0x0 ADD PUSH1 0x0 PUSH2 0x100 EXP DUP2 SLOAD DUP2 PUSH2 0xFFFF MUL NOT AND SWAP1 DUP4 PUSH2 0xFFFF AND MUL OR SWAP1 SSTORE POP PUSH1 0x20 DUP3 ADD MLOAD DUP2 PUSH1 0x0 ADD PUSH1 0x2 PUSH2 0x100 EXP DUP2 SLOAD DUP2 PUSH2 0xFFFF MUL NOT AND SWAP1 DUP4 PUSH2 0xFFFF AND MUL OR SWAP1 SSTORE POP PUSH1 0x40 DUP3 ADD MLOAD DUP2 PUSH1 0x0 ADD PUSH1 0x4 PUSH2 0x100 EXP DUP2 SLOAD DUP2 PUSH4 0xFFFFFFFF MUL NOT AND SWAP1 DUP4 PUSH4 0xFFFFFFFF AND MUL OR SWAP1 SSTORE POP PUSH1 0x60 DUP3 ADD MLOAD DUP2 PUSH1 0x0 ADD PUSH1 0x8 PUSH2 0x100 EXP DUP2 SLOAD DUP2 PUSH2 0xFFFF MUL NOT AND SWAP1 DUP4 PUSH2 0xFFFF AND MUL OR SWAP1 SSTORE POP PUSH1 0x80 DUP3 ADD MLOAD DUP2 PUSH1 0x0 ADD PUSH1 0xA PUSH2 0x100 EXP DUP2 SLOAD DUP2 PUSH1 0xFF MUL NOT AND SWAP1 DUP4 PUSH1 0xFF AND MUL OR SWAP1 SSTORE POP PUSH1 0xA0 DUP3 ADD MLOAD DUP2 PUSH1 0x0 ADD PUSH1 0xB PUSH2 0x100 EXP DUP2 SLOAD DUP2 PUSH1 0xFF MUL NOT AND SWAP1 DUP4 PUSH1 0xFF AND MUL OR SWAP1 SSTORE POP PUSH1 0xC0 DUP3 ADD MLOAD DUP2 PUSH1 0x0 ADD PUSH1 0xC PUSH2 0x100 EXP DUP2 SLOAD DUP2 PUSH1 0xFF MUL NOT AND SWAP1 DUP4 PUSH1 0xFF AND MUL OR SWAP1 SSTORE POP PUSH1 0xE0 DUP3 ADD MLOAD DUP2 PUSH1 0x0 ADD PUSH1 0xD PUSH2 0x100 EXP DUP2 SLOAD DUP2 PUSH1 0xFF MUL NOT AND SWAP1 DUP4 PUSH1 0xFF AND MUL OR SWAP1 SSTORE POP PUSH2 0x100 DUP3 ADD MLOAD DUP2 PUSH1 0x0 ADD PUSH1 0xE PUSH2 0x100 EXP DUP2 SLOAD DUP2 PUSH2 0xFFFF MUL NOT AND SWAP1 DUP4 PUSH2 0xFFFF AND MUL OR SWAP1 SSTORE POP PUSH2 0x120 DUP3 ADD MLOAD DUP2 PUSH1 0x1 ADD SWAP1 PUSH1 0x2 PUSH2 0x11B6 SWAP3 SWAP2 SWAP1 PUSH2 0x4F05 JUMP JUMPDEST POP PUSH2 0x140 DUP3 ADD MLOAD PUSH1 0x2 DUP3 DUP2 ADD DUP1 SLOAD PUSH2 0xFFFF NOT AND PUSH2 0xFFFF SWAP1 SWAP4 AND SWAP3 SWAP1 SWAP3 OR SWAP1 SWAP2 SSTORE PUSH2 0x160 DUP4 ADD MLOAD PUSH2 0x11EB SWAP2 PUSH1 0x3 DUP5 ADD SWAP2 SWAP1 PUSH2 0x4F97 JUMP JUMPDEST POP PUSH2 0x180 SWAP2 SWAP1 SWAP2 ADD MLOAD PUSH1 0x4 SWAP1 SWAP2 ADD DUP1 SLOAD PUSH1 0xFF NOT AND PUSH1 0xFF SWAP1 SWAP3 AND SWAP2 SWAP1 SWAP2 OR SWAP1 SSTORE POP POP POP POP POP POP JUMP JUMPDEST PUSH2 0x121B DUP3 PUSH2 0x90D JUMP JUMPDEST PUSH2 0x1224 JUMPI PUSH2 0x1449 JUMP JUMPDEST PUSH1 0x0 PUSH2 0x122E PUSH2 0x164C JUMP JUMPDEST PUSH1 0x1 PUSH1 0x1 PUSH1 0xA0 SHL SUB DUP1 DUP5 AND PUSH1 0x0 SWAP1 DUP2 MSTORE PUSH1 0x20 SWAP3 DUP4 MSTORE PUSH1 0x40 DUP1 DUP3 KECCAK256 DUP8 MLOAD SWAP1 SWAP4 AND DUP3 MSTORE SWAP2 SWAP1 SWAP3 MSTORE DUP2 KECCAK256 DUP1 SLOAD SWAP1 SWAP3 POP PUSH5 0xFFFFFFFFFF DUP2 AND SWAP2 PUSH1 0x1 PUSH1 0x1 PUSH1 0x50 SHL SUB PUSH1 0x1 PUSH1 0x28 SHL DUP4 DIV DUP2 AND DUP3 SUB SWAP3 PUSH1 0x1 PUSH1 0x78 SHL SWAP1 DIV AND SWAP1 SUB DUP3 PUSH2 0x12A0 JUMPI DUP2 ISZERO DUP1 ISZERO PUSH2 0x1292 JUMPI POP DUP1 ISZERO JUMPDEST PUSH2 0x129B JUMPI PUSH1 0x0 DUP1 REVERT JUMPDEST PUSH2 0x12AD JUMP JUMPDEST TIMESTAMP DUP4 GT ISZERO PUSH2 0x12AD JUMPI PUSH1 0x0 DUP1 REVERT JUMPDEST PUSH1 0x0 DUP1 PUSH2 0x12BE DUP8 DUP10 PUSH1 0x0 ADD MLOAD PUSH2 0x19C5 JUMP JUMPDEST PUSH2 0x140 DUP11 ADD MLOAD MLOAD SWAP2 SWAP4 POP SWAP2 POP PUSH2 0xFFFF AND ISZERO PUSH2 0x1368 JUMPI DUP8 MLOAD PUSH2 0x140 DUP10 ADD MLOAD MLOAD PUSH2 0x12EC SWAP2 DUP10 SWAP2 DUP9 PUSH2 0xAF6 DUP8 PUSH2 0xA30 JUMP JUMPDEST DUP8 MLOAD PUSH2 0x140 DUP10 ADD MLOAD MLOAD PUSH2 0x1304 SWAP2 SWAP1 DUP10 SWAP1 DUP9 DUP9 DUP8 PUSH2 0x1D8A JUMP JUMPDEST SWAP1 SWAP5 POP SWAP2 POP PUSH2 0x1322 PUSH2 0x131D PUSH2 0x1318 DUP7 PUSH2 0xA30 JUMP JUMPDEST PUSH2 0x1EC1 JUMP JUMPDEST PUSH2 0x1ED0 JUMP JUMPDEST DUP7 SLOAD PUSH1 0x1 PUSH1 0x1 PUSH1 0x50 SHL SUB SWAP2 SWAP1 SWAP2 AND PUSH1 0x1 PUSH1 0x28 SHL MUL PUSH15 0xFFFFFFFFFFFFFFFFFFFF0000000000 NOT SWAP1 SWAP2 AND OR DUP7 SSTORE DUP8 MLOAD PUSH2 0x140 DUP10 ADD MLOAD MLOAD PUSH2 0x1368 SWAP2 DUP10 SWAP2 PUSH5 0xFFFFFFFFFF DUP7 PUSH2 0x1A42 JUMP JUMPDEST PUSH2 0x140 DUP9 ADD MLOAD PUSH1 0x20 ADD MLOAD PUSH2 0xFFFF AND ISZERO PUSH2 0x140D JUMPI DUP8 MLOAD PUSH2 0x140 DUP10 ADD MLOAD PUSH1 0x20 ADD MLOAD PUSH2 0x1397 SWAP2 DUP10 SWAP2 DUP9 PUSH2 0xAF6 DUP7 PUSH2 0xA30 JUMP JUMPDEST DUP8 MLOAD PUSH2 0x140 DUP10 ADD MLOAD PUSH1 0x20 ADD MLOAD PUSH2 0x13B2 SWAP2 SWAP1 DUP10 SWAP1 DUP9 DUP8 DUP7 PUSH2 0x1D8A JUMP JUMPDEST SWAP1 SWAP4 POP SWAP1 POP PUSH2 0x13C6 PUSH2 0x131D PUSH2 0x1318 DUP6 PUSH2 0xA30 JUMP JUMPDEST DUP7 SLOAD PUSH1 0x1 PUSH1 0x1 PUSH1 0x50 SHL SUB SWAP2 SWAP1 SWAP2 AND PUSH1 0x1 PUSH1 0x78 SHL MUL PUSH10 0xFFFFFFFFFFFFFFFFFFFF PUSH1 0x78 SHL NOT SWAP1 SWAP2 AND OR DUP7 SSTORE DUP8 MLOAD PUSH2 0x140 DUP10 ADD MLOAD PUSH1 0x20 ADD MLOAD PUSH2 0x140D SWAP2 DUP10 SWAP2 PUSH5 0xFFFFFFFFFF DUP6 PUSH2 0x1A42 JUMP JUMPDEST PUSH1 0x0 DUP3 SGT DUP1 PUSH2 0x141C JUMPI POP PUSH1 0x0 DUP2 SGT JUMPDEST ISZERO PUSH2 0x1431 JUMPI PUSH2 0x1431 DUP8 DUP10 PUSH1 0x0 ADD MLOAD DUP5 DUP5 PUSH2 0x1EE6 JUMP JUMPDEST PUSH2 0x1442 DUP7 DUP6 DUP6 PUSH5 0xFFFFFFFFFF PUSH2 0x1FB5 JUMP JUMPDEST POP POP POP POP POP POP JUMPDEST POP POP JUMP JUMPDEST PUSH2 0x1455 PUSH2 0x4E18 JUMP JUMPDEST PUSH1 0x0 PUSH2 0x145F PUSH2 0x1CE5 JUMP JUMPDEST PUSH1 0x1 PUSH1 0x1 PUSH1 0xA0 SHL SUB DUP5 AND PUSH1 0x0 DUP2 DUP2 MSTORE PUSH1 0x20 DUP4 DUP2 MSTORE PUSH1 0x40 SWAP2 DUP3 SWAP1 KECCAK256 SWAP3 DUP7 MSTORE DUP3 SLOAD PUSH2 0xFFFF DUP1 DUP3 AND SWAP3 DUP9 ADD SWAP3 SWAP1 SWAP3 MSTORE PUSH3 0x10000 SWAP1 DIV AND SWAP1 DUP6 ADD MSTORE SWAP1 SWAP2 POP PUSH2 0x14BB PUSH2 0x2710 PUSH4 0x3B9ACA00 DUP4 SLOAD PUSH1 0x1 PUSH1 0x50 SHL SWAP1 DIV PUSH1 0xFF AND SWAP2 SWAP1 SDIV PUSH1 0x5 MUL PUSH2 0x1FF3 JUMP JUMPDEST PUSH1 0x80 DUP5 ADD MSTORE DUP1 SLOAD PUSH2 0x14DA SWAP1 PUSH1 0x1 PUSH1 0x40 SHL SWAP1 DIV PUSH2 0xFFFF AND PUSH3 0x186A0 PUSH2 0x1FF3 JUMP JUMPDEST PUSH1 0xA0 DUP5 ADD MSTORE DUP1 SLOAD PUSH2 0x14F9 SWAP1 PUSH1 0x1 PUSH1 0x70 SHL SWAP1 DIV PUSH2 0xFFFF AND PUSH3 0x186A0 PUSH2 0x1FF3 JUMP JUMPDEST PUSH2 0x120 DUP5 ADD MSTORE PUSH1 0x2 DUP2 ADD SLOAD PUSH2 0x1515 SWAP1 PUSH2 0xFFFF AND PUSH3 0x186A0 PUSH2 0x1FF3 JUMP JUMPDEST PUSH2 0x180 DUP5 ADD MSTORE DUP1 SLOAD PUSH1 0x64 SWAP1 PUSH1 0xFF PUSH1 0x1 PUSH1 0x58 SHL SWAP1 SWAP2 DIV AND PUSH4 0x3B9ACA00 MUL SDIV PUSH1 0xC0 DUP5 ADD MSTORE DUP1 SLOAD PUSH1 0x1 PUSH1 0x60 SHL DUP2 DIV PUSH1 0xFF SWAP1 DUP2 AND PUSH1 0xE0 DUP7 ADD MSTORE PUSH1 0x1 PUSH1 0x68 SHL SWAP1 SWAP2 DIV AND PUSH2 0x100 DUP5 ADD MSTORE PUSH1 0x40 DUP1 MLOAD DUP1 DUP3 ADD SWAP2 DUP3 SWAP1 MSTORE SWAP1 PUSH1 0x1 DUP4 ADD SWAP1 PUSH1 0x2 SWAP1 DUP3 PUSH1 0x0 DUP6 JUMPDEST DUP3 DUP3 SWAP1 SLOAD SWAP1 PUSH2 0x100 EXP SWAP1 DIV PUSH2 0xFFFF AND PUSH2 0xFFFF AND DUP2 MSTORE PUSH1 0x20 ADD SWAP1 PUSH1 0x2 ADD SWAP1 PUSH1 0x20 DUP3 PUSH1 0x1 ADD DIV SWAP3 DUP4 ADD SWAP3 PUSH1 0x1 SUB DUP3 MUL SWAP2 POP DUP1 DUP5 GT PUSH2 0x1572 JUMPI POP POP POP POP POP PUSH2 0x140 DUP6 ADD SWAP2 SWAP1 SWAP2 MSTORE POP PUSH1 0x4 DUP2 ADD SLOAD PUSH1 0xFF AND PUSH2 0x1C0 DUP5 ADD MSTORE DUP1 SLOAD PUSH2 0x15DD SWAP1 PUSH1 0x1 PUSH1 0x20 SHL SWAP1 DIV PUSH4 0xFFFFFFFF AND PUSH2 0x2021 JUMP JUMPDEST PUSH1 0x60 DUP5 ADD MSTORE PUSH2 0x1613 PUSH1 0x3 DUP3 ADD PUSH1 0x0 JUMPDEST PUSH1 0x8 SWAP2 DUP3 DUP3 DIV ADD SWAP2 SWAP1 MOD PUSH1 0x4 MUL SWAP1 SLOAD SWAP1 PUSH2 0x100 EXP SWAP1 DIV PUSH4 0xFFFFFFFF AND PUSH4 0xFFFFFFFF AND PUSH2 0x2021 JUMP JUMPDEST PUSH2 0x1A0 DUP5 ADD MLOAD MSTORE PUSH2 0x1628 PUSH1 0x3 DUP3 ADD PUSH1 0x1 PUSH2 0x15EC JUMP JUMPDEST PUSH2 0x1A0 DUP5 ADD MLOAD PUSH1 0x20 ADD MSTORE POP SWAP1 SWAP3 SWAP2 POP POP JUMP JUMPDEST PUSH2 0x1642 PUSH2 0x5021 JUMP JUMPDEST PUSH2 0x934 DUP3 TIMESTAMP PUSH2 0x202F JUMP JUMPDEST PUSH1 0x0 DUP1 PUSH2 0x907 PUSH1 0x1A PUSH2 0x20F0 JUMP JUMPDEST PUSH1 0x0 PUSH5 0xFFFFFFFFFF DUP4 EQ PUSH2 0x1679 JUMPI DUP2 PUSH1 0x1 PUSH1 0x1 PUSH1 0x50 SHL SUB AND PUSH1 0x0 SUB PUSH2 0x168F JUMP JUMPDEST PUSH2 0x168F DUP5 PUSH1 0x1 PUSH1 0x1 PUSH1 0x50 SHL SUB DUP5 AND PUSH1 0x0 SUB PUSH2 0x2109 JUMP JUMPDEST SWAP5 SWAP4 POP POP POP POP JUMP JUMPDEST DUP2 DUP2 MUL PUSH1 0x0 NOT DUP4 EQ ISZERO PUSH2 0x16C7 JUMPI DUP2 ISZERO DUP1 PUSH2 0x16B9 JUMPI POP DUP3 DUP3 DUP3 DUP2 PUSH2 0x16B6 JUMPI INVALID JUMPDEST SDIV EQ JUMPDEST PUSH2 0x16C2 JUMPI PUSH1 0x0 DUP1 REVERT JUMPDEST PUSH2 0x907 JUMP JUMPDEST DUP3 ISZERO DUP1 PUSH2 0x16DC JUMPI POP DUP2 DUP4 DUP3 DUP2 PUSH2 0x16D9 JUMPI INVALID JUMPDEST SDIV EQ JUMPDEST PUSH2 0x907 JUMPI PUSH1 0x0 DUP1 REVERT JUMPDEST PUSH1 0x0 DUP1 PUSH1 0x0 PUSH2 0x16F2 PUSH2 0x164C JUMP JUMPDEST PUSH1 0x1 PUSH1 0x1 PUSH1 0xA0 SHL SUB DUP1 DUP13 AND PUSH1 0x0 SWAP1 DUP2 MSTORE PUSH1 0x20 SWAP3 DUP4 MSTORE PUSH1 0x40 DUP1 DUP3 KECCAK256 DUP16 MLOAD SWAP1 SWAP4 AND DUP3 MSTORE SWAP2 SWAP1 SWAP3 MSTORE SWAP1 KECCAK256 DUP1 SLOAD SWAP1 SWAP2 POP PUSH5 0xFFFFFFFFFF AND DUP10 DUP2 EQ DUP1 PUSH2 0x1731 JUMPI POP DUP1 ISZERO JUMPDEST PUSH2 0x173A JUMPI PUSH1 0x0 DUP1 REVERT JUMPDEST DUP7 MLOAD DUP3 SLOAD PUSH2 0x175A SWAP2 SWAP1 DUP13 SWAP1 PUSH1 0x1 PUSH1 0x28 SHL SWAP1 DIV PUSH1 0x1 PUSH1 0x1 PUSH1 0x50 SHL SUB AND PUSH2 0x1659 JUMP JUMPDEST SWAP4 POP PUSH2 0x1780 DUP8 PUSH1 0x1 PUSH1 0x20 MUL ADD MLOAD DUP4 SLOAD DUP13 SWAP1 PUSH1 0x1 PUSH1 0x78 SHL SWAP1 DIV PUSH1 0x1 PUSH1 0x1 PUSH1 0x50 SHL SUB AND PUSH2 0x1659 JUMP JUMPDEST SWAP3 POP DUP9 ISZERO PUSH2 0x1808 JUMPI PUSH2 0x1792 DUP5 DUP11 PUSH2 0x1AD8 JUMP JUMPDEST SWAP4 POP PUSH2 0x17C1 DUP13 DUP13 DUP15 PUSH2 0x140 ADD MLOAD PUSH1 0x0 PUSH1 0x2 DUP2 LT PUSH2 0x17AB JUMPI INVALID JUMPDEST PUSH1 0x20 MUL ADD MLOAD DUP14 DUP14 DUP13 PUSH1 0x0 JUMPDEST PUSH1 0x20 MUL ADD MLOAD DUP12 PUSH2 0x2160 JUMP JUMPDEST PUSH2 0x17DC PUSH2 0x131D PUSH2 0x1318 PUSH2 0xB55 DUP11 PUSH1 0x0 PUSH1 0x20 MUL ADD MLOAD DUP15 DUP10 PUSH2 0x223A JUMP JUMPDEST DUP3 SLOAD PUSH1 0x1 PUSH1 0x1 PUSH1 0x50 SHL SUB SWAP2 SWAP1 SWAP2 AND PUSH1 0x1 PUSH1 0x28 SHL MUL PUSH15 0xFFFFFFFFFFFFFFFFFFFF0000000000 NOT SWAP1 SWAP2 AND OR DUP3 SSTORE JUMPDEST DUP8 ISZERO PUSH2 0x1885 JUMPI PUSH2 0x1818 DUP4 DUP10 PUSH2 0x1AD8 JUMP JUMPDEST SWAP3 POP PUSH2 0x1840 DUP13 DUP13 DUP15 PUSH2 0x140 ADD MLOAD PUSH1 0x1 PUSH1 0x2 DUP2 LT PUSH2 0x1831 JUMPI INVALID JUMPDEST PUSH1 0x20 MUL ADD MLOAD DUP14 DUP13 DUP13 PUSH1 0x1 PUSH2 0x17B6 JUMP JUMPDEST PUSH2 0x185B PUSH2 0x131D PUSH2 0x1318 PUSH2 0xB55 DUP11 PUSH1 0x1 PUSH1 0x20 MUL ADD MLOAD DUP15 DUP9 PUSH2 0x223A JUMP JUMPDEST DUP3 SLOAD PUSH1 0x1 PUSH1 0x1 PUSH1 0x50 SHL SUB SWAP2 SWAP1 SWAP2 AND PUSH1 0x1 PUSH1 0x78 SHL MUL PUSH10 0xFFFFFFFFFFFFFFFFFFFF PUSH1 0x78 SHL NOT SWAP1 SWAP2 AND OR DUP3 SSTORE JUMPDEST DUP6 ISZERO PUSH2 0x18F4 JUMPI DUP4 ISZERO DUP1 PUSH2 0x18A2 JUMPI POP PUSH2 0x1A0 DUP13 ADD MLOAD MLOAD PUSH1 0x0 DUP6 SWAP1 SUB SLT ISZERO JUMPDEST PUSH2 0x18BE JUMPI PUSH1 0x40 MLOAD PUSH3 0x461BCD PUSH1 0xE5 SHL DUP2 MSTORE PUSH1 0x4 ADD PUSH2 0x312 SWAP1 PUSH2 0x5BE1 JUMP JUMPDEST DUP3 ISZERO DUP1 PUSH2 0x18D8 JUMPI POP PUSH2 0x1A0 DUP13 ADD MLOAD PUSH1 0x20 ADD MLOAD PUSH1 0x0 DUP5 SWAP1 SUB SLT ISZERO JUMPDEST PUSH2 0x18F4 JUMPI PUSH1 0x40 MLOAD PUSH3 0x461BCD PUSH1 0xE5 SHL DUP2 MSTORE PUSH1 0x4 ADD PUSH2 0x312 SWAP1 PUSH2 0x5BE1 JUMP JUMPDEST PUSH2 0x1908 DUP3 DUP6 DUP6 PUSH2 0x1903 DUP15 PUSH2 0x2258 JUMP JUMPDEST PUSH2 0x1FB5 JUMP JUMPDEST POP POP SWAP9 POP SWAP9 SWAP7 POP POP POP POP POP POP POP JUMP JUMPDEST PUSH1 0x0 DUP7 PUSH1 0x40 ADD MLOAD PUSH2 0xFFFF AND DUP6 PUSH2 0xFFFF AND EQ ISZERO PUSH2 0x1932 JUMPI PUSH1 0x0 DUP1 REVERT JUMPDEST DUP3 PUSH2 0x193F JUMPI POP PUSH1 0x0 PUSH2 0xC10 JUMP JUMPDEST PUSH5 0xFFFFFFFFFF DUP5 EQ PUSH2 0x198E JUMPI PUSH2 0x1963 DUP6 DUP9 PUSH1 0x0 ADD MLOAD DUP7 DUP7 DUP7 DUP13 PUSH2 0x100 ADD MLOAD TIMESTAMP PUSH2 0x226C JUMP JUMPDEST SWAP1 POP PUSH1 0x0 DUP4 SLT ISZERO PUSH2 0x198E JUMPI PUSH1 0x0 DUP2 SGT PUSH2 0x198E JUMPI PUSH1 0x40 MLOAD PUSH3 0x461BCD PUSH1 0xE5 SHL DUP2 MSTORE PUSH1 0x4 ADD PUSH2 0x312 SWAP1 PUSH2 0x5B11 JUMP JUMPDEST DUP1 PUSH2 0xC10 JUMPI PUSH2 0x19A0 PUSH2 0xB55 DUP8 DUP6 PUSH2 0x237A JUMP JUMPDEST SWAP1 POP PUSH5 0xFFFFFFFFFF DUP5 EQ PUSH2 0xC10 JUMPI DUP7 MLOAD PUSH2 0xC10 SWAP1 DUP7 DUP7 PUSH2 0x19BF DUP6 PUSH2 0xA30 JUMP JUMPDEST DUP8 PUSH2 0x23BA JUMP JUMPDEST PUSH1 0x0 DUP1 PUSH1 0x0 PUSH2 0x19D2 PUSH2 0x24AA JUMP JUMPDEST PUSH1 0x1 PUSH1 0x1 PUSH1 0xA0 SHL SUB SWAP6 DUP7 AND PUSH1 0x0 SWAP1 DUP2 MSTORE PUSH1 0x20 SWAP2 DUP3 MSTORE PUSH1 0x40 DUP1 DUP3 KECCAK256 SWAP7 SWAP1 SWAP8 AND DUP2 MSTORE SWAP5 SWAP1 MSTORE POP POP POP KECCAK256 PUSH1 0x1 ADD DUP1 SLOAD PUSH32 0xFFFF0000000000000000000000000000000000000000FFFFFFFFFFFFFFFFFFFF DUP2 AND SWAP1 SWAP2 SSTORE PUSH1 0x1 PUSH1 0x1 PUSH1 0x50 SHL SUB PUSH1 0x1 PUSH1 0x50 SHL DUP3 DIV DUP2 AND SWAP3 PUSH1 0x1 PUSH1 0xA0 SHL SWAP1 SWAP3 DIV AND SWAP1 JUMP JUMPDEST DUP1 PUSH2 0x1A4C JUMPI PUSH2 0xCDB JUMP JUMPDEST PUSH1 0x0 PUSH2 0x1A5B DUP6 DUP6 DUP6 PUSH1 0xB PUSH2 0x24B7 JUMP JUMPDEST SWAP1 POP PUSH1 0x0 DUP1 PUSH1 0x0 DUP5 SLT ISZERO PUSH2 0x1A74 JUMPI POP DUP7 SWAP1 POP PUSH1 0x0 PUSH2 0x1A7B JUMP JUMPDEST POP PUSH1 0x0 SWAP1 POP DUP7 JUMPDEST PUSH1 0x0 PUSH2 0x1A86 DUP6 PUSH2 0x24ED JUMP JUMPDEST SWAP1 POP DUP2 PUSH1 0x1 PUSH1 0x1 PUSH1 0xA0 SHL SUB AND DUP4 PUSH1 0x1 PUSH1 0x1 PUSH1 0xA0 SHL SUB AND CALLER PUSH1 0x1 PUSH1 0x1 PUSH1 0xA0 SHL SUB AND PUSH1 0x0 DUP1 MLOAD PUSH1 0x20 PUSH2 0x5E22 DUP4 CODECOPY DUP2 MLOAD SWAP2 MSTORE DUP8 DUP6 PUSH1 0x40 MLOAD PUSH2 0x1AC5 SWAP3 SWAP2 SWAP1 PUSH2 0x5D5E JUMP JUMPDEST PUSH1 0x40 MLOAD DUP1 SWAP2 SUB SWAP1 LOG4 POP POP POP POP POP POP POP POP POP JUMP JUMPDEST DUP2 DUP2 ADD DUP3 DUP2 SLT ISZERO PUSH1 0x0 DUP4 SLT ISZERO EQ PUSH2 0x907 JUMPI PUSH1 0x0 DUP1 REVERT JUMPDEST PUSH1 0x0 PUSH2 0x1AF8 PUSH2 0x250E JUMP JUMPDEST PUSH2 0xFFFF DUP5 AND PUSH1 0x0 SWAP1 DUP2 MSTORE PUSH1 0x20 SWAP2 SWAP1 SWAP2 MSTORE PUSH1 0x40 DUP2 KECCAK256 SLOAD PUSH1 0x1 PUSH1 0x1 PUSH1 0xA0 SHL SUB AND SWAP2 POP DUP3 SLT ISZERO PUSH2 0x1B23 JUMPI SWAP3 SWAP4 SWAP3 JUMPDEST DUP1 PUSH1 0x1 PUSH1 0x1 PUSH1 0xA0 SHL SUB AND PUSH4 0x23DE6651 DUP7 DUP7 PUSH2 0x1B3D DUP7 PUSH2 0x24ED JUMP JUMPDEST PUSH1 0x40 MLOAD DUP5 PUSH4 0xFFFFFFFF AND PUSH1 0xE0 SHL DUP2 MSTORE PUSH1 0x4 ADD PUSH2 0x1B5B SWAP4 SWAP3 SWAP2 SWAP1 PUSH2 0x5A5A JUMP JUMPDEST PUSH1 0x0 PUSH1 0x40 MLOAD DUP1 DUP4 SUB DUP2 PUSH1 0x0 DUP8 DUP1 EXTCODESIZE ISZERO DUP1 ISZERO PUSH2 0x1B75 JUMPI PUSH1 0x0 DUP1 REVERT JUMPDEST POP GAS CALL ISZERO DUP1 ISZERO PUSH2 0x1B89 JUMPI RETURNDATASIZE PUSH1 0x0 DUP1 RETURNDATACOPY RETURNDATASIZE PUSH1 0x0 REVERT JUMPDEST POP POP POP POP POP POP POP POP POP JUMP JUMPDEST PUSH1 0x0 DUP1 PUSH2 0x1BAD DUP8 DUP9 DUP9 PUSH2 0x1BA6 DUP10 PUSH2 0xA30 JUMP JUMPDEST DUP9 DUP9 PUSH2 0x251B JUMP JUMPDEST SWAP1 POP PUSH2 0x1BBB PUSH2 0x1318 DUP3 PUSH2 0xA30 JUMP JUMPDEST SWAP2 POP POP JUMPDEST SWAP6 SWAP5 POP POP POP POP POP JUMP JUMPDEST PUSH1 0x0 DUP4 PUSH2 0x1BD7 JUMPI POP PUSH1 0x0 PUSH2 0x1BBF JUMP JUMPDEST PUSH1 0x0 DUP5 SGT PUSH2 0x1BE4 JUMPI PUSH1 0x0 DUP1 REVERT JUMPDEST PUSH1 0x0 PUSH2 0x1BF3 DUP7 PUSH2 0xFFFF AND PUSH2 0xC1A JUMP JUMPDEST SWAP1 POP PUSH1 0x0 PUSH2 0x1C0A DUP3 PUSH2 0x1C05 DUP8 DUP10 PUSH2 0x25C4 JUMP JUMPDEST PUSH2 0x25F1 JUMP JUMPDEST SWAP1 POP PUSH1 0x0 PUSH2 0x1C1B DUP10 DUP10 DUP5 DUP10 DUP10 PUSH2 0x262E JUMP JUMPDEST SWAP1 SWAP5 POP SWAP1 POP DUP7 DUP2 SUB PUSH1 0x0 DUP2 SLT ISZERO PUSH2 0x1C31 JUMPI PUSH1 0x0 DUP1 REVERT JUMPDEST POP POP POP POP SWAP6 SWAP5 POP POP POP POP POP JUMP JUMPDEST PUSH2 0x1C46 PUSH2 0x4EDE JUMP JUMPDEST PUSH1 0x0 PUSH2 0x1C50 PUSH2 0x26EB JUMP JUMPDEST PUSH1 0x0 DUP6 DUP2 MSTORE PUSH1 0x20 DUP3 DUP2 MSTORE PUSH1 0x40 DUP1 DUP4 KECCAK256 DUP8 ISZERO ISZERO DUP5 MSTORE DUP3 MSTORE SWAP2 DUP3 SWAP1 KECCAK256 DUP3 MLOAD PUSH1 0xA0 DUP2 ADD DUP5 MSTORE DUP2 SLOAD PUSH1 0x1 PUSH1 0x1 PUSH1 0xA0 SHL SUB DUP2 AND DUP3 MSTORE PUSH1 0xFF PUSH1 0x1 PUSH1 0xA0 SHL DUP3 DIV DUP2 AND ISZERO ISZERO SWAP5 DUP4 ADD SWAP5 SWAP1 SWAP5 MSTORE PUSH1 0x1 PUSH1 0xB0 SHL DUP2 DIV DUP5 AND PUSH1 0xA EXP SWAP5 DUP3 ADD SWAP5 SWAP1 SWAP5 MSTORE SWAP4 SWAP5 POP SWAP3 SWAP2 PUSH1 0x60 DUP4 ADD SWAP2 PUSH1 0x1 PUSH1 0xA8 SHL SWAP1 SWAP2 DIV AND PUSH1 0x5 DUP2 GT ISZERO PUSH2 0x1CC5 JUMPI INVALID JUMPDEST DUP2 MSTORE PUSH1 0x0 PUSH1 0x20 SWAP1 SWAP2 ADD MSTORE SWAP6 SWAP5 POP POP POP POP POP JUMP JUMPDEST PUSH1 0x0 DUP1 PUSH2 0x907 PUSH1 0x17 PUSH2 0x20F0 JUMP JUMPDEST PUSH1 0x0 DUP1 PUSH2 0x907 PUSH1 0x14 PUSH2 0x20F0 JUMP JUMPDEST PUSH1 0x0 DUP2 PUSH2 0x1CFE JUMPI PUSH1 0x0 DUP1 REVERT JUMPDEST PUSH1 0x1 PUSH1 0x80 SHL DUP3 LT PUSH2 0x1D11 JUMPI PUSH1 0x80 SWAP2 DUP3 SHR SWAP2 ADD JUMPDEST PUSH1 0x1 PUSH1 0x40 SHL DUP3 LT PUSH2 0x1D24 JUMPI PUSH1 0x40 SWAP2 DUP3 SHR SWAP2 ADD JUMPDEST PUSH1 0x1 PUSH1 0x20 SHL DUP3 LT PUSH2 0x1D37 JUMPI PUSH1 0x20 SWAP2 DUP3 SHR SWAP2 ADD JUMPDEST PUSH3 0x10000 DUP3 LT PUSH2 0x1D49 JUMPI PUSH1 0x10 SWAP2 DUP3 SHR SWAP2 ADD JUMPDEST PUSH2 0x100 DUP3 LT PUSH2 0x1D5A JUMPI PUSH1 0x8 SWAP2 DUP3 SHR SWAP2 ADD JUMPDEST PUSH1 0x10 DUP3 LT PUSH2 0x1D6A JUMPI PUSH1 0x4 SWAP2 DUP3 SHR SWAP2 ADD JUMPDEST PUSH1 0x4 DUP3 LT PUSH2 0x1D7A JUMPI PUSH1 0x2 SWAP2 DUP3 SHR SWAP2 ADD JUMPDEST PUSH1 0x2 DUP3 LT PUSH2 0x937 JUMPI PUSH1 0x1 ADD SWAP2 SWAP1 POP JUMP JUMPDEST PUSH1 0x0 DUP1 PUSH1 0x0 PUSH2 0x1D98 DUP8 PUSH2 0x163A JUMP JUMPDEST SWAP1 POP PUSH1 0x0 PUSH2 0x1DA4 PUSH2 0x26F8 JUMP JUMPDEST PUSH1 0x1 PUSH1 0x1 PUSH1 0xA0 SHL SUB DUP12 AND PUSH1 0x0 SWAP1 DUP2 MSTORE PUSH1 0x20 SWAP2 DUP3 MSTORE PUSH1 0x40 DUP1 DUP3 KECCAK256 PUSH5 0xFFFFFFFFFF DUP4 MSTORE DUP4 MSTORE DUP1 DUP3 KECCAK256 PUSH2 0xFFFF DUP13 AND DUP4 MSTORE SWAP1 SWAP3 MSTORE KECCAK256 SWAP1 POP DUP7 ISZERO PUSH2 0x1E64 JUMPI PUSH1 0x0 PUSH2 0x1DE7 PUSH2 0x26F8 JUMP JUMPDEST PUSH1 0x1 PUSH1 0x1 PUSH1 0xA0 SHL SUB DUP13 AND PUSH1 0x0 SWAP1 DUP2 MSTORE PUSH1 0x20 SWAP2 DUP3 MSTORE PUSH1 0x40 DUP1 DUP3 KECCAK256 DUP12 DUP4 MSTORE DUP4 MSTORE DUP1 DUP3 KECCAK256 PUSH2 0xFFFF DUP14 AND DUP4 MSTORE SWAP1 SWAP3 MSTORE SWAP1 DUP2 KECCAK256 DUP1 SLOAD SWAP1 SWAP3 POP PUSH1 0x1 PUSH1 0x1 PUSH1 0x50 SHL SUB DUP2 AND SWAP1 SWAP2 SUB SWAP1 PUSH1 0x1 PUSH1 0xF0 SHL SWAP1 DIV PUSH1 0xFF AND PUSH2 0x1E61 JUMPI PUSH2 0x1E43 DUP4 DUP14 DUP13 DUP13 DUP6 PUSH2 0x2705 JUMP JUMPDEST DUP2 SLOAD PUSH1 0x1 PUSH1 0x1 PUSH1 0x50 SHL SUB NOT PUSH1 0xFF PUSH1 0xF0 SHL NOT SWAP1 SWAP2 AND PUSH1 0x1 PUSH1 0xF0 SHL OR AND DUP3 SSTORE JUMPDEST POP POP JUMPDEST DUP7 ISZERO PUSH2 0x1E7A JUMPI PUSH2 0x1E77 DUP9 DUP9 DUP9 PUSH1 0x0 PUSH2 0x2769 JUMP JUMPDEST SWAP4 POP JUMPDEST PUSH2 0x1E88 DUP3 DUP3 DUP11 DUP14 DUP10 DUP10 PUSH2 0x27B8 JUMP JUMPDEST SWAP1 SWAP5 POP SWAP3 POP PUSH2 0x1EA2 DUP10 DUP12 DUP11 DUP11 PUSH2 0x1E9D DUP12 PUSH2 0xA30 JUMP JUMPDEST PUSH2 0x2881 JUMP JUMPDEST PUSH2 0x1EB4 DUP10 DUP12 DUP11 PUSH5 0xFFFFFFFFFF DUP9 PUSH2 0x2881 JUMP JUMPDEST POP POP SWAP7 POP SWAP7 SWAP5 POP POP POP POP POP JUMP JUMPDEST PUSH1 0x0 DUP1 DUP3 SLT ISZERO PUSH2 0xD57 JUMPI PUSH1 0x0 DUP1 REVERT JUMPDEST PUSH1 0x0 PUSH1 0x1 PUSH1 0x1 PUSH1 0x50 SHL SUB DUP3 GT ISZERO PUSH2 0xD57 JUMPI PUSH1 0x0 DUP1 REVERT JUMPDEST PUSH1 0x0 PUSH2 0x1EF0 PUSH2 0x24AA JUMP JUMPDEST PUSH1 0x1 PUSH1 0x1 PUSH1 0xA0 SHL SUB DUP7 DUP2 AND PUSH1 0x0 SWAP1 DUP2 MSTORE PUSH1 0x20 SWAP3 DUP4 MSTORE PUSH1 0x40 DUP1 DUP3 KECCAK256 SWAP3 DUP9 AND DUP3 MSTORE SWAP2 SWAP1 SWAP3 MSTORE SWAP1 KECCAK256 PUSH1 0x1 DUP2 ADD SLOAD SWAP1 SWAP2 POP PUSH2 0x1F3F SWAP1 PUSH2 0x131D SWAP1 PUSH2 0x1318 SWAP1 PUSH1 0x1 PUSH1 0x50 SHL SWAP1 DIV PUSH1 0x1 PUSH1 0x1 PUSH1 0x50 SHL SUB AND DUP7 PUSH2 0x1AD8 JUMP JUMPDEST PUSH1 0x1 DUP3 ADD DUP1 SLOAD PUSH10 0xFFFFFFFFFFFFFFFFFFFF PUSH1 0x50 SHL NOT AND PUSH1 0x1 PUSH1 0x50 SHL PUSH1 0x1 PUSH1 0x1 PUSH1 0x50 SHL SUB SWAP4 DUP5 AND MUL OR SWAP1 DUP2 SWAP1 SSTORE PUSH2 0x1F86 SWAP2 PUSH2 0x131D SWAP2 PUSH2 0x1318 SWAP2 PUSH1 0x1 PUSH1 0xA0 SHL SWAP1 SWAP2 DIV AND DUP6 PUSH2 0x1AD8 JUMP JUMPDEST DUP2 PUSH1 0x1 ADD PUSH1 0x14 PUSH2 0x100 EXP DUP2 SLOAD DUP2 PUSH1 0x1 PUSH1 0x1 PUSH1 0x50 SHL SUB MUL NOT AND SWAP1 DUP4 PUSH1 0x1 PUSH1 0x1 PUSH1 0x50 SHL SUB AND MUL OR SWAP1 SSTORE POP POP POP POP POP POP JUMP JUMPDEST DUP3 ISZERO DUP1 ISZERO PUSH2 0x1FC1 JUMPI POP DUP2 ISZERO JUMPDEST ISZERO PUSH2 0x1FD7 JUMPI DUP4 SLOAD PUSH5 0xFFFFFFFFFF NOT AND DUP5 SSTORE PUSH2 0x1FED JUMP JUMPDEST DUP4 SLOAD PUSH5 0xFFFFFFFFFF NOT AND PUSH5 0xFFFFFFFFFF DUP3 AND OR DUP5 SSTORE JUMPDEST POP POP POP POP JUMP JUMPDEST PUSH1 0x0 DUP3 PUSH2 0x2002 JUMPI POP PUSH1 0x0 PUSH2 0x907 JUMP JUMPDEST DUP3 DUP3 MUL DUP3 DUP5 DUP3 DUP2 PUSH2 0x200F JUMPI INVALID JUMPDEST DIV EQ PUSH2 0x201A JUMPI PUSH1 0x0 DUP1 REVERT JUMPDEST SWAP4 SWAP3 POP POP POP JUMP JUMPDEST PUSH1 0x8 DUP2 SWAP1 SHR PUSH1 0xFF SWAP1 SWAP2 AND SHL SWAP1 JUMP JUMPDEST PUSH2 0x2037 PUSH2 0x5021 JUMP JUMPDEST PUSH1 0x0 PUSH2 0x2042 DUP5 PUSH2 0x2903 JUMP JUMPDEST SWAP1 POP DUP3 DUP2 PUSH1 0x0 ADD MLOAD LT ISZERO PUSH2 0x2081 JUMPI PUSH1 0x0 DUP1 PUSH2 0x205C DUP7 PUSH2 0x29CB JUMP JUMPDEST SWAP1 POP PUSH2 0x206A DUP7 DUP5 DUP4 DUP9 PUSH2 0x2A48 JUMP JUMPDEST SWAP1 SWAP4 POP SWAP2 POP PUSH2 0x207A DUP7 DUP4 DUP6 PUSH2 0x2AEC JUMP JUMPDEST POP POP PUSH2 0x208E JUMP JUMPDEST DUP1 MLOAD DUP4 EQ PUSH2 0x208E JUMPI PUSH1 0x0 DUP1 REVERT JUMPDEST PUSH1 0x40 MLOAD DUP1 PUSH1 0x60 ADD PUSH1 0x40 MSTORE DUP1 PUSH2 0x20B7 PUSH2 0xBEB DUP5 PUSH1 0xA0 ADD MLOAD DUP6 PUSH1 0xC0 ADD MLOAD PUSH2 0x1FF3 SWAP1 SWAP2 SWAP1 PUSH4 0xFFFFFFFF AND JUMP JUMPDEST DUP2 MSTORE PUSH1 0x20 ADD PUSH2 0x20DA PUSH2 0xBEB DUP5 PUSH1 0xA0 ADD MLOAD DUP6 PUSH1 0xE0 ADD MLOAD PUSH2 0x1FF3 SWAP1 SWAP2 SWAP1 PUSH4 0xFFFFFFFF AND JUMP JUMPDEST DUP2 MSTORE PUSH1 0x20 ADD DUP3 PUSH1 0x60 ADD MLOAD DUP2 MSTORE POP SWAP2 POP POP SWAP3 SWAP2 POP POP JUMP JUMPDEST PUSH1 0x0 PUSH3 0xF4240 DUP3 PUSH1 0x26 DUP2 GT ISZERO PUSH2 0x2102 JUMPI INVALID JUMPDEST ADD SWAP3 SWAP2 POP POP JUMP JUMPDEST PUSH1 0x0 PUSH1 0x1 DUP3 SLT PUSH2 0x2118 JUMPI PUSH1 0x0 DUP1 REVERT JUMPDEST DUP2 PUSH2 0x2125 JUMPI POP PUSH1 0x0 PUSH2 0x907 JUMP JUMPDEST PUSH2 0x201A PUSH1 0x1 PUSH2 0x215A PUSH15 0xC097CE7BC90715B34B9F1000000000 PUSH2 0x2154 DUP8 PUSH1 0x20 ADD MLOAD DUP8 PUSH2 0x1697 SWAP1 SWAP2 SWAP1 PUSH4 0xFFFFFFFF AND JUMP JUMPDEST SWAP1 PUSH2 0x2D1D JUMP JUMPDEST SWAP1 PUSH2 0x2D4E JUMP JUMPDEST PUSH1 0x0 PUSH2 0x216A PUSH2 0x26F8 JUMP JUMPDEST DUP9 MLOAD PUSH1 0x1 PUSH1 0x1 PUSH1 0xA0 SHL SUB AND PUSH1 0x0 SWAP1 DUP2 MSTORE PUSH1 0x20 SWAP2 DUP3 MSTORE PUSH1 0x40 DUP1 DUP3 KECCAK256 DUP9 DUP4 MSTORE DUP4 MSTORE DUP1 DUP3 KECCAK256 PUSH2 0xFFFF DUP11 AND DUP4 MSTORE SWAP1 SWAP3 MSTORE SWAP1 DUP2 KECCAK256 DUP1 SLOAD SWAP1 SWAP3 POP PUSH2 0x21B4 SWAP1 DUP6 SWAP1 DUP9 SWAP1 PUSH1 0x1 PUSH1 0x1 PUSH1 0x50 SHL SUB AND PUSH2 0x1659 JUMP JUMPDEST SWAP1 POP PUSH2 0x21C0 DUP2 DUP7 PUSH2 0x1AD8 JUMP JUMPDEST SWAP1 POP PUSH2 0x21D2 DUP3 DUP6 DUP12 DUP11 DUP11 DUP7 PUSH1 0x0 PUSH2 0x2D64 JUMP JUMPDEST PUSH1 0x0 DUP1 DUP7 SGT DUP1 ISZERO PUSH2 0x21E7 JUMPI POP PUSH5 0xFFFFFFFFFF DUP8 EQ JUMPDEST ISZERO PUSH2 0x2209 JUMPI PUSH2 0x2202 PUSH2 0xB55 DUP7 DUP10 PUSH2 0x21FD DUP11 PUSH2 0xA30 JUMP JUMPDEST PUSH2 0x223A JUMP JUMPDEST SWAP1 POP PUSH2 0x2217 JUMP JUMPDEST PUSH2 0x2214 DUP6 DUP9 DUP9 PUSH2 0x223A JUMP JUMPDEST SWAP1 POP JUMPDEST DUP4 ISZERO PUSH2 0x222E JUMPI PUSH2 0x222E DUP10 DUP12 PUSH1 0x0 ADD MLOAD DUP11 DUP11 DUP6 PUSH2 0x2881 JUMP JUMPDEST POP POP POP POP POP POP POP POP POP POP JUMP JUMPDEST PUSH1 0x0 PUSH5 0xFFFFFFFFFF DUP4 EQ PUSH2 0x224E JUMPI DUP2 PUSH2 0x168F JUMP JUMPDEST PUSH2 0x168F DUP5 DUP4 PUSH2 0x2E3E JUMP JUMPDEST PUSH1 0x0 PUSH5 0xFFFFFFFFFF DUP3 GT ISZERO PUSH2 0xD57 JUMPI PUSH1 0x0 DUP1 REVERT JUMPDEST PUSH1 0x0 DUP1 PUSH2 0x227B DUP10 DUP9 DUP7 DUP7 PUSH2 0x2E9A JUMP JUMPDEST SWAP1 POP PUSH1 0x0 PUSH2 0x2288 DUP8 PUSH2 0x24ED JUMP JUMPDEST SWAP1 POP PUSH1 0x1 PUSH1 0x1 PUSH1 0x58 SHL SUB DUP2 LT PUSH2 0x229D JUMPI PUSH1 0x0 DUP1 REVERT JUMPDEST PUSH1 0x0 PUSH1 0x78 DUP8 PUSH4 0xFFFFFFFF AND SWAP1 SHL PUSH1 0x98 DUP4 SWAP1 SHL PUSH1 0xF0 DUP6 SWAP1 SHL PUSH1 0xF8 PUSH1 0x0 DUP13 SGT PUSH2 0x22C5 JUMPI PUSH1 0x1 PUSH2 0x22C8 JUMP JUMPDEST PUSH1 0x0 JUMPDEST PUSH1 0x5 DUP2 GT ISZERO PUSH2 0x22D3 JUMPI INVALID JUMPDEST PUSH1 0xFF AND SWAP1 SHL OR OR OR PUSH1 0x0 SHL SWAP1 POP PUSH20 0x0 PUSH4 0x715E9002 DUP13 DUP13 DUP5 PUSH1 0x40 MLOAD DUP5 PUSH4 0xFFFFFFFF AND PUSH1 0xE0 SHL DUP2 MSTORE PUSH1 0x4 ADD PUSH2 0x231B SWAP4 SWAP3 SWAP2 SWAP1 PUSH2 0x5D30 JUMP JUMPDEST PUSH1 0x20 PUSH1 0x40 MLOAD DUP1 DUP4 SUB DUP2 DUP7 DUP1 EXTCODESIZE ISZERO DUP1 ISZERO PUSH2 0x2333 JUMPI PUSH1 0x0 DUP1 REVERT JUMPDEST POP GAS DELEGATECALL ISZERO DUP1 ISZERO PUSH2 0x2347 JUMPI RETURNDATASIZE PUSH1 0x0 DUP1 RETURNDATACOPY RETURNDATASIZE PUSH1 0x0 REVERT JUMPDEST POP POP POP POP PUSH1 0x40 MLOAD RETURNDATASIZE PUSH1 0x1F NOT PUSH1 0x1F DUP3 ADD AND DUP3 ADD DUP1 PUSH1 0x40 MSTORE POP DUP2 ADD SWAP1 PUSH2 0x236B SWAP2 SWAP1 PUSH2 0x5858 JUMP JUMPDEST SWAP12 SWAP11 POP POP POP POP POP POP POP POP POP POP POP JUMP JUMPDEST DUP2 MLOAD PUSH1 0x0 SWAP1 DUP2 SWAP1 PUSH2 0x239E SWAP1 PUSH2 0x2154 DUP6 PUSH15 0xC097CE7BC90715B34B9F1000000000 PUSH2 0x1697 JUMP JUMPDEST SWAP1 POP PUSH1 0x0 DUP4 SLT PUSH2 0x23AE JUMPI DUP1 PUSH2 0x168F JUMP JUMPDEST PUSH2 0x168F DUP2 PUSH1 0x0 NOT PUSH2 0x2ED9 JUMP JUMPDEST PUSH1 0x0 PUSH2 0x23C4 PUSH2 0x2EEF JUMP JUMPDEST PUSH2 0xFFFF DUP7 AND PUSH1 0x0 SWAP1 DUP2 MSTORE PUSH1 0x20 DUP3 DUP2 MSTORE PUSH1 0x40 DUP1 DUP4 KECCAK256 DUP9 DUP5 MSTORE SWAP1 SWAP2 MSTORE SWAP1 KECCAK256 DUP1 SLOAD SWAP2 SWAP3 POP SWAP1 PUSH2 0x240D SWAP1 PUSH2 0x131D SWAP1 PUSH1 0x1 PUSH1 0x50 SHL SWAP1 DIV PUSH1 0x1 PUSH1 0x1 PUSH1 0x50 SHL SUB AND PUSH2 0x2407 DUP7 PUSH2 0x1EC1 JUMP JUMPDEST SWAP1 PUSH2 0x2EFC JUMP JUMPDEST DUP2 SLOAD PUSH10 0xFFFFFFFFFFFFFFFFFFFF PUSH1 0x50 SHL NOT AND PUSH1 0x1 PUSH1 0x50 SHL PUSH1 0x1 PUSH1 0x1 PUSH1 0x50 SHL SUB SWAP3 DUP4 AND MUL OR DUP1 DUP4 SSTORE PUSH2 0x244D SWAP2 PUSH2 0x131D SWAP2 PUSH1 0x1 PUSH1 0xA0 SHL SWAP1 DIV AND PUSH2 0x2407 DUP8 PUSH2 0x1EC1 JUMP JUMPDEST DUP2 SLOAD PUSH1 0x1 PUSH1 0x1 PUSH1 0x50 SHL SUB SWAP2 SWAP1 SWAP2 AND PUSH1 0x1 PUSH1 0xA0 SHL MUL PUSH10 0xFFFFFFFFFFFFFFFFFFFF PUSH1 0xA0 SHL NOT SWAP1 SWAP2 AND OR DUP2 SSTORE PUSH2 0x2484 DUP8 PUSH2 0x5E7 DUP9 DUP8 PUSH2 0x1AEE JUMP JUMPDEST PUSH2 0x2492 PUSH2 0x5E7 DUP8 DUP8 DUP7 PUSH2 0x2F0E JUMP JUMPDEST PUSH2 0x24A1 PUSH2 0x5E7 DUP9 DUP9 DUP9 DUP8 PUSH2 0x2F86 JUMP JUMPDEST POP POP POP POP POP POP POP JUMP JUMPDEST PUSH1 0x0 DUP1 PUSH2 0x907 PUSH1 0x16 PUSH2 0x20F0 JUMP JUMPDEST PUSH9 0x10000000000000000 PUSH1 0x1 PUSH1 0xE0 SHL SUB PUSH1 0x40 DUP6 SWAP1 SHL AND PUSH8 0xFFFF000000000000 PUSH1 0x30 DUP6 SWAP1 SHL AND OR PUSH1 0x8 DUP4 SWAP1 SHL OR DUP2 OR SWAP5 SWAP4 POP POP POP POP JUMP JUMPDEST PUSH1 0x0 DUP1 DUP3 SLT ISZERO PUSH2 0x2507 JUMPI PUSH2 0x2500 DUP3 PUSH2 0xA30 JUMP JUMPDEST SWAP1 POP PUSH2 0x937 JUMP JUMPDEST POP DUP1 PUSH2 0x937 JUMP JUMPDEST PUSH1 0x0 DUP1 PUSH2 0x907 PUSH1 0x21 PUSH2 0x20F0 JUMP JUMPDEST PUSH1 0x0 DUP4 PUSH2 0x252A JUMPI POP PUSH1 0x0 PUSH2 0xC10 JUMP JUMPDEST PUSH1 0x0 DUP5 SLT PUSH2 0x2537 JUMPI PUSH1 0x0 DUP1 REVERT JUMPDEST PUSH1 0x0 PUSH2 0x2546 DUP7 PUSH2 0xFFFF AND PUSH2 0xC1A JUMP JUMPDEST SWAP1 POP PUSH2 0x255B DUP2 PUSH2 0x2556 DUP7 DUP9 PUSH2 0x25C4 JUMP JUMPDEST PUSH2 0x2FF1 JUMP JUMPDEST SWAP2 POP PUSH1 0x0 PUSH2 0x2568 DUP4 PUSH2 0xA30 JUMP JUMPDEST SWAP1 POP PUSH2 0x2575 DUP8 DUP4 DUP4 PUSH2 0x3029 JUMP JUMPDEST PUSH1 0x3 DUP3 PUSH1 0x60 ADD MLOAD PUSH1 0x5 DUP2 GT ISZERO PUSH2 0x2587 JUMPI INVALID JUMPDEST EQ ISZERO PUSH2 0x259D JUMPI PUSH2 0x2598 DUP9 DUP3 DUP7 PUSH2 0x3115 JUMP JUMPDEST PUSH2 0x25AA JUMP JUMPDEST DUP2 MLOAD PUSH2 0x25AA SWAP1 DUP10 DUP4 PUSH2 0x31DD JUMP JUMPDEST PUSH2 0x25B7 DUP10 DUP9 DUP6 DUP6 DUP10 PUSH2 0x3254 JUMP JUMPDEST POP POP POP SWAP7 SWAP6 POP POP POP POP POP POP JUMP JUMPDEST PUSH1 0x0 DUP1 PUSH2 0x239E PUSH15 0xC097CE7BC90715B34B9F1000000000 PUSH2 0x2154 DUP7 PUSH1 0x0 ADD MLOAD DUP7 PUSH2 0x1697 SWAP1 SWAP2 SWAP1 PUSH4 0xFFFFFFFF AND JUMP JUMPDEST PUSH1 0x0 PUSH4 0x5F5E100 DUP4 PUSH1 0x40 ADD MLOAD SLT ISZERO PUSH2 0x261F JUMPI PUSH2 0x2618 PUSH1 0x1 PUSH2 0x2612 DUP6 DUP6 PUSH2 0x2FF1 JUMP JUMPDEST SWAP1 PUSH2 0x1AD8 JUMP JUMPDEST SWAP1 POP PUSH2 0x907 JUMP JUMPDEST PUSH2 0x201A DUP4 PUSH2 0x2556 DUP5 PUSH1 0x1 PUSH2 0x1AD8 JUMP JUMPDEST PUSH1 0x0 DUP1 PUSH1 0x0 PUSH2 0x263C DUP7 PUSH2 0x1EC1 JUMP JUMPDEST SWAP1 POP DUP1 PUSH2 0x2650 JUMPI PUSH1 0x0 DUP1 SWAP3 POP SWAP3 POP POP PUSH2 0x26E1 JUMP JUMPDEST PUSH1 0x0 PUSH2 0x265F DUP9 PUSH2 0xFFFF AND PUSH2 0xC1A JUMP JUMPDEST SWAP1 POP PUSH1 0x3 DUP2 PUSH1 0x60 ADD MLOAD PUSH1 0x5 DUP2 GT ISZERO PUSH2 0x2673 JUMPI INVALID JUMPDEST EQ ISZERO PUSH2 0x26BA JUMPI CALLVALUE DUP3 LT ISZERO PUSH2 0x2693 JUMPI PUSH2 0x268E DUP10 DUP4 CALLVALUE SUB DUP8 PUSH2 0x3115 JUMP JUMPDEST PUSH2 0x26B2 JUMP JUMPDEST CALLVALUE DUP3 EQ PUSH2 0x26B2 JUMPI PUSH1 0x40 MLOAD PUSH3 0x461BCD PUSH1 0xE5 SHL DUP2 MSTORE PUSH1 0x4 ADD PUSH2 0x312 SWAP1 PUSH2 0x5B38 JUMP JUMPDEST DUP7 SWAP4 POP PUSH2 0x26CF JUMP JUMPDEST PUSH2 0x26CC PUSH2 0xBEB DUP3 PUSH1 0x0 ADD MLOAD DUP12 DUP6 PUSH2 0x329B JUMP JUMPDEST SWAP4 POP JUMPDEST PUSH2 0x26DC DUP10 DUP10 DUP7 DUP5 DUP11 PUSH2 0x3254 JUMP JUMPDEST SWAP3 POP POP POP JUMPDEST SWAP6 POP SWAP6 SWAP4 POP POP POP POP JUMP JUMPDEST PUSH1 0x0 DUP1 PUSH2 0x907 PUSH1 0x7 PUSH2 0x20F0 JUMP JUMPDEST PUSH1 0x0 DUP1 PUSH2 0x907 PUSH1 0x18 PUSH2 0x20F0 JUMP JUMPDEST PUSH1 0x0 PUSH2 0x2713 DUP5 DUP5 DUP5 DUP9 PUSH2 0x2769 JUMP JUMPDEST DUP7 SLOAD SWAP1 SWAP2 POP PUSH1 0x1 PUSH1 0x1 PUSH1 0x50 SHL SUB AND PUSH1 0x0 PUSH2 0x272D DUP3 DUP5 PUSH2 0x2D4E JUMP JUMPDEST SWAP1 POP PUSH2 0x273B PUSH2 0x131D DUP3 PUSH2 0x1EC1 JUMP JUMPDEST DUP9 SLOAD PUSH1 0x1 PUSH1 0x1 PUSH1 0x50 SHL SUB NOT AND PUSH1 0x1 PUSH1 0x1 PUSH1 0x50 SHL SUB SWAP2 SWAP1 SWAP2 AND OR DUP9 SSTORE PUSH2 0x1442 DUP8 DUP8 PUSH2 0x2764 DUP8 PUSH2 0xA30 JUMP JUMPDEST PUSH2 0x3419 JUMP JUMPDEST PUSH1 0x0 DUP1 PUSH1 0x0 PUSH2 0x2778 DUP8 DUP8 PUSH2 0x34E0 JUMP JUMPDEST SWAP2 POP SWAP2 POP DUP1 PUSH2 0x2786 JUMPI PUSH1 0x0 DUP1 REVERT JUMPDEST PUSH2 0x2790 DUP3 DUP7 PUSH2 0x2E3E JUMP JUMPDEST SWAP3 POP PUSH1 0x1 PUSH1 0x1 PUSH1 0xA0 SHL SUB DUP5 AND ISZERO PUSH2 0x27AE JUMPI PUSH2 0x27AE DUP5 DUP9 DUP9 DUP9 DUP8 PUSH2 0x3573 JUMP JUMPDEST POP POP SWAP5 SWAP4 POP POP POP POP JUMP JUMPDEST DUP1 PUSH1 0x0 DUP1 DUP5 SGT ISZERO PUSH2 0x2876 JUMPI PUSH1 0x0 PUSH2 0x27DC PUSH2 0x27D5 PUSH2 0xB55 DUP12 DUP9 PUSH2 0x25C4 JUMP JUMPDEST DUP11 SWAP1 PUSH2 0x2E3E JUMP JUMPDEST SWAP1 POP PUSH1 0x0 DUP5 DUP3 SLT ISZERO PUSH2 0x2816 JUMPI POP PUSH1 0x0 SWAP3 POP DUP4 PUSH2 0x280F PUSH2 0x2808 PUSH2 0xB55 PUSH2 0x2801 DUP6 DUP6 PUSH2 0x2D4E JUMP JUMPDEST DUP14 SWAP1 PUSH2 0x2109 JUMP JUMPDEST DUP12 SWAP1 PUSH2 0x237A JUMP JUMPDEST SWAP3 POP PUSH2 0x2825 JUMP JUMPDEST POP DUP1 PUSH2 0x2822 DUP6 DUP3 PUSH2 0x2D4E JUMP JUMPDEST SWAP4 POP JUMPDEST PUSH2 0x2831 DUP11 DUP9 DUP11 DUP5 PUSH2 0x3646 JUMP JUMPDEST DUP9 SLOAD PUSH1 0x1 PUSH1 0x1 PUSH1 0x50 SHL SUB AND PUSH1 0x0 PUSH2 0x2848 DUP3 DUP5 PUSH2 0x1AD8 JUMP JUMPDEST SWAP1 POP PUSH2 0x2856 PUSH2 0x131D DUP3 PUSH2 0x1EC1 JUMP JUMPDEST DUP12 SLOAD PUSH1 0x1 PUSH1 0x1 PUSH1 0x50 SHL SUB NOT AND PUSH1 0x1 PUSH1 0x1 PUSH1 0x50 SHL SUB SWAP2 SWAP1 SWAP2 AND OR DUP12 SSTORE POP POP POP POP JUMPDEST SWAP7 POP SWAP7 SWAP5 POP POP POP POP POP JUMP JUMPDEST DUP1 PUSH2 0x288B JUMPI PUSH2 0xCDB JUMP JUMPDEST PUSH1 0x0 DUP1 DUP1 PUSH2 0x289C DUP8 DUP8 DUP8 PUSH1 0xA PUSH2 0x24B7 JUMP JUMPDEST SWAP1 POP PUSH1 0x0 DUP5 SGT ISZERO PUSH2 0x28B3 JUMPI DUP8 SWAP3 POP PUSH1 0x0 SWAP2 POP PUSH2 0x28BB JUMP JUMPDEST PUSH1 0x0 SWAP3 POP DUP8 SWAP2 POP JUMPDEST PUSH1 0x1 PUSH1 0x1 PUSH1 0xA0 SHL SUB DUP1 DUP4 AND SWAP1 DUP5 AND CALLER PUSH1 0x0 DUP1 MLOAD PUSH1 0x20 PUSH2 0x5E22 DUP4 CODECOPY DUP2 MLOAD SWAP2 MSTORE DUP5 PUSH2 0x28E3 DUP10 PUSH2 0x24ED JUMP JUMPDEST PUSH1 0x40 MLOAD PUSH2 0x28F1 SWAP3 SWAP2 SWAP1 PUSH2 0x5D5E JUMP JUMPDEST PUSH1 0x40 MLOAD DUP1 SWAP2 SUB SWAP1 LOG4 POP POP POP POP POP POP POP POP JUMP JUMPDEST PUSH2 0x290B PUSH2 0x5042 JUMP JUMPDEST PUSH1 0x0 PUSH2 0x2915 PUSH2 0x3673 JUMP JUMPDEST PUSH2 0xFFFF SWAP4 DUP5 AND PUSH1 0x0 SWAP1 DUP2 MSTORE PUSH1 0x20 SWAP2 DUP3 MSTORE PUSH1 0x40 SWAP1 DUP2 SWAP1 KECCAK256 DUP1 SLOAD PUSH5 0xFFFFFFFFFF DUP2 AND DUP7 MSTORE PUSH1 0x1 PUSH1 0x28 SHL DUP2 DIV PUSH1 0x1 PUSH1 0x1 PUSH1 0x58 SHL SUB SWAP1 DUP2 AND SWAP5 DUP8 ADD SWAP5 SWAP1 SWAP5 MSTORE PUSH1 0x1 DUP3 ADD SLOAD DUP5 AND SWAP3 DUP7 ADD SWAP3 SWAP1 SWAP3 MSTORE PUSH1 0x1 PUSH1 0xD8 SHL DUP3 DIV PUSH4 0xFFFFFFFF AND PUSH1 0x60 DUP7 ADD MSTORE PUSH1 0x1 PUSH1 0x80 SHL SWAP1 SWAP2 DIV SWAP1 SWAP2 AND PUSH1 0x80 DUP5 ADD MSTORE PUSH1 0x2 ADD SLOAD PUSH1 0x1 PUSH1 0x1 PUSH1 0x50 SHL SUB DUP1 DUP3 AND PUSH1 0xA0 DUP6 ADD MSTORE PUSH1 0x1 PUSH1 0x50 SHL DUP3 DIV DUP2 AND PUSH1 0xC0 DUP6 ADD MSTORE PUSH1 0x1 PUSH1 0xA0 SHL DUP3 DIV AND PUSH1 0xE0 DUP5 ADD MSTORE PUSH1 0x1 PUSH1 0xF0 SHL SWAP1 DIV PUSH1 0xFF AND PUSH2 0x12C MUL SWAP1 SWAP3 AND PUSH2 0x100 DUP3 ADD MSTORE SWAP2 SWAP1 POP JUMP JUMPDEST PUSH1 0x0 DUP1 PUSH2 0x29D7 DUP4 PUSH2 0x3680 JUMP JUMPDEST PUSH1 0x1 PUSH1 0x1 PUSH1 0xA0 SHL SUB AND PUSH4 0xEF81F216 PUSH1 0x40 MLOAD DUP2 PUSH4 0xFFFFFFFF AND PUSH1 0xE0 SHL DUP2 MSTORE PUSH1 0x4 ADD PUSH1 0x40 DUP1 MLOAD DUP1 DUP4 SUB DUP2 PUSH1 0x0 DUP8 DUP1 EXTCODESIZE ISZERO DUP1 ISZERO PUSH2 0x2A10 JUMPI PUSH1 0x0 DUP1 REVERT JUMPDEST POP GAS CALL ISZERO DUP1 ISZERO PUSH2 0x2A24 JUMPI RETURNDATASIZE PUSH1 0x0 DUP1 RETURNDATACOPY RETURNDATASIZE PUSH1 0x0 REVERT JUMPDEST POP POP POP POP PUSH1 0x40 MLOAD RETURNDATASIZE PUSH1 0x1F NOT PUSH1 0x1F DUP3 ADD AND DUP3 ADD DUP1 PUSH1 0x40 MSTORE POP DUP2 ADD SWAP1 PUSH2 0x168F SWAP2 SWAP1 PUSH2 0x5974 JUMP JUMPDEST PUSH2 0x2A50 PUSH2 0x5042 JUMP JUMPDEST PUSH1 0x0 DUP1 PUSH1 0x0 PUSH2 0x2A60 DUP9 DUP7 DUP10 PUSH2 0x36B0 JUMP JUMPDEST PUSH1 0xC0 DUP12 ADD SWAP3 SWAP1 SWAP3 MSTORE PUSH1 0xE0 DUP11 ADD SWAP3 SWAP1 SWAP3 MSTORE PUSH1 0x20 DUP10 ADD MLOAD SWAP2 SWAP4 POP SWAP2 POP PUSH2 0x2A84 SWAP1 DUP4 PUSH2 0x2EFC JUMP JUMPDEST PUSH1 0x20 DUP9 ADD MSTORE PUSH1 0x80 DUP8 ADD MLOAD PUSH1 0x0 SWAP1 ISZERO PUSH2 0x2AB2 JUMPI PUSH1 0x80 DUP9 ADD MLOAD PUSH2 0x2AAF SWAP1 PUSH2 0x2AA9 DUP10 DUP3 PUSH2 0x37C1 JUMP JUMPDEST SWAP1 PUSH2 0x37D6 JUMP JUMPDEST SWAP1 POP JUMPDEST PUSH2 0x2AD2 PUSH2 0x2AC7 PUSH8 0xDE0B6B3A7640000 DUP4 PUSH2 0x2EFC JUMP JUMPDEST PUSH1 0xA0 DUP11 ADD MLOAD SWAP1 PUSH2 0x37F3 JUMP JUMPDEST PUSH1 0xA0 DUP10 ADD MSTORE POP POP PUSH1 0x80 DUP7 ADD SWAP5 SWAP1 SWAP5 MSTORE POP POP DUP3 MSTORE SWAP1 SWAP3 SWAP1 SWAP2 POP JUMP JUMPDEST PUSH1 0x0 PUSH2 0x2AF6 PUSH2 0x3673 JUMP JUMPDEST PUSH1 0x0 DUP6 PUSH2 0xFFFF AND DUP2 MSTORE PUSH1 0x20 ADD SWAP1 DUP2 MSTORE PUSH1 0x20 ADD PUSH1 0x0 KECCAK256 SWAP1 POP PUSH2 0x2B1A DUP3 PUSH1 0x0 ADD MLOAD PUSH2 0x2258 JUMP JUMPDEST DUP2 SLOAD PUSH5 0xFFFFFFFFFF NOT AND PUSH5 0xFFFFFFFFFF SWAP2 SWAP1 SWAP2 AND OR DUP2 SSTORE PUSH1 0xA0 DUP3 ADD MLOAD PUSH2 0x2B3F SWAP1 PUSH2 0x1ED0 JUMP JUMPDEST PUSH1 0x2 DUP3 ADD DUP1 SLOAD PUSH1 0x1 PUSH1 0x1 PUSH1 0x50 SHL SUB NOT AND PUSH1 0x1 PUSH1 0x1 PUSH1 0x50 SHL SUB SWAP3 SWAP1 SWAP3 AND SWAP2 SWAP1 SWAP2 OR SWAP1 SSTORE PUSH1 0xC0 DUP3 ADD MLOAD PUSH2 0x2B6F SWAP1 PUSH2 0x1ED0 JUMP JUMPDEST DUP2 PUSH1 0x2 ADD PUSH1 0xA PUSH2 0x100 EXP DUP2 SLOAD DUP2 PUSH1 0x1 PUSH1 0x1 PUSH1 0x50 SHL SUB MUL NOT AND SWAP1 DUP4 PUSH1 0x1 PUSH1 0x1 PUSH1 0x50 SHL SUB AND MUL OR SWAP1 SSTORE POP PUSH2 0x2BA4 DUP3 PUSH1 0xE0 ADD MLOAD PUSH2 0x1ED0 JUMP JUMPDEST DUP2 PUSH1 0x2 ADD PUSH1 0x14 PUSH2 0x100 EXP DUP2 SLOAD DUP2 PUSH1 0x1 PUSH1 0x1 PUSH1 0x50 SHL SUB MUL NOT AND SWAP1 DUP4 PUSH1 0x1 PUSH1 0x1 PUSH1 0x50 SHL SUB AND MUL OR SWAP1 SSTORE POP PUSH2 0x2BD9 DUP3 PUSH1 0x20 ADD MLOAD PUSH2 0x3810 JUMP JUMPDEST DUP2 SLOAD PUSH1 0x1 PUSH1 0x1 PUSH1 0x58 SHL SUB SWAP2 SWAP1 SWAP2 AND PUSH1 0x1 PUSH1 0x28 SHL MUL PUSH16 0xFFFFFFFFFFFFFFFFFFFFFF0000000000 NOT SWAP1 SWAP2 AND OR DUP2 SSTORE PUSH1 0x40 DUP3 ADD MLOAD PUSH2 0x2C13 SWAP1 PUSH2 0x3810 JUMP JUMPDEST PUSH1 0x1 DUP3 ADD DUP1 SLOAD PUSH11 0xFFFFFFFFFFFFFFFFFFFFFF NOT AND PUSH1 0x1 PUSH1 0x1 PUSH1 0x58 SHL SUB SWAP3 SWAP1 SWAP3 AND SWAP2 SWAP1 SWAP2 OR SWAP1 SSTORE PUSH1 0x80 DUP3 ADD MLOAD PUSH2 0x2C47 SWAP1 PUSH2 0x3810 JUMP JUMPDEST DUP2 SLOAD PUSH1 0x1 PUSH1 0x1 PUSH1 0x58 SHL SUB SWAP2 SWAP1 SWAP2 AND PUSH1 0x1 PUSH1 0x80 SHL MUL PUSH11 0xFFFFFFFFFFFFFFFFFFFFFF PUSH1 0x80 SHL NOT SWAP1 SWAP2 AND OR DUP2 SSTORE PUSH1 0x60 DUP3 ADD MLOAD PUSH2 0x2C7F SWAP1 PUSH2 0x3826 JUMP JUMPDEST DUP2 SLOAD PUSH4 0xFFFFFFFF SWAP2 SWAP1 SWAP2 AND PUSH1 0x1 PUSH1 0xD8 SHL MUL PUSH4 0xFFFFFFFF PUSH1 0xD8 SHL NOT SWAP1 SWAP2 AND OR DUP2 SSTORE DUP3 ISZERO PUSH2 0x2CCB JUMPI PUSH1 0x0 PUSH2 0x2CB0 DUP5 PUSH2 0xD41 JUMP JUMPDEST SWAP1 POP PUSH2 0x2CBC DUP6 DUP3 PUSH2 0x3839 JUMP JUMPDEST PUSH2 0x2CC9 PUSH2 0xFEE DUP7 DUP4 PUSH2 0x3870 JUMP JUMPDEST POP JUMPDEST DUP4 PUSH2 0xFFFF AND PUSH32 0xEF25641E225E493886510CA1AD6584FA7B442B9FEA820A29D1DE3CE27D270FD2 DUP4 PUSH1 0xA0 ADD MLOAD DUP5 PUSH1 0xC0 ADD MLOAD DUP6 PUSH1 0xE0 ADD MLOAD PUSH1 0x40 MLOAD PUSH2 0x2D0F SWAP4 SWAP3 SWAP2 SWAP1 PUSH2 0x5D6C JUMP JUMPDEST PUSH1 0x40 MLOAD DUP1 SWAP2 SUB SWAP1 LOG2 POP POP POP POP JUMP JUMPDEST PUSH1 0x0 DUP2 PUSH1 0x0 NOT EQ DUP1 ISZERO PUSH2 0x2D33 JUMPI POP PUSH1 0x1 PUSH1 0xFF SHL DUP4 EQ JUMPDEST ISZERO PUSH2 0x2D3D JUMPI PUSH1 0x0 DUP1 REVERT JUMPDEST DUP2 DUP4 DUP2 PUSH2 0x2D46 JUMPI INVALID JUMPDEST SDIV SWAP4 SWAP3 POP POP POP JUMP JUMPDEST DUP1 DUP3 SUB DUP3 DUP2 SGT ISZERO PUSH1 0x0 DUP4 SLT ISZERO EQ PUSH2 0x907 JUMPI PUSH1 0x0 DUP1 REVERT JUMPDEST DUP7 SLOAD PUSH1 0x1 PUSH1 0x1 PUSH1 0x50 SHL SUB AND PUSH1 0x0 SWAP1 DUP2 SUB SWAP1 PUSH2 0x2D80 DUP9 DUP7 DUP7 PUSH2 0x223A JUMP JUMPDEST SWAP1 POP PUSH2 0x2D91 PUSH2 0x131D PUSH2 0x1318 DUP4 PUSH2 0xA30 JUMP JUMPDEST DUP10 SLOAD PUSH1 0x1 PUSH1 0x1 PUSH1 0x50 SHL SUB NOT AND PUSH1 0x1 PUSH1 0x1 PUSH1 0x50 SHL SUB SWAP2 SWAP1 SWAP2 AND OR DUP10 SSTORE PUSH1 0x0 PUSH2 0x2DB8 DUP4 DUP4 PUSH2 0x38F0 JUMP JUMPDEST SWAP1 POP PUSH1 0x0 PUSH5 0xFFFFFFFFFF DUP8 EQ ISZERO PUSH2 0x2DDF JUMPI DUP9 MLOAD PUSH2 0x2DD8 SWAP1 DUP12 SWAP1 DUP11 DUP6 PUSH2 0x3646 JUMP JUMPDEST POP DUP5 PUSH2 0x2E11 JUMP JUMPDEST DUP5 PUSH2 0x2E11 JUMPI DUP9 MLOAD PUSH2 0x2DF3 SWAP1 DUP10 DUP10 DUP8 DUP8 PUSH2 0x3977 JUMP JUMPDEST DUP9 MLOAD PUSH2 0x2E03 SWAP1 DUP10 PUSH2 0x2764 DUP6 PUSH2 0xA30 JUMP JUMPDEST PUSH2 0x2E0E DUP10 DUP12 DUP11 PUSH2 0x3A37 JUMP JUMPDEST SWAP1 POP JUMPDEST PUSH1 0x0 DUP3 SGT DUP1 ISZERO PUSH2 0x2E1F JUMPI POP DUP5 ISZERO JUMPDEST ISZERO PUSH2 0x2E31 JUMPI DUP9 MLOAD PUSH2 0x2E31 SWAP1 DUP10 DUP4 PUSH2 0x3ADD JUMP JUMPDEST POP POP POP POP POP POP POP POP POP POP POP JUMP JUMPDEST PUSH1 0x0 DUP2 PUSH1 0x0 SGT ISZERO DUP1 ISZERO PUSH2 0x2E51 JUMPI POP PUSH1 0xA DUP3 SLT JUMPDEST ISZERO PUSH2 0x2E5E JUMPI POP PUSH1 0x0 PUSH2 0x907 JUMP JUMPDEST PUSH1 0x0 DUP3 SLT PUSH2 0x2E6B JUMPI PUSH1 0x0 DUP1 REVERT JUMPDEST PUSH2 0x201A PUSH1 0x1 PUSH2 0x215A DUP6 PUSH1 0x20 ADD MLOAD PUSH2 0x2154 PUSH15 0xC097CE7BC90715B34B9F1000000000 DUP8 PUSH2 0x1697 SWAP1 SWAP2 SWAP1 PUSH4 0xFFFFFFFF AND JUMP JUMPDEST PUSH1 0x0 DUP1 PUSH1 0x0 PUSH2 0x2EAC DUP8 PUSH2 0xFFFF AND PUSH2 0x3B59 JUMP JUMPDEST SWAP1 POP PUSH2 0x2EBC DUP2 PUSH1 0xFF AND DUP8 DUP7 PUSH2 0x3B6F JUMP JUMPDEST SWAP1 SWAP4 POP SWAP2 POP DUP5 DUP4 GT ISZERO PUSH2 0x2ECE JUMPI PUSH1 0x0 DUP1 REVERT JUMPDEST DUP2 ISZERO PUSH2 0x27AE JUMPI PUSH1 0x0 DUP1 REVERT JUMPDEST PUSH1 0x0 DUP2 DUP4 SLT PUSH2 0x2EE8 JUMPI DUP2 PUSH2 0x201A JUMP JUMPDEST POP SWAP1 SWAP2 SWAP1 POP JUMP JUMPDEST PUSH1 0x0 DUP1 PUSH2 0x907 PUSH1 0x20 PUSH2 0x20F0 JUMP JUMPDEST PUSH1 0x0 DUP3 DUP3 ADD DUP4 DUP2 LT ISZERO PUSH2 0x201A JUMPI PUSH1 0x0 DUP1 REVERT JUMPDEST PUSH1 0x0 DUP1 PUSH2 0x2F1C DUP6 DUP6 DUP6 PUSH2 0x3BFE JUMP JUMPDEST SWAP2 POP SWAP2 POP PUSH1 0x0 DUP1 PUSH1 0x0 DUP6 SLT ISZERO PUSH2 0x2F34 JUMPI DUP8 SWAP2 POP PUSH2 0x2F37 JUMP JUMPDEST POP DUP7 JUMPDEST DUP1 PUSH1 0x1 PUSH1 0x1 PUSH1 0xA0 SHL SUB AND DUP3 PUSH1 0x1 PUSH1 0x1 PUSH1 0xA0 SHL SUB AND CALLER PUSH1 0x1 PUSH1 0x1 PUSH1 0xA0 SHL SUB AND PUSH32 0x4A39DC06D4C0DBC64B70AF90FD698A233A518AA5D07E595D983B8C0526C8F7FB DUP8 DUP8 PUSH1 0x40 MLOAD PUSH2 0x28F1 SWAP3 SWAP2 SWAP1 PUSH2 0x5AC8 JUMP JUMPDEST DUP1 PUSH2 0x2F90 JUMPI PUSH2 0xCDB JUMP JUMPDEST PUSH1 0x0 PUSH2 0x2F9C DUP5 DUP5 PUSH2 0x3CE3 JUMP JUMPDEST SWAP1 POP PUSH1 0x0 DUP3 SLT ISZERO PUSH2 0x2FAB JUMPI SWAP4 SWAP5 SWAP4 JUMPDEST PUSH1 0x1 PUSH1 0x1 PUSH1 0xA0 SHL SUB DUP1 DUP7 AND SWAP1 DUP8 AND CALLER PUSH1 0x0 DUP1 MLOAD PUSH1 0x20 PUSH2 0x5E22 DUP4 CODECOPY DUP2 MLOAD SWAP2 MSTORE DUP5 PUSH2 0x2FD3 DUP8 PUSH2 0x24ED JUMP JUMPDEST PUSH1 0x40 MLOAD PUSH2 0x2FE1 SWAP3 SWAP2 SWAP1 PUSH2 0x5D5E JUMP JUMPDEST PUSH1 0x40 MLOAD DUP1 SWAP2 SUB SWAP1 LOG4 POP POP POP POP POP POP JUMP JUMPDEST PUSH1 0x0 PUSH4 0x5F5E100 DUP4 PUSH1 0x40 ADD MLOAD EQ ISZERO PUSH2 0x300A JUMPI POP DUP1 PUSH2 0x907 JUMP JUMPDEST PUSH2 0x201A PUSH4 0x5F5E100 PUSH2 0x2154 DUP6 PUSH1 0x40 ADD MLOAD DUP6 PUSH2 0x1697 SWAP1 SWAP2 SWAP1 PUSH4 0xFFFFFFFF AND JUMP JUMPDEST PUSH1 0x0 PUSH2 0x3033 PUSH2 0x3D01 JUMP JUMPDEST DUP4 MLOAD PUSH1 0x1 PUSH1 0x1 PUSH1 0xA0 SHL SUB AND PUSH1 0x0 SWAP1 DUP2 MSTORE PUSH1 0x20 DUP3 SWAP1 MSTORE PUSH1 0x40 SWAP1 KECCAK256 SLOAD SWAP1 SWAP2 POP DUP1 DUP4 GT PUSH2 0x305E JUMPI POP POP PUSH2 0x7F9 JUMP JUMPDEST PUSH1 0x0 PUSH2 0x3069 DUP7 PUSH2 0x3680 JUMP JUMPDEST SWAP1 POP PUSH1 0x0 DUP2 PUSH1 0x1 PUSH1 0x1 PUSH1 0xA0 SHL SUB AND PUSH4 0xB5E4DA23 DUP5 DUP8 SUB PUSH1 0x40 MLOAD DUP3 PUSH4 0xFFFFFFFF AND PUSH1 0xE0 SHL DUP2 MSTORE PUSH1 0x4 ADD PUSH2 0x309B SWAP2 SWAP1 PUSH2 0x5D55 JUMP JUMPDEST PUSH1 0x0 PUSH1 0x40 MLOAD DUP1 DUP4 SUB DUP2 DUP7 DUP1 EXTCODESIZE ISZERO DUP1 ISZERO PUSH2 0x30B3 JUMPI PUSH1 0x0 DUP1 REVERT JUMPDEST POP GAS STATICCALL ISZERO DUP1 ISZERO PUSH2 0x30C7 JUMPI RETURNDATASIZE PUSH1 0x0 DUP1 RETURNDATACOPY RETURNDATASIZE PUSH1 0x0 REVERT JUMPDEST POP POP POP POP PUSH1 0x40 MLOAD RETURNDATASIZE PUSH1 0x0 DUP3 RETURNDATACOPY PUSH1 0x1F RETURNDATASIZE SWAP1 DUP2 ADD PUSH1 0x1F NOT AND DUP3 ADD PUSH1 0x40 MSTORE PUSH2 0x30EF SWAP2 SWAP1 DUP2 ADD SWAP1 PUSH2 0x5739 JUMP JUMPDEST SWAP1 POP PUSH1 0x0 PUSH2 0x30FD DUP8 DUP4 PUSH2 0x3D0E JUMP JUMPDEST SWAP1 POP PUSH2 0x3109 DUP5 DUP3 PUSH2 0x2EFC JUMP JUMPDEST DUP7 GT ISZERO PUSH2 0x1442 JUMPI PUSH1 0x0 DUP1 REVERT JUMPDEST DUP1 ISZERO PUSH2 0x31A7 JUMPI PUSH20 0x82AF49447D8A07E3BD95BD0D56F35241523FBAB1 PUSH1 0x1 PUSH1 0x1 PUSH1 0xA0 SHL SUB AND PUSH4 0xD0E30DB0 DUP4 PUSH1 0x40 MLOAD DUP3 PUSH4 0xFFFFFFFF AND PUSH1 0xE0 SHL DUP2 MSTORE PUSH1 0x4 ADD PUSH1 0x0 PUSH1 0x40 MLOAD DUP1 DUP4 SUB DUP2 DUP6 DUP9 DUP1 EXTCODESIZE ISZERO DUP1 ISZERO PUSH2 0x316A JUMPI PUSH1 0x0 DUP1 REVERT JUMPDEST POP GAS CALL ISZERO DUP1 ISZERO PUSH2 0x317E JUMPI RETURNDATASIZE PUSH1 0x0 DUP1 RETURNDATACOPY RETURNDATASIZE PUSH1 0x0 REVERT JUMPDEST POP POP POP POP POP PUSH2 0x31A2 PUSH20 0x82AF49447D8A07E3BD95BD0D56F35241523FBAB1 DUP5 DUP5 PUSH2 0x31DD JUMP JUMPDEST PUSH2 0x7F9 JUMP JUMPDEST PUSH1 0x40 MLOAD PUSH1 0x1 PUSH1 0x1 PUSH1 0xA0 SHL SUB DUP5 AND SWAP1 DUP4 ISZERO PUSH2 0x8FC MUL SWAP1 DUP5 SWAP1 PUSH1 0x0 DUP2 DUP2 DUP2 DUP6 DUP9 DUP9 CALL SWAP4 POP POP POP POP ISZERO DUP1 ISZERO PUSH2 0x1FED JUMPI RETURNDATASIZE PUSH1 0x0 DUP1 RETURNDATACOPY RETURNDATASIZE PUSH1 0x0 REVERT JUMPDEST DUP3 PUSH1 0x1 PUSH1 0x1 PUSH1 0xA0 SHL SUB AND PUSH4 0xA9059CBB DUP4 DUP4 PUSH1 0x40 MLOAD DUP4 PUSH4 0xFFFFFFFF AND PUSH1 0xE0 SHL DUP2 MSTORE PUSH1 0x4 ADD DUP1 DUP4 PUSH1 0x1 PUSH1 0x1 PUSH1 0xA0 SHL SUB AND DUP2 MSTORE PUSH1 0x20 ADD DUP3 DUP2 MSTORE PUSH1 0x20 ADD SWAP3 POP POP POP PUSH1 0x0 PUSH1 0x40 MLOAD DUP1 DUP4 SUB DUP2 PUSH1 0x0 DUP8 DUP1 EXTCODESIZE ISZERO DUP1 ISZERO PUSH2 0x3234 JUMPI PUSH1 0x0 DUP1 REVERT JUMPDEST POP GAS CALL ISZERO DUP1 ISZERO PUSH2 0x3248 JUMPI RETURNDATASIZE PUSH1 0x0 DUP1 RETURNDATACOPY RETURNDATASIZE PUSH1 0x0 REVERT JUMPDEST POP POP POP POP PUSH2 0x7F9 PUSH2 0x3F51 JUMP JUMPDEST PUSH1 0x0 DUP1 PUSH2 0x3261 DUP5 DUP7 PUSH2 0x3FBE JUMP JUMPDEST SWAP1 POP PUSH2 0x326D DUP4 DUP3 PUSH2 0x237A JUMP JUMPDEST SWAP2 POP PUSH2 0x327A DUP8 DUP8 DUP5 PUSH2 0x3870 JUMP JUMPDEST PUSH2 0x3285 DUP7 DUP4 DUP4 PUSH2 0x3FEE JUMP JUMPDEST DUP4 MLOAD PUSH2 0x3291 SWAP1 DUP7 PUSH2 0x40FA JUMP JUMPDEST POP SWAP6 SWAP5 POP POP POP POP POP JUMP JUMPDEST PUSH1 0x0 DUP1 DUP5 PUSH1 0x1 PUSH1 0x1 PUSH1 0xA0 SHL SUB AND PUSH4 0x70A08231 ADDRESS PUSH1 0x40 MLOAD DUP3 PUSH4 0xFFFFFFFF AND PUSH1 0xE0 SHL DUP2 MSTORE PUSH1 0x4 ADD DUP1 DUP3 PUSH1 0x1 PUSH1 0x1 PUSH1 0xA0 SHL SUB AND DUP2 MSTORE PUSH1 0x20 ADD SWAP2 POP POP PUSH1 0x20 PUSH1 0x40 MLOAD DUP1 DUP4 SUB DUP2 DUP7 DUP1 EXTCODESIZE ISZERO DUP1 ISZERO PUSH2 0x32EB JUMPI PUSH1 0x0 DUP1 REVERT JUMPDEST POP GAS STATICCALL ISZERO DUP1 ISZERO PUSH2 0x32FF JUMPI RETURNDATASIZE PUSH1 0x0 DUP1 RETURNDATACOPY RETURNDATASIZE PUSH1 0x0 REVERT JUMPDEST POP POP POP POP PUSH1 0x40 MLOAD RETURNDATASIZE PUSH1 0x20 DUP2 LT ISZERO PUSH2 0x3315 JUMPI PUSH1 0x0 DUP1 REVERT JUMPDEST POP MLOAD PUSH1 0x40 DUP1 MLOAD PUSH4 0x23B872DD PUSH1 0xE0 SHL DUP2 MSTORE PUSH1 0x1 PUSH1 0x1 PUSH1 0xA0 SHL SUB DUP8 DUP2 AND PUSH1 0x4 DUP4 ADD MSTORE ADDRESS PUSH1 0x24 DUP4 ADD MSTORE PUSH1 0x44 DUP3 ADD DUP8 SWAP1 MSTORE SWAP2 MLOAD SWAP3 SWAP4 POP SWAP1 DUP8 AND SWAP2 PUSH4 0x23B872DD SWAP2 PUSH1 0x64 DUP1 DUP3 ADD SWAP3 PUSH1 0x0 SWAP3 SWAP1 SWAP2 SWAP1 DUP3 SWAP1 SUB ADD DUP2 DUP4 DUP8 DUP1 EXTCODESIZE ISZERO DUP1 ISZERO PUSH2 0x3372 JUMPI PUSH1 0x0 DUP1 REVERT JUMPDEST POP GAS CALL ISZERO DUP1 ISZERO PUSH2 0x3386 JUMPI RETURNDATASIZE PUSH1 0x0 DUP1 RETURNDATACOPY RETURNDATASIZE PUSH1 0x0 REVERT JUMPDEST POP POP POP POP PUSH2 0x3392 PUSH2 0x3F51 JUMP JUMPDEST PUSH1 0x0 DUP6 PUSH1 0x1 PUSH1 0x1 PUSH1 0xA0 SHL SUB AND PUSH4 0x70A08231 ADDRESS PUSH1 0x40 MLOAD DUP3 PUSH4 0xFFFFFFFF AND PUSH1 0xE0 SHL DUP2 MSTORE PUSH1 0x4 ADD DUP1 DUP3 PUSH1 0x1 PUSH1 0x1 PUSH1 0xA0 SHL SUB AND DUP2 MSTORE PUSH1 0x20 ADD SWAP2 POP POP PUSH1 0x20 PUSH1 0x40 MLOAD DUP1 DUP4 SUB DUP2 DUP7 DUP1 EXTCODESIZE ISZERO DUP1 ISZERO PUSH2 0x33E1 JUMPI PUSH1 0x0 DUP1 REVERT JUMPDEST POP GAS STATICCALL ISZERO DUP1 ISZERO PUSH2 0x33F5 JUMPI RETURNDATASIZE PUSH1 0x0 DUP1 RETURNDATACOPY RETURNDATASIZE PUSH1 0x0 REVERT JUMPDEST POP POP POP POP PUSH1 0x40 MLOAD RETURNDATASIZE PUSH1 0x20 DUP2 LT ISZERO PUSH2 0x340B JUMPI PUSH1 0x0 DUP1 REVERT JUMPDEST POP MLOAD SWAP1 POP PUSH2 0xC10 DUP2 DUP4 PUSH2 0x37C1 JUMP JUMPDEST PUSH1 0x0 PUSH2 0x3423 PUSH2 0x1CD8 JUMP JUMPDEST PUSH1 0x1 PUSH1 0x1 PUSH1 0xA0 SHL SUB DUP6 AND PUSH1 0x0 SWAP1 DUP2 MSTORE PUSH1 0x20 SWAP2 DUP3 MSTORE PUSH1 0x40 DUP1 DUP3 KECCAK256 PUSH2 0xFFFF DUP8 AND DUP4 MSTORE SWAP1 SWAP3 MSTORE SWAP1 DUP2 KECCAK256 DUP1 SLOAD SWAP1 SWAP3 POP PUSH2 0x3468 SWAP1 PUSH1 0x1 PUSH1 0x50 SHL SWAP1 DIV PUSH1 0x1 PUSH1 0x1 PUSH1 0x50 SHL SUB AND DUP5 PUSH2 0x2D4E JUMP JUMPDEST SWAP1 POP PUSH2 0x3476 PUSH2 0x131D DUP3 PUSH2 0x1EC1 JUMP JUMPDEST DUP3 SLOAD PUSH1 0x1 PUSH1 0x1 PUSH1 0x50 SHL SUB SWAP2 SWAP1 SWAP2 AND PUSH1 0x1 PUSH1 0x50 SHL MUL PUSH10 0xFFFFFFFFFFFFFFFFFFFF PUSH1 0x50 SHL NOT SWAP1 SWAP2 AND OR DUP3 SSTORE PUSH1 0x40 MLOAD PUSH2 0xFFFF DUP6 AND SWAP1 PUSH1 0x1 PUSH1 0x1 PUSH1 0xA0 SHL SUB DUP8 AND SWAP1 PUSH32 0x20478EF460E49D010960D4F3FFF35D8DAE385443ABFAC09035D6A2CCBCD834C4 SWAP1 PUSH2 0x485 SWAP1 DUP6 SWAP1 PUSH2 0x5D55 JUMP JUMPDEST PUSH2 0x34E8 PUSH2 0x5021 JUMP JUMPDEST PUSH1 0x0 DUP1 PUSH2 0x34F3 PUSH2 0x414F JUMP JUMPDEST PUSH2 0xFFFF DUP7 AND PUSH1 0x0 SWAP1 DUP2 MSTORE PUSH1 0x20 DUP3 DUP2 MSTORE PUSH1 0x40 DUP1 DUP4 KECCAK256 DUP9 DUP5 MSTORE SWAP1 SWAP2 MSTORE SWAP1 KECCAK256 DUP1 SLOAD PUSH1 0x1 PUSH1 0xF0 SHL SWAP1 DIV PUSH1 0xFF AND SWAP4 POP SWAP1 SWAP2 POP DUP3 ISZERO PUSH2 0x356A JUMPI DUP1 SLOAD PUSH1 0x1 PUSH1 0x1 PUSH1 0x50 SHL SUB PUSH1 0x1 PUSH1 0xA0 SHL DUP3 DIV DUP2 AND SWAP2 PUSH2 0x3545 SWAP2 AND DUP3 PUSH2 0x1FF3 JUMP JUMPDEST DUP6 MSTORE DUP2 SLOAD PUSH2 0x3563 SWAP1 PUSH1 0x1 PUSH1 0x50 SHL SWAP1 DIV PUSH1 0x1 PUSH1 0x1 PUSH1 0x50 SHL SUB AND DUP3 PUSH2 0x1FF3 JUMP JUMPDEST PUSH1 0x20 DUP7 ADD MSTORE POP JUMPDEST POP POP SWAP3 POP SWAP3 SWAP1 POP JUMP JUMPDEST PUSH1 0x0 PUSH2 0x357F DUP6 DUP6 PUSH2 0x3CE3 JUMP JUMPDEST SWAP1 POP PUSH1 0x0 DUP4 SLT ISZERO PUSH2 0x3591 JUMPI PUSH1 0x1 PUSH1 0x40 SHL OR JUMPDEST PUSH1 0x0 PUSH1 0x1 PUSH1 0x1 PUSH1 0xA0 SHL SUB DUP8 AND CALLER PUSH1 0x0 DUP1 MLOAD PUSH1 0x20 PUSH2 0x5E22 DUP4 CODECOPY DUP2 MLOAD SWAP2 MSTORE DUP5 PUSH2 0x35B7 DUP9 PUSH2 0x24ED JUMP JUMPDEST PUSH1 0x40 MLOAD PUSH2 0x35C5 SWAP3 SWAP2 SWAP1 PUSH2 0x5D5E JUMP JUMPDEST PUSH1 0x40 MLOAD DUP1 SWAP2 SUB SWAP1 LOG4 PUSH1 0x0 PUSH2 0x35DC PUSH1 0x0 DUP5 SLT DUP8 PUSH2 0x415C JUMP JUMPDEST SWAP1 POP DUP1 PUSH1 0x1 PUSH1 0x1 PUSH1 0xA0 SHL SUB AND PUSH4 0x23DE6651 PUSH2 0x5E7 DUP10 PUSH2 0x35FA DUP8 PUSH2 0x24ED JUMP JUMPDEST PUSH1 0x40 MLOAD DUP5 PUSH4 0xFFFFFFFF AND PUSH1 0xE0 SHL DUP2 MSTORE PUSH1 0x4 ADD PUSH2 0x3618 SWAP4 SWAP3 SWAP2 SWAP1 PUSH2 0x5A5A JUMP JUMPDEST PUSH1 0x0 PUSH1 0x40 MLOAD DUP1 DUP4 SUB DUP2 PUSH1 0x0 DUP8 DUP1 EXTCODESIZE ISZERO DUP1 ISZERO PUSH2 0x3632 JUMPI PUSH1 0x0 DUP1 REVERT JUMPDEST POP GAS CALL ISZERO DUP1 ISZERO PUSH2 0x2E31 JUMPI RETURNDATASIZE PUSH1 0x0 DUP1 RETURNDATACOPY RETURNDATASIZE PUSH1 0x0 REVERT JUMPDEST DUP1 ISZERO PUSH2 0x1FED JUMPI DUP4 MLOAD PUSH1 0x20 DUP6 ADD MLOAD PUSH1 0x0 SWAP2 PUSH2 0x3665 SWAP2 PUSH2 0x2154 SWAP1 DUP6 SWAP1 PUSH2 0x1697 JUMP JUMPDEST SWAP1 POP PUSH2 0xCDB DUP5 DUP5 DUP5 DUP5 PUSH2 0x41BC JUMP JUMPDEST PUSH1 0x0 DUP1 PUSH2 0x907 PUSH1 0x1D PUSH2 0x20F0 JUMP JUMPDEST PUSH1 0x0 DUP1 PUSH2 0x368B PUSH2 0x42F9 JUMP JUMPDEST PUSH2 0xFFFF SWAP4 SWAP1 SWAP4 AND PUSH1 0x0 SWAP1 DUP2 MSTORE PUSH1 0x20 SWAP4 SWAP1 SWAP4 MSTORE POP POP PUSH1 0x40 SWAP1 KECCAK256 SLOAD PUSH1 0x1 PUSH1 0x1 PUSH1 0xA0 SHL SUB AND SWAP1 JUMP JUMPDEST PUSH1 0x0 DUP1 PUSH1 0x0 DUP1 PUSH1 0x0 DUP1 PUSH2 0x36C3 DUP10 DUP9 PUSH2 0x4306 JUMP JUMPDEST DUP10 MLOAD SWAP1 SWAP6 POP SWAP2 SWAP4 POP SWAP2 POP PUSH1 0x0 SWAP1 PUSH2 0x36EA SWAP1 PUSH2 0x36DF SWAP1 DUP12 SWAP1 PUSH2 0x37C1 JUMP JUMPDEST PUSH4 0x3B9ACA00 SWAP1 PUSH2 0x1FF3 JUMP JUMPDEST SWAP1 POP PUSH2 0x3724 PUSH2 0x3719 PUSH4 0x1DA9C00 PUSH2 0x3701 DUP6 DUP6 PUSH2 0x1FF3 JUMP JUMPDEST DUP2 PUSH2 0x3708 JUMPI INVALID JUMPDEST PUSH8 0xDE0B6B3A7640000 SWAP2 SWAP1 DIV PUSH2 0x2EFC JUMP JUMPDEST PUSH1 0xE0 DUP11 ADD MLOAD SWAP1 PUSH2 0x37F3 JUMP JUMPDEST SWAP7 POP PUSH2 0x3746 PUSH2 0x373B PUSH4 0x1DA9C00 PUSH2 0x3701 DUP8 DUP6 PUSH2 0x1FF3 JUMP JUMPDEST PUSH1 0xC0 DUP11 ADD MLOAD SWAP1 PUSH2 0x37F3 JUMP JUMPDEST SWAP6 POP DUP2 DUP4 EQ ISZERO PUSH2 0x375D JUMPI POP PUSH1 0x0 SWAP4 POP PUSH2 0x37B8 SWAP2 POP POP JUMP JUMPDEST PUSH1 0x0 PUSH2 0x377F PUSH2 0x3774 PUSH4 0x1DA9C00 PUSH2 0x3701 DUP8 DUP7 PUSH2 0x1FF3 JUMP JUMPDEST PUSH1 0xE0 DUP12 ADD MLOAD SWAP1 PUSH2 0x37F3 JUMP JUMPDEST SWAP1 POP PUSH1 0x0 PUSH2 0x378D DUP10 DUP4 PUSH2 0x37C1 JUMP JUMPDEST SWAP1 POP PUSH2 0x37B0 DUP9 PUSH2 0x37AA DUP4 DUP14 PUSH1 0x40 ADD MLOAD PUSH2 0x1FF3 SWAP1 SWAP2 SWAP1 PUSH4 0xFFFFFFFF AND JUMP JUMPDEST SWAP1 PUSH2 0x43A1 JUMP JUMPDEST SWAP7 POP POP POP POP POP POP JUMPDEST SWAP4 POP SWAP4 POP SWAP4 POP SWAP4 JUMP JUMPDEST PUSH1 0x0 DUP3 DUP3 GT ISZERO PUSH2 0x37D0 JUMPI PUSH1 0x0 DUP1 REVERT JUMPDEST POP SWAP1 SUB SWAP1 JUMP JUMPDEST PUSH1 0x0 PUSH2 0x201A PUSH2 0x37ED DUP5 PUSH8 0xDE0B6B3A7640000 PUSH2 0x1FF3 JUMP JUMPDEST DUP4 PUSH2 0x43A1 JUMP JUMPDEST PUSH1 0x0 PUSH2 0x201A PUSH2 0x3802 DUP5 DUP5 PUSH2 0x1FF3 JUMP JUMPDEST PUSH8 0xDE0B6B3A7640000 PUSH2 0x43A1 JUMP JUMPDEST PUSH1 0x0 PUSH1 0x1 PUSH1 0x1 PUSH1 0x58 SHL SUB DUP3 GT ISZERO PUSH2 0xD57 JUMPI PUSH1 0x0 DUP1 REVERT JUMPDEST PUSH1 0x0 PUSH4 0xFFFFFFFF DUP3 GT ISZERO PUSH2 0xD57 JUMPI PUSH1 0x0 DUP1 REVERT JUMPDEST PUSH1 0x0 DUP2 SLT ISZERO PUSH2 0x3847 JUMPI PUSH1 0x0 DUP1 REVERT JUMPDEST PUSH1 0x0 PUSH2 0x3855 PUSH2 0xFEE DUP5 PUSH2 0x43C0 JUMP JUMPDEST SWAP1 POP PUSH2 0x3861 DUP2 DUP4 PUSH2 0x1AD8 JUMP JUMPDEST SWAP1 POP PUSH2 0x7F9 PUSH2 0xFEE DUP5 DUP4 PUSH2 0x4419 JUMP JUMPDEST PUSH1 0x0 PUSH2 0x387A PUSH2 0x250E JUMP JUMPDEST PUSH2 0xFFFF DUP5 AND PUSH1 0x0 SWAP1 DUP2 MSTORE PUSH1 0x20 SWAP2 SWAP1 SWAP2 MSTORE PUSH1 0x40 SWAP1 DUP2 SWAP1 KECCAK256 SLOAD SWAP1 MLOAD PUSH4 0xAD1C095D PUSH1 0xE0 SHL DUP2 MSTORE PUSH1 0x1 PUSH1 0x1 PUSH1 0xA0 SHL SUB SWAP1 SWAP2 AND SWAP2 POP DUP2 SWAP1 PUSH4 0xAD1C095D SWAP1 PUSH2 0x38C2 SWAP1 DUP8 SWAP1 DUP7 SWAP1 PUSH1 0x4 ADD PUSH2 0x5A7E JUMP JUMPDEST PUSH1 0x0 PUSH1 0x40 MLOAD DUP1 DUP4 SUB DUP2 PUSH1 0x0 DUP8 DUP1 EXTCODESIZE ISZERO DUP1 ISZERO PUSH2 0x38DC JUMPI PUSH1 0x0 DUP1 REVERT JUMPDEST POP GAS CALL ISZERO DUP1 ISZERO PUSH2 0x1442 JUMPI RETURNDATASIZE PUSH1 0x0 DUP1 RETURNDATACOPY RETURNDATASIZE PUSH1 0x0 REVERT JUMPDEST PUSH1 0x0 DUP2 DUP4 EQ DUP1 PUSH2 0x390D JUMPI POP PUSH1 0x0 DUP4 SLT ISZERO DUP1 ISZERO PUSH2 0x390D JUMPI POP PUSH1 0x0 DUP3 SLT ISZERO JUMPDEST ISZERO PUSH2 0x391A JUMPI POP PUSH1 0x0 PUSH2 0x907 JUMP JUMPDEST PUSH1 0x0 DUP4 SGT ISZERO DUP1 ISZERO PUSH2 0x392B JUMPI POP DUP2 PUSH1 0x0 SLT JUMPDEST ISZERO PUSH2 0x3937 JUMPI POP DUP2 PUSH2 0x907 JUMP JUMPDEST PUSH1 0x0 DUP3 SGT ISZERO DUP1 ISZERO PUSH2 0x3948 JUMPI POP DUP3 PUSH1 0x0 SLT JUMPDEST ISZERO PUSH2 0x3956 JUMPI PUSH2 0x2618 DUP3 PUSH2 0xA30 JUMP JUMPDEST PUSH1 0x0 DUP4 SGT ISZERO DUP1 ISZERO PUSH2 0x3968 JUMPI POP PUSH1 0x0 DUP3 SGT ISZERO JUMPDEST ISZERO PUSH2 0xA7 JUMPI PUSH2 0x2618 DUP4 DUP4 PUSH2 0x2D4E JUMP JUMPDEST PUSH1 0x0 PUSH2 0x3983 DUP4 DUP4 PUSH2 0x38F0 JUMP JUMPDEST SWAP1 POP DUP1 PUSH2 0x3990 JUMPI POP PUSH2 0xCDB JUMP JUMPDEST PUSH1 0x0 PUSH2 0x399A PUSH2 0x2EEF JUMP JUMPDEST PUSH2 0xFFFF DUP8 AND PUSH1 0x0 SWAP1 DUP2 MSTORE PUSH1 0x20 DUP3 DUP2 MSTORE PUSH1 0x40 DUP1 DUP4 KECCAK256 DUP10 DUP5 MSTORE SWAP1 SWAP2 MSTORE DUP2 KECCAK256 SLOAD SWAP2 SWAP3 POP PUSH1 0x1 PUSH1 0x1 PUSH1 0x50 SHL SUB SWAP1 SWAP2 AND DUP2 SUB SWAP1 PUSH2 0x39D2 DUP3 DUP6 PUSH2 0x2D4E JUMP JUMPDEST SWAP1 POP PUSH1 0x0 DUP2 SGT ISZERO PUSH2 0x39E2 JUMPI PUSH1 0x0 DUP1 REVERT JUMPDEST PUSH2 0x39F1 PUSH2 0x131D PUSH2 0x1318 DUP4 PUSH2 0xA30 JUMP JUMPDEST PUSH2 0xFFFF DUP10 AND PUSH1 0x0 SWAP1 DUP2 MSTORE PUSH1 0x20 DUP6 DUP2 MSTORE PUSH1 0x40 DUP1 DUP4 KECCAK256 DUP12 DUP5 MSTORE SWAP1 SWAP2 MSTORE SWAP1 KECCAK256 DUP1 SLOAD PUSH1 0x1 PUSH1 0x1 PUSH1 0x50 SHL SUB NOT AND PUSH1 0x1 PUSH1 0x1 PUSH1 0x50 SHL SUB SWAP3 SWAP1 SWAP3 AND SWAP2 SWAP1 SWAP2 OR SWAP1 SSTORE PUSH2 0x1B89 DUP10 DUP10 DUP10 DUP8 PUSH2 0x2F0E JUMP JUMPDEST PUSH1 0x0 DUP1 DUP5 PUSH1 0x40 ADD MLOAD PUSH2 0xFFFF AND DUP4 PUSH2 0xFFFF AND EQ ISZERO PUSH2 0x3A83 JUMPI PUSH2 0x3A56 PUSH2 0x448D JUMP JUMPDEST DUP6 MLOAD PUSH1 0x1 PUSH1 0x1 PUSH1 0xA0 SHL SUB AND PUSH1 0x0 SWAP1 DUP2 MSTORE PUSH1 0x20 SWAP2 DUP3 MSTORE PUSH1 0x40 DUP1 DUP3 KECCAK256 PUSH5 0xFFFFFFFFFF DUP4 MSTORE SWAP1 SWAP3 MSTORE KECCAK256 SWAP1 POP PUSH2 0x3AC0 JUMP JUMPDEST PUSH2 0x3A8B PUSH2 0x26F8 JUMP JUMPDEST DUP6 MLOAD PUSH1 0x1 PUSH1 0x1 PUSH1 0xA0 SHL SUB AND PUSH1 0x0 SWAP1 DUP2 MSTORE PUSH1 0x20 SWAP2 DUP3 MSTORE PUSH1 0x40 DUP1 DUP3 KECCAK256 PUSH5 0xFFFFFFFFFF DUP4 MSTORE DUP4 MSTORE DUP1 DUP3 KECCAK256 PUSH2 0xFFFF DUP8 AND DUP4 MSTORE SWAP1 SWAP3 MSTORE KECCAK256 SWAP1 POP JUMPDEST DUP1 SLOAD PUSH2 0x1BBF SWAP1 DUP6 SWAP1 PUSH5 0xFFFFFFFFFF SWAP1 PUSH1 0x1 PUSH1 0x1 PUSH1 0x50 SHL SUB AND PUSH2 0x1659 JUMP JUMPDEST PUSH1 0x0 PUSH2 0x3AE7 PUSH2 0x1CD8 JUMP JUMPDEST PUSH1 0x1 PUSH1 0x1 PUSH1 0xA0 SHL SUB DUP6 AND PUSH1 0x0 SWAP1 DUP2 MSTORE PUSH1 0x20 SWAP2 DUP3 MSTORE PUSH1 0x40 DUP1 DUP3 KECCAK256 PUSH2 0xFFFF DUP8 AND DUP4 MSTORE SWAP1 SWAP3 MSTORE SWAP1 DUP2 KECCAK256 DUP1 SLOAD SWAP1 SWAP3 POP PUSH2 0x3B2C SWAP1 PUSH1 0x1 PUSH1 0x50 SHL SWAP1 DIV PUSH1 0x1 PUSH1 0x1 PUSH1 0x50 SHL SUB AND DUP5 PUSH2 0x2D4E JUMP JUMPDEST DUP3 SLOAD SWAP1 SWAP2 POP PUSH1 0x1 PUSH1 0x1 PUSH1 0x50 SHL SUB AND DUP2 SGT ISZERO PUSH2 0xCDB JUMPI PUSH1 0x40 MLOAD PUSH3 0x461BCD PUSH1 0xE5 SHL DUP2 MSTORE PUSH1 0x4 ADD PUSH2 0x312 SWAP1 PUSH2 0x5BBB JUMP JUMPDEST PUSH1 0x0 DUP1 PUSH2 0x3B65 DUP4 PUSH2 0x449A JUMP JUMPDEST PUSH1 0xFF AND SWAP4 SWAP3 POP POP POP JUMP JUMPDEST PUSH1 0x0 DUP1 PUSH1 0x0 DUP6 GT PUSH2 0x3B7F JUMPI PUSH1 0x0 DUP1 REVERT JUMPDEST PUSH1 0x7 DUP6 GT ISZERO PUSH2 0x3B8D JUMPI PUSH1 0x0 DUP1 REVERT JUMPDEST PUSH1 0x0 PUSH2 0x3B98 DUP5 PUSH2 0x44B7 JUMP JUMPDEST SWAP1 POP PUSH1 0x1 JUMPDEST DUP7 DUP2 GT PUSH2 0x3BF0 JUMPI PUSH1 0x0 PUSH2 0x3BB9 PUSH2 0x3BB2 DUP4 PUSH2 0x44D5 JUMP JUMPDEST DUP5 SWAP1 PUSH2 0x2EFC JUMP JUMPDEST SWAP1 POP DUP7 DUP2 EQ ISZERO PUSH2 0x3BD1 JUMPI POP SWAP3 POP PUSH1 0x0 SWAP2 POP PUSH2 0x3BF6 SWAP1 POP JUMP JUMPDEST DUP7 DUP2 GT ISZERO PUSH2 0x3BE7 JUMPI POP SWAP3 POP PUSH1 0x1 SWAP2 POP PUSH2 0x3BF6 SWAP1 POP JUMP JUMPDEST POP PUSH1 0x1 ADD PUSH2 0x3B9D JUMP JUMPDEST POP PUSH1 0x0 DUP1 REVERT JUMPDEST SWAP4 POP SWAP4 SWAP2 POP POP JUMP JUMPDEST PUSH1 0x40 DUP1 MLOAD PUSH1 0x2 DUP1 DUP3 MSTORE PUSH1 0x60 DUP3 DUP2 ADD SWAP1 SWAP4 MSTORE DUP3 SWAP2 PUSH1 0x0 SWAP2 DUP2 PUSH1 0x20 ADD PUSH1 0x20 DUP3 MUL DUP1 CALLDATASIZE DUP4 CALLDATACOPY ADD SWAP1 POP POP SWAP1 POP PUSH1 0x0 PUSH2 0x3C32 DUP8 DUP8 PUSH2 0x3CE3 JUMP JUMPDEST SWAP1 POP DUP1 DUP3 PUSH1 0x0 DUP2 MLOAD DUP2 LT PUSH2 0x3C42 JUMPI INVALID JUMPDEST PUSH1 0x20 MUL PUSH1 0x20 ADD ADD DUP2 DUP2 MSTORE POP POP PUSH1 0x1 PUSH1 0x40 SHL DUP2 OR DUP3 PUSH1 0x1 DUP2 MLOAD DUP2 LT PUSH2 0x3C62 JUMPI INVALID JUMPDEST PUSH1 0x20 SWAP1 DUP2 MUL SWAP2 SWAP1 SWAP2 ADD ADD MSTORE PUSH1 0x40 DUP1 MLOAD PUSH1 0x2 DUP1 DUP3 MSTORE PUSH1 0x60 DUP3 ADD SWAP1 SWAP3 MSTORE PUSH1 0x0 SWAP2 DUP2 PUSH1 0x20 ADD PUSH1 0x20 DUP3 MUL DUP1 CALLDATASIZE DUP4 CALLDATACOPY ADD SWAP1 POP POP SWAP1 POP PUSH2 0x3C9B DUP7 PUSH2 0x24ED JUMP JUMPDEST DUP2 PUSH1 0x0 DUP2 MLOAD DUP2 LT PUSH2 0x3CA8 JUMPI INVALID JUMPDEST PUSH1 0x20 MUL PUSH1 0x20 ADD ADD DUP2 DUP2 MSTORE POP POP PUSH2 0x3CBD DUP7 PUSH2 0x24ED JUMP JUMPDEST DUP2 PUSH1 0x1 DUP2 MLOAD DUP2 LT PUSH2 0x3CCA JUMPI INVALID JUMPDEST PUSH1 0x20 SWAP1 DUP2 MUL SWAP2 SWAP1 SWAP2 ADD ADD MSTORE SWAP2 SWAP8 SWAP2 SWAP7 POP SWAP1 SWAP5 POP POP POP POP POP JUMP JUMPDEST PUSH8 0xFFFF000000000000 PUSH1 0x30 DUP4 SWAP1 SHL AND PUSH1 0x8 DUP3 SWAP1 SHL OR PUSH1 0x1 OR SWAP3 SWAP2 POP POP JUMP JUMPDEST PUSH1 0x0 DUP1 PUSH2 0x907 PUSH1 0x26 PUSH2 0x20F0 JUMP JUMPDEST PUSH1 0x0 DUP1 JUMPDEST DUP3 MLOAD DUP2 LT ISZERO PUSH2 0x3F4A JUMPI PUSH1 0x0 DUP4 DUP3 DUP2 MLOAD DUP2 LT PUSH2 0x3D29 JUMPI INVALID JUMPDEST PUSH1 0x20 MUL PUSH1 0x20 ADD ADD MLOAD SWAP1 POP PUSH1 0x0 DUP2 PUSH1 0x60 ADD MLOAD PUSH1 0x1 PUSH1 0x1 PUSH1 0xA0 SHL SUB AND PUSH4 0x70A08231 ADDRESS PUSH1 0x40 MLOAD DUP3 PUSH4 0xFFFFFFFF AND PUSH1 0xE0 SHL DUP2 MSTORE PUSH1 0x4 ADD PUSH2 0x3D65 SWAP2 SWAP1 PUSH2 0x5A46 JUMP JUMPDEST PUSH1 0x20 PUSH1 0x40 MLOAD DUP1 DUP4 SUB DUP2 DUP7 DUP1 EXTCODESIZE ISZERO DUP1 ISZERO PUSH2 0x3D7D JUMPI PUSH1 0x0 DUP1 REVERT JUMPDEST POP GAS STATICCALL ISZERO DUP1 ISZERO PUSH2 0x3D91 JUMPI RETURNDATASIZE PUSH1 0x0 DUP1 RETURNDATACOPY RETURNDATASIZE PUSH1 0x0 REVERT JUMPDEST POP POP POP POP PUSH1 0x40 MLOAD RETURNDATASIZE PUSH1 0x1F NOT PUSH1 0x1F DUP3 ADD AND DUP3 ADD DUP1 PUSH1 0x40 MSTORE POP DUP2 ADD SWAP1 PUSH2 0x3DB5 SWAP2 SWAP1 PUSH2 0x5858 JUMP JUMPDEST SWAP1 POP PUSH1 0x0 PUSH2 0x3DC3 DUP8 ADDRESS PUSH2 0x4579 JUMP JUMPDEST SWAP1 POP PUSH1 0x0 JUMPDEST DUP4 MLOAD MLOAD DUP2 LT ISZERO PUSH2 0x3E14 JUMPI PUSH2 0x3E0C DUP5 PUSH1 0x0 ADD MLOAD DUP3 DUP2 MLOAD DUP2 LT PUSH2 0x3DE5 JUMPI INVALID JUMPDEST PUSH1 0x20 MUL PUSH1 0x20 ADD ADD MLOAD PUSH1 0x0 DUP7 PUSH1 0x20 ADD MLOAD DUP5 DUP2 MLOAD DUP2 LT PUSH2 0x3DFF JUMPI INVALID JUMPDEST PUSH1 0x20 MUL PUSH1 0x20 ADD ADD MLOAD PUSH2 0x4623 JUMP JUMPDEST PUSH1 0x1 ADD PUSH2 0x3DC8 JUMP JUMPDEST POP PUSH1 0x0 PUSH2 0x3E21 DUP9 ADDRESS PUSH2 0x4579 JUMP JUMPDEST SWAP1 POP PUSH1 0x0 PUSH2 0x3E2F DUP3 DUP5 PUSH2 0x37C1 JUMP JUMPDEST SWAP1 POP DUP1 DUP6 PUSH1 0x40 ADD MLOAD GT ISZERO PUSH2 0x3E42 JUMPI PUSH1 0x0 DUP1 REVERT JUMPDEST PUSH1 0x60 DUP6 ADD MLOAD PUSH1 0x40 MLOAD PUSH4 0x70A08231 PUSH1 0xE0 SHL DUP2 MSTORE PUSH1 0x0 SWAP2 PUSH1 0x1 PUSH1 0x1 PUSH1 0xA0 SHL SUB AND SWAP1 PUSH4 0x70A08231 SWAP1 PUSH2 0x3E75 SWAP1 ADDRESS SWAP1 PUSH1 0x4 ADD PUSH2 0x5A46 JUMP JUMPDEST PUSH1 0x20 PUSH1 0x40 MLOAD DUP1 DUP4 SUB DUP2 DUP7 DUP1 EXTCODESIZE ISZERO DUP1 ISZERO PUSH2 0x3E8D JUMPI PUSH1 0x0 DUP1 REVERT JUMPDEST POP GAS STATICCALL ISZERO DUP1 ISZERO PUSH2 0x3EA1 JUMPI RETURNDATASIZE PUSH1 0x0 DUP1 RETURNDATACOPY RETURNDATASIZE PUSH1 0x0 REVERT JUMPDEST POP POP POP POP PUSH1 0x40 MLOAD RETURNDATASIZE PUSH1 0x1F NOT PUSH1 0x1F DUP3 ADD AND DUP3 ADD DUP1 PUSH1 0x40 MSTORE POP DUP2 ADD SWAP1 PUSH2 0x3EC5 SWAP2 SWAP1 PUSH2 0x5858 JUMP JUMPDEST SWAP1 POP DUP5 DUP2 GT ISZERO PUSH2 0x3ED4 JUMPI PUSH1 0x0 DUP1 REVERT JUMPDEST PUSH1 0x80 DUP7 ADD MLOAD PUSH1 0xFF AND ISZERO DUP1 ISZERO SWAP1 PUSH2 0x3EF3 JUMPI POP PUSH2 0x3EEF DUP6 DUP3 PUSH2 0x37C1 JUMP JUMPDEST DUP3 EQ ISZERO JUMPDEST ISZERO PUSH2 0x3F0E JUMPI PUSH1 0x80 DUP7 ADD MLOAD PUSH2 0x3F0B SWAP1 DUP3 SWAP1 PUSH1 0xFF AND PUSH2 0x2EFC JUMP JUMPDEST SWAP1 POP JUMPDEST PUSH2 0x3F1D DUP7 PUSH1 0x60 ADD MLOAD DUP7 DUP4 PUSH2 0x4760 JUMP JUMPDEST PUSH2 0x3F27 DUP9 DUP4 PUSH2 0x2EFC JUMP JUMPDEST SWAP8 POP PUSH2 0x3F38 DUP11 PUSH1 0x0 ADD MLOAD DUP6 DUP6 PUSH2 0x4760 JUMP JUMPDEST POP POP PUSH1 0x1 SWAP1 SWAP5 ADD SWAP4 POP PUSH2 0x3D12 SWAP3 POP POP POP JUMP JUMPDEST POP SWAP3 SWAP2 POP POP JUMP JUMPDEST PUSH1 0x0 PUSH2 0x3F5B PUSH2 0x508E JUMP JUMPDEST RETURNDATASIZE DUP1 ISZERO PUSH2 0x3F6F JUMPI PUSH1 0x20 DUP2 EQ PUSH2 0x3F78 JUMPI PUSH1 0x0 DUP1 REVERT JUMPDEST PUSH1 0x1 SWAP3 POP PUSH2 0x3F83 JUMP JUMPDEST PUSH1 0x20 PUSH1 0x0 DUP4 RETURNDATACOPY DUP2 MLOAD SWAP3 POP JUMPDEST POP DUP2 PUSH2 0x1449 JUMPI PUSH1 0x40 DUP1 MLOAD PUSH3 0x461BCD PUSH1 0xE5 SHL DUP2 MSTORE PUSH1 0x20 PUSH1 0x4 DUP3 ADD MSTORE PUSH1 0x5 PUSH1 0x24 DUP3 ADD MSTORE PUSH5 0x455243323 PUSH1 0xDC SHL PUSH1 0x44 DUP3 ADD MSTORE SWAP1 MLOAD SWAP1 DUP2 SWAP1 SUB PUSH1 0x64 ADD SWAP1 REVERT JUMPDEST PUSH1 0x0 PUSH4 0x5F5E100 DUP4 PUSH1 0x40 ADD MLOAD EQ ISZERO PUSH2 0x3FD7 JUMPI POP DUP1 PUSH2 0x907 JUMP JUMPDEST PUSH1 0x40 DUP4 ADD MLOAD PUSH2 0x201A SWAP1 PUSH2 0x2154 DUP5 PUSH4 0x5F5E100 PUSH2 0x1697 JUMP JUMPDEST PUSH1 0x0 PUSH2 0x3FF8 PUSH2 0x3673 JUMP JUMPDEST PUSH2 0xFFFF DUP6 AND PUSH1 0x0 SWAP1 DUP2 MSTORE PUSH1 0x20 SWAP2 SWAP1 SWAP2 MSTORE PUSH1 0x40 SWAP1 KECCAK256 DUP1 SLOAD SWAP1 SWAP2 POP PUSH5 0xFFFFFFFFFF AND TIMESTAMP EQ PUSH2 0x4023 JUMPI PUSH1 0x0 DUP1 REVERT JUMPDEST DUP1 SLOAD PUSH1 0x0 SWAP1 PUSH2 0x4042 SWAP1 PUSH1 0x1 PUSH1 0x28 SHL SWAP1 DIV PUSH1 0x1 PUSH1 0x1 PUSH1 0x58 SHL SUB AND DUP6 PUSH2 0x1AD8 JUMP JUMPDEST DUP3 SLOAD SWAP1 SWAP2 POP PUSH1 0x0 SWAP1 PUSH2 0x4064 SWAP1 PUSH1 0x1 PUSH1 0x80 SHL SWAP1 DIV PUSH1 0x1 PUSH1 0x1 PUSH1 0x58 SHL SUB AND DUP6 PUSH2 0x1AD8 JUMP JUMPDEST SWAP1 POP DUP1 PUSH3 0x4C4B40 SGT ISZERO PUSH2 0x4076 JUMPI PUSH1 0x0 DUP1 REVERT JUMPDEST PUSH2 0x4087 PUSH2 0x4082 DUP3 PUSH2 0x1EC1 JUMP JUMPDEST PUSH2 0x3810 JUMP JUMPDEST DUP4 SLOAD PUSH1 0x1 PUSH1 0x1 PUSH1 0x58 SHL SUB SWAP2 SWAP1 SWAP2 AND PUSH1 0x1 PUSH1 0x80 SHL MUL PUSH11 0xFFFFFFFFFFFFFFFFFFFFFF PUSH1 0x80 SHL NOT SWAP1 SWAP2 AND OR DUP4 SSTORE PUSH2 0x40BD PUSH2 0x4082 DUP4 PUSH2 0x1EC1 JUMP JUMPDEST DUP4 SLOAD PUSH1 0x1 PUSH1 0x1 PUSH1 0x58 SHL SUB SWAP2 SWAP1 SWAP2 AND PUSH1 0x1 PUSH1 0x28 SHL MUL PUSH16 0xFFFFFFFFFFFFFFFFFFFFFF0000000000 NOT SWAP1 SWAP2 AND OR DUP4 SSTORE PUSH2 0x40F2 DUP4 PUSH2 0x47DD JUMP JUMPDEST POP POP POP POP POP POP JUMP JUMPDEST PUSH1 0x0 PUSH2 0x4104 PUSH2 0x3D01 JUMP JUMPDEST PUSH1 0x1 PUSH1 0x1 PUSH1 0xA0 SHL SUB DUP5 AND PUSH1 0x0 SWAP1 DUP2 MSTORE PUSH1 0x20 DUP3 SWAP1 MSTORE PUSH1 0x40 SWAP1 KECCAK256 SLOAD SWAP1 SWAP2 POP PUSH2 0x412D PUSH2 0x1318 DUP3 DUP6 PUSH2 0x1AD8 JUMP JUMPDEST PUSH1 0x1 PUSH1 0x1 PUSH1 0xA0 SHL SUB SWAP1 SWAP5 AND PUSH1 0x0 SWAP1 DUP2 MSTORE PUSH1 0x20 SWAP3 SWAP1 SWAP3 MSTORE POP PUSH1 0x40 SWAP1 KECCAK256 SWAP2 SWAP1 SWAP2 SSTORE POP JUMP JUMPDEST PUSH1 0x0 DUP1 PUSH2 0x907 PUSH1 0x1E PUSH2 0x20F0 JUMP JUMPDEST PUSH1 0x0 DUP3 PUSH2 0x418E JUMPI PUSH2 0x416B PUSH2 0x250E JUMP JUMPDEST PUSH2 0xFFFF DUP4 AND PUSH1 0x0 SWAP1 DUP2 MSTORE PUSH1 0x20 SWAP2 SWAP1 SWAP2 MSTORE PUSH1 0x40 SWAP1 KECCAK256 SLOAD PUSH1 0x1 PUSH1 0x1 PUSH1 0xA0 SHL SUB AND PUSH2 0x201A JUMP JUMPDEST PUSH2 0x4196 PUSH2 0x48A8 JUMP JUMPDEST PUSH2 0xFFFF DUP4 AND PUSH1 0x0 SWAP1 DUP2 MSTORE PUSH1 0x20 SWAP2 SWAP1 SWAP2 MSTORE PUSH1 0x40 SWAP1 KECCAK256 SLOAD PUSH1 0x1 PUSH1 0x1 PUSH1 0xA0 SHL SUB AND SWAP1 POP SWAP3 SWAP2 POP POP JUMP JUMPDEST PUSH1 0x0 PUSH2 0x41C6 PUSH2 0x3673 JUMP JUMPDEST PUSH2 0xFFFF DUP6 AND PUSH1 0x0 SWAP1 DUP2 MSTORE PUSH1 0x20 SWAP2 SWAP1 SWAP2 MSTORE PUSH1 0x40 SWAP1 KECCAK256 DUP1 SLOAD SWAP1 SWAP2 POP PUSH5 0xFFFFFFFFFF AND TIMESTAMP EQ PUSH2 0x41F1 JUMPI PUSH1 0x0 DUP1 REVERT JUMPDEST DUP1 SLOAD PUSH1 0x1 PUSH1 0xF8 SHL SWAP1 DIV PUSH1 0xFF AND PUSH2 0x4206 JUMPI PUSH1 0x0 DUP1 REVERT JUMPDEST PUSH1 0x1 DUP2 ADD SLOAD PUSH1 0x0 SWAP1 PUSH2 0x4221 SWAP1 PUSH1 0x1 PUSH1 0x1 PUSH1 0x58 SHL SUB AND DUP6 PUSH2 0x1AD8 JUMP JUMPDEST DUP3 SLOAD SWAP1 SWAP2 POP PUSH1 0x0 SWAP1 PUSH2 0x4243 SWAP1 PUSH1 0x1 PUSH1 0x28 SHL SWAP1 DIV PUSH1 0x1 PUSH1 0x1 PUSH1 0x58 SHL SUB AND DUP6 PUSH2 0x1AD8 JUMP JUMPDEST SWAP1 POP DUP2 PUSH1 0x9 NOT SLT DUP1 ISZERO PUSH2 0x4256 JUMPI POP PUSH1 0x0 DUP3 SLT JUMPDEST ISZERO PUSH2 0x4260 JUMPI PUSH1 0x0 SWAP2 POP JUMPDEST DUP1 PUSH1 0x9 NOT SLT DUP1 ISZERO PUSH2 0x4271 JUMPI POP PUSH1 0x0 DUP2 SLT JUMPDEST ISZERO PUSH2 0x427A JUMPI POP PUSH1 0x0 JUMPDEST PUSH2 0x4286 PUSH2 0x4082 DUP4 PUSH2 0x1EC1 JUMP JUMPDEST PUSH1 0x1 DUP5 ADD DUP1 SLOAD PUSH11 0xFFFFFFFFFFFFFFFFFFFFFF NOT AND PUSH1 0x1 PUSH1 0x1 PUSH1 0x58 SHL SUB SWAP3 SWAP1 SWAP3 AND SWAP2 SWAP1 SWAP2 OR SWAP1 SSTORE PUSH2 0x42B8 PUSH2 0x4082 DUP3 PUSH2 0x1EC1 JUMP JUMPDEST DUP4 SLOAD PUSH1 0x1 PUSH1 0x1 PUSH1 0x58 SHL SUB SWAP2 SWAP1 SWAP2 AND PUSH1 0x1 PUSH1 0x28 SHL MUL PUSH16 0xFFFFFFFFFFFFFFFFFFFFFF0000000000 NOT SWAP1 SWAP2 AND OR DUP4 SSTORE PUSH2 0x42F0 DUP8 DUP8 DUP7 DUP9 PUSH2 0x48B5 JUMP JUMPDEST PUSH2 0x24A1 DUP4 PUSH2 0x47DD JUMP JUMPDEST PUSH1 0x0 DUP1 PUSH2 0x907 PUSH1 0x1F PUSH2 0x20F0 JUMP JUMPDEST PUSH1 0x0 DUP1 PUSH1 0x0 DUP1 PUSH1 0x0 DUP6 PUSH1 0x20 ADD MLOAD GT ISZERO PUSH2 0x4353 JUMPI PUSH2 0x4350 PUSH2 0x4337 DUP7 PUSH1 0xC0 ADD MLOAD DUP8 PUSH1 0x20 ADD MLOAD PUSH2 0x1FF3 SWAP1 SWAP2 SWAP1 PUSH4 0xFFFFFFFF AND JUMP JUMPDEST PUSH1 0xE0 DUP8 ADD MLOAD PUSH1 0x40 DUP9 ADD MLOAD PUSH2 0x434A SWAP2 PUSH2 0x1FF3 JUMP JUMPDEST SWAP1 PUSH2 0x49BD JUMP JUMPDEST SWAP1 POP JUMPDEST PUSH1 0x0 PUSH2 0x435E DUP8 PUSH2 0x49D0 JUMP JUMPDEST SWAP1 POP PUSH2 0x436A DUP2 DUP4 PUSH2 0x4A03 JUMP JUMPDEST SWAP5 POP DUP2 ISZERO PUSH2 0x4381 JUMPI PUSH2 0x437E DUP2 DUP7 PUSH1 0x1 PUSH2 0x4AB6 JUMP JUMPDEST SWAP4 POP JUMPDEST PUSH1 0x20 DUP7 ADD MLOAD ISZERO PUSH2 0x4398 JUMPI PUSH2 0x4395 DUP6 DUP4 PUSH2 0x4B30 JUMP JUMPDEST SWAP3 POP JUMPDEST POP POP SWAP3 POP SWAP3 POP SWAP3 JUMP JUMPDEST PUSH1 0x0 DUP1 DUP3 GT PUSH2 0x43AF JUMPI PUSH1 0x0 DUP1 REVERT JUMPDEST DUP2 DUP4 DUP2 PUSH2 0x43B8 JUMPI INVALID JUMPDEST DIV SWAP4 SWAP3 POP POP POP JUMP JUMPDEST PUSH1 0x0 DUP1 PUSH2 0x43CB PUSH2 0x4B49 JUMP JUMPDEST PUSH1 0x1 PUSH1 0x1 PUSH1 0xA0 SHL SUB DUP6 AND PUSH1 0x0 SWAP1 DUP2 MSTORE PUSH1 0x20 DUP3 DUP2 MSTORE PUSH1 0x40 DUP1 DUP4 KECCAK256 PUSH2 0xFFFF DUP9 AND DUP5 MSTORE SWAP1 SWAP2 MSTORE DUP2 KECCAK256 DUP1 SLOAD PUSH1 0x1 PUSH1 0xA8 SHL SWAP1 DIV PUSH1 0xA SWAP1 DUP2 SIGNEXTEND SWAP1 SIGNEXTEND SWAP5 POP SWAP2 SWAP3 POP DUP4 SLT ISZERO PUSH2 0x4411 JUMPI PUSH1 0x0 DUP1 REVERT JUMPDEST POP POP SWAP3 SWAP2 POP POP JUMP JUMPDEST PUSH1 0x0 DUP2 SLT ISZERO PUSH2 0x4427 JUMPI PUSH1 0x0 DUP1 REVERT JUMPDEST PUSH1 0x0 PUSH2 0x4431 PUSH2 0x4B49 JUMP JUMPDEST PUSH1 0x1 PUSH1 0x1 PUSH1 0xA0 SHL SUB DUP6 AND PUSH1 0x0 SWAP1 DUP2 MSTORE PUSH1 0x20 DUP3 DUP2 MSTORE PUSH1 0x40 DUP1 DUP4 KECCAK256 PUSH2 0xFFFF DUP9 AND DUP5 MSTORE SWAP1 SWAP2 MSTORE SWAP1 KECCAK256 SWAP1 SWAP2 POP PUSH2 0x4462 DUP4 PUSH2 0x4B56 JUMP JUMPDEST DUP2 SLOAD PUSH1 0xA SWAP2 SWAP1 SWAP2 SIGNEXTEND PUSH1 0x1 PUSH1 0x1 PUSH1 0x58 SHL SUB AND PUSH1 0x1 PUSH1 0xA8 SHL MUL PUSH1 0x1 PUSH1 0x1 PUSH1 0xA8 SHL SUB SWAP1 SWAP2 AND OR SWAP1 SSTORE POP POP POP POP JUMP JUMPDEST PUSH1 0x0 DUP1 PUSH2 0x907 PUSH1 0x15 PUSH2 0x20F0 JUMP JUMPDEST PUSH1 0x0 DUP1 PUSH2 0x44A5 PUSH2 0x4B88 JUMP JUMPDEST PUSH1 0x0 SWAP4 DUP5 MSTORE PUSH1 0x20 MSTORE POP POP PUSH1 0x40 SWAP1 KECCAK256 SLOAD SWAP1 JUMP JUMPDEST PUSH1 0x0 PUSH3 0x76A700 DUP3 LT ISZERO PUSH2 0x44C9 JUMPI PUSH1 0x0 DUP1 REVERT JUMPDEST POP PUSH3 0x76A700 DUP2 MOD SWAP1 SUB SWAP1 JUMP JUMPDEST PUSH1 0x0 DUP2 PUSH1 0x1 EQ ISZERO PUSH2 0x44EA JUMPI POP PUSH3 0x76A700 PUSH2 0x937 JUMP JUMPDEST DUP2 PUSH1 0x2 EQ ISZERO PUSH2 0x44FD JUMPI POP PUSH3 0xED4E00 PUSH2 0x937 JUMP JUMPDEST DUP2 PUSH1 0x3 EQ ISZERO PUSH2 0x4511 JUMPI POP PUSH4 0x1DA9C00 PUSH2 0x937 JUMP JUMPDEST DUP2 PUSH1 0x4 EQ ISZERO PUSH2 0x4525 JUMPI POP PUSH4 0x3B53800 PUSH2 0x937 JUMP JUMPDEST DUP2 PUSH1 0x5 EQ ISZERO PUSH2 0x4539 JUMPI POP PUSH4 0x9450C00 PUSH2 0x937 JUMP JUMPDEST DUP2 PUSH1 0x6 EQ ISZERO PUSH2 0x454D JUMPI POP PUSH4 0x128A1800 PUSH2 0x937 JUMP JUMPDEST DUP2 PUSH1 0x7 EQ ISZERO PUSH2 0x4561 JUMPI POP PUSH4 0x25143000 PUSH2 0x937 JUMP JUMPDEST PUSH1 0x40 MLOAD PUSH3 0x461BCD PUSH1 0xE5 SHL DUP2 MSTORE PUSH1 0x4 ADD PUSH2 0x312 SWAP1 PUSH2 0x5B5D JUMP JUMPDEST PUSH1 0x0 PUSH1 0x3 DUP4 PUSH1 0x60 ADD MLOAD PUSH1 0x5 DUP2 GT ISZERO PUSH2 0x458D JUMPI INVALID JUMPDEST EQ ISZERO PUSH2 0x45A4 JUMPI POP PUSH1 0x1 PUSH1 0x1 PUSH1 0xA0 SHL SUB DUP2 AND BALANCE PUSH2 0x907 JUMP JUMPDEST DUP3 MLOAD PUSH1 0x40 MLOAD PUSH4 0x70A08231 PUSH1 0xE0 SHL DUP2 MSTORE PUSH1 0x1 PUSH1 0x1 PUSH1 0xA0 SHL SUB SWAP1 SWAP2 AND SWAP1 PUSH4 0x70A08231 SWAP1 PUSH2 0x45D3 SWAP1 DUP6 SWAP1 PUSH1 0x4 ADD PUSH2 0x5A46 JUMP JUMPDEST PUSH1 0x20 PUSH1 0x40 MLOAD DUP1 DUP4 SUB DUP2 DUP7 DUP1 EXTCODESIZE ISZERO DUP1 ISZERO PUSH2 0x45EB JUMPI PUSH1 0x0 DUP1 REVERT JUMPDEST POP GAS STATICCALL ISZERO DUP1 ISZERO PUSH2 0x45FF JUMPI RETURNDATASIZE PUSH1 0x0 DUP1 RETURNDATACOPY RETURNDATASIZE PUSH1 0x0 REVERT JUMPDEST POP POP POP POP PUSH1 0x40 MLOAD RETURNDATASIZE PUSH1 0x1F NOT PUSH1 0x1F DUP3 ADD AND DUP3 ADD DUP1 PUSH1 0x40 MSTORE POP DUP2 ADD SWAP1 PUSH2 0x2618 SWAP2 SWAP1 PUSH2 0x5858 JUMP JUMPDEST PUSH1 0x0 DUP1 DUP5 PUSH1 0x1 PUSH1 0x1 PUSH1 0xA0 SHL SUB AND DUP5 DUP5 PUSH1 0x40 MLOAD DUP1 DUP3 DUP1 MLOAD SWAP1 PUSH1 0x20 ADD SWAP1 DUP1 DUP4 DUP4 JUMPDEST PUSH1 0x20 DUP4 LT PUSH2 0x4661 JUMPI DUP1 MLOAD DUP3 MSTORE PUSH1 0x1F NOT SWAP1 SWAP3 ADD SWAP2 PUSH1 0x20 SWAP2 DUP3 ADD SWAP2 ADD PUSH2 0x4642 JUMP JUMPDEST PUSH1 0x1 DUP4 PUSH1 0x20 SUB PUSH2 0x100 EXP SUB DUP1 NOT DUP3 MLOAD AND DUP2 DUP5 MLOAD AND DUP1 DUP3 OR DUP6 MSTORE POP POP POP POP POP POP SWAP1 POP ADD SWAP2 POP POP PUSH1 0x0 PUSH1 0x40 MLOAD DUP1 DUP4 SUB DUP2 DUP6 DUP8 GAS CALL SWAP3 POP POP POP RETURNDATASIZE DUP1 PUSH1 0x0 DUP2 EQ PUSH2 0x46C3 JUMPI PUSH1 0x40 MLOAD SWAP2 POP PUSH1 0x1F NOT PUSH1 0x3F RETURNDATASIZE ADD AND DUP3 ADD PUSH1 0x40 MSTORE RETURNDATASIZE DUP3 MSTORE RETURNDATASIZE PUSH1 0x0 PUSH1 0x20 DUP5 ADD RETURNDATACOPY PUSH2 0x46C8 JUMP JUMPDEST PUSH1 0x60 SWAP2 POP JUMPDEST POP SWAP2 POP SWAP2 POP DUP2 PUSH2 0x46D7 DUP3 PUSH2 0x4B95 JUMP JUMPDEST SWAP1 PUSH2 0x40F2 JUMPI PUSH1 0x40 MLOAD PUSH3 0x461BCD PUSH1 0xE5 SHL DUP2 MSTORE PUSH1 0x4 ADD DUP1 DUP1 PUSH1 0x20 ADD DUP3 DUP2 SUB DUP3 MSTORE DUP4 DUP2 DUP2 MLOAD DUP2 MSTORE PUSH1 0x20 ADD SWAP2 POP DUP1 MLOAD SWAP1 PUSH1 0x20 ADD SWAP1 DUP1 DUP4 DUP4 PUSH1 0x0 JUMPDEST DUP4 DUP2 LT ISZERO PUSH2 0x4725 JUMPI DUP2 DUP2 ADD MLOAD DUP4 DUP3 ADD MSTORE PUSH1 0x20 ADD PUSH2 0x470D JUMP JUMPDEST POP POP POP POP SWAP1 POP SWAP1 DUP2 ADD SWAP1 PUSH1 0x1F AND DUP1 ISZERO PUSH2 0x4752 JUMPI DUP1 DUP3 SUB DUP1 MLOAD PUSH1 0x1 DUP4 PUSH1 0x20 SUB PUSH2 0x100 EXP SUB NOT AND DUP2 MSTORE PUSH1 0x20 ADD SWAP2 POP JUMPDEST POP SWAP3 POP POP POP PUSH1 0x40 MLOAD DUP1 SWAP2 SUB SWAP1 REVERT JUMPDEST PUSH1 0x0 PUSH2 0x476A PUSH2 0x3D01 JUMP JUMPDEST PUSH1 0x1 PUSH1 0x1 PUSH1 0xA0 SHL SUB DUP6 AND PUSH1 0x0 SWAP1 DUP2 MSTORE PUSH1 0x20 DUP3 SWAP1 MSTORE PUSH1 0x40 SWAP1 KECCAK256 SLOAD SWAP1 SWAP2 POP DUP4 DUP2 GT ISZERO PUSH2 0x4793 JUMPI PUSH1 0x0 DUP1 REVERT JUMPDEST PUSH1 0x0 PUSH2 0x47AA PUSH2 0x47A1 DUP7 PUSH2 0xD41 JUMP JUMPDEST PUSH2 0x215A DUP7 PUSH2 0xD41 JUMP JUMPDEST SWAP1 POP PUSH2 0x47B9 PUSH2 0x1318 DUP4 DUP4 PUSH2 0x1AD8 JUMP JUMPDEST PUSH1 0x1 PUSH1 0x1 PUSH1 0xA0 SHL SUB SWAP1 SWAP7 AND PUSH1 0x0 SWAP1 DUP2 MSTORE PUSH1 0x20 SWAP4 SWAP1 SWAP4 MSTORE POP POP PUSH1 0x40 SWAP1 KECCAK256 SWAP3 SWAP1 SWAP3 SSTORE POP POP JUMP JUMPDEST DUP1 SLOAD PUSH1 0x2 DUP3 ADD SLOAD PUSH1 0x0 SWAP2 PUSH2 0x481F SWAP2 PUSH1 0x1 PUSH1 0x28 SHL SWAP1 SWAP2 DIV PUSH1 0x1 PUSH1 0x1 PUSH1 0x58 SHL SUB AND SWAP1 PUSH2 0x4819 SWAP1 PUSH1 0x1 PUSH1 0x1 PUSH1 0x50 SHL SUB PUSH1 0x1 PUSH1 0x50 SHL DUP3 DIV DUP2 AND SWAP2 AND PUSH2 0x1697 JUMP JUMPDEST SWAP1 PUSH2 0x1697 JUMP JUMPDEST PUSH1 0x1 DUP4 ADD SLOAD PUSH1 0x2 DUP5 ADD SLOAD SWAP2 SWAP3 POP PUSH1 0x0 SWAP2 PUSH2 0x4859 SWAP2 PUSH1 0x1 PUSH1 0x1 PUSH1 0x58 SHL SUB AND SWAP1 PUSH2 0x4819 SWAP1 PUSH1 0x1 PUSH1 0x1 PUSH1 0x50 SHL SUB PUSH1 0x1 PUSH1 0xA0 SHL DUP3 DIV DUP2 AND SWAP2 AND PUSH2 0x1697 JUMP JUMPDEST DUP4 SLOAD SWAP1 SWAP2 POP PUSH1 0x0 SWAP1 PUSH2 0x4890 SWAP1 PUSH1 0x1 PUSH1 0x1 PUSH1 0x1 PUSH1 0x58 SHL SUB PUSH1 0x1 PUSH1 0x80 SHL SWAP1 SWAP3 DIV DUP3 AND ADD AND PUSH15 0xC097CE7BC90715B34B9F1000000000 PUSH2 0x1697 JUMP JUMPDEST SWAP1 POP DUP1 PUSH2 0x489D DUP5 DUP5 PUSH2 0x2D4E JUMP JUMPDEST SGT ISZERO PUSH2 0x1FED JUMPI PUSH1 0x0 DUP1 REVERT JUMPDEST PUSH1 0x0 DUP1 PUSH2 0x907 PUSH1 0x22 PUSH2 0x20F0 JUMP JUMPDEST PUSH1 0x0 PUSH2 0x48BF PUSH2 0x250E JUMP JUMPDEST PUSH2 0xFFFF DUP6 AND PUSH1 0x0 SWAP1 DUP2 MSTORE PUSH1 0x20 SWAP2 SWAP1 SWAP2 MSTORE PUSH1 0x40 DUP2 KECCAK256 SLOAD PUSH1 0x1 PUSH1 0x1 PUSH1 0xA0 SHL SUB AND SWAP2 POP PUSH2 0x48E7 PUSH2 0x48A8 JUMP JUMPDEST PUSH2 0xFFFF DUP7 AND PUSH1 0x0 SWAP1 DUP2 MSTORE PUSH1 0x20 SWAP2 SWAP1 SWAP2 MSTORE PUSH1 0x40 SWAP1 DUP2 SWAP1 KECCAK256 SLOAD SWAP1 MLOAD PUSH4 0xAD1C095D PUSH1 0xE0 SHL DUP2 MSTORE PUSH1 0x1 PUSH1 0x1 PUSH1 0xA0 SHL SUB SWAP1 SWAP2 AND SWAP2 POP DUP2 SWAP1 PUSH4 0xAD1C095D SWAP1 PUSH2 0x492F SWAP1 DUP10 SWAP1 DUP8 SWAP1 PUSH1 0x4 ADD PUSH2 0x5A7E JUMP JUMPDEST PUSH1 0x0 PUSH1 0x40 MLOAD DUP1 DUP4 SUB DUP2 PUSH1 0x0 DUP8 DUP1 EXTCODESIZE ISZERO DUP1 ISZERO PUSH2 0x4949 JUMPI PUSH1 0x0 DUP1 REVERT JUMPDEST POP GAS CALL ISZERO DUP1 ISZERO PUSH2 0x495D JUMPI RETURNDATASIZE PUSH1 0x0 DUP1 RETURNDATACOPY RETURNDATASIZE PUSH1 0x0 REVERT JUMPDEST POP POP PUSH1 0x40 MLOAD PUSH4 0xAD1C095D PUSH1 0xE0 SHL DUP2 MSTORE PUSH1 0x1 PUSH1 0x1 PUSH1 0xA0 SHL SUB DUP6 AND SWAP3 POP PUSH4 0xAD1C095D SWAP2 POP PUSH2 0x498F SWAP1 DUP10 SWAP1 DUP9 SWAP1 PUSH1 0x4 ADD PUSH2 0x5A7E JUMP JUMPDEST PUSH1 0x0 PUSH1 0x40 MLOAD DUP1 DUP4 SUB DUP2 PUSH1 0x0 DUP8 DUP1 EXTCODESIZE ISZERO DUP1 ISZERO PUSH2 0x49A9 JUMPI PUSH1 0x0 DUP1 REVERT JUMPDEST POP GAS CALL ISZERO DUP1 ISZERO PUSH2 0x222E JUMPI RETURNDATASIZE PUSH1 0x0 DUP1 RETURNDATACOPY RETURNDATASIZE PUSH1 0x0 REVERT JUMPDEST PUSH1 0x0 PUSH2 0x201A PUSH2 0x37ED DUP5 PUSH4 0x3B9ACA00 PUSH2 0x1FF3 JUMP JUMPDEST PUSH2 0x49D8 PUSH2 0x50AC JUMP JUMPDEST PUSH1 0x0 PUSH2 0x49E2 PUSH2 0x4C9A JUMP JUMPDEST PUSH2 0xFFFF DUP5 AND PUSH1 0x0 SWAP1 DUP2 MSTORE PUSH1 0x20 SWAP2 SWAP1 SWAP2 MSTORE PUSH1 0x40 DUP2 KECCAK256 SLOAD SWAP2 POP PUSH2 0x201A SWAP1 DUP3 PUSH2 0x4CA7 JUMP JUMPDEST PUSH1 0x0 DUP1 DUP4 PUSH1 0x80 ADD MLOAD GT PUSH2 0x4A15 JUMPI PUSH1 0x0 DUP1 REVERT JUMPDEST PUSH4 0x3B9ACA00 DUP3 GT ISZERO PUSH2 0x4A26 JUMPI PUSH1 0x0 DUP1 REVERT JUMPDEST DUP3 MLOAD DUP3 GT PUSH2 0x4A45 JUMPI DUP3 MLOAD PUSH1 0x40 DUP5 ADD MLOAD PUSH2 0x2618 SWAP2 SWAP1 PUSH2 0x37AA SWAP1 DUP6 SWAP1 PUSH2 0x1FF3 JUMP JUMPDEST DUP3 PUSH1 0x20 ADD MLOAD DUP3 GT PUSH2 0x4A7D JUMPI PUSH1 0x40 DUP4 ADD MLOAD DUP4 MLOAD PUSH1 0x20 DUP6 ADD MLOAD PUSH1 0x60 DUP7 ADD MLOAD PUSH2 0x2618 SWAP4 SWAP3 PUSH2 0x2407 SWAP3 DUP2 SWAP1 SUB SWAP2 PUSH2 0x37AA SWAP2 DUP9 SUB SWAP1 DUP6 SWAP1 SUB PUSH2 0x1FF3 JUMP JUMPDEST PUSH2 0x201A DUP4 PUSH1 0x60 ADD MLOAD PUSH2 0x2407 DUP6 PUSH1 0x20 ADD MLOAD PUSH4 0x3B9ACA00 SUB PUSH2 0x37AA DUP8 PUSH1 0x60 ADD MLOAD DUP9 PUSH1 0x80 ADD MLOAD SUB DUP9 PUSH1 0x20 ADD MLOAD DUP9 SUB PUSH2 0x1FF3 SWAP1 SWAP2 SWAP1 PUSH4 0xFFFFFFFF AND JUMP JUMPDEST PUSH1 0x0 DUP1 PUSH2 0x4AD5 PUSH1 0x64 PUSH2 0x37AA DUP8 PUSH1 0xE0 ADD MLOAD DUP8 PUSH2 0x1FF3 SWAP1 SWAP2 SWAP1 PUSH4 0xFFFFFFFF AND JUMP JUMPDEST SWAP1 POP DUP5 PUSH1 0xA0 ADD MLOAD DUP2 LT ISZERO PUSH2 0x4AEA JUMPI POP PUSH1 0xA0 DUP5 ADD MLOAD JUMPDEST DUP5 PUSH1 0xC0 ADD MLOAD DUP2 GT ISZERO PUSH2 0x4AFD JUMPI POP PUSH1 0xC0 DUP5 ADD MLOAD JUMPDEST DUP3 ISZERO PUSH2 0x4B14 JUMPI PUSH2 0x4B0D DUP5 DUP3 PUSH2 0x2EFC JUMP JUMPDEST SWAP2 POP PUSH2 0x4B28 JUMP JUMPDEST DUP4 DUP2 GT PUSH2 0x4B23 JUMPI DUP1 DUP5 SUB PUSH2 0x1BBF JUMP JUMPDEST PUSH1 0x0 SWAP2 POP JUMPDEST POP SWAP4 SWAP3 POP POP POP JUMP JUMPDEST PUSH1 0x0 PUSH2 0x201A PUSH2 0x4B3F DUP5 DUP5 PUSH2 0x1FF3 JUMP JUMPDEST PUSH4 0x3B9ACA00 PUSH2 0x43A1 JUMP JUMPDEST PUSH1 0x0 DUP1 PUSH2 0x907 PUSH1 0x6 PUSH2 0x20F0 JUMP JUMPDEST PUSH1 0x0 PUSH11 0x7FFFFFFFFFFFFFFFFFFFFF NOT DUP3 SLT DUP1 ISZERO SWAP1 PUSH2 0x4B7F JUMPI POP PUSH11 0x7FFFFFFFFFFFFFFFFFFFFF DUP3 SGT ISZERO JUMPDEST PUSH2 0xD57 JUMPI PUSH1 0x0 DUP1 REVERT JUMPDEST PUSH1 0x0 DUP1 PUSH2 0x907 PUSH1 0x9 PUSH2 0x20F0 JUMP JUMPDEST PUSH1 0x60 PUSH1 0x44 DUP3 MLOAD LT ISZERO PUSH2 0x4BCB JUMPI POP PUSH1 0x40 DUP1 MLOAD DUP1 DUP3 ADD SWAP1 SWAP2 MSTORE PUSH1 0xD DUP2 MSTORE PUSH13 0x14DA5B195B9D0814995D995C9D PUSH1 0x9A SHL PUSH1 0x20 DUP3 ADD MSTORE PUSH2 0x937 JUMP JUMPDEST PUSH1 0x4 DUP3 ADD DUP1 MLOAD SWAP1 SWAP3 PUSH1 0x24 ADD SWAP1 PUSH1 0x20 DUP2 LT ISZERO PUSH2 0x4BE5 JUMPI PUSH1 0x0 DUP1 REVERT JUMPDEST DUP2 ADD SWAP1 DUP1 DUP1 MLOAD PUSH1 0x40 MLOAD SWAP4 SWAP3 SWAP2 SWAP1 DUP5 PUSH1 0x1 PUSH1 0x20 SHL DUP3 GT ISZERO PUSH2 0x4C04 JUMPI PUSH1 0x0 DUP1 REVERT JUMPDEST SWAP1 DUP4 ADD SWAP1 PUSH1 0x20 DUP3 ADD DUP6 DUP2 GT ISZERO PUSH2 0x4C19 JUMPI PUSH1 0x0 DUP1 REVERT JUMPDEST DUP3 MLOAD PUSH1 0x1 PUSH1 0x20 SHL DUP2 GT DUP3 DUP3 ADD DUP9 LT OR ISZERO PUSH2 0x4C32 JUMPI PUSH1 0x0 DUP1 REVERT JUMPDEST DUP3 MSTORE POP DUP2 MLOAD PUSH1 0x20 SWAP2 DUP3 ADD SWAP3 SWAP1 SWAP2 ADD SWAP1 DUP1 DUP4 DUP4 PUSH1 0x0 JUMPDEST DUP4 DUP2 LT ISZERO PUSH2 0x4C5F JUMPI DUP2 DUP2 ADD MLOAD DUP4 DUP3 ADD MSTORE PUSH1 0x20 ADD PUSH2 0x4C47 JUMP JUMPDEST POP POP POP POP SWAP1 POP SWAP1 DUP2 ADD SWAP1 PUSH1 0x1F AND DUP1 ISZERO PUSH2 0x4C8C JUMPI DUP1 DUP3 SUB DUP1 MLOAD PUSH1 0x1 DUP4 PUSH1 0x20 SUB PUSH2 0x100 EXP SUB NOT AND DUP2 MSTORE PUSH1 0x20 ADD SWAP2 POP JUMPDEST POP PUSH1 0x40 MSTORE POP POP POP SWAP1 POP SWAP2 SWAP1 POP JUMP JUMPDEST PUSH1 0x0 DUP1 PUSH2 0x907 PUSH1 0x1B PUSH2 0x20F0 JUMP JUMPDEST PUSH2 0x4CAF PUSH2 0x50AC JUMP JUMPDEST PUSH1 0x64 PUSH4 0x3B9ACA00 DUP4 PUSH1 0xFF DUP7 AND PUSH1 0x20 DUP2 LT PUSH2 0x4CC5 JUMPI INVALID JUMPDEST BYTE MUL DUP2 PUSH2 0x4CCE JUMPI INVALID JUMPDEST DIV DUP2 MSTORE PUSH1 0x64 PUSH4 0x3B9ACA00 DUP4 PUSH1 0xFF DUP7 AND PUSH1 0x1 ADD PUSH1 0x20 DUP2 LT PUSH2 0x4CEA JUMPI INVALID JUMPDEST BYTE MUL DUP2 PUSH2 0x4CF3 JUMPI INVALID JUMPDEST DIV DUP2 PUSH1 0x20 ADD DUP2 DUP2 MSTORE POP POP PUSH2 0x4D18 DUP3 PUSH1 0x2 DUP6 PUSH1 0xFF AND ADD PUSH1 0x20 DUP2 LT PUSH2 0x4D12 JUMPI INVALID JUMPDEST BYTE PUSH2 0x4DC6 JUMP JUMPDEST PUSH1 0x80 DUP3 ADD DUP2 SWAP1 MSTORE PUSH2 0x100 SWAP1 DUP4 PUSH1 0xFF DUP7 AND PUSH1 0x3 ADD PUSH1 0x20 DUP2 LT PUSH2 0x4D35 JUMPI INVALID JUMPDEST BYTE MUL DUP2 PUSH2 0x4D3E JUMPI INVALID JUMPDEST DIV PUSH1 0x40 DUP3 ADD MSTORE PUSH1 0x80 DUP2 ADD MLOAD PUSH2 0x100 SWAP1 DUP4 PUSH1 0xFF DUP7 AND PUSH1 0x4 ADD PUSH1 0x20 DUP2 LT PUSH2 0x4D5F JUMPI INVALID JUMPDEST BYTE MUL DUP2 PUSH2 0x4D68 JUMPI INVALID JUMPDEST DIV PUSH1 0x60 DUP3 ADD MSTORE PUSH3 0x7A120 DUP3 PUSH1 0xFF DUP6 AND PUSH1 0x5 ADD PUSH1 0x20 DUP2 LT PUSH2 0x4D84 JUMPI INVALID JUMPDEST BYTE MUL PUSH1 0xA0 DUP3 ADD MSTORE PUSH3 0x2625A0 DUP3 PUSH1 0xFF DUP6 AND PUSH1 0x6 ADD PUSH1 0x20 DUP2 LT PUSH2 0x4DA1 JUMPI INVALID JUMPDEST BYTE MUL PUSH1 0xC0 DUP3 ADD MSTORE DUP2 PUSH1 0xFF DUP5 AND PUSH1 0x7 ADD PUSH1 0x20 DUP2 LT PUSH2 0x4DBA JUMPI INVALID JUMPDEST BYTE PUSH1 0xE0 DUP3 ADD MSTORE SWAP3 SWAP2 POP POP JUMP JUMPDEST PUSH1 0x0 DUP2 PUSH1 0xFF AND PUSH1 0x96 LT PUSH2 0x4DE1 JUMPI PUSH1 0xFF DUP3 AND PUSH3 0x2625A0 MUL PUSH2 0x934 JUMP JUMPDEST POP PUSH1 0x95 NOT PUSH1 0xFF SWAP2 SWAP1 SWAP2 AND ADD PUSH3 0xE4E1C0 MUL PUSH4 0x165A0BC0 ADD SWAP1 JUMP JUMPDEST PUSH1 0x40 MLOAD DUP1 PUSH1 0x40 ADD PUSH1 0x40 MSTORE DUP1 PUSH1 0x2 SWAP1 PUSH1 0x20 DUP3 MUL DUP1 CALLDATASIZE DUP4 CALLDATACOPY POP SWAP2 SWAP3 SWAP2 POP POP JUMP JUMPDEST PUSH1 0x40 MLOAD DUP1 PUSH2 0x1E0 ADD PUSH1 0x40 MSTORE DUP1 PUSH1 0x0 PUSH1 0x1 PUSH1 0x1 PUSH1 0xA0 SHL SUB AND DUP2 MSTORE PUSH1 0x20 ADD PUSH1 0x0 PUSH2 0xFFFF AND DUP2 MSTORE PUSH1 0x20 ADD PUSH1 0x0 PUSH2 0xFFFF AND DUP2 MSTORE PUSH1 0x20 ADD PUSH1 0x0 DUP2 MSTORE PUSH1 0x20 ADD PUSH1 0x0 DUP2 MSTORE PUSH1 0x20 ADD PUSH1 0x0 DUP2 MSTORE PUSH1 0x20 ADD PUSH1 0x0 DUP2 MSTORE PUSH1 0x20 ADD PUSH1 0x0 DUP2 MSTORE PUSH1 0x20 ADD PUSH1 0x0 DUP2 MSTORE PUSH1 0x20 ADD PUSH1 0x0 DUP2 MSTORE PUSH1 0x20 ADD PUSH2 0x4E83 PUSH2 0x4DFA JUMP JUMPDEST DUP2 MSTORE PUSH1 0x20 ADD PUSH2 0x4E90 PUSH2 0x5021 JUMP JUMPDEST DUP2 MSTORE PUSH1 0x20 ADD PUSH1 0x0 DUP2 MSTORE PUSH1 0x20 ADD PUSH2 0x4EA4 PUSH2 0x4DFA JUMP JUMPDEST DUP2 MSTORE PUSH1 0x20 ADD PUSH1 0x0 DUP2 MSTORE POP SWAP1 JUMP JUMPDEST PUSH1 0x40 MLOAD DUP1 PUSH1 0x40 ADD PUSH1 0x40 MSTORE DUP1 PUSH1 0x2 SWAP1 JUMPDEST PUSH2 0x4EC8 PUSH2 0x5021 JUMP JUMPDEST DUP2 MSTORE PUSH1 0x20 ADD SWAP1 PUSH1 0x1 SWAP1 SUB SWAP1 DUP2 PUSH2 0x4EC0 JUMPI SWAP1 POP POP SWAP1 JUMP JUMPDEST PUSH1 0x40 DUP1 MLOAD PUSH1 0xA0 DUP2 ADD DUP3 MSTORE PUSH1 0x0 DUP1 DUP3 MSTORE PUSH1 0x20 DUP3 ADD DUP2 SWAP1 MSTORE SWAP2 DUP2 ADD DUP3 SWAP1 MSTORE SWAP1 PUSH1 0x60 DUP3 ADD SWAP1 PUSH2 0x4EA4 JUMP JUMPDEST PUSH1 0x1 DUP4 ADD SWAP2 DUP4 SWAP1 DUP3 ISZERO PUSH2 0x4F8B JUMPI SWAP2 PUSH1 0x20 MUL DUP3 ADD PUSH1 0x0 JUMPDEST DUP4 DUP3 GT ISZERO PUSH2 0x4F5B JUMPI DUP4 MLOAD DUP4 DUP3 PUSH2 0x100 EXP DUP2 SLOAD DUP2 PUSH2 0xFFFF MUL NOT AND SWAP1 DUP4 PUSH2 0xFFFF AND MUL OR SWAP1 SSTORE POP SWAP3 PUSH1 0x20 ADD SWAP3 PUSH1 0x2 ADD PUSH1 0x20 DUP2 PUSH1 0x1 ADD DIV SWAP3 DUP4 ADD SWAP3 PUSH1 0x1 SUB MUL PUSH2 0x4F1B JUMP JUMPDEST DUP1 ISZERO PUSH2 0x4F89 JUMPI DUP3 DUP2 PUSH2 0x100 EXP DUP2 SLOAD SWAP1 PUSH2 0xFFFF MUL NOT AND SWAP1 SSTORE PUSH1 0x2 ADD PUSH1 0x20 DUP2 PUSH1 0x1 ADD DIV SWAP3 DUP4 ADD SWAP3 PUSH1 0x1 SUB MUL PUSH2 0x4F5B JUMP JUMPDEST POP JUMPDEST POP PUSH2 0xD57 SWAP3 SWAP2 POP PUSH2 0x50F1 JUMP JUMPDEST PUSH1 0x1 DUP4 ADD SWAP2 DUP4 SWAP1 DUP3 ISZERO PUSH2 0x4F8B JUMPI SWAP2 PUSH1 0x20 MUL DUP3 ADD PUSH1 0x0 JUMPDEST DUP4 DUP3 GT ISZERO PUSH2 0x4FF1 JUMPI DUP4 MLOAD DUP4 DUP3 PUSH2 0x100 EXP DUP2 SLOAD DUP2 PUSH4 0xFFFFFFFF MUL NOT AND SWAP1 DUP4 PUSH4 0xFFFFFFFF AND MUL OR SWAP1 SSTORE POP SWAP3 PUSH1 0x20 ADD SWAP3 PUSH1 0x4 ADD PUSH1 0x20 DUP2 PUSH1 0x3 ADD DIV SWAP3 DUP4 ADD SWAP3 PUSH1 0x1 SUB MUL PUSH2 0x4FAD JUMP JUMPDEST DUP1 ISZERO PUSH2 0x4F89 JUMPI DUP3 DUP2 PUSH2 0x100 EXP DUP2 SLOAD SWAP1 PUSH4 0xFFFFFFFF MUL NOT AND SWAP1 SSTORE PUSH1 0x4 ADD PUSH1 0x20 DUP2 PUSH1 0x3 ADD DIV SWAP3 DUP4 ADD SWAP3 PUSH1 0x1 SUB MUL PUSH2 0x4FF1 JUMP JUMPDEST PUSH1 0x40 MLOAD DUP1 PUSH1 0x60 ADD PUSH1 0x40 MSTORE DUP1 PUSH1 0x0 DUP2 MSTORE PUSH1 0x20 ADD PUSH1 0x0 DUP2 MSTORE PUSH1 0x20 ADD PUSH1 0x0 DUP2 MSTORE POP SWAP1 JUMP JUMPDEST PUSH1 0x40 MLOAD DUP1 PUSH2 0x120 ADD PUSH1 0x40 MSTORE DUP1 PUSH1 0x0 DUP2 MSTORE PUSH1 0x20 ADD PUSH1 0x0 DUP2 MSTORE PUSH1 0x20 ADD PUSH1 0x0 DUP2 MSTORE PUSH1 0x20 ADD PUSH1 0x0 DUP2 MSTORE PUSH1 0x20 ADD PUSH1 0x0 DUP2 MSTORE PUSH1 0x20 ADD PUSH1 0x0 DUP2 MSTORE PUSH1 0x20 ADD PUSH1 0x0 DUP2 MSTORE PUSH1 0x20 ADD PUSH1 0x0 DUP2 MSTORE PUSH1 0x20 ADD PUSH1 0x0 DUP2 MSTORE POP SWAP1 JUMP JUMPDEST PUSH1 0x40 MLOAD DUP1 PUSH1 0x20 ADD PUSH1 0x40 MSTORE DUP1 PUSH1 0x1 SWAP1 PUSH1 0x20 DUP3 MUL DUP1 CALLDATASIZE DUP4 CALLDATACOPY POP SWAP2 SWAP3 SWAP2 POP POP JUMP JUMPDEST PUSH1 0x40 MLOAD DUP1 PUSH2 0x100 ADD PUSH1 0x40 MSTORE DUP1 PUSH1 0x0 DUP2 MSTORE PUSH1 0x20 ADD PUSH1 0x0 DUP2 MSTORE PUSH1 0x20 ADD PUSH1 0x0 DUP2 MSTORE PUSH1 0x20 ADD PUSH1 0x0 DUP2 MSTORE PUSH1 0x20 ADD PUSH1 0x0 DUP2 MSTORE PUSH1 0x20 ADD PUSH1 0x0 DUP2 MSTORE PUSH1 0x20 ADD PUSH1 0x0 DUP2 MSTORE PUSH1 0x20 ADD PUSH1 0x0 DUP2 MSTORE POP SWAP1 JUMP JUMPDEST JUMPDEST DUP1 DUP3 GT ISZERO PUSH2 0xD57 JUMPI PUSH1 0x0 DUP2 SSTORE PUSH1 0x1 ADD PUSH2 0x50F2 JUMP JUMPDEST DUP1 MLOAD PUSH2 0x937 DUP2 PUSH2 0x5DD8 JUMP JUMPDEST PUSH1 0x0 DUP3 PUSH1 0x1F DUP4 ADD SLT PUSH2 0x5121 JUMPI DUP1 DUP2 REVERT JUMPDEST DUP2 MLOAD PUSH1 0x20 PUSH2 0x5136 PUSH2 0x5131 DUP4 PUSH2 0x5DBA JUMP JUMPDEST PUSH2 0x5D96 JUMP JUMPDEST DUP3 DUP2 MSTORE DUP2 DUP2 ADD SWAP1 DUP6 DUP4 ADD DUP4 DUP6 MUL DUP8 ADD DUP5 ADD DUP9 LT ISZERO PUSH2 0x5152 JUMPI DUP6 DUP7 REVERT JUMPDEST DUP6 JUMPDEST DUP6 DUP2 LT ISZERO PUSH2 0x5179 JUMPI DUP2 MLOAD PUSH2 0x5167 DUP2 PUSH2 0x5DD8 JUMP JUMPDEST DUP5 MSTORE SWAP3 DUP5 ADD SWAP3 SWAP1 DUP5 ADD SWAP1 PUSH1 0x1 ADD PUSH2 0x5154 JUMP JUMPDEST POP SWAP1 SWAP8 SWAP7 POP POP POP POP POP POP POP JUMP JUMPDEST PUSH1 0x0 PUSH1 0x1F DUP4 DUP2 DUP5 ADD SLT PUSH2 0x5197 JUMPI DUP2 DUP3 REVERT JUMPDEST DUP3 MLOAD PUSH1 0x20 PUSH2 0x51A7 PUSH2 0x5131 DUP4 PUSH2 0x5DBA JUMP JUMPDEST DUP3 DUP2 MSTORE DUP2 DUP2 ADD SWAP1 DUP7 DUP4 ADD DUP7 JUMPDEST DUP6 DUP2 LT ISZERO PUSH2 0x524C JUMPI DUP2 MLOAD DUP10 ADD DUP11 PUSH1 0x3F DUP3 ADD SLT PUSH2 0x51CD JUMPI DUP9 DUP10 REVERT JUMPDEST DUP6 DUP2 ADD MLOAD PUSH8 0xFFFFFFFFFFFFFFFF DUP2 GT ISZERO PUSH2 0x51E3 JUMPI INVALID JUMPDEST PUSH2 0x51F4 DUP2 DUP11 ADD PUSH1 0x1F NOT AND DUP9 ADD PUSH2 0x5D96 JUMP JUMPDEST DUP2 DUP2 MSTORE PUSH1 0x40 DUP14 DUP2 DUP5 DUP7 ADD ADD GT ISZERO PUSH2 0x5209 JUMPI DUP12 DUP13 REVERT JUMPDEST DUP12 JUMPDEST DUP4 DUP2 LT ISZERO PUSH2 0x5226 JUMPI DUP5 DUP2 ADD DUP3 ADD MLOAD DUP4 DUP3 ADD DUP12 ADD MSTORE DUP10 ADD PUSH2 0x520B JUMP JUMPDEST DUP4 DUP2 GT ISZERO PUSH2 0x5236 JUMPI DUP13 DUP11 DUP6 DUP6 ADD ADD MSTORE JUMPDEST POP POP DUP7 MSTORE POP POP SWAP3 DUP5 ADD SWAP3 SWAP1 DUP5 ADD SWAP1 PUSH1 0x1 ADD PUSH2 0x51B3 JUMP JUMPDEST POP SWAP1 SWAP9 SWAP8 POP POP POP POP POP POP POP POP JUMP JUMPDEST PUSH1 0x0 DUP3 PUSH1 0x1F DUP4 ADD SLT PUSH2 0x526A JUMPI DUP1 DUP2 REVERT JUMPDEST PUSH1 0x40 MLOAD PUSH1 0x40 DUP2 ADD DUP2 DUP2 LT PUSH8 0xFFFFFFFFFFFFFFFF DUP3 GT OR ISZERO PUSH2 0x5287 JUMPI INVALID JUMPDEST DUP1 PUSH1 0x40 MSTORE POP DUP1 DUP4 DUP6 PUSH1 0x40 DUP7 ADD GT ISZERO PUSH2 0x529D JUMPI DUP4 DUP5 REVERT JUMPDEST DUP4 JUMPDEST PUSH1 0x2 DUP2 LT ISZERO PUSH2 0x52C8 JUMPI DUP2 CALLDATALOAD PUSH2 0x52B3 DUP2 PUSH2 0x5DF0 JUMP JUMPDEST DUP4 MSTORE PUSH1 0x20 SWAP3 DUP4 ADD SWAP3 SWAP2 SWAP1 SWAP2 ADD SWAP1 PUSH1 0x1 ADD PUSH2 0x529F JUMP JUMPDEST POP SWAP2 SWAP6 SWAP5 POP POP POP POP POP JUMP JUMPDEST PUSH1 0x0 DUP3 PUSH1 0x1F DUP4 ADD SLT PUSH2 0x52E3 JUMPI DUP1 DUP2 REVERT JUMPDEST PUSH1 0x40 MLOAD PUSH1 0x40 DUP2 ADD DUP2 DUP2 LT PUSH8 0xFFFFFFFFFFFFFFFF DUP3 GT OR ISZERO PUSH2 0x5300 JUMPI INVALID JUMPDEST DUP1 PUSH1 0x40 MSTORE POP DUP1 DUP4 DUP6 PUSH1 0x40 DUP7 ADD GT ISZERO PUSH2 0x5316 JUMPI DUP4 DUP5 REVERT JUMPDEST DUP4 JUMPDEST PUSH1 0x2 DUP2 LT ISZERO PUSH2 0x52C8 JUMPI DUP2 MLOAD PUSH2 0x532C DUP2 PUSH2 0x5DF0 JUMP JUMPDEST DUP4 MSTORE PUSH1 0x20 SWAP3 DUP4 ADD SWAP3 SWAP2 SWAP1 SWAP2 ADD SWAP1 PUSH1 0x1 ADD PUSH2 0x5318 JUMP JUMPDEST DUP1 PUSH1 0x40 DUP2 ADD DUP4 LT ISZERO PUSH2 0x907 JUMPI PUSH1 0x0 DUP1 REVERT JUMPDEST PUSH1 0x0 DUP3 PUSH1 0x1F DUP4 ADD SLT PUSH2 0x5362 JUMPI DUP1 DUP2 REVERT JUMPDEST PUSH1 0x40 MLOAD PUSH1 0x40 DUP2 ADD DUP2 DUP2 LT PUSH8 0xFFFFFFFFFFFFFFFF DUP3 GT OR ISZERO PUSH2 0x537F JUMPI INVALID JUMPDEST DUP1 PUSH1 0x40 MSTORE POP DUP1 DUP4 DUP6 PUSH1 0x40 DUP7 ADD GT ISZERO PUSH2 0x5395 JUMPI DUP4 DUP5 REVERT JUMPDEST DUP4 JUMPDEST PUSH1 0x2 DUP2 LT ISZERO PUSH2 0x52C8 JUMPI DUP2 CALLDATALOAD DUP4 MSTORE PUSH1 0x20 SWAP3 DUP4 ADD SWAP3 SWAP1 SWAP2 ADD SWAP1 PUSH1 0x1 ADD PUSH2 0x5397 JUMP JUMPDEST PUSH1 0x0 DUP3 PUSH1 0x1F DUP4 ADD SLT PUSH2 0x53C6 JUMPI DUP1 DUP2 REVERT JUMPDEST PUSH1 0x40 MLOAD PUSH1 0x40 DUP2 ADD DUP2 DUP2 LT PUSH8 0xFFFFFFFFFFFFFFFF DUP3 GT OR ISZERO PUSH2 0x53E3 JUMPI INVALID JUMPDEST DUP1 PUSH1 0x40 MSTORE POP DUP1 DUP4 DUP6 PUSH1 0x40 DUP7 ADD GT ISZERO PUSH2 0x53F9 JUMPI DUP4 DUP5 REVERT JUMPDEST DUP4 JUMPDEST PUSH1 0x2 DUP2 LT ISZERO PUSH2 0x52C8 JUMPI DUP2 MLOAD PUSH2 0x540F DUP2 PUSH2 0x5E00 JUMP JUMPDEST DUP4 MSTORE PUSH1 0x20 SWAP3 DUP4 ADD SWAP3 SWAP2 SWAP1 SWAP2 ADD SWAP1 PUSH1 0x1 ADD PUSH2 0x53FB JUMP JUMPDEST DUP1 CALLDATALOAD PUSH2 0x937 DUP2 PUSH2 0x5DF0 JUMP JUMPDEST DUP1 MLOAD PUSH2 0x937 DUP2 PUSH2 0x5DF0 JUMP JUMPDEST DUP1 MLOAD PUSH2 0x937 DUP2 PUSH2 0x5E00 JUMP JUMPDEST DUP1 CALLDATALOAD PUSH2 0x937 DUP2 PUSH2 0x5E12 JUMP JUMPDEST DUP1 CALLDATALOAD PUSH1 0x1 PUSH1 0x1 PUSH1 0x50 SHL SUB DUP2 AND DUP2 EQ PUSH2 0x937 JUMPI PUSH1 0x0 DUP1 REVERT JUMPDEST DUP1 MLOAD PUSH2 0x937 DUP2 PUSH2 0x5E12 JUMP JUMPDEST PUSH1 0x0 DUP1 PUSH1 0x40 DUP4 DUP6 SUB SLT ISZERO PUSH2 0x5484 JUMPI DUP2 DUP3 REVERT JUMPDEST DUP3 CALLDATALOAD PUSH2 0x548F DUP2 PUSH2 0x5DD8 JUMP JUMPDEST SWAP2 POP PUSH1 0x20 DUP4 ADD CALLDATALOAD PUSH2 0x549F DUP2 PUSH2 0x5DD8 JUMP JUMPDEST DUP1 SWAP2 POP POP SWAP3 POP SWAP3 SWAP1 POP JUMP JUMPDEST PUSH1 0x0 DUP1 PUSH1 0x40 DUP4 DUP6 SUB SLT ISZERO PUSH2 0x54BC JUMPI DUP2 DUP3 REVERT JUMPDEST DUP3 CALLDATALOAD PUSH2 0x54C7 DUP2 PUSH2 0x5DD8 JUMP JUMPDEST SWAP2 POP PUSH1 0x20 DUP4 ADD CALLDATALOAD DUP1 ISZERO ISZERO DUP2 EQ PUSH2 0x549F JUMPI DUP2 DUP3 REVERT JUMPDEST PUSH1 0x0 DUP1 PUSH1 0x0 DUP4 DUP6 SUB PUSH2 0x220 DUP2 SLT ISZERO PUSH2 0x54F1 JUMPI DUP2 DUP3 REVERT JUMPDEST DUP5 CALLDATALOAD PUSH2 0x54FC DUP2 PUSH2 0x5DD8 JUMP JUMPDEST SWAP4 POP PUSH2 0x1E0 PUSH1 0x1F NOT DUP3 ADD DUP2 SGT ISZERO PUSH2 0x5511 JUMPI DUP3 DUP4 REVERT JUMPDEST PUSH2 0x1A0 SWAP2 POP PUSH2 0x551F DUP3 PUSH2 0x5D96 JUMP JUMPDEST PUSH2 0x552B PUSH1 0x20 DUP9 ADD PUSH2 0x5424 JUMP JUMPDEST DUP2 MSTORE PUSH2 0x5539 PUSH1 0x40 DUP9 ADD PUSH2 0x5424 JUMP JUMPDEST PUSH1 0x20 DUP3 ADD MSTORE PUSH1 0x60 DUP8 ADD CALLDATALOAD PUSH1 0x40 DUP3 ADD MSTORE PUSH2 0x5554 PUSH1 0x80 DUP9 ADD PUSH2 0x5424 JUMP JUMPDEST PUSH1 0x60 DUP3 ADD MSTORE PUSH2 0x5565 PUSH1 0xA0 DUP9 ADD PUSH2 0x5445 JUMP JUMPDEST PUSH1 0x80 DUP3 ADD MSTORE PUSH2 0x5576 PUSH1 0xC0 DUP9 ADD PUSH2 0x5445 JUMP JUMPDEST PUSH1 0xA0 DUP3 ADD MSTORE PUSH2 0x5587 PUSH1 0xE0 DUP9 ADD PUSH2 0x5445 JUMP JUMPDEST PUSH1 0xC0 DUP3 ADD MSTORE PUSH2 0x100 PUSH2 0x559A DUP2 DUP10 ADD PUSH2 0x5445 JUMP JUMPDEST PUSH1 0xE0 DUP4 ADD MSTORE PUSH2 0x120 PUSH2 0x55AD DUP2 DUP11 ADD PUSH2 0x5424 JUMP JUMPDEST DUP3 DUP5 ADD MSTORE PUSH2 0x140 SWAP2 POP PUSH2 0x55C2 DUP11 DUP4 DUP12 ADD PUSH2 0x525A JUMP JUMPDEST SWAP1 DUP4 ADD MSTORE PUSH2 0x180 PUSH2 0x55D4 DUP10 DUP3 ADD PUSH2 0x5424 JUMP JUMPDEST DUP3 DUP5 ADD MSTORE PUSH2 0x55E4 DUP11 DUP7 DUP12 ADD PUSH2 0x5352 JUMP JUMPDEST PUSH2 0x160 DUP5 ADD MSTORE PUSH2 0x55F5 DUP5 DUP11 ADD PUSH2 0x5445 JUMP JUMPDEST SWAP1 DUP4 ADD MSTORE POP SWAP4 POP PUSH2 0x560C SWAP2 POP POP PUSH2 0x200 DUP6 ADD PUSH2 0x5450 JUMP JUMPDEST SWAP1 POP SWAP3 POP SWAP3 POP SWAP3 JUMP JUMPDEST PUSH1 0x0 DUP1 PUSH1 0x0 PUSH1 0x60 DUP5 DUP7 SUB SLT ISZERO PUSH2 0x5629 JUMPI DUP1 DUP2 REVERT JUMPDEST DUP4 CALLDATALOAD PUSH2 0x5634 DUP2 PUSH2 0x5DD8 JUMP JUMPDEST SWAP3 POP PUSH1 0x20 DUP5 ADD CALLDATALOAD PUSH2 0x5644 DUP2 PUSH2 0x5DF0 JUMP JUMPDEST SWAP2 POP PUSH2 0x560C PUSH1 0x40 DUP6 ADD PUSH2 0x5450 JUMP JUMPDEST PUSH1 0x0 DUP1 PUSH1 0x0 DUP1 PUSH1 0xC0 DUP6 DUP8 SUB SLT ISZERO PUSH2 0x5667 JUMPI DUP2 DUP3 REVERT JUMPDEST DUP5 CALLDATALOAD PUSH2 0x5672 DUP2 PUSH2 0x5DD8 JUMP JUMPDEST SWAP4 POP PUSH1 0x20 DUP6 ADD CALLDATALOAD SWAP3 POP PUSH2 0x5688 DUP7 PUSH1 0x40 DUP8 ADD PUSH2 0x5341 JUMP JUMPDEST SWAP2 POP PUSH2 0x5697 DUP7 PUSH1 0x80 DUP8 ADD PUSH2 0x5341 JUMP JUMPDEST SWAP1 POP SWAP3 SWAP6 SWAP2 SWAP5 POP SWAP3 POP JUMP JUMPDEST PUSH1 0x0 DUP1 PUSH1 0x0 DUP1 PUSH1 0x0 PUSH2 0x100 DUP7 DUP9 SUB SLT ISZERO PUSH2 0x56BA JUMPI DUP3 DUP4 REVERT JUMPDEST DUP6 CALLDATALOAD PUSH2 0x56C5 DUP2 PUSH2 0x5DD8 JUMP JUMPDEST SWAP5 POP PUSH1 0x20 DUP7 ADD CALLDATALOAD SWAP4 POP PUSH2 0x56DB DUP8 PUSH1 0x40 DUP9 ADD PUSH2 0x5341 JUMP JUMPDEST SWAP3 POP PUSH2 0x56EA DUP8 PUSH1 0x80 DUP9 ADD PUSH2 0x5341 JUMP JUMPDEST SWAP2 POP PUSH2 0x56F9 DUP8 PUSH1 0xC0 DUP9 ADD PUSH2 0x5341 JUMP JUMPDEST SWAP1 POP SWAP3 SWAP6 POP SWAP3 SWAP6 SWAP1 SWAP4 POP JUMP JUMPDEST PUSH1 0x0 DUP1 PUSH1 0x40 DUP4 DUP6 SUB SLT ISZERO PUSH2 0x5717 JUMPI DUP2 DUP3 REVERT JUMPDEST DUP3 CALLDATALOAD PUSH2 0x5722 DUP2 PUSH2 0x5DD8 JUMP JUMPDEST SWAP2 POP PUSH2 0x5730 PUSH1 0x20 DUP5 ADD PUSH2 0x5450 JUMP JUMPDEST SWAP1 POP SWAP3 POP SWAP3 SWAP1 POP JUMP JUMPDEST PUSH1 0x0 PUSH1 0x20 DUP1 DUP4 DUP6 SUB SLT ISZERO PUSH2 0x574B JUMPI DUP2 DUP3 REVERT JUMPDEST DUP3 MLOAD PUSH8 0xFFFFFFFFFFFFFFFF DUP1 DUP3 GT ISZERO PUSH2 0x5762 JUMPI DUP4 DUP5 REVERT JUMPDEST DUP2 DUP6 ADD SWAP2 POP DUP6 PUSH1 0x1F DUP4 ADD SLT PUSH2 0x5775 JUMPI DUP4 DUP5 REVERT JUMPDEST DUP2 MLOAD PUSH2 0x5783 PUSH2 0x5131 DUP3 PUSH2 0x5DBA JUMP JUMPDEST DUP2 DUP2 MSTORE DUP5 DUP2 ADD SWAP1 DUP5 DUP7 ADD DUP8 JUMPDEST DUP5 DUP2 LT ISZERO PUSH2 0x5849 JUMPI DUP2 MLOAD DUP8 ADD PUSH1 0xA0 DUP2 DUP14 SUB PUSH1 0x1F NOT ADD SLT ISZERO PUSH2 0x57AE JUMPI DUP10 DUP11 REVERT JUMPDEST PUSH1 0x40 DUP1 MLOAD PUSH1 0xA0 DUP2 ADD DUP2 DUP2 LT DUP11 DUP3 GT OR ISZERO PUSH2 0x57C4 JUMPI INVALID JUMPDEST DUP3 MSTORE DUP3 DUP12 ADD MLOAD DUP10 DUP2 GT ISZERO PUSH2 0x57D6 JUMPI DUP13 DUP14 REVERT JUMPDEST PUSH2 0x57E4 DUP16 DUP14 DUP4 DUP8 ADD ADD PUSH2 0x5111 JUMP JUMPDEST DUP3 MSTORE POP DUP2 DUP4 ADD MLOAD DUP10 DUP2 GT ISZERO PUSH2 0x57F7 JUMPI DUP13 DUP14 REVERT JUMPDEST PUSH2 0x5805 DUP16 DUP14 DUP4 DUP8 ADD ADD PUSH2 0x5186 JUMP JUMPDEST DUP13 DUP4 ADD MSTORE POP PUSH1 0x60 DUP4 ADD MLOAD DUP3 DUP3 ADD MSTORE PUSH2 0x581F PUSH1 0x80 DUP5 ADD PUSH2 0x5106 JUMP JUMPDEST PUSH1 0x60 DUP3 ADD MSTORE PUSH2 0x5830 PUSH1 0xA0 DUP5 ADD PUSH2 0x5467 JUMP JUMPDEST PUSH1 0x80 DUP3 ADD MSTORE DUP7 MSTORE POP POP SWAP3 DUP8 ADD SWAP3 SWAP1 DUP8 ADD SWAP1 PUSH1 0x1 ADD PUSH2 0x578F JUMP JUMPDEST POP SWAP1 SWAP10 SWAP9 POP POP POP POP POP POP POP POP POP JUMP JUMPDEST PUSH1 0x0 PUSH1 0x20 DUP3 DUP5 SUB SLT ISZERO PUSH2 0x5869 JUMPI DUP1 DUP2 REVERT JUMPDEST POP MLOAD SWAP2 SWAP1 POP JUMP JUMPDEST PUSH1 0x0 PUSH2 0x1E0 DUP3 DUP5 SUB SLT ISZERO PUSH2 0x5882 JUMPI DUP1 DUP2 REVERT JUMPDEST PUSH2 0x588D PUSH2 0x1A0 PUSH2 0x5D96 JUMP JUMPDEST PUSH2 0x5896 DUP4 PUSH2 0x542F JUMP JUMPDEST DUP2 MSTORE PUSH2 0x58A4 PUSH1 0x20 DUP5 ADD PUSH2 0x542F JUMP JUMPDEST PUSH1 0x20 DUP3 ADD MSTORE PUSH2 0x58B5 PUSH1 0x40 DUP5 ADD PUSH2 0x543A JUMP JUMPDEST PUSH1 0x40 DUP3 ADD MSTORE PUSH2 0x58C6 PUSH1 0x60 DUP5 ADD PUSH2 0x542F JUMP JUMPDEST PUSH1 0x60 DUP3 ADD MSTORE PUSH2 0x58D7 PUSH1 0x80 DUP5 ADD PUSH2 0x5467 JUMP JUMPDEST PUSH1 0x80 DUP3 ADD MSTORE PUSH2 0x58E8 PUSH1 0xA0 DUP5 ADD PUSH2 0x5467 JUMP JUMPDEST PUSH1 0xA0 DUP3 ADD MSTORE PUSH2 0x58F9 PUSH1 0xC0 DUP5 ADD PUSH2 0x5467 JUMP JUMPDEST PUSH1 0xC0 DUP3 ADD MSTORE PUSH2 0x590A PUSH1 0xE0 DUP5 ADD PUSH2 0x5467 JUMP JUMPDEST PUSH1 0xE0 DUP3 ADD MSTORE PUSH2 0x100 PUSH2 0x591D DUP2 DUP6 ADD PUSH2 0x542F JUMP JUMPDEST SWAP1 DUP3 ADD MSTORE PUSH2 0x120 PUSH2 0x5930 DUP6 DUP6 DUP4 ADD PUSH2 0x52D3 JUMP JUMPDEST SWAP1 DUP3 ADD MSTORE PUSH2 0x160 PUSH2 0x5942 DUP5 DUP3 ADD PUSH2 0x542F JUMP JUMPDEST PUSH2 0x140 DUP4 ADD MSTORE PUSH2 0x180 PUSH2 0x5957 DUP7 DUP3 DUP8 ADD PUSH2 0x53B6 JUMP JUMPDEST DUP3 DUP5 ADD MSTORE PUSH2 0x5968 PUSH2 0x1C0 DUP7 ADD PUSH2 0x5467 JUMP JUMPDEST SWAP1 DUP4 ADD MSTORE POP SWAP4 SWAP3 POP POP POP JUMP JUMPDEST PUSH1 0x0 DUP1 PUSH1 0x40 DUP4 DUP6 SUB SLT ISZERO PUSH2 0x5986 JUMPI DUP2 DUP3 REVERT JUMPDEST POP POP DUP1 MLOAD PUSH1 0x20 SWAP1 SWAP2 ADD MLOAD SWAP1 SWAP3 SWAP1 SWAP2 POP JUMP JUMPDEST PUSH1 0x0 PUSH1 0x20 DUP3 DUP5 SUB SLT ISZERO PUSH2 0x59A8 JUMPI DUP1 DUP2 REVERT JUMPDEST DUP2 CALLDATALOAD PUSH2 0x201A DUP2 PUSH2 0x5E00 JUMP JUMPDEST DUP1 PUSH1 0x0 JUMPDEST PUSH1 0x2 DUP2 LT ISZERO PUSH2 0x1FED JUMPI DUP2 MLOAD PUSH2 0xFFFF AND DUP5 MSTORE PUSH1 0x20 SWAP4 DUP5 ADD SWAP4 SWAP1 SWAP2 ADD SWAP1 PUSH1 0x1 ADD PUSH2 0x59B7 JUMP JUMPDEST DUP1 PUSH1 0x0 JUMPDEST PUSH1 0x2 DUP2 LT ISZERO PUSH2 0x1FED JUMPI DUP2 MLOAD DUP5 MSTORE PUSH1 0x20 SWAP4 DUP5 ADD SWAP4 SWAP1 SWAP2 ADD SWAP1 PUSH1 0x1 ADD PUSH2 0x59DE JUMP JUMPDEST PUSH1 0x0 DUP2 MLOAD DUP1 DUP5 MSTORE PUSH1 0x20 DUP1 DUP6 ADD SWAP5 POP DUP1 DUP5 ADD DUP4 JUMPDEST DUP4 DUP2 LT ISZERO PUSH2 0x5A2C JUMPI DUP2 MLOAD DUP8 MSTORE SWAP6 DUP3 ADD SWAP6 SWAP1 DUP3 ADD SWAP1 PUSH1 0x1 ADD PUSH2 0x5A10 JUMP JUMPDEST POP SWAP5 SWAP6 SWAP5 POP POP POP POP POP JUMP JUMPDEST PUSH2 0xFFFF AND SWAP1 MSTORE JUMP JUMPDEST PUSH1 0xFF AND SWAP1 MSTORE JUMP JUMPDEST PUSH1 0x1 PUSH1 0x1 PUSH1 0xA0 SHL SUB SWAP2 SWAP1 SWAP2 AND DUP2 MSTORE PUSH1 0x20 ADD SWAP1 JUMP JUMPDEST PUSH1 0x1 PUSH1 0x1 PUSH1 0xA0 SHL SUB SWAP4 DUP5 AND DUP2 MSTORE SWAP2 SWAP1 SWAP3 AND PUSH1 0x20 DUP3 ADD MSTORE PUSH1 0x40 DUP2 ADD SWAP2 SWAP1 SWAP2 MSTORE PUSH1 0x60 ADD SWAP1 JUMP JUMPDEST PUSH1 0x1 PUSH1 0x1 PUSH1 0xA0 SHL SUB SWAP3 SWAP1 SWAP3 AND DUP3 MSTORE PUSH1 0x20 DUP3 ADD MSTORE PUSH1 0x40 ADD SWAP1 JUMP JUMPDEST PUSH1 0x40 DUP2 ADD DUP2 DUP4 PUSH1 0x0 JUMPDEST PUSH1 0x2 DUP2 LT ISZERO PUSH2 0x5ABF JUMPI DUP2 MLOAD DUP4 MSTORE PUSH1 0x20 SWAP3 DUP4 ADD SWAP3 SWAP1 SWAP2 ADD SWAP1 PUSH1 0x1 ADD PUSH2 0x5AA0 JUMP JUMPDEST POP POP POP SWAP3 SWAP2 POP POP JUMP JUMPDEST PUSH1 0x0 PUSH1 0x40 DUP3 MSTORE PUSH2 0x5ADB PUSH1 0x40 DUP4 ADD DUP6 PUSH2 0x59FD JUMP JUMPDEST DUP3 DUP2 SUB PUSH1 0x20 DUP5 ADD MSTORE PUSH2 0x1BBF DUP2 DUP6 PUSH2 0x59FD JUMP JUMPDEST SWAP1 ISZERO ISZERO DUP2 MSTORE PUSH1 0x20 ADD SWAP1 JUMP JUMPDEST SWAP2 ISZERO ISZERO DUP3 MSTORE PUSH1 0x1 PUSH1 0x1 PUSH1 0x50 SHL SUB AND PUSH1 0x20 DUP3 ADD MSTORE PUSH1 0x40 ADD SWAP1 JUMP JUMPDEST PUSH1 0x20 DUP1 DUP3 MSTORE PUSH1 0xD SWAP1 DUP3 ADD MSTORE PUSH13 0x109BDC9C9BDDC811985A5B1959 PUSH1 0x9A SHL PUSH1 0x40 DUP3 ADD MSTORE PUSH1 0x60 ADD SWAP1 JUMP JUMPDEST PUSH1 0x20 DUP1 DUP3 MSTORE PUSH1 0xB SWAP1 DUP3 ADD MSTORE PUSH11 0x4554482042616C616E6365 PUSH1 0xA8 SHL PUSH1 0x40 DUP3 ADD MSTORE PUSH1 0x60 ADD SWAP1 JUMP JUMPDEST PUSH1 0x20 DUP1 DUP3 MSTORE PUSH1 0xD SWAP1 DUP3 ADD MSTORE PUSH13 0x92DCECC2D8D2C840D2DCC8CAF PUSH1 0x9B SHL PUSH1 0x40 DUP3 ADD MSTORE PUSH1 0x60 ADD SWAP1 JUMP JUMPDEST PUSH1 0x20 DUP1 DUP3 MSTORE PUSH1 0x1D SWAP1 DUP3 ADD MSTORE PUSH32 0x496E73756666696369656E74205365636F6E6461727920426F72726F77000000 PUSH1 0x40 DUP3 ADD MSTORE PUSH1 0x60 ADD SWAP1 JUMP JUMPDEST PUSH1 0x20 DUP1 DUP3 MSTORE PUSH1 0xC SWAP1 DUP3 ADD MSTORE PUSH12 0x4D6178204361706163697479 PUSH1 0xA0 SHL PUSH1 0x40 DUP3 ADD MSTORE PUSH1 0x60 ADD SWAP1 JUMP JUMPDEST PUSH1 0x20 DUP1 DUP3 MSTORE PUSH1 0xA SWAP1 DUP3 ADD MSTORE PUSH10 0x6D696E20626F72726F77 PUSH1 0xB0 SHL PUSH1 0x40 DUP3 ADD MSTORE PUSH1 0x60 ADD SWAP1 JUMP JUMPDEST PUSH1 0x20 DUP1 DUP3 MSTORE DUP2 DUP2 ADD MSTORE PUSH32 0x4F776E61626C653A2063616C6C6572206973206E6F7420746865206F776E6572 PUSH1 0x40 DUP3 ADD MSTORE PUSH1 0x60 ADD SWAP1 JUMP JUMPDEST PUSH1 0x0 PUSH2 0x1E0 DUP3 ADD SWAP1 POP PUSH2 0x5C4E DUP3 DUP5 MLOAD PUSH2 0x5A37 JUMP JUMPDEST PUSH1 0x20 DUP4 ADD MLOAD PUSH2 0x5C60 PUSH1 0x20 DUP5 ADD DUP3 PUSH2 0x5A37 JUMP JUMPDEST POP PUSH1 0x40 DUP4 ADD MLOAD PUSH1 0x40 DUP4 ADD MSTORE PUSH1 0x60 DUP4 ADD MLOAD PUSH2 0x5C7D PUSH1 0x60 DUP5 ADD DUP3 PUSH2 0x5A37 JUMP JUMPDEST POP PUSH1 0x80 DUP4 ADD MLOAD PUSH2 0x5C90 PUSH1 0x80 DUP5 ADD DUP3 PUSH2 0x5A3F JUMP JUMPDEST POP PUSH1 0xA0 DUP4 ADD MLOAD PUSH2 0x5CA3 PUSH1 0xA0 DUP5 ADD DUP3 PUSH2 0x5A3F JUMP JUMPDEST POP PUSH1 0xC0 DUP4 ADD MLOAD PUSH2 0x5CB6 PUSH1 0xC0 DUP5 ADD DUP3 PUSH2 0x5A3F JUMP JUMPDEST POP PUSH1 0xE0 DUP4 ADD MLOAD PUSH2 0x5CC9 PUSH1 0xE0 DUP5 ADD DUP3 PUSH2 0x5A3F JUMP JUMPDEST POP PUSH2 0x100 DUP1 DUP5 ADD MLOAD PUSH2 0x5CDD DUP3 DUP6 ADD DUP3 PUSH2 0x5A37 JUMP JUMPDEST POP POP PUSH2 0x120 DUP1 DUP5 ADD MLOAD PUSH2 0x5CF2 DUP3 DUP6 ADD DUP3 PUSH2 0x59B3 JUMP JUMPDEST POP POP PUSH2 0x140 DUP4 ADD MLOAD PUSH2 0x160 PUSH2 0x5D09 DUP2 DUP6 ADD DUP4 PUSH2 0x5A37 JUMP JUMPDEST DUP5 ADD MLOAD SWAP1 POP PUSH2 0x180 PUSH2 0x5D1D DUP5 DUP3 ADD DUP4 PUSH2 0x59DA JUMP JUMPDEST DUP5 ADD MLOAD SWAP1 POP PUSH2 0x3F4A PUSH2 0x1C0 DUP5 ADD DUP3 PUSH2 0x5A3F JUMP JUMPDEST PUSH2 0xFFFF SWAP4 SWAP1 SWAP4 AND DUP4 MSTORE PUSH1 0x1 PUSH1 0x1 PUSH1 0xA0 SHL SUB SWAP2 SWAP1 SWAP2 AND PUSH1 0x20 DUP4 ADD MSTORE PUSH1 0x40 DUP3 ADD MSTORE PUSH1 0x60 ADD SWAP1 JUMP JUMPDEST SWAP1 DUP2 MSTORE PUSH1 0x20 ADD SWAP1 JUMP JUMPDEST SWAP2 DUP3 MSTORE PUSH1 0x20 DUP3 ADD MSTORE PUSH1 0x40 ADD SWAP1 JUMP JUMPDEST SWAP3 DUP4 MSTORE PUSH1 0x20 DUP4 ADD SWAP2 SWAP1 SWAP2 MSTORE PUSH1 0x40 DUP3 ADD MSTORE PUSH1 0x60 ADD SWAP1 JUMP JUMPDEST PUSH1 0x1 PUSH1 0x1 PUSH1 0x50 SHL SUB SWAP2 SWAP1 SWAP2 AND DUP2 MSTORE PUSH1 0x20 ADD SWAP1 JUMP JUMPDEST PUSH1 0x40 MLOAD DUP2 DUP2 ADD PUSH8 0xFFFFFFFFFFFFFFFF DUP2 GT DUP3 DUP3 LT OR ISZERO PUSH2 0x5DB2 JUMPI INVALID JUMPDEST PUSH1 0x40 MSTORE SWAP2 SWAP1 POP JUMP JUMPDEST PUSH1 0x0 PUSH8 0xFFFFFFFFFFFFFFFF DUP3 GT ISZERO PUSH2 0x5DCE JUMPI INVALID JUMPDEST POP PUSH1 0x20 SWAP1 DUP2 MUL ADD SWAP1 JUMP JUMPDEST PUSH1 0x1 PUSH1 0x1 PUSH1 0xA0 SHL SUB DUP2 AND DUP2 EQ PUSH2 0x5DED JUMPI PUSH1 0x0 DUP1 REVERT JUMPDEST POP JUMP JUMPDEST PUSH2 0xFFFF DUP2 AND DUP2 EQ PUSH2 0x5DED JUMPI PUSH1 0x0 DUP1 REVERT JUMPDEST PUSH4 0xFFFFFFFF DUP2 AND DUP2 EQ PUSH2 0x5DED JUMPI PUSH1 0x0 DUP1 REVERT JUMPDEST PUSH1 0xFF DUP2 AND DUP2 EQ PUSH2 0x5DED JUMPI PUSH1 0x0 DUP1 REVERT INVALID 0xC3 0xD5 DUP2 PUSH9 0xC5AE7397731D063D5B 0xBF RETURNDATASIZE PUSH6 0x7854427343F4 0xC0 DUP4 0x24 0xF PUSH27 0xACAA2D0F62A264697066735822122028249430AFB90E03948CB861 ADDRESS ADDMOD MUL EXTCODECOPY SWAP7 0x4F 0x27 AND 0xD7 0xD9 DUP5 0xAE XOR SWAP7 0xB4 0xBA 0xC4 0xB1 0xA8 PUSH9 0x64736F6C6343000706 STOP CALLER ","sha1":"91f0c8b348f9f6e4d4c2b177f13c0c3aba252f3a","source":"// SPDX-License-Identifier: BSUL-1.1\npragma solidity =0.7.6;\npragma abicoder v2;\n\nimport {\n    VaultState,\n    VaultConfig,\n    VaultConfigStorage,\n    VaultConfigParams,\n    VaultStateStorage,\n    VaultBorrowCapacityStorage,\n    VaultAccount,\n    Token,\n    PrimeRate\n} from \"../../global/Types.sol\";\nimport {Constants} from \"../../global/Constants.sol\";\nimport {LibStorage} from \"../../global/LibStorage.sol\";\nimport {SafeUint256} from \"../../math/SafeUint256.sol\";\nimport {SafeInt256} from \"../../math/SafeInt256.sol\";\nimport {FloatingPoint} from \"../../math/FloatingPoint.sol\";\n\nimport {Emitter} from \"../../internal/Emitter.sol\";\nimport {PrimeRateLib} from \"../../internal/pCash/PrimeRateLib.sol\";\nimport {PrimeCashExchangeRate} from \"../../internal/pCash/PrimeCashExchangeRate.sol\";\nimport {TokenHandler} from \"../../internal/balances/TokenHandler.sol\";\nimport {VaultConfiguration} from \"../../internal/vaults/VaultConfiguration.sol\";\nimport {VaultAccountLib} from \"../../internal/vaults/VaultAccount.sol\";\nimport {VaultStateLib} from \"../../internal/vaults/VaultState.sol\";\nimport {VaultSecondaryBorrow} from \"../../internal/vaults/VaultSecondaryBorrow.sol\";\n\nimport {IVaultAction, IVaultAccountHealth} from \"../../../interfaces/notional/IVaultController.sol\";\nimport {ActionGuards} from \"./ActionGuards.sol\";\nimport {TradingAction} from \"./TradingAction.sol\";\n\ncontract VaultAction is ActionGuards, IVaultAction {\n    using VaultConfiguration for VaultConfig;\n    using VaultAccountLib for VaultAccount;\n    using VaultStateLib for VaultState;\n    using PrimeRateLib for PrimeRate;\n    using TokenHandler for Token;\n    using SafeInt256 for int256;\n    using SafeUint256 for uint256;\n\n    /// @notice Updates or lists a deployed vault along with its configuration.\n    /// @param vaultAddress address of deployed vault\n    /// @param vaultParams struct of vault configuration\n    /// @param maxPrimaryBorrowCapacity maximum borrow capacity\n    function updateVault(\n        address vaultAddress,\n        VaultConfigParams memory vaultParams,\n        uint80 maxPrimaryBorrowCapacity\n    ) external override onlyOwner {\n        // Vault Params have borrow sizes specified in full unit precision. Before they are written to\n        // storage they are packed to 32 bits. This functions like the total prime supply in underlying.\n        vaultParams.minAccountBorrowSize = FloatingPoint.packTo32Bits(vaultParams.minAccountBorrowSize);\n        vaultParams.minAccountSecondaryBorrow[0] = FloatingPoint.packTo32Bits(vaultParams.minAccountSecondaryBorrow[0]);\n        vaultParams.minAccountSecondaryBorrow[1] = FloatingPoint.packTo32Bits(vaultParams.minAccountSecondaryBorrow[1]);\n        VaultConfigStorage memory vaultConfig = abi.decode(abi.encode(vaultParams), (VaultConfigStorage));\n\n        VaultConfiguration.setVaultConfig(vaultAddress, vaultConfig);\n        VaultConfiguration.setMaxBorrowCapacity(vaultAddress, vaultConfig.borrowCurrencyId, maxPrimaryBorrowCapacity);\n        bool enabled = (vaultConfig.flags & VaultConfiguration.ENABLED) == VaultConfiguration.ENABLED;\n        emit VaultUpdated(vaultAddress, enabled, maxPrimaryBorrowCapacity);\n    }\n\n    /// @notice Enables or disables a vault. If a vault is disabled, no one can enter\n    /// the vault but exits are still possible.\n    /// @param vaultAddress address of deployed vault\n    /// @param enable true if the vault should be enabled immediately\n    function setVaultPauseStatus(\n        address vaultAddress,\n        bool enable\n    ) external override onlyOwner {\n        VaultConfiguration.setVaultEnabledStatus(vaultAddress, enable);\n        emit VaultPauseStatus(vaultAddress, enable);\n    }\n\n    /// @notice Enables or disables deleverage on a vault.\n    /// @param vaultAddress address of deployed vault\n    /// @param disableDeleverage true if the vault deleverage should be disabled\n    function setVaultDeleverageStatus(\n        address vaultAddress,\n        bool disableDeleverage\n    ) external override onlyOwner {\n        VaultConfiguration.setVaultDeleverageStatus(vaultAddress, disableDeleverage);\n        emit VaultDeleverageStatus(vaultAddress, disableDeleverage);\n    }\n\n    /// @notice Whitelists a secondary borrow currency for a vault, vaults can borrow up to the capacity\n    /// using the `borrowSecondaryCurrencyToVault` and `repaySecondaryCurrencyToVault` methods. Vaults that\n    /// use a secondary currency must ALWAYS repay the secondary debt during redemption and handle accounting\n    /// for the secondary currency themselves.\n    /// @param vaultAddress address of deployed vault\n    /// @param secondaryCurrencyId struct of vault configuration\n    /// @param maxBorrowCapacity maximum borrow capacity\n    function updateSecondaryBorrowCapacity(\n        address vaultAddress,\n        uint16 secondaryCurrencyId,\n        uint80 maxBorrowCapacity\n    ) external override onlyOwner {\n        VaultConfig memory vaultConfig = VaultConfiguration.getVaultConfigStateful(vaultAddress);\n        // Tokens with transfer fees create lots of issues with vault mechanics, we prevent them\n        // from being listed here.\n        Token memory underlyingToken = TokenHandler.getUnderlyingToken(secondaryCurrencyId);\n        require(!underlyingToken.hasTransferFee); \n\n        // The secondary borrow currency must be white listed on the configuration before we can set a max\n        // capacity.\n        require(\n            secondaryCurrencyId == vaultConfig.secondaryBorrowCurrencies[0] ||\n            secondaryCurrencyId == vaultConfig.secondaryBorrowCurrencies[1]\n        );\n\n        VaultConfiguration.setMaxBorrowCapacity(vaultAddress, secondaryCurrencyId, maxBorrowCapacity);\n        emit VaultUpdateSecondaryBorrowCapacity(vaultAddress, secondaryCurrencyId, maxBorrowCapacity);\n    }\n\n\n    /// @notice Allows the owner to reduce the max borrow capacity on the vault\n    /// @param vaultAddress address of the vault\n    /// @param maxVaultBorrowCapacity the new max vault borrow capacity on the primary currency\n    function setMaxBorrowCapacity(\n        address vaultAddress,\n        uint80 maxVaultBorrowCapacity\n    ) external override onlyOwner {\n        VaultConfig memory vaultConfig = VaultConfiguration.getVaultConfigStateful(vaultAddress);\n        VaultConfiguration.setMaxBorrowCapacity(vaultAddress, vaultConfig.borrowCurrencyId, maxVaultBorrowCapacity);\n\n        emit VaultUpdated(vaultAddress, vaultConfig.getFlag(VaultConfiguration.ENABLED), maxVaultBorrowCapacity);\n    }\n\n    /// @notice Allows a vault to borrow a secondary currency if it is whitelisted to do so\n    /// @param account account that is borrowing the secondary currency\n    /// @param maturity the maturity to borrow at\n    /// @param underlyingToBorrow fCash to borrow for the first and second secondary currencies\n    /// @param maxBorrowRate maximum borrow rate for the first and second secondary currencies\n    /// @param minRollLendRate max roll lend rate for the first and second borrow currencies\n    /// @return underlyingTokensTransferred amount of tokens transferred back to the vault\n    function borrowSecondaryCurrencyToVault(\n        address account,\n        uint256 maturity,\n        uint256[2] calldata underlyingToBorrow,\n        uint32[2] calldata maxBorrowRate,\n        uint32[2] calldata minRollLendRate\n    ) external override returns (int256[2] memory underlyingTokensTransferred) {\n        // This method call must come from the vault\n        VaultConfig memory vaultConfig = VaultConfiguration.getVaultConfigStateful(msg.sender);\n        // This also ensures that the caller is an actual vault\n        require(vaultConfig.getFlag(VaultConfiguration.ENABLED));\n        // Vaults cannot initiate borrows for themselves\n        require(account != msg.sender);\n        require(vaultConfig.hasSecondaryBorrows());\n\n        PrimeRate[2] memory pr = VaultSecondaryBorrow.getSecondaryPrimeRateStateful(vaultConfig);\n        (\n            uint256 accountMaturity,\n            int256 accountDebtOne,\n            int256 accountDebtTwo\n        ) = VaultSecondaryBorrow.getAccountSecondaryDebt(vaultConfig, account, pr);\n        \n        int256 netPrimeCashOne;\n        int256 netPrimeCashTwo;\n        // If the borrower is rolling their primary debt forward, we need to check that here and roll\n        // their secondary debt forward in the same manner (simulate lending and then borrow more in\n        // a longer dated maturity to repay their borrowing). Rolling debts forward can only occur if:\n        //  - borrower has an existing debt position\n        //  - borrower is rolling to a longer dated maturity\n        //  - vault allows rolling positions forward\n        if (\n            accountMaturity != 0 &&\n            accountMaturity != maturity &&\n            vaultConfig.getFlag(VaultConfiguration.ALLOW_ROLL_POSITION)\n        ) {\n            // Lend to repay both debts if rolling\n            (netPrimeCashOne, netPrimeCashTwo) = VaultSecondaryBorrow.executeSecondary(\n                vaultConfig,\n                account,\n                accountMaturity,\n                accountDebtOne.neg(),\n                accountDebtTwo.neg(),\n                pr,\n                minRollLendRate\n            );\n        }\n\n        (netPrimeCashOne, netPrimeCashTwo) = _borrowSecondary(\n            vaultConfig, account, maturity, underlyingToBorrow, maxBorrowRate, netPrimeCashOne, netPrimeCashTwo, pr\n        );\n        require(netPrimeCashOne >= 0, \"Insufficient Secondary Borrow\");\n        require(netPrimeCashTwo >= 0, \"Insufficient Secondary Borrow\");\n\n        underlyingTokensTransferred[0] = _transferSecondary(\n            msg.sender, account, vaultConfig.secondaryBorrowCurrencies[0], netPrimeCashOne, pr[0], false\n        );\n        underlyingTokensTransferred[1] = _transferSecondary(\n            msg.sender, account, vaultConfig.secondaryBorrowCurrencies[1], netPrimeCashTwo, pr[1], false\n        );\n    }\n\n    function _borrowSecondary(\n        VaultConfig memory vaultConfig,\n        address account,\n        uint256 maturity,\n        uint256[2] calldata underlyingToBorrow,\n        uint32[2] calldata maxBorrowRate,\n        int256 netPrimeCashOne,\n        int256 netPrimeCashTwo,\n        PrimeRate[2] memory pr\n    ) private returns (int256, int256) {\n        (int256 netPrimeBorrowedOne, int256 netPrimeBorrowedTwo) = VaultSecondaryBorrow.executeSecondary(\n            vaultConfig,\n            account,\n            maturity,\n            underlyingToBorrow[0].toInt().neg(),\n            underlyingToBorrow[1].toInt().neg(),\n            pr,\n            maxBorrowRate\n        );\n\n        return (\n            netPrimeCashOne.add(netPrimeBorrowedOne),\n            netPrimeCashTwo.add(netPrimeBorrowedTwo)\n        );\n    }\n\n    /// @notice Allows a vault to repay a secondary currency that it has borrowed. Will be executed via a callback\n    /// which will request that the vault repay a specific amount of underlying tokens.\n    /// @param account account that is repaying the secondary currency\n    /// @param maturity the maturity to lend at\n    /// @param underlyingToRepay amount of debt shares to repay (used to calculate fCashToLend)\n    /// @param minLendRate minimum lend rate\n    /// @return underlyingDepositExternal the amount of underlying transferred from the vault\n    function repaySecondaryCurrencyFromVault(\n        address account,\n        uint256 maturity,\n        uint256[2] calldata underlyingToRepay,\n        uint32[2] calldata minLendRate\n    ) external payable override returns (int256[2] memory underlyingDepositExternal) {\n        // Vaults cannot repay borrows for themselves\n        require(account != msg.sender);\n\n        // This method call must come from the vault\n        VaultConfig memory vaultConfig = VaultConfiguration.getVaultConfigStateful(msg.sender);\n        require(vaultConfig.getFlag(VaultConfiguration.ENABLED));\n        require(vaultConfig.hasSecondaryBorrows());\n\n        PrimeRate[2] memory pr = VaultSecondaryBorrow.getSecondaryPrimeRateStateful(vaultConfig);\n        // It is possible for netPrimeCash to be positive here, where the vault will receive tokens\n        // as a result of \"repayment\"\n        (int256 netPrimeCashOne, int256 netPrimeCashTwo) = VaultSecondaryBorrow.executeSecondary(\n            vaultConfig,\n            account,\n            maturity,\n            underlyingToRepay[0].toInt(),\n            underlyingToRepay[1].toInt(),\n            pr,\n            minLendRate\n        );\n\n        underlyingDepositExternal[0] = _transferSecondary(\n            msg.sender, account, vaultConfig.secondaryBorrowCurrencies[0], netPrimeCashOne, pr[0], true\n        );\n        underlyingDepositExternal[1] = _transferSecondary(\n            msg.sender, account, vaultConfig.secondaryBorrowCurrencies[1], netPrimeCashTwo, pr[1], true\n        );\n    }\n\n    function settleSecondaryBorrowForAccount(\n        address vault,\n        address account\n    ) external override {\n        // Only allow this to be called during settle vault account. Cannot be called directly.\n        require(msg.sender == address(this)); // dev: unauthorized\n        VaultConfig memory vaultConfig = VaultConfiguration.getVaultConfigStateful(vault);\n        VaultSecondaryBorrow.settleSecondaryBorrow(vaultConfig, account);\n    }\n\n    function _transferSecondary(\n        address vault,\n        address account,\n        uint16 currencyId,\n        int256 netPrimeCash,\n        PrimeRate memory pr,\n        bool isRepayment\n    ) private returns (int256 underlyingTokensTransferred) {\n\n        // ETH transfers to the vault are always in native ETH, not wrapped\n        if (netPrimeCash > 0 && isRepayment) {\n            // If there is a refund to the account during repayment, then send the\n            // excess tokens back to the account directly. In that case we need to:\n\n            // Burn Vault Cash on the account (has occurred already)\n            // Transfer prime cash to the account\n            // Burn Prime Cash on the account (will occur in transfer from notional)\n            // NOTE: this does not go to receiver...\n            Emitter.emitTransferPrimeCash(vault, account, currencyId, netPrimeCash);\n            VaultConfiguration.transferFromNotional(account, currencyId, netPrimeCash, pr, false);\n        } else if (netPrimeCash > 0) {\n            underlyingTokensTransferred = VaultConfiguration.transferFromNotional(\n                vault, currencyId, netPrimeCash, pr, false\n            ).toInt().neg();\n        } else {\n            underlyingTokensTransferred = TokenHandler.depositExactToMintPrimeCash(\n                vault, currencyId, netPrimeCash.neg(), pr, false\n            );\n        }\n    }\n\n\n    function getLibInfo() external pure returns (address) {\n        return address(TradingAction);\n    }\n}","sourcePath":"contracts/external/actions/VaultAction.sol","type":"contract","deployment":{"address":"0x2BB7Db675d66060BE4181D589470b3f787bf7298","chainid":"42161","blockHeight":182818230}}