{"abi":[{"inputs":[{"internalType":"contract NotionalProxy","name":"notional_","type":"address"},{"internalType":"address","name":"lendingPool_","type":"address"},{"internalType":"address","name":"weth_","type":"address"},{"internalType":"address","name":"owner_","type":"address"},{"internalType":"address","name":"tradingModule_","type":"address"}],"stateMutability":"nonpayable","type":"constructor","name":"constructor"},{"inputs":[],"name":"LENDING_POOL","outputs":[{"internalType":"address","name":"","type":"address"}],"stateMutability":"view","type":"function"},{"inputs":[],"name":"NOTIONAL","outputs":[{"internalType":"contract NotionalProxy","name":"","type":"address"}],"stateMutability":"view","type":"function"},{"inputs":[],"name":"TRADING_MODULE","outputs":[{"internalType":"contract ITradingModule","name":"","type":"address"}],"stateMutability":"view","type":"function"},{"inputs":[],"name":"WETH","outputs":[{"internalType":"contract WETH9","name":"","type":"address"}],"stateMutability":"view","type":"function"},{"inputs":[{"internalType":"address[]","name":"tokens","type":"address[]"},{"internalType":"address","name":"spender","type":"address"}],"name":"approveTokens","outputs":[],"stateMutability":"nonpayable","type":"function"},{"inputs":[{"internalType":"uint16[]","name":"currencies","type":"uint16[]"}],"name":"enableCurrencies","outputs":[],"stateMutability":"nonpayable","type":"function"},{"inputs":[{"internalType":"address[]","name":"assets","type":"address[]"},{"internalType":"uint256[]","name":"amounts","type":"uint256[]"},{"internalType":"uint256[]","name":"premiums","type":"uint256[]"},{"internalType":"address","name":"initiator","type":"address"},{"internalType":"bytes","name":"params","type":"bytes"}],"name":"executeOperation","outputs":[{"internalType":"bool","name":"","type":"bool"}],"stateMutability":"nonpayable","type":"function"},{"inputs":[{"internalType":"address","name":"asset","type":"address"},{"internalType":"uint256","name":"amount","type":"uint256"},{"internalType":"bytes","name":"params","type":"bytes"},{"internalType":"address","name":"localAddress","type":"address"},{"internalType":"address","name":"collateralAddress","type":"address"}],"name":"flashLoan","outputs":[{"internalType":"uint256","name":"flashLoanResidual","type":"uint256"},{"internalType":"uint256","name":"localProfit","type":"uint256"},{"internalType":"uint256","name":"collateralProfit","type":"uint256"}],"stateMutability":"nonpayable","type":"function"},{"inputs":[{"internalType":"address","name":"account","type":"address"}],"name":"getFreeCollateral","outputs":[{"internalType":"int256","name":"","type":"int256"},{"internalType":"int256[]","name":"","type":"int256[]"}],"stateMutability":"nonpayable","type":"function"},{"inputs":[],"name":"ifCashCurrencyId","outputs":[{"internalType":"uint16","name":"","type":"uint16"}],"stateMutability":"view","type":"function"},{"inputs":[],"name":"owner","outputs":[{"internalType":"address","name":"","type":"address"}],"stateMutability":"view","type":"function"},{"inputs":[{"internalType":"address","name":"newOwner","type":"address"}],"name":"transferOwnership","outputs":[],"stateMutability":"nonpayable","type":"function"},{"inputs":[{"internalType":"address","name":"token","type":"address"},{"internalType":"uint256","name":"amount","type":"uint256"}],"name":"withdraw","outputs":[],"stateMutability":"nonpayable","type":"function"},{"inputs":[],"name":"wrapToWETH","outputs":[],"stateMutability":"nonpayable","type":"function"},{"stateMutability":"payable","type":"receive"}],"bytecode":"6101006040523480156200001257600080fd5b5060405162003fd138038062003fd1833981016040819052620000359162000086565b6001600160601b0319606095861b811660805292851b831660a052600180546001600160a01b039093166001600160a01b03199093169290921790915591831b811660c052911b1660e0526200011e565b600080600080600060a086880312156200009e578081fd5b8551620000ab8162000105565b6020870151909550620000be8162000105565b6040870151909450620000d18162000105565b6060870151909350620000e48162000105565b6080870151909250620000f78162000105565b809150509295509295909350565b6001600160a01b03811681146200011b57600080fd5b50565b60805160601c60a05160601c60c05160601c60e05160601c613dea620001e760003980610e3e5280610ef45280610f2d52508061030a52806108b15280610b595280611ac252508061034652806103a152806105f452806106c7528061072352806108185280610e625280611a9c5250806102c2528061096652806109f752806110285280611068528061111a528061129c528061132c52806114ff52806115b8528061175d52806117ed52806120b95280612476528061254c52806126045250613dea6000f3fe6080604052600436106100e15760003560e01c8063b4dcfc771161007f578063d99a9c9c11610059578063d99a9c9c1461022b578063f2fde38b1461025a578063f3fef3a31461027a578063fc2db7171461029a576100e8565b8063b4dcfc77146101c8578063c2243379146101dd578063c3999444146101fd576100e8565b80638da5cb5b116100bb5780638da5cb5b14610151578063920f5c8414610166578063ad5c464814610193578063b12ffdad146101a8576100e8565b806306c63840146100ed578063858dccb3146101185780638a3843e01461013a576100e8565b366100e857005b600080fd5b3480156100f957600080fd5b506101026102af565b60405161010f9190613bf0565b60405180910390f35b34801561012457600080fd5b5061012d6102c0565b60405161010f91906137aa565b34801561014657600080fd5b5061014f6102e4565b005b34801561015d57600080fd5b5061012d6102ee565b34801561017257600080fd5b50610186610181366004613021565b6102fd565b60405161010f9190613b1e565b34801561019f57600080fd5b5061012d610816565b3480156101b457600080fd5b5061014f6101c336600461313a565b61083a565b3480156101d457600080fd5b5061012d6108af565b3480156101e957600080fd5b5061014f6101f8366004612fcd565b6108d3565b34801561020957600080fd5b5061021d610218366004612ee8565b610960565b60405161010f929190613b29565b34801561023757600080fd5b5061024b610246366004612f4b565b610a8b565b60405161010f93929190613c58565b34801561026657600080fd5b5061014f610275366004612ee8565b610dac565b34801561028657600080fd5b5061014f610295366004612f20565b610e1e565b3480156102a657600080fd5b5061012d610e3c565b600154600160a01b900461ffff1681565b7f000000000000000000000000000000000000000000000000000000000000000081565b6102ec610e60565b565b6001546001600160a01b031681565b6000336001600160a01b037f0000000000000000000000000000000000000000000000000000000000000000161461033457600080fd5b6000610342838501856133e6565b90507f00000000000000000000000000000000000000000000000000000000000000006001600160a01b03168b8b600081811061037b57fe5b90506020020160208101906103909190612ee8565b6001600160a01b03161415610431577f00000000000000000000000000000000000000000000000000000000000000006001600160a01b0316632e1a7d4d8a8a60008181106103db57fe5b905060200201356040518263ffffffff1660e01b81526004016103fe9190613c4f565b600060405180830381600087803b15801561041857600080fd5b505af115801561042c573d6000803e3d6000fd5b505050505b6080810151511561046357600081608001518060200190518101906104569190613611565b905061046181610ed6565b505b6000815160ff16600381111561047557fe5b600381111561048057fe5b14156104c8576104c3818c8c80806020026020016040519081016040528093929190818152602001838360200280828437600092019190915250610f5492505050565b6105e8565b6001815160ff1660038111156104da57fe5b60038111156104e557fe5b1415610528576104c3818c8c808060200260200160405190810160405280939291908181526020018383602002808284376000920191909152506111b692505050565b6002815160ff16600381111561053a57fe5b600381111561054557fe5b1415610588576104c3818c8c8080602002602001604051908101604052809392919081815260200183836020028082843760009201919091525061141992505050565b6003815160ff16600381111561059a57fe5b60038111156105a557fe5b14156105e8576105e8818c8c8080602002602001604051908101604052809392919081815260200183836020028082843760009201919091525061167792505050565b806060015115610667577f00000000000000000000000000000000000000000000000000000000000000006001600160a01b031663d0e30db0476040518263ffffffff1660e01b81526004016000604051808303818588803b15801561064d57600080fd5b505af1158015610661573d6000803e3d6000fd5b50505050505b6001815160ff16600381111561067957fe5b600381111561068457fe5b14806106aa57506003815160ff16600381111561069d57fe5b60038111156106a857fe5b145b156106b8576106b8816118c4565b806060015115801561071c57507f00000000000000000000000000000000000000000000000000000000000000006001600160a01b03168b8b60008181106106fc57fe5b90506020020160208101906107119190612ee8565b6001600160a01b0316145b15610796577f00000000000000000000000000000000000000000000000000000000000000006001600160a01b031663d0e30db0476040518263ffffffff1660e01b81526004016000604051808303818588803b15801561077c57600080fd5b505af1158015610790573d6000803e3d6000fd5b50505050505b806020015115610803576108038b8b60008181106107b057fe5b90506020020160208101906107c59190612ee8565b6107fe898960008181106107d557fe5b905060200201358c8c60008181106107e957fe5b9050602002013561196690919063ffffffff16565b6119c9565b60019150505b9998505050505050505050565b7f000000000000000000000000000000000000000000000000000000000000000081565b6001546001600160a01b0316331461086d5760405162461bcd60e51b815260040161086490613bbb565b60405180910390fd5b60005b818110156108aa576108a183838381811061088757fe5b905060200201602081019061089c9190613643565b611a7d565b50600101610870565b505050565b7f000000000000000000000000000000000000000000000000000000000000000081565b6001546001600160a01b031633146108fd5760405162461bcd60e51b815260040161086490613bbb565b60005b8281101561095a5761093f82600086868581811061091a57fe5b905060200201602081019061092f9190612ee8565b6001600160a01b03169190611aee565b6109528260001986868581811061091a57fe5b600101610900565b50505050565b600060607f00000000000000000000000000000000000000000000000000000000000000006001600160a01b031663f667f897846040518263ffffffff1660e01b81526004016109b091906137aa565b600060405180830381600087803b1580156109ca57600080fd5b505af11580156109de573d6000803e3d6000fd5b50506040516330e6651160e21b81526001600160a01b037f000000000000000000000000000000000000000000000000000000000000000016925063c39994449150610a2e9086906004016137aa565b60006040518083038186803b158015610a4657600080fd5b505afa158015610a5a573d6000803e3d6000fd5b505050506040513d6000823e601f3d908101601f19168201604052610a829190810190613179565b91509150915091565b600154600090819081906001600160a01b03163314610abc5760405162461bcd60e51b815260040161086490613bbb565b6040805160018082528183019092526000916020808301908036833750506040805160018082528183019092529293506000929150602080830190803683370190505090508a82600081518110610b0f57fe5b60200260200101906001600160a01b031690816001600160a01b0316815250508981600081518110610b3d57fe5b60209081029190910101526040805160018082528183019092527f00000000000000000000000000000000000000000000000000000000000000006001600160a01b03169163ab9c4b5d9130918691869181602001602082028036833701905050308f8f60006040518963ffffffff1660e01b8152600401610bc6989796959493929190613935565b600060405180830381600087803b158015610be057600080fd5b505af1158015610bf4573d6000803e3d6000fd5b50506040516370a0823160e01b81526001600160a01b038e1692506370a082319150610c249030906004016137aa565b60206040518083038186803b158015610c3c57600080fd5b505afa158015610c50573d6000803e3d6000fd5b505050506040513d601f19601f82011682018060405250810190610c74919061365f565b94506001600160a01b03871615610d06576040516370a0823160e01b81526001600160a01b038816906370a0823190610cb19030906004016137aa565b60206040518083038186803b158015610cc957600080fd5b505afa158015610cdd573d6000803e3d6000fd5b505050506040513d601f19601f82011682018060405250810190610d01919061365f565b610d08565b475b93506001600160a01b03861615610d9a576040516370a0823160e01b81526001600160a01b038716906370a0823190610d459030906004016137aa565b60206040518083038186803b158015610d5d57600080fd5b505afa158015610d71573d6000803e3d6000fd5b505050506040513d601f19601f82011682018060405250810190610d95919061365f565b610d9c565b475b9250505096509650969350505050565b6001546001600160a01b03163314610dd65760405162461bcd60e51b815260040161086490613bbb565b6001600160a01b038116610dfc5760405162461bcd60e51b815260040161086490613b69565b600180546001600160a01b0319166001600160a01b0392909216919091179055565b600154610e38906001600160a01b03848116911683611c01565b5050565b7f000000000000000000000000000000000000000000000000000000000000000081565b7f00000000000000000000000000000000000000000000000000000000000000006001600160a01b031663d0e30db0476040518263ffffffff1660e01b81526004016000604051808303818588803b158015610ebb57600080fd5b505af1158015610ecf573d6000803e3d6000fd5b5050505050565b806040015115610f2057602081015160608201518251610f199290917f000000000000000000000000000000000000000000000000000000000000000090611c53565b5050610f51565b602081015181516108aa917f0000000000000000000000000000000000000000000000000000000000000000611da0565b50565b60008260a00151806020019051810190610f6e91906134b7565b90508260400151156110f457600082600081518110610f8957fe5b60200260200101516001600160a01b03166370a08231306040518263ffffffff1660e01b8152600401610fbc91906137aa565b60206040518083038186803b158015610fd457600080fd5b505afa158015610fe8573d6000803e3d6000fd5b505050506040513d601f19601f8201168201806040525081019061100c919061365f565b905061104c8360008151811061101e57fe5b60200260200101517f0000000000000000000000000000000000000000000000000000000000000000611eea565b6020820151604051632890fb6560e01b81526001600160a01b037f00000000000000000000000000000000000000000000000000000000000000001691632890fb659161109f9130918690600401613acb565b602060405180830381600087803b1580156110b957600080fd5b505af11580156110cd573d6000803e3d6000fd5b505050506040513d601f19601f820116820180604052508101906110f1919061365f565b50505b805160208201516040808401519051632d10e6eb60e01b81526000936001600160a01b037f00000000000000000000000000000000000000000000000000000000000000001693632d10e6eb93479361115293929190600401613af0565b60408051808303818588803b15801561116a57600080fd5b505af115801561117e573d6000803e3d6000fd5b50505050506040513d601f19601f820116820180604052508101906111a391906131bd565b91505061095a8260200151826001611f8a565b60008260a001518060200190518101906111d0919061320d565b9050826040015115611328576000826000815181106111eb57fe5b60200260200101516001600160a01b03166370a08231306040518263ffffffff1660e01b815260040161121e91906137aa565b60206040518083038186803b15801561123657600080fd5b505afa15801561124a573d6000803e3d6000fd5b505050506040513d601f19601f8201168201806040525081019061126e919061365f565b90506112808360008151811061101e57fe5b6020820151604051632890fb6560e01b81526001600160a01b037f00000000000000000000000000000000000000000000000000000000000000001691632890fb65916112d39130918690600401613acb565b602060405180830381600087803b1580156112ed57600080fd5b505af1158015611301573d6000803e3d6000fd5b505050506040513d601f19601f82011682018060405250810190611325919061365f565b50505b60007f00000000000000000000000000000000000000000000000000000000000000006001600160a01b0316636633af394784600001518560200151866040015187608001518860a001516001806040518963ffffffff1660e01b81526004016113989796959493929190613a75565b6060604051808303818588803b1580156113b157600080fd5b505af11580156113c5573d6000803e3d6000fd5b50505050506040513d601f19601f820116820180604052508101906113ea91906131e0565b925050506113fe8260400151826001611f8a565b83604001511561095a5761095a826020015160006001611f8a565b60008260a00151806020019051810190611433919061351f565b905082604001511561158b5760008260008151811061144e57fe5b60200260200101516001600160a01b03166370a08231306040518263ffffffff1660e01b815260040161148191906137aa565b60206040518083038186803b15801561149957600080fd5b505afa1580156114ad573d6000803e3d6000fd5b505050506040513d601f19601f820116820180604052508101906114d1919061365f565b90506114e38360008151811061101e57fe5b6020820151604051632890fb6560e01b81526001600160a01b037f00000000000000000000000000000000000000000000000000000000000000001691632890fb65916115369130918690600401613acb565b602060405180830381600087803b15801561155057600080fd5b505af1158015611564573d6000803e3d6000fd5b505050506040513d601f19601f82011682018060405250810190611588919061365f565b50505b8051602082015160408084015160608501519151631ff7aefd60e21b815260009485946001600160a01b037f00000000000000000000000000000000000000000000000000000000000000001694637fdebbf49447946115f0949392906004016139e1565b6000604051808303818588803b15801561160957600080fd5b505af115801561161d573d6000803e3d6000fd5b50505050506040513d6000823e601f3d908101601f1916820160405261164691908101906130f6565b91509150610ecf836020015184604001518460008512611667576000611670565b61167085612128565b6001612149565b60008260a0015180602001905181019061169191906132dd565b90508260400151156117e9576000826000815181106116ac57fe5b60200260200101516001600160a01b03166370a08231306040518263ffffffff1660e01b81526004016116df91906137aa565b60206040518083038186803b1580156116f757600080fd5b505afa15801561170b573d6000803e3d6000fd5b505050506040513d601f19601f8201168201806040525081019061172f919061365f565b90506117418360008151811061101e57fe5b6020820151604051632890fb6560e01b81526001600160a01b037f00000000000000000000000000000000000000000000000000000000000000001691632890fb65916117949130918690600401613acb565b602060405180830381600087803b1580156117ae57600080fd5b505af11580156117c2573d6000803e3d6000fd5b505050506040513d601f19601f820116820180604052508101906117e6919061365f565b50505b60007f00000000000000000000000000000000000000000000000000000000000000006001600160a01b031663e816469d478460000151856020015186604001518760a001518860c001516040518763ffffffff1660e01b8152600401611854959493929190613a21565b6000604051808303818588803b15801561186d57600080fd5b505af1158015611881573d6000803e3d6000fd5b50505050506040513d6000823e601f3d908101601f191682016040526118aa91908101906130f6565b50905061095a82604001518360a001518360006001612149565b60006001825160ff1660038111156118d857fe5b60038111156118e357fe5b141561191f5760008260a00151806020019051810190611903919061320d565b9050806060015191506119198160c00151610ed6565b50611951565b60008260a0015180602001905181019061193991906132dd565b90508060800151915061194f8160e00151610ed6565b505b816020015115610e3857610e388160006119c9565b6000828201838110156119c0576040805162461bcd60e51b815260206004820152601b60248201527f536166654d6174683a206164646974696f6e206f766572666c6f770000000000604482015290519081900360640190fd5b90505b92915050565b6040516370a0823160e01b81526000906001600160a01b038416906370a08231906119f89030906004016137aa565b60206040518083038186803b158015611a1057600080fd5b505afa158015611a24573d6000803e3d6000fd5b505050506040513d601f19601f82011682018060405250810190611a48919061365f565b9050818111156108aa576001546108aa906001600160a01b0316611a6c83856124ea565b6001600160a01b0386169190611c01565b600080611a8983612547565b90506001600160a01b038116611abc57507f00000000000000000000000000000000000000000000000000000000000000005b611ae6817f0000000000000000000000000000000000000000000000000000000000000000611eea565b90505b919050565b801580611b74575060408051636eb1769f60e11b81523060048201526001600160a01b03848116602483015291519185169163dd62ed3e91604480820192602092909190829003018186803b158015611b4657600080fd5b505afa158015611b5a573d6000803e3d6000fd5b505050506040513d6020811015611b7057600080fd5b5051155b611baf5760405162461bcd60e51b8152600401808060200182810382526036815260200180613d7f6036913960400191505060405180910390fd5b604080516001600160a01b038416602482015260448082018490528251808303909101815260649091019091526020810180516001600160e01b031663095ea7b360e01b1790526108aa90849061262f565b604080516001600160a01b038416602482015260448082018490528251808303909101815260649091019091526020810180516001600160e01b031663a9059cbb60e01b1790526108aa90849061262f565b600080600080856001600160a01b031663aaf10f426040518163ffffffff1660e01b815260040160206040518083038186803b158015611c9257600080fd5b505afa158015611ca6573d6000803e3d6000fd5b505050506040513d601f19601f82011682018060405250810190611cca9190612f04565b6001600160a01b0316635caf9fda60e01b888a88604051602401611cf093929190613c1c565b60408051601f198184030181529181526020820180516001600160e01b03166001600160e01b0319909416939093179092529051611d2e919061378e565b600060405180830381855af49150503d8060008114611d69576040519150601f19603f3d011682016040523d82523d6000602084013e611d6e565b606091505b509150915081611d7d57600080fd5b80806020019051810190611d9191906131bd565b90999098509650505050505050565b600080600080846001600160a01b031663aaf10f426040518163ffffffff1660e01b815260040160206040518083038186803b158015611ddf57600080fd5b505afa158015611df3573d6000803e3d6000fd5b505050506040513d601f19601f82011682018060405250810190611e179190612f04565b6001600160a01b0316632ba8c23c60e01b8789604051602401611e3b929190613bff565b60408051601f198184030181529181526020820180516001600160e01b03166001600160e01b0319909416939093179092529051611e79919061378e565b600060405180830381855af49150503d8060008114611eb4576040519150601f19603f3d011682016040523d82523d6000602084013e611eb9565b606091505b509150915081611ec857600080fd5b80806020019051810190611edc91906131bd565b909890975095505050505050565b604051636eb1769f60e11b8152600160801b906001600160a01b0384169063dd62ed3e90611f1e903090869060040161391b565b60206040518083038186803b158015611f3657600080fd5b505afa158015611f4a573d6000803e3d6000fd5b505050506040513d601f19601f82011682018060405250810190611f6e919061365f565b1015610e3857610e386001600160a01b03831682600019611aee565b604080516001808252818301909252600091816020015b611fa9612abd565b815260200190600190039081611fa15790505090506001600160601b03831615611fd4576005611fd7565b60005b81600081518110611fe457fe5b6020026020010151600001906006811115611ffb57fe5b9081600681111561200857fe5b81525050838160008151811061201a57fe5b60200260200101516020019061ffff16908161ffff1681525050826001600160601b03168160008151811061204b57fe5b6020026020010151604001818152505060018160008151811061206a57fe5b60200260200101516080019015159081151581525050818160008151811061208e57fe5b602090810291909101015190151560a090910152604051633735195360e11b81526001600160a01b037f00000000000000000000000000000000000000000000000000000000000000001690636e6a32a6906120f09030908590600401613883565b600060405180830381600087803b15801561210a57600080fd5b505af115801561211e573d6000803e3d6000fd5b5050505050505050565b6000808212156121425761213b826126e0565b9050611ae9565b5080611ae9565b604080516001808252818301909252429160009190816020015b61216b612af4565b8152602001906001900390816121635790505090506000841161218f576000612192565b60015b8160008151811061219f57fe5b60200260200101516000019060068111156121b657fe5b908160068111156121c357fe5b8152505083816000815181106121d557fe5b6020026020010151604001818152505086816000815181106121f357fe5b60200260200101516020019061ffff16908161ffff168152505060018160008151811061221c57fe5b60200260200101516080019015159081151581525050828160008151811061224057fe5b602002602001015160a001901515908115158152505060008087516001600160401b038111801561227057600080fd5b5060405190808252806020026020018201604052801561229a578160200160208202803683370190505b50905060005b8751811015612390578781815181106122b557fe5b6020026020010151600014156122ca57612388565b6000806122ec60078c85815181106122de57fe5b6020026020010151896126ee565b9150915080156122fd575050612388565b609861231b8b858151811061230e57fe5b6020026020010151612128565b6affffffffffffffffffffff16901b60f083901b60f860008d878151811061233f57fe5b602002602001015113612353576000612356565b60015b600581111561236157fe5b901b171760001b84868151811061237457fe5b602090810291909101015250506001909201915b6001016122a0565b508051821015612441576000826001600160401b03811180156123b257600080fd5b506040519080825280602002602001820160405280156123dc578160200160208202803683370190505b50905060005b8381101561241d578281815181106123f657fe5b602002602001015182828151811061240a57fe5b60209081029190910101526001016123e2565b50808460008151811061242c57fe5b602002602001015160c001819052505061245f565b808360008151811061244f57fe5b602002602001015160c001819052505b604051630276b64b60e01b81526001600160a01b037f00000000000000000000000000000000000000000000000000000000000000001690630276b64b906124ad90309087906004016137be565b600060405180830381600087803b1580156124c757600080fd5b505af11580156124db573d6000803e3d6000fd5b50505050505050505050505050565b600082821115612541576040805162461bcd60e51b815260206004820152601e60248201527f536166654d6174683a207375627472616374696f6e206f766572666c6f770000604482015290519081900360640190fd5b50900390565b6000807f00000000000000000000000000000000000000000000000000000000000000006001600160a01b0316634ebad18e846040518263ffffffff1660e01b81526004016125969190613bf0565b6101406040518083038186803b1580156125af57600080fd5b505afa1580156125c3573d6000803e3d6000fd5b505050506040513d601f19601f820116820180604052508101906125e791906135dc565b80519092506001600160a01b0316159050612628578051612628907f0000000000000000000000000000000000000000000000000000000000000000611eea565b5192915050565b6000612684826040518060400160405280602081526020017f5361666545524332303a206c6f772d6c6576656c2063616c6c206661696c6564815250856001600160a01b031661277d9092919063ffffffff16565b8051909150156108aa578080602001905160208110156126a357600080fd5b50516108aa5760405162461bcd60e51b815260040180806020018281038252602a815260200180613d55602a913960400191505060405180910390fd5b6000611ae660001983612796565b600080600085116126fe57600080fd5b600785111561270c57600080fd5b6000612717846127e4565b905060015b86811161276f57600061273861273183612802565b84906128a6565b90508681141561275057509250600091506127759050565b8681111561276657509250600191506127759050565b5060010161271c565b50600080fd5b935093915050565b606061278c84846000856128b8565b90505b9392505050565b8181026000198314156127c6578115806127b85750828282816127b557fe5b05145b6127c157600080fd5b6119c3565b8215806127db5750818382816127d857fe5b05145b6119c357600080fd5b60006276a7008210156127f657600080fd5b506276a7008106900390565b6000816001141561281757506276a700611ae9565b816002141561282a575062ed4e00611ae9565b816003141561283e57506301da9c00611ae9565b816004141561285257506303b53800611ae9565b816005141561286657506309450c00611ae9565b816006141561287a575063128a1800611ae9565b816007141561288e57506325143000611ae9565b60405162461bcd60e51b815260040161086490613b94565b6000828201838110156119c057600080fd5b6060824710156128f95760405162461bcd60e51b8152600401808060200182810382526026815260200180613d2f6026913960400191505060405180910390fd5b61290285612a13565b612953576040805162461bcd60e51b815260206004820152601d60248201527f416464726573733a2063616c6c20746f206e6f6e2d636f6e7472616374000000604482015290519081900360640190fd5b600080866001600160a01b031685876040518082805190602001908083835b602083106129915780518252601f199092019160209182019101612972565b6001836020036101000a03801982511681845116808217855250505050505090500191505060006040518083038185875af1925050503d80600081146129f3576040519150601f19603f3d011682016040523d82523d6000602084013e6129f8565b606091505b5091509150612a08828286612a19565b979650505050505050565b3b151590565b60608315612a2857508161278f565b825115612a385782518084602001fd5b8160405162461bcd60e51b81526004018080602001828103825283818151815260200191508051906020019080838360005b83811015612a82578181015183820152602001612a6a565b50505050905090810190601f168015612aaf5780820380516001836020036101000a031916815260200191505b509250505060405180910390fd5b6040805160c08101909152806000815260006020820181905260408201819052606082018190526080820181905260a09091015290565b6040805160e081019091528060008152602001600061ffff1681526020016000815260200160008152602001600015158152602001600015158152602001606081525090565b8051611ae981613cfb565b60008083601f840112612b56578182fd5b5081356001600160401b03811115612b6c578182fd5b6020830191508360208083028501011115612b8657600080fd5b9250929050565b600082601f830112612b9d578081fd5b81516020612bb2612bad83613c91565b613c6e565b8281528181019085830183850287018401881015612bce578586fd5b855b85811015612bec57815184529284019290840190600101612bd0565b5090979650505050505050565b8035611ae981613d10565b8051611ae981613d10565b60008083601f840112612c20578182fd5b5081356001600160401b03811115612c36578182fd5b602083019150836020828501011115612b8657600080fd5b600082601f830112612c5e578081fd5b8135612c6c612bad82613cae565b818152846020838601011115612c80578283fd5b816020850160208301379081016020019190915292915050565b600082601f830112612caa578081fd5b8151612cb8612bad82613cae565b818152846020838601011115612ccc578283fd5b612cdd826020830160208701613ccf565b949350505050565b805160048110611ae957600080fd5b600060a08284031215612d05578081fd5b60405160a081018181106001600160401b0382111715612d2157fe5b80604052508091508251612d3481613cfb565b81526020830151612d4481613d10565b602082015260408381015190820152606083015160068110612d6557600080fd5b6060820152608092830151920191909152919050565b600060808284031215612d8c578081fd5b60408051608081016001600160401b038282108183111715612daa57fe5b8184528294508551915080821115612dc157600080fd5b9085019060e08288031215612dd557600080fd5b612ddf60e0613c6e565b612de883612ce5565b8152612df660208401612b3a565b6020820152612e06858401612b3a565b85820152606083015160608201526080830151608082015260a083015160a082015260c083015182811115612e3a57600080fd5b612e4689828601612c9a565b60c083015250835250612e5d905060208501612ea1565b6020820152612e6d828501612c04565b82820152612e7d60608501612eac565b6060820152505092915050565b80516001600160801b0381168114611ae957600080fd5b8051611ae981613d1e565b805163ffffffff81168114611ae957600080fd5b803560ff81168114611ae957600080fd5b80516001600160601b0381168114611ae957600080fd5b600060208284031215612ef9578081fd5b81356119c081613cfb565b600060208284031215612f15578081fd5b81516119c081613cfb565b60008060408385031215612f32578081fd5b8235612f3d81613cfb565b946020939093013593505050565b60008060008060008060a08789031215612f63578182fd5b8635612f6e81613cfb565b95506020870135945060408701356001600160401b03811115612f8f578283fd5b612f9b89828a01612c0f565b9095509350506060870135612faf81613cfb565b91506080870135612fbf81613cfb565b809150509295509295509295565b600080600060408486031215612fe1578081fd5b83356001600160401b03811115612ff6578182fd5b61300286828701612b45565b909450925050602084013561301681613cfb565b809150509250925092565b600080600080600080600080600060a08a8c03121561303e578687fd5b89356001600160401b0380821115613054578889fd5b6130608d838e01612b45565b909b50995060208c0135915080821115613078578889fd5b6130848d838e01612b45565b909950975060408c013591508082111561309c578485fd5b6130a88d838e01612b45565b909750955060608c013591506130bd82613cfb565b90935060808b013590808211156130d2578384fd5b506130df8c828d01612c0f565b915080935050809150509295985092959850929598565b60008060408385031215613108578182fd5b82516001600160401b0381111561311d578283fd5b61312985828601612b8d565b925050602083015190509250929050565b6000806020838503121561314c578182fd5b82356001600160401b03811115613161578283fd5b61316d85828601612b45565b90969095509350505050565b6000806040838503121561318b578182fd5b8251915060208301516001600160401b038111156131a7578182fd5b6131b385828601612b8d565b9150509250929050565b600080604083850312156131cf578182fd5b505080516020909101519092909150565b6000806000606084860312156131f4578081fd5b8351925060208401519150604084015190509250925092565b60006020828403121561321e578081fd5b81516001600160401b0380821115613234578283fd5b9083019060e08286031215613247578283fd5b61325160e0613c6e565b61325a83612b3a565b815261326860208401612ea1565b602082015261327960408401612ea1565b604082015261328a60608401612b3a565b606082015261329b60808401612e8a565b60808201526132ac60a08401612ed1565b60a082015260c0830151828111156132c2578485fd5b6132ce87828601612d7b565b60c08301525095945050505050565b6000602082840312156132ee578081fd5b81516001600160401b0380821115613304578283fd5b818401915061010080838703121561331a578384fd5b61332381613c6e565b905061332e83612b3a565b815261333c60208401612ea1565b602082015261334d60408401612ea1565b604082015261335e60608401612b3a565b606082015261336f60808401612b3a565b608082015260a083015182811115613385578485fd5b61339187828601612b8d565b60a08301525060c0830151828111156133a8578485fd5b6133b487828601612b8d565b60c08301525060e0830151828111156133cb578485fd5b6133d787828601612d7b565b60e08301525095945050505050565b6000602082840312156133f7578081fd5b81356001600160401b038082111561340d578283fd5b9083019060c08286031215613420578283fd5b61342a60c0613c6e565b61343383612ec0565b815261344160208401612bf9565b602082015261345260408401612bf9565b604082015261346360608401612bf9565b6060820152608083013582811115613479578485fd5b61348587828601612c4e565b60808301525060a08301358281111561349c578485fd5b6134a887828601612c4e565b60a08301525095945050505050565b6000606082840312156134c8578081fd5b604051606081018181106001600160401b03821117156134e457fe5b60405282516134f281613cfb565b8152602083015161350281613d1e565b602082015261351360408401612ed1565b60408201529392505050565b600060208284031215613530578081fd5b81516001600160401b0380821115613546578283fd5b9083019060808286031215613559578283fd5b60405160808101818110838211171561356e57fe5b60405261357a83612b3a565b815261358860208401612ea1565b602082015260408301518281111561359e578485fd5b6135aa87828601612b8d565b6040830152506060830151828111156135c1578485fd5b6135cd87828601612b8d565b60608301525095945050505050565b60008061014083850312156135ef578182fd5b6135f98484612cf4565b91506136088460a08501612cf4565b90509250929050565b600060208284031215613622578081fd5b81516001600160401b03811115613637578182fd5b612cdd84828501612d7b565b600060208284031215613654578081fd5b81356119c081613d1e565b600060208284031215613670578081fd5b5051919050565b6001600160a01b03169052565b6000815180845260208085019450808401835b838110156136b357815187529582019590820190600101613697565b509495945050505050565b60008284528282602086013780602084860101526020601f19601f85011685010190509392505050565b600781106136f257fe5b9052565b61ffff169052565b600081516004811061370c57fe5b80845250602082015160018060a01b0380821660208601528060408501511660408601525050606082015160608401526080820151608084015260a082015160a084015260c082015160e060c085015280518060e08601526101006137778282880160208601613ccf565b80601f19601f840116870101935050505092915050565b600082516137a0818460208701613ccf565b9190910192915050565b6001600160a01b0391909116815260200190565b6001600160a01b0383168152604060208083018290528351838301819052600092916060918286019080830287018401888401875b8381101561387357605f198a8403018552815160e06138138583516136e8565b8188015161ffff1685890152898201518a860152888201518986015260808083015115159086015260a08083015115159086015260c09182015191850181905261385f81860183613684565b9688019694505050908501906001016137f3565b50909a9950505050505050505050565b6001600160a01b03831681526040602080830182905283518383018190526000929160609182860190878301865b8281101561390c5781516138c68582516136e8565b8086015161ffff16858701528781015188860152868101518786015260808082015115159086015260a09081015115159085015260c090930192908401906001016138b1565b50919998505050505050505050565b6001600160a01b0392831681529116602082015260400190565b6001600160a01b03898116825260e060208084018290528a519184018290526000928b820192909190610100860190855b81811015613984578551851683529483019491830191600101613966565b50508581036040870152613998818d613684565b935050505082810360608401526139af8189613684565b90506139be6080840188613677565b82810360a08401526139d18186886136be565b91505061080960c08301846136f6565b6001600160a01b038516815261ffff84166020820152608060408201819052600090613a0f90830185613684565b8281036060840152612a088185613684565b6001600160a01b038616815261ffff85811660208301528416604082015260a060608201819052600090613a5790830185613684565b8281036080840152613a698185613684565b98975050505050505050565b6001600160a01b0397909716875261ffff95861660208801529390941660408601526001600160801b039190911660608501526001600160601b0316608084015290151560a0830152151560c082015260e00190565b6001600160a01b0393909316835261ffff919091166020830152604082015260600190565b6001600160a01b0393909316835261ffff9190911660208301526001600160601b0316604082015260600190565b901515815260200190565b60006040820184835260206040818501528185518084526060860191508287019350845b81811015612bec57845183529383019391830191600101613b4d565b60208082526011908201527034b73b30b634b2103732bb9037bbb732b960791b604082015260600190565b6020808252600d908201526c092dcecc2d8d2c840d2dcc8caf609b1b604082015260600190565b6020808252818101527f4f776e61626c653a2063616c6c6572206973206e6f7420746865206f776e6572604082015260600190565b61ffff91909116815260200190565b600061ffff841682526040602083015261278c60408301846136fe565b600061ffff8516825260606020830152613c3960608301856136fe565b905063ffffffff83166040830152949350505050565b90815260200190565b9283526020830191909152604082015260600190565b6040518181016001600160401b0381118282101715613c8957fe5b604052919050565b60006001600160401b03821115613ca457fe5b5060209081020190565b60006001600160401b03821115613cc157fe5b50601f01601f191660200190565b60005b83811015613cea578181015183820152602001613cd2565b8381111561095a5750506000910152565b6001600160a01b0381168114610f5157600080fd5b8015158114610f5157600080fd5b61ffff81168114610f5157600080fdfe416464726573733a20696e73756666696369656e742062616c616e636520666f722063616c6c5361666545524332303a204552433230206f7065726174696f6e20646964206e6f7420737563636565645361666545524332303a20617070726f76652066726f6d206e6f6e2d7a65726f20746f206e6f6e2d7a65726f20616c6c6f77616e6365a26469706673582212201ac7e6f1bef84e5a06fbe923777cb7046263b39e2de0a2604247ea82af660fac64736f6c63430007060033","bytecodeSha1":"993f830b34ccb5e89880627ccaed8bbfeb4db906","compiler":{"evm_version":"istanbul","optimizer":{"enabled":true,"runs":200},"version":"0.7.6+commit.7338295f"},"contractName":"FlashLiquidator","language":"Solidity","natspec":{"kind":"dev","methods":{"getFreeCollateral(address)":{"notice":"Used by bots to get free collateral for a given account via callStatic"}},"version":1},"opcodes":"PUSH1 0x80 PUSH1 0x40 MSTORE PUSH1 0x4 CALLDATASIZE LT PUSH2 0xE1 JUMPI PUSH1 0x0 CALLDATALOAD PUSH1 0xE0 SHR DUP1 PUSH4 0xB4DCFC77 GT PUSH2 0x7F JUMPI DUP1 PUSH4 0xD99A9C9C GT PUSH2 0x59 JUMPI DUP1 PUSH4 0xD99A9C9C EQ PUSH2 0x22B JUMPI DUP1 PUSH4 0xF2FDE38B EQ PUSH2 0x25A JUMPI DUP1 PUSH4 0xF3FEF3A3 EQ PUSH2 0x27A JUMPI DUP1 PUSH4 0xFC2DB717 EQ PUSH2 0x29A JUMPI PUSH2 0xE8 JUMP JUMPDEST DUP1 PUSH4 0xB4DCFC77 EQ PUSH2 0x1C8 JUMPI DUP1 PUSH4 0xC2243379 EQ PUSH2 0x1DD JUMPI DUP1 PUSH4 0xC3999444 EQ PUSH2 0x1FD JUMPI PUSH2 0xE8 JUMP JUMPDEST DUP1 PUSH4 0x8DA5CB5B GT PUSH2 0xBB JUMPI DUP1 PUSH4 0x8DA5CB5B EQ PUSH2 0x151 JUMPI DUP1 PUSH4 0x920F5C84 EQ PUSH2 0x166 JUMPI DUP1 PUSH4 0xAD5C4648 EQ PUSH2 0x193 JUMPI DUP1 PUSH4 0xB12FFDAD EQ PUSH2 0x1A8 JUMPI PUSH2 0xE8 JUMP JUMPDEST DUP1 PUSH4 0x6C63840 EQ PUSH2 0xED JUMPI DUP1 PUSH4 0x858DCCB3 EQ PUSH2 0x118 JUMPI DUP1 PUSH4 0x8A3843E0 EQ PUSH2 0x13A JUMPI PUSH2 0xE8 JUMP JUMPDEST CALLDATASIZE PUSH2 0xE8 JUMPI STOP JUMPDEST PUSH1 0x0 DUP1 REVERT JUMPDEST CALLVALUE DUP1 ISZERO PUSH2 0xF9 JUMPI PUSH1 0x0 DUP1 REVERT JUMPDEST POP PUSH2 0x102 PUSH2 0x2AF JUMP JUMPDEST PUSH1 0x40 MLOAD PUSH2 0x10F SWAP2 SWAP1 PUSH2 0x3BF0 JUMP JUMPDEST PUSH1 0x40 MLOAD DUP1 SWAP2 SUB SWAP1 RETURN JUMPDEST CALLVALUE DUP1 ISZERO PUSH2 0x124 JUMPI PUSH1 0x0 DUP1 REVERT JUMPDEST POP PUSH2 0x12D PUSH2 0x2C0 JUMP JUMPDEST PUSH1 0x40 MLOAD PUSH2 0x10F SWAP2 SWAP1 PUSH2 0x37AA JUMP JUMPDEST CALLVALUE DUP1 ISZERO PUSH2 0x146 JUMPI PUSH1 0x0 DUP1 REVERT JUMPDEST POP PUSH2 0x14F PUSH2 0x2E4 JUMP JUMPDEST STOP JUMPDEST CALLVALUE DUP1 ISZERO PUSH2 0x15D JUMPI PUSH1 0x0 DUP1 REVERT JUMPDEST POP PUSH2 0x12D PUSH2 0x2EE JUMP JUMPDEST CALLVALUE DUP1 ISZERO PUSH2 0x172 JUMPI PUSH1 0x0 DUP1 REVERT JUMPDEST POP PUSH2 0x186 PUSH2 0x181 CALLDATASIZE PUSH1 0x4 PUSH2 0x3021 JUMP JUMPDEST PUSH2 0x2FD JUMP JUMPDEST PUSH1 0x40 MLOAD PUSH2 0x10F SWAP2 SWAP1 PUSH2 0x3B1E JUMP JUMPDEST CALLVALUE DUP1 ISZERO PUSH2 0x19F JUMPI PUSH1 0x0 DUP1 REVERT JUMPDEST POP PUSH2 0x12D PUSH2 0x816 JUMP JUMPDEST CALLVALUE DUP1 ISZERO PUSH2 0x1B4 JUMPI PUSH1 0x0 DUP1 REVERT JUMPDEST POP PUSH2 0x14F PUSH2 0x1C3 CALLDATASIZE PUSH1 0x4 PUSH2 0x313A JUMP JUMPDEST PUSH2 0x83A JUMP JUMPDEST CALLVALUE DUP1 ISZERO PUSH2 0x1D4 JUMPI PUSH1 0x0 DUP1 REVERT JUMPDEST POP PUSH2 0x12D PUSH2 0x8AF JUMP JUMPDEST CALLVALUE DUP1 ISZERO PUSH2 0x1E9 JUMPI PUSH1 0x0 DUP1 REVERT JUMPDEST POP PUSH2 0x14F PUSH2 0x1F8 CALLDATASIZE PUSH1 0x4 PUSH2 0x2FCD JUMP JUMPDEST PUSH2 0x8D3 JUMP JUMPDEST CALLVALUE DUP1 ISZERO PUSH2 0x209 JUMPI PUSH1 0x0 DUP1 REVERT JUMPDEST POP PUSH2 0x21D PUSH2 0x218 CALLDATASIZE PUSH1 0x4 PUSH2 0x2EE8 JUMP JUMPDEST PUSH2 0x960 JUMP JUMPDEST PUSH1 0x40 MLOAD PUSH2 0x10F SWAP3 SWAP2 SWAP1 PUSH2 0x3B29 JUMP JUMPDEST CALLVALUE DUP1 ISZERO PUSH2 0x237 JUMPI PUSH1 0x0 DUP1 REVERT JUMPDEST POP PUSH2 0x24B PUSH2 0x246 CALLDATASIZE PUSH1 0x4 PUSH2 0x2F4B JUMP JUMPDEST PUSH2 0xA8B JUMP JUMPDEST PUSH1 0x40 MLOAD PUSH2 0x10F SWAP4 SWAP3 SWAP2 SWAP1 PUSH2 0x3C58 JUMP JUMPDEST CALLVALUE DUP1 ISZERO PUSH2 0x266 JUMPI PUSH1 0x0 DUP1 REVERT JUMPDEST POP PUSH2 0x14F PUSH2 0x275 CALLDATASIZE PUSH1 0x4 PUSH2 0x2EE8 JUMP JUMPDEST PUSH2 0xDAC JUMP JUMPDEST CALLVALUE DUP1 ISZERO PUSH2 0x286 JUMPI PUSH1 0x0 DUP1 REVERT JUMPDEST POP PUSH2 0x14F PUSH2 0x295 CALLDATASIZE PUSH1 0x4 PUSH2 0x2F20 JUMP JUMPDEST PUSH2 0xE1E JUMP JUMPDEST CALLVALUE DUP1 ISZERO PUSH2 0x2A6 JUMPI PUSH1 0x0 DUP1 REVERT JUMPDEST POP PUSH2 0x12D PUSH2 0xE3C JUMP JUMPDEST PUSH1 0x1 SLOAD PUSH1 0x1 PUSH1 0xA0 SHL SWAP1 DIV PUSH2 0xFFFF AND DUP2 JUMP JUMPDEST PUSH32 0x0 DUP2 JUMP JUMPDEST PUSH2 0x2EC PUSH2 0xE60 JUMP JUMPDEST JUMP JUMPDEST PUSH1 0x1 SLOAD PUSH1 0x1 PUSH1 0x1 PUSH1 0xA0 SHL SUB AND DUP2 JUMP JUMPDEST PUSH1 0x0 CALLER PUSH1 0x1 PUSH1 0x1 PUSH1 0xA0 SHL SUB PUSH32 0x0 AND EQ PUSH2 0x334 JUMPI PUSH1 0x0 DUP1 REVERT JUMPDEST PUSH1 0x0 PUSH2 0x342 DUP4 DUP6 ADD DUP6 PUSH2 0x33E6 JUMP JUMPDEST SWAP1 POP PUSH32 0x0 PUSH1 0x1 PUSH1 0x1 PUSH1 0xA0 SHL SUB AND DUP12 DUP12 PUSH1 0x0 DUP2 DUP2 LT PUSH2 0x37B JUMPI INVALID JUMPDEST SWAP1 POP PUSH1 0x20 MUL ADD PUSH1 0x20 DUP2 ADD SWAP1 PUSH2 0x390 SWAP2 SWAP1 PUSH2 0x2EE8 JUMP JUMPDEST PUSH1 0x1 PUSH1 0x1 PUSH1 0xA0 SHL SUB AND EQ ISZERO PUSH2 0x431 JUMPI PUSH32 0x0 PUSH1 0x1 PUSH1 0x1 PUSH1 0xA0 SHL SUB AND PUSH4 0x2E1A7D4D DUP11 DUP11 PUSH1 0x0 DUP2 DUP2 LT PUSH2 0x3DB JUMPI INVALID JUMPDEST SWAP1 POP PUSH1 0x20 MUL ADD CALLDATALOAD PUSH1 0x40 MLOAD DUP3 PUSH4 0xFFFFFFFF AND PUSH1 0xE0 SHL DUP2 MSTORE PUSH1 0x4 ADD PUSH2 0x3FE SWAP2 SWAP1 PUSH2 0x3C4F JUMP JUMPDEST PUSH1 0x0 PUSH1 0x40 MLOAD DUP1 DUP4 SUB DUP2 PUSH1 0x0 DUP8 DUP1 EXTCODESIZE ISZERO DUP1 ISZERO PUSH2 0x418 JUMPI PUSH1 0x0 DUP1 REVERT JUMPDEST POP GAS CALL ISZERO DUP1 ISZERO PUSH2 0x42C JUMPI RETURNDATASIZE PUSH1 0x0 DUP1 RETURNDATACOPY RETURNDATASIZE PUSH1 0x0 REVERT JUMPDEST POP POP POP POP JUMPDEST PUSH1 0x80 DUP2 ADD MLOAD MLOAD ISZERO PUSH2 0x463 JUMPI PUSH1 0x0 DUP2 PUSH1 0x80 ADD MLOAD DUP1 PUSH1 0x20 ADD SWAP1 MLOAD DUP2 ADD SWAP1 PUSH2 0x456 SWAP2 SWAP1 PUSH2 0x3611 JUMP JUMPDEST SWAP1 POP PUSH2 0x461 DUP2 PUSH2 0xED6 JUMP JUMPDEST POP JUMPDEST PUSH1 0x0 DUP2 MLOAD PUSH1 0xFF AND PUSH1 0x3 DUP2 GT ISZERO PUSH2 0x475 JUMPI INVALID JUMPDEST PUSH1 0x3 DUP2 GT ISZERO PUSH2 0x480 JUMPI INVALID JUMPDEST EQ ISZERO PUSH2 0x4C8 JUMPI PUSH2 0x4C3 DUP2 DUP13 DUP13 DUP1 DUP1 PUSH1 0x20 MUL PUSH1 0x20 ADD PUSH1 0x40 MLOAD SWAP1 DUP2 ADD PUSH1 0x40 MSTORE DUP1 SWAP4 SWAP3 SWAP2 SWAP1 DUP2 DUP2 MSTORE PUSH1 0x20 ADD DUP4 DUP4 PUSH1 0x20 MUL DUP1 DUP3 DUP5 CALLDATACOPY PUSH1 0x0 SWAP3 ADD SWAP2 SWAP1 SWAP2 MSTORE POP PUSH2 0xF54 SWAP3 POP POP POP JUMP JUMPDEST PUSH2 0x5E8 JUMP JUMPDEST PUSH1 0x1 DUP2 MLOAD PUSH1 0xFF AND PUSH1 0x3 DUP2 GT ISZERO PUSH2 0x4DA JUMPI INVALID JUMPDEST PUSH1 0x3 DUP2 GT ISZERO PUSH2 0x4E5 JUMPI INVALID JUMPDEST EQ ISZERO PUSH2 0x528 JUMPI PUSH2 0x4C3 DUP2 DUP13 DUP13 DUP1 DUP1 PUSH1 0x20 MUL PUSH1 0x20 ADD PUSH1 0x40 MLOAD SWAP1 DUP2 ADD PUSH1 0x40 MSTORE DUP1 SWAP4 SWAP3 SWAP2 SWAP1 DUP2 DUP2 MSTORE PUSH1 0x20 ADD DUP4 DUP4 PUSH1 0x20 MUL DUP1 DUP3 DUP5 CALLDATACOPY PUSH1 0x0 SWAP3 ADD SWAP2 SWAP1 SWAP2 MSTORE POP PUSH2 0x11B6 SWAP3 POP POP POP JUMP JUMPDEST PUSH1 0x2 DUP2 MLOAD PUSH1 0xFF AND PUSH1 0x3 DUP2 GT ISZERO PUSH2 0x53A JUMPI INVALID JUMPDEST PUSH1 0x3 DUP2 GT ISZERO PUSH2 0x545 JUMPI INVALID JUMPDEST EQ ISZERO PUSH2 0x588 JUMPI PUSH2 0x4C3 DUP2 DUP13 DUP13 DUP1 DUP1 PUSH1 0x20 MUL PUSH1 0x20 ADD PUSH1 0x40 MLOAD SWAP1 DUP2 ADD PUSH1 0x40 MSTORE DUP1 SWAP4 SWAP3 SWAP2 SWAP1 DUP2 DUP2 MSTORE PUSH1 0x20 ADD DUP4 DUP4 PUSH1 0x20 MUL DUP1 DUP3 DUP5 CALLDATACOPY PUSH1 0x0 SWAP3 ADD SWAP2 SWAP1 SWAP2 MSTORE POP PUSH2 0x1419 SWAP3 POP POP POP JUMP JUMPDEST PUSH1 0x3 DUP2 MLOAD PUSH1 0xFF AND PUSH1 0x3 DUP2 GT ISZERO PUSH2 0x59A JUMPI INVALID JUMPDEST PUSH1 0x3 DUP2 GT ISZERO PUSH2 0x5A5 JUMPI INVALID JUMPDEST EQ ISZERO PUSH2 0x5E8 JUMPI PUSH2 0x5E8 DUP2 DUP13 DUP13 DUP1 DUP1 PUSH1 0x20 MUL PUSH1 0x20 ADD PUSH1 0x40 MLOAD SWAP1 DUP2 ADD PUSH1 0x40 MSTORE DUP1 SWAP4 SWAP3 SWAP2 SWAP1 DUP2 DUP2 MSTORE PUSH1 0x20 ADD DUP4 DUP4 PUSH1 0x20 MUL DUP1 DUP3 DUP5 CALLDATACOPY PUSH1 0x0 SWAP3 ADD SWAP2 SWAP1 SWAP2 MSTORE POP PUSH2 0x1677 SWAP3 POP POP POP JUMP JUMPDEST DUP1 PUSH1 0x60 ADD MLOAD ISZERO PUSH2 0x667 JUMPI PUSH32 0x0 PUSH1 0x1 PUSH1 0x1 PUSH1 0xA0 SHL SUB AND PUSH4 0xD0E30DB0 SELFBALANCE PUSH1 0x40 MLOAD DUP3 PUSH4 0xFFFFFFFF AND PUSH1 0xE0 SHL DUP2 MSTORE PUSH1 0x4 ADD PUSH1 0x0 PUSH1 0x40 MLOAD DUP1 DUP4 SUB DUP2 DUP6 DUP9 DUP1 EXTCODESIZE ISZERO DUP1 ISZERO PUSH2 0x64D JUMPI PUSH1 0x0 DUP1 REVERT JUMPDEST POP GAS CALL ISZERO DUP1 ISZERO PUSH2 0x661 JUMPI RETURNDATASIZE PUSH1 0x0 DUP1 RETURNDATACOPY RETURNDATASIZE PUSH1 0x0 REVERT JUMPDEST POP POP POP POP POP JUMPDEST PUSH1 0x1 DUP2 MLOAD PUSH1 0xFF AND PUSH1 0x3 DUP2 GT ISZERO PUSH2 0x679 JUMPI INVALID JUMPDEST PUSH1 0x3 DUP2 GT ISZERO PUSH2 0x684 JUMPI INVALID JUMPDEST EQ DUP1 PUSH2 0x6AA JUMPI POP PUSH1 0x3 DUP2 MLOAD PUSH1 0xFF AND PUSH1 0x3 DUP2 GT ISZERO PUSH2 0x69D JUMPI INVALID JUMPDEST PUSH1 0x3 DUP2 GT ISZERO PUSH2 0x6A8 JUMPI INVALID JUMPDEST EQ JUMPDEST ISZERO PUSH2 0x6B8 JUMPI PUSH2 0x6B8 DUP2 PUSH2 0x18C4 JUMP JUMPDEST DUP1 PUSH1 0x60 ADD MLOAD ISZERO DUP1 ISZERO PUSH2 0x71C JUMPI POP PUSH32 0x0 PUSH1 0x1 PUSH1 0x1 PUSH1 0xA0 SHL SUB AND DUP12 DUP12 PUSH1 0x0 DUP2 DUP2 LT PUSH2 0x6FC JUMPI INVALID JUMPDEST SWAP1 POP PUSH1 0x20 MUL ADD PUSH1 0x20 DUP2 ADD SWAP1 PUSH2 0x711 SWAP2 SWAP1 PUSH2 0x2EE8 JUMP JUMPDEST PUSH1 0x1 PUSH1 0x1 PUSH1 0xA0 SHL SUB AND EQ JUMPDEST ISZERO PUSH2 0x796 JUMPI PUSH32 0x0 PUSH1 0x1 PUSH1 0x1 PUSH1 0xA0 SHL SUB AND PUSH4 0xD0E30DB0 SELFBALANCE PUSH1 0x40 MLOAD DUP3 PUSH4 0xFFFFFFFF AND PUSH1 0xE0 SHL DUP2 MSTORE PUSH1 0x4 ADD PUSH1 0x0 PUSH1 0x40 MLOAD DUP1 DUP4 SUB DUP2 DUP6 DUP9 DUP1 EXTCODESIZE ISZERO DUP1 ISZERO PUSH2 0x77C JUMPI PUSH1 0x0 DUP1 REVERT JUMPDEST POP GAS CALL ISZERO DUP1 ISZERO PUSH2 0x790 JUMPI RETURNDATASIZE PUSH1 0x0 DUP1 RETURNDATACOPY RETURNDATASIZE PUSH1 0x0 REVERT JUMPDEST POP POP POP POP POP JUMPDEST DUP1 PUSH1 0x20 ADD MLOAD ISZERO PUSH2 0x803 JUMPI PUSH2 0x803 DUP12 DUP12 PUSH1 0x0 DUP2 DUP2 LT PUSH2 0x7B0 JUMPI INVALID JUMPDEST SWAP1 POP PUSH1 0x20 MUL ADD PUSH1 0x20 DUP2 ADD SWAP1 PUSH2 0x7C5 SWAP2 SWAP1 PUSH2 0x2EE8 JUMP JUMPDEST PUSH2 0x7FE DUP10 DUP10 PUSH1 0x0 DUP2 DUP2 LT PUSH2 0x7D5 JUMPI INVALID JUMPDEST SWAP1 POP PUSH1 0x20 MUL ADD CALLDATALOAD DUP13 DUP13 PUSH1 0x0 DUP2 DUP2 LT PUSH2 0x7E9 JUMPI INVALID JUMPDEST SWAP1 POP PUSH1 0x20 MUL ADD CALLDATALOAD PUSH2 0x1966 SWAP1 SWAP2 SWAP1 PUSH4 0xFFFFFFFF AND JUMP JUMPDEST PUSH2 0x19C9 JUMP JUMPDEST PUSH1 0x1 SWAP2 POP POP JUMPDEST SWAP10 SWAP9 POP POP POP POP POP POP POP POP POP JUMP JUMPDEST PUSH32 0x0 DUP2 JUMP JUMPDEST PUSH1 0x1 SLOAD PUSH1 0x1 PUSH1 0x1 PUSH1 0xA0 SHL SUB AND CALLER EQ PUSH2 0x86D JUMPI PUSH1 0x40 MLOAD PUSH3 0x461BCD PUSH1 0xE5 SHL DUP2 MSTORE PUSH1 0x4 ADD PUSH2 0x864 SWAP1 PUSH2 0x3BBB JUMP JUMPDEST PUSH1 0x40 MLOAD DUP1 SWAP2 SUB SWAP1 REVERT JUMPDEST PUSH1 0x0 JUMPDEST DUP2 DUP2 LT ISZERO PUSH2 0x8AA JUMPI PUSH2 0x8A1 DUP4 DUP4 DUP4 DUP2 DUP2 LT PUSH2 0x887 JUMPI INVALID JUMPDEST SWAP1 POP PUSH1 0x20 MUL ADD PUSH1 0x20 DUP2 ADD SWAP1 PUSH2 0x89C SWAP2 SWAP1 PUSH2 0x3643 JUMP JUMPDEST PUSH2 0x1A7D JUMP JUMPDEST POP PUSH1 0x1 ADD PUSH2 0x870 JUMP JUMPDEST POP POP POP JUMP JUMPDEST PUSH32 0x0 DUP2 JUMP JUMPDEST PUSH1 0x1 SLOAD PUSH1 0x1 PUSH1 0x1 PUSH1 0xA0 SHL SUB AND CALLER EQ PUSH2 0x8FD JUMPI PUSH1 0x40 MLOAD PUSH3 0x461BCD PUSH1 0xE5 SHL DUP2 MSTORE PUSH1 0x4 ADD PUSH2 0x864 SWAP1 PUSH2 0x3BBB JUMP JUMPDEST PUSH1 0x0 JUMPDEST DUP3 DUP2 LT ISZERO PUSH2 0x95A JUMPI PUSH2 0x93F DUP3 PUSH1 0x0 DUP7 DUP7 DUP6 DUP2 DUP2 LT PUSH2 0x91A JUMPI INVALID JUMPDEST SWAP1 POP PUSH1 0x20 MUL ADD PUSH1 0x20 DUP2 ADD SWAP1 PUSH2 0x92F SWAP2 SWAP1 PUSH2 0x2EE8 JUMP JUMPDEST PUSH1 0x1 PUSH1 0x1 PUSH1 0xA0 SHL SUB AND SWAP2 SWAP1 PUSH2 0x1AEE JUMP JUMPDEST PUSH2 0x952 DUP3 PUSH1 0x0 NOT DUP7 DUP7 DUP6 DUP2 DUP2 LT PUSH2 0x91A JUMPI INVALID JUMPDEST PUSH1 0x1 ADD PUSH2 0x900 JUMP JUMPDEST POP POP POP POP JUMP JUMPDEST PUSH1 0x0 PUSH1 0x60 PUSH32 0x0 PUSH1 0x1 PUSH1 0x1 PUSH1 0xA0 SHL SUB AND PUSH4 0xF667F897 DUP5 PUSH1 0x40 MLOAD DUP3 PUSH4 0xFFFFFFFF AND PUSH1 0xE0 SHL DUP2 MSTORE PUSH1 0x4 ADD PUSH2 0x9B0 SWAP2 SWAP1 PUSH2 0x37AA JUMP JUMPDEST PUSH1 0x0 PUSH1 0x40 MLOAD DUP1 DUP4 SUB DUP2 PUSH1 0x0 DUP8 DUP1 EXTCODESIZE ISZERO DUP1 ISZERO PUSH2 0x9CA JUMPI PUSH1 0x0 DUP1 REVERT JUMPDEST POP GAS CALL ISZERO DUP1 ISZERO PUSH2 0x9DE JUMPI RETURNDATASIZE PUSH1 0x0 DUP1 RETURNDATACOPY RETURNDATASIZE PUSH1 0x0 REVERT JUMPDEST POP POP PUSH1 0x40 MLOAD PUSH4 0x30E66511 PUSH1 0xE2 SHL DUP2 MSTORE PUSH1 0x1 PUSH1 0x1 PUSH1 0xA0 SHL SUB PUSH32 0x0 AND SWAP3 POP PUSH4 0xC3999444 SWAP2 POP PUSH2 0xA2E SWAP1 DUP7 SWAP1 PUSH1 0x4 ADD PUSH2 0x37AA JUMP JUMPDEST PUSH1 0x0 PUSH1 0x40 MLOAD DUP1 DUP4 SUB DUP2 DUP7 DUP1 EXTCODESIZE ISZERO DUP1 ISZERO PUSH2 0xA46 JUMPI PUSH1 0x0 DUP1 REVERT JUMPDEST POP GAS STATICCALL ISZERO DUP1 ISZERO PUSH2 0xA5A JUMPI RETURNDATASIZE PUSH1 0x0 DUP1 RETURNDATACOPY RETURNDATASIZE PUSH1 0x0 REVERT JUMPDEST POP POP POP POP PUSH1 0x40 MLOAD RETURNDATASIZE PUSH1 0x0 DUP3 RETURNDATACOPY PUSH1 0x1F RETURNDATASIZE SWAP1 DUP2 ADD PUSH1 0x1F NOT AND DUP3 ADD PUSH1 0x40 MSTORE PUSH2 0xA82 SWAP2 SWAP1 DUP2 ADD SWAP1 PUSH2 0x3179 JUMP JUMPDEST SWAP2 POP SWAP2 POP SWAP2 POP SWAP2 JUMP JUMPDEST PUSH1 0x1 SLOAD PUSH1 0x0 SWAP1 DUP2 SWAP1 DUP2 SWAP1 PUSH1 0x1 PUSH1 0x1 PUSH1 0xA0 SHL SUB AND CALLER EQ PUSH2 0xABC JUMPI PUSH1 0x40 MLOAD PUSH3 0x461BCD PUSH1 0xE5 SHL DUP2 MSTORE PUSH1 0x4 ADD PUSH2 0x864 SWAP1 PUSH2 0x3BBB JUMP JUMPDEST PUSH1 0x40 DUP1 MLOAD PUSH1 0x1 DUP1 DUP3 MSTORE DUP2 DUP4 ADD SWAP1 SWAP3 MSTORE PUSH1 0x0 SWAP2 PUSH1 0x20 DUP1 DUP4 ADD SWAP1 DUP1 CALLDATASIZE DUP4 CALLDATACOPY POP POP PUSH1 0x40 DUP1 MLOAD PUSH1 0x1 DUP1 DUP3 MSTORE DUP2 DUP4 ADD SWAP1 SWAP3 MSTORE SWAP3 SWAP4 POP PUSH1 0x0 SWAP3 SWAP2 POP PUSH1 0x20 DUP1 DUP4 ADD SWAP1 DUP1 CALLDATASIZE DUP4 CALLDATACOPY ADD SWAP1 POP POP SWAP1 POP DUP11 DUP3 PUSH1 0x0 DUP2 MLOAD DUP2 LT PUSH2 0xB0F JUMPI INVALID JUMPDEST PUSH1 0x20 MUL PUSH1 0x20 ADD ADD SWAP1 PUSH1 0x1 PUSH1 0x1 PUSH1 0xA0 SHL SUB AND SWAP1 DUP2 PUSH1 0x1 PUSH1 0x1 PUSH1 0xA0 SHL SUB AND DUP2 MSTORE POP POP DUP10 DUP2 PUSH1 0x0 DUP2 MLOAD DUP2 LT PUSH2 0xB3D JUMPI INVALID JUMPDEST PUSH1 0x20 SWAP1 DUP2 MUL SWAP2 SWAP1 SWAP2 ADD ADD MSTORE PUSH1 0x40 DUP1 MLOAD PUSH1 0x1 DUP1 DUP3 MSTORE DUP2 DUP4 ADD SWAP1 SWAP3 MSTORE PUSH32 0x0 PUSH1 0x1 PUSH1 0x1 PUSH1 0xA0 SHL SUB AND SWAP2 PUSH4 0xAB9C4B5D SWAP2 ADDRESS SWAP2 DUP7 SWAP2 DUP7 SWAP2 DUP2 PUSH1 0x20 ADD PUSH1 0x20 DUP3 MUL DUP1 CALLDATASIZE DUP4 CALLDATACOPY ADD SWAP1 POP POP ADDRESS DUP16 DUP16 PUSH1 0x0 PUSH1 0x40 MLOAD DUP10 PUSH4 0xFFFFFFFF AND PUSH1 0xE0 SHL DUP2 MSTORE PUSH1 0x4 ADD PUSH2 0xBC6 SWAP9 SWAP8 SWAP7 SWAP6 SWAP5 SWAP4 SWAP3 SWAP2 SWAP1 PUSH2 0x3935 JUMP JUMPDEST PUSH1 0x0 PUSH1 0x40 MLOAD DUP1 DUP4 SUB DUP2 PUSH1 0x0 DUP8 DUP1 EXTCODESIZE ISZERO DUP1 ISZERO PUSH2 0xBE0 JUMPI PUSH1 0x0 DUP1 REVERT JUMPDEST POP GAS CALL ISZERO DUP1 ISZERO PUSH2 0xBF4 JUMPI RETURNDATASIZE PUSH1 0x0 DUP1 RETURNDATACOPY RETURNDATASIZE PUSH1 0x0 REVERT JUMPDEST POP POP PUSH1 0x40 MLOAD PUSH4 0x70A08231 PUSH1 0xE0 SHL DUP2 MSTORE PUSH1 0x1 PUSH1 0x1 PUSH1 0xA0 SHL SUB DUP15 AND SWAP3 POP PUSH4 0x70A08231 SWAP2 POP PUSH2 0xC24 SWAP1 ADDRESS SWAP1 PUSH1 0x4 ADD PUSH2 0x37AA JUMP JUMPDEST PUSH1 0x20 PUSH1 0x40 MLOAD DUP1 DUP4 SUB DUP2 DUP7 DUP1 EXTCODESIZE ISZERO DUP1 ISZERO PUSH2 0xC3C JUMPI PUSH1 0x0 DUP1 REVERT JUMPDEST POP GAS STATICCALL ISZERO DUP1 ISZERO PUSH2 0xC50 JUMPI RETURNDATASIZE PUSH1 0x0 DUP1 RETURNDATACOPY RETURNDATASIZE PUSH1 0x0 REVERT JUMPDEST POP POP POP POP PUSH1 0x40 MLOAD RETURNDATASIZE PUSH1 0x1F NOT PUSH1 0x1F DUP3 ADD AND DUP3 ADD DUP1 PUSH1 0x40 MSTORE POP DUP2 ADD SWAP1 PUSH2 0xC74 SWAP2 SWAP1 PUSH2 0x365F JUMP JUMPDEST SWAP5 POP PUSH1 0x1 PUSH1 0x1 PUSH1 0xA0 SHL SUB DUP8 AND ISZERO PUSH2 0xD06 JUMPI PUSH1 0x40 MLOAD PUSH4 0x70A08231 PUSH1 0xE0 SHL DUP2 MSTORE PUSH1 0x1 PUSH1 0x1 PUSH1 0xA0 SHL SUB DUP9 AND SWAP1 PUSH4 0x70A08231 SWAP1 PUSH2 0xCB1 SWAP1 ADDRESS SWAP1 PUSH1 0x4 ADD PUSH2 0x37AA JUMP JUMPDEST PUSH1 0x20 PUSH1 0x40 MLOAD DUP1 DUP4 SUB DUP2 DUP7 DUP1 EXTCODESIZE ISZERO DUP1 ISZERO PUSH2 0xCC9 JUMPI PUSH1 0x0 DUP1 REVERT JUMPDEST POP GAS STATICCALL ISZERO DUP1 ISZERO PUSH2 0xCDD JUMPI RETURNDATASIZE PUSH1 0x0 DUP1 RETURNDATACOPY RETURNDATASIZE PUSH1 0x0 REVERT JUMPDEST POP POP POP POP PUSH1 0x40 MLOAD RETURNDATASIZE PUSH1 0x1F NOT PUSH1 0x1F DUP3 ADD AND DUP3 ADD DUP1 PUSH1 0x40 MSTORE POP DUP2 ADD SWAP1 PUSH2 0xD01 SWAP2 SWAP1 PUSH2 0x365F JUMP JUMPDEST PUSH2 0xD08 JUMP JUMPDEST SELFBALANCE JUMPDEST SWAP4 POP PUSH1 0x1 PUSH1 0x1 PUSH1 0xA0 SHL SUB DUP7 AND ISZERO PUSH2 0xD9A JUMPI PUSH1 0x40 MLOAD PUSH4 0x70A08231 PUSH1 0xE0 SHL DUP2 MSTORE PUSH1 0x1 PUSH1 0x1 PUSH1 0xA0 SHL SUB DUP8 AND SWAP1 PUSH4 0x70A08231 SWAP1 PUSH2 0xD45 SWAP1 ADDRESS SWAP1 PUSH1 0x4 ADD PUSH2 0x37AA JUMP JUMPDEST PUSH1 0x20 PUSH1 0x40 MLOAD DUP1 DUP4 SUB DUP2 DUP7 DUP1 EXTCODESIZE ISZERO DUP1 ISZERO PUSH2 0xD5D JUMPI PUSH1 0x0 DUP1 REVERT JUMPDEST POP GAS STATICCALL ISZERO DUP1 ISZERO PUSH2 0xD71 JUMPI RETURNDATASIZE PUSH1 0x0 DUP1 RETURNDATACOPY RETURNDATASIZE PUSH1 0x0 REVERT JUMPDEST POP POP POP POP PUSH1 0x40 MLOAD RETURNDATASIZE PUSH1 0x1F NOT PUSH1 0x1F DUP3 ADD AND DUP3 ADD DUP1 PUSH1 0x40 MSTORE POP DUP2 ADD SWAP1 PUSH2 0xD95 SWAP2 SWAP1 PUSH2 0x365F JUMP JUMPDEST PUSH2 0xD9C JUMP JUMPDEST SELFBALANCE JUMPDEST SWAP3 POP POP POP SWAP7 POP SWAP7 POP SWAP7 SWAP4 POP POP POP POP JUMP JUMPDEST PUSH1 0x1 SLOAD PUSH1 0x1 PUSH1 0x1 PUSH1 0xA0 SHL SUB AND CALLER EQ PUSH2 0xDD6 JUMPI PUSH1 0x40 MLOAD PUSH3 0x461BCD PUSH1 0xE5 SHL DUP2 MSTORE PUSH1 0x4 ADD PUSH2 0x864 SWAP1 PUSH2 0x3BBB JUMP JUMPDEST PUSH1 0x1 PUSH1 0x1 PUSH1 0xA0 SHL SUB DUP2 AND PUSH2 0xDFC JUMPI PUSH1 0x40 MLOAD PUSH3 0x461BCD PUSH1 0xE5 SHL DUP2 MSTORE PUSH1 0x4 ADD PUSH2 0x864 SWAP1 PUSH2 0x3B69 JUMP JUMPDEST PUSH1 0x1 DUP1 SLOAD PUSH1 0x1 PUSH1 0x1 PUSH1 0xA0 SHL SUB NOT AND PUSH1 0x1 PUSH1 0x1 PUSH1 0xA0 SHL SUB SWAP3 SWAP1 SWAP3 AND SWAP2 SWAP1 SWAP2 OR SWAP1 SSTORE JUMP JUMPDEST PUSH1 0x1 SLOAD PUSH2 0xE38 SWAP1 PUSH1 0x1 PUSH1 0x1 PUSH1 0xA0 SHL SUB DUP5 DUP2 AND SWAP2 AND DUP4 PUSH2 0x1C01 JUMP JUMPDEST POP POP JUMP JUMPDEST PUSH32 0x0 DUP2 JUMP JUMPDEST PUSH32 0x0 PUSH1 0x1 PUSH1 0x1 PUSH1 0xA0 SHL SUB AND PUSH4 0xD0E30DB0 SELFBALANCE PUSH1 0x40 MLOAD DUP3 PUSH4 0xFFFFFFFF AND PUSH1 0xE0 SHL DUP2 MSTORE PUSH1 0x4 ADD PUSH1 0x0 PUSH1 0x40 MLOAD DUP1 DUP4 SUB DUP2 DUP6 DUP9 DUP1 EXTCODESIZE ISZERO DUP1 ISZERO PUSH2 0xEBB JUMPI PUSH1 0x0 DUP1 REVERT JUMPDEST POP GAS CALL ISZERO DUP1 ISZERO PUSH2 0xECF JUMPI RETURNDATASIZE PUSH1 0x0 DUP1 RETURNDATACOPY RETURNDATASIZE PUSH1 0x0 REVERT JUMPDEST POP POP POP POP POP JUMP JUMPDEST DUP1 PUSH1 0x40 ADD MLOAD ISZERO PUSH2 0xF20 JUMPI PUSH1 0x20 DUP2 ADD MLOAD PUSH1 0x60 DUP3 ADD MLOAD DUP3 MLOAD PUSH2 0xF19 SWAP3 SWAP1 SWAP2 PUSH32 0x0 SWAP1 PUSH2 0x1C53 JUMP JUMPDEST POP POP PUSH2 0xF51 JUMP JUMPDEST PUSH1 0x20 DUP2 ADD MLOAD DUP2 MLOAD PUSH2 0x8AA SWAP2 PUSH32 0x0 PUSH2 0x1DA0 JUMP JUMPDEST POP JUMP JUMPDEST PUSH1 0x0 DUP3 PUSH1 0xA0 ADD MLOAD DUP1 PUSH1 0x20 ADD SWAP1 MLOAD DUP2 ADD SWAP1 PUSH2 0xF6E SWAP2 SWAP1 PUSH2 0x34B7 JUMP JUMPDEST SWAP1 POP DUP3 PUSH1 0x40 ADD MLOAD ISZERO PUSH2 0x10F4 JUMPI PUSH1 0x0 DUP3 PUSH1 0x0 DUP2 MLOAD DUP2 LT PUSH2 0xF89 JUMPI INVALID JUMPDEST PUSH1 0x20 MUL PUSH1 0x20 ADD ADD MLOAD PUSH1 0x1 PUSH1 0x1 PUSH1 0xA0 SHL SUB AND PUSH4 0x70A08231 ADDRESS PUSH1 0x40 MLOAD DUP3 PUSH4 0xFFFFFFFF AND PUSH1 0xE0 SHL DUP2 MSTORE PUSH1 0x4 ADD PUSH2 0xFBC SWAP2 SWAP1 PUSH2 0x37AA JUMP JUMPDEST PUSH1 0x20 PUSH1 0x40 MLOAD DUP1 DUP4 SUB DUP2 DUP7 DUP1 EXTCODESIZE ISZERO DUP1 ISZERO PUSH2 0xFD4 JUMPI PUSH1 0x0 DUP1 REVERT JUMPDEST POP GAS STATICCALL ISZERO DUP1 ISZERO PUSH2 0xFE8 JUMPI RETURNDATASIZE PUSH1 0x0 DUP1 RETURNDATACOPY RETURNDATASIZE PUSH1 0x0 REVERT JUMPDEST POP POP POP POP PUSH1 0x40 MLOAD RETURNDATASIZE PUSH1 0x1F NOT PUSH1 0x1F DUP3 ADD AND DUP3 ADD DUP1 PUSH1 0x40 MSTORE POP DUP2 ADD SWAP1 PUSH2 0x100C SWAP2 SWAP1 PUSH2 0x365F JUMP JUMPDEST SWAP1 POP PUSH2 0x104C DUP4 PUSH1 0x0 DUP2 MLOAD DUP2 LT PUSH2 0x101E JUMPI INVALID JUMPDEST PUSH1 0x20 MUL PUSH1 0x20 ADD ADD MLOAD PUSH32 0x0 PUSH2 0x1EEA JUMP JUMPDEST PUSH1 0x20 DUP3 ADD MLOAD PUSH1 0x40 MLOAD PUSH4 0x2890FB65 PUSH1 0xE0 SHL DUP2 MSTORE PUSH1 0x1 PUSH1 0x1 PUSH1 0xA0 SHL SUB PUSH32 0x0 AND SWAP2 PUSH4 0x2890FB65 SWAP2 PUSH2 0x109F SWAP2 ADDRESS SWAP2 DUP7 SWAP1 PUSH1 0x4 ADD PUSH2 0x3ACB JUMP JUMPDEST PUSH1 0x20 PUSH1 0x40 MLOAD DUP1 DUP4 SUB DUP2 PUSH1 0x0 DUP8 DUP1 EXTCODESIZE ISZERO DUP1 ISZERO PUSH2 0x10B9 JUMPI PUSH1 0x0 DUP1 REVERT JUMPDEST POP GAS CALL ISZERO DUP1 ISZERO PUSH2 0x10CD JUMPI RETURNDATASIZE PUSH1 0x0 DUP1 RETURNDATACOPY RETURNDATASIZE PUSH1 0x0 REVERT JUMPDEST POP POP POP POP PUSH1 0x40 MLOAD RETURNDATASIZE PUSH1 0x1F NOT PUSH1 0x1F DUP3 ADD AND DUP3 ADD DUP1 PUSH1 0x40 MSTORE POP DUP2 ADD SWAP1 PUSH2 0x10F1 SWAP2 SWAP1 PUSH2 0x365F JUMP JUMPDEST POP POP JUMPDEST DUP1 MLOAD PUSH1 0x20 DUP3 ADD MLOAD PUSH1 0x40 DUP1 DUP5 ADD MLOAD SWAP1 MLOAD PUSH4 0x2D10E6EB PUSH1 0xE0 SHL DUP2 MSTORE PUSH1 0x0 SWAP4 PUSH1 0x1 PUSH1 0x1 PUSH1 0xA0 SHL SUB PUSH32 0x0 AND SWAP4 PUSH4 0x2D10E6EB SWAP4 SELFBALANCE SWAP4 PUSH2 0x1152 SWAP4 SWAP3 SWAP2 SWAP1 PUSH1 0x4 ADD PUSH2 0x3AF0 JUMP JUMPDEST PUSH1 0x40 DUP1 MLOAD DUP1 DUP4 SUB DUP2 DUP6 DUP9 DUP1 EXTCODESIZE ISZERO DUP1 ISZERO PUSH2 0x116A JUMPI PUSH1 0x0 DUP1 REVERT JUMPDEST POP GAS CALL ISZERO DUP1 ISZERO PUSH2 0x117E JUMPI RETURNDATASIZE PUSH1 0x0 DUP1 RETURNDATACOPY RETURNDATASIZE PUSH1 0x0 REVERT JUMPDEST POP POP POP POP POP PUSH1 0x40 MLOAD RETURNDATASIZE PUSH1 0x1F NOT PUSH1 0x1F DUP3 ADD AND DUP3 ADD DUP1 PUSH1 0x40 MSTORE POP DUP2 ADD SWAP1 PUSH2 0x11A3 SWAP2 SWAP1 PUSH2 0x31BD JUMP JUMPDEST SWAP2 POP POP PUSH2 0x95A DUP3 PUSH1 0x20 ADD MLOAD DUP3 PUSH1 0x1 PUSH2 0x1F8A JUMP JUMPDEST PUSH1 0x0 DUP3 PUSH1 0xA0 ADD MLOAD DUP1 PUSH1 0x20 ADD SWAP1 MLOAD DUP2 ADD SWAP1 PUSH2 0x11D0 SWAP2 SWAP1 PUSH2 0x320D JUMP JUMPDEST SWAP1 POP DUP3 PUSH1 0x40 ADD MLOAD ISZERO PUSH2 0x1328 JUMPI PUSH1 0x0 DUP3 PUSH1 0x0 DUP2 MLOAD DUP2 LT PUSH2 0x11EB JUMPI INVALID JUMPDEST PUSH1 0x20 MUL PUSH1 0x20 ADD ADD MLOAD PUSH1 0x1 PUSH1 0x1 PUSH1 0xA0 SHL SUB AND PUSH4 0x70A08231 ADDRESS PUSH1 0x40 MLOAD DUP3 PUSH4 0xFFFFFFFF AND PUSH1 0xE0 SHL DUP2 MSTORE PUSH1 0x4 ADD PUSH2 0x121E SWAP2 SWAP1 PUSH2 0x37AA JUMP JUMPDEST PUSH1 0x20 PUSH1 0x40 MLOAD DUP1 DUP4 SUB DUP2 DUP7 DUP1 EXTCODESIZE ISZERO DUP1 ISZERO PUSH2 0x1236 JUMPI PUSH1 0x0 DUP1 REVERT JUMPDEST POP GAS STATICCALL ISZERO DUP1 ISZERO PUSH2 0x124A JUMPI RETURNDATASIZE PUSH1 0x0 DUP1 RETURNDATACOPY RETURNDATASIZE PUSH1 0x0 REVERT JUMPDEST POP POP POP POP PUSH1 0x40 MLOAD RETURNDATASIZE PUSH1 0x1F NOT PUSH1 0x1F DUP3 ADD AND DUP3 ADD DUP1 PUSH1 0x40 MSTORE POP DUP2 ADD SWAP1 PUSH2 0x126E SWAP2 SWAP1 PUSH2 0x365F JUMP JUMPDEST SWAP1 POP PUSH2 0x1280 DUP4 PUSH1 0x0 DUP2 MLOAD DUP2 LT PUSH2 0x101E JUMPI INVALID JUMPDEST PUSH1 0x20 DUP3 ADD MLOAD PUSH1 0x40 MLOAD PUSH4 0x2890FB65 PUSH1 0xE0 SHL DUP2 MSTORE PUSH1 0x1 PUSH1 0x1 PUSH1 0xA0 SHL SUB PUSH32 0x0 AND SWAP2 PUSH4 0x2890FB65 SWAP2 PUSH2 0x12D3 SWAP2 ADDRESS SWAP2 DUP7 SWAP1 PUSH1 0x4 ADD PUSH2 0x3ACB JUMP JUMPDEST PUSH1 0x20 PUSH1 0x40 MLOAD DUP1 DUP4 SUB DUP2 PUSH1 0x0 DUP8 DUP1 EXTCODESIZE ISZERO DUP1 ISZERO PUSH2 0x12ED JUMPI PUSH1 0x0 DUP1 REVERT JUMPDEST POP GAS CALL ISZERO DUP1 ISZERO PUSH2 0x1301 JUMPI RETURNDATASIZE PUSH1 0x0 DUP1 RETURNDATACOPY RETURNDATASIZE PUSH1 0x0 REVERT JUMPDEST POP POP POP POP PUSH1 0x40 MLOAD RETURNDATASIZE PUSH1 0x1F NOT PUSH1 0x1F DUP3 ADD AND DUP3 ADD DUP1 PUSH1 0x40 MSTORE POP DUP2 ADD SWAP1 PUSH2 0x1325 SWAP2 SWAP1 PUSH2 0x365F JUMP JUMPDEST POP POP JUMPDEST PUSH1 0x0 PUSH32 0x0 PUSH1 0x1 PUSH1 0x1 PUSH1 0xA0 SHL SUB AND PUSH4 0x6633AF39 SELFBALANCE DUP5 PUSH1 0x0 ADD MLOAD DUP6 PUSH1 0x20 ADD MLOAD DUP7 PUSH1 0x40 ADD MLOAD DUP8 PUSH1 0x80 ADD MLOAD DUP9 PUSH1 0xA0 ADD MLOAD PUSH1 0x1 DUP1 PUSH1 0x40 MLOAD DUP10 PUSH4 0xFFFFFFFF AND PUSH1 0xE0 SHL DUP2 MSTORE PUSH1 0x4 ADD PUSH2 0x1398 SWAP8 SWAP7 SWAP6 SWAP5 SWAP4 SWAP3 SWAP2 SWAP1 PUSH2 0x3A75 JUMP JUMPDEST PUSH1 0x60 PUSH1 0x40 MLOAD DUP1 DUP4 SUB DUP2 DUP6 DUP9 DUP1 EXTCODESIZE ISZERO DUP1 ISZERO PUSH2 0x13B1 JUMPI PUSH1 0x0 DUP1 REVERT JUMPDEST POP GAS CALL ISZERO DUP1 ISZERO PUSH2 0x13C5 JUMPI RETURNDATASIZE PUSH1 0x0 DUP1 RETURNDATACOPY RETURNDATASIZE PUSH1 0x0 REVERT JUMPDEST POP POP POP POP POP PUSH1 0x40 MLOAD RETURNDATASIZE PUSH1 0x1F NOT PUSH1 0x1F DUP3 ADD AND DUP3 ADD DUP1 PUSH1 0x40 MSTORE POP DUP2 ADD SWAP1 PUSH2 0x13EA SWAP2 SWAP1 PUSH2 0x31E0 JUMP JUMPDEST SWAP3 POP POP POP PUSH2 0x13FE DUP3 PUSH1 0x40 ADD MLOAD DUP3 PUSH1 0x1 PUSH2 0x1F8A JUMP JUMPDEST DUP4 PUSH1 0x40 ADD MLOAD ISZERO PUSH2 0x95A JUMPI PUSH2 0x95A DUP3 PUSH1 0x20 ADD MLOAD PUSH1 0x0 PUSH1 0x1 PUSH2 0x1F8A JUMP JUMPDEST PUSH1 0x0 DUP3 PUSH1 0xA0 ADD MLOAD DUP1 PUSH1 0x20 ADD SWAP1 MLOAD DUP2 ADD SWAP1 PUSH2 0x1433 SWAP2 SWAP1 PUSH2 0x351F JUMP JUMPDEST SWAP1 POP DUP3 PUSH1 0x40 ADD MLOAD ISZERO PUSH2 0x158B JUMPI PUSH1 0x0 DUP3 PUSH1 0x0 DUP2 MLOAD DUP2 LT PUSH2 0x144E JUMPI INVALID JUMPDEST PUSH1 0x20 MUL PUSH1 0x20 ADD ADD MLOAD PUSH1 0x1 PUSH1 0x1 PUSH1 0xA0 SHL SUB AND PUSH4 0x70A08231 ADDRESS PUSH1 0x40 MLOAD DUP3 PUSH4 0xFFFFFFFF AND PUSH1 0xE0 SHL DUP2 MSTORE PUSH1 0x4 ADD PUSH2 0x1481 SWAP2 SWAP1 PUSH2 0x37AA JUMP JUMPDEST PUSH1 0x20 PUSH1 0x40 MLOAD DUP1 DUP4 SUB DUP2 DUP7 DUP1 EXTCODESIZE ISZERO DUP1 ISZERO PUSH2 0x1499 JUMPI PUSH1 0x0 DUP1 REVERT JUMPDEST POP GAS STATICCALL ISZERO DUP1 ISZERO PUSH2 0x14AD JUMPI RETURNDATASIZE PUSH1 0x0 DUP1 RETURNDATACOPY RETURNDATASIZE PUSH1 0x0 REVERT JUMPDEST POP POP POP POP PUSH1 0x40 MLOAD RETURNDATASIZE PUSH1 0x1F NOT PUSH1 0x1F DUP3 ADD AND DUP3 ADD DUP1 PUSH1 0x40 MSTORE POP DUP2 ADD SWAP1 PUSH2 0x14D1 SWAP2 SWAP1 PUSH2 0x365F JUMP JUMPDEST SWAP1 POP PUSH2 0x14E3 DUP4 PUSH1 0x0 DUP2 MLOAD DUP2 LT PUSH2 0x101E JUMPI INVALID JUMPDEST PUSH1 0x20 DUP3 ADD MLOAD PUSH1 0x40 MLOAD PUSH4 0x2890FB65 PUSH1 0xE0 SHL DUP2 MSTORE PUSH1 0x1 PUSH1 0x1 PUSH1 0xA0 SHL SUB PUSH32 0x0 AND SWAP2 PUSH4 0x2890FB65 SWAP2 PUSH2 0x1536 SWAP2 ADDRESS SWAP2 DUP7 SWAP1 PUSH1 0x4 ADD PUSH2 0x3ACB JUMP JUMPDEST PUSH1 0x20 PUSH1 0x40 MLOAD DUP1 DUP4 SUB DUP2 PUSH1 0x0 DUP8 DUP1 EXTCODESIZE ISZERO DUP1 ISZERO PUSH2 0x1550 JUMPI PUSH1 0x0 DUP1 REVERT JUMPDEST POP GAS CALL ISZERO DUP1 ISZERO PUSH2 0x1564 JUMPI RETURNDATASIZE PUSH1 0x0 DUP1 RETURNDATACOPY RETURNDATASIZE PUSH1 0x0 REVERT JUMPDEST POP POP POP POP PUSH1 0x40 MLOAD RETURNDATASIZE PUSH1 0x1F NOT PUSH1 0x1F DUP3 ADD AND DUP3 ADD DUP1 PUSH1 0x40 MSTORE POP DUP2 ADD SWAP1 PUSH2 0x1588 SWAP2 SWAP1 PUSH2 0x365F JUMP JUMPDEST POP POP JUMPDEST DUP1 MLOAD PUSH1 0x20 DUP3 ADD MLOAD PUSH1 0x40 DUP1 DUP5 ADD MLOAD PUSH1 0x60 DUP6 ADD MLOAD SWAP2 MLOAD PUSH4 0x1FF7AEFD PUSH1 0xE2 SHL DUP2 MSTORE PUSH1 0x0 SWAP5 DUP6 SWAP5 PUSH1 0x1 PUSH1 0x1 PUSH1 0xA0 SHL SUB PUSH32 0x0 AND SWAP5 PUSH4 0x7FDEBBF4 SWAP5 SELFBALANCE SWAP5 PUSH2 0x15F0 SWAP5 SWAP4 SWAP3 SWAP1 PUSH1 0x4 ADD PUSH2 0x39E1 JUMP JUMPDEST PUSH1 0x0 PUSH1 0x40 MLOAD DUP1 DUP4 SUB DUP2 DUP6 DUP9 DUP1 EXTCODESIZE ISZERO DUP1 ISZERO PUSH2 0x1609 JUMPI PUSH1 0x0 DUP1 REVERT JUMPDEST POP GAS CALL ISZERO DUP1 ISZERO PUSH2 0x161D JUMPI RETURNDATASIZE PUSH1 0x0 DUP1 RETURNDATACOPY RETURNDATASIZE PUSH1 0x0 REVERT JUMPDEST POP POP POP POP POP PUSH1 0x40 MLOAD RETURNDATASIZE PUSH1 0x0 DUP3 RETURNDATACOPY PUSH1 0x1F RETURNDATASIZE SWAP1 DUP2 ADD PUSH1 0x1F NOT AND DUP3 ADD PUSH1 0x40 MSTORE PUSH2 0x1646 SWAP2 SWAP1 DUP2 ADD SWAP1 PUSH2 0x30F6 JUMP JUMPDEST SWAP2 POP SWAP2 POP PUSH2 0xECF DUP4 PUSH1 0x20 ADD MLOAD DUP5 PUSH1 0x40 ADD MLOAD DUP5 PUSH1 0x0 DUP6 SLT PUSH2 0x1667 JUMPI PUSH1 0x0 PUSH2 0x1670 JUMP JUMPDEST PUSH2 0x1670 DUP6 PUSH2 0x2128 JUMP JUMPDEST PUSH1 0x1 PUSH2 0x2149 JUMP JUMPDEST PUSH1 0x0 DUP3 PUSH1 0xA0 ADD MLOAD DUP1 PUSH1 0x20 ADD SWAP1 MLOAD DUP2 ADD SWAP1 PUSH2 0x1691 SWAP2 SWAP1 PUSH2 0x32DD JUMP JUMPDEST SWAP1 POP DUP3 PUSH1 0x40 ADD MLOAD ISZERO PUSH2 0x17E9 JUMPI PUSH1 0x0 DUP3 PUSH1 0x0 DUP2 MLOAD DUP2 LT PUSH2 0x16AC JUMPI INVALID JUMPDEST PUSH1 0x20 MUL PUSH1 0x20 ADD ADD MLOAD PUSH1 0x1 PUSH1 0x1 PUSH1 0xA0 SHL SUB AND PUSH4 0x70A08231 ADDRESS PUSH1 0x40 MLOAD DUP3 PUSH4 0xFFFFFFFF AND PUSH1 0xE0 SHL DUP2 MSTORE PUSH1 0x4 ADD PUSH2 0x16DF SWAP2 SWAP1 PUSH2 0x37AA JUMP JUMPDEST PUSH1 0x20 PUSH1 0x40 MLOAD DUP1 DUP4 SUB DUP2 DUP7 DUP1 EXTCODESIZE ISZERO DUP1 ISZERO PUSH2 0x16F7 JUMPI PUSH1 0x0 DUP1 REVERT JUMPDEST POP GAS STATICCALL ISZERO DUP1 ISZERO PUSH2 0x170B JUMPI RETURNDATASIZE PUSH1 0x0 DUP1 RETURNDATACOPY RETURNDATASIZE PUSH1 0x0 REVERT JUMPDEST POP POP POP POP PUSH1 0x40 MLOAD RETURNDATASIZE PUSH1 0x1F NOT PUSH1 0x1F DUP3 ADD AND DUP3 ADD DUP1 PUSH1 0x40 MSTORE POP DUP2 ADD SWAP1 PUSH2 0x172F SWAP2 SWAP1 PUSH2 0x365F JUMP JUMPDEST SWAP1 POP PUSH2 0x1741 DUP4 PUSH1 0x0 DUP2 MLOAD DUP2 LT PUSH2 0x101E JUMPI INVALID JUMPDEST PUSH1 0x20 DUP3 ADD MLOAD PUSH1 0x40 MLOAD PUSH4 0x2890FB65 PUSH1 0xE0 SHL DUP2 MSTORE PUSH1 0x1 PUSH1 0x1 PUSH1 0xA0 SHL SUB PUSH32 0x0 AND SWAP2 PUSH4 0x2890FB65 SWAP2 PUSH2 0x1794 SWAP2 ADDRESS SWAP2 DUP7 SWAP1 PUSH1 0x4 ADD PUSH2 0x3ACB JUMP JUMPDEST PUSH1 0x20 PUSH1 0x40 MLOAD DUP1 DUP4 SUB DUP2 PUSH1 0x0 DUP8 DUP1 EXTCODESIZE ISZERO DUP1 ISZERO PUSH2 0x17AE JUMPI PUSH1 0x0 DUP1 REVERT JUMPDEST POP GAS CALL ISZERO DUP1 ISZERO PUSH2 0x17C2 JUMPI RETURNDATASIZE PUSH1 0x0 DUP1 RETURNDATACOPY RETURNDATASIZE PUSH1 0x0 REVERT JUMPDEST POP POP POP POP PUSH1 0x40 MLOAD RETURNDATASIZE PUSH1 0x1F NOT PUSH1 0x1F DUP3 ADD AND DUP3 ADD DUP1 PUSH1 0x40 MSTORE POP DUP2 ADD SWAP1 PUSH2 0x17E6 SWAP2 SWAP1 PUSH2 0x365F JUMP JUMPDEST POP POP JUMPDEST PUSH1 0x0 PUSH32 0x0 PUSH1 0x1 PUSH1 0x1 PUSH1 0xA0 SHL SUB AND PUSH4 0xE816469D SELFBALANCE DUP5 PUSH1 0x0 ADD MLOAD DUP6 PUSH1 0x20 ADD MLOAD DUP7 PUSH1 0x40 ADD MLOAD DUP8 PUSH1 0xA0 ADD MLOAD DUP9 PUSH1 0xC0 ADD MLOAD PUSH1 0x40 MLOAD DUP8 PUSH4 0xFFFFFFFF AND PUSH1 0xE0 SHL DUP2 MSTORE PUSH1 0x4 ADD PUSH2 0x1854 SWAP6 SWAP5 SWAP4 SWAP3 SWAP2 SWAP1 PUSH2 0x3A21 JUMP JUMPDEST PUSH1 0x0 PUSH1 0x40 MLOAD DUP1 DUP4 SUB DUP2 DUP6 DUP9 DUP1 EXTCODESIZE ISZERO DUP1 ISZERO PUSH2 0x186D JUMPI PUSH1 0x0 DUP1 REVERT JUMPDEST POP GAS CALL ISZERO DUP1 ISZERO PUSH2 0x1881 JUMPI RETURNDATASIZE PUSH1 0x0 DUP1 RETURNDATACOPY RETURNDATASIZE PUSH1 0x0 REVERT JUMPDEST POP POP POP POP POP PUSH1 0x40 MLOAD RETURNDATASIZE PUSH1 0x0 DUP3 RETURNDATACOPY PUSH1 0x1F RETURNDATASIZE SWAP1 DUP2 ADD PUSH1 0x1F NOT AND DUP3 ADD PUSH1 0x40 MSTORE PUSH2 0x18AA SWAP2 SWAP1 DUP2 ADD SWAP1 PUSH2 0x30F6 JUMP JUMPDEST POP SWAP1 POP PUSH2 0x95A DUP3 PUSH1 0x40 ADD MLOAD DUP4 PUSH1 0xA0 ADD MLOAD DUP4 PUSH1 0x0 PUSH1 0x1 PUSH2 0x2149 JUMP JUMPDEST PUSH1 0x0 PUSH1 0x1 DUP3 MLOAD PUSH1 0xFF AND PUSH1 0x3 DUP2 GT ISZERO PUSH2 0x18D8 JUMPI INVALID JUMPDEST PUSH1 0x3 DUP2 GT ISZERO PUSH2 0x18E3 JUMPI INVALID JUMPDEST EQ ISZERO PUSH2 0x191F JUMPI PUSH1 0x0 DUP3 PUSH1 0xA0 ADD MLOAD DUP1 PUSH1 0x20 ADD SWAP1 MLOAD DUP2 ADD SWAP1 PUSH2 0x1903 SWAP2 SWAP1 PUSH2 0x320D JUMP JUMPDEST SWAP1 POP DUP1 PUSH1 0x60 ADD MLOAD SWAP2 POP PUSH2 0x1919 DUP2 PUSH1 0xC0 ADD MLOAD PUSH2 0xED6 JUMP JUMPDEST POP PUSH2 0x1951 JUMP JUMPDEST PUSH1 0x0 DUP3 PUSH1 0xA0 ADD MLOAD DUP1 PUSH1 0x20 ADD SWAP1 MLOAD DUP2 ADD SWAP1 PUSH2 0x1939 SWAP2 SWAP1 PUSH2 0x32DD JUMP JUMPDEST SWAP1 POP DUP1 PUSH1 0x80 ADD MLOAD SWAP2 POP PUSH2 0x194F DUP2 PUSH1 0xE0 ADD MLOAD PUSH2 0xED6 JUMP JUMPDEST POP JUMPDEST DUP2 PUSH1 0x20 ADD MLOAD ISZERO PUSH2 0xE38 JUMPI PUSH2 0xE38 DUP2 PUSH1 0x0 PUSH2 0x19C9 JUMP JUMPDEST PUSH1 0x0 DUP3 DUP3 ADD DUP4 DUP2 LT ISZERO PUSH2 0x19C0 JUMPI PUSH1 0x40 DUP1 MLOAD PUSH3 0x461BCD PUSH1 0xE5 SHL DUP2 MSTORE PUSH1 0x20 PUSH1 0x4 DUP3 ADD MSTORE PUSH1 0x1B PUSH1 0x24 DUP3 ADD MSTORE PUSH32 0x536166654D6174683A206164646974696F6E206F766572666C6F770000000000 PUSH1 0x44 DUP3 ADD MSTORE SWAP1 MLOAD SWAP1 DUP2 SWAP1 SUB PUSH1 0x64 ADD SWAP1 REVERT JUMPDEST SWAP1 POP JUMPDEST SWAP3 SWAP2 POP POP JUMP JUMPDEST PUSH1 0x40 MLOAD PUSH4 0x70A08231 PUSH1 0xE0 SHL DUP2 MSTORE PUSH1 0x0 SWAP1 PUSH1 0x1 PUSH1 0x1 PUSH1 0xA0 SHL SUB DUP5 AND SWAP1 PUSH4 0x70A08231 SWAP1 PUSH2 0x19F8 SWAP1 ADDRESS SWAP1 PUSH1 0x4 ADD PUSH2 0x37AA JUMP JUMPDEST PUSH1 0x20 PUSH1 0x40 MLOAD DUP1 DUP4 SUB DUP2 DUP7 DUP1 EXTCODESIZE ISZERO DUP1 ISZERO PUSH2 0x1A10 JUMPI PUSH1 0x0 DUP1 REVERT JUMPDEST POP GAS STATICCALL ISZERO DUP1 ISZERO PUSH2 0x1A24 JUMPI RETURNDATASIZE PUSH1 0x0 DUP1 RETURNDATACOPY RETURNDATASIZE PUSH1 0x0 REVERT JUMPDEST POP POP POP POP PUSH1 0x40 MLOAD RETURNDATASIZE PUSH1 0x1F NOT PUSH1 0x1F DUP3 ADD AND DUP3 ADD DUP1 PUSH1 0x40 MSTORE POP DUP2 ADD SWAP1 PUSH2 0x1A48 SWAP2 SWAP1 PUSH2 0x365F JUMP JUMPDEST SWAP1 POP DUP2 DUP2 GT ISZERO PUSH2 0x8AA JUMPI PUSH1 0x1 SLOAD PUSH2 0x8AA SWAP1 PUSH1 0x1 PUSH1 0x1 PUSH1 0xA0 SHL SUB AND PUSH2 0x1A6C DUP4 DUP6 PUSH2 0x24EA JUMP JUMPDEST PUSH1 0x1 PUSH1 0x1 PUSH1 0xA0 SHL SUB DUP7 AND SWAP2 SWAP1 PUSH2 0x1C01 JUMP JUMPDEST PUSH1 0x0 DUP1 PUSH2 0x1A89 DUP4 PUSH2 0x2547 JUMP JUMPDEST SWAP1 POP PUSH1 0x1 PUSH1 0x1 PUSH1 0xA0 SHL SUB DUP2 AND PUSH2 0x1ABC JUMPI POP PUSH32 0x0 JUMPDEST PUSH2 0x1AE6 DUP2 PUSH32 0x0 PUSH2 0x1EEA JUMP JUMPDEST SWAP1 POP JUMPDEST SWAP2 SWAP1 POP JUMP JUMPDEST DUP1 ISZERO DUP1 PUSH2 0x1B74 JUMPI POP PUSH1 0x40 DUP1 MLOAD PUSH4 0x6EB1769F PUSH1 0xE1 SHL DUP2 MSTORE ADDRESS PUSH1 0x4 DUP3 ADD MSTORE PUSH1 0x1 PUSH1 0x1 PUSH1 0xA0 SHL SUB DUP5 DUP2 AND PUSH1 0x24 DUP4 ADD MSTORE SWAP2 MLOAD SWAP2 DUP6 AND SWAP2 PUSH4 0xDD62ED3E SWAP2 PUSH1 0x44 DUP1 DUP3 ADD SWAP3 PUSH1 0x20 SWAP3 SWAP1 SWAP2 SWAP1 DUP3 SWAP1 SUB ADD DUP2 DUP7 DUP1 EXTCODESIZE ISZERO DUP1 ISZERO PUSH2 0x1B46 JUMPI PUSH1 0x0 DUP1 REVERT JUMPDEST POP GAS STATICCALL ISZERO DUP1 ISZERO PUSH2 0x1B5A JUMPI RETURNDATASIZE PUSH1 0x0 DUP1 RETURNDATACOPY RETURNDATASIZE PUSH1 0x0 REVERT JUMPDEST POP POP POP POP PUSH1 0x40 MLOAD RETURNDATASIZE PUSH1 0x20 DUP2 LT ISZERO PUSH2 0x1B70 JUMPI PUSH1 0x0 DUP1 REVERT JUMPDEST POP MLOAD ISZERO JUMPDEST PUSH2 0x1BAF JUMPI PUSH1 0x40 MLOAD PUSH3 0x461BCD PUSH1 0xE5 SHL DUP2 MSTORE PUSH1 0x4 ADD DUP1 DUP1 PUSH1 0x20 ADD DUP3 DUP2 SUB DUP3 MSTORE PUSH1 0x36 DUP2 MSTORE PUSH1 0x20 ADD DUP1 PUSH2 0x3D7F PUSH1 0x36 SWAP2 CODECOPY PUSH1 0x40 ADD SWAP2 POP POP PUSH1 0x40 MLOAD DUP1 SWAP2 SUB SWAP1 REVERT JUMPDEST PUSH1 0x40 DUP1 MLOAD PUSH1 0x1 PUSH1 0x1 PUSH1 0xA0 SHL SUB DUP5 AND PUSH1 0x24 DUP3 ADD MSTORE PUSH1 0x44 DUP1 DUP3 ADD DUP5 SWAP1 MSTORE DUP3 MLOAD DUP1 DUP4 SUB SWAP1 SWAP2 ADD DUP2 MSTORE PUSH1 0x64 SWAP1 SWAP2 ADD SWAP1 SWAP2 MSTORE PUSH1 0x20 DUP2 ADD DUP1 MLOAD PUSH1 0x1 PUSH1 0x1 PUSH1 0xE0 SHL SUB AND PUSH4 0x95EA7B3 PUSH1 0xE0 SHL OR SWAP1 MSTORE PUSH2 0x8AA SWAP1 DUP5 SWAP1 PUSH2 0x262F JUMP JUMPDEST PUSH1 0x40 DUP1 MLOAD PUSH1 0x1 PUSH1 0x1 PUSH1 0xA0 SHL SUB DUP5 AND PUSH1 0x24 DUP3 ADD MSTORE PUSH1 0x44 DUP1 DUP3 ADD DUP5 SWAP1 MSTORE DUP3 MLOAD DUP1 DUP4 SUB SWAP1 SWAP2 ADD DUP2 MSTORE PUSH1 0x64 SWAP1 SWAP2 ADD SWAP1 SWAP2 MSTORE PUSH1 0x20 DUP2 ADD DUP1 MLOAD PUSH1 0x1 PUSH1 0x1 PUSH1 0xE0 SHL SUB AND PUSH4 0xA9059CBB PUSH1 0xE0 SHL OR SWAP1 MSTORE PUSH2 0x8AA SWAP1 DUP5 SWAP1 PUSH2 0x262F JUMP JUMPDEST PUSH1 0x0 DUP1 PUSH1 0x0 DUP1 DUP6 PUSH1 0x1 PUSH1 0x1 PUSH1 0xA0 SHL SUB AND PUSH4 0xAAF10F42 PUSH1 0x40 MLOAD DUP2 PUSH4 0xFFFFFFFF AND PUSH1 0xE0 SHL DUP2 MSTORE PUSH1 0x4 ADD PUSH1 0x20 PUSH1 0x40 MLOAD DUP1 DUP4 SUB DUP2 DUP7 DUP1 EXTCODESIZE ISZERO DUP1 ISZERO PUSH2 0x1C92 JUMPI PUSH1 0x0 DUP1 REVERT JUMPDEST POP GAS STATICCALL ISZERO DUP1 ISZERO PUSH2 0x1CA6 JUMPI RETURNDATASIZE PUSH1 0x0 DUP1 RETURNDATACOPY RETURNDATASIZE PUSH1 0x0 REVERT JUMPDEST POP POP POP POP PUSH1 0x40 MLOAD RETURNDATASIZE PUSH1 0x1F NOT PUSH1 0x1F DUP3 ADD AND DUP3 ADD DUP1 PUSH1 0x40 MSTORE POP DUP2 ADD SWAP1 PUSH2 0x1CCA SWAP2 SWAP1 PUSH2 0x2F04 JUMP JUMPDEST PUSH1 0x1 PUSH1 0x1 PUSH1 0xA0 SHL SUB AND PUSH4 0x5CAF9FDA PUSH1 0xE0 SHL DUP9 DUP11 DUP9 PUSH1 0x40 MLOAD PUSH1 0x24 ADD PUSH2 0x1CF0 SWAP4 SWAP3 SWAP2 SWAP1 PUSH2 0x3C1C JUMP JUMPDEST PUSH1 0x40 DUP1 MLOAD PUSH1 0x1F NOT DUP2 DUP5 SUB ADD DUP2 MSTORE SWAP2 DUP2 MSTORE PUSH1 0x20 DUP3 ADD DUP1 MLOAD PUSH1 0x1 PUSH1 0x1 PUSH1 0xE0 SHL SUB AND PUSH1 0x1 PUSH1 0x1 PUSH1 0xE0 SHL SUB NOT SWAP1 SWAP5 AND SWAP4 SWAP1 SWAP4 OR SWAP1 SWAP3 MSTORE SWAP1 MLOAD PUSH2 0x1D2E SWAP2 SWAP1 PUSH2 0x378E JUMP JUMPDEST PUSH1 0x0 PUSH1 0x40 MLOAD DUP1 DUP4 SUB DUP2 DUP6 GAS DELEGATECALL SWAP2 POP POP RETURNDATASIZE DUP1 PUSH1 0x0 DUP2 EQ PUSH2 0x1D69 JUMPI PUSH1 0x40 MLOAD SWAP2 POP PUSH1 0x1F NOT PUSH1 0x3F RETURNDATASIZE ADD AND DUP3 ADD PUSH1 0x40 MSTORE RETURNDATASIZE DUP3 MSTORE RETURNDATASIZE PUSH1 0x0 PUSH1 0x20 DUP5 ADD RETURNDATACOPY PUSH2 0x1D6E JUMP JUMPDEST PUSH1 0x60 SWAP2 POP JUMPDEST POP SWAP2 POP SWAP2 POP DUP2 PUSH2 0x1D7D JUMPI PUSH1 0x0 DUP1 REVERT JUMPDEST DUP1 DUP1 PUSH1 0x20 ADD SWAP1 MLOAD DUP2 ADD SWAP1 PUSH2 0x1D91 SWAP2 SWAP1 PUSH2 0x31BD JUMP JUMPDEST SWAP1 SWAP10 SWAP1 SWAP9 POP SWAP7 POP POP POP POP POP POP POP JUMP JUMPDEST PUSH1 0x0 DUP1 PUSH1 0x0 DUP1 DUP5 PUSH1 0x1 PUSH1 0x1 PUSH1 0xA0 SHL SUB AND PUSH4 0xAAF10F42 PUSH1 0x40 MLOAD DUP2 PUSH4 0xFFFFFFFF AND PUSH1 0xE0 SHL DUP2 MSTORE PUSH1 0x4 ADD PUSH1 0x20 PUSH1 0x40 MLOAD DUP1 DUP4 SUB DUP2 DUP7 DUP1 EXTCODESIZE ISZERO DUP1 ISZERO PUSH2 0x1DDF JUMPI PUSH1 0x0 DUP1 REVERT JUMPDEST POP GAS STATICCALL ISZERO DUP1 ISZERO PUSH2 0x1DF3 JUMPI RETURNDATASIZE PUSH1 0x0 DUP1 RETURNDATACOPY RETURNDATASIZE PUSH1 0x0 REVERT JUMPDEST POP POP POP POP PUSH1 0x40 MLOAD RETURNDATASIZE PUSH1 0x1F NOT PUSH1 0x1F DUP3 ADD AND DUP3 ADD DUP1 PUSH1 0x40 MSTORE POP DUP2 ADD SWAP1 PUSH2 0x1E17 SWAP2 SWAP1 PUSH2 0x2F04 JUMP JUMPDEST PUSH1 0x1 PUSH1 0x1 PUSH1 0xA0 SHL SUB AND PUSH4 0x2BA8C23C PUSH1 0xE0 SHL DUP8 DUP10 PUSH1 0x40 MLOAD PUSH1 0x24 ADD PUSH2 0x1E3B SWAP3 SWAP2 SWAP1 PUSH2 0x3BFF JUMP JUMPDEST PUSH1 0x40 DUP1 MLOAD PUSH1 0x1F NOT DUP2 DUP5 SUB ADD DUP2 MSTORE SWAP2 DUP2 MSTORE PUSH1 0x20 DUP3 ADD DUP1 MLOAD PUSH1 0x1 PUSH1 0x1 PUSH1 0xE0 SHL SUB AND PUSH1 0x1 PUSH1 0x1 PUSH1 0xE0 SHL SUB NOT SWAP1 SWAP5 AND SWAP4 SWAP1 SWAP4 OR SWAP1 SWAP3 MSTORE SWAP1 MLOAD PUSH2 0x1E79 SWAP2 SWAP1 PUSH2 0x378E JUMP JUMPDEST PUSH1 0x0 PUSH1 0x40 MLOAD DUP1 DUP4 SUB DUP2 DUP6 GAS DELEGATECALL SWAP2 POP POP RETURNDATASIZE DUP1 PUSH1 0x0 DUP2 EQ PUSH2 0x1EB4 JUMPI PUSH1 0x40 MLOAD SWAP2 POP PUSH1 0x1F NOT PUSH1 0x3F RETURNDATASIZE ADD AND DUP3 ADD PUSH1 0x40 MSTORE RETURNDATASIZE DUP3 MSTORE RETURNDATASIZE PUSH1 0x0 PUSH1 0x20 DUP5 ADD RETURNDATACOPY PUSH2 0x1EB9 JUMP JUMPDEST PUSH1 0x60 SWAP2 POP JUMPDEST POP SWAP2 POP SWAP2 POP DUP2 PUSH2 0x1EC8 JUMPI PUSH1 0x0 DUP1 REVERT JUMPDEST DUP1 DUP1 PUSH1 0x20 ADD SWAP1 MLOAD DUP2 ADD SWAP1 PUSH2 0x1EDC SWAP2 SWAP1 PUSH2 0x31BD JUMP JUMPDEST SWAP1 SWAP9 SWAP1 SWAP8 POP SWAP6 POP POP POP POP POP POP JUMP JUMPDEST PUSH1 0x40 MLOAD PUSH4 0x6EB1769F PUSH1 0xE1 SHL DUP2 MSTORE PUSH1 0x1 PUSH1 0x80 SHL SWAP1 PUSH1 0x1 PUSH1 0x1 PUSH1 0xA0 SHL SUB DUP5 AND SWAP1 PUSH4 0xDD62ED3E SWAP1 PUSH2 0x1F1E SWAP1 ADDRESS SWAP1 DUP7 SWAP1 PUSH1 0x4 ADD PUSH2 0x391B JUMP JUMPDEST PUSH1 0x20 PUSH1 0x40 MLOAD DUP1 DUP4 SUB DUP2 DUP7 DUP1 EXTCODESIZE ISZERO DUP1 ISZERO PUSH2 0x1F36 JUMPI PUSH1 0x0 DUP1 REVERT JUMPDEST POP GAS STATICCALL ISZERO DUP1 ISZERO PUSH2 0x1F4A JUMPI RETURNDATASIZE PUSH1 0x0 DUP1 RETURNDATACOPY RETURNDATASIZE PUSH1 0x0 REVERT JUMPDEST POP POP POP POP PUSH1 0x40 MLOAD RETURNDATASIZE PUSH1 0x1F NOT PUSH1 0x1F DUP3 ADD AND DUP3 ADD DUP1 PUSH1 0x40 MSTORE POP DUP2 ADD SWAP1 PUSH2 0x1F6E SWAP2 SWAP1 PUSH2 0x365F JUMP JUMPDEST LT ISZERO PUSH2 0xE38 JUMPI PUSH2 0xE38 PUSH1 0x1 PUSH1 0x1 PUSH1 0xA0 SHL SUB DUP4 AND DUP3 PUSH1 0x0 NOT PUSH2 0x1AEE JUMP JUMPDEST PUSH1 0x40 DUP1 MLOAD PUSH1 0x1 DUP1 DUP3 MSTORE DUP2 DUP4 ADD SWAP1 SWAP3 MSTORE PUSH1 0x0 SWAP2 DUP2 PUSH1 0x20 ADD JUMPDEST PUSH2 0x1FA9 PUSH2 0x2ABD JUMP JUMPDEST DUP2 MSTORE PUSH1 0x20 ADD SWAP1 PUSH1 0x1 SWAP1 SUB SWAP1 DUP2 PUSH2 0x1FA1 JUMPI SWAP1 POP POP SWAP1 POP PUSH1 0x1 PUSH1 0x1 PUSH1 0x60 SHL SUB DUP4 AND ISZERO PUSH2 0x1FD4 JUMPI PUSH1 0x5 PUSH2 0x1FD7 JUMP JUMPDEST PUSH1 0x0 JUMPDEST DUP2 PUSH1 0x0 DUP2 MLOAD DUP2 LT PUSH2 0x1FE4 JUMPI INVALID JUMPDEST PUSH1 0x20 MUL PUSH1 0x20 ADD ADD MLOAD PUSH1 0x0 ADD SWAP1 PUSH1 0x6 DUP2 GT ISZERO PUSH2 0x1FFB JUMPI INVALID JUMPDEST SWAP1 DUP2 PUSH1 0x6 DUP2 GT ISZERO PUSH2 0x2008 JUMPI INVALID JUMPDEST DUP2 MSTORE POP POP DUP4 DUP2 PUSH1 0x0 DUP2 MLOAD DUP2 LT PUSH2 0x201A JUMPI INVALID JUMPDEST PUSH1 0x20 MUL PUSH1 0x20 ADD ADD MLOAD PUSH1 0x20 ADD SWAP1 PUSH2 0xFFFF AND SWAP1 DUP2 PUSH2 0xFFFF AND DUP2 MSTORE POP POP DUP3 PUSH1 0x1 PUSH1 0x1 PUSH1 0x60 SHL SUB AND DUP2 PUSH1 0x0 DUP2 MLOAD DUP2 LT PUSH2 0x204B JUMPI INVALID JUMPDEST PUSH1 0x20 MUL PUSH1 0x20 ADD ADD MLOAD PUSH1 0x40 ADD DUP2 DUP2 MSTORE POP POP PUSH1 0x1 DUP2 PUSH1 0x0 DUP2 MLOAD DUP2 LT PUSH2 0x206A JUMPI INVALID JUMPDEST PUSH1 0x20 MUL PUSH1 0x20 ADD ADD MLOAD PUSH1 0x80 ADD SWAP1 ISZERO ISZERO SWAP1 DUP2 ISZERO ISZERO DUP2 MSTORE POP POP DUP2 DUP2 PUSH1 0x0 DUP2 MLOAD DUP2 LT PUSH2 0x208E JUMPI INVALID JUMPDEST PUSH1 0x20 SWAP1 DUP2 MUL SWAP2 SWAP1 SWAP2 ADD ADD MLOAD SWAP1 ISZERO ISZERO PUSH1 0xA0 SWAP1 SWAP2 ADD MSTORE PUSH1 0x40 MLOAD PUSH4 0x37351953 PUSH1 0xE1 SHL DUP2 MSTORE PUSH1 0x1 PUSH1 0x1 PUSH1 0xA0 SHL SUB PUSH32 0x0 AND SWAP1 PUSH4 0x6E6A32A6 SWAP1 PUSH2 0x20F0 SWAP1 ADDRESS SWAP1 DUP6 SWAP1 PUSH1 0x4 ADD PUSH2 0x3883 JUMP JUMPDEST PUSH1 0x0 PUSH1 0x40 MLOAD DUP1 DUP4 SUB DUP2 PUSH1 0x0 DUP8 DUP1 EXTCODESIZE ISZERO DUP1 ISZERO PUSH2 0x210A JUMPI PUSH1 0x0 DUP1 REVERT JUMPDEST POP GAS CALL ISZERO DUP1 ISZERO PUSH2 0x211E JUMPI RETURNDATASIZE PUSH1 0x0 DUP1 RETURNDATACOPY RETURNDATASIZE PUSH1 0x0 REVERT JUMPDEST POP POP POP POP POP POP POP POP JUMP JUMPDEST PUSH1 0x0 DUP1 DUP3 SLT ISZERO PUSH2 0x2142 JUMPI PUSH2 0x213B DUP3 PUSH2 0x26E0 JUMP JUMPDEST SWAP1 POP PUSH2 0x1AE9 JUMP JUMPDEST POP DUP1 PUSH2 0x1AE9 JUMP JUMPDEST PUSH1 0x40 DUP1 MLOAD PUSH1 0x1 DUP1 DUP3 MSTORE DUP2 DUP4 ADD SWAP1 SWAP3 MSTORE TIMESTAMP SWAP2 PUSH1 0x0 SWAP2 SWAP1 DUP2 PUSH1 0x20 ADD JUMPDEST PUSH2 0x216B PUSH2 0x2AF4 JUMP JUMPDEST DUP2 MSTORE PUSH1 0x20 ADD SWAP1 PUSH1 0x1 SWAP1 SUB SWAP1 DUP2 PUSH2 0x2163 JUMPI SWAP1 POP POP SWAP1 POP PUSH1 0x0 DUP5 GT PUSH2 0x218F JUMPI PUSH1 0x0 PUSH2 0x2192 JUMP JUMPDEST PUSH1 0x1 JUMPDEST DUP2 PUSH1 0x0 DUP2 MLOAD DUP2 LT PUSH2 0x219F JUMPI INVALID JUMPDEST PUSH1 0x20 MUL PUSH1 0x20 ADD ADD MLOAD PUSH1 0x0 ADD SWAP1 PUSH1 0x6 DUP2 GT ISZERO PUSH2 0x21B6 JUMPI INVALID JUMPDEST SWAP1 DUP2 PUSH1 0x6 DUP2 GT ISZERO PUSH2 0x21C3 JUMPI INVALID JUMPDEST DUP2 MSTORE POP POP DUP4 DUP2 PUSH1 0x0 DUP2 MLOAD DUP2 LT PUSH2 0x21D5 JUMPI INVALID JUMPDEST PUSH1 0x20 MUL PUSH1 0x20 ADD ADD MLOAD PUSH1 0x40 ADD DUP2 DUP2 MSTORE POP POP DUP7 DUP2 PUSH1 0x0 DUP2 MLOAD DUP2 LT PUSH2 0x21F3 JUMPI INVALID JUMPDEST PUSH1 0x20 MUL PUSH1 0x20 ADD ADD MLOAD PUSH1 0x20 ADD SWAP1 PUSH2 0xFFFF AND SWAP1 DUP2 PUSH2 0xFFFF AND DUP2 MSTORE POP POP PUSH1 0x1 DUP2 PUSH1 0x0 DUP2 MLOAD DUP2 LT PUSH2 0x221C JUMPI INVALID JUMPDEST PUSH1 0x20 MUL PUSH1 0x20 ADD ADD MLOAD PUSH1 0x80 ADD SWAP1 ISZERO ISZERO SWAP1 DUP2 ISZERO ISZERO DUP2 MSTORE POP POP DUP3 DUP2 PUSH1 0x0 DUP2 MLOAD DUP2 LT PUSH2 0x2240 JUMPI INVALID JUMPDEST PUSH1 0x20 MUL PUSH1 0x20 ADD ADD MLOAD PUSH1 0xA0 ADD SWAP1 ISZERO ISZERO SWAP1 DUP2 ISZERO ISZERO DUP2 MSTORE POP POP PUSH1 0x0 DUP1 DUP8 MLOAD PUSH1 0x1 PUSH1 0x1 PUSH1 0x40 SHL SUB DUP2 GT DUP1 ISZERO PUSH2 0x2270 JUMPI PUSH1 0x0 DUP1 REVERT JUMPDEST POP PUSH1 0x40 MLOAD SWAP1 DUP1 DUP3 MSTORE DUP1 PUSH1 0x20 MUL PUSH1 0x20 ADD DUP3 ADD PUSH1 0x40 MSTORE DUP1 ISZERO PUSH2 0x229A JUMPI DUP2 PUSH1 0x20 ADD PUSH1 0x20 DUP3 MUL DUP1 CALLDATASIZE DUP4 CALLDATACOPY ADD SWAP1 POP JUMPDEST POP SWAP1 POP PUSH1 0x0 JUMPDEST DUP8 MLOAD DUP2 LT ISZERO PUSH2 0x2390 JUMPI DUP8 DUP2 DUP2 MLOAD DUP2 LT PUSH2 0x22B5 JUMPI INVALID JUMPDEST PUSH1 0x20 MUL PUSH1 0x20 ADD ADD MLOAD PUSH1 0x0 EQ ISZERO PUSH2 0x22CA JUMPI PUSH2 0x2388 JUMP JUMPDEST PUSH1 0x0 DUP1 PUSH2 0x22EC PUSH1 0x7 DUP13 DUP6 DUP2 MLOAD DUP2 LT PUSH2 0x22DE JUMPI INVALID JUMPDEST PUSH1 0x20 MUL PUSH1 0x20 ADD ADD MLOAD DUP10 PUSH2 0x26EE JUMP JUMPDEST SWAP2 POP SWAP2 POP DUP1 ISZERO PUSH2 0x22FD JUMPI POP POP PUSH2 0x2388 JUMP JUMPDEST PUSH1 0x98 PUSH2 0x231B DUP12 DUP6 DUP2 MLOAD DUP2 LT PUSH2 0x230E JUMPI INVALID JUMPDEST PUSH1 0x20 MUL PUSH1 0x20 ADD ADD MLOAD PUSH2 0x2128 JUMP JUMPDEST PUSH11 0xFFFFFFFFFFFFFFFFFFFFFF AND SWAP1 SHL PUSH1 0xF0 DUP4 SWAP1 SHL PUSH1 0xF8 PUSH1 0x0 DUP14 DUP8 DUP2 MLOAD DUP2 LT PUSH2 0x233F JUMPI INVALID JUMPDEST PUSH1 0x20 MUL PUSH1 0x20 ADD ADD MLOAD SGT PUSH2 0x2353 JUMPI PUSH1 0x0 PUSH2 0x2356 JUMP JUMPDEST PUSH1 0x1 JUMPDEST PUSH1 0x5 DUP2 GT ISZERO PUSH2 0x2361 JUMPI INVALID JUMPDEST SWAP1 SHL OR OR PUSH1 0x0 SHL DUP5 DUP7 DUP2 MLOAD DUP2 LT PUSH2 0x2374 JUMPI INVALID JUMPDEST PUSH1 0x20 SWAP1 DUP2 MUL SWAP2 SWAP1 SWAP2 ADD ADD MSTORE POP POP PUSH1 0x1 SWAP1 SWAP3 ADD SWAP2 JUMPDEST PUSH1 0x1 ADD PUSH2 0x22A0 JUMP JUMPDEST POP DUP1 MLOAD DUP3 LT ISZERO PUSH2 0x2441 JUMPI PUSH1 0x0 DUP3 PUSH1 0x1 PUSH1 0x1 PUSH1 0x40 SHL SUB DUP2 GT DUP1 ISZERO PUSH2 0x23B2 JUMPI PUSH1 0x0 DUP1 REVERT JUMPDEST POP PUSH1 0x40 MLOAD SWAP1 DUP1 DUP3 MSTORE DUP1 PUSH1 0x20 MUL PUSH1 0x20 ADD DUP3 ADD PUSH1 0x40 MSTORE DUP1 ISZERO PUSH2 0x23DC JUMPI DUP2 PUSH1 0x20 ADD PUSH1 0x20 DUP3 MUL DUP1 CALLDATASIZE DUP4 CALLDATACOPY ADD SWAP1 POP JUMPDEST POP SWAP1 POP PUSH1 0x0 JUMPDEST DUP4 DUP2 LT ISZERO PUSH2 0x241D JUMPI DUP3 DUP2 DUP2 MLOAD DUP2 LT PUSH2 0x23F6 JUMPI INVALID JUMPDEST PUSH1 0x20 MUL PUSH1 0x20 ADD ADD MLOAD DUP3 DUP3 DUP2 MLOAD DUP2 LT PUSH2 0x240A JUMPI INVALID JUMPDEST PUSH1 0x20 SWAP1 DUP2 MUL SWAP2 SWAP1 SWAP2 ADD ADD MSTORE PUSH1 0x1 ADD PUSH2 0x23E2 JUMP JUMPDEST POP DUP1 DUP5 PUSH1 0x0 DUP2 MLOAD DUP2 LT PUSH2 0x242C JUMPI INVALID JUMPDEST PUSH1 0x20 MUL PUSH1 0x20 ADD ADD MLOAD PUSH1 0xC0 ADD DUP2 SWAP1 MSTORE POP POP PUSH2 0x245F JUMP JUMPDEST DUP1 DUP4 PUSH1 0x0 DUP2 MLOAD DUP2 LT PUSH2 0x244F JUMPI INVALID JUMPDEST PUSH1 0x20 MUL PUSH1 0x20 ADD ADD MLOAD PUSH1 0xC0 ADD DUP2 SWAP1 MSTORE POP JUMPDEST PUSH1 0x40 MLOAD PUSH4 0x276B64B PUSH1 0xE0 SHL DUP2 MSTORE PUSH1 0x1 PUSH1 0x1 PUSH1 0xA0 SHL SUB PUSH32 0x0 AND SWAP1 PUSH4 0x276B64B SWAP1 PUSH2 0x24AD SWAP1 ADDRESS SWAP1 DUP8 SWAP1 PUSH1 0x4 ADD PUSH2 0x37BE JUMP JUMPDEST PUSH1 0x0 PUSH1 0x40 MLOAD DUP1 DUP4 SUB DUP2 PUSH1 0x0 DUP8 DUP1 EXTCODESIZE ISZERO DUP1 ISZERO PUSH2 0x24C7 JUMPI PUSH1 0x0 DUP1 REVERT JUMPDEST POP GAS CALL ISZERO DUP1 ISZERO PUSH2 0x24DB JUMPI RETURNDATASIZE PUSH1 0x0 DUP1 RETURNDATACOPY RETURNDATASIZE PUSH1 0x0 REVERT JUMPDEST POP POP POP POP POP POP POP POP POP POP POP POP POP JUMP JUMPDEST PUSH1 0x0 DUP3 DUP3 GT ISZERO PUSH2 0x2541 JUMPI PUSH1 0x40 DUP1 MLOAD PUSH3 0x461BCD PUSH1 0xE5 SHL DUP2 MSTORE PUSH1 0x20 PUSH1 0x4 DUP3 ADD MSTORE PUSH1 0x1E PUSH1 0x24 DUP3 ADD MSTORE PUSH32 0x536166654D6174683A207375627472616374696F6E206F766572666C6F770000 PUSH1 0x44 DUP3 ADD MSTORE SWAP1 MLOAD SWAP1 DUP2 SWAP1 SUB PUSH1 0x64 ADD SWAP1 REVERT JUMPDEST POP SWAP1 SUB SWAP1 JUMP JUMPDEST PUSH1 0x0 DUP1 PUSH32 0x0 PUSH1 0x1 PUSH1 0x1 PUSH1 0xA0 SHL SUB AND PUSH4 0x4EBAD18E DUP5 PUSH1 0x40 MLOAD DUP3 PUSH4 0xFFFFFFFF AND PUSH1 0xE0 SHL DUP2 MSTORE PUSH1 0x4 ADD PUSH2 0x2596 SWAP2 SWAP1 PUSH2 0x3BF0 JUMP JUMPDEST PUSH2 0x140 PUSH1 0x40 MLOAD DUP1 DUP4 SUB DUP2 DUP7 DUP1 EXTCODESIZE ISZERO DUP1 ISZERO PUSH2 0x25AF JUMPI PUSH1 0x0 DUP1 REVERT JUMPDEST POP GAS STATICCALL ISZERO DUP1 ISZERO PUSH2 0x25C3 JUMPI RETURNDATASIZE PUSH1 0x0 DUP1 RETURNDATACOPY RETURNDATASIZE PUSH1 0x0 REVERT JUMPDEST POP POP POP POP PUSH1 0x40 MLOAD RETURNDATASIZE PUSH1 0x1F NOT PUSH1 0x1F DUP3 ADD AND DUP3 ADD DUP1 PUSH1 0x40 MSTORE POP DUP2 ADD SWAP1 PUSH2 0x25E7 SWAP2 SWAP1 PUSH2 0x35DC JUMP JUMPDEST DUP1 MLOAD SWAP1 SWAP3 POP PUSH1 0x1 PUSH1 0x1 PUSH1 0xA0 SHL SUB AND ISZERO SWAP1 POP PUSH2 0x2628 JUMPI DUP1 MLOAD PUSH2 0x2628 SWAP1 PUSH32 0x0 PUSH2 0x1EEA JUMP JUMPDEST MLOAD SWAP3 SWAP2 POP POP JUMP JUMPDEST PUSH1 0x0 PUSH2 0x2684 DUP3 PUSH1 0x40 MLOAD DUP1 PUSH1 0x40 ADD PUSH1 0x40 MSTORE DUP1 PUSH1 0x20 DUP2 MSTORE PUSH1 0x20 ADD PUSH32 0x5361666545524332303A206C6F772D6C6576656C2063616C6C206661696C6564 DUP2 MSTORE POP DUP6 PUSH1 0x1 PUSH1 0x1 PUSH1 0xA0 SHL SUB AND PUSH2 0x277D SWAP1 SWAP3 SWAP2 SWAP1 PUSH4 0xFFFFFFFF AND JUMP JUMPDEST DUP1 MLOAD SWAP1 SWAP2 POP ISZERO PUSH2 0x8AA JUMPI DUP1 DUP1 PUSH1 0x20 ADD SWAP1 MLOAD PUSH1 0x20 DUP2 LT ISZERO PUSH2 0x26A3 JUMPI PUSH1 0x0 DUP1 REVERT JUMPDEST POP MLOAD PUSH2 0x8AA JUMPI PUSH1 0x40 MLOAD PUSH3 0x461BCD PUSH1 0xE5 SHL DUP2 MSTORE PUSH1 0x4 ADD DUP1 DUP1 PUSH1 0x20 ADD DUP3 DUP2 SUB DUP3 MSTORE PUSH1 0x2A DUP2 MSTORE PUSH1 0x20 ADD DUP1 PUSH2 0x3D55 PUSH1 0x2A SWAP2 CODECOPY PUSH1 0x40 ADD SWAP2 POP POP PUSH1 0x40 MLOAD DUP1 SWAP2 SUB SWAP1 REVERT JUMPDEST PUSH1 0x0 PUSH2 0x1AE6 PUSH1 0x0 NOT DUP4 PUSH2 0x2796 JUMP JUMPDEST PUSH1 0x0 DUP1 PUSH1 0x0 DUP6 GT PUSH2 0x26FE JUMPI PUSH1 0x0 DUP1 REVERT JUMPDEST PUSH1 0x7 DUP6 GT ISZERO PUSH2 0x270C JUMPI PUSH1 0x0 DUP1 REVERT JUMPDEST PUSH1 0x0 PUSH2 0x2717 DUP5 PUSH2 0x27E4 JUMP JUMPDEST SWAP1 POP PUSH1 0x1 JUMPDEST DUP7 DUP2 GT PUSH2 0x276F JUMPI PUSH1 0x0 PUSH2 0x2738 PUSH2 0x2731 DUP4 PUSH2 0x2802 JUMP JUMPDEST DUP5 SWAP1 PUSH2 0x28A6 JUMP JUMPDEST SWAP1 POP DUP7 DUP2 EQ ISZERO PUSH2 0x2750 JUMPI POP SWAP3 POP PUSH1 0x0 SWAP2 POP PUSH2 0x2775 SWAP1 POP JUMP JUMPDEST DUP7 DUP2 GT ISZERO PUSH2 0x2766 JUMPI POP SWAP3 POP PUSH1 0x1 SWAP2 POP PUSH2 0x2775 SWAP1 POP JUMP JUMPDEST POP PUSH1 0x1 ADD PUSH2 0x271C JUMP JUMPDEST POP PUSH1 0x0 DUP1 REVERT JUMPDEST SWAP4 POP SWAP4 SWAP2 POP POP JUMP JUMPDEST PUSH1 0x60 PUSH2 0x278C DUP5 DUP5 PUSH1 0x0 DUP6 PUSH2 0x28B8 JUMP JUMPDEST SWAP1 POP JUMPDEST SWAP4 SWAP3 POP POP POP JUMP JUMPDEST DUP2 DUP2 MUL PUSH1 0x0 NOT DUP4 EQ ISZERO PUSH2 0x27C6 JUMPI DUP2 ISZERO DUP1 PUSH2 0x27B8 JUMPI POP DUP3 DUP3 DUP3 DUP2 PUSH2 0x27B5 JUMPI INVALID JUMPDEST SDIV EQ JUMPDEST PUSH2 0x27C1 JUMPI PUSH1 0x0 DUP1 REVERT JUMPDEST PUSH2 0x19C3 JUMP JUMPDEST DUP3 ISZERO DUP1 PUSH2 0x27DB JUMPI POP DUP2 DUP4 DUP3 DUP2 PUSH2 0x27D8 JUMPI INVALID JUMPDEST SDIV EQ JUMPDEST PUSH2 0x19C3 JUMPI PUSH1 0x0 DUP1 REVERT JUMPDEST PUSH1 0x0 PUSH3 0x76A700 DUP3 LT ISZERO PUSH2 0x27F6 JUMPI PUSH1 0x0 DUP1 REVERT JUMPDEST POP PUSH3 0x76A700 DUP2 MOD SWAP1 SUB SWAP1 JUMP JUMPDEST PUSH1 0x0 DUP2 PUSH1 0x1 EQ ISZERO PUSH2 0x2817 JUMPI POP PUSH3 0x76A700 PUSH2 0x1AE9 JUMP JUMPDEST DUP2 PUSH1 0x2 EQ ISZERO PUSH2 0x282A JUMPI POP PUSH3 0xED4E00 PUSH2 0x1AE9 JUMP JUMPDEST DUP2 PUSH1 0x3 EQ ISZERO PUSH2 0x283E JUMPI POP PUSH4 0x1DA9C00 PUSH2 0x1AE9 JUMP JUMPDEST DUP2 PUSH1 0x4 EQ ISZERO PUSH2 0x2852 JUMPI POP PUSH4 0x3B53800 PUSH2 0x1AE9 JUMP JUMPDEST DUP2 PUSH1 0x5 EQ ISZERO PUSH2 0x2866 JUMPI POP PUSH4 0x9450C00 PUSH2 0x1AE9 JUMP JUMPDEST DUP2 PUSH1 0x6 EQ ISZERO PUSH2 0x287A JUMPI POP PUSH4 0x128A1800 PUSH2 0x1AE9 JUMP JUMPDEST DUP2 PUSH1 0x7 EQ ISZERO PUSH2 0x288E JUMPI POP PUSH4 0x25143000 PUSH2 0x1AE9 JUMP JUMPDEST PUSH1 0x40 MLOAD PUSH3 0x461BCD PUSH1 0xE5 SHL DUP2 MSTORE PUSH1 0x4 ADD PUSH2 0x864 SWAP1 PUSH2 0x3B94 JUMP JUMPDEST PUSH1 0x0 DUP3 DUP3 ADD DUP4 DUP2 LT ISZERO PUSH2 0x19C0 JUMPI PUSH1 0x0 DUP1 REVERT JUMPDEST PUSH1 0x60 DUP3 SELFBALANCE LT ISZERO PUSH2 0x28F9 JUMPI PUSH1 0x40 MLOAD PUSH3 0x461BCD PUSH1 0xE5 SHL DUP2 MSTORE PUSH1 0x4 ADD DUP1 DUP1 PUSH1 0x20 ADD DUP3 DUP2 SUB DUP3 MSTORE PUSH1 0x26 DUP2 MSTORE PUSH1 0x20 ADD DUP1 PUSH2 0x3D2F PUSH1 0x26 SWAP2 CODECOPY PUSH1 0x40 ADD SWAP2 POP POP PUSH1 0x40 MLOAD DUP1 SWAP2 SUB SWAP1 REVERT JUMPDEST PUSH2 0x2902 DUP6 PUSH2 0x2A13 JUMP JUMPDEST PUSH2 0x2953 JUMPI PUSH1 0x40 DUP1 MLOAD PUSH3 0x461BCD PUSH1 0xE5 SHL DUP2 MSTORE PUSH1 0x20 PUSH1 0x4 DUP3 ADD MSTORE PUSH1 0x1D PUSH1 0x24 DUP3 ADD MSTORE PUSH32 0x416464726573733A2063616C6C20746F206E6F6E2D636F6E7472616374000000 PUSH1 0x44 DUP3 ADD MSTORE SWAP1 MLOAD SWAP1 DUP2 SWAP1 SUB PUSH1 0x64 ADD SWAP1 REVERT JUMPDEST PUSH1 0x0 DUP1 DUP7 PUSH1 0x1 PUSH1 0x1 PUSH1 0xA0 SHL SUB AND DUP6 DUP8 PUSH1 0x40 MLOAD DUP1 DUP3 DUP1 MLOAD SWAP1 PUSH1 0x20 ADD SWAP1 DUP1 DUP4 DUP4 JUMPDEST PUSH1 0x20 DUP4 LT PUSH2 0x2991 JUMPI DUP1 MLOAD DUP3 MSTORE PUSH1 0x1F NOT SWAP1 SWAP3 ADD SWAP2 PUSH1 0x20 SWAP2 DUP3 ADD SWAP2 ADD PUSH2 0x2972 JUMP JUMPDEST PUSH1 0x1 DUP4 PUSH1 0x20 SUB PUSH2 0x100 EXP SUB DUP1 NOT DUP3 MLOAD AND DUP2 DUP5 MLOAD AND DUP1 DUP3 OR DUP6 MSTORE POP POP POP POP POP POP SWAP1 POP ADD SWAP2 POP POP PUSH1 0x0 PUSH1 0x40 MLOAD DUP1 DUP4 SUB DUP2 DUP6 DUP8 GAS CALL SWAP3 POP POP POP RETURNDATASIZE DUP1 PUSH1 0x0 DUP2 EQ PUSH2 0x29F3 JUMPI PUSH1 0x40 MLOAD SWAP2 POP PUSH1 0x1F NOT PUSH1 0x3F RETURNDATASIZE ADD AND DUP3 ADD PUSH1 0x40 MSTORE RETURNDATASIZE DUP3 MSTORE RETURNDATASIZE PUSH1 0x0 PUSH1 0x20 DUP5 ADD RETURNDATACOPY PUSH2 0x29F8 JUMP JUMPDEST PUSH1 0x60 SWAP2 POP JUMPDEST POP SWAP2 POP SWAP2 POP PUSH2 0x2A08 DUP3 DUP3 DUP7 PUSH2 0x2A19 JUMP JUMPDEST SWAP8 SWAP7 POP POP POP POP POP POP POP JUMP JUMPDEST EXTCODESIZE ISZERO ISZERO SWAP1 JUMP JUMPDEST PUSH1 0x60 DUP4 ISZERO PUSH2 0x2A28 JUMPI POP DUP2 PUSH2 0x278F JUMP JUMPDEST DUP3 MLOAD ISZERO PUSH2 0x2A38 JUMPI DUP3 MLOAD DUP1 DUP5 PUSH1 0x20 ADD REVERT JUMPDEST DUP2 PUSH1 0x40 MLOAD PUSH3 0x461BCD PUSH1 0xE5 SHL DUP2 MSTORE PUSH1 0x4 ADD DUP1 DUP1 PUSH1 0x20 ADD DUP3 DUP2 SUB DUP3 MSTORE DUP4 DUP2 DUP2 MLOAD DUP2 MSTORE PUSH1 0x20 ADD SWAP2 POP DUP1 MLOAD SWAP1 PUSH1 0x20 ADD SWAP1 DUP1 DUP4 DUP4 PUSH1 0x0 JUMPDEST DUP4 DUP2 LT ISZERO PUSH2 0x2A82 JUMPI DUP2 DUP2 ADD MLOAD DUP4 DUP3 ADD MSTORE PUSH1 0x20 ADD PUSH2 0x2A6A JUMP JUMPDEST POP POP POP POP SWAP1 POP SWAP1 DUP2 ADD SWAP1 PUSH1 0x1F AND DUP1 ISZERO PUSH2 0x2AAF JUMPI DUP1 DUP3 SUB DUP1 MLOAD PUSH1 0x1 DUP4 PUSH1 0x20 SUB PUSH2 0x100 EXP SUB NOT AND DUP2 MSTORE PUSH1 0x20 ADD SWAP2 POP JUMPDEST POP SWAP3 POP POP POP PUSH1 0x40 MLOAD DUP1 SWAP2 SUB SWAP1 REVERT JUMPDEST PUSH1 0x40 DUP1 MLOAD PUSH1 0xC0 DUP2 ADD SWAP1 SWAP2 MSTORE DUP1 PUSH1 0x0 DUP2 MSTORE PUSH1 0x0 PUSH1 0x20 DUP3 ADD DUP2 SWAP1 MSTORE PUSH1 0x40 DUP3 ADD DUP2 SWAP1 MSTORE PUSH1 0x60 DUP3 ADD DUP2 SWAP1 MSTORE PUSH1 0x80 DUP3 ADD DUP2 SWAP1 MSTORE PUSH1 0xA0 SWAP1 SWAP2 ADD MSTORE SWAP1 JUMP JUMPDEST PUSH1 0x40 DUP1 MLOAD PUSH1 0xE0 DUP2 ADD SWAP1 SWAP2 MSTORE DUP1 PUSH1 0x0 DUP2 MSTORE PUSH1 0x20 ADD PUSH1 0x0 PUSH2 0xFFFF AND DUP2 MSTORE PUSH1 0x20 ADD PUSH1 0x0 DUP2 MSTORE PUSH1 0x20 ADD PUSH1 0x0 DUP2 MSTORE PUSH1 0x20 ADD PUSH1 0x0 ISZERO ISZERO DUP2 MSTORE PUSH1 0x20 ADD PUSH1 0x0 ISZERO ISZERO DUP2 MSTORE PUSH1 0x20 ADD PUSH1 0x60 DUP2 MSTORE POP SWAP1 JUMP JUMPDEST DUP1 MLOAD PUSH2 0x1AE9 DUP2 PUSH2 0x3CFB JUMP JUMPDEST PUSH1 0x0 DUP1 DUP4 PUSH1 0x1F DUP5 ADD SLT PUSH2 0x2B56 JUMPI DUP2 DUP3 REVERT JUMPDEST POP DUP2 CALLDATALOAD PUSH1 0x1 PUSH1 0x1 PUSH1 0x40 SHL SUB DUP2 GT ISZERO PUSH2 0x2B6C JUMPI DUP2 DUP3 REVERT JUMPDEST PUSH1 0x20 DUP4 ADD SWAP2 POP DUP4 PUSH1 0x20 DUP1 DUP4 MUL DUP6 ADD ADD GT ISZERO PUSH2 0x2B86 JUMPI PUSH1 0x0 DUP1 REVERT JUMPDEST SWAP3 POP SWAP3 SWAP1 POP JUMP JUMPDEST PUSH1 0x0 DUP3 PUSH1 0x1F DUP4 ADD SLT PUSH2 0x2B9D JUMPI DUP1 DUP2 REVERT JUMPDEST DUP2 MLOAD PUSH1 0x20 PUSH2 0x2BB2 PUSH2 0x2BAD DUP4 PUSH2 0x3C91 JUMP JUMPDEST PUSH2 0x3C6E JUMP JUMPDEST DUP3 DUP2 MSTORE DUP2 DUP2 ADD SWAP1 DUP6 DUP4 ADD DUP4 DUP6 MUL DUP8 ADD DUP5 ADD DUP9 LT ISZERO PUSH2 0x2BCE JUMPI DUP6 DUP7 REVERT JUMPDEST DUP6 JUMPDEST DUP6 DUP2 LT ISZERO PUSH2 0x2BEC JUMPI DUP2 MLOAD DUP5 MSTORE SWAP3 DUP5 ADD SWAP3 SWAP1 DUP5 ADD SWAP1 PUSH1 0x1 ADD PUSH2 0x2BD0 JUMP JUMPDEST POP SWAP1 SWAP8 SWAP7 POP POP POP POP POP POP POP JUMP JUMPDEST DUP1 CALLDATALOAD PUSH2 0x1AE9 DUP2 PUSH2 0x3D10 JUMP JUMPDEST DUP1 MLOAD PUSH2 0x1AE9 DUP2 PUSH2 0x3D10 JUMP JUMPDEST PUSH1 0x0 DUP1 DUP4 PUSH1 0x1F DUP5 ADD SLT PUSH2 0x2C20 JUMPI DUP2 DUP3 REVERT JUMPDEST POP DUP2 CALLDATALOAD PUSH1 0x1 PUSH1 0x1 PUSH1 0x40 SHL SUB DUP2 GT ISZERO PUSH2 0x2C36 JUMPI DUP2 DUP3 REVERT JUMPDEST PUSH1 0x20 DUP4 ADD SWAP2 POP DUP4 PUSH1 0x20 DUP3 DUP6 ADD ADD GT ISZERO PUSH2 0x2B86 JUMPI PUSH1 0x0 DUP1 REVERT JUMPDEST PUSH1 0x0 DUP3 PUSH1 0x1F DUP4 ADD SLT PUSH2 0x2C5E JUMPI DUP1 DUP2 REVERT JUMPDEST DUP2 CALLDATALOAD PUSH2 0x2C6C PUSH2 0x2BAD DUP3 PUSH2 0x3CAE JUMP JUMPDEST DUP2 DUP2 MSTORE DUP5 PUSH1 0x20 DUP4 DUP7 ADD ADD GT ISZERO PUSH2 0x2C80 JUMPI DUP3 DUP4 REVERT JUMPDEST DUP2 PUSH1 0x20 DUP6 ADD PUSH1 0x20 DUP4 ADD CALLDATACOPY SWAP1 DUP2 ADD PUSH1 0x20 ADD SWAP2 SWAP1 SWAP2 MSTORE SWAP3 SWAP2 POP POP JUMP JUMPDEST PUSH1 0x0 DUP3 PUSH1 0x1F DUP4 ADD SLT PUSH2 0x2CAA JUMPI DUP1 DUP2 REVERT JUMPDEST DUP2 MLOAD PUSH2 0x2CB8 PUSH2 0x2BAD DUP3 PUSH2 0x3CAE JUMP JUMPDEST DUP2 DUP2 MSTORE DUP5 PUSH1 0x20 DUP4 DUP7 ADD ADD GT ISZERO PUSH2 0x2CCC JUMPI DUP3 DUP4 REVERT JUMPDEST PUSH2 0x2CDD DUP3 PUSH1 0x20 DUP4 ADD PUSH1 0x20 DUP8 ADD PUSH2 0x3CCF JUMP JUMPDEST SWAP5 SWAP4 POP POP POP POP JUMP JUMPDEST DUP1 MLOAD PUSH1 0x4 DUP2 LT PUSH2 0x1AE9 JUMPI PUSH1 0x0 DUP1 REVERT JUMPDEST PUSH1 0x0 PUSH1 0xA0 DUP3 DUP5 SUB SLT ISZERO PUSH2 0x2D05 JUMPI DUP1 DUP2 REVERT JUMPDEST PUSH1 0x40 MLOAD PUSH1 0xA0 DUP2 ADD DUP2 DUP2 LT PUSH1 0x1 PUSH1 0x1 PUSH1 0x40 SHL SUB DUP3 GT OR ISZERO PUSH2 0x2D21 JUMPI INVALID JUMPDEST DUP1 PUSH1 0x40 MSTORE POP DUP1 SWAP2 POP DUP3 MLOAD PUSH2 0x2D34 DUP2 PUSH2 0x3CFB JUMP JUMPDEST DUP2 MSTORE PUSH1 0x20 DUP4 ADD MLOAD PUSH2 0x2D44 DUP2 PUSH2 0x3D10 JUMP JUMPDEST PUSH1 0x20 DUP3 ADD MSTORE PUSH1 0x40 DUP4 DUP2 ADD MLOAD SWAP1 DUP3 ADD MSTORE PUSH1 0x60 DUP4 ADD MLOAD PUSH1 0x6 DUP2 LT PUSH2 0x2D65 JUMPI PUSH1 0x0 DUP1 REVERT JUMPDEST PUSH1 0x60 DUP3 ADD MSTORE PUSH1 0x80 SWAP3 DUP4 ADD MLOAD SWAP3 ADD SWAP2 SWAP1 SWAP2 MSTORE SWAP2 SWAP1 POP JUMP JUMPDEST PUSH1 0x0 PUSH1 0x80 DUP3 DUP5 SUB SLT ISZERO PUSH2 0x2D8C JUMPI DUP1 DUP2 REVERT JUMPDEST PUSH1 0x40 DUP1 MLOAD PUSH1 0x80 DUP2 ADD PUSH1 0x1 PUSH1 0x1 PUSH1 0x40 SHL SUB DUP3 DUP3 LT DUP2 DUP4 GT OR ISZERO PUSH2 0x2DAA JUMPI INVALID JUMPDEST DUP2 DUP5 MSTORE DUP3 SWAP5 POP DUP6 MLOAD SWAP2 POP DUP1 DUP3 GT ISZERO PUSH2 0x2DC1 JUMPI PUSH1 0x0 DUP1 REVERT JUMPDEST SWAP1 DUP6 ADD SWAP1 PUSH1 0xE0 DUP3 DUP9 SUB SLT ISZERO PUSH2 0x2DD5 JUMPI PUSH1 0x0 DUP1 REVERT JUMPDEST PUSH2 0x2DDF PUSH1 0xE0 PUSH2 0x3C6E JUMP JUMPDEST PUSH2 0x2DE8 DUP4 PUSH2 0x2CE5 JUMP JUMPDEST DUP2 MSTORE PUSH2 0x2DF6 PUSH1 0x20 DUP5 ADD PUSH2 0x2B3A JUMP JUMPDEST PUSH1 0x20 DUP3 ADD MSTORE PUSH2 0x2E06 DUP6 DUP5 ADD PUSH2 0x2B3A JUMP JUMPDEST DUP6 DUP3 ADD MSTORE PUSH1 0x60 DUP4 ADD MLOAD PUSH1 0x60 DUP3 ADD MSTORE PUSH1 0x80 DUP4 ADD MLOAD PUSH1 0x80 DUP3 ADD MSTORE PUSH1 0xA0 DUP4 ADD MLOAD PUSH1 0xA0 DUP3 ADD MSTORE PUSH1 0xC0 DUP4 ADD MLOAD DUP3 DUP2 GT ISZERO PUSH2 0x2E3A JUMPI PUSH1 0x0 DUP1 REVERT JUMPDEST PUSH2 0x2E46 DUP10 DUP3 DUP7 ADD PUSH2 0x2C9A JUMP JUMPDEST PUSH1 0xC0 DUP4 ADD MSTORE POP DUP4 MSTORE POP PUSH2 0x2E5D SWAP1 POP PUSH1 0x20 DUP6 ADD PUSH2 0x2EA1 JUMP JUMPDEST PUSH1 0x20 DUP3 ADD MSTORE PUSH2 0x2E6D DUP3 DUP6 ADD PUSH2 0x2C04 JUMP JUMPDEST DUP3 DUP3 ADD MSTORE PUSH2 0x2E7D PUSH1 0x60 DUP6 ADD PUSH2 0x2EAC JUMP JUMPDEST PUSH1 0x60 DUP3 ADD MSTORE POP POP SWAP3 SWAP2 POP POP JUMP JUMPDEST DUP1 MLOAD PUSH1 0x1 PUSH1 0x1 PUSH1 0x80 SHL SUB DUP2 AND DUP2 EQ PUSH2 0x1AE9 JUMPI PUSH1 0x0 DUP1 REVERT JUMPDEST DUP1 MLOAD PUSH2 0x1AE9 DUP2 PUSH2 0x3D1E JUMP JUMPDEST DUP1 MLOAD PUSH4 0xFFFFFFFF DUP2 AND DUP2 EQ PUSH2 0x1AE9 JUMPI PUSH1 0x0 DUP1 REVERT JUMPDEST DUP1 CALLDATALOAD PUSH1 0xFF DUP2 AND DUP2 EQ PUSH2 0x1AE9 JUMPI PUSH1 0x0 DUP1 REVERT JUMPDEST DUP1 MLOAD PUSH1 0x1 PUSH1 0x1 PUSH1 0x60 SHL SUB DUP2 AND DUP2 EQ PUSH2 0x1AE9 JUMPI PUSH1 0x0 DUP1 REVERT JUMPDEST PUSH1 0x0 PUSH1 0x20 DUP3 DUP5 SUB SLT ISZERO PUSH2 0x2EF9 JUMPI DUP1 DUP2 REVERT JUMPDEST DUP2 CALLDATALOAD PUSH2 0x19C0 DUP2 PUSH2 0x3CFB JUMP JUMPDEST PUSH1 0x0 PUSH1 0x20 DUP3 DUP5 SUB SLT ISZERO PUSH2 0x2F15 JUMPI DUP1 DUP2 REVERT JUMPDEST DUP2 MLOAD PUSH2 0x19C0 DUP2 PUSH2 0x3CFB JUMP JUMPDEST PUSH1 0x0 DUP1 PUSH1 0x40 DUP4 DUP6 SUB SLT ISZERO PUSH2 0x2F32 JUMPI DUP1 DUP2 REVERT JUMPDEST DUP3 CALLDATALOAD PUSH2 0x2F3D DUP2 PUSH2 0x3CFB JUMP JUMPDEST SWAP5 PUSH1 0x20 SWAP4 SWAP1 SWAP4 ADD CALLDATALOAD SWAP4 POP POP POP JUMP JUMPDEST PUSH1 0x0 DUP1 PUSH1 0x0 DUP1 PUSH1 0x0 DUP1 PUSH1 0xA0 DUP8 DUP10 SUB SLT ISZERO PUSH2 0x2F63 JUMPI DUP2 DUP3 REVERT JUMPDEST DUP7 CALLDATALOAD PUSH2 0x2F6E DUP2 PUSH2 0x3CFB JUMP JUMPDEST SWAP6 POP PUSH1 0x20 DUP8 ADD CALLDATALOAD SWAP5 POP PUSH1 0x40 DUP8 ADD CALLDATALOAD PUSH1 0x1 PUSH1 0x1 PUSH1 0x40 SHL SUB DUP2 GT ISZERO PUSH2 0x2F8F JUMPI DUP3 DUP4 REVERT JUMPDEST PUSH2 0x2F9B DUP10 DUP3 DUP11 ADD PUSH2 0x2C0F JUMP JUMPDEST SWAP1 SWAP6 POP SWAP4 POP POP PUSH1 0x60 DUP8 ADD CALLDATALOAD PUSH2 0x2FAF DUP2 PUSH2 0x3CFB JUMP JUMPDEST SWAP2 POP PUSH1 0x80 DUP8 ADD CALLDATALOAD PUSH2 0x2FBF DUP2 PUSH2 0x3CFB JUMP JUMPDEST DUP1 SWAP2 POP POP SWAP3 SWAP6 POP SWAP3 SWAP6 POP SWAP3 SWAP6 JUMP JUMPDEST PUSH1 0x0 DUP1 PUSH1 0x0 PUSH1 0x40 DUP5 DUP7 SUB SLT ISZERO PUSH2 0x2FE1 JUMPI DUP1 DUP2 REVERT JUMPDEST DUP4 CALLDATALOAD PUSH1 0x1 PUSH1 0x1 PUSH1 0x40 SHL SUB DUP2 GT ISZERO PUSH2 0x2FF6 JUMPI DUP2 DUP3 REVERT JUMPDEST PUSH2 0x3002 DUP7 DUP3 DUP8 ADD PUSH2 0x2B45 JUMP JUMPDEST SWAP1 SWAP5 POP SWAP3 POP POP PUSH1 0x20 DUP5 ADD CALLDATALOAD PUSH2 0x3016 DUP2 PUSH2 0x3CFB JUMP JUMPDEST DUP1 SWAP2 POP POP SWAP3 POP SWAP3 POP SWAP3 JUMP JUMPDEST PUSH1 0x0 DUP1 PUSH1 0x0 DUP1 PUSH1 0x0 DUP1 PUSH1 0x0 DUP1 PUSH1 0x0 PUSH1 0xA0 DUP11 DUP13 SUB SLT ISZERO PUSH2 0x303E JUMPI DUP7 DUP8 REVERT JUMPDEST DUP10 CALLDATALOAD PUSH1 0x1 PUSH1 0x1 PUSH1 0x40 SHL SUB DUP1 DUP3 GT ISZERO PUSH2 0x3054 JUMPI DUP9 DUP10 REVERT JUMPDEST PUSH2 0x3060 DUP14 DUP4 DUP15 ADD PUSH2 0x2B45 JUMP JUMPDEST SWAP1 SWAP12 POP SWAP10 POP PUSH1 0x20 DUP13 ADD CALLDATALOAD SWAP2 POP DUP1 DUP3 GT ISZERO PUSH2 0x3078 JUMPI DUP9 DUP10 REVERT JUMPDEST PUSH2 0x3084 DUP14 DUP4 DUP15 ADD PUSH2 0x2B45 JUMP JUMPDEST SWAP1 SWAP10 POP SWAP8 POP PUSH1 0x40 DUP13 ADD CALLDATALOAD SWAP2 POP DUP1 DUP3 GT ISZERO PUSH2 0x309C JUMPI DUP5 DUP6 REVERT JUMPDEST PUSH2 0x30A8 DUP14 DUP4 DUP15 ADD PUSH2 0x2B45 JUMP JUMPDEST SWAP1 SWAP8 POP SWAP6 POP PUSH1 0x60 DUP13 ADD CALLDATALOAD SWAP2 POP PUSH2 0x30BD DUP3 PUSH2 0x3CFB JUMP JUMPDEST SWAP1 SWAP4 POP PUSH1 0x80 DUP12 ADD CALLDATALOAD SWAP1 DUP1 DUP3 GT ISZERO PUSH2 0x30D2 JUMPI DUP4 DUP5 REVERT JUMPDEST POP PUSH2 0x30DF DUP13 DUP3 DUP14 ADD PUSH2 0x2C0F JUMP JUMPDEST SWAP2 POP DUP1 SWAP4 POP POP DUP1 SWAP2 POP POP SWAP3 SWAP6 SWAP9 POP SWAP3 SWAP6 SWAP9 POP SWAP3 SWAP6 SWAP9 JUMP JUMPDEST PUSH1 0x0 DUP1 PUSH1 0x40 DUP4 DUP6 SUB SLT ISZERO PUSH2 0x3108 JUMPI DUP2 DUP3 REVERT JUMPDEST DUP3 MLOAD PUSH1 0x1 PUSH1 0x1 PUSH1 0x40 SHL SUB DUP2 GT ISZERO PUSH2 0x311D JUMPI DUP3 DUP4 REVERT JUMPDEST PUSH2 0x3129 DUP6 DUP3 DUP7 ADD PUSH2 0x2B8D JUMP JUMPDEST SWAP3 POP POP PUSH1 0x20 DUP4 ADD MLOAD SWAP1 POP SWAP3 POP SWAP3 SWAP1 POP JUMP JUMPDEST PUSH1 0x0 DUP1 PUSH1 0x20 DUP4 DUP6 SUB SLT ISZERO PUSH2 0x314C JUMPI DUP2 DUP3 REVERT JUMPDEST DUP3 CALLDATALOAD PUSH1 0x1 PUSH1 0x1 PUSH1 0x40 SHL SUB DUP2 GT ISZERO PUSH2 0x3161 JUMPI DUP3 DUP4 REVERT JUMPDEST PUSH2 0x316D DUP6 DUP3 DUP7 ADD PUSH2 0x2B45 JUMP JUMPDEST SWAP1 SWAP7 SWAP1 SWAP6 POP SWAP4 POP POP POP POP JUMP JUMPDEST PUSH1 0x0 DUP1 PUSH1 0x40 DUP4 DUP6 SUB SLT ISZERO PUSH2 0x318B JUMPI DUP2 DUP3 REVERT JUMPDEST DUP3 MLOAD SWAP2 POP PUSH1 0x20 DUP4 ADD MLOAD PUSH1 0x1 PUSH1 0x1 PUSH1 0x40 SHL SUB DUP2 GT ISZERO PUSH2 0x31A7 JUMPI DUP2 DUP3 REVERT JUMPDEST PUSH2 0x31B3 DUP6 DUP3 DUP7 ADD PUSH2 0x2B8D JUMP JUMPDEST SWAP2 POP POP SWAP3 POP SWAP3 SWAP1 POP JUMP JUMPDEST PUSH1 0x0 DUP1 PUSH1 0x40 DUP4 DUP6 SUB SLT ISZERO PUSH2 0x31CF JUMPI DUP2 DUP3 REVERT JUMPDEST POP POP DUP1 MLOAD PUSH1 0x20 SWAP1 SWAP2 ADD MLOAD SWAP1 SWAP3 SWAP1 SWAP2 POP JUMP JUMPDEST PUSH1 0x0 DUP1 PUSH1 0x0 PUSH1 0x60 DUP5 DUP7 SUB SLT ISZERO PUSH2 0x31F4 JUMPI DUP1 DUP2 REVERT JUMPDEST DUP4 MLOAD SWAP3 POP PUSH1 0x20 DUP5 ADD MLOAD SWAP2 POP PUSH1 0x40 DUP5 ADD MLOAD SWAP1 POP SWAP3 POP SWAP3 POP SWAP3 JUMP JUMPDEST PUSH1 0x0 PUSH1 0x20 DUP3 DUP5 SUB SLT ISZERO PUSH2 0x321E JUMPI DUP1 DUP2 REVERT JUMPDEST DUP2 MLOAD PUSH1 0x1 PUSH1 0x1 PUSH1 0x40 SHL SUB DUP1 DUP3 GT ISZERO PUSH2 0x3234 JUMPI DUP3 DUP4 REVERT JUMPDEST SWAP1 DUP4 ADD SWAP1 PUSH1 0xE0 DUP3 DUP7 SUB SLT ISZERO PUSH2 0x3247 JUMPI DUP3 DUP4 REVERT JUMPDEST PUSH2 0x3251 PUSH1 0xE0 PUSH2 0x3C6E JUMP JUMPDEST PUSH2 0x325A DUP4 PUSH2 0x2B3A JUMP JUMPDEST DUP2 MSTORE PUSH2 0x3268 PUSH1 0x20 DUP5 ADD PUSH2 0x2EA1 JUMP JUMPDEST PUSH1 0x20 DUP3 ADD MSTORE PUSH2 0x3279 PUSH1 0x40 DUP5 ADD PUSH2 0x2EA1 JUMP JUMPDEST PUSH1 0x40 DUP3 ADD MSTORE PUSH2 0x328A PUSH1 0x60 DUP5 ADD PUSH2 0x2B3A JUMP JUMPDEST PUSH1 0x60 DUP3 ADD MSTORE PUSH2 0x329B PUSH1 0x80 DUP5 ADD PUSH2 0x2E8A JUMP JUMPDEST PUSH1 0x80 DUP3 ADD MSTORE PUSH2 0x32AC PUSH1 0xA0 DUP5 ADD PUSH2 0x2ED1 JUMP JUMPDEST PUSH1 0xA0 DUP3 ADD MSTORE PUSH1 0xC0 DUP4 ADD MLOAD DUP3 DUP2 GT ISZERO PUSH2 0x32C2 JUMPI DUP5 DUP6 REVERT JUMPDEST PUSH2 0x32CE DUP8 DUP3 DUP7 ADD PUSH2 0x2D7B JUMP JUMPDEST PUSH1 0xC0 DUP4 ADD MSTORE POP SWAP6 SWAP5 POP POP POP POP POP JUMP JUMPDEST PUSH1 0x0 PUSH1 0x20 DUP3 DUP5 SUB SLT ISZERO PUSH2 0x32EE JUMPI DUP1 DUP2 REVERT JUMPDEST DUP2 MLOAD PUSH1 0x1 PUSH1 0x1 PUSH1 0x40 SHL SUB DUP1 DUP3 GT ISZERO PUSH2 0x3304 JUMPI DUP3 DUP4 REVERT JUMPDEST DUP2 DUP5 ADD SWAP2 POP PUSH2 0x100 DUP1 DUP4 DUP8 SUB SLT ISZERO PUSH2 0x331A JUMPI DUP4 DUP5 REVERT JUMPDEST PUSH2 0x3323 DUP2 PUSH2 0x3C6E JUMP JUMPDEST SWAP1 POP PUSH2 0x332E DUP4 PUSH2 0x2B3A JUMP JUMPDEST DUP2 MSTORE PUSH2 0x333C PUSH1 0x20 DUP5 ADD PUSH2 0x2EA1 JUMP JUMPDEST PUSH1 0x20 DUP3 ADD MSTORE PUSH2 0x334D PUSH1 0x40 DUP5 ADD PUSH2 0x2EA1 JUMP JUMPDEST PUSH1 0x40 DUP3 ADD MSTORE PUSH2 0x335E PUSH1 0x60 DUP5 ADD PUSH2 0x2B3A JUMP JUMPDEST PUSH1 0x60 DUP3 ADD MSTORE PUSH2 0x336F PUSH1 0x80 DUP5 ADD PUSH2 0x2B3A JUMP JUMPDEST PUSH1 0x80 DUP3 ADD MSTORE PUSH1 0xA0 DUP4 ADD MLOAD DUP3 DUP2 GT ISZERO PUSH2 0x3385 JUMPI DUP5 DUP6 REVERT JUMPDEST PUSH2 0x3391 DUP8 DUP3 DUP7 ADD PUSH2 0x2B8D JUMP JUMPDEST PUSH1 0xA0 DUP4 ADD MSTORE POP PUSH1 0xC0 DUP4 ADD MLOAD DUP3 DUP2 GT ISZERO PUSH2 0x33A8 JUMPI DUP5 DUP6 REVERT JUMPDEST PUSH2 0x33B4 DUP8 DUP3 DUP7 ADD PUSH2 0x2B8D JUMP JUMPDEST PUSH1 0xC0 DUP4 ADD MSTORE POP PUSH1 0xE0 DUP4 ADD MLOAD DUP3 DUP2 GT ISZERO PUSH2 0x33CB JUMPI DUP5 DUP6 REVERT JUMPDEST PUSH2 0x33D7 DUP8 DUP3 DUP7 ADD PUSH2 0x2D7B JUMP JUMPDEST PUSH1 0xE0 DUP4 ADD MSTORE POP SWAP6 SWAP5 POP POP POP POP POP JUMP JUMPDEST PUSH1 0x0 PUSH1 0x20 DUP3 DUP5 SUB SLT ISZERO PUSH2 0x33F7 JUMPI DUP1 DUP2 REVERT JUMPDEST DUP2 CALLDATALOAD PUSH1 0x1 PUSH1 0x1 PUSH1 0x40 SHL SUB DUP1 DUP3 GT ISZERO PUSH2 0x340D JUMPI DUP3 DUP4 REVERT JUMPDEST SWAP1 DUP4 ADD SWAP1 PUSH1 0xC0 DUP3 DUP7 SUB SLT ISZERO PUSH2 0x3420 JUMPI DUP3 DUP4 REVERT JUMPDEST PUSH2 0x342A PUSH1 0xC0 PUSH2 0x3C6E JUMP JUMPDEST PUSH2 0x3433 DUP4 PUSH2 0x2EC0 JUMP JUMPDEST DUP2 MSTORE PUSH2 0x3441 PUSH1 0x20 DUP5 ADD PUSH2 0x2BF9 JUMP JUMPDEST PUSH1 0x20 DUP3 ADD MSTORE PUSH2 0x3452 PUSH1 0x40 DUP5 ADD PUSH2 0x2BF9 JUMP JUMPDEST PUSH1 0x40 DUP3 ADD MSTORE PUSH2 0x3463 PUSH1 0x60 DUP5 ADD PUSH2 0x2BF9 JUMP JUMPDEST PUSH1 0x60 DUP3 ADD MSTORE PUSH1 0x80 DUP4 ADD CALLDATALOAD DUP3 DUP2 GT ISZERO PUSH2 0x3479 JUMPI DUP5 DUP6 REVERT JUMPDEST PUSH2 0x3485 DUP8 DUP3 DUP7 ADD PUSH2 0x2C4E JUMP JUMPDEST PUSH1 0x80 DUP4 ADD MSTORE POP PUSH1 0xA0 DUP4 ADD CALLDATALOAD DUP3 DUP2 GT ISZERO PUSH2 0x349C JUMPI DUP5 DUP6 REVERT JUMPDEST PUSH2 0x34A8 DUP8 DUP3 DUP7 ADD PUSH2 0x2C4E JUMP JUMPDEST PUSH1 0xA0 DUP4 ADD MSTORE POP SWAP6 SWAP5 POP POP POP POP POP JUMP JUMPDEST PUSH1 0x0 PUSH1 0x60 DUP3 DUP5 SUB SLT ISZERO PUSH2 0x34C8 JUMPI DUP1 DUP2 REVERT JUMPDEST PUSH1 0x40 MLOAD PUSH1 0x60 DUP2 ADD DUP2 DUP2 LT PUSH1 0x1 PUSH1 0x1 PUSH1 0x40 SHL SUB DUP3 GT OR ISZERO PUSH2 0x34E4 JUMPI INVALID JUMPDEST PUSH1 0x40 MSTORE DUP3 MLOAD PUSH2 0x34F2 DUP2 PUSH2 0x3CFB JUMP JUMPDEST DUP2 MSTORE PUSH1 0x20 DUP4 ADD MLOAD PUSH2 0x3502 DUP2 PUSH2 0x3D1E JUMP JUMPDEST PUSH1 0x20 DUP3 ADD MSTORE PUSH2 0x3513 PUSH1 0x40 DUP5 ADD PUSH2 0x2ED1 JUMP JUMPDEST PUSH1 0x40 DUP3 ADD MSTORE SWAP4 SWAP3 POP POP POP JUMP JUMPDEST PUSH1 0x0 PUSH1 0x20 DUP3 DUP5 SUB SLT ISZERO PUSH2 0x3530 JUMPI DUP1 DUP2 REVERT JUMPDEST DUP2 MLOAD PUSH1 0x1 PUSH1 0x1 PUSH1 0x40 SHL SUB DUP1 DUP3 GT ISZERO PUSH2 0x3546 JUMPI DUP3 DUP4 REVERT JUMPDEST SWAP1 DUP4 ADD SWAP1 PUSH1 0x80 DUP3 DUP7 SUB SLT ISZERO PUSH2 0x3559 JUMPI DUP3 DUP4 REVERT JUMPDEST PUSH1 0x40 MLOAD PUSH1 0x80 DUP2 ADD DUP2 DUP2 LT DUP4 DUP3 GT OR ISZERO PUSH2 0x356E JUMPI INVALID JUMPDEST PUSH1 0x40 MSTORE PUSH2 0x357A DUP4 PUSH2 0x2B3A JUMP JUMPDEST DUP2 MSTORE PUSH2 0x3588 PUSH1 0x20 DUP5 ADD PUSH2 0x2EA1 JUMP JUMPDEST PUSH1 0x20 DUP3 ADD MSTORE PUSH1 0x40 DUP4 ADD MLOAD DUP3 DUP2 GT ISZERO PUSH2 0x359E JUMPI DUP5 DUP6 REVERT JUMPDEST PUSH2 0x35AA DUP8 DUP3 DUP7 ADD PUSH2 0x2B8D JUMP JUMPDEST PUSH1 0x40 DUP4 ADD MSTORE POP PUSH1 0x60 DUP4 ADD MLOAD DUP3 DUP2 GT ISZERO PUSH2 0x35C1 JUMPI DUP5 DUP6 REVERT JUMPDEST PUSH2 0x35CD DUP8 DUP3 DUP7 ADD PUSH2 0x2B8D JUMP JUMPDEST PUSH1 0x60 DUP4 ADD MSTORE POP SWAP6 SWAP5 POP POP POP POP POP JUMP JUMPDEST PUSH1 0x0 DUP1 PUSH2 0x140 DUP4 DUP6 SUB SLT ISZERO PUSH2 0x35EF JUMPI DUP2 DUP3 REVERT JUMPDEST PUSH2 0x35F9 DUP5 DUP5 PUSH2 0x2CF4 JUMP JUMPDEST SWAP2 POP PUSH2 0x3608 DUP5 PUSH1 0xA0 DUP6 ADD PUSH2 0x2CF4 JUMP JUMPDEST SWAP1 POP SWAP3 POP SWAP3 SWAP1 POP JUMP JUMPDEST PUSH1 0x0 PUSH1 0x20 DUP3 DUP5 SUB SLT ISZERO PUSH2 0x3622 JUMPI DUP1 DUP2 REVERT JUMPDEST DUP2 MLOAD PUSH1 0x1 PUSH1 0x1 PUSH1 0x40 SHL SUB DUP2 GT ISZERO PUSH2 0x3637 JUMPI DUP2 DUP3 REVERT JUMPDEST PUSH2 0x2CDD DUP5 DUP3 DUP6 ADD PUSH2 0x2D7B JUMP JUMPDEST PUSH1 0x0 PUSH1 0x20 DUP3 DUP5 SUB SLT ISZERO PUSH2 0x3654 JUMPI DUP1 DUP2 REVERT JUMPDEST DUP2 CALLDATALOAD PUSH2 0x19C0 DUP2 PUSH2 0x3D1E JUMP JUMPDEST PUSH1 0x0 PUSH1 0x20 DUP3 DUP5 SUB SLT ISZERO PUSH2 0x3670 JUMPI DUP1 DUP2 REVERT JUMPDEST POP MLOAD SWAP2 SWAP1 POP JUMP JUMPDEST PUSH1 0x1 PUSH1 0x1 PUSH1 0xA0 SHL SUB AND SWAP1 MSTORE JUMP JUMPDEST PUSH1 0x0 DUP2 MLOAD DUP1 DUP5 MSTORE PUSH1 0x20 DUP1 DUP6 ADD SWAP5 POP DUP1 DUP5 ADD DUP4 JUMPDEST DUP4 DUP2 LT ISZERO PUSH2 0x36B3 JUMPI DUP2 MLOAD DUP8 MSTORE SWAP6 DUP3 ADD SWAP6 SWAP1 DUP3 ADD SWAP1 PUSH1 0x1 ADD PUSH2 0x3697 JUMP JUMPDEST POP SWAP5 SWAP6 SWAP5 POP POP POP POP POP JUMP JUMPDEST PUSH1 0x0 DUP3 DUP5 MSTORE DUP3 DUP3 PUSH1 0x20 DUP7 ADD CALLDATACOPY DUP1 PUSH1 0x20 DUP5 DUP7 ADD ADD MSTORE PUSH1 0x20 PUSH1 0x1F NOT PUSH1 0x1F DUP6 ADD AND DUP6 ADD ADD SWAP1 POP SWAP4 SWAP3 POP POP POP JUMP JUMPDEST PUSH1 0x7 DUP2 LT PUSH2 0x36F2 JUMPI INVALID JUMPDEST SWAP1 MSTORE JUMP JUMPDEST PUSH2 0xFFFF AND SWAP1 MSTORE JUMP JUMPDEST PUSH1 0x0 DUP2 MLOAD PUSH1 0x4 DUP2 LT PUSH2 0x370C JUMPI INVALID JUMPDEST DUP1 DUP5 MSTORE POP PUSH1 0x20 DUP3 ADD MLOAD PUSH1 0x1 DUP1 PUSH1 0xA0 SHL SUB DUP1 DUP3 AND PUSH1 0x20 DUP7 ADD MSTORE DUP1 PUSH1 0x40 DUP6 ADD MLOAD AND PUSH1 0x40 DUP7 ADD MSTORE POP POP PUSH1 0x60 DUP3 ADD MLOAD PUSH1 0x60 DUP5 ADD MSTORE PUSH1 0x80 DUP3 ADD MLOAD PUSH1 0x80 DUP5 ADD MSTORE PUSH1 0xA0 DUP3 ADD MLOAD PUSH1 0xA0 DUP5 ADD MSTORE PUSH1 0xC0 DUP3 ADD MLOAD PUSH1 0xE0 PUSH1 0xC0 DUP6 ADD MSTORE DUP1 MLOAD DUP1 PUSH1 0xE0 DUP7 ADD MSTORE PUSH2 0x100 PUSH2 0x3777 DUP3 DUP3 DUP9 ADD PUSH1 0x20 DUP7 ADD PUSH2 0x3CCF JUMP JUMPDEST DUP1 PUSH1 0x1F NOT PUSH1 0x1F DUP5 ADD AND DUP8 ADD ADD SWAP4 POP POP POP POP SWAP3 SWAP2 POP POP JUMP JUMPDEST PUSH1 0x0 DUP3 MLOAD PUSH2 0x37A0 DUP2 DUP5 PUSH1 0x20 DUP8 ADD PUSH2 0x3CCF JUMP JUMPDEST SWAP2 SWAP1 SWAP2 ADD SWAP3 SWAP2 POP POP JUMP JUMPDEST PUSH1 0x1 PUSH1 0x1 PUSH1 0xA0 SHL SUB SWAP2 SWAP1 SWAP2 AND DUP2 MSTORE PUSH1 0x20 ADD SWAP1 JUMP JUMPDEST PUSH1 0x1 PUSH1 0x1 PUSH1 0xA0 SHL SUB DUP4 AND DUP2 MSTORE PUSH1 0x40 PUSH1 0x20 DUP1 DUP4 ADD DUP3 SWAP1 MSTORE DUP4 MLOAD DUP4 DUP4 ADD DUP2 SWAP1 MSTORE PUSH1 0x0 SWAP3 SWAP2 PUSH1 0x60 SWAP2 DUP3 DUP7 ADD SWAP1 DUP1 DUP4 MUL DUP8 ADD DUP5 ADD DUP9 DUP5 ADD DUP8 JUMPDEST DUP4 DUP2 LT ISZERO PUSH2 0x3873 JUMPI PUSH1 0x5F NOT DUP11 DUP5 SUB ADD DUP6 MSTORE DUP2 MLOAD PUSH1 0xE0 PUSH2 0x3813 DUP6 DUP4 MLOAD PUSH2 0x36E8 JUMP JUMPDEST DUP2 DUP9 ADD MLOAD PUSH2 0xFFFF AND DUP6 DUP10 ADD MSTORE DUP10 DUP3 ADD MLOAD DUP11 DUP7 ADD MSTORE DUP9 DUP3 ADD MLOAD DUP10 DUP7 ADD MSTORE PUSH1 0x80 DUP1 DUP4 ADD MLOAD ISZERO ISZERO SWAP1 DUP7 ADD MSTORE PUSH1 0xA0 DUP1 DUP4 ADD MLOAD ISZERO ISZERO SWAP1 DUP7 ADD MSTORE PUSH1 0xC0 SWAP2 DUP3 ADD MLOAD SWAP2 DUP6 ADD DUP2 SWAP1 MSTORE PUSH2 0x385F DUP2 DUP7 ADD DUP4 PUSH2 0x3684 JUMP JUMPDEST SWAP7 DUP9 ADD SWAP7 SWAP5 POP POP POP SWAP1 DUP6 ADD SWAP1 PUSH1 0x1 ADD PUSH2 0x37F3 JUMP JUMPDEST POP SWAP1 SWAP11 SWAP10 POP POP POP POP POP POP POP POP POP POP JUMP JUMPDEST PUSH1 0x1 PUSH1 0x1 PUSH1 0xA0 SHL SUB DUP4 AND DUP2 MSTORE PUSH1 0x40 PUSH1 0x20 DUP1 DUP4 ADD DUP3 SWAP1 MSTORE DUP4 MLOAD DUP4 DUP4 ADD DUP2 SWAP1 MSTORE PUSH1 0x0 SWAP3 SWAP2 PUSH1 0x60 SWAP2 DUP3 DUP7 ADD SWAP1 DUP8 DUP4 ADD DUP7 JUMPDEST DUP3 DUP2 LT ISZERO PUSH2 0x390C JUMPI DUP2 MLOAD PUSH2 0x38C6 DUP6 DUP3 MLOAD PUSH2 0x36E8 JUMP JUMPDEST DUP1 DUP7 ADD MLOAD PUSH2 0xFFFF AND DUP6 DUP8 ADD MSTORE DUP8 DUP2 ADD MLOAD DUP9 DUP7 ADD MSTORE DUP7 DUP2 ADD MLOAD DUP8 DUP7 ADD MSTORE PUSH1 0x80 DUP1 DUP3 ADD MLOAD ISZERO ISZERO SWAP1 DUP7 ADD MSTORE PUSH1 0xA0 SWAP1 DUP2 ADD MLOAD ISZERO ISZERO SWAP1 DUP6 ADD MSTORE PUSH1 0xC0 SWAP1 SWAP4 ADD SWAP3 SWAP1 DUP5 ADD SWAP1 PUSH1 0x1 ADD PUSH2 0x38B1 JUMP JUMPDEST POP SWAP2 SWAP10 SWAP9 POP POP POP POP POP POP POP POP POP JUMP JUMPDEST PUSH1 0x1 PUSH1 0x1 PUSH1 0xA0 SHL SUB SWAP3 DUP4 AND DUP2 MSTORE SWAP2 AND PUSH1 0x20 DUP3 ADD MSTORE PUSH1 0x40 ADD SWAP1 JUMP JUMPDEST PUSH1 0x1 PUSH1 0x1 PUSH1 0xA0 SHL SUB DUP10 DUP2 AND DUP3 MSTORE PUSH1 0xE0 PUSH1 0x20 DUP1 DUP5 ADD DUP3 SWAP1 MSTORE DUP11 MLOAD SWAP2 DUP5 ADD DUP3 SWAP1 MSTORE PUSH1 0x0 SWAP3 DUP12 DUP3 ADD SWAP3 SWAP1 SWAP2 SWAP1 PUSH2 0x100 DUP7 ADD SWAP1 DUP6 JUMPDEST DUP2 DUP2 LT ISZERO PUSH2 0x3984 JUMPI DUP6 MLOAD DUP6 AND DUP4 MSTORE SWAP5 DUP4 ADD SWAP5 SWAP2 DUP4 ADD SWAP2 PUSH1 0x1 ADD PUSH2 0x3966 JUMP JUMPDEST POP POP DUP6 DUP2 SUB PUSH1 0x40 DUP8 ADD MSTORE PUSH2 0x3998 DUP2 DUP14 PUSH2 0x3684 JUMP JUMPDEST SWAP4 POP POP POP POP DUP3 DUP2 SUB PUSH1 0x60 DUP5 ADD MSTORE PUSH2 0x39AF DUP2 DUP10 PUSH2 0x3684 JUMP JUMPDEST SWAP1 POP PUSH2 0x39BE PUSH1 0x80 DUP5 ADD DUP9 PUSH2 0x3677 JUMP JUMPDEST DUP3 DUP2 SUB PUSH1 0xA0 DUP5 ADD MSTORE PUSH2 0x39D1 DUP2 DUP7 DUP9 PUSH2 0x36BE JUMP JUMPDEST SWAP2 POP POP PUSH2 0x809 PUSH1 0xC0 DUP4 ADD DUP5 PUSH2 0x36F6 JUMP JUMPDEST PUSH1 0x1 PUSH1 0x1 PUSH1 0xA0 SHL SUB DUP6 AND DUP2 MSTORE PUSH2 0xFFFF DUP5 AND PUSH1 0x20 DUP3 ADD MSTORE PUSH1 0x80 PUSH1 0x40 DUP3 ADD DUP2 SWAP1 MSTORE PUSH1 0x0 SWAP1 PUSH2 0x3A0F SWAP1 DUP4 ADD DUP6 PUSH2 0x3684 JUMP JUMPDEST DUP3 DUP2 SUB PUSH1 0x60 DUP5 ADD MSTORE PUSH2 0x2A08 DUP2 DUP6 PUSH2 0x3684 JUMP JUMPDEST PUSH1 0x1 PUSH1 0x1 PUSH1 0xA0 SHL SUB DUP7 AND DUP2 MSTORE PUSH2 0xFFFF DUP6 DUP2 AND PUSH1 0x20 DUP4 ADD MSTORE DUP5 AND PUSH1 0x40 DUP3 ADD MSTORE PUSH1 0xA0 PUSH1 0x60 DUP3 ADD DUP2 SWAP1 MSTORE PUSH1 0x0 SWAP1 PUSH2 0x3A57 SWAP1 DUP4 ADD DUP6 PUSH2 0x3684 JUMP JUMPDEST DUP3 DUP2 SUB PUSH1 0x80 DUP5 ADD MSTORE PUSH2 0x3A69 DUP2 DUP6 PUSH2 0x3684 JUMP JUMPDEST SWAP9 SWAP8 POP POP POP POP POP POP POP POP JUMP JUMPDEST PUSH1 0x1 PUSH1 0x1 PUSH1 0xA0 SHL SUB SWAP8 SWAP1 SWAP8 AND DUP8 MSTORE PUSH2 0xFFFF SWAP6 DUP7 AND PUSH1 0x20 DUP9 ADD MSTORE SWAP4 SWAP1 SWAP5 AND PUSH1 0x40 DUP7 ADD MSTORE PUSH1 0x1 PUSH1 0x1 PUSH1 0x80 SHL SUB SWAP2 SWAP1 SWAP2 AND PUSH1 0x60 DUP6 ADD MSTORE PUSH1 0x1 PUSH1 0x1 PUSH1 0x60 SHL SUB AND PUSH1 0x80 DUP5 ADD MSTORE SWAP1 ISZERO ISZERO PUSH1 0xA0 DUP4 ADD MSTORE ISZERO ISZERO PUSH1 0xC0 DUP3 ADD MSTORE PUSH1 0xE0 ADD SWAP1 JUMP JUMPDEST PUSH1 0x1 PUSH1 0x1 PUSH1 0xA0 SHL SUB SWAP4 SWAP1 SWAP4 AND DUP4 MSTORE PUSH2 0xFFFF SWAP2 SWAP1 SWAP2 AND PUSH1 0x20 DUP4 ADD MSTORE PUSH1 0x40 DUP3 ADD MSTORE PUSH1 0x60 ADD SWAP1 JUMP JUMPDEST PUSH1 0x1 PUSH1 0x1 PUSH1 0xA0 SHL SUB SWAP4 SWAP1 SWAP4 AND DUP4 MSTORE PUSH2 0xFFFF SWAP2 SWAP1 SWAP2 AND PUSH1 0x20 DUP4 ADD MSTORE PUSH1 0x1 PUSH1 0x1 PUSH1 0x60 SHL SUB AND PUSH1 0x40 DUP3 ADD MSTORE PUSH1 0x60 ADD SWAP1 JUMP JUMPDEST SWAP1 ISZERO ISZERO DUP2 MSTORE PUSH1 0x20 ADD SWAP1 JUMP JUMPDEST PUSH1 0x0 PUSH1 0x40 DUP3 ADD DUP5 DUP4 MSTORE PUSH1 0x20 PUSH1 0x40 DUP2 DUP6 ADD MSTORE DUP2 DUP6 MLOAD DUP1 DUP5 MSTORE PUSH1 0x60 DUP7 ADD SWAP2 POP DUP3 DUP8 ADD SWAP4 POP DUP5 JUMPDEST DUP2 DUP2 LT ISZERO PUSH2 0x2BEC JUMPI DUP5 MLOAD DUP4 MSTORE SWAP4 DUP4 ADD SWAP4 SWAP2 DUP4 ADD SWAP2 PUSH1 0x1 ADD PUSH2 0x3B4D JUMP JUMPDEST PUSH1 0x20 DUP1 DUP3 MSTORE PUSH1 0x11 SWAP1 DUP3 ADD MSTORE PUSH17 0x34B73B30B634B2103732BB9037BBB732B9 PUSH1 0x79 SHL PUSH1 0x40 DUP3 ADD MSTORE PUSH1 0x60 ADD SWAP1 JUMP JUMPDEST PUSH1 0x20 DUP1 DUP3 MSTORE PUSH1 0xD SWAP1 DUP3 ADD MSTORE PUSH13 0x92DCECC2D8D2C840D2DCC8CAF PUSH1 0x9B SHL PUSH1 0x40 DUP3 ADD MSTORE PUSH1 0x60 ADD SWAP1 JUMP JUMPDEST PUSH1 0x20 DUP1 DUP3 MSTORE DUP2 DUP2 ADD MSTORE PUSH32 0x4F776E61626C653A2063616C6C6572206973206E6F7420746865206F776E6572 PUSH1 0x40 DUP3 ADD MSTORE PUSH1 0x60 ADD SWAP1 JUMP JUMPDEST PUSH2 0xFFFF SWAP2 SWAP1 SWAP2 AND DUP2 MSTORE PUSH1 0x20 ADD SWAP1 JUMP JUMPDEST PUSH1 0x0 PUSH2 0xFFFF DUP5 AND DUP3 MSTORE PUSH1 0x40 PUSH1 0x20 DUP4 ADD MSTORE PUSH2 0x278C PUSH1 0x40 DUP4 ADD DUP5 PUSH2 0x36FE JUMP JUMPDEST PUSH1 0x0 PUSH2 0xFFFF DUP6 AND DUP3 MSTORE PUSH1 0x60 PUSH1 0x20 DUP4 ADD MSTORE PUSH2 0x3C39 PUSH1 0x60 DUP4 ADD DUP6 PUSH2 0x36FE JUMP JUMPDEST SWAP1 POP PUSH4 0xFFFFFFFF DUP4 AND PUSH1 0x40 DUP4 ADD MSTORE SWAP5 SWAP4 POP POP POP POP JUMP JUMPDEST SWAP1 DUP2 MSTORE PUSH1 0x20 ADD SWAP1 JUMP JUMPDEST SWAP3 DUP4 MSTORE PUSH1 0x20 DUP4 ADD SWAP2 SWAP1 SWAP2 MSTORE PUSH1 0x40 DUP3 ADD MSTORE PUSH1 0x60 ADD SWAP1 JUMP JUMPDEST PUSH1 0x40 MLOAD DUP2 DUP2 ADD PUSH1 0x1 PUSH1 0x1 PUSH1 0x40 SHL SUB DUP2 GT DUP3 DUP3 LT OR ISZERO PUSH2 0x3C89 JUMPI INVALID JUMPDEST PUSH1 0x40 MSTORE SWAP2 SWAP1 POP JUMP JUMPDEST PUSH1 0x0 PUSH1 0x1 PUSH1 0x1 PUSH1 0x40 SHL SUB DUP3 GT ISZERO PUSH2 0x3CA4 JUMPI INVALID JUMPDEST POP PUSH1 0x20 SWAP1 DUP2 MUL ADD SWAP1 JUMP JUMPDEST PUSH1 0x0 PUSH1 0x1 PUSH1 0x1 PUSH1 0x40 SHL SUB DUP3 GT ISZERO PUSH2 0x3CC1 JUMPI INVALID JUMPDEST POP PUSH1 0x1F ADD PUSH1 0x1F NOT AND PUSH1 0x20 ADD SWAP1 JUMP JUMPDEST PUSH1 0x0 JUMPDEST DUP4 DUP2 LT ISZERO PUSH2 0x3CEA JUMPI DUP2 DUP2 ADD MLOAD DUP4 DUP3 ADD MSTORE PUSH1 0x20 ADD PUSH2 0x3CD2 JUMP JUMPDEST DUP4 DUP2 GT ISZERO PUSH2 0x95A JUMPI POP POP PUSH1 0x0 SWAP2 ADD MSTORE JUMP JUMPDEST PUSH1 0x1 PUSH1 0x1 PUSH1 0xA0 SHL SUB DUP2 AND DUP2 EQ PUSH2 0xF51 JUMPI PUSH1 0x0 DUP1 REVERT JUMPDEST DUP1 ISZERO ISZERO DUP2 EQ PUSH2 0xF51 JUMPI PUSH1 0x0 DUP1 REVERT JUMPDEST PUSH2 0xFFFF DUP2 AND DUP2 EQ PUSH2 0xF51 JUMPI PUSH1 0x0 DUP1 REVERT INVALID COINBASE PUSH5 0x6472657373 GASPRICE KECCAK256 PUSH10 0x6E73756666696369656E PUSH21 0x2062616C616E636520666F722063616C6C53616665 GASLIMIT MSTORE NUMBER ORIGIN ADDRESS GASPRICE KECCAK256 GASLIMIT MSTORE NUMBER ORIGIN ADDRESS KECCAK256 PUSH16 0x7065726174696F6E20646964206E6F74 KECCAK256 PUSH20 0x7563636565645361666545524332303A20617070 PUSH19 0x6F76652066726F6D206E6F6E2D7A65726F2074 PUSH16 0x206E6F6E2D7A65726F20616C6C6F7761 PUSH15 0x6365A26469706673582212201AC7E6 CALL 0xBE 0xF8 0x4E GAS MOD 0xFB 0xE9 0x23 PUSH24 0x7CB7046263B39E2DE0A2604247EA82AF660FAC64736F6C63 NUMBER STOP SMOD MOD STOP CALLER ","sha1":"d0565d9b19268af7402a1ce3f57859068ca3105e","source":"// SPDX-License-Identifier: BSUL-1.1\npragma solidity =0.7.6;\npragma abicoder v2;\n\nimport {IERC20} from \"@openzeppelin/contracts/token/ERC20/IERC20.sol\";\nimport {SafeERC20} from \"@openzeppelin/contracts/token/ERC20/SafeERC20.sol\";\nimport {SafeMath} from \"@openzeppelin/contracts/math/SafeMath.sol\";\nimport {FlashLiquidatorBase} from \"./FlashLiquidatorBase.sol\";\nimport {\n    TradeActionType,\n    DepositActionType, \n    BalanceAction, \n    BalanceActionWithTrades\n} from \"../../global/Types.sol\";\nimport {SafeInt256} from \"../../math/SafeInt256.sol\";\nimport {DateTime} from \"../../internal/markets/DateTime.sol\";\nimport {NotionalProxy} from \"../../../interfaces/notional/NotionalProxy.sol\";\nimport {IWstETH} from \"../../../interfaces/IWstETH.sol\";\n\ncontract FlashLiquidator is FlashLiquidatorBase {\n    using SafeERC20 for IERC20;\n    using SafeInt256 for int256;\n    using SafeMath for uint256;\n\n    constructor(\n        NotionalProxy notional_,\n        address lendingPool_,\n        address weth_,\n        address owner_,\n        address tradingModule_\n    ) FlashLiquidatorBase(notional_, lendingPool_, weth_, owner_, tradingModule_) { }\n\n    function _redeemAndWithdraw(\n        uint16 nTokenCurrencyId,\n        uint96 nTokenBalance,\n        bool redeemToUnderlying\n    ) internal override {\n        BalanceAction[] memory action = new BalanceAction[](1);\n        // If nTokenBalance is zero still try to withdraw entire cash balance\n        action[0].actionType = nTokenBalance == 0\n            ? DepositActionType.None\n            : DepositActionType.RedeemNToken;\n        action[0].currencyId = nTokenCurrencyId;\n        action[0].depositActionAmount = nTokenBalance;\n        action[0].withdrawEntireCashBalance = true;\n        action[0].redeemToUnderlying = redeemToUnderlying;\n        NOTIONAL.batchBalanceAction(address(this), action);\n    }\n\n    function _sellfCashAssets(\n        uint16 fCashCurrency,\n        uint256[] memory fCashMaturities,\n        int256[] memory fCashNotional,\n        uint256 depositActionAmount,\n        bool redeemToUnderlying\n    ) internal override {\n        uint256 blockTime = block.timestamp;\n        BalanceActionWithTrades[] memory action = new BalanceActionWithTrades[](1);\n        action[0].actionType = depositActionAmount > 0\n            ? DepositActionType.DepositAsset\n            : DepositActionType.None;\n        action[0].depositActionAmount = depositActionAmount;\n        action[0].currencyId = fCashCurrency;\n        action[0].withdrawEntireCashBalance = true;\n        action[0].redeemToUnderlying = redeemToUnderlying;\n\n        uint256 numTrades;\n        bytes32[] memory trades = new bytes32[](fCashMaturities.length);\n        for (uint256 i; i < fCashNotional.length; i++) {\n            if (fCashNotional[i] == 0) continue;\n            (uint256 marketIndex, bool isIdiosyncratic) = DateTime.getMarketIndex(\n                7,\n                fCashMaturities[i],\n                blockTime\n            );\n            // We don't trade it out here but if the contract does take on idiosyncratic cash we need to be careful\n            if (isIdiosyncratic) continue;\n\n            trades[numTrades] = bytes32(\n                (uint256(fCashNotional[i] > 0 ? TradeActionType.Borrow : TradeActionType.Lend) <<\n                    248) |\n                    (marketIndex << 240) |\n                    (uint256(uint88(fCashNotional[i].abs())) << 152)\n            );\n            numTrades++;\n        }\n\n        if (numTrades < trades.length) {\n            // Shrink the trades array to length if it is not full\n            bytes32[] memory newTrades = new bytes32[](numTrades);\n            for (uint256 i; i < numTrades; i++) {\n                newTrades[i] = trades[i];\n            }\n            action[0].trades = newTrades;\n        } else {\n            action[0].trades = trades;\n        }\n\n        NOTIONAL.batchBalanceAndTradeAction(address(this), action);\n    }\n\n    function transferOwnership(address newOwner) external onlyOwner {\n        require(newOwner != address(0), \"invalid new owner\");\n        owner = newOwner;\n    }\n\n    function wrapToWETH() external {\n        _wrapToWETH();\n    }\n\n    function withdraw(address token, uint256 amount) external {\n        IERC20(token).safeTransfer(owner, amount);\n    }\n\n    receive() external payable {}\n}\n","sourcePath":"contracts/external/liquidators/FlashLiquidator.sol","type":"contract","deployment":{"address":"0x326746FD16FdA81599a80280AC94d3EdE71E2CE1","chainid":"42161","blockHeight":259660431}}