{"abi":[{"stateMutability":"nonpayable","type":"fallback"},{"inputs":[{"internalType":"uint256","name":"id","type":"uint256"}],"name":"decodeERC1155Id","outputs":[{"internalType":"uint16","name":"currencyId","type":"uint16"},{"internalType":"uint256","name":"maturity","type":"uint256"},{"internalType":"uint256","name":"assetType","type":"uint256"},{"internalType":"address","name":"vaultAddress","type":"address"},{"internalType":"bool","name":"isfCashDebt","type":"bool"}],"stateMutability":"view","type":"function"},{"inputs":[{"internalType":"uint16","name":"currencyId","type":"uint16"},{"internalType":"uint256","name":"maturity","type":"uint256"},{"internalType":"uint256","name":"assetType","type":"uint256"},{"internalType":"address","name":"vaultAddress","type":"address"},{"internalType":"bool","name":"isfCashDebt","type":"bool"}],"name":"encode","outputs":[{"internalType":"uint256","name":"","type":"uint256"}],"stateMutability":"pure","type":"function"},{"inputs":[{"internalType":"address","name":"account","type":"address"}],"name":"getAccount","outputs":[{"components":[{"internalType":"uint40","name":"nextSettleTime","type":"uint40"},{"internalType":"bytes1","name":"hasDebt","type":"bytes1"},{"internalType":"uint8","name":"assetArrayLength","type":"uint8"},{"internalType":"uint16","name":"bitmapCurrencyId","type":"uint16"},{"internalType":"bytes18","name":"activeCurrencies","type":"bytes18"},{"internalType":"bool","name":"allowPrimeBorrow","type":"bool"}],"internalType":"struct AccountContext","name":"accountContext","type":"tuple"},{"components":[{"internalType":"uint16","name":"currencyId","type":"uint16"},{"internalType":"int256","name":"cashBalance","type":"int256"},{"internalType":"int256","name":"nTokenBalance","type":"int256"},{"internalType":"uint256","name":"lastClaimTime","type":"uint256"},{"internalType":"uint256","name":"accountIncentiveDebt","type":"uint256"}],"internalType":"struct AccountBalance[]","name":"accountBalances","type":"tuple[]"},{"components":[{"internalType":"uint16","name":"currencyId","type":"uint16"},{"internalType":"uint256","name":"maturity","type":"uint256"},{"internalType":"uint256","name":"assetType","type":"uint256"},{"internalType":"int256","name":"notional","type":"int256"},{"internalType":"uint256","name":"storageSlot","type":"uint256"},{"internalType":"enum AssetStorageState","name":"storageState","type":"uint8"}],"internalType":"struct PortfolioAsset[]","name":"portfolio","type":"tuple[]"}],"stateMutability":"view","type":"function"},{"inputs":[{"internalType":"uint16","name":"currencyId","type":"uint16"},{"internalType":"address","name":"account","type":"address"}],"name":"getAccountBalance","outputs":[{"internalType":"int256","name":"cashBalance","type":"int256"},{"internalType":"int256","name":"nTokenBalance","type":"int256"},{"internalType":"uint256","name":"lastClaimTime","type":"uint256"}],"stateMutability":"view","type":"function"},{"inputs":[{"internalType":"address","name":"account","type":"address"}],"name":"getAccountContext","outputs":[{"components":[{"internalType":"uint40","name":"nextSettleTime","type":"uint40"},{"internalType":"bytes1","name":"hasDebt","type":"bytes1"},{"internalType":"uint8","name":"assetArrayLength","type":"uint8"},{"internalType":"uint16","name":"bitmapCurrencyId","type":"uint16"},{"internalType":"bytes18","name":"activeCurrencies","type":"bytes18"},{"internalType":"bool","name":"allowPrimeBorrow","type":"bool"}],"internalType":"struct AccountContext","name":"","type":"tuple"}],"stateMutability":"view","type":"function"},{"inputs":[{"internalType":"address","name":"account","type":"address"}],"name":"getAccountPortfolio","outputs":[{"components":[{"internalType":"uint16","name":"currencyId","type":"uint16"},{"internalType":"uint256","name":"maturity","type":"uint256"},{"internalType":"uint256","name":"assetType","type":"uint256"},{"internalType":"int256","name":"notional","type":"int256"},{"internalType":"uint256","name":"storageSlot","type":"uint256"},{"internalType":"enum AssetStorageState","name":"storageState","type":"uint8"}],"internalType":"struct PortfolioAsset[]","name":"","type":"tuple[]"}],"stateMutability":"view","type":"function"},{"inputs":[{"internalType":"uint16","name":"currencyId","type":"uint16"},{"internalType":"address","name":"account","type":"address"}],"name":"getAccountPrimeDebtBalance","outputs":[{"internalType":"int256","name":"debtBalance","type":"int256"}],"stateMutability":"view","type":"function"},{"inputs":[{"internalType":"uint16","name":"currencyId","type":"uint16"}],"name":"getActiveMarkets","outputs":[{"components":[{"internalType":"bytes32","name":"storageSlot","type":"bytes32"},{"internalType":"uint256","name":"maturity","type":"uint256"},{"internalType":"int256","name":"totalfCash","type":"int256"},{"internalType":"int256","name":"totalPrimeCash","type":"int256"},{"internalType":"int256","name":"totalLiquidity","type":"int256"},{"internalType":"uint256","name":"lastImpliedRate","type":"uint256"},{"internalType":"uint256","name":"oracleRate","type":"uint256"},{"internalType":"uint256","name":"previousTradeTime","type":"uint256"}],"internalType":"struct MarketParameters[]","name":"","type":"tuple[]"}],"stateMutability":"view","type":"function"},{"inputs":[{"internalType":"uint16","name":"currencyId","type":"uint16"},{"internalType":"uint32","name":"blockTime","type":"uint32"}],"name":"getActiveMarketsAtBlockTime","outputs":[{"components":[{"internalType":"bytes32","name":"storageSlot","type":"bytes32"},{"internalType":"uint256","name":"maturity","type":"uint256"},{"internalType":"int256","name":"totalfCash","type":"int256"},{"internalType":"int256","name":"totalPrimeCash","type":"int256"},{"internalType":"int256","name":"totalLiquidity","type":"int256"},{"internalType":"uint256","name":"lastImpliedRate","type":"uint256"},{"internalType":"uint256","name":"oracleRate","type":"uint256"},{"internalType":"uint256","name":"previousTradeTime","type":"uint256"}],"internalType":"struct MarketParameters[]","name":"","type":"tuple[]"}],"stateMutability":"view","type":"function"},{"inputs":[{"internalType":"address","name":"account","type":"address"},{"internalType":"uint16","name":"currencyId","type":"uint16"}],"name":"getAssetsBitmap","outputs":[{"internalType":"bytes32","name":"","type":"bytes32"}],"stateMutability":"view","type":"function"},{"inputs":[{"internalType":"address","name":"callback","type":"address"}],"name":"getAuthorizedCallbackContractStatus","outputs":[{"internalType":"bool","name":"isAuthorized","type":"bool"}],"stateMutability":"view","type":"function"},{"inputs":[{"internalType":"uint16","name":"currencyId","type":"uint16"},{"internalType":"address","name":"account","type":"address"}],"name":"getBalanceOfPrimeCash","outputs":[{"internalType":"int256","name":"cashBalance","type":"int256"}],"stateMutability":"view","type":"function"},{"inputs":[{"internalType":"uint16","name":"currencyId","type":"uint16"}],"name":"getCashGroup","outputs":[{"components":[{"internalType":"uint8","name":"maxMarketIndex","type":"uint8"},{"internalType":"uint8","name":"rateOracleTimeWindow5Min","type":"uint8"},{"internalType":"uint8","name":"maxDiscountFactor5BPS","type":"uint8"},{"internalType":"uint8","name":"reserveFeeShare","type":"uint8"},{"internalType":"uint8","name":"debtBuffer25BPS","type":"uint8"},{"internalType":"uint8","name":"fCashHaircut25BPS","type":"uint8"},{"internalType":"uint8","name":"minOracleRate25BPS","type":"uint8"},{"internalType":"uint8","name":"liquidationfCashHaircut25BPS","type":"uint8"},{"internalType":"uint8","name":"liquidationDebtBuffer25BPS","type":"uint8"},{"internalType":"uint8","name":"maxOracleRate25BPS","type":"uint8"}],"internalType":"struct CashGroupSettings","name":"","type":"tuple"}],"stateMutability":"view","type":"function"},{"inputs":[{"internalType":"uint16","name":"currencyId","type":"uint16"}],"name":"getCashGroupAndAssetRate","outputs":[{"components":[{"internalType":"uint8","name":"maxMarketIndex","type":"uint8"},{"internalType":"uint8","name":"rateOracleTimeWindow5Min","type":"uint8"},{"internalType":"uint8","name":"maxDiscountFactor5BPS","type":"uint8"},{"internalType":"uint8","name":"reserveFeeShare","type":"uint8"},{"internalType":"uint8","name":"debtBuffer25BPS","type":"uint8"},{"internalType":"uint8","name":"fCashHaircut25BPS","type":"uint8"},{"internalType":"uint8","name":"minOracleRate25BPS","type":"uint8"},{"internalType":"uint8","name":"liquidationfCashHaircut25BPS","type":"uint8"},{"internalType":"uint8","name":"liquidationDebtBuffer25BPS","type":"uint8"},{"internalType":"uint8","name":"maxOracleRate25BPS","type":"uint8"}],"internalType":"struct CashGroupSettings","name":"cashGroup","type":"tuple"},{"components":[{"internalType":"contract AssetRateAdapter","name":"rateOracle","type":"address"},{"internalType":"int256","name":"rate","type":"int256"},{"internalType":"int256","name":"underlyingDecimals","type":"int256"}],"internalType":"struct Deprecated_AssetRateParameters","name":"assetRate","type":"tuple"}],"stateMutability":"view","type":"function"},{"inputs":[{"internalType":"uint16","name":"currencyId","type":"uint16"}],"name":"getCurrency","outputs":[{"components":[{"internalType":"address","name":"tokenAddress","type":"address"},{"internalType":"bool","name":"hasTransferFee","type":"bool"},{"internalType":"int256","name":"decimals","type":"int256"},{"internalType":"enum TokenType","name":"tokenType","type":"uint8"},{"internalType":"uint256","name":"deprecated_maxCollateralBalance","type":"uint256"}],"internalType":"struct Token","name":"assetToken","type":"tuple"},{"components":[{"internalType":"address","name":"tokenAddress","type":"address"},{"internalType":"bool","name":"hasTransferFee","type":"bool"},{"internalType":"int256","name":"decimals","type":"int256"},{"internalType":"enum TokenType","name":"tokenType","type":"uint8"},{"internalType":"uint256","name":"deprecated_maxCollateralBalance","type":"uint256"}],"internalType":"struct Token","name":"underlyingToken","type":"tuple"}],"stateMutability":"view","type":"function"},{"inputs":[{"internalType":"uint16","name":"currencyId","type":"uint16"}],"name":"getCurrencyAndRates","outputs":[{"components":[{"internalType":"address","name":"tokenAddress","type":"address"},{"internalType":"bool","name":"hasTransferFee","type":"bool"},{"internalType":"int256","name":"decimals","type":"int256"},{"internalType":"enum TokenType","name":"tokenType","type":"uint8"},{"internalType":"uint256","name":"deprecated_maxCollateralBalance","type":"uint256"}],"internalType":"struct Token","name":"assetToken","type":"tuple"},{"components":[{"internalType":"address","name":"tokenAddress","type":"address"},{"internalType":"bool","name":"hasTransferFee","type":"bool"},{"internalType":"int256","name":"decimals","type":"int256"},{"internalType":"enum TokenType","name":"tokenType","type":"uint8"},{"internalType":"uint256","name":"deprecated_maxCollateralBalance","type":"uint256"}],"internalType":"struct Token","name":"underlyingToken","type":"tuple"},{"components":[{"internalType":"int256","name":"rateDecimals","type":"int256"},{"internalType":"int256","name":"rate","type":"int256"},{"internalType":"int256","name":"buffer","type":"int256"},{"internalType":"int256","name":"haircut","type":"int256"},{"internalType":"int256","name":"liquidationDiscount","type":"int256"}],"internalType":"struct ETHRate","name":"ethRate","type":"tuple"},{"components":[{"internalType":"contract AssetRateAdapter","name":"rateOracle","type":"address"},{"internalType":"int256","name":"rate","type":"int256"},{"internalType":"int256","name":"underlyingDecimals","type":"int256"}],"internalType":"struct Deprecated_AssetRateParameters","name":"assetRate","type":"tuple"}],"stateMutability":"view","type":"function"},{"inputs":[{"internalType":"address","name":"tokenAddress","type":"address"}],"name":"getCurrencyId","outputs":[{"internalType":"uint16","name":"currencyId","type":"uint16"}],"stateMutability":"view","type":"function"},{"inputs":[{"internalType":"uint16","name":"currencyId","type":"uint16"}],"name":"getDepositParameters","outputs":[{"internalType":"int256[]","name":"depositShares","type":"int256[]"},{"internalType":"int256[]","name":"leverageThresholds","type":"int256[]"}],"stateMutability":"view","type":"function"},{"inputs":[{"internalType":"address","name":"account","type":"address"}],"name":"getFreeCollateral","outputs":[{"internalType":"int256","name":"","type":"int256"},{"internalType":"int256[]","name":"","type":"int256[]"}],"stateMutability":"view","type":"function"},{"inputs":[{"internalType":"address","name":"operator","type":"address"}],"name":"getGlobalTransferOperatorStatus","outputs":[{"internalType":"bool","name":"isAuthorized","type":"bool"}],"stateMutability":"view","type":"function"},{"inputs":[{"internalType":"uint16","name":"currencyId","type":"uint16"}],"name":"getInitializationParameters","outputs":[{"internalType":"int256[]","name":"deprecated_annualizedAnchorRates","type":"int256[]"},{"internalType":"int256[]","name":"proportions","type":"int256[]"}],"stateMutability":"view","type":"function"},{"inputs":[{"internalType":"uint16","name":"currencyId","type":"uint16"}],"name":"getInterestRateCurve","outputs":[{"components":[{"internalType":"uint256","name":"kinkUtilization1","type":"uint256"},{"internalType":"uint256","name":"kinkUtilization2","type":"uint256"},{"internalType":"uint256","name":"kinkRate1","type":"uint256"},{"internalType":"uint256","name":"kinkRate2","type":"uint256"},{"internalType":"uint256","name":"maxRate","type":"uint256"},{"internalType":"uint256","name":"minFeeRate","type":"uint256"},{"internalType":"uint256","name":"maxFeeRate","type":"uint256"},{"internalType":"uint256","name":"feeRatePercent","type":"uint256"}],"internalType":"struct InterestRateParameters[]","name":"nextInterestRateCurve","type":"tuple[]"},{"components":[{"internalType":"uint256","name":"kinkUtilization1","type":"uint256"},{"internalType":"uint256","name":"kinkUtilization2","type":"uint256"},{"internalType":"uint256","name":"kinkRate1","type":"uint256"},{"internalType":"uint256","name":"kinkRate2","type":"uint256"},{"internalType":"uint256","name":"maxRate","type":"uint256"},{"internalType":"uint256","name":"minFeeRate","type":"uint256"},{"internalType":"uint256","name":"maxFeeRate","type":"uint256"},{"internalType":"uint256","name":"feeRatePercent","type":"uint256"}],"internalType":"struct InterestRateParameters[]","name":"activeInterestRateCurve","type":"tuple[]"}],"stateMutability":"view","type":"function"},{"inputs":[],"name":"getLibInfo","outputs":[{"internalType":"address","name":"","type":"address"},{"internalType":"address","name":"","type":"address"}],"stateMutability":"pure","type":"function"},{"inputs":[{"internalType":"uint16","name":"currencyId","type":"uint16"},{"internalType":"uint256","name":"maturity","type":"uint256"},{"internalType":"uint256","name":"settlementDate","type":"uint256"}],"name":"getMarket","outputs":[{"components":[{"internalType":"bytes32","name":"storageSlot","type":"bytes32"},{"internalType":"uint256","name":"maturity","type":"uint256"},{"internalType":"int256","name":"totalfCash","type":"int256"},{"internalType":"int256","name":"totalPrimeCash","type":"int256"},{"internalType":"int256","name":"totalLiquidity","type":"int256"},{"internalType":"uint256","name":"lastImpliedRate","type":"uint256"},{"internalType":"uint256","name":"oracleRate","type":"uint256"},{"internalType":"uint256","name":"previousTradeTime","type":"uint256"}],"internalType":"struct MarketParameters","name":"","type":"tuple"}],"stateMutability":"view","type":"function"},{"inputs":[],"name":"getMaxCurrencyId","outputs":[{"internalType":"uint16","name":"","type":"uint16"}],"stateMutability":"view","type":"function"},{"inputs":[{"internalType":"address","name":"tokenAddress","type":"address"}],"name":"getNTokenAccount","outputs":[{"internalType":"uint16","name":"currencyId","type":"uint16"},{"internalType":"uint256","name":"totalSupply","type":"uint256"},{"internalType":"uint256","name":"incentiveAnnualEmissionRate","type":"uint256"},{"internalType":"uint256","name":"lastInitializedTime","type":"uint256"},{"internalType":"bytes6","name":"nTokenParameters","type":"bytes6"},{"internalType":"int256","name":"cashBalance","type":"int256"},{"internalType":"uint256","name":"accumulatedNOTEPerNToken","type":"uint256"},{"internalType":"uint256","name":"lastAccumulatedTime","type":"uint256"}],"stateMutability":"view","type":"function"},{"inputs":[{"internalType":"address","name":"tokenAddress","type":"address"}],"name":"getNTokenPortfolio","outputs":[{"components":[{"internalType":"uint16","name":"currencyId","type":"uint16"},{"internalType":"uint256","name":"maturity","type":"uint256"},{"internalType":"uint256","name":"assetType","type":"uint256"},{"internalType":"int256","name":"notional","type":"int256"},{"internalType":"uint256","name":"storageSlot","type":"uint256"},{"internalType":"enum AssetStorageState","name":"storageState","type":"uint8"}],"internalType":"struct PortfolioAsset[]","name":"liquidityTokens","type":"tuple[]"},{"components":[{"internalType":"uint16","name":"currencyId","type":"uint16"},{"internalType":"uint256","name":"maturity","type":"uint256"},{"internalType":"uint256","name":"assetType","type":"uint256"},{"internalType":"int256","name":"notional","type":"int256"},{"internalType":"uint256","name":"storageSlot","type":"uint256"},{"internalType":"enum AssetStorageState","name":"storageState","type":"uint8"}],"internalType":"struct PortfolioAsset[]","name":"netfCashAssets","type":"tuple[]"}],"stateMutability":"view","type":"function"},{"inputs":[],"name":"getNoteToken","outputs":[{"internalType":"address","name":"","type":"address"}],"stateMutability":"pure","type":"function"},{"inputs":[],"name":"getOwnershipStatus","outputs":[{"internalType":"address","name":"","type":"address"},{"internalType":"address","name":"","type":"address"}],"stateMutability":"view","type":"function"},{"inputs":[{"internalType":"uint16","name":"currencyId","type":"uint16"}],"name":"getPrimeCashHoldingsOracle","outputs":[{"internalType":"address","name":"","type":"address"}],"stateMutability":"view","type":"function"},{"inputs":[{"internalType":"uint16","name":"currencyId","type":"uint16"},{"internalType":"uint256","name":"blockTime","type":"uint256"}],"name":"getPrimeFactors","outputs":[{"components":[{"internalType":"int256","name":"supplyFactor","type":"int256"},{"internalType":"int256","name":"debtFactor","type":"int256"},{"internalType":"uint256","name":"oracleSupplyRate","type":"uint256"}],"internalType":"struct PrimeRate","name":"pr","type":"tuple"},{"components":[{"internalType":"uint256","name":"lastAccrueTime","type":"uint256"},{"internalType":"uint256","name":"totalPrimeSupply","type":"uint256"},{"internalType":"uint256","name":"totalPrimeDebt","type":"uint256"},{"internalType":"uint256","name":"oracleSupplyRate","type":"uint256"},{"internalType":"uint256","name":"lastTotalUnderlyingValue","type":"uint256"},{"internalType":"uint256","name":"underlyingScalar","type":"uint256"},{"internalType":"uint256","name":"supplyScalar","type":"uint256"},{"internalType":"uint256","name":"debtScalar","type":"uint256"},{"internalType":"uint256","name":"rateOracleTimeWindow","type":"uint256"}],"internalType":"struct PrimeCashFactors","name":"factors","type":"tuple"},{"internalType":"uint256","name":"maxUnderlyingSupply","type":"uint256"},{"internalType":"uint256","name":"totalUnderlyingSupply","type":"uint256"}],"stateMutability":"view","type":"function"},{"inputs":[{"internalType":"uint16","name":"currencyId","type":"uint16"}],"name":"getPrimeFactorsStored","outputs":[{"components":[{"internalType":"uint256","name":"lastAccrueTime","type":"uint256"},{"internalType":"uint256","name":"totalPrimeSupply","type":"uint256"},{"internalType":"uint256","name":"totalPrimeDebt","type":"uint256"},{"internalType":"uint256","name":"oracleSupplyRate","type":"uint256"},{"internalType":"uint256","name":"lastTotalUnderlyingValue","type":"uint256"},{"internalType":"uint256","name":"underlyingScalar","type":"uint256"},{"internalType":"uint256","name":"supplyScalar","type":"uint256"},{"internalType":"uint256","name":"debtScalar","type":"uint256"},{"internalType":"uint256","name":"rateOracleTimeWindow","type":"uint256"}],"internalType":"struct PrimeCashFactors","name":"","type":"tuple"}],"stateMutability":"view","type":"function"},{"inputs":[{"internalType":"uint16","name":"currencyId","type":"uint16"}],"name":"getPrimeInterestRate","outputs":[{"internalType":"uint256","name":"annualDebtRatePreFee","type":"uint256"},{"internalType":"uint256","name":"annualDebtRatePostFee","type":"uint256"},{"internalType":"uint256","name":"annualSupplyRate","type":"uint256"}],"stateMutability":"view","type":"function"},{"inputs":[{"internalType":"uint16","name":"currencyId","type":"uint16"}],"name":"getPrimeInterestRateCurve","outputs":[{"components":[{"internalType":"uint256","name":"kinkUtilization1","type":"uint256"},{"internalType":"uint256","name":"kinkUtilization2","type":"uint256"},{"internalType":"uint256","name":"kinkRate1","type":"uint256"},{"internalType":"uint256","name":"kinkRate2","type":"uint256"},{"internalType":"uint256","name":"maxRate","type":"uint256"},{"internalType":"uint256","name":"minFeeRate","type":"uint256"},{"internalType":"uint256","name":"maxFeeRate","type":"uint256"},{"internalType":"uint256","name":"feeRatePercent","type":"uint256"}],"internalType":"struct InterestRateParameters","name":"","type":"tuple"}],"stateMutability":"view","type":"function"},{"inputs":[{"internalType":"uint16","name":"currencyId","type":"uint16"}],"name":"getRateStorage","outputs":[{"components":[{"internalType":"contract AggregatorV2V3Interface","name":"rateOracle","type":"address"},{"internalType":"uint8","name":"rateDecimalPlaces","type":"uint8"},{"internalType":"bool","name":"mustInvert","type":"bool"},{"internalType":"uint8","name":"buffer","type":"uint8"},{"internalType":"uint8","name":"haircut","type":"uint8"},{"internalType":"uint8","name":"liquidationDiscount","type":"uint8"}],"internalType":"struct ETHRateStorage","name":"ethRate","type":"tuple"},{"components":[{"internalType":"contract AssetRateAdapter","name":"rateOracle","type":"address"},{"internalType":"uint8","name":"underlyingDecimalPlaces","type":"uint8"}],"internalType":"struct AssetRateStorage","name":"assetRate","type":"tuple"}],"stateMutability":"view","type":"function"},{"inputs":[{"internalType":"uint16","name":"currencyId","type":"uint16"}],"name":"getRebalancingCooldown","outputs":[{"internalType":"uint40","name":"","type":"uint40"}],"stateMutability":"view","type":"function"},{"inputs":[{"internalType":"uint16","name":"currencyId","type":"uint16"},{"internalType":"address","name":"holding","type":"address"}],"name":"getRebalancingTarget","outputs":[{"internalType":"uint8","name":"","type":"uint8"}],"stateMutability":"view","type":"function"},{"inputs":[{"internalType":"uint16","name":"currencyId","type":"uint16"}],"name":"getReserveBalance","outputs":[{"internalType":"int256","name":"reserveBalance","type":"int256"}],"stateMutability":"view","type":"function"},{"inputs":[{"internalType":"uint16","name":"currencyId","type":"uint16"}],"name":"getReserveBuffer","outputs":[{"internalType":"uint256","name":"","type":"uint256"}],"stateMutability":"view","type":"function"},{"inputs":[{"internalType":"uint16","name":"currencyId","type":"uint16"}],"name":"getSecondaryIncentiveRewarder","outputs":[{"internalType":"address","name":"rewarder","type":"address"}],"stateMutability":"view","type":"function"},{"inputs":[{"internalType":"uint16","name":"currencyId","type":"uint16"},{"internalType":"uint40","name":"maturity","type":"uint40"}],"name":"getSettlementRate","outputs":[{"components":[{"internalType":"int256","name":"supplyFactor","type":"int256"},{"internalType":"int256","name":"debtFactor","type":"int256"},{"internalType":"uint256","name":"oracleSupplyRate","type":"uint256"}],"internalType":"struct PrimeRate","name":"","type":"tuple"}],"stateMutability":"view","type":"function"},{"inputs":[{"internalType":"address[]","name":"tokens","type":"address[]"}],"name":"getStoredTokenBalances","outputs":[{"internalType":"uint256[]","name":"balances","type":"uint256[]"}],"stateMutability":"view","type":"function"},{"inputs":[{"internalType":"uint16","name":"currencyId","type":"uint16"},{"internalType":"uint256","name":"maturity","type":"uint256"}],"name":"getTotalfCashDebtOutstanding","outputs":[{"internalType":"int256","name":"totalfCashDebt","type":"int256"},{"internalType":"int256","name":"fCashDebtHeldInSettlementReserve","type":"int256"},{"internalType":"int256","name":"primeCashHeldInSettlementReserve","type":"int256"}],"stateMutability":"view","type":"function"},{"inputs":[],"name":"getTreasuryManager","outputs":[{"internalType":"address","name":"","type":"address"}],"stateMutability":"view","type":"function"},{"inputs":[{"internalType":"address","name":"account","type":"address"},{"internalType":"uint16","name":"currencyId","type":"uint16"},{"internalType":"uint256","name":"maturity","type":"uint256"}],"name":"getfCashNotional","outputs":[{"internalType":"int256","name":"","type":"int256"}],"stateMutability":"view","type":"function"},{"inputs":[{"internalType":"uint16","name":"currencyId","type":"uint16"}],"name":"nTokenAddress","outputs":[{"internalType":"address","name":"","type":"address"}],"stateMutability":"view","type":"function"},{"inputs":[],"name":"owner","outputs":[{"internalType":"address","name":"","type":"address"}],"stateMutability":"view","type":"function"},{"inputs":[{"internalType":"uint16","name":"currencyId","type":"uint16"}],"name":"pCashAddress","outputs":[{"internalType":"address","name":"","type":"address"}],"stateMutability":"view","type":"function"},{"inputs":[{"internalType":"uint16","name":"currencyId","type":"uint16"}],"name":"pDebtAddress","outputs":[{"internalType":"address","name":"","type":"address"}],"stateMutability":"view","type":"function"},{"inputs":[],"name":"pauseGuardian","outputs":[{"internalType":"address","name":"","type":"address"}],"stateMutability":"view","type":"function"},{"inputs":[],"name":"pauseRouter","outputs":[{"internalType":"address","name":"","type":"address"}],"stateMutability":"view","type":"function"}],"bytecode":"608060405234801561001057600080fd5b5061465c806100206000396000f3fe608060405234801561001057600080fd5b50600436106102f15760003560e01c80638da5cb5b1161019d578063c866a480116100e9578063e74b6e4e116100a2578063ec41a2571161007c578063ec41a257146107c5578063f5945404146107cd578063fbcbc0f1146107e0578063fc1b134514610802576102f1565b8063e74b6e4e1461077e578063e7ceffb81461079f578063ec3c0501146107b2576102f1565b8063c866a480146106ee578063ca0ee70014610701578063ca668b3c14610714578063d3ca48e814610738578063d4ccb0ed1461074b578063dd8e32ec1461076b576102f1565b80639c4e89f411610156578063b536ffb611610130578063b536ffb614610685578063b62d268a146106a5578063c3999444146106c5578063c4c96dae146106e6576102f1565b80639c4e89f41461063c578063aa94baa714610644578063b0de221714610665576102f1565b80638da5cb5b146105d55780638ecd0660146105dd578063911a56b0146105f057806394f1d1e414610603578063974b10541461061657806397f503f514610629576102f1565b8063594665b51161025c5780636e4682f711610215578063722abb86116101ef578063722abb86146105775780637eaf7f2f1461058a57806382463367146105aa57806388a73eb7146105b2576102f1565b80636e4682f714610524578063709d6c7b146105445780637154233314610564576102f1565b8063594665b5146104795780635ab759431461048c5780635eb2c1ca146104ae57806365663b59146104cf57806367c22ce5146104f05780636987a20314610503576102f1565b806324a3d622116102ae57806324a3d622146103c95780632d353221146103d1578063336ede35146103f857806339df479114610418578063497cf7e3146104385780634ebad18e14610458576102f1565b806304ccb84e146103125780631794b8ef14610330578063197a6dc0146103505780631d66d03f14610366578063206f27991461038657806324980ce0146103a9575b60405162461bcd60e51b8152600401610309906142ea565b60405180910390fd5b61031a610815565b604051610327919061457d565b60405180910390f35b61034361033e366004613aa6565b61081f565b60405161032791906141f0565b6103586108e8565b604051610327929190614105565b610379610374366004613bcf565b610907565b60405161032791906140f1565b610399610394366004613c12565b610923565b60405161032794939291906144d3565b6103bc6103b7366004613bcf565b61095a565b60405161032791906144b6565b61037961096b565b6103e46103df366004613a28565b61097a565b6040516103279897969594939291906145c0565b61040b610406366004613bcf565b6109cc565b6040516103279190614606565b61042b610426366004613be9565b610a01565b6040516103279190614233565b61044b610446366004613bcf565b610a8f565b6040516103279190614169565b61046b610466366004613bcf565b610aa4565b604051610327929190614503565b610379610487366004613bcf565b610ae0565b61049f61049a366004613bcf565b610aeb565b60405161032793929190614255565b6104c16104bc366004613bcf565b610b0f565b604051610327929190614144565b6104e26104dd366004613bcf565b610c44565b60405161032792919061411f565b61042b6104fe366004613bcf565b610c7a565b610516610511366004613bcf565b610c90565b604051610327929190614416565b610537610532366004613a28565b610cc1565b6040516103279190614228565b610557610552366004613c3b565b610cdf565b60405161032791906144a7565b61049f610572366004613c12565b610d31565b610537610585366004613a28565b610d8a565b61059d610598366004613be9565b610da8565b6040516103279190614618565b610379610de4565b6105c56105c0366004613bcf565b610df3565b604051610327949392919061451f565b610379610e5b565b61042b6105eb366004613a42565b610e72565b61042b6105fe366004613a6b565b610e8b565b61031a610611366004613a28565b610ead565b610379610624366004613bcf565b610ee7565b6104e2610637366004613bcf565b610f29565b610379610f62565b610657610652366004613a28565b610f71565b6040516103279291906141cb565b610678610673366004613a28565b610fab565b604051610327919061436b565b610698610693366004613a28565b610fbc565b60405161032791906141b8565b6106b86106b3366004613d09565b611009565b60405161032791906144c5565b6106d86106d3366004613a28565b61102c565b60405161032792919061423c565b6103586110c4565b6103796106fc366004613bcf565b6110f2565b61042b61070f366004613bcf565b611106565b610727610722366004613d3d565b61111d565b60405161032795949392919061458c565b61042b610746366004613be9565b611142565b61075e610759366004613bcf565b6111a0565b6040516103279190614407565b61042b610779366004613c6d565b6111be565b61079161078c366004613bcf565b6111d9565b604051610327929190614433565b6103796107ad366004613bcf565b6112ab565b61044b6107c0366004613ccb565b6112c6565b6103796112e1565b6105576107db366004613bcf565b6112f9565b6107f36107ee366004613a28565b61130a565b60405161032793929190614379565b61049f610810366004613be9565b61148a565b60005461ffff1690565b6060600061082b6114b2565b90508267ffffffffffffffff8111801561084457600080fd5b5060405190808252806020026020018201604052801561086e578160200160208202803683370190505b50915060005b838110156108e05781600086868481811061088b57fe5b90506020020160208101906108a09190613a28565b6001600160a01b03166001600160a01b03168152602001908152602001600020548382815181106108cd57fe5b6020908102919091010152600101610874565b505092915050565b600054600d546001600160a01b03640100000000909204821691169091565b6000610912826114bf565b61091b826114fc565b90505b919050565b61092b613723565b610933613744565b6000806109408686611529565b909450925061094f84876115e7565b949793965094505050565b610962613744565b61091b8261165e565b6002546001600160a01b031681565b60008060008060008060008061098f8961172c565b939b5091985096509094506109a5905089611798565b919850925090506109b7898942611802565b90915090505080935050919395975091939597565b6000806109d7611835565b61ffff93909316600090815260209390935250506040902054600160801b900464ffffffffff1690565b6000610a0e828442611802565b50919250610a2291505061ffff8416611842565b6001600160a01b0316826001600160a01b03161415610a89576000610a478442611868565b905060005b81518110156108e057610a7f828281518110610a6457fe5b6020026020010151606001518461192190919063ffffffff16565b9250600101610a4c565b92915050565b6060610a9a826114bf565b61091b8242611868565b610aac613790565b610ab4613790565b610abd836114bf565b610aca8361ffff16611937565b9150610ad98361ffff1661194a565b9050915091565b600061091b8261195d565b6000806000610b0284610afd8661165e565b61198d565b9250925092509193909250565b606080610b1b836114bf565b6000610b2a8461ffff16611a28565b60ff16905080610b3a5750610c3f565b8067ffffffffffffffff81118015610b5157600080fd5b50604051908082528060200260200182016040528015610b8b57816020015b610b786137bf565b815260200190600190039081610b705790505b5092508067ffffffffffffffff81118015610ba557600080fd5b50604051908082528060200260200182016040528015610bdf57816020015b610bcc6137bf565b815260200190600190039081610bc45790505b50915060015b818111610c3c57610bf68582611a3e565b846001830381518110610c0557fe5b6020026020010181905250610c1a8582611a58565b836001830381518110610c2957fe5b6020908102919091010152600101610be5565b50505b915091565b606080610c50836114bf565b6000610c5f8461ffff16611a28565b60ff169050610c728461ffff1682611a6d565b915050915091565b61ffff166000908152600c602052604090205490565b610c98613804565b610ca0613858565b610ca9836114bf565b610cb68361ffff16611a94565b9150610ad983611b1c565b6001600160a01b031660009081526008602052604090205460ff1690565b610ce7613882565b610cf0846114bf565b6000610cfb85611ba7565b9050610d05613882565b610d268661ffff1686426001610d1a87611bc8565b8694939291908a611bdc565b9150505b9392505050565b600080600080610d3f611c13565b61ffff90961660009081526020968752604080822096825295909652505050908220546001600160501b03808216840394600160501b8304821690940393600160a01b909204169150565b6001600160a01b031660009081526006602052604090205460ff1690565b600080610db3611c20565b61ffff85166000908152602091825260408082206001600160a01b0387168352909252205460ff1691505092915050565b6001546001600160a01b031681565b610dfb613790565b610e03613790565b610e0b6138ca565b610e13613858565b610e1c856114bf565b610e298561ffff16611937565b9350610e388561ffff1661194a565b9250610e478561ffff16611c2d565b9150610e5285611b1c565b90509193509193565b60005464010000000090046001600160a01b031681565b6000610e7d826114bf565b610d2a838361ffff16611d90565b6000610e96836114bf565b610ea5848461ffff1684611dc5565b949350505050565b6001600160a01b03811660009081526009602052604090205461ffff168061091e5760405162461bcd60e51b815260040161030990614341565b6000610ef2826114bf565b6000610f018361ffff16611842565b90506001600160a01b03811661091b5760405162461bcd60e51b81526004016103099061426b565b606080610f35836114bf565b6000610f448461ffff16611a28565b60ff169050610f578461ffff1682611e0a565b909590945092505050565b600b546001600160a01b031690565b6060806000806000610f828661172c565b5093509350509250610f948682611e3f565b9450610fa1868484611e53565b9350505050915091565b610fb36138f9565b61091b82611f6d565b60606000610fc983611f6d565b9050610fd481612026565b15610ffb57610ff3838260600151836000015164ffffffffff16611e53565b91505061091e565b610ff3838260400151611e3f565b611011613723565b61101a836114bf565b610d2a838364ffffffffff1642612033565b6000606073__FreeCollateralExternal________________636cb65eaf846040518263ffffffff1660e01b815260040161106791906140f1565b60006040518083038186803b15801561107f57600080fd5b505af4158015611093573d6000803e3d6000fd5b505050506040513d6000823e601f3d908101601f191682016040526110bb9190810190613b15565b91509150915091565b73__FreeCollateralExternal________________73__MigrateIncentives_____________________9091565b60006110fd826114bf565b61091b82612065565b6000611111826114bf565b61091b610fee8361206f565b600080600080600061112e866120c0565b945094509450945094505b91939590929450565b60008061114d612102565b6001600160a01b03841660009081526020828152604080832061ffff891684529091528120805492935091600160a81b9004600a90810b900b908112611194576000611196565b805b9695505050505050565b6111a8613804565b6111b1826114bf565b61091b8261ffff16611a94565b60006111cd868686868661210f565b90505b95945050505050565b6111e16138f9565b6111e961392e565b6111f2836114bf565b60006111fc61217d565b9050600061120861218a565b61ffff909516600081815260209384526040808220815160c08101835290546001600160a01b03808216835260ff600160a01b8084048216858b0152600160a81b84048216151585870152600160b01b840482166060860152600160b81b840482166080860152600160c01b909304811660a085015295855299875292829020825180840190935254988916825291909704909116928601929092525093915050565b6000806112bb8361ffff16611842565b9050610d2a81612197565b60606112d1836114bf565b610d2a838363ffffffff16611868565b73019be259bc299f3f653688c7655c87f998bc7bc190565b6113016137bf565b61091b82612210565b6113126138f9565b60608061131e84611f6d565b60408051600a8082526101608201909252919450816020015b61133f613945565b815260200190600190039081611337579050509150600061135f84612026565b156113b35760008360008151811061137357fe5b602090810291909101015160608601805161ffff1682525190915061139a90879042611802565b6080850152606084015260408301526020909101526001015b60808401515b6001600160701b03198116156114415760008483815181106113d757fe5b602090810291909101015160f083901c613fff168082529091506113fb5750611441565b61140a87826000015142611802565b6080850152606084015260408301526020909101526001919091019060101b6fffffffffffffffffffffffffffffffff19166113b9565b61144a85612026565b1561147057611469868660600151876000015164ffffffffff16611e53565b9250611481565b61147e868660400151611e3f565b92505b50509193909250565b6000806000611498856114bf565b6114a3848642611802565b50919790965090945092505050565b600080610a896026612243565b8061ffff1660001080156114dd575060005461ffff90811690821611155b6114f95760405162461bcd60e51b815260040161030990614314565b50565b600061150661225c565b61ffff90921660009081526020929092525060409020546001600160a01b031690565b611531613723565b611539613744565b6115428461165e565b9050828160000151101561157357600061155b85612269565b9050611569858383876122e4565b5091506115809050565b8051831461158057600080fd5b60405180606001604052806115ae6115a98460a001518560c0015161238890919063ffffffff16565b6123af565b81526020016115d16115a98460a001518560e0015161238890919063ffffffff16565b8152602001826060015181525091509250929050565b60008060006115f46123c9565b61ffff8516600090815260209190915260409020600181015490915061162690600160581b900463ffffffff166123d6565b81549093506501000000000090046affffffffffffffffffffff1661165361164e87836123e4565b612410565b925050509250929050565b611666613744565b60006116706123c9565b61ffff93841660009081526020918252604090819020805464ffffffffff811686526501000000000081046affffffffffffffffffffff908116948701949094526001820154841692860192909252600160d81b820463ffffffff166060860152600160801b9091049091166080840152600201546001600160501b0380821660a0850152600160501b8204811660c0850152600160a01b82041660e0840152600160f01b900460ff1661012c02909216610100820152919050565b60008060008060008061173d61241f565b6001600160a01b039097166000908152602097909752505060409094205461ffff81169563ffffffff620100008304811696506601000000000000830416945060ff600160501b8304169350600160581b90910460d01b9150565b6000806000806117a661242c565b6001600160a01b0395909516600090815260209590955250506040909220546bffffffffffffffffffffffff811693600160601b82046fffffffffffffffffffffffffffffffff169350600160e01b90910463ffffffff169150565b60008060008060006118148787611529565b509050611822888883612439565b9450945094509450505b93509350935093565b600080610a896025612243565b60008061184d6124f3565b6000938452602052505060409020546001600160a01b031690565b6060600061187584611ba7565b90506000816020015167ffffffffffffffff8111801561189457600080fd5b506040519080825280602002602001820160405280156118ce57816020015b6118bb613882565b8152602001906001900390816118b35790505b50905060005b8260200151811015611918576119108282815181106118ef57fe5b6020026020010151826001016001888761250090949392919063ffffffff16565b6001016118d4565b50949350505050565b81810182811215600083121514610a8957600080fd5b61193f613790565b61091b82600061257b565b611952613790565b61091b82600161257b565b600080611968612615565b61ffff939093166000908152602093909352505060409020546001600160a01b031690565b6000806000806000856020015111156119da576119d76119be8660c00151876020015161238890919063ffffffff16565b60e087015160408801516119d191612388565b90612622565b90505b60006119e587612210565b90506119f1818361263b565b94508115611a0857611a05818660016126fb565b93505b602086015115611a1f57611a1c8583612773565b92505b50509250925092565b600080611a348361278c565b60ff169392505050565b611a466137bf565b610d2a8383611a536127a9565b6127b6565b611a606137bf565b610d2a8383611a5361280d565b60606000611a7961281a565b60008581526020829052604090209091506111968185612827565b611a9c613804565b6000611aa78361278c565b9050600081601f60408051610140810190915291901a80825291506020810183601e1a815260200183601d1a815260200183601c1a815260200183601b1a815260200183601a1a81526020018360191a81526020018360181a81526020018360171a81526020018360161a9052949350505050565b611b24613858565b6000611b338361ffff1661194a565b90506000611b536402540be400836040015161296b90919063ffffffff16565b90506000611b618542611529565b50604080850151908601528051909150611b96906ec097ce7bc90715b34b9f100000000090611b90908561296b565b906129b9565b602085015250506000825250919050565b611baf613978565b6000611bbb8342611529565b509050610d2a83826129ea565b6060015161012c60089190911c60ff160290565b611be98787878685612a2d565b611c028760e001518860a001518960c001518588612ae8565b60c090970196909652505050505050565b600080610a896020612243565b600080610a896024612243565b611c356138ca565b6000611c3f61217d565b6000848152602082905260408120919250806001861415611c6c5750670de0b6b3a7640000905080611d2f565b825460408051633fabe5a360e21b815290516001600160a01b039092169163feaf968c9160048082019260a092909190829003018186803b158015611cb057600080fd5b505afa158015611cc4573d6000803e3d6000fd5b505050506040513d601f19601f82011682018060405250810190611ce89190613d78565b5091935050600083139150611cfe905057600080fd5b825460ff600160a01b82048116600a0a9350600160a81b9091041615611d2f57611d2c81611b90848061296b565b90505b8254600160b01b900460ff166096811315611d4f5760951901600a026096015b6040805160a081018252938452602084019290925290820152905460ff600160b81b820481166060840152600160c01b909104166080820152915050919050565b600080611d9b612b70565b6001600160a01b038516600090815260209182526040808220868352909252205491505092915050565b600080611dd0612b7d565b6001600160a01b03861660009081526020918252604080822087835283528082208683529092522054600f90810b900b9150509392505050565b6060806000611e17612b8a565b6000868152602082905260409020909150611e328186612827565b9097909650945050505050565b6060611e4b8383612b97565b509392505050565b60606000611e65858561ffff16611d90565b90506000611e7282612bb8565b905060008167ffffffffffffffff81118015611e8d57600080fd5b50604051908082528060200260200182016040528015611ec757816020015b611eb46139a4565b815260200190600190039081611eac5790505b509050600091506000611ed984612c88565b90505b8015611f62576000611eee8783612cad565b90506000611f018a8a61ffff1684611dc5565b90506000848681518110611f1157fe5b60209081029190910181015161ffff8c1681529081018490526001604082018190526060820184905296909601959050611f4d87856000612d60565b9650611f5887612c88565b9350505050611edc565b509695505050505050565b611f756138f9565b6000611f7f612dab565b6001600160a01b03841660009081526020918252604090819020815160c081018352905464ffffffffff811682526001600160f81b031965010000000000820460f81b169382019390935260ff6601000000000000840481169282019290925261ffff600160381b84041660608201526001600160701b03196901000000000000000000840460701b166080820152600160d81b90920416151560a0820152915050919050565b6060015161ffff16151590565b61203b613723565b60006120478585612db8565b909250905080611e4b5761205b8584611529565b5095945050505050565b6000611506612e4b565b60008061207a612102565b6001600160a01b03851660009081526020828152604080832061ffff8816845290915281208054600160a81b9004600a90810b900b94509192508312156108e057600080fd5b603081901c64ffffffffff600883901c1660ff831660008060018314156120f25750600160ff604087901c1614611139565b604086901c915091939590929450565b600080610a896006612243565b6000600184141561213b5761213486868461212b57600161212f565b6000195b612e58565b90506111d0565b600b84148061214a5750600984145b806121555750600a84145b156121665761213483878787612ea1565b600c8414156121785761213486612ed4565b600080fd5b600080610a896010612243565b600080610a89600f612243565b6000806121a261241f565b6001600160a01b0384166000908152602082905260409020805491925090600160f81b900460ff16156121fe576121d7612ee7565b6001600160a01b03808616600090815260209290925260409091205416925061091e915050565b60009250505061091e565b5050919050565b6122186137bf565b600061222261280d565b61ffff8416600090815260209190915260408120549150610d2a9082612ef4565b6000620f424082602681111561225557fe5b0192915050565b600080610a896021612243565b6000806122758361195d565b6001600160a01b031663a77c05b86040518163ffffffff1660e01b8152600401604080518083038186803b1580156122ac57600080fd5b505afa1580156122c0573d6000803e3d6000fd5b505050506040513d601f19601f82011682018060405250810190610ea59190613d55565b6122ec613744565b60008060006122fc888689613013565b60c08b019290925260e08a019290925260208901519193509150612320908361311d565b602088015260808701516000901561234e57608088015161234b90612345898261312f565b90613144565b90505b61236e612363670de0b6b3a76400008361311d565b60a08a01519061315b565b60a089015250506080860194909452505082529092909150565b60008261239757506000610a89565b828202828482816123a457fe5b0414610d2a57600080fd5b60006001600160ff1b038211156123c557600080fd5b5090565b600080610a89601d612243565b600881901c60ff9091161b90565b6000610d2a6ec097ce7bc90715b34b9f1000000000611b9085600001518561296b90919063ffffffff16565b6000808212156123c557600080fd5b600080610a896002612243565b600080610a896011612243565b6000806000806000612449612102565b6001600160a01b03891660009081526020828152604080832061ffff8c168452909152902080546001600160501b0381169650600160501b900463ffffffff16945090915083156124b65780546124af90600160701b900466ffffffffffffff166123d6565b92506124cb565b8054600160701b900466ffffffffffffff1692505b80546124e6908890600160a81b9004600a90810b900b613178565b9550505093509350935093565b600080610a896003612243565b82600111158015612515575084602001518311155b6125315760405162461bcd60e51b8152600401610309906142c2565b600061254e61253f8561319f565b61254884613243565b9061311d565b9050612573866000015161ffff168284866125688b611bc8565b8a9493929190613264565b505050505050565b612583613790565b600061258d61328e565b6000858152602082815260408083208715158452825291829020825160a08101845281546001600160a01b038116825260ff600160a01b82048116151594830194909452600160b01b81048416600a0a9482019490945293945092916060830191600160a81b90910416600581111561260257fe5b8152600060209091015295945050505050565b600080610a89601f612243565b6000610d2a61263584633b9aca00612388565b8361329b565b60008083608001511161264d57600080fd5b633b9aca0082111561265e57600080fd5b8251821161268a5782516040840151612683919061267d908590612388565b9061329b565b9050610a89565b826020015182116126c25760408301518351602085015160608601516126839392612548928190039161267d91880390859003612388565b610d2a83606001516125488560200151633b9aca000361267d87606001518860800151038860200151880361238890919063ffffffff16565b60008061271a606461267d8760e001518761238890919063ffffffff16565b90508460a0015181101561272f575060a08401515b8460c00151811115612742575060c08401515b821561275957612752848261311d565b9150611e4b565b83811161276857808403610d26565b600095945050505050565b6000610d2a6127828484612388565b633b9aca0061329b565b6000806127976132ba565b60009384526020525050604090205490565b600080610a89601c612243565b6127be6137bf565b60006127c9846132c7565b61ffff8616600090815260208590526040812091925090600486106127ef5760016127f2565b60005b60ff16600281106127ff57fe5b015490506111968282612ef4565b600080610a89601b612243565b600080610a896005612243565b6060806000808467ffffffffffffffff8111801561284457600080fd5b5060405190808252806020026020018201604052801561286e578160200160208202803683370190505b50905060008567ffffffffffffffff8111801561288a57600080fd5b506040519080825280602002602001820160405280156128b4578160200160208202803683370190505b50905060005b8681101561295e578784600e81106128ce57fe5b600891828204019190066004029054906101000a900463ffffffff1663ffffffff168382815181106128fc57fe5b60209081029190910101526001909301928784600e811061291957fe5b600891828204019190066004029054906101000a900463ffffffff1663ffffffff1682828151811061294757fe5b6020908102919091010152600193840193016128ba565b5090969095509350505050565b81810260001983141561299b5781158061298d57508282828161298a57fe5b05145b61299657600080fd5b610a89565b8215806129b05750818382816129ad57fe5b05145b610a8957600080fd5b6000816000191480156129cf5750600160ff1b83145b156129d957600080fd5b8183816129e257fe5b059392505050565b6129f2613978565b6000612a018461ffff1661278c565b6040805160808101825261ffff96909616865260ff821660208701528501939093525050606082015290565b6000612a37613300565b6000868152602082815260408083208884528252808320868452825291829020808a5290890187905280546001600160501b03808216938b0193909352600160501b810490921660608a015263ffffffff600160a01b8304811660a08b0152600160c01b8304811660c08b0152600160e01b90920490911660e0890152909150808415612ad65760018201546001600160501b03166080890152612ade565b600060808901525b5050505050505050565b6000808311612af657600080fd5b81861115612b055750836111d0565b6000612b11838861312f565b905083811115612b2457859150506111d0565b6000612b308286612622565b90506000612b42633b9aca008361312f565b9050612b63633b9aca0061267d612b598a85612388565b6125488c87612388565b9998505050505050505050565b600080610a89600b612243565b600080610a89600c612243565b600080610a896004612243565b606080612ba4848461330d565b9150612baf82613425565b90509250929050565b600181901c7f5555555555555555555555555555555555555555555555555555555555555555908116911601600281901c7f3333333333333333333333333333333333333333333333333333333333333333908116911601600481901c7f07070707070707070707070707070707070707070707070707070707070707079190911601600881901c7e0f000f000f000f000f000f000f000f000f000f000f000f000f000f000f000f908116911601601081901c01602081901c01604081901c01608081901c60ff90811691160190565b600081612c975750600061091e565b612ca0826135df565b60ff036001019050919050565b600081612cb957600080fd5b610100821115612cc857600080fd5b6000612cd384613678565b90506000605a8411612cee5750620151808302019050610a89565b60878411612d16575060591983016207e900908102908206909103016276a700019050610a89565b60c38411612d3f5750608619830162278d00908102908206909103016301da9c00019050610a89565b5060c21983016276a70090810290820690910301630b1fa800019050610a89565b600060018310158015612d7557506101008311155b612d7e57600080fd5b8115612d975750600160ff1b60001983011c8317610d2a565b50600160ff1b60001983011c198316610d2a565b600080610a896001612243565b612dc0613723565b600080612dcb613694565b61ffff861660009081526020828152604080832088845290915290208054600160f01b900460ff1693509091508215612e425780546001600160501b03600160a01b8204811691612e1d911682612388565b85528154612e3b90600160501b90046001600160501b031682612388565b6020860152505b50509250929050565b600080610a896022612243565b6000613fff61ffff85161115612e6d57600080fd5b64ffffffffff831115612e7f57600080fd5b612e8984846136a1565b90506000821215610d2a57600160401b179392505050565b68010000000000000000600160e01b03604085901b1661ffff60301b603085901b1617600883901b178117949350505050565b600c60309190911b61ffff60301b161790565b600080610a896012612243565b612efc6137bf565b6064633b9aca008360ff861660208110612f1257fe5b1a0281612f1b57fe5b0481526064633b9aca008360ff861660010160208110612f3757fe5b1a0281612f4057fe5b04816020018181525050612f658260028560ff160160208110612f5f57fe5b1a6136bc565b60808201819052610100908360ff861660030160208110612f8257fe5b1a0281612f8b57fe5b0460408201526080810151610100908360ff861660040160208110612fac57fe5b1a0281612fb557fe5b0460608201526207a1208260ff851660050160208110612fd157fe5b1a0260a0820152622625a08260ff851660060160208110612fee57fe5b1a0260c08201528160ff84166007016020811061300757fe5b1a60e082015292915050565b600080600080600080613026898861198d565b8951909550919350915060009061304d90613042908b9061312f565b633b9aca0090612388565b905061308761307c6301da9c006130648585612388565b8161306b57fe5b670de0b6b3a764000091900461311d565b60e08a01519061315b565b96506130a961309e6301da9c006130648785612388565b60c08a01519061315b565b9550818314156130c057506000935061182c915050565b60006130e26130d76301da9c006130648786612388565b60e08b01519061315b565b905060006130f0898361312f565b905061310d8861267d838d6040015161238890919063ffffffff16565b9650505050505093509350935093565b600082820183811015610d2a57600080fd5b60008282111561313e57600080fd5b50900390565b6000610d2a61263584670de0b6b3a7640000612388565b6000610d2a61316a8484612388565b670de0b6b3a764000061329b565b6000808212613188575080610a89565b825160208401516126839190611b9090859061296b565b600081600114156131b457506276a70061091e565b81600214156131c7575062ed4e0061091e565b81600314156131db57506301da9c0061091e565b81600414156131ef57506303b5380061091e565b816005141561320357506309450c0061091e565b8160061415613217575063128a180061091e565b816007141561322b5750632514300061091e565b60405162461bcd60e51b81526004016103099061429b565b60006276a70082101561325557600080fd5b6276a700825b06909103919050565b60006276a70061327385613243565b01905061328587878787878787611bdc565b50505050505050565b600080610a896007612243565b60008082116132a957600080fd5b8183816132b257fe5b049392505050565b600080610a896009612243565b6000816000106132d657600080fd5b60078211156132e457600080fd5b600482106132f557600482036132f7565b815b60080292915050565b600080610a89600a612243565b606060088260ff16111561332057600080fd5b600061332a6136f0565b6001600160a01b038516600090815260208290526040812091925060ff851667ffffffffffffffff8111801561335f57600080fd5b5060405190808252806020026020018201604052801561339957816020015b6133866139a4565b81526020019060019003908161337e5790505b50905060005b8560ff1681101561205b5760008382600881106133b857fe5b01905060008383815181106133c957fe5b602090810291909101810151835461ffff8116825264ffffffffff620100008204169282019290925260ff600160381b8304166040820152600160401b909104600a90810b900b6060820152608001919091525060010161339f565b80516060908067ffffffffffffffff8111801561344157600080fd5b5060405190808252806020026020018201604052801561346b578160200160208202803683370190505b50915060005b818110156134c857600084828151811061348757fe5b602002602001015190506134a88160000151826020015183604001516136fd565b8483815181106134b457fe5b602090810291909101015250600101613471565b5060015b8181101561220957805b60008111801561350e57508381815181106134ed57fe5b602002602001015184600183038151811061350457fe5b6020026020010151115b156135d65783818151811061351f57fe5b602002602001015184600183038151811061353657fe5b602002602001015185600184038151811061354d57fe5b6020026020010186848151811061356057fe5b602002602001018281525082815250505084818151811061357d57fe5b602002602001015185600183038151811061359457fe5b60200260200101518660018403815181106135ab57fe5b602002602001018784815181106135be57fe5b602090810291909101019190915252600019016134d6565b506001016134cc565b6000816135eb57600080fd5b600160801b82106135fe57608091821c91015b600160401b821061361157604091821c91015b640100000000821061362557602091821c91015b62010000821061363757601091821c91015b610100821061364857600891821c91015b6010821061365857600491821c91015b6004821061366857600291821c91015b6002821061091e57600101919050565b60006201518082101561368a57600080fd5b620151808261325b565b600080610a89601e612243565b61ffff60301b603083901b16600882901b1760011792915050565b60008160ff166096106136d75760ff8216622625a00261091b565b5060951960ff919091160162e4e1c00263165a0bc00190565b600080610a89600d612243565b61ffff60301b603084901b1665ffffffffff00600884901b161760ff8216179392505050565b60405180606001604052806000815260200160008152602001600081525090565b6040518061012001604052806000815260200160008152602001600081526020016000815260200160008152602001600081526020016000815260200160008152602001600081525090565b6040805160a0810182526000808252602082018190529181018290529060608201908152602001600081525090565b60405180610100016040528060008152602001600081526020016000815260200160008152602001600081526020016000815260200160008152602001600081525090565b6040805161014081018252600080825260208201819052918101829052606081018290526080810182905260a0810182905260c0810182905260e08101829052610100810182905261012081019190915290565b604051806060016040528060006001600160a01b0316815260200160008152602001600081525090565b60405180610100016040528060008019168152602001600081526020016000815260200160008152602001600081526020016000815260200160008152602001600081525090565b6040518060a0016040528060008152602001600081526020016000815260200160008152602001600081525090565b6040805160c081018252600080825260208201819052918101829052606081018290526080810182905260a081019190915290565b604080518082019091526000808252602082015290565b6040518060a00160405280600061ffff168152602001600081526020016000815260200160008152602001600081525090565b6040805160808101825260008082526020820152908101613997613723565b8152600060209091015290565b6040518060c00160405280600061ffff16815260200160008152602001600081526020016000815260200160008152602001600060038111156139e357fe5b905290565b80356001600160a01b038116811461091e57600080fd5b803561ffff8116811461091e57600080fd5b80516001600160501b038116811461091e57600080fd5b600060208284031215613a39578081fd5b610d2a826139e8565b60008060408385031215613a54578081fd5b613a5d836139e8565b9150612baf602084016139ff565b600080600060608486031215613a7f578081fd5b613a88846139e8565b9250613a96602085016139ff565b9150604084013590509250925092565b60008060208385031215613ab8578182fd5b823567ffffffffffffffff80821115613acf578384fd5b818501915085601f830112613ae2578384fd5b813581811115613af0578485fd5b8660208083028501011115613b03578485fd5b60209290920196919550909350505050565b60008060408385031215613b27578182fd5b8251915060208084015167ffffffffffffffff80821115613b46578384fd5b818601915086601f830112613b59578384fd5b815181811115613b6557fe5b83810260405185828201018181108582111715613b7e57fe5b604052828152858101935084860182860187018b1015613b9c578788fd5b8795505b83861015613bbe578051855260019590950194938601938601613ba0565b508096505050505050509250929050565b600060208284031215613be0578081fd5b610d2a826139ff565b60008060408385031215613bfb578182fd5b613c04836139ff565b9150612baf602084016139e8565b60008060408385031215613c24578182fd5b613c2d836139ff565b946020939093013593505050565b600080600060608486031215613c4f578283fd5b613c58846139ff565b95602085013595506040909401359392505050565b600080600080600060a08688031215613c84578081fd5b613c8d866139ff565b94506020860135935060408601359250613ca9606087016139e8565b915060808601358015158114613cbd578182fd5b809150509295509295909350565b60008060408385031215613cdd578182fd5b613ce6836139ff565b9150602083013563ffffffff81168114613cfe578182fd5b809150509250929050565b60008060408385031215613d1b578182fd5b613d24836139ff565b9150602083013564ffffffffff81168114613cfe578182fd5b600060208284031215613d4e578081fd5b5035919050565b60008060408385031215613d67578182fd5b505080516020909101519092909150565b600080600080600060a08688031215613d8f578283fd5b613d9886613a11565b9450602086015193506040860151925060608601519150613dbb60808701613a11565b90509295509295909350565b6000815180845260208085019450808401835b83811015613df657815187529582019590820190600101613dda565b509495945050505050565b6000815180845260208085019450808401835b83811015613df657613e27878351613fe7565b610100969096019590820190600101613e14565b6000815180845260208085019450808401835b83811015613df6578151805161ffff168852838101518489015260408082015190890152606080820151908901526080808201519089015260a0908101519060048210613e9757fe5b88015260c09096019590820190600101613e4e565b805164ffffffffff1682526020808201516001600160f81b0319169083015260408082015160ff169083015260608082015161ffff16908301526080808201516001600160701b0319169083015260a0908101511515910152565b613f128282516140ea565b6020810151613f2460208401826140ea565b506040810151613f3760408401826140ea565b506060810151613f4a60608401826140ea565b506080810151613f5d60808401826140ea565b5060a0810151613f7060a08401826140ea565b5060c0810151613f8360c08401826140ea565b5060e0810151613f9660e08401826140ea565b5061010080820151613faa828501826140ea565b505061012080820151613fbf828501826140ea565b50505050565b80516001600160a01b0316825260208082015190830152604090810151910152565b805182526020810151602083015260408101516040830152606081015160608301526080810151608083015260a081015160a083015260c081015160c083015260e081015160e08301525050565b805182526020810151602083015260408101516040830152606081015160608301526080810151608083015260a081015160a083015260c081015160c083015260e081015160e08301526101008082015181840152505050565b8051825260208082015190830152604090810151910152565b80516001600160a01b03168252602080820151151590830152604080820151908301526060810151600681106140da57fe5b6060830152608090810151910152565b60ff169052565b6001600160a01b0391909116815260200190565b6001600160a01b0392831681529116602082015260400190565b6000604082526141326040830185613dc7565b8281036020840152610d268185613dc7565b6000604082526141576040830185613e01565b8281036020840152610d268185613e01565b6020808252825182820181905260009190848201906040850190845b818110156141ac57614198838551613fe7565b928401926101009290920191600101614185565b50909695505050505050565b600060208252610d2a6020830184613e3b565b6000604082526141de6040830185613e3b565b8281036020840152610d268185613e3b565b6020808252825182820181905260009190848201906040850190845b818110156141ac5783518352928401929184019160010161420c565b901515815260200190565b90815260200190565b600083825260406020830152610ea56040830184613dc7565b9283526020830191909152604082015260600190565b6020808252601690820152754e6f206e546f6b656e20666f722063757272656e637960501b604082015260600190565b6020808252600d908201526c092dcecc2d8d2c840d2dcc8caf609b1b604082015260600190565b6020808252600e908201526d125b9d985b1a59081b585c9ad95d60921b604082015260600190565b60208082526010908201526f13595d1a1bd9081b9bdd08199bdd5b9960821b604082015260600190565b602080825260139082015272125b9d985b1a590818dd5c9c995b98de481a59606a1b604082015260600190565b60208082526010908201526f151bdad95b881b9bdd081b1a5cdd195960821b604082015260600190565b60c08101610a898284613eac565b600061010080830161438b8488613eac565b60c0840191909152845190819052610120830190602090818701845b828110156143f1578151805161ffff168652848101518587015260408082015190870152606080820151908701526080908101519086015260a090940193908301906001016143a7565b5050505082810360e08401526111968185613e3b565b6101408101610a898284613f07565b6101a081016144258285613f07565b610d2a610140830184613fc5565b60006101008201905060018060a01b0380855116835260ff602086015116602084015260408501511515604084015260ff606086015116606084015260ff608086015116608084015260ff60a08601511660a08401528084511660c08401525060ff60208401511660e08301529392505050565b6101008101610a898284613fe7565b6101208101610a898284614035565b60608101610a89828461408f565b6101c081016144e2828761408f565b6144ef6060830186614035565b6101808201939093526101a0015292915050565b610140810161451282856140a8565b610d2a60a08301846140a8565b610240810161452e82876140a8565b61453b60a08301866140a8565b83516101408301526020840151610160830152604084015161018083015260608401516101a083015260808401516101c08301526111d06101e0830184613fc5565b61ffff91909116815260200190565b61ffff959095168552602085019390935260408401919091526001600160a01b031660608301521515608082015260a00190565b61ffff9890981688526020880196909652604087019490945260608601929092526001600160d01b031916608085015260a084015260c083015260e08201526101000190565b64ffffffffff91909116815260200190565b60ff9190911681526020019056fea264697066735822122055d4cbe3c21f07ac2aed4bc5730555144be4c3f48b354ba4a23f0702426f462564736f6c63430007060033","bytecodeSha1":"ae4cf4f5d95f3768b55915c6ea8c21a91617c913","compiler":{"evm_version":"istanbul","optimizer":{"enabled":true,"runs":200},"version":"0.7.6+commit.7338295f"},"contractName":"Views","deployedBytecode":"608060405234801561001057600080fd5b50600436106102f15760003560e01c80638da5cb5b1161019d578063c866a480116100e9578063e74b6e4e116100a2578063ec41a2571161007c578063ec41a257146107c5578063f5945404146107cd578063fbcbc0f1146107e0578063fc1b134514610802576102f1565b8063e74b6e4e1461077e578063e7ceffb81461079f578063ec3c0501146107b2576102f1565b8063c866a480146106ee578063ca0ee70014610701578063ca668b3c14610714578063d3ca48e814610738578063d4ccb0ed1461074b578063dd8e32ec1461076b576102f1565b80639c4e89f411610156578063b536ffb611610130578063b536ffb614610685578063b62d268a146106a5578063c3999444146106c5578063c4c96dae146106e6576102f1565b80639c4e89f41461063c578063aa94baa714610644578063b0de221714610665576102f1565b80638da5cb5b146105d55780638ecd0660146105dd578063911a56b0146105f057806394f1d1e414610603578063974b10541461061657806397f503f514610629576102f1565b8063594665b51161025c5780636e4682f711610215578063722abb86116101ef578063722abb86146105775780637eaf7f2f1461058a57806382463367146105aa57806388a73eb7146105b2576102f1565b80636e4682f714610524578063709d6c7b146105445780637154233314610564576102f1565b8063594665b5146104795780635ab759431461048c5780635eb2c1ca146104ae57806365663b59146104cf57806367c22ce5146104f05780636987a20314610503576102f1565b806324a3d622116102ae57806324a3d622146103c95780632d353221146103d1578063336ede35146103f857806339df479114610418578063497cf7e3146104385780634ebad18e14610458576102f1565b806304ccb84e146103125780631794b8ef14610330578063197a6dc0146103505780631d66d03f14610366578063206f27991461038657806324980ce0146103a9575b60405162461bcd60e51b8152600401610309906142ea565b60405180910390fd5b61031a610815565b604051610327919061457d565b60405180910390f35b61034361033e366004613aa6565b61081f565b60405161032791906141f0565b6103586108e8565b604051610327929190614105565b610379610374366004613bcf565b610907565b60405161032791906140f1565b610399610394366004613c12565b610923565b60405161032794939291906144d3565b6103bc6103b7366004613bcf565b61095a565b60405161032791906144b6565b61037961096b565b6103e46103df366004613a28565b61097a565b6040516103279897969594939291906145c0565b61040b610406366004613bcf565b6109cc565b6040516103279190614606565b61042b610426366004613be9565b610a01565b6040516103279190614233565b61044b610446366004613bcf565b610a8f565b6040516103279190614169565b61046b610466366004613bcf565b610aa4565b604051610327929190614503565b610379610487366004613bcf565b610ae0565b61049f61049a366004613bcf565b610aeb565b60405161032793929190614255565b6104c16104bc366004613bcf565b610b0f565b604051610327929190614144565b6104e26104dd366004613bcf565b610c44565b60405161032792919061411f565b61042b6104fe366004613bcf565b610c7a565b610516610511366004613bcf565b610c90565b604051610327929190614416565b610537610532366004613a28565b610cc1565b6040516103279190614228565b610557610552366004613c3b565b610cdf565b60405161032791906144a7565b61049f610572366004613c12565b610d31565b610537610585366004613a28565b610d8a565b61059d610598366004613be9565b610da8565b6040516103279190614618565b610379610de4565b6105c56105c0366004613bcf565b610df3565b604051610327949392919061451f565b610379610e5b565b61042b6105eb366004613a42565b610e72565b61042b6105fe366004613a6b565b610e8b565b61031a610611366004613a28565b610ead565b610379610624366004613bcf565b610ee7565b6104e2610637366004613bcf565b610f29565b610379610f62565b610657610652366004613a28565b610f71565b6040516103279291906141cb565b610678610673366004613a28565b610fab565b604051610327919061436b565b610698610693366004613a28565b610fbc565b60405161032791906141b8565b6106b86106b3366004613d09565b611009565b60405161032791906144c5565b6106d86106d3366004613a28565b61102c565b60405161032792919061423c565b6103586110c4565b6103796106fc366004613bcf565b6110f2565b61042b61070f366004613bcf565b611106565b610727610722366004613d3d565b61111d565b60405161032795949392919061458c565b61042b610746366004613be9565b611142565b61075e610759366004613bcf565b6111a0565b6040516103279190614407565b61042b610779366004613c6d565b6111be565b61079161078c366004613bcf565b6111d9565b604051610327929190614433565b6103796107ad366004613bcf565b6112ab565b61044b6107c0366004613ccb565b6112c6565b6103796112e1565b6105576107db366004613bcf565b6112f9565b6107f36107ee366004613a28565b61130a565b60405161032793929190614379565b61049f610810366004613be9565b61148a565b60005461ffff1690565b6060600061082b6114b2565b90508267ffffffffffffffff8111801561084457600080fd5b5060405190808252806020026020018201604052801561086e578160200160208202803683370190505b50915060005b838110156108e05781600086868481811061088b57fe5b90506020020160208101906108a09190613a28565b6001600160a01b03166001600160a01b03168152602001908152602001600020548382815181106108cd57fe5b6020908102919091010152600101610874565b505092915050565b600054600d546001600160a01b03640100000000909204821691169091565b6000610912826114bf565b61091b826114fc565b90505b919050565b61092b613723565b610933613744565b6000806109408686611529565b909450925061094f84876115e7565b949793965094505050565b610962613744565b61091b8261165e565b6002546001600160a01b031681565b60008060008060008060008061098f8961172c565b939b5091985096509094506109a5905089611798565b919850925090506109b7898942611802565b90915090505080935050919395975091939597565b6000806109d7611835565b61ffff93909316600090815260209390935250506040902054600160801b900464ffffffffff1690565b6000610a0e828442611802565b50919250610a2291505061ffff8416611842565b6001600160a01b0316826001600160a01b03161415610a89576000610a478442611868565b905060005b81518110156108e057610a7f828281518110610a6457fe5b6020026020010151606001518461192190919063ffffffff16565b9250600101610a4c565b92915050565b6060610a9a826114bf565b61091b8242611868565b610aac613790565b610ab4613790565b610abd836114bf565b610aca8361ffff16611937565b9150610ad98361ffff1661194a565b9050915091565b600061091b8261195d565b6000806000610b0284610afd8661165e565b61198d565b9250925092509193909250565b606080610b1b836114bf565b6000610b2a8461ffff16611a28565b60ff16905080610b3a5750610c3f565b8067ffffffffffffffff81118015610b5157600080fd5b50604051908082528060200260200182016040528015610b8b57816020015b610b786137bf565b815260200190600190039081610b705790505b5092508067ffffffffffffffff81118015610ba557600080fd5b50604051908082528060200260200182016040528015610bdf57816020015b610bcc6137bf565b815260200190600190039081610bc45790505b50915060015b818111610c3c57610bf68582611a3e565b846001830381518110610c0557fe5b6020026020010181905250610c1a8582611a58565b836001830381518110610c2957fe5b6020908102919091010152600101610be5565b50505b915091565b606080610c50836114bf565b6000610c5f8461ffff16611a28565b60ff169050610c728461ffff1682611a6d565b915050915091565b61ffff166000908152600c602052604090205490565b610c98613804565b610ca0613858565b610ca9836114bf565b610cb68361ffff16611a94565b9150610ad983611b1c565b6001600160a01b031660009081526008602052604090205460ff1690565b610ce7613882565b610cf0846114bf565b6000610cfb85611ba7565b9050610d05613882565b610d268661ffff1686426001610d1a87611bc8565b8694939291908a611bdc565b9150505b9392505050565b600080600080610d3f611c13565b61ffff90961660009081526020968752604080822096825295909652505050908220546001600160501b03808216840394600160501b8304821690940393600160a01b909204169150565b6001600160a01b031660009081526006602052604090205460ff1690565b600080610db3611c20565b61ffff85166000908152602091825260408082206001600160a01b0387168352909252205460ff1691505092915050565b6001546001600160a01b031681565b610dfb613790565b610e03613790565b610e0b6138ca565b610e13613858565b610e1c856114bf565b610e298561ffff16611937565b9350610e388561ffff1661194a565b9250610e478561ffff16611c2d565b9150610e5285611b1c565b90509193509193565b60005464010000000090046001600160a01b031681565b6000610e7d826114bf565b610d2a838361ffff16611d90565b6000610e96836114bf565b610ea5848461ffff1684611dc5565b949350505050565b6001600160a01b03811660009081526009602052604090205461ffff168061091e5760405162461bcd60e51b815260040161030990614341565b6000610ef2826114bf565b6000610f018361ffff16611842565b90506001600160a01b03811661091b5760405162461bcd60e51b81526004016103099061426b565b606080610f35836114bf565b6000610f448461ffff16611a28565b60ff169050610f578461ffff1682611e0a565b909590945092505050565b600b546001600160a01b031690565b6060806000806000610f828661172c565b5093509350509250610f948682611e3f565b9450610fa1868484611e53565b9350505050915091565b610fb36138f9565b61091b82611f6d565b60606000610fc983611f6d565b9050610fd481612026565b15610ffb57610ff3838260600151836000015164ffffffffff16611e53565b91505061091e565b610ff3838260400151611e3f565b611011613723565b61101a836114bf565b610d2a838364ffffffffff1642612033565b6000606073__$841fddfe32830bb6dbc3a02d7f16c53722$__636cb65eaf846040518263ffffffff1660e01b815260040161106791906140f1565b60006040518083038186803b15801561107f57600080fd5b505af4158015611093573d6000803e3d6000fd5b505050506040513d6000823e601f3d908101601f191682016040526110bb9190810190613b15565b91509150915091565b73__$841fddfe32830bb6dbc3a02d7f16c53722$__73__$b21a4dc043b77aa57922ad9143a3cb040e$__9091565b60006110fd826114bf565b61091b82612065565b6000611111826114bf565b61091b610fee8361206f565b600080600080600061112e866120c0565b945094509450945094505b91939590929450565b60008061114d612102565b6001600160a01b03841660009081526020828152604080832061ffff891684529091528120805492935091600160a81b9004600a90810b900b908112611194576000611196565b805b9695505050505050565b6111a8613804565b6111b1826114bf565b61091b8261ffff16611a94565b60006111cd868686868661210f565b90505b95945050505050565b6111e16138f9565b6111e961392e565b6111f2836114bf565b60006111fc61217d565b9050600061120861218a565b61ffff909516600081815260209384526040808220815160c08101835290546001600160a01b03808216835260ff600160a01b8084048216858b0152600160a81b84048216151585870152600160b01b840482166060860152600160b81b840482166080860152600160c01b909304811660a085015295855299875292829020825180840190935254988916825291909704909116928601929092525093915050565b6000806112bb8361ffff16611842565b9050610d2a81612197565b60606112d1836114bf565b610d2a838363ffffffff16611868565b73019be259bc299f3f653688c7655c87f998bc7bc190565b6113016137bf565b61091b82612210565b6113126138f9565b60608061131e84611f6d565b60408051600a8082526101608201909252919450816020015b61133f613945565b815260200190600190039081611337579050509150600061135f84612026565b156113b35760008360008151811061137357fe5b602090810291909101015160608601805161ffff1682525190915061139a90879042611802565b6080850152606084015260408301526020909101526001015b60808401515b6001600160701b03198116156114415760008483815181106113d757fe5b602090810291909101015160f083901c613fff168082529091506113fb5750611441565b61140a87826000015142611802565b6080850152606084015260408301526020909101526001919091019060101b6fffffffffffffffffffffffffffffffff19166113b9565b61144a85612026565b1561147057611469868660600151876000015164ffffffffff16611e53565b9250611481565b61147e868660400151611e3f565b92505b50509193909250565b6000806000611498856114bf565b6114a3848642611802565b50919790965090945092505050565b600080610a896026612243565b8061ffff1660001080156114dd575060005461ffff90811690821611155b6114f95760405162461bcd60e51b815260040161030990614314565b50565b600061150661225c565b61ffff90921660009081526020929092525060409020546001600160a01b031690565b611531613723565b611539613744565b6115428461165e565b9050828160000151101561157357600061155b85612269565b9050611569858383876122e4565b5091506115809050565b8051831461158057600080fd5b60405180606001604052806115ae6115a98460a001518560c0015161238890919063ffffffff16565b6123af565b81526020016115d16115a98460a001518560e0015161238890919063ffffffff16565b8152602001826060015181525091509250929050565b60008060006115f46123c9565b61ffff8516600090815260209190915260409020600181015490915061162690600160581b900463ffffffff166123d6565b81549093506501000000000090046affffffffffffffffffffff1661165361164e87836123e4565b612410565b925050509250929050565b611666613744565b60006116706123c9565b61ffff93841660009081526020918252604090819020805464ffffffffff811686526501000000000081046affffffffffffffffffffff908116948701949094526001820154841692860192909252600160d81b820463ffffffff166060860152600160801b9091049091166080840152600201546001600160501b0380821660a0850152600160501b8204811660c0850152600160a01b82041660e0840152600160f01b900460ff1661012c02909216610100820152919050565b60008060008060008061173d61241f565b6001600160a01b039097166000908152602097909752505060409094205461ffff81169563ffffffff620100008304811696506601000000000000830416945060ff600160501b8304169350600160581b90910460d01b9150565b6000806000806117a661242c565b6001600160a01b0395909516600090815260209590955250506040909220546bffffffffffffffffffffffff811693600160601b82046fffffffffffffffffffffffffffffffff169350600160e01b90910463ffffffff169150565b60008060008060006118148787611529565b509050611822888883612439565b9450945094509450505b93509350935093565b600080610a896025612243565b60008061184d6124f3565b6000938452602052505060409020546001600160a01b031690565b6060600061187584611ba7565b90506000816020015167ffffffffffffffff8111801561189457600080fd5b506040519080825280602002602001820160405280156118ce57816020015b6118bb613882565b8152602001906001900390816118b35790505b50905060005b8260200151811015611918576119108282815181106118ef57fe5b6020026020010151826001016001888761250090949392919063ffffffff16565b6001016118d4565b50949350505050565b81810182811215600083121514610a8957600080fd5b61193f613790565b61091b82600061257b565b611952613790565b61091b82600161257b565b600080611968612615565b61ffff939093166000908152602093909352505060409020546001600160a01b031690565b6000806000806000856020015111156119da576119d76119be8660c00151876020015161238890919063ffffffff16565b60e087015160408801516119d191612388565b90612622565b90505b60006119e587612210565b90506119f1818361263b565b94508115611a0857611a05818660016126fb565b93505b602086015115611a1f57611a1c8583612773565b92505b50509250925092565b600080611a348361278c565b60ff169392505050565b611a466137bf565b610d2a8383611a536127a9565b6127b6565b611a606137bf565b610d2a8383611a5361280d565b60606000611a7961281a565b60008581526020829052604090209091506111968185612827565b611a9c613804565b6000611aa78361278c565b9050600081601f60408051610140810190915291901a80825291506020810183601e1a815260200183601d1a815260200183601c1a815260200183601b1a815260200183601a1a81526020018360191a81526020018360181a81526020018360171a81526020018360161a9052949350505050565b611b24613858565b6000611b338361ffff1661194a565b90506000611b536402540be400836040015161296b90919063ffffffff16565b90506000611b618542611529565b50604080850151908601528051909150611b96906ec097ce7bc90715b34b9f100000000090611b90908561296b565b906129b9565b602085015250506000825250919050565b611baf613978565b6000611bbb8342611529565b509050610d2a83826129ea565b6060015161012c60089190911c60ff160290565b611be98787878685612a2d565b611c028760e001518860a001518960c001518588612ae8565b60c090970196909652505050505050565b600080610a896020612243565b600080610a896024612243565b611c356138ca565b6000611c3f61217d565b6000848152602082905260408120919250806001861415611c6c5750670de0b6b3a7640000905080611d2f565b825460408051633fabe5a360e21b815290516001600160a01b039092169163feaf968c9160048082019260a092909190829003018186803b158015611cb057600080fd5b505afa158015611cc4573d6000803e3d6000fd5b505050506040513d601f19601f82011682018060405250810190611ce89190613d78565b5091935050600083139150611cfe905057600080fd5b825460ff600160a01b82048116600a0a9350600160a81b9091041615611d2f57611d2c81611b90848061296b565b90505b8254600160b01b900460ff166096811315611d4f5760951901600a026096015b6040805160a081018252938452602084019290925290820152905460ff600160b81b820481166060840152600160c01b909104166080820152915050919050565b600080611d9b612b70565b6001600160a01b038516600090815260209182526040808220868352909252205491505092915050565b600080611dd0612b7d565b6001600160a01b03861660009081526020918252604080822087835283528082208683529092522054600f90810b900b9150509392505050565b6060806000611e17612b8a565b6000868152602082905260409020909150611e328186612827565b9097909650945050505050565b6060611e4b8383612b97565b509392505050565b60606000611e65858561ffff16611d90565b90506000611e7282612bb8565b905060008167ffffffffffffffff81118015611e8d57600080fd5b50604051908082528060200260200182016040528015611ec757816020015b611eb46139a4565b815260200190600190039081611eac5790505b509050600091506000611ed984612c88565b90505b8015611f62576000611eee8783612cad565b90506000611f018a8a61ffff1684611dc5565b90506000848681518110611f1157fe5b60209081029190910181015161ffff8c1681529081018490526001604082018190526060820184905296909601959050611f4d87856000612d60565b9650611f5887612c88565b9350505050611edc565b509695505050505050565b611f756138f9565b6000611f7f612dab565b6001600160a01b03841660009081526020918252604090819020815160c081018352905464ffffffffff811682526001600160f81b031965010000000000820460f81b169382019390935260ff6601000000000000840481169282019290925261ffff600160381b84041660608201526001600160701b03196901000000000000000000840460701b166080820152600160d81b90920416151560a0820152915050919050565b6060015161ffff16151590565b61203b613723565b60006120478585612db8565b909250905080611e4b5761205b8584611529565b5095945050505050565b6000611506612e4b565b60008061207a612102565b6001600160a01b03851660009081526020828152604080832061ffff8816845290915281208054600160a81b9004600a90810b900b94509192508312156108e057600080fd5b603081901c64ffffffffff600883901c1660ff831660008060018314156120f25750600160ff604087901c1614611139565b604086901c915091939590929450565b600080610a896006612243565b6000600184141561213b5761213486868461212b57600161212f565b6000195b612e58565b90506111d0565b600b84148061214a5750600984145b806121555750600a84145b156121665761213483878787612ea1565b600c8414156121785761213486612ed4565b600080fd5b600080610a896010612243565b600080610a89600f612243565b6000806121a261241f565b6001600160a01b0384166000908152602082905260409020805491925090600160f81b900460ff16156121fe576121d7612ee7565b6001600160a01b03808616600090815260209290925260409091205416925061091e915050565b60009250505061091e565b5050919050565b6122186137bf565b600061222261280d565b61ffff8416600090815260209190915260408120549150610d2a9082612ef4565b6000620f424082602681111561225557fe5b0192915050565b600080610a896021612243565b6000806122758361195d565b6001600160a01b031663a77c05b86040518163ffffffff1660e01b8152600401604080518083038186803b1580156122ac57600080fd5b505afa1580156122c0573d6000803e3d6000fd5b505050506040513d601f19601f82011682018060405250810190610ea59190613d55565b6122ec613744565b60008060006122fc888689613013565b60c08b019290925260e08a019290925260208901519193509150612320908361311d565b602088015260808701516000901561234e57608088015161234b90612345898261312f565b90613144565b90505b61236e612363670de0b6b3a76400008361311d565b60a08a01519061315b565b60a089015250506080860194909452505082529092909150565b60008261239757506000610a89565b828202828482816123a457fe5b0414610d2a57600080fd5b60006001600160ff1b038211156123c557600080fd5b5090565b600080610a89601d612243565b600881901c60ff9091161b90565b6000610d2a6ec097ce7bc90715b34b9f1000000000611b9085600001518561296b90919063ffffffff16565b6000808212156123c557600080fd5b600080610a896002612243565b600080610a896011612243565b6000806000806000612449612102565b6001600160a01b03891660009081526020828152604080832061ffff8c168452909152902080546001600160501b0381169650600160501b900463ffffffff16945090915083156124b65780546124af90600160701b900466ffffffffffffff166123d6565b92506124cb565b8054600160701b900466ffffffffffffff1692505b80546124e6908890600160a81b9004600a90810b900b613178565b9550505093509350935093565b600080610a896003612243565b82600111158015612515575084602001518311155b6125315760405162461bcd60e51b8152600401610309906142c2565b600061254e61253f8561319f565b61254884613243565b9061311d565b9050612573866000015161ffff168284866125688b611bc8565b8a9493929190613264565b505050505050565b612583613790565b600061258d61328e565b6000858152602082815260408083208715158452825291829020825160a08101845281546001600160a01b038116825260ff600160a01b82048116151594830194909452600160b01b81048416600a0a9482019490945293945092916060830191600160a81b90910416600581111561260257fe5b8152600060209091015295945050505050565b600080610a89601f612243565b6000610d2a61263584633b9aca00612388565b8361329b565b60008083608001511161264d57600080fd5b633b9aca0082111561265e57600080fd5b8251821161268a5782516040840151612683919061267d908590612388565b9061329b565b9050610a89565b826020015182116126c25760408301518351602085015160608601516126839392612548928190039161267d91880390859003612388565b610d2a83606001516125488560200151633b9aca000361267d87606001518860800151038860200151880361238890919063ffffffff16565b60008061271a606461267d8760e001518761238890919063ffffffff16565b90508460a0015181101561272f575060a08401515b8460c00151811115612742575060c08401515b821561275957612752848261311d565b9150611e4b565b83811161276857808403610d26565b600095945050505050565b6000610d2a6127828484612388565b633b9aca0061329b565b6000806127976132ba565b60009384526020525050604090205490565b600080610a89601c612243565b6127be6137bf565b60006127c9846132c7565b61ffff8616600090815260208590526040812091925090600486106127ef5760016127f2565b60005b60ff16600281106127ff57fe5b015490506111968282612ef4565b600080610a89601b612243565b600080610a896005612243565b6060806000808467ffffffffffffffff8111801561284457600080fd5b5060405190808252806020026020018201604052801561286e578160200160208202803683370190505b50905060008567ffffffffffffffff8111801561288a57600080fd5b506040519080825280602002602001820160405280156128b4578160200160208202803683370190505b50905060005b8681101561295e578784600e81106128ce57fe5b600891828204019190066004029054906101000a900463ffffffff1663ffffffff168382815181106128fc57fe5b60209081029190910101526001909301928784600e811061291957fe5b600891828204019190066004029054906101000a900463ffffffff1663ffffffff1682828151811061294757fe5b6020908102919091010152600193840193016128ba565b5090969095509350505050565b81810260001983141561299b5781158061298d57508282828161298a57fe5b05145b61299657600080fd5b610a89565b8215806129b05750818382816129ad57fe5b05145b610a8957600080fd5b6000816000191480156129cf5750600160ff1b83145b156129d957600080fd5b8183816129e257fe5b059392505050565b6129f2613978565b6000612a018461ffff1661278c565b6040805160808101825261ffff96909616865260ff821660208701528501939093525050606082015290565b6000612a37613300565b6000868152602082815260408083208884528252808320868452825291829020808a5290890187905280546001600160501b03808216938b0193909352600160501b810490921660608a015263ffffffff600160a01b8304811660a08b0152600160c01b8304811660c08b0152600160e01b90920490911660e0890152909150808415612ad65760018201546001600160501b03166080890152612ade565b600060808901525b5050505050505050565b6000808311612af657600080fd5b81861115612b055750836111d0565b6000612b11838861312f565b905083811115612b2457859150506111d0565b6000612b308286612622565b90506000612b42633b9aca008361312f565b9050612b63633b9aca0061267d612b598a85612388565b6125488c87612388565b9998505050505050505050565b600080610a89600b612243565b600080610a89600c612243565b600080610a896004612243565b606080612ba4848461330d565b9150612baf82613425565b90509250929050565b600181901c7f5555555555555555555555555555555555555555555555555555555555555555908116911601600281901c7f3333333333333333333333333333333333333333333333333333333333333333908116911601600481901c7f07070707070707070707070707070707070707070707070707070707070707079190911601600881901c7e0f000f000f000f000f000f000f000f000f000f000f000f000f000f000f000f908116911601601081901c01602081901c01604081901c01608081901c60ff90811691160190565b600081612c975750600061091e565b612ca0826135df565b60ff036001019050919050565b600081612cb957600080fd5b610100821115612cc857600080fd5b6000612cd384613678565b90506000605a8411612cee5750620151808302019050610a89565b60878411612d16575060591983016207e900908102908206909103016276a700019050610a89565b60c38411612d3f5750608619830162278d00908102908206909103016301da9c00019050610a89565b5060c21983016276a70090810290820690910301630b1fa800019050610a89565b600060018310158015612d7557506101008311155b612d7e57600080fd5b8115612d975750600160ff1b60001983011c8317610d2a565b50600160ff1b60001983011c198316610d2a565b600080610a896001612243565b612dc0613723565b600080612dcb613694565b61ffff861660009081526020828152604080832088845290915290208054600160f01b900460ff1693509091508215612e425780546001600160501b03600160a01b8204811691612e1d911682612388565b85528154612e3b90600160501b90046001600160501b031682612388565b6020860152505b50509250929050565b600080610a896022612243565b6000613fff61ffff85161115612e6d57600080fd5b64ffffffffff831115612e7f57600080fd5b612e8984846136a1565b90506000821215610d2a57600160401b179392505050565b68010000000000000000600160e01b03604085901b1661ffff60301b603085901b1617600883901b178117949350505050565b600c60309190911b61ffff60301b161790565b600080610a896012612243565b612efc6137bf565b6064633b9aca008360ff861660208110612f1257fe5b1a0281612f1b57fe5b0481526064633b9aca008360ff861660010160208110612f3757fe5b1a0281612f4057fe5b04816020018181525050612f658260028560ff160160208110612f5f57fe5b1a6136bc565b60808201819052610100908360ff861660030160208110612f8257fe5b1a0281612f8b57fe5b0460408201526080810151610100908360ff861660040160208110612fac57fe5b1a0281612fb557fe5b0460608201526207a1208260ff851660050160208110612fd157fe5b1a0260a0820152622625a08260ff851660060160208110612fee57fe5b1a0260c08201528160ff84166007016020811061300757fe5b1a60e082015292915050565b600080600080600080613026898861198d565b8951909550919350915060009061304d90613042908b9061312f565b633b9aca0090612388565b905061308761307c6301da9c006130648585612388565b8161306b57fe5b670de0b6b3a764000091900461311d565b60e08a01519061315b565b96506130a961309e6301da9c006130648785612388565b60c08a01519061315b565b9550818314156130c057506000935061182c915050565b60006130e26130d76301da9c006130648786612388565b60e08b01519061315b565b905060006130f0898361312f565b905061310d8861267d838d6040015161238890919063ffffffff16565b9650505050505093509350935093565b600082820183811015610d2a57600080fd5b60008282111561313e57600080fd5b50900390565b6000610d2a61263584670de0b6b3a7640000612388565b6000610d2a61316a8484612388565b670de0b6b3a764000061329b565b6000808212613188575080610a89565b825160208401516126839190611b9090859061296b565b600081600114156131b457506276a70061091e565b81600214156131c7575062ed4e0061091e565b81600314156131db57506301da9c0061091e565b81600414156131ef57506303b5380061091e565b816005141561320357506309450c0061091e565b8160061415613217575063128a180061091e565b816007141561322b5750632514300061091e565b60405162461bcd60e51b81526004016103099061429b565b60006276a70082101561325557600080fd5b6276a700825b06909103919050565b60006276a70061327385613243565b01905061328587878787878787611bdc565b50505050505050565b600080610a896007612243565b60008082116132a957600080fd5b8183816132b257fe5b049392505050565b600080610a896009612243565b6000816000106132d657600080fd5b60078211156132e457600080fd5b600482106132f557600482036132f7565b815b60080292915050565b600080610a89600a612243565b606060088260ff16111561332057600080fd5b600061332a6136f0565b6001600160a01b038516600090815260208290526040812091925060ff851667ffffffffffffffff8111801561335f57600080fd5b5060405190808252806020026020018201604052801561339957816020015b6133866139a4565b81526020019060019003908161337e5790505b50905060005b8560ff1681101561205b5760008382600881106133b857fe5b01905060008383815181106133c957fe5b602090810291909101810151835461ffff8116825264ffffffffff620100008204169282019290925260ff600160381b8304166040820152600160401b909104600a90810b900b6060820152608001919091525060010161339f565b80516060908067ffffffffffffffff8111801561344157600080fd5b5060405190808252806020026020018201604052801561346b578160200160208202803683370190505b50915060005b818110156134c857600084828151811061348757fe5b602002602001015190506134a88160000151826020015183604001516136fd565b8483815181106134b457fe5b602090810291909101015250600101613471565b5060015b8181101561220957805b60008111801561350e57508381815181106134ed57fe5b602002602001015184600183038151811061350457fe5b6020026020010151115b156135d65783818151811061351f57fe5b602002602001015184600183038151811061353657fe5b602002602001015185600184038151811061354d57fe5b6020026020010186848151811061356057fe5b602002602001018281525082815250505084818151811061357d57fe5b602002602001015185600183038151811061359457fe5b60200260200101518660018403815181106135ab57fe5b602002602001018784815181106135be57fe5b602090810291909101019190915252600019016134d6565b506001016134cc565b6000816135eb57600080fd5b600160801b82106135fe57608091821c91015b600160401b821061361157604091821c91015b640100000000821061362557602091821c91015b62010000821061363757601091821c91015b610100821061364857600891821c91015b6010821061365857600491821c91015b6004821061366857600291821c91015b6002821061091e57600101919050565b60006201518082101561368a57600080fd5b620151808261325b565b600080610a89601e612243565b61ffff60301b603083901b16600882901b1760011792915050565b60008160ff166096106136d75760ff8216622625a00261091b565b5060951960ff919091160162e4e1c00263165a0bc00190565b600080610a89600d612243565b61ffff60301b603084901b1665ffffffffff00600884901b161760ff8216179392505050565b60405180606001604052806000815260200160008152602001600081525090565b6040518061012001604052806000815260200160008152602001600081526020016000815260200160008152602001600081526020016000815260200160008152602001600081525090565b6040805160a0810182526000808252602082018190529181018290529060608201908152602001600081525090565b60405180610100016040528060008152602001600081526020016000815260200160008152602001600081526020016000815260200160008152602001600081525090565b6040805161014081018252600080825260208201819052918101829052606081018290526080810182905260a0810182905260c0810182905260e08101829052610100810182905261012081019190915290565b604051806060016040528060006001600160a01b0316815260200160008152602001600081525090565b60405180610100016040528060008019168152602001600081526020016000815260200160008152602001600081526020016000815260200160008152602001600081525090565b6040518060a0016040528060008152602001600081526020016000815260200160008152602001600081525090565b6040805160c081018252600080825260208201819052918101829052606081018290526080810182905260a081019190915290565b604080518082019091526000808252602082015290565b6040518060a00160405280600061ffff168152602001600081526020016000815260200160008152602001600081525090565b6040805160808101825260008082526020820152908101613997613723565b8152600060209091015290565b6040518060c00160405280600061ffff16815260200160008152602001600081526020016000815260200160008152602001600060038111156139e357fe5b905290565b80356001600160a01b038116811461091e57600080fd5b803561ffff8116811461091e57600080fd5b80516001600160501b038116811461091e57600080fd5b600060208284031215613a39578081fd5b610d2a826139e8565b60008060408385031215613a54578081fd5b613a5d836139e8565b9150612baf602084016139ff565b600080600060608486031215613a7f578081fd5b613a88846139e8565b9250613a96602085016139ff565b9150604084013590509250925092565b60008060208385031215613ab8578182fd5b823567ffffffffffffffff80821115613acf578384fd5b818501915085601f830112613ae2578384fd5b813581811115613af0578485fd5b8660208083028501011115613b03578485fd5b60209290920196919550909350505050565b60008060408385031215613b27578182fd5b8251915060208084015167ffffffffffffffff80821115613b46578384fd5b818601915086601f830112613b59578384fd5b815181811115613b6557fe5b83810260405185828201018181108582111715613b7e57fe5b604052828152858101935084860182860187018b1015613b9c578788fd5b8795505b83861015613bbe578051855260019590950194938601938601613ba0565b508096505050505050509250929050565b600060208284031215613be0578081fd5b610d2a826139ff565b60008060408385031215613bfb578182fd5b613c04836139ff565b9150612baf602084016139e8565b60008060408385031215613c24578182fd5b613c2d836139ff565b946020939093013593505050565b600080600060608486031215613c4f578283fd5b613c58846139ff565b95602085013595506040909401359392505050565b600080600080600060a08688031215613c84578081fd5b613c8d866139ff565b94506020860135935060408601359250613ca9606087016139e8565b915060808601358015158114613cbd578182fd5b809150509295509295909350565b60008060408385031215613cdd578182fd5b613ce6836139ff565b9150602083013563ffffffff81168114613cfe578182fd5b809150509250929050565b60008060408385031215613d1b578182fd5b613d24836139ff565b9150602083013564ffffffffff81168114613cfe578182fd5b600060208284031215613d4e578081fd5b5035919050565b60008060408385031215613d67578182fd5b505080516020909101519092909150565b600080600080600060a08688031215613d8f578283fd5b613d9886613a11565b9450602086015193506040860151925060608601519150613dbb60808701613a11565b90509295509295909350565b6000815180845260208085019450808401835b83811015613df657815187529582019590820190600101613dda565b509495945050505050565b6000815180845260208085019450808401835b83811015613df657613e27878351613fe7565b610100969096019590820190600101613e14565b6000815180845260208085019450808401835b83811015613df6578151805161ffff168852838101518489015260408082015190890152606080820151908901526080808201519089015260a0908101519060048210613e9757fe5b88015260c09096019590820190600101613e4e565b805164ffffffffff1682526020808201516001600160f81b0319169083015260408082015160ff169083015260608082015161ffff16908301526080808201516001600160701b0319169083015260a0908101511515910152565b613f128282516140ea565b6020810151613f2460208401826140ea565b506040810151613f3760408401826140ea565b506060810151613f4a60608401826140ea565b506080810151613f5d60808401826140ea565b5060a0810151613f7060a08401826140ea565b5060c0810151613f8360c08401826140ea565b5060e0810151613f9660e08401826140ea565b5061010080820151613faa828501826140ea565b505061012080820151613fbf828501826140ea565b50505050565b80516001600160a01b0316825260208082015190830152604090810151910152565b805182526020810151602083015260408101516040830152606081015160608301526080810151608083015260a081015160a083015260c081015160c083015260e081015160e08301525050565b805182526020810151602083015260408101516040830152606081015160608301526080810151608083015260a081015160a083015260c081015160c083015260e081015160e08301526101008082015181840152505050565b8051825260208082015190830152604090810151910152565b80516001600160a01b03168252602080820151151590830152604080820151908301526060810151600681106140da57fe5b6060830152608090810151910152565b60ff169052565b6001600160a01b0391909116815260200190565b6001600160a01b0392831681529116602082015260400190565b6000604082526141326040830185613dc7565b8281036020840152610d268185613dc7565b6000604082526141576040830185613e01565b8281036020840152610d268185613e01565b6020808252825182820181905260009190848201906040850190845b818110156141ac57614198838551613fe7565b928401926101009290920191600101614185565b50909695505050505050565b600060208252610d2a6020830184613e3b565b6000604082526141de6040830185613e3b565b8281036020840152610d268185613e3b565b6020808252825182820181905260009190848201906040850190845b818110156141ac5783518352928401929184019160010161420c565b901515815260200190565b90815260200190565b600083825260406020830152610ea56040830184613dc7565b9283526020830191909152604082015260600190565b6020808252601690820152754e6f206e546f6b656e20666f722063757272656e637960501b604082015260600190565b6020808252600d908201526c092dcecc2d8d2c840d2dcc8caf609b1b604082015260600190565b6020808252600e908201526d125b9d985b1a59081b585c9ad95d60921b604082015260600190565b60208082526010908201526f13595d1a1bd9081b9bdd08199bdd5b9960821b604082015260600190565b602080825260139082015272125b9d985b1a590818dd5c9c995b98de481a59606a1b604082015260600190565b60208082526010908201526f151bdad95b881b9bdd081b1a5cdd195960821b604082015260600190565b60c08101610a898284613eac565b600061010080830161438b8488613eac565b60c0840191909152845190819052610120830190602090818701845b828110156143f1578151805161ffff168652848101518587015260408082015190870152606080820151908701526080908101519086015260a090940193908301906001016143a7565b5050505082810360e08401526111968185613e3b565b6101408101610a898284613f07565b6101a081016144258285613f07565b610d2a610140830184613fc5565b60006101008201905060018060a01b0380855116835260ff602086015116602084015260408501511515604084015260ff606086015116606084015260ff608086015116608084015260ff60a08601511660a08401528084511660c08401525060ff60208401511660e08301529392505050565b6101008101610a898284613fe7565b6101208101610a898284614035565b60608101610a89828461408f565b6101c081016144e2828761408f565b6144ef6060830186614035565b6101808201939093526101a0015292915050565b610140810161451282856140a8565b610d2a60a08301846140a8565b610240810161452e82876140a8565b61453b60a08301866140a8565b83516101408301526020840151610160830152604084015161018083015260608401516101a083015260808401516101c08301526111d06101e0830184613fc5565b61ffff91909116815260200190565b61ffff959095168552602085019390935260408401919091526001600160a01b031660608301521515608082015260a00190565b61ffff9890981688526020880196909652604087019490945260608601929092526001600160d01b031916608085015260a084015260c083015260e08201526101000190565b64ffffffffff91909116815260200190565b60ff9190911681526020019056fea264697066735822122055d4cbe3c21f07ac2aed4bc5730555144be4c3f48b354ba4a23f0702426f462564736f6c63430007060033","language":"Solidity","natspec":{"kind":"dev","methods":{"getAccount(address)":{"notice":"Returns all account details in a single view"},"getAccountBalance(uint16,address)":{"notice":"Returns account balances for a given currency"},"getAccountContext(address)":{"notice":"Returns account context"},"getAccountPortfolio(address)":{"notice":"Returns account portfolio of assets"},"getActiveMarkets(uint16)":{"notice":"Returns all currently active markets for a currency"},"getActiveMarketsAtBlockTime(uint16,uint32)":{"notice":"Returns all active markets for a currency at the specified block time, useful for looking at historical markets"},"getAssetsBitmap(address,uint16)":{"notice":"Returns the assets bitmap for an account"},"getBalanceOfPrimeCash(uint16,address)":{"notice":"Returns the balance of figure for prime cash for the prime cash proxy, the logic is slightly modified for the nToken account because it needs to return the sum of all cash held in markets."},"getCashGroup(uint16)":{"notice":"Returns cash group settings for a currency"},"getCashGroupAndAssetRate(uint16)":{"notice":"Returns the cash group along with the asset rate for convenience."},"getCurrency(uint16)":{"notice":"Returns the asset token and underlying token related to a given currency id. If underlying token is not set then will return the zero address"},"getCurrencyAndRates(uint16)":{"notice":"Returns a currency and its corresponding asset rate and ETH exchange rates. Note that this does not recalculate cToken interest rates, it only retrieves the latest stored rate."},"getCurrencyId(address)":{"notice":"Returns a currency id, a zero means that it is not listed."},"getDepositParameters(uint16)":{"notice":"Returns nToken deposit parameters for a given currency"},"getFreeCollateral(address)":{"notice":"Returns free collateral of an account along with an array of the individual net available asset cash amounts"},"getInitializationParameters(uint16)":{"notice":"Returns market initialization parameters for a given currency"},"getLibInfo()":{"notice":"Get a list of deployed library addresses (sorted by library name)"},"getMarket(uint16,uint256,uint256)":{"notice":"Returns a single market"},"getMaxCurrencyId()":{"notice":"Returns the current maximum currency id"},"getNoteToken()":{"notice":"Returns address of the NOTE token"},"getOwnershipStatus()":{"notice":"Returns current ownership status of the contract","returns":{"_0":"owner is the current owner of the Notional system","_1":"pendingOwner can claim ownership from the owner"}},"getPrimeFactors(uint16,uint256)":{"notice":"Global System State View Methods *"},"getRateStorage(uint16)":{"notice":"Returns the ETH and Asset rates for a currency as stored, useful for viewing how they are configured"},"getReserveBalance(uint16)":{"notice":"Returns the current reserve balance for a currency"},"getReserveBuffer(uint16)":{"notice":"Returns the current reserve buffer for a currency","params":{"currencyId":"refers to the currency of the reserve"}},"getSettlementRate(uint16,uint40)":{"notice":"Returns the asset settlement rate for a given maturity"},"getTreasuryManager()":{"notice":"Returns the current treasury manager contract"},"getfCashNotional(address,uint16,uint256)":{"notice":"Returns the fCash amount at the specified maturity for a bitmapped portfolio"},"nTokenAddress(uint16)":{"notice":"Returns nToken address for a given currency"},"pCashAddress(uint16)":{"notice":"Returns pCash address for a given currency"}},"version":1},"opcodes":"PUSH1 0x80 PUSH1 0x40 MSTORE CALLVALUE DUP1 ISZERO PUSH2 0x10 JUMPI PUSH1 0x0 DUP1 REVERT JUMPDEST POP PUSH1 0x4 CALLDATASIZE LT PUSH2 0x2F1 JUMPI PUSH1 0x0 CALLDATALOAD PUSH1 0xE0 SHR DUP1 PUSH4 0x8DA5CB5B GT PUSH2 0x19D JUMPI DUP1 PUSH4 0xC866A480 GT PUSH2 0xE9 JUMPI DUP1 PUSH4 0xE74B6E4E GT PUSH2 0xA2 JUMPI DUP1 PUSH4 0xEC41A257 GT PUSH2 0x7C JUMPI DUP1 PUSH4 0xEC41A257 EQ PUSH2 0x7C5 JUMPI DUP1 PUSH4 0xF5945404 EQ PUSH2 0x7CD JUMPI DUP1 PUSH4 0xFBCBC0F1 EQ PUSH2 0x7E0 JUMPI DUP1 PUSH4 0xFC1B1345 EQ PUSH2 0x802 JUMPI PUSH2 0x2F1 JUMP JUMPDEST DUP1 PUSH4 0xE74B6E4E EQ PUSH2 0x77E JUMPI DUP1 PUSH4 0xE7CEFFB8 EQ PUSH2 0x79F JUMPI DUP1 PUSH4 0xEC3C0501 EQ PUSH2 0x7B2 JUMPI PUSH2 0x2F1 JUMP JUMPDEST DUP1 PUSH4 0xC866A480 EQ PUSH2 0x6EE JUMPI DUP1 PUSH4 0xCA0EE700 EQ PUSH2 0x701 JUMPI DUP1 PUSH4 0xCA668B3C EQ PUSH2 0x714 JUMPI DUP1 PUSH4 0xD3CA48E8 EQ PUSH2 0x738 JUMPI DUP1 PUSH4 0xD4CCB0ED EQ PUSH2 0x74B JUMPI DUP1 PUSH4 0xDD8E32EC EQ PUSH2 0x76B JUMPI PUSH2 0x2F1 JUMP JUMPDEST DUP1 PUSH4 0x9C4E89F4 GT PUSH2 0x156 JUMPI DUP1 PUSH4 0xB536FFB6 GT PUSH2 0x130 JUMPI DUP1 PUSH4 0xB536FFB6 EQ PUSH2 0x685 JUMPI DUP1 PUSH4 0xB62D268A EQ PUSH2 0x6A5 JUMPI DUP1 PUSH4 0xC3999444 EQ PUSH2 0x6C5 JUMPI DUP1 PUSH4 0xC4C96DAE EQ PUSH2 0x6E6 JUMPI PUSH2 0x2F1 JUMP JUMPDEST DUP1 PUSH4 0x9C4E89F4 EQ PUSH2 0x63C JUMPI DUP1 PUSH4 0xAA94BAA7 EQ PUSH2 0x644 JUMPI DUP1 PUSH4 0xB0DE2217 EQ PUSH2 0x665 JUMPI PUSH2 0x2F1 JUMP JUMPDEST DUP1 PUSH4 0x8DA5CB5B EQ PUSH2 0x5D5 JUMPI DUP1 PUSH4 0x8ECD0660 EQ PUSH2 0x5DD JUMPI DUP1 PUSH4 0x911A56B0 EQ PUSH2 0x5F0 JUMPI DUP1 PUSH4 0x94F1D1E4 EQ PUSH2 0x603 JUMPI DUP1 PUSH4 0x974B1054 EQ PUSH2 0x616 JUMPI DUP1 PUSH4 0x97F503F5 EQ PUSH2 0x629 JUMPI PUSH2 0x2F1 JUMP JUMPDEST DUP1 PUSH4 0x594665B5 GT PUSH2 0x25C JUMPI DUP1 PUSH4 0x6E4682F7 GT PUSH2 0x215 JUMPI DUP1 PUSH4 0x722ABB86 GT PUSH2 0x1EF JUMPI DUP1 PUSH4 0x722ABB86 EQ PUSH2 0x577 JUMPI DUP1 PUSH4 0x7EAF7F2F EQ PUSH2 0x58A JUMPI DUP1 PUSH4 0x82463367 EQ PUSH2 0x5AA JUMPI DUP1 PUSH4 0x88A73EB7 EQ PUSH2 0x5B2 JUMPI PUSH2 0x2F1 JUMP JUMPDEST DUP1 PUSH4 0x6E4682F7 EQ PUSH2 0x524 JUMPI DUP1 PUSH4 0x709D6C7B EQ PUSH2 0x544 JUMPI DUP1 PUSH4 0x71542333 EQ PUSH2 0x564 JUMPI PUSH2 0x2F1 JUMP JUMPDEST DUP1 PUSH4 0x594665B5 EQ PUSH2 0x479 JUMPI DUP1 PUSH4 0x5AB75943 EQ PUSH2 0x48C JUMPI DUP1 PUSH4 0x5EB2C1CA EQ PUSH2 0x4AE JUMPI DUP1 PUSH4 0x65663B59 EQ PUSH2 0x4CF JUMPI DUP1 PUSH4 0x67C22CE5 EQ PUSH2 0x4F0 JUMPI DUP1 PUSH4 0x6987A203 EQ PUSH2 0x503 JUMPI PUSH2 0x2F1 JUMP JUMPDEST DUP1 PUSH4 0x24A3D622 GT PUSH2 0x2AE JUMPI DUP1 PUSH4 0x24A3D622 EQ PUSH2 0x3C9 JUMPI DUP1 PUSH4 0x2D353221 EQ PUSH2 0x3D1 JUMPI DUP1 PUSH4 0x336EDE35 EQ PUSH2 0x3F8 JUMPI DUP1 PUSH4 0x39DF4791 EQ PUSH2 0x418 JUMPI DUP1 PUSH4 0x497CF7E3 EQ PUSH2 0x438 JUMPI DUP1 PUSH4 0x4EBAD18E EQ PUSH2 0x458 JUMPI PUSH2 0x2F1 JUMP JUMPDEST DUP1 PUSH4 0x4CCB84E EQ PUSH2 0x312 JUMPI DUP1 PUSH4 0x1794B8EF EQ PUSH2 0x330 JUMPI DUP1 PUSH4 0x197A6DC0 EQ PUSH2 0x350 JUMPI DUP1 PUSH4 0x1D66D03F EQ PUSH2 0x366 JUMPI DUP1 PUSH4 0x206F2799 EQ PUSH2 0x386 JUMPI DUP1 PUSH4 0x24980CE0 EQ PUSH2 0x3A9 JUMPI JUMPDEST PUSH1 0x40 MLOAD PUSH3 0x461BCD PUSH1 0xE5 SHL DUP2 MSTORE PUSH1 0x4 ADD PUSH2 0x309 SWAP1 PUSH2 0x42EA JUMP JUMPDEST PUSH1 0x40 MLOAD DUP1 SWAP2 SUB SWAP1 REVERT JUMPDEST PUSH2 0x31A PUSH2 0x815 JUMP JUMPDEST PUSH1 0x40 MLOAD PUSH2 0x327 SWAP2 SWAP1 PUSH2 0x457D JUMP JUMPDEST PUSH1 0x40 MLOAD DUP1 SWAP2 SUB SWAP1 RETURN JUMPDEST PUSH2 0x343 PUSH2 0x33E CALLDATASIZE PUSH1 0x4 PUSH2 0x3AA6 JUMP JUMPDEST PUSH2 0x81F JUMP JUMPDEST PUSH1 0x40 MLOAD PUSH2 0x327 SWAP2 SWAP1 PUSH2 0x41F0 JUMP JUMPDEST PUSH2 0x358 PUSH2 0x8E8 JUMP JUMPDEST PUSH1 0x40 MLOAD PUSH2 0x327 SWAP3 SWAP2 SWAP1 PUSH2 0x4105 JUMP JUMPDEST PUSH2 0x379 PUSH2 0x374 CALLDATASIZE PUSH1 0x4 PUSH2 0x3BCF JUMP JUMPDEST PUSH2 0x907 JUMP JUMPDEST PUSH1 0x40 MLOAD PUSH2 0x327 SWAP2 SWAP1 PUSH2 0x40F1 JUMP JUMPDEST PUSH2 0x399 PUSH2 0x394 CALLDATASIZE PUSH1 0x4 PUSH2 0x3C12 JUMP JUMPDEST PUSH2 0x923 JUMP JUMPDEST PUSH1 0x40 MLOAD PUSH2 0x327 SWAP5 SWAP4 SWAP3 SWAP2 SWAP1 PUSH2 0x44D3 JUMP JUMPDEST PUSH2 0x3BC PUSH2 0x3B7 CALLDATASIZE PUSH1 0x4 PUSH2 0x3BCF JUMP JUMPDEST PUSH2 0x95A JUMP JUMPDEST PUSH1 0x40 MLOAD PUSH2 0x327 SWAP2 SWAP1 PUSH2 0x44B6 JUMP JUMPDEST PUSH2 0x379 PUSH2 0x96B JUMP JUMPDEST PUSH2 0x3E4 PUSH2 0x3DF CALLDATASIZE PUSH1 0x4 PUSH2 0x3A28 JUMP JUMPDEST PUSH2 0x97A JUMP JUMPDEST PUSH1 0x40 MLOAD PUSH2 0x327 SWAP9 SWAP8 SWAP7 SWAP6 SWAP5 SWAP4 SWAP3 SWAP2 SWAP1 PUSH2 0x45C0 JUMP JUMPDEST PUSH2 0x40B PUSH2 0x406 CALLDATASIZE PUSH1 0x4 PUSH2 0x3BCF JUMP JUMPDEST PUSH2 0x9CC JUMP JUMPDEST PUSH1 0x40 MLOAD PUSH2 0x327 SWAP2 SWAP1 PUSH2 0x4606 JUMP JUMPDEST PUSH2 0x42B PUSH2 0x426 CALLDATASIZE PUSH1 0x4 PUSH2 0x3BE9 JUMP JUMPDEST PUSH2 0xA01 JUMP JUMPDEST PUSH1 0x40 MLOAD PUSH2 0x327 SWAP2 SWAP1 PUSH2 0x4233 JUMP JUMPDEST PUSH2 0x44B PUSH2 0x446 CALLDATASIZE PUSH1 0x4 PUSH2 0x3BCF JUMP JUMPDEST PUSH2 0xA8F JUMP JUMPDEST PUSH1 0x40 MLOAD PUSH2 0x327 SWAP2 SWAP1 PUSH2 0x4169 JUMP JUMPDEST PUSH2 0x46B PUSH2 0x466 CALLDATASIZE PUSH1 0x4 PUSH2 0x3BCF JUMP JUMPDEST PUSH2 0xAA4 JUMP JUMPDEST PUSH1 0x40 MLOAD PUSH2 0x327 SWAP3 SWAP2 SWAP1 PUSH2 0x4503 JUMP JUMPDEST PUSH2 0x379 PUSH2 0x487 CALLDATASIZE PUSH1 0x4 PUSH2 0x3BCF JUMP JUMPDEST PUSH2 0xAE0 JUMP JUMPDEST PUSH2 0x49F PUSH2 0x49A CALLDATASIZE PUSH1 0x4 PUSH2 0x3BCF JUMP JUMPDEST PUSH2 0xAEB JUMP JUMPDEST PUSH1 0x40 MLOAD PUSH2 0x327 SWAP4 SWAP3 SWAP2 SWAP1 PUSH2 0x4255 JUMP JUMPDEST PUSH2 0x4C1 PUSH2 0x4BC CALLDATASIZE PUSH1 0x4 PUSH2 0x3BCF JUMP JUMPDEST PUSH2 0xB0F JUMP JUMPDEST PUSH1 0x40 MLOAD PUSH2 0x327 SWAP3 SWAP2 SWAP1 PUSH2 0x4144 JUMP JUMPDEST PUSH2 0x4E2 PUSH2 0x4DD CALLDATASIZE PUSH1 0x4 PUSH2 0x3BCF JUMP JUMPDEST PUSH2 0xC44 JUMP JUMPDEST PUSH1 0x40 MLOAD PUSH2 0x327 SWAP3 SWAP2 SWAP1 PUSH2 0x411F JUMP JUMPDEST PUSH2 0x42B PUSH2 0x4FE CALLDATASIZE PUSH1 0x4 PUSH2 0x3BCF JUMP JUMPDEST PUSH2 0xC7A JUMP JUMPDEST PUSH2 0x516 PUSH2 0x511 CALLDATASIZE PUSH1 0x4 PUSH2 0x3BCF JUMP JUMPDEST PUSH2 0xC90 JUMP JUMPDEST PUSH1 0x40 MLOAD PUSH2 0x327 SWAP3 SWAP2 SWAP1 PUSH2 0x4416 JUMP JUMPDEST PUSH2 0x537 PUSH2 0x532 CALLDATASIZE PUSH1 0x4 PUSH2 0x3A28 JUMP JUMPDEST PUSH2 0xCC1 JUMP JUMPDEST PUSH1 0x40 MLOAD PUSH2 0x327 SWAP2 SWAP1 PUSH2 0x4228 JUMP JUMPDEST PUSH2 0x557 PUSH2 0x552 CALLDATASIZE PUSH1 0x4 PUSH2 0x3C3B JUMP JUMPDEST PUSH2 0xCDF JUMP JUMPDEST PUSH1 0x40 MLOAD PUSH2 0x327 SWAP2 SWAP1 PUSH2 0x44A7 JUMP JUMPDEST PUSH2 0x49F PUSH2 0x572 CALLDATASIZE PUSH1 0x4 PUSH2 0x3C12 JUMP JUMPDEST PUSH2 0xD31 JUMP JUMPDEST PUSH2 0x537 PUSH2 0x585 CALLDATASIZE PUSH1 0x4 PUSH2 0x3A28 JUMP JUMPDEST PUSH2 0xD8A JUMP JUMPDEST PUSH2 0x59D PUSH2 0x598 CALLDATASIZE PUSH1 0x4 PUSH2 0x3BE9 JUMP JUMPDEST PUSH2 0xDA8 JUMP JUMPDEST PUSH1 0x40 MLOAD PUSH2 0x327 SWAP2 SWAP1 PUSH2 0x4618 JUMP JUMPDEST PUSH2 0x379 PUSH2 0xDE4 JUMP JUMPDEST PUSH2 0x5C5 PUSH2 0x5C0 CALLDATASIZE PUSH1 0x4 PUSH2 0x3BCF JUMP JUMPDEST PUSH2 0xDF3 JUMP JUMPDEST PUSH1 0x40 MLOAD PUSH2 0x327 SWAP5 SWAP4 SWAP3 SWAP2 SWAP1 PUSH2 0x451F JUMP JUMPDEST PUSH2 0x379 PUSH2 0xE5B JUMP JUMPDEST PUSH2 0x42B PUSH2 0x5EB CALLDATASIZE PUSH1 0x4 PUSH2 0x3A42 JUMP JUMPDEST PUSH2 0xE72 JUMP JUMPDEST PUSH2 0x42B PUSH2 0x5FE CALLDATASIZE PUSH1 0x4 PUSH2 0x3A6B JUMP JUMPDEST PUSH2 0xE8B JUMP JUMPDEST PUSH2 0x31A PUSH2 0x611 CALLDATASIZE PUSH1 0x4 PUSH2 0x3A28 JUMP JUMPDEST PUSH2 0xEAD JUMP JUMPDEST PUSH2 0x379 PUSH2 0x624 CALLDATASIZE PUSH1 0x4 PUSH2 0x3BCF JUMP JUMPDEST PUSH2 0xEE7 JUMP JUMPDEST PUSH2 0x4E2 PUSH2 0x637 CALLDATASIZE PUSH1 0x4 PUSH2 0x3BCF JUMP JUMPDEST PUSH2 0xF29 JUMP JUMPDEST PUSH2 0x379 PUSH2 0xF62 JUMP JUMPDEST PUSH2 0x657 PUSH2 0x652 CALLDATASIZE PUSH1 0x4 PUSH2 0x3A28 JUMP JUMPDEST PUSH2 0xF71 JUMP JUMPDEST PUSH1 0x40 MLOAD PUSH2 0x327 SWAP3 SWAP2 SWAP1 PUSH2 0x41CB JUMP JUMPDEST PUSH2 0x678 PUSH2 0x673 CALLDATASIZE PUSH1 0x4 PUSH2 0x3A28 JUMP JUMPDEST PUSH2 0xFAB JUMP JUMPDEST PUSH1 0x40 MLOAD PUSH2 0x327 SWAP2 SWAP1 PUSH2 0x436B JUMP JUMPDEST PUSH2 0x698 PUSH2 0x693 CALLDATASIZE PUSH1 0x4 PUSH2 0x3A28 JUMP JUMPDEST PUSH2 0xFBC JUMP JUMPDEST PUSH1 0x40 MLOAD PUSH2 0x327 SWAP2 SWAP1 PUSH2 0x41B8 JUMP JUMPDEST PUSH2 0x6B8 PUSH2 0x6B3 CALLDATASIZE PUSH1 0x4 PUSH2 0x3D09 JUMP JUMPDEST PUSH2 0x1009 JUMP JUMPDEST PUSH1 0x40 MLOAD PUSH2 0x327 SWAP2 SWAP1 PUSH2 0x44C5 JUMP JUMPDEST PUSH2 0x6D8 PUSH2 0x6D3 CALLDATASIZE PUSH1 0x4 PUSH2 0x3A28 JUMP JUMPDEST PUSH2 0x102C JUMP JUMPDEST PUSH1 0x40 MLOAD PUSH2 0x327 SWAP3 SWAP2 SWAP1 PUSH2 0x423C JUMP JUMPDEST PUSH2 0x358 PUSH2 0x10C4 JUMP JUMPDEST PUSH2 0x379 PUSH2 0x6FC CALLDATASIZE PUSH1 0x4 PUSH2 0x3BCF JUMP JUMPDEST PUSH2 0x10F2 JUMP JUMPDEST PUSH2 0x42B PUSH2 0x70F CALLDATASIZE PUSH1 0x4 PUSH2 0x3BCF JUMP JUMPDEST PUSH2 0x1106 JUMP JUMPDEST PUSH2 0x727 PUSH2 0x722 CALLDATASIZE PUSH1 0x4 PUSH2 0x3D3D JUMP JUMPDEST PUSH2 0x111D JUMP JUMPDEST PUSH1 0x40 MLOAD PUSH2 0x327 SWAP6 SWAP5 SWAP4 SWAP3 SWAP2 SWAP1 PUSH2 0x458C JUMP JUMPDEST PUSH2 0x42B PUSH2 0x746 CALLDATASIZE PUSH1 0x4 PUSH2 0x3BE9 JUMP JUMPDEST PUSH2 0x1142 JUMP JUMPDEST PUSH2 0x75E PUSH2 0x759 CALLDATASIZE PUSH1 0x4 PUSH2 0x3BCF JUMP JUMPDEST PUSH2 0x11A0 JUMP JUMPDEST PUSH1 0x40 MLOAD PUSH2 0x327 SWAP2 SWAP1 PUSH2 0x4407 JUMP JUMPDEST PUSH2 0x42B PUSH2 0x779 CALLDATASIZE PUSH1 0x4 PUSH2 0x3C6D JUMP JUMPDEST PUSH2 0x11BE JUMP JUMPDEST PUSH2 0x791 PUSH2 0x78C CALLDATASIZE PUSH1 0x4 PUSH2 0x3BCF JUMP JUMPDEST PUSH2 0x11D9 JUMP JUMPDEST PUSH1 0x40 MLOAD PUSH2 0x327 SWAP3 SWAP2 SWAP1 PUSH2 0x4433 JUMP JUMPDEST PUSH2 0x379 PUSH2 0x7AD CALLDATASIZE PUSH1 0x4 PUSH2 0x3BCF JUMP JUMPDEST PUSH2 0x12AB JUMP JUMPDEST PUSH2 0x44B PUSH2 0x7C0 CALLDATASIZE PUSH1 0x4 PUSH2 0x3CCB JUMP JUMPDEST PUSH2 0x12C6 JUMP JUMPDEST PUSH2 0x379 PUSH2 0x12E1 JUMP JUMPDEST PUSH2 0x557 PUSH2 0x7DB CALLDATASIZE PUSH1 0x4 PUSH2 0x3BCF JUMP JUMPDEST PUSH2 0x12F9 JUMP JUMPDEST PUSH2 0x7F3 PUSH2 0x7EE CALLDATASIZE PUSH1 0x4 PUSH2 0x3A28 JUMP JUMPDEST PUSH2 0x130A JUMP JUMPDEST PUSH1 0x40 MLOAD PUSH2 0x327 SWAP4 SWAP3 SWAP2 SWAP1 PUSH2 0x4379 JUMP JUMPDEST PUSH2 0x49F PUSH2 0x810 CALLDATASIZE PUSH1 0x4 PUSH2 0x3BE9 JUMP JUMPDEST PUSH2 0x148A JUMP JUMPDEST PUSH1 0x0 SLOAD PUSH2 0xFFFF AND SWAP1 JUMP JUMPDEST PUSH1 0x60 PUSH1 0x0 PUSH2 0x82B PUSH2 0x14B2 JUMP JUMPDEST SWAP1 POP DUP3 PUSH8 0xFFFFFFFFFFFFFFFF DUP2 GT DUP1 ISZERO PUSH2 0x844 JUMPI PUSH1 0x0 DUP1 REVERT JUMPDEST POP PUSH1 0x40 MLOAD SWAP1 DUP1 DUP3 MSTORE DUP1 PUSH1 0x20 MUL PUSH1 0x20 ADD DUP3 ADD PUSH1 0x40 MSTORE DUP1 ISZERO PUSH2 0x86E JUMPI DUP2 PUSH1 0x20 ADD PUSH1 0x20 DUP3 MUL DUP1 CALLDATASIZE DUP4 CALLDATACOPY ADD SWAP1 POP JUMPDEST POP SWAP2 POP PUSH1 0x0 JUMPDEST DUP4 DUP2 LT ISZERO PUSH2 0x8E0 JUMPI DUP2 PUSH1 0x0 DUP7 DUP7 DUP5 DUP2 DUP2 LT PUSH2 0x88B JUMPI INVALID JUMPDEST SWAP1 POP PUSH1 0x20 MUL ADD PUSH1 0x20 DUP2 ADD SWAP1 PUSH2 0x8A0 SWAP2 SWAP1 PUSH2 0x3A28 JUMP JUMPDEST PUSH1 0x1 PUSH1 0x1 PUSH1 0xA0 SHL SUB AND PUSH1 0x1 PUSH1 0x1 PUSH1 0xA0 SHL SUB AND DUP2 MSTORE PUSH1 0x20 ADD SWAP1 DUP2 MSTORE PUSH1 0x20 ADD PUSH1 0x0 KECCAK256 SLOAD DUP4 DUP3 DUP2 MLOAD DUP2 LT PUSH2 0x8CD JUMPI INVALID JUMPDEST PUSH1 0x20 SWAP1 DUP2 MUL SWAP2 SWAP1 SWAP2 ADD ADD MSTORE PUSH1 0x1 ADD PUSH2 0x874 JUMP JUMPDEST POP POP SWAP3 SWAP2 POP POP JUMP JUMPDEST PUSH1 0x0 SLOAD PUSH1 0xD SLOAD PUSH1 0x1 PUSH1 0x1 PUSH1 0xA0 SHL SUB PUSH5 0x100000000 SWAP1 SWAP3 DIV DUP3 AND SWAP2 AND SWAP1 SWAP2 JUMP JUMPDEST PUSH1 0x0 PUSH2 0x912 DUP3 PUSH2 0x14BF JUMP JUMPDEST PUSH2 0x91B DUP3 PUSH2 0x14FC JUMP JUMPDEST SWAP1 POP JUMPDEST SWAP2 SWAP1 POP JUMP JUMPDEST PUSH2 0x92B PUSH2 0x3723 JUMP JUMPDEST PUSH2 0x933 PUSH2 0x3744 JUMP JUMPDEST PUSH1 0x0 DUP1 PUSH2 0x940 DUP7 DUP7 PUSH2 0x1529 JUMP JUMPDEST SWAP1 SWAP5 POP SWAP3 POP PUSH2 0x94F DUP5 DUP8 PUSH2 0x15E7 JUMP JUMPDEST SWAP5 SWAP8 SWAP4 SWAP7 POP SWAP5 POP POP POP JUMP JUMPDEST PUSH2 0x962 PUSH2 0x3744 JUMP JUMPDEST PUSH2 0x91B DUP3 PUSH2 0x165E JUMP JUMPDEST PUSH1 0x2 SLOAD PUSH1 0x1 PUSH1 0x1 PUSH1 0xA0 SHL SUB AND DUP2 JUMP JUMPDEST PUSH1 0x0 DUP1 PUSH1 0x0 DUP1 PUSH1 0x0 DUP1 PUSH1 0x0 DUP1 PUSH2 0x98F DUP10 PUSH2 0x172C JUMP JUMPDEST SWAP4 SWAP12 POP SWAP2 SWAP9 POP SWAP7 POP SWAP1 SWAP5 POP PUSH2 0x9A5 SWAP1 POP DUP10 PUSH2 0x1798 JUMP JUMPDEST SWAP2 SWAP9 POP SWAP3 POP SWAP1 POP PUSH2 0x9B7 DUP10 DUP10 TIMESTAMP PUSH2 0x1802 JUMP JUMPDEST SWAP1 SWAP2 POP SWAP1 POP POP DUP1 SWAP4 POP POP SWAP2 SWAP4 SWAP6 SWAP8 POP SWAP2 SWAP4 SWAP6 SWAP8 JUMP JUMPDEST PUSH1 0x0 DUP1 PUSH2 0x9D7 PUSH2 0x1835 JUMP JUMPDEST PUSH2 0xFFFF SWAP4 SWAP1 SWAP4 AND PUSH1 0x0 SWAP1 DUP2 MSTORE PUSH1 0x20 SWAP4 SWAP1 SWAP4 MSTORE POP POP PUSH1 0x40 SWAP1 KECCAK256 SLOAD PUSH1 0x1 PUSH1 0x80 SHL SWAP1 DIV PUSH5 0xFFFFFFFFFF AND SWAP1 JUMP JUMPDEST PUSH1 0x0 PUSH2 0xA0E DUP3 DUP5 TIMESTAMP PUSH2 0x1802 JUMP JUMPDEST POP SWAP2 SWAP3 POP PUSH2 0xA22 SWAP2 POP POP PUSH2 0xFFFF DUP5 AND PUSH2 0x1842 JUMP JUMPDEST PUSH1 0x1 PUSH1 0x1 PUSH1 0xA0 SHL SUB AND DUP3 PUSH1 0x1 PUSH1 0x1 PUSH1 0xA0 SHL SUB AND EQ ISZERO PUSH2 0xA89 JUMPI PUSH1 0x0 PUSH2 0xA47 DUP5 TIMESTAMP PUSH2 0x1868 JUMP JUMPDEST SWAP1 POP PUSH1 0x0 JUMPDEST DUP2 MLOAD DUP2 LT ISZERO PUSH2 0x8E0 JUMPI PUSH2 0xA7F DUP3 DUP3 DUP2 MLOAD DUP2 LT PUSH2 0xA64 JUMPI INVALID JUMPDEST PUSH1 0x20 MUL PUSH1 0x20 ADD ADD MLOAD PUSH1 0x60 ADD MLOAD DUP5 PUSH2 0x1921 SWAP1 SWAP2 SWAP1 PUSH4 0xFFFFFFFF AND JUMP JUMPDEST SWAP3 POP PUSH1 0x1 ADD PUSH2 0xA4C JUMP JUMPDEST SWAP3 SWAP2 POP POP JUMP JUMPDEST PUSH1 0x60 PUSH2 0xA9A DUP3 PUSH2 0x14BF JUMP JUMPDEST PUSH2 0x91B DUP3 TIMESTAMP PUSH2 0x1868 JUMP JUMPDEST PUSH2 0xAAC PUSH2 0x3790 JUMP JUMPDEST PUSH2 0xAB4 PUSH2 0x3790 JUMP JUMPDEST PUSH2 0xABD DUP4 PUSH2 0x14BF JUMP JUMPDEST PUSH2 0xACA DUP4 PUSH2 0xFFFF AND PUSH2 0x1937 JUMP JUMPDEST SWAP2 POP PUSH2 0xAD9 DUP4 PUSH2 0xFFFF AND PUSH2 0x194A JUMP JUMPDEST SWAP1 POP SWAP2 POP SWAP2 JUMP JUMPDEST PUSH1 0x0 PUSH2 0x91B DUP3 PUSH2 0x195D JUMP JUMPDEST PUSH1 0x0 DUP1 PUSH1 0x0 PUSH2 0xB02 DUP5 PUSH2 0xAFD DUP7 PUSH2 0x165E JUMP JUMPDEST PUSH2 0x198D JUMP JUMPDEST SWAP3 POP SWAP3 POP SWAP3 POP SWAP2 SWAP4 SWAP1 SWAP3 POP JUMP JUMPDEST PUSH1 0x60 DUP1 PUSH2 0xB1B DUP4 PUSH2 0x14BF JUMP JUMPDEST PUSH1 0x0 PUSH2 0xB2A DUP5 PUSH2 0xFFFF AND PUSH2 0x1A28 JUMP JUMPDEST PUSH1 0xFF AND SWAP1 POP DUP1 PUSH2 0xB3A JUMPI POP PUSH2 0xC3F JUMP JUMPDEST DUP1 PUSH8 0xFFFFFFFFFFFFFFFF DUP2 GT DUP1 ISZERO PUSH2 0xB51 JUMPI PUSH1 0x0 DUP1 REVERT JUMPDEST POP PUSH1 0x40 MLOAD SWAP1 DUP1 DUP3 MSTORE DUP1 PUSH1 0x20 MUL PUSH1 0x20 ADD DUP3 ADD PUSH1 0x40 MSTORE DUP1 ISZERO PUSH2 0xB8B JUMPI DUP2 PUSH1 0x20 ADD JUMPDEST PUSH2 0xB78 PUSH2 0x37BF JUMP JUMPDEST DUP2 MSTORE PUSH1 0x20 ADD SWAP1 PUSH1 0x1 SWAP1 SUB SWAP1 DUP2 PUSH2 0xB70 JUMPI SWAP1 POP JUMPDEST POP SWAP3 POP DUP1 PUSH8 0xFFFFFFFFFFFFFFFF DUP2 GT DUP1 ISZERO PUSH2 0xBA5 JUMPI PUSH1 0x0 DUP1 REVERT JUMPDEST POP PUSH1 0x40 MLOAD SWAP1 DUP1 DUP3 MSTORE DUP1 PUSH1 0x20 MUL PUSH1 0x20 ADD DUP3 ADD PUSH1 0x40 MSTORE DUP1 ISZERO PUSH2 0xBDF JUMPI DUP2 PUSH1 0x20 ADD JUMPDEST PUSH2 0xBCC PUSH2 0x37BF JUMP JUMPDEST DUP2 MSTORE PUSH1 0x20 ADD SWAP1 PUSH1 0x1 SWAP1 SUB SWAP1 DUP2 PUSH2 0xBC4 JUMPI SWAP1 POP JUMPDEST POP SWAP2 POP PUSH1 0x1 JUMPDEST DUP2 DUP2 GT PUSH2 0xC3C JUMPI PUSH2 0xBF6 DUP6 DUP3 PUSH2 0x1A3E JUMP JUMPDEST DUP5 PUSH1 0x1 DUP4 SUB DUP2 MLOAD DUP2 LT PUSH2 0xC05 JUMPI INVALID JUMPDEST PUSH1 0x20 MUL PUSH1 0x20 ADD ADD DUP2 SWAP1 MSTORE POP PUSH2 0xC1A DUP6 DUP3 PUSH2 0x1A58 JUMP JUMPDEST DUP4 PUSH1 0x1 DUP4 SUB DUP2 MLOAD DUP2 LT PUSH2 0xC29 JUMPI INVALID JUMPDEST PUSH1 0x20 SWAP1 DUP2 MUL SWAP2 SWAP1 SWAP2 ADD ADD MSTORE PUSH1 0x1 ADD PUSH2 0xBE5 JUMP JUMPDEST POP POP JUMPDEST SWAP2 POP SWAP2 JUMP JUMPDEST PUSH1 0x60 DUP1 PUSH2 0xC50 DUP4 PUSH2 0x14BF JUMP JUMPDEST PUSH1 0x0 PUSH2 0xC5F DUP5 PUSH2 0xFFFF AND PUSH2 0x1A28 JUMP JUMPDEST PUSH1 0xFF AND SWAP1 POP PUSH2 0xC72 DUP5 PUSH2 0xFFFF AND DUP3 PUSH2 0x1A6D JUMP JUMPDEST SWAP2 POP POP SWAP2 POP SWAP2 JUMP JUMPDEST PUSH2 0xFFFF AND PUSH1 0x0 SWAP1 DUP2 MSTORE PUSH1 0xC PUSH1 0x20 MSTORE PUSH1 0x40 SWAP1 KECCAK256 SLOAD SWAP1 JUMP JUMPDEST PUSH2 0xC98 PUSH2 0x3804 JUMP JUMPDEST PUSH2 0xCA0 PUSH2 0x3858 JUMP JUMPDEST PUSH2 0xCA9 DUP4 PUSH2 0x14BF JUMP JUMPDEST PUSH2 0xCB6 DUP4 PUSH2 0xFFFF AND PUSH2 0x1A94 JUMP JUMPDEST SWAP2 POP PUSH2 0xAD9 DUP4 PUSH2 0x1B1C JUMP JUMPDEST PUSH1 0x1 PUSH1 0x1 PUSH1 0xA0 SHL SUB AND PUSH1 0x0 SWAP1 DUP2 MSTORE PUSH1 0x8 PUSH1 0x20 MSTORE PUSH1 0x40 SWAP1 KECCAK256 SLOAD PUSH1 0xFF AND SWAP1 JUMP JUMPDEST PUSH2 0xCE7 PUSH2 0x3882 JUMP JUMPDEST PUSH2 0xCF0 DUP5 PUSH2 0x14BF JUMP JUMPDEST PUSH1 0x0 PUSH2 0xCFB DUP6 PUSH2 0x1BA7 JUMP JUMPDEST SWAP1 POP PUSH2 0xD05 PUSH2 0x3882 JUMP JUMPDEST PUSH2 0xD26 DUP7 PUSH2 0xFFFF AND DUP7 TIMESTAMP PUSH1 0x1 PUSH2 0xD1A DUP8 PUSH2 0x1BC8 JUMP JUMPDEST DUP7 SWAP5 SWAP4 SWAP3 SWAP2 SWAP1 DUP11 PUSH2 0x1BDC JUMP JUMPDEST SWAP2 POP POP JUMPDEST SWAP4 SWAP3 POP POP POP JUMP JUMPDEST PUSH1 0x0 DUP1 PUSH1 0x0 DUP1 PUSH2 0xD3F PUSH2 0x1C13 JUMP JUMPDEST PUSH2 0xFFFF SWAP1 SWAP7 AND PUSH1 0x0 SWAP1 DUP2 MSTORE PUSH1 0x20 SWAP7 DUP8 MSTORE PUSH1 0x40 DUP1 DUP3 KECCAK256 SWAP7 DUP3 MSTORE SWAP6 SWAP1 SWAP7 MSTORE POP POP POP SWAP1 DUP3 KECCAK256 SLOAD PUSH1 0x1 PUSH1 0x1 PUSH1 0x50 SHL SUB DUP1 DUP3 AND DUP5 SUB SWAP5 PUSH1 0x1 PUSH1 0x50 SHL DUP4 DIV DUP3 AND SWAP1 SWAP5 SUB SWAP4 PUSH1 0x1 PUSH1 0xA0 SHL SWAP1 SWAP3 DIV AND SWAP2 POP JUMP JUMPDEST PUSH1 0x1 PUSH1 0x1 PUSH1 0xA0 SHL SUB AND PUSH1 0x0 SWAP1 DUP2 MSTORE PUSH1 0x6 PUSH1 0x20 MSTORE PUSH1 0x40 SWAP1 KECCAK256 SLOAD PUSH1 0xFF AND SWAP1 JUMP JUMPDEST PUSH1 0x0 DUP1 PUSH2 0xDB3 PUSH2 0x1C20 JUMP JUMPDEST PUSH2 0xFFFF DUP6 AND PUSH1 0x0 SWAP1 DUP2 MSTORE PUSH1 0x20 SWAP2 DUP3 MSTORE PUSH1 0x40 DUP1 DUP3 KECCAK256 PUSH1 0x1 PUSH1 0x1 PUSH1 0xA0 SHL SUB DUP8 AND DUP4 MSTORE SWAP1 SWAP3 MSTORE KECCAK256 SLOAD PUSH1 0xFF AND SWAP2 POP POP SWAP3 SWAP2 POP POP JUMP JUMPDEST PUSH1 0x1 SLOAD PUSH1 0x1 PUSH1 0x1 PUSH1 0xA0 SHL SUB AND DUP2 JUMP JUMPDEST PUSH2 0xDFB PUSH2 0x3790 JUMP JUMPDEST PUSH2 0xE03 PUSH2 0x3790 JUMP JUMPDEST PUSH2 0xE0B PUSH2 0x38CA JUMP JUMPDEST PUSH2 0xE13 PUSH2 0x3858 JUMP JUMPDEST PUSH2 0xE1C DUP6 PUSH2 0x14BF JUMP JUMPDEST PUSH2 0xE29 DUP6 PUSH2 0xFFFF AND PUSH2 0x1937 JUMP JUMPDEST SWAP4 POP PUSH2 0xE38 DUP6 PUSH2 0xFFFF AND PUSH2 0x194A JUMP JUMPDEST SWAP3 POP PUSH2 0xE47 DUP6 PUSH2 0xFFFF AND PUSH2 0x1C2D JUMP JUMPDEST SWAP2 POP PUSH2 0xE52 DUP6 PUSH2 0x1B1C JUMP JUMPDEST SWAP1 POP SWAP2 SWAP4 POP SWAP2 SWAP4 JUMP JUMPDEST PUSH1 0x0 SLOAD PUSH5 0x100000000 SWAP1 DIV PUSH1 0x1 PUSH1 0x1 PUSH1 0xA0 SHL SUB AND DUP2 JUMP JUMPDEST PUSH1 0x0 PUSH2 0xE7D DUP3 PUSH2 0x14BF JUMP JUMPDEST PUSH2 0xD2A DUP4 DUP4 PUSH2 0xFFFF AND PUSH2 0x1D90 JUMP JUMPDEST PUSH1 0x0 PUSH2 0xE96 DUP4 PUSH2 0x14BF JUMP JUMPDEST PUSH2 0xEA5 DUP5 DUP5 PUSH2 0xFFFF AND DUP5 PUSH2 0x1DC5 JUMP JUMPDEST SWAP5 SWAP4 POP POP POP POP JUMP JUMPDEST PUSH1 0x1 PUSH1 0x1 PUSH1 0xA0 SHL SUB DUP2 AND PUSH1 0x0 SWAP1 DUP2 MSTORE PUSH1 0x9 PUSH1 0x20 MSTORE PUSH1 0x40 SWAP1 KECCAK256 SLOAD PUSH2 0xFFFF AND DUP1 PUSH2 0x91E JUMPI PUSH1 0x40 MLOAD PUSH3 0x461BCD PUSH1 0xE5 SHL DUP2 MSTORE PUSH1 0x4 ADD PUSH2 0x309 SWAP1 PUSH2 0x4341 JUMP JUMPDEST PUSH1 0x0 PUSH2 0xEF2 DUP3 PUSH2 0x14BF JUMP JUMPDEST PUSH1 0x0 PUSH2 0xF01 DUP4 PUSH2 0xFFFF AND PUSH2 0x1842 JUMP JUMPDEST SWAP1 POP PUSH1 0x1 PUSH1 0x1 PUSH1 0xA0 SHL SUB DUP2 AND PUSH2 0x91B JUMPI PUSH1 0x40 MLOAD PUSH3 0x461BCD PUSH1 0xE5 SHL DUP2 MSTORE PUSH1 0x4 ADD PUSH2 0x309 SWAP1 PUSH2 0x426B JUMP JUMPDEST PUSH1 0x60 DUP1 PUSH2 0xF35 DUP4 PUSH2 0x14BF JUMP JUMPDEST PUSH1 0x0 PUSH2 0xF44 DUP5 PUSH2 0xFFFF AND PUSH2 0x1A28 JUMP JUMPDEST PUSH1 0xFF AND SWAP1 POP PUSH2 0xF57 DUP5 PUSH2 0xFFFF AND DUP3 PUSH2 0x1E0A JUMP JUMPDEST SWAP1 SWAP6 SWAP1 SWAP5 POP SWAP3 POP POP POP JUMP JUMPDEST PUSH1 0xB SLOAD PUSH1 0x1 PUSH1 0x1 PUSH1 0xA0 SHL SUB AND SWAP1 JUMP JUMPDEST PUSH1 0x60 DUP1 PUSH1 0x0 DUP1 PUSH1 0x0 PUSH2 0xF82 DUP7 PUSH2 0x172C JUMP JUMPDEST POP SWAP4 POP SWAP4 POP POP SWAP3 POP PUSH2 0xF94 DUP7 DUP3 PUSH2 0x1E3F JUMP JUMPDEST SWAP5 POP PUSH2 0xFA1 DUP7 DUP5 DUP5 PUSH2 0x1E53 JUMP JUMPDEST SWAP4 POP POP POP POP SWAP2 POP SWAP2 JUMP JUMPDEST PUSH2 0xFB3 PUSH2 0x38F9 JUMP JUMPDEST PUSH2 0x91B DUP3 PUSH2 0x1F6D JUMP JUMPDEST PUSH1 0x60 PUSH1 0x0 PUSH2 0xFC9 DUP4 PUSH2 0x1F6D JUMP JUMPDEST SWAP1 POP PUSH2 0xFD4 DUP2 PUSH2 0x2026 JUMP JUMPDEST ISZERO PUSH2 0xFFB JUMPI PUSH2 0xFF3 DUP4 DUP3 PUSH1 0x60 ADD MLOAD DUP4 PUSH1 0x0 ADD MLOAD PUSH5 0xFFFFFFFFFF AND PUSH2 0x1E53 JUMP JUMPDEST SWAP2 POP POP PUSH2 0x91E JUMP JUMPDEST PUSH2 0xFF3 DUP4 DUP3 PUSH1 0x40 ADD MLOAD PUSH2 0x1E3F JUMP JUMPDEST PUSH2 0x1011 PUSH2 0x3723 JUMP JUMPDEST PUSH2 0x101A DUP4 PUSH2 0x14BF JUMP JUMPDEST PUSH2 0xD2A DUP4 DUP4 PUSH5 0xFFFFFFFFFF AND TIMESTAMP PUSH2 0x2033 JUMP JUMPDEST PUSH1 0x0 PUSH1 0x60 PUSH20 0x0 PUSH4 0x6CB65EAF DUP5 PUSH1 0x40 MLOAD DUP3 PUSH4 0xFFFFFFFF AND PUSH1 0xE0 SHL DUP2 MSTORE PUSH1 0x4 ADD PUSH2 0x1067 SWAP2 SWAP1 PUSH2 0x40F1 JUMP JUMPDEST PUSH1 0x0 PUSH1 0x40 MLOAD DUP1 DUP4 SUB DUP2 DUP7 DUP1 EXTCODESIZE ISZERO DUP1 ISZERO PUSH2 0x107F JUMPI PUSH1 0x0 DUP1 REVERT JUMPDEST POP GAS DELEGATECALL ISZERO DUP1 ISZERO PUSH2 0x1093 JUMPI RETURNDATASIZE PUSH1 0x0 DUP1 RETURNDATACOPY RETURNDATASIZE PUSH1 0x0 REVERT JUMPDEST POP POP POP POP PUSH1 0x40 MLOAD RETURNDATASIZE PUSH1 0x0 DUP3 RETURNDATACOPY PUSH1 0x1F RETURNDATASIZE SWAP1 DUP2 ADD PUSH1 0x1F NOT AND DUP3 ADD PUSH1 0x40 MSTORE PUSH2 0x10BB SWAP2 SWAP1 DUP2 ADD SWAP1 PUSH2 0x3B15 JUMP JUMPDEST SWAP2 POP SWAP2 POP SWAP2 POP SWAP2 JUMP JUMPDEST PUSH20 0x0 PUSH20 0x0 SWAP1 SWAP2 JUMP JUMPDEST PUSH1 0x0 PUSH2 0x10FD DUP3 PUSH2 0x14BF JUMP JUMPDEST PUSH2 0x91B DUP3 PUSH2 0x2065 JUMP JUMPDEST PUSH1 0x0 PUSH2 0x1111 DUP3 PUSH2 0x14BF JUMP JUMPDEST PUSH2 0x91B PUSH2 0xFEE DUP4 PUSH2 0x206F JUMP JUMPDEST PUSH1 0x0 DUP1 PUSH1 0x0 DUP1 PUSH1 0x0 PUSH2 0x112E DUP7 PUSH2 0x20C0 JUMP JUMPDEST SWAP5 POP SWAP5 POP SWAP5 POP SWAP5 POP SWAP5 POP JUMPDEST SWAP2 SWAP4 SWAP6 SWAP1 SWAP3 SWAP5 POP JUMP JUMPDEST PUSH1 0x0 DUP1 PUSH2 0x114D PUSH2 0x2102 JUMP JUMPDEST PUSH1 0x1 PUSH1 0x1 PUSH1 0xA0 SHL SUB DUP5 AND PUSH1 0x0 SWAP1 DUP2 MSTORE PUSH1 0x20 DUP3 DUP2 MSTORE PUSH1 0x40 DUP1 DUP4 KECCAK256 PUSH2 0xFFFF DUP10 AND DUP5 MSTORE SWAP1 SWAP2 MSTORE DUP2 KECCAK256 DUP1 SLOAD SWAP3 SWAP4 POP SWAP2 PUSH1 0x1 PUSH1 0xA8 SHL SWAP1 DIV PUSH1 0xA SWAP1 DUP2 SIGNEXTEND SWAP1 SIGNEXTEND SWAP1 DUP2 SLT PUSH2 0x1194 JUMPI PUSH1 0x0 PUSH2 0x1196 JUMP JUMPDEST DUP1 JUMPDEST SWAP7 SWAP6 POP POP POP POP POP POP JUMP JUMPDEST PUSH2 0x11A8 PUSH2 0x3804 JUMP JUMPDEST PUSH2 0x11B1 DUP3 PUSH2 0x14BF JUMP JUMPDEST PUSH2 0x91B DUP3 PUSH2 0xFFFF AND PUSH2 0x1A94 JUMP JUMPDEST PUSH1 0x0 PUSH2 0x11CD DUP7 DUP7 DUP7 DUP7 DUP7 PUSH2 0x210F JUMP JUMPDEST SWAP1 POP JUMPDEST SWAP6 SWAP5 POP POP POP POP POP JUMP JUMPDEST PUSH2 0x11E1 PUSH2 0x38F9 JUMP JUMPDEST PUSH2 0x11E9 PUSH2 0x392E JUMP JUMPDEST PUSH2 0x11F2 DUP4 PUSH2 0x14BF JUMP JUMPDEST PUSH1 0x0 PUSH2 0x11FC PUSH2 0x217D JUMP JUMPDEST SWAP1 POP PUSH1 0x0 PUSH2 0x1208 PUSH2 0x218A JUMP JUMPDEST PUSH2 0xFFFF SWAP1 SWAP6 AND PUSH1 0x0 DUP2 DUP2 MSTORE PUSH1 0x20 SWAP4 DUP5 MSTORE PUSH1 0x40 DUP1 DUP3 KECCAK256 DUP2 MLOAD PUSH1 0xC0 DUP2 ADD DUP4 MSTORE SWAP1 SLOAD PUSH1 0x1 PUSH1 0x1 PUSH1 0xA0 SHL SUB DUP1 DUP3 AND DUP4 MSTORE PUSH1 0xFF PUSH1 0x1 PUSH1 0xA0 SHL DUP1 DUP5 DIV DUP3 AND DUP6 DUP12 ADD MSTORE PUSH1 0x1 PUSH1 0xA8 SHL DUP5 DIV DUP3 AND ISZERO ISZERO DUP6 DUP8 ADD MSTORE PUSH1 0x1 PUSH1 0xB0 SHL DUP5 DIV DUP3 AND PUSH1 0x60 DUP7 ADD MSTORE PUSH1 0x1 PUSH1 0xB8 SHL DUP5 DIV DUP3 AND PUSH1 0x80 DUP7 ADD MSTORE PUSH1 0x1 PUSH1 0xC0 SHL SWAP1 SWAP4 DIV DUP2 AND PUSH1 0xA0 DUP6 ADD MSTORE SWAP6 DUP6 MSTORE SWAP10 DUP8 MSTORE SWAP3 DUP3 SWAP1 KECCAK256 DUP3 MLOAD DUP1 DUP5 ADD SWAP1 SWAP4 MSTORE SLOAD SWAP9 DUP10 AND DUP3 MSTORE SWAP2 SWAP1 SWAP8 DIV SWAP1 SWAP2 AND SWAP3 DUP7 ADD SWAP3 SWAP1 SWAP3 MSTORE POP SWAP4 SWAP2 POP POP JUMP JUMPDEST PUSH1 0x0 DUP1 PUSH2 0x12BB DUP4 PUSH2 0xFFFF AND PUSH2 0x1842 JUMP JUMPDEST SWAP1 POP PUSH2 0xD2A DUP2 PUSH2 0x2197 JUMP JUMPDEST PUSH1 0x60 PUSH2 0x12D1 DUP4 PUSH2 0x14BF JUMP JUMPDEST PUSH2 0xD2A DUP4 DUP4 PUSH4 0xFFFFFFFF AND PUSH2 0x1868 JUMP JUMPDEST PUSH20 0x19BE259BC299F3F653688C7655C87F998BC7BC1 SWAP1 JUMP JUMPDEST PUSH2 0x1301 PUSH2 0x37BF JUMP JUMPDEST PUSH2 0x91B DUP3 PUSH2 0x2210 JUMP JUMPDEST PUSH2 0x1312 PUSH2 0x38F9 JUMP JUMPDEST PUSH1 0x60 DUP1 PUSH2 0x131E DUP5 PUSH2 0x1F6D JUMP JUMPDEST PUSH1 0x40 DUP1 MLOAD PUSH1 0xA DUP1 DUP3 MSTORE PUSH2 0x160 DUP3 ADD SWAP1 SWAP3 MSTORE SWAP2 SWAP5 POP DUP2 PUSH1 0x20 ADD JUMPDEST PUSH2 0x133F PUSH2 0x3945 JUMP JUMPDEST DUP2 MSTORE PUSH1 0x20 ADD SWAP1 PUSH1 0x1 SWAP1 SUB SWAP1 DUP2 PUSH2 0x1337 JUMPI SWAP1 POP POP SWAP2 POP PUSH1 0x0 PUSH2 0x135F DUP5 PUSH2 0x2026 JUMP JUMPDEST ISZERO PUSH2 0x13B3 JUMPI PUSH1 0x0 DUP4 PUSH1 0x0 DUP2 MLOAD DUP2 LT PUSH2 0x1373 JUMPI INVALID JUMPDEST PUSH1 0x20 SWAP1 DUP2 MUL SWAP2 SWAP1 SWAP2 ADD ADD MLOAD PUSH1 0x60 DUP7 ADD DUP1 MLOAD PUSH2 0xFFFF AND DUP3 MSTORE MLOAD SWAP1 SWAP2 POP PUSH2 0x139A SWAP1 DUP8 SWAP1 TIMESTAMP PUSH2 0x1802 JUMP JUMPDEST PUSH1 0x80 DUP6 ADD MSTORE PUSH1 0x60 DUP5 ADD MSTORE PUSH1 0x40 DUP4 ADD MSTORE PUSH1 0x20 SWAP1 SWAP2 ADD MSTORE PUSH1 0x1 ADD JUMPDEST PUSH1 0x80 DUP5 ADD MLOAD JUMPDEST PUSH1 0x1 PUSH1 0x1 PUSH1 0x70 SHL SUB NOT DUP2 AND ISZERO PUSH2 0x1441 JUMPI PUSH1 0x0 DUP5 DUP4 DUP2 MLOAD DUP2 LT PUSH2 0x13D7 JUMPI INVALID JUMPDEST PUSH1 0x20 SWAP1 DUP2 MUL SWAP2 SWAP1 SWAP2 ADD ADD MLOAD PUSH1 0xF0 DUP4 SWAP1 SHR PUSH2 0x3FFF AND DUP1 DUP3 MSTORE SWAP1 SWAP2 POP PUSH2 0x13FB JUMPI POP PUSH2 0x1441 JUMP JUMPDEST PUSH2 0x140A DUP8 DUP3 PUSH1 0x0 ADD MLOAD TIMESTAMP PUSH2 0x1802 JUMP JUMPDEST PUSH1 0x80 DUP6 ADD MSTORE PUSH1 0x60 DUP5 ADD MSTORE PUSH1 0x40 DUP4 ADD MSTORE PUSH1 0x20 SWAP1 SWAP2 ADD MSTORE PUSH1 0x1 SWAP2 SWAP1 SWAP2 ADD SWAP1 PUSH1 0x10 SHL PUSH16 0xFFFFFFFFFFFFFFFFFFFFFFFFFFFFFFFF NOT AND PUSH2 0x13B9 JUMP JUMPDEST PUSH2 0x144A DUP6 PUSH2 0x2026 JUMP JUMPDEST ISZERO PUSH2 0x1470 JUMPI PUSH2 0x1469 DUP7 DUP7 PUSH1 0x60 ADD MLOAD DUP8 PUSH1 0x0 ADD MLOAD PUSH5 0xFFFFFFFFFF AND PUSH2 0x1E53 JUMP JUMPDEST SWAP3 POP PUSH2 0x1481 JUMP JUMPDEST PUSH2 0x147E DUP7 DUP7 PUSH1 0x40 ADD MLOAD PUSH2 0x1E3F JUMP JUMPDEST SWAP3 POP JUMPDEST POP POP SWAP2 SWAP4 SWAP1 SWAP3 POP JUMP JUMPDEST PUSH1 0x0 DUP1 PUSH1 0x0 PUSH2 0x1498 DUP6 PUSH2 0x14BF JUMP JUMPDEST PUSH2 0x14A3 DUP5 DUP7 TIMESTAMP PUSH2 0x1802 JUMP JUMPDEST POP SWAP2 SWAP8 SWAP1 SWAP7 POP SWAP1 SWAP5 POP SWAP3 POP POP POP JUMP JUMPDEST PUSH1 0x0 DUP1 PUSH2 0xA89 PUSH1 0x26 PUSH2 0x2243 JUMP JUMPDEST DUP1 PUSH2 0xFFFF AND PUSH1 0x0 LT DUP1 ISZERO PUSH2 0x14DD JUMPI POP PUSH1 0x0 SLOAD PUSH2 0xFFFF SWAP1 DUP2 AND SWAP1 DUP3 AND GT ISZERO JUMPDEST PUSH2 0x14F9 JUMPI PUSH1 0x40 MLOAD PUSH3 0x461BCD PUSH1 0xE5 SHL DUP2 MSTORE PUSH1 0x4 ADD PUSH2 0x309 SWAP1 PUSH2 0x4314 JUMP JUMPDEST POP JUMP JUMPDEST PUSH1 0x0 PUSH2 0x1506 PUSH2 0x225C JUMP JUMPDEST PUSH2 0xFFFF SWAP1 SWAP3 AND PUSH1 0x0 SWAP1 DUP2 MSTORE PUSH1 0x20 SWAP3 SWAP1 SWAP3 MSTORE POP PUSH1 0x40 SWAP1 KECCAK256 SLOAD PUSH1 0x1 PUSH1 0x1 PUSH1 0xA0 SHL SUB AND SWAP1 JUMP JUMPDEST PUSH2 0x1531 PUSH2 0x3723 JUMP JUMPDEST PUSH2 0x1539 PUSH2 0x3744 JUMP JUMPDEST PUSH2 0x1542 DUP5 PUSH2 0x165E JUMP JUMPDEST SWAP1 POP DUP3 DUP2 PUSH1 0x0 ADD MLOAD LT ISZERO PUSH2 0x1573 JUMPI PUSH1 0x0 PUSH2 0x155B DUP6 PUSH2 0x2269 JUMP JUMPDEST SWAP1 POP PUSH2 0x1569 DUP6 DUP4 DUP4 DUP8 PUSH2 0x22E4 JUMP JUMPDEST POP SWAP2 POP PUSH2 0x1580 SWAP1 POP JUMP JUMPDEST DUP1 MLOAD DUP4 EQ PUSH2 0x1580 JUMPI PUSH1 0x0 DUP1 REVERT JUMPDEST PUSH1 0x40 MLOAD DUP1 PUSH1 0x60 ADD PUSH1 0x40 MSTORE DUP1 PUSH2 0x15AE PUSH2 0x15A9 DUP5 PUSH1 0xA0 ADD MLOAD DUP6 PUSH1 0xC0 ADD MLOAD PUSH2 0x2388 SWAP1 SWAP2 SWAP1 PUSH4 0xFFFFFFFF AND JUMP JUMPDEST PUSH2 0x23AF JUMP JUMPDEST DUP2 MSTORE PUSH1 0x20 ADD PUSH2 0x15D1 PUSH2 0x15A9 DUP5 PUSH1 0xA0 ADD MLOAD DUP6 PUSH1 0xE0 ADD MLOAD PUSH2 0x2388 SWAP1 SWAP2 SWAP1 PUSH4 0xFFFFFFFF AND JUMP JUMPDEST DUP2 MSTORE PUSH1 0x20 ADD DUP3 PUSH1 0x60 ADD MLOAD DUP2 MSTORE POP SWAP2 POP SWAP3 POP SWAP3 SWAP1 POP JUMP JUMPDEST PUSH1 0x0 DUP1 PUSH1 0x0 PUSH2 0x15F4 PUSH2 0x23C9 JUMP JUMPDEST PUSH2 0xFFFF DUP6 AND PUSH1 0x0 SWAP1 DUP2 MSTORE PUSH1 0x20 SWAP2 SWAP1 SWAP2 MSTORE PUSH1 0x40 SWAP1 KECCAK256 PUSH1 0x1 DUP2 ADD SLOAD SWAP1 SWAP2 POP PUSH2 0x1626 SWAP1 PUSH1 0x1 PUSH1 0x58 SHL SWAP1 DIV PUSH4 0xFFFFFFFF AND PUSH2 0x23D6 JUMP JUMPDEST DUP2 SLOAD SWAP1 SWAP4 POP PUSH6 0x10000000000 SWAP1 DIV PUSH11 0xFFFFFFFFFFFFFFFFFFFFFF AND PUSH2 0x1653 PUSH2 0x164E DUP8 DUP4 PUSH2 0x23E4 JUMP JUMPDEST PUSH2 0x2410 JUMP JUMPDEST SWAP3 POP POP POP SWAP3 POP SWAP3 SWAP1 POP JUMP JUMPDEST PUSH2 0x1666 PUSH2 0x3744 JUMP JUMPDEST PUSH1 0x0 PUSH2 0x1670 PUSH2 0x23C9 JUMP JUMPDEST PUSH2 0xFFFF SWAP4 DUP5 AND PUSH1 0x0 SWAP1 DUP2 MSTORE PUSH1 0x20 SWAP2 DUP3 MSTORE PUSH1 0x40 SWAP1 DUP2 SWAP1 KECCAK256 DUP1 SLOAD PUSH5 0xFFFFFFFFFF DUP2 AND DUP7 MSTORE PUSH6 0x10000000000 DUP2 DIV PUSH11 0xFFFFFFFFFFFFFFFFFFFFFF SWAP1 DUP2 AND SWAP5 DUP8 ADD SWAP5 SWAP1 SWAP5 MSTORE PUSH1 0x1 DUP3 ADD SLOAD DUP5 AND SWAP3 DUP7 ADD SWAP3 SWAP1 SWAP3 MSTORE PUSH1 0x1 PUSH1 0xD8 SHL DUP3 DIV PUSH4 0xFFFFFFFF AND PUSH1 0x60 DUP7 ADD MSTORE PUSH1 0x1 PUSH1 0x80 SHL SWAP1 SWAP2 DIV SWAP1 SWAP2 AND PUSH1 0x80 DUP5 ADD MSTORE PUSH1 0x2 ADD SLOAD PUSH1 0x1 PUSH1 0x1 PUSH1 0x50 SHL SUB DUP1 DUP3 AND PUSH1 0xA0 DUP6 ADD MSTORE PUSH1 0x1 PUSH1 0x50 SHL DUP3 DIV DUP2 AND PUSH1 0xC0 DUP6 ADD MSTORE PUSH1 0x1 PUSH1 0xA0 SHL DUP3 DIV AND PUSH1 0xE0 DUP5 ADD MSTORE PUSH1 0x1 PUSH1 0xF0 SHL SWAP1 DIV PUSH1 0xFF AND PUSH2 0x12C MUL SWAP1 SWAP3 AND PUSH2 0x100 DUP3 ADD MSTORE SWAP2 SWAP1 POP JUMP JUMPDEST PUSH1 0x0 DUP1 PUSH1 0x0 DUP1 PUSH1 0x0 DUP1 PUSH2 0x173D PUSH2 0x241F JUMP JUMPDEST PUSH1 0x1 PUSH1 0x1 PUSH1 0xA0 SHL SUB SWAP1 SWAP8 AND PUSH1 0x0 SWAP1 DUP2 MSTORE PUSH1 0x20 SWAP8 SWAP1 SWAP8 MSTORE POP POP PUSH1 0x40 SWAP1 SWAP5 KECCAK256 SLOAD PUSH2 0xFFFF DUP2 AND SWAP6 PUSH4 0xFFFFFFFF PUSH3 0x10000 DUP4 DIV DUP2 AND SWAP7 POP PUSH7 0x1000000000000 DUP4 DIV AND SWAP5 POP PUSH1 0xFF PUSH1 0x1 PUSH1 0x50 SHL DUP4 DIV AND SWAP4 POP PUSH1 0x1 PUSH1 0x58 SHL SWAP1 SWAP2 DIV PUSH1 0xD0 SHL SWAP2 POP JUMP JUMPDEST PUSH1 0x0 DUP1 PUSH1 0x0 DUP1 PUSH2 0x17A6 PUSH2 0x242C JUMP JUMPDEST PUSH1 0x1 PUSH1 0x1 PUSH1 0xA0 SHL SUB SWAP6 SWAP1 SWAP6 AND PUSH1 0x0 SWAP1 DUP2 MSTORE PUSH1 0x20 SWAP6 SWAP1 SWAP6 MSTORE POP POP PUSH1 0x40 SWAP1 SWAP3 KECCAK256 SLOAD PUSH12 0xFFFFFFFFFFFFFFFFFFFFFFFF DUP2 AND SWAP4 PUSH1 0x1 PUSH1 0x60 SHL DUP3 DIV PUSH16 0xFFFFFFFFFFFFFFFFFFFFFFFFFFFFFFFF AND SWAP4 POP PUSH1 0x1 PUSH1 0xE0 SHL SWAP1 SWAP2 DIV PUSH4 0xFFFFFFFF AND SWAP2 POP JUMP JUMPDEST PUSH1 0x0 DUP1 PUSH1 0x0 DUP1 PUSH1 0x0 PUSH2 0x1814 DUP8 DUP8 PUSH2 0x1529 JUMP JUMPDEST POP SWAP1 POP PUSH2 0x1822 DUP9 DUP9 DUP4 PUSH2 0x2439 JUMP JUMPDEST SWAP5 POP SWAP5 POP SWAP5 POP SWAP5 POP POP JUMPDEST SWAP4 POP SWAP4 POP SWAP4 POP SWAP4 JUMP JUMPDEST PUSH1 0x0 DUP1 PUSH2 0xA89 PUSH1 0x25 PUSH2 0x2243 JUMP JUMPDEST PUSH1 0x0 DUP1 PUSH2 0x184D PUSH2 0x24F3 JUMP JUMPDEST PUSH1 0x0 SWAP4 DUP5 MSTORE PUSH1 0x20 MSTORE POP POP PUSH1 0x40 SWAP1 KECCAK256 SLOAD PUSH1 0x1 PUSH1 0x1 PUSH1 0xA0 SHL SUB AND SWAP1 JUMP JUMPDEST PUSH1 0x60 PUSH1 0x0 PUSH2 0x1875 DUP5 PUSH2 0x1BA7 JUMP JUMPDEST SWAP1 POP PUSH1 0x0 DUP2 PUSH1 0x20 ADD MLOAD PUSH8 0xFFFFFFFFFFFFFFFF DUP2 GT DUP1 ISZERO PUSH2 0x1894 JUMPI PUSH1 0x0 DUP1 REVERT JUMPDEST POP PUSH1 0x40 MLOAD SWAP1 DUP1 DUP3 MSTORE DUP1 PUSH1 0x20 MUL PUSH1 0x20 ADD DUP3 ADD PUSH1 0x40 MSTORE DUP1 ISZERO PUSH2 0x18CE JUMPI DUP2 PUSH1 0x20 ADD JUMPDEST PUSH2 0x18BB PUSH2 0x3882 JUMP JUMPDEST DUP2 MSTORE PUSH1 0x20 ADD SWAP1 PUSH1 0x1 SWAP1 SUB SWAP1 DUP2 PUSH2 0x18B3 JUMPI SWAP1 POP JUMPDEST POP SWAP1 POP PUSH1 0x0 JUMPDEST DUP3 PUSH1 0x20 ADD MLOAD DUP2 LT ISZERO PUSH2 0x1918 JUMPI PUSH2 0x1910 DUP3 DUP3 DUP2 MLOAD DUP2 LT PUSH2 0x18EF JUMPI INVALID JUMPDEST PUSH1 0x20 MUL PUSH1 0x20 ADD ADD MLOAD DUP3 PUSH1 0x1 ADD PUSH1 0x1 DUP9 DUP8 PUSH2 0x2500 SWAP1 SWAP5 SWAP4 SWAP3 SWAP2 SWAP1 PUSH4 0xFFFFFFFF AND JUMP JUMPDEST PUSH1 0x1 ADD PUSH2 0x18D4 JUMP JUMPDEST POP SWAP5 SWAP4 POP POP POP POP JUMP JUMPDEST DUP2 DUP2 ADD DUP3 DUP2 SLT ISZERO PUSH1 0x0 DUP4 SLT ISZERO EQ PUSH2 0xA89 JUMPI PUSH1 0x0 DUP1 REVERT JUMPDEST PUSH2 0x193F PUSH2 0x3790 JUMP JUMPDEST PUSH2 0x91B DUP3 PUSH1 0x0 PUSH2 0x257B JUMP JUMPDEST PUSH2 0x1952 PUSH2 0x3790 JUMP JUMPDEST PUSH2 0x91B DUP3 PUSH1 0x1 PUSH2 0x257B JUMP JUMPDEST PUSH1 0x0 DUP1 PUSH2 0x1968 PUSH2 0x2615 JUMP JUMPDEST PUSH2 0xFFFF SWAP4 SWAP1 SWAP4 AND PUSH1 0x0 SWAP1 DUP2 MSTORE PUSH1 0x20 SWAP4 SWAP1 SWAP4 MSTORE POP POP PUSH1 0x40 SWAP1 KECCAK256 SLOAD PUSH1 0x1 PUSH1 0x1 PUSH1 0xA0 SHL SUB AND SWAP1 JUMP JUMPDEST PUSH1 0x0 DUP1 PUSH1 0x0 DUP1 PUSH1 0x0 DUP6 PUSH1 0x20 ADD MLOAD GT ISZERO PUSH2 0x19DA JUMPI PUSH2 0x19D7 PUSH2 0x19BE DUP7 PUSH1 0xC0 ADD MLOAD DUP8 PUSH1 0x20 ADD MLOAD PUSH2 0x2388 SWAP1 SWAP2 SWAP1 PUSH4 0xFFFFFFFF AND JUMP JUMPDEST PUSH1 0xE0 DUP8 ADD MLOAD PUSH1 0x40 DUP9 ADD MLOAD PUSH2 0x19D1 SWAP2 PUSH2 0x2388 JUMP JUMPDEST SWAP1 PUSH2 0x2622 JUMP JUMPDEST SWAP1 POP JUMPDEST PUSH1 0x0 PUSH2 0x19E5 DUP8 PUSH2 0x2210 JUMP JUMPDEST SWAP1 POP PUSH2 0x19F1 DUP2 DUP4 PUSH2 0x263B JUMP JUMPDEST SWAP5 POP DUP2 ISZERO PUSH2 0x1A08 JUMPI PUSH2 0x1A05 DUP2 DUP7 PUSH1 0x1 PUSH2 0x26FB JUMP JUMPDEST SWAP4 POP JUMPDEST PUSH1 0x20 DUP7 ADD MLOAD ISZERO PUSH2 0x1A1F JUMPI PUSH2 0x1A1C DUP6 DUP4 PUSH2 0x2773 JUMP JUMPDEST SWAP3 POP JUMPDEST POP POP SWAP3 POP SWAP3 POP SWAP3 JUMP JUMPDEST PUSH1 0x0 DUP1 PUSH2 0x1A34 DUP4 PUSH2 0x278C JUMP JUMPDEST PUSH1 0xFF AND SWAP4 SWAP3 POP POP POP JUMP JUMPDEST PUSH2 0x1A46 PUSH2 0x37BF JUMP JUMPDEST PUSH2 0xD2A DUP4 DUP4 PUSH2 0x1A53 PUSH2 0x27A9 JUMP JUMPDEST PUSH2 0x27B6 JUMP JUMPDEST PUSH2 0x1A60 PUSH2 0x37BF JUMP JUMPDEST PUSH2 0xD2A DUP4 DUP4 PUSH2 0x1A53 PUSH2 0x280D JUMP JUMPDEST PUSH1 0x60 PUSH1 0x0 PUSH2 0x1A79 PUSH2 0x281A JUMP JUMPDEST PUSH1 0x0 DUP6 DUP2 MSTORE PUSH1 0x20 DUP3 SWAP1 MSTORE PUSH1 0x40 SWAP1 KECCAK256 SWAP1 SWAP2 POP PUSH2 0x1196 DUP2 DUP6 PUSH2 0x2827 JUMP JUMPDEST PUSH2 0x1A9C PUSH2 0x3804 JUMP JUMPDEST PUSH1 0x0 PUSH2 0x1AA7 DUP4 PUSH2 0x278C JUMP JUMPDEST SWAP1 POP PUSH1 0x0 DUP2 PUSH1 0x1F PUSH1 0x40 DUP1 MLOAD PUSH2 0x140 DUP2 ADD SWAP1 SWAP2 MSTORE SWAP2 SWAP1 BYTE DUP1 DUP3 MSTORE SWAP2 POP PUSH1 0x20 DUP2 ADD DUP4 PUSH1 0x1E BYTE DUP2 MSTORE PUSH1 0x20 ADD DUP4 PUSH1 0x1D BYTE DUP2 MSTORE PUSH1 0x20 ADD DUP4 PUSH1 0x1C BYTE DUP2 MSTORE PUSH1 0x20 ADD DUP4 PUSH1 0x1B BYTE DUP2 MSTORE PUSH1 0x20 ADD DUP4 PUSH1 0x1A BYTE DUP2 MSTORE PUSH1 0x20 ADD DUP4 PUSH1 0x19 BYTE DUP2 MSTORE PUSH1 0x20 ADD DUP4 PUSH1 0x18 BYTE DUP2 MSTORE PUSH1 0x20 ADD DUP4 PUSH1 0x17 BYTE DUP2 MSTORE PUSH1 0x20 ADD DUP4 PUSH1 0x16 BYTE SWAP1 MSTORE SWAP5 SWAP4 POP POP POP POP JUMP JUMPDEST PUSH2 0x1B24 PUSH2 0x3858 JUMP JUMPDEST PUSH1 0x0 PUSH2 0x1B33 DUP4 PUSH2 0xFFFF AND PUSH2 0x194A JUMP JUMPDEST SWAP1 POP PUSH1 0x0 PUSH2 0x1B53 PUSH5 0x2540BE400 DUP4 PUSH1 0x40 ADD MLOAD PUSH2 0x296B SWAP1 SWAP2 SWAP1 PUSH4 0xFFFFFFFF AND JUMP JUMPDEST SWAP1 POP PUSH1 0x0 PUSH2 0x1B61 DUP6 TIMESTAMP PUSH2 0x1529 JUMP JUMPDEST POP PUSH1 0x40 DUP1 DUP6 ADD MLOAD SWAP1 DUP7 ADD MSTORE DUP1 MLOAD SWAP1 SWAP2 POP PUSH2 0x1B96 SWAP1 PUSH15 0xC097CE7BC90715B34B9F1000000000 SWAP1 PUSH2 0x1B90 SWAP1 DUP6 PUSH2 0x296B JUMP JUMPDEST SWAP1 PUSH2 0x29B9 JUMP JUMPDEST PUSH1 0x20 DUP6 ADD MSTORE POP POP PUSH1 0x0 DUP3 MSTORE POP SWAP2 SWAP1 POP JUMP JUMPDEST PUSH2 0x1BAF PUSH2 0x3978 JUMP JUMPDEST PUSH1 0x0 PUSH2 0x1BBB DUP4 TIMESTAMP PUSH2 0x1529 JUMP JUMPDEST POP SWAP1 POP PUSH2 0xD2A DUP4 DUP3 PUSH2 0x29EA JUMP JUMPDEST PUSH1 0x60 ADD MLOAD PUSH2 0x12C PUSH1 0x8 SWAP2 SWAP1 SWAP2 SHR PUSH1 0xFF AND MUL SWAP1 JUMP JUMPDEST PUSH2 0x1BE9 DUP8 DUP8 DUP8 DUP7 DUP6 PUSH2 0x2A2D JUMP JUMPDEST PUSH2 0x1C02 DUP8 PUSH1 0xE0 ADD MLOAD DUP9 PUSH1 0xA0 ADD MLOAD DUP10 PUSH1 0xC0 ADD MLOAD DUP6 DUP9 PUSH2 0x2AE8 JUMP JUMPDEST PUSH1 0xC0 SWAP1 SWAP8 ADD SWAP7 SWAP1 SWAP7 MSTORE POP POP POP POP POP POP JUMP JUMPDEST PUSH1 0x0 DUP1 PUSH2 0xA89 PUSH1 0x20 PUSH2 0x2243 JUMP JUMPDEST PUSH1 0x0 DUP1 PUSH2 0xA89 PUSH1 0x24 PUSH2 0x2243 JUMP JUMPDEST PUSH2 0x1C35 PUSH2 0x38CA JUMP JUMPDEST PUSH1 0x0 PUSH2 0x1C3F PUSH2 0x217D JUMP JUMPDEST PUSH1 0x0 DUP5 DUP2 MSTORE PUSH1 0x20 DUP3 SWAP1 MSTORE PUSH1 0x40 DUP2 KECCAK256 SWAP2 SWAP3 POP DUP1 PUSH1 0x1 DUP7 EQ ISZERO PUSH2 0x1C6C JUMPI POP PUSH8 0xDE0B6B3A7640000 SWAP1 POP DUP1 PUSH2 0x1D2F JUMP JUMPDEST DUP3 SLOAD PUSH1 0x40 DUP1 MLOAD PUSH4 0x3FABE5A3 PUSH1 0xE2 SHL DUP2 MSTORE SWAP1 MLOAD PUSH1 0x1 PUSH1 0x1 PUSH1 0xA0 SHL SUB SWAP1 SWAP3 AND SWAP2 PUSH4 0xFEAF968C SWAP2 PUSH1 0x4 DUP1 DUP3 ADD SWAP3 PUSH1 0xA0 SWAP3 SWAP1 SWAP2 SWAP1 DUP3 SWAP1 SUB ADD DUP2 DUP7 DUP1 EXTCODESIZE ISZERO DUP1 ISZERO PUSH2 0x1CB0 JUMPI PUSH1 0x0 DUP1 REVERT JUMPDEST POP GAS STATICCALL ISZERO DUP1 ISZERO PUSH2 0x1CC4 JUMPI RETURNDATASIZE PUSH1 0x0 DUP1 RETURNDATACOPY RETURNDATASIZE PUSH1 0x0 REVERT JUMPDEST POP POP POP POP PUSH1 0x40 MLOAD RETURNDATASIZE PUSH1 0x1F NOT PUSH1 0x1F DUP3 ADD AND DUP3 ADD DUP1 PUSH1 0x40 MSTORE POP DUP2 ADD SWAP1 PUSH2 0x1CE8 SWAP2 SWAP1 PUSH2 0x3D78 JUMP JUMPDEST POP SWAP2 SWAP4 POP POP PUSH1 0x0 DUP4 SGT SWAP2 POP PUSH2 0x1CFE SWAP1 POP JUMPI PUSH1 0x0 DUP1 REVERT JUMPDEST DUP3 SLOAD PUSH1 0xFF PUSH1 0x1 PUSH1 0xA0 SHL DUP3 DIV DUP2 AND PUSH1 0xA EXP SWAP4 POP PUSH1 0x1 PUSH1 0xA8 SHL SWAP1 SWAP2 DIV AND ISZERO PUSH2 0x1D2F JUMPI PUSH2 0x1D2C DUP2 PUSH2 0x1B90 DUP5 DUP1 PUSH2 0x296B JUMP JUMPDEST SWAP1 POP JUMPDEST DUP3 SLOAD PUSH1 0x1 PUSH1 0xB0 SHL SWAP1 DIV PUSH1 0xFF AND PUSH1 0x96 DUP2 SGT ISZERO PUSH2 0x1D4F JUMPI PUSH1 0x95 NOT ADD PUSH1 0xA MUL PUSH1 0x96 ADD JUMPDEST PUSH1 0x40 DUP1 MLOAD PUSH1 0xA0 DUP2 ADD DUP3 MSTORE SWAP4 DUP5 MSTORE PUSH1 0x20 DUP5 ADD SWAP3 SWAP1 SWAP3 MSTORE SWAP1 DUP3 ADD MSTORE SWAP1 SLOAD PUSH1 0xFF PUSH1 0x1 PUSH1 0xB8 SHL DUP3 DIV DUP2 AND PUSH1 0x60 DUP5 ADD MSTORE PUSH1 0x1 PUSH1 0xC0 SHL SWAP1 SWAP2 DIV AND PUSH1 0x80 DUP3 ADD MSTORE SWAP2 POP POP SWAP2 SWAP1 POP JUMP JUMPDEST PUSH1 0x0 DUP1 PUSH2 0x1D9B PUSH2 0x2B70 JUMP JUMPDEST PUSH1 0x1 PUSH1 0x1 PUSH1 0xA0 SHL SUB DUP6 AND PUSH1 0x0 SWAP1 DUP2 MSTORE PUSH1 0x20 SWAP2 DUP3 MSTORE PUSH1 0x40 DUP1 DUP3 KECCAK256 DUP7 DUP4 MSTORE SWAP1 SWAP3 MSTORE KECCAK256 SLOAD SWAP2 POP POP SWAP3 SWAP2 POP POP JUMP JUMPDEST PUSH1 0x0 DUP1 PUSH2 0x1DD0 PUSH2 0x2B7D JUMP JUMPDEST PUSH1 0x1 PUSH1 0x1 PUSH1 0xA0 SHL SUB DUP7 AND PUSH1 0x0 SWAP1 DUP2 MSTORE PUSH1 0x20 SWAP2 DUP3 MSTORE PUSH1 0x40 DUP1 DUP3 KECCAK256 DUP8 DUP4 MSTORE DUP4 MSTORE DUP1 DUP3 KECCAK256 DUP7 DUP4 MSTORE SWAP1 SWAP3 MSTORE KECCAK256 SLOAD PUSH1 0xF SWAP1 DUP2 SIGNEXTEND SWAP1 SIGNEXTEND SWAP2 POP POP SWAP4 SWAP3 POP POP POP JUMP JUMPDEST PUSH1 0x60 DUP1 PUSH1 0x0 PUSH2 0x1E17 PUSH2 0x2B8A JUMP JUMPDEST PUSH1 0x0 DUP7 DUP2 MSTORE PUSH1 0x20 DUP3 SWAP1 MSTORE PUSH1 0x40 SWAP1 KECCAK256 SWAP1 SWAP2 POP PUSH2 0x1E32 DUP2 DUP7 PUSH2 0x2827 JUMP JUMPDEST SWAP1 SWAP8 SWAP1 SWAP7 POP SWAP5 POP POP POP POP POP JUMP JUMPDEST PUSH1 0x60 PUSH2 0x1E4B DUP4 DUP4 PUSH2 0x2B97 JUMP JUMPDEST POP SWAP4 SWAP3 POP POP POP JUMP JUMPDEST PUSH1 0x60 PUSH1 0x0 PUSH2 0x1E65 DUP6 DUP6 PUSH2 0xFFFF AND PUSH2 0x1D90 JUMP JUMPDEST SWAP1 POP PUSH1 0x0 PUSH2 0x1E72 DUP3 PUSH2 0x2BB8 JUMP JUMPDEST SWAP1 POP PUSH1 0x0 DUP2 PUSH8 0xFFFFFFFFFFFFFFFF DUP2 GT DUP1 ISZERO PUSH2 0x1E8D JUMPI PUSH1 0x0 DUP1 REVERT JUMPDEST POP PUSH1 0x40 MLOAD SWAP1 DUP1 DUP3 MSTORE DUP1 PUSH1 0x20 MUL PUSH1 0x20 ADD DUP3 ADD PUSH1 0x40 MSTORE DUP1 ISZERO PUSH2 0x1EC7 JUMPI DUP2 PUSH1 0x20 ADD JUMPDEST PUSH2 0x1EB4 PUSH2 0x39A4 JUMP JUMPDEST DUP2 MSTORE PUSH1 0x20 ADD SWAP1 PUSH1 0x1 SWAP1 SUB SWAP1 DUP2 PUSH2 0x1EAC JUMPI SWAP1 POP JUMPDEST POP SWAP1 POP PUSH1 0x0 SWAP2 POP PUSH1 0x0 PUSH2 0x1ED9 DUP5 PUSH2 0x2C88 JUMP JUMPDEST SWAP1 POP JUMPDEST DUP1 ISZERO PUSH2 0x1F62 JUMPI PUSH1 0x0 PUSH2 0x1EEE DUP8 DUP4 PUSH2 0x2CAD JUMP JUMPDEST SWAP1 POP PUSH1 0x0 PUSH2 0x1F01 DUP11 DUP11 PUSH2 0xFFFF AND DUP5 PUSH2 0x1DC5 JUMP JUMPDEST SWAP1 POP PUSH1 0x0 DUP5 DUP7 DUP2 MLOAD DUP2 LT PUSH2 0x1F11 JUMPI INVALID JUMPDEST PUSH1 0x20 SWAP1 DUP2 MUL SWAP2 SWAP1 SWAP2 ADD DUP2 ADD MLOAD PUSH2 0xFFFF DUP13 AND DUP2 MSTORE SWAP1 DUP2 ADD DUP5 SWAP1 MSTORE PUSH1 0x1 PUSH1 0x40 DUP3 ADD DUP2 SWAP1 MSTORE PUSH1 0x60 DUP3 ADD DUP5 SWAP1 MSTORE SWAP7 SWAP1 SWAP7 ADD SWAP6 SWAP1 POP PUSH2 0x1F4D DUP8 DUP6 PUSH1 0x0 PUSH2 0x2D60 JUMP JUMPDEST SWAP7 POP PUSH2 0x1F58 DUP8 PUSH2 0x2C88 JUMP JUMPDEST SWAP4 POP POP POP POP PUSH2 0x1EDC JUMP JUMPDEST POP SWAP7 SWAP6 POP POP POP POP POP POP JUMP JUMPDEST PUSH2 0x1F75 PUSH2 0x38F9 JUMP JUMPDEST PUSH1 0x0 PUSH2 0x1F7F PUSH2 0x2DAB JUMP JUMPDEST PUSH1 0x1 PUSH1 0x1 PUSH1 0xA0 SHL SUB DUP5 AND PUSH1 0x0 SWAP1 DUP2 MSTORE PUSH1 0x20 SWAP2 DUP3 MSTORE PUSH1 0x40 SWAP1 DUP2 SWAP1 KECCAK256 DUP2 MLOAD PUSH1 0xC0 DUP2 ADD DUP4 MSTORE SWAP1 SLOAD PUSH5 0xFFFFFFFFFF DUP2 AND DUP3 MSTORE PUSH1 0x1 PUSH1 0x1 PUSH1 0xF8 SHL SUB NOT PUSH6 0x10000000000 DUP3 DIV PUSH1 0xF8 SHL AND SWAP4 DUP3 ADD SWAP4 SWAP1 SWAP4 MSTORE PUSH1 0xFF PUSH7 0x1000000000000 DUP5 DIV DUP2 AND SWAP3 DUP3 ADD SWAP3 SWAP1 SWAP3 MSTORE PUSH2 0xFFFF PUSH1 0x1 PUSH1 0x38 SHL DUP5 DIV AND PUSH1 0x60 DUP3 ADD MSTORE PUSH1 0x1 PUSH1 0x1 PUSH1 0x70 SHL SUB NOT PUSH10 0x1000000000000000000 DUP5 DIV PUSH1 0x70 SHL AND PUSH1 0x80 DUP3 ADD MSTORE PUSH1 0x1 PUSH1 0xD8 SHL SWAP1 SWAP3 DIV AND ISZERO ISZERO PUSH1 0xA0 DUP3 ADD MSTORE SWAP2 POP POP SWAP2 SWAP1 POP JUMP JUMPDEST PUSH1 0x60 ADD MLOAD PUSH2 0xFFFF AND ISZERO ISZERO SWAP1 JUMP JUMPDEST PUSH2 0x203B PUSH2 0x3723 JUMP JUMPDEST PUSH1 0x0 PUSH2 0x2047 DUP6 DUP6 PUSH2 0x2DB8 JUMP JUMPDEST SWAP1 SWAP3 POP SWAP1 POP DUP1 PUSH2 0x1E4B JUMPI PUSH2 0x205B DUP6 DUP5 PUSH2 0x1529 JUMP JUMPDEST POP SWAP6 SWAP5 POP POP POP POP POP JUMP JUMPDEST PUSH1 0x0 PUSH2 0x1506 PUSH2 0x2E4B JUMP JUMPDEST PUSH1 0x0 DUP1 PUSH2 0x207A PUSH2 0x2102 JUMP JUMPDEST PUSH1 0x1 PUSH1 0x1 PUSH1 0xA0 SHL SUB DUP6 AND PUSH1 0x0 SWAP1 DUP2 MSTORE PUSH1 0x20 DUP3 DUP2 MSTORE PUSH1 0x40 DUP1 DUP4 KECCAK256 PUSH2 0xFFFF DUP9 AND DUP5 MSTORE SWAP1 SWAP2 MSTORE DUP2 KECCAK256 DUP1 SLOAD PUSH1 0x1 PUSH1 0xA8 SHL SWAP1 DIV PUSH1 0xA SWAP1 DUP2 SIGNEXTEND SWAP1 SIGNEXTEND SWAP5 POP SWAP2 SWAP3 POP DUP4 SLT ISZERO PUSH2 0x8E0 JUMPI PUSH1 0x0 DUP1 REVERT JUMPDEST PUSH1 0x30 DUP2 SWAP1 SHR PUSH5 0xFFFFFFFFFF PUSH1 0x8 DUP4 SWAP1 SHR AND PUSH1 0xFF DUP4 AND PUSH1 0x0 DUP1 PUSH1 0x1 DUP4 EQ ISZERO PUSH2 0x20F2 JUMPI POP PUSH1 0x1 PUSH1 0xFF PUSH1 0x40 DUP8 SWAP1 SHR AND EQ PUSH2 0x1139 JUMP JUMPDEST PUSH1 0x40 DUP7 SWAP1 SHR SWAP2 POP SWAP2 SWAP4 SWAP6 SWAP1 SWAP3 SWAP5 POP JUMP JUMPDEST PUSH1 0x0 DUP1 PUSH2 0xA89 PUSH1 0x6 PUSH2 0x2243 JUMP JUMPDEST PUSH1 0x0 PUSH1 0x1 DUP5 EQ ISZERO PUSH2 0x213B JUMPI PUSH2 0x2134 DUP7 DUP7 DUP5 PUSH2 0x212B JUMPI PUSH1 0x1 PUSH2 0x212F JUMP JUMPDEST PUSH1 0x0 NOT JUMPDEST PUSH2 0x2E58 JUMP JUMPDEST SWAP1 POP PUSH2 0x11D0 JUMP JUMPDEST PUSH1 0xB DUP5 EQ DUP1 PUSH2 0x214A JUMPI POP PUSH1 0x9 DUP5 EQ JUMPDEST DUP1 PUSH2 0x2155 JUMPI POP PUSH1 0xA DUP5 EQ JUMPDEST ISZERO PUSH2 0x2166 JUMPI PUSH2 0x2134 DUP4 DUP8 DUP8 DUP8 PUSH2 0x2EA1 JUMP JUMPDEST PUSH1 0xC DUP5 EQ ISZERO PUSH2 0x2178 JUMPI PUSH2 0x2134 DUP7 PUSH2 0x2ED4 JUMP JUMPDEST PUSH1 0x0 DUP1 REVERT JUMPDEST PUSH1 0x0 DUP1 PUSH2 0xA89 PUSH1 0x10 PUSH2 0x2243 JUMP JUMPDEST PUSH1 0x0 DUP1 PUSH2 0xA89 PUSH1 0xF PUSH2 0x2243 JUMP JUMPDEST PUSH1 0x0 DUP1 PUSH2 0x21A2 PUSH2 0x241F JUMP JUMPDEST PUSH1 0x1 PUSH1 0x1 PUSH1 0xA0 SHL SUB DUP5 AND PUSH1 0x0 SWAP1 DUP2 MSTORE PUSH1 0x20 DUP3 SWAP1 MSTORE PUSH1 0x40 SWAP1 KECCAK256 DUP1 SLOAD SWAP2 SWAP3 POP SWAP1 PUSH1 0x1 PUSH1 0xF8 SHL SWAP1 DIV PUSH1 0xFF AND ISZERO PUSH2 0x21FE JUMPI PUSH2 0x21D7 PUSH2 0x2EE7 JUMP JUMPDEST PUSH1 0x1 PUSH1 0x1 PUSH1 0xA0 SHL SUB DUP1 DUP7 AND PUSH1 0x0 SWAP1 DUP2 MSTORE PUSH1 0x20 SWAP3 SWAP1 SWAP3 MSTORE PUSH1 0x40 SWAP1 SWAP2 KECCAK256 SLOAD AND SWAP3 POP PUSH2 0x91E SWAP2 POP POP JUMP JUMPDEST PUSH1 0x0 SWAP3 POP POP POP PUSH2 0x91E JUMP JUMPDEST POP POP SWAP2 SWAP1 POP JUMP JUMPDEST PUSH2 0x2218 PUSH2 0x37BF JUMP JUMPDEST PUSH1 0x0 PUSH2 0x2222 PUSH2 0x280D JUMP JUMPDEST PUSH2 0xFFFF DUP5 AND PUSH1 0x0 SWAP1 DUP2 MSTORE PUSH1 0x20 SWAP2 SWAP1 SWAP2 MSTORE PUSH1 0x40 DUP2 KECCAK256 SLOAD SWAP2 POP PUSH2 0xD2A SWAP1 DUP3 PUSH2 0x2EF4 JUMP JUMPDEST PUSH1 0x0 PUSH3 0xF4240 DUP3 PUSH1 0x26 DUP2 GT ISZERO PUSH2 0x2255 JUMPI INVALID JUMPDEST ADD SWAP3 SWAP2 POP POP JUMP JUMPDEST PUSH1 0x0 DUP1 PUSH2 0xA89 PUSH1 0x21 PUSH2 0x2243 JUMP JUMPDEST PUSH1 0x0 DUP1 PUSH2 0x2275 DUP4 PUSH2 0x195D JUMP JUMPDEST PUSH1 0x1 PUSH1 0x1 PUSH1 0xA0 SHL SUB AND PUSH4 0xA77C05B8 PUSH1 0x40 MLOAD DUP2 PUSH4 0xFFFFFFFF AND PUSH1 0xE0 SHL DUP2 MSTORE PUSH1 0x4 ADD PUSH1 0x40 DUP1 MLOAD DUP1 DUP4 SUB DUP2 DUP7 DUP1 EXTCODESIZE ISZERO DUP1 ISZERO PUSH2 0x22AC JUMPI PUSH1 0x0 DUP1 REVERT JUMPDEST POP GAS STATICCALL ISZERO DUP1 ISZERO PUSH2 0x22C0 JUMPI RETURNDATASIZE PUSH1 0x0 DUP1 RETURNDATACOPY RETURNDATASIZE PUSH1 0x0 REVERT JUMPDEST POP POP POP POP PUSH1 0x40 MLOAD RETURNDATASIZE PUSH1 0x1F NOT PUSH1 0x1F DUP3 ADD AND DUP3 ADD DUP1 PUSH1 0x40 MSTORE POP DUP2 ADD SWAP1 PUSH2 0xEA5 SWAP2 SWAP1 PUSH2 0x3D55 JUMP JUMPDEST PUSH2 0x22EC PUSH2 0x3744 JUMP JUMPDEST PUSH1 0x0 DUP1 PUSH1 0x0 PUSH2 0x22FC DUP9 DUP7 DUP10 PUSH2 0x3013 JUMP JUMPDEST PUSH1 0xC0 DUP12 ADD SWAP3 SWAP1 SWAP3 MSTORE PUSH1 0xE0 DUP11 ADD SWAP3 SWAP1 SWAP3 MSTORE PUSH1 0x20 DUP10 ADD MLOAD SWAP2 SWAP4 POP SWAP2 POP PUSH2 0x2320 SWAP1 DUP4 PUSH2 0x311D JUMP JUMPDEST PUSH1 0x20 DUP9 ADD MSTORE PUSH1 0x80 DUP8 ADD MLOAD PUSH1 0x0 SWAP1 ISZERO PUSH2 0x234E JUMPI PUSH1 0x80 DUP9 ADD MLOAD PUSH2 0x234B SWAP1 PUSH2 0x2345 DUP10 DUP3 PUSH2 0x312F JUMP JUMPDEST SWAP1 PUSH2 0x3144 JUMP JUMPDEST SWAP1 POP JUMPDEST PUSH2 0x236E PUSH2 0x2363 PUSH8 0xDE0B6B3A7640000 DUP4 PUSH2 0x311D JUMP JUMPDEST PUSH1 0xA0 DUP11 ADD MLOAD SWAP1 PUSH2 0x315B JUMP JUMPDEST PUSH1 0xA0 DUP10 ADD MSTORE POP POP PUSH1 0x80 DUP7 ADD SWAP5 SWAP1 SWAP5 MSTORE POP POP DUP3 MSTORE SWAP1 SWAP3 SWAP1 SWAP2 POP JUMP JUMPDEST PUSH1 0x0 DUP3 PUSH2 0x2397 JUMPI POP PUSH1 0x0 PUSH2 0xA89 JUMP JUMPDEST DUP3 DUP3 MUL DUP3 DUP5 DUP3 DUP2 PUSH2 0x23A4 JUMPI INVALID JUMPDEST DIV EQ PUSH2 0xD2A JUMPI PUSH1 0x0 DUP1 REVERT JUMPDEST PUSH1 0x0 PUSH1 0x1 PUSH1 0x1 PUSH1 0xFF SHL SUB DUP3 GT ISZERO PUSH2 0x23C5 JUMPI PUSH1 0x0 DUP1 REVERT JUMPDEST POP SWAP1 JUMP JUMPDEST PUSH1 0x0 DUP1 PUSH2 0xA89 PUSH1 0x1D PUSH2 0x2243 JUMP JUMPDEST PUSH1 0x8 DUP2 SWAP1 SHR PUSH1 0xFF SWAP1 SWAP2 AND SHL SWAP1 JUMP JUMPDEST PUSH1 0x0 PUSH2 0xD2A PUSH15 0xC097CE7BC90715B34B9F1000000000 PUSH2 0x1B90 DUP6 PUSH1 0x0 ADD MLOAD DUP6 PUSH2 0x296B SWAP1 SWAP2 SWAP1 PUSH4 0xFFFFFFFF AND JUMP JUMPDEST PUSH1 0x0 DUP1 DUP3 SLT ISZERO PUSH2 0x23C5 JUMPI PUSH1 0x0 DUP1 REVERT JUMPDEST PUSH1 0x0 DUP1 PUSH2 0xA89 PUSH1 0x2 PUSH2 0x2243 JUMP JUMPDEST PUSH1 0x0 DUP1 PUSH2 0xA89 PUSH1 0x11 PUSH2 0x2243 JUMP JUMPDEST PUSH1 0x0 DUP1 PUSH1 0x0 DUP1 PUSH1 0x0 PUSH2 0x2449 PUSH2 0x2102 JUMP JUMPDEST PUSH1 0x1 PUSH1 0x1 PUSH1 0xA0 SHL SUB DUP10 AND PUSH1 0x0 SWAP1 DUP2 MSTORE PUSH1 0x20 DUP3 DUP2 MSTORE PUSH1 0x40 DUP1 DUP4 KECCAK256 PUSH2 0xFFFF DUP13 AND DUP5 MSTORE SWAP1 SWAP2 MSTORE SWAP1 KECCAK256 DUP1 SLOAD PUSH1 0x1 PUSH1 0x1 PUSH1 0x50 SHL SUB DUP2 AND SWAP7 POP PUSH1 0x1 PUSH1 0x50 SHL SWAP1 DIV PUSH4 0xFFFFFFFF AND SWAP5 POP SWAP1 SWAP2 POP DUP4 ISZERO PUSH2 0x24B6 JUMPI DUP1 SLOAD PUSH2 0x24AF SWAP1 PUSH1 0x1 PUSH1 0x70 SHL SWAP1 DIV PUSH7 0xFFFFFFFFFFFFFF AND PUSH2 0x23D6 JUMP JUMPDEST SWAP3 POP PUSH2 0x24CB JUMP JUMPDEST DUP1 SLOAD PUSH1 0x1 PUSH1 0x70 SHL SWAP1 DIV PUSH7 0xFFFFFFFFFFFFFF AND SWAP3 POP JUMPDEST DUP1 SLOAD PUSH2 0x24E6 SWAP1 DUP9 SWAP1 PUSH1 0x1 PUSH1 0xA8 SHL SWAP1 DIV PUSH1 0xA SWAP1 DUP2 SIGNEXTEND SWAP1 SIGNEXTEND PUSH2 0x3178 JUMP JUMPDEST SWAP6 POP POP POP SWAP4 POP SWAP4 POP SWAP4 POP SWAP4 JUMP JUMPDEST PUSH1 0x0 DUP1 PUSH2 0xA89 PUSH1 0x3 PUSH2 0x2243 JUMP JUMPDEST DUP3 PUSH1 0x1 GT ISZERO DUP1 ISZERO PUSH2 0x2515 JUMPI POP DUP5 PUSH1 0x20 ADD MLOAD DUP4 GT ISZERO JUMPDEST PUSH2 0x2531 JUMPI PUSH1 0x40 MLOAD PUSH3 0x461BCD PUSH1 0xE5 SHL DUP2 MSTORE PUSH1 0x4 ADD PUSH2 0x309 SWAP1 PUSH2 0x42C2 JUMP JUMPDEST PUSH1 0x0 PUSH2 0x254E PUSH2 0x253F DUP6 PUSH2 0x319F JUMP JUMPDEST PUSH2 0x2548 DUP5 PUSH2 0x3243 JUMP JUMPDEST SWAP1 PUSH2 0x311D JUMP JUMPDEST SWAP1 POP PUSH2 0x2573 DUP7 PUSH1 0x0 ADD MLOAD PUSH2 0xFFFF AND DUP3 DUP5 DUP7 PUSH2 0x2568 DUP12 PUSH2 0x1BC8 JUMP JUMPDEST DUP11 SWAP5 SWAP4 SWAP3 SWAP2 SWAP1 PUSH2 0x3264 JUMP JUMPDEST POP POP POP POP POP POP JUMP JUMPDEST PUSH2 0x2583 PUSH2 0x3790 JUMP JUMPDEST PUSH1 0x0 PUSH2 0x258D PUSH2 0x328E JUMP JUMPDEST PUSH1 0x0 DUP6 DUP2 MSTORE PUSH1 0x20 DUP3 DUP2 MSTORE PUSH1 0x40 DUP1 DUP4 KECCAK256 DUP8 ISZERO ISZERO DUP5 MSTORE DUP3 MSTORE SWAP2 DUP3 SWAP1 KECCAK256 DUP3 MLOAD PUSH1 0xA0 DUP2 ADD DUP5 MSTORE DUP2 SLOAD PUSH1 0x1 PUSH1 0x1 PUSH1 0xA0 SHL SUB DUP2 AND DUP3 MSTORE PUSH1 0xFF PUSH1 0x1 PUSH1 0xA0 SHL DUP3 DIV DUP2 AND ISZERO ISZERO SWAP5 DUP4 ADD SWAP5 SWAP1 SWAP5 MSTORE PUSH1 0x1 PUSH1 0xB0 SHL DUP2 DIV DUP5 AND PUSH1 0xA EXP SWAP5 DUP3 ADD SWAP5 SWAP1 SWAP5 MSTORE SWAP4 SWAP5 POP SWAP3 SWAP2 PUSH1 0x60 DUP4 ADD SWAP2 PUSH1 0x1 PUSH1 0xA8 SHL SWAP1 SWAP2 DIV AND PUSH1 0x5 DUP2 GT ISZERO PUSH2 0x2602 JUMPI INVALID JUMPDEST DUP2 MSTORE PUSH1 0x0 PUSH1 0x20 SWAP1 SWAP2 ADD MSTORE SWAP6 SWAP5 POP POP POP POP POP JUMP JUMPDEST PUSH1 0x0 DUP1 PUSH2 0xA89 PUSH1 0x1F PUSH2 0x2243 JUMP JUMPDEST PUSH1 0x0 PUSH2 0xD2A PUSH2 0x2635 DUP5 PUSH4 0x3B9ACA00 PUSH2 0x2388 JUMP JUMPDEST DUP4 PUSH2 0x329B JUMP JUMPDEST PUSH1 0x0 DUP1 DUP4 PUSH1 0x80 ADD MLOAD GT PUSH2 0x264D JUMPI PUSH1 0x0 DUP1 REVERT JUMPDEST PUSH4 0x3B9ACA00 DUP3 GT ISZERO PUSH2 0x265E JUMPI PUSH1 0x0 DUP1 REVERT JUMPDEST DUP3 MLOAD DUP3 GT PUSH2 0x268A JUMPI DUP3 MLOAD PUSH1 0x40 DUP5 ADD MLOAD PUSH2 0x2683 SWAP2 SWAP1 PUSH2 0x267D SWAP1 DUP6 SWAP1 PUSH2 0x2388 JUMP JUMPDEST SWAP1 PUSH2 0x329B JUMP JUMPDEST SWAP1 POP PUSH2 0xA89 JUMP JUMPDEST DUP3 PUSH1 0x20 ADD MLOAD DUP3 GT PUSH2 0x26C2 JUMPI PUSH1 0x40 DUP4 ADD MLOAD DUP4 MLOAD PUSH1 0x20 DUP6 ADD MLOAD PUSH1 0x60 DUP7 ADD MLOAD PUSH2 0x2683 SWAP4 SWAP3 PUSH2 0x2548 SWAP3 DUP2 SWAP1 SUB SWAP2 PUSH2 0x267D SWAP2 DUP9 SUB SWAP1 DUP6 SWAP1 SUB PUSH2 0x2388 JUMP JUMPDEST PUSH2 0xD2A DUP4 PUSH1 0x60 ADD MLOAD PUSH2 0x2548 DUP6 PUSH1 0x20 ADD MLOAD PUSH4 0x3B9ACA00 SUB PUSH2 0x267D DUP8 PUSH1 0x60 ADD MLOAD DUP9 PUSH1 0x80 ADD MLOAD SUB DUP9 PUSH1 0x20 ADD MLOAD DUP9 SUB PUSH2 0x2388 SWAP1 SWAP2 SWAP1 PUSH4 0xFFFFFFFF AND JUMP JUMPDEST PUSH1 0x0 DUP1 PUSH2 0x271A PUSH1 0x64 PUSH2 0x267D DUP8 PUSH1 0xE0 ADD MLOAD DUP8 PUSH2 0x2388 SWAP1 SWAP2 SWAP1 PUSH4 0xFFFFFFFF AND JUMP JUMPDEST SWAP1 POP DUP5 PUSH1 0xA0 ADD MLOAD DUP2 LT ISZERO PUSH2 0x272F JUMPI POP PUSH1 0xA0 DUP5 ADD MLOAD JUMPDEST DUP5 PUSH1 0xC0 ADD MLOAD DUP2 GT ISZERO PUSH2 0x2742 JUMPI POP PUSH1 0xC0 DUP5 ADD MLOAD JUMPDEST DUP3 ISZERO PUSH2 0x2759 JUMPI PUSH2 0x2752 DUP5 DUP3 PUSH2 0x311D JUMP JUMPDEST SWAP2 POP PUSH2 0x1E4B JUMP JUMPDEST DUP4 DUP2 GT PUSH2 0x2768 JUMPI DUP1 DUP5 SUB PUSH2 0xD26 JUMP JUMPDEST PUSH1 0x0 SWAP6 SWAP5 POP POP POP POP POP JUMP JUMPDEST PUSH1 0x0 PUSH2 0xD2A PUSH2 0x2782 DUP5 DUP5 PUSH2 0x2388 JUMP JUMPDEST PUSH4 0x3B9ACA00 PUSH2 0x329B JUMP JUMPDEST PUSH1 0x0 DUP1 PUSH2 0x2797 PUSH2 0x32BA JUMP JUMPDEST PUSH1 0x0 SWAP4 DUP5 MSTORE PUSH1 0x20 MSTORE POP POP PUSH1 0x40 SWAP1 KECCAK256 SLOAD SWAP1 JUMP JUMPDEST PUSH1 0x0 DUP1 PUSH2 0xA89 PUSH1 0x1C PUSH2 0x2243 JUMP JUMPDEST PUSH2 0x27BE PUSH2 0x37BF JUMP JUMPDEST PUSH1 0x0 PUSH2 0x27C9 DUP5 PUSH2 0x32C7 JUMP JUMPDEST PUSH2 0xFFFF DUP7 AND PUSH1 0x0 SWAP1 DUP2 MSTORE PUSH1 0x20 DUP6 SWAP1 MSTORE PUSH1 0x40 DUP2 KECCAK256 SWAP2 SWAP3 POP SWAP1 PUSH1 0x4 DUP7 LT PUSH2 0x27EF JUMPI PUSH1 0x1 PUSH2 0x27F2 JUMP JUMPDEST PUSH1 0x0 JUMPDEST PUSH1 0xFF AND PUSH1 0x2 DUP2 LT PUSH2 0x27FF JUMPI INVALID JUMPDEST ADD SLOAD SWAP1 POP PUSH2 0x1196 DUP3 DUP3 PUSH2 0x2EF4 JUMP JUMPDEST PUSH1 0x0 DUP1 PUSH2 0xA89 PUSH1 0x1B PUSH2 0x2243 JUMP JUMPDEST PUSH1 0x0 DUP1 PUSH2 0xA89 PUSH1 0x5 PUSH2 0x2243 JUMP JUMPDEST PUSH1 0x60 DUP1 PUSH1 0x0 DUP1 DUP5 PUSH8 0xFFFFFFFFFFFFFFFF DUP2 GT DUP1 ISZERO PUSH2 0x2844 JUMPI PUSH1 0x0 DUP1 REVERT JUMPDEST POP PUSH1 0x40 MLOAD SWAP1 DUP1 DUP3 MSTORE DUP1 PUSH1 0x20 MUL PUSH1 0x20 ADD DUP3 ADD PUSH1 0x40 MSTORE DUP1 ISZERO PUSH2 0x286E JUMPI DUP2 PUSH1 0x20 ADD PUSH1 0x20 DUP3 MUL DUP1 CALLDATASIZE DUP4 CALLDATACOPY ADD SWAP1 POP JUMPDEST POP SWAP1 POP PUSH1 0x0 DUP6 PUSH8 0xFFFFFFFFFFFFFFFF DUP2 GT DUP1 ISZERO PUSH2 0x288A JUMPI PUSH1 0x0 DUP1 REVERT JUMPDEST POP PUSH1 0x40 MLOAD SWAP1 DUP1 DUP3 MSTORE DUP1 PUSH1 0x20 MUL PUSH1 0x20 ADD DUP3 ADD PUSH1 0x40 MSTORE DUP1 ISZERO PUSH2 0x28B4 JUMPI DUP2 PUSH1 0x20 ADD PUSH1 0x20 DUP3 MUL DUP1 CALLDATASIZE DUP4 CALLDATACOPY ADD SWAP1 POP JUMPDEST POP SWAP1 POP PUSH1 0x0 JUMPDEST DUP7 DUP2 LT ISZERO PUSH2 0x295E JUMPI DUP8 DUP5 PUSH1 0xE DUP2 LT PUSH2 0x28CE JUMPI INVALID JUMPDEST PUSH1 0x8 SWAP2 DUP3 DUP3 DIV ADD SWAP2 SWAP1 MOD PUSH1 0x4 MUL SWAP1 SLOAD SWAP1 PUSH2 0x100 EXP SWAP1 DIV PUSH4 0xFFFFFFFF AND PUSH4 0xFFFFFFFF AND DUP4 DUP3 DUP2 MLOAD DUP2 LT PUSH2 0x28FC JUMPI INVALID JUMPDEST PUSH1 0x20 SWAP1 DUP2 MUL SWAP2 SWAP1 SWAP2 ADD ADD MSTORE PUSH1 0x1 SWAP1 SWAP4 ADD SWAP3 DUP8 DUP5 PUSH1 0xE DUP2 LT PUSH2 0x2919 JUMPI INVALID JUMPDEST PUSH1 0x8 SWAP2 DUP3 DUP3 DIV ADD SWAP2 SWAP1 MOD PUSH1 0x4 MUL SWAP1 SLOAD SWAP1 PUSH2 0x100 EXP SWAP1 DIV PUSH4 0xFFFFFFFF AND PUSH4 0xFFFFFFFF AND DUP3 DUP3 DUP2 MLOAD DUP2 LT PUSH2 0x2947 JUMPI INVALID JUMPDEST PUSH1 0x20 SWAP1 DUP2 MUL SWAP2 SWAP1 SWAP2 ADD ADD MSTORE PUSH1 0x1 SWAP4 DUP5 ADD SWAP4 ADD PUSH2 0x28BA JUMP JUMPDEST POP SWAP1 SWAP7 SWAP1 SWAP6 POP SWAP4 POP POP POP POP JUMP JUMPDEST DUP2 DUP2 MUL PUSH1 0x0 NOT DUP4 EQ ISZERO PUSH2 0x299B JUMPI DUP2 ISZERO DUP1 PUSH2 0x298D JUMPI POP DUP3 DUP3 DUP3 DUP2 PUSH2 0x298A JUMPI INVALID JUMPDEST SDIV EQ JUMPDEST PUSH2 0x2996 JUMPI PUSH1 0x0 DUP1 REVERT JUMPDEST PUSH2 0xA89 JUMP JUMPDEST DUP3 ISZERO DUP1 PUSH2 0x29B0 JUMPI POP DUP2 DUP4 DUP3 DUP2 PUSH2 0x29AD JUMPI INVALID JUMPDEST SDIV EQ JUMPDEST PUSH2 0xA89 JUMPI PUSH1 0x0 DUP1 REVERT JUMPDEST PUSH1 0x0 DUP2 PUSH1 0x0 NOT EQ DUP1 ISZERO PUSH2 0x29CF JUMPI POP PUSH1 0x1 PUSH1 0xFF SHL DUP4 EQ JUMPDEST ISZERO PUSH2 0x29D9 JUMPI PUSH1 0x0 DUP1 REVERT JUMPDEST DUP2 DUP4 DUP2 PUSH2 0x29E2 JUMPI INVALID JUMPDEST SDIV SWAP4 SWAP3 POP POP POP JUMP JUMPDEST PUSH2 0x29F2 PUSH2 0x3978 JUMP JUMPDEST PUSH1 0x0 PUSH2 0x2A01 DUP5 PUSH2 0xFFFF AND PUSH2 0x278C JUMP JUMPDEST PUSH1 0x40 DUP1 MLOAD PUSH1 0x80 DUP2 ADD DUP3 MSTORE PUSH2 0xFFFF SWAP7 SWAP1 SWAP7 AND DUP7 MSTORE PUSH1 0xFF DUP3 AND PUSH1 0x20 DUP8 ADD MSTORE DUP6 ADD SWAP4 SWAP1 SWAP4 MSTORE POP POP PUSH1 0x60 DUP3 ADD MSTORE SWAP1 JUMP JUMPDEST PUSH1 0x0 PUSH2 0x2A37 PUSH2 0x3300 JUMP JUMPDEST PUSH1 0x0 DUP7 DUP2 MSTORE PUSH1 0x20 DUP3 DUP2 MSTORE PUSH1 0x40 DUP1 DUP4 KECCAK256 DUP9 DUP5 MSTORE DUP3 MSTORE DUP1 DUP4 KECCAK256 DUP7 DUP5 MSTORE DUP3 MSTORE SWAP2 DUP3 SWAP1 KECCAK256 DUP1 DUP11 MSTORE SWAP1 DUP10 ADD DUP8 SWAP1 MSTORE DUP1 SLOAD PUSH1 0x1 PUSH1 0x1 PUSH1 0x50 SHL SUB DUP1 DUP3 AND SWAP4 DUP12 ADD SWAP4 SWAP1 SWAP4 MSTORE PUSH1 0x1 PUSH1 0x50 SHL DUP2 DIV SWAP1 SWAP3 AND PUSH1 0x60 DUP11 ADD MSTORE PUSH4 0xFFFFFFFF PUSH1 0x1 PUSH1 0xA0 SHL DUP4 DIV DUP2 AND PUSH1 0xA0 DUP12 ADD MSTORE PUSH1 0x1 PUSH1 0xC0 SHL DUP4 DIV DUP2 AND PUSH1 0xC0 DUP12 ADD MSTORE PUSH1 0x1 PUSH1 0xE0 SHL SWAP1 SWAP3 DIV SWAP1 SWAP2 AND PUSH1 0xE0 DUP10 ADD MSTORE SWAP1 SWAP2 POP DUP1 DUP5 ISZERO PUSH2 0x2AD6 JUMPI PUSH1 0x1 DUP3 ADD SLOAD PUSH1 0x1 PUSH1 0x1 PUSH1 0x50 SHL SUB AND PUSH1 0x80 DUP10 ADD MSTORE PUSH2 0x2ADE JUMP JUMPDEST PUSH1 0x0 PUSH1 0x80 DUP10 ADD MSTORE JUMPDEST POP POP POP POP POP POP POP POP JUMP JUMPDEST PUSH1 0x0 DUP1 DUP4 GT PUSH2 0x2AF6 JUMPI PUSH1 0x0 DUP1 REVERT JUMPDEST DUP2 DUP7 GT ISZERO PUSH2 0x2B05 JUMPI POP DUP4 PUSH2 0x11D0 JUMP JUMPDEST PUSH1 0x0 PUSH2 0x2B11 DUP4 DUP9 PUSH2 0x312F JUMP JUMPDEST SWAP1 POP DUP4 DUP2 GT ISZERO PUSH2 0x2B24 JUMPI DUP6 SWAP2 POP POP PUSH2 0x11D0 JUMP JUMPDEST PUSH1 0x0 PUSH2 0x2B30 DUP3 DUP7 PUSH2 0x2622 JUMP JUMPDEST SWAP1 POP PUSH1 0x0 PUSH2 0x2B42 PUSH4 0x3B9ACA00 DUP4 PUSH2 0x312F JUMP JUMPDEST SWAP1 POP PUSH2 0x2B63 PUSH4 0x3B9ACA00 PUSH2 0x267D PUSH2 0x2B59 DUP11 DUP6 PUSH2 0x2388 JUMP JUMPDEST PUSH2 0x2548 DUP13 DUP8 PUSH2 0x2388 JUMP JUMPDEST SWAP10 SWAP9 POP POP POP POP POP POP POP POP POP JUMP JUMPDEST PUSH1 0x0 DUP1 PUSH2 0xA89 PUSH1 0xB PUSH2 0x2243 JUMP JUMPDEST PUSH1 0x0 DUP1 PUSH2 0xA89 PUSH1 0xC PUSH2 0x2243 JUMP JUMPDEST PUSH1 0x0 DUP1 PUSH2 0xA89 PUSH1 0x4 PUSH2 0x2243 JUMP JUMPDEST PUSH1 0x60 DUP1 PUSH2 0x2BA4 DUP5 DUP5 PUSH2 0x330D JUMP JUMPDEST SWAP2 POP PUSH2 0x2BAF DUP3 PUSH2 0x3425 JUMP JUMPDEST SWAP1 POP SWAP3 POP SWAP3 SWAP1 POP JUMP JUMPDEST PUSH1 0x1 DUP2 SWAP1 SHR PUSH32 0x5555555555555555555555555555555555555555555555555555555555555555 SWAP1 DUP2 AND SWAP2 AND ADD PUSH1 0x2 DUP2 SWAP1 SHR PUSH32 0x3333333333333333333333333333333333333333333333333333333333333333 SWAP1 DUP2 AND SWAP2 AND ADD PUSH1 0x4 DUP2 SWAP1 SHR PUSH32 0x707070707070707070707070707070707070707070707070707070707070707 SWAP2 SWAP1 SWAP2 AND ADD PUSH1 0x8 DUP2 SWAP1 SHR PUSH31 0xF000F000F000F000F000F000F000F000F000F000F000F000F000F000F000F SWAP1 DUP2 AND SWAP2 AND ADD PUSH1 0x10 DUP2 SWAP1 SHR ADD PUSH1 0x20 DUP2 SWAP1 SHR ADD PUSH1 0x40 DUP2 SWAP1 SHR ADD PUSH1 0x80 DUP2 SWAP1 SHR PUSH1 0xFF SWAP1 DUP2 AND SWAP2 AND ADD SWAP1 JUMP JUMPDEST PUSH1 0x0 DUP2 PUSH2 0x2C97 JUMPI POP PUSH1 0x0 PUSH2 0x91E JUMP JUMPDEST PUSH2 0x2CA0 DUP3 PUSH2 0x35DF JUMP JUMPDEST PUSH1 0xFF SUB PUSH1 0x1 ADD SWAP1 POP SWAP2 SWAP1 POP JUMP JUMPDEST PUSH1 0x0 DUP2 PUSH2 0x2CB9 JUMPI PUSH1 0x0 DUP1 REVERT JUMPDEST PUSH2 0x100 DUP3 GT ISZERO PUSH2 0x2CC8 JUMPI PUSH1 0x0 DUP1 REVERT JUMPDEST PUSH1 0x0 PUSH2 0x2CD3 DUP5 PUSH2 0x3678 JUMP JUMPDEST SWAP1 POP PUSH1 0x0 PUSH1 0x5A DUP5 GT PUSH2 0x2CEE JUMPI POP PUSH3 0x15180 DUP4 MUL ADD SWAP1 POP PUSH2 0xA89 JUMP JUMPDEST PUSH1 0x87 DUP5 GT PUSH2 0x2D16 JUMPI POP PUSH1 0x59 NOT DUP4 ADD PUSH3 0x7E900 SWAP1 DUP2 MUL SWAP1 DUP3 MOD SWAP1 SWAP2 SUB ADD PUSH3 0x76A700 ADD SWAP1 POP PUSH2 0xA89 JUMP JUMPDEST PUSH1 0xC3 DUP5 GT PUSH2 0x2D3F JUMPI POP PUSH1 0x86 NOT DUP4 ADD PUSH3 0x278D00 SWAP1 DUP2 MUL SWAP1 DUP3 MOD SWAP1 SWAP2 SUB ADD PUSH4 0x1DA9C00 ADD SWAP1 POP PUSH2 0xA89 JUMP JUMPDEST POP PUSH1 0xC2 NOT DUP4 ADD PUSH3 0x76A700 SWAP1 DUP2 MUL SWAP1 DUP3 MOD SWAP1 SWAP2 SUB ADD PUSH4 0xB1FA800 ADD SWAP1 POP PUSH2 0xA89 JUMP JUMPDEST PUSH1 0x0 PUSH1 0x1 DUP4 LT ISZERO DUP1 ISZERO PUSH2 0x2D75 JUMPI POP PUSH2 0x100 DUP4 GT ISZERO JUMPDEST PUSH2 0x2D7E JUMPI PUSH1 0x0 DUP1 REVERT JUMPDEST DUP2 ISZERO PUSH2 0x2D97 JUMPI POP PUSH1 0x1 PUSH1 0xFF SHL PUSH1 0x0 NOT DUP4 ADD SHR DUP4 OR PUSH2 0xD2A JUMP JUMPDEST POP PUSH1 0x1 PUSH1 0xFF SHL PUSH1 0x0 NOT DUP4 ADD SHR NOT DUP4 AND PUSH2 0xD2A JUMP JUMPDEST PUSH1 0x0 DUP1 PUSH2 0xA89 PUSH1 0x1 PUSH2 0x2243 JUMP JUMPDEST PUSH2 0x2DC0 PUSH2 0x3723 JUMP JUMPDEST PUSH1 0x0 DUP1 PUSH2 0x2DCB PUSH2 0x3694 JUMP JUMPDEST PUSH2 0xFFFF DUP7 AND PUSH1 0x0 SWAP1 DUP2 MSTORE PUSH1 0x20 DUP3 DUP2 MSTORE PUSH1 0x40 DUP1 DUP4 KECCAK256 DUP9 DUP5 MSTORE SWAP1 SWAP2 MSTORE SWAP1 KECCAK256 DUP1 SLOAD PUSH1 0x1 PUSH1 0xF0 SHL SWAP1 DIV PUSH1 0xFF AND SWAP4 POP SWAP1 SWAP2 POP DUP3 ISZERO PUSH2 0x2E42 JUMPI DUP1 SLOAD PUSH1 0x1 PUSH1 0x1 PUSH1 0x50 SHL SUB PUSH1 0x1 PUSH1 0xA0 SHL DUP3 DIV DUP2 AND SWAP2 PUSH2 0x2E1D SWAP2 AND DUP3 PUSH2 0x2388 JUMP JUMPDEST DUP6 MSTORE DUP2 SLOAD PUSH2 0x2E3B SWAP1 PUSH1 0x1 PUSH1 0x50 SHL SWAP1 DIV PUSH1 0x1 PUSH1 0x1 PUSH1 0x50 SHL SUB AND DUP3 PUSH2 0x2388 JUMP JUMPDEST PUSH1 0x20 DUP7 ADD MSTORE POP JUMPDEST POP POP SWAP3 POP SWAP3 SWAP1 POP JUMP JUMPDEST PUSH1 0x0 DUP1 PUSH2 0xA89 PUSH1 0x22 PUSH2 0x2243 JUMP JUMPDEST PUSH1 0x0 PUSH2 0x3FFF PUSH2 0xFFFF DUP6 AND GT ISZERO PUSH2 0x2E6D JUMPI PUSH1 0x0 DUP1 REVERT JUMPDEST PUSH5 0xFFFFFFFFFF DUP4 GT ISZERO PUSH2 0x2E7F JUMPI PUSH1 0x0 DUP1 REVERT JUMPDEST PUSH2 0x2E89 DUP5 DUP5 PUSH2 0x36A1 JUMP JUMPDEST SWAP1 POP PUSH1 0x0 DUP3 SLT ISZERO PUSH2 0xD2A JUMPI PUSH1 0x1 PUSH1 0x40 SHL OR SWAP4 SWAP3 POP POP POP JUMP JUMPDEST PUSH9 0x10000000000000000 PUSH1 0x1 PUSH1 0xE0 SHL SUB PUSH1 0x40 DUP6 SWAP1 SHL AND PUSH2 0xFFFF PUSH1 0x30 SHL PUSH1 0x30 DUP6 SWAP1 SHL AND OR PUSH1 0x8 DUP4 SWAP1 SHL OR DUP2 OR SWAP5 SWAP4 POP POP POP POP JUMP JUMPDEST PUSH1 0xC PUSH1 0x30 SWAP2 SWAP1 SWAP2 SHL PUSH2 0xFFFF PUSH1 0x30 SHL AND OR SWAP1 JUMP JUMPDEST PUSH1 0x0 DUP1 PUSH2 0xA89 PUSH1 0x12 PUSH2 0x2243 JUMP JUMPDEST PUSH2 0x2EFC PUSH2 0x37BF JUMP JUMPDEST PUSH1 0x64 PUSH4 0x3B9ACA00 DUP4 PUSH1 0xFF DUP7 AND PUSH1 0x20 DUP2 LT PUSH2 0x2F12 JUMPI INVALID JUMPDEST BYTE MUL DUP2 PUSH2 0x2F1B JUMPI INVALID JUMPDEST DIV DUP2 MSTORE PUSH1 0x64 PUSH4 0x3B9ACA00 DUP4 PUSH1 0xFF DUP7 AND PUSH1 0x1 ADD PUSH1 0x20 DUP2 LT PUSH2 0x2F37 JUMPI INVALID JUMPDEST BYTE MUL DUP2 PUSH2 0x2F40 JUMPI INVALID JUMPDEST DIV DUP2 PUSH1 0x20 ADD DUP2 DUP2 MSTORE POP POP PUSH2 0x2F65 DUP3 PUSH1 0x2 DUP6 PUSH1 0xFF AND ADD PUSH1 0x20 DUP2 LT PUSH2 0x2F5F JUMPI INVALID JUMPDEST BYTE PUSH2 0x36BC JUMP JUMPDEST PUSH1 0x80 DUP3 ADD DUP2 SWAP1 MSTORE PUSH2 0x100 SWAP1 DUP4 PUSH1 0xFF DUP7 AND PUSH1 0x3 ADD PUSH1 0x20 DUP2 LT PUSH2 0x2F82 JUMPI INVALID JUMPDEST BYTE MUL DUP2 PUSH2 0x2F8B JUMPI INVALID JUMPDEST DIV PUSH1 0x40 DUP3 ADD MSTORE PUSH1 0x80 DUP2 ADD MLOAD PUSH2 0x100 SWAP1 DUP4 PUSH1 0xFF DUP7 AND PUSH1 0x4 ADD PUSH1 0x20 DUP2 LT PUSH2 0x2FAC JUMPI INVALID JUMPDEST BYTE MUL DUP2 PUSH2 0x2FB5 JUMPI INVALID JUMPDEST DIV PUSH1 0x60 DUP3 ADD MSTORE PUSH3 0x7A120 DUP3 PUSH1 0xFF DUP6 AND PUSH1 0x5 ADD PUSH1 0x20 DUP2 LT PUSH2 0x2FD1 JUMPI INVALID JUMPDEST BYTE MUL PUSH1 0xA0 DUP3 ADD MSTORE PUSH3 0x2625A0 DUP3 PUSH1 0xFF DUP6 AND PUSH1 0x6 ADD PUSH1 0x20 DUP2 LT PUSH2 0x2FEE JUMPI INVALID JUMPDEST BYTE MUL PUSH1 0xC0 DUP3 ADD MSTORE DUP2 PUSH1 0xFF DUP5 AND PUSH1 0x7 ADD PUSH1 0x20 DUP2 LT PUSH2 0x3007 JUMPI INVALID JUMPDEST BYTE PUSH1 0xE0 DUP3 ADD MSTORE SWAP3 SWAP2 POP POP JUMP JUMPDEST PUSH1 0x0 DUP1 PUSH1 0x0 DUP1 PUSH1 0x0 DUP1 PUSH2 0x3026 DUP10 DUP9 PUSH2 0x198D JUMP JUMPDEST DUP10 MLOAD SWAP1 SWAP6 POP SWAP2 SWAP4 POP SWAP2 POP PUSH1 0x0 SWAP1 PUSH2 0x304D SWAP1 PUSH2 0x3042 SWAP1 DUP12 SWAP1 PUSH2 0x312F JUMP JUMPDEST PUSH4 0x3B9ACA00 SWAP1 PUSH2 0x2388 JUMP JUMPDEST SWAP1 POP PUSH2 0x3087 PUSH2 0x307C PUSH4 0x1DA9C00 PUSH2 0x3064 DUP6 DUP6 PUSH2 0x2388 JUMP JUMPDEST DUP2 PUSH2 0x306B JUMPI INVALID JUMPDEST PUSH8 0xDE0B6B3A7640000 SWAP2 SWAP1 DIV PUSH2 0x311D JUMP JUMPDEST PUSH1 0xE0 DUP11 ADD MLOAD SWAP1 PUSH2 0x315B JUMP JUMPDEST SWAP7 POP PUSH2 0x30A9 PUSH2 0x309E PUSH4 0x1DA9C00 PUSH2 0x3064 DUP8 DUP6 PUSH2 0x2388 JUMP JUMPDEST PUSH1 0xC0 DUP11 ADD MLOAD SWAP1 PUSH2 0x315B JUMP JUMPDEST SWAP6 POP DUP2 DUP4 EQ ISZERO PUSH2 0x30C0 JUMPI POP PUSH1 0x0 SWAP4 POP PUSH2 0x182C SWAP2 POP POP JUMP JUMPDEST PUSH1 0x0 PUSH2 0x30E2 PUSH2 0x30D7 PUSH4 0x1DA9C00 PUSH2 0x3064 DUP8 DUP7 PUSH2 0x2388 JUMP JUMPDEST PUSH1 0xE0 DUP12 ADD MLOAD SWAP1 PUSH2 0x315B JUMP JUMPDEST SWAP1 POP PUSH1 0x0 PUSH2 0x30F0 DUP10 DUP4 PUSH2 0x312F JUMP JUMPDEST SWAP1 POP PUSH2 0x310D DUP9 PUSH2 0x267D DUP4 DUP14 PUSH1 0x40 ADD MLOAD PUSH2 0x2388 SWAP1 SWAP2 SWAP1 PUSH4 0xFFFFFFFF AND JUMP JUMPDEST SWAP7 POP POP POP POP POP POP SWAP4 POP SWAP4 POP SWAP4 POP SWAP4 JUMP JUMPDEST PUSH1 0x0 DUP3 DUP3 ADD DUP4 DUP2 LT ISZERO PUSH2 0xD2A JUMPI PUSH1 0x0 DUP1 REVERT JUMPDEST PUSH1 0x0 DUP3 DUP3 GT ISZERO PUSH2 0x313E JUMPI PUSH1 0x0 DUP1 REVERT JUMPDEST POP SWAP1 SUB SWAP1 JUMP JUMPDEST PUSH1 0x0 PUSH2 0xD2A PUSH2 0x2635 DUP5 PUSH8 0xDE0B6B3A7640000 PUSH2 0x2388 JUMP JUMPDEST PUSH1 0x0 PUSH2 0xD2A PUSH2 0x316A DUP5 DUP5 PUSH2 0x2388 JUMP JUMPDEST PUSH8 0xDE0B6B3A7640000 PUSH2 0x329B JUMP JUMPDEST PUSH1 0x0 DUP1 DUP3 SLT PUSH2 0x3188 JUMPI POP DUP1 PUSH2 0xA89 JUMP JUMPDEST DUP3 MLOAD PUSH1 0x20 DUP5 ADD MLOAD PUSH2 0x2683 SWAP2 SWAP1 PUSH2 0x1B90 SWAP1 DUP6 SWAP1 PUSH2 0x296B JUMP JUMPDEST PUSH1 0x0 DUP2 PUSH1 0x1 EQ ISZERO PUSH2 0x31B4 JUMPI POP PUSH3 0x76A700 PUSH2 0x91E JUMP JUMPDEST DUP2 PUSH1 0x2 EQ ISZERO PUSH2 0x31C7 JUMPI POP PUSH3 0xED4E00 PUSH2 0x91E JUMP JUMPDEST DUP2 PUSH1 0x3 EQ ISZERO PUSH2 0x31DB JUMPI POP PUSH4 0x1DA9C00 PUSH2 0x91E JUMP JUMPDEST DUP2 PUSH1 0x4 EQ ISZERO PUSH2 0x31EF JUMPI POP PUSH4 0x3B53800 PUSH2 0x91E JUMP JUMPDEST DUP2 PUSH1 0x5 EQ ISZERO PUSH2 0x3203 JUMPI POP PUSH4 0x9450C00 PUSH2 0x91E JUMP JUMPDEST DUP2 PUSH1 0x6 EQ ISZERO PUSH2 0x3217 JUMPI POP PUSH4 0x128A1800 PUSH2 0x91E JUMP JUMPDEST DUP2 PUSH1 0x7 EQ ISZERO PUSH2 0x322B JUMPI POP PUSH4 0x25143000 PUSH2 0x91E JUMP JUMPDEST PUSH1 0x40 MLOAD PUSH3 0x461BCD PUSH1 0xE5 SHL DUP2 MSTORE PUSH1 0x4 ADD PUSH2 0x309 SWAP1 PUSH2 0x429B JUMP JUMPDEST PUSH1 0x0 PUSH3 0x76A700 DUP3 LT ISZERO PUSH2 0x3255 JUMPI PUSH1 0x0 DUP1 REVERT JUMPDEST PUSH3 0x76A700 DUP3 JUMPDEST MOD SWAP1 SWAP2 SUB SWAP2 SWAP1 POP JUMP JUMPDEST PUSH1 0x0 PUSH3 0x76A700 PUSH2 0x3273 DUP6 PUSH2 0x3243 JUMP JUMPDEST ADD SWAP1 POP PUSH2 0x3285 DUP8 DUP8 DUP8 DUP8 DUP8 DUP8 DUP8 PUSH2 0x1BDC JUMP JUMPDEST POP POP POP POP POP POP POP JUMP JUMPDEST PUSH1 0x0 DUP1 PUSH2 0xA89 PUSH1 0x7 PUSH2 0x2243 JUMP JUMPDEST PUSH1 0x0 DUP1 DUP3 GT PUSH2 0x32A9 JUMPI PUSH1 0x0 DUP1 REVERT JUMPDEST DUP2 DUP4 DUP2 PUSH2 0x32B2 JUMPI INVALID JUMPDEST DIV SWAP4 SWAP3 POP POP POP JUMP JUMPDEST PUSH1 0x0 DUP1 PUSH2 0xA89 PUSH1 0x9 PUSH2 0x2243 JUMP JUMPDEST PUSH1 0x0 DUP2 PUSH1 0x0 LT PUSH2 0x32D6 JUMPI PUSH1 0x0 DUP1 REVERT JUMPDEST PUSH1 0x7 DUP3 GT ISZERO PUSH2 0x32E4 JUMPI PUSH1 0x0 DUP1 REVERT JUMPDEST PUSH1 0x4 DUP3 LT PUSH2 0x32F5 JUMPI PUSH1 0x4 DUP3 SUB PUSH2 0x32F7 JUMP JUMPDEST DUP2 JUMPDEST PUSH1 0x8 MUL SWAP3 SWAP2 POP POP JUMP JUMPDEST PUSH1 0x0 DUP1 PUSH2 0xA89 PUSH1 0xA PUSH2 0x2243 JUMP JUMPDEST PUSH1 0x60 PUSH1 0x8 DUP3 PUSH1 0xFF AND GT ISZERO PUSH2 0x3320 JUMPI PUSH1 0x0 DUP1 REVERT JUMPDEST PUSH1 0x0 PUSH2 0x332A PUSH2 0x36F0 JUMP JUMPDEST PUSH1 0x1 PUSH1 0x1 PUSH1 0xA0 SHL SUB DUP6 AND PUSH1 0x0 SWAP1 DUP2 MSTORE PUSH1 0x20 DUP3 SWAP1 MSTORE PUSH1 0x40 DUP2 KECCAK256 SWAP2 SWAP3 POP PUSH1 0xFF DUP6 AND PUSH8 0xFFFFFFFFFFFFFFFF DUP2 GT DUP1 ISZERO PUSH2 0x335F JUMPI PUSH1 0x0 DUP1 REVERT JUMPDEST POP PUSH1 0x40 MLOAD SWAP1 DUP1 DUP3 MSTORE DUP1 PUSH1 0x20 MUL PUSH1 0x20 ADD DUP3 ADD PUSH1 0x40 MSTORE DUP1 ISZERO PUSH2 0x3399 JUMPI DUP2 PUSH1 0x20 ADD JUMPDEST PUSH2 0x3386 PUSH2 0x39A4 JUMP JUMPDEST DUP2 MSTORE PUSH1 0x20 ADD SWAP1 PUSH1 0x1 SWAP1 SUB SWAP1 DUP2 PUSH2 0x337E JUMPI SWAP1 POP JUMPDEST POP SWAP1 POP PUSH1 0x0 JUMPDEST DUP6 PUSH1 0xFF AND DUP2 LT ISZERO PUSH2 0x205B JUMPI PUSH1 0x0 DUP4 DUP3 PUSH1 0x8 DUP2 LT PUSH2 0x33B8 JUMPI INVALID JUMPDEST ADD SWAP1 POP PUSH1 0x0 DUP4 DUP4 DUP2 MLOAD DUP2 LT PUSH2 0x33C9 JUMPI INVALID JUMPDEST PUSH1 0x20 SWAP1 DUP2 MUL SWAP2 SWAP1 SWAP2 ADD DUP2 ADD MLOAD DUP4 SLOAD PUSH2 0xFFFF DUP2 AND DUP3 MSTORE PUSH5 0xFFFFFFFFFF PUSH3 0x10000 DUP3 DIV AND SWAP3 DUP3 ADD SWAP3 SWAP1 SWAP3 MSTORE PUSH1 0xFF PUSH1 0x1 PUSH1 0x38 SHL DUP4 DIV AND PUSH1 0x40 DUP3 ADD MSTORE PUSH1 0x1 PUSH1 0x40 SHL SWAP1 SWAP2 DIV PUSH1 0xA SWAP1 DUP2 SIGNEXTEND SWAP1 SIGNEXTEND PUSH1 0x60 DUP3 ADD MSTORE PUSH1 0x80 ADD SWAP2 SWAP1 SWAP2 MSTORE POP PUSH1 0x1 ADD PUSH2 0x339F JUMP JUMPDEST DUP1 MLOAD PUSH1 0x60 SWAP1 DUP1 PUSH8 0xFFFFFFFFFFFFFFFF DUP2 GT DUP1 ISZERO PUSH2 0x3441 JUMPI PUSH1 0x0 DUP1 REVERT JUMPDEST POP PUSH1 0x40 MLOAD SWAP1 DUP1 DUP3 MSTORE DUP1 PUSH1 0x20 MUL PUSH1 0x20 ADD DUP3 ADD PUSH1 0x40 MSTORE DUP1 ISZERO PUSH2 0x346B JUMPI DUP2 PUSH1 0x20 ADD PUSH1 0x20 DUP3 MUL DUP1 CALLDATASIZE DUP4 CALLDATACOPY ADD SWAP1 POP JUMPDEST POP SWAP2 POP PUSH1 0x0 JUMPDEST DUP2 DUP2 LT ISZERO PUSH2 0x34C8 JUMPI PUSH1 0x0 DUP5 DUP3 DUP2 MLOAD DUP2 LT PUSH2 0x3487 JUMPI INVALID JUMPDEST PUSH1 0x20 MUL PUSH1 0x20 ADD ADD MLOAD SWAP1 POP PUSH2 0x34A8 DUP2 PUSH1 0x0 ADD MLOAD DUP3 PUSH1 0x20 ADD MLOAD DUP4 PUSH1 0x40 ADD MLOAD PUSH2 0x36FD JUMP JUMPDEST DUP5 DUP4 DUP2 MLOAD DUP2 LT PUSH2 0x34B4 JUMPI INVALID JUMPDEST PUSH1 0x20 SWAP1 DUP2 MUL SWAP2 SWAP1 SWAP2 ADD ADD MSTORE POP PUSH1 0x1 ADD PUSH2 0x3471 JUMP JUMPDEST POP PUSH1 0x1 JUMPDEST DUP2 DUP2 LT ISZERO PUSH2 0x2209 JUMPI DUP1 JUMPDEST PUSH1 0x0 DUP2 GT DUP1 ISZERO PUSH2 0x350E JUMPI POP DUP4 DUP2 DUP2 MLOAD DUP2 LT PUSH2 0x34ED JUMPI INVALID JUMPDEST PUSH1 0x20 MUL PUSH1 0x20 ADD ADD MLOAD DUP5 PUSH1 0x1 DUP4 SUB DUP2 MLOAD DUP2 LT PUSH2 0x3504 JUMPI INVALID JUMPDEST PUSH1 0x20 MUL PUSH1 0x20 ADD ADD MLOAD GT JUMPDEST ISZERO PUSH2 0x35D6 JUMPI DUP4 DUP2 DUP2 MLOAD DUP2 LT PUSH2 0x351F JUMPI INVALID JUMPDEST PUSH1 0x20 MUL PUSH1 0x20 ADD ADD MLOAD DUP5 PUSH1 0x1 DUP4 SUB DUP2 MLOAD DUP2 LT PUSH2 0x3536 JUMPI INVALID JUMPDEST PUSH1 0x20 MUL PUSH1 0x20 ADD ADD MLOAD DUP6 PUSH1 0x1 DUP5 SUB DUP2 MLOAD DUP2 LT PUSH2 0x354D JUMPI INVALID JUMPDEST PUSH1 0x20 MUL PUSH1 0x20 ADD ADD DUP7 DUP5 DUP2 MLOAD DUP2 LT PUSH2 0x3560 JUMPI INVALID JUMPDEST PUSH1 0x20 MUL PUSH1 0x20 ADD ADD DUP3 DUP2 MSTORE POP DUP3 DUP2 MSTORE POP POP POP DUP5 DUP2 DUP2 MLOAD DUP2 LT PUSH2 0x357D JUMPI INVALID JUMPDEST PUSH1 0x20 MUL PUSH1 0x20 ADD ADD MLOAD DUP6 PUSH1 0x1 DUP4 SUB DUP2 MLOAD DUP2 LT PUSH2 0x3594 JUMPI INVALID JUMPDEST PUSH1 0x20 MUL PUSH1 0x20 ADD ADD MLOAD DUP7 PUSH1 0x1 DUP5 SUB DUP2 MLOAD DUP2 LT PUSH2 0x35AB JUMPI INVALID JUMPDEST PUSH1 0x20 MUL PUSH1 0x20 ADD ADD DUP8 DUP5 DUP2 MLOAD DUP2 LT PUSH2 0x35BE JUMPI INVALID JUMPDEST PUSH1 0x20 SWAP1 DUP2 MUL SWAP2 SWAP1 SWAP2 ADD ADD SWAP2 SWAP1 SWAP2 MSTORE MSTORE PUSH1 0x0 NOT ADD PUSH2 0x34D6 JUMP JUMPDEST POP PUSH1 0x1 ADD PUSH2 0x34CC JUMP JUMPDEST PUSH1 0x0 DUP2 PUSH2 0x35EB JUMPI PUSH1 0x0 DUP1 REVERT JUMPDEST PUSH1 0x1 PUSH1 0x80 SHL DUP3 LT PUSH2 0x35FE JUMPI PUSH1 0x80 SWAP2 DUP3 SHR SWAP2 ADD JUMPDEST PUSH1 0x1 PUSH1 0x40 SHL DUP3 LT PUSH2 0x3611 JUMPI PUSH1 0x40 SWAP2 DUP3 SHR SWAP2 ADD JUMPDEST PUSH5 0x100000000 DUP3 LT PUSH2 0x3625 JUMPI PUSH1 0x20 SWAP2 DUP3 SHR SWAP2 ADD JUMPDEST PUSH3 0x10000 DUP3 LT PUSH2 0x3637 JUMPI PUSH1 0x10 SWAP2 DUP3 SHR SWAP2 ADD JUMPDEST PUSH2 0x100 DUP3 LT PUSH2 0x3648 JUMPI PUSH1 0x8 SWAP2 DUP3 SHR SWAP2 ADD JUMPDEST PUSH1 0x10 DUP3 LT PUSH2 0x3658 JUMPI PUSH1 0x4 SWAP2 DUP3 SHR SWAP2 ADD JUMPDEST PUSH1 0x4 DUP3 LT PUSH2 0x3668 JUMPI PUSH1 0x2 SWAP2 DUP3 SHR SWAP2 ADD JUMPDEST PUSH1 0x2 DUP3 LT PUSH2 0x91E JUMPI PUSH1 0x1 ADD SWAP2 SWAP1 POP JUMP JUMPDEST PUSH1 0x0 PUSH3 0x15180 DUP3 LT ISZERO PUSH2 0x368A JUMPI PUSH1 0x0 DUP1 REVERT JUMPDEST PUSH3 0x15180 DUP3 PUSH2 0x325B JUMP JUMPDEST PUSH1 0x0 DUP1 PUSH2 0xA89 PUSH1 0x1E PUSH2 0x2243 JUMP JUMPDEST PUSH2 0xFFFF PUSH1 0x30 SHL PUSH1 0x30 DUP4 SWAP1 SHL AND PUSH1 0x8 DUP3 SWAP1 SHL OR PUSH1 0x1 OR SWAP3 SWAP2 POP POP JUMP JUMPDEST PUSH1 0x0 DUP2 PUSH1 0xFF AND PUSH1 0x96 LT PUSH2 0x36D7 JUMPI PUSH1 0xFF DUP3 AND PUSH3 0x2625A0 MUL PUSH2 0x91B JUMP JUMPDEST POP PUSH1 0x95 NOT PUSH1 0xFF SWAP2 SWAP1 SWAP2 AND ADD PUSH3 0xE4E1C0 MUL PUSH4 0x165A0BC0 ADD SWAP1 JUMP JUMPDEST PUSH1 0x0 DUP1 PUSH2 0xA89 PUSH1 0xD PUSH2 0x2243 JUMP JUMPDEST PUSH2 0xFFFF PUSH1 0x30 SHL PUSH1 0x30 DUP5 SWAP1 SHL AND PUSH6 0xFFFFFFFFFF00 PUSH1 0x8 DUP5 SWAP1 SHL AND OR PUSH1 0xFF DUP3 AND OR SWAP4 SWAP3 POP POP POP JUMP JUMPDEST PUSH1 0x40 MLOAD DUP1 PUSH1 0x60 ADD PUSH1 0x40 MSTORE DUP1 PUSH1 0x0 DUP2 MSTORE PUSH1 0x20 ADD PUSH1 0x0 DUP2 MSTORE PUSH1 0x20 ADD PUSH1 0x0 DUP2 MSTORE POP SWAP1 JUMP JUMPDEST PUSH1 0x40 MLOAD DUP1 PUSH2 0x120 ADD PUSH1 0x40 MSTORE DUP1 PUSH1 0x0 DUP2 MSTORE PUSH1 0x20 ADD PUSH1 0x0 DUP2 MSTORE PUSH1 0x20 ADD PUSH1 0x0 DUP2 MSTORE PUSH1 0x20 ADD PUSH1 0x0 DUP2 MSTORE PUSH1 0x20 ADD PUSH1 0x0 DUP2 MSTORE PUSH1 0x20 ADD PUSH1 0x0 DUP2 MSTORE PUSH1 0x20 ADD PUSH1 0x0 DUP2 MSTORE PUSH1 0x20 ADD PUSH1 0x0 DUP2 MSTORE PUSH1 0x20 ADD PUSH1 0x0 DUP2 MSTORE POP SWAP1 JUMP JUMPDEST PUSH1 0x40 DUP1 MLOAD PUSH1 0xA0 DUP2 ADD DUP3 MSTORE PUSH1 0x0 DUP1 DUP3 MSTORE PUSH1 0x20 DUP3 ADD DUP2 SWAP1 MSTORE SWAP2 DUP2 ADD DUP3 SWAP1 MSTORE SWAP1 PUSH1 0x60 DUP3 ADD SWAP1 DUP2 MSTORE PUSH1 0x20 ADD PUSH1 0x0 DUP2 MSTORE POP SWAP1 JUMP JUMPDEST PUSH1 0x40 MLOAD DUP1 PUSH2 0x100 ADD PUSH1 0x40 MSTORE DUP1 PUSH1 0x0 DUP2 MSTORE PUSH1 0x20 ADD PUSH1 0x0 DUP2 MSTORE PUSH1 0x20 ADD PUSH1 0x0 DUP2 MSTORE PUSH1 0x20 ADD PUSH1 0x0 DUP2 MSTORE PUSH1 0x20 ADD PUSH1 0x0 DUP2 MSTORE PUSH1 0x20 ADD PUSH1 0x0 DUP2 MSTORE PUSH1 0x20 ADD PUSH1 0x0 DUP2 MSTORE PUSH1 0x20 ADD PUSH1 0x0 DUP2 MSTORE POP SWAP1 JUMP JUMPDEST PUSH1 0x40 DUP1 MLOAD PUSH2 0x140 DUP2 ADD DUP3 MSTORE PUSH1 0x0 DUP1 DUP3 MSTORE PUSH1 0x20 DUP3 ADD DUP2 SWAP1 MSTORE SWAP2 DUP2 ADD DUP3 SWAP1 MSTORE PUSH1 0x60 DUP2 ADD DUP3 SWAP1 MSTORE PUSH1 0x80 DUP2 ADD DUP3 SWAP1 MSTORE PUSH1 0xA0 DUP2 ADD DUP3 SWAP1 MSTORE PUSH1 0xC0 DUP2 ADD DUP3 SWAP1 MSTORE PUSH1 0xE0 DUP2 ADD DUP3 SWAP1 MSTORE PUSH2 0x100 DUP2 ADD DUP3 SWAP1 MSTORE PUSH2 0x120 DUP2 ADD SWAP2 SWAP1 SWAP2 MSTORE SWAP1 JUMP JUMPDEST PUSH1 0x40 MLOAD DUP1 PUSH1 0x60 ADD PUSH1 0x40 MSTORE DUP1 PUSH1 0x0 PUSH1 0x1 PUSH1 0x1 PUSH1 0xA0 SHL SUB AND DUP2 MSTORE PUSH1 0x20 ADD PUSH1 0x0 DUP2 MSTORE PUSH1 0x20 ADD PUSH1 0x0 DUP2 MSTORE POP SWAP1 JUMP JUMPDEST PUSH1 0x40 MLOAD DUP1 PUSH2 0x100 ADD PUSH1 0x40 MSTORE DUP1 PUSH1 0x0 DUP1 NOT AND DUP2 MSTORE PUSH1 0x20 ADD PUSH1 0x0 DUP2 MSTORE PUSH1 0x20 ADD PUSH1 0x0 DUP2 MSTORE PUSH1 0x20 ADD PUSH1 0x0 DUP2 MSTORE PUSH1 0x20 ADD PUSH1 0x0 DUP2 MSTORE PUSH1 0x20 ADD PUSH1 0x0 DUP2 MSTORE PUSH1 0x20 ADD PUSH1 0x0 DUP2 MSTORE PUSH1 0x20 ADD PUSH1 0x0 DUP2 MSTORE POP SWAP1 JUMP JUMPDEST PUSH1 0x40 MLOAD DUP1 PUSH1 0xA0 ADD PUSH1 0x40 MSTORE DUP1 PUSH1 0x0 DUP2 MSTORE PUSH1 0x20 ADD PUSH1 0x0 DUP2 MSTORE PUSH1 0x20 ADD PUSH1 0x0 DUP2 MSTORE PUSH1 0x20 ADD PUSH1 0x0 DUP2 MSTORE PUSH1 0x20 ADD PUSH1 0x0 DUP2 MSTORE POP SWAP1 JUMP JUMPDEST PUSH1 0x40 DUP1 MLOAD PUSH1 0xC0 DUP2 ADD DUP3 MSTORE PUSH1 0x0 DUP1 DUP3 MSTORE PUSH1 0x20 DUP3 ADD DUP2 SWAP1 MSTORE SWAP2 DUP2 ADD DUP3 SWAP1 MSTORE PUSH1 0x60 DUP2 ADD DUP3 SWAP1 MSTORE PUSH1 0x80 DUP2 ADD DUP3 SWAP1 MSTORE PUSH1 0xA0 DUP2 ADD SWAP2 SWAP1 SWAP2 MSTORE SWAP1 JUMP JUMPDEST PUSH1 0x40 DUP1 MLOAD DUP1 DUP3 ADD SWAP1 SWAP2 MSTORE PUSH1 0x0 DUP1 DUP3 MSTORE PUSH1 0x20 DUP3 ADD MSTORE SWAP1 JUMP JUMPDEST PUSH1 0x40 MLOAD DUP1 PUSH1 0xA0 ADD PUSH1 0x40 MSTORE DUP1 PUSH1 0x0 PUSH2 0xFFFF AND DUP2 MSTORE PUSH1 0x20 ADD PUSH1 0x0 DUP2 MSTORE PUSH1 0x20 ADD PUSH1 0x0 DUP2 MSTORE PUSH1 0x20 ADD PUSH1 0x0 DUP2 MSTORE PUSH1 0x20 ADD PUSH1 0x0 DUP2 MSTORE POP SWAP1 JUMP JUMPDEST PUSH1 0x40 DUP1 MLOAD PUSH1 0x80 DUP2 ADD DUP3 MSTORE PUSH1 0x0 DUP1 DUP3 MSTORE PUSH1 0x20 DUP3 ADD MSTORE SWAP1 DUP2 ADD PUSH2 0x3997 PUSH2 0x3723 JUMP JUMPDEST DUP2 MSTORE PUSH1 0x0 PUSH1 0x20 SWAP1 SWAP2 ADD MSTORE SWAP1 JUMP JUMPDEST PUSH1 0x40 MLOAD DUP1 PUSH1 0xC0 ADD PUSH1 0x40 MSTORE DUP1 PUSH1 0x0 PUSH2 0xFFFF AND DUP2 MSTORE PUSH1 0x20 ADD PUSH1 0x0 DUP2 MSTORE PUSH1 0x20 ADD PUSH1 0x0 DUP2 MSTORE PUSH1 0x20 ADD PUSH1 0x0 DUP2 MSTORE PUSH1 0x20 ADD PUSH1 0x0 DUP2 MSTORE PUSH1 0x20 ADD PUSH1 0x0 PUSH1 0x3 DUP2 GT ISZERO PUSH2 0x39E3 JUMPI INVALID JUMPDEST SWAP1 MSTORE SWAP1 JUMP JUMPDEST DUP1 CALLDATALOAD PUSH1 0x1 PUSH1 0x1 PUSH1 0xA0 SHL SUB DUP2 AND DUP2 EQ PUSH2 0x91E JUMPI PUSH1 0x0 DUP1 REVERT JUMPDEST DUP1 CALLDATALOAD PUSH2 0xFFFF DUP2 AND DUP2 EQ PUSH2 0x91E JUMPI PUSH1 0x0 DUP1 REVERT JUMPDEST DUP1 MLOAD PUSH1 0x1 PUSH1 0x1 PUSH1 0x50 SHL SUB DUP2 AND DUP2 EQ PUSH2 0x91E JUMPI PUSH1 0x0 DUP1 REVERT JUMPDEST PUSH1 0x0 PUSH1 0x20 DUP3 DUP5 SUB SLT ISZERO PUSH2 0x3A39 JUMPI DUP1 DUP2 REVERT JUMPDEST PUSH2 0xD2A DUP3 PUSH2 0x39E8 JUMP JUMPDEST PUSH1 0x0 DUP1 PUSH1 0x40 DUP4 DUP6 SUB SLT ISZERO PUSH2 0x3A54 JUMPI DUP1 DUP2 REVERT JUMPDEST PUSH2 0x3A5D DUP4 PUSH2 0x39E8 JUMP JUMPDEST SWAP2 POP PUSH2 0x2BAF PUSH1 0x20 DUP5 ADD PUSH2 0x39FF JUMP JUMPDEST PUSH1 0x0 DUP1 PUSH1 0x0 PUSH1 0x60 DUP5 DUP7 SUB SLT ISZERO PUSH2 0x3A7F JUMPI DUP1 DUP2 REVERT JUMPDEST PUSH2 0x3A88 DUP5 PUSH2 0x39E8 JUMP JUMPDEST SWAP3 POP PUSH2 0x3A96 PUSH1 0x20 DUP6 ADD PUSH2 0x39FF JUMP JUMPDEST SWAP2 POP PUSH1 0x40 DUP5 ADD CALLDATALOAD SWAP1 POP SWAP3 POP SWAP3 POP SWAP3 JUMP JUMPDEST PUSH1 0x0 DUP1 PUSH1 0x20 DUP4 DUP6 SUB SLT ISZERO PUSH2 0x3AB8 JUMPI DUP2 DUP3 REVERT JUMPDEST DUP3 CALLDATALOAD PUSH8 0xFFFFFFFFFFFFFFFF DUP1 DUP3 GT ISZERO PUSH2 0x3ACF JUMPI DUP4 DUP5 REVERT JUMPDEST DUP2 DUP6 ADD SWAP2 POP DUP6 PUSH1 0x1F DUP4 ADD SLT PUSH2 0x3AE2 JUMPI DUP4 DUP5 REVERT JUMPDEST DUP2 CALLDATALOAD DUP2 DUP2 GT ISZERO PUSH2 0x3AF0 JUMPI DUP5 DUP6 REVERT JUMPDEST DUP7 PUSH1 0x20 DUP1 DUP4 MUL DUP6 ADD ADD GT ISZERO PUSH2 0x3B03 JUMPI DUP5 DUP6 REVERT JUMPDEST PUSH1 0x20 SWAP3 SWAP1 SWAP3 ADD SWAP7 SWAP2 SWAP6 POP SWAP1 SWAP4 POP POP POP POP JUMP JUMPDEST PUSH1 0x0 DUP1 PUSH1 0x40 DUP4 DUP6 SUB SLT ISZERO PUSH2 0x3B27 JUMPI DUP2 DUP3 REVERT JUMPDEST DUP3 MLOAD SWAP2 POP PUSH1 0x20 DUP1 DUP5 ADD MLOAD PUSH8 0xFFFFFFFFFFFFFFFF DUP1 DUP3 GT ISZERO PUSH2 0x3B46 JUMPI DUP4 DUP5 REVERT JUMPDEST DUP2 DUP7 ADD SWAP2 POP DUP7 PUSH1 0x1F DUP4 ADD SLT PUSH2 0x3B59 JUMPI DUP4 DUP5 REVERT JUMPDEST DUP2 MLOAD DUP2 DUP2 GT ISZERO PUSH2 0x3B65 JUMPI INVALID JUMPDEST DUP4 DUP2 MUL PUSH1 0x40 MLOAD DUP6 DUP3 DUP3 ADD ADD DUP2 DUP2 LT DUP6 DUP3 GT OR ISZERO PUSH2 0x3B7E JUMPI INVALID JUMPDEST PUSH1 0x40 MSTORE DUP3 DUP2 MSTORE DUP6 DUP2 ADD SWAP4 POP DUP5 DUP7 ADD DUP3 DUP7 ADD DUP8 ADD DUP12 LT ISZERO PUSH2 0x3B9C JUMPI DUP8 DUP9 REVERT JUMPDEST DUP8 SWAP6 POP JUMPDEST DUP4 DUP7 LT ISZERO PUSH2 0x3BBE JUMPI DUP1 MLOAD DUP6 MSTORE PUSH1 0x1 SWAP6 SWAP1 SWAP6 ADD SWAP5 SWAP4 DUP7 ADD SWAP4 DUP7 ADD PUSH2 0x3BA0 JUMP JUMPDEST POP DUP1 SWAP7 POP POP POP POP POP POP POP SWAP3 POP SWAP3 SWAP1 POP JUMP JUMPDEST PUSH1 0x0 PUSH1 0x20 DUP3 DUP5 SUB SLT ISZERO PUSH2 0x3BE0 JUMPI DUP1 DUP2 REVERT JUMPDEST PUSH2 0xD2A DUP3 PUSH2 0x39FF JUMP JUMPDEST PUSH1 0x0 DUP1 PUSH1 0x40 DUP4 DUP6 SUB SLT ISZERO PUSH2 0x3BFB JUMPI DUP2 DUP3 REVERT JUMPDEST PUSH2 0x3C04 DUP4 PUSH2 0x39FF JUMP JUMPDEST SWAP2 POP PUSH2 0x2BAF PUSH1 0x20 DUP5 ADD PUSH2 0x39E8 JUMP JUMPDEST PUSH1 0x0 DUP1 PUSH1 0x40 DUP4 DUP6 SUB SLT ISZERO PUSH2 0x3C24 JUMPI DUP2 DUP3 REVERT JUMPDEST PUSH2 0x3C2D DUP4 PUSH2 0x39FF JUMP JUMPDEST SWAP5 PUSH1 0x20 SWAP4 SWAP1 SWAP4 ADD CALLDATALOAD SWAP4 POP POP POP JUMP JUMPDEST PUSH1 0x0 DUP1 PUSH1 0x0 PUSH1 0x60 DUP5 DUP7 SUB SLT ISZERO PUSH2 0x3C4F JUMPI DUP3 DUP4 REVERT JUMPDEST PUSH2 0x3C58 DUP5 PUSH2 0x39FF JUMP JUMPDEST SWAP6 PUSH1 0x20 DUP6 ADD CALLDATALOAD SWAP6 POP PUSH1 0x40 SWAP1 SWAP5 ADD CALLDATALOAD SWAP4 SWAP3 POP POP POP JUMP JUMPDEST PUSH1 0x0 DUP1 PUSH1 0x0 DUP1 PUSH1 0x0 PUSH1 0xA0 DUP7 DUP9 SUB SLT ISZERO PUSH2 0x3C84 JUMPI DUP1 DUP2 REVERT JUMPDEST PUSH2 0x3C8D DUP7 PUSH2 0x39FF JUMP JUMPDEST SWAP5 POP PUSH1 0x20 DUP7 ADD CALLDATALOAD SWAP4 POP PUSH1 0x40 DUP7 ADD CALLDATALOAD SWAP3 POP PUSH2 0x3CA9 PUSH1 0x60 DUP8 ADD PUSH2 0x39E8 JUMP JUMPDEST SWAP2 POP PUSH1 0x80 DUP7 ADD CALLDATALOAD DUP1 ISZERO ISZERO DUP2 EQ PUSH2 0x3CBD JUMPI DUP2 DUP3 REVERT JUMPDEST DUP1 SWAP2 POP POP SWAP3 SWAP6 POP SWAP3 SWAP6 SWAP1 SWAP4 POP JUMP JUMPDEST PUSH1 0x0 DUP1 PUSH1 0x40 DUP4 DUP6 SUB SLT ISZERO PUSH2 0x3CDD JUMPI DUP2 DUP3 REVERT JUMPDEST PUSH2 0x3CE6 DUP4 PUSH2 0x39FF JUMP JUMPDEST SWAP2 POP PUSH1 0x20 DUP4 ADD CALLDATALOAD PUSH4 0xFFFFFFFF DUP2 AND DUP2 EQ PUSH2 0x3CFE JUMPI DUP2 DUP3 REVERT JUMPDEST DUP1 SWAP2 POP POP SWAP3 POP SWAP3 SWAP1 POP JUMP JUMPDEST PUSH1 0x0 DUP1 PUSH1 0x40 DUP4 DUP6 SUB SLT ISZERO PUSH2 0x3D1B JUMPI DUP2 DUP3 REVERT JUMPDEST PUSH2 0x3D24 DUP4 PUSH2 0x39FF JUMP JUMPDEST SWAP2 POP PUSH1 0x20 DUP4 ADD CALLDATALOAD PUSH5 0xFFFFFFFFFF DUP2 AND DUP2 EQ PUSH2 0x3CFE JUMPI DUP2 DUP3 REVERT JUMPDEST PUSH1 0x0 PUSH1 0x20 DUP3 DUP5 SUB SLT ISZERO PUSH2 0x3D4E JUMPI DUP1 DUP2 REVERT JUMPDEST POP CALLDATALOAD SWAP2 SWAP1 POP JUMP JUMPDEST PUSH1 0x0 DUP1 PUSH1 0x40 DUP4 DUP6 SUB SLT ISZERO PUSH2 0x3D67 JUMPI DUP2 DUP3 REVERT JUMPDEST POP POP DUP1 MLOAD PUSH1 0x20 SWAP1 SWAP2 ADD MLOAD SWAP1 SWAP3 SWAP1 SWAP2 POP JUMP JUMPDEST PUSH1 0x0 DUP1 PUSH1 0x0 DUP1 PUSH1 0x0 PUSH1 0xA0 DUP7 DUP9 SUB SLT ISZERO PUSH2 0x3D8F JUMPI DUP3 DUP4 REVERT JUMPDEST PUSH2 0x3D98 DUP7 PUSH2 0x3A11 JUMP JUMPDEST SWAP5 POP PUSH1 0x20 DUP7 ADD MLOAD SWAP4 POP PUSH1 0x40 DUP7 ADD MLOAD SWAP3 POP PUSH1 0x60 DUP7 ADD MLOAD SWAP2 POP PUSH2 0x3DBB PUSH1 0x80 DUP8 ADD PUSH2 0x3A11 JUMP JUMPDEST SWAP1 POP SWAP3 SWAP6 POP SWAP3 SWAP6 SWAP1 SWAP4 POP JUMP JUMPDEST PUSH1 0x0 DUP2 MLOAD DUP1 DUP5 MSTORE PUSH1 0x20 DUP1 DUP6 ADD SWAP5 POP DUP1 DUP5 ADD DUP4 JUMPDEST DUP4 DUP2 LT ISZERO PUSH2 0x3DF6 JUMPI DUP2 MLOAD DUP8 MSTORE SWAP6 DUP3 ADD SWAP6 SWAP1 DUP3 ADD SWAP1 PUSH1 0x1 ADD PUSH2 0x3DDA JUMP JUMPDEST POP SWAP5 SWAP6 SWAP5 POP POP POP POP POP JUMP JUMPDEST PUSH1 0x0 DUP2 MLOAD DUP1 DUP5 MSTORE PUSH1 0x20 DUP1 DUP6 ADD SWAP5 POP DUP1 DUP5 ADD DUP4 JUMPDEST DUP4 DUP2 LT ISZERO PUSH2 0x3DF6 JUMPI PUSH2 0x3E27 DUP8 DUP4 MLOAD PUSH2 0x3FE7 JUMP JUMPDEST PUSH2 0x100 SWAP7 SWAP1 SWAP7 ADD SWAP6 SWAP1 DUP3 ADD SWAP1 PUSH1 0x1 ADD PUSH2 0x3E14 JUMP JUMPDEST PUSH1 0x0 DUP2 MLOAD DUP1 DUP5 MSTORE PUSH1 0x20 DUP1 DUP6 ADD SWAP5 POP DUP1 DUP5 ADD DUP4 JUMPDEST DUP4 DUP2 LT ISZERO PUSH2 0x3DF6 JUMPI DUP2 MLOAD DUP1 MLOAD PUSH2 0xFFFF AND DUP9 MSTORE DUP4 DUP2 ADD MLOAD DUP5 DUP10 ADD MSTORE PUSH1 0x40 DUP1 DUP3 ADD MLOAD SWAP1 DUP10 ADD MSTORE PUSH1 0x60 DUP1 DUP3 ADD MLOAD SWAP1 DUP10 ADD MSTORE PUSH1 0x80 DUP1 DUP3 ADD MLOAD SWAP1 DUP10 ADD MSTORE PUSH1 0xA0 SWAP1 DUP2 ADD MLOAD SWAP1 PUSH1 0x4 DUP3 LT PUSH2 0x3E97 JUMPI INVALID JUMPDEST DUP9 ADD MSTORE PUSH1 0xC0 SWAP1 SWAP7 ADD SWAP6 SWAP1 DUP3 ADD SWAP1 PUSH1 0x1 ADD PUSH2 0x3E4E JUMP JUMPDEST DUP1 MLOAD PUSH5 0xFFFFFFFFFF AND DUP3 MSTORE PUSH1 0x20 DUP1 DUP3 ADD MLOAD PUSH1 0x1 PUSH1 0x1 PUSH1 0xF8 SHL SUB NOT AND SWAP1 DUP4 ADD MSTORE PUSH1 0x40 DUP1 DUP3 ADD MLOAD PUSH1 0xFF AND SWAP1 DUP4 ADD MSTORE PUSH1 0x60 DUP1 DUP3 ADD MLOAD PUSH2 0xFFFF AND SWAP1 DUP4 ADD MSTORE PUSH1 0x80 DUP1 DUP3 ADD MLOAD PUSH1 0x1 PUSH1 0x1 PUSH1 0x70 SHL SUB NOT AND SWAP1 DUP4 ADD MSTORE PUSH1 0xA0 SWAP1 DUP2 ADD MLOAD ISZERO ISZERO SWAP2 ADD MSTORE JUMP JUMPDEST PUSH2 0x3F12 DUP3 DUP3 MLOAD PUSH2 0x40EA JUMP JUMPDEST PUSH1 0x20 DUP2 ADD MLOAD PUSH2 0x3F24 PUSH1 0x20 DUP5 ADD DUP3 PUSH2 0x40EA JUMP JUMPDEST POP PUSH1 0x40 DUP2 ADD MLOAD PUSH2 0x3F37 PUSH1 0x40 DUP5 ADD DUP3 PUSH2 0x40EA JUMP JUMPDEST POP PUSH1 0x60 DUP2 ADD MLOAD PUSH2 0x3F4A PUSH1 0x60 DUP5 ADD DUP3 PUSH2 0x40EA JUMP JUMPDEST POP PUSH1 0x80 DUP2 ADD MLOAD PUSH2 0x3F5D PUSH1 0x80 DUP5 ADD DUP3 PUSH2 0x40EA JUMP JUMPDEST POP PUSH1 0xA0 DUP2 ADD MLOAD PUSH2 0x3F70 PUSH1 0xA0 DUP5 ADD DUP3 PUSH2 0x40EA JUMP JUMPDEST POP PUSH1 0xC0 DUP2 ADD MLOAD PUSH2 0x3F83 PUSH1 0xC0 DUP5 ADD DUP3 PUSH2 0x40EA JUMP JUMPDEST POP PUSH1 0xE0 DUP2 ADD MLOAD PUSH2 0x3F96 PUSH1 0xE0 DUP5 ADD DUP3 PUSH2 0x40EA JUMP JUMPDEST POP PUSH2 0x100 DUP1 DUP3 ADD MLOAD PUSH2 0x3FAA DUP3 DUP6 ADD DUP3 PUSH2 0x40EA JUMP JUMPDEST POP POP PUSH2 0x120 DUP1 DUP3 ADD MLOAD PUSH2 0x3FBF DUP3 DUP6 ADD DUP3 PUSH2 0x40EA JUMP JUMPDEST POP POP POP POP JUMP JUMPDEST DUP1 MLOAD PUSH1 0x1 PUSH1 0x1 PUSH1 0xA0 SHL SUB AND DUP3 MSTORE PUSH1 0x20 DUP1 DUP3 ADD MLOAD SWAP1 DUP4 ADD MSTORE PUSH1 0x40 SWAP1 DUP2 ADD MLOAD SWAP2 ADD MSTORE JUMP JUMPDEST DUP1 MLOAD DUP3 MSTORE PUSH1 0x20 DUP2 ADD MLOAD PUSH1 0x20 DUP4 ADD MSTORE PUSH1 0x40 DUP2 ADD MLOAD PUSH1 0x40 DUP4 ADD MSTORE PUSH1 0x60 DUP2 ADD MLOAD PUSH1 0x60 DUP4 ADD MSTORE PUSH1 0x80 DUP2 ADD MLOAD PUSH1 0x80 DUP4 ADD MSTORE PUSH1 0xA0 DUP2 ADD MLOAD PUSH1 0xA0 DUP4 ADD MSTORE PUSH1 0xC0 DUP2 ADD MLOAD PUSH1 0xC0 DUP4 ADD MSTORE PUSH1 0xE0 DUP2 ADD MLOAD PUSH1 0xE0 DUP4 ADD MSTORE POP POP JUMP JUMPDEST DUP1 MLOAD DUP3 MSTORE PUSH1 0x20 DUP2 ADD MLOAD PUSH1 0x20 DUP4 ADD MSTORE PUSH1 0x40 DUP2 ADD MLOAD PUSH1 0x40 DUP4 ADD MSTORE PUSH1 0x60 DUP2 ADD MLOAD PUSH1 0x60 DUP4 ADD MSTORE PUSH1 0x80 DUP2 ADD MLOAD PUSH1 0x80 DUP4 ADD MSTORE PUSH1 0xA0 DUP2 ADD MLOAD PUSH1 0xA0 DUP4 ADD MSTORE PUSH1 0xC0 DUP2 ADD MLOAD PUSH1 0xC0 DUP4 ADD MSTORE PUSH1 0xE0 DUP2 ADD MLOAD PUSH1 0xE0 DUP4 ADD MSTORE PUSH2 0x100 DUP1 DUP3 ADD MLOAD DUP2 DUP5 ADD MSTORE POP POP POP JUMP JUMPDEST DUP1 MLOAD DUP3 MSTORE PUSH1 0x20 DUP1 DUP3 ADD MLOAD SWAP1 DUP4 ADD MSTORE PUSH1 0x40 SWAP1 DUP2 ADD MLOAD SWAP2 ADD MSTORE JUMP JUMPDEST DUP1 MLOAD PUSH1 0x1 PUSH1 0x1 PUSH1 0xA0 SHL SUB AND DUP3 MSTORE PUSH1 0x20 DUP1 DUP3 ADD MLOAD ISZERO ISZERO SWAP1 DUP4 ADD MSTORE PUSH1 0x40 DUP1 DUP3 ADD MLOAD SWAP1 DUP4 ADD MSTORE PUSH1 0x60 DUP2 ADD MLOAD PUSH1 0x6 DUP2 LT PUSH2 0x40DA JUMPI INVALID JUMPDEST PUSH1 0x60 DUP4 ADD MSTORE PUSH1 0x80 SWAP1 DUP2 ADD MLOAD SWAP2 ADD MSTORE JUMP JUMPDEST PUSH1 0xFF AND SWAP1 MSTORE JUMP JUMPDEST PUSH1 0x1 PUSH1 0x1 PUSH1 0xA0 SHL SUB SWAP2 SWAP1 SWAP2 AND DUP2 MSTORE PUSH1 0x20 ADD SWAP1 JUMP JUMPDEST PUSH1 0x1 PUSH1 0x1 PUSH1 0xA0 SHL SUB SWAP3 DUP4 AND DUP2 MSTORE SWAP2 AND PUSH1 0x20 DUP3 ADD MSTORE PUSH1 0x40 ADD SWAP1 JUMP JUMPDEST PUSH1 0x0 PUSH1 0x40 DUP3 MSTORE PUSH2 0x4132 PUSH1 0x40 DUP4 ADD DUP6 PUSH2 0x3DC7 JUMP JUMPDEST DUP3 DUP2 SUB PUSH1 0x20 DUP5 ADD MSTORE PUSH2 0xD26 DUP2 DUP6 PUSH2 0x3DC7 JUMP JUMPDEST PUSH1 0x0 PUSH1 0x40 DUP3 MSTORE PUSH2 0x4157 PUSH1 0x40 DUP4 ADD DUP6 PUSH2 0x3E01 JUMP JUMPDEST DUP3 DUP2 SUB PUSH1 0x20 DUP5 ADD MSTORE PUSH2 0xD26 DUP2 DUP6 PUSH2 0x3E01 JUMP JUMPDEST PUSH1 0x20 DUP1 DUP3 MSTORE DUP3 MLOAD DUP3 DUP3 ADD DUP2 SWAP1 MSTORE PUSH1 0x0 SWAP2 SWAP1 DUP5 DUP3 ADD SWAP1 PUSH1 0x40 DUP6 ADD SWAP1 DUP5 JUMPDEST DUP2 DUP2 LT ISZERO PUSH2 0x41AC JUMPI PUSH2 0x4198 DUP4 DUP6 MLOAD PUSH2 0x3FE7 JUMP JUMPDEST SWAP3 DUP5 ADD SWAP3 PUSH2 0x100 SWAP3 SWAP1 SWAP3 ADD SWAP2 PUSH1 0x1 ADD PUSH2 0x4185 JUMP JUMPDEST POP SWAP1 SWAP7 SWAP6 POP POP POP POP POP POP JUMP JUMPDEST PUSH1 0x0 PUSH1 0x20 DUP3 MSTORE PUSH2 0xD2A PUSH1 0x20 DUP4 ADD DUP5 PUSH2 0x3E3B JUMP JUMPDEST PUSH1 0x0 PUSH1 0x40 DUP3 MSTORE PUSH2 0x41DE PUSH1 0x40 DUP4 ADD DUP6 PUSH2 0x3E3B JUMP JUMPDEST DUP3 DUP2 SUB PUSH1 0x20 DUP5 ADD MSTORE PUSH2 0xD26 DUP2 DUP6 PUSH2 0x3E3B JUMP JUMPDEST PUSH1 0x20 DUP1 DUP3 MSTORE DUP3 MLOAD DUP3 DUP3 ADD DUP2 SWAP1 MSTORE PUSH1 0x0 SWAP2 SWAP1 DUP5 DUP3 ADD SWAP1 PUSH1 0x40 DUP6 ADD SWAP1 DUP5 JUMPDEST DUP2 DUP2 LT ISZERO PUSH2 0x41AC JUMPI DUP4 MLOAD DUP4 MSTORE SWAP3 DUP5 ADD SWAP3 SWAP2 DUP5 ADD SWAP2 PUSH1 0x1 ADD PUSH2 0x420C JUMP JUMPDEST SWAP1 ISZERO ISZERO DUP2 MSTORE PUSH1 0x20 ADD SWAP1 JUMP JUMPDEST SWAP1 DUP2 MSTORE PUSH1 0x20 ADD SWAP1 JUMP JUMPDEST PUSH1 0x0 DUP4 DUP3 MSTORE PUSH1 0x40 PUSH1 0x20 DUP4 ADD MSTORE PUSH2 0xEA5 PUSH1 0x40 DUP4 ADD DUP5 PUSH2 0x3DC7 JUMP JUMPDEST SWAP3 DUP4 MSTORE PUSH1 0x20 DUP4 ADD SWAP2 SWAP1 SWAP2 MSTORE PUSH1 0x40 DUP3 ADD MSTORE PUSH1 0x60 ADD SWAP1 JUMP JUMPDEST PUSH1 0x20 DUP1 DUP3 MSTORE PUSH1 0x16 SWAP1 DUP3 ADD MSTORE PUSH22 0x4E6F206E546F6B656E20666F722063757272656E6379 PUSH1 0x50 SHL PUSH1 0x40 DUP3 ADD MSTORE PUSH1 0x60 ADD SWAP1 JUMP JUMPDEST PUSH1 0x20 DUP1 DUP3 MSTORE PUSH1 0xD SWAP1 DUP3 ADD MSTORE PUSH13 0x92DCECC2D8D2C840D2DCC8CAF PUSH1 0x9B SHL PUSH1 0x40 DUP3 ADD MSTORE PUSH1 0x60 ADD SWAP1 JUMP JUMPDEST PUSH1 0x20 DUP1 DUP3 MSTORE PUSH1 0xE SWAP1 DUP3 ADD MSTORE PUSH14 0x125B9D985B1A59081B585C9AD95D PUSH1 0x92 SHL PUSH1 0x40 DUP3 ADD MSTORE PUSH1 0x60 ADD SWAP1 JUMP JUMPDEST PUSH1 0x20 DUP1 DUP3 MSTORE PUSH1 0x10 SWAP1 DUP3 ADD MSTORE PUSH16 0x13595D1A1BD9081B9BDD08199BDD5B99 PUSH1 0x82 SHL PUSH1 0x40 DUP3 ADD MSTORE PUSH1 0x60 ADD SWAP1 JUMP JUMPDEST PUSH1 0x20 DUP1 DUP3 MSTORE PUSH1 0x13 SWAP1 DUP3 ADD MSTORE PUSH19 0x125B9D985B1A590818DD5C9C995B98DE481A59 PUSH1 0x6A SHL PUSH1 0x40 DUP3 ADD MSTORE PUSH1 0x60 ADD SWAP1 JUMP JUMPDEST PUSH1 0x20 DUP1 DUP3 MSTORE PUSH1 0x10 SWAP1 DUP3 ADD MSTORE PUSH16 0x151BDAD95B881B9BDD081B1A5CDD1959 PUSH1 0x82 SHL PUSH1 0x40 DUP3 ADD MSTORE PUSH1 0x60 ADD SWAP1 JUMP JUMPDEST PUSH1 0xC0 DUP2 ADD PUSH2 0xA89 DUP3 DUP5 PUSH2 0x3EAC JUMP JUMPDEST PUSH1 0x0 PUSH2 0x100 DUP1 DUP4 ADD PUSH2 0x438B DUP5 DUP9 PUSH2 0x3EAC JUMP JUMPDEST PUSH1 0xC0 DUP5 ADD SWAP2 SWAP1 SWAP2 MSTORE DUP5 MLOAD SWAP1 DUP2 SWAP1 MSTORE PUSH2 0x120 DUP4 ADD SWAP1 PUSH1 0x20 SWAP1 DUP2 DUP8 ADD DUP5 JUMPDEST DUP3 DUP2 LT ISZERO PUSH2 0x43F1 JUMPI DUP2 MLOAD DUP1 MLOAD PUSH2 0xFFFF AND DUP7 MSTORE DUP5 DUP2 ADD MLOAD DUP6 DUP8 ADD MSTORE PUSH1 0x40 DUP1 DUP3 ADD MLOAD SWAP1 DUP8 ADD MSTORE PUSH1 0x60 DUP1 DUP3 ADD MLOAD SWAP1 DUP8 ADD MSTORE PUSH1 0x80 SWAP1 DUP2 ADD MLOAD SWAP1 DUP7 ADD MSTORE PUSH1 0xA0 SWAP1 SWAP5 ADD SWAP4 SWAP1 DUP4 ADD SWAP1 PUSH1 0x1 ADD PUSH2 0x43A7 JUMP JUMPDEST POP POP POP POP DUP3 DUP2 SUB PUSH1 0xE0 DUP5 ADD MSTORE PUSH2 0x1196 DUP2 DUP6 PUSH2 0x3E3B JUMP JUMPDEST PUSH2 0x140 DUP2 ADD PUSH2 0xA89 DUP3 DUP5 PUSH2 0x3F07 JUMP JUMPDEST PUSH2 0x1A0 DUP2 ADD PUSH2 0x4425 DUP3 DUP6 PUSH2 0x3F07 JUMP JUMPDEST PUSH2 0xD2A PUSH2 0x140 DUP4 ADD DUP5 PUSH2 0x3FC5 JUMP JUMPDEST PUSH1 0x0 PUSH2 0x100 DUP3 ADD SWAP1 POP PUSH1 0x1 DUP1 PUSH1 0xA0 SHL SUB DUP1 DUP6 MLOAD AND DUP4 MSTORE PUSH1 0xFF PUSH1 0x20 DUP7 ADD MLOAD AND PUSH1 0x20 DUP5 ADD MSTORE PUSH1 0x40 DUP6 ADD MLOAD ISZERO ISZERO PUSH1 0x40 DUP5 ADD MSTORE PUSH1 0xFF PUSH1 0x60 DUP7 ADD MLOAD AND PUSH1 0x60 DUP5 ADD MSTORE PUSH1 0xFF PUSH1 0x80 DUP7 ADD MLOAD AND PUSH1 0x80 DUP5 ADD MSTORE PUSH1 0xFF PUSH1 0xA0 DUP7 ADD MLOAD AND PUSH1 0xA0 DUP5 ADD MSTORE DUP1 DUP5 MLOAD AND PUSH1 0xC0 DUP5 ADD MSTORE POP PUSH1 0xFF PUSH1 0x20 DUP5 ADD MLOAD AND PUSH1 0xE0 DUP4 ADD MSTORE SWAP4 SWAP3 POP POP POP JUMP JUMPDEST PUSH2 0x100 DUP2 ADD PUSH2 0xA89 DUP3 DUP5 PUSH2 0x3FE7 JUMP JUMPDEST PUSH2 0x120 DUP2 ADD PUSH2 0xA89 DUP3 DUP5 PUSH2 0x4035 JUMP JUMPDEST PUSH1 0x60 DUP2 ADD PUSH2 0xA89 DUP3 DUP5 PUSH2 0x408F JUMP JUMPDEST PUSH2 0x1C0 DUP2 ADD PUSH2 0x44E2 DUP3 DUP8 PUSH2 0x408F JUMP JUMPDEST PUSH2 0x44EF PUSH1 0x60 DUP4 ADD DUP7 PUSH2 0x4035 JUMP JUMPDEST PUSH2 0x180 DUP3 ADD SWAP4 SWAP1 SWAP4 MSTORE PUSH2 0x1A0 ADD MSTORE SWAP3 SWAP2 POP POP JUMP JUMPDEST PUSH2 0x140 DUP2 ADD PUSH2 0x4512 DUP3 DUP6 PUSH2 0x40A8 JUMP JUMPDEST PUSH2 0xD2A PUSH1 0xA0 DUP4 ADD DUP5 PUSH2 0x40A8 JUMP JUMPDEST PUSH2 0x240 DUP2 ADD PUSH2 0x452E DUP3 DUP8 PUSH2 0x40A8 JUMP JUMPDEST PUSH2 0x453B PUSH1 0xA0 DUP4 ADD DUP7 PUSH2 0x40A8 JUMP JUMPDEST DUP4 MLOAD PUSH2 0x140 DUP4 ADD MSTORE PUSH1 0x20 DUP5 ADD MLOAD PUSH2 0x160 DUP4 ADD MSTORE PUSH1 0x40 DUP5 ADD MLOAD PUSH2 0x180 DUP4 ADD MSTORE PUSH1 0x60 DUP5 ADD MLOAD PUSH2 0x1A0 DUP4 ADD MSTORE PUSH1 0x80 DUP5 ADD MLOAD PUSH2 0x1C0 DUP4 ADD MSTORE PUSH2 0x11D0 PUSH2 0x1E0 DUP4 ADD DUP5 PUSH2 0x3FC5 JUMP JUMPDEST PUSH2 0xFFFF SWAP2 SWAP1 SWAP2 AND DUP2 MSTORE PUSH1 0x20 ADD SWAP1 JUMP JUMPDEST PUSH2 0xFFFF SWAP6 SWAP1 SWAP6 AND DUP6 MSTORE PUSH1 0x20 DUP6 ADD SWAP4 SWAP1 SWAP4 MSTORE PUSH1 0x40 DUP5 ADD SWAP2 SWAP1 SWAP2 MSTORE PUSH1 0x1 PUSH1 0x1 PUSH1 0xA0 SHL SUB AND PUSH1 0x60 DUP4 ADD MSTORE ISZERO ISZERO PUSH1 0x80 DUP3 ADD MSTORE PUSH1 0xA0 ADD SWAP1 JUMP JUMPDEST PUSH2 0xFFFF SWAP9 SWAP1 SWAP9 AND DUP9 MSTORE PUSH1 0x20 DUP9 ADD SWAP7 SWAP1 SWAP7 MSTORE PUSH1 0x40 DUP8 ADD SWAP5 SWAP1 SWAP5 MSTORE PUSH1 0x60 DUP7 ADD SWAP3 SWAP1 SWAP3 MSTORE PUSH1 0x1 PUSH1 0x1 PUSH1 0xD0 SHL SUB NOT AND PUSH1 0x80 DUP6 ADD MSTORE PUSH1 0xA0 DUP5 ADD MSTORE PUSH1 0xC0 DUP4 ADD MSTORE PUSH1 0xE0 DUP3 ADD MSTORE PUSH2 0x100 ADD SWAP1 JUMP JUMPDEST PUSH5 0xFFFFFFFFFF SWAP2 SWAP1 SWAP2 AND DUP2 MSTORE PUSH1 0x20 ADD SWAP1 JUMP JUMPDEST PUSH1 0xFF SWAP2 SWAP1 SWAP2 AND DUP2 MSTORE PUSH1 0x20 ADD SWAP1 JUMP INVALID LOG2 PUSH5 0x6970667358 0x22 SLT KECCAK256 SSTORE 0xD4 0xCB 0xE3 0xC2 0x1F SMOD 0xAC 0x2A 0xED 0x4B 0xC5 PUSH20 0x555144BE4C3F48B354BA4A23F0702426F462564 PUSH20 0x6F6C634300070600330000000000000000000000 ","sha1":"6f03af9dcca1bb19cb0bffc4ea242e9c81dca103","source":"// SPDX-License-Identifier: BSUL-1.1\npragma solidity =0.7.6;\npragma abicoder v2;\n\nimport {\n    PrimeRate,\n    ETHRate,\n    Token,\n    CashGroupParameters,\n    MarketParameters,\n    BalanceState,\n    AccountContext,\n    nTokenPortfolio,\n    ETHRateStorage,\n    AssetRateStorage,\n    CashGroupSettings,\n    InterestRateParameters,\n    PrimeCashFactors,\n    PortfolioAsset,\n    AccountBalance,\n    BalanceStorage,\n    Deprecated_AssetRateParameters,\n    RebalancingContextStorage,\n    TotalfCashDebtStorage\n} from \"../global/Types.sol\";\nimport {SafeUint256} from \"../math/SafeUint256.sol\";\nimport {SafeInt256} from \"../math/SafeInt256.sol\";\nimport {LibStorage} from \"../global/LibStorage.sol\";\nimport {StorageLayoutV2} from \"../global/StorageLayoutV2.sol\";\nimport {Deployments} from \"../global/Deployments.sol\";\nimport {Constants} from \"../global/Constants.sol\";\n\nimport {ExchangeRate} from \"../internal/valuation/ExchangeRate.sol\";\nimport {CashGroup} from \"../internal/markets/CashGroup.sol\";\nimport {Market} from \"../internal/markets/Market.sol\";\nimport {InterestRateCurve} from \"../internal/markets/InterestRateCurve.sol\";\nimport {DeprecatedAssetRate} from \"../internal/markets/DeprecatedAssetRate.sol\";\nimport {nTokenHandler} from \"../internal/nToken/nTokenHandler.sol\";\nimport {nTokenSupply} from \"../internal/nToken/nTokenSupply.sol\";\nimport {PrimeRateLib} from \"../internal/pCash/PrimeRateLib.sol\";\nimport {PrimeCashExchangeRate} from \"../internal/pCash/PrimeCashExchangeRate.sol\";\nimport {TokenHandler} from \"../internal/balances/TokenHandler.sol\";\nimport {BalanceHandler} from \"../internal/balances/BalanceHandler.sol\";\nimport {PortfolioHandler} from \"../internal/portfolio/PortfolioHandler.sol\";\nimport {BitmapAssetsHandler} from \"../internal/portfolio/BitmapAssetsHandler.sol\";\nimport {AccountContextHandler} from \"../internal/AccountContextHandler.sol\";\nimport {Emitter} from \"../internal/Emitter.sol\";\n\nimport {NotionalViews} from \"../../interfaces/notional/NotionalViews.sol\";\nimport {FreeCollateralExternal} from \"./FreeCollateralExternal.sol\";\nimport {MigrateIncentives} from \"./MigrateIncentives.sol\";\n\ncontract Views is StorageLayoutV2, NotionalViews {\n    using CashGroup for CashGroupParameters;\n    using TokenHandler for Token;\n    using Market for MarketParameters;\n    using PrimeRateLib for PrimeRate;\n    using SafeInt256 for int256;\n    using SafeUint256 for uint256;\n    using BalanceHandler for BalanceState;\n    using nTokenHandler for nTokenPortfolio;\n    using AccountContextHandler for AccountContext;\n\n    function _checkValidCurrency(uint16 currencyId) internal view {\n        require(0 < currencyId && currencyId <= maxCurrencyId, \"Invalid currency id\");\n    }\n\n    /** Governance Parameter Getters **/\n\n    /// @notice Returns the current maximum currency id\n    function getMaxCurrencyId() external view override returns (uint16) {\n        return maxCurrencyId;\n    }\n\n    /// @notice Returns a currency id, a zero means that it is not listed.\n    function getCurrencyId(address tokenAddress)\n        external\n        view\n        override\n        returns (uint16 currencyId)\n    {\n        currencyId = tokenAddressToCurrencyId[tokenAddress];\n        require(currencyId != 0, \"Token not listed\");\n    }\n\n    /// @notice Returns the asset token and underlying token related to a given currency id. If underlying\n    /// token is not set then will return the zero address\n    function getCurrency(uint16 currencyId)\n        external\n        view\n        override\n        returns (Token memory assetToken, Token memory underlyingToken)\n    {\n        _checkValidCurrency(currencyId);\n        assetToken = TokenHandler.getDeprecatedAssetToken(currencyId);\n        underlyingToken = TokenHandler.getUnderlyingToken(currencyId);\n    }\n\n    /// @notice Returns the ETH and Asset rates for a currency as stored, useful for viewing how they are configured\n    function getRateStorage(uint16 currencyId)\n        external\n        view\n        override\n        returns (ETHRateStorage memory ethRate, AssetRateStorage memory assetRate)\n    {\n        _checkValidCurrency(currencyId);\n        mapping(uint256 => ETHRateStorage) storage ethStore = LibStorage.getExchangeRateStorage();\n        mapping(uint256 => AssetRateStorage) storage assetStore = LibStorage.getAssetRateStorage_deprecated();\n        ethRate = ethStore[currencyId];\n        assetRate = assetStore[currencyId];\n    }\n\n    /// @notice Returns a currency and its corresponding asset rate and ETH exchange rates. Note that this does not recalculate\n    /// cToken interest rates, it only retrieves the latest stored rate.\n    function getCurrencyAndRates(uint16 currencyId)\n        external\n        view\n        override\n        returns (\n            Token memory assetToken,\n            Token memory underlyingToken,\n            ETHRate memory ethRate,\n            Deprecated_AssetRateParameters memory assetRate\n        )\n    {\n        _checkValidCurrency(currencyId);\n        assetToken = TokenHandler.getDeprecatedAssetToken(currencyId);\n        underlyingToken = TokenHandler.getUnderlyingToken(currencyId);\n        ethRate = ExchangeRate.buildExchangeRate(currencyId);\n        assetRate = DeprecatedAssetRate.getAdaptedAssetRate(currencyId);\n    }\n\n    /// @notice Returns cash group settings for a currency\n    function getCashGroup(uint16 currencyId)\n        external\n        view\n        override\n        returns (CashGroupSettings memory)\n    {\n        _checkValidCurrency(currencyId);\n        return CashGroup.deserializeCashGroupStorage(currencyId);\n    }\n\n    /// @notice Returns the cash group along with the asset rate for convenience.\n    function getCashGroupAndAssetRate(uint16 currencyId)\n        external\n        view\n        override\n        returns (CashGroupSettings memory cashGroup, Deprecated_AssetRateParameters memory assetRate)\n    {\n        _checkValidCurrency(currencyId);\n        cashGroup = CashGroup.deserializeCashGroupStorage(currencyId);\n        assetRate = DeprecatedAssetRate.getAdaptedAssetRate(currencyId);\n    }\n\n    /// @notice Returns market initialization parameters for a given currency\n    function getInitializationParameters(uint16 currencyId)\n        external view override returns (\n            int256[] memory deprecated_annualizedAnchorRates,\n            int256[] memory proportions\n        ) {\n        _checkValidCurrency(currencyId);\n        uint256 maxMarketIndex = CashGroup.getMaxMarketIndex(currencyId);\n        proportions = nTokenHandler.getInitializationParameters(\n            currencyId,\n            maxMarketIndex\n        );\n    }\n\n    /// @notice Returns nToken deposit parameters for a given currency\n    function getDepositParameters(uint16 currencyId)\n        external\n        view\n        override\n        returns (int256[] memory depositShares, int256[] memory leverageThresholds)\n    {\n        _checkValidCurrency(currencyId);\n        uint256 maxMarketIndex = CashGroup.getMaxMarketIndex(currencyId);\n        (depositShares, leverageThresholds) = nTokenHandler.getDepositParameters(\n            currencyId,\n            maxMarketIndex\n        );\n    }\n\n    function getInterestRateCurve(uint16 currencyId) external view override returns (\n        InterestRateParameters[] memory nextInterestRateCurve,\n        InterestRateParameters[] memory activeInterestRateCurve\n    ) {\n        _checkValidCurrency(currencyId);\n        uint256 maxMarketIndex = CashGroup.getMaxMarketIndex(currencyId);\n        // If no markets are listed, just exit\n        if (maxMarketIndex == 0) return (nextInterestRateCurve, activeInterestRateCurve);\n\n        nextInterestRateCurve = new InterestRateParameters[](maxMarketIndex);\n        activeInterestRateCurve = new InterestRateParameters[](maxMarketIndex);\n\n        for (uint256 i = 1; i <= maxMarketIndex; i++) {\n            nextInterestRateCurve[i - 1] = InterestRateCurve\n                .getNextInterestRateParameters(currencyId, i);\n            activeInterestRateCurve[i - 1] = InterestRateCurve\n                .getActiveInterestRateParameters(currencyId, i);\n        }\n    }\n\n    /// @notice Returns nToken address for a given currency\n    function nTokenAddress(uint16 currencyId) external view override returns (address) {\n        _checkValidCurrency(currencyId);\n        address nToken = nTokenHandler.nTokenAddress(currencyId);\n        require(nToken != address(0), \"No nToken for currency\");\n        return nToken;\n    }\n\n    /// @notice Returns pCash address for a given currency\n    function pCashAddress(uint16 currencyId) external view override returns (address) {\n        _checkValidCurrency(currencyId);\n        return PrimeCashExchangeRate.getCashProxyAddress(currencyId);\n    }\n\n    function pDebtAddress(uint16 currencyId) external view override returns (address) {\n        _checkValidCurrency(currencyId);\n        return PrimeCashExchangeRate.getDebtProxyAddress(currencyId);\n    }\n\n    /// @notice Returns address of the NOTE token\n    function getNoteToken() external pure override returns (address) {\n        return Deployments.NOTE_TOKEN_ADDRESS;\n    }\n\n    /// @notice Returns current ownership status of the contract\n    /// @return owner is the current owner of the Notional system\n    /// @return pendingOwner can claim ownership from the owner\n    function getOwnershipStatus() external view override returns (address, address) {\n        return (owner, pendingOwner);\n    }\n\n    function getGlobalTransferOperatorStatus(address operator) external view override returns (bool isAuthorized) {\n        return globalTransferOperator[operator];\n    }\n\n    function getAuthorizedCallbackContractStatus(address callback) external view override returns (bool isAuthorized) {\n        return authorizedCallbackContract[callback];\n    }\n\n    function getSecondaryIncentiveRewarder(uint16 currencyId) external view override returns (address rewarder) {\n        address tokenAddress = nTokenHandler.nTokenAddress(currencyId);\n        return address(nTokenHandler.getSecondaryRewarder(tokenAddress));\n    }\n\n    /** Global System State View Methods **/\n    function getPrimeFactors(\n        uint16 currencyId,\n        uint256 blockTime\n    ) external view override returns (\n        PrimeRate memory pr,\n        PrimeCashFactors memory factors,\n        uint256 maxUnderlyingSupply,\n        uint256 totalUnderlyingSupply\n    ) {\n        (pr, factors) = PrimeCashExchangeRate.getPrimeCashRateView(currencyId, blockTime);\n        (maxUnderlyingSupply, totalUnderlyingSupply) = pr.getSupplyCap(currencyId);\n    }\n\n    function getPrimeFactorsStored(\n        uint16 currencyId\n    ) external view override returns (PrimeCashFactors memory) {\n        return PrimeCashExchangeRate.getPrimeCashFactors(currencyId);\n    }\n\n    function getPrimeCashHoldingsOracle(uint16 currencyId) external view override returns (address) {\n        return address(PrimeCashExchangeRate.getPrimeCashHoldingsOracle(currencyId));\n    }\n\n    function getPrimeInterestRateCurve(uint16 currencyId) external view override returns (\n        InterestRateParameters memory\n    ) {\n        return InterestRateCurve.getPrimeCashInterestRateParameters(currencyId);\n    }\n\n    function getPrimeInterestRate(uint16 currencyId) external view override returns (\n        uint256 annualDebtRatePreFee,\n        uint256 annualDebtRatePostFee,\n        uint256 annualSupplyRate\n    ) {\n        return PrimeCashExchangeRate.getPrimeInterestRates(\n            currencyId,\n            PrimeCashExchangeRate.getPrimeCashFactors(currencyId)\n       );\n    }\n\n    function getTotalfCashDebtOutstanding(\n        uint16 currencyId, uint256 maturity\n    ) external view override returns (\n        int256 totalfCashDebt,\n        int256 fCashDebtHeldInSettlementReserve,\n        int256 primeCashHeldInSettlementReserve\n    ) {\n        mapping(uint256 => mapping(uint256 => TotalfCashDebtStorage)) storage store = LibStorage.getTotalfCashDebtOutstanding();\n        TotalfCashDebtStorage storage s = store[currencyId][maturity];\n        totalfCashDebt =  -int256(s.totalfCashDebt);\n        fCashDebtHeldInSettlementReserve =  -int256(s.fCashDebtHeldInSettlementReserve);\n        primeCashHeldInSettlementReserve = int256(s.primeCashHeldInSettlementReserve);\n    }\n\n    /// @notice Returns the asset settlement rate for a given maturity\n    function getSettlementRate(uint16 currencyId, uint40 maturity)\n        external view override returns (PrimeRate memory) {\n        _checkValidCurrency(currencyId);\n        return PrimeRateLib.buildPrimeRateSettlementView(\n            currencyId, maturity, block.timestamp\n        );\n    }\n\n    /// @notice Returns a single market\n    function getMarket(\n        uint16 currencyId,\n        uint256 maturity,\n        uint256 settlementDate\n    )\n        external\n        view\n        override\n        returns (MarketParameters memory)\n    {\n        _checkValidCurrency(currencyId);\n        CashGroupParameters memory cashGroup = CashGroup.buildCashGroupView(currencyId);\n        MarketParameters memory market;\n        market.loadMarketWithSettlementDate(\n            currencyId,\n            maturity,\n            block.timestamp,\n            true,\n            cashGroup.getRateOracleTimeWindow(),\n            settlementDate\n        );\n\n        return market;\n    }\n\n    /// @notice Returns all currently active markets for a currency\n    function getActiveMarkets(uint16 currencyId)\n        external\n        view\n        override\n        returns (MarketParameters[] memory)\n    {\n        _checkValidCurrency(currencyId);\n        return _getActiveMarketsAtBlockTime(currencyId, block.timestamp);\n    }\n\n    /// @notice Returns all active markets for a currency at the specified block time, useful for looking\n    /// at historical markets\n    function getActiveMarketsAtBlockTime(uint16 currencyId, uint32 blockTime)\n        external\n        view\n        override\n        returns (MarketParameters[] memory)\n    {\n        _checkValidCurrency(currencyId);\n        return _getActiveMarketsAtBlockTime(currencyId, blockTime);\n    }\n\n    function _getActiveMarketsAtBlockTime(uint16 currencyId, uint256 blockTime)\n        internal\n        view\n        returns (MarketParameters[] memory)\n    {\n        CashGroupParameters memory cashGroup = CashGroup.buildCashGroupView(currencyId);\n        MarketParameters[] memory markets = new MarketParameters[](cashGroup.maxMarketIndex);\n\n        for (uint256 i = 0; i < cashGroup.maxMarketIndex; i++) {\n            cashGroup.loadMarket(markets[i], i + 1, true, blockTime);\n        }\n\n        return markets;\n    }\n\n    /// @notice Returns the current reserve balance for a currency\n    function getReserveBalance(uint16 currencyId)\n        external\n        view\n        override\n        returns (int256 reserveBalance)\n    {\n        _checkValidCurrency(currencyId);\n        reserveBalance = BalanceHandler.getPositiveCashBalance(Constants.FEE_RESERVE, currencyId);\n    }\n\n    function getNTokenPortfolio(address tokenAddress)\n        external\n        view\n        override\n        returns (PortfolioAsset[] memory liquidityTokens, PortfolioAsset[] memory netfCashAssets)\n    {\n        // prettier-ignore\n        (\n            uint16 currencyId,\n            /* incentiveRate */,\n            uint256 lastInitializedTime,\n            uint8 assetArrayLength,\n            /* bytes5 parameters */\n        ) = nTokenHandler.getNTokenContext(tokenAddress);\n\n        liquidityTokens = PortfolioHandler.getSortedPortfolio(tokenAddress, assetArrayLength);\n\n        netfCashAssets = BitmapAssetsHandler.getifCashArray(\n            tokenAddress,\n            currencyId,\n            lastInitializedTime\n        );\n    }\n\n    function getNTokenAccount(address tokenAddress)\n        external\n        view\n        override\n        returns (\n            uint16 currencyId,\n            uint256 totalSupply,\n            uint256 incentiveAnnualEmissionRate,\n            uint256 lastInitializedTime,\n            // NOTE: changing the number of bytes returned by nTokenParameters will not break ABI\n            // decoding since abi encoding is not packed. This method will always return bytes32\n            // and the calling function will truncate that down to the number of bytes specified here.\n            bytes6 nTokenParameters,\n            int256 cashBalance,\n            uint256 accumulatedNOTEPerNToken,\n            uint256 lastAccumulatedTime\n        )\n    {\n        (\n            currencyId,\n            incentiveAnnualEmissionRate,\n            lastInitializedTime,\n            /* assetArrayLength */,\n            nTokenParameters\n        ) = nTokenHandler.getNTokenContext(tokenAddress);\n\n        // prettier-ignore\n        (\n            totalSupply,\n            accumulatedNOTEPerNToken,\n            lastAccumulatedTime\n        ) = nTokenSupply.getStoredNTokenSupplyFactors(tokenAddress);\n\n        // prettier-ignore\n        (\n            cashBalance,\n            /* */,\n            /* */,\n            /* */\n        ) = BalanceHandler.getBalanceStorageView(tokenAddress, currencyId, block.timestamp);\n    }\n\n    /** Account Specific View Methods **/\n\n    /// @notice Returns all account details in a single view\n    function getAccount(address account)\n        external\n        view\n        override\n        returns (\n            AccountContext memory accountContext,\n            AccountBalance[] memory accountBalances,\n            PortfolioAsset[] memory portfolio\n        )\n    {\n        accountContext = AccountContextHandler.getAccountContext(account);\n        accountBalances = new AccountBalance[](10);\n\n        uint256 i = 0;\n        if (accountContext.isBitmapEnabled()) {\n            AccountBalance memory b = accountBalances[0];\n            b.currencyId = accountContext.bitmapCurrencyId;\n            (\n                b.cashBalance,\n                b.nTokenBalance,\n                b.lastClaimTime,\n                b.accountIncentiveDebt\n            ) = BalanceHandler.getBalanceStorageView(account, accountContext.bitmapCurrencyId, block.timestamp);\n            i += 1;\n        }\n\n        bytes18 currencies = accountContext.activeCurrencies;\n        while (currencies != 0) {\n            AccountBalance memory b = accountBalances[i];\n            b.currencyId = uint16(bytes2(currencies) & Constants.UNMASK_FLAGS);\n            if (b.currencyId == 0) break;\n\n            (\n                b.cashBalance,\n                b.nTokenBalance,\n                b.lastClaimTime,\n                b.accountIncentiveDebt\n            ) = BalanceHandler.getBalanceStorageView(account, b.currencyId, block.timestamp);\n            i += 1;\n            currencies = currencies << 16;\n        }\n\n        if (accountContext.isBitmapEnabled()) {\n            portfolio = BitmapAssetsHandler.getifCashArray(\n                account,\n                accountContext.bitmapCurrencyId,\n                accountContext.nextSettleTime\n            );\n        } else {\n            portfolio = PortfolioHandler.getSortedPortfolio(\n                account,\n                accountContext.assetArrayLength\n            );\n        }\n    }\n\n    /// @notice Returns account context\n    function getAccountContext(address account) external view override returns (AccountContext memory) {\n        return AccountContextHandler.getAccountContext(account);\n    }\n\n    function getAccountPrimeDebtBalance(uint16 currencyId, address account) external view override returns (\n        int256 debtBalance\n    ) {\n        mapping(address => mapping(uint256 => BalanceStorage)) storage store = LibStorage.getBalanceStorage();\n        BalanceStorage storage balanceStorage = store[account][currencyId];\n        int256 cashBalance = balanceStorage.cashBalance;\n\n        // Only return cash balances less than zero\n        debtBalance = cashBalance < 0 ? cashBalance : 0;\n    }\n\n    /// @notice Returns account balances for a given currency\n    function getAccountBalance(uint16 currencyId, address account) external view override returns (\n        int256 cashBalance,\n        int256 nTokenBalance,\n        uint256 lastClaimTime\n    ) {\n        _checkValidCurrency(currencyId);\n        // prettier-ignore\n        (\n            cashBalance,\n            nTokenBalance,\n            lastClaimTime,\n            /* */\n        ) = BalanceHandler.getBalanceStorageView(account, currencyId, block.timestamp);\n    }\n\n    /// @notice Returns the balance of figure for prime cash for the prime cash proxy, the logic is slightly modified\n    /// for the nToken account because it needs to return the sum of all cash held in markets.\n    function getBalanceOfPrimeCash(\n        uint16 currencyId,\n        address account\n    ) external view override returns (int256 cashBalance) {\n        (cashBalance, /* */, /* */, /* */) = BalanceHandler.getBalanceStorageView(account, currencyId, block.timestamp);\n\n        if (account == nTokenHandler.nTokenAddress(currencyId)) {\n            MarketParameters[] memory markets = _getActiveMarketsAtBlockTime(currencyId, block.timestamp);\n            for (uint256 i; i < markets.length; i++) cashBalance = cashBalance.add(markets[i].totalPrimeCash);\n        }\n    }\n\n    /// @notice Returns account portfolio of assets\n    function getAccountPortfolio(address account) external view override returns (PortfolioAsset[] memory) {\n        AccountContext memory accountContext = AccountContextHandler.getAccountContext(account);\n        if (accountContext.isBitmapEnabled()) {\n            return\n                BitmapAssetsHandler.getifCashArray(\n                    account,\n                    accountContext.bitmapCurrencyId,\n                    accountContext.nextSettleTime\n                );\n        } else {\n            return PortfolioHandler.getSortedPortfolio(account, accountContext.assetArrayLength);\n        }\n    }\n\n    /// @notice Returns the fCash amount at the specified maturity for a bitmapped portfolio\n    function getfCashNotional(address account, uint16 currencyId, uint256 maturity) external view override returns (int256) {\n        _checkValidCurrency(currencyId);\n        return BitmapAssetsHandler.getifCashNotional(account, currencyId, maturity);\n    }\n\n    /// @notice Returns the assets bitmap for an account\n    function getAssetsBitmap(address account, uint16 currencyId) external view override returns (bytes32) {\n        _checkValidCurrency(currencyId);\n        return BitmapAssetsHandler.getAssetsBitmap(account, currencyId);\n    }\n\n    /// @notice Returns free collateral of an account along with an array of the individual net available\n    /// asset cash amounts\n    function getFreeCollateral(address account) external view override returns (int256, int256[] memory) {\n        return FreeCollateralExternal.getFreeCollateralView(account);\n    }\n\n    /// @notice Returns the current treasury manager contract\n    function getTreasuryManager() external view override returns (address) {\n        return treasuryManagerContract;\n    }\n\n    /// @notice Returns the current reserve buffer for a currency\n    /// @param currencyId refers to the currency of the reserve\n    function getReserveBuffer(uint16 currencyId) external view override returns (uint256) {\n        return reserveBuffer[currencyId];\n    }\n\n    function getRebalancingTarget(uint16 currencyId, address holding) external view override returns (uint8) {\n        mapping(address => uint8) storage rebalancingTargets = LibStorage.getRebalancingTargets()[currencyId];\n        return rebalancingTargets[holding];\n    }\n\n    function getRebalancingCooldown(uint16 currencyId) external view override returns (uint40) {\n        mapping(uint16 => RebalancingContextStorage) storage store = LibStorage.getRebalancingContext();\n        return store[currencyId].rebalancingCooldownInSeconds;\n    }\n\n    function getStoredTokenBalances(address[] calldata tokens) external view override returns (uint256[] memory balances) {\n        mapping(address => uint256) storage store = LibStorage.getStoredTokenBalances();\n        balances = new uint256[](tokens.length);\n        for (uint256 i; i < tokens.length; ++i) {\n            balances[i] = store[tokens[i]];\n        }\n    }\n\n    function decodeERC1155Id(uint256 id) external view override returns (\n        uint16 currencyId,\n        uint256 maturity,\n        uint256 assetType,\n        address vaultAddress,\n        bool isfCashDebt\n    ) {\n        return Emitter.decodeId(id);\n    }\n\n    // Encodes an ERC1155 id\n    function encode(\n        uint16 currencyId,\n        uint256 maturity,\n        uint256 assetType,\n        address vaultAddress,\n        bool isfCashDebt\n    ) external pure override returns (uint256) {\n        return Emitter.encodeId(currencyId, maturity, assetType, vaultAddress, isfCashDebt);\n    }\n\n    /// @notice Get a list of deployed library addresses (sorted by library name)\n    function getLibInfo() external pure returns (address, address) {\n        return (address(FreeCollateralExternal), address(MigrateIncentives));\n    }\n\n    fallback() external {\n        revert(\"Method not found\");\n    }\n}\n","sourcePath":"contracts/external/Views.sol","type":"contract","deployment":{"address":"0x357409FdF4960391b76f78E4DF6697E9dE66CEA6","chainid":"42161","blockHeight":164624227}}