{"abi":[{"inputs":[{"internalType":"uint256","name":"currencyIndex","type":"uint256"},{"components":[{"internalType":"int256","name":"accountDebtUnderlying","type":"int256"},{"internalType":"uint256","name":"maturity","type":"uint256"},{"internalType":"uint256","name":"vaultShares","type":"uint256"},{"internalType":"address","name":"account","type":"address"},{"internalType":"int256","name":"tempCashBalance","type":"int256"},{"internalType":"uint256","name":"lastUpdateBlockTime","type":"uint256"}],"internalType":"struct VaultAccount","name":"vaultAccount","type":"tuple"},{"components":[{"internalType":"address","name":"vault","type":"address"},{"internalType":"uint16","name":"flags","type":"uint16"},{"internalType":"uint16","name":"borrowCurrencyId","type":"uint16"},{"internalType":"int256","name":"minAccountBorrowSize","type":"int256"},{"internalType":"int256","name":"feeRate","type":"int256"},{"internalType":"int256","name":"minCollateralRatio","type":"int256"},{"internalType":"int256","name":"liquidationRate","type":"int256"},{"internalType":"int256","name":"reserveFeeShare","type":"int256"},{"internalType":"uint256","name":"maxBorrowMarketIndex","type":"uint256"},{"internalType":"int256","name":"maxDeleverageCollateralRatio","type":"int256"},{"internalType":"uint16[2]","name":"secondaryBorrowCurrencies","type":"uint16[2]"},{"components":[{"internalType":"int256","name":"supplyFactor","type":"int256"},{"internalType":"int256","name":"debtFactor","type":"int256"},{"internalType":"uint256","name":"oracleSupplyRate","type":"uint256"}],"internalType":"struct PrimeRate","name":"primeRate","type":"tuple"},{"internalType":"int256","name":"maxRequiredAccountCollateralRatio","type":"int256"},{"internalType":"int256[2]","name":"minAccountSecondaryBorrow","type":"int256[2]"},{"internalType":"int256","name":"excessCashLiquidationBonus","type":"int256"}],"internalType":"struct VaultConfig","name":"vaultConfig","type":"tuple"},{"components":[{"internalType":"uint256","name":"maturity","type":"uint256"},{"internalType":"int256","name":"totalDebtUnderlying","type":"int256"},{"internalType":"uint256","name":"totalVaultShares","type":"uint256"},{"internalType":"bool","name":"isSettled","type":"bool"}],"internalType":"struct VaultState","name":"vaultState","type":"tuple"},{"internalType":"int256","name":"depositUnderlyingInternal","type":"int256"}],"name":"calculateDepositAmountInDeleverage","outputs":[{"internalType":"int256","name":"","type":"int256"},{"internalType":"uint256","name":"","type":"uint256"},{"components":[{"internalType":"int256","name":"supplyFactor","type":"int256"},{"internalType":"int256","name":"debtFactor","type":"int256"},{"internalType":"uint256","name":"oracleSupplyRate","type":"uint256"}],"internalType":"struct PrimeRate","name":"","type":"tuple"}],"stateMutability":"nonpayable","type":"function"},{"inputs":[{"internalType":"address","name":"vault","type":"address"},{"internalType":"address","name":"account","type":"address"}],"name":"checkVaultAccountCollateralRatio","outputs":[],"stateMutability":"nonpayable","type":"function"},{"inputs":[{"internalType":"address","name":"vault","type":"address"},{"internalType":"uint16","name":"currencyId","type":"uint16"}],"name":"getBorrowCapacity","outputs":[{"internalType":"uint256","name":"currentPrimeDebtUnderlying","type":"uint256"},{"internalType":"uint256","name":"totalfCashDebt","type":"uint256"},{"internalType":"uint256","name":"maxBorrowCapacity","type":"uint256"}],"stateMutability":"view","type":"function"},{"inputs":[{"internalType":"address","name":"vault","type":"address"},{"internalType":"uint16","name":"currencyId","type":"uint16"},{"internalType":"uint256","name":"maturity","type":"uint256"}],"name":"getSecondaryBorrow","outputs":[{"internalType":"int256","name":"totalDebtUnderlying","type":"int256"}],"stateMutability":"view","type":"function"},{"inputs":[{"internalType":"address","name":"account","type":"address"},{"internalType":"address","name":"vault","type":"address"}],"name":"getVaultAccount","outputs":[{"components":[{"internalType":"int256","name":"accountDebtUnderlying","type":"int256"},{"internalType":"uint256","name":"maturity","type":"uint256"},{"internalType":"uint256","name":"vaultShares","type":"uint256"},{"internalType":"address","name":"account","type":"address"},{"internalType":"int256","name":"tempCashBalance","type":"int256"},{"internalType":"uint256","name":"lastUpdateBlockTime","type":"uint256"}],"internalType":"struct VaultAccount","name":"vaultAccount","type":"tuple"}],"stateMutability":"view","type":"function"},{"inputs":[{"internalType":"address","name":"account","type":"address"},{"internalType":"address","name":"vault","type":"address"}],"name":"getVaultAccountHealthFactors","outputs":[{"components":[{"internalType":"int256","name":"collateralRatio","type":"int256"},{"internalType":"int256","name":"totalDebtOutstandingInPrimary","type":"int256"},{"internalType":"int256","name":"vaultShareValueUnderlying","type":"int256"},{"internalType":"int256[3]","name":"netDebtOutstanding","type":"int256[3]"}],"internalType":"struct VaultAccountHealthFactors","name":"h","type":"tuple"},{"internalType":"int256[3]","name":"maxLiquidatorDepositUnderlying","type":"int256[3]"},{"internalType":"uint256[3]","name":"vaultSharesToLiquidator","type":"uint256[3]"}],"stateMutability":"view","type":"function"},{"inputs":[{"internalType":"address","name":"account","type":"address"},{"internalType":"address","name":"vault","type":"address"}],"name":"getVaultAccountSecondaryDebt","outputs":[{"internalType":"uint256","name":"maturity","type":"uint256"},{"internalType":"int256[2]","name":"accountSecondaryDebt","type":"int256[2]"},{"internalType":"int256[2]","name":"accountSecondaryCashHeld","type":"int256[2]"}],"stateMutability":"view","type":"function"},{"inputs":[{"internalType":"address","name":"account","type":"address"},{"internalType":"address","name":"vault","type":"address"}],"name":"getVaultAccountWithFeeAccrual","outputs":[{"components":[{"internalType":"int256","name":"accountDebtUnderlying","type":"int256"},{"internalType":"uint256","name":"maturity","type":"uint256"},{"internalType":"uint256","name":"vaultShares","type":"uint256"},{"internalType":"address","name":"account","type":"address"},{"internalType":"int256","name":"tempCashBalance","type":"int256"},{"internalType":"uint256","name":"lastUpdateBlockTime","type":"uint256"}],"internalType":"struct VaultAccount","name":"vaultAccount","type":"tuple"},{"internalType":"int256","name":"accruedPrimeVaultFeeInUnderlying","type":"int256"}],"stateMutability":"view","type":"function"},{"inputs":[{"internalType":"address","name":"vault","type":"address"}],"name":"getVaultConfig","outputs":[{"components":[{"internalType":"address","name":"vault","type":"address"},{"internalType":"uint16","name":"flags","type":"uint16"},{"internalType":"uint16","name":"borrowCurrencyId","type":"uint16"},{"internalType":"int256","name":"minAccountBorrowSize","type":"int256"},{"internalType":"int256","name":"feeRate","type":"int256"},{"internalType":"int256","name":"minCollateralRatio","type":"int256"},{"internalType":"int256","name":"liquidationRate","type":"int256"},{"internalType":"int256","name":"reserveFeeShare","type":"int256"},{"internalType":"uint256","name":"maxBorrowMarketIndex","type":"uint256"},{"internalType":"int256","name":"maxDeleverageCollateralRatio","type":"int256"},{"internalType":"uint16[2]","name":"secondaryBorrowCurrencies","type":"uint16[2]"},{"components":[{"internalType":"int256","name":"supplyFactor","type":"int256"},{"internalType":"int256","name":"debtFactor","type":"int256"},{"internalType":"uint256","name":"oracleSupplyRate","type":"uint256"}],"internalType":"struct PrimeRate","name":"primeRate","type":"tuple"},{"internalType":"int256","name":"maxRequiredAccountCollateralRatio","type":"int256"},{"internalType":"int256[2]","name":"minAccountSecondaryBorrow","type":"int256[2]"},{"internalType":"int256","name":"excessCashLiquidationBonus","type":"int256"}],"internalType":"struct VaultConfig","name":"vaultConfig","type":"tuple"}],"stateMutability":"view","type":"function"},{"inputs":[{"internalType":"address","name":"vault","type":"address"},{"internalType":"uint256","name":"maturity","type":"uint256"}],"name":"getVaultState","outputs":[{"components":[{"internalType":"uint256","name":"maturity","type":"uint256"},{"internalType":"int256","name":"totalDebtUnderlying","type":"int256"},{"internalType":"uint256","name":"totalVaultShares","type":"uint256"},{"internalType":"bool","name":"isSettled","type":"bool"}],"internalType":"struct VaultState","name":"vaultState","type":"tuple"}],"stateMutability":"view","type":"function"},{"inputs":[{"internalType":"uint16","name":"currencyId","type":"uint16"},{"internalType":"uint256","name":"maturity","type":"uint256"},{"internalType":"int256","name":"vaultAccountCashBalance","type":"int256"}],"name":"getfCashRequiredToLiquidateCash","outputs":[{"internalType":"int256","name":"fCashRequired","type":"int256"},{"internalType":"int256","name":"discountFactor","type":"int256"}],"stateMutability":"view","type":"function"},{"inputs":[{"internalType":"address","name":"account","type":"address"},{"internalType":"uint256","name":"id","type":"uint256"}],"name":"signedBalanceOfVaultTokenId","outputs":[{"internalType":"int256","name":"","type":"int256"}],"stateMutability":"view","type":"function"}],"bytecode":"608060405234801561001057600080fd5b50614e0a806100206000396000f3fe608060405234801561001057600080fd5b50600436106100b45760003560e01c8063bf23dc6211610071578063bf23dc621461017a578063c025d1a51461019c578063c74db1f0146101bc578063c9384f26146101de578063de1eb9a3146101f3578063f82f279d14610213576100b4565b806331572281146100b95780634a7a3410146100e257806367515776146101025780638767da9414610124578063a14db57c14610145578063b14428b914610158575b600080fd5b6100cc6100c73660046147bb565b610234565b6040516100d99190614d4c565b60405180910390f35b6100f56100f03660046147bb565b610295565b6040516100d99190614a7d565b610115610110366004614757565b610504565b6040516100d993929190614d9a565b610137610132366004614725565b6105ba565b6040516100d9929190614c52565b6100f5610153366004614780565b61064f565b61016b610166366004614725565b6106ef565b6040516100d993929190614bd1565b61018d610188366004614725565b61080d565b6040516100d993929190614d79565b6101af6101aa366004614725565b610883565b6040516100d99190614c44565b6101cf6101ca36600461482e565b6108aa565b6040516100d993929190614a94565b6101f16101ec366004614725565b61098e565b005b61020661020136600461470b565b610a6b565b6040516100d99190614c6d565b6102266102213660046147fc565b610a7c565b6040516100d9929190614a86565b61023c614174565b600061024784610aba565b90506102538184610ae7565b915042831161028e57604081015160208301516101608301516102889261027c92879042610b72565b61016083015190610b99565b60208301525b5092915050565b60008060008060006102a686610bd2565b935093509350935060006102b982610aba565b905060006102c5610c15565b6001600160a01b038a81166000908152602083815260408083208751909416835292905220805491925090600160a01b900464ffffffffff16858114610316576000985050505050505050506104fe565b600988141561033f575054600160501b90046001600160501b031696506104fe95505050505050565b836040015161ffff168761ffff1614801561035a5750600a88145b156103785750546001600160501b031696506104fe95505050505050565b836040015161ffff168761ffff161480156103935750600b88145b156103b45750600101546001600160501b031696506104fe95505050505050565b6103bd84610c22565b156104f157600080600a8a14156104745760006103d8610c4f565b60008f6001600160a01b03166001600160a01b03168152602001908152602001600020600088600001516001600160a01b03166001600160a01b0316815260200190815260200160002090508060000160059054906101000a90046001600160501b03166001600160501b031681600001600f9054906101000a90046001600160501b03166001600160501b031680935081945050505061049f565b600b8a141561049f57505060018201546001600160501b03600160501b8204811691600160a01b9004165b6101408601515161ffff8a8116911614156104c5575098506104fe975050505050505050565b6101408601516020015161ffff8a8116911614156104ee5799506104fe98505050505050505050565b50505b6000985050505050505050505b92915050565b60008060008061051386610aba565b9050600061051f610c5c565b6001600160a01b03881660009081526020918252604080822061ffff8a1683529092522080546001600160501b03600160501b820481169650169350905061056561419e565b826040015161ffff168761ffff1614156105855750610160820151610593565b61058f8742610c69565b5090505b6105ae6105a96105a485848b610d27565b610dd6565b610de4565b95505050509250925092565b6105c26141bf565b6000806105ce84610aba565b90506105da8582610df7565b602081015190935064ffffffffff14156106475760a0830151835161016083015161062d91610621918791610612916105a491610ea6565b60208801518692919042610ec8565b61016084015190610b99565b60a0850182905284519093506106439084610f5e565b8452505b509250929050565b60008061065a610f74565b6001600160a01b038616600090815260209182526040808220868352835280822061ffff8816835290925290812091506106948542610c69565b5082546001600160501b03166000039350905064ffffffffff8414156106c5576106be8184610f81565b92506106e6565b4284116106e6576106e36106dc8287878742610b72565b8290610b99565b92505b50509392505050565b6106f76141fe565b6106ff61422b565b61070761422b565b600061071285610aba565b905060006107208783610df7565b90506000610732838360200151610ae7565b905061073c614249565b61074584610c22565b15610757576107548442610fd2565b90505b61075f61419e565b61076b85858585611036565b604086015191995091506000906107819061116a565b90508560a0015189600001511215610800576107a9868a846000856001600160ff1b03611180565b885288526107b686610c22565b15610800576107d1868a846001856001600160ff1b03611180565b6020898101919091528901526107f3868a846002856001600160ff1b03611180565b6040898101919091528901525b5050505050509250925092565b6000610817614276565b61081f614276565b600061082a85610aba565b905060006108388242610fd2565b905060006108468884610df7565b9050610853838984611318565b602088015286526060820151845191975061086d916113ac565b6020860152845250939692955090935090915050565b61088b6141bf565b600061089683610aba565b90506108a28482610df7565b949350505050565b6000806108b561419e565b3330146108c157600080fd5b6101608601516108cf6141fe565b6108d761419e565b6108df614249565b6108e88a610c22565b1561091a576108f68a611402565b90508b15610915578060018d036002811061090d57fe5b602002015193505b610925565b8b1561092557600080fd5b6109318a8c8b84611036565b60a08c01518251929550909350136109645760405162461bcd60e51b815260040161095b90614ba2565b60405180910390fd5b5060006109798a84848f8f604001518d611180565b909d909c50939a509298505050505050505050565b816001600160a01b0316816001600160a01b031614156109ad57600080fd5b60006109b883611462565b905060006109c68383610df7565b905060006109d8838360200151610ae7565b905081608001516000146109eb57600080fd5b6109f5848661148d565b6000610a0c84838786604001518760000151611502565b50604084015190915015610a3f57836101800151811315610a3f5760405162461bcd60e51b815260040161095b90614b06565b808460a001511315610a635760405162461bcd60e51b815260040161095b90614b34565b505050505050565b610a73614294565b6104fe82610aba565b6000806000610a8b8642610c69565b509050610a998187876115a5565b9150610aaf82610aa98387610b99565b90611603565b925050935093915050565b610ac2614294565b610acb8261161c565b9050610adb816040015142610c69565b50610160820152919050565b610aef614174565b6000610af961180f565b84516001600160a01b031660009081526020828152604080832087845290915290819020858552805460ff600160f01b820416151560608701526001600160501b03600160a01b82048116938701939093526101608801519394509092610b6492909187911661181c565b602084015250909392505050565b600080610b80868685611852565b9050610b8d878286611886565b50979650505050505050565b6000610bcb6ec097ce7bc90715b34b9f1000000000610bc58560000151856118ef90919063ffffffff16565b9061193d565b9392505050565b60ff8116600080806009841015610bf457506000925082915081905080610c0e565b505050603082901c64ffffffffff600884901c16604084901c5b9193509193565b6000806104fe601661196e565b6101408101515160009061ffff161515806104fe5750506101408101516020015161ffff1615155b919050565b6000806104fe601a61196e565b6000806104fe601761196e565b610c7161419e565b610c7961432d565b610c8284611987565b90508281600001511015610cb3576000610c9b85611a4f565b9050610ca985838387611aca565b509150610cc09050565b80518314610cc057600080fd5b6040518060600160405280610cee610ce98460a001518560c00151611b6e90919063ffffffff16565b61116a565b8152602001610d11610ce98460a001518560e00151611b6e90919063ffffffff16565b8152602001826060015181525091509250929050565b600080846040015161ffff168361ffff161415610d7357610d4661180f565b85516001600160a01b031660009081526020918252604080822064ffffffffff8352909252209050610db0565b610d7b610f74565b85516001600160a01b031660009081526020918252604080822064ffffffffff8352835280822061ffff871683529092522090505b8054610dcd90859064ffffffffff906001600160501b031661181c565b95945050505050565b60006104fe600019836118ef565b600080821215610df357600080fd5b5090565b610dff6141bf565b6000610e09610c15565b6001600160a01b038086166000818152602084815260408083208951909516835293815290839020805464ffffffffff600160a01b8204169288018390526001600160501b03600160501b8204811695890195909552606088019390935260018101548416608088015263ffffffff600160c81b84041660a088015261016088015194955093610e9b9390921661181c565b835250909392505050565b8151600090610bcb90610bc5846ec097ce7bc90715b34b9f10000000006118ef565b60008064ffffffffff841415610f1a57602086015164ffffffffff14610ef2576000915050610dcd565b610f0c610ce98760a0015185611b9590919063ffffffff16565b60a087018490529050610f2a565b610f27610ce98585611b95565b90505b6080870151600090610f46906301da9c0090610bc590856118ef565b9050610f528682611baa565b98975050505050505050565b808203828113156000831215146104fe57600080fd5b6000806104fe601861196e565b600060018212610f9057600080fd5b81610f9d575060006104fe565b610bcb6001610fcc6ec097ce7bc90715b34b9f1000000000610bc58760200151876118ef90919063ffffffff16565b90610f5e565b610fda614249565b6101408301515161ffff1615611006576101408301516110029060005b602002015183610c69565b5081525b6101408301516020015161ffff16156104fe5761014083015161102a906001610ff7565b50602082015292915050565b61103e6141fe565b61104661419e565b61105a848787606001518860400151611bc3565b604083015260808501516101608701516110a5916110789190610b99565b61016088015160408901518751895161109f9392919061109a8d610200611c80565b611c95565b90611cfb565b606083018051919091525151600013156110c95760608201515160208301526110e3565b60608201515160408301516110dd91611cfb565b60408301525b6110ec86610c22565b1561114b576000806111048886888a60600151611d11565b60608901516040810191909152602090810191909152870151909550919350915061112f9083611cfb565b602085015260408401516111439082611cfb565b604085015250505b61115d82604001518360200151611d50565b8252909590945092505050565b60006001600160ff1b03821115610df357600080fd5b600080600087604001511361119a5750600090508061130d565b6000856111ac575060608801516111f6565b88610140015160018703600281106111c057fe5b602002015161ffff166111da57600080925092505061130d565b886101a0015160018703600281106111ee57fe5b602002015190505b8651600090156112085787518061120c565b6001805b89529050600187141561122457506020870151611234565b8660021415611234575060408701515b60006112758b8b6040015161124c8d60200151610dd6565b6112698e606001518d6003811061125f57fe5b6020020151610dd6565b87878f60000151611d89565b9050808612156112c957600061129887610fcc8d606001518c6003811061125f57fe5b90508015806112a75750808413155b6112c35760405162461bcd60e51b815260040161095b90614b6b565b506112cd565b8095505b60006112ea83610bc58c600001518a6118ef90919063ffffffff16565b90506000611302898e60c001518e6040015185611e7f565b889750955050505050505b965096945050505050565b600080600080611326610c4f565b6001600160a01b038781166000908152602092835260408082208b5190931682529190925290208054865164ffffffffff8216965091925061137a91908690600160281b90046001600160501b031661181c565b92506113a0856001602002015182548690600160781b90046001600160501b031661181c565b91505093509350939050565b60008060006113b9610c15565b6001600160a01b0395861660009081526020918252604080822096909716815294905250505020600101546001600160501b03600160501b8204811692600160a01b9092041690565b61140a614249565b6101408201515161ffff1615611434576101408201516114319060005b6020020151611e9c565b81525b6101408201516020015161ffff1615610c4a57610140820151611458906001611427565b6020820152919050565b61146a614294565b6114738261161c565b90506114828160400151611e9c565b610160820152919050565b6000611497610c15565b6001600160a01b0384811660009081526020928352604080822092861682529190925290206001810154909150600160501b90046001600160501b0316156114de57600080fd5b6001810154600160a01b90046001600160501b0316156114fd57600080fd5b505050565b60008061151186888787611bc3565b9050600061153e886101600151896040015189600001518761109a6102008e611c8090919063ffffffff16565b905061154988610c22565b1561158e57600061155989611402565b905060008061156a8b848c8c611d11565b505050915091508060001461157e57600080fd5b6115888483611cfb565b93505050505b6115988282611d50565b9250509550959350505050565b6000806115b28486611eae565b905060006115c1828542611ef1565b905060006115ce83611fda565b9050808211156115f2576115ed6115e58642611b95565b828403611fe7565b6115f8565b633b9aca005b979650505050505050565b6000610bcb61161684633b9aca006118ef565b8361193d565b611624614294565b600061162e61205a565b6001600160a01b03841660008181526020838152604091829020928652825461ffff80821692880192909252620100009004169085015290915061168a612710633b9aca008354600160501b900460ff16919005600502611b6e565b608084015280546116ae9068010000000000000000900461ffff16620186a0611b6e565b60a084015280546116cd90600160701b900461ffff16620186a0611b6e565b61012084015260028101546116e99061ffff16620186a0611b6e565b610180840152805460649060ff600160581b90910416633b9aca00020560c08401528054600160601b810460ff90811660e0860152600160681b909104166101008401526040805180820191829052906001830190600290826000855b82829054906101000a900461ffff1661ffff168152602001906002019060208260010104928301926001038202915080841161174657505050505061014085019190915250600481015460ff166101c084015280546117b290640100000000900463ffffffff16612067565b60608401526117e86003820160005b600891828204019190066004029054906101000a900463ffffffff1663ffffffff16612067565b6101a0840151526117fd6003820160016117c1565b6101a084015160200152509092915050565b6000806104fe601561196e565b600064ffffffffff831461183c57816001600160501b03166000036108a2565b6108a2846001600160501b038416600003610f81565b61185a61419e565b60006118668585612075565b90925090508061187e5761187a8584610c69565b5091505b509392505050565b6000806118938484610ea6565b915061189f8483612108565b905060008212156118e7576118e46001610fcc8760000151610bc589602001516118de8a60200151610bc58c600001518b6118ef90919063ffffffff16565b906118ef565b91505b935093915050565b81810260001983141561191f5781158061191157508282828161190e57fe5b05145b61191a57600080fd5b6104fe565b82158061193457508183828161193157fe5b05145b6104fe57600080fd5b6000816000191480156119535750600160ff1b83145b1561195d57600080fd5b81838161196657fe5b059392505050565b6000620f424082602681111561198057fe5b0192915050565b61198f61432d565b6000611999612141565b61ffff93841660009081526020918252604090819020805464ffffffffff81168652600160281b81046001600160581b03908116948701949094526001820154841692860192909252600160d81b820463ffffffff166060860152600160801b9091049091166080840152600201546001600160501b0380821660a0850152600160501b8204811660c0850152600160a01b82041660e0840152600160f01b900460ff1661012c02909216610100820152919050565b600080611a5b8361214e565b6001600160a01b031663a77c05b86040518163ffffffff1660e01b8152600401604080518083038186803b158015611a9257600080fd5b505afa158015611aa6573d6000803e3d6000fd5b505050506040513d601f19601f820116820180604052508101906108a291906148f0565b611ad261432d565b6000806000611ae288868961217e565b60c08b019290925260e08a019290925260208901519193509150611b069083612289565b6020880152608087015160009015611b34576080880151611b3190611b2b8982611b95565b9061229b565b90505b611b54611b49670de0b6b3a764000083612289565b60a08a0151906122b8565b60a089015250506080860194909452505082529092909150565b600082611b7d575060006104fe565b82820282848281611b8a57fe5b0414610bcb57600080fd5b600082821115611ba457600080fd5b50900390565b6000610bcb611bb984846118ef565b633b9aca0061193d565b600081611bd2575060006108a2565b6000611be5856040015161ffff166122d5565b8551875160405163e937711160e01b8152929350611c76926001600160a01b039092169163e937711191611c1f9189918991600401614a5c565b60206040518083038186803b158015611c3757600080fd5b505afa158015611c4b573d6000803e3d6000fd5b505050506040513d601f19601f82011682018060405250810190611c6f91906147e4565b82906122e8565b9695505050505050565b60209190910151811661ffff90811691161490565b6000428411611cbc57611cb5611cae8787878742610b72565b8790610b99565b9050610dcd565b818015611cce575064ffffffffff8414155b15611cf1576000611cdf8688611eae565b9050611ced81858742612318565b9350505b5090949350505050565b818101828112156000831215146104fe57600080fd5b600080611d1c61419e565b600080611d2889612368565b9250611d3b898985898b60000151612403565b909c909b509499509097509550919350505050565b600080611d5d8484611cfb565b905060008312611d76576001600160ff1b03915061028e565b6108a2611d8284610dd6565b8290611603565b6000808513611d9a575060006115f8565b610120880151600090611db190633b9aca00611cfb565b90506000611ddd611dcf8b60c0015184610f5e90919063ffffffff16565b610aa98b610fcc8c87611baa565b9050611ded84610bc583886118ef565b92506000611dfb8885610f5e565b905083881280611e0a57508681125b15611e2357879350611e2086610bc586886118ef565b91505b6000611e408b610bc58e60c00151866118ef90919063ffffffff16565b9050633b9aca008112611e705760c08c0151611e5d908c90611603565b9250611e6d86610bc5858a6118ef565b94505b50505050979650505050505050565b6000610dcd6105a9633b9aca00610bc58681876118de8c8c6118ef565b611ea461419e565b6104fe82426124e4565b611eb6614379565b6000611ec58461ffff166125a5565b6040805160808101825261ffff96909616865260ff821660208701528501939093525050606082015290565b6000806000611f05866020015186866125c2565b915091506000611f1487612649565b905081611f34578651611f2d9061ffff1687838861265d565b9350611fd0565b6000611f3f866126fc565b90506000611f56611f4f8661271a565b8390612289565b90506000611f6e8a6000015161ffff1683868b61265d565b90506000808760011415611f8c5750506040808b0151015188611fbb565b611fa2611f9b60018a0361271a565b8690612289565b9050611fb88c6000015161ffff1682888d61265d565b91505b611fc8818584868f6127be565b985050505050505b5050509392505050565b60006104fe82604061281b565b60008061200a6120056301da9c00611fff8688611b6e565b9061282e565b61284d565b905061201c81621dcd6560491b61286b565b905061202f61202a826128be565b6128e0565b905061204181621dcd6560491b612935565b9050600061204e8261296b565b60070b95945050505050565b6000806104fe601461196e565b600881901c60ff9091161b90565b61207d61419e565b600080612088612974565b61ffff861660009081526020828152604080832088845290915290208054600160f01b900460ff16935090915082156120ff5780546001600160501b03600160a01b82048116916120da911682611b6e565b855281546120f890600160501b90046001600160501b031682611b6e565b6020860152505b50509250929050565b60008082121561213b576121366001610fcc8560200151610bc58760000151876118ef90919063ffffffff16565b610bcb565b50919050565b6000806104fe601d61196e565b600080612159612981565b61ffff939093166000908152602093909352505060409020546001600160a01b031690565b600080600080600080612191898861298e565b895190955091935091506000906121b8906121ad908b90611b95565b633b9aca0090611b6e565b90506121f26121e76301da9c006121cf8585611b6e565b816121d657fe5b670de0b6b3a7640000919004612289565b60e08a0151906122b8565b96506122146122096301da9c006121cf8785611b6e565b60c08a0151906122b8565b95508183141561222b575060009350612280915050565b600061224d6122426301da9c006121cf8786611b6e565b60e08b0151906122b8565b9050600061225b8983611b95565b905061227888611fff838d60400151611b6e90919063ffffffff16565b965050505050505b93509350935093565b600082820183811015610bcb57600080fd5b6000610bcb6122b284670de0b6b3a7640000611b6e565b8361282e565b6000610bcb6122c78484611b6e565b670de0b6b3a764000061282e565b6122dd6143a5565b6104fe826001612a29565b60006305f5e100836040015114156123015750806104fe565b6040830151610bcb90610bc5846305f5e1006118ef565b600083612327575060006108a2565b60008085136123405761233b868585612ac3565b61234b565b61234b868585612aff565b9050633b9aca0081131561235e57600080fd5b611c768582611baa565b61237061419e565b6000612383836040015161ffff16612b3c565b805183526101408401515190915061ffff16156123cc576123c6816123c18561014001516000600281106123b357fe5b602002015161ffff16612b3c565b612c9f565b60208301525b6101408301516020015161ffff161561213b576123f8816123c18561014001516001600281106123b357fe5b604083015250919050565b60008060008060008061241a888c600001516113ac565b915091506124298b898c611318565b90975095506000905061243e8c610200611c80565b6101408d01515190915061ffff16156124805761247d612467848d60005b602002015190610b99565b8c516101408f01515161109f91908c8c87611c95565b96505b6101408c01516020015161ffff16156124c4576124c16124a2838d600161245c565b60208d01516101408f015161109f9190600160200201518c8b87611c95565b95505b6124cf8a8888612cc4565b979d969c509a50959850939650505050505050565b6124ec61419e565b60006124f784611987565b905082816000015110156125365760008061251186612d76565b905061251f86848388611aca565b909350915061252f868385612dcf565b5050612543565b8051831461254357600080fd5b604051806060016040528061256c610ce98460a001518560c00151611b6e90919063ffffffff16565b815260200161258f610ce98460a001518560e00151611b6e90919063ffffffff16565b8152602001826060015181525091505092915050565b6000806125b0613003565b60009384526020525050604090205490565b600080600085116125d257600080fd5b60078511156125e057600080fd5b60006125eb846126fc565b905060015b86811161264357600061260c6126058361271a565b8490612289565b90508681141561262457509250600091506118e79050565b8681111561263a57509250600191506118e79050565b506001016125f0565b50600080fd5b6060015161012c60089190911c60ff160290565b600080612668613010565b905060006276a700612679856126fc565b6000898152602085815260408083208b84528252808320949093018083529390522080549192509063ffffffff600160a01b8204811691600160c01b8104821691600160e01b90910416816126e05760405162461bcd60e51b815260040161095b90614aaf565b6126ed8184848c8c61301d565b9b9a5050505050505050505050565b60006276a70082101561270e57600080fd5b506276a7008106900390565b6000816001141561272f57506276a700610c4a565b8160021415612742575062ed4e00610c4a565b816003141561275657506301da9c00610c4a565b816004141561276a57506303b53800610c4a565b816005141561277e57506309450c00610c4a565b8160061415612792575063128a1800610c4a565b81600714156127a657506325143000610c4a565b60405162461bcd60e51b815260040161095b90614adf565b60008186106127cc57600080fd5b8482106127d857600080fd5b8383106127fd57611cb5846127f7888803611fff8388038b8803611b6e565b90612289565b611cb5612814878703611fff8688038a8703611b6e565b8590611b95565b60609091015160ff911c16622625a00290565b600080821161283c57600080fd5b81838161284557fe5b049392505050565b6000677fffffffffffffff82111561286457600080fd5b5060401b90565b600081600f0b6000141561287e57600080fd5b600082600f0b604085600f0b901b8161289357fe5b05905060016001607f1b031981128015906128b5575060016001607f1b038113155b610bcb57600080fd5b6000600f82900b60016001607f1b031914156128d957600080fd5b5060000390565b6000600160461b82600f0b126128f557600080fd5b683fffffffffffffffff1982600f0b121561291257506000610c4a565b6104fe608083600f0b700171547652b82fe1777d0ffda0d23a7d1202901d6130a5565b6000600f83810b9083900b0260401d60016001607f1b031981128015906128b5575060016001607f1b03811315610bcb57600080fd5b600f0b60401d90565b6000806104fe601e61196e565b6000806104fe601f61196e565b6000806000806000856020015111156129db576129d86129bf8660c001518760200151611b6e90919063ffffffff16565b60e087015160408801516129d291611b6e565b90613b5c565b90505b60006129e687613b6f565b90506129f28183613ba2565b94508115612a0957612a0681866001613c5c565b93505b602086015115612a2057612a1d8583613cd4565b92505b50509250925092565b612a316143a5565b6000612a3b613ced565b6000858152602082815260408083208715158452825291829020825160a08101845281546001600160a01b038116825260ff600160a01b82048116151594830194909452600160b01b81048416600a0a9482019490945293945092916060830191600160a81b909104166005811115612ab057fe5b8152600060209091015295945050505050565b600080612ad1858585613cfa565b90508015612af157612aec612ae68585611b95565b82611fe7565b610dcd565b633b9aca0095945050505050565b600080612b0d858585613d4a565b9050612b1c612ae68585611b95565b91506000612b2986613d8b565b9050828112156106e65795945050505050565b612b446143cc565b6000612b4e613da6565b6000848152602082905260408120919250806001861415612b7b5750670de0b6b3a7640000905080612c3e565b825460408051633fabe5a360e21b815290516001600160a01b039092169163feaf968c9160048082019260a092909190829003018186803b158015612bbf57600080fd5b505afa158015612bd3573d6000803e3d6000fd5b505050506040513d601f19601f82011682018060405250810190612bf79190614913565b5091935050600083139150612c0d905057600080fd5b825460ff600160a01b82048116600a0a9350600160a81b9091041615612c3e57612c3b81610bc584806118ef565b90505b8254600160b01b900460ff166096811315612c5e5760951901600a026096015b6040805160a081018252938452602084019290925290820152905460ff600160b81b820481166060840152600160c01b909104166080820152915050919050565b6000610bcb8260200151610bc5846000015186602001516118ef90919063ffffffff16565b6000806000841215612cee5760208501518551612ce79190610bc59087906118ef565b9150612d11565b8360001215612d115760208501518551612d0e9190610bc59087906118ef565b90505b6000831215612d425760408501518551612d3b91612d3491610bc59087906118ef565b8390611cfb565b91506118e7565b82600012156118e75760408501518551612d6c91612d6591610bc59087906118ef565b8290611cfb565b9050935093915050565b600080612d828361214e565b6001600160a01b031663ef81f2166040518163ffffffff1660e01b81526004016040805180830381600087803b158015612dbb57600080fd5b505af1158015611aa6573d6000803e3d6000fd5b6000612dd9612141565b60008561ffff1681526020019081526020016000209050612dfd8260000151613db3565b815464ffffffffff191664ffffffffff9190911617815560a0820151612e2290613dc7565b60028201805469ffffffffffffffffffff19166001600160501b039290921691909117905560c0820151612e5590613dc7565b81600201600a6101000a8154816001600160501b0302191690836001600160501b03160217905550612e8a8260e00151613dc7565b8160020160146101000a8154816001600160501b0302191690836001600160501b03160217905550612ebf8260200151613ddd565b81546001600160581b0391909116600160281b026fffffffffffffffffffffff0000000000199091161781556040820151612ef990613ddd565b6001820180546affffffffffffffffffffff19166001600160581b03929092169190911790556080820151612f2d90613ddd565b81546001600160581b0391909116600160801b026affffffffffffffffffffff60801b199091161781556060820151612f6590613df3565b815463ffffffff91909116600160d81b0263ffffffff60d81b199091161781558215612fb1576000612f968461116a565b9050612fa28582613e06565b612faf610fee8683613e3d565b505b8361ffff167fef25641e225e493886510ca1ad6584fa7b442b9fea820a29d1de3ce27d270fd28360a001518460c001518560e00151604051612ff593929190614d9a565b60405180910390a250505050565b6000806104fe600961196e565b6000806104fe600a61196e565b600080831161302b57600080fd5b8186111561303a575083610dcd565b60006130468388611b95565b9050838111156130595785915050610dcd565b60006130658286613b5c565b90506000613077633b9aca0083611b95565b9050613098633b9aca00611fff61308e8a85611b6e565b6127f78c87611b6e565b9998505050505050505050565b6000600160461b82600f0b126130ba57600080fd5b683fffffffffffffffff1982600f0b12156130d757506000610c4a565b6001607f1b60006780000000000000008416600f0b13156131095770016a09e667f3bcc908b2fb1366ea957d3e0260801c5b60008367400000000000000016600f0b1315613136577001306fe0a31b7152de8d5a46305c85edec0260801c5b60008367200000000000000016600f0b1315613163577001172b83c7d517adcdf7c8c50eb14a791f0260801c5b60008367100000000000000016600f0b13156131905770010b5586cf9890f6298b92b71842a983630260801c5b60008367080000000000000016600f0b13156131bd577001059b0d31585743ae7c548eb68ca417fd0260801c5b60008367040000000000000016600f0b13156131ea57700102c9a3e778060ee6f7caca4f7a29bde80260801c5b60008367020000000000000016600f0b13156132175770010163da9fb33356d84a66ae336dcdfa3f0260801c5b60008367010000000000000016600f0b131561324457700100b1afa5abcbed6129ab13ec11dc95430260801c5b600083668000000000000016600f0b13156132705770010058c86da1c09ea1ff19d294cf2f679b0260801c5b600083664000000000000016600f0b131561329c577001002c605e2e8cec506d21bfc89a23a00f0260801c5b600083662000000000000016600f0b13156132c857700100162f3904051fa128bca9c55c31e5df0260801c5b600083661000000000000016600f0b13156132f4577001000b175effdc76ba38e31671ca9397250260801c5b600083660800000000000016600f0b131561332057700100058ba01fb9f96d6cacd4b180917c3d0260801c5b600083660400000000000016600f0b131561334c5770010002c5cc37da9491d0985c348c68e7b30260801c5b600083660200000000000016600f0b1315613378577001000162e525ee054754457d59952920260260801c5b600083660100000000000016600f0b13156133a45770010000b17255775c040618bf4a4ade83fc0260801c5b6000836580000000000016600f0b13156133cf577001000058b91b5bc9ae2eed81e9b7d4cfab0260801c5b6000836540000000000016600f0b13156133fa57700100002c5c89d5ec6ca4d7c8acc017b7c90260801c5b6000836520000000000016600f0b13156134255770010000162e43f4f831060e02d839a9d16d0260801c5b6000836510000000000016600f0b131561345057700100000b1721bcfc99d9f890ea069117630260801c5b6000836508000000000016600f0b131561347b5770010000058b90cf1e6d97f9ca14dbcc16280260801c5b6000836504000000000016600f0b13156134a6577001000002c5c863b73f016468f6bac5ca2b0260801c5b6000836502000000000016600f0b13156134d157700100000162e430e5a18f6119e3c02282a50260801c5b600083600160281b16600f0b13156134fa577001000000b1721835514b86e6d96efd1bfe0260801c5b60008364800000000016600f0b131561352457700100000058b90c0b48c6be5df846c5b2ef0260801c5b60008364400000000016600f0b131561354e5770010000002c5c8601cc6b9e94213c72737a0260801c5b60008364200000000016600f0b1315613578577001000000162e42fff037df38aa2b219f060260801c5b60008364100000000016600f0b13156135a25770010000000b17217fba9c739aa5819f44f90260801c5b60008364080000000016600f0b13156135cc577001000000058b90bfcdee5acd3c1cedc8230260801c5b60008364040000000016600f0b13156135f657700100000002c5c85fe31f35a6a30da1be500260801c5b60008364020000000016600f0b13156136205770010000000162e42ff0999ce3541b9fffcf0260801c5b60008364010000000016600f0b131561364a57700100000000b17217f80f4ef5aadda455540260801c5b600083638000000016600f0b13156136735770010000000058b90bfbf8479bd5a81b51ad0260801c5b600083634000000016600f0b131561369c577001000000002c5c85fdf84bd62ae30a74cc0260801c5b600083632000000016600f0b13156136c557700100000000162e42fefb2fed257559bdaa0260801c5b600083631000000016600f0b13156136ee577001000000000b17217f7d5a7716bba4a9ae0260801c5b600083630800000016600f0b131561371757700100000000058b90bfbe9ddbac5e109cce0260801c5b600083630400000016600f0b13156137405770010000000002c5c85fdf4b15de6f17eb0d0260801c5b600083630200000016600f0b1315613769577001000000000162e42fefa494f1478fde050260801c5b600083630100000016600f0b13156137925770010000000000b17217f7d20cf927c8e94c0260801c5b6000836280000016600f0b13156137ba577001000000000058b90bfbe8f71cb4e4b33d0260801c5b6000836240000016600f0b13156137e257700100000000002c5c85fdf477b662b269450260801c5b6000836220000016600f0b131561380a5770010000000000162e42fefa3ae53369388c0260801c5b6000836210000016600f0b131561383257700100000000000b17217f7d1d351a389d400260801c5b6000836208000016600f0b131561385a5770010000000000058b90bfbe8e8b2d3d4ede0260801c5b6000836204000016600f0b1315613882577001000000000002c5c85fdf4741bea6e77e0260801c5b6000836202000016600f0b13156138aa57700100000000000162e42fefa39fe95583c20260801c5b6000836201000016600f0b13156138d2577001000000000000b17217f7d1cfb72b45e10260801c5b60008361800016600f0b13156138f957700100000000000058b90bfbe8e7cc35c3f00260801c5b60008361400016600f0b13156139205770010000000000002c5c85fdf473e242ea380260801c5b60008361200016600f0b1315613947577001000000000000162e42fefa39f02b772c0260801c5b60008361100016600f0b131561396e5770010000000000000b17217f7d1cf7d83c1a0260801c5b60008361080016600f0b1315613995577001000000000000058b90bfbe8e7bdcbe2e0260801c5b60008361040016600f0b13156139bc57700100000000000002c5c85fdf473dea871f0260801c5b60008361020016600f0b13156139e35770010000000000000162e42fefa39ef44d910260801c5b60008361010016600f0b1315613a0a57700100000000000000b17217f7d1cf79e9490260801c5b600083608016600f0b1315613a305770010000000000000058b90bfbe8e7bce5440260801c5b600083604016600f0b1315613a56577001000000000000002c5c85fdf473de6eca0260801c5b600083602016600f0b1315613a7c57700100000000000000162e42fefa39ef366f0260801c5b600083601016600f0b1315613aa2577001000000000000000b17217f7d1cf79afa0260801c5b600083600816600f0b1315613ac857700100000000000000058b90bfbe8e7bcd6d0260801c5b600083600416600f0b1315613aee5770010000000000000002c5c85fdf473de6b20260801c5b600083600216600f0b1315613b14577001000000000000000162e42fefa39ef3580260801c5b600083600116600f0b1315613b3a5770010000000000000000b17217f7d1cf79ab0260801c5b600f83810b60401d603f03900b1c60016001607f1b038111156104fe57600080fd5b6000610bcb6122b284633b9aca00611b6e565b613b776143fb565b6000613b81613ec7565b61ffff8416600090815260209190915260408120549150610bcb9082613ed4565b600080836080015111613bb457600080fd5b633b9aca00821115613bc557600080fd5b82518211613beb5782516040840151613be49190611fff908590611b6e565b90506104fe565b82602001518211613c23576040830151835160208501516060860151613be493926127f79281900391611fff91880390859003611b6e565b610bcb83606001516127f78560200151633b9aca0003611fff876060015188608001510388602001518803611b6e90919063ffffffff16565b600080613c7b6064611fff8760e0015187611b6e90919063ffffffff16565b90508460a00151811015613c90575060a08401515b8460c00151811115613ca3575060c08401515b8215613cba57613cb38482612289565b915061187e565b838111613cc957808403610dcd565b506000949350505050565b6000610bcb613ce38484611b6e565b633b9aca0061282e565b6000806104fe600761196e565b6000613d07848484611ef1565b90506000613d1485613ff3565b9050808211613d27576000915050610bcb565b80820391506000613d3786614000565b9050828110156106e65795945050505050565b6000613d57848484611ef1565b9050613d6c613d658561400d565b8290612289565b90506000613d798561401a565b90508082101561187e57949350505050565b606001516207a12060109190911c60ff1602633b9aca000390565b6000806104fe601061196e565b600064ffffffffff821115610df357600080fd5b60006001600160501b03821115610df357600080fd5b60006001600160581b03821115610df357600080fd5b600063ffffffff821115610df357600080fd5b6000811215613e1457600080fd5b6000613e22610fee84614027565b9050613e2e8183611cfb565b90506114fd610fee8483614080565b6000613e476140f4565b61ffff8416600090815260209190915260409081902054905163ad1c095d60e01b81526001600160a01b039091169150819063ad1c095d90613e8f9087908690600401614a43565b600060405180830381600087803b158015613ea957600080fd5b505af1158015613ebd573d6000803e3d6000fd5b5050505050505050565b6000806104fe601b61196e565b613edc6143fb565b6064633b9aca008360ff861660208110613ef257fe5b1a0281613efb57fe5b0481526064633b9aca008360ff861660010160208110613f1757fe5b1a0281613f2057fe5b04816020018181525050613f458260028560ff160160208110613f3f57fe5b1a614101565b60808201819052610100908360ff861660030160208110613f6257fe5b1a0281613f6b57fe5b0460408201526080810151610100908360ff861660040160208110613f8c57fe5b1a0281613f9557fe5b0460608201526207a1208260ff851660050160208110613fb157fe5b1a0260a0820152622625a08260ff851660060160208110613fce57fe5b1a0260c08201528160ff841660070160208110613fe757fe5b1a60e082015292915050565b60006104fe82602061281b565b60006104fe82604861281b565b60006104fe82602861281b565b60006104fe82603061281b565b600080614032614135565b6001600160a01b03851660009081526020828152604080832061ffff8816845290915281208054600160a81b9004600a90810b900b945091925083121561407857600080fd5b505092915050565b600081121561408e57600080fd5b6000614098614135565b6001600160a01b03851660009081526020828152604080832061ffff8816845290915290209091506140c983614142565b8154600a9190910b6001600160581b0316600160a81b026001600160a81b0390911617905550505050565b6000806104fe602161196e565b60008160ff1660961061411c5760ff8216622625a0026104fe565b5060951960ff919091160162e4e1c00263165a0bc00190565b6000806104fe600661196e565b60006a7fffffffffffffffffffff19821280159061416b57506a7fffffffffffffffffffff8213155b610df357600080fd5b60405180608001604052806000815260200160008152602001600081526020016000151581525090565b60405180606001604052806000815260200160008152602001600081525090565b6040518060c0016040528060008152602001600081526020016000815260200160006001600160a01b0316815260200160008152602001600081525090565b604051806080016040528060008152602001600081526020016000815260200161422661422b565b905290565b60405180606001604052806003906020820280368337509192915050565b60405180604001604052806002905b61426061419e565b8152602001906001900390816142585790505090565b60405180604001604052806002906020820280368337509192915050565b604051806101e0016040528060006001600160a01b03168152602001600061ffff168152602001600061ffff168152602001600081526020016000815260200160008152602001600081526020016000815260200160008152602001600081526020016142ff614276565b815260200161430c61419e565b815260200160008152602001614320614276565b8152602001600081525090565b6040518061012001604052806000815260200160008152602001600081526020016000815260200160008152602001600081526020016000815260200160008152602001600081525090565b604080516080810182526000808252602082015290810161439861419e565b8152600060209091015290565b6040805160a081018252600080825260208201819052918101829052906060820190614320565b6040518060a0016040528060008152602001600081526020016000815260200160008152602001600081525090565b60405180610100016040528060008152602001600081526020016000815260200160008152602001600081526020016000815260200160008152602001600081525090565b80356001600160a01b0381168114610c4a57600080fd5b600082601f830112614467578081fd5b6040516040810181811067ffffffffffffffff8211171561448457fe5b806040525080838560408601111561449a578384fd5b835b60028110156144bb57813583526020928301929091019060010161449c565b509195945050505050565b600082601f8301126144d6578081fd5b6040516040810181811067ffffffffffffffff821117156144f357fe5b8060405250808385604086011115614509578384fd5b835b60028110156144bb5761451d826146e2565b8352602092830192919091019060010161450b565b600060608284031215614543578081fd5b6040516060810181811067ffffffffffffffff8211171561456057fe5b80604052508091508235815260208301356020820152604083013560408201525092915050565b60006102608284031215614599578081fd5b6101e06145a581614db0565b91506145b083614440565b82526145be602084016146e2565b60208301526145cf604084016146e2565b6040830152606083013560608301526080830135608083015260a083013560a083015260c083013560c083015260e083013560e083015261010080840135818401525061012080840135818401525061014061462d858286016144c6565b9083015261018061464085858301614532565b610160840152908301359082015261465c836102008401614457565b6101a08201526102408201356101c082015292915050565b600060808284031215614685578081fd5b6040516080810181811067ffffffffffffffff821117156146a257fe5b8060405250809150823581526020830135602082015260408301356040820152606083013580151581146146d557600080fd5b6060919091015292915050565b803561ffff81168114610c4a57600080fd5b80516001600160501b0381168114610c4a57600080fd5b60006020828403121561471c578081fd5b610bcb82614440565b60008060408385031215614737578081fd5b61474083614440565b915061474e60208401614440565b90509250929050565b60008060408385031215614769578182fd5b61477283614440565b915061474e602084016146e2565b600080600060608486031215614794578081fd5b61479d84614440565b92506147ab602085016146e2565b9150604084013590509250925092565b600080604083850312156147cd578182fd5b6147d683614440565b946020939093013593505050565b6000602082840312156147f5578081fd5b5051919050565b600080600060608486031215614810578081fd5b614819846146e2565b95602085013595506040909401359392505050565b60008060008060008587036103e0811215614847578384fd5b8635955060c0601f198201121561485c578384fd5b5060405160c0810181811067ffffffffffffffff8211171561487a57fe5b80604052506020870135815260408701356020820152606087013560408201526148a660808801614440565b606082015260a087810135608083015260c08801359082015293506148ce8760e08801614587565b92506148de876103408801614674565b949793965091946103c0013592915050565b60008060408385031215614902578182fd5b505080516020909101519092909150565b600080600080600060a0868803121561492a578283fd5b614933866146f4565b9450602086015193506040860151925060608601519150614956608087016146f4565b90509295509295909350565b6001600160a01b03169052565b8060005b6002811015614992578151845260209384019390910190600101614973565b50505050565b8060005b600381101561499257815184526020938401939091019060010161499c565b8060005b600281101561499257815161ffff168452602093840193909101906001016149bf565b8051825260208082015190830152604090810151910152565b8051825260208082015190830152604080820151908301526060808201516001600160a01b0316908301526080808201519083015260a090810151910152565b61ffff169052565b6001600160a01b03929092168252602082015260400190565b6001600160a01b039390931683526020830191909152604082015260600190565b90815260200190565b918252602082015260400190565b8381526020810183905260a081016108a260408301846149e2565b60208082526016908201527513585c9ad95d081b9bdd081a5b9a5d1a585b1a5e995960521b604082015260600190565b6020808252600d908201526c092dcecc2d8d2c840d2dcc8caf609b1b604082015260600190565b60208082526014908201527310589bdd994813585e0810dbdb1b185d195c985b60621b604082015260600190565b60208082526017908201527f496e73756666696369656e7420436f6c6c61746572616c000000000000000000604082015260600190565b60208082526017908201527f4d757374204c697175696461746520416c6c2044656274000000000000000000604082015260600190565b60208082526015908201527414dd59999a58da595b9d0810dbdb1b185d195c985b605a1b604082015260600190565b6000610180820190508451825260208086015181840152604086015160408401526060860151614c046060850182614998565b50614c1260c0840186614998565b61012083018460005b6003811015614c3857815183529183019190830190600101614c1b565b50505050949350505050565b60c081016104fe82846149fb565b60e08101614c6082856149fb565b8260c08301529392505050565b600061026082019050614c81828451614962565b6020830151614c936020840182614a3b565b506040830151614ca66040840182614a3b565b50606083015160608301526080830151608083015260a083015160a083015260c083015160c083015260e083015160e083015261010080840151818401525061012080840151818401525061014080840151614d04828501826149bb565b5050610160830151610180614d1b818501836149e2565b8401516101e0840152506101a0830151614d3961020084018261496f565b506101c083015161024083015292915050565b81518152602080830151908201526040808301519082015260609182015115159181019190915260800190565b83815260a08101614d8d602083018561496f565b6108a2606083018461496f565b9283526020830191909152604082015260600190565b60405181810167ffffffffffffffff81118282101715614dcc57fe5b60405291905056fea2646970667358221220b5b8f279b9a82f0aa8b0795128fe406957cbe1de74de28e562ee4c6d6bbf107664736f6c63430007060033","bytecodeSha1":"29e7a3de03d143e8845595304d3f78d7a4bd5eb7","compiler":{"evm_version":"istanbul","optimizer":{"enabled":true,"runs":200},"version":"0.7.6+commit.7338295f"},"contractName":"VaultAccountHealth","language":"Solidity","natspec":{"kind":"dev","methods":{"checkVaultAccountCollateralRatio(address,address)":{"notice":"Checks if a vault account has sufficient collateral to perform an action, reverts if it does not. Called at the end of VaultAccountActions after all values have been set in storage"},"getVaultState(address,uint256)":{"notice":"View method to get vault state"},"getfCashRequiredToLiquidateCash(uint16,uint256,int256)":{"notice":"Returns the fCash required to liquidate a given vault cash balance."},"signedBalanceOfVaultTokenId(address,uint256)":{"notice":"Returns the signed value for a given vault ERC1155 id"}},"version":1},"opcodes":"PUSH1 0x80 PUSH1 0x40 MSTORE CALLVALUE DUP1 ISZERO PUSH2 0x10 JUMPI PUSH1 0x0 DUP1 REVERT JUMPDEST POP PUSH1 0x4 CALLDATASIZE LT PUSH2 0xB4 JUMPI PUSH1 0x0 CALLDATALOAD PUSH1 0xE0 SHR DUP1 PUSH4 0xBF23DC62 GT PUSH2 0x71 JUMPI DUP1 PUSH4 0xBF23DC62 EQ PUSH2 0x17A JUMPI DUP1 PUSH4 0xC025D1A5 EQ PUSH2 0x19C JUMPI DUP1 PUSH4 0xC74DB1F0 EQ PUSH2 0x1BC JUMPI DUP1 PUSH4 0xC9384F26 EQ PUSH2 0x1DE JUMPI DUP1 PUSH4 0xDE1EB9A3 EQ PUSH2 0x1F3 JUMPI DUP1 PUSH4 0xF82F279D EQ PUSH2 0x213 JUMPI PUSH2 0xB4 JUMP JUMPDEST DUP1 PUSH4 0x31572281 EQ PUSH2 0xB9 JUMPI DUP1 PUSH4 0x4A7A3410 EQ PUSH2 0xE2 JUMPI DUP1 PUSH4 0x67515776 EQ PUSH2 0x102 JUMPI DUP1 PUSH4 0x8767DA94 EQ PUSH2 0x124 JUMPI DUP1 PUSH4 0xA14DB57C EQ PUSH2 0x145 JUMPI DUP1 PUSH4 0xB14428B9 EQ PUSH2 0x158 JUMPI JUMPDEST PUSH1 0x0 DUP1 REVERT JUMPDEST PUSH2 0xCC PUSH2 0xC7 CALLDATASIZE PUSH1 0x4 PUSH2 0x47BB JUMP JUMPDEST PUSH2 0x234 JUMP JUMPDEST PUSH1 0x40 MLOAD PUSH2 0xD9 SWAP2 SWAP1 PUSH2 0x4D4C JUMP JUMPDEST PUSH1 0x40 MLOAD DUP1 SWAP2 SUB SWAP1 RETURN JUMPDEST PUSH2 0xF5 PUSH2 0xF0 CALLDATASIZE PUSH1 0x4 PUSH2 0x47BB JUMP JUMPDEST PUSH2 0x295 JUMP JUMPDEST PUSH1 0x40 MLOAD PUSH2 0xD9 SWAP2 SWAP1 PUSH2 0x4A7D JUMP JUMPDEST PUSH2 0x115 PUSH2 0x110 CALLDATASIZE PUSH1 0x4 PUSH2 0x4757 JUMP JUMPDEST PUSH2 0x504 JUMP JUMPDEST PUSH1 0x40 MLOAD PUSH2 0xD9 SWAP4 SWAP3 SWAP2 SWAP1 PUSH2 0x4D9A JUMP JUMPDEST PUSH2 0x137 PUSH2 0x132 CALLDATASIZE PUSH1 0x4 PUSH2 0x4725 JUMP JUMPDEST PUSH2 0x5BA JUMP JUMPDEST PUSH1 0x40 MLOAD PUSH2 0xD9 SWAP3 SWAP2 SWAP1 PUSH2 0x4C52 JUMP JUMPDEST PUSH2 0xF5 PUSH2 0x153 CALLDATASIZE PUSH1 0x4 PUSH2 0x4780 JUMP JUMPDEST PUSH2 0x64F JUMP JUMPDEST PUSH2 0x16B PUSH2 0x166 CALLDATASIZE PUSH1 0x4 PUSH2 0x4725 JUMP JUMPDEST PUSH2 0x6EF JUMP JUMPDEST PUSH1 0x40 MLOAD PUSH2 0xD9 SWAP4 SWAP3 SWAP2 SWAP1 PUSH2 0x4BD1 JUMP JUMPDEST PUSH2 0x18D PUSH2 0x188 CALLDATASIZE PUSH1 0x4 PUSH2 0x4725 JUMP JUMPDEST PUSH2 0x80D JUMP JUMPDEST PUSH1 0x40 MLOAD PUSH2 0xD9 SWAP4 SWAP3 SWAP2 SWAP1 PUSH2 0x4D79 JUMP JUMPDEST PUSH2 0x1AF PUSH2 0x1AA CALLDATASIZE PUSH1 0x4 PUSH2 0x4725 JUMP JUMPDEST PUSH2 0x883 JUMP JUMPDEST PUSH1 0x40 MLOAD PUSH2 0xD9 SWAP2 SWAP1 PUSH2 0x4C44 JUMP JUMPDEST PUSH2 0x1CF PUSH2 0x1CA CALLDATASIZE PUSH1 0x4 PUSH2 0x482E JUMP JUMPDEST PUSH2 0x8AA JUMP JUMPDEST PUSH1 0x40 MLOAD PUSH2 0xD9 SWAP4 SWAP3 SWAP2 SWAP1 PUSH2 0x4A94 JUMP JUMPDEST PUSH2 0x1F1 PUSH2 0x1EC CALLDATASIZE PUSH1 0x4 PUSH2 0x4725 JUMP JUMPDEST PUSH2 0x98E JUMP JUMPDEST STOP JUMPDEST PUSH2 0x206 PUSH2 0x201 CALLDATASIZE PUSH1 0x4 PUSH2 0x470B JUMP JUMPDEST PUSH2 0xA6B JUMP JUMPDEST PUSH1 0x40 MLOAD PUSH2 0xD9 SWAP2 SWAP1 PUSH2 0x4C6D JUMP JUMPDEST PUSH2 0x226 PUSH2 0x221 CALLDATASIZE PUSH1 0x4 PUSH2 0x47FC JUMP JUMPDEST PUSH2 0xA7C JUMP JUMPDEST PUSH1 0x40 MLOAD PUSH2 0xD9 SWAP3 SWAP2 SWAP1 PUSH2 0x4A86 JUMP JUMPDEST PUSH2 0x23C PUSH2 0x4174 JUMP JUMPDEST PUSH1 0x0 PUSH2 0x247 DUP5 PUSH2 0xABA JUMP JUMPDEST SWAP1 POP PUSH2 0x253 DUP2 DUP5 PUSH2 0xAE7 JUMP JUMPDEST SWAP2 POP TIMESTAMP DUP4 GT PUSH2 0x28E JUMPI PUSH1 0x40 DUP2 ADD MLOAD PUSH1 0x20 DUP4 ADD MLOAD PUSH2 0x160 DUP4 ADD MLOAD PUSH2 0x288 SWAP3 PUSH2 0x27C SWAP3 DUP8 SWAP1 TIMESTAMP PUSH2 0xB72 JUMP JUMPDEST PUSH2 0x160 DUP4 ADD MLOAD SWAP1 PUSH2 0xB99 JUMP JUMPDEST PUSH1 0x20 DUP4 ADD MSTORE JUMPDEST POP SWAP3 SWAP2 POP POP JUMP JUMPDEST PUSH1 0x0 DUP1 PUSH1 0x0 DUP1 PUSH1 0x0 PUSH2 0x2A6 DUP7 PUSH2 0xBD2 JUMP JUMPDEST SWAP4 POP SWAP4 POP SWAP4 POP SWAP4 POP PUSH1 0x0 PUSH2 0x2B9 DUP3 PUSH2 0xABA JUMP JUMPDEST SWAP1 POP PUSH1 0x0 PUSH2 0x2C5 PUSH2 0xC15 JUMP JUMPDEST PUSH1 0x1 PUSH1 0x1 PUSH1 0xA0 SHL SUB DUP11 DUP2 AND PUSH1 0x0 SWAP1 DUP2 MSTORE PUSH1 0x20 DUP4 DUP2 MSTORE PUSH1 0x40 DUP1 DUP4 KECCAK256 DUP8 MLOAD SWAP1 SWAP5 AND DUP4 MSTORE SWAP3 SWAP1 MSTORE KECCAK256 DUP1 SLOAD SWAP2 SWAP3 POP SWAP1 PUSH1 0x1 PUSH1 0xA0 SHL SWAP1 DIV PUSH5 0xFFFFFFFFFF AND DUP6 DUP2 EQ PUSH2 0x316 JUMPI PUSH1 0x0 SWAP9 POP POP POP POP POP POP POP POP POP PUSH2 0x4FE JUMP JUMPDEST PUSH1 0x9 DUP9 EQ ISZERO PUSH2 0x33F JUMPI POP SLOAD PUSH1 0x1 PUSH1 0x50 SHL SWAP1 DIV PUSH1 0x1 PUSH1 0x1 PUSH1 0x50 SHL SUB AND SWAP7 POP PUSH2 0x4FE SWAP6 POP POP POP POP POP POP JUMP JUMPDEST DUP4 PUSH1 0x40 ADD MLOAD PUSH2 0xFFFF AND DUP8 PUSH2 0xFFFF AND EQ DUP1 ISZERO PUSH2 0x35A JUMPI POP PUSH1 0xA DUP9 EQ JUMPDEST ISZERO PUSH2 0x378 JUMPI POP SLOAD PUSH1 0x1 PUSH1 0x1 PUSH1 0x50 SHL SUB AND SWAP7 POP PUSH2 0x4FE SWAP6 POP POP POP POP POP POP JUMP JUMPDEST DUP4 PUSH1 0x40 ADD MLOAD PUSH2 0xFFFF AND DUP8 PUSH2 0xFFFF AND EQ DUP1 ISZERO PUSH2 0x393 JUMPI POP PUSH1 0xB DUP9 EQ JUMPDEST ISZERO PUSH2 0x3B4 JUMPI POP PUSH1 0x1 ADD SLOAD PUSH1 0x1 PUSH1 0x1 PUSH1 0x50 SHL SUB AND SWAP7 POP PUSH2 0x4FE SWAP6 POP POP POP POP POP POP JUMP JUMPDEST PUSH2 0x3BD DUP5 PUSH2 0xC22 JUMP JUMPDEST ISZERO PUSH2 0x4F1 JUMPI PUSH1 0x0 DUP1 PUSH1 0xA DUP11 EQ ISZERO PUSH2 0x474 JUMPI PUSH1 0x0 PUSH2 0x3D8 PUSH2 0xC4F JUMP JUMPDEST PUSH1 0x0 DUP16 PUSH1 0x1 PUSH1 0x1 PUSH1 0xA0 SHL SUB AND PUSH1 0x1 PUSH1 0x1 PUSH1 0xA0 SHL SUB AND DUP2 MSTORE PUSH1 0x20 ADD SWAP1 DUP2 MSTORE PUSH1 0x20 ADD PUSH1 0x0 KECCAK256 PUSH1 0x0 DUP9 PUSH1 0x0 ADD MLOAD PUSH1 0x1 PUSH1 0x1 PUSH1 0xA0 SHL SUB AND PUSH1 0x1 PUSH1 0x1 PUSH1 0xA0 SHL SUB AND DUP2 MSTORE PUSH1 0x20 ADD SWAP1 DUP2 MSTORE PUSH1 0x20 ADD PUSH1 0x0 KECCAK256 SWAP1 POP DUP1 PUSH1 0x0 ADD PUSH1 0x5 SWAP1 SLOAD SWAP1 PUSH2 0x100 EXP SWAP1 DIV PUSH1 0x1 PUSH1 0x1 PUSH1 0x50 SHL SUB AND PUSH1 0x1 PUSH1 0x1 PUSH1 0x50 SHL SUB AND DUP2 PUSH1 0x0 ADD PUSH1 0xF SWAP1 SLOAD SWAP1 PUSH2 0x100 EXP SWAP1 DIV PUSH1 0x1 PUSH1 0x1 PUSH1 0x50 SHL SUB AND PUSH1 0x1 PUSH1 0x1 PUSH1 0x50 SHL SUB AND DUP1 SWAP4 POP DUP2 SWAP5 POP POP POP POP PUSH2 0x49F JUMP JUMPDEST PUSH1 0xB DUP11 EQ ISZERO PUSH2 0x49F JUMPI POP POP PUSH1 0x1 DUP3 ADD SLOAD PUSH1 0x1 PUSH1 0x1 PUSH1 0x50 SHL SUB PUSH1 0x1 PUSH1 0x50 SHL DUP3 DIV DUP2 AND SWAP2 PUSH1 0x1 PUSH1 0xA0 SHL SWAP1 DIV AND JUMPDEST PUSH2 0x140 DUP7 ADD MLOAD MLOAD PUSH2 0xFFFF DUP11 DUP2 AND SWAP2 AND EQ ISZERO PUSH2 0x4C5 JUMPI POP SWAP9 POP PUSH2 0x4FE SWAP8 POP POP POP POP POP POP POP POP JUMP JUMPDEST PUSH2 0x140 DUP7 ADD MLOAD PUSH1 0x20 ADD MLOAD PUSH2 0xFFFF DUP11 DUP2 AND SWAP2 AND EQ ISZERO PUSH2 0x4EE JUMPI SWAP10 POP PUSH2 0x4FE SWAP9 POP POP POP POP POP POP POP POP POP JUMP JUMPDEST POP POP JUMPDEST PUSH1 0x0 SWAP9 POP POP POP POP POP POP POP POP POP JUMPDEST SWAP3 SWAP2 POP POP JUMP JUMPDEST PUSH1 0x0 DUP1 PUSH1 0x0 DUP1 PUSH2 0x513 DUP7 PUSH2 0xABA JUMP JUMPDEST SWAP1 POP PUSH1 0x0 PUSH2 0x51F PUSH2 0xC5C JUMP JUMPDEST PUSH1 0x1 PUSH1 0x1 PUSH1 0xA0 SHL SUB DUP9 AND PUSH1 0x0 SWAP1 DUP2 MSTORE PUSH1 0x20 SWAP2 DUP3 MSTORE PUSH1 0x40 DUP1 DUP3 KECCAK256 PUSH2 0xFFFF DUP11 AND DUP4 MSTORE SWAP1 SWAP3 MSTORE KECCAK256 DUP1 SLOAD PUSH1 0x1 PUSH1 0x1 PUSH1 0x50 SHL SUB PUSH1 0x1 PUSH1 0x50 SHL DUP3 DIV DUP2 AND SWAP7 POP AND SWAP4 POP SWAP1 POP PUSH2 0x565 PUSH2 0x419E JUMP JUMPDEST DUP3 PUSH1 0x40 ADD MLOAD PUSH2 0xFFFF AND DUP8 PUSH2 0xFFFF AND EQ ISZERO PUSH2 0x585 JUMPI POP PUSH2 0x160 DUP3 ADD MLOAD PUSH2 0x593 JUMP JUMPDEST PUSH2 0x58F DUP8 TIMESTAMP PUSH2 0xC69 JUMP JUMPDEST POP SWAP1 POP JUMPDEST PUSH2 0x5AE PUSH2 0x5A9 PUSH2 0x5A4 DUP6 DUP5 DUP12 PUSH2 0xD27 JUMP JUMPDEST PUSH2 0xDD6 JUMP JUMPDEST PUSH2 0xDE4 JUMP JUMPDEST SWAP6 POP POP POP POP SWAP3 POP SWAP3 POP SWAP3 JUMP JUMPDEST PUSH2 0x5C2 PUSH2 0x41BF JUMP JUMPDEST PUSH1 0x0 DUP1 PUSH2 0x5CE DUP5 PUSH2 0xABA JUMP JUMPDEST SWAP1 POP PUSH2 0x5DA DUP6 DUP3 PUSH2 0xDF7 JUMP JUMPDEST PUSH1 0x20 DUP2 ADD MLOAD SWAP1 SWAP4 POP PUSH5 0xFFFFFFFFFF EQ ISZERO PUSH2 0x647 JUMPI PUSH1 0xA0 DUP4 ADD MLOAD DUP4 MLOAD PUSH2 0x160 DUP4 ADD MLOAD PUSH2 0x62D SWAP2 PUSH2 0x621 SWAP2 DUP8 SWAP2 PUSH2 0x612 SWAP2 PUSH2 0x5A4 SWAP2 PUSH2 0xEA6 JUMP JUMPDEST PUSH1 0x20 DUP9 ADD MLOAD DUP7 SWAP3 SWAP2 SWAP1 TIMESTAMP PUSH2 0xEC8 JUMP JUMPDEST PUSH2 0x160 DUP5 ADD MLOAD SWAP1 PUSH2 0xB99 JUMP JUMPDEST PUSH1 0xA0 DUP6 ADD DUP3 SWAP1 MSTORE DUP5 MLOAD SWAP1 SWAP4 POP PUSH2 0x643 SWAP1 DUP5 PUSH2 0xF5E JUMP JUMPDEST DUP5 MSTORE POP JUMPDEST POP SWAP3 POP SWAP3 SWAP1 POP JUMP JUMPDEST PUSH1 0x0 DUP1 PUSH2 0x65A PUSH2 0xF74 JUMP JUMPDEST PUSH1 0x1 PUSH1 0x1 PUSH1 0xA0 SHL SUB DUP7 AND PUSH1 0x0 SWAP1 DUP2 MSTORE PUSH1 0x20 SWAP2 DUP3 MSTORE PUSH1 0x40 DUP1 DUP3 KECCAK256 DUP7 DUP4 MSTORE DUP4 MSTORE DUP1 DUP3 KECCAK256 PUSH2 0xFFFF DUP9 AND DUP4 MSTORE SWAP1 SWAP3 MSTORE SWAP1 DUP2 KECCAK256 SWAP2 POP PUSH2 0x694 DUP6 TIMESTAMP PUSH2 0xC69 JUMP JUMPDEST POP DUP3 SLOAD PUSH1 0x1 PUSH1 0x1 PUSH1 0x50 SHL SUB AND PUSH1 0x0 SUB SWAP4 POP SWAP1 POP PUSH5 0xFFFFFFFFFF DUP5 EQ ISZERO PUSH2 0x6C5 JUMPI PUSH2 0x6BE DUP2 DUP5 PUSH2 0xF81 JUMP JUMPDEST SWAP3 POP PUSH2 0x6E6 JUMP JUMPDEST TIMESTAMP DUP5 GT PUSH2 0x6E6 JUMPI PUSH2 0x6E3 PUSH2 0x6DC DUP3 DUP8 DUP8 DUP8 TIMESTAMP PUSH2 0xB72 JUMP JUMPDEST DUP3 SWAP1 PUSH2 0xB99 JUMP JUMPDEST SWAP3 POP JUMPDEST POP POP SWAP4 SWAP3 POP POP POP JUMP JUMPDEST PUSH2 0x6F7 PUSH2 0x41FE JUMP JUMPDEST PUSH2 0x6FF PUSH2 0x422B JUMP JUMPDEST PUSH2 0x707 PUSH2 0x422B JUMP JUMPDEST PUSH1 0x0 PUSH2 0x712 DUP6 PUSH2 0xABA JUMP JUMPDEST SWAP1 POP PUSH1 0x0 PUSH2 0x720 DUP8 DUP4 PUSH2 0xDF7 JUMP JUMPDEST SWAP1 POP PUSH1 0x0 PUSH2 0x732 DUP4 DUP4 PUSH1 0x20 ADD MLOAD PUSH2 0xAE7 JUMP JUMPDEST SWAP1 POP PUSH2 0x73C PUSH2 0x4249 JUMP JUMPDEST PUSH2 0x745 DUP5 PUSH2 0xC22 JUMP JUMPDEST ISZERO PUSH2 0x757 JUMPI PUSH2 0x754 DUP5 TIMESTAMP PUSH2 0xFD2 JUMP JUMPDEST SWAP1 POP JUMPDEST PUSH2 0x75F PUSH2 0x419E JUMP JUMPDEST PUSH2 0x76B DUP6 DUP6 DUP6 DUP6 PUSH2 0x1036 JUMP JUMPDEST PUSH1 0x40 DUP7 ADD MLOAD SWAP2 SWAP10 POP SWAP2 POP PUSH1 0x0 SWAP1 PUSH2 0x781 SWAP1 PUSH2 0x116A JUMP JUMPDEST SWAP1 POP DUP6 PUSH1 0xA0 ADD MLOAD DUP10 PUSH1 0x0 ADD MLOAD SLT ISZERO PUSH2 0x800 JUMPI PUSH2 0x7A9 DUP7 DUP11 DUP5 PUSH1 0x0 DUP6 PUSH1 0x1 PUSH1 0x1 PUSH1 0xFF SHL SUB PUSH2 0x1180 JUMP JUMPDEST DUP9 MSTORE DUP9 MSTORE PUSH2 0x7B6 DUP7 PUSH2 0xC22 JUMP JUMPDEST ISZERO PUSH2 0x800 JUMPI PUSH2 0x7D1 DUP7 DUP11 DUP5 PUSH1 0x1 DUP6 PUSH1 0x1 PUSH1 0x1 PUSH1 0xFF SHL SUB PUSH2 0x1180 JUMP JUMPDEST PUSH1 0x20 DUP10 DUP2 ADD SWAP2 SWAP1 SWAP2 MSTORE DUP10 ADD MSTORE PUSH2 0x7F3 DUP7 DUP11 DUP5 PUSH1 0x2 DUP6 PUSH1 0x1 PUSH1 0x1 PUSH1 0xFF SHL SUB PUSH2 0x1180 JUMP JUMPDEST PUSH1 0x40 DUP10 DUP2 ADD SWAP2 SWAP1 SWAP2 MSTORE DUP10 ADD MSTORE JUMPDEST POP POP POP POP POP POP SWAP3 POP SWAP3 POP SWAP3 JUMP JUMPDEST PUSH1 0x0 PUSH2 0x817 PUSH2 0x4276 JUMP JUMPDEST PUSH2 0x81F PUSH2 0x4276 JUMP JUMPDEST PUSH1 0x0 PUSH2 0x82A DUP6 PUSH2 0xABA JUMP JUMPDEST SWAP1 POP PUSH1 0x0 PUSH2 0x838 DUP3 TIMESTAMP PUSH2 0xFD2 JUMP JUMPDEST SWAP1 POP PUSH1 0x0 PUSH2 0x846 DUP9 DUP5 PUSH2 0xDF7 JUMP JUMPDEST SWAP1 POP PUSH2 0x853 DUP4 DUP10 DUP5 PUSH2 0x1318 JUMP JUMPDEST PUSH1 0x20 DUP9 ADD MSTORE DUP7 MSTORE PUSH1 0x60 DUP3 ADD MLOAD DUP5 MLOAD SWAP2 SWAP8 POP PUSH2 0x86D SWAP2 PUSH2 0x13AC JUMP JUMPDEST PUSH1 0x20 DUP7 ADD MSTORE DUP5 MSTORE POP SWAP4 SWAP7 SWAP3 SWAP6 POP SWAP1 SWAP4 POP SWAP1 SWAP2 POP POP JUMP JUMPDEST PUSH2 0x88B PUSH2 0x41BF JUMP JUMPDEST PUSH1 0x0 PUSH2 0x896 DUP4 PUSH2 0xABA JUMP JUMPDEST SWAP1 POP PUSH2 0x8A2 DUP5 DUP3 PUSH2 0xDF7 JUMP JUMPDEST SWAP5 SWAP4 POP POP POP POP JUMP JUMPDEST PUSH1 0x0 DUP1 PUSH2 0x8B5 PUSH2 0x419E JUMP JUMPDEST CALLER ADDRESS EQ PUSH2 0x8C1 JUMPI PUSH1 0x0 DUP1 REVERT JUMPDEST PUSH2 0x160 DUP7 ADD MLOAD PUSH2 0x8CF PUSH2 0x41FE JUMP JUMPDEST PUSH2 0x8D7 PUSH2 0x419E JUMP JUMPDEST PUSH2 0x8DF PUSH2 0x4249 JUMP JUMPDEST PUSH2 0x8E8 DUP11 PUSH2 0xC22 JUMP JUMPDEST ISZERO PUSH2 0x91A JUMPI PUSH2 0x8F6 DUP11 PUSH2 0x1402 JUMP JUMPDEST SWAP1 POP DUP12 ISZERO PUSH2 0x915 JUMPI DUP1 PUSH1 0x1 DUP14 SUB PUSH1 0x2 DUP2 LT PUSH2 0x90D JUMPI INVALID JUMPDEST PUSH1 0x20 MUL ADD MLOAD SWAP4 POP JUMPDEST PUSH2 0x925 JUMP JUMPDEST DUP12 ISZERO PUSH2 0x925 JUMPI PUSH1 0x0 DUP1 REVERT JUMPDEST PUSH2 0x931 DUP11 DUP13 DUP12 DUP5 PUSH2 0x1036 JUMP JUMPDEST PUSH1 0xA0 DUP13 ADD MLOAD DUP3 MLOAD SWAP3 SWAP6 POP SWAP1 SWAP4 POP SGT PUSH2 0x964 JUMPI PUSH1 0x40 MLOAD PUSH3 0x461BCD PUSH1 0xE5 SHL DUP2 MSTORE PUSH1 0x4 ADD PUSH2 0x95B SWAP1 PUSH2 0x4BA2 JUMP JUMPDEST PUSH1 0x40 MLOAD DUP1 SWAP2 SUB SWAP1 REVERT JUMPDEST POP PUSH1 0x0 PUSH2 0x979 DUP11 DUP5 DUP5 DUP16 DUP16 PUSH1 0x40 ADD MLOAD DUP14 PUSH2 0x1180 JUMP JUMPDEST SWAP1 SWAP14 SWAP1 SWAP13 POP SWAP4 SWAP11 POP SWAP3 SWAP9 POP POP POP POP POP POP POP POP POP JUMP JUMPDEST DUP2 PUSH1 0x1 PUSH1 0x1 PUSH1 0xA0 SHL SUB AND DUP2 PUSH1 0x1 PUSH1 0x1 PUSH1 0xA0 SHL SUB AND EQ ISZERO PUSH2 0x9AD JUMPI PUSH1 0x0 DUP1 REVERT JUMPDEST PUSH1 0x0 PUSH2 0x9B8 DUP4 PUSH2 0x1462 JUMP JUMPDEST SWAP1 POP PUSH1 0x0 PUSH2 0x9C6 DUP4 DUP4 PUSH2 0xDF7 JUMP JUMPDEST SWAP1 POP PUSH1 0x0 PUSH2 0x9D8 DUP4 DUP4 PUSH1 0x20 ADD MLOAD PUSH2 0xAE7 JUMP JUMPDEST SWAP1 POP DUP2 PUSH1 0x80 ADD MLOAD PUSH1 0x0 EQ PUSH2 0x9EB JUMPI PUSH1 0x0 DUP1 REVERT JUMPDEST PUSH2 0x9F5 DUP5 DUP7 PUSH2 0x148D JUMP JUMPDEST PUSH1 0x0 PUSH2 0xA0C DUP5 DUP4 DUP8 DUP7 PUSH1 0x40 ADD MLOAD DUP8 PUSH1 0x0 ADD MLOAD PUSH2 0x1502 JUMP JUMPDEST POP PUSH1 0x40 DUP5 ADD MLOAD SWAP1 SWAP2 POP ISZERO PUSH2 0xA3F JUMPI DUP4 PUSH2 0x180 ADD MLOAD DUP2 SGT ISZERO PUSH2 0xA3F JUMPI PUSH1 0x40 MLOAD PUSH3 0x461BCD PUSH1 0xE5 SHL DUP2 MSTORE PUSH1 0x4 ADD PUSH2 0x95B SWAP1 PUSH2 0x4B06 JUMP JUMPDEST DUP1 DUP5 PUSH1 0xA0 ADD MLOAD SGT ISZERO PUSH2 0xA63 JUMPI PUSH1 0x40 MLOAD PUSH3 0x461BCD PUSH1 0xE5 SHL DUP2 MSTORE PUSH1 0x4 ADD PUSH2 0x95B SWAP1 PUSH2 0x4B34 JUMP JUMPDEST POP POP POP POP POP POP JUMP JUMPDEST PUSH2 0xA73 PUSH2 0x4294 JUMP JUMPDEST PUSH2 0x4FE DUP3 PUSH2 0xABA JUMP JUMPDEST PUSH1 0x0 DUP1 PUSH1 0x0 PUSH2 0xA8B DUP7 TIMESTAMP PUSH2 0xC69 JUMP JUMPDEST POP SWAP1 POP PUSH2 0xA99 DUP2 DUP8 DUP8 PUSH2 0x15A5 JUMP JUMPDEST SWAP2 POP PUSH2 0xAAF DUP3 PUSH2 0xAA9 DUP4 DUP8 PUSH2 0xB99 JUMP JUMPDEST SWAP1 PUSH2 0x1603 JUMP JUMPDEST SWAP3 POP POP SWAP4 POP SWAP4 SWAP2 POP POP JUMP JUMPDEST PUSH2 0xAC2 PUSH2 0x4294 JUMP JUMPDEST PUSH2 0xACB DUP3 PUSH2 0x161C JUMP JUMPDEST SWAP1 POP PUSH2 0xADB DUP2 PUSH1 0x40 ADD MLOAD TIMESTAMP PUSH2 0xC69 JUMP JUMPDEST POP PUSH2 0x160 DUP3 ADD MSTORE SWAP2 SWAP1 POP JUMP JUMPDEST PUSH2 0xAEF PUSH2 0x4174 JUMP JUMPDEST PUSH1 0x0 PUSH2 0xAF9 PUSH2 0x180F JUMP JUMPDEST DUP5 MLOAD PUSH1 0x1 PUSH1 0x1 PUSH1 0xA0 SHL SUB AND PUSH1 0x0 SWAP1 DUP2 MSTORE PUSH1 0x20 DUP3 DUP2 MSTORE PUSH1 0x40 DUP1 DUP4 KECCAK256 DUP8 DUP5 MSTORE SWAP1 SWAP2 MSTORE SWAP1 DUP2 SWAP1 KECCAK256 DUP6 DUP6 MSTORE DUP1 SLOAD PUSH1 0xFF PUSH1 0x1 PUSH1 0xF0 SHL DUP3 DIV AND ISZERO ISZERO PUSH1 0x60 DUP8 ADD MSTORE PUSH1 0x1 PUSH1 0x1 PUSH1 0x50 SHL SUB PUSH1 0x1 PUSH1 0xA0 SHL DUP3 DIV DUP2 AND SWAP4 DUP8 ADD SWAP4 SWAP1 SWAP4 MSTORE PUSH2 0x160 DUP9 ADD MLOAD SWAP4 SWAP5 POP SWAP1 SWAP3 PUSH2 0xB64 SWAP3 SWAP1 SWAP2 DUP8 SWAP2 AND PUSH2 0x181C JUMP JUMPDEST PUSH1 0x20 DUP5 ADD MSTORE POP SWAP1 SWAP4 SWAP3 POP POP POP JUMP JUMPDEST PUSH1 0x0 DUP1 PUSH2 0xB80 DUP7 DUP7 DUP6 PUSH2 0x1852 JUMP JUMPDEST SWAP1 POP PUSH2 0xB8D DUP8 DUP3 DUP7 PUSH2 0x1886 JUMP JUMPDEST POP SWAP8 SWAP7 POP POP POP POP POP POP POP JUMP JUMPDEST PUSH1 0x0 PUSH2 0xBCB PUSH15 0xC097CE7BC90715B34B9F1000000000 PUSH2 0xBC5 DUP6 PUSH1 0x0 ADD MLOAD DUP6 PUSH2 0x18EF SWAP1 SWAP2 SWAP1 PUSH4 0xFFFFFFFF AND JUMP JUMPDEST SWAP1 PUSH2 0x193D JUMP JUMPDEST SWAP4 SWAP3 POP POP POP JUMP JUMPDEST PUSH1 0xFF DUP2 AND PUSH1 0x0 DUP1 DUP1 PUSH1 0x9 DUP5 LT ISZERO PUSH2 0xBF4 JUMPI POP PUSH1 0x0 SWAP3 POP DUP3 SWAP2 POP DUP2 SWAP1 POP DUP1 PUSH2 0xC0E JUMP JUMPDEST POP POP POP PUSH1 0x30 DUP3 SWAP1 SHR PUSH5 0xFFFFFFFFFF PUSH1 0x8 DUP5 SWAP1 SHR AND PUSH1 0x40 DUP5 SWAP1 SHR JUMPDEST SWAP2 SWAP4 POP SWAP2 SWAP4 JUMP JUMPDEST PUSH1 0x0 DUP1 PUSH2 0x4FE PUSH1 0x16 PUSH2 0x196E JUMP JUMPDEST PUSH2 0x140 DUP2 ADD MLOAD MLOAD PUSH1 0x0 SWAP1 PUSH2 0xFFFF AND ISZERO ISZERO DUP1 PUSH2 0x4FE JUMPI POP POP PUSH2 0x140 DUP2 ADD MLOAD PUSH1 0x20 ADD MLOAD PUSH2 0xFFFF AND ISZERO ISZERO JUMPDEST SWAP2 SWAP1 POP JUMP JUMPDEST PUSH1 0x0 DUP1 PUSH2 0x4FE PUSH1 0x1A PUSH2 0x196E JUMP JUMPDEST PUSH1 0x0 DUP1 PUSH2 0x4FE PUSH1 0x17 PUSH2 0x196E JUMP JUMPDEST PUSH2 0xC71 PUSH2 0x419E JUMP JUMPDEST PUSH2 0xC79 PUSH2 0x432D JUMP JUMPDEST PUSH2 0xC82 DUP5 PUSH2 0x1987 JUMP JUMPDEST SWAP1 POP DUP3 DUP2 PUSH1 0x0 ADD MLOAD LT ISZERO PUSH2 0xCB3 JUMPI PUSH1 0x0 PUSH2 0xC9B DUP6 PUSH2 0x1A4F JUMP JUMPDEST SWAP1 POP PUSH2 0xCA9 DUP6 DUP4 DUP4 DUP8 PUSH2 0x1ACA JUMP JUMPDEST POP SWAP2 POP PUSH2 0xCC0 SWAP1 POP JUMP JUMPDEST DUP1 MLOAD DUP4 EQ PUSH2 0xCC0 JUMPI PUSH1 0x0 DUP1 REVERT JUMPDEST PUSH1 0x40 MLOAD DUP1 PUSH1 0x60 ADD PUSH1 0x40 MSTORE DUP1 PUSH2 0xCEE PUSH2 0xCE9 DUP5 PUSH1 0xA0 ADD MLOAD DUP6 PUSH1 0xC0 ADD MLOAD PUSH2 0x1B6E SWAP1 SWAP2 SWAP1 PUSH4 0xFFFFFFFF AND JUMP JUMPDEST PUSH2 0x116A JUMP JUMPDEST DUP2 MSTORE PUSH1 0x20 ADD PUSH2 0xD11 PUSH2 0xCE9 DUP5 PUSH1 0xA0 ADD MLOAD DUP6 PUSH1 0xE0 ADD MLOAD PUSH2 0x1B6E SWAP1 SWAP2 SWAP1 PUSH4 0xFFFFFFFF AND JUMP JUMPDEST DUP2 MSTORE PUSH1 0x20 ADD DUP3 PUSH1 0x60 ADD MLOAD DUP2 MSTORE POP SWAP2 POP SWAP3 POP SWAP3 SWAP1 POP JUMP JUMPDEST PUSH1 0x0 DUP1 DUP5 PUSH1 0x40 ADD MLOAD PUSH2 0xFFFF AND DUP4 PUSH2 0xFFFF AND EQ ISZERO PUSH2 0xD73 JUMPI PUSH2 0xD46 PUSH2 0x180F JUMP JUMPDEST DUP6 MLOAD PUSH1 0x1 PUSH1 0x1 PUSH1 0xA0 SHL SUB AND PUSH1 0x0 SWAP1 DUP2 MSTORE PUSH1 0x20 SWAP2 DUP3 MSTORE PUSH1 0x40 DUP1 DUP3 KECCAK256 PUSH5 0xFFFFFFFFFF DUP4 MSTORE SWAP1 SWAP3 MSTORE KECCAK256 SWAP1 POP PUSH2 0xDB0 JUMP JUMPDEST PUSH2 0xD7B PUSH2 0xF74 JUMP JUMPDEST DUP6 MLOAD PUSH1 0x1 PUSH1 0x1 PUSH1 0xA0 SHL SUB AND PUSH1 0x0 SWAP1 DUP2 MSTORE PUSH1 0x20 SWAP2 DUP3 MSTORE PUSH1 0x40 DUP1 DUP3 KECCAK256 PUSH5 0xFFFFFFFFFF DUP4 MSTORE DUP4 MSTORE DUP1 DUP3 KECCAK256 PUSH2 0xFFFF DUP8 AND DUP4 MSTORE SWAP1 SWAP3 MSTORE KECCAK256 SWAP1 POP JUMPDEST DUP1 SLOAD PUSH2 0xDCD SWAP1 DUP6 SWAP1 PUSH5 0xFFFFFFFFFF SWAP1 PUSH1 0x1 PUSH1 0x1 PUSH1 0x50 SHL SUB AND PUSH2 0x181C JUMP JUMPDEST SWAP6 SWAP5 POP POP POP POP POP JUMP JUMPDEST PUSH1 0x0 PUSH2 0x4FE PUSH1 0x0 NOT DUP4 PUSH2 0x18EF JUMP JUMPDEST PUSH1 0x0 DUP1 DUP3 SLT ISZERO PUSH2 0xDF3 JUMPI PUSH1 0x0 DUP1 REVERT JUMPDEST POP SWAP1 JUMP JUMPDEST PUSH2 0xDFF PUSH2 0x41BF JUMP JUMPDEST PUSH1 0x0 PUSH2 0xE09 PUSH2 0xC15 JUMP JUMPDEST PUSH1 0x1 PUSH1 0x1 PUSH1 0xA0 SHL SUB DUP1 DUP7 AND PUSH1 0x0 DUP2 DUP2 MSTORE PUSH1 0x20 DUP5 DUP2 MSTORE PUSH1 0x40 DUP1 DUP4 KECCAK256 DUP10 MLOAD SWAP1 SWAP6 AND DUP4 MSTORE SWAP4 DUP2 MSTORE SWAP1 DUP4 SWAP1 KECCAK256 DUP1 SLOAD PUSH5 0xFFFFFFFFFF PUSH1 0x1 PUSH1 0xA0 SHL DUP3 DIV AND SWAP3 DUP9 ADD DUP4 SWAP1 MSTORE PUSH1 0x1 PUSH1 0x1 PUSH1 0x50 SHL SUB PUSH1 0x1 PUSH1 0x50 SHL DUP3 DIV DUP2 AND SWAP6 DUP10 ADD SWAP6 SWAP1 SWAP6 MSTORE PUSH1 0x60 DUP9 ADD SWAP4 SWAP1 SWAP4 MSTORE PUSH1 0x1 DUP2 ADD SLOAD DUP5 AND PUSH1 0x80 DUP9 ADD MSTORE PUSH4 0xFFFFFFFF PUSH1 0x1 PUSH1 0xC8 SHL DUP5 DIV AND PUSH1 0xA0 DUP9 ADD MSTORE PUSH2 0x160 DUP9 ADD MLOAD SWAP5 SWAP6 POP SWAP4 PUSH2 0xE9B SWAP4 SWAP1 SWAP3 AND PUSH2 0x181C JUMP JUMPDEST DUP4 MSTORE POP SWAP1 SWAP4 SWAP3 POP POP POP JUMP JUMPDEST DUP2 MLOAD PUSH1 0x0 SWAP1 PUSH2 0xBCB SWAP1 PUSH2 0xBC5 DUP5 PUSH15 0xC097CE7BC90715B34B9F1000000000 PUSH2 0x18EF JUMP JUMPDEST PUSH1 0x0 DUP1 PUSH5 0xFFFFFFFFFF DUP5 EQ ISZERO PUSH2 0xF1A JUMPI PUSH1 0x20 DUP7 ADD MLOAD PUSH5 0xFFFFFFFFFF EQ PUSH2 0xEF2 JUMPI PUSH1 0x0 SWAP2 POP POP PUSH2 0xDCD JUMP JUMPDEST PUSH2 0xF0C PUSH2 0xCE9 DUP8 PUSH1 0xA0 ADD MLOAD DUP6 PUSH2 0x1B95 SWAP1 SWAP2 SWAP1 PUSH4 0xFFFFFFFF AND JUMP JUMPDEST PUSH1 0xA0 DUP8 ADD DUP5 SWAP1 MSTORE SWAP1 POP PUSH2 0xF2A JUMP JUMPDEST PUSH2 0xF27 PUSH2 0xCE9 DUP6 DUP6 PUSH2 0x1B95 JUMP JUMPDEST SWAP1 POP JUMPDEST PUSH1 0x80 DUP8 ADD MLOAD PUSH1 0x0 SWAP1 PUSH2 0xF46 SWAP1 PUSH4 0x1DA9C00 SWAP1 PUSH2 0xBC5 SWAP1 DUP6 PUSH2 0x18EF JUMP JUMPDEST SWAP1 POP PUSH2 0xF52 DUP7 DUP3 PUSH2 0x1BAA JUMP JUMPDEST SWAP9 SWAP8 POP POP POP POP POP POP POP POP JUMP JUMPDEST DUP1 DUP3 SUB DUP3 DUP2 SGT ISZERO PUSH1 0x0 DUP4 SLT ISZERO EQ PUSH2 0x4FE JUMPI PUSH1 0x0 DUP1 REVERT JUMPDEST PUSH1 0x0 DUP1 PUSH2 0x4FE PUSH1 0x18 PUSH2 0x196E JUMP JUMPDEST PUSH1 0x0 PUSH1 0x1 DUP3 SLT PUSH2 0xF90 JUMPI PUSH1 0x0 DUP1 REVERT JUMPDEST DUP2 PUSH2 0xF9D JUMPI POP PUSH1 0x0 PUSH2 0x4FE JUMP JUMPDEST PUSH2 0xBCB PUSH1 0x1 PUSH2 0xFCC PUSH15 0xC097CE7BC90715B34B9F1000000000 PUSH2 0xBC5 DUP8 PUSH1 0x20 ADD MLOAD DUP8 PUSH2 0x18EF SWAP1 SWAP2 SWAP1 PUSH4 0xFFFFFFFF AND JUMP JUMPDEST SWAP1 PUSH2 0xF5E JUMP JUMPDEST PUSH2 0xFDA PUSH2 0x4249 JUMP JUMPDEST PUSH2 0x140 DUP4 ADD MLOAD MLOAD PUSH2 0xFFFF AND ISZERO PUSH2 0x1006 JUMPI PUSH2 0x140 DUP4 ADD MLOAD PUSH2 0x1002 SWAP1 PUSH1 0x0 JUMPDEST PUSH1 0x20 MUL ADD MLOAD DUP4 PUSH2 0xC69 JUMP JUMPDEST POP DUP2 MSTORE JUMPDEST PUSH2 0x140 DUP4 ADD MLOAD PUSH1 0x20 ADD MLOAD PUSH2 0xFFFF AND ISZERO PUSH2 0x4FE JUMPI PUSH2 0x140 DUP4 ADD MLOAD PUSH2 0x102A SWAP1 PUSH1 0x1 PUSH2 0xFF7 JUMP JUMPDEST POP PUSH1 0x20 DUP3 ADD MSTORE SWAP3 SWAP2 POP POP JUMP JUMPDEST PUSH2 0x103E PUSH2 0x41FE JUMP JUMPDEST PUSH2 0x1046 PUSH2 0x419E JUMP JUMPDEST PUSH2 0x105A DUP5 DUP8 DUP8 PUSH1 0x60 ADD MLOAD DUP9 PUSH1 0x40 ADD MLOAD PUSH2 0x1BC3 JUMP JUMPDEST PUSH1 0x40 DUP4 ADD MSTORE PUSH1 0x80 DUP6 ADD MLOAD PUSH2 0x160 DUP8 ADD MLOAD PUSH2 0x10A5 SWAP2 PUSH2 0x1078 SWAP2 SWAP1 PUSH2 0xB99 JUMP JUMPDEST PUSH2 0x160 DUP9 ADD MLOAD PUSH1 0x40 DUP10 ADD MLOAD DUP8 MLOAD DUP10 MLOAD PUSH2 0x109F SWAP4 SWAP3 SWAP2 SWAP1 PUSH2 0x109A DUP14 PUSH2 0x200 PUSH2 0x1C80 JUMP JUMPDEST PUSH2 0x1C95 JUMP JUMPDEST SWAP1 PUSH2 0x1CFB JUMP JUMPDEST PUSH1 0x60 DUP4 ADD DUP1 MLOAD SWAP2 SWAP1 SWAP2 MSTORE MLOAD MLOAD PUSH1 0x0 SGT ISZERO PUSH2 0x10C9 JUMPI PUSH1 0x60 DUP3 ADD MLOAD MLOAD PUSH1 0x20 DUP4 ADD MSTORE PUSH2 0x10E3 JUMP JUMPDEST PUSH1 0x60 DUP3 ADD MLOAD MLOAD PUSH1 0x40 DUP4 ADD MLOAD PUSH2 0x10DD SWAP2 PUSH2 0x1CFB JUMP JUMPDEST PUSH1 0x40 DUP4 ADD MSTORE JUMPDEST PUSH2 0x10EC DUP7 PUSH2 0xC22 JUMP JUMPDEST ISZERO PUSH2 0x114B JUMPI PUSH1 0x0 DUP1 PUSH2 0x1104 DUP9 DUP7 DUP9 DUP11 PUSH1 0x60 ADD MLOAD PUSH2 0x1D11 JUMP JUMPDEST PUSH1 0x60 DUP10 ADD MLOAD PUSH1 0x40 DUP2 ADD SWAP2 SWAP1 SWAP2 MSTORE PUSH1 0x20 SWAP1 DUP2 ADD SWAP2 SWAP1 SWAP2 MSTORE DUP8 ADD MLOAD SWAP1 SWAP6 POP SWAP2 SWAP4 POP SWAP2 POP PUSH2 0x112F SWAP1 DUP4 PUSH2 0x1CFB JUMP JUMPDEST PUSH1 0x20 DUP6 ADD MSTORE PUSH1 0x40 DUP5 ADD MLOAD PUSH2 0x1143 SWAP1 DUP3 PUSH2 0x1CFB JUMP JUMPDEST PUSH1 0x40 DUP6 ADD MSTORE POP POP JUMPDEST PUSH2 0x115D DUP3 PUSH1 0x40 ADD MLOAD DUP4 PUSH1 0x20 ADD MLOAD PUSH2 0x1D50 JUMP JUMPDEST DUP3 MSTORE SWAP1 SWAP6 SWAP1 SWAP5 POP SWAP3 POP POP POP JUMP JUMPDEST PUSH1 0x0 PUSH1 0x1 PUSH1 0x1 PUSH1 0xFF SHL SUB DUP3 GT ISZERO PUSH2 0xDF3 JUMPI PUSH1 0x0 DUP1 REVERT JUMPDEST PUSH1 0x0 DUP1 PUSH1 0x0 DUP8 PUSH1 0x40 ADD MLOAD SGT PUSH2 0x119A JUMPI POP PUSH1 0x0 SWAP1 POP DUP1 PUSH2 0x130D JUMP JUMPDEST PUSH1 0x0 DUP6 PUSH2 0x11AC JUMPI POP PUSH1 0x60 DUP9 ADD MLOAD PUSH2 0x11F6 JUMP JUMPDEST DUP9 PUSH2 0x140 ADD MLOAD PUSH1 0x1 DUP8 SUB PUSH1 0x2 DUP2 LT PUSH2 0x11C0 JUMPI INVALID JUMPDEST PUSH1 0x20 MUL ADD MLOAD PUSH2 0xFFFF AND PUSH2 0x11DA JUMPI PUSH1 0x0 DUP1 SWAP3 POP SWAP3 POP POP PUSH2 0x130D JUMP JUMPDEST DUP9 PUSH2 0x1A0 ADD MLOAD PUSH1 0x1 DUP8 SUB PUSH1 0x2 DUP2 LT PUSH2 0x11EE JUMPI INVALID JUMPDEST PUSH1 0x20 MUL ADD MLOAD SWAP1 POP JUMPDEST DUP7 MLOAD PUSH1 0x0 SWAP1 ISZERO PUSH2 0x1208 JUMPI DUP8 MLOAD DUP1 PUSH2 0x120C JUMP JUMPDEST PUSH1 0x1 DUP1 JUMPDEST DUP10 MSTORE SWAP1 POP PUSH1 0x1 DUP8 EQ ISZERO PUSH2 0x1224 JUMPI POP PUSH1 0x20 DUP8 ADD MLOAD PUSH2 0x1234 JUMP JUMPDEST DUP7 PUSH1 0x2 EQ ISZERO PUSH2 0x1234 JUMPI POP PUSH1 0x40 DUP8 ADD MLOAD JUMPDEST PUSH1 0x0 PUSH2 0x1275 DUP12 DUP12 PUSH1 0x40 ADD MLOAD PUSH2 0x124C DUP14 PUSH1 0x20 ADD MLOAD PUSH2 0xDD6 JUMP JUMPDEST PUSH2 0x1269 DUP15 PUSH1 0x60 ADD MLOAD DUP14 PUSH1 0x3 DUP2 LT PUSH2 0x125F JUMPI INVALID JUMPDEST PUSH1 0x20 MUL ADD MLOAD PUSH2 0xDD6 JUMP JUMPDEST DUP8 DUP8 DUP16 PUSH1 0x0 ADD MLOAD PUSH2 0x1D89 JUMP JUMPDEST SWAP1 POP DUP1 DUP7 SLT ISZERO PUSH2 0x12C9 JUMPI PUSH1 0x0 PUSH2 0x1298 DUP8 PUSH2 0xFCC DUP14 PUSH1 0x60 ADD MLOAD DUP13 PUSH1 0x3 DUP2 LT PUSH2 0x125F JUMPI INVALID JUMPDEST SWAP1 POP DUP1 ISZERO DUP1 PUSH2 0x12A7 JUMPI POP DUP1 DUP5 SGT ISZERO JUMPDEST PUSH2 0x12C3 JUMPI PUSH1 0x40 MLOAD PUSH3 0x461BCD PUSH1 0xE5 SHL DUP2 MSTORE PUSH1 0x4 ADD PUSH2 0x95B SWAP1 PUSH2 0x4B6B JUMP JUMPDEST POP PUSH2 0x12CD JUMP JUMPDEST DUP1 SWAP6 POP JUMPDEST PUSH1 0x0 PUSH2 0x12EA DUP4 PUSH2 0xBC5 DUP13 PUSH1 0x0 ADD MLOAD DUP11 PUSH2 0x18EF SWAP1 SWAP2 SWAP1 PUSH4 0xFFFFFFFF AND JUMP JUMPDEST SWAP1 POP PUSH1 0x0 PUSH2 0x1302 DUP10 DUP15 PUSH1 0xC0 ADD MLOAD DUP15 PUSH1 0x40 ADD MLOAD DUP6 PUSH2 0x1E7F JUMP JUMPDEST DUP9 SWAP8 POP SWAP6 POP POP POP POP POP POP JUMPDEST SWAP7 POP SWAP7 SWAP5 POP POP POP POP POP JUMP JUMPDEST PUSH1 0x0 DUP1 PUSH1 0x0 DUP1 PUSH2 0x1326 PUSH2 0xC4F JUMP JUMPDEST PUSH1 0x1 PUSH1 0x1 PUSH1 0xA0 SHL SUB DUP8 DUP2 AND PUSH1 0x0 SWAP1 DUP2 MSTORE PUSH1 0x20 SWAP3 DUP4 MSTORE PUSH1 0x40 DUP1 DUP3 KECCAK256 DUP12 MLOAD SWAP1 SWAP4 AND DUP3 MSTORE SWAP2 SWAP1 SWAP3 MSTORE SWAP1 KECCAK256 DUP1 SLOAD DUP7 MLOAD PUSH5 0xFFFFFFFFFF DUP3 AND SWAP7 POP SWAP2 SWAP3 POP PUSH2 0x137A SWAP2 SWAP1 DUP7 SWAP1 PUSH1 0x1 PUSH1 0x28 SHL SWAP1 DIV PUSH1 0x1 PUSH1 0x1 PUSH1 0x50 SHL SUB AND PUSH2 0x181C JUMP JUMPDEST SWAP3 POP PUSH2 0x13A0 DUP6 PUSH1 0x1 PUSH1 0x20 MUL ADD MLOAD DUP3 SLOAD DUP7 SWAP1 PUSH1 0x1 PUSH1 0x78 SHL SWAP1 DIV PUSH1 0x1 PUSH1 0x1 PUSH1 0x50 SHL SUB AND PUSH2 0x181C JUMP JUMPDEST SWAP2 POP POP SWAP4 POP SWAP4 POP SWAP4 SWAP1 POP JUMP JUMPDEST PUSH1 0x0 DUP1 PUSH1 0x0 PUSH2 0x13B9 PUSH2 0xC15 JUMP JUMPDEST PUSH1 0x1 PUSH1 0x1 PUSH1 0xA0 SHL SUB SWAP6 DUP7 AND PUSH1 0x0 SWAP1 DUP2 MSTORE PUSH1 0x20 SWAP2 DUP3 MSTORE PUSH1 0x40 DUP1 DUP3 KECCAK256 SWAP7 SWAP1 SWAP8 AND DUP2 MSTORE SWAP5 SWAP1 MSTORE POP POP POP KECCAK256 PUSH1 0x1 ADD SLOAD PUSH1 0x1 PUSH1 0x1 PUSH1 0x50 SHL SUB PUSH1 0x1 PUSH1 0x50 SHL DUP3 DIV DUP2 AND SWAP3 PUSH1 0x1 PUSH1 0xA0 SHL SWAP1 SWAP3 DIV AND SWAP1 JUMP JUMPDEST PUSH2 0x140A PUSH2 0x4249 JUMP JUMPDEST PUSH2 0x140 DUP3 ADD MLOAD MLOAD PUSH2 0xFFFF AND ISZERO PUSH2 0x1434 JUMPI PUSH2 0x140 DUP3 ADD MLOAD PUSH2 0x1431 SWAP1 PUSH1 0x0 JUMPDEST PUSH1 0x20 MUL ADD MLOAD PUSH2 0x1E9C JUMP JUMPDEST DUP2 MSTORE JUMPDEST PUSH2 0x140 DUP3 ADD MLOAD PUSH1 0x20 ADD MLOAD PUSH2 0xFFFF AND ISZERO PUSH2 0xC4A JUMPI PUSH2 0x140 DUP3 ADD MLOAD PUSH2 0x1458 SWAP1 PUSH1 0x1 PUSH2 0x1427 JUMP JUMPDEST PUSH1 0x20 DUP3 ADD MSTORE SWAP2 SWAP1 POP JUMP JUMPDEST PUSH2 0x146A PUSH2 0x4294 JUMP JUMPDEST PUSH2 0x1473 DUP3 PUSH2 0x161C JUMP JUMPDEST SWAP1 POP PUSH2 0x1482 DUP2 PUSH1 0x40 ADD MLOAD PUSH2 0x1E9C JUMP JUMPDEST PUSH2 0x160 DUP3 ADD MSTORE SWAP2 SWAP1 POP JUMP JUMPDEST PUSH1 0x0 PUSH2 0x1497 PUSH2 0xC15 JUMP JUMPDEST PUSH1 0x1 PUSH1 0x1 PUSH1 0xA0 SHL SUB DUP5 DUP2 AND PUSH1 0x0 SWAP1 DUP2 MSTORE PUSH1 0x20 SWAP3 DUP4 MSTORE PUSH1 0x40 DUP1 DUP3 KECCAK256 SWAP3 DUP7 AND DUP3 MSTORE SWAP2 SWAP1 SWAP3 MSTORE SWAP1 KECCAK256 PUSH1 0x1 DUP2 ADD SLOAD SWAP1 SWAP2 POP PUSH1 0x1 PUSH1 0x50 SHL SWAP1 DIV PUSH1 0x1 PUSH1 0x1 PUSH1 0x50 SHL SUB AND ISZERO PUSH2 0x14DE JUMPI PUSH1 0x0 DUP1 REVERT JUMPDEST PUSH1 0x1 DUP2 ADD SLOAD PUSH1 0x1 PUSH1 0xA0 SHL SWAP1 DIV PUSH1 0x1 PUSH1 0x1 PUSH1 0x50 SHL SUB AND ISZERO PUSH2 0x14FD JUMPI PUSH1 0x0 DUP1 REVERT JUMPDEST POP POP POP JUMP JUMPDEST PUSH1 0x0 DUP1 PUSH2 0x1511 DUP7 DUP9 DUP8 DUP8 PUSH2 0x1BC3 JUMP JUMPDEST SWAP1 POP PUSH1 0x0 PUSH2 0x153E DUP9 PUSH2 0x160 ADD MLOAD DUP10 PUSH1 0x40 ADD MLOAD DUP10 PUSH1 0x0 ADD MLOAD DUP8 PUSH2 0x109A PUSH2 0x200 DUP15 PUSH2 0x1C80 SWAP1 SWAP2 SWAP1 PUSH4 0xFFFFFFFF AND JUMP JUMPDEST SWAP1 POP PUSH2 0x1549 DUP9 PUSH2 0xC22 JUMP JUMPDEST ISZERO PUSH2 0x158E JUMPI PUSH1 0x0 PUSH2 0x1559 DUP10 PUSH2 0x1402 JUMP JUMPDEST SWAP1 POP PUSH1 0x0 DUP1 PUSH2 0x156A DUP12 DUP5 DUP13 DUP13 PUSH2 0x1D11 JUMP JUMPDEST POP POP POP SWAP2 POP SWAP2 POP DUP1 PUSH1 0x0 EQ PUSH2 0x157E JUMPI PUSH1 0x0 DUP1 REVERT JUMPDEST PUSH2 0x1588 DUP5 DUP4 PUSH2 0x1CFB JUMP JUMPDEST SWAP4 POP POP POP POP JUMPDEST PUSH2 0x1598 DUP3 DUP3 PUSH2 0x1D50 JUMP JUMPDEST SWAP3 POP POP SWAP6 POP SWAP6 SWAP4 POP POP POP POP JUMP JUMPDEST PUSH1 0x0 DUP1 PUSH2 0x15B2 DUP5 DUP7 PUSH2 0x1EAE JUMP JUMPDEST SWAP1 POP PUSH1 0x0 PUSH2 0x15C1 DUP3 DUP6 TIMESTAMP PUSH2 0x1EF1 JUMP JUMPDEST SWAP1 POP PUSH1 0x0 PUSH2 0x15CE DUP4 PUSH2 0x1FDA JUMP JUMPDEST SWAP1 POP DUP1 DUP3 GT ISZERO PUSH2 0x15F2 JUMPI PUSH2 0x15ED PUSH2 0x15E5 DUP7 TIMESTAMP PUSH2 0x1B95 JUMP JUMPDEST DUP3 DUP5 SUB PUSH2 0x1FE7 JUMP JUMPDEST PUSH2 0x15F8 JUMP JUMPDEST PUSH4 0x3B9ACA00 JUMPDEST SWAP8 SWAP7 POP POP POP POP POP POP POP JUMP JUMPDEST PUSH1 0x0 PUSH2 0xBCB PUSH2 0x1616 DUP5 PUSH4 0x3B9ACA00 PUSH2 0x18EF JUMP JUMPDEST DUP4 PUSH2 0x193D JUMP JUMPDEST PUSH2 0x1624 PUSH2 0x4294 JUMP JUMPDEST PUSH1 0x0 PUSH2 0x162E PUSH2 0x205A JUMP JUMPDEST PUSH1 0x1 PUSH1 0x1 PUSH1 0xA0 SHL SUB DUP5 AND PUSH1 0x0 DUP2 DUP2 MSTORE PUSH1 0x20 DUP4 DUP2 MSTORE PUSH1 0x40 SWAP2 DUP3 SWAP1 KECCAK256 SWAP3 DUP7 MSTORE DUP3 SLOAD PUSH2 0xFFFF DUP1 DUP3 AND SWAP3 DUP9 ADD SWAP3 SWAP1 SWAP3 MSTORE PUSH3 0x10000 SWAP1 DIV AND SWAP1 DUP6 ADD MSTORE SWAP1 SWAP2 POP PUSH2 0x168A PUSH2 0x2710 PUSH4 0x3B9ACA00 DUP4 SLOAD PUSH1 0x1 PUSH1 0x50 SHL SWAP1 DIV PUSH1 0xFF AND SWAP2 SWAP1 SDIV PUSH1 0x5 MUL PUSH2 0x1B6E JUMP JUMPDEST PUSH1 0x80 DUP5 ADD MSTORE DUP1 SLOAD PUSH2 0x16AE SWAP1 PUSH9 0x10000000000000000 SWAP1 DIV PUSH2 0xFFFF AND PUSH3 0x186A0 PUSH2 0x1B6E JUMP JUMPDEST PUSH1 0xA0 DUP5 ADD MSTORE DUP1 SLOAD PUSH2 0x16CD SWAP1 PUSH1 0x1 PUSH1 0x70 SHL SWAP1 DIV PUSH2 0xFFFF AND PUSH3 0x186A0 PUSH2 0x1B6E JUMP JUMPDEST PUSH2 0x120 DUP5 ADD MSTORE PUSH1 0x2 DUP2 ADD SLOAD PUSH2 0x16E9 SWAP1 PUSH2 0xFFFF AND PUSH3 0x186A0 PUSH2 0x1B6E JUMP JUMPDEST PUSH2 0x180 DUP5 ADD MSTORE DUP1 SLOAD PUSH1 0x64 SWAP1 PUSH1 0xFF PUSH1 0x1 PUSH1 0x58 SHL SWAP1 SWAP2 DIV AND PUSH4 0x3B9ACA00 MUL SDIV PUSH1 0xC0 DUP5 ADD MSTORE DUP1 SLOAD PUSH1 0x1 PUSH1 0x60 SHL DUP2 DIV PUSH1 0xFF SWAP1 DUP2 AND PUSH1 0xE0 DUP7 ADD MSTORE PUSH1 0x1 PUSH1 0x68 SHL SWAP1 SWAP2 DIV AND PUSH2 0x100 DUP5 ADD MSTORE PUSH1 0x40 DUP1 MLOAD DUP1 DUP3 ADD SWAP2 DUP3 SWAP1 MSTORE SWAP1 PUSH1 0x1 DUP4 ADD SWAP1 PUSH1 0x2 SWAP1 DUP3 PUSH1 0x0 DUP6 JUMPDEST DUP3 DUP3 SWAP1 SLOAD SWAP1 PUSH2 0x100 EXP SWAP1 DIV PUSH2 0xFFFF AND PUSH2 0xFFFF AND DUP2 MSTORE PUSH1 0x20 ADD SWAP1 PUSH1 0x2 ADD SWAP1 PUSH1 0x20 DUP3 PUSH1 0x1 ADD DIV SWAP3 DUP4 ADD SWAP3 PUSH1 0x1 SUB DUP3 MUL SWAP2 POP DUP1 DUP5 GT PUSH2 0x1746 JUMPI POP POP POP POP POP PUSH2 0x140 DUP6 ADD SWAP2 SWAP1 SWAP2 MSTORE POP PUSH1 0x4 DUP2 ADD SLOAD PUSH1 0xFF AND PUSH2 0x1C0 DUP5 ADD MSTORE DUP1 SLOAD PUSH2 0x17B2 SWAP1 PUSH5 0x100000000 SWAP1 DIV PUSH4 0xFFFFFFFF AND PUSH2 0x2067 JUMP JUMPDEST PUSH1 0x60 DUP5 ADD MSTORE PUSH2 0x17E8 PUSH1 0x3 DUP3 ADD PUSH1 0x0 JUMPDEST PUSH1 0x8 SWAP2 DUP3 DUP3 DIV ADD SWAP2 SWAP1 MOD PUSH1 0x4 MUL SWAP1 SLOAD SWAP1 PUSH2 0x100 EXP SWAP1 DIV PUSH4 0xFFFFFFFF AND PUSH4 0xFFFFFFFF AND PUSH2 0x2067 JUMP JUMPDEST PUSH2 0x1A0 DUP5 ADD MLOAD MSTORE PUSH2 0x17FD PUSH1 0x3 DUP3 ADD PUSH1 0x1 PUSH2 0x17C1 JUMP JUMPDEST PUSH2 0x1A0 DUP5 ADD MLOAD PUSH1 0x20 ADD MSTORE POP SWAP1 SWAP3 SWAP2 POP POP JUMP JUMPDEST PUSH1 0x0 DUP1 PUSH2 0x4FE PUSH1 0x15 PUSH2 0x196E JUMP JUMPDEST PUSH1 0x0 PUSH5 0xFFFFFFFFFF DUP4 EQ PUSH2 0x183C JUMPI DUP2 PUSH1 0x1 PUSH1 0x1 PUSH1 0x50 SHL SUB AND PUSH1 0x0 SUB PUSH2 0x8A2 JUMP JUMPDEST PUSH2 0x8A2 DUP5 PUSH1 0x1 PUSH1 0x1 PUSH1 0x50 SHL SUB DUP5 AND PUSH1 0x0 SUB PUSH2 0xF81 JUMP JUMPDEST PUSH2 0x185A PUSH2 0x419E JUMP JUMPDEST PUSH1 0x0 PUSH2 0x1866 DUP6 DUP6 PUSH2 0x2075 JUMP JUMPDEST SWAP1 SWAP3 POP SWAP1 POP DUP1 PUSH2 0x187E JUMPI PUSH2 0x187A DUP6 DUP5 PUSH2 0xC69 JUMP JUMPDEST POP SWAP2 POP JUMPDEST POP SWAP4 SWAP3 POP POP POP JUMP JUMPDEST PUSH1 0x0 DUP1 PUSH2 0x1893 DUP5 DUP5 PUSH2 0xEA6 JUMP JUMPDEST SWAP2 POP PUSH2 0x189F DUP5 DUP4 PUSH2 0x2108 JUMP JUMPDEST SWAP1 POP PUSH1 0x0 DUP3 SLT ISZERO PUSH2 0x18E7 JUMPI PUSH2 0x18E4 PUSH1 0x1 PUSH2 0xFCC DUP8 PUSH1 0x0 ADD MLOAD PUSH2 0xBC5 DUP10 PUSH1 0x20 ADD MLOAD PUSH2 0x18DE DUP11 PUSH1 0x20 ADD MLOAD PUSH2 0xBC5 DUP13 PUSH1 0x0 ADD MLOAD DUP12 PUSH2 0x18EF SWAP1 SWAP2 SWAP1 PUSH4 0xFFFFFFFF AND JUMP JUMPDEST SWAP1 PUSH2 0x18EF JUMP JUMPDEST SWAP2 POP JUMPDEST SWAP4 POP SWAP4 SWAP2 POP POP JUMP JUMPDEST DUP2 DUP2 MUL PUSH1 0x0 NOT DUP4 EQ ISZERO PUSH2 0x191F JUMPI DUP2 ISZERO DUP1 PUSH2 0x1911 JUMPI POP DUP3 DUP3 DUP3 DUP2 PUSH2 0x190E JUMPI INVALID JUMPDEST SDIV EQ JUMPDEST PUSH2 0x191A JUMPI PUSH1 0x0 DUP1 REVERT JUMPDEST PUSH2 0x4FE JUMP JUMPDEST DUP3 ISZERO DUP1 PUSH2 0x1934 JUMPI POP DUP2 DUP4 DUP3 DUP2 PUSH2 0x1931 JUMPI INVALID JUMPDEST SDIV EQ JUMPDEST PUSH2 0x4FE JUMPI PUSH1 0x0 DUP1 REVERT JUMPDEST PUSH1 0x0 DUP2 PUSH1 0x0 NOT EQ DUP1 ISZERO PUSH2 0x1953 JUMPI POP PUSH1 0x1 PUSH1 0xFF SHL DUP4 EQ JUMPDEST ISZERO PUSH2 0x195D JUMPI PUSH1 0x0 DUP1 REVERT JUMPDEST DUP2 DUP4 DUP2 PUSH2 0x1966 JUMPI INVALID JUMPDEST SDIV SWAP4 SWAP3 POP POP POP JUMP JUMPDEST PUSH1 0x0 PUSH3 0xF4240 DUP3 PUSH1 0x26 DUP2 GT ISZERO PUSH2 0x1980 JUMPI INVALID JUMPDEST ADD SWAP3 SWAP2 POP POP JUMP JUMPDEST PUSH2 0x198F PUSH2 0x432D JUMP JUMPDEST PUSH1 0x0 PUSH2 0x1999 PUSH2 0x2141 JUMP JUMPDEST PUSH2 0xFFFF SWAP4 DUP5 AND PUSH1 0x0 SWAP1 DUP2 MSTORE PUSH1 0x20 SWAP2 DUP3 MSTORE PUSH1 0x40 SWAP1 DUP2 SWAP1 KECCAK256 DUP1 SLOAD PUSH5 0xFFFFFFFFFF DUP2 AND DUP7 MSTORE PUSH1 0x1 PUSH1 0x28 SHL DUP2 DIV PUSH1 0x1 PUSH1 0x1 PUSH1 0x58 SHL SUB SWAP1 DUP2 AND SWAP5 DUP8 ADD SWAP5 SWAP1 SWAP5 MSTORE PUSH1 0x1 DUP3 ADD SLOAD DUP5 AND SWAP3 DUP7 ADD SWAP3 SWAP1 SWAP3 MSTORE PUSH1 0x1 PUSH1 0xD8 SHL DUP3 DIV PUSH4 0xFFFFFFFF AND PUSH1 0x60 DUP7 ADD MSTORE PUSH1 0x1 PUSH1 0x80 SHL SWAP1 SWAP2 DIV SWAP1 SWAP2 AND PUSH1 0x80 DUP5 ADD MSTORE PUSH1 0x2 ADD SLOAD PUSH1 0x1 PUSH1 0x1 PUSH1 0x50 SHL SUB DUP1 DUP3 AND PUSH1 0xA0 DUP6 ADD MSTORE PUSH1 0x1 PUSH1 0x50 SHL DUP3 DIV DUP2 AND PUSH1 0xC0 DUP6 ADD MSTORE PUSH1 0x1 PUSH1 0xA0 SHL DUP3 DIV AND PUSH1 0xE0 DUP5 ADD MSTORE PUSH1 0x1 PUSH1 0xF0 SHL SWAP1 DIV PUSH1 0xFF AND PUSH2 0x12C MUL SWAP1 SWAP3 AND PUSH2 0x100 DUP3 ADD MSTORE SWAP2 SWAP1 POP JUMP JUMPDEST PUSH1 0x0 DUP1 PUSH2 0x1A5B DUP4 PUSH2 0x214E JUMP JUMPDEST PUSH1 0x1 PUSH1 0x1 PUSH1 0xA0 SHL SUB AND PUSH4 0xA77C05B8 PUSH1 0x40 MLOAD DUP2 PUSH4 0xFFFFFFFF AND PUSH1 0xE0 SHL DUP2 MSTORE PUSH1 0x4 ADD PUSH1 0x40 DUP1 MLOAD DUP1 DUP4 SUB DUP2 DUP7 DUP1 EXTCODESIZE ISZERO DUP1 ISZERO PUSH2 0x1A92 JUMPI PUSH1 0x0 DUP1 REVERT JUMPDEST POP GAS STATICCALL ISZERO DUP1 ISZERO PUSH2 0x1AA6 JUMPI RETURNDATASIZE PUSH1 0x0 DUP1 RETURNDATACOPY RETURNDATASIZE PUSH1 0x0 REVERT JUMPDEST POP POP POP POP PUSH1 0x40 MLOAD RETURNDATASIZE PUSH1 0x1F NOT PUSH1 0x1F DUP3 ADD AND DUP3 ADD DUP1 PUSH1 0x40 MSTORE POP DUP2 ADD SWAP1 PUSH2 0x8A2 SWAP2 SWAP1 PUSH2 0x48F0 JUMP JUMPDEST PUSH2 0x1AD2 PUSH2 0x432D JUMP JUMPDEST PUSH1 0x0 DUP1 PUSH1 0x0 PUSH2 0x1AE2 DUP9 DUP7 DUP10 PUSH2 0x217E JUMP JUMPDEST PUSH1 0xC0 DUP12 ADD SWAP3 SWAP1 SWAP3 MSTORE PUSH1 0xE0 DUP11 ADD SWAP3 SWAP1 SWAP3 MSTORE PUSH1 0x20 DUP10 ADD MLOAD SWAP2 SWAP4 POP SWAP2 POP PUSH2 0x1B06 SWAP1 DUP4 PUSH2 0x2289 JUMP JUMPDEST PUSH1 0x20 DUP9 ADD MSTORE PUSH1 0x80 DUP8 ADD MLOAD PUSH1 0x0 SWAP1 ISZERO PUSH2 0x1B34 JUMPI PUSH1 0x80 DUP9 ADD MLOAD PUSH2 0x1B31 SWAP1 PUSH2 0x1B2B DUP10 DUP3 PUSH2 0x1B95 JUMP JUMPDEST SWAP1 PUSH2 0x229B JUMP JUMPDEST SWAP1 POP JUMPDEST PUSH2 0x1B54 PUSH2 0x1B49 PUSH8 0xDE0B6B3A7640000 DUP4 PUSH2 0x2289 JUMP JUMPDEST PUSH1 0xA0 DUP11 ADD MLOAD SWAP1 PUSH2 0x22B8 JUMP JUMPDEST PUSH1 0xA0 DUP10 ADD MSTORE POP POP PUSH1 0x80 DUP7 ADD SWAP5 SWAP1 SWAP5 MSTORE POP POP DUP3 MSTORE SWAP1 SWAP3 SWAP1 SWAP2 POP JUMP JUMPDEST PUSH1 0x0 DUP3 PUSH2 0x1B7D JUMPI POP PUSH1 0x0 PUSH2 0x4FE JUMP JUMPDEST DUP3 DUP3 MUL DUP3 DUP5 DUP3 DUP2 PUSH2 0x1B8A JUMPI INVALID JUMPDEST DIV EQ PUSH2 0xBCB JUMPI PUSH1 0x0 DUP1 REVERT JUMPDEST PUSH1 0x0 DUP3 DUP3 GT ISZERO PUSH2 0x1BA4 JUMPI PUSH1 0x0 DUP1 REVERT JUMPDEST POP SWAP1 SUB SWAP1 JUMP JUMPDEST PUSH1 0x0 PUSH2 0xBCB PUSH2 0x1BB9 DUP5 DUP5 PUSH2 0x18EF JUMP JUMPDEST PUSH4 0x3B9ACA00 PUSH2 0x193D JUMP JUMPDEST PUSH1 0x0 DUP2 PUSH2 0x1BD2 JUMPI POP PUSH1 0x0 PUSH2 0x8A2 JUMP JUMPDEST PUSH1 0x0 PUSH2 0x1BE5 DUP6 PUSH1 0x40 ADD MLOAD PUSH2 0xFFFF AND PUSH2 0x22D5 JUMP JUMPDEST DUP6 MLOAD DUP8 MLOAD PUSH1 0x40 MLOAD PUSH4 0xE9377111 PUSH1 0xE0 SHL DUP2 MSTORE SWAP3 SWAP4 POP PUSH2 0x1C76 SWAP3 PUSH1 0x1 PUSH1 0x1 PUSH1 0xA0 SHL SUB SWAP1 SWAP3 AND SWAP2 PUSH4 0xE9377111 SWAP2 PUSH2 0x1C1F SWAP2 DUP10 SWAP2 DUP10 SWAP2 PUSH1 0x4 ADD PUSH2 0x4A5C JUMP JUMPDEST PUSH1 0x20 PUSH1 0x40 MLOAD DUP1 DUP4 SUB DUP2 DUP7 DUP1 EXTCODESIZE ISZERO DUP1 ISZERO PUSH2 0x1C37 JUMPI PUSH1 0x0 DUP1 REVERT JUMPDEST POP GAS STATICCALL ISZERO DUP1 ISZERO PUSH2 0x1C4B JUMPI RETURNDATASIZE PUSH1 0x0 DUP1 RETURNDATACOPY RETURNDATASIZE PUSH1 0x0 REVERT JUMPDEST POP POP POP POP PUSH1 0x40 MLOAD RETURNDATASIZE PUSH1 0x1F NOT PUSH1 0x1F DUP3 ADD AND DUP3 ADD DUP1 PUSH1 0x40 MSTORE POP DUP2 ADD SWAP1 PUSH2 0x1C6F SWAP2 SWAP1 PUSH2 0x47E4 JUMP JUMPDEST DUP3 SWAP1 PUSH2 0x22E8 JUMP JUMPDEST SWAP7 SWAP6 POP POP POP POP POP POP JUMP JUMPDEST PUSH1 0x20 SWAP2 SWAP1 SWAP2 ADD MLOAD DUP2 AND PUSH2 0xFFFF SWAP1 DUP2 AND SWAP2 AND EQ SWAP1 JUMP JUMPDEST PUSH1 0x0 TIMESTAMP DUP5 GT PUSH2 0x1CBC JUMPI PUSH2 0x1CB5 PUSH2 0x1CAE DUP8 DUP8 DUP8 DUP8 TIMESTAMP PUSH2 0xB72 JUMP JUMPDEST DUP8 SWAP1 PUSH2 0xB99 JUMP JUMPDEST SWAP1 POP PUSH2 0xDCD JUMP JUMPDEST DUP2 DUP1 ISZERO PUSH2 0x1CCE JUMPI POP PUSH5 0xFFFFFFFFFF DUP5 EQ ISZERO JUMPDEST ISZERO PUSH2 0x1CF1 JUMPI PUSH1 0x0 PUSH2 0x1CDF DUP7 DUP9 PUSH2 0x1EAE JUMP JUMPDEST SWAP1 POP PUSH2 0x1CED DUP2 DUP6 DUP8 TIMESTAMP PUSH2 0x2318 JUMP JUMPDEST SWAP4 POP POP JUMPDEST POP SWAP1 SWAP5 SWAP4 POP POP POP POP JUMP JUMPDEST DUP2 DUP2 ADD DUP3 DUP2 SLT ISZERO PUSH1 0x0 DUP4 SLT ISZERO EQ PUSH2 0x4FE JUMPI PUSH1 0x0 DUP1 REVERT JUMPDEST PUSH1 0x0 DUP1 PUSH2 0x1D1C PUSH2 0x419E JUMP JUMPDEST PUSH1 0x0 DUP1 PUSH2 0x1D28 DUP10 PUSH2 0x2368 JUMP JUMPDEST SWAP3 POP PUSH2 0x1D3B DUP10 DUP10 DUP6 DUP10 DUP12 PUSH1 0x0 ADD MLOAD PUSH2 0x2403 JUMP JUMPDEST SWAP1 SWAP13 SWAP1 SWAP12 POP SWAP5 SWAP10 POP SWAP1 SWAP8 POP SWAP6 POP SWAP2 SWAP4 POP POP POP POP JUMP JUMPDEST PUSH1 0x0 DUP1 PUSH2 0x1D5D DUP5 DUP5 PUSH2 0x1CFB JUMP JUMPDEST SWAP1 POP PUSH1 0x0 DUP4 SLT PUSH2 0x1D76 JUMPI PUSH1 0x1 PUSH1 0x1 PUSH1 0xFF SHL SUB SWAP2 POP PUSH2 0x28E JUMP JUMPDEST PUSH2 0x8A2 PUSH2 0x1D82 DUP5 PUSH2 0xDD6 JUMP JUMPDEST DUP3 SWAP1 PUSH2 0x1603 JUMP JUMPDEST PUSH1 0x0 DUP1 DUP6 SGT PUSH2 0x1D9A JUMPI POP PUSH1 0x0 PUSH2 0x15F8 JUMP JUMPDEST PUSH2 0x120 DUP9 ADD MLOAD PUSH1 0x0 SWAP1 PUSH2 0x1DB1 SWAP1 PUSH4 0x3B9ACA00 PUSH2 0x1CFB JUMP JUMPDEST SWAP1 POP PUSH1 0x0 PUSH2 0x1DDD PUSH2 0x1DCF DUP12 PUSH1 0xC0 ADD MLOAD DUP5 PUSH2 0xF5E SWAP1 SWAP2 SWAP1 PUSH4 0xFFFFFFFF AND JUMP JUMPDEST PUSH2 0xAA9 DUP12 PUSH2 0xFCC DUP13 DUP8 PUSH2 0x1BAA JUMP JUMPDEST SWAP1 POP PUSH2 0x1DED DUP5 PUSH2 0xBC5 DUP4 DUP9 PUSH2 0x18EF JUMP JUMPDEST SWAP3 POP PUSH1 0x0 PUSH2 0x1DFB DUP9 DUP6 PUSH2 0xF5E JUMP JUMPDEST SWAP1 POP DUP4 DUP9 SLT DUP1 PUSH2 0x1E0A JUMPI POP DUP7 DUP2 SLT JUMPDEST ISZERO PUSH2 0x1E23 JUMPI DUP8 SWAP4 POP PUSH2 0x1E20 DUP7 PUSH2 0xBC5 DUP7 DUP9 PUSH2 0x18EF JUMP JUMPDEST SWAP2 POP JUMPDEST PUSH1 0x0 PUSH2 0x1E40 DUP12 PUSH2 0xBC5 DUP15 PUSH1 0xC0 ADD MLOAD DUP7 PUSH2 0x18EF SWAP1 SWAP2 SWAP1 PUSH4 0xFFFFFFFF AND JUMP JUMPDEST SWAP1 POP PUSH4 0x3B9ACA00 DUP2 SLT PUSH2 0x1E70 JUMPI PUSH1 0xC0 DUP13 ADD MLOAD PUSH2 0x1E5D SWAP1 DUP13 SWAP1 PUSH2 0x1603 JUMP JUMPDEST SWAP3 POP PUSH2 0x1E6D DUP7 PUSH2 0xBC5 DUP6 DUP11 PUSH2 0x18EF JUMP JUMPDEST SWAP5 POP JUMPDEST POP POP POP POP SWAP8 SWAP7 POP POP POP POP POP POP POP JUMP JUMPDEST PUSH1 0x0 PUSH2 0xDCD PUSH2 0x5A9 PUSH4 0x3B9ACA00 PUSH2 0xBC5 DUP7 DUP2 DUP8 PUSH2 0x18DE DUP13 DUP13 PUSH2 0x18EF JUMP JUMPDEST PUSH2 0x1EA4 PUSH2 0x419E JUMP JUMPDEST PUSH2 0x4FE DUP3 TIMESTAMP PUSH2 0x24E4 JUMP JUMPDEST PUSH2 0x1EB6 PUSH2 0x4379 JUMP JUMPDEST PUSH1 0x0 PUSH2 0x1EC5 DUP5 PUSH2 0xFFFF AND PUSH2 0x25A5 JUMP JUMPDEST PUSH1 0x40 DUP1 MLOAD PUSH1 0x80 DUP2 ADD DUP3 MSTORE PUSH2 0xFFFF SWAP7 SWAP1 SWAP7 AND DUP7 MSTORE PUSH1 0xFF DUP3 AND PUSH1 0x20 DUP8 ADD MSTORE DUP6 ADD SWAP4 SWAP1 SWAP4 MSTORE POP POP PUSH1 0x60 DUP3 ADD MSTORE SWAP1 JUMP JUMPDEST PUSH1 0x0 DUP1 PUSH1 0x0 PUSH2 0x1F05 DUP7 PUSH1 0x20 ADD MLOAD DUP7 DUP7 PUSH2 0x25C2 JUMP JUMPDEST SWAP2 POP SWAP2 POP PUSH1 0x0 PUSH2 0x1F14 DUP8 PUSH2 0x2649 JUMP JUMPDEST SWAP1 POP DUP2 PUSH2 0x1F34 JUMPI DUP7 MLOAD PUSH2 0x1F2D SWAP1 PUSH2 0xFFFF AND DUP8 DUP4 DUP9 PUSH2 0x265D JUMP JUMPDEST SWAP4 POP PUSH2 0x1FD0 JUMP JUMPDEST PUSH1 0x0 PUSH2 0x1F3F DUP7 PUSH2 0x26FC JUMP JUMPDEST SWAP1 POP PUSH1 0x0 PUSH2 0x1F56 PUSH2 0x1F4F DUP7 PUSH2 0x271A JUMP JUMPDEST DUP4 SWAP1 PUSH2 0x2289 JUMP JUMPDEST SWAP1 POP PUSH1 0x0 PUSH2 0x1F6E DUP11 PUSH1 0x0 ADD MLOAD PUSH2 0xFFFF AND DUP4 DUP7 DUP12 PUSH2 0x265D JUMP JUMPDEST SWAP1 POP PUSH1 0x0 DUP1 DUP8 PUSH1 0x1 EQ ISZERO PUSH2 0x1F8C JUMPI POP POP PUSH1 0x40 DUP1 DUP12 ADD MLOAD ADD MLOAD DUP9 PUSH2 0x1FBB JUMP JUMPDEST PUSH2 0x1FA2 PUSH2 0x1F9B PUSH1 0x1 DUP11 SUB PUSH2 0x271A JUMP JUMPDEST DUP7 SWAP1 PUSH2 0x2289 JUMP JUMPDEST SWAP1 POP PUSH2 0x1FB8 DUP13 PUSH1 0x0 ADD MLOAD PUSH2 0xFFFF AND DUP3 DUP9 DUP14 PUSH2 0x265D JUMP JUMPDEST SWAP2 POP JUMPDEST PUSH2 0x1FC8 DUP2 DUP6 DUP5 DUP7 DUP16 PUSH2 0x27BE JUMP JUMPDEST SWAP9 POP POP POP POP POP POP JUMPDEST POP POP POP SWAP4 SWAP3 POP POP POP JUMP JUMPDEST PUSH1 0x0 PUSH2 0x4FE DUP3 PUSH1 0x40 PUSH2 0x281B JUMP JUMPDEST PUSH1 0x0 DUP1 PUSH2 0x200A PUSH2 0x2005 PUSH4 0x1DA9C00 PUSH2 0x1FFF DUP7 DUP9 PUSH2 0x1B6E JUMP JUMPDEST SWAP1 PUSH2 0x282E JUMP JUMPDEST PUSH2 0x284D JUMP JUMPDEST SWAP1 POP PUSH2 0x201C DUP2 PUSH3 0x1DCD65 PUSH1 0x49 SHL PUSH2 0x286B JUMP JUMPDEST SWAP1 POP PUSH2 0x202F PUSH2 0x202A DUP3 PUSH2 0x28BE JUMP JUMPDEST PUSH2 0x28E0 JUMP JUMPDEST SWAP1 POP PUSH2 0x2041 DUP2 PUSH3 0x1DCD65 PUSH1 0x49 SHL PUSH2 0x2935 JUMP JUMPDEST SWAP1 POP PUSH1 0x0 PUSH2 0x204E DUP3 PUSH2 0x296B JUMP JUMPDEST PUSH1 0x7 SIGNEXTEND SWAP6 SWAP5 POP POP POP POP POP JUMP JUMPDEST PUSH1 0x0 DUP1 PUSH2 0x4FE PUSH1 0x14 PUSH2 0x196E JUMP JUMPDEST PUSH1 0x8 DUP2 SWAP1 SHR PUSH1 0xFF SWAP1 SWAP2 AND SHL SWAP1 JUMP JUMPDEST PUSH2 0x207D PUSH2 0x419E JUMP JUMPDEST PUSH1 0x0 DUP1 PUSH2 0x2088 PUSH2 0x2974 JUMP JUMPDEST PUSH2 0xFFFF DUP7 AND PUSH1 0x0 SWAP1 DUP2 MSTORE PUSH1 0x20 DUP3 DUP2 MSTORE PUSH1 0x40 DUP1 DUP4 KECCAK256 DUP9 DUP5 MSTORE SWAP1 SWAP2 MSTORE SWAP1 KECCAK256 DUP1 SLOAD PUSH1 0x1 PUSH1 0xF0 SHL SWAP1 DIV PUSH1 0xFF AND SWAP4 POP SWAP1 SWAP2 POP DUP3 ISZERO PUSH2 0x20FF JUMPI DUP1 SLOAD PUSH1 0x1 PUSH1 0x1 PUSH1 0x50 SHL SUB PUSH1 0x1 PUSH1 0xA0 SHL DUP3 DIV DUP2 AND SWAP2 PUSH2 0x20DA SWAP2 AND DUP3 PUSH2 0x1B6E JUMP JUMPDEST DUP6 MSTORE DUP2 SLOAD PUSH2 0x20F8 SWAP1 PUSH1 0x1 PUSH1 0x50 SHL SWAP1 DIV PUSH1 0x1 PUSH1 0x1 PUSH1 0x50 SHL SUB AND DUP3 PUSH2 0x1B6E JUMP JUMPDEST PUSH1 0x20 DUP7 ADD MSTORE POP JUMPDEST POP POP SWAP3 POP SWAP3 SWAP1 POP JUMP JUMPDEST PUSH1 0x0 DUP1 DUP3 SLT ISZERO PUSH2 0x213B JUMPI PUSH2 0x2136 PUSH1 0x1 PUSH2 0xFCC DUP6 PUSH1 0x20 ADD MLOAD PUSH2 0xBC5 DUP8 PUSH1 0x0 ADD MLOAD DUP8 PUSH2 0x18EF SWAP1 SWAP2 SWAP1 PUSH4 0xFFFFFFFF AND JUMP JUMPDEST PUSH2 0xBCB JUMP JUMPDEST POP SWAP2 SWAP1 POP JUMP JUMPDEST PUSH1 0x0 DUP1 PUSH2 0x4FE PUSH1 0x1D PUSH2 0x196E JUMP JUMPDEST PUSH1 0x0 DUP1 PUSH2 0x2159 PUSH2 0x2981 JUMP JUMPDEST PUSH2 0xFFFF SWAP4 SWAP1 SWAP4 AND PUSH1 0x0 SWAP1 DUP2 MSTORE PUSH1 0x20 SWAP4 SWAP1 SWAP4 MSTORE POP POP PUSH1 0x40 SWAP1 KECCAK256 SLOAD PUSH1 0x1 PUSH1 0x1 PUSH1 0xA0 SHL SUB AND SWAP1 JUMP JUMPDEST PUSH1 0x0 DUP1 PUSH1 0x0 DUP1 PUSH1 0x0 DUP1 PUSH2 0x2191 DUP10 DUP9 PUSH2 0x298E JUMP JUMPDEST DUP10 MLOAD SWAP1 SWAP6 POP SWAP2 SWAP4 POP SWAP2 POP PUSH1 0x0 SWAP1 PUSH2 0x21B8 SWAP1 PUSH2 0x21AD SWAP1 DUP12 SWAP1 PUSH2 0x1B95 JUMP JUMPDEST PUSH4 0x3B9ACA00 SWAP1 PUSH2 0x1B6E JUMP JUMPDEST SWAP1 POP PUSH2 0x21F2 PUSH2 0x21E7 PUSH4 0x1DA9C00 PUSH2 0x21CF DUP6 DUP6 PUSH2 0x1B6E JUMP JUMPDEST DUP2 PUSH2 0x21D6 JUMPI INVALID JUMPDEST PUSH8 0xDE0B6B3A7640000 SWAP2 SWAP1 DIV PUSH2 0x2289 JUMP JUMPDEST PUSH1 0xE0 DUP11 ADD MLOAD SWAP1 PUSH2 0x22B8 JUMP JUMPDEST SWAP7 POP PUSH2 0x2214 PUSH2 0x2209 PUSH4 0x1DA9C00 PUSH2 0x21CF DUP8 DUP6 PUSH2 0x1B6E JUMP JUMPDEST PUSH1 0xC0 DUP11 ADD MLOAD SWAP1 PUSH2 0x22B8 JUMP JUMPDEST SWAP6 POP DUP2 DUP4 EQ ISZERO PUSH2 0x222B JUMPI POP PUSH1 0x0 SWAP4 POP PUSH2 0x2280 SWAP2 POP POP JUMP JUMPDEST PUSH1 0x0 PUSH2 0x224D PUSH2 0x2242 PUSH4 0x1DA9C00 PUSH2 0x21CF DUP8 DUP7 PUSH2 0x1B6E JUMP JUMPDEST PUSH1 0xE0 DUP12 ADD MLOAD SWAP1 PUSH2 0x22B8 JUMP JUMPDEST SWAP1 POP PUSH1 0x0 PUSH2 0x225B DUP10 DUP4 PUSH2 0x1B95 JUMP JUMPDEST SWAP1 POP PUSH2 0x2278 DUP9 PUSH2 0x1FFF DUP4 DUP14 PUSH1 0x40 ADD MLOAD PUSH2 0x1B6E SWAP1 SWAP2 SWAP1 PUSH4 0xFFFFFFFF AND JUMP JUMPDEST SWAP7 POP POP POP POP POP POP JUMPDEST SWAP4 POP SWAP4 POP SWAP4 POP SWAP4 JUMP JUMPDEST PUSH1 0x0 DUP3 DUP3 ADD DUP4 DUP2 LT ISZERO PUSH2 0xBCB JUMPI PUSH1 0x0 DUP1 REVERT JUMPDEST PUSH1 0x0 PUSH2 0xBCB PUSH2 0x22B2 DUP5 PUSH8 0xDE0B6B3A7640000 PUSH2 0x1B6E JUMP JUMPDEST DUP4 PUSH2 0x282E JUMP JUMPDEST PUSH1 0x0 PUSH2 0xBCB PUSH2 0x22C7 DUP5 DUP5 PUSH2 0x1B6E JUMP JUMPDEST PUSH8 0xDE0B6B3A7640000 PUSH2 0x282E JUMP JUMPDEST PUSH2 0x22DD PUSH2 0x43A5 JUMP JUMPDEST PUSH2 0x4FE DUP3 PUSH1 0x1 PUSH2 0x2A29 JUMP JUMPDEST PUSH1 0x0 PUSH4 0x5F5E100 DUP4 PUSH1 0x40 ADD MLOAD EQ ISZERO PUSH2 0x2301 JUMPI POP DUP1 PUSH2 0x4FE JUMP JUMPDEST PUSH1 0x40 DUP4 ADD MLOAD PUSH2 0xBCB SWAP1 PUSH2 0xBC5 DUP5 PUSH4 0x5F5E100 PUSH2 0x18EF JUMP JUMPDEST PUSH1 0x0 DUP4 PUSH2 0x2327 JUMPI POP PUSH1 0x0 PUSH2 0x8A2 JUMP JUMPDEST PUSH1 0x0 DUP1 DUP6 SGT PUSH2 0x2340 JUMPI PUSH2 0x233B DUP7 DUP6 DUP6 PUSH2 0x2AC3 JUMP JUMPDEST PUSH2 0x234B JUMP JUMPDEST PUSH2 0x234B DUP7 DUP6 DUP6 PUSH2 0x2AFF JUMP JUMPDEST SWAP1 POP PUSH4 0x3B9ACA00 DUP2 SGT ISZERO PUSH2 0x235E JUMPI PUSH1 0x0 DUP1 REVERT JUMPDEST PUSH2 0x1C76 DUP6 DUP3 PUSH2 0x1BAA JUMP JUMPDEST PUSH2 0x2370 PUSH2 0x419E JUMP JUMPDEST PUSH1 0x0 PUSH2 0x2383 DUP4 PUSH1 0x40 ADD MLOAD PUSH2 0xFFFF AND PUSH2 0x2B3C JUMP JUMPDEST DUP1 MLOAD DUP4 MSTORE PUSH2 0x140 DUP5 ADD MLOAD MLOAD SWAP1 SWAP2 POP PUSH2 0xFFFF AND ISZERO PUSH2 0x23CC JUMPI PUSH2 0x23C6 DUP2 PUSH2 0x23C1 DUP6 PUSH2 0x140 ADD MLOAD PUSH1 0x0 PUSH1 0x2 DUP2 LT PUSH2 0x23B3 JUMPI INVALID JUMPDEST PUSH1 0x20 MUL ADD MLOAD PUSH2 0xFFFF AND PUSH2 0x2B3C JUMP JUMPDEST PUSH2 0x2C9F JUMP JUMPDEST PUSH1 0x20 DUP4 ADD MSTORE JUMPDEST PUSH2 0x140 DUP4 ADD MLOAD PUSH1 0x20 ADD MLOAD PUSH2 0xFFFF AND ISZERO PUSH2 0x213B JUMPI PUSH2 0x23F8 DUP2 PUSH2 0x23C1 DUP6 PUSH2 0x140 ADD MLOAD PUSH1 0x1 PUSH1 0x2 DUP2 LT PUSH2 0x23B3 JUMPI INVALID JUMPDEST PUSH1 0x40 DUP4 ADD MSTORE POP SWAP2 SWAP1 POP JUMP JUMPDEST PUSH1 0x0 DUP1 PUSH1 0x0 DUP1 PUSH1 0x0 DUP1 PUSH2 0x241A DUP9 DUP13 PUSH1 0x0 ADD MLOAD PUSH2 0x13AC JUMP JUMPDEST SWAP2 POP SWAP2 POP PUSH2 0x2429 DUP12 DUP10 DUP13 PUSH2 0x1318 JUMP JUMPDEST SWAP1 SWAP8 POP SWAP6 POP PUSH1 0x0 SWAP1 POP PUSH2 0x243E DUP13 PUSH2 0x200 PUSH2 0x1C80 JUMP JUMPDEST PUSH2 0x140 DUP14 ADD MLOAD MLOAD SWAP1 SWAP2 POP PUSH2 0xFFFF AND ISZERO PUSH2 0x2480 JUMPI PUSH2 0x247D PUSH2 0x2467 DUP5 DUP14 PUSH1 0x0 JUMPDEST PUSH1 0x20 MUL ADD MLOAD SWAP1 PUSH2 0xB99 JUMP JUMPDEST DUP13 MLOAD PUSH2 0x140 DUP16 ADD MLOAD MLOAD PUSH2 0x109F SWAP2 SWAP1 DUP13 DUP13 DUP8 PUSH2 0x1C95 JUMP JUMPDEST SWAP7 POP JUMPDEST PUSH2 0x140 DUP13 ADD MLOAD PUSH1 0x20 ADD MLOAD PUSH2 0xFFFF AND ISZERO PUSH2 0x24C4 JUMPI PUSH2 0x24C1 PUSH2 0x24A2 DUP4 DUP14 PUSH1 0x1 PUSH2 0x245C JUMP JUMPDEST PUSH1 0x20 DUP14 ADD MLOAD PUSH2 0x140 DUP16 ADD MLOAD PUSH2 0x109F SWAP2 SWAP1 PUSH1 0x1 PUSH1 0x20 MUL ADD MLOAD DUP13 DUP12 DUP8 PUSH2 0x1C95 JUMP JUMPDEST SWAP6 POP JUMPDEST PUSH2 0x24CF DUP11 DUP9 DUP9 PUSH2 0x2CC4 JUMP JUMPDEST SWAP8 SWAP14 SWAP7 SWAP13 POP SWAP11 POP SWAP6 SWAP9 POP SWAP4 SWAP7 POP POP POP POP POP POP POP JUMP JUMPDEST PUSH2 0x24EC PUSH2 0x419E JUMP JUMPDEST PUSH1 0x0 PUSH2 0x24F7 DUP5 PUSH2 0x1987 JUMP JUMPDEST SWAP1 POP DUP3 DUP2 PUSH1 0x0 ADD MLOAD LT ISZERO PUSH2 0x2536 JUMPI PUSH1 0x0 DUP1 PUSH2 0x2511 DUP7 PUSH2 0x2D76 JUMP JUMPDEST SWAP1 POP PUSH2 0x251F DUP7 DUP5 DUP4 DUP9 PUSH2 0x1ACA JUMP JUMPDEST SWAP1 SWAP4 POP SWAP2 POP PUSH2 0x252F DUP7 DUP4 DUP6 PUSH2 0x2DCF JUMP JUMPDEST POP POP PUSH2 0x2543 JUMP JUMPDEST DUP1 MLOAD DUP4 EQ PUSH2 0x2543 JUMPI PUSH1 0x0 DUP1 REVERT JUMPDEST PUSH1 0x40 MLOAD DUP1 PUSH1 0x60 ADD PUSH1 0x40 MSTORE DUP1 PUSH2 0x256C PUSH2 0xCE9 DUP5 PUSH1 0xA0 ADD MLOAD DUP6 PUSH1 0xC0 ADD MLOAD PUSH2 0x1B6E SWAP1 SWAP2 SWAP1 PUSH4 0xFFFFFFFF AND JUMP JUMPDEST DUP2 MSTORE PUSH1 0x20 ADD PUSH2 0x258F PUSH2 0xCE9 DUP5 PUSH1 0xA0 ADD MLOAD DUP6 PUSH1 0xE0 ADD MLOAD PUSH2 0x1B6E SWAP1 SWAP2 SWAP1 PUSH4 0xFFFFFFFF AND JUMP JUMPDEST DUP2 MSTORE PUSH1 0x20 ADD DUP3 PUSH1 0x60 ADD MLOAD DUP2 MSTORE POP SWAP2 POP POP SWAP3 SWAP2 POP POP JUMP JUMPDEST PUSH1 0x0 DUP1 PUSH2 0x25B0 PUSH2 0x3003 JUMP JUMPDEST PUSH1 0x0 SWAP4 DUP5 MSTORE PUSH1 0x20 MSTORE POP POP PUSH1 0x40 SWAP1 KECCAK256 SLOAD SWAP1 JUMP JUMPDEST PUSH1 0x0 DUP1 PUSH1 0x0 DUP6 GT PUSH2 0x25D2 JUMPI PUSH1 0x0 DUP1 REVERT JUMPDEST PUSH1 0x7 DUP6 GT ISZERO PUSH2 0x25E0 JUMPI PUSH1 0x0 DUP1 REVERT JUMPDEST PUSH1 0x0 PUSH2 0x25EB DUP5 PUSH2 0x26FC JUMP JUMPDEST SWAP1 POP PUSH1 0x1 JUMPDEST DUP7 DUP2 GT PUSH2 0x2643 JUMPI PUSH1 0x0 PUSH2 0x260C PUSH2 0x2605 DUP4 PUSH2 0x271A JUMP JUMPDEST DUP5 SWAP1 PUSH2 0x2289 JUMP JUMPDEST SWAP1 POP DUP7 DUP2 EQ ISZERO PUSH2 0x2624 JUMPI POP SWAP3 POP PUSH1 0x0 SWAP2 POP PUSH2 0x18E7 SWAP1 POP JUMP JUMPDEST DUP7 DUP2 GT ISZERO PUSH2 0x263A JUMPI POP SWAP3 POP PUSH1 0x1 SWAP2 POP PUSH2 0x18E7 SWAP1 POP JUMP JUMPDEST POP PUSH1 0x1 ADD PUSH2 0x25F0 JUMP JUMPDEST POP PUSH1 0x0 DUP1 REVERT JUMPDEST PUSH1 0x60 ADD MLOAD PUSH2 0x12C PUSH1 0x8 SWAP2 SWAP1 SWAP2 SHR PUSH1 0xFF AND MUL SWAP1 JUMP JUMPDEST PUSH1 0x0 DUP1 PUSH2 0x2668 PUSH2 0x3010 JUMP JUMPDEST SWAP1 POP PUSH1 0x0 PUSH3 0x76A700 PUSH2 0x2679 DUP6 PUSH2 0x26FC JUMP JUMPDEST PUSH1 0x0 DUP10 DUP2 MSTORE PUSH1 0x20 DUP6 DUP2 MSTORE PUSH1 0x40 DUP1 DUP4 KECCAK256 DUP12 DUP5 MSTORE DUP3 MSTORE DUP1 DUP4 KECCAK256 SWAP5 SWAP1 SWAP4 ADD DUP1 DUP4 MSTORE SWAP4 SWAP1 MSTORE KECCAK256 DUP1 SLOAD SWAP2 SWAP3 POP SWAP1 PUSH4 0xFFFFFFFF PUSH1 0x1 PUSH1 0xA0 SHL DUP3 DIV DUP2 AND SWAP2 PUSH1 0x1 PUSH1 0xC0 SHL DUP2 DIV DUP3 AND SWAP2 PUSH1 0x1 PUSH1 0xE0 SHL SWAP1 SWAP2 DIV AND DUP2 PUSH2 0x26E0 JUMPI PUSH1 0x40 MLOAD PUSH3 0x461BCD PUSH1 0xE5 SHL DUP2 MSTORE PUSH1 0x4 ADD PUSH2 0x95B SWAP1 PUSH2 0x4AAF JUMP JUMPDEST PUSH2 0x26ED DUP2 DUP5 DUP5 DUP13 DUP13 PUSH2 0x301D JUMP JUMPDEST SWAP12 SWAP11 POP POP POP POP POP POP POP POP POP POP POP JUMP JUMPDEST PUSH1 0x0 PUSH3 0x76A700 DUP3 LT ISZERO PUSH2 0x270E JUMPI PUSH1 0x0 DUP1 REVERT JUMPDEST POP PUSH3 0x76A700 DUP2 MOD SWAP1 SUB SWAP1 JUMP JUMPDEST PUSH1 0x0 DUP2 PUSH1 0x1 EQ ISZERO PUSH2 0x272F JUMPI POP PUSH3 0x76A700 PUSH2 0xC4A JUMP JUMPDEST DUP2 PUSH1 0x2 EQ ISZERO PUSH2 0x2742 JUMPI POP PUSH3 0xED4E00 PUSH2 0xC4A JUMP JUMPDEST DUP2 PUSH1 0x3 EQ ISZERO PUSH2 0x2756 JUMPI POP PUSH4 0x1DA9C00 PUSH2 0xC4A JUMP JUMPDEST DUP2 PUSH1 0x4 EQ ISZERO PUSH2 0x276A JUMPI POP PUSH4 0x3B53800 PUSH2 0xC4A JUMP JUMPDEST DUP2 PUSH1 0x5 EQ ISZERO PUSH2 0x277E JUMPI POP PUSH4 0x9450C00 PUSH2 0xC4A JUMP JUMPDEST DUP2 PUSH1 0x6 EQ ISZERO PUSH2 0x2792 JUMPI POP PUSH4 0x128A1800 PUSH2 0xC4A JUMP JUMPDEST DUP2 PUSH1 0x7 EQ ISZERO PUSH2 0x27A6 JUMPI POP PUSH4 0x25143000 PUSH2 0xC4A JUMP JUMPDEST PUSH1 0x40 MLOAD PUSH3 0x461BCD PUSH1 0xE5 SHL DUP2 MSTORE PUSH1 0x4 ADD PUSH2 0x95B SWAP1 PUSH2 0x4ADF JUMP JUMPDEST PUSH1 0x0 DUP2 DUP7 LT PUSH2 0x27CC JUMPI PUSH1 0x0 DUP1 REVERT JUMPDEST DUP5 DUP3 LT PUSH2 0x27D8 JUMPI PUSH1 0x0 DUP1 REVERT JUMPDEST DUP4 DUP4 LT PUSH2 0x27FD JUMPI PUSH2 0x1CB5 DUP5 PUSH2 0x27F7 DUP9 DUP9 SUB PUSH2 0x1FFF DUP4 DUP9 SUB DUP12 DUP9 SUB PUSH2 0x1B6E JUMP JUMPDEST SWAP1 PUSH2 0x2289 JUMP JUMPDEST PUSH2 0x1CB5 PUSH2 0x2814 DUP8 DUP8 SUB PUSH2 0x1FFF DUP7 DUP9 SUB DUP11 DUP8 SUB PUSH2 0x1B6E JUMP JUMPDEST DUP6 SWAP1 PUSH2 0x1B95 JUMP JUMPDEST PUSH1 0x60 SWAP1 SWAP2 ADD MLOAD PUSH1 0xFF SWAP2 SHR AND PUSH3 0x2625A0 MUL SWAP1 JUMP JUMPDEST PUSH1 0x0 DUP1 DUP3 GT PUSH2 0x283C JUMPI PUSH1 0x0 DUP1 REVERT JUMPDEST DUP2 DUP4 DUP2 PUSH2 0x2845 JUMPI INVALID JUMPDEST DIV SWAP4 SWAP3 POP POP POP JUMP JUMPDEST PUSH1 0x0 PUSH8 0x7FFFFFFFFFFFFFFF DUP3 GT ISZERO PUSH2 0x2864 JUMPI PUSH1 0x0 DUP1 REVERT JUMPDEST POP PUSH1 0x40 SHL SWAP1 JUMP JUMPDEST PUSH1 0x0 DUP2 PUSH1 0xF SIGNEXTEND PUSH1 0x0 EQ ISZERO PUSH2 0x287E JUMPI PUSH1 0x0 DUP1 REVERT JUMPDEST PUSH1 0x0 DUP3 PUSH1 0xF SIGNEXTEND PUSH1 0x40 DUP6 PUSH1 0xF SIGNEXTEND SWAP1 SHL DUP2 PUSH2 0x2893 JUMPI INVALID JUMPDEST SDIV SWAP1 POP PUSH1 0x1 PUSH1 0x1 PUSH1 0x7F SHL SUB NOT DUP2 SLT DUP1 ISZERO SWAP1 PUSH2 0x28B5 JUMPI POP PUSH1 0x1 PUSH1 0x1 PUSH1 0x7F SHL SUB DUP2 SGT ISZERO JUMPDEST PUSH2 0xBCB JUMPI PUSH1 0x0 DUP1 REVERT JUMPDEST PUSH1 0x0 PUSH1 0xF DUP3 SWAP1 SIGNEXTEND PUSH1 0x1 PUSH1 0x1 PUSH1 0x7F SHL SUB NOT EQ ISZERO PUSH2 0x28D9 JUMPI PUSH1 0x0 DUP1 REVERT JUMPDEST POP PUSH1 0x0 SUB SWAP1 JUMP JUMPDEST PUSH1 0x0 PUSH1 0x1 PUSH1 0x46 SHL DUP3 PUSH1 0xF SIGNEXTEND SLT PUSH2 0x28F5 JUMPI PUSH1 0x0 DUP1 REVERT JUMPDEST PUSH9 0x3FFFFFFFFFFFFFFFFF NOT DUP3 PUSH1 0xF SIGNEXTEND SLT ISZERO PUSH2 0x2912 JUMPI POP PUSH1 0x0 PUSH2 0xC4A JUMP JUMPDEST PUSH2 0x4FE PUSH1 0x80 DUP4 PUSH1 0xF SIGNEXTEND PUSH17 0x171547652B82FE1777D0FFDA0D23A7D12 MUL SWAP1 SAR PUSH2 0x30A5 JUMP JUMPDEST PUSH1 0x0 PUSH1 0xF DUP4 DUP2 SIGNEXTEND SWAP1 DUP4 SWAP1 SIGNEXTEND MUL PUSH1 0x40 SAR PUSH1 0x1 PUSH1 0x1 PUSH1 0x7F SHL SUB NOT DUP2 SLT DUP1 ISZERO SWAP1 PUSH2 0x28B5 JUMPI POP PUSH1 0x1 PUSH1 0x1 PUSH1 0x7F SHL SUB DUP2 SGT ISZERO PUSH2 0xBCB JUMPI PUSH1 0x0 DUP1 REVERT JUMPDEST PUSH1 0xF SIGNEXTEND PUSH1 0x40 SAR SWAP1 JUMP JUMPDEST PUSH1 0x0 DUP1 PUSH2 0x4FE PUSH1 0x1E PUSH2 0x196E JUMP JUMPDEST PUSH1 0x0 DUP1 PUSH2 0x4FE PUSH1 0x1F PUSH2 0x196E JUMP JUMPDEST PUSH1 0x0 DUP1 PUSH1 0x0 DUP1 PUSH1 0x0 DUP6 PUSH1 0x20 ADD MLOAD GT ISZERO PUSH2 0x29DB JUMPI PUSH2 0x29D8 PUSH2 0x29BF DUP7 PUSH1 0xC0 ADD MLOAD DUP8 PUSH1 0x20 ADD MLOAD PUSH2 0x1B6E SWAP1 SWAP2 SWAP1 PUSH4 0xFFFFFFFF AND JUMP JUMPDEST PUSH1 0xE0 DUP8 ADD MLOAD PUSH1 0x40 DUP9 ADD MLOAD PUSH2 0x29D2 SWAP2 PUSH2 0x1B6E JUMP JUMPDEST SWAP1 PUSH2 0x3B5C JUMP JUMPDEST SWAP1 POP JUMPDEST PUSH1 0x0 PUSH2 0x29E6 DUP8 PUSH2 0x3B6F JUMP JUMPDEST SWAP1 POP PUSH2 0x29F2 DUP2 DUP4 PUSH2 0x3BA2 JUMP JUMPDEST SWAP5 POP DUP2 ISZERO PUSH2 0x2A09 JUMPI PUSH2 0x2A06 DUP2 DUP7 PUSH1 0x1 PUSH2 0x3C5C JUMP JUMPDEST SWAP4 POP JUMPDEST PUSH1 0x20 DUP7 ADD MLOAD ISZERO PUSH2 0x2A20 JUMPI PUSH2 0x2A1D DUP6 DUP4 PUSH2 0x3CD4 JUMP JUMPDEST SWAP3 POP JUMPDEST POP POP SWAP3 POP SWAP3 POP SWAP3 JUMP JUMPDEST PUSH2 0x2A31 PUSH2 0x43A5 JUMP JUMPDEST PUSH1 0x0 PUSH2 0x2A3B PUSH2 0x3CED JUMP JUMPDEST PUSH1 0x0 DUP6 DUP2 MSTORE PUSH1 0x20 DUP3 DUP2 MSTORE PUSH1 0x40 DUP1 DUP4 KECCAK256 DUP8 ISZERO ISZERO DUP5 MSTORE DUP3 MSTORE SWAP2 DUP3 SWAP1 KECCAK256 DUP3 MLOAD PUSH1 0xA0 DUP2 ADD DUP5 MSTORE DUP2 SLOAD PUSH1 0x1 PUSH1 0x1 PUSH1 0xA0 SHL SUB DUP2 AND DUP3 MSTORE PUSH1 0xFF PUSH1 0x1 PUSH1 0xA0 SHL DUP3 DIV DUP2 AND ISZERO ISZERO SWAP5 DUP4 ADD SWAP5 SWAP1 SWAP5 MSTORE PUSH1 0x1 PUSH1 0xB0 SHL DUP2 DIV DUP5 AND PUSH1 0xA EXP SWAP5 DUP3 ADD SWAP5 SWAP1 SWAP5 MSTORE SWAP4 SWAP5 POP SWAP3 SWAP2 PUSH1 0x60 DUP4 ADD SWAP2 PUSH1 0x1 PUSH1 0xA8 SHL SWAP1 SWAP2 DIV AND PUSH1 0x5 DUP2 GT ISZERO PUSH2 0x2AB0 JUMPI INVALID JUMPDEST DUP2 MSTORE PUSH1 0x0 PUSH1 0x20 SWAP1 SWAP2 ADD MSTORE SWAP6 SWAP5 POP POP POP POP POP JUMP JUMPDEST PUSH1 0x0 DUP1 PUSH2 0x2AD1 DUP6 DUP6 DUP6 PUSH2 0x3CFA JUMP JUMPDEST SWAP1 POP DUP1 ISZERO PUSH2 0x2AF1 JUMPI PUSH2 0x2AEC PUSH2 0x2AE6 DUP6 DUP6 PUSH2 0x1B95 JUMP JUMPDEST DUP3 PUSH2 0x1FE7 JUMP JUMPDEST PUSH2 0xDCD JUMP JUMPDEST PUSH4 0x3B9ACA00 SWAP6 SWAP5 POP POP POP POP POP JUMP JUMPDEST PUSH1 0x0 DUP1 PUSH2 0x2B0D DUP6 DUP6 DUP6 PUSH2 0x3D4A JUMP JUMPDEST SWAP1 POP PUSH2 0x2B1C PUSH2 0x2AE6 DUP6 DUP6 PUSH2 0x1B95 JUMP JUMPDEST SWAP2 POP PUSH1 0x0 PUSH2 0x2B29 DUP7 PUSH2 0x3D8B JUMP JUMPDEST SWAP1 POP DUP3 DUP2 SLT ISZERO PUSH2 0x6E6 JUMPI SWAP6 SWAP5 POP POP POP POP POP JUMP JUMPDEST PUSH2 0x2B44 PUSH2 0x43CC JUMP JUMPDEST PUSH1 0x0 PUSH2 0x2B4E PUSH2 0x3DA6 JUMP JUMPDEST PUSH1 0x0 DUP5 DUP2 MSTORE PUSH1 0x20 DUP3 SWAP1 MSTORE PUSH1 0x40 DUP2 KECCAK256 SWAP2 SWAP3 POP DUP1 PUSH1 0x1 DUP7 EQ ISZERO PUSH2 0x2B7B JUMPI POP PUSH8 0xDE0B6B3A7640000 SWAP1 POP DUP1 PUSH2 0x2C3E JUMP JUMPDEST DUP3 SLOAD PUSH1 0x40 DUP1 MLOAD PUSH4 0x3FABE5A3 PUSH1 0xE2 SHL DUP2 MSTORE SWAP1 MLOAD PUSH1 0x1 PUSH1 0x1 PUSH1 0xA0 SHL SUB SWAP1 SWAP3 AND SWAP2 PUSH4 0xFEAF968C SWAP2 PUSH1 0x4 DUP1 DUP3 ADD SWAP3 PUSH1 0xA0 SWAP3 SWAP1 SWAP2 SWAP1 DUP3 SWAP1 SUB ADD DUP2 DUP7 DUP1 EXTCODESIZE ISZERO DUP1 ISZERO PUSH2 0x2BBF JUMPI PUSH1 0x0 DUP1 REVERT JUMPDEST POP GAS STATICCALL ISZERO DUP1 ISZERO PUSH2 0x2BD3 JUMPI RETURNDATASIZE PUSH1 0x0 DUP1 RETURNDATACOPY RETURNDATASIZE PUSH1 0x0 REVERT JUMPDEST POP POP POP POP PUSH1 0x40 MLOAD RETURNDATASIZE PUSH1 0x1F NOT PUSH1 0x1F DUP3 ADD AND DUP3 ADD DUP1 PUSH1 0x40 MSTORE POP DUP2 ADD SWAP1 PUSH2 0x2BF7 SWAP2 SWAP1 PUSH2 0x4913 JUMP JUMPDEST POP SWAP2 SWAP4 POP POP PUSH1 0x0 DUP4 SGT SWAP2 POP PUSH2 0x2C0D SWAP1 POP JUMPI PUSH1 0x0 DUP1 REVERT JUMPDEST DUP3 SLOAD PUSH1 0xFF PUSH1 0x1 PUSH1 0xA0 SHL DUP3 DIV DUP2 AND PUSH1 0xA EXP SWAP4 POP PUSH1 0x1 PUSH1 0xA8 SHL SWAP1 SWAP2 DIV AND ISZERO PUSH2 0x2C3E JUMPI PUSH2 0x2C3B DUP2 PUSH2 0xBC5 DUP5 DUP1 PUSH2 0x18EF JUMP JUMPDEST SWAP1 POP JUMPDEST DUP3 SLOAD PUSH1 0x1 PUSH1 0xB0 SHL SWAP1 DIV PUSH1 0xFF AND PUSH1 0x96 DUP2 SGT ISZERO PUSH2 0x2C5E JUMPI PUSH1 0x95 NOT ADD PUSH1 0xA MUL PUSH1 0x96 ADD JUMPDEST PUSH1 0x40 DUP1 MLOAD PUSH1 0xA0 DUP2 ADD DUP3 MSTORE SWAP4 DUP5 MSTORE PUSH1 0x20 DUP5 ADD SWAP3 SWAP1 SWAP3 MSTORE SWAP1 DUP3 ADD MSTORE SWAP1 SLOAD PUSH1 0xFF PUSH1 0x1 PUSH1 0xB8 SHL DUP3 DIV DUP2 AND PUSH1 0x60 DUP5 ADD MSTORE PUSH1 0x1 PUSH1 0xC0 SHL SWAP1 SWAP2 DIV AND PUSH1 0x80 DUP3 ADD MSTORE SWAP2 POP POP SWAP2 SWAP1 POP JUMP JUMPDEST PUSH1 0x0 PUSH2 0xBCB DUP3 PUSH1 0x20 ADD MLOAD PUSH2 0xBC5 DUP5 PUSH1 0x0 ADD MLOAD DUP7 PUSH1 0x20 ADD MLOAD PUSH2 0x18EF SWAP1 SWAP2 SWAP1 PUSH4 0xFFFFFFFF AND JUMP JUMPDEST PUSH1 0x0 DUP1 PUSH1 0x0 DUP5 SLT ISZERO PUSH2 0x2CEE JUMPI PUSH1 0x20 DUP6 ADD MLOAD DUP6 MLOAD PUSH2 0x2CE7 SWAP2 SWAP1 PUSH2 0xBC5 SWAP1 DUP8 SWAP1 PUSH2 0x18EF JUMP JUMPDEST SWAP2 POP PUSH2 0x2D11 JUMP JUMPDEST DUP4 PUSH1 0x0 SLT ISZERO PUSH2 0x2D11 JUMPI PUSH1 0x20 DUP6 ADD MLOAD DUP6 MLOAD PUSH2 0x2D0E SWAP2 SWAP1 PUSH2 0xBC5 SWAP1 DUP8 SWAP1 PUSH2 0x18EF JUMP JUMPDEST SWAP1 POP JUMPDEST PUSH1 0x0 DUP4 SLT ISZERO PUSH2 0x2D42 JUMPI PUSH1 0x40 DUP6 ADD MLOAD DUP6 MLOAD PUSH2 0x2D3B SWAP2 PUSH2 0x2D34 SWAP2 PUSH2 0xBC5 SWAP1 DUP8 SWAP1 PUSH2 0x18EF JUMP JUMPDEST DUP4 SWAP1 PUSH2 0x1CFB JUMP JUMPDEST SWAP2 POP PUSH2 0x18E7 JUMP JUMPDEST DUP3 PUSH1 0x0 SLT ISZERO PUSH2 0x18E7 JUMPI PUSH1 0x40 DUP6 ADD MLOAD DUP6 MLOAD PUSH2 0x2D6C SWAP2 PUSH2 0x2D65 SWAP2 PUSH2 0xBC5 SWAP1 DUP8 SWAP1 PUSH2 0x18EF JUMP JUMPDEST DUP3 SWAP1 PUSH2 0x1CFB JUMP JUMPDEST SWAP1 POP SWAP4 POP SWAP4 SWAP2 POP POP JUMP JUMPDEST PUSH1 0x0 DUP1 PUSH2 0x2D82 DUP4 PUSH2 0x214E JUMP JUMPDEST PUSH1 0x1 PUSH1 0x1 PUSH1 0xA0 SHL SUB AND PUSH4 0xEF81F216 PUSH1 0x40 MLOAD DUP2 PUSH4 0xFFFFFFFF AND PUSH1 0xE0 SHL DUP2 MSTORE PUSH1 0x4 ADD PUSH1 0x40 DUP1 MLOAD DUP1 DUP4 SUB DUP2 PUSH1 0x0 DUP8 DUP1 EXTCODESIZE ISZERO DUP1 ISZERO PUSH2 0x2DBB JUMPI PUSH1 0x0 DUP1 REVERT JUMPDEST POP GAS CALL ISZERO DUP1 ISZERO PUSH2 0x1AA6 JUMPI RETURNDATASIZE PUSH1 0x0 DUP1 RETURNDATACOPY RETURNDATASIZE PUSH1 0x0 REVERT JUMPDEST PUSH1 0x0 PUSH2 0x2DD9 PUSH2 0x2141 JUMP JUMPDEST PUSH1 0x0 DUP6 PUSH2 0xFFFF AND DUP2 MSTORE PUSH1 0x20 ADD SWAP1 DUP2 MSTORE PUSH1 0x20 ADD PUSH1 0x0 KECCAK256 SWAP1 POP PUSH2 0x2DFD DUP3 PUSH1 0x0 ADD MLOAD PUSH2 0x3DB3 JUMP JUMPDEST DUP2 SLOAD PUSH5 0xFFFFFFFFFF NOT AND PUSH5 0xFFFFFFFFFF SWAP2 SWAP1 SWAP2 AND OR DUP2 SSTORE PUSH1 0xA0 DUP3 ADD MLOAD PUSH2 0x2E22 SWAP1 PUSH2 0x3DC7 JUMP JUMPDEST PUSH1 0x2 DUP3 ADD DUP1 SLOAD PUSH10 0xFFFFFFFFFFFFFFFFFFFF NOT AND PUSH1 0x1 PUSH1 0x1 PUSH1 0x50 SHL SUB SWAP3 SWAP1 SWAP3 AND SWAP2 SWAP1 SWAP2 OR SWAP1 SSTORE PUSH1 0xC0 DUP3 ADD MLOAD PUSH2 0x2E55 SWAP1 PUSH2 0x3DC7 JUMP JUMPDEST DUP2 PUSH1 0x2 ADD PUSH1 0xA PUSH2 0x100 EXP DUP2 SLOAD DUP2 PUSH1 0x1 PUSH1 0x1 PUSH1 0x50 SHL SUB MUL NOT AND SWAP1 DUP4 PUSH1 0x1 PUSH1 0x1 PUSH1 0x50 SHL SUB AND MUL OR SWAP1 SSTORE POP PUSH2 0x2E8A DUP3 PUSH1 0xE0 ADD MLOAD PUSH2 0x3DC7 JUMP JUMPDEST DUP2 PUSH1 0x2 ADD PUSH1 0x14 PUSH2 0x100 EXP DUP2 SLOAD DUP2 PUSH1 0x1 PUSH1 0x1 PUSH1 0x50 SHL SUB MUL NOT AND SWAP1 DUP4 PUSH1 0x1 PUSH1 0x1 PUSH1 0x50 SHL SUB AND MUL OR SWAP1 SSTORE POP PUSH2 0x2EBF DUP3 PUSH1 0x20 ADD MLOAD PUSH2 0x3DDD JUMP JUMPDEST DUP2 SLOAD PUSH1 0x1 PUSH1 0x1 PUSH1 0x58 SHL SUB SWAP2 SWAP1 SWAP2 AND PUSH1 0x1 PUSH1 0x28 SHL MUL PUSH16 0xFFFFFFFFFFFFFFFFFFFFFF0000000000 NOT SWAP1 SWAP2 AND OR DUP2 SSTORE PUSH1 0x40 DUP3 ADD MLOAD PUSH2 0x2EF9 SWAP1 PUSH2 0x3DDD JUMP JUMPDEST PUSH1 0x1 DUP3 ADD DUP1 SLOAD PUSH11 0xFFFFFFFFFFFFFFFFFFFFFF NOT AND PUSH1 0x1 PUSH1 0x1 PUSH1 0x58 SHL SUB SWAP3 SWAP1 SWAP3 AND SWAP2 SWAP1 SWAP2 OR SWAP1 SSTORE PUSH1 0x80 DUP3 ADD MLOAD PUSH2 0x2F2D SWAP1 PUSH2 0x3DDD JUMP JUMPDEST DUP2 SLOAD PUSH1 0x1 PUSH1 0x1 PUSH1 0x58 SHL SUB SWAP2 SWAP1 SWAP2 AND PUSH1 0x1 PUSH1 0x80 SHL MUL PUSH11 0xFFFFFFFFFFFFFFFFFFFFFF PUSH1 0x80 SHL NOT SWAP1 SWAP2 AND OR DUP2 SSTORE PUSH1 0x60 DUP3 ADD MLOAD PUSH2 0x2F65 SWAP1 PUSH2 0x3DF3 JUMP JUMPDEST DUP2 SLOAD PUSH4 0xFFFFFFFF SWAP2 SWAP1 SWAP2 AND PUSH1 0x1 PUSH1 0xD8 SHL MUL PUSH4 0xFFFFFFFF PUSH1 0xD8 SHL NOT SWAP1 SWAP2 AND OR DUP2 SSTORE DUP3 ISZERO PUSH2 0x2FB1 JUMPI PUSH1 0x0 PUSH2 0x2F96 DUP5 PUSH2 0x116A JUMP JUMPDEST SWAP1 POP PUSH2 0x2FA2 DUP6 DUP3 PUSH2 0x3E06 JUMP JUMPDEST PUSH2 0x2FAF PUSH2 0xFEE DUP7 DUP4 PUSH2 0x3E3D JUMP JUMPDEST POP JUMPDEST DUP4 PUSH2 0xFFFF AND PUSH32 0xEF25641E225E493886510CA1AD6584FA7B442B9FEA820A29D1DE3CE27D270FD2 DUP4 PUSH1 0xA0 ADD MLOAD DUP5 PUSH1 0xC0 ADD MLOAD DUP6 PUSH1 0xE0 ADD MLOAD PUSH1 0x40 MLOAD PUSH2 0x2FF5 SWAP4 SWAP3 SWAP2 SWAP1 PUSH2 0x4D9A JUMP JUMPDEST PUSH1 0x40 MLOAD DUP1 SWAP2 SUB SWAP1 LOG2 POP POP POP POP JUMP JUMPDEST PUSH1 0x0 DUP1 PUSH2 0x4FE PUSH1 0x9 PUSH2 0x196E JUMP JUMPDEST PUSH1 0x0 DUP1 PUSH2 0x4FE PUSH1 0xA PUSH2 0x196E JUMP JUMPDEST PUSH1 0x0 DUP1 DUP4 GT PUSH2 0x302B JUMPI PUSH1 0x0 DUP1 REVERT JUMPDEST DUP2 DUP7 GT ISZERO PUSH2 0x303A JUMPI POP DUP4 PUSH2 0xDCD JUMP JUMPDEST PUSH1 0x0 PUSH2 0x3046 DUP4 DUP9 PUSH2 0x1B95 JUMP JUMPDEST SWAP1 POP DUP4 DUP2 GT ISZERO PUSH2 0x3059 JUMPI DUP6 SWAP2 POP POP PUSH2 0xDCD JUMP JUMPDEST PUSH1 0x0 PUSH2 0x3065 DUP3 DUP7 PUSH2 0x3B5C JUMP JUMPDEST SWAP1 POP PUSH1 0x0 PUSH2 0x3077 PUSH4 0x3B9ACA00 DUP4 PUSH2 0x1B95 JUMP JUMPDEST SWAP1 POP PUSH2 0x3098 PUSH4 0x3B9ACA00 PUSH2 0x1FFF PUSH2 0x308E DUP11 DUP6 PUSH2 0x1B6E JUMP JUMPDEST PUSH2 0x27F7 DUP13 DUP8 PUSH2 0x1B6E JUMP JUMPDEST SWAP10 SWAP9 POP POP POP POP POP POP POP POP POP JUMP JUMPDEST PUSH1 0x0 PUSH1 0x1 PUSH1 0x46 SHL DUP3 PUSH1 0xF SIGNEXTEND SLT PUSH2 0x30BA JUMPI PUSH1 0x0 DUP1 REVERT JUMPDEST PUSH9 0x3FFFFFFFFFFFFFFFFF NOT DUP3 PUSH1 0xF SIGNEXTEND SLT ISZERO PUSH2 0x30D7 JUMPI POP PUSH1 0x0 PUSH2 0xC4A JUMP JUMPDEST PUSH1 0x1 PUSH1 0x7F SHL PUSH1 0x0 PUSH8 0x8000000000000000 DUP5 AND PUSH1 0xF SIGNEXTEND SGT ISZERO PUSH2 0x3109 JUMPI PUSH17 0x16A09E667F3BCC908B2FB1366EA957D3E MUL PUSH1 0x80 SHR JUMPDEST PUSH1 0x0 DUP4 PUSH8 0x4000000000000000 AND PUSH1 0xF SIGNEXTEND SGT ISZERO PUSH2 0x3136 JUMPI PUSH17 0x1306FE0A31B7152DE8D5A46305C85EDEC MUL PUSH1 0x80 SHR JUMPDEST PUSH1 0x0 DUP4 PUSH8 0x2000000000000000 AND PUSH1 0xF SIGNEXTEND SGT ISZERO PUSH2 0x3163 JUMPI PUSH17 0x1172B83C7D517ADCDF7C8C50EB14A791F MUL PUSH1 0x80 SHR JUMPDEST PUSH1 0x0 DUP4 PUSH8 0x1000000000000000 AND PUSH1 0xF SIGNEXTEND SGT ISZERO PUSH2 0x3190 JUMPI PUSH17 0x10B5586CF9890F6298B92B71842A98363 MUL PUSH1 0x80 SHR JUMPDEST PUSH1 0x0 DUP4 PUSH8 0x800000000000000 AND PUSH1 0xF SIGNEXTEND SGT ISZERO PUSH2 0x31BD JUMPI PUSH17 0x1059B0D31585743AE7C548EB68CA417FD MUL PUSH1 0x80 SHR JUMPDEST PUSH1 0x0 DUP4 PUSH8 0x400000000000000 AND PUSH1 0xF SIGNEXTEND SGT ISZERO PUSH2 0x31EA JUMPI PUSH17 0x102C9A3E778060EE6F7CACA4F7A29BDE8 MUL PUSH1 0x80 SHR JUMPDEST PUSH1 0x0 DUP4 PUSH8 0x200000000000000 AND PUSH1 0xF SIGNEXTEND SGT ISZERO PUSH2 0x3217 JUMPI PUSH17 0x10163DA9FB33356D84A66AE336DCDFA3F MUL PUSH1 0x80 SHR JUMPDEST PUSH1 0x0 DUP4 PUSH8 0x100000000000000 AND PUSH1 0xF SIGNEXTEND SGT ISZERO PUSH2 0x3244 JUMPI PUSH17 0x100B1AFA5ABCBED6129AB13EC11DC9543 MUL PUSH1 0x80 SHR JUMPDEST PUSH1 0x0 DUP4 PUSH7 0x80000000000000 AND PUSH1 0xF SIGNEXTEND SGT ISZERO PUSH2 0x3270 JUMPI PUSH17 0x10058C86DA1C09EA1FF19D294CF2F679B MUL PUSH1 0x80 SHR JUMPDEST PUSH1 0x0 DUP4 PUSH7 0x40000000000000 AND PUSH1 0xF SIGNEXTEND SGT ISZERO PUSH2 0x329C JUMPI PUSH17 0x1002C605E2E8CEC506D21BFC89A23A00F MUL PUSH1 0x80 SHR JUMPDEST PUSH1 0x0 DUP4 PUSH7 0x20000000000000 AND PUSH1 0xF SIGNEXTEND SGT ISZERO PUSH2 0x32C8 JUMPI PUSH17 0x100162F3904051FA128BCA9C55C31E5DF MUL PUSH1 0x80 SHR JUMPDEST PUSH1 0x0 DUP4 PUSH7 0x10000000000000 AND PUSH1 0xF SIGNEXTEND SGT ISZERO PUSH2 0x32F4 JUMPI PUSH17 0x1000B175EFFDC76BA38E31671CA939725 MUL PUSH1 0x80 SHR JUMPDEST PUSH1 0x0 DUP4 PUSH7 0x8000000000000 AND PUSH1 0xF SIGNEXTEND SGT ISZERO PUSH2 0x3320 JUMPI PUSH17 0x100058BA01FB9F96D6CACD4B180917C3D MUL PUSH1 0x80 SHR JUMPDEST PUSH1 0x0 DUP4 PUSH7 0x4000000000000 AND PUSH1 0xF SIGNEXTEND SGT ISZERO PUSH2 0x334C JUMPI PUSH17 0x10002C5CC37DA9491D0985C348C68E7B3 MUL PUSH1 0x80 SHR JUMPDEST PUSH1 0x0 DUP4 PUSH7 0x2000000000000 AND PUSH1 0xF SIGNEXTEND SGT ISZERO PUSH2 0x3378 JUMPI PUSH17 0x1000162E525EE054754457D5995292026 MUL PUSH1 0x80 SHR JUMPDEST PUSH1 0x0 DUP4 PUSH7 0x1000000000000 AND PUSH1 0xF SIGNEXTEND SGT ISZERO PUSH2 0x33A4 JUMPI PUSH17 0x10000B17255775C040618BF4A4ADE83FC MUL PUSH1 0x80 SHR JUMPDEST PUSH1 0x0 DUP4 PUSH6 0x800000000000 AND PUSH1 0xF SIGNEXTEND SGT ISZERO PUSH2 0x33CF JUMPI PUSH17 0x1000058B91B5BC9AE2EED81E9B7D4CFAB MUL PUSH1 0x80 SHR JUMPDEST PUSH1 0x0 DUP4 PUSH6 0x400000000000 AND PUSH1 0xF SIGNEXTEND SGT ISZERO PUSH2 0x33FA JUMPI PUSH17 0x100002C5C89D5EC6CA4D7C8ACC017B7C9 MUL PUSH1 0x80 SHR JUMPDEST PUSH1 0x0 DUP4 PUSH6 0x200000000000 AND PUSH1 0xF SIGNEXTEND SGT ISZERO PUSH2 0x3425 JUMPI PUSH17 0x10000162E43F4F831060E02D839A9D16D MUL PUSH1 0x80 SHR JUMPDEST PUSH1 0x0 DUP4 PUSH6 0x100000000000 AND PUSH1 0xF SIGNEXTEND SGT ISZERO PUSH2 0x3450 JUMPI PUSH17 0x100000B1721BCFC99D9F890EA06911763 MUL PUSH1 0x80 SHR JUMPDEST PUSH1 0x0 DUP4 PUSH6 0x80000000000 AND PUSH1 0xF SIGNEXTEND SGT ISZERO PUSH2 0x347B JUMPI PUSH17 0x10000058B90CF1E6D97F9CA14DBCC1628 MUL PUSH1 0x80 SHR JUMPDEST PUSH1 0x0 DUP4 PUSH6 0x40000000000 AND PUSH1 0xF SIGNEXTEND SGT ISZERO PUSH2 0x34A6 JUMPI PUSH17 0x1000002C5C863B73F016468F6BAC5CA2B MUL PUSH1 0x80 SHR JUMPDEST PUSH1 0x0 DUP4 PUSH6 0x20000000000 AND PUSH1 0xF SIGNEXTEND SGT ISZERO PUSH2 0x34D1 JUMPI PUSH17 0x100000162E430E5A18F6119E3C02282A5 MUL PUSH1 0x80 SHR JUMPDEST PUSH1 0x0 DUP4 PUSH1 0x1 PUSH1 0x28 SHL AND PUSH1 0xF SIGNEXTEND SGT ISZERO PUSH2 0x34FA JUMPI PUSH17 0x1000000B1721835514B86E6D96EFD1BFE MUL PUSH1 0x80 SHR JUMPDEST PUSH1 0x0 DUP4 PUSH5 0x8000000000 AND PUSH1 0xF SIGNEXTEND SGT ISZERO PUSH2 0x3524 JUMPI PUSH17 0x100000058B90C0B48C6BE5DF846C5B2EF MUL PUSH1 0x80 SHR JUMPDEST PUSH1 0x0 DUP4 PUSH5 0x4000000000 AND PUSH1 0xF SIGNEXTEND SGT ISZERO PUSH2 0x354E JUMPI PUSH17 0x10000002C5C8601CC6B9E94213C72737A MUL PUSH1 0x80 SHR JUMPDEST PUSH1 0x0 DUP4 PUSH5 0x2000000000 AND PUSH1 0xF SIGNEXTEND SGT ISZERO PUSH2 0x3578 JUMPI PUSH17 0x1000000162E42FFF037DF38AA2B219F06 MUL PUSH1 0x80 SHR JUMPDEST PUSH1 0x0 DUP4 PUSH5 0x1000000000 AND PUSH1 0xF SIGNEXTEND SGT ISZERO PUSH2 0x35A2 JUMPI PUSH17 0x10000000B17217FBA9C739AA5819F44F9 MUL PUSH1 0x80 SHR JUMPDEST PUSH1 0x0 DUP4 PUSH5 0x800000000 AND PUSH1 0xF SIGNEXTEND SGT ISZERO PUSH2 0x35CC JUMPI PUSH17 0x1000000058B90BFCDEE5ACD3C1CEDC823 MUL PUSH1 0x80 SHR JUMPDEST PUSH1 0x0 DUP4 PUSH5 0x400000000 AND PUSH1 0xF SIGNEXTEND SGT ISZERO PUSH2 0x35F6 JUMPI PUSH17 0x100000002C5C85FE31F35A6A30DA1BE50 MUL PUSH1 0x80 SHR JUMPDEST PUSH1 0x0 DUP4 PUSH5 0x200000000 AND PUSH1 0xF SIGNEXTEND SGT ISZERO PUSH2 0x3620 JUMPI PUSH17 0x10000000162E42FF0999CE3541B9FFFCF MUL PUSH1 0x80 SHR JUMPDEST PUSH1 0x0 DUP4 PUSH5 0x100000000 AND PUSH1 0xF SIGNEXTEND SGT ISZERO PUSH2 0x364A JUMPI PUSH17 0x100000000B17217F80F4EF5AADDA45554 MUL PUSH1 0x80 SHR JUMPDEST PUSH1 0x0 DUP4 PUSH4 0x80000000 AND PUSH1 0xF SIGNEXTEND SGT ISZERO PUSH2 0x3673 JUMPI PUSH17 0x10000000058B90BFBF8479BD5A81B51AD MUL PUSH1 0x80 SHR JUMPDEST PUSH1 0x0 DUP4 PUSH4 0x40000000 AND PUSH1 0xF SIGNEXTEND SGT ISZERO PUSH2 0x369C JUMPI PUSH17 0x1000000002C5C85FDF84BD62AE30A74CC MUL PUSH1 0x80 SHR JUMPDEST PUSH1 0x0 DUP4 PUSH4 0x20000000 AND PUSH1 0xF SIGNEXTEND SGT ISZERO PUSH2 0x36C5 JUMPI PUSH17 0x100000000162E42FEFB2FED257559BDAA MUL PUSH1 0x80 SHR JUMPDEST PUSH1 0x0 DUP4 PUSH4 0x10000000 AND PUSH1 0xF SIGNEXTEND SGT ISZERO PUSH2 0x36EE JUMPI PUSH17 0x1000000000B17217F7D5A7716BBA4A9AE MUL PUSH1 0x80 SHR JUMPDEST PUSH1 0x0 DUP4 PUSH4 0x8000000 AND PUSH1 0xF SIGNEXTEND SGT ISZERO PUSH2 0x3717 JUMPI PUSH17 0x100000000058B90BFBE9DDBAC5E109CCE MUL PUSH1 0x80 SHR JUMPDEST PUSH1 0x0 DUP4 PUSH4 0x4000000 AND PUSH1 0xF SIGNEXTEND SGT ISZERO PUSH2 0x3740 JUMPI PUSH17 0x10000000002C5C85FDF4B15DE6F17EB0D MUL PUSH1 0x80 SHR JUMPDEST PUSH1 0x0 DUP4 PUSH4 0x2000000 AND PUSH1 0xF SIGNEXTEND SGT ISZERO PUSH2 0x3769 JUMPI PUSH17 0x1000000000162E42FEFA494F1478FDE05 MUL PUSH1 0x80 SHR JUMPDEST PUSH1 0x0 DUP4 PUSH4 0x1000000 AND PUSH1 0xF SIGNEXTEND SGT ISZERO PUSH2 0x3792 JUMPI PUSH17 0x10000000000B17217F7D20CF927C8E94C MUL PUSH1 0x80 SHR JUMPDEST PUSH1 0x0 DUP4 PUSH3 0x800000 AND PUSH1 0xF SIGNEXTEND SGT ISZERO PUSH2 0x37BA JUMPI PUSH17 0x1000000000058B90BFBE8F71CB4E4B33D MUL PUSH1 0x80 SHR JUMPDEST PUSH1 0x0 DUP4 PUSH3 0x400000 AND PUSH1 0xF SIGNEXTEND SGT ISZERO PUSH2 0x37E2 JUMPI PUSH17 0x100000000002C5C85FDF477B662B26945 MUL PUSH1 0x80 SHR JUMPDEST PUSH1 0x0 DUP4 PUSH3 0x200000 AND PUSH1 0xF SIGNEXTEND SGT ISZERO PUSH2 0x380A JUMPI PUSH17 0x10000000000162E42FEFA3AE53369388C MUL PUSH1 0x80 SHR JUMPDEST PUSH1 0x0 DUP4 PUSH3 0x100000 AND PUSH1 0xF SIGNEXTEND SGT ISZERO PUSH2 0x3832 JUMPI PUSH17 0x100000000000B17217F7D1D351A389D40 MUL PUSH1 0x80 SHR JUMPDEST PUSH1 0x0 DUP4 PUSH3 0x80000 AND PUSH1 0xF SIGNEXTEND SGT ISZERO PUSH2 0x385A JUMPI PUSH17 0x10000000000058B90BFBE8E8B2D3D4EDE MUL PUSH1 0x80 SHR JUMPDEST PUSH1 0x0 DUP4 PUSH3 0x40000 AND PUSH1 0xF SIGNEXTEND SGT ISZERO PUSH2 0x3882 JUMPI PUSH17 0x1000000000002C5C85FDF4741BEA6E77E MUL PUSH1 0x80 SHR JUMPDEST PUSH1 0x0 DUP4 PUSH3 0x20000 AND PUSH1 0xF SIGNEXTEND SGT ISZERO PUSH2 0x38AA JUMPI PUSH17 0x100000000000162E42FEFA39FE95583C2 MUL PUSH1 0x80 SHR JUMPDEST PUSH1 0x0 DUP4 PUSH3 0x10000 AND PUSH1 0xF SIGNEXTEND SGT ISZERO PUSH2 0x38D2 JUMPI PUSH17 0x1000000000000B17217F7D1CFB72B45E1 MUL PUSH1 0x80 SHR JUMPDEST PUSH1 0x0 DUP4 PUSH2 0x8000 AND PUSH1 0xF SIGNEXTEND SGT ISZERO PUSH2 0x38F9 JUMPI PUSH17 0x100000000000058B90BFBE8E7CC35C3F0 MUL PUSH1 0x80 SHR JUMPDEST PUSH1 0x0 DUP4 PUSH2 0x4000 AND PUSH1 0xF SIGNEXTEND SGT ISZERO PUSH2 0x3920 JUMPI PUSH17 0x10000000000002C5C85FDF473E242EA38 MUL PUSH1 0x80 SHR JUMPDEST PUSH1 0x0 DUP4 PUSH2 0x2000 AND PUSH1 0xF SIGNEXTEND SGT ISZERO PUSH2 0x3947 JUMPI PUSH17 0x1000000000000162E42FEFA39F02B772C MUL PUSH1 0x80 SHR JUMPDEST PUSH1 0x0 DUP4 PUSH2 0x1000 AND PUSH1 0xF SIGNEXTEND SGT ISZERO PUSH2 0x396E JUMPI PUSH17 0x10000000000000B17217F7D1CF7D83C1A MUL PUSH1 0x80 SHR JUMPDEST PUSH1 0x0 DUP4 PUSH2 0x800 AND PUSH1 0xF SIGNEXTEND SGT ISZERO PUSH2 0x3995 JUMPI PUSH17 0x1000000000000058B90BFBE8E7BDCBE2E MUL PUSH1 0x80 SHR JUMPDEST PUSH1 0x0 DUP4 PUSH2 0x400 AND PUSH1 0xF SIGNEXTEND SGT ISZERO PUSH2 0x39BC JUMPI PUSH17 0x100000000000002C5C85FDF473DEA871F MUL PUSH1 0x80 SHR JUMPDEST PUSH1 0x0 DUP4 PUSH2 0x200 AND PUSH1 0xF SIGNEXTEND SGT ISZERO PUSH2 0x39E3 JUMPI PUSH17 0x10000000000000162E42FEFA39EF44D91 MUL PUSH1 0x80 SHR JUMPDEST PUSH1 0x0 DUP4 PUSH2 0x100 AND PUSH1 0xF SIGNEXTEND SGT ISZERO PUSH2 0x3A0A JUMPI PUSH17 0x100000000000000B17217F7D1CF79E949 MUL PUSH1 0x80 SHR JUMPDEST PUSH1 0x0 DUP4 PUSH1 0x80 AND PUSH1 0xF SIGNEXTEND SGT ISZERO PUSH2 0x3A30 JUMPI PUSH17 0x10000000000000058B90BFBE8E7BCE544 MUL PUSH1 0x80 SHR JUMPDEST PUSH1 0x0 DUP4 PUSH1 0x40 AND PUSH1 0xF SIGNEXTEND SGT ISZERO PUSH2 0x3A56 JUMPI PUSH17 0x1000000000000002C5C85FDF473DE6ECA MUL PUSH1 0x80 SHR JUMPDEST PUSH1 0x0 DUP4 PUSH1 0x20 AND PUSH1 0xF SIGNEXTEND SGT ISZERO PUSH2 0x3A7C JUMPI PUSH17 0x100000000000000162E42FEFA39EF366F MUL PUSH1 0x80 SHR JUMPDEST PUSH1 0x0 DUP4 PUSH1 0x10 AND PUSH1 0xF SIGNEXTEND SGT ISZERO PUSH2 0x3AA2 JUMPI PUSH17 0x1000000000000000B17217F7D1CF79AFA MUL PUSH1 0x80 SHR JUMPDEST PUSH1 0x0 DUP4 PUSH1 0x8 AND PUSH1 0xF SIGNEXTEND SGT ISZERO PUSH2 0x3AC8 JUMPI PUSH17 0x100000000000000058B90BFBE8E7BCD6D MUL PUSH1 0x80 SHR JUMPDEST PUSH1 0x0 DUP4 PUSH1 0x4 AND PUSH1 0xF SIGNEXTEND SGT ISZERO PUSH2 0x3AEE JUMPI PUSH17 0x10000000000000002C5C85FDF473DE6B2 MUL PUSH1 0x80 SHR JUMPDEST PUSH1 0x0 DUP4 PUSH1 0x2 AND PUSH1 0xF SIGNEXTEND SGT ISZERO PUSH2 0x3B14 JUMPI PUSH17 0x1000000000000000162E42FEFA39EF358 MUL PUSH1 0x80 SHR JUMPDEST PUSH1 0x0 DUP4 PUSH1 0x1 AND PUSH1 0xF SIGNEXTEND SGT ISZERO PUSH2 0x3B3A JUMPI PUSH17 0x10000000000000000B17217F7D1CF79AB MUL PUSH1 0x80 SHR JUMPDEST PUSH1 0xF DUP4 DUP2 SIGNEXTEND PUSH1 0x40 SAR PUSH1 0x3F SUB SWAP1 SIGNEXTEND SHR PUSH1 0x1 PUSH1 0x1 PUSH1 0x7F SHL SUB DUP2 GT ISZERO PUSH2 0x4FE JUMPI PUSH1 0x0 DUP1 REVERT JUMPDEST PUSH1 0x0 PUSH2 0xBCB PUSH2 0x22B2 DUP5 PUSH4 0x3B9ACA00 PUSH2 0x1B6E JUMP JUMPDEST PUSH2 0x3B77 PUSH2 0x43FB JUMP JUMPDEST PUSH1 0x0 PUSH2 0x3B81 PUSH2 0x3EC7 JUMP JUMPDEST PUSH2 0xFFFF DUP5 AND PUSH1 0x0 SWAP1 DUP2 MSTORE PUSH1 0x20 SWAP2 SWAP1 SWAP2 MSTORE PUSH1 0x40 DUP2 KECCAK256 SLOAD SWAP2 POP PUSH2 0xBCB SWAP1 DUP3 PUSH2 0x3ED4 JUMP JUMPDEST PUSH1 0x0 DUP1 DUP4 PUSH1 0x80 ADD MLOAD GT PUSH2 0x3BB4 JUMPI PUSH1 0x0 DUP1 REVERT JUMPDEST PUSH4 0x3B9ACA00 DUP3 GT ISZERO PUSH2 0x3BC5 JUMPI PUSH1 0x0 DUP1 REVERT JUMPDEST DUP3 MLOAD DUP3 GT PUSH2 0x3BEB JUMPI DUP3 MLOAD PUSH1 0x40 DUP5 ADD MLOAD PUSH2 0x3BE4 SWAP2 SWAP1 PUSH2 0x1FFF SWAP1 DUP6 SWAP1 PUSH2 0x1B6E JUMP JUMPDEST SWAP1 POP PUSH2 0x4FE JUMP JUMPDEST DUP3 PUSH1 0x20 ADD MLOAD DUP3 GT PUSH2 0x3C23 JUMPI PUSH1 0x40 DUP4 ADD MLOAD DUP4 MLOAD PUSH1 0x20 DUP6 ADD MLOAD PUSH1 0x60 DUP7 ADD MLOAD PUSH2 0x3BE4 SWAP4 SWAP3 PUSH2 0x27F7 SWAP3 DUP2 SWAP1 SUB SWAP2 PUSH2 0x1FFF SWAP2 DUP9 SUB SWAP1 DUP6 SWAP1 SUB PUSH2 0x1B6E JUMP JUMPDEST PUSH2 0xBCB DUP4 PUSH1 0x60 ADD MLOAD PUSH2 0x27F7 DUP6 PUSH1 0x20 ADD MLOAD PUSH4 0x3B9ACA00 SUB PUSH2 0x1FFF DUP8 PUSH1 0x60 ADD MLOAD DUP9 PUSH1 0x80 ADD MLOAD SUB DUP9 PUSH1 0x20 ADD MLOAD DUP9 SUB PUSH2 0x1B6E SWAP1 SWAP2 SWAP1 PUSH4 0xFFFFFFFF AND JUMP JUMPDEST PUSH1 0x0 DUP1 PUSH2 0x3C7B PUSH1 0x64 PUSH2 0x1FFF DUP8 PUSH1 0xE0 ADD MLOAD DUP8 PUSH2 0x1B6E SWAP1 SWAP2 SWAP1 PUSH4 0xFFFFFFFF AND JUMP JUMPDEST SWAP1 POP DUP5 PUSH1 0xA0 ADD MLOAD DUP2 LT ISZERO PUSH2 0x3C90 JUMPI POP PUSH1 0xA0 DUP5 ADD MLOAD JUMPDEST DUP5 PUSH1 0xC0 ADD MLOAD DUP2 GT ISZERO PUSH2 0x3CA3 JUMPI POP PUSH1 0xC0 DUP5 ADD MLOAD JUMPDEST DUP3 ISZERO PUSH2 0x3CBA JUMPI PUSH2 0x3CB3 DUP5 DUP3 PUSH2 0x2289 JUMP JUMPDEST SWAP2 POP PUSH2 0x187E JUMP JUMPDEST DUP4 DUP2 GT PUSH2 0x3CC9 JUMPI DUP1 DUP5 SUB PUSH2 0xDCD JUMP JUMPDEST POP PUSH1 0x0 SWAP5 SWAP4 POP POP POP POP JUMP JUMPDEST PUSH1 0x0 PUSH2 0xBCB PUSH2 0x3CE3 DUP5 DUP5 PUSH2 0x1B6E JUMP JUMPDEST PUSH4 0x3B9ACA00 PUSH2 0x282E JUMP JUMPDEST PUSH1 0x0 DUP1 PUSH2 0x4FE PUSH1 0x7 PUSH2 0x196E JUMP JUMPDEST PUSH1 0x0 PUSH2 0x3D07 DUP5 DUP5 DUP5 PUSH2 0x1EF1 JUMP JUMPDEST SWAP1 POP PUSH1 0x0 PUSH2 0x3D14 DUP6 PUSH2 0x3FF3 JUMP JUMPDEST SWAP1 POP DUP1 DUP3 GT PUSH2 0x3D27 JUMPI PUSH1 0x0 SWAP2 POP POP PUSH2 0xBCB JUMP JUMPDEST DUP1 DUP3 SUB SWAP2 POP PUSH1 0x0 PUSH2 0x3D37 DUP7 PUSH2 0x4000 JUMP JUMPDEST SWAP1 POP DUP3 DUP2 LT ISZERO PUSH2 0x6E6 JUMPI SWAP6 SWAP5 POP POP POP POP POP JUMP JUMPDEST PUSH1 0x0 PUSH2 0x3D57 DUP5 DUP5 DUP5 PUSH2 0x1EF1 JUMP JUMPDEST SWAP1 POP PUSH2 0x3D6C PUSH2 0x3D65 DUP6 PUSH2 0x400D JUMP JUMPDEST DUP3 SWAP1 PUSH2 0x2289 JUMP JUMPDEST SWAP1 POP PUSH1 0x0 PUSH2 0x3D79 DUP6 PUSH2 0x401A JUMP JUMPDEST SWAP1 POP DUP1 DUP3 LT ISZERO PUSH2 0x187E JUMPI SWAP5 SWAP4 POP POP POP POP JUMP JUMPDEST PUSH1 0x60 ADD MLOAD PUSH3 0x7A120 PUSH1 0x10 SWAP2 SWAP1 SWAP2 SHR PUSH1 0xFF AND MUL PUSH4 0x3B9ACA00 SUB SWAP1 JUMP JUMPDEST PUSH1 0x0 DUP1 PUSH2 0x4FE PUSH1 0x10 PUSH2 0x196E JUMP JUMPDEST PUSH1 0x0 PUSH5 0xFFFFFFFFFF DUP3 GT ISZERO PUSH2 0xDF3 JUMPI PUSH1 0x0 DUP1 REVERT JUMPDEST PUSH1 0x0 PUSH1 0x1 PUSH1 0x1 PUSH1 0x50 SHL SUB DUP3 GT ISZERO PUSH2 0xDF3 JUMPI PUSH1 0x0 DUP1 REVERT JUMPDEST PUSH1 0x0 PUSH1 0x1 PUSH1 0x1 PUSH1 0x58 SHL SUB DUP3 GT ISZERO PUSH2 0xDF3 JUMPI PUSH1 0x0 DUP1 REVERT JUMPDEST PUSH1 0x0 PUSH4 0xFFFFFFFF DUP3 GT ISZERO PUSH2 0xDF3 JUMPI PUSH1 0x0 DUP1 REVERT JUMPDEST PUSH1 0x0 DUP2 SLT ISZERO PUSH2 0x3E14 JUMPI PUSH1 0x0 DUP1 REVERT JUMPDEST PUSH1 0x0 PUSH2 0x3E22 PUSH2 0xFEE DUP5 PUSH2 0x4027 JUMP JUMPDEST SWAP1 POP PUSH2 0x3E2E DUP2 DUP4 PUSH2 0x1CFB JUMP JUMPDEST SWAP1 POP PUSH2 0x14FD PUSH2 0xFEE DUP5 DUP4 PUSH2 0x4080 JUMP JUMPDEST PUSH1 0x0 PUSH2 0x3E47 PUSH2 0x40F4 JUMP JUMPDEST PUSH2 0xFFFF DUP5 AND PUSH1 0x0 SWAP1 DUP2 MSTORE PUSH1 0x20 SWAP2 SWAP1 SWAP2 MSTORE PUSH1 0x40 SWAP1 DUP2 SWAP1 KECCAK256 SLOAD SWAP1 MLOAD PUSH4 0xAD1C095D PUSH1 0xE0 SHL DUP2 MSTORE PUSH1 0x1 PUSH1 0x1 PUSH1 0xA0 SHL SUB SWAP1 SWAP2 AND SWAP2 POP DUP2 SWAP1 PUSH4 0xAD1C095D SWAP1 PUSH2 0x3E8F SWAP1 DUP8 SWAP1 DUP7 SWAP1 PUSH1 0x4 ADD PUSH2 0x4A43 JUMP JUMPDEST PUSH1 0x0 PUSH1 0x40 MLOAD DUP1 DUP4 SUB DUP2 PUSH1 0x0 DUP8 DUP1 EXTCODESIZE ISZERO DUP1 ISZERO PUSH2 0x3EA9 JUMPI PUSH1 0x0 DUP1 REVERT JUMPDEST POP GAS CALL ISZERO DUP1 ISZERO PUSH2 0x3EBD JUMPI RETURNDATASIZE PUSH1 0x0 DUP1 RETURNDATACOPY RETURNDATASIZE PUSH1 0x0 REVERT JUMPDEST POP POP POP POP POP POP POP POP JUMP JUMPDEST PUSH1 0x0 DUP1 PUSH2 0x4FE PUSH1 0x1B PUSH2 0x196E JUMP JUMPDEST PUSH2 0x3EDC PUSH2 0x43FB JUMP JUMPDEST PUSH1 0x64 PUSH4 0x3B9ACA00 DUP4 PUSH1 0xFF DUP7 AND PUSH1 0x20 DUP2 LT PUSH2 0x3EF2 JUMPI INVALID JUMPDEST BYTE MUL DUP2 PUSH2 0x3EFB JUMPI INVALID JUMPDEST DIV DUP2 MSTORE PUSH1 0x64 PUSH4 0x3B9ACA00 DUP4 PUSH1 0xFF DUP7 AND PUSH1 0x1 ADD PUSH1 0x20 DUP2 LT PUSH2 0x3F17 JUMPI INVALID JUMPDEST BYTE MUL DUP2 PUSH2 0x3F20 JUMPI INVALID JUMPDEST DIV DUP2 PUSH1 0x20 ADD DUP2 DUP2 MSTORE POP POP PUSH2 0x3F45 DUP3 PUSH1 0x2 DUP6 PUSH1 0xFF AND ADD PUSH1 0x20 DUP2 LT PUSH2 0x3F3F JUMPI INVALID JUMPDEST BYTE PUSH2 0x4101 JUMP JUMPDEST PUSH1 0x80 DUP3 ADD DUP2 SWAP1 MSTORE PUSH2 0x100 SWAP1 DUP4 PUSH1 0xFF DUP7 AND PUSH1 0x3 ADD PUSH1 0x20 DUP2 LT PUSH2 0x3F62 JUMPI INVALID JUMPDEST BYTE MUL DUP2 PUSH2 0x3F6B JUMPI INVALID JUMPDEST DIV PUSH1 0x40 DUP3 ADD MSTORE PUSH1 0x80 DUP2 ADD MLOAD PUSH2 0x100 SWAP1 DUP4 PUSH1 0xFF DUP7 AND PUSH1 0x4 ADD PUSH1 0x20 DUP2 LT PUSH2 0x3F8C JUMPI INVALID JUMPDEST BYTE MUL DUP2 PUSH2 0x3F95 JUMPI INVALID JUMPDEST DIV PUSH1 0x60 DUP3 ADD MSTORE PUSH3 0x7A120 DUP3 PUSH1 0xFF DUP6 AND PUSH1 0x5 ADD PUSH1 0x20 DUP2 LT PUSH2 0x3FB1 JUMPI INVALID JUMPDEST BYTE MUL PUSH1 0xA0 DUP3 ADD MSTORE PUSH3 0x2625A0 DUP3 PUSH1 0xFF DUP6 AND PUSH1 0x6 ADD PUSH1 0x20 DUP2 LT PUSH2 0x3FCE JUMPI INVALID JUMPDEST BYTE MUL PUSH1 0xC0 DUP3 ADD MSTORE DUP2 PUSH1 0xFF DUP5 AND PUSH1 0x7 ADD PUSH1 0x20 DUP2 LT PUSH2 0x3FE7 JUMPI INVALID JUMPDEST BYTE PUSH1 0xE0 DUP3 ADD MSTORE SWAP3 SWAP2 POP POP JUMP JUMPDEST PUSH1 0x0 PUSH2 0x4FE DUP3 PUSH1 0x20 PUSH2 0x281B JUMP JUMPDEST PUSH1 0x0 PUSH2 0x4FE DUP3 PUSH1 0x48 PUSH2 0x281B JUMP JUMPDEST PUSH1 0x0 PUSH2 0x4FE DUP3 PUSH1 0x28 PUSH2 0x281B JUMP JUMPDEST PUSH1 0x0 PUSH2 0x4FE DUP3 PUSH1 0x30 PUSH2 0x281B JUMP JUMPDEST PUSH1 0x0 DUP1 PUSH2 0x4032 PUSH2 0x4135 JUMP JUMPDEST PUSH1 0x1 PUSH1 0x1 PUSH1 0xA0 SHL SUB DUP6 AND PUSH1 0x0 SWAP1 DUP2 MSTORE PUSH1 0x20 DUP3 DUP2 MSTORE PUSH1 0x40 DUP1 DUP4 KECCAK256 PUSH2 0xFFFF DUP9 AND DUP5 MSTORE SWAP1 SWAP2 MSTORE DUP2 KECCAK256 DUP1 SLOAD PUSH1 0x1 PUSH1 0xA8 SHL SWAP1 DIV PUSH1 0xA SWAP1 DUP2 SIGNEXTEND SWAP1 SIGNEXTEND SWAP5 POP SWAP2 SWAP3 POP DUP4 SLT ISZERO PUSH2 0x4078 JUMPI PUSH1 0x0 DUP1 REVERT JUMPDEST POP POP SWAP3 SWAP2 POP POP JUMP JUMPDEST PUSH1 0x0 DUP2 SLT ISZERO PUSH2 0x408E JUMPI PUSH1 0x0 DUP1 REVERT JUMPDEST PUSH1 0x0 PUSH2 0x4098 PUSH2 0x4135 JUMP JUMPDEST PUSH1 0x1 PUSH1 0x1 PUSH1 0xA0 SHL SUB DUP6 AND PUSH1 0x0 SWAP1 DUP2 MSTORE PUSH1 0x20 DUP3 DUP2 MSTORE PUSH1 0x40 DUP1 DUP4 KECCAK256 PUSH2 0xFFFF DUP9 AND DUP5 MSTORE SWAP1 SWAP2 MSTORE SWAP1 KECCAK256 SWAP1 SWAP2 POP PUSH2 0x40C9 DUP4 PUSH2 0x4142 JUMP JUMPDEST DUP2 SLOAD PUSH1 0xA SWAP2 SWAP1 SWAP2 SIGNEXTEND PUSH1 0x1 PUSH1 0x1 PUSH1 0x58 SHL SUB AND PUSH1 0x1 PUSH1 0xA8 SHL MUL PUSH1 0x1 PUSH1 0x1 PUSH1 0xA8 SHL SUB SWAP1 SWAP2 AND OR SWAP1 SSTORE POP POP POP POP JUMP JUMPDEST PUSH1 0x0 DUP1 PUSH2 0x4FE PUSH1 0x21 PUSH2 0x196E JUMP JUMPDEST PUSH1 0x0 DUP2 PUSH1 0xFF AND PUSH1 0x96 LT PUSH2 0x411C JUMPI PUSH1 0xFF DUP3 AND PUSH3 0x2625A0 MUL PUSH2 0x4FE JUMP JUMPDEST POP PUSH1 0x95 NOT PUSH1 0xFF SWAP2 SWAP1 SWAP2 AND ADD PUSH3 0xE4E1C0 MUL PUSH4 0x165A0BC0 ADD SWAP1 JUMP JUMPDEST PUSH1 0x0 DUP1 PUSH2 0x4FE PUSH1 0x6 PUSH2 0x196E JUMP JUMPDEST PUSH1 0x0 PUSH11 0x7FFFFFFFFFFFFFFFFFFFFF NOT DUP3 SLT DUP1 ISZERO SWAP1 PUSH2 0x416B JUMPI POP PUSH11 0x7FFFFFFFFFFFFFFFFFFFFF DUP3 SGT ISZERO JUMPDEST PUSH2 0xDF3 JUMPI PUSH1 0x0 DUP1 REVERT JUMPDEST PUSH1 0x40 MLOAD DUP1 PUSH1 0x80 ADD PUSH1 0x40 MSTORE DUP1 PUSH1 0x0 DUP2 MSTORE PUSH1 0x20 ADD PUSH1 0x0 DUP2 MSTORE PUSH1 0x20 ADD PUSH1 0x0 DUP2 MSTORE PUSH1 0x20 ADD PUSH1 0x0 ISZERO ISZERO DUP2 MSTORE POP SWAP1 JUMP JUMPDEST PUSH1 0x40 MLOAD DUP1 PUSH1 0x60 ADD PUSH1 0x40 MSTORE DUP1 PUSH1 0x0 DUP2 MSTORE PUSH1 0x20 ADD PUSH1 0x0 DUP2 MSTORE PUSH1 0x20 ADD PUSH1 0x0 DUP2 MSTORE POP SWAP1 JUMP JUMPDEST PUSH1 0x40 MLOAD DUP1 PUSH1 0xC0 ADD PUSH1 0x40 MSTORE DUP1 PUSH1 0x0 DUP2 MSTORE PUSH1 0x20 ADD PUSH1 0x0 DUP2 MSTORE PUSH1 0x20 ADD PUSH1 0x0 DUP2 MSTORE PUSH1 0x20 ADD PUSH1 0x0 PUSH1 0x1 PUSH1 0x1 PUSH1 0xA0 SHL SUB AND DUP2 MSTORE PUSH1 0x20 ADD PUSH1 0x0 DUP2 MSTORE PUSH1 0x20 ADD PUSH1 0x0 DUP2 MSTORE POP SWAP1 JUMP JUMPDEST PUSH1 0x40 MLOAD DUP1 PUSH1 0x80 ADD PUSH1 0x40 MSTORE DUP1 PUSH1 0x0 DUP2 MSTORE PUSH1 0x20 ADD PUSH1 0x0 DUP2 MSTORE PUSH1 0x20 ADD PUSH1 0x0 DUP2 MSTORE PUSH1 0x20 ADD PUSH2 0x4226 PUSH2 0x422B JUMP JUMPDEST SWAP1 MSTORE SWAP1 JUMP JUMPDEST PUSH1 0x40 MLOAD DUP1 PUSH1 0x60 ADD PUSH1 0x40 MSTORE DUP1 PUSH1 0x3 SWAP1 PUSH1 0x20 DUP3 MUL DUP1 CALLDATASIZE DUP4 CALLDATACOPY POP SWAP2 SWAP3 SWAP2 POP POP JUMP JUMPDEST PUSH1 0x40 MLOAD DUP1 PUSH1 0x40 ADD PUSH1 0x40 MSTORE DUP1 PUSH1 0x2 SWAP1 JUMPDEST PUSH2 0x4260 PUSH2 0x419E JUMP JUMPDEST DUP2 MSTORE PUSH1 0x20 ADD SWAP1 PUSH1 0x1 SWAP1 SUB SWAP1 DUP2 PUSH2 0x4258 JUMPI SWAP1 POP POP SWAP1 JUMP JUMPDEST PUSH1 0x40 MLOAD DUP1 PUSH1 0x40 ADD PUSH1 0x40 MSTORE DUP1 PUSH1 0x2 SWAP1 PUSH1 0x20 DUP3 MUL DUP1 CALLDATASIZE DUP4 CALLDATACOPY POP SWAP2 SWAP3 SWAP2 POP POP JUMP JUMPDEST PUSH1 0x40 MLOAD DUP1 PUSH2 0x1E0 ADD PUSH1 0x40 MSTORE DUP1 PUSH1 0x0 PUSH1 0x1 PUSH1 0x1 PUSH1 0xA0 SHL SUB AND DUP2 MSTORE PUSH1 0x20 ADD PUSH1 0x0 PUSH2 0xFFFF AND DUP2 MSTORE PUSH1 0x20 ADD PUSH1 0x0 PUSH2 0xFFFF AND DUP2 MSTORE PUSH1 0x20 ADD PUSH1 0x0 DUP2 MSTORE PUSH1 0x20 ADD PUSH1 0x0 DUP2 MSTORE PUSH1 0x20 ADD PUSH1 0x0 DUP2 MSTORE PUSH1 0x20 ADD PUSH1 0x0 DUP2 MSTORE PUSH1 0x20 ADD PUSH1 0x0 DUP2 MSTORE PUSH1 0x20 ADD PUSH1 0x0 DUP2 MSTORE PUSH1 0x20 ADD PUSH1 0x0 DUP2 MSTORE PUSH1 0x20 ADD PUSH2 0x42FF PUSH2 0x4276 JUMP JUMPDEST DUP2 MSTORE PUSH1 0x20 ADD PUSH2 0x430C PUSH2 0x419E JUMP JUMPDEST DUP2 MSTORE PUSH1 0x20 ADD PUSH1 0x0 DUP2 MSTORE PUSH1 0x20 ADD PUSH2 0x4320 PUSH2 0x4276 JUMP JUMPDEST DUP2 MSTORE PUSH1 0x20 ADD PUSH1 0x0 DUP2 MSTORE POP SWAP1 JUMP JUMPDEST PUSH1 0x40 MLOAD DUP1 PUSH2 0x120 ADD PUSH1 0x40 MSTORE DUP1 PUSH1 0x0 DUP2 MSTORE PUSH1 0x20 ADD PUSH1 0x0 DUP2 MSTORE PUSH1 0x20 ADD PUSH1 0x0 DUP2 MSTORE PUSH1 0x20 ADD PUSH1 0x0 DUP2 MSTORE PUSH1 0x20 ADD PUSH1 0x0 DUP2 MSTORE PUSH1 0x20 ADD PUSH1 0x0 DUP2 MSTORE PUSH1 0x20 ADD PUSH1 0x0 DUP2 MSTORE PUSH1 0x20 ADD PUSH1 0x0 DUP2 MSTORE PUSH1 0x20 ADD PUSH1 0x0 DUP2 MSTORE POP SWAP1 JUMP JUMPDEST PUSH1 0x40 DUP1 MLOAD PUSH1 0x80 DUP2 ADD DUP3 MSTORE PUSH1 0x0 DUP1 DUP3 MSTORE PUSH1 0x20 DUP3 ADD MSTORE SWAP1 DUP2 ADD PUSH2 0x4398 PUSH2 0x419E JUMP JUMPDEST DUP2 MSTORE PUSH1 0x0 PUSH1 0x20 SWAP1 SWAP2 ADD MSTORE SWAP1 JUMP JUMPDEST PUSH1 0x40 DUP1 MLOAD PUSH1 0xA0 DUP2 ADD DUP3 MSTORE PUSH1 0x0 DUP1 DUP3 MSTORE PUSH1 0x20 DUP3 ADD DUP2 SWAP1 MSTORE SWAP2 DUP2 ADD DUP3 SWAP1 MSTORE SWAP1 PUSH1 0x60 DUP3 ADD SWAP1 PUSH2 0x4320 JUMP JUMPDEST PUSH1 0x40 MLOAD DUP1 PUSH1 0xA0 ADD PUSH1 0x40 MSTORE DUP1 PUSH1 0x0 DUP2 MSTORE PUSH1 0x20 ADD PUSH1 0x0 DUP2 MSTORE PUSH1 0x20 ADD PUSH1 0x0 DUP2 MSTORE PUSH1 0x20 ADD PUSH1 0x0 DUP2 MSTORE PUSH1 0x20 ADD PUSH1 0x0 DUP2 MSTORE POP SWAP1 JUMP JUMPDEST PUSH1 0x40 MLOAD DUP1 PUSH2 0x100 ADD PUSH1 0x40 MSTORE DUP1 PUSH1 0x0 DUP2 MSTORE PUSH1 0x20 ADD PUSH1 0x0 DUP2 MSTORE PUSH1 0x20 ADD PUSH1 0x0 DUP2 MSTORE PUSH1 0x20 ADD PUSH1 0x0 DUP2 MSTORE PUSH1 0x20 ADD PUSH1 0x0 DUP2 MSTORE PUSH1 0x20 ADD PUSH1 0x0 DUP2 MSTORE PUSH1 0x20 ADD PUSH1 0x0 DUP2 MSTORE PUSH1 0x20 ADD PUSH1 0x0 DUP2 MSTORE POP SWAP1 JUMP JUMPDEST DUP1 CALLDATALOAD PUSH1 0x1 PUSH1 0x1 PUSH1 0xA0 SHL SUB DUP2 AND DUP2 EQ PUSH2 0xC4A JUMPI PUSH1 0x0 DUP1 REVERT JUMPDEST PUSH1 0x0 DUP3 PUSH1 0x1F DUP4 ADD SLT PUSH2 0x4467 JUMPI DUP1 DUP2 REVERT JUMPDEST PUSH1 0x40 MLOAD PUSH1 0x40 DUP2 ADD DUP2 DUP2 LT PUSH8 0xFFFFFFFFFFFFFFFF DUP3 GT OR ISZERO PUSH2 0x4484 JUMPI INVALID JUMPDEST DUP1 PUSH1 0x40 MSTORE POP DUP1 DUP4 DUP6 PUSH1 0x40 DUP7 ADD GT ISZERO PUSH2 0x449A JUMPI DUP4 DUP5 REVERT JUMPDEST DUP4 JUMPDEST PUSH1 0x2 DUP2 LT ISZERO PUSH2 0x44BB JUMPI DUP2 CALLDATALOAD DUP4 MSTORE PUSH1 0x20 SWAP3 DUP4 ADD SWAP3 SWAP1 SWAP2 ADD SWAP1 PUSH1 0x1 ADD PUSH2 0x449C JUMP JUMPDEST POP SWAP2 SWAP6 SWAP5 POP POP POP POP POP JUMP JUMPDEST PUSH1 0x0 DUP3 PUSH1 0x1F DUP4 ADD SLT PUSH2 0x44D6 JUMPI DUP1 DUP2 REVERT JUMPDEST PUSH1 0x40 MLOAD PUSH1 0x40 DUP2 ADD DUP2 DUP2 LT PUSH8 0xFFFFFFFFFFFFFFFF DUP3 GT OR ISZERO PUSH2 0x44F3 JUMPI INVALID JUMPDEST DUP1 PUSH1 0x40 MSTORE POP DUP1 DUP4 DUP6 PUSH1 0x40 DUP7 ADD GT ISZERO PUSH2 0x4509 JUMPI DUP4 DUP5 REVERT JUMPDEST DUP4 JUMPDEST PUSH1 0x2 DUP2 LT ISZERO PUSH2 0x44BB JUMPI PUSH2 0x451D DUP3 PUSH2 0x46E2 JUMP JUMPDEST DUP4 MSTORE PUSH1 0x20 SWAP3 DUP4 ADD SWAP3 SWAP2 SWAP1 SWAP2 ADD SWAP1 PUSH1 0x1 ADD PUSH2 0x450B JUMP JUMPDEST PUSH1 0x0 PUSH1 0x60 DUP3 DUP5 SUB SLT ISZERO PUSH2 0x4543 JUMPI DUP1 DUP2 REVERT JUMPDEST PUSH1 0x40 MLOAD PUSH1 0x60 DUP2 ADD DUP2 DUP2 LT PUSH8 0xFFFFFFFFFFFFFFFF DUP3 GT OR ISZERO PUSH2 0x4560 JUMPI INVALID JUMPDEST DUP1 PUSH1 0x40 MSTORE POP DUP1 SWAP2 POP DUP3 CALLDATALOAD DUP2 MSTORE PUSH1 0x20 DUP4 ADD CALLDATALOAD PUSH1 0x20 DUP3 ADD MSTORE PUSH1 0x40 DUP4 ADD CALLDATALOAD PUSH1 0x40 DUP3 ADD MSTORE POP SWAP3 SWAP2 POP POP JUMP JUMPDEST PUSH1 0x0 PUSH2 0x260 DUP3 DUP5 SUB SLT ISZERO PUSH2 0x4599 JUMPI DUP1 DUP2 REVERT JUMPDEST PUSH2 0x1E0 PUSH2 0x45A5 DUP2 PUSH2 0x4DB0 JUMP JUMPDEST SWAP2 POP PUSH2 0x45B0 DUP4 PUSH2 0x4440 JUMP JUMPDEST DUP3 MSTORE PUSH2 0x45BE PUSH1 0x20 DUP5 ADD PUSH2 0x46E2 JUMP JUMPDEST PUSH1 0x20 DUP4 ADD MSTORE PUSH2 0x45CF PUSH1 0x40 DUP5 ADD PUSH2 0x46E2 JUMP JUMPDEST PUSH1 0x40 DUP4 ADD MSTORE PUSH1 0x60 DUP4 ADD CALLDATALOAD PUSH1 0x60 DUP4 ADD MSTORE PUSH1 0x80 DUP4 ADD CALLDATALOAD PUSH1 0x80 DUP4 ADD MSTORE PUSH1 0xA0 DUP4 ADD CALLDATALOAD PUSH1 0xA0 DUP4 ADD MSTORE PUSH1 0xC0 DUP4 ADD CALLDATALOAD PUSH1 0xC0 DUP4 ADD MSTORE PUSH1 0xE0 DUP4 ADD CALLDATALOAD PUSH1 0xE0 DUP4 ADD MSTORE PUSH2 0x100 DUP1 DUP5 ADD CALLDATALOAD DUP2 DUP5 ADD MSTORE POP PUSH2 0x120 DUP1 DUP5 ADD CALLDATALOAD DUP2 DUP5 ADD MSTORE POP PUSH2 0x140 PUSH2 0x462D DUP6 DUP3 DUP7 ADD PUSH2 0x44C6 JUMP JUMPDEST SWAP1 DUP4 ADD MSTORE PUSH2 0x180 PUSH2 0x4640 DUP6 DUP6 DUP4 ADD PUSH2 0x4532 JUMP JUMPDEST PUSH2 0x160 DUP5 ADD MSTORE SWAP1 DUP4 ADD CALLDATALOAD SWAP1 DUP3 ADD MSTORE PUSH2 0x465C DUP4 PUSH2 0x200 DUP5 ADD PUSH2 0x4457 JUMP JUMPDEST PUSH2 0x1A0 DUP3 ADD MSTORE PUSH2 0x240 DUP3 ADD CALLDATALOAD PUSH2 0x1C0 DUP3 ADD MSTORE SWAP3 SWAP2 POP POP JUMP JUMPDEST PUSH1 0x0 PUSH1 0x80 DUP3 DUP5 SUB SLT ISZERO PUSH2 0x4685 JUMPI DUP1 DUP2 REVERT JUMPDEST PUSH1 0x40 MLOAD PUSH1 0x80 DUP2 ADD DUP2 DUP2 LT PUSH8 0xFFFFFFFFFFFFFFFF DUP3 GT OR ISZERO PUSH2 0x46A2 JUMPI INVALID JUMPDEST DUP1 PUSH1 0x40 MSTORE POP DUP1 SWAP2 POP DUP3 CALLDATALOAD DUP2 MSTORE PUSH1 0x20 DUP4 ADD CALLDATALOAD PUSH1 0x20 DUP3 ADD MSTORE PUSH1 0x40 DUP4 ADD CALLDATALOAD PUSH1 0x40 DUP3 ADD MSTORE PUSH1 0x60 DUP4 ADD CALLDATALOAD DUP1 ISZERO ISZERO DUP2 EQ PUSH2 0x46D5 JUMPI PUSH1 0x0 DUP1 REVERT JUMPDEST PUSH1 0x60 SWAP2 SWAP1 SWAP2 ADD MSTORE SWAP3 SWAP2 POP POP JUMP JUMPDEST DUP1 CALLDATALOAD PUSH2 0xFFFF DUP2 AND DUP2 EQ PUSH2 0xC4A JUMPI PUSH1 0x0 DUP1 REVERT JUMPDEST DUP1 MLOAD PUSH1 0x1 PUSH1 0x1 PUSH1 0x50 SHL SUB DUP2 AND DUP2 EQ PUSH2 0xC4A JUMPI PUSH1 0x0 DUP1 REVERT JUMPDEST PUSH1 0x0 PUSH1 0x20 DUP3 DUP5 SUB SLT ISZERO PUSH2 0x471C JUMPI DUP1 DUP2 REVERT JUMPDEST PUSH2 0xBCB DUP3 PUSH2 0x4440 JUMP JUMPDEST PUSH1 0x0 DUP1 PUSH1 0x40 DUP4 DUP6 SUB SLT ISZERO PUSH2 0x4737 JUMPI DUP1 DUP2 REVERT JUMPDEST PUSH2 0x4740 DUP4 PUSH2 0x4440 JUMP JUMPDEST SWAP2 POP PUSH2 0x474E PUSH1 0x20 DUP5 ADD PUSH2 0x4440 JUMP JUMPDEST SWAP1 POP SWAP3 POP SWAP3 SWAP1 POP JUMP JUMPDEST PUSH1 0x0 DUP1 PUSH1 0x40 DUP4 DUP6 SUB SLT ISZERO PUSH2 0x4769 JUMPI DUP2 DUP3 REVERT JUMPDEST PUSH2 0x4772 DUP4 PUSH2 0x4440 JUMP JUMPDEST SWAP2 POP PUSH2 0x474E PUSH1 0x20 DUP5 ADD PUSH2 0x46E2 JUMP JUMPDEST PUSH1 0x0 DUP1 PUSH1 0x0 PUSH1 0x60 DUP5 DUP7 SUB SLT ISZERO PUSH2 0x4794 JUMPI DUP1 DUP2 REVERT JUMPDEST PUSH2 0x479D DUP5 PUSH2 0x4440 JUMP JUMPDEST SWAP3 POP PUSH2 0x47AB PUSH1 0x20 DUP6 ADD PUSH2 0x46E2 JUMP JUMPDEST SWAP2 POP PUSH1 0x40 DUP5 ADD CALLDATALOAD SWAP1 POP SWAP3 POP SWAP3 POP SWAP3 JUMP JUMPDEST PUSH1 0x0 DUP1 PUSH1 0x40 DUP4 DUP6 SUB SLT ISZERO PUSH2 0x47CD JUMPI DUP2 DUP3 REVERT JUMPDEST PUSH2 0x47D6 DUP4 PUSH2 0x4440 JUMP JUMPDEST SWAP5 PUSH1 0x20 SWAP4 SWAP1 SWAP4 ADD CALLDATALOAD SWAP4 POP POP POP JUMP JUMPDEST PUSH1 0x0 PUSH1 0x20 DUP3 DUP5 SUB SLT ISZERO PUSH2 0x47F5 JUMPI DUP1 DUP2 REVERT JUMPDEST POP MLOAD SWAP2 SWAP1 POP JUMP JUMPDEST PUSH1 0x0 DUP1 PUSH1 0x0 PUSH1 0x60 DUP5 DUP7 SUB SLT ISZERO PUSH2 0x4810 JUMPI DUP1 DUP2 REVERT JUMPDEST PUSH2 0x4819 DUP5 PUSH2 0x46E2 JUMP JUMPDEST SWAP6 PUSH1 0x20 DUP6 ADD CALLDATALOAD SWAP6 POP PUSH1 0x40 SWAP1 SWAP5 ADD CALLDATALOAD SWAP4 SWAP3 POP POP POP JUMP JUMPDEST PUSH1 0x0 DUP1 PUSH1 0x0 DUP1 PUSH1 0x0 DUP6 DUP8 SUB PUSH2 0x3E0 DUP2 SLT ISZERO PUSH2 0x4847 JUMPI DUP4 DUP5 REVERT JUMPDEST DUP7 CALLDATALOAD SWAP6 POP PUSH1 0xC0 PUSH1 0x1F NOT DUP3 ADD SLT ISZERO PUSH2 0x485C JUMPI DUP4 DUP5 REVERT JUMPDEST POP PUSH1 0x40 MLOAD PUSH1 0xC0 DUP2 ADD DUP2 DUP2 LT PUSH8 0xFFFFFFFFFFFFFFFF DUP3 GT OR ISZERO PUSH2 0x487A JUMPI INVALID JUMPDEST DUP1 PUSH1 0x40 MSTORE POP PUSH1 0x20 DUP8 ADD CALLDATALOAD DUP2 MSTORE PUSH1 0x40 DUP8 ADD CALLDATALOAD PUSH1 0x20 DUP3 ADD MSTORE PUSH1 0x60 DUP8 ADD CALLDATALOAD PUSH1 0x40 DUP3 ADD MSTORE PUSH2 0x48A6 PUSH1 0x80 DUP9 ADD PUSH2 0x4440 JUMP JUMPDEST PUSH1 0x60 DUP3 ADD MSTORE PUSH1 0xA0 DUP8 DUP2 ADD CALLDATALOAD PUSH1 0x80 DUP4 ADD MSTORE PUSH1 0xC0 DUP9 ADD CALLDATALOAD SWAP1 DUP3 ADD MSTORE SWAP4 POP PUSH2 0x48CE DUP8 PUSH1 0xE0 DUP9 ADD PUSH2 0x4587 JUMP JUMPDEST SWAP3 POP PUSH2 0x48DE DUP8 PUSH2 0x340 DUP9 ADD PUSH2 0x4674 JUMP JUMPDEST SWAP5 SWAP8 SWAP4 SWAP7 POP SWAP2 SWAP5 PUSH2 0x3C0 ADD CALLDATALOAD SWAP3 SWAP2 POP POP JUMP JUMPDEST PUSH1 0x0 DUP1 PUSH1 0x40 DUP4 DUP6 SUB SLT ISZERO PUSH2 0x4902 JUMPI DUP2 DUP3 REVERT JUMPDEST POP POP DUP1 MLOAD PUSH1 0x20 SWAP1 SWAP2 ADD MLOAD SWAP1 SWAP3 SWAP1 SWAP2 POP JUMP JUMPDEST PUSH1 0x0 DUP1 PUSH1 0x0 DUP1 PUSH1 0x0 PUSH1 0xA0 DUP7 DUP9 SUB SLT ISZERO PUSH2 0x492A JUMPI DUP3 DUP4 REVERT JUMPDEST PUSH2 0x4933 DUP7 PUSH2 0x46F4 JUMP JUMPDEST SWAP5 POP PUSH1 0x20 DUP7 ADD MLOAD SWAP4 POP PUSH1 0x40 DUP7 ADD MLOAD SWAP3 POP PUSH1 0x60 DUP7 ADD MLOAD SWAP2 POP PUSH2 0x4956 PUSH1 0x80 DUP8 ADD PUSH2 0x46F4 JUMP JUMPDEST SWAP1 POP SWAP3 SWAP6 POP SWAP3 SWAP6 SWAP1 SWAP4 POP JUMP JUMPDEST PUSH1 0x1 PUSH1 0x1 PUSH1 0xA0 SHL SUB AND SWAP1 MSTORE JUMP JUMPDEST DUP1 PUSH1 0x0 JUMPDEST PUSH1 0x2 DUP2 LT ISZERO PUSH2 0x4992 JUMPI DUP2 MLOAD DUP5 MSTORE PUSH1 0x20 SWAP4 DUP5 ADD SWAP4 SWAP1 SWAP2 ADD SWAP1 PUSH1 0x1 ADD PUSH2 0x4973 JUMP JUMPDEST POP POP POP POP JUMP JUMPDEST DUP1 PUSH1 0x0 JUMPDEST PUSH1 0x3 DUP2 LT ISZERO PUSH2 0x4992 JUMPI DUP2 MLOAD DUP5 MSTORE PUSH1 0x20 SWAP4 DUP5 ADD SWAP4 SWAP1 SWAP2 ADD SWAP1 PUSH1 0x1 ADD PUSH2 0x499C JUMP JUMPDEST DUP1 PUSH1 0x0 JUMPDEST PUSH1 0x2 DUP2 LT ISZERO PUSH2 0x4992 JUMPI DUP2 MLOAD PUSH2 0xFFFF AND DUP5 MSTORE PUSH1 0x20 SWAP4 DUP5 ADD SWAP4 SWAP1 SWAP2 ADD SWAP1 PUSH1 0x1 ADD PUSH2 0x49BF JUMP JUMPDEST DUP1 MLOAD DUP3 MSTORE PUSH1 0x20 DUP1 DUP3 ADD MLOAD SWAP1 DUP4 ADD MSTORE PUSH1 0x40 SWAP1 DUP2 ADD MLOAD SWAP2 ADD MSTORE JUMP JUMPDEST DUP1 MLOAD DUP3 MSTORE PUSH1 0x20 DUP1 DUP3 ADD MLOAD SWAP1 DUP4 ADD MSTORE PUSH1 0x40 DUP1 DUP3 ADD MLOAD SWAP1 DUP4 ADD MSTORE PUSH1 0x60 DUP1 DUP3 ADD MLOAD PUSH1 0x1 PUSH1 0x1 PUSH1 0xA0 SHL SUB AND SWAP1 DUP4 ADD MSTORE PUSH1 0x80 DUP1 DUP3 ADD MLOAD SWAP1 DUP4 ADD MSTORE PUSH1 0xA0 SWAP1 DUP2 ADD MLOAD SWAP2 ADD MSTORE JUMP JUMPDEST PUSH2 0xFFFF AND SWAP1 MSTORE JUMP JUMPDEST PUSH1 0x1 PUSH1 0x1 PUSH1 0xA0 SHL SUB SWAP3 SWAP1 SWAP3 AND DUP3 MSTORE PUSH1 0x20 DUP3 ADD MSTORE PUSH1 0x40 ADD SWAP1 JUMP JUMPDEST PUSH1 0x1 PUSH1 0x1 PUSH1 0xA0 SHL SUB SWAP4 SWAP1 SWAP4 AND DUP4 MSTORE PUSH1 0x20 DUP4 ADD SWAP2 SWAP1 SWAP2 MSTORE PUSH1 0x40 DUP3 ADD MSTORE PUSH1 0x60 ADD SWAP1 JUMP JUMPDEST SWAP1 DUP2 MSTORE PUSH1 0x20 ADD SWAP1 JUMP JUMPDEST SWAP2 DUP3 MSTORE PUSH1 0x20 DUP3 ADD MSTORE PUSH1 0x40 ADD SWAP1 JUMP JUMPDEST DUP4 DUP2 MSTORE PUSH1 0x20 DUP2 ADD DUP4 SWAP1 MSTORE PUSH1 0xA0 DUP2 ADD PUSH2 0x8A2 PUSH1 0x40 DUP4 ADD DUP5 PUSH2 0x49E2 JUMP JUMPDEST PUSH1 0x20 DUP1 DUP3 MSTORE PUSH1 0x16 SWAP1 DUP3 ADD MSTORE PUSH22 0x13585C9AD95D081B9BDD081A5B9A5D1A585B1A5E9959 PUSH1 0x52 SHL PUSH1 0x40 DUP3 ADD MSTORE PUSH1 0x60 ADD SWAP1 JUMP JUMPDEST PUSH1 0x20 DUP1 DUP3 MSTORE PUSH1 0xD SWAP1 DUP3 ADD MSTORE PUSH13 0x92DCECC2D8D2C840D2DCC8CAF PUSH1 0x9B SHL PUSH1 0x40 DUP3 ADD MSTORE PUSH1 0x60 ADD SWAP1 JUMP JUMPDEST PUSH1 0x20 DUP1 DUP3 MSTORE PUSH1 0x14 SWAP1 DUP3 ADD MSTORE PUSH20 0x10589BDD994813585E0810DBDB1B185D195C985B PUSH1 0x62 SHL PUSH1 0x40 DUP3 ADD MSTORE PUSH1 0x60 ADD SWAP1 JUMP JUMPDEST PUSH1 0x20 DUP1 DUP3 MSTORE PUSH1 0x17 SWAP1 DUP3 ADD MSTORE PUSH32 0x496E73756666696369656E7420436F6C6C61746572616C000000000000000000 PUSH1 0x40 DUP3 ADD MSTORE PUSH1 0x60 ADD SWAP1 JUMP JUMPDEST PUSH1 0x20 DUP1 DUP3 MSTORE PUSH1 0x17 SWAP1 DUP3 ADD MSTORE PUSH32 0x4D757374204C697175696461746520416C6C2044656274000000000000000000 PUSH1 0x40 DUP3 ADD MSTORE PUSH1 0x60 ADD SWAP1 JUMP JUMPDEST PUSH1 0x20 DUP1 DUP3 MSTORE PUSH1 0x15 SWAP1 DUP3 ADD MSTORE PUSH21 0x14DD59999A58DA595B9D0810DBDB1B185D195C985B PUSH1 0x5A SHL PUSH1 0x40 DUP3 ADD MSTORE PUSH1 0x60 ADD SWAP1 JUMP JUMPDEST PUSH1 0x0 PUSH2 0x180 DUP3 ADD SWAP1 POP DUP5 MLOAD DUP3 MSTORE PUSH1 0x20 DUP1 DUP7 ADD MLOAD DUP2 DUP5 ADD MSTORE PUSH1 0x40 DUP7 ADD MLOAD PUSH1 0x40 DUP5 ADD MSTORE PUSH1 0x60 DUP7 ADD MLOAD PUSH2 0x4C04 PUSH1 0x60 DUP6 ADD DUP3 PUSH2 0x4998 JUMP JUMPDEST POP PUSH2 0x4C12 PUSH1 0xC0 DUP5 ADD DUP7 PUSH2 0x4998 JUMP JUMPDEST PUSH2 0x120 DUP4 ADD DUP5 PUSH1 0x0 JUMPDEST PUSH1 0x3 DUP2 LT ISZERO PUSH2 0x4C38 JUMPI DUP2 MLOAD DUP4 MSTORE SWAP2 DUP4 ADD SWAP2 SWAP1 DUP4 ADD SWAP1 PUSH1 0x1 ADD PUSH2 0x4C1B JUMP JUMPDEST POP POP POP POP SWAP5 SWAP4 POP POP POP POP JUMP JUMPDEST PUSH1 0xC0 DUP2 ADD PUSH2 0x4FE DUP3 DUP5 PUSH2 0x49FB JUMP JUMPDEST PUSH1 0xE0 DUP2 ADD PUSH2 0x4C60 DUP3 DUP6 PUSH2 0x49FB JUMP JUMPDEST DUP3 PUSH1 0xC0 DUP4 ADD MSTORE SWAP4 SWAP3 POP POP POP JUMP JUMPDEST PUSH1 0x0 PUSH2 0x260 DUP3 ADD SWAP1 POP PUSH2 0x4C81 DUP3 DUP5 MLOAD PUSH2 0x4962 JUMP JUMPDEST PUSH1 0x20 DUP4 ADD MLOAD PUSH2 0x4C93 PUSH1 0x20 DUP5 ADD DUP3 PUSH2 0x4A3B JUMP JUMPDEST POP PUSH1 0x40 DUP4 ADD MLOAD PUSH2 0x4CA6 PUSH1 0x40 DUP5 ADD DUP3 PUSH2 0x4A3B JUMP JUMPDEST POP PUSH1 0x60 DUP4 ADD MLOAD PUSH1 0x60 DUP4 ADD MSTORE PUSH1 0x80 DUP4 ADD MLOAD PUSH1 0x80 DUP4 ADD MSTORE PUSH1 0xA0 DUP4 ADD MLOAD PUSH1 0xA0 DUP4 ADD MSTORE PUSH1 0xC0 DUP4 ADD MLOAD PUSH1 0xC0 DUP4 ADD MSTORE PUSH1 0xE0 DUP4 ADD MLOAD PUSH1 0xE0 DUP4 ADD MSTORE PUSH2 0x100 DUP1 DUP5 ADD MLOAD DUP2 DUP5 ADD MSTORE POP PUSH2 0x120 DUP1 DUP5 ADD MLOAD DUP2 DUP5 ADD MSTORE POP PUSH2 0x140 DUP1 DUP5 ADD MLOAD PUSH2 0x4D04 DUP3 DUP6 ADD DUP3 PUSH2 0x49BB JUMP JUMPDEST POP POP PUSH2 0x160 DUP4 ADD MLOAD PUSH2 0x180 PUSH2 0x4D1B DUP2 DUP6 ADD DUP4 PUSH2 0x49E2 JUMP JUMPDEST DUP5 ADD MLOAD PUSH2 0x1E0 DUP5 ADD MSTORE POP PUSH2 0x1A0 DUP4 ADD MLOAD PUSH2 0x4D39 PUSH2 0x200 DUP5 ADD DUP3 PUSH2 0x496F JUMP JUMPDEST POP PUSH2 0x1C0 DUP4 ADD MLOAD PUSH2 0x240 DUP4 ADD MSTORE SWAP3 SWAP2 POP POP JUMP JUMPDEST DUP2 MLOAD DUP2 MSTORE PUSH1 0x20 DUP1 DUP4 ADD MLOAD SWAP1 DUP3 ADD MSTORE PUSH1 0x40 DUP1 DUP4 ADD MLOAD SWAP1 DUP3 ADD MSTORE PUSH1 0x60 SWAP2 DUP3 ADD MLOAD ISZERO ISZERO SWAP2 DUP2 ADD SWAP2 SWAP1 SWAP2 MSTORE PUSH1 0x80 ADD SWAP1 JUMP JUMPDEST DUP4 DUP2 MSTORE PUSH1 0xA0 DUP2 ADD PUSH2 0x4D8D PUSH1 0x20 DUP4 ADD DUP6 PUSH2 0x496F JUMP JUMPDEST PUSH2 0x8A2 PUSH1 0x60 DUP4 ADD DUP5 PUSH2 0x496F JUMP JUMPDEST SWAP3 DUP4 MSTORE PUSH1 0x20 DUP4 ADD SWAP2 SWAP1 SWAP2 MSTORE PUSH1 0x40 DUP3 ADD MSTORE PUSH1 0x60 ADD SWAP1 JUMP JUMPDEST PUSH1 0x40 MLOAD DUP2 DUP2 ADD PUSH8 0xFFFFFFFFFFFFFFFF DUP2 GT DUP3 DUP3 LT OR ISZERO PUSH2 0x4DCC JUMPI INVALID JUMPDEST PUSH1 0x40 MSTORE SWAP2 SWAP1 POP JUMP INVALID LOG2 PUSH5 0x6970667358 0x22 SLT KECCAK256 0xB5 0xB8 CALLCODE PUSH26 0xB9A82F0AA8B0795128FE406957CBE1DE74DE28E562EE4C6D6BBF LT PUSH23 0x64736F6C63430007060033000000000000000000000000 ","sha1":"e1bab8671ce91fb3895c9feb04078bff08bee79d","source":"// SPDX-License-Identifier: BSUL-1.1\npragma solidity =0.7.6;\npragma abicoder v2;\n\nimport {\n    PrimeRate,\n    VaultState,\n    VaultBorrowCapacityStorage,\n    VaultAccountStorage,\n    VaultAccount,\n    VaultConfig,\n    VaultAccountSecondaryDebtShareStorage,\n    VaultStateStorage\n} from \"../../global/Types.sol\";\nimport {Constants} from \"../../global/Constants.sol\";\nimport {LibStorage} from \"../../global/LibStorage.sol\";\nimport {SafeUint256} from \"../../math/SafeUint256.sol\";\nimport {SafeInt256} from \"../../math/SafeInt256.sol\";\n\nimport {Emitter} from \"../../internal/Emitter.sol\";\nimport {VaultConfiguration} from \"../../internal/vaults/VaultConfiguration.sol\";\nimport {VaultAccountLib} from \"../../internal/vaults/VaultAccount.sol\";\nimport {VaultValuation, VaultAccountHealthFactors} from \"../../internal/vaults/VaultValuation.sol\";\nimport {VaultSecondaryBorrow} from \"../../internal/vaults/VaultSecondaryBorrow.sol\";\nimport {VaultStateLib} from \"../../internal/vaults/VaultState.sol\";\nimport {PrimeRateLib} from \"../../internal/pCash/PrimeRateLib.sol\";\nimport {PrimeCashExchangeRate} from \"../../internal/pCash/PrimeCashExchangeRate.sol\";\n\nimport {IVaultAccountHealth} from \"../../../interfaces/notional/IVaultController.sol\";\n\ncontract VaultAccountHealth is IVaultAccountHealth {\n    using PrimeRateLib for PrimeRate;\n    using VaultConfiguration for VaultConfig;\n    using SafeUint256 for uint256;\n    using SafeInt256 for int256;\n\n    /// @notice Checks if a vault account has sufficient collateral to perform an action, reverts if it does not.\n    /// Called at the end of VaultAccountActions after all values have been set in storage\n    function checkVaultAccountCollateralRatio(address vault, address account) external override {\n        require(account != vault);\n        VaultConfig memory vaultConfig = VaultConfiguration.getVaultConfigStateful(vault);\n        VaultAccount memory vaultAccount = VaultAccountLib.getVaultAccount(account, vaultConfig);\n        VaultState memory vaultState = VaultStateLib.getVaultState(vaultConfig, vaultAccount.maturity);\n        // There should never bee any temp cash balance during this check (this is also enforced by\n        // the setVaultAccount method).\n        require(vaultAccount.tempCashBalance == 0);\n        // Require that secondary cash is zero during this method as well\n        VaultAccountLib.checkVaultAccountSecondaryCash(account, vault);\n\n        (int256 collateralRatio, /* */) = VaultValuation.getCollateralRatioFactorsStateful(\n            vaultConfig, vaultState, account, vaultAccount.vaultShares, vaultAccount.accountDebtUnderlying\n        );\n\n        // Enforce a maximum account collateral ratio that must be satisfied for vault entry and vault exit,\n        // to ensure that accounts are not \"free riding\" on vaults by entering without incurring borrowing\n        // costs. We only enforce this if the account has any assets remaining in the vault (so that they\n        // may exit in full at any time.)\n        if (vaultAccount.vaultShares > 0) {\n            require(collateralRatio <= vaultConfig.maxRequiredAccountCollateralRatio, \"Above Max Collateral\");\n        }\n\n        require(vaultConfig.minCollateralRatio <= collateralRatio, \"Insufficient Collateral\");\n    }\n\n    function getVaultAccountHealthFactors(address account, address vault) external view override returns (\n        VaultAccountHealthFactors memory h,\n        int256[3] memory maxLiquidatorDepositUnderlying,\n        uint256[3] memory vaultSharesToLiquidator\n    ) {\n        VaultConfig memory vaultConfig = VaultConfiguration.getVaultConfigView(vault);\n        // NOTE: matured vaults may have a higher collateral ratio than reported here after settlement if\n        // the vault is holding prime cash. If the vault is holding prime cash and the account is settled\n        // manually the vault's debts will be repaid by its prime cash claim. This can only increase its\n        // collateral ratio.\n        VaultAccount memory vaultAccount = VaultAccountLib.getVaultAccount(account, vaultConfig);\n        VaultState memory vaultState = VaultStateLib.getVaultState(vaultConfig, vaultAccount.maturity);\n\n        PrimeRate[2] memory primeRates;\n        if (vaultConfig.hasSecondaryBorrows()) {\n            primeRates = VaultSecondaryBorrow.getSecondaryPrimeRateView(vaultConfig, block.timestamp);\n        }\n\n        VaultSecondaryBorrow.SecondaryExchangeRates memory er;\n        (h, er) = VaultValuation.calculateAccountHealthFactors(vaultConfig, vaultAccount, vaultState, primeRates);\n\n        int256 vaultShares = vaultAccount.vaultShares.toInt();\n        if (h.collateralRatio < vaultConfig.minCollateralRatio) {\n            // depositUnderlyingInternal is set to type(int256).max here, getLiquidationFactors will limit\n            // this to the calculated maxLiquidatorDeposit and calculate vault shares to liquidator accordingly\n            (maxLiquidatorDepositUnderlying[0], vaultSharesToLiquidator[0]) = \n                VaultValuation.getLiquidationFactors(vaultConfig, h, er, 0, vaultShares, type(int256).max);\n\n            if (vaultConfig.hasSecondaryBorrows()) {\n                (maxLiquidatorDepositUnderlying[1], vaultSharesToLiquidator[1]) = \n                    VaultValuation.getLiquidationFactors(vaultConfig, h, er, 1, vaultShares, type(int256).max);\n                (maxLiquidatorDepositUnderlying[2], vaultSharesToLiquidator[2]) = \n                    VaultValuation.getLiquidationFactors(vaultConfig, h, er, 2, vaultShares, type(int256).max);\n            }\n        }\n    }\n\n    /// @notice Returns the fCash required to liquidate a given vault cash balance.\n    function getfCashRequiredToLiquidateCash(\n        uint16 currencyId,\n        uint256 maturity,\n        int256 vaultAccountCashBalance\n    ) external view override returns (int256 fCashRequired, int256 discountFactor) {\n        (PrimeRate memory pr, /* */) = PrimeCashExchangeRate.getPrimeCashRateView(currencyId, block.timestamp);\n        discountFactor = VaultValuation.getLiquidateCashDiscountFactor(pr, currencyId, maturity);\n        fCashRequired = pr.convertToUnderlying(vaultAccountCashBalance).divInRatePrecision(discountFactor);\n    }\n\n    function getVaultAccount(address account, address vault) external override view returns (VaultAccount memory vaultAccount) {\n        VaultConfig memory vaultConfig = VaultConfiguration.getVaultConfigView(vault);\n        vaultAccount = VaultAccountLib.getVaultAccount(account, vaultConfig);\n    }\n\n    function getVaultAccountWithFeeAccrual(address account, address vault) external override view returns (\n        VaultAccount memory vaultAccount,\n        int256 accruedPrimeVaultFeeInUnderlying\n    ) {\n        VaultConfig memory vaultConfig = VaultConfiguration.getVaultConfigView(vault);\n        vaultAccount = VaultAccountLib.getVaultAccount(account, vaultConfig);\n\n        if (vaultAccount.maturity == Constants.PRIME_CASH_VAULT_MATURITY) {\n            // Save this because it is re-written inside the calculate vault fees method\n            uint256 lastUpdateBlockTime = vaultAccount.lastUpdateBlockTime;\n            accruedPrimeVaultFeeInUnderlying = vaultConfig.primeRate.convertToUnderlying(\n                vaultConfig.calculateVaultFees(\n                    vaultAccount,\n                    vaultConfig.primeRate.convertFromUnderlying(vaultAccount.accountDebtUnderlying).neg(),\n                    vaultAccount.maturity,\n                    block.timestamp\n                )\n            );\n\n            // Reset the last update block time and add the accrued vault fee to the total debt (use\n            // subtraction since debts are negative).\n            vaultAccount.lastUpdateBlockTime = lastUpdateBlockTime;\n            vaultAccount.accountDebtUnderlying = vaultAccount.accountDebtUnderlying.sub(\n                accruedPrimeVaultFeeInUnderlying\n            );\n        }\n    }\n\n    function getVaultConfig(\n        address vault\n    ) external view override returns (VaultConfig memory vaultConfig) {\n        vaultConfig = VaultConfiguration.getVaultConfigView(vault);\n    }\n\n    function getVaultState(\n        address vault,\n        uint256 maturity\n    ) external view override returns (VaultState memory vaultState) {\n        VaultConfig memory vaultConfig = VaultConfiguration.getVaultConfigView(vault);\n        vaultState = VaultStateLib.getVaultState(vaultConfig, maturity);\n\n        if (maturity <= block.timestamp) {\n            // Convert settled fCash to how much debt is owed post maturity\n            vaultState.totalDebtUnderlying = vaultConfig.primeRate.convertToUnderlying(\n                vaultConfig.primeRate.convertSettledfCashView(\n                    vaultConfig.borrowCurrencyId,\n                    maturity,\n                    vaultState.totalDebtUnderlying,\n                    block.timestamp\n                )\n            );\n        }\n    }\n\n    function getSecondaryBorrow(\n        address vault,\n        uint16 currencyId,\n        uint256 maturity\n    ) external view override returns (int256 totalDebtUnderlying) {\n        VaultStateStorage storage balance = \n            LibStorage.getVaultSecondaryBorrow()[vault][maturity][currencyId];\n        (PrimeRate memory pr, /* */) = PrimeCashExchangeRate.getPrimeCashRateView(currencyId, block.timestamp);\n        totalDebtUnderlying = -int256(uint256(balance.totalDebt));\n\n        if (maturity == Constants.PRIME_CASH_VAULT_MATURITY) {\n            totalDebtUnderlying = pr.convertDebtStorageToUnderlying(totalDebtUnderlying);\n        } else if (maturity <= block.timestamp) {\n            // Convert settled fCash to how much debt is owed post maturity\n            totalDebtUnderlying = pr.convertToUnderlying(\n                pr.convertSettledfCashView(\n                    currencyId, maturity, totalDebtUnderlying, block.timestamp\n                )\n            );\n        }\n    }\n\n    function getBorrowCapacity(\n        address vault,\n        uint16 currencyId\n    ) external view override returns (\n        uint256 currentPrimeDebtUnderlying,\n        uint256 totalfCashDebt,\n        uint256 maxBorrowCapacity\n    ) {\n        VaultConfig memory vaultConfig = VaultConfiguration.getVaultConfigView(vault);\n        VaultBorrowCapacityStorage storage cap = LibStorage.getVaultBorrowCapacity()[vault][currencyId];\n        totalfCashDebt = cap.totalfCashDebt;\n        maxBorrowCapacity = cap.maxBorrowCapacity;\n\n        PrimeRate memory pr; \n        if (currencyId == vaultConfig.borrowCurrencyId) {\n            pr = vaultConfig.primeRate;\n        } else {\n            (pr, /* */) = PrimeCashExchangeRate.getPrimeCashRateView(currencyId, block.timestamp);\n        }\n        currentPrimeDebtUnderlying = VaultStateLib.getCurrentPrimeDebt(vaultConfig, pr, currencyId).neg().toUint();\n    }\n\n    function getVaultAccountSecondaryDebt(\n        address account,\n        address vault\n    ) external override view returns (\n        uint256 maturity,\n        int256[2] memory accountSecondaryDebt,\n        int256[2] memory accountSecondaryCashHeld\n    ) {\n        VaultConfig memory vaultConfig = VaultConfiguration.getVaultConfigView(vault);\n        PrimeRate[2] memory pr = VaultSecondaryBorrow.getSecondaryPrimeRateView(vaultConfig, block.timestamp);\n        VaultAccount memory vaultAccount = VaultAccountLib.getVaultAccount(account, vaultConfig);\n\n        (\n            maturity,\n            accountSecondaryDebt[0],\n            accountSecondaryDebt[1]\n        ) = VaultSecondaryBorrow.getAccountSecondaryDebt(vaultConfig, account, pr);\n\n        (\n            accountSecondaryCashHeld[0],\n            accountSecondaryCashHeld[1]\n        ) = VaultSecondaryBorrow.getSecondaryCashHeld(vaultAccount.account, vaultConfig.vault);\n    }\n\n    function calculateDepositAmountInDeleverage(\n        uint256 currencyIndex,\n        VaultAccount memory vaultAccount,\n        VaultConfig memory vaultConfig,\n        VaultState memory vaultState,\n        int256 depositUnderlyingInternal\n    ) external override returns (int256, uint256, PrimeRate memory) {\n        // This method is only intended for use during deleverage account\n        require(msg.sender == address(this)); // dev: unauthorized\n\n        // Return the proper prime rate object\n        PrimeRate memory pr = vaultConfig.primeRate;\n        VaultAccountHealthFactors memory h;\n        VaultSecondaryBorrow.SecondaryExchangeRates memory er;\n        {\n            PrimeRate[2] memory primeRates;\n            if (vaultConfig.hasSecondaryBorrows()) {\n                primeRates = VaultSecondaryBorrow.getSecondaryPrimeRateStateful(vaultConfig);\n\n                // Set the proper prime rate object to return if liquidating secondary\n                if (currencyIndex > 0) pr = primeRates[currencyIndex - 1];\n            } else {\n                require(currencyIndex == 0);\n            }\n\n            (h, er) = VaultValuation.calculateAccountHealthFactors(vaultConfig, vaultAccount, vaultState, primeRates);\n            // Require account is eligible for liquidation\n            require(h.collateralRatio < vaultConfig.minCollateralRatio , \"Sufficient Collateral\");\n        }\n        \n        // depositUnderlyingInternal is capped to the max liquidator deposit local inside this method,\n        // vault shares to liquidator is calculated based on the deposit amount returned here.\n        uint256 vaultSharesToLiquidator;\n        (depositUnderlyingInternal, vaultSharesToLiquidator) = VaultValuation.getLiquidationFactors(\n            // vaultShares cannot overflow int256 due to storage size, manual conversion required to\n            // reduce stack size\n            vaultConfig, h, er, currencyIndex, int256(vaultAccount.vaultShares), depositUnderlyingInternal\n        );\n\n        return (depositUnderlyingInternal, vaultSharesToLiquidator, pr);\n    }\n\n    /// @notice Returns the signed value for a given vault ERC1155 id\n    function signedBalanceOfVaultTokenId(address account, uint256 id) external view override returns (int256) {\n        (uint256 assetType, uint16 currencyId, uint256 maturity, address vault) = Emitter.decodeVaultId(id);\n        VaultConfig memory vaultConfig = VaultConfiguration.getVaultConfigView(vault);\n\n        mapping(address => mapping(address => VaultAccountStorage)) storage store = LibStorage.getVaultAccount();\n        VaultAccountStorage storage s = store[account][vaultConfig.vault];\n\n        uint256 storedMaturity = s.maturity;\n        if (maturity != storedMaturity) return 0;\n\n        if (assetType == Constants.VAULT_SHARE_ASSET_TYPE) {\n            // No overflow due to storage size\n            return int256(s.vaultShares);\n        } else if (currencyId == vaultConfig.borrowCurrencyId && assetType == Constants.VAULT_DEBT_ASSET_TYPE) {\n            // Returns a positive number that reflects the stored value, not the underlying valuation\n            return int256(s.accountDebt);\n        } else if (currencyId == vaultConfig.borrowCurrencyId && assetType == Constants.VAULT_CASH_ASSET_TYPE) {\n            return int256(s.primaryCash);\n        }\n\n        if (vaultConfig.hasSecondaryBorrows()) {\n            int256 one;\n            int256 two;\n            if (assetType == Constants.VAULT_DEBT_ASSET_TYPE) {\n                VaultAccountSecondaryDebtShareStorage storage secondary = \n                    LibStorage.getVaultAccountSecondaryDebtShare()[account][vaultConfig.vault];\n                (one, two) = (int256(secondary.accountDebtOne), int256(secondary.accountDebtTwo));\n            } else if (assetType == Constants.VAULT_CASH_ASSET_TYPE) {\n                (one, two) = (int256(s.secondaryCashOne), int256(s.secondaryCashTwo));\n            }\n\n            if (currencyId == vaultConfig.secondaryBorrowCurrencies[0]) return one;\n            if (currencyId == vaultConfig.secondaryBorrowCurrencies[1]) return two;\n        }\n        \n        return 0;\n    }\n\n}","sourcePath":"contracts/external/actions/VaultAccountHealth.sol","type":"contract","deployment":{"address":"0x37c3D118A10AC099127cfddb4058135E279523F3","chainid":"42161","blockHeight":164628046}}