{"abi":[{"inputs":[{"internalType":"address","name":"views_","type":"address"},{"internalType":"address","name":"liquidateCurrency_","type":"address"},{"internalType":"address","name":"liquidatefCash_","type":"address"},{"internalType":"address","name":"calculationViews_","type":"address"},{"internalType":"address","name":"vaultAccountHealth_","type":"address"}],"stateMutability":"nonpayable","type":"constructor","name":"constructor"},{"anonymous":false,"inputs":[{"indexed":false,"internalType":"address","name":"previousAdmin","type":"address"},{"indexed":false,"internalType":"address","name":"newAdmin","type":"address"}],"name":"AdminChanged","type":"event"},{"anonymous":false,"inputs":[{"indexed":true,"internalType":"address","name":"beacon","type":"address"}],"name":"BeaconUpgraded","type":"event"},{"anonymous":false,"inputs":[{"indexed":true,"internalType":"address","name":"previousOwner","type":"address"},{"indexed":true,"internalType":"address","name":"newOwner","type":"address"}],"name":"OwnershipTransferred","type":"event"},{"anonymous":false,"inputs":[{"indexed":true,"internalType":"address","name":"implementation","type":"address"}],"name":"Upgraded","type":"event"},{"stateMutability":"payable","type":"fallback"},{"inputs":[],"name":"CALCULATION_VIEWS","outputs":[{"internalType":"address","name":"","type":"address"}],"stateMutability":"view","type":"function"},{"inputs":[],"name":"LIQUIDATE_CURRENCY","outputs":[{"internalType":"address","name":"","type":"address"}],"stateMutability":"view","type":"function"},{"inputs":[],"name":"LIQUIDATE_FCASH","outputs":[{"internalType":"address","name":"","type":"address"}],"stateMutability":"view","type":"function"},{"inputs":[],"name":"VAULT_ACCOUNT_HEALTH","outputs":[{"internalType":"address","name":"","type":"address"}],"stateMutability":"view","type":"function"},{"inputs":[],"name":"VIEWS","outputs":[{"internalType":"address","name":"","type":"address"}],"stateMutability":"view","type":"function"},{"inputs":[],"name":"claimOwnership","outputs":[],"stateMutability":"nonpayable","type":"function"},{"inputs":[],"name":"getLiquidationEnabledState","outputs":[{"internalType":"bytes1","name":"","type":"bytes1"}],"stateMutability":"view","type":"function"},{"inputs":[{"internalType":"bytes4","name":"sig","type":"bytes4"}],"name":"getRouterImplementation","outputs":[{"internalType":"address","name":"","type":"address"}],"stateMutability":"view","type":"function"},{"inputs":[],"name":"owner","outputs":[{"internalType":"address","name":"","type":"address"}],"stateMutability":"view","type":"function"},{"inputs":[],"name":"pauseGuardian","outputs":[{"internalType":"address","name":"","type":"address"}],"stateMutability":"view","type":"function"},{"inputs":[],"name":"pauseRouter","outputs":[{"internalType":"address","name":"","type":"address"}],"stateMutability":"view","type":"function"},{"inputs":[{"internalType":"bytes1","name":"liquidationEnabledState_","type":"bytes1"}],"name":"setLiquidationEnabledState","outputs":[],"stateMutability":"nonpayable","type":"function"},{"inputs":[{"internalType":"address","name":"newOwner","type":"address"},{"internalType":"bool","name":"direct","type":"bool"}],"name":"transferOwnership","outputs":[],"stateMutability":"nonpayable","type":"function"},{"inputs":[{"internalType":"address","name":"newImplementation","type":"address"}],"name":"upgradeTo","outputs":[],"stateMutability":"nonpayable","type":"function"},{"inputs":[{"internalType":"address","name":"newImplementation","type":"address"},{"internalType":"bytes","name":"data","type":"bytes"}],"name":"upgradeToAndCall","outputs":[],"stateMutability":"payable","type":"function"},{"stateMutability":"payable","type":"receive"}],"bytecode":"6101206040523480156200001257600080fd5b50604051620014793803806200147983398101604081905262000035916200008a565b6001600160601b0319606095861b811660805293851b841660a05291841b831660c052831b821660e05290911b1661010052620000f9565b80516001600160a01b03811681146200008557600080fd5b919050565b600080600080600060a08688031215620000a2578081fd5b620000ad866200006d565b9450620000bd602087016200006d565b9350620000cd604087016200006d565b9250620000dd606087016200006d565b9150620000ed608087016200006d565b90509295509295909350565b60805160601c60a05160601c60c05160601c60e05160601c6101005160601c61130e6200016b6000398061059d52806109c552508061077152806109a15250806103c5528061043452806108075250806102e75280610356528061083a52508061079852806107e3525061130e6000f3fe6080604052600436106100ec5760003560e01c80634f1ef2861161008a5780638246336711610059578063824633671461022e5780638da5cb5b14610243578063b242e53414610258578063f98650b614610278576100f3565b80634f1ef286146101d157806372d27134146101e457806376e1df48146101f957806380aafd3914610219576100f3565b80632be75895116100c65780632be75895146101675780632d5ec1981461017c5780633659cfe61461019c5780634e71e0c8146101bc576100f3565b80630c4e793514610112578063206109b51461013d57806324a3d62214610152576100f3565b366100f357005b61011061010b6000356001600160e01b03191661029a565b6107bd565b005b34801561011e57600080fd5b506101276107e1565b604051610134919061113f565b60405180910390f35b34801561014957600080fd5b50610127610805565b34801561015e57600080fd5b50610127610829565b34801561017357600080fd5b50610127610838565b34801561018857600080fd5b506101106101973660046110ef565b61085c565b3480156101a857600080fd5b506101106101b7366004610ff3565b6108ae565b3480156101c857600080fd5b506101106108d5565b6101106101df366004611047565b610986565b3480156101f057600080fd5b5061012761099f565b34801561020557600080fd5b50610127610214366004611117565b61029a565b34801561022557600080fd5b506101276109c3565b34801561023a57600080fd5b506101276109e7565b34801561024f57600080fd5b506101276109f6565b34801561026457600080fd5b5061011061027336600461100d565b610a0c565b34801561028457600080fd5b5061028d610b04565b6040516101349190611153565b60006001600160e01b03198216639a600eeb60e01b14806102cb57506001600160e01b03198216636633af3960e01b145b80156102df57506102df600160f91b610b13565b1561030b57507f00000000000000000000000000000000000000000000000000000000000000006107b8565b6001600160e01b0319821663e3e7cb4f60e01b148061033a57506001600160e01b03198216632d10e6eb60e01b145b801561034e575061034e600160f81b610b13565b1561037a57507f00000000000000000000000000000000000000000000000000000000000000006107b8565b6001600160e01b03198216631ff7aefd60e21b14806103a957506001600160e01b03198216630fb281d960e01b145b80156103bd57506103bd600160fa1b610b13565b156103e957507f00000000000000000000000000000000000000000000000000000000000000006107b8565b6001600160e01b0319821663e816469d60e01b148061041857506001600160e01b0319821663fa37e39560e01b145b801561042c575061042c600160fb1b610b13565b1561045857507f00000000000000000000000000000000000000000000000000000000000000006107b8565b6001600160e01b0319821663b14428b960e01b148061048757506001600160e01b03198216630c74db1f60e41b145b806104a257506001600160e01b0319821663649c279360e11b145b806104bd57506001600160e01b031982166304a7a34160e41b145b806104d857506001600160e01b0319821663c025d1a560e01b145b806104f357506001600160e01b031982166321d9f6a560e21b145b8061050e57506001600160e01b0319821663de1eb9a360e01b145b8061052957506001600160e01b031982166333a8abbb60e11b145b8061054457506001600160e01b031982166328536d5f60e21b145b8061055f57506001600160e01b03198216635f91ee3160e11b145b8061057a57506001600160e01b0319821663f82f279d60e01b145b8061059557506001600160e01b03198216633157228160e01b145b156105c157507f00000000000000000000000000000000000000000000000000000000000000006107b8565b6001600160e01b03198216636a09a2a360e01b14806105f057506001600160e01b03198216631a05bce160e01b145b8061060b57506001600160e01b03198216633b2987b360e01b145b8061062657506001600160e01b03198216631b5231e560e21b145b8061064157506001600160e01b03198216638355e89560e01b145b8061065c57506001600160e01b0319821663094614df60e01b145b8061067757506001600160e01b03198216634beb6d9760e11b145b8061069257506001600160e01b0319821663c52c43e160e01b145b806106ad57506001600160e01b03198216635953c77b60e01b145b806106c857506001600160e01b03198216631f0750c160e31b145b806106e357506001600160e01b0319821663bac9e8b160e01b145b806106fe57506001600160e01b0319821663aaae47b560e01b145b8061071957506001600160e01b0319821663416a158760e01b145b8061073457506001600160e01b03198216631baefc5d60e21b145b8061074e57506001600160e01b03198216621d692960e71b145b8061076957506001600160e01b0319821663f11ff57360e01b145b1561079557507f00000000000000000000000000000000000000000000000000000000000000006107b8565b507f00000000000000000000000000000000000000000000000000000000000000005b919050565b3660008037600080366000845af43d6000803e8080156107dc573d6000f35b3d6000fd5b7f000000000000000000000000000000000000000000000000000000000000000081565b7f000000000000000000000000000000000000000000000000000000000000000081565b6002546001600160a01b031681565b7f000000000000000000000000000000000000000000000000000000000000000081565b600054600160201b90046001600160a01b031633148061088657506002546001600160a01b031633145b61088f57600080fd5b6000805460f89290921c620100000262ff000019909216919091179055565b6108b781610b36565b6108d281604051806020016040528060008152506000610bc5565b50565b600d546001600160a01b03163381146109095760405162461bcd60e51b8152600401610900906111fa565b60405180910390fd5b600080546040516001600160a01b0380851693600160201b90930416917f8be0079c531659141344cd1fd0a4f28419497f9722a3daafe3b4186f6b6457e091a3600080546001600160a01b03909216600160201b02640100000000600160c01b0319909216919091179055600d80546001600160a01b0319169055565b61098f82610b36565b61099b82826001610bc5565b5050565b7f000000000000000000000000000000000000000000000000000000000000000081565b7f000000000000000000000000000000000000000000000000000000000000000081565b6001546001600160a01b031681565b600054600160201b90046001600160a01b031681565b600054600160201b90046001600160a01b03163314610a3d5760405162461bcd60e51b815260040161090090611197565b8015610ae3576001600160a01b038216610a695760405162461bcd60e51b815260040161090090611168565b600080546040516001600160a01b0380861693600160201b90930416917f8be0079c531659141344cd1fd0a4f28419497f9722a3daafe3b4186f6b6457e091a360008054640100000000600160c01b031916600160201b6001600160a01b03851602179055600d80546001600160a01b031916905561099b565b600d80546001600160a01b0384166001600160a01b03199091161790555050565b60005462010000900460f81b90565b60005462010000900460f81b81166001600160f81b031990811690821614919050565b6003546000906001600160a01b031615801590610b6057506003546001600160a01b038381169116145b600054909150600160201b90046001600160a01b0316331480610b9557506002546001600160a01b031633148015610b955750805b610bb15760405162461bcd60e51b8152600401610900906111cc565b5050600380546001600160a01b0319169055565b6000610bcf610cf8565b9050610bda84610d32565b600083511180610be75750815b15610bf857610bf68484610dc1565b505b6000610c237f4910fdfa16fed3260ed0e7147f7cc6da11a60208b5b9406d12a635614ffd9143610ded565b805490915060ff16610cf157805460ff19166001178155604080516001600160a01b0384166024808301919091528251808303909101815260449091019091526020810180516001600160e01b0316631b2ce7f360e11b179052610c88908690610dc1565b50805460ff19168155610c99610cf8565b6001600160a01b0316826001600160a01b031614610ce85760405162461bcd60e51b815260040180806020018281038252602f815260200180611230602f913960400191505060405180910390fd5b610cf185610df0565b5050505050565b6000610d237f360894a13ba1a3210667c828492db98dca3e2076cc3735a920a3ca505d382bbc610ded565b546001600160a01b0316905090565b610d3b81610e30565b610d765760405162461bcd60e51b815260040180806020018281038252602d81526020018061125f602d913960400191505060405180910390fd5b80610da07f360894a13ba1a3210667c828492db98dca3e2076cc3735a920a3ca505d382bbc610ded565b80546001600160a01b0319166001600160a01b039290921691909117905550565b6060610de6838360405180606001604052806027815260200161128c60279139610e36565b9392505050565b90565b610df981610d32565b6040516001600160a01b038216907fbc7cd75a20ee27fd9adebab32041f755214dbc6bffa90cc0225b39da2e5c2d3b90600090a250565b3b151590565b6060610e4184610e30565b610e7c5760405162461bcd60e51b81526004018080602001828103825260268152602001806112b36026913960400191505060405180910390fd5b600080856001600160a01b0316856040518082805190602001908083835b60208310610eb95780518252601f199092019160209182019101610e9a565b6001836020036101000a038019825116818451168082178552505050505050905001915050600060405180830381855af49150503d8060008114610f19576040519150601f19603f3d011682016040523d82523d6000602084013e610f1e565b606091505b5091509150610f2e828286610f38565b9695505050505050565b60608315610f47575081610de6565b825115610f575782518084602001fd5b8160405162461bcd60e51b81526004018080602001828103825283818151815260200191508051906020019080838360005b83811015610fa1578181015183820152602001610f89565b50505050905090810190601f168015610fce5780820380516001836020036101000a031916815260200191505b509250505060405180910390fd5b80356001600160a01b03811681146107b857600080fd5b600060208284031215611004578081fd5b610de682610fdc565b6000806040838503121561101f578081fd5b61102883610fdc565b91506020830135801515811461103c578182fd5b809150509250929050565b60008060408385031215611059578182fd5b61106283610fdc565b915060208084013567ffffffffffffffff8082111561107f578384fd5b818601915086601f830112611092578384fd5b81358181111561109e57fe5b604051601f8201601f19168101850183811182821017156110bb57fe5b60405281815283820185018910156110d1578586fd5b81858501868301378585838301015280955050505050509250929050565b600060208284031215611100578081fd5b81356001600160f81b031981168114610de6578182fd5b600060208284031215611128578081fd5b81356001600160e01b031981168114610de6578182fd5b6001600160a01b0391909116815260200190565b6001600160f81b031991909116815260200190565b6020808252601590820152744f776e61626c653a207a65726f206164647265737360581b604082015260600190565b6020808252818101527f4f776e61626c653a2063616c6c6572206973206e6f7420746865206f776e6572604082015260600190565b602080825260149082015273556e617574686f72697a6564207570677261646560601b604082015260600190565b6020808252818101527f4f776e61626c653a2063616c6c657220213d2070656e64696e67206f776e657260408201526060019056fe45524331393637557067726164653a207570677261646520627265616b732066757274686572207570677261646573455243313936373a206e657720696d706c656d656e746174696f6e206973206e6f74206120636f6e7472616374416464726573733a206c6f772d6c6576656c2064656c65676174652063616c6c206661696c6564416464726573733a2064656c65676174652063616c6c20746f206e6f6e2d636f6e7472616374a2646970667358221220c29ea25b1c9f3e5ef9ad928cdb632953544602b5af30cd7f1115dcfbd449ed5464736f6c63430007060033","bytecodeSha1":"cd652d55a8bc6b5c96d7fab407413bf98e2b7980","compiler":{"evm_version":"istanbul","optimizer":{"enabled":true,"runs":200},"version":"0.7.6+commit.7338295f"},"contractName":"PauseRouter","language":"Solidity","natspec":{"kind":"dev","methods":{"getLiquidationEnabledState()":{"notice":"Shows the current state of which liquidations are enabled","returns":{"_0":"the current liquidation enable state as a bitmap"}},"setLiquidationEnabledState(bytes1)":{"notice":"Sets a new liquidation enable state, only the owner or the guardian may do so"},"transferOwnership(address,bool)":{"notice":"Transfers ownership to `newOwner`. Either directly or claimable by the new pending owner. Can only be invoked by the current `owner`.","params":{"direct":"True if `newOwner` should be set immediately. False if `newOwner` needs to use `claimOwnership`.","newOwner":"Address of the new owner."}},"upgradeTo(address)":{"details":"Upgrade the implementation of the proxy to `newImplementation`. Calls {_authorizeUpgrade}. Emits an {Upgraded} event."},"upgradeToAndCall(address,bytes)":{"details":"Upgrade the implementation of the proxy to `newImplementation`, and subsequently execute the function call encoded in `data`. Calls {_authorizeUpgrade}. Emits an {Upgraded} event."}},"notice":"Read only version of the Router that can only be upgraded by governance. Used in emergency when the system must be paused for some reason.","version":1},"opcodes":"PUSH1 0x80 PUSH1 0x40 MSTORE PUSH1 0x4 CALLDATASIZE LT PUSH2 0xEC JUMPI PUSH1 0x0 CALLDATALOAD PUSH1 0xE0 SHR DUP1 PUSH4 0x4F1EF286 GT PUSH2 0x8A JUMPI DUP1 PUSH4 0x82463367 GT PUSH2 0x59 JUMPI DUP1 PUSH4 0x82463367 EQ PUSH2 0x22E JUMPI DUP1 PUSH4 0x8DA5CB5B EQ PUSH2 0x243 JUMPI DUP1 PUSH4 0xB242E534 EQ PUSH2 0x258 JUMPI DUP1 PUSH4 0xF98650B6 EQ PUSH2 0x278 JUMPI PUSH2 0xF3 JUMP JUMPDEST DUP1 PUSH4 0x4F1EF286 EQ PUSH2 0x1D1 JUMPI DUP1 PUSH4 0x72D27134 EQ PUSH2 0x1E4 JUMPI DUP1 PUSH4 0x76E1DF48 EQ PUSH2 0x1F9 JUMPI DUP1 PUSH4 0x80AAFD39 EQ PUSH2 0x219 JUMPI PUSH2 0xF3 JUMP JUMPDEST DUP1 PUSH4 0x2BE75895 GT PUSH2 0xC6 JUMPI DUP1 PUSH4 0x2BE75895 EQ PUSH2 0x167 JUMPI DUP1 PUSH4 0x2D5EC198 EQ PUSH2 0x17C JUMPI DUP1 PUSH4 0x3659CFE6 EQ PUSH2 0x19C JUMPI DUP1 PUSH4 0x4E71E0C8 EQ PUSH2 0x1BC JUMPI PUSH2 0xF3 JUMP JUMPDEST DUP1 PUSH4 0xC4E7935 EQ PUSH2 0x112 JUMPI DUP1 PUSH4 0x206109B5 EQ PUSH2 0x13D JUMPI DUP1 PUSH4 0x24A3D622 EQ PUSH2 0x152 JUMPI PUSH2 0xF3 JUMP JUMPDEST CALLDATASIZE PUSH2 0xF3 JUMPI STOP JUMPDEST PUSH2 0x110 PUSH2 0x10B PUSH1 0x0 CALLDATALOAD PUSH1 0x1 PUSH1 0x1 PUSH1 0xE0 SHL SUB NOT AND PUSH2 0x29A JUMP JUMPDEST PUSH2 0x7BD JUMP JUMPDEST STOP JUMPDEST CALLVALUE DUP1 ISZERO PUSH2 0x11E JUMPI PUSH1 0x0 DUP1 REVERT JUMPDEST POP PUSH2 0x127 PUSH2 0x7E1 JUMP JUMPDEST PUSH1 0x40 MLOAD PUSH2 0x134 SWAP2 SWAP1 PUSH2 0x113F JUMP JUMPDEST PUSH1 0x40 MLOAD DUP1 SWAP2 SUB SWAP1 RETURN JUMPDEST CALLVALUE DUP1 ISZERO PUSH2 0x149 JUMPI PUSH1 0x0 DUP1 REVERT JUMPDEST POP PUSH2 0x127 PUSH2 0x805 JUMP JUMPDEST CALLVALUE DUP1 ISZERO PUSH2 0x15E JUMPI PUSH1 0x0 DUP1 REVERT JUMPDEST POP PUSH2 0x127 PUSH2 0x829 JUMP JUMPDEST CALLVALUE DUP1 ISZERO PUSH2 0x173 JUMPI PUSH1 0x0 DUP1 REVERT JUMPDEST POP PUSH2 0x127 PUSH2 0x838 JUMP JUMPDEST CALLVALUE DUP1 ISZERO PUSH2 0x188 JUMPI PUSH1 0x0 DUP1 REVERT JUMPDEST POP PUSH2 0x110 PUSH2 0x197 CALLDATASIZE PUSH1 0x4 PUSH2 0x10EF JUMP JUMPDEST PUSH2 0x85C JUMP JUMPDEST CALLVALUE DUP1 ISZERO PUSH2 0x1A8 JUMPI PUSH1 0x0 DUP1 REVERT JUMPDEST POP PUSH2 0x110 PUSH2 0x1B7 CALLDATASIZE PUSH1 0x4 PUSH2 0xFF3 JUMP JUMPDEST PUSH2 0x8AE JUMP JUMPDEST CALLVALUE DUP1 ISZERO PUSH2 0x1C8 JUMPI PUSH1 0x0 DUP1 REVERT JUMPDEST POP PUSH2 0x110 PUSH2 0x8D5 JUMP JUMPDEST PUSH2 0x110 PUSH2 0x1DF CALLDATASIZE PUSH1 0x4 PUSH2 0x1047 JUMP JUMPDEST PUSH2 0x986 JUMP JUMPDEST CALLVALUE DUP1 ISZERO PUSH2 0x1F0 JUMPI PUSH1 0x0 DUP1 REVERT JUMPDEST POP PUSH2 0x127 PUSH2 0x99F JUMP JUMPDEST CALLVALUE DUP1 ISZERO PUSH2 0x205 JUMPI PUSH1 0x0 DUP1 REVERT JUMPDEST POP PUSH2 0x127 PUSH2 0x214 CALLDATASIZE PUSH1 0x4 PUSH2 0x1117 JUMP JUMPDEST PUSH2 0x29A JUMP JUMPDEST CALLVALUE DUP1 ISZERO PUSH2 0x225 JUMPI PUSH1 0x0 DUP1 REVERT JUMPDEST POP PUSH2 0x127 PUSH2 0x9C3 JUMP JUMPDEST CALLVALUE DUP1 ISZERO PUSH2 0x23A JUMPI PUSH1 0x0 DUP1 REVERT JUMPDEST POP PUSH2 0x127 PUSH2 0x9E7 JUMP JUMPDEST CALLVALUE DUP1 ISZERO PUSH2 0x24F JUMPI PUSH1 0x0 DUP1 REVERT JUMPDEST POP PUSH2 0x127 PUSH2 0x9F6 JUMP JUMPDEST CALLVALUE DUP1 ISZERO PUSH2 0x264 JUMPI PUSH1 0x0 DUP1 REVERT JUMPDEST POP PUSH2 0x110 PUSH2 0x273 CALLDATASIZE PUSH1 0x4 PUSH2 0x100D JUMP JUMPDEST PUSH2 0xA0C JUMP JUMPDEST CALLVALUE DUP1 ISZERO PUSH2 0x284 JUMPI PUSH1 0x0 DUP1 REVERT JUMPDEST POP PUSH2 0x28D PUSH2 0xB04 JUMP JUMPDEST PUSH1 0x40 MLOAD PUSH2 0x134 SWAP2 SWAP1 PUSH2 0x1153 JUMP JUMPDEST PUSH1 0x0 PUSH1 0x1 PUSH1 0x1 PUSH1 0xE0 SHL SUB NOT DUP3 AND PUSH4 0x9A600EEB PUSH1 0xE0 SHL EQ DUP1 PUSH2 0x2CB JUMPI POP PUSH1 0x1 PUSH1 0x1 PUSH1 0xE0 SHL SUB NOT DUP3 AND PUSH4 0x6633AF39 PUSH1 0xE0 SHL EQ JUMPDEST DUP1 ISZERO PUSH2 0x2DF JUMPI POP PUSH2 0x2DF PUSH1 0x1 PUSH1 0xF9 SHL PUSH2 0xB13 JUMP JUMPDEST ISZERO PUSH2 0x30B JUMPI POP PUSH32 0x0 PUSH2 0x7B8 JUMP JUMPDEST PUSH1 0x1 PUSH1 0x1 PUSH1 0xE0 SHL SUB NOT DUP3 AND PUSH4 0xE3E7CB4F PUSH1 0xE0 SHL EQ DUP1 PUSH2 0x33A JUMPI POP PUSH1 0x1 PUSH1 0x1 PUSH1 0xE0 SHL SUB NOT DUP3 AND PUSH4 0x2D10E6EB PUSH1 0xE0 SHL EQ JUMPDEST DUP1 ISZERO PUSH2 0x34E JUMPI POP PUSH2 0x34E PUSH1 0x1 PUSH1 0xF8 SHL PUSH2 0xB13 JUMP JUMPDEST ISZERO PUSH2 0x37A JUMPI POP PUSH32 0x0 PUSH2 0x7B8 JUMP JUMPDEST PUSH1 0x1 PUSH1 0x1 PUSH1 0xE0 SHL SUB NOT DUP3 AND PUSH4 0x1FF7AEFD PUSH1 0xE2 SHL EQ DUP1 PUSH2 0x3A9 JUMPI POP PUSH1 0x1 PUSH1 0x1 PUSH1 0xE0 SHL SUB NOT DUP3 AND PUSH4 0xFB281D9 PUSH1 0xE0 SHL EQ JUMPDEST DUP1 ISZERO PUSH2 0x3BD JUMPI POP PUSH2 0x3BD PUSH1 0x1 PUSH1 0xFA SHL PUSH2 0xB13 JUMP JUMPDEST ISZERO PUSH2 0x3E9 JUMPI POP PUSH32 0x0 PUSH2 0x7B8 JUMP JUMPDEST PUSH1 0x1 PUSH1 0x1 PUSH1 0xE0 SHL SUB NOT DUP3 AND PUSH4 0xE816469D PUSH1 0xE0 SHL EQ DUP1 PUSH2 0x418 JUMPI POP PUSH1 0x1 PUSH1 0x1 PUSH1 0xE0 SHL SUB NOT DUP3 AND PUSH4 0xFA37E395 PUSH1 0xE0 SHL EQ JUMPDEST DUP1 ISZERO PUSH2 0x42C JUMPI POP PUSH2 0x42C PUSH1 0x1 PUSH1 0xFB SHL PUSH2 0xB13 JUMP JUMPDEST ISZERO PUSH2 0x458 JUMPI POP PUSH32 0x0 PUSH2 0x7B8 JUMP JUMPDEST PUSH1 0x1 PUSH1 0x1 PUSH1 0xE0 SHL SUB NOT DUP3 AND PUSH4 0xB14428B9 PUSH1 0xE0 SHL EQ DUP1 PUSH2 0x487 JUMPI POP PUSH1 0x1 PUSH1 0x1 PUSH1 0xE0 SHL SUB NOT DUP3 AND PUSH4 0xC74DB1F PUSH1 0xE4 SHL EQ JUMPDEST DUP1 PUSH2 0x4A2 JUMPI POP PUSH1 0x1 PUSH1 0x1 PUSH1 0xE0 SHL SUB NOT DUP3 AND PUSH4 0x649C2793 PUSH1 0xE1 SHL EQ JUMPDEST DUP1 PUSH2 0x4BD JUMPI POP PUSH1 0x1 PUSH1 0x1 PUSH1 0xE0 SHL SUB NOT DUP3 AND PUSH4 0x4A7A341 PUSH1 0xE4 SHL EQ JUMPDEST DUP1 PUSH2 0x4D8 JUMPI POP PUSH1 0x1 PUSH1 0x1 PUSH1 0xE0 SHL SUB NOT DUP3 AND PUSH4 0xC025D1A5 PUSH1 0xE0 SHL EQ JUMPDEST DUP1 PUSH2 0x4F3 JUMPI POP PUSH1 0x1 PUSH1 0x1 PUSH1 0xE0 SHL SUB NOT DUP3 AND PUSH4 0x21D9F6A5 PUSH1 0xE2 SHL EQ JUMPDEST DUP1 PUSH2 0x50E JUMPI POP PUSH1 0x1 PUSH1 0x1 PUSH1 0xE0 SHL SUB NOT DUP3 AND PUSH4 0xDE1EB9A3 PUSH1 0xE0 SHL EQ JUMPDEST DUP1 PUSH2 0x529 JUMPI POP PUSH1 0x1 PUSH1 0x1 PUSH1 0xE0 SHL SUB NOT DUP3 AND PUSH4 0x33A8ABBB PUSH1 0xE1 SHL EQ JUMPDEST DUP1 PUSH2 0x544 JUMPI POP PUSH1 0x1 PUSH1 0x1 PUSH1 0xE0 SHL SUB NOT DUP3 AND PUSH4 0x28536D5F PUSH1 0xE2 SHL EQ JUMPDEST DUP1 PUSH2 0x55F JUMPI POP PUSH1 0x1 PUSH1 0x1 PUSH1 0xE0 SHL SUB NOT DUP3 AND PUSH4 0x5F91EE31 PUSH1 0xE1 SHL EQ JUMPDEST DUP1 PUSH2 0x57A JUMPI POP PUSH1 0x1 PUSH1 0x1 PUSH1 0xE0 SHL SUB NOT DUP3 AND PUSH4 0xF82F279D PUSH1 0xE0 SHL EQ JUMPDEST DUP1 PUSH2 0x595 JUMPI POP PUSH1 0x1 PUSH1 0x1 PUSH1 0xE0 SHL SUB NOT DUP3 AND PUSH4 0x31572281 PUSH1 0xE0 SHL EQ JUMPDEST ISZERO PUSH2 0x5C1 JUMPI POP PUSH32 0x0 PUSH2 0x7B8 JUMP JUMPDEST PUSH1 0x1 PUSH1 0x1 PUSH1 0xE0 SHL SUB NOT DUP3 AND PUSH4 0x6A09A2A3 PUSH1 0xE0 SHL EQ DUP1 PUSH2 0x5F0 JUMPI POP PUSH1 0x1 PUSH1 0x1 PUSH1 0xE0 SHL SUB NOT DUP3 AND PUSH4 0x1A05BCE1 PUSH1 0xE0 SHL EQ JUMPDEST DUP1 PUSH2 0x60B JUMPI POP PUSH1 0x1 PUSH1 0x1 PUSH1 0xE0 SHL SUB NOT DUP3 AND PUSH4 0x3B2987B3 PUSH1 0xE0 SHL EQ JUMPDEST DUP1 PUSH2 0x626 JUMPI POP PUSH1 0x1 PUSH1 0x1 PUSH1 0xE0 SHL SUB NOT DUP3 AND PUSH4 0x1B5231E5 PUSH1 0xE2 SHL EQ JUMPDEST DUP1 PUSH2 0x641 JUMPI POP PUSH1 0x1 PUSH1 0x1 PUSH1 0xE0 SHL SUB NOT DUP3 AND PUSH4 0x8355E895 PUSH1 0xE0 SHL EQ JUMPDEST DUP1 PUSH2 0x65C JUMPI POP PUSH1 0x1 PUSH1 0x1 PUSH1 0xE0 SHL SUB NOT DUP3 AND PUSH4 0x94614DF PUSH1 0xE0 SHL EQ JUMPDEST DUP1 PUSH2 0x677 JUMPI POP PUSH1 0x1 PUSH1 0x1 PUSH1 0xE0 SHL SUB NOT DUP3 AND PUSH4 0x4BEB6D97 PUSH1 0xE1 SHL EQ JUMPDEST DUP1 PUSH2 0x692 JUMPI POP PUSH1 0x1 PUSH1 0x1 PUSH1 0xE0 SHL SUB NOT DUP3 AND PUSH4 0xC52C43E1 PUSH1 0xE0 SHL EQ JUMPDEST DUP1 PUSH2 0x6AD JUMPI POP PUSH1 0x1 PUSH1 0x1 PUSH1 0xE0 SHL SUB NOT DUP3 AND PUSH4 0x5953C77B PUSH1 0xE0 SHL EQ JUMPDEST DUP1 PUSH2 0x6C8 JUMPI POP PUSH1 0x1 PUSH1 0x1 PUSH1 0xE0 SHL SUB NOT DUP3 AND PUSH4 0x1F0750C1 PUSH1 0xE3 SHL EQ JUMPDEST DUP1 PUSH2 0x6E3 JUMPI POP PUSH1 0x1 PUSH1 0x1 PUSH1 0xE0 SHL SUB NOT DUP3 AND PUSH4 0xBAC9E8B1 PUSH1 0xE0 SHL EQ JUMPDEST DUP1 PUSH2 0x6FE JUMPI POP PUSH1 0x1 PUSH1 0x1 PUSH1 0xE0 SHL SUB NOT DUP3 AND PUSH4 0xAAAE47B5 PUSH1 0xE0 SHL EQ JUMPDEST DUP1 PUSH2 0x719 JUMPI POP PUSH1 0x1 PUSH1 0x1 PUSH1 0xE0 SHL SUB NOT DUP3 AND PUSH4 0x416A1587 PUSH1 0xE0 SHL EQ JUMPDEST DUP1 PUSH2 0x734 JUMPI POP PUSH1 0x1 PUSH1 0x1 PUSH1 0xE0 SHL SUB NOT DUP3 AND PUSH4 0x1BAEFC5D PUSH1 0xE2 SHL EQ JUMPDEST DUP1 PUSH2 0x74E JUMPI POP PUSH1 0x1 PUSH1 0x1 PUSH1 0xE0 SHL SUB NOT DUP3 AND PUSH3 0x1D6929 PUSH1 0xE7 SHL EQ JUMPDEST DUP1 PUSH2 0x769 JUMPI POP PUSH1 0x1 PUSH1 0x1 PUSH1 0xE0 SHL SUB NOT DUP3 AND PUSH4 0xF11FF573 PUSH1 0xE0 SHL EQ JUMPDEST ISZERO PUSH2 0x795 JUMPI POP PUSH32 0x0 PUSH2 0x7B8 JUMP JUMPDEST POP PUSH32 0x0 JUMPDEST SWAP2 SWAP1 POP JUMP JUMPDEST CALLDATASIZE PUSH1 0x0 DUP1 CALLDATACOPY PUSH1 0x0 DUP1 CALLDATASIZE PUSH1 0x0 DUP5 GAS DELEGATECALL RETURNDATASIZE PUSH1 0x0 DUP1 RETURNDATACOPY DUP1 DUP1 ISZERO PUSH2 0x7DC JUMPI RETURNDATASIZE PUSH1 0x0 RETURN JUMPDEST RETURNDATASIZE PUSH1 0x0 REVERT JUMPDEST PUSH32 0x0 DUP2 JUMP JUMPDEST PUSH32 0x0 DUP2 JUMP JUMPDEST PUSH1 0x2 SLOAD PUSH1 0x1 PUSH1 0x1 PUSH1 0xA0 SHL SUB AND DUP2 JUMP JUMPDEST PUSH32 0x0 DUP2 JUMP JUMPDEST PUSH1 0x0 SLOAD PUSH1 0x1 PUSH1 0x20 SHL SWAP1 DIV PUSH1 0x1 PUSH1 0x1 PUSH1 0xA0 SHL SUB AND CALLER EQ DUP1 PUSH2 0x886 JUMPI POP PUSH1 0x2 SLOAD PUSH1 0x1 PUSH1 0x1 PUSH1 0xA0 SHL SUB AND CALLER EQ JUMPDEST PUSH2 0x88F JUMPI PUSH1 0x0 DUP1 REVERT JUMPDEST PUSH1 0x0 DUP1 SLOAD PUSH1 0xF8 SWAP3 SWAP1 SWAP3 SHR PUSH3 0x10000 MUL PUSH3 0xFF0000 NOT SWAP1 SWAP3 AND SWAP2 SWAP1 SWAP2 OR SWAP1 SSTORE JUMP JUMPDEST PUSH2 0x8B7 DUP2 PUSH2 0xB36 JUMP JUMPDEST PUSH2 0x8D2 DUP2 PUSH1 0x40 MLOAD DUP1 PUSH1 0x20 ADD PUSH1 0x40 MSTORE DUP1 PUSH1 0x0 DUP2 MSTORE POP PUSH1 0x0 PUSH2 0xBC5 JUMP JUMPDEST POP JUMP JUMPDEST PUSH1 0xD SLOAD PUSH1 0x1 PUSH1 0x1 PUSH1 0xA0 SHL SUB AND CALLER DUP2 EQ PUSH2 0x909 JUMPI PUSH1 0x40 MLOAD PUSH3 0x461BCD PUSH1 0xE5 SHL DUP2 MSTORE PUSH1 0x4 ADD PUSH2 0x900 SWAP1 PUSH2 0x11FA JUMP JUMPDEST PUSH1 0x40 MLOAD DUP1 SWAP2 SUB SWAP1 REVERT JUMPDEST PUSH1 0x0 DUP1 SLOAD PUSH1 0x40 MLOAD PUSH1 0x1 PUSH1 0x1 PUSH1 0xA0 SHL SUB DUP1 DUP6 AND SWAP4 PUSH1 0x1 PUSH1 0x20 SHL SWAP1 SWAP4 DIV AND SWAP2 PUSH32 0x8BE0079C531659141344CD1FD0A4F28419497F9722A3DAAFE3B4186F6B6457E0 SWAP2 LOG3 PUSH1 0x0 DUP1 SLOAD PUSH1 0x1 PUSH1 0x1 PUSH1 0xA0 SHL SUB SWAP1 SWAP3 AND PUSH1 0x1 PUSH1 0x20 SHL MUL PUSH5 0x100000000 PUSH1 0x1 PUSH1 0xC0 SHL SUB NOT SWAP1 SWAP3 AND SWAP2 SWAP1 SWAP2 OR SWAP1 SSTORE PUSH1 0xD DUP1 SLOAD PUSH1 0x1 PUSH1 0x1 PUSH1 0xA0 SHL SUB NOT AND SWAP1 SSTORE JUMP JUMPDEST PUSH2 0x98F DUP3 PUSH2 0xB36 JUMP JUMPDEST PUSH2 0x99B DUP3 DUP3 PUSH1 0x1 PUSH2 0xBC5 JUMP JUMPDEST POP POP JUMP JUMPDEST PUSH32 0x0 DUP2 JUMP JUMPDEST PUSH32 0x0 DUP2 JUMP JUMPDEST PUSH1 0x1 SLOAD PUSH1 0x1 PUSH1 0x1 PUSH1 0xA0 SHL SUB AND DUP2 JUMP JUMPDEST PUSH1 0x0 SLOAD PUSH1 0x1 PUSH1 0x20 SHL SWAP1 DIV PUSH1 0x1 PUSH1 0x1 PUSH1 0xA0 SHL SUB AND DUP2 JUMP JUMPDEST PUSH1 0x0 SLOAD PUSH1 0x1 PUSH1 0x20 SHL SWAP1 DIV PUSH1 0x1 PUSH1 0x1 PUSH1 0xA0 SHL SUB AND CALLER EQ PUSH2 0xA3D JUMPI PUSH1 0x40 MLOAD PUSH3 0x461BCD PUSH1 0xE5 SHL DUP2 MSTORE PUSH1 0x4 ADD PUSH2 0x900 SWAP1 PUSH2 0x1197 JUMP JUMPDEST DUP1 ISZERO PUSH2 0xAE3 JUMPI PUSH1 0x1 PUSH1 0x1 PUSH1 0xA0 SHL SUB DUP3 AND PUSH2 0xA69 JUMPI PUSH1 0x40 MLOAD PUSH3 0x461BCD PUSH1 0xE5 SHL DUP2 MSTORE PUSH1 0x4 ADD PUSH2 0x900 SWAP1 PUSH2 0x1168 JUMP JUMPDEST PUSH1 0x0 DUP1 SLOAD PUSH1 0x40 MLOAD PUSH1 0x1 PUSH1 0x1 PUSH1 0xA0 SHL SUB DUP1 DUP7 AND SWAP4 PUSH1 0x1 PUSH1 0x20 SHL SWAP1 SWAP4 DIV AND SWAP2 PUSH32 0x8BE0079C531659141344CD1FD0A4F28419497F9722A3DAAFE3B4186F6B6457E0 SWAP2 LOG3 PUSH1 0x0 DUP1 SLOAD PUSH5 0x100000000 PUSH1 0x1 PUSH1 0xC0 SHL SUB NOT AND PUSH1 0x1 PUSH1 0x20 SHL PUSH1 0x1 PUSH1 0x1 PUSH1 0xA0 SHL SUB DUP6 AND MUL OR SWAP1 SSTORE PUSH1 0xD DUP1 SLOAD PUSH1 0x1 PUSH1 0x1 PUSH1 0xA0 SHL SUB NOT AND SWAP1 SSTORE PUSH2 0x99B JUMP JUMPDEST PUSH1 0xD DUP1 SLOAD PUSH1 0x1 PUSH1 0x1 PUSH1 0xA0 SHL SUB DUP5 AND PUSH1 0x1 PUSH1 0x1 PUSH1 0xA0 SHL SUB NOT SWAP1 SWAP2 AND OR SWAP1 SSTORE POP POP JUMP JUMPDEST PUSH1 0x0 SLOAD PUSH3 0x10000 SWAP1 DIV PUSH1 0xF8 SHL SWAP1 JUMP JUMPDEST PUSH1 0x0 SLOAD PUSH3 0x10000 SWAP1 DIV PUSH1 0xF8 SHL DUP2 AND PUSH1 0x1 PUSH1 0x1 PUSH1 0xF8 SHL SUB NOT SWAP1 DUP2 AND SWAP1 DUP3 AND EQ SWAP2 SWAP1 POP JUMP JUMPDEST PUSH1 0x3 SLOAD PUSH1 0x0 SWAP1 PUSH1 0x1 PUSH1 0x1 PUSH1 0xA0 SHL SUB AND ISZERO DUP1 ISZERO SWAP1 PUSH2 0xB60 JUMPI POP PUSH1 0x3 SLOAD PUSH1 0x1 PUSH1 0x1 PUSH1 0xA0 SHL SUB DUP4 DUP2 AND SWAP2 AND EQ JUMPDEST PUSH1 0x0 SLOAD SWAP1 SWAP2 POP PUSH1 0x1 PUSH1 0x20 SHL SWAP1 DIV PUSH1 0x1 PUSH1 0x1 PUSH1 0xA0 SHL SUB AND CALLER EQ DUP1 PUSH2 0xB95 JUMPI POP PUSH1 0x2 SLOAD PUSH1 0x1 PUSH1 0x1 PUSH1 0xA0 SHL SUB AND CALLER EQ DUP1 ISZERO PUSH2 0xB95 JUMPI POP DUP1 JUMPDEST PUSH2 0xBB1 JUMPI PUSH1 0x40 MLOAD PUSH3 0x461BCD PUSH1 0xE5 SHL DUP2 MSTORE PUSH1 0x4 ADD PUSH2 0x900 SWAP1 PUSH2 0x11CC JUMP JUMPDEST POP POP PUSH1 0x3 DUP1 SLOAD PUSH1 0x1 PUSH1 0x1 PUSH1 0xA0 SHL SUB NOT AND SWAP1 SSTORE JUMP JUMPDEST PUSH1 0x0 PUSH2 0xBCF PUSH2 0xCF8 JUMP JUMPDEST SWAP1 POP PUSH2 0xBDA DUP5 PUSH2 0xD32 JUMP JUMPDEST PUSH1 0x0 DUP4 MLOAD GT DUP1 PUSH2 0xBE7 JUMPI POP DUP2 JUMPDEST ISZERO PUSH2 0xBF8 JUMPI PUSH2 0xBF6 DUP5 DUP5 PUSH2 0xDC1 JUMP JUMPDEST POP JUMPDEST PUSH1 0x0 PUSH2 0xC23 PUSH32 0x4910FDFA16FED3260ED0E7147F7CC6DA11A60208B5B9406D12A635614FFD9143 PUSH2 0xDED JUMP JUMPDEST DUP1 SLOAD SWAP1 SWAP2 POP PUSH1 0xFF AND PUSH2 0xCF1 JUMPI DUP1 SLOAD PUSH1 0xFF NOT AND PUSH1 0x1 OR DUP2 SSTORE PUSH1 0x40 DUP1 MLOAD PUSH1 0x1 PUSH1 0x1 PUSH1 0xA0 SHL SUB DUP5 AND PUSH1 0x24 DUP1 DUP4 ADD SWAP2 SWAP1 SWAP2 MSTORE DUP3 MLOAD DUP1 DUP4 SUB SWAP1 SWAP2 ADD DUP2 MSTORE PUSH1 0x44 SWAP1 SWAP2 ADD SWAP1 SWAP2 MSTORE PUSH1 0x20 DUP2 ADD DUP1 MLOAD PUSH1 0x1 PUSH1 0x1 PUSH1 0xE0 SHL SUB AND PUSH4 0x1B2CE7F3 PUSH1 0xE1 SHL OR SWAP1 MSTORE PUSH2 0xC88 SWAP1 DUP7 SWAP1 PUSH2 0xDC1 JUMP JUMPDEST POP DUP1 SLOAD PUSH1 0xFF NOT AND DUP2 SSTORE PUSH2 0xC99 PUSH2 0xCF8 JUMP JUMPDEST PUSH1 0x1 PUSH1 0x1 PUSH1 0xA0 SHL SUB AND DUP3 PUSH1 0x1 PUSH1 0x1 PUSH1 0xA0 SHL SUB AND EQ PUSH2 0xCE8 JUMPI PUSH1 0x40 MLOAD PUSH3 0x461BCD PUSH1 0xE5 SHL DUP2 MSTORE PUSH1 0x4 ADD DUP1 DUP1 PUSH1 0x20 ADD DUP3 DUP2 SUB DUP3 MSTORE PUSH1 0x2F DUP2 MSTORE PUSH1 0x20 ADD DUP1 PUSH2 0x1230 PUSH1 0x2F SWAP2 CODECOPY PUSH1 0x40 ADD SWAP2 POP POP PUSH1 0x40 MLOAD DUP1 SWAP2 SUB SWAP1 REVERT JUMPDEST PUSH2 0xCF1 DUP6 PUSH2 0xDF0 JUMP JUMPDEST POP POP POP POP POP JUMP JUMPDEST PUSH1 0x0 PUSH2 0xD23 PUSH32 0x360894A13BA1A3210667C828492DB98DCA3E2076CC3735A920A3CA505D382BBC PUSH2 0xDED JUMP JUMPDEST SLOAD PUSH1 0x1 PUSH1 0x1 PUSH1 0xA0 SHL SUB AND SWAP1 POP SWAP1 JUMP JUMPDEST PUSH2 0xD3B DUP2 PUSH2 0xE30 JUMP JUMPDEST PUSH2 0xD76 JUMPI PUSH1 0x40 MLOAD PUSH3 0x461BCD PUSH1 0xE5 SHL DUP2 MSTORE PUSH1 0x4 ADD DUP1 DUP1 PUSH1 0x20 ADD DUP3 DUP2 SUB DUP3 MSTORE PUSH1 0x2D DUP2 MSTORE PUSH1 0x20 ADD DUP1 PUSH2 0x125F PUSH1 0x2D SWAP2 CODECOPY PUSH1 0x40 ADD SWAP2 POP POP PUSH1 0x40 MLOAD DUP1 SWAP2 SUB SWAP1 REVERT JUMPDEST DUP1 PUSH2 0xDA0 PUSH32 0x360894A13BA1A3210667C828492DB98DCA3E2076CC3735A920A3CA505D382BBC PUSH2 0xDED JUMP JUMPDEST DUP1 SLOAD PUSH1 0x1 PUSH1 0x1 PUSH1 0xA0 SHL SUB NOT AND PUSH1 0x1 PUSH1 0x1 PUSH1 0xA0 SHL SUB SWAP3 SWAP1 SWAP3 AND SWAP2 SWAP1 SWAP2 OR SWAP1 SSTORE POP JUMP JUMPDEST PUSH1 0x60 PUSH2 0xDE6 DUP4 DUP4 PUSH1 0x40 MLOAD DUP1 PUSH1 0x60 ADD PUSH1 0x40 MSTORE DUP1 PUSH1 0x27 DUP2 MSTORE PUSH1 0x20 ADD PUSH2 0x128C PUSH1 0x27 SWAP2 CODECOPY PUSH2 0xE36 JUMP JUMPDEST SWAP4 SWAP3 POP POP POP JUMP JUMPDEST SWAP1 JUMP JUMPDEST PUSH2 0xDF9 DUP2 PUSH2 0xD32 JUMP JUMPDEST PUSH1 0x40 MLOAD PUSH1 0x1 PUSH1 0x1 PUSH1 0xA0 SHL SUB DUP3 AND SWAP1 PUSH32 0xBC7CD75A20EE27FD9ADEBAB32041F755214DBC6BFFA90CC0225B39DA2E5C2D3B SWAP1 PUSH1 0x0 SWAP1 LOG2 POP JUMP JUMPDEST EXTCODESIZE ISZERO ISZERO SWAP1 JUMP JUMPDEST PUSH1 0x60 PUSH2 0xE41 DUP5 PUSH2 0xE30 JUMP JUMPDEST PUSH2 0xE7C JUMPI PUSH1 0x40 MLOAD PUSH3 0x461BCD PUSH1 0xE5 SHL DUP2 MSTORE PUSH1 0x4 ADD DUP1 DUP1 PUSH1 0x20 ADD DUP3 DUP2 SUB DUP3 MSTORE PUSH1 0x26 DUP2 MSTORE PUSH1 0x20 ADD DUP1 PUSH2 0x12B3 PUSH1 0x26 SWAP2 CODECOPY PUSH1 0x40 ADD SWAP2 POP POP PUSH1 0x40 MLOAD DUP1 SWAP2 SUB SWAP1 REVERT JUMPDEST PUSH1 0x0 DUP1 DUP6 PUSH1 0x1 PUSH1 0x1 PUSH1 0xA0 SHL SUB AND DUP6 PUSH1 0x40 MLOAD DUP1 DUP3 DUP1 MLOAD SWAP1 PUSH1 0x20 ADD SWAP1 DUP1 DUP4 DUP4 JUMPDEST PUSH1 0x20 DUP4 LT PUSH2 0xEB9 JUMPI DUP1 MLOAD DUP3 MSTORE PUSH1 0x1F NOT SWAP1 SWAP3 ADD SWAP2 PUSH1 0x20 SWAP2 DUP3 ADD SWAP2 ADD PUSH2 0xE9A JUMP JUMPDEST PUSH1 0x1 DUP4 PUSH1 0x20 SUB PUSH2 0x100 EXP SUB DUP1 NOT DUP3 MLOAD AND DUP2 DUP5 MLOAD AND DUP1 DUP3 OR DUP6 MSTORE POP POP POP POP POP POP SWAP1 POP ADD SWAP2 POP POP PUSH1 0x0 PUSH1 0x40 MLOAD DUP1 DUP4 SUB DUP2 DUP6 GAS DELEGATECALL SWAP2 POP POP RETURNDATASIZE DUP1 PUSH1 0x0 DUP2 EQ PUSH2 0xF19 JUMPI PUSH1 0x40 MLOAD SWAP2 POP PUSH1 0x1F NOT PUSH1 0x3F RETURNDATASIZE ADD AND DUP3 ADD PUSH1 0x40 MSTORE RETURNDATASIZE DUP3 MSTORE RETURNDATASIZE PUSH1 0x0 PUSH1 0x20 DUP5 ADD RETURNDATACOPY PUSH2 0xF1E JUMP JUMPDEST PUSH1 0x60 SWAP2 POP JUMPDEST POP SWAP2 POP SWAP2 POP PUSH2 0xF2E DUP3 DUP3 DUP7 PUSH2 0xF38 JUMP JUMPDEST SWAP7 SWAP6 POP POP POP POP POP POP JUMP JUMPDEST PUSH1 0x60 DUP4 ISZERO PUSH2 0xF47 JUMPI POP DUP2 PUSH2 0xDE6 JUMP JUMPDEST DUP3 MLOAD ISZERO PUSH2 0xF57 JUMPI DUP3 MLOAD DUP1 DUP5 PUSH1 0x20 ADD REVERT JUMPDEST DUP2 PUSH1 0x40 MLOAD PUSH3 0x461BCD PUSH1 0xE5 SHL DUP2 MSTORE PUSH1 0x4 ADD DUP1 DUP1 PUSH1 0x20 ADD DUP3 DUP2 SUB DUP3 MSTORE DUP4 DUP2 DUP2 MLOAD DUP2 MSTORE PUSH1 0x20 ADD SWAP2 POP DUP1 MLOAD SWAP1 PUSH1 0x20 ADD SWAP1 DUP1 DUP4 DUP4 PUSH1 0x0 JUMPDEST DUP4 DUP2 LT ISZERO PUSH2 0xFA1 JUMPI DUP2 DUP2 ADD MLOAD DUP4 DUP3 ADD MSTORE PUSH1 0x20 ADD PUSH2 0xF89 JUMP JUMPDEST POP POP POP POP SWAP1 POP SWAP1 DUP2 ADD SWAP1 PUSH1 0x1F AND DUP1 ISZERO PUSH2 0xFCE JUMPI DUP1 DUP3 SUB DUP1 MLOAD PUSH1 0x1 DUP4 PUSH1 0x20 SUB PUSH2 0x100 EXP SUB NOT AND DUP2 MSTORE PUSH1 0x20 ADD SWAP2 POP JUMPDEST POP SWAP3 POP POP POP PUSH1 0x40 MLOAD DUP1 SWAP2 SUB SWAP1 REVERT JUMPDEST DUP1 CALLDATALOAD PUSH1 0x1 PUSH1 0x1 PUSH1 0xA0 SHL SUB DUP2 AND DUP2 EQ PUSH2 0x7B8 JUMPI PUSH1 0x0 DUP1 REVERT JUMPDEST PUSH1 0x0 PUSH1 0x20 DUP3 DUP5 SUB SLT ISZERO PUSH2 0x1004 JUMPI DUP1 DUP2 REVERT JUMPDEST PUSH2 0xDE6 DUP3 PUSH2 0xFDC JUMP JUMPDEST PUSH1 0x0 DUP1 PUSH1 0x40 DUP4 DUP6 SUB SLT ISZERO PUSH2 0x101F JUMPI DUP1 DUP2 REVERT JUMPDEST PUSH2 0x1028 DUP4 PUSH2 0xFDC JUMP JUMPDEST SWAP2 POP PUSH1 0x20 DUP4 ADD CALLDATALOAD DUP1 ISZERO ISZERO DUP2 EQ PUSH2 0x103C JUMPI DUP2 DUP3 REVERT JUMPDEST DUP1 SWAP2 POP POP SWAP3 POP SWAP3 SWAP1 POP JUMP JUMPDEST PUSH1 0x0 DUP1 PUSH1 0x40 DUP4 DUP6 SUB SLT ISZERO PUSH2 0x1059 JUMPI DUP2 DUP3 REVERT JUMPDEST PUSH2 0x1062 DUP4 PUSH2 0xFDC JUMP JUMPDEST SWAP2 POP PUSH1 0x20 DUP1 DUP5 ADD CALLDATALOAD PUSH8 0xFFFFFFFFFFFFFFFF DUP1 DUP3 GT ISZERO PUSH2 0x107F JUMPI DUP4 DUP5 REVERT JUMPDEST DUP2 DUP7 ADD SWAP2 POP DUP7 PUSH1 0x1F DUP4 ADD SLT PUSH2 0x1092 JUMPI DUP4 DUP5 REVERT JUMPDEST DUP2 CALLDATALOAD DUP2 DUP2 GT ISZERO PUSH2 0x109E JUMPI INVALID JUMPDEST PUSH1 0x40 MLOAD PUSH1 0x1F DUP3 ADD PUSH1 0x1F NOT AND DUP2 ADD DUP6 ADD DUP4 DUP2 GT DUP3 DUP3 LT OR ISZERO PUSH2 0x10BB JUMPI INVALID JUMPDEST PUSH1 0x40 MSTORE DUP2 DUP2 MSTORE DUP4 DUP3 ADD DUP6 ADD DUP10 LT ISZERO PUSH2 0x10D1 JUMPI DUP6 DUP7 REVERT JUMPDEST DUP2 DUP6 DUP6 ADD DUP7 DUP4 ADD CALLDATACOPY DUP6 DUP6 DUP4 DUP4 ADD ADD MSTORE DUP1 SWAP6 POP POP POP POP POP POP SWAP3 POP SWAP3 SWAP1 POP JUMP JUMPDEST PUSH1 0x0 PUSH1 0x20 DUP3 DUP5 SUB SLT ISZERO PUSH2 0x1100 JUMPI DUP1 DUP2 REVERT JUMPDEST DUP2 CALLDATALOAD PUSH1 0x1 PUSH1 0x1 PUSH1 0xF8 SHL SUB NOT DUP2 AND DUP2 EQ PUSH2 0xDE6 JUMPI DUP2 DUP3 REVERT JUMPDEST PUSH1 0x0 PUSH1 0x20 DUP3 DUP5 SUB SLT ISZERO PUSH2 0x1128 JUMPI DUP1 DUP2 REVERT JUMPDEST DUP2 CALLDATALOAD PUSH1 0x1 PUSH1 0x1 PUSH1 0xE0 SHL SUB NOT DUP2 AND DUP2 EQ PUSH2 0xDE6 JUMPI DUP2 DUP3 REVERT JUMPDEST PUSH1 0x1 PUSH1 0x1 PUSH1 0xA0 SHL SUB SWAP2 SWAP1 SWAP2 AND DUP2 MSTORE PUSH1 0x20 ADD SWAP1 JUMP JUMPDEST PUSH1 0x1 PUSH1 0x1 PUSH1 0xF8 SHL SUB NOT SWAP2 SWAP1 SWAP2 AND DUP2 MSTORE PUSH1 0x20 ADD SWAP1 JUMP JUMPDEST PUSH1 0x20 DUP1 DUP3 MSTORE PUSH1 0x15 SWAP1 DUP3 ADD MSTORE PUSH21 0x4F776E61626C653A207A65726F2061646472657373 PUSH1 0x58 SHL PUSH1 0x40 DUP3 ADD MSTORE PUSH1 0x60 ADD SWAP1 JUMP JUMPDEST PUSH1 0x20 DUP1 DUP3 MSTORE DUP2 DUP2 ADD MSTORE PUSH32 0x4F776E61626C653A2063616C6C6572206973206E6F7420746865206F776E6572 PUSH1 0x40 DUP3 ADD MSTORE PUSH1 0x60 ADD SWAP1 JUMP JUMPDEST PUSH1 0x20 DUP1 DUP3 MSTORE PUSH1 0x14 SWAP1 DUP3 ADD MSTORE PUSH20 0x556E617574686F72697A65642075706772616465 PUSH1 0x60 SHL PUSH1 0x40 DUP3 ADD MSTORE PUSH1 0x60 ADD SWAP1 JUMP JUMPDEST PUSH1 0x20 DUP1 DUP3 MSTORE DUP2 DUP2 ADD MSTORE PUSH32 0x4F776E61626C653A2063616C6C657220213D2070656E64696E67206F776E6572 PUSH1 0x40 DUP3 ADD MSTORE PUSH1 0x60 ADD SWAP1 JUMP INVALID GASLIMIT MSTORE NUMBER BALANCE CODECOPY CALLDATASIZE CALLDATACOPY SSTORE PUSH17 0x67726164653A2075706772616465206272 PUSH6 0x616B73206675 PUSH19 0x74686572207570677261646573455243313936 CALLDATACOPY GASPRICE KECCAK256 PUSH15 0x657720696D706C656D656E74617469 PUSH16 0x6E206973206E6F74206120636F6E7472 PUSH2 0x6374 COINBASE PUSH5 0x6472657373 GASPRICE KECCAK256 PUSH13 0x6F772D6C6576656C2064656C65 PUSH8 0x6174652063616C6C KECCAK256 PUSH7 0x61696C65644164 PUSH5 0x726573733A KECCAK256 PUSH5 0x656C656761 PUSH21 0x652063616C6C20746F206E6F6E2D636F6E74726163 PUSH21 0xA2646970667358221220C29EA25B1C9F3E5EF9AD92 DUP13 0xDB PUSH4 0x29535446 MUL 0xB5 0xAF ADDRESS 0xCD PUSH32 0x1115DCFBD449ED5464736F6C6343000706003300000000000000000000000000 ","sha1":"ba6f20afe009e6d6b05edf7b000ae3ffd6b3270c","source":"// SPDX-License-Identifier: BSUL-1.1\npragma solidity =0.7.6;\npragma abicoder v2;\n\nimport \"./actions/ActionGuards.sol\";\nimport \"../global/StorageLayoutV2.sol\";\nimport \"../global/Constants.sol\";\nimport \"../proxy/utils/UUPSUpgradeable.sol\";\nimport \"../../interfaces/notional/NotionalProxy.sol\";\nimport \"../../interfaces/notional/NotionalCalculations.sol\";\nimport {IVaultAccountHealth} from \"../../interfaces/notional/IVaultController.sol\";\n\n/**\n * Read only version of the Router that can only be upgraded by governance. Used in emergency when the system must\n * be paused for some reason.\n */\ncontract PauseRouter is StorageLayoutV2, UUPSUpgradeable, ActionGuards {\n    address public immutable VIEWS;\n    address public immutable LIQUIDATE_CURRENCY;\n    address public immutable LIQUIDATE_FCASH;\n    address public immutable CALCULATION_VIEWS;\n    address public immutable VAULT_ACCOUNT_HEALTH;\n\n    event OwnershipTransferred(address indexed previousOwner, address indexed newOwner);\n\n    constructor(\n        address views_,\n        address liquidateCurrency_,\n        address liquidatefCash_,\n        address calculationViews_,\n        address vaultAccountHealth_\n    ) {\n        VIEWS = views_;\n        LIQUIDATE_CURRENCY = liquidateCurrency_;\n        LIQUIDATE_FCASH = liquidatefCash_;\n        CALCULATION_VIEWS = calculationViews_;\n        VAULT_ACCOUNT_HEALTH = vaultAccountHealth_;\n    }\n\n    /// @dev Internal method will be called during an UUPS upgrade, must return true to\n    /// authorize the upgrade. The UUPS check does a rollback check during the upgrade and\n    /// therefore we use the `rollbackRouterImplementation` to authorize the pauseGuardian\n    /// during this check. See GovernanceAction._authorizeUpgrade for where the rollbackRouterImplementation\n    /// storage slot is set.\n    function _authorizeUpgrade(address newImplementation) internal override {\n        // This is only true during a rollback check when the pause router is downgraded\n        bool isRollbackCheck = rollbackRouterImplementation != address(0) &&\n            newImplementation == rollbackRouterImplementation;\n\n        require(\n            owner == msg.sender || (msg.sender == pauseGuardian && isRollbackCheck),\n            \"Unauthorized upgrade\"\n        );\n\n        // Clear this storage slot so the guardian cannot upgrade back to the previous router,\n        // requires governance to do so.\n        rollbackRouterImplementation = address(0);\n    }\n\n    /// @notice Transfers ownership to `newOwner`. Either directly or claimable by the new pending owner.\n    /// Can only be invoked by the current `owner`.\n    /// @param newOwner Address of the new owner.\n    /// @param direct True if `newOwner` should be set immediately. False if `newOwner` needs to use `claimOwnership`.\n    function transferOwnership(\n        address newOwner,\n        bool direct\n    ) external onlyOwner {\n        if (direct) {\n            // Checks\n            require(newOwner != address(0), \"Ownable: zero address\");\n\n            // Effects\n            emit OwnershipTransferred(owner, newOwner);\n            owner = newOwner;\n            pendingOwner = address(0);\n        } else {\n            // Effects\n            pendingOwner = newOwner;\n        }\n    }\n\n    function claimOwnership() external {\n        address _pendingOwner = pendingOwner;\n\n        // Checks\n        require(msg.sender == _pendingOwner, \"Ownable: caller != pending owner\");\n\n        // Effects\n        emit OwnershipTransferred(owner, _pendingOwner);\n        owner = _pendingOwner;\n        pendingOwner = address(0);\n    }\n\n    /// @notice Shows the current state of which liquidations are enabled\n    /// @return the current liquidation enable state as a bitmap\n    function getLiquidationEnabledState() external view returns (bytes1) {\n        return liquidationEnabledState;\n    }\n\n    /// @notice Sets a new liquidation enable state, only the owner or the guardian may do so\n    function setLiquidationEnabledState(bytes1 liquidationEnabledState_) external {\n        // Only authorized addresses can set the liquidation state\n        require(owner == msg.sender || msg.sender == pauseGuardian);\n        liquidationEnabledState = liquidationEnabledState_;\n    }\n\n    function isEnabled(bytes1 state) private view returns (bool) {\n        return (liquidationEnabledState & state == state);\n    }\n\n    function getRouterImplementation(bytes4 sig) public view returns (address) {\n        // Liquidation calculation methods are stateful (they settle accounts if required)\n        // and therefore we prevent them from being called unless specifically authorized.\n        if (\n            (sig == NotionalProxy.calculateCollateralCurrencyLiquidation.selector ||\n                sig == NotionalProxy.liquidateCollateralCurrency.selector) &&\n            isEnabled(Constants.COLLATERAL_CURRENCY_ENABLED)\n        ) {\n            return LIQUIDATE_CURRENCY;\n        }\n\n        if (\n            (sig == NotionalProxy.calculateLocalCurrencyLiquidation.selector ||\n                sig == NotionalProxy.liquidateLocalCurrency.selector) &&\n            isEnabled(Constants.LOCAL_CURRENCY_ENABLED)\n        ) {\n            return LIQUIDATE_CURRENCY;\n        }\n\n        if (\n            (sig == NotionalProxy.liquidatefCashLocal.selector ||\n                sig == NotionalProxy.calculatefCashLocalLiquidation.selector) &&\n            isEnabled(Constants.LOCAL_FCASH_ENABLED)\n        ) {\n            return LIQUIDATE_FCASH;\n        }\n\n        if (\n            (sig == NotionalProxy.liquidatefCashCrossCurrency.selector ||\n                sig == NotionalProxy.calculatefCashCrossCurrencyLiquidation.selector) &&\n            isEnabled(Constants.CROSS_CURRENCY_FCASH_ENABLED)\n        ) {\n            return LIQUIDATE_FCASH;\n        }\n\n        if (\n            sig == IVaultAccountHealth.getVaultAccountHealthFactors.selector ||\n            sig == IVaultAccountHealth.calculateDepositAmountInDeleverage.selector ||\n            sig == IVaultAccountHealth.checkVaultAccountCollateralRatio.selector ||\n            sig == IVaultAccountHealth.signedBalanceOfVaultTokenId.selector ||\n            sig == IVaultAccountHealth.getVaultAccount.selector ||\n            sig == IVaultAccountHealth.getVaultAccountWithFeeAccrual.selector ||\n            sig == IVaultAccountHealth.getVaultConfig.selector ||\n            sig == IVaultAccountHealth.getBorrowCapacity.selector ||\n            sig == IVaultAccountHealth.getSecondaryBorrow.selector ||\n            sig == IVaultAccountHealth.getVaultAccountSecondaryDebt.selector ||\n            sig == IVaultAccountHealth.getfCashRequiredToLiquidateCash.selector ||\n            sig == IVaultAccountHealth.getVaultState.selector\n        ) {\n            return VAULT_ACCOUNT_HEALTH;\n        } else if (\n            sig == NotionalCalculations.calculateNTokensToMint.selector ||\n            sig == NotionalCalculations.nTokenPresentValueAssetDenominated.selector ||\n            sig == NotionalCalculations.nTokenPresentValueUnderlyingDenominated.selector ||\n            sig == NotionalCalculations.convertNTokenToUnderlying.selector ||\n            sig == NotionalCalculations.getfCashAmountGivenCashAmount.selector ||\n            sig == NotionalCalculations.getCashAmountGivenfCashAmount.selector ||\n            sig == NotionalCalculations.nTokenGetClaimableIncentives.selector ||\n            sig == NotionalCalculations.getPresentfCashValue.selector ||\n            sig == NotionalCalculations.getMarketIndex.selector ||\n            sig == NotionalCalculations.getfCashLendFromDeposit.selector ||\n            sig == NotionalCalculations.getfCashBorrowFromPrincipal.selector ||\n            sig == NotionalCalculations.getDepositFromfCashLend.selector ||\n            sig == NotionalCalculations.getPrincipalFromfCashBorrow.selector ||\n            sig == NotionalCalculations.convertCashBalanceToExternal.selector ||\n            sig == NotionalCalculations.convertSettledfCash.selector ||\n            sig == NotionalCalculations.convertUnderlyingToPrimeCash.selector\n        ) {\n            return CALCULATION_VIEWS;\n        }\n\n        // If not found then delegate to views. This will revert if there is no method on\n        // the view contract\n        return VIEWS;\n    }\n\n    /// @dev Delegates the current call to `implementation`.\n    /// This function does not return to its internal call site, it will return directly to the external caller.\n    function _delegate(address implementation) private {\n        // solhint-disable-next-line no-inline-assembly\n        assembly {\n            // Copy msg.data. We take full control of memory in this inline assembly\n            // block because it will not return to Solidity code. We overwrite the\n            // Solidity scratch pad at memory position 0.\n            calldatacopy(0, 0, calldatasize())\n\n            // Call the implementation.\n            // out and outsize are 0 because we don't know the size yet.\n            let result := delegatecall(gas(), implementation, 0, calldatasize(), 0, 0)\n\n            // Copy the returned data.\n            returndatacopy(0, 0, returndatasize())\n\n            switch result\n            // delegatecall returns 0 on error.\n            case 0 {\n                revert(0, returndatasize())\n            }\n            default {\n                return(0, returndatasize())\n            }\n        }\n    }\n\n    fallback() external payable {\n        _delegate(getRouterImplementation(msg.sig));\n    }\n\n    receive() external payable { }\n}\n","sourcePath":"contracts/external/PauseRouter.sol","type":"contract","deployment":{"address":"0x3A571c167190d42a6aB822823d52b53D9a78Be95","chainid":"42161","blockHeight":164629595}}