{"abi":[{"inputs":[{"internalType":"contract NotionalProxy","name":"notional_","type":"address"},{"internalType":"address","name":"weth_","type":"address"},{"internalType":"address","name":"owner_","type":"address"},{"internalType":"address","name":"tradingModule_","type":"address"}],"stateMutability":"nonpayable","type":"constructor","name":"constructor"},{"inputs":[],"name":"NOTIONAL","outputs":[{"internalType":"contract NotionalProxy","name":"","type":"address"}],"stateMutability":"view","type":"function"},{"inputs":[],"name":"TRADING_MODULE","outputs":[{"internalType":"contract ITradingModule","name":"","type":"address"}],"stateMutability":"view","type":"function"},{"inputs":[],"name":"WETH","outputs":[{"internalType":"contract WETH9","name":"","type":"address"}],"stateMutability":"view","type":"function"},{"inputs":[{"internalType":"address[]","name":"tokens","type":"address[]"},{"internalType":"address","name":"spender","type":"address"}],"name":"approveTokens","outputs":[],"stateMutability":"nonpayable","type":"function"},{"inputs":[{"internalType":"address","name":"","type":"address"},{"internalType":"address","name":"paymentReceiver","type":"address"},{"internalType":"address","name":"asset","type":"address"},{"internalType":"uint256","name":"amount","type":"uint256"},{"internalType":"uint256","name":"fee","type":"uint256"},{"internalType":"bytes","name":"params","type":"bytes"}],"name":"callback","outputs":[{"internalType":"bytes","name":"","type":"bytes"}],"stateMutability":"nonpayable","type":"function"},{"inputs":[{"internalType":"uint16[]","name":"currencies","type":"uint16[]"}],"name":"enableCurrencies","outputs":[],"stateMutability":"nonpayable","type":"function"},{"inputs":[{"internalType":"address","name":"flashLenderWrapper","type":"address"},{"internalType":"address","name":"asset","type":"address"},{"internalType":"uint256","name":"amount","type":"uint256"},{"internalType":"bytes","name":"params","type":"bytes"},{"internalType":"address","name":"localAddress","type":"address"},{"internalType":"address","name":"collateralAddress","type":"address"}],"name":"flashLoan","outputs":[{"internalType":"uint256","name":"flashLoanResidual","type":"uint256"},{"internalType":"uint256","name":"localProfit","type":"uint256"},{"internalType":"uint256","name":"collateralProfit","type":"uint256"}],"stateMutability":"nonpayable","type":"function"},{"inputs":[{"internalType":"address","name":"account","type":"address"}],"name":"getFreeCollateral","outputs":[{"internalType":"int256","name":"","type":"int256"},{"internalType":"int256[]","name":"","type":"int256[]"}],"stateMutability":"nonpayable","type":"function"},{"inputs":[],"name":"ifCashCurrencyId","outputs":[{"internalType":"uint16","name":"","type":"uint16"}],"stateMutability":"view","type":"function"},{"inputs":[],"name":"owner","outputs":[{"internalType":"address","name":"","type":"address"}],"stateMutability":"view","type":"function"},{"inputs":[{"internalType":"address","name":"newOwner","type":"address"}],"name":"transferOwnership","outputs":[],"stateMutability":"nonpayable","type":"function"},{"inputs":[{"internalType":"address","name":"token","type":"address"},{"internalType":"uint256","name":"amount","type":"uint256"}],"name":"withdraw","outputs":[],"stateMutability":"nonpayable","type":"function"},{"inputs":[],"name":"wrapToWETH","outputs":[],"stateMutability":"nonpayable","type":"function"},{"stateMutability":"payable","type":"receive"}],"bytecode":"60e06040523480156200001157600080fd5b5060405162003c6e38038062003c6e83398101604081905262000034916200007e565b6001600160601b0319606094851b811660805292841b831660a052600180546001600160a01b039093166001600160a01b03199093169290921790915590911b1660c052620000fe565b6000806000806080858703121562000094578384fd5b8451620000a181620000e5565b6020860151909450620000b481620000e5565b6040860151909350620000c781620000e5565b6060860151909250620000da81620000e5565b939692955090935050565b6001600160a01b0381168114620000fb57600080fd5b50565b60805160601c60a05160601c60c05160601c613ab3620001bb60003980610bbd5280610bfd5280610c365250806102a452806102f352806104525280610525528061056052806108e552806117cb52806118575250806108a85280610a065280610a975280610d0a5280610d4a5280610dfc5280610f455280610f85528061101552806111af52806111ef52806112a8528061141b528061145b52806114eb5280611df852806121b5528061233c52806123f45250613ab36000f3fe6080604052600436106100c65760003560e01c8063ad5c46481161007f578063c399944411610059578063c3999444146101fc578063f2fde38b1461022a578063f3fef3a31461024a578063fc2db7171461026a576100cd565b8063ad5c4648146101a7578063b12ffdad146101bc578063c2243379146101dc576100cd565b806306c63840146100d257806311ee5be5146100fd57806354bab3be1461012a578063858dccb3146101595780638a3843e01461017b5780638da5cb5b14610192576100cd565b366100cd57005b600080fd5b3480156100de57600080fd5b506100e761027f565b6040516100f491906138b9565b60405180910390f35b34801561010957600080fd5b5061011d610118366004612c5f565b610290565b6040516100f491906137df565b34801561013657600080fd5b5061014a610145366004612ceb565b610626565b6040516100f493929190613921565b34801561016557600080fd5b5061016e6108a6565b6040516100f491906134ae565b34801561018757600080fd5b506101906108ca565b005b34801561019e57600080fd5b5061016e6108d4565b3480156101b357600080fd5b5061016e6108e3565b3480156101c857600080fd5b506101906101d7366004612e44565b610907565b3480156101e857600080fd5b506101906101f7366004612dac565b610973565b34801561020857600080fd5b5061021c610217366004612c27565b610a00565b6040516100f49291906137f2565b34801561023657600080fd5b50610190610245366004612c27565b610b2b565b34801561025657600080fd5b50610190610265366004612d81565b610b9d565b34801561027657600080fd5b5061016e610bbb565b600154600160a01b900461ffff1681565b606060006102a083850185613122565b90507f00000000000000000000000000000000000000000000000000000000000000006001600160a01b0316876001600160a01b0316141561035b57604051632e1a7d4d60e01b81526001600160a01b037f00000000000000000000000000000000000000000000000000000000000000001690632e1a7d4d90610328908990600401613918565b600060405180830381600087803b15801561034257600080fd5b505af1158015610356573d6000803e3d6000fd5b505050505b6080810151511561038d5760008160800151806020019051810190610380919061334d565b905061038b81610bdf565b505b6000815160ff16600381111561039f57fe5b60038111156103aa57fe5b14156103bf576103ba8188610c5d565b610446565b6001815160ff1660038111156103d157fe5b60038111156103dc57fe5b14156103ec576103ba8188610e98565b6002815160ff1660038111156103fe57fe5b600381111561040957fe5b1415610419576103ba8188611102565b6003815160ff16600381111561042b57fe5b600381111561043657fe5b141561044657610446818861136e565b8060600151156104c5577f00000000000000000000000000000000000000000000000000000000000000006001600160a01b031663d0e30db0476040518263ffffffff1660e01b81526004016000604051808303818588803b1580156104ab57600080fd5b505af11580156104bf573d6000803e3d6000fd5b50505050505b6001815160ff1660038111156104d757fe5b60038111156104e257fe5b148061050857506003815160ff1660038111156104fb57fe5b600381111561050657fe5b145b1561051657610516816115c2565b806060015115801561055957507f00000000000000000000000000000000000000000000000000000000000000006001600160a01b0316876001600160a01b0316145b156105d3577f00000000000000000000000000000000000000000000000000000000000000006001600160a01b031663d0e30db0476040518263ffffffff1660e01b81526004016000604051808303818588803b1580156105b957600080fd5b505af11580156105cd573d6000803e3d6000fd5b50505050505b60006105df8787611664565b90508160200151156105f5576105f588826116c7565b6106096001600160a01b0389168a83611777565b505060408051602081019091526000815298975050505050505050565b600154600090819081906001600160a01b031633146106605760405162461bcd60e51b815260040161065790613884565b60405180910390fd5b60405163040a08f160e41b81526001600160a01b038b16906340a08f109061069c9030908d908d908d908d9085906311ee5be590600401613639565b600060405180830381600087803b1580156106b657600080fd5b505af11580156106ca573d6000803e3d6000fd5b505050506040513d6000823e601f3d908101601f191682016040526106f29190810190612e83565b506040516370a0823160e01b81526001600160a01b038a16906370a082319061071f9030906004016134ae565b60206040518083038186803b15801561073757600080fd5b505afa15801561074b573d6000803e3d6000fd5b505050506040513d601f19601f8201168201806040525081019061076f919061339b565b92506001600160a01b03851615610801576040516370a0823160e01b81526001600160a01b038616906370a08231906107ac9030906004016134ae565b60206040518083038186803b1580156107c457600080fd5b505afa1580156107d8573d6000803e3d6000fd5b505050506040513d601f19601f820116820180604052508101906107fc919061339b565b610803565b475b91506001600160a01b03841615610895576040516370a0823160e01b81526001600160a01b038516906370a08231906108409030906004016134ae565b60206040518083038186803b15801561085857600080fd5b505afa15801561086c573d6000803e3d6000fd5b505050506040513d601f19601f82011682018060405250810190610890919061339b565b610897565b475b90509750975097945050505050565b7f000000000000000000000000000000000000000000000000000000000000000081565b6108d26117c9565b565b6001546001600160a01b031681565b7f000000000000000000000000000000000000000000000000000000000000000081565b6001546001600160a01b031633146109315760405162461bcd60e51b815260040161065790613884565b60005b8181101561096e5761096583838381811061094b57fe5b9050602002016020810190610960919061337f565b611838565b50600101610934565b505050565b6001546001600160a01b0316331461099d5760405162461bcd60e51b815260040161065790613884565b60005b828110156109fa576109df8260008686858181106109ba57fe5b90506020020160208101906109cf9190612c27565b6001600160a01b0316919061187f565b6109f2826000198686858181106109ba57fe5b6001016109a0565b50505050565b600060607f00000000000000000000000000000000000000000000000000000000000000006001600160a01b031663f667f897846040518263ffffffff1660e01b8152600401610a5091906134ae565b600060405180830381600087803b158015610a6a57600080fd5b505af1158015610a7e573d6000803e3d6000fd5b50506040516330e6651160e21b81526001600160a01b037f000000000000000000000000000000000000000000000000000000000000000016925063c39994449150610ace9086906004016134ae565b60006040518083038186803b158015610ae657600080fd5b505afa158015610afa573d6000803e3d6000fd5b505050506040513d6000823e601f3d908101601f19168201604052610b229190810190612eb5565b91509150915091565b6001546001600160a01b03163314610b555760405162461bcd60e51b815260040161065790613884565b6001600160a01b038116610b7b5760405162461bcd60e51b815260040161065790613832565b600180546001600160a01b0319166001600160a01b0392909216919091179055565b600154610bb7906001600160a01b03848116911683611777565b5050565b7f000000000000000000000000000000000000000000000000000000000000000081565b806040015115610c2957602081015160608201518251610c229290917f000000000000000000000000000000000000000000000000000000000000000090611992565b5050610c5a565b6020810151815161096e917f0000000000000000000000000000000000000000000000000000000000000000611adf565b50565b60008260a00151806020019051810190610c7791906131f3565b9050826040015115610dd6576040516370a0823160e01b81526000906001600160a01b038416906370a0823190610cb29030906004016134ae565b60206040518083038186803b158015610cca57600080fd5b505afa158015610cde573d6000803e3d6000fd5b505050506040513d601f19601f82011682018060405250810190610d02919061339b565b9050610d2e837f0000000000000000000000000000000000000000000000000000000000000000611c29565b6020820151604051632890fb6560e01b81526001600160a01b037f00000000000000000000000000000000000000000000000000000000000000001691632890fb6591610d81913091869060040161378c565b602060405180830381600087803b158015610d9b57600080fd5b505af1158015610daf573d6000803e3d6000fd5b505050506040513d601f19601f82011682018060405250810190610dd3919061339b565b50505b805160208201516040808401519051632d10e6eb60e01b81526000936001600160a01b037f00000000000000000000000000000000000000000000000000000000000000001693632d10e6eb934793610e34939291906004016137b1565b60408051808303818588803b158015610e4c57600080fd5b505af1158015610e60573d6000803e3d6000fd5b50505050506040513d601f19601f82011682018060405250810190610e859190612ef9565b9150506109fa8260200151826001611cc9565b60008260a00151806020019051810190610eb29190612f49565b9050826040015115611011576040516370a0823160e01b81526000906001600160a01b038416906370a0823190610eed9030906004016134ae565b60206040518083038186803b158015610f0557600080fd5b505afa158015610f19573d6000803e3d6000fd5b505050506040513d601f19601f82011682018060405250810190610f3d919061339b565b9050610f69837f0000000000000000000000000000000000000000000000000000000000000000611c29565b6020820151604051632890fb6560e01b81526001600160a01b037f00000000000000000000000000000000000000000000000000000000000000001691632890fb6591610fbc913091869060040161378c565b602060405180830381600087803b158015610fd657600080fd5b505af1158015610fea573d6000803e3d6000fd5b505050506040513d601f19601f8201168201806040525081019061100e919061339b565b50505b60007f00000000000000000000000000000000000000000000000000000000000000006001600160a01b0316636633af394784600001518560200151866040015187608001518860a001516001806040518963ffffffff1660e01b81526004016110819796959493929190613736565b6060604051808303818588803b15801561109a57600080fd5b505af11580156110ae573d6000803e3d6000fd5b50505050506040513d601f19601f820116820180604052508101906110d39190612f1c565b925050506110e78260400151826001611cc9565b8360400151156109fa576109fa826020015160006001611cc9565b60008260a0015180602001905181019061111c919061325b565b905082604001511561127b576040516370a0823160e01b81526000906001600160a01b038416906370a08231906111579030906004016134ae565b60206040518083038186803b15801561116f57600080fd5b505afa158015611183573d6000803e3d6000fd5b505050506040513d601f19601f820116820180604052508101906111a7919061339b565b90506111d3837f0000000000000000000000000000000000000000000000000000000000000000611c29565b6020820151604051632890fb6560e01b81526001600160a01b037f00000000000000000000000000000000000000000000000000000000000000001691632890fb6591611226913091869060040161378c565b602060405180830381600087803b15801561124057600080fd5b505af1158015611254573d6000803e3d6000fd5b505050506040513d601f19601f82011682018060405250810190611278919061339b565b50505b8051602082015160408084015160608501519151631ff7aefd60e21b815260009485946001600160a01b037f00000000000000000000000000000000000000000000000000000000000000001694637fdebbf49447946112e0949392906004016136a2565b6000604051808303818588803b1580156112f957600080fd5b505af115801561130d573d6000803e3d6000fd5b50505050506040513d6000823e601f3d908101601f191682016040526113369190810190612e00565b91509150611367836020015184604001518460008512611357576000611360565b61136085611e67565b6001611e88565b5050505050565b60008260a001518060200190518101906113889190613019565b90508260400151156114e7576040516370a0823160e01b81526000906001600160a01b038416906370a08231906113c39030906004016134ae565b60206040518083038186803b1580156113db57600080fd5b505afa1580156113ef573d6000803e3d6000fd5b505050506040513d601f19601f82011682018060405250810190611413919061339b565b905061143f837f0000000000000000000000000000000000000000000000000000000000000000611c29565b6020820151604051632890fb6560e01b81526001600160a01b037f00000000000000000000000000000000000000000000000000000000000000001691632890fb6591611492913091869060040161378c565b602060405180830381600087803b1580156114ac57600080fd5b505af11580156114c0573d6000803e3d6000fd5b505050506040513d601f19601f820116820180604052508101906114e4919061339b565b50505b60007f00000000000000000000000000000000000000000000000000000000000000006001600160a01b031663e816469d478460000151856020015186604001518760a001518860c001516040518763ffffffff1660e01b81526004016115529594939291906136e2565b6000604051808303818588803b15801561156b57600080fd5b505af115801561157f573d6000803e3d6000fd5b50505050506040513d6000823e601f3d908101601f191682016040526115a89190810190612e00565b5090506109fa82604001518360a001518360006001611e88565b60006001825160ff1660038111156115d657fe5b60038111156115e157fe5b141561161d5760008260a001518060200190518101906116019190612f49565b9050806060015191506116178160c00151610bdf565b5061164f565b60008260a001518060200190518101906116379190613019565b90508060800151915061164d8160e00151610bdf565b505b816020015115610bb757610bb78160006116c7565b6000828201838110156116be576040805162461bcd60e51b815260206004820152601b60248201527f536166654d6174683a206164646974696f6e206f766572666c6f770000000000604482015290519081900360640190fd5b90505b92915050565b6040516370a0823160e01b81526000906001600160a01b038416906370a08231906116f69030906004016134ae565b60206040518083038186803b15801561170e57600080fd5b505afa158015611722573d6000803e3d6000fd5b505050506040513d601f19601f82011682018060405250810190611746919061339b565b90508181111561096e5760015461096e906001600160a01b031661176a8385612229565b6001600160a01b03861691905b604080516001600160a01b038416602482015260448082018490528251808303909101815260649091019091526020810180516001600160e01b031663a9059cbb60e01b17905261096e908490612286565b7f00000000000000000000000000000000000000000000000000000000000000006001600160a01b031663d0e30db0476040518263ffffffff1660e01b81526004016000604051808303818588803b15801561182457600080fd5b505af1158015611367573d6000803e3d6000fd5b60008061184483612337565b90506001600160a01b03811661187757507f00000000000000000000000000000000000000000000000000000000000000005b90505b919050565b801580611905575060408051636eb1769f60e11b81523060048201526001600160a01b03848116602483015291519185169163dd62ed3e91604480820192602092909190829003018186803b1580156118d757600080fd5b505afa1580156118eb573d6000803e3d6000fd5b505050506040513d602081101561190157600080fd5b5051155b6119405760405162461bcd60e51b8152600401808060200182810382526036815260200180613a486036913960400191505060405180910390fd5b604080516001600160a01b038416602482015260448082018490528251808303909101815260649091019091526020810180516001600160e01b031663095ea7b360e01b17905261096e908490612286565b600080600080856001600160a01b031663aaf10f426040518163ffffffff1660e01b815260040160206040518083038186803b1580156119d157600080fd5b505afa1580156119e5573d6000803e3d6000fd5b505050506040513d601f19601f82011682018060405250810190611a099190612c43565b6001600160a01b0316635caf9fda60e01b888a88604051602401611a2f939291906138e5565b60408051601f198184030181529181526020820180516001600160e01b03166001600160e01b0319909416939093179092529051611a6d9190613492565b600060405180830381855af49150503d8060008114611aa8576040519150601f19603f3d011682016040523d82523d6000602084013e611aad565b606091505b509150915081611abc57600080fd5b80806020019051810190611ad09190612ef9565b90999098509650505050505050565b600080600080846001600160a01b031663aaf10f426040518163ffffffff1660e01b815260040160206040518083038186803b158015611b1e57600080fd5b505afa158015611b32573d6000803e3d6000fd5b505050506040513d601f19601f82011682018060405250810190611b569190612c43565b6001600160a01b0316632ba8c23c60e01b8789604051602401611b7a9291906138c8565b60408051601f198184030181529181526020820180516001600160e01b03166001600160e01b0319909416939093179092529051611bb89190613492565b600060405180830381855af49150503d8060008114611bf3576040519150601f19603f3d011682016040523d82523d6000602084013e611bf8565b606091505b509150915081611c0757600080fd5b80806020019051810190611c1b9190612ef9565b909890975095505050505050565b604051636eb1769f60e11b8152600160801b906001600160a01b0384169063dd62ed3e90611c5d903090869060040161361f565b60206040518083038186803b158015611c7557600080fd5b505afa158015611c89573d6000803e3d6000fd5b505050506040513d601f19601f82011682018060405250810190611cad919061339b565b1015610bb757610bb76001600160a01b0383168260001961187f565b604080516001808252818301909252600091816020015b611ce86127fc565b815260200190600190039081611ce05790505090506001600160601b03831615611d13576005611d16565b60005b81600081518110611d2357fe5b6020026020010151600001906006811115611d3a57fe5b90816006811115611d4757fe5b815250508381600081518110611d5957fe5b60200260200101516020019061ffff16908161ffff1681525050826001600160601b031681600081518110611d8a57fe5b60200260200101516040018181525050600181600081518110611da957fe5b602002602001015160800190151590811515815250508181600081518110611dcd57fe5b602090810291909101015190151560a090910152604051633735195360e11b81526001600160a01b037f00000000000000000000000000000000000000000000000000000000000000001690636e6a32a690611e2f9030908590600401613587565b600060405180830381600087803b158015611e4957600080fd5b505af1158015611e5d573d6000803e3d6000fd5b5050505050505050565b600080821215611e8157611e7a8261241f565b905061187a565b508061187a565b604080516001808252818301909252429160009190816020015b611eaa612833565b815260200190600190039081611ea257905050905060008411611ece576000611ed1565b60015b81600081518110611ede57fe5b6020026020010151600001906006811115611ef557fe5b90816006811115611f0257fe5b815250508381600081518110611f1457fe5b602002602001015160400181815250508681600081518110611f3257fe5b60200260200101516020019061ffff16908161ffff1681525050600181600081518110611f5b57fe5b602002602001015160800190151590811515815250508281600081518110611f7f57fe5b602002602001015160a001901515908115158152505060008087516001600160401b0381118015611faf57600080fd5b50604051908082528060200260200182016040528015611fd9578160200160208202803683370190505b50905060005b87518110156120cf57878181518110611ff457fe5b602002602001015160001415612009576120c7565b60008061202b60078c858151811061201d57fe5b60200260200101518961242d565b91509150801561203c5750506120c7565b609861205a8b858151811061204d57fe5b6020026020010151611e67565b6affffffffffffffffffffff16901b60f083901b60f860008d878151811061207e57fe5b602002602001015113612092576000612095565b60015b60058111156120a057fe5b901b171760001b8486815181106120b357fe5b602090810291909101015250506001909201915b600101611fdf565b508051821015612180576000826001600160401b03811180156120f157600080fd5b5060405190808252806020026020018201604052801561211b578160200160208202803683370190505b50905060005b8381101561215c5782818151811061213557fe5b602002602001015182828151811061214957fe5b6020908102919091010152600101612121565b50808460008151811061216b57fe5b602002602001015160c001819052505061219e565b808360008151811061218e57fe5b602002602001015160c001819052505b604051630276b64b60e01b81526001600160a01b037f00000000000000000000000000000000000000000000000000000000000000001690630276b64b906121ec90309087906004016134c2565b600060405180830381600087803b15801561220657600080fd5b505af115801561221a573d6000803e3d6000fd5b50505050505050505050505050565b600082821115612280576040805162461bcd60e51b815260206004820152601e60248201527f536166654d6174683a207375627472616374696f6e206f766572666c6f770000604482015290519081900360640190fd5b50900390565b60006122db826040518060400160405280602081526020017f5361666545524332303a206c6f772d6c6576656c2063616c6c206661696c6564815250856001600160a01b03166124bc9092919063ffffffff16565b80519091501561096e578080602001905160208110156122fa57600080fd5b505161096e5760405162461bcd60e51b815260040180806020018281038252602a815260200180613a1e602a913960400191505060405180910390fd5b6000807f00000000000000000000000000000000000000000000000000000000000000006001600160a01b0316634ebad18e846040518263ffffffff1660e01b815260040161238691906138b9565b6101406040518083038186803b15801561239f57600080fd5b505afa1580156123b3573d6000803e3d6000fd5b505050506040513d601f19601f820116820180604052508101906123d79190613318565b80519092506001600160a01b0316159050612418578051612418907f0000000000000000000000000000000000000000000000000000000000000000611c29565b5192915050565b6000611877600019836124d5565b6000806000851161243d57600080fd5b600785111561244b57600080fd5b600061245684612523565b905060015b8681116124ae57600061247761247083612541565b84906125e5565b90508681141561248f57509250600091506124b49050565b868111156124a557509250600191506124b49050565b5060010161245b565b50600080fd5b935093915050565b60606124cb84846000856125f7565b90505b9392505050565b818102600019831415612505578115806124f75750828282816124f457fe5b05145b61250057600080fd5b6116c1565b82158061251a57508183828161251757fe5b05145b6116c157600080fd5b60006276a70082101561253557600080fd5b506276a7008106900390565b6000816001141561255657506276a70061187a565b8160021415612569575062ed4e0061187a565b816003141561257d57506301da9c0061187a565b816004141561259157506303b5380061187a565b81600514156125a557506309450c0061187a565b81600614156125b9575063128a180061187a565b81600714156125cd5750632514300061187a565b60405162461bcd60e51b81526004016106579061385d565b6000828201838110156116be57600080fd5b6060824710156126385760405162461bcd60e51b81526004018080602001828103825260268152602001806139f86026913960400191505060405180910390fd5b61264185612752565b612692576040805162461bcd60e51b815260206004820152601d60248201527f416464726573733a2063616c6c20746f206e6f6e2d636f6e7472616374000000604482015290519081900360640190fd5b600080866001600160a01b031685876040518082805190602001908083835b602083106126d05780518252601f1990920191602091820191016126b1565b6001836020036101000a03801982511681845116808217855250505050505090500191505060006040518083038185875af1925050503d8060008114612732576040519150601f19603f3d011682016040523d82523d6000602084013e612737565b606091505b5091509150612747828286612758565b979650505050505050565b3b151590565b606083156127675750816124ce565b8251156127775782518084602001fd5b8160405162461bcd60e51b81526004018080602001828103825283818151815260200191508051906020019080838360005b838110156127c15781810151838201526020016127a9565b50505050905090810190601f1680156127ee5780820380516001836020036101000a031916815260200191505b509250505060405180910390fd5b6040805160c08101909152806000815260006020820181905260408201819052606082018190526080820181905260a09091015290565b6040805160e081019091528060008152602001600061ffff1681526020016000815260200160008152602001600015158152602001600015158152602001606081525090565b805161187a816139c4565b60008083601f840112612895578182fd5b5081356001600160401b038111156128ab578182fd5b60208301915083602080830285010111156128c557600080fd5b9250929050565b600082601f8301126128dc578081fd5b815160206128f16128ec8361395a565b613937565b828152818101908583018385028701840188101561290d578586fd5b855b8581101561292b5781518452928401929084019060010161290f565b5090979650505050505050565b803561187a816139d9565b805161187a816139d9565b60008083601f84011261295f578182fd5b5081356001600160401b03811115612975578182fd5b6020830191508360208285010111156128c557600080fd5b600082601f83011261299d578081fd5b81356129ab6128ec82613977565b8181528460208386010111156129bf578283fd5b816020850160208301379081016020019190915292915050565b600082601f8301126129e9578081fd5b81516129f76128ec82613977565b818152846020838601011115612a0b578283fd5b612a1c826020830160208701613998565b949350505050565b80516004811061187a57600080fd5b600060a08284031215612a44578081fd5b60405160a081018181106001600160401b0382111715612a6057fe5b80604052508091508251612a73816139c4565b81526020830151612a83816139d9565b602082015260408381015190820152606083015160068110612aa457600080fd5b6060820152608092830151920191909152919050565b600060808284031215612acb578081fd5b60408051608081016001600160401b038282108183111715612ae957fe5b8184528294508551915080821115612b0057600080fd5b9085019060e08288031215612b1457600080fd5b612b1e60e0613937565b612b2783612a24565b8152612b3560208401612879565b6020820152612b45858401612879565b85820152606083015160608201526080830151608082015260a083015160a082015260c083015182811115612b7957600080fd5b612b85898286016129d9565b60c083015250835250612b9c905060208501612be0565b6020820152612bac828501612943565b82820152612bbc60608501612beb565b6060820152505092915050565b80516001600160801b038116811461187a57600080fd5b805161187a816139e7565b805163ffffffff8116811461187a57600080fd5b803560ff8116811461187a57600080fd5b80516001600160601b038116811461187a57600080fd5b600060208284031215612c38578081fd5b81356116be816139c4565b600060208284031215612c54578081fd5b81516116be816139c4565b600080600080600080600060c0888a031215612c79578283fd5b8735612c84816139c4565b96506020880135612c94816139c4565b95506040880135612ca4816139c4565b9450606088013593506080880135925060a08801356001600160401b03811115612ccc578283fd5b612cd88a828b0161294e565b989b979a50959850939692959293505050565b600080600080600080600060c0888a031215612d05578081fd5b8735612d10816139c4565b96506020880135612d20816139c4565b95506040880135945060608801356001600160401b03811115612d41578182fd5b612d4d8a828b0161294e565b9095509350506080880135612d61816139c4565b915060a0880135612d71816139c4565b8091505092959891949750929550565b60008060408385031215612d93578182fd5b8235612d9e816139c4565b946020939093013593505050565b600080600060408486031215612dc0578081fd5b83356001600160401b03811115612dd5578182fd5b612de186828701612884565b9094509250506020840135612df5816139c4565b809150509250925092565b60008060408385031215612e12578182fd5b82516001600160401b03811115612e27578283fd5b612e33858286016128cc565b925050602083015190509250929050565b60008060208385031215612e56578182fd5b82356001600160401b03811115612e6b578283fd5b612e7785828601612884565b90969095509350505050565b600060208284031215612e94578081fd5b81516001600160401b03811115612ea9578182fd5b612a1c848285016129d9565b60008060408385031215612ec7578182fd5b8251915060208301516001600160401b03811115612ee3578182fd5b612eef858286016128cc565b9150509250929050565b60008060408385031215612f0b578182fd5b505080516020909101519092909150565b600080600060608486031215612f30578081fd5b8351925060208401519150604084015190509250925092565b600060208284031215612f5a578081fd5b81516001600160401b0380821115612f70578283fd5b9083019060e08286031215612f83578283fd5b612f8d60e0613937565b612f9683612879565b8152612fa460208401612be0565b6020820152612fb560408401612be0565b6040820152612fc660608401612879565b6060820152612fd760808401612bc9565b6080820152612fe860a08401612c10565b60a082015260c083015182811115612ffe578485fd5b61300a87828601612aba565b60c08301525095945050505050565b60006020828403121561302a578081fd5b81516001600160401b0380821115613040578283fd5b8184019150610100808387031215613056578384fd5b61305f81613937565b905061306a83612879565b815261307860208401612be0565b602082015261308960408401612be0565b604082015261309a60608401612879565b60608201526130ab60808401612879565b608082015260a0830151828111156130c1578485fd5b6130cd878286016128cc565b60a08301525060c0830151828111156130e4578485fd5b6130f0878286016128cc565b60c08301525060e083015182811115613107578485fd5b61311387828601612aba565b60e08301525095945050505050565b600060208284031215613133578081fd5b81356001600160401b0380821115613149578283fd5b9083019060c0828603121561315c578283fd5b61316660c0613937565b61316f83612bff565b815261317d60208401612938565b602082015261318e60408401612938565b604082015261319f60608401612938565b60608201526080830135828111156131b5578485fd5b6131c18782860161298d565b60808301525060a0830135828111156131d8578485fd5b6131e48782860161298d565b60a08301525095945050505050565b600060608284031215613204578081fd5b604051606081018181106001600160401b038211171561322057fe5b604052825161322e816139c4565b8152602083015161323e816139e7565b602082015261324f60408401612c10565b60408201529392505050565b60006020828403121561326c578081fd5b81516001600160401b0380821115613282578283fd5b9083019060808286031215613295578283fd5b6040516080810181811083821117156132aa57fe5b6040526132b683612879565b81526132c460208401612be0565b60208201526040830151828111156132da578485fd5b6132e6878286016128cc565b6040830152506060830151828111156132fd578485fd5b613309878286016128cc565b60608301525095945050505050565b600080610140838503121561332b578182fd5b6133358484612a33565b91506133448460a08501612a33565b90509250929050565b60006020828403121561335e578081fd5b81516001600160401b03811115613373578182fd5b612a1c84828501612aba565b600060208284031215613390578081fd5b81356116be816139e7565b6000602082840312156133ac578081fd5b5051919050565b6000815180845260208085019450808401835b838110156133e2578151875295820195908201906001016133c6565b509495945050505050565b60008151808452613405816020860160208601613998565b601f01601f19169290920160200192915050565b6007811061342357fe5b9052565b600081516004811061343557fe5b80845250602082015160018060a01b0380821660208601528060408501511660408601525050606082015160608401526080820151608084015260a082015160a084015260c082015160e060c0850152612a1c60e08501826133ed565b600082516134a4818460208701613998565b9190910192915050565b6001600160a01b0391909116815260200190565b6001600160a01b0383168152604060208083018290528351838301819052600092916060918286019080830287018401888401875b8381101561357757605f198a8403018552815160e0613517858351613419565b8188015161ffff1685890152898201518a860152888201518986015260808083015115159086015260a08083015115159086015260c091820151918501819052613563818601836133b3565b9688019694505050908501906001016134f7565b50909a9950505050505050505050565b6001600160a01b03831681526040602080830182905283518383018190526000929160609182860190878301865b828110156136105781516135ca858251613419565b8086015161ffff16858701528781015188860152868101518786015260808082015115159086015260a09081015115159085015260c090930192908401906001016135b5565b50919998505050505050505050565b6001600160a01b0392831681529116602082015260400190565b6001600160a01b038881168252871660208201526040810186905260a06060820181905281018490526000848660c08401378060c0868401015260c0601f19601f870116830101905063ffffffff83168460201b1760401b608083015298975050505050505050565b6001600160a01b038516815261ffff841660208201526080604082018190526000906136d0908301856133b3565b828103606084015261274781856133b3565b6001600160a01b038616815261ffff85811660208301528416604082015260a060608201819052600090613718908301856133b3565b828103608084015261372a81856133b3565b98975050505050505050565b6001600160a01b0397909716875261ffff95861660208801529390941660408601526001600160801b039190911660608501526001600160601b0316608084015290151560a0830152151560c082015260e00190565b6001600160a01b0393909316835261ffff919091166020830152604082015260600190565b6001600160a01b0393909316835261ffff9190911660208301526001600160601b0316604082015260600190565b6000602082526124ce60208301846133ed565b60006040820184835260206040818501528185518084526060860191508287019350845b8181101561292b57845183529383019391830191600101613816565b60208082526011908201527034b73b30b634b2103732bb9037bbb732b960791b604082015260600190565b6020808252600d908201526c092dcecc2d8d2c840d2dcc8caf609b1b604082015260600190565b6020808252818101527f4f776e61626c653a2063616c6c6572206973206e6f7420746865206f776e6572604082015260600190565b61ffff91909116815260200190565b600061ffff84168252604060208301526124cb6040830184613427565b600061ffff85168252606060208301526139026060830185613427565b905063ffffffff83166040830152949350505050565b90815260200190565b9283526020830191909152604082015260600190565b6040518181016001600160401b038111828210171561395257fe5b604052919050565b60006001600160401b0382111561396d57fe5b5060209081020190565b60006001600160401b0382111561398a57fe5b50601f01601f191660200190565b60005b838110156139b357818101518382015260200161399b565b838111156109fa5750506000910152565b6001600160a01b0381168114610c5a57600080fd5b8015158114610c5a57600080fd5b61ffff81168114610c5a57600080fdfe416464726573733a20696e73756666696369656e742062616c616e636520666f722063616c6c5361666545524332303a204552433230206f7065726174696f6e20646964206e6f7420737563636565645361666545524332303a20617070726f76652066726f6d206e6f6e2d7a65726f20746f206e6f6e2d7a65726f20616c6c6f77616e6365a2646970667358221220cdd913174567b625370b9572f2b6815fe485d694ed71590a14a0f5e64904642564736f6c63430007060033","bytecodeSha1":"48da0f9ec8a1324e4f96c469d6dcdb0576bc37ad","compiler":{"evm_version":"istanbul","optimizer":{"enabled":true,"runs":200},"version":"0.7.6+commit.7338295f"},"contractName":"FlashLiquidator","language":"Solidity","natspec":{"kind":"dev","methods":{"getFreeCollateral(address)":{"notice":"Used by bots to get free collateral for a given account via callStatic"}},"version":1},"opcodes":"PUSH1 0x80 PUSH1 0x40 MSTORE PUSH1 0x4 CALLDATASIZE LT PUSH2 0xC6 JUMPI PUSH1 0x0 CALLDATALOAD PUSH1 0xE0 SHR DUP1 PUSH4 0xAD5C4648 GT PUSH2 0x7F JUMPI DUP1 PUSH4 0xC3999444 GT PUSH2 0x59 JUMPI DUP1 PUSH4 0xC3999444 EQ PUSH2 0x1FC JUMPI DUP1 PUSH4 0xF2FDE38B EQ PUSH2 0x22A JUMPI DUP1 PUSH4 0xF3FEF3A3 EQ PUSH2 0x24A JUMPI DUP1 PUSH4 0xFC2DB717 EQ PUSH2 0x26A JUMPI PUSH2 0xCD JUMP JUMPDEST DUP1 PUSH4 0xAD5C4648 EQ PUSH2 0x1A7 JUMPI DUP1 PUSH4 0xB12FFDAD EQ PUSH2 0x1BC JUMPI DUP1 PUSH4 0xC2243379 EQ PUSH2 0x1DC JUMPI PUSH2 0xCD JUMP JUMPDEST DUP1 PUSH4 0x6C63840 EQ PUSH2 0xD2 JUMPI DUP1 PUSH4 0x11EE5BE5 EQ PUSH2 0xFD JUMPI DUP1 PUSH4 0x54BAB3BE EQ PUSH2 0x12A JUMPI DUP1 PUSH4 0x858DCCB3 EQ PUSH2 0x159 JUMPI DUP1 PUSH4 0x8A3843E0 EQ PUSH2 0x17B JUMPI DUP1 PUSH4 0x8DA5CB5B EQ PUSH2 0x192 JUMPI PUSH2 0xCD JUMP JUMPDEST CALLDATASIZE PUSH2 0xCD JUMPI STOP JUMPDEST PUSH1 0x0 DUP1 REVERT JUMPDEST CALLVALUE DUP1 ISZERO PUSH2 0xDE JUMPI PUSH1 0x0 DUP1 REVERT JUMPDEST POP PUSH2 0xE7 PUSH2 0x27F JUMP JUMPDEST PUSH1 0x40 MLOAD PUSH2 0xF4 SWAP2 SWAP1 PUSH2 0x38B9 JUMP JUMPDEST PUSH1 0x40 MLOAD DUP1 SWAP2 SUB SWAP1 RETURN JUMPDEST CALLVALUE DUP1 ISZERO PUSH2 0x109 JUMPI PUSH1 0x0 DUP1 REVERT JUMPDEST POP PUSH2 0x11D PUSH2 0x118 CALLDATASIZE PUSH1 0x4 PUSH2 0x2C5F JUMP JUMPDEST PUSH2 0x290 JUMP JUMPDEST PUSH1 0x40 MLOAD PUSH2 0xF4 SWAP2 SWAP1 PUSH2 0x37DF JUMP JUMPDEST CALLVALUE DUP1 ISZERO PUSH2 0x136 JUMPI PUSH1 0x0 DUP1 REVERT JUMPDEST POP PUSH2 0x14A PUSH2 0x145 CALLDATASIZE PUSH1 0x4 PUSH2 0x2CEB JUMP JUMPDEST PUSH2 0x626 JUMP JUMPDEST PUSH1 0x40 MLOAD PUSH2 0xF4 SWAP4 SWAP3 SWAP2 SWAP1 PUSH2 0x3921 JUMP JUMPDEST CALLVALUE DUP1 ISZERO PUSH2 0x165 JUMPI PUSH1 0x0 DUP1 REVERT JUMPDEST POP PUSH2 0x16E PUSH2 0x8A6 JUMP JUMPDEST PUSH1 0x40 MLOAD PUSH2 0xF4 SWAP2 SWAP1 PUSH2 0x34AE JUMP JUMPDEST CALLVALUE DUP1 ISZERO PUSH2 0x187 JUMPI PUSH1 0x0 DUP1 REVERT JUMPDEST POP PUSH2 0x190 PUSH2 0x8CA JUMP JUMPDEST STOP JUMPDEST CALLVALUE DUP1 ISZERO PUSH2 0x19E JUMPI PUSH1 0x0 DUP1 REVERT JUMPDEST POP PUSH2 0x16E PUSH2 0x8D4 JUMP JUMPDEST CALLVALUE DUP1 ISZERO PUSH2 0x1B3 JUMPI PUSH1 0x0 DUP1 REVERT JUMPDEST POP PUSH2 0x16E PUSH2 0x8E3 JUMP JUMPDEST CALLVALUE DUP1 ISZERO PUSH2 0x1C8 JUMPI PUSH1 0x0 DUP1 REVERT JUMPDEST POP PUSH2 0x190 PUSH2 0x1D7 CALLDATASIZE PUSH1 0x4 PUSH2 0x2E44 JUMP JUMPDEST PUSH2 0x907 JUMP JUMPDEST CALLVALUE DUP1 ISZERO PUSH2 0x1E8 JUMPI PUSH1 0x0 DUP1 REVERT JUMPDEST POP PUSH2 0x190 PUSH2 0x1F7 CALLDATASIZE PUSH1 0x4 PUSH2 0x2DAC JUMP JUMPDEST PUSH2 0x973 JUMP JUMPDEST CALLVALUE DUP1 ISZERO PUSH2 0x208 JUMPI PUSH1 0x0 DUP1 REVERT JUMPDEST POP PUSH2 0x21C PUSH2 0x217 CALLDATASIZE PUSH1 0x4 PUSH2 0x2C27 JUMP JUMPDEST PUSH2 0xA00 JUMP JUMPDEST PUSH1 0x40 MLOAD PUSH2 0xF4 SWAP3 SWAP2 SWAP1 PUSH2 0x37F2 JUMP JUMPDEST CALLVALUE DUP1 ISZERO PUSH2 0x236 JUMPI PUSH1 0x0 DUP1 REVERT JUMPDEST POP PUSH2 0x190 PUSH2 0x245 CALLDATASIZE PUSH1 0x4 PUSH2 0x2C27 JUMP JUMPDEST PUSH2 0xB2B JUMP JUMPDEST CALLVALUE DUP1 ISZERO PUSH2 0x256 JUMPI PUSH1 0x0 DUP1 REVERT JUMPDEST POP PUSH2 0x190 PUSH2 0x265 CALLDATASIZE PUSH1 0x4 PUSH2 0x2D81 JUMP JUMPDEST PUSH2 0xB9D JUMP JUMPDEST CALLVALUE DUP1 ISZERO PUSH2 0x276 JUMPI PUSH1 0x0 DUP1 REVERT JUMPDEST POP PUSH2 0x16E PUSH2 0xBBB JUMP JUMPDEST PUSH1 0x1 SLOAD PUSH1 0x1 PUSH1 0xA0 SHL SWAP1 DIV PUSH2 0xFFFF AND DUP2 JUMP JUMPDEST PUSH1 0x60 PUSH1 0x0 PUSH2 0x2A0 DUP4 DUP6 ADD DUP6 PUSH2 0x3122 JUMP JUMPDEST SWAP1 POP PUSH32 0x0 PUSH1 0x1 PUSH1 0x1 PUSH1 0xA0 SHL SUB AND DUP8 PUSH1 0x1 PUSH1 0x1 PUSH1 0xA0 SHL SUB AND EQ ISZERO PUSH2 0x35B JUMPI PUSH1 0x40 MLOAD PUSH4 0x2E1A7D4D PUSH1 0xE0 SHL DUP2 MSTORE PUSH1 0x1 PUSH1 0x1 PUSH1 0xA0 SHL SUB PUSH32 0x0 AND SWAP1 PUSH4 0x2E1A7D4D SWAP1 PUSH2 0x328 SWAP1 DUP10 SWAP1 PUSH1 0x4 ADD PUSH2 0x3918 JUMP JUMPDEST PUSH1 0x0 PUSH1 0x40 MLOAD DUP1 DUP4 SUB DUP2 PUSH1 0x0 DUP8 DUP1 EXTCODESIZE ISZERO DUP1 ISZERO PUSH2 0x342 JUMPI PUSH1 0x0 DUP1 REVERT JUMPDEST POP GAS CALL ISZERO DUP1 ISZERO PUSH2 0x356 JUMPI RETURNDATASIZE PUSH1 0x0 DUP1 RETURNDATACOPY RETURNDATASIZE PUSH1 0x0 REVERT JUMPDEST POP POP POP POP JUMPDEST PUSH1 0x80 DUP2 ADD MLOAD MLOAD ISZERO PUSH2 0x38D JUMPI PUSH1 0x0 DUP2 PUSH1 0x80 ADD MLOAD DUP1 PUSH1 0x20 ADD SWAP1 MLOAD DUP2 ADD SWAP1 PUSH2 0x380 SWAP2 SWAP1 PUSH2 0x334D JUMP JUMPDEST SWAP1 POP PUSH2 0x38B DUP2 PUSH2 0xBDF JUMP JUMPDEST POP JUMPDEST PUSH1 0x0 DUP2 MLOAD PUSH1 0xFF AND PUSH1 0x3 DUP2 GT ISZERO PUSH2 0x39F JUMPI INVALID JUMPDEST PUSH1 0x3 DUP2 GT ISZERO PUSH2 0x3AA JUMPI INVALID JUMPDEST EQ ISZERO PUSH2 0x3BF JUMPI PUSH2 0x3BA DUP2 DUP9 PUSH2 0xC5D JUMP JUMPDEST PUSH2 0x446 JUMP JUMPDEST PUSH1 0x1 DUP2 MLOAD PUSH1 0xFF AND PUSH1 0x3 DUP2 GT ISZERO PUSH2 0x3D1 JUMPI INVALID JUMPDEST PUSH1 0x3 DUP2 GT ISZERO PUSH2 0x3DC JUMPI INVALID JUMPDEST EQ ISZERO PUSH2 0x3EC JUMPI PUSH2 0x3BA DUP2 DUP9 PUSH2 0xE98 JUMP JUMPDEST PUSH1 0x2 DUP2 MLOAD PUSH1 0xFF AND PUSH1 0x3 DUP2 GT ISZERO PUSH2 0x3FE JUMPI INVALID JUMPDEST PUSH1 0x3 DUP2 GT ISZERO PUSH2 0x409 JUMPI INVALID JUMPDEST EQ ISZERO PUSH2 0x419 JUMPI PUSH2 0x3BA DUP2 DUP9 PUSH2 0x1102 JUMP JUMPDEST PUSH1 0x3 DUP2 MLOAD PUSH1 0xFF AND PUSH1 0x3 DUP2 GT ISZERO PUSH2 0x42B JUMPI INVALID JUMPDEST PUSH1 0x3 DUP2 GT ISZERO PUSH2 0x436 JUMPI INVALID JUMPDEST EQ ISZERO PUSH2 0x446 JUMPI PUSH2 0x446 DUP2 DUP9 PUSH2 0x136E JUMP JUMPDEST DUP1 PUSH1 0x60 ADD MLOAD ISZERO PUSH2 0x4C5 JUMPI PUSH32 0x0 PUSH1 0x1 PUSH1 0x1 PUSH1 0xA0 SHL SUB AND PUSH4 0xD0E30DB0 SELFBALANCE PUSH1 0x40 MLOAD DUP3 PUSH4 0xFFFFFFFF AND PUSH1 0xE0 SHL DUP2 MSTORE PUSH1 0x4 ADD PUSH1 0x0 PUSH1 0x40 MLOAD DUP1 DUP4 SUB DUP2 DUP6 DUP9 DUP1 EXTCODESIZE ISZERO DUP1 ISZERO PUSH2 0x4AB JUMPI PUSH1 0x0 DUP1 REVERT JUMPDEST POP GAS CALL ISZERO DUP1 ISZERO PUSH2 0x4BF JUMPI RETURNDATASIZE PUSH1 0x0 DUP1 RETURNDATACOPY RETURNDATASIZE PUSH1 0x0 REVERT JUMPDEST POP POP POP POP POP JUMPDEST PUSH1 0x1 DUP2 MLOAD PUSH1 0xFF AND PUSH1 0x3 DUP2 GT ISZERO PUSH2 0x4D7 JUMPI INVALID JUMPDEST PUSH1 0x3 DUP2 GT ISZERO PUSH2 0x4E2 JUMPI INVALID JUMPDEST EQ DUP1 PUSH2 0x508 JUMPI POP PUSH1 0x3 DUP2 MLOAD PUSH1 0xFF AND PUSH1 0x3 DUP2 GT ISZERO PUSH2 0x4FB JUMPI INVALID JUMPDEST PUSH1 0x3 DUP2 GT ISZERO PUSH2 0x506 JUMPI INVALID JUMPDEST EQ JUMPDEST ISZERO PUSH2 0x516 JUMPI PUSH2 0x516 DUP2 PUSH2 0x15C2 JUMP JUMPDEST DUP1 PUSH1 0x60 ADD MLOAD ISZERO DUP1 ISZERO PUSH2 0x559 JUMPI POP PUSH32 0x0 PUSH1 0x1 PUSH1 0x1 PUSH1 0xA0 SHL SUB AND DUP8 PUSH1 0x1 PUSH1 0x1 PUSH1 0xA0 SHL SUB AND EQ JUMPDEST ISZERO PUSH2 0x5D3 JUMPI PUSH32 0x0 PUSH1 0x1 PUSH1 0x1 PUSH1 0xA0 SHL SUB AND PUSH4 0xD0E30DB0 SELFBALANCE PUSH1 0x40 MLOAD DUP3 PUSH4 0xFFFFFFFF AND PUSH1 0xE0 SHL DUP2 MSTORE PUSH1 0x4 ADD PUSH1 0x0 PUSH1 0x40 MLOAD DUP1 DUP4 SUB DUP2 DUP6 DUP9 DUP1 EXTCODESIZE ISZERO DUP1 ISZERO PUSH2 0x5B9 JUMPI PUSH1 0x0 DUP1 REVERT JUMPDEST POP GAS CALL ISZERO DUP1 ISZERO PUSH2 0x5CD JUMPI RETURNDATASIZE PUSH1 0x0 DUP1 RETURNDATACOPY RETURNDATASIZE PUSH1 0x0 REVERT JUMPDEST POP POP POP POP POP JUMPDEST PUSH1 0x0 PUSH2 0x5DF DUP8 DUP8 PUSH2 0x1664 JUMP JUMPDEST SWAP1 POP DUP2 PUSH1 0x20 ADD MLOAD ISZERO PUSH2 0x5F5 JUMPI PUSH2 0x5F5 DUP9 DUP3 PUSH2 0x16C7 JUMP JUMPDEST PUSH2 0x609 PUSH1 0x1 PUSH1 0x1 PUSH1 0xA0 SHL SUB DUP10 AND DUP11 DUP4 PUSH2 0x1777 JUMP JUMPDEST POP POP PUSH1 0x40 DUP1 MLOAD PUSH1 0x20 DUP2 ADD SWAP1 SWAP2 MSTORE PUSH1 0x0 DUP2 MSTORE SWAP9 SWAP8 POP POP POP POP POP POP POP POP JUMP JUMPDEST PUSH1 0x1 SLOAD PUSH1 0x0 SWAP1 DUP2 SWAP1 DUP2 SWAP1 PUSH1 0x1 PUSH1 0x1 PUSH1 0xA0 SHL SUB AND CALLER EQ PUSH2 0x660 JUMPI PUSH1 0x40 MLOAD PUSH3 0x461BCD PUSH1 0xE5 SHL DUP2 MSTORE PUSH1 0x4 ADD PUSH2 0x657 SWAP1 PUSH2 0x3884 JUMP JUMPDEST PUSH1 0x40 MLOAD DUP1 SWAP2 SUB SWAP1 REVERT JUMPDEST PUSH1 0x40 MLOAD PUSH4 0x40A08F1 PUSH1 0xE4 SHL DUP2 MSTORE PUSH1 0x1 PUSH1 0x1 PUSH1 0xA0 SHL SUB DUP12 AND SWAP1 PUSH4 0x40A08F10 SWAP1 PUSH2 0x69C SWAP1 ADDRESS SWAP1 DUP14 SWAP1 DUP14 SWAP1 DUP14 SWAP1 DUP14 SWAP1 DUP6 SWAP1 PUSH4 0x11EE5BE5 SWAP1 PUSH1 0x4 ADD PUSH2 0x3639 JUMP JUMPDEST PUSH1 0x0 PUSH1 0x40 MLOAD DUP1 DUP4 SUB DUP2 PUSH1 0x0 DUP8 DUP1 EXTCODESIZE ISZERO DUP1 ISZERO PUSH2 0x6B6 JUMPI PUSH1 0x0 DUP1 REVERT JUMPDEST POP GAS CALL ISZERO DUP1 ISZERO PUSH2 0x6CA JUMPI RETURNDATASIZE PUSH1 0x0 DUP1 RETURNDATACOPY RETURNDATASIZE PUSH1 0x0 REVERT JUMPDEST POP POP POP POP PUSH1 0x40 MLOAD RETURNDATASIZE PUSH1 0x0 DUP3 RETURNDATACOPY PUSH1 0x1F RETURNDATASIZE SWAP1 DUP2 ADD PUSH1 0x1F NOT AND DUP3 ADD PUSH1 0x40 MSTORE PUSH2 0x6F2 SWAP2 SWAP1 DUP2 ADD SWAP1 PUSH2 0x2E83 JUMP JUMPDEST POP PUSH1 0x40 MLOAD PUSH4 0x70A08231 PUSH1 0xE0 SHL DUP2 MSTORE PUSH1 0x1 PUSH1 0x1 PUSH1 0xA0 SHL SUB DUP11 AND SWAP1 PUSH4 0x70A08231 SWAP1 PUSH2 0x71F SWAP1 ADDRESS SWAP1 PUSH1 0x4 ADD PUSH2 0x34AE JUMP JUMPDEST PUSH1 0x20 PUSH1 0x40 MLOAD DUP1 DUP4 SUB DUP2 DUP7 DUP1 EXTCODESIZE ISZERO DUP1 ISZERO PUSH2 0x737 JUMPI PUSH1 0x0 DUP1 REVERT JUMPDEST POP GAS STATICCALL ISZERO DUP1 ISZERO PUSH2 0x74B JUMPI RETURNDATASIZE PUSH1 0x0 DUP1 RETURNDATACOPY RETURNDATASIZE PUSH1 0x0 REVERT JUMPDEST POP POP POP POP PUSH1 0x40 MLOAD RETURNDATASIZE PUSH1 0x1F NOT PUSH1 0x1F DUP3 ADD AND DUP3 ADD DUP1 PUSH1 0x40 MSTORE POP DUP2 ADD SWAP1 PUSH2 0x76F SWAP2 SWAP1 PUSH2 0x339B JUMP JUMPDEST SWAP3 POP PUSH1 0x1 PUSH1 0x1 PUSH1 0xA0 SHL SUB DUP6 AND ISZERO PUSH2 0x801 JUMPI PUSH1 0x40 MLOAD PUSH4 0x70A08231 PUSH1 0xE0 SHL DUP2 MSTORE PUSH1 0x1 PUSH1 0x1 PUSH1 0xA0 SHL SUB DUP7 AND SWAP1 PUSH4 0x70A08231 SWAP1 PUSH2 0x7AC SWAP1 ADDRESS SWAP1 PUSH1 0x4 ADD PUSH2 0x34AE JUMP JUMPDEST PUSH1 0x20 PUSH1 0x40 MLOAD DUP1 DUP4 SUB DUP2 DUP7 DUP1 EXTCODESIZE ISZERO DUP1 ISZERO PUSH2 0x7C4 JUMPI PUSH1 0x0 DUP1 REVERT JUMPDEST POP GAS STATICCALL ISZERO DUP1 ISZERO PUSH2 0x7D8 JUMPI RETURNDATASIZE PUSH1 0x0 DUP1 RETURNDATACOPY RETURNDATASIZE PUSH1 0x0 REVERT JUMPDEST POP POP POP POP PUSH1 0x40 MLOAD RETURNDATASIZE PUSH1 0x1F NOT PUSH1 0x1F DUP3 ADD AND DUP3 ADD DUP1 PUSH1 0x40 MSTORE POP DUP2 ADD SWAP1 PUSH2 0x7FC SWAP2 SWAP1 PUSH2 0x339B JUMP JUMPDEST PUSH2 0x803 JUMP JUMPDEST SELFBALANCE JUMPDEST SWAP2 POP PUSH1 0x1 PUSH1 0x1 PUSH1 0xA0 SHL SUB DUP5 AND ISZERO PUSH2 0x895 JUMPI PUSH1 0x40 MLOAD PUSH4 0x70A08231 PUSH1 0xE0 SHL DUP2 MSTORE PUSH1 0x1 PUSH1 0x1 PUSH1 0xA0 SHL SUB DUP6 AND SWAP1 PUSH4 0x70A08231 SWAP1 PUSH2 0x840 SWAP1 ADDRESS SWAP1 PUSH1 0x4 ADD PUSH2 0x34AE JUMP JUMPDEST PUSH1 0x20 PUSH1 0x40 MLOAD DUP1 DUP4 SUB DUP2 DUP7 DUP1 EXTCODESIZE ISZERO DUP1 ISZERO PUSH2 0x858 JUMPI PUSH1 0x0 DUP1 REVERT JUMPDEST POP GAS STATICCALL ISZERO DUP1 ISZERO PUSH2 0x86C JUMPI RETURNDATASIZE PUSH1 0x0 DUP1 RETURNDATACOPY RETURNDATASIZE PUSH1 0x0 REVERT JUMPDEST POP POP POP POP PUSH1 0x40 MLOAD RETURNDATASIZE PUSH1 0x1F NOT PUSH1 0x1F DUP3 ADD AND DUP3 ADD DUP1 PUSH1 0x40 MSTORE POP DUP2 ADD SWAP1 PUSH2 0x890 SWAP2 SWAP1 PUSH2 0x339B JUMP JUMPDEST PUSH2 0x897 JUMP JUMPDEST SELFBALANCE JUMPDEST SWAP1 POP SWAP8 POP SWAP8 POP SWAP8 SWAP5 POP POP POP POP POP JUMP JUMPDEST PUSH32 0x0 DUP2 JUMP JUMPDEST PUSH2 0x8D2 PUSH2 0x17C9 JUMP JUMPDEST JUMP JUMPDEST PUSH1 0x1 SLOAD PUSH1 0x1 PUSH1 0x1 PUSH1 0xA0 SHL SUB AND DUP2 JUMP JUMPDEST PUSH32 0x0 DUP2 JUMP JUMPDEST PUSH1 0x1 SLOAD PUSH1 0x1 PUSH1 0x1 PUSH1 0xA0 SHL SUB AND CALLER EQ PUSH2 0x931 JUMPI PUSH1 0x40 MLOAD PUSH3 0x461BCD PUSH1 0xE5 SHL DUP2 MSTORE PUSH1 0x4 ADD PUSH2 0x657 SWAP1 PUSH2 0x3884 JUMP JUMPDEST PUSH1 0x0 JUMPDEST DUP2 DUP2 LT ISZERO PUSH2 0x96E JUMPI PUSH2 0x965 DUP4 DUP4 DUP4 DUP2 DUP2 LT PUSH2 0x94B JUMPI INVALID JUMPDEST SWAP1 POP PUSH1 0x20 MUL ADD PUSH1 0x20 DUP2 ADD SWAP1 PUSH2 0x960 SWAP2 SWAP1 PUSH2 0x337F JUMP JUMPDEST PUSH2 0x1838 JUMP JUMPDEST POP PUSH1 0x1 ADD PUSH2 0x934 JUMP JUMPDEST POP POP POP JUMP JUMPDEST PUSH1 0x1 SLOAD PUSH1 0x1 PUSH1 0x1 PUSH1 0xA0 SHL SUB AND CALLER EQ PUSH2 0x99D JUMPI PUSH1 0x40 MLOAD PUSH3 0x461BCD PUSH1 0xE5 SHL DUP2 MSTORE PUSH1 0x4 ADD PUSH2 0x657 SWAP1 PUSH2 0x3884 JUMP JUMPDEST PUSH1 0x0 JUMPDEST DUP3 DUP2 LT ISZERO PUSH2 0x9FA JUMPI PUSH2 0x9DF DUP3 PUSH1 0x0 DUP7 DUP7 DUP6 DUP2 DUP2 LT PUSH2 0x9BA JUMPI INVALID JUMPDEST SWAP1 POP PUSH1 0x20 MUL ADD PUSH1 0x20 DUP2 ADD SWAP1 PUSH2 0x9CF SWAP2 SWAP1 PUSH2 0x2C27 JUMP JUMPDEST PUSH1 0x1 PUSH1 0x1 PUSH1 0xA0 SHL SUB AND SWAP2 SWAP1 PUSH2 0x187F JUMP JUMPDEST PUSH2 0x9F2 DUP3 PUSH1 0x0 NOT DUP7 DUP7 DUP6 DUP2 DUP2 LT PUSH2 0x9BA JUMPI INVALID JUMPDEST PUSH1 0x1 ADD PUSH2 0x9A0 JUMP JUMPDEST POP POP POP POP JUMP JUMPDEST PUSH1 0x0 PUSH1 0x60 PUSH32 0x0 PUSH1 0x1 PUSH1 0x1 PUSH1 0xA0 SHL SUB AND PUSH4 0xF667F897 DUP5 PUSH1 0x40 MLOAD DUP3 PUSH4 0xFFFFFFFF AND PUSH1 0xE0 SHL DUP2 MSTORE PUSH1 0x4 ADD PUSH2 0xA50 SWAP2 SWAP1 PUSH2 0x34AE JUMP JUMPDEST PUSH1 0x0 PUSH1 0x40 MLOAD DUP1 DUP4 SUB DUP2 PUSH1 0x0 DUP8 DUP1 EXTCODESIZE ISZERO DUP1 ISZERO PUSH2 0xA6A JUMPI PUSH1 0x0 DUP1 REVERT JUMPDEST POP GAS CALL ISZERO DUP1 ISZERO PUSH2 0xA7E JUMPI RETURNDATASIZE PUSH1 0x0 DUP1 RETURNDATACOPY RETURNDATASIZE PUSH1 0x0 REVERT JUMPDEST POP POP PUSH1 0x40 MLOAD PUSH4 0x30E66511 PUSH1 0xE2 SHL DUP2 MSTORE PUSH1 0x1 PUSH1 0x1 PUSH1 0xA0 SHL SUB PUSH32 0x0 AND SWAP3 POP PUSH4 0xC3999444 SWAP2 POP PUSH2 0xACE SWAP1 DUP7 SWAP1 PUSH1 0x4 ADD PUSH2 0x34AE JUMP JUMPDEST PUSH1 0x0 PUSH1 0x40 MLOAD DUP1 DUP4 SUB DUP2 DUP7 DUP1 EXTCODESIZE ISZERO DUP1 ISZERO PUSH2 0xAE6 JUMPI PUSH1 0x0 DUP1 REVERT JUMPDEST POP GAS STATICCALL ISZERO DUP1 ISZERO PUSH2 0xAFA JUMPI RETURNDATASIZE PUSH1 0x0 DUP1 RETURNDATACOPY RETURNDATASIZE PUSH1 0x0 REVERT JUMPDEST POP POP POP POP PUSH1 0x40 MLOAD RETURNDATASIZE PUSH1 0x0 DUP3 RETURNDATACOPY PUSH1 0x1F RETURNDATASIZE SWAP1 DUP2 ADD PUSH1 0x1F NOT AND DUP3 ADD PUSH1 0x40 MSTORE PUSH2 0xB22 SWAP2 SWAP1 DUP2 ADD SWAP1 PUSH2 0x2EB5 JUMP JUMPDEST SWAP2 POP SWAP2 POP SWAP2 POP SWAP2 JUMP JUMPDEST PUSH1 0x1 SLOAD PUSH1 0x1 PUSH1 0x1 PUSH1 0xA0 SHL SUB AND CALLER EQ PUSH2 0xB55 JUMPI PUSH1 0x40 MLOAD PUSH3 0x461BCD PUSH1 0xE5 SHL DUP2 MSTORE PUSH1 0x4 ADD PUSH2 0x657 SWAP1 PUSH2 0x3884 JUMP JUMPDEST PUSH1 0x1 PUSH1 0x1 PUSH1 0xA0 SHL SUB DUP2 AND PUSH2 0xB7B JUMPI PUSH1 0x40 MLOAD PUSH3 0x461BCD PUSH1 0xE5 SHL DUP2 MSTORE PUSH1 0x4 ADD PUSH2 0x657 SWAP1 PUSH2 0x3832 JUMP JUMPDEST PUSH1 0x1 DUP1 SLOAD PUSH1 0x1 PUSH1 0x1 PUSH1 0xA0 SHL SUB NOT AND PUSH1 0x1 PUSH1 0x1 PUSH1 0xA0 SHL SUB SWAP3 SWAP1 SWAP3 AND SWAP2 SWAP1 SWAP2 OR SWAP1 SSTORE JUMP JUMPDEST PUSH1 0x1 SLOAD PUSH2 0xBB7 SWAP1 PUSH1 0x1 PUSH1 0x1 PUSH1 0xA0 SHL SUB DUP5 DUP2 AND SWAP2 AND DUP4 PUSH2 0x1777 JUMP JUMPDEST POP POP JUMP JUMPDEST PUSH32 0x0 DUP2 JUMP JUMPDEST DUP1 PUSH1 0x40 ADD MLOAD ISZERO PUSH2 0xC29 JUMPI PUSH1 0x20 DUP2 ADD MLOAD PUSH1 0x60 DUP3 ADD MLOAD DUP3 MLOAD PUSH2 0xC22 SWAP3 SWAP1 SWAP2 PUSH32 0x0 SWAP1 PUSH2 0x1992 JUMP JUMPDEST POP POP PUSH2 0xC5A JUMP JUMPDEST PUSH1 0x20 DUP2 ADD MLOAD DUP2 MLOAD PUSH2 0x96E SWAP2 PUSH32 0x0 PUSH2 0x1ADF JUMP JUMPDEST POP JUMP JUMPDEST PUSH1 0x0 DUP3 PUSH1 0xA0 ADD MLOAD DUP1 PUSH1 0x20 ADD SWAP1 MLOAD DUP2 ADD SWAP1 PUSH2 0xC77 SWAP2 SWAP1 PUSH2 0x31F3 JUMP JUMPDEST SWAP1 POP DUP3 PUSH1 0x40 ADD MLOAD ISZERO PUSH2 0xDD6 JUMPI PUSH1 0x40 MLOAD PUSH4 0x70A08231 PUSH1 0xE0 SHL DUP2 MSTORE PUSH1 0x0 SWAP1 PUSH1 0x1 PUSH1 0x1 PUSH1 0xA0 SHL SUB DUP5 AND SWAP1 PUSH4 0x70A08231 SWAP1 PUSH2 0xCB2 SWAP1 ADDRESS SWAP1 PUSH1 0x4 ADD PUSH2 0x34AE JUMP JUMPDEST PUSH1 0x20 PUSH1 0x40 MLOAD DUP1 DUP4 SUB DUP2 DUP7 DUP1 EXTCODESIZE ISZERO DUP1 ISZERO PUSH2 0xCCA JUMPI PUSH1 0x0 DUP1 REVERT JUMPDEST POP GAS STATICCALL ISZERO DUP1 ISZERO PUSH2 0xCDE JUMPI RETURNDATASIZE PUSH1 0x0 DUP1 RETURNDATACOPY RETURNDATASIZE PUSH1 0x0 REVERT JUMPDEST POP POP POP POP PUSH1 0x40 MLOAD RETURNDATASIZE PUSH1 0x1F NOT PUSH1 0x1F DUP3 ADD AND DUP3 ADD DUP1 PUSH1 0x40 MSTORE POP DUP2 ADD SWAP1 PUSH2 0xD02 SWAP2 SWAP1 PUSH2 0x339B JUMP JUMPDEST SWAP1 POP PUSH2 0xD2E DUP4 PUSH32 0x0 PUSH2 0x1C29 JUMP JUMPDEST PUSH1 0x20 DUP3 ADD MLOAD PUSH1 0x40 MLOAD PUSH4 0x2890FB65 PUSH1 0xE0 SHL DUP2 MSTORE PUSH1 0x1 PUSH1 0x1 PUSH1 0xA0 SHL SUB PUSH32 0x0 AND SWAP2 PUSH4 0x2890FB65 SWAP2 PUSH2 0xD81 SWAP2 ADDRESS SWAP2 DUP7 SWAP1 PUSH1 0x4 ADD PUSH2 0x378C JUMP JUMPDEST PUSH1 0x20 PUSH1 0x40 MLOAD DUP1 DUP4 SUB DUP2 PUSH1 0x0 DUP8 DUP1 EXTCODESIZE ISZERO DUP1 ISZERO PUSH2 0xD9B JUMPI PUSH1 0x0 DUP1 REVERT JUMPDEST POP GAS CALL ISZERO DUP1 ISZERO PUSH2 0xDAF JUMPI RETURNDATASIZE PUSH1 0x0 DUP1 RETURNDATACOPY RETURNDATASIZE PUSH1 0x0 REVERT JUMPDEST POP POP POP POP PUSH1 0x40 MLOAD RETURNDATASIZE PUSH1 0x1F NOT PUSH1 0x1F DUP3 ADD AND DUP3 ADD DUP1 PUSH1 0x40 MSTORE POP DUP2 ADD SWAP1 PUSH2 0xDD3 SWAP2 SWAP1 PUSH2 0x339B JUMP JUMPDEST POP POP JUMPDEST DUP1 MLOAD PUSH1 0x20 DUP3 ADD MLOAD PUSH1 0x40 DUP1 DUP5 ADD MLOAD SWAP1 MLOAD PUSH4 0x2D10E6EB PUSH1 0xE0 SHL DUP2 MSTORE PUSH1 0x0 SWAP4 PUSH1 0x1 PUSH1 0x1 PUSH1 0xA0 SHL SUB PUSH32 0x0 AND SWAP4 PUSH4 0x2D10E6EB SWAP4 SELFBALANCE SWAP4 PUSH2 0xE34 SWAP4 SWAP3 SWAP2 SWAP1 PUSH1 0x4 ADD PUSH2 0x37B1 JUMP JUMPDEST PUSH1 0x40 DUP1 MLOAD DUP1 DUP4 SUB DUP2 DUP6 DUP9 DUP1 EXTCODESIZE ISZERO DUP1 ISZERO PUSH2 0xE4C JUMPI PUSH1 0x0 DUP1 REVERT JUMPDEST POP GAS CALL ISZERO DUP1 ISZERO PUSH2 0xE60 JUMPI RETURNDATASIZE PUSH1 0x0 DUP1 RETURNDATACOPY RETURNDATASIZE PUSH1 0x0 REVERT JUMPDEST POP POP POP POP POP PUSH1 0x40 MLOAD RETURNDATASIZE PUSH1 0x1F NOT PUSH1 0x1F DUP3 ADD AND DUP3 ADD DUP1 PUSH1 0x40 MSTORE POP DUP2 ADD SWAP1 PUSH2 0xE85 SWAP2 SWAP1 PUSH2 0x2EF9 JUMP JUMPDEST SWAP2 POP POP PUSH2 0x9FA DUP3 PUSH1 0x20 ADD MLOAD DUP3 PUSH1 0x1 PUSH2 0x1CC9 JUMP JUMPDEST PUSH1 0x0 DUP3 PUSH1 0xA0 ADD MLOAD DUP1 PUSH1 0x20 ADD SWAP1 MLOAD DUP2 ADD SWAP1 PUSH2 0xEB2 SWAP2 SWAP1 PUSH2 0x2F49 JUMP JUMPDEST SWAP1 POP DUP3 PUSH1 0x40 ADD MLOAD ISZERO PUSH2 0x1011 JUMPI PUSH1 0x40 MLOAD PUSH4 0x70A08231 PUSH1 0xE0 SHL DUP2 MSTORE PUSH1 0x0 SWAP1 PUSH1 0x1 PUSH1 0x1 PUSH1 0xA0 SHL SUB DUP5 AND SWAP1 PUSH4 0x70A08231 SWAP1 PUSH2 0xEED SWAP1 ADDRESS SWAP1 PUSH1 0x4 ADD PUSH2 0x34AE JUMP JUMPDEST PUSH1 0x20 PUSH1 0x40 MLOAD DUP1 DUP4 SUB DUP2 DUP7 DUP1 EXTCODESIZE ISZERO DUP1 ISZERO PUSH2 0xF05 JUMPI PUSH1 0x0 DUP1 REVERT JUMPDEST POP GAS STATICCALL ISZERO DUP1 ISZERO PUSH2 0xF19 JUMPI RETURNDATASIZE PUSH1 0x0 DUP1 RETURNDATACOPY RETURNDATASIZE PUSH1 0x0 REVERT JUMPDEST POP POP POP POP PUSH1 0x40 MLOAD RETURNDATASIZE PUSH1 0x1F NOT PUSH1 0x1F DUP3 ADD AND DUP3 ADD DUP1 PUSH1 0x40 MSTORE POP DUP2 ADD SWAP1 PUSH2 0xF3D SWAP2 SWAP1 PUSH2 0x339B JUMP JUMPDEST SWAP1 POP PUSH2 0xF69 DUP4 PUSH32 0x0 PUSH2 0x1C29 JUMP JUMPDEST PUSH1 0x20 DUP3 ADD MLOAD PUSH1 0x40 MLOAD PUSH4 0x2890FB65 PUSH1 0xE0 SHL DUP2 MSTORE PUSH1 0x1 PUSH1 0x1 PUSH1 0xA0 SHL SUB PUSH32 0x0 AND SWAP2 PUSH4 0x2890FB65 SWAP2 PUSH2 0xFBC SWAP2 ADDRESS SWAP2 DUP7 SWAP1 PUSH1 0x4 ADD PUSH2 0x378C JUMP JUMPDEST PUSH1 0x20 PUSH1 0x40 MLOAD DUP1 DUP4 SUB DUP2 PUSH1 0x0 DUP8 DUP1 EXTCODESIZE ISZERO DUP1 ISZERO PUSH2 0xFD6 JUMPI PUSH1 0x0 DUP1 REVERT JUMPDEST POP GAS CALL ISZERO DUP1 ISZERO PUSH2 0xFEA JUMPI RETURNDATASIZE PUSH1 0x0 DUP1 RETURNDATACOPY RETURNDATASIZE PUSH1 0x0 REVERT JUMPDEST POP POP POP POP PUSH1 0x40 MLOAD RETURNDATASIZE PUSH1 0x1F NOT PUSH1 0x1F DUP3 ADD AND DUP3 ADD DUP1 PUSH1 0x40 MSTORE POP DUP2 ADD SWAP1 PUSH2 0x100E SWAP2 SWAP1 PUSH2 0x339B JUMP JUMPDEST POP POP JUMPDEST PUSH1 0x0 PUSH32 0x0 PUSH1 0x1 PUSH1 0x1 PUSH1 0xA0 SHL SUB AND PUSH4 0x6633AF39 SELFBALANCE DUP5 PUSH1 0x0 ADD MLOAD DUP6 PUSH1 0x20 ADD MLOAD DUP7 PUSH1 0x40 ADD MLOAD DUP8 PUSH1 0x80 ADD MLOAD DUP9 PUSH1 0xA0 ADD MLOAD PUSH1 0x1 DUP1 PUSH1 0x40 MLOAD DUP10 PUSH4 0xFFFFFFFF AND PUSH1 0xE0 SHL DUP2 MSTORE PUSH1 0x4 ADD PUSH2 0x1081 SWAP8 SWAP7 SWAP6 SWAP5 SWAP4 SWAP3 SWAP2 SWAP1 PUSH2 0x3736 JUMP JUMPDEST PUSH1 0x60 PUSH1 0x40 MLOAD DUP1 DUP4 SUB DUP2 DUP6 DUP9 DUP1 EXTCODESIZE ISZERO DUP1 ISZERO PUSH2 0x109A JUMPI PUSH1 0x0 DUP1 REVERT JUMPDEST POP GAS CALL ISZERO DUP1 ISZERO PUSH2 0x10AE JUMPI RETURNDATASIZE PUSH1 0x0 DUP1 RETURNDATACOPY RETURNDATASIZE PUSH1 0x0 REVERT JUMPDEST POP POP POP POP POP PUSH1 0x40 MLOAD RETURNDATASIZE PUSH1 0x1F NOT PUSH1 0x1F DUP3 ADD AND DUP3 ADD DUP1 PUSH1 0x40 MSTORE POP DUP2 ADD SWAP1 PUSH2 0x10D3 SWAP2 SWAP1 PUSH2 0x2F1C JUMP JUMPDEST SWAP3 POP POP POP PUSH2 0x10E7 DUP3 PUSH1 0x40 ADD MLOAD DUP3 PUSH1 0x1 PUSH2 0x1CC9 JUMP JUMPDEST DUP4 PUSH1 0x40 ADD MLOAD ISZERO PUSH2 0x9FA JUMPI PUSH2 0x9FA DUP3 PUSH1 0x20 ADD MLOAD PUSH1 0x0 PUSH1 0x1 PUSH2 0x1CC9 JUMP JUMPDEST PUSH1 0x0 DUP3 PUSH1 0xA0 ADD MLOAD DUP1 PUSH1 0x20 ADD SWAP1 MLOAD DUP2 ADD SWAP1 PUSH2 0x111C SWAP2 SWAP1 PUSH2 0x325B JUMP JUMPDEST SWAP1 POP DUP3 PUSH1 0x40 ADD MLOAD ISZERO PUSH2 0x127B JUMPI PUSH1 0x40 MLOAD PUSH4 0x70A08231 PUSH1 0xE0 SHL DUP2 MSTORE PUSH1 0x0 SWAP1 PUSH1 0x1 PUSH1 0x1 PUSH1 0xA0 SHL SUB DUP5 AND SWAP1 PUSH4 0x70A08231 SWAP1 PUSH2 0x1157 SWAP1 ADDRESS SWAP1 PUSH1 0x4 ADD PUSH2 0x34AE JUMP JUMPDEST PUSH1 0x20 PUSH1 0x40 MLOAD DUP1 DUP4 SUB DUP2 DUP7 DUP1 EXTCODESIZE ISZERO DUP1 ISZERO PUSH2 0x116F JUMPI PUSH1 0x0 DUP1 REVERT JUMPDEST POP GAS STATICCALL ISZERO DUP1 ISZERO PUSH2 0x1183 JUMPI RETURNDATASIZE PUSH1 0x0 DUP1 RETURNDATACOPY RETURNDATASIZE PUSH1 0x0 REVERT JUMPDEST POP POP POP POP PUSH1 0x40 MLOAD RETURNDATASIZE PUSH1 0x1F NOT PUSH1 0x1F DUP3 ADD AND DUP3 ADD DUP1 PUSH1 0x40 MSTORE POP DUP2 ADD SWAP1 PUSH2 0x11A7 SWAP2 SWAP1 PUSH2 0x339B JUMP JUMPDEST SWAP1 POP PUSH2 0x11D3 DUP4 PUSH32 0x0 PUSH2 0x1C29 JUMP JUMPDEST PUSH1 0x20 DUP3 ADD MLOAD PUSH1 0x40 MLOAD PUSH4 0x2890FB65 PUSH1 0xE0 SHL DUP2 MSTORE PUSH1 0x1 PUSH1 0x1 PUSH1 0xA0 SHL SUB PUSH32 0x0 AND SWAP2 PUSH4 0x2890FB65 SWAP2 PUSH2 0x1226 SWAP2 ADDRESS SWAP2 DUP7 SWAP1 PUSH1 0x4 ADD PUSH2 0x378C JUMP JUMPDEST PUSH1 0x20 PUSH1 0x40 MLOAD DUP1 DUP4 SUB DUP2 PUSH1 0x0 DUP8 DUP1 EXTCODESIZE ISZERO DUP1 ISZERO PUSH2 0x1240 JUMPI PUSH1 0x0 DUP1 REVERT JUMPDEST POP GAS CALL ISZERO DUP1 ISZERO PUSH2 0x1254 JUMPI RETURNDATASIZE PUSH1 0x0 DUP1 RETURNDATACOPY RETURNDATASIZE PUSH1 0x0 REVERT JUMPDEST POP POP POP POP PUSH1 0x40 MLOAD RETURNDATASIZE PUSH1 0x1F NOT PUSH1 0x1F DUP3 ADD AND DUP3 ADD DUP1 PUSH1 0x40 MSTORE POP DUP2 ADD SWAP1 PUSH2 0x1278 SWAP2 SWAP1 PUSH2 0x339B JUMP JUMPDEST POP POP JUMPDEST DUP1 MLOAD PUSH1 0x20 DUP3 ADD MLOAD PUSH1 0x40 DUP1 DUP5 ADD MLOAD PUSH1 0x60 DUP6 ADD MLOAD SWAP2 MLOAD PUSH4 0x1FF7AEFD PUSH1 0xE2 SHL DUP2 MSTORE PUSH1 0x0 SWAP5 DUP6 SWAP5 PUSH1 0x1 PUSH1 0x1 PUSH1 0xA0 SHL SUB PUSH32 0x0 AND SWAP5 PUSH4 0x7FDEBBF4 SWAP5 SELFBALANCE SWAP5 PUSH2 0x12E0 SWAP5 SWAP4 SWAP3 SWAP1 PUSH1 0x4 ADD PUSH2 0x36A2 JUMP JUMPDEST PUSH1 0x0 PUSH1 0x40 MLOAD DUP1 DUP4 SUB DUP2 DUP6 DUP9 DUP1 EXTCODESIZE ISZERO DUP1 ISZERO PUSH2 0x12F9 JUMPI PUSH1 0x0 DUP1 REVERT JUMPDEST POP GAS CALL ISZERO DUP1 ISZERO PUSH2 0x130D JUMPI RETURNDATASIZE PUSH1 0x0 DUP1 RETURNDATACOPY RETURNDATASIZE PUSH1 0x0 REVERT JUMPDEST POP POP POP POP POP PUSH1 0x40 MLOAD RETURNDATASIZE PUSH1 0x0 DUP3 RETURNDATACOPY PUSH1 0x1F RETURNDATASIZE SWAP1 DUP2 ADD PUSH1 0x1F NOT AND DUP3 ADD PUSH1 0x40 MSTORE PUSH2 0x1336 SWAP2 SWAP1 DUP2 ADD SWAP1 PUSH2 0x2E00 JUMP JUMPDEST SWAP2 POP SWAP2 POP PUSH2 0x1367 DUP4 PUSH1 0x20 ADD MLOAD DUP5 PUSH1 0x40 ADD MLOAD DUP5 PUSH1 0x0 DUP6 SLT PUSH2 0x1357 JUMPI PUSH1 0x0 PUSH2 0x1360 JUMP JUMPDEST PUSH2 0x1360 DUP6 PUSH2 0x1E67 JUMP JUMPDEST PUSH1 0x1 PUSH2 0x1E88 JUMP JUMPDEST POP POP POP POP POP JUMP JUMPDEST PUSH1 0x0 DUP3 PUSH1 0xA0 ADD MLOAD DUP1 PUSH1 0x20 ADD SWAP1 MLOAD DUP2 ADD SWAP1 PUSH2 0x1388 SWAP2 SWAP1 PUSH2 0x3019 JUMP JUMPDEST SWAP1 POP DUP3 PUSH1 0x40 ADD MLOAD ISZERO PUSH2 0x14E7 JUMPI PUSH1 0x40 MLOAD PUSH4 0x70A08231 PUSH1 0xE0 SHL DUP2 MSTORE PUSH1 0x0 SWAP1 PUSH1 0x1 PUSH1 0x1 PUSH1 0xA0 SHL SUB DUP5 AND SWAP1 PUSH4 0x70A08231 SWAP1 PUSH2 0x13C3 SWAP1 ADDRESS SWAP1 PUSH1 0x4 ADD PUSH2 0x34AE JUMP JUMPDEST PUSH1 0x20 PUSH1 0x40 MLOAD DUP1 DUP4 SUB DUP2 DUP7 DUP1 EXTCODESIZE ISZERO DUP1 ISZERO PUSH2 0x13DB JUMPI PUSH1 0x0 DUP1 REVERT JUMPDEST POP GAS STATICCALL ISZERO DUP1 ISZERO PUSH2 0x13EF JUMPI RETURNDATASIZE PUSH1 0x0 DUP1 RETURNDATACOPY RETURNDATASIZE PUSH1 0x0 REVERT JUMPDEST POP POP POP POP PUSH1 0x40 MLOAD RETURNDATASIZE PUSH1 0x1F NOT PUSH1 0x1F DUP3 ADD AND DUP3 ADD DUP1 PUSH1 0x40 MSTORE POP DUP2 ADD SWAP1 PUSH2 0x1413 SWAP2 SWAP1 PUSH2 0x339B JUMP JUMPDEST SWAP1 POP PUSH2 0x143F DUP4 PUSH32 0x0 PUSH2 0x1C29 JUMP JUMPDEST PUSH1 0x20 DUP3 ADD MLOAD PUSH1 0x40 MLOAD PUSH4 0x2890FB65 PUSH1 0xE0 SHL DUP2 MSTORE PUSH1 0x1 PUSH1 0x1 PUSH1 0xA0 SHL SUB PUSH32 0x0 AND SWAP2 PUSH4 0x2890FB65 SWAP2 PUSH2 0x1492 SWAP2 ADDRESS SWAP2 DUP7 SWAP1 PUSH1 0x4 ADD PUSH2 0x378C JUMP JUMPDEST PUSH1 0x20 PUSH1 0x40 MLOAD DUP1 DUP4 SUB DUP2 PUSH1 0x0 DUP8 DUP1 EXTCODESIZE ISZERO DUP1 ISZERO PUSH2 0x14AC JUMPI PUSH1 0x0 DUP1 REVERT JUMPDEST POP GAS CALL ISZERO DUP1 ISZERO PUSH2 0x14C0 JUMPI RETURNDATASIZE PUSH1 0x0 DUP1 RETURNDATACOPY RETURNDATASIZE PUSH1 0x0 REVERT JUMPDEST POP POP POP POP PUSH1 0x40 MLOAD RETURNDATASIZE PUSH1 0x1F NOT PUSH1 0x1F DUP3 ADD AND DUP3 ADD DUP1 PUSH1 0x40 MSTORE POP DUP2 ADD SWAP1 PUSH2 0x14E4 SWAP2 SWAP1 PUSH2 0x339B JUMP JUMPDEST POP POP JUMPDEST PUSH1 0x0 PUSH32 0x0 PUSH1 0x1 PUSH1 0x1 PUSH1 0xA0 SHL SUB AND PUSH4 0xE816469D SELFBALANCE DUP5 PUSH1 0x0 ADD MLOAD DUP6 PUSH1 0x20 ADD MLOAD DUP7 PUSH1 0x40 ADD MLOAD DUP8 PUSH1 0xA0 ADD MLOAD DUP9 PUSH1 0xC0 ADD MLOAD PUSH1 0x40 MLOAD DUP8 PUSH4 0xFFFFFFFF AND PUSH1 0xE0 SHL DUP2 MSTORE PUSH1 0x4 ADD PUSH2 0x1552 SWAP6 SWAP5 SWAP4 SWAP3 SWAP2 SWAP1 PUSH2 0x36E2 JUMP JUMPDEST PUSH1 0x0 PUSH1 0x40 MLOAD DUP1 DUP4 SUB DUP2 DUP6 DUP9 DUP1 EXTCODESIZE ISZERO DUP1 ISZERO PUSH2 0x156B JUMPI PUSH1 0x0 DUP1 REVERT JUMPDEST POP GAS CALL ISZERO DUP1 ISZERO PUSH2 0x157F JUMPI RETURNDATASIZE PUSH1 0x0 DUP1 RETURNDATACOPY RETURNDATASIZE PUSH1 0x0 REVERT JUMPDEST POP POP POP POP POP PUSH1 0x40 MLOAD RETURNDATASIZE PUSH1 0x0 DUP3 RETURNDATACOPY PUSH1 0x1F RETURNDATASIZE SWAP1 DUP2 ADD PUSH1 0x1F NOT AND DUP3 ADD PUSH1 0x40 MSTORE PUSH2 0x15A8 SWAP2 SWAP1 DUP2 ADD SWAP1 PUSH2 0x2E00 JUMP JUMPDEST POP SWAP1 POP PUSH2 0x9FA DUP3 PUSH1 0x40 ADD MLOAD DUP4 PUSH1 0xA0 ADD MLOAD DUP4 PUSH1 0x0 PUSH1 0x1 PUSH2 0x1E88 JUMP JUMPDEST PUSH1 0x0 PUSH1 0x1 DUP3 MLOAD PUSH1 0xFF AND PUSH1 0x3 DUP2 GT ISZERO PUSH2 0x15D6 JUMPI INVALID JUMPDEST PUSH1 0x3 DUP2 GT ISZERO PUSH2 0x15E1 JUMPI INVALID JUMPDEST EQ ISZERO PUSH2 0x161D JUMPI PUSH1 0x0 DUP3 PUSH1 0xA0 ADD MLOAD DUP1 PUSH1 0x20 ADD SWAP1 MLOAD DUP2 ADD SWAP1 PUSH2 0x1601 SWAP2 SWAP1 PUSH2 0x2F49 JUMP JUMPDEST SWAP1 POP DUP1 PUSH1 0x60 ADD MLOAD SWAP2 POP PUSH2 0x1617 DUP2 PUSH1 0xC0 ADD MLOAD PUSH2 0xBDF JUMP JUMPDEST POP PUSH2 0x164F JUMP JUMPDEST PUSH1 0x0 DUP3 PUSH1 0xA0 ADD MLOAD DUP1 PUSH1 0x20 ADD SWAP1 MLOAD DUP2 ADD SWAP1 PUSH2 0x1637 SWAP2 SWAP1 PUSH2 0x3019 JUMP JUMPDEST SWAP1 POP DUP1 PUSH1 0x80 ADD MLOAD SWAP2 POP PUSH2 0x164D DUP2 PUSH1 0xE0 ADD MLOAD PUSH2 0xBDF JUMP JUMPDEST POP JUMPDEST DUP2 PUSH1 0x20 ADD MLOAD ISZERO PUSH2 0xBB7 JUMPI PUSH2 0xBB7 DUP2 PUSH1 0x0 PUSH2 0x16C7 JUMP JUMPDEST PUSH1 0x0 DUP3 DUP3 ADD DUP4 DUP2 LT ISZERO PUSH2 0x16BE JUMPI PUSH1 0x40 DUP1 MLOAD PUSH3 0x461BCD PUSH1 0xE5 SHL DUP2 MSTORE PUSH1 0x20 PUSH1 0x4 DUP3 ADD MSTORE PUSH1 0x1B PUSH1 0x24 DUP3 ADD MSTORE PUSH32 0x536166654D6174683A206164646974696F6E206F766572666C6F770000000000 PUSH1 0x44 DUP3 ADD MSTORE SWAP1 MLOAD SWAP1 DUP2 SWAP1 SUB PUSH1 0x64 ADD SWAP1 REVERT JUMPDEST SWAP1 POP JUMPDEST SWAP3 SWAP2 POP POP JUMP JUMPDEST PUSH1 0x40 MLOAD PUSH4 0x70A08231 PUSH1 0xE0 SHL DUP2 MSTORE PUSH1 0x0 SWAP1 PUSH1 0x1 PUSH1 0x1 PUSH1 0xA0 SHL SUB DUP5 AND SWAP1 PUSH4 0x70A08231 SWAP1 PUSH2 0x16F6 SWAP1 ADDRESS SWAP1 PUSH1 0x4 ADD PUSH2 0x34AE JUMP JUMPDEST PUSH1 0x20 PUSH1 0x40 MLOAD DUP1 DUP4 SUB DUP2 DUP7 DUP1 EXTCODESIZE ISZERO DUP1 ISZERO PUSH2 0x170E JUMPI PUSH1 0x0 DUP1 REVERT JUMPDEST POP GAS STATICCALL ISZERO DUP1 ISZERO PUSH2 0x1722 JUMPI RETURNDATASIZE PUSH1 0x0 DUP1 RETURNDATACOPY RETURNDATASIZE PUSH1 0x0 REVERT JUMPDEST POP POP POP POP PUSH1 0x40 MLOAD RETURNDATASIZE PUSH1 0x1F NOT PUSH1 0x1F DUP3 ADD AND DUP3 ADD DUP1 PUSH1 0x40 MSTORE POP DUP2 ADD SWAP1 PUSH2 0x1746 SWAP2 SWAP1 PUSH2 0x339B JUMP JUMPDEST SWAP1 POP DUP2 DUP2 GT ISZERO PUSH2 0x96E JUMPI PUSH1 0x1 SLOAD PUSH2 0x96E SWAP1 PUSH1 0x1 PUSH1 0x1 PUSH1 0xA0 SHL SUB AND PUSH2 0x176A DUP4 DUP6 PUSH2 0x2229 JUMP JUMPDEST PUSH1 0x1 PUSH1 0x1 PUSH1 0xA0 SHL SUB DUP7 AND SWAP2 SWAP1 JUMPDEST PUSH1 0x40 DUP1 MLOAD PUSH1 0x1 PUSH1 0x1 PUSH1 0xA0 SHL SUB DUP5 AND PUSH1 0x24 DUP3 ADD MSTORE PUSH1 0x44 DUP1 DUP3 ADD DUP5 SWAP1 MSTORE DUP3 MLOAD DUP1 DUP4 SUB SWAP1 SWAP2 ADD DUP2 MSTORE PUSH1 0x64 SWAP1 SWAP2 ADD SWAP1 SWAP2 MSTORE PUSH1 0x20 DUP2 ADD DUP1 MLOAD PUSH1 0x1 PUSH1 0x1 PUSH1 0xE0 SHL SUB AND PUSH4 0xA9059CBB PUSH1 0xE0 SHL OR SWAP1 MSTORE PUSH2 0x96E SWAP1 DUP5 SWAP1 PUSH2 0x2286 JUMP JUMPDEST PUSH32 0x0 PUSH1 0x1 PUSH1 0x1 PUSH1 0xA0 SHL SUB AND PUSH4 0xD0E30DB0 SELFBALANCE PUSH1 0x40 MLOAD DUP3 PUSH4 0xFFFFFFFF AND PUSH1 0xE0 SHL DUP2 MSTORE PUSH1 0x4 ADD PUSH1 0x0 PUSH1 0x40 MLOAD DUP1 DUP4 SUB DUP2 DUP6 DUP9 DUP1 EXTCODESIZE ISZERO DUP1 ISZERO PUSH2 0x1824 JUMPI PUSH1 0x0 DUP1 REVERT JUMPDEST POP GAS CALL ISZERO DUP1 ISZERO PUSH2 0x1367 JUMPI RETURNDATASIZE PUSH1 0x0 DUP1 RETURNDATACOPY RETURNDATASIZE PUSH1 0x0 REVERT JUMPDEST PUSH1 0x0 DUP1 PUSH2 0x1844 DUP4 PUSH2 0x2337 JUMP JUMPDEST SWAP1 POP PUSH1 0x1 PUSH1 0x1 PUSH1 0xA0 SHL SUB DUP2 AND PUSH2 0x1877 JUMPI POP PUSH32 0x0 JUMPDEST SWAP1 POP JUMPDEST SWAP2 SWAP1 POP JUMP JUMPDEST DUP1 ISZERO DUP1 PUSH2 0x1905 JUMPI POP PUSH1 0x40 DUP1 MLOAD PUSH4 0x6EB1769F PUSH1 0xE1 SHL DUP2 MSTORE ADDRESS PUSH1 0x4 DUP3 ADD MSTORE PUSH1 0x1 PUSH1 0x1 PUSH1 0xA0 SHL SUB DUP5 DUP2 AND PUSH1 0x24 DUP4 ADD MSTORE SWAP2 MLOAD SWAP2 DUP6 AND SWAP2 PUSH4 0xDD62ED3E SWAP2 PUSH1 0x44 DUP1 DUP3 ADD SWAP3 PUSH1 0x20 SWAP3 SWAP1 SWAP2 SWAP1 DUP3 SWAP1 SUB ADD DUP2 DUP7 DUP1 EXTCODESIZE ISZERO DUP1 ISZERO PUSH2 0x18D7 JUMPI PUSH1 0x0 DUP1 REVERT JUMPDEST POP GAS STATICCALL ISZERO DUP1 ISZERO PUSH2 0x18EB JUMPI RETURNDATASIZE PUSH1 0x0 DUP1 RETURNDATACOPY RETURNDATASIZE PUSH1 0x0 REVERT JUMPDEST POP POP POP POP PUSH1 0x40 MLOAD RETURNDATASIZE PUSH1 0x20 DUP2 LT ISZERO PUSH2 0x1901 JUMPI PUSH1 0x0 DUP1 REVERT JUMPDEST POP MLOAD ISZERO JUMPDEST PUSH2 0x1940 JUMPI PUSH1 0x40 MLOAD PUSH3 0x461BCD PUSH1 0xE5 SHL DUP2 MSTORE PUSH1 0x4 ADD DUP1 DUP1 PUSH1 0x20 ADD DUP3 DUP2 SUB DUP3 MSTORE PUSH1 0x36 DUP2 MSTORE PUSH1 0x20 ADD DUP1 PUSH2 0x3A48 PUSH1 0x36 SWAP2 CODECOPY PUSH1 0x40 ADD SWAP2 POP POP PUSH1 0x40 MLOAD DUP1 SWAP2 SUB SWAP1 REVERT JUMPDEST PUSH1 0x40 DUP1 MLOAD PUSH1 0x1 PUSH1 0x1 PUSH1 0xA0 SHL SUB DUP5 AND PUSH1 0x24 DUP3 ADD MSTORE PUSH1 0x44 DUP1 DUP3 ADD DUP5 SWAP1 MSTORE DUP3 MLOAD DUP1 DUP4 SUB SWAP1 SWAP2 ADD DUP2 MSTORE PUSH1 0x64 SWAP1 SWAP2 ADD SWAP1 SWAP2 MSTORE PUSH1 0x20 DUP2 ADD DUP1 MLOAD PUSH1 0x1 PUSH1 0x1 PUSH1 0xE0 SHL SUB AND PUSH4 0x95EA7B3 PUSH1 0xE0 SHL OR SWAP1 MSTORE PUSH2 0x96E SWAP1 DUP5 SWAP1 PUSH2 0x2286 JUMP JUMPDEST PUSH1 0x0 DUP1 PUSH1 0x0 DUP1 DUP6 PUSH1 0x1 PUSH1 0x1 PUSH1 0xA0 SHL SUB AND PUSH4 0xAAF10F42 PUSH1 0x40 MLOAD DUP2 PUSH4 0xFFFFFFFF AND PUSH1 0xE0 SHL DUP2 MSTORE PUSH1 0x4 ADD PUSH1 0x20 PUSH1 0x40 MLOAD DUP1 DUP4 SUB DUP2 DUP7 DUP1 EXTCODESIZE ISZERO DUP1 ISZERO PUSH2 0x19D1 JUMPI PUSH1 0x0 DUP1 REVERT JUMPDEST POP GAS STATICCALL ISZERO DUP1 ISZERO PUSH2 0x19E5 JUMPI RETURNDATASIZE PUSH1 0x0 DUP1 RETURNDATACOPY RETURNDATASIZE PUSH1 0x0 REVERT JUMPDEST POP POP POP POP PUSH1 0x40 MLOAD RETURNDATASIZE PUSH1 0x1F NOT PUSH1 0x1F DUP3 ADD AND DUP3 ADD DUP1 PUSH1 0x40 MSTORE POP DUP2 ADD SWAP1 PUSH2 0x1A09 SWAP2 SWAP1 PUSH2 0x2C43 JUMP JUMPDEST PUSH1 0x1 PUSH1 0x1 PUSH1 0xA0 SHL SUB AND PUSH4 0x5CAF9FDA PUSH1 0xE0 SHL DUP9 DUP11 DUP9 PUSH1 0x40 MLOAD PUSH1 0x24 ADD PUSH2 0x1A2F SWAP4 SWAP3 SWAP2 SWAP1 PUSH2 0x38E5 JUMP JUMPDEST PUSH1 0x40 DUP1 MLOAD PUSH1 0x1F NOT DUP2 DUP5 SUB ADD DUP2 MSTORE SWAP2 DUP2 MSTORE PUSH1 0x20 DUP3 ADD DUP1 MLOAD PUSH1 0x1 PUSH1 0x1 PUSH1 0xE0 SHL SUB AND PUSH1 0x1 PUSH1 0x1 PUSH1 0xE0 SHL SUB NOT SWAP1 SWAP5 AND SWAP4 SWAP1 SWAP4 OR SWAP1 SWAP3 MSTORE SWAP1 MLOAD PUSH2 0x1A6D SWAP2 SWAP1 PUSH2 0x3492 JUMP JUMPDEST PUSH1 0x0 PUSH1 0x40 MLOAD DUP1 DUP4 SUB DUP2 DUP6 GAS DELEGATECALL SWAP2 POP POP RETURNDATASIZE DUP1 PUSH1 0x0 DUP2 EQ PUSH2 0x1AA8 JUMPI PUSH1 0x40 MLOAD SWAP2 POP PUSH1 0x1F NOT PUSH1 0x3F RETURNDATASIZE ADD AND DUP3 ADD PUSH1 0x40 MSTORE RETURNDATASIZE DUP3 MSTORE RETURNDATASIZE PUSH1 0x0 PUSH1 0x20 DUP5 ADD RETURNDATACOPY PUSH2 0x1AAD JUMP JUMPDEST PUSH1 0x60 SWAP2 POP JUMPDEST POP SWAP2 POP SWAP2 POP DUP2 PUSH2 0x1ABC JUMPI PUSH1 0x0 DUP1 REVERT JUMPDEST DUP1 DUP1 PUSH1 0x20 ADD SWAP1 MLOAD DUP2 ADD SWAP1 PUSH2 0x1AD0 SWAP2 SWAP1 PUSH2 0x2EF9 JUMP JUMPDEST SWAP1 SWAP10 SWAP1 SWAP9 POP SWAP7 POP POP POP POP POP POP POP JUMP JUMPDEST PUSH1 0x0 DUP1 PUSH1 0x0 DUP1 DUP5 PUSH1 0x1 PUSH1 0x1 PUSH1 0xA0 SHL SUB AND PUSH4 0xAAF10F42 PUSH1 0x40 MLOAD DUP2 PUSH4 0xFFFFFFFF AND PUSH1 0xE0 SHL DUP2 MSTORE PUSH1 0x4 ADD PUSH1 0x20 PUSH1 0x40 MLOAD DUP1 DUP4 SUB DUP2 DUP7 DUP1 EXTCODESIZE ISZERO DUP1 ISZERO PUSH2 0x1B1E JUMPI PUSH1 0x0 DUP1 REVERT JUMPDEST POP GAS STATICCALL ISZERO DUP1 ISZERO PUSH2 0x1B32 JUMPI RETURNDATASIZE PUSH1 0x0 DUP1 RETURNDATACOPY RETURNDATASIZE PUSH1 0x0 REVERT JUMPDEST POP POP POP POP PUSH1 0x40 MLOAD RETURNDATASIZE PUSH1 0x1F NOT PUSH1 0x1F DUP3 ADD AND DUP3 ADD DUP1 PUSH1 0x40 MSTORE POP DUP2 ADD SWAP1 PUSH2 0x1B56 SWAP2 SWAP1 PUSH2 0x2C43 JUMP JUMPDEST PUSH1 0x1 PUSH1 0x1 PUSH1 0xA0 SHL SUB AND PUSH4 0x2BA8C23C PUSH1 0xE0 SHL DUP8 DUP10 PUSH1 0x40 MLOAD PUSH1 0x24 ADD PUSH2 0x1B7A SWAP3 SWAP2 SWAP1 PUSH2 0x38C8 JUMP JUMPDEST PUSH1 0x40 DUP1 MLOAD PUSH1 0x1F NOT DUP2 DUP5 SUB ADD DUP2 MSTORE SWAP2 DUP2 MSTORE PUSH1 0x20 DUP3 ADD DUP1 MLOAD PUSH1 0x1 PUSH1 0x1 PUSH1 0xE0 SHL SUB AND PUSH1 0x1 PUSH1 0x1 PUSH1 0xE0 SHL SUB NOT SWAP1 SWAP5 AND SWAP4 SWAP1 SWAP4 OR SWAP1 SWAP3 MSTORE SWAP1 MLOAD PUSH2 0x1BB8 SWAP2 SWAP1 PUSH2 0x3492 JUMP JUMPDEST PUSH1 0x0 PUSH1 0x40 MLOAD DUP1 DUP4 SUB DUP2 DUP6 GAS DELEGATECALL SWAP2 POP POP RETURNDATASIZE DUP1 PUSH1 0x0 DUP2 EQ PUSH2 0x1BF3 JUMPI PUSH1 0x40 MLOAD SWAP2 POP PUSH1 0x1F NOT PUSH1 0x3F RETURNDATASIZE ADD AND DUP3 ADD PUSH1 0x40 MSTORE RETURNDATASIZE DUP3 MSTORE RETURNDATASIZE PUSH1 0x0 PUSH1 0x20 DUP5 ADD RETURNDATACOPY PUSH2 0x1BF8 JUMP JUMPDEST PUSH1 0x60 SWAP2 POP JUMPDEST POP SWAP2 POP SWAP2 POP DUP2 PUSH2 0x1C07 JUMPI PUSH1 0x0 DUP1 REVERT JUMPDEST DUP1 DUP1 PUSH1 0x20 ADD SWAP1 MLOAD DUP2 ADD SWAP1 PUSH2 0x1C1B SWAP2 SWAP1 PUSH2 0x2EF9 JUMP JUMPDEST SWAP1 SWAP9 SWAP1 SWAP8 POP SWAP6 POP POP POP POP POP POP JUMP JUMPDEST PUSH1 0x40 MLOAD PUSH4 0x6EB1769F PUSH1 0xE1 SHL DUP2 MSTORE PUSH1 0x1 PUSH1 0x80 SHL SWAP1 PUSH1 0x1 PUSH1 0x1 PUSH1 0xA0 SHL SUB DUP5 AND SWAP1 PUSH4 0xDD62ED3E SWAP1 PUSH2 0x1C5D SWAP1 ADDRESS SWAP1 DUP7 SWAP1 PUSH1 0x4 ADD PUSH2 0x361F JUMP JUMPDEST PUSH1 0x20 PUSH1 0x40 MLOAD DUP1 DUP4 SUB DUP2 DUP7 DUP1 EXTCODESIZE ISZERO DUP1 ISZERO PUSH2 0x1C75 JUMPI PUSH1 0x0 DUP1 REVERT JUMPDEST POP GAS STATICCALL ISZERO DUP1 ISZERO PUSH2 0x1C89 JUMPI RETURNDATASIZE PUSH1 0x0 DUP1 RETURNDATACOPY RETURNDATASIZE PUSH1 0x0 REVERT JUMPDEST POP POP POP POP PUSH1 0x40 MLOAD RETURNDATASIZE PUSH1 0x1F NOT PUSH1 0x1F DUP3 ADD AND DUP3 ADD DUP1 PUSH1 0x40 MSTORE POP DUP2 ADD SWAP1 PUSH2 0x1CAD SWAP2 SWAP1 PUSH2 0x339B JUMP JUMPDEST LT ISZERO PUSH2 0xBB7 JUMPI PUSH2 0xBB7 PUSH1 0x1 PUSH1 0x1 PUSH1 0xA0 SHL SUB DUP4 AND DUP3 PUSH1 0x0 NOT PUSH2 0x187F JUMP JUMPDEST PUSH1 0x40 DUP1 MLOAD PUSH1 0x1 DUP1 DUP3 MSTORE DUP2 DUP4 ADD SWAP1 SWAP3 MSTORE PUSH1 0x0 SWAP2 DUP2 PUSH1 0x20 ADD JUMPDEST PUSH2 0x1CE8 PUSH2 0x27FC JUMP JUMPDEST DUP2 MSTORE PUSH1 0x20 ADD SWAP1 PUSH1 0x1 SWAP1 SUB SWAP1 DUP2 PUSH2 0x1CE0 JUMPI SWAP1 POP POP SWAP1 POP PUSH1 0x1 PUSH1 0x1 PUSH1 0x60 SHL SUB DUP4 AND ISZERO PUSH2 0x1D13 JUMPI PUSH1 0x5 PUSH2 0x1D16 JUMP JUMPDEST PUSH1 0x0 JUMPDEST DUP2 PUSH1 0x0 DUP2 MLOAD DUP2 LT PUSH2 0x1D23 JUMPI INVALID JUMPDEST PUSH1 0x20 MUL PUSH1 0x20 ADD ADD MLOAD PUSH1 0x0 ADD SWAP1 PUSH1 0x6 DUP2 GT ISZERO PUSH2 0x1D3A JUMPI INVALID JUMPDEST SWAP1 DUP2 PUSH1 0x6 DUP2 GT ISZERO PUSH2 0x1D47 JUMPI INVALID JUMPDEST DUP2 MSTORE POP POP DUP4 DUP2 PUSH1 0x0 DUP2 MLOAD DUP2 LT PUSH2 0x1D59 JUMPI INVALID JUMPDEST PUSH1 0x20 MUL PUSH1 0x20 ADD ADD MLOAD PUSH1 0x20 ADD SWAP1 PUSH2 0xFFFF AND SWAP1 DUP2 PUSH2 0xFFFF AND DUP2 MSTORE POP POP DUP3 PUSH1 0x1 PUSH1 0x1 PUSH1 0x60 SHL SUB AND DUP2 PUSH1 0x0 DUP2 MLOAD DUP2 LT PUSH2 0x1D8A JUMPI INVALID JUMPDEST PUSH1 0x20 MUL PUSH1 0x20 ADD ADD MLOAD PUSH1 0x40 ADD DUP2 DUP2 MSTORE POP POP PUSH1 0x1 DUP2 PUSH1 0x0 DUP2 MLOAD DUP2 LT PUSH2 0x1DA9 JUMPI INVALID JUMPDEST PUSH1 0x20 MUL PUSH1 0x20 ADD ADD MLOAD PUSH1 0x80 ADD SWAP1 ISZERO ISZERO SWAP1 DUP2 ISZERO ISZERO DUP2 MSTORE POP POP DUP2 DUP2 PUSH1 0x0 DUP2 MLOAD DUP2 LT PUSH2 0x1DCD JUMPI INVALID JUMPDEST PUSH1 0x20 SWAP1 DUP2 MUL SWAP2 SWAP1 SWAP2 ADD ADD MLOAD SWAP1 ISZERO ISZERO PUSH1 0xA0 SWAP1 SWAP2 ADD MSTORE PUSH1 0x40 MLOAD PUSH4 0x37351953 PUSH1 0xE1 SHL DUP2 MSTORE PUSH1 0x1 PUSH1 0x1 PUSH1 0xA0 SHL SUB PUSH32 0x0 AND SWAP1 PUSH4 0x6E6A32A6 SWAP1 PUSH2 0x1E2F SWAP1 ADDRESS SWAP1 DUP6 SWAP1 PUSH1 0x4 ADD PUSH2 0x3587 JUMP JUMPDEST PUSH1 0x0 PUSH1 0x40 MLOAD DUP1 DUP4 SUB DUP2 PUSH1 0x0 DUP8 DUP1 EXTCODESIZE ISZERO DUP1 ISZERO PUSH2 0x1E49 JUMPI PUSH1 0x0 DUP1 REVERT JUMPDEST POP GAS CALL ISZERO DUP1 ISZERO PUSH2 0x1E5D JUMPI RETURNDATASIZE PUSH1 0x0 DUP1 RETURNDATACOPY RETURNDATASIZE PUSH1 0x0 REVERT JUMPDEST POP POP POP POP POP POP POP POP JUMP JUMPDEST PUSH1 0x0 DUP1 DUP3 SLT ISZERO PUSH2 0x1E81 JUMPI PUSH2 0x1E7A DUP3 PUSH2 0x241F JUMP JUMPDEST SWAP1 POP PUSH2 0x187A JUMP JUMPDEST POP DUP1 PUSH2 0x187A JUMP JUMPDEST PUSH1 0x40 DUP1 MLOAD PUSH1 0x1 DUP1 DUP3 MSTORE DUP2 DUP4 ADD SWAP1 SWAP3 MSTORE TIMESTAMP SWAP2 PUSH1 0x0 SWAP2 SWAP1 DUP2 PUSH1 0x20 ADD JUMPDEST PUSH2 0x1EAA PUSH2 0x2833 JUMP JUMPDEST DUP2 MSTORE PUSH1 0x20 ADD SWAP1 PUSH1 0x1 SWAP1 SUB SWAP1 DUP2 PUSH2 0x1EA2 JUMPI SWAP1 POP POP SWAP1 POP PUSH1 0x0 DUP5 GT PUSH2 0x1ECE JUMPI PUSH1 0x0 PUSH2 0x1ED1 JUMP JUMPDEST PUSH1 0x1 JUMPDEST DUP2 PUSH1 0x0 DUP2 MLOAD DUP2 LT PUSH2 0x1EDE JUMPI INVALID JUMPDEST PUSH1 0x20 MUL PUSH1 0x20 ADD ADD MLOAD PUSH1 0x0 ADD SWAP1 PUSH1 0x6 DUP2 GT ISZERO PUSH2 0x1EF5 JUMPI INVALID JUMPDEST SWAP1 DUP2 PUSH1 0x6 DUP2 GT ISZERO PUSH2 0x1F02 JUMPI INVALID JUMPDEST DUP2 MSTORE POP POP DUP4 DUP2 PUSH1 0x0 DUP2 MLOAD DUP2 LT PUSH2 0x1F14 JUMPI INVALID JUMPDEST PUSH1 0x20 MUL PUSH1 0x20 ADD ADD MLOAD PUSH1 0x40 ADD DUP2 DUP2 MSTORE POP POP DUP7 DUP2 PUSH1 0x0 DUP2 MLOAD DUP2 LT PUSH2 0x1F32 JUMPI INVALID JUMPDEST PUSH1 0x20 MUL PUSH1 0x20 ADD ADD MLOAD PUSH1 0x20 ADD SWAP1 PUSH2 0xFFFF AND SWAP1 DUP2 PUSH2 0xFFFF AND DUP2 MSTORE POP POP PUSH1 0x1 DUP2 PUSH1 0x0 DUP2 MLOAD DUP2 LT PUSH2 0x1F5B JUMPI INVALID JUMPDEST PUSH1 0x20 MUL PUSH1 0x20 ADD ADD MLOAD PUSH1 0x80 ADD SWAP1 ISZERO ISZERO SWAP1 DUP2 ISZERO ISZERO DUP2 MSTORE POP POP DUP3 DUP2 PUSH1 0x0 DUP2 MLOAD DUP2 LT PUSH2 0x1F7F JUMPI INVALID JUMPDEST PUSH1 0x20 MUL PUSH1 0x20 ADD ADD MLOAD PUSH1 0xA0 ADD SWAP1 ISZERO ISZERO SWAP1 DUP2 ISZERO ISZERO DUP2 MSTORE POP POP PUSH1 0x0 DUP1 DUP8 MLOAD PUSH1 0x1 PUSH1 0x1 PUSH1 0x40 SHL SUB DUP2 GT DUP1 ISZERO PUSH2 0x1FAF JUMPI PUSH1 0x0 DUP1 REVERT JUMPDEST POP PUSH1 0x40 MLOAD SWAP1 DUP1 DUP3 MSTORE DUP1 PUSH1 0x20 MUL PUSH1 0x20 ADD DUP3 ADD PUSH1 0x40 MSTORE DUP1 ISZERO PUSH2 0x1FD9 JUMPI DUP2 PUSH1 0x20 ADD PUSH1 0x20 DUP3 MUL DUP1 CALLDATASIZE DUP4 CALLDATACOPY ADD SWAP1 POP JUMPDEST POP SWAP1 POP PUSH1 0x0 JUMPDEST DUP8 MLOAD DUP2 LT ISZERO PUSH2 0x20CF JUMPI DUP8 DUP2 DUP2 MLOAD DUP2 LT PUSH2 0x1FF4 JUMPI INVALID JUMPDEST PUSH1 0x20 MUL PUSH1 0x20 ADD ADD MLOAD PUSH1 0x0 EQ ISZERO PUSH2 0x2009 JUMPI PUSH2 0x20C7 JUMP JUMPDEST PUSH1 0x0 DUP1 PUSH2 0x202B PUSH1 0x7 DUP13 DUP6 DUP2 MLOAD DUP2 LT PUSH2 0x201D JUMPI INVALID JUMPDEST PUSH1 0x20 MUL PUSH1 0x20 ADD ADD MLOAD DUP10 PUSH2 0x242D JUMP JUMPDEST SWAP2 POP SWAP2 POP DUP1 ISZERO PUSH2 0x203C JUMPI POP POP PUSH2 0x20C7 JUMP JUMPDEST PUSH1 0x98 PUSH2 0x205A DUP12 DUP6 DUP2 MLOAD DUP2 LT PUSH2 0x204D JUMPI INVALID JUMPDEST PUSH1 0x20 MUL PUSH1 0x20 ADD ADD MLOAD PUSH2 0x1E67 JUMP JUMPDEST PUSH11 0xFFFFFFFFFFFFFFFFFFFFFF AND SWAP1 SHL PUSH1 0xF0 DUP4 SWAP1 SHL PUSH1 0xF8 PUSH1 0x0 DUP14 DUP8 DUP2 MLOAD DUP2 LT PUSH2 0x207E JUMPI INVALID JUMPDEST PUSH1 0x20 MUL PUSH1 0x20 ADD ADD MLOAD SGT PUSH2 0x2092 JUMPI PUSH1 0x0 PUSH2 0x2095 JUMP JUMPDEST PUSH1 0x1 JUMPDEST PUSH1 0x5 DUP2 GT ISZERO PUSH2 0x20A0 JUMPI INVALID JUMPDEST SWAP1 SHL OR OR PUSH1 0x0 SHL DUP5 DUP7 DUP2 MLOAD DUP2 LT PUSH2 0x20B3 JUMPI INVALID JUMPDEST PUSH1 0x20 SWAP1 DUP2 MUL SWAP2 SWAP1 SWAP2 ADD ADD MSTORE POP POP PUSH1 0x1 SWAP1 SWAP3 ADD SWAP2 JUMPDEST PUSH1 0x1 ADD PUSH2 0x1FDF JUMP JUMPDEST POP DUP1 MLOAD DUP3 LT ISZERO PUSH2 0x2180 JUMPI PUSH1 0x0 DUP3 PUSH1 0x1 PUSH1 0x1 PUSH1 0x40 SHL SUB DUP2 GT DUP1 ISZERO PUSH2 0x20F1 JUMPI PUSH1 0x0 DUP1 REVERT JUMPDEST POP PUSH1 0x40 MLOAD SWAP1 DUP1 DUP3 MSTORE DUP1 PUSH1 0x20 MUL PUSH1 0x20 ADD DUP3 ADD PUSH1 0x40 MSTORE DUP1 ISZERO PUSH2 0x211B JUMPI DUP2 PUSH1 0x20 ADD PUSH1 0x20 DUP3 MUL DUP1 CALLDATASIZE DUP4 CALLDATACOPY ADD SWAP1 POP JUMPDEST POP SWAP1 POP PUSH1 0x0 JUMPDEST DUP4 DUP2 LT ISZERO PUSH2 0x215C JUMPI DUP3 DUP2 DUP2 MLOAD DUP2 LT PUSH2 0x2135 JUMPI INVALID JUMPDEST PUSH1 0x20 MUL PUSH1 0x20 ADD ADD MLOAD DUP3 DUP3 DUP2 MLOAD DUP2 LT PUSH2 0x2149 JUMPI INVALID JUMPDEST PUSH1 0x20 SWAP1 DUP2 MUL SWAP2 SWAP1 SWAP2 ADD ADD MSTORE PUSH1 0x1 ADD PUSH2 0x2121 JUMP JUMPDEST POP DUP1 DUP5 PUSH1 0x0 DUP2 MLOAD DUP2 LT PUSH2 0x216B JUMPI INVALID JUMPDEST PUSH1 0x20 MUL PUSH1 0x20 ADD ADD MLOAD PUSH1 0xC0 ADD DUP2 SWAP1 MSTORE POP POP PUSH2 0x219E JUMP JUMPDEST DUP1 DUP4 PUSH1 0x0 DUP2 MLOAD DUP2 LT PUSH2 0x218E JUMPI INVALID JUMPDEST PUSH1 0x20 MUL PUSH1 0x20 ADD ADD MLOAD PUSH1 0xC0 ADD DUP2 SWAP1 MSTORE POP JUMPDEST PUSH1 0x40 MLOAD PUSH4 0x276B64B PUSH1 0xE0 SHL DUP2 MSTORE PUSH1 0x1 PUSH1 0x1 PUSH1 0xA0 SHL SUB PUSH32 0x0 AND SWAP1 PUSH4 0x276B64B SWAP1 PUSH2 0x21EC SWAP1 ADDRESS SWAP1 DUP8 SWAP1 PUSH1 0x4 ADD PUSH2 0x34C2 JUMP JUMPDEST PUSH1 0x0 PUSH1 0x40 MLOAD DUP1 DUP4 SUB DUP2 PUSH1 0x0 DUP8 DUP1 EXTCODESIZE ISZERO DUP1 ISZERO PUSH2 0x2206 JUMPI PUSH1 0x0 DUP1 REVERT JUMPDEST POP GAS CALL ISZERO DUP1 ISZERO PUSH2 0x221A JUMPI RETURNDATASIZE PUSH1 0x0 DUP1 RETURNDATACOPY RETURNDATASIZE PUSH1 0x0 REVERT JUMPDEST POP POP POP POP POP POP POP POP POP POP POP POP POP JUMP JUMPDEST PUSH1 0x0 DUP3 DUP3 GT ISZERO PUSH2 0x2280 JUMPI PUSH1 0x40 DUP1 MLOAD PUSH3 0x461BCD PUSH1 0xE5 SHL DUP2 MSTORE PUSH1 0x20 PUSH1 0x4 DUP3 ADD MSTORE PUSH1 0x1E PUSH1 0x24 DUP3 ADD MSTORE PUSH32 0x536166654D6174683A207375627472616374696F6E206F766572666C6F770000 PUSH1 0x44 DUP3 ADD MSTORE SWAP1 MLOAD SWAP1 DUP2 SWAP1 SUB PUSH1 0x64 ADD SWAP1 REVERT JUMPDEST POP SWAP1 SUB SWAP1 JUMP JUMPDEST PUSH1 0x0 PUSH2 0x22DB DUP3 PUSH1 0x40 MLOAD DUP1 PUSH1 0x40 ADD PUSH1 0x40 MSTORE DUP1 PUSH1 0x20 DUP2 MSTORE PUSH1 0x20 ADD PUSH32 0x5361666545524332303A206C6F772D6C6576656C2063616C6C206661696C6564 DUP2 MSTORE POP DUP6 PUSH1 0x1 PUSH1 0x1 PUSH1 0xA0 SHL SUB AND PUSH2 0x24BC SWAP1 SWAP3 SWAP2 SWAP1 PUSH4 0xFFFFFFFF AND JUMP JUMPDEST DUP1 MLOAD SWAP1 SWAP2 POP ISZERO PUSH2 0x96E JUMPI DUP1 DUP1 PUSH1 0x20 ADD SWAP1 MLOAD PUSH1 0x20 DUP2 LT ISZERO PUSH2 0x22FA JUMPI PUSH1 0x0 DUP1 REVERT JUMPDEST POP MLOAD PUSH2 0x96E JUMPI PUSH1 0x40 MLOAD PUSH3 0x461BCD PUSH1 0xE5 SHL DUP2 MSTORE PUSH1 0x4 ADD DUP1 DUP1 PUSH1 0x20 ADD DUP3 DUP2 SUB DUP3 MSTORE PUSH1 0x2A DUP2 MSTORE PUSH1 0x20 ADD DUP1 PUSH2 0x3A1E PUSH1 0x2A SWAP2 CODECOPY PUSH1 0x40 ADD SWAP2 POP POP PUSH1 0x40 MLOAD DUP1 SWAP2 SUB SWAP1 REVERT JUMPDEST PUSH1 0x0 DUP1 PUSH32 0x0 PUSH1 0x1 PUSH1 0x1 PUSH1 0xA0 SHL SUB AND PUSH4 0x4EBAD18E DUP5 PUSH1 0x40 MLOAD DUP3 PUSH4 0xFFFFFFFF AND PUSH1 0xE0 SHL DUP2 MSTORE PUSH1 0x4 ADD PUSH2 0x2386 SWAP2 SWAP1 PUSH2 0x38B9 JUMP JUMPDEST PUSH2 0x140 PUSH1 0x40 MLOAD DUP1 DUP4 SUB DUP2 DUP7 DUP1 EXTCODESIZE ISZERO DUP1 ISZERO PUSH2 0x239F JUMPI PUSH1 0x0 DUP1 REVERT JUMPDEST POP GAS STATICCALL ISZERO DUP1 ISZERO PUSH2 0x23B3 JUMPI RETURNDATASIZE PUSH1 0x0 DUP1 RETURNDATACOPY RETURNDATASIZE PUSH1 0x0 REVERT JUMPDEST POP POP POP POP PUSH1 0x40 MLOAD RETURNDATASIZE PUSH1 0x1F NOT PUSH1 0x1F DUP3 ADD AND DUP3 ADD DUP1 PUSH1 0x40 MSTORE POP DUP2 ADD SWAP1 PUSH2 0x23D7 SWAP2 SWAP1 PUSH2 0x3318 JUMP JUMPDEST DUP1 MLOAD SWAP1 SWAP3 POP PUSH1 0x1 PUSH1 0x1 PUSH1 0xA0 SHL SUB AND ISZERO SWAP1 POP PUSH2 0x2418 JUMPI DUP1 MLOAD PUSH2 0x2418 SWAP1 PUSH32 0x0 PUSH2 0x1C29 JUMP JUMPDEST MLOAD SWAP3 SWAP2 POP POP JUMP JUMPDEST PUSH1 0x0 PUSH2 0x1877 PUSH1 0x0 NOT DUP4 PUSH2 0x24D5 JUMP JUMPDEST PUSH1 0x0 DUP1 PUSH1 0x0 DUP6 GT PUSH2 0x243D JUMPI PUSH1 0x0 DUP1 REVERT JUMPDEST PUSH1 0x7 DUP6 GT ISZERO PUSH2 0x244B JUMPI PUSH1 0x0 DUP1 REVERT JUMPDEST PUSH1 0x0 PUSH2 0x2456 DUP5 PUSH2 0x2523 JUMP JUMPDEST SWAP1 POP PUSH1 0x1 JUMPDEST DUP7 DUP2 GT PUSH2 0x24AE JUMPI PUSH1 0x0 PUSH2 0x2477 PUSH2 0x2470 DUP4 PUSH2 0x2541 JUMP JUMPDEST DUP5 SWAP1 PUSH2 0x25E5 JUMP JUMPDEST SWAP1 POP DUP7 DUP2 EQ ISZERO PUSH2 0x248F JUMPI POP SWAP3 POP PUSH1 0x0 SWAP2 POP PUSH2 0x24B4 SWAP1 POP JUMP JUMPDEST DUP7 DUP2 GT ISZERO PUSH2 0x24A5 JUMPI POP SWAP3 POP PUSH1 0x1 SWAP2 POP PUSH2 0x24B4 SWAP1 POP JUMP JUMPDEST POP PUSH1 0x1 ADD PUSH2 0x245B JUMP JUMPDEST POP PUSH1 0x0 DUP1 REVERT JUMPDEST SWAP4 POP SWAP4 SWAP2 POP POP JUMP JUMPDEST PUSH1 0x60 PUSH2 0x24CB DUP5 DUP5 PUSH1 0x0 DUP6 PUSH2 0x25F7 JUMP JUMPDEST SWAP1 POP JUMPDEST SWAP4 SWAP3 POP POP POP JUMP JUMPDEST DUP2 DUP2 MUL PUSH1 0x0 NOT DUP4 EQ ISZERO PUSH2 0x2505 JUMPI DUP2 ISZERO DUP1 PUSH2 0x24F7 JUMPI POP DUP3 DUP3 DUP3 DUP2 PUSH2 0x24F4 JUMPI INVALID JUMPDEST SDIV EQ JUMPDEST PUSH2 0x2500 JUMPI PUSH1 0x0 DUP1 REVERT JUMPDEST PUSH2 0x16C1 JUMP JUMPDEST DUP3 ISZERO DUP1 PUSH2 0x251A JUMPI POP DUP2 DUP4 DUP3 DUP2 PUSH2 0x2517 JUMPI INVALID JUMPDEST SDIV EQ JUMPDEST PUSH2 0x16C1 JUMPI PUSH1 0x0 DUP1 REVERT JUMPDEST PUSH1 0x0 PUSH3 0x76A700 DUP3 LT ISZERO PUSH2 0x2535 JUMPI PUSH1 0x0 DUP1 REVERT JUMPDEST POP PUSH3 0x76A700 DUP2 MOD SWAP1 SUB SWAP1 JUMP JUMPDEST PUSH1 0x0 DUP2 PUSH1 0x1 EQ ISZERO PUSH2 0x2556 JUMPI POP PUSH3 0x76A700 PUSH2 0x187A JUMP JUMPDEST DUP2 PUSH1 0x2 EQ ISZERO PUSH2 0x2569 JUMPI POP PUSH3 0xED4E00 PUSH2 0x187A JUMP JUMPDEST DUP2 PUSH1 0x3 EQ ISZERO PUSH2 0x257D JUMPI POP PUSH4 0x1DA9C00 PUSH2 0x187A JUMP JUMPDEST DUP2 PUSH1 0x4 EQ ISZERO PUSH2 0x2591 JUMPI POP PUSH4 0x3B53800 PUSH2 0x187A JUMP JUMPDEST DUP2 PUSH1 0x5 EQ ISZERO PUSH2 0x25A5 JUMPI POP PUSH4 0x9450C00 PUSH2 0x187A JUMP JUMPDEST DUP2 PUSH1 0x6 EQ ISZERO PUSH2 0x25B9 JUMPI POP PUSH4 0x128A1800 PUSH2 0x187A JUMP JUMPDEST DUP2 PUSH1 0x7 EQ ISZERO PUSH2 0x25CD JUMPI POP PUSH4 0x25143000 PUSH2 0x187A JUMP JUMPDEST PUSH1 0x40 MLOAD PUSH3 0x461BCD PUSH1 0xE5 SHL DUP2 MSTORE PUSH1 0x4 ADD PUSH2 0x657 SWAP1 PUSH2 0x385D JUMP JUMPDEST PUSH1 0x0 DUP3 DUP3 ADD DUP4 DUP2 LT ISZERO PUSH2 0x16BE JUMPI PUSH1 0x0 DUP1 REVERT JUMPDEST PUSH1 0x60 DUP3 SELFBALANCE LT ISZERO PUSH2 0x2638 JUMPI PUSH1 0x40 MLOAD PUSH3 0x461BCD PUSH1 0xE5 SHL DUP2 MSTORE PUSH1 0x4 ADD DUP1 DUP1 PUSH1 0x20 ADD DUP3 DUP2 SUB DUP3 MSTORE PUSH1 0x26 DUP2 MSTORE PUSH1 0x20 ADD DUP1 PUSH2 0x39F8 PUSH1 0x26 SWAP2 CODECOPY PUSH1 0x40 ADD SWAP2 POP POP PUSH1 0x40 MLOAD DUP1 SWAP2 SUB SWAP1 REVERT JUMPDEST PUSH2 0x2641 DUP6 PUSH2 0x2752 JUMP JUMPDEST PUSH2 0x2692 JUMPI PUSH1 0x40 DUP1 MLOAD PUSH3 0x461BCD PUSH1 0xE5 SHL DUP2 MSTORE PUSH1 0x20 PUSH1 0x4 DUP3 ADD MSTORE PUSH1 0x1D PUSH1 0x24 DUP3 ADD MSTORE PUSH32 0x416464726573733A2063616C6C20746F206E6F6E2D636F6E7472616374000000 PUSH1 0x44 DUP3 ADD MSTORE SWAP1 MLOAD SWAP1 DUP2 SWAP1 SUB PUSH1 0x64 ADD SWAP1 REVERT JUMPDEST PUSH1 0x0 DUP1 DUP7 PUSH1 0x1 PUSH1 0x1 PUSH1 0xA0 SHL SUB AND DUP6 DUP8 PUSH1 0x40 MLOAD DUP1 DUP3 DUP1 MLOAD SWAP1 PUSH1 0x20 ADD SWAP1 DUP1 DUP4 DUP4 JUMPDEST PUSH1 0x20 DUP4 LT PUSH2 0x26D0 JUMPI DUP1 MLOAD DUP3 MSTORE PUSH1 0x1F NOT SWAP1 SWAP3 ADD SWAP2 PUSH1 0x20 SWAP2 DUP3 ADD SWAP2 ADD PUSH2 0x26B1 JUMP JUMPDEST PUSH1 0x1 DUP4 PUSH1 0x20 SUB PUSH2 0x100 EXP SUB DUP1 NOT DUP3 MLOAD AND DUP2 DUP5 MLOAD AND DUP1 DUP3 OR DUP6 MSTORE POP POP POP POP POP POP SWAP1 POP ADD SWAP2 POP POP PUSH1 0x0 PUSH1 0x40 MLOAD DUP1 DUP4 SUB DUP2 DUP6 DUP8 GAS CALL SWAP3 POP POP POP RETURNDATASIZE DUP1 PUSH1 0x0 DUP2 EQ PUSH2 0x2732 JUMPI PUSH1 0x40 MLOAD SWAP2 POP PUSH1 0x1F NOT PUSH1 0x3F RETURNDATASIZE ADD AND DUP3 ADD PUSH1 0x40 MSTORE RETURNDATASIZE DUP3 MSTORE RETURNDATASIZE PUSH1 0x0 PUSH1 0x20 DUP5 ADD RETURNDATACOPY PUSH2 0x2737 JUMP JUMPDEST PUSH1 0x60 SWAP2 POP JUMPDEST POP SWAP2 POP SWAP2 POP PUSH2 0x2747 DUP3 DUP3 DUP7 PUSH2 0x2758 JUMP JUMPDEST SWAP8 SWAP7 POP POP POP POP POP POP POP JUMP JUMPDEST EXTCODESIZE ISZERO ISZERO SWAP1 JUMP JUMPDEST PUSH1 0x60 DUP4 ISZERO PUSH2 0x2767 JUMPI POP DUP2 PUSH2 0x24CE JUMP JUMPDEST DUP3 MLOAD ISZERO PUSH2 0x2777 JUMPI DUP3 MLOAD DUP1 DUP5 PUSH1 0x20 ADD REVERT JUMPDEST DUP2 PUSH1 0x40 MLOAD PUSH3 0x461BCD PUSH1 0xE5 SHL DUP2 MSTORE PUSH1 0x4 ADD DUP1 DUP1 PUSH1 0x20 ADD DUP3 DUP2 SUB DUP3 MSTORE DUP4 DUP2 DUP2 MLOAD DUP2 MSTORE PUSH1 0x20 ADD SWAP2 POP DUP1 MLOAD SWAP1 PUSH1 0x20 ADD SWAP1 DUP1 DUP4 DUP4 PUSH1 0x0 JUMPDEST DUP4 DUP2 LT ISZERO PUSH2 0x27C1 JUMPI DUP2 DUP2 ADD MLOAD DUP4 DUP3 ADD MSTORE PUSH1 0x20 ADD PUSH2 0x27A9 JUMP JUMPDEST POP POP POP POP SWAP1 POP SWAP1 DUP2 ADD SWAP1 PUSH1 0x1F AND DUP1 ISZERO PUSH2 0x27EE JUMPI DUP1 DUP3 SUB DUP1 MLOAD PUSH1 0x1 DUP4 PUSH1 0x20 SUB PUSH2 0x100 EXP SUB NOT AND DUP2 MSTORE PUSH1 0x20 ADD SWAP2 POP JUMPDEST POP SWAP3 POP POP POP PUSH1 0x40 MLOAD DUP1 SWAP2 SUB SWAP1 REVERT JUMPDEST PUSH1 0x40 DUP1 MLOAD PUSH1 0xC0 DUP2 ADD SWAP1 SWAP2 MSTORE DUP1 PUSH1 0x0 DUP2 MSTORE PUSH1 0x0 PUSH1 0x20 DUP3 ADD DUP2 SWAP1 MSTORE PUSH1 0x40 DUP3 ADD DUP2 SWAP1 MSTORE PUSH1 0x60 DUP3 ADD DUP2 SWAP1 MSTORE PUSH1 0x80 DUP3 ADD DUP2 SWAP1 MSTORE PUSH1 0xA0 SWAP1 SWAP2 ADD MSTORE SWAP1 JUMP JUMPDEST PUSH1 0x40 DUP1 MLOAD PUSH1 0xE0 DUP2 ADD SWAP1 SWAP2 MSTORE DUP1 PUSH1 0x0 DUP2 MSTORE PUSH1 0x20 ADD PUSH1 0x0 PUSH2 0xFFFF AND DUP2 MSTORE PUSH1 0x20 ADD PUSH1 0x0 DUP2 MSTORE PUSH1 0x20 ADD PUSH1 0x0 DUP2 MSTORE PUSH1 0x20 ADD PUSH1 0x0 ISZERO ISZERO DUP2 MSTORE PUSH1 0x20 ADD PUSH1 0x0 ISZERO ISZERO DUP2 MSTORE PUSH1 0x20 ADD PUSH1 0x60 DUP2 MSTORE POP SWAP1 JUMP JUMPDEST DUP1 MLOAD PUSH2 0x187A DUP2 PUSH2 0x39C4 JUMP JUMPDEST PUSH1 0x0 DUP1 DUP4 PUSH1 0x1F DUP5 ADD SLT PUSH2 0x2895 JUMPI DUP2 DUP3 REVERT JUMPDEST POP DUP2 CALLDATALOAD PUSH1 0x1 PUSH1 0x1 PUSH1 0x40 SHL SUB DUP2 GT ISZERO PUSH2 0x28AB JUMPI DUP2 DUP3 REVERT JUMPDEST PUSH1 0x20 DUP4 ADD SWAP2 POP DUP4 PUSH1 0x20 DUP1 DUP4 MUL DUP6 ADD ADD GT ISZERO PUSH2 0x28C5 JUMPI PUSH1 0x0 DUP1 REVERT JUMPDEST SWAP3 POP SWAP3 SWAP1 POP JUMP JUMPDEST PUSH1 0x0 DUP3 PUSH1 0x1F DUP4 ADD SLT PUSH2 0x28DC JUMPI DUP1 DUP2 REVERT JUMPDEST DUP2 MLOAD PUSH1 0x20 PUSH2 0x28F1 PUSH2 0x28EC DUP4 PUSH2 0x395A JUMP JUMPDEST PUSH2 0x3937 JUMP JUMPDEST DUP3 DUP2 MSTORE DUP2 DUP2 ADD SWAP1 DUP6 DUP4 ADD DUP4 DUP6 MUL DUP8 ADD DUP5 ADD DUP9 LT ISZERO PUSH2 0x290D JUMPI DUP6 DUP7 REVERT JUMPDEST DUP6 JUMPDEST DUP6 DUP2 LT ISZERO PUSH2 0x292B JUMPI DUP2 MLOAD DUP5 MSTORE SWAP3 DUP5 ADD SWAP3 SWAP1 DUP5 ADD SWAP1 PUSH1 0x1 ADD PUSH2 0x290F JUMP JUMPDEST POP SWAP1 SWAP8 SWAP7 POP POP POP POP POP POP POP JUMP JUMPDEST DUP1 CALLDATALOAD PUSH2 0x187A DUP2 PUSH2 0x39D9 JUMP JUMPDEST DUP1 MLOAD PUSH2 0x187A DUP2 PUSH2 0x39D9 JUMP JUMPDEST PUSH1 0x0 DUP1 DUP4 PUSH1 0x1F DUP5 ADD SLT PUSH2 0x295F JUMPI DUP2 DUP3 REVERT JUMPDEST POP DUP2 CALLDATALOAD PUSH1 0x1 PUSH1 0x1 PUSH1 0x40 SHL SUB DUP2 GT ISZERO PUSH2 0x2975 JUMPI DUP2 DUP3 REVERT JUMPDEST PUSH1 0x20 DUP4 ADD SWAP2 POP DUP4 PUSH1 0x20 DUP3 DUP6 ADD ADD GT ISZERO PUSH2 0x28C5 JUMPI PUSH1 0x0 DUP1 REVERT JUMPDEST PUSH1 0x0 DUP3 PUSH1 0x1F DUP4 ADD SLT PUSH2 0x299D JUMPI DUP1 DUP2 REVERT JUMPDEST DUP2 CALLDATALOAD PUSH2 0x29AB PUSH2 0x28EC DUP3 PUSH2 0x3977 JUMP JUMPDEST DUP2 DUP2 MSTORE DUP5 PUSH1 0x20 DUP4 DUP7 ADD ADD GT ISZERO PUSH2 0x29BF JUMPI DUP3 DUP4 REVERT JUMPDEST DUP2 PUSH1 0x20 DUP6 ADD PUSH1 0x20 DUP4 ADD CALLDATACOPY SWAP1 DUP2 ADD PUSH1 0x20 ADD SWAP2 SWAP1 SWAP2 MSTORE SWAP3 SWAP2 POP POP JUMP JUMPDEST PUSH1 0x0 DUP3 PUSH1 0x1F DUP4 ADD SLT PUSH2 0x29E9 JUMPI DUP1 DUP2 REVERT JUMPDEST DUP2 MLOAD PUSH2 0x29F7 PUSH2 0x28EC DUP3 PUSH2 0x3977 JUMP JUMPDEST DUP2 DUP2 MSTORE DUP5 PUSH1 0x20 DUP4 DUP7 ADD ADD GT ISZERO PUSH2 0x2A0B JUMPI DUP3 DUP4 REVERT JUMPDEST PUSH2 0x2A1C DUP3 PUSH1 0x20 DUP4 ADD PUSH1 0x20 DUP8 ADD PUSH2 0x3998 JUMP JUMPDEST SWAP5 SWAP4 POP POP POP POP JUMP JUMPDEST DUP1 MLOAD PUSH1 0x4 DUP2 LT PUSH2 0x187A JUMPI PUSH1 0x0 DUP1 REVERT JUMPDEST PUSH1 0x0 PUSH1 0xA0 DUP3 DUP5 SUB SLT ISZERO PUSH2 0x2A44 JUMPI DUP1 DUP2 REVERT JUMPDEST PUSH1 0x40 MLOAD PUSH1 0xA0 DUP2 ADD DUP2 DUP2 LT PUSH1 0x1 PUSH1 0x1 PUSH1 0x40 SHL SUB DUP3 GT OR ISZERO PUSH2 0x2A60 JUMPI INVALID JUMPDEST DUP1 PUSH1 0x40 MSTORE POP DUP1 SWAP2 POP DUP3 MLOAD PUSH2 0x2A73 DUP2 PUSH2 0x39C4 JUMP JUMPDEST DUP2 MSTORE PUSH1 0x20 DUP4 ADD MLOAD PUSH2 0x2A83 DUP2 PUSH2 0x39D9 JUMP JUMPDEST PUSH1 0x20 DUP3 ADD MSTORE PUSH1 0x40 DUP4 DUP2 ADD MLOAD SWAP1 DUP3 ADD MSTORE PUSH1 0x60 DUP4 ADD MLOAD PUSH1 0x6 DUP2 LT PUSH2 0x2AA4 JUMPI PUSH1 0x0 DUP1 REVERT JUMPDEST PUSH1 0x60 DUP3 ADD MSTORE PUSH1 0x80 SWAP3 DUP4 ADD MLOAD SWAP3 ADD SWAP2 SWAP1 SWAP2 MSTORE SWAP2 SWAP1 POP JUMP JUMPDEST PUSH1 0x0 PUSH1 0x80 DUP3 DUP5 SUB SLT ISZERO PUSH2 0x2ACB JUMPI DUP1 DUP2 REVERT JUMPDEST PUSH1 0x40 DUP1 MLOAD PUSH1 0x80 DUP2 ADD PUSH1 0x1 PUSH1 0x1 PUSH1 0x40 SHL SUB DUP3 DUP3 LT DUP2 DUP4 GT OR ISZERO PUSH2 0x2AE9 JUMPI INVALID JUMPDEST DUP2 DUP5 MSTORE DUP3 SWAP5 POP DUP6 MLOAD SWAP2 POP DUP1 DUP3 GT ISZERO PUSH2 0x2B00 JUMPI PUSH1 0x0 DUP1 REVERT JUMPDEST SWAP1 DUP6 ADD SWAP1 PUSH1 0xE0 DUP3 DUP9 SUB SLT ISZERO PUSH2 0x2B14 JUMPI PUSH1 0x0 DUP1 REVERT JUMPDEST PUSH2 0x2B1E PUSH1 0xE0 PUSH2 0x3937 JUMP JUMPDEST PUSH2 0x2B27 DUP4 PUSH2 0x2A24 JUMP JUMPDEST DUP2 MSTORE PUSH2 0x2B35 PUSH1 0x20 DUP5 ADD PUSH2 0x2879 JUMP JUMPDEST PUSH1 0x20 DUP3 ADD MSTORE PUSH2 0x2B45 DUP6 DUP5 ADD PUSH2 0x2879 JUMP JUMPDEST DUP6 DUP3 ADD MSTORE PUSH1 0x60 DUP4 ADD MLOAD PUSH1 0x60 DUP3 ADD MSTORE PUSH1 0x80 DUP4 ADD MLOAD PUSH1 0x80 DUP3 ADD MSTORE PUSH1 0xA0 DUP4 ADD MLOAD PUSH1 0xA0 DUP3 ADD MSTORE PUSH1 0xC0 DUP4 ADD MLOAD DUP3 DUP2 GT ISZERO PUSH2 0x2B79 JUMPI PUSH1 0x0 DUP1 REVERT JUMPDEST PUSH2 0x2B85 DUP10 DUP3 DUP7 ADD PUSH2 0x29D9 JUMP JUMPDEST PUSH1 0xC0 DUP4 ADD MSTORE POP DUP4 MSTORE POP PUSH2 0x2B9C SWAP1 POP PUSH1 0x20 DUP6 ADD PUSH2 0x2BE0 JUMP JUMPDEST PUSH1 0x20 DUP3 ADD MSTORE PUSH2 0x2BAC DUP3 DUP6 ADD PUSH2 0x2943 JUMP JUMPDEST DUP3 DUP3 ADD MSTORE PUSH2 0x2BBC PUSH1 0x60 DUP6 ADD PUSH2 0x2BEB JUMP JUMPDEST PUSH1 0x60 DUP3 ADD MSTORE POP POP SWAP3 SWAP2 POP POP JUMP JUMPDEST DUP1 MLOAD PUSH1 0x1 PUSH1 0x1 PUSH1 0x80 SHL SUB DUP2 AND DUP2 EQ PUSH2 0x187A JUMPI PUSH1 0x0 DUP1 REVERT JUMPDEST DUP1 MLOAD PUSH2 0x187A DUP2 PUSH2 0x39E7 JUMP JUMPDEST DUP1 MLOAD PUSH4 0xFFFFFFFF DUP2 AND DUP2 EQ PUSH2 0x187A JUMPI PUSH1 0x0 DUP1 REVERT JUMPDEST DUP1 CALLDATALOAD PUSH1 0xFF DUP2 AND DUP2 EQ PUSH2 0x187A JUMPI PUSH1 0x0 DUP1 REVERT JUMPDEST DUP1 MLOAD PUSH1 0x1 PUSH1 0x1 PUSH1 0x60 SHL SUB DUP2 AND DUP2 EQ PUSH2 0x187A JUMPI PUSH1 0x0 DUP1 REVERT JUMPDEST PUSH1 0x0 PUSH1 0x20 DUP3 DUP5 SUB SLT ISZERO PUSH2 0x2C38 JUMPI DUP1 DUP2 REVERT JUMPDEST DUP2 CALLDATALOAD PUSH2 0x16BE DUP2 PUSH2 0x39C4 JUMP JUMPDEST PUSH1 0x0 PUSH1 0x20 DUP3 DUP5 SUB SLT ISZERO PUSH2 0x2C54 JUMPI DUP1 DUP2 REVERT JUMPDEST DUP2 MLOAD PUSH2 0x16BE DUP2 PUSH2 0x39C4 JUMP JUMPDEST PUSH1 0x0 DUP1 PUSH1 0x0 DUP1 PUSH1 0x0 DUP1 PUSH1 0x0 PUSH1 0xC0 DUP9 DUP11 SUB SLT ISZERO PUSH2 0x2C79 JUMPI DUP3 DUP4 REVERT JUMPDEST DUP8 CALLDATALOAD PUSH2 0x2C84 DUP2 PUSH2 0x39C4 JUMP JUMPDEST SWAP7 POP PUSH1 0x20 DUP9 ADD CALLDATALOAD PUSH2 0x2C94 DUP2 PUSH2 0x39C4 JUMP JUMPDEST SWAP6 POP PUSH1 0x40 DUP9 ADD CALLDATALOAD PUSH2 0x2CA4 DUP2 PUSH2 0x39C4 JUMP JUMPDEST SWAP5 POP PUSH1 0x60 DUP9 ADD CALLDATALOAD SWAP4 POP PUSH1 0x80 DUP9 ADD CALLDATALOAD SWAP3 POP PUSH1 0xA0 DUP9 ADD CALLDATALOAD PUSH1 0x1 PUSH1 0x1 PUSH1 0x40 SHL SUB DUP2 GT ISZERO PUSH2 0x2CCC JUMPI DUP3 DUP4 REVERT JUMPDEST PUSH2 0x2CD8 DUP11 DUP3 DUP12 ADD PUSH2 0x294E JUMP JUMPDEST SWAP9 SWAP12 SWAP8 SWAP11 POP SWAP6 SWAP9 POP SWAP4 SWAP7 SWAP3 SWAP6 SWAP3 SWAP4 POP POP POP JUMP JUMPDEST PUSH1 0x0 DUP1 PUSH1 0x0 DUP1 PUSH1 0x0 DUP1 PUSH1 0x0 PUSH1 0xC0 DUP9 DUP11 SUB SLT ISZERO PUSH2 0x2D05 JUMPI DUP1 DUP2 REVERT JUMPDEST DUP8 CALLDATALOAD PUSH2 0x2D10 DUP2 PUSH2 0x39C4 JUMP JUMPDEST SWAP7 POP PUSH1 0x20 DUP9 ADD CALLDATALOAD PUSH2 0x2D20 DUP2 PUSH2 0x39C4 JUMP JUMPDEST SWAP6 POP PUSH1 0x40 DUP9 ADD CALLDATALOAD SWAP5 POP PUSH1 0x60 DUP9 ADD CALLDATALOAD PUSH1 0x1 PUSH1 0x1 PUSH1 0x40 SHL SUB DUP2 GT ISZERO PUSH2 0x2D41 JUMPI DUP2 DUP3 REVERT JUMPDEST PUSH2 0x2D4D DUP11 DUP3 DUP12 ADD PUSH2 0x294E JUMP JUMPDEST SWAP1 SWAP6 POP SWAP4 POP POP PUSH1 0x80 DUP9 ADD CALLDATALOAD PUSH2 0x2D61 DUP2 PUSH2 0x39C4 JUMP JUMPDEST SWAP2 POP PUSH1 0xA0 DUP9 ADD CALLDATALOAD PUSH2 0x2D71 DUP2 PUSH2 0x39C4 JUMP JUMPDEST DUP1 SWAP2 POP POP SWAP3 SWAP6 SWAP9 SWAP2 SWAP5 SWAP8 POP SWAP3 SWAP6 POP JUMP JUMPDEST PUSH1 0x0 DUP1 PUSH1 0x40 DUP4 DUP6 SUB SLT ISZERO PUSH2 0x2D93 JUMPI DUP2 DUP3 REVERT JUMPDEST DUP3 CALLDATALOAD PUSH2 0x2D9E DUP2 PUSH2 0x39C4 JUMP JUMPDEST SWAP5 PUSH1 0x20 SWAP4 SWAP1 SWAP4 ADD CALLDATALOAD SWAP4 POP POP POP JUMP JUMPDEST PUSH1 0x0 DUP1 PUSH1 0x0 PUSH1 0x40 DUP5 DUP7 SUB SLT ISZERO PUSH2 0x2DC0 JUMPI DUP1 DUP2 REVERT JUMPDEST DUP4 CALLDATALOAD PUSH1 0x1 PUSH1 0x1 PUSH1 0x40 SHL SUB DUP2 GT ISZERO PUSH2 0x2DD5 JUMPI DUP2 DUP3 REVERT JUMPDEST PUSH2 0x2DE1 DUP7 DUP3 DUP8 ADD PUSH2 0x2884 JUMP JUMPDEST SWAP1 SWAP5 POP SWAP3 POP POP PUSH1 0x20 DUP5 ADD CALLDATALOAD PUSH2 0x2DF5 DUP2 PUSH2 0x39C4 JUMP JUMPDEST DUP1 SWAP2 POP POP SWAP3 POP SWAP3 POP SWAP3 JUMP JUMPDEST PUSH1 0x0 DUP1 PUSH1 0x40 DUP4 DUP6 SUB SLT ISZERO PUSH2 0x2E12 JUMPI DUP2 DUP3 REVERT JUMPDEST DUP3 MLOAD PUSH1 0x1 PUSH1 0x1 PUSH1 0x40 SHL SUB DUP2 GT ISZERO PUSH2 0x2E27 JUMPI DUP3 DUP4 REVERT JUMPDEST PUSH2 0x2E33 DUP6 DUP3 DUP7 ADD PUSH2 0x28CC JUMP JUMPDEST SWAP3 POP POP PUSH1 0x20 DUP4 ADD MLOAD SWAP1 POP SWAP3 POP SWAP3 SWAP1 POP JUMP JUMPDEST PUSH1 0x0 DUP1 PUSH1 0x20 DUP4 DUP6 SUB SLT ISZERO PUSH2 0x2E56 JUMPI DUP2 DUP3 REVERT JUMPDEST DUP3 CALLDATALOAD PUSH1 0x1 PUSH1 0x1 PUSH1 0x40 SHL SUB DUP2 GT ISZERO PUSH2 0x2E6B JUMPI DUP3 DUP4 REVERT JUMPDEST PUSH2 0x2E77 DUP6 DUP3 DUP7 ADD PUSH2 0x2884 JUMP JUMPDEST SWAP1 SWAP7 SWAP1 SWAP6 POP SWAP4 POP POP POP POP JUMP JUMPDEST PUSH1 0x0 PUSH1 0x20 DUP3 DUP5 SUB SLT ISZERO PUSH2 0x2E94 JUMPI DUP1 DUP2 REVERT JUMPDEST DUP2 MLOAD PUSH1 0x1 PUSH1 0x1 PUSH1 0x40 SHL SUB DUP2 GT ISZERO PUSH2 0x2EA9 JUMPI DUP2 DUP3 REVERT JUMPDEST PUSH2 0x2A1C DUP5 DUP3 DUP6 ADD PUSH2 0x29D9 JUMP JUMPDEST PUSH1 0x0 DUP1 PUSH1 0x40 DUP4 DUP6 SUB SLT ISZERO PUSH2 0x2EC7 JUMPI DUP2 DUP3 REVERT JUMPDEST DUP3 MLOAD SWAP2 POP PUSH1 0x20 DUP4 ADD MLOAD PUSH1 0x1 PUSH1 0x1 PUSH1 0x40 SHL SUB DUP2 GT ISZERO PUSH2 0x2EE3 JUMPI DUP2 DUP3 REVERT JUMPDEST PUSH2 0x2EEF DUP6 DUP3 DUP7 ADD PUSH2 0x28CC JUMP JUMPDEST SWAP2 POP POP SWAP3 POP SWAP3 SWAP1 POP JUMP JUMPDEST PUSH1 0x0 DUP1 PUSH1 0x40 DUP4 DUP6 SUB SLT ISZERO PUSH2 0x2F0B JUMPI DUP2 DUP3 REVERT JUMPDEST POP POP DUP1 MLOAD PUSH1 0x20 SWAP1 SWAP2 ADD MLOAD SWAP1 SWAP3 SWAP1 SWAP2 POP JUMP JUMPDEST PUSH1 0x0 DUP1 PUSH1 0x0 PUSH1 0x60 DUP5 DUP7 SUB SLT ISZERO PUSH2 0x2F30 JUMPI DUP1 DUP2 REVERT JUMPDEST DUP4 MLOAD SWAP3 POP PUSH1 0x20 DUP5 ADD MLOAD SWAP2 POP PUSH1 0x40 DUP5 ADD MLOAD SWAP1 POP SWAP3 POP SWAP3 POP SWAP3 JUMP JUMPDEST PUSH1 0x0 PUSH1 0x20 DUP3 DUP5 SUB SLT ISZERO PUSH2 0x2F5A JUMPI DUP1 DUP2 REVERT JUMPDEST DUP2 MLOAD PUSH1 0x1 PUSH1 0x1 PUSH1 0x40 SHL SUB DUP1 DUP3 GT ISZERO PUSH2 0x2F70 JUMPI DUP3 DUP4 REVERT JUMPDEST SWAP1 DUP4 ADD SWAP1 PUSH1 0xE0 DUP3 DUP7 SUB SLT ISZERO PUSH2 0x2F83 JUMPI DUP3 DUP4 REVERT JUMPDEST PUSH2 0x2F8D PUSH1 0xE0 PUSH2 0x3937 JUMP JUMPDEST PUSH2 0x2F96 DUP4 PUSH2 0x2879 JUMP JUMPDEST DUP2 MSTORE PUSH2 0x2FA4 PUSH1 0x20 DUP5 ADD PUSH2 0x2BE0 JUMP JUMPDEST PUSH1 0x20 DUP3 ADD MSTORE PUSH2 0x2FB5 PUSH1 0x40 DUP5 ADD PUSH2 0x2BE0 JUMP JUMPDEST PUSH1 0x40 DUP3 ADD MSTORE PUSH2 0x2FC6 PUSH1 0x60 DUP5 ADD PUSH2 0x2879 JUMP JUMPDEST PUSH1 0x60 DUP3 ADD MSTORE PUSH2 0x2FD7 PUSH1 0x80 DUP5 ADD PUSH2 0x2BC9 JUMP JUMPDEST PUSH1 0x80 DUP3 ADD MSTORE PUSH2 0x2FE8 PUSH1 0xA0 DUP5 ADD PUSH2 0x2C10 JUMP JUMPDEST PUSH1 0xA0 DUP3 ADD MSTORE PUSH1 0xC0 DUP4 ADD MLOAD DUP3 DUP2 GT ISZERO PUSH2 0x2FFE JUMPI DUP5 DUP6 REVERT JUMPDEST PUSH2 0x300A DUP8 DUP3 DUP7 ADD PUSH2 0x2ABA JUMP JUMPDEST PUSH1 0xC0 DUP4 ADD MSTORE POP SWAP6 SWAP5 POP POP POP POP POP JUMP JUMPDEST PUSH1 0x0 PUSH1 0x20 DUP3 DUP5 SUB SLT ISZERO PUSH2 0x302A JUMPI DUP1 DUP2 REVERT JUMPDEST DUP2 MLOAD PUSH1 0x1 PUSH1 0x1 PUSH1 0x40 SHL SUB DUP1 DUP3 GT ISZERO PUSH2 0x3040 JUMPI DUP3 DUP4 REVERT JUMPDEST DUP2 DUP5 ADD SWAP2 POP PUSH2 0x100 DUP1 DUP4 DUP8 SUB SLT ISZERO PUSH2 0x3056 JUMPI DUP4 DUP5 REVERT JUMPDEST PUSH2 0x305F DUP2 PUSH2 0x3937 JUMP JUMPDEST SWAP1 POP PUSH2 0x306A DUP4 PUSH2 0x2879 JUMP JUMPDEST DUP2 MSTORE PUSH2 0x3078 PUSH1 0x20 DUP5 ADD PUSH2 0x2BE0 JUMP JUMPDEST PUSH1 0x20 DUP3 ADD MSTORE PUSH2 0x3089 PUSH1 0x40 DUP5 ADD PUSH2 0x2BE0 JUMP JUMPDEST PUSH1 0x40 DUP3 ADD MSTORE PUSH2 0x309A PUSH1 0x60 DUP5 ADD PUSH2 0x2879 JUMP JUMPDEST PUSH1 0x60 DUP3 ADD MSTORE PUSH2 0x30AB PUSH1 0x80 DUP5 ADD PUSH2 0x2879 JUMP JUMPDEST PUSH1 0x80 DUP3 ADD MSTORE PUSH1 0xA0 DUP4 ADD MLOAD DUP3 DUP2 GT ISZERO PUSH2 0x30C1 JUMPI DUP5 DUP6 REVERT JUMPDEST PUSH2 0x30CD DUP8 DUP3 DUP7 ADD PUSH2 0x28CC JUMP JUMPDEST PUSH1 0xA0 DUP4 ADD MSTORE POP PUSH1 0xC0 DUP4 ADD MLOAD DUP3 DUP2 GT ISZERO PUSH2 0x30E4 JUMPI DUP5 DUP6 REVERT JUMPDEST PUSH2 0x30F0 DUP8 DUP3 DUP7 ADD PUSH2 0x28CC JUMP JUMPDEST PUSH1 0xC0 DUP4 ADD MSTORE POP PUSH1 0xE0 DUP4 ADD MLOAD DUP3 DUP2 GT ISZERO PUSH2 0x3107 JUMPI DUP5 DUP6 REVERT JUMPDEST PUSH2 0x3113 DUP8 DUP3 DUP7 ADD PUSH2 0x2ABA JUMP JUMPDEST PUSH1 0xE0 DUP4 ADD MSTORE POP SWAP6 SWAP5 POP POP POP POP POP JUMP JUMPDEST PUSH1 0x0 PUSH1 0x20 DUP3 DUP5 SUB SLT ISZERO PUSH2 0x3133 JUMPI DUP1 DUP2 REVERT JUMPDEST DUP2 CALLDATALOAD PUSH1 0x1 PUSH1 0x1 PUSH1 0x40 SHL SUB DUP1 DUP3 GT ISZERO PUSH2 0x3149 JUMPI DUP3 DUP4 REVERT JUMPDEST SWAP1 DUP4 ADD SWAP1 PUSH1 0xC0 DUP3 DUP7 SUB SLT ISZERO PUSH2 0x315C JUMPI DUP3 DUP4 REVERT JUMPDEST PUSH2 0x3166 PUSH1 0xC0 PUSH2 0x3937 JUMP JUMPDEST PUSH2 0x316F DUP4 PUSH2 0x2BFF JUMP JUMPDEST DUP2 MSTORE PUSH2 0x317D PUSH1 0x20 DUP5 ADD PUSH2 0x2938 JUMP JUMPDEST PUSH1 0x20 DUP3 ADD MSTORE PUSH2 0x318E PUSH1 0x40 DUP5 ADD PUSH2 0x2938 JUMP JUMPDEST PUSH1 0x40 DUP3 ADD MSTORE PUSH2 0x319F PUSH1 0x60 DUP5 ADD PUSH2 0x2938 JUMP JUMPDEST PUSH1 0x60 DUP3 ADD MSTORE PUSH1 0x80 DUP4 ADD CALLDATALOAD DUP3 DUP2 GT ISZERO PUSH2 0x31B5 JUMPI DUP5 DUP6 REVERT JUMPDEST PUSH2 0x31C1 DUP8 DUP3 DUP7 ADD PUSH2 0x298D JUMP JUMPDEST PUSH1 0x80 DUP4 ADD MSTORE POP PUSH1 0xA0 DUP4 ADD CALLDATALOAD DUP3 DUP2 GT ISZERO PUSH2 0x31D8 JUMPI DUP5 DUP6 REVERT JUMPDEST PUSH2 0x31E4 DUP8 DUP3 DUP7 ADD PUSH2 0x298D JUMP JUMPDEST PUSH1 0xA0 DUP4 ADD MSTORE POP SWAP6 SWAP5 POP POP POP POP POP JUMP JUMPDEST PUSH1 0x0 PUSH1 0x60 DUP3 DUP5 SUB SLT ISZERO PUSH2 0x3204 JUMPI DUP1 DUP2 REVERT JUMPDEST PUSH1 0x40 MLOAD PUSH1 0x60 DUP2 ADD DUP2 DUP2 LT PUSH1 0x1 PUSH1 0x1 PUSH1 0x40 SHL SUB DUP3 GT OR ISZERO PUSH2 0x3220 JUMPI INVALID JUMPDEST PUSH1 0x40 MSTORE DUP3 MLOAD PUSH2 0x322E DUP2 PUSH2 0x39C4 JUMP JUMPDEST DUP2 MSTORE PUSH1 0x20 DUP4 ADD MLOAD PUSH2 0x323E DUP2 PUSH2 0x39E7 JUMP JUMPDEST PUSH1 0x20 DUP3 ADD MSTORE PUSH2 0x324F PUSH1 0x40 DUP5 ADD PUSH2 0x2C10 JUMP JUMPDEST PUSH1 0x40 DUP3 ADD MSTORE SWAP4 SWAP3 POP POP POP JUMP JUMPDEST PUSH1 0x0 PUSH1 0x20 DUP3 DUP5 SUB SLT ISZERO PUSH2 0x326C JUMPI DUP1 DUP2 REVERT JUMPDEST DUP2 MLOAD PUSH1 0x1 PUSH1 0x1 PUSH1 0x40 SHL SUB DUP1 DUP3 GT ISZERO PUSH2 0x3282 JUMPI DUP3 DUP4 REVERT JUMPDEST SWAP1 DUP4 ADD SWAP1 PUSH1 0x80 DUP3 DUP7 SUB SLT ISZERO PUSH2 0x3295 JUMPI DUP3 DUP4 REVERT JUMPDEST PUSH1 0x40 MLOAD PUSH1 0x80 DUP2 ADD DUP2 DUP2 LT DUP4 DUP3 GT OR ISZERO PUSH2 0x32AA JUMPI INVALID JUMPDEST PUSH1 0x40 MSTORE PUSH2 0x32B6 DUP4 PUSH2 0x2879 JUMP JUMPDEST DUP2 MSTORE PUSH2 0x32C4 PUSH1 0x20 DUP5 ADD PUSH2 0x2BE0 JUMP JUMPDEST PUSH1 0x20 DUP3 ADD MSTORE PUSH1 0x40 DUP4 ADD MLOAD DUP3 DUP2 GT ISZERO PUSH2 0x32DA JUMPI DUP5 DUP6 REVERT JUMPDEST PUSH2 0x32E6 DUP8 DUP3 DUP7 ADD PUSH2 0x28CC JUMP JUMPDEST PUSH1 0x40 DUP4 ADD MSTORE POP PUSH1 0x60 DUP4 ADD MLOAD DUP3 DUP2 GT ISZERO PUSH2 0x32FD JUMPI DUP5 DUP6 REVERT JUMPDEST PUSH2 0x3309 DUP8 DUP3 DUP7 ADD PUSH2 0x28CC JUMP JUMPDEST PUSH1 0x60 DUP4 ADD MSTORE POP SWAP6 SWAP5 POP POP POP POP POP JUMP JUMPDEST PUSH1 0x0 DUP1 PUSH2 0x140 DUP4 DUP6 SUB SLT ISZERO PUSH2 0x332B JUMPI DUP2 DUP3 REVERT JUMPDEST PUSH2 0x3335 DUP5 DUP5 PUSH2 0x2A33 JUMP JUMPDEST SWAP2 POP PUSH2 0x3344 DUP5 PUSH1 0xA0 DUP6 ADD PUSH2 0x2A33 JUMP JUMPDEST SWAP1 POP SWAP3 POP SWAP3 SWAP1 POP JUMP JUMPDEST PUSH1 0x0 PUSH1 0x20 DUP3 DUP5 SUB SLT ISZERO PUSH2 0x335E JUMPI DUP1 DUP2 REVERT JUMPDEST DUP2 MLOAD PUSH1 0x1 PUSH1 0x1 PUSH1 0x40 SHL SUB DUP2 GT ISZERO PUSH2 0x3373 JUMPI DUP2 DUP3 REVERT JUMPDEST PUSH2 0x2A1C DUP5 DUP3 DUP6 ADD PUSH2 0x2ABA JUMP JUMPDEST PUSH1 0x0 PUSH1 0x20 DUP3 DUP5 SUB SLT ISZERO PUSH2 0x3390 JUMPI DUP1 DUP2 REVERT JUMPDEST DUP2 CALLDATALOAD PUSH2 0x16BE DUP2 PUSH2 0x39E7 JUMP JUMPDEST PUSH1 0x0 PUSH1 0x20 DUP3 DUP5 SUB SLT ISZERO PUSH2 0x33AC JUMPI DUP1 DUP2 REVERT JUMPDEST POP MLOAD SWAP2 SWAP1 POP JUMP JUMPDEST PUSH1 0x0 DUP2 MLOAD DUP1 DUP5 MSTORE PUSH1 0x20 DUP1 DUP6 ADD SWAP5 POP DUP1 DUP5 ADD DUP4 JUMPDEST DUP4 DUP2 LT ISZERO PUSH2 0x33E2 JUMPI DUP2 MLOAD DUP8 MSTORE SWAP6 DUP3 ADD SWAP6 SWAP1 DUP3 ADD SWAP1 PUSH1 0x1 ADD PUSH2 0x33C6 JUMP JUMPDEST POP SWAP5 SWAP6 SWAP5 POP POP POP POP POP JUMP JUMPDEST PUSH1 0x0 DUP2 MLOAD DUP1 DUP5 MSTORE PUSH2 0x3405 DUP2 PUSH1 0x20 DUP7 ADD PUSH1 0x20 DUP7 ADD PUSH2 0x3998 JUMP JUMPDEST PUSH1 0x1F ADD PUSH1 0x1F NOT AND SWAP3 SWAP1 SWAP3 ADD PUSH1 0x20 ADD SWAP3 SWAP2 POP POP JUMP JUMPDEST PUSH1 0x7 DUP2 LT PUSH2 0x3423 JUMPI INVALID JUMPDEST SWAP1 MSTORE JUMP JUMPDEST PUSH1 0x0 DUP2 MLOAD PUSH1 0x4 DUP2 LT PUSH2 0x3435 JUMPI INVALID JUMPDEST DUP1 DUP5 MSTORE POP PUSH1 0x20 DUP3 ADD MLOAD PUSH1 0x1 DUP1 PUSH1 0xA0 SHL SUB DUP1 DUP3 AND PUSH1 0x20 DUP7 ADD MSTORE DUP1 PUSH1 0x40 DUP6 ADD MLOAD AND PUSH1 0x40 DUP7 ADD MSTORE POP POP PUSH1 0x60 DUP3 ADD MLOAD PUSH1 0x60 DUP5 ADD MSTORE PUSH1 0x80 DUP3 ADD MLOAD PUSH1 0x80 DUP5 ADD MSTORE PUSH1 0xA0 DUP3 ADD MLOAD PUSH1 0xA0 DUP5 ADD MSTORE PUSH1 0xC0 DUP3 ADD MLOAD PUSH1 0xE0 PUSH1 0xC0 DUP6 ADD MSTORE PUSH2 0x2A1C PUSH1 0xE0 DUP6 ADD DUP3 PUSH2 0x33ED JUMP JUMPDEST PUSH1 0x0 DUP3 MLOAD PUSH2 0x34A4 DUP2 DUP5 PUSH1 0x20 DUP8 ADD PUSH2 0x3998 JUMP JUMPDEST SWAP2 SWAP1 SWAP2 ADD SWAP3 SWAP2 POP POP JUMP JUMPDEST PUSH1 0x1 PUSH1 0x1 PUSH1 0xA0 SHL SUB SWAP2 SWAP1 SWAP2 AND DUP2 MSTORE PUSH1 0x20 ADD SWAP1 JUMP JUMPDEST PUSH1 0x1 PUSH1 0x1 PUSH1 0xA0 SHL SUB DUP4 AND DUP2 MSTORE PUSH1 0x40 PUSH1 0x20 DUP1 DUP4 ADD DUP3 SWAP1 MSTORE DUP4 MLOAD DUP4 DUP4 ADD DUP2 SWAP1 MSTORE PUSH1 0x0 SWAP3 SWAP2 PUSH1 0x60 SWAP2 DUP3 DUP7 ADD SWAP1 DUP1 DUP4 MUL DUP8 ADD DUP5 ADD DUP9 DUP5 ADD DUP8 JUMPDEST DUP4 DUP2 LT ISZERO PUSH2 0x3577 JUMPI PUSH1 0x5F NOT DUP11 DUP5 SUB ADD DUP6 MSTORE DUP2 MLOAD PUSH1 0xE0 PUSH2 0x3517 DUP6 DUP4 MLOAD PUSH2 0x3419 JUMP JUMPDEST DUP2 DUP9 ADD MLOAD PUSH2 0xFFFF AND DUP6 DUP10 ADD MSTORE DUP10 DUP3 ADD MLOAD DUP11 DUP7 ADD MSTORE DUP9 DUP3 ADD MLOAD DUP10 DUP7 ADD MSTORE PUSH1 0x80 DUP1 DUP4 ADD MLOAD ISZERO ISZERO SWAP1 DUP7 ADD MSTORE PUSH1 0xA0 DUP1 DUP4 ADD MLOAD ISZERO ISZERO SWAP1 DUP7 ADD MSTORE PUSH1 0xC0 SWAP2 DUP3 ADD MLOAD SWAP2 DUP6 ADD DUP2 SWAP1 MSTORE PUSH2 0x3563 DUP2 DUP7 ADD DUP4 PUSH2 0x33B3 JUMP JUMPDEST SWAP7 DUP9 ADD SWAP7 SWAP5 POP POP POP SWAP1 DUP6 ADD SWAP1 PUSH1 0x1 ADD PUSH2 0x34F7 JUMP JUMPDEST POP SWAP1 SWAP11 SWAP10 POP POP POP POP POP POP POP POP POP POP JUMP JUMPDEST PUSH1 0x1 PUSH1 0x1 PUSH1 0xA0 SHL SUB DUP4 AND DUP2 MSTORE PUSH1 0x40 PUSH1 0x20 DUP1 DUP4 ADD DUP3 SWAP1 MSTORE DUP4 MLOAD DUP4 DUP4 ADD DUP2 SWAP1 MSTORE PUSH1 0x0 SWAP3 SWAP2 PUSH1 0x60 SWAP2 DUP3 DUP7 ADD SWAP1 DUP8 DUP4 ADD DUP7 JUMPDEST DUP3 DUP2 LT ISZERO PUSH2 0x3610 JUMPI DUP2 MLOAD PUSH2 0x35CA DUP6 DUP3 MLOAD PUSH2 0x3419 JUMP JUMPDEST DUP1 DUP7 ADD MLOAD PUSH2 0xFFFF AND DUP6 DUP8 ADD MSTORE DUP8 DUP2 ADD MLOAD DUP9 DUP7 ADD MSTORE DUP7 DUP2 ADD MLOAD DUP8 DUP7 ADD MSTORE PUSH1 0x80 DUP1 DUP3 ADD MLOAD ISZERO ISZERO SWAP1 DUP7 ADD MSTORE PUSH1 0xA0 SWAP1 DUP2 ADD MLOAD ISZERO ISZERO SWAP1 DUP6 ADD MSTORE PUSH1 0xC0 SWAP1 SWAP4 ADD SWAP3 SWAP1 DUP5 ADD SWAP1 PUSH1 0x1 ADD PUSH2 0x35B5 JUMP JUMPDEST POP SWAP2 SWAP10 SWAP9 POP POP POP POP POP POP POP POP POP JUMP JUMPDEST PUSH1 0x1 PUSH1 0x1 PUSH1 0xA0 SHL SUB SWAP3 DUP4 AND DUP2 MSTORE SWAP2 AND PUSH1 0x20 DUP3 ADD MSTORE PUSH1 0x40 ADD SWAP1 JUMP JUMPDEST PUSH1 0x1 PUSH1 0x1 PUSH1 0xA0 SHL SUB DUP9 DUP2 AND DUP3 MSTORE DUP8 AND PUSH1 0x20 DUP3 ADD MSTORE PUSH1 0x40 DUP2 ADD DUP7 SWAP1 MSTORE PUSH1 0xA0 PUSH1 0x60 DUP3 ADD DUP2 SWAP1 MSTORE DUP2 ADD DUP5 SWAP1 MSTORE PUSH1 0x0 DUP5 DUP7 PUSH1 0xC0 DUP5 ADD CALLDATACOPY DUP1 PUSH1 0xC0 DUP7 DUP5 ADD ADD MSTORE PUSH1 0xC0 PUSH1 0x1F NOT PUSH1 0x1F DUP8 ADD AND DUP4 ADD ADD SWAP1 POP PUSH4 0xFFFFFFFF DUP4 AND DUP5 PUSH1 0x20 SHL OR PUSH1 0x40 SHL PUSH1 0x80 DUP4 ADD MSTORE SWAP9 SWAP8 POP POP POP POP POP POP POP POP JUMP JUMPDEST PUSH1 0x1 PUSH1 0x1 PUSH1 0xA0 SHL SUB DUP6 AND DUP2 MSTORE PUSH2 0xFFFF DUP5 AND PUSH1 0x20 DUP3 ADD MSTORE PUSH1 0x80 PUSH1 0x40 DUP3 ADD DUP2 SWAP1 MSTORE PUSH1 0x0 SWAP1 PUSH2 0x36D0 SWAP1 DUP4 ADD DUP6 PUSH2 0x33B3 JUMP JUMPDEST DUP3 DUP2 SUB PUSH1 0x60 DUP5 ADD MSTORE PUSH2 0x2747 DUP2 DUP6 PUSH2 0x33B3 JUMP JUMPDEST PUSH1 0x1 PUSH1 0x1 PUSH1 0xA0 SHL SUB DUP7 AND DUP2 MSTORE PUSH2 0xFFFF DUP6 DUP2 AND PUSH1 0x20 DUP4 ADD MSTORE DUP5 AND PUSH1 0x40 DUP3 ADD MSTORE PUSH1 0xA0 PUSH1 0x60 DUP3 ADD DUP2 SWAP1 MSTORE PUSH1 0x0 SWAP1 PUSH2 0x3718 SWAP1 DUP4 ADD DUP6 PUSH2 0x33B3 JUMP JUMPDEST DUP3 DUP2 SUB PUSH1 0x80 DUP5 ADD MSTORE PUSH2 0x372A DUP2 DUP6 PUSH2 0x33B3 JUMP JUMPDEST SWAP9 SWAP8 POP POP POP POP POP POP POP POP JUMP JUMPDEST PUSH1 0x1 PUSH1 0x1 PUSH1 0xA0 SHL SUB SWAP8 SWAP1 SWAP8 AND DUP8 MSTORE PUSH2 0xFFFF SWAP6 DUP7 AND PUSH1 0x20 DUP9 ADD MSTORE SWAP4 SWAP1 SWAP5 AND PUSH1 0x40 DUP7 ADD MSTORE PUSH1 0x1 PUSH1 0x1 PUSH1 0x80 SHL SUB SWAP2 SWAP1 SWAP2 AND PUSH1 0x60 DUP6 ADD MSTORE PUSH1 0x1 PUSH1 0x1 PUSH1 0x60 SHL SUB AND PUSH1 0x80 DUP5 ADD MSTORE SWAP1 ISZERO ISZERO PUSH1 0xA0 DUP4 ADD MSTORE ISZERO ISZERO PUSH1 0xC0 DUP3 ADD MSTORE PUSH1 0xE0 ADD SWAP1 JUMP JUMPDEST PUSH1 0x1 PUSH1 0x1 PUSH1 0xA0 SHL SUB SWAP4 SWAP1 SWAP4 AND DUP4 MSTORE PUSH2 0xFFFF SWAP2 SWAP1 SWAP2 AND PUSH1 0x20 DUP4 ADD MSTORE PUSH1 0x40 DUP3 ADD MSTORE PUSH1 0x60 ADD SWAP1 JUMP JUMPDEST PUSH1 0x1 PUSH1 0x1 PUSH1 0xA0 SHL SUB SWAP4 SWAP1 SWAP4 AND DUP4 MSTORE PUSH2 0xFFFF SWAP2 SWAP1 SWAP2 AND PUSH1 0x20 DUP4 ADD MSTORE PUSH1 0x1 PUSH1 0x1 PUSH1 0x60 SHL SUB AND PUSH1 0x40 DUP3 ADD MSTORE PUSH1 0x60 ADD SWAP1 JUMP JUMPDEST PUSH1 0x0 PUSH1 0x20 DUP3 MSTORE PUSH2 0x24CE PUSH1 0x20 DUP4 ADD DUP5 PUSH2 0x33ED JUMP JUMPDEST PUSH1 0x0 PUSH1 0x40 DUP3 ADD DUP5 DUP4 MSTORE PUSH1 0x20 PUSH1 0x40 DUP2 DUP6 ADD MSTORE DUP2 DUP6 MLOAD DUP1 DUP5 MSTORE PUSH1 0x60 DUP7 ADD SWAP2 POP DUP3 DUP8 ADD SWAP4 POP DUP5 JUMPDEST DUP2 DUP2 LT ISZERO PUSH2 0x292B JUMPI DUP5 MLOAD DUP4 MSTORE SWAP4 DUP4 ADD SWAP4 SWAP2 DUP4 ADD SWAP2 PUSH1 0x1 ADD PUSH2 0x3816 JUMP JUMPDEST PUSH1 0x20 DUP1 DUP3 MSTORE PUSH1 0x11 SWAP1 DUP3 ADD MSTORE PUSH17 0x34B73B30B634B2103732BB9037BBB732B9 PUSH1 0x79 SHL PUSH1 0x40 DUP3 ADD MSTORE PUSH1 0x60 ADD SWAP1 JUMP JUMPDEST PUSH1 0x20 DUP1 DUP3 MSTORE PUSH1 0xD SWAP1 DUP3 ADD MSTORE PUSH13 0x92DCECC2D8D2C840D2DCC8CAF PUSH1 0x9B SHL PUSH1 0x40 DUP3 ADD MSTORE PUSH1 0x60 ADD SWAP1 JUMP JUMPDEST PUSH1 0x20 DUP1 DUP3 MSTORE DUP2 DUP2 ADD MSTORE PUSH32 0x4F776E61626C653A2063616C6C6572206973206E6F7420746865206F776E6572 PUSH1 0x40 DUP3 ADD MSTORE PUSH1 0x60 ADD SWAP1 JUMP JUMPDEST PUSH2 0xFFFF SWAP2 SWAP1 SWAP2 AND DUP2 MSTORE PUSH1 0x20 ADD SWAP1 JUMP JUMPDEST PUSH1 0x0 PUSH2 0xFFFF DUP5 AND DUP3 MSTORE PUSH1 0x40 PUSH1 0x20 DUP4 ADD MSTORE PUSH2 0x24CB PUSH1 0x40 DUP4 ADD DUP5 PUSH2 0x3427 JUMP JUMPDEST PUSH1 0x0 PUSH2 0xFFFF DUP6 AND DUP3 MSTORE PUSH1 0x60 PUSH1 0x20 DUP4 ADD MSTORE PUSH2 0x3902 PUSH1 0x60 DUP4 ADD DUP6 PUSH2 0x3427 JUMP JUMPDEST SWAP1 POP PUSH4 0xFFFFFFFF DUP4 AND PUSH1 0x40 DUP4 ADD MSTORE SWAP5 SWAP4 POP POP POP POP JUMP JUMPDEST SWAP1 DUP2 MSTORE PUSH1 0x20 ADD SWAP1 JUMP JUMPDEST SWAP3 DUP4 MSTORE PUSH1 0x20 DUP4 ADD SWAP2 SWAP1 SWAP2 MSTORE PUSH1 0x40 DUP3 ADD MSTORE PUSH1 0x60 ADD SWAP1 JUMP JUMPDEST PUSH1 0x40 MLOAD DUP2 DUP2 ADD PUSH1 0x1 PUSH1 0x1 PUSH1 0x40 SHL SUB DUP2 GT DUP3 DUP3 LT OR ISZERO PUSH2 0x3952 JUMPI INVALID JUMPDEST PUSH1 0x40 MSTORE SWAP2 SWAP1 POP JUMP JUMPDEST PUSH1 0x0 PUSH1 0x1 PUSH1 0x1 PUSH1 0x40 SHL SUB DUP3 GT ISZERO PUSH2 0x396D JUMPI INVALID JUMPDEST POP PUSH1 0x20 SWAP1 DUP2 MUL ADD SWAP1 JUMP JUMPDEST PUSH1 0x0 PUSH1 0x1 PUSH1 0x1 PUSH1 0x40 SHL SUB DUP3 GT ISZERO PUSH2 0x398A JUMPI INVALID JUMPDEST POP PUSH1 0x1F ADD PUSH1 0x1F NOT AND PUSH1 0x20 ADD SWAP1 JUMP JUMPDEST PUSH1 0x0 JUMPDEST DUP4 DUP2 LT ISZERO PUSH2 0x39B3 JUMPI DUP2 DUP2 ADD MLOAD DUP4 DUP3 ADD MSTORE PUSH1 0x20 ADD PUSH2 0x399B JUMP JUMPDEST DUP4 DUP2 GT ISZERO PUSH2 0x9FA JUMPI POP POP PUSH1 0x0 SWAP2 ADD MSTORE JUMP JUMPDEST PUSH1 0x1 PUSH1 0x1 PUSH1 0xA0 SHL SUB DUP2 AND DUP2 EQ PUSH2 0xC5A JUMPI PUSH1 0x0 DUP1 REVERT JUMPDEST DUP1 ISZERO ISZERO DUP2 EQ PUSH2 0xC5A JUMPI PUSH1 0x0 DUP1 REVERT JUMPDEST PUSH2 0xFFFF DUP2 AND DUP2 EQ PUSH2 0xC5A JUMPI PUSH1 0x0 DUP1 REVERT INVALID COINBASE PUSH5 0x6472657373 GASPRICE KECCAK256 PUSH10 0x6E73756666696369656E PUSH21 0x2062616C616E636520666F722063616C6C53616665 GASLIMIT MSTORE NUMBER ORIGIN ADDRESS GASPRICE KECCAK256 GASLIMIT MSTORE NUMBER ORIGIN ADDRESS KECCAK256 PUSH16 0x7065726174696F6E20646964206E6F74 KECCAK256 PUSH20 0x7563636565645361666545524332303A20617070 PUSH19 0x6F76652066726F6D206E6F6E2D7A65726F2074 PUSH16 0x206E6F6E2D7A65726F20616C6C6F7761 PUSH15 0x6365A2646970667358221220CDD913 OR GASLIMIT PUSH8 0xB625370B9572F2B6 DUP2 0x5F 0xE4 DUP6 0xD6 SWAP5 0xED PUSH18 0x590A14A0F5E64904642564736F6C63430007 MOD STOP CALLER ","sha1":"0a551111bab6c1e71b6cbec5283bc28500b62caf","source":"// SPDX-License-Identifier: BSUL-1.1\npragma solidity =0.7.6;\npragma abicoder v2;\n\nimport {IERC20} from \"@openzeppelin/contracts/token/ERC20/IERC20.sol\";\nimport {SafeERC20} from \"@openzeppelin/contracts/token/ERC20/SafeERC20.sol\";\nimport {SafeMath} from \"@openzeppelin/contracts/math/SafeMath.sol\";\nimport {FlashLiquidatorBase} from \"./FlashLiquidatorBase.sol\";\nimport {\n    TradeActionType,\n    DepositActionType, \n    BalanceAction, \n    BalanceActionWithTrades\n} from \"../../global/Types.sol\";\nimport {SafeInt256} from \"../../math/SafeInt256.sol\";\nimport {DateTime} from \"../../internal/markets/DateTime.sol\";\nimport {NotionalProxy} from \"../../../interfaces/notional/NotionalProxy.sol\";\nimport {IWstETH} from \"../../../interfaces/IWstETH.sol\";\n\ncontract FlashLiquidator is FlashLiquidatorBase {\n    using SafeERC20 for IERC20;\n    using SafeInt256 for int256;\n    using SafeMath for uint256;\n\n    constructor(\n        NotionalProxy notional_,\n        address weth_,\n        address owner_,\n        address tradingModule_\n    ) FlashLiquidatorBase(notional_, weth_, owner_, tradingModule_) { }\n\n    function _redeemAndWithdraw(\n        uint16 nTokenCurrencyId,\n        uint96 nTokenBalance,\n        bool redeemToUnderlying\n    ) internal override {\n        BalanceAction[] memory action = new BalanceAction[](1);\n        // If nTokenBalance is zero still try to withdraw entire cash balance\n        action[0].actionType = nTokenBalance == 0\n            ? DepositActionType.None\n            : DepositActionType.RedeemNToken;\n        action[0].currencyId = nTokenCurrencyId;\n        action[0].depositActionAmount = nTokenBalance;\n        action[0].withdrawEntireCashBalance = true;\n        action[0].redeemToUnderlying = redeemToUnderlying;\n        NOTIONAL.batchBalanceAction(address(this), action);\n    }\n\n    function _sellfCashAssets(\n        uint16 fCashCurrency,\n        uint256[] memory fCashMaturities,\n        int256[] memory fCashNotional,\n        uint256 depositActionAmount,\n        bool redeemToUnderlying\n    ) internal override {\n        uint256 blockTime = block.timestamp;\n        BalanceActionWithTrades[] memory action = new BalanceActionWithTrades[](1);\n        action[0].actionType = depositActionAmount > 0\n            ? DepositActionType.DepositAsset\n            : DepositActionType.None;\n        action[0].depositActionAmount = depositActionAmount;\n        action[0].currencyId = fCashCurrency;\n        action[0].withdrawEntireCashBalance = true;\n        action[0].redeemToUnderlying = redeemToUnderlying;\n\n        uint256 numTrades;\n        bytes32[] memory trades = new bytes32[](fCashMaturities.length);\n        for (uint256 i; i < fCashNotional.length; i++) {\n            if (fCashNotional[i] == 0) continue;\n            (uint256 marketIndex, bool isIdiosyncratic) = DateTime.getMarketIndex(\n                7,\n                fCashMaturities[i],\n                blockTime\n            );\n            // We don't trade it out here but if the contract does take on idiosyncratic cash we need to be careful\n            if (isIdiosyncratic) continue;\n\n            trades[numTrades] = bytes32(\n                (uint256(fCashNotional[i] > 0 ? TradeActionType.Borrow : TradeActionType.Lend) <<\n                    248) |\n                    (marketIndex << 240) |\n                    (uint256(uint88(fCashNotional[i].abs())) << 152)\n            );\n            numTrades++;\n        }\n\n        if (numTrades < trades.length) {\n            // Shrink the trades array to length if it is not full\n            bytes32[] memory newTrades = new bytes32[](numTrades);\n            for (uint256 i; i < numTrades; i++) {\n                newTrades[i] = trades[i];\n            }\n            action[0].trades = newTrades;\n        } else {\n            action[0].trades = trades;\n        }\n\n        NOTIONAL.batchBalanceAndTradeAction(address(this), action);\n    }\n\n    function transferOwnership(address newOwner) external onlyOwner {\n        require(newOwner != address(0), \"invalid new owner\");\n        owner = newOwner;\n    }\n\n    function wrapToWETH() external {\n        _wrapToWETH();\n    }\n\n    function withdraw(address token, uint256 amount) external {\n        IERC20(token).safeTransfer(owner, amount);\n    }\n\n    receive() external payable {}\n}","sourcePath":"contracts/external/liquidators/FlashLiquidator.sol","type":"contract","deployment":{"address":"0x48A18d9E10DFcbeC38d31884712Dea5a24120FD6","chainid":"42161","blockHeight":222923959}}