{"abi":[{"inputs":[{"components":[{"internalType":"address","name":"governance","type":"address"},{"internalType":"address","name":"views","type":"address"},{"internalType":"address","name":"initializeMarket","type":"address"},{"internalType":"address","name":"nTokenActions","type":"address"},{"internalType":"address","name":"batchAction","type":"address"},{"internalType":"address","name":"accountAction","type":"address"},{"internalType":"address","name":"erc1155","type":"address"},{"internalType":"address","name":"liquidateCurrency","type":"address"},{"internalType":"address","name":"liquidatefCash","type":"address"},{"internalType":"address","name":"treasury","type":"address"},{"internalType":"address","name":"calculationViews","type":"address"},{"internalType":"address","name":"vaultAccountAction","type":"address"},{"internalType":"address","name":"vaultAction","type":"address"},{"internalType":"address","name":"vaultLiquidationAction","type":"address"},{"internalType":"address","name":"vaultAccountHealth","type":"address"}],"internalType":"struct IRouter.DeployedContracts","name":"contracts","type":"tuple"}],"stateMutability":"nonpayable","type":"constructor","name":"constructor"},{"stateMutability":"payable","type":"fallback"},{"inputs":[],"name":"ACCOUNT_ACTION","outputs":[{"internalType":"address","name":"","type":"address"}],"stateMutability":"view","type":"function"},{"inputs":[],"name":"BATCH_ACTION","outputs":[{"internalType":"address","name":"","type":"address"}],"stateMutability":"view","type":"function"},{"inputs":[],"name":"CALCULATION_VIEWS","outputs":[{"internalType":"address","name":"","type":"address"}],"stateMutability":"view","type":"function"},{"inputs":[],"name":"ERC1155","outputs":[{"internalType":"address","name":"","type":"address"}],"stateMutability":"view","type":"function"},{"inputs":[],"name":"GOVERNANCE","outputs":[{"internalType":"address","name":"","type":"address"}],"stateMutability":"view","type":"function"},{"inputs":[],"name":"INITIALIZE_MARKET","outputs":[{"internalType":"address","name":"","type":"address"}],"stateMutability":"view","type":"function"},{"inputs":[],"name":"LIQUIDATE_CURRENCY","outputs":[{"internalType":"address","name":"","type":"address"}],"stateMutability":"view","type":"function"},{"inputs":[],"name":"LIQUIDATE_FCASH","outputs":[{"internalType":"address","name":"","type":"address"}],"stateMutability":"view","type":"function"},{"inputs":[],"name":"NTOKEN_ACTIONS","outputs":[{"internalType":"address","name":"","type":"address"}],"stateMutability":"view","type":"function"},{"inputs":[],"name":"TREASURY","outputs":[{"internalType":"address","name":"","type":"address"}],"stateMutability":"view","type":"function"},{"inputs":[],"name":"VAULT_ACCOUNT_ACTION","outputs":[{"internalType":"address","name":"","type":"address"}],"stateMutability":"view","type":"function"},{"inputs":[],"name":"VAULT_ACCOUNT_HEALTH","outputs":[{"internalType":"address","name":"","type":"address"}],"stateMutability":"view","type":"function"},{"inputs":[],"name":"VAULT_ACTION","outputs":[{"internalType":"address","name":"","type":"address"}],"stateMutability":"view","type":"function"},{"inputs":[],"name":"VAULT_LIQUIDATION_ACTION","outputs":[{"internalType":"address","name":"","type":"address"}],"stateMutability":"view","type":"function"},{"inputs":[],"name":"VIEWS","outputs":[{"internalType":"address","name":"","type":"address"}],"stateMutability":"view","type":"function"},{"inputs":[{"internalType":"bytes4","name":"sig","type":"bytes4"}],"name":"getRouterImplementation","outputs":[{"internalType":"address","name":"","type":"address"}],"stateMutability":"view","type":"function"},{"inputs":[{"internalType":"address","name":"owner_","type":"address"},{"internalType":"address","name":"pauseRouter_","type":"address"},{"internalType":"address","name":"pauseGuardian_","type":"address"}],"name":"initialize","outputs":[],"stateMutability":"nonpayable","type":"function"},{"inputs":[],"name":"owner","outputs":[{"internalType":"address","name":"","type":"address"}],"stateMutability":"view","type":"function"},{"inputs":[],"name":"pauseGuardian","outputs":[{"internalType":"address","name":"","type":"address"}],"stateMutability":"view","type":"function"},{"inputs":[],"name":"pauseRouter","outputs":[{"internalType":"address","name":"","type":"address"}],"stateMutability":"view","type":"function"},{"stateMutability":"payable","type":"receive"}],"bytecode":"6102806040523480156200001257600080fd5b5060405162001a4038038062001a408339810160408190526200003591620001bd565b6200003f62000131565b80516001600160601b0319606091821b811660809081526020840151831b821660a09081526040850151841b831660c090815284860151851b841660e090815292860151851b841661010090815291860151851b841661012090815290860151851b841661014090815292860151851b841661016090815291860151851b841661018090815290860151851b84166101a090815292860151851b84166101c090815291860151851b84166101e052850151841b83166102005290840151831b82166102205290920151811b9091166102405233901b610260526000805463ff000000191663010000001790556200036c565b46600181148062000143575061053981145b15620001725760405162461bcd60e51b8152600401620001639062000303565b60405180910390fd5b6200019d565b61a4b181141562000183576200016c565b60405162461bcd60e51b8152600401620001639062000321565b50565b80516001600160a01b0381168114620001b857600080fd5b919050565b60006101e0808385031215620001d1578182fd5b620001dc8162000348565b9050620001e983620001a0565b8152620001f960208401620001a0565b60208201526200020c60408401620001a0565b60408201526200021f60608401620001a0565b60608201526200023260808401620001a0565b60808201526200024560a08401620001a0565b60a08201526200025860c08401620001a0565b60c08201526200026b60e08401620001a0565b60e082015261010062000280818501620001a0565b9082015261012062000294848201620001a0565b90820152610140620002a8848201620001a0565b90820152610160620002bc848201620001a0565b90820152610180620002d0848201620001a0565b908201526101a0620002e4848201620001a0565b908201526101c0620002f8848201620001a0565b908201529392505050565b6020808252600490820152634e4f544560e01b604082015260600190565b6020808252600d908201526c24b73b30b634b21021b430b4b760991b604082015260600190565b6040518181016001600160401b03811182821017156200036457fe5b604052919050565b60805160601c60a05160601c60c05160601c60e05160601c6101005160601c6101205160601c6101405160601c6101605160601c6101805160601c6101a05160601c6101c05160601c6101e05160601c6102005160601c6102205160601c6102405160601c6102605160601c6115ab62000495600039806113ef5250806104f15280611354525080610ab1528061139e525080610bae528061149352508061058252806113c252508061116b5280611330525080610f7c52806112c4525080610a3b52806112495250806109aa528061127c5250806107b052806112a052508061066352806112e8525080610388528061130c5250806109195280611225525080610bee52806114b752508061119252806111dd525080610e14528061120152506115ab6000f3fe6080604052600436106101235760003560e01c806372d27134116100a0578063a317bdfa11610064578063a317bdfa146102a5578063ba6b7fc2146102ba578063c0c53b8b146102cf578063d8e310a4146102ef578063dcc1a738146103045761012a565b806372d271341461023157806376e1df481461024657806380aafd3914610266578063824633671461027b5780638da5cb5b146102905761012a565b80632be75895116100e75780632be75895146101c85780632d255471146101dd5780632d2c5565146101f25780636009b8e6146102075780636d7cdbbf1461021c5761012a565b80630c4e793514610149578063146278341461017457806315beeb9314610189578063206109b51461019e57806324a3d622146101b35761012a565b3661012a57005b6101476101426000356001600160e01b031916610319565b6111b7565b005b34801561015557600080fd5b5061015e6111db565b60405161016b9190611561565b60405180910390f35b34801561018057600080fd5b5061015e6111ff565b34801561019557600080fd5b5061015e611223565b3480156101aa57600080fd5b5061015e611247565b3480156101bf57600080fd5b5061015e61126b565b3480156101d457600080fd5b5061015e61127a565b3480156101e957600080fd5b5061015e61129e565b3480156101fe57600080fd5b5061015e6112c2565b34801561021357600080fd5b5061015e6112e6565b34801561022857600080fd5b5061015e61130a565b34801561023d57600080fd5b5061015e61132e565b34801561025257600080fd5b5061015e610261366004611532565b610319565b34801561027257600080fd5b5061015e611352565b34801561028757600080fd5b5061015e611376565b34801561029c57600080fd5b5061015e611385565b3480156102b157600080fd5b5061015e61139c565b3480156102c657600080fd5b5061015e6113c0565b3480156102db57600080fd5b506101476102ea3660046114f0565b6113e4565b3480156102fb57600080fd5b5061015e611491565b34801561031057600080fd5b5061015e6114b5565b60006001600160e01b03198216633735195360e11b148061034a57506001600160e01b03198216630276b64b60e01b145b8061036557506001600160e01b03198216635950d8e960e01b145b8061038057506001600160e01b03198216630541f52760e41b145b156103ac57507f00000000000000000000000000000000000000000000000000000000000000006111b2565b6001600160e01b0319821663b14428b960e01b14806103db57506001600160e01b03198216630c74db1f60e41b145b806103f657506001600160e01b031982166306e5e69960e01b145b8061041157506001600160e01b031982166304a7a34160e41b145b8061042c57506001600160e01b0319821663c025d1a560e01b145b8061044757506001600160e01b031982166321d9f6a560e21b145b8061046257506001600160e01b0319821663de1eb9a360e01b145b8061047d57506001600160e01b031982166333a8abbb60e11b145b8061049857506001600160e01b031982166328536d5f60e21b145b806104b357506001600160e01b03198216635f91ee3160e11b145b806104ce57506001600160e01b0319821663f82f279d60e01b145b806104e957506001600160e01b03198216633157228160e01b145b1561051557507f00000000000000000000000000000000000000000000000000000000000000006111b2565b6001600160e01b03198216634ae0d10160e11b148061054457506001600160e01b0319821663194ed84160e21b145b8061055f57506001600160e01b03198216636ce48f0160e01b145b8061057a57506001600160e01b03198216631dd8a22160e31b145b156105a657507f00000000000000000000000000000000000000000000000000000000000000006111b2565b6001600160e01b03198216632890fb6560e01b14806105d457506001600160e01b03198216625e665d60e31b145b806105ef57506001600160e01b0319821663912e33c760e01b145b8061060a57506001600160e01b0319821663f667f89760e01b145b8061062557506001600160e01b031982166356a273dd60e01b145b8061064057506001600160e01b031982166309c9794560e41b145b8061065b57506001600160e01b03198216631874358760e21b145b1561068757507f00000000000000000000000000000000000000000000000000000000000000006111b2565b6001600160e01b031982166301ffc9a760e01b14806106b557506001600160e01b03198216627eeac760e11b145b806106d057506001600160e01b031982166313849cfd60e21b145b806106eb57506001600160e01b03198216630fac8f0960e01b145b8061070657506001600160e01b031982166381a8685560e01b145b8061072157506001600160e01b03198216637921219560e11b145b8061073c57506001600160e01b03198216631759616b60e11b145b8061075757506001600160e01b031982166307f4d70160e31b145b8061077257506001600160e01b03198216630e6b43b960e31b145b8061078d57506001600160e01b0319821663a22cb46560e01b145b806107a857506001600160e01b0319821663e985e9c560e01b145b156107d457507f00000000000000000000000000000000000000000000000000000000000000006111b2565b6001600160e01b03198216636a96e86f60e01b148061080357506001600160e01b0319821663a78dbfff60e01b145b8061081e57506001600160e01b03198216637db31ab960e01b145b8061083957506001600160e01b0319821663184e005360e11b145b8061085457506001600160e01b031982166318ae40d760e01b145b8061086f57506001600160e01b03198216634425384960e11b145b8061088a57506001600160e01b031982166305c1d97560e31b145b806108a557506001600160e01b03198216636d6503d360e11b145b806108c057506001600160e01b03198216634107597160e01b145b806108db57506001600160e01b0319821663ca2cc36160e01b145b806108f657506001600160e01b03198216631f1cd70760e21b145b8061091157506001600160e01b031982166372b88b2760e11b145b1561093d57507f00000000000000000000000000000000000000000000000000000000000000006111b2565b6001600160e01b03198216632d10e6eb60e01b148061096c57506001600160e01b03198216636633af3960e01b145b8061098757506001600160e01b0319821663e3e7cb4f60e01b145b806109a257506001600160e01b03198216639a600eeb60e01b145b156109ce57507f00000000000000000000000000000000000000000000000000000000000000006111b2565b6001600160e01b03198216631ff7aefd60e21b14806109fd57506001600160e01b0319821663e816469d60e01b145b80610a1857506001600160e01b03198216630fb281d960e01b145b80610a3357506001600160e01b0319821663fa37e39560e01b145b15610a5f57507f00000000000000000000000000000000000000000000000000000000000000006111b2565b6001600160e01b0319821663fcaf198b60e01b1480610a8e57506001600160e01b03198216634d5bb8c360e11b145b80610aa957506001600160e01b031982166310dfc63360e11b145b15610ad557507f00000000000000000000000000000000000000000000000000000000000000006111b2565b6001600160e01b03198216631a69b47360e21b1480610b0457506001600160e01b031982166315bd0a3160e21b145b80610b1f57506001600160e01b031982166354cceaf760e01b145b80610b3a57506001600160e01b03198216635b389c5560e11b145b80610b5557506001600160e01b0319821663291afdf360e01b145b80610b7057506001600160e01b031982166302f0233760e21b145b80610b8b57506001600160e01b03198216631a599a4b60e21b145b80610ba657506001600160e01b03198216634140f63560e11b145b15610bd257507f00000000000000000000000000000000000000000000000000000000000000006111b2565b6001600160e01b03198216630343819360e61b1415610c1257507f00000000000000000000000000000000000000000000000000000000000000006111b2565b6001600160e01b03198216634e62cf3d60e01b1480610c4157506001600160e01b03198216635b9cf66f60e11b145b80610c5c57506001600160e01b0319821663090b917b60e01b145b80610c7757506001600160e01b0319821663744ec0ef60e01b145b80610c9257506001600160e01b031982166303531a0960e41b145b80610cad57506001600160e01b03198216634fc24b0560e11b145b80610cc857506001600160e01b03198216630afe1c7d60e31b145b80610ce357506001600160e01b0319821663039f7cd760e41b145b80610cfe57506001600160e01b0319821663315cb2b960e21b145b80610d1957506001600160e01b03198216632c90b94d60e21b145b80610d3457506001600160e01b031982166309ce3c1960e31b145b80610d4f57506001600160e01b0319821663e1d548e760e01b145b80610d6a57506001600160e01b031982166333eabd1d60e21b145b80610d8557506001600160e01b0319821663413f2c5f60e01b145b80610da057506001600160e01b031982166311472fbd60e01b145b80610dbb57506001600160e01b0319821663fa17b5f160e01b145b80610dd657506001600160e01b031982166313eabebd60e01b145b80610df157506001600160e01b03198216631b2ce7f360e11b145b80610e0c57506001600160e01b0319821663278f794360e11b145b15610e3857507f00000000000000000000000000000000000000000000000000000000000000006111b2565b6001600160e01b031982166354ebde2960e11b1480610e6757506001600160e01b03198216636d7a00eb60e01b145b80610e8257506001600160e01b03198216637f23d4f960e11b145b80610e9d57506001600160e01b03198216637090f00560e01b145b80610eb857506001600160e01b0319821663239cec8f60e21b145b80610ed357506001600160e01b031982166312adc47b60e01b145b80610eee57506001600160e01b0319821663f5edb9d560e01b145b80610f0957506001600160e01b031982166354f7dd1960e11b145b80610f2357506001600160e01b0319821662e2bd7760e21b145b80610f3e57506001600160e01b03198216633a1e429760e01b145b80610f5957506001600160e01b0319821663a56c077f60e01b145b80610f7457506001600160e01b0319821663198d1a9760e21b145b15610fa057507f00000000000000000000000000000000000000000000000000000000000000006111b2565b6001600160e01b03198216636a09a2a360e01b1480610fcf57506001600160e01b03198216631a05bce160e01b145b80610fea57506001600160e01b03198216633b2987b360e01b145b8061100557506001600160e01b03198216631b5231e560e21b145b8061102057506001600160e01b03198216638355e89560e01b145b8061103b57506001600160e01b0319821663094614df60e01b145b8061105657506001600160e01b03198216634beb6d9760e11b145b8061107157506001600160e01b0319821663c52c43e160e01b145b8061108c57506001600160e01b03198216635953c77b60e01b145b806110a757506001600160e01b03198216631f0750c160e31b145b806110c257506001600160e01b0319821663bac9e8b160e01b145b806110dd57506001600160e01b0319821663aaae47b560e01b145b806110f857506001600160e01b0319821663416a158760e01b145b8061111357506001600160e01b03198216631baefc5d60e21b145b8061112d57506001600160e01b03198216621d692960e71b145b8061114857506001600160e01b0319821663f11ff57360e01b145b8061116357506001600160e01b03198216633142984d60e21b145b1561118f57507f00000000000000000000000000000000000000000000000000000000000000006111b2565b507f00000000000000000000000000000000000000000000000000000000000000005b919050565b3660008037600080366000845af43d6000803e8080156111d6573d6000f35b3d6000fd5b7f000000000000000000000000000000000000000000000000000000000000000081565b7f000000000000000000000000000000000000000000000000000000000000000081565b7f000000000000000000000000000000000000000000000000000000000000000081565b7f000000000000000000000000000000000000000000000000000000000000000081565b6002546001600160a01b031681565b7f000000000000000000000000000000000000000000000000000000000000000081565b7f000000000000000000000000000000000000000000000000000000000000000081565b7f000000000000000000000000000000000000000000000000000000000000000081565b7f000000000000000000000000000000000000000000000000000000000000000081565b7f000000000000000000000000000000000000000000000000000000000000000081565b7f000000000000000000000000000000000000000000000000000000000000000081565b7f000000000000000000000000000000000000000000000000000000000000000081565b6001546001600160a01b031681565b60005464010000000090046001600160a01b031681565b7f000000000000000000000000000000000000000000000000000000000000000081565b7f000000000000000000000000000000000000000000000000000000000000000081565b336001600160a01b037f00000000000000000000000000000000000000000000000000000000000000001614801561142657506000546301000000900460ff16155b61142f57600080fd5b60008054600180546001600160a01b039586166001600160a01b03199182161790915560028054948616949091169390931790925563ff000000199290931664010000000002640100000000600160c01b031990911617166301000000179055565b7f000000000000000000000000000000000000000000000000000000000000000081565b7f000000000000000000000000000000000000000000000000000000000000000081565b80356001600160a01b03811681146111b257600080fd5b600080600060608486031215611504578283fd5b61150d846114d9565b925061151b602085016114d9565b9150611529604085016114d9565b90509250925092565b600060208284031215611543578081fd5b81356001600160e01b03198116811461155a578182fd5b9392505050565b6001600160a01b039190911681526020019056fea26469706673582212202a2ab7512d615feb145e8453c9e778c439089b50dc1e91d223c879e96cc0286e64736f6c63430007060033","bytecodeSha1":"2231b5d185078b84c6f0051fbfe79c881cfdb081","compiler":{"evm_version":"istanbul","optimizer":{"enabled":true,"runs":200},"version":"0.7.6+commit.7338295f"},"contractName":"Router","language":"Solidity","natspec":{"kind":"dev","methods":{"getRouterImplementation(bytes4)":{"notice":"Returns the implementation contract for the method signature","params":{"sig":"method signature to call"},"returns":{"_0":"implementation address"}}},"notice":"Sits behind an upgradeable proxy and routes methods to an appropriate implementation contract. All storage will sit inside the upgradeable proxy and this router will authorize the call and re-route the calls to implementing contracts. This pattern adds an additional hop between the proxy and the ultimate implementation contract, however, it also allows for atomic upgrades of the entire system. Individual implementation contracts will be deployed and then a new Router with the new hardcoded addresses will then be deployed and upgraded into place.","version":1},"opcodes":"PUSH1 0x80 PUSH1 0x40 MSTORE PUSH1 0x4 CALLDATASIZE LT PUSH2 0x123 JUMPI PUSH1 0x0 CALLDATALOAD PUSH1 0xE0 SHR DUP1 PUSH4 0x72D27134 GT PUSH2 0xA0 JUMPI DUP1 PUSH4 0xA317BDFA GT PUSH2 0x64 JUMPI DUP1 PUSH4 0xA317BDFA EQ PUSH2 0x2A5 JUMPI DUP1 PUSH4 0xBA6B7FC2 EQ PUSH2 0x2BA JUMPI DUP1 PUSH4 0xC0C53B8B EQ PUSH2 0x2CF JUMPI DUP1 PUSH4 0xD8E310A4 EQ PUSH2 0x2EF JUMPI DUP1 PUSH4 0xDCC1A738 EQ PUSH2 0x304 JUMPI PUSH2 0x12A JUMP JUMPDEST DUP1 PUSH4 0x72D27134 EQ PUSH2 0x231 JUMPI DUP1 PUSH4 0x76E1DF48 EQ PUSH2 0x246 JUMPI DUP1 PUSH4 0x80AAFD39 EQ PUSH2 0x266 JUMPI DUP1 PUSH4 0x82463367 EQ PUSH2 0x27B JUMPI DUP1 PUSH4 0x8DA5CB5B EQ PUSH2 0x290 JUMPI PUSH2 0x12A JUMP JUMPDEST DUP1 PUSH4 0x2BE75895 GT PUSH2 0xE7 JUMPI DUP1 PUSH4 0x2BE75895 EQ PUSH2 0x1C8 JUMPI DUP1 PUSH4 0x2D255471 EQ PUSH2 0x1DD JUMPI DUP1 PUSH4 0x2D2C5565 EQ PUSH2 0x1F2 JUMPI DUP1 PUSH4 0x6009B8E6 EQ PUSH2 0x207 JUMPI DUP1 PUSH4 0x6D7CDBBF EQ PUSH2 0x21C JUMPI PUSH2 0x12A JUMP JUMPDEST DUP1 PUSH4 0xC4E7935 EQ PUSH2 0x149 JUMPI DUP1 PUSH4 0x14627834 EQ PUSH2 0x174 JUMPI DUP1 PUSH4 0x15BEEB93 EQ PUSH2 0x189 JUMPI DUP1 PUSH4 0x206109B5 EQ PUSH2 0x19E JUMPI DUP1 PUSH4 0x24A3D622 EQ PUSH2 0x1B3 JUMPI PUSH2 0x12A JUMP JUMPDEST CALLDATASIZE PUSH2 0x12A JUMPI STOP JUMPDEST PUSH2 0x147 PUSH2 0x142 PUSH1 0x0 CALLDATALOAD PUSH1 0x1 PUSH1 0x1 PUSH1 0xE0 SHL SUB NOT AND PUSH2 0x319 JUMP JUMPDEST PUSH2 0x11B7 JUMP JUMPDEST STOP JUMPDEST CALLVALUE DUP1 ISZERO PUSH2 0x155 JUMPI PUSH1 0x0 DUP1 REVERT JUMPDEST POP PUSH2 0x15E PUSH2 0x11DB JUMP JUMPDEST PUSH1 0x40 MLOAD PUSH2 0x16B SWAP2 SWAP1 PUSH2 0x1561 JUMP JUMPDEST PUSH1 0x40 MLOAD DUP1 SWAP2 SUB SWAP1 RETURN JUMPDEST CALLVALUE DUP1 ISZERO PUSH2 0x180 JUMPI PUSH1 0x0 DUP1 REVERT JUMPDEST POP PUSH2 0x15E PUSH2 0x11FF JUMP JUMPDEST CALLVALUE DUP1 ISZERO PUSH2 0x195 JUMPI PUSH1 0x0 DUP1 REVERT JUMPDEST POP PUSH2 0x15E PUSH2 0x1223 JUMP JUMPDEST CALLVALUE DUP1 ISZERO PUSH2 0x1AA JUMPI PUSH1 0x0 DUP1 REVERT JUMPDEST POP PUSH2 0x15E PUSH2 0x1247 JUMP JUMPDEST CALLVALUE DUP1 ISZERO PUSH2 0x1BF JUMPI PUSH1 0x0 DUP1 REVERT JUMPDEST POP PUSH2 0x15E PUSH2 0x126B JUMP JUMPDEST CALLVALUE DUP1 ISZERO PUSH2 0x1D4 JUMPI PUSH1 0x0 DUP1 REVERT JUMPDEST POP PUSH2 0x15E PUSH2 0x127A JUMP JUMPDEST CALLVALUE DUP1 ISZERO PUSH2 0x1E9 JUMPI PUSH1 0x0 DUP1 REVERT JUMPDEST POP PUSH2 0x15E PUSH2 0x129E JUMP JUMPDEST CALLVALUE DUP1 ISZERO PUSH2 0x1FE JUMPI PUSH1 0x0 DUP1 REVERT JUMPDEST POP PUSH2 0x15E PUSH2 0x12C2 JUMP JUMPDEST CALLVALUE DUP1 ISZERO PUSH2 0x213 JUMPI PUSH1 0x0 DUP1 REVERT JUMPDEST POP PUSH2 0x15E PUSH2 0x12E6 JUMP JUMPDEST CALLVALUE DUP1 ISZERO PUSH2 0x228 JUMPI PUSH1 0x0 DUP1 REVERT JUMPDEST POP PUSH2 0x15E PUSH2 0x130A JUMP JUMPDEST CALLVALUE DUP1 ISZERO PUSH2 0x23D JUMPI PUSH1 0x0 DUP1 REVERT JUMPDEST POP PUSH2 0x15E PUSH2 0x132E JUMP JUMPDEST CALLVALUE DUP1 ISZERO PUSH2 0x252 JUMPI PUSH1 0x0 DUP1 REVERT JUMPDEST POP PUSH2 0x15E PUSH2 0x261 CALLDATASIZE PUSH1 0x4 PUSH2 0x1532 JUMP JUMPDEST PUSH2 0x319 JUMP JUMPDEST CALLVALUE DUP1 ISZERO PUSH2 0x272 JUMPI PUSH1 0x0 DUP1 REVERT JUMPDEST POP PUSH2 0x15E PUSH2 0x1352 JUMP JUMPDEST CALLVALUE DUP1 ISZERO PUSH2 0x287 JUMPI PUSH1 0x0 DUP1 REVERT JUMPDEST POP PUSH2 0x15E PUSH2 0x1376 JUMP JUMPDEST CALLVALUE DUP1 ISZERO PUSH2 0x29C JUMPI PUSH1 0x0 DUP1 REVERT JUMPDEST POP PUSH2 0x15E PUSH2 0x1385 JUMP JUMPDEST CALLVALUE DUP1 ISZERO PUSH2 0x2B1 JUMPI PUSH1 0x0 DUP1 REVERT JUMPDEST POP PUSH2 0x15E PUSH2 0x139C JUMP JUMPDEST CALLVALUE DUP1 ISZERO PUSH2 0x2C6 JUMPI PUSH1 0x0 DUP1 REVERT JUMPDEST POP PUSH2 0x15E PUSH2 0x13C0 JUMP JUMPDEST CALLVALUE DUP1 ISZERO PUSH2 0x2DB JUMPI PUSH1 0x0 DUP1 REVERT JUMPDEST POP PUSH2 0x147 PUSH2 0x2EA CALLDATASIZE PUSH1 0x4 PUSH2 0x14F0 JUMP JUMPDEST PUSH2 0x13E4 JUMP JUMPDEST CALLVALUE DUP1 ISZERO PUSH2 0x2FB JUMPI PUSH1 0x0 DUP1 REVERT JUMPDEST POP PUSH2 0x15E PUSH2 0x1491 JUMP JUMPDEST CALLVALUE DUP1 ISZERO PUSH2 0x310 JUMPI PUSH1 0x0 DUP1 REVERT JUMPDEST POP PUSH2 0x15E PUSH2 0x14B5 JUMP JUMPDEST PUSH1 0x0 PUSH1 0x1 PUSH1 0x1 PUSH1 0xE0 SHL SUB NOT DUP3 AND PUSH4 0x37351953 PUSH1 0xE1 SHL EQ DUP1 PUSH2 0x34A JUMPI POP PUSH1 0x1 PUSH1 0x1 PUSH1 0xE0 SHL SUB NOT DUP3 AND PUSH4 0x276B64B PUSH1 0xE0 SHL EQ JUMPDEST DUP1 PUSH2 0x365 JUMPI POP PUSH1 0x1 PUSH1 0x1 PUSH1 0xE0 SHL SUB NOT DUP3 AND PUSH4 0x5950D8E9 PUSH1 0xE0 SHL EQ JUMPDEST DUP1 PUSH2 0x380 JUMPI POP PUSH1 0x1 PUSH1 0x1 PUSH1 0xE0 SHL SUB NOT DUP3 AND PUSH4 0x541F527 PUSH1 0xE4 SHL EQ JUMPDEST ISZERO PUSH2 0x3AC JUMPI POP PUSH32 0x0 PUSH2 0x11B2 JUMP JUMPDEST PUSH1 0x1 PUSH1 0x1 PUSH1 0xE0 SHL SUB NOT DUP3 AND PUSH4 0xB14428B9 PUSH1 0xE0 SHL EQ DUP1 PUSH2 0x3DB JUMPI POP PUSH1 0x1 PUSH1 0x1 PUSH1 0xE0 SHL SUB NOT DUP3 AND PUSH4 0xC74DB1F PUSH1 0xE4 SHL EQ JUMPDEST DUP1 PUSH2 0x3F6 JUMPI POP PUSH1 0x1 PUSH1 0x1 PUSH1 0xE0 SHL SUB NOT DUP3 AND PUSH4 0x6E5E699 PUSH1 0xE0 SHL EQ JUMPDEST DUP1 PUSH2 0x411 JUMPI POP PUSH1 0x1 PUSH1 0x1 PUSH1 0xE0 SHL SUB NOT DUP3 AND PUSH4 0x4A7A341 PUSH1 0xE4 SHL EQ JUMPDEST DUP1 PUSH2 0x42C JUMPI POP PUSH1 0x1 PUSH1 0x1 PUSH1 0xE0 SHL SUB NOT DUP3 AND PUSH4 0xC025D1A5 PUSH1 0xE0 SHL EQ JUMPDEST DUP1 PUSH2 0x447 JUMPI POP PUSH1 0x1 PUSH1 0x1 PUSH1 0xE0 SHL SUB NOT DUP3 AND PUSH4 0x21D9F6A5 PUSH1 0xE2 SHL EQ JUMPDEST DUP1 PUSH2 0x462 JUMPI POP PUSH1 0x1 PUSH1 0x1 PUSH1 0xE0 SHL SUB NOT DUP3 AND PUSH4 0xDE1EB9A3 PUSH1 0xE0 SHL EQ JUMPDEST DUP1 PUSH2 0x47D JUMPI POP PUSH1 0x1 PUSH1 0x1 PUSH1 0xE0 SHL SUB NOT DUP3 AND PUSH4 0x33A8ABBB PUSH1 0xE1 SHL EQ JUMPDEST DUP1 PUSH2 0x498 JUMPI POP PUSH1 0x1 PUSH1 0x1 PUSH1 0xE0 SHL SUB NOT DUP3 AND PUSH4 0x28536D5F PUSH1 0xE2 SHL EQ JUMPDEST DUP1 PUSH2 0x4B3 JUMPI POP PUSH1 0x1 PUSH1 0x1 PUSH1 0xE0 SHL SUB NOT DUP3 AND PUSH4 0x5F91EE31 PUSH1 0xE1 SHL EQ JUMPDEST DUP1 PUSH2 0x4CE JUMPI POP PUSH1 0x1 PUSH1 0x1 PUSH1 0xE0 SHL SUB NOT DUP3 AND PUSH4 0xF82F279D PUSH1 0xE0 SHL EQ JUMPDEST DUP1 PUSH2 0x4E9 JUMPI POP PUSH1 0x1 PUSH1 0x1 PUSH1 0xE0 SHL SUB NOT DUP3 AND PUSH4 0x31572281 PUSH1 0xE0 SHL EQ JUMPDEST ISZERO PUSH2 0x515 JUMPI POP PUSH32 0x0 PUSH2 0x11B2 JUMP JUMPDEST PUSH1 0x1 PUSH1 0x1 PUSH1 0xE0 SHL SUB NOT DUP3 AND PUSH4 0x4AE0D101 PUSH1 0xE1 SHL EQ DUP1 PUSH2 0x544 JUMPI POP PUSH1 0x1 PUSH1 0x1 PUSH1 0xE0 SHL SUB NOT DUP3 AND PUSH4 0x194ED841 PUSH1 0xE2 SHL EQ JUMPDEST DUP1 PUSH2 0x55F JUMPI POP PUSH1 0x1 PUSH1 0x1 PUSH1 0xE0 SHL SUB NOT DUP3 AND PUSH4 0x6CE48F01 PUSH1 0xE0 SHL EQ JUMPDEST DUP1 PUSH2 0x57A JUMPI POP PUSH1 0x1 PUSH1 0x1 PUSH1 0xE0 SHL SUB NOT DUP3 AND PUSH4 0x1DD8A221 PUSH1 0xE3 SHL EQ JUMPDEST ISZERO PUSH2 0x5A6 JUMPI POP PUSH32 0x0 PUSH2 0x11B2 JUMP JUMPDEST PUSH1 0x1 PUSH1 0x1 PUSH1 0xE0 SHL SUB NOT DUP3 AND PUSH4 0x2890FB65 PUSH1 0xE0 SHL EQ DUP1 PUSH2 0x5D4 JUMPI POP PUSH1 0x1 PUSH1 0x1 PUSH1 0xE0 SHL SUB NOT DUP3 AND PUSH3 0x5E665D PUSH1 0xE3 SHL EQ JUMPDEST DUP1 PUSH2 0x5EF JUMPI POP PUSH1 0x1 PUSH1 0x1 PUSH1 0xE0 SHL SUB NOT DUP3 AND PUSH4 0x912E33C7 PUSH1 0xE0 SHL EQ JUMPDEST DUP1 PUSH2 0x60A JUMPI POP PUSH1 0x1 PUSH1 0x1 PUSH1 0xE0 SHL SUB NOT DUP3 AND PUSH4 0xF667F897 PUSH1 0xE0 SHL EQ JUMPDEST DUP1 PUSH2 0x625 JUMPI POP PUSH1 0x1 PUSH1 0x1 PUSH1 0xE0 SHL SUB NOT DUP3 AND PUSH4 0x56A273DD PUSH1 0xE0 SHL EQ JUMPDEST DUP1 PUSH2 0x640 JUMPI POP PUSH1 0x1 PUSH1 0x1 PUSH1 0xE0 SHL SUB NOT DUP3 AND PUSH4 0x9C97945 PUSH1 0xE4 SHL EQ JUMPDEST DUP1 PUSH2 0x65B JUMPI POP PUSH1 0x1 PUSH1 0x1 PUSH1 0xE0 SHL SUB NOT DUP3 AND PUSH4 0x18743587 PUSH1 0xE2 SHL EQ JUMPDEST ISZERO PUSH2 0x687 JUMPI POP PUSH32 0x0 PUSH2 0x11B2 JUMP JUMPDEST PUSH1 0x1 PUSH1 0x1 PUSH1 0xE0 SHL SUB NOT DUP3 AND PUSH4 0x1FFC9A7 PUSH1 0xE0 SHL EQ DUP1 PUSH2 0x6B5 JUMPI POP PUSH1 0x1 PUSH1 0x1 PUSH1 0xE0 SHL SUB NOT DUP3 AND PUSH3 0x7EEAC7 PUSH1 0xE1 SHL EQ JUMPDEST DUP1 PUSH2 0x6D0 JUMPI POP PUSH1 0x1 PUSH1 0x1 PUSH1 0xE0 SHL SUB NOT DUP3 AND PUSH4 0x13849CFD PUSH1 0xE2 SHL EQ JUMPDEST DUP1 PUSH2 0x6EB JUMPI POP PUSH1 0x1 PUSH1 0x1 PUSH1 0xE0 SHL SUB NOT DUP3 AND PUSH4 0xFAC8F09 PUSH1 0xE0 SHL EQ JUMPDEST DUP1 PUSH2 0x706 JUMPI POP PUSH1 0x1 PUSH1 0x1 PUSH1 0xE0 SHL SUB NOT DUP3 AND PUSH4 0x81A86855 PUSH1 0xE0 SHL EQ JUMPDEST DUP1 PUSH2 0x721 JUMPI POP PUSH1 0x1 PUSH1 0x1 PUSH1 0xE0 SHL SUB NOT DUP3 AND PUSH4 0x79212195 PUSH1 0xE1 SHL EQ JUMPDEST DUP1 PUSH2 0x73C JUMPI POP PUSH1 0x1 PUSH1 0x1 PUSH1 0xE0 SHL SUB NOT DUP3 AND PUSH4 0x1759616B PUSH1 0xE1 SHL EQ JUMPDEST DUP1 PUSH2 0x757 JUMPI POP PUSH1 0x1 PUSH1 0x1 PUSH1 0xE0 SHL SUB NOT DUP3 AND PUSH4 0x7F4D701 PUSH1 0xE3 SHL EQ JUMPDEST DUP1 PUSH2 0x772 JUMPI POP PUSH1 0x1 PUSH1 0x1 PUSH1 0xE0 SHL SUB NOT DUP3 AND PUSH4 0xE6B43B9 PUSH1 0xE3 SHL EQ JUMPDEST DUP1 PUSH2 0x78D JUMPI POP PUSH1 0x1 PUSH1 0x1 PUSH1 0xE0 SHL SUB NOT DUP3 AND PUSH4 0xA22CB465 PUSH1 0xE0 SHL EQ JUMPDEST DUP1 PUSH2 0x7A8 JUMPI POP PUSH1 0x1 PUSH1 0x1 PUSH1 0xE0 SHL SUB NOT DUP3 AND PUSH4 0xE985E9C5 PUSH1 0xE0 SHL EQ JUMPDEST ISZERO PUSH2 0x7D4 JUMPI POP PUSH32 0x0 PUSH2 0x11B2 JUMP JUMPDEST PUSH1 0x1 PUSH1 0x1 PUSH1 0xE0 SHL SUB NOT DUP3 AND PUSH4 0x6A96E86F PUSH1 0xE0 SHL EQ DUP1 PUSH2 0x803 JUMPI POP PUSH1 0x1 PUSH1 0x1 PUSH1 0xE0 SHL SUB NOT DUP3 AND PUSH4 0xA78DBFFF PUSH1 0xE0 SHL EQ JUMPDEST DUP1 PUSH2 0x81E JUMPI POP PUSH1 0x1 PUSH1 0x1 PUSH1 0xE0 SHL SUB NOT DUP3 AND PUSH4 0x7DB31AB9 PUSH1 0xE0 SHL EQ JUMPDEST DUP1 PUSH2 0x839 JUMPI POP PUSH1 0x1 PUSH1 0x1 PUSH1 0xE0 SHL SUB NOT DUP3 AND PUSH4 0x184E0053 PUSH1 0xE1 SHL EQ JUMPDEST DUP1 PUSH2 0x854 JUMPI POP PUSH1 0x1 PUSH1 0x1 PUSH1 0xE0 SHL SUB NOT DUP3 AND PUSH4 0x18AE40D7 PUSH1 0xE0 SHL EQ JUMPDEST DUP1 PUSH2 0x86F JUMPI POP PUSH1 0x1 PUSH1 0x1 PUSH1 0xE0 SHL SUB NOT DUP3 AND PUSH4 0x44253849 PUSH1 0xE1 SHL EQ JUMPDEST DUP1 PUSH2 0x88A JUMPI POP PUSH1 0x1 PUSH1 0x1 PUSH1 0xE0 SHL SUB NOT DUP3 AND PUSH4 0x5C1D975 PUSH1 0xE3 SHL EQ JUMPDEST DUP1 PUSH2 0x8A5 JUMPI POP PUSH1 0x1 PUSH1 0x1 PUSH1 0xE0 SHL SUB NOT DUP3 AND PUSH4 0x6D6503D3 PUSH1 0xE1 SHL EQ JUMPDEST DUP1 PUSH2 0x8C0 JUMPI POP PUSH1 0x1 PUSH1 0x1 PUSH1 0xE0 SHL SUB NOT DUP3 AND PUSH4 0x41075971 PUSH1 0xE0 SHL EQ JUMPDEST DUP1 PUSH2 0x8DB JUMPI POP PUSH1 0x1 PUSH1 0x1 PUSH1 0xE0 SHL SUB NOT DUP3 AND PUSH4 0xCA2CC361 PUSH1 0xE0 SHL EQ JUMPDEST DUP1 PUSH2 0x8F6 JUMPI POP PUSH1 0x1 PUSH1 0x1 PUSH1 0xE0 SHL SUB NOT DUP3 AND PUSH4 0x1F1CD707 PUSH1 0xE2 SHL EQ JUMPDEST DUP1 PUSH2 0x911 JUMPI POP PUSH1 0x1 PUSH1 0x1 PUSH1 0xE0 SHL SUB NOT DUP3 AND PUSH4 0x72B88B27 PUSH1 0xE1 SHL EQ JUMPDEST ISZERO PUSH2 0x93D JUMPI POP PUSH32 0x0 PUSH2 0x11B2 JUMP JUMPDEST PUSH1 0x1 PUSH1 0x1 PUSH1 0xE0 SHL SUB NOT DUP3 AND PUSH4 0x2D10E6EB PUSH1 0xE0 SHL EQ DUP1 PUSH2 0x96C JUMPI POP PUSH1 0x1 PUSH1 0x1 PUSH1 0xE0 SHL SUB NOT DUP3 AND PUSH4 0x6633AF39 PUSH1 0xE0 SHL EQ JUMPDEST DUP1 PUSH2 0x987 JUMPI POP PUSH1 0x1 PUSH1 0x1 PUSH1 0xE0 SHL SUB NOT DUP3 AND PUSH4 0xE3E7CB4F PUSH1 0xE0 SHL EQ JUMPDEST DUP1 PUSH2 0x9A2 JUMPI POP PUSH1 0x1 PUSH1 0x1 PUSH1 0xE0 SHL SUB NOT DUP3 AND PUSH4 0x9A600EEB PUSH1 0xE0 SHL EQ JUMPDEST ISZERO PUSH2 0x9CE JUMPI POP PUSH32 0x0 PUSH2 0x11B2 JUMP JUMPDEST PUSH1 0x1 PUSH1 0x1 PUSH1 0xE0 SHL SUB NOT DUP3 AND PUSH4 0x1FF7AEFD PUSH1 0xE2 SHL EQ DUP1 PUSH2 0x9FD JUMPI POP PUSH1 0x1 PUSH1 0x1 PUSH1 0xE0 SHL SUB NOT DUP3 AND PUSH4 0xE816469D PUSH1 0xE0 SHL EQ JUMPDEST DUP1 PUSH2 0xA18 JUMPI POP PUSH1 0x1 PUSH1 0x1 PUSH1 0xE0 SHL SUB NOT DUP3 AND PUSH4 0xFB281D9 PUSH1 0xE0 SHL EQ JUMPDEST DUP1 PUSH2 0xA33 JUMPI POP PUSH1 0x1 PUSH1 0x1 PUSH1 0xE0 SHL SUB NOT DUP3 AND PUSH4 0xFA37E395 PUSH1 0xE0 SHL EQ JUMPDEST ISZERO PUSH2 0xA5F JUMPI POP PUSH32 0x0 PUSH2 0x11B2 JUMP JUMPDEST PUSH1 0x1 PUSH1 0x1 PUSH1 0xE0 SHL SUB NOT DUP3 AND PUSH4 0xFCAF198B PUSH1 0xE0 SHL EQ DUP1 PUSH2 0xA8E JUMPI POP PUSH1 0x1 PUSH1 0x1 PUSH1 0xE0 SHL SUB NOT DUP3 AND PUSH4 0x4D5BB8C3 PUSH1 0xE1 SHL EQ JUMPDEST DUP1 PUSH2 0xAA9 JUMPI POP PUSH1 0x1 PUSH1 0x1 PUSH1 0xE0 SHL SUB NOT DUP3 AND PUSH4 0x10DFC633 PUSH1 0xE1 SHL EQ JUMPDEST ISZERO PUSH2 0xAD5 JUMPI POP PUSH32 0x0 PUSH2 0x11B2 JUMP JUMPDEST PUSH1 0x1 PUSH1 0x1 PUSH1 0xE0 SHL SUB NOT DUP3 AND PUSH4 0x1A69B473 PUSH1 0xE2 SHL EQ DUP1 PUSH2 0xB04 JUMPI POP PUSH1 0x1 PUSH1 0x1 PUSH1 0xE0 SHL SUB NOT DUP3 AND PUSH4 0x15BD0A31 PUSH1 0xE2 SHL EQ JUMPDEST DUP1 PUSH2 0xB1F JUMPI POP PUSH1 0x1 PUSH1 0x1 PUSH1 0xE0 SHL SUB NOT DUP3 AND PUSH4 0x54CCEAF7 PUSH1 0xE0 SHL EQ JUMPDEST DUP1 PUSH2 0xB3A JUMPI POP PUSH1 0x1 PUSH1 0x1 PUSH1 0xE0 SHL SUB NOT DUP3 AND PUSH4 0x5B389C55 PUSH1 0xE1 SHL EQ JUMPDEST DUP1 PUSH2 0xB55 JUMPI POP PUSH1 0x1 PUSH1 0x1 PUSH1 0xE0 SHL SUB NOT DUP3 AND PUSH4 0x291AFDF3 PUSH1 0xE0 SHL EQ JUMPDEST DUP1 PUSH2 0xB70 JUMPI POP PUSH1 0x1 PUSH1 0x1 PUSH1 0xE0 SHL SUB NOT DUP3 AND PUSH4 0x2F02337 PUSH1 0xE2 SHL EQ JUMPDEST DUP1 PUSH2 0xB8B JUMPI POP PUSH1 0x1 PUSH1 0x1 PUSH1 0xE0 SHL SUB NOT DUP3 AND PUSH4 0x1A599A4B PUSH1 0xE2 SHL EQ JUMPDEST DUP1 PUSH2 0xBA6 JUMPI POP PUSH1 0x1 PUSH1 0x1 PUSH1 0xE0 SHL SUB NOT DUP3 AND PUSH4 0x4140F635 PUSH1 0xE1 SHL EQ JUMPDEST ISZERO PUSH2 0xBD2 JUMPI POP PUSH32 0x0 PUSH2 0x11B2 JUMP JUMPDEST PUSH1 0x1 PUSH1 0x1 PUSH1 0xE0 SHL SUB NOT DUP3 AND PUSH4 0x3438193 PUSH1 0xE6 SHL EQ ISZERO PUSH2 0xC12 JUMPI POP PUSH32 0x0 PUSH2 0x11B2 JUMP JUMPDEST PUSH1 0x1 PUSH1 0x1 PUSH1 0xE0 SHL SUB NOT DUP3 AND PUSH4 0x4E62CF3D PUSH1 0xE0 SHL EQ DUP1 PUSH2 0xC41 JUMPI POP PUSH1 0x1 PUSH1 0x1 PUSH1 0xE0 SHL SUB NOT DUP3 AND PUSH4 0x5B9CF66F PUSH1 0xE1 SHL EQ JUMPDEST DUP1 PUSH2 0xC5C JUMPI POP PUSH1 0x1 PUSH1 0x1 PUSH1 0xE0 SHL SUB NOT DUP3 AND PUSH4 0x90B917B PUSH1 0xE0 SHL EQ JUMPDEST DUP1 PUSH2 0xC77 JUMPI POP PUSH1 0x1 PUSH1 0x1 PUSH1 0xE0 SHL SUB NOT DUP3 AND PUSH4 0x744EC0EF PUSH1 0xE0 SHL EQ JUMPDEST DUP1 PUSH2 0xC92 JUMPI POP PUSH1 0x1 PUSH1 0x1 PUSH1 0xE0 SHL SUB NOT DUP3 AND PUSH4 0x3531A09 PUSH1 0xE4 SHL EQ JUMPDEST DUP1 PUSH2 0xCAD JUMPI POP PUSH1 0x1 PUSH1 0x1 PUSH1 0xE0 SHL SUB NOT DUP3 AND PUSH4 0x4FC24B05 PUSH1 0xE1 SHL EQ JUMPDEST DUP1 PUSH2 0xCC8 JUMPI POP PUSH1 0x1 PUSH1 0x1 PUSH1 0xE0 SHL SUB NOT DUP3 AND PUSH4 0xAFE1C7D PUSH1 0xE3 SHL EQ JUMPDEST DUP1 PUSH2 0xCE3 JUMPI POP PUSH1 0x1 PUSH1 0x1 PUSH1 0xE0 SHL SUB NOT DUP3 AND PUSH4 0x39F7CD7 PUSH1 0xE4 SHL EQ JUMPDEST DUP1 PUSH2 0xCFE JUMPI POP PUSH1 0x1 PUSH1 0x1 PUSH1 0xE0 SHL SUB NOT DUP3 AND PUSH4 0x315CB2B9 PUSH1 0xE2 SHL EQ JUMPDEST DUP1 PUSH2 0xD19 JUMPI POP PUSH1 0x1 PUSH1 0x1 PUSH1 0xE0 SHL SUB NOT DUP3 AND PUSH4 0x2C90B94D PUSH1 0xE2 SHL EQ JUMPDEST DUP1 PUSH2 0xD34 JUMPI POP PUSH1 0x1 PUSH1 0x1 PUSH1 0xE0 SHL SUB NOT DUP3 AND PUSH4 0x9CE3C19 PUSH1 0xE3 SHL EQ JUMPDEST DUP1 PUSH2 0xD4F JUMPI POP PUSH1 0x1 PUSH1 0x1 PUSH1 0xE0 SHL SUB NOT DUP3 AND PUSH4 0xE1D548E7 PUSH1 0xE0 SHL EQ JUMPDEST DUP1 PUSH2 0xD6A JUMPI POP PUSH1 0x1 PUSH1 0x1 PUSH1 0xE0 SHL SUB NOT DUP3 AND PUSH4 0x33EABD1D PUSH1 0xE2 SHL EQ JUMPDEST DUP1 PUSH2 0xD85 JUMPI POP PUSH1 0x1 PUSH1 0x1 PUSH1 0xE0 SHL SUB NOT DUP3 AND PUSH4 0x413F2C5F PUSH1 0xE0 SHL EQ JUMPDEST DUP1 PUSH2 0xDA0 JUMPI POP PUSH1 0x1 PUSH1 0x1 PUSH1 0xE0 SHL SUB NOT DUP3 AND PUSH4 0x11472FBD PUSH1 0xE0 SHL EQ JUMPDEST DUP1 PUSH2 0xDBB JUMPI POP PUSH1 0x1 PUSH1 0x1 PUSH1 0xE0 SHL SUB NOT DUP3 AND PUSH4 0xFA17B5F1 PUSH1 0xE0 SHL EQ JUMPDEST DUP1 PUSH2 0xDD6 JUMPI POP PUSH1 0x1 PUSH1 0x1 PUSH1 0xE0 SHL SUB NOT DUP3 AND PUSH4 0x13EABEBD PUSH1 0xE0 SHL EQ JUMPDEST DUP1 PUSH2 0xDF1 JUMPI POP PUSH1 0x1 PUSH1 0x1 PUSH1 0xE0 SHL SUB NOT DUP3 AND PUSH4 0x1B2CE7F3 PUSH1 0xE1 SHL EQ JUMPDEST DUP1 PUSH2 0xE0C JUMPI POP PUSH1 0x1 PUSH1 0x1 PUSH1 0xE0 SHL SUB NOT DUP3 AND PUSH4 0x278F7943 PUSH1 0xE1 SHL EQ JUMPDEST ISZERO PUSH2 0xE38 JUMPI POP PUSH32 0x0 PUSH2 0x11B2 JUMP JUMPDEST PUSH1 0x1 PUSH1 0x1 PUSH1 0xE0 SHL SUB NOT DUP3 AND PUSH4 0x54EBDE29 PUSH1 0xE1 SHL EQ DUP1 PUSH2 0xE67 JUMPI POP PUSH1 0x1 PUSH1 0x1 PUSH1 0xE0 SHL SUB NOT DUP3 AND PUSH4 0x6D7A00EB PUSH1 0xE0 SHL EQ JUMPDEST DUP1 PUSH2 0xE82 JUMPI POP PUSH1 0x1 PUSH1 0x1 PUSH1 0xE0 SHL SUB NOT DUP3 AND PUSH4 0x7F23D4F9 PUSH1 0xE1 SHL EQ JUMPDEST DUP1 PUSH2 0xE9D JUMPI POP PUSH1 0x1 PUSH1 0x1 PUSH1 0xE0 SHL SUB NOT DUP3 AND PUSH4 0x7090F005 PUSH1 0xE0 SHL EQ JUMPDEST DUP1 PUSH2 0xEB8 JUMPI POP PUSH1 0x1 PUSH1 0x1 PUSH1 0xE0 SHL SUB NOT DUP3 AND PUSH4 0x239CEC8F PUSH1 0xE2 SHL EQ JUMPDEST DUP1 PUSH2 0xED3 JUMPI POP PUSH1 0x1 PUSH1 0x1 PUSH1 0xE0 SHL SUB NOT DUP3 AND PUSH4 0x12ADC47B PUSH1 0xE0 SHL EQ JUMPDEST DUP1 PUSH2 0xEEE JUMPI POP PUSH1 0x1 PUSH1 0x1 PUSH1 0xE0 SHL SUB NOT DUP3 AND PUSH4 0xF5EDB9D5 PUSH1 0xE0 SHL EQ JUMPDEST DUP1 PUSH2 0xF09 JUMPI POP PUSH1 0x1 PUSH1 0x1 PUSH1 0xE0 SHL SUB NOT DUP3 AND PUSH4 0x54F7DD19 PUSH1 0xE1 SHL EQ JUMPDEST DUP1 PUSH2 0xF23 JUMPI POP PUSH1 0x1 PUSH1 0x1 PUSH1 0xE0 SHL SUB NOT DUP3 AND PUSH3 0xE2BD77 PUSH1 0xE2 SHL EQ JUMPDEST DUP1 PUSH2 0xF3E JUMPI POP PUSH1 0x1 PUSH1 0x1 PUSH1 0xE0 SHL SUB NOT DUP3 AND PUSH4 0x3A1E4297 PUSH1 0xE0 SHL EQ JUMPDEST DUP1 PUSH2 0xF59 JUMPI POP PUSH1 0x1 PUSH1 0x1 PUSH1 0xE0 SHL SUB NOT DUP3 AND PUSH4 0xA56C077F PUSH1 0xE0 SHL EQ JUMPDEST DUP1 PUSH2 0xF74 JUMPI POP PUSH1 0x1 PUSH1 0x1 PUSH1 0xE0 SHL SUB NOT DUP3 AND PUSH4 0x198D1A97 PUSH1 0xE2 SHL EQ JUMPDEST ISZERO PUSH2 0xFA0 JUMPI POP PUSH32 0x0 PUSH2 0x11B2 JUMP JUMPDEST PUSH1 0x1 PUSH1 0x1 PUSH1 0xE0 SHL SUB NOT DUP3 AND PUSH4 0x6A09A2A3 PUSH1 0xE0 SHL EQ DUP1 PUSH2 0xFCF JUMPI POP PUSH1 0x1 PUSH1 0x1 PUSH1 0xE0 SHL SUB NOT DUP3 AND PUSH4 0x1A05BCE1 PUSH1 0xE0 SHL EQ JUMPDEST DUP1 PUSH2 0xFEA JUMPI POP PUSH1 0x1 PUSH1 0x1 PUSH1 0xE0 SHL SUB NOT DUP3 AND PUSH4 0x3B2987B3 PUSH1 0xE0 SHL EQ JUMPDEST DUP1 PUSH2 0x1005 JUMPI POP PUSH1 0x1 PUSH1 0x1 PUSH1 0xE0 SHL SUB NOT DUP3 AND PUSH4 0x1B5231E5 PUSH1 0xE2 SHL EQ JUMPDEST DUP1 PUSH2 0x1020 JUMPI POP PUSH1 0x1 PUSH1 0x1 PUSH1 0xE0 SHL SUB NOT DUP3 AND PUSH4 0x8355E895 PUSH1 0xE0 SHL EQ JUMPDEST DUP1 PUSH2 0x103B JUMPI POP PUSH1 0x1 PUSH1 0x1 PUSH1 0xE0 SHL SUB NOT DUP3 AND PUSH4 0x94614DF PUSH1 0xE0 SHL EQ JUMPDEST DUP1 PUSH2 0x1056 JUMPI POP PUSH1 0x1 PUSH1 0x1 PUSH1 0xE0 SHL SUB NOT DUP3 AND PUSH4 0x4BEB6D97 PUSH1 0xE1 SHL EQ JUMPDEST DUP1 PUSH2 0x1071 JUMPI POP PUSH1 0x1 PUSH1 0x1 PUSH1 0xE0 SHL SUB NOT DUP3 AND PUSH4 0xC52C43E1 PUSH1 0xE0 SHL EQ JUMPDEST DUP1 PUSH2 0x108C JUMPI POP PUSH1 0x1 PUSH1 0x1 PUSH1 0xE0 SHL SUB NOT DUP3 AND PUSH4 0x5953C77B PUSH1 0xE0 SHL EQ JUMPDEST DUP1 PUSH2 0x10A7 JUMPI POP PUSH1 0x1 PUSH1 0x1 PUSH1 0xE0 SHL SUB NOT DUP3 AND PUSH4 0x1F0750C1 PUSH1 0xE3 SHL EQ JUMPDEST DUP1 PUSH2 0x10C2 JUMPI POP PUSH1 0x1 PUSH1 0x1 PUSH1 0xE0 SHL SUB NOT DUP3 AND PUSH4 0xBAC9E8B1 PUSH1 0xE0 SHL EQ JUMPDEST DUP1 PUSH2 0x10DD JUMPI POP PUSH1 0x1 PUSH1 0x1 PUSH1 0xE0 SHL SUB NOT DUP3 AND PUSH4 0xAAAE47B5 PUSH1 0xE0 SHL EQ JUMPDEST DUP1 PUSH2 0x10F8 JUMPI POP PUSH1 0x1 PUSH1 0x1 PUSH1 0xE0 SHL SUB NOT DUP3 AND PUSH4 0x416A1587 PUSH1 0xE0 SHL EQ JUMPDEST DUP1 PUSH2 0x1113 JUMPI POP PUSH1 0x1 PUSH1 0x1 PUSH1 0xE0 SHL SUB NOT DUP3 AND PUSH4 0x1BAEFC5D PUSH1 0xE2 SHL EQ JUMPDEST DUP1 PUSH2 0x112D JUMPI POP PUSH1 0x1 PUSH1 0x1 PUSH1 0xE0 SHL SUB NOT DUP3 AND PUSH3 0x1D6929 PUSH1 0xE7 SHL EQ JUMPDEST DUP1 PUSH2 0x1148 JUMPI POP PUSH1 0x1 PUSH1 0x1 PUSH1 0xE0 SHL SUB NOT DUP3 AND PUSH4 0xF11FF573 PUSH1 0xE0 SHL EQ JUMPDEST DUP1 PUSH2 0x1163 JUMPI POP PUSH1 0x1 PUSH1 0x1 PUSH1 0xE0 SHL SUB NOT DUP3 AND PUSH4 0x3142984D PUSH1 0xE2 SHL EQ JUMPDEST ISZERO PUSH2 0x118F JUMPI POP PUSH32 0x0 PUSH2 0x11B2 JUMP JUMPDEST POP PUSH32 0x0 JUMPDEST SWAP2 SWAP1 POP JUMP JUMPDEST CALLDATASIZE PUSH1 0x0 DUP1 CALLDATACOPY PUSH1 0x0 DUP1 CALLDATASIZE PUSH1 0x0 DUP5 GAS DELEGATECALL RETURNDATASIZE PUSH1 0x0 DUP1 RETURNDATACOPY DUP1 DUP1 ISZERO PUSH2 0x11D6 JUMPI RETURNDATASIZE PUSH1 0x0 RETURN JUMPDEST RETURNDATASIZE PUSH1 0x0 REVERT JUMPDEST PUSH32 0x0 DUP2 JUMP JUMPDEST PUSH32 0x0 DUP2 JUMP JUMPDEST PUSH32 0x0 DUP2 JUMP JUMPDEST PUSH32 0x0 DUP2 JUMP JUMPDEST PUSH1 0x2 SLOAD PUSH1 0x1 PUSH1 0x1 PUSH1 0xA0 SHL SUB AND DUP2 JUMP JUMPDEST PUSH32 0x0 DUP2 JUMP JUMPDEST PUSH32 0x0 DUP2 JUMP JUMPDEST PUSH32 0x0 DUP2 JUMP JUMPDEST PUSH32 0x0 DUP2 JUMP JUMPDEST PUSH32 0x0 DUP2 JUMP JUMPDEST PUSH32 0x0 DUP2 JUMP JUMPDEST PUSH32 0x0 DUP2 JUMP JUMPDEST PUSH1 0x1 SLOAD PUSH1 0x1 PUSH1 0x1 PUSH1 0xA0 SHL SUB AND DUP2 JUMP JUMPDEST PUSH1 0x0 SLOAD PUSH5 0x100000000 SWAP1 DIV PUSH1 0x1 PUSH1 0x1 PUSH1 0xA0 SHL SUB AND DUP2 JUMP JUMPDEST PUSH32 0x0 DUP2 JUMP JUMPDEST PUSH32 0x0 DUP2 JUMP JUMPDEST CALLER PUSH1 0x1 PUSH1 0x1 PUSH1 0xA0 SHL SUB PUSH32 0x0 AND EQ DUP1 ISZERO PUSH2 0x1426 JUMPI POP PUSH1 0x0 SLOAD PUSH4 0x1000000 SWAP1 DIV PUSH1 0xFF AND ISZERO JUMPDEST PUSH2 0x142F JUMPI PUSH1 0x0 DUP1 REVERT JUMPDEST PUSH1 0x0 DUP1 SLOAD PUSH1 0x1 DUP1 SLOAD PUSH1 0x1 PUSH1 0x1 PUSH1 0xA0 SHL SUB SWAP6 DUP7 AND PUSH1 0x1 PUSH1 0x1 PUSH1 0xA0 SHL SUB NOT SWAP2 DUP3 AND OR SWAP1 SWAP2 SSTORE PUSH1 0x2 DUP1 SLOAD SWAP5 DUP7 AND SWAP5 SWAP1 SWAP2 AND SWAP4 SWAP1 SWAP4 OR SWAP1 SWAP3 SSTORE PUSH4 0xFF000000 NOT SWAP3 SWAP1 SWAP4 AND PUSH5 0x100000000 MUL PUSH5 0x100000000 PUSH1 0x1 PUSH1 0xC0 SHL SUB NOT SWAP1 SWAP2 AND OR AND PUSH4 0x1000000 OR SWAP1 SSTORE JUMP JUMPDEST PUSH32 0x0 DUP2 JUMP JUMPDEST PUSH32 0x0 DUP2 JUMP JUMPDEST DUP1 CALLDATALOAD PUSH1 0x1 PUSH1 0x1 PUSH1 0xA0 SHL SUB DUP2 AND DUP2 EQ PUSH2 0x11B2 JUMPI PUSH1 0x0 DUP1 REVERT JUMPDEST PUSH1 0x0 DUP1 PUSH1 0x0 PUSH1 0x60 DUP5 DUP7 SUB SLT ISZERO PUSH2 0x1504 JUMPI DUP3 DUP4 REVERT JUMPDEST PUSH2 0x150D DUP5 PUSH2 0x14D9 JUMP JUMPDEST SWAP3 POP PUSH2 0x151B PUSH1 0x20 DUP6 ADD PUSH2 0x14D9 JUMP JUMPDEST SWAP2 POP PUSH2 0x1529 PUSH1 0x40 DUP6 ADD PUSH2 0x14D9 JUMP JUMPDEST SWAP1 POP SWAP3 POP SWAP3 POP SWAP3 JUMP JUMPDEST PUSH1 0x0 PUSH1 0x20 DUP3 DUP5 SUB SLT ISZERO PUSH2 0x1543 JUMPI DUP1 DUP2 REVERT JUMPDEST DUP2 CALLDATALOAD PUSH1 0x1 PUSH1 0x1 PUSH1 0xE0 SHL SUB NOT DUP2 AND DUP2 EQ PUSH2 0x155A JUMPI DUP2 DUP3 REVERT JUMPDEST SWAP4 SWAP3 POP POP POP JUMP JUMPDEST PUSH1 0x1 PUSH1 0x1 PUSH1 0xA0 SHL SUB SWAP2 SWAP1 SWAP2 AND DUP2 MSTORE PUSH1 0x20 ADD SWAP1 JUMP INVALID LOG2 PUSH5 0x6970667358 0x22 SLT KECCAK256 0x2A 0x2A 0xB7 MLOAD 0x2D PUSH2 0x5FEB EQ 0x5E DUP5 MSTORE8 0xC9 0xE7 PUSH25 0xC439089B50DC1E91D223C879E96CC0286E64736F6C63430007 MOD STOP CALLER ","sha1":"499854b3ba8c372fe82f3026fb3ed60e8876fa72","source":"// SPDX-License-Identifier: BSUL-1.1\npragma solidity =0.7.6;\npragma abicoder v2;\n\nimport \"./actions/nTokenMintAction.sol\";\nimport \"../global/StorageLayoutV1.sol\";\nimport \"../global/Types.sol\";\nimport {nTokenERC20} from \"../../interfaces/notional/nTokenERC20.sol\";\nimport \"../../interfaces/notional/NotionalProxy.sol\";\nimport {nERC1155Interface} from \"../../interfaces/notional/nERC1155Interface.sol\";\nimport {NotionalGovernance} from \"../../interfaces/notional/NotionalGovernance.sol\";\nimport {NotionalCalculations} from \"../../interfaces/notional/NotionalCalculations.sol\";\nimport {IRouter} from \"../../interfaces/notional/IRouter.sol\";\nimport {\n    IVaultAction,\n    IVaultAccountAction,\n    IVaultLiquidationAction,\n    IVaultAccountHealth\n} from \"../../interfaces/notional/IVaultController.sol\";\n\n/**\n * @notice Sits behind an upgradeable proxy and routes methods to an appropriate implementation contract. All storage\n * will sit inside the upgradeable proxy and this router will authorize the call and re-route the calls to implementing\n * contracts.\n *\n * This pattern adds an additional hop between the proxy and the ultimate implementation contract, however, it also\n * allows for atomic upgrades of the entire system. Individual implementation contracts will be deployed and then a\n * new Router with the new hardcoded addresses will then be deployed and upgraded into place.\n */\ncontract Router is StorageLayoutV1, IRouter {\n    // These contract addresses cannot be changed once set by the constructor\n    address public immutable override GOVERNANCE;\n    address public immutable override VIEWS;\n    address public immutable override INITIALIZE_MARKET;\n    address public immutable override NTOKEN_ACTIONS;\n    address public immutable override BATCH_ACTION;\n    address public immutable override ACCOUNT_ACTION;\n    address public immutable override ERC1155;\n    address public immutable override LIQUIDATE_CURRENCY;\n    address public immutable override LIQUIDATE_FCASH;\n    address public immutable override TREASURY;\n    address public immutable override CALCULATION_VIEWS;\n    address public immutable override VAULT_ACCOUNT_ACTION;\n    address public immutable override VAULT_ACTION;\n    address public immutable override VAULT_LIQUIDATION_ACTION;\n    address public immutable override VAULT_ACCOUNT_HEALTH;\n    address private immutable DEPLOYER;\n\n    // Ensures that when we deploy, the hardcoded addresses are encoded properly to the chain that is\n    // being deployed to\n    function _checkHardcodedAddresses() private pure {\n        uint256 chainId;\n        assembly { chainId := chainid() }\n        if (chainId == Deployments.MAINNET || chainId == Deployments.LOCAL) {\n            require(Deployments.NOTE_TOKEN_ADDRESS == 0xCFEAead4947f0705A14ec42aC3D44129E1Ef3eD5, \"NOTE\");\n            require(address(Deployments.WETH) == 0xC02aaA39b223FE8D0A0e5C4F27eAD9083C756Cc2, \"WETH\");\n            require(address(Deployments.SEQUENCER_UPTIME_ORACLE) == address(0), \"SEQUENCER\");\n        } else if (chainId == Deployments.ARBITRUM_ONE) {\n            require(Deployments.NOTE_TOKEN_ADDRESS == 0x019bE259BC299F3F653688c7655C87F998Bc7bC1, \"NOTE\");\n            require(address(Deployments.WETH) == 0x82aF49447D8a07e3bd95BD0d56f35241523fBab1, \"WETH\");\n            require(address(Deployments.SEQUENCER_UPTIME_ORACLE) == 0xFdB631F5EE196F0ed6FAa767959853A9F217697D, \"SEQUENCER\");\n        } else {\n            revert(\"Invalid Chain\");\n        }\n    }\n\n    constructor(\n        DeployedContracts memory contracts\n    ) {\n        _checkHardcodedAddresses();\n\n        GOVERNANCE = contracts.governance;\n        VIEWS = contracts.views;\n        INITIALIZE_MARKET = contracts.initializeMarket;\n        NTOKEN_ACTIONS = contracts.nTokenActions;\n        BATCH_ACTION = contracts.batchAction;\n        ACCOUNT_ACTION = contracts.accountAction;\n        ERC1155 = contracts.erc1155;\n        LIQUIDATE_CURRENCY = contracts.liquidateCurrency;\n        LIQUIDATE_FCASH = contracts.liquidatefCash;\n        TREASURY = contracts.treasury;\n        CALCULATION_VIEWS = contracts.calculationViews;\n        VAULT_ACCOUNT_ACTION = contracts.vaultAccountAction;\n        VAULT_ACTION = contracts.vaultAction;\n        VAULT_LIQUIDATION_ACTION = contracts.vaultLiquidationAction;\n        VAULT_ACCOUNT_HEALTH = contracts.vaultAccountHealth;\n\n        DEPLOYER = msg.sender;\n        // This will lock everyone from calling initialize on the implementation contract\n        hasInitialized = true;\n    }\n\n    function initialize(address owner_, address pauseRouter_, address pauseGuardian_) public override {\n        // Check that only the deployer can initialize\n        require(msg.sender == DEPLOYER && !hasInitialized);\n\n        owner = owner_;\n        // The pause guardian may downgrade the router to the pauseRouter\n        pauseRouter = pauseRouter_;\n        pauseGuardian = pauseGuardian_;\n\n        hasInitialized = true;\n    }\n\n    /// @notice Returns the implementation contract for the method signature\n    /// @param sig method signature to call\n    /// @return implementation address\n    function getRouterImplementation(bytes4 sig) public view override returns (address) {\n        if (\n            sig == NotionalProxy.batchBalanceAction.selector ||\n            sig == NotionalProxy.batchBalanceAndTradeAction.selector ||\n            sig == NotionalProxy.batchBalanceAndTradeActionWithCallback.selector ||\n            sig == NotionalProxy.batchLend.selector\n        ) {\n            return BATCH_ACTION;\n        } else if (\n            sig == IVaultAccountHealth.getVaultAccountHealthFactors.selector ||\n            sig == IVaultAccountHealth.calculateDepositAmountInDeleverage.selector ||\n            sig == IVaultAccountHealth.checkVaultAccountCollateralRatio.selector ||\n            sig == IVaultAccountHealth.signedBalanceOfVaultTokenId.selector ||\n            sig == IVaultAccountHealth.getVaultAccount.selector ||\n            sig == IVaultAccountHealth.getVaultAccountWithFeeAccrual.selector ||\n            sig == IVaultAccountHealth.getVaultConfig.selector ||\n            sig == IVaultAccountHealth.getBorrowCapacity.selector ||\n            sig == IVaultAccountHealth.getSecondaryBorrow.selector ||\n            sig == IVaultAccountHealth.getVaultAccountSecondaryDebt.selector ||\n            sig == IVaultAccountHealth.getfCashRequiredToLiquidateCash.selector ||\n            sig == IVaultAccountHealth.getVaultState.selector\n        ) {\n            return VAULT_ACCOUNT_HEALTH;\n        } else if (\n            sig == IVaultAccountAction.enterVault.selector ||\n            sig == IVaultAccountAction.rollVaultPosition.selector ||\n            sig == IVaultAccountAction.exitVault.selector ||\n            sig == IVaultAccountAction.settleVaultAccount.selector\n        ) {\n            return VAULT_ACCOUNT_ACTION;\n        } else if (\n            sig == NotionalProxy.depositUnderlyingToken.selector ||\n            sig == NotionalProxy.withdraw.selector ||\n            sig == NotionalProxy.withdrawViaProxy.selector ||\n            sig == NotionalProxy.settleAccount.selector ||\n            sig == NotionalProxy.nTokenRedeem.selector ||\n            sig == NotionalProxy.enableBitmapCurrency.selector ||\n            sig == NotionalProxy.enablePrimeBorrow.selector\n        ) {\n            return ACCOUNT_ACTION;\n        } else if (\n            sig == nERC1155Interface.supportsInterface.selector ||\n            sig == nERC1155Interface.balanceOf.selector ||\n            sig == nERC1155Interface.balanceOfBatch.selector ||\n            sig == nERC1155Interface.signedBalanceOf.selector ||\n            sig == nERC1155Interface.signedBalanceOfBatch.selector ||\n            sig == nERC1155Interface.safeTransferFrom.selector ||\n            sig == nERC1155Interface.safeBatchTransferFrom.selector ||\n            sig == nERC1155Interface.decodeToAssets.selector ||\n            sig == nERC1155Interface.encodeToId.selector ||\n            sig == nERC1155Interface.setApprovalForAll.selector ||\n            sig == nERC1155Interface.isApprovedForAll.selector\n        ) {\n            return ERC1155;\n        } else if (\n            sig == nTokenERC20.nTokenTotalSupply.selector ||\n            sig == nTokenERC20.nTokenBalanceOf.selector ||\n            sig == nTokenERC20.nTokenTransferAllowance.selector ||\n            sig == nTokenERC20.nTokenTransferApprove.selector ||\n            sig == nTokenERC20.nTokenTransfer.selector ||\n            sig == nTokenERC20.nTokenTransferFrom.selector ||\n            sig == nTokenERC20.nTokenTransferApproveAll.selector ||\n            sig == nTokenERC20.nTokenClaimIncentives.selector ||\n            sig == nTokenERC20.pCashTransferAllowance.selector ||\n            sig == nTokenERC20.pCashTransferApprove.selector ||\n            sig == nTokenERC20.pCashTransfer.selector ||\n            sig == nTokenERC20.pCashTransferFrom.selector\n        ) {\n            return NTOKEN_ACTIONS;\n        } else if (\n            sig == NotionalProxy.liquidateLocalCurrency.selector ||\n            sig == NotionalProxy.liquidateCollateralCurrency.selector ||\n            sig == NotionalProxy.calculateLocalCurrencyLiquidation.selector ||\n            sig == NotionalProxy.calculateCollateralCurrencyLiquidation.selector\n        ) {\n            return LIQUIDATE_CURRENCY;\n        } else if (\n            sig == NotionalProxy.liquidatefCashLocal.selector ||\n            sig == NotionalProxy.liquidatefCashCrossCurrency.selector ||\n            sig == NotionalProxy.calculatefCashLocalLiquidation.selector ||\n            sig == NotionalProxy.calculatefCashCrossCurrencyLiquidation.selector\n        ) {\n            return LIQUIDATE_FCASH;\n        } else if (\n            sig == IVaultLiquidationAction.deleverageAccount.selector ||\n            sig == IVaultLiquidationAction.liquidateVaultCashBalance.selector ||\n            sig == IVaultLiquidationAction.liquidateExcessVaultCash.selector\n        ) {\n            return VAULT_LIQUIDATION_ACTION;\n        } else if (\n            sig == IVaultAction.updateVault.selector ||\n            sig == IVaultAction.setVaultPauseStatus.selector ||\n            sig == IVaultAction.setVaultDeleverageStatus.selector ||\n            sig == IVaultAction.setMaxBorrowCapacity.selector ||\n            sig == IVaultAction.updateSecondaryBorrowCapacity.selector ||\n            sig == IVaultAction.borrowSecondaryCurrencyToVault.selector ||\n            sig == IVaultAction.repaySecondaryCurrencyFromVault.selector ||\n            sig == IVaultAction.settleSecondaryBorrowForAccount.selector\n        ) {\n            return VAULT_ACTION;\n        } else if (\n            sig == NotionalProxy.initializeMarkets.selector\n            // sig == NotionalProxy.sweepCashIntoMarkets.selector\n        ) {\n            return INITIALIZE_MARKET;\n        } else if (\n            sig == NotionalGovernance.listCurrency.selector ||\n            sig == NotionalGovernance.enableCashGroup.selector ||\n            sig == NotionalGovernance.setMaxUnderlyingSupply.selector ||\n            sig == NotionalGovernance.setPauseRouterAndGuardian.selector ||\n            sig == NotionalGovernance.updatePrimeCashHoldingsOracle.selector ||\n            sig == NotionalGovernance.updatePrimeCashCurve.selector ||\n            sig == NotionalGovernance.enablePrimeDebt.selector ||\n            sig == NotionalGovernance.updateCashGroup.selector ||\n            sig == NotionalGovernance.updateETHRate.selector ||\n            sig == NotionalGovernance.transferOwnership.selector ||\n            sig == NotionalGovernance.claimOwnership.selector ||\n            sig == NotionalGovernance.updateInterestRateCurve.selector ||\n            sig == NotionalGovernance.updateDepositParameters.selector ||\n            sig == NotionalGovernance.updateInitializationParameters.selector ||\n            sig == NotionalGovernance.updateTokenCollateralParameters.selector ||\n            sig == NotionalGovernance.updateAuthorizedCallbackContract.selector ||\n            sig == NotionalGovernance.upgradeBeacon.selector ||\n            sig == NotionalProxy.upgradeTo.selector ||\n            sig == NotionalProxy.upgradeToAndCall.selector\n        ) {\n            return GOVERNANCE;\n        } else if (\n            sig == NotionalTreasury.updateIncentiveEmissionRate.selector ||\n            sig == NotionalTreasury.transferReserveToTreasury.selector ||\n            sig == NotionalTreasury.setTreasuryManager.selector ||\n            sig == NotionalTreasury.setRebalancingBot.selector ||\n            sig == NotionalTreasury.setReserveBuffer.selector ||\n            sig == NotionalTreasury.setReserveCashBalance.selector ||\n            sig == NotionalTreasury.setRebalancingTargets.selector ||\n            sig == NotionalTreasury.setRebalancingCooldown.selector ||\n            sig == NotionalTreasury.setSecondaryIncentiveRewarder.selector ||\n            sig == NotionalTreasury.harvestAssetInterest.selector ||\n            sig == NotionalTreasury.checkRebalance.selector ||\n            sig == NotionalTreasury.rebalance.selector\n        ) {\n            return TREASURY;\n        } else if (\n            sig == NotionalCalculations.calculateNTokensToMint.selector ||\n            sig == NotionalCalculations.nTokenPresentValueAssetDenominated.selector ||\n            sig == NotionalCalculations.nTokenPresentValueUnderlyingDenominated.selector ||\n            sig == NotionalCalculations.convertNTokenToUnderlying.selector ||\n            sig == NotionalCalculations.getfCashAmountGivenCashAmount.selector ||\n            sig == NotionalCalculations.getCashAmountGivenfCashAmount.selector ||\n            sig == NotionalCalculations.nTokenGetClaimableIncentives.selector ||\n            sig == NotionalCalculations.getPresentfCashValue.selector ||\n            sig == NotionalCalculations.getMarketIndex.selector ||\n            sig == NotionalCalculations.getfCashLendFromDeposit.selector ||\n            sig == NotionalCalculations.getfCashBorrowFromPrincipal.selector ||\n            sig == NotionalCalculations.getDepositFromfCashLend.selector ||\n            sig == NotionalCalculations.getPrincipalFromfCashBorrow.selector ||\n            sig == NotionalCalculations.convertCashBalanceToExternal.selector ||\n            sig == NotionalCalculations.convertSettledfCash.selector ||\n            sig == NotionalCalculations.convertUnderlyingToPrimeCash.selector ||\n            sig == NotionalCalculations.accruePrimeInterest.selector\n        ) {\n            return CALCULATION_VIEWS;\n        } else {\n            // If not found then delegate to views. This will revert if there is no method on\n            // the view contract\n            return VIEWS;\n        }\n    }\n\n    /// @dev Delegates the current call to `implementation`.\n    /// This function does not return to its internal call site, it will return directly to the external caller.\n    function _delegate(address implementation) private {\n        // solhint-disable-next-line no-inline-assembly\n        assembly {\n            // Copy msg.data. We take full control of memory in this inline assembly\n            // block because it will not return to Solidity code. We overwrite the\n            // Solidity scratch pad at memory position 0.\n            calldatacopy(0, 0, calldatasize())\n\n            // Call the implementation.\n            // out and outsize are 0 because we don't know the size yet.\n            let result := delegatecall(gas(), implementation, 0, calldatasize(), 0, 0)\n\n            // Copy the returned data.\n            returndatacopy(0, 0, returndatasize())\n\n            switch result\n                // delegatecall returns 0 on error.\n                case 0 {\n                    revert(0, returndatasize())\n                }\n                default {\n                    return(0, returndatasize())\n                }\n        }\n    }\n\n    fallback() external payable {\n        _delegate(getRouterImplementation(msg.sig));\n    }\n\n    // NOTE: receive() is overridden in \"nProxy\" to allow for eth transfers to succeed\n    receive() external payable { }\n}","sourcePath":"contracts/external/Router.sol","type":"contract","deployment":{"address":"0x484b4314933BacB9A706a7118C97608624Bce4C9","chainid":"42161","blockHeight":192774903}}