{"abi":[{"inputs":[{"internalType":"address","name":"account","type":"address"},{"internalType":"uint16","name":"currencyId","type":"uint16"},{"internalType":"uint256","name":"amountExternalPrecision","type":"uint256"}],"name":"depositAssetToken","outputs":[{"internalType":"uint256","name":"","type":"uint256"}],"stateMutability":"nonpayable","type":"function"},{"inputs":[{"internalType":"address","name":"account","type":"address"},{"internalType":"uint16","name":"currencyId","type":"uint16"},{"internalType":"uint256","name":"amountExternalPrecision","type":"uint256"}],"name":"depositUnderlyingToken","outputs":[{"internalType":"uint256","name":"","type":"uint256"}],"stateMutability":"payable","type":"function"},{"inputs":[{"internalType":"uint16","name":"currencyId","type":"uint16"}],"name":"enableBitmapCurrency","outputs":[],"stateMutability":"nonpayable","type":"function"},{"inputs":[{"internalType":"bool","name":"allowPrimeBorrow","type":"bool"}],"name":"enablePrimeBorrow","outputs":[],"stateMutability":"nonpayable","type":"function"},{"inputs":[],"name":"getLibInfo","outputs":[{"internalType":"address","name":"","type":"address"},{"internalType":"address","name":"","type":"address"},{"internalType":"address","name":"","type":"address"},{"internalType":"address","name":"","type":"address"}],"stateMutability":"pure","type":"function"},{"inputs":[{"internalType":"address","name":"redeemer","type":"address"},{"internalType":"uint16","name":"currencyId","type":"uint16"},{"internalType":"uint96","name":"tokensToRedeem_","type":"uint96"}],"name":"nTokenRedeem","outputs":[{"internalType":"int256","name":"","type":"int256"}],"stateMutability":"nonpayable","type":"function"},{"inputs":[],"name":"owner","outputs":[{"internalType":"address","name":"","type":"address"}],"stateMutability":"view","type":"function"},{"inputs":[],"name":"pauseGuardian","outputs":[{"internalType":"address","name":"","type":"address"}],"stateMutability":"view","type":"function"},{"inputs":[],"name":"pauseRouter","outputs":[{"internalType":"address","name":"","type":"address"}],"stateMutability":"view","type":"function"},{"inputs":[{"internalType":"address","name":"account","type":"address"}],"name":"settleAccount","outputs":[{"internalType":"bool","name":"","type":"bool"}],"stateMutability":"nonpayable","type":"function"},{"inputs":[{"internalType":"uint16","name":"currencyId","type":"uint16"},{"internalType":"uint88","name":"amountInternalPrecision","type":"uint88"},{"internalType":"bool","name":"redeemToUnderlying","type":"bool"}],"name":"withdraw","outputs":[{"internalType":"uint256","name":"","type":"uint256"}],"stateMutability":"nonpayable","type":"function"}],"bytecode":"608060405234801561001057600080fd5b50614a15806100206000396000f3fe60806040526004361061009c5760003560e01c80638246336711610064578063824633671461014e5780638da5cb5b146101635780639c97945014610178578063b8a6945514610198578063c4c96dae146101b8578063f667f897146101dd5761009c565b806302f332e8146100a157806324a3d622146100d75780632890fb65146100f957806356a273dd1461010c57806361d0d61c1461012c575b600080fd5b3480156100ad57600080fd5b506100c16100bc36600461458b565b61020a565b6040516100ce919061474b565b60405180910390f35b3480156100e357600080fd5b506100ec61038c565b6040516100ce91906145f8565b6100c16101073660046142f5565b61039b565b34801561011857600080fd5b506100c1610127366004614335565b610454565b34801561013857600080fd5b5061014c610147366004614498565b610632565b005b34801561015a57600080fd5b506100ec61066c565b34801561016f57600080fd5b506100ec61067b565b34801561018457600080fd5b5061014c61019336600461456f565b610692565b3480156101a457600080fd5b506100c16101b33660046142f5565b6106df565b3480156101c457600080fd5b506101cd610759565b6040516100ce949392919061460c565b3480156101e957600080fd5b506101fd6101f83660046142d9565b6107b3565b6040516100ce9190614740565b60006002600a54141561021c57600080fd5b6002600a5561ffff841660011461025357816102535760405162461bcd60e51b815260040161024a90614844565b60405180910390fd5b600061025e336107e7565b509050610269613f9e565b610275813388856108ac565b6001600160581b0385811614156102ae57600081602001511361029757600080fd5b6102a481602001516108cd565b60808201526102c6565b6102c0856001600160581b03166108cd565b60808201525b60006102d582338588156108e1565b90506102e183336108fc565b60208301516001600160f81b0319161561035d57604051636ccc642f60e01b815273__FreeCollateralExternal________________90636ccc642f9061032c9033906004016145f8565b60006040518083038186803b15801561034457600080fd5b505af4158015610358573d6000803e3d6000fd5b505050505b600081131561036b57600080fd5b61037c610377826108cd565b610a19565b6001600a55979650505050505050565b6002546001600160a01b031681565b60006002600a5414156103ad57600080fd5b6002600a55333014156103bf57600080fd5b336001600160a01b038516146103d457600080fd5b6103dd84610a2c565b60006103e885610aa7565b90506103f2613f9e565b6103fe818787856108ac565b60006104178761040d87610b55565b8491906000610b6b565b90506000811361042657600080fd5b610431828885610bbd565b61043b83886108fc565b61012082015161044b9087610bdb565b61037c81610a19565b60006002600a54141561046657600080fd5b6002600a55336001600160a01b038516148061048157503330145b61049d5760405162461bcd60e51b815260040161024a906147ee565b6001600160601b03821660006104b2866107e7565b5090506104bd613f9e565b6104c9818888856108ac565b82816040015112156104ed5760405162461bcd60e51b815260040161024a90614924565b6104f6836108cd565b60c0820152604051630e22aaa360e01b815260009073__nTokenRedeemAction____________________90630e22aaa390610539908b908b9089906004016146c3565b60206040518083038186803b15801561055157600080fd5b505af4158015610565573d6000803e3d6000fd5b505050506040513d601f19601f8201168201806040525081019061058991906144b4565b60608301819052905061059d828985610bbd565b6105a783896108fc565b60208301516001600160f81b0319161561037c57604051636ccc642f60e01b815273__FreeCollateralExternal________________90636ccc642f906105f2908b906004016145f8565b60006040518083038186803b15801561060a57600080fd5b505af415801561061e573d6000803e3d6000fd5b505050506001600a55979650505050505050565b3330141561063f57600080fd5b61064833610a2c565b6000610653336107e7565b5082151560a0820152905061066881336108fc565b5050565b6001546001600160a01b031681565b60005464010000000090046001600160a01b031681565b3330141561069f57600080fd5b60005461ffff90811690821611156106b657600080fd5b3360006106c2826107e7565b5090506106d0818442610c1c565b6106da81836108fc565b505050565b60006002600a5414156106f157600080fd5b6002600a553330141561070357600080fd5b336001600160a01b0385161461071857600080fd5b61072184610a2c565b600061072c85610aa7565b9050610736613f9e565b610742818787856108ac565b60006104178761075187610b55565b849190610d14565b73__FreeCollateralExternal________________73__MigrateIncentives_____________________73__SettleAssetsExternal__________________73__nTokenRedeemAction____________________90919293565b60006107be82610a2c565b6000806107ca846107e7565b9150915080156107de576107de82856108fc565b9150505b919050565b6107ef613ffa565b6000806107fb84610aa7565b905061080681610df0565b156108a0576040516337b5fc2160e11b815273__SettleAssetsExternal__________________90636f6bf842906108449087908590600401614650565b60c06040518083038186803b15801561085c57600080fd5b505af4158015610870573d6000803e3d6000fd5b505050506040513d601f19601f8201168201806040525081019061089491906144cc565b600192509250506108a7565b9150600090505b915091565b6108b582610e44565b6101208501526108c784848484610e56565b50505050565b60006108db60001983610efe565b92915050565b60006108f1858585856001610f4c565b90505b949350505050565b6000610906611102565b6001600160a01b03831660008181526020838152604080832088518154938a01518a84015160608c015160808d015160a08e015164ffffffffff1990981664ffffffffff9095169490941765ff00000000001916600160281b60f89490941c939093029290921766ff0000000000001916600160301b60ff909216919091021768ffff000000000000001916600160381b61ffff90921691909102177affffffffffffffffffffffffffffffffffff0000000000000000001916600160481b60709290921c919091021760ff60d81b1916600160d81b93151593909302929092179091555192935090917f6bd4b121bca854a191536a2ca891155c42ee2fb23f307fb34e8bc65cfcb5412e9190a2505050565b600080821215610a2857600080fd5b5090565b6001600160a01b038116610a3f57600080fd5b6001600160a01b038116610fee1415610a5757600080fd5b6001600160a01b0381166105e71415610a6f57600080fd5b6001600160a01b038116301415610a8557600080fd5b6000610a908261110f565b5050505061ffff1690508060001461066857600080fd5b610aaf613ffa565b6000610ab9611102565b6001600160a01b03841660009081526020918252604090819020815160c081018352905464ffffffffff811682526001600160f81b0319600160281b820460f81b169382019390935260ff600160301b840481169282019290925261ffff600160381b84041660608201526001600160701b0319600160481b840460701b166080820152600160d81b90920416151560a0820152915050919050565b60006001600160ff1b03821115610a2857600080fd5b600082610b7a575060006108f4565b60008313610b8757600080fd5b610b9d8486600001518588610120015186611178565b6060870151909250610bb091508261123a565b6060860152949350505050565b608083015115610bcc57600080fd5b6108c783838360006001610f4c565b600080610be88484611250565b915091508160001415610bfc575050610668565b818111156108c75760405162461bcd60e51b815260040161024a90614754565b610c25836112bc565b15610c425760405162461bcd60e51b815260040161024a9061487b565b8161ffff166000108015610c5c5750613fff61ffff831611155b610c785760405162461bcd60e51b815260040161024a906148f7565b604083015160ff1615610c9d5760405162461bcd60e51b815260040161024a906147c2565b60208301516001600160f81b03191615610cc95760405162461bcd60e51b815260040161024a906148a9565b610cde8361ffff84166000600160fe1b6112c9565b61ffff821660608401526000610cf3826114c8565b905064ffffffffff8110610d0657600080fd5b64ffffffffff169092525050565b600081610d2357506000610de9565b60008213610d3057600080fd5b6000610d43856000015161ffff166114e6565b80519091506001600160a01b0316610d5a57600080fd5b600181606001516005811115610d6c57fe5b1480610d875750600281606001516005811115610d8557fe5b145b15610dbf578451610120860151610da3918391869088906114f9565b6060860151909250610db5908361123a565b6060860152610de7565b600481606001516005811115610dd157fe5b141561009c57610de48585856000610b6b565b91505b505b9392505050565b600042610dfc836112bc565b15610e1d57610e0a816114c8565b835164ffffffffff161091506107e29050565b825164ffffffffff1615801590610e3c5750825164ffffffffff168110155b9150506107e2565b610e4c61402f565b6108db824261158a565b8161ffff166000108015610e705750613fff61ffff831611155b610e7957600080fd5b61ffff8216808552610e8c90829061164b565b15610ebb57610ea183838661012001516116d5565b61010088015260e087015260408601526020850152610ed9565b6000602085018190526040850181905260e085018190526101008501525b50506000606083018190526080830181905260a0830181905260c09092019190915250565b818102600019831415610f2e57811580610f20575082828281610f1d57fe5b05145b610f2957600080fd5b6108db565b821580610f43575081838281610f4057fe5b05145b6108db57600080fd5b600080610f6986886000015189608001518a61012001518861178f565b91506000610f888860800151896060015161123a90919063ffffffff16565b9050838015610f975750600081125b8015610fb257506020880151600090610fb0908361123a565b125b15610fd8578560a00151610fd85760405162461bcd60e51b815260040161024a9061481b565b8015610ff7576020880151610fed908261123a565b6020890152600191505b60a088015115158061100c575060c088015115155b1561107557600061103c8960c001516110368b60a001518c6040015161123a90919063ffffffff16565b9061123a565b9050600081121561105f5760405162461bcd60e51b815260040161024a906148d3565b61106a898983611838565b506040890152600191505b81156110a4576110a48789600001518a602001518b604001518c60e001518d61010001518e610120015161192f565b875160208901516110d19161ffff16901515806110c4575060408a015115155b889190600160fe1b6112c9565b6000886020015112156110f757602086018051600160f91b176001600160f81b03191690525b505095945050505050565b6000806108db6001611a6a565b600080600080600080611120611a83565b6001600160a01b039097166000908152602097909752505060409094205461ffff81169563ffffffff62010000830481169650600160301b830416945060ff600160501b8304169350600160581b90910460d01b9150565b600080600061118686610a19565b90508061119a576000809250925050611230565b60006111a98861ffff16611a90565b90506003816060015160058111156111bd57fe5b141561120457348210156111dd576111d88983340387611aa3565b6111fc565b3482146111fc5760405162461bcd60e51b815260040161024a9061477d565b86935061121e565b61121b61121682600001518b85611b6b565b610b55565b93505b61122b898986848a611cf3565b925050505b9550959350505050565b818101828112156000831215146108db57600080fd5b600080600061125d611d3a565b61ffff8516600090815260209190915260409020600181015490915061128f90600160581b900463ffffffff16611d47565b8154909350600160281b90046001600160581b03166112b16103778783611d55565b925050509250929050565b6060015161ffff16151590565b8260001080156112db5750613fff8311155b6112e457600080fd5b8180156112f8575082846060015161ffff16145b15611302576108c7565b6080840151600090815b6001600160701b031982161561147d5760f082901c613fff1686811480156113315750855b1561136957506080870180516001600160f01b0319861660109093029290921c919091176001600160701b0319169052506108c79050565b8681148015611376575085155b156113cb576001600160f01b03198516199290921691600360fe1b83166113a9576010836001600160701b031916901b92505b506001600160701b031991821660109091021c919091171660808501526108c7565b86811180156113d75750855b15611431576080888101516001600160f01b031960f08a901b88178116601086021c9690961795911b161561140b57600080fd5b506001600160701b03199182166001919091016010021c919091171660808501526108c7565b868111801561143e575085155b1561144c57505050506108c7565b506001600160f01b0319821660108281029190911c93909317929190911b6001600160801b0319169060010161130c565b8461148a575050506108c7565b6009811061149757600080fd5b6001600160f01b031960f087901b85171660109091021c919091176001600160701b03191660808601525050505050565b6000620151808210156114da57600080fd5b50620151808106900390565b6114ee614050565b6108db826000611d87565b600061150a86600001518486611b6b565b9350600061151b8661ffff16611a90565b9050600060028860600151600581111561153157fe5b141561154b576115446112168988611e21565b9050611571565b60018860600151600581111561155d57fe5b141561009c57611544611216898489611ed2565b61157e8588838588611cf3565b98975050505050505050565b61159261402f565b600061159d84612092565b905082816000015110156115dc576000806115b78661215a565b90506115c5868483886121d7565b90935091506115d586838561227b565b50506115e9565b805183146115e957600080fd5b60405180606001604052806116126112168460a001518560c001516124af90919063ffffffff16565b81526020016116356112168460a001518560e001516124af90919063ffffffff16565b8152602001826060015181525091505092915050565b6000811580159061165e5750613fff8211155b61166757600080fd5b6080830151606084015161ffff168314156116865760019150506108db565b6001600160701b03198116156116cb5760f081901c613fff16838114156116b85750600160fe1b9081161490506108db565b5060101b6001600160801b031916611686565b5060009392505050565b60008060008060006116e56124d6565b6001600160a01b03891660009081526020828152604080832061ffff8c168452909152902080546001600160501b0381169650600160501b900463ffffffff169450909150831561175257805461174b90600160701b900466ffffffffffffff16611d47565b9250611767565b8054600160701b900466ffffffffffffff1692505b8054611782908890600160a81b9004600a90810b900b6124e3565b9550505093509350935093565b60008361179e5750600061182f565b600084126117ab57600080fd5b60006117ba8661ffff16611a90565b90506117cf816117ca8688611d55565b612511565b915060006117dc836108cd565b90506117e9878383612549565b6003826060015160058111156117fb57fe5b14156118115761180c888286611aa3565b61181e565b815161181e908983612641565b61182b8888858589611cf3565b5050505b95945050505050565b82516000904290829061184e9061ffff166126b8565b9050600061185b826126de565b505090506000611870838960c001518661273a565b905061187e8884838961281d565b9450600061188b8461294a565b90506001600160a01b0381161561191357806001600160a01b0316633f3ef50d898b600001516118be8d60400151610a19565b8b886040518663ffffffff1660e01b81526004016118e09594939291906146e8565b600060405180830381600087803b1580156118fa57600080fd5b505af115801561190e573d6000803e3d6000fd5b505050505b85156119235761192388876129bc565b50505050509392505050565b60006119396124d6565b6001600160a01b03891660009081526020828152604080832061ffff8c1684529091529020909150846119a15766ffffffffffffff84111561197a57600080fd5b805466ffffffffffffff60701b1916600160701b66ffffffffffffff8616021781556119bb565b8054600160501b900463ffffffff1685146119bb57600080fd5b6119c4856129db565b815463ffffffff91909116600160501b0263ffffffff60501b199091161781556119f56119f087610a19565b6129ee565b815469ffffffffffffffffffff19166001600160501b039190911617808255611a3b90611a369085908c908c90600160a81b9004600a90810b900b8c612a04565b612a27565b8154600a9190910b6001600160581b0316600160a81b026001600160a81b039091161790555050505050505050565b6000620f4240826026811115611a7c57fe5b0192915050565b6000806108db6002611a6a565b611a98614050565b6108db826001611d87565b8015611b35577382af49447d8a07e3bd95bd0d56f35241523fbab16001600160a01b031663d0e30db0836040518263ffffffff1660e01b81526004016000604051808303818588803b158015611af857600080fd5b505af1158015611b0c573d6000803e3d6000fd5b5050505050611b307382af49447d8a07e3bd95bd0d56f35241523fbab18484612641565b6106da565b6040516001600160a01b0384169083156108fc029084906000818181858888f193505050501580156108c7573d6000803e3d6000fd5b600080846001600160a01b03166370a08231306040518263ffffffff1660e01b815260040180826001600160a01b0316815260200191505060206040518083038186803b158015611bbb57600080fd5b505afa158015611bcf573d6000803e3d6000fd5b505050506040513d6020811015611be557600080fd5b5051604080516323b872dd60e01b81526001600160a01b038781166004830152306024830152604482018790529151929350908716916323b872dd9160648082019260009290919082900301818387803b158015611c4257600080fd5b505af1158015611c56573d6000803e3d6000fd5b50505050611c62612a59565b6000856001600160a01b03166370a08231306040518263ffffffff1660e01b815260040180826001600160a01b0316815260200191505060206040518083038186803b158015611cb157600080fd5b505afa158015611cc5573d6000803e3d6000fd5b505050506040513d6020811015611cdb57600080fd5b50519050611ce98183612ac6565b9695505050505050565b600080611d008486612adb565b9050611d0c8382612b0b565b9150611d19878784612b2d565b611d24868383612bad565b8351611d309086612cb9565b5095945050505050565b6000806108db601d611a6a565b600881901c60ff9091161b90565b6000610de96ec097ce7bc90715b34b9f1000000000611d81856000015185610efe90919063ffffffff16565b90612d0e565b611d8f614050565b6000611d99612d3f565b6000858152602082815260408083208715158452825291829020825160a08101845281546001600160a01b038116825260ff600160a01b82048116151594830194909452600160b01b81048416600a0a9482019490945293945092916060830191600160a81b909104166005811115611e0e57fe5b8152600060209091015295945050505050565b815160405163db006a7560e01b8152600091479183916001600160a01b03169063db006a7590611e5590879060040161474b565b602060405180830381600087803b158015611e6f57600080fd5b505af1158015611e83573d6000803e3d6000fd5b505050506040513d601f19601f82011682018060405250810190611ea791906144b4565b90508015611ec75760405162461bcd60e51b815260040161024a906147a2565b47611ce98184612ac6565b60008083600001516001600160a01b03166370a08231306040518263ffffffff1660e01b8152600401611f0591906145f8565b60206040518083038186803b158015611f1d57600080fd5b505afa158015611f31573d6000803e3d6000fd5b505050506040513d601f19601f82011682018060405250810190611f5591906144b4565b9050600085600001516001600160a01b031663db006a75856040518263ffffffff1660e01b8152600401611f89919061474b565b602060405180830381600087803b158015611fa357600080fd5b505af1158015611fb7573d6000803e3d6000fd5b505050506040513d601f19601f82011682018060405250810190611fdb91906144b4565b90508015611ffb5760405162461bcd60e51b815260040161024a906147a2565b84516040516370a0823160e01b81526000916001600160a01b0316906370a082319061202b9030906004016145f8565b60206040518083038186803b15801561204357600080fd5b505afa158015612057573d6000803e3d6000fd5b505050506040513d601f19601f8201168201806040525081019061207b91906144b4565b90506120878184612ac6565b979650505050505050565b61209a61407f565b60006120a4611d3a565b61ffff93841660009081526020918252604090819020805464ffffffffff81168652600160281b81046001600160581b03908116948701949094526001820154841692860192909252600160d81b820463ffffffff166060860152600160801b9091049091166080840152600201546001600160501b0380821660a0850152600160501b8204811660c0850152600160a01b82041660e0840152600160f01b900460ff1661012c02909216610100820152919050565b60008061216683612d4c565b6001600160a01b031663ef81f2166040518163ffffffff1660e01b81526004016040805180830381600087803b15801561219f57600080fd5b505af11580156121b3573d6000803e3d6000fd5b505050506040513d601f19601f820116820180604052508101906108f491906145d5565b6121df61407f565b60008060006121ef888689612d7c565b60c08b019290925260e08a0192909252602089015191935091506122139083612e87565b602088015260808701516000901561224157608088015161223e906122388982612ac6565b90612e99565b90505b612261612256670de0b6b3a764000083612e87565b60a08a015190612eb6565b60a089015250506080860194909452505082529092909150565b6000612285611d3a565b60008561ffff16815260200190815260200160002090506122a98260000151612ed3565b815464ffffffffff191664ffffffffff9190911617815560a08201516122ce906129ee565b60028201805469ffffffffffffffffffff19166001600160501b039290921691909117905560c0820151612301906129ee565b81600201600a6101000a8154816001600160501b0302191690836001600160501b031602179055506123368260e001516129ee565b8160020160146101000a8154816001600160501b0302191690836001600160501b0316021790555061236b8260200151612ee7565b81546001600160581b0391909116600160281b026fffffffffffffffffffffff00000000001990911617815560408201516123a590612ee7565b6001820180546affffffffffffffffffffff19166001600160581b039290921691909117905560808201516123d990612ee7565b81546001600160581b0391909116600160801b026affffffffffffffffffffff60801b199091161781556060820151612411906129db565b815463ffffffff91909116600160d81b0263ffffffff60d81b19909116178155821561245d57600061244284610b55565b905061244e8582612efd565b61245b610fee8683612b2d565b505b8361ffff167fef25641e225e493886510ca1ad6584fa7b442b9fea820a29d1de3ce27d270fd28360a001518460c001518560e001516040516124a193929190614951565b60405180910390a250505050565b6000826124be575060006108db565b828202828482816124cb57fe5b0414610de957600080fd5b6000806108db6006611a6a565b60008082126124f35750806108db565b8251602084015161250a9190611d81908590610efe565b90506108db565b60006305f5e1008360400151141561252a5750806108db565b610de96305f5e100611d81856040015185610efe90919063ffffffff16565b6000612553612f34565b83516001600160a01b031660009081526020829052604090205490915080831161257e5750506106da565b600061258986612d4c565b90506000816001600160a01b031663b5e4da238487036040518263ffffffff1660e01b81526004016125bb919061474b565b60006040518083038186803b1580156125d357600080fd5b505afa1580156125e7573d6000803e3d6000fd5b505050506040513d6000823e601f3d908101601f1916820160405261260f919081019061438a565b9050600061261d8783612f41565b915061262b90508482612e87565b86111561263757600080fd5b5050505050505050565b826001600160a01b031663a9059cbb83836040518363ffffffff1660e01b815260040180836001600160a01b0316815260200182815260200192505050600060405180830381600087803b15801561269857600080fd5b505af11580156126ac573d6000803e3d6000fd5b505050506106da612a59565b6000806126c3613158565b6000938452602052505060409020546001600160a01b031690565b6000806000806126ec613165565b6001600160a01b0395909516600090815260209590955250506040909220546001600160601b03811693600160601b82046001600160801b03169350600160e01b90910463ffffffff169150565b60008060006127498685613172565b50915091506000612758613165565b6001600160a01b038816600090815260208290526040812091925061277d858961123a565b90508060001315801561279657506001600160601b0381105b61279f57600080fd5b81546bffffffffffffffffffffffff19166001600160601b038216176fffffffffffffffffffffffffffffffff60601b1916600160601b6001600160801b0386160217825563ffffffff87106127f457600080fd5b50805463ffffffff8716600160e01b026001600160e01b03909116179055509150509392505050565b60e0840151600090156128de5773__MigrateIncentives_____________________63e0c01a72856128528860400151610a19565b8860e001518961010001516040518563ffffffff1660e01b815260040161287c949392919061471a565b60206040518083038186803b15801561289457600080fd5b505af41580156128a8573d6000803e3d6000fd5b505050506040513d601f19601f820116820180604052508101906128cc91906144b4565b600060e0870181905261010087015290505b612920612919866101000151612913670de0b6b3a764000061290d886129078c60400151610a19565b906124af565b90613208565b90612ac6565b8290612e87565b9050612938670de0b6b3a764000061290d84866124af565b85610100018181525050949350505050565b600080612955611a83565b6001600160a01b0384166000908152602082905260409020805491925090600160f81b900460ff16156129b15761298a613227565b6001600160a01b0380861660009081526020929092526040909120541692506107e2915050565b6000925050506107e2565b61066873019be259bc299f3f653688c7655c87f998bc7bc18383612641565b600063ffffffff821115610a2857600080fd5b60006001600160501b03821115610a2857600080fd5b6000612a108683613234565b905061182f868686612a228786613273565b6132fa565b60006a7fffffffffffffffffffff198212801590612a5057506a7fffffffffffffffffffff8213155b610a2857600080fd5b6000612a636140cb565b3d8015612a775760208114612a8057600080fd5b60019250612a8b565b60206000833e815192505b5081610668576040805162461bcd60e51b8152602060048201526005602482015264045524332360dc1b604482015290519081900360640190fd5b600082821115612ad557600080fd5b50900390565b60006305f5e10083604001511415612af45750806108db565b6040830151610de990611d81846305f5e100610efe565b8151600090610de990611d81846ec097ce7bc90715b34b9f1000000000610efe565b6000612b3761332e565b61ffff8416600090815260209190915260409081902054905163ad1c095d60e01b81526001600160a01b039091169150819063ad1c095d90612b7f9087908690600401614637565b600060405180830381600087803b158015612b9957600080fd5b505af1158015612637573d6000803e3d6000fd5b6000612bb7611d3a565b61ffff8516600090815260209190915260409020805490915064ffffffffff164214612be257600080fd5b8054600090612c0190600160281b90046001600160581b03168561123a565b8254909150600090612c2390600160801b90046001600160581b03168561123a565b905080624c4b401315612c3557600080fd5b612c46612c4182610a19565b612ee7565b83546001600160581b0391909116600160801b026affffffffffffffffffffff60801b19909116178355612c7c612c4183610a19565b83546001600160581b0391909116600160281b026fffffffffffffffffffffff000000000019909116178355612cb18361333b565b505050505050565b6000612cc3612f34565b6001600160a01b038416600090815260208290526040902054909150612cec610377828561123a565b6001600160a01b03909416600090815260209290925250604090209190915550565b600081600019148015612d245750600160ff1b83145b15612d2e57600080fd5b818381612d3757fe5b059392505050565b6000806108db6007611a6a565b600080612d57613406565b61ffff939093166000908152602093909352505060409020546001600160a01b031690565b600080600080600080612d8f8988613413565b89519095509193509150600090612db690612dab908b90612ac6565b633b9aca00906124af565b9050612df0612de56301da9c00612dcd85856124af565b81612dd457fe5b670de0b6b3a7640000919004612e87565b60e08a015190612eb6565b9650612e12612e076301da9c00612dcd87856124af565b60c08a015190612eb6565b955081831415612e29575060009350612e7e915050565b6000612e4b612e406301da9c00612dcd87866124af565b60e08b015190612eb6565b90506000612e598983612ac6565b9050612e768861290d838d604001516124af90919063ffffffff16565b965050505050505b93509350935093565b600082820183811015610de957600080fd5b6000610de9612eb084670de0b6b3a76400006124af565b83613208565b6000610de9612ec584846124af565b670de0b6b3a7640000613208565b600064ffffffffff821115610a2857600080fd5b60006001600160581b03821115610a2857600080fd5b6000811215612f0b57600080fd5b6000612f19610fee846134ad565b9050612f25818361123a565b90506106da610fee8483613506565b6000806108db6026611a6a565b60008060005b8351811015613150576000848281518110612f5e57fe5b60200260200101519050600081606001516001600160a01b03166370a08231306040518263ffffffff1660e01b8152600401612f9a91906145f8565b60206040518083038186803b158015612fb257600080fd5b505afa158015612fc6573d6000803e3d6000fd5b505050506040513d601f19601f82011682018060405250810190612fea91906144b4565b90506000612ff8883061357a565b905060005b835151811015613054576130438460000151828151811061301a57fe5b602002602001015160008660200151848151811061303457fe5b60200260200101516001613624565b61304c57600196505b600101612ffd565b506000613061893061357a565b9050600061306f8284612ac6565b9050808560400151111561308257600080fd5b60608501516040516370a0823160e01b81526000916001600160a01b0316906370a08231906130b59030906004016145f8565b60206040518083038186803b1580156130cd57600080fd5b505afa1580156130e1573d6000803e3d6000fd5b505050506040513d601f19601f8201168201806040525081019061310591906144b4565b90508481111561311457600080fd5b61312386606001518683613892565b61312d8883612e87565b975061313e8b600001518585613892565b505060019094019350612f4792505050565b509250929050565b6000806108db6003611a6a565b6000806108db6011611a6a565b6000806000613180856126de565b9194509250905080841180156131965750600081115b80156131a25750600083115b156132015760006131b28661110f565b50505091505060006131dd6131d46305f5e100846124af90919063ffffffff16565b8488038761390f565b90506131e98482612e87565b93506001600160801b0384106131fe57600080fd5b50505b9250925092565b600080821161321657600080fd5b81838161321f57fe5b049392505050565b6000806108db6012611a6a565b60008082121561326d5761326860016132628560200151611d81876000015187610efe90919063ffffffff16565b90613931565b610de9565b50919050565b600081831480613290575060008312158015613290575060008212155b1561329d575060006108db565b600083131580156132ae5750816000125b156132ba5750816108db565b600082131580156132cb5750826000125b156132d95761250a826108cd565b600083131580156132eb575060008213155b1561009c5761250a8383613931565b80156108c7578351602085015160009161331991611d81908590610efe565b905061332784848484613947565b5050505050565b6000806108db6021611a6a565b8054600282015460009161337d91600160281b9091046001600160581b031690613377906001600160501b03600160501b820481169116610efe565b90610efe565b600183015460028401549192506000916133b7916001600160581b031690613377906001600160501b03600160a01b820481169116610efe565b83549091506000906133ee9060016001600160581b03600160801b909204821601166ec097ce7bc90715b34b9f1000000000610efe565b9050806133fb8484613931565b13156108c757600080fd5b6000806108db601f611a6a565b6000806000806000856020015111156134605761345d6134448660c0015187602001516124af90919063ffffffff16565b60e08701516040880151613457916124af565b90613a8d565b90505b600061346b87613aa0565b90506134778183613ad3565b9450811561348e5761348b81866001613b8c565b93505b6020860151156131fe576134a28583613bfd565b925050509250925092565b6000806134b86124d6565b6001600160a01b03851660009081526020828152604080832061ffff8816845290915281208054600160a81b9004600a90810b900b94509192508312156134fe57600080fd5b505092915050565b600081121561351457600080fd5b600061351e6124d6565b6001600160a01b03851660009081526020828152604080832061ffff88168452909152902090915061354f83612a27565b8154600a9190910b6001600160581b0316600160a81b026001600160a81b0390911617905550505050565b600060038360600151600581111561358e57fe5b14156135a557506001600160a01b038116316108db565b82516040516370a0823160e01b81526001600160a01b03909116906370a08231906135d49085906004016145f8565b60206040518083038186803b1580156135ec57600080fd5b505afa158015613600573d6000803e3d6000fd5b505050506040513d601f19601f8201168201806040525081019061250a91906144b4565b6000806000866001600160a01b031686866040518082805190602001908083835b602083106136645780518252601f199092019160209182019101613645565b6001836020036101000a03801982511681845116808217855250505050505090500191505060006040518083038185875af1925050503d80600081146136c6576040519150601f19603f3d011682016040523d82523d6000602084013e6136cb565b606091505b50915091508361376e57816136df82613c16565b906137685760405162461bcd60e51b81526004018080602001828103825283818151815260200191508051906020019080838360005b8381101561372d578181015183820152602001613715565b50505050905090810190601f16801561375a5780820380516001836020036101000a031916815260200191505b509250505060405180910390fd5b50611d30565b866001600160a01b03167f3c7e398c5e91088cae639370e35b25ea669d81fbdf0def5388e73661bc34e08e87876137a485613c16565b604051808481526020018060200180602001838103835285818151815260200191508051906020019080838360005b838110156137eb5781810151838201526020016137d3565b50505050905090810190601f1680156138185780820380516001836020036101000a031916815260200191505b50838103825284518152845160209182019186019080838360005b8381101561384b578181015183820152602001613833565b50505050905090810190601f1680156138785780820380516001836020036101000a031916815260200191505b509550505050505060405180910390a25095945050505050565b600061389c612f34565b6001600160a01b038516600090815260208290526040902054909150838111156138c557600080fd5b60006138dc6138d386610b55565b61326286610b55565b90506138eb610377838361123a565b6001600160a01b039096166000908152602093909352505060409020929092555050565b60006108f48261290d6301da9c00818861290789670de0b6b3a76400006124af565b808203828113156000831215146108db57600080fd5b6000613951611d3a565b61ffff8516600090815260209190915260409020805490915064ffffffffff16421461397c57600080fd5b8054600160f81b900460ff1661399157600080fd5b60018101546000906139ac906001600160581b03168561123a565b82549091506000906139ce90600160281b90046001600160581b03168561123a565b9050816009191280156139e15750600082125b156139eb57600091505b806009191280156139fc5750600081125b15613a05575060005b613a11612c4183610a19565b6001840180546affffffffffffffffffffff19166001600160581b0392909216919091179055613a43612c4182610a19565b83546001600160581b0391909116600160281b026fffffffffffffffffffffff000000000019909116178355613a7b87878688613d1d565b613a848361333b565b50505050505050565b6000610de9612eb084633b9aca006124af565b613aa86140e9565b6000613ab2613e31565b61ffff84166000908152602091909152604081205491506107de9082613e3e565b600080836080015111613ae557600080fd5b633b9aca00821115613af657600080fd5b82518211613b15578251604084015161250a919061290d9085906124af565b82602001518211613b5357604083015183516020850151606086015161250a9392613b4d928190039161290d918803908590036124af565b90612e87565b610de98360600151613b4d8560200151633b9aca000361290d8760600151886080015103886020015188036124af90919063ffffffff16565b600080613bab606461290d8760e00151876124af90919063ffffffff16565b90508460a00151811015613bc0575060a08401515b8460c00151811115613bd3575060c08401515b8215613be357610de48482612e87565b838111613bf257808403610de4565b600095945050505050565b6000610de9613c0c84846124af565b633b9aca00613208565b6060604482511015613c4c575060408051808201909152600d81526c14da5b195b9d0814995d995c9d609a1b60208201526107e2565b6004820180519092602401906020811015613c6657600080fd5b8101908080516040519392919084640100000000821115613c8657600080fd5b908301906020820185811115613c9b57600080fd5b8251640100000000811182820188101715613cb557600080fd5b82525081516020918201929091019080838360005b83811015613ce2578181015183820152602001613cca565b50505050905090810190601f168015613d0f5780820380516001836020036101000a031916815260200191505b506040525050509050919050565b6000613d2761332e565b61ffff8516600090815260209190915260408120546001600160a01b03169150613d4f613f5d565b61ffff8616600090815260209190915260409081902054905163ad1c095d60e01b81526001600160a01b039091169150819063ad1c095d90613d979089908790600401614637565b600060405180830381600087803b158015613db157600080fd5b505af1158015613dc5573d6000803e3d6000fd5b505060405163ad1c095d60e01b81526001600160a01b038516925063ad1c095d9150613df79089908890600401614637565b600060405180830381600087803b158015613e1157600080fd5b505af1158015613e25573d6000803e3d6000fd5b50505050505050505050565b6000806108db601b611a6a565b613e466140e9565b6064633b9aca008360ff861660208110613e5c57fe5b1a0281613e6557fe5b0481526064633b9aca008360ff861660010160208110613e8157fe5b1a0281613e8a57fe5b04816020018181525050613eaf8260028560ff160160208110613ea957fe5b1a613f6a565b60808201819052610100908360ff861660030160208110613ecc57fe5b1a0281613ed557fe5b0460408201526080810151610100908360ff861660040160208110613ef657fe5b1a0281613eff57fe5b0460608201526207a1208260ff851660050160208110613f1b57fe5b1a0260a0820152622625a08260ff851660060160208110613f3857fe5b1a0260c08201528160ff841660070160208110613f5157fe5b1a60e082015292915050565b6000806108db6022611a6a565b60008160ff16609610613f855760ff8216622625a0026108db565b5060951960ff919091160162e4e1c00263165a0bc00190565b604051806101400160405280600061ffff1681526020016000815260200160008152602001600081526020016000815260200160008152602001600081526020016000815260200160008152602001613ff561402f565b905290565b6040805160c081018252600080825260208201819052918101829052606081018290526080810182905260a081019190915290565b60405180606001604052806000815260200160008152602001600081525090565b6040805160a0810182526000808252602082018190529181018290529060608201908152602001600081525090565b6040518061012001604052806000815260200160008152602001600081526020016000815260200160008152602001600081526020016000815260200160008152602001600081525090565b60405180602001604052806001906020820280368337509192915050565b60405180610100016040528060008152602001600081526020016000815260200160008152602001600081526020016000815260200160008152602001600081525090565b80516107e2816149a9565b600082601f830112614149578081fd5b8151602061415e6141598361498b565b614967565b828152818101908583018385028701840188101561417a578586fd5b855b858110156141a157815161418f816149a9565b8452928401929084019060010161417c565b5090979650505050505050565b6000601f83818401126141bf578182fd5b825160206141cf6141598361498b565b82815281810190868301865b8581101561427457815189018a603f8201126141f5578889fd5b8581015167ffffffffffffffff81111561420b57fe5b61421c818a01601f19168801614967565b81815260408d81848601011115614231578b8cfd5b8b5b8381101561424e578481018201518382018b01528901614233565b8381111561425e578c8a85850101525b50508652505092840192908401906001016141db565b509098975050505050505050565b80516107e2816149c1565b80516001600160701b0319811681146107e257600080fd5b80516001600160f81b0319811681146107e257600080fd5b80516107e2816149cf565b805160ff811681146107e257600080fd5b6000602082840312156142ea578081fd5b8135610de9816149a9565b600080600060608486031215614309578182fd5b8335614314816149a9565b92506020840135614324816149cf565b929592945050506040919091013590565b600080600060608486031215614349578081fd5b8335614354816149a9565b92506020840135614364816149cf565b915060408401356001600160601b038116811461437f578182fd5b809150509250925092565b6000602080838503121561439c578182fd5b825167ffffffffffffffff808211156143b3578384fd5b818501915085601f8301126143c6578384fd5b81516143d46141598261498b565b81815284810190848601875b8481101561448957815187016080818d03601f190112156143ff57898afd5b60408051608081018181108a8211171561441557fe5b8252828b015189811115614427578c8dfd5b6144358f8d83870101614139565b8252508183015189811115614448578c8dfd5b6144568f8d838701016141ae565b8c830152506060830151828201526144706080840161412e565b60608201528652505092870192908701906001016143e0565b50909998505050505050505050565b6000602082840312156144a9578081fd5b8135610de9816149c1565b6000602082840312156144c5578081fd5b5051919050565b600060c082840312156144dd578081fd5b60405160c0810181811067ffffffffffffffff821117156144fa57fe5b604052825164ffffffffff81168114614511578283fd5b815261451f602084016142a5565b6020820152614530604084016142c8565b6040820152614541606084016142bd565b60608201526145526080840161428d565b608082015261456360a08401614282565b60a08201529392505050565b600060208284031215614580578081fd5b8135610de9816149cf565b60008060006060848603121561459f578081fd5b83356145aa816149cf565b925060208401356001600160581b03811681146145c5578182fd5b9150604084013561437f816149c1565b600080604083850312156145e7578182fd5b505080516020909101519092909150565b6001600160a01b0391909116815260200190565b6001600160a01b03948516815292841660208401529083166040830152909116606082015260800190565b6001600160a01b03929092168252602082015260400190565b600060e08201905060018060a01b038416825264ffffffffff835116602083015260ff60f81b602084015116604083015260ff604084015116606083015261ffff60608401511660808301526001600160701b031960808401511660a083015260a0830151151560c08301529392505050565b6001600160a01b0393909316835261ffff919091166020830152604082015260600190565b6001600160a01b0395909516855261ffff93909316602085015260408401919091526060830152608082015260a00190565b6001600160a01b0394909416845260208401929092526040830152606082015260800190565b901515815260200190565b90815260200190565b6020808252600f908201526e04f76657220537570706c792043617608c1b604082015260600190565b6020808252600b908201526a4554482042616c616e636560a81b604082015260600190565b60208082526006908201526552656465656d60d01b604082015260600190565b60208082526012908201527143616e6e6f7420686176652061737365747360701b604082015260600190565b6020808252601390820152722ab730baba3437b934bd32b21031b0b63632b960691b604082015260600190565b6020808252600f908201526e4e6f205072696d6520426f72726f7760881b604082015260600190565b6020808252601c908201527f446570726563617465643a2052656465656d20746f2063546f6b656e00000000604082015260600190565b602080825260149082015273043616e6e6f74206368616e6765206269746d61760641b604082015260600190565b60208082526010908201526f10d85b9b9bdd081a185d99481919589d60821b604082015260600190565b6020808252600a90820152692732b390372a37b5b2b760b11b604082015260600190565b602080825260139082015272125b9d985b1a590818dd5c9c995b98de481a59606a1b604082015260600190565b602080825260139082015272496e73756666696369656e7420746f6b656e7360681b604082015260600190565b9283526020830191909152604082015260600190565b60405181810167ffffffffffffffff8111828210171561498357fe5b604052919050565b600067ffffffffffffffff82111561499f57fe5b5060209081020190565b6001600160a01b03811681146149be57600080fd5b50565b80151581146149be57600080fd5b61ffff811681146149be57600080fdfea26469706673582212200096cb6d306a0087a0ac2f93ae578ee4486d0172d7e4059d7882532803dba52a64736f6c63430007060033","bytecodeSha1":"9663aabf8e5b9b40e30e6e638cee9d4209f2e959","compiler":{"evm_version":"istanbul","optimizer":{"enabled":true,"runs":200},"version":"0.7.6+commit.7338295f"},"contractName":"AccountAction","deployedBytecode":"60806040526004361061009c5760003560e01c80638246336711610064578063824633671461014e5780638da5cb5b146101635780639c97945014610178578063b8a6945514610198578063c4c96dae146101b8578063f667f897146101dd5761009c565b806302f332e8146100a157806324a3d622146100d75780632890fb65146100f957806356a273dd1461010c57806361d0d61c1461012c575b600080fd5b3480156100ad57600080fd5b506100c16100bc36600461458b565b61020a565b6040516100ce919061474b565b60405180910390f35b3480156100e357600080fd5b506100ec61038c565b6040516100ce91906145f8565b6100c16101073660046142f5565b61039b565b34801561011857600080fd5b506100c1610127366004614335565b610454565b34801561013857600080fd5b5061014c610147366004614498565b610632565b005b34801561015a57600080fd5b506100ec61066c565b34801561016f57600080fd5b506100ec61067b565b34801561018457600080fd5b5061014c61019336600461456f565b610692565b3480156101a457600080fd5b506100c16101b33660046142f5565b6106df565b3480156101c457600080fd5b506101cd610759565b6040516100ce949392919061460c565b3480156101e957600080fd5b506101fd6101f83660046142d9565b6107b3565b6040516100ce9190614740565b60006002600a54141561021c57600080fd5b6002600a5561ffff841660011461025357816102535760405162461bcd60e51b815260040161024a90614844565b60405180910390fd5b600061025e336107e7565b509050610269613f9e565b610275813388856108ac565b6001600160581b0385811614156102ae57600081602001511361029757600080fd5b6102a481602001516108cd565b60808201526102c6565b6102c0856001600160581b03166108cd565b60808201525b60006102d582338588156108e1565b90506102e183336108fc565b60208301516001600160f81b0319161561035d57604051636ccc642f60e01b815273__$841fddfe32830bb6dbc3a02d7f16c53722$__90636ccc642f9061032c9033906004016145f8565b60006040518083038186803b15801561034457600080fd5b505af4158015610358573d6000803e3d6000fd5b505050505b600081131561036b57600080fd5b61037c610377826108cd565b610a19565b6001600a55979650505050505050565b6002546001600160a01b031681565b60006002600a5414156103ad57600080fd5b6002600a55333014156103bf57600080fd5b336001600160a01b038516146103d457600080fd5b6103dd84610a2c565b60006103e885610aa7565b90506103f2613f9e565b6103fe818787856108ac565b60006104178761040d87610b55565b8491906000610b6b565b90506000811361042657600080fd5b610431828885610bbd565b61043b83886108fc565b61012082015161044b9087610bdb565b61037c81610a19565b60006002600a54141561046657600080fd5b6002600a55336001600160a01b038516148061048157503330145b61049d5760405162461bcd60e51b815260040161024a906147ee565b6001600160601b03821660006104b2866107e7565b5090506104bd613f9e565b6104c9818888856108ac565b82816040015112156104ed5760405162461bcd60e51b815260040161024a90614924565b6104f6836108cd565b60c0820152604051630e22aaa360e01b815260009073__$43fd92ea4ea9b72ca0014644dbfd757564$__90630e22aaa390610539908b908b9089906004016146c3565b60206040518083038186803b15801561055157600080fd5b505af4158015610565573d6000803e3d6000fd5b505050506040513d601f19601f8201168201806040525081019061058991906144b4565b60608301819052905061059d828985610bbd565b6105a783896108fc565b60208301516001600160f81b0319161561037c57604051636ccc642f60e01b815273__$841fddfe32830bb6dbc3a02d7f16c53722$__90636ccc642f906105f2908b906004016145f8565b60006040518083038186803b15801561060a57600080fd5b505af415801561061e573d6000803e3d6000fd5b505050506001600a55979650505050505050565b3330141561063f57600080fd5b61064833610a2c565b6000610653336107e7565b5082151560a0820152905061066881336108fc565b5050565b6001546001600160a01b031681565b60005464010000000090046001600160a01b031681565b3330141561069f57600080fd5b60005461ffff90811690821611156106b657600080fd5b3360006106c2826107e7565b5090506106d0818442610c1c565b6106da81836108fc565b505050565b60006002600a5414156106f157600080fd5b6002600a553330141561070357600080fd5b336001600160a01b0385161461071857600080fd5b61072184610a2c565b600061072c85610aa7565b9050610736613f9e565b610742818787856108ac565b60006104178761075187610b55565b849190610d14565b73__$841fddfe32830bb6dbc3a02d7f16c53722$__73__$b21a4dc043b77aa57922ad9143a3cb040e$__73__$f6541b0d362a0c7d99a2a29cd3d373d61b$__73__$43fd92ea4ea9b72ca0014644dbfd757564$__90919293565b60006107be82610a2c565b6000806107ca846107e7565b9150915080156107de576107de82856108fc565b9150505b919050565b6107ef613ffa565b6000806107fb84610aa7565b905061080681610df0565b156108a0576040516337b5fc2160e11b815273__$f6541b0d362a0c7d99a2a29cd3d373d61b$__90636f6bf842906108449087908590600401614650565b60c06040518083038186803b15801561085c57600080fd5b505af4158015610870573d6000803e3d6000fd5b505050506040513d601f19601f8201168201806040525081019061089491906144cc565b600192509250506108a7565b9150600090505b915091565b6108b582610e44565b6101208501526108c784848484610e56565b50505050565b60006108db60001983610efe565b92915050565b60006108f1858585856001610f4c565b90505b949350505050565b6000610906611102565b6001600160a01b03831660008181526020838152604080832088518154938a01518a84015160608c015160808d015160a08e015164ffffffffff1990981664ffffffffff9095169490941765ff00000000001916600160281b60f89490941c939093029290921766ff0000000000001916600160301b60ff909216919091021768ffff000000000000001916600160381b61ffff90921691909102177affffffffffffffffffffffffffffffffffff0000000000000000001916600160481b60709290921c919091021760ff60d81b1916600160d81b93151593909302929092179091555192935090917f6bd4b121bca854a191536a2ca891155c42ee2fb23f307fb34e8bc65cfcb5412e9190a2505050565b600080821215610a2857600080fd5b5090565b6001600160a01b038116610a3f57600080fd5b6001600160a01b038116610fee1415610a5757600080fd5b6001600160a01b0381166105e71415610a6f57600080fd5b6001600160a01b038116301415610a8557600080fd5b6000610a908261110f565b5050505061ffff1690508060001461066857600080fd5b610aaf613ffa565b6000610ab9611102565b6001600160a01b03841660009081526020918252604090819020815160c081018352905464ffffffffff811682526001600160f81b0319600160281b820460f81b169382019390935260ff600160301b840481169282019290925261ffff600160381b84041660608201526001600160701b0319600160481b840460701b166080820152600160d81b90920416151560a0820152915050919050565b60006001600160ff1b03821115610a2857600080fd5b600082610b7a575060006108f4565b60008313610b8757600080fd5b610b9d8486600001518588610120015186611178565b6060870151909250610bb091508261123a565b6060860152949350505050565b608083015115610bcc57600080fd5b6108c783838360006001610f4c565b600080610be88484611250565b915091508160001415610bfc575050610668565b818111156108c75760405162461bcd60e51b815260040161024a90614754565b610c25836112bc565b15610c425760405162461bcd60e51b815260040161024a9061487b565b8161ffff166000108015610c5c5750613fff61ffff831611155b610c785760405162461bcd60e51b815260040161024a906148f7565b604083015160ff1615610c9d5760405162461bcd60e51b815260040161024a906147c2565b60208301516001600160f81b03191615610cc95760405162461bcd60e51b815260040161024a906148a9565b610cde8361ffff84166000600160fe1b6112c9565b61ffff821660608401526000610cf3826114c8565b905064ffffffffff8110610d0657600080fd5b64ffffffffff169092525050565b600081610d2357506000610de9565b60008213610d3057600080fd5b6000610d43856000015161ffff166114e6565b80519091506001600160a01b0316610d5a57600080fd5b600181606001516005811115610d6c57fe5b1480610d875750600281606001516005811115610d8557fe5b145b15610dbf578451610120860151610da3918391869088906114f9565b6060860151909250610db5908361123a565b6060860152610de7565b600481606001516005811115610dd157fe5b141561009c57610de48585856000610b6b565b91505b505b9392505050565b600042610dfc836112bc565b15610e1d57610e0a816114c8565b835164ffffffffff161091506107e29050565b825164ffffffffff1615801590610e3c5750825164ffffffffff168110155b9150506107e2565b610e4c61402f565b6108db824261158a565b8161ffff166000108015610e705750613fff61ffff831611155b610e7957600080fd5b61ffff8216808552610e8c90829061164b565b15610ebb57610ea183838661012001516116d5565b61010088015260e087015260408601526020850152610ed9565b6000602085018190526040850181905260e085018190526101008501525b50506000606083018190526080830181905260a0830181905260c09092019190915250565b818102600019831415610f2e57811580610f20575082828281610f1d57fe5b05145b610f2957600080fd5b6108db565b821580610f43575081838281610f4057fe5b05145b6108db57600080fd5b600080610f6986886000015189608001518a61012001518861178f565b91506000610f888860800151896060015161123a90919063ffffffff16565b9050838015610f975750600081125b8015610fb257506020880151600090610fb0908361123a565b125b15610fd8578560a00151610fd85760405162461bcd60e51b815260040161024a9061481b565b8015610ff7576020880151610fed908261123a565b6020890152600191505b60a088015115158061100c575060c088015115155b1561107557600061103c8960c001516110368b60a001518c6040015161123a90919063ffffffff16565b9061123a565b9050600081121561105f5760405162461bcd60e51b815260040161024a906148d3565b61106a898983611838565b506040890152600191505b81156110a4576110a48789600001518a602001518b604001518c60e001518d61010001518e610120015161192f565b875160208901516110d19161ffff16901515806110c4575060408a015115155b889190600160fe1b6112c9565b6000886020015112156110f757602086018051600160f91b176001600160f81b03191690525b505095945050505050565b6000806108db6001611a6a565b600080600080600080611120611a83565b6001600160a01b039097166000908152602097909752505060409094205461ffff81169563ffffffff62010000830481169650600160301b830416945060ff600160501b8304169350600160581b90910460d01b9150565b600080600061118686610a19565b90508061119a576000809250925050611230565b60006111a98861ffff16611a90565b90506003816060015160058111156111bd57fe5b141561120457348210156111dd576111d88983340387611aa3565b6111fc565b3482146111fc5760405162461bcd60e51b815260040161024a9061477d565b86935061121e565b61121b61121682600001518b85611b6b565b610b55565b93505b61122b898986848a611cf3565b925050505b9550959350505050565b818101828112156000831215146108db57600080fd5b600080600061125d611d3a565b61ffff8516600090815260209190915260409020600181015490915061128f90600160581b900463ffffffff16611d47565b8154909350600160281b90046001600160581b03166112b16103778783611d55565b925050509250929050565b6060015161ffff16151590565b8260001080156112db5750613fff8311155b6112e457600080fd5b8180156112f8575082846060015161ffff16145b15611302576108c7565b6080840151600090815b6001600160701b031982161561147d5760f082901c613fff1686811480156113315750855b1561136957506080870180516001600160f01b0319861660109093029290921c919091176001600160701b0319169052506108c79050565b8681148015611376575085155b156113cb576001600160f01b03198516199290921691600360fe1b83166113a9576010836001600160701b031916901b92505b506001600160701b031991821660109091021c919091171660808501526108c7565b86811180156113d75750855b15611431576080888101516001600160f01b031960f08a901b88178116601086021c9690961795911b161561140b57600080fd5b506001600160701b03199182166001919091016010021c919091171660808501526108c7565b868111801561143e575085155b1561144c57505050506108c7565b506001600160f01b0319821660108281029190911c93909317929190911b6001600160801b0319169060010161130c565b8461148a575050506108c7565b6009811061149757600080fd5b6001600160f01b031960f087901b85171660109091021c919091176001600160701b03191660808601525050505050565b6000620151808210156114da57600080fd5b50620151808106900390565b6114ee614050565b6108db826000611d87565b600061150a86600001518486611b6b565b9350600061151b8661ffff16611a90565b9050600060028860600151600581111561153157fe5b141561154b576115446112168988611e21565b9050611571565b60018860600151600581111561155d57fe5b141561009c57611544611216898489611ed2565b61157e8588838588611cf3565b98975050505050505050565b61159261402f565b600061159d84612092565b905082816000015110156115dc576000806115b78661215a565b90506115c5868483886121d7565b90935091506115d586838561227b565b50506115e9565b805183146115e957600080fd5b60405180606001604052806116126112168460a001518560c001516124af90919063ffffffff16565b81526020016116356112168460a001518560e001516124af90919063ffffffff16565b8152602001826060015181525091505092915050565b6000811580159061165e5750613fff8211155b61166757600080fd5b6080830151606084015161ffff168314156116865760019150506108db565b6001600160701b03198116156116cb5760f081901c613fff16838114156116b85750600160fe1b9081161490506108db565b5060101b6001600160801b031916611686565b5060009392505050565b60008060008060006116e56124d6565b6001600160a01b03891660009081526020828152604080832061ffff8c168452909152902080546001600160501b0381169650600160501b900463ffffffff169450909150831561175257805461174b90600160701b900466ffffffffffffff16611d47565b9250611767565b8054600160701b900466ffffffffffffff1692505b8054611782908890600160a81b9004600a90810b900b6124e3565b9550505093509350935093565b60008361179e5750600061182f565b600084126117ab57600080fd5b60006117ba8661ffff16611a90565b90506117cf816117ca8688611d55565b612511565b915060006117dc836108cd565b90506117e9878383612549565b6003826060015160058111156117fb57fe5b14156118115761180c888286611aa3565b61181e565b815161181e908983612641565b61182b8888858589611cf3565b5050505b95945050505050565b82516000904290829061184e9061ffff166126b8565b9050600061185b826126de565b505090506000611870838960c001518661273a565b905061187e8884838961281d565b9450600061188b8461294a565b90506001600160a01b0381161561191357806001600160a01b0316633f3ef50d898b600001516118be8d60400151610a19565b8b886040518663ffffffff1660e01b81526004016118e09594939291906146e8565b600060405180830381600087803b1580156118fa57600080fd5b505af115801561190e573d6000803e3d6000fd5b505050505b85156119235761192388876129bc565b50505050509392505050565b60006119396124d6565b6001600160a01b03891660009081526020828152604080832061ffff8c1684529091529020909150846119a15766ffffffffffffff84111561197a57600080fd5b805466ffffffffffffff60701b1916600160701b66ffffffffffffff8616021781556119bb565b8054600160501b900463ffffffff1685146119bb57600080fd5b6119c4856129db565b815463ffffffff91909116600160501b0263ffffffff60501b199091161781556119f56119f087610a19565b6129ee565b815469ffffffffffffffffffff19166001600160501b039190911617808255611a3b90611a369085908c908c90600160a81b9004600a90810b900b8c612a04565b612a27565b8154600a9190910b6001600160581b0316600160a81b026001600160a81b039091161790555050505050505050565b6000620f4240826026811115611a7c57fe5b0192915050565b6000806108db6002611a6a565b611a98614050565b6108db826001611d87565b8015611b35577382af49447d8a07e3bd95bd0d56f35241523fbab16001600160a01b031663d0e30db0836040518263ffffffff1660e01b81526004016000604051808303818588803b158015611af857600080fd5b505af1158015611b0c573d6000803e3d6000fd5b5050505050611b307382af49447d8a07e3bd95bd0d56f35241523fbab18484612641565b6106da565b6040516001600160a01b0384169083156108fc029084906000818181858888f193505050501580156108c7573d6000803e3d6000fd5b600080846001600160a01b03166370a08231306040518263ffffffff1660e01b815260040180826001600160a01b0316815260200191505060206040518083038186803b158015611bbb57600080fd5b505afa158015611bcf573d6000803e3d6000fd5b505050506040513d6020811015611be557600080fd5b5051604080516323b872dd60e01b81526001600160a01b038781166004830152306024830152604482018790529151929350908716916323b872dd9160648082019260009290919082900301818387803b158015611c4257600080fd5b505af1158015611c56573d6000803e3d6000fd5b50505050611c62612a59565b6000856001600160a01b03166370a08231306040518263ffffffff1660e01b815260040180826001600160a01b0316815260200191505060206040518083038186803b158015611cb157600080fd5b505afa158015611cc5573d6000803e3d6000fd5b505050506040513d6020811015611cdb57600080fd5b50519050611ce98183612ac6565b9695505050505050565b600080611d008486612adb565b9050611d0c8382612b0b565b9150611d19878784612b2d565b611d24868383612bad565b8351611d309086612cb9565b5095945050505050565b6000806108db601d611a6a565b600881901c60ff9091161b90565b6000610de96ec097ce7bc90715b34b9f1000000000611d81856000015185610efe90919063ffffffff16565b90612d0e565b611d8f614050565b6000611d99612d3f565b6000858152602082815260408083208715158452825291829020825160a08101845281546001600160a01b038116825260ff600160a01b82048116151594830194909452600160b01b81048416600a0a9482019490945293945092916060830191600160a81b909104166005811115611e0e57fe5b8152600060209091015295945050505050565b815160405163db006a7560e01b8152600091479183916001600160a01b03169063db006a7590611e5590879060040161474b565b602060405180830381600087803b158015611e6f57600080fd5b505af1158015611e83573d6000803e3d6000fd5b505050506040513d601f19601f82011682018060405250810190611ea791906144b4565b90508015611ec75760405162461bcd60e51b815260040161024a906147a2565b47611ce98184612ac6565b60008083600001516001600160a01b03166370a08231306040518263ffffffff1660e01b8152600401611f0591906145f8565b60206040518083038186803b158015611f1d57600080fd5b505afa158015611f31573d6000803e3d6000fd5b505050506040513d601f19601f82011682018060405250810190611f5591906144b4565b9050600085600001516001600160a01b031663db006a75856040518263ffffffff1660e01b8152600401611f89919061474b565b602060405180830381600087803b158015611fa357600080fd5b505af1158015611fb7573d6000803e3d6000fd5b505050506040513d601f19601f82011682018060405250810190611fdb91906144b4565b90508015611ffb5760405162461bcd60e51b815260040161024a906147a2565b84516040516370a0823160e01b81526000916001600160a01b0316906370a082319061202b9030906004016145f8565b60206040518083038186803b15801561204357600080fd5b505afa158015612057573d6000803e3d6000fd5b505050506040513d601f19601f8201168201806040525081019061207b91906144b4565b90506120878184612ac6565b979650505050505050565b61209a61407f565b60006120a4611d3a565b61ffff93841660009081526020918252604090819020805464ffffffffff81168652600160281b81046001600160581b03908116948701949094526001820154841692860192909252600160d81b820463ffffffff166060860152600160801b9091049091166080840152600201546001600160501b0380821660a0850152600160501b8204811660c0850152600160a01b82041660e0840152600160f01b900460ff1661012c02909216610100820152919050565b60008061216683612d4c565b6001600160a01b031663ef81f2166040518163ffffffff1660e01b81526004016040805180830381600087803b15801561219f57600080fd5b505af11580156121b3573d6000803e3d6000fd5b505050506040513d601f19601f820116820180604052508101906108f491906145d5565b6121df61407f565b60008060006121ef888689612d7c565b60c08b019290925260e08a0192909252602089015191935091506122139083612e87565b602088015260808701516000901561224157608088015161223e906122388982612ac6565b90612e99565b90505b612261612256670de0b6b3a764000083612e87565b60a08a015190612eb6565b60a089015250506080860194909452505082529092909150565b6000612285611d3a565b60008561ffff16815260200190815260200160002090506122a98260000151612ed3565b815464ffffffffff191664ffffffffff9190911617815560a08201516122ce906129ee565b60028201805469ffffffffffffffffffff19166001600160501b039290921691909117905560c0820151612301906129ee565b81600201600a6101000a8154816001600160501b0302191690836001600160501b031602179055506123368260e001516129ee565b8160020160146101000a8154816001600160501b0302191690836001600160501b0316021790555061236b8260200151612ee7565b81546001600160581b0391909116600160281b026fffffffffffffffffffffff00000000001990911617815560408201516123a590612ee7565b6001820180546affffffffffffffffffffff19166001600160581b039290921691909117905560808201516123d990612ee7565b81546001600160581b0391909116600160801b026affffffffffffffffffffff60801b199091161781556060820151612411906129db565b815463ffffffff91909116600160d81b0263ffffffff60d81b19909116178155821561245d57600061244284610b55565b905061244e8582612efd565b61245b610fee8683612b2d565b505b8361ffff167fef25641e225e493886510ca1ad6584fa7b442b9fea820a29d1de3ce27d270fd28360a001518460c001518560e001516040516124a193929190614951565b60405180910390a250505050565b6000826124be575060006108db565b828202828482816124cb57fe5b0414610de957600080fd5b6000806108db6006611a6a565b60008082126124f35750806108db565b8251602084015161250a9190611d81908590610efe565b90506108db565b60006305f5e1008360400151141561252a5750806108db565b610de96305f5e100611d81856040015185610efe90919063ffffffff16565b6000612553612f34565b83516001600160a01b031660009081526020829052604090205490915080831161257e5750506106da565b600061258986612d4c565b90506000816001600160a01b031663b5e4da238487036040518263ffffffff1660e01b81526004016125bb919061474b565b60006040518083038186803b1580156125d357600080fd5b505afa1580156125e7573d6000803e3d6000fd5b505050506040513d6000823e601f3d908101601f1916820160405261260f919081019061438a565b9050600061261d8783612f41565b915061262b90508482612e87565b86111561263757600080fd5b5050505050505050565b826001600160a01b031663a9059cbb83836040518363ffffffff1660e01b815260040180836001600160a01b0316815260200182815260200192505050600060405180830381600087803b15801561269857600080fd5b505af11580156126ac573d6000803e3d6000fd5b505050506106da612a59565b6000806126c3613158565b6000938452602052505060409020546001600160a01b031690565b6000806000806126ec613165565b6001600160a01b0395909516600090815260209590955250506040909220546001600160601b03811693600160601b82046001600160801b03169350600160e01b90910463ffffffff169150565b60008060006127498685613172565b50915091506000612758613165565b6001600160a01b038816600090815260208290526040812091925061277d858961123a565b90508060001315801561279657506001600160601b0381105b61279f57600080fd5b81546bffffffffffffffffffffffff19166001600160601b038216176fffffffffffffffffffffffffffffffff60601b1916600160601b6001600160801b0386160217825563ffffffff87106127f457600080fd5b50805463ffffffff8716600160e01b026001600160e01b03909116179055509150509392505050565b60e0840151600090156128de5773__$b21a4dc043b77aa57922ad9143a3cb040e$__63e0c01a72856128528860400151610a19565b8860e001518961010001516040518563ffffffff1660e01b815260040161287c949392919061471a565b60206040518083038186803b15801561289457600080fd5b505af41580156128a8573d6000803e3d6000fd5b505050506040513d601f19601f820116820180604052508101906128cc91906144b4565b600060e0870181905261010087015290505b612920612919866101000151612913670de0b6b3a764000061290d886129078c60400151610a19565b906124af565b90613208565b90612ac6565b8290612e87565b9050612938670de0b6b3a764000061290d84866124af565b85610100018181525050949350505050565b600080612955611a83565b6001600160a01b0384166000908152602082905260409020805491925090600160f81b900460ff16156129b15761298a613227565b6001600160a01b0380861660009081526020929092526040909120541692506107e2915050565b6000925050506107e2565b61066873019be259bc299f3f653688c7655c87f998bc7bc18383612641565b600063ffffffff821115610a2857600080fd5b60006001600160501b03821115610a2857600080fd5b6000612a108683613234565b905061182f868686612a228786613273565b6132fa565b60006a7fffffffffffffffffffff198212801590612a5057506a7fffffffffffffffffffff8213155b610a2857600080fd5b6000612a636140cb565b3d8015612a775760208114612a8057600080fd5b60019250612a8b565b60206000833e815192505b5081610668576040805162461bcd60e51b8152602060048201526005602482015264045524332360dc1b604482015290519081900360640190fd5b600082821115612ad557600080fd5b50900390565b60006305f5e10083604001511415612af45750806108db565b6040830151610de990611d81846305f5e100610efe565b8151600090610de990611d81846ec097ce7bc90715b34b9f1000000000610efe565b6000612b3761332e565b61ffff8416600090815260209190915260409081902054905163ad1c095d60e01b81526001600160a01b039091169150819063ad1c095d90612b7f9087908690600401614637565b600060405180830381600087803b158015612b9957600080fd5b505af1158015612637573d6000803e3d6000fd5b6000612bb7611d3a565b61ffff8516600090815260209190915260409020805490915064ffffffffff164214612be257600080fd5b8054600090612c0190600160281b90046001600160581b03168561123a565b8254909150600090612c2390600160801b90046001600160581b03168561123a565b905080624c4b401315612c3557600080fd5b612c46612c4182610a19565b612ee7565b83546001600160581b0391909116600160801b026affffffffffffffffffffff60801b19909116178355612c7c612c4183610a19565b83546001600160581b0391909116600160281b026fffffffffffffffffffffff000000000019909116178355612cb18361333b565b505050505050565b6000612cc3612f34565b6001600160a01b038416600090815260208290526040902054909150612cec610377828561123a565b6001600160a01b03909416600090815260209290925250604090209190915550565b600081600019148015612d245750600160ff1b83145b15612d2e57600080fd5b818381612d3757fe5b059392505050565b6000806108db6007611a6a565b600080612d57613406565b61ffff939093166000908152602093909352505060409020546001600160a01b031690565b600080600080600080612d8f8988613413565b89519095509193509150600090612db690612dab908b90612ac6565b633b9aca00906124af565b9050612df0612de56301da9c00612dcd85856124af565b81612dd457fe5b670de0b6b3a7640000919004612e87565b60e08a015190612eb6565b9650612e12612e076301da9c00612dcd87856124af565b60c08a015190612eb6565b955081831415612e29575060009350612e7e915050565b6000612e4b612e406301da9c00612dcd87866124af565b60e08b015190612eb6565b90506000612e598983612ac6565b9050612e768861290d838d604001516124af90919063ffffffff16565b965050505050505b93509350935093565b600082820183811015610de957600080fd5b6000610de9612eb084670de0b6b3a76400006124af565b83613208565b6000610de9612ec584846124af565b670de0b6b3a7640000613208565b600064ffffffffff821115610a2857600080fd5b60006001600160581b03821115610a2857600080fd5b6000811215612f0b57600080fd5b6000612f19610fee846134ad565b9050612f25818361123a565b90506106da610fee8483613506565b6000806108db6026611a6a565b60008060005b8351811015613150576000848281518110612f5e57fe5b60200260200101519050600081606001516001600160a01b03166370a08231306040518263ffffffff1660e01b8152600401612f9a91906145f8565b60206040518083038186803b158015612fb257600080fd5b505afa158015612fc6573d6000803e3d6000fd5b505050506040513d601f19601f82011682018060405250810190612fea91906144b4565b90506000612ff8883061357a565b905060005b835151811015613054576130438460000151828151811061301a57fe5b602002602001015160008660200151848151811061303457fe5b60200260200101516001613624565b61304c57600196505b600101612ffd565b506000613061893061357a565b9050600061306f8284612ac6565b9050808560400151111561308257600080fd5b60608501516040516370a0823160e01b81526000916001600160a01b0316906370a08231906130b59030906004016145f8565b60206040518083038186803b1580156130cd57600080fd5b505afa1580156130e1573d6000803e3d6000fd5b505050506040513d601f19601f8201168201806040525081019061310591906144b4565b90508481111561311457600080fd5b61312386606001518683613892565b61312d8883612e87565b975061313e8b600001518585613892565b505060019094019350612f4792505050565b509250929050565b6000806108db6003611a6a565b6000806108db6011611a6a565b6000806000613180856126de565b9194509250905080841180156131965750600081115b80156131a25750600083115b156132015760006131b28661110f565b50505091505060006131dd6131d46305f5e100846124af90919063ffffffff16565b8488038761390f565b90506131e98482612e87565b93506001600160801b0384106131fe57600080fd5b50505b9250925092565b600080821161321657600080fd5b81838161321f57fe5b049392505050565b6000806108db6012611a6a565b60008082121561326d5761326860016132628560200151611d81876000015187610efe90919063ffffffff16565b90613931565b610de9565b50919050565b600081831480613290575060008312158015613290575060008212155b1561329d575060006108db565b600083131580156132ae5750816000125b156132ba5750816108db565b600082131580156132cb5750826000125b156132d95761250a826108cd565b600083131580156132eb575060008213155b1561009c5761250a8383613931565b80156108c7578351602085015160009161331991611d81908590610efe565b905061332784848484613947565b5050505050565b6000806108db6021611a6a565b8054600282015460009161337d91600160281b9091046001600160581b031690613377906001600160501b03600160501b820481169116610efe565b90610efe565b600183015460028401549192506000916133b7916001600160581b031690613377906001600160501b03600160a01b820481169116610efe565b83549091506000906133ee9060016001600160581b03600160801b909204821601166ec097ce7bc90715b34b9f1000000000610efe565b9050806133fb8484613931565b13156108c757600080fd5b6000806108db601f611a6a565b6000806000806000856020015111156134605761345d6134448660c0015187602001516124af90919063ffffffff16565b60e08701516040880151613457916124af565b90613a8d565b90505b600061346b87613aa0565b90506134778183613ad3565b9450811561348e5761348b81866001613b8c565b93505b6020860151156131fe576134a28583613bfd565b925050509250925092565b6000806134b86124d6565b6001600160a01b03851660009081526020828152604080832061ffff8816845290915281208054600160a81b9004600a90810b900b94509192508312156134fe57600080fd5b505092915050565b600081121561351457600080fd5b600061351e6124d6565b6001600160a01b03851660009081526020828152604080832061ffff88168452909152902090915061354f83612a27565b8154600a9190910b6001600160581b0316600160a81b026001600160a81b0390911617905550505050565b600060038360600151600581111561358e57fe5b14156135a557506001600160a01b038116316108db565b82516040516370a0823160e01b81526001600160a01b03909116906370a08231906135d49085906004016145f8565b60206040518083038186803b1580156135ec57600080fd5b505afa158015613600573d6000803e3d6000fd5b505050506040513d601f19601f8201168201806040525081019061250a91906144b4565b6000806000866001600160a01b031686866040518082805190602001908083835b602083106136645780518252601f199092019160209182019101613645565b6001836020036101000a03801982511681845116808217855250505050505090500191505060006040518083038185875af1925050503d80600081146136c6576040519150601f19603f3d011682016040523d82523d6000602084013e6136cb565b606091505b50915091508361376e57816136df82613c16565b906137685760405162461bcd60e51b81526004018080602001828103825283818151815260200191508051906020019080838360005b8381101561372d578181015183820152602001613715565b50505050905090810190601f16801561375a5780820380516001836020036101000a031916815260200191505b509250505060405180910390fd5b50611d30565b866001600160a01b03167f3c7e398c5e91088cae639370e35b25ea669d81fbdf0def5388e73661bc34e08e87876137a485613c16565b604051808481526020018060200180602001838103835285818151815260200191508051906020019080838360005b838110156137eb5781810151838201526020016137d3565b50505050905090810190601f1680156138185780820380516001836020036101000a031916815260200191505b50838103825284518152845160209182019186019080838360005b8381101561384b578181015183820152602001613833565b50505050905090810190601f1680156138785780820380516001836020036101000a031916815260200191505b509550505050505060405180910390a25095945050505050565b600061389c612f34565b6001600160a01b038516600090815260208290526040902054909150838111156138c557600080fd5b60006138dc6138d386610b55565b61326286610b55565b90506138eb610377838361123a565b6001600160a01b039096166000908152602093909352505060409020929092555050565b60006108f48261290d6301da9c00818861290789670de0b6b3a76400006124af565b808203828113156000831215146108db57600080fd5b6000613951611d3a565b61ffff8516600090815260209190915260409020805490915064ffffffffff16421461397c57600080fd5b8054600160f81b900460ff1661399157600080fd5b60018101546000906139ac906001600160581b03168561123a565b82549091506000906139ce90600160281b90046001600160581b03168561123a565b9050816009191280156139e15750600082125b156139eb57600091505b806009191280156139fc5750600081125b15613a05575060005b613a11612c4183610a19565b6001840180546affffffffffffffffffffff19166001600160581b0392909216919091179055613a43612c4182610a19565b83546001600160581b0391909116600160281b026fffffffffffffffffffffff000000000019909116178355613a7b87878688613d1d565b613a848361333b565b50505050505050565b6000610de9612eb084633b9aca006124af565b613aa86140e9565b6000613ab2613e31565b61ffff84166000908152602091909152604081205491506107de9082613e3e565b600080836080015111613ae557600080fd5b633b9aca00821115613af657600080fd5b82518211613b15578251604084015161250a919061290d9085906124af565b82602001518211613b5357604083015183516020850151606086015161250a9392613b4d928190039161290d918803908590036124af565b90612e87565b610de98360600151613b4d8560200151633b9aca000361290d8760600151886080015103886020015188036124af90919063ffffffff16565b600080613bab606461290d8760e00151876124af90919063ffffffff16565b90508460a00151811015613bc0575060a08401515b8460c00151811115613bd3575060c08401515b8215613be357610de48482612e87565b838111613bf257808403610de4565b600095945050505050565b6000610de9613c0c84846124af565b633b9aca00613208565b6060604482511015613c4c575060408051808201909152600d81526c14da5b195b9d0814995d995c9d609a1b60208201526107e2565b6004820180519092602401906020811015613c6657600080fd5b8101908080516040519392919084640100000000821115613c8657600080fd5b908301906020820185811115613c9b57600080fd5b8251640100000000811182820188101715613cb557600080fd5b82525081516020918201929091019080838360005b83811015613ce2578181015183820152602001613cca565b50505050905090810190601f168015613d0f5780820380516001836020036101000a031916815260200191505b506040525050509050919050565b6000613d2761332e565b61ffff8516600090815260209190915260408120546001600160a01b03169150613d4f613f5d565b61ffff8616600090815260209190915260409081902054905163ad1c095d60e01b81526001600160a01b039091169150819063ad1c095d90613d979089908790600401614637565b600060405180830381600087803b158015613db157600080fd5b505af1158015613dc5573d6000803e3d6000fd5b505060405163ad1c095d60e01b81526001600160a01b038516925063ad1c095d9150613df79089908890600401614637565b600060405180830381600087803b158015613e1157600080fd5b505af1158015613e25573d6000803e3d6000fd5b50505050505050505050565b6000806108db601b611a6a565b613e466140e9565b6064633b9aca008360ff861660208110613e5c57fe5b1a0281613e6557fe5b0481526064633b9aca008360ff861660010160208110613e8157fe5b1a0281613e8a57fe5b04816020018181525050613eaf8260028560ff160160208110613ea957fe5b1a613f6a565b60808201819052610100908360ff861660030160208110613ecc57fe5b1a0281613ed557fe5b0460408201526080810151610100908360ff861660040160208110613ef657fe5b1a0281613eff57fe5b0460608201526207a1208260ff851660050160208110613f1b57fe5b1a0260a0820152622625a08260ff851660060160208110613f3857fe5b1a0260c08201528160ff841660070160208110613f5157fe5b1a60e082015292915050565b6000806108db6022611a6a565b60008160ff16609610613f855760ff8216622625a0026108db565b5060951960ff919091160162e4e1c00263165a0bc00190565b604051806101400160405280600061ffff1681526020016000815260200160008152602001600081526020016000815260200160008152602001600081526020016000815260200160008152602001613ff561402f565b905290565b6040805160c081018252600080825260208201819052918101829052606081018290526080810182905260a081019190915290565b60405180606001604052806000815260200160008152602001600081525090565b6040805160a0810182526000808252602082018190529181018290529060608201908152602001600081525090565b6040518061012001604052806000815260200160008152602001600081526020016000815260200160008152602001600081526020016000815260200160008152602001600081525090565b60405180602001604052806001906020820280368337509192915050565b60405180610100016040528060008152602001600081526020016000815260200160008152602001600081526020016000815260200160008152602001600081525090565b80516107e2816149a9565b600082601f830112614149578081fd5b8151602061415e6141598361498b565b614967565b828152818101908583018385028701840188101561417a578586fd5b855b858110156141a157815161418f816149a9565b8452928401929084019060010161417c565b5090979650505050505050565b6000601f83818401126141bf578182fd5b825160206141cf6141598361498b565b82815281810190868301865b8581101561427457815189018a603f8201126141f5578889fd5b8581015167ffffffffffffffff81111561420b57fe5b61421c818a01601f19168801614967565b81815260408d81848601011115614231578b8cfd5b8b5b8381101561424e578481018201518382018b01528901614233565b8381111561425e578c8a85850101525b50508652505092840192908401906001016141db565b509098975050505050505050565b80516107e2816149c1565b80516001600160701b0319811681146107e257600080fd5b80516001600160f81b0319811681146107e257600080fd5b80516107e2816149cf565b805160ff811681146107e257600080fd5b6000602082840312156142ea578081fd5b8135610de9816149a9565b600080600060608486031215614309578182fd5b8335614314816149a9565b92506020840135614324816149cf565b929592945050506040919091013590565b600080600060608486031215614349578081fd5b8335614354816149a9565b92506020840135614364816149cf565b915060408401356001600160601b038116811461437f578182fd5b809150509250925092565b6000602080838503121561439c578182fd5b825167ffffffffffffffff808211156143b3578384fd5b818501915085601f8301126143c6578384fd5b81516143d46141598261498b565b81815284810190848601875b8481101561448957815187016080818d03601f190112156143ff57898afd5b60408051608081018181108a8211171561441557fe5b8252828b015189811115614427578c8dfd5b6144358f8d83870101614139565b8252508183015189811115614448578c8dfd5b6144568f8d838701016141ae565b8c830152506060830151828201526144706080840161412e565b60608201528652505092870192908701906001016143e0565b50909998505050505050505050565b6000602082840312156144a9578081fd5b8135610de9816149c1565b6000602082840312156144c5578081fd5b5051919050565b600060c082840312156144dd578081fd5b60405160c0810181811067ffffffffffffffff821117156144fa57fe5b604052825164ffffffffff81168114614511578283fd5b815261451f602084016142a5565b6020820152614530604084016142c8565b6040820152614541606084016142bd565b60608201526145526080840161428d565b608082015261456360a08401614282565b60a08201529392505050565b600060208284031215614580578081fd5b8135610de9816149cf565b60008060006060848603121561459f578081fd5b83356145aa816149cf565b925060208401356001600160581b03811681146145c5578182fd5b9150604084013561437f816149c1565b600080604083850312156145e7578182fd5b505080516020909101519092909150565b6001600160a01b0391909116815260200190565b6001600160a01b03948516815292841660208401529083166040830152909116606082015260800190565b6001600160a01b03929092168252602082015260400190565b600060e08201905060018060a01b038416825264ffffffffff835116602083015260ff60f81b602084015116604083015260ff604084015116606083015261ffff60608401511660808301526001600160701b031960808401511660a083015260a0830151151560c08301529392505050565b6001600160a01b0393909316835261ffff919091166020830152604082015260600190565b6001600160a01b0395909516855261ffff93909316602085015260408401919091526060830152608082015260a00190565b6001600160a01b0394909416845260208401929092526040830152606082015260800190565b901515815260200190565b90815260200190565b6020808252600f908201526e04f76657220537570706c792043617608c1b604082015260600190565b6020808252600b908201526a4554482042616c616e636560a81b604082015260600190565b60208082526006908201526552656465656d60d01b604082015260600190565b60208082526012908201527143616e6e6f7420686176652061737365747360701b604082015260600190565b6020808252601390820152722ab730baba3437b934bd32b21031b0b63632b960691b604082015260600190565b6020808252600f908201526e4e6f205072696d6520426f72726f7760881b604082015260600190565b6020808252601c908201527f446570726563617465643a2052656465656d20746f2063546f6b656e00000000604082015260600190565b602080825260149082015273043616e6e6f74206368616e6765206269746d61760641b604082015260600190565b60208082526010908201526f10d85b9b9bdd081a185d99481919589d60821b604082015260600190565b6020808252600a90820152692732b390372a37b5b2b760b11b604082015260600190565b602080825260139082015272125b9d985b1a590818dd5c9c995b98de481a59606a1b604082015260600190565b602080825260139082015272496e73756666696369656e7420746f6b656e7360681b604082015260600190565b9283526020830191909152604082015260600190565b60405181810167ffffffffffffffff8111828210171561498357fe5b604052919050565b600067ffffffffffffffff82111561499f57fe5b5060209081020190565b6001600160a01b03811681146149be57600080fd5b50565b80151581146149be57600080fd5b61ffff811681146149be57600080fdfea26469706673582212200096cb6d306a0087a0ac2f93ae578ee4486d0172d7e4059d7882532803dba52a64736f6c63430007060033","language":"Solidity","natspec":{"kind":"dev","methods":{"depositAssetToken(address,uint16,uint256)":{"details":"emit:CashBalanceChange emit:AccountContextUpdateauth:none","notice":"DEPRECATED: deposits deprecated cTokens tokens as collateral into an account that were listed prior to the migration to prime cash. Future listed tokens will not have asset tokens and will revert in this method.","params":{"account":"the account to deposit into","amountExternalPrecision":"the amount of asset tokens in its native decimal precision (i.e. 8 decimals for cTokens).","currencyId":"currency id of the asset token"},"returns":{"_0":"asset tokens minted and deposited to the account in internal decimals (8)"}},"depositUnderlyingToken(address,uint16,uint256)":{"details":"emit:CashBalanceChange emit:AccountContextUpdateauth:none","notice":"Deposits and wraps the underlying token for a particular cToken. Does not settle assets or check free collateral, idea is to be as gas efficient as possible during potential liquidation events.","params":{"account":"the account to deposit into","amountExternalPrecision":"the amount of underlying tokens in its native decimal precision (i.e. 18 decimals for DAI or 6 decimals for USDC). This will be converted to 8 decimals during transfer.","currencyId":"currency id of the asset token that wraps this underlying"},"returns":{"_0":"asset tokens minted and deposited to the account in internal decimals (8)"}},"enableBitmapCurrency(uint16)":{"details":"emit:AccountSettled emit:AccountContextUpdateauth:msg.sender","notice":"Enables a bitmap currency for msg.sender, account cannot have any assets when this call occurs. Will revert if the account already has a bitmap currency set.","params":{"currencyId":"the currency to enable the bitmap for."}},"enablePrimeBorrow(bool)":{"details":"emit:AccountSettled emit:AccountContextUpdateauth:msg.sender","notice":"A per account setting that allows it to borrow prime cash (i.e. incur negative cash) as a result of account initiated actions. Accounts can still incur negative cash as a result of fCash settlement regardless of this setting.","params":{"allowPrimeBorrow":"true if the account can borrow prime cash"}},"getLibInfo()":{"notice":"Get a list of deployed library addresses (sorted by library name)"},"nTokenRedeem(address,uint16,uint96)":{"details":"auth:msg.sender auth:ERC1155","notice":"Allows accounts to redeem nTokens to prime cash while the supply cap is breached. This method does not withdraw any tokens from the contract. Will revert if fCash cannot be sold back into the market.","params":{"currencyId":"the currency associated the nToken","redeemer":"the address that holds the nTokens to redeem","tokensToRedeem_":"the amount of nTokens to convert to cash"},"returns":{"_0":"total amount of prime cash redeemed"}},"settleAccount(address)":{"details":"emit:AccountSettled emit:AccountContextUpdateauth:none","notice":"Method for manually settling an account, generally should not be called because other methods will check if an account needs to be settled automatically. If a bitmap account has debt and is settled via this method, the hasDebt flag will not be cleared until a free collateral check is performed on the account.","params":{"account":"the account to settle"},"returns":{"_0":"returns true if account has been settled"}},"withdraw(uint16,uint88,bool)":{"details":"emit:CashBalanceChange emit:AccountContextUpdateauth:msg.sender","notice":"Withdraws balances from Notional, may also redeem to underlying tokens on user request. Will settle and do free collateral checks if required. Can only be called by msg.sender, operators who want to withdraw for an account must do an authenticated call via ERC1155Action `safeTransferFrom` or `safeBatchTransferFrom`","params":{"amountInternalPrecision":"the amount of cash balance in internal 8 decimal precision to withdraw, this is be denominated in prime cash. If set to uint88 max, will withdraw an entire cash balance.","currencyId":"currency id of the asset token","redeemToUnderlying":"DEPRECATED except for ETH balances. Prior to the prime cash upgrade, accounts could withdraw cTokens directly. However, post prime cash migration this is no longer the case. If withdrawing ETH, setting redeemToUnderlying to false will redeem ETH as WETH."},"returns":{"_0":"the amount of tokens received by the account denominated in the destination token precision (if"}}},"version":1},"opcodes":"PUSH1 0x80 PUSH1 0x40 MSTORE PUSH1 0x4 CALLDATASIZE LT PUSH2 0x9C JUMPI PUSH1 0x0 CALLDATALOAD PUSH1 0xE0 SHR DUP1 PUSH4 0x82463367 GT PUSH2 0x64 JUMPI DUP1 PUSH4 0x82463367 EQ PUSH2 0x14E JUMPI DUP1 PUSH4 0x8DA5CB5B EQ PUSH2 0x163 JUMPI DUP1 PUSH4 0x9C979450 EQ PUSH2 0x178 JUMPI DUP1 PUSH4 0xB8A69455 EQ PUSH2 0x198 JUMPI DUP1 PUSH4 0xC4C96DAE EQ PUSH2 0x1B8 JUMPI DUP1 PUSH4 0xF667F897 EQ PUSH2 0x1DD JUMPI PUSH2 0x9C JUMP JUMPDEST DUP1 PUSH4 0x2F332E8 EQ PUSH2 0xA1 JUMPI DUP1 PUSH4 0x24A3D622 EQ PUSH2 0xD7 JUMPI DUP1 PUSH4 0x2890FB65 EQ PUSH2 0xF9 JUMPI DUP1 PUSH4 0x56A273DD EQ PUSH2 0x10C JUMPI DUP1 PUSH4 0x61D0D61C EQ PUSH2 0x12C JUMPI JUMPDEST PUSH1 0x0 DUP1 REVERT JUMPDEST CALLVALUE DUP1 ISZERO PUSH2 0xAD JUMPI PUSH1 0x0 DUP1 REVERT JUMPDEST POP PUSH2 0xC1 PUSH2 0xBC CALLDATASIZE PUSH1 0x4 PUSH2 0x458B JUMP JUMPDEST PUSH2 0x20A JUMP JUMPDEST PUSH1 0x40 MLOAD PUSH2 0xCE SWAP2 SWAP1 PUSH2 0x474B JUMP JUMPDEST PUSH1 0x40 MLOAD DUP1 SWAP2 SUB SWAP1 RETURN JUMPDEST CALLVALUE DUP1 ISZERO PUSH2 0xE3 JUMPI PUSH1 0x0 DUP1 REVERT JUMPDEST POP PUSH2 0xEC PUSH2 0x38C JUMP JUMPDEST PUSH1 0x40 MLOAD PUSH2 0xCE SWAP2 SWAP1 PUSH2 0x45F8 JUMP JUMPDEST PUSH2 0xC1 PUSH2 0x107 CALLDATASIZE PUSH1 0x4 PUSH2 0x42F5 JUMP JUMPDEST PUSH2 0x39B JUMP JUMPDEST CALLVALUE DUP1 ISZERO PUSH2 0x118 JUMPI PUSH1 0x0 DUP1 REVERT JUMPDEST POP PUSH2 0xC1 PUSH2 0x127 CALLDATASIZE PUSH1 0x4 PUSH2 0x4335 JUMP JUMPDEST PUSH2 0x454 JUMP JUMPDEST CALLVALUE DUP1 ISZERO PUSH2 0x138 JUMPI PUSH1 0x0 DUP1 REVERT JUMPDEST POP PUSH2 0x14C PUSH2 0x147 CALLDATASIZE PUSH1 0x4 PUSH2 0x4498 JUMP JUMPDEST PUSH2 0x632 JUMP JUMPDEST STOP JUMPDEST CALLVALUE DUP1 ISZERO PUSH2 0x15A JUMPI PUSH1 0x0 DUP1 REVERT JUMPDEST POP PUSH2 0xEC PUSH2 0x66C JUMP JUMPDEST CALLVALUE DUP1 ISZERO PUSH2 0x16F JUMPI PUSH1 0x0 DUP1 REVERT JUMPDEST POP PUSH2 0xEC PUSH2 0x67B JUMP JUMPDEST CALLVALUE DUP1 ISZERO PUSH2 0x184 JUMPI PUSH1 0x0 DUP1 REVERT JUMPDEST POP PUSH2 0x14C PUSH2 0x193 CALLDATASIZE PUSH1 0x4 PUSH2 0x456F JUMP JUMPDEST PUSH2 0x692 JUMP JUMPDEST CALLVALUE DUP1 ISZERO PUSH2 0x1A4 JUMPI PUSH1 0x0 DUP1 REVERT JUMPDEST POP PUSH2 0xC1 PUSH2 0x1B3 CALLDATASIZE PUSH1 0x4 PUSH2 0x42F5 JUMP JUMPDEST PUSH2 0x6DF JUMP JUMPDEST CALLVALUE DUP1 ISZERO PUSH2 0x1C4 JUMPI PUSH1 0x0 DUP1 REVERT JUMPDEST POP PUSH2 0x1CD PUSH2 0x759 JUMP JUMPDEST PUSH1 0x40 MLOAD PUSH2 0xCE SWAP5 SWAP4 SWAP3 SWAP2 SWAP1 PUSH2 0x460C JUMP JUMPDEST CALLVALUE DUP1 ISZERO PUSH2 0x1E9 JUMPI PUSH1 0x0 DUP1 REVERT JUMPDEST POP PUSH2 0x1FD PUSH2 0x1F8 CALLDATASIZE PUSH1 0x4 PUSH2 0x42D9 JUMP JUMPDEST PUSH2 0x7B3 JUMP JUMPDEST PUSH1 0x40 MLOAD PUSH2 0xCE SWAP2 SWAP1 PUSH2 0x4740 JUMP JUMPDEST PUSH1 0x0 PUSH1 0x2 PUSH1 0xA SLOAD EQ ISZERO PUSH2 0x21C JUMPI PUSH1 0x0 DUP1 REVERT JUMPDEST PUSH1 0x2 PUSH1 0xA SSTORE PUSH2 0xFFFF DUP5 AND PUSH1 0x1 EQ PUSH2 0x253 JUMPI DUP2 PUSH2 0x253 JUMPI PUSH1 0x40 MLOAD PUSH3 0x461BCD PUSH1 0xE5 SHL DUP2 MSTORE PUSH1 0x4 ADD PUSH2 0x24A SWAP1 PUSH2 0x4844 JUMP JUMPDEST PUSH1 0x40 MLOAD DUP1 SWAP2 SUB SWAP1 REVERT JUMPDEST PUSH1 0x0 PUSH2 0x25E CALLER PUSH2 0x7E7 JUMP JUMPDEST POP SWAP1 POP PUSH2 0x269 PUSH2 0x3F9E JUMP JUMPDEST PUSH2 0x275 DUP2 CALLER DUP9 DUP6 PUSH2 0x8AC JUMP JUMPDEST PUSH1 0x1 PUSH1 0x1 PUSH1 0x58 SHL SUB DUP6 DUP2 AND EQ ISZERO PUSH2 0x2AE JUMPI PUSH1 0x0 DUP2 PUSH1 0x20 ADD MLOAD SGT PUSH2 0x297 JUMPI PUSH1 0x0 DUP1 REVERT JUMPDEST PUSH2 0x2A4 DUP2 PUSH1 0x20 ADD MLOAD PUSH2 0x8CD JUMP JUMPDEST PUSH1 0x80 DUP3 ADD MSTORE PUSH2 0x2C6 JUMP JUMPDEST PUSH2 0x2C0 DUP6 PUSH1 0x1 PUSH1 0x1 PUSH1 0x58 SHL SUB AND PUSH2 0x8CD JUMP JUMPDEST PUSH1 0x80 DUP3 ADD MSTORE JUMPDEST PUSH1 0x0 PUSH2 0x2D5 DUP3 CALLER DUP6 DUP9 ISZERO PUSH2 0x8E1 JUMP JUMPDEST SWAP1 POP PUSH2 0x2E1 DUP4 CALLER PUSH2 0x8FC JUMP JUMPDEST PUSH1 0x20 DUP4 ADD MLOAD PUSH1 0x1 PUSH1 0x1 PUSH1 0xF8 SHL SUB NOT AND ISZERO PUSH2 0x35D JUMPI PUSH1 0x40 MLOAD PUSH4 0x6CCC642F PUSH1 0xE0 SHL DUP2 MSTORE PUSH20 0x0 SWAP1 PUSH4 0x6CCC642F SWAP1 PUSH2 0x32C SWAP1 CALLER SWAP1 PUSH1 0x4 ADD PUSH2 0x45F8 JUMP JUMPDEST PUSH1 0x0 PUSH1 0x40 MLOAD DUP1 DUP4 SUB DUP2 DUP7 DUP1 EXTCODESIZE ISZERO DUP1 ISZERO PUSH2 0x344 JUMPI PUSH1 0x0 DUP1 REVERT JUMPDEST POP GAS DELEGATECALL ISZERO DUP1 ISZERO PUSH2 0x358 JUMPI RETURNDATASIZE PUSH1 0x0 DUP1 RETURNDATACOPY RETURNDATASIZE PUSH1 0x0 REVERT JUMPDEST POP POP POP POP JUMPDEST PUSH1 0x0 DUP2 SGT ISZERO PUSH2 0x36B JUMPI PUSH1 0x0 DUP1 REVERT JUMPDEST PUSH2 0x37C PUSH2 0x377 DUP3 PUSH2 0x8CD JUMP JUMPDEST PUSH2 0xA19 JUMP JUMPDEST PUSH1 0x1 PUSH1 0xA SSTORE SWAP8 SWAP7 POP POP POP POP POP POP POP JUMP JUMPDEST PUSH1 0x2 SLOAD PUSH1 0x1 PUSH1 0x1 PUSH1 0xA0 SHL SUB AND DUP2 JUMP JUMPDEST PUSH1 0x0 PUSH1 0x2 PUSH1 0xA SLOAD EQ ISZERO PUSH2 0x3AD JUMPI PUSH1 0x0 DUP1 REVERT JUMPDEST PUSH1 0x2 PUSH1 0xA SSTORE CALLER ADDRESS EQ ISZERO PUSH2 0x3BF JUMPI PUSH1 0x0 DUP1 REVERT JUMPDEST CALLER PUSH1 0x1 PUSH1 0x1 PUSH1 0xA0 SHL SUB DUP6 AND EQ PUSH2 0x3D4 JUMPI PUSH1 0x0 DUP1 REVERT JUMPDEST PUSH2 0x3DD DUP5 PUSH2 0xA2C JUMP JUMPDEST PUSH1 0x0 PUSH2 0x3E8 DUP6 PUSH2 0xAA7 JUMP JUMPDEST SWAP1 POP PUSH2 0x3F2 PUSH2 0x3F9E JUMP JUMPDEST PUSH2 0x3FE DUP2 DUP8 DUP8 DUP6 PUSH2 0x8AC JUMP JUMPDEST PUSH1 0x0 PUSH2 0x417 DUP8 PUSH2 0x40D DUP8 PUSH2 0xB55 JUMP JUMPDEST DUP5 SWAP2 SWAP1 PUSH1 0x0 PUSH2 0xB6B JUMP JUMPDEST SWAP1 POP PUSH1 0x0 DUP2 SGT PUSH2 0x426 JUMPI PUSH1 0x0 DUP1 REVERT JUMPDEST PUSH2 0x431 DUP3 DUP9 DUP6 PUSH2 0xBBD JUMP JUMPDEST PUSH2 0x43B DUP4 DUP9 PUSH2 0x8FC JUMP JUMPDEST PUSH2 0x120 DUP3 ADD MLOAD PUSH2 0x44B SWAP1 DUP8 PUSH2 0xBDB JUMP JUMPDEST PUSH2 0x37C DUP2 PUSH2 0xA19 JUMP JUMPDEST PUSH1 0x0 PUSH1 0x2 PUSH1 0xA SLOAD EQ ISZERO PUSH2 0x466 JUMPI PUSH1 0x0 DUP1 REVERT JUMPDEST PUSH1 0x2 PUSH1 0xA SSTORE CALLER PUSH1 0x1 PUSH1 0x1 PUSH1 0xA0 SHL SUB DUP6 AND EQ DUP1 PUSH2 0x481 JUMPI POP CALLER ADDRESS EQ JUMPDEST PUSH2 0x49D JUMPI PUSH1 0x40 MLOAD PUSH3 0x461BCD PUSH1 0xE5 SHL DUP2 MSTORE PUSH1 0x4 ADD PUSH2 0x24A SWAP1 PUSH2 0x47EE JUMP JUMPDEST PUSH1 0x1 PUSH1 0x1 PUSH1 0x60 SHL SUB DUP3 AND PUSH1 0x0 PUSH2 0x4B2 DUP7 PUSH2 0x7E7 JUMP JUMPDEST POP SWAP1 POP PUSH2 0x4BD PUSH2 0x3F9E JUMP JUMPDEST PUSH2 0x4C9 DUP2 DUP9 DUP9 DUP6 PUSH2 0x8AC JUMP JUMPDEST DUP3 DUP2 PUSH1 0x40 ADD MLOAD SLT ISZERO PUSH2 0x4ED JUMPI PUSH1 0x40 MLOAD PUSH3 0x461BCD PUSH1 0xE5 SHL DUP2 MSTORE PUSH1 0x4 ADD PUSH2 0x24A SWAP1 PUSH2 0x4924 JUMP JUMPDEST PUSH2 0x4F6 DUP4 PUSH2 0x8CD JUMP JUMPDEST PUSH1 0xC0 DUP3 ADD MSTORE PUSH1 0x40 MLOAD PUSH4 0xE22AAA3 PUSH1 0xE0 SHL DUP2 MSTORE PUSH1 0x0 SWAP1 PUSH20 0x0 SWAP1 PUSH4 0xE22AAA3 SWAP1 PUSH2 0x539 SWAP1 DUP12 SWAP1 DUP12 SWAP1 DUP10 SWAP1 PUSH1 0x4 ADD PUSH2 0x46C3 JUMP JUMPDEST PUSH1 0x20 PUSH1 0x40 MLOAD DUP1 DUP4 SUB DUP2 DUP7 DUP1 EXTCODESIZE ISZERO DUP1 ISZERO PUSH2 0x551 JUMPI PUSH1 0x0 DUP1 REVERT JUMPDEST POP GAS DELEGATECALL ISZERO DUP1 ISZERO PUSH2 0x565 JUMPI RETURNDATASIZE PUSH1 0x0 DUP1 RETURNDATACOPY RETURNDATASIZE PUSH1 0x0 REVERT JUMPDEST POP POP POP POP PUSH1 0x40 MLOAD RETURNDATASIZE PUSH1 0x1F NOT PUSH1 0x1F DUP3 ADD AND DUP3 ADD DUP1 PUSH1 0x40 MSTORE POP DUP2 ADD SWAP1 PUSH2 0x589 SWAP2 SWAP1 PUSH2 0x44B4 JUMP JUMPDEST PUSH1 0x60 DUP4 ADD DUP2 SWAP1 MSTORE SWAP1 POP PUSH2 0x59D DUP3 DUP10 DUP6 PUSH2 0xBBD JUMP JUMPDEST PUSH2 0x5A7 DUP4 DUP10 PUSH2 0x8FC JUMP JUMPDEST PUSH1 0x20 DUP4 ADD MLOAD PUSH1 0x1 PUSH1 0x1 PUSH1 0xF8 SHL SUB NOT AND ISZERO PUSH2 0x37C JUMPI PUSH1 0x40 MLOAD PUSH4 0x6CCC642F PUSH1 0xE0 SHL DUP2 MSTORE PUSH20 0x0 SWAP1 PUSH4 0x6CCC642F SWAP1 PUSH2 0x5F2 SWAP1 DUP12 SWAP1 PUSH1 0x4 ADD PUSH2 0x45F8 JUMP JUMPDEST PUSH1 0x0 PUSH1 0x40 MLOAD DUP1 DUP4 SUB DUP2 DUP7 DUP1 EXTCODESIZE ISZERO DUP1 ISZERO PUSH2 0x60A JUMPI PUSH1 0x0 DUP1 REVERT JUMPDEST POP GAS DELEGATECALL ISZERO DUP1 ISZERO PUSH2 0x61E JUMPI RETURNDATASIZE PUSH1 0x0 DUP1 RETURNDATACOPY RETURNDATASIZE PUSH1 0x0 REVERT JUMPDEST POP POP POP POP PUSH1 0x1 PUSH1 0xA SSTORE SWAP8 SWAP7 POP POP POP POP POP POP POP JUMP JUMPDEST CALLER ADDRESS EQ ISZERO PUSH2 0x63F JUMPI PUSH1 0x0 DUP1 REVERT JUMPDEST PUSH2 0x648 CALLER PUSH2 0xA2C JUMP JUMPDEST PUSH1 0x0 PUSH2 0x653 CALLER PUSH2 0x7E7 JUMP JUMPDEST POP DUP3 ISZERO ISZERO PUSH1 0xA0 DUP3 ADD MSTORE SWAP1 POP PUSH2 0x668 DUP2 CALLER PUSH2 0x8FC JUMP JUMPDEST POP POP JUMP JUMPDEST PUSH1 0x1 SLOAD PUSH1 0x1 PUSH1 0x1 PUSH1 0xA0 SHL SUB AND DUP2 JUMP JUMPDEST PUSH1 0x0 SLOAD PUSH5 0x100000000 SWAP1 DIV PUSH1 0x1 PUSH1 0x1 PUSH1 0xA0 SHL SUB AND DUP2 JUMP JUMPDEST CALLER ADDRESS EQ ISZERO PUSH2 0x69F JUMPI PUSH1 0x0 DUP1 REVERT JUMPDEST PUSH1 0x0 SLOAD PUSH2 0xFFFF SWAP1 DUP2 AND SWAP1 DUP3 AND GT ISZERO PUSH2 0x6B6 JUMPI PUSH1 0x0 DUP1 REVERT JUMPDEST CALLER PUSH1 0x0 PUSH2 0x6C2 DUP3 PUSH2 0x7E7 JUMP JUMPDEST POP SWAP1 POP PUSH2 0x6D0 DUP2 DUP5 TIMESTAMP PUSH2 0xC1C JUMP JUMPDEST PUSH2 0x6DA DUP2 DUP4 PUSH2 0x8FC JUMP JUMPDEST POP POP POP JUMP JUMPDEST PUSH1 0x0 PUSH1 0x2 PUSH1 0xA SLOAD EQ ISZERO PUSH2 0x6F1 JUMPI PUSH1 0x0 DUP1 REVERT JUMPDEST PUSH1 0x2 PUSH1 0xA SSTORE CALLER ADDRESS EQ ISZERO PUSH2 0x703 JUMPI PUSH1 0x0 DUP1 REVERT JUMPDEST CALLER PUSH1 0x1 PUSH1 0x1 PUSH1 0xA0 SHL SUB DUP6 AND EQ PUSH2 0x718 JUMPI PUSH1 0x0 DUP1 REVERT JUMPDEST PUSH2 0x721 DUP5 PUSH2 0xA2C JUMP JUMPDEST PUSH1 0x0 PUSH2 0x72C DUP6 PUSH2 0xAA7 JUMP JUMPDEST SWAP1 POP PUSH2 0x736 PUSH2 0x3F9E JUMP JUMPDEST PUSH2 0x742 DUP2 DUP8 DUP8 DUP6 PUSH2 0x8AC JUMP JUMPDEST PUSH1 0x0 PUSH2 0x417 DUP8 PUSH2 0x751 DUP8 PUSH2 0xB55 JUMP JUMPDEST DUP5 SWAP2 SWAP1 PUSH2 0xD14 JUMP JUMPDEST PUSH20 0x0 PUSH20 0x0 PUSH20 0x0 PUSH20 0x0 SWAP1 SWAP2 SWAP3 SWAP4 JUMP JUMPDEST PUSH1 0x0 PUSH2 0x7BE DUP3 PUSH2 0xA2C JUMP JUMPDEST PUSH1 0x0 DUP1 PUSH2 0x7CA DUP5 PUSH2 0x7E7 JUMP JUMPDEST SWAP2 POP SWAP2 POP DUP1 ISZERO PUSH2 0x7DE JUMPI PUSH2 0x7DE DUP3 DUP6 PUSH2 0x8FC JUMP JUMPDEST SWAP2 POP POP JUMPDEST SWAP2 SWAP1 POP JUMP JUMPDEST PUSH2 0x7EF PUSH2 0x3FFA JUMP JUMPDEST PUSH1 0x0 DUP1 PUSH2 0x7FB DUP5 PUSH2 0xAA7 JUMP JUMPDEST SWAP1 POP PUSH2 0x806 DUP2 PUSH2 0xDF0 JUMP JUMPDEST ISZERO PUSH2 0x8A0 JUMPI PUSH1 0x40 MLOAD PUSH4 0x37B5FC21 PUSH1 0xE1 SHL DUP2 MSTORE PUSH20 0x0 SWAP1 PUSH4 0x6F6BF842 SWAP1 PUSH2 0x844 SWAP1 DUP8 SWAP1 DUP6 SWAP1 PUSH1 0x4 ADD PUSH2 0x4650 JUMP JUMPDEST PUSH1 0xC0 PUSH1 0x40 MLOAD DUP1 DUP4 SUB DUP2 DUP7 DUP1 EXTCODESIZE ISZERO DUP1 ISZERO PUSH2 0x85C JUMPI PUSH1 0x0 DUP1 REVERT JUMPDEST POP GAS DELEGATECALL ISZERO DUP1 ISZERO PUSH2 0x870 JUMPI RETURNDATASIZE PUSH1 0x0 DUP1 RETURNDATACOPY RETURNDATASIZE PUSH1 0x0 REVERT JUMPDEST POP POP POP POP PUSH1 0x40 MLOAD RETURNDATASIZE PUSH1 0x1F NOT PUSH1 0x1F DUP3 ADD AND DUP3 ADD DUP1 PUSH1 0x40 MSTORE POP DUP2 ADD SWAP1 PUSH2 0x894 SWAP2 SWAP1 PUSH2 0x44CC JUMP JUMPDEST PUSH1 0x1 SWAP3 POP SWAP3 POP POP PUSH2 0x8A7 JUMP JUMPDEST SWAP2 POP PUSH1 0x0 SWAP1 POP JUMPDEST SWAP2 POP SWAP2 JUMP JUMPDEST PUSH2 0x8B5 DUP3 PUSH2 0xE44 JUMP JUMPDEST PUSH2 0x120 DUP6 ADD MSTORE PUSH2 0x8C7 DUP5 DUP5 DUP5 DUP5 PUSH2 0xE56 JUMP JUMPDEST POP POP POP POP JUMP JUMPDEST PUSH1 0x0 PUSH2 0x8DB PUSH1 0x0 NOT DUP4 PUSH2 0xEFE JUMP JUMPDEST SWAP3 SWAP2 POP POP JUMP JUMPDEST PUSH1 0x0 PUSH2 0x8F1 DUP6 DUP6 DUP6 DUP6 PUSH1 0x1 PUSH2 0xF4C JUMP JUMPDEST SWAP1 POP JUMPDEST SWAP5 SWAP4 POP POP POP POP JUMP JUMPDEST PUSH1 0x0 PUSH2 0x906 PUSH2 0x1102 JUMP JUMPDEST PUSH1 0x1 PUSH1 0x1 PUSH1 0xA0 SHL SUB DUP4 AND PUSH1 0x0 DUP2 DUP2 MSTORE PUSH1 0x20 DUP4 DUP2 MSTORE PUSH1 0x40 DUP1 DUP4 KECCAK256 DUP9 MLOAD DUP2 SLOAD SWAP4 DUP11 ADD MLOAD DUP11 DUP5 ADD MLOAD PUSH1 0x60 DUP13 ADD MLOAD PUSH1 0x80 DUP14 ADD MLOAD PUSH1 0xA0 DUP15 ADD MLOAD PUSH5 0xFFFFFFFFFF NOT SWAP1 SWAP9 AND PUSH5 0xFFFFFFFFFF SWAP1 SWAP6 AND SWAP5 SWAP1 SWAP5 OR PUSH6 0xFF0000000000 NOT AND PUSH1 0x1 PUSH1 0x28 SHL PUSH1 0xF8 SWAP5 SWAP1 SWAP5 SHR SWAP4 SWAP1 SWAP4 MUL SWAP3 SWAP1 SWAP3 OR PUSH7 0xFF000000000000 NOT AND PUSH1 0x1 PUSH1 0x30 SHL PUSH1 0xFF SWAP1 SWAP3 AND SWAP2 SWAP1 SWAP2 MUL OR PUSH9 0xFFFF00000000000000 NOT AND PUSH1 0x1 PUSH1 0x38 SHL PUSH2 0xFFFF SWAP1 SWAP3 AND SWAP2 SWAP1 SWAP2 MUL OR PUSH27 0xFFFFFFFFFFFFFFFFFFFFFFFFFFFFFFFFFFFF000000000000000000 NOT AND PUSH1 0x1 PUSH1 0x48 SHL PUSH1 0x70 SWAP3 SWAP1 SWAP3 SHR SWAP2 SWAP1 SWAP2 MUL OR PUSH1 0xFF PUSH1 0xD8 SHL NOT AND PUSH1 0x1 PUSH1 0xD8 SHL SWAP4 ISZERO ISZERO SWAP4 SWAP1 SWAP4 MUL SWAP3 SWAP1 SWAP3 OR SWAP1 SWAP2 SSTORE MLOAD SWAP3 SWAP4 POP SWAP1 SWAP2 PUSH32 0x6BD4B121BCA854A191536A2CA891155C42EE2FB23F307FB34E8BC65CFCB5412E SWAP2 SWAP1 LOG2 POP POP POP JUMP JUMPDEST PUSH1 0x0 DUP1 DUP3 SLT ISZERO PUSH2 0xA28 JUMPI PUSH1 0x0 DUP1 REVERT JUMPDEST POP SWAP1 JUMP JUMPDEST PUSH1 0x1 PUSH1 0x1 PUSH1 0xA0 SHL SUB DUP2 AND PUSH2 0xA3F JUMPI PUSH1 0x0 DUP1 REVERT JUMPDEST PUSH1 0x1 PUSH1 0x1 PUSH1 0xA0 SHL SUB DUP2 AND PUSH2 0xFEE EQ ISZERO PUSH2 0xA57 JUMPI PUSH1 0x0 DUP1 REVERT JUMPDEST PUSH1 0x1 PUSH1 0x1 PUSH1 0xA0 SHL SUB DUP2 AND PUSH2 0x5E7 EQ ISZERO PUSH2 0xA6F JUMPI PUSH1 0x0 DUP1 REVERT JUMPDEST PUSH1 0x1 PUSH1 0x1 PUSH1 0xA0 SHL SUB DUP2 AND ADDRESS EQ ISZERO PUSH2 0xA85 JUMPI PUSH1 0x0 DUP1 REVERT JUMPDEST PUSH1 0x0 PUSH2 0xA90 DUP3 PUSH2 0x110F JUMP JUMPDEST POP POP POP POP PUSH2 0xFFFF AND SWAP1 POP DUP1 PUSH1 0x0 EQ PUSH2 0x668 JUMPI PUSH1 0x0 DUP1 REVERT JUMPDEST PUSH2 0xAAF PUSH2 0x3FFA JUMP JUMPDEST PUSH1 0x0 PUSH2 0xAB9 PUSH2 0x1102 JUMP JUMPDEST PUSH1 0x1 PUSH1 0x1 PUSH1 0xA0 SHL SUB DUP5 AND PUSH1 0x0 SWAP1 DUP2 MSTORE PUSH1 0x20 SWAP2 DUP3 MSTORE PUSH1 0x40 SWAP1 DUP2 SWAP1 KECCAK256 DUP2 MLOAD PUSH1 0xC0 DUP2 ADD DUP4 MSTORE SWAP1 SLOAD PUSH5 0xFFFFFFFFFF DUP2 AND DUP3 MSTORE PUSH1 0x1 PUSH1 0x1 PUSH1 0xF8 SHL SUB NOT PUSH1 0x1 PUSH1 0x28 SHL DUP3 DIV PUSH1 0xF8 SHL AND SWAP4 DUP3 ADD SWAP4 SWAP1 SWAP4 MSTORE PUSH1 0xFF PUSH1 0x1 PUSH1 0x30 SHL DUP5 DIV DUP2 AND SWAP3 DUP3 ADD SWAP3 SWAP1 SWAP3 MSTORE PUSH2 0xFFFF PUSH1 0x1 PUSH1 0x38 SHL DUP5 DIV AND PUSH1 0x60 DUP3 ADD MSTORE PUSH1 0x1 PUSH1 0x1 PUSH1 0x70 SHL SUB NOT PUSH1 0x1 PUSH1 0x48 SHL DUP5 DIV PUSH1 0x70 SHL AND PUSH1 0x80 DUP3 ADD MSTORE PUSH1 0x1 PUSH1 0xD8 SHL SWAP1 SWAP3 DIV AND ISZERO ISZERO PUSH1 0xA0 DUP3 ADD MSTORE SWAP2 POP POP SWAP2 SWAP1 POP JUMP JUMPDEST PUSH1 0x0 PUSH1 0x1 PUSH1 0x1 PUSH1 0xFF SHL SUB DUP3 GT ISZERO PUSH2 0xA28 JUMPI PUSH1 0x0 DUP1 REVERT JUMPDEST PUSH1 0x0 DUP3 PUSH2 0xB7A JUMPI POP PUSH1 0x0 PUSH2 0x8F4 JUMP JUMPDEST PUSH1 0x0 DUP4 SGT PUSH2 0xB87 JUMPI PUSH1 0x0 DUP1 REVERT JUMPDEST PUSH2 0xB9D DUP5 DUP7 PUSH1 0x0 ADD MLOAD DUP6 DUP9 PUSH2 0x120 ADD MLOAD DUP7 PUSH2 0x1178 JUMP JUMPDEST PUSH1 0x60 DUP8 ADD MLOAD SWAP1 SWAP3 POP PUSH2 0xBB0 SWAP2 POP DUP3 PUSH2 0x123A JUMP JUMPDEST PUSH1 0x60 DUP7 ADD MSTORE SWAP5 SWAP4 POP POP POP POP JUMP JUMPDEST PUSH1 0x80 DUP4 ADD MLOAD ISZERO PUSH2 0xBCC JUMPI PUSH1 0x0 DUP1 REVERT JUMPDEST PUSH2 0x8C7 DUP4 DUP4 DUP4 PUSH1 0x0 PUSH1 0x1 PUSH2 0xF4C JUMP JUMPDEST PUSH1 0x0 DUP1 PUSH2 0xBE8 DUP5 DUP5 PUSH2 0x1250 JUMP JUMPDEST SWAP2 POP SWAP2 POP DUP2 PUSH1 0x0 EQ ISZERO PUSH2 0xBFC JUMPI POP POP PUSH2 0x668 JUMP JUMPDEST DUP2 DUP2 GT ISZERO PUSH2 0x8C7 JUMPI PUSH1 0x40 MLOAD PUSH3 0x461BCD PUSH1 0xE5 SHL DUP2 MSTORE PUSH1 0x4 ADD PUSH2 0x24A SWAP1 PUSH2 0x4754 JUMP JUMPDEST PUSH2 0xC25 DUP4 PUSH2 0x12BC JUMP JUMPDEST ISZERO PUSH2 0xC42 JUMPI PUSH1 0x40 MLOAD PUSH3 0x461BCD PUSH1 0xE5 SHL DUP2 MSTORE PUSH1 0x4 ADD PUSH2 0x24A SWAP1 PUSH2 0x487B JUMP JUMPDEST DUP2 PUSH2 0xFFFF AND PUSH1 0x0 LT DUP1 ISZERO PUSH2 0xC5C JUMPI POP PUSH2 0x3FFF PUSH2 0xFFFF DUP4 AND GT ISZERO JUMPDEST PUSH2 0xC78 JUMPI PUSH1 0x40 MLOAD PUSH3 0x461BCD PUSH1 0xE5 SHL DUP2 MSTORE PUSH1 0x4 ADD PUSH2 0x24A SWAP1 PUSH2 0x48F7 JUMP JUMPDEST PUSH1 0x40 DUP4 ADD MLOAD PUSH1 0xFF AND ISZERO PUSH2 0xC9D JUMPI PUSH1 0x40 MLOAD PUSH3 0x461BCD PUSH1 0xE5 SHL DUP2 MSTORE PUSH1 0x4 ADD PUSH2 0x24A SWAP1 PUSH2 0x47C2 JUMP JUMPDEST PUSH1 0x20 DUP4 ADD MLOAD PUSH1 0x1 PUSH1 0x1 PUSH1 0xF8 SHL SUB NOT AND ISZERO PUSH2 0xCC9 JUMPI PUSH1 0x40 MLOAD PUSH3 0x461BCD PUSH1 0xE5 SHL DUP2 MSTORE PUSH1 0x4 ADD PUSH2 0x24A SWAP1 PUSH2 0x48A9 JUMP JUMPDEST PUSH2 0xCDE DUP4 PUSH2 0xFFFF DUP5 AND PUSH1 0x0 PUSH1 0x1 PUSH1 0xFE SHL PUSH2 0x12C9 JUMP JUMPDEST PUSH2 0xFFFF DUP3 AND PUSH1 0x60 DUP5 ADD MSTORE PUSH1 0x0 PUSH2 0xCF3 DUP3 PUSH2 0x14C8 JUMP JUMPDEST SWAP1 POP PUSH5 0xFFFFFFFFFF DUP2 LT PUSH2 0xD06 JUMPI PUSH1 0x0 DUP1 REVERT JUMPDEST PUSH5 0xFFFFFFFFFF AND SWAP1 SWAP3 MSTORE POP POP JUMP JUMPDEST PUSH1 0x0 DUP2 PUSH2 0xD23 JUMPI POP PUSH1 0x0 PUSH2 0xDE9 JUMP JUMPDEST PUSH1 0x0 DUP3 SGT PUSH2 0xD30 JUMPI PUSH1 0x0 DUP1 REVERT JUMPDEST PUSH1 0x0 PUSH2 0xD43 DUP6 PUSH1 0x0 ADD MLOAD PUSH2 0xFFFF AND PUSH2 0x14E6 JUMP JUMPDEST DUP1 MLOAD SWAP1 SWAP2 POP PUSH1 0x1 PUSH1 0x1 PUSH1 0xA0 SHL SUB AND PUSH2 0xD5A JUMPI PUSH1 0x0 DUP1 REVERT JUMPDEST PUSH1 0x1 DUP2 PUSH1 0x60 ADD MLOAD PUSH1 0x5 DUP2 GT ISZERO PUSH2 0xD6C JUMPI INVALID JUMPDEST EQ DUP1 PUSH2 0xD87 JUMPI POP PUSH1 0x2 DUP2 PUSH1 0x60 ADD MLOAD PUSH1 0x5 DUP2 GT ISZERO PUSH2 0xD85 JUMPI INVALID JUMPDEST EQ JUMPDEST ISZERO PUSH2 0xDBF JUMPI DUP5 MLOAD PUSH2 0x120 DUP7 ADD MLOAD PUSH2 0xDA3 SWAP2 DUP4 SWAP2 DUP7 SWAP1 DUP9 SWAP1 PUSH2 0x14F9 JUMP JUMPDEST PUSH1 0x60 DUP7 ADD MLOAD SWAP1 SWAP3 POP PUSH2 0xDB5 SWAP1 DUP4 PUSH2 0x123A JUMP JUMPDEST PUSH1 0x60 DUP7 ADD MSTORE PUSH2 0xDE7 JUMP JUMPDEST PUSH1 0x4 DUP2 PUSH1 0x60 ADD MLOAD PUSH1 0x5 DUP2 GT ISZERO PUSH2 0xDD1 JUMPI INVALID JUMPDEST EQ ISZERO PUSH2 0x9C JUMPI PUSH2 0xDE4 DUP6 DUP6 DUP6 PUSH1 0x0 PUSH2 0xB6B JUMP JUMPDEST SWAP2 POP JUMPDEST POP JUMPDEST SWAP4 SWAP3 POP POP POP JUMP JUMPDEST PUSH1 0x0 TIMESTAMP PUSH2 0xDFC DUP4 PUSH2 0x12BC JUMP JUMPDEST ISZERO PUSH2 0xE1D JUMPI PUSH2 0xE0A DUP2 PUSH2 0x14C8 JUMP JUMPDEST DUP4 MLOAD PUSH5 0xFFFFFFFFFF AND LT SWAP2 POP PUSH2 0x7E2 SWAP1 POP JUMP JUMPDEST DUP3 MLOAD PUSH5 0xFFFFFFFFFF AND ISZERO DUP1 ISZERO SWAP1 PUSH2 0xE3C JUMPI POP DUP3 MLOAD PUSH5 0xFFFFFFFFFF AND DUP2 LT ISZERO JUMPDEST SWAP2 POP POP PUSH2 0x7E2 JUMP JUMPDEST PUSH2 0xE4C PUSH2 0x402F JUMP JUMPDEST PUSH2 0x8DB DUP3 TIMESTAMP PUSH2 0x158A JUMP JUMPDEST DUP2 PUSH2 0xFFFF AND PUSH1 0x0 LT DUP1 ISZERO PUSH2 0xE70 JUMPI POP PUSH2 0x3FFF PUSH2 0xFFFF DUP4 AND GT ISZERO JUMPDEST PUSH2 0xE79 JUMPI PUSH1 0x0 DUP1 REVERT JUMPDEST PUSH2 0xFFFF DUP3 AND DUP1 DUP6 MSTORE PUSH2 0xE8C SWAP1 DUP3 SWAP1 PUSH2 0x164B JUMP JUMPDEST ISZERO PUSH2 0xEBB JUMPI PUSH2 0xEA1 DUP4 DUP4 DUP7 PUSH2 0x120 ADD MLOAD PUSH2 0x16D5 JUMP JUMPDEST PUSH2 0x100 DUP9 ADD MSTORE PUSH1 0xE0 DUP8 ADD MSTORE PUSH1 0x40 DUP7 ADD MSTORE PUSH1 0x20 DUP6 ADD MSTORE PUSH2 0xED9 JUMP JUMPDEST PUSH1 0x0 PUSH1 0x20 DUP6 ADD DUP2 SWAP1 MSTORE PUSH1 0x40 DUP6 ADD DUP2 SWAP1 MSTORE PUSH1 0xE0 DUP6 ADD DUP2 SWAP1 MSTORE PUSH2 0x100 DUP6 ADD MSTORE JUMPDEST POP POP PUSH1 0x0 PUSH1 0x60 DUP4 ADD DUP2 SWAP1 MSTORE PUSH1 0x80 DUP4 ADD DUP2 SWAP1 MSTORE PUSH1 0xA0 DUP4 ADD DUP2 SWAP1 MSTORE PUSH1 0xC0 SWAP1 SWAP3 ADD SWAP2 SWAP1 SWAP2 MSTORE POP JUMP JUMPDEST DUP2 DUP2 MUL PUSH1 0x0 NOT DUP4 EQ ISZERO PUSH2 0xF2E JUMPI DUP2 ISZERO DUP1 PUSH2 0xF20 JUMPI POP DUP3 DUP3 DUP3 DUP2 PUSH2 0xF1D JUMPI INVALID JUMPDEST SDIV EQ JUMPDEST PUSH2 0xF29 JUMPI PUSH1 0x0 DUP1 REVERT JUMPDEST PUSH2 0x8DB JUMP JUMPDEST DUP3 ISZERO DUP1 PUSH2 0xF43 JUMPI POP DUP2 DUP4 DUP3 DUP2 PUSH2 0xF40 JUMPI INVALID JUMPDEST SDIV EQ JUMPDEST PUSH2 0x8DB JUMPI PUSH1 0x0 DUP1 REVERT JUMPDEST PUSH1 0x0 DUP1 PUSH2 0xF69 DUP7 DUP9 PUSH1 0x0 ADD MLOAD DUP10 PUSH1 0x80 ADD MLOAD DUP11 PUSH2 0x120 ADD MLOAD DUP9 PUSH2 0x178F JUMP JUMPDEST SWAP2 POP PUSH1 0x0 PUSH2 0xF88 DUP9 PUSH1 0x80 ADD MLOAD DUP10 PUSH1 0x60 ADD MLOAD PUSH2 0x123A SWAP1 SWAP2 SWAP1 PUSH4 0xFFFFFFFF AND JUMP JUMPDEST SWAP1 POP DUP4 DUP1 ISZERO PUSH2 0xF97 JUMPI POP PUSH1 0x0 DUP2 SLT JUMPDEST DUP1 ISZERO PUSH2 0xFB2 JUMPI POP PUSH1 0x20 DUP9 ADD MLOAD PUSH1 0x0 SWAP1 PUSH2 0xFB0 SWAP1 DUP4 PUSH2 0x123A JUMP JUMPDEST SLT JUMPDEST ISZERO PUSH2 0xFD8 JUMPI DUP6 PUSH1 0xA0 ADD MLOAD PUSH2 0xFD8 JUMPI PUSH1 0x40 MLOAD PUSH3 0x461BCD PUSH1 0xE5 SHL DUP2 MSTORE PUSH1 0x4 ADD PUSH2 0x24A SWAP1 PUSH2 0x481B JUMP JUMPDEST DUP1 ISZERO PUSH2 0xFF7 JUMPI PUSH1 0x20 DUP9 ADD MLOAD PUSH2 0xFED SWAP1 DUP3 PUSH2 0x123A JUMP JUMPDEST PUSH1 0x20 DUP10 ADD MSTORE PUSH1 0x1 SWAP2 POP JUMPDEST PUSH1 0xA0 DUP9 ADD MLOAD ISZERO ISZERO DUP1 PUSH2 0x100C JUMPI POP PUSH1 0xC0 DUP9 ADD MLOAD ISZERO ISZERO JUMPDEST ISZERO PUSH2 0x1075 JUMPI PUSH1 0x0 PUSH2 0x103C DUP10 PUSH1 0xC0 ADD MLOAD PUSH2 0x1036 DUP12 PUSH1 0xA0 ADD MLOAD DUP13 PUSH1 0x40 ADD MLOAD PUSH2 0x123A SWAP1 SWAP2 SWAP1 PUSH4 0xFFFFFFFF AND JUMP JUMPDEST SWAP1 PUSH2 0x123A JUMP JUMPDEST SWAP1 POP PUSH1 0x0 DUP2 SLT ISZERO PUSH2 0x105F JUMPI PUSH1 0x40 MLOAD PUSH3 0x461BCD PUSH1 0xE5 SHL DUP2 MSTORE PUSH1 0x4 ADD PUSH2 0x24A SWAP1 PUSH2 0x48D3 JUMP JUMPDEST PUSH2 0x106A DUP10 DUP10 DUP4 PUSH2 0x1838 JUMP JUMPDEST POP PUSH1 0x40 DUP10 ADD MSTORE PUSH1 0x1 SWAP2 POP JUMPDEST DUP2 ISZERO PUSH2 0x10A4 JUMPI PUSH2 0x10A4 DUP8 DUP10 PUSH1 0x0 ADD MLOAD DUP11 PUSH1 0x20 ADD MLOAD DUP12 PUSH1 0x40 ADD MLOAD DUP13 PUSH1 0xE0 ADD MLOAD DUP14 PUSH2 0x100 ADD MLOAD DUP15 PUSH2 0x120 ADD MLOAD PUSH2 0x192F JUMP JUMPDEST DUP8 MLOAD PUSH1 0x20 DUP10 ADD MLOAD PUSH2 0x10D1 SWAP2 PUSH2 0xFFFF AND SWAP1 ISZERO ISZERO DUP1 PUSH2 0x10C4 JUMPI POP PUSH1 0x40 DUP11 ADD MLOAD ISZERO ISZERO JUMPDEST DUP9 SWAP2 SWAP1 PUSH1 0x1 PUSH1 0xFE SHL PUSH2 0x12C9 JUMP JUMPDEST PUSH1 0x0 DUP9 PUSH1 0x20 ADD MLOAD SLT ISZERO PUSH2 0x10F7 JUMPI PUSH1 0x20 DUP7 ADD DUP1 MLOAD PUSH1 0x1 PUSH1 0xF9 SHL OR PUSH1 0x1 PUSH1 0x1 PUSH1 0xF8 SHL SUB NOT AND SWAP1 MSTORE JUMPDEST POP POP SWAP6 SWAP5 POP POP POP POP POP JUMP JUMPDEST PUSH1 0x0 DUP1 PUSH2 0x8DB PUSH1 0x1 PUSH2 0x1A6A JUMP JUMPDEST PUSH1 0x0 DUP1 PUSH1 0x0 DUP1 PUSH1 0x0 DUP1 PUSH2 0x1120 PUSH2 0x1A83 JUMP JUMPDEST PUSH1 0x1 PUSH1 0x1 PUSH1 0xA0 SHL SUB SWAP1 SWAP8 AND PUSH1 0x0 SWAP1 DUP2 MSTORE PUSH1 0x20 SWAP8 SWAP1 SWAP8 MSTORE POP POP PUSH1 0x40 SWAP1 SWAP5 KECCAK256 SLOAD PUSH2 0xFFFF DUP2 AND SWAP6 PUSH4 0xFFFFFFFF PUSH3 0x10000 DUP4 DIV DUP2 AND SWAP7 POP PUSH1 0x1 PUSH1 0x30 SHL DUP4 DIV AND SWAP5 POP PUSH1 0xFF PUSH1 0x1 PUSH1 0x50 SHL DUP4 DIV AND SWAP4 POP PUSH1 0x1 PUSH1 0x58 SHL SWAP1 SWAP2 DIV PUSH1 0xD0 SHL SWAP2 POP JUMP JUMPDEST PUSH1 0x0 DUP1 PUSH1 0x0 PUSH2 0x1186 DUP7 PUSH2 0xA19 JUMP JUMPDEST SWAP1 POP DUP1 PUSH2 0x119A JUMPI PUSH1 0x0 DUP1 SWAP3 POP SWAP3 POP POP PUSH2 0x1230 JUMP JUMPDEST PUSH1 0x0 PUSH2 0x11A9 DUP9 PUSH2 0xFFFF AND PUSH2 0x1A90 JUMP JUMPDEST SWAP1 POP PUSH1 0x3 DUP2 PUSH1 0x60 ADD MLOAD PUSH1 0x5 DUP2 GT ISZERO PUSH2 0x11BD JUMPI INVALID JUMPDEST EQ ISZERO PUSH2 0x1204 JUMPI CALLVALUE DUP3 LT ISZERO PUSH2 0x11DD JUMPI PUSH2 0x11D8 DUP10 DUP4 CALLVALUE SUB DUP8 PUSH2 0x1AA3 JUMP JUMPDEST PUSH2 0x11FC JUMP JUMPDEST CALLVALUE DUP3 EQ PUSH2 0x11FC JUMPI PUSH1 0x40 MLOAD PUSH3 0x461BCD PUSH1 0xE5 SHL DUP2 MSTORE PUSH1 0x4 ADD PUSH2 0x24A SWAP1 PUSH2 0x477D JUMP JUMPDEST DUP7 SWAP4 POP PUSH2 0x121E JUMP JUMPDEST PUSH2 0x121B PUSH2 0x1216 DUP3 PUSH1 0x0 ADD MLOAD DUP12 DUP6 PUSH2 0x1B6B JUMP JUMPDEST PUSH2 0xB55 JUMP JUMPDEST SWAP4 POP JUMPDEST PUSH2 0x122B DUP10 DUP10 DUP7 DUP5 DUP11 PUSH2 0x1CF3 JUMP JUMPDEST SWAP3 POP POP POP JUMPDEST SWAP6 POP SWAP6 SWAP4 POP POP POP POP JUMP JUMPDEST DUP2 DUP2 ADD DUP3 DUP2 SLT ISZERO PUSH1 0x0 DUP4 SLT ISZERO EQ PUSH2 0x8DB JUMPI PUSH1 0x0 DUP1 REVERT JUMPDEST PUSH1 0x0 DUP1 PUSH1 0x0 PUSH2 0x125D PUSH2 0x1D3A JUMP JUMPDEST PUSH2 0xFFFF DUP6 AND PUSH1 0x0 SWAP1 DUP2 MSTORE PUSH1 0x20 SWAP2 SWAP1 SWAP2 MSTORE PUSH1 0x40 SWAP1 KECCAK256 PUSH1 0x1 DUP2 ADD SLOAD SWAP1 SWAP2 POP PUSH2 0x128F SWAP1 PUSH1 0x1 PUSH1 0x58 SHL SWAP1 DIV PUSH4 0xFFFFFFFF AND PUSH2 0x1D47 JUMP JUMPDEST DUP2 SLOAD SWAP1 SWAP4 POP PUSH1 0x1 PUSH1 0x28 SHL SWAP1 DIV PUSH1 0x1 PUSH1 0x1 PUSH1 0x58 SHL SUB AND PUSH2 0x12B1 PUSH2 0x377 DUP8 DUP4 PUSH2 0x1D55 JUMP JUMPDEST SWAP3 POP POP POP SWAP3 POP SWAP3 SWAP1 POP JUMP JUMPDEST PUSH1 0x60 ADD MLOAD PUSH2 0xFFFF AND ISZERO ISZERO SWAP1 JUMP JUMPDEST DUP3 PUSH1 0x0 LT DUP1 ISZERO PUSH2 0x12DB JUMPI POP PUSH2 0x3FFF DUP4 GT ISZERO JUMPDEST PUSH2 0x12E4 JUMPI PUSH1 0x0 DUP1 REVERT JUMPDEST DUP2 DUP1 ISZERO PUSH2 0x12F8 JUMPI POP DUP3 DUP5 PUSH1 0x60 ADD MLOAD PUSH2 0xFFFF AND EQ JUMPDEST ISZERO PUSH2 0x1302 JUMPI PUSH2 0x8C7 JUMP JUMPDEST PUSH1 0x80 DUP5 ADD MLOAD PUSH1 0x0 SWAP1 DUP2 JUMPDEST PUSH1 0x1 PUSH1 0x1 PUSH1 0x70 SHL SUB NOT DUP3 AND ISZERO PUSH2 0x147D JUMPI PUSH1 0xF0 DUP3 SWAP1 SHR PUSH2 0x3FFF AND DUP7 DUP2 EQ DUP1 ISZERO PUSH2 0x1331 JUMPI POP DUP6 JUMPDEST ISZERO PUSH2 0x1369 JUMPI POP PUSH1 0x80 DUP8 ADD DUP1 MLOAD PUSH1 0x1 PUSH1 0x1 PUSH1 0xF0 SHL SUB NOT DUP7 AND PUSH1 0x10 SWAP1 SWAP4 MUL SWAP3 SWAP1 SWAP3 SHR SWAP2 SWAP1 SWAP2 OR PUSH1 0x1 PUSH1 0x1 PUSH1 0x70 SHL SUB NOT AND SWAP1 MSTORE POP PUSH2 0x8C7 SWAP1 POP JUMP JUMPDEST DUP7 DUP2 EQ DUP1 ISZERO PUSH2 0x1376 JUMPI POP DUP6 ISZERO JUMPDEST ISZERO PUSH2 0x13CB JUMPI PUSH1 0x1 PUSH1 0x1 PUSH1 0xF0 SHL SUB NOT DUP6 AND NOT SWAP3 SWAP1 SWAP3 AND SWAP2 PUSH1 0x3 PUSH1 0xFE SHL DUP4 AND PUSH2 0x13A9 JUMPI PUSH1 0x10 DUP4 PUSH1 0x1 PUSH1 0x1 PUSH1 0x70 SHL SUB NOT AND SWAP1 SHL SWAP3 POP JUMPDEST POP PUSH1 0x1 PUSH1 0x1 PUSH1 0x70 SHL SUB NOT SWAP2 DUP3 AND PUSH1 0x10 SWAP1 SWAP2 MUL SHR SWAP2 SWAP1 SWAP2 OR AND PUSH1 0x80 DUP6 ADD MSTORE PUSH2 0x8C7 JUMP JUMPDEST DUP7 DUP2 GT DUP1 ISZERO PUSH2 0x13D7 JUMPI POP DUP6 JUMPDEST ISZERO PUSH2 0x1431 JUMPI PUSH1 0x80 DUP9 DUP2 ADD MLOAD PUSH1 0x1 PUSH1 0x1 PUSH1 0xF0 SHL SUB NOT PUSH1 0xF0 DUP11 SWAP1 SHL DUP9 OR DUP2 AND PUSH1 0x10 DUP7 MUL SHR SWAP7 SWAP1 SWAP7 OR SWAP6 SWAP2 SHL AND ISZERO PUSH2 0x140B JUMPI PUSH1 0x0 DUP1 REVERT JUMPDEST POP PUSH1 0x1 PUSH1 0x1 PUSH1 0x70 SHL SUB NOT SWAP2 DUP3 AND PUSH1 0x1 SWAP2 SWAP1 SWAP2 ADD PUSH1 0x10 MUL SHR SWAP2 SWAP1 SWAP2 OR AND PUSH1 0x80 DUP6 ADD MSTORE PUSH2 0x8C7 JUMP JUMPDEST DUP7 DUP2 GT DUP1 ISZERO PUSH2 0x143E JUMPI POP DUP6 ISZERO JUMPDEST ISZERO PUSH2 0x144C JUMPI POP POP POP POP PUSH2 0x8C7 JUMP JUMPDEST POP PUSH1 0x1 PUSH1 0x1 PUSH1 0xF0 SHL SUB NOT DUP3 AND PUSH1 0x10 DUP3 DUP2 MUL SWAP2 SWAP1 SWAP2 SHR SWAP4 SWAP1 SWAP4 OR SWAP3 SWAP2 SWAP1 SWAP2 SHL PUSH1 0x1 PUSH1 0x1 PUSH1 0x80 SHL SUB NOT AND SWAP1 PUSH1 0x1 ADD PUSH2 0x130C JUMP JUMPDEST DUP5 PUSH2 0x148A JUMPI POP POP POP PUSH2 0x8C7 JUMP JUMPDEST PUSH1 0x9 DUP2 LT PUSH2 0x1497 JUMPI PUSH1 0x0 DUP1 REVERT JUMPDEST PUSH1 0x1 PUSH1 0x1 PUSH1 0xF0 SHL SUB NOT PUSH1 0xF0 DUP8 SWAP1 SHL DUP6 OR AND PUSH1 0x10 SWAP1 SWAP2 MUL SHR SWAP2 SWAP1 SWAP2 OR PUSH1 0x1 PUSH1 0x1 PUSH1 0x70 SHL SUB NOT AND PUSH1 0x80 DUP7 ADD MSTORE POP POP POP POP POP JUMP JUMPDEST PUSH1 0x0 PUSH3 0x15180 DUP3 LT ISZERO PUSH2 0x14DA JUMPI PUSH1 0x0 DUP1 REVERT JUMPDEST POP PUSH3 0x15180 DUP2 MOD SWAP1 SUB SWAP1 JUMP JUMPDEST PUSH2 0x14EE PUSH2 0x4050 JUMP JUMPDEST PUSH2 0x8DB DUP3 PUSH1 0x0 PUSH2 0x1D87 JUMP JUMPDEST PUSH1 0x0 PUSH2 0x150A DUP7 PUSH1 0x0 ADD MLOAD DUP5 DUP7 PUSH2 0x1B6B JUMP JUMPDEST SWAP4 POP PUSH1 0x0 PUSH2 0x151B DUP7 PUSH2 0xFFFF AND PUSH2 0x1A90 JUMP JUMPDEST SWAP1 POP PUSH1 0x0 PUSH1 0x2 DUP9 PUSH1 0x60 ADD MLOAD PUSH1 0x5 DUP2 GT ISZERO PUSH2 0x1531 JUMPI INVALID JUMPDEST EQ ISZERO PUSH2 0x154B JUMPI PUSH2 0x1544 PUSH2 0x1216 DUP10 DUP9 PUSH2 0x1E21 JUMP JUMPDEST SWAP1 POP PUSH2 0x1571 JUMP JUMPDEST PUSH1 0x1 DUP9 PUSH1 0x60 ADD MLOAD PUSH1 0x5 DUP2 GT ISZERO PUSH2 0x155D JUMPI INVALID JUMPDEST EQ ISZERO PUSH2 0x9C JUMPI PUSH2 0x1544 PUSH2 0x1216 DUP10 DUP5 DUP10 PUSH2 0x1ED2 JUMP JUMPDEST PUSH2 0x157E DUP6 DUP9 DUP4 DUP6 DUP9 PUSH2 0x1CF3 JUMP JUMPDEST SWAP9 SWAP8 POP POP POP POP POP POP POP POP JUMP JUMPDEST PUSH2 0x1592 PUSH2 0x402F JUMP JUMPDEST PUSH1 0x0 PUSH2 0x159D DUP5 PUSH2 0x2092 JUMP JUMPDEST SWAP1 POP DUP3 DUP2 PUSH1 0x0 ADD MLOAD LT ISZERO PUSH2 0x15DC JUMPI PUSH1 0x0 DUP1 PUSH2 0x15B7 DUP7 PUSH2 0x215A JUMP JUMPDEST SWAP1 POP PUSH2 0x15C5 DUP7 DUP5 DUP4 DUP9 PUSH2 0x21D7 JUMP JUMPDEST SWAP1 SWAP4 POP SWAP2 POP PUSH2 0x15D5 DUP7 DUP4 DUP6 PUSH2 0x227B JUMP JUMPDEST POP POP PUSH2 0x15E9 JUMP JUMPDEST DUP1 MLOAD DUP4 EQ PUSH2 0x15E9 JUMPI PUSH1 0x0 DUP1 REVERT JUMPDEST PUSH1 0x40 MLOAD DUP1 PUSH1 0x60 ADD PUSH1 0x40 MSTORE DUP1 PUSH2 0x1612 PUSH2 0x1216 DUP5 PUSH1 0xA0 ADD MLOAD DUP6 PUSH1 0xC0 ADD MLOAD PUSH2 0x24AF SWAP1 SWAP2 SWAP1 PUSH4 0xFFFFFFFF AND JUMP JUMPDEST DUP2 MSTORE PUSH1 0x20 ADD PUSH2 0x1635 PUSH2 0x1216 DUP5 PUSH1 0xA0 ADD MLOAD DUP6 PUSH1 0xE0 ADD MLOAD PUSH2 0x24AF SWAP1 SWAP2 SWAP1 PUSH4 0xFFFFFFFF AND JUMP JUMPDEST DUP2 MSTORE PUSH1 0x20 ADD DUP3 PUSH1 0x60 ADD MLOAD DUP2 MSTORE POP SWAP2 POP POP SWAP3 SWAP2 POP POP JUMP JUMPDEST PUSH1 0x0 DUP2 ISZERO DUP1 ISZERO SWAP1 PUSH2 0x165E JUMPI POP PUSH2 0x3FFF DUP3 GT ISZERO JUMPDEST PUSH2 0x1667 JUMPI PUSH1 0x0 DUP1 REVERT JUMPDEST PUSH1 0x80 DUP4 ADD MLOAD PUSH1 0x60 DUP5 ADD MLOAD PUSH2 0xFFFF AND DUP4 EQ ISZERO PUSH2 0x1686 JUMPI PUSH1 0x1 SWAP2 POP POP PUSH2 0x8DB JUMP JUMPDEST PUSH1 0x1 PUSH1 0x1 PUSH1 0x70 SHL SUB NOT DUP2 AND ISZERO PUSH2 0x16CB JUMPI PUSH1 0xF0 DUP2 SWAP1 SHR PUSH2 0x3FFF AND DUP4 DUP2 EQ ISZERO PUSH2 0x16B8 JUMPI POP PUSH1 0x1 PUSH1 0xFE SHL SWAP1 DUP2 AND EQ SWAP1 POP PUSH2 0x8DB JUMP JUMPDEST POP PUSH1 0x10 SHL PUSH1 0x1 PUSH1 0x1 PUSH1 0x80 SHL SUB NOT AND PUSH2 0x1686 JUMP JUMPDEST POP PUSH1 0x0 SWAP4 SWAP3 POP POP POP JUMP JUMPDEST PUSH1 0x0 DUP1 PUSH1 0x0 DUP1 PUSH1 0x0 PUSH2 0x16E5 PUSH2 0x24D6 JUMP JUMPDEST PUSH1 0x1 PUSH1 0x1 PUSH1 0xA0 SHL SUB DUP10 AND PUSH1 0x0 SWAP1 DUP2 MSTORE PUSH1 0x20 DUP3 DUP2 MSTORE PUSH1 0x40 DUP1 DUP4 KECCAK256 PUSH2 0xFFFF DUP13 AND DUP5 MSTORE SWAP1 SWAP2 MSTORE SWAP1 KECCAK256 DUP1 SLOAD PUSH1 0x1 PUSH1 0x1 PUSH1 0x50 SHL SUB DUP2 AND SWAP7 POP PUSH1 0x1 PUSH1 0x50 SHL SWAP1 DIV PUSH4 0xFFFFFFFF AND SWAP5 POP SWAP1 SWAP2 POP DUP4 ISZERO PUSH2 0x1752 JUMPI DUP1 SLOAD PUSH2 0x174B SWAP1 PUSH1 0x1 PUSH1 0x70 SHL SWAP1 DIV PUSH7 0xFFFFFFFFFFFFFF AND PUSH2 0x1D47 JUMP JUMPDEST SWAP3 POP PUSH2 0x1767 JUMP JUMPDEST DUP1 SLOAD PUSH1 0x1 PUSH1 0x70 SHL SWAP1 DIV PUSH7 0xFFFFFFFFFFFFFF AND SWAP3 POP JUMPDEST DUP1 SLOAD PUSH2 0x1782 SWAP1 DUP9 SWAP1 PUSH1 0x1 PUSH1 0xA8 SHL SWAP1 DIV PUSH1 0xA SWAP1 DUP2 SIGNEXTEND SWAP1 SIGNEXTEND PUSH2 0x24E3 JUMP JUMPDEST SWAP6 POP POP POP SWAP4 POP SWAP4 POP SWAP4 POP SWAP4 JUMP JUMPDEST PUSH1 0x0 DUP4 PUSH2 0x179E JUMPI POP PUSH1 0x0 PUSH2 0x182F JUMP JUMPDEST PUSH1 0x0 DUP5 SLT PUSH2 0x17AB JUMPI PUSH1 0x0 DUP1 REVERT JUMPDEST PUSH1 0x0 PUSH2 0x17BA DUP7 PUSH2 0xFFFF AND PUSH2 0x1A90 JUMP JUMPDEST SWAP1 POP PUSH2 0x17CF DUP2 PUSH2 0x17CA DUP7 DUP9 PUSH2 0x1D55 JUMP JUMPDEST PUSH2 0x2511 JUMP JUMPDEST SWAP2 POP PUSH1 0x0 PUSH2 0x17DC DUP4 PUSH2 0x8CD JUMP JUMPDEST SWAP1 POP PUSH2 0x17E9 DUP8 DUP4 DUP4 PUSH2 0x2549 JUMP JUMPDEST PUSH1 0x3 DUP3 PUSH1 0x60 ADD MLOAD PUSH1 0x5 DUP2 GT ISZERO PUSH2 0x17FB JUMPI INVALID JUMPDEST EQ ISZERO PUSH2 0x1811 JUMPI PUSH2 0x180C DUP9 DUP3 DUP7 PUSH2 0x1AA3 JUMP JUMPDEST PUSH2 0x181E JUMP JUMPDEST DUP2 MLOAD PUSH2 0x181E SWAP1 DUP10 DUP4 PUSH2 0x2641 JUMP JUMPDEST PUSH2 0x182B DUP9 DUP9 DUP6 DUP6 DUP10 PUSH2 0x1CF3 JUMP JUMPDEST POP POP POP JUMPDEST SWAP6 SWAP5 POP POP POP POP POP JUMP JUMPDEST DUP3 MLOAD PUSH1 0x0 SWAP1 TIMESTAMP SWAP1 DUP3 SWAP1 PUSH2 0x184E SWAP1 PUSH2 0xFFFF AND PUSH2 0x26B8 JUMP JUMPDEST SWAP1 POP PUSH1 0x0 PUSH2 0x185B DUP3 PUSH2 0x26DE JUMP JUMPDEST POP POP SWAP1 POP PUSH1 0x0 PUSH2 0x1870 DUP4 DUP10 PUSH1 0xC0 ADD MLOAD DUP7 PUSH2 0x273A JUMP JUMPDEST SWAP1 POP PUSH2 0x187E DUP9 DUP5 DUP4 DUP10 PUSH2 0x281D JUMP JUMPDEST SWAP5 POP PUSH1 0x0 PUSH2 0x188B DUP5 PUSH2 0x294A JUMP JUMPDEST SWAP1 POP PUSH1 0x1 PUSH1 0x1 PUSH1 0xA0 SHL SUB DUP2 AND ISZERO PUSH2 0x1913 JUMPI DUP1 PUSH1 0x1 PUSH1 0x1 PUSH1 0xA0 SHL SUB AND PUSH4 0x3F3EF50D DUP10 DUP12 PUSH1 0x0 ADD MLOAD PUSH2 0x18BE DUP14 PUSH1 0x40 ADD MLOAD PUSH2 0xA19 JUMP JUMPDEST DUP12 DUP9 PUSH1 0x40 MLOAD DUP7 PUSH4 0xFFFFFFFF AND PUSH1 0xE0 SHL DUP2 MSTORE PUSH1 0x4 ADD PUSH2 0x18E0 SWAP6 SWAP5 SWAP4 SWAP3 SWAP2 SWAP1 PUSH2 0x46E8 JUMP JUMPDEST PUSH1 0x0 PUSH1 0x40 MLOAD DUP1 DUP4 SUB DUP2 PUSH1 0x0 DUP8 DUP1 EXTCODESIZE ISZERO DUP1 ISZERO PUSH2 0x18FA JUMPI PUSH1 0x0 DUP1 REVERT JUMPDEST POP GAS CALL ISZERO DUP1 ISZERO PUSH2 0x190E JUMPI RETURNDATASIZE PUSH1 0x0 DUP1 RETURNDATACOPY RETURNDATASIZE PUSH1 0x0 REVERT JUMPDEST POP POP POP POP JUMPDEST DUP6 ISZERO PUSH2 0x1923 JUMPI PUSH2 0x1923 DUP9 DUP8 PUSH2 0x29BC JUMP JUMPDEST POP POP POP POP POP SWAP4 SWAP3 POP POP POP JUMP JUMPDEST PUSH1 0x0 PUSH2 0x1939 PUSH2 0x24D6 JUMP JUMPDEST PUSH1 0x1 PUSH1 0x1 PUSH1 0xA0 SHL SUB DUP10 AND PUSH1 0x0 SWAP1 DUP2 MSTORE PUSH1 0x20 DUP3 DUP2 MSTORE PUSH1 0x40 DUP1 DUP4 KECCAK256 PUSH2 0xFFFF DUP13 AND DUP5 MSTORE SWAP1 SWAP2 MSTORE SWAP1 KECCAK256 SWAP1 SWAP2 POP DUP5 PUSH2 0x19A1 JUMPI PUSH7 0xFFFFFFFFFFFFFF DUP5 GT ISZERO PUSH2 0x197A JUMPI PUSH1 0x0 DUP1 REVERT JUMPDEST DUP1 SLOAD PUSH7 0xFFFFFFFFFFFFFF PUSH1 0x70 SHL NOT AND PUSH1 0x1 PUSH1 0x70 SHL PUSH7 0xFFFFFFFFFFFFFF DUP7 AND MUL OR DUP2 SSTORE PUSH2 0x19BB JUMP JUMPDEST DUP1 SLOAD PUSH1 0x1 PUSH1 0x50 SHL SWAP1 DIV PUSH4 0xFFFFFFFF AND DUP6 EQ PUSH2 0x19BB JUMPI PUSH1 0x0 DUP1 REVERT JUMPDEST PUSH2 0x19C4 DUP6 PUSH2 0x29DB JUMP JUMPDEST DUP2 SLOAD PUSH4 0xFFFFFFFF SWAP2 SWAP1 SWAP2 AND PUSH1 0x1 PUSH1 0x50 SHL MUL PUSH4 0xFFFFFFFF PUSH1 0x50 SHL NOT SWAP1 SWAP2 AND OR DUP2 SSTORE PUSH2 0x19F5 PUSH2 0x19F0 DUP8 PUSH2 0xA19 JUMP JUMPDEST PUSH2 0x29EE JUMP JUMPDEST DUP2 SLOAD PUSH10 0xFFFFFFFFFFFFFFFFFFFF NOT AND PUSH1 0x1 PUSH1 0x1 PUSH1 0x50 SHL SUB SWAP2 SWAP1 SWAP2 AND OR DUP1 DUP3 SSTORE PUSH2 0x1A3B SWAP1 PUSH2 0x1A36 SWAP1 DUP6 SWAP1 DUP13 SWAP1 DUP13 SWAP1 PUSH1 0x1 PUSH1 0xA8 SHL SWAP1 DIV PUSH1 0xA SWAP1 DUP2 SIGNEXTEND SWAP1 SIGNEXTEND DUP13 PUSH2 0x2A04 JUMP JUMPDEST PUSH2 0x2A27 JUMP JUMPDEST DUP2 SLOAD PUSH1 0xA SWAP2 SWAP1 SWAP2 SIGNEXTEND PUSH1 0x1 PUSH1 0x1 PUSH1 0x58 SHL SUB AND PUSH1 0x1 PUSH1 0xA8 SHL MUL PUSH1 0x1 PUSH1 0x1 PUSH1 0xA8 SHL SUB SWAP1 SWAP2 AND OR SWAP1 SSTORE POP POP POP POP POP POP POP POP JUMP JUMPDEST PUSH1 0x0 PUSH3 0xF4240 DUP3 PUSH1 0x26 DUP2 GT ISZERO PUSH2 0x1A7C JUMPI INVALID JUMPDEST ADD SWAP3 SWAP2 POP POP JUMP JUMPDEST PUSH1 0x0 DUP1 PUSH2 0x8DB PUSH1 0x2 PUSH2 0x1A6A JUMP JUMPDEST PUSH2 0x1A98 PUSH2 0x4050 JUMP JUMPDEST PUSH2 0x8DB DUP3 PUSH1 0x1 PUSH2 0x1D87 JUMP JUMPDEST DUP1 ISZERO PUSH2 0x1B35 JUMPI PUSH20 0x82AF49447D8A07E3BD95BD0D56F35241523FBAB1 PUSH1 0x1 PUSH1 0x1 PUSH1 0xA0 SHL SUB AND PUSH4 0xD0E30DB0 DUP4 PUSH1 0x40 MLOAD DUP3 PUSH4 0xFFFFFFFF AND PUSH1 0xE0 SHL DUP2 MSTORE PUSH1 0x4 ADD PUSH1 0x0 PUSH1 0x40 MLOAD DUP1 DUP4 SUB DUP2 DUP6 DUP9 DUP1 EXTCODESIZE ISZERO DUP1 ISZERO PUSH2 0x1AF8 JUMPI PUSH1 0x0 DUP1 REVERT JUMPDEST POP GAS CALL ISZERO DUP1 ISZERO PUSH2 0x1B0C JUMPI RETURNDATASIZE PUSH1 0x0 DUP1 RETURNDATACOPY RETURNDATASIZE PUSH1 0x0 REVERT JUMPDEST POP POP POP POP POP PUSH2 0x1B30 PUSH20 0x82AF49447D8A07E3BD95BD0D56F35241523FBAB1 DUP5 DUP5 PUSH2 0x2641 JUMP JUMPDEST PUSH2 0x6DA JUMP JUMPDEST PUSH1 0x40 MLOAD PUSH1 0x1 PUSH1 0x1 PUSH1 0xA0 SHL SUB DUP5 AND SWAP1 DUP4 ISZERO PUSH2 0x8FC MUL SWAP1 DUP5 SWAP1 PUSH1 0x0 DUP2 DUP2 DUP2 DUP6 DUP9 DUP9 CALL SWAP4 POP POP POP POP ISZERO DUP1 ISZERO PUSH2 0x8C7 JUMPI RETURNDATASIZE PUSH1 0x0 DUP1 RETURNDATACOPY RETURNDATASIZE PUSH1 0x0 REVERT JUMPDEST PUSH1 0x0 DUP1 DUP5 PUSH1 0x1 PUSH1 0x1 PUSH1 0xA0 SHL SUB AND PUSH4 0x70A08231 ADDRESS PUSH1 0x40 MLOAD DUP3 PUSH4 0xFFFFFFFF AND PUSH1 0xE0 SHL DUP2 MSTORE PUSH1 0x4 ADD DUP1 DUP3 PUSH1 0x1 PUSH1 0x1 PUSH1 0xA0 SHL SUB AND DUP2 MSTORE PUSH1 0x20 ADD SWAP2 POP POP PUSH1 0x20 PUSH1 0x40 MLOAD DUP1 DUP4 SUB DUP2 DUP7 DUP1 EXTCODESIZE ISZERO DUP1 ISZERO PUSH2 0x1BBB JUMPI PUSH1 0x0 DUP1 REVERT JUMPDEST POP GAS STATICCALL ISZERO DUP1 ISZERO PUSH2 0x1BCF JUMPI RETURNDATASIZE PUSH1 0x0 DUP1 RETURNDATACOPY RETURNDATASIZE PUSH1 0x0 REVERT JUMPDEST POP POP POP POP PUSH1 0x40 MLOAD RETURNDATASIZE PUSH1 0x20 DUP2 LT ISZERO PUSH2 0x1BE5 JUMPI PUSH1 0x0 DUP1 REVERT JUMPDEST POP MLOAD PUSH1 0x40 DUP1 MLOAD PUSH4 0x23B872DD PUSH1 0xE0 SHL DUP2 MSTORE PUSH1 0x1 PUSH1 0x1 PUSH1 0xA0 SHL SUB DUP8 DUP2 AND PUSH1 0x4 DUP4 ADD MSTORE ADDRESS PUSH1 0x24 DUP4 ADD MSTORE PUSH1 0x44 DUP3 ADD DUP8 SWAP1 MSTORE SWAP2 MLOAD SWAP3 SWAP4 POP SWAP1 DUP8 AND SWAP2 PUSH4 0x23B872DD SWAP2 PUSH1 0x64 DUP1 DUP3 ADD SWAP3 PUSH1 0x0 SWAP3 SWAP1 SWAP2 SWAP1 DUP3 SWAP1 SUB ADD DUP2 DUP4 DUP8 DUP1 EXTCODESIZE ISZERO DUP1 ISZERO PUSH2 0x1C42 JUMPI PUSH1 0x0 DUP1 REVERT JUMPDEST POP GAS CALL ISZERO DUP1 ISZERO PUSH2 0x1C56 JUMPI RETURNDATASIZE PUSH1 0x0 DUP1 RETURNDATACOPY RETURNDATASIZE PUSH1 0x0 REVERT JUMPDEST POP POP POP POP PUSH2 0x1C62 PUSH2 0x2A59 JUMP JUMPDEST PUSH1 0x0 DUP6 PUSH1 0x1 PUSH1 0x1 PUSH1 0xA0 SHL SUB AND PUSH4 0x70A08231 ADDRESS PUSH1 0x40 MLOAD DUP3 PUSH4 0xFFFFFFFF AND PUSH1 0xE0 SHL DUP2 MSTORE PUSH1 0x4 ADD DUP1 DUP3 PUSH1 0x1 PUSH1 0x1 PUSH1 0xA0 SHL SUB AND DUP2 MSTORE PUSH1 0x20 ADD SWAP2 POP POP PUSH1 0x20 PUSH1 0x40 MLOAD DUP1 DUP4 SUB DUP2 DUP7 DUP1 EXTCODESIZE ISZERO DUP1 ISZERO PUSH2 0x1CB1 JUMPI PUSH1 0x0 DUP1 REVERT JUMPDEST POP GAS STATICCALL ISZERO DUP1 ISZERO PUSH2 0x1CC5 JUMPI RETURNDATASIZE PUSH1 0x0 DUP1 RETURNDATACOPY RETURNDATASIZE PUSH1 0x0 REVERT JUMPDEST POP POP POP POP PUSH1 0x40 MLOAD RETURNDATASIZE PUSH1 0x20 DUP2 LT ISZERO PUSH2 0x1CDB JUMPI PUSH1 0x0 DUP1 REVERT JUMPDEST POP MLOAD SWAP1 POP PUSH2 0x1CE9 DUP2 DUP4 PUSH2 0x2AC6 JUMP JUMPDEST SWAP7 SWAP6 POP POP POP POP POP POP JUMP JUMPDEST PUSH1 0x0 DUP1 PUSH2 0x1D00 DUP5 DUP7 PUSH2 0x2ADB JUMP JUMPDEST SWAP1 POP PUSH2 0x1D0C DUP4 DUP3 PUSH2 0x2B0B JUMP JUMPDEST SWAP2 POP PUSH2 0x1D19 DUP8 DUP8 DUP5 PUSH2 0x2B2D JUMP JUMPDEST PUSH2 0x1D24 DUP7 DUP4 DUP4 PUSH2 0x2BAD JUMP JUMPDEST DUP4 MLOAD PUSH2 0x1D30 SWAP1 DUP7 PUSH2 0x2CB9 JUMP JUMPDEST POP SWAP6 SWAP5 POP POP POP POP POP JUMP JUMPDEST PUSH1 0x0 DUP1 PUSH2 0x8DB PUSH1 0x1D PUSH2 0x1A6A JUMP JUMPDEST PUSH1 0x8 DUP2 SWAP1 SHR PUSH1 0xFF SWAP1 SWAP2 AND SHL SWAP1 JUMP JUMPDEST PUSH1 0x0 PUSH2 0xDE9 PUSH15 0xC097CE7BC90715B34B9F1000000000 PUSH2 0x1D81 DUP6 PUSH1 0x0 ADD MLOAD DUP6 PUSH2 0xEFE SWAP1 SWAP2 SWAP1 PUSH4 0xFFFFFFFF AND JUMP JUMPDEST SWAP1 PUSH2 0x2D0E JUMP JUMPDEST PUSH2 0x1D8F PUSH2 0x4050 JUMP JUMPDEST PUSH1 0x0 PUSH2 0x1D99 PUSH2 0x2D3F JUMP JUMPDEST PUSH1 0x0 DUP6 DUP2 MSTORE PUSH1 0x20 DUP3 DUP2 MSTORE PUSH1 0x40 DUP1 DUP4 KECCAK256 DUP8 ISZERO ISZERO DUP5 MSTORE DUP3 MSTORE SWAP2 DUP3 SWAP1 KECCAK256 DUP3 MLOAD PUSH1 0xA0 DUP2 ADD DUP5 MSTORE DUP2 SLOAD PUSH1 0x1 PUSH1 0x1 PUSH1 0xA0 SHL SUB DUP2 AND DUP3 MSTORE PUSH1 0xFF PUSH1 0x1 PUSH1 0xA0 SHL DUP3 DIV DUP2 AND ISZERO ISZERO SWAP5 DUP4 ADD SWAP5 SWAP1 SWAP5 MSTORE PUSH1 0x1 PUSH1 0xB0 SHL DUP2 DIV DUP5 AND PUSH1 0xA EXP SWAP5 DUP3 ADD SWAP5 SWAP1 SWAP5 MSTORE SWAP4 SWAP5 POP SWAP3 SWAP2 PUSH1 0x60 DUP4 ADD SWAP2 PUSH1 0x1 PUSH1 0xA8 SHL SWAP1 SWAP2 DIV AND PUSH1 0x5 DUP2 GT ISZERO PUSH2 0x1E0E JUMPI INVALID JUMPDEST DUP2 MSTORE PUSH1 0x0 PUSH1 0x20 SWAP1 SWAP2 ADD MSTORE SWAP6 SWAP5 POP POP POP POP POP JUMP JUMPDEST DUP2 MLOAD PUSH1 0x40 MLOAD PUSH4 0xDB006A75 PUSH1 0xE0 SHL DUP2 MSTORE PUSH1 0x0 SWAP2 SELFBALANCE SWAP2 DUP4 SWAP2 PUSH1 0x1 PUSH1 0x1 PUSH1 0xA0 SHL SUB AND SWAP1 PUSH4 0xDB006A75 SWAP1 PUSH2 0x1E55 SWAP1 DUP8 SWAP1 PUSH1 0x4 ADD PUSH2 0x474B JUMP JUMPDEST PUSH1 0x20 PUSH1 0x40 MLOAD DUP1 DUP4 SUB DUP2 PUSH1 0x0 DUP8 DUP1 EXTCODESIZE ISZERO DUP1 ISZERO PUSH2 0x1E6F JUMPI PUSH1 0x0 DUP1 REVERT JUMPDEST POP GAS CALL ISZERO DUP1 ISZERO PUSH2 0x1E83 JUMPI RETURNDATASIZE PUSH1 0x0 DUP1 RETURNDATACOPY RETURNDATASIZE PUSH1 0x0 REVERT JUMPDEST POP POP POP POP PUSH1 0x40 MLOAD RETURNDATASIZE PUSH1 0x1F NOT PUSH1 0x1F DUP3 ADD AND DUP3 ADD DUP1 PUSH1 0x40 MSTORE POP DUP2 ADD SWAP1 PUSH2 0x1EA7 SWAP2 SWAP1 PUSH2 0x44B4 JUMP JUMPDEST SWAP1 POP DUP1 ISZERO PUSH2 0x1EC7 JUMPI PUSH1 0x40 MLOAD PUSH3 0x461BCD PUSH1 0xE5 SHL DUP2 MSTORE PUSH1 0x4 ADD PUSH2 0x24A SWAP1 PUSH2 0x47A2 JUMP JUMPDEST SELFBALANCE PUSH2 0x1CE9 DUP2 DUP5 PUSH2 0x2AC6 JUMP JUMPDEST PUSH1 0x0 DUP1 DUP4 PUSH1 0x0 ADD MLOAD PUSH1 0x1 PUSH1 0x1 PUSH1 0xA0 SHL SUB AND PUSH4 0x70A08231 ADDRESS PUSH1 0x40 MLOAD DUP3 PUSH4 0xFFFFFFFF AND PUSH1 0xE0 SHL DUP2 MSTORE PUSH1 0x4 ADD PUSH2 0x1F05 SWAP2 SWAP1 PUSH2 0x45F8 JUMP JUMPDEST PUSH1 0x20 PUSH1 0x40 MLOAD DUP1 DUP4 SUB DUP2 DUP7 DUP1 EXTCODESIZE ISZERO DUP1 ISZERO PUSH2 0x1F1D JUMPI PUSH1 0x0 DUP1 REVERT JUMPDEST POP GAS STATICCALL ISZERO DUP1 ISZERO PUSH2 0x1F31 JUMPI RETURNDATASIZE PUSH1 0x0 DUP1 RETURNDATACOPY RETURNDATASIZE PUSH1 0x0 REVERT JUMPDEST POP POP POP POP PUSH1 0x40 MLOAD RETURNDATASIZE PUSH1 0x1F NOT PUSH1 0x1F DUP3 ADD AND DUP3 ADD DUP1 PUSH1 0x40 MSTORE POP DUP2 ADD SWAP1 PUSH2 0x1F55 SWAP2 SWAP1 PUSH2 0x44B4 JUMP JUMPDEST SWAP1 POP PUSH1 0x0 DUP6 PUSH1 0x0 ADD MLOAD PUSH1 0x1 PUSH1 0x1 PUSH1 0xA0 SHL SUB AND PUSH4 0xDB006A75 DUP6 PUSH1 0x40 MLOAD DUP3 PUSH4 0xFFFFFFFF AND PUSH1 0xE0 SHL DUP2 MSTORE PUSH1 0x4 ADD PUSH2 0x1F89 SWAP2 SWAP1 PUSH2 0x474B JUMP JUMPDEST PUSH1 0x20 PUSH1 0x40 MLOAD DUP1 DUP4 SUB DUP2 PUSH1 0x0 DUP8 DUP1 EXTCODESIZE ISZERO DUP1 ISZERO PUSH2 0x1FA3 JUMPI PUSH1 0x0 DUP1 REVERT JUMPDEST POP GAS CALL ISZERO DUP1 ISZERO PUSH2 0x1FB7 JUMPI RETURNDATASIZE PUSH1 0x0 DUP1 RETURNDATACOPY RETURNDATASIZE PUSH1 0x0 REVERT JUMPDEST POP POP POP POP PUSH1 0x40 MLOAD RETURNDATASIZE PUSH1 0x1F NOT PUSH1 0x1F DUP3 ADD AND DUP3 ADD DUP1 PUSH1 0x40 MSTORE POP DUP2 ADD SWAP1 PUSH2 0x1FDB SWAP2 SWAP1 PUSH2 0x44B4 JUMP JUMPDEST SWAP1 POP DUP1 ISZERO PUSH2 0x1FFB JUMPI PUSH1 0x40 MLOAD PUSH3 0x461BCD PUSH1 0xE5 SHL DUP2 MSTORE PUSH1 0x4 ADD PUSH2 0x24A SWAP1 PUSH2 0x47A2 JUMP JUMPDEST DUP5 MLOAD PUSH1 0x40 MLOAD PUSH4 0x70A08231 PUSH1 0xE0 SHL DUP2 MSTORE PUSH1 0x0 SWAP2 PUSH1 0x1 PUSH1 0x1 PUSH1 0xA0 SHL SUB AND SWAP1 PUSH4 0x70A08231 SWAP1 PUSH2 0x202B SWAP1 ADDRESS SWAP1 PUSH1 0x4 ADD PUSH2 0x45F8 JUMP JUMPDEST PUSH1 0x20 PUSH1 0x40 MLOAD DUP1 DUP4 SUB DUP2 DUP7 DUP1 EXTCODESIZE ISZERO DUP1 ISZERO PUSH2 0x2043 JUMPI PUSH1 0x0 DUP1 REVERT JUMPDEST POP GAS STATICCALL ISZERO DUP1 ISZERO PUSH2 0x2057 JUMPI RETURNDATASIZE PUSH1 0x0 DUP1 RETURNDATACOPY RETURNDATASIZE PUSH1 0x0 REVERT JUMPDEST POP POP POP POP PUSH1 0x40 MLOAD RETURNDATASIZE PUSH1 0x1F NOT PUSH1 0x1F DUP3 ADD AND DUP3 ADD DUP1 PUSH1 0x40 MSTORE POP DUP2 ADD SWAP1 PUSH2 0x207B SWAP2 SWAP1 PUSH2 0x44B4 JUMP JUMPDEST SWAP1 POP PUSH2 0x2087 DUP2 DUP5 PUSH2 0x2AC6 JUMP JUMPDEST SWAP8 SWAP7 POP POP POP POP POP POP POP JUMP JUMPDEST PUSH2 0x209A PUSH2 0x407F JUMP JUMPDEST PUSH1 0x0 PUSH2 0x20A4 PUSH2 0x1D3A JUMP JUMPDEST PUSH2 0xFFFF SWAP4 DUP5 AND PUSH1 0x0 SWAP1 DUP2 MSTORE PUSH1 0x20 SWAP2 DUP3 MSTORE PUSH1 0x40 SWAP1 DUP2 SWAP1 KECCAK256 DUP1 SLOAD PUSH5 0xFFFFFFFFFF DUP2 AND DUP7 MSTORE PUSH1 0x1 PUSH1 0x28 SHL DUP2 DIV PUSH1 0x1 PUSH1 0x1 PUSH1 0x58 SHL SUB SWAP1 DUP2 AND SWAP5 DUP8 ADD SWAP5 SWAP1 SWAP5 MSTORE PUSH1 0x1 DUP3 ADD SLOAD DUP5 AND SWAP3 DUP7 ADD SWAP3 SWAP1 SWAP3 MSTORE PUSH1 0x1 PUSH1 0xD8 SHL DUP3 DIV PUSH4 0xFFFFFFFF AND PUSH1 0x60 DUP7 ADD MSTORE PUSH1 0x1 PUSH1 0x80 SHL SWAP1 SWAP2 DIV SWAP1 SWAP2 AND PUSH1 0x80 DUP5 ADD MSTORE PUSH1 0x2 ADD SLOAD PUSH1 0x1 PUSH1 0x1 PUSH1 0x50 SHL SUB DUP1 DUP3 AND PUSH1 0xA0 DUP6 ADD MSTORE PUSH1 0x1 PUSH1 0x50 SHL DUP3 DIV DUP2 AND PUSH1 0xC0 DUP6 ADD MSTORE PUSH1 0x1 PUSH1 0xA0 SHL DUP3 DIV AND PUSH1 0xE0 DUP5 ADD MSTORE PUSH1 0x1 PUSH1 0xF0 SHL SWAP1 DIV PUSH1 0xFF AND PUSH2 0x12C MUL SWAP1 SWAP3 AND PUSH2 0x100 DUP3 ADD MSTORE SWAP2 SWAP1 POP JUMP JUMPDEST PUSH1 0x0 DUP1 PUSH2 0x2166 DUP4 PUSH2 0x2D4C JUMP JUMPDEST PUSH1 0x1 PUSH1 0x1 PUSH1 0xA0 SHL SUB AND PUSH4 0xEF81F216 PUSH1 0x40 MLOAD DUP2 PUSH4 0xFFFFFFFF AND PUSH1 0xE0 SHL DUP2 MSTORE PUSH1 0x4 ADD PUSH1 0x40 DUP1 MLOAD DUP1 DUP4 SUB DUP2 PUSH1 0x0 DUP8 DUP1 EXTCODESIZE ISZERO DUP1 ISZERO PUSH2 0x219F JUMPI PUSH1 0x0 DUP1 REVERT JUMPDEST POP GAS CALL ISZERO DUP1 ISZERO PUSH2 0x21B3 JUMPI RETURNDATASIZE PUSH1 0x0 DUP1 RETURNDATACOPY RETURNDATASIZE PUSH1 0x0 REVERT JUMPDEST POP POP POP POP PUSH1 0x40 MLOAD RETURNDATASIZE PUSH1 0x1F NOT PUSH1 0x1F DUP3 ADD AND DUP3 ADD DUP1 PUSH1 0x40 MSTORE POP DUP2 ADD SWAP1 PUSH2 0x8F4 SWAP2 SWAP1 PUSH2 0x45D5 JUMP JUMPDEST PUSH2 0x21DF PUSH2 0x407F JUMP JUMPDEST PUSH1 0x0 DUP1 PUSH1 0x0 PUSH2 0x21EF DUP9 DUP7 DUP10 PUSH2 0x2D7C JUMP JUMPDEST PUSH1 0xC0 DUP12 ADD SWAP3 SWAP1 SWAP3 MSTORE PUSH1 0xE0 DUP11 ADD SWAP3 SWAP1 SWAP3 MSTORE PUSH1 0x20 DUP10 ADD MLOAD SWAP2 SWAP4 POP SWAP2 POP PUSH2 0x2213 SWAP1 DUP4 PUSH2 0x2E87 JUMP JUMPDEST PUSH1 0x20 DUP9 ADD MSTORE PUSH1 0x80 DUP8 ADD MLOAD PUSH1 0x0 SWAP1 ISZERO PUSH2 0x2241 JUMPI PUSH1 0x80 DUP9 ADD MLOAD PUSH2 0x223E SWAP1 PUSH2 0x2238 DUP10 DUP3 PUSH2 0x2AC6 JUMP JUMPDEST SWAP1 PUSH2 0x2E99 JUMP JUMPDEST SWAP1 POP JUMPDEST PUSH2 0x2261 PUSH2 0x2256 PUSH8 0xDE0B6B3A7640000 DUP4 PUSH2 0x2E87 JUMP JUMPDEST PUSH1 0xA0 DUP11 ADD MLOAD SWAP1 PUSH2 0x2EB6 JUMP JUMPDEST PUSH1 0xA0 DUP10 ADD MSTORE POP POP PUSH1 0x80 DUP7 ADD SWAP5 SWAP1 SWAP5 MSTORE POP POP DUP3 MSTORE SWAP1 SWAP3 SWAP1 SWAP2 POP JUMP JUMPDEST PUSH1 0x0 PUSH2 0x2285 PUSH2 0x1D3A JUMP JUMPDEST PUSH1 0x0 DUP6 PUSH2 0xFFFF AND DUP2 MSTORE PUSH1 0x20 ADD SWAP1 DUP2 MSTORE PUSH1 0x20 ADD PUSH1 0x0 KECCAK256 SWAP1 POP PUSH2 0x22A9 DUP3 PUSH1 0x0 ADD MLOAD PUSH2 0x2ED3 JUMP JUMPDEST DUP2 SLOAD PUSH5 0xFFFFFFFFFF NOT AND PUSH5 0xFFFFFFFFFF SWAP2 SWAP1 SWAP2 AND OR DUP2 SSTORE PUSH1 0xA0 DUP3 ADD MLOAD PUSH2 0x22CE SWAP1 PUSH2 0x29EE JUMP JUMPDEST PUSH1 0x2 DUP3 ADD DUP1 SLOAD PUSH10 0xFFFFFFFFFFFFFFFFFFFF NOT AND PUSH1 0x1 PUSH1 0x1 PUSH1 0x50 SHL SUB SWAP3 SWAP1 SWAP3 AND SWAP2 SWAP1 SWAP2 OR SWAP1 SSTORE PUSH1 0xC0 DUP3 ADD MLOAD PUSH2 0x2301 SWAP1 PUSH2 0x29EE JUMP JUMPDEST DUP2 PUSH1 0x2 ADD PUSH1 0xA PUSH2 0x100 EXP DUP2 SLOAD DUP2 PUSH1 0x1 PUSH1 0x1 PUSH1 0x50 SHL SUB MUL NOT AND SWAP1 DUP4 PUSH1 0x1 PUSH1 0x1 PUSH1 0x50 SHL SUB AND MUL OR SWAP1 SSTORE POP PUSH2 0x2336 DUP3 PUSH1 0xE0 ADD MLOAD PUSH2 0x29EE JUMP JUMPDEST DUP2 PUSH1 0x2 ADD PUSH1 0x14 PUSH2 0x100 EXP DUP2 SLOAD DUP2 PUSH1 0x1 PUSH1 0x1 PUSH1 0x50 SHL SUB MUL NOT AND SWAP1 DUP4 PUSH1 0x1 PUSH1 0x1 PUSH1 0x50 SHL SUB AND MUL OR SWAP1 SSTORE POP PUSH2 0x236B DUP3 PUSH1 0x20 ADD MLOAD PUSH2 0x2EE7 JUMP JUMPDEST DUP2 SLOAD PUSH1 0x1 PUSH1 0x1 PUSH1 0x58 SHL SUB SWAP2 SWAP1 SWAP2 AND PUSH1 0x1 PUSH1 0x28 SHL MUL PUSH16 0xFFFFFFFFFFFFFFFFFFFFFF0000000000 NOT SWAP1 SWAP2 AND OR DUP2 SSTORE PUSH1 0x40 DUP3 ADD MLOAD PUSH2 0x23A5 SWAP1 PUSH2 0x2EE7 JUMP JUMPDEST PUSH1 0x1 DUP3 ADD DUP1 SLOAD PUSH11 0xFFFFFFFFFFFFFFFFFFFFFF NOT AND PUSH1 0x1 PUSH1 0x1 PUSH1 0x58 SHL SUB SWAP3 SWAP1 SWAP3 AND SWAP2 SWAP1 SWAP2 OR SWAP1 SSTORE PUSH1 0x80 DUP3 ADD MLOAD PUSH2 0x23D9 SWAP1 PUSH2 0x2EE7 JUMP JUMPDEST DUP2 SLOAD PUSH1 0x1 PUSH1 0x1 PUSH1 0x58 SHL SUB SWAP2 SWAP1 SWAP2 AND PUSH1 0x1 PUSH1 0x80 SHL MUL PUSH11 0xFFFFFFFFFFFFFFFFFFFFFF PUSH1 0x80 SHL NOT SWAP1 SWAP2 AND OR DUP2 SSTORE PUSH1 0x60 DUP3 ADD MLOAD PUSH2 0x2411 SWAP1 PUSH2 0x29DB JUMP JUMPDEST DUP2 SLOAD PUSH4 0xFFFFFFFF SWAP2 SWAP1 SWAP2 AND PUSH1 0x1 PUSH1 0xD8 SHL MUL PUSH4 0xFFFFFFFF PUSH1 0xD8 SHL NOT SWAP1 SWAP2 AND OR DUP2 SSTORE DUP3 ISZERO PUSH2 0x245D JUMPI PUSH1 0x0 PUSH2 0x2442 DUP5 PUSH2 0xB55 JUMP JUMPDEST SWAP1 POP PUSH2 0x244E DUP6 DUP3 PUSH2 0x2EFD JUMP JUMPDEST PUSH2 0x245B PUSH2 0xFEE DUP7 DUP4 PUSH2 0x2B2D JUMP JUMPDEST POP JUMPDEST DUP4 PUSH2 0xFFFF AND PUSH32 0xEF25641E225E493886510CA1AD6584FA7B442B9FEA820A29D1DE3CE27D270FD2 DUP4 PUSH1 0xA0 ADD MLOAD DUP5 PUSH1 0xC0 ADD MLOAD DUP6 PUSH1 0xE0 ADD MLOAD PUSH1 0x40 MLOAD PUSH2 0x24A1 SWAP4 SWAP3 SWAP2 SWAP1 PUSH2 0x4951 JUMP JUMPDEST PUSH1 0x40 MLOAD DUP1 SWAP2 SUB SWAP1 LOG2 POP POP POP POP JUMP JUMPDEST PUSH1 0x0 DUP3 PUSH2 0x24BE JUMPI POP PUSH1 0x0 PUSH2 0x8DB JUMP JUMPDEST DUP3 DUP3 MUL DUP3 DUP5 DUP3 DUP2 PUSH2 0x24CB JUMPI INVALID JUMPDEST DIV EQ PUSH2 0xDE9 JUMPI PUSH1 0x0 DUP1 REVERT JUMPDEST PUSH1 0x0 DUP1 PUSH2 0x8DB PUSH1 0x6 PUSH2 0x1A6A JUMP JUMPDEST PUSH1 0x0 DUP1 DUP3 SLT PUSH2 0x24F3 JUMPI POP DUP1 PUSH2 0x8DB JUMP JUMPDEST DUP3 MLOAD PUSH1 0x20 DUP5 ADD MLOAD PUSH2 0x250A SWAP2 SWAP1 PUSH2 0x1D81 SWAP1 DUP6 SWAP1 PUSH2 0xEFE JUMP JUMPDEST SWAP1 POP PUSH2 0x8DB JUMP JUMPDEST PUSH1 0x0 PUSH4 0x5F5E100 DUP4 PUSH1 0x40 ADD MLOAD EQ ISZERO PUSH2 0x252A JUMPI POP DUP1 PUSH2 0x8DB JUMP JUMPDEST PUSH2 0xDE9 PUSH4 0x5F5E100 PUSH2 0x1D81 DUP6 PUSH1 0x40 ADD MLOAD DUP6 PUSH2 0xEFE SWAP1 SWAP2 SWAP1 PUSH4 0xFFFFFFFF AND JUMP JUMPDEST PUSH1 0x0 PUSH2 0x2553 PUSH2 0x2F34 JUMP JUMPDEST DUP4 MLOAD PUSH1 0x1 PUSH1 0x1 PUSH1 0xA0 SHL SUB AND PUSH1 0x0 SWAP1 DUP2 MSTORE PUSH1 0x20 DUP3 SWAP1 MSTORE PUSH1 0x40 SWAP1 KECCAK256 SLOAD SWAP1 SWAP2 POP DUP1 DUP4 GT PUSH2 0x257E JUMPI POP POP PUSH2 0x6DA JUMP JUMPDEST PUSH1 0x0 PUSH2 0x2589 DUP7 PUSH2 0x2D4C JUMP JUMPDEST SWAP1 POP PUSH1 0x0 DUP2 PUSH1 0x1 PUSH1 0x1 PUSH1 0xA0 SHL SUB AND PUSH4 0xB5E4DA23 DUP5 DUP8 SUB PUSH1 0x40 MLOAD DUP3 PUSH4 0xFFFFFFFF AND PUSH1 0xE0 SHL DUP2 MSTORE PUSH1 0x4 ADD PUSH2 0x25BB SWAP2 SWAP1 PUSH2 0x474B JUMP JUMPDEST PUSH1 0x0 PUSH1 0x40 MLOAD DUP1 DUP4 SUB DUP2 DUP7 DUP1 EXTCODESIZE ISZERO DUP1 ISZERO PUSH2 0x25D3 JUMPI PUSH1 0x0 DUP1 REVERT JUMPDEST POP GAS STATICCALL ISZERO DUP1 ISZERO PUSH2 0x25E7 JUMPI RETURNDATASIZE PUSH1 0x0 DUP1 RETURNDATACOPY RETURNDATASIZE PUSH1 0x0 REVERT JUMPDEST POP POP POP POP PUSH1 0x40 MLOAD RETURNDATASIZE PUSH1 0x0 DUP3 RETURNDATACOPY PUSH1 0x1F RETURNDATASIZE SWAP1 DUP2 ADD PUSH1 0x1F NOT AND DUP3 ADD PUSH1 0x40 MSTORE PUSH2 0x260F SWAP2 SWAP1 DUP2 ADD SWAP1 PUSH2 0x438A JUMP JUMPDEST SWAP1 POP PUSH1 0x0 PUSH2 0x261D DUP8 DUP4 PUSH2 0x2F41 JUMP JUMPDEST SWAP2 POP PUSH2 0x262B SWAP1 POP DUP5 DUP3 PUSH2 0x2E87 JUMP JUMPDEST DUP7 GT ISZERO PUSH2 0x2637 JUMPI PUSH1 0x0 DUP1 REVERT JUMPDEST POP POP POP POP POP POP POP POP JUMP JUMPDEST DUP3 PUSH1 0x1 PUSH1 0x1 PUSH1 0xA0 SHL SUB AND PUSH4 0xA9059CBB DUP4 DUP4 PUSH1 0x40 MLOAD DUP4 PUSH4 0xFFFFFFFF AND PUSH1 0xE0 SHL DUP2 MSTORE PUSH1 0x4 ADD DUP1 DUP4 PUSH1 0x1 PUSH1 0x1 PUSH1 0xA0 SHL SUB AND DUP2 MSTORE PUSH1 0x20 ADD DUP3 DUP2 MSTORE PUSH1 0x20 ADD SWAP3 POP POP POP PUSH1 0x0 PUSH1 0x40 MLOAD DUP1 DUP4 SUB DUP2 PUSH1 0x0 DUP8 DUP1 EXTCODESIZE ISZERO DUP1 ISZERO PUSH2 0x2698 JUMPI PUSH1 0x0 DUP1 REVERT JUMPDEST POP GAS CALL ISZERO DUP1 ISZERO PUSH2 0x26AC JUMPI RETURNDATASIZE PUSH1 0x0 DUP1 RETURNDATACOPY RETURNDATASIZE PUSH1 0x0 REVERT JUMPDEST POP POP POP POP PUSH2 0x6DA PUSH2 0x2A59 JUMP JUMPDEST PUSH1 0x0 DUP1 PUSH2 0x26C3 PUSH2 0x3158 JUMP JUMPDEST PUSH1 0x0 SWAP4 DUP5 MSTORE PUSH1 0x20 MSTORE POP POP PUSH1 0x40 SWAP1 KECCAK256 SLOAD PUSH1 0x1 PUSH1 0x1 PUSH1 0xA0 SHL SUB AND SWAP1 JUMP JUMPDEST PUSH1 0x0 DUP1 PUSH1 0x0 DUP1 PUSH2 0x26EC PUSH2 0x3165 JUMP JUMPDEST PUSH1 0x1 PUSH1 0x1 PUSH1 0xA0 SHL SUB SWAP6 SWAP1 SWAP6 AND PUSH1 0x0 SWAP1 DUP2 MSTORE PUSH1 0x20 SWAP6 SWAP1 SWAP6 MSTORE POP POP PUSH1 0x40 SWAP1 SWAP3 KECCAK256 SLOAD PUSH1 0x1 PUSH1 0x1 PUSH1 0x60 SHL SUB DUP2 AND SWAP4 PUSH1 0x1 PUSH1 0x60 SHL DUP3 DIV PUSH1 0x1 PUSH1 0x1 PUSH1 0x80 SHL SUB AND SWAP4 POP PUSH1 0x1 PUSH1 0xE0 SHL SWAP1 SWAP2 DIV PUSH4 0xFFFFFFFF AND SWAP2 POP JUMP JUMPDEST PUSH1 0x0 DUP1 PUSH1 0x0 PUSH2 0x2749 DUP7 DUP6 PUSH2 0x3172 JUMP JUMPDEST POP SWAP2 POP SWAP2 POP PUSH1 0x0 PUSH2 0x2758 PUSH2 0x3165 JUMP JUMPDEST PUSH1 0x1 PUSH1 0x1 PUSH1 0xA0 SHL SUB DUP9 AND PUSH1 0x0 SWAP1 DUP2 MSTORE PUSH1 0x20 DUP3 SWAP1 MSTORE PUSH1 0x40 DUP2 KECCAK256 SWAP2 SWAP3 POP PUSH2 0x277D DUP6 DUP10 PUSH2 0x123A JUMP JUMPDEST SWAP1 POP DUP1 PUSH1 0x0 SGT ISZERO DUP1 ISZERO PUSH2 0x2796 JUMPI POP PUSH1 0x1 PUSH1 0x1 PUSH1 0x60 SHL SUB DUP2 LT JUMPDEST PUSH2 0x279F JUMPI PUSH1 0x0 DUP1 REVERT JUMPDEST DUP2 SLOAD PUSH12 0xFFFFFFFFFFFFFFFFFFFFFFFF NOT AND PUSH1 0x1 PUSH1 0x1 PUSH1 0x60 SHL SUB DUP3 AND OR PUSH16 0xFFFFFFFFFFFFFFFFFFFFFFFFFFFFFFFF PUSH1 0x60 SHL NOT AND PUSH1 0x1 PUSH1 0x60 SHL PUSH1 0x1 PUSH1 0x1 PUSH1 0x80 SHL SUB DUP7 AND MUL OR DUP3 SSTORE PUSH4 0xFFFFFFFF DUP8 LT PUSH2 0x27F4 JUMPI PUSH1 0x0 DUP1 REVERT JUMPDEST POP DUP1 SLOAD PUSH4 0xFFFFFFFF DUP8 AND PUSH1 0x1 PUSH1 0xE0 SHL MUL PUSH1 0x1 PUSH1 0x1 PUSH1 0xE0 SHL SUB SWAP1 SWAP2 AND OR SWAP1 SSTORE POP SWAP2 POP POP SWAP4 SWAP3 POP POP POP JUMP JUMPDEST PUSH1 0xE0 DUP5 ADD MLOAD PUSH1 0x0 SWAP1 ISZERO PUSH2 0x28DE JUMPI PUSH20 0x0 PUSH4 0xE0C01A72 DUP6 PUSH2 0x2852 DUP9 PUSH1 0x40 ADD MLOAD PUSH2 0xA19 JUMP JUMPDEST DUP9 PUSH1 0xE0 ADD MLOAD DUP10 PUSH2 0x100 ADD MLOAD PUSH1 0x40 MLOAD DUP6 PUSH4 0xFFFFFFFF AND PUSH1 0xE0 SHL DUP2 MSTORE PUSH1 0x4 ADD PUSH2 0x287C SWAP5 SWAP4 SWAP3 SWAP2 SWAP1 PUSH2 0x471A JUMP JUMPDEST PUSH1 0x20 PUSH1 0x40 MLOAD DUP1 DUP4 SUB DUP2 DUP7 DUP1 EXTCODESIZE ISZERO DUP1 ISZERO PUSH2 0x2894 JUMPI PUSH1 0x0 DUP1 REVERT JUMPDEST POP GAS DELEGATECALL ISZERO DUP1 ISZERO PUSH2 0x28A8 JUMPI RETURNDATASIZE PUSH1 0x0 DUP1 RETURNDATACOPY RETURNDATASIZE PUSH1 0x0 REVERT JUMPDEST POP POP POP POP PUSH1 0x40 MLOAD RETURNDATASIZE PUSH1 0x1F NOT PUSH1 0x1F DUP3 ADD AND DUP3 ADD DUP1 PUSH1 0x40 MSTORE POP DUP2 ADD SWAP1 PUSH2 0x28CC SWAP2 SWAP1 PUSH2 0x44B4 JUMP JUMPDEST PUSH1 0x0 PUSH1 0xE0 DUP8 ADD DUP2 SWAP1 MSTORE PUSH2 0x100 DUP8 ADD MSTORE SWAP1 POP JUMPDEST PUSH2 0x2920 PUSH2 0x2919 DUP7 PUSH2 0x100 ADD MLOAD PUSH2 0x2913 PUSH8 0xDE0B6B3A7640000 PUSH2 0x290D DUP9 PUSH2 0x2907 DUP13 PUSH1 0x40 ADD MLOAD PUSH2 0xA19 JUMP JUMPDEST SWAP1 PUSH2 0x24AF JUMP JUMPDEST SWAP1 PUSH2 0x3208 JUMP JUMPDEST SWAP1 PUSH2 0x2AC6 JUMP JUMPDEST DUP3 SWAP1 PUSH2 0x2E87 JUMP JUMPDEST SWAP1 POP PUSH2 0x2938 PUSH8 0xDE0B6B3A7640000 PUSH2 0x290D DUP5 DUP7 PUSH2 0x24AF JUMP JUMPDEST DUP6 PUSH2 0x100 ADD DUP2 DUP2 MSTORE POP POP SWAP5 SWAP4 POP POP POP POP JUMP JUMPDEST PUSH1 0x0 DUP1 PUSH2 0x2955 PUSH2 0x1A83 JUMP JUMPDEST PUSH1 0x1 PUSH1 0x1 PUSH1 0xA0 SHL SUB DUP5 AND PUSH1 0x0 SWAP1 DUP2 MSTORE PUSH1 0x20 DUP3 SWAP1 MSTORE PUSH1 0x40 SWAP1 KECCAK256 DUP1 SLOAD SWAP2 SWAP3 POP SWAP1 PUSH1 0x1 PUSH1 0xF8 SHL SWAP1 DIV PUSH1 0xFF AND ISZERO PUSH2 0x29B1 JUMPI PUSH2 0x298A PUSH2 0x3227 JUMP JUMPDEST PUSH1 0x1 PUSH1 0x1 PUSH1 0xA0 SHL SUB DUP1 DUP7 AND PUSH1 0x0 SWAP1 DUP2 MSTORE PUSH1 0x20 SWAP3 SWAP1 SWAP3 MSTORE PUSH1 0x40 SWAP1 SWAP2 KECCAK256 SLOAD AND SWAP3 POP PUSH2 0x7E2 SWAP2 POP POP JUMP JUMPDEST PUSH1 0x0 SWAP3 POP POP POP PUSH2 0x7E2 JUMP JUMPDEST PUSH2 0x668 PUSH20 0x19BE259BC299F3F653688C7655C87F998BC7BC1 DUP4 DUP4 PUSH2 0x2641 JUMP JUMPDEST PUSH1 0x0 PUSH4 0xFFFFFFFF DUP3 GT ISZERO PUSH2 0xA28 JUMPI PUSH1 0x0 DUP1 REVERT JUMPDEST PUSH1 0x0 PUSH1 0x1 PUSH1 0x1 PUSH1 0x50 SHL SUB DUP3 GT ISZERO PUSH2 0xA28 JUMPI PUSH1 0x0 DUP1 REVERT JUMPDEST PUSH1 0x0 PUSH2 0x2A10 DUP7 DUP4 PUSH2 0x3234 JUMP JUMPDEST SWAP1 POP PUSH2 0x182F DUP7 DUP7 DUP7 PUSH2 0x2A22 DUP8 DUP7 PUSH2 0x3273 JUMP JUMPDEST PUSH2 0x32FA JUMP JUMPDEST PUSH1 0x0 PUSH11 0x7FFFFFFFFFFFFFFFFFFFFF NOT DUP3 SLT DUP1 ISZERO SWAP1 PUSH2 0x2A50 JUMPI POP PUSH11 0x7FFFFFFFFFFFFFFFFFFFFF DUP3 SGT ISZERO JUMPDEST PUSH2 0xA28 JUMPI PUSH1 0x0 DUP1 REVERT JUMPDEST PUSH1 0x0 PUSH2 0x2A63 PUSH2 0x40CB JUMP JUMPDEST RETURNDATASIZE DUP1 ISZERO PUSH2 0x2A77 JUMPI PUSH1 0x20 DUP2 EQ PUSH2 0x2A80 JUMPI PUSH1 0x0 DUP1 REVERT JUMPDEST PUSH1 0x1 SWAP3 POP PUSH2 0x2A8B JUMP JUMPDEST PUSH1 0x20 PUSH1 0x0 DUP4 RETURNDATACOPY DUP2 MLOAD SWAP3 POP JUMPDEST POP DUP2 PUSH2 0x668 JUMPI PUSH1 0x40 DUP1 MLOAD PUSH3 0x461BCD PUSH1 0xE5 SHL DUP2 MSTORE PUSH1 0x20 PUSH1 0x4 DUP3 ADD MSTORE PUSH1 0x5 PUSH1 0x24 DUP3 ADD MSTORE PUSH5 0x455243323 PUSH1 0xDC SHL PUSH1 0x44 DUP3 ADD MSTORE SWAP1 MLOAD SWAP1 DUP2 SWAP1 SUB PUSH1 0x64 ADD SWAP1 REVERT JUMPDEST PUSH1 0x0 DUP3 DUP3 GT ISZERO PUSH2 0x2AD5 JUMPI PUSH1 0x0 DUP1 REVERT JUMPDEST POP SWAP1 SUB SWAP1 JUMP JUMPDEST PUSH1 0x0 PUSH4 0x5F5E100 DUP4 PUSH1 0x40 ADD MLOAD EQ ISZERO PUSH2 0x2AF4 JUMPI POP DUP1 PUSH2 0x8DB JUMP JUMPDEST PUSH1 0x40 DUP4 ADD MLOAD PUSH2 0xDE9 SWAP1 PUSH2 0x1D81 DUP5 PUSH4 0x5F5E100 PUSH2 0xEFE JUMP JUMPDEST DUP2 MLOAD PUSH1 0x0 SWAP1 PUSH2 0xDE9 SWAP1 PUSH2 0x1D81 DUP5 PUSH15 0xC097CE7BC90715B34B9F1000000000 PUSH2 0xEFE JUMP JUMPDEST PUSH1 0x0 PUSH2 0x2B37 PUSH2 0x332E JUMP JUMPDEST PUSH2 0xFFFF DUP5 AND PUSH1 0x0 SWAP1 DUP2 MSTORE PUSH1 0x20 SWAP2 SWAP1 SWAP2 MSTORE PUSH1 0x40 SWAP1 DUP2 SWAP1 KECCAK256 SLOAD SWAP1 MLOAD PUSH4 0xAD1C095D PUSH1 0xE0 SHL DUP2 MSTORE PUSH1 0x1 PUSH1 0x1 PUSH1 0xA0 SHL SUB SWAP1 SWAP2 AND SWAP2 POP DUP2 SWAP1 PUSH4 0xAD1C095D SWAP1 PUSH2 0x2B7F SWAP1 DUP8 SWAP1 DUP7 SWAP1 PUSH1 0x4 ADD PUSH2 0x4637 JUMP JUMPDEST PUSH1 0x0 PUSH1 0x40 MLOAD DUP1 DUP4 SUB DUP2 PUSH1 0x0 DUP8 DUP1 EXTCODESIZE ISZERO DUP1 ISZERO PUSH2 0x2B99 JUMPI PUSH1 0x0 DUP1 REVERT JUMPDEST POP GAS CALL ISZERO DUP1 ISZERO PUSH2 0x2637 JUMPI RETURNDATASIZE PUSH1 0x0 DUP1 RETURNDATACOPY RETURNDATASIZE PUSH1 0x0 REVERT JUMPDEST PUSH1 0x0 PUSH2 0x2BB7 PUSH2 0x1D3A JUMP JUMPDEST PUSH2 0xFFFF DUP6 AND PUSH1 0x0 SWAP1 DUP2 MSTORE PUSH1 0x20 SWAP2 SWAP1 SWAP2 MSTORE PUSH1 0x40 SWAP1 KECCAK256 DUP1 SLOAD SWAP1 SWAP2 POP PUSH5 0xFFFFFFFFFF AND TIMESTAMP EQ PUSH2 0x2BE2 JUMPI PUSH1 0x0 DUP1 REVERT JUMPDEST DUP1 SLOAD PUSH1 0x0 SWAP1 PUSH2 0x2C01 SWAP1 PUSH1 0x1 PUSH1 0x28 SHL SWAP1 DIV PUSH1 0x1 PUSH1 0x1 PUSH1 0x58 SHL SUB AND DUP6 PUSH2 0x123A JUMP JUMPDEST DUP3 SLOAD SWAP1 SWAP2 POP PUSH1 0x0 SWAP1 PUSH2 0x2C23 SWAP1 PUSH1 0x1 PUSH1 0x80 SHL SWAP1 DIV PUSH1 0x1 PUSH1 0x1 PUSH1 0x58 SHL SUB AND DUP6 PUSH2 0x123A JUMP JUMPDEST SWAP1 POP DUP1 PUSH3 0x4C4B40 SGT ISZERO PUSH2 0x2C35 JUMPI PUSH1 0x0 DUP1 REVERT JUMPDEST PUSH2 0x2C46 PUSH2 0x2C41 DUP3 PUSH2 0xA19 JUMP JUMPDEST PUSH2 0x2EE7 JUMP JUMPDEST DUP4 SLOAD PUSH1 0x1 PUSH1 0x1 PUSH1 0x58 SHL SUB SWAP2 SWAP1 SWAP2 AND PUSH1 0x1 PUSH1 0x80 SHL MUL PUSH11 0xFFFFFFFFFFFFFFFFFFFFFF PUSH1 0x80 SHL NOT SWAP1 SWAP2 AND OR DUP4 SSTORE PUSH2 0x2C7C PUSH2 0x2C41 DUP4 PUSH2 0xA19 JUMP JUMPDEST DUP4 SLOAD PUSH1 0x1 PUSH1 0x1 PUSH1 0x58 SHL SUB SWAP2 SWAP1 SWAP2 AND PUSH1 0x1 PUSH1 0x28 SHL MUL PUSH16 0xFFFFFFFFFFFFFFFFFFFFFF0000000000 NOT SWAP1 SWAP2 AND OR DUP4 SSTORE PUSH2 0x2CB1 DUP4 PUSH2 0x333B JUMP JUMPDEST POP POP POP POP POP POP JUMP JUMPDEST PUSH1 0x0 PUSH2 0x2CC3 PUSH2 0x2F34 JUMP JUMPDEST PUSH1 0x1 PUSH1 0x1 PUSH1 0xA0 SHL SUB DUP5 AND PUSH1 0x0 SWAP1 DUP2 MSTORE PUSH1 0x20 DUP3 SWAP1 MSTORE PUSH1 0x40 SWAP1 KECCAK256 SLOAD SWAP1 SWAP2 POP PUSH2 0x2CEC PUSH2 0x377 DUP3 DUP6 PUSH2 0x123A JUMP JUMPDEST PUSH1 0x1 PUSH1 0x1 PUSH1 0xA0 SHL SUB SWAP1 SWAP5 AND PUSH1 0x0 SWAP1 DUP2 MSTORE PUSH1 0x20 SWAP3 SWAP1 SWAP3 MSTORE POP PUSH1 0x40 SWAP1 KECCAK256 SWAP2 SWAP1 SWAP2 SSTORE POP JUMP JUMPDEST PUSH1 0x0 DUP2 PUSH1 0x0 NOT EQ DUP1 ISZERO PUSH2 0x2D24 JUMPI POP PUSH1 0x1 PUSH1 0xFF SHL DUP4 EQ JUMPDEST ISZERO PUSH2 0x2D2E JUMPI PUSH1 0x0 DUP1 REVERT JUMPDEST DUP2 DUP4 DUP2 PUSH2 0x2D37 JUMPI INVALID JUMPDEST SDIV SWAP4 SWAP3 POP POP POP JUMP JUMPDEST PUSH1 0x0 DUP1 PUSH2 0x8DB PUSH1 0x7 PUSH2 0x1A6A JUMP JUMPDEST PUSH1 0x0 DUP1 PUSH2 0x2D57 PUSH2 0x3406 JUMP JUMPDEST PUSH2 0xFFFF SWAP4 SWAP1 SWAP4 AND PUSH1 0x0 SWAP1 DUP2 MSTORE PUSH1 0x20 SWAP4 SWAP1 SWAP4 MSTORE POP POP PUSH1 0x40 SWAP1 KECCAK256 SLOAD PUSH1 0x1 PUSH1 0x1 PUSH1 0xA0 SHL SUB AND SWAP1 JUMP JUMPDEST PUSH1 0x0 DUP1 PUSH1 0x0 DUP1 PUSH1 0x0 DUP1 PUSH2 0x2D8F DUP10 DUP9 PUSH2 0x3413 JUMP JUMPDEST DUP10 MLOAD SWAP1 SWAP6 POP SWAP2 SWAP4 POP SWAP2 POP PUSH1 0x0 SWAP1 PUSH2 0x2DB6 SWAP1 PUSH2 0x2DAB SWAP1 DUP12 SWAP1 PUSH2 0x2AC6 JUMP JUMPDEST PUSH4 0x3B9ACA00 SWAP1 PUSH2 0x24AF JUMP JUMPDEST SWAP1 POP PUSH2 0x2DF0 PUSH2 0x2DE5 PUSH4 0x1DA9C00 PUSH2 0x2DCD DUP6 DUP6 PUSH2 0x24AF JUMP JUMPDEST DUP2 PUSH2 0x2DD4 JUMPI INVALID JUMPDEST PUSH8 0xDE0B6B3A7640000 SWAP2 SWAP1 DIV PUSH2 0x2E87 JUMP JUMPDEST PUSH1 0xE0 DUP11 ADD MLOAD SWAP1 PUSH2 0x2EB6 JUMP JUMPDEST SWAP7 POP PUSH2 0x2E12 PUSH2 0x2E07 PUSH4 0x1DA9C00 PUSH2 0x2DCD DUP8 DUP6 PUSH2 0x24AF JUMP JUMPDEST PUSH1 0xC0 DUP11 ADD MLOAD SWAP1 PUSH2 0x2EB6 JUMP JUMPDEST SWAP6 POP DUP2 DUP4 EQ ISZERO PUSH2 0x2E29 JUMPI POP PUSH1 0x0 SWAP4 POP PUSH2 0x2E7E SWAP2 POP POP JUMP JUMPDEST PUSH1 0x0 PUSH2 0x2E4B PUSH2 0x2E40 PUSH4 0x1DA9C00 PUSH2 0x2DCD DUP8 DUP7 PUSH2 0x24AF JUMP JUMPDEST PUSH1 0xE0 DUP12 ADD MLOAD SWAP1 PUSH2 0x2EB6 JUMP JUMPDEST SWAP1 POP PUSH1 0x0 PUSH2 0x2E59 DUP10 DUP4 PUSH2 0x2AC6 JUMP JUMPDEST SWAP1 POP PUSH2 0x2E76 DUP9 PUSH2 0x290D DUP4 DUP14 PUSH1 0x40 ADD MLOAD PUSH2 0x24AF SWAP1 SWAP2 SWAP1 PUSH4 0xFFFFFFFF AND JUMP JUMPDEST SWAP7 POP POP POP POP POP POP JUMPDEST SWAP4 POP SWAP4 POP SWAP4 POP SWAP4 JUMP JUMPDEST PUSH1 0x0 DUP3 DUP3 ADD DUP4 DUP2 LT ISZERO PUSH2 0xDE9 JUMPI PUSH1 0x0 DUP1 REVERT JUMPDEST PUSH1 0x0 PUSH2 0xDE9 PUSH2 0x2EB0 DUP5 PUSH8 0xDE0B6B3A7640000 PUSH2 0x24AF JUMP JUMPDEST DUP4 PUSH2 0x3208 JUMP JUMPDEST PUSH1 0x0 PUSH2 0xDE9 PUSH2 0x2EC5 DUP5 DUP5 PUSH2 0x24AF JUMP JUMPDEST PUSH8 0xDE0B6B3A7640000 PUSH2 0x3208 JUMP JUMPDEST PUSH1 0x0 PUSH5 0xFFFFFFFFFF DUP3 GT ISZERO PUSH2 0xA28 JUMPI PUSH1 0x0 DUP1 REVERT JUMPDEST PUSH1 0x0 PUSH1 0x1 PUSH1 0x1 PUSH1 0x58 SHL SUB DUP3 GT ISZERO PUSH2 0xA28 JUMPI PUSH1 0x0 DUP1 REVERT JUMPDEST PUSH1 0x0 DUP2 SLT ISZERO PUSH2 0x2F0B JUMPI PUSH1 0x0 DUP1 REVERT JUMPDEST PUSH1 0x0 PUSH2 0x2F19 PUSH2 0xFEE DUP5 PUSH2 0x34AD JUMP JUMPDEST SWAP1 POP PUSH2 0x2F25 DUP2 DUP4 PUSH2 0x123A JUMP JUMPDEST SWAP1 POP PUSH2 0x6DA PUSH2 0xFEE DUP5 DUP4 PUSH2 0x3506 JUMP JUMPDEST PUSH1 0x0 DUP1 PUSH2 0x8DB PUSH1 0x26 PUSH2 0x1A6A JUMP JUMPDEST PUSH1 0x0 DUP1 PUSH1 0x0 JUMPDEST DUP4 MLOAD DUP2 LT ISZERO PUSH2 0x3150 JUMPI PUSH1 0x0 DUP5 DUP3 DUP2 MLOAD DUP2 LT PUSH2 0x2F5E JUMPI INVALID JUMPDEST PUSH1 0x20 MUL PUSH1 0x20 ADD ADD MLOAD SWAP1 POP PUSH1 0x0 DUP2 PUSH1 0x60 ADD MLOAD PUSH1 0x1 PUSH1 0x1 PUSH1 0xA0 SHL SUB AND PUSH4 0x70A08231 ADDRESS PUSH1 0x40 MLOAD DUP3 PUSH4 0xFFFFFFFF AND PUSH1 0xE0 SHL DUP2 MSTORE PUSH1 0x4 ADD PUSH2 0x2F9A SWAP2 SWAP1 PUSH2 0x45F8 JUMP JUMPDEST PUSH1 0x20 PUSH1 0x40 MLOAD DUP1 DUP4 SUB DUP2 DUP7 DUP1 EXTCODESIZE ISZERO DUP1 ISZERO PUSH2 0x2FB2 JUMPI PUSH1 0x0 DUP1 REVERT JUMPDEST POP GAS STATICCALL ISZERO DUP1 ISZERO PUSH2 0x2FC6 JUMPI RETURNDATASIZE PUSH1 0x0 DUP1 RETURNDATACOPY RETURNDATASIZE PUSH1 0x0 REVERT JUMPDEST POP POP POP POP PUSH1 0x40 MLOAD RETURNDATASIZE PUSH1 0x1F NOT PUSH1 0x1F DUP3 ADD AND DUP3 ADD DUP1 PUSH1 0x40 MSTORE POP DUP2 ADD SWAP1 PUSH2 0x2FEA SWAP2 SWAP1 PUSH2 0x44B4 JUMP JUMPDEST SWAP1 POP PUSH1 0x0 PUSH2 0x2FF8 DUP9 ADDRESS PUSH2 0x357A JUMP JUMPDEST SWAP1 POP PUSH1 0x0 JUMPDEST DUP4 MLOAD MLOAD DUP2 LT ISZERO PUSH2 0x3054 JUMPI PUSH2 0x3043 DUP5 PUSH1 0x0 ADD MLOAD DUP3 DUP2 MLOAD DUP2 LT PUSH2 0x301A JUMPI INVALID JUMPDEST PUSH1 0x20 MUL PUSH1 0x20 ADD ADD MLOAD PUSH1 0x0 DUP7 PUSH1 0x20 ADD MLOAD DUP5 DUP2 MLOAD DUP2 LT PUSH2 0x3034 JUMPI INVALID JUMPDEST PUSH1 0x20 MUL PUSH1 0x20 ADD ADD MLOAD PUSH1 0x1 PUSH2 0x3624 JUMP JUMPDEST PUSH2 0x304C JUMPI PUSH1 0x1 SWAP7 POP JUMPDEST PUSH1 0x1 ADD PUSH2 0x2FFD JUMP JUMPDEST POP PUSH1 0x0 PUSH2 0x3061 DUP10 ADDRESS PUSH2 0x357A JUMP JUMPDEST SWAP1 POP PUSH1 0x0 PUSH2 0x306F DUP3 DUP5 PUSH2 0x2AC6 JUMP JUMPDEST SWAP1 POP DUP1 DUP6 PUSH1 0x40 ADD MLOAD GT ISZERO PUSH2 0x3082 JUMPI PUSH1 0x0 DUP1 REVERT JUMPDEST PUSH1 0x60 DUP6 ADD MLOAD PUSH1 0x40 MLOAD PUSH4 0x70A08231 PUSH1 0xE0 SHL DUP2 MSTORE PUSH1 0x0 SWAP2 PUSH1 0x1 PUSH1 0x1 PUSH1 0xA0 SHL SUB AND SWAP1 PUSH4 0x70A08231 SWAP1 PUSH2 0x30B5 SWAP1 ADDRESS SWAP1 PUSH1 0x4 ADD PUSH2 0x45F8 JUMP JUMPDEST PUSH1 0x20 PUSH1 0x40 MLOAD DUP1 DUP4 SUB DUP2 DUP7 DUP1 EXTCODESIZE ISZERO DUP1 ISZERO PUSH2 0x30CD JUMPI PUSH1 0x0 DUP1 REVERT JUMPDEST POP GAS STATICCALL ISZERO DUP1 ISZERO PUSH2 0x30E1 JUMPI RETURNDATASIZE PUSH1 0x0 DUP1 RETURNDATACOPY RETURNDATASIZE PUSH1 0x0 REVERT JUMPDEST POP POP POP POP PUSH1 0x40 MLOAD RETURNDATASIZE PUSH1 0x1F NOT PUSH1 0x1F DUP3 ADD AND DUP3 ADD DUP1 PUSH1 0x40 MSTORE POP DUP2 ADD SWAP1 PUSH2 0x3105 SWAP2 SWAP1 PUSH2 0x44B4 JUMP JUMPDEST SWAP1 POP DUP5 DUP2 GT ISZERO PUSH2 0x3114 JUMPI PUSH1 0x0 DUP1 REVERT JUMPDEST PUSH2 0x3123 DUP7 PUSH1 0x60 ADD MLOAD DUP7 DUP4 PUSH2 0x3892 JUMP JUMPDEST PUSH2 0x312D DUP9 DUP4 PUSH2 0x2E87 JUMP JUMPDEST SWAP8 POP PUSH2 0x313E DUP12 PUSH1 0x0 ADD MLOAD DUP6 DUP6 PUSH2 0x3892 JUMP JUMPDEST POP POP PUSH1 0x1 SWAP1 SWAP5 ADD SWAP4 POP PUSH2 0x2F47 SWAP3 POP POP POP JUMP JUMPDEST POP SWAP3 POP SWAP3 SWAP1 POP JUMP JUMPDEST PUSH1 0x0 DUP1 PUSH2 0x8DB PUSH1 0x3 PUSH2 0x1A6A JUMP JUMPDEST PUSH1 0x0 DUP1 PUSH2 0x8DB PUSH1 0x11 PUSH2 0x1A6A JUMP JUMPDEST PUSH1 0x0 DUP1 PUSH1 0x0 PUSH2 0x3180 DUP6 PUSH2 0x26DE JUMP JUMPDEST SWAP2 SWAP5 POP SWAP3 POP SWAP1 POP DUP1 DUP5 GT DUP1 ISZERO PUSH2 0x3196 JUMPI POP PUSH1 0x0 DUP2 GT JUMPDEST DUP1 ISZERO PUSH2 0x31A2 JUMPI POP PUSH1 0x0 DUP4 GT JUMPDEST ISZERO PUSH2 0x3201 JUMPI PUSH1 0x0 PUSH2 0x31B2 DUP7 PUSH2 0x110F JUMP JUMPDEST POP POP POP SWAP2 POP POP PUSH1 0x0 PUSH2 0x31DD PUSH2 0x31D4 PUSH4 0x5F5E100 DUP5 PUSH2 0x24AF SWAP1 SWAP2 SWAP1 PUSH4 0xFFFFFFFF AND JUMP JUMPDEST DUP5 DUP9 SUB DUP8 PUSH2 0x390F JUMP JUMPDEST SWAP1 POP PUSH2 0x31E9 DUP5 DUP3 PUSH2 0x2E87 JUMP JUMPDEST SWAP4 POP PUSH1 0x1 PUSH1 0x1 PUSH1 0x80 SHL SUB DUP5 LT PUSH2 0x31FE JUMPI PUSH1 0x0 DUP1 REVERT JUMPDEST POP POP JUMPDEST SWAP3 POP SWAP3 POP SWAP3 JUMP JUMPDEST PUSH1 0x0 DUP1 DUP3 GT PUSH2 0x3216 JUMPI PUSH1 0x0 DUP1 REVERT JUMPDEST DUP2 DUP4 DUP2 PUSH2 0x321F JUMPI INVALID JUMPDEST DIV SWAP4 SWAP3 POP POP POP JUMP JUMPDEST PUSH1 0x0 DUP1 PUSH2 0x8DB PUSH1 0x12 PUSH2 0x1A6A JUMP JUMPDEST PUSH1 0x0 DUP1 DUP3 SLT ISZERO PUSH2 0x326D JUMPI PUSH2 0x3268 PUSH1 0x1 PUSH2 0x3262 DUP6 PUSH1 0x20 ADD MLOAD PUSH2 0x1D81 DUP8 PUSH1 0x0 ADD MLOAD DUP8 PUSH2 0xEFE SWAP1 SWAP2 SWAP1 PUSH4 0xFFFFFFFF AND JUMP JUMPDEST SWAP1 PUSH2 0x3931 JUMP JUMPDEST PUSH2 0xDE9 JUMP JUMPDEST POP SWAP2 SWAP1 POP JUMP JUMPDEST PUSH1 0x0 DUP2 DUP4 EQ DUP1 PUSH2 0x3290 JUMPI POP PUSH1 0x0 DUP4 SLT ISZERO DUP1 ISZERO PUSH2 0x3290 JUMPI POP PUSH1 0x0 DUP3 SLT ISZERO JUMPDEST ISZERO PUSH2 0x329D JUMPI POP PUSH1 0x0 PUSH2 0x8DB JUMP JUMPDEST PUSH1 0x0 DUP4 SGT ISZERO DUP1 ISZERO PUSH2 0x32AE JUMPI POP DUP2 PUSH1 0x0 SLT JUMPDEST ISZERO PUSH2 0x32BA JUMPI POP DUP2 PUSH2 0x8DB JUMP JUMPDEST PUSH1 0x0 DUP3 SGT ISZERO DUP1 ISZERO PUSH2 0x32CB JUMPI POP DUP3 PUSH1 0x0 SLT JUMPDEST ISZERO PUSH2 0x32D9 JUMPI PUSH2 0x250A DUP3 PUSH2 0x8CD JUMP JUMPDEST PUSH1 0x0 DUP4 SGT ISZERO DUP1 ISZERO PUSH2 0x32EB JUMPI POP PUSH1 0x0 DUP3 SGT ISZERO JUMPDEST ISZERO PUSH2 0x9C JUMPI PUSH2 0x250A DUP4 DUP4 PUSH2 0x3931 JUMP JUMPDEST DUP1 ISZERO PUSH2 0x8C7 JUMPI DUP4 MLOAD PUSH1 0x20 DUP6 ADD MLOAD PUSH1 0x0 SWAP2 PUSH2 0x3319 SWAP2 PUSH2 0x1D81 SWAP1 DUP6 SWAP1 PUSH2 0xEFE JUMP JUMPDEST SWAP1 POP PUSH2 0x3327 DUP5 DUP5 DUP5 DUP5 PUSH2 0x3947 JUMP JUMPDEST POP POP POP POP POP JUMP JUMPDEST PUSH1 0x0 DUP1 PUSH2 0x8DB PUSH1 0x21 PUSH2 0x1A6A JUMP JUMPDEST DUP1 SLOAD PUSH1 0x2 DUP3 ADD SLOAD PUSH1 0x0 SWAP2 PUSH2 0x337D SWAP2 PUSH1 0x1 PUSH1 0x28 SHL SWAP1 SWAP2 DIV PUSH1 0x1 PUSH1 0x1 PUSH1 0x58 SHL SUB AND SWAP1 PUSH2 0x3377 SWAP1 PUSH1 0x1 PUSH1 0x1 PUSH1 0x50 SHL SUB PUSH1 0x1 PUSH1 0x50 SHL DUP3 DIV DUP2 AND SWAP2 AND PUSH2 0xEFE JUMP JUMPDEST SWAP1 PUSH2 0xEFE JUMP JUMPDEST PUSH1 0x1 DUP4 ADD SLOAD PUSH1 0x2 DUP5 ADD SLOAD SWAP2 SWAP3 POP PUSH1 0x0 SWAP2 PUSH2 0x33B7 SWAP2 PUSH1 0x1 PUSH1 0x1 PUSH1 0x58 SHL SUB AND SWAP1 PUSH2 0x3377 SWAP1 PUSH1 0x1 PUSH1 0x1 PUSH1 0x50 SHL SUB PUSH1 0x1 PUSH1 0xA0 SHL DUP3 DIV DUP2 AND SWAP2 AND PUSH2 0xEFE JUMP JUMPDEST DUP4 SLOAD SWAP1 SWAP2 POP PUSH1 0x0 SWAP1 PUSH2 0x33EE SWAP1 PUSH1 0x1 PUSH1 0x1 PUSH1 0x1 PUSH1 0x58 SHL SUB PUSH1 0x1 PUSH1 0x80 SHL SWAP1 SWAP3 DIV DUP3 AND ADD AND PUSH15 0xC097CE7BC90715B34B9F1000000000 PUSH2 0xEFE JUMP JUMPDEST SWAP1 POP DUP1 PUSH2 0x33FB DUP5 DUP5 PUSH2 0x3931 JUMP JUMPDEST SGT ISZERO PUSH2 0x8C7 JUMPI PUSH1 0x0 DUP1 REVERT JUMPDEST PUSH1 0x0 DUP1 PUSH2 0x8DB PUSH1 0x1F PUSH2 0x1A6A JUMP JUMPDEST PUSH1 0x0 DUP1 PUSH1 0x0 DUP1 PUSH1 0x0 DUP6 PUSH1 0x20 ADD MLOAD GT ISZERO PUSH2 0x3460 JUMPI PUSH2 0x345D PUSH2 0x3444 DUP7 PUSH1 0xC0 ADD MLOAD DUP8 PUSH1 0x20 ADD MLOAD PUSH2 0x24AF SWAP1 SWAP2 SWAP1 PUSH4 0xFFFFFFFF AND JUMP JUMPDEST PUSH1 0xE0 DUP8 ADD MLOAD PUSH1 0x40 DUP9 ADD MLOAD PUSH2 0x3457 SWAP2 PUSH2 0x24AF JUMP JUMPDEST SWAP1 PUSH2 0x3A8D JUMP JUMPDEST SWAP1 POP JUMPDEST PUSH1 0x0 PUSH2 0x346B DUP8 PUSH2 0x3AA0 JUMP JUMPDEST SWAP1 POP PUSH2 0x3477 DUP2 DUP4 PUSH2 0x3AD3 JUMP JUMPDEST SWAP5 POP DUP2 ISZERO PUSH2 0x348E JUMPI PUSH2 0x348B DUP2 DUP7 PUSH1 0x1 PUSH2 0x3B8C JUMP JUMPDEST SWAP4 POP JUMPDEST PUSH1 0x20 DUP7 ADD MLOAD ISZERO PUSH2 0x31FE JUMPI PUSH2 0x34A2 DUP6 DUP4 PUSH2 0x3BFD JUMP JUMPDEST SWAP3 POP POP POP SWAP3 POP SWAP3 POP SWAP3 JUMP JUMPDEST PUSH1 0x0 DUP1 PUSH2 0x34B8 PUSH2 0x24D6 JUMP JUMPDEST PUSH1 0x1 PUSH1 0x1 PUSH1 0xA0 SHL SUB DUP6 AND PUSH1 0x0 SWAP1 DUP2 MSTORE PUSH1 0x20 DUP3 DUP2 MSTORE PUSH1 0x40 DUP1 DUP4 KECCAK256 PUSH2 0xFFFF DUP9 AND DUP5 MSTORE SWAP1 SWAP2 MSTORE DUP2 KECCAK256 DUP1 SLOAD PUSH1 0x1 PUSH1 0xA8 SHL SWAP1 DIV PUSH1 0xA SWAP1 DUP2 SIGNEXTEND SWAP1 SIGNEXTEND SWAP5 POP SWAP2 SWAP3 POP DUP4 SLT ISZERO PUSH2 0x34FE JUMPI PUSH1 0x0 DUP1 REVERT JUMPDEST POP POP SWAP3 SWAP2 POP POP JUMP JUMPDEST PUSH1 0x0 DUP2 SLT ISZERO PUSH2 0x3514 JUMPI PUSH1 0x0 DUP1 REVERT JUMPDEST PUSH1 0x0 PUSH2 0x351E PUSH2 0x24D6 JUMP JUMPDEST PUSH1 0x1 PUSH1 0x1 PUSH1 0xA0 SHL SUB DUP6 AND PUSH1 0x0 SWAP1 DUP2 MSTORE PUSH1 0x20 DUP3 DUP2 MSTORE PUSH1 0x40 DUP1 DUP4 KECCAK256 PUSH2 0xFFFF DUP9 AND DUP5 MSTORE SWAP1 SWAP2 MSTORE SWAP1 KECCAK256 SWAP1 SWAP2 POP PUSH2 0x354F DUP4 PUSH2 0x2A27 JUMP JUMPDEST DUP2 SLOAD PUSH1 0xA SWAP2 SWAP1 SWAP2 SIGNEXTEND PUSH1 0x1 PUSH1 0x1 PUSH1 0x58 SHL SUB AND PUSH1 0x1 PUSH1 0xA8 SHL MUL PUSH1 0x1 PUSH1 0x1 PUSH1 0xA8 SHL SUB SWAP1 SWAP2 AND OR SWAP1 SSTORE POP POP POP POP JUMP JUMPDEST PUSH1 0x0 PUSH1 0x3 DUP4 PUSH1 0x60 ADD MLOAD PUSH1 0x5 DUP2 GT ISZERO PUSH2 0x358E JUMPI INVALID JUMPDEST EQ ISZERO PUSH2 0x35A5 JUMPI POP PUSH1 0x1 PUSH1 0x1 PUSH1 0xA0 SHL SUB DUP2 AND BALANCE PUSH2 0x8DB JUMP JUMPDEST DUP3 MLOAD PUSH1 0x40 MLOAD PUSH4 0x70A08231 PUSH1 0xE0 SHL DUP2 MSTORE PUSH1 0x1 PUSH1 0x1 PUSH1 0xA0 SHL SUB SWAP1 SWAP2 AND SWAP1 PUSH4 0x70A08231 SWAP1 PUSH2 0x35D4 SWAP1 DUP6 SWAP1 PUSH1 0x4 ADD PUSH2 0x45F8 JUMP JUMPDEST PUSH1 0x20 PUSH1 0x40 MLOAD DUP1 DUP4 SUB DUP2 DUP7 DUP1 EXTCODESIZE ISZERO DUP1 ISZERO PUSH2 0x35EC JUMPI PUSH1 0x0 DUP1 REVERT JUMPDEST POP GAS STATICCALL ISZERO DUP1 ISZERO PUSH2 0x3600 JUMPI RETURNDATASIZE PUSH1 0x0 DUP1 RETURNDATACOPY RETURNDATASIZE PUSH1 0x0 REVERT JUMPDEST POP POP POP POP PUSH1 0x40 MLOAD RETURNDATASIZE PUSH1 0x1F NOT PUSH1 0x1F DUP3 ADD AND DUP3 ADD DUP1 PUSH1 0x40 MSTORE POP DUP2 ADD SWAP1 PUSH2 0x250A SWAP2 SWAP1 PUSH2 0x44B4 JUMP JUMPDEST PUSH1 0x0 DUP1 PUSH1 0x0 DUP7 PUSH1 0x1 PUSH1 0x1 PUSH1 0xA0 SHL SUB AND DUP7 DUP7 PUSH1 0x40 MLOAD DUP1 DUP3 DUP1 MLOAD SWAP1 PUSH1 0x20 ADD SWAP1 DUP1 DUP4 DUP4 JUMPDEST PUSH1 0x20 DUP4 LT PUSH2 0x3664 JUMPI DUP1 MLOAD DUP3 MSTORE PUSH1 0x1F NOT SWAP1 SWAP3 ADD SWAP2 PUSH1 0x20 SWAP2 DUP3 ADD SWAP2 ADD PUSH2 0x3645 JUMP JUMPDEST PUSH1 0x1 DUP4 PUSH1 0x20 SUB PUSH2 0x100 EXP SUB DUP1 NOT DUP3 MLOAD AND DUP2 DUP5 MLOAD AND DUP1 DUP3 OR DUP6 MSTORE POP POP POP POP POP POP SWAP1 POP ADD SWAP2 POP POP PUSH1 0x0 PUSH1 0x40 MLOAD DUP1 DUP4 SUB DUP2 DUP6 DUP8 GAS CALL SWAP3 POP POP POP RETURNDATASIZE DUP1 PUSH1 0x0 DUP2 EQ PUSH2 0x36C6 JUMPI PUSH1 0x40 MLOAD SWAP2 POP PUSH1 0x1F NOT PUSH1 0x3F RETURNDATASIZE ADD AND DUP3 ADD PUSH1 0x40 MSTORE RETURNDATASIZE DUP3 MSTORE RETURNDATASIZE PUSH1 0x0 PUSH1 0x20 DUP5 ADD RETURNDATACOPY PUSH2 0x36CB JUMP JUMPDEST PUSH1 0x60 SWAP2 POP JUMPDEST POP SWAP2 POP SWAP2 POP DUP4 PUSH2 0x376E JUMPI DUP2 PUSH2 0x36DF DUP3 PUSH2 0x3C16 JUMP JUMPDEST SWAP1 PUSH2 0x3768 JUMPI PUSH1 0x40 MLOAD PUSH3 0x461BCD PUSH1 0xE5 SHL DUP2 MSTORE PUSH1 0x4 ADD DUP1 DUP1 PUSH1 0x20 ADD DUP3 DUP2 SUB DUP3 MSTORE DUP4 DUP2 DUP2 MLOAD DUP2 MSTORE PUSH1 0x20 ADD SWAP2 POP DUP1 MLOAD SWAP1 PUSH1 0x20 ADD SWAP1 DUP1 DUP4 DUP4 PUSH1 0x0 JUMPDEST DUP4 DUP2 LT ISZERO PUSH2 0x372D JUMPI DUP2 DUP2 ADD MLOAD DUP4 DUP3 ADD MSTORE PUSH1 0x20 ADD PUSH2 0x3715 JUMP JUMPDEST POP POP POP POP SWAP1 POP SWAP1 DUP2 ADD SWAP1 PUSH1 0x1F AND DUP1 ISZERO PUSH2 0x375A JUMPI DUP1 DUP3 SUB DUP1 MLOAD PUSH1 0x1 DUP4 PUSH1 0x20 SUB PUSH2 0x100 EXP SUB NOT AND DUP2 MSTORE PUSH1 0x20 ADD SWAP2 POP JUMPDEST POP SWAP3 POP POP POP PUSH1 0x40 MLOAD DUP1 SWAP2 SUB SWAP1 REVERT JUMPDEST POP PUSH2 0x1D30 JUMP JUMPDEST DUP7 PUSH1 0x1 PUSH1 0x1 PUSH1 0xA0 SHL SUB AND PUSH32 0x3C7E398C5E91088CAE639370E35B25EA669D81FBDF0DEF5388E73661BC34E08E DUP8 DUP8 PUSH2 0x37A4 DUP6 PUSH2 0x3C16 JUMP JUMPDEST PUSH1 0x40 MLOAD DUP1 DUP5 DUP2 MSTORE PUSH1 0x20 ADD DUP1 PUSH1 0x20 ADD DUP1 PUSH1 0x20 ADD DUP4 DUP2 SUB DUP4 MSTORE DUP6 DUP2 DUP2 MLOAD DUP2 MSTORE PUSH1 0x20 ADD SWAP2 POP DUP1 MLOAD SWAP1 PUSH1 0x20 ADD SWAP1 DUP1 DUP4 DUP4 PUSH1 0x0 JUMPDEST DUP4 DUP2 LT ISZERO PUSH2 0x37EB JUMPI DUP2 DUP2 ADD MLOAD DUP4 DUP3 ADD MSTORE PUSH1 0x20 ADD PUSH2 0x37D3 JUMP JUMPDEST POP POP POP POP SWAP1 POP SWAP1 DUP2 ADD SWAP1 PUSH1 0x1F AND DUP1 ISZERO PUSH2 0x3818 JUMPI DUP1 DUP3 SUB DUP1 MLOAD PUSH1 0x1 DUP4 PUSH1 0x20 SUB PUSH2 0x100 EXP SUB NOT AND DUP2 MSTORE PUSH1 0x20 ADD SWAP2 POP JUMPDEST POP DUP4 DUP2 SUB DUP3 MSTORE DUP5 MLOAD DUP2 MSTORE DUP5 MLOAD PUSH1 0x20 SWAP2 DUP3 ADD SWAP2 DUP7 ADD SWAP1 DUP1 DUP4 DUP4 PUSH1 0x0 JUMPDEST DUP4 DUP2 LT ISZERO PUSH2 0x384B JUMPI DUP2 DUP2 ADD MLOAD DUP4 DUP3 ADD MSTORE PUSH1 0x20 ADD PUSH2 0x3833 JUMP JUMPDEST POP POP POP POP SWAP1 POP SWAP1 DUP2 ADD SWAP1 PUSH1 0x1F AND DUP1 ISZERO PUSH2 0x3878 JUMPI DUP1 DUP3 SUB DUP1 MLOAD PUSH1 0x1 DUP4 PUSH1 0x20 SUB PUSH2 0x100 EXP SUB NOT AND DUP2 MSTORE PUSH1 0x20 ADD SWAP2 POP JUMPDEST POP SWAP6 POP POP POP POP POP POP PUSH1 0x40 MLOAD DUP1 SWAP2 SUB SWAP1 LOG2 POP SWAP6 SWAP5 POP POP POP POP POP JUMP JUMPDEST PUSH1 0x0 PUSH2 0x389C PUSH2 0x2F34 JUMP JUMPDEST PUSH1 0x1 PUSH1 0x1 PUSH1 0xA0 SHL SUB DUP6 AND PUSH1 0x0 SWAP1 DUP2 MSTORE PUSH1 0x20 DUP3 SWAP1 MSTORE PUSH1 0x40 SWAP1 KECCAK256 SLOAD SWAP1 SWAP2 POP DUP4 DUP2 GT ISZERO PUSH2 0x38C5 JUMPI PUSH1 0x0 DUP1 REVERT JUMPDEST PUSH1 0x0 PUSH2 0x38DC PUSH2 0x38D3 DUP7 PUSH2 0xB55 JUMP JUMPDEST PUSH2 0x3262 DUP7 PUSH2 0xB55 JUMP JUMPDEST SWAP1 POP PUSH2 0x38EB PUSH2 0x377 DUP4 DUP4 PUSH2 0x123A JUMP JUMPDEST PUSH1 0x1 PUSH1 0x1 PUSH1 0xA0 SHL SUB SWAP1 SWAP7 AND PUSH1 0x0 SWAP1 DUP2 MSTORE PUSH1 0x20 SWAP4 SWAP1 SWAP4 MSTORE POP POP PUSH1 0x40 SWAP1 KECCAK256 SWAP3 SWAP1 SWAP3 SSTORE POP POP JUMP JUMPDEST PUSH1 0x0 PUSH2 0x8F4 DUP3 PUSH2 0x290D PUSH4 0x1DA9C00 DUP2 DUP9 PUSH2 0x2907 DUP10 PUSH8 0xDE0B6B3A7640000 PUSH2 0x24AF JUMP JUMPDEST DUP1 DUP3 SUB DUP3 DUP2 SGT ISZERO PUSH1 0x0 DUP4 SLT ISZERO EQ PUSH2 0x8DB JUMPI PUSH1 0x0 DUP1 REVERT JUMPDEST PUSH1 0x0 PUSH2 0x3951 PUSH2 0x1D3A JUMP JUMPDEST PUSH2 0xFFFF DUP6 AND PUSH1 0x0 SWAP1 DUP2 MSTORE PUSH1 0x20 SWAP2 SWAP1 SWAP2 MSTORE PUSH1 0x40 SWAP1 KECCAK256 DUP1 SLOAD SWAP1 SWAP2 POP PUSH5 0xFFFFFFFFFF AND TIMESTAMP EQ PUSH2 0x397C JUMPI PUSH1 0x0 DUP1 REVERT JUMPDEST DUP1 SLOAD PUSH1 0x1 PUSH1 0xF8 SHL SWAP1 DIV PUSH1 0xFF AND PUSH2 0x3991 JUMPI PUSH1 0x0 DUP1 REVERT JUMPDEST PUSH1 0x1 DUP2 ADD SLOAD PUSH1 0x0 SWAP1 PUSH2 0x39AC SWAP1 PUSH1 0x1 PUSH1 0x1 PUSH1 0x58 SHL SUB AND DUP6 PUSH2 0x123A JUMP JUMPDEST DUP3 SLOAD SWAP1 SWAP2 POP PUSH1 0x0 SWAP1 PUSH2 0x39CE SWAP1 PUSH1 0x1 PUSH1 0x28 SHL SWAP1 DIV PUSH1 0x1 PUSH1 0x1 PUSH1 0x58 SHL SUB AND DUP6 PUSH2 0x123A JUMP JUMPDEST SWAP1 POP DUP2 PUSH1 0x9 NOT SLT DUP1 ISZERO PUSH2 0x39E1 JUMPI POP PUSH1 0x0 DUP3 SLT JUMPDEST ISZERO PUSH2 0x39EB JUMPI PUSH1 0x0 SWAP2 POP JUMPDEST DUP1 PUSH1 0x9 NOT SLT DUP1 ISZERO PUSH2 0x39FC JUMPI POP PUSH1 0x0 DUP2 SLT JUMPDEST ISZERO PUSH2 0x3A05 JUMPI POP PUSH1 0x0 JUMPDEST PUSH2 0x3A11 PUSH2 0x2C41 DUP4 PUSH2 0xA19 JUMP JUMPDEST PUSH1 0x1 DUP5 ADD DUP1 SLOAD PUSH11 0xFFFFFFFFFFFFFFFFFFFFFF NOT AND PUSH1 0x1 PUSH1 0x1 PUSH1 0x58 SHL SUB SWAP3 SWAP1 SWAP3 AND SWAP2 SWAP1 SWAP2 OR SWAP1 SSTORE PUSH2 0x3A43 PUSH2 0x2C41 DUP3 PUSH2 0xA19 JUMP JUMPDEST DUP4 SLOAD PUSH1 0x1 PUSH1 0x1 PUSH1 0x58 SHL SUB SWAP2 SWAP1 SWAP2 AND PUSH1 0x1 PUSH1 0x28 SHL MUL PUSH16 0xFFFFFFFFFFFFFFFFFFFFFF0000000000 NOT SWAP1 SWAP2 AND OR DUP4 SSTORE PUSH2 0x3A7B DUP8 DUP8 DUP7 DUP9 PUSH2 0x3D1D JUMP JUMPDEST PUSH2 0x3A84 DUP4 PUSH2 0x333B JUMP JUMPDEST POP POP POP POP POP POP POP JUMP JUMPDEST PUSH1 0x0 PUSH2 0xDE9 PUSH2 0x2EB0 DUP5 PUSH4 0x3B9ACA00 PUSH2 0x24AF JUMP JUMPDEST PUSH2 0x3AA8 PUSH2 0x40E9 JUMP JUMPDEST PUSH1 0x0 PUSH2 0x3AB2 PUSH2 0x3E31 JUMP JUMPDEST PUSH2 0xFFFF DUP5 AND PUSH1 0x0 SWAP1 DUP2 MSTORE PUSH1 0x20 SWAP2 SWAP1 SWAP2 MSTORE PUSH1 0x40 DUP2 KECCAK256 SLOAD SWAP2 POP PUSH2 0x7DE SWAP1 DUP3 PUSH2 0x3E3E JUMP JUMPDEST PUSH1 0x0 DUP1 DUP4 PUSH1 0x80 ADD MLOAD GT PUSH2 0x3AE5 JUMPI PUSH1 0x0 DUP1 REVERT JUMPDEST PUSH4 0x3B9ACA00 DUP3 GT ISZERO PUSH2 0x3AF6 JUMPI PUSH1 0x0 DUP1 REVERT JUMPDEST DUP3 MLOAD DUP3 GT PUSH2 0x3B15 JUMPI DUP3 MLOAD PUSH1 0x40 DUP5 ADD MLOAD PUSH2 0x250A SWAP2 SWAP1 PUSH2 0x290D SWAP1 DUP6 SWAP1 PUSH2 0x24AF JUMP JUMPDEST DUP3 PUSH1 0x20 ADD MLOAD DUP3 GT PUSH2 0x3B53 JUMPI PUSH1 0x40 DUP4 ADD MLOAD DUP4 MLOAD PUSH1 0x20 DUP6 ADD MLOAD PUSH1 0x60 DUP7 ADD MLOAD PUSH2 0x250A SWAP4 SWAP3 PUSH2 0x3B4D SWAP3 DUP2 SWAP1 SUB SWAP2 PUSH2 0x290D SWAP2 DUP9 SUB SWAP1 DUP6 SWAP1 SUB PUSH2 0x24AF JUMP JUMPDEST SWAP1 PUSH2 0x2E87 JUMP JUMPDEST PUSH2 0xDE9 DUP4 PUSH1 0x60 ADD MLOAD PUSH2 0x3B4D DUP6 PUSH1 0x20 ADD MLOAD PUSH4 0x3B9ACA00 SUB PUSH2 0x290D DUP8 PUSH1 0x60 ADD MLOAD DUP9 PUSH1 0x80 ADD MLOAD SUB DUP9 PUSH1 0x20 ADD MLOAD DUP9 SUB PUSH2 0x24AF SWAP1 SWAP2 SWAP1 PUSH4 0xFFFFFFFF AND JUMP JUMPDEST PUSH1 0x0 DUP1 PUSH2 0x3BAB PUSH1 0x64 PUSH2 0x290D DUP8 PUSH1 0xE0 ADD MLOAD DUP8 PUSH2 0x24AF SWAP1 SWAP2 SWAP1 PUSH4 0xFFFFFFFF AND JUMP JUMPDEST SWAP1 POP DUP5 PUSH1 0xA0 ADD MLOAD DUP2 LT ISZERO PUSH2 0x3BC0 JUMPI POP PUSH1 0xA0 DUP5 ADD MLOAD JUMPDEST DUP5 PUSH1 0xC0 ADD MLOAD DUP2 GT ISZERO PUSH2 0x3BD3 JUMPI POP PUSH1 0xC0 DUP5 ADD MLOAD JUMPDEST DUP3 ISZERO PUSH2 0x3BE3 JUMPI PUSH2 0xDE4 DUP5 DUP3 PUSH2 0x2E87 JUMP JUMPDEST DUP4 DUP2 GT PUSH2 0x3BF2 JUMPI DUP1 DUP5 SUB PUSH2 0xDE4 JUMP JUMPDEST PUSH1 0x0 SWAP6 SWAP5 POP POP POP POP POP JUMP JUMPDEST PUSH1 0x0 PUSH2 0xDE9 PUSH2 0x3C0C DUP5 DUP5 PUSH2 0x24AF JUMP JUMPDEST PUSH4 0x3B9ACA00 PUSH2 0x3208 JUMP JUMPDEST PUSH1 0x60 PUSH1 0x44 DUP3 MLOAD LT ISZERO PUSH2 0x3C4C JUMPI POP PUSH1 0x40 DUP1 MLOAD DUP1 DUP3 ADD SWAP1 SWAP2 MSTORE PUSH1 0xD DUP2 MSTORE PUSH13 0x14DA5B195B9D0814995D995C9D PUSH1 0x9A SHL PUSH1 0x20 DUP3 ADD MSTORE PUSH2 0x7E2 JUMP JUMPDEST PUSH1 0x4 DUP3 ADD DUP1 MLOAD SWAP1 SWAP3 PUSH1 0x24 ADD SWAP1 PUSH1 0x20 DUP2 LT ISZERO PUSH2 0x3C66 JUMPI PUSH1 0x0 DUP1 REVERT JUMPDEST DUP2 ADD SWAP1 DUP1 DUP1 MLOAD PUSH1 0x40 MLOAD SWAP4 SWAP3 SWAP2 SWAP1 DUP5 PUSH5 0x100000000 DUP3 GT ISZERO PUSH2 0x3C86 JUMPI PUSH1 0x0 DUP1 REVERT JUMPDEST SWAP1 DUP4 ADD SWAP1 PUSH1 0x20 DUP3 ADD DUP6 DUP2 GT ISZERO PUSH2 0x3C9B JUMPI PUSH1 0x0 DUP1 REVERT JUMPDEST DUP3 MLOAD PUSH5 0x100000000 DUP2 GT DUP3 DUP3 ADD DUP9 LT OR ISZERO PUSH2 0x3CB5 JUMPI PUSH1 0x0 DUP1 REVERT JUMPDEST DUP3 MSTORE POP DUP2 MLOAD PUSH1 0x20 SWAP2 DUP3 ADD SWAP3 SWAP1 SWAP2 ADD SWAP1 DUP1 DUP4 DUP4 PUSH1 0x0 JUMPDEST DUP4 DUP2 LT ISZERO PUSH2 0x3CE2 JUMPI DUP2 DUP2 ADD MLOAD DUP4 DUP3 ADD MSTORE PUSH1 0x20 ADD PUSH2 0x3CCA JUMP JUMPDEST POP POP POP POP SWAP1 POP SWAP1 DUP2 ADD SWAP1 PUSH1 0x1F AND DUP1 ISZERO PUSH2 0x3D0F JUMPI DUP1 DUP3 SUB DUP1 MLOAD PUSH1 0x1 DUP4 PUSH1 0x20 SUB PUSH2 0x100 EXP SUB NOT AND DUP2 MSTORE PUSH1 0x20 ADD SWAP2 POP JUMPDEST POP PUSH1 0x40 MSTORE POP POP POP SWAP1 POP SWAP2 SWAP1 POP JUMP JUMPDEST PUSH1 0x0 PUSH2 0x3D27 PUSH2 0x332E JUMP JUMPDEST PUSH2 0xFFFF DUP6 AND PUSH1 0x0 SWAP1 DUP2 MSTORE PUSH1 0x20 SWAP2 SWAP1 SWAP2 MSTORE PUSH1 0x40 DUP2 KECCAK256 SLOAD PUSH1 0x1 PUSH1 0x1 PUSH1 0xA0 SHL SUB AND SWAP2 POP PUSH2 0x3D4F PUSH2 0x3F5D JUMP JUMPDEST PUSH2 0xFFFF DUP7 AND PUSH1 0x0 SWAP1 DUP2 MSTORE PUSH1 0x20 SWAP2 SWAP1 SWAP2 MSTORE PUSH1 0x40 SWAP1 DUP2 SWAP1 KECCAK256 SLOAD SWAP1 MLOAD PUSH4 0xAD1C095D PUSH1 0xE0 SHL DUP2 MSTORE PUSH1 0x1 PUSH1 0x1 PUSH1 0xA0 SHL SUB SWAP1 SWAP2 AND SWAP2 POP DUP2 SWAP1 PUSH4 0xAD1C095D SWAP1 PUSH2 0x3D97 SWAP1 DUP10 SWAP1 DUP8 SWAP1 PUSH1 0x4 ADD PUSH2 0x4637 JUMP JUMPDEST PUSH1 0x0 PUSH1 0x40 MLOAD DUP1 DUP4 SUB DUP2 PUSH1 0x0 DUP8 DUP1 EXTCODESIZE ISZERO DUP1 ISZERO PUSH2 0x3DB1 JUMPI PUSH1 0x0 DUP1 REVERT JUMPDEST POP GAS CALL ISZERO DUP1 ISZERO PUSH2 0x3DC5 JUMPI RETURNDATASIZE PUSH1 0x0 DUP1 RETURNDATACOPY RETURNDATASIZE PUSH1 0x0 REVERT JUMPDEST POP POP PUSH1 0x40 MLOAD PUSH4 0xAD1C095D PUSH1 0xE0 SHL DUP2 MSTORE PUSH1 0x1 PUSH1 0x1 PUSH1 0xA0 SHL SUB DUP6 AND SWAP3 POP PUSH4 0xAD1C095D SWAP2 POP PUSH2 0x3DF7 SWAP1 DUP10 SWAP1 DUP9 SWAP1 PUSH1 0x4 ADD PUSH2 0x4637 JUMP JUMPDEST PUSH1 0x0 PUSH1 0x40 MLOAD DUP1 DUP4 SUB DUP2 PUSH1 0x0 DUP8 DUP1 EXTCODESIZE ISZERO DUP1 ISZERO PUSH2 0x3E11 JUMPI PUSH1 0x0 DUP1 REVERT JUMPDEST POP GAS CALL ISZERO DUP1 ISZERO PUSH2 0x3E25 JUMPI RETURNDATASIZE PUSH1 0x0 DUP1 RETURNDATACOPY RETURNDATASIZE PUSH1 0x0 REVERT JUMPDEST POP POP POP POP POP POP POP POP POP POP JUMP JUMPDEST PUSH1 0x0 DUP1 PUSH2 0x8DB PUSH1 0x1B PUSH2 0x1A6A JUMP JUMPDEST PUSH2 0x3E46 PUSH2 0x40E9 JUMP JUMPDEST PUSH1 0x64 PUSH4 0x3B9ACA00 DUP4 PUSH1 0xFF DUP7 AND PUSH1 0x20 DUP2 LT PUSH2 0x3E5C JUMPI INVALID JUMPDEST BYTE MUL DUP2 PUSH2 0x3E65 JUMPI INVALID JUMPDEST DIV DUP2 MSTORE PUSH1 0x64 PUSH4 0x3B9ACA00 DUP4 PUSH1 0xFF DUP7 AND PUSH1 0x1 ADD PUSH1 0x20 DUP2 LT PUSH2 0x3E81 JUMPI INVALID JUMPDEST BYTE MUL DUP2 PUSH2 0x3E8A JUMPI INVALID JUMPDEST DIV DUP2 PUSH1 0x20 ADD DUP2 DUP2 MSTORE POP POP PUSH2 0x3EAF DUP3 PUSH1 0x2 DUP6 PUSH1 0xFF AND ADD PUSH1 0x20 DUP2 LT PUSH2 0x3EA9 JUMPI INVALID JUMPDEST BYTE PUSH2 0x3F6A JUMP JUMPDEST PUSH1 0x80 DUP3 ADD DUP2 SWAP1 MSTORE PUSH2 0x100 SWAP1 DUP4 PUSH1 0xFF DUP7 AND PUSH1 0x3 ADD PUSH1 0x20 DUP2 LT PUSH2 0x3ECC JUMPI INVALID JUMPDEST BYTE MUL DUP2 PUSH2 0x3ED5 JUMPI INVALID JUMPDEST DIV PUSH1 0x40 DUP3 ADD MSTORE PUSH1 0x80 DUP2 ADD MLOAD PUSH2 0x100 SWAP1 DUP4 PUSH1 0xFF DUP7 AND PUSH1 0x4 ADD PUSH1 0x20 DUP2 LT PUSH2 0x3EF6 JUMPI INVALID JUMPDEST BYTE MUL DUP2 PUSH2 0x3EFF JUMPI INVALID JUMPDEST DIV PUSH1 0x60 DUP3 ADD MSTORE PUSH3 0x7A120 DUP3 PUSH1 0xFF DUP6 AND PUSH1 0x5 ADD PUSH1 0x20 DUP2 LT PUSH2 0x3F1B JUMPI INVALID JUMPDEST BYTE MUL PUSH1 0xA0 DUP3 ADD MSTORE PUSH3 0x2625A0 DUP3 PUSH1 0xFF DUP6 AND PUSH1 0x6 ADD PUSH1 0x20 DUP2 LT PUSH2 0x3F38 JUMPI INVALID JUMPDEST BYTE MUL PUSH1 0xC0 DUP3 ADD MSTORE DUP2 PUSH1 0xFF DUP5 AND PUSH1 0x7 ADD PUSH1 0x20 DUP2 LT PUSH2 0x3F51 JUMPI INVALID JUMPDEST BYTE PUSH1 0xE0 DUP3 ADD MSTORE SWAP3 SWAP2 POP POP JUMP JUMPDEST PUSH1 0x0 DUP1 PUSH2 0x8DB PUSH1 0x22 PUSH2 0x1A6A JUMP JUMPDEST PUSH1 0x0 DUP2 PUSH1 0xFF AND PUSH1 0x96 LT PUSH2 0x3F85 JUMPI PUSH1 0xFF DUP3 AND PUSH3 0x2625A0 MUL PUSH2 0x8DB JUMP JUMPDEST POP PUSH1 0x95 NOT PUSH1 0xFF SWAP2 SWAP1 SWAP2 AND ADD PUSH3 0xE4E1C0 MUL PUSH4 0x165A0BC0 ADD SWAP1 JUMP JUMPDEST PUSH1 0x40 MLOAD DUP1 PUSH2 0x140 ADD PUSH1 0x40 MSTORE DUP1 PUSH1 0x0 PUSH2 0xFFFF AND DUP2 MSTORE PUSH1 0x20 ADD PUSH1 0x0 DUP2 MSTORE PUSH1 0x20 ADD PUSH1 0x0 DUP2 MSTORE PUSH1 0x20 ADD PUSH1 0x0 DUP2 MSTORE PUSH1 0x20 ADD PUSH1 0x0 DUP2 MSTORE PUSH1 0x20 ADD PUSH1 0x0 DUP2 MSTORE PUSH1 0x20 ADD PUSH1 0x0 DUP2 MSTORE PUSH1 0x20 ADD PUSH1 0x0 DUP2 MSTORE PUSH1 0x20 ADD PUSH1 0x0 DUP2 MSTORE PUSH1 0x20 ADD PUSH2 0x3FF5 PUSH2 0x402F JUMP JUMPDEST SWAP1 MSTORE SWAP1 JUMP JUMPDEST PUSH1 0x40 DUP1 MLOAD PUSH1 0xC0 DUP2 ADD DUP3 MSTORE PUSH1 0x0 DUP1 DUP3 MSTORE PUSH1 0x20 DUP3 ADD DUP2 SWAP1 MSTORE SWAP2 DUP2 ADD DUP3 SWAP1 MSTORE PUSH1 0x60 DUP2 ADD DUP3 SWAP1 MSTORE PUSH1 0x80 DUP2 ADD DUP3 SWAP1 MSTORE PUSH1 0xA0 DUP2 ADD SWAP2 SWAP1 SWAP2 MSTORE SWAP1 JUMP JUMPDEST PUSH1 0x40 MLOAD DUP1 PUSH1 0x60 ADD PUSH1 0x40 MSTORE DUP1 PUSH1 0x0 DUP2 MSTORE PUSH1 0x20 ADD PUSH1 0x0 DUP2 MSTORE PUSH1 0x20 ADD PUSH1 0x0 DUP2 MSTORE POP SWAP1 JUMP JUMPDEST PUSH1 0x40 DUP1 MLOAD PUSH1 0xA0 DUP2 ADD DUP3 MSTORE PUSH1 0x0 DUP1 DUP3 MSTORE PUSH1 0x20 DUP3 ADD DUP2 SWAP1 MSTORE SWAP2 DUP2 ADD DUP3 SWAP1 MSTORE SWAP1 PUSH1 0x60 DUP3 ADD SWAP1 DUP2 MSTORE PUSH1 0x20 ADD PUSH1 0x0 DUP2 MSTORE POP SWAP1 JUMP JUMPDEST PUSH1 0x40 MLOAD DUP1 PUSH2 0x120 ADD PUSH1 0x40 MSTORE DUP1 PUSH1 0x0 DUP2 MSTORE PUSH1 0x20 ADD PUSH1 0x0 DUP2 MSTORE PUSH1 0x20 ADD PUSH1 0x0 DUP2 MSTORE PUSH1 0x20 ADD PUSH1 0x0 DUP2 MSTORE PUSH1 0x20 ADD PUSH1 0x0 DUP2 MSTORE PUSH1 0x20 ADD PUSH1 0x0 DUP2 MSTORE PUSH1 0x20 ADD PUSH1 0x0 DUP2 MSTORE PUSH1 0x20 ADD PUSH1 0x0 DUP2 MSTORE PUSH1 0x20 ADD PUSH1 0x0 DUP2 MSTORE POP SWAP1 JUMP JUMPDEST PUSH1 0x40 MLOAD DUP1 PUSH1 0x20 ADD PUSH1 0x40 MSTORE DUP1 PUSH1 0x1 SWAP1 PUSH1 0x20 DUP3 MUL DUP1 CALLDATASIZE DUP4 CALLDATACOPY POP SWAP2 SWAP3 SWAP2 POP POP JUMP JUMPDEST PUSH1 0x40 MLOAD DUP1 PUSH2 0x100 ADD PUSH1 0x40 MSTORE DUP1 PUSH1 0x0 DUP2 MSTORE PUSH1 0x20 ADD PUSH1 0x0 DUP2 MSTORE PUSH1 0x20 ADD PUSH1 0x0 DUP2 MSTORE PUSH1 0x20 ADD PUSH1 0x0 DUP2 MSTORE PUSH1 0x20 ADD PUSH1 0x0 DUP2 MSTORE PUSH1 0x20 ADD PUSH1 0x0 DUP2 MSTORE PUSH1 0x20 ADD PUSH1 0x0 DUP2 MSTORE PUSH1 0x20 ADD PUSH1 0x0 DUP2 MSTORE POP SWAP1 JUMP JUMPDEST DUP1 MLOAD PUSH2 0x7E2 DUP2 PUSH2 0x49A9 JUMP JUMPDEST PUSH1 0x0 DUP3 PUSH1 0x1F DUP4 ADD SLT PUSH2 0x4149 JUMPI DUP1 DUP2 REVERT JUMPDEST DUP2 MLOAD PUSH1 0x20 PUSH2 0x415E PUSH2 0x4159 DUP4 PUSH2 0x498B JUMP JUMPDEST PUSH2 0x4967 JUMP JUMPDEST DUP3 DUP2 MSTORE DUP2 DUP2 ADD SWAP1 DUP6 DUP4 ADD DUP4 DUP6 MUL DUP8 ADD DUP5 ADD DUP9 LT ISZERO PUSH2 0x417A JUMPI DUP6 DUP7 REVERT JUMPDEST DUP6 JUMPDEST DUP6 DUP2 LT ISZERO PUSH2 0x41A1 JUMPI DUP2 MLOAD PUSH2 0x418F DUP2 PUSH2 0x49A9 JUMP JUMPDEST DUP5 MSTORE SWAP3 DUP5 ADD SWAP3 SWAP1 DUP5 ADD SWAP1 PUSH1 0x1 ADD PUSH2 0x417C JUMP JUMPDEST POP SWAP1 SWAP8 SWAP7 POP POP POP POP POP POP POP JUMP JUMPDEST PUSH1 0x0 PUSH1 0x1F DUP4 DUP2 DUP5 ADD SLT PUSH2 0x41BF JUMPI DUP2 DUP3 REVERT JUMPDEST DUP3 MLOAD PUSH1 0x20 PUSH2 0x41CF PUSH2 0x4159 DUP4 PUSH2 0x498B JUMP JUMPDEST DUP3 DUP2 MSTORE DUP2 DUP2 ADD SWAP1 DUP7 DUP4 ADD DUP7 JUMPDEST DUP6 DUP2 LT ISZERO PUSH2 0x4274 JUMPI DUP2 MLOAD DUP10 ADD DUP11 PUSH1 0x3F DUP3 ADD SLT PUSH2 0x41F5 JUMPI DUP9 DUP10 REVERT JUMPDEST DUP6 DUP2 ADD MLOAD PUSH8 0xFFFFFFFFFFFFFFFF DUP2 GT ISZERO PUSH2 0x420B JUMPI INVALID JUMPDEST PUSH2 0x421C DUP2 DUP11 ADD PUSH1 0x1F NOT AND DUP9 ADD PUSH2 0x4967 JUMP JUMPDEST DUP2 DUP2 MSTORE PUSH1 0x40 DUP14 DUP2 DUP5 DUP7 ADD ADD GT ISZERO PUSH2 0x4231 JUMPI DUP12 DUP13 REVERT JUMPDEST DUP12 JUMPDEST DUP4 DUP2 LT ISZERO PUSH2 0x424E JUMPI DUP5 DUP2 ADD DUP3 ADD MLOAD DUP4 DUP3 ADD DUP12 ADD MSTORE DUP10 ADD PUSH2 0x4233 JUMP JUMPDEST DUP4 DUP2 GT ISZERO PUSH2 0x425E JUMPI DUP13 DUP11 DUP6 DUP6 ADD ADD MSTORE JUMPDEST POP POP DUP7 MSTORE POP POP SWAP3 DUP5 ADD SWAP3 SWAP1 DUP5 ADD SWAP1 PUSH1 0x1 ADD PUSH2 0x41DB JUMP JUMPDEST POP SWAP1 SWAP9 SWAP8 POP POP POP POP POP POP POP POP JUMP JUMPDEST DUP1 MLOAD PUSH2 0x7E2 DUP2 PUSH2 0x49C1 JUMP JUMPDEST DUP1 MLOAD PUSH1 0x1 PUSH1 0x1 PUSH1 0x70 SHL SUB NOT DUP2 AND DUP2 EQ PUSH2 0x7E2 JUMPI PUSH1 0x0 DUP1 REVERT JUMPDEST DUP1 MLOAD PUSH1 0x1 PUSH1 0x1 PUSH1 0xF8 SHL SUB NOT DUP2 AND DUP2 EQ PUSH2 0x7E2 JUMPI PUSH1 0x0 DUP1 REVERT JUMPDEST DUP1 MLOAD PUSH2 0x7E2 DUP2 PUSH2 0x49CF JUMP JUMPDEST DUP1 MLOAD PUSH1 0xFF DUP2 AND DUP2 EQ PUSH2 0x7E2 JUMPI PUSH1 0x0 DUP1 REVERT JUMPDEST PUSH1 0x0 PUSH1 0x20 DUP3 DUP5 SUB SLT ISZERO PUSH2 0x42EA JUMPI DUP1 DUP2 REVERT JUMPDEST DUP2 CALLDATALOAD PUSH2 0xDE9 DUP2 PUSH2 0x49A9 JUMP JUMPDEST PUSH1 0x0 DUP1 PUSH1 0x0 PUSH1 0x60 DUP5 DUP7 SUB SLT ISZERO PUSH2 0x4309 JUMPI DUP2 DUP3 REVERT JUMPDEST DUP4 CALLDATALOAD PUSH2 0x4314 DUP2 PUSH2 0x49A9 JUMP JUMPDEST SWAP3 POP PUSH1 0x20 DUP5 ADD CALLDATALOAD PUSH2 0x4324 DUP2 PUSH2 0x49CF JUMP JUMPDEST SWAP3 SWAP6 SWAP3 SWAP5 POP POP POP PUSH1 0x40 SWAP2 SWAP1 SWAP2 ADD CALLDATALOAD SWAP1 JUMP JUMPDEST PUSH1 0x0 DUP1 PUSH1 0x0 PUSH1 0x60 DUP5 DUP7 SUB SLT ISZERO PUSH2 0x4349 JUMPI DUP1 DUP2 REVERT JUMPDEST DUP4 CALLDATALOAD PUSH2 0x4354 DUP2 PUSH2 0x49A9 JUMP JUMPDEST SWAP3 POP PUSH1 0x20 DUP5 ADD CALLDATALOAD PUSH2 0x4364 DUP2 PUSH2 0x49CF JUMP JUMPDEST SWAP2 POP PUSH1 0x40 DUP5 ADD CALLDATALOAD PUSH1 0x1 PUSH1 0x1 PUSH1 0x60 SHL SUB DUP2 AND DUP2 EQ PUSH2 0x437F JUMPI DUP2 DUP3 REVERT JUMPDEST DUP1 SWAP2 POP POP SWAP3 POP SWAP3 POP SWAP3 JUMP JUMPDEST PUSH1 0x0 PUSH1 0x20 DUP1 DUP4 DUP6 SUB SLT ISZERO PUSH2 0x439C JUMPI DUP2 DUP3 REVERT JUMPDEST DUP3 MLOAD PUSH8 0xFFFFFFFFFFFFFFFF DUP1 DUP3 GT ISZERO PUSH2 0x43B3 JUMPI DUP4 DUP5 REVERT JUMPDEST DUP2 DUP6 ADD SWAP2 POP DUP6 PUSH1 0x1F DUP4 ADD SLT PUSH2 0x43C6 JUMPI DUP4 DUP5 REVERT JUMPDEST DUP2 MLOAD PUSH2 0x43D4 PUSH2 0x4159 DUP3 PUSH2 0x498B JUMP JUMPDEST DUP2 DUP2 MSTORE DUP5 DUP2 ADD SWAP1 DUP5 DUP7 ADD DUP8 JUMPDEST DUP5 DUP2 LT ISZERO PUSH2 0x4489 JUMPI DUP2 MLOAD DUP8 ADD PUSH1 0x80 DUP2 DUP14 SUB PUSH1 0x1F NOT ADD SLT ISZERO PUSH2 0x43FF JUMPI DUP10 DUP11 REVERT JUMPDEST PUSH1 0x40 DUP1 MLOAD PUSH1 0x80 DUP2 ADD DUP2 DUP2 LT DUP11 DUP3 GT OR ISZERO PUSH2 0x4415 JUMPI INVALID JUMPDEST DUP3 MSTORE DUP3 DUP12 ADD MLOAD DUP10 DUP2 GT ISZERO PUSH2 0x4427 JUMPI DUP13 DUP14 REVERT JUMPDEST PUSH2 0x4435 DUP16 DUP14 DUP4 DUP8 ADD ADD PUSH2 0x4139 JUMP JUMPDEST DUP3 MSTORE POP DUP2 DUP4 ADD MLOAD DUP10 DUP2 GT ISZERO PUSH2 0x4448 JUMPI DUP13 DUP14 REVERT JUMPDEST PUSH2 0x4456 DUP16 DUP14 DUP4 DUP8 ADD ADD PUSH2 0x41AE JUMP JUMPDEST DUP13 DUP4 ADD MSTORE POP PUSH1 0x60 DUP4 ADD MLOAD DUP3 DUP3 ADD MSTORE PUSH2 0x4470 PUSH1 0x80 DUP5 ADD PUSH2 0x412E JUMP JUMPDEST PUSH1 0x60 DUP3 ADD MSTORE DUP7 MSTORE POP POP SWAP3 DUP8 ADD SWAP3 SWAP1 DUP8 ADD SWAP1 PUSH1 0x1 ADD PUSH2 0x43E0 JUMP JUMPDEST POP SWAP1 SWAP10 SWAP9 POP POP POP POP POP POP POP POP POP JUMP JUMPDEST PUSH1 0x0 PUSH1 0x20 DUP3 DUP5 SUB SLT ISZERO PUSH2 0x44A9 JUMPI DUP1 DUP2 REVERT JUMPDEST DUP2 CALLDATALOAD PUSH2 0xDE9 DUP2 PUSH2 0x49C1 JUMP JUMPDEST PUSH1 0x0 PUSH1 0x20 DUP3 DUP5 SUB SLT ISZERO PUSH2 0x44C5 JUMPI DUP1 DUP2 REVERT JUMPDEST POP MLOAD SWAP2 SWAP1 POP JUMP JUMPDEST PUSH1 0x0 PUSH1 0xC0 DUP3 DUP5 SUB SLT ISZERO PUSH2 0x44DD JUMPI DUP1 DUP2 REVERT JUMPDEST PUSH1 0x40 MLOAD PUSH1 0xC0 DUP2 ADD DUP2 DUP2 LT PUSH8 0xFFFFFFFFFFFFFFFF DUP3 GT OR ISZERO PUSH2 0x44FA JUMPI INVALID JUMPDEST PUSH1 0x40 MSTORE DUP3 MLOAD PUSH5 0xFFFFFFFFFF DUP2 AND DUP2 EQ PUSH2 0x4511 JUMPI DUP3 DUP4 REVERT JUMPDEST DUP2 MSTORE PUSH2 0x451F PUSH1 0x20 DUP5 ADD PUSH2 0x42A5 JUMP JUMPDEST PUSH1 0x20 DUP3 ADD MSTORE PUSH2 0x4530 PUSH1 0x40 DUP5 ADD PUSH2 0x42C8 JUMP JUMPDEST PUSH1 0x40 DUP3 ADD MSTORE PUSH2 0x4541 PUSH1 0x60 DUP5 ADD PUSH2 0x42BD JUMP JUMPDEST PUSH1 0x60 DUP3 ADD MSTORE PUSH2 0x4552 PUSH1 0x80 DUP5 ADD PUSH2 0x428D JUMP JUMPDEST PUSH1 0x80 DUP3 ADD MSTORE PUSH2 0x4563 PUSH1 0xA0 DUP5 ADD PUSH2 0x4282 JUMP JUMPDEST PUSH1 0xA0 DUP3 ADD MSTORE SWAP4 SWAP3 POP POP POP JUMP JUMPDEST PUSH1 0x0 PUSH1 0x20 DUP3 DUP5 SUB SLT ISZERO PUSH2 0x4580 JUMPI DUP1 DUP2 REVERT JUMPDEST DUP2 CALLDATALOAD PUSH2 0xDE9 DUP2 PUSH2 0x49CF JUMP JUMPDEST PUSH1 0x0 DUP1 PUSH1 0x0 PUSH1 0x60 DUP5 DUP7 SUB SLT ISZERO PUSH2 0x459F JUMPI DUP1 DUP2 REVERT JUMPDEST DUP4 CALLDATALOAD PUSH2 0x45AA DUP2 PUSH2 0x49CF JUMP JUMPDEST SWAP3 POP PUSH1 0x20 DUP5 ADD CALLDATALOAD PUSH1 0x1 PUSH1 0x1 PUSH1 0x58 SHL SUB DUP2 AND DUP2 EQ PUSH2 0x45C5 JUMPI DUP2 DUP3 REVERT JUMPDEST SWAP2 POP PUSH1 0x40 DUP5 ADD CALLDATALOAD PUSH2 0x437F DUP2 PUSH2 0x49C1 JUMP JUMPDEST PUSH1 0x0 DUP1 PUSH1 0x40 DUP4 DUP6 SUB SLT ISZERO PUSH2 0x45E7 JUMPI DUP2 DUP3 REVERT JUMPDEST POP POP DUP1 MLOAD PUSH1 0x20 SWAP1 SWAP2 ADD MLOAD SWAP1 SWAP3 SWAP1 SWAP2 POP JUMP JUMPDEST PUSH1 0x1 PUSH1 0x1 PUSH1 0xA0 SHL SUB SWAP2 SWAP1 SWAP2 AND DUP2 MSTORE PUSH1 0x20 ADD SWAP1 JUMP JUMPDEST PUSH1 0x1 PUSH1 0x1 PUSH1 0xA0 SHL SUB SWAP5 DUP6 AND DUP2 MSTORE SWAP3 DUP5 AND PUSH1 0x20 DUP5 ADD MSTORE SWAP1 DUP4 AND PUSH1 0x40 DUP4 ADD MSTORE SWAP1 SWAP2 AND PUSH1 0x60 DUP3 ADD MSTORE PUSH1 0x80 ADD SWAP1 JUMP JUMPDEST PUSH1 0x1 PUSH1 0x1 PUSH1 0xA0 SHL SUB SWAP3 SWAP1 SWAP3 AND DUP3 MSTORE PUSH1 0x20 DUP3 ADD MSTORE PUSH1 0x40 ADD SWAP1 JUMP JUMPDEST PUSH1 0x0 PUSH1 0xE0 DUP3 ADD SWAP1 POP PUSH1 0x1 DUP1 PUSH1 0xA0 SHL SUB DUP5 AND DUP3 MSTORE PUSH5 0xFFFFFFFFFF DUP4 MLOAD AND PUSH1 0x20 DUP4 ADD MSTORE PUSH1 0xFF PUSH1 0xF8 SHL PUSH1 0x20 DUP5 ADD MLOAD AND PUSH1 0x40 DUP4 ADD MSTORE PUSH1 0xFF PUSH1 0x40 DUP5 ADD MLOAD AND PUSH1 0x60 DUP4 ADD MSTORE PUSH2 0xFFFF PUSH1 0x60 DUP5 ADD MLOAD AND PUSH1 0x80 DUP4 ADD MSTORE PUSH1 0x1 PUSH1 0x1 PUSH1 0x70 SHL SUB NOT PUSH1 0x80 DUP5 ADD MLOAD AND PUSH1 0xA0 DUP4 ADD MSTORE PUSH1 0xA0 DUP4 ADD MLOAD ISZERO ISZERO PUSH1 0xC0 DUP4 ADD MSTORE SWAP4 SWAP3 POP POP POP JUMP JUMPDEST PUSH1 0x1 PUSH1 0x1 PUSH1 0xA0 SHL SUB SWAP4 SWAP1 SWAP4 AND DUP4 MSTORE PUSH2 0xFFFF SWAP2 SWAP1 SWAP2 AND PUSH1 0x20 DUP4 ADD MSTORE PUSH1 0x40 DUP3 ADD MSTORE PUSH1 0x60 ADD SWAP1 JUMP JUMPDEST PUSH1 0x1 PUSH1 0x1 PUSH1 0xA0 SHL SUB SWAP6 SWAP1 SWAP6 AND DUP6 MSTORE PUSH2 0xFFFF SWAP4 SWAP1 SWAP4 AND PUSH1 0x20 DUP6 ADD MSTORE PUSH1 0x40 DUP5 ADD SWAP2 SWAP1 SWAP2 MSTORE PUSH1 0x60 DUP4 ADD MSTORE PUSH1 0x80 DUP3 ADD MSTORE PUSH1 0xA0 ADD SWAP1 JUMP JUMPDEST PUSH1 0x1 PUSH1 0x1 PUSH1 0xA0 SHL SUB SWAP5 SWAP1 SWAP5 AND DUP5 MSTORE PUSH1 0x20 DUP5 ADD SWAP3 SWAP1 SWAP3 MSTORE PUSH1 0x40 DUP4 ADD MSTORE PUSH1 0x60 DUP3 ADD MSTORE PUSH1 0x80 ADD SWAP1 JUMP JUMPDEST SWAP1 ISZERO ISZERO DUP2 MSTORE PUSH1 0x20 ADD SWAP1 JUMP JUMPDEST SWAP1 DUP2 MSTORE PUSH1 0x20 ADD SWAP1 JUMP JUMPDEST PUSH1 0x20 DUP1 DUP3 MSTORE PUSH1 0xF SWAP1 DUP3 ADD MSTORE PUSH15 0x4F76657220537570706C792043617 PUSH1 0x8C SHL PUSH1 0x40 DUP3 ADD MSTORE PUSH1 0x60 ADD SWAP1 JUMP JUMPDEST PUSH1 0x20 DUP1 DUP3 MSTORE PUSH1 0xB SWAP1 DUP3 ADD MSTORE PUSH11 0x4554482042616C616E6365 PUSH1 0xA8 SHL PUSH1 0x40 DUP3 ADD MSTORE PUSH1 0x60 ADD SWAP1 JUMP JUMPDEST PUSH1 0x20 DUP1 DUP3 MSTORE PUSH1 0x6 SWAP1 DUP3 ADD MSTORE PUSH6 0x52656465656D PUSH1 0xD0 SHL PUSH1 0x40 DUP3 ADD MSTORE PUSH1 0x60 ADD SWAP1 JUMP JUMPDEST PUSH1 0x20 DUP1 DUP3 MSTORE PUSH1 0x12 SWAP1 DUP3 ADD MSTORE PUSH18 0x43616E6E6F74206861766520617373657473 PUSH1 0x70 SHL PUSH1 0x40 DUP3 ADD MSTORE PUSH1 0x60 ADD SWAP1 JUMP JUMPDEST PUSH1 0x20 DUP1 DUP3 MSTORE PUSH1 0x13 SWAP1 DUP3 ADD MSTORE PUSH19 0x2AB730BABA3437B934BD32B21031B0B63632B9 PUSH1 0x69 SHL PUSH1 0x40 DUP3 ADD MSTORE PUSH1 0x60 ADD SWAP1 JUMP JUMPDEST PUSH1 0x20 DUP1 DUP3 MSTORE PUSH1 0xF SWAP1 DUP3 ADD MSTORE PUSH15 0x4E6F205072696D6520426F72726F77 PUSH1 0x88 SHL PUSH1 0x40 DUP3 ADD MSTORE PUSH1 0x60 ADD SWAP1 JUMP JUMPDEST PUSH1 0x20 DUP1 DUP3 MSTORE PUSH1 0x1C SWAP1 DUP3 ADD MSTORE PUSH32 0x446570726563617465643A2052656465656D20746F2063546F6B656E00000000 PUSH1 0x40 DUP3 ADD MSTORE PUSH1 0x60 ADD SWAP1 JUMP JUMPDEST PUSH1 0x20 DUP1 DUP3 MSTORE PUSH1 0x14 SWAP1 DUP3 ADD MSTORE PUSH20 0x43616E6E6F74206368616E6765206269746D617 PUSH1 0x64 SHL PUSH1 0x40 DUP3 ADD MSTORE PUSH1 0x60 ADD SWAP1 JUMP JUMPDEST PUSH1 0x20 DUP1 DUP3 MSTORE PUSH1 0x10 SWAP1 DUP3 ADD MSTORE PUSH16 0x10D85B9B9BDD081A185D99481919589D PUSH1 0x82 SHL PUSH1 0x40 DUP3 ADD MSTORE PUSH1 0x60 ADD SWAP1 JUMP JUMPDEST PUSH1 0x20 DUP1 DUP3 MSTORE PUSH1 0xA SWAP1 DUP3 ADD MSTORE PUSH10 0x2732B390372A37B5B2B7 PUSH1 0xB1 SHL PUSH1 0x40 DUP3 ADD MSTORE PUSH1 0x60 ADD SWAP1 JUMP JUMPDEST PUSH1 0x20 DUP1 DUP3 MSTORE PUSH1 0x13 SWAP1 DUP3 ADD MSTORE PUSH19 0x125B9D985B1A590818DD5C9C995B98DE481A59 PUSH1 0x6A SHL PUSH1 0x40 DUP3 ADD MSTORE PUSH1 0x60 ADD SWAP1 JUMP JUMPDEST PUSH1 0x20 DUP1 DUP3 MSTORE PUSH1 0x13 SWAP1 DUP3 ADD MSTORE PUSH19 0x496E73756666696369656E7420746F6B656E73 PUSH1 0x68 SHL PUSH1 0x40 DUP3 ADD MSTORE PUSH1 0x60 ADD SWAP1 JUMP JUMPDEST SWAP3 DUP4 MSTORE PUSH1 0x20 DUP4 ADD SWAP2 SWAP1 SWAP2 MSTORE PUSH1 0x40 DUP3 ADD MSTORE PUSH1 0x60 ADD SWAP1 JUMP JUMPDEST PUSH1 0x40 MLOAD DUP2 DUP2 ADD PUSH8 0xFFFFFFFFFFFFFFFF DUP2 GT DUP3 DUP3 LT OR ISZERO PUSH2 0x4983 JUMPI INVALID JUMPDEST PUSH1 0x40 MSTORE SWAP2 SWAP1 POP JUMP JUMPDEST PUSH1 0x0 PUSH8 0xFFFFFFFFFFFFFFFF DUP3 GT ISZERO PUSH2 0x499F JUMPI INVALID JUMPDEST POP PUSH1 0x20 SWAP1 DUP2 MUL ADD SWAP1 JUMP JUMPDEST PUSH1 0x1 PUSH1 0x1 PUSH1 0xA0 SHL SUB DUP2 AND DUP2 EQ PUSH2 0x49BE JUMPI PUSH1 0x0 DUP1 REVERT JUMPDEST POP JUMP JUMPDEST DUP1 ISZERO ISZERO DUP2 EQ PUSH2 0x49BE JUMPI PUSH1 0x0 DUP1 REVERT JUMPDEST PUSH2 0xFFFF DUP2 AND DUP2 EQ PUSH2 0x49BE JUMPI PUSH1 0x0 DUP1 REVERT INVALID LOG2 PUSH5 0x6970667358 0x22 SLT KECCAK256 STOP SWAP7 0xCB PUSH14 0x306A0087A0AC2F93AE578EE4486D ADD PUSH19 0xD7E4059D7882532803DBA52A64736F6C634300 SMOD MOD STOP CALLER ","sha1":"7e58c10a33d43cd2a51d5f99b4a8dcef53db7292","source":"// SPDX-License-Identifier: BSUL-1.1\npragma solidity =0.7.6;\npragma abicoder v2;\n\nimport {\n    BalanceState,\n    AccountContext,\n    PortfolioAsset,\n    PrimeRate\n} from \"../../global/Types.sol\";\nimport {Constants} from \"../../global/Constants.sol\";\nimport {SafeInt256} from \"../../math/SafeInt256.sol\";\n\nimport {Emitter} from \"../../internal/Emitter.sol\";\nimport {TransferAssets} from \"../../internal/portfolio/TransferAssets.sol\";\nimport {BalanceHandler} from \"../../internal/balances/BalanceHandler.sol\";\nimport {nTokenHandler} from \"../../internal/nToken/nTokenHandler.sol\";\nimport {PrimeRateLib} from \"../../internal/pCash/PrimeRateLib.sol\";\nimport {AccountContextHandler} from \"../../internal/AccountContextHandler.sol\";\n\nimport {ActionGuards} from \"./ActionGuards.sol\";\nimport {nTokenRedeemAction} from \"./nTokenRedeemAction.sol\";\nimport {SettleAssetsExternal} from \"../SettleAssetsExternal.sol\";\nimport {FreeCollateralExternal} from \"../FreeCollateralExternal.sol\";\nimport {MigrateIncentives} from \"../MigrateIncentives.sol\";\n\ncontract AccountAction is ActionGuards {\n    using BalanceHandler for BalanceState;\n    using AccountContextHandler for AccountContext;\n    using PrimeRateLib for PrimeRate;\n    using SafeInt256 for int256;\n\n    /// @notice A per account setting that allows it to borrow prime cash (i.e. incur negative cash)\n    /// as a result of account initiated actions. Accounts can still incur negative cash as a result of\n    /// fCash settlement regardless of this setting.\n    /// @param allowPrimeBorrow true if the account can borrow prime cash\n    /// @dev emit:AccountSettled emit:AccountContextUpdate\n    /// @dev auth:msg.sender\n    function enablePrimeBorrow(bool allowPrimeBorrow) external {\n        require(msg.sender != address(this)); // dev: no internal call\n        requireValidAccount(msg.sender);\n        (AccountContext memory accountContext, /* didSettle */) = _settleAccountIfRequired(msg.sender);\n        accountContext.allowPrimeBorrow = allowPrimeBorrow;\n        accountContext.setAccountContext(msg.sender);\n    }\n\n    /// @notice Enables a bitmap currency for msg.sender, account cannot have any assets when this call\n    /// occurs. Will revert if the account already has a bitmap currency set.\n    /// @param currencyId the currency to enable the bitmap for.\n    /// @dev emit:AccountSettled emit:AccountContextUpdate\n    /// @dev auth:msg.sender\n    function enableBitmapCurrency(uint16 currencyId) external {\n        require(msg.sender != address(this)); // dev: no internal call to enableBitmapCurrency\n        require(currencyId <= maxCurrencyId); // dev: invalid currency id\n        address account = msg.sender;\n        (AccountContext memory accountContext, /* didSettle */) = _settleAccountIfRequired(account);\n        accountContext.enableBitmapForAccount(currencyId, block.timestamp);\n        accountContext.setAccountContext(account);\n    }\n\n    /// @notice Method for manually settling an account, generally should not be called because other\n    /// methods will check if an account needs to be settled automatically. If a bitmap account has debt\n    /// and is settled via this method, the hasDebt flag will not be cleared until a free collateral check\n    /// is performed on the account.\n    /// @param account the account to settle\n    /// @dev emit:AccountSettled emit:AccountContextUpdate\n    /// @dev auth:none\n    /// @return returns true if account has been settled\n    function settleAccount(address account) external returns (bool) {\n        requireValidAccount(account);\n        (AccountContext memory accountContext, bool didSettle) = _settleAccountIfRequired(account);\n        if (didSettle) accountContext.setAccountContext(account);\n        return didSettle;\n    }\n\n    /// @notice Deposits and wraps the underlying token for a particular cToken. Does not settle assets or check free\n    /// collateral, idea is to be as gas efficient as possible during potential liquidation events.\n    /// @param account the account to deposit into\n    /// @param currencyId currency id of the asset token that wraps this underlying\n    /// @param amountExternalPrecision the amount of underlying tokens in its native decimal precision\n    /// (i.e. 18 decimals for DAI or 6 decimals for USDC). This will be converted to 8 decimals during transfer.\n    /// @return asset tokens minted and deposited to the account in internal decimals (8)\n    /// @dev emit:CashBalanceChange emit:AccountContextUpdate\n    /// @dev auth:none\n    function depositUnderlyingToken(\n        address account,\n        uint16 currencyId,\n        uint256 amountExternalPrecision\n    ) external payable nonReentrant returns (uint256) {\n        require(msg.sender != address(this)); // dev: no internal call to deposit underlying\n        // Only the account can deposit into its balance, donations are not allowed.\n        require(msg.sender == account); // dev: unauthorized\n        requireValidAccount(account);\n\n        AccountContext memory accountContext = AccountContextHandler.getAccountContext(account);\n        BalanceState memory balanceState;\n        balanceState.loadBalanceState(account, currencyId, accountContext);\n\n        // NOTE: using msg.sender here allows for a different sender to deposit tokens into\n        // the specified account. This may be useful for on-demand collateral top ups from a\n        // third party.\n        int256 primeCashReceived = balanceState.depositUnderlyingToken(\n            account,\n            SafeInt256.toInt(amountExternalPrecision),\n            false // there should never be excess ETH here by definition\n        );\n\n        require(primeCashReceived > 0); // dev: asset tokens negative or zero\n\n        balanceState.finalizeNoWithdraw(account, accountContext);\n        accountContext.setAccountContext(account);\n\n        // Check the supply cap after all balances have been finalized\n        balanceState.primeRate.checkSupplyCap(currencyId);\n\n        // NOTE: no free collateral checks required for depositing\n        return primeCashReceived.toUint();\n    }\n\n    /// @notice DEPRECATED: deposits deprecated cTokens tokens as collateral into an account that\n    /// were listed prior to the migration to prime cash. Future listed tokens will not have asset\n    /// tokens and will revert in this method.\n    /// @param account the account to deposit into\n    /// @param currencyId currency id of the asset token\n    /// @param amountExternalPrecision the amount of asset tokens in its native decimal precision\n    /// (i.e. 8 decimals for cTokens).\n    /// @return asset tokens minted and deposited to the account in internal decimals (8)\n    /// @dev emit:CashBalanceChange emit:AccountContextUpdate\n    /// @dev auth:none\n    function depositAssetToken(\n        address account,\n        uint16 currencyId,\n        uint256 amountExternalPrecision\n    ) external nonReentrant returns (uint256) {\n        require(msg.sender != address(this)); // dev: no internal call to deposit asset\n        // Only the account can deposit into its balance, donations are not allowed.\n        require(msg.sender == account); // dev: unauthorized\n        requireValidAccount(account);\n\n        AccountContext memory accountContext = AccountContextHandler.getAccountContext(account);\n        BalanceState memory balanceState;\n        balanceState.loadBalanceState(account, currencyId, accountContext);\n\n        // Int conversion overflow check done inside this method call. msg.sender\n        // is used as the account in deposit to allow for other accounts to deposit\n        // on behalf of the given account. This always does an immediate transfer\n        // and marks the net prime cash change on the balance state.\n        int256 primeCashReceived = balanceState.depositDeprecatedAssetToken(\n            account,\n            SafeInt256.toInt(amountExternalPrecision)\n        );\n\n        require(primeCashReceived > 0); // dev: asset tokens negative or zero\n\n        balanceState.finalizeNoWithdraw(account, accountContext);\n        accountContext.setAccountContext(account);\n\n        // Check the supply cap after all balances have been finalized\n        balanceState.primeRate.checkSupplyCap(currencyId);\n\n        // NOTE: no free collateral checks required for depositing\n        return primeCashReceived.toUint();\n    }\n\n    /// @notice Withdraws balances from Notional, may also redeem to underlying tokens on user request. Will settle\n    /// and do free collateral checks if required. Can only be called by msg.sender, operators who want to withdraw for\n    /// an account must do an authenticated call via ERC1155Action `safeTransferFrom` or `safeBatchTransferFrom`\n    /// @param currencyId currency id of the asset token\n    /// @param amountInternalPrecision the amount of cash balance in internal 8 decimal precision to withdraw,\n    /// this is be denominated in prime cash. If set to uint88 max, will withdraw an entire cash balance.\n    /// @param redeemToUnderlying DEPRECATED except for ETH balances. Prior to the prime cash upgrade, accounts could withdraw\n    /// cTokens directly. However, post prime cash migration this is no longer the case. If withdrawing ETH, setting redeemToUnderlying\n    /// to false will redeem ETH as WETH.\n    /// @dev emit:CashBalanceChange emit:AccountContextUpdate\n    /// @dev auth:msg.sender\n    /// @return the amount of tokens received by the account denominated in the destination token precision (if\n    // redeeming to underlying the amount will be the underlying amount received in that token's native precision)\n    function withdraw(\n        uint16 currencyId,\n        uint88 amountInternalPrecision,\n        bool redeemToUnderlying\n    ) external nonReentrant returns (uint256) {\n        if (currencyId != Constants.ETH_CURRENCY_ID) {\n            require(redeemToUnderlying, \"Deprecated: Redeem to cToken\");\n        }\n        // This happens before reading the balance state to get the most up to date cash balance\n        (AccountContext memory accountContext, /* didSettle */) = _settleAccountIfRequired(msg.sender);\n\n        BalanceState memory balanceState;\n        balanceState.loadBalanceState(msg.sender, currencyId, accountContext);\n        if (amountInternalPrecision == type(uint88).max) {\n            // if set to uint88 max, withdraw the full stored balance. This feature only\n            // works if there is a positive balance\n            require(balanceState.storedCashBalance > 0);\n            balanceState.primeCashWithdraw = balanceState.storedCashBalance.neg();\n        } else {\n            // Overflow is not possible due to uint88\n            balanceState.primeCashWithdraw = int256(amountInternalPrecision).neg();\n        }\n\n        int256 underlyingWithdrawnExternal = balanceState.finalizeWithWithdraw(\n            msg.sender, accountContext, !redeemToUnderlying\n        );\n\n        accountContext.setAccountContext(msg.sender);\n\n        if (accountContext.hasDebt != 0x00) {\n            FreeCollateralExternal.checkFreeCollateralAndRevert(msg.sender);\n        }\n\n        require(underlyingWithdrawnExternal <= 0);\n\n        // No need to check supply caps\n        return underlyingWithdrawnExternal.neg().toUint();\n    }\n\n    /// @notice Allows accounts to redeem nTokens to prime cash while the supply cap is breached. This\n    /// method does not withdraw any tokens from the contract. Will revert if fCash cannot be sold back\n    /// into the market.\n    /// @param redeemer the address that holds the nTokens to redeem\n    /// @param currencyId the currency associated the nToken\n    /// @param tokensToRedeem_ the amount of nTokens to convert to cash\n    /// @dev auth:msg.sender auth:ERC1155\n    /// @return total amount of prime cash redeemed\n    function nTokenRedeem(\n        address redeemer,\n        uint16 currencyId,\n        uint96 tokensToRedeem_\n    ) external nonReentrant returns (int256) {\n        // ERC1155 can call this method during a post transfer event\n        require(msg.sender == redeemer || msg.sender == address(this), \"Unauthorized caller\");\n        int256 tokensToRedeem = int256(tokensToRedeem_);\n\n        (AccountContext memory context, /* didSettle */) = _settleAccountIfRequired(redeemer);\n\n        BalanceState memory balance;\n        balance.loadBalanceState(redeemer, currencyId, context);\n\n        require(balance.storedNTokenBalance >= tokensToRedeem, \"Insufficient tokens\");\n        balance.netNTokenSupplyChange = tokensToRedeem.neg();\n\n        int256 totalPrimeCash = nTokenRedeemAction.nTokenRedeemViaBatch(\n            redeemer, currencyId, tokensToRedeem\n        );\n\n        // Set balances before transferring assets\n        balance.netCashChange = totalPrimeCash;\n        balance.finalizeNoWithdraw(redeemer, context);\n\n        context.setAccountContext(redeemer);\n        if (context.hasDebt != 0x00) {\n            FreeCollateralExternal.checkFreeCollateralAndRevert(redeemer);\n        }\n\n        return totalPrimeCash;\n    }\n\n    /// @notice Settle the account if required, returning a reference to the account context. Also\n    /// returns a boolean to indicate if it did settle.\n    function _settleAccountIfRequired(address account)\n        private\n        returns (AccountContext memory, bool)\n    {\n        AccountContext memory accountContext = AccountContextHandler.getAccountContext(account);\n        if (accountContext.mustSettleAssets()) {\n            return (SettleAssetsExternal.settleAccount(account, accountContext), true);\n        } else {\n            return (accountContext, false);\n        }\n    }\n\n    /// @notice Get a list of deployed library addresses (sorted by library name)\n    function getLibInfo() external pure returns (address, address, address, address) {\n        return (\n            address(FreeCollateralExternal),\n            address(MigrateIncentives), \n            address(SettleAssetsExternal), \n            address(nTokenRedeemAction)\n        );\n    }\n}\n","sourcePath":"contracts/external/actions/AccountAction.sol","type":"contract","deployment":{"address":"0x62E7Efb55dd01BE1c79e92cfB110ad1A395a4ceD","chainid":"42161","blockHeight":172703988}}