{"abi":[{"anonymous":false,"inputs":[{"indexed":true,"internalType":"uint16","name":"currencyId","type":"uint16"},{"indexed":false,"internalType":"address","name":"assetToken","type":"address"},{"indexed":false,"internalType":"uint256","name":"harvestAmount","type":"uint256"}],"name":"AssetInterestHarvested","type":"event"},{"anonymous":false,"inputs":[{"indexed":false,"internalType":"uint16","name":"currencyId","type":"uint16"},{"indexed":false,"internalType":"uint256","name":"supplyFactor","type":"uint256"},{"indexed":false,"internalType":"uint256","name":"annualizedInterestRate","type":"uint256"}],"name":"CurrencyRebalanced","type":"event"},{"anonymous":false,"inputs":[{"indexed":true,"internalType":"uint16","name":"currencyId","type":"uint16"},{"indexed":false,"internalType":"int256","name":"harvestAmount","type":"int256"}],"name":"ExcessReserveBalanceHarvested","type":"event"},{"anonymous":false,"inputs":[{"indexed":false,"internalType":"uint16","name":"currencyId","type":"uint16"},{"indexed":false,"internalType":"uint40","name":"cooldownTimeInSeconds","type":"uint40"}],"name":"RebalancingCooldownUpdated","type":"event"},{"anonymous":false,"inputs":[{"indexed":false,"internalType":"uint16","name":"currencyId","type":"uint16"},{"components":[{"internalType":"address","name":"holding","type":"address"},{"internalType":"uint8","name":"targetUtilization","type":"uint8"},{"internalType":"uint16","name":"externalWithdrawThreshold","type":"uint16"}],"indexed":false,"internalType":"struct NotionalTreasury.RebalancingTargetConfig[]","name":"targets","type":"tuple[]"}],"name":"RebalancingTargetsUpdated","type":"event"},{"anonymous":false,"inputs":[{"indexed":true,"internalType":"uint16","name":"currencyId","type":"uint16"},{"indexed":false,"internalType":"int256","name":"newBalance","type":"int256"}],"name":"ReserveBalanceUpdated","type":"event"},{"anonymous":false,"inputs":[{"indexed":false,"internalType":"uint16","name":"currencyId","type":"uint16"},{"indexed":false,"internalType":"uint256","name":"bufferAmount","type":"uint256"}],"name":"ReserveBufferUpdated","type":"event"},{"anonymous":false,"inputs":[{"indexed":true,"internalType":"address","name":"previousManager","type":"address"},{"indexed":true,"internalType":"address","name":"newManager","type":"address"}],"name":"TreasuryManagerChanged","type":"event"},{"anonymous":false,"inputs":[{"indexed":false,"internalType":"uint16","name":"currencyId","type":"uint16"},{"indexed":false,"internalType":"uint32","name":"newEmissionRate","type":"uint32"}],"name":"UpdateIncentiveEmissionRate","type":"event"},{"anonymous":false,"inputs":[{"indexed":true,"internalType":"uint16","name":"currencyId","type":"uint16"},{"indexed":false,"internalType":"address","name":"rewarder","type":"address"}],"name":"UpdateSecondaryIncentiveRewarder","type":"event"},{"inputs":[],"name":"checkRebalance","outputs":[{"internalType":"uint16[]","name":"currencyIdsForRebalance","type":"uint16[]"}],"stateMutability":"view","type":"function"},{"inputs":[{"internalType":"uint16[]","name":"currencies","type":"uint16[]"}],"name":"harvestAssetInterest","outputs":[],"stateMutability":"nonpayable","type":"function"},{"inputs":[],"name":"owner","outputs":[{"internalType":"address","name":"","type":"address"}],"stateMutability":"view","type":"function"},{"inputs":[],"name":"pauseGuardian","outputs":[{"internalType":"address","name":"","type":"address"}],"stateMutability":"view","type":"function"},{"inputs":[],"name":"pauseRouter","outputs":[{"internalType":"address","name":"","type":"address"}],"stateMutability":"view","type":"function"},{"inputs":[{"internalType":"uint16","name":"currencyId","type":"uint16"}],"name":"rebalance","outputs":[],"stateMutability":"nonpayable","type":"function"},{"inputs":[],"name":"rebalancingBot","outputs":[{"internalType":"address","name":"","type":"address"}],"stateMutability":"view","type":"function"},{"inputs":[{"internalType":"address","name":"_rebalancingBot","type":"address"}],"name":"setRebalancingBot","outputs":[],"stateMutability":"nonpayable","type":"function"},{"inputs":[{"internalType":"uint16","name":"currencyId","type":"uint16"},{"internalType":"uint40","name":"cooldownTimeInSeconds","type":"uint40"}],"name":"setRebalancingCooldown","outputs":[],"stateMutability":"nonpayable","type":"function"},{"inputs":[{"internalType":"uint16","name":"currencyId","type":"uint16"},{"components":[{"internalType":"address","name":"holding","type":"address"},{"internalType":"uint8","name":"targetUtilization","type":"uint8"},{"internalType":"uint16","name":"externalWithdrawThreshold","type":"uint16"}],"internalType":"struct NotionalTreasury.RebalancingTargetConfig[]","name":"targets","type":"tuple[]"}],"name":"setRebalancingTargets","outputs":[],"stateMutability":"nonpayable","type":"function"},{"inputs":[{"internalType":"uint16","name":"currencyId","type":"uint16"},{"internalType":"uint256","name":"bufferAmount","type":"uint256"}],"name":"setReserveBuffer","outputs":[],"stateMutability":"nonpayable","type":"function"},{"inputs":[{"internalType":"uint16","name":"currencyId","type":"uint16"},{"internalType":"int256","name":"newBalance","type":"int256"}],"name":"setReserveCashBalance","outputs":[],"stateMutability":"nonpayable","type":"function"},{"inputs":[{"internalType":"uint16","name":"currencyId","type":"uint16"},{"internalType":"contract IRewarder","name":"rewarder","type":"address"}],"name":"setSecondaryIncentiveRewarder","outputs":[],"stateMutability":"nonpayable","type":"function"},{"inputs":[{"internalType":"address","name":"manager","type":"address"}],"name":"setTreasuryManager","outputs":[],"stateMutability":"nonpayable","type":"function"},{"inputs":[{"internalType":"uint16[]","name":"currencies","type":"uint16[]"}],"name":"transferReserveToTreasury","outputs":[{"internalType":"uint256[]","name":"","type":"uint256[]"}],"stateMutability":"nonpayable","type":"function"},{"inputs":[{"internalType":"uint16","name":"currencyId","type":"uint16"},{"internalType":"uint32","name":"newEmissionRate","type":"uint32"}],"name":"updateIncentiveEmissionRate","outputs":[],"stateMutability":"nonpayable","type":"function"}],"bytecode":"608060405234801561001057600080fd5b50614cb1806100206000396000f3fe608060405234801561001057600080fd5b50600436106101005760003560e01c80638da5cb5b11610097578063a9efba3211610066578063a9efba32146101ef578063bc74bdeb14610202578063f5edb9d51461020a578063fe47a9f21461021d57610100565b80638da5cb5b146101ac5780638e73b23c146101b4578063a56c077f146101c7578063a9d7bc52146101dc57610100565b806366346a5c116100d357806366346a5c1461015e5780636d7a00eb146101715780637090f0051461019157806382463367146101a457610100565b8063038af5dc1461010557806312adc47b1461011a57806324a3d6221461012d5780633a1e42971461014b575b600080fd5b6101186101133660046147a4565b610230565b005b6101186101283660046147dc565b610501565b610135610549565b60405161014291906148e7565b60405180910390f35b61011861015936600461458b565b610558565b61011861016c3660046146ea565b610665565b61018461017f36600461458b565b6106b7565b60405161014291906149d6565b61011861019f3660046142db565b61087b565b6101356108ce565b6101356108dd565b6101186101c23660046147dc565b6108f3565b6101cf610981565b604051610142919061498e565b6101186101ea366004614807565b610c02565b6101186101fd36600461483c565b610cd2565b610135610d73565b610118610218366004614722565b610d82565b61011861022b3660046142db565b610f95565b600054600160201b90046001600160a01b0316331461026a5760405162461bcd60e51b815260040161026190614a4f565b60405180910390fd5b61027382611022565b60006102828361ffff1661105f565b90506001600160a01b0382161561042657816001600160a01b0316639d4be3f56040518163ffffffff1660e01b8152600401602060405180830381600087803b1580156102ce57600080fd5b505af11580156102e2573d6000803e3d6000fd5b505050506040513d601f19601f820116820180604052508101906103069190614706565b61ffff168361ffff161461031957600080fd5b816001600160a01b0316631c9219766040518163ffffffff1660e01b8152600401602060405180830381600087803b15801561035457600080fd5b505af1158015610368573d6000803e3d6000fd5b505050506040513d601f19601f8201168201806040525081019061038c91906142f7565b6001600160a01b0316816001600160a01b0316146103a957600080fd5b816001600160a01b031663432cc1b36040518163ffffffff1660e01b8152600401602060405180830381600087803b1580156103e457600080fd5b505af11580156103f8573d6000803e3d6000fd5b505050506040513d601f19601f8201168201806040525081019061041c91906145f9565b1561042657600080fd5b60006104318261108c565b9050806001600160a01b0316836001600160a01b0316141561045257600080fd5b6001600160a01b038116156104b557806001600160a01b031663225435c06040518163ffffffff1660e01b8152600401600060405180830381600087803b15801561049c57600080fd5b505af11580156104b0573d6000803e3d6000fd5b505050505b6104bf84846110fe565b8361ffff167f972af272071de4b82ff83458c3a6de8ba183a9c7dc724d4cf91d25f524a810e1846040516104f391906148e7565b60405180910390a250505050565b600054600160201b90046001600160a01b031633146105325760405162461bcd60e51b815260040161026190614a4f565b61053b82611022565b61054582826111a1565b5050565b6002546001600160a01b031681565b600b546001600160a01b031633146105825760405162461bcd60e51b815260040161026190614a18565b6002600a54141561059257600080fd5b6002600a5560005b8181101561065b578015610612578282600183038181106105b757fe5b90506020020160208101906105cc91906146ea565b61ffff168383838181106105dc57fe5b90506020020160208101906105f191906146ea565b61ffff16116106125760405162461bcd60e51b815260040161026190614a84565b600083838381811061062057fe5b905060200201602081019061063591906146ea565b905061064081611022565b6106528161064d836111e7565b611217565b5060010161059a565b50506001600a5550565b6002600a54141561067557600080fd5b6002600a55600e546001600160a01b031633146106a45760405162461bcd60e51b8152600401610261906149f2565b6106af8160016113ca565b506001600a55565b600b546060906001600160a01b031633146106e45760405162461bcd60e51b815260040161026190614a18565b6002600a5414156106f457600080fd5b6002600a556000826001600160401b038111801561071157600080fd5b5060405190808252806020026020018201604052801561073b578160200160208202803683370190505b50905060005b8381101561086e5780156107b95784846001830381811061075e57fe5b905060200201602081019061077391906146ea565b61ffff1685858381811061078357fe5b905060200201602081019061079891906146ea565b61ffff16116107b95760405162461bcd60e51b815260040161026190614a84565b60008585838181106107c757fe5b90506020020160208101906107dc91906146ea565b90506107e781611022565b61ffff81166000908152600c602052604081205461080490611519565b905080610812575050610866565b6000610820610fee84611533565b905081811361083157505050610866565b81810361083e848261158c565b86868151811061084a57fe5b6020026020010181815250506108618483836115fe565b505050505b600101610741565b506001600a559392505050565b600054600160201b90046001600160a01b031633146108ac5760405162461bcd60e51b815260040161026190614a4f565b600e80546001600160a01b0319166001600160a01b0392909216919091179055565b6001546001600160a01b031681565b600054600160201b90046001600160a01b031681565b600054600160201b90046001600160a01b031633146109245760405162461bcd60e51b815260040161026190614a4f565b61092d82611022565b61ffff82166000908152600c602052604090819020829055517ffd37f6bc518c96b848c133a7d44a5a9b5acea171be7dc45e363f153347ed7641906109759084908490614b8c565b60405180910390a15050565b6060600061098d611658565b600080549192509061ffff166001600160401b03811180156109ae57600080fd5b506040519080825280602002602001820160405280156109d8578160200160208202803683370190505b509050600060015b60005461ffff90811690821611610b525760006109fc826111e7565b90506000816001600160a01b031663e79bf13b6040518163ffffffff1660e01b815260040160006040518083038186803b158015610a3957600080fd5b505afa158015610a4d573d6000803e3d6000fd5b505050506040513d6000823e601f3d908101601f19168201604052610a759190810190614313565b9050805160001415610a88575050610b4a565b61ffff8316600090815260208781526040808320815160608101835281546001600160801b038116825264ffffffffff600160801b8204811695830195909552600160a81b9004909316918301919091529190610ae490611665565b9050600080610af38742611698565b915091506000610b0588888585611756565b505090508380610b125750805b15610b4257878a8a61ffff1681518110610b2857fe5b61ffff909216602092830291909101909101526001909801975b505050505050505b6001016109e0565b5061ffff811615610bfc578061ffff166001600160401b0381118015610b7757600080fd5b50604051908082528060200260200182016040528015610ba1578160200160208202803683370190505b50935060005b8161ffff168161ffff161015610bfa57828161ffff1681518110610bc757fe5b6020026020010151858261ffff1681518110610bdf57fe5b61ffff90921660209283029190910190910152600101610ba7565b505b50505090565b600054600160201b90046001600160a01b03163314610c335760405162461bcd60e51b815260040161026190614a4f565b610c3c82611022565b6000610c4b8361ffff1661105f565b90506001600160a01b038116610c6057600080fd5b6305f5e1008263ffffffff1612610c895760405162461bcd60e51b815260040161026190614ab0565b610c948183426118f5565b7f713f9554d16202d36a895476ec29ce9250f47d35422e2d9409e8f644d6aab6898383604051610cc5929190614bbc565b60405180910390a1505050565b600054600160201b90046001600160a01b03163314610d035760405162461bcd60e51b815260040161026190614a4f565b6000610d0d611658565b61ffff841660009081526020829052604090819020805464ffffffffff60801b1916600160801b64ffffffffff871602179055519091507f16b1cf4cbff8df027f5bec1791dc85fa6b5f625fba6bc942c10482ccfe6814b290610cc59085908590614bd6565b600e546001600160a01b031681565b600054600160201b90046001600160a01b03163314610db35760405162461bcd60e51b815260040161026190614a4f565b6000610dbe846111e7565b6001600160a01b031663e79bf13b6040518163ffffffff1660e01b815260040160006040518083038186803b158015610df657600080fd5b505afa158015610e0a573d6000803e3d6000fd5b505050506040513d6000823e601f3d908101601f19168201604052610e329190810190614313565b600081518110610e3e57fe5b6020026020010151905082829050600114610e5857600080fd5b6000610e6261194b565b61ffff8616600090815260209190915260408120915084848281610e8257fe5b905060600201803603810190610e989190614680565b9050826001600160a01b031681600001516001600160a01b031614610ebc57600080fd5b6064816020015160ff1610610ed057600080fd5b806040015161ffff16606410610ee557600080fd5b60408051808201825260208381015160ff90811683528484015161ffff9081168385019081526001600160a01b0389166000908152938890529285902093518454935160ff1990941692169190911762ffff0019166101009290911691909102179055517fa5f15810b13ba448589d874f328fe0aa2bde8cd3583a77cefde9b02cdd8d679790610f7a90889088908890614b03565b60405180910390a1610f8d8660006113ca565b505050505050565b600054600160201b90046001600160a01b03163314610fc65760405162461bcd60e51b815260040161026190614a4f565b600b546040516001600160a01b038084169216907ff92cfddd8d7ab2f6e4fd488959c76c8033aaaa6dad691a0cbd1fc68f194b3d0c90600090a3600b80546001600160a01b0319166001600160a01b0392909216919091179055565b8061ffff166000108015611040575060005461ffff90811690821611155b61105c5760405162461bcd60e51b815260040161026190614ad6565b50565b60008061106a611958565b600084815260209190915260409020546001600160a01b03169150505b919050565b600080611097611965565b6001600160a01b0384166000908152602082905260409020805491925090600160f81b900460ff16156110f3576110cc611972565b6001600160a01b038086166000908152602092909252604090912054169250611087915050565b600092505050611087565b600061110d8361ffff1661105f565b90506001600160a01b03811661112257600080fd5b600061112c611965565b6001600160a01b03838116600090815260208390526040902080546001600160f81b03169186161515600160f81b029190911781559091508361116d611972565b6001600160a01b0394851660009081526020919091526040902080546001600160a01b031916919094161790925550505050565b60008112156111af57600080fd5b60006111bd610fee84611533565b90506111cc610fee848461197f565b6111e2610fee846111dd85856119f3565b611a09565b505050565b6000806111f2611a93565b61ffff939093166000908152602093909352505060409020546001600160a01b031690565b6000816001600160a01b031663e79bf13b6040518163ffffffff1660e01b815260040160006040518083038186803b15801561125257600080fd5b505afa158015611266573d6000803e3d6000fd5b505050506040513d6000823e601f3d908101601f1916820160405261128e9190810190614313565b905060005b81518110156113c45760008282815181106112aa57fe5b6020026020010151905060006112be611aa0565b6001600160a01b0383166000818152602083905260408082205490516370a0823160e01b8152939450929091906370a08231906112ff9030906004016148e7565b60206040518083038186803b15801561131757600080fd5b505afa15801561132b573d6000803e3d6000fd5b505050506040513d601f19601f8201168201806040525081019061134f9190614872565b9050818111156113b557600b54828203906113759086906001600160a01b031683611aad565b8861ffff167f37a0777dd5e7b8b64e0ac894ab9f8cd5c2b7cb7fa0d54e9c336007532c8de50586836040516113ab92919061491f565b60405180910390a2505b50505050806001019050611293565b50505050565b60006113d4611658565b61ffff8416600090815260209182526040808220815160608101835290546001600160801b038116825264ffffffffff600160801b8204811695830195909552600160a81b90049093169083015290915061142e846111e7565b9050600061143b85611b24565b9050600061144886611b36565b9050600061145585611665565b905060008060006114688a888888611756565b925092509250881561148657838061147d5750825b61148657600080fd5b604086015184156114b8576114b58b888b600001516001600160801b03168c6040015164ffffffffff16611bfe565b90505b6114c58b89888686611d50565b7feddea56dfbd588f030ed3fcbde65761f19492023ce381012239e7f7cc8d35a7c8b6114f48960000151611e37565b8360405161150493929190614ba0565b60405180910390a15050505050505050505050565b60006001600160ff1b0382111561152f57600080fd5b5090565b60008061153e611e46565b6001600160a01b03851660009081526020828152604080832061ffff8816845290915281208054600160a81b9004600a90810b900b945091925083121561158457600080fd5b505092915050565b60008061159884611b24565b600b549091506115b690610fee906001600160a01b03168686611e53565b600b546000906115e5906115e0906001600160a01b031680886115d889611eee565b876001611efc565b611eee565b9050600081136115f457600080fd5b9150505b92915050565b6116088282611fa6565b9150611617610fee848461197f565b8261ffff167f7c5e8932dd97cea84f9ab339dad12a29a4cd81e67e7d892663aa03a3f0832b738260405161164b91906149e9565b60405180910390a2505050565b6000806115f86025611fc2565b600042611691836020015164ffffffffff16846040015164ffffffffff16611fdb90919063ffffffff16565b1092915050565b6116a0613fd9565b6116a8613ffa565b6116b184611b36565b905082816000015110156116e25760006116ca85611ff4565b90506116d885838387612077565b5091506116ef9050565b805183146116ef57600080fd5b604051806060016040528061171d6117188460a001518560c0015161211b90919063ffffffff16565b611519565b81526020016117406117188460a001518560e0015161211b90919063ffffffff16565b8152602001826060015181525091509250929050565b6000611760614046565b6000856001600160a01b0316636481c5e66040518163ffffffff1660e01b815260040160806040518083038186803b15801561179b57600080fd5b505afa1580156117af573d6000803e3d6000fd5b505050506040513d601f19601f820116820180604052508101906117d39190614619565b915060006117df61194b565b61ffff808a1660008181526020938452604080822088516001600160a01b03168352855280822081518083019092525460ff8116825261010090049093169383019390935290925061183090612142565b905061183f818784878b612155565b925083604001516000141561185757600094506118e9565b604081015160009061186f90600a0a620186a06122c6565b905060006118a261189d61189861188588611519565b6118928a60400151611519565b906119f3565b6122df565b611e37565b905060006118ce866001016118c860648587106118c05760006118c2565b855b9061211b565b90612300565b90508660400151861080156118e35750806000105b97505050505b50509450945094915050565b6119018360008361231f565b50600061190c611965565b6001600160a01b03909416600090815260209490945250506040909120805463ffffffff909216620100000265ffffffff000019909216919091179055565b6000806115f86024611fc2565b6000806115f86003611fc2565b6000806115f86002611fc2565b6000806115f86012611fc2565b600081121561198d57600080fd5b6000611997611e46565b6001600160a01b03851660009081526020828152604080832061ffff8816845290915290209091506119c883612402565b8154600a9190910b6001600160581b0316600160a81b026001600160a81b0390911617905550505050565b808203828113156000831215146115f857600080fd5b6000611a13612434565b61ffff8416600090815260209190915260409081902054905163ad1c095d60e01b81526001600160a01b039091169150819063ad1c095d90611a5b908790869060040161491f565b600060405180830381600087803b158015611a7557600080fd5b505af1158015611a89573d6000803e3d6000fd5b5050505050505050565b6000806115f8601f611fc2565b6000806115f86026611fc2565b826001600160a01b031663a9059cbb83836040518363ffffffff1660e01b815260040180836001600160a01b0316815260200182815260200192505050600060405180830381600087803b158015611b0457600080fd5b505af1158015611b18573d6000803e3d6000fd5b505050506111e2612441565b611b2c613fd9565b6115f882426124ae565b611b3e613ffa565b6000611b4861256f565b61ffff93841660009081526020918252604090819020805464ffffffffff81168652600160281b81046001600160581b03908116948701949094526001820154841692860192909252600160d81b820463ffffffff166060860152600160801b9091049091166080840152600201546001600160501b0380821660a0850152600160501b8204811660c0850152600160a01b82041660e0840152600160f01b900460ff1661012c02909216610100820152919050565b60008215611c60576000611c3f633b9aca006118c8670de0b6b3a7640000611c39886118c8670de0b6b3a76400006118c28d60000151611e37565b9061257c565b9050611c5c611c4e428561257c565b6118c8836301da9c0061211b565b9150505b6000611c6a61256f565b9050611c7582612591565b61ffff87166000908152602083905260408120805463ffffffff93909316600160d81b0263ffffffff60d81b1990931692909217909155611cb4611658565b9050611cbf426125a4565b61ffff88166000908152602083905260409020805464ffffffffff92909216600160a81b0264ffffffffff60a81b199092169190911790558551611d0b90611d0690611e37565b6125b8565b61ffff9790971660009081526020919091526040902080546fffffffffffffffffffffffffffffffff19166001600160801b0390971696909617909555949350505050565b6000611d5f8661ffff16612142565b90506000611d6e8685856125ce565b90506000611d8986608001518461282890919063ffffffff16565b9050611d99838360000151612860565b50611da8838360200151612aa3565b6000876001600160a01b031663ef81f2166040518163ffffffff1660e01b81526004016040805180830381600087803b158015611de457600080fd5b505af1158015611df8573d6000803e3d6000fd5b505050506040513d601f19601f82011682018060405250810190611e1c919061488a565b50905080821115611e2c57600080fd5b505050505050505050565b60008082121561152f57600080fd5b6000806115f86006611fc2565b6000611e5d612434565b61ffff8416600090815260209190915260408120546001600160a01b03169150821215611e88579293925b806001600160a01b03166323de66518686611ea2866122df565b6040518463ffffffff1660e01b8152600401611ec0939291906148fb565b600060405180830381600087803b158015611eda57600080fd5b505af1158015611e2c573d6000803e3d6000fd5b60006115f860001983612cd9565b600083611f0b57506000611f9c565b60008412611f1857600080fd5b6000611f278661ffff16612142565b9050611f3c81611f378688612d27565b612828565b91506000611f4983611eee565b9050611f56878383612d70565b600382606001516005811115611f6857fe5b1415611f7e57611f79888286612e5c565b611f8b565b8151611f8b908983611aad565b611f988988858589612f24565b5050505b9695505050505050565b6000611fb283836119f3565b905060008112156115f857600080fd5b6000620f4240826026811115611fd457fe5b0192915050565b600082820183811015611fed57600080fd5b9392505050565b600080612000836111e7565b6001600160a01b031663a77c05b86040518163ffffffff1660e01b8152600401604080518083038186803b15801561203757600080fd5b505afa15801561204b573d6000803e3d6000fd5b505050506040513d601f19601f8201168201806040525081019061206f919061488a565b949350505050565b61207f613ffa565b600080600061208f888689612f6b565b60c08b019290925260e08a0192909252602089015191935091506120b39083611fdb565b60208801526080870151600090156120e15760808801516120de906120d8898261257c565b90613076565b90505b6121016120f6670de0b6b3a764000083611fdb565b60a08a015190613093565b60a089015250506080860194909452505082529092909150565b60008261212a575060006115f8565b8282028284828161213757fe5b0414611fed57600080fd5b61214a614077565b6115f88260016130b0565b60008061216f866020015184612d2790919063ffffffff16565b9050600061218d6118986121868960400151611eee565b869061314a565b905060006121ba8261189260646121b48b6000015160ff1688612cd990919063ffffffff16565b90613195565b905060008112156121c9575060005b6000866020015187604001511080156121e95750602088015161ffff1615155b156122365761222f6064896020015161ffff16036118c861221f8b6020015161ffff168b6040015161211b90919063ffffffff16565b60208b0151611c3990606461211b565b905061223a565b5060005b61224d6122478b84612828565b826131c6565b94508660400151851015612286576000858860400151039050808860200151101561228057876020015188604001510395505b506122b9565b84876040015110156122b957600087604001518603905080886060015110156122b757876060015188604001510195505b505b5050505095945050505050565b6000611fed6122d5848461211b565b633b9aca00612300565b6000808212156122f9576122f282611eee565b9050611087565b5080611087565b600080821161230e57600080fd5b81838161231757fe5b049392505050565b600080600061232e86856131dc565b5091509150600061233d613272565b6001600160a01b0388166000908152602082905260408120919250612362858961327f565b90508060001315801561237b57506001600160601b0381105b61238457600080fd5b81546bffffffffffffffffffffffff19166001600160601b038216176fffffffffffffffffffffffffffffffff60601b1916600160601b6001600160801b0386160217825563ffffffff87106123d957600080fd5b50805463ffffffff8716600160e01b026001600160e01b03909116179055509150509392505050565b60006a7fffffffffffffffffffff19821280159061242b57506a7fffffffffffffffffffff8213155b61152f57600080fd5b6000806115f86021611fc2565b600061244b6140a6565b3d801561245f576020811461246857600080fd5b60019250612473565b60206000833e815192505b5081610545576040805162461bcd60e51b8152602060048201526005602482015264045524332360dc1b604482015290519081900360640190fd5b6124b6613fd9565b60006124c184611b36565b90508281600001511015612500576000806124db86613295565b90506124e986848388612077565b90935091506124f98683856132ee565b505061250d565b8051831461250d57600080fd5b60405180606001604052806125366117188460a001518560c0015161211b90919063ffffffff16565b81526020016125596117188460a001518560e0015161211b90919063ffffffff16565b8152602001826060015181525091505092915050565b6000806115f8601d611fc2565b60008282111561258b57600080fd5b50900390565b600063ffffffff82111561152f57600080fd5b600064ffffffffff82111561152f57600080fd5b60006001600160801b0382111561152f57600080fd5b6125d66140c4565b82516040840151808410156126ff57604080516001808252818301909252600091602080830190803683375050604080516001808252818301909252929350600092915060208083019080368337019050509050838260008151811061263857fe5b60200260200101906001600160a01b031690816001600160a01b0316815250508583038160008151811061266857fe5b602090810291909101015260405163871ade4360e01b81526001600160a01b0389169063871ade43906126a19085908590600401614938565b60006040518083038186803b1580156126b957600080fd5b505afa1580156126cd573d6000803e3d6000fd5b505050506040513d6000823e601f3d908101601f191682016040526126f5919081019061447c565b85525061281f9050565b8381101561281f57604080516001808252818301909252600091602080830190803683375050604080516001808252818301909252929350600092915060208083019080368337019050509050838260008151811061275a57fe5b60200260200101906001600160a01b031690816001600160a01b0316815250508286038160008151811061278a57fe5b60209081029190910101526040516376cf13af60e01b81526001600160a01b038916906376cf13af906127c39085908590600401614938565b60006040518083038186803b1580156127db57600080fd5b505afa1580156127ef573d6000803e3d6000fd5b505050506040513d6000823e601f3d908101601f191682016040526128179190810190614345565b602086015250505b50509392505050565b60006305f5e100836040015114156128415750806115f8565b611fed6305f5e1006121b4856040015185612cd990919063ffffffff16565b6000805b8251811015612a9c57600083828151811061287b57fe5b60200260200101519050600081606001516001600160a01b03166370a08231306040518263ffffffff1660e01b81526004016128b791906148e7565b60206040518083038186803b1580156128cf57600080fd5b505afa1580156128e3573d6000803e3d6000fd5b505050506040513d601f19601f820116820180604052508101906129079190614872565b905060006129158730613514565b905060005b8351518110156129665761295e8460000151828151811061293757fe5b602002602001015160008660200151848151811061295157fe5b60200260200101516135c5565b60010161291a565b5060006129738830613514565b90506000612981828461257c565b9050808560400151111561299457600080fd5b60608501516040516370a0823160e01b81526000916001600160a01b0316906370a08231906129c79030906004016148e7565b60206040518083038186803b1580156129df57600080fd5b505afa1580156129f3573d6000803e3d6000fd5b505050506040513d601f19601f82011682018060405250810190612a179190614872565b905084811115612a2657600080fd5b608086015160ff1615801590612a455750612a41858261257c565b8214155b15612a60576080860151612a5d90829060ff16611fdb565b90505b612a6f86606001518683613702565b612a798883611fdb565b9750612a8a8a600001518585613702565b50506001909401935061286492505050565b5092915050565b60005b81518110156111e2576000828281518110612abd57fe5b60200260200101519050600081608001516001600160a01b03166370a08231306040518263ffffffff1660e01b8152600401612af991906148e7565b60206040518083038186803b158015612b1157600080fd5b505afa158015612b25573d6000803e3d6000fd5b505050506040513d601f19601f82011682018060405250810190612b499190614872565b90506000612b578630613514565b905060005b835151811015612bb157612ba984600001518281518110612b7957fe5b602002602001015185604001518381518110612b9157fe5b60200260200101518660200151848151811061295157fe5b600101612b5c565b506000612bbe8730613514565b90506000612bcc838361257c565b90508460600151811115612bdf57600080fd5b60808501516040516370a0823160e01b81526000916001600160a01b0316906370a0823190612c129030906004016148e7565b60206040518083038186803b158015612c2a57600080fd5b505afa158015612c3e573d6000803e3d6000fd5b505050506040513d601f19601f82011682018060405250810190612c629190614872565b905080851115612c7157600080fd5b60a086015160ff1615801590612c905750612c8c818661257c565b8214155b15612cab5760a0860151612ca890829060ff16611fdb565b90505b612cba86608001518683613702565b8851612cc7908585613702565b505060019094019350612aa692505050565b818102600019831415612d0957811580612cfb575082828281612cf857fe5b05145b612d0457600080fd5b6115f8565b821580612d1e575081838281612d1b57fe5b05145b6115f857600080fd5b600080612d546ec097ce7bc90715b34b9f10000000006121b4866000015186612cd990919063ffffffff16565b905060008312612d6457806115f4565b6115f48160001961377f565b6000612d7a611aa0565b83516001600160a01b0316600090815260208290526040902054909150808311612da55750506111e2565b6000612db0866111e7565b90506000816001600160a01b031663b5e4da238487036040518263ffffffff1660e01b8152600401612de291906149e9565b60006040518083038186803b158015612dfa57600080fd5b505afa158015612e0e573d6000803e3d6000fd5b505050506040513d6000823e601f3d908101601f19168201604052612e36919081019061447c565b90506000612e448783612860565b9050612e508482611fdb565b861115611a8957600080fd5b8015612eee577382af49447d8a07e3bd95bd0d56f35241523fbab16001600160a01b031663d0e30db0836040518263ffffffff1660e01b81526004016000604051808303818588803b158015612eb157600080fd5b505af1158015612ec5573d6000803e3d6000fd5b5050505050612ee97382af49447d8a07e3bd95bd0d56f35241523fbab18484611aad565b6111e2565b6040516001600160a01b0384169083156108fc029084906000818181858888f193505050501580156113c4573d6000803e3d6000fd5b600080612f31848661378e565b9050612f3d83826137be565b9150612f4a878784611a09565b612f558683836137e2565b8351612f6190866138e6565b5095945050505050565b600080600080600080612f7e898861393b565b89519095509193509150600090612fa590612f9a908b9061257c565b633b9aca009061211b565b9050612fdf612fd46301da9c00612fbc858561211b565b81612fc357fe5b670de0b6b3a7640000919004611fdb565b60e08a015190613093565b9650613001612ff66301da9c00612fbc878561211b565b60c08a015190613093565b95508183141561301857506000935061306d915050565b600061303a61302f6301da9c00612fbc878661211b565b60e08b015190613093565b90506000613048898361257c565b9050613065886118c8838d6040015161211b90919063ffffffff16565b965050505050505b93509350935093565b6000611fed61308d84670de0b6b3a764000061211b565b83612300565b6000611fed6130a2848461211b565b670de0b6b3a7640000612300565b6130b8614077565b60006130c26139d5565b6000858152602082815260408083208715158452825291829020825160a08101845281546001600160a01b038116825260ff600160a01b82048116151594830194909452600160b01b81048416600a0a9482019490945293945092916060830191600160a81b90910416600581111561313757fe5b8152600060209091015295945050505050565b60006001821261315957600080fd5b81613166575060006115f8565b611fed60016118926ec097ce7bc90715b34b9f10000000006121b4876020015187612cd990919063ffffffff16565b6000816000191480156131ab5750600160ff1b83145b156131b557600080fd5b8183816131be57fe5b059392505050565b60008183106131d55781611fed565b5090919050565b60008060006131ea856139e2565b9194509250905080841180156132005750600081115b801561320c5750600083115b1561326b57600061321c86613a3e565b505050915050600061324761323e6305f5e1008461211b90919063ffffffff16565b84880387613aaa565b90506132538482611fdb565b93506001600160801b03841061326857600080fd5b50505b9250925092565b6000806115f86011611fc2565b818101828112156000831215146115f857600080fd5b6000806132a1836111e7565b6001600160a01b031663ef81f2166040518163ffffffff1660e01b81526004016040805180830381600087803b1580156132da57600080fd5b505af115801561204b573d6000803e3d6000fd5b60006132f861256f565b60008561ffff168152602001908152602001600020905061331c82600001516125a4565b815464ffffffffff191664ffffffffff9190911617815560a082015161334190613acc565b60028201805469ffffffffffffffffffff19166001600160501b039290921691909117905560c082015161337490613acc565b81600201600a6101000a8154816001600160501b0302191690836001600160501b031602179055506133a98260e00151613acc565b8160020160146101000a8154816001600160501b0302191690836001600160501b031602179055506133de8260200151613ae2565b81546001600160581b0391909116600160281b026fffffffffffffffffffffff000000000019909116178155604082015161341890613ae2565b6001820180546affffffffffffffffffffff19166001600160581b0392909216919091179055608082015161344c90613ae2565b81546001600160581b0391909116600160801b026affffffffffffffffffffff60801b19909116178155606082015161348490612591565b815463ffffffff91909116600160d81b0263ffffffff60d81b1990911617815582156134d05760006134b584611519565b90506134c18582613af8565b6134ce610fee8683611a09565b505b8361ffff167fef25641e225e493886510ca1ad6584fa7b442b9fea820a29d1de3ce27d270fd28360a001518460c001518560e001516040516104f393929190614bf1565b600060038360600151600581111561352857fe5b141561353f57506001600160a01b038116316115f8565b82516040516370a0823160e01b81526001600160a01b03909116906370a082319061356e9085906004016148e7565b60206040518083038186803b15801561358657600080fd5b505afa15801561359a573d6000803e3d6000fd5b505050506040513d601f19601f820116820180604052508101906135be9190614872565b90506115f8565b600080846001600160a01b031684846040518082805190602001908083835b602083106136035780518252601f1990920191602091820191016135e4565b6001836020036101000a03801982511681845116808217855250505050505090500191505060006040518083038185875af1925050503d8060008114613665576040519150601f19603f3d011682016040523d82523d6000602084013e61366a565b606091505b50915091508161367982613b2f565b90610f8d5760405162461bcd60e51b81526004018080602001828103825283818151815260200191508051906020019080838360005b838110156136c75781810151838201526020016136af565b50505050905090810190601f1680156136f45780820380516001836020036101000a031916815260200191505b509250505060405180910390fd5b600061370c611aa0565b6001600160a01b0385166000908152602082905260409020549091508381111561373557600080fd5b600061374c61374386611519565b61189286611519565b905061375b61189d838361327f565b6001600160a01b039096166000908152602093909352505060409020929092555050565b60008183126131d55781611fed565b60006305f5e100836040015114156137a75750806115f8565b6040830151611fed906121b4846305f5e100612cd9565b81516000908190612d54906121b4856ec097ce7bc90715b34b9f1000000000612cd9565b60006137ec61256f565b61ffff8516600090815260209190915260409020805490915064ffffffffff16421461381757600080fd5b805460009061383690600160281b90046001600160581b03168561327f565b825490915060009061385890600160801b90046001600160581b03168561327f565b905080624c4b40131561386a57600080fd5b61387b61387682611e37565b613ae2565b83546001600160581b0391909116600160801b026affffffffffffffffffffff60801b199091161783556138b161387683611e37565b83546001600160581b0391909116600160281b026fffffffffffffffffffffff000000000019909116178355610f8d83613c34565b60006138f0611aa0565b6001600160a01b03841660009081526020829052604090205490915061391961189d828561327f565b6001600160a01b03909416600090815260209290925250604090209190915550565b6000806000806000856020015111156139885761398561396c8660c00151876020015161211b90919063ffffffff16565b60e0870151604088015161397f9161211b565b90613cff565b90505b600061399387613d12565b905061399f8183613d45565b945081156139b6576139b381866001613dfe565b93505b602086015115613268576139ca85836122c6565b925050509250925092565b6000806115f86007611fc2565b6000806000806139f0613272565b6001600160a01b0395909516600090815260209590955250506040909220546001600160601b03811693600160601b82046001600160801b03169350600160e01b90910463ffffffff169150565b600080600080600080613a4f611965565b6001600160a01b039097166000908152602097909752505060409094205461ffff81169563ffffffff620100008304811696506601000000000000830416945060ff600160501b8304169350600160581b90910460d01b9150565b600061206f826118c86301da9c0081886118c289670de0b6b3a764000061211b565b60006001600160501b0382111561152f57600080fd5b60006001600160581b0382111561152f57600080fd5b6000811215613b0657600080fd5b6000613b14610fee84611533565b9050613b20818361327f565b90506111e2610fee848361197f565b6060604482511015613b65575060408051808201909152600d81526c14da5b195b9d0814995d995c9d609a1b6020820152611087565b6004820180519092602401906020811015613b7f57600080fd5b8101908080516040519392919084600160201b821115613b9e57600080fd5b908301906020820185811115613bb357600080fd5b8251600160201b811182820188101715613bcc57600080fd5b82525081516020918201929091019080838360005b83811015613bf9578181015183820152602001613be1565b50505050905090810190601f168015613c265780820380516001836020036101000a031916815260200191505b506040525050509050919050565b80546002820154600091613c7691600160281b9091046001600160581b031690613c70906001600160501b03600160501b820481169116612cd9565b90612cd9565b60018301546002840154919250600091613cb0916001600160581b031690613c70906001600160501b03600160a01b820481169116612cd9565b8354909150600090613ce79060016001600160581b03600160801b909204821601166ec097ce7bc90715b34b9f1000000000612cd9565b905080613cf484846119f3565b13156113c457600080fd5b6000611fed61308d84633b9aca0061211b565b613d1a6140de565b6000613d24613e79565b61ffff8416600090815260209190915260408120549150611fed9082613e86565b600080836080015111613d5757600080fd5b633b9aca00821115613d6857600080fd5b82518211613d8757825160408401516135be91906118c890859061211b565b82602001518211613dc55760408301518351602085015160608601516135be9392613dbf92819003916118c89188039085900361211b565b90611fdb565b611fed8360600151613dbf8560200151633b9aca00036118c887606001518860800151038860200151880361211b90919063ffffffff16565b600080613e1d60646118c88760e001518761211b90919063ffffffff16565b90508460a00151811015613e32575060a08401515b8460c00151811115613e45575060c08401515b8215613e5c57613e558482611fdb565b9150613e71565b838111613e6b57808403613e6e565b60005b91505b509392505050565b6000806115f8601b611fc2565b613e8e6140de565b6064633b9aca008360ff861660208110613ea457fe5b1a0281613ead57fe5b0481526064633b9aca008360ff861660010160208110613ec957fe5b1a0281613ed257fe5b04816020018181525050613ef78260028560ff160160208110613ef157fe5b1a613fa5565b60808201819052610100908360ff861660030160208110613f1457fe5b1a0281613f1d57fe5b0460408201526080810151610100908360ff861660040160208110613f3e57fe5b1a0281613f4757fe5b0460608201526207a1208260ff851660050160208110613f6357fe5b1a0260a0820152622625a08260ff851660060160208110613f8057fe5b1a0260c08201528160ff841660070160208110613f9957fe5b1a60e082015292915050565b60008160ff16609610613fc05760ff8216622625a0026115f8565b5060951960ff919091160162e4e1c00263165a0bc00190565b60405180606001604052806000815260200160008152602001600081525090565b6040518061012001604052806000815260200160008152602001600081526020016000815260200160008152602001600081526020016000815260200160008152602001600081525090565b604051806080016040528060006001600160a01b031681526020016000815260200160008152602001600081525090565b6040805160a0810182526000808252602082018190529181018290529060608201908152602001600081525090565b60405180602001604052806001906020820280368337509192915050565b604051806040016040528060608152602001606081525090565b60405180610100016040528060008152602001600081526020016000815260200160008152602001600081526020016000815260200160008152602001600081525090565b805161108781614c47565b600082601f83011261413e578081fd5b8151602061415361414e83614c2a565b614c07565b828152818101908583018385028701840188101561416f578586fd5b855b8581101561419657815161418481614c47565b84529284019290840190600101614171565b5090979650505050505050565b6000601f83818401126141b4578182fd5b825160206141c461414e83614c2a565b82815281810190868301865b8581101561426857815189018a603f8201126141ea578889fd5b858101516001600160401b038111156141ff57fe5b614210818a01601f19168801614c07565b81815260408d81848601011115614225578b8cfd5b8b5b83811015614242578481018201518382018b01528901614227565b83811115614252578c8a85850101525b50508652505092840192908401906001016141d0565b509098975050505050505050565b600082601f830112614286578081fd5b8151602061429661414e83614c2a565b82815281810190858301838502870184018810156142b2578586fd5b855b85811015614196578151845292840192908401906001016142b4565b805161108781614c6c565b6000602082840312156142ec578081fd5b8135611fed81614c47565b600060208284031215614308578081fd5b8151611fed81614c47565b600060208284031215614324578081fd5b81516001600160401b03811115614339578182fd5b6115f48482850161412e565b60006020808385031215614357578182fd5b82516001600160401b038082111561436d578384fd5b818501915085601f830112614380578384fd5b815161438e61414e82614c2a565b81815284810190848601875b8481101561446d578151870160c080601f19838f030112156143ba578a8bfd5b6143c381614c07565b8a830151898111156143d3578c8dfd5b6143e18f8d8387010161412e565b8252506040830151898111156143f5578c8dfd5b6144038f8d838701016141a3565b8c83015250606083015189811115614419578c8dfd5b6144278f8d83870101614276565b604083015250608080840151606083015260a0614445818601614123565b828401526144548486016142d0565b908301525086525050928701929087019060010161439a565b50909998505050505050505050565b6000602080838503121561448e578182fd5b82516001600160401b03808211156144a4578384fd5b818501915085601f8301126144b7578384fd5b81516144c561414e82614c2a565b81815284810190848601875b8481101561446d578151870160a0818d03601f190112156144f057898afd5b6040805160a081018181108a8211171561450657fe5b8252828b015189811115614518578c8dfd5b6145268f8d8387010161412e565b8252508183015189811115614539578c8dfd5b6145478f8d838701016141a3565b8c8301525060608301518282015261456160808401614123565b606082015261457260a084016142d0565b60808201528652505092870192908701906001016144d1565b6000806020838503121561459d578081fd5b82356001600160401b03808211156145b3578283fd5b818501915085601f8301126145c6578283fd5b8135818111156145d4578384fd5b86602080830285010111156145e7578384fd5b60209290920196919550909350505050565b60006020828403121561460a578081fd5b81518015158114611fed578182fd5b60006080828403121561462a578081fd5b604051608081018181106001600160401b038211171561464657fe5b604052825161465481614c47565b808252506020830151602082015260408301516040820152606083015160608201528091505092915050565b600060608284031215614691578081fd5b604051606081018181106001600160401b03821117156146ad57fe5b60405282356146bb81614c47565b815260208301356146cb81614c6c565b602082015260408301356146de81614c5c565b60408201529392505050565b6000602082840312156146fb578081fd5b8135611fed81614c5c565b600060208284031215614717578081fd5b8151611fed81614c5c565b600080600060408486031215614736578081fd5b833561474181614c5c565b925060208401356001600160401b038082111561475c578283fd5b818601915086601f83011261476f578283fd5b81358181111561477d578384fd5b876020606083028501011115614791578384fd5b6020830194508093505050509250925092565b600080604083850312156147b6578182fd5b82356147c181614c5c565b915060208301356147d181614c47565b809150509250929050565b600080604083850312156147ee578182fd5b82356147f981614c5c565b946020939093013593505050565b60008060408385031215614819578182fd5b823561482481614c5c565b9150602083013563ffffffff811681146147d1578182fd5b6000806040838503121561484e578182fd5b823561485981614c5c565b9150602083013564ffffffffff811681146147d1578182fd5b600060208284031215614883578081fd5b5051919050565b6000806040838503121561489c578182fd5b505080516020909101519092909150565b6000815180845260208085019450808401835b838110156148dc578151875295820195908201906001016148c0565b509495945050505050565b6001600160a01b0391909116815260200190565b6001600160a01b039384168152919092166020820152604081019190915260600190565b6001600160a01b03929092168252602082015260400190565b604080825283519082018190526000906020906060840190828701845b8281101561497a5781516001600160a01b031684529284019290840190600101614955565b50505083810382850152611f9c81866148ad565b6020808252825182820181905260009190848201906040850190845b818110156149ca57835161ffff16835292840192918401916001016149aa565b50909695505050505050565b600060208252611fed60208301846148ad565b90815260200190565b6020808252600c908201526b155b985d5d1a1bdc9a5e995960a21b604082015260600190565b60208082526019908201527f5472656173757279206d616e6167657220726571756972656400000000000000604082015260600190565b6020808252818101527f4f776e61626c653a2063616c6c6572206973206e6f7420746865206f776e6572604082015260600190565b60208082526012908201527112511cc81b5d5cdd081899481cdbdc9d195960721b604082015260600190565b6020808252600c908201526b496e76616c6964207261746560a01b604082015260600190565b602080825260139082015272125b9d985b1a590818dd5c9c995b98de481a59606a1b604082015260600190565b61ffff84811682526040602080840182905283820185905260009260609182860188865b89811015614b7c578135614b3a81614c47565b6001600160a01b0316835281840135614b5281614c6c565b60ff168385015281870135614b6681614c5c565b8516838801529185019190850190600101614b27565b50909a9950505050505050505050565b61ffff929092168252602082015260400190565b61ffff9390931683526020830191909152604082015260600190565b61ffff92909216825263ffffffff16602082015260400190565b61ffff92909216825264ffffffffff16602082015260400190565b9283526020830191909152604082015260600190565b6040518181016001600160401b0381118282101715614c2257fe5b604052919050565b60006001600160401b03821115614c3d57fe5b5060209081020190565b6001600160a01b038116811461105c57600080fd5b61ffff8116811461105c57600080fd5b60ff8116811461105c57600080fdfea264697066735822122082e78211197ad05921ec86f9110e2878d603dba2133b79d44484a69c8cd0122a64736f6c63430007060033","bytecodeSha1":"7e5fbdae79262502f1d248a284af6a99ab4f98ad","compiler":{"evm_version":"istanbul","optimizer":{"enabled":true,"runs":200},"version":"0.7.6+commit.7338295f"},"contractName":"TreasuryAction","language":"Solidity","natspec":{"kind":"dev","methods":{"checkRebalance()":{"notice":"View method to check which currencies can be rebalanced"},"harvestAssetInterest(uint16[])":{"notice":"Harvests interest income from rebalancing. Interest income is different from reserve assets because they are not accounted for with in stored token balances and therefore are not accessible by Prime Cash holders. Any interest will be transferred to the treasury manager."},"rebalance(uint16)":{"notice":"Rebalances the given currency id. Can only be called by the rebalancing bot. Under normal operating conditions this can only be called once the cool down period has passed between rebalances, however, if the external lending is unhealthy we can bypass that cool down period. The logic for when rebalance is called is defined above in `checkRebalance`.","params":{"currencyId":"currency id"}},"setRebalancingBot(address)":{"notice":"Set the rebalancing bot to call the rebalance method."},"setRebalancingCooldown(uint16,uint40)":{"notice":"Sets the time between calls to the rebalance method by the rebalancing bot."},"setRebalancingTargets(uint16,(address,uint8,uint16)[])":{"notice":"Sets the rebalancing parameters that define how often a token is rebalanced. Rebalancing targets a specific Prime Cash utilization while ensuring that we have the ability to withdraw from an external money market if we need to."},"setReserveBuffer(uint16,uint256)":{"notice":"Sets the reserve buffer. This is the amount of reserve balance to keep denominated in 1e8 The reserve cannot be harvested if it's below this amount. This portion of the reserve will remain on the contract to act as a buffer against potential insolvency.","params":{"bufferAmount":"reserve buffer amount to keep in internal token precision (1e8)","currencyId":"refers to the currency of the reserve"}},"setReserveCashBalance(uint16,int256)":{"notice":"This is used in the case of insolvency. It allows the owner to re-align the reserve with its correct balance.","params":{"currencyId":"refers to the currency of the reserve","newBalance":"new reserve balance to set, must be less than the current balance"}},"setSecondaryIncentiveRewarder(uint16,address)":{"details":"emit:UpdateSecondaryIncentiveRewarder","notice":"Sets a secondary incentive rewarder for a currency. This contract will be called whenever an nToken balance changes and allows a secondary contract to mint incentives to the account. This will override any previous rewarder, if set. Will have no effect if there is no nToken corresponding to the currency id.","params":{"currencyId":"currency id of the nToken","rewarder":"rewarder contract"}},"setTreasuryManager(address)":{"notice":"Sets the new treasury manager contract"},"transferReserveToTreasury(uint16[])":{"notice":"Transfers some amount of reserve assets to the treasury manager contract. Reserve assets are the result of collecting fCash trading fees and vault fees and denominated in Prime Cash. Redeems prime cash to underlying as it is transferred off the protocol.","params":{"currencies":"an array of currencies to transfer from Notional"}},"updateIncentiveEmissionRate(uint16,uint32)":{"details":"emit:UpdateIncentiveEmissionRate","notice":"Updates the emission rate of incentives for a given currency","params":{"currencyId":"the currency id that the nToken references","newEmissionRate":"Target total incentives to emit for an nToken over an entire year denominated in WHOLE TOKENS (i.e. setting this to 1 means 1e8 tokens). The rate will not be exact due to multiplier effects and fluctuating token supply."}}},"version":1},"opcodes":"PUSH1 0x80 PUSH1 0x40 MSTORE CALLVALUE DUP1 ISZERO PUSH2 0x10 JUMPI PUSH1 0x0 DUP1 REVERT JUMPDEST POP PUSH1 0x4 CALLDATASIZE LT PUSH2 0x100 JUMPI PUSH1 0x0 CALLDATALOAD PUSH1 0xE0 SHR DUP1 PUSH4 0x8DA5CB5B GT PUSH2 0x97 JUMPI DUP1 PUSH4 0xA9EFBA32 GT PUSH2 0x66 JUMPI DUP1 PUSH4 0xA9EFBA32 EQ PUSH2 0x1EF JUMPI DUP1 PUSH4 0xBC74BDEB EQ PUSH2 0x202 JUMPI DUP1 PUSH4 0xF5EDB9D5 EQ PUSH2 0x20A JUMPI DUP1 PUSH4 0xFE47A9F2 EQ PUSH2 0x21D JUMPI PUSH2 0x100 JUMP JUMPDEST DUP1 PUSH4 0x8DA5CB5B EQ PUSH2 0x1AC JUMPI DUP1 PUSH4 0x8E73B23C EQ PUSH2 0x1B4 JUMPI DUP1 PUSH4 0xA56C077F EQ PUSH2 0x1C7 JUMPI DUP1 PUSH4 0xA9D7BC52 EQ PUSH2 0x1DC JUMPI PUSH2 0x100 JUMP JUMPDEST DUP1 PUSH4 0x66346A5C GT PUSH2 0xD3 JUMPI DUP1 PUSH4 0x66346A5C EQ PUSH2 0x15E JUMPI DUP1 PUSH4 0x6D7A00EB EQ PUSH2 0x171 JUMPI DUP1 PUSH4 0x7090F005 EQ PUSH2 0x191 JUMPI DUP1 PUSH4 0x82463367 EQ PUSH2 0x1A4 JUMPI PUSH2 0x100 JUMP JUMPDEST DUP1 PUSH4 0x38AF5DC EQ PUSH2 0x105 JUMPI DUP1 PUSH4 0x12ADC47B EQ PUSH2 0x11A JUMPI DUP1 PUSH4 0x24A3D622 EQ PUSH2 0x12D JUMPI DUP1 PUSH4 0x3A1E4297 EQ PUSH2 0x14B JUMPI JUMPDEST PUSH1 0x0 DUP1 REVERT JUMPDEST PUSH2 0x118 PUSH2 0x113 CALLDATASIZE PUSH1 0x4 PUSH2 0x47A4 JUMP JUMPDEST PUSH2 0x230 JUMP JUMPDEST STOP JUMPDEST PUSH2 0x118 PUSH2 0x128 CALLDATASIZE PUSH1 0x4 PUSH2 0x47DC JUMP JUMPDEST PUSH2 0x501 JUMP JUMPDEST PUSH2 0x135 PUSH2 0x549 JUMP JUMPDEST PUSH1 0x40 MLOAD PUSH2 0x142 SWAP2 SWAP1 PUSH2 0x48E7 JUMP JUMPDEST PUSH1 0x40 MLOAD DUP1 SWAP2 SUB SWAP1 RETURN JUMPDEST PUSH2 0x118 PUSH2 0x159 CALLDATASIZE PUSH1 0x4 PUSH2 0x458B JUMP JUMPDEST PUSH2 0x558 JUMP JUMPDEST PUSH2 0x118 PUSH2 0x16C CALLDATASIZE PUSH1 0x4 PUSH2 0x46EA JUMP JUMPDEST PUSH2 0x665 JUMP JUMPDEST PUSH2 0x184 PUSH2 0x17F CALLDATASIZE PUSH1 0x4 PUSH2 0x458B JUMP JUMPDEST PUSH2 0x6B7 JUMP JUMPDEST PUSH1 0x40 MLOAD PUSH2 0x142 SWAP2 SWAP1 PUSH2 0x49D6 JUMP JUMPDEST PUSH2 0x118 PUSH2 0x19F CALLDATASIZE PUSH1 0x4 PUSH2 0x42DB JUMP JUMPDEST PUSH2 0x87B JUMP JUMPDEST PUSH2 0x135 PUSH2 0x8CE JUMP JUMPDEST PUSH2 0x135 PUSH2 0x8DD JUMP JUMPDEST PUSH2 0x118 PUSH2 0x1C2 CALLDATASIZE PUSH1 0x4 PUSH2 0x47DC JUMP JUMPDEST PUSH2 0x8F3 JUMP JUMPDEST PUSH2 0x1CF PUSH2 0x981 JUMP JUMPDEST PUSH1 0x40 MLOAD PUSH2 0x142 SWAP2 SWAP1 PUSH2 0x498E JUMP JUMPDEST PUSH2 0x118 PUSH2 0x1EA CALLDATASIZE PUSH1 0x4 PUSH2 0x4807 JUMP JUMPDEST PUSH2 0xC02 JUMP JUMPDEST PUSH2 0x118 PUSH2 0x1FD CALLDATASIZE PUSH1 0x4 PUSH2 0x483C JUMP JUMPDEST PUSH2 0xCD2 JUMP JUMPDEST PUSH2 0x135 PUSH2 0xD73 JUMP JUMPDEST PUSH2 0x118 PUSH2 0x218 CALLDATASIZE PUSH1 0x4 PUSH2 0x4722 JUMP JUMPDEST PUSH2 0xD82 JUMP JUMPDEST PUSH2 0x118 PUSH2 0x22B CALLDATASIZE PUSH1 0x4 PUSH2 0x42DB JUMP JUMPDEST PUSH2 0xF95 JUMP JUMPDEST PUSH1 0x0 SLOAD PUSH1 0x1 PUSH1 0x20 SHL SWAP1 DIV PUSH1 0x1 PUSH1 0x1 PUSH1 0xA0 SHL SUB AND CALLER EQ PUSH2 0x26A JUMPI PUSH1 0x40 MLOAD PUSH3 0x461BCD PUSH1 0xE5 SHL DUP2 MSTORE PUSH1 0x4 ADD PUSH2 0x261 SWAP1 PUSH2 0x4A4F JUMP JUMPDEST PUSH1 0x40 MLOAD DUP1 SWAP2 SUB SWAP1 REVERT JUMPDEST PUSH2 0x273 DUP3 PUSH2 0x1022 JUMP JUMPDEST PUSH1 0x0 PUSH2 0x282 DUP4 PUSH2 0xFFFF AND PUSH2 0x105F JUMP JUMPDEST SWAP1 POP PUSH1 0x1 PUSH1 0x1 PUSH1 0xA0 SHL SUB DUP3 AND ISZERO PUSH2 0x426 JUMPI DUP2 PUSH1 0x1 PUSH1 0x1 PUSH1 0xA0 SHL SUB AND PUSH4 0x9D4BE3F5 PUSH1 0x40 MLOAD DUP2 PUSH4 0xFFFFFFFF AND PUSH1 0xE0 SHL DUP2 MSTORE PUSH1 0x4 ADD PUSH1 0x20 PUSH1 0x40 MLOAD DUP1 DUP4 SUB DUP2 PUSH1 0x0 DUP8 DUP1 EXTCODESIZE ISZERO DUP1 ISZERO PUSH2 0x2CE JUMPI PUSH1 0x0 DUP1 REVERT JUMPDEST POP GAS CALL ISZERO DUP1 ISZERO PUSH2 0x2E2 JUMPI RETURNDATASIZE PUSH1 0x0 DUP1 RETURNDATACOPY RETURNDATASIZE PUSH1 0x0 REVERT JUMPDEST POP POP POP POP PUSH1 0x40 MLOAD RETURNDATASIZE PUSH1 0x1F NOT PUSH1 0x1F DUP3 ADD AND DUP3 ADD DUP1 PUSH1 0x40 MSTORE POP DUP2 ADD SWAP1 PUSH2 0x306 SWAP2 SWAP1 PUSH2 0x4706 JUMP JUMPDEST PUSH2 0xFFFF AND DUP4 PUSH2 0xFFFF AND EQ PUSH2 0x319 JUMPI PUSH1 0x0 DUP1 REVERT JUMPDEST DUP2 PUSH1 0x1 PUSH1 0x1 PUSH1 0xA0 SHL SUB AND PUSH4 0x1C921976 PUSH1 0x40 MLOAD DUP2 PUSH4 0xFFFFFFFF AND PUSH1 0xE0 SHL DUP2 MSTORE PUSH1 0x4 ADD PUSH1 0x20 PUSH1 0x40 MLOAD DUP1 DUP4 SUB DUP2 PUSH1 0x0 DUP8 DUP1 EXTCODESIZE ISZERO DUP1 ISZERO PUSH2 0x354 JUMPI PUSH1 0x0 DUP1 REVERT JUMPDEST POP GAS CALL ISZERO DUP1 ISZERO PUSH2 0x368 JUMPI RETURNDATASIZE PUSH1 0x0 DUP1 RETURNDATACOPY RETURNDATASIZE PUSH1 0x0 REVERT JUMPDEST POP POP POP POP PUSH1 0x40 MLOAD RETURNDATASIZE PUSH1 0x1F NOT PUSH1 0x1F DUP3 ADD AND DUP3 ADD DUP1 PUSH1 0x40 MSTORE POP DUP2 ADD SWAP1 PUSH2 0x38C SWAP2 SWAP1 PUSH2 0x42F7 JUMP JUMPDEST PUSH1 0x1 PUSH1 0x1 PUSH1 0xA0 SHL SUB AND DUP2 PUSH1 0x1 PUSH1 0x1 PUSH1 0xA0 SHL SUB AND EQ PUSH2 0x3A9 JUMPI PUSH1 0x0 DUP1 REVERT JUMPDEST DUP2 PUSH1 0x1 PUSH1 0x1 PUSH1 0xA0 SHL SUB AND PUSH4 0x432CC1B3 PUSH1 0x40 MLOAD DUP2 PUSH4 0xFFFFFFFF AND PUSH1 0xE0 SHL DUP2 MSTORE PUSH1 0x4 ADD PUSH1 0x20 PUSH1 0x40 MLOAD DUP1 DUP4 SUB DUP2 PUSH1 0x0 DUP8 DUP1 EXTCODESIZE ISZERO DUP1 ISZERO PUSH2 0x3E4 JUMPI PUSH1 0x0 DUP1 REVERT JUMPDEST POP GAS CALL ISZERO DUP1 ISZERO PUSH2 0x3F8 JUMPI RETURNDATASIZE PUSH1 0x0 DUP1 RETURNDATACOPY RETURNDATASIZE PUSH1 0x0 REVERT JUMPDEST POP POP POP POP PUSH1 0x40 MLOAD RETURNDATASIZE PUSH1 0x1F NOT PUSH1 0x1F DUP3 ADD AND DUP3 ADD DUP1 PUSH1 0x40 MSTORE POP DUP2 ADD SWAP1 PUSH2 0x41C SWAP2 SWAP1 PUSH2 0x45F9 JUMP JUMPDEST ISZERO PUSH2 0x426 JUMPI PUSH1 0x0 DUP1 REVERT JUMPDEST PUSH1 0x0 PUSH2 0x431 DUP3 PUSH2 0x108C JUMP JUMPDEST SWAP1 POP DUP1 PUSH1 0x1 PUSH1 0x1 PUSH1 0xA0 SHL SUB AND DUP4 PUSH1 0x1 PUSH1 0x1 PUSH1 0xA0 SHL SUB AND EQ ISZERO PUSH2 0x452 JUMPI PUSH1 0x0 DUP1 REVERT JUMPDEST PUSH1 0x1 PUSH1 0x1 PUSH1 0xA0 SHL SUB DUP2 AND ISZERO PUSH2 0x4B5 JUMPI DUP1 PUSH1 0x1 PUSH1 0x1 PUSH1 0xA0 SHL SUB AND PUSH4 0x225435C0 PUSH1 0x40 MLOAD DUP2 PUSH4 0xFFFFFFFF AND PUSH1 0xE0 SHL DUP2 MSTORE PUSH1 0x4 ADD PUSH1 0x0 PUSH1 0x40 MLOAD DUP1 DUP4 SUB DUP2 PUSH1 0x0 DUP8 DUP1 EXTCODESIZE ISZERO DUP1 ISZERO PUSH2 0x49C JUMPI PUSH1 0x0 DUP1 REVERT JUMPDEST POP GAS CALL ISZERO DUP1 ISZERO PUSH2 0x4B0 JUMPI RETURNDATASIZE PUSH1 0x0 DUP1 RETURNDATACOPY RETURNDATASIZE PUSH1 0x0 REVERT JUMPDEST POP POP POP POP JUMPDEST PUSH2 0x4BF DUP5 DUP5 PUSH2 0x10FE JUMP JUMPDEST DUP4 PUSH2 0xFFFF AND PUSH32 0x972AF272071DE4B82FF83458C3A6DE8BA183A9C7DC724D4CF91D25F524A810E1 DUP5 PUSH1 0x40 MLOAD PUSH2 0x4F3 SWAP2 SWAP1 PUSH2 0x48E7 JUMP JUMPDEST PUSH1 0x40 MLOAD DUP1 SWAP2 SUB SWAP1 LOG2 POP POP POP POP JUMP JUMPDEST PUSH1 0x0 SLOAD PUSH1 0x1 PUSH1 0x20 SHL SWAP1 DIV PUSH1 0x1 PUSH1 0x1 PUSH1 0xA0 SHL SUB AND CALLER EQ PUSH2 0x532 JUMPI PUSH1 0x40 MLOAD PUSH3 0x461BCD PUSH1 0xE5 SHL DUP2 MSTORE PUSH1 0x4 ADD PUSH2 0x261 SWAP1 PUSH2 0x4A4F JUMP JUMPDEST PUSH2 0x53B DUP3 PUSH2 0x1022 JUMP JUMPDEST PUSH2 0x545 DUP3 DUP3 PUSH2 0x11A1 JUMP JUMPDEST POP POP JUMP JUMPDEST PUSH1 0x2 SLOAD PUSH1 0x1 PUSH1 0x1 PUSH1 0xA0 SHL SUB AND DUP2 JUMP JUMPDEST PUSH1 0xB SLOAD PUSH1 0x1 PUSH1 0x1 PUSH1 0xA0 SHL SUB AND CALLER EQ PUSH2 0x582 JUMPI PUSH1 0x40 MLOAD PUSH3 0x461BCD PUSH1 0xE5 SHL DUP2 MSTORE PUSH1 0x4 ADD PUSH2 0x261 SWAP1 PUSH2 0x4A18 JUMP JUMPDEST PUSH1 0x2 PUSH1 0xA SLOAD EQ ISZERO PUSH2 0x592 JUMPI PUSH1 0x0 DUP1 REVERT JUMPDEST PUSH1 0x2 PUSH1 0xA SSTORE PUSH1 0x0 JUMPDEST DUP2 DUP2 LT ISZERO PUSH2 0x65B JUMPI DUP1 ISZERO PUSH2 0x612 JUMPI DUP3 DUP3 PUSH1 0x1 DUP4 SUB DUP2 DUP2 LT PUSH2 0x5B7 JUMPI INVALID JUMPDEST SWAP1 POP PUSH1 0x20 MUL ADD PUSH1 0x20 DUP2 ADD SWAP1 PUSH2 0x5CC SWAP2 SWAP1 PUSH2 0x46EA JUMP JUMPDEST PUSH2 0xFFFF AND DUP4 DUP4 DUP4 DUP2 DUP2 LT PUSH2 0x5DC JUMPI INVALID JUMPDEST SWAP1 POP PUSH1 0x20 MUL ADD PUSH1 0x20 DUP2 ADD SWAP1 PUSH2 0x5F1 SWAP2 SWAP1 PUSH2 0x46EA JUMP JUMPDEST PUSH2 0xFFFF AND GT PUSH2 0x612 JUMPI PUSH1 0x40 MLOAD PUSH3 0x461BCD PUSH1 0xE5 SHL DUP2 MSTORE PUSH1 0x4 ADD PUSH2 0x261 SWAP1 PUSH2 0x4A84 JUMP JUMPDEST PUSH1 0x0 DUP4 DUP4 DUP4 DUP2 DUP2 LT PUSH2 0x620 JUMPI INVALID JUMPDEST SWAP1 POP PUSH1 0x20 MUL ADD PUSH1 0x20 DUP2 ADD SWAP1 PUSH2 0x635 SWAP2 SWAP1 PUSH2 0x46EA JUMP JUMPDEST SWAP1 POP PUSH2 0x640 DUP2 PUSH2 0x1022 JUMP JUMPDEST PUSH2 0x652 DUP2 PUSH2 0x64D DUP4 PUSH2 0x11E7 JUMP JUMPDEST PUSH2 0x1217 JUMP JUMPDEST POP PUSH1 0x1 ADD PUSH2 0x59A JUMP JUMPDEST POP POP PUSH1 0x1 PUSH1 0xA SSTORE POP JUMP JUMPDEST PUSH1 0x2 PUSH1 0xA SLOAD EQ ISZERO PUSH2 0x675 JUMPI PUSH1 0x0 DUP1 REVERT JUMPDEST PUSH1 0x2 PUSH1 0xA SSTORE PUSH1 0xE SLOAD PUSH1 0x1 PUSH1 0x1 PUSH1 0xA0 SHL SUB AND CALLER EQ PUSH2 0x6A4 JUMPI PUSH1 0x40 MLOAD PUSH3 0x461BCD PUSH1 0xE5 SHL DUP2 MSTORE PUSH1 0x4 ADD PUSH2 0x261 SWAP1 PUSH2 0x49F2 JUMP JUMPDEST PUSH2 0x6AF DUP2 PUSH1 0x1 PUSH2 0x13CA JUMP JUMPDEST POP PUSH1 0x1 PUSH1 0xA SSTORE JUMP JUMPDEST PUSH1 0xB SLOAD PUSH1 0x60 SWAP1 PUSH1 0x1 PUSH1 0x1 PUSH1 0xA0 SHL SUB AND CALLER EQ PUSH2 0x6E4 JUMPI PUSH1 0x40 MLOAD PUSH3 0x461BCD PUSH1 0xE5 SHL DUP2 MSTORE PUSH1 0x4 ADD PUSH2 0x261 SWAP1 PUSH2 0x4A18 JUMP JUMPDEST PUSH1 0x2 PUSH1 0xA SLOAD EQ ISZERO PUSH2 0x6F4 JUMPI PUSH1 0x0 DUP1 REVERT JUMPDEST PUSH1 0x2 PUSH1 0xA SSTORE PUSH1 0x0 DUP3 PUSH1 0x1 PUSH1 0x1 PUSH1 0x40 SHL SUB DUP2 GT DUP1 ISZERO PUSH2 0x711 JUMPI PUSH1 0x0 DUP1 REVERT JUMPDEST POP PUSH1 0x40 MLOAD SWAP1 DUP1 DUP3 MSTORE DUP1 PUSH1 0x20 MUL PUSH1 0x20 ADD DUP3 ADD PUSH1 0x40 MSTORE DUP1 ISZERO PUSH2 0x73B JUMPI DUP2 PUSH1 0x20 ADD PUSH1 0x20 DUP3 MUL DUP1 CALLDATASIZE DUP4 CALLDATACOPY ADD SWAP1 POP JUMPDEST POP SWAP1 POP PUSH1 0x0 JUMPDEST DUP4 DUP2 LT ISZERO PUSH2 0x86E JUMPI DUP1 ISZERO PUSH2 0x7B9 JUMPI DUP5 DUP5 PUSH1 0x1 DUP4 SUB DUP2 DUP2 LT PUSH2 0x75E JUMPI INVALID JUMPDEST SWAP1 POP PUSH1 0x20 MUL ADD PUSH1 0x20 DUP2 ADD SWAP1 PUSH2 0x773 SWAP2 SWAP1 PUSH2 0x46EA JUMP JUMPDEST PUSH2 0xFFFF AND DUP6 DUP6 DUP4 DUP2 DUP2 LT PUSH2 0x783 JUMPI INVALID JUMPDEST SWAP1 POP PUSH1 0x20 MUL ADD PUSH1 0x20 DUP2 ADD SWAP1 PUSH2 0x798 SWAP2 SWAP1 PUSH2 0x46EA JUMP JUMPDEST PUSH2 0xFFFF AND GT PUSH2 0x7B9 JUMPI PUSH1 0x40 MLOAD PUSH3 0x461BCD PUSH1 0xE5 SHL DUP2 MSTORE PUSH1 0x4 ADD PUSH2 0x261 SWAP1 PUSH2 0x4A84 JUMP JUMPDEST PUSH1 0x0 DUP6 DUP6 DUP4 DUP2 DUP2 LT PUSH2 0x7C7 JUMPI INVALID JUMPDEST SWAP1 POP PUSH1 0x20 MUL ADD PUSH1 0x20 DUP2 ADD SWAP1 PUSH2 0x7DC SWAP2 SWAP1 PUSH2 0x46EA JUMP JUMPDEST SWAP1 POP PUSH2 0x7E7 DUP2 PUSH2 0x1022 JUMP JUMPDEST PUSH2 0xFFFF DUP2 AND PUSH1 0x0 SWAP1 DUP2 MSTORE PUSH1 0xC PUSH1 0x20 MSTORE PUSH1 0x40 DUP2 KECCAK256 SLOAD PUSH2 0x804 SWAP1 PUSH2 0x1519 JUMP JUMPDEST SWAP1 POP DUP1 PUSH2 0x812 JUMPI POP POP PUSH2 0x866 JUMP JUMPDEST PUSH1 0x0 PUSH2 0x820 PUSH2 0xFEE DUP5 PUSH2 0x1533 JUMP JUMPDEST SWAP1 POP DUP2 DUP2 SGT PUSH2 0x831 JUMPI POP POP POP PUSH2 0x866 JUMP JUMPDEST DUP2 DUP2 SUB PUSH2 0x83E DUP5 DUP3 PUSH2 0x158C JUMP JUMPDEST DUP7 DUP7 DUP2 MLOAD DUP2 LT PUSH2 0x84A JUMPI INVALID JUMPDEST PUSH1 0x20 MUL PUSH1 0x20 ADD ADD DUP2 DUP2 MSTORE POP POP PUSH2 0x861 DUP5 DUP4 DUP4 PUSH2 0x15FE JUMP JUMPDEST POP POP POP POP JUMPDEST PUSH1 0x1 ADD PUSH2 0x741 JUMP JUMPDEST POP PUSH1 0x1 PUSH1 0xA SSTORE SWAP4 SWAP3 POP POP POP JUMP JUMPDEST PUSH1 0x0 SLOAD PUSH1 0x1 PUSH1 0x20 SHL SWAP1 DIV PUSH1 0x1 PUSH1 0x1 PUSH1 0xA0 SHL SUB AND CALLER EQ PUSH2 0x8AC JUMPI PUSH1 0x40 MLOAD PUSH3 0x461BCD PUSH1 0xE5 SHL DUP2 MSTORE PUSH1 0x4 ADD PUSH2 0x261 SWAP1 PUSH2 0x4A4F JUMP JUMPDEST PUSH1 0xE DUP1 SLOAD PUSH1 0x1 PUSH1 0x1 PUSH1 0xA0 SHL SUB NOT AND PUSH1 0x1 PUSH1 0x1 PUSH1 0xA0 SHL SUB SWAP3 SWAP1 SWAP3 AND SWAP2 SWAP1 SWAP2 OR SWAP1 SSTORE JUMP JUMPDEST PUSH1 0x1 SLOAD PUSH1 0x1 PUSH1 0x1 PUSH1 0xA0 SHL SUB AND DUP2 JUMP JUMPDEST PUSH1 0x0 SLOAD PUSH1 0x1 PUSH1 0x20 SHL SWAP1 DIV PUSH1 0x1 PUSH1 0x1 PUSH1 0xA0 SHL SUB AND DUP2 JUMP JUMPDEST PUSH1 0x0 SLOAD PUSH1 0x1 PUSH1 0x20 SHL SWAP1 DIV PUSH1 0x1 PUSH1 0x1 PUSH1 0xA0 SHL SUB AND CALLER EQ PUSH2 0x924 JUMPI PUSH1 0x40 MLOAD PUSH3 0x461BCD PUSH1 0xE5 SHL DUP2 MSTORE PUSH1 0x4 ADD PUSH2 0x261 SWAP1 PUSH2 0x4A4F JUMP JUMPDEST PUSH2 0x92D DUP3 PUSH2 0x1022 JUMP JUMPDEST PUSH2 0xFFFF DUP3 AND PUSH1 0x0 SWAP1 DUP2 MSTORE PUSH1 0xC PUSH1 0x20 MSTORE PUSH1 0x40 SWAP1 DUP2 SWAP1 KECCAK256 DUP3 SWAP1 SSTORE MLOAD PUSH32 0xFD37F6BC518C96B848C133A7D44A5A9B5ACEA171BE7DC45E363F153347ED7641 SWAP1 PUSH2 0x975 SWAP1 DUP5 SWAP1 DUP5 SWAP1 PUSH2 0x4B8C JUMP JUMPDEST PUSH1 0x40 MLOAD DUP1 SWAP2 SUB SWAP1 LOG1 POP POP JUMP JUMPDEST PUSH1 0x60 PUSH1 0x0 PUSH2 0x98D PUSH2 0x1658 JUMP JUMPDEST PUSH1 0x0 DUP1 SLOAD SWAP2 SWAP3 POP SWAP1 PUSH2 0xFFFF AND PUSH1 0x1 PUSH1 0x1 PUSH1 0x40 SHL SUB DUP2 GT DUP1 ISZERO PUSH2 0x9AE JUMPI PUSH1 0x0 DUP1 REVERT JUMPDEST POP PUSH1 0x40 MLOAD SWAP1 DUP1 DUP3 MSTORE DUP1 PUSH1 0x20 MUL PUSH1 0x20 ADD DUP3 ADD PUSH1 0x40 MSTORE DUP1 ISZERO PUSH2 0x9D8 JUMPI DUP2 PUSH1 0x20 ADD PUSH1 0x20 DUP3 MUL DUP1 CALLDATASIZE DUP4 CALLDATACOPY ADD SWAP1 POP JUMPDEST POP SWAP1 POP PUSH1 0x0 PUSH1 0x1 JUMPDEST PUSH1 0x0 SLOAD PUSH2 0xFFFF SWAP1 DUP2 AND SWAP1 DUP3 AND GT PUSH2 0xB52 JUMPI PUSH1 0x0 PUSH2 0x9FC DUP3 PUSH2 0x11E7 JUMP JUMPDEST SWAP1 POP PUSH1 0x0 DUP2 PUSH1 0x1 PUSH1 0x1 PUSH1 0xA0 SHL SUB AND PUSH4 0xE79BF13B PUSH1 0x40 MLOAD DUP2 PUSH4 0xFFFFFFFF AND PUSH1 0xE0 SHL DUP2 MSTORE PUSH1 0x4 ADD PUSH1 0x0 PUSH1 0x40 MLOAD DUP1 DUP4 SUB DUP2 DUP7 DUP1 EXTCODESIZE ISZERO DUP1 ISZERO PUSH2 0xA39 JUMPI PUSH1 0x0 DUP1 REVERT JUMPDEST POP GAS STATICCALL ISZERO DUP1 ISZERO PUSH2 0xA4D JUMPI RETURNDATASIZE PUSH1 0x0 DUP1 RETURNDATACOPY RETURNDATASIZE PUSH1 0x0 REVERT JUMPDEST POP POP POP POP PUSH1 0x40 MLOAD RETURNDATASIZE PUSH1 0x0 DUP3 RETURNDATACOPY PUSH1 0x1F RETURNDATASIZE SWAP1 DUP2 ADD PUSH1 0x1F NOT AND DUP3 ADD PUSH1 0x40 MSTORE PUSH2 0xA75 SWAP2 SWAP1 DUP2 ADD SWAP1 PUSH2 0x4313 JUMP JUMPDEST SWAP1 POP DUP1 MLOAD PUSH1 0x0 EQ ISZERO PUSH2 0xA88 JUMPI POP POP PUSH2 0xB4A JUMP JUMPDEST PUSH2 0xFFFF DUP4 AND PUSH1 0x0 SWAP1 DUP2 MSTORE PUSH1 0x20 DUP8 DUP2 MSTORE PUSH1 0x40 DUP1 DUP4 KECCAK256 DUP2 MLOAD PUSH1 0x60 DUP2 ADD DUP4 MSTORE DUP2 SLOAD PUSH1 0x1 PUSH1 0x1 PUSH1 0x80 SHL SUB DUP2 AND DUP3 MSTORE PUSH5 0xFFFFFFFFFF PUSH1 0x1 PUSH1 0x80 SHL DUP3 DIV DUP2 AND SWAP6 DUP4 ADD SWAP6 SWAP1 SWAP6 MSTORE PUSH1 0x1 PUSH1 0xA8 SHL SWAP1 DIV SWAP1 SWAP4 AND SWAP2 DUP4 ADD SWAP2 SWAP1 SWAP2 MSTORE SWAP2 SWAP1 PUSH2 0xAE4 SWAP1 PUSH2 0x1665 JUMP JUMPDEST SWAP1 POP PUSH1 0x0 DUP1 PUSH2 0xAF3 DUP8 TIMESTAMP PUSH2 0x1698 JUMP JUMPDEST SWAP2 POP SWAP2 POP PUSH1 0x0 PUSH2 0xB05 DUP9 DUP9 DUP6 DUP6 PUSH2 0x1756 JUMP JUMPDEST POP POP SWAP1 POP DUP4 DUP1 PUSH2 0xB12 JUMPI POP DUP1 JUMPDEST ISZERO PUSH2 0xB42 JUMPI DUP8 DUP11 DUP11 PUSH2 0xFFFF AND DUP2 MLOAD DUP2 LT PUSH2 0xB28 JUMPI INVALID JUMPDEST PUSH2 0xFFFF SWAP1 SWAP3 AND PUSH1 0x20 SWAP3 DUP4 MUL SWAP2 SWAP1 SWAP2 ADD SWAP1 SWAP2 ADD MSTORE PUSH1 0x1 SWAP1 SWAP9 ADD SWAP8 JUMPDEST POP POP POP POP POP POP POP JUMPDEST PUSH1 0x1 ADD PUSH2 0x9E0 JUMP JUMPDEST POP PUSH2 0xFFFF DUP2 AND ISZERO PUSH2 0xBFC JUMPI DUP1 PUSH2 0xFFFF AND PUSH1 0x1 PUSH1 0x1 PUSH1 0x40 SHL SUB DUP2 GT DUP1 ISZERO PUSH2 0xB77 JUMPI PUSH1 0x0 DUP1 REVERT JUMPDEST POP PUSH1 0x40 MLOAD SWAP1 DUP1 DUP3 MSTORE DUP1 PUSH1 0x20 MUL PUSH1 0x20 ADD DUP3 ADD PUSH1 0x40 MSTORE DUP1 ISZERO PUSH2 0xBA1 JUMPI DUP2 PUSH1 0x20 ADD PUSH1 0x20 DUP3 MUL DUP1 CALLDATASIZE DUP4 CALLDATACOPY ADD SWAP1 POP JUMPDEST POP SWAP4 POP PUSH1 0x0 JUMPDEST DUP2 PUSH2 0xFFFF AND DUP2 PUSH2 0xFFFF AND LT ISZERO PUSH2 0xBFA JUMPI DUP3 DUP2 PUSH2 0xFFFF AND DUP2 MLOAD DUP2 LT PUSH2 0xBC7 JUMPI INVALID JUMPDEST PUSH1 0x20 MUL PUSH1 0x20 ADD ADD MLOAD DUP6 DUP3 PUSH2 0xFFFF AND DUP2 MLOAD DUP2 LT PUSH2 0xBDF JUMPI INVALID JUMPDEST PUSH2 0xFFFF SWAP1 SWAP3 AND PUSH1 0x20 SWAP3 DUP4 MUL SWAP2 SWAP1 SWAP2 ADD SWAP1 SWAP2 ADD MSTORE PUSH1 0x1 ADD PUSH2 0xBA7 JUMP JUMPDEST POP JUMPDEST POP POP POP SWAP1 JUMP JUMPDEST PUSH1 0x0 SLOAD PUSH1 0x1 PUSH1 0x20 SHL SWAP1 DIV PUSH1 0x1 PUSH1 0x1 PUSH1 0xA0 SHL SUB AND CALLER EQ PUSH2 0xC33 JUMPI PUSH1 0x40 MLOAD PUSH3 0x461BCD PUSH1 0xE5 SHL DUP2 MSTORE PUSH1 0x4 ADD PUSH2 0x261 SWAP1 PUSH2 0x4A4F JUMP JUMPDEST PUSH2 0xC3C DUP3 PUSH2 0x1022 JUMP JUMPDEST PUSH1 0x0 PUSH2 0xC4B DUP4 PUSH2 0xFFFF AND PUSH2 0x105F JUMP JUMPDEST SWAP1 POP PUSH1 0x1 PUSH1 0x1 PUSH1 0xA0 SHL SUB DUP2 AND PUSH2 0xC60 JUMPI PUSH1 0x0 DUP1 REVERT JUMPDEST PUSH4 0x5F5E100 DUP3 PUSH4 0xFFFFFFFF AND SLT PUSH2 0xC89 JUMPI PUSH1 0x40 MLOAD PUSH3 0x461BCD PUSH1 0xE5 SHL DUP2 MSTORE PUSH1 0x4 ADD PUSH2 0x261 SWAP1 PUSH2 0x4AB0 JUMP JUMPDEST PUSH2 0xC94 DUP2 DUP4 TIMESTAMP PUSH2 0x18F5 JUMP JUMPDEST PUSH32 0x713F9554D16202D36A895476EC29CE9250F47D35422E2D9409E8F644D6AAB689 DUP4 DUP4 PUSH1 0x40 MLOAD PUSH2 0xCC5 SWAP3 SWAP2 SWAP1 PUSH2 0x4BBC JUMP JUMPDEST PUSH1 0x40 MLOAD DUP1 SWAP2 SUB SWAP1 LOG1 POP POP POP JUMP JUMPDEST PUSH1 0x0 SLOAD PUSH1 0x1 PUSH1 0x20 SHL SWAP1 DIV PUSH1 0x1 PUSH1 0x1 PUSH1 0xA0 SHL SUB AND CALLER EQ PUSH2 0xD03 JUMPI PUSH1 0x40 MLOAD PUSH3 0x461BCD PUSH1 0xE5 SHL DUP2 MSTORE PUSH1 0x4 ADD PUSH2 0x261 SWAP1 PUSH2 0x4A4F JUMP JUMPDEST PUSH1 0x0 PUSH2 0xD0D PUSH2 0x1658 JUMP JUMPDEST PUSH2 0xFFFF DUP5 AND PUSH1 0x0 SWAP1 DUP2 MSTORE PUSH1 0x20 DUP3 SWAP1 MSTORE PUSH1 0x40 SWAP1 DUP2 SWAP1 KECCAK256 DUP1 SLOAD PUSH5 0xFFFFFFFFFF PUSH1 0x80 SHL NOT AND PUSH1 0x1 PUSH1 0x80 SHL PUSH5 0xFFFFFFFFFF DUP8 AND MUL OR SWAP1 SSTORE MLOAD SWAP1 SWAP2 POP PUSH32 0x16B1CF4CBFF8DF027F5BEC1791DC85FA6B5F625FBA6BC942C10482CCFE6814B2 SWAP1 PUSH2 0xCC5 SWAP1 DUP6 SWAP1 DUP6 SWAP1 PUSH2 0x4BD6 JUMP JUMPDEST PUSH1 0xE SLOAD PUSH1 0x1 PUSH1 0x1 PUSH1 0xA0 SHL SUB AND DUP2 JUMP JUMPDEST PUSH1 0x0 SLOAD PUSH1 0x1 PUSH1 0x20 SHL SWAP1 DIV PUSH1 0x1 PUSH1 0x1 PUSH1 0xA0 SHL SUB AND CALLER EQ PUSH2 0xDB3 JUMPI PUSH1 0x40 MLOAD PUSH3 0x461BCD PUSH1 0xE5 SHL DUP2 MSTORE PUSH1 0x4 ADD PUSH2 0x261 SWAP1 PUSH2 0x4A4F JUMP JUMPDEST PUSH1 0x0 PUSH2 0xDBE DUP5 PUSH2 0x11E7 JUMP JUMPDEST PUSH1 0x1 PUSH1 0x1 PUSH1 0xA0 SHL SUB AND PUSH4 0xE79BF13B PUSH1 0x40 MLOAD DUP2 PUSH4 0xFFFFFFFF AND PUSH1 0xE0 SHL DUP2 MSTORE PUSH1 0x4 ADD PUSH1 0x0 PUSH1 0x40 MLOAD DUP1 DUP4 SUB DUP2 DUP7 DUP1 EXTCODESIZE ISZERO DUP1 ISZERO PUSH2 0xDF6 JUMPI PUSH1 0x0 DUP1 REVERT JUMPDEST POP GAS STATICCALL ISZERO DUP1 ISZERO PUSH2 0xE0A JUMPI RETURNDATASIZE PUSH1 0x0 DUP1 RETURNDATACOPY RETURNDATASIZE PUSH1 0x0 REVERT JUMPDEST POP POP POP POP PUSH1 0x40 MLOAD RETURNDATASIZE PUSH1 0x0 DUP3 RETURNDATACOPY PUSH1 0x1F RETURNDATASIZE SWAP1 DUP2 ADD PUSH1 0x1F NOT AND DUP3 ADD PUSH1 0x40 MSTORE PUSH2 0xE32 SWAP2 SWAP1 DUP2 ADD SWAP1 PUSH2 0x4313 JUMP JUMPDEST PUSH1 0x0 DUP2 MLOAD DUP2 LT PUSH2 0xE3E JUMPI INVALID JUMPDEST PUSH1 0x20 MUL PUSH1 0x20 ADD ADD MLOAD SWAP1 POP DUP3 DUP3 SWAP1 POP PUSH1 0x1 EQ PUSH2 0xE58 JUMPI PUSH1 0x0 DUP1 REVERT JUMPDEST PUSH1 0x0 PUSH2 0xE62 PUSH2 0x194B JUMP JUMPDEST PUSH2 0xFFFF DUP7 AND PUSH1 0x0 SWAP1 DUP2 MSTORE PUSH1 0x20 SWAP2 SWAP1 SWAP2 MSTORE PUSH1 0x40 DUP2 KECCAK256 SWAP2 POP DUP5 DUP5 DUP3 DUP2 PUSH2 0xE82 JUMPI INVALID JUMPDEST SWAP1 POP PUSH1 0x60 MUL ADD DUP1 CALLDATASIZE SUB DUP2 ADD SWAP1 PUSH2 0xE98 SWAP2 SWAP1 PUSH2 0x4680 JUMP JUMPDEST SWAP1 POP DUP3 PUSH1 0x1 PUSH1 0x1 PUSH1 0xA0 SHL SUB AND DUP2 PUSH1 0x0 ADD MLOAD PUSH1 0x1 PUSH1 0x1 PUSH1 0xA0 SHL SUB AND EQ PUSH2 0xEBC JUMPI PUSH1 0x0 DUP1 REVERT JUMPDEST PUSH1 0x64 DUP2 PUSH1 0x20 ADD MLOAD PUSH1 0xFF AND LT PUSH2 0xED0 JUMPI PUSH1 0x0 DUP1 REVERT JUMPDEST DUP1 PUSH1 0x40 ADD MLOAD PUSH2 0xFFFF AND PUSH1 0x64 LT PUSH2 0xEE5 JUMPI PUSH1 0x0 DUP1 REVERT JUMPDEST PUSH1 0x40 DUP1 MLOAD DUP1 DUP3 ADD DUP3 MSTORE PUSH1 0x20 DUP4 DUP2 ADD MLOAD PUSH1 0xFF SWAP1 DUP2 AND DUP4 MSTORE DUP5 DUP5 ADD MLOAD PUSH2 0xFFFF SWAP1 DUP2 AND DUP4 DUP6 ADD SWAP1 DUP2 MSTORE PUSH1 0x1 PUSH1 0x1 PUSH1 0xA0 SHL SUB DUP10 AND PUSH1 0x0 SWAP1 DUP2 MSTORE SWAP4 DUP9 SWAP1 MSTORE SWAP3 DUP6 SWAP1 KECCAK256 SWAP4 MLOAD DUP5 SLOAD SWAP4 MLOAD PUSH1 0xFF NOT SWAP1 SWAP5 AND SWAP3 AND SWAP2 SWAP1 SWAP2 OR PUSH3 0xFFFF00 NOT AND PUSH2 0x100 SWAP3 SWAP1 SWAP2 AND SWAP2 SWAP1 SWAP2 MUL OR SWAP1 SSTORE MLOAD PUSH32 0xA5F15810B13BA448589D874F328FE0AA2BDE8CD3583A77CEFDE9B02CDD8D6797 SWAP1 PUSH2 0xF7A SWAP1 DUP9 SWAP1 DUP9 SWAP1 DUP9 SWAP1 PUSH2 0x4B03 JUMP JUMPDEST PUSH1 0x40 MLOAD DUP1 SWAP2 SUB SWAP1 LOG1 PUSH2 0xF8D DUP7 PUSH1 0x0 PUSH2 0x13CA JUMP JUMPDEST POP POP POP POP POP POP JUMP JUMPDEST PUSH1 0x0 SLOAD PUSH1 0x1 PUSH1 0x20 SHL SWAP1 DIV PUSH1 0x1 PUSH1 0x1 PUSH1 0xA0 SHL SUB AND CALLER EQ PUSH2 0xFC6 JUMPI PUSH1 0x40 MLOAD PUSH3 0x461BCD PUSH1 0xE5 SHL DUP2 MSTORE PUSH1 0x4 ADD PUSH2 0x261 SWAP1 PUSH2 0x4A4F JUMP JUMPDEST PUSH1 0xB SLOAD PUSH1 0x40 MLOAD PUSH1 0x1 PUSH1 0x1 PUSH1 0xA0 SHL SUB DUP1 DUP5 AND SWAP3 AND SWAP1 PUSH32 0xF92CFDDD8D7AB2F6E4FD488959C76C8033AAAA6DAD691A0CBD1FC68F194B3D0C SWAP1 PUSH1 0x0 SWAP1 LOG3 PUSH1 0xB DUP1 SLOAD PUSH1 0x1 PUSH1 0x1 PUSH1 0xA0 SHL SUB NOT AND PUSH1 0x1 PUSH1 0x1 PUSH1 0xA0 SHL SUB SWAP3 SWAP1 SWAP3 AND SWAP2 SWAP1 SWAP2 OR SWAP1 SSTORE JUMP JUMPDEST DUP1 PUSH2 0xFFFF AND PUSH1 0x0 LT DUP1 ISZERO PUSH2 0x1040 JUMPI POP PUSH1 0x0 SLOAD PUSH2 0xFFFF SWAP1 DUP2 AND SWAP1 DUP3 AND GT ISZERO JUMPDEST PUSH2 0x105C JUMPI PUSH1 0x40 MLOAD PUSH3 0x461BCD PUSH1 0xE5 SHL DUP2 MSTORE PUSH1 0x4 ADD PUSH2 0x261 SWAP1 PUSH2 0x4AD6 JUMP JUMPDEST POP JUMP JUMPDEST PUSH1 0x0 DUP1 PUSH2 0x106A PUSH2 0x1958 JUMP JUMPDEST PUSH1 0x0 DUP5 DUP2 MSTORE PUSH1 0x20 SWAP2 SWAP1 SWAP2 MSTORE PUSH1 0x40 SWAP1 KECCAK256 SLOAD PUSH1 0x1 PUSH1 0x1 PUSH1 0xA0 SHL SUB AND SWAP2 POP POP JUMPDEST SWAP2 SWAP1 POP JUMP JUMPDEST PUSH1 0x0 DUP1 PUSH2 0x1097 PUSH2 0x1965 JUMP JUMPDEST PUSH1 0x1 PUSH1 0x1 PUSH1 0xA0 SHL SUB DUP5 AND PUSH1 0x0 SWAP1 DUP2 MSTORE PUSH1 0x20 DUP3 SWAP1 MSTORE PUSH1 0x40 SWAP1 KECCAK256 DUP1 SLOAD SWAP2 SWAP3 POP SWAP1 PUSH1 0x1 PUSH1 0xF8 SHL SWAP1 DIV PUSH1 0xFF AND ISZERO PUSH2 0x10F3 JUMPI PUSH2 0x10CC PUSH2 0x1972 JUMP JUMPDEST PUSH1 0x1 PUSH1 0x1 PUSH1 0xA0 SHL SUB DUP1 DUP7 AND PUSH1 0x0 SWAP1 DUP2 MSTORE PUSH1 0x20 SWAP3 SWAP1 SWAP3 MSTORE PUSH1 0x40 SWAP1 SWAP2 KECCAK256 SLOAD AND SWAP3 POP PUSH2 0x1087 SWAP2 POP POP JUMP JUMPDEST PUSH1 0x0 SWAP3 POP POP POP PUSH2 0x1087 JUMP JUMPDEST PUSH1 0x0 PUSH2 0x110D DUP4 PUSH2 0xFFFF AND PUSH2 0x105F JUMP JUMPDEST SWAP1 POP PUSH1 0x1 PUSH1 0x1 PUSH1 0xA0 SHL SUB DUP2 AND PUSH2 0x1122 JUMPI PUSH1 0x0 DUP1 REVERT JUMPDEST PUSH1 0x0 PUSH2 0x112C PUSH2 0x1965 JUMP JUMPDEST PUSH1 0x1 PUSH1 0x1 PUSH1 0xA0 SHL SUB DUP4 DUP2 AND PUSH1 0x0 SWAP1 DUP2 MSTORE PUSH1 0x20 DUP4 SWAP1 MSTORE PUSH1 0x40 SWAP1 KECCAK256 DUP1 SLOAD PUSH1 0x1 PUSH1 0x1 PUSH1 0xF8 SHL SUB AND SWAP2 DUP7 AND ISZERO ISZERO PUSH1 0x1 PUSH1 0xF8 SHL MUL SWAP2 SWAP1 SWAP2 OR DUP2 SSTORE SWAP1 SWAP2 POP DUP4 PUSH2 0x116D PUSH2 0x1972 JUMP JUMPDEST PUSH1 0x1 PUSH1 0x1 PUSH1 0xA0 SHL SUB SWAP5 DUP6 AND PUSH1 0x0 SWAP1 DUP2 MSTORE PUSH1 0x20 SWAP2 SWAP1 SWAP2 MSTORE PUSH1 0x40 SWAP1 KECCAK256 DUP1 SLOAD PUSH1 0x1 PUSH1 0x1 PUSH1 0xA0 SHL SUB NOT AND SWAP2 SWAP1 SWAP5 AND OR SWAP1 SWAP3 SSTORE POP POP POP POP JUMP JUMPDEST PUSH1 0x0 DUP2 SLT ISZERO PUSH2 0x11AF JUMPI PUSH1 0x0 DUP1 REVERT JUMPDEST PUSH1 0x0 PUSH2 0x11BD PUSH2 0xFEE DUP5 PUSH2 0x1533 JUMP JUMPDEST SWAP1 POP PUSH2 0x11CC PUSH2 0xFEE DUP5 DUP5 PUSH2 0x197F JUMP JUMPDEST PUSH2 0x11E2 PUSH2 0xFEE DUP5 PUSH2 0x11DD DUP6 DUP6 PUSH2 0x19F3 JUMP JUMPDEST PUSH2 0x1A09 JUMP JUMPDEST POP POP POP JUMP JUMPDEST PUSH1 0x0 DUP1 PUSH2 0x11F2 PUSH2 0x1A93 JUMP JUMPDEST PUSH2 0xFFFF SWAP4 SWAP1 SWAP4 AND PUSH1 0x0 SWAP1 DUP2 MSTORE PUSH1 0x20 SWAP4 SWAP1 SWAP4 MSTORE POP POP PUSH1 0x40 SWAP1 KECCAK256 SLOAD PUSH1 0x1 PUSH1 0x1 PUSH1 0xA0 SHL SUB AND SWAP1 JUMP JUMPDEST PUSH1 0x0 DUP2 PUSH1 0x1 PUSH1 0x1 PUSH1 0xA0 SHL SUB AND PUSH4 0xE79BF13B PUSH1 0x40 MLOAD DUP2 PUSH4 0xFFFFFFFF AND PUSH1 0xE0 SHL DUP2 MSTORE PUSH1 0x4 ADD PUSH1 0x0 PUSH1 0x40 MLOAD DUP1 DUP4 SUB DUP2 DUP7 DUP1 EXTCODESIZE ISZERO DUP1 ISZERO PUSH2 0x1252 JUMPI PUSH1 0x0 DUP1 REVERT JUMPDEST POP GAS STATICCALL ISZERO DUP1 ISZERO PUSH2 0x1266 JUMPI RETURNDATASIZE PUSH1 0x0 DUP1 RETURNDATACOPY RETURNDATASIZE PUSH1 0x0 REVERT JUMPDEST POP POP POP POP PUSH1 0x40 MLOAD RETURNDATASIZE PUSH1 0x0 DUP3 RETURNDATACOPY PUSH1 0x1F RETURNDATASIZE SWAP1 DUP2 ADD PUSH1 0x1F NOT AND DUP3 ADD PUSH1 0x40 MSTORE PUSH2 0x128E SWAP2 SWAP1 DUP2 ADD SWAP1 PUSH2 0x4313 JUMP JUMPDEST SWAP1 POP PUSH1 0x0 JUMPDEST DUP2 MLOAD DUP2 LT ISZERO PUSH2 0x13C4 JUMPI PUSH1 0x0 DUP3 DUP3 DUP2 MLOAD DUP2 LT PUSH2 0x12AA JUMPI INVALID JUMPDEST PUSH1 0x20 MUL PUSH1 0x20 ADD ADD MLOAD SWAP1 POP PUSH1 0x0 PUSH2 0x12BE PUSH2 0x1AA0 JUMP JUMPDEST PUSH1 0x1 PUSH1 0x1 PUSH1 0xA0 SHL SUB DUP4 AND PUSH1 0x0 DUP2 DUP2 MSTORE PUSH1 0x20 DUP4 SWAP1 MSTORE PUSH1 0x40 DUP1 DUP3 KECCAK256 SLOAD SWAP1 MLOAD PUSH4 0x70A08231 PUSH1 0xE0 SHL DUP2 MSTORE SWAP4 SWAP5 POP SWAP3 SWAP1 SWAP2 SWAP1 PUSH4 0x70A08231 SWAP1 PUSH2 0x12FF SWAP1 ADDRESS SWAP1 PUSH1 0x4 ADD PUSH2 0x48E7 JUMP JUMPDEST PUSH1 0x20 PUSH1 0x40 MLOAD DUP1 DUP4 SUB DUP2 DUP7 DUP1 EXTCODESIZE ISZERO DUP1 ISZERO PUSH2 0x1317 JUMPI PUSH1 0x0 DUP1 REVERT JUMPDEST POP GAS STATICCALL ISZERO DUP1 ISZERO PUSH2 0x132B JUMPI RETURNDATASIZE PUSH1 0x0 DUP1 RETURNDATACOPY RETURNDATASIZE PUSH1 0x0 REVERT JUMPDEST POP POP POP POP PUSH1 0x40 MLOAD RETURNDATASIZE PUSH1 0x1F NOT PUSH1 0x1F DUP3 ADD AND DUP3 ADD DUP1 PUSH1 0x40 MSTORE POP DUP2 ADD SWAP1 PUSH2 0x134F SWAP2 SWAP1 PUSH2 0x4872 JUMP JUMPDEST SWAP1 POP DUP2 DUP2 GT ISZERO PUSH2 0x13B5 JUMPI PUSH1 0xB SLOAD DUP3 DUP3 SUB SWAP1 PUSH2 0x1375 SWAP1 DUP7 SWAP1 PUSH1 0x1 PUSH1 0x1 PUSH1 0xA0 SHL SUB AND DUP4 PUSH2 0x1AAD JUMP JUMPDEST DUP9 PUSH2 0xFFFF AND PUSH32 0x37A0777DD5E7B8B64E0AC894AB9F8CD5C2B7CB7FA0D54E9C336007532C8DE505 DUP7 DUP4 PUSH1 0x40 MLOAD PUSH2 0x13AB SWAP3 SWAP2 SWAP1 PUSH2 0x491F JUMP JUMPDEST PUSH1 0x40 MLOAD DUP1 SWAP2 SUB SWAP1 LOG2 POP JUMPDEST POP POP POP POP DUP1 PUSH1 0x1 ADD SWAP1 POP PUSH2 0x1293 JUMP JUMPDEST POP POP POP POP JUMP JUMPDEST PUSH1 0x0 PUSH2 0x13D4 PUSH2 0x1658 JUMP JUMPDEST PUSH2 0xFFFF DUP5 AND PUSH1 0x0 SWAP1 DUP2 MSTORE PUSH1 0x20 SWAP2 DUP3 MSTORE PUSH1 0x40 DUP1 DUP3 KECCAK256 DUP2 MLOAD PUSH1 0x60 DUP2 ADD DUP4 MSTORE SWAP1 SLOAD PUSH1 0x1 PUSH1 0x1 PUSH1 0x80 SHL SUB DUP2 AND DUP3 MSTORE PUSH5 0xFFFFFFFFFF PUSH1 0x1 PUSH1 0x80 SHL DUP3 DIV DUP2 AND SWAP6 DUP4 ADD SWAP6 SWAP1 SWAP6 MSTORE PUSH1 0x1 PUSH1 0xA8 SHL SWAP1 DIV SWAP1 SWAP4 AND SWAP1 DUP4 ADD MSTORE SWAP1 SWAP2 POP PUSH2 0x142E DUP5 PUSH2 0x11E7 JUMP JUMPDEST SWAP1 POP PUSH1 0x0 PUSH2 0x143B DUP6 PUSH2 0x1B24 JUMP JUMPDEST SWAP1 POP PUSH1 0x0 PUSH2 0x1448 DUP7 PUSH2 0x1B36 JUMP JUMPDEST SWAP1 POP PUSH1 0x0 PUSH2 0x1455 DUP6 PUSH2 0x1665 JUMP JUMPDEST SWAP1 POP PUSH1 0x0 DUP1 PUSH1 0x0 PUSH2 0x1468 DUP11 DUP9 DUP9 DUP9 PUSH2 0x1756 JUMP JUMPDEST SWAP3 POP SWAP3 POP SWAP3 POP DUP9 ISZERO PUSH2 0x1486 JUMPI DUP4 DUP1 PUSH2 0x147D JUMPI POP DUP3 JUMPDEST PUSH2 0x1486 JUMPI PUSH1 0x0 DUP1 REVERT JUMPDEST PUSH1 0x40 DUP7 ADD MLOAD DUP5 ISZERO PUSH2 0x14B8 JUMPI PUSH2 0x14B5 DUP12 DUP9 DUP12 PUSH1 0x0 ADD MLOAD PUSH1 0x1 PUSH1 0x1 PUSH1 0x80 SHL SUB AND DUP13 PUSH1 0x40 ADD MLOAD PUSH5 0xFFFFFFFFFF AND PUSH2 0x1BFE JUMP JUMPDEST SWAP1 POP JUMPDEST PUSH2 0x14C5 DUP12 DUP10 DUP9 DUP7 DUP7 PUSH2 0x1D50 JUMP JUMPDEST PUSH32 0xEDDEA56DFBD588F030ED3FCBDE65761F19492023CE381012239E7F7CC8D35A7C DUP12 PUSH2 0x14F4 DUP10 PUSH1 0x0 ADD MLOAD PUSH2 0x1E37 JUMP JUMPDEST DUP4 PUSH1 0x40 MLOAD PUSH2 0x1504 SWAP4 SWAP3 SWAP2 SWAP1 PUSH2 0x4BA0 JUMP JUMPDEST PUSH1 0x40 MLOAD DUP1 SWAP2 SUB SWAP1 LOG1 POP POP POP POP POP POP POP POP POP POP POP JUMP JUMPDEST PUSH1 0x0 PUSH1 0x1 PUSH1 0x1 PUSH1 0xFF SHL SUB DUP3 GT ISZERO PUSH2 0x152F JUMPI PUSH1 0x0 DUP1 REVERT JUMPDEST POP SWAP1 JUMP JUMPDEST PUSH1 0x0 DUP1 PUSH2 0x153E PUSH2 0x1E46 JUMP JUMPDEST PUSH1 0x1 PUSH1 0x1 PUSH1 0xA0 SHL SUB DUP6 AND PUSH1 0x0 SWAP1 DUP2 MSTORE PUSH1 0x20 DUP3 DUP2 MSTORE PUSH1 0x40 DUP1 DUP4 KECCAK256 PUSH2 0xFFFF DUP9 AND DUP5 MSTORE SWAP1 SWAP2 MSTORE DUP2 KECCAK256 DUP1 SLOAD PUSH1 0x1 PUSH1 0xA8 SHL SWAP1 DIV PUSH1 0xA SWAP1 DUP2 SIGNEXTEND SWAP1 SIGNEXTEND SWAP5 POP SWAP2 SWAP3 POP DUP4 SLT ISZERO PUSH2 0x1584 JUMPI PUSH1 0x0 DUP1 REVERT JUMPDEST POP POP SWAP3 SWAP2 POP POP JUMP JUMPDEST PUSH1 0x0 DUP1 PUSH2 0x1598 DUP5 PUSH2 0x1B24 JUMP JUMPDEST PUSH1 0xB SLOAD SWAP1 SWAP2 POP PUSH2 0x15B6 SWAP1 PUSH2 0xFEE SWAP1 PUSH1 0x1 PUSH1 0x1 PUSH1 0xA0 SHL SUB AND DUP7 DUP7 PUSH2 0x1E53 JUMP JUMPDEST PUSH1 0xB SLOAD PUSH1 0x0 SWAP1 PUSH2 0x15E5 SWAP1 PUSH2 0x15E0 SWAP1 PUSH1 0x1 PUSH1 0x1 PUSH1 0xA0 SHL SUB AND DUP1 DUP9 PUSH2 0x15D8 DUP10 PUSH2 0x1EEE JUMP JUMPDEST DUP8 PUSH1 0x1 PUSH2 0x1EFC JUMP JUMPDEST PUSH2 0x1EEE JUMP JUMPDEST SWAP1 POP PUSH1 0x0 DUP2 SGT PUSH2 0x15F4 JUMPI PUSH1 0x0 DUP1 REVERT JUMPDEST SWAP2 POP POP JUMPDEST SWAP3 SWAP2 POP POP JUMP JUMPDEST PUSH2 0x1608 DUP3 DUP3 PUSH2 0x1FA6 JUMP JUMPDEST SWAP2 POP PUSH2 0x1617 PUSH2 0xFEE DUP5 DUP5 PUSH2 0x197F JUMP JUMPDEST DUP3 PUSH2 0xFFFF AND PUSH32 0x7C5E8932DD97CEA84F9AB339DAD12A29A4CD81E67E7D892663AA03A3F0832B73 DUP3 PUSH1 0x40 MLOAD PUSH2 0x164B SWAP2 SWAP1 PUSH2 0x49E9 JUMP JUMPDEST PUSH1 0x40 MLOAD DUP1 SWAP2 SUB SWAP1 LOG2 POP POP POP JUMP JUMPDEST PUSH1 0x0 DUP1 PUSH2 0x15F8 PUSH1 0x25 PUSH2 0x1FC2 JUMP JUMPDEST PUSH1 0x0 TIMESTAMP PUSH2 0x1691 DUP4 PUSH1 0x20 ADD MLOAD PUSH5 0xFFFFFFFFFF AND DUP5 PUSH1 0x40 ADD MLOAD PUSH5 0xFFFFFFFFFF AND PUSH2 0x1FDB SWAP1 SWAP2 SWAP1 PUSH4 0xFFFFFFFF AND JUMP JUMPDEST LT SWAP3 SWAP2 POP POP JUMP JUMPDEST PUSH2 0x16A0 PUSH2 0x3FD9 JUMP JUMPDEST PUSH2 0x16A8 PUSH2 0x3FFA JUMP JUMPDEST PUSH2 0x16B1 DUP5 PUSH2 0x1B36 JUMP JUMPDEST SWAP1 POP DUP3 DUP2 PUSH1 0x0 ADD MLOAD LT ISZERO PUSH2 0x16E2 JUMPI PUSH1 0x0 PUSH2 0x16CA DUP6 PUSH2 0x1FF4 JUMP JUMPDEST SWAP1 POP PUSH2 0x16D8 DUP6 DUP4 DUP4 DUP8 PUSH2 0x2077 JUMP JUMPDEST POP SWAP2 POP PUSH2 0x16EF SWAP1 POP JUMP JUMPDEST DUP1 MLOAD DUP4 EQ PUSH2 0x16EF JUMPI PUSH1 0x0 DUP1 REVERT JUMPDEST PUSH1 0x40 MLOAD DUP1 PUSH1 0x60 ADD PUSH1 0x40 MSTORE DUP1 PUSH2 0x171D PUSH2 0x1718 DUP5 PUSH1 0xA0 ADD MLOAD DUP6 PUSH1 0xC0 ADD MLOAD PUSH2 0x211B SWAP1 SWAP2 SWAP1 PUSH4 0xFFFFFFFF AND JUMP JUMPDEST PUSH2 0x1519 JUMP JUMPDEST DUP2 MSTORE PUSH1 0x20 ADD PUSH2 0x1740 PUSH2 0x1718 DUP5 PUSH1 0xA0 ADD MLOAD DUP6 PUSH1 0xE0 ADD MLOAD PUSH2 0x211B SWAP1 SWAP2 SWAP1 PUSH4 0xFFFFFFFF AND JUMP JUMPDEST DUP2 MSTORE PUSH1 0x20 ADD DUP3 PUSH1 0x60 ADD MLOAD DUP2 MSTORE POP SWAP2 POP SWAP3 POP SWAP3 SWAP1 POP JUMP JUMPDEST PUSH1 0x0 PUSH2 0x1760 PUSH2 0x4046 JUMP JUMPDEST PUSH1 0x0 DUP6 PUSH1 0x1 PUSH1 0x1 PUSH1 0xA0 SHL SUB AND PUSH4 0x6481C5E6 PUSH1 0x40 MLOAD DUP2 PUSH4 0xFFFFFFFF AND PUSH1 0xE0 SHL DUP2 MSTORE PUSH1 0x4 ADD PUSH1 0x80 PUSH1 0x40 MLOAD DUP1 DUP4 SUB DUP2 DUP7 DUP1 EXTCODESIZE ISZERO DUP1 ISZERO PUSH2 0x179B JUMPI PUSH1 0x0 DUP1 REVERT JUMPDEST POP GAS STATICCALL ISZERO DUP1 ISZERO PUSH2 0x17AF JUMPI RETURNDATASIZE PUSH1 0x0 DUP1 RETURNDATACOPY RETURNDATASIZE PUSH1 0x0 REVERT JUMPDEST POP POP POP POP PUSH1 0x40 MLOAD RETURNDATASIZE PUSH1 0x1F NOT PUSH1 0x1F DUP3 ADD AND DUP3 ADD DUP1 PUSH1 0x40 MSTORE POP DUP2 ADD SWAP1 PUSH2 0x17D3 SWAP2 SWAP1 PUSH2 0x4619 JUMP JUMPDEST SWAP2 POP PUSH1 0x0 PUSH2 0x17DF PUSH2 0x194B JUMP JUMPDEST PUSH2 0xFFFF DUP1 DUP11 AND PUSH1 0x0 DUP2 DUP2 MSTORE PUSH1 0x20 SWAP4 DUP5 MSTORE PUSH1 0x40 DUP1 DUP3 KECCAK256 DUP9 MLOAD PUSH1 0x1 PUSH1 0x1 PUSH1 0xA0 SHL SUB AND DUP4 MSTORE DUP6 MSTORE DUP1 DUP3 KECCAK256 DUP2 MLOAD DUP1 DUP4 ADD SWAP1 SWAP3 MSTORE SLOAD PUSH1 0xFF DUP2 AND DUP3 MSTORE PUSH2 0x100 SWAP1 DIV SWAP1 SWAP4 AND SWAP4 DUP4 ADD SWAP4 SWAP1 SWAP4 MSTORE SWAP1 SWAP3 POP PUSH2 0x1830 SWAP1 PUSH2 0x2142 JUMP JUMPDEST SWAP1 POP PUSH2 0x183F DUP2 DUP8 DUP5 DUP8 DUP12 PUSH2 0x2155 JUMP JUMPDEST SWAP3 POP DUP4 PUSH1 0x40 ADD MLOAD PUSH1 0x0 EQ ISZERO PUSH2 0x1857 JUMPI PUSH1 0x0 SWAP5 POP PUSH2 0x18E9 JUMP JUMPDEST PUSH1 0x40 DUP2 ADD MLOAD PUSH1 0x0 SWAP1 PUSH2 0x186F SWAP1 PUSH1 0xA EXP PUSH3 0x186A0 PUSH2 0x22C6 JUMP JUMPDEST SWAP1 POP PUSH1 0x0 PUSH2 0x18A2 PUSH2 0x189D PUSH2 0x1898 PUSH2 0x1885 DUP9 PUSH2 0x1519 JUMP JUMPDEST PUSH2 0x1892 DUP11 PUSH1 0x40 ADD MLOAD PUSH2 0x1519 JUMP JUMPDEST SWAP1 PUSH2 0x19F3 JUMP JUMPDEST PUSH2 0x22DF JUMP JUMPDEST PUSH2 0x1E37 JUMP JUMPDEST SWAP1 POP PUSH1 0x0 PUSH2 0x18CE DUP7 PUSH1 0x1 ADD PUSH2 0x18C8 PUSH1 0x64 DUP6 DUP8 LT PUSH2 0x18C0 JUMPI PUSH1 0x0 PUSH2 0x18C2 JUMP JUMPDEST DUP6 JUMPDEST SWAP1 PUSH2 0x211B JUMP JUMPDEST SWAP1 PUSH2 0x2300 JUMP JUMPDEST SWAP1 POP DUP7 PUSH1 0x40 ADD MLOAD DUP7 LT DUP1 ISZERO PUSH2 0x18E3 JUMPI POP DUP1 PUSH1 0x0 LT JUMPDEST SWAP8 POP POP POP POP JUMPDEST POP POP SWAP5 POP SWAP5 POP SWAP5 SWAP2 POP POP JUMP JUMPDEST PUSH2 0x1901 DUP4 PUSH1 0x0 DUP4 PUSH2 0x231F JUMP JUMPDEST POP PUSH1 0x0 PUSH2 0x190C PUSH2 0x1965 JUMP JUMPDEST PUSH1 0x1 PUSH1 0x1 PUSH1 0xA0 SHL SUB SWAP1 SWAP5 AND PUSH1 0x0 SWAP1 DUP2 MSTORE PUSH1 0x20 SWAP5 SWAP1 SWAP5 MSTORE POP POP PUSH1 0x40 SWAP1 SWAP2 KECCAK256 DUP1 SLOAD PUSH4 0xFFFFFFFF SWAP1 SWAP3 AND PUSH3 0x10000 MUL PUSH6 0xFFFFFFFF0000 NOT SWAP1 SWAP3 AND SWAP2 SWAP1 SWAP2 OR SWAP1 SSTORE JUMP JUMPDEST PUSH1 0x0 DUP1 PUSH2 0x15F8 PUSH1 0x24 PUSH2 0x1FC2 JUMP JUMPDEST PUSH1 0x0 DUP1 PUSH2 0x15F8 PUSH1 0x3 PUSH2 0x1FC2 JUMP JUMPDEST PUSH1 0x0 DUP1 PUSH2 0x15F8 PUSH1 0x2 PUSH2 0x1FC2 JUMP JUMPDEST PUSH1 0x0 DUP1 PUSH2 0x15F8 PUSH1 0x12 PUSH2 0x1FC2 JUMP JUMPDEST PUSH1 0x0 DUP2 SLT ISZERO PUSH2 0x198D JUMPI PUSH1 0x0 DUP1 REVERT JUMPDEST PUSH1 0x0 PUSH2 0x1997 PUSH2 0x1E46 JUMP JUMPDEST PUSH1 0x1 PUSH1 0x1 PUSH1 0xA0 SHL SUB DUP6 AND PUSH1 0x0 SWAP1 DUP2 MSTORE PUSH1 0x20 DUP3 DUP2 MSTORE PUSH1 0x40 DUP1 DUP4 KECCAK256 PUSH2 0xFFFF DUP9 AND DUP5 MSTORE SWAP1 SWAP2 MSTORE SWAP1 KECCAK256 SWAP1 SWAP2 POP PUSH2 0x19C8 DUP4 PUSH2 0x2402 JUMP JUMPDEST DUP2 SLOAD PUSH1 0xA SWAP2 SWAP1 SWAP2 SIGNEXTEND PUSH1 0x1 PUSH1 0x1 PUSH1 0x58 SHL SUB AND PUSH1 0x1 PUSH1 0xA8 SHL MUL PUSH1 0x1 PUSH1 0x1 PUSH1 0xA8 SHL SUB SWAP1 SWAP2 AND OR SWAP1 SSTORE POP POP POP POP JUMP JUMPDEST DUP1 DUP3 SUB DUP3 DUP2 SGT ISZERO PUSH1 0x0 DUP4 SLT ISZERO EQ PUSH2 0x15F8 JUMPI PUSH1 0x0 DUP1 REVERT JUMPDEST PUSH1 0x0 PUSH2 0x1A13 PUSH2 0x2434 JUMP JUMPDEST PUSH2 0xFFFF DUP5 AND PUSH1 0x0 SWAP1 DUP2 MSTORE PUSH1 0x20 SWAP2 SWAP1 SWAP2 MSTORE PUSH1 0x40 SWAP1 DUP2 SWAP1 KECCAK256 SLOAD SWAP1 MLOAD PUSH4 0xAD1C095D PUSH1 0xE0 SHL DUP2 MSTORE PUSH1 0x1 PUSH1 0x1 PUSH1 0xA0 SHL SUB SWAP1 SWAP2 AND SWAP2 POP DUP2 SWAP1 PUSH4 0xAD1C095D SWAP1 PUSH2 0x1A5B SWAP1 DUP8 SWAP1 DUP7 SWAP1 PUSH1 0x4 ADD PUSH2 0x491F JUMP JUMPDEST PUSH1 0x0 PUSH1 0x40 MLOAD DUP1 DUP4 SUB DUP2 PUSH1 0x0 DUP8 DUP1 EXTCODESIZE ISZERO DUP1 ISZERO PUSH2 0x1A75 JUMPI PUSH1 0x0 DUP1 REVERT JUMPDEST POP GAS CALL ISZERO DUP1 ISZERO PUSH2 0x1A89 JUMPI RETURNDATASIZE PUSH1 0x0 DUP1 RETURNDATACOPY RETURNDATASIZE PUSH1 0x0 REVERT JUMPDEST POP POP POP POP POP POP POP POP JUMP JUMPDEST PUSH1 0x0 DUP1 PUSH2 0x15F8 PUSH1 0x1F PUSH2 0x1FC2 JUMP JUMPDEST PUSH1 0x0 DUP1 PUSH2 0x15F8 PUSH1 0x26 PUSH2 0x1FC2 JUMP JUMPDEST DUP3 PUSH1 0x1 PUSH1 0x1 PUSH1 0xA0 SHL SUB AND PUSH4 0xA9059CBB DUP4 DUP4 PUSH1 0x40 MLOAD DUP4 PUSH4 0xFFFFFFFF AND PUSH1 0xE0 SHL DUP2 MSTORE PUSH1 0x4 ADD DUP1 DUP4 PUSH1 0x1 PUSH1 0x1 PUSH1 0xA0 SHL SUB AND DUP2 MSTORE PUSH1 0x20 ADD DUP3 DUP2 MSTORE PUSH1 0x20 ADD SWAP3 POP POP POP PUSH1 0x0 PUSH1 0x40 MLOAD DUP1 DUP4 SUB DUP2 PUSH1 0x0 DUP8 DUP1 EXTCODESIZE ISZERO DUP1 ISZERO PUSH2 0x1B04 JUMPI PUSH1 0x0 DUP1 REVERT JUMPDEST POP GAS CALL ISZERO DUP1 ISZERO PUSH2 0x1B18 JUMPI RETURNDATASIZE PUSH1 0x0 DUP1 RETURNDATACOPY RETURNDATASIZE PUSH1 0x0 REVERT JUMPDEST POP POP POP POP PUSH2 0x11E2 PUSH2 0x2441 JUMP JUMPDEST PUSH2 0x1B2C PUSH2 0x3FD9 JUMP JUMPDEST PUSH2 0x15F8 DUP3 TIMESTAMP PUSH2 0x24AE JUMP JUMPDEST PUSH2 0x1B3E PUSH2 0x3FFA JUMP JUMPDEST PUSH1 0x0 PUSH2 0x1B48 PUSH2 0x256F JUMP JUMPDEST PUSH2 0xFFFF SWAP4 DUP5 AND PUSH1 0x0 SWAP1 DUP2 MSTORE PUSH1 0x20 SWAP2 DUP3 MSTORE PUSH1 0x40 SWAP1 DUP2 SWAP1 KECCAK256 DUP1 SLOAD PUSH5 0xFFFFFFFFFF DUP2 AND DUP7 MSTORE PUSH1 0x1 PUSH1 0x28 SHL DUP2 DIV PUSH1 0x1 PUSH1 0x1 PUSH1 0x58 SHL SUB SWAP1 DUP2 AND SWAP5 DUP8 ADD SWAP5 SWAP1 SWAP5 MSTORE PUSH1 0x1 DUP3 ADD SLOAD DUP5 AND SWAP3 DUP7 ADD SWAP3 SWAP1 SWAP3 MSTORE PUSH1 0x1 PUSH1 0xD8 SHL DUP3 DIV PUSH4 0xFFFFFFFF AND PUSH1 0x60 DUP7 ADD MSTORE PUSH1 0x1 PUSH1 0x80 SHL SWAP1 SWAP2 DIV SWAP1 SWAP2 AND PUSH1 0x80 DUP5 ADD MSTORE PUSH1 0x2 ADD SLOAD PUSH1 0x1 PUSH1 0x1 PUSH1 0x50 SHL SUB DUP1 DUP3 AND PUSH1 0xA0 DUP6 ADD MSTORE PUSH1 0x1 PUSH1 0x50 SHL DUP3 DIV DUP2 AND PUSH1 0xC0 DUP6 ADD MSTORE PUSH1 0x1 PUSH1 0xA0 SHL DUP3 DIV AND PUSH1 0xE0 DUP5 ADD MSTORE PUSH1 0x1 PUSH1 0xF0 SHL SWAP1 DIV PUSH1 0xFF AND PUSH2 0x12C MUL SWAP1 SWAP3 AND PUSH2 0x100 DUP3 ADD MSTORE SWAP2 SWAP1 POP JUMP JUMPDEST PUSH1 0x0 DUP3 ISZERO PUSH2 0x1C60 JUMPI PUSH1 0x0 PUSH2 0x1C3F PUSH4 0x3B9ACA00 PUSH2 0x18C8 PUSH8 0xDE0B6B3A7640000 PUSH2 0x1C39 DUP9 PUSH2 0x18C8 PUSH8 0xDE0B6B3A7640000 PUSH2 0x18C2 DUP14 PUSH1 0x0 ADD MLOAD PUSH2 0x1E37 JUMP JUMPDEST SWAP1 PUSH2 0x257C JUMP JUMPDEST SWAP1 POP PUSH2 0x1C5C PUSH2 0x1C4E TIMESTAMP DUP6 PUSH2 0x257C JUMP JUMPDEST PUSH2 0x18C8 DUP4 PUSH4 0x1DA9C00 PUSH2 0x211B JUMP JUMPDEST SWAP2 POP POP JUMPDEST PUSH1 0x0 PUSH2 0x1C6A PUSH2 0x256F JUMP JUMPDEST SWAP1 POP PUSH2 0x1C75 DUP3 PUSH2 0x2591 JUMP JUMPDEST PUSH2 0xFFFF DUP8 AND PUSH1 0x0 SWAP1 DUP2 MSTORE PUSH1 0x20 DUP4 SWAP1 MSTORE PUSH1 0x40 DUP2 KECCAK256 DUP1 SLOAD PUSH4 0xFFFFFFFF SWAP4 SWAP1 SWAP4 AND PUSH1 0x1 PUSH1 0xD8 SHL MUL PUSH4 0xFFFFFFFF PUSH1 0xD8 SHL NOT SWAP1 SWAP4 AND SWAP3 SWAP1 SWAP3 OR SWAP1 SWAP2 SSTORE PUSH2 0x1CB4 PUSH2 0x1658 JUMP JUMPDEST SWAP1 POP PUSH2 0x1CBF TIMESTAMP PUSH2 0x25A4 JUMP JUMPDEST PUSH2 0xFFFF DUP9 AND PUSH1 0x0 SWAP1 DUP2 MSTORE PUSH1 0x20 DUP4 SWAP1 MSTORE PUSH1 0x40 SWAP1 KECCAK256 DUP1 SLOAD PUSH5 0xFFFFFFFFFF SWAP3 SWAP1 SWAP3 AND PUSH1 0x1 PUSH1 0xA8 SHL MUL PUSH5 0xFFFFFFFFFF PUSH1 0xA8 SHL NOT SWAP1 SWAP3 AND SWAP2 SWAP1 SWAP2 OR SWAP1 SSTORE DUP6 MLOAD PUSH2 0x1D0B SWAP1 PUSH2 0x1D06 SWAP1 PUSH2 0x1E37 JUMP JUMPDEST PUSH2 0x25B8 JUMP JUMPDEST PUSH2 0xFFFF SWAP8 SWAP1 SWAP8 AND PUSH1 0x0 SWAP1 DUP2 MSTORE PUSH1 0x20 SWAP2 SWAP1 SWAP2 MSTORE PUSH1 0x40 SWAP1 KECCAK256 DUP1 SLOAD PUSH16 0xFFFFFFFFFFFFFFFFFFFFFFFFFFFFFFFF NOT AND PUSH1 0x1 PUSH1 0x1 PUSH1 0x80 SHL SUB SWAP1 SWAP8 AND SWAP7 SWAP1 SWAP7 OR SWAP1 SWAP6 SSTORE SWAP5 SWAP4 POP POP POP POP JUMP JUMPDEST PUSH1 0x0 PUSH2 0x1D5F DUP7 PUSH2 0xFFFF AND PUSH2 0x2142 JUMP JUMPDEST SWAP1 POP PUSH1 0x0 PUSH2 0x1D6E DUP7 DUP6 DUP6 PUSH2 0x25CE JUMP JUMPDEST SWAP1 POP PUSH1 0x0 PUSH2 0x1D89 DUP7 PUSH1 0x80 ADD MLOAD DUP5 PUSH2 0x2828 SWAP1 SWAP2 SWAP1 PUSH4 0xFFFFFFFF AND JUMP JUMPDEST SWAP1 POP PUSH2 0x1D99 DUP4 DUP4 PUSH1 0x0 ADD MLOAD PUSH2 0x2860 JUMP JUMPDEST POP PUSH2 0x1DA8 DUP4 DUP4 PUSH1 0x20 ADD MLOAD PUSH2 0x2AA3 JUMP JUMPDEST PUSH1 0x0 DUP8 PUSH1 0x1 PUSH1 0x1 PUSH1 0xA0 SHL SUB AND PUSH4 0xEF81F216 PUSH1 0x40 MLOAD DUP2 PUSH4 0xFFFFFFFF AND PUSH1 0xE0 SHL DUP2 MSTORE PUSH1 0x4 ADD PUSH1 0x40 DUP1 MLOAD DUP1 DUP4 SUB DUP2 PUSH1 0x0 DUP8 DUP1 EXTCODESIZE ISZERO DUP1 ISZERO PUSH2 0x1DE4 JUMPI PUSH1 0x0 DUP1 REVERT JUMPDEST POP GAS CALL ISZERO DUP1 ISZERO PUSH2 0x1DF8 JUMPI RETURNDATASIZE PUSH1 0x0 DUP1 RETURNDATACOPY RETURNDATASIZE PUSH1 0x0 REVERT JUMPDEST POP POP POP POP PUSH1 0x40 MLOAD RETURNDATASIZE PUSH1 0x1F NOT PUSH1 0x1F DUP3 ADD AND DUP3 ADD DUP1 PUSH1 0x40 MSTORE POP DUP2 ADD SWAP1 PUSH2 0x1E1C SWAP2 SWAP1 PUSH2 0x488A JUMP JUMPDEST POP SWAP1 POP DUP1 DUP3 GT ISZERO PUSH2 0x1E2C JUMPI PUSH1 0x0 DUP1 REVERT JUMPDEST POP POP POP POP POP POP POP POP POP JUMP JUMPDEST PUSH1 0x0 DUP1 DUP3 SLT ISZERO PUSH2 0x152F JUMPI PUSH1 0x0 DUP1 REVERT JUMPDEST PUSH1 0x0 DUP1 PUSH2 0x15F8 PUSH1 0x6 PUSH2 0x1FC2 JUMP JUMPDEST PUSH1 0x0 PUSH2 0x1E5D PUSH2 0x2434 JUMP JUMPDEST PUSH2 0xFFFF DUP5 AND PUSH1 0x0 SWAP1 DUP2 MSTORE PUSH1 0x20 SWAP2 SWAP1 SWAP2 MSTORE PUSH1 0x40 DUP2 KECCAK256 SLOAD PUSH1 0x1 PUSH1 0x1 PUSH1 0xA0 SHL SUB AND SWAP2 POP DUP3 SLT ISZERO PUSH2 0x1E88 JUMPI SWAP3 SWAP4 SWAP3 JUMPDEST DUP1 PUSH1 0x1 PUSH1 0x1 PUSH1 0xA0 SHL SUB AND PUSH4 0x23DE6651 DUP7 DUP7 PUSH2 0x1EA2 DUP7 PUSH2 0x22DF JUMP JUMPDEST PUSH1 0x40 MLOAD DUP5 PUSH4 0xFFFFFFFF AND PUSH1 0xE0 SHL DUP2 MSTORE PUSH1 0x4 ADD PUSH2 0x1EC0 SWAP4 SWAP3 SWAP2 SWAP1 PUSH2 0x48FB JUMP JUMPDEST PUSH1 0x0 PUSH1 0x40 MLOAD DUP1 DUP4 SUB DUP2 PUSH1 0x0 DUP8 DUP1 EXTCODESIZE ISZERO DUP1 ISZERO PUSH2 0x1EDA JUMPI PUSH1 0x0 DUP1 REVERT JUMPDEST POP GAS CALL ISZERO DUP1 ISZERO PUSH2 0x1E2C JUMPI RETURNDATASIZE PUSH1 0x0 DUP1 RETURNDATACOPY RETURNDATASIZE PUSH1 0x0 REVERT JUMPDEST PUSH1 0x0 PUSH2 0x15F8 PUSH1 0x0 NOT DUP4 PUSH2 0x2CD9 JUMP JUMPDEST PUSH1 0x0 DUP4 PUSH2 0x1F0B JUMPI POP PUSH1 0x0 PUSH2 0x1F9C JUMP JUMPDEST PUSH1 0x0 DUP5 SLT PUSH2 0x1F18 JUMPI PUSH1 0x0 DUP1 REVERT JUMPDEST PUSH1 0x0 PUSH2 0x1F27 DUP7 PUSH2 0xFFFF AND PUSH2 0x2142 JUMP JUMPDEST SWAP1 POP PUSH2 0x1F3C DUP2 PUSH2 0x1F37 DUP7 DUP9 PUSH2 0x2D27 JUMP JUMPDEST PUSH2 0x2828 JUMP JUMPDEST SWAP2 POP PUSH1 0x0 PUSH2 0x1F49 DUP4 PUSH2 0x1EEE JUMP JUMPDEST SWAP1 POP PUSH2 0x1F56 DUP8 DUP4 DUP4 PUSH2 0x2D70 JUMP JUMPDEST PUSH1 0x3 DUP3 PUSH1 0x60 ADD MLOAD PUSH1 0x5 DUP2 GT ISZERO PUSH2 0x1F68 JUMPI INVALID JUMPDEST EQ ISZERO PUSH2 0x1F7E JUMPI PUSH2 0x1F79 DUP9 DUP3 DUP7 PUSH2 0x2E5C JUMP JUMPDEST PUSH2 0x1F8B JUMP JUMPDEST DUP2 MLOAD PUSH2 0x1F8B SWAP1 DUP10 DUP4 PUSH2 0x1AAD JUMP JUMPDEST PUSH2 0x1F98 DUP10 DUP9 DUP6 DUP6 DUP10 PUSH2 0x2F24 JUMP JUMPDEST POP POP POP JUMPDEST SWAP7 SWAP6 POP POP POP POP POP POP JUMP JUMPDEST PUSH1 0x0 PUSH2 0x1FB2 DUP4 DUP4 PUSH2 0x19F3 JUMP JUMPDEST SWAP1 POP PUSH1 0x0 DUP2 SLT ISZERO PUSH2 0x15F8 JUMPI PUSH1 0x0 DUP1 REVERT JUMPDEST PUSH1 0x0 PUSH3 0xF4240 DUP3 PUSH1 0x26 DUP2 GT ISZERO PUSH2 0x1FD4 JUMPI INVALID JUMPDEST ADD SWAP3 SWAP2 POP POP JUMP JUMPDEST PUSH1 0x0 DUP3 DUP3 ADD DUP4 DUP2 LT ISZERO PUSH2 0x1FED JUMPI PUSH1 0x0 DUP1 REVERT JUMPDEST SWAP4 SWAP3 POP POP POP JUMP JUMPDEST PUSH1 0x0 DUP1 PUSH2 0x2000 DUP4 PUSH2 0x11E7 JUMP JUMPDEST PUSH1 0x1 PUSH1 0x1 PUSH1 0xA0 SHL SUB AND PUSH4 0xA77C05B8 PUSH1 0x40 MLOAD DUP2 PUSH4 0xFFFFFFFF AND PUSH1 0xE0 SHL DUP2 MSTORE PUSH1 0x4 ADD PUSH1 0x40 DUP1 MLOAD DUP1 DUP4 SUB DUP2 DUP7 DUP1 EXTCODESIZE ISZERO DUP1 ISZERO PUSH2 0x2037 JUMPI PUSH1 0x0 DUP1 REVERT JUMPDEST POP GAS STATICCALL ISZERO DUP1 ISZERO PUSH2 0x204B JUMPI RETURNDATASIZE PUSH1 0x0 DUP1 RETURNDATACOPY RETURNDATASIZE PUSH1 0x0 REVERT JUMPDEST POP POP POP POP PUSH1 0x40 MLOAD RETURNDATASIZE PUSH1 0x1F NOT PUSH1 0x1F DUP3 ADD AND DUP3 ADD DUP1 PUSH1 0x40 MSTORE POP DUP2 ADD SWAP1 PUSH2 0x206F SWAP2 SWAP1 PUSH2 0x488A JUMP JUMPDEST SWAP5 SWAP4 POP POP POP POP JUMP JUMPDEST PUSH2 0x207F PUSH2 0x3FFA JUMP JUMPDEST PUSH1 0x0 DUP1 PUSH1 0x0 PUSH2 0x208F DUP9 DUP7 DUP10 PUSH2 0x2F6B JUMP JUMPDEST PUSH1 0xC0 DUP12 ADD SWAP3 SWAP1 SWAP3 MSTORE PUSH1 0xE0 DUP11 ADD SWAP3 SWAP1 SWAP3 MSTORE PUSH1 0x20 DUP10 ADD MLOAD SWAP2 SWAP4 POP SWAP2 POP PUSH2 0x20B3 SWAP1 DUP4 PUSH2 0x1FDB JUMP JUMPDEST PUSH1 0x20 DUP9 ADD MSTORE PUSH1 0x80 DUP8 ADD MLOAD PUSH1 0x0 SWAP1 ISZERO PUSH2 0x20E1 JUMPI PUSH1 0x80 DUP9 ADD MLOAD PUSH2 0x20DE SWAP1 PUSH2 0x20D8 DUP10 DUP3 PUSH2 0x257C JUMP JUMPDEST SWAP1 PUSH2 0x3076 JUMP JUMPDEST SWAP1 POP JUMPDEST PUSH2 0x2101 PUSH2 0x20F6 PUSH8 0xDE0B6B3A7640000 DUP4 PUSH2 0x1FDB JUMP JUMPDEST PUSH1 0xA0 DUP11 ADD MLOAD SWAP1 PUSH2 0x3093 JUMP JUMPDEST PUSH1 0xA0 DUP10 ADD MSTORE POP POP PUSH1 0x80 DUP7 ADD SWAP5 SWAP1 SWAP5 MSTORE POP POP DUP3 MSTORE SWAP1 SWAP3 SWAP1 SWAP2 POP JUMP JUMPDEST PUSH1 0x0 DUP3 PUSH2 0x212A JUMPI POP PUSH1 0x0 PUSH2 0x15F8 JUMP JUMPDEST DUP3 DUP3 MUL DUP3 DUP5 DUP3 DUP2 PUSH2 0x2137 JUMPI INVALID JUMPDEST DIV EQ PUSH2 0x1FED JUMPI PUSH1 0x0 DUP1 REVERT JUMPDEST PUSH2 0x214A PUSH2 0x4077 JUMP JUMPDEST PUSH2 0x15F8 DUP3 PUSH1 0x1 PUSH2 0x30B0 JUMP JUMPDEST PUSH1 0x0 DUP1 PUSH2 0x216F DUP7 PUSH1 0x20 ADD MLOAD DUP5 PUSH2 0x2D27 SWAP1 SWAP2 SWAP1 PUSH4 0xFFFFFFFF AND JUMP JUMPDEST SWAP1 POP PUSH1 0x0 PUSH2 0x218D PUSH2 0x1898 PUSH2 0x2186 DUP10 PUSH1 0x40 ADD MLOAD PUSH2 0x1EEE JUMP JUMPDEST DUP7 SWAP1 PUSH2 0x314A JUMP JUMPDEST SWAP1 POP PUSH1 0x0 PUSH2 0x21BA DUP3 PUSH2 0x1892 PUSH1 0x64 PUSH2 0x21B4 DUP12 PUSH1 0x0 ADD MLOAD PUSH1 0xFF AND DUP9 PUSH2 0x2CD9 SWAP1 SWAP2 SWAP1 PUSH4 0xFFFFFFFF AND JUMP JUMPDEST SWAP1 PUSH2 0x3195 JUMP JUMPDEST SWAP1 POP PUSH1 0x0 DUP2 SLT ISZERO PUSH2 0x21C9 JUMPI POP PUSH1 0x0 JUMPDEST PUSH1 0x0 DUP7 PUSH1 0x20 ADD MLOAD DUP8 PUSH1 0x40 ADD MLOAD LT DUP1 ISZERO PUSH2 0x21E9 JUMPI POP PUSH1 0x20 DUP9 ADD MLOAD PUSH2 0xFFFF AND ISZERO ISZERO JUMPDEST ISZERO PUSH2 0x2236 JUMPI PUSH2 0x222F PUSH1 0x64 DUP10 PUSH1 0x20 ADD MLOAD PUSH2 0xFFFF AND SUB PUSH2 0x18C8 PUSH2 0x221F DUP12 PUSH1 0x20 ADD MLOAD PUSH2 0xFFFF AND DUP12 PUSH1 0x40 ADD MLOAD PUSH2 0x211B SWAP1 SWAP2 SWAP1 PUSH4 0xFFFFFFFF AND JUMP JUMPDEST PUSH1 0x20 DUP12 ADD MLOAD PUSH2 0x1C39 SWAP1 PUSH1 0x64 PUSH2 0x211B JUMP JUMPDEST SWAP1 POP PUSH2 0x223A JUMP JUMPDEST POP PUSH1 0x0 JUMPDEST PUSH2 0x224D PUSH2 0x2247 DUP12 DUP5 PUSH2 0x2828 JUMP JUMPDEST DUP3 PUSH2 0x31C6 JUMP JUMPDEST SWAP5 POP DUP7 PUSH1 0x40 ADD MLOAD DUP6 LT ISZERO PUSH2 0x2286 JUMPI PUSH1 0x0 DUP6 DUP9 PUSH1 0x40 ADD MLOAD SUB SWAP1 POP DUP1 DUP9 PUSH1 0x20 ADD MLOAD LT ISZERO PUSH2 0x2280 JUMPI DUP8 PUSH1 0x20 ADD MLOAD DUP9 PUSH1 0x40 ADD MLOAD SUB SWAP6 POP JUMPDEST POP PUSH2 0x22B9 JUMP JUMPDEST DUP5 DUP8 PUSH1 0x40 ADD MLOAD LT ISZERO PUSH2 0x22B9 JUMPI PUSH1 0x0 DUP8 PUSH1 0x40 ADD MLOAD DUP7 SUB SWAP1 POP DUP1 DUP9 PUSH1 0x60 ADD MLOAD LT ISZERO PUSH2 0x22B7 JUMPI DUP8 PUSH1 0x60 ADD MLOAD DUP9 PUSH1 0x40 ADD MLOAD ADD SWAP6 POP JUMPDEST POP JUMPDEST POP POP POP POP SWAP6 SWAP5 POP POP POP POP POP JUMP JUMPDEST PUSH1 0x0 PUSH2 0x1FED PUSH2 0x22D5 DUP5 DUP5 PUSH2 0x211B JUMP JUMPDEST PUSH4 0x3B9ACA00 PUSH2 0x2300 JUMP JUMPDEST PUSH1 0x0 DUP1 DUP3 SLT ISZERO PUSH2 0x22F9 JUMPI PUSH2 0x22F2 DUP3 PUSH2 0x1EEE JUMP JUMPDEST SWAP1 POP PUSH2 0x1087 JUMP JUMPDEST POP DUP1 PUSH2 0x1087 JUMP JUMPDEST PUSH1 0x0 DUP1 DUP3 GT PUSH2 0x230E JUMPI PUSH1 0x0 DUP1 REVERT JUMPDEST DUP2 DUP4 DUP2 PUSH2 0x2317 JUMPI INVALID JUMPDEST DIV SWAP4 SWAP3 POP POP POP JUMP JUMPDEST PUSH1 0x0 DUP1 PUSH1 0x0 PUSH2 0x232E DUP7 DUP6 PUSH2 0x31DC JUMP JUMPDEST POP SWAP2 POP SWAP2 POP PUSH1 0x0 PUSH2 0x233D PUSH2 0x3272 JUMP JUMPDEST PUSH1 0x1 PUSH1 0x1 PUSH1 0xA0 SHL SUB DUP9 AND PUSH1 0x0 SWAP1 DUP2 MSTORE PUSH1 0x20 DUP3 SWAP1 MSTORE PUSH1 0x40 DUP2 KECCAK256 SWAP2 SWAP3 POP PUSH2 0x2362 DUP6 DUP10 PUSH2 0x327F JUMP JUMPDEST SWAP1 POP DUP1 PUSH1 0x0 SGT ISZERO DUP1 ISZERO PUSH2 0x237B JUMPI POP PUSH1 0x1 PUSH1 0x1 PUSH1 0x60 SHL SUB DUP2 LT JUMPDEST PUSH2 0x2384 JUMPI PUSH1 0x0 DUP1 REVERT JUMPDEST DUP2 SLOAD PUSH12 0xFFFFFFFFFFFFFFFFFFFFFFFF NOT AND PUSH1 0x1 PUSH1 0x1 PUSH1 0x60 SHL SUB DUP3 AND OR PUSH16 0xFFFFFFFFFFFFFFFFFFFFFFFFFFFFFFFF PUSH1 0x60 SHL NOT AND PUSH1 0x1 PUSH1 0x60 SHL PUSH1 0x1 PUSH1 0x1 PUSH1 0x80 SHL SUB DUP7 AND MUL OR DUP3 SSTORE PUSH4 0xFFFFFFFF DUP8 LT PUSH2 0x23D9 JUMPI PUSH1 0x0 DUP1 REVERT JUMPDEST POP DUP1 SLOAD PUSH4 0xFFFFFFFF DUP8 AND PUSH1 0x1 PUSH1 0xE0 SHL MUL PUSH1 0x1 PUSH1 0x1 PUSH1 0xE0 SHL SUB SWAP1 SWAP2 AND OR SWAP1 SSTORE POP SWAP2 POP POP SWAP4 SWAP3 POP POP POP JUMP JUMPDEST PUSH1 0x0 PUSH11 0x7FFFFFFFFFFFFFFFFFFFFF NOT DUP3 SLT DUP1 ISZERO SWAP1 PUSH2 0x242B JUMPI POP PUSH11 0x7FFFFFFFFFFFFFFFFFFFFF DUP3 SGT ISZERO JUMPDEST PUSH2 0x152F JUMPI PUSH1 0x0 DUP1 REVERT JUMPDEST PUSH1 0x0 DUP1 PUSH2 0x15F8 PUSH1 0x21 PUSH2 0x1FC2 JUMP JUMPDEST PUSH1 0x0 PUSH2 0x244B PUSH2 0x40A6 JUMP JUMPDEST RETURNDATASIZE DUP1 ISZERO PUSH2 0x245F JUMPI PUSH1 0x20 DUP2 EQ PUSH2 0x2468 JUMPI PUSH1 0x0 DUP1 REVERT JUMPDEST PUSH1 0x1 SWAP3 POP PUSH2 0x2473 JUMP JUMPDEST PUSH1 0x20 PUSH1 0x0 DUP4 RETURNDATACOPY DUP2 MLOAD SWAP3 POP JUMPDEST POP DUP2 PUSH2 0x545 JUMPI PUSH1 0x40 DUP1 MLOAD PUSH3 0x461BCD PUSH1 0xE5 SHL DUP2 MSTORE PUSH1 0x20 PUSH1 0x4 DUP3 ADD MSTORE PUSH1 0x5 PUSH1 0x24 DUP3 ADD MSTORE PUSH5 0x455243323 PUSH1 0xDC SHL PUSH1 0x44 DUP3 ADD MSTORE SWAP1 MLOAD SWAP1 DUP2 SWAP1 SUB PUSH1 0x64 ADD SWAP1 REVERT JUMPDEST PUSH2 0x24B6 PUSH2 0x3FD9 JUMP JUMPDEST PUSH1 0x0 PUSH2 0x24C1 DUP5 PUSH2 0x1B36 JUMP JUMPDEST SWAP1 POP DUP3 DUP2 PUSH1 0x0 ADD MLOAD LT ISZERO PUSH2 0x2500 JUMPI PUSH1 0x0 DUP1 PUSH2 0x24DB DUP7 PUSH2 0x3295 JUMP JUMPDEST SWAP1 POP PUSH2 0x24E9 DUP7 DUP5 DUP4 DUP9 PUSH2 0x2077 JUMP JUMPDEST SWAP1 SWAP4 POP SWAP2 POP PUSH2 0x24F9 DUP7 DUP4 DUP6 PUSH2 0x32EE JUMP JUMPDEST POP POP PUSH2 0x250D JUMP JUMPDEST DUP1 MLOAD DUP4 EQ PUSH2 0x250D JUMPI PUSH1 0x0 DUP1 REVERT JUMPDEST PUSH1 0x40 MLOAD DUP1 PUSH1 0x60 ADD PUSH1 0x40 MSTORE DUP1 PUSH2 0x2536 PUSH2 0x1718 DUP5 PUSH1 0xA0 ADD MLOAD DUP6 PUSH1 0xC0 ADD MLOAD PUSH2 0x211B SWAP1 SWAP2 SWAP1 PUSH4 0xFFFFFFFF AND JUMP JUMPDEST DUP2 MSTORE PUSH1 0x20 ADD PUSH2 0x2559 PUSH2 0x1718 DUP5 PUSH1 0xA0 ADD MLOAD DUP6 PUSH1 0xE0 ADD MLOAD PUSH2 0x211B SWAP1 SWAP2 SWAP1 PUSH4 0xFFFFFFFF AND JUMP JUMPDEST DUP2 MSTORE PUSH1 0x20 ADD DUP3 PUSH1 0x60 ADD MLOAD DUP2 MSTORE POP SWAP2 POP POP SWAP3 SWAP2 POP POP JUMP JUMPDEST PUSH1 0x0 DUP1 PUSH2 0x15F8 PUSH1 0x1D PUSH2 0x1FC2 JUMP JUMPDEST PUSH1 0x0 DUP3 DUP3 GT ISZERO PUSH2 0x258B JUMPI PUSH1 0x0 DUP1 REVERT JUMPDEST POP SWAP1 SUB SWAP1 JUMP JUMPDEST PUSH1 0x0 PUSH4 0xFFFFFFFF DUP3 GT ISZERO PUSH2 0x152F JUMPI PUSH1 0x0 DUP1 REVERT JUMPDEST PUSH1 0x0 PUSH5 0xFFFFFFFFFF DUP3 GT ISZERO PUSH2 0x152F JUMPI PUSH1 0x0 DUP1 REVERT JUMPDEST PUSH1 0x0 PUSH1 0x1 PUSH1 0x1 PUSH1 0x80 SHL SUB DUP3 GT ISZERO PUSH2 0x152F JUMPI PUSH1 0x0 DUP1 REVERT JUMPDEST PUSH2 0x25D6 PUSH2 0x40C4 JUMP JUMPDEST DUP3 MLOAD PUSH1 0x40 DUP5 ADD MLOAD DUP1 DUP5 LT ISZERO PUSH2 0x26FF JUMPI PUSH1 0x40 DUP1 MLOAD PUSH1 0x1 DUP1 DUP3 MSTORE DUP2 DUP4 ADD SWAP1 SWAP3 MSTORE PUSH1 0x0 SWAP2 PUSH1 0x20 DUP1 DUP4 ADD SWAP1 DUP1 CALLDATASIZE DUP4 CALLDATACOPY POP POP PUSH1 0x40 DUP1 MLOAD PUSH1 0x1 DUP1 DUP3 MSTORE DUP2 DUP4 ADD SWAP1 SWAP3 MSTORE SWAP3 SWAP4 POP PUSH1 0x0 SWAP3 SWAP2 POP PUSH1 0x20 DUP1 DUP4 ADD SWAP1 DUP1 CALLDATASIZE DUP4 CALLDATACOPY ADD SWAP1 POP POP SWAP1 POP DUP4 DUP3 PUSH1 0x0 DUP2 MLOAD DUP2 LT PUSH2 0x2638 JUMPI INVALID JUMPDEST PUSH1 0x20 MUL PUSH1 0x20 ADD ADD SWAP1 PUSH1 0x1 PUSH1 0x1 PUSH1 0xA0 SHL SUB AND SWAP1 DUP2 PUSH1 0x1 PUSH1 0x1 PUSH1 0xA0 SHL SUB AND DUP2 MSTORE POP POP DUP6 DUP4 SUB DUP2 PUSH1 0x0 DUP2 MLOAD DUP2 LT PUSH2 0x2668 JUMPI INVALID JUMPDEST PUSH1 0x20 SWAP1 DUP2 MUL SWAP2 SWAP1 SWAP2 ADD ADD MSTORE PUSH1 0x40 MLOAD PUSH4 0x871ADE43 PUSH1 0xE0 SHL DUP2 MSTORE PUSH1 0x1 PUSH1 0x1 PUSH1 0xA0 SHL SUB DUP10 AND SWAP1 PUSH4 0x871ADE43 SWAP1 PUSH2 0x26A1 SWAP1 DUP6 SWAP1 DUP6 SWAP1 PUSH1 0x4 ADD PUSH2 0x4938 JUMP JUMPDEST PUSH1 0x0 PUSH1 0x40 MLOAD DUP1 DUP4 SUB DUP2 DUP7 DUP1 EXTCODESIZE ISZERO DUP1 ISZERO PUSH2 0x26B9 JUMPI PUSH1 0x0 DUP1 REVERT JUMPDEST POP GAS STATICCALL ISZERO DUP1 ISZERO PUSH2 0x26CD JUMPI RETURNDATASIZE PUSH1 0x0 DUP1 RETURNDATACOPY RETURNDATASIZE PUSH1 0x0 REVERT JUMPDEST POP POP POP POP PUSH1 0x40 MLOAD RETURNDATASIZE PUSH1 0x0 DUP3 RETURNDATACOPY PUSH1 0x1F RETURNDATASIZE SWAP1 DUP2 ADD PUSH1 0x1F NOT AND DUP3 ADD PUSH1 0x40 MSTORE PUSH2 0x26F5 SWAP2 SWAP1 DUP2 ADD SWAP1 PUSH2 0x447C JUMP JUMPDEST DUP6 MSTORE POP PUSH2 0x281F SWAP1 POP JUMP JUMPDEST DUP4 DUP2 LT ISZERO PUSH2 0x281F JUMPI PUSH1 0x40 DUP1 MLOAD PUSH1 0x1 DUP1 DUP3 MSTORE DUP2 DUP4 ADD SWAP1 SWAP3 MSTORE PUSH1 0x0 SWAP2 PUSH1 0x20 DUP1 DUP4 ADD SWAP1 DUP1 CALLDATASIZE DUP4 CALLDATACOPY POP POP PUSH1 0x40 DUP1 MLOAD PUSH1 0x1 DUP1 DUP3 MSTORE DUP2 DUP4 ADD SWAP1 SWAP3 MSTORE SWAP3 SWAP4 POP PUSH1 0x0 SWAP3 SWAP2 POP PUSH1 0x20 DUP1 DUP4 ADD SWAP1 DUP1 CALLDATASIZE DUP4 CALLDATACOPY ADD SWAP1 POP POP SWAP1 POP DUP4 DUP3 PUSH1 0x0 DUP2 MLOAD DUP2 LT PUSH2 0x275A JUMPI INVALID JUMPDEST PUSH1 0x20 MUL PUSH1 0x20 ADD ADD SWAP1 PUSH1 0x1 PUSH1 0x1 PUSH1 0xA0 SHL SUB AND SWAP1 DUP2 PUSH1 0x1 PUSH1 0x1 PUSH1 0xA0 SHL SUB AND DUP2 MSTORE POP POP DUP3 DUP7 SUB DUP2 PUSH1 0x0 DUP2 MLOAD DUP2 LT PUSH2 0x278A JUMPI INVALID JUMPDEST PUSH1 0x20 SWAP1 DUP2 MUL SWAP2 SWAP1 SWAP2 ADD ADD MSTORE PUSH1 0x40 MLOAD PUSH4 0x76CF13AF PUSH1 0xE0 SHL DUP2 MSTORE PUSH1 0x1 PUSH1 0x1 PUSH1 0xA0 SHL SUB DUP10 AND SWAP1 PUSH4 0x76CF13AF SWAP1 PUSH2 0x27C3 SWAP1 DUP6 SWAP1 DUP6 SWAP1 PUSH1 0x4 ADD PUSH2 0x4938 JUMP JUMPDEST PUSH1 0x0 PUSH1 0x40 MLOAD DUP1 DUP4 SUB DUP2 DUP7 DUP1 EXTCODESIZE ISZERO DUP1 ISZERO PUSH2 0x27DB JUMPI PUSH1 0x0 DUP1 REVERT JUMPDEST POP GAS STATICCALL ISZERO DUP1 ISZERO PUSH2 0x27EF JUMPI RETURNDATASIZE PUSH1 0x0 DUP1 RETURNDATACOPY RETURNDATASIZE PUSH1 0x0 REVERT JUMPDEST POP POP POP POP PUSH1 0x40 MLOAD RETURNDATASIZE PUSH1 0x0 DUP3 RETURNDATACOPY PUSH1 0x1F RETURNDATASIZE SWAP1 DUP2 ADD PUSH1 0x1F NOT AND DUP3 ADD PUSH1 0x40 MSTORE PUSH2 0x2817 SWAP2 SWAP1 DUP2 ADD SWAP1 PUSH2 0x4345 JUMP JUMPDEST PUSH1 0x20 DUP7 ADD MSTORE POP POP JUMPDEST POP POP SWAP4 SWAP3 POP POP POP JUMP JUMPDEST PUSH1 0x0 PUSH4 0x5F5E100 DUP4 PUSH1 0x40 ADD MLOAD EQ ISZERO PUSH2 0x2841 JUMPI POP DUP1 PUSH2 0x15F8 JUMP JUMPDEST PUSH2 0x1FED PUSH4 0x5F5E100 PUSH2 0x21B4 DUP6 PUSH1 0x40 ADD MLOAD DUP6 PUSH2 0x2CD9 SWAP1 SWAP2 SWAP1 PUSH4 0xFFFFFFFF AND JUMP JUMPDEST PUSH1 0x0 DUP1 JUMPDEST DUP3 MLOAD DUP2 LT ISZERO PUSH2 0x2A9C JUMPI PUSH1 0x0 DUP4 DUP3 DUP2 MLOAD DUP2 LT PUSH2 0x287B JUMPI INVALID JUMPDEST PUSH1 0x20 MUL PUSH1 0x20 ADD ADD MLOAD SWAP1 POP PUSH1 0x0 DUP2 PUSH1 0x60 ADD MLOAD PUSH1 0x1 PUSH1 0x1 PUSH1 0xA0 SHL SUB AND PUSH4 0x70A08231 ADDRESS PUSH1 0x40 MLOAD DUP3 PUSH4 0xFFFFFFFF AND PUSH1 0xE0 SHL DUP2 MSTORE PUSH1 0x4 ADD PUSH2 0x28B7 SWAP2 SWAP1 PUSH2 0x48E7 JUMP JUMPDEST PUSH1 0x20 PUSH1 0x40 MLOAD DUP1 DUP4 SUB DUP2 DUP7 DUP1 EXTCODESIZE ISZERO DUP1 ISZERO PUSH2 0x28CF JUMPI PUSH1 0x0 DUP1 REVERT JUMPDEST POP GAS STATICCALL ISZERO DUP1 ISZERO PUSH2 0x28E3 JUMPI RETURNDATASIZE PUSH1 0x0 DUP1 RETURNDATACOPY RETURNDATASIZE PUSH1 0x0 REVERT JUMPDEST POP POP POP POP PUSH1 0x40 MLOAD RETURNDATASIZE PUSH1 0x1F NOT PUSH1 0x1F DUP3 ADD AND DUP3 ADD DUP1 PUSH1 0x40 MSTORE POP DUP2 ADD SWAP1 PUSH2 0x2907 SWAP2 SWAP1 PUSH2 0x4872 JUMP JUMPDEST SWAP1 POP PUSH1 0x0 PUSH2 0x2915 DUP8 ADDRESS PUSH2 0x3514 JUMP JUMPDEST SWAP1 POP PUSH1 0x0 JUMPDEST DUP4 MLOAD MLOAD DUP2 LT ISZERO PUSH2 0x2966 JUMPI PUSH2 0x295E DUP5 PUSH1 0x0 ADD MLOAD DUP3 DUP2 MLOAD DUP2 LT PUSH2 0x2937 JUMPI INVALID JUMPDEST PUSH1 0x20 MUL PUSH1 0x20 ADD ADD MLOAD PUSH1 0x0 DUP7 PUSH1 0x20 ADD MLOAD DUP5 DUP2 MLOAD DUP2 LT PUSH2 0x2951 JUMPI INVALID JUMPDEST PUSH1 0x20 MUL PUSH1 0x20 ADD ADD MLOAD PUSH2 0x35C5 JUMP JUMPDEST PUSH1 0x1 ADD PUSH2 0x291A JUMP JUMPDEST POP PUSH1 0x0 PUSH2 0x2973 DUP9 ADDRESS PUSH2 0x3514 JUMP JUMPDEST SWAP1 POP PUSH1 0x0 PUSH2 0x2981 DUP3 DUP5 PUSH2 0x257C JUMP JUMPDEST SWAP1 POP DUP1 DUP6 PUSH1 0x40 ADD MLOAD GT ISZERO PUSH2 0x2994 JUMPI PUSH1 0x0 DUP1 REVERT JUMPDEST PUSH1 0x60 DUP6 ADD MLOAD PUSH1 0x40 MLOAD PUSH4 0x70A08231 PUSH1 0xE0 SHL DUP2 MSTORE PUSH1 0x0 SWAP2 PUSH1 0x1 PUSH1 0x1 PUSH1 0xA0 SHL SUB AND SWAP1 PUSH4 0x70A08231 SWAP1 PUSH2 0x29C7 SWAP1 ADDRESS SWAP1 PUSH1 0x4 ADD PUSH2 0x48E7 JUMP JUMPDEST PUSH1 0x20 PUSH1 0x40 MLOAD DUP1 DUP4 SUB DUP2 DUP7 DUP1 EXTCODESIZE ISZERO DUP1 ISZERO PUSH2 0x29DF JUMPI PUSH1 0x0 DUP1 REVERT JUMPDEST POP GAS STATICCALL ISZERO DUP1 ISZERO PUSH2 0x29F3 JUMPI RETURNDATASIZE PUSH1 0x0 DUP1 RETURNDATACOPY RETURNDATASIZE PUSH1 0x0 REVERT JUMPDEST POP POP POP POP PUSH1 0x40 MLOAD RETURNDATASIZE PUSH1 0x1F NOT PUSH1 0x1F DUP3 ADD AND DUP3 ADD DUP1 PUSH1 0x40 MSTORE POP DUP2 ADD SWAP1 PUSH2 0x2A17 SWAP2 SWAP1 PUSH2 0x4872 JUMP JUMPDEST SWAP1 POP DUP5 DUP2 GT ISZERO PUSH2 0x2A26 JUMPI PUSH1 0x0 DUP1 REVERT JUMPDEST PUSH1 0x80 DUP7 ADD MLOAD PUSH1 0xFF AND ISZERO DUP1 ISZERO SWAP1 PUSH2 0x2A45 JUMPI POP PUSH2 0x2A41 DUP6 DUP3 PUSH2 0x257C JUMP JUMPDEST DUP3 EQ ISZERO JUMPDEST ISZERO PUSH2 0x2A60 JUMPI PUSH1 0x80 DUP7 ADD MLOAD PUSH2 0x2A5D SWAP1 DUP3 SWAP1 PUSH1 0xFF AND PUSH2 0x1FDB JUMP JUMPDEST SWAP1 POP JUMPDEST PUSH2 0x2A6F DUP7 PUSH1 0x60 ADD MLOAD DUP7 DUP4 PUSH2 0x3702 JUMP JUMPDEST PUSH2 0x2A79 DUP9 DUP4 PUSH2 0x1FDB JUMP JUMPDEST SWAP8 POP PUSH2 0x2A8A DUP11 PUSH1 0x0 ADD MLOAD DUP6 DUP6 PUSH2 0x3702 JUMP JUMPDEST POP POP PUSH1 0x1 SWAP1 SWAP5 ADD SWAP4 POP PUSH2 0x2864 SWAP3 POP POP POP JUMP JUMPDEST POP SWAP3 SWAP2 POP POP JUMP JUMPDEST PUSH1 0x0 JUMPDEST DUP2 MLOAD DUP2 LT ISZERO PUSH2 0x11E2 JUMPI PUSH1 0x0 DUP3 DUP3 DUP2 MLOAD DUP2 LT PUSH2 0x2ABD JUMPI INVALID JUMPDEST PUSH1 0x20 MUL PUSH1 0x20 ADD ADD MLOAD SWAP1 POP PUSH1 0x0 DUP2 PUSH1 0x80 ADD MLOAD PUSH1 0x1 PUSH1 0x1 PUSH1 0xA0 SHL SUB AND PUSH4 0x70A08231 ADDRESS PUSH1 0x40 MLOAD DUP3 PUSH4 0xFFFFFFFF AND PUSH1 0xE0 SHL DUP2 MSTORE PUSH1 0x4 ADD PUSH2 0x2AF9 SWAP2 SWAP1 PUSH2 0x48E7 JUMP JUMPDEST PUSH1 0x20 PUSH1 0x40 MLOAD DUP1 DUP4 SUB DUP2 DUP7 DUP1 EXTCODESIZE ISZERO DUP1 ISZERO PUSH2 0x2B11 JUMPI PUSH1 0x0 DUP1 REVERT JUMPDEST POP GAS STATICCALL ISZERO DUP1 ISZERO PUSH2 0x2B25 JUMPI RETURNDATASIZE PUSH1 0x0 DUP1 RETURNDATACOPY RETURNDATASIZE PUSH1 0x0 REVERT JUMPDEST POP POP POP POP PUSH1 0x40 MLOAD RETURNDATASIZE PUSH1 0x1F NOT PUSH1 0x1F DUP3 ADD AND DUP3 ADD DUP1 PUSH1 0x40 MSTORE POP DUP2 ADD SWAP1 PUSH2 0x2B49 SWAP2 SWAP1 PUSH2 0x4872 JUMP JUMPDEST SWAP1 POP PUSH1 0x0 PUSH2 0x2B57 DUP7 ADDRESS PUSH2 0x3514 JUMP JUMPDEST SWAP1 POP PUSH1 0x0 JUMPDEST DUP4 MLOAD MLOAD DUP2 LT ISZERO PUSH2 0x2BB1 JUMPI PUSH2 0x2BA9 DUP5 PUSH1 0x0 ADD MLOAD DUP3 DUP2 MLOAD DUP2 LT PUSH2 0x2B79 JUMPI INVALID JUMPDEST PUSH1 0x20 MUL PUSH1 0x20 ADD ADD MLOAD DUP6 PUSH1 0x40 ADD MLOAD DUP4 DUP2 MLOAD DUP2 LT PUSH2 0x2B91 JUMPI INVALID JUMPDEST PUSH1 0x20 MUL PUSH1 0x20 ADD ADD MLOAD DUP7 PUSH1 0x20 ADD MLOAD DUP5 DUP2 MLOAD DUP2 LT PUSH2 0x2951 JUMPI INVALID JUMPDEST PUSH1 0x1 ADD PUSH2 0x2B5C JUMP JUMPDEST POP PUSH1 0x0 PUSH2 0x2BBE DUP8 ADDRESS PUSH2 0x3514 JUMP JUMPDEST SWAP1 POP PUSH1 0x0 PUSH2 0x2BCC DUP4 DUP4 PUSH2 0x257C JUMP JUMPDEST SWAP1 POP DUP5 PUSH1 0x60 ADD MLOAD DUP2 GT ISZERO PUSH2 0x2BDF JUMPI PUSH1 0x0 DUP1 REVERT JUMPDEST PUSH1 0x80 DUP6 ADD MLOAD PUSH1 0x40 MLOAD PUSH4 0x70A08231 PUSH1 0xE0 SHL DUP2 MSTORE PUSH1 0x0 SWAP2 PUSH1 0x1 PUSH1 0x1 PUSH1 0xA0 SHL SUB AND SWAP1 PUSH4 0x70A08231 SWAP1 PUSH2 0x2C12 SWAP1 ADDRESS SWAP1 PUSH1 0x4 ADD PUSH2 0x48E7 JUMP JUMPDEST PUSH1 0x20 PUSH1 0x40 MLOAD DUP1 DUP4 SUB DUP2 DUP7 DUP1 EXTCODESIZE ISZERO DUP1 ISZERO PUSH2 0x2C2A JUMPI PUSH1 0x0 DUP1 REVERT JUMPDEST POP GAS STATICCALL ISZERO DUP1 ISZERO PUSH2 0x2C3E JUMPI RETURNDATASIZE PUSH1 0x0 DUP1 RETURNDATACOPY RETURNDATASIZE PUSH1 0x0 REVERT JUMPDEST POP POP POP POP PUSH1 0x40 MLOAD RETURNDATASIZE PUSH1 0x1F NOT PUSH1 0x1F DUP3 ADD AND DUP3 ADD DUP1 PUSH1 0x40 MSTORE POP DUP2 ADD SWAP1 PUSH2 0x2C62 SWAP2 SWAP1 PUSH2 0x4872 JUMP JUMPDEST SWAP1 POP DUP1 DUP6 GT ISZERO PUSH2 0x2C71 JUMPI PUSH1 0x0 DUP1 REVERT JUMPDEST PUSH1 0xA0 DUP7 ADD MLOAD PUSH1 0xFF AND ISZERO DUP1 ISZERO SWAP1 PUSH2 0x2C90 JUMPI POP PUSH2 0x2C8C DUP2 DUP7 PUSH2 0x257C JUMP JUMPDEST DUP3 EQ ISZERO JUMPDEST ISZERO PUSH2 0x2CAB JUMPI PUSH1 0xA0 DUP7 ADD MLOAD PUSH2 0x2CA8 SWAP1 DUP3 SWAP1 PUSH1 0xFF AND PUSH2 0x1FDB JUMP JUMPDEST SWAP1 POP JUMPDEST PUSH2 0x2CBA DUP7 PUSH1 0x80 ADD MLOAD DUP7 DUP4 PUSH2 0x3702 JUMP JUMPDEST DUP9 MLOAD PUSH2 0x2CC7 SWAP1 DUP6 DUP6 PUSH2 0x3702 JUMP JUMPDEST POP POP PUSH1 0x1 SWAP1 SWAP5 ADD SWAP4 POP PUSH2 0x2AA6 SWAP3 POP POP POP JUMP JUMPDEST DUP2 DUP2 MUL PUSH1 0x0 NOT DUP4 EQ ISZERO PUSH2 0x2D09 JUMPI DUP2 ISZERO DUP1 PUSH2 0x2CFB JUMPI POP DUP3 DUP3 DUP3 DUP2 PUSH2 0x2CF8 JUMPI INVALID JUMPDEST SDIV EQ JUMPDEST PUSH2 0x2D04 JUMPI PUSH1 0x0 DUP1 REVERT JUMPDEST PUSH2 0x15F8 JUMP JUMPDEST DUP3 ISZERO DUP1 PUSH2 0x2D1E JUMPI POP DUP2 DUP4 DUP3 DUP2 PUSH2 0x2D1B JUMPI INVALID JUMPDEST SDIV EQ JUMPDEST PUSH2 0x15F8 JUMPI PUSH1 0x0 DUP1 REVERT JUMPDEST PUSH1 0x0 DUP1 PUSH2 0x2D54 PUSH15 0xC097CE7BC90715B34B9F1000000000 PUSH2 0x21B4 DUP7 PUSH1 0x0 ADD MLOAD DUP7 PUSH2 0x2CD9 SWAP1 SWAP2 SWAP1 PUSH4 0xFFFFFFFF AND JUMP JUMPDEST SWAP1 POP PUSH1 0x0 DUP4 SLT PUSH2 0x2D64 JUMPI DUP1 PUSH2 0x15F4 JUMP JUMPDEST PUSH2 0x15F4 DUP2 PUSH1 0x0 NOT PUSH2 0x377F JUMP JUMPDEST PUSH1 0x0 PUSH2 0x2D7A PUSH2 0x1AA0 JUMP JUMPDEST DUP4 MLOAD PUSH1 0x1 PUSH1 0x1 PUSH1 0xA0 SHL SUB AND PUSH1 0x0 SWAP1 DUP2 MSTORE PUSH1 0x20 DUP3 SWAP1 MSTORE PUSH1 0x40 SWAP1 KECCAK256 SLOAD SWAP1 SWAP2 POP DUP1 DUP4 GT PUSH2 0x2DA5 JUMPI POP POP PUSH2 0x11E2 JUMP JUMPDEST PUSH1 0x0 PUSH2 0x2DB0 DUP7 PUSH2 0x11E7 JUMP JUMPDEST SWAP1 POP PUSH1 0x0 DUP2 PUSH1 0x1 PUSH1 0x1 PUSH1 0xA0 SHL SUB AND PUSH4 0xB5E4DA23 DUP5 DUP8 SUB PUSH1 0x40 MLOAD DUP3 PUSH4 0xFFFFFFFF AND PUSH1 0xE0 SHL DUP2 MSTORE PUSH1 0x4 ADD PUSH2 0x2DE2 SWAP2 SWAP1 PUSH2 0x49E9 JUMP JUMPDEST PUSH1 0x0 PUSH1 0x40 MLOAD DUP1 DUP4 SUB DUP2 DUP7 DUP1 EXTCODESIZE ISZERO DUP1 ISZERO PUSH2 0x2DFA JUMPI PUSH1 0x0 DUP1 REVERT JUMPDEST POP GAS STATICCALL ISZERO DUP1 ISZERO PUSH2 0x2E0E JUMPI RETURNDATASIZE PUSH1 0x0 DUP1 RETURNDATACOPY RETURNDATASIZE PUSH1 0x0 REVERT JUMPDEST POP POP POP POP PUSH1 0x40 MLOAD RETURNDATASIZE PUSH1 0x0 DUP3 RETURNDATACOPY PUSH1 0x1F RETURNDATASIZE SWAP1 DUP2 ADD PUSH1 0x1F NOT AND DUP3 ADD PUSH1 0x40 MSTORE PUSH2 0x2E36 SWAP2 SWAP1 DUP2 ADD SWAP1 PUSH2 0x447C JUMP JUMPDEST SWAP1 POP PUSH1 0x0 PUSH2 0x2E44 DUP8 DUP4 PUSH2 0x2860 JUMP JUMPDEST SWAP1 POP PUSH2 0x2E50 DUP5 DUP3 PUSH2 0x1FDB JUMP JUMPDEST DUP7 GT ISZERO PUSH2 0x1A89 JUMPI PUSH1 0x0 DUP1 REVERT JUMPDEST DUP1 ISZERO PUSH2 0x2EEE JUMPI PUSH20 0x82AF49447D8A07E3BD95BD0D56F35241523FBAB1 PUSH1 0x1 PUSH1 0x1 PUSH1 0xA0 SHL SUB AND PUSH4 0xD0E30DB0 DUP4 PUSH1 0x40 MLOAD DUP3 PUSH4 0xFFFFFFFF AND PUSH1 0xE0 SHL DUP2 MSTORE PUSH1 0x4 ADD PUSH1 0x0 PUSH1 0x40 MLOAD DUP1 DUP4 SUB DUP2 DUP6 DUP9 DUP1 EXTCODESIZE ISZERO DUP1 ISZERO PUSH2 0x2EB1 JUMPI PUSH1 0x0 DUP1 REVERT JUMPDEST POP GAS CALL ISZERO DUP1 ISZERO PUSH2 0x2EC5 JUMPI RETURNDATASIZE PUSH1 0x0 DUP1 RETURNDATACOPY RETURNDATASIZE PUSH1 0x0 REVERT JUMPDEST POP POP POP POP POP PUSH2 0x2EE9 PUSH20 0x82AF49447D8A07E3BD95BD0D56F35241523FBAB1 DUP5 DUP5 PUSH2 0x1AAD JUMP JUMPDEST PUSH2 0x11E2 JUMP JUMPDEST PUSH1 0x40 MLOAD PUSH1 0x1 PUSH1 0x1 PUSH1 0xA0 SHL SUB DUP5 AND SWAP1 DUP4 ISZERO PUSH2 0x8FC MUL SWAP1 DUP5 SWAP1 PUSH1 0x0 DUP2 DUP2 DUP2 DUP6 DUP9 DUP9 CALL SWAP4 POP POP POP POP ISZERO DUP1 ISZERO PUSH2 0x13C4 JUMPI RETURNDATASIZE PUSH1 0x0 DUP1 RETURNDATACOPY RETURNDATASIZE PUSH1 0x0 REVERT JUMPDEST PUSH1 0x0 DUP1 PUSH2 0x2F31 DUP5 DUP7 PUSH2 0x378E JUMP JUMPDEST SWAP1 POP PUSH2 0x2F3D DUP4 DUP3 PUSH2 0x37BE JUMP JUMPDEST SWAP2 POP PUSH2 0x2F4A DUP8 DUP8 DUP5 PUSH2 0x1A09 JUMP JUMPDEST PUSH2 0x2F55 DUP7 DUP4 DUP4 PUSH2 0x37E2 JUMP JUMPDEST DUP4 MLOAD PUSH2 0x2F61 SWAP1 DUP7 PUSH2 0x38E6 JUMP JUMPDEST POP SWAP6 SWAP5 POP POP POP POP POP JUMP JUMPDEST PUSH1 0x0 DUP1 PUSH1 0x0 DUP1 PUSH1 0x0 DUP1 PUSH2 0x2F7E DUP10 DUP9 PUSH2 0x393B JUMP JUMPDEST DUP10 MLOAD SWAP1 SWAP6 POP SWAP2 SWAP4 POP SWAP2 POP PUSH1 0x0 SWAP1 PUSH2 0x2FA5 SWAP1 PUSH2 0x2F9A SWAP1 DUP12 SWAP1 PUSH2 0x257C JUMP JUMPDEST PUSH4 0x3B9ACA00 SWAP1 PUSH2 0x211B JUMP JUMPDEST SWAP1 POP PUSH2 0x2FDF PUSH2 0x2FD4 PUSH4 0x1DA9C00 PUSH2 0x2FBC DUP6 DUP6 PUSH2 0x211B JUMP JUMPDEST DUP2 PUSH2 0x2FC3 JUMPI INVALID JUMPDEST PUSH8 0xDE0B6B3A7640000 SWAP2 SWAP1 DIV PUSH2 0x1FDB JUMP JUMPDEST PUSH1 0xE0 DUP11 ADD MLOAD SWAP1 PUSH2 0x3093 JUMP JUMPDEST SWAP7 POP PUSH2 0x3001 PUSH2 0x2FF6 PUSH4 0x1DA9C00 PUSH2 0x2FBC DUP8 DUP6 PUSH2 0x211B JUMP JUMPDEST PUSH1 0xC0 DUP11 ADD MLOAD SWAP1 PUSH2 0x3093 JUMP JUMPDEST SWAP6 POP DUP2 DUP4 EQ ISZERO PUSH2 0x3018 JUMPI POP PUSH1 0x0 SWAP4 POP PUSH2 0x306D SWAP2 POP POP JUMP JUMPDEST PUSH1 0x0 PUSH2 0x303A PUSH2 0x302F PUSH4 0x1DA9C00 PUSH2 0x2FBC DUP8 DUP7 PUSH2 0x211B JUMP JUMPDEST PUSH1 0xE0 DUP12 ADD MLOAD SWAP1 PUSH2 0x3093 JUMP JUMPDEST SWAP1 POP PUSH1 0x0 PUSH2 0x3048 DUP10 DUP4 PUSH2 0x257C JUMP JUMPDEST SWAP1 POP PUSH2 0x3065 DUP9 PUSH2 0x18C8 DUP4 DUP14 PUSH1 0x40 ADD MLOAD PUSH2 0x211B SWAP1 SWAP2 SWAP1 PUSH4 0xFFFFFFFF AND JUMP JUMPDEST SWAP7 POP POP POP POP POP POP JUMPDEST SWAP4 POP SWAP4 POP SWAP4 POP SWAP4 JUMP JUMPDEST PUSH1 0x0 PUSH2 0x1FED PUSH2 0x308D DUP5 PUSH8 0xDE0B6B3A7640000 PUSH2 0x211B JUMP JUMPDEST DUP4 PUSH2 0x2300 JUMP JUMPDEST PUSH1 0x0 PUSH2 0x1FED PUSH2 0x30A2 DUP5 DUP5 PUSH2 0x211B JUMP JUMPDEST PUSH8 0xDE0B6B3A7640000 PUSH2 0x2300 JUMP JUMPDEST PUSH2 0x30B8 PUSH2 0x4077 JUMP JUMPDEST PUSH1 0x0 PUSH2 0x30C2 PUSH2 0x39D5 JUMP JUMPDEST PUSH1 0x0 DUP6 DUP2 MSTORE PUSH1 0x20 DUP3 DUP2 MSTORE PUSH1 0x40 DUP1 DUP4 KECCAK256 DUP8 ISZERO ISZERO DUP5 MSTORE DUP3 MSTORE SWAP2 DUP3 SWAP1 KECCAK256 DUP3 MLOAD PUSH1 0xA0 DUP2 ADD DUP5 MSTORE DUP2 SLOAD PUSH1 0x1 PUSH1 0x1 PUSH1 0xA0 SHL SUB DUP2 AND DUP3 MSTORE PUSH1 0xFF PUSH1 0x1 PUSH1 0xA0 SHL DUP3 DIV DUP2 AND ISZERO ISZERO SWAP5 DUP4 ADD SWAP5 SWAP1 SWAP5 MSTORE PUSH1 0x1 PUSH1 0xB0 SHL DUP2 DIV DUP5 AND PUSH1 0xA EXP SWAP5 DUP3 ADD SWAP5 SWAP1 SWAP5 MSTORE SWAP4 SWAP5 POP SWAP3 SWAP2 PUSH1 0x60 DUP4 ADD SWAP2 PUSH1 0x1 PUSH1 0xA8 SHL SWAP1 SWAP2 DIV AND PUSH1 0x5 DUP2 GT ISZERO PUSH2 0x3137 JUMPI INVALID JUMPDEST DUP2 MSTORE PUSH1 0x0 PUSH1 0x20 SWAP1 SWAP2 ADD MSTORE SWAP6 SWAP5 POP POP POP POP POP JUMP JUMPDEST PUSH1 0x0 PUSH1 0x1 DUP3 SLT PUSH2 0x3159 JUMPI PUSH1 0x0 DUP1 REVERT JUMPDEST DUP2 PUSH2 0x3166 JUMPI POP PUSH1 0x0 PUSH2 0x15F8 JUMP JUMPDEST PUSH2 0x1FED PUSH1 0x1 PUSH2 0x1892 PUSH15 0xC097CE7BC90715B34B9F1000000000 PUSH2 0x21B4 DUP8 PUSH1 0x20 ADD MLOAD DUP8 PUSH2 0x2CD9 SWAP1 SWAP2 SWAP1 PUSH4 0xFFFFFFFF AND JUMP JUMPDEST PUSH1 0x0 DUP2 PUSH1 0x0 NOT EQ DUP1 ISZERO PUSH2 0x31AB JUMPI POP PUSH1 0x1 PUSH1 0xFF SHL DUP4 EQ JUMPDEST ISZERO PUSH2 0x31B5 JUMPI PUSH1 0x0 DUP1 REVERT JUMPDEST DUP2 DUP4 DUP2 PUSH2 0x31BE JUMPI INVALID JUMPDEST SDIV SWAP4 SWAP3 POP POP POP JUMP JUMPDEST PUSH1 0x0 DUP2 DUP4 LT PUSH2 0x31D5 JUMPI DUP2 PUSH2 0x1FED JUMP JUMPDEST POP SWAP1 SWAP2 SWAP1 POP JUMP JUMPDEST PUSH1 0x0 DUP1 PUSH1 0x0 PUSH2 0x31EA DUP6 PUSH2 0x39E2 JUMP JUMPDEST SWAP2 SWAP5 POP SWAP3 POP SWAP1 POP DUP1 DUP5 GT DUP1 ISZERO PUSH2 0x3200 JUMPI POP PUSH1 0x0 DUP2 GT JUMPDEST DUP1 ISZERO PUSH2 0x320C JUMPI POP PUSH1 0x0 DUP4 GT JUMPDEST ISZERO PUSH2 0x326B JUMPI PUSH1 0x0 PUSH2 0x321C DUP7 PUSH2 0x3A3E JUMP JUMPDEST POP POP POP SWAP2 POP POP PUSH1 0x0 PUSH2 0x3247 PUSH2 0x323E PUSH4 0x5F5E100 DUP5 PUSH2 0x211B SWAP1 SWAP2 SWAP1 PUSH4 0xFFFFFFFF AND JUMP JUMPDEST DUP5 DUP9 SUB DUP8 PUSH2 0x3AAA JUMP JUMPDEST SWAP1 POP PUSH2 0x3253 DUP5 DUP3 PUSH2 0x1FDB JUMP JUMPDEST SWAP4 POP PUSH1 0x1 PUSH1 0x1 PUSH1 0x80 SHL SUB DUP5 LT PUSH2 0x3268 JUMPI PUSH1 0x0 DUP1 REVERT JUMPDEST POP POP JUMPDEST SWAP3 POP SWAP3 POP SWAP3 JUMP JUMPDEST PUSH1 0x0 DUP1 PUSH2 0x15F8 PUSH1 0x11 PUSH2 0x1FC2 JUMP JUMPDEST DUP2 DUP2 ADD DUP3 DUP2 SLT ISZERO PUSH1 0x0 DUP4 SLT ISZERO EQ PUSH2 0x15F8 JUMPI PUSH1 0x0 DUP1 REVERT JUMPDEST PUSH1 0x0 DUP1 PUSH2 0x32A1 DUP4 PUSH2 0x11E7 JUMP JUMPDEST PUSH1 0x1 PUSH1 0x1 PUSH1 0xA0 SHL SUB AND PUSH4 0xEF81F216 PUSH1 0x40 MLOAD DUP2 PUSH4 0xFFFFFFFF AND PUSH1 0xE0 SHL DUP2 MSTORE PUSH1 0x4 ADD PUSH1 0x40 DUP1 MLOAD DUP1 DUP4 SUB DUP2 PUSH1 0x0 DUP8 DUP1 EXTCODESIZE ISZERO DUP1 ISZERO PUSH2 0x32DA JUMPI PUSH1 0x0 DUP1 REVERT JUMPDEST POP GAS CALL ISZERO DUP1 ISZERO PUSH2 0x204B JUMPI RETURNDATASIZE PUSH1 0x0 DUP1 RETURNDATACOPY RETURNDATASIZE PUSH1 0x0 REVERT JUMPDEST PUSH1 0x0 PUSH2 0x32F8 PUSH2 0x256F JUMP JUMPDEST PUSH1 0x0 DUP6 PUSH2 0xFFFF AND DUP2 MSTORE PUSH1 0x20 ADD SWAP1 DUP2 MSTORE PUSH1 0x20 ADD PUSH1 0x0 KECCAK256 SWAP1 POP PUSH2 0x331C DUP3 PUSH1 0x0 ADD MLOAD PUSH2 0x25A4 JUMP JUMPDEST DUP2 SLOAD PUSH5 0xFFFFFFFFFF NOT AND PUSH5 0xFFFFFFFFFF SWAP2 SWAP1 SWAP2 AND OR DUP2 SSTORE PUSH1 0xA0 DUP3 ADD MLOAD PUSH2 0x3341 SWAP1 PUSH2 0x3ACC JUMP JUMPDEST PUSH1 0x2 DUP3 ADD DUP1 SLOAD PUSH10 0xFFFFFFFFFFFFFFFFFFFF NOT AND PUSH1 0x1 PUSH1 0x1 PUSH1 0x50 SHL SUB SWAP3 SWAP1 SWAP3 AND SWAP2 SWAP1 SWAP2 OR SWAP1 SSTORE PUSH1 0xC0 DUP3 ADD MLOAD PUSH2 0x3374 SWAP1 PUSH2 0x3ACC JUMP JUMPDEST DUP2 PUSH1 0x2 ADD PUSH1 0xA PUSH2 0x100 EXP DUP2 SLOAD DUP2 PUSH1 0x1 PUSH1 0x1 PUSH1 0x50 SHL SUB MUL NOT AND SWAP1 DUP4 PUSH1 0x1 PUSH1 0x1 PUSH1 0x50 SHL SUB AND MUL OR SWAP1 SSTORE POP PUSH2 0x33A9 DUP3 PUSH1 0xE0 ADD MLOAD PUSH2 0x3ACC JUMP JUMPDEST DUP2 PUSH1 0x2 ADD PUSH1 0x14 PUSH2 0x100 EXP DUP2 SLOAD DUP2 PUSH1 0x1 PUSH1 0x1 PUSH1 0x50 SHL SUB MUL NOT AND SWAP1 DUP4 PUSH1 0x1 PUSH1 0x1 PUSH1 0x50 SHL SUB AND MUL OR SWAP1 SSTORE POP PUSH2 0x33DE DUP3 PUSH1 0x20 ADD MLOAD PUSH2 0x3AE2 JUMP JUMPDEST DUP2 SLOAD PUSH1 0x1 PUSH1 0x1 PUSH1 0x58 SHL SUB SWAP2 SWAP1 SWAP2 AND PUSH1 0x1 PUSH1 0x28 SHL MUL PUSH16 0xFFFFFFFFFFFFFFFFFFFFFF0000000000 NOT SWAP1 SWAP2 AND OR DUP2 SSTORE PUSH1 0x40 DUP3 ADD MLOAD PUSH2 0x3418 SWAP1 PUSH2 0x3AE2 JUMP JUMPDEST PUSH1 0x1 DUP3 ADD DUP1 SLOAD PUSH11 0xFFFFFFFFFFFFFFFFFFFFFF NOT AND PUSH1 0x1 PUSH1 0x1 PUSH1 0x58 SHL SUB SWAP3 SWAP1 SWAP3 AND SWAP2 SWAP1 SWAP2 OR SWAP1 SSTORE PUSH1 0x80 DUP3 ADD MLOAD PUSH2 0x344C SWAP1 PUSH2 0x3AE2 JUMP JUMPDEST DUP2 SLOAD PUSH1 0x1 PUSH1 0x1 PUSH1 0x58 SHL SUB SWAP2 SWAP1 SWAP2 AND PUSH1 0x1 PUSH1 0x80 SHL MUL PUSH11 0xFFFFFFFFFFFFFFFFFFFFFF PUSH1 0x80 SHL NOT SWAP1 SWAP2 AND OR DUP2 SSTORE PUSH1 0x60 DUP3 ADD MLOAD PUSH2 0x3484 SWAP1 PUSH2 0x2591 JUMP JUMPDEST DUP2 SLOAD PUSH4 0xFFFFFFFF SWAP2 SWAP1 SWAP2 AND PUSH1 0x1 PUSH1 0xD8 SHL MUL PUSH4 0xFFFFFFFF PUSH1 0xD8 SHL NOT SWAP1 SWAP2 AND OR DUP2 SSTORE DUP3 ISZERO PUSH2 0x34D0 JUMPI PUSH1 0x0 PUSH2 0x34B5 DUP5 PUSH2 0x1519 JUMP JUMPDEST SWAP1 POP PUSH2 0x34C1 DUP6 DUP3 PUSH2 0x3AF8 JUMP JUMPDEST PUSH2 0x34CE PUSH2 0xFEE DUP7 DUP4 PUSH2 0x1A09 JUMP JUMPDEST POP JUMPDEST DUP4 PUSH2 0xFFFF AND PUSH32 0xEF25641E225E493886510CA1AD6584FA7B442B9FEA820A29D1DE3CE27D270FD2 DUP4 PUSH1 0xA0 ADD MLOAD DUP5 PUSH1 0xC0 ADD MLOAD DUP6 PUSH1 0xE0 ADD MLOAD PUSH1 0x40 MLOAD PUSH2 0x4F3 SWAP4 SWAP3 SWAP2 SWAP1 PUSH2 0x4BF1 JUMP JUMPDEST PUSH1 0x0 PUSH1 0x3 DUP4 PUSH1 0x60 ADD MLOAD PUSH1 0x5 DUP2 GT ISZERO PUSH2 0x3528 JUMPI INVALID JUMPDEST EQ ISZERO PUSH2 0x353F JUMPI POP PUSH1 0x1 PUSH1 0x1 PUSH1 0xA0 SHL SUB DUP2 AND BALANCE PUSH2 0x15F8 JUMP JUMPDEST DUP3 MLOAD PUSH1 0x40 MLOAD PUSH4 0x70A08231 PUSH1 0xE0 SHL DUP2 MSTORE PUSH1 0x1 PUSH1 0x1 PUSH1 0xA0 SHL SUB SWAP1 SWAP2 AND SWAP1 PUSH4 0x70A08231 SWAP1 PUSH2 0x356E SWAP1 DUP6 SWAP1 PUSH1 0x4 ADD PUSH2 0x48E7 JUMP JUMPDEST PUSH1 0x20 PUSH1 0x40 MLOAD DUP1 DUP4 SUB DUP2 DUP7 DUP1 EXTCODESIZE ISZERO DUP1 ISZERO PUSH2 0x3586 JUMPI PUSH1 0x0 DUP1 REVERT JUMPDEST POP GAS STATICCALL ISZERO DUP1 ISZERO PUSH2 0x359A JUMPI RETURNDATASIZE PUSH1 0x0 DUP1 RETURNDATACOPY RETURNDATASIZE PUSH1 0x0 REVERT JUMPDEST POP POP POP POP PUSH1 0x40 MLOAD RETURNDATASIZE PUSH1 0x1F NOT PUSH1 0x1F DUP3 ADD AND DUP3 ADD DUP1 PUSH1 0x40 MSTORE POP DUP2 ADD SWAP1 PUSH2 0x35BE SWAP2 SWAP1 PUSH2 0x4872 JUMP JUMPDEST SWAP1 POP PUSH2 0x15F8 JUMP JUMPDEST PUSH1 0x0 DUP1 DUP5 PUSH1 0x1 PUSH1 0x1 PUSH1 0xA0 SHL SUB AND DUP5 DUP5 PUSH1 0x40 MLOAD DUP1 DUP3 DUP1 MLOAD SWAP1 PUSH1 0x20 ADD SWAP1 DUP1 DUP4 DUP4 JUMPDEST PUSH1 0x20 DUP4 LT PUSH2 0x3603 JUMPI DUP1 MLOAD DUP3 MSTORE PUSH1 0x1F NOT SWAP1 SWAP3 ADD SWAP2 PUSH1 0x20 SWAP2 DUP3 ADD SWAP2 ADD PUSH2 0x35E4 JUMP JUMPDEST PUSH1 0x1 DUP4 PUSH1 0x20 SUB PUSH2 0x100 EXP SUB DUP1 NOT DUP3 MLOAD AND DUP2 DUP5 MLOAD AND DUP1 DUP3 OR DUP6 MSTORE POP POP POP POP POP POP SWAP1 POP ADD SWAP2 POP POP PUSH1 0x0 PUSH1 0x40 MLOAD DUP1 DUP4 SUB DUP2 DUP6 DUP8 GAS CALL SWAP3 POP POP POP RETURNDATASIZE DUP1 PUSH1 0x0 DUP2 EQ PUSH2 0x3665 JUMPI PUSH1 0x40 MLOAD SWAP2 POP PUSH1 0x1F NOT PUSH1 0x3F RETURNDATASIZE ADD AND DUP3 ADD PUSH1 0x40 MSTORE RETURNDATASIZE DUP3 MSTORE RETURNDATASIZE PUSH1 0x0 PUSH1 0x20 DUP5 ADD RETURNDATACOPY PUSH2 0x366A JUMP JUMPDEST PUSH1 0x60 SWAP2 POP JUMPDEST POP SWAP2 POP SWAP2 POP DUP2 PUSH2 0x3679 DUP3 PUSH2 0x3B2F JUMP JUMPDEST SWAP1 PUSH2 0xF8D JUMPI PUSH1 0x40 MLOAD PUSH3 0x461BCD PUSH1 0xE5 SHL DUP2 MSTORE PUSH1 0x4 ADD DUP1 DUP1 PUSH1 0x20 ADD DUP3 DUP2 SUB DUP3 MSTORE DUP4 DUP2 DUP2 MLOAD DUP2 MSTORE PUSH1 0x20 ADD SWAP2 POP DUP1 MLOAD SWAP1 PUSH1 0x20 ADD SWAP1 DUP1 DUP4 DUP4 PUSH1 0x0 JUMPDEST DUP4 DUP2 LT ISZERO PUSH2 0x36C7 JUMPI DUP2 DUP2 ADD MLOAD DUP4 DUP3 ADD MSTORE PUSH1 0x20 ADD PUSH2 0x36AF JUMP JUMPDEST POP POP POP POP SWAP1 POP SWAP1 DUP2 ADD SWAP1 PUSH1 0x1F AND DUP1 ISZERO PUSH2 0x36F4 JUMPI DUP1 DUP3 SUB DUP1 MLOAD PUSH1 0x1 DUP4 PUSH1 0x20 SUB PUSH2 0x100 EXP SUB NOT AND DUP2 MSTORE PUSH1 0x20 ADD SWAP2 POP JUMPDEST POP SWAP3 POP POP POP PUSH1 0x40 MLOAD DUP1 SWAP2 SUB SWAP1 REVERT JUMPDEST PUSH1 0x0 PUSH2 0x370C PUSH2 0x1AA0 JUMP JUMPDEST PUSH1 0x1 PUSH1 0x1 PUSH1 0xA0 SHL SUB DUP6 AND PUSH1 0x0 SWAP1 DUP2 MSTORE PUSH1 0x20 DUP3 SWAP1 MSTORE PUSH1 0x40 SWAP1 KECCAK256 SLOAD SWAP1 SWAP2 POP DUP4 DUP2 GT ISZERO PUSH2 0x3735 JUMPI PUSH1 0x0 DUP1 REVERT JUMPDEST PUSH1 0x0 PUSH2 0x374C PUSH2 0x3743 DUP7 PUSH2 0x1519 JUMP JUMPDEST PUSH2 0x1892 DUP7 PUSH2 0x1519 JUMP JUMPDEST SWAP1 POP PUSH2 0x375B PUSH2 0x189D DUP4 DUP4 PUSH2 0x327F JUMP JUMPDEST PUSH1 0x1 PUSH1 0x1 PUSH1 0xA0 SHL SUB SWAP1 SWAP7 AND PUSH1 0x0 SWAP1 DUP2 MSTORE PUSH1 0x20 SWAP4 SWAP1 SWAP4 MSTORE POP POP PUSH1 0x40 SWAP1 KECCAK256 SWAP3 SWAP1 SWAP3 SSTORE POP POP JUMP JUMPDEST PUSH1 0x0 DUP2 DUP4 SLT PUSH2 0x31D5 JUMPI DUP2 PUSH2 0x1FED JUMP JUMPDEST PUSH1 0x0 PUSH4 0x5F5E100 DUP4 PUSH1 0x40 ADD MLOAD EQ ISZERO PUSH2 0x37A7 JUMPI POP DUP1 PUSH2 0x15F8 JUMP JUMPDEST PUSH1 0x40 DUP4 ADD MLOAD PUSH2 0x1FED SWAP1 PUSH2 0x21B4 DUP5 PUSH4 0x5F5E100 PUSH2 0x2CD9 JUMP JUMPDEST DUP2 MLOAD PUSH1 0x0 SWAP1 DUP2 SWAP1 PUSH2 0x2D54 SWAP1 PUSH2 0x21B4 DUP6 PUSH15 0xC097CE7BC90715B34B9F1000000000 PUSH2 0x2CD9 JUMP JUMPDEST PUSH1 0x0 PUSH2 0x37EC PUSH2 0x256F JUMP JUMPDEST PUSH2 0xFFFF DUP6 AND PUSH1 0x0 SWAP1 DUP2 MSTORE PUSH1 0x20 SWAP2 SWAP1 SWAP2 MSTORE PUSH1 0x40 SWAP1 KECCAK256 DUP1 SLOAD SWAP1 SWAP2 POP PUSH5 0xFFFFFFFFFF AND TIMESTAMP EQ PUSH2 0x3817 JUMPI PUSH1 0x0 DUP1 REVERT JUMPDEST DUP1 SLOAD PUSH1 0x0 SWAP1 PUSH2 0x3836 SWAP1 PUSH1 0x1 PUSH1 0x28 SHL SWAP1 DIV PUSH1 0x1 PUSH1 0x1 PUSH1 0x58 SHL SUB AND DUP6 PUSH2 0x327F JUMP JUMPDEST DUP3 SLOAD SWAP1 SWAP2 POP PUSH1 0x0 SWAP1 PUSH2 0x3858 SWAP1 PUSH1 0x1 PUSH1 0x80 SHL SWAP1 DIV PUSH1 0x1 PUSH1 0x1 PUSH1 0x58 SHL SUB AND DUP6 PUSH2 0x327F JUMP JUMPDEST SWAP1 POP DUP1 PUSH3 0x4C4B40 SGT ISZERO PUSH2 0x386A JUMPI PUSH1 0x0 DUP1 REVERT JUMPDEST PUSH2 0x387B PUSH2 0x3876 DUP3 PUSH2 0x1E37 JUMP JUMPDEST PUSH2 0x3AE2 JUMP JUMPDEST DUP4 SLOAD PUSH1 0x1 PUSH1 0x1 PUSH1 0x58 SHL SUB SWAP2 SWAP1 SWAP2 AND PUSH1 0x1 PUSH1 0x80 SHL MUL PUSH11 0xFFFFFFFFFFFFFFFFFFFFFF PUSH1 0x80 SHL NOT SWAP1 SWAP2 AND OR DUP4 SSTORE PUSH2 0x38B1 PUSH2 0x3876 DUP4 PUSH2 0x1E37 JUMP JUMPDEST DUP4 SLOAD PUSH1 0x1 PUSH1 0x1 PUSH1 0x58 SHL SUB SWAP2 SWAP1 SWAP2 AND PUSH1 0x1 PUSH1 0x28 SHL MUL PUSH16 0xFFFFFFFFFFFFFFFFFFFFFF0000000000 NOT SWAP1 SWAP2 AND OR DUP4 SSTORE PUSH2 0xF8D DUP4 PUSH2 0x3C34 JUMP JUMPDEST PUSH1 0x0 PUSH2 0x38F0 PUSH2 0x1AA0 JUMP JUMPDEST PUSH1 0x1 PUSH1 0x1 PUSH1 0xA0 SHL SUB DUP5 AND PUSH1 0x0 SWAP1 DUP2 MSTORE PUSH1 0x20 DUP3 SWAP1 MSTORE PUSH1 0x40 SWAP1 KECCAK256 SLOAD SWAP1 SWAP2 POP PUSH2 0x3919 PUSH2 0x189D DUP3 DUP6 PUSH2 0x327F JUMP JUMPDEST PUSH1 0x1 PUSH1 0x1 PUSH1 0xA0 SHL SUB SWAP1 SWAP5 AND PUSH1 0x0 SWAP1 DUP2 MSTORE PUSH1 0x20 SWAP3 SWAP1 SWAP3 MSTORE POP PUSH1 0x40 SWAP1 KECCAK256 SWAP2 SWAP1 SWAP2 SSTORE POP JUMP JUMPDEST PUSH1 0x0 DUP1 PUSH1 0x0 DUP1 PUSH1 0x0 DUP6 PUSH1 0x20 ADD MLOAD GT ISZERO PUSH2 0x3988 JUMPI PUSH2 0x3985 PUSH2 0x396C DUP7 PUSH1 0xC0 ADD MLOAD DUP8 PUSH1 0x20 ADD MLOAD PUSH2 0x211B SWAP1 SWAP2 SWAP1 PUSH4 0xFFFFFFFF AND JUMP JUMPDEST PUSH1 0xE0 DUP8 ADD MLOAD PUSH1 0x40 DUP9 ADD MLOAD PUSH2 0x397F SWAP2 PUSH2 0x211B JUMP JUMPDEST SWAP1 PUSH2 0x3CFF JUMP JUMPDEST SWAP1 POP JUMPDEST PUSH1 0x0 PUSH2 0x3993 DUP8 PUSH2 0x3D12 JUMP JUMPDEST SWAP1 POP PUSH2 0x399F DUP2 DUP4 PUSH2 0x3D45 JUMP JUMPDEST SWAP5 POP DUP2 ISZERO PUSH2 0x39B6 JUMPI PUSH2 0x39B3 DUP2 DUP7 PUSH1 0x1 PUSH2 0x3DFE JUMP JUMPDEST SWAP4 POP JUMPDEST PUSH1 0x20 DUP7 ADD MLOAD ISZERO PUSH2 0x3268 JUMPI PUSH2 0x39CA DUP6 DUP4 PUSH2 0x22C6 JUMP JUMPDEST SWAP3 POP POP POP SWAP3 POP SWAP3 POP SWAP3 JUMP JUMPDEST PUSH1 0x0 DUP1 PUSH2 0x15F8 PUSH1 0x7 PUSH2 0x1FC2 JUMP JUMPDEST PUSH1 0x0 DUP1 PUSH1 0x0 DUP1 PUSH2 0x39F0 PUSH2 0x3272 JUMP JUMPDEST PUSH1 0x1 PUSH1 0x1 PUSH1 0xA0 SHL SUB SWAP6 SWAP1 SWAP6 AND PUSH1 0x0 SWAP1 DUP2 MSTORE PUSH1 0x20 SWAP6 SWAP1 SWAP6 MSTORE POP POP PUSH1 0x40 SWAP1 SWAP3 KECCAK256 SLOAD PUSH1 0x1 PUSH1 0x1 PUSH1 0x60 SHL SUB DUP2 AND SWAP4 PUSH1 0x1 PUSH1 0x60 SHL DUP3 DIV PUSH1 0x1 PUSH1 0x1 PUSH1 0x80 SHL SUB AND SWAP4 POP PUSH1 0x1 PUSH1 0xE0 SHL SWAP1 SWAP2 DIV PUSH4 0xFFFFFFFF AND SWAP2 POP JUMP JUMPDEST PUSH1 0x0 DUP1 PUSH1 0x0 DUP1 PUSH1 0x0 DUP1 PUSH2 0x3A4F PUSH2 0x1965 JUMP JUMPDEST PUSH1 0x1 PUSH1 0x1 PUSH1 0xA0 SHL SUB SWAP1 SWAP8 AND PUSH1 0x0 SWAP1 DUP2 MSTORE PUSH1 0x20 SWAP8 SWAP1 SWAP8 MSTORE POP POP PUSH1 0x40 SWAP1 SWAP5 KECCAK256 SLOAD PUSH2 0xFFFF DUP2 AND SWAP6 PUSH4 0xFFFFFFFF PUSH3 0x10000 DUP4 DIV DUP2 AND SWAP7 POP PUSH7 0x1000000000000 DUP4 DIV AND SWAP5 POP PUSH1 0xFF PUSH1 0x1 PUSH1 0x50 SHL DUP4 DIV AND SWAP4 POP PUSH1 0x1 PUSH1 0x58 SHL SWAP1 SWAP2 DIV PUSH1 0xD0 SHL SWAP2 POP JUMP JUMPDEST PUSH1 0x0 PUSH2 0x206F DUP3 PUSH2 0x18C8 PUSH4 0x1DA9C00 DUP2 DUP9 PUSH2 0x18C2 DUP10 PUSH8 0xDE0B6B3A7640000 PUSH2 0x211B JUMP JUMPDEST PUSH1 0x0 PUSH1 0x1 PUSH1 0x1 PUSH1 0x50 SHL SUB DUP3 GT ISZERO PUSH2 0x152F JUMPI PUSH1 0x0 DUP1 REVERT JUMPDEST PUSH1 0x0 PUSH1 0x1 PUSH1 0x1 PUSH1 0x58 SHL SUB DUP3 GT ISZERO PUSH2 0x152F JUMPI PUSH1 0x0 DUP1 REVERT JUMPDEST PUSH1 0x0 DUP2 SLT ISZERO PUSH2 0x3B06 JUMPI PUSH1 0x0 DUP1 REVERT JUMPDEST PUSH1 0x0 PUSH2 0x3B14 PUSH2 0xFEE DUP5 PUSH2 0x1533 JUMP JUMPDEST SWAP1 POP PUSH2 0x3B20 DUP2 DUP4 PUSH2 0x327F JUMP JUMPDEST SWAP1 POP PUSH2 0x11E2 PUSH2 0xFEE DUP5 DUP4 PUSH2 0x197F JUMP JUMPDEST PUSH1 0x60 PUSH1 0x44 DUP3 MLOAD LT ISZERO PUSH2 0x3B65 JUMPI POP PUSH1 0x40 DUP1 MLOAD DUP1 DUP3 ADD SWAP1 SWAP2 MSTORE PUSH1 0xD DUP2 MSTORE PUSH13 0x14DA5B195B9D0814995D995C9D PUSH1 0x9A SHL PUSH1 0x20 DUP3 ADD MSTORE PUSH2 0x1087 JUMP JUMPDEST PUSH1 0x4 DUP3 ADD DUP1 MLOAD SWAP1 SWAP3 PUSH1 0x24 ADD SWAP1 PUSH1 0x20 DUP2 LT ISZERO PUSH2 0x3B7F JUMPI PUSH1 0x0 DUP1 REVERT JUMPDEST DUP2 ADD SWAP1 DUP1 DUP1 MLOAD PUSH1 0x40 MLOAD SWAP4 SWAP3 SWAP2 SWAP1 DUP5 PUSH1 0x1 PUSH1 0x20 SHL DUP3 GT ISZERO PUSH2 0x3B9E JUMPI PUSH1 0x0 DUP1 REVERT JUMPDEST SWAP1 DUP4 ADD SWAP1 PUSH1 0x20 DUP3 ADD DUP6 DUP2 GT ISZERO PUSH2 0x3BB3 JUMPI PUSH1 0x0 DUP1 REVERT JUMPDEST DUP3 MLOAD PUSH1 0x1 PUSH1 0x20 SHL DUP2 GT DUP3 DUP3 ADD DUP9 LT OR ISZERO PUSH2 0x3BCC JUMPI PUSH1 0x0 DUP1 REVERT JUMPDEST DUP3 MSTORE POP DUP2 MLOAD PUSH1 0x20 SWAP2 DUP3 ADD SWAP3 SWAP1 SWAP2 ADD SWAP1 DUP1 DUP4 DUP4 PUSH1 0x0 JUMPDEST DUP4 DUP2 LT ISZERO PUSH2 0x3BF9 JUMPI DUP2 DUP2 ADD MLOAD DUP4 DUP3 ADD MSTORE PUSH1 0x20 ADD PUSH2 0x3BE1 JUMP JUMPDEST POP POP POP POP SWAP1 POP SWAP1 DUP2 ADD SWAP1 PUSH1 0x1F AND DUP1 ISZERO PUSH2 0x3C26 JUMPI DUP1 DUP3 SUB DUP1 MLOAD PUSH1 0x1 DUP4 PUSH1 0x20 SUB PUSH2 0x100 EXP SUB NOT AND DUP2 MSTORE PUSH1 0x20 ADD SWAP2 POP JUMPDEST POP PUSH1 0x40 MSTORE POP POP POP SWAP1 POP SWAP2 SWAP1 POP JUMP JUMPDEST DUP1 SLOAD PUSH1 0x2 DUP3 ADD SLOAD PUSH1 0x0 SWAP2 PUSH2 0x3C76 SWAP2 PUSH1 0x1 PUSH1 0x28 SHL SWAP1 SWAP2 DIV PUSH1 0x1 PUSH1 0x1 PUSH1 0x58 SHL SUB AND SWAP1 PUSH2 0x3C70 SWAP1 PUSH1 0x1 PUSH1 0x1 PUSH1 0x50 SHL SUB PUSH1 0x1 PUSH1 0x50 SHL DUP3 DIV DUP2 AND SWAP2 AND PUSH2 0x2CD9 JUMP JUMPDEST SWAP1 PUSH2 0x2CD9 JUMP JUMPDEST PUSH1 0x1 DUP4 ADD SLOAD PUSH1 0x2 DUP5 ADD SLOAD SWAP2 SWAP3 POP PUSH1 0x0 SWAP2 PUSH2 0x3CB0 SWAP2 PUSH1 0x1 PUSH1 0x1 PUSH1 0x58 SHL SUB AND SWAP1 PUSH2 0x3C70 SWAP1 PUSH1 0x1 PUSH1 0x1 PUSH1 0x50 SHL SUB PUSH1 0x1 PUSH1 0xA0 SHL DUP3 DIV DUP2 AND SWAP2 AND PUSH2 0x2CD9 JUMP JUMPDEST DUP4 SLOAD SWAP1 SWAP2 POP PUSH1 0x0 SWAP1 PUSH2 0x3CE7 SWAP1 PUSH1 0x1 PUSH1 0x1 PUSH1 0x1 PUSH1 0x58 SHL SUB PUSH1 0x1 PUSH1 0x80 SHL SWAP1 SWAP3 DIV DUP3 AND ADD AND PUSH15 0xC097CE7BC90715B34B9F1000000000 PUSH2 0x2CD9 JUMP JUMPDEST SWAP1 POP DUP1 PUSH2 0x3CF4 DUP5 DUP5 PUSH2 0x19F3 JUMP JUMPDEST SGT ISZERO PUSH2 0x13C4 JUMPI PUSH1 0x0 DUP1 REVERT JUMPDEST PUSH1 0x0 PUSH2 0x1FED PUSH2 0x308D DUP5 PUSH4 0x3B9ACA00 PUSH2 0x211B JUMP JUMPDEST PUSH2 0x3D1A PUSH2 0x40DE JUMP JUMPDEST PUSH1 0x0 PUSH2 0x3D24 PUSH2 0x3E79 JUMP JUMPDEST PUSH2 0xFFFF DUP5 AND PUSH1 0x0 SWAP1 DUP2 MSTORE PUSH1 0x20 SWAP2 SWAP1 SWAP2 MSTORE PUSH1 0x40 DUP2 KECCAK256 SLOAD SWAP2 POP PUSH2 0x1FED SWAP1 DUP3 PUSH2 0x3E86 JUMP JUMPDEST PUSH1 0x0 DUP1 DUP4 PUSH1 0x80 ADD MLOAD GT PUSH2 0x3D57 JUMPI PUSH1 0x0 DUP1 REVERT JUMPDEST PUSH4 0x3B9ACA00 DUP3 GT ISZERO PUSH2 0x3D68 JUMPI PUSH1 0x0 DUP1 REVERT JUMPDEST DUP3 MLOAD DUP3 GT PUSH2 0x3D87 JUMPI DUP3 MLOAD PUSH1 0x40 DUP5 ADD MLOAD PUSH2 0x35BE SWAP2 SWAP1 PUSH2 0x18C8 SWAP1 DUP6 SWAP1 PUSH2 0x211B JUMP JUMPDEST DUP3 PUSH1 0x20 ADD MLOAD DUP3 GT PUSH2 0x3DC5 JUMPI PUSH1 0x40 DUP4 ADD MLOAD DUP4 MLOAD PUSH1 0x20 DUP6 ADD MLOAD PUSH1 0x60 DUP7 ADD MLOAD PUSH2 0x35BE SWAP4 SWAP3 PUSH2 0x3DBF SWAP3 DUP2 SWAP1 SUB SWAP2 PUSH2 0x18C8 SWAP2 DUP9 SUB SWAP1 DUP6 SWAP1 SUB PUSH2 0x211B JUMP JUMPDEST SWAP1 PUSH2 0x1FDB JUMP JUMPDEST PUSH2 0x1FED DUP4 PUSH1 0x60 ADD MLOAD PUSH2 0x3DBF DUP6 PUSH1 0x20 ADD MLOAD PUSH4 0x3B9ACA00 SUB PUSH2 0x18C8 DUP8 PUSH1 0x60 ADD MLOAD DUP9 PUSH1 0x80 ADD MLOAD SUB DUP9 PUSH1 0x20 ADD MLOAD DUP9 SUB PUSH2 0x211B SWAP1 SWAP2 SWAP1 PUSH4 0xFFFFFFFF AND JUMP JUMPDEST PUSH1 0x0 DUP1 PUSH2 0x3E1D PUSH1 0x64 PUSH2 0x18C8 DUP8 PUSH1 0xE0 ADD MLOAD DUP8 PUSH2 0x211B SWAP1 SWAP2 SWAP1 PUSH4 0xFFFFFFFF AND JUMP JUMPDEST SWAP1 POP DUP5 PUSH1 0xA0 ADD MLOAD DUP2 LT ISZERO PUSH2 0x3E32 JUMPI POP PUSH1 0xA0 DUP5 ADD MLOAD JUMPDEST DUP5 PUSH1 0xC0 ADD MLOAD DUP2 GT ISZERO PUSH2 0x3E45 JUMPI POP PUSH1 0xC0 DUP5 ADD MLOAD JUMPDEST DUP3 ISZERO PUSH2 0x3E5C JUMPI PUSH2 0x3E55 DUP5 DUP3 PUSH2 0x1FDB JUMP JUMPDEST SWAP2 POP PUSH2 0x3E71 JUMP JUMPDEST DUP4 DUP2 GT PUSH2 0x3E6B JUMPI DUP1 DUP5 SUB PUSH2 0x3E6E JUMP JUMPDEST PUSH1 0x0 JUMPDEST SWAP2 POP JUMPDEST POP SWAP4 SWAP3 POP POP POP JUMP JUMPDEST PUSH1 0x0 DUP1 PUSH2 0x15F8 PUSH1 0x1B PUSH2 0x1FC2 JUMP JUMPDEST PUSH2 0x3E8E PUSH2 0x40DE JUMP JUMPDEST PUSH1 0x64 PUSH4 0x3B9ACA00 DUP4 PUSH1 0xFF DUP7 AND PUSH1 0x20 DUP2 LT PUSH2 0x3EA4 JUMPI INVALID JUMPDEST BYTE MUL DUP2 PUSH2 0x3EAD JUMPI INVALID JUMPDEST DIV DUP2 MSTORE PUSH1 0x64 PUSH4 0x3B9ACA00 DUP4 PUSH1 0xFF DUP7 AND PUSH1 0x1 ADD PUSH1 0x20 DUP2 LT PUSH2 0x3EC9 JUMPI INVALID JUMPDEST BYTE MUL DUP2 PUSH2 0x3ED2 JUMPI INVALID JUMPDEST DIV DUP2 PUSH1 0x20 ADD DUP2 DUP2 MSTORE POP POP PUSH2 0x3EF7 DUP3 PUSH1 0x2 DUP6 PUSH1 0xFF AND ADD PUSH1 0x20 DUP2 LT PUSH2 0x3EF1 JUMPI INVALID JUMPDEST BYTE PUSH2 0x3FA5 JUMP JUMPDEST PUSH1 0x80 DUP3 ADD DUP2 SWAP1 MSTORE PUSH2 0x100 SWAP1 DUP4 PUSH1 0xFF DUP7 AND PUSH1 0x3 ADD PUSH1 0x20 DUP2 LT PUSH2 0x3F14 JUMPI INVALID JUMPDEST BYTE MUL DUP2 PUSH2 0x3F1D JUMPI INVALID JUMPDEST DIV PUSH1 0x40 DUP3 ADD MSTORE PUSH1 0x80 DUP2 ADD MLOAD PUSH2 0x100 SWAP1 DUP4 PUSH1 0xFF DUP7 AND PUSH1 0x4 ADD PUSH1 0x20 DUP2 LT PUSH2 0x3F3E JUMPI INVALID JUMPDEST BYTE MUL DUP2 PUSH2 0x3F47 JUMPI INVALID JUMPDEST DIV PUSH1 0x60 DUP3 ADD MSTORE PUSH3 0x7A120 DUP3 PUSH1 0xFF DUP6 AND PUSH1 0x5 ADD PUSH1 0x20 DUP2 LT PUSH2 0x3F63 JUMPI INVALID JUMPDEST BYTE MUL PUSH1 0xA0 DUP3 ADD MSTORE PUSH3 0x2625A0 DUP3 PUSH1 0xFF DUP6 AND PUSH1 0x6 ADD PUSH1 0x20 DUP2 LT PUSH2 0x3F80 JUMPI INVALID JUMPDEST BYTE MUL PUSH1 0xC0 DUP3 ADD MSTORE DUP2 PUSH1 0xFF DUP5 AND PUSH1 0x7 ADD PUSH1 0x20 DUP2 LT PUSH2 0x3F99 JUMPI INVALID JUMPDEST BYTE PUSH1 0xE0 DUP3 ADD MSTORE SWAP3 SWAP2 POP POP JUMP JUMPDEST PUSH1 0x0 DUP2 PUSH1 0xFF AND PUSH1 0x96 LT PUSH2 0x3FC0 JUMPI PUSH1 0xFF DUP3 AND PUSH3 0x2625A0 MUL PUSH2 0x15F8 JUMP JUMPDEST POP PUSH1 0x95 NOT PUSH1 0xFF SWAP2 SWAP1 SWAP2 AND ADD PUSH3 0xE4E1C0 MUL PUSH4 0x165A0BC0 ADD SWAP1 JUMP JUMPDEST PUSH1 0x40 MLOAD DUP1 PUSH1 0x60 ADD PUSH1 0x40 MSTORE DUP1 PUSH1 0x0 DUP2 MSTORE PUSH1 0x20 ADD PUSH1 0x0 DUP2 MSTORE PUSH1 0x20 ADD PUSH1 0x0 DUP2 MSTORE POP SWAP1 JUMP JUMPDEST PUSH1 0x40 MLOAD DUP1 PUSH2 0x120 ADD PUSH1 0x40 MSTORE DUP1 PUSH1 0x0 DUP2 MSTORE PUSH1 0x20 ADD PUSH1 0x0 DUP2 MSTORE PUSH1 0x20 ADD PUSH1 0x0 DUP2 MSTORE PUSH1 0x20 ADD PUSH1 0x0 DUP2 MSTORE PUSH1 0x20 ADD PUSH1 0x0 DUP2 MSTORE PUSH1 0x20 ADD PUSH1 0x0 DUP2 MSTORE PUSH1 0x20 ADD PUSH1 0x0 DUP2 MSTORE PUSH1 0x20 ADD PUSH1 0x0 DUP2 MSTORE PUSH1 0x20 ADD PUSH1 0x0 DUP2 MSTORE POP SWAP1 JUMP JUMPDEST PUSH1 0x40 MLOAD DUP1 PUSH1 0x80 ADD PUSH1 0x40 MSTORE DUP1 PUSH1 0x0 PUSH1 0x1 PUSH1 0x1 PUSH1 0xA0 SHL SUB AND DUP2 MSTORE PUSH1 0x20 ADD PUSH1 0x0 DUP2 MSTORE PUSH1 0x20 ADD PUSH1 0x0 DUP2 MSTORE PUSH1 0x20 ADD PUSH1 0x0 DUP2 MSTORE POP SWAP1 JUMP JUMPDEST PUSH1 0x40 DUP1 MLOAD PUSH1 0xA0 DUP2 ADD DUP3 MSTORE PUSH1 0x0 DUP1 DUP3 MSTORE PUSH1 0x20 DUP3 ADD DUP2 SWAP1 MSTORE SWAP2 DUP2 ADD DUP3 SWAP1 MSTORE SWAP1 PUSH1 0x60 DUP3 ADD SWAP1 DUP2 MSTORE PUSH1 0x20 ADD PUSH1 0x0 DUP2 MSTORE POP SWAP1 JUMP JUMPDEST PUSH1 0x40 MLOAD DUP1 PUSH1 0x20 ADD PUSH1 0x40 MSTORE DUP1 PUSH1 0x1 SWAP1 PUSH1 0x20 DUP3 MUL DUP1 CALLDATASIZE DUP4 CALLDATACOPY POP SWAP2 SWAP3 SWAP2 POP POP JUMP JUMPDEST PUSH1 0x40 MLOAD DUP1 PUSH1 0x40 ADD PUSH1 0x40 MSTORE DUP1 PUSH1 0x60 DUP2 MSTORE PUSH1 0x20 ADD PUSH1 0x60 DUP2 MSTORE POP SWAP1 JUMP JUMPDEST PUSH1 0x40 MLOAD DUP1 PUSH2 0x100 ADD PUSH1 0x40 MSTORE DUP1 PUSH1 0x0 DUP2 MSTORE PUSH1 0x20 ADD PUSH1 0x0 DUP2 MSTORE PUSH1 0x20 ADD PUSH1 0x0 DUP2 MSTORE PUSH1 0x20 ADD PUSH1 0x0 DUP2 MSTORE PUSH1 0x20 ADD PUSH1 0x0 DUP2 MSTORE PUSH1 0x20 ADD PUSH1 0x0 DUP2 MSTORE PUSH1 0x20 ADD PUSH1 0x0 DUP2 MSTORE PUSH1 0x20 ADD PUSH1 0x0 DUP2 MSTORE POP SWAP1 JUMP JUMPDEST DUP1 MLOAD PUSH2 0x1087 DUP2 PUSH2 0x4C47 JUMP JUMPDEST PUSH1 0x0 DUP3 PUSH1 0x1F DUP4 ADD SLT PUSH2 0x413E JUMPI DUP1 DUP2 REVERT JUMPDEST DUP2 MLOAD PUSH1 0x20 PUSH2 0x4153 PUSH2 0x414E DUP4 PUSH2 0x4C2A JUMP JUMPDEST PUSH2 0x4C07 JUMP JUMPDEST DUP3 DUP2 MSTORE DUP2 DUP2 ADD SWAP1 DUP6 DUP4 ADD DUP4 DUP6 MUL DUP8 ADD DUP5 ADD DUP9 LT ISZERO PUSH2 0x416F JUMPI DUP6 DUP7 REVERT JUMPDEST DUP6 JUMPDEST DUP6 DUP2 LT ISZERO PUSH2 0x4196 JUMPI DUP2 MLOAD PUSH2 0x4184 DUP2 PUSH2 0x4C47 JUMP JUMPDEST DUP5 MSTORE SWAP3 DUP5 ADD SWAP3 SWAP1 DUP5 ADD SWAP1 PUSH1 0x1 ADD PUSH2 0x4171 JUMP JUMPDEST POP SWAP1 SWAP8 SWAP7 POP POP POP POP POP POP POP JUMP JUMPDEST PUSH1 0x0 PUSH1 0x1F DUP4 DUP2 DUP5 ADD SLT PUSH2 0x41B4 JUMPI DUP2 DUP3 REVERT JUMPDEST DUP3 MLOAD PUSH1 0x20 PUSH2 0x41C4 PUSH2 0x414E DUP4 PUSH2 0x4C2A JUMP JUMPDEST DUP3 DUP2 MSTORE DUP2 DUP2 ADD SWAP1 DUP7 DUP4 ADD DUP7 JUMPDEST DUP6 DUP2 LT ISZERO PUSH2 0x4268 JUMPI DUP2 MLOAD DUP10 ADD DUP11 PUSH1 0x3F DUP3 ADD SLT PUSH2 0x41EA JUMPI DUP9 DUP10 REVERT JUMPDEST DUP6 DUP2 ADD MLOAD PUSH1 0x1 PUSH1 0x1 PUSH1 0x40 SHL SUB DUP2 GT ISZERO PUSH2 0x41FF JUMPI INVALID JUMPDEST PUSH2 0x4210 DUP2 DUP11 ADD PUSH1 0x1F NOT AND DUP9 ADD PUSH2 0x4C07 JUMP JUMPDEST DUP2 DUP2 MSTORE PUSH1 0x40 DUP14 DUP2 DUP5 DUP7 ADD ADD GT ISZERO PUSH2 0x4225 JUMPI DUP12 DUP13 REVERT JUMPDEST DUP12 JUMPDEST DUP4 DUP2 LT ISZERO PUSH2 0x4242 JUMPI DUP5 DUP2 ADD DUP3 ADD MLOAD DUP4 DUP3 ADD DUP12 ADD MSTORE DUP10 ADD PUSH2 0x4227 JUMP JUMPDEST DUP4 DUP2 GT ISZERO PUSH2 0x4252 JUMPI DUP13 DUP11 DUP6 DUP6 ADD ADD MSTORE JUMPDEST POP POP DUP7 MSTORE POP POP SWAP3 DUP5 ADD SWAP3 SWAP1 DUP5 ADD SWAP1 PUSH1 0x1 ADD PUSH2 0x41D0 JUMP JUMPDEST POP SWAP1 SWAP9 SWAP8 POP POP POP POP POP POP POP POP JUMP JUMPDEST PUSH1 0x0 DUP3 PUSH1 0x1F DUP4 ADD SLT PUSH2 0x4286 JUMPI DUP1 DUP2 REVERT JUMPDEST DUP2 MLOAD PUSH1 0x20 PUSH2 0x4296 PUSH2 0x414E DUP4 PUSH2 0x4C2A JUMP JUMPDEST DUP3 DUP2 MSTORE DUP2 DUP2 ADD SWAP1 DUP6 DUP4 ADD DUP4 DUP6 MUL DUP8 ADD DUP5 ADD DUP9 LT ISZERO PUSH2 0x42B2 JUMPI DUP6 DUP7 REVERT JUMPDEST DUP6 JUMPDEST DUP6 DUP2 LT ISZERO PUSH2 0x4196 JUMPI DUP2 MLOAD DUP5 MSTORE SWAP3 DUP5 ADD SWAP3 SWAP1 DUP5 ADD SWAP1 PUSH1 0x1 ADD PUSH2 0x42B4 JUMP JUMPDEST DUP1 MLOAD PUSH2 0x1087 DUP2 PUSH2 0x4C6C JUMP JUMPDEST PUSH1 0x0 PUSH1 0x20 DUP3 DUP5 SUB SLT ISZERO PUSH2 0x42EC JUMPI DUP1 DUP2 REVERT JUMPDEST DUP2 CALLDATALOAD PUSH2 0x1FED DUP2 PUSH2 0x4C47 JUMP JUMPDEST PUSH1 0x0 PUSH1 0x20 DUP3 DUP5 SUB SLT ISZERO PUSH2 0x4308 JUMPI DUP1 DUP2 REVERT JUMPDEST DUP2 MLOAD PUSH2 0x1FED DUP2 PUSH2 0x4C47 JUMP JUMPDEST PUSH1 0x0 PUSH1 0x20 DUP3 DUP5 SUB SLT ISZERO PUSH2 0x4324 JUMPI DUP1 DUP2 REVERT JUMPDEST DUP2 MLOAD PUSH1 0x1 PUSH1 0x1 PUSH1 0x40 SHL SUB DUP2 GT ISZERO PUSH2 0x4339 JUMPI DUP2 DUP3 REVERT JUMPDEST PUSH2 0x15F4 DUP5 DUP3 DUP6 ADD PUSH2 0x412E JUMP JUMPDEST PUSH1 0x0 PUSH1 0x20 DUP1 DUP4 DUP6 SUB SLT ISZERO PUSH2 0x4357 JUMPI DUP2 DUP3 REVERT JUMPDEST DUP3 MLOAD PUSH1 0x1 PUSH1 0x1 PUSH1 0x40 SHL SUB DUP1 DUP3 GT ISZERO PUSH2 0x436D JUMPI DUP4 DUP5 REVERT JUMPDEST DUP2 DUP6 ADD SWAP2 POP DUP6 PUSH1 0x1F DUP4 ADD SLT PUSH2 0x4380 JUMPI DUP4 DUP5 REVERT JUMPDEST DUP2 MLOAD PUSH2 0x438E PUSH2 0x414E DUP3 PUSH2 0x4C2A JUMP JUMPDEST DUP2 DUP2 MSTORE DUP5 DUP2 ADD SWAP1 DUP5 DUP7 ADD DUP8 JUMPDEST DUP5 DUP2 LT ISZERO PUSH2 0x446D JUMPI DUP2 MLOAD DUP8 ADD PUSH1 0xC0 DUP1 PUSH1 0x1F NOT DUP4 DUP16 SUB ADD SLT ISZERO PUSH2 0x43BA JUMPI DUP11 DUP12 REVERT JUMPDEST PUSH2 0x43C3 DUP2 PUSH2 0x4C07 JUMP JUMPDEST DUP11 DUP4 ADD MLOAD DUP10 DUP2 GT ISZERO PUSH2 0x43D3 JUMPI DUP13 DUP14 REVERT JUMPDEST PUSH2 0x43E1 DUP16 DUP14 DUP4 DUP8 ADD ADD PUSH2 0x412E JUMP JUMPDEST DUP3 MSTORE POP PUSH1 0x40 DUP4 ADD MLOAD DUP10 DUP2 GT ISZERO PUSH2 0x43F5 JUMPI DUP13 DUP14 REVERT JUMPDEST PUSH2 0x4403 DUP16 DUP14 DUP4 DUP8 ADD ADD PUSH2 0x41A3 JUMP JUMPDEST DUP13 DUP4 ADD MSTORE POP PUSH1 0x60 DUP4 ADD MLOAD DUP10 DUP2 GT ISZERO PUSH2 0x4419 JUMPI DUP13 DUP14 REVERT JUMPDEST PUSH2 0x4427 DUP16 DUP14 DUP4 DUP8 ADD ADD PUSH2 0x4276 JUMP JUMPDEST PUSH1 0x40 DUP4 ADD MSTORE POP PUSH1 0x80 DUP1 DUP5 ADD MLOAD PUSH1 0x60 DUP4 ADD MSTORE PUSH1 0xA0 PUSH2 0x4445 DUP2 DUP7 ADD PUSH2 0x4123 JUMP JUMPDEST DUP3 DUP5 ADD MSTORE PUSH2 0x4454 DUP5 DUP7 ADD PUSH2 0x42D0 JUMP JUMPDEST SWAP1 DUP4 ADD MSTORE POP DUP7 MSTORE POP POP SWAP3 DUP8 ADD SWAP3 SWAP1 DUP8 ADD SWAP1 PUSH1 0x1 ADD PUSH2 0x439A JUMP JUMPDEST POP SWAP1 SWAP10 SWAP9 POP POP POP POP POP POP POP POP POP JUMP JUMPDEST PUSH1 0x0 PUSH1 0x20 DUP1 DUP4 DUP6 SUB SLT ISZERO PUSH2 0x448E JUMPI DUP2 DUP3 REVERT JUMPDEST DUP3 MLOAD PUSH1 0x1 PUSH1 0x1 PUSH1 0x40 SHL SUB DUP1 DUP3 GT ISZERO PUSH2 0x44A4 JUMPI DUP4 DUP5 REVERT JUMPDEST DUP2 DUP6 ADD SWAP2 POP DUP6 PUSH1 0x1F DUP4 ADD SLT PUSH2 0x44B7 JUMPI DUP4 DUP5 REVERT JUMPDEST DUP2 MLOAD PUSH2 0x44C5 PUSH2 0x414E DUP3 PUSH2 0x4C2A JUMP JUMPDEST DUP2 DUP2 MSTORE DUP5 DUP2 ADD SWAP1 DUP5 DUP7 ADD DUP8 JUMPDEST DUP5 DUP2 LT ISZERO PUSH2 0x446D JUMPI DUP2 MLOAD DUP8 ADD PUSH1 0xA0 DUP2 DUP14 SUB PUSH1 0x1F NOT ADD SLT ISZERO PUSH2 0x44F0 JUMPI DUP10 DUP11 REVERT JUMPDEST PUSH1 0x40 DUP1 MLOAD PUSH1 0xA0 DUP2 ADD DUP2 DUP2 LT DUP11 DUP3 GT OR ISZERO PUSH2 0x4506 JUMPI INVALID JUMPDEST DUP3 MSTORE DUP3 DUP12 ADD MLOAD DUP10 DUP2 GT ISZERO PUSH2 0x4518 JUMPI DUP13 DUP14 REVERT JUMPDEST PUSH2 0x4526 DUP16 DUP14 DUP4 DUP8 ADD ADD PUSH2 0x412E JUMP JUMPDEST DUP3 MSTORE POP DUP2 DUP4 ADD MLOAD DUP10 DUP2 GT ISZERO PUSH2 0x4539 JUMPI DUP13 DUP14 REVERT JUMPDEST PUSH2 0x4547 DUP16 DUP14 DUP4 DUP8 ADD ADD PUSH2 0x41A3 JUMP JUMPDEST DUP13 DUP4 ADD MSTORE POP PUSH1 0x60 DUP4 ADD MLOAD DUP3 DUP3 ADD MSTORE PUSH2 0x4561 PUSH1 0x80 DUP5 ADD PUSH2 0x4123 JUMP JUMPDEST PUSH1 0x60 DUP3 ADD MSTORE PUSH2 0x4572 PUSH1 0xA0 DUP5 ADD PUSH2 0x42D0 JUMP JUMPDEST PUSH1 0x80 DUP3 ADD MSTORE DUP7 MSTORE POP POP SWAP3 DUP8 ADD SWAP3 SWAP1 DUP8 ADD SWAP1 PUSH1 0x1 ADD PUSH2 0x44D1 JUMP JUMPDEST PUSH1 0x0 DUP1 PUSH1 0x20 DUP4 DUP6 SUB SLT ISZERO PUSH2 0x459D JUMPI DUP1 DUP2 REVERT JUMPDEST DUP3 CALLDATALOAD PUSH1 0x1 PUSH1 0x1 PUSH1 0x40 SHL SUB DUP1 DUP3 GT ISZERO PUSH2 0x45B3 JUMPI DUP3 DUP4 REVERT JUMPDEST DUP2 DUP6 ADD SWAP2 POP DUP6 PUSH1 0x1F DUP4 ADD SLT PUSH2 0x45C6 JUMPI DUP3 DUP4 REVERT JUMPDEST DUP2 CALLDATALOAD DUP2 DUP2 GT ISZERO PUSH2 0x45D4 JUMPI DUP4 DUP5 REVERT JUMPDEST DUP7 PUSH1 0x20 DUP1 DUP4 MUL DUP6 ADD ADD GT ISZERO PUSH2 0x45E7 JUMPI DUP4 DUP5 REVERT JUMPDEST PUSH1 0x20 SWAP3 SWAP1 SWAP3 ADD SWAP7 SWAP2 SWAP6 POP SWAP1 SWAP4 POP POP POP POP JUMP JUMPDEST PUSH1 0x0 PUSH1 0x20 DUP3 DUP5 SUB SLT ISZERO PUSH2 0x460A JUMPI DUP1 DUP2 REVERT JUMPDEST DUP2 MLOAD DUP1 ISZERO ISZERO DUP2 EQ PUSH2 0x1FED JUMPI DUP2 DUP3 REVERT JUMPDEST PUSH1 0x0 PUSH1 0x80 DUP3 DUP5 SUB SLT ISZERO PUSH2 0x462A JUMPI DUP1 DUP2 REVERT JUMPDEST PUSH1 0x40 MLOAD PUSH1 0x80 DUP2 ADD DUP2 DUP2 LT PUSH1 0x1 PUSH1 0x1 PUSH1 0x40 SHL SUB DUP3 GT OR ISZERO PUSH2 0x4646 JUMPI INVALID JUMPDEST PUSH1 0x40 MSTORE DUP3 MLOAD PUSH2 0x4654 DUP2 PUSH2 0x4C47 JUMP JUMPDEST DUP1 DUP3 MSTORE POP PUSH1 0x20 DUP4 ADD MLOAD PUSH1 0x20 DUP3 ADD MSTORE PUSH1 0x40 DUP4 ADD MLOAD PUSH1 0x40 DUP3 ADD MSTORE PUSH1 0x60 DUP4 ADD MLOAD PUSH1 0x60 DUP3 ADD MSTORE DUP1 SWAP2 POP POP SWAP3 SWAP2 POP POP JUMP JUMPDEST PUSH1 0x0 PUSH1 0x60 DUP3 DUP5 SUB SLT ISZERO PUSH2 0x4691 JUMPI DUP1 DUP2 REVERT JUMPDEST PUSH1 0x40 MLOAD PUSH1 0x60 DUP2 ADD DUP2 DUP2 LT PUSH1 0x1 PUSH1 0x1 PUSH1 0x40 SHL SUB DUP3 GT OR ISZERO PUSH2 0x46AD JUMPI INVALID JUMPDEST PUSH1 0x40 MSTORE DUP3 CALLDATALOAD PUSH2 0x46BB DUP2 PUSH2 0x4C47 JUMP JUMPDEST DUP2 MSTORE PUSH1 0x20 DUP4 ADD CALLDATALOAD PUSH2 0x46CB DUP2 PUSH2 0x4C6C JUMP JUMPDEST PUSH1 0x20 DUP3 ADD MSTORE PUSH1 0x40 DUP4 ADD CALLDATALOAD PUSH2 0x46DE DUP2 PUSH2 0x4C5C JUMP JUMPDEST PUSH1 0x40 DUP3 ADD MSTORE SWAP4 SWAP3 POP POP POP JUMP JUMPDEST PUSH1 0x0 PUSH1 0x20 DUP3 DUP5 SUB SLT ISZERO PUSH2 0x46FB JUMPI DUP1 DUP2 REVERT JUMPDEST DUP2 CALLDATALOAD PUSH2 0x1FED DUP2 PUSH2 0x4C5C JUMP JUMPDEST PUSH1 0x0 PUSH1 0x20 DUP3 DUP5 SUB SLT ISZERO PUSH2 0x4717 JUMPI DUP1 DUP2 REVERT JUMPDEST DUP2 MLOAD PUSH2 0x1FED DUP2 PUSH2 0x4C5C JUMP JUMPDEST PUSH1 0x0 DUP1 PUSH1 0x0 PUSH1 0x40 DUP5 DUP7 SUB SLT ISZERO PUSH2 0x4736 JUMPI DUP1 DUP2 REVERT JUMPDEST DUP4 CALLDATALOAD PUSH2 0x4741 DUP2 PUSH2 0x4C5C JUMP JUMPDEST SWAP3 POP PUSH1 0x20 DUP5 ADD CALLDATALOAD PUSH1 0x1 PUSH1 0x1 PUSH1 0x40 SHL SUB DUP1 DUP3 GT ISZERO PUSH2 0x475C JUMPI DUP3 DUP4 REVERT JUMPDEST DUP2 DUP7 ADD SWAP2 POP DUP7 PUSH1 0x1F DUP4 ADD SLT PUSH2 0x476F JUMPI DUP3 DUP4 REVERT JUMPDEST DUP2 CALLDATALOAD DUP2 DUP2 GT ISZERO PUSH2 0x477D JUMPI DUP4 DUP5 REVERT JUMPDEST DUP8 PUSH1 0x20 PUSH1 0x60 DUP4 MUL DUP6 ADD ADD GT ISZERO PUSH2 0x4791 JUMPI DUP4 DUP5 REVERT JUMPDEST PUSH1 0x20 DUP4 ADD SWAP5 POP DUP1 SWAP4 POP POP POP POP SWAP3 POP SWAP3 POP SWAP3 JUMP JUMPDEST PUSH1 0x0 DUP1 PUSH1 0x40 DUP4 DUP6 SUB SLT ISZERO PUSH2 0x47B6 JUMPI DUP2 DUP3 REVERT JUMPDEST DUP3 CALLDATALOAD PUSH2 0x47C1 DUP2 PUSH2 0x4C5C JUMP JUMPDEST SWAP2 POP PUSH1 0x20 DUP4 ADD CALLDATALOAD PUSH2 0x47D1 DUP2 PUSH2 0x4C47 JUMP JUMPDEST DUP1 SWAP2 POP POP SWAP3 POP SWAP3 SWAP1 POP JUMP JUMPDEST PUSH1 0x0 DUP1 PUSH1 0x40 DUP4 DUP6 SUB SLT ISZERO PUSH2 0x47EE JUMPI DUP2 DUP3 REVERT JUMPDEST DUP3 CALLDATALOAD PUSH2 0x47F9 DUP2 PUSH2 0x4C5C JUMP JUMPDEST SWAP5 PUSH1 0x20 SWAP4 SWAP1 SWAP4 ADD CALLDATALOAD SWAP4 POP POP POP JUMP JUMPDEST PUSH1 0x0 DUP1 PUSH1 0x40 DUP4 DUP6 SUB SLT ISZERO PUSH2 0x4819 JUMPI DUP2 DUP3 REVERT JUMPDEST DUP3 CALLDATALOAD PUSH2 0x4824 DUP2 PUSH2 0x4C5C JUMP JUMPDEST SWAP2 POP PUSH1 0x20 DUP4 ADD CALLDATALOAD PUSH4 0xFFFFFFFF DUP2 AND DUP2 EQ PUSH2 0x47D1 JUMPI DUP2 DUP3 REVERT JUMPDEST PUSH1 0x0 DUP1 PUSH1 0x40 DUP4 DUP6 SUB SLT ISZERO PUSH2 0x484E JUMPI DUP2 DUP3 REVERT JUMPDEST DUP3 CALLDATALOAD PUSH2 0x4859 DUP2 PUSH2 0x4C5C JUMP JUMPDEST SWAP2 POP PUSH1 0x20 DUP4 ADD CALLDATALOAD PUSH5 0xFFFFFFFFFF DUP2 AND DUP2 EQ PUSH2 0x47D1 JUMPI DUP2 DUP3 REVERT JUMPDEST PUSH1 0x0 PUSH1 0x20 DUP3 DUP5 SUB SLT ISZERO PUSH2 0x4883 JUMPI DUP1 DUP2 REVERT JUMPDEST POP MLOAD SWAP2 SWAP1 POP JUMP JUMPDEST PUSH1 0x0 DUP1 PUSH1 0x40 DUP4 DUP6 SUB SLT ISZERO PUSH2 0x489C JUMPI DUP2 DUP3 REVERT JUMPDEST POP POP DUP1 MLOAD PUSH1 0x20 SWAP1 SWAP2 ADD MLOAD SWAP1 SWAP3 SWAP1 SWAP2 POP JUMP JUMPDEST PUSH1 0x0 DUP2 MLOAD DUP1 DUP5 MSTORE PUSH1 0x20 DUP1 DUP6 ADD SWAP5 POP DUP1 DUP5 ADD DUP4 JUMPDEST DUP4 DUP2 LT ISZERO PUSH2 0x48DC JUMPI DUP2 MLOAD DUP8 MSTORE SWAP6 DUP3 ADD SWAP6 SWAP1 DUP3 ADD SWAP1 PUSH1 0x1 ADD PUSH2 0x48C0 JUMP JUMPDEST POP SWAP5 SWAP6 SWAP5 POP POP POP POP POP JUMP JUMPDEST PUSH1 0x1 PUSH1 0x1 PUSH1 0xA0 SHL SUB SWAP2 SWAP1 SWAP2 AND DUP2 MSTORE PUSH1 0x20 ADD SWAP1 JUMP JUMPDEST PUSH1 0x1 PUSH1 0x1 PUSH1 0xA0 SHL SUB SWAP4 DUP5 AND DUP2 MSTORE SWAP2 SWAP1 SWAP3 AND PUSH1 0x20 DUP3 ADD MSTORE PUSH1 0x40 DUP2 ADD SWAP2 SWAP1 SWAP2 MSTORE PUSH1 0x60 ADD SWAP1 JUMP JUMPDEST PUSH1 0x1 PUSH1 0x1 PUSH1 0xA0 SHL SUB SWAP3 SWAP1 SWAP3 AND DUP3 MSTORE PUSH1 0x20 DUP3 ADD MSTORE PUSH1 0x40 ADD SWAP1 JUMP JUMPDEST PUSH1 0x40 DUP1 DUP3 MSTORE DUP4 MLOAD SWAP1 DUP3 ADD DUP2 SWAP1 MSTORE PUSH1 0x0 SWAP1 PUSH1 0x20 SWAP1 PUSH1 0x60 DUP5 ADD SWAP1 DUP3 DUP8 ADD DUP5 JUMPDEST DUP3 DUP2 LT ISZERO PUSH2 0x497A JUMPI DUP2 MLOAD PUSH1 0x1 PUSH1 0x1 PUSH1 0xA0 SHL SUB AND DUP5 MSTORE SWAP3 DUP5 ADD SWAP3 SWAP1 DUP5 ADD SWAP1 PUSH1 0x1 ADD PUSH2 0x4955 JUMP JUMPDEST POP POP POP DUP4 DUP2 SUB DUP3 DUP6 ADD MSTORE PUSH2 0x1F9C DUP2 DUP7 PUSH2 0x48AD JUMP JUMPDEST PUSH1 0x20 DUP1 DUP3 MSTORE DUP3 MLOAD DUP3 DUP3 ADD DUP2 SWAP1 MSTORE PUSH1 0x0 SWAP2 SWAP1 DUP5 DUP3 ADD SWAP1 PUSH1 0x40 DUP6 ADD SWAP1 DUP5 JUMPDEST DUP2 DUP2 LT ISZERO PUSH2 0x49CA JUMPI DUP4 MLOAD PUSH2 0xFFFF AND DUP4 MSTORE SWAP3 DUP5 ADD SWAP3 SWAP2 DUP5 ADD SWAP2 PUSH1 0x1 ADD PUSH2 0x49AA JUMP JUMPDEST POP SWAP1 SWAP7 SWAP6 POP POP POP POP POP POP JUMP JUMPDEST PUSH1 0x0 PUSH1 0x20 DUP3 MSTORE PUSH2 0x1FED PUSH1 0x20 DUP4 ADD DUP5 PUSH2 0x48AD JUMP JUMPDEST SWAP1 DUP2 MSTORE PUSH1 0x20 ADD SWAP1 JUMP JUMPDEST PUSH1 0x20 DUP1 DUP3 MSTORE PUSH1 0xC SWAP1 DUP3 ADD MSTORE PUSH12 0x155B985D5D1A1BDC9A5E9959 PUSH1 0xA2 SHL PUSH1 0x40 DUP3 ADD MSTORE PUSH1 0x60 ADD SWAP1 JUMP JUMPDEST PUSH1 0x20 DUP1 DUP3 MSTORE PUSH1 0x19 SWAP1 DUP3 ADD MSTORE PUSH32 0x5472656173757279206D616E6167657220726571756972656400000000000000 PUSH1 0x40 DUP3 ADD MSTORE PUSH1 0x60 ADD SWAP1 JUMP JUMPDEST PUSH1 0x20 DUP1 DUP3 MSTORE DUP2 DUP2 ADD MSTORE PUSH32 0x4F776E61626C653A2063616C6C6572206973206E6F7420746865206F776E6572 PUSH1 0x40 DUP3 ADD MSTORE PUSH1 0x60 ADD SWAP1 JUMP JUMPDEST PUSH1 0x20 DUP1 DUP3 MSTORE PUSH1 0x12 SWAP1 DUP3 ADD MSTORE PUSH18 0x12511CC81B5D5CDD081899481CDBDC9D1959 PUSH1 0x72 SHL PUSH1 0x40 DUP3 ADD MSTORE PUSH1 0x60 ADD SWAP1 JUMP JUMPDEST PUSH1 0x20 DUP1 DUP3 MSTORE PUSH1 0xC SWAP1 DUP3 ADD MSTORE PUSH12 0x496E76616C69642072617465 PUSH1 0xA0 SHL PUSH1 0x40 DUP3 ADD MSTORE PUSH1 0x60 ADD SWAP1 JUMP JUMPDEST PUSH1 0x20 DUP1 DUP3 MSTORE PUSH1 0x13 SWAP1 DUP3 ADD MSTORE PUSH19 0x125B9D985B1A590818DD5C9C995B98DE481A59 PUSH1 0x6A SHL PUSH1 0x40 DUP3 ADD MSTORE PUSH1 0x60 ADD SWAP1 JUMP JUMPDEST PUSH2 0xFFFF DUP5 DUP2 AND DUP3 MSTORE PUSH1 0x40 PUSH1 0x20 DUP1 DUP5 ADD DUP3 SWAP1 MSTORE DUP4 DUP3 ADD DUP6 SWAP1 MSTORE PUSH1 0x0 SWAP3 PUSH1 0x60 SWAP2 DUP3 DUP7 ADD DUP9 DUP7 JUMPDEST DUP10 DUP2 LT ISZERO PUSH2 0x4B7C JUMPI DUP2 CALLDATALOAD PUSH2 0x4B3A DUP2 PUSH2 0x4C47 JUMP JUMPDEST PUSH1 0x1 PUSH1 0x1 PUSH1 0xA0 SHL SUB AND DUP4 MSTORE DUP2 DUP5 ADD CALLDATALOAD PUSH2 0x4B52 DUP2 PUSH2 0x4C6C JUMP JUMPDEST PUSH1 0xFF AND DUP4 DUP6 ADD MSTORE DUP2 DUP8 ADD CALLDATALOAD PUSH2 0x4B66 DUP2 PUSH2 0x4C5C JUMP JUMPDEST DUP6 AND DUP4 DUP9 ADD MSTORE SWAP2 DUP6 ADD SWAP2 SWAP1 DUP6 ADD SWAP1 PUSH1 0x1 ADD PUSH2 0x4B27 JUMP JUMPDEST POP SWAP1 SWAP11 SWAP10 POP POP POP POP POP POP POP POP POP POP JUMP JUMPDEST PUSH2 0xFFFF SWAP3 SWAP1 SWAP3 AND DUP3 MSTORE PUSH1 0x20 DUP3 ADD MSTORE PUSH1 0x40 ADD SWAP1 JUMP JUMPDEST PUSH2 0xFFFF SWAP4 SWAP1 SWAP4 AND DUP4 MSTORE PUSH1 0x20 DUP4 ADD SWAP2 SWAP1 SWAP2 MSTORE PUSH1 0x40 DUP3 ADD MSTORE PUSH1 0x60 ADD SWAP1 JUMP JUMPDEST PUSH2 0xFFFF SWAP3 SWAP1 SWAP3 AND DUP3 MSTORE PUSH4 0xFFFFFFFF AND PUSH1 0x20 DUP3 ADD MSTORE PUSH1 0x40 ADD SWAP1 JUMP JUMPDEST PUSH2 0xFFFF SWAP3 SWAP1 SWAP3 AND DUP3 MSTORE PUSH5 0xFFFFFFFFFF AND PUSH1 0x20 DUP3 ADD MSTORE PUSH1 0x40 ADD SWAP1 JUMP JUMPDEST SWAP3 DUP4 MSTORE PUSH1 0x20 DUP4 ADD SWAP2 SWAP1 SWAP2 MSTORE PUSH1 0x40 DUP3 ADD MSTORE PUSH1 0x60 ADD SWAP1 JUMP JUMPDEST PUSH1 0x40 MLOAD DUP2 DUP2 ADD PUSH1 0x1 PUSH1 0x1 PUSH1 0x40 SHL SUB DUP2 GT DUP3 DUP3 LT OR ISZERO PUSH2 0x4C22 JUMPI INVALID JUMPDEST PUSH1 0x40 MSTORE SWAP2 SWAP1 POP JUMP JUMPDEST PUSH1 0x0 PUSH1 0x1 PUSH1 0x1 PUSH1 0x40 SHL SUB DUP3 GT ISZERO PUSH2 0x4C3D JUMPI INVALID JUMPDEST POP PUSH1 0x20 SWAP1 DUP2 MUL ADD SWAP1 JUMP JUMPDEST PUSH1 0x1 PUSH1 0x1 PUSH1 0xA0 SHL SUB DUP2 AND DUP2 EQ PUSH2 0x105C JUMPI PUSH1 0x0 DUP1 REVERT JUMPDEST PUSH2 0xFFFF DUP2 AND DUP2 EQ PUSH2 0x105C JUMPI PUSH1 0x0 DUP1 REVERT JUMPDEST PUSH1 0xFF DUP2 AND DUP2 EQ PUSH2 0x105C JUMPI PUSH1 0x0 DUP1 REVERT INVALID LOG2 PUSH5 0x6970667358 0x22 SLT KECCAK256 DUP3 0xE7 DUP3 GT NOT PUSH27 0xD05921EC86F9110E2878D603DBA2133B79D44484A69C8CD0122A64 PUSH20 0x6F6C634300070600330000000000000000000000 ","sha1":"774182352738651355948cf2f7bc016d7dce8281","source":"// SPDX-License-Identifier: BSUL-1.1\npragma solidity =0.7.6;\npragma abicoder v2;\n\nimport {\n    Token,\n    PrimeRate,\n    PrimeCashFactorsStorage,\n    PrimeCashFactors,\n    RebalancingTargetData,\n    RebalancingContextStorage\n} from \"../../global/Types.sol\";\nimport {StorageLayoutV2} from \"../../global/StorageLayoutV2.sol\";\nimport {LibStorage} from \"../../global/LibStorage.sol\";\nimport {Constants} from \"../../global/Constants.sol\";\nimport {SafeInt256} from \"../../math/SafeInt256.sol\";\nimport {SafeUint256} from \"../../math/SafeUint256.sol\";\n\nimport {Emitter} from \"../../internal/Emitter.sol\";\nimport {BalanceHandler} from \"../../internal/balances/BalanceHandler.sol\";\nimport {PrimeRateLib} from \"../../internal/pCash/PrimeRateLib.sol\";\nimport {TokenHandler} from \"../../internal/balances/TokenHandler.sol\";\nimport {ExternalLending} from \"../../internal/balances/ExternalLending.sol\";\nimport {nTokenHandler} from \"../../internal/nToken/nTokenHandler.sol\";\nimport {nTokenSupply} from \"../../internal/nToken/nTokenSupply.sol\";\nimport {PrimeCashExchangeRate} from \"../../internal/pCash/PrimeCashExchangeRate.sol\";\nimport {GenericToken} from \"../../internal/balances/protocols/GenericToken.sol\";\n\nimport {ActionGuards} from \"./ActionGuards.sol\";\nimport {NotionalTreasury} from \"../../../interfaces/notional/NotionalTreasury.sol\";\nimport {IRewarder} from \"../../../interfaces/notional/IRewarder.sol\";\nimport {IERC20} from \"@openzeppelin/contracts/token/ERC20/IERC20.sol\";\nimport {SafeERC20} from \"@openzeppelin/contracts/token/ERC20/SafeERC20.sol\";\nimport {IPrimeCashHoldingsOracle, DepositData, RedeemData, OracleData}\n    from \"../../../interfaces/notional/IPrimeCashHoldingsOracle.sol\";\n\ncontract TreasuryAction is StorageLayoutV2, ActionGuards, NotionalTreasury {\n    using PrimeRateLib for PrimeRate;\n    using SafeUint256 for uint256;\n    using SafeInt256 for int256;\n    using SafeERC20 for IERC20;\n    using TokenHandler for Token;\n\n    struct RebalancingData {\n        RedeemData[] redeemData;\n        DepositData[] depositData;\n    }\n\n    /// @dev Harvest methods are only callable by the authorized treasury manager contract\n    modifier onlyManagerContract() {\n        require(treasuryManagerContract == msg.sender, \"Treasury manager required\");\n        _;\n    }\n\n    /*****************************************\n     * Governance Methods                    *\n     *****************************************/\n\n    /// @notice Sets the new treasury manager contract\n    function setTreasuryManager(address manager) external override onlyOwner {\n        emit TreasuryManagerChanged(treasuryManagerContract, manager);\n        treasuryManagerContract = manager;\n    }\n\n    /// @notice Set the rebalancing bot to call the rebalance method.\n    function setRebalancingBot(address _rebalancingBot) external override onlyOwner {\n        rebalancingBot = _rebalancingBot;\n    }\n\n    /// @notice Sets the reserve buffer. This is the amount of reserve balance to keep denominated in 1e8\n    /// The reserve cannot be harvested if it's below this amount. This portion of the reserve will remain on\n    /// the contract to act as a buffer against potential insolvency.\n    /// @param currencyId refers to the currency of the reserve\n    /// @param bufferAmount reserve buffer amount to keep in internal token precision (1e8)\n    function setReserveBuffer(uint16 currencyId, uint256 bufferAmount) external override onlyOwner {\n        _checkValidCurrency(currencyId);\n        reserveBuffer[currencyId] = bufferAmount;\n        emit ReserveBufferUpdated(currencyId, bufferAmount);\n    }\n\n    /// @notice Updates the emission rate of incentives for a given currency\n    /// @dev emit:UpdateIncentiveEmissionRate\n    /// @param currencyId the currency id that the nToken references\n    /// @param newEmissionRate Target total incentives to emit for an nToken over an entire year\n    /// denominated in WHOLE TOKENS (i.e. setting this to 1 means 1e8 tokens). The rate will not be\n    /// exact due to multiplier effects and fluctuating token supply.\n    function updateIncentiveEmissionRate(uint16 currencyId, uint32 newEmissionRate) external override onlyOwner {\n        _checkValidCurrency(currencyId);\n        address nTokenAddress = nTokenHandler.nTokenAddress(currencyId);\n        require(nTokenAddress != address(0));\n        // Sanity check that emissions rate is not specified in 1e8 terms.\n        require(newEmissionRate < Constants.INTERNAL_TOKEN_PRECISION, \"Invalid rate\");\n\n        nTokenSupply.setIncentiveEmissionRate(nTokenAddress, newEmissionRate, block.timestamp);\n        emit UpdateIncentiveEmissionRate(currencyId, newEmissionRate);\n    }\n\n    /// @notice This is used in the case of insolvency. It allows the owner to re-align the reserve with its correct balance.\n    /// @param currencyId refers to the currency of the reserve\n    /// @param newBalance new reserve balance to set, must be less than the current balance\n    function setReserveCashBalance(uint16 currencyId, int256 newBalance) external override onlyOwner {\n        _checkValidCurrency(currencyId);\n        // newBalance cannot be negative and is checked inside BalanceHandler.setReserveCashBalance\n        BalanceHandler.setReserveCashBalance(currencyId, newBalance);\n    }\n\n    /// @notice Sets the rebalancing parameters that define how often a token is rebalanced. Rebalancing targets a\n    /// specific Prime Cash utilization while ensuring that we have the ability to withdraw from an external money\n    /// market if we need to.\n    function setRebalancingTargets(\n        uint16 currencyId,\n        RebalancingTargetConfig[] calldata targets\n    ) external override onlyOwner {\n        address holding =\n            PrimeCashExchangeRate.getPrimeCashHoldingsOracle(currencyId).holdings()[0];\n\n        // Currently, the functionality only supports lending on a single external money market. If we want to expand beyond\n        // that then how we calculate the rebalancing amounts will have to change.\n        require(targets.length == 1);\n\n        mapping(address => RebalancingTargetData) storage rebalancingTargets = LibStorage.getRebalancingTargets()[currencyId];\n\n        RebalancingTargetConfig memory config = targets[0];\n\n        require(config.holding == holding);\n        require(config.targetUtilization < 100);\n        require(100 < config.externalWithdrawThreshold);\n\n        rebalancingTargets[holding] = RebalancingTargetData(config.targetUtilization, config.externalWithdrawThreshold);\n\n        emit RebalancingTargetsUpdated(currencyId, targets);\n\n        // Rebalance the currency immediately after we set targets. This allows the owner to immediately exit money\n        // markets by setting all the targets to zero. The cooldown check is skipped in this case.\n        _rebalanceCurrency({currencyId: currencyId, useCooldownCheck: false});\n    }\n\n    /// @notice Sets the time between calls to the rebalance method by the rebalancing bot.\n    function setRebalancingCooldown(uint16 currencyId, uint40 cooldownTimeInSeconds) external override onlyOwner {\n        mapping(uint16 => RebalancingContextStorage) storage store = LibStorage.getRebalancingContext();\n        store[currencyId].rebalancingCooldownInSeconds = cooldownTimeInSeconds;\n        emit RebalancingCooldownUpdated(currencyId, cooldownTimeInSeconds);\n    }\n\n    /*****************************************\n     * Treasury Manager Methods              *\n     *****************************************/\n\n    /// @notice Transfers some amount of reserve assets to the treasury manager contract. Reserve assets are\n    /// the result of collecting fCash trading fees and vault fees and denominated in Prime Cash. Redeems prime cash\n    /// to underlying as it is transferred off the protocol.\n    /// @param currencies an array of currencies to transfer from Notional\n    function transferReserveToTreasury(uint16[] calldata currencies) external override onlyManagerContract \n        nonReentrant returns (uint256[] memory)\n    {\n        uint256[] memory amountsTransferred = new uint256[](currencies.length);\n\n        for (uint256 i; i < currencies.length; ++i) {\n            // Prevents duplicate currency IDs\n            if (i > 0) require(currencies[i] > currencies[i - 1], \"IDs must be sorted\");\n\n            uint16 currencyId = currencies[i];\n\n            _checkValidCurrency(currencyId);\n\n            // Reserve buffer amount in INTERNAL_TOKEN_PRECISION\n            int256 bufferInternal = SafeInt256.toInt(reserveBuffer[currencyId]);\n\n            // Reserve requirement not defined\n            if (bufferInternal == 0) continue;\n\n            int256 reserveInternal = BalanceHandler.getPositiveCashBalance(Constants.FEE_RESERVE, currencyId);\n\n            // Do not withdraw anything if reserve is below or equal to reserve requirement\n            if (reserveInternal <= bufferInternal) continue;\n\n            // Actual reserve amount allowed to be redeemed and transferred\n            // NOTE: overflow not possible with the check above\n            int256 primeCashRedeemed = reserveInternal - bufferInternal;\n\n            // Redeems prime cash and transfer underlying to treasury manager contract\n            amountsTransferred[i] = _redeemAndTransfer(currencyId, primeCashRedeemed);\n\n            // Updates the reserve balance\n            BalanceHandler.harvestExcessReserveBalance(\n                currencyId,\n                reserveInternal,\n                primeCashRedeemed\n            );\n        }\n\n        // NOTE: TreasuryManager contract will emit an AssetsHarvested event\n        return amountsTransferred;\n    }\n\n    /// @notice Harvests interest income from rebalancing. Interest income is different from reserve assets because they\n    /// are not accounted for with in stored token balances and therefore are not accessible by Prime Cash holders. Any\n    /// interest will be transferred to the treasury manager.\n    function harvestAssetInterest(uint16[] calldata currencies) external override onlyManagerContract nonReentrant {\n        for (uint256 i; i < currencies.length; ++i) {\n            // Prevents duplicate currency IDs\n            if (i > 0) require(currencies[i] > currencies[i - 1], \"IDs must be sorted\");\n\n            uint16 currencyId = currencies[i];\n\n            _checkValidCurrency(currencyId);\n            _skimInterest(currencyId, PrimeCashExchangeRate.getPrimeCashHoldingsOracle(currencyId));\n        }\n    }\n\n    /// @notice Redeems and transfers tokens to the treasury manager contract. This method is distinct from _skimInterest\n    /// because it redeems prime cash held by the protocol, _skimInterest transfers external lending tokens held by the\n    /// protocol.\n    function _redeemAndTransfer(uint16 currencyId, int256 primeCashRedeemAmount) private returns (uint256) {\n        PrimeRate memory primeRate = PrimeRateLib.buildPrimeRateStateful(currencyId);\n        Emitter.emitTransferPrimeCash(Constants.FEE_RESERVE, treasuryManagerContract, currencyId, primeCashRedeemAmount);\n\n        int256 actualTransferExternal = TokenHandler.withdrawPrimeCash(\n            treasuryManagerContract,\n            treasuryManagerContract,\n            currencyId,\n            primeCashRedeemAmount.neg(),\n            primeRate,\n            true // if ETH, transfers it as WETH\n        ).neg();\n\n        require(actualTransferExternal > 0);\n        return uint256(actualTransferExternal);\n    }\n\n    /// @notice Transfers any excess balance above the stored token balance to the treasury manager. This\n    /// balance is not accessible by Prime Cash holders and represents interest earned by the protocol\n    // from lending on external money markets.\n    function _skimInterest(uint16 currencyId, IPrimeCashHoldingsOracle oracle) private {\n        address[] memory assetTokens = oracle.holdings();\n\n        for (uint256 i; i < assetTokens.length; ++i) {\n            address asset = assetTokens[i];\n\n            mapping(address => uint256) storage store = LibStorage.getStoredTokenBalances();\n            uint256 storedBalance = store[asset];\n            uint256 currentBalance = IERC20(asset).balanceOf(address(this));\n\n            if (currentBalance > storedBalance) {\n                uint256 skimAmount = currentBalance - storedBalance;\n                GenericToken.safeTransferOut(asset, treasuryManagerContract, skimAmount);\n                emit AssetInterestHarvested(currencyId, asset, skimAmount);\n            }\n        }\n    }\n\n    /*****************************************\n     * Rebalancing Bot Methods               *\n     *****************************************/\n\n    /// @notice View method to check which currencies can be rebalanced\n    function checkRebalance() external view override returns (uint16[] memory currencyIdsForRebalance) {\n        mapping(uint16 => RebalancingContextStorage) storage contexts = LibStorage.getRebalancingContext();\n        uint16[] memory currencyIds = new uint16[](maxCurrencyId);\n\n        // Counter is used to slice the currencyIds array at the end of the method\n        uint16 counter = 0;\n\n        // Currency ids are 1-indexed\n        for (uint16 currencyId = 1; currencyId <= maxCurrencyId; currencyId++) {\n            IPrimeCashHoldingsOracle oracle = PrimeCashExchangeRate.getPrimeCashHoldingsOracle(currencyId);\n            address[] memory holdings = oracle.holdings();\n            if (holdings.length == 0) continue;\n\n            RebalancingContextStorage storage context = contexts[currencyId];\n            bool cooldownPassed = _hasCooldownPassed(context);\n            (PrimeRate memory rate, PrimeCashFactors memory factors) =\n                PrimeCashExchangeRate.getPrimeCashRateView(currencyId, block.timestamp);\n            (bool isExternalLendingUnhealthy, /* */, /* */) =\n                _isExternalLendingUnhealthy(currencyId, oracle, rate, factors);\n\n            // If external lending is unhealthy, the bot and rebalance the currency immediately and\n            // bypass the cooldown.\n            if (cooldownPassed || isExternalLendingUnhealthy) {\n                currencyIds[counter] = currencyId;\n                counter++;\n            }\n        }\n\n        if (counter != 0) {\n            currencyIdsForRebalance = new uint16[](counter);\n            for (uint16 i = 0; i < counter; i++) currencyIdsForRebalance[i] = currencyIds[i];\n        }\n    }\n\n    /// @notice Rebalances the given currency id. Can only be called by the rebalancing bot. Under normal operating\n    /// conditions this can only be called once the cool down period has passed between rebalances, however, if the\n    /// external lending is unhealthy we can bypass that cool down period. The logic for when rebalance is called is\n    /// defined above in `checkRebalance`.\n    /// @param currencyId currency id\n    function rebalance(uint16 currencyId) external override nonReentrant {\n        require(msg.sender == rebalancingBot, \"Unauthorized\");\n\n        // The gelato bot cannot skip the cooldown check.\n        _rebalanceCurrency({currencyId: currencyId, useCooldownCheck: true});\n    }\n\n    /// @notice Returns when sufficient time has passed since the last rebalancing cool down.\n    function _hasCooldownPassed(RebalancingContextStorage memory context) private view returns (bool) {\n        return uint256(context.lastRebalanceTimestampInSeconds)\n            .add(context.rebalancingCooldownInSeconds) < block.timestamp;\n    }\n\n    /// @notice Executes the rebalancing of a single currency and updates the oracle supply rate.\n    function _rebalanceCurrency(uint16 currencyId, bool useCooldownCheck) private {\n        RebalancingContextStorage memory context = LibStorage.getRebalancingContext()[currencyId];\n        // Accrues interest up to the current block before any rebalancing is executed\n        IPrimeCashHoldingsOracle oracle = PrimeCashExchangeRate.getPrimeCashHoldingsOracle(currencyId);\n        PrimeRate memory pr = PrimeRateLib.buildPrimeRateStateful(currencyId);\n        PrimeCashFactors memory factors = PrimeCashExchangeRate.getPrimeCashFactors(currencyId);\n\n        bool hasCooldownPassed = _hasCooldownPassed(context);\n        (bool isExternalLendingUnhealthy, OracleData memory oracleData, uint256 targetAmount) = \n            _isExternalLendingUnhealthy(currencyId, oracle, pr, factors);\n\n        // Cooldown check is bypassed when the owner updates the rebalancing targets\n        if (useCooldownCheck) require(hasCooldownPassed || isExternalLendingUnhealthy);\n\n        // Updates the oracle supply rate as well as the last cooldown timestamp. Only update the oracle supply rate\n        // if the cooldown has passed. If not, the oracle supply rate won't change.\n        uint256 oracleSupplyRate = pr.oracleSupplyRate;\n        if (hasCooldownPassed) {\n            oracleSupplyRate = _updateOracleSupplyRate(\n                currencyId, pr, context.previousSupplyFactorAtRebalance, context.lastRebalanceTimestampInSeconds\n            );\n        }\n\n        // External effects happen after the internal state has updated\n        _executeRebalance(currencyId, oracle, factors, oracleData, targetAmount);\n\n        emit CurrencyRebalanced(currencyId, pr.supplyFactor.toUint(), oracleSupplyRate);\n    }\n\n    /// @notice Updates the oracle supply rate for Prime Cash. This oracle supply rate is used to value fCash that exists\n    /// below the 3 month fCash tenor. This is not a common situation but it is important to use a TWAP oracle here to\n    /// ensure that this fCash is not subject to market manipulation.\n    function _updateOracleSupplyRate(\n        uint16 currencyId,\n        PrimeRate memory pr,\n        uint256 previousSupplyFactorAtRebalance,\n        uint256 lastRebalanceTimestampInSeconds\n    ) private returns (uint256 oracleSupplyRate) {\n        // If previous supply factor at rebalance == 0, then it is the first rebalance and the\n        // oracle supply rate will be left as zero. The previous supply factor will\n        // be set to the new factors.supplyFactor in the code below.\n        if (previousSupplyFactorAtRebalance != 0) {\n            // The interest rate is the rate of increase of the supply factor scaled up to a\n            // year time period. Therefore the calculation is:\n            //  ((supplyFactor / prevSupplyFactorAtRebalance) - 1) * (year / timeSinceLastRebalance)\n            uint256 interestRate = pr.supplyFactor.toUint()\n                .mul(Constants.SCALAR_PRECISION)\n                .div(previousSupplyFactorAtRebalance)\n                .sub(Constants.SCALAR_PRECISION) \n                .div(uint256(Constants.RATE_PRECISION));\n\n\n            oracleSupplyRate = interestRate\n                .mul(Constants.YEAR)\n                .div(block.timestamp.sub(lastRebalanceTimestampInSeconds));\n        }\n\n        mapping(uint256 => PrimeCashFactorsStorage) storage p = LibStorage.getPrimeCashFactors();\n        p[currencyId].oracleSupplyRate = oracleSupplyRate.toUint32();\n\n        mapping(uint16 => RebalancingContextStorage) storage c = LibStorage.getRebalancingContext();\n        c[currencyId].lastRebalanceTimestampInSeconds = block.timestamp.toUint40();\n        c[currencyId].previousSupplyFactorAtRebalance = pr.supplyFactor.toUint().toUint128();\n    }\n\n    /// @notice Calculates and executes the rebalancing of a single currency.\n    function _executeRebalance(\n        uint16 currencyId,\n        IPrimeCashHoldingsOracle oracle,\n        PrimeCashFactors memory factors,\n        OracleData memory oracleData,\n        uint256 targetAmount\n    ) private {\n        Token memory underlyingToken = TokenHandler.getUnderlyingToken(currencyId);\n        RebalancingData memory data = _calculateRebalance(oracle, oracleData, targetAmount);\n\n        uint256 totalUnderlyingValueBefore =\n            uint256(underlyingToken.convertToExternal(int256(factors.lastTotalUnderlyingValue)));\n\n        // Both of these methods will short circuit if redeemData or depositData has a length of zero\n        ExternalLending.executeMoneyMarketRedemptions(underlyingToken, data.redeemData);\n        ExternalLending.executeDeposits(underlyingToken, data.depositData);\n\n        // Ensure that total value in underlying terms is not lost as a result of rebalancing.\n        (uint256 totalUnderlyingValueAfter, /* */) = oracle.getTotalUnderlyingValueStateful();\n        require(totalUnderlyingValueBefore <= totalUnderlyingValueAfter);\n    }\n\n    /// @notice Determines if external lending is unhealthy. If this is the case, then we will need to immediately\n    /// execute a rebalance.\n    function _isExternalLendingUnhealthy(\n        uint16 currencyId,\n        IPrimeCashHoldingsOracle oracle,\n        PrimeRate memory pr,\n        PrimeCashFactors memory factors\n    ) internal view returns (bool isExternalLendingUnhealthy, OracleData memory oracleData, uint256 targetAmount) {\n        oracleData = oracle.getOracleData();\n\n        RebalancingTargetData memory rebalancingTargetData =\n            LibStorage.getRebalancingTargets()[currencyId][oracleData.holding];\n        Token memory underlyingToken = TokenHandler.getUnderlyingToken(currencyId);\n\n        targetAmount = ExternalLending.getTargetExternalLendingAmount(\n            underlyingToken, factors, rebalancingTargetData, oracleData, pr\n        );\n\n        if (oracleData.currentExternalUnderlyingLend == 0) {\n            // If this is zero then there is no outstanding lending.\n            isExternalLendingUnhealthy = false;\n        } else {\n            // minimal difference we should care about is 1 basis point of 1 underlying token\n            // to prevent rebalancing when difference between target and currentExternalUnderlyingLend\n            // is small in absolute but large in relative terms eg. (0, 1), (1, 2)...\n            uint256 minDiff = uint256(10 ** uint256(underlyingToken.decimals)).mulInRatePrecision(Constants.BASIS_POINT);\n            // lendTargetDiff = |currentExternalUnderlyingLend - targetAmount|\n            uint256 lendTargetDiff = oracleData.currentExternalUnderlyingLend.toInt()\n                .sub(targetAmount.toInt()).abs()\n                .toUint();\n            // offTargetPercentage = lendTargetDiff * 100 / targetAmount\n            uint256 offTargetPercentage = (minDiff < lendTargetDiff ? lendTargetDiff : 0)\n                .mul(uint256(Constants.PERCENTAGE_DECIMALS))\n                .div(targetAmount + 1); // add 1 to prevent dividing by zero\n\n            // prevent rebalance if change is not equal or greater than 1%, important for health check and to avoiding triggering\n            // rebalance shortly after rebalance on minimum change\n            isExternalLendingUnhealthy =\n                (targetAmount < oracleData.currentExternalUnderlyingLend) && (0 < offTargetPercentage);\n        }\n    }\n\n    function _calculateRebalance(\n        IPrimeCashHoldingsOracle oracle,\n        OracleData memory oracleData,\n        uint256 targetAmount\n    ) private view returns (RebalancingData memory rebalancingData) {\n        address holding = oracleData.holding;\n        uint256 currentAmount = oracleData.currentExternalUnderlyingLend;\n\n        if (targetAmount < currentAmount) {\n            // If above the target amount then redeem\n            address[] memory redeemHoldings = new address[](1);\n            uint256[] memory redeemAmounts = new uint256[](1);\n\n            redeemHoldings[0] = holding;\n            redeemAmounts[0] = currentAmount - targetAmount;\n            rebalancingData.redeemData = oracle.getRedemptionCalldataForRebalancing(redeemHoldings, redeemAmounts);\n        } else if (currentAmount < targetAmount) {\n            // If below the target amount then deposit\n            address[] memory depositHoldings = new address[](1);\n            uint256[] memory depositAmounts = new uint256[](1);\n\n            depositHoldings[0] = holding;\n            depositAmounts[0] = targetAmount - currentAmount;\n            rebalancingData.depositData = oracle.getDepositCalldataForRebalancing(depositHoldings, depositAmounts);\n        }\n    }\n\n    function _saveOracleSupplyRate(uint16 currencyId, uint256 annualizedInterestRate) private {\n        mapping(uint256 => PrimeCashFactorsStorage) storage store = LibStorage.getPrimeCashFactors();\n        store[currencyId].oracleSupplyRate = annualizedInterestRate.toUint32();\n    }\n\n    function _saveRebalancingContext(uint16 currencyId, uint128 supplyFactor) private {\n        mapping(uint16 => RebalancingContextStorage) storage store = LibStorage.getRebalancingContext();\n        store[currencyId].lastRebalanceTimestampInSeconds = block.timestamp.toUint40();\n        store[currencyId].previousSupplyFactorAtRebalance = supplyFactor;\n    }\n\n    /// @notice Sets a secondary incentive rewarder for a currency. This contract will\n    /// be called whenever an nToken balance changes and allows a secondary contract to\n    /// mint incentives to the account. This will override any previous rewarder, if set.\n    /// Will have no effect if there is no nToken corresponding to the currency id.\n    /// @dev emit:UpdateSecondaryIncentiveRewarder\n    /// @param currencyId currency id of the nToken\n    /// @param rewarder rewarder contract\n    function setSecondaryIncentiveRewarder(uint16 currencyId, IRewarder rewarder) external override onlyOwner {\n        _checkValidCurrency(currencyId);\n\n        address nTokenAddress= nTokenHandler.nTokenAddress(currencyId);\n        if (address(rewarder) != address(0)) {\n            require(currencyId == rewarder.CURRENCY_ID());\n            require(nTokenAddress == rewarder.NTOKEN_ADDRESS());\n            require(!rewarder.detached());\n        }\n\n        IRewarder currentRewarder = nTokenHandler.getSecondaryRewarder(nTokenAddress);\n        require(address(rewarder) != address(currentRewarder));\n        if (address(currentRewarder) != address(0)) {\n            currentRewarder.detach();\n        }\n        nTokenHandler.setSecondaryRewarder(currencyId, rewarder);\n        emit UpdateSecondaryIncentiveRewarder(currencyId, address(rewarder));\n    }\n}","sourcePath":"contracts/external/actions/TreasuryAction.sol","type":"contract","deployment":{"address":"0x65a7D107b93B37C918cA184D16Ef77E80985e887","chainid":"42161","blockHeight":182817953}}