{"abi":[{"anonymous":false,"inputs":[{"indexed":false,"internalType":"uint16","name":"currencyId","type":"uint16"}],"name":"MarketsInitialized","type":"event"},{"inputs":[],"name":"getLibInfo","outputs":[{"internalType":"address","name":"","type":"address"}],"stateMutability":"pure","type":"function"}],"bytecode":"615ed862000027600b82828239805160001a60731461001a57fe5b30600052607381538281f3fe730000000000000000000000000000000000000000301460806040526004361061004b5760003560e01c8063bb6dd58e14610050578063c4c96dae14610072578063d0e064c014610090575b600080fd5b81801561005c57600080fd5b5061007061006b366004615bd9565b6100b0565b005b61007a61011a565b6040516100879190615c8a565b60405180910390f35b81801561009c57600080fd5b506100706100ab366004615bf3565b610132565b604051635db6eac760e11b815273__nTokenMintAction______________________9063bb6dd58e906100e7908490600401615e7d565b60006040518083038186803b1580156100ff57600080fd5b505af4158015610113573d6000803e3d6000fd5b5050505050565b73__nTokenMintAction______________________90565b4261013b6159c4565b61014581856105d7565b80516020015160009067ffffffffffffffff8111801561016457600080fd5b5060405190808252806020026020018201604052801561019e57816020015b61018b615a0d565b8152602001906001900390816101835790505b508251602001519091506101b157600080fd5b83156101c85760208201515151156101c857600080fd5b60006101d783838689896105f0565b905060006101ed8785600001516020015161066c565b90506101f7615a0d565b6000805b86516020015181101561054b57610226610217826001016107d0565b6102208a610879565b9061089a565b602084015283518051600091610259918891908590811061024357fe5b602002602001015184600260ff1601878c6108b3565b905089806102735750816001148015610273575086516002145b806102845750602088015151518210155b806102b257508160011480156102b25750866002815181106102a257fe5b602002602001015160c001516000145b156103595760006102da82876040015185815181106102cd57fe5b6020026020010151610914565b905080856040018181525050610327866040015184815181106102f957fe5b60200260200101518760600151858151811061031157fe5b602002602001015161094990919063ffffffff16565b60c086018190526103535760405162461bcd60e51b815260040161034a90615e46565b60405180910390fd5b5061052d565b8161037e578660018151811061036b57fe5b602002602001015160c00151925061045f565b81600114156103e257610399876103948b610879565b610a09565b9250846060015182815181106103ab57fe5b6020026020010151604001518310156103dd57846060015182815181106103ce57fe5b60200260200101516040015192505b61045f565b60006103f96103f0846107d0565b6102208c610879565b905061041981858a868151811061040c57fe5b6020026020010151610a8f565b93508560600151838151811061042b57fe5b60200260200101516040015184101561045d578560600151838151811061044e57fe5b60200260200101516040015193505b505b600061048b848760600151858151811061047557fe5b6020026020010151610b1790919063ffffffff16565b90506104ad866020015184815181106104a057fe5b6020026020010151610bb2565b8111156104fc576104c7866020015184815181106104a057fe5b90506104dd818760600151858151811061031157fe5b9350836104fc5760405162461bcd60e51b815260040161034a90615d3e565b6105068282610914565b604086018190526001131561051d57600160408601525b5060c0840183905260e084018990525b60c084015160a0850152610542848c8a610bc5565b506001016101fb565b5060006105698760c001518860200151610c0b90919063ffffffff16565b50925050506105818760c001518b8960600151610e4b565b6105948760c00151828960800151610e5b565b7fcffeff9accc9171f01fec36e09a1a06f0160ce50a8c4c0a2adff9cec562adf088a6040516105c39190615e7d565b60405180910390a150505050505050505050565b6105e18282610ece565b6105ea81610f6a565b90915250565b60008082156106135761060285610f89565b64ffffffffff16608088015261063b565b61061d8786610fa5565b61062d8461ffff1686898961107a565b61063887878761110a565b90505b606087015161064a9082611245565b6060880182905291506103e8821361066157600080fd5b505b95945050505050565b610674615a55565b61067c615a55565b61068a8461ffff1684611261565b6020830152815260006106a161ffff861685611296565b9050805167ffffffffffffffff811180156106bb57600080fd5b506040519080825280602002602001820160405280156106e5578160200160208202803683370190505b50604083015260005b8151811015610729576107068282815181106104a057fe5b8360400151828151811061071657fe5b60209081029190910101526001016106ee565b50610733856112c7565b8367ffffffffffffffff8111801561074a57600080fd5b5060405190808252806020026020018201604052801561078457816020015b610771615a7d565b8152602001906001900390816107695790505b50606083015260015b8481116107c45761079e8682611316565b836060015160018303815181106107b157fe5b602090810291909101015260010161078d565b50909150505b92915050565b600081600114156107e557506276a700610874565b81600214156107f8575062ed4e00610874565b816003141561080c57506301da9c00610874565b816004141561082057506303b53800610874565b816005141561083457506309450c00610874565b8160061415610848575063128a1800610874565b816007141561085c57506325143000610874565b60405162461bcd60e51b815260040161034a90615d9b565b919050565b60006276a70082101561088b57600080fd5b6276a700825b06909103919050565b6000828201838110156108ac57600080fd5b9392505050565b6000806108ce6305f5e1006108c88989611330565b9061137e565b6060850181905260808501819052835151602080870151908601519293506108f992919088856113af565b82516040015161090990826114b2565b979650505050505050565b6000633b9aca00821061092657600080fd5b81633b9aca008190036109398583611330565b8161094057fe5b05949350505050565b60008083608001511161095b57600080fd5b633b9aca0082111561096c57600080fd5b825182116109985782516040840151610991919061098b9085906114de565b90611505565b90506107ca565b826020015182116109d05760408301518351602085015160608601516109919392610220928190039161098b918803908590036114de565b6108ac83606001516102208560200151633b9aca000361098b8760600151886080015103886020015188036114de90919063ffffffff16565b6000600383511015610a1a57600080fd5b6108ac83600181518110610a2a57fe5b60200260200101516020015184600281518110610a4357fe5b60200260200101516020015185600181518110610a5c57fe5b602002602001015160c0015186600281518110610a7557fe5b602090810291909101015160c0015162ed4e008701611524565b602081015160c0820151600091906276a7008201828710610aaf57600080fd5b858210610ad857610ace8661022089860361098b8387038c87036114de565b93505050506108ac565b6000610aee88850361098b858a038b86036114de565b9050808711610afe576001610b02565b8087035b9450505050506108ac565b5050509392505050565b600080836080015111610b2957600080fd5b82604001518211610b4b5760408301518351610991919061098b9085906114de565b82606001518211610b835782516040840151606085015160208601516109919392610220928190039161098b918803908590036114de565b6020830151606084015160808501516108ac9291610220918190039061098b908703633b9aca008590036114de565b600080821215610bc157600080fd5b5090565b60006276a700610bd442610879565b019050610be68461ffff851683611582565b6101138260c001518486602001518560800151610c0689604001516115e9565b6115f7565b6000808080808080805b895151811015610c9c5760008a600001518281518110610c3157fe5b60200260200101519050600380811115610c4757fe5b8160a001516003811115610c5757fe5b1415610c6257600080fd5b60028160a001516003811115610c7457fe5b14158015610c8457506060810151155b15610c9357610c938b83611753565b50600101610c15565b5060005b895151811015610d3f5760008a600001518281518110610cbc57fe5b6020026020010151905060026003811115610cd357fe5b8160a001516003811115610ce357fe5b1415610cf757608081015160009055610d36565b60018160a001516003811115610d0957fe5b1415610d2257608081015180610d1f83826118a3565b50505b610d2e818686866119d2565b919650945092505b50600101610ca0565b5060608901516000610d4f611a40565b6001600160a01b038b1660009081526020829052604081209192505b8c6020015151811015610e195760008d602001518281518110610d8a57fe5b60200260200101519050806060015160001415610da75750610e11565b60028160a001516003811115610db957fe5b14158015610dd7575060038160a001516003811115610dd457fe5b14155b610de057600080fd5b610dec818989896119d2565b91995097509550610e0981848760088110610e0357fe5b016118a3565b600185019450505b600101610d6b565b506010831115610e2857600080fd5b64ffffffffff841115610e3a57600080fd5b50939a929950975095509350505050565b610e56838383611a4d565b505050565b63ffffffff8110610e6b57600080fd5b6000610e75611ac1565b6001600160a01b039094166000908152602094909452506040909220805460ff909216600160501b0260ff60501b1963ffffffff909416600160301b0269ffffffff000000000000199093169290921792909216179055565b610edb8161ffff16611ace565b6001600160a01b031660c0830181905260009081908190610efb90611af4565b94509450945050506000610f128660c00151611b5d565b505060808701859052604087018190526001600160d01b0319831660a088015260c0870151909150610f4690846000611bbe565b602087015260c0860151610f5a9086611c51565b6060909601959095525050505050565b610f72615ac2565b6000610f7d83611caa565b90506108ac8382611cbc565b600062015180821015610f9b57600080fd5b6201518082610891565b6000610fb082610879565b905080836080015110610fc257600080fd5b600080610fcf8585611cff565b915091506000806000610ffd8860c001518960000151600001518a608001518a8c6000015160400151611e2e565b9194509250905061100e8385611f86565b60608901519093506110209086611f86565b6060890181905260c08901518951805160409091015161104593909291908787611f9c565b6060890181905260001261105857600080fd5b61106181612067565b64ffffffffff1660809098019790975250505050505050565b6000611089836000015161207b565b9050600061109685610879565b905060015b60208501515151811015611101576110f98786602001516000015183815181106110c157fe5b60200260200101516020015188600087878a88815181106110de57fe5b602002602001015161208f909695949392919063ffffffff16565b60010161109b565b50505050505050565b6000806111278560c0015186600001516000015161ffff166120c6565b60a0860151855191925060011a620f42400290600090156111545761114f856276a7006120fb565b611156565b845b9050600061116384612110565b90505b801561122957600061117c896080015183612135565b905060006111938a6000015160200151838a6121e8565b9050806112095760c08a01518a51516000916111b39161ffff168561228d565b90506000811215611207578a516000906111ce9085886122d2565b9050808711156111e0575060006111ed565b6111ea81886120fb565b90505b6112036111fc83868d856123b2565b8a90612405565b9850505b505b6112158684600061241b565b955061122086612110565b92505050611166565b8751604001516112399086612466565b98975050505050505050565b60006112518383612405565b905060008112156107ca57600080fd5b606080600061126e612488565b60008681526020829052604090209091506112898186612495565b9097909650945050505050565b606060006112a26125db565b60008581526020829052604090209091506112bd8185612495565b9695505050505050565b60006112d16125e8565b61ffff831660009081526020919091526040812091506112ef6125f5565b61ffff93909316600090815260209390935250604090912081548155600191820154910155565b61131e615a7d565b6108ac838361132b6125f5565b612602565b8181026000198314156113605781158061135257508282828161134f57fe5b05145b61135b57600080fd5b6107ca565b82158061137557508183828161137257fe5b05145b6107ca57600080fd5b6000816000191480156113945750600160ff1b83145b1561139e57600080fd5b8183816113a757fe5b059392505050565b84516113be9085858585612659565b156113c857610113565b6040850151156113f55760006113e5866020015186868686612659565b905080156113f35750610113565b505b6113fe82612775565b1561141157600081121561141157600080fd5b6001600160571b0319811280159061143057506001600160571b038113155b61143957600080fd5b8460200151518560400151141561145d57611457856020015161278b565b60208601525b6000856020015186604001518151811061147357fe5b60209081029190910181015161ffff9690961686528501939093526040808501929092526060840152600060a090930192909252500180516001019052565b60006108ac6ec097ce7bc90715b34b9f10000000006108c885600001518561133090919063ffffffff16565b6000826114ed575060006107ca565b828202828482816114fa57fe5b04146108ac57600080fd5b600080821161151357600080fd5b81838161151c57fe5b049392505050565b600081861061153257600080fd5b84821061153e57600080fd5b8383106115645761155d8461022088880361098b8388038b88036114de565b9050610663565b61155d61157b87870361098b8688038a87036114de565b85906120fb565b600061158c612844565b60008481526020828152604080832088830151845282528083208684529091529081902090860151606087015160a088015160c089015160e08a015195965093946115db948694939291612851565b610113818660800151612962565b60006107ca60001983611330565b600080611608878761ffff166120c6565b905060006116146129a8565b6001600160a01b03891660009081526020828152604080832061ffff8c16845282528083208a845290915281209192508061164f888a6129b5565b915091508061165d57600080fd5b6116678583612abd565b156116ea578254600f90810b900b60006116818983611f86565b905061168c81612aed565b8554600f9190910b6001600160801b03166001600160801b03199091161785556116b98d8d8d8585612b17565b806116cd576116ca8785600061241b565b96505b6116dc8d8d61ffff1689612bec565b965061066395505050505050565b8615611744576116f987612aed565b8354600f9190910b6001600160801b03166001600160801b03199091161783556117278b8b8b60008b612b17565b6117338583600161241b565b94506117448b8b61ffff1687612bec565b50949998505050505050505050565b815151811061176157600080fd5b600082606001511161177257600080fd5b60008260000151828151811061178457fe5b602002602001015190506002600381111561179b57fe5b8160a0015160038111156117ab57fe5b141580156117c9575060038160a0015160038111156117c657fe5b14155b6117d257600080fd5b606083018051600019019052600080805b855151811015611845576000866000015182815181106117ff57fe5b6020026020010151905082816080015111801561182c575060028160a00151600381111561182957fe5b14155b1561183c57806080015192508193505b506001016117e3565b508184141561185e575050600260a0919091015261189f565b60008560000151838151811061187057fe5b602090810291909101015160808581018051918301805190915252600160a09182015260029401939093525050505b5050565b815161ffff16158015906118c057508151613fff61ffff90911611155b6118c957600080fd5b816020015160001080156118e65750602082015164ffffffffff10155b6118ef57600080fd5b8160400151600010801561190857506040820151600810155b61191157600080fd5b60608201516001600160571b031913801590611938575060608201516001600160571b0312155b61194157600080fd5b8151815460208401516040850151606090950151600a0b6001600160581b0316600160401b0272ffffffffffffffffffffff00000000000000001960ff909616600160381b0267ff000000000000001964ffffffffff909316620100000266ffffffffff00001961ffff90961661ffff19909516949094179490941692909217169190911792909216919091179055565b6000806000806119e188612c46565b90508415806119ef57508085115b156119f8578094505b8680611a08575060008860600151125b965061ffff861615611a1957600080fd5b50509451939560f09490941b6001600160f01b03191660109390931c929092179350919050565b6000806107ca600d612cad565b6000811215611a5b57600080fd5b6000611a65612cc6565b6001600160a01b03851660009081526020828152604080832061ffff881684529091529020909150611a9683612cd3565b8154600a9190910b6001600160581b0316600160a81b026001600160a81b0390911617905550505050565b6000806107ca6002612cad565b600080611ad9612cfc565b6000938452602052505060409020546001600160a01b031690565b600080600080600080611b05611ac1565b6001600160a01b039097166000908152602097909752505060409094205461ffff81169563ffffffff62010000830481169650600160301b830416945060ff600160501b8304169350600160581b90910460d01b9150565b600080600080611b6b612d09565b6001600160a01b0395909516600090815260209590955250506040909220546bffffffffffffffffffffffff811693600160601b82046001600160801b03169350600160e01b90910463ffffffff169150565b611bc6615aee565b611bce615aee565b60ff8416611bdd5790506108ac565b611be78585612d16565b815260ff841660608201528267ffffffffffffffff81118015611c0957600080fd5b50604051908082528060200260200182016040528015611c4357816020015b611c30615b16565b815260200190600190039081611c285790505b506020820152949350505050565b600080611c5c612cc6565b6001600160a01b03851660009081526020828152604080832061ffff8816845290915281208054600160a81b9004600a90810b900b9450919250831215611ca257600080fd5b505092915050565b611cb2615b5a565b6107ca8242612d22565b611cc4615ac2565b6000611cd38461ffff16612de8565b6040805160808101825261ffff96909616865260ff821660208701528501939093525050606082015290565b600080611d0a615a0d565b60208501515160005b8151811015611e24576000828281518110611d2a57fe5b60200260200101519050611d418160400151612775565b611d4a57600080fd5b6000611d5582612c46565b905087811115611d6457600080fd5b611d7c85836000015161ffff16846020015184612e05565b50600080611d97836060015187612e1990919063ffffffff16565b92509050611da58882611f86565b97505087826020015111611dec5760c0890151825160208401518b5160400151600093611dd8939192909190868e612ec1565b9050611de48782611f86565b965050611e0b565b611e098960c00151836000015184602001518c60800151856115f7565b505b6020890151611e1a9084611753565b5050600101611d13565b5050509250929050565b600080600080611e42898961ffff166120c6565b9050611e4d86610f89565b915086821015611e5c57600080fd5b6000611e6888846129b5565b50905080611e7e57600080945094505050611f7b565b6000611e8983612110565b90505b8015801590611e9b5750818111155b15611f06576000611eac8a83612135565b90506000611ebd8d8d848d8d612eff565b90506000811315611ed957611ed28882611f86565b9750611ee6565b611ee38782611f86565b96505b611ef28584600061241b565b9450611efd85612110565b92505050611e8c565b60005b8115611f67576000611f1b8b84612135565b9050600080611f2a88846129b5565b9150915080611f3857600080fd5b611f448483600161241b565b9350611f528786600061241b565b9650611f5d87612110565b9450505050611f09565b611f768c8c61ffff1683612bec565b505050505b955095509592505050565b818101828112156000831215146107ca57600080fd5b600080611fb383611fad8787611f86565b90611f86565b9050611fbf8882612f97565b91508360001315611fcf57600080fd5b6000831315611fdd57600080fd5b8460001215611ff757611ff08585611f86565b9350612004565b6120018584611f86565b92505b600084612010856115e9565b121561201d575082612029565b612026856115e9565b90505b600081121561205b576020890151895160009161204b916108c8908590611330565b905061205989898385612fd6565b505b50509695505050505050565b600064ffffffffff821115610bc157600080fd5b6060015161012c60089190911c60ff160290565b61209c8787878685613118565b6120b58760e001518860a001518960c0015185886131d3565b60c090970196909652505050505050565b6000806120d161325b565b6001600160a01b038516600090815260209182526040808220868352909252205491505092915050565b60008282111561210a57600080fd5b50900390565b60008161211f57506000610874565b61212882613268565b60ff036001019050919050565b60008161214157600080fd5b61010082111561215057600080fd5b600061215b84610f89565b90506000605a841161217657506201518083020190506107ca565b6087841161219e575060591983016207e900908102908206909103016276a7000190506107ca565b60c384116121c75750608619830162278d00908102908206909103016301da9c000190506107ca565b5060c21983016276a70090810290820690910301630b1fa8000190506107ca565b60008084116122095760405162461bcd60e51b815260040161034a90615d6c565b600784111561222a5760405162461bcd60e51b815260040161034a90615deb565b6276a70083061561223d575060006108ac565b600061224883610879565b905060015b85811161228157612267612260826107d0565b839061089a565b851415612279576001925050506108ac565b60010161224d565b50600095945050505050565b6000806122986129a8565b6001600160a01b03861660009081526020918252604080822087835283528082208683529092522054600f90810b900b9150509392505050565b60008060006122e686602001518686613301565b9150915060006122f58761207b565b90508161231557865161230e9061ffff16878388613390565b9350610b0d565b600061232086610879565b90506000612330612260866107d0565b905060006123488a6000015161ffff1683868b613390565b905060008087600114156123665750506040808b0151015188612395565b61237c61237560018a036107d0565b869061089a565b90506123928c6000015161ffff1682888d613390565b91505b6123a2818584868f611524565b9c9b505050505050505050505050565b6000846123c1575060006123fd565b60006123cd85856120fb565b905060006123db828561342f565b9050633b9aca008113156123ee57600080fd5b6123f8878261349c565b925050505b949350505050565b808203828113156000831215146107ca57600080fd5b60006001831015801561243057506101008311155b61243957600080fd5b81156124525750600160ff1b60001983011c83176108ac565b50600160ff1b60001983011c1983166108ac565b81516000906108ac906108c8846ec097ce7bc90715b34b9f1000000000611330565b6000806107ca6004612cad565b6060806000808467ffffffffffffffff811180156124b257600080fd5b506040519080825280602002602001820160405280156124dc578160200160208202803683370190505b50905060008567ffffffffffffffff811180156124f857600080fd5b50604051908082528060200260200182016040528015612522578160200160208202803683370190505b50905060005b868110156125cc578784600e811061253c57fe5b600891828204019190066004029054906101000a900463ffffffff1663ffffffff1683828151811061256a57fe5b60209081029190910101526001909301928784600e811061258757fe5b600891828204019190066004029054906101000a900463ffffffff1663ffffffff168282815181106125b557fe5b602090810291909101015260019384019301612528565b509093509150505b9250929050565b6000806107ca6005612cad565b6000806107ca601c612cad565b6000806107ca601b612cad565b61260a615a7d565b6000612615846134b5565b61ffff86166000908152602085905260408120919250906004861061263b57600161263e565b60005b60ff166002811061264b57fe5b015490506112bd82826134ee565b6000805b865181101561276857600087828151811061267457fe5b6020026020010151905084816040015114158061269d57508661ffff16816000015161ffff1614155b806126ac575085816020015114155b156126b75750612760565b60028160a0015160038111156126c957fe5b141580156126e7575060038160a0015160038111156126e457fe5b14155b6126f057600080fd5b60608101516000906127029086611f86565b905061270d86612775565b1561272057600081121561272057600080fd5b6001600160571b0319811280159061273f57506001600160571b038113155b61274857600080fd5b6060820152600160a090910181905291506106639050565b60010161265d565b5060009695505050505050565b6000600282108015906107ca5750506008101590565b6060600082516000146127a25782516002026127a5565b60015b905060008167ffffffffffffffff811180156127c057600080fd5b506040519080825280602002602001820160405280156127fa57816020015b6127e7615b16565b8152602001906001900390816127df5790505b50905060005b845181101561283c5784818151811061281557fe5b602002602001015182828151811061282957fe5b6020908102919091010152600101612800565b509392505050565b6000806107ca600a612cad565b6000851215801561286957506001600160501b038513155b61287257600080fd5b6000841215801561288a57506001600160501b038413155b61289357600080fd5b8260001080156128a7575063ffffffff8311155b6128b057600080fd5b8160001080156128c4575063ffffffff8211155b6128cd57600080fd5b63ffffffff8111156128de57600080fd5b85546001600160501b0319166001600160501b039586161769ffffffffffffffffffff60501b1916600160501b94909516939093029390931763ffffffff60a01b1916600160a01b63ffffffff928316021763ffffffff60c01b1916600160c01b93821693909302929092176001600160e01b0316600160e01b9190921602179055565b6000811215801561297a57506001600160501b038113155b61298357600080fd5b60019190910180546001600160501b0319166001600160501b03909216919091179055565b6000806107ca600c612cad565b60008060006129c385610f89565b9050620151808406156129dd5760008092509250506125d4565b8381106129f15760008092509250506125d4565b6201518081850304605a8111612a0e579250600191506125d49050565b6101688111612a4d576000620151806207e900840604820160591901905060068104605a0160068281612a3d57fe5b06600014945094505050506125d4565b6108708111612a7d5760006201518062278d00840604820161016719019050601e8104608701601e8281612a3d57fe5b611de28111612aad576000620151806276a700840604820161086f19019050605a810460c301605a8281612a3d57fe5b5061010095600095509350505050565b600060018210158015612ad257506101008211155b612adb57600080fd5b50600019011b600160ff1b9081161490565b600060016001607f1b03198212801590612b0e575060016001607f1b038213155b610bc157600080fd5b6000612b23838361360d565b905080612b305750610113565b6000612b3a613694565b61ffff87166000908152602082815260408083208984529091528120549192506001600160501b03909116810390612b728285612405565b90506000811315612b8257600080fd5b612b9b612b96612b91836115e9565b610bb2565b6136a1565b61ffff89166000908152602085815260408083208b8452909152902080546001600160501b0319166001600160501b0392909216919091179055612be1898989876136b7565b505050505050505050565b6014612bf782613741565b1115612c155760405162461bcd60e51b815260040161034a90615dc2565b6000612c1f61325b565b6001600160a01b039094166000908152602094855260408082209482529390945250912055565b6000808260400151118015612c6057506040820151600810155b612c6957600080fd5b6040820151600210612c8057506020810151610874565b6000612c9260018460400151036107d0565b60208401519091506108ac906276a7009061022090846120fb565b6000620f4240826026811115612cbf57fe5b0192915050565b6000806107ca6006612cad565b60006001600160571b03198212801590612b0e57506001600160571b03821315610bc157600080fd5b6000806107ca6003612cad565b6000806107ca6011612cad565b606061283c8383613811565b612d2a615b5a565b6000612d3584613832565b90508281600001511015612d7457600080612d4f866138fa565b9050612d5d86848388613977565b9093509150612d6d868385613a1b565b5050612d81565b80518314612d8157600080fd5b6040518060600160405280612daf612daa8460a001518560c001516114de90919063ffffffff16565b613c4c565b8152602001612dd2612daa8460a001518560e001516114de90919063ffffffff16565b8152602001826060015181525091505092915050565b600080612df3613c62565b60009384526020525050604090205490565b612e13848484600185613118565b50505050565b60008082612e2c575060009050806125d4565b60008313612e3957600080fd5b612e5884608001516108c885876060015161133090919063ffffffff16565b9150612e7984608001516108c885876040015161133090919063ffffffff16565b6080850151909150612e8b9084611245565b60808501526040840151612e9f9082611245565b60408501526060840151612eb39083611245565b60608501526125d484613c6f565b600080612ecf868685613cc7565b90506000612ede898387613cf0565b90935090506001600160a01b0388161561205b5761205b8888888885613d58565b600080612f0a6129a8565b6001600160a01b03881660009081526020828152604080832061ffff8b1684528252808320898452909152902054909150600f90810b900b612f5084898989858a612ec1565b6001600160a01b0390981660009081526020928352604080822061ffff90991682529783528781209681529590915250505091902080546001600160801b03191690555090565b600080821215612fd057612fcb6001612fc585602001516108c887600001518761133090919063ffffffff16565b90612405565b6108ac565b50919050565b6000612fe0613e4a565b61ffff8516600090815260209190915260409020805490915064ffffffffff16421461300b57600080fd5b8054600160f81b900460ff1661302057600080fd5b600181015460009061303b906001600160581b031685611f86565b825490915060009061305d90600160281b90046001600160581b031685611f86565b9050816009191280156130705750600082125b1561307a57600091505b8060091912801561308b5750600081125b15613094575060005b6130a56130a083610bb2565b613e57565b6001840180546affffffffffffffffffffff19166001600160581b03929092169190911790556130d76130a082610bb2565b83546001600160581b0391909116600160281b026fffffffffffffffffffffff00000000001990911617835561310f87878688613e6d565b61110183613f81565b6000613122612844565b6000868152602082815260408083208884528252808320868452825291829020808a5290890187905280546001600160501b03808216938b0193909352600160501b810490921660608a015263ffffffff600160a01b8304811660a08b0152600160c01b8304811660c08b0152600160e01b90920490911660e08901529091508084156131c15760018201546001600160501b031660808901526131c9565b600060808901525b5050505050505050565b60008083116131e157600080fd5b818611156131f0575083610663565b60006131fc83886120fb565b90508381111561320f5785915050610663565b600061321b8286614046565b9050600061322d633b9aca00836120fb565b905061324e633b9aca0061098b6132448a856114de565b6102208c876114de565b9998505050505050505050565b6000806107ca600b612cad565b60008161327457600080fd5b600160801b821061328757608091821c91015b600160401b821061329a57604091821c91015b64010000000082106132ae57602091821c91015b6201000082106132c057601091821c91015b61010082106132d157600891821c91015b601082106132e157600491821c91015b600482106132f157600291821c91015b6002821061087457600101919050565b6000806000851161331157600080fd5b600785111561331f57600080fd5b600061332a84610879565b905060015b86811161338257600061334b613344836107d0565b849061089a565b90508681141561336357509250600091506133889050565b8681111561337957509250600191506133889050565b5060010161332f565b50600080fd5b935093915050565b60008061339b612844565b905060006276a7006133ac85610879565b6000898152602085815260408083208b84528252808320949093018083529390522080549192509063ffffffff600160a01b8204811691600160c01b8104821691600160e01b90910416816134135760405162461bcd60e51b815260040161034a90615d0e565b6134208184848c8c6131d3565b9b9a5050505050505050505050565b60008061344c6134476301da9c0061098b86886114de565b61405f565b905061345e81621dcd6560491b61407d565b905061347161346c826140d0565b6140f2565b905061348381621dcd6560491b614147565b905060006134908261417d565b60070b95945050505050565b60006108ac6134ab8484611330565b633b9aca0061137e565b6000816000106134c457600080fd5b60078211156134d257600080fd5b600482106134e357600482036134e5565b815b60080292915050565b6134f6615a7d565b6064633b9aca008360ff86166020811061350c57fe5b1a028161351557fe5b0481526064633b9aca008360ff86166001016020811061353157fe5b1a028161353a57fe5b0481602001818152505061355f8260028560ff16016020811061355957fe5b1a614186565b60808201819052610100908360ff86166003016020811061357c57fe5b1a028161358557fe5b0460408201526080810151610100908360ff8616600401602081106135a657fe5b1a02816135af57fe5b0460608201526207a1208260ff8516600501602081106135cb57fe5b1a0260a0820152622625a08260ff8516600601602081106135e857fe5b1a0260c08201528160ff84166007016020811061360157fe5b1a60e082015292915050565b60008183148061362a57506000831215801561362a575060008212155b15613637575060006107ca565b600083131580156136485750816000125b156136545750816107ca565b600082131580156136655750826000125b1561367357610991826115e9565b60008313158015613685575060008213155b1561004b576109918383612405565b6000806107ca6020612cad565b60006001600160501b03821115610bc157600080fd5b6000806136c58585856141ba565b9150915060008060008512156136dd578791506136e0565b50865b806001600160a01b0316826001600160a01b0316336001600160a01b03167f4a39dc06d4c0dbc64b70af90fd698a233a518aa5d07e595d983b8c0526c8f7fb878760405161372f929190615cdb565b60405180910390a45050505050505050565b600181901c7f5555555555555555555555555555555555555555555555555555555555555555908116911601600281901c7f3333333333333333333333333333333333333333333333333333333333333333908116911601600481901c7f07070707070707070707070707070707070707070707070707070707070707079190911601600881901c7e0f000f000f000f000f000f000f000f000f000f000f000f000f000f000f000f908116911601601081901c01602081901c01604081901c01608081901c60ff90811691160190565b60608061381e848461429f565b9150613829826143b7565b90509250929050565b61383a615b7b565b6000613844613e4a565b61ffff93841660009081526020918252604090819020805464ffffffffff81168652600160281b81046001600160581b03908116948701949094526001820154841692860192909252600160d81b820463ffffffff166060860152600160801b9091049091166080840152600201546001600160501b0380821660a0850152600160501b8204811660c0850152600160a01b82041660e0840152600160f01b900460ff1661012c02909216610100820152919050565b60008061390683614578565b6001600160a01b031663ef81f2166040518163ffffffff1660e01b81526004016040805180830381600087803b15801561393f57600080fd5b505af1158015613953573d6000803e3d6000fd5b505050506040513d601f19601f820116820180604052508101906123fd9190615c2d565b61397f615b7b565b600080600061398f8886896145a8565b60c08b019290925260e08a0192909252602089015191935091506139b3908361089a565b60208801526080870151600090156139e15760808801516139de906139d889826120fb565b906146b3565b90505b613a016139f6670de0b6b3a76400008361089a565b60a08a0151906146ca565b60a089015250506080860194909452505082529092909150565b6000613a25613e4a565b60008561ffff1681526020019081526020016000209050613a498260000151612067565b815464ffffffffff191664ffffffffff9190911617815560a0820151613a6e906136a1565b6002820180546001600160501b0319166001600160501b039290921691909117905560c0820151613a9e906136a1565b81600201600a6101000a8154816001600160501b0302191690836001600160501b03160217905550613ad38260e001516136a1565b8160020160146101000a8154816001600160501b0302191690836001600160501b03160217905550613b088260200151613e57565b81546001600160581b0391909116600160281b026fffffffffffffffffffffff0000000000199091161781556040820151613b4290613e57565b6001820180546affffffffffffffffffffff19166001600160581b03929092169190911790556080820151613b7690613e57565b81546001600160581b0391909116600160801b026affffffffffffffffffffff60801b199091161781556060820151613bae906146e7565b815463ffffffff91909116600160d81b0263ffffffff60d81b199091161781558215613bfa576000613bdf84613c4c565b9050613beb85826146fa565b613bf8610fee8683614731565b505b8361ffff167fef25641e225e493886510ca1ad6584fa7b442b9fea820a29d1de3ce27d270fd28360a001518460c001518560e00151604051613c3e93929190615e8c565b60405180910390a250505050565b60006001600160ff1b03821115610bc157600080fd5b6000806107ca6009612cad565b6000613c7a826147b1565b905060008160000160189054906101000a900463ffffffff169050613cb982846040015185606001518660a001518563ffffffff168860e00151612851565b610e56828460800151612962565b613ccf615b5a565b6000613cdb85856147b5565b90925090508061283c57610663858585614848565b600080613cfd8484612466565b9150613d098483612f97565b9050600082121561338857613d4e6001612fc587600001516108c88960200151613d488a602001516108c88c600001518b61133090919063ffffffff16565b90611330565b9150935093915050565b6000613d6485856149e1565b90506000831215613d7657600160401b175b60006001600160a01b038716337fc3d58168c5ae7397731d063d5bbf3d657854427343f4c083240f7aacaa2d0f6284613dae886149ff565b604051613dbc929190615d00565b60405180910390a46000613dd36000841287614a20565b9050806001600160a01b03166323de66516105e789613df1876149ff565b6040518463ffffffff1660e01b8152600401613e0f93929190615c9e565b600060405180830381600087803b158015613e2957600080fd5b505af1158015613e3d573d6000803e3d6000fd5b5050505050505050505050565b6000806107ca601d612cad565b60006001600160581b03821115610bc157600080fd5b6000613e77614a80565b61ffff8516600090815260209190915260408120546001600160a01b03169150613e9f614a8d565b61ffff8616600090815260209190915260409081902054905163ad1c095d60e01b81526001600160a01b039091169150819063ad1c095d90613ee79089908790600401615cc2565b600060405180830381600087803b158015613f0157600080fd5b505af1158015613f15573d6000803e3d6000fd5b505060405163ad1c095d60e01b81526001600160a01b038516925063ad1c095d9150613f479089908890600401615cc2565b600060405180830381600087803b158015613f6157600080fd5b505af1158015613f75573d6000803e3d6000fd5b50505050505050505050565b80546002820154600091613fbd91600160281b9091046001600160581b031690613d48906001600160501b03600160501b820481169116611330565b60018301546002840154919250600091613ff7916001600160581b031690613d48906001600160501b03600160a01b820481169116611330565b835490915060009061402e9060016001600160581b03600160801b909204821601166ec097ce7bc90715b34b9f1000000000611330565b90508061403b8484612405565b1315612e1357600080fd5b60006108ac61405984633b9aca006114de565b83611505565b6000677fffffffffffffff82111561407657600080fd5b5060401b90565b600081600f0b6000141561409057600080fd5b600082600f0b604085600f0b901b816140a557fe5b05905060016001607f1b031981128015906140c7575060016001607f1b038113155b6108ac57600080fd5b6000600f82900b60016001607f1b031914156140eb57600080fd5b5060000390565b6000600160461b82600f0b1261410757600080fd5b683fffffffffffffffff1982600f0b121561412457506000610874565b6107ca608083600f0b700171547652b82fe1777d0ffda0d23a7d1202901d614a9a565b6000600f83810b9083900b0260401d60016001607f1b031981128015906140c7575060016001607f1b038113156108ac57600080fd5b600f0b60401d90565b60008160ff166096106141a15760ff8216622625a0026107ca565b5060951960ff919091160162e4e1c00263165a0bc00190565b6040805160028082526060828101909352829160009181602001602082028036833701905050905060006141ee87876149e1565b905080826000815181106141fe57fe5b602002602001018181525050600160401b81178260018151811061421e57fe5b602090810291909101015260408051600280825260608201909252600091816020016020820280368337019050509050614257866149ff565b8160008151811061426457fe5b602002602001018181525050614279866149ff565b8160018151811061428657fe5b6020908102919091010152919791965090945050505050565b606060088260ff1611156142b257600080fd5b60006142bc611a40565b6001600160a01b038516600090815260208290526040812091925060ff851667ffffffffffffffff811180156142f157600080fd5b5060405190808252806020026020018201604052801561432b57816020015b614318615b16565b8152602001906001900390816143105790505b50905060005b8560ff1681101561066157600083826008811061434a57fe5b019050600083838151811061435b57fe5b602090810291909101810151835461ffff8116825264ffffffffff620100008204169282019290925260ff600160381b8304166040820152600160401b909104600a90810b900b60608201526080019190915250600101614331565b80516060908067ffffffffffffffff811180156143d357600080fd5b506040519080825280602002602001820160405280156143fd578160200160208202803683370190505b50915060005b8181101561445a57600084828151811061441957fe5b6020026020010151905061443a81600001518260200151836040015161554a565b84838151811061444657fe5b602090810291909101015250600101614403565b5060015b8181101561457157805b6000811180156144a0575083818151811061447f57fe5b602002602001015184600183038151811061449657fe5b6020026020010151115b15614568578381815181106144b157fe5b60200260200101518460018303815181106144c857fe5b60200260200101518560018403815181106144df57fe5b602002602001018684815181106144f257fe5b602002602001018281525082815250505084818151811061450f57fe5b602002602001015185600183038151811061452657fe5b602002602001015186600184038151811061453d57fe5b6020026020010187848151811061455057fe5b60209081029190910101919091525260001901614468565b5060010161445e565b5050919050565b600080614583615573565b61ffff939093166000908152602093909352505060409020546001600160a01b031690565b6000806000806000806145bb8988615580565b895190955091935091506000906145e2906145d7908b906120fb565b633b9aca00906114de565b905061461c6146116301da9c006145f985856114de565b8161460057fe5b670de0b6b3a764000091900461089a565b60e08a0151906146ca565b965061463e6146336301da9c006145f987856114de565b60c08a0151906146ca565b9550818314156146555750600093506146aa915050565b600061467761466c6301da9c006145f987866114de565b60e08b0151906146ca565b9050600061468589836120fb565b90506146a28861098b838d604001516114de90919063ffffffff16565b965050505050505b93509350935093565b60006108ac61405984670de0b6b3a76400006114de565b60006108ac6146d984846114de565b670de0b6b3a7640000611505565b600063ffffffff821115610bc157600080fd5b600081121561470857600080fd5b6000614716610fee84611c51565b90506147228183611f86565b9050610e56610fee8483611a4d565b600061473b614a80565b61ffff8416600090815260209190915260409081902054905163ad1c095d60e01b81526001600160a01b039091169150819063ad1c095d906147839087908690600401615cc2565b600060405180830381600087803b15801561479d57600080fd5b505af11580156131c9573d6000803e3d6000fd5b5190565b6147bd615b5a565b6000806147c861561b565b61ffff861660009081526020828152604080832088845290915290208054600160f01b900460ff169350909150821561483f5780546001600160501b03600160a01b820481169161481a9116826114de565b8552815461483890600160501b90046001600160501b0316826114de565b6020860152505b50509250929050565b614850615b5a565b61485a8483612d22565b9050600061486785613832565b9050600061487361561b565b61ffff871660009081526020828152604080832089845290915290209091508561489c57600080fd5b825185146148a957600080fd5b846000106148b657600080fd5b848611156148c357600080fd5b83516000126148d157600080fd5b83602001516000126148e257600080fd5b6148ef8360a001516136a1565b81546001600160501b0391909116600160a01b0269ffffffffffffffffffff60a01b1990911617815560c0830151614926906136a1565b81546001600160501b0319166001600160501b039190911617815560e083015161494f906136a1565b815460ff60f01b196001600160501b0392909216600160501b0269ffffffffffffffffffff60501b199091161716600160f01b178155614990878786615628565b858761ffff167f29fd83c1093c9721d6046038c76b6bddf0dc0c5dac3ecbfa23f8eb994ec61613866000015187602001516040516149cf929190615d00565b60405180910390a35050509392505050565b67ffff000000000000603083901b16600882901b1760011792915050565b600080821215614a1957614a12826115e9565b9050610874565b5080610874565b600082614a5257614a2f614a80565b61ffff8316600090815260209190915260409020546001600160a01b03166108ac565b614a5a614a8d565b61ffff8316600090815260209190915260409020546001600160a01b0316905092915050565b6000806107ca6021612cad565b6000806107ca6022612cad565b6000600160461b82600f0b12614aaf57600080fd5b683fffffffffffffffff1982600f0b1215614acc57506000610874565b6001607f1b60006780000000000000008416600f0b1315614afe5770016a09e667f3bcc908b2fb1366ea957d3e0260801c5b60008367400000000000000016600f0b1315614b2b577001306fe0a31b7152de8d5a46305c85edec0260801c5b60008367200000000000000016600f0b1315614b58577001172b83c7d517adcdf7c8c50eb14a791f0260801c5b60008367100000000000000016600f0b1315614b855770010b5586cf9890f6298b92b71842a983630260801c5b60008367080000000000000016600f0b1315614bb2577001059b0d31585743ae7c548eb68ca417fd0260801c5b60008367040000000000000016600f0b1315614bdf57700102c9a3e778060ee6f7caca4f7a29bde80260801c5b60008367020000000000000016600f0b1315614c0c5770010163da9fb33356d84a66ae336dcdfa3f0260801c5b600083600160381b16600f0b1315614c3557700100b1afa5abcbed6129ab13ec11dc95430260801c5b600083668000000000000016600f0b1315614c615770010058c86da1c09ea1ff19d294cf2f679b0260801c5b600083664000000000000016600f0b1315614c8d577001002c605e2e8cec506d21bfc89a23a00f0260801c5b600083662000000000000016600f0b1315614cb957700100162f3904051fa128bca9c55c31e5df0260801c5b600083661000000000000016600f0b1315614ce5577001000b175effdc76ba38e31671ca9397250260801c5b600083660800000000000016600f0b1315614d1157700100058ba01fb9f96d6cacd4b180917c3d0260801c5b600083660400000000000016600f0b1315614d3d5770010002c5cc37da9491d0985c348c68e7b30260801c5b600083660200000000000016600f0b1315614d69577001000162e525ee054754457d59952920260260801c5b600083600160301b16600f0b1315614d925770010000b17255775c040618bf4a4ade83fc0260801c5b6000836580000000000016600f0b1315614dbd577001000058b91b5bc9ae2eed81e9b7d4cfab0260801c5b6000836540000000000016600f0b1315614de857700100002c5c89d5ec6ca4d7c8acc017b7c90260801c5b6000836520000000000016600f0b1315614e135770010000162e43f4f831060e02d839a9d16d0260801c5b6000836510000000000016600f0b1315614e3e57700100000b1721bcfc99d9f890ea069117630260801c5b6000836508000000000016600f0b1315614e695770010000058b90cf1e6d97f9ca14dbcc16280260801c5b6000836504000000000016600f0b1315614e94577001000002c5c863b73f016468f6bac5ca2b0260801c5b6000836502000000000016600f0b1315614ebf57700100000162e430e5a18f6119e3c02282a50260801c5b600083600160281b16600f0b1315614ee8577001000000b1721835514b86e6d96efd1bfe0260801c5b60008364800000000016600f0b1315614f1257700100000058b90c0b48c6be5df846c5b2ef0260801c5b60008364400000000016600f0b1315614f3c5770010000002c5c8601cc6b9e94213c72737a0260801c5b60008364200000000016600f0b1315614f66577001000000162e42fff037df38aa2b219f060260801c5b60008364100000000016600f0b1315614f905770010000000b17217fba9c739aa5819f44f90260801c5b60008364080000000016600f0b1315614fba577001000000058b90bfcdee5acd3c1cedc8230260801c5b60008364040000000016600f0b1315614fe457700100000002c5c85fe31f35a6a30da1be500260801c5b60008364020000000016600f0b131561500e5770010000000162e42ff0999ce3541b9fffcf0260801c5b60008364010000000016600f0b131561503857700100000000b17217f80f4ef5aadda455540260801c5b600083638000000016600f0b13156150615770010000000058b90bfbf8479bd5a81b51ad0260801c5b600083634000000016600f0b131561508a577001000000002c5c85fdf84bd62ae30a74cc0260801c5b600083632000000016600f0b13156150b357700100000000162e42fefb2fed257559bdaa0260801c5b600083631000000016600f0b13156150dc577001000000000b17217f7d5a7716bba4a9ae0260801c5b600083630800000016600f0b131561510557700100000000058b90bfbe9ddbac5e109cce0260801c5b600083630400000016600f0b131561512e5770010000000002c5c85fdf4b15de6f17eb0d0260801c5b600083630200000016600f0b1315615157577001000000000162e42fefa494f1478fde050260801c5b600083630100000016600f0b13156151805770010000000000b17217f7d20cf927c8e94c0260801c5b6000836280000016600f0b13156151a8577001000000000058b90bfbe8f71cb4e4b33d0260801c5b6000836240000016600f0b13156151d057700100000000002c5c85fdf477b662b269450260801c5b6000836220000016600f0b13156151f85770010000000000162e42fefa3ae53369388c0260801c5b6000836210000016600f0b131561522057700100000000000b17217f7d1d351a389d400260801c5b6000836208000016600f0b13156152485770010000000000058b90bfbe8e8b2d3d4ede0260801c5b6000836204000016600f0b1315615270577001000000000002c5c85fdf4741bea6e77e0260801c5b6000836202000016600f0b131561529857700100000000000162e42fefa39fe95583c20260801c5b6000836201000016600f0b13156152c0577001000000000000b17217f7d1cfb72b45e10260801c5b60008361800016600f0b13156152e757700100000000000058b90bfbe8e7cc35c3f00260801c5b60008361400016600f0b131561530e5770010000000000002c5c85fdf473e242ea380260801c5b60008361200016600f0b1315615335577001000000000000162e42fefa39f02b772c0260801c5b60008361100016600f0b131561535c5770010000000000000b17217f7d1cf7d83c1a0260801c5b60008361080016600f0b1315615383577001000000000000058b90bfbe8e7bdcbe2e0260801c5b60008361040016600f0b13156153aa57700100000000000002c5c85fdf473dea871f0260801c5b60008361020016600f0b13156153d15770010000000000000162e42fefa39ef44d910260801c5b60008361010016600f0b13156153f857700100000000000000b17217f7d1cf79e9490260801c5b600083608016600f0b131561541e5770010000000000000058b90bfbe8e7bce5440260801c5b600083604016600f0b1315615444577001000000000000002c5c85fdf473de6eca0260801c5b600083602016600f0b131561546a57700100000000000000162e42fefa39ef366f0260801c5b600083601016600f0b1315615490577001000000000000000b17217f7d1cf79afa0260801c5b600083600816600f0b13156154b657700100000000000000058b90bfbe8e7bcd6d0260801c5b600083600416600f0b13156154dc5770010000000000000002c5c85fdf473de6b20260801c5b600083600216600f0b1315615502577001000000000000000162e42fefa39ef3580260801c5b600083600116600f0b13156155285770010000000000000000b17217f7d1cf79ab0260801c5b600f83810b60401d603f03900b1c60016001607f1b038111156107ca57600080fd5b67ffff000000000000603084901b1665ffffffffff00600884901b161760ff8216179392505050565b6000806107ca601f612cad565b6000806000806000856020015111156155cd576155ca6155b18660c0015187602001516114de90919063ffffffff16565b60e087015160408801516155c4916114de565b90614046565b90505b60006155d887615780565b90506155e48183610949565b945081156155fb576155f8818660016157b3565b93505b6020860151156156125761560f858361582b565b92505b50509250925092565b6000806107ca601e612cad565b6000615632613694565b61ffff851660009081526020828152604080832087845290915281208054929350916001600160501b03169003615667615a0d565b6156778161ffff89168880612e05565b6080810151156156995760405162461bcd60e51b815260040161034a90615e1b565b60006156ad866156a8856115e9565b612466565b905060006156c36156be8886615844565b6115e9565b90506156d36105e78a8385612fd6565b84546001600160501b03600160501b82048116600090810392600160a01b9004909116908212806157045750806000125b156157485760006157158a84612466565b905060006157238383611f86565b90508060001215615738576157388d826146fa565b6157458d8d8685856158a0565b50505b50505061ffff909716600090815260209485526040808220978252969094525050509190912080546001600160f01b03191690555050565b615788615a7d565b60006157926125f5565b61ffff84166000908152602091909152604081205491506108ac90826134ee565b6000806157d2606461098b8760e00151876114de90919063ffffffff16565b90508460a001518110156157e7575060a08401515b8460c001518111156157fa575060c08401515b82156158115761580a848261089a565b915061283c565b83811161582057808403610663565b506000949350505050565b60006108ac61583a84846114de565b633b9aca00611505565b6000816000131580156158575750600a82125b15615864575060006107ca565b6000821261587157600080fd5b6108ac6001612fc585602001516108c86ec097ce7bc90715b34b9f10000000008761133090919063ffffffff16565b6000600160401b6158b187876149e1565b17905060006105e7337fc3d58168c5ae7397731d063d5bbf3d657854427343f4c083240f7aacaa2d0f62846158e5896149ff565b6040516158f3929190615d00565b60405180910390a46159086105e78785614731565b6000821315615921576159216105e7610fee8885615929565b505050505050565b6000615933614a80565b61ffff8416600090815260209190915260408120546001600160a01b0316915082121561595e579293925b806001600160a01b03166323de66518686615978866149ff565b6040518463ffffffff1660e01b815260040161599693929190615c9e565b600060405180830381600087803b1580156159b057600080fd5b505af1158015612be1573d6000803e3d6000fd5b6040518060e001604052806159d7615ac2565b81526020016159e4615aee565b815260006020820181905260408201819052606082018190526080820181905260a09091015290565b60405180610100016040528060008019168152602001600081526020016000815260200160008152602001600081526020016000815260200160008152602001600081525090565b6040518060800160405280606081526020016060815260200160608152602001606081525090565b60405180610100016040528060008152602001600081526020016000815260200160008152602001600081526020016000815260200160008152602001600081525090565b6040805160808101825260008082526020820152908101615ae1615b5a565b8152600060209091015290565b6040518060800160405280606081526020016060815260200160008152602001600081525090565b6040518060c00160405280600061ffff1681526020016000815260200160008152602001600081526020016000815260200160006003811115615b5557fe5b905290565b60405180606001604052806000815260200160008152602001600081525090565b6040518061012001604052806000815260200160008152602001600081526020016000815260200160008152602001600081526020016000815260200160008152602001600081525090565b803561ffff8116811461087457600080fd5b600060208284031215615bea578081fd5b6108ac82615bc7565b60008060408385031215615c05578081fd5b615c0e83615bc7565b915060208301358015158114615c22578182fd5b809150509250929050565b60008060408385031215615c3f578182fd5b505080516020909101519092909150565b6000815180845260208085019450808401835b83811015615c7f57815187529582019590820190600101615c63565b509495945050505050565b6001600160a01b0391909116815260200190565b6001600160a01b039384168152919092166020820152604081019190915260600190565b6001600160a01b03929092168252602082015260400190565b600060408252615cee6040830185615c50565b82810360208401526106638185615c50565b918252602082015260400190565b60208082526016908201527513585c9ad95d081b9bdd081a5b9a5d1a585b1a5e995960521b604082015260600190565b6020808252601490820152734f7261636c652072617465206f766572666c6f7760601b604082015260600190565b60208082526015908201527410d1ce881b9bc81b585c9ad95d1cc81b1a5cdd1959605a1b604082015260600190565b6020808252600d908201526c092dcecc2d8d2c840d2dcc8caf609b1b604082015260600190565b6020808252600f908201526e4f766572206d61782061737365747360881b604082015260600190565b60208082526016908201527510d1ce881b585c9ad95d081a5b99195e08189bdd5b9960521b604082015260600190565b6020808252601190820152704d75737420696e6974206d61726b65747360781b604082015260600190565b60208082526017908201527f494d3a20696d706c6965642072617465206661696c6564000000000000000000604082015260600190565b61ffff91909116815260200190565b928352602083019190915260408201526060019056fea2646970667358221220a7e0f1860dcc4af59ac160d06cc62c0b91ec971da03e214a551f455eb3eae94b64736f6c63430007060033","bytecodeSha1":"df9305ae6b4483e1217ed4e1c81a4801d86b76ba","compiler":{"evm_version":"istanbul","optimizer":{"enabled":true,"runs":200},"version":"0.7.6+commit.7338295f"},"contractName":"InitializeMarketsAction","deployedBytecode":"730000000000000000000000000000000000000000301460806040526004361061004b5760003560e01c8063bb6dd58e14610050578063c4c96dae14610072578063d0e064c014610090575b600080fd5b81801561005c57600080fd5b5061007061006b366004615bd9565b6100b0565b005b61007a61011a565b6040516100879190615c8a565b60405180910390f35b81801561009c57600080fd5b506100706100ab366004615bf3565b610132565b604051635db6eac760e11b815273__$892f367d396be2b92d3b049e6e62920984$__9063bb6dd58e906100e7908490600401615e7d565b60006040518083038186803b1580156100ff57600080fd5b505af4158015610113573d6000803e3d6000fd5b5050505050565b73__$892f367d396be2b92d3b049e6e62920984$__90565b4261013b6159c4565b61014581856105d7565b80516020015160009067ffffffffffffffff8111801561016457600080fd5b5060405190808252806020026020018201604052801561019e57816020015b61018b615a0d565b8152602001906001900390816101835790505b508251602001519091506101b157600080fd5b83156101c85760208201515151156101c857600080fd5b60006101d783838689896105f0565b905060006101ed8785600001516020015161066c565b90506101f7615a0d565b6000805b86516020015181101561054b57610226610217826001016107d0565b6102208a610879565b9061089a565b602084015283518051600091610259918891908590811061024357fe5b602002602001015184600260ff1601878c6108b3565b905089806102735750816001148015610273575086516002145b806102845750602088015151518210155b806102b257508160011480156102b25750866002815181106102a257fe5b602002602001015160c001516000145b156103595760006102da82876040015185815181106102cd57fe5b6020026020010151610914565b905080856040018181525050610327866040015184815181106102f957fe5b60200260200101518760600151858151811061031157fe5b602002602001015161094990919063ffffffff16565b60c086018190526103535760405162461bcd60e51b815260040161034a90615e46565b60405180910390fd5b5061052d565b8161037e578660018151811061036b57fe5b602002602001015160c00151925061045f565b81600114156103e257610399876103948b610879565b610a09565b9250846060015182815181106103ab57fe5b6020026020010151604001518310156103dd57846060015182815181106103ce57fe5b60200260200101516040015192505b61045f565b60006103f96103f0846107d0565b6102208c610879565b905061041981858a868151811061040c57fe5b6020026020010151610a8f565b93508560600151838151811061042b57fe5b60200260200101516040015184101561045d578560600151838151811061044e57fe5b60200260200101516040015193505b505b600061048b848760600151858151811061047557fe5b6020026020010151610b1790919063ffffffff16565b90506104ad866020015184815181106104a057fe5b6020026020010151610bb2565b8111156104fc576104c7866020015184815181106104a057fe5b90506104dd818760600151858151811061031157fe5b9350836104fc5760405162461bcd60e51b815260040161034a90615d3e565b6105068282610914565b604086018190526001131561051d57600160408601525b5060c0840183905260e084018990525b60c084015160a0850152610542848c8a610bc5565b506001016101fb565b5060006105698760c001518860200151610c0b90919063ffffffff16565b50925050506105818760c001518b8960600151610e4b565b6105948760c00151828960800151610e5b565b7fcffeff9accc9171f01fec36e09a1a06f0160ce50a8c4c0a2adff9cec562adf088a6040516105c39190615e7d565b60405180910390a150505050505050505050565b6105e18282610ece565b6105ea81610f6a565b90915250565b60008082156106135761060285610f89565b64ffffffffff16608088015261063b565b61061d8786610fa5565b61062d8461ffff1686898961107a565b61063887878761110a565b90505b606087015161064a9082611245565b6060880182905291506103e8821361066157600080fd5b505b95945050505050565b610674615a55565b61067c615a55565b61068a8461ffff1684611261565b6020830152815260006106a161ffff861685611296565b9050805167ffffffffffffffff811180156106bb57600080fd5b506040519080825280602002602001820160405280156106e5578160200160208202803683370190505b50604083015260005b8151811015610729576107068282815181106104a057fe5b8360400151828151811061071657fe5b60209081029190910101526001016106ee565b50610733856112c7565b8367ffffffffffffffff8111801561074a57600080fd5b5060405190808252806020026020018201604052801561078457816020015b610771615a7d565b8152602001906001900390816107695790505b50606083015260015b8481116107c45761079e8682611316565b836060015160018303815181106107b157fe5b602090810291909101015260010161078d565b50909150505b92915050565b600081600114156107e557506276a700610874565b81600214156107f8575062ed4e00610874565b816003141561080c57506301da9c00610874565b816004141561082057506303b53800610874565b816005141561083457506309450c00610874565b8160061415610848575063128a1800610874565b816007141561085c57506325143000610874565b60405162461bcd60e51b815260040161034a90615d9b565b919050565b60006276a70082101561088b57600080fd5b6276a700825b06909103919050565b6000828201838110156108ac57600080fd5b9392505050565b6000806108ce6305f5e1006108c88989611330565b9061137e565b6060850181905260808501819052835151602080870151908601519293506108f992919088856113af565b82516040015161090990826114b2565b979650505050505050565b6000633b9aca00821061092657600080fd5b81633b9aca008190036109398583611330565b8161094057fe5b05949350505050565b60008083608001511161095b57600080fd5b633b9aca0082111561096c57600080fd5b825182116109985782516040840151610991919061098b9085906114de565b90611505565b90506107ca565b826020015182116109d05760408301518351602085015160608601516109919392610220928190039161098b918803908590036114de565b6108ac83606001516102208560200151633b9aca000361098b8760600151886080015103886020015188036114de90919063ffffffff16565b6000600383511015610a1a57600080fd5b6108ac83600181518110610a2a57fe5b60200260200101516020015184600281518110610a4357fe5b60200260200101516020015185600181518110610a5c57fe5b602002602001015160c0015186600281518110610a7557fe5b602090810291909101015160c0015162ed4e008701611524565b602081015160c0820151600091906276a7008201828710610aaf57600080fd5b858210610ad857610ace8661022089860361098b8387038c87036114de565b93505050506108ac565b6000610aee88850361098b858a038b86036114de565b9050808711610afe576001610b02565b8087035b9450505050506108ac565b5050509392505050565b600080836080015111610b2957600080fd5b82604001518211610b4b5760408301518351610991919061098b9085906114de565b82606001518211610b835782516040840151606085015160208601516109919392610220928190039161098b918803908590036114de565b6020830151606084015160808501516108ac9291610220918190039061098b908703633b9aca008590036114de565b600080821215610bc157600080fd5b5090565b60006276a700610bd442610879565b019050610be68461ffff851683611582565b6101138260c001518486602001518560800151610c0689604001516115e9565b6115f7565b6000808080808080805b895151811015610c9c5760008a600001518281518110610c3157fe5b60200260200101519050600380811115610c4757fe5b8160a001516003811115610c5757fe5b1415610c6257600080fd5b60028160a001516003811115610c7457fe5b14158015610c8457506060810151155b15610c9357610c938b83611753565b50600101610c15565b5060005b895151811015610d3f5760008a600001518281518110610cbc57fe5b6020026020010151905060026003811115610cd357fe5b8160a001516003811115610ce357fe5b1415610cf757608081015160009055610d36565b60018160a001516003811115610d0957fe5b1415610d2257608081015180610d1f83826118a3565b50505b610d2e818686866119d2565b919650945092505b50600101610ca0565b5060608901516000610d4f611a40565b6001600160a01b038b1660009081526020829052604081209192505b8c6020015151811015610e195760008d602001518281518110610d8a57fe5b60200260200101519050806060015160001415610da75750610e11565b60028160a001516003811115610db957fe5b14158015610dd7575060038160a001516003811115610dd457fe5b14155b610de057600080fd5b610dec818989896119d2565b91995097509550610e0981848760088110610e0357fe5b016118a3565b600185019450505b600101610d6b565b506010831115610e2857600080fd5b64ffffffffff841115610e3a57600080fd5b50939a929950975095509350505050565b610e56838383611a4d565b505050565b63ffffffff8110610e6b57600080fd5b6000610e75611ac1565b6001600160a01b039094166000908152602094909452506040909220805460ff909216600160501b0260ff60501b1963ffffffff909416600160301b0269ffffffff000000000000199093169290921792909216179055565b610edb8161ffff16611ace565b6001600160a01b031660c0830181905260009081908190610efb90611af4565b94509450945050506000610f128660c00151611b5d565b505060808701859052604087018190526001600160d01b0319831660a088015260c0870151909150610f4690846000611bbe565b602087015260c0860151610f5a9086611c51565b6060909601959095525050505050565b610f72615ac2565b6000610f7d83611caa565b90506108ac8382611cbc565b600062015180821015610f9b57600080fd5b6201518082610891565b6000610fb082610879565b905080836080015110610fc257600080fd5b600080610fcf8585611cff565b915091506000806000610ffd8860c001518960000151600001518a608001518a8c6000015160400151611e2e565b9194509250905061100e8385611f86565b60608901519093506110209086611f86565b6060890181905260c08901518951805160409091015161104593909291908787611f9c565b6060890181905260001261105857600080fd5b61106181612067565b64ffffffffff1660809098019790975250505050505050565b6000611089836000015161207b565b9050600061109685610879565b905060015b60208501515151811015611101576110f98786602001516000015183815181106110c157fe5b60200260200101516020015188600087878a88815181106110de57fe5b602002602001015161208f909695949392919063ffffffff16565b60010161109b565b50505050505050565b6000806111278560c0015186600001516000015161ffff166120c6565b60a0860151855191925060011a620f42400290600090156111545761114f856276a7006120fb565b611156565b845b9050600061116384612110565b90505b801561122957600061117c896080015183612135565b905060006111938a6000015160200151838a6121e8565b9050806112095760c08a01518a51516000916111b39161ffff168561228d565b90506000811215611207578a516000906111ce9085886122d2565b9050808711156111e0575060006111ed565b6111ea81886120fb565b90505b6112036111fc83868d856123b2565b8a90612405565b9850505b505b6112158684600061241b565b955061122086612110565b92505050611166565b8751604001516112399086612466565b98975050505050505050565b60006112518383612405565b905060008112156107ca57600080fd5b606080600061126e612488565b60008681526020829052604090209091506112898186612495565b9097909650945050505050565b606060006112a26125db565b60008581526020829052604090209091506112bd8185612495565b9695505050505050565b60006112d16125e8565b61ffff831660009081526020919091526040812091506112ef6125f5565b61ffff93909316600090815260209390935250604090912081548155600191820154910155565b61131e615a7d565b6108ac838361132b6125f5565b612602565b8181026000198314156113605781158061135257508282828161134f57fe5b05145b61135b57600080fd5b6107ca565b82158061137557508183828161137257fe5b05145b6107ca57600080fd5b6000816000191480156113945750600160ff1b83145b1561139e57600080fd5b8183816113a757fe5b059392505050565b84516113be9085858585612659565b156113c857610113565b6040850151156113f55760006113e5866020015186868686612659565b905080156113f35750610113565b505b6113fe82612775565b1561141157600081121561141157600080fd5b6001600160571b0319811280159061143057506001600160571b038113155b61143957600080fd5b8460200151518560400151141561145d57611457856020015161278b565b60208601525b6000856020015186604001518151811061147357fe5b60209081029190910181015161ffff9690961686528501939093526040808501929092526060840152600060a090930192909252500180516001019052565b60006108ac6ec097ce7bc90715b34b9f10000000006108c885600001518561133090919063ffffffff16565b6000826114ed575060006107ca565b828202828482816114fa57fe5b04146108ac57600080fd5b600080821161151357600080fd5b81838161151c57fe5b049392505050565b600081861061153257600080fd5b84821061153e57600080fd5b8383106115645761155d8461022088880361098b8388038b88036114de565b9050610663565b61155d61157b87870361098b8688038a87036114de565b85906120fb565b600061158c612844565b60008481526020828152604080832088830151845282528083208684529091529081902090860151606087015160a088015160c089015160e08a015195965093946115db948694939291612851565b610113818660800151612962565b60006107ca60001983611330565b600080611608878761ffff166120c6565b905060006116146129a8565b6001600160a01b03891660009081526020828152604080832061ffff8c16845282528083208a845290915281209192508061164f888a6129b5565b915091508061165d57600080fd5b6116678583612abd565b156116ea578254600f90810b900b60006116818983611f86565b905061168c81612aed565b8554600f9190910b6001600160801b03166001600160801b03199091161785556116b98d8d8d8585612b17565b806116cd576116ca8785600061241b565b96505b6116dc8d8d61ffff1689612bec565b965061066395505050505050565b8615611744576116f987612aed565b8354600f9190910b6001600160801b03166001600160801b03199091161783556117278b8b8b60008b612b17565b6117338583600161241b565b94506117448b8b61ffff1687612bec565b50949998505050505050505050565b815151811061176157600080fd5b600082606001511161177257600080fd5b60008260000151828151811061178457fe5b602002602001015190506002600381111561179b57fe5b8160a0015160038111156117ab57fe5b141580156117c9575060038160a0015160038111156117c657fe5b14155b6117d257600080fd5b606083018051600019019052600080805b855151811015611845576000866000015182815181106117ff57fe5b6020026020010151905082816080015111801561182c575060028160a00151600381111561182957fe5b14155b1561183c57806080015192508193505b506001016117e3565b508184141561185e575050600260a0919091015261189f565b60008560000151838151811061187057fe5b602090810291909101015160808581018051918301805190915252600160a09182015260029401939093525050505b5050565b815161ffff16158015906118c057508151613fff61ffff90911611155b6118c957600080fd5b816020015160001080156118e65750602082015164ffffffffff10155b6118ef57600080fd5b8160400151600010801561190857506040820151600810155b61191157600080fd5b60608201516001600160571b031913801590611938575060608201516001600160571b0312155b61194157600080fd5b8151815460208401516040850151606090950151600a0b6001600160581b0316600160401b0272ffffffffffffffffffffff00000000000000001960ff909616600160381b0267ff000000000000001964ffffffffff909316620100000266ffffffffff00001961ffff90961661ffff19909516949094179490941692909217169190911792909216919091179055565b6000806000806119e188612c46565b90508415806119ef57508085115b156119f8578094505b8680611a08575060008860600151125b965061ffff861615611a1957600080fd5b50509451939560f09490941b6001600160f01b03191660109390931c929092179350919050565b6000806107ca600d612cad565b6000811215611a5b57600080fd5b6000611a65612cc6565b6001600160a01b03851660009081526020828152604080832061ffff881684529091529020909150611a9683612cd3565b8154600a9190910b6001600160581b0316600160a81b026001600160a81b0390911617905550505050565b6000806107ca6002612cad565b600080611ad9612cfc565b6000938452602052505060409020546001600160a01b031690565b600080600080600080611b05611ac1565b6001600160a01b039097166000908152602097909752505060409094205461ffff81169563ffffffff62010000830481169650600160301b830416945060ff600160501b8304169350600160581b90910460d01b9150565b600080600080611b6b612d09565b6001600160a01b0395909516600090815260209590955250506040909220546bffffffffffffffffffffffff811693600160601b82046001600160801b03169350600160e01b90910463ffffffff169150565b611bc6615aee565b611bce615aee565b60ff8416611bdd5790506108ac565b611be78585612d16565b815260ff841660608201528267ffffffffffffffff81118015611c0957600080fd5b50604051908082528060200260200182016040528015611c4357816020015b611c30615b16565b815260200190600190039081611c285790505b506020820152949350505050565b600080611c5c612cc6565b6001600160a01b03851660009081526020828152604080832061ffff8816845290915281208054600160a81b9004600a90810b900b9450919250831215611ca257600080fd5b505092915050565b611cb2615b5a565b6107ca8242612d22565b611cc4615ac2565b6000611cd38461ffff16612de8565b6040805160808101825261ffff96909616865260ff821660208701528501939093525050606082015290565b600080611d0a615a0d565b60208501515160005b8151811015611e24576000828281518110611d2a57fe5b60200260200101519050611d418160400151612775565b611d4a57600080fd5b6000611d5582612c46565b905087811115611d6457600080fd5b611d7c85836000015161ffff16846020015184612e05565b50600080611d97836060015187612e1990919063ffffffff16565b92509050611da58882611f86565b97505087826020015111611dec5760c0890151825160208401518b5160400151600093611dd8939192909190868e612ec1565b9050611de48782611f86565b965050611e0b565b611e098960c00151836000015184602001518c60800151856115f7565b505b6020890151611e1a9084611753565b5050600101611d13565b5050509250929050565b600080600080611e42898961ffff166120c6565b9050611e4d86610f89565b915086821015611e5c57600080fd5b6000611e6888846129b5565b50905080611e7e57600080945094505050611f7b565b6000611e8983612110565b90505b8015801590611e9b5750818111155b15611f06576000611eac8a83612135565b90506000611ebd8d8d848d8d612eff565b90506000811315611ed957611ed28882611f86565b9750611ee6565b611ee38782611f86565b96505b611ef28584600061241b565b9450611efd85612110565b92505050611e8c565b60005b8115611f67576000611f1b8b84612135565b9050600080611f2a88846129b5565b9150915080611f3857600080fd5b611f448483600161241b565b9350611f528786600061241b565b9650611f5d87612110565b9450505050611f09565b611f768c8c61ffff1683612bec565b505050505b955095509592505050565b818101828112156000831215146107ca57600080fd5b600080611fb383611fad8787611f86565b90611f86565b9050611fbf8882612f97565b91508360001315611fcf57600080fd5b6000831315611fdd57600080fd5b8460001215611ff757611ff08585611f86565b9350612004565b6120018584611f86565b92505b600084612010856115e9565b121561201d575082612029565b612026856115e9565b90505b600081121561205b576020890151895160009161204b916108c8908590611330565b905061205989898385612fd6565b505b50509695505050505050565b600064ffffffffff821115610bc157600080fd5b6060015161012c60089190911c60ff160290565b61209c8787878685613118565b6120b58760e001518860a001518960c0015185886131d3565b60c090970196909652505050505050565b6000806120d161325b565b6001600160a01b038516600090815260209182526040808220868352909252205491505092915050565b60008282111561210a57600080fd5b50900390565b60008161211f57506000610874565b61212882613268565b60ff036001019050919050565b60008161214157600080fd5b61010082111561215057600080fd5b600061215b84610f89565b90506000605a841161217657506201518083020190506107ca565b6087841161219e575060591983016207e900908102908206909103016276a7000190506107ca565b60c384116121c75750608619830162278d00908102908206909103016301da9c000190506107ca565b5060c21983016276a70090810290820690910301630b1fa8000190506107ca565b60008084116122095760405162461bcd60e51b815260040161034a90615d6c565b600784111561222a5760405162461bcd60e51b815260040161034a90615deb565b6276a70083061561223d575060006108ac565b600061224883610879565b905060015b85811161228157612267612260826107d0565b839061089a565b851415612279576001925050506108ac565b60010161224d565b50600095945050505050565b6000806122986129a8565b6001600160a01b03861660009081526020918252604080822087835283528082208683529092522054600f90810b900b9150509392505050565b60008060006122e686602001518686613301565b9150915060006122f58761207b565b90508161231557865161230e9061ffff16878388613390565b9350610b0d565b600061232086610879565b90506000612330612260866107d0565b905060006123488a6000015161ffff1683868b613390565b905060008087600114156123665750506040808b0151015188612395565b61237c61237560018a036107d0565b869061089a565b90506123928c6000015161ffff1682888d613390565b91505b6123a2818584868f611524565b9c9b505050505050505050505050565b6000846123c1575060006123fd565b60006123cd85856120fb565b905060006123db828561342f565b9050633b9aca008113156123ee57600080fd5b6123f8878261349c565b925050505b949350505050565b808203828113156000831215146107ca57600080fd5b60006001831015801561243057506101008311155b61243957600080fd5b81156124525750600160ff1b60001983011c83176108ac565b50600160ff1b60001983011c1983166108ac565b81516000906108ac906108c8846ec097ce7bc90715b34b9f1000000000611330565b6000806107ca6004612cad565b6060806000808467ffffffffffffffff811180156124b257600080fd5b506040519080825280602002602001820160405280156124dc578160200160208202803683370190505b50905060008567ffffffffffffffff811180156124f857600080fd5b50604051908082528060200260200182016040528015612522578160200160208202803683370190505b50905060005b868110156125cc578784600e811061253c57fe5b600891828204019190066004029054906101000a900463ffffffff1663ffffffff1683828151811061256a57fe5b60209081029190910101526001909301928784600e811061258757fe5b600891828204019190066004029054906101000a900463ffffffff1663ffffffff168282815181106125b557fe5b602090810291909101015260019384019301612528565b509093509150505b9250929050565b6000806107ca6005612cad565b6000806107ca601c612cad565b6000806107ca601b612cad565b61260a615a7d565b6000612615846134b5565b61ffff86166000908152602085905260408120919250906004861061263b57600161263e565b60005b60ff166002811061264b57fe5b015490506112bd82826134ee565b6000805b865181101561276857600087828151811061267457fe5b6020026020010151905084816040015114158061269d57508661ffff16816000015161ffff1614155b806126ac575085816020015114155b156126b75750612760565b60028160a0015160038111156126c957fe5b141580156126e7575060038160a0015160038111156126e457fe5b14155b6126f057600080fd5b60608101516000906127029086611f86565b905061270d86612775565b1561272057600081121561272057600080fd5b6001600160571b0319811280159061273f57506001600160571b038113155b61274857600080fd5b6060820152600160a090910181905291506106639050565b60010161265d565b5060009695505050505050565b6000600282108015906107ca5750506008101590565b6060600082516000146127a25782516002026127a5565b60015b905060008167ffffffffffffffff811180156127c057600080fd5b506040519080825280602002602001820160405280156127fa57816020015b6127e7615b16565b8152602001906001900390816127df5790505b50905060005b845181101561283c5784818151811061281557fe5b602002602001015182828151811061282957fe5b6020908102919091010152600101612800565b509392505050565b6000806107ca600a612cad565b6000851215801561286957506001600160501b038513155b61287257600080fd5b6000841215801561288a57506001600160501b038413155b61289357600080fd5b8260001080156128a7575063ffffffff8311155b6128b057600080fd5b8160001080156128c4575063ffffffff8211155b6128cd57600080fd5b63ffffffff8111156128de57600080fd5b85546001600160501b0319166001600160501b039586161769ffffffffffffffffffff60501b1916600160501b94909516939093029390931763ffffffff60a01b1916600160a01b63ffffffff928316021763ffffffff60c01b1916600160c01b93821693909302929092176001600160e01b0316600160e01b9190921602179055565b6000811215801561297a57506001600160501b038113155b61298357600080fd5b60019190910180546001600160501b0319166001600160501b03909216919091179055565b6000806107ca600c612cad565b60008060006129c385610f89565b9050620151808406156129dd5760008092509250506125d4565b8381106129f15760008092509250506125d4565b6201518081850304605a8111612a0e579250600191506125d49050565b6101688111612a4d576000620151806207e900840604820160591901905060068104605a0160068281612a3d57fe5b06600014945094505050506125d4565b6108708111612a7d5760006201518062278d00840604820161016719019050601e8104608701601e8281612a3d57fe5b611de28111612aad576000620151806276a700840604820161086f19019050605a810460c301605a8281612a3d57fe5b5061010095600095509350505050565b600060018210158015612ad257506101008211155b612adb57600080fd5b50600019011b600160ff1b9081161490565b600060016001607f1b03198212801590612b0e575060016001607f1b038213155b610bc157600080fd5b6000612b23838361360d565b905080612b305750610113565b6000612b3a613694565b61ffff87166000908152602082815260408083208984529091528120549192506001600160501b03909116810390612b728285612405565b90506000811315612b8257600080fd5b612b9b612b96612b91836115e9565b610bb2565b6136a1565b61ffff89166000908152602085815260408083208b8452909152902080546001600160501b0319166001600160501b0392909216919091179055612be1898989876136b7565b505050505050505050565b6014612bf782613741565b1115612c155760405162461bcd60e51b815260040161034a90615dc2565b6000612c1f61325b565b6001600160a01b039094166000908152602094855260408082209482529390945250912055565b6000808260400151118015612c6057506040820151600810155b612c6957600080fd5b6040820151600210612c8057506020810151610874565b6000612c9260018460400151036107d0565b60208401519091506108ac906276a7009061022090846120fb565b6000620f4240826026811115612cbf57fe5b0192915050565b6000806107ca6006612cad565b60006001600160571b03198212801590612b0e57506001600160571b03821315610bc157600080fd5b6000806107ca6003612cad565b6000806107ca6011612cad565b606061283c8383613811565b612d2a615b5a565b6000612d3584613832565b90508281600001511015612d7457600080612d4f866138fa565b9050612d5d86848388613977565b9093509150612d6d868385613a1b565b5050612d81565b80518314612d8157600080fd5b6040518060600160405280612daf612daa8460a001518560c001516114de90919063ffffffff16565b613c4c565b8152602001612dd2612daa8460a001518560e001516114de90919063ffffffff16565b8152602001826060015181525091505092915050565b600080612df3613c62565b60009384526020525050604090205490565b612e13848484600185613118565b50505050565b60008082612e2c575060009050806125d4565b60008313612e3957600080fd5b612e5884608001516108c885876060015161133090919063ffffffff16565b9150612e7984608001516108c885876040015161133090919063ffffffff16565b6080850151909150612e8b9084611245565b60808501526040840151612e9f9082611245565b60408501526060840151612eb39083611245565b60608501526125d484613c6f565b600080612ecf868685613cc7565b90506000612ede898387613cf0565b90935090506001600160a01b0388161561205b5761205b8888888885613d58565b600080612f0a6129a8565b6001600160a01b03881660009081526020828152604080832061ffff8b1684528252808320898452909152902054909150600f90810b900b612f5084898989858a612ec1565b6001600160a01b0390981660009081526020928352604080822061ffff90991682529783528781209681529590915250505091902080546001600160801b03191690555090565b600080821215612fd057612fcb6001612fc585602001516108c887600001518761133090919063ffffffff16565b90612405565b6108ac565b50919050565b6000612fe0613e4a565b61ffff8516600090815260209190915260409020805490915064ffffffffff16421461300b57600080fd5b8054600160f81b900460ff1661302057600080fd5b600181015460009061303b906001600160581b031685611f86565b825490915060009061305d90600160281b90046001600160581b031685611f86565b9050816009191280156130705750600082125b1561307a57600091505b8060091912801561308b5750600081125b15613094575060005b6130a56130a083610bb2565b613e57565b6001840180546affffffffffffffffffffff19166001600160581b03929092169190911790556130d76130a082610bb2565b83546001600160581b0391909116600160281b026fffffffffffffffffffffff00000000001990911617835561310f87878688613e6d565b61110183613f81565b6000613122612844565b6000868152602082815260408083208884528252808320868452825291829020808a5290890187905280546001600160501b03808216938b0193909352600160501b810490921660608a015263ffffffff600160a01b8304811660a08b0152600160c01b8304811660c08b0152600160e01b90920490911660e08901529091508084156131c15760018201546001600160501b031660808901526131c9565b600060808901525b5050505050505050565b60008083116131e157600080fd5b818611156131f0575083610663565b60006131fc83886120fb565b90508381111561320f5785915050610663565b600061321b8286614046565b9050600061322d633b9aca00836120fb565b905061324e633b9aca0061098b6132448a856114de565b6102208c876114de565b9998505050505050505050565b6000806107ca600b612cad565b60008161327457600080fd5b600160801b821061328757608091821c91015b600160401b821061329a57604091821c91015b64010000000082106132ae57602091821c91015b6201000082106132c057601091821c91015b61010082106132d157600891821c91015b601082106132e157600491821c91015b600482106132f157600291821c91015b6002821061087457600101919050565b6000806000851161331157600080fd5b600785111561331f57600080fd5b600061332a84610879565b905060015b86811161338257600061334b613344836107d0565b849061089a565b90508681141561336357509250600091506133889050565b8681111561337957509250600191506133889050565b5060010161332f565b50600080fd5b935093915050565b60008061339b612844565b905060006276a7006133ac85610879565b6000898152602085815260408083208b84528252808320949093018083529390522080549192509063ffffffff600160a01b8204811691600160c01b8104821691600160e01b90910416816134135760405162461bcd60e51b815260040161034a90615d0e565b6134208184848c8c6131d3565b9b9a5050505050505050505050565b60008061344c6134476301da9c0061098b86886114de565b61405f565b905061345e81621dcd6560491b61407d565b905061347161346c826140d0565b6140f2565b905061348381621dcd6560491b614147565b905060006134908261417d565b60070b95945050505050565b60006108ac6134ab8484611330565b633b9aca0061137e565b6000816000106134c457600080fd5b60078211156134d257600080fd5b600482106134e357600482036134e5565b815b60080292915050565b6134f6615a7d565b6064633b9aca008360ff86166020811061350c57fe5b1a028161351557fe5b0481526064633b9aca008360ff86166001016020811061353157fe5b1a028161353a57fe5b0481602001818152505061355f8260028560ff16016020811061355957fe5b1a614186565b60808201819052610100908360ff86166003016020811061357c57fe5b1a028161358557fe5b0460408201526080810151610100908360ff8616600401602081106135a657fe5b1a02816135af57fe5b0460608201526207a1208260ff8516600501602081106135cb57fe5b1a0260a0820152622625a08260ff8516600601602081106135e857fe5b1a0260c08201528160ff84166007016020811061360157fe5b1a60e082015292915050565b60008183148061362a57506000831215801561362a575060008212155b15613637575060006107ca565b600083131580156136485750816000125b156136545750816107ca565b600082131580156136655750826000125b1561367357610991826115e9565b60008313158015613685575060008213155b1561004b576109918383612405565b6000806107ca6020612cad565b60006001600160501b03821115610bc157600080fd5b6000806136c58585856141ba565b9150915060008060008512156136dd578791506136e0565b50865b806001600160a01b0316826001600160a01b0316336001600160a01b03167f4a39dc06d4c0dbc64b70af90fd698a233a518aa5d07e595d983b8c0526c8f7fb878760405161372f929190615cdb565b60405180910390a45050505050505050565b600181901c7f5555555555555555555555555555555555555555555555555555555555555555908116911601600281901c7f3333333333333333333333333333333333333333333333333333333333333333908116911601600481901c7f07070707070707070707070707070707070707070707070707070707070707079190911601600881901c7e0f000f000f000f000f000f000f000f000f000f000f000f000f000f000f000f908116911601601081901c01602081901c01604081901c01608081901c60ff90811691160190565b60608061381e848461429f565b9150613829826143b7565b90509250929050565b61383a615b7b565b6000613844613e4a565b61ffff93841660009081526020918252604090819020805464ffffffffff81168652600160281b81046001600160581b03908116948701949094526001820154841692860192909252600160d81b820463ffffffff166060860152600160801b9091049091166080840152600201546001600160501b0380821660a0850152600160501b8204811660c0850152600160a01b82041660e0840152600160f01b900460ff1661012c02909216610100820152919050565b60008061390683614578565b6001600160a01b031663ef81f2166040518163ffffffff1660e01b81526004016040805180830381600087803b15801561393f57600080fd5b505af1158015613953573d6000803e3d6000fd5b505050506040513d601f19601f820116820180604052508101906123fd9190615c2d565b61397f615b7b565b600080600061398f8886896145a8565b60c08b019290925260e08a0192909252602089015191935091506139b3908361089a565b60208801526080870151600090156139e15760808801516139de906139d889826120fb565b906146b3565b90505b613a016139f6670de0b6b3a76400008361089a565b60a08a0151906146ca565b60a089015250506080860194909452505082529092909150565b6000613a25613e4a565b60008561ffff1681526020019081526020016000209050613a498260000151612067565b815464ffffffffff191664ffffffffff9190911617815560a0820151613a6e906136a1565b6002820180546001600160501b0319166001600160501b039290921691909117905560c0820151613a9e906136a1565b81600201600a6101000a8154816001600160501b0302191690836001600160501b03160217905550613ad38260e001516136a1565b8160020160146101000a8154816001600160501b0302191690836001600160501b03160217905550613b088260200151613e57565b81546001600160581b0391909116600160281b026fffffffffffffffffffffff0000000000199091161781556040820151613b4290613e57565b6001820180546affffffffffffffffffffff19166001600160581b03929092169190911790556080820151613b7690613e57565b81546001600160581b0391909116600160801b026affffffffffffffffffffff60801b199091161781556060820151613bae906146e7565b815463ffffffff91909116600160d81b0263ffffffff60d81b199091161781558215613bfa576000613bdf84613c4c565b9050613beb85826146fa565b613bf8610fee8683614731565b505b8361ffff167fef25641e225e493886510ca1ad6584fa7b442b9fea820a29d1de3ce27d270fd28360a001518460c001518560e00151604051613c3e93929190615e8c565b60405180910390a250505050565b60006001600160ff1b03821115610bc157600080fd5b6000806107ca6009612cad565b6000613c7a826147b1565b905060008160000160189054906101000a900463ffffffff169050613cb982846040015185606001518660a001518563ffffffff168860e00151612851565b610e56828460800151612962565b613ccf615b5a565b6000613cdb85856147b5565b90925090508061283c57610663858585614848565b600080613cfd8484612466565b9150613d098483612f97565b9050600082121561338857613d4e6001612fc587600001516108c88960200151613d488a602001516108c88c600001518b61133090919063ffffffff16565b90611330565b9150935093915050565b6000613d6485856149e1565b90506000831215613d7657600160401b175b60006001600160a01b038716337fc3d58168c5ae7397731d063d5bbf3d657854427343f4c083240f7aacaa2d0f6284613dae886149ff565b604051613dbc929190615d00565b60405180910390a46000613dd36000841287614a20565b9050806001600160a01b03166323de66516105e789613df1876149ff565b6040518463ffffffff1660e01b8152600401613e0f93929190615c9e565b600060405180830381600087803b158015613e2957600080fd5b505af1158015613e3d573d6000803e3d6000fd5b5050505050505050505050565b6000806107ca601d612cad565b60006001600160581b03821115610bc157600080fd5b6000613e77614a80565b61ffff8516600090815260209190915260408120546001600160a01b03169150613e9f614a8d565b61ffff8616600090815260209190915260409081902054905163ad1c095d60e01b81526001600160a01b039091169150819063ad1c095d90613ee79089908790600401615cc2565b600060405180830381600087803b158015613f0157600080fd5b505af1158015613f15573d6000803e3d6000fd5b505060405163ad1c095d60e01b81526001600160a01b038516925063ad1c095d9150613f479089908890600401615cc2565b600060405180830381600087803b158015613f6157600080fd5b505af1158015613f75573d6000803e3d6000fd5b50505050505050505050565b80546002820154600091613fbd91600160281b9091046001600160581b031690613d48906001600160501b03600160501b820481169116611330565b60018301546002840154919250600091613ff7916001600160581b031690613d48906001600160501b03600160a01b820481169116611330565b835490915060009061402e9060016001600160581b03600160801b909204821601166ec097ce7bc90715b34b9f1000000000611330565b90508061403b8484612405565b1315612e1357600080fd5b60006108ac61405984633b9aca006114de565b83611505565b6000677fffffffffffffff82111561407657600080fd5b5060401b90565b600081600f0b6000141561409057600080fd5b600082600f0b604085600f0b901b816140a557fe5b05905060016001607f1b031981128015906140c7575060016001607f1b038113155b6108ac57600080fd5b6000600f82900b60016001607f1b031914156140eb57600080fd5b5060000390565b6000600160461b82600f0b1261410757600080fd5b683fffffffffffffffff1982600f0b121561412457506000610874565b6107ca608083600f0b700171547652b82fe1777d0ffda0d23a7d1202901d614a9a565b6000600f83810b9083900b0260401d60016001607f1b031981128015906140c7575060016001607f1b038113156108ac57600080fd5b600f0b60401d90565b60008160ff166096106141a15760ff8216622625a0026107ca565b5060951960ff919091160162e4e1c00263165a0bc00190565b6040805160028082526060828101909352829160009181602001602082028036833701905050905060006141ee87876149e1565b905080826000815181106141fe57fe5b602002602001018181525050600160401b81178260018151811061421e57fe5b602090810291909101015260408051600280825260608201909252600091816020016020820280368337019050509050614257866149ff565b8160008151811061426457fe5b602002602001018181525050614279866149ff565b8160018151811061428657fe5b6020908102919091010152919791965090945050505050565b606060088260ff1611156142b257600080fd5b60006142bc611a40565b6001600160a01b038516600090815260208290526040812091925060ff851667ffffffffffffffff811180156142f157600080fd5b5060405190808252806020026020018201604052801561432b57816020015b614318615b16565b8152602001906001900390816143105790505b50905060005b8560ff1681101561066157600083826008811061434a57fe5b019050600083838151811061435b57fe5b602090810291909101810151835461ffff8116825264ffffffffff620100008204169282019290925260ff600160381b8304166040820152600160401b909104600a90810b900b60608201526080019190915250600101614331565b80516060908067ffffffffffffffff811180156143d357600080fd5b506040519080825280602002602001820160405280156143fd578160200160208202803683370190505b50915060005b8181101561445a57600084828151811061441957fe5b6020026020010151905061443a81600001518260200151836040015161554a565b84838151811061444657fe5b602090810291909101015250600101614403565b5060015b8181101561457157805b6000811180156144a0575083818151811061447f57fe5b602002602001015184600183038151811061449657fe5b6020026020010151115b15614568578381815181106144b157fe5b60200260200101518460018303815181106144c857fe5b60200260200101518560018403815181106144df57fe5b602002602001018684815181106144f257fe5b602002602001018281525082815250505084818151811061450f57fe5b602002602001015185600183038151811061452657fe5b602002602001015186600184038151811061453d57fe5b6020026020010187848151811061455057fe5b60209081029190910101919091525260001901614468565b5060010161445e565b5050919050565b600080614583615573565b61ffff939093166000908152602093909352505060409020546001600160a01b031690565b6000806000806000806145bb8988615580565b895190955091935091506000906145e2906145d7908b906120fb565b633b9aca00906114de565b905061461c6146116301da9c006145f985856114de565b8161460057fe5b670de0b6b3a764000091900461089a565b60e08a0151906146ca565b965061463e6146336301da9c006145f987856114de565b60c08a0151906146ca565b9550818314156146555750600093506146aa915050565b600061467761466c6301da9c006145f987866114de565b60e08b0151906146ca565b9050600061468589836120fb565b90506146a28861098b838d604001516114de90919063ffffffff16565b965050505050505b93509350935093565b60006108ac61405984670de0b6b3a76400006114de565b60006108ac6146d984846114de565b670de0b6b3a7640000611505565b600063ffffffff821115610bc157600080fd5b600081121561470857600080fd5b6000614716610fee84611c51565b90506147228183611f86565b9050610e56610fee8483611a4d565b600061473b614a80565b61ffff8416600090815260209190915260409081902054905163ad1c095d60e01b81526001600160a01b039091169150819063ad1c095d906147839087908690600401615cc2565b600060405180830381600087803b15801561479d57600080fd5b505af11580156131c9573d6000803e3d6000fd5b5190565b6147bd615b5a565b6000806147c861561b565b61ffff861660009081526020828152604080832088845290915290208054600160f01b900460ff169350909150821561483f5780546001600160501b03600160a01b820481169161481a9116826114de565b8552815461483890600160501b90046001600160501b0316826114de565b6020860152505b50509250929050565b614850615b5a565b61485a8483612d22565b9050600061486785613832565b9050600061487361561b565b61ffff871660009081526020828152604080832089845290915290209091508561489c57600080fd5b825185146148a957600080fd5b846000106148b657600080fd5b848611156148c357600080fd5b83516000126148d157600080fd5b83602001516000126148e257600080fd5b6148ef8360a001516136a1565b81546001600160501b0391909116600160a01b0269ffffffffffffffffffff60a01b1990911617815560c0830151614926906136a1565b81546001600160501b0319166001600160501b039190911617815560e083015161494f906136a1565b815460ff60f01b196001600160501b0392909216600160501b0269ffffffffffffffffffff60501b199091161716600160f01b178155614990878786615628565b858761ffff167f29fd83c1093c9721d6046038c76b6bddf0dc0c5dac3ecbfa23f8eb994ec61613866000015187602001516040516149cf929190615d00565b60405180910390a35050509392505050565b67ffff000000000000603083901b16600882901b1760011792915050565b600080821215614a1957614a12826115e9565b9050610874565b5080610874565b600082614a5257614a2f614a80565b61ffff8316600090815260209190915260409020546001600160a01b03166108ac565b614a5a614a8d565b61ffff8316600090815260209190915260409020546001600160a01b0316905092915050565b6000806107ca6021612cad565b6000806107ca6022612cad565b6000600160461b82600f0b12614aaf57600080fd5b683fffffffffffffffff1982600f0b1215614acc57506000610874565b6001607f1b60006780000000000000008416600f0b1315614afe5770016a09e667f3bcc908b2fb1366ea957d3e0260801c5b60008367400000000000000016600f0b1315614b2b577001306fe0a31b7152de8d5a46305c85edec0260801c5b60008367200000000000000016600f0b1315614b58577001172b83c7d517adcdf7c8c50eb14a791f0260801c5b60008367100000000000000016600f0b1315614b855770010b5586cf9890f6298b92b71842a983630260801c5b60008367080000000000000016600f0b1315614bb2577001059b0d31585743ae7c548eb68ca417fd0260801c5b60008367040000000000000016600f0b1315614bdf57700102c9a3e778060ee6f7caca4f7a29bde80260801c5b60008367020000000000000016600f0b1315614c0c5770010163da9fb33356d84a66ae336dcdfa3f0260801c5b600083600160381b16600f0b1315614c3557700100b1afa5abcbed6129ab13ec11dc95430260801c5b600083668000000000000016600f0b1315614c615770010058c86da1c09ea1ff19d294cf2f679b0260801c5b600083664000000000000016600f0b1315614c8d577001002c605e2e8cec506d21bfc89a23a00f0260801c5b600083662000000000000016600f0b1315614cb957700100162f3904051fa128bca9c55c31e5df0260801c5b600083661000000000000016600f0b1315614ce5577001000b175effdc76ba38e31671ca9397250260801c5b600083660800000000000016600f0b1315614d1157700100058ba01fb9f96d6cacd4b180917c3d0260801c5b600083660400000000000016600f0b1315614d3d5770010002c5cc37da9491d0985c348c68e7b30260801c5b600083660200000000000016600f0b1315614d69577001000162e525ee054754457d59952920260260801c5b600083600160301b16600f0b1315614d925770010000b17255775c040618bf4a4ade83fc0260801c5b6000836580000000000016600f0b1315614dbd577001000058b91b5bc9ae2eed81e9b7d4cfab0260801c5b6000836540000000000016600f0b1315614de857700100002c5c89d5ec6ca4d7c8acc017b7c90260801c5b6000836520000000000016600f0b1315614e135770010000162e43f4f831060e02d839a9d16d0260801c5b6000836510000000000016600f0b1315614e3e57700100000b1721bcfc99d9f890ea069117630260801c5b6000836508000000000016600f0b1315614e695770010000058b90cf1e6d97f9ca14dbcc16280260801c5b6000836504000000000016600f0b1315614e94577001000002c5c863b73f016468f6bac5ca2b0260801c5b6000836502000000000016600f0b1315614ebf57700100000162e430e5a18f6119e3c02282a50260801c5b600083600160281b16600f0b1315614ee8577001000000b1721835514b86e6d96efd1bfe0260801c5b60008364800000000016600f0b1315614f1257700100000058b90c0b48c6be5df846c5b2ef0260801c5b60008364400000000016600f0b1315614f3c5770010000002c5c8601cc6b9e94213c72737a0260801c5b60008364200000000016600f0b1315614f66577001000000162e42fff037df38aa2b219f060260801c5b60008364100000000016600f0b1315614f905770010000000b17217fba9c739aa5819f44f90260801c5b60008364080000000016600f0b1315614fba577001000000058b90bfcdee5acd3c1cedc8230260801c5b60008364040000000016600f0b1315614fe457700100000002c5c85fe31f35a6a30da1be500260801c5b60008364020000000016600f0b131561500e5770010000000162e42ff0999ce3541b9fffcf0260801c5b60008364010000000016600f0b131561503857700100000000b17217f80f4ef5aadda455540260801c5b600083638000000016600f0b13156150615770010000000058b90bfbf8479bd5a81b51ad0260801c5b600083634000000016600f0b131561508a577001000000002c5c85fdf84bd62ae30a74cc0260801c5b600083632000000016600f0b13156150b357700100000000162e42fefb2fed257559bdaa0260801c5b600083631000000016600f0b13156150dc577001000000000b17217f7d5a7716bba4a9ae0260801c5b600083630800000016600f0b131561510557700100000000058b90bfbe9ddbac5e109cce0260801c5b600083630400000016600f0b131561512e5770010000000002c5c85fdf4b15de6f17eb0d0260801c5b600083630200000016600f0b1315615157577001000000000162e42fefa494f1478fde050260801c5b600083630100000016600f0b13156151805770010000000000b17217f7d20cf927c8e94c0260801c5b6000836280000016600f0b13156151a8577001000000000058b90bfbe8f71cb4e4b33d0260801c5b6000836240000016600f0b13156151d057700100000000002c5c85fdf477b662b269450260801c5b6000836220000016600f0b13156151f85770010000000000162e42fefa3ae53369388c0260801c5b6000836210000016600f0b131561522057700100000000000b17217f7d1d351a389d400260801c5b6000836208000016600f0b13156152485770010000000000058b90bfbe8e8b2d3d4ede0260801c5b6000836204000016600f0b1315615270577001000000000002c5c85fdf4741bea6e77e0260801c5b6000836202000016600f0b131561529857700100000000000162e42fefa39fe95583c20260801c5b6000836201000016600f0b13156152c0577001000000000000b17217f7d1cfb72b45e10260801c5b60008361800016600f0b13156152e757700100000000000058b90bfbe8e7cc35c3f00260801c5b60008361400016600f0b131561530e5770010000000000002c5c85fdf473e242ea380260801c5b60008361200016600f0b1315615335577001000000000000162e42fefa39f02b772c0260801c5b60008361100016600f0b131561535c5770010000000000000b17217f7d1cf7d83c1a0260801c5b60008361080016600f0b1315615383577001000000000000058b90bfbe8e7bdcbe2e0260801c5b60008361040016600f0b13156153aa57700100000000000002c5c85fdf473dea871f0260801c5b60008361020016600f0b13156153d15770010000000000000162e42fefa39ef44d910260801c5b60008361010016600f0b13156153f857700100000000000000b17217f7d1cf79e9490260801c5b600083608016600f0b131561541e5770010000000000000058b90bfbe8e7bce5440260801c5b600083604016600f0b1315615444577001000000000000002c5c85fdf473de6eca0260801c5b600083602016600f0b131561546a57700100000000000000162e42fefa39ef366f0260801c5b600083601016600f0b1315615490577001000000000000000b17217f7d1cf79afa0260801c5b600083600816600f0b13156154b657700100000000000000058b90bfbe8e7bcd6d0260801c5b600083600416600f0b13156154dc5770010000000000000002c5c85fdf473de6b20260801c5b600083600216600f0b1315615502577001000000000000000162e42fefa39ef3580260801c5b600083600116600f0b13156155285770010000000000000000b17217f7d1cf79ab0260801c5b600f83810b60401d603f03900b1c60016001607f1b038111156107ca57600080fd5b67ffff000000000000603084901b1665ffffffffff00600884901b161760ff8216179392505050565b6000806107ca601f612cad565b6000806000806000856020015111156155cd576155ca6155b18660c0015187602001516114de90919063ffffffff16565b60e087015160408801516155c4916114de565b90614046565b90505b60006155d887615780565b90506155e48183610949565b945081156155fb576155f8818660016157b3565b93505b6020860151156156125761560f858361582b565b92505b50509250925092565b6000806107ca601e612cad565b6000615632613694565b61ffff851660009081526020828152604080832087845290915281208054929350916001600160501b03169003615667615a0d565b6156778161ffff89168880612e05565b6080810151156156995760405162461bcd60e51b815260040161034a90615e1b565b60006156ad866156a8856115e9565b612466565b905060006156c36156be8886615844565b6115e9565b90506156d36105e78a8385612fd6565b84546001600160501b03600160501b82048116600090810392600160a01b9004909116908212806157045750806000125b156157485760006157158a84612466565b905060006157238383611f86565b90508060001215615738576157388d826146fa565b6157458d8d8685856158a0565b50505b50505061ffff909716600090815260209485526040808220978252969094525050509190912080546001600160f01b03191690555050565b615788615a7d565b60006157926125f5565b61ffff84166000908152602091909152604081205491506108ac90826134ee565b6000806157d2606461098b8760e00151876114de90919063ffffffff16565b90508460a001518110156157e7575060a08401515b8460c001518111156157fa575060c08401515b82156158115761580a848261089a565b915061283c565b83811161582057808403610663565b506000949350505050565b60006108ac61583a84846114de565b633b9aca00611505565b6000816000131580156158575750600a82125b15615864575060006107ca565b6000821261587157600080fd5b6108ac6001612fc585602001516108c86ec097ce7bc90715b34b9f10000000008761133090919063ffffffff16565b6000600160401b6158b187876149e1565b17905060006105e7337fc3d58168c5ae7397731d063d5bbf3d657854427343f4c083240f7aacaa2d0f62846158e5896149ff565b6040516158f3929190615d00565b60405180910390a46159086105e78785614731565b6000821315615921576159216105e7610fee8885615929565b505050505050565b6000615933614a80565b61ffff8416600090815260209190915260408120546001600160a01b0316915082121561595e579293925b806001600160a01b03166323de66518686615978866149ff565b6040518463ffffffff1660e01b815260040161599693929190615c9e565b600060405180830381600087803b1580156159b057600080fd5b505af1158015612be1573d6000803e3d6000fd5b6040518060e001604052806159d7615ac2565b81526020016159e4615aee565b815260006020820181905260408201819052606082018190526080820181905260a09091015290565b60405180610100016040528060008019168152602001600081526020016000815260200160008152602001600081526020016000815260200160008152602001600081525090565b6040518060800160405280606081526020016060815260200160608152602001606081525090565b60405180610100016040528060008152602001600081526020016000815260200160008152602001600081526020016000815260200160008152602001600081525090565b6040805160808101825260008082526020820152908101615ae1615b5a565b8152600060209091015290565b6040518060800160405280606081526020016060815260200160008152602001600081525090565b6040518060c00160405280600061ffff1681526020016000815260200160008152602001600081526020016000815260200160006003811115615b5557fe5b905290565b60405180606001604052806000815260200160008152602001600081525090565b6040518061012001604052806000815260200160008152602001600081526020016000815260200160008152602001600081526020016000815260200160008152602001600081525090565b803561ffff8116811461087457600080fd5b600060208284031215615bea578081fd5b6108ac82615bc7565b60008060408385031215615c05578081fd5b615c0e83615bc7565b915060208301358015158114615c22578182fd5b809150509250929050565b60008060408385031215615c3f578182fd5b505080516020909101519092909150565b6000815180845260208085019450808401835b83811015615c7f57815187529582019590820190600101615c63565b509495945050505050565b6001600160a01b0391909116815260200190565b6001600160a01b039384168152919092166020820152604081019190915260600190565b6001600160a01b03929092168252602082015260400190565b600060408252615cee6040830185615c50565b82810360208401526106638185615c50565b918252602082015260400190565b60208082526016908201527513585c9ad95d081b9bdd081a5b9a5d1a585b1a5e995960521b604082015260600190565b6020808252601490820152734f7261636c652072617465206f766572666c6f7760601b604082015260600190565b60208082526015908201527410d1ce881b9bc81b585c9ad95d1cc81b1a5cdd1959605a1b604082015260600190565b6020808252600d908201526c092dcecc2d8d2c840d2dcc8caf609b1b604082015260600190565b6020808252600f908201526e4f766572206d61782061737365747360881b604082015260600190565b60208082526016908201527510d1ce881b585c9ad95d081a5b99195e08189bdd5b9960521b604082015260600190565b6020808252601190820152704d75737420696e6974206d61726b65747360781b604082015260600190565b60208082526017908201527f494d3a20696d706c6965642072617465206661696c6564000000000000000000604082015260600190565b61ffff91909116815260200190565b928352602083019190915260408201526060019056fea2646970667358221220a7e0f1860dcc4af59ac160d06cc62c0b91ec971da03e214a551f455eb3eae94b64736f6c63430007060033","language":"Solidity","natspec":{"kind":"dev","methods":{"getLibInfo()":{"notice":"Get a list of deployed library addresses (sorted by library name)"},"initializeMarkets(uint16,bool)":{"details":"emit:MarketsInitializedauth:none","notice":"Initialize the market for a given currency id, done once a quarter","params":{"currencyId":"currency of markets to initialize","isFirstInit":"true if this is the first time the markets have been initialized"}},"sweepCashIntoMarkets(uint16)":{"details":"emit:CashSweepIntoMarketsauth:none","notice":"Sweeps nToken cash balance into markets after accounting for cash withholding. Can be done after fCash residuals are purchased to ensure that markets have maximum liquidity.","params":{"currencyId":"currency of markets to initialize"}}},"notice":"Initialize markets is called once every quarter to setup the new markets. Only the nToken account can initialize markets, and this method will be called on behalf of that account. In this action the following will occur:  - nToken Liquidity Tokens will be settled  - Any ifCash assets will be settled  - If nToken liquidity tokens are settled with negative net ifCash, enough cash will be withheld at the PV    to purchase offsetting positions  - fCash positions are written to storage  - For each market, calculate the proportion of fCash to cash given:     - previous oracle rates     - rate anchor set by governance     - percent of cash to deposit into the market set by governance  - Set new markets and add liquidity tokens to portfolio","version":1},"opcodes":"PUSH20 0x0 ADDRESS EQ PUSH1 0x80 PUSH1 0x40 MSTORE PUSH1 0x4 CALLDATASIZE LT PUSH2 0x4B JUMPI PUSH1 0x0 CALLDATALOAD PUSH1 0xE0 SHR DUP1 PUSH4 0xBB6DD58E EQ PUSH2 0x50 JUMPI DUP1 PUSH4 0xC4C96DAE EQ PUSH2 0x72 JUMPI DUP1 PUSH4 0xD0E064C0 EQ PUSH2 0x90 JUMPI JUMPDEST PUSH1 0x0 DUP1 REVERT JUMPDEST DUP2 DUP1 ISZERO PUSH2 0x5C JUMPI PUSH1 0x0 DUP1 REVERT JUMPDEST POP PUSH2 0x70 PUSH2 0x6B CALLDATASIZE PUSH1 0x4 PUSH2 0x5BD9 JUMP JUMPDEST PUSH2 0xB0 JUMP JUMPDEST STOP JUMPDEST PUSH2 0x7A PUSH2 0x11A JUMP JUMPDEST PUSH1 0x40 MLOAD PUSH2 0x87 SWAP2 SWAP1 PUSH2 0x5C8A JUMP JUMPDEST PUSH1 0x40 MLOAD DUP1 SWAP2 SUB SWAP1 RETURN JUMPDEST DUP2 DUP1 ISZERO PUSH2 0x9C JUMPI PUSH1 0x0 DUP1 REVERT JUMPDEST POP PUSH2 0x70 PUSH2 0xAB CALLDATASIZE PUSH1 0x4 PUSH2 0x5BF3 JUMP JUMPDEST PUSH2 0x132 JUMP JUMPDEST PUSH1 0x40 MLOAD PUSH4 0x5DB6EAC7 PUSH1 0xE1 SHL DUP2 MSTORE PUSH20 0x0 SWAP1 PUSH4 0xBB6DD58E SWAP1 PUSH2 0xE7 SWAP1 DUP5 SWAP1 PUSH1 0x4 ADD PUSH2 0x5E7D JUMP JUMPDEST PUSH1 0x0 PUSH1 0x40 MLOAD DUP1 DUP4 SUB DUP2 DUP7 DUP1 EXTCODESIZE ISZERO DUP1 ISZERO PUSH2 0xFF JUMPI PUSH1 0x0 DUP1 REVERT JUMPDEST POP GAS DELEGATECALL ISZERO DUP1 ISZERO PUSH2 0x113 JUMPI RETURNDATASIZE PUSH1 0x0 DUP1 RETURNDATACOPY RETURNDATASIZE PUSH1 0x0 REVERT JUMPDEST POP POP POP POP POP JUMP JUMPDEST PUSH20 0x0 SWAP1 JUMP JUMPDEST TIMESTAMP PUSH2 0x13B PUSH2 0x59C4 JUMP JUMPDEST PUSH2 0x145 DUP2 DUP6 PUSH2 0x5D7 JUMP JUMPDEST DUP1 MLOAD PUSH1 0x20 ADD MLOAD PUSH1 0x0 SWAP1 PUSH8 0xFFFFFFFFFFFFFFFF DUP2 GT DUP1 ISZERO PUSH2 0x164 JUMPI PUSH1 0x0 DUP1 REVERT JUMPDEST POP PUSH1 0x40 MLOAD SWAP1 DUP1 DUP3 MSTORE DUP1 PUSH1 0x20 MUL PUSH1 0x20 ADD DUP3 ADD PUSH1 0x40 MSTORE DUP1 ISZERO PUSH2 0x19E JUMPI DUP2 PUSH1 0x20 ADD JUMPDEST PUSH2 0x18B PUSH2 0x5A0D JUMP JUMPDEST DUP2 MSTORE PUSH1 0x20 ADD SWAP1 PUSH1 0x1 SWAP1 SUB SWAP1 DUP2 PUSH2 0x183 JUMPI SWAP1 POP JUMPDEST POP DUP3 MLOAD PUSH1 0x20 ADD MLOAD SWAP1 SWAP2 POP PUSH2 0x1B1 JUMPI PUSH1 0x0 DUP1 REVERT JUMPDEST DUP4 ISZERO PUSH2 0x1C8 JUMPI PUSH1 0x20 DUP3 ADD MLOAD MLOAD MLOAD ISZERO PUSH2 0x1C8 JUMPI PUSH1 0x0 DUP1 REVERT JUMPDEST PUSH1 0x0 PUSH2 0x1D7 DUP4 DUP4 DUP7 DUP10 DUP10 PUSH2 0x5F0 JUMP JUMPDEST SWAP1 POP PUSH1 0x0 PUSH2 0x1ED DUP8 DUP6 PUSH1 0x0 ADD MLOAD PUSH1 0x20 ADD MLOAD PUSH2 0x66C JUMP JUMPDEST SWAP1 POP PUSH2 0x1F7 PUSH2 0x5A0D JUMP JUMPDEST PUSH1 0x0 DUP1 JUMPDEST DUP7 MLOAD PUSH1 0x20 ADD MLOAD DUP2 LT ISZERO PUSH2 0x54B JUMPI PUSH2 0x226 PUSH2 0x217 DUP3 PUSH1 0x1 ADD PUSH2 0x7D0 JUMP JUMPDEST PUSH2 0x220 DUP11 PUSH2 0x879 JUMP JUMPDEST SWAP1 PUSH2 0x89A JUMP JUMPDEST PUSH1 0x20 DUP5 ADD MSTORE DUP4 MLOAD DUP1 MLOAD PUSH1 0x0 SWAP2 PUSH2 0x259 SWAP2 DUP9 SWAP2 SWAP1 DUP6 SWAP1 DUP2 LT PUSH2 0x243 JUMPI INVALID JUMPDEST PUSH1 0x20 MUL PUSH1 0x20 ADD ADD MLOAD DUP5 PUSH1 0x2 PUSH1 0xFF AND ADD DUP8 DUP13 PUSH2 0x8B3 JUMP JUMPDEST SWAP1 POP DUP10 DUP1 PUSH2 0x273 JUMPI POP DUP2 PUSH1 0x1 EQ DUP1 ISZERO PUSH2 0x273 JUMPI POP DUP7 MLOAD PUSH1 0x2 EQ JUMPDEST DUP1 PUSH2 0x284 JUMPI POP PUSH1 0x20 DUP9 ADD MLOAD MLOAD MLOAD DUP3 LT ISZERO JUMPDEST DUP1 PUSH2 0x2B2 JUMPI POP DUP2 PUSH1 0x1 EQ DUP1 ISZERO PUSH2 0x2B2 JUMPI POP DUP7 PUSH1 0x2 DUP2 MLOAD DUP2 LT PUSH2 0x2A2 JUMPI INVALID JUMPDEST PUSH1 0x20 MUL PUSH1 0x20 ADD ADD MLOAD PUSH1 0xC0 ADD MLOAD PUSH1 0x0 EQ JUMPDEST ISZERO PUSH2 0x359 JUMPI PUSH1 0x0 PUSH2 0x2DA DUP3 DUP8 PUSH1 0x40 ADD MLOAD DUP6 DUP2 MLOAD DUP2 LT PUSH2 0x2CD JUMPI INVALID JUMPDEST PUSH1 0x20 MUL PUSH1 0x20 ADD ADD MLOAD PUSH2 0x914 JUMP JUMPDEST SWAP1 POP DUP1 DUP6 PUSH1 0x40 ADD DUP2 DUP2 MSTORE POP POP PUSH2 0x327 DUP7 PUSH1 0x40 ADD MLOAD DUP5 DUP2 MLOAD DUP2 LT PUSH2 0x2F9 JUMPI INVALID JUMPDEST PUSH1 0x20 MUL PUSH1 0x20 ADD ADD MLOAD DUP8 PUSH1 0x60 ADD MLOAD DUP6 DUP2 MLOAD DUP2 LT PUSH2 0x311 JUMPI INVALID JUMPDEST PUSH1 0x20 MUL PUSH1 0x20 ADD ADD MLOAD PUSH2 0x949 SWAP1 SWAP2 SWAP1 PUSH4 0xFFFFFFFF AND JUMP JUMPDEST PUSH1 0xC0 DUP7 ADD DUP2 SWAP1 MSTORE PUSH2 0x353 JUMPI PUSH1 0x40 MLOAD PUSH3 0x461BCD PUSH1 0xE5 SHL DUP2 MSTORE PUSH1 0x4 ADD PUSH2 0x34A SWAP1 PUSH2 0x5E46 JUMP JUMPDEST PUSH1 0x40 MLOAD DUP1 SWAP2 SUB SWAP1 REVERT JUMPDEST POP PUSH2 0x52D JUMP JUMPDEST DUP2 PUSH2 0x37E JUMPI DUP7 PUSH1 0x1 DUP2 MLOAD DUP2 LT PUSH2 0x36B JUMPI INVALID JUMPDEST PUSH1 0x20 MUL PUSH1 0x20 ADD ADD MLOAD PUSH1 0xC0 ADD MLOAD SWAP3 POP PUSH2 0x45F JUMP JUMPDEST DUP2 PUSH1 0x1 EQ ISZERO PUSH2 0x3E2 JUMPI PUSH2 0x399 DUP8 PUSH2 0x394 DUP12 PUSH2 0x879 JUMP JUMPDEST PUSH2 0xA09 JUMP JUMPDEST SWAP3 POP DUP5 PUSH1 0x60 ADD MLOAD DUP3 DUP2 MLOAD DUP2 LT PUSH2 0x3AB JUMPI INVALID JUMPDEST PUSH1 0x20 MUL PUSH1 0x20 ADD ADD MLOAD PUSH1 0x40 ADD MLOAD DUP4 LT ISZERO PUSH2 0x3DD JUMPI DUP5 PUSH1 0x60 ADD MLOAD DUP3 DUP2 MLOAD DUP2 LT PUSH2 0x3CE JUMPI INVALID JUMPDEST PUSH1 0x20 MUL PUSH1 0x20 ADD ADD MLOAD PUSH1 0x40 ADD MLOAD SWAP3 POP JUMPDEST PUSH2 0x45F JUMP JUMPDEST PUSH1 0x0 PUSH2 0x3F9 PUSH2 0x3F0 DUP5 PUSH2 0x7D0 JUMP JUMPDEST PUSH2 0x220 DUP13 PUSH2 0x879 JUMP JUMPDEST SWAP1 POP PUSH2 0x419 DUP2 DUP6 DUP11 DUP7 DUP2 MLOAD DUP2 LT PUSH2 0x40C JUMPI INVALID JUMPDEST PUSH1 0x20 MUL PUSH1 0x20 ADD ADD MLOAD PUSH2 0xA8F JUMP JUMPDEST SWAP4 POP DUP6 PUSH1 0x60 ADD MLOAD DUP4 DUP2 MLOAD DUP2 LT PUSH2 0x42B JUMPI INVALID JUMPDEST PUSH1 0x20 MUL PUSH1 0x20 ADD ADD MLOAD PUSH1 0x40 ADD MLOAD DUP5 LT ISZERO PUSH2 0x45D JUMPI DUP6 PUSH1 0x60 ADD MLOAD DUP4 DUP2 MLOAD DUP2 LT PUSH2 0x44E JUMPI INVALID JUMPDEST PUSH1 0x20 MUL PUSH1 0x20 ADD ADD MLOAD PUSH1 0x40 ADD MLOAD SWAP4 POP JUMPDEST POP JUMPDEST PUSH1 0x0 PUSH2 0x48B DUP5 DUP8 PUSH1 0x60 ADD MLOAD DUP6 DUP2 MLOAD DUP2 LT PUSH2 0x475 JUMPI INVALID JUMPDEST PUSH1 0x20 MUL PUSH1 0x20 ADD ADD MLOAD PUSH2 0xB17 SWAP1 SWAP2 SWAP1 PUSH4 0xFFFFFFFF AND JUMP JUMPDEST SWAP1 POP PUSH2 0x4AD DUP7 PUSH1 0x20 ADD MLOAD DUP5 DUP2 MLOAD DUP2 LT PUSH2 0x4A0 JUMPI INVALID JUMPDEST PUSH1 0x20 MUL PUSH1 0x20 ADD ADD MLOAD PUSH2 0xBB2 JUMP JUMPDEST DUP2 GT ISZERO PUSH2 0x4FC JUMPI PUSH2 0x4C7 DUP7 PUSH1 0x20 ADD MLOAD DUP5 DUP2 MLOAD DUP2 LT PUSH2 0x4A0 JUMPI INVALID JUMPDEST SWAP1 POP PUSH2 0x4DD DUP2 DUP8 PUSH1 0x60 ADD MLOAD DUP6 DUP2 MLOAD DUP2 LT PUSH2 0x311 JUMPI INVALID JUMPDEST SWAP4 POP DUP4 PUSH2 0x4FC JUMPI PUSH1 0x40 MLOAD PUSH3 0x461BCD PUSH1 0xE5 SHL DUP2 MSTORE PUSH1 0x4 ADD PUSH2 0x34A SWAP1 PUSH2 0x5D3E JUMP JUMPDEST PUSH2 0x506 DUP3 DUP3 PUSH2 0x914 JUMP JUMPDEST PUSH1 0x40 DUP7 ADD DUP2 SWAP1 MSTORE PUSH1 0x1 SGT ISZERO PUSH2 0x51D JUMPI PUSH1 0x1 PUSH1 0x40 DUP7 ADD MSTORE JUMPDEST POP PUSH1 0xC0 DUP5 ADD DUP4 SWAP1 MSTORE PUSH1 0xE0 DUP5 ADD DUP10 SWAP1 MSTORE JUMPDEST PUSH1 0xC0 DUP5 ADD MLOAD PUSH1 0xA0 DUP6 ADD MSTORE PUSH2 0x542 DUP5 DUP13 DUP11 PUSH2 0xBC5 JUMP JUMPDEST POP PUSH1 0x1 ADD PUSH2 0x1FB JUMP JUMPDEST POP PUSH1 0x0 PUSH2 0x569 DUP8 PUSH1 0xC0 ADD MLOAD DUP9 PUSH1 0x20 ADD MLOAD PUSH2 0xC0B SWAP1 SWAP2 SWAP1 PUSH4 0xFFFFFFFF AND JUMP JUMPDEST POP SWAP3 POP POP POP PUSH2 0x581 DUP8 PUSH1 0xC0 ADD MLOAD DUP12 DUP10 PUSH1 0x60 ADD MLOAD PUSH2 0xE4B JUMP JUMPDEST PUSH2 0x594 DUP8 PUSH1 0xC0 ADD MLOAD DUP3 DUP10 PUSH1 0x80 ADD MLOAD PUSH2 0xE5B JUMP JUMPDEST PUSH32 0xCFFEFF9ACCC9171F01FEC36E09A1A06F0160CE50A8C4C0A2ADFF9CEC562ADF08 DUP11 PUSH1 0x40 MLOAD PUSH2 0x5C3 SWAP2 SWAP1 PUSH2 0x5E7D JUMP JUMPDEST PUSH1 0x40 MLOAD DUP1 SWAP2 SUB SWAP1 LOG1 POP POP POP POP POP POP POP POP POP POP JUMP JUMPDEST PUSH2 0x5E1 DUP3 DUP3 PUSH2 0xECE JUMP JUMPDEST PUSH2 0x5EA DUP2 PUSH2 0xF6A JUMP JUMPDEST SWAP1 SWAP2 MSTORE POP JUMP JUMPDEST PUSH1 0x0 DUP1 DUP3 ISZERO PUSH2 0x613 JUMPI PUSH2 0x602 DUP6 PUSH2 0xF89 JUMP JUMPDEST PUSH5 0xFFFFFFFFFF AND PUSH1 0x80 DUP9 ADD MSTORE PUSH2 0x63B JUMP JUMPDEST PUSH2 0x61D DUP8 DUP7 PUSH2 0xFA5 JUMP JUMPDEST PUSH2 0x62D DUP5 PUSH2 0xFFFF AND DUP7 DUP10 DUP10 PUSH2 0x107A JUMP JUMPDEST PUSH2 0x638 DUP8 DUP8 DUP8 PUSH2 0x110A JUMP JUMPDEST SWAP1 POP JUMPDEST PUSH1 0x60 DUP8 ADD MLOAD PUSH2 0x64A SWAP1 DUP3 PUSH2 0x1245 JUMP JUMPDEST PUSH1 0x60 DUP9 ADD DUP3 SWAP1 MSTORE SWAP2 POP PUSH2 0x3E8 DUP3 SGT PUSH2 0x661 JUMPI PUSH1 0x0 DUP1 REVERT JUMPDEST POP JUMPDEST SWAP6 SWAP5 POP POP POP POP POP JUMP JUMPDEST PUSH2 0x674 PUSH2 0x5A55 JUMP JUMPDEST PUSH2 0x67C PUSH2 0x5A55 JUMP JUMPDEST PUSH2 0x68A DUP5 PUSH2 0xFFFF AND DUP5 PUSH2 0x1261 JUMP JUMPDEST PUSH1 0x20 DUP4 ADD MSTORE DUP2 MSTORE PUSH1 0x0 PUSH2 0x6A1 PUSH2 0xFFFF DUP7 AND DUP6 PUSH2 0x1296 JUMP JUMPDEST SWAP1 POP DUP1 MLOAD PUSH8 0xFFFFFFFFFFFFFFFF DUP2 GT DUP1 ISZERO PUSH2 0x6BB JUMPI PUSH1 0x0 DUP1 REVERT JUMPDEST POP PUSH1 0x40 MLOAD SWAP1 DUP1 DUP3 MSTORE DUP1 PUSH1 0x20 MUL PUSH1 0x20 ADD DUP3 ADD PUSH1 0x40 MSTORE DUP1 ISZERO PUSH2 0x6E5 JUMPI DUP2 PUSH1 0x20 ADD PUSH1 0x20 DUP3 MUL DUP1 CALLDATASIZE DUP4 CALLDATACOPY ADD SWAP1 POP JUMPDEST POP PUSH1 0x40 DUP4 ADD MSTORE PUSH1 0x0 JUMPDEST DUP2 MLOAD DUP2 LT ISZERO PUSH2 0x729 JUMPI PUSH2 0x706 DUP3 DUP3 DUP2 MLOAD DUP2 LT PUSH2 0x4A0 JUMPI INVALID JUMPDEST DUP4 PUSH1 0x40 ADD MLOAD DUP3 DUP2 MLOAD DUP2 LT PUSH2 0x716 JUMPI INVALID JUMPDEST PUSH1 0x20 SWAP1 DUP2 MUL SWAP2 SWAP1 SWAP2 ADD ADD MSTORE PUSH1 0x1 ADD PUSH2 0x6EE JUMP JUMPDEST POP PUSH2 0x733 DUP6 PUSH2 0x12C7 JUMP JUMPDEST DUP4 PUSH8 0xFFFFFFFFFFFFFFFF DUP2 GT DUP1 ISZERO PUSH2 0x74A JUMPI PUSH1 0x0 DUP1 REVERT JUMPDEST POP PUSH1 0x40 MLOAD SWAP1 DUP1 DUP3 MSTORE DUP1 PUSH1 0x20 MUL PUSH1 0x20 ADD DUP3 ADD PUSH1 0x40 MSTORE DUP1 ISZERO PUSH2 0x784 JUMPI DUP2 PUSH1 0x20 ADD JUMPDEST PUSH2 0x771 PUSH2 0x5A7D JUMP JUMPDEST DUP2 MSTORE PUSH1 0x20 ADD SWAP1 PUSH1 0x1 SWAP1 SUB SWAP1 DUP2 PUSH2 0x769 JUMPI SWAP1 POP JUMPDEST POP PUSH1 0x60 DUP4 ADD MSTORE PUSH1 0x1 JUMPDEST DUP5 DUP2 GT PUSH2 0x7C4 JUMPI PUSH2 0x79E DUP7 DUP3 PUSH2 0x1316 JUMP JUMPDEST DUP4 PUSH1 0x60 ADD MLOAD PUSH1 0x1 DUP4 SUB DUP2 MLOAD DUP2 LT PUSH2 0x7B1 JUMPI INVALID JUMPDEST PUSH1 0x20 SWAP1 DUP2 MUL SWAP2 SWAP1 SWAP2 ADD ADD MSTORE PUSH1 0x1 ADD PUSH2 0x78D JUMP JUMPDEST POP SWAP1 SWAP2 POP POP JUMPDEST SWAP3 SWAP2 POP POP JUMP JUMPDEST PUSH1 0x0 DUP2 PUSH1 0x1 EQ ISZERO PUSH2 0x7E5 JUMPI POP PUSH3 0x76A700 PUSH2 0x874 JUMP JUMPDEST DUP2 PUSH1 0x2 EQ ISZERO PUSH2 0x7F8 JUMPI POP PUSH3 0xED4E00 PUSH2 0x874 JUMP JUMPDEST DUP2 PUSH1 0x3 EQ ISZERO PUSH2 0x80C JUMPI POP PUSH4 0x1DA9C00 PUSH2 0x874 JUMP JUMPDEST DUP2 PUSH1 0x4 EQ ISZERO PUSH2 0x820 JUMPI POP PUSH4 0x3B53800 PUSH2 0x874 JUMP JUMPDEST DUP2 PUSH1 0x5 EQ ISZERO PUSH2 0x834 JUMPI POP PUSH4 0x9450C00 PUSH2 0x874 JUMP JUMPDEST DUP2 PUSH1 0x6 EQ ISZERO PUSH2 0x848 JUMPI POP PUSH4 0x128A1800 PUSH2 0x874 JUMP JUMPDEST DUP2 PUSH1 0x7 EQ ISZERO PUSH2 0x85C JUMPI POP PUSH4 0x25143000 PUSH2 0x874 JUMP JUMPDEST PUSH1 0x40 MLOAD PUSH3 0x461BCD PUSH1 0xE5 SHL DUP2 MSTORE PUSH1 0x4 ADD PUSH2 0x34A SWAP1 PUSH2 0x5D9B JUMP JUMPDEST SWAP2 SWAP1 POP JUMP JUMPDEST PUSH1 0x0 PUSH3 0x76A700 DUP3 LT ISZERO PUSH2 0x88B JUMPI PUSH1 0x0 DUP1 REVERT JUMPDEST PUSH3 0x76A700 DUP3 JUMPDEST MOD SWAP1 SWAP2 SUB SWAP2 SWAP1 POP JUMP JUMPDEST PUSH1 0x0 DUP3 DUP3 ADD DUP4 DUP2 LT ISZERO PUSH2 0x8AC JUMPI PUSH1 0x0 DUP1 REVERT JUMPDEST SWAP4 SWAP3 POP POP POP JUMP JUMPDEST PUSH1 0x0 DUP1 PUSH2 0x8CE PUSH4 0x5F5E100 PUSH2 0x8C8 DUP10 DUP10 PUSH2 0x1330 JUMP JUMPDEST SWAP1 PUSH2 0x137E JUMP JUMPDEST PUSH1 0x60 DUP6 ADD DUP2 SWAP1 MSTORE PUSH1 0x80 DUP6 ADD DUP2 SWAP1 MSTORE DUP4 MLOAD MLOAD PUSH1 0x20 DUP1 DUP8 ADD MLOAD SWAP1 DUP7 ADD MLOAD SWAP3 SWAP4 POP PUSH2 0x8F9 SWAP3 SWAP2 SWAP1 DUP9 DUP6 PUSH2 0x13AF JUMP JUMPDEST DUP3 MLOAD PUSH1 0x40 ADD MLOAD PUSH2 0x909 SWAP1 DUP3 PUSH2 0x14B2 JUMP JUMPDEST SWAP8 SWAP7 POP POP POP POP POP POP POP JUMP JUMPDEST PUSH1 0x0 PUSH4 0x3B9ACA00 DUP3 LT PUSH2 0x926 JUMPI PUSH1 0x0 DUP1 REVERT JUMPDEST DUP2 PUSH4 0x3B9ACA00 DUP2 SWAP1 SUB PUSH2 0x939 DUP6 DUP4 PUSH2 0x1330 JUMP JUMPDEST DUP2 PUSH2 0x940 JUMPI INVALID JUMPDEST SDIV SWAP5 SWAP4 POP POP POP POP JUMP JUMPDEST PUSH1 0x0 DUP1 DUP4 PUSH1 0x80 ADD MLOAD GT PUSH2 0x95B JUMPI PUSH1 0x0 DUP1 REVERT JUMPDEST PUSH4 0x3B9ACA00 DUP3 GT ISZERO PUSH2 0x96C JUMPI PUSH1 0x0 DUP1 REVERT JUMPDEST DUP3 MLOAD DUP3 GT PUSH2 0x998 JUMPI DUP3 MLOAD PUSH1 0x40 DUP5 ADD MLOAD PUSH2 0x991 SWAP2 SWAP1 PUSH2 0x98B SWAP1 DUP6 SWAP1 PUSH2 0x14DE JUMP JUMPDEST SWAP1 PUSH2 0x1505 JUMP JUMPDEST SWAP1 POP PUSH2 0x7CA JUMP JUMPDEST DUP3 PUSH1 0x20 ADD MLOAD DUP3 GT PUSH2 0x9D0 JUMPI PUSH1 0x40 DUP4 ADD MLOAD DUP4 MLOAD PUSH1 0x20 DUP6 ADD MLOAD PUSH1 0x60 DUP7 ADD MLOAD PUSH2 0x991 SWAP4 SWAP3 PUSH2 0x220 SWAP3 DUP2 SWAP1 SUB SWAP2 PUSH2 0x98B SWAP2 DUP9 SUB SWAP1 DUP6 SWAP1 SUB PUSH2 0x14DE JUMP JUMPDEST PUSH2 0x8AC DUP4 PUSH1 0x60 ADD MLOAD PUSH2 0x220 DUP6 PUSH1 0x20 ADD MLOAD PUSH4 0x3B9ACA00 SUB PUSH2 0x98B DUP8 PUSH1 0x60 ADD MLOAD DUP9 PUSH1 0x80 ADD MLOAD SUB DUP9 PUSH1 0x20 ADD MLOAD DUP9 SUB PUSH2 0x14DE SWAP1 SWAP2 SWAP1 PUSH4 0xFFFFFFFF AND JUMP JUMPDEST PUSH1 0x0 PUSH1 0x3 DUP4 MLOAD LT ISZERO PUSH2 0xA1A JUMPI PUSH1 0x0 DUP1 REVERT JUMPDEST PUSH2 0x8AC DUP4 PUSH1 0x1 DUP2 MLOAD DUP2 LT PUSH2 0xA2A JUMPI INVALID JUMPDEST PUSH1 0x20 MUL PUSH1 0x20 ADD ADD MLOAD PUSH1 0x20 ADD MLOAD DUP5 PUSH1 0x2 DUP2 MLOAD DUP2 LT PUSH2 0xA43 JUMPI INVALID JUMPDEST PUSH1 0x20 MUL PUSH1 0x20 ADD ADD MLOAD PUSH1 0x20 ADD MLOAD DUP6 PUSH1 0x1 DUP2 MLOAD DUP2 LT PUSH2 0xA5C JUMPI INVALID JUMPDEST PUSH1 0x20 MUL PUSH1 0x20 ADD ADD MLOAD PUSH1 0xC0 ADD MLOAD DUP7 PUSH1 0x2 DUP2 MLOAD DUP2 LT PUSH2 0xA75 JUMPI INVALID JUMPDEST PUSH1 0x20 SWAP1 DUP2 MUL SWAP2 SWAP1 SWAP2 ADD ADD MLOAD PUSH1 0xC0 ADD MLOAD PUSH3 0xED4E00 DUP8 ADD PUSH2 0x1524 JUMP JUMPDEST PUSH1 0x20 DUP2 ADD MLOAD PUSH1 0xC0 DUP3 ADD MLOAD PUSH1 0x0 SWAP2 SWAP1 PUSH3 0x76A700 DUP3 ADD DUP3 DUP8 LT PUSH2 0xAAF JUMPI PUSH1 0x0 DUP1 REVERT JUMPDEST DUP6 DUP3 LT PUSH2 0xAD8 JUMPI PUSH2 0xACE DUP7 PUSH2 0x220 DUP10 DUP7 SUB PUSH2 0x98B DUP4 DUP8 SUB DUP13 DUP8 SUB PUSH2 0x14DE JUMP JUMPDEST SWAP4 POP POP POP POP PUSH2 0x8AC JUMP JUMPDEST PUSH1 0x0 PUSH2 0xAEE DUP9 DUP6 SUB PUSH2 0x98B DUP6 DUP11 SUB DUP12 DUP7 SUB PUSH2 0x14DE JUMP JUMPDEST SWAP1 POP DUP1 DUP8 GT PUSH2 0xAFE JUMPI PUSH1 0x1 PUSH2 0xB02 JUMP JUMPDEST DUP1 DUP8 SUB JUMPDEST SWAP5 POP POP POP POP POP PUSH2 0x8AC JUMP JUMPDEST POP POP POP SWAP4 SWAP3 POP POP POP JUMP JUMPDEST PUSH1 0x0 DUP1 DUP4 PUSH1 0x80 ADD MLOAD GT PUSH2 0xB29 JUMPI PUSH1 0x0 DUP1 REVERT JUMPDEST DUP3 PUSH1 0x40 ADD MLOAD DUP3 GT PUSH2 0xB4B JUMPI PUSH1 0x40 DUP4 ADD MLOAD DUP4 MLOAD PUSH2 0x991 SWAP2 SWAP1 PUSH2 0x98B SWAP1 DUP6 SWAP1 PUSH2 0x14DE JUMP JUMPDEST DUP3 PUSH1 0x60 ADD MLOAD DUP3 GT PUSH2 0xB83 JUMPI DUP3 MLOAD PUSH1 0x40 DUP5 ADD MLOAD PUSH1 0x60 DUP6 ADD MLOAD PUSH1 0x20 DUP7 ADD MLOAD PUSH2 0x991 SWAP4 SWAP3 PUSH2 0x220 SWAP3 DUP2 SWAP1 SUB SWAP2 PUSH2 0x98B SWAP2 DUP9 SUB SWAP1 DUP6 SWAP1 SUB PUSH2 0x14DE JUMP JUMPDEST PUSH1 0x20 DUP4 ADD MLOAD PUSH1 0x60 DUP5 ADD MLOAD PUSH1 0x80 DUP6 ADD MLOAD PUSH2 0x8AC SWAP3 SWAP2 PUSH2 0x220 SWAP2 DUP2 SWAP1 SUB SWAP1 PUSH2 0x98B SWAP1 DUP8 SUB PUSH4 0x3B9ACA00 DUP6 SWAP1 SUB PUSH2 0x14DE JUMP JUMPDEST PUSH1 0x0 DUP1 DUP3 SLT ISZERO PUSH2 0xBC1 JUMPI PUSH1 0x0 DUP1 REVERT JUMPDEST POP SWAP1 JUMP JUMPDEST PUSH1 0x0 PUSH3 0x76A700 PUSH2 0xBD4 TIMESTAMP PUSH2 0x879 JUMP JUMPDEST ADD SWAP1 POP PUSH2 0xBE6 DUP5 PUSH2 0xFFFF DUP6 AND DUP4 PUSH2 0x1582 JUMP JUMPDEST PUSH2 0x113 DUP3 PUSH1 0xC0 ADD MLOAD DUP5 DUP7 PUSH1 0x20 ADD MLOAD DUP6 PUSH1 0x80 ADD MLOAD PUSH2 0xC06 DUP10 PUSH1 0x40 ADD MLOAD PUSH2 0x15E9 JUMP JUMPDEST PUSH2 0x15F7 JUMP JUMPDEST PUSH1 0x0 DUP1 DUP1 DUP1 DUP1 DUP1 DUP1 DUP1 JUMPDEST DUP10 MLOAD MLOAD DUP2 LT ISZERO PUSH2 0xC9C JUMPI PUSH1 0x0 DUP11 PUSH1 0x0 ADD MLOAD DUP3 DUP2 MLOAD DUP2 LT PUSH2 0xC31 JUMPI INVALID JUMPDEST PUSH1 0x20 MUL PUSH1 0x20 ADD ADD MLOAD SWAP1 POP PUSH1 0x3 DUP1 DUP2 GT ISZERO PUSH2 0xC47 JUMPI INVALID JUMPDEST DUP2 PUSH1 0xA0 ADD MLOAD PUSH1 0x3 DUP2 GT ISZERO PUSH2 0xC57 JUMPI INVALID JUMPDEST EQ ISZERO PUSH2 0xC62 JUMPI PUSH1 0x0 DUP1 REVERT JUMPDEST PUSH1 0x2 DUP2 PUSH1 0xA0 ADD MLOAD PUSH1 0x3 DUP2 GT ISZERO PUSH2 0xC74 JUMPI INVALID JUMPDEST EQ ISZERO DUP1 ISZERO PUSH2 0xC84 JUMPI POP PUSH1 0x60 DUP2 ADD MLOAD ISZERO JUMPDEST ISZERO PUSH2 0xC93 JUMPI PUSH2 0xC93 DUP12 DUP4 PUSH2 0x1753 JUMP JUMPDEST POP PUSH1 0x1 ADD PUSH2 0xC15 JUMP JUMPDEST POP PUSH1 0x0 JUMPDEST DUP10 MLOAD MLOAD DUP2 LT ISZERO PUSH2 0xD3F JUMPI PUSH1 0x0 DUP11 PUSH1 0x0 ADD MLOAD DUP3 DUP2 MLOAD DUP2 LT PUSH2 0xCBC JUMPI INVALID JUMPDEST PUSH1 0x20 MUL PUSH1 0x20 ADD ADD MLOAD SWAP1 POP PUSH1 0x2 PUSH1 0x3 DUP2 GT ISZERO PUSH2 0xCD3 JUMPI INVALID JUMPDEST DUP2 PUSH1 0xA0 ADD MLOAD PUSH1 0x3 DUP2 GT ISZERO PUSH2 0xCE3 JUMPI INVALID JUMPDEST EQ ISZERO PUSH2 0xCF7 JUMPI PUSH1 0x80 DUP2 ADD MLOAD PUSH1 0x0 SWAP1 SSTORE PUSH2 0xD36 JUMP JUMPDEST PUSH1 0x1 DUP2 PUSH1 0xA0 ADD MLOAD PUSH1 0x3 DUP2 GT ISZERO PUSH2 0xD09 JUMPI INVALID JUMPDEST EQ ISZERO PUSH2 0xD22 JUMPI PUSH1 0x80 DUP2 ADD MLOAD DUP1 PUSH2 0xD1F DUP4 DUP3 PUSH2 0x18A3 JUMP JUMPDEST POP POP JUMPDEST PUSH2 0xD2E DUP2 DUP7 DUP7 DUP7 PUSH2 0x19D2 JUMP JUMPDEST SWAP2 SWAP7 POP SWAP5 POP SWAP3 POP JUMPDEST POP PUSH1 0x1 ADD PUSH2 0xCA0 JUMP JUMPDEST POP PUSH1 0x60 DUP10 ADD MLOAD PUSH1 0x0 PUSH2 0xD4F PUSH2 0x1A40 JUMP JUMPDEST PUSH1 0x1 PUSH1 0x1 PUSH1 0xA0 SHL SUB DUP12 AND PUSH1 0x0 SWAP1 DUP2 MSTORE PUSH1 0x20 DUP3 SWAP1 MSTORE PUSH1 0x40 DUP2 KECCAK256 SWAP2 SWAP3 POP JUMPDEST DUP13 PUSH1 0x20 ADD MLOAD MLOAD DUP2 LT ISZERO PUSH2 0xE19 JUMPI PUSH1 0x0 DUP14 PUSH1 0x20 ADD MLOAD DUP3 DUP2 MLOAD DUP2 LT PUSH2 0xD8A JUMPI INVALID JUMPDEST PUSH1 0x20 MUL PUSH1 0x20 ADD ADD MLOAD SWAP1 POP DUP1 PUSH1 0x60 ADD MLOAD PUSH1 0x0 EQ ISZERO PUSH2 0xDA7 JUMPI POP PUSH2 0xE11 JUMP JUMPDEST PUSH1 0x2 DUP2 PUSH1 0xA0 ADD MLOAD PUSH1 0x3 DUP2 GT ISZERO PUSH2 0xDB9 JUMPI INVALID JUMPDEST EQ ISZERO DUP1 ISZERO PUSH2 0xDD7 JUMPI POP PUSH1 0x3 DUP2 PUSH1 0xA0 ADD MLOAD PUSH1 0x3 DUP2 GT ISZERO PUSH2 0xDD4 JUMPI INVALID JUMPDEST EQ ISZERO JUMPDEST PUSH2 0xDE0 JUMPI PUSH1 0x0 DUP1 REVERT JUMPDEST PUSH2 0xDEC DUP2 DUP10 DUP10 DUP10 PUSH2 0x19D2 JUMP JUMPDEST SWAP2 SWAP10 POP SWAP8 POP SWAP6 POP PUSH2 0xE09 DUP2 DUP5 DUP8 PUSH1 0x8 DUP2 LT PUSH2 0xE03 JUMPI INVALID JUMPDEST ADD PUSH2 0x18A3 JUMP JUMPDEST PUSH1 0x1 DUP6 ADD SWAP5 POP POP JUMPDEST PUSH1 0x1 ADD PUSH2 0xD6B JUMP JUMPDEST POP PUSH1 0x10 DUP4 GT ISZERO PUSH2 0xE28 JUMPI PUSH1 0x0 DUP1 REVERT JUMPDEST PUSH5 0xFFFFFFFFFF DUP5 GT ISZERO PUSH2 0xE3A JUMPI PUSH1 0x0 DUP1 REVERT JUMPDEST POP SWAP4 SWAP11 SWAP3 SWAP10 POP SWAP8 POP SWAP6 POP SWAP4 POP POP POP POP JUMP JUMPDEST PUSH2 0xE56 DUP4 DUP4 DUP4 PUSH2 0x1A4D JUMP JUMPDEST POP POP POP JUMP JUMPDEST PUSH4 0xFFFFFFFF DUP2 LT PUSH2 0xE6B JUMPI PUSH1 0x0 DUP1 REVERT JUMPDEST PUSH1 0x0 PUSH2 0xE75 PUSH2 0x1AC1 JUMP JUMPDEST PUSH1 0x1 PUSH1 0x1 PUSH1 0xA0 SHL SUB SWAP1 SWAP5 AND PUSH1 0x0 SWAP1 DUP2 MSTORE PUSH1 0x20 SWAP5 SWAP1 SWAP5 MSTORE POP PUSH1 0x40 SWAP1 SWAP3 KECCAK256 DUP1 SLOAD PUSH1 0xFF SWAP1 SWAP3 AND PUSH1 0x1 PUSH1 0x50 SHL MUL PUSH1 0xFF PUSH1 0x50 SHL NOT PUSH4 0xFFFFFFFF SWAP1 SWAP5 AND PUSH1 0x1 PUSH1 0x30 SHL MUL PUSH10 0xFFFFFFFF000000000000 NOT SWAP1 SWAP4 AND SWAP3 SWAP1 SWAP3 OR SWAP3 SWAP1 SWAP3 AND OR SWAP1 SSTORE JUMP JUMPDEST PUSH2 0xEDB DUP2 PUSH2 0xFFFF AND PUSH2 0x1ACE JUMP JUMPDEST PUSH1 0x1 PUSH1 0x1 PUSH1 0xA0 SHL SUB AND PUSH1 0xC0 DUP4 ADD DUP2 SWAP1 MSTORE PUSH1 0x0 SWAP1 DUP2 SWAP1 DUP2 SWAP1 PUSH2 0xEFB SWAP1 PUSH2 0x1AF4 JUMP JUMPDEST SWAP5 POP SWAP5 POP SWAP5 POP POP POP PUSH1 0x0 PUSH2 0xF12 DUP7 PUSH1 0xC0 ADD MLOAD PUSH2 0x1B5D JUMP JUMPDEST POP POP PUSH1 0x80 DUP8 ADD DUP6 SWAP1 MSTORE PUSH1 0x40 DUP8 ADD DUP2 SWAP1 MSTORE PUSH1 0x1 PUSH1 0x1 PUSH1 0xD0 SHL SUB NOT DUP4 AND PUSH1 0xA0 DUP9 ADD MSTORE PUSH1 0xC0 DUP8 ADD MLOAD SWAP1 SWAP2 POP PUSH2 0xF46 SWAP1 DUP5 PUSH1 0x0 PUSH2 0x1BBE JUMP JUMPDEST PUSH1 0x20 DUP8 ADD MSTORE PUSH1 0xC0 DUP7 ADD MLOAD PUSH2 0xF5A SWAP1 DUP7 PUSH2 0x1C51 JUMP JUMPDEST PUSH1 0x60 SWAP1 SWAP7 ADD SWAP6 SWAP1 SWAP6 MSTORE POP POP POP POP POP JUMP JUMPDEST PUSH2 0xF72 PUSH2 0x5AC2 JUMP JUMPDEST PUSH1 0x0 PUSH2 0xF7D DUP4 PUSH2 0x1CAA JUMP JUMPDEST SWAP1 POP PUSH2 0x8AC DUP4 DUP3 PUSH2 0x1CBC JUMP JUMPDEST PUSH1 0x0 PUSH3 0x15180 DUP3 LT ISZERO PUSH2 0xF9B JUMPI PUSH1 0x0 DUP1 REVERT JUMPDEST PUSH3 0x15180 DUP3 PUSH2 0x891 JUMP JUMPDEST PUSH1 0x0 PUSH2 0xFB0 DUP3 PUSH2 0x879 JUMP JUMPDEST SWAP1 POP DUP1 DUP4 PUSH1 0x80 ADD MLOAD LT PUSH2 0xFC2 JUMPI PUSH1 0x0 DUP1 REVERT JUMPDEST PUSH1 0x0 DUP1 PUSH2 0xFCF DUP6 DUP6 PUSH2 0x1CFF JUMP JUMPDEST SWAP2 POP SWAP2 POP PUSH1 0x0 DUP1 PUSH1 0x0 PUSH2 0xFFD DUP9 PUSH1 0xC0 ADD MLOAD DUP10 PUSH1 0x0 ADD MLOAD PUSH1 0x0 ADD MLOAD DUP11 PUSH1 0x80 ADD MLOAD DUP11 DUP13 PUSH1 0x0 ADD MLOAD PUSH1 0x40 ADD MLOAD PUSH2 0x1E2E JUMP JUMPDEST SWAP2 SWAP5 POP SWAP3 POP SWAP1 POP PUSH2 0x100E DUP4 DUP6 PUSH2 0x1F86 JUMP JUMPDEST PUSH1 0x60 DUP10 ADD MLOAD SWAP1 SWAP4 POP PUSH2 0x1020 SWAP1 DUP7 PUSH2 0x1F86 JUMP JUMPDEST PUSH1 0x60 DUP10 ADD DUP2 SWAP1 MSTORE PUSH1 0xC0 DUP10 ADD MLOAD DUP10 MLOAD DUP1 MLOAD PUSH1 0x40 SWAP1 SWAP2 ADD MLOAD PUSH2 0x1045 SWAP4 SWAP1 SWAP3 SWAP2 SWAP1 DUP8 DUP8 PUSH2 0x1F9C JUMP JUMPDEST PUSH1 0x60 DUP10 ADD DUP2 SWAP1 MSTORE PUSH1 0x0 SLT PUSH2 0x1058 JUMPI PUSH1 0x0 DUP1 REVERT JUMPDEST PUSH2 0x1061 DUP2 PUSH2 0x2067 JUMP JUMPDEST PUSH5 0xFFFFFFFFFF AND PUSH1 0x80 SWAP1 SWAP9 ADD SWAP8 SWAP1 SWAP8 MSTORE POP POP POP POP POP POP POP JUMP JUMPDEST PUSH1 0x0 PUSH2 0x1089 DUP4 PUSH1 0x0 ADD MLOAD PUSH2 0x207B JUMP JUMPDEST SWAP1 POP PUSH1 0x0 PUSH2 0x1096 DUP6 PUSH2 0x879 JUMP JUMPDEST SWAP1 POP PUSH1 0x1 JUMPDEST PUSH1 0x20 DUP6 ADD MLOAD MLOAD MLOAD DUP2 LT ISZERO PUSH2 0x1101 JUMPI PUSH2 0x10F9 DUP8 DUP7 PUSH1 0x20 ADD MLOAD PUSH1 0x0 ADD MLOAD DUP4 DUP2 MLOAD DUP2 LT PUSH2 0x10C1 JUMPI INVALID JUMPDEST PUSH1 0x20 MUL PUSH1 0x20 ADD ADD MLOAD PUSH1 0x20 ADD MLOAD DUP9 PUSH1 0x0 DUP8 DUP8 DUP11 DUP9 DUP2 MLOAD DUP2 LT PUSH2 0x10DE JUMPI INVALID JUMPDEST PUSH1 0x20 MUL PUSH1 0x20 ADD ADD MLOAD PUSH2 0x208F SWAP1 SWAP7 SWAP6 SWAP5 SWAP4 SWAP3 SWAP2 SWAP1 PUSH4 0xFFFFFFFF AND JUMP JUMPDEST PUSH1 0x1 ADD PUSH2 0x109B JUMP JUMPDEST POP POP POP POP POP POP POP JUMP JUMPDEST PUSH1 0x0 DUP1 PUSH2 0x1127 DUP6 PUSH1 0xC0 ADD MLOAD DUP7 PUSH1 0x0 ADD MLOAD PUSH1 0x0 ADD MLOAD PUSH2 0xFFFF AND PUSH2 0x20C6 JUMP JUMPDEST PUSH1 0xA0 DUP7 ADD MLOAD DUP6 MLOAD SWAP2 SWAP3 POP PUSH1 0x1 BYTE PUSH3 0xF4240 MUL SWAP1 PUSH1 0x0 SWAP1 ISZERO PUSH2 0x1154 JUMPI PUSH2 0x114F DUP6 PUSH3 0x76A700 PUSH2 0x20FB JUMP JUMPDEST PUSH2 0x1156 JUMP JUMPDEST DUP5 JUMPDEST SWAP1 POP PUSH1 0x0 PUSH2 0x1163 DUP5 PUSH2 0x2110 JUMP JUMPDEST SWAP1 POP JUMPDEST DUP1 ISZERO PUSH2 0x1229 JUMPI PUSH1 0x0 PUSH2 0x117C DUP10 PUSH1 0x80 ADD MLOAD DUP4 PUSH2 0x2135 JUMP JUMPDEST SWAP1 POP PUSH1 0x0 PUSH2 0x1193 DUP11 PUSH1 0x0 ADD MLOAD PUSH1 0x20 ADD MLOAD DUP4 DUP11 PUSH2 0x21E8 JUMP JUMPDEST SWAP1 POP DUP1 PUSH2 0x1209 JUMPI PUSH1 0xC0 DUP11 ADD MLOAD DUP11 MLOAD MLOAD PUSH1 0x0 SWAP2 PUSH2 0x11B3 SWAP2 PUSH2 0xFFFF AND DUP6 PUSH2 0x228D JUMP JUMPDEST SWAP1 POP PUSH1 0x0 DUP2 SLT ISZERO PUSH2 0x1207 JUMPI DUP11 MLOAD PUSH1 0x0 SWAP1 PUSH2 0x11CE SWAP1 DUP6 DUP9 PUSH2 0x22D2 JUMP JUMPDEST SWAP1 POP DUP1 DUP8 GT ISZERO PUSH2 0x11E0 JUMPI POP PUSH1 0x0 PUSH2 0x11ED JUMP JUMPDEST PUSH2 0x11EA DUP2 DUP9 PUSH2 0x20FB JUMP JUMPDEST SWAP1 POP JUMPDEST PUSH2 0x1203 PUSH2 0x11FC DUP4 DUP7 DUP14 DUP6 PUSH2 0x23B2 JUMP JUMPDEST DUP11 SWAP1 PUSH2 0x2405 JUMP JUMPDEST SWAP9 POP POP JUMPDEST POP JUMPDEST PUSH2 0x1215 DUP7 DUP5 PUSH1 0x0 PUSH2 0x241B JUMP JUMPDEST SWAP6 POP PUSH2 0x1220 DUP7 PUSH2 0x2110 JUMP JUMPDEST SWAP3 POP POP POP PUSH2 0x1166 JUMP JUMPDEST DUP8 MLOAD PUSH1 0x40 ADD MLOAD PUSH2 0x1239 SWAP1 DUP7 PUSH2 0x2466 JUMP JUMPDEST SWAP9 SWAP8 POP POP POP POP POP POP POP POP JUMP JUMPDEST PUSH1 0x0 PUSH2 0x1251 DUP4 DUP4 PUSH2 0x2405 JUMP JUMPDEST SWAP1 POP PUSH1 0x0 DUP2 SLT ISZERO PUSH2 0x7CA JUMPI PUSH1 0x0 DUP1 REVERT JUMPDEST PUSH1 0x60 DUP1 PUSH1 0x0 PUSH2 0x126E PUSH2 0x2488 JUMP JUMPDEST PUSH1 0x0 DUP7 DUP2 MSTORE PUSH1 0x20 DUP3 SWAP1 MSTORE PUSH1 0x40 SWAP1 KECCAK256 SWAP1 SWAP2 POP PUSH2 0x1289 DUP2 DUP7 PUSH2 0x2495 JUMP JUMPDEST SWAP1 SWAP8 SWAP1 SWAP7 POP SWAP5 POP POP POP POP POP JUMP JUMPDEST PUSH1 0x60 PUSH1 0x0 PUSH2 0x12A2 PUSH2 0x25DB JUMP JUMPDEST PUSH1 0x0 DUP6 DUP2 MSTORE PUSH1 0x20 DUP3 SWAP1 MSTORE PUSH1 0x40 SWAP1 KECCAK256 SWAP1 SWAP2 POP PUSH2 0x12BD DUP2 DUP6 PUSH2 0x2495 JUMP JUMPDEST SWAP7 SWAP6 POP POP POP POP POP POP JUMP JUMPDEST PUSH1 0x0 PUSH2 0x12D1 PUSH2 0x25E8 JUMP JUMPDEST PUSH2 0xFFFF DUP4 AND PUSH1 0x0 SWAP1 DUP2 MSTORE PUSH1 0x20 SWAP2 SWAP1 SWAP2 MSTORE PUSH1 0x40 DUP2 KECCAK256 SWAP2 POP PUSH2 0x12EF PUSH2 0x25F5 JUMP JUMPDEST PUSH2 0xFFFF SWAP4 SWAP1 SWAP4 AND PUSH1 0x0 SWAP1 DUP2 MSTORE PUSH1 0x20 SWAP4 SWAP1 SWAP4 MSTORE POP PUSH1 0x40 SWAP1 SWAP2 KECCAK256 DUP2 SLOAD DUP2 SSTORE PUSH1 0x1 SWAP2 DUP3 ADD SLOAD SWAP2 ADD SSTORE JUMP JUMPDEST PUSH2 0x131E PUSH2 0x5A7D JUMP JUMPDEST PUSH2 0x8AC DUP4 DUP4 PUSH2 0x132B PUSH2 0x25F5 JUMP JUMPDEST PUSH2 0x2602 JUMP JUMPDEST DUP2 DUP2 MUL PUSH1 0x0 NOT DUP4 EQ ISZERO PUSH2 0x1360 JUMPI DUP2 ISZERO DUP1 PUSH2 0x1352 JUMPI POP DUP3 DUP3 DUP3 DUP2 PUSH2 0x134F JUMPI INVALID JUMPDEST SDIV EQ JUMPDEST PUSH2 0x135B JUMPI PUSH1 0x0 DUP1 REVERT JUMPDEST PUSH2 0x7CA JUMP JUMPDEST DUP3 ISZERO DUP1 PUSH2 0x1375 JUMPI POP DUP2 DUP4 DUP3 DUP2 PUSH2 0x1372 JUMPI INVALID JUMPDEST SDIV EQ JUMPDEST PUSH2 0x7CA JUMPI PUSH1 0x0 DUP1 REVERT JUMPDEST PUSH1 0x0 DUP2 PUSH1 0x0 NOT EQ DUP1 ISZERO PUSH2 0x1394 JUMPI POP PUSH1 0x1 PUSH1 0xFF SHL DUP4 EQ JUMPDEST ISZERO PUSH2 0x139E JUMPI PUSH1 0x0 DUP1 REVERT JUMPDEST DUP2 DUP4 DUP2 PUSH2 0x13A7 JUMPI INVALID JUMPDEST SDIV SWAP4 SWAP3 POP POP POP JUMP JUMPDEST DUP5 MLOAD PUSH2 0x13BE SWAP1 DUP6 DUP6 DUP6 DUP6 PUSH2 0x2659 JUMP JUMPDEST ISZERO PUSH2 0x13C8 JUMPI PUSH2 0x113 JUMP JUMPDEST PUSH1 0x40 DUP6 ADD MLOAD ISZERO PUSH2 0x13F5 JUMPI PUSH1 0x0 PUSH2 0x13E5 DUP7 PUSH1 0x20 ADD MLOAD DUP7 DUP7 DUP7 DUP7 PUSH2 0x2659 JUMP JUMPDEST SWAP1 POP DUP1 ISZERO PUSH2 0x13F3 JUMPI POP PUSH2 0x113 JUMP JUMPDEST POP JUMPDEST PUSH2 0x13FE DUP3 PUSH2 0x2775 JUMP JUMPDEST ISZERO PUSH2 0x1411 JUMPI PUSH1 0x0 DUP2 SLT ISZERO PUSH2 0x1411 JUMPI PUSH1 0x0 DUP1 REVERT JUMPDEST PUSH1 0x1 PUSH1 0x1 PUSH1 0x57 SHL SUB NOT DUP2 SLT DUP1 ISZERO SWAP1 PUSH2 0x1430 JUMPI POP PUSH1 0x1 PUSH1 0x1 PUSH1 0x57 SHL SUB DUP2 SGT ISZERO JUMPDEST PUSH2 0x1439 JUMPI PUSH1 0x0 DUP1 REVERT JUMPDEST DUP5 PUSH1 0x20 ADD MLOAD MLOAD DUP6 PUSH1 0x40 ADD MLOAD EQ ISZERO PUSH2 0x145D JUMPI PUSH2 0x1457 DUP6 PUSH1 0x20 ADD MLOAD PUSH2 0x278B JUMP JUMPDEST PUSH1 0x20 DUP7 ADD MSTORE JUMPDEST PUSH1 0x0 DUP6 PUSH1 0x20 ADD MLOAD DUP7 PUSH1 0x40 ADD MLOAD DUP2 MLOAD DUP2 LT PUSH2 0x1473 JUMPI INVALID JUMPDEST PUSH1 0x20 SWAP1 DUP2 MUL SWAP2 SWAP1 SWAP2 ADD DUP2 ADD MLOAD PUSH2 0xFFFF SWAP7 SWAP1 SWAP7 AND DUP7 MSTORE DUP6 ADD SWAP4 SWAP1 SWAP4 MSTORE PUSH1 0x40 DUP1 DUP6 ADD SWAP3 SWAP1 SWAP3 MSTORE PUSH1 0x60 DUP5 ADD MSTORE PUSH1 0x0 PUSH1 0xA0 SWAP1 SWAP4 ADD SWAP3 SWAP1 SWAP3 MSTORE POP ADD DUP1 MLOAD PUSH1 0x1 ADD SWAP1 MSTORE JUMP JUMPDEST PUSH1 0x0 PUSH2 0x8AC PUSH15 0xC097CE7BC90715B34B9F1000000000 PUSH2 0x8C8 DUP6 PUSH1 0x0 ADD MLOAD DUP6 PUSH2 0x1330 SWAP1 SWAP2 SWAP1 PUSH4 0xFFFFFFFF AND JUMP JUMPDEST PUSH1 0x0 DUP3 PUSH2 0x14ED JUMPI POP PUSH1 0x0 PUSH2 0x7CA JUMP JUMPDEST DUP3 DUP3 MUL DUP3 DUP5 DUP3 DUP2 PUSH2 0x14FA JUMPI INVALID JUMPDEST DIV EQ PUSH2 0x8AC JUMPI PUSH1 0x0 DUP1 REVERT JUMPDEST PUSH1 0x0 DUP1 DUP3 GT PUSH2 0x1513 JUMPI PUSH1 0x0 DUP1 REVERT JUMPDEST DUP2 DUP4 DUP2 PUSH2 0x151C JUMPI INVALID JUMPDEST DIV SWAP4 SWAP3 POP POP POP JUMP JUMPDEST PUSH1 0x0 DUP2 DUP7 LT PUSH2 0x1532 JUMPI PUSH1 0x0 DUP1 REVERT JUMPDEST DUP5 DUP3 LT PUSH2 0x153E JUMPI PUSH1 0x0 DUP1 REVERT JUMPDEST DUP4 DUP4 LT PUSH2 0x1564 JUMPI PUSH2 0x155D DUP5 PUSH2 0x220 DUP9 DUP9 SUB PUSH2 0x98B DUP4 DUP9 SUB DUP12 DUP9 SUB PUSH2 0x14DE JUMP JUMPDEST SWAP1 POP PUSH2 0x663 JUMP JUMPDEST PUSH2 0x155D PUSH2 0x157B DUP8 DUP8 SUB PUSH2 0x98B DUP7 DUP9 SUB DUP11 DUP8 SUB PUSH2 0x14DE JUMP JUMPDEST DUP6 SWAP1 PUSH2 0x20FB JUMP JUMPDEST PUSH1 0x0 PUSH2 0x158C PUSH2 0x2844 JUMP JUMPDEST PUSH1 0x0 DUP5 DUP2 MSTORE PUSH1 0x20 DUP3 DUP2 MSTORE PUSH1 0x40 DUP1 DUP4 KECCAK256 DUP9 DUP4 ADD MLOAD DUP5 MSTORE DUP3 MSTORE DUP1 DUP4 KECCAK256 DUP7 DUP5 MSTORE SWAP1 SWAP2 MSTORE SWAP1 DUP2 SWAP1 KECCAK256 SWAP1 DUP7 ADD MLOAD PUSH1 0x60 DUP8 ADD MLOAD PUSH1 0xA0 DUP9 ADD MLOAD PUSH1 0xC0 DUP10 ADD MLOAD PUSH1 0xE0 DUP11 ADD MLOAD SWAP6 SWAP7 POP SWAP4 SWAP5 PUSH2 0x15DB SWAP5 DUP7 SWAP5 SWAP4 SWAP3 SWAP2 PUSH2 0x2851 JUMP JUMPDEST PUSH2 0x113 DUP2 DUP7 PUSH1 0x80 ADD MLOAD PUSH2 0x2962 JUMP JUMPDEST PUSH1 0x0 PUSH2 0x7CA PUSH1 0x0 NOT DUP4 PUSH2 0x1330 JUMP JUMPDEST PUSH1 0x0 DUP1 PUSH2 0x1608 DUP8 DUP8 PUSH2 0xFFFF AND PUSH2 0x20C6 JUMP JUMPDEST SWAP1 POP PUSH1 0x0 PUSH2 0x1614 PUSH2 0x29A8 JUMP JUMPDEST PUSH1 0x1 PUSH1 0x1 PUSH1 0xA0 SHL SUB DUP10 AND PUSH1 0x0 SWAP1 DUP2 MSTORE PUSH1 0x20 DUP3 DUP2 MSTORE PUSH1 0x40 DUP1 DUP4 KECCAK256 PUSH2 0xFFFF DUP13 AND DUP5 MSTORE DUP3 MSTORE DUP1 DUP4 KECCAK256 DUP11 DUP5 MSTORE SWAP1 SWAP2 MSTORE DUP2 KECCAK256 SWAP2 SWAP3 POP DUP1 PUSH2 0x164F DUP9 DUP11 PUSH2 0x29B5 JUMP JUMPDEST SWAP2 POP SWAP2 POP DUP1 PUSH2 0x165D JUMPI PUSH1 0x0 DUP1 REVERT JUMPDEST PUSH2 0x1667 DUP6 DUP4 PUSH2 0x2ABD JUMP JUMPDEST ISZERO PUSH2 0x16EA JUMPI DUP3 SLOAD PUSH1 0xF SWAP1 DUP2 SIGNEXTEND SWAP1 SIGNEXTEND PUSH1 0x0 PUSH2 0x1681 DUP10 DUP4 PUSH2 0x1F86 JUMP JUMPDEST SWAP1 POP PUSH2 0x168C DUP2 PUSH2 0x2AED JUMP JUMPDEST DUP6 SLOAD PUSH1 0xF SWAP2 SWAP1 SWAP2 SIGNEXTEND PUSH1 0x1 PUSH1 0x1 PUSH1 0x80 SHL SUB AND PUSH1 0x1 PUSH1 0x1 PUSH1 0x80 SHL SUB NOT SWAP1 SWAP2 AND OR DUP6 SSTORE PUSH2 0x16B9 DUP14 DUP14 DUP14 DUP6 DUP6 PUSH2 0x2B17 JUMP JUMPDEST DUP1 PUSH2 0x16CD JUMPI PUSH2 0x16CA DUP8 DUP6 PUSH1 0x0 PUSH2 0x241B JUMP JUMPDEST SWAP7 POP JUMPDEST PUSH2 0x16DC DUP14 DUP14 PUSH2 0xFFFF AND DUP10 PUSH2 0x2BEC JUMP JUMPDEST SWAP7 POP PUSH2 0x663 SWAP6 POP POP POP POP POP POP JUMP JUMPDEST DUP7 ISZERO PUSH2 0x1744 JUMPI PUSH2 0x16F9 DUP8 PUSH2 0x2AED JUMP JUMPDEST DUP4 SLOAD PUSH1 0xF SWAP2 SWAP1 SWAP2 SIGNEXTEND PUSH1 0x1 PUSH1 0x1 PUSH1 0x80 SHL SUB AND PUSH1 0x1 PUSH1 0x1 PUSH1 0x80 SHL SUB NOT SWAP1 SWAP2 AND OR DUP4 SSTORE PUSH2 0x1727 DUP12 DUP12 DUP12 PUSH1 0x0 DUP12 PUSH2 0x2B17 JUMP JUMPDEST PUSH2 0x1733 DUP6 DUP4 PUSH1 0x1 PUSH2 0x241B JUMP JUMPDEST SWAP5 POP PUSH2 0x1744 DUP12 DUP12 PUSH2 0xFFFF AND DUP8 PUSH2 0x2BEC JUMP JUMPDEST POP SWAP5 SWAP10 SWAP9 POP POP POP POP POP POP POP POP POP JUMP JUMPDEST DUP2 MLOAD MLOAD DUP2 LT PUSH2 0x1761 JUMPI PUSH1 0x0 DUP1 REVERT JUMPDEST PUSH1 0x0 DUP3 PUSH1 0x60 ADD MLOAD GT PUSH2 0x1772 JUMPI PUSH1 0x0 DUP1 REVERT JUMPDEST PUSH1 0x0 DUP3 PUSH1 0x0 ADD MLOAD DUP3 DUP2 MLOAD DUP2 LT PUSH2 0x1784 JUMPI INVALID JUMPDEST PUSH1 0x20 MUL PUSH1 0x20 ADD ADD MLOAD SWAP1 POP PUSH1 0x2 PUSH1 0x3 DUP2 GT ISZERO PUSH2 0x179B JUMPI INVALID JUMPDEST DUP2 PUSH1 0xA0 ADD MLOAD PUSH1 0x3 DUP2 GT ISZERO PUSH2 0x17AB JUMPI INVALID JUMPDEST EQ ISZERO DUP1 ISZERO PUSH2 0x17C9 JUMPI POP PUSH1 0x3 DUP2 PUSH1 0xA0 ADD MLOAD PUSH1 0x3 DUP2 GT ISZERO PUSH2 0x17C6 JUMPI INVALID JUMPDEST EQ ISZERO JUMPDEST PUSH2 0x17D2 JUMPI PUSH1 0x0 DUP1 REVERT JUMPDEST PUSH1 0x60 DUP4 ADD DUP1 MLOAD PUSH1 0x0 NOT ADD SWAP1 MSTORE PUSH1 0x0 DUP1 DUP1 JUMPDEST DUP6 MLOAD MLOAD DUP2 LT ISZERO PUSH2 0x1845 JUMPI PUSH1 0x0 DUP7 PUSH1 0x0 ADD MLOAD DUP3 DUP2 MLOAD DUP2 LT PUSH2 0x17FF JUMPI INVALID JUMPDEST PUSH1 0x20 MUL PUSH1 0x20 ADD ADD MLOAD SWAP1 POP DUP3 DUP2 PUSH1 0x80 ADD MLOAD GT DUP1 ISZERO PUSH2 0x182C JUMPI POP PUSH1 0x2 DUP2 PUSH1 0xA0 ADD MLOAD PUSH1 0x3 DUP2 GT ISZERO PUSH2 0x1829 JUMPI INVALID JUMPDEST EQ ISZERO JUMPDEST ISZERO PUSH2 0x183C JUMPI DUP1 PUSH1 0x80 ADD MLOAD SWAP3 POP DUP2 SWAP4 POP JUMPDEST POP PUSH1 0x1 ADD PUSH2 0x17E3 JUMP JUMPDEST POP DUP2 DUP5 EQ ISZERO PUSH2 0x185E JUMPI POP POP PUSH1 0x2 PUSH1 0xA0 SWAP2 SWAP1 SWAP2 ADD MSTORE PUSH2 0x189F JUMP JUMPDEST PUSH1 0x0 DUP6 PUSH1 0x0 ADD MLOAD DUP4 DUP2 MLOAD DUP2 LT PUSH2 0x1870 JUMPI INVALID JUMPDEST PUSH1 0x20 SWAP1 DUP2 MUL SWAP2 SWAP1 SWAP2 ADD ADD MLOAD PUSH1 0x80 DUP6 DUP2 ADD DUP1 MLOAD SWAP2 DUP4 ADD DUP1 MLOAD SWAP1 SWAP2 MSTORE MSTORE PUSH1 0x1 PUSH1 0xA0 SWAP2 DUP3 ADD MSTORE PUSH1 0x2 SWAP5 ADD SWAP4 SWAP1 SWAP4 MSTORE POP POP POP JUMPDEST POP POP JUMP JUMPDEST DUP2 MLOAD PUSH2 0xFFFF AND ISZERO DUP1 ISZERO SWAP1 PUSH2 0x18C0 JUMPI POP DUP2 MLOAD PUSH2 0x3FFF PUSH2 0xFFFF SWAP1 SWAP2 AND GT ISZERO JUMPDEST PUSH2 0x18C9 JUMPI PUSH1 0x0 DUP1 REVERT JUMPDEST DUP2 PUSH1 0x20 ADD MLOAD PUSH1 0x0 LT DUP1 ISZERO PUSH2 0x18E6 JUMPI POP PUSH1 0x20 DUP3 ADD MLOAD PUSH5 0xFFFFFFFFFF LT ISZERO JUMPDEST PUSH2 0x18EF JUMPI PUSH1 0x0 DUP1 REVERT JUMPDEST DUP2 PUSH1 0x40 ADD MLOAD PUSH1 0x0 LT DUP1 ISZERO PUSH2 0x1908 JUMPI POP PUSH1 0x40 DUP3 ADD MLOAD PUSH1 0x8 LT ISZERO JUMPDEST PUSH2 0x1911 JUMPI PUSH1 0x0 DUP1 REVERT JUMPDEST PUSH1 0x60 DUP3 ADD MLOAD PUSH1 0x1 PUSH1 0x1 PUSH1 0x57 SHL SUB NOT SGT DUP1 ISZERO SWAP1 PUSH2 0x1938 JUMPI POP PUSH1 0x60 DUP3 ADD MLOAD PUSH1 0x1 PUSH1 0x1 PUSH1 0x57 SHL SUB SLT ISZERO JUMPDEST PUSH2 0x1941 JUMPI PUSH1 0x0 DUP1 REVERT JUMPDEST DUP2 MLOAD DUP2 SLOAD PUSH1 0x20 DUP5 ADD MLOAD PUSH1 0x40 DUP6 ADD MLOAD PUSH1 0x60 SWAP1 SWAP6 ADD MLOAD PUSH1 0xA SIGNEXTEND PUSH1 0x1 PUSH1 0x1 PUSH1 0x58 SHL SUB AND PUSH1 0x1 PUSH1 0x40 SHL MUL PUSH19 0xFFFFFFFFFFFFFFFFFFFFFF0000000000000000 NOT PUSH1 0xFF SWAP1 SWAP7 AND PUSH1 0x1 PUSH1 0x38 SHL MUL PUSH8 0xFF00000000000000 NOT PUSH5 0xFFFFFFFFFF SWAP1 SWAP4 AND PUSH3 0x10000 MUL PUSH7 0xFFFFFFFFFF0000 NOT PUSH2 0xFFFF SWAP1 SWAP7 AND PUSH2 0xFFFF NOT SWAP1 SWAP6 AND SWAP5 SWAP1 SWAP5 OR SWAP5 SWAP1 SWAP5 AND SWAP3 SWAP1 SWAP3 OR AND SWAP2 SWAP1 SWAP2 OR SWAP3 SWAP1 SWAP3 AND SWAP2 SWAP1 SWAP2 OR SWAP1 SSTORE JUMP JUMPDEST PUSH1 0x0 DUP1 PUSH1 0x0 DUP1 PUSH2 0x19E1 DUP9 PUSH2 0x2C46 JUMP JUMPDEST SWAP1 POP DUP5 ISZERO DUP1 PUSH2 0x19EF JUMPI POP DUP1 DUP6 GT JUMPDEST ISZERO PUSH2 0x19F8 JUMPI DUP1 SWAP5 POP JUMPDEST DUP7 DUP1 PUSH2 0x1A08 JUMPI POP PUSH1 0x0 DUP9 PUSH1 0x60 ADD MLOAD SLT JUMPDEST SWAP7 POP PUSH2 0xFFFF DUP7 AND ISZERO PUSH2 0x1A19 JUMPI PUSH1 0x0 DUP1 REVERT JUMPDEST POP POP SWAP5 MLOAD SWAP4 SWAP6 PUSH1 0xF0 SWAP5 SWAP1 SWAP5 SHL PUSH1 0x1 PUSH1 0x1 PUSH1 0xF0 SHL SUB NOT AND PUSH1 0x10 SWAP4 SWAP1 SWAP4 SHR SWAP3 SWAP1 SWAP3 OR SWAP4 POP SWAP2 SWAP1 POP JUMP JUMPDEST PUSH1 0x0 DUP1 PUSH2 0x7CA PUSH1 0xD PUSH2 0x2CAD JUMP JUMPDEST PUSH1 0x0 DUP2 SLT ISZERO PUSH2 0x1A5B JUMPI PUSH1 0x0 DUP1 REVERT JUMPDEST PUSH1 0x0 PUSH2 0x1A65 PUSH2 0x2CC6 JUMP JUMPDEST PUSH1 0x1 PUSH1 0x1 PUSH1 0xA0 SHL SUB DUP6 AND PUSH1 0x0 SWAP1 DUP2 MSTORE PUSH1 0x20 DUP3 DUP2 MSTORE PUSH1 0x40 DUP1 DUP4 KECCAK256 PUSH2 0xFFFF DUP9 AND DUP5 MSTORE SWAP1 SWAP2 MSTORE SWAP1 KECCAK256 SWAP1 SWAP2 POP PUSH2 0x1A96 DUP4 PUSH2 0x2CD3 JUMP JUMPDEST DUP2 SLOAD PUSH1 0xA SWAP2 SWAP1 SWAP2 SIGNEXTEND PUSH1 0x1 PUSH1 0x1 PUSH1 0x58 SHL SUB AND PUSH1 0x1 PUSH1 0xA8 SHL MUL PUSH1 0x1 PUSH1 0x1 PUSH1 0xA8 SHL SUB SWAP1 SWAP2 AND OR SWAP1 SSTORE POP POP POP POP JUMP JUMPDEST PUSH1 0x0 DUP1 PUSH2 0x7CA PUSH1 0x2 PUSH2 0x2CAD JUMP JUMPDEST PUSH1 0x0 DUP1 PUSH2 0x1AD9 PUSH2 0x2CFC JUMP JUMPDEST PUSH1 0x0 SWAP4 DUP5 MSTORE PUSH1 0x20 MSTORE POP POP PUSH1 0x40 SWAP1 KECCAK256 SLOAD PUSH1 0x1 PUSH1 0x1 PUSH1 0xA0 SHL SUB AND SWAP1 JUMP JUMPDEST PUSH1 0x0 DUP1 PUSH1 0x0 DUP1 PUSH1 0x0 DUP1 PUSH2 0x1B05 PUSH2 0x1AC1 JUMP JUMPDEST PUSH1 0x1 PUSH1 0x1 PUSH1 0xA0 SHL SUB SWAP1 SWAP8 AND PUSH1 0x0 SWAP1 DUP2 MSTORE PUSH1 0x20 SWAP8 SWAP1 SWAP8 MSTORE POP POP PUSH1 0x40 SWAP1 SWAP5 KECCAK256 SLOAD PUSH2 0xFFFF DUP2 AND SWAP6 PUSH4 0xFFFFFFFF PUSH3 0x10000 DUP4 DIV DUP2 AND SWAP7 POP PUSH1 0x1 PUSH1 0x30 SHL DUP4 DIV AND SWAP5 POP PUSH1 0xFF PUSH1 0x1 PUSH1 0x50 SHL DUP4 DIV AND SWAP4 POP PUSH1 0x1 PUSH1 0x58 SHL SWAP1 SWAP2 DIV PUSH1 0xD0 SHL SWAP2 POP JUMP JUMPDEST PUSH1 0x0 DUP1 PUSH1 0x0 DUP1 PUSH2 0x1B6B PUSH2 0x2D09 JUMP JUMPDEST PUSH1 0x1 PUSH1 0x1 PUSH1 0xA0 SHL SUB SWAP6 SWAP1 SWAP6 AND PUSH1 0x0 SWAP1 DUP2 MSTORE PUSH1 0x20 SWAP6 SWAP1 SWAP6 MSTORE POP POP PUSH1 0x40 SWAP1 SWAP3 KECCAK256 SLOAD PUSH12 0xFFFFFFFFFFFFFFFFFFFFFFFF DUP2 AND SWAP4 PUSH1 0x1 PUSH1 0x60 SHL DUP3 DIV PUSH1 0x1 PUSH1 0x1 PUSH1 0x80 SHL SUB AND SWAP4 POP PUSH1 0x1 PUSH1 0xE0 SHL SWAP1 SWAP2 DIV PUSH4 0xFFFFFFFF AND SWAP2 POP JUMP JUMPDEST PUSH2 0x1BC6 PUSH2 0x5AEE JUMP JUMPDEST PUSH2 0x1BCE PUSH2 0x5AEE JUMP JUMPDEST PUSH1 0xFF DUP5 AND PUSH2 0x1BDD JUMPI SWAP1 POP PUSH2 0x8AC JUMP JUMPDEST PUSH2 0x1BE7 DUP6 DUP6 PUSH2 0x2D16 JUMP JUMPDEST DUP2 MSTORE PUSH1 0xFF DUP5 AND PUSH1 0x60 DUP3 ADD MSTORE DUP3 PUSH8 0xFFFFFFFFFFFFFFFF DUP2 GT DUP1 ISZERO PUSH2 0x1C09 JUMPI PUSH1 0x0 DUP1 REVERT JUMPDEST POP PUSH1 0x40 MLOAD SWAP1 DUP1 DUP3 MSTORE DUP1 PUSH1 0x20 MUL PUSH1 0x20 ADD DUP3 ADD PUSH1 0x40 MSTORE DUP1 ISZERO PUSH2 0x1C43 JUMPI DUP2 PUSH1 0x20 ADD JUMPDEST PUSH2 0x1C30 PUSH2 0x5B16 JUMP JUMPDEST DUP2 MSTORE PUSH1 0x20 ADD SWAP1 PUSH1 0x1 SWAP1 SUB SWAP1 DUP2 PUSH2 0x1C28 JUMPI SWAP1 POP JUMPDEST POP PUSH1 0x20 DUP3 ADD MSTORE SWAP5 SWAP4 POP POP POP POP JUMP JUMPDEST PUSH1 0x0 DUP1 PUSH2 0x1C5C PUSH2 0x2CC6 JUMP JUMPDEST PUSH1 0x1 PUSH1 0x1 PUSH1 0xA0 SHL SUB DUP6 AND PUSH1 0x0 SWAP1 DUP2 MSTORE PUSH1 0x20 DUP3 DUP2 MSTORE PUSH1 0x40 DUP1 DUP4 KECCAK256 PUSH2 0xFFFF DUP9 AND DUP5 MSTORE SWAP1 SWAP2 MSTORE DUP2 KECCAK256 DUP1 SLOAD PUSH1 0x1 PUSH1 0xA8 SHL SWAP1 DIV PUSH1 0xA SWAP1 DUP2 SIGNEXTEND SWAP1 SIGNEXTEND SWAP5 POP SWAP2 SWAP3 POP DUP4 SLT ISZERO PUSH2 0x1CA2 JUMPI PUSH1 0x0 DUP1 REVERT JUMPDEST POP POP SWAP3 SWAP2 POP POP JUMP JUMPDEST PUSH2 0x1CB2 PUSH2 0x5B5A JUMP JUMPDEST PUSH2 0x7CA DUP3 TIMESTAMP PUSH2 0x2D22 JUMP JUMPDEST PUSH2 0x1CC4 PUSH2 0x5AC2 JUMP JUMPDEST PUSH1 0x0 PUSH2 0x1CD3 DUP5 PUSH2 0xFFFF AND PUSH2 0x2DE8 JUMP JUMPDEST PUSH1 0x40 DUP1 MLOAD PUSH1 0x80 DUP2 ADD DUP3 MSTORE PUSH2 0xFFFF SWAP7 SWAP1 SWAP7 AND DUP7 MSTORE PUSH1 0xFF DUP3 AND PUSH1 0x20 DUP8 ADD MSTORE DUP6 ADD SWAP4 SWAP1 SWAP4 MSTORE POP POP PUSH1 0x60 DUP3 ADD MSTORE SWAP1 JUMP JUMPDEST PUSH1 0x0 DUP1 PUSH2 0x1D0A PUSH2 0x5A0D JUMP JUMPDEST PUSH1 0x20 DUP6 ADD MLOAD MLOAD PUSH1 0x0 JUMPDEST DUP2 MLOAD DUP2 LT ISZERO PUSH2 0x1E24 JUMPI PUSH1 0x0 DUP3 DUP3 DUP2 MLOAD DUP2 LT PUSH2 0x1D2A JUMPI INVALID JUMPDEST PUSH1 0x20 MUL PUSH1 0x20 ADD ADD MLOAD SWAP1 POP PUSH2 0x1D41 DUP2 PUSH1 0x40 ADD MLOAD PUSH2 0x2775 JUMP JUMPDEST PUSH2 0x1D4A JUMPI PUSH1 0x0 DUP1 REVERT JUMPDEST PUSH1 0x0 PUSH2 0x1D55 DUP3 PUSH2 0x2C46 JUMP JUMPDEST SWAP1 POP DUP8 DUP2 GT ISZERO PUSH2 0x1D64 JUMPI PUSH1 0x0 DUP1 REVERT JUMPDEST PUSH2 0x1D7C DUP6 DUP4 PUSH1 0x0 ADD MLOAD PUSH2 0xFFFF AND DUP5 PUSH1 0x20 ADD MLOAD DUP5 PUSH2 0x2E05 JUMP JUMPDEST POP PUSH1 0x0 DUP1 PUSH2 0x1D97 DUP4 PUSH1 0x60 ADD MLOAD DUP8 PUSH2 0x2E19 SWAP1 SWAP2 SWAP1 PUSH4 0xFFFFFFFF AND JUMP JUMPDEST SWAP3 POP SWAP1 POP PUSH2 0x1DA5 DUP9 DUP3 PUSH2 0x1F86 JUMP JUMPDEST SWAP8 POP POP DUP8 DUP3 PUSH1 0x20 ADD MLOAD GT PUSH2 0x1DEC JUMPI PUSH1 0xC0 DUP10 ADD MLOAD DUP3 MLOAD PUSH1 0x20 DUP5 ADD MLOAD DUP12 MLOAD PUSH1 0x40 ADD MLOAD PUSH1 0x0 SWAP4 PUSH2 0x1DD8 SWAP4 SWAP2 SWAP3 SWAP1 SWAP2 SWAP1 DUP7 DUP15 PUSH2 0x2EC1 JUMP JUMPDEST SWAP1 POP PUSH2 0x1DE4 DUP8 DUP3 PUSH2 0x1F86 JUMP JUMPDEST SWAP7 POP POP PUSH2 0x1E0B JUMP JUMPDEST PUSH2 0x1E09 DUP10 PUSH1 0xC0 ADD MLOAD DUP4 PUSH1 0x0 ADD MLOAD DUP5 PUSH1 0x20 ADD MLOAD DUP13 PUSH1 0x80 ADD MLOAD DUP6 PUSH2 0x15F7 JUMP JUMPDEST POP JUMPDEST PUSH1 0x20 DUP10 ADD MLOAD PUSH2 0x1E1A SWAP1 DUP5 PUSH2 0x1753 JUMP JUMPDEST POP POP PUSH1 0x1 ADD PUSH2 0x1D13 JUMP JUMPDEST POP POP POP SWAP3 POP SWAP3 SWAP1 POP JUMP JUMPDEST PUSH1 0x0 DUP1 PUSH1 0x0 DUP1 PUSH2 0x1E42 DUP10 DUP10 PUSH2 0xFFFF AND PUSH2 0x20C6 JUMP JUMPDEST SWAP1 POP PUSH2 0x1E4D DUP7 PUSH2 0xF89 JUMP JUMPDEST SWAP2 POP DUP7 DUP3 LT ISZERO PUSH2 0x1E5C JUMPI PUSH1 0x0 DUP1 REVERT JUMPDEST PUSH1 0x0 PUSH2 0x1E68 DUP9 DUP5 PUSH2 0x29B5 JUMP JUMPDEST POP SWAP1 POP DUP1 PUSH2 0x1E7E JUMPI PUSH1 0x0 DUP1 SWAP5 POP SWAP5 POP POP POP PUSH2 0x1F7B JUMP JUMPDEST PUSH1 0x0 PUSH2 0x1E89 DUP4 PUSH2 0x2110 JUMP JUMPDEST SWAP1 POP JUMPDEST DUP1 ISZERO DUP1 ISZERO SWAP1 PUSH2 0x1E9B JUMPI POP DUP2 DUP2 GT ISZERO JUMPDEST ISZERO PUSH2 0x1F06 JUMPI PUSH1 0x0 PUSH2 0x1EAC DUP11 DUP4 PUSH2 0x2135 JUMP JUMPDEST SWAP1 POP PUSH1 0x0 PUSH2 0x1EBD DUP14 DUP14 DUP5 DUP14 DUP14 PUSH2 0x2EFF JUMP JUMPDEST SWAP1 POP PUSH1 0x0 DUP2 SGT ISZERO PUSH2 0x1ED9 JUMPI PUSH2 0x1ED2 DUP9 DUP3 PUSH2 0x1F86 JUMP JUMPDEST SWAP8 POP PUSH2 0x1EE6 JUMP JUMPDEST PUSH2 0x1EE3 DUP8 DUP3 PUSH2 0x1F86 JUMP JUMPDEST SWAP7 POP JUMPDEST PUSH2 0x1EF2 DUP6 DUP5 PUSH1 0x0 PUSH2 0x241B JUMP JUMPDEST SWAP5 POP PUSH2 0x1EFD DUP6 PUSH2 0x2110 JUMP JUMPDEST SWAP3 POP POP POP PUSH2 0x1E8C JUMP JUMPDEST PUSH1 0x0 JUMPDEST DUP2 ISZERO PUSH2 0x1F67 JUMPI PUSH1 0x0 PUSH2 0x1F1B DUP12 DUP5 PUSH2 0x2135 JUMP JUMPDEST SWAP1 POP PUSH1 0x0 DUP1 PUSH2 0x1F2A DUP9 DUP5 PUSH2 0x29B5 JUMP JUMPDEST SWAP2 POP SWAP2 POP DUP1 PUSH2 0x1F38 JUMPI PUSH1 0x0 DUP1 REVERT JUMPDEST PUSH2 0x1F44 DUP5 DUP4 PUSH1 0x1 PUSH2 0x241B JUMP JUMPDEST SWAP4 POP PUSH2 0x1F52 DUP8 DUP7 PUSH1 0x0 PUSH2 0x241B JUMP JUMPDEST SWAP7 POP PUSH2 0x1F5D DUP8 PUSH2 0x2110 JUMP JUMPDEST SWAP5 POP POP POP POP PUSH2 0x1F09 JUMP JUMPDEST PUSH2 0x1F76 DUP13 DUP13 PUSH2 0xFFFF AND DUP4 PUSH2 0x2BEC JUMP JUMPDEST POP POP POP POP JUMPDEST SWAP6 POP SWAP6 POP SWAP6 SWAP3 POP POP POP JUMP JUMPDEST DUP2 DUP2 ADD DUP3 DUP2 SLT ISZERO PUSH1 0x0 DUP4 SLT ISZERO EQ PUSH2 0x7CA JUMPI PUSH1 0x0 DUP1 REVERT JUMPDEST PUSH1 0x0 DUP1 PUSH2 0x1FB3 DUP4 PUSH2 0x1FAD DUP8 DUP8 PUSH2 0x1F86 JUMP JUMPDEST SWAP1 PUSH2 0x1F86 JUMP JUMPDEST SWAP1 POP PUSH2 0x1FBF DUP9 DUP3 PUSH2 0x2F97 JUMP JUMPDEST SWAP2 POP DUP4 PUSH1 0x0 SGT ISZERO PUSH2 0x1FCF JUMPI PUSH1 0x0 DUP1 REVERT JUMPDEST PUSH1 0x0 DUP4 SGT ISZERO PUSH2 0x1FDD JUMPI PUSH1 0x0 DUP1 REVERT JUMPDEST DUP5 PUSH1 0x0 SLT ISZERO PUSH2 0x1FF7 JUMPI PUSH2 0x1FF0 DUP6 DUP6 PUSH2 0x1F86 JUMP JUMPDEST SWAP4 POP PUSH2 0x2004 JUMP JUMPDEST PUSH2 0x2001 DUP6 DUP5 PUSH2 0x1F86 JUMP JUMPDEST SWAP3 POP JUMPDEST PUSH1 0x0 DUP5 PUSH2 0x2010 DUP6 PUSH2 0x15E9 JUMP JUMPDEST SLT ISZERO PUSH2 0x201D JUMPI POP DUP3 PUSH2 0x2029 JUMP JUMPDEST PUSH2 0x2026 DUP6 PUSH2 0x15E9 JUMP JUMPDEST SWAP1 POP JUMPDEST PUSH1 0x0 DUP2 SLT ISZERO PUSH2 0x205B JUMPI PUSH1 0x20 DUP10 ADD MLOAD DUP10 MLOAD PUSH1 0x0 SWAP2 PUSH2 0x204B SWAP2 PUSH2 0x8C8 SWAP1 DUP6 SWAP1 PUSH2 0x1330 JUMP JUMPDEST SWAP1 POP PUSH2 0x2059 DUP10 DUP10 DUP4 DUP6 PUSH2 0x2FD6 JUMP JUMPDEST POP JUMPDEST POP POP SWAP7 SWAP6 POP POP POP POP POP POP JUMP JUMPDEST PUSH1 0x0 PUSH5 0xFFFFFFFFFF DUP3 GT ISZERO PUSH2 0xBC1 JUMPI PUSH1 0x0 DUP1 REVERT JUMPDEST PUSH1 0x60 ADD MLOAD PUSH2 0x12C PUSH1 0x8 SWAP2 SWAP1 SWAP2 SHR PUSH1 0xFF AND MUL SWAP1 JUMP JUMPDEST PUSH2 0x209C DUP8 DUP8 DUP8 DUP7 DUP6 PUSH2 0x3118 JUMP JUMPDEST PUSH2 0x20B5 DUP8 PUSH1 0xE0 ADD MLOAD DUP9 PUSH1 0xA0 ADD MLOAD DUP10 PUSH1 0xC0 ADD MLOAD DUP6 DUP9 PUSH2 0x31D3 JUMP JUMPDEST PUSH1 0xC0 SWAP1 SWAP8 ADD SWAP7 SWAP1 SWAP7 MSTORE POP POP POP POP POP POP JUMP JUMPDEST PUSH1 0x0 DUP1 PUSH2 0x20D1 PUSH2 0x325B JUMP JUMPDEST PUSH1 0x1 PUSH1 0x1 PUSH1 0xA0 SHL SUB DUP6 AND PUSH1 0x0 SWAP1 DUP2 MSTORE PUSH1 0x20 SWAP2 DUP3 MSTORE PUSH1 0x40 DUP1 DUP3 KECCAK256 DUP7 DUP4 MSTORE SWAP1 SWAP3 MSTORE KECCAK256 SLOAD SWAP2 POP POP SWAP3 SWAP2 POP POP JUMP JUMPDEST PUSH1 0x0 DUP3 DUP3 GT ISZERO PUSH2 0x210A JUMPI PUSH1 0x0 DUP1 REVERT JUMPDEST POP SWAP1 SUB SWAP1 JUMP JUMPDEST PUSH1 0x0 DUP2 PUSH2 0x211F JUMPI POP PUSH1 0x0 PUSH2 0x874 JUMP JUMPDEST PUSH2 0x2128 DUP3 PUSH2 0x3268 JUMP JUMPDEST PUSH1 0xFF SUB PUSH1 0x1 ADD SWAP1 POP SWAP2 SWAP1 POP JUMP JUMPDEST PUSH1 0x0 DUP2 PUSH2 0x2141 JUMPI PUSH1 0x0 DUP1 REVERT JUMPDEST PUSH2 0x100 DUP3 GT ISZERO PUSH2 0x2150 JUMPI PUSH1 0x0 DUP1 REVERT JUMPDEST PUSH1 0x0 PUSH2 0x215B DUP5 PUSH2 0xF89 JUMP JUMPDEST SWAP1 POP PUSH1 0x0 PUSH1 0x5A DUP5 GT PUSH2 0x2176 JUMPI POP PUSH3 0x15180 DUP4 MUL ADD SWAP1 POP PUSH2 0x7CA JUMP JUMPDEST PUSH1 0x87 DUP5 GT PUSH2 0x219E JUMPI POP PUSH1 0x59 NOT DUP4 ADD PUSH3 0x7E900 SWAP1 DUP2 MUL SWAP1 DUP3 MOD SWAP1 SWAP2 SUB ADD PUSH3 0x76A700 ADD SWAP1 POP PUSH2 0x7CA JUMP JUMPDEST PUSH1 0xC3 DUP5 GT PUSH2 0x21C7 JUMPI POP PUSH1 0x86 NOT DUP4 ADD PUSH3 0x278D00 SWAP1 DUP2 MUL SWAP1 DUP3 MOD SWAP1 SWAP2 SUB ADD PUSH4 0x1DA9C00 ADD SWAP1 POP PUSH2 0x7CA JUMP JUMPDEST POP PUSH1 0xC2 NOT DUP4 ADD PUSH3 0x76A700 SWAP1 DUP2 MUL SWAP1 DUP3 MOD SWAP1 SWAP2 SUB ADD PUSH4 0xB1FA800 ADD SWAP1 POP PUSH2 0x7CA JUMP JUMPDEST PUSH1 0x0 DUP1 DUP5 GT PUSH2 0x2209 JUMPI PUSH1 0x40 MLOAD PUSH3 0x461BCD PUSH1 0xE5 SHL DUP2 MSTORE PUSH1 0x4 ADD PUSH2 0x34A SWAP1 PUSH2 0x5D6C JUMP JUMPDEST PUSH1 0x7 DUP5 GT ISZERO PUSH2 0x222A JUMPI PUSH1 0x40 MLOAD PUSH3 0x461BCD PUSH1 0xE5 SHL DUP2 MSTORE PUSH1 0x4 ADD PUSH2 0x34A SWAP1 PUSH2 0x5DEB JUMP JUMPDEST PUSH3 0x76A700 DUP4 MOD ISZERO PUSH2 0x223D JUMPI POP PUSH1 0x0 PUSH2 0x8AC JUMP JUMPDEST PUSH1 0x0 PUSH2 0x2248 DUP4 PUSH2 0x879 JUMP JUMPDEST SWAP1 POP PUSH1 0x1 JUMPDEST DUP6 DUP2 GT PUSH2 0x2281 JUMPI PUSH2 0x2267 PUSH2 0x2260 DUP3 PUSH2 0x7D0 JUMP JUMPDEST DUP4 SWAP1 PUSH2 0x89A JUMP JUMPDEST DUP6 EQ ISZERO PUSH2 0x2279 JUMPI PUSH1 0x1 SWAP3 POP POP POP PUSH2 0x8AC JUMP JUMPDEST PUSH1 0x1 ADD PUSH2 0x224D JUMP JUMPDEST POP PUSH1 0x0 SWAP6 SWAP5 POP POP POP POP POP JUMP JUMPDEST PUSH1 0x0 DUP1 PUSH2 0x2298 PUSH2 0x29A8 JUMP JUMPDEST PUSH1 0x1 PUSH1 0x1 PUSH1 0xA0 SHL SUB DUP7 AND PUSH1 0x0 SWAP1 DUP2 MSTORE PUSH1 0x20 SWAP2 DUP3 MSTORE PUSH1 0x40 DUP1 DUP3 KECCAK256 DUP8 DUP4 MSTORE DUP4 MSTORE DUP1 DUP3 KECCAK256 DUP7 DUP4 MSTORE SWAP1 SWAP3 MSTORE KECCAK256 SLOAD PUSH1 0xF SWAP1 DUP2 SIGNEXTEND SWAP1 SIGNEXTEND SWAP2 POP POP SWAP4 SWAP3 POP POP POP JUMP JUMPDEST PUSH1 0x0 DUP1 PUSH1 0x0 PUSH2 0x22E6 DUP7 PUSH1 0x20 ADD MLOAD DUP7 DUP7 PUSH2 0x3301 JUMP JUMPDEST SWAP2 POP SWAP2 POP PUSH1 0x0 PUSH2 0x22F5 DUP8 PUSH2 0x207B JUMP JUMPDEST SWAP1 POP DUP2 PUSH2 0x2315 JUMPI DUP7 MLOAD PUSH2 0x230E SWAP1 PUSH2 0xFFFF AND DUP8 DUP4 DUP9 PUSH2 0x3390 JUMP JUMPDEST SWAP4 POP PUSH2 0xB0D JUMP JUMPDEST PUSH1 0x0 PUSH2 0x2320 DUP7 PUSH2 0x879 JUMP JUMPDEST SWAP1 POP PUSH1 0x0 PUSH2 0x2330 PUSH2 0x2260 DUP7 PUSH2 0x7D0 JUMP JUMPDEST SWAP1 POP PUSH1 0x0 PUSH2 0x2348 DUP11 PUSH1 0x0 ADD MLOAD PUSH2 0xFFFF AND DUP4 DUP7 DUP12 PUSH2 0x3390 JUMP JUMPDEST SWAP1 POP PUSH1 0x0 DUP1 DUP8 PUSH1 0x1 EQ ISZERO PUSH2 0x2366 JUMPI POP POP PUSH1 0x40 DUP1 DUP12 ADD MLOAD ADD MLOAD DUP9 PUSH2 0x2395 JUMP JUMPDEST PUSH2 0x237C PUSH2 0x2375 PUSH1 0x1 DUP11 SUB PUSH2 0x7D0 JUMP JUMPDEST DUP7 SWAP1 PUSH2 0x89A JUMP JUMPDEST SWAP1 POP PUSH2 0x2392 DUP13 PUSH1 0x0 ADD MLOAD PUSH2 0xFFFF AND DUP3 DUP9 DUP14 PUSH2 0x3390 JUMP JUMPDEST SWAP2 POP JUMPDEST PUSH2 0x23A2 DUP2 DUP6 DUP5 DUP7 DUP16 PUSH2 0x1524 JUMP JUMPDEST SWAP13 SWAP12 POP POP POP POP POP POP POP POP POP POP POP POP JUMP JUMPDEST PUSH1 0x0 DUP5 PUSH2 0x23C1 JUMPI POP PUSH1 0x0 PUSH2 0x23FD JUMP JUMPDEST PUSH1 0x0 PUSH2 0x23CD DUP6 DUP6 PUSH2 0x20FB JUMP JUMPDEST SWAP1 POP PUSH1 0x0 PUSH2 0x23DB DUP3 DUP6 PUSH2 0x342F JUMP JUMPDEST SWAP1 POP PUSH4 0x3B9ACA00 DUP2 SGT ISZERO PUSH2 0x23EE JUMPI PUSH1 0x0 DUP1 REVERT JUMPDEST PUSH2 0x23F8 DUP8 DUP3 PUSH2 0x349C JUMP JUMPDEST SWAP3 POP POP POP JUMPDEST SWAP5 SWAP4 POP POP POP POP JUMP JUMPDEST DUP1 DUP3 SUB DUP3 DUP2 SGT ISZERO PUSH1 0x0 DUP4 SLT ISZERO EQ PUSH2 0x7CA JUMPI PUSH1 0x0 DUP1 REVERT JUMPDEST PUSH1 0x0 PUSH1 0x1 DUP4 LT ISZERO DUP1 ISZERO PUSH2 0x2430 JUMPI POP PUSH2 0x100 DUP4 GT ISZERO JUMPDEST PUSH2 0x2439 JUMPI PUSH1 0x0 DUP1 REVERT JUMPDEST DUP2 ISZERO PUSH2 0x2452 JUMPI POP PUSH1 0x1 PUSH1 0xFF SHL PUSH1 0x0 NOT DUP4 ADD SHR DUP4 OR PUSH2 0x8AC JUMP JUMPDEST POP PUSH1 0x1 PUSH1 0xFF SHL PUSH1 0x0 NOT DUP4 ADD SHR NOT DUP4 AND PUSH2 0x8AC JUMP JUMPDEST DUP2 MLOAD PUSH1 0x0 SWAP1 PUSH2 0x8AC SWAP1 PUSH2 0x8C8 DUP5 PUSH15 0xC097CE7BC90715B34B9F1000000000 PUSH2 0x1330 JUMP JUMPDEST PUSH1 0x0 DUP1 PUSH2 0x7CA PUSH1 0x4 PUSH2 0x2CAD JUMP JUMPDEST PUSH1 0x60 DUP1 PUSH1 0x0 DUP1 DUP5 PUSH8 0xFFFFFFFFFFFFFFFF DUP2 GT DUP1 ISZERO PUSH2 0x24B2 JUMPI PUSH1 0x0 DUP1 REVERT JUMPDEST POP PUSH1 0x40 MLOAD SWAP1 DUP1 DUP3 MSTORE DUP1 PUSH1 0x20 MUL PUSH1 0x20 ADD DUP3 ADD PUSH1 0x40 MSTORE DUP1 ISZERO PUSH2 0x24DC JUMPI DUP2 PUSH1 0x20 ADD PUSH1 0x20 DUP3 MUL DUP1 CALLDATASIZE DUP4 CALLDATACOPY ADD SWAP1 POP JUMPDEST POP SWAP1 POP PUSH1 0x0 DUP6 PUSH8 0xFFFFFFFFFFFFFFFF DUP2 GT DUP1 ISZERO PUSH2 0x24F8 JUMPI PUSH1 0x0 DUP1 REVERT JUMPDEST POP PUSH1 0x40 MLOAD SWAP1 DUP1 DUP3 MSTORE DUP1 PUSH1 0x20 MUL PUSH1 0x20 ADD DUP3 ADD PUSH1 0x40 MSTORE DUP1 ISZERO PUSH2 0x2522 JUMPI DUP2 PUSH1 0x20 ADD PUSH1 0x20 DUP3 MUL DUP1 CALLDATASIZE DUP4 CALLDATACOPY ADD SWAP1 POP JUMPDEST POP SWAP1 POP PUSH1 0x0 JUMPDEST DUP7 DUP2 LT ISZERO PUSH2 0x25CC JUMPI DUP8 DUP5 PUSH1 0xE DUP2 LT PUSH2 0x253C JUMPI INVALID JUMPDEST PUSH1 0x8 SWAP2 DUP3 DUP3 DIV ADD SWAP2 SWAP1 MOD PUSH1 0x4 MUL SWAP1 SLOAD SWAP1 PUSH2 0x100 EXP SWAP1 DIV PUSH4 0xFFFFFFFF AND PUSH4 0xFFFFFFFF AND DUP4 DUP3 DUP2 MLOAD DUP2 LT PUSH2 0x256A JUMPI INVALID JUMPDEST PUSH1 0x20 SWAP1 DUP2 MUL SWAP2 SWAP1 SWAP2 ADD ADD MSTORE PUSH1 0x1 SWAP1 SWAP4 ADD SWAP3 DUP8 DUP5 PUSH1 0xE DUP2 LT PUSH2 0x2587 JUMPI INVALID JUMPDEST PUSH1 0x8 SWAP2 DUP3 DUP3 DIV ADD SWAP2 SWAP1 MOD PUSH1 0x4 MUL SWAP1 SLOAD SWAP1 PUSH2 0x100 EXP SWAP1 DIV PUSH4 0xFFFFFFFF AND PUSH4 0xFFFFFFFF AND DUP3 DUP3 DUP2 MLOAD DUP2 LT PUSH2 0x25B5 JUMPI INVALID JUMPDEST PUSH1 0x20 SWAP1 DUP2 MUL SWAP2 SWAP1 SWAP2 ADD ADD MSTORE PUSH1 0x1 SWAP4 DUP5 ADD SWAP4 ADD PUSH2 0x2528 JUMP JUMPDEST POP SWAP1 SWAP4 POP SWAP2 POP POP JUMPDEST SWAP3 POP SWAP3 SWAP1 POP JUMP JUMPDEST PUSH1 0x0 DUP1 PUSH2 0x7CA PUSH1 0x5 PUSH2 0x2CAD JUMP JUMPDEST PUSH1 0x0 DUP1 PUSH2 0x7CA PUSH1 0x1C PUSH2 0x2CAD JUMP JUMPDEST PUSH1 0x0 DUP1 PUSH2 0x7CA PUSH1 0x1B PUSH2 0x2CAD JUMP JUMPDEST PUSH2 0x260A PUSH2 0x5A7D JUMP JUMPDEST PUSH1 0x0 PUSH2 0x2615 DUP5 PUSH2 0x34B5 JUMP JUMPDEST PUSH2 0xFFFF DUP7 AND PUSH1 0x0 SWAP1 DUP2 MSTORE PUSH1 0x20 DUP6 SWAP1 MSTORE PUSH1 0x40 DUP2 KECCAK256 SWAP2 SWAP3 POP SWAP1 PUSH1 0x4 DUP7 LT PUSH2 0x263B JUMPI PUSH1 0x1 PUSH2 0x263E JUMP JUMPDEST PUSH1 0x0 JUMPDEST PUSH1 0xFF AND PUSH1 0x2 DUP2 LT PUSH2 0x264B JUMPI INVALID JUMPDEST ADD SLOAD SWAP1 POP PUSH2 0x12BD DUP3 DUP3 PUSH2 0x34EE JUMP JUMPDEST PUSH1 0x0 DUP1 JUMPDEST DUP7 MLOAD DUP2 LT ISZERO PUSH2 0x2768 JUMPI PUSH1 0x0 DUP8 DUP3 DUP2 MLOAD DUP2 LT PUSH2 0x2674 JUMPI INVALID JUMPDEST PUSH1 0x20 MUL PUSH1 0x20 ADD ADD MLOAD SWAP1 POP DUP5 DUP2 PUSH1 0x40 ADD MLOAD EQ ISZERO DUP1 PUSH2 0x269D JUMPI POP DUP7 PUSH2 0xFFFF AND DUP2 PUSH1 0x0 ADD MLOAD PUSH2 0xFFFF AND EQ ISZERO JUMPDEST DUP1 PUSH2 0x26AC JUMPI POP DUP6 DUP2 PUSH1 0x20 ADD MLOAD EQ ISZERO JUMPDEST ISZERO PUSH2 0x26B7 JUMPI POP PUSH2 0x2760 JUMP JUMPDEST PUSH1 0x2 DUP2 PUSH1 0xA0 ADD MLOAD PUSH1 0x3 DUP2 GT ISZERO PUSH2 0x26C9 JUMPI INVALID JUMPDEST EQ ISZERO DUP1 ISZERO PUSH2 0x26E7 JUMPI POP PUSH1 0x3 DUP2 PUSH1 0xA0 ADD MLOAD PUSH1 0x3 DUP2 GT ISZERO PUSH2 0x26E4 JUMPI INVALID JUMPDEST EQ ISZERO JUMPDEST PUSH2 0x26F0 JUMPI PUSH1 0x0 DUP1 REVERT JUMPDEST PUSH1 0x60 DUP2 ADD MLOAD PUSH1 0x0 SWAP1 PUSH2 0x2702 SWAP1 DUP7 PUSH2 0x1F86 JUMP JUMPDEST SWAP1 POP PUSH2 0x270D DUP7 PUSH2 0x2775 JUMP JUMPDEST ISZERO PUSH2 0x2720 JUMPI PUSH1 0x0 DUP2 SLT ISZERO PUSH2 0x2720 JUMPI PUSH1 0x0 DUP1 REVERT JUMPDEST PUSH1 0x1 PUSH1 0x1 PUSH1 0x57 SHL SUB NOT DUP2 SLT DUP1 ISZERO SWAP1 PUSH2 0x273F JUMPI POP PUSH1 0x1 PUSH1 0x1 PUSH1 0x57 SHL SUB DUP2 SGT ISZERO JUMPDEST PUSH2 0x2748 JUMPI PUSH1 0x0 DUP1 REVERT JUMPDEST PUSH1 0x60 DUP3 ADD MSTORE PUSH1 0x1 PUSH1 0xA0 SWAP1 SWAP2 ADD DUP2 SWAP1 MSTORE SWAP2 POP PUSH2 0x663 SWAP1 POP JUMP JUMPDEST PUSH1 0x1 ADD PUSH2 0x265D JUMP JUMPDEST POP PUSH1 0x0 SWAP7 SWAP6 POP POP POP POP POP POP JUMP JUMPDEST PUSH1 0x0 PUSH1 0x2 DUP3 LT DUP1 ISZERO SWAP1 PUSH2 0x7CA JUMPI POP POP PUSH1 0x8 LT ISZERO SWAP1 JUMP JUMPDEST PUSH1 0x60 PUSH1 0x0 DUP3 MLOAD PUSH1 0x0 EQ PUSH2 0x27A2 JUMPI DUP3 MLOAD PUSH1 0x2 MUL PUSH2 0x27A5 JUMP JUMPDEST PUSH1 0x1 JUMPDEST SWAP1 POP PUSH1 0x0 DUP2 PUSH8 0xFFFFFFFFFFFFFFFF DUP2 GT DUP1 ISZERO PUSH2 0x27C0 JUMPI PUSH1 0x0 DUP1 REVERT JUMPDEST POP PUSH1 0x40 MLOAD SWAP1 DUP1 DUP3 MSTORE DUP1 PUSH1 0x20 MUL PUSH1 0x20 ADD DUP3 ADD PUSH1 0x40 MSTORE DUP1 ISZERO PUSH2 0x27FA JUMPI DUP2 PUSH1 0x20 ADD JUMPDEST PUSH2 0x27E7 PUSH2 0x5B16 JUMP JUMPDEST DUP2 MSTORE PUSH1 0x20 ADD SWAP1 PUSH1 0x1 SWAP1 SUB SWAP1 DUP2 PUSH2 0x27DF JUMPI SWAP1 POP JUMPDEST POP SWAP1 POP PUSH1 0x0 JUMPDEST DUP5 MLOAD DUP2 LT ISZERO PUSH2 0x283C JUMPI DUP5 DUP2 DUP2 MLOAD DUP2 LT PUSH2 0x2815 JUMPI INVALID JUMPDEST PUSH1 0x20 MUL PUSH1 0x20 ADD ADD MLOAD DUP3 DUP3 DUP2 MLOAD DUP2 LT PUSH2 0x2829 JUMPI INVALID JUMPDEST PUSH1 0x20 SWAP1 DUP2 MUL SWAP2 SWAP1 SWAP2 ADD ADD MSTORE PUSH1 0x1 ADD PUSH2 0x2800 JUMP JUMPDEST POP SWAP4 SWAP3 POP POP POP JUMP JUMPDEST PUSH1 0x0 DUP1 PUSH2 0x7CA PUSH1 0xA PUSH2 0x2CAD JUMP JUMPDEST PUSH1 0x0 DUP6 SLT ISZERO DUP1 ISZERO PUSH2 0x2869 JUMPI POP PUSH1 0x1 PUSH1 0x1 PUSH1 0x50 SHL SUB DUP6 SGT ISZERO JUMPDEST PUSH2 0x2872 JUMPI PUSH1 0x0 DUP1 REVERT JUMPDEST PUSH1 0x0 DUP5 SLT ISZERO DUP1 ISZERO PUSH2 0x288A JUMPI POP PUSH1 0x1 PUSH1 0x1 PUSH1 0x50 SHL SUB DUP5 SGT ISZERO JUMPDEST PUSH2 0x2893 JUMPI PUSH1 0x0 DUP1 REVERT JUMPDEST DUP3 PUSH1 0x0 LT DUP1 ISZERO PUSH2 0x28A7 JUMPI POP PUSH4 0xFFFFFFFF DUP4 GT ISZERO JUMPDEST PUSH2 0x28B0 JUMPI PUSH1 0x0 DUP1 REVERT JUMPDEST DUP2 PUSH1 0x0 LT DUP1 ISZERO PUSH2 0x28C4 JUMPI POP PUSH4 0xFFFFFFFF DUP3 GT ISZERO JUMPDEST PUSH2 0x28CD JUMPI PUSH1 0x0 DUP1 REVERT JUMPDEST PUSH4 0xFFFFFFFF DUP2 GT ISZERO PUSH2 0x28DE JUMPI PUSH1 0x0 DUP1 REVERT JUMPDEST DUP6 SLOAD PUSH1 0x1 PUSH1 0x1 PUSH1 0x50 SHL SUB NOT AND PUSH1 0x1 PUSH1 0x1 PUSH1 0x50 SHL SUB SWAP6 DUP7 AND OR PUSH10 0xFFFFFFFFFFFFFFFFFFFF PUSH1 0x50 SHL NOT AND PUSH1 0x1 PUSH1 0x50 SHL SWAP5 SWAP1 SWAP6 AND SWAP4 SWAP1 SWAP4 MUL SWAP4 SWAP1 SWAP4 OR PUSH4 0xFFFFFFFF PUSH1 0xA0 SHL NOT AND PUSH1 0x1 PUSH1 0xA0 SHL PUSH4 0xFFFFFFFF SWAP3 DUP4 AND MUL OR PUSH4 0xFFFFFFFF PUSH1 0xC0 SHL NOT AND PUSH1 0x1 PUSH1 0xC0 SHL SWAP4 DUP3 AND SWAP4 SWAP1 SWAP4 MUL SWAP3 SWAP1 SWAP3 OR PUSH1 0x1 PUSH1 0x1 PUSH1 0xE0 SHL SUB AND PUSH1 0x1 PUSH1 0xE0 SHL SWAP2 SWAP1 SWAP3 AND MUL OR SWAP1 SSTORE JUMP JUMPDEST PUSH1 0x0 DUP2 SLT ISZERO DUP1 ISZERO PUSH2 0x297A JUMPI POP PUSH1 0x1 PUSH1 0x1 PUSH1 0x50 SHL SUB DUP2 SGT ISZERO JUMPDEST PUSH2 0x2983 JUMPI PUSH1 0x0 DUP1 REVERT JUMPDEST PUSH1 0x1 SWAP2 SWAP1 SWAP2 ADD DUP1 SLOAD PUSH1 0x1 PUSH1 0x1 PUSH1 0x50 SHL SUB NOT AND PUSH1 0x1 PUSH1 0x1 PUSH1 0x50 SHL SUB SWAP1 SWAP3 AND SWAP2 SWAP1 SWAP2 OR SWAP1 SSTORE JUMP JUMPDEST PUSH1 0x0 DUP1 PUSH2 0x7CA PUSH1 0xC PUSH2 0x2CAD JUMP JUMPDEST PUSH1 0x0 DUP1 PUSH1 0x0 PUSH2 0x29C3 DUP6 PUSH2 0xF89 JUMP JUMPDEST SWAP1 POP PUSH3 0x15180 DUP5 MOD ISZERO PUSH2 0x29DD JUMPI PUSH1 0x0 DUP1 SWAP3 POP SWAP3 POP POP PUSH2 0x25D4 JUMP JUMPDEST DUP4 DUP2 LT PUSH2 0x29F1 JUMPI PUSH1 0x0 DUP1 SWAP3 POP SWAP3 POP POP PUSH2 0x25D4 JUMP JUMPDEST PUSH3 0x15180 DUP2 DUP6 SUB DIV PUSH1 0x5A DUP2 GT PUSH2 0x2A0E JUMPI SWAP3 POP PUSH1 0x1 SWAP2 POP PUSH2 0x25D4 SWAP1 POP JUMP JUMPDEST PUSH2 0x168 DUP2 GT PUSH2 0x2A4D JUMPI PUSH1 0x0 PUSH3 0x15180 PUSH3 0x7E900 DUP5 MOD DIV DUP3 ADD PUSH1 0x59 NOT ADD SWAP1 POP PUSH1 0x6 DUP2 DIV PUSH1 0x5A ADD PUSH1 0x6 DUP3 DUP2 PUSH2 0x2A3D JUMPI INVALID JUMPDEST MOD PUSH1 0x0 EQ SWAP5 POP SWAP5 POP POP POP POP PUSH2 0x25D4 JUMP JUMPDEST PUSH2 0x870 DUP2 GT PUSH2 0x2A7D JUMPI PUSH1 0x0 PUSH3 0x15180 PUSH3 0x278D00 DUP5 MOD DIV DUP3 ADD PUSH2 0x167 NOT ADD SWAP1 POP PUSH1 0x1E DUP2 DIV PUSH1 0x87 ADD PUSH1 0x1E DUP3 DUP2 PUSH2 0x2A3D JUMPI INVALID JUMPDEST PUSH2 0x1DE2 DUP2 GT PUSH2 0x2AAD JUMPI PUSH1 0x0 PUSH3 0x15180 PUSH3 0x76A700 DUP5 MOD DIV DUP3 ADD PUSH2 0x86F NOT ADD SWAP1 POP PUSH1 0x5A DUP2 DIV PUSH1 0xC3 ADD PUSH1 0x5A DUP3 DUP2 PUSH2 0x2A3D JUMPI INVALID JUMPDEST POP PUSH2 0x100 SWAP6 PUSH1 0x0 SWAP6 POP SWAP4 POP POP POP POP JUMP JUMPDEST PUSH1 0x0 PUSH1 0x1 DUP3 LT ISZERO DUP1 ISZERO PUSH2 0x2AD2 JUMPI POP PUSH2 0x100 DUP3 GT ISZERO JUMPDEST PUSH2 0x2ADB JUMPI PUSH1 0x0 DUP1 REVERT JUMPDEST POP PUSH1 0x0 NOT ADD SHL PUSH1 0x1 PUSH1 0xFF SHL SWAP1 DUP2 AND EQ SWAP1 JUMP JUMPDEST PUSH1 0x0 PUSH1 0x1 PUSH1 0x1 PUSH1 0x7F SHL SUB NOT DUP3 SLT DUP1 ISZERO SWAP1 PUSH2 0x2B0E JUMPI POP PUSH1 0x1 PUSH1 0x1 PUSH1 0x7F SHL SUB DUP3 SGT ISZERO JUMPDEST PUSH2 0xBC1 JUMPI PUSH1 0x0 DUP1 REVERT JUMPDEST PUSH1 0x0 PUSH2 0x2B23 DUP4 DUP4 PUSH2 0x360D JUMP JUMPDEST SWAP1 POP DUP1 PUSH2 0x2B30 JUMPI POP PUSH2 0x113 JUMP JUMPDEST PUSH1 0x0 PUSH2 0x2B3A PUSH2 0x3694 JUMP JUMPDEST PUSH2 0xFFFF DUP8 AND PUSH1 0x0 SWAP1 DUP2 MSTORE PUSH1 0x20 DUP3 DUP2 MSTORE PUSH1 0x40 DUP1 DUP4 KECCAK256 DUP10 DUP5 MSTORE SWAP1 SWAP2 MSTORE DUP2 KECCAK256 SLOAD SWAP2 SWAP3 POP PUSH1 0x1 PUSH1 0x1 PUSH1 0x50 SHL SUB SWAP1 SWAP2 AND DUP2 SUB SWAP1 PUSH2 0x2B72 DUP3 DUP6 PUSH2 0x2405 JUMP JUMPDEST SWAP1 POP PUSH1 0x0 DUP2 SGT ISZERO PUSH2 0x2B82 JUMPI PUSH1 0x0 DUP1 REVERT JUMPDEST PUSH2 0x2B9B PUSH2 0x2B96 PUSH2 0x2B91 DUP4 PUSH2 0x15E9 JUMP JUMPDEST PUSH2 0xBB2 JUMP JUMPDEST PUSH2 0x36A1 JUMP JUMPDEST PUSH2 0xFFFF DUP10 AND PUSH1 0x0 SWAP1 DUP2 MSTORE PUSH1 0x20 DUP6 DUP2 MSTORE PUSH1 0x40 DUP1 DUP4 KECCAK256 DUP12 DUP5 MSTORE SWAP1 SWAP2 MSTORE SWAP1 KECCAK256 DUP1 SLOAD PUSH1 0x1 PUSH1 0x1 PUSH1 0x50 SHL SUB NOT AND PUSH1 0x1 PUSH1 0x1 PUSH1 0x50 SHL SUB SWAP3 SWAP1 SWAP3 AND SWAP2 SWAP1 SWAP2 OR SWAP1 SSTORE PUSH2 0x2BE1 DUP10 DUP10 DUP10 DUP8 PUSH2 0x36B7 JUMP JUMPDEST POP POP POP POP POP POP POP POP POP JUMP JUMPDEST PUSH1 0x14 PUSH2 0x2BF7 DUP3 PUSH2 0x3741 JUMP JUMPDEST GT ISZERO PUSH2 0x2C15 JUMPI PUSH1 0x40 MLOAD PUSH3 0x461BCD PUSH1 0xE5 SHL DUP2 MSTORE PUSH1 0x4 ADD PUSH2 0x34A SWAP1 PUSH2 0x5DC2 JUMP JUMPDEST PUSH1 0x0 PUSH2 0x2C1F PUSH2 0x325B JUMP JUMPDEST PUSH1 0x1 PUSH1 0x1 PUSH1 0xA0 SHL SUB SWAP1 SWAP5 AND PUSH1 0x0 SWAP1 DUP2 MSTORE PUSH1 0x20 SWAP5 DUP6 MSTORE PUSH1 0x40 DUP1 DUP3 KECCAK256 SWAP5 DUP3 MSTORE SWAP4 SWAP1 SWAP5 MSTORE POP SWAP2 KECCAK256 SSTORE JUMP JUMPDEST PUSH1 0x0 DUP1 DUP3 PUSH1 0x40 ADD MLOAD GT DUP1 ISZERO PUSH2 0x2C60 JUMPI POP PUSH1 0x40 DUP3 ADD MLOAD PUSH1 0x8 LT ISZERO JUMPDEST PUSH2 0x2C69 JUMPI PUSH1 0x0 DUP1 REVERT JUMPDEST PUSH1 0x40 DUP3 ADD MLOAD PUSH1 0x2 LT PUSH2 0x2C80 JUMPI POP PUSH1 0x20 DUP2 ADD MLOAD PUSH2 0x874 JUMP JUMPDEST PUSH1 0x0 PUSH2 0x2C92 PUSH1 0x1 DUP5 PUSH1 0x40 ADD MLOAD SUB PUSH2 0x7D0 JUMP JUMPDEST PUSH1 0x20 DUP5 ADD MLOAD SWAP1 SWAP2 POP PUSH2 0x8AC SWAP1 PUSH3 0x76A700 SWAP1 PUSH2 0x220 SWAP1 DUP5 PUSH2 0x20FB JUMP JUMPDEST PUSH1 0x0 PUSH3 0xF4240 DUP3 PUSH1 0x26 DUP2 GT ISZERO PUSH2 0x2CBF JUMPI INVALID JUMPDEST ADD SWAP3 SWAP2 POP POP JUMP JUMPDEST PUSH1 0x0 DUP1 PUSH2 0x7CA PUSH1 0x6 PUSH2 0x2CAD JUMP JUMPDEST PUSH1 0x0 PUSH1 0x1 PUSH1 0x1 PUSH1 0x57 SHL SUB NOT DUP3 SLT DUP1 ISZERO SWAP1 PUSH2 0x2B0E JUMPI POP PUSH1 0x1 PUSH1 0x1 PUSH1 0x57 SHL SUB DUP3 SGT ISZERO PUSH2 0xBC1 JUMPI PUSH1 0x0 DUP1 REVERT JUMPDEST PUSH1 0x0 DUP1 PUSH2 0x7CA PUSH1 0x3 PUSH2 0x2CAD JUMP JUMPDEST PUSH1 0x0 DUP1 PUSH2 0x7CA PUSH1 0x11 PUSH2 0x2CAD JUMP JUMPDEST PUSH1 0x60 PUSH2 0x283C DUP4 DUP4 PUSH2 0x3811 JUMP JUMPDEST PUSH2 0x2D2A PUSH2 0x5B5A JUMP JUMPDEST PUSH1 0x0 PUSH2 0x2D35 DUP5 PUSH2 0x3832 JUMP JUMPDEST SWAP1 POP DUP3 DUP2 PUSH1 0x0 ADD MLOAD LT ISZERO PUSH2 0x2D74 JUMPI PUSH1 0x0 DUP1 PUSH2 0x2D4F DUP7 PUSH2 0x38FA JUMP JUMPDEST SWAP1 POP PUSH2 0x2D5D DUP7 DUP5 DUP4 DUP9 PUSH2 0x3977 JUMP JUMPDEST SWAP1 SWAP4 POP SWAP2 POP PUSH2 0x2D6D DUP7 DUP4 DUP6 PUSH2 0x3A1B JUMP JUMPDEST POP POP PUSH2 0x2D81 JUMP JUMPDEST DUP1 MLOAD DUP4 EQ PUSH2 0x2D81 JUMPI PUSH1 0x0 DUP1 REVERT JUMPDEST PUSH1 0x40 MLOAD DUP1 PUSH1 0x60 ADD PUSH1 0x40 MSTORE DUP1 PUSH2 0x2DAF PUSH2 0x2DAA DUP5 PUSH1 0xA0 ADD MLOAD DUP6 PUSH1 0xC0 ADD MLOAD PUSH2 0x14DE SWAP1 SWAP2 SWAP1 PUSH4 0xFFFFFFFF AND JUMP JUMPDEST PUSH2 0x3C4C JUMP JUMPDEST DUP2 MSTORE PUSH1 0x20 ADD PUSH2 0x2DD2 PUSH2 0x2DAA DUP5 PUSH1 0xA0 ADD MLOAD DUP6 PUSH1 0xE0 ADD MLOAD PUSH2 0x14DE SWAP1 SWAP2 SWAP1 PUSH4 0xFFFFFFFF AND JUMP JUMPDEST DUP2 MSTORE PUSH1 0x20 ADD DUP3 PUSH1 0x60 ADD MLOAD DUP2 MSTORE POP SWAP2 POP POP SWAP3 SWAP2 POP POP JUMP JUMPDEST PUSH1 0x0 DUP1 PUSH2 0x2DF3 PUSH2 0x3C62 JUMP JUMPDEST PUSH1 0x0 SWAP4 DUP5 MSTORE PUSH1 0x20 MSTORE POP POP PUSH1 0x40 SWAP1 KECCAK256 SLOAD SWAP1 JUMP JUMPDEST PUSH2 0x2E13 DUP5 DUP5 DUP5 PUSH1 0x1 DUP6 PUSH2 0x3118 JUMP JUMPDEST POP POP POP POP JUMP JUMPDEST PUSH1 0x0 DUP1 DUP3 PUSH2 0x2E2C JUMPI POP PUSH1 0x0 SWAP1 POP DUP1 PUSH2 0x25D4 JUMP JUMPDEST PUSH1 0x0 DUP4 SGT PUSH2 0x2E39 JUMPI PUSH1 0x0 DUP1 REVERT JUMPDEST PUSH2 0x2E58 DUP5 PUSH1 0x80 ADD MLOAD PUSH2 0x8C8 DUP6 DUP8 PUSH1 0x60 ADD MLOAD PUSH2 0x1330 SWAP1 SWAP2 SWAP1 PUSH4 0xFFFFFFFF AND JUMP JUMPDEST SWAP2 POP PUSH2 0x2E79 DUP5 PUSH1 0x80 ADD MLOAD PUSH2 0x8C8 DUP6 DUP8 PUSH1 0x40 ADD MLOAD PUSH2 0x1330 SWAP1 SWAP2 SWAP1 PUSH4 0xFFFFFFFF AND JUMP JUMPDEST PUSH1 0x80 DUP6 ADD MLOAD SWAP1 SWAP2 POP PUSH2 0x2E8B SWAP1 DUP5 PUSH2 0x1245 JUMP JUMPDEST PUSH1 0x80 DUP6 ADD MSTORE PUSH1 0x40 DUP5 ADD MLOAD PUSH2 0x2E9F SWAP1 DUP3 PUSH2 0x1245 JUMP JUMPDEST PUSH1 0x40 DUP6 ADD MSTORE PUSH1 0x60 DUP5 ADD MLOAD PUSH2 0x2EB3 SWAP1 DUP4 PUSH2 0x1245 JUMP JUMPDEST PUSH1 0x60 DUP6 ADD MSTORE PUSH2 0x25D4 DUP5 PUSH2 0x3C6F JUMP JUMPDEST PUSH1 0x0 DUP1 PUSH2 0x2ECF DUP7 DUP7 DUP6 PUSH2 0x3CC7 JUMP JUMPDEST SWAP1 POP PUSH1 0x0 PUSH2 0x2EDE DUP10 DUP4 DUP8 PUSH2 0x3CF0 JUMP JUMPDEST SWAP1 SWAP4 POP SWAP1 POP PUSH1 0x1 PUSH1 0x1 PUSH1 0xA0 SHL SUB DUP9 AND ISZERO PUSH2 0x205B JUMPI PUSH2 0x205B DUP9 DUP9 DUP9 DUP9 DUP6 PUSH2 0x3D58 JUMP JUMPDEST PUSH1 0x0 DUP1 PUSH2 0x2F0A PUSH2 0x29A8 JUMP JUMPDEST PUSH1 0x1 PUSH1 0x1 PUSH1 0xA0 SHL SUB DUP9 AND PUSH1 0x0 SWAP1 DUP2 MSTORE PUSH1 0x20 DUP3 DUP2 MSTORE PUSH1 0x40 DUP1 DUP4 KECCAK256 PUSH2 0xFFFF DUP12 AND DUP5 MSTORE DUP3 MSTORE DUP1 DUP4 KECCAK256 DUP10 DUP5 MSTORE SWAP1 SWAP2 MSTORE SWAP1 KECCAK256 SLOAD SWAP1 SWAP2 POP PUSH1 0xF SWAP1 DUP2 SIGNEXTEND SWAP1 SIGNEXTEND PUSH2 0x2F50 DUP5 DUP10 DUP10 DUP10 DUP6 DUP11 PUSH2 0x2EC1 JUMP JUMPDEST PUSH1 0x1 PUSH1 0x1 PUSH1 0xA0 SHL SUB SWAP1 SWAP9 AND PUSH1 0x0 SWAP1 DUP2 MSTORE PUSH1 0x20 SWAP3 DUP4 MSTORE PUSH1 0x40 DUP1 DUP3 KECCAK256 PUSH2 0xFFFF SWAP1 SWAP10 AND DUP3 MSTORE SWAP8 DUP4 MSTORE DUP8 DUP2 KECCAK256 SWAP7 DUP2 MSTORE SWAP6 SWAP1 SWAP2 MSTORE POP POP POP SWAP2 SWAP1 KECCAK256 DUP1 SLOAD PUSH1 0x1 PUSH1 0x1 PUSH1 0x80 SHL SUB NOT AND SWAP1 SSTORE POP SWAP1 JUMP JUMPDEST PUSH1 0x0 DUP1 DUP3 SLT ISZERO PUSH2 0x2FD0 JUMPI PUSH2 0x2FCB PUSH1 0x1 PUSH2 0x2FC5 DUP6 PUSH1 0x20 ADD MLOAD PUSH2 0x8C8 DUP8 PUSH1 0x0 ADD MLOAD DUP8 PUSH2 0x1330 SWAP1 SWAP2 SWAP1 PUSH4 0xFFFFFFFF AND JUMP JUMPDEST SWAP1 PUSH2 0x2405 JUMP JUMPDEST PUSH2 0x8AC JUMP JUMPDEST POP SWAP2 SWAP1 POP JUMP JUMPDEST PUSH1 0x0 PUSH2 0x2FE0 PUSH2 0x3E4A JUMP JUMPDEST PUSH2 0xFFFF DUP6 AND PUSH1 0x0 SWAP1 DUP2 MSTORE PUSH1 0x20 SWAP2 SWAP1 SWAP2 MSTORE PUSH1 0x40 SWAP1 KECCAK256 DUP1 SLOAD SWAP1 SWAP2 POP PUSH5 0xFFFFFFFFFF AND TIMESTAMP EQ PUSH2 0x300B JUMPI PUSH1 0x0 DUP1 REVERT JUMPDEST DUP1 SLOAD PUSH1 0x1 PUSH1 0xF8 SHL SWAP1 DIV PUSH1 0xFF AND PUSH2 0x3020 JUMPI PUSH1 0x0 DUP1 REVERT JUMPDEST PUSH1 0x1 DUP2 ADD SLOAD PUSH1 0x0 SWAP1 PUSH2 0x303B SWAP1 PUSH1 0x1 PUSH1 0x1 PUSH1 0x58 SHL SUB AND DUP6 PUSH2 0x1F86 JUMP JUMPDEST DUP3 SLOAD SWAP1 SWAP2 POP PUSH1 0x0 SWAP1 PUSH2 0x305D SWAP1 PUSH1 0x1 PUSH1 0x28 SHL SWAP1 DIV PUSH1 0x1 PUSH1 0x1 PUSH1 0x58 SHL SUB AND DUP6 PUSH2 0x1F86 JUMP JUMPDEST SWAP1 POP DUP2 PUSH1 0x9 NOT SLT DUP1 ISZERO PUSH2 0x3070 JUMPI POP PUSH1 0x0 DUP3 SLT JUMPDEST ISZERO PUSH2 0x307A JUMPI PUSH1 0x0 SWAP2 POP JUMPDEST DUP1 PUSH1 0x9 NOT SLT DUP1 ISZERO PUSH2 0x308B JUMPI POP PUSH1 0x0 DUP2 SLT JUMPDEST ISZERO PUSH2 0x3094 JUMPI POP PUSH1 0x0 JUMPDEST PUSH2 0x30A5 PUSH2 0x30A0 DUP4 PUSH2 0xBB2 JUMP JUMPDEST PUSH2 0x3E57 JUMP JUMPDEST PUSH1 0x1 DUP5 ADD DUP1 SLOAD PUSH11 0xFFFFFFFFFFFFFFFFFFFFFF NOT AND PUSH1 0x1 PUSH1 0x1 PUSH1 0x58 SHL SUB SWAP3 SWAP1 SWAP3 AND SWAP2 SWAP1 SWAP2 OR SWAP1 SSTORE PUSH2 0x30D7 PUSH2 0x30A0 DUP3 PUSH2 0xBB2 JUMP JUMPDEST DUP4 SLOAD PUSH1 0x1 PUSH1 0x1 PUSH1 0x58 SHL SUB SWAP2 SWAP1 SWAP2 AND PUSH1 0x1 PUSH1 0x28 SHL MUL PUSH16 0xFFFFFFFFFFFFFFFFFFFFFF0000000000 NOT SWAP1 SWAP2 AND OR DUP4 SSTORE PUSH2 0x310F DUP8 DUP8 DUP7 DUP9 PUSH2 0x3E6D JUMP JUMPDEST PUSH2 0x1101 DUP4 PUSH2 0x3F81 JUMP JUMPDEST PUSH1 0x0 PUSH2 0x3122 PUSH2 0x2844 JUMP JUMPDEST PUSH1 0x0 DUP7 DUP2 MSTORE PUSH1 0x20 DUP3 DUP2 MSTORE PUSH1 0x40 DUP1 DUP4 KECCAK256 DUP9 DUP5 MSTORE DUP3 MSTORE DUP1 DUP4 KECCAK256 DUP7 DUP5 MSTORE DUP3 MSTORE SWAP2 DUP3 SWAP1 KECCAK256 DUP1 DUP11 MSTORE SWAP1 DUP10 ADD DUP8 SWAP1 MSTORE DUP1 SLOAD PUSH1 0x1 PUSH1 0x1 PUSH1 0x50 SHL SUB DUP1 DUP3 AND SWAP4 DUP12 ADD SWAP4 SWAP1 SWAP4 MSTORE PUSH1 0x1 PUSH1 0x50 SHL DUP2 DIV SWAP1 SWAP3 AND PUSH1 0x60 DUP11 ADD MSTORE PUSH4 0xFFFFFFFF PUSH1 0x1 PUSH1 0xA0 SHL DUP4 DIV DUP2 AND PUSH1 0xA0 DUP12 ADD MSTORE PUSH1 0x1 PUSH1 0xC0 SHL DUP4 DIV DUP2 AND PUSH1 0xC0 DUP12 ADD MSTORE PUSH1 0x1 PUSH1 0xE0 SHL SWAP1 SWAP3 DIV SWAP1 SWAP2 AND PUSH1 0xE0 DUP10 ADD MSTORE SWAP1 SWAP2 POP DUP1 DUP5 ISZERO PUSH2 0x31C1 JUMPI PUSH1 0x1 DUP3 ADD SLOAD PUSH1 0x1 PUSH1 0x1 PUSH1 0x50 SHL SUB AND PUSH1 0x80 DUP10 ADD MSTORE PUSH2 0x31C9 JUMP JUMPDEST PUSH1 0x0 PUSH1 0x80 DUP10 ADD MSTORE JUMPDEST POP POP POP POP POP POP POP POP JUMP JUMPDEST PUSH1 0x0 DUP1 DUP4 GT PUSH2 0x31E1 JUMPI PUSH1 0x0 DUP1 REVERT JUMPDEST DUP2 DUP7 GT ISZERO PUSH2 0x31F0 JUMPI POP DUP4 PUSH2 0x663 JUMP JUMPDEST PUSH1 0x0 PUSH2 0x31FC DUP4 DUP9 PUSH2 0x20FB JUMP JUMPDEST SWAP1 POP DUP4 DUP2 GT ISZERO PUSH2 0x320F JUMPI DUP6 SWAP2 POP POP PUSH2 0x663 JUMP JUMPDEST PUSH1 0x0 PUSH2 0x321B DUP3 DUP7 PUSH2 0x4046 JUMP JUMPDEST SWAP1 POP PUSH1 0x0 PUSH2 0x322D PUSH4 0x3B9ACA00 DUP4 PUSH2 0x20FB JUMP JUMPDEST SWAP1 POP PUSH2 0x324E PUSH4 0x3B9ACA00 PUSH2 0x98B PUSH2 0x3244 DUP11 DUP6 PUSH2 0x14DE JUMP JUMPDEST PUSH2 0x220 DUP13 DUP8 PUSH2 0x14DE JUMP JUMPDEST SWAP10 SWAP9 POP POP POP POP POP POP POP POP POP JUMP JUMPDEST PUSH1 0x0 DUP1 PUSH2 0x7CA PUSH1 0xB PUSH2 0x2CAD JUMP JUMPDEST PUSH1 0x0 DUP2 PUSH2 0x3274 JUMPI PUSH1 0x0 DUP1 REVERT JUMPDEST PUSH1 0x1 PUSH1 0x80 SHL DUP3 LT PUSH2 0x3287 JUMPI PUSH1 0x80 SWAP2 DUP3 SHR SWAP2 ADD JUMPDEST PUSH1 0x1 PUSH1 0x40 SHL DUP3 LT PUSH2 0x329A JUMPI PUSH1 0x40 SWAP2 DUP3 SHR SWAP2 ADD JUMPDEST PUSH5 0x100000000 DUP3 LT PUSH2 0x32AE JUMPI PUSH1 0x20 SWAP2 DUP3 SHR SWAP2 ADD JUMPDEST PUSH3 0x10000 DUP3 LT PUSH2 0x32C0 JUMPI PUSH1 0x10 SWAP2 DUP3 SHR SWAP2 ADD JUMPDEST PUSH2 0x100 DUP3 LT PUSH2 0x32D1 JUMPI PUSH1 0x8 SWAP2 DUP3 SHR SWAP2 ADD JUMPDEST PUSH1 0x10 DUP3 LT PUSH2 0x32E1 JUMPI PUSH1 0x4 SWAP2 DUP3 SHR SWAP2 ADD JUMPDEST PUSH1 0x4 DUP3 LT PUSH2 0x32F1 JUMPI PUSH1 0x2 SWAP2 DUP3 SHR SWAP2 ADD JUMPDEST PUSH1 0x2 DUP3 LT PUSH2 0x874 JUMPI PUSH1 0x1 ADD SWAP2 SWAP1 POP JUMP JUMPDEST PUSH1 0x0 DUP1 PUSH1 0x0 DUP6 GT PUSH2 0x3311 JUMPI PUSH1 0x0 DUP1 REVERT JUMPDEST PUSH1 0x7 DUP6 GT ISZERO PUSH2 0x331F JUMPI PUSH1 0x0 DUP1 REVERT JUMPDEST PUSH1 0x0 PUSH2 0x332A DUP5 PUSH2 0x879 JUMP JUMPDEST SWAP1 POP PUSH1 0x1 JUMPDEST DUP7 DUP2 GT PUSH2 0x3382 JUMPI PUSH1 0x0 PUSH2 0x334B PUSH2 0x3344 DUP4 PUSH2 0x7D0 JUMP JUMPDEST DUP5 SWAP1 PUSH2 0x89A JUMP JUMPDEST SWAP1 POP DUP7 DUP2 EQ ISZERO PUSH2 0x3363 JUMPI POP SWAP3 POP PUSH1 0x0 SWAP2 POP PUSH2 0x3388 SWAP1 POP JUMP JUMPDEST DUP7 DUP2 GT ISZERO PUSH2 0x3379 JUMPI POP SWAP3 POP PUSH1 0x1 SWAP2 POP PUSH2 0x3388 SWAP1 POP JUMP JUMPDEST POP PUSH1 0x1 ADD PUSH2 0x332F JUMP JUMPDEST POP PUSH1 0x0 DUP1 REVERT JUMPDEST SWAP4 POP SWAP4 SWAP2 POP POP JUMP JUMPDEST PUSH1 0x0 DUP1 PUSH2 0x339B PUSH2 0x2844 JUMP JUMPDEST SWAP1 POP PUSH1 0x0 PUSH3 0x76A700 PUSH2 0x33AC DUP6 PUSH2 0x879 JUMP JUMPDEST PUSH1 0x0 DUP10 DUP2 MSTORE PUSH1 0x20 DUP6 DUP2 MSTORE PUSH1 0x40 DUP1 DUP4 KECCAK256 DUP12 DUP5 MSTORE DUP3 MSTORE DUP1 DUP4 KECCAK256 SWAP5 SWAP1 SWAP4 ADD DUP1 DUP4 MSTORE SWAP4 SWAP1 MSTORE KECCAK256 DUP1 SLOAD SWAP2 SWAP3 POP SWAP1 PUSH4 0xFFFFFFFF PUSH1 0x1 PUSH1 0xA0 SHL DUP3 DIV DUP2 AND SWAP2 PUSH1 0x1 PUSH1 0xC0 SHL DUP2 DIV DUP3 AND SWAP2 PUSH1 0x1 PUSH1 0xE0 SHL SWAP1 SWAP2 DIV AND DUP2 PUSH2 0x3413 JUMPI PUSH1 0x40 MLOAD PUSH3 0x461BCD PUSH1 0xE5 SHL DUP2 MSTORE PUSH1 0x4 ADD PUSH2 0x34A SWAP1 PUSH2 0x5D0E JUMP JUMPDEST PUSH2 0x3420 DUP2 DUP5 DUP5 DUP13 DUP13 PUSH2 0x31D3 JUMP JUMPDEST SWAP12 SWAP11 POP POP POP POP POP POP POP POP POP POP POP JUMP JUMPDEST PUSH1 0x0 DUP1 PUSH2 0x344C PUSH2 0x3447 PUSH4 0x1DA9C00 PUSH2 0x98B DUP7 DUP9 PUSH2 0x14DE JUMP JUMPDEST PUSH2 0x405F JUMP JUMPDEST SWAP1 POP PUSH2 0x345E DUP2 PUSH3 0x1DCD65 PUSH1 0x49 SHL PUSH2 0x407D JUMP JUMPDEST SWAP1 POP PUSH2 0x3471 PUSH2 0x346C DUP3 PUSH2 0x40D0 JUMP JUMPDEST PUSH2 0x40F2 JUMP JUMPDEST SWAP1 POP PUSH2 0x3483 DUP2 PUSH3 0x1DCD65 PUSH1 0x49 SHL PUSH2 0x4147 JUMP JUMPDEST SWAP1 POP PUSH1 0x0 PUSH2 0x3490 DUP3 PUSH2 0x417D JUMP JUMPDEST PUSH1 0x7 SIGNEXTEND SWAP6 SWAP5 POP POP POP POP POP JUMP JUMPDEST PUSH1 0x0 PUSH2 0x8AC PUSH2 0x34AB DUP5 DUP5 PUSH2 0x1330 JUMP JUMPDEST PUSH4 0x3B9ACA00 PUSH2 0x137E JUMP JUMPDEST PUSH1 0x0 DUP2 PUSH1 0x0 LT PUSH2 0x34C4 JUMPI PUSH1 0x0 DUP1 REVERT JUMPDEST PUSH1 0x7 DUP3 GT ISZERO PUSH2 0x34D2 JUMPI PUSH1 0x0 DUP1 REVERT JUMPDEST PUSH1 0x4 DUP3 LT PUSH2 0x34E3 JUMPI PUSH1 0x4 DUP3 SUB PUSH2 0x34E5 JUMP JUMPDEST DUP2 JUMPDEST PUSH1 0x8 MUL SWAP3 SWAP2 POP POP JUMP JUMPDEST PUSH2 0x34F6 PUSH2 0x5A7D JUMP JUMPDEST PUSH1 0x64 PUSH4 0x3B9ACA00 DUP4 PUSH1 0xFF DUP7 AND PUSH1 0x20 DUP2 LT PUSH2 0x350C JUMPI INVALID JUMPDEST BYTE MUL DUP2 PUSH2 0x3515 JUMPI INVALID JUMPDEST DIV DUP2 MSTORE PUSH1 0x64 PUSH4 0x3B9ACA00 DUP4 PUSH1 0xFF DUP7 AND PUSH1 0x1 ADD PUSH1 0x20 DUP2 LT PUSH2 0x3531 JUMPI INVALID JUMPDEST BYTE MUL DUP2 PUSH2 0x353A JUMPI INVALID JUMPDEST DIV DUP2 PUSH1 0x20 ADD DUP2 DUP2 MSTORE POP POP PUSH2 0x355F DUP3 PUSH1 0x2 DUP6 PUSH1 0xFF AND ADD PUSH1 0x20 DUP2 LT PUSH2 0x3559 JUMPI INVALID JUMPDEST BYTE PUSH2 0x4186 JUMP JUMPDEST PUSH1 0x80 DUP3 ADD DUP2 SWAP1 MSTORE PUSH2 0x100 SWAP1 DUP4 PUSH1 0xFF DUP7 AND PUSH1 0x3 ADD PUSH1 0x20 DUP2 LT PUSH2 0x357C JUMPI INVALID JUMPDEST BYTE MUL DUP2 PUSH2 0x3585 JUMPI INVALID JUMPDEST DIV PUSH1 0x40 DUP3 ADD MSTORE PUSH1 0x80 DUP2 ADD MLOAD PUSH2 0x100 SWAP1 DUP4 PUSH1 0xFF DUP7 AND PUSH1 0x4 ADD PUSH1 0x20 DUP2 LT PUSH2 0x35A6 JUMPI INVALID JUMPDEST BYTE MUL DUP2 PUSH2 0x35AF JUMPI INVALID JUMPDEST DIV PUSH1 0x60 DUP3 ADD MSTORE PUSH3 0x7A120 DUP3 PUSH1 0xFF DUP6 AND PUSH1 0x5 ADD PUSH1 0x20 DUP2 LT PUSH2 0x35CB JUMPI INVALID JUMPDEST BYTE MUL PUSH1 0xA0 DUP3 ADD MSTORE PUSH3 0x2625A0 DUP3 PUSH1 0xFF DUP6 AND PUSH1 0x6 ADD PUSH1 0x20 DUP2 LT PUSH2 0x35E8 JUMPI INVALID JUMPDEST BYTE MUL PUSH1 0xC0 DUP3 ADD MSTORE DUP2 PUSH1 0xFF DUP5 AND PUSH1 0x7 ADD PUSH1 0x20 DUP2 LT PUSH2 0x3601 JUMPI INVALID JUMPDEST BYTE PUSH1 0xE0 DUP3 ADD MSTORE SWAP3 SWAP2 POP POP JUMP JUMPDEST PUSH1 0x0 DUP2 DUP4 EQ DUP1 PUSH2 0x362A JUMPI POP PUSH1 0x0 DUP4 SLT ISZERO DUP1 ISZERO PUSH2 0x362A JUMPI POP PUSH1 0x0 DUP3 SLT ISZERO JUMPDEST ISZERO PUSH2 0x3637 JUMPI POP PUSH1 0x0 PUSH2 0x7CA JUMP JUMPDEST PUSH1 0x0 DUP4 SGT ISZERO DUP1 ISZERO PUSH2 0x3648 JUMPI POP DUP2 PUSH1 0x0 SLT JUMPDEST ISZERO PUSH2 0x3654 JUMPI POP DUP2 PUSH2 0x7CA JUMP JUMPDEST PUSH1 0x0 DUP3 SGT ISZERO DUP1 ISZERO PUSH2 0x3665 JUMPI POP DUP3 PUSH1 0x0 SLT JUMPDEST ISZERO PUSH2 0x3673 JUMPI PUSH2 0x991 DUP3 PUSH2 0x15E9 JUMP JUMPDEST PUSH1 0x0 DUP4 SGT ISZERO DUP1 ISZERO PUSH2 0x3685 JUMPI POP PUSH1 0x0 DUP3 SGT ISZERO JUMPDEST ISZERO PUSH2 0x4B JUMPI PUSH2 0x991 DUP4 DUP4 PUSH2 0x2405 JUMP JUMPDEST PUSH1 0x0 DUP1 PUSH2 0x7CA PUSH1 0x20 PUSH2 0x2CAD JUMP JUMPDEST PUSH1 0x0 PUSH1 0x1 PUSH1 0x1 PUSH1 0x50 SHL SUB DUP3 GT ISZERO PUSH2 0xBC1 JUMPI PUSH1 0x0 DUP1 REVERT JUMPDEST PUSH1 0x0 DUP1 PUSH2 0x36C5 DUP6 DUP6 DUP6 PUSH2 0x41BA JUMP JUMPDEST SWAP2 POP SWAP2 POP PUSH1 0x0 DUP1 PUSH1 0x0 DUP6 SLT ISZERO PUSH2 0x36DD JUMPI DUP8 SWAP2 POP PUSH2 0x36E0 JUMP JUMPDEST POP DUP7 JUMPDEST DUP1 PUSH1 0x1 PUSH1 0x1 PUSH1 0xA0 SHL SUB AND DUP3 PUSH1 0x1 PUSH1 0x1 PUSH1 0xA0 SHL SUB AND CALLER PUSH1 0x1 PUSH1 0x1 PUSH1 0xA0 SHL SUB AND PUSH32 0x4A39DC06D4C0DBC64B70AF90FD698A233A518AA5D07E595D983B8C0526C8F7FB DUP8 DUP8 PUSH1 0x40 MLOAD PUSH2 0x372F SWAP3 SWAP2 SWAP1 PUSH2 0x5CDB JUMP JUMPDEST PUSH1 0x40 MLOAD DUP1 SWAP2 SUB SWAP1 LOG4 POP POP POP POP POP POP POP POP JUMP JUMPDEST PUSH1 0x1 DUP2 SWAP1 SHR PUSH32 0x5555555555555555555555555555555555555555555555555555555555555555 SWAP1 DUP2 AND SWAP2 AND ADD PUSH1 0x2 DUP2 SWAP1 SHR PUSH32 0x3333333333333333333333333333333333333333333333333333333333333333 SWAP1 DUP2 AND SWAP2 AND ADD PUSH1 0x4 DUP2 SWAP1 SHR PUSH32 0x707070707070707070707070707070707070707070707070707070707070707 SWAP2 SWAP1 SWAP2 AND ADD PUSH1 0x8 DUP2 SWAP1 SHR PUSH31 0xF000F000F000F000F000F000F000F000F000F000F000F000F000F000F000F SWAP1 DUP2 AND SWAP2 AND ADD PUSH1 0x10 DUP2 SWAP1 SHR ADD PUSH1 0x20 DUP2 SWAP1 SHR ADD PUSH1 0x40 DUP2 SWAP1 SHR ADD PUSH1 0x80 DUP2 SWAP1 SHR PUSH1 0xFF SWAP1 DUP2 AND SWAP2 AND ADD SWAP1 JUMP JUMPDEST PUSH1 0x60 DUP1 PUSH2 0x381E DUP5 DUP5 PUSH2 0x429F JUMP JUMPDEST SWAP2 POP PUSH2 0x3829 DUP3 PUSH2 0x43B7 JUMP JUMPDEST SWAP1 POP SWAP3 POP SWAP3 SWAP1 POP JUMP JUMPDEST PUSH2 0x383A PUSH2 0x5B7B JUMP JUMPDEST PUSH1 0x0 PUSH2 0x3844 PUSH2 0x3E4A JUMP JUMPDEST PUSH2 0xFFFF SWAP4 DUP5 AND PUSH1 0x0 SWAP1 DUP2 MSTORE PUSH1 0x20 SWAP2 DUP3 MSTORE PUSH1 0x40 SWAP1 DUP2 SWAP1 KECCAK256 DUP1 SLOAD PUSH5 0xFFFFFFFFFF DUP2 AND DUP7 MSTORE PUSH1 0x1 PUSH1 0x28 SHL DUP2 DIV PUSH1 0x1 PUSH1 0x1 PUSH1 0x58 SHL SUB SWAP1 DUP2 AND SWAP5 DUP8 ADD SWAP5 SWAP1 SWAP5 MSTORE PUSH1 0x1 DUP3 ADD SLOAD DUP5 AND SWAP3 DUP7 ADD SWAP3 SWAP1 SWAP3 MSTORE PUSH1 0x1 PUSH1 0xD8 SHL DUP3 DIV PUSH4 0xFFFFFFFF AND PUSH1 0x60 DUP7 ADD MSTORE PUSH1 0x1 PUSH1 0x80 SHL SWAP1 SWAP2 DIV SWAP1 SWAP2 AND PUSH1 0x80 DUP5 ADD MSTORE PUSH1 0x2 ADD SLOAD PUSH1 0x1 PUSH1 0x1 PUSH1 0x50 SHL SUB DUP1 DUP3 AND PUSH1 0xA0 DUP6 ADD MSTORE PUSH1 0x1 PUSH1 0x50 SHL DUP3 DIV DUP2 AND PUSH1 0xC0 DUP6 ADD MSTORE PUSH1 0x1 PUSH1 0xA0 SHL DUP3 DIV AND PUSH1 0xE0 DUP5 ADD MSTORE PUSH1 0x1 PUSH1 0xF0 SHL SWAP1 DIV PUSH1 0xFF AND PUSH2 0x12C MUL SWAP1 SWAP3 AND PUSH2 0x100 DUP3 ADD MSTORE SWAP2 SWAP1 POP JUMP JUMPDEST PUSH1 0x0 DUP1 PUSH2 0x3906 DUP4 PUSH2 0x4578 JUMP JUMPDEST PUSH1 0x1 PUSH1 0x1 PUSH1 0xA0 SHL SUB AND PUSH4 0xEF81F216 PUSH1 0x40 MLOAD DUP2 PUSH4 0xFFFFFFFF AND PUSH1 0xE0 SHL DUP2 MSTORE PUSH1 0x4 ADD PUSH1 0x40 DUP1 MLOAD DUP1 DUP4 SUB DUP2 PUSH1 0x0 DUP8 DUP1 EXTCODESIZE ISZERO DUP1 ISZERO PUSH2 0x393F JUMPI PUSH1 0x0 DUP1 REVERT JUMPDEST POP GAS CALL ISZERO DUP1 ISZERO PUSH2 0x3953 JUMPI RETURNDATASIZE PUSH1 0x0 DUP1 RETURNDATACOPY RETURNDATASIZE PUSH1 0x0 REVERT JUMPDEST POP POP POP POP PUSH1 0x40 MLOAD RETURNDATASIZE PUSH1 0x1F NOT PUSH1 0x1F DUP3 ADD AND DUP3 ADD DUP1 PUSH1 0x40 MSTORE POP DUP2 ADD SWAP1 PUSH2 0x23FD SWAP2 SWAP1 PUSH2 0x5C2D JUMP JUMPDEST PUSH2 0x397F PUSH2 0x5B7B JUMP JUMPDEST PUSH1 0x0 DUP1 PUSH1 0x0 PUSH2 0x398F DUP9 DUP7 DUP10 PUSH2 0x45A8 JUMP JUMPDEST PUSH1 0xC0 DUP12 ADD SWAP3 SWAP1 SWAP3 MSTORE PUSH1 0xE0 DUP11 ADD SWAP3 SWAP1 SWAP3 MSTORE PUSH1 0x20 DUP10 ADD MLOAD SWAP2 SWAP4 POP SWAP2 POP PUSH2 0x39B3 SWAP1 DUP4 PUSH2 0x89A JUMP JUMPDEST PUSH1 0x20 DUP9 ADD MSTORE PUSH1 0x80 DUP8 ADD MLOAD PUSH1 0x0 SWAP1 ISZERO PUSH2 0x39E1 JUMPI PUSH1 0x80 DUP9 ADD MLOAD PUSH2 0x39DE SWAP1 PUSH2 0x39D8 DUP10 DUP3 PUSH2 0x20FB JUMP JUMPDEST SWAP1 PUSH2 0x46B3 JUMP JUMPDEST SWAP1 POP JUMPDEST PUSH2 0x3A01 PUSH2 0x39F6 PUSH8 0xDE0B6B3A7640000 DUP4 PUSH2 0x89A JUMP JUMPDEST PUSH1 0xA0 DUP11 ADD MLOAD SWAP1 PUSH2 0x46CA JUMP JUMPDEST PUSH1 0xA0 DUP10 ADD MSTORE POP POP PUSH1 0x80 DUP7 ADD SWAP5 SWAP1 SWAP5 MSTORE POP POP DUP3 MSTORE SWAP1 SWAP3 SWAP1 SWAP2 POP JUMP JUMPDEST PUSH1 0x0 PUSH2 0x3A25 PUSH2 0x3E4A JUMP JUMPDEST PUSH1 0x0 DUP6 PUSH2 0xFFFF AND DUP2 MSTORE PUSH1 0x20 ADD SWAP1 DUP2 MSTORE PUSH1 0x20 ADD PUSH1 0x0 KECCAK256 SWAP1 POP PUSH2 0x3A49 DUP3 PUSH1 0x0 ADD MLOAD PUSH2 0x2067 JUMP JUMPDEST DUP2 SLOAD PUSH5 0xFFFFFFFFFF NOT AND PUSH5 0xFFFFFFFFFF SWAP2 SWAP1 SWAP2 AND OR DUP2 SSTORE PUSH1 0xA0 DUP3 ADD MLOAD PUSH2 0x3A6E SWAP1 PUSH2 0x36A1 JUMP JUMPDEST PUSH1 0x2 DUP3 ADD DUP1 SLOAD PUSH1 0x1 PUSH1 0x1 PUSH1 0x50 SHL SUB NOT AND PUSH1 0x1 PUSH1 0x1 PUSH1 0x50 SHL SUB SWAP3 SWAP1 SWAP3 AND SWAP2 SWAP1 SWAP2 OR SWAP1 SSTORE PUSH1 0xC0 DUP3 ADD MLOAD PUSH2 0x3A9E SWAP1 PUSH2 0x36A1 JUMP JUMPDEST DUP2 PUSH1 0x2 ADD PUSH1 0xA PUSH2 0x100 EXP DUP2 SLOAD DUP2 PUSH1 0x1 PUSH1 0x1 PUSH1 0x50 SHL SUB MUL NOT AND SWAP1 DUP4 PUSH1 0x1 PUSH1 0x1 PUSH1 0x50 SHL SUB AND MUL OR SWAP1 SSTORE POP PUSH2 0x3AD3 DUP3 PUSH1 0xE0 ADD MLOAD PUSH2 0x36A1 JUMP JUMPDEST DUP2 PUSH1 0x2 ADD PUSH1 0x14 PUSH2 0x100 EXP DUP2 SLOAD DUP2 PUSH1 0x1 PUSH1 0x1 PUSH1 0x50 SHL SUB MUL NOT AND SWAP1 DUP4 PUSH1 0x1 PUSH1 0x1 PUSH1 0x50 SHL SUB AND MUL OR SWAP1 SSTORE POP PUSH2 0x3B08 DUP3 PUSH1 0x20 ADD MLOAD PUSH2 0x3E57 JUMP JUMPDEST DUP2 SLOAD PUSH1 0x1 PUSH1 0x1 PUSH1 0x58 SHL SUB SWAP2 SWAP1 SWAP2 AND PUSH1 0x1 PUSH1 0x28 SHL MUL PUSH16 0xFFFFFFFFFFFFFFFFFFFFFF0000000000 NOT SWAP1 SWAP2 AND OR DUP2 SSTORE PUSH1 0x40 DUP3 ADD MLOAD PUSH2 0x3B42 SWAP1 PUSH2 0x3E57 JUMP JUMPDEST PUSH1 0x1 DUP3 ADD DUP1 SLOAD PUSH11 0xFFFFFFFFFFFFFFFFFFFFFF NOT AND PUSH1 0x1 PUSH1 0x1 PUSH1 0x58 SHL SUB SWAP3 SWAP1 SWAP3 AND SWAP2 SWAP1 SWAP2 OR SWAP1 SSTORE PUSH1 0x80 DUP3 ADD MLOAD PUSH2 0x3B76 SWAP1 PUSH2 0x3E57 JUMP JUMPDEST DUP2 SLOAD PUSH1 0x1 PUSH1 0x1 PUSH1 0x58 SHL SUB SWAP2 SWAP1 SWAP2 AND PUSH1 0x1 PUSH1 0x80 SHL MUL PUSH11 0xFFFFFFFFFFFFFFFFFFFFFF PUSH1 0x80 SHL NOT SWAP1 SWAP2 AND OR DUP2 SSTORE PUSH1 0x60 DUP3 ADD MLOAD PUSH2 0x3BAE SWAP1 PUSH2 0x46E7 JUMP JUMPDEST DUP2 SLOAD PUSH4 0xFFFFFFFF SWAP2 SWAP1 SWAP2 AND PUSH1 0x1 PUSH1 0xD8 SHL MUL PUSH4 0xFFFFFFFF PUSH1 0xD8 SHL NOT SWAP1 SWAP2 AND OR DUP2 SSTORE DUP3 ISZERO PUSH2 0x3BFA JUMPI PUSH1 0x0 PUSH2 0x3BDF DUP5 PUSH2 0x3C4C JUMP JUMPDEST SWAP1 POP PUSH2 0x3BEB DUP6 DUP3 PUSH2 0x46FA JUMP JUMPDEST PUSH2 0x3BF8 PUSH2 0xFEE DUP7 DUP4 PUSH2 0x4731 JUMP JUMPDEST POP JUMPDEST DUP4 PUSH2 0xFFFF AND PUSH32 0xEF25641E225E493886510CA1AD6584FA7B442B9FEA820A29D1DE3CE27D270FD2 DUP4 PUSH1 0xA0 ADD MLOAD DUP5 PUSH1 0xC0 ADD MLOAD DUP6 PUSH1 0xE0 ADD MLOAD PUSH1 0x40 MLOAD PUSH2 0x3C3E SWAP4 SWAP3 SWAP2 SWAP1 PUSH2 0x5E8C JUMP JUMPDEST PUSH1 0x40 MLOAD DUP1 SWAP2 SUB SWAP1 LOG2 POP POP POP POP JUMP JUMPDEST PUSH1 0x0 PUSH1 0x1 PUSH1 0x1 PUSH1 0xFF SHL SUB DUP3 GT ISZERO PUSH2 0xBC1 JUMPI PUSH1 0x0 DUP1 REVERT JUMPDEST PUSH1 0x0 DUP1 PUSH2 0x7CA PUSH1 0x9 PUSH2 0x2CAD JUMP JUMPDEST PUSH1 0x0 PUSH2 0x3C7A DUP3 PUSH2 0x47B1 JUMP JUMPDEST SWAP1 POP PUSH1 0x0 DUP2 PUSH1 0x0 ADD PUSH1 0x18 SWAP1 SLOAD SWAP1 PUSH2 0x100 EXP SWAP1 DIV PUSH4 0xFFFFFFFF AND SWAP1 POP PUSH2 0x3CB9 DUP3 DUP5 PUSH1 0x40 ADD MLOAD DUP6 PUSH1 0x60 ADD MLOAD DUP7 PUSH1 0xA0 ADD MLOAD DUP6 PUSH4 0xFFFFFFFF AND DUP9 PUSH1 0xE0 ADD MLOAD PUSH2 0x2851 JUMP JUMPDEST PUSH2 0xE56 DUP3 DUP5 PUSH1 0x80 ADD MLOAD PUSH2 0x2962 JUMP JUMPDEST PUSH2 0x3CCF PUSH2 0x5B5A JUMP JUMPDEST PUSH1 0x0 PUSH2 0x3CDB DUP6 DUP6 PUSH2 0x47B5 JUMP JUMPDEST SWAP1 SWAP3 POP SWAP1 POP DUP1 PUSH2 0x283C JUMPI PUSH2 0x663 DUP6 DUP6 DUP6 PUSH2 0x4848 JUMP JUMPDEST PUSH1 0x0 DUP1 PUSH2 0x3CFD DUP5 DUP5 PUSH2 0x2466 JUMP JUMPDEST SWAP2 POP PUSH2 0x3D09 DUP5 DUP4 PUSH2 0x2F97 JUMP JUMPDEST SWAP1 POP PUSH1 0x0 DUP3 SLT ISZERO PUSH2 0x3388 JUMPI PUSH2 0x3D4E PUSH1 0x1 PUSH2 0x2FC5 DUP8 PUSH1 0x0 ADD MLOAD PUSH2 0x8C8 DUP10 PUSH1 0x20 ADD MLOAD PUSH2 0x3D48 DUP11 PUSH1 0x20 ADD MLOAD PUSH2 0x8C8 DUP13 PUSH1 0x0 ADD MLOAD DUP12 PUSH2 0x1330 SWAP1 SWAP2 SWAP1 PUSH4 0xFFFFFFFF AND JUMP JUMPDEST SWAP1 PUSH2 0x1330 JUMP JUMPDEST SWAP2 POP SWAP4 POP SWAP4 SWAP2 POP POP JUMP JUMPDEST PUSH1 0x0 PUSH2 0x3D64 DUP6 DUP6 PUSH2 0x49E1 JUMP JUMPDEST SWAP1 POP PUSH1 0x0 DUP4 SLT ISZERO PUSH2 0x3D76 JUMPI PUSH1 0x1 PUSH1 0x40 SHL OR JUMPDEST PUSH1 0x0 PUSH1 0x1 PUSH1 0x1 PUSH1 0xA0 SHL SUB DUP8 AND CALLER PUSH32 0xC3D58168C5AE7397731D063D5BBF3D657854427343F4C083240F7AACAA2D0F62 DUP5 PUSH2 0x3DAE DUP9 PUSH2 0x49FF JUMP JUMPDEST PUSH1 0x40 MLOAD PUSH2 0x3DBC SWAP3 SWAP2 SWAP1 PUSH2 0x5D00 JUMP JUMPDEST PUSH1 0x40 MLOAD DUP1 SWAP2 SUB SWAP1 LOG4 PUSH1 0x0 PUSH2 0x3DD3 PUSH1 0x0 DUP5 SLT DUP8 PUSH2 0x4A20 JUMP JUMPDEST SWAP1 POP DUP1 PUSH1 0x1 PUSH1 0x1 PUSH1 0xA0 SHL SUB AND PUSH4 0x23DE6651 PUSH2 0x5E7 DUP10 PUSH2 0x3DF1 DUP8 PUSH2 0x49FF JUMP JUMPDEST PUSH1 0x40 MLOAD DUP5 PUSH4 0xFFFFFFFF AND PUSH1 0xE0 SHL DUP2 MSTORE PUSH1 0x4 ADD PUSH2 0x3E0F SWAP4 SWAP3 SWAP2 SWAP1 PUSH2 0x5C9E JUMP JUMPDEST PUSH1 0x0 PUSH1 0x40 MLOAD DUP1 DUP4 SUB DUP2 PUSH1 0x0 DUP8 DUP1 EXTCODESIZE ISZERO DUP1 ISZERO PUSH2 0x3E29 JUMPI PUSH1 0x0 DUP1 REVERT JUMPDEST POP GAS CALL ISZERO DUP1 ISZERO PUSH2 0x3E3D JUMPI RETURNDATASIZE PUSH1 0x0 DUP1 RETURNDATACOPY RETURNDATASIZE PUSH1 0x0 REVERT JUMPDEST POP POP POP POP POP POP POP POP POP POP POP JUMP JUMPDEST PUSH1 0x0 DUP1 PUSH2 0x7CA PUSH1 0x1D PUSH2 0x2CAD JUMP JUMPDEST PUSH1 0x0 PUSH1 0x1 PUSH1 0x1 PUSH1 0x58 SHL SUB DUP3 GT ISZERO PUSH2 0xBC1 JUMPI PUSH1 0x0 DUP1 REVERT JUMPDEST PUSH1 0x0 PUSH2 0x3E77 PUSH2 0x4A80 JUMP JUMPDEST PUSH2 0xFFFF DUP6 AND PUSH1 0x0 SWAP1 DUP2 MSTORE PUSH1 0x20 SWAP2 SWAP1 SWAP2 MSTORE PUSH1 0x40 DUP2 KECCAK256 SLOAD PUSH1 0x1 PUSH1 0x1 PUSH1 0xA0 SHL SUB AND SWAP2 POP PUSH2 0x3E9F PUSH2 0x4A8D JUMP JUMPDEST PUSH2 0xFFFF DUP7 AND PUSH1 0x0 SWAP1 DUP2 MSTORE PUSH1 0x20 SWAP2 SWAP1 SWAP2 MSTORE PUSH1 0x40 SWAP1 DUP2 SWAP1 KECCAK256 SLOAD SWAP1 MLOAD PUSH4 0xAD1C095D PUSH1 0xE0 SHL DUP2 MSTORE PUSH1 0x1 PUSH1 0x1 PUSH1 0xA0 SHL SUB SWAP1 SWAP2 AND SWAP2 POP DUP2 SWAP1 PUSH4 0xAD1C095D SWAP1 PUSH2 0x3EE7 SWAP1 DUP10 SWAP1 DUP8 SWAP1 PUSH1 0x4 ADD PUSH2 0x5CC2 JUMP JUMPDEST PUSH1 0x0 PUSH1 0x40 MLOAD DUP1 DUP4 SUB DUP2 PUSH1 0x0 DUP8 DUP1 EXTCODESIZE ISZERO DUP1 ISZERO PUSH2 0x3F01 JUMPI PUSH1 0x0 DUP1 REVERT JUMPDEST POP GAS CALL ISZERO DUP1 ISZERO PUSH2 0x3F15 JUMPI RETURNDATASIZE PUSH1 0x0 DUP1 RETURNDATACOPY RETURNDATASIZE PUSH1 0x0 REVERT JUMPDEST POP POP PUSH1 0x40 MLOAD PUSH4 0xAD1C095D PUSH1 0xE0 SHL DUP2 MSTORE PUSH1 0x1 PUSH1 0x1 PUSH1 0xA0 SHL SUB DUP6 AND SWAP3 POP PUSH4 0xAD1C095D SWAP2 POP PUSH2 0x3F47 SWAP1 DUP10 SWAP1 DUP9 SWAP1 PUSH1 0x4 ADD PUSH2 0x5CC2 JUMP JUMPDEST PUSH1 0x0 PUSH1 0x40 MLOAD DUP1 DUP4 SUB DUP2 PUSH1 0x0 DUP8 DUP1 EXTCODESIZE ISZERO DUP1 ISZERO PUSH2 0x3F61 JUMPI PUSH1 0x0 DUP1 REVERT JUMPDEST POP GAS CALL ISZERO DUP1 ISZERO PUSH2 0x3F75 JUMPI RETURNDATASIZE PUSH1 0x0 DUP1 RETURNDATACOPY RETURNDATASIZE PUSH1 0x0 REVERT JUMPDEST POP POP POP POP POP POP POP POP POP POP JUMP JUMPDEST DUP1 SLOAD PUSH1 0x2 DUP3 ADD SLOAD PUSH1 0x0 SWAP2 PUSH2 0x3FBD SWAP2 PUSH1 0x1 PUSH1 0x28 SHL SWAP1 SWAP2 DIV PUSH1 0x1 PUSH1 0x1 PUSH1 0x58 SHL SUB AND SWAP1 PUSH2 0x3D48 SWAP1 PUSH1 0x1 PUSH1 0x1 PUSH1 0x50 SHL SUB PUSH1 0x1 PUSH1 0x50 SHL DUP3 DIV DUP2 AND SWAP2 AND PUSH2 0x1330 JUMP JUMPDEST PUSH1 0x1 DUP4 ADD SLOAD PUSH1 0x2 DUP5 ADD SLOAD SWAP2 SWAP3 POP PUSH1 0x0 SWAP2 PUSH2 0x3FF7 SWAP2 PUSH1 0x1 PUSH1 0x1 PUSH1 0x58 SHL SUB AND SWAP1 PUSH2 0x3D48 SWAP1 PUSH1 0x1 PUSH1 0x1 PUSH1 0x50 SHL SUB PUSH1 0x1 PUSH1 0xA0 SHL DUP3 DIV DUP2 AND SWAP2 AND PUSH2 0x1330 JUMP JUMPDEST DUP4 SLOAD SWAP1 SWAP2 POP PUSH1 0x0 SWAP1 PUSH2 0x402E SWAP1 PUSH1 0x1 PUSH1 0x1 PUSH1 0x1 PUSH1 0x58 SHL SUB PUSH1 0x1 PUSH1 0x80 SHL SWAP1 SWAP3 DIV DUP3 AND ADD AND PUSH15 0xC097CE7BC90715B34B9F1000000000 PUSH2 0x1330 JUMP JUMPDEST SWAP1 POP DUP1 PUSH2 0x403B DUP5 DUP5 PUSH2 0x2405 JUMP JUMPDEST SGT ISZERO PUSH2 0x2E13 JUMPI PUSH1 0x0 DUP1 REVERT JUMPDEST PUSH1 0x0 PUSH2 0x8AC PUSH2 0x4059 DUP5 PUSH4 0x3B9ACA00 PUSH2 0x14DE JUMP JUMPDEST DUP4 PUSH2 0x1505 JUMP JUMPDEST PUSH1 0x0 PUSH8 0x7FFFFFFFFFFFFFFF DUP3 GT ISZERO PUSH2 0x4076 JUMPI PUSH1 0x0 DUP1 REVERT JUMPDEST POP PUSH1 0x40 SHL SWAP1 JUMP JUMPDEST PUSH1 0x0 DUP2 PUSH1 0xF SIGNEXTEND PUSH1 0x0 EQ ISZERO PUSH2 0x4090 JUMPI PUSH1 0x0 DUP1 REVERT JUMPDEST PUSH1 0x0 DUP3 PUSH1 0xF SIGNEXTEND PUSH1 0x40 DUP6 PUSH1 0xF SIGNEXTEND SWAP1 SHL DUP2 PUSH2 0x40A5 JUMPI INVALID JUMPDEST SDIV SWAP1 POP PUSH1 0x1 PUSH1 0x1 PUSH1 0x7F SHL SUB NOT DUP2 SLT DUP1 ISZERO SWAP1 PUSH2 0x40C7 JUMPI POP PUSH1 0x1 PUSH1 0x1 PUSH1 0x7F SHL SUB DUP2 SGT ISZERO JUMPDEST PUSH2 0x8AC JUMPI PUSH1 0x0 DUP1 REVERT JUMPDEST PUSH1 0x0 PUSH1 0xF DUP3 SWAP1 SIGNEXTEND PUSH1 0x1 PUSH1 0x1 PUSH1 0x7F SHL SUB NOT EQ ISZERO PUSH2 0x40EB JUMPI PUSH1 0x0 DUP1 REVERT JUMPDEST POP PUSH1 0x0 SUB SWAP1 JUMP JUMPDEST PUSH1 0x0 PUSH1 0x1 PUSH1 0x46 SHL DUP3 PUSH1 0xF SIGNEXTEND SLT PUSH2 0x4107 JUMPI PUSH1 0x0 DUP1 REVERT JUMPDEST PUSH9 0x3FFFFFFFFFFFFFFFFF NOT DUP3 PUSH1 0xF SIGNEXTEND SLT ISZERO PUSH2 0x4124 JUMPI POP PUSH1 0x0 PUSH2 0x874 JUMP JUMPDEST PUSH2 0x7CA PUSH1 0x80 DUP4 PUSH1 0xF SIGNEXTEND PUSH17 0x171547652B82FE1777D0FFDA0D23A7D12 MUL SWAP1 SAR PUSH2 0x4A9A JUMP JUMPDEST PUSH1 0x0 PUSH1 0xF DUP4 DUP2 SIGNEXTEND SWAP1 DUP4 SWAP1 SIGNEXTEND MUL PUSH1 0x40 SAR PUSH1 0x1 PUSH1 0x1 PUSH1 0x7F SHL SUB NOT DUP2 SLT DUP1 ISZERO SWAP1 PUSH2 0x40C7 JUMPI POP PUSH1 0x1 PUSH1 0x1 PUSH1 0x7F SHL SUB DUP2 SGT ISZERO PUSH2 0x8AC JUMPI PUSH1 0x0 DUP1 REVERT JUMPDEST PUSH1 0xF SIGNEXTEND PUSH1 0x40 SAR SWAP1 JUMP JUMPDEST PUSH1 0x0 DUP2 PUSH1 0xFF AND PUSH1 0x96 LT PUSH2 0x41A1 JUMPI PUSH1 0xFF DUP3 AND PUSH3 0x2625A0 MUL PUSH2 0x7CA JUMP JUMPDEST POP PUSH1 0x95 NOT PUSH1 0xFF SWAP2 SWAP1 SWAP2 AND ADD PUSH3 0xE4E1C0 MUL PUSH4 0x165A0BC0 ADD SWAP1 JUMP JUMPDEST PUSH1 0x40 DUP1 MLOAD PUSH1 0x2 DUP1 DUP3 MSTORE PUSH1 0x60 DUP3 DUP2 ADD SWAP1 SWAP4 MSTORE DUP3 SWAP2 PUSH1 0x0 SWAP2 DUP2 PUSH1 0x20 ADD PUSH1 0x20 DUP3 MUL DUP1 CALLDATASIZE DUP4 CALLDATACOPY ADD SWAP1 POP POP SWAP1 POP PUSH1 0x0 PUSH2 0x41EE DUP8 DUP8 PUSH2 0x49E1 JUMP JUMPDEST SWAP1 POP DUP1 DUP3 PUSH1 0x0 DUP2 MLOAD DUP2 LT PUSH2 0x41FE JUMPI INVALID JUMPDEST PUSH1 0x20 MUL PUSH1 0x20 ADD ADD DUP2 DUP2 MSTORE POP POP PUSH1 0x1 PUSH1 0x40 SHL DUP2 OR DUP3 PUSH1 0x1 DUP2 MLOAD DUP2 LT PUSH2 0x421E JUMPI INVALID JUMPDEST PUSH1 0x20 SWAP1 DUP2 MUL SWAP2 SWAP1 SWAP2 ADD ADD MSTORE PUSH1 0x40 DUP1 MLOAD PUSH1 0x2 DUP1 DUP3 MSTORE PUSH1 0x60 DUP3 ADD SWAP1 SWAP3 MSTORE PUSH1 0x0 SWAP2 DUP2 PUSH1 0x20 ADD PUSH1 0x20 DUP3 MUL DUP1 CALLDATASIZE DUP4 CALLDATACOPY ADD SWAP1 POP POP SWAP1 POP PUSH2 0x4257 DUP7 PUSH2 0x49FF JUMP JUMPDEST DUP2 PUSH1 0x0 DUP2 MLOAD DUP2 LT PUSH2 0x4264 JUMPI INVALID JUMPDEST PUSH1 0x20 MUL PUSH1 0x20 ADD ADD DUP2 DUP2 MSTORE POP POP PUSH2 0x4279 DUP7 PUSH2 0x49FF JUMP JUMPDEST DUP2 PUSH1 0x1 DUP2 MLOAD DUP2 LT PUSH2 0x4286 JUMPI INVALID JUMPDEST PUSH1 0x20 SWAP1 DUP2 MUL SWAP2 SWAP1 SWAP2 ADD ADD MSTORE SWAP2 SWAP8 SWAP2 SWAP7 POP SWAP1 SWAP5 POP POP POP POP POP JUMP JUMPDEST PUSH1 0x60 PUSH1 0x8 DUP3 PUSH1 0xFF AND GT ISZERO PUSH2 0x42B2 JUMPI PUSH1 0x0 DUP1 REVERT JUMPDEST PUSH1 0x0 PUSH2 0x42BC PUSH2 0x1A40 JUMP JUMPDEST PUSH1 0x1 PUSH1 0x1 PUSH1 0xA0 SHL SUB DUP6 AND PUSH1 0x0 SWAP1 DUP2 MSTORE PUSH1 0x20 DUP3 SWAP1 MSTORE PUSH1 0x40 DUP2 KECCAK256 SWAP2 SWAP3 POP PUSH1 0xFF DUP6 AND PUSH8 0xFFFFFFFFFFFFFFFF DUP2 GT DUP1 ISZERO PUSH2 0x42F1 JUMPI PUSH1 0x0 DUP1 REVERT JUMPDEST POP PUSH1 0x40 MLOAD SWAP1 DUP1 DUP3 MSTORE DUP1 PUSH1 0x20 MUL PUSH1 0x20 ADD DUP3 ADD PUSH1 0x40 MSTORE DUP1 ISZERO PUSH2 0x432B JUMPI DUP2 PUSH1 0x20 ADD JUMPDEST PUSH2 0x4318 PUSH2 0x5B16 JUMP JUMPDEST DUP2 MSTORE PUSH1 0x20 ADD SWAP1 PUSH1 0x1 SWAP1 SUB SWAP1 DUP2 PUSH2 0x4310 JUMPI SWAP1 POP JUMPDEST POP SWAP1 POP PUSH1 0x0 JUMPDEST DUP6 PUSH1 0xFF AND DUP2 LT ISZERO PUSH2 0x661 JUMPI PUSH1 0x0 DUP4 DUP3 PUSH1 0x8 DUP2 LT PUSH2 0x434A JUMPI INVALID JUMPDEST ADD SWAP1 POP PUSH1 0x0 DUP4 DUP4 DUP2 MLOAD DUP2 LT PUSH2 0x435B JUMPI INVALID JUMPDEST PUSH1 0x20 SWAP1 DUP2 MUL SWAP2 SWAP1 SWAP2 ADD DUP2 ADD MLOAD DUP4 SLOAD PUSH2 0xFFFF DUP2 AND DUP3 MSTORE PUSH5 0xFFFFFFFFFF PUSH3 0x10000 DUP3 DIV AND SWAP3 DUP3 ADD SWAP3 SWAP1 SWAP3 MSTORE PUSH1 0xFF PUSH1 0x1 PUSH1 0x38 SHL DUP4 DIV AND PUSH1 0x40 DUP3 ADD MSTORE PUSH1 0x1 PUSH1 0x40 SHL SWAP1 SWAP2 DIV PUSH1 0xA SWAP1 DUP2 SIGNEXTEND SWAP1 SIGNEXTEND PUSH1 0x60 DUP3 ADD MSTORE PUSH1 0x80 ADD SWAP2 SWAP1 SWAP2 MSTORE POP PUSH1 0x1 ADD PUSH2 0x4331 JUMP JUMPDEST DUP1 MLOAD PUSH1 0x60 SWAP1 DUP1 PUSH8 0xFFFFFFFFFFFFFFFF DUP2 GT DUP1 ISZERO PUSH2 0x43D3 JUMPI PUSH1 0x0 DUP1 REVERT JUMPDEST POP PUSH1 0x40 MLOAD SWAP1 DUP1 DUP3 MSTORE DUP1 PUSH1 0x20 MUL PUSH1 0x20 ADD DUP3 ADD PUSH1 0x40 MSTORE DUP1 ISZERO PUSH2 0x43FD JUMPI DUP2 PUSH1 0x20 ADD PUSH1 0x20 DUP3 MUL DUP1 CALLDATASIZE DUP4 CALLDATACOPY ADD SWAP1 POP JUMPDEST POP SWAP2 POP PUSH1 0x0 JUMPDEST DUP2 DUP2 LT ISZERO PUSH2 0x445A JUMPI PUSH1 0x0 DUP5 DUP3 DUP2 MLOAD DUP2 LT PUSH2 0x4419 JUMPI INVALID JUMPDEST PUSH1 0x20 MUL PUSH1 0x20 ADD ADD MLOAD SWAP1 POP PUSH2 0x443A DUP2 PUSH1 0x0 ADD MLOAD DUP3 PUSH1 0x20 ADD MLOAD DUP4 PUSH1 0x40 ADD MLOAD PUSH2 0x554A JUMP JUMPDEST DUP5 DUP4 DUP2 MLOAD DUP2 LT PUSH2 0x4446 JUMPI INVALID JUMPDEST PUSH1 0x20 SWAP1 DUP2 MUL SWAP2 SWAP1 SWAP2 ADD ADD MSTORE POP PUSH1 0x1 ADD PUSH2 0x4403 JUMP JUMPDEST POP PUSH1 0x1 JUMPDEST DUP2 DUP2 LT ISZERO PUSH2 0x4571 JUMPI DUP1 JUMPDEST PUSH1 0x0 DUP2 GT DUP1 ISZERO PUSH2 0x44A0 JUMPI POP DUP4 DUP2 DUP2 MLOAD DUP2 LT PUSH2 0x447F JUMPI INVALID JUMPDEST PUSH1 0x20 MUL PUSH1 0x20 ADD ADD MLOAD DUP5 PUSH1 0x1 DUP4 SUB DUP2 MLOAD DUP2 LT PUSH2 0x4496 JUMPI INVALID JUMPDEST PUSH1 0x20 MUL PUSH1 0x20 ADD ADD MLOAD GT JUMPDEST ISZERO PUSH2 0x4568 JUMPI DUP4 DUP2 DUP2 MLOAD DUP2 LT PUSH2 0x44B1 JUMPI INVALID JUMPDEST PUSH1 0x20 MUL PUSH1 0x20 ADD ADD MLOAD DUP5 PUSH1 0x1 DUP4 SUB DUP2 MLOAD DUP2 LT PUSH2 0x44C8 JUMPI INVALID JUMPDEST PUSH1 0x20 MUL PUSH1 0x20 ADD ADD MLOAD DUP6 PUSH1 0x1 DUP5 SUB DUP2 MLOAD DUP2 LT PUSH2 0x44DF JUMPI INVALID JUMPDEST PUSH1 0x20 MUL PUSH1 0x20 ADD ADD DUP7 DUP5 DUP2 MLOAD DUP2 LT PUSH2 0x44F2 JUMPI INVALID JUMPDEST PUSH1 0x20 MUL PUSH1 0x20 ADD ADD DUP3 DUP2 MSTORE POP DUP3 DUP2 MSTORE POP POP POP DUP5 DUP2 DUP2 MLOAD DUP2 LT PUSH2 0x450F JUMPI INVALID JUMPDEST PUSH1 0x20 MUL PUSH1 0x20 ADD ADD MLOAD DUP6 PUSH1 0x1 DUP4 SUB DUP2 MLOAD DUP2 LT PUSH2 0x4526 JUMPI INVALID JUMPDEST PUSH1 0x20 MUL PUSH1 0x20 ADD ADD MLOAD DUP7 PUSH1 0x1 DUP5 SUB DUP2 MLOAD DUP2 LT PUSH2 0x453D JUMPI INVALID JUMPDEST PUSH1 0x20 MUL PUSH1 0x20 ADD ADD DUP8 DUP5 DUP2 MLOAD DUP2 LT PUSH2 0x4550 JUMPI INVALID JUMPDEST PUSH1 0x20 SWAP1 DUP2 MUL SWAP2 SWAP1 SWAP2 ADD ADD SWAP2 SWAP1 SWAP2 MSTORE MSTORE PUSH1 0x0 NOT ADD PUSH2 0x4468 JUMP JUMPDEST POP PUSH1 0x1 ADD PUSH2 0x445E JUMP JUMPDEST POP POP SWAP2 SWAP1 POP JUMP JUMPDEST PUSH1 0x0 DUP1 PUSH2 0x4583 PUSH2 0x5573 JUMP JUMPDEST PUSH2 0xFFFF SWAP4 SWAP1 SWAP4 AND PUSH1 0x0 SWAP1 DUP2 MSTORE PUSH1 0x20 SWAP4 SWAP1 SWAP4 MSTORE POP POP PUSH1 0x40 SWAP1 KECCAK256 SLOAD PUSH1 0x1 PUSH1 0x1 PUSH1 0xA0 SHL SUB AND SWAP1 JUMP JUMPDEST PUSH1 0x0 DUP1 PUSH1 0x0 DUP1 PUSH1 0x0 DUP1 PUSH2 0x45BB DUP10 DUP9 PUSH2 0x5580 JUMP JUMPDEST DUP10 MLOAD SWAP1 SWAP6 POP SWAP2 SWAP4 POP SWAP2 POP PUSH1 0x0 SWAP1 PUSH2 0x45E2 SWAP1 PUSH2 0x45D7 SWAP1 DUP12 SWAP1 PUSH2 0x20FB JUMP JUMPDEST PUSH4 0x3B9ACA00 SWAP1 PUSH2 0x14DE JUMP JUMPDEST SWAP1 POP PUSH2 0x461C PUSH2 0x4611 PUSH4 0x1DA9C00 PUSH2 0x45F9 DUP6 DUP6 PUSH2 0x14DE JUMP JUMPDEST DUP2 PUSH2 0x4600 JUMPI INVALID JUMPDEST PUSH8 0xDE0B6B3A7640000 SWAP2 SWAP1 DIV PUSH2 0x89A JUMP JUMPDEST PUSH1 0xE0 DUP11 ADD MLOAD SWAP1 PUSH2 0x46CA JUMP JUMPDEST SWAP7 POP PUSH2 0x463E PUSH2 0x4633 PUSH4 0x1DA9C00 PUSH2 0x45F9 DUP8 DUP6 PUSH2 0x14DE JUMP JUMPDEST PUSH1 0xC0 DUP11 ADD MLOAD SWAP1 PUSH2 0x46CA JUMP JUMPDEST SWAP6 POP DUP2 DUP4 EQ ISZERO PUSH2 0x4655 JUMPI POP PUSH1 0x0 SWAP4 POP PUSH2 0x46AA SWAP2 POP POP JUMP JUMPDEST PUSH1 0x0 PUSH2 0x4677 PUSH2 0x466C PUSH4 0x1DA9C00 PUSH2 0x45F9 DUP8 DUP7 PUSH2 0x14DE JUMP JUMPDEST PUSH1 0xE0 DUP12 ADD MLOAD SWAP1 PUSH2 0x46CA JUMP JUMPDEST SWAP1 POP PUSH1 0x0 PUSH2 0x4685 DUP10 DUP4 PUSH2 0x20FB JUMP JUMPDEST SWAP1 POP PUSH2 0x46A2 DUP9 PUSH2 0x98B DUP4 DUP14 PUSH1 0x40 ADD MLOAD PUSH2 0x14DE SWAP1 SWAP2 SWAP1 PUSH4 0xFFFFFFFF AND JUMP JUMPDEST SWAP7 POP POP POP POP POP POP JUMPDEST SWAP4 POP SWAP4 POP SWAP4 POP SWAP4 JUMP JUMPDEST PUSH1 0x0 PUSH2 0x8AC PUSH2 0x4059 DUP5 PUSH8 0xDE0B6B3A7640000 PUSH2 0x14DE JUMP JUMPDEST PUSH1 0x0 PUSH2 0x8AC PUSH2 0x46D9 DUP5 DUP5 PUSH2 0x14DE JUMP JUMPDEST PUSH8 0xDE0B6B3A7640000 PUSH2 0x1505 JUMP JUMPDEST PUSH1 0x0 PUSH4 0xFFFFFFFF DUP3 GT ISZERO PUSH2 0xBC1 JUMPI PUSH1 0x0 DUP1 REVERT JUMPDEST PUSH1 0x0 DUP2 SLT ISZERO PUSH2 0x4708 JUMPI PUSH1 0x0 DUP1 REVERT JUMPDEST PUSH1 0x0 PUSH2 0x4716 PUSH2 0xFEE DUP5 PUSH2 0x1C51 JUMP JUMPDEST SWAP1 POP PUSH2 0x4722 DUP2 DUP4 PUSH2 0x1F86 JUMP JUMPDEST SWAP1 POP PUSH2 0xE56 PUSH2 0xFEE DUP5 DUP4 PUSH2 0x1A4D JUMP JUMPDEST PUSH1 0x0 PUSH2 0x473B PUSH2 0x4A80 JUMP JUMPDEST PUSH2 0xFFFF DUP5 AND PUSH1 0x0 SWAP1 DUP2 MSTORE PUSH1 0x20 SWAP2 SWAP1 SWAP2 MSTORE PUSH1 0x40 SWAP1 DUP2 SWAP1 KECCAK256 SLOAD SWAP1 MLOAD PUSH4 0xAD1C095D PUSH1 0xE0 SHL DUP2 MSTORE PUSH1 0x1 PUSH1 0x1 PUSH1 0xA0 SHL SUB SWAP1 SWAP2 AND SWAP2 POP DUP2 SWAP1 PUSH4 0xAD1C095D SWAP1 PUSH2 0x4783 SWAP1 DUP8 SWAP1 DUP7 SWAP1 PUSH1 0x4 ADD PUSH2 0x5CC2 JUMP JUMPDEST PUSH1 0x0 PUSH1 0x40 MLOAD DUP1 DUP4 SUB DUP2 PUSH1 0x0 DUP8 DUP1 EXTCODESIZE ISZERO DUP1 ISZERO PUSH2 0x479D JUMPI PUSH1 0x0 DUP1 REVERT JUMPDEST POP GAS CALL ISZERO DUP1 ISZERO PUSH2 0x31C9 JUMPI RETURNDATASIZE PUSH1 0x0 DUP1 RETURNDATACOPY RETURNDATASIZE PUSH1 0x0 REVERT JUMPDEST MLOAD SWAP1 JUMP JUMPDEST PUSH2 0x47BD PUSH2 0x5B5A JUMP JUMPDEST PUSH1 0x0 DUP1 PUSH2 0x47C8 PUSH2 0x561B JUMP JUMPDEST PUSH2 0xFFFF DUP7 AND PUSH1 0x0 SWAP1 DUP2 MSTORE PUSH1 0x20 DUP3 DUP2 MSTORE PUSH1 0x40 DUP1 DUP4 KECCAK256 DUP9 DUP5 MSTORE SWAP1 SWAP2 MSTORE SWAP1 KECCAK256 DUP1 SLOAD PUSH1 0x1 PUSH1 0xF0 SHL SWAP1 DIV PUSH1 0xFF AND SWAP4 POP SWAP1 SWAP2 POP DUP3 ISZERO PUSH2 0x483F JUMPI DUP1 SLOAD PUSH1 0x1 PUSH1 0x1 PUSH1 0x50 SHL SUB PUSH1 0x1 PUSH1 0xA0 SHL DUP3 DIV DUP2 AND SWAP2 PUSH2 0x481A SWAP2 AND DUP3 PUSH2 0x14DE JUMP JUMPDEST DUP6 MSTORE DUP2 SLOAD PUSH2 0x4838 SWAP1 PUSH1 0x1 PUSH1 0x50 SHL SWAP1 DIV PUSH1 0x1 PUSH1 0x1 PUSH1 0x50 SHL SUB AND DUP3 PUSH2 0x14DE JUMP JUMPDEST PUSH1 0x20 DUP7 ADD MSTORE POP JUMPDEST POP POP SWAP3 POP SWAP3 SWAP1 POP JUMP JUMPDEST PUSH2 0x4850 PUSH2 0x5B5A JUMP JUMPDEST PUSH2 0x485A DUP5 DUP4 PUSH2 0x2D22 JUMP JUMPDEST SWAP1 POP PUSH1 0x0 PUSH2 0x4867 DUP6 PUSH2 0x3832 JUMP JUMPDEST SWAP1 POP PUSH1 0x0 PUSH2 0x4873 PUSH2 0x561B JUMP JUMPDEST PUSH2 0xFFFF DUP8 AND PUSH1 0x0 SWAP1 DUP2 MSTORE PUSH1 0x20 DUP3 DUP2 MSTORE PUSH1 0x40 DUP1 DUP4 KECCAK256 DUP10 DUP5 MSTORE SWAP1 SWAP2 MSTORE SWAP1 KECCAK256 SWAP1 SWAP2 POP DUP6 PUSH2 0x489C JUMPI PUSH1 0x0 DUP1 REVERT JUMPDEST DUP3 MLOAD DUP6 EQ PUSH2 0x48A9 JUMPI PUSH1 0x0 DUP1 REVERT JUMPDEST DUP5 PUSH1 0x0 LT PUSH2 0x48B6 JUMPI PUSH1 0x0 DUP1 REVERT JUMPDEST DUP5 DUP7 GT ISZERO PUSH2 0x48C3 JUMPI PUSH1 0x0 DUP1 REVERT JUMPDEST DUP4 MLOAD PUSH1 0x0 SLT PUSH2 0x48D1 JUMPI PUSH1 0x0 DUP1 REVERT JUMPDEST DUP4 PUSH1 0x20 ADD MLOAD PUSH1 0x0 SLT PUSH2 0x48E2 JUMPI PUSH1 0x0 DUP1 REVERT JUMPDEST PUSH2 0x48EF DUP4 PUSH1 0xA0 ADD MLOAD PUSH2 0x36A1 JUMP JUMPDEST DUP2 SLOAD PUSH1 0x1 PUSH1 0x1 PUSH1 0x50 SHL SUB SWAP2 SWAP1 SWAP2 AND PUSH1 0x1 PUSH1 0xA0 SHL MUL PUSH10 0xFFFFFFFFFFFFFFFFFFFF PUSH1 0xA0 SHL NOT SWAP1 SWAP2 AND OR DUP2 SSTORE PUSH1 0xC0 DUP4 ADD MLOAD PUSH2 0x4926 SWAP1 PUSH2 0x36A1 JUMP JUMPDEST DUP2 SLOAD PUSH1 0x1 PUSH1 0x1 PUSH1 0x50 SHL SUB NOT AND PUSH1 0x1 PUSH1 0x1 PUSH1 0x50 SHL SUB SWAP2 SWAP1 SWAP2 AND OR DUP2 SSTORE PUSH1 0xE0 DUP4 ADD MLOAD PUSH2 0x494F SWAP1 PUSH2 0x36A1 JUMP JUMPDEST DUP2 SLOAD PUSH1 0xFF PUSH1 0xF0 SHL NOT PUSH1 0x1 PUSH1 0x1 PUSH1 0x50 SHL SUB SWAP3 SWAP1 SWAP3 AND PUSH1 0x1 PUSH1 0x50 SHL MUL PUSH10 0xFFFFFFFFFFFFFFFFFFFF PUSH1 0x50 SHL NOT SWAP1 SWAP2 AND OR AND PUSH1 0x1 PUSH1 0xF0 SHL OR DUP2 SSTORE PUSH2 0x4990 DUP8 DUP8 DUP7 PUSH2 0x5628 JUMP JUMPDEST DUP6 DUP8 PUSH2 0xFFFF AND PUSH32 0x29FD83C1093C9721D6046038C76B6BDDF0DC0C5DAC3ECBFA23F8EB994EC61613 DUP7 PUSH1 0x0 ADD MLOAD DUP8 PUSH1 0x20 ADD MLOAD PUSH1 0x40 MLOAD PUSH2 0x49CF SWAP3 SWAP2 SWAP1 PUSH2 0x5D00 JUMP JUMPDEST PUSH1 0x40 MLOAD DUP1 SWAP2 SUB SWAP1 LOG3 POP POP POP SWAP4 SWAP3 POP POP POP JUMP JUMPDEST PUSH8 0xFFFF000000000000 PUSH1 0x30 DUP4 SWAP1 SHL AND PUSH1 0x8 DUP3 SWAP1 SHL OR PUSH1 0x1 OR SWAP3 SWAP2 POP POP JUMP JUMPDEST PUSH1 0x0 DUP1 DUP3 SLT ISZERO PUSH2 0x4A19 JUMPI PUSH2 0x4A12 DUP3 PUSH2 0x15E9 JUMP JUMPDEST SWAP1 POP PUSH2 0x874 JUMP JUMPDEST POP DUP1 PUSH2 0x874 JUMP JUMPDEST PUSH1 0x0 DUP3 PUSH2 0x4A52 JUMPI PUSH2 0x4A2F PUSH2 0x4A80 JUMP JUMPDEST PUSH2 0xFFFF DUP4 AND PUSH1 0x0 SWAP1 DUP2 MSTORE PUSH1 0x20 SWAP2 SWAP1 SWAP2 MSTORE PUSH1 0x40 SWAP1 KECCAK256 SLOAD PUSH1 0x1 PUSH1 0x1 PUSH1 0xA0 SHL SUB AND PUSH2 0x8AC JUMP JUMPDEST PUSH2 0x4A5A PUSH2 0x4A8D JUMP JUMPDEST PUSH2 0xFFFF DUP4 AND PUSH1 0x0 SWAP1 DUP2 MSTORE PUSH1 0x20 SWAP2 SWAP1 SWAP2 MSTORE PUSH1 0x40 SWAP1 KECCAK256 SLOAD PUSH1 0x1 PUSH1 0x1 PUSH1 0xA0 SHL SUB AND SWAP1 POP SWAP3 SWAP2 POP POP JUMP JUMPDEST PUSH1 0x0 DUP1 PUSH2 0x7CA PUSH1 0x21 PUSH2 0x2CAD JUMP JUMPDEST PUSH1 0x0 DUP1 PUSH2 0x7CA PUSH1 0x22 PUSH2 0x2CAD JUMP JUMPDEST PUSH1 0x0 PUSH1 0x1 PUSH1 0x46 SHL DUP3 PUSH1 0xF SIGNEXTEND SLT PUSH2 0x4AAF JUMPI PUSH1 0x0 DUP1 REVERT JUMPDEST PUSH9 0x3FFFFFFFFFFFFFFFFF NOT DUP3 PUSH1 0xF SIGNEXTEND SLT ISZERO PUSH2 0x4ACC JUMPI POP PUSH1 0x0 PUSH2 0x874 JUMP JUMPDEST PUSH1 0x1 PUSH1 0x7F SHL PUSH1 0x0 PUSH8 0x8000000000000000 DUP5 AND PUSH1 0xF SIGNEXTEND SGT ISZERO PUSH2 0x4AFE JUMPI PUSH17 0x16A09E667F3BCC908B2FB1366EA957D3E MUL PUSH1 0x80 SHR JUMPDEST PUSH1 0x0 DUP4 PUSH8 0x4000000000000000 AND PUSH1 0xF SIGNEXTEND SGT ISZERO PUSH2 0x4B2B JUMPI PUSH17 0x1306FE0A31B7152DE8D5A46305C85EDEC MUL PUSH1 0x80 SHR JUMPDEST PUSH1 0x0 DUP4 PUSH8 0x2000000000000000 AND PUSH1 0xF SIGNEXTEND SGT ISZERO PUSH2 0x4B58 JUMPI PUSH17 0x1172B83C7D517ADCDF7C8C50EB14A791F MUL PUSH1 0x80 SHR JUMPDEST PUSH1 0x0 DUP4 PUSH8 0x1000000000000000 AND PUSH1 0xF SIGNEXTEND SGT ISZERO PUSH2 0x4B85 JUMPI PUSH17 0x10B5586CF9890F6298B92B71842A98363 MUL PUSH1 0x80 SHR JUMPDEST PUSH1 0x0 DUP4 PUSH8 0x800000000000000 AND PUSH1 0xF SIGNEXTEND SGT ISZERO PUSH2 0x4BB2 JUMPI PUSH17 0x1059B0D31585743AE7C548EB68CA417FD MUL PUSH1 0x80 SHR JUMPDEST PUSH1 0x0 DUP4 PUSH8 0x400000000000000 AND PUSH1 0xF SIGNEXTEND SGT ISZERO PUSH2 0x4BDF JUMPI PUSH17 0x102C9A3E778060EE6F7CACA4F7A29BDE8 MUL PUSH1 0x80 SHR JUMPDEST PUSH1 0x0 DUP4 PUSH8 0x200000000000000 AND PUSH1 0xF SIGNEXTEND SGT ISZERO PUSH2 0x4C0C JUMPI PUSH17 0x10163DA9FB33356D84A66AE336DCDFA3F MUL PUSH1 0x80 SHR JUMPDEST PUSH1 0x0 DUP4 PUSH1 0x1 PUSH1 0x38 SHL AND PUSH1 0xF SIGNEXTEND SGT ISZERO PUSH2 0x4C35 JUMPI PUSH17 0x100B1AFA5ABCBED6129AB13EC11DC9543 MUL PUSH1 0x80 SHR JUMPDEST PUSH1 0x0 DUP4 PUSH7 0x80000000000000 AND PUSH1 0xF SIGNEXTEND SGT ISZERO PUSH2 0x4C61 JUMPI PUSH17 0x10058C86DA1C09EA1FF19D294CF2F679B MUL PUSH1 0x80 SHR JUMPDEST PUSH1 0x0 DUP4 PUSH7 0x40000000000000 AND PUSH1 0xF SIGNEXTEND SGT ISZERO PUSH2 0x4C8D JUMPI PUSH17 0x1002C605E2E8CEC506D21BFC89A23A00F MUL PUSH1 0x80 SHR JUMPDEST PUSH1 0x0 DUP4 PUSH7 0x20000000000000 AND PUSH1 0xF SIGNEXTEND SGT ISZERO PUSH2 0x4CB9 JUMPI PUSH17 0x100162F3904051FA128BCA9C55C31E5DF MUL PUSH1 0x80 SHR JUMPDEST PUSH1 0x0 DUP4 PUSH7 0x10000000000000 AND PUSH1 0xF SIGNEXTEND SGT ISZERO PUSH2 0x4CE5 JUMPI PUSH17 0x1000B175EFFDC76BA38E31671CA939725 MUL PUSH1 0x80 SHR JUMPDEST PUSH1 0x0 DUP4 PUSH7 0x8000000000000 AND PUSH1 0xF SIGNEXTEND SGT ISZERO PUSH2 0x4D11 JUMPI PUSH17 0x100058BA01FB9F96D6CACD4B180917C3D MUL PUSH1 0x80 SHR JUMPDEST PUSH1 0x0 DUP4 PUSH7 0x4000000000000 AND PUSH1 0xF SIGNEXTEND SGT ISZERO PUSH2 0x4D3D JUMPI PUSH17 0x10002C5CC37DA9491D0985C348C68E7B3 MUL PUSH1 0x80 SHR JUMPDEST PUSH1 0x0 DUP4 PUSH7 0x2000000000000 AND PUSH1 0xF SIGNEXTEND SGT ISZERO PUSH2 0x4D69 JUMPI PUSH17 0x1000162E525EE054754457D5995292026 MUL PUSH1 0x80 SHR JUMPDEST PUSH1 0x0 DUP4 PUSH1 0x1 PUSH1 0x30 SHL AND PUSH1 0xF SIGNEXTEND SGT ISZERO PUSH2 0x4D92 JUMPI PUSH17 0x10000B17255775C040618BF4A4ADE83FC MUL PUSH1 0x80 SHR JUMPDEST PUSH1 0x0 DUP4 PUSH6 0x800000000000 AND PUSH1 0xF SIGNEXTEND SGT ISZERO PUSH2 0x4DBD JUMPI PUSH17 0x1000058B91B5BC9AE2EED81E9B7D4CFAB MUL PUSH1 0x80 SHR JUMPDEST PUSH1 0x0 DUP4 PUSH6 0x400000000000 AND PUSH1 0xF SIGNEXTEND SGT ISZERO PUSH2 0x4DE8 JUMPI PUSH17 0x100002C5C89D5EC6CA4D7C8ACC017B7C9 MUL PUSH1 0x80 SHR JUMPDEST PUSH1 0x0 DUP4 PUSH6 0x200000000000 AND PUSH1 0xF SIGNEXTEND SGT ISZERO PUSH2 0x4E13 JUMPI PUSH17 0x10000162E43F4F831060E02D839A9D16D MUL PUSH1 0x80 SHR JUMPDEST PUSH1 0x0 DUP4 PUSH6 0x100000000000 AND PUSH1 0xF SIGNEXTEND SGT ISZERO PUSH2 0x4E3E JUMPI PUSH17 0x100000B1721BCFC99D9F890EA06911763 MUL PUSH1 0x80 SHR JUMPDEST PUSH1 0x0 DUP4 PUSH6 0x80000000000 AND PUSH1 0xF SIGNEXTEND SGT ISZERO PUSH2 0x4E69 JUMPI PUSH17 0x10000058B90CF1E6D97F9CA14DBCC1628 MUL PUSH1 0x80 SHR JUMPDEST PUSH1 0x0 DUP4 PUSH6 0x40000000000 AND PUSH1 0xF SIGNEXTEND SGT ISZERO PUSH2 0x4E94 JUMPI PUSH17 0x1000002C5C863B73F016468F6BAC5CA2B MUL PUSH1 0x80 SHR JUMPDEST PUSH1 0x0 DUP4 PUSH6 0x20000000000 AND PUSH1 0xF SIGNEXTEND SGT ISZERO PUSH2 0x4EBF JUMPI PUSH17 0x100000162E430E5A18F6119E3C02282A5 MUL PUSH1 0x80 SHR JUMPDEST PUSH1 0x0 DUP4 PUSH1 0x1 PUSH1 0x28 SHL AND PUSH1 0xF SIGNEXTEND SGT ISZERO PUSH2 0x4EE8 JUMPI PUSH17 0x1000000B1721835514B86E6D96EFD1BFE MUL PUSH1 0x80 SHR JUMPDEST PUSH1 0x0 DUP4 PUSH5 0x8000000000 AND PUSH1 0xF SIGNEXTEND SGT ISZERO PUSH2 0x4F12 JUMPI PUSH17 0x100000058B90C0B48C6BE5DF846C5B2EF MUL PUSH1 0x80 SHR JUMPDEST PUSH1 0x0 DUP4 PUSH5 0x4000000000 AND PUSH1 0xF SIGNEXTEND SGT ISZERO PUSH2 0x4F3C JUMPI PUSH17 0x10000002C5C8601CC6B9E94213C72737A MUL PUSH1 0x80 SHR JUMPDEST PUSH1 0x0 DUP4 PUSH5 0x2000000000 AND PUSH1 0xF SIGNEXTEND SGT ISZERO PUSH2 0x4F66 JUMPI PUSH17 0x1000000162E42FFF037DF38AA2B219F06 MUL PUSH1 0x80 SHR JUMPDEST PUSH1 0x0 DUP4 PUSH5 0x1000000000 AND PUSH1 0xF SIGNEXTEND SGT ISZERO PUSH2 0x4F90 JUMPI PUSH17 0x10000000B17217FBA9C739AA5819F44F9 MUL PUSH1 0x80 SHR JUMPDEST PUSH1 0x0 DUP4 PUSH5 0x800000000 AND PUSH1 0xF SIGNEXTEND SGT ISZERO PUSH2 0x4FBA JUMPI PUSH17 0x1000000058B90BFCDEE5ACD3C1CEDC823 MUL PUSH1 0x80 SHR JUMPDEST PUSH1 0x0 DUP4 PUSH5 0x400000000 AND PUSH1 0xF SIGNEXTEND SGT ISZERO PUSH2 0x4FE4 JUMPI PUSH17 0x100000002C5C85FE31F35A6A30DA1BE50 MUL PUSH1 0x80 SHR JUMPDEST PUSH1 0x0 DUP4 PUSH5 0x200000000 AND PUSH1 0xF SIGNEXTEND SGT ISZERO PUSH2 0x500E JUMPI PUSH17 0x10000000162E42FF0999CE3541B9FFFCF MUL PUSH1 0x80 SHR JUMPDEST PUSH1 0x0 DUP4 PUSH5 0x100000000 AND PUSH1 0xF SIGNEXTEND SGT ISZERO PUSH2 0x5038 JUMPI PUSH17 0x100000000B17217F80F4EF5AADDA45554 MUL PUSH1 0x80 SHR JUMPDEST PUSH1 0x0 DUP4 PUSH4 0x80000000 AND PUSH1 0xF SIGNEXTEND SGT ISZERO PUSH2 0x5061 JUMPI PUSH17 0x10000000058B90BFBF8479BD5A81B51AD MUL PUSH1 0x80 SHR JUMPDEST PUSH1 0x0 DUP4 PUSH4 0x40000000 AND PUSH1 0xF SIGNEXTEND SGT ISZERO PUSH2 0x508A JUMPI PUSH17 0x1000000002C5C85FDF84BD62AE30A74CC MUL PUSH1 0x80 SHR JUMPDEST PUSH1 0x0 DUP4 PUSH4 0x20000000 AND PUSH1 0xF SIGNEXTEND SGT ISZERO PUSH2 0x50B3 JUMPI PUSH17 0x100000000162E42FEFB2FED257559BDAA MUL PUSH1 0x80 SHR JUMPDEST PUSH1 0x0 DUP4 PUSH4 0x10000000 AND PUSH1 0xF SIGNEXTEND SGT ISZERO PUSH2 0x50DC JUMPI PUSH17 0x1000000000B17217F7D5A7716BBA4A9AE MUL PUSH1 0x80 SHR JUMPDEST PUSH1 0x0 DUP4 PUSH4 0x8000000 AND PUSH1 0xF SIGNEXTEND SGT ISZERO PUSH2 0x5105 JUMPI PUSH17 0x100000000058B90BFBE9DDBAC5E109CCE MUL PUSH1 0x80 SHR JUMPDEST PUSH1 0x0 DUP4 PUSH4 0x4000000 AND PUSH1 0xF SIGNEXTEND SGT ISZERO PUSH2 0x512E JUMPI PUSH17 0x10000000002C5C85FDF4B15DE6F17EB0D MUL PUSH1 0x80 SHR JUMPDEST PUSH1 0x0 DUP4 PUSH4 0x2000000 AND PUSH1 0xF SIGNEXTEND SGT ISZERO PUSH2 0x5157 JUMPI PUSH17 0x1000000000162E42FEFA494F1478FDE05 MUL PUSH1 0x80 SHR JUMPDEST PUSH1 0x0 DUP4 PUSH4 0x1000000 AND PUSH1 0xF SIGNEXTEND SGT ISZERO PUSH2 0x5180 JUMPI PUSH17 0x10000000000B17217F7D20CF927C8E94C MUL PUSH1 0x80 SHR JUMPDEST PUSH1 0x0 DUP4 PUSH3 0x800000 AND PUSH1 0xF SIGNEXTEND SGT ISZERO PUSH2 0x51A8 JUMPI PUSH17 0x1000000000058B90BFBE8F71CB4E4B33D MUL PUSH1 0x80 SHR JUMPDEST PUSH1 0x0 DUP4 PUSH3 0x400000 AND PUSH1 0xF SIGNEXTEND SGT ISZERO PUSH2 0x51D0 JUMPI PUSH17 0x100000000002C5C85FDF477B662B26945 MUL PUSH1 0x80 SHR JUMPDEST PUSH1 0x0 DUP4 PUSH3 0x200000 AND PUSH1 0xF SIGNEXTEND SGT ISZERO PUSH2 0x51F8 JUMPI PUSH17 0x10000000000162E42FEFA3AE53369388C MUL PUSH1 0x80 SHR JUMPDEST PUSH1 0x0 DUP4 PUSH3 0x100000 AND PUSH1 0xF SIGNEXTEND SGT ISZERO PUSH2 0x5220 JUMPI PUSH17 0x100000000000B17217F7D1D351A389D40 MUL PUSH1 0x80 SHR JUMPDEST PUSH1 0x0 DUP4 PUSH3 0x80000 AND PUSH1 0xF SIGNEXTEND SGT ISZERO PUSH2 0x5248 JUMPI PUSH17 0x10000000000058B90BFBE8E8B2D3D4EDE MUL PUSH1 0x80 SHR JUMPDEST PUSH1 0x0 DUP4 PUSH3 0x40000 AND PUSH1 0xF SIGNEXTEND SGT ISZERO PUSH2 0x5270 JUMPI PUSH17 0x1000000000002C5C85FDF4741BEA6E77E MUL PUSH1 0x80 SHR JUMPDEST PUSH1 0x0 DUP4 PUSH3 0x20000 AND PUSH1 0xF SIGNEXTEND SGT ISZERO PUSH2 0x5298 JUMPI PUSH17 0x100000000000162E42FEFA39FE95583C2 MUL PUSH1 0x80 SHR JUMPDEST PUSH1 0x0 DUP4 PUSH3 0x10000 AND PUSH1 0xF SIGNEXTEND SGT ISZERO PUSH2 0x52C0 JUMPI PUSH17 0x1000000000000B17217F7D1CFB72B45E1 MUL PUSH1 0x80 SHR JUMPDEST PUSH1 0x0 DUP4 PUSH2 0x8000 AND PUSH1 0xF SIGNEXTEND SGT ISZERO PUSH2 0x52E7 JUMPI PUSH17 0x100000000000058B90BFBE8E7CC35C3F0 MUL PUSH1 0x80 SHR JUMPDEST PUSH1 0x0 DUP4 PUSH2 0x4000 AND PUSH1 0xF SIGNEXTEND SGT ISZERO PUSH2 0x530E JUMPI PUSH17 0x10000000000002C5C85FDF473E242EA38 MUL PUSH1 0x80 SHR JUMPDEST PUSH1 0x0 DUP4 PUSH2 0x2000 AND PUSH1 0xF SIGNEXTEND SGT ISZERO PUSH2 0x5335 JUMPI PUSH17 0x1000000000000162E42FEFA39F02B772C MUL PUSH1 0x80 SHR JUMPDEST PUSH1 0x0 DUP4 PUSH2 0x1000 AND PUSH1 0xF SIGNEXTEND SGT ISZERO PUSH2 0x535C JUMPI PUSH17 0x10000000000000B17217F7D1CF7D83C1A MUL PUSH1 0x80 SHR JUMPDEST PUSH1 0x0 DUP4 PUSH2 0x800 AND PUSH1 0xF SIGNEXTEND SGT ISZERO PUSH2 0x5383 JUMPI PUSH17 0x1000000000000058B90BFBE8E7BDCBE2E MUL PUSH1 0x80 SHR JUMPDEST PUSH1 0x0 DUP4 PUSH2 0x400 AND PUSH1 0xF SIGNEXTEND SGT ISZERO PUSH2 0x53AA JUMPI PUSH17 0x100000000000002C5C85FDF473DEA871F MUL PUSH1 0x80 SHR JUMPDEST PUSH1 0x0 DUP4 PUSH2 0x200 AND PUSH1 0xF SIGNEXTEND SGT ISZERO PUSH2 0x53D1 JUMPI PUSH17 0x10000000000000162E42FEFA39EF44D91 MUL PUSH1 0x80 SHR JUMPDEST PUSH1 0x0 DUP4 PUSH2 0x100 AND PUSH1 0xF SIGNEXTEND SGT ISZERO PUSH2 0x53F8 JUMPI PUSH17 0x100000000000000B17217F7D1CF79E949 MUL PUSH1 0x80 SHR JUMPDEST PUSH1 0x0 DUP4 PUSH1 0x80 AND PUSH1 0xF SIGNEXTEND SGT ISZERO PUSH2 0x541E JUMPI PUSH17 0x10000000000000058B90BFBE8E7BCE544 MUL PUSH1 0x80 SHR JUMPDEST PUSH1 0x0 DUP4 PUSH1 0x40 AND PUSH1 0xF SIGNEXTEND SGT ISZERO PUSH2 0x5444 JUMPI PUSH17 0x1000000000000002C5C85FDF473DE6ECA MUL PUSH1 0x80 SHR JUMPDEST PUSH1 0x0 DUP4 PUSH1 0x20 AND PUSH1 0xF SIGNEXTEND SGT ISZERO PUSH2 0x546A JUMPI PUSH17 0x100000000000000162E42FEFA39EF366F MUL PUSH1 0x80 SHR JUMPDEST PUSH1 0x0 DUP4 PUSH1 0x10 AND PUSH1 0xF SIGNEXTEND SGT ISZERO PUSH2 0x5490 JUMPI PUSH17 0x1000000000000000B17217F7D1CF79AFA MUL PUSH1 0x80 SHR JUMPDEST PUSH1 0x0 DUP4 PUSH1 0x8 AND PUSH1 0xF SIGNEXTEND SGT ISZERO PUSH2 0x54B6 JUMPI PUSH17 0x100000000000000058B90BFBE8E7BCD6D MUL PUSH1 0x80 SHR JUMPDEST PUSH1 0x0 DUP4 PUSH1 0x4 AND PUSH1 0xF SIGNEXTEND SGT ISZERO PUSH2 0x54DC JUMPI PUSH17 0x10000000000000002C5C85FDF473DE6B2 MUL PUSH1 0x80 SHR JUMPDEST PUSH1 0x0 DUP4 PUSH1 0x2 AND PUSH1 0xF SIGNEXTEND SGT ISZERO PUSH2 0x5502 JUMPI PUSH17 0x1000000000000000162E42FEFA39EF358 MUL PUSH1 0x80 SHR JUMPDEST PUSH1 0x0 DUP4 PUSH1 0x1 AND PUSH1 0xF SIGNEXTEND SGT ISZERO PUSH2 0x5528 JUMPI PUSH17 0x10000000000000000B17217F7D1CF79AB MUL PUSH1 0x80 SHR JUMPDEST PUSH1 0xF DUP4 DUP2 SIGNEXTEND PUSH1 0x40 SAR PUSH1 0x3F SUB SWAP1 SIGNEXTEND SHR PUSH1 0x1 PUSH1 0x1 PUSH1 0x7F SHL SUB DUP2 GT ISZERO PUSH2 0x7CA JUMPI PUSH1 0x0 DUP1 REVERT JUMPDEST PUSH8 0xFFFF000000000000 PUSH1 0x30 DUP5 SWAP1 SHL AND PUSH6 0xFFFFFFFFFF00 PUSH1 0x8 DUP5 SWAP1 SHL AND OR PUSH1 0xFF DUP3 AND OR SWAP4 SWAP3 POP POP POP JUMP JUMPDEST PUSH1 0x0 DUP1 PUSH2 0x7CA PUSH1 0x1F PUSH2 0x2CAD JUMP JUMPDEST PUSH1 0x0 DUP1 PUSH1 0x0 DUP1 PUSH1 0x0 DUP6 PUSH1 0x20 ADD MLOAD GT ISZERO PUSH2 0x55CD JUMPI PUSH2 0x55CA PUSH2 0x55B1 DUP7 PUSH1 0xC0 ADD MLOAD DUP8 PUSH1 0x20 ADD MLOAD PUSH2 0x14DE SWAP1 SWAP2 SWAP1 PUSH4 0xFFFFFFFF AND JUMP JUMPDEST PUSH1 0xE0 DUP8 ADD MLOAD PUSH1 0x40 DUP9 ADD MLOAD PUSH2 0x55C4 SWAP2 PUSH2 0x14DE JUMP JUMPDEST SWAP1 PUSH2 0x4046 JUMP JUMPDEST SWAP1 POP JUMPDEST PUSH1 0x0 PUSH2 0x55D8 DUP8 PUSH2 0x5780 JUMP JUMPDEST SWAP1 POP PUSH2 0x55E4 DUP2 DUP4 PUSH2 0x949 JUMP JUMPDEST SWAP5 POP DUP2 ISZERO PUSH2 0x55FB JUMPI PUSH2 0x55F8 DUP2 DUP7 PUSH1 0x1 PUSH2 0x57B3 JUMP JUMPDEST SWAP4 POP JUMPDEST PUSH1 0x20 DUP7 ADD MLOAD ISZERO PUSH2 0x5612 JUMPI PUSH2 0x560F DUP6 DUP4 PUSH2 0x582B JUMP JUMPDEST SWAP3 POP JUMPDEST POP POP SWAP3 POP SWAP3 POP SWAP3 JUMP JUMPDEST PUSH1 0x0 DUP1 PUSH2 0x7CA PUSH1 0x1E PUSH2 0x2CAD JUMP JUMPDEST PUSH1 0x0 PUSH2 0x5632 PUSH2 0x3694 JUMP JUMPDEST PUSH2 0xFFFF DUP6 AND PUSH1 0x0 SWAP1 DUP2 MSTORE PUSH1 0x20 DUP3 DUP2 MSTORE PUSH1 0x40 DUP1 DUP4 KECCAK256 DUP8 DUP5 MSTORE SWAP1 SWAP2 MSTORE DUP2 KECCAK256 DUP1 SLOAD SWAP3 SWAP4 POP SWAP2 PUSH1 0x1 PUSH1 0x1 PUSH1 0x50 SHL SUB AND SWAP1 SUB PUSH2 0x5667 PUSH2 0x5A0D JUMP JUMPDEST PUSH2 0x5677 DUP2 PUSH2 0xFFFF DUP10 AND DUP9 DUP1 PUSH2 0x2E05 JUMP JUMPDEST PUSH1 0x80 DUP2 ADD MLOAD ISZERO PUSH2 0x5699 JUMPI PUSH1 0x40 MLOAD PUSH3 0x461BCD PUSH1 0xE5 SHL DUP2 MSTORE PUSH1 0x4 ADD PUSH2 0x34A SWAP1 PUSH2 0x5E1B JUMP JUMPDEST PUSH1 0x0 PUSH2 0x56AD DUP7 PUSH2 0x56A8 DUP6 PUSH2 0x15E9 JUMP JUMPDEST PUSH2 0x2466 JUMP JUMPDEST SWAP1 POP PUSH1 0x0 PUSH2 0x56C3 PUSH2 0x56BE DUP9 DUP7 PUSH2 0x5844 JUMP JUMPDEST PUSH2 0x15E9 JUMP JUMPDEST SWAP1 POP PUSH2 0x56D3 PUSH2 0x5E7 DUP11 DUP4 DUP6 PUSH2 0x2FD6 JUMP JUMPDEST DUP5 SLOAD PUSH1 0x1 PUSH1 0x1 PUSH1 0x50 SHL SUB PUSH1 0x1 PUSH1 0x50 SHL DUP3 DIV DUP2 AND PUSH1 0x0 SWAP1 DUP2 SUB SWAP3 PUSH1 0x1 PUSH1 0xA0 SHL SWAP1 DIV SWAP1 SWAP2 AND SWAP1 DUP3 SLT DUP1 PUSH2 0x5704 JUMPI POP DUP1 PUSH1 0x0 SLT JUMPDEST ISZERO PUSH2 0x5748 JUMPI PUSH1 0x0 PUSH2 0x5715 DUP11 DUP5 PUSH2 0x2466 JUMP JUMPDEST SWAP1 POP PUSH1 0x0 PUSH2 0x5723 DUP4 DUP4 PUSH2 0x1F86 JUMP JUMPDEST SWAP1 POP DUP1 PUSH1 0x0 SLT ISZERO PUSH2 0x5738 JUMPI PUSH2 0x5738 DUP14 DUP3 PUSH2 0x46FA JUMP JUMPDEST PUSH2 0x5745 DUP14 DUP14 DUP7 DUP6 DUP6 PUSH2 0x58A0 JUMP JUMPDEST POP POP JUMPDEST POP POP POP PUSH2 0xFFFF SWAP1 SWAP8 AND PUSH1 0x0 SWAP1 DUP2 MSTORE PUSH1 0x20 SWAP5 DUP6 MSTORE PUSH1 0x40 DUP1 DUP3 KECCAK256 SWAP8 DUP3 MSTORE SWAP7 SWAP1 SWAP5 MSTORE POP POP POP SWAP2 SWAP1 SWAP2 KECCAK256 DUP1 SLOAD PUSH1 0x1 PUSH1 0x1 PUSH1 0xF0 SHL SUB NOT AND SWAP1 SSTORE POP POP JUMP JUMPDEST PUSH2 0x5788 PUSH2 0x5A7D JUMP JUMPDEST PUSH1 0x0 PUSH2 0x5792 PUSH2 0x25F5 JUMP JUMPDEST PUSH2 0xFFFF DUP5 AND PUSH1 0x0 SWAP1 DUP2 MSTORE PUSH1 0x20 SWAP2 SWAP1 SWAP2 MSTORE PUSH1 0x40 DUP2 KECCAK256 SLOAD SWAP2 POP PUSH2 0x8AC SWAP1 DUP3 PUSH2 0x34EE JUMP JUMPDEST PUSH1 0x0 DUP1 PUSH2 0x57D2 PUSH1 0x64 PUSH2 0x98B DUP8 PUSH1 0xE0 ADD MLOAD DUP8 PUSH2 0x14DE SWAP1 SWAP2 SWAP1 PUSH4 0xFFFFFFFF AND JUMP JUMPDEST SWAP1 POP DUP5 PUSH1 0xA0 ADD MLOAD DUP2 LT ISZERO PUSH2 0x57E7 JUMPI POP PUSH1 0xA0 DUP5 ADD MLOAD JUMPDEST DUP5 PUSH1 0xC0 ADD MLOAD DUP2 GT ISZERO PUSH2 0x57FA JUMPI POP PUSH1 0xC0 DUP5 ADD MLOAD JUMPDEST DUP3 ISZERO PUSH2 0x5811 JUMPI PUSH2 0x580A DUP5 DUP3 PUSH2 0x89A JUMP JUMPDEST SWAP2 POP PUSH2 0x283C JUMP JUMPDEST DUP4 DUP2 GT PUSH2 0x5820 JUMPI DUP1 DUP5 SUB PUSH2 0x663 JUMP JUMPDEST POP PUSH1 0x0 SWAP5 SWAP4 POP POP POP POP JUMP JUMPDEST PUSH1 0x0 PUSH2 0x8AC PUSH2 0x583A DUP5 DUP5 PUSH2 0x14DE JUMP JUMPDEST PUSH4 0x3B9ACA00 PUSH2 0x1505 JUMP JUMPDEST PUSH1 0x0 DUP2 PUSH1 0x0 SGT ISZERO DUP1 ISZERO PUSH2 0x5857 JUMPI POP PUSH1 0xA DUP3 SLT JUMPDEST ISZERO PUSH2 0x5864 JUMPI POP PUSH1 0x0 PUSH2 0x7CA JUMP JUMPDEST PUSH1 0x0 DUP3 SLT PUSH2 0x5871 JUMPI PUSH1 0x0 DUP1 REVERT JUMPDEST PUSH2 0x8AC PUSH1 0x1 PUSH2 0x2FC5 DUP6 PUSH1 0x20 ADD MLOAD PUSH2 0x8C8 PUSH15 0xC097CE7BC90715B34B9F1000000000 DUP8 PUSH2 0x1330 SWAP1 SWAP2 SWAP1 PUSH4 0xFFFFFFFF AND JUMP JUMPDEST PUSH1 0x0 PUSH1 0x1 PUSH1 0x40 SHL PUSH2 0x58B1 DUP8 DUP8 PUSH2 0x49E1 JUMP JUMPDEST OR SWAP1 POP PUSH1 0x0 PUSH2 0x5E7 CALLER PUSH32 0xC3D58168C5AE7397731D063D5BBF3D657854427343F4C083240F7AACAA2D0F62 DUP5 PUSH2 0x58E5 DUP10 PUSH2 0x49FF JUMP JUMPDEST PUSH1 0x40 MLOAD PUSH2 0x58F3 SWAP3 SWAP2 SWAP1 PUSH2 0x5D00 JUMP JUMPDEST PUSH1 0x40 MLOAD DUP1 SWAP2 SUB SWAP1 LOG4 PUSH2 0x5908 PUSH2 0x5E7 DUP8 DUP6 PUSH2 0x4731 JUMP JUMPDEST PUSH1 0x0 DUP3 SGT ISZERO PUSH2 0x5921 JUMPI PUSH2 0x5921 PUSH2 0x5E7 PUSH2 0xFEE DUP9 DUP6 PUSH2 0x5929 JUMP JUMPDEST POP POP POP POP POP POP JUMP JUMPDEST PUSH1 0x0 PUSH2 0x5933 PUSH2 0x4A80 JUMP JUMPDEST PUSH2 0xFFFF DUP5 AND PUSH1 0x0 SWAP1 DUP2 MSTORE PUSH1 0x20 SWAP2 SWAP1 SWAP2 MSTORE PUSH1 0x40 DUP2 KECCAK256 SLOAD PUSH1 0x1 PUSH1 0x1 PUSH1 0xA0 SHL SUB AND SWAP2 POP DUP3 SLT ISZERO PUSH2 0x595E JUMPI SWAP3 SWAP4 SWAP3 JUMPDEST DUP1 PUSH1 0x1 PUSH1 0x1 PUSH1 0xA0 SHL SUB AND PUSH4 0x23DE6651 DUP7 DUP7 PUSH2 0x5978 DUP7 PUSH2 0x49FF JUMP JUMPDEST PUSH1 0x40 MLOAD DUP5 PUSH4 0xFFFFFFFF AND PUSH1 0xE0 SHL DUP2 MSTORE PUSH1 0x4 ADD PUSH2 0x5996 SWAP4 SWAP3 SWAP2 SWAP1 PUSH2 0x5C9E JUMP JUMPDEST PUSH1 0x0 PUSH1 0x40 MLOAD DUP1 DUP4 SUB DUP2 PUSH1 0x0 DUP8 DUP1 EXTCODESIZE ISZERO DUP1 ISZERO PUSH2 0x59B0 JUMPI PUSH1 0x0 DUP1 REVERT JUMPDEST POP GAS CALL ISZERO DUP1 ISZERO PUSH2 0x2BE1 JUMPI RETURNDATASIZE PUSH1 0x0 DUP1 RETURNDATACOPY RETURNDATASIZE PUSH1 0x0 REVERT JUMPDEST PUSH1 0x40 MLOAD DUP1 PUSH1 0xE0 ADD PUSH1 0x40 MSTORE DUP1 PUSH2 0x59D7 PUSH2 0x5AC2 JUMP JUMPDEST DUP2 MSTORE PUSH1 0x20 ADD PUSH2 0x59E4 PUSH2 0x5AEE JUMP JUMPDEST DUP2 MSTORE PUSH1 0x0 PUSH1 0x20 DUP3 ADD DUP2 SWAP1 MSTORE PUSH1 0x40 DUP3 ADD DUP2 SWAP1 MSTORE PUSH1 0x60 DUP3 ADD DUP2 SWAP1 MSTORE PUSH1 0x80 DUP3 ADD DUP2 SWAP1 MSTORE PUSH1 0xA0 SWAP1 SWAP2 ADD MSTORE SWAP1 JUMP JUMPDEST PUSH1 0x40 MLOAD DUP1 PUSH2 0x100 ADD PUSH1 0x40 MSTORE DUP1 PUSH1 0x0 DUP1 NOT AND DUP2 MSTORE PUSH1 0x20 ADD PUSH1 0x0 DUP2 MSTORE PUSH1 0x20 ADD PUSH1 0x0 DUP2 MSTORE PUSH1 0x20 ADD PUSH1 0x0 DUP2 MSTORE PUSH1 0x20 ADD PUSH1 0x0 DUP2 MSTORE PUSH1 0x20 ADD PUSH1 0x0 DUP2 MSTORE PUSH1 0x20 ADD PUSH1 0x0 DUP2 MSTORE PUSH1 0x20 ADD PUSH1 0x0 DUP2 MSTORE POP SWAP1 JUMP JUMPDEST PUSH1 0x40 MLOAD DUP1 PUSH1 0x80 ADD PUSH1 0x40 MSTORE DUP1 PUSH1 0x60 DUP2 MSTORE PUSH1 0x20 ADD PUSH1 0x60 DUP2 MSTORE PUSH1 0x20 ADD PUSH1 0x60 DUP2 MSTORE PUSH1 0x20 ADD PUSH1 0x60 DUP2 MSTORE POP SWAP1 JUMP JUMPDEST PUSH1 0x40 MLOAD DUP1 PUSH2 0x100 ADD PUSH1 0x40 MSTORE DUP1 PUSH1 0x0 DUP2 MSTORE PUSH1 0x20 ADD PUSH1 0x0 DUP2 MSTORE PUSH1 0x20 ADD PUSH1 0x0 DUP2 MSTORE PUSH1 0x20 ADD PUSH1 0x0 DUP2 MSTORE PUSH1 0x20 ADD PUSH1 0x0 DUP2 MSTORE PUSH1 0x20 ADD PUSH1 0x0 DUP2 MSTORE PUSH1 0x20 ADD PUSH1 0x0 DUP2 MSTORE PUSH1 0x20 ADD PUSH1 0x0 DUP2 MSTORE POP SWAP1 JUMP JUMPDEST PUSH1 0x40 DUP1 MLOAD PUSH1 0x80 DUP2 ADD DUP3 MSTORE PUSH1 0x0 DUP1 DUP3 MSTORE PUSH1 0x20 DUP3 ADD MSTORE SWAP1 DUP2 ADD PUSH2 0x5AE1 PUSH2 0x5B5A JUMP JUMPDEST DUP2 MSTORE PUSH1 0x0 PUSH1 0x20 SWAP1 SWAP2 ADD MSTORE SWAP1 JUMP JUMPDEST PUSH1 0x40 MLOAD DUP1 PUSH1 0x80 ADD PUSH1 0x40 MSTORE DUP1 PUSH1 0x60 DUP2 MSTORE PUSH1 0x20 ADD PUSH1 0x60 DUP2 MSTORE PUSH1 0x20 ADD PUSH1 0x0 DUP2 MSTORE PUSH1 0x20 ADD PUSH1 0x0 DUP2 MSTORE POP SWAP1 JUMP JUMPDEST PUSH1 0x40 MLOAD DUP1 PUSH1 0xC0 ADD PUSH1 0x40 MSTORE DUP1 PUSH1 0x0 PUSH2 0xFFFF AND DUP2 MSTORE PUSH1 0x20 ADD PUSH1 0x0 DUP2 MSTORE PUSH1 0x20 ADD PUSH1 0x0 DUP2 MSTORE PUSH1 0x20 ADD PUSH1 0x0 DUP2 MSTORE PUSH1 0x20 ADD PUSH1 0x0 DUP2 MSTORE PUSH1 0x20 ADD PUSH1 0x0 PUSH1 0x3 DUP2 GT ISZERO PUSH2 0x5B55 JUMPI INVALID JUMPDEST SWAP1 MSTORE SWAP1 JUMP JUMPDEST PUSH1 0x40 MLOAD DUP1 PUSH1 0x60 ADD PUSH1 0x40 MSTORE DUP1 PUSH1 0x0 DUP2 MSTORE PUSH1 0x20 ADD PUSH1 0x0 DUP2 MSTORE PUSH1 0x20 ADD PUSH1 0x0 DUP2 MSTORE POP SWAP1 JUMP JUMPDEST PUSH1 0x40 MLOAD DUP1 PUSH2 0x120 ADD PUSH1 0x40 MSTORE DUP1 PUSH1 0x0 DUP2 MSTORE PUSH1 0x20 ADD PUSH1 0x0 DUP2 MSTORE PUSH1 0x20 ADD PUSH1 0x0 DUP2 MSTORE PUSH1 0x20 ADD PUSH1 0x0 DUP2 MSTORE PUSH1 0x20 ADD PUSH1 0x0 DUP2 MSTORE PUSH1 0x20 ADD PUSH1 0x0 DUP2 MSTORE PUSH1 0x20 ADD PUSH1 0x0 DUP2 MSTORE PUSH1 0x20 ADD PUSH1 0x0 DUP2 MSTORE PUSH1 0x20 ADD PUSH1 0x0 DUP2 MSTORE POP SWAP1 JUMP JUMPDEST DUP1 CALLDATALOAD PUSH2 0xFFFF DUP2 AND DUP2 EQ PUSH2 0x874 JUMPI PUSH1 0x0 DUP1 REVERT JUMPDEST PUSH1 0x0 PUSH1 0x20 DUP3 DUP5 SUB SLT ISZERO PUSH2 0x5BEA JUMPI DUP1 DUP2 REVERT JUMPDEST PUSH2 0x8AC DUP3 PUSH2 0x5BC7 JUMP JUMPDEST PUSH1 0x0 DUP1 PUSH1 0x40 DUP4 DUP6 SUB SLT ISZERO PUSH2 0x5C05 JUMPI DUP1 DUP2 REVERT JUMPDEST PUSH2 0x5C0E DUP4 PUSH2 0x5BC7 JUMP JUMPDEST SWAP2 POP PUSH1 0x20 DUP4 ADD CALLDATALOAD DUP1 ISZERO ISZERO DUP2 EQ PUSH2 0x5C22 JUMPI DUP2 DUP3 REVERT JUMPDEST DUP1 SWAP2 POP POP SWAP3 POP SWAP3 SWAP1 POP JUMP JUMPDEST PUSH1 0x0 DUP1 PUSH1 0x40 DUP4 DUP6 SUB SLT ISZERO PUSH2 0x5C3F JUMPI DUP2 DUP3 REVERT JUMPDEST POP POP DUP1 MLOAD PUSH1 0x20 SWAP1 SWAP2 ADD MLOAD SWAP1 SWAP3 SWAP1 SWAP2 POP JUMP JUMPDEST PUSH1 0x0 DUP2 MLOAD DUP1 DUP5 MSTORE PUSH1 0x20 DUP1 DUP6 ADD SWAP5 POP DUP1 DUP5 ADD DUP4 JUMPDEST DUP4 DUP2 LT ISZERO PUSH2 0x5C7F JUMPI DUP2 MLOAD DUP8 MSTORE SWAP6 DUP3 ADD SWAP6 SWAP1 DUP3 ADD SWAP1 PUSH1 0x1 ADD PUSH2 0x5C63 JUMP JUMPDEST POP SWAP5 SWAP6 SWAP5 POP POP POP POP POP JUMP JUMPDEST PUSH1 0x1 PUSH1 0x1 PUSH1 0xA0 SHL SUB SWAP2 SWAP1 SWAP2 AND DUP2 MSTORE PUSH1 0x20 ADD SWAP1 JUMP JUMPDEST PUSH1 0x1 PUSH1 0x1 PUSH1 0xA0 SHL SUB SWAP4 DUP5 AND DUP2 MSTORE SWAP2 SWAP1 SWAP3 AND PUSH1 0x20 DUP3 ADD MSTORE PUSH1 0x40 DUP2 ADD SWAP2 SWAP1 SWAP2 MSTORE PUSH1 0x60 ADD SWAP1 JUMP JUMPDEST PUSH1 0x1 PUSH1 0x1 PUSH1 0xA0 SHL SUB SWAP3 SWAP1 SWAP3 AND DUP3 MSTORE PUSH1 0x20 DUP3 ADD MSTORE PUSH1 0x40 ADD SWAP1 JUMP JUMPDEST PUSH1 0x0 PUSH1 0x40 DUP3 MSTORE PUSH2 0x5CEE PUSH1 0x40 DUP4 ADD DUP6 PUSH2 0x5C50 JUMP JUMPDEST DUP3 DUP2 SUB PUSH1 0x20 DUP5 ADD MSTORE PUSH2 0x663 DUP2 DUP6 PUSH2 0x5C50 JUMP JUMPDEST SWAP2 DUP3 MSTORE PUSH1 0x20 DUP3 ADD MSTORE PUSH1 0x40 ADD SWAP1 JUMP JUMPDEST PUSH1 0x20 DUP1 DUP3 MSTORE PUSH1 0x16 SWAP1 DUP3 ADD MSTORE PUSH22 0x13585C9AD95D081B9BDD081A5B9A5D1A585B1A5E9959 PUSH1 0x52 SHL PUSH1 0x40 DUP3 ADD MSTORE PUSH1 0x60 ADD SWAP1 JUMP JUMPDEST PUSH1 0x20 DUP1 DUP3 MSTORE PUSH1 0x14 SWAP1 DUP3 ADD MSTORE PUSH20 0x4F7261636C652072617465206F766572666C6F77 PUSH1 0x60 SHL PUSH1 0x40 DUP3 ADD MSTORE PUSH1 0x60 ADD SWAP1 JUMP JUMPDEST PUSH1 0x20 DUP1 DUP3 MSTORE PUSH1 0x15 SWAP1 DUP3 ADD MSTORE PUSH21 0x10D1CE881B9BC81B585C9AD95D1CC81B1A5CDD1959 PUSH1 0x5A SHL PUSH1 0x40 DUP3 ADD MSTORE PUSH1 0x60 ADD SWAP1 JUMP JUMPDEST PUSH1 0x20 DUP1 DUP3 MSTORE PUSH1 0xD SWAP1 DUP3 ADD MSTORE PUSH13 0x92DCECC2D8D2C840D2DCC8CAF PUSH1 0x9B SHL PUSH1 0x40 DUP3 ADD MSTORE PUSH1 0x60 ADD SWAP1 JUMP JUMPDEST PUSH1 0x20 DUP1 DUP3 MSTORE PUSH1 0xF SWAP1 DUP3 ADD MSTORE PUSH15 0x4F766572206D617820617373657473 PUSH1 0x88 SHL PUSH1 0x40 DUP3 ADD MSTORE PUSH1 0x60 ADD SWAP1 JUMP JUMPDEST PUSH1 0x20 DUP1 DUP3 MSTORE PUSH1 0x16 SWAP1 DUP3 ADD MSTORE PUSH22 0x10D1CE881B585C9AD95D081A5B99195E08189BDD5B99 PUSH1 0x52 SHL PUSH1 0x40 DUP3 ADD MSTORE PUSH1 0x60 ADD SWAP1 JUMP JUMPDEST PUSH1 0x20 DUP1 DUP3 MSTORE PUSH1 0x11 SWAP1 DUP3 ADD MSTORE PUSH17 0x4D75737420696E6974206D61726B657473 PUSH1 0x78 SHL PUSH1 0x40 DUP3 ADD MSTORE PUSH1 0x60 ADD SWAP1 JUMP JUMPDEST PUSH1 0x20 DUP1 DUP3 MSTORE PUSH1 0x17 SWAP1 DUP3 ADD MSTORE PUSH32 0x494D3A20696D706C6965642072617465206661696C6564000000000000000000 PUSH1 0x40 DUP3 ADD MSTORE PUSH1 0x60 ADD SWAP1 JUMP JUMPDEST PUSH2 0xFFFF SWAP2 SWAP1 SWAP2 AND DUP2 MSTORE PUSH1 0x20 ADD SWAP1 JUMP JUMPDEST SWAP3 DUP4 MSTORE PUSH1 0x20 DUP4 ADD SWAP2 SWAP1 SWAP2 MSTORE PUSH1 0x40 DUP3 ADD MSTORE PUSH1 0x60 ADD SWAP1 JUMP INVALID LOG2 PUSH5 0x6970667358 0x22 SLT KECCAK256 0xA7 0xE0 CALL DUP7 0xD 0xCC 0x4A CREATE2 SWAP11 0xC1 PUSH1 0xD0 PUSH13 0xC62C0B91EC971DA03E214A551F GASLIMIT 0x5E 0xB3 0xEA 0xE9 0x4B PUSH5 0x736F6C6343 STOP SMOD MOD STOP CALLER ","sha1":"630028d0dfef3054b5a4f1324e97351fd11561ff","source":"// SPDX-License-Identifier: BSUL-1.1\npragma solidity =0.7.6;\npragma abicoder v2;\n\nimport {\n    PrimeRate,\n    PortfolioState,\n    MarketParameters,\n    BalanceState,\n    CashGroupParameters,\n    nTokenPortfolio,\n    InterestRateParameters,\n    PortfolioAsset\n} from \"../../global/Types.sol\";\nimport {Constants} from \"../../global/Constants.sol\";\nimport {SafeInt256} from \"../../math/SafeInt256.sol\";\nimport {SafeUint256} from \"../../math/SafeUint256.sol\";\nimport {Bitmap} from \"../../math/Bitmap.sol\";\n\nimport {Market} from \"../../internal/markets/Market.sol\";\nimport {DateTime} from \"../../internal/markets/DateTime.sol\";\nimport {CashGroup} from \"../../internal/markets/CashGroup.sol\";\nimport {InterestRateCurve} from \"../../internal/markets/InterestRateCurve.sol\";\nimport {PrimeRateLib} from \"../../internal/pCash/PrimeRateLib.sol\";\nimport {BalanceHandler} from \"../../internal/balances/BalanceHandler.sol\";\nimport {PortfolioHandler} from \"../../internal/portfolio/PortfolioHandler.sol\";\nimport {BitmapAssetsHandler} from \"../../internal/portfolio/BitmapAssetsHandler.sol\";\nimport {SettleBitmapAssets} from \"../../internal/settlement/SettleBitmapAssets.sol\";\nimport {nTokenHandler} from \"../../internal/nToken/nTokenHandler.sol\";\nimport {AssetHandler} from \"../../internal/valuation/AssetHandler.sol\";\n\nimport {nTokenMintAction} from \"./nTokenMintAction.sol\";\n\n/// @notice Initialize markets is called once every quarter to setup the new markets. Only the nToken account\n/// can initialize markets, and this method will be called on behalf of that account. In this action\n/// the following will occur:\n///  - nToken Liquidity Tokens will be settled\n///  - Any ifCash assets will be settled\n///  - If nToken liquidity tokens are settled with negative net ifCash, enough cash will be withheld at the PV\n///    to purchase offsetting positions\n///  - fCash positions are written to storage\n///  - For each market, calculate the proportion of fCash to cash given:\n///     - previous oracle rates\n///     - rate anchor set by governance\n///     - percent of cash to deposit into the market set by governance\n///  - Set new markets and add liquidity tokens to portfolio\nlibrary InitializeMarketsAction {\n    using Bitmap for bytes32;\n    using SafeUint256 for uint256;\n    using SafeInt256 for int256;\n    using PortfolioHandler for PortfolioState;\n    using Market for MarketParameters;\n    using BalanceHandler for BalanceState;\n    using CashGroup for CashGroupParameters;\n    using PrimeRateLib for PrimeRate;\n    using nTokenHandler for nTokenPortfolio;\n    using InterestRateCurve for InterestRateParameters;\n\n    // Cash balances are always in 8 decimal precision so some minimum amount\n    // of cash is required before we can initialize markets.\n    int256 private constant MIN_CASH_REQUIRED = 1_000;\n\n    event MarketsInitialized(uint16 currencyId);\n\n    struct GovernanceParameters {\n        int256[] depositShares;\n        int256[] leverageThresholds;\n        uint256[] proportions;\n        InterestRateParameters[] interestRateParams;\n    }\n\n    function _getGovernanceParameters(uint16 currencyId, uint256 maxMarketIndex)\n        private\n        returns (GovernanceParameters memory)\n    {\n        GovernanceParameters memory params;\n        (params.depositShares, params.leverageThresholds) = nTokenHandler.getDepositParameters(\n            currencyId,\n            maxMarketIndex\n        );\n\n        int256[] memory _proportions = nTokenHandler.getInitializationParameters(currencyId, maxMarketIndex);\n        // NOTE: this conversion from int256 => uint256 is done for legacy reasons\n        params.proportions = new uint256[](_proportions.length);\n        for (uint256 i = 0; i < _proportions.length; i++) {\n            params.proportions[i] = _proportions[i].toUint();\n        }\n\n        // Copies the next interest rate parameters set by governance into the\n        // \"active\" interest rate parameters for the current quarter.\n        InterestRateCurve.setActiveInterestRateParameters(currencyId);\n        params.interestRateParams = new InterestRateParameters[](maxMarketIndex);\n        // maxMarketIndex is 1-indexed\n        for (uint256 i = 1; i <= maxMarketIndex; i++) {\n            params.interestRateParams[i - 1] = InterestRateCurve.getActiveInterestRateParameters(\n                currencyId,\n                i\n            );\n        }\n\n        return params;\n    }\n\n    function _settleNTokenLiquidityTokens(\n        nTokenPortfolio memory nToken,\n        uint256 blockTime\n    ) internal returns (int256 withdrawnCash, int256 settledCashFromfCash) {\n        MarketParameters memory market;\n        PortfolioAsset[] memory storedAssets = nToken.portfolioState.storedAssets;\n\n        // The nToken portfolio only ever has liquidity tokens sorted in ascending order\n        for (uint256 i; i < storedAssets.length; i++) {\n            PortfolioAsset memory asset = storedAssets[i];\n            // Must be liquidity token type\n            require(AssetHandler.isLiquidityToken(asset.assetType));\n            {\n                uint256 settleDate = AssetHandler.getSettlementDate(asset);\n                // Settlement date is on block time exactly\n                require(settleDate <= blockTime);\n                Market.loadSettlementMarket(market, asset.currencyId, asset.maturity, settleDate);\n            }\n\n            int256 fCash;\n            {\n                int256 primeCash;\n                (primeCash, fCash) = market.removeLiquidity(asset.notional);\n                withdrawnCash = withdrawnCash.add(primeCash);\n            }\n\n            // If the fCash has matured (as it will for the 3 month market), then convert it\n            // to a settled prime cash (positive) balance and return it. We do not net it off\n            // against the portfolio because that would cause an improper totalDebtSupply update\n            if (asset.maturity <= blockTime) {\n                // NOTE: convertSettledfCash will set the prime settlement rate\n                int256 settledPrimeCash = nToken.cashGroup.primeRate.convertSettledfCash(\n                    nToken.tokenAddress, asset.currencyId, asset.maturity, fCash, blockTime\n                );\n                settledCashFromfCash = settledCashFromfCash.add(settledPrimeCash);\n            } else {\n                BitmapAssetsHandler.addifCashAsset(\n                    nToken.tokenAddress,\n                    asset.currencyId,\n                    asset.maturity,\n                    nToken.lastInitializedTime,\n                    fCash\n                );\n            }\n\n            nToken.portfolioState.deleteAsset(i);\n        }\n    }\n\n    function _settleNTokenPortfolio(nTokenPortfolio memory nToken, uint256 blockTime) private {\n        // nToken never has idiosyncratic cash between 90 day intervals but since it also has a\n        // bitmap fCash assets. We don't set the pointer to the settlement date of the liquidity\n        // tokens (1 quarter away), instead we set it to the current block time. This is a bit\n        // esoteric but will ensure that ifCash is never improperly settled.\n\n        // If lastInitializedTime == reference time then this will fail, that is the correct\n        // behavior since initialization begins at lastInitializedTime. That means that markets\n        // cannot be re-initialized during a single block (this is the correct behavior). If\n        // lastInitializedTime >= reference time then the markets have already been initialized\n        // for the quarter.\n        uint256 referenceTime = DateTime.getReferenceTime(blockTime);\n        require(nToken.lastInitializedTime < referenceTime);\n\n        // All liquidity tokens are removed during initialize markets, the nToken will receive\n        // cash and fCash positions as a result. The three month fCash position will settle and\n        // the value from that will be in settledCashFromfCash.\n        (int256 withdrawnCash, int256 settledCashFromfCash) = _settleNTokenLiquidityTokens(nToken, blockTime);\n\n        // Settles any fCash positions in the nToken. Generally speaking, this will result in the\n        // nToken's negative 3 month fCash position being settled.\n        (int256 settledPositiveCash, int256 settledNegativeCash, uint256 blockTimeUTC0) =\n            SettleBitmapAssets.settleBitmappedCashGroup(\n                nToken.tokenAddress,\n                nToken.cashGroup.currencyId,\n                nToken.lastInitializedTime,\n                blockTime,\n                nToken.cashGroup.primeRate\n            );\n\n        // Both of these will be greater than or equal to zero\n        settledPositiveCash = settledPositiveCash.add(settledCashFromfCash);\n\n        // Add all the cash withdrawn from the market first\n        nToken.cashBalance = nToken.cashBalance.add(withdrawnCash);\n\n        // convertToStorageInSettlement will return the final stored balance after all the\n        // settled balances are applied.\n        nToken.cashBalance = nToken.cashGroup.primeRate.convertToStorageInSettlement(\n            nToken.tokenAddress,\n            nToken.cashGroup.currencyId,\n            nToken.cashBalance, // previous cash balance\n            settledPositiveCash,\n            settledNegativeCash\n        );\n\n        // The nToken must always have a strictly positive cash balance\n        require(nToken.cashBalance > 0);\n\n        // The ifCashBitmap has been updated to reference this new settlement time\n        nToken.lastInitializedTime = blockTimeUTC0.toUint40();\n    }\n\n    /// @notice Special method to get previous markets, normal usage would not reference previous markets\n    /// in this way\n    function _getPreviousMarkets(\n        uint256 currencyId,\n        uint256 blockTime,\n        nTokenPortfolio memory nToken,\n        MarketParameters[] memory previousMarkets\n    ) private view {\n        uint256 rateOracleTimeWindow = nToken.cashGroup.getRateOracleTimeWindow();\n        // This will reference the previous settlement date to get the previous markets\n        uint256 settlementDate = DateTime.getReferenceTime(blockTime);\n\n        // Assume that assets are stored in order and include all assets of the previous market\n        // set. This will account for the potential that markets.length is greater than the previous\n        // markets when the maxMarketIndex is increased (increasing the overall number of markets).\n        // We don't fetch the 3 month market (i = 0) because it has settled and will not be used for\n        // the subsequent calculations. Since nTokens never allow liquidity to go to zero then we know\n        // there is always a matching token for each market.\n        for (uint256 i = 1; i < nToken.portfolioState.storedAssets.length; i++) {\n            previousMarkets[i].loadMarketWithSettlementDate(\n                currencyId,\n                // These assets will reference the previous liquidity tokens\n                nToken.portfolioState.storedAssets[i].maturity,\n                blockTime,\n                // No liquidity tokens required for this process\n                false,\n                rateOracleTimeWindow,\n                settlementDate\n            );\n        }\n    }\n\n    function _calculateNetPrimeCashAvailable(\n        nTokenPortfolio memory nToken,\n        MarketParameters[] memory previousMarkets,\n        uint256 blockTime,\n        uint16 currencyId,\n        bool isFirstInit\n    ) private returns (int256 netPrimeCashAvailable) {\n        int256 primeCashWithholding;\n\n        if (isFirstInit) {\n            nToken.lastInitializedTime = uint40(DateTime.getTimeUTC0(blockTime));\n        } else {\n            _settleNTokenPortfolio(nToken, blockTime);\n            _getPreviousMarkets(currencyId, blockTime, nToken, previousMarkets);\n            // NOTE: getNTokenNegativefCashWithholding is compiled as an internal method\n            primeCashWithholding = nTokenMintAction.getNTokenNegativefCashWithholding(nToken, previousMarkets, blockTime);\n        }\n\n        // Deduct the amount of withholding required from the cash balance (at this point includes all settled cash)\n        netPrimeCashAvailable = nToken.cashBalance.subNoNeg(primeCashWithholding);\n\n        // This is the new balance to store\n        nToken.cashBalance = primeCashWithholding;\n\n        // We can't have less net asset cash than our percent basis or some markets will end up not\n        // initialized\n        require(netPrimeCashAvailable > MIN_CASH_REQUIRED); // dev: insufficient cash\n\n        return netPrimeCashAvailable;\n    }\n\n    /// @notice The six month implied rate is zero if there have never been any markets initialized\n    /// otherwise the market will be the interpolation between the old 6 month and 1 year markets\n    /// which are now sitting at 3 month and 9 month time to maturity\n    function _getSixMonthImpliedRate(\n        MarketParameters[] memory previousMarkets,\n        uint256 referenceTime\n    ) private pure returns (uint256) {\n        // Cannot interpolate six month rate without a 1 year market\n        require(previousMarkets.length >= 3);\n\n        return\n            CashGroup.interpolateOracleRate(\n                previousMarkets[1].maturity,\n                previousMarkets[2].maturity,\n                previousMarkets[1].oracleRate,\n                previousMarkets[2].oracleRate,\n                // Maturity date == 6 months from reference time\n                referenceTime + 2 * Constants.QUARTER\n            );\n    }\n\n    /// @notice Returns the linear interpolation between two market rates. The formula is\n    /// slope = (longMarket.oracleRate - shortMarket.oracleRate) / (longMarket.maturity - shortMarket.maturity)\n    /// interpolatedRate = slope * (assetMaturity - shortMarket.maturity) + shortMarket.oracleRate\n    function _interpolateFutureRate(\n        uint256 shortMaturity,\n        uint256 shortRate,\n        MarketParameters memory longMarket\n    ) private pure returns (uint256) {\n        uint256 longMaturity = longMarket.maturity;\n        uint256 longRate = longMarket.oracleRate;\n        // the next market maturity is always a quarter away\n        uint256 newMaturity = longMarket.maturity + Constants.QUARTER;\n        require(shortMaturity < longMaturity);\n\n        // It's possible that the rates are inverted where the short market rate > long market rate and\n        // we will get an underflow here so we check for that\n        if (longRate >= shortRate) {\n            return\n                (longRate - shortRate)\n                    .mul(newMaturity - shortMaturity)\n                // No underflow here, checked above\n                    .div(longMaturity - shortMaturity)\n                    .add(shortRate);\n        } else {\n            // In this case the slope is negative so:\n            // interpolatedRate = shortMarket.oracleRate - slope * (assetMaturity - shortMarket.maturity)\n            uint256 diff =\n                (shortRate - longRate)\n                    .mul(newMaturity - shortMaturity)\n                // No underflow here, checked above\n                    .div(longMaturity - shortMaturity);\n\n            // This interpolation may go below zero so we bottom out interpolated rates at (practically)\n            // zero. Storing a zero for oracleRates means that the markets are not initialized so using\n            // a minimum value here to handle that case\n            return shortRate > diff ? shortRate - diff : 1;\n        }\n    }\n\n    /// @dev This is here to clear the stack\n    function _setLiquidityAmount(\n        int256 netPrimeCashAvailable,\n        int256 depositShare,\n        uint256 assetType,\n        MarketParameters memory newMarket,\n        nTokenPortfolio memory nToken\n    ) private pure returns (int256) {\n        // The portion of the cash available that will be deposited into the market\n        int256 primeCashToMarket =\n            netPrimeCashAvailable.mul(depositShare).div(Constants.DEPOSIT_PERCENT_BASIS);\n        newMarket.totalPrimeCash = primeCashToMarket;\n        newMarket.totalLiquidity = primeCashToMarket;\n\n        // Add a new liquidity token, this will end up in the new asset array\n        nToken.portfolioState.addAsset(\n            nToken.cashGroup.currencyId,\n            newMarket.maturity,\n            assetType, // This is liquidity token asset type\n            primeCashToMarket\n        );\n\n        // fCashAmount is calculated using the underlying amount\n        return nToken.cashGroup.primeRate.convertToUnderlying(primeCashToMarket);\n    }\n\n    /// @notice Calculates the fCash amount given the cash and utilization:\n    // utilization = totalfCash / (totalfCash + totalCashUnderlying)\n    // utilization * (totalfCash + totalCashUnderlying) = totalfCash\n    // utilization * totalCashUnderlying + utilization * totalfCash = totalfCash\n    // utilization * totalCashUnderlying = totalfCash * (1 - utilization)\n    // totalfCash = utilization * totalCashUnderlying / (1 - utilization)\n    function _calculatefCashAmountFromUtilization(\n        int256 underlyingCashToMarket,\n        uint256 utilization \n    ) private pure returns (int256) {\n        require(utilization < uint256(Constants.RATE_PRECISION));\n        int256 _utilization = int256(utilization);\n        // NOTE: sub underflow checked above, no div by zero possible\n        return (underlyingCashToMarket.mul(_utilization) / (Constants.RATE_PRECISION - _utilization));\n    }\n\n    /// @notice Sweeps nToken cash balance into markets after accounting for cash withholding. Can be\n    /// done after fCash residuals are purchased to ensure that markets have maximum liquidity.\n    /// @param currencyId currency of markets to initialize\n    /// @dev emit:CashSweepIntoMarkets\n    /// @dev auth:none\n    function sweepCashIntoMarkets(uint16 currencyId) external {\n        nTokenMintAction.sweepCashIntoMarkets(currencyId);\n    }\n\n    /// @notice Initialize the market for a given currency id, done once a quarter\n    /// @param currencyId currency of markets to initialize\n    /// @param isFirstInit true if this is the first time the markets have been initialized\n    /// @dev emit:MarketsInitialized\n    /// @dev auth:none\n    function initializeMarkets(uint16 currencyId, bool isFirstInit) external {\n        uint256 blockTime = block.timestamp;\n        nTokenPortfolio memory nToken;\n        nToken.loadNTokenPortfolioStateful(currencyId);\n        MarketParameters[] memory previousMarkets =\n            new MarketParameters[](nToken.cashGroup.maxMarketIndex);\n\n        // This should be sufficient to validate that the currency id is valid\n        require(nToken.cashGroup.maxMarketIndex != 0);\n        // If the nToken has any assets then this is not the first initialization\n        if (isFirstInit) {\n            require(nToken.portfolioState.storedAssets.length == 0);\n        }\n\n        int256 netPrimeCashAvailable = _calculateNetPrimeCashAvailable(\n            nToken,\n            previousMarkets,\n            blockTime,\n            currencyId,\n            isFirstInit\n        );\n\n        GovernanceParameters memory parameters =\n            _getGovernanceParameters(currencyId, nToken.cashGroup.maxMarketIndex);\n\n        MarketParameters memory newMarket;\n        // Oracle rate is carried over between loops\n        uint256 oracleRate;\n        for (uint256 i = 0; i < nToken.cashGroup.maxMarketIndex; i++) {\n            // Traded markets are 1-indexed\n            newMarket.maturity = DateTime.getReferenceTime(blockTime).add(\n                DateTime.getTradedMarket(i + 1)\n            );\n\n            int256 underlyingCashToMarket =\n                _setLiquidityAmount(\n                    netPrimeCashAvailable,\n                    parameters.depositShares[i],\n                    Constants.MIN_LIQUIDITY_TOKEN_INDEX + i, // liquidity token asset type\n                    newMarket,\n                    nToken\n                );\n\n            // Governance will prevent previousMarkets.length from being equal to 1, meaning that we will\n            // either have 0 markets (on first init), exactly 2 markets, or 2+ markets. In the case that there\n            // are exactly two markets then the 6 month market must be initialized via this method (there is no\n            // 9 month market to interpolate a rate against). In the case of 2+ markets then we will only enter this\n            // first branch when the number of markets is increased\n            if (\n                isFirstInit ||\n                // This is the six month market when there are only 3 and 6 month markets\n                (i == 1 && previousMarkets.length == 2) ||\n                // At this point, these are new markets and they must be initialized\n                (i >= nToken.portfolioState.storedAssets.length) ||\n                // When extending from the 6 month to 1 year market we must initialize both 6 and 1 year as new\n                (i == 1 && previousMarkets[2].oracleRate == 0)\n            ) {\n                // Any newly added markets cannot have their implied rates interpolated via the previous\n                // markets. In this case we initialize the markets using the rate anchor and proportion.\n                int256 fCashAmount = _calculatefCashAmountFromUtilization(underlyingCashToMarket, parameters.proportions[i]);\n\n                newMarket.totalfCash = fCashAmount;\n                newMarket.oracleRate = parameters.interestRateParams[i].getInterestRate(parameters.proportions[i]);\n\n                // If this fails it is because the rate anchor and proportion are not set properly by\n                // governance.\n                require(newMarket.oracleRate > 0, \"IM: implied rate failed\");\n            } else {\n                // Two special cases for the 3 month and 6 month market when interpolating implied rates. The 3 month market\n                // inherits the implied rate from the previous 6 month market (they are now at the same maturity).\n                if (i == 0) {\n                    // We should never get an array out of bounds error here because of the inequality check in the first branch\n                    // of the outer if statement.\n                    oracleRate = previousMarkets[1].oracleRate;\n                } else if (i == 1) {\n                    // The six month market is the interpolation between the 3 month and the 1 year market (now at 9 months). This\n                    // interpolation is different since the rate is between 3 and 9 months, for all the other interpolations we interpolate\n                    // forward in time (i.e. use a 3 and 6 month rate to interpolate a 1 year rate). The first branch of this if statement\n                    // will capture the case when the 1 year rate has not been set.\n                    oracleRate = _getSixMonthImpliedRate(\n                        previousMarkets,\n                        DateTime.getReferenceTime(blockTime)\n                    );\n\n                    // Floor an interpolated interest rate at kink rate 1\n                    if (oracleRate < parameters.interestRateParams[i].kinkRate1) {\n                        oracleRate = parameters.interestRateParams[i].kinkRate1;\n                    }\n                } else {\n                    // Any other market has the interpolation between the new implied rate from the newly initialized market previous\n                    // to this market interpolated with the previous version of this market. For example, the newly initialized 1 year\n                    // market will have its implied rate set to the interpolation between the newly initialized 6 month market (done in\n                    // previous iteration of this loop) and the previous 1 year market (which has now rolled down to 9 months). Similarly,\n                    // a 2 year market will be interpolated from the newly initialized 1 year and the previous 2 year market.\n\n                    // This is the previous market maturity, traded markets are 1-indexed\n                    uint256 shortMarketMaturity =\n                        DateTime.getReferenceTime(blockTime).add(DateTime.getTradedMarket(i));\n                    oracleRate = _interpolateFutureRate(\n                        shortMarketMaturity,\n                        // This is the oracle rate from the previous iteration in the loop,\n                        // refers to the new oracle rate set on the newly initialized market\n                        // that is adjacent to the market currently being initialized.\n                        oracleRate,\n                        // This is the previous version of the current market\n                        previousMarkets[i]\n                    );\n\n                    // Floor an interpolated interest rate at kink rate 1\n                    if (oracleRate < parameters.interestRateParams[i].kinkRate1) {\n                        oracleRate = parameters.interestRateParams[i].kinkRate1;\n                    }\n                }\n\n                // When initializing new markets we need to ensure that the new implied oracle rates align\n                // with the current yield curve or valuations for ifCash will spike. This should reference the\n                // previously calculated implied rate and the current market.\n                uint256 utilization = parameters.interestRateParams[i].getUtilizationFromInterestRate(oracleRate);\n\n                // If the calculated utilization is greater than the leverage threshold then we cannot\n                // provide liquidity without risk of liquidation. In this case, set the leverage threshold\n                // as the new utilization and calculate the oracle rate from it. This will result in fCash valuations\n                // changing on chain, however, adding liquidity via nTokens would also end up with this\n                // result as well.\n                if (utilization > parameters.leverageThresholds[i].toUint()) {\n                    utilization = parameters.leverageThresholds[i].toUint();\n                    oracleRate = parameters.interestRateParams[i].getInterestRate(utilization);\n                    require(oracleRate != 0, \"Oracle rate overflow\");\n                }\n\n                newMarket.totalfCash = _calculatefCashAmountFromUtilization(underlyingCashToMarket, utilization);\n\n                // It's possible that totalfCash is zero from rounding errors above, we want to set this to a minimum value\n                // so that we don't have divide by zero errors.\n                if (newMarket.totalfCash < 1) newMarket.totalfCash = 1;\n\n                newMarket.oracleRate = oracleRate;\n                // The oracle rate has been changed so we set the previous trade time to current\n                newMarket.previousTradeTime = blockTime;\n            }\n\n            // Implied rate will always be set to oracle rate\n            newMarket.lastImpliedRate = newMarket.oracleRate;\n            finalizeMarket(newMarket, currencyId, nToken);\n        }\n\n        // prettier-ignore\n        (\n            /* hasDebt */,\n            /* activeCurrencies */,\n            uint8 assetArrayLength,\n            /* nextSettleTime */\n        ) = nToken.portfolioState.storeAssets(nToken.tokenAddress);\n        BalanceHandler.setBalanceStorageForNToken(\n            nToken.tokenAddress,\n            currencyId,\n            nToken.cashBalance\n        );\n        nTokenHandler.setArrayLengthAndInitializedTime(\n            nToken.tokenAddress,\n            assetArrayLength,\n            nToken.lastInitializedTime\n        );\n\n        emit MarketsInitialized(uint16(currencyId));\n    }\n\n    function finalizeMarket(\n        MarketParameters memory market,\n        uint16 currencyId,\n        nTokenPortfolio memory nToken\n    ) internal {\n        // Always reference the current settlement date\n        uint256 settlementDate = DateTime.getReferenceTime(block.timestamp) + Constants.QUARTER;\n        market.setMarketStorageForInitialize(currencyId, settlementDate);\n\n        BitmapAssetsHandler.addifCashAsset(\n            nToken.tokenAddress,\n            currencyId,\n            market.maturity,\n            nToken.lastInitializedTime,\n            market.totalfCash.neg()\n        );\n    }\n\n    /// @notice Get a list of deployed library addresses (sorted by library name)\n    function getLibInfo() external pure returns (address) {\n        return address(nTokenMintAction);\n    }\n}\n","sourcePath":"contracts/external/actions/InitializeMarketsAction.sol","type":"library","deployment":{"address":"0x7226545a15C6048833644B992cD88393415341dD","chainid":"42161","blockHeight":164624535}}