{"abi":[{"anonymous":false,"inputs":[{"indexed":true,"internalType":"address","name":"vault","type":"address"},{"indexed":true,"internalType":"address","name":"account","type":"address"},{"indexed":true,"internalType":"address","name":"liquidator","type":"address"},{"indexed":false,"internalType":"uint16","name":"currencyId","type":"uint16"},{"indexed":false,"internalType":"int256","name":"fCashDeposit","type":"int256"},{"indexed":false,"internalType":"int256","name":"cashToLiquidator","type":"int256"}],"name":"VaultAccountCashLiquidation","type":"event"},{"anonymous":false,"inputs":[{"indexed":true,"internalType":"address","name":"vault","type":"address"},{"indexed":true,"internalType":"address","name":"account","type":"address"},{"indexed":false,"internalType":"uint16","name":"currencyId","type":"uint16"},{"indexed":false,"internalType":"uint256","name":"vaultSharesToLiquidator","type":"uint256"},{"indexed":false,"internalType":"int256","name":"depositAmountPrimeCash","type":"int256"}],"name":"VaultDeleverageAccount","type":"event"},{"anonymous":false,"inputs":[{"indexed":true,"internalType":"address","name":"vault","type":"address"},{"indexed":true,"internalType":"address","name":"account","type":"address"},{"indexed":true,"internalType":"address","name":"liquidator","type":"address"},{"indexed":false,"internalType":"uint256","name":"vaultSharesToLiquidator","type":"uint256"},{"indexed":false,"internalType":"bool","name":"transferSharesToLiquidator","type":"bool"}],"name":"VaultLiquidatorProfit","type":"event"},{"inputs":[{"internalType":"address","name":"account","type":"address"},{"internalType":"address","name":"vault","type":"address"},{"internalType":"address","name":"liquidator","type":"address"},{"internalType":"uint16","name":"currencyIndex","type":"uint16"},{"internalType":"int256","name":"depositUnderlyingInternal","type":"int256"}],"name":"deleverageAccount","outputs":[{"internalType":"uint256","name":"vaultSharesToLiquidator","type":"uint256"},{"internalType":"int256","name":"depositAmountPrimeCash","type":"int256"}],"stateMutability":"payable","type":"function"},{"inputs":[],"name":"getLibInfo","outputs":[{"internalType":"address","name":"","type":"address"},{"internalType":"address","name":"","type":"address"}],"stateMutability":"pure","type":"function"},{"inputs":[{"internalType":"address","name":"account","type":"address"},{"internalType":"address","name":"vault","type":"address"},{"internalType":"address","name":"liquidator","type":"address"},{"internalType":"uint256","name":"excessCashIndex","type":"uint256"},{"internalType":"uint256","name":"debtIndex","type":"uint256"},{"internalType":"uint256","name":"_depositUnderlyingInternal","type":"uint256"}],"name":"liquidateExcessVaultCash","outputs":[{"internalType":"int256","name":"cashToLiquidator","type":"int256"}],"stateMutability":"payable","type":"function"},{"inputs":[{"internalType":"address","name":"account","type":"address"},{"internalType":"address","name":"vault","type":"address"},{"internalType":"address","name":"liquidator","type":"address"},{"internalType":"uint256","name":"currencyIndex","type":"uint256"},{"internalType":"int256","name":"fCashDeposit","type":"int256"}],"name":"liquidateVaultCashBalance","outputs":[{"internalType":"int256","name":"cashToLiquidator","type":"int256"}],"stateMutability":"nonpayable","type":"function"},{"inputs":[],"name":"owner","outputs":[{"internalType":"address","name":"","type":"address"}],"stateMutability":"view","type":"function"},{"inputs":[],"name":"pauseGuardian","outputs":[{"internalType":"address","name":"","type":"address"}],"stateMutability":"view","type":"function"},{"inputs":[],"name":"pauseRouter","outputs":[{"internalType":"address","name":"","type":"address"}],"stateMutability":"view","type":"function"}],"bytecode":"608060405234801561001057600080fd5b50615f4680620000216000396000f3fe6080604052600436106100705760003560e01c80638da5cb5b1161004e5780638da5cb5b146100d55780639ab77186146100ea578063c4c96dae1461010a578063fcaf198b1461012d57610070565b806321bf8c661461007557806324a3d6221461009e57806382463367146100c0575b600080fd5b6100886100833660046156aa565b61014e565b6040516100959190615bd4565b60405180910390f35b3480156100aa57600080fd5b506100b36103f5565b6040516100959190615aff565b3480156100cc57600080fd5b506100b3610404565b3480156100e157600080fd5b506100b3610413565b3480156100f657600080fd5b50610088610105366004615650565b61042a565b34801561011657600080fd5b5061011f6105b9565b604051610095929190615b13565b61014061013b3660046155e7565b6105e7565b604051610095929190615e3b565b60006002600a54141561016057600080fd5b6002600a556000806101738989896107c5565b50915091506101818261090e565b61018a57600080fd5b60006101958361093d565b60405163b14428b960e01b8152909150600090309063b14428b9906101c0908e908e90600401615b13565b6101806040518083038186803b1580156101d957600080fd5b505afa1580156101ed573d6000803e3d6000fd5b505050506040513d601f19601f8201168201806040525081019061021191906158d9565b505090508060600151886003811061022557fe5b602002015160001261023657600080fd5b60008160600151886003811061024857fe5b60200201511261025757600080fd5b600061026585848b8b61099d565b9050600061027288610aab565b90506102bb6102b060646102aa85608001516102aa8760a001516102a48d6101c0015189610ac590919063ffffffff16565b90610ac5565b90610b19565b604084015190610b4a565b96508683606001518b600381106102ce57fe5b602002015112156103285782606001518a600381106102e957fe5b602002015196506103258260a001516102aa886101c001516102aa60646102a488608001516102a48f8b60400151610b7390919063ffffffff16565b90505b606082015160009061033a9083610b4a565b9050600061034789610b9f565b905061035787898e846000610bad565b61036587898d856000610bad565b6103758e8e86600001518c610d12565b61038b8d85600001518387604001516000610db8565b506103a18f8f86600001518a6020015185610e61565b6103b78d85602001518487606001516000610ef8565b506103c88d8f866020015185610d12565b6103dd8f8f86602001518a6020015186610e61565b50506001600a5550949b9a5050505050505050505050565b6002546001600160a01b031681565b6001546001600160a01b031681565b60005464010000000090046001600160a01b031681565b60006002600a54141561043c57600080fd5b6002600a55600080806104508989896107c5565b925092509250600061046061515c565b6000808961048357505050506040830151610160840151835160808501516104a2565b60038a101561007057610497878b8f610f6e565b929650909450925090505b602086015160405163f82f279d60e01b81526000918291309163f82f279d916104d1918a918890600401615cc0565b604080518083038186803b1580156104e857600080fd5b505afa1580156104fc573d6000803e3d6000fd5b505050506040513d601f19601f82011682018060405250810190610520919061583c565b90925090506105396105328c83611008565b8690610b4a565b9950828a131561054a57819a508299505b5050886000128015610564575061056082610b9f565b8913155b61056d57600080fd5b61057b868c8e878d8d611021565b61058a8786888d8d6000611194565b6105a3878b6105988b610b9f565b899291906000610bad565b50506001600a5550939998505050505050505050565b73__FreeCollateralExternal________________73__SettleAssetsExternal__________________9091565b6000806002600a5414156105fa57600080fd5b6002600a55600361ffff85161061061057600080fd5b60008060006106208a8a8a6107c5565b92509250925061062e61515c565b604051630c74db1f60e41b8152309063c74db1f090610659908b908790899088908e90600401615cdc565b60a060405180830381600087803b15801561067357600080fd5b505af1158015610687573d6000803e3d6000fd5b505050506040513d601f19601f820116820180604052508101906106ab919061585f565b91985096509050600087136106bf57600080fd5b6040840151600161ffff8a1614156106de5750610140840151516106f7565b8861ffff16600214156106f75750610140840151602001515b60006107068261ffff1661126d565b905061071f8b83610717848d611280565b8660006112b8565b9050809750506107388b8e8e8588600001518c8961137a565b61074e8b8e8e896040015188600001518d61145f565b604085015161075d90896114ad565b6040860152602085015164ffffffffff141561078b576107868685878d61ffff168d6001611194565b600096505b61079d858761ffff8d168a6001610bad565b6107ad8b878a88602001516114c2565b5050505050506001600a819055509550959350505050565b6107cd61517d565b6107d5615216565b6107dd615255565b6107e68461152b565b846001600160a01b0316846001600160a01b0316141561080557600080fd5b6001600160a01b03861633141561081b57600080fd5b836001600160a01b0316866001600160a01b0316141561083a57600080fd5b610843856115aa565b9250610851836101006115d5565b1561085b57600080fd5b6108668360206115d5565b1561088557336001600160a01b0386161461088057600080fd5b61089a565b336001600160a01b0385161461089a57600080fd5b6108a486846115ea565b9150816020015142106108d25760405162461bcd60e51b81526004016108c990615c2d565b60405180910390fd5b602082015164ffffffffff14156108f4576108ed8284611699565b9050610905565b6109028383602001516116de565b90505b93509350939050565b6101408101515160009061ffff1615158061093557506101408201516020015161ffff1615155b90505b919050565b61094561527f565b6101408201515161ffff161561096f5761014082015161096c9060005b6020020151611769565b81525b6101408201516020015161ffff161561093857610140820151610993906001610962565b6020820152919050565b6109a56152ac565b826109c55760408086015161ffff168252610160860151908201526109ff565b84610140015160018403600281106109d957fe5b602002015161ffff168152836000198401600281106109f457fe5b602002015160408201525b81610a2257604085015161ffff1660208201526101608501516060820152610a63565b8461014001516001830360028110610a3657fe5b6020908102919091015161ffff169082015283600019830160028110610a5857fe5b602002015160608201525b6000610a76826000015161ffff1661177b565b90506000610a8b836020015161ffff1661177b565b9050610a9782826118de565b6080840152505160a0820152949350505050565b60006001600160ff1b03821115610ac157600080fd5b5090565b818102600019831415610af557811580610ae7575082828281610ae457fe5b05145b610af057600080fd5b610b13565b821580610b0a575081838281610b0757fe5b05145b610b1357600080fd5b92915050565b600081600019148015610b2f5750600160ff1b83145b15610b3957600080fd5b818381610b4257fe5b059392505050565b8151600090610b6c906102aa846ec097ce7bc90715b34b9f1000000000610ac5565b9392505050565b6000610b6c6ec097ce7bc90715b34b9f10000000006102aa856000015185610ac590919063ffffffff16565b600061093560001983610ac5565b6000610bb7611903565b60608701516001600160a01b039081166000908152602083815260408083208a5190941683529290522090915084610c3a576001810154610c1390610c0e90610c09906001600160501b031687611910565b611926565b611935565b6001820180546001600160501b0319166001600160501b0392909216919091179055610cf0565b8460011415610c97576001810154610c6a90610c0e90610c0990600160501b90046001600160501b031687611910565b81600101600a6101000a8154816001600160501b0302191690836001600160501b03160217905550610cf0565b8460021415610070576001810154610cc790610c0e90610c0990600160a01b90046001600160501b031687611910565b8160010160146101000a8154816001600160501b0302191690836001600160501b031602179055505b6000876080018181525050610d0987878386600061194b565b50505050505050565b6000610d1c611bb9565b61ffff8416600090815260209190915260408120546001600160a01b03169150821215610d47579293925b806001600160a01b03166323de66518686610d6186611bc6565b6040518463ffffffff1660e01b8152600401610d7f93929190615b72565b600060405180830381600087803b158015610d9957600080fd5b505af1158015610dad573d6000803e3d6000fd5b505050505050505050565b600083610dc757506000610e58565b60008412610dd457600080fd5b6000610de38661ffff1661126d565b9050610df881610df38688610b73565b611280565b91506000610e0583610b9f565b9050610e12878383611be7565b600382606001516005811115610e2457fe5b1415610e3a57610e35888286611cda565b610e47565b8151610e47908983611da8565b610e548888858589611e1f565b5050505b95945050505050565b80610e6b57610ef1565b6000610e7a858585600b611e66565b90506000806000841215610e9357508690506000610e9a565b5060009050865b6000610ea585611bc6565b9050816001600160a01b0316836001600160a01b0316336001600160a01b0316600080516020615ef18339815191528785604051610ee4929190615e3b565b60405180910390a4505050505b5050505050565b600083610f0757506000610e58565b60008413610f1457600080fd5b6000610f238661ffff1661126d565b90506000610f3a82610f358789610b73565b611e9c565b90506000610f4b89898489896112b8565b90945090508681036000811215610f6157600080fd5b5050505095945050505050565b6000610f7861515c565b6000806000610f868861093d565b9050600080610f968a8985611ed9565b9250925050600080610fac8a8d60000151611f6d565b915091508b610140015160018c0360028110610fc457fe5b602002015198508460018c0360028110610fda57fe5b602002015197508a600114610ff0578281610ff3565b83825b999d989c509a50979850959650505050505050565b6000610b6c6110178484610ac5565b633b9aca00610b19565b606086015160208701516040516351586b3360e01b815260009273__SettleAssetsExternal__________________926351586b339261106e928b928b928b91908b908b90600401615b2d565b60206040518083038186803b15801561108657600080fd5b505af415801561109a573d6000803e3d6000fd5b505050506040513d601f19601f820116820180604052508101906110be919061581c565b9050801561112e57604051636ccc642f60e01b815273__FreeCollateralExternal________________90636ccc642f906110fd908990600401615aff565b60006040518083038186803b15801561111557600080fd5b505af4158015611129573d6000803e3d6000fd5b505050505b856001600160a01b031687606001516001600160a01b0316866001600160a01b03167f19b09f1f990520654bea0360dd08a2678d6926fd849dd49bc385862dc91af75387878760405161118393929190615cc0565b60405180910390a450505050505050565b826111b5576111a68486846000611fc3565b6111b0858761202e565b611265565b60006111c08761093d565b90506000806111fe8988606001518960200151896001146111e25760006111e4565b885b8a6002146111f35760006111f5565b895b886000806120d7565b915091508315610dad57600086600114611218578161121a565b825b90508015806112445750806000038a6101a00151600189036002811061123c57fe5b602002015113155b6112605760405162461bcd60e51b81526004016108c990615c9c565b505050505b505050505050565b6112756152ec565b610935826001612309565b60006305f5e10083604001511415611299575080610b13565b610b6c6305f5e1006102aa856040015185610ac590919063ffffffff16565b60008060006112c686611926565b9050806112da576000809250925050611370565b60006112e98861ffff1661126d565b90506003816060015160058111156112fd57fe5b1415611344573482101561131d576113188983340387611cda565b61133c565b34821461133c5760405162461bcd60e51b81526004016108c990615bdd565b86935061135e565b61135b61135682600001518b856123a3565b610aab565b93505b61136b898986848a611e1f565b925050505b9550959350505050565b61138687868685610d12565b60006113958686866000611e66565b905064ffffffffff8414156114155760006113c06113bb846113b687610b9f565b61252b565b610b9f565b90508060001914156113d0575060005b60006001600160a01b03891633600080516020615ef1833981519152600a86176113f986611926565b604051611407929190615e3b565b60405180910390a450611455565b6001600160a01b038716600033600080516020615ef1833981519152600b851761143e88611926565b60405161144c929190615e3b565b60405180910390a45b5050505050505050565b600061146e8585856009611e66565b9050866001600160a01b0316866001600160a01b0316336001600160a01b0316600080516020615ef18339815191528486604051611183929190615e3b565b6000828211156114bc57600080fd5b50900390565b60006114ce85856115ea565b90508060200151600014806114e65750818160200151145b6115025760405162461bcd60e51b81526004016108c990615c02565b602081018290526040810151611518908461256a565b6040820152610ef181856001600061257c565b6001600160a01b03811661153e57600080fd5b6001600160a01b038116610fee141561155657600080fd5b6001600160a01b0381166105e7141561156e57600080fd5b6001600160a01b03811630141561158457600080fd5b600061158f8261260c565b5050505061ffff169050806000146115a657600080fd5b5050565b6115b261517d565b6115bb82612678565b90506115ca8160400151611769565b610160820152919050565b60209190910151811661ffff90811691161490565b6115f2615216565b60006115fc611903565b6001600160a01b038086166000818152602084815260408083208951909516835293815290839020805464ffffffffff600160a01b8204169288018390526001600160501b03600160501b8204811695890195909552606088019390935260018101548416608088015263ffffffff600160c81b84041660a08801526101608801519495509361168e93909216612866565b835250909392505050565b6116a1615255565b6116d3836116c46113bb8660000151866101600151610b4a90919063ffffffff16565b602086015185929190426128a4565b50610b6c838361296d565b6116e6615255565b60006116f06129e5565b84516001600160a01b031660009081526020828152604080832087845290915290819020858552805460ff600160f01b820416151560608701526001600160501b03600160a01b8204811693870193909352610160880151939450909261175b929091879116612866565b602084015250909392505050565b61177161515c565b61093582426129f2565b611783615313565b600061178d612ab3565b60008481526020829052604081209192508060018614156117ba5750670de0b6b3a764000090508061187d565b825460408051633fabe5a360e21b815290516001600160a01b039092169163feaf968c9160048082019260a092909190829003018186803b1580156117fe57600080fd5b505afa158015611812573d6000803e3d6000fd5b505050506040513d601f19601f8201168201806040525081019061183691906159d6565b509193505060008313915061184c905057600080fd5b825460ff600160a01b82048116600a0a9350600160a81b909104161561187d5761187a816102aa8480610ac5565b90505b8254600160b01b900460ff16609681131561189d5760951901600a026096015b6040805160a081018252938452602084019290925290820152905460ff600160b81b820481166060840152600160c01b909104166080820152915050919050565b6000610b6c82602001516102aa84600001518660200151610ac590919063ffffffff16565b600080610b136016612abc565b81810182811215600083121514610b1357600080fd5b600080821215610ac157600080fd5b60006001600160501b03821115610ac157600080fd5b60808501511561195a57600080fd5b6060840151855161196a90610b9f565b1280156119745750815b156119a8578451158061198c57506001856040015111155b6119a85760405162461bcd60e51b81526004016108c990615c9c565b6119b18461090e565b15611a505760006119c0612ad5565b60608701516001600160a01b03908116600090815260209283526040808220895190931682529183522080549188015190925064ffffffffff90911690811480611a08575080155b611a1157600080fd5b80611a4d578154600160281b90046001600160501b0316158015611a4457508154600160781b90046001600160501b0316155b611a4d57600080fd5b50505b6000611a70610c096113bb87610160015189602001518a60000151612ae2565b90508115611af9576040805160e08101825285546001600160501b038082168352600160501b80830482166020850152600160a01b80840464ffffffffff1695850195909552600160c81b90920463ffffffff16606084015260018801548082166080850152918204811660a084015292900490911660c0820152611af9908790879084612b00565b611b068660400151611935565b84546001600160501b0391909116600160501b0269ffffffffffffffffffff60501b199091161784556020860151611b3d90612fd5565b845464ffffffffff91909116600160a01b0264ffffffffff60a01b1990911617845560a0860151611b6d90612fe9565b845463ffffffff91909116600160c81b0263ffffffff60c81b19909116178455611b9681611935565b84546001600160501b0319166001600160501b0391909116179093555050505050565b600080610b136021612abc565b600080821215611be057611bd982610b9f565b9050610938565b5080610938565b6000611bf1612ffc565b83516001600160a01b0316600090815260208290526040902054909150808311611c1c575050611cd5565b6000611c2786613009565b90506000816001600160a01b031663b5e4da238487036040518263ffffffff1660e01b8152600401611c599190615bd4565b60006040518083038186803b158015611c7157600080fd5b505afa158015611c85573d6000803e3d6000fd5b505050506040513d6000823e601f3d908101601f19168201604052611cad919081019061570e565b90506000611cbb8783613039565b9150611cc99050848261256a565b86111561145557600080fd5b505050565b8015611d6c577382af49447d8a07e3bd95bd0d56f35241523fbab16001600160a01b031663d0e30db0836040518263ffffffff1660e01b81526004016000604051808303818588803b158015611d2f57600080fd5b505af1158015611d43573d6000803e3d6000fd5b5050505050611d677382af49447d8a07e3bd95bd0d56f35241523fbab18484611da8565b611cd5565b6040516001600160a01b0384169083156108fc029084906000818181858888f19350505050158015611da2573d6000803e3d6000fd5b50505050565b826001600160a01b031663a9059cbb83836040518363ffffffff1660e01b815260040180836001600160a01b0316815260200182815260200192505050600060405180830381600087803b158015611dff57600080fd5b505af1158015611e13573d6000803e3d6000fd5b50505050611cd5613250565b600080611e2c84866132bd565b9050611e388382610b4a565b9150611e458787846132ed565b611e5086838361336d565b8351611e5c9086613471565b5095945050505050565b68010000000000000000600160e01b03604085901b1667ffff000000000000603085901b1617600883901b178117949350505050565b60006305f5e10083604001511215611eca57611ec36001611ebd8585611280565b90611910565b9050610b13565b610b6c83610df3846001611910565b600080600080611ee7612ad5565b6001600160a01b038781166000908152602092835260408082208b5190931682529190925290208054865164ffffffffff82169650919250611f3b91908690600160281b90046001600160501b0316612866565b9250611f61856001602002015182548690600160781b90046001600160501b0316612866565b91505093509350939050565b6000806000611f7a611903565b6001600160a01b0395861660009081526020918252604080822096909716815294905250505020600101546001600160501b03600160501b8204811692600160a01b9092041690565b8251602085015114611fdb57835115611fdb57600080fd5b6080840151611fea9082611910565b60808501528351611ffb9083611910565b8085526000121561200b57600080fd5b602083015161201a9083611910565b6020840181905260001215611da257600080fd5b60006120386129e5565b82516001600160a01b03166000908152602082815260408083208751845290915290819020908501519192509061206e90611935565b81546060860151801515600160f01b0260ff60f01b196001600160501b0394909416600160a01b0269ffffffffffffffffffff60a01b199093169290921792909216178255610160840151604085015186516020880151611da2948694938993909290916134c6565b60008060006120e4612ad5565b6001600160a01b03808c166000908152602092835260408082208f519093168252919092529020805490915064ffffffffff1689811480612123575080155b61212c57600080fd5b8651825461214c91908c90600160281b90046001600160501b0316612866565b9350612172876001602002015183548c90600160781b90046001600160501b0316612866565b925088156121fa57612184848a611910565b93506121b38c8c8e610140015160006002811061219d57fe5b60200201518d8d8c60005b60200201518b6135a5565b6121ce610c0e610c096113bb8a600060200201518e89612ae2565b82546001600160501b0391909116600160281b026effffffffffffffffffff0000000000199091161782555b87156122775761220a8389611910565b92506122328c8c8e610140015160016002811061222357fe5b60200201518d8c8c60016121a8565b61224d610c0e610c096113bb8a600160200201518e88612ae2565b82546001600160501b0391909116600160781b0269ffffffffffffffffffff60781b199091161782555b85156122e65783158061229457506101a08c015151600085900312155b6122b05760405162461bcd60e51b81526004016108c990615c78565b8215806122ca57506101a08c015160200151600084900312155b6122e65760405162461bcd60e51b81526004016108c990615c78565b6122fa8285856122f58e612fd5565b613673565b50509850989650505050505050565b6123116152ec565b600061231b6136b1565b6000858152602082815260408083208715158452825291829020825160a08101845281546001600160a01b038116825260ff600160a01b82048116151594830194909452600160b01b81048416600a0a9482019490945293945092916060830191600160a81b90910416600581111561239057fe5b8152600060209091015295945050505050565b600080846001600160a01b03166370a08231306040518263ffffffff1660e01b815260040180826001600160a01b0316815260200191505060206040518083038186803b1580156123f357600080fd5b505afa158015612407573d6000803e3d6000fd5b505050506040513d602081101561241d57600080fd5b5051604080516323b872dd60e01b81526001600160a01b038781166004830152306024830152604482018790529151929350908716916323b872dd9160648082019260009290919082900301818387803b15801561247a57600080fd5b505af115801561248e573d6000803e3d6000fd5b5050505061249a613250565b6000856001600160a01b03166370a08231306040518263ffffffff1660e01b815260040180826001600160a01b0316815260200191505060206040518083038186803b1580156124e957600080fd5b505afa1580156124fd573d6000803e3d6000fd5b505050506040513d602081101561251357600080fd5b5051905061252181836114ad565b9695505050505050565b6000808212156125645761255f600161255985602001516102aa876000015187610ac590919063ffffffff16565b906136be565b610b6c565b50919050565b600082820183811015610b6c57600080fd5b6000612586611903565b60608601516001600160a01b0390811660009081526020838152604080832089519094168352929052209091506125c0868683878761194b565b6001810180546001600160501b03191690819055600160501b90046001600160501b031615801561260357506001810154600160a01b90046001600160501b0316155b61126557600080fd5b60008060008060008061261d6136d4565b6001600160a01b039097166000908152602097909752505060409094205461ffff81169563ffffffff620100008304811696506601000000000000830416945060ff600160501b8304169350600160581b90910460d01b9150565b61268061517d565b600061268a6136e1565b6001600160a01b03841660008181526020838152604091829020928652825461ffff8082169288019290925262010000900416908501529091506126e6612710633b9aca008354600160501b900460ff169190056005026136ee565b6080840152805461270590600160401b900461ffff16620186a06136ee565b60a0840152805461272490600160701b900461ffff16620186a06136ee565b61012084015260028101546127409061ffff16620186a06136ee565b610180840152805460649060ff600160581b90910416633b9aca00020560c08401528054600160601b810460ff90811660e0860152600160681b909104166101008401526040805180820191829052906001830190600290826000855b82829054906101000a900461ffff1661ffff168152602001906002019060208260010104928301926001038202915080841161279d57505050505061014085019190915250600481015460ff166101c0840152805461280990640100000000900463ffffffff16613715565b606084015261283f6003820160005b600891828204019190066004029054906101000a900463ffffffff1663ffffffff16613715565b6101a084015152612854600382016001612818565b6101a084015160200152509092915050565b600064ffffffffff831461288657816001600160501b031660000361289c565b61289c846001600160501b038416600003613723565b949350505050565b60006128b3868686868661376e565b905060006128d360646102aa8960e0015185610ac590919063ffffffff16565b905060006128e183836136be565b90506128f1886040015183613804565b6128ff88604001518261383b565b64ffffffffff851415612937576129378860000151896040015185612932878d610160015161252b90919063ffffffff16565b61387f565b61294b886000015189604001518385613987565b608087015161295a90846136be565b6080909701969096525095945050505050565b612975615255565b602083015164ffffffffff1461298a57600080fd5b6129998264ffffffffff6116de565b90506000836080015112156129db576129db83826129c98660800151866101600151610b7390919063ffffffff16565b6129d68760800151610b9f565b611fc3565b610b13818361202e565b600080610b136015612abc565b6129fa61515c565b6000612a0584613a77565b90508281600001511015612a4457600080612a1f86613b3f565b9050612a2d86848388613bbc565b9093509150612a3d868385613c60565b5050612a51565b80518314612a5157600080fd5b6040518060600160405280612a7a6113568460a001518560c001516136ee90919063ffffffff16565b8152602001612a9d6113568460a001518560e001516136ee90919063ffffffff16565b8152602001826060015181525091505092915050565b600080610b1360105b6000620f4240826026811115612ace57fe5b0192915050565b600080610b13601a612abc565b600064ffffffffff8314612af6578161289c565b61289c8483613e91565b6040805160028082526060820183526000926020830190803683375050604080516002808252606082018352939450600093909250906020830190803683370190505090506000612b6786600001518760400151876040015164ffffffffff166000611e66565b9050600a60ff16811783600081518110612b7d57fe5b602002602001018181525050600960ff16811783600181518110612b9d57fe5b602002602001018181525050866020015160001480612be05750604085015164ffffffffff1615801590612be057508660200151856040015164ffffffffff1614155b15612c825784600001516001600160501b031682600081518110612c0057fe5b60200260200101818152505084602001516001600160501b031682600181518110612c2757fe5b60200260200101818152505060006001600160a01b031687606001516001600160a01b0316336001600160a01b0316600080516020615ed18339815191528686604051612c75929190615baf565b60405180910390a4612e7f565b846040015164ffffffffff1687602001511415612e7f5784516000906001600160501b0316851080612cc4575085602001516001600160501b03168860400151105b90508015612d945785516001600160501b03168510612ce4576000612cf3565b85516001600160501b03168590035b83600081518110612d0057fe5b602002602001018181525050612d30886040015187602001516001600160501b03166114ad90919063ffffffff16565b83600181518110612d3d57fe5b60200260200101818152505060006001600160a01b031688606001516001600160a01b0316336001600160a01b0316600080516020615ed18339815191528787604051612d8b929190615baf565b60405180910390a45b801580612daa575085516001600160501b031685115b15612e7d578551612dc59086906001600160501b03166114ad565b83600081518110612dd257fe5b602002602001018181525050876040015186602001516001600160501b031610612dfd576000612e19565b60208601516040890151612e19916001600160501b03166114ad565b83600181518110612e2657fe5b60200260200101818152505087606001516001600160a01b031660006001600160a01b0316336001600160a01b0316600080516020615ed18339815191528787604051612e74929190615baf565b60405180910390a45b505b602087015115801590612ea157508660200151856040015164ffffffffff1614155b15612f87576000612ec1876000015188604001518a602001516000611e66565b9050600a60ff16811784600081518110612ed757fe5b602002602001018181525050600960ff16811784600181518110612ef757fe5b6020026020010181815250508483600081518110612f1157fe5b602002602001018181525050876040015183600181518110612f2f57fe5b60200260200101818152505087606001516001600160a01b031660006001600160a01b0316336001600160a01b0316600080516020615ed18339815191528787604051612f7d929190615baf565b60405180910390a4505b60808501516001600160501b031615610d0957606087015160808601516040516000926001600160a01b0316913391600080516020615ef18339815191529161118391600b88179190615e5f565b600064ffffffffff821115610ac157600080fd5b600063ffffffff821115610ac157600080fd5b600080610b136026612abc565b600080613014613eed565b61ffff939093166000908152602093909352505060409020546001600160a01b031690565b60008060005b835181101561324857600084828151811061305657fe5b60200260200101519050600081606001516001600160a01b03166370a08231306040518263ffffffff1660e01b81526004016130929190615aff565b60206040518083038186803b1580156130aa57600080fd5b505afa1580156130be573d6000803e3d6000fd5b505050506040513d601f19601f820116820180604052508101906130e291906159be565b905060006130f08830613efa565b905060005b83515181101561314c5761313b8460000151828151811061311257fe5b602002602001015160008660200151848151811061312c57fe5b60200260200101516001613fa4565b61314457600196505b6001016130f5565b5060006131598930613efa565b9050600061316782846114ad565b9050808560400151111561317a57600080fd5b60608501516040516370a0823160e01b81526000916001600160a01b0316906370a08231906131ad903090600401615aff565b60206040518083038186803b1580156131c557600080fd5b505afa1580156131d9573d6000803e3d6000fd5b505050506040513d601f19601f820116820180604052508101906131fd91906159be565b90508481111561320c57600080fd5b61321b86606001518683614212565b613225888361256a565b97506132368b600001518585614212565b50506001909401935061303f92505050565b509250929050565b600061325a615342565b3d801561326e576020811461327757600080fd5b60019250613282565b60206000833e815192505b50816115a6576040805162461bcd60e51b8152602060048201526005602482015264045524332360dc1b604482015290519081900360640190fd5b60006305f5e100836040015114156132d6575080610b13565b6040830151610b6c906102aa846305f5e100610ac5565b60006132f7611bb9565b61ffff8416600090815260209190915260409081902054905163ad1c095d60e01b81526001600160a01b039091169150819063ad1c095d9061333f9087908690600401615b96565b600060405180830381600087803b15801561335957600080fd5b505af1158015611455573d6000803e3d6000fd5b600061337761428f565b61ffff8516600090815260209190915260409020805490915064ffffffffff1642146133a257600080fd5b80546000906133c190600160281b90046001600160581b031685611910565b82549091506000906133e390600160801b90046001600160581b031685611910565b905080624c4b4013156133f557600080fd5b61340661340182611926565b61429c565b83546001600160581b0391909116600160801b026affffffffffffffffffffff60801b1990911617835561343c61340183611926565b83546001600160581b0391909116600160281b026fffffffffffffffffffffff000000000019909116178355611265836142b2565b600061347b612ffc565b6001600160a01b0384166000908152602082905260409020549091506134a4610c098285611910565b6001600160a01b03909416600090815260209290925250604090209190915550565b86546001600160501b03166000908103906134e2888686612ae2565b90506134f3610c0e610c0983610b9f565b89546001600160501b0319166001600160501b0391909116178955600061351a8383614377565b9050600064ffffffffff87141561354157885161353a908b908a856143fe565b5084613578565b84613578578851613555908989878761442b565b885161356a908961356585610b9f565b6144eb565b613575898b8a6145c1565b90505b600082138015613586575084155b15613598578851613598908983614667565b5050505050505050505050565b60006135af6146e3565b88516001600160a01b0316600090815260209182526040808220888352835280822061ffff8a16835290925290812080549092506135f990859088906001600160501b0316612866565b90506136058186611910565b905061361782858b8a8a8660006134c6565b6000808613801561362c575064ffffffffff87145b1561364e576136476113bb86896136428a610b9f565b612ae2565b905061365c565b613659858888612ae2565b90505b831561126057611260898b600001518a8a856146f0565b8215801561367f575081155b1561369557835464ffffffffff19168455611da2565b835464ffffffffff191664ffffffffff91909116179092555050565b600080610b136007612abc565b80820382811315600083121514610b1357600080fd5b600080610b136002612abc565b600080610b136014612abc565b6000826136fd57506000610b13565b8282028284828161370a57fe5b0414610b6c57600080fd5b600881901c60ff9091161b90565b60006001821261373257600080fd5b8161373f57506000610b13565b610b6c60016125596ec097ce7bc90715b34b9f10000000006102aa876020015187610ac590919063ffffffff16565b60008064ffffffffff8414156137c057602086015164ffffffffff14613798576000915050610e58565b6137b26113568760a00151856114ad90919063ffffffff16565b60a0870184905290506137d0565b6137cd61135685856114ad565b90505b60808701516000906137ec906301da9c00906102aa9085610ac5565b90506137f88682611008565b98975050505050505050565b600081121561381257600080fd5b6000613820610fee84614752565b905061382c8183611910565b9050611cd5610fee84836147ab565b600081121561384957600080fd5b60006138588361ffff1661481f565b905060006138668285614752565b90506138728184611910565b9050611da28285836147ab565b6000613889611bb9565b61ffff8516600090815260209190915260408120546001600160a01b031691506138b1614845565b61ffff8616600090815260209190915260409081902054905163ad1c095d60e01b81526001600160a01b039091169150819063ad1c095d906138f99089908790600401615b96565b600060405180830381600087803b15801561391357600080fd5b505af1158015613927573d6000803e3d6000fd5b505060405163ad1c095d60e01b81526001600160a01b038516925063ad1c095d91506139599089908890600401615b96565b600060405180830381600087803b15801561397357600080fd5b505af1158015611260573d6000803e3d6000fd5b6000613991611bb9565b61ffff8516600090815260209190915260408120546001600160a01b031691506139b9614852565b61ffff8616600090815260209190915260409020546001600160a01b03908116915082166323de665187610fee6139ef87611926565b6040518463ffffffff1660e01b8152600401613a0d93929190615b72565b600060405180830381600087803b158015613a2757600080fd5b505af1158015613a3b573d6000803e3d6000fd5b50505050816001600160a01b03166323de66518783613a5988611926565b6040518463ffffffff1660e01b815260040161395993929190615b72565b613a7f615360565b6000613a8961428f565b61ffff93841660009081526020918252604090819020805464ffffffffff81168652600160281b81046001600160581b03908116948701949094526001820154841692860192909252600160d81b820463ffffffff166060860152600160801b9091049091166080840152600201546001600160501b0380821660a0850152600160501b8204811660c0850152600160a01b82041660e0840152600160f01b900460ff1661012c02909216610100820152919050565b600080613b4b83613009565b6001600160a01b031663ef81f2166040518163ffffffff1660e01b81526004016040805180830381600087803b158015613b8457600080fd5b505af1158015613b98573d6000803e3d6000fd5b505050506040513d601f19601f8201168201806040525081019061289c919061583c565b613bc4615360565b6000806000613bd488868961485f565b60c08b019290925260e08a019290925260208901519193509150613bf8908361256a565b6020880152608087015160009015613c26576080880151613c2390613c1d89826114ad565b90614970565b90505b613c46613c3b670de0b6b3a76400008361256a565b60a08a01519061498d565b60a089015250506080860194909452505082529092909150565b6000613c6a61428f565b60008561ffff1681526020019081526020016000209050613c8e8260000151612fd5565b815464ffffffffff191664ffffffffff9190911617815560a0820151613cb390611935565b6002820180546001600160501b0319166001600160501b039290921691909117905560c0820151613ce390611935565b81600201600a6101000a8154816001600160501b0302191690836001600160501b03160217905550613d188260e00151611935565b8160020160146101000a8154816001600160501b0302191690836001600160501b03160217905550613d4d826020015161429c565b81546001600160581b0391909116600160281b026fffffffffffffffffffffff0000000000199091161781556040820151613d879061429c565b6001820180546affffffffffffffffffffff19166001600160581b03929092169190911790556080820151613dbb9061429c565b81546001600160581b0391909116600160801b026affffffffffffffffffffff60801b199091161781556060820151613df390612fe9565b815463ffffffff91909116600160d81b0263ffffffff60d81b199091161781558215613e3f576000613e2484610aab565b9050613e308582613804565b613e3d610fee86836132ed565b505b8361ffff167fef25641e225e493886510ca1ad6584fa7b442b9fea820a29d1de3ce27d270fd28360a001518460c001518560e00151604051613e8393929190615e49565b60405180910390a250505050565b600081600013158015613ea45750600a82125b15613eb157506000610b13565b60008212613ebe57600080fd5b610b6c600161255985602001516102aa6ec097ce7bc90715b34b9f100000000087610ac590919063ffffffff16565b600080610b13601f612abc565b6000600383606001516005811115613f0e57fe5b1415613f2557506001600160a01b03811631610b13565b82516040516370a0823160e01b81526001600160a01b03909116906370a0823190613f54908590600401615aff565b60206040518083038186803b158015613f6c57600080fd5b505afa158015613f80573d6000803e3d6000fd5b505050506040513d601f19601f82011682018060405250810190611ec391906159be565b6000806000866001600160a01b031686866040518082805190602001908083835b60208310613fe45780518252601f199092019160209182019101613fc5565b6001836020036101000a03801982511681845116808217855250505050505090500191505060006040518083038185875af1925050503d8060008114614046576040519150601f19603f3d011682016040523d82523d6000602084013e61404b565b606091505b5091509150836140ee578161405f826149aa565b906140e85760405162461bcd60e51b81526004018080602001828103825283818151815260200191508051906020019080838360005b838110156140ad578181015183820152602001614095565b50505050905090810190601f1680156140da5780820380516001836020036101000a031916815260200191505b509250505060405180910390fd5b50611e5c565b866001600160a01b03167f3c7e398c5e91088cae639370e35b25ea669d81fbdf0def5388e73661bc34e08e8787614124856149aa565b604051808481526020018060200180602001838103835285818151815260200191508051906020019080838360005b8381101561416b578181015183820152602001614153565b50505050905090810190601f1680156141985780820380516001836020036101000a031916815260200191505b50838103825284518152845160209182019186019080838360005b838110156141cb5781810151838201526020016141b3565b50505050905090810190601f1680156141f85780820380516001836020036101000a031916815260200191505b509550505050505060405180910390a25095945050505050565b600061421c612ffc565b6001600160a01b0385166000908152602082905260409020549091508381111561424557600080fd5b600061425c61425386610aab565b61255986610aab565b905061426b610c098383611910565b6001600160a01b039096166000908152602093909352505060409020929092555050565b600080610b13601d612abc565b60006001600160581b03821115610ac157600080fd5b805460028201546000916142ee91600160281b9091046001600160581b0316906102a4906001600160501b03600160501b820481169116610ac5565b60018301546002840154919250600091614328916001600160581b0316906102a4906001600160501b03600160a01b820481169116610ac5565b835490915060009061435f9060016001600160581b03600160801b909204821601166ec097ce7bc90715b34b9f1000000000610ac5565b90508061436c84846136be565b1315611da257600080fd5b600081831480614394575060008312158015614394575060008212155b156143a157506000610b13565b600083131580156143b25750816000125b156143be575081610b13565b600082131580156143cf5750826000125b156143dd57611ec382610b9f565b600083131580156143ef575060008213155b1561007057611ec383836136be565b8015611da2578351602085015160009161441d916102aa908590610ac5565b9050610ef184848484614ab1565b60006144378383614377565b9050806144445750610ef1565b600061444e614bee565b61ffff87166000908152602082815260408083208984529091528120549192506001600160501b0390911681039061448682856136be565b9050600081131561449657600080fd5b6144a5610c0e610c0983610b9f565b61ffff89166000908152602085815260408083208b8452909152902080546001600160501b0319166001600160501b0392909216919091179055610dad89898987614bfb565b60006144f5614c61565b6001600160a01b03851660009081526020918252604080822061ffff87168352909252908120805490925061453a90600160501b90046001600160501b0316846136be565b9050614548610c0e82611926565b82546001600160501b0391909116600160501b0269ffffffffffffffffffff60501b1990911617825560405161ffff8516906001600160a01b038716907f20478ef460e49d010960d4f3fff35d8dae385443abfac09035d6a2ccbcd834c4906145b2908590615bd4565b60405180910390a35050505050565b600080846040015161ffff168361ffff16141561460d576145e06129e5565b85516001600160a01b031660009081526020918252604080822064ffffffffff835290925220905061464a565b6146156146e3565b85516001600160a01b031660009081526020918252604080822064ffffffffff8352835280822061ffff871683529092522090505b8054610e5890859064ffffffffff906001600160501b0316612866565b6000614671614c61565b6001600160a01b03851660009081526020918252604080822061ffff8716835290925290812080549092506146b690600160501b90046001600160501b0316846136be565b82549091506001600160501b0316811315610ef15760405162461bcd60e51b81526004016108c990615c52565b600080610b136018612abc565b806146fa57610ef1565b6000808061470b878787600a611e66565b90506000841315614722578792506000915061472a565b600092508791505b6001600160a01b0380831690841633600080516020615ef18339815191528461143e89611bc6565b60008061475d614c6e565b6001600160a01b03851660009081526020828152604080832061ffff8816845290915281208054600160a81b9004600a90810b900b94509192508312156147a357600080fd5b505092915050565b60008112156147b957600080fd5b60006147c3614c6e565b6001600160a01b03851660009081526020828152604080832061ffff8816845290915290209091506147f483614c7b565b8154600a9190910b6001600160581b0316600160a81b026001600160a81b0390911617905550505050565b60008061482a614852565b6000938452602052505060409020546001600160a01b031690565b600080610b136022612abc565b600080610b136003612abc565b6000806000806000806148728988614cad565b895190955091935091506000906148999061488e908b906114ad565b633b9aca00906136ee565b90506148d36148c86301da9c006148b085856136ee565b816148b757fe5b670de0b6b3a764000091900461256a565b60e08a01519061498d565b96506148f56148ea6301da9c006148b087856136ee565b60c08a01519061498d565b95508183141561490c575060009350614967915050565b600061492e6149236301da9c006148b087866136ee565b60e08b01519061498d565b9050600061493c89836114ad565b905061495f88614959838d604001516136ee90919063ffffffff16565b90614d48565b965050505050505b93509350935093565b6000610b6c61498784670de0b6b3a76400006136ee565b83614d48565b6000610b6c61499c84846136ee565b670de0b6b3a7640000614d48565b60606044825110156149e0575060408051808201909152600d81526c14da5b195b9d0814995d995c9d609a1b6020820152610938565b60048201805190926024019060208110156149fa57600080fd5b8101908080516040519392919084640100000000821115614a1a57600080fd5b908301906020820185811115614a2f57600080fd5b8251640100000000811182820188101715614a4957600080fd5b82525081516020918201929091019080838360005b83811015614a76578181015183820152602001614a5e565b50505050905090810190601f168015614aa35780820380516001836020036101000a031916815260200191505b506040525050509050919050565b6000614abb61428f565b61ffff8516600090815260209190915260409020805490915064ffffffffff164214614ae657600080fd5b8054600160f81b900460ff16614afb57600080fd5b6001810154600090614b16906001600160581b031685611910565b8254909150600090614b3890600160281b90046001600160581b031685611910565b905081600919128015614b4b5750600082125b15614b5557600091505b80600919128015614b665750600081125b15614b6f575060005b614b7b61340183611926565b6001840180546affffffffffffffffffffff19166001600160581b0392909216919091179055614bad61340182611926565b83546001600160581b0391909116600160281b026fffffffffffffffffffffff000000000019909116178355614be58787868861387f565b610d09836142b2565b600080610b136020612abc565b600080614c09858585614d67565b915091506000806000851215614c2157879150614c24565b50865b806001600160a01b0316826001600160a01b0316336001600160a01b0316600080516020615ed1833981519152878760405161144c929190615baf565b600080610b136017612abc565b600080610b136006612abc565b60006a7fffffffffffffffffffff198212801590614ca457506a7fffffffffffffffffffff8213155b610ac157600080fd5b600080600080600085602001511115614cfa57614cf7614cde8660c0015187602001516136ee90919063ffffffff16565b60e08701516040880151614cf1916136ee565b90614e4c565b90505b6000614d0587614e5f565b9050614d118183614e92565b94508115614d2857614d2581866001614f4b565b93505b602086015115614d3f57614d3c8583614fc5565b92505b50509250925092565b6000808211614d5657600080fd5b818381614d5f57fe5b049392505050565b604080516002808252606082810190935282916000918160200160208202803683370190505090506000614d9b8787614fde565b90508082600081518110614dab57fe5b602002602001018181525050600160401b811782600181518110614dcb57fe5b602090810291909101015260408051600280825260608201909252600091816020016020820280368337019050509050614e0486611bc6565b81600081518110614e1157fe5b602002602001018181525050614e2686611bc6565b81600181518110614e3357fe5b6020908102919091010152919791965090945050505050565b6000610b6c61498784633b9aca006136ee565b614e676153ac565b6000614e71614ffc565b61ffff8416600090815260209190915260408120549150610b6c9082615009565b600080836080015111614ea457600080fd5b633b9aca00821115614eb557600080fd5b82518211614ed45782516040840151611ec391906149599085906136ee565b82602001518211614f12576040830151835160208501516060860151611ec39392614f0c9281900391614959918803908590036136ee565b9061256a565b610b6c8360600151614f0c8560200151633b9aca00036149598760600151886080015103886020015188036136ee90919063ffffffff16565b600080614f6a60646149598760e00151876136ee90919063ffffffff16565b90508460a00151811015614f7f575060a08401515b8460c00151811115614f92575060c08401515b8215614fa957614fa2848261256a565b9150614fbd565b838111614fb857808403610e58565b600091505b509392505050565b6000610b6c614fd484846136ee565b633b9aca00614d48565b67ffff000000000000603083901b16600882901b1760011792915050565b600080610b13601b612abc565b6150116153ac565b6064633b9aca008360ff86166020811061502757fe5b1a028161503057fe5b0481526064633b9aca008360ff86166001016020811061504c57fe5b1a028161505557fe5b0481602001818152505061507a8260028560ff16016020811061507457fe5b1a615128565b60808201819052610100908360ff86166003016020811061509757fe5b1a02816150a057fe5b0460408201526080810151610100908360ff8616600401602081106150c157fe5b1a02816150ca57fe5b0460608201526207a1208260ff8516600501602081106150e657fe5b1a0260a0820152622625a08260ff85166006016020811061510357fe5b1a0260c08201528160ff84166007016020811061511c57fe5b1a60e082015292915050565b60008160ff166096106151435760ff8216622625a002610935565b5060951960ff919091160162e4e1c00263165a0bc00190565b60405180606001604052806000815260200160008152602001600081525090565b604051806101e0016040528060006001600160a01b03168152602001600061ffff168152602001600061ffff168152602001600081526020016000815260200160008152602001600081526020016000815260200160008152602001600081526020016151e86153f1565b81526020016151f561515c565b8152602001600081526020016152096153f1565b8152602001600081525090565b6040518060c0016040528060008152602001600081526020016000815260200160006001600160a01b0316815260200160008152602001600081525090565b60405180608001604052806000815260200160008152602001600081526020016000151581525090565b60405180604001604052806002905b61529661515c565b81526020019060019003908161528e5790505090565b6040805160c081018252600080825260208201529081016152cb61515c565b81526020016152d861515c565b815260200160008152602001600081525090565b6040805160a081018252600080825260208201819052918101829052906060820190615209565b6040518060a0016040528060008152602001600081526020016000815260200160008152602001600081525090565b60405180602001604052806001906020820280368337509192915050565b6040518061012001604052806000815260200160008152602001600081526020016000815260200160008152602001600081526020016000815260200160008152602001600081525090565b60405180610100016040528060008152602001600081526020016000815260200160008152602001600081526020016000815260200160008152602001600081525090565b60405180604001604052806002906020820280368337509192915050565b805161093881615eb8565b600082601f83011261542a578081fd5b8151602061543f61543a83615e9a565b615e76565b828152818101908583018385028701840188101561545b578586fd5b855b8581101561548257815161547081615eb8565b8452928401929084019060010161545d565b5090979650505050505050565b6000601f83818401126154a0578182fd5b825160206154b061543a83615e9a565b82815281810190868301865b8581101561555557815189018a603f8201126154d6578889fd5b8581015167ffffffffffffffff8111156154ec57fe5b6154fd818a01601f19168801615e76565b81815260408d81848601011115615512578b8cfd5b8b5b8381101561552f578481018201518382018b01528901615514565b8381111561553f578c8a85850101525b50508652505092840192908401906001016154bc565b509098975050505050505050565b600082601f830112615573578081fd5b6040516060810181811067ffffffffffffffff8211171561559057fe5b6040528083606081018610156155a4578384fd5b835b60038110156155c55781518352602092830192909101906001016155a6565b509195945050505050565b80516001600160501b038116811461093857600080fd5b600080600080600060a086880312156155fe578081fd5b853561560981615eb8565b9450602086013561561981615eb8565b9350604086013561562981615eb8565b9250606086013561ffff8116811461563f578182fd5b949793965091946080013592915050565b600080600080600060a08688031215615667578283fd5b853561567281615eb8565b9450602086013561568281615eb8565b9350604086013561569281615eb8565b94979396509394606081013594506080013592915050565b60008060008060008060c087890312156156c2578384fd5b86356156cd81615eb8565b955060208701356156dd81615eb8565b945060408701356156ed81615eb8565b959894975094956060810135955060808101359460a0909101359350915050565b60006020808385031215615720578182fd5b825167ffffffffffffffff80821115615737578384fd5b818501915085601f83011261574a578384fd5b815161575861543a82615e9a565b81815284810190848601875b8481101561580d57815187016080818d03601f1901121561578357898afd5b60408051608081018181108a8211171561579957fe5b8252828b0151898111156157ab578c8dfd5b6157b98f8d8387010161541a565b82525081830151898111156157cc578c8dfd5b6157da8f8d8387010161548f565b8c830152506060830151828201526157f46080840161540f565b6060820152865250509287019290870190600101615764565b50909998505050505050505050565b60006020828403121561582d578081fd5b81518015158114610b6c578182fd5b6000806040838503121561584e578182fd5b505080516020909101519092909150565b600080600083850360a0811215615874578182fd5b84519350602085015192506060603f1982011215615890578182fd5b506040516060810181811067ffffffffffffffff821117156158ae57fe5b8060405250604085015181526060850151602082015260808501516040820152809150509250925092565b6000806000838503610180808212156158f0578283fd5b60c08212156158fd578283fd5b60405191506080820182811067ffffffffffffffff8211171561591c57fe5b80604052508551825260208087015181840152604087015160408401526159468860608901615563565b606084015282955061595b8860c08901615563565b94508761013f88011261596c578384fd5b6159766060615e76565b925082610120880189848a01111561598c578586fd5b8593505b60038410156159af578051855293820193600193909301928201615990565b50809450505050509250925092565b6000602082840312156159cf578081fd5b5051919050565b600080600080600060a086880312156159ed578283fd5b6159f6866155d0565b9450602086015193506040860151925060608601519150615a19608087016155d0565b90509295509295909350565b6001600160a01b03169052565b8060005b6002811015611da2578151845260209384019390910190600101615a36565b8060005b6002811015611da257815161ffff16845260209384019390910190600101615a59565b6000815180845260208085019450808401835b83811015615aab57815187529582019590820190600101615a8f565b509495945050505050565b8051825260208082015190830152604090810151910152565b8051825260208101516020830152604081015160408301526060810151151560608301525050565b61ffff169052565b6001600160a01b0391909116815260200190565b6001600160a01b0392831681529116602082015260400190565b6001600160a01b039788168152958716602087015293909516604085015261ffff919091166060840152608083015260a082019290925260c081019190915260e00190565b6001600160a01b039384168152919092166020820152604081019190915260600190565b6001600160a01b03929092168252602082015260400190565b600060408252615bc26040830185615a7c565b8281036020840152610e588185615a7c565b90815260200190565b6020808252600b908201526a4554482042616c616e636560a81b604082015260600190565b60208082526011908201527009ac2e8eae4d2e8f2409ad2e6dac2e8c6d607b1b604082015260600190565b6020808252600b908201526a4d75737420536574746c6560a81b604082015260600190565b6020808252600c908201526b4d617820436170616369747960a01b604082015260600190565b6020808252600a90820152696d696e20626f72726f7760b01b604082015260600190565b6020808252600a90820152694d696e20426f72726f7760b01b604082015260600190565b61ffff9390931683526020830191909152604082015260600190565b60006103e08201905061ffff8716825285516020830152602086015160408301526040860151606083015260018060a01b036060870151166080830152608086015160a083015260a086015160c0830152615d3b60e083018651615a25565b6020850151610100615d4f81850183615af7565b60408701519150610120615d6581860184615af7565b60608801519250610140838187015260808901519350610160848188015260a08a01519450610180858189015260c08b015195506101a086818a015260e08c015196506101c087818b0152868d01516101e08b0152858d01516102008b0152848d01519750615dd86102208b0189615a55565b838d01519750615dec6102608b0189615ab6565b828d01516102c08b0152818d01519750615e0a6102e08b0189615a32565b808d01516103208b01525050505050505050615e2a610340830185615acf565b826103c08301529695505050505050565b918252602082015260400190565b9283526020830191909152604082015260600190565b9182526001600160501b0316602082015260400190565b60405181810167ffffffffffffffff81118282101715615e9257fe5b604052919050565b600067ffffffffffffffff821115615eae57fe5b5060209081020190565b6001600160a01b0381168114615ecd57600080fd5b5056fe4a39dc06d4c0dbc64b70af90fd698a233a518aa5d07e595d983b8c0526c8f7fbc3d58168c5ae7397731d063d5bbf3d657854427343f4c083240f7aacaa2d0f62a26469706673582212207d16c61411e668d665b0580163aca0fc38252af75c8dc230ad1dabcaa0e3779b64736f6c63430007060033","bytecodeSha1":"40f9bc9a751690fe6b58dec00f2d8ccf5c27b9d4","compiler":{"evm_version":"istanbul","optimizer":{"enabled":true,"runs":200},"version":"0.7.6+commit.7338295f"},"contractName":"VaultLiquidationAction","deployedBytecode":"6080604052600436106100705760003560e01c80638da5cb5b1161004e5780638da5cb5b146100d55780639ab77186146100ea578063c4c96dae1461010a578063fcaf198b1461012d57610070565b806321bf8c661461007557806324a3d6221461009e57806382463367146100c0575b600080fd5b6100886100833660046156aa565b61014e565b6040516100959190615bd4565b60405180910390f35b3480156100aa57600080fd5b506100b36103f5565b6040516100959190615aff565b3480156100cc57600080fd5b506100b3610404565b3480156100e157600080fd5b506100b3610413565b3480156100f657600080fd5b50610088610105366004615650565b61042a565b34801561011657600080fd5b5061011f6105b9565b604051610095929190615b13565b61014061013b3660046155e7565b6105e7565b604051610095929190615e3b565b60006002600a54141561016057600080fd5b6002600a556000806101738989896107c5565b50915091506101818261090e565b61018a57600080fd5b60006101958361093d565b60405163b14428b960e01b8152909150600090309063b14428b9906101c0908e908e90600401615b13565b6101806040518083038186803b1580156101d957600080fd5b505afa1580156101ed573d6000803e3d6000fd5b505050506040513d601f19601f8201168201806040525081019061021191906158d9565b505090508060600151886003811061022557fe5b602002015160001261023657600080fd5b60008160600151886003811061024857fe5b60200201511261025757600080fd5b600061026585848b8b61099d565b9050600061027288610aab565b90506102bb6102b060646102aa85608001516102aa8760a001516102a48d6101c0015189610ac590919063ffffffff16565b90610ac5565b90610b19565b604084015190610b4a565b96508683606001518b600381106102ce57fe5b602002015112156103285782606001518a600381106102e957fe5b602002015196506103258260a001516102aa886101c001516102aa60646102a488608001516102a48f8b60400151610b7390919063ffffffff16565b90505b606082015160009061033a9083610b4a565b9050600061034789610b9f565b905061035787898e846000610bad565b61036587898d856000610bad565b6103758e8e86600001518c610d12565b61038b8d85600001518387604001516000610db8565b506103a18f8f86600001518a6020015185610e61565b6103b78d85602001518487606001516000610ef8565b506103c88d8f866020015185610d12565b6103dd8f8f86602001518a6020015186610e61565b50506001600a5550949b9a5050505050505050505050565b6002546001600160a01b031681565b6001546001600160a01b031681565b60005464010000000090046001600160a01b031681565b60006002600a54141561043c57600080fd5b6002600a55600080806104508989896107c5565b925092509250600061046061515c565b6000808961048357505050506040830151610160840151835160808501516104a2565b60038a101561007057610497878b8f610f6e565b929650909450925090505b602086015160405163f82f279d60e01b81526000918291309163f82f279d916104d1918a918890600401615cc0565b604080518083038186803b1580156104e857600080fd5b505afa1580156104fc573d6000803e3d6000fd5b505050506040513d601f19601f82011682018060405250810190610520919061583c565b90925090506105396105328c83611008565b8690610b4a565b9950828a131561054a57819a508299505b5050886000128015610564575061056082610b9f565b8913155b61056d57600080fd5b61057b868c8e878d8d611021565b61058a8786888d8d6000611194565b6105a3878b6105988b610b9f565b899291906000610bad565b50506001600a5550939998505050505050505050565b73__$841fddfe32830bb6dbc3a02d7f16c53722$__73__$f6541b0d362a0c7d99a2a29cd3d373d61b$__9091565b6000806002600a5414156105fa57600080fd5b6002600a55600361ffff85161061061057600080fd5b60008060006106208a8a8a6107c5565b92509250925061062e61515c565b604051630c74db1f60e41b8152309063c74db1f090610659908b908790899088908e90600401615cdc565b60a060405180830381600087803b15801561067357600080fd5b505af1158015610687573d6000803e3d6000fd5b505050506040513d601f19601f820116820180604052508101906106ab919061585f565b91985096509050600087136106bf57600080fd5b6040840151600161ffff8a1614156106de5750610140840151516106f7565b8861ffff16600214156106f75750610140840151602001515b60006107068261ffff1661126d565b905061071f8b83610717848d611280565b8660006112b8565b9050809750506107388b8e8e8588600001518c8961137a565b61074e8b8e8e896040015188600001518d61145f565b604085015161075d90896114ad565b6040860152602085015164ffffffffff141561078b576107868685878d61ffff168d6001611194565b600096505b61079d858761ffff8d168a6001610bad565b6107ad8b878a88602001516114c2565b5050505050506001600a819055509550959350505050565b6107cd61517d565b6107d5615216565b6107dd615255565b6107e68461152b565b846001600160a01b0316846001600160a01b0316141561080557600080fd5b6001600160a01b03861633141561081b57600080fd5b836001600160a01b0316866001600160a01b0316141561083a57600080fd5b610843856115aa565b9250610851836101006115d5565b1561085b57600080fd5b6108668360206115d5565b1561088557336001600160a01b0386161461088057600080fd5b61089a565b336001600160a01b0385161461089a57600080fd5b6108a486846115ea565b9150816020015142106108d25760405162461bcd60e51b81526004016108c990615c2d565b60405180910390fd5b602082015164ffffffffff14156108f4576108ed8284611699565b9050610905565b6109028383602001516116de565b90505b93509350939050565b6101408101515160009061ffff1615158061093557506101408201516020015161ffff1615155b90505b919050565b61094561527f565b6101408201515161ffff161561096f5761014082015161096c9060005b6020020151611769565b81525b6101408201516020015161ffff161561093857610140820151610993906001610962565b6020820152919050565b6109a56152ac565b826109c55760408086015161ffff168252610160860151908201526109ff565b84610140015160018403600281106109d957fe5b602002015161ffff168152836000198401600281106109f457fe5b602002015160408201525b81610a2257604085015161ffff1660208201526101608501516060820152610a63565b8461014001516001830360028110610a3657fe5b6020908102919091015161ffff169082015283600019830160028110610a5857fe5b602002015160608201525b6000610a76826000015161ffff1661177b565b90506000610a8b836020015161ffff1661177b565b9050610a9782826118de565b6080840152505160a0820152949350505050565b60006001600160ff1b03821115610ac157600080fd5b5090565b818102600019831415610af557811580610ae7575082828281610ae457fe5b05145b610af057600080fd5b610b13565b821580610b0a575081838281610b0757fe5b05145b610b1357600080fd5b92915050565b600081600019148015610b2f5750600160ff1b83145b15610b3957600080fd5b818381610b4257fe5b059392505050565b8151600090610b6c906102aa846ec097ce7bc90715b34b9f1000000000610ac5565b9392505050565b6000610b6c6ec097ce7bc90715b34b9f10000000006102aa856000015185610ac590919063ffffffff16565b600061093560001983610ac5565b6000610bb7611903565b60608701516001600160a01b039081166000908152602083815260408083208a5190941683529290522090915084610c3a576001810154610c1390610c0e90610c09906001600160501b031687611910565b611926565b611935565b6001820180546001600160501b0319166001600160501b0392909216919091179055610cf0565b8460011415610c97576001810154610c6a90610c0e90610c0990600160501b90046001600160501b031687611910565b81600101600a6101000a8154816001600160501b0302191690836001600160501b03160217905550610cf0565b8460021415610070576001810154610cc790610c0e90610c0990600160a01b90046001600160501b031687611910565b8160010160146101000a8154816001600160501b0302191690836001600160501b031602179055505b6000876080018181525050610d0987878386600061194b565b50505050505050565b6000610d1c611bb9565b61ffff8416600090815260209190915260408120546001600160a01b03169150821215610d47579293925b806001600160a01b03166323de66518686610d6186611bc6565b6040518463ffffffff1660e01b8152600401610d7f93929190615b72565b600060405180830381600087803b158015610d9957600080fd5b505af1158015610dad573d6000803e3d6000fd5b505050505050505050565b600083610dc757506000610e58565b60008412610dd457600080fd5b6000610de38661ffff1661126d565b9050610df881610df38688610b73565b611280565b91506000610e0583610b9f565b9050610e12878383611be7565b600382606001516005811115610e2457fe5b1415610e3a57610e35888286611cda565b610e47565b8151610e47908983611da8565b610e548888858589611e1f565b5050505b95945050505050565b80610e6b57610ef1565b6000610e7a858585600b611e66565b90506000806000841215610e9357508690506000610e9a565b5060009050865b6000610ea585611bc6565b9050816001600160a01b0316836001600160a01b0316336001600160a01b0316600080516020615ef18339815191528785604051610ee4929190615e3b565b60405180910390a4505050505b5050505050565b600083610f0757506000610e58565b60008413610f1457600080fd5b6000610f238661ffff1661126d565b90506000610f3a82610f358789610b73565b611e9c565b90506000610f4b89898489896112b8565b90945090508681036000811215610f6157600080fd5b5050505095945050505050565b6000610f7861515c565b6000806000610f868861093d565b9050600080610f968a8985611ed9565b9250925050600080610fac8a8d60000151611f6d565b915091508b610140015160018c0360028110610fc457fe5b602002015198508460018c0360028110610fda57fe5b602002015197508a600114610ff0578281610ff3565b83825b999d989c509a50979850959650505050505050565b6000610b6c6110178484610ac5565b633b9aca00610b19565b606086015160208701516040516351586b3360e01b815260009273__$f6541b0d362a0c7d99a2a29cd3d373d61b$__926351586b339261106e928b928b928b91908b908b90600401615b2d565b60206040518083038186803b15801561108657600080fd5b505af415801561109a573d6000803e3d6000fd5b505050506040513d601f19601f820116820180604052508101906110be919061581c565b9050801561112e57604051636ccc642f60e01b815273__$841fddfe32830bb6dbc3a02d7f16c53722$__90636ccc642f906110fd908990600401615aff565b60006040518083038186803b15801561111557600080fd5b505af4158015611129573d6000803e3d6000fd5b505050505b856001600160a01b031687606001516001600160a01b0316866001600160a01b03167f19b09f1f990520654bea0360dd08a2678d6926fd849dd49bc385862dc91af75387878760405161118393929190615cc0565b60405180910390a450505050505050565b826111b5576111a68486846000611fc3565b6111b0858761202e565b611265565b60006111c08761093d565b90506000806111fe8988606001518960200151896001146111e25760006111e4565b885b8a6002146111f35760006111f5565b895b886000806120d7565b915091508315610dad57600086600114611218578161121a565b825b90508015806112445750806000038a6101a00151600189036002811061123c57fe5b602002015113155b6112605760405162461bcd60e51b81526004016108c990615c9c565b505050505b505050505050565b6112756152ec565b610935826001612309565b60006305f5e10083604001511415611299575080610b13565b610b6c6305f5e1006102aa856040015185610ac590919063ffffffff16565b60008060006112c686611926565b9050806112da576000809250925050611370565b60006112e98861ffff1661126d565b90506003816060015160058111156112fd57fe5b1415611344573482101561131d576113188983340387611cda565b61133c565b34821461133c5760405162461bcd60e51b81526004016108c990615bdd565b86935061135e565b61135b61135682600001518b856123a3565b610aab565b93505b61136b898986848a611e1f565b925050505b9550959350505050565b61138687868685610d12565b60006113958686866000611e66565b905064ffffffffff8414156114155760006113c06113bb846113b687610b9f565b61252b565b610b9f565b90508060001914156113d0575060005b60006001600160a01b03891633600080516020615ef1833981519152600a86176113f986611926565b604051611407929190615e3b565b60405180910390a450611455565b6001600160a01b038716600033600080516020615ef1833981519152600b851761143e88611926565b60405161144c929190615e3b565b60405180910390a45b5050505050505050565b600061146e8585856009611e66565b9050866001600160a01b0316866001600160a01b0316336001600160a01b0316600080516020615ef18339815191528486604051611183929190615e3b565b6000828211156114bc57600080fd5b50900390565b60006114ce85856115ea565b90508060200151600014806114e65750818160200151145b6115025760405162461bcd60e51b81526004016108c990615c02565b602081018290526040810151611518908461256a565b6040820152610ef181856001600061257c565b6001600160a01b03811661153e57600080fd5b6001600160a01b038116610fee141561155657600080fd5b6001600160a01b0381166105e7141561156e57600080fd5b6001600160a01b03811630141561158457600080fd5b600061158f8261260c565b5050505061ffff169050806000146115a657600080fd5b5050565b6115b261517d565b6115bb82612678565b90506115ca8160400151611769565b610160820152919050565b60209190910151811661ffff90811691161490565b6115f2615216565b60006115fc611903565b6001600160a01b038086166000818152602084815260408083208951909516835293815290839020805464ffffffffff600160a01b8204169288018390526001600160501b03600160501b8204811695890195909552606088019390935260018101548416608088015263ffffffff600160c81b84041660a08801526101608801519495509361168e93909216612866565b835250909392505050565b6116a1615255565b6116d3836116c46113bb8660000151866101600151610b4a90919063ffffffff16565b602086015185929190426128a4565b50610b6c838361296d565b6116e6615255565b60006116f06129e5565b84516001600160a01b031660009081526020828152604080832087845290915290819020858552805460ff600160f01b820416151560608701526001600160501b03600160a01b8204811693870193909352610160880151939450909261175b929091879116612866565b602084015250909392505050565b61177161515c565b61093582426129f2565b611783615313565b600061178d612ab3565b60008481526020829052604081209192508060018614156117ba5750670de0b6b3a764000090508061187d565b825460408051633fabe5a360e21b815290516001600160a01b039092169163feaf968c9160048082019260a092909190829003018186803b1580156117fe57600080fd5b505afa158015611812573d6000803e3d6000fd5b505050506040513d601f19601f8201168201806040525081019061183691906159d6565b509193505060008313915061184c905057600080fd5b825460ff600160a01b82048116600a0a9350600160a81b909104161561187d5761187a816102aa8480610ac5565b90505b8254600160b01b900460ff16609681131561189d5760951901600a026096015b6040805160a081018252938452602084019290925290820152905460ff600160b81b820481166060840152600160c01b909104166080820152915050919050565b6000610b6c82602001516102aa84600001518660200151610ac590919063ffffffff16565b600080610b136016612abc565b81810182811215600083121514610b1357600080fd5b600080821215610ac157600080fd5b60006001600160501b03821115610ac157600080fd5b60808501511561195a57600080fd5b6060840151855161196a90610b9f565b1280156119745750815b156119a8578451158061198c57506001856040015111155b6119a85760405162461bcd60e51b81526004016108c990615c9c565b6119b18461090e565b15611a505760006119c0612ad5565b60608701516001600160a01b03908116600090815260209283526040808220895190931682529183522080549188015190925064ffffffffff90911690811480611a08575080155b611a1157600080fd5b80611a4d578154600160281b90046001600160501b0316158015611a4457508154600160781b90046001600160501b0316155b611a4d57600080fd5b50505b6000611a70610c096113bb87610160015189602001518a60000151612ae2565b90508115611af9576040805160e08101825285546001600160501b038082168352600160501b80830482166020850152600160a01b80840464ffffffffff1695850195909552600160c81b90920463ffffffff16606084015260018801548082166080850152918204811660a084015292900490911660c0820152611af9908790879084612b00565b611b068660400151611935565b84546001600160501b0391909116600160501b0269ffffffffffffffffffff60501b199091161784556020860151611b3d90612fd5565b845464ffffffffff91909116600160a01b0264ffffffffff60a01b1990911617845560a0860151611b6d90612fe9565b845463ffffffff91909116600160c81b0263ffffffff60c81b19909116178455611b9681611935565b84546001600160501b0319166001600160501b0391909116179093555050505050565b600080610b136021612abc565b600080821215611be057611bd982610b9f565b9050610938565b5080610938565b6000611bf1612ffc565b83516001600160a01b0316600090815260208290526040902054909150808311611c1c575050611cd5565b6000611c2786613009565b90506000816001600160a01b031663b5e4da238487036040518263ffffffff1660e01b8152600401611c599190615bd4565b60006040518083038186803b158015611c7157600080fd5b505afa158015611c85573d6000803e3d6000fd5b505050506040513d6000823e601f3d908101601f19168201604052611cad919081019061570e565b90506000611cbb8783613039565b9150611cc99050848261256a565b86111561145557600080fd5b505050565b8015611d6c577382af49447d8a07e3bd95bd0d56f35241523fbab16001600160a01b031663d0e30db0836040518263ffffffff1660e01b81526004016000604051808303818588803b158015611d2f57600080fd5b505af1158015611d43573d6000803e3d6000fd5b5050505050611d677382af49447d8a07e3bd95bd0d56f35241523fbab18484611da8565b611cd5565b6040516001600160a01b0384169083156108fc029084906000818181858888f19350505050158015611da2573d6000803e3d6000fd5b50505050565b826001600160a01b031663a9059cbb83836040518363ffffffff1660e01b815260040180836001600160a01b0316815260200182815260200192505050600060405180830381600087803b158015611dff57600080fd5b505af1158015611e13573d6000803e3d6000fd5b50505050611cd5613250565b600080611e2c84866132bd565b9050611e388382610b4a565b9150611e458787846132ed565b611e5086838361336d565b8351611e5c9086613471565b5095945050505050565b68010000000000000000600160e01b03604085901b1667ffff000000000000603085901b1617600883901b178117949350505050565b60006305f5e10083604001511215611eca57611ec36001611ebd8585611280565b90611910565b9050610b13565b610b6c83610df3846001611910565b600080600080611ee7612ad5565b6001600160a01b038781166000908152602092835260408082208b5190931682529190925290208054865164ffffffffff82169650919250611f3b91908690600160281b90046001600160501b0316612866565b9250611f61856001602002015182548690600160781b90046001600160501b0316612866565b91505093509350939050565b6000806000611f7a611903565b6001600160a01b0395861660009081526020918252604080822096909716815294905250505020600101546001600160501b03600160501b8204811692600160a01b9092041690565b8251602085015114611fdb57835115611fdb57600080fd5b6080840151611fea9082611910565b60808501528351611ffb9083611910565b8085526000121561200b57600080fd5b602083015161201a9083611910565b6020840181905260001215611da257600080fd5b60006120386129e5565b82516001600160a01b03166000908152602082815260408083208751845290915290819020908501519192509061206e90611935565b81546060860151801515600160f01b0260ff60f01b196001600160501b0394909416600160a01b0269ffffffffffffffffffff60a01b199093169290921792909216178255610160840151604085015186516020880151611da2948694938993909290916134c6565b60008060006120e4612ad5565b6001600160a01b03808c166000908152602092835260408082208f519093168252919092529020805490915064ffffffffff1689811480612123575080155b61212c57600080fd5b8651825461214c91908c90600160281b90046001600160501b0316612866565b9350612172876001602002015183548c90600160781b90046001600160501b0316612866565b925088156121fa57612184848a611910565b93506121b38c8c8e610140015160006002811061219d57fe5b60200201518d8d8c60005b60200201518b6135a5565b6121ce610c0e610c096113bb8a600060200201518e89612ae2565b82546001600160501b0391909116600160281b026effffffffffffffffffff0000000000199091161782555b87156122775761220a8389611910565b92506122328c8c8e610140015160016002811061222357fe5b60200201518d8c8c60016121a8565b61224d610c0e610c096113bb8a600160200201518e88612ae2565b82546001600160501b0391909116600160781b0269ffffffffffffffffffff60781b199091161782555b85156122e65783158061229457506101a08c015151600085900312155b6122b05760405162461bcd60e51b81526004016108c990615c78565b8215806122ca57506101a08c015160200151600084900312155b6122e65760405162461bcd60e51b81526004016108c990615c78565b6122fa8285856122f58e612fd5565b613673565b50509850989650505050505050565b6123116152ec565b600061231b6136b1565b6000858152602082815260408083208715158452825291829020825160a08101845281546001600160a01b038116825260ff600160a01b82048116151594830194909452600160b01b81048416600a0a9482019490945293945092916060830191600160a81b90910416600581111561239057fe5b8152600060209091015295945050505050565b600080846001600160a01b03166370a08231306040518263ffffffff1660e01b815260040180826001600160a01b0316815260200191505060206040518083038186803b1580156123f357600080fd5b505afa158015612407573d6000803e3d6000fd5b505050506040513d602081101561241d57600080fd5b5051604080516323b872dd60e01b81526001600160a01b038781166004830152306024830152604482018790529151929350908716916323b872dd9160648082019260009290919082900301818387803b15801561247a57600080fd5b505af115801561248e573d6000803e3d6000fd5b5050505061249a613250565b6000856001600160a01b03166370a08231306040518263ffffffff1660e01b815260040180826001600160a01b0316815260200191505060206040518083038186803b1580156124e957600080fd5b505afa1580156124fd573d6000803e3d6000fd5b505050506040513d602081101561251357600080fd5b5051905061252181836114ad565b9695505050505050565b6000808212156125645761255f600161255985602001516102aa876000015187610ac590919063ffffffff16565b906136be565b610b6c565b50919050565b600082820183811015610b6c57600080fd5b6000612586611903565b60608601516001600160a01b0390811660009081526020838152604080832089519094168352929052209091506125c0868683878761194b565b6001810180546001600160501b03191690819055600160501b90046001600160501b031615801561260357506001810154600160a01b90046001600160501b0316155b61126557600080fd5b60008060008060008061261d6136d4565b6001600160a01b039097166000908152602097909752505060409094205461ffff81169563ffffffff620100008304811696506601000000000000830416945060ff600160501b8304169350600160581b90910460d01b9150565b61268061517d565b600061268a6136e1565b6001600160a01b03841660008181526020838152604091829020928652825461ffff8082169288019290925262010000900416908501529091506126e6612710633b9aca008354600160501b900460ff169190056005026136ee565b6080840152805461270590600160401b900461ffff16620186a06136ee565b60a0840152805461272490600160701b900461ffff16620186a06136ee565b61012084015260028101546127409061ffff16620186a06136ee565b610180840152805460649060ff600160581b90910416633b9aca00020560c08401528054600160601b810460ff90811660e0860152600160681b909104166101008401526040805180820191829052906001830190600290826000855b82829054906101000a900461ffff1661ffff168152602001906002019060208260010104928301926001038202915080841161279d57505050505061014085019190915250600481015460ff166101c0840152805461280990640100000000900463ffffffff16613715565b606084015261283f6003820160005b600891828204019190066004029054906101000a900463ffffffff1663ffffffff16613715565b6101a084015152612854600382016001612818565b6101a084015160200152509092915050565b600064ffffffffff831461288657816001600160501b031660000361289c565b61289c846001600160501b038416600003613723565b949350505050565b60006128b3868686868661376e565b905060006128d360646102aa8960e0015185610ac590919063ffffffff16565b905060006128e183836136be565b90506128f1886040015183613804565b6128ff88604001518261383b565b64ffffffffff851415612937576129378860000151896040015185612932878d610160015161252b90919063ffffffff16565b61387f565b61294b886000015189604001518385613987565b608087015161295a90846136be565b6080909701969096525095945050505050565b612975615255565b602083015164ffffffffff1461298a57600080fd5b6129998264ffffffffff6116de565b90506000836080015112156129db576129db83826129c98660800151866101600151610b7390919063ffffffff16565b6129d68760800151610b9f565b611fc3565b610b13818361202e565b600080610b136015612abc565b6129fa61515c565b6000612a0584613a77565b90508281600001511015612a4457600080612a1f86613b3f565b9050612a2d86848388613bbc565b9093509150612a3d868385613c60565b5050612a51565b80518314612a5157600080fd5b6040518060600160405280612a7a6113568460a001518560c001516136ee90919063ffffffff16565b8152602001612a9d6113568460a001518560e001516136ee90919063ffffffff16565b8152602001826060015181525091505092915050565b600080610b1360105b6000620f4240826026811115612ace57fe5b0192915050565b600080610b13601a612abc565b600064ffffffffff8314612af6578161289c565b61289c8483613e91565b6040805160028082526060820183526000926020830190803683375050604080516002808252606082018352939450600093909250906020830190803683370190505090506000612b6786600001518760400151876040015164ffffffffff166000611e66565b9050600a60ff16811783600081518110612b7d57fe5b602002602001018181525050600960ff16811783600181518110612b9d57fe5b602002602001018181525050866020015160001480612be05750604085015164ffffffffff1615801590612be057508660200151856040015164ffffffffff1614155b15612c825784600001516001600160501b031682600081518110612c0057fe5b60200260200101818152505084602001516001600160501b031682600181518110612c2757fe5b60200260200101818152505060006001600160a01b031687606001516001600160a01b0316336001600160a01b0316600080516020615ed18339815191528686604051612c75929190615baf565b60405180910390a4612e7f565b846040015164ffffffffff1687602001511415612e7f5784516000906001600160501b0316851080612cc4575085602001516001600160501b03168860400151105b90508015612d945785516001600160501b03168510612ce4576000612cf3565b85516001600160501b03168590035b83600081518110612d0057fe5b602002602001018181525050612d30886040015187602001516001600160501b03166114ad90919063ffffffff16565b83600181518110612d3d57fe5b60200260200101818152505060006001600160a01b031688606001516001600160a01b0316336001600160a01b0316600080516020615ed18339815191528787604051612d8b929190615baf565b60405180910390a45b801580612daa575085516001600160501b031685115b15612e7d578551612dc59086906001600160501b03166114ad565b83600081518110612dd257fe5b602002602001018181525050876040015186602001516001600160501b031610612dfd576000612e19565b60208601516040890151612e19916001600160501b03166114ad565b83600181518110612e2657fe5b60200260200101818152505087606001516001600160a01b031660006001600160a01b0316336001600160a01b0316600080516020615ed18339815191528787604051612e74929190615baf565b60405180910390a45b505b602087015115801590612ea157508660200151856040015164ffffffffff1614155b15612f87576000612ec1876000015188604001518a602001516000611e66565b9050600a60ff16811784600081518110612ed757fe5b602002602001018181525050600960ff16811784600181518110612ef757fe5b6020026020010181815250508483600081518110612f1157fe5b602002602001018181525050876040015183600181518110612f2f57fe5b60200260200101818152505087606001516001600160a01b031660006001600160a01b0316336001600160a01b0316600080516020615ed18339815191528787604051612f7d929190615baf565b60405180910390a4505b60808501516001600160501b031615610d0957606087015160808601516040516000926001600160a01b0316913391600080516020615ef18339815191529161118391600b88179190615e5f565b600064ffffffffff821115610ac157600080fd5b600063ffffffff821115610ac157600080fd5b600080610b136026612abc565b600080613014613eed565b61ffff939093166000908152602093909352505060409020546001600160a01b031690565b60008060005b835181101561324857600084828151811061305657fe5b60200260200101519050600081606001516001600160a01b03166370a08231306040518263ffffffff1660e01b81526004016130929190615aff565b60206040518083038186803b1580156130aa57600080fd5b505afa1580156130be573d6000803e3d6000fd5b505050506040513d601f19601f820116820180604052508101906130e291906159be565b905060006130f08830613efa565b905060005b83515181101561314c5761313b8460000151828151811061311257fe5b602002602001015160008660200151848151811061312c57fe5b60200260200101516001613fa4565b61314457600196505b6001016130f5565b5060006131598930613efa565b9050600061316782846114ad565b9050808560400151111561317a57600080fd5b60608501516040516370a0823160e01b81526000916001600160a01b0316906370a08231906131ad903090600401615aff565b60206040518083038186803b1580156131c557600080fd5b505afa1580156131d9573d6000803e3d6000fd5b505050506040513d601f19601f820116820180604052508101906131fd91906159be565b90508481111561320c57600080fd5b61321b86606001518683614212565b613225888361256a565b97506132368b600001518585614212565b50506001909401935061303f92505050565b509250929050565b600061325a615342565b3d801561326e576020811461327757600080fd5b60019250613282565b60206000833e815192505b50816115a6576040805162461bcd60e51b8152602060048201526005602482015264045524332360dc1b604482015290519081900360640190fd5b60006305f5e100836040015114156132d6575080610b13565b6040830151610b6c906102aa846305f5e100610ac5565b60006132f7611bb9565b61ffff8416600090815260209190915260409081902054905163ad1c095d60e01b81526001600160a01b039091169150819063ad1c095d9061333f9087908690600401615b96565b600060405180830381600087803b15801561335957600080fd5b505af1158015611455573d6000803e3d6000fd5b600061337761428f565b61ffff8516600090815260209190915260409020805490915064ffffffffff1642146133a257600080fd5b80546000906133c190600160281b90046001600160581b031685611910565b82549091506000906133e390600160801b90046001600160581b031685611910565b905080624c4b4013156133f557600080fd5b61340661340182611926565b61429c565b83546001600160581b0391909116600160801b026affffffffffffffffffffff60801b1990911617835561343c61340183611926565b83546001600160581b0391909116600160281b026fffffffffffffffffffffff000000000019909116178355611265836142b2565b600061347b612ffc565b6001600160a01b0384166000908152602082905260409020549091506134a4610c098285611910565b6001600160a01b03909416600090815260209290925250604090209190915550565b86546001600160501b03166000908103906134e2888686612ae2565b90506134f3610c0e610c0983610b9f565b89546001600160501b0319166001600160501b0391909116178955600061351a8383614377565b9050600064ffffffffff87141561354157885161353a908b908a856143fe565b5084613578565b84613578578851613555908989878761442b565b885161356a908961356585610b9f565b6144eb565b613575898b8a6145c1565b90505b600082138015613586575084155b15613598578851613598908983614667565b5050505050505050505050565b60006135af6146e3565b88516001600160a01b0316600090815260209182526040808220888352835280822061ffff8a16835290925290812080549092506135f990859088906001600160501b0316612866565b90506136058186611910565b905061361782858b8a8a8660006134c6565b6000808613801561362c575064ffffffffff87145b1561364e576136476113bb86896136428a610b9f565b612ae2565b905061365c565b613659858888612ae2565b90505b831561126057611260898b600001518a8a856146f0565b8215801561367f575081155b1561369557835464ffffffffff19168455611da2565b835464ffffffffff191664ffffffffff91909116179092555050565b600080610b136007612abc565b80820382811315600083121514610b1357600080fd5b600080610b136002612abc565b600080610b136014612abc565b6000826136fd57506000610b13565b8282028284828161370a57fe5b0414610b6c57600080fd5b600881901c60ff9091161b90565b60006001821261373257600080fd5b8161373f57506000610b13565b610b6c60016125596ec097ce7bc90715b34b9f10000000006102aa876020015187610ac590919063ffffffff16565b60008064ffffffffff8414156137c057602086015164ffffffffff14613798576000915050610e58565b6137b26113568760a00151856114ad90919063ffffffff16565b60a0870184905290506137d0565b6137cd61135685856114ad565b90505b60808701516000906137ec906301da9c00906102aa9085610ac5565b90506137f88682611008565b98975050505050505050565b600081121561381257600080fd5b6000613820610fee84614752565b905061382c8183611910565b9050611cd5610fee84836147ab565b600081121561384957600080fd5b60006138588361ffff1661481f565b905060006138668285614752565b90506138728184611910565b9050611da28285836147ab565b6000613889611bb9565b61ffff8516600090815260209190915260408120546001600160a01b031691506138b1614845565b61ffff8616600090815260209190915260409081902054905163ad1c095d60e01b81526001600160a01b039091169150819063ad1c095d906138f99089908790600401615b96565b600060405180830381600087803b15801561391357600080fd5b505af1158015613927573d6000803e3d6000fd5b505060405163ad1c095d60e01b81526001600160a01b038516925063ad1c095d91506139599089908890600401615b96565b600060405180830381600087803b15801561397357600080fd5b505af1158015611260573d6000803e3d6000fd5b6000613991611bb9565b61ffff8516600090815260209190915260408120546001600160a01b031691506139b9614852565b61ffff8616600090815260209190915260409020546001600160a01b03908116915082166323de665187610fee6139ef87611926565b6040518463ffffffff1660e01b8152600401613a0d93929190615b72565b600060405180830381600087803b158015613a2757600080fd5b505af1158015613a3b573d6000803e3d6000fd5b50505050816001600160a01b03166323de66518783613a5988611926565b6040518463ffffffff1660e01b815260040161395993929190615b72565b613a7f615360565b6000613a8961428f565b61ffff93841660009081526020918252604090819020805464ffffffffff81168652600160281b81046001600160581b03908116948701949094526001820154841692860192909252600160d81b820463ffffffff166060860152600160801b9091049091166080840152600201546001600160501b0380821660a0850152600160501b8204811660c0850152600160a01b82041660e0840152600160f01b900460ff1661012c02909216610100820152919050565b600080613b4b83613009565b6001600160a01b031663ef81f2166040518163ffffffff1660e01b81526004016040805180830381600087803b158015613b8457600080fd5b505af1158015613b98573d6000803e3d6000fd5b505050506040513d601f19601f8201168201806040525081019061289c919061583c565b613bc4615360565b6000806000613bd488868961485f565b60c08b019290925260e08a019290925260208901519193509150613bf8908361256a565b6020880152608087015160009015613c26576080880151613c2390613c1d89826114ad565b90614970565b90505b613c46613c3b670de0b6b3a76400008361256a565b60a08a01519061498d565b60a089015250506080860194909452505082529092909150565b6000613c6a61428f565b60008561ffff1681526020019081526020016000209050613c8e8260000151612fd5565b815464ffffffffff191664ffffffffff9190911617815560a0820151613cb390611935565b6002820180546001600160501b0319166001600160501b039290921691909117905560c0820151613ce390611935565b81600201600a6101000a8154816001600160501b0302191690836001600160501b03160217905550613d188260e00151611935565b8160020160146101000a8154816001600160501b0302191690836001600160501b03160217905550613d4d826020015161429c565b81546001600160581b0391909116600160281b026fffffffffffffffffffffff0000000000199091161781556040820151613d879061429c565b6001820180546affffffffffffffffffffff19166001600160581b03929092169190911790556080820151613dbb9061429c565b81546001600160581b0391909116600160801b026affffffffffffffffffffff60801b199091161781556060820151613df390612fe9565b815463ffffffff91909116600160d81b0263ffffffff60d81b199091161781558215613e3f576000613e2484610aab565b9050613e308582613804565b613e3d610fee86836132ed565b505b8361ffff167fef25641e225e493886510ca1ad6584fa7b442b9fea820a29d1de3ce27d270fd28360a001518460c001518560e00151604051613e8393929190615e49565b60405180910390a250505050565b600081600013158015613ea45750600a82125b15613eb157506000610b13565b60008212613ebe57600080fd5b610b6c600161255985602001516102aa6ec097ce7bc90715b34b9f100000000087610ac590919063ffffffff16565b600080610b13601f612abc565b6000600383606001516005811115613f0e57fe5b1415613f2557506001600160a01b03811631610b13565b82516040516370a0823160e01b81526001600160a01b03909116906370a0823190613f54908590600401615aff565b60206040518083038186803b158015613f6c57600080fd5b505afa158015613f80573d6000803e3d6000fd5b505050506040513d601f19601f82011682018060405250810190611ec391906159be565b6000806000866001600160a01b031686866040518082805190602001908083835b60208310613fe45780518252601f199092019160209182019101613fc5565b6001836020036101000a03801982511681845116808217855250505050505090500191505060006040518083038185875af1925050503d8060008114614046576040519150601f19603f3d011682016040523d82523d6000602084013e61404b565b606091505b5091509150836140ee578161405f826149aa565b906140e85760405162461bcd60e51b81526004018080602001828103825283818151815260200191508051906020019080838360005b838110156140ad578181015183820152602001614095565b50505050905090810190601f1680156140da5780820380516001836020036101000a031916815260200191505b509250505060405180910390fd5b50611e5c565b866001600160a01b03167f3c7e398c5e91088cae639370e35b25ea669d81fbdf0def5388e73661bc34e08e8787614124856149aa565b604051808481526020018060200180602001838103835285818151815260200191508051906020019080838360005b8381101561416b578181015183820152602001614153565b50505050905090810190601f1680156141985780820380516001836020036101000a031916815260200191505b50838103825284518152845160209182019186019080838360005b838110156141cb5781810151838201526020016141b3565b50505050905090810190601f1680156141f85780820380516001836020036101000a031916815260200191505b509550505050505060405180910390a25095945050505050565b600061421c612ffc565b6001600160a01b0385166000908152602082905260409020549091508381111561424557600080fd5b600061425c61425386610aab565b61255986610aab565b905061426b610c098383611910565b6001600160a01b039096166000908152602093909352505060409020929092555050565b600080610b13601d612abc565b60006001600160581b03821115610ac157600080fd5b805460028201546000916142ee91600160281b9091046001600160581b0316906102a4906001600160501b03600160501b820481169116610ac5565b60018301546002840154919250600091614328916001600160581b0316906102a4906001600160501b03600160a01b820481169116610ac5565b835490915060009061435f9060016001600160581b03600160801b909204821601166ec097ce7bc90715b34b9f1000000000610ac5565b90508061436c84846136be565b1315611da257600080fd5b600081831480614394575060008312158015614394575060008212155b156143a157506000610b13565b600083131580156143b25750816000125b156143be575081610b13565b600082131580156143cf5750826000125b156143dd57611ec382610b9f565b600083131580156143ef575060008213155b1561007057611ec383836136be565b8015611da2578351602085015160009161441d916102aa908590610ac5565b9050610ef184848484614ab1565b60006144378383614377565b9050806144445750610ef1565b600061444e614bee565b61ffff87166000908152602082815260408083208984529091528120549192506001600160501b0390911681039061448682856136be565b9050600081131561449657600080fd5b6144a5610c0e610c0983610b9f565b61ffff89166000908152602085815260408083208b8452909152902080546001600160501b0319166001600160501b0392909216919091179055610dad89898987614bfb565b60006144f5614c61565b6001600160a01b03851660009081526020918252604080822061ffff87168352909252908120805490925061453a90600160501b90046001600160501b0316846136be565b9050614548610c0e82611926565b82546001600160501b0391909116600160501b0269ffffffffffffffffffff60501b1990911617825560405161ffff8516906001600160a01b038716907f20478ef460e49d010960d4f3fff35d8dae385443abfac09035d6a2ccbcd834c4906145b2908590615bd4565b60405180910390a35050505050565b600080846040015161ffff168361ffff16141561460d576145e06129e5565b85516001600160a01b031660009081526020918252604080822064ffffffffff835290925220905061464a565b6146156146e3565b85516001600160a01b031660009081526020918252604080822064ffffffffff8352835280822061ffff871683529092522090505b8054610e5890859064ffffffffff906001600160501b0316612866565b6000614671614c61565b6001600160a01b03851660009081526020918252604080822061ffff8716835290925290812080549092506146b690600160501b90046001600160501b0316846136be565b82549091506001600160501b0316811315610ef15760405162461bcd60e51b81526004016108c990615c52565b600080610b136018612abc565b806146fa57610ef1565b6000808061470b878787600a611e66565b90506000841315614722578792506000915061472a565b600092508791505b6001600160a01b0380831690841633600080516020615ef18339815191528461143e89611bc6565b60008061475d614c6e565b6001600160a01b03851660009081526020828152604080832061ffff8816845290915281208054600160a81b9004600a90810b900b94509192508312156147a357600080fd5b505092915050565b60008112156147b957600080fd5b60006147c3614c6e565b6001600160a01b03851660009081526020828152604080832061ffff8816845290915290209091506147f483614c7b565b8154600a9190910b6001600160581b0316600160a81b026001600160a81b0390911617905550505050565b60008061482a614852565b6000938452602052505060409020546001600160a01b031690565b600080610b136022612abc565b600080610b136003612abc565b6000806000806000806148728988614cad565b895190955091935091506000906148999061488e908b906114ad565b633b9aca00906136ee565b90506148d36148c86301da9c006148b085856136ee565b816148b757fe5b670de0b6b3a764000091900461256a565b60e08a01519061498d565b96506148f56148ea6301da9c006148b087856136ee565b60c08a01519061498d565b95508183141561490c575060009350614967915050565b600061492e6149236301da9c006148b087866136ee565b60e08b01519061498d565b9050600061493c89836114ad565b905061495f88614959838d604001516136ee90919063ffffffff16565b90614d48565b965050505050505b93509350935093565b6000610b6c61498784670de0b6b3a76400006136ee565b83614d48565b6000610b6c61499c84846136ee565b670de0b6b3a7640000614d48565b60606044825110156149e0575060408051808201909152600d81526c14da5b195b9d0814995d995c9d609a1b6020820152610938565b60048201805190926024019060208110156149fa57600080fd5b8101908080516040519392919084640100000000821115614a1a57600080fd5b908301906020820185811115614a2f57600080fd5b8251640100000000811182820188101715614a4957600080fd5b82525081516020918201929091019080838360005b83811015614a76578181015183820152602001614a5e565b50505050905090810190601f168015614aa35780820380516001836020036101000a031916815260200191505b506040525050509050919050565b6000614abb61428f565b61ffff8516600090815260209190915260409020805490915064ffffffffff164214614ae657600080fd5b8054600160f81b900460ff16614afb57600080fd5b6001810154600090614b16906001600160581b031685611910565b8254909150600090614b3890600160281b90046001600160581b031685611910565b905081600919128015614b4b5750600082125b15614b5557600091505b80600919128015614b665750600081125b15614b6f575060005b614b7b61340183611926565b6001840180546affffffffffffffffffffff19166001600160581b0392909216919091179055614bad61340182611926565b83546001600160581b0391909116600160281b026fffffffffffffffffffffff000000000019909116178355614be58787868861387f565b610d09836142b2565b600080610b136020612abc565b600080614c09858585614d67565b915091506000806000851215614c2157879150614c24565b50865b806001600160a01b0316826001600160a01b0316336001600160a01b0316600080516020615ed1833981519152878760405161144c929190615baf565b600080610b136017612abc565b600080610b136006612abc565b60006a7fffffffffffffffffffff198212801590614ca457506a7fffffffffffffffffffff8213155b610ac157600080fd5b600080600080600085602001511115614cfa57614cf7614cde8660c0015187602001516136ee90919063ffffffff16565b60e08701516040880151614cf1916136ee565b90614e4c565b90505b6000614d0587614e5f565b9050614d118183614e92565b94508115614d2857614d2581866001614f4b565b93505b602086015115614d3f57614d3c8583614fc5565b92505b50509250925092565b6000808211614d5657600080fd5b818381614d5f57fe5b049392505050565b604080516002808252606082810190935282916000918160200160208202803683370190505090506000614d9b8787614fde565b90508082600081518110614dab57fe5b602002602001018181525050600160401b811782600181518110614dcb57fe5b602090810291909101015260408051600280825260608201909252600091816020016020820280368337019050509050614e0486611bc6565b81600081518110614e1157fe5b602002602001018181525050614e2686611bc6565b81600181518110614e3357fe5b6020908102919091010152919791965090945050505050565b6000610b6c61498784633b9aca006136ee565b614e676153ac565b6000614e71614ffc565b61ffff8416600090815260209190915260408120549150610b6c9082615009565b600080836080015111614ea457600080fd5b633b9aca00821115614eb557600080fd5b82518211614ed45782516040840151611ec391906149599085906136ee565b82602001518211614f12576040830151835160208501516060860151611ec39392614f0c9281900391614959918803908590036136ee565b9061256a565b610b6c8360600151614f0c8560200151633b9aca00036149598760600151886080015103886020015188036136ee90919063ffffffff16565b600080614f6a60646149598760e00151876136ee90919063ffffffff16565b90508460a00151811015614f7f575060a08401515b8460c00151811115614f92575060c08401515b8215614fa957614fa2848261256a565b9150614fbd565b838111614fb857808403610e58565b600091505b509392505050565b6000610b6c614fd484846136ee565b633b9aca00614d48565b67ffff000000000000603083901b16600882901b1760011792915050565b600080610b13601b612abc565b6150116153ac565b6064633b9aca008360ff86166020811061502757fe5b1a028161503057fe5b0481526064633b9aca008360ff86166001016020811061504c57fe5b1a028161505557fe5b0481602001818152505061507a8260028560ff16016020811061507457fe5b1a615128565b60808201819052610100908360ff86166003016020811061509757fe5b1a02816150a057fe5b0460408201526080810151610100908360ff8616600401602081106150c157fe5b1a02816150ca57fe5b0460608201526207a1208260ff8516600501602081106150e657fe5b1a0260a0820152622625a08260ff85166006016020811061510357fe5b1a0260c08201528160ff84166007016020811061511c57fe5b1a60e082015292915050565b60008160ff166096106151435760ff8216622625a002610935565b5060951960ff919091160162e4e1c00263165a0bc00190565b60405180606001604052806000815260200160008152602001600081525090565b604051806101e0016040528060006001600160a01b03168152602001600061ffff168152602001600061ffff168152602001600081526020016000815260200160008152602001600081526020016000815260200160008152602001600081526020016151e86153f1565b81526020016151f561515c565b8152602001600081526020016152096153f1565b8152602001600081525090565b6040518060c0016040528060008152602001600081526020016000815260200160006001600160a01b0316815260200160008152602001600081525090565b60405180608001604052806000815260200160008152602001600081526020016000151581525090565b60405180604001604052806002905b61529661515c565b81526020019060019003908161528e5790505090565b6040805160c081018252600080825260208201529081016152cb61515c565b81526020016152d861515c565b815260200160008152602001600081525090565b6040805160a081018252600080825260208201819052918101829052906060820190615209565b6040518060a0016040528060008152602001600081526020016000815260200160008152602001600081525090565b60405180602001604052806001906020820280368337509192915050565b6040518061012001604052806000815260200160008152602001600081526020016000815260200160008152602001600081526020016000815260200160008152602001600081525090565b60405180610100016040528060008152602001600081526020016000815260200160008152602001600081526020016000815260200160008152602001600081525090565b60405180604001604052806002906020820280368337509192915050565b805161093881615eb8565b600082601f83011261542a578081fd5b8151602061543f61543a83615e9a565b615e76565b828152818101908583018385028701840188101561545b578586fd5b855b8581101561548257815161547081615eb8565b8452928401929084019060010161545d565b5090979650505050505050565b6000601f83818401126154a0578182fd5b825160206154b061543a83615e9a565b82815281810190868301865b8581101561555557815189018a603f8201126154d6578889fd5b8581015167ffffffffffffffff8111156154ec57fe5b6154fd818a01601f19168801615e76565b81815260408d81848601011115615512578b8cfd5b8b5b8381101561552f578481018201518382018b01528901615514565b8381111561553f578c8a85850101525b50508652505092840192908401906001016154bc565b509098975050505050505050565b600082601f830112615573578081fd5b6040516060810181811067ffffffffffffffff8211171561559057fe5b6040528083606081018610156155a4578384fd5b835b60038110156155c55781518352602092830192909101906001016155a6565b509195945050505050565b80516001600160501b038116811461093857600080fd5b600080600080600060a086880312156155fe578081fd5b853561560981615eb8565b9450602086013561561981615eb8565b9350604086013561562981615eb8565b9250606086013561ffff8116811461563f578182fd5b949793965091946080013592915050565b600080600080600060a08688031215615667578283fd5b853561567281615eb8565b9450602086013561568281615eb8565b9350604086013561569281615eb8565b94979396509394606081013594506080013592915050565b60008060008060008060c087890312156156c2578384fd5b86356156cd81615eb8565b955060208701356156dd81615eb8565b945060408701356156ed81615eb8565b959894975094956060810135955060808101359460a0909101359350915050565b60006020808385031215615720578182fd5b825167ffffffffffffffff80821115615737578384fd5b818501915085601f83011261574a578384fd5b815161575861543a82615e9a565b81815284810190848601875b8481101561580d57815187016080818d03601f1901121561578357898afd5b60408051608081018181108a8211171561579957fe5b8252828b0151898111156157ab578c8dfd5b6157b98f8d8387010161541a565b82525081830151898111156157cc578c8dfd5b6157da8f8d8387010161548f565b8c830152506060830151828201526157f46080840161540f565b6060820152865250509287019290870190600101615764565b50909998505050505050505050565b60006020828403121561582d578081fd5b81518015158114610b6c578182fd5b6000806040838503121561584e578182fd5b505080516020909101519092909150565b600080600083850360a0811215615874578182fd5b84519350602085015192506060603f1982011215615890578182fd5b506040516060810181811067ffffffffffffffff821117156158ae57fe5b8060405250604085015181526060850151602082015260808501516040820152809150509250925092565b6000806000838503610180808212156158f0578283fd5b60c08212156158fd578283fd5b60405191506080820182811067ffffffffffffffff8211171561591c57fe5b80604052508551825260208087015181840152604087015160408401526159468860608901615563565b606084015282955061595b8860c08901615563565b94508761013f88011261596c578384fd5b6159766060615e76565b925082610120880189848a01111561598c578586fd5b8593505b60038410156159af578051855293820193600193909301928201615990565b50809450505050509250925092565b6000602082840312156159cf578081fd5b5051919050565b600080600080600060a086880312156159ed578283fd5b6159f6866155d0565b9450602086015193506040860151925060608601519150615a19608087016155d0565b90509295509295909350565b6001600160a01b03169052565b8060005b6002811015611da2578151845260209384019390910190600101615a36565b8060005b6002811015611da257815161ffff16845260209384019390910190600101615a59565b6000815180845260208085019450808401835b83811015615aab57815187529582019590820190600101615a8f565b509495945050505050565b8051825260208082015190830152604090810151910152565b8051825260208101516020830152604081015160408301526060810151151560608301525050565b61ffff169052565b6001600160a01b0391909116815260200190565b6001600160a01b0392831681529116602082015260400190565b6001600160a01b039788168152958716602087015293909516604085015261ffff919091166060840152608083015260a082019290925260c081019190915260e00190565b6001600160a01b039384168152919092166020820152604081019190915260600190565b6001600160a01b03929092168252602082015260400190565b600060408252615bc26040830185615a7c565b8281036020840152610e588185615a7c565b90815260200190565b6020808252600b908201526a4554482042616c616e636560a81b604082015260600190565b60208082526011908201527009ac2e8eae4d2e8f2409ad2e6dac2e8c6d607b1b604082015260600190565b6020808252600b908201526a4d75737420536574746c6560a81b604082015260600190565b6020808252600c908201526b4d617820436170616369747960a01b604082015260600190565b6020808252600a90820152696d696e20626f72726f7760b01b604082015260600190565b6020808252600a90820152694d696e20426f72726f7760b01b604082015260600190565b61ffff9390931683526020830191909152604082015260600190565b60006103e08201905061ffff8716825285516020830152602086015160408301526040860151606083015260018060a01b036060870151166080830152608086015160a083015260a086015160c0830152615d3b60e083018651615a25565b6020850151610100615d4f81850183615af7565b60408701519150610120615d6581860184615af7565b60608801519250610140838187015260808901519350610160848188015260a08a01519450610180858189015260c08b015195506101a086818a015260e08c015196506101c087818b0152868d01516101e08b0152858d01516102008b0152848d01519750615dd86102208b0189615a55565b838d01519750615dec6102608b0189615ab6565b828d01516102c08b0152818d01519750615e0a6102e08b0189615a32565b808d01516103208b01525050505050505050615e2a610340830185615acf565b826103c08301529695505050505050565b918252602082015260400190565b9283526020830191909152604082015260600190565b9182526001600160501b0316602082015260400190565b60405181810167ffffffffffffffff81118282101715615e9257fe5b604052919050565b600067ffffffffffffffff821115615eae57fe5b5060209081020190565b6001600160a01b0381168114615ecd57600080fd5b5056fe4a39dc06d4c0dbc64b70af90fd698a233a518aa5d07e595d983b8c0526c8f7fbc3d58168c5ae7397731d063d5bbf3d657854427343f4c083240f7aacaa2d0f62a26469706673582212207d16c61411e668d665b0580163aca0fc38252af75c8dc230ad1dabcaa0e3779b64736f6c63430007060033","language":"Solidity","natspec":{"kind":"dev","methods":{"deleverageAccount(address,address,address,uint16,int256)":{"notice":"If an account is below the minimum collateral ratio, this method wil deleverage (liquidate) that account. `depositAmountPrimeCash` in the borrow currency will be transferred from the liquidator and used to offset the account's debt position. The liquidator will receive either vaultShares or cash depending.","params":{"account":"the address that will exit the vault","currencyIndex":"0 refers to primary borrow, 1 or 2 will refer to one of the secondary currencies (if any)","depositUnderlyingInternal":"amount of underlying to deposit, in 8 decimal underlying precision","liquidator":"the address that will receive profits from liquidation","vault":"the vault to enter"},"returns":{"depositAmountPrimeCash":"amount of prime cash deposited from liquidation","vaultSharesToLiquidator":"amount of vaultShares received from liquidation"}},"liquidateExcessVaultCash(address,address,address,uint256,uint256,uint256)":{"notice":"Handles an edge case where vaults that have secondary borrows and have cash in excess of debts in one currency but debts in another currency."},"liquidateVaultCashBalance(address,address,address,uint256,int256)":{"notice":"If an account has a cash balance, a liquidator can purchase the cash and provide fCash to the account to reduce it's debt balance."}},"version":1},"opcodes":"PUSH1 0x80 PUSH1 0x40 MSTORE PUSH1 0x4 CALLDATASIZE LT PUSH2 0x70 JUMPI PUSH1 0x0 CALLDATALOAD PUSH1 0xE0 SHR DUP1 PUSH4 0x8DA5CB5B GT PUSH2 0x4E JUMPI DUP1 PUSH4 0x8DA5CB5B EQ PUSH2 0xD5 JUMPI DUP1 PUSH4 0x9AB77186 EQ PUSH2 0xEA JUMPI DUP1 PUSH4 0xC4C96DAE EQ PUSH2 0x10A JUMPI DUP1 PUSH4 0xFCAF198B EQ PUSH2 0x12D JUMPI PUSH2 0x70 JUMP JUMPDEST DUP1 PUSH4 0x21BF8C66 EQ PUSH2 0x75 JUMPI DUP1 PUSH4 0x24A3D622 EQ PUSH2 0x9E JUMPI DUP1 PUSH4 0x82463367 EQ PUSH2 0xC0 JUMPI JUMPDEST PUSH1 0x0 DUP1 REVERT JUMPDEST PUSH2 0x88 PUSH2 0x83 CALLDATASIZE PUSH1 0x4 PUSH2 0x56AA JUMP JUMPDEST PUSH2 0x14E JUMP JUMPDEST PUSH1 0x40 MLOAD PUSH2 0x95 SWAP2 SWAP1 PUSH2 0x5BD4 JUMP JUMPDEST PUSH1 0x40 MLOAD DUP1 SWAP2 SUB SWAP1 RETURN JUMPDEST CALLVALUE DUP1 ISZERO PUSH2 0xAA JUMPI PUSH1 0x0 DUP1 REVERT JUMPDEST POP PUSH2 0xB3 PUSH2 0x3F5 JUMP JUMPDEST PUSH1 0x40 MLOAD PUSH2 0x95 SWAP2 SWAP1 PUSH2 0x5AFF JUMP JUMPDEST CALLVALUE DUP1 ISZERO PUSH2 0xCC JUMPI PUSH1 0x0 DUP1 REVERT JUMPDEST POP PUSH2 0xB3 PUSH2 0x404 JUMP JUMPDEST CALLVALUE DUP1 ISZERO PUSH2 0xE1 JUMPI PUSH1 0x0 DUP1 REVERT JUMPDEST POP PUSH2 0xB3 PUSH2 0x413 JUMP JUMPDEST CALLVALUE DUP1 ISZERO PUSH2 0xF6 JUMPI PUSH1 0x0 DUP1 REVERT JUMPDEST POP PUSH2 0x88 PUSH2 0x105 CALLDATASIZE PUSH1 0x4 PUSH2 0x5650 JUMP JUMPDEST PUSH2 0x42A JUMP JUMPDEST CALLVALUE DUP1 ISZERO PUSH2 0x116 JUMPI PUSH1 0x0 DUP1 REVERT JUMPDEST POP PUSH2 0x11F PUSH2 0x5B9 JUMP JUMPDEST PUSH1 0x40 MLOAD PUSH2 0x95 SWAP3 SWAP2 SWAP1 PUSH2 0x5B13 JUMP JUMPDEST PUSH2 0x140 PUSH2 0x13B CALLDATASIZE PUSH1 0x4 PUSH2 0x55E7 JUMP JUMPDEST PUSH2 0x5E7 JUMP JUMPDEST PUSH1 0x40 MLOAD PUSH2 0x95 SWAP3 SWAP2 SWAP1 PUSH2 0x5E3B JUMP JUMPDEST PUSH1 0x0 PUSH1 0x2 PUSH1 0xA SLOAD EQ ISZERO PUSH2 0x160 JUMPI PUSH1 0x0 DUP1 REVERT JUMPDEST PUSH1 0x2 PUSH1 0xA SSTORE PUSH1 0x0 DUP1 PUSH2 0x173 DUP10 DUP10 DUP10 PUSH2 0x7C5 JUMP JUMPDEST POP SWAP2 POP SWAP2 POP PUSH2 0x181 DUP3 PUSH2 0x90E JUMP JUMPDEST PUSH2 0x18A JUMPI PUSH1 0x0 DUP1 REVERT JUMPDEST PUSH1 0x0 PUSH2 0x195 DUP4 PUSH2 0x93D JUMP JUMPDEST PUSH1 0x40 MLOAD PUSH4 0xB14428B9 PUSH1 0xE0 SHL DUP2 MSTORE SWAP1 SWAP2 POP PUSH1 0x0 SWAP1 ADDRESS SWAP1 PUSH4 0xB14428B9 SWAP1 PUSH2 0x1C0 SWAP1 DUP15 SWAP1 DUP15 SWAP1 PUSH1 0x4 ADD PUSH2 0x5B13 JUMP JUMPDEST PUSH2 0x180 PUSH1 0x40 MLOAD DUP1 DUP4 SUB DUP2 DUP7 DUP1 EXTCODESIZE ISZERO DUP1 ISZERO PUSH2 0x1D9 JUMPI PUSH1 0x0 DUP1 REVERT JUMPDEST POP GAS STATICCALL ISZERO DUP1 ISZERO PUSH2 0x1ED JUMPI RETURNDATASIZE PUSH1 0x0 DUP1 RETURNDATACOPY RETURNDATASIZE PUSH1 0x0 REVERT JUMPDEST POP POP POP POP PUSH1 0x40 MLOAD RETURNDATASIZE PUSH1 0x1F NOT PUSH1 0x1F DUP3 ADD AND DUP3 ADD DUP1 PUSH1 0x40 MSTORE POP DUP2 ADD SWAP1 PUSH2 0x211 SWAP2 SWAP1 PUSH2 0x58D9 JUMP JUMPDEST POP POP SWAP1 POP DUP1 PUSH1 0x60 ADD MLOAD DUP9 PUSH1 0x3 DUP2 LT PUSH2 0x225 JUMPI INVALID JUMPDEST PUSH1 0x20 MUL ADD MLOAD PUSH1 0x0 SLT PUSH2 0x236 JUMPI PUSH1 0x0 DUP1 REVERT JUMPDEST PUSH1 0x0 DUP2 PUSH1 0x60 ADD MLOAD DUP9 PUSH1 0x3 DUP2 LT PUSH2 0x248 JUMPI INVALID JUMPDEST PUSH1 0x20 MUL ADD MLOAD SLT PUSH2 0x257 JUMPI PUSH1 0x0 DUP1 REVERT JUMPDEST PUSH1 0x0 PUSH2 0x265 DUP6 DUP5 DUP12 DUP12 PUSH2 0x99D JUMP JUMPDEST SWAP1 POP PUSH1 0x0 PUSH2 0x272 DUP9 PUSH2 0xAAB JUMP JUMPDEST SWAP1 POP PUSH2 0x2BB PUSH2 0x2B0 PUSH1 0x64 PUSH2 0x2AA DUP6 PUSH1 0x80 ADD MLOAD PUSH2 0x2AA DUP8 PUSH1 0xA0 ADD MLOAD PUSH2 0x2A4 DUP14 PUSH2 0x1C0 ADD MLOAD DUP10 PUSH2 0xAC5 SWAP1 SWAP2 SWAP1 PUSH4 0xFFFFFFFF AND JUMP JUMPDEST SWAP1 PUSH2 0xAC5 JUMP JUMPDEST SWAP1 PUSH2 0xB19 JUMP JUMPDEST PUSH1 0x40 DUP5 ADD MLOAD SWAP1 PUSH2 0xB4A JUMP JUMPDEST SWAP7 POP DUP7 DUP4 PUSH1 0x60 ADD MLOAD DUP12 PUSH1 0x3 DUP2 LT PUSH2 0x2CE JUMPI INVALID JUMPDEST PUSH1 0x20 MUL ADD MLOAD SLT ISZERO PUSH2 0x328 JUMPI DUP3 PUSH1 0x60 ADD MLOAD DUP11 PUSH1 0x3 DUP2 LT PUSH2 0x2E9 JUMPI INVALID JUMPDEST PUSH1 0x20 MUL ADD MLOAD SWAP7 POP PUSH2 0x325 DUP3 PUSH1 0xA0 ADD MLOAD PUSH2 0x2AA DUP9 PUSH2 0x1C0 ADD MLOAD PUSH2 0x2AA PUSH1 0x64 PUSH2 0x2A4 DUP9 PUSH1 0x80 ADD MLOAD PUSH2 0x2A4 DUP16 DUP12 PUSH1 0x40 ADD MLOAD PUSH2 0xB73 SWAP1 SWAP2 SWAP1 PUSH4 0xFFFFFFFF AND JUMP JUMPDEST SWAP1 POP JUMPDEST PUSH1 0x60 DUP3 ADD MLOAD PUSH1 0x0 SWAP1 PUSH2 0x33A SWAP1 DUP4 PUSH2 0xB4A JUMP JUMPDEST SWAP1 POP PUSH1 0x0 PUSH2 0x347 DUP10 PUSH2 0xB9F JUMP JUMPDEST SWAP1 POP PUSH2 0x357 DUP8 DUP10 DUP15 DUP5 PUSH1 0x0 PUSH2 0xBAD JUMP JUMPDEST PUSH2 0x365 DUP8 DUP10 DUP14 DUP6 PUSH1 0x0 PUSH2 0xBAD JUMP JUMPDEST PUSH2 0x375 DUP15 DUP15 DUP7 PUSH1 0x0 ADD MLOAD DUP13 PUSH2 0xD12 JUMP JUMPDEST PUSH2 0x38B DUP14 DUP6 PUSH1 0x0 ADD MLOAD DUP4 DUP8 PUSH1 0x40 ADD MLOAD PUSH1 0x0 PUSH2 0xDB8 JUMP JUMPDEST POP PUSH2 0x3A1 DUP16 DUP16 DUP7 PUSH1 0x0 ADD MLOAD DUP11 PUSH1 0x20 ADD MLOAD DUP6 PUSH2 0xE61 JUMP JUMPDEST PUSH2 0x3B7 DUP14 DUP6 PUSH1 0x20 ADD MLOAD DUP5 DUP8 PUSH1 0x60 ADD MLOAD PUSH1 0x0 PUSH2 0xEF8 JUMP JUMPDEST POP PUSH2 0x3C8 DUP14 DUP16 DUP7 PUSH1 0x20 ADD MLOAD DUP6 PUSH2 0xD12 JUMP JUMPDEST PUSH2 0x3DD DUP16 DUP16 DUP7 PUSH1 0x20 ADD MLOAD DUP11 PUSH1 0x20 ADD MLOAD DUP7 PUSH2 0xE61 JUMP JUMPDEST POP POP PUSH1 0x1 PUSH1 0xA SSTORE POP SWAP5 SWAP12 SWAP11 POP POP POP POP POP POP POP POP POP POP POP JUMP JUMPDEST PUSH1 0x2 SLOAD PUSH1 0x1 PUSH1 0x1 PUSH1 0xA0 SHL SUB AND DUP2 JUMP JUMPDEST PUSH1 0x1 SLOAD PUSH1 0x1 PUSH1 0x1 PUSH1 0xA0 SHL SUB AND DUP2 JUMP JUMPDEST PUSH1 0x0 SLOAD PUSH5 0x100000000 SWAP1 DIV PUSH1 0x1 PUSH1 0x1 PUSH1 0xA0 SHL SUB AND DUP2 JUMP JUMPDEST PUSH1 0x0 PUSH1 0x2 PUSH1 0xA SLOAD EQ ISZERO PUSH2 0x43C JUMPI PUSH1 0x0 DUP1 REVERT JUMPDEST PUSH1 0x2 PUSH1 0xA SSTORE PUSH1 0x0 DUP1 DUP1 PUSH2 0x450 DUP10 DUP10 DUP10 PUSH2 0x7C5 JUMP JUMPDEST SWAP3 POP SWAP3 POP SWAP3 POP PUSH1 0x0 PUSH2 0x460 PUSH2 0x515C JUMP JUMPDEST PUSH1 0x0 DUP1 DUP10 PUSH2 0x483 JUMPI POP POP POP POP PUSH1 0x40 DUP4 ADD MLOAD PUSH2 0x160 DUP5 ADD MLOAD DUP4 MLOAD PUSH1 0x80 DUP6 ADD MLOAD PUSH2 0x4A2 JUMP JUMPDEST PUSH1 0x3 DUP11 LT ISZERO PUSH2 0x70 JUMPI PUSH2 0x497 DUP8 DUP12 DUP16 PUSH2 0xF6E JUMP JUMPDEST SWAP3 SWAP7 POP SWAP1 SWAP5 POP SWAP3 POP SWAP1 POP JUMPDEST PUSH1 0x20 DUP7 ADD MLOAD PUSH1 0x40 MLOAD PUSH4 0xF82F279D PUSH1 0xE0 SHL DUP2 MSTORE PUSH1 0x0 SWAP2 DUP3 SWAP2 ADDRESS SWAP2 PUSH4 0xF82F279D SWAP2 PUSH2 0x4D1 SWAP2 DUP11 SWAP2 DUP9 SWAP1 PUSH1 0x4 ADD PUSH2 0x5CC0 JUMP JUMPDEST PUSH1 0x40 DUP1 MLOAD DUP1 DUP4 SUB DUP2 DUP7 DUP1 EXTCODESIZE ISZERO DUP1 ISZERO PUSH2 0x4E8 JUMPI PUSH1 0x0 DUP1 REVERT JUMPDEST POP GAS STATICCALL ISZERO DUP1 ISZERO PUSH2 0x4FC JUMPI RETURNDATASIZE PUSH1 0x0 DUP1 RETURNDATACOPY RETURNDATASIZE PUSH1 0x0 REVERT JUMPDEST POP POP POP POP PUSH1 0x40 MLOAD RETURNDATASIZE PUSH1 0x1F NOT PUSH1 0x1F DUP3 ADD AND DUP3 ADD DUP1 PUSH1 0x40 MSTORE POP DUP2 ADD SWAP1 PUSH2 0x520 SWAP2 SWAP1 PUSH2 0x583C JUMP JUMPDEST SWAP1 SWAP3 POP SWAP1 POP PUSH2 0x539 PUSH2 0x532 DUP13 DUP4 PUSH2 0x1008 JUMP JUMPDEST DUP7 SWAP1 PUSH2 0xB4A JUMP JUMPDEST SWAP10 POP DUP3 DUP11 SGT ISZERO PUSH2 0x54A JUMPI DUP2 SWAP11 POP DUP3 SWAP10 POP JUMPDEST POP POP DUP9 PUSH1 0x0 SLT DUP1 ISZERO PUSH2 0x564 JUMPI POP PUSH2 0x560 DUP3 PUSH2 0xB9F JUMP JUMPDEST DUP10 SGT ISZERO JUMPDEST PUSH2 0x56D JUMPI PUSH1 0x0 DUP1 REVERT JUMPDEST PUSH2 0x57B DUP7 DUP13 DUP15 DUP8 DUP14 DUP14 PUSH2 0x1021 JUMP JUMPDEST PUSH2 0x58A DUP8 DUP7 DUP9 DUP14 DUP14 PUSH1 0x0 PUSH2 0x1194 JUMP JUMPDEST PUSH2 0x5A3 DUP8 DUP12 PUSH2 0x598 DUP12 PUSH2 0xB9F JUMP JUMPDEST DUP10 SWAP3 SWAP2 SWAP1 PUSH1 0x0 PUSH2 0xBAD JUMP JUMPDEST POP POP PUSH1 0x1 PUSH1 0xA SSTORE POP SWAP4 SWAP10 SWAP9 POP POP POP POP POP POP POP POP POP JUMP JUMPDEST PUSH20 0x0 PUSH20 0x0 SWAP1 SWAP2 JUMP JUMPDEST PUSH1 0x0 DUP1 PUSH1 0x2 PUSH1 0xA SLOAD EQ ISZERO PUSH2 0x5FA JUMPI PUSH1 0x0 DUP1 REVERT JUMPDEST PUSH1 0x2 PUSH1 0xA SSTORE PUSH1 0x3 PUSH2 0xFFFF DUP6 AND LT PUSH2 0x610 JUMPI PUSH1 0x0 DUP1 REVERT JUMPDEST PUSH1 0x0 DUP1 PUSH1 0x0 PUSH2 0x620 DUP11 DUP11 DUP11 PUSH2 0x7C5 JUMP JUMPDEST SWAP3 POP SWAP3 POP SWAP3 POP PUSH2 0x62E PUSH2 0x515C JUMP JUMPDEST PUSH1 0x40 MLOAD PUSH4 0xC74DB1F PUSH1 0xE4 SHL DUP2 MSTORE ADDRESS SWAP1 PUSH4 0xC74DB1F0 SWAP1 PUSH2 0x659 SWAP1 DUP12 SWAP1 DUP8 SWAP1 DUP10 SWAP1 DUP9 SWAP1 DUP15 SWAP1 PUSH1 0x4 ADD PUSH2 0x5CDC JUMP JUMPDEST PUSH1 0xA0 PUSH1 0x40 MLOAD DUP1 DUP4 SUB DUP2 PUSH1 0x0 DUP8 DUP1 EXTCODESIZE ISZERO DUP1 ISZERO PUSH2 0x673 JUMPI PUSH1 0x0 DUP1 REVERT JUMPDEST POP GAS CALL ISZERO DUP1 ISZERO PUSH2 0x687 JUMPI RETURNDATASIZE PUSH1 0x0 DUP1 RETURNDATACOPY RETURNDATASIZE PUSH1 0x0 REVERT JUMPDEST POP POP POP POP PUSH1 0x40 MLOAD RETURNDATASIZE PUSH1 0x1F NOT PUSH1 0x1F DUP3 ADD AND DUP3 ADD DUP1 PUSH1 0x40 MSTORE POP DUP2 ADD SWAP1 PUSH2 0x6AB SWAP2 SWAP1 PUSH2 0x585F JUMP JUMPDEST SWAP2 SWAP9 POP SWAP7 POP SWAP1 POP PUSH1 0x0 DUP8 SGT PUSH2 0x6BF JUMPI PUSH1 0x0 DUP1 REVERT JUMPDEST PUSH1 0x40 DUP5 ADD MLOAD PUSH1 0x1 PUSH2 0xFFFF DUP11 AND EQ ISZERO PUSH2 0x6DE JUMPI POP PUSH2 0x140 DUP5 ADD MLOAD MLOAD PUSH2 0x6F7 JUMP JUMPDEST DUP9 PUSH2 0xFFFF AND PUSH1 0x2 EQ ISZERO PUSH2 0x6F7 JUMPI POP PUSH2 0x140 DUP5 ADD MLOAD PUSH1 0x20 ADD MLOAD JUMPDEST PUSH1 0x0 PUSH2 0x706 DUP3 PUSH2 0xFFFF AND PUSH2 0x126D JUMP JUMPDEST SWAP1 POP PUSH2 0x71F DUP12 DUP4 PUSH2 0x717 DUP5 DUP14 PUSH2 0x1280 JUMP JUMPDEST DUP7 PUSH1 0x0 PUSH2 0x12B8 JUMP JUMPDEST SWAP1 POP DUP1 SWAP8 POP POP PUSH2 0x738 DUP12 DUP15 DUP15 DUP6 DUP9 PUSH1 0x0 ADD MLOAD DUP13 DUP10 PUSH2 0x137A JUMP JUMPDEST PUSH2 0x74E DUP12 DUP15 DUP15 DUP10 PUSH1 0x40 ADD MLOAD DUP9 PUSH1 0x0 ADD MLOAD DUP14 PUSH2 0x145F JUMP JUMPDEST PUSH1 0x40 DUP6 ADD MLOAD PUSH2 0x75D SWAP1 DUP10 PUSH2 0x14AD JUMP JUMPDEST PUSH1 0x40 DUP7 ADD MSTORE PUSH1 0x20 DUP6 ADD MLOAD PUSH5 0xFFFFFFFFFF EQ ISZERO PUSH2 0x78B JUMPI PUSH2 0x786 DUP7 DUP6 DUP8 DUP14 PUSH2 0xFFFF AND DUP14 PUSH1 0x1 PUSH2 0x1194 JUMP JUMPDEST PUSH1 0x0 SWAP7 POP JUMPDEST PUSH2 0x79D DUP6 DUP8 PUSH2 0xFFFF DUP14 AND DUP11 PUSH1 0x1 PUSH2 0xBAD JUMP JUMPDEST PUSH2 0x7AD DUP12 DUP8 DUP11 DUP9 PUSH1 0x20 ADD MLOAD PUSH2 0x14C2 JUMP JUMPDEST POP POP POP POP POP POP PUSH1 0x1 PUSH1 0xA DUP2 SWAP1 SSTORE POP SWAP6 POP SWAP6 SWAP4 POP POP POP POP JUMP JUMPDEST PUSH2 0x7CD PUSH2 0x517D JUMP JUMPDEST PUSH2 0x7D5 PUSH2 0x5216 JUMP JUMPDEST PUSH2 0x7DD PUSH2 0x5255 JUMP JUMPDEST PUSH2 0x7E6 DUP5 PUSH2 0x152B JUMP JUMPDEST DUP5 PUSH1 0x1 PUSH1 0x1 PUSH1 0xA0 SHL SUB AND DUP5 PUSH1 0x1 PUSH1 0x1 PUSH1 0xA0 SHL SUB AND EQ ISZERO PUSH2 0x805 JUMPI PUSH1 0x0 DUP1 REVERT JUMPDEST PUSH1 0x1 PUSH1 0x1 PUSH1 0xA0 SHL SUB DUP7 AND CALLER EQ ISZERO PUSH2 0x81B JUMPI PUSH1 0x0 DUP1 REVERT JUMPDEST DUP4 PUSH1 0x1 PUSH1 0x1 PUSH1 0xA0 SHL SUB AND DUP7 PUSH1 0x1 PUSH1 0x1 PUSH1 0xA0 SHL SUB AND EQ ISZERO PUSH2 0x83A JUMPI PUSH1 0x0 DUP1 REVERT JUMPDEST PUSH2 0x843 DUP6 PUSH2 0x15AA JUMP JUMPDEST SWAP3 POP PUSH2 0x851 DUP4 PUSH2 0x100 PUSH2 0x15D5 JUMP JUMPDEST ISZERO PUSH2 0x85B JUMPI PUSH1 0x0 DUP1 REVERT JUMPDEST PUSH2 0x866 DUP4 PUSH1 0x20 PUSH2 0x15D5 JUMP JUMPDEST ISZERO PUSH2 0x885 JUMPI CALLER PUSH1 0x1 PUSH1 0x1 PUSH1 0xA0 SHL SUB DUP7 AND EQ PUSH2 0x880 JUMPI PUSH1 0x0 DUP1 REVERT JUMPDEST PUSH2 0x89A JUMP JUMPDEST CALLER PUSH1 0x1 PUSH1 0x1 PUSH1 0xA0 SHL SUB DUP6 AND EQ PUSH2 0x89A JUMPI PUSH1 0x0 DUP1 REVERT JUMPDEST PUSH2 0x8A4 DUP7 DUP5 PUSH2 0x15EA JUMP JUMPDEST SWAP2 POP DUP2 PUSH1 0x20 ADD MLOAD TIMESTAMP LT PUSH2 0x8D2 JUMPI PUSH1 0x40 MLOAD PUSH3 0x461BCD PUSH1 0xE5 SHL DUP2 MSTORE PUSH1 0x4 ADD PUSH2 0x8C9 SWAP1 PUSH2 0x5C2D JUMP JUMPDEST PUSH1 0x40 MLOAD DUP1 SWAP2 SUB SWAP1 REVERT JUMPDEST PUSH1 0x20 DUP3 ADD MLOAD PUSH5 0xFFFFFFFFFF EQ ISZERO PUSH2 0x8F4 JUMPI PUSH2 0x8ED DUP3 DUP5 PUSH2 0x1699 JUMP JUMPDEST SWAP1 POP PUSH2 0x905 JUMP JUMPDEST PUSH2 0x902 DUP4 DUP4 PUSH1 0x20 ADD MLOAD PUSH2 0x16DE JUMP JUMPDEST SWAP1 POP JUMPDEST SWAP4 POP SWAP4 POP SWAP4 SWAP1 POP JUMP JUMPDEST PUSH2 0x140 DUP2 ADD MLOAD MLOAD PUSH1 0x0 SWAP1 PUSH2 0xFFFF AND ISZERO ISZERO DUP1 PUSH2 0x935 JUMPI POP PUSH2 0x140 DUP3 ADD MLOAD PUSH1 0x20 ADD MLOAD PUSH2 0xFFFF AND ISZERO ISZERO JUMPDEST SWAP1 POP JUMPDEST SWAP2 SWAP1 POP JUMP JUMPDEST PUSH2 0x945 PUSH2 0x527F JUMP JUMPDEST PUSH2 0x140 DUP3 ADD MLOAD MLOAD PUSH2 0xFFFF AND ISZERO PUSH2 0x96F JUMPI PUSH2 0x140 DUP3 ADD MLOAD PUSH2 0x96C SWAP1 PUSH1 0x0 JUMPDEST PUSH1 0x20 MUL ADD MLOAD PUSH2 0x1769 JUMP JUMPDEST DUP2 MSTORE JUMPDEST PUSH2 0x140 DUP3 ADD MLOAD PUSH1 0x20 ADD MLOAD PUSH2 0xFFFF AND ISZERO PUSH2 0x938 JUMPI PUSH2 0x140 DUP3 ADD MLOAD PUSH2 0x993 SWAP1 PUSH1 0x1 PUSH2 0x962 JUMP JUMPDEST PUSH1 0x20 DUP3 ADD MSTORE SWAP2 SWAP1 POP JUMP JUMPDEST PUSH2 0x9A5 PUSH2 0x52AC JUMP JUMPDEST DUP3 PUSH2 0x9C5 JUMPI PUSH1 0x40 DUP1 DUP7 ADD MLOAD PUSH2 0xFFFF AND DUP3 MSTORE PUSH2 0x160 DUP7 ADD MLOAD SWAP1 DUP3 ADD MSTORE PUSH2 0x9FF JUMP JUMPDEST DUP5 PUSH2 0x140 ADD MLOAD PUSH1 0x1 DUP5 SUB PUSH1 0x2 DUP2 LT PUSH2 0x9D9 JUMPI INVALID JUMPDEST PUSH1 0x20 MUL ADD MLOAD PUSH2 0xFFFF AND DUP2 MSTORE DUP4 PUSH1 0x0 NOT DUP5 ADD PUSH1 0x2 DUP2 LT PUSH2 0x9F4 JUMPI INVALID JUMPDEST PUSH1 0x20 MUL ADD MLOAD PUSH1 0x40 DUP3 ADD MSTORE JUMPDEST DUP2 PUSH2 0xA22 JUMPI PUSH1 0x40 DUP6 ADD MLOAD PUSH2 0xFFFF AND PUSH1 0x20 DUP3 ADD MSTORE PUSH2 0x160 DUP6 ADD MLOAD PUSH1 0x60 DUP3 ADD MSTORE PUSH2 0xA63 JUMP JUMPDEST DUP5 PUSH2 0x140 ADD MLOAD PUSH1 0x1 DUP4 SUB PUSH1 0x2 DUP2 LT PUSH2 0xA36 JUMPI INVALID JUMPDEST PUSH1 0x20 SWAP1 DUP2 MUL SWAP2 SWAP1 SWAP2 ADD MLOAD PUSH2 0xFFFF AND SWAP1 DUP3 ADD MSTORE DUP4 PUSH1 0x0 NOT DUP4 ADD PUSH1 0x2 DUP2 LT PUSH2 0xA58 JUMPI INVALID JUMPDEST PUSH1 0x20 MUL ADD MLOAD PUSH1 0x60 DUP3 ADD MSTORE JUMPDEST PUSH1 0x0 PUSH2 0xA76 DUP3 PUSH1 0x0 ADD MLOAD PUSH2 0xFFFF AND PUSH2 0x177B JUMP JUMPDEST SWAP1 POP PUSH1 0x0 PUSH2 0xA8B DUP4 PUSH1 0x20 ADD MLOAD PUSH2 0xFFFF AND PUSH2 0x177B JUMP JUMPDEST SWAP1 POP PUSH2 0xA97 DUP3 DUP3 PUSH2 0x18DE JUMP JUMPDEST PUSH1 0x80 DUP5 ADD MSTORE POP MLOAD PUSH1 0xA0 DUP3 ADD MSTORE SWAP5 SWAP4 POP POP POP POP JUMP JUMPDEST PUSH1 0x0 PUSH1 0x1 PUSH1 0x1 PUSH1 0xFF SHL SUB DUP3 GT ISZERO PUSH2 0xAC1 JUMPI PUSH1 0x0 DUP1 REVERT JUMPDEST POP SWAP1 JUMP JUMPDEST DUP2 DUP2 MUL PUSH1 0x0 NOT DUP4 EQ ISZERO PUSH2 0xAF5 JUMPI DUP2 ISZERO DUP1 PUSH2 0xAE7 JUMPI POP DUP3 DUP3 DUP3 DUP2 PUSH2 0xAE4 JUMPI INVALID JUMPDEST SDIV EQ JUMPDEST PUSH2 0xAF0 JUMPI PUSH1 0x0 DUP1 REVERT JUMPDEST PUSH2 0xB13 JUMP JUMPDEST DUP3 ISZERO DUP1 PUSH2 0xB0A JUMPI POP DUP2 DUP4 DUP3 DUP2 PUSH2 0xB07 JUMPI INVALID JUMPDEST SDIV EQ JUMPDEST PUSH2 0xB13 JUMPI PUSH1 0x0 DUP1 REVERT JUMPDEST SWAP3 SWAP2 POP POP JUMP JUMPDEST PUSH1 0x0 DUP2 PUSH1 0x0 NOT EQ DUP1 ISZERO PUSH2 0xB2F JUMPI POP PUSH1 0x1 PUSH1 0xFF SHL DUP4 EQ JUMPDEST ISZERO PUSH2 0xB39 JUMPI PUSH1 0x0 DUP1 REVERT JUMPDEST DUP2 DUP4 DUP2 PUSH2 0xB42 JUMPI INVALID JUMPDEST SDIV SWAP4 SWAP3 POP POP POP JUMP JUMPDEST DUP2 MLOAD PUSH1 0x0 SWAP1 PUSH2 0xB6C SWAP1 PUSH2 0x2AA DUP5 PUSH15 0xC097CE7BC90715B34B9F1000000000 PUSH2 0xAC5 JUMP JUMPDEST SWAP4 SWAP3 POP POP POP JUMP JUMPDEST PUSH1 0x0 PUSH2 0xB6C PUSH15 0xC097CE7BC90715B34B9F1000000000 PUSH2 0x2AA DUP6 PUSH1 0x0 ADD MLOAD DUP6 PUSH2 0xAC5 SWAP1 SWAP2 SWAP1 PUSH4 0xFFFFFFFF AND JUMP JUMPDEST PUSH1 0x0 PUSH2 0x935 PUSH1 0x0 NOT DUP4 PUSH2 0xAC5 JUMP JUMPDEST PUSH1 0x0 PUSH2 0xBB7 PUSH2 0x1903 JUMP JUMPDEST PUSH1 0x60 DUP8 ADD MLOAD PUSH1 0x1 PUSH1 0x1 PUSH1 0xA0 SHL SUB SWAP1 DUP2 AND PUSH1 0x0 SWAP1 DUP2 MSTORE PUSH1 0x20 DUP4 DUP2 MSTORE PUSH1 0x40 DUP1 DUP4 KECCAK256 DUP11 MLOAD SWAP1 SWAP5 AND DUP4 MSTORE SWAP3 SWAP1 MSTORE KECCAK256 SWAP1 SWAP2 POP DUP5 PUSH2 0xC3A JUMPI PUSH1 0x1 DUP2 ADD SLOAD PUSH2 0xC13 SWAP1 PUSH2 0xC0E SWAP1 PUSH2 0xC09 SWAP1 PUSH1 0x1 PUSH1 0x1 PUSH1 0x50 SHL SUB AND DUP8 PUSH2 0x1910 JUMP JUMPDEST PUSH2 0x1926 JUMP JUMPDEST PUSH2 0x1935 JUMP JUMPDEST PUSH1 0x1 DUP3 ADD DUP1 SLOAD PUSH1 0x1 PUSH1 0x1 PUSH1 0x50 SHL SUB NOT AND PUSH1 0x1 PUSH1 0x1 PUSH1 0x50 SHL SUB SWAP3 SWAP1 SWAP3 AND SWAP2 SWAP1 SWAP2 OR SWAP1 SSTORE PUSH2 0xCF0 JUMP JUMPDEST DUP5 PUSH1 0x1 EQ ISZERO PUSH2 0xC97 JUMPI PUSH1 0x1 DUP2 ADD SLOAD PUSH2 0xC6A SWAP1 PUSH2 0xC0E SWAP1 PUSH2 0xC09 SWAP1 PUSH1 0x1 PUSH1 0x50 SHL SWAP1 DIV PUSH1 0x1 PUSH1 0x1 PUSH1 0x50 SHL SUB AND DUP8 PUSH2 0x1910 JUMP JUMPDEST DUP2 PUSH1 0x1 ADD PUSH1 0xA PUSH2 0x100 EXP DUP2 SLOAD DUP2 PUSH1 0x1 PUSH1 0x1 PUSH1 0x50 SHL SUB MUL NOT AND SWAP1 DUP4 PUSH1 0x1 PUSH1 0x1 PUSH1 0x50 SHL SUB AND MUL OR SWAP1 SSTORE POP PUSH2 0xCF0 JUMP JUMPDEST DUP5 PUSH1 0x2 EQ ISZERO PUSH2 0x70 JUMPI PUSH1 0x1 DUP2 ADD SLOAD PUSH2 0xCC7 SWAP1 PUSH2 0xC0E SWAP1 PUSH2 0xC09 SWAP1 PUSH1 0x1 PUSH1 0xA0 SHL SWAP1 DIV PUSH1 0x1 PUSH1 0x1 PUSH1 0x50 SHL SUB AND DUP8 PUSH2 0x1910 JUMP JUMPDEST DUP2 PUSH1 0x1 ADD PUSH1 0x14 PUSH2 0x100 EXP DUP2 SLOAD DUP2 PUSH1 0x1 PUSH1 0x1 PUSH1 0x50 SHL SUB MUL NOT AND SWAP1 DUP4 PUSH1 0x1 PUSH1 0x1 PUSH1 0x50 SHL SUB AND MUL OR SWAP1 SSTORE POP JUMPDEST PUSH1 0x0 DUP8 PUSH1 0x80 ADD DUP2 DUP2 MSTORE POP POP PUSH2 0xD09 DUP8 DUP8 DUP4 DUP7 PUSH1 0x0 PUSH2 0x194B JUMP JUMPDEST POP POP POP POP POP POP POP JUMP JUMPDEST PUSH1 0x0 PUSH2 0xD1C PUSH2 0x1BB9 JUMP JUMPDEST PUSH2 0xFFFF DUP5 AND PUSH1 0x0 SWAP1 DUP2 MSTORE PUSH1 0x20 SWAP2 SWAP1 SWAP2 MSTORE PUSH1 0x40 DUP2 KECCAK256 SLOAD PUSH1 0x1 PUSH1 0x1 PUSH1 0xA0 SHL SUB AND SWAP2 POP DUP3 SLT ISZERO PUSH2 0xD47 JUMPI SWAP3 SWAP4 SWAP3 JUMPDEST DUP1 PUSH1 0x1 PUSH1 0x1 PUSH1 0xA0 SHL SUB AND PUSH4 0x23DE6651 DUP7 DUP7 PUSH2 0xD61 DUP7 PUSH2 0x1BC6 JUMP JUMPDEST PUSH1 0x40 MLOAD DUP5 PUSH4 0xFFFFFFFF AND PUSH1 0xE0 SHL DUP2 MSTORE PUSH1 0x4 ADD PUSH2 0xD7F SWAP4 SWAP3 SWAP2 SWAP1 PUSH2 0x5B72 JUMP JUMPDEST PUSH1 0x0 PUSH1 0x40 MLOAD DUP1 DUP4 SUB DUP2 PUSH1 0x0 DUP8 DUP1 EXTCODESIZE ISZERO DUP1 ISZERO PUSH2 0xD99 JUMPI PUSH1 0x0 DUP1 REVERT JUMPDEST POP GAS CALL ISZERO DUP1 ISZERO PUSH2 0xDAD JUMPI RETURNDATASIZE PUSH1 0x0 DUP1 RETURNDATACOPY RETURNDATASIZE PUSH1 0x0 REVERT JUMPDEST POP POP POP POP POP POP POP POP POP JUMP JUMPDEST PUSH1 0x0 DUP4 PUSH2 0xDC7 JUMPI POP PUSH1 0x0 PUSH2 0xE58 JUMP JUMPDEST PUSH1 0x0 DUP5 SLT PUSH2 0xDD4 JUMPI PUSH1 0x0 DUP1 REVERT JUMPDEST PUSH1 0x0 PUSH2 0xDE3 DUP7 PUSH2 0xFFFF AND PUSH2 0x126D JUMP JUMPDEST SWAP1 POP PUSH2 0xDF8 DUP2 PUSH2 0xDF3 DUP7 DUP9 PUSH2 0xB73 JUMP JUMPDEST PUSH2 0x1280 JUMP JUMPDEST SWAP2 POP PUSH1 0x0 PUSH2 0xE05 DUP4 PUSH2 0xB9F JUMP JUMPDEST SWAP1 POP PUSH2 0xE12 DUP8 DUP4 DUP4 PUSH2 0x1BE7 JUMP JUMPDEST PUSH1 0x3 DUP3 PUSH1 0x60 ADD MLOAD PUSH1 0x5 DUP2 GT ISZERO PUSH2 0xE24 JUMPI INVALID JUMPDEST EQ ISZERO PUSH2 0xE3A JUMPI PUSH2 0xE35 DUP9 DUP3 DUP7 PUSH2 0x1CDA JUMP JUMPDEST PUSH2 0xE47 JUMP JUMPDEST DUP2 MLOAD PUSH2 0xE47 SWAP1 DUP10 DUP4 PUSH2 0x1DA8 JUMP JUMPDEST PUSH2 0xE54 DUP9 DUP9 DUP6 DUP6 DUP10 PUSH2 0x1E1F JUMP JUMPDEST POP POP POP JUMPDEST SWAP6 SWAP5 POP POP POP POP POP JUMP JUMPDEST DUP1 PUSH2 0xE6B JUMPI PUSH2 0xEF1 JUMP JUMPDEST PUSH1 0x0 PUSH2 0xE7A DUP6 DUP6 DUP6 PUSH1 0xB PUSH2 0x1E66 JUMP JUMPDEST SWAP1 POP PUSH1 0x0 DUP1 PUSH1 0x0 DUP5 SLT ISZERO PUSH2 0xE93 JUMPI POP DUP7 SWAP1 POP PUSH1 0x0 PUSH2 0xE9A JUMP JUMPDEST POP PUSH1 0x0 SWAP1 POP DUP7 JUMPDEST PUSH1 0x0 PUSH2 0xEA5 DUP6 PUSH2 0x1BC6 JUMP JUMPDEST SWAP1 POP DUP2 PUSH1 0x1 PUSH1 0x1 PUSH1 0xA0 SHL SUB AND DUP4 PUSH1 0x1 PUSH1 0x1 PUSH1 0xA0 SHL SUB AND CALLER PUSH1 0x1 PUSH1 0x1 PUSH1 0xA0 SHL SUB AND PUSH1 0x0 DUP1 MLOAD PUSH1 0x20 PUSH2 0x5EF1 DUP4 CODECOPY DUP2 MLOAD SWAP2 MSTORE DUP8 DUP6 PUSH1 0x40 MLOAD PUSH2 0xEE4 SWAP3 SWAP2 SWAP1 PUSH2 0x5E3B JUMP JUMPDEST PUSH1 0x40 MLOAD DUP1 SWAP2 SUB SWAP1 LOG4 POP POP POP POP JUMPDEST POP POP POP POP POP JUMP JUMPDEST PUSH1 0x0 DUP4 PUSH2 0xF07 JUMPI POP PUSH1 0x0 PUSH2 0xE58 JUMP JUMPDEST PUSH1 0x0 DUP5 SGT PUSH2 0xF14 JUMPI PUSH1 0x0 DUP1 REVERT JUMPDEST PUSH1 0x0 PUSH2 0xF23 DUP7 PUSH2 0xFFFF AND PUSH2 0x126D JUMP JUMPDEST SWAP1 POP PUSH1 0x0 PUSH2 0xF3A DUP3 PUSH2 0xF35 DUP8 DUP10 PUSH2 0xB73 JUMP JUMPDEST PUSH2 0x1E9C JUMP JUMPDEST SWAP1 POP PUSH1 0x0 PUSH2 0xF4B DUP10 DUP10 DUP5 DUP10 DUP10 PUSH2 0x12B8 JUMP JUMPDEST SWAP1 SWAP5 POP SWAP1 POP DUP7 DUP2 SUB PUSH1 0x0 DUP2 SLT ISZERO PUSH2 0xF61 JUMPI PUSH1 0x0 DUP1 REVERT JUMPDEST POP POP POP POP SWAP6 SWAP5 POP POP POP POP POP JUMP JUMPDEST PUSH1 0x0 PUSH2 0xF78 PUSH2 0x515C JUMP JUMPDEST PUSH1 0x0 DUP1 PUSH1 0x0 PUSH2 0xF86 DUP9 PUSH2 0x93D JUMP JUMPDEST SWAP1 POP PUSH1 0x0 DUP1 PUSH2 0xF96 DUP11 DUP10 DUP6 PUSH2 0x1ED9 JUMP JUMPDEST SWAP3 POP SWAP3 POP POP PUSH1 0x0 DUP1 PUSH2 0xFAC DUP11 DUP14 PUSH1 0x0 ADD MLOAD PUSH2 0x1F6D JUMP JUMPDEST SWAP2 POP SWAP2 POP DUP12 PUSH2 0x140 ADD MLOAD PUSH1 0x1 DUP13 SUB PUSH1 0x2 DUP2 LT PUSH2 0xFC4 JUMPI INVALID JUMPDEST PUSH1 0x20 MUL ADD MLOAD SWAP9 POP DUP5 PUSH1 0x1 DUP13 SUB PUSH1 0x2 DUP2 LT PUSH2 0xFDA JUMPI INVALID JUMPDEST PUSH1 0x20 MUL ADD MLOAD SWAP8 POP DUP11 PUSH1 0x1 EQ PUSH2 0xFF0 JUMPI DUP3 DUP2 PUSH2 0xFF3 JUMP JUMPDEST DUP4 DUP3 JUMPDEST SWAP10 SWAP14 SWAP9 SWAP13 POP SWAP11 POP SWAP8 SWAP9 POP SWAP6 SWAP7 POP POP POP POP POP POP POP JUMP JUMPDEST PUSH1 0x0 PUSH2 0xB6C PUSH2 0x1017 DUP5 DUP5 PUSH2 0xAC5 JUMP JUMPDEST PUSH4 0x3B9ACA00 PUSH2 0xB19 JUMP JUMPDEST PUSH1 0x60 DUP7 ADD MLOAD PUSH1 0x20 DUP8 ADD MLOAD PUSH1 0x40 MLOAD PUSH4 0x51586B33 PUSH1 0xE0 SHL DUP2 MSTORE PUSH1 0x0 SWAP3 PUSH20 0x0 SWAP3 PUSH4 0x51586B33 SWAP3 PUSH2 0x106E SWAP3 DUP12 SWAP3 DUP12 SWAP3 DUP12 SWAP2 SWAP1 DUP12 SWAP1 DUP12 SWAP1 PUSH1 0x4 ADD PUSH2 0x5B2D JUMP JUMPDEST PUSH1 0x20 PUSH1 0x40 MLOAD DUP1 DUP4 SUB DUP2 DUP7 DUP1 EXTCODESIZE ISZERO DUP1 ISZERO PUSH2 0x1086 JUMPI PUSH1 0x0 DUP1 REVERT JUMPDEST POP GAS DELEGATECALL ISZERO DUP1 ISZERO PUSH2 0x109A JUMPI RETURNDATASIZE PUSH1 0x0 DUP1 RETURNDATACOPY RETURNDATASIZE PUSH1 0x0 REVERT JUMPDEST POP POP POP POP PUSH1 0x40 MLOAD RETURNDATASIZE PUSH1 0x1F NOT PUSH1 0x1F DUP3 ADD AND DUP3 ADD DUP1 PUSH1 0x40 MSTORE POP DUP2 ADD SWAP1 PUSH2 0x10BE SWAP2 SWAP1 PUSH2 0x581C JUMP JUMPDEST SWAP1 POP DUP1 ISZERO PUSH2 0x112E JUMPI PUSH1 0x40 MLOAD PUSH4 0x6CCC642F PUSH1 0xE0 SHL DUP2 MSTORE PUSH20 0x0 SWAP1 PUSH4 0x6CCC642F SWAP1 PUSH2 0x10FD SWAP1 DUP10 SWAP1 PUSH1 0x4 ADD PUSH2 0x5AFF JUMP JUMPDEST PUSH1 0x0 PUSH1 0x40 MLOAD DUP1 DUP4 SUB DUP2 DUP7 DUP1 EXTCODESIZE ISZERO DUP1 ISZERO PUSH2 0x1115 JUMPI PUSH1 0x0 DUP1 REVERT JUMPDEST POP GAS DELEGATECALL ISZERO DUP1 ISZERO PUSH2 0x1129 JUMPI RETURNDATASIZE PUSH1 0x0 DUP1 RETURNDATACOPY RETURNDATASIZE PUSH1 0x0 REVERT JUMPDEST POP POP POP POP JUMPDEST DUP6 PUSH1 0x1 PUSH1 0x1 PUSH1 0xA0 SHL SUB AND DUP8 PUSH1 0x60 ADD MLOAD PUSH1 0x1 PUSH1 0x1 PUSH1 0xA0 SHL SUB AND DUP7 PUSH1 0x1 PUSH1 0x1 PUSH1 0xA0 SHL SUB AND PUSH32 0x19B09F1F990520654BEA0360DD08A2678D6926FD849DD49BC385862DC91AF753 DUP8 DUP8 DUP8 PUSH1 0x40 MLOAD PUSH2 0x1183 SWAP4 SWAP3 SWAP2 SWAP1 PUSH2 0x5CC0 JUMP JUMPDEST PUSH1 0x40 MLOAD DUP1 SWAP2 SUB SWAP1 LOG4 POP POP POP POP POP POP POP JUMP JUMPDEST DUP3 PUSH2 0x11B5 JUMPI PUSH2 0x11A6 DUP5 DUP7 DUP5 PUSH1 0x0 PUSH2 0x1FC3 JUMP JUMPDEST PUSH2 0x11B0 DUP6 DUP8 PUSH2 0x202E JUMP JUMPDEST PUSH2 0x1265 JUMP JUMPDEST PUSH1 0x0 PUSH2 0x11C0 DUP8 PUSH2 0x93D JUMP JUMPDEST SWAP1 POP PUSH1 0x0 DUP1 PUSH2 0x11FE DUP10 DUP9 PUSH1 0x60 ADD MLOAD DUP10 PUSH1 0x20 ADD MLOAD DUP10 PUSH1 0x1 EQ PUSH2 0x11E2 JUMPI PUSH1 0x0 PUSH2 0x11E4 JUMP JUMPDEST DUP9 JUMPDEST DUP11 PUSH1 0x2 EQ PUSH2 0x11F3 JUMPI PUSH1 0x0 PUSH2 0x11F5 JUMP JUMPDEST DUP10 JUMPDEST DUP9 PUSH1 0x0 DUP1 PUSH2 0x20D7 JUMP JUMPDEST SWAP2 POP SWAP2 POP DUP4 ISZERO PUSH2 0xDAD JUMPI PUSH1 0x0 DUP7 PUSH1 0x1 EQ PUSH2 0x1218 JUMPI DUP2 PUSH2 0x121A JUMP JUMPDEST DUP3 JUMPDEST SWAP1 POP DUP1 ISZERO DUP1 PUSH2 0x1244 JUMPI POP DUP1 PUSH1 0x0 SUB DUP11 PUSH2 0x1A0 ADD MLOAD PUSH1 0x1 DUP10 SUB PUSH1 0x2 DUP2 LT PUSH2 0x123C JUMPI INVALID JUMPDEST PUSH1 0x20 MUL ADD MLOAD SGT ISZERO JUMPDEST PUSH2 0x1260 JUMPI PUSH1 0x40 MLOAD PUSH3 0x461BCD PUSH1 0xE5 SHL DUP2 MSTORE PUSH1 0x4 ADD PUSH2 0x8C9 SWAP1 PUSH2 0x5C9C JUMP JUMPDEST POP POP POP POP JUMPDEST POP POP POP POP POP POP JUMP JUMPDEST PUSH2 0x1275 PUSH2 0x52EC JUMP JUMPDEST PUSH2 0x935 DUP3 PUSH1 0x1 PUSH2 0x2309 JUMP JUMPDEST PUSH1 0x0 PUSH4 0x5F5E100 DUP4 PUSH1 0x40 ADD MLOAD EQ ISZERO PUSH2 0x1299 JUMPI POP DUP1 PUSH2 0xB13 JUMP JUMPDEST PUSH2 0xB6C PUSH4 0x5F5E100 PUSH2 0x2AA DUP6 PUSH1 0x40 ADD MLOAD DUP6 PUSH2 0xAC5 SWAP1 SWAP2 SWAP1 PUSH4 0xFFFFFFFF AND JUMP JUMPDEST PUSH1 0x0 DUP1 PUSH1 0x0 PUSH2 0x12C6 DUP7 PUSH2 0x1926 JUMP JUMPDEST SWAP1 POP DUP1 PUSH2 0x12DA JUMPI PUSH1 0x0 DUP1 SWAP3 POP SWAP3 POP POP PUSH2 0x1370 JUMP JUMPDEST PUSH1 0x0 PUSH2 0x12E9 DUP9 PUSH2 0xFFFF AND PUSH2 0x126D JUMP JUMPDEST SWAP1 POP PUSH1 0x3 DUP2 PUSH1 0x60 ADD MLOAD PUSH1 0x5 DUP2 GT ISZERO PUSH2 0x12FD JUMPI INVALID JUMPDEST EQ ISZERO PUSH2 0x1344 JUMPI CALLVALUE DUP3 LT ISZERO PUSH2 0x131D JUMPI PUSH2 0x1318 DUP10 DUP4 CALLVALUE SUB DUP8 PUSH2 0x1CDA JUMP JUMPDEST PUSH2 0x133C JUMP JUMPDEST CALLVALUE DUP3 EQ PUSH2 0x133C JUMPI PUSH1 0x40 MLOAD PUSH3 0x461BCD PUSH1 0xE5 SHL DUP2 MSTORE PUSH1 0x4 ADD PUSH2 0x8C9 SWAP1 PUSH2 0x5BDD JUMP JUMPDEST DUP7 SWAP4 POP PUSH2 0x135E JUMP JUMPDEST PUSH2 0x135B PUSH2 0x1356 DUP3 PUSH1 0x0 ADD MLOAD DUP12 DUP6 PUSH2 0x23A3 JUMP JUMPDEST PUSH2 0xAAB JUMP JUMPDEST SWAP4 POP JUMPDEST PUSH2 0x136B DUP10 DUP10 DUP7 DUP5 DUP11 PUSH2 0x1E1F JUMP JUMPDEST SWAP3 POP POP POP JUMPDEST SWAP6 POP SWAP6 SWAP4 POP POP POP POP JUMP JUMPDEST PUSH2 0x1386 DUP8 DUP7 DUP7 DUP6 PUSH2 0xD12 JUMP JUMPDEST PUSH1 0x0 PUSH2 0x1395 DUP7 DUP7 DUP7 PUSH1 0x0 PUSH2 0x1E66 JUMP JUMPDEST SWAP1 POP PUSH5 0xFFFFFFFFFF DUP5 EQ ISZERO PUSH2 0x1415 JUMPI PUSH1 0x0 PUSH2 0x13C0 PUSH2 0x13BB DUP5 PUSH2 0x13B6 DUP8 PUSH2 0xB9F JUMP JUMPDEST PUSH2 0x252B JUMP JUMPDEST PUSH2 0xB9F JUMP JUMPDEST SWAP1 POP DUP1 PUSH1 0x0 NOT EQ ISZERO PUSH2 0x13D0 JUMPI POP PUSH1 0x0 JUMPDEST PUSH1 0x0 PUSH1 0x1 PUSH1 0x1 PUSH1 0xA0 SHL SUB DUP10 AND CALLER PUSH1 0x0 DUP1 MLOAD PUSH1 0x20 PUSH2 0x5EF1 DUP4 CODECOPY DUP2 MLOAD SWAP2 MSTORE PUSH1 0xA DUP7 OR PUSH2 0x13F9 DUP7 PUSH2 0x1926 JUMP JUMPDEST PUSH1 0x40 MLOAD PUSH2 0x1407 SWAP3 SWAP2 SWAP1 PUSH2 0x5E3B JUMP JUMPDEST PUSH1 0x40 MLOAD DUP1 SWAP2 SUB SWAP1 LOG4 POP PUSH2 0x1455 JUMP JUMPDEST PUSH1 0x1 PUSH1 0x1 PUSH1 0xA0 SHL SUB DUP8 AND PUSH1 0x0 CALLER PUSH1 0x0 DUP1 MLOAD PUSH1 0x20 PUSH2 0x5EF1 DUP4 CODECOPY DUP2 MLOAD SWAP2 MSTORE PUSH1 0xB DUP6 OR PUSH2 0x143E DUP9 PUSH2 0x1926 JUMP JUMPDEST PUSH1 0x40 MLOAD PUSH2 0x144C SWAP3 SWAP2 SWAP1 PUSH2 0x5E3B JUMP JUMPDEST PUSH1 0x40 MLOAD DUP1 SWAP2 SUB SWAP1 LOG4 JUMPDEST POP POP POP POP POP POP POP POP JUMP JUMPDEST PUSH1 0x0 PUSH2 0x146E DUP6 DUP6 DUP6 PUSH1 0x9 PUSH2 0x1E66 JUMP JUMPDEST SWAP1 POP DUP7 PUSH1 0x1 PUSH1 0x1 PUSH1 0xA0 SHL SUB AND DUP7 PUSH1 0x1 PUSH1 0x1 PUSH1 0xA0 SHL SUB AND CALLER PUSH1 0x1 PUSH1 0x1 PUSH1 0xA0 SHL SUB AND PUSH1 0x0 DUP1 MLOAD PUSH1 0x20 PUSH2 0x5EF1 DUP4 CODECOPY DUP2 MLOAD SWAP2 MSTORE DUP5 DUP7 PUSH1 0x40 MLOAD PUSH2 0x1183 SWAP3 SWAP2 SWAP1 PUSH2 0x5E3B JUMP JUMPDEST PUSH1 0x0 DUP3 DUP3 GT ISZERO PUSH2 0x14BC JUMPI PUSH1 0x0 DUP1 REVERT JUMPDEST POP SWAP1 SUB SWAP1 JUMP JUMPDEST PUSH1 0x0 PUSH2 0x14CE DUP6 DUP6 PUSH2 0x15EA JUMP JUMPDEST SWAP1 POP DUP1 PUSH1 0x20 ADD MLOAD PUSH1 0x0 EQ DUP1 PUSH2 0x14E6 JUMPI POP DUP2 DUP2 PUSH1 0x20 ADD MLOAD EQ JUMPDEST PUSH2 0x1502 JUMPI PUSH1 0x40 MLOAD PUSH3 0x461BCD PUSH1 0xE5 SHL DUP2 MSTORE PUSH1 0x4 ADD PUSH2 0x8C9 SWAP1 PUSH2 0x5C02 JUMP JUMPDEST PUSH1 0x20 DUP2 ADD DUP3 SWAP1 MSTORE PUSH1 0x40 DUP2 ADD MLOAD PUSH2 0x1518 SWAP1 DUP5 PUSH2 0x256A JUMP JUMPDEST PUSH1 0x40 DUP3 ADD MSTORE PUSH2 0xEF1 DUP2 DUP6 PUSH1 0x1 PUSH1 0x0 PUSH2 0x257C JUMP JUMPDEST PUSH1 0x1 PUSH1 0x1 PUSH1 0xA0 SHL SUB DUP2 AND PUSH2 0x153E JUMPI PUSH1 0x0 DUP1 REVERT JUMPDEST PUSH1 0x1 PUSH1 0x1 PUSH1 0xA0 SHL SUB DUP2 AND PUSH2 0xFEE EQ ISZERO PUSH2 0x1556 JUMPI PUSH1 0x0 DUP1 REVERT JUMPDEST PUSH1 0x1 PUSH1 0x1 PUSH1 0xA0 SHL SUB DUP2 AND PUSH2 0x5E7 EQ ISZERO PUSH2 0x156E JUMPI PUSH1 0x0 DUP1 REVERT JUMPDEST PUSH1 0x1 PUSH1 0x1 PUSH1 0xA0 SHL SUB DUP2 AND ADDRESS EQ ISZERO PUSH2 0x1584 JUMPI PUSH1 0x0 DUP1 REVERT JUMPDEST PUSH1 0x0 PUSH2 0x158F DUP3 PUSH2 0x260C JUMP JUMPDEST POP POP POP POP PUSH2 0xFFFF AND SWAP1 POP DUP1 PUSH1 0x0 EQ PUSH2 0x15A6 JUMPI PUSH1 0x0 DUP1 REVERT JUMPDEST POP POP JUMP JUMPDEST PUSH2 0x15B2 PUSH2 0x517D JUMP JUMPDEST PUSH2 0x15BB DUP3 PUSH2 0x2678 JUMP JUMPDEST SWAP1 POP PUSH2 0x15CA DUP2 PUSH1 0x40 ADD MLOAD PUSH2 0x1769 JUMP JUMPDEST PUSH2 0x160 DUP3 ADD MSTORE SWAP2 SWAP1 POP JUMP JUMPDEST PUSH1 0x20 SWAP2 SWAP1 SWAP2 ADD MLOAD DUP2 AND PUSH2 0xFFFF SWAP1 DUP2 AND SWAP2 AND EQ SWAP1 JUMP JUMPDEST PUSH2 0x15F2 PUSH2 0x5216 JUMP JUMPDEST PUSH1 0x0 PUSH2 0x15FC PUSH2 0x1903 JUMP JUMPDEST PUSH1 0x1 PUSH1 0x1 PUSH1 0xA0 SHL SUB DUP1 DUP7 AND PUSH1 0x0 DUP2 DUP2 MSTORE PUSH1 0x20 DUP5 DUP2 MSTORE PUSH1 0x40 DUP1 DUP4 KECCAK256 DUP10 MLOAD SWAP1 SWAP6 AND DUP4 MSTORE SWAP4 DUP2 MSTORE SWAP1 DUP4 SWAP1 KECCAK256 DUP1 SLOAD PUSH5 0xFFFFFFFFFF PUSH1 0x1 PUSH1 0xA0 SHL DUP3 DIV AND SWAP3 DUP9 ADD DUP4 SWAP1 MSTORE PUSH1 0x1 PUSH1 0x1 PUSH1 0x50 SHL SUB PUSH1 0x1 PUSH1 0x50 SHL DUP3 DIV DUP2 AND SWAP6 DUP10 ADD SWAP6 SWAP1 SWAP6 MSTORE PUSH1 0x60 DUP9 ADD SWAP4 SWAP1 SWAP4 MSTORE PUSH1 0x1 DUP2 ADD SLOAD DUP5 AND PUSH1 0x80 DUP9 ADD MSTORE PUSH4 0xFFFFFFFF PUSH1 0x1 PUSH1 0xC8 SHL DUP5 DIV AND PUSH1 0xA0 DUP9 ADD MSTORE PUSH2 0x160 DUP9 ADD MLOAD SWAP5 SWAP6 POP SWAP4 PUSH2 0x168E SWAP4 SWAP1 SWAP3 AND PUSH2 0x2866 JUMP JUMPDEST DUP4 MSTORE POP SWAP1 SWAP4 SWAP3 POP POP POP JUMP JUMPDEST PUSH2 0x16A1 PUSH2 0x5255 JUMP JUMPDEST PUSH2 0x16D3 DUP4 PUSH2 0x16C4 PUSH2 0x13BB DUP7 PUSH1 0x0 ADD MLOAD DUP7 PUSH2 0x160 ADD MLOAD PUSH2 0xB4A SWAP1 SWAP2 SWAP1 PUSH4 0xFFFFFFFF AND JUMP JUMPDEST PUSH1 0x20 DUP7 ADD MLOAD DUP6 SWAP3 SWAP2 SWAP1 TIMESTAMP PUSH2 0x28A4 JUMP JUMPDEST POP PUSH2 0xB6C DUP4 DUP4 PUSH2 0x296D JUMP JUMPDEST PUSH2 0x16E6 PUSH2 0x5255 JUMP JUMPDEST PUSH1 0x0 PUSH2 0x16F0 PUSH2 0x29E5 JUMP JUMPDEST DUP5 MLOAD PUSH1 0x1 PUSH1 0x1 PUSH1 0xA0 SHL SUB AND PUSH1 0x0 SWAP1 DUP2 MSTORE PUSH1 0x20 DUP3 DUP2 MSTORE PUSH1 0x40 DUP1 DUP4 KECCAK256 DUP8 DUP5 MSTORE SWAP1 SWAP2 MSTORE SWAP1 DUP2 SWAP1 KECCAK256 DUP6 DUP6 MSTORE DUP1 SLOAD PUSH1 0xFF PUSH1 0x1 PUSH1 0xF0 SHL DUP3 DIV AND ISZERO ISZERO PUSH1 0x60 DUP8 ADD MSTORE PUSH1 0x1 PUSH1 0x1 PUSH1 0x50 SHL SUB PUSH1 0x1 PUSH1 0xA0 SHL DUP3 DIV DUP2 AND SWAP4 DUP8 ADD SWAP4 SWAP1 SWAP4 MSTORE PUSH2 0x160 DUP9 ADD MLOAD SWAP4 SWAP5 POP SWAP1 SWAP3 PUSH2 0x175B SWAP3 SWAP1 SWAP2 DUP8 SWAP2 AND PUSH2 0x2866 JUMP JUMPDEST PUSH1 0x20 DUP5 ADD MSTORE POP SWAP1 SWAP4 SWAP3 POP POP POP JUMP JUMPDEST PUSH2 0x1771 PUSH2 0x515C JUMP JUMPDEST PUSH2 0x935 DUP3 TIMESTAMP PUSH2 0x29F2 JUMP JUMPDEST PUSH2 0x1783 PUSH2 0x5313 JUMP JUMPDEST PUSH1 0x0 PUSH2 0x178D PUSH2 0x2AB3 JUMP JUMPDEST PUSH1 0x0 DUP5 DUP2 MSTORE PUSH1 0x20 DUP3 SWAP1 MSTORE PUSH1 0x40 DUP2 KECCAK256 SWAP2 SWAP3 POP DUP1 PUSH1 0x1 DUP7 EQ ISZERO PUSH2 0x17BA JUMPI POP PUSH8 0xDE0B6B3A7640000 SWAP1 POP DUP1 PUSH2 0x187D JUMP JUMPDEST DUP3 SLOAD PUSH1 0x40 DUP1 MLOAD PUSH4 0x3FABE5A3 PUSH1 0xE2 SHL DUP2 MSTORE SWAP1 MLOAD PUSH1 0x1 PUSH1 0x1 PUSH1 0xA0 SHL SUB SWAP1 SWAP3 AND SWAP2 PUSH4 0xFEAF968C SWAP2 PUSH1 0x4 DUP1 DUP3 ADD SWAP3 PUSH1 0xA0 SWAP3 SWAP1 SWAP2 SWAP1 DUP3 SWAP1 SUB ADD DUP2 DUP7 DUP1 EXTCODESIZE ISZERO DUP1 ISZERO PUSH2 0x17FE JUMPI PUSH1 0x0 DUP1 REVERT JUMPDEST POP GAS STATICCALL ISZERO DUP1 ISZERO PUSH2 0x1812 JUMPI RETURNDATASIZE PUSH1 0x0 DUP1 RETURNDATACOPY RETURNDATASIZE PUSH1 0x0 REVERT JUMPDEST POP POP POP POP PUSH1 0x40 MLOAD RETURNDATASIZE PUSH1 0x1F NOT PUSH1 0x1F DUP3 ADD AND DUP3 ADD DUP1 PUSH1 0x40 MSTORE POP DUP2 ADD SWAP1 PUSH2 0x1836 SWAP2 SWAP1 PUSH2 0x59D6 JUMP JUMPDEST POP SWAP2 SWAP4 POP POP PUSH1 0x0 DUP4 SGT SWAP2 POP PUSH2 0x184C SWAP1 POP JUMPI PUSH1 0x0 DUP1 REVERT JUMPDEST DUP3 SLOAD PUSH1 0xFF PUSH1 0x1 PUSH1 0xA0 SHL DUP3 DIV DUP2 AND PUSH1 0xA EXP SWAP4 POP PUSH1 0x1 PUSH1 0xA8 SHL SWAP1 SWAP2 DIV AND ISZERO PUSH2 0x187D JUMPI PUSH2 0x187A DUP2 PUSH2 0x2AA DUP5 DUP1 PUSH2 0xAC5 JUMP JUMPDEST SWAP1 POP JUMPDEST DUP3 SLOAD PUSH1 0x1 PUSH1 0xB0 SHL SWAP1 DIV PUSH1 0xFF AND PUSH1 0x96 DUP2 SGT ISZERO PUSH2 0x189D JUMPI PUSH1 0x95 NOT ADD PUSH1 0xA MUL PUSH1 0x96 ADD JUMPDEST PUSH1 0x40 DUP1 MLOAD PUSH1 0xA0 DUP2 ADD DUP3 MSTORE SWAP4 DUP5 MSTORE PUSH1 0x20 DUP5 ADD SWAP3 SWAP1 SWAP3 MSTORE SWAP1 DUP3 ADD MSTORE SWAP1 SLOAD PUSH1 0xFF PUSH1 0x1 PUSH1 0xB8 SHL DUP3 DIV DUP2 AND PUSH1 0x60 DUP5 ADD MSTORE PUSH1 0x1 PUSH1 0xC0 SHL SWAP1 SWAP2 DIV AND PUSH1 0x80 DUP3 ADD MSTORE SWAP2 POP POP SWAP2 SWAP1 POP JUMP JUMPDEST PUSH1 0x0 PUSH2 0xB6C DUP3 PUSH1 0x20 ADD MLOAD PUSH2 0x2AA DUP5 PUSH1 0x0 ADD MLOAD DUP7 PUSH1 0x20 ADD MLOAD PUSH2 0xAC5 SWAP1 SWAP2 SWAP1 PUSH4 0xFFFFFFFF AND JUMP JUMPDEST PUSH1 0x0 DUP1 PUSH2 0xB13 PUSH1 0x16 PUSH2 0x2ABC JUMP JUMPDEST DUP2 DUP2 ADD DUP3 DUP2 SLT ISZERO PUSH1 0x0 DUP4 SLT ISZERO EQ PUSH2 0xB13 JUMPI PUSH1 0x0 DUP1 REVERT JUMPDEST PUSH1 0x0 DUP1 DUP3 SLT ISZERO PUSH2 0xAC1 JUMPI PUSH1 0x0 DUP1 REVERT JUMPDEST PUSH1 0x0 PUSH1 0x1 PUSH1 0x1 PUSH1 0x50 SHL SUB DUP3 GT ISZERO PUSH2 0xAC1 JUMPI PUSH1 0x0 DUP1 REVERT JUMPDEST PUSH1 0x80 DUP6 ADD MLOAD ISZERO PUSH2 0x195A JUMPI PUSH1 0x0 DUP1 REVERT JUMPDEST PUSH1 0x60 DUP5 ADD MLOAD DUP6 MLOAD PUSH2 0x196A SWAP1 PUSH2 0xB9F JUMP JUMPDEST SLT DUP1 ISZERO PUSH2 0x1974 JUMPI POP DUP2 JUMPDEST ISZERO PUSH2 0x19A8 JUMPI DUP5 MLOAD ISZERO DUP1 PUSH2 0x198C JUMPI POP PUSH1 0x1 DUP6 PUSH1 0x40 ADD MLOAD GT ISZERO JUMPDEST PUSH2 0x19A8 JUMPI PUSH1 0x40 MLOAD PUSH3 0x461BCD PUSH1 0xE5 SHL DUP2 MSTORE PUSH1 0x4 ADD PUSH2 0x8C9 SWAP1 PUSH2 0x5C9C JUMP JUMPDEST PUSH2 0x19B1 DUP5 PUSH2 0x90E JUMP JUMPDEST ISZERO PUSH2 0x1A50 JUMPI PUSH1 0x0 PUSH2 0x19C0 PUSH2 0x2AD5 JUMP JUMPDEST PUSH1 0x60 DUP8 ADD MLOAD PUSH1 0x1 PUSH1 0x1 PUSH1 0xA0 SHL SUB SWAP1 DUP2 AND PUSH1 0x0 SWAP1 DUP2 MSTORE PUSH1 0x20 SWAP3 DUP4 MSTORE PUSH1 0x40 DUP1 DUP3 KECCAK256 DUP10 MLOAD SWAP1 SWAP4 AND DUP3 MSTORE SWAP2 DUP4 MSTORE KECCAK256 DUP1 SLOAD SWAP2 DUP9 ADD MLOAD SWAP1 SWAP3 POP PUSH5 0xFFFFFFFFFF SWAP1 SWAP2 AND SWAP1 DUP2 EQ DUP1 PUSH2 0x1A08 JUMPI POP DUP1 ISZERO JUMPDEST PUSH2 0x1A11 JUMPI PUSH1 0x0 DUP1 REVERT JUMPDEST DUP1 PUSH2 0x1A4D JUMPI DUP2 SLOAD PUSH1 0x1 PUSH1 0x28 SHL SWAP1 DIV PUSH1 0x1 PUSH1 0x1 PUSH1 0x50 SHL SUB AND ISZERO DUP1 ISZERO PUSH2 0x1A44 JUMPI POP DUP2 SLOAD PUSH1 0x1 PUSH1 0x78 SHL SWAP1 DIV PUSH1 0x1 PUSH1 0x1 PUSH1 0x50 SHL SUB AND ISZERO JUMPDEST PUSH2 0x1A4D JUMPI PUSH1 0x0 DUP1 REVERT JUMPDEST POP POP JUMPDEST PUSH1 0x0 PUSH2 0x1A70 PUSH2 0xC09 PUSH2 0x13BB DUP8 PUSH2 0x160 ADD MLOAD DUP10 PUSH1 0x20 ADD MLOAD DUP11 PUSH1 0x0 ADD MLOAD PUSH2 0x2AE2 JUMP JUMPDEST SWAP1 POP DUP2 ISZERO PUSH2 0x1AF9 JUMPI PUSH1 0x40 DUP1 MLOAD PUSH1 0xE0 DUP2 ADD DUP3 MSTORE DUP6 SLOAD PUSH1 0x1 PUSH1 0x1 PUSH1 0x50 SHL SUB DUP1 DUP3 AND DUP4 MSTORE PUSH1 0x1 PUSH1 0x50 SHL DUP1 DUP4 DIV DUP3 AND PUSH1 0x20 DUP6 ADD MSTORE PUSH1 0x1 PUSH1 0xA0 SHL DUP1 DUP5 DIV PUSH5 0xFFFFFFFFFF AND SWAP6 DUP6 ADD SWAP6 SWAP1 SWAP6 MSTORE PUSH1 0x1 PUSH1 0xC8 SHL SWAP1 SWAP3 DIV PUSH4 0xFFFFFFFF AND PUSH1 0x60 DUP5 ADD MSTORE PUSH1 0x1 DUP9 ADD SLOAD DUP1 DUP3 AND PUSH1 0x80 DUP6 ADD MSTORE SWAP2 DUP3 DIV DUP2 AND PUSH1 0xA0 DUP5 ADD MSTORE SWAP3 SWAP1 DIV SWAP1 SWAP2 AND PUSH1 0xC0 DUP3 ADD MSTORE PUSH2 0x1AF9 SWAP1 DUP8 SWAP1 DUP8 SWAP1 DUP5 PUSH2 0x2B00 JUMP JUMPDEST PUSH2 0x1B06 DUP7 PUSH1 0x40 ADD MLOAD PUSH2 0x1935 JUMP JUMPDEST DUP5 SLOAD PUSH1 0x1 PUSH1 0x1 PUSH1 0x50 SHL SUB SWAP2 SWAP1 SWAP2 AND PUSH1 0x1 PUSH1 0x50 SHL MUL PUSH10 0xFFFFFFFFFFFFFFFFFFFF PUSH1 0x50 SHL NOT SWAP1 SWAP2 AND OR DUP5 SSTORE PUSH1 0x20 DUP7 ADD MLOAD PUSH2 0x1B3D SWAP1 PUSH2 0x2FD5 JUMP JUMPDEST DUP5 SLOAD PUSH5 0xFFFFFFFFFF SWAP2 SWAP1 SWAP2 AND PUSH1 0x1 PUSH1 0xA0 SHL MUL PUSH5 0xFFFFFFFFFF PUSH1 0xA0 SHL NOT SWAP1 SWAP2 AND OR DUP5 SSTORE PUSH1 0xA0 DUP7 ADD MLOAD PUSH2 0x1B6D SWAP1 PUSH2 0x2FE9 JUMP JUMPDEST DUP5 SLOAD PUSH4 0xFFFFFFFF SWAP2 SWAP1 SWAP2 AND PUSH1 0x1 PUSH1 0xC8 SHL MUL PUSH4 0xFFFFFFFF PUSH1 0xC8 SHL NOT SWAP1 SWAP2 AND OR DUP5 SSTORE PUSH2 0x1B96 DUP2 PUSH2 0x1935 JUMP JUMPDEST DUP5 SLOAD PUSH1 0x1 PUSH1 0x1 PUSH1 0x50 SHL SUB NOT AND PUSH1 0x1 PUSH1 0x1 PUSH1 0x50 SHL SUB SWAP2 SWAP1 SWAP2 AND OR SWAP1 SWAP4 SSTORE POP POP POP POP POP JUMP JUMPDEST PUSH1 0x0 DUP1 PUSH2 0xB13 PUSH1 0x21 PUSH2 0x2ABC JUMP JUMPDEST PUSH1 0x0 DUP1 DUP3 SLT ISZERO PUSH2 0x1BE0 JUMPI PUSH2 0x1BD9 DUP3 PUSH2 0xB9F JUMP JUMPDEST SWAP1 POP PUSH2 0x938 JUMP JUMPDEST POP DUP1 PUSH2 0x938 JUMP JUMPDEST PUSH1 0x0 PUSH2 0x1BF1 PUSH2 0x2FFC JUMP JUMPDEST DUP4 MLOAD PUSH1 0x1 PUSH1 0x1 PUSH1 0xA0 SHL SUB AND PUSH1 0x0 SWAP1 DUP2 MSTORE PUSH1 0x20 DUP3 SWAP1 MSTORE PUSH1 0x40 SWAP1 KECCAK256 SLOAD SWAP1 SWAP2 POP DUP1 DUP4 GT PUSH2 0x1C1C JUMPI POP POP PUSH2 0x1CD5 JUMP JUMPDEST PUSH1 0x0 PUSH2 0x1C27 DUP7 PUSH2 0x3009 JUMP JUMPDEST SWAP1 POP PUSH1 0x0 DUP2 PUSH1 0x1 PUSH1 0x1 PUSH1 0xA0 SHL SUB AND PUSH4 0xB5E4DA23 DUP5 DUP8 SUB PUSH1 0x40 MLOAD DUP3 PUSH4 0xFFFFFFFF AND PUSH1 0xE0 SHL DUP2 MSTORE PUSH1 0x4 ADD PUSH2 0x1C59 SWAP2 SWAP1 PUSH2 0x5BD4 JUMP JUMPDEST PUSH1 0x0 PUSH1 0x40 MLOAD DUP1 DUP4 SUB DUP2 DUP7 DUP1 EXTCODESIZE ISZERO DUP1 ISZERO PUSH2 0x1C71 JUMPI PUSH1 0x0 DUP1 REVERT JUMPDEST POP GAS STATICCALL ISZERO DUP1 ISZERO PUSH2 0x1C85 JUMPI RETURNDATASIZE PUSH1 0x0 DUP1 RETURNDATACOPY RETURNDATASIZE PUSH1 0x0 REVERT JUMPDEST POP POP POP POP PUSH1 0x40 MLOAD RETURNDATASIZE PUSH1 0x0 DUP3 RETURNDATACOPY PUSH1 0x1F RETURNDATASIZE SWAP1 DUP2 ADD PUSH1 0x1F NOT AND DUP3 ADD PUSH1 0x40 MSTORE PUSH2 0x1CAD SWAP2 SWAP1 DUP2 ADD SWAP1 PUSH2 0x570E JUMP JUMPDEST SWAP1 POP PUSH1 0x0 PUSH2 0x1CBB DUP8 DUP4 PUSH2 0x3039 JUMP JUMPDEST SWAP2 POP PUSH2 0x1CC9 SWAP1 POP DUP5 DUP3 PUSH2 0x256A JUMP JUMPDEST DUP7 GT ISZERO PUSH2 0x1455 JUMPI PUSH1 0x0 DUP1 REVERT JUMPDEST POP POP POP JUMP JUMPDEST DUP1 ISZERO PUSH2 0x1D6C JUMPI PUSH20 0x82AF49447D8A07E3BD95BD0D56F35241523FBAB1 PUSH1 0x1 PUSH1 0x1 PUSH1 0xA0 SHL SUB AND PUSH4 0xD0E30DB0 DUP4 PUSH1 0x40 MLOAD DUP3 PUSH4 0xFFFFFFFF AND PUSH1 0xE0 SHL DUP2 MSTORE PUSH1 0x4 ADD PUSH1 0x0 PUSH1 0x40 MLOAD DUP1 DUP4 SUB DUP2 DUP6 DUP9 DUP1 EXTCODESIZE ISZERO DUP1 ISZERO PUSH2 0x1D2F JUMPI PUSH1 0x0 DUP1 REVERT JUMPDEST POP GAS CALL ISZERO DUP1 ISZERO PUSH2 0x1D43 JUMPI RETURNDATASIZE PUSH1 0x0 DUP1 RETURNDATACOPY RETURNDATASIZE PUSH1 0x0 REVERT JUMPDEST POP POP POP POP POP PUSH2 0x1D67 PUSH20 0x82AF49447D8A07E3BD95BD0D56F35241523FBAB1 DUP5 DUP5 PUSH2 0x1DA8 JUMP JUMPDEST PUSH2 0x1CD5 JUMP JUMPDEST PUSH1 0x40 MLOAD PUSH1 0x1 PUSH1 0x1 PUSH1 0xA0 SHL SUB DUP5 AND SWAP1 DUP4 ISZERO PUSH2 0x8FC MUL SWAP1 DUP5 SWAP1 PUSH1 0x0 DUP2 DUP2 DUP2 DUP6 DUP9 DUP9 CALL SWAP4 POP POP POP POP ISZERO DUP1 ISZERO PUSH2 0x1DA2 JUMPI RETURNDATASIZE PUSH1 0x0 DUP1 RETURNDATACOPY RETURNDATASIZE PUSH1 0x0 REVERT JUMPDEST POP POP POP POP JUMP JUMPDEST DUP3 PUSH1 0x1 PUSH1 0x1 PUSH1 0xA0 SHL SUB AND PUSH4 0xA9059CBB DUP4 DUP4 PUSH1 0x40 MLOAD DUP4 PUSH4 0xFFFFFFFF AND PUSH1 0xE0 SHL DUP2 MSTORE PUSH1 0x4 ADD DUP1 DUP4 PUSH1 0x1 PUSH1 0x1 PUSH1 0xA0 SHL SUB AND DUP2 MSTORE PUSH1 0x20 ADD DUP3 DUP2 MSTORE PUSH1 0x20 ADD SWAP3 POP POP POP PUSH1 0x0 PUSH1 0x40 MLOAD DUP1 DUP4 SUB DUP2 PUSH1 0x0 DUP8 DUP1 EXTCODESIZE ISZERO DUP1 ISZERO PUSH2 0x1DFF JUMPI PUSH1 0x0 DUP1 REVERT JUMPDEST POP GAS CALL ISZERO DUP1 ISZERO PUSH2 0x1E13 JUMPI RETURNDATASIZE PUSH1 0x0 DUP1 RETURNDATACOPY RETURNDATASIZE PUSH1 0x0 REVERT JUMPDEST POP POP POP POP PUSH2 0x1CD5 PUSH2 0x3250 JUMP JUMPDEST PUSH1 0x0 DUP1 PUSH2 0x1E2C DUP5 DUP7 PUSH2 0x32BD JUMP JUMPDEST SWAP1 POP PUSH2 0x1E38 DUP4 DUP3 PUSH2 0xB4A JUMP JUMPDEST SWAP2 POP PUSH2 0x1E45 DUP8 DUP8 DUP5 PUSH2 0x32ED JUMP JUMPDEST PUSH2 0x1E50 DUP7 DUP4 DUP4 PUSH2 0x336D JUMP JUMPDEST DUP4 MLOAD PUSH2 0x1E5C SWAP1 DUP7 PUSH2 0x3471 JUMP JUMPDEST POP SWAP6 SWAP5 POP POP POP POP POP JUMP JUMPDEST PUSH9 0x10000000000000000 PUSH1 0x1 PUSH1 0xE0 SHL SUB PUSH1 0x40 DUP6 SWAP1 SHL AND PUSH8 0xFFFF000000000000 PUSH1 0x30 DUP6 SWAP1 SHL AND OR PUSH1 0x8 DUP4 SWAP1 SHL OR DUP2 OR SWAP5 SWAP4 POP POP POP POP JUMP JUMPDEST PUSH1 0x0 PUSH4 0x5F5E100 DUP4 PUSH1 0x40 ADD MLOAD SLT ISZERO PUSH2 0x1ECA JUMPI PUSH2 0x1EC3 PUSH1 0x1 PUSH2 0x1EBD DUP6 DUP6 PUSH2 0x1280 JUMP JUMPDEST SWAP1 PUSH2 0x1910 JUMP JUMPDEST SWAP1 POP PUSH2 0xB13 JUMP JUMPDEST PUSH2 0xB6C DUP4 PUSH2 0xDF3 DUP5 PUSH1 0x1 PUSH2 0x1910 JUMP JUMPDEST PUSH1 0x0 DUP1 PUSH1 0x0 DUP1 PUSH2 0x1EE7 PUSH2 0x2AD5 JUMP JUMPDEST PUSH1 0x1 PUSH1 0x1 PUSH1 0xA0 SHL SUB DUP8 DUP2 AND PUSH1 0x0 SWAP1 DUP2 MSTORE PUSH1 0x20 SWAP3 DUP4 MSTORE PUSH1 0x40 DUP1 DUP3 KECCAK256 DUP12 MLOAD SWAP1 SWAP4 AND DUP3 MSTORE SWAP2 SWAP1 SWAP3 MSTORE SWAP1 KECCAK256 DUP1 SLOAD DUP7 MLOAD PUSH5 0xFFFFFFFFFF DUP3 AND SWAP7 POP SWAP2 SWAP3 POP PUSH2 0x1F3B SWAP2 SWAP1 DUP7 SWAP1 PUSH1 0x1 PUSH1 0x28 SHL SWAP1 DIV PUSH1 0x1 PUSH1 0x1 PUSH1 0x50 SHL SUB AND PUSH2 0x2866 JUMP JUMPDEST SWAP3 POP PUSH2 0x1F61 DUP6 PUSH1 0x1 PUSH1 0x20 MUL ADD MLOAD DUP3 SLOAD DUP7 SWAP1 PUSH1 0x1 PUSH1 0x78 SHL SWAP1 DIV PUSH1 0x1 PUSH1 0x1 PUSH1 0x50 SHL SUB AND PUSH2 0x2866 JUMP JUMPDEST SWAP2 POP POP SWAP4 POP SWAP4 POP SWAP4 SWAP1 POP JUMP JUMPDEST PUSH1 0x0 DUP1 PUSH1 0x0 PUSH2 0x1F7A PUSH2 0x1903 JUMP JUMPDEST PUSH1 0x1 PUSH1 0x1 PUSH1 0xA0 SHL SUB SWAP6 DUP7 AND PUSH1 0x0 SWAP1 DUP2 MSTORE PUSH1 0x20 SWAP2 DUP3 MSTORE PUSH1 0x40 DUP1 DUP3 KECCAK256 SWAP7 SWAP1 SWAP8 AND DUP2 MSTORE SWAP5 SWAP1 MSTORE POP POP POP KECCAK256 PUSH1 0x1 ADD SLOAD PUSH1 0x1 PUSH1 0x1 PUSH1 0x50 SHL SUB PUSH1 0x1 PUSH1 0x50 SHL DUP3 DIV DUP2 AND SWAP3 PUSH1 0x1 PUSH1 0xA0 SHL SWAP1 SWAP3 DIV AND SWAP1 JUMP JUMPDEST DUP3 MLOAD PUSH1 0x20 DUP6 ADD MLOAD EQ PUSH2 0x1FDB JUMPI DUP4 MLOAD ISZERO PUSH2 0x1FDB JUMPI PUSH1 0x0 DUP1 REVERT JUMPDEST PUSH1 0x80 DUP5 ADD MLOAD PUSH2 0x1FEA SWAP1 DUP3 PUSH2 0x1910 JUMP JUMPDEST PUSH1 0x80 DUP6 ADD MSTORE DUP4 MLOAD PUSH2 0x1FFB SWAP1 DUP4 PUSH2 0x1910 JUMP JUMPDEST DUP1 DUP6 MSTORE PUSH1 0x0 SLT ISZERO PUSH2 0x200B JUMPI PUSH1 0x0 DUP1 REVERT JUMPDEST PUSH1 0x20 DUP4 ADD MLOAD PUSH2 0x201A SWAP1 DUP4 PUSH2 0x1910 JUMP JUMPDEST PUSH1 0x20 DUP5 ADD DUP2 SWAP1 MSTORE PUSH1 0x0 SLT ISZERO PUSH2 0x1DA2 JUMPI PUSH1 0x0 DUP1 REVERT JUMPDEST PUSH1 0x0 PUSH2 0x2038 PUSH2 0x29E5 JUMP JUMPDEST DUP3 MLOAD PUSH1 0x1 PUSH1 0x1 PUSH1 0xA0 SHL SUB AND PUSH1 0x0 SWAP1 DUP2 MSTORE PUSH1 0x20 DUP3 DUP2 MSTORE PUSH1 0x40 DUP1 DUP4 KECCAK256 DUP8 MLOAD DUP5 MSTORE SWAP1 SWAP2 MSTORE SWAP1 DUP2 SWAP1 KECCAK256 SWAP1 DUP6 ADD MLOAD SWAP2 SWAP3 POP SWAP1 PUSH2 0x206E SWAP1 PUSH2 0x1935 JUMP JUMPDEST DUP2 SLOAD PUSH1 0x60 DUP7 ADD MLOAD DUP1 ISZERO ISZERO PUSH1 0x1 PUSH1 0xF0 SHL MUL PUSH1 0xFF PUSH1 0xF0 SHL NOT PUSH1 0x1 PUSH1 0x1 PUSH1 0x50 SHL SUB SWAP5 SWAP1 SWAP5 AND PUSH1 0x1 PUSH1 0xA0 SHL MUL PUSH10 0xFFFFFFFFFFFFFFFFFFFF PUSH1 0xA0 SHL NOT SWAP1 SWAP4 AND SWAP3 SWAP1 SWAP3 OR SWAP3 SWAP1 SWAP3 AND OR DUP3 SSTORE PUSH2 0x160 DUP5 ADD MLOAD PUSH1 0x40 DUP6 ADD MLOAD DUP7 MLOAD PUSH1 0x20 DUP9 ADD MLOAD PUSH2 0x1DA2 SWAP5 DUP7 SWAP5 SWAP4 DUP10 SWAP4 SWAP1 SWAP3 SWAP1 SWAP2 PUSH2 0x34C6 JUMP JUMPDEST PUSH1 0x0 DUP1 PUSH1 0x0 PUSH2 0x20E4 PUSH2 0x2AD5 JUMP JUMPDEST PUSH1 0x1 PUSH1 0x1 PUSH1 0xA0 SHL SUB DUP1 DUP13 AND PUSH1 0x0 SWAP1 DUP2 MSTORE PUSH1 0x20 SWAP3 DUP4 MSTORE PUSH1 0x40 DUP1 DUP3 KECCAK256 DUP16 MLOAD SWAP1 SWAP4 AND DUP3 MSTORE SWAP2 SWAP1 SWAP3 MSTORE SWAP1 KECCAK256 DUP1 SLOAD SWAP1 SWAP2 POP PUSH5 0xFFFFFFFFFF AND DUP10 DUP2 EQ DUP1 PUSH2 0x2123 JUMPI POP DUP1 ISZERO JUMPDEST PUSH2 0x212C JUMPI PUSH1 0x0 DUP1 REVERT JUMPDEST DUP7 MLOAD DUP3 SLOAD PUSH2 0x214C SWAP2 SWAP1 DUP13 SWAP1 PUSH1 0x1 PUSH1 0x28 SHL SWAP1 DIV PUSH1 0x1 PUSH1 0x1 PUSH1 0x50 SHL SUB AND PUSH2 0x2866 JUMP JUMPDEST SWAP4 POP PUSH2 0x2172 DUP8 PUSH1 0x1 PUSH1 0x20 MUL ADD MLOAD DUP4 SLOAD DUP13 SWAP1 PUSH1 0x1 PUSH1 0x78 SHL SWAP1 DIV PUSH1 0x1 PUSH1 0x1 PUSH1 0x50 SHL SUB AND PUSH2 0x2866 JUMP JUMPDEST SWAP3 POP DUP9 ISZERO PUSH2 0x21FA JUMPI PUSH2 0x2184 DUP5 DUP11 PUSH2 0x1910 JUMP JUMPDEST SWAP4 POP PUSH2 0x21B3 DUP13 DUP13 DUP15 PUSH2 0x140 ADD MLOAD PUSH1 0x0 PUSH1 0x2 DUP2 LT PUSH2 0x219D JUMPI INVALID JUMPDEST PUSH1 0x20 MUL ADD MLOAD DUP14 DUP14 DUP13 PUSH1 0x0 JUMPDEST PUSH1 0x20 MUL ADD MLOAD DUP12 PUSH2 0x35A5 JUMP JUMPDEST PUSH2 0x21CE PUSH2 0xC0E PUSH2 0xC09 PUSH2 0x13BB DUP11 PUSH1 0x0 PUSH1 0x20 MUL ADD MLOAD DUP15 DUP10 PUSH2 0x2AE2 JUMP JUMPDEST DUP3 SLOAD PUSH1 0x1 PUSH1 0x1 PUSH1 0x50 SHL SUB SWAP2 SWAP1 SWAP2 AND PUSH1 0x1 PUSH1 0x28 SHL MUL PUSH15 0xFFFFFFFFFFFFFFFFFFFF0000000000 NOT SWAP1 SWAP2 AND OR DUP3 SSTORE JUMPDEST DUP8 ISZERO PUSH2 0x2277 JUMPI PUSH2 0x220A DUP4 DUP10 PUSH2 0x1910 JUMP JUMPDEST SWAP3 POP PUSH2 0x2232 DUP13 DUP13 DUP15 PUSH2 0x140 ADD MLOAD PUSH1 0x1 PUSH1 0x2 DUP2 LT PUSH2 0x2223 JUMPI INVALID JUMPDEST PUSH1 0x20 MUL ADD MLOAD DUP14 DUP13 DUP13 PUSH1 0x1 PUSH2 0x21A8 JUMP JUMPDEST PUSH2 0x224D PUSH2 0xC0E PUSH2 0xC09 PUSH2 0x13BB DUP11 PUSH1 0x1 PUSH1 0x20 MUL ADD MLOAD DUP15 DUP9 PUSH2 0x2AE2 JUMP JUMPDEST DUP3 SLOAD PUSH1 0x1 PUSH1 0x1 PUSH1 0x50 SHL SUB SWAP2 SWAP1 SWAP2 AND PUSH1 0x1 PUSH1 0x78 SHL MUL PUSH10 0xFFFFFFFFFFFFFFFFFFFF PUSH1 0x78 SHL NOT SWAP1 SWAP2 AND OR DUP3 SSTORE JUMPDEST DUP6 ISZERO PUSH2 0x22E6 JUMPI DUP4 ISZERO DUP1 PUSH2 0x2294 JUMPI POP PUSH2 0x1A0 DUP13 ADD MLOAD MLOAD PUSH1 0x0 DUP6 SWAP1 SUB SLT ISZERO JUMPDEST PUSH2 0x22B0 JUMPI PUSH1 0x40 MLOAD PUSH3 0x461BCD PUSH1 0xE5 SHL DUP2 MSTORE PUSH1 0x4 ADD PUSH2 0x8C9 SWAP1 PUSH2 0x5C78 JUMP JUMPDEST DUP3 ISZERO DUP1 PUSH2 0x22CA JUMPI POP PUSH2 0x1A0 DUP13 ADD MLOAD PUSH1 0x20 ADD MLOAD PUSH1 0x0 DUP5 SWAP1 SUB SLT ISZERO JUMPDEST PUSH2 0x22E6 JUMPI PUSH1 0x40 MLOAD PUSH3 0x461BCD PUSH1 0xE5 SHL DUP2 MSTORE PUSH1 0x4 ADD PUSH2 0x8C9 SWAP1 PUSH2 0x5C78 JUMP JUMPDEST PUSH2 0x22FA DUP3 DUP6 DUP6 PUSH2 0x22F5 DUP15 PUSH2 0x2FD5 JUMP JUMPDEST PUSH2 0x3673 JUMP JUMPDEST POP POP SWAP9 POP SWAP9 SWAP7 POP POP POP POP POP POP POP JUMP JUMPDEST PUSH2 0x2311 PUSH2 0x52EC JUMP JUMPDEST PUSH1 0x0 PUSH2 0x231B PUSH2 0x36B1 JUMP JUMPDEST PUSH1 0x0 DUP6 DUP2 MSTORE PUSH1 0x20 DUP3 DUP2 MSTORE PUSH1 0x40 DUP1 DUP4 KECCAK256 DUP8 ISZERO ISZERO DUP5 MSTORE DUP3 MSTORE SWAP2 DUP3 SWAP1 KECCAK256 DUP3 MLOAD PUSH1 0xA0 DUP2 ADD DUP5 MSTORE DUP2 SLOAD PUSH1 0x1 PUSH1 0x1 PUSH1 0xA0 SHL SUB DUP2 AND DUP3 MSTORE PUSH1 0xFF PUSH1 0x1 PUSH1 0xA0 SHL DUP3 DIV DUP2 AND ISZERO ISZERO SWAP5 DUP4 ADD SWAP5 SWAP1 SWAP5 MSTORE PUSH1 0x1 PUSH1 0xB0 SHL DUP2 DIV DUP5 AND PUSH1 0xA EXP SWAP5 DUP3 ADD SWAP5 SWAP1 SWAP5 MSTORE SWAP4 SWAP5 POP SWAP3 SWAP2 PUSH1 0x60 DUP4 ADD SWAP2 PUSH1 0x1 PUSH1 0xA8 SHL SWAP1 SWAP2 DIV AND PUSH1 0x5 DUP2 GT ISZERO PUSH2 0x2390 JUMPI INVALID JUMPDEST DUP2 MSTORE PUSH1 0x0 PUSH1 0x20 SWAP1 SWAP2 ADD MSTORE SWAP6 SWAP5 POP POP POP POP POP JUMP JUMPDEST PUSH1 0x0 DUP1 DUP5 PUSH1 0x1 PUSH1 0x1 PUSH1 0xA0 SHL SUB AND PUSH4 0x70A08231 ADDRESS PUSH1 0x40 MLOAD DUP3 PUSH4 0xFFFFFFFF AND PUSH1 0xE0 SHL DUP2 MSTORE PUSH1 0x4 ADD DUP1 DUP3 PUSH1 0x1 PUSH1 0x1 PUSH1 0xA0 SHL SUB AND DUP2 MSTORE PUSH1 0x20 ADD SWAP2 POP POP PUSH1 0x20 PUSH1 0x40 MLOAD DUP1 DUP4 SUB DUP2 DUP7 DUP1 EXTCODESIZE ISZERO DUP1 ISZERO PUSH2 0x23F3 JUMPI PUSH1 0x0 DUP1 REVERT JUMPDEST POP GAS STATICCALL ISZERO DUP1 ISZERO PUSH2 0x2407 JUMPI RETURNDATASIZE PUSH1 0x0 DUP1 RETURNDATACOPY RETURNDATASIZE PUSH1 0x0 REVERT JUMPDEST POP POP POP POP PUSH1 0x40 MLOAD RETURNDATASIZE PUSH1 0x20 DUP2 LT ISZERO PUSH2 0x241D JUMPI PUSH1 0x0 DUP1 REVERT JUMPDEST POP MLOAD PUSH1 0x40 DUP1 MLOAD PUSH4 0x23B872DD PUSH1 0xE0 SHL DUP2 MSTORE PUSH1 0x1 PUSH1 0x1 PUSH1 0xA0 SHL SUB DUP8 DUP2 AND PUSH1 0x4 DUP4 ADD MSTORE ADDRESS PUSH1 0x24 DUP4 ADD MSTORE PUSH1 0x44 DUP3 ADD DUP8 SWAP1 MSTORE SWAP2 MLOAD SWAP3 SWAP4 POP SWAP1 DUP8 AND SWAP2 PUSH4 0x23B872DD SWAP2 PUSH1 0x64 DUP1 DUP3 ADD SWAP3 PUSH1 0x0 SWAP3 SWAP1 SWAP2 SWAP1 DUP3 SWAP1 SUB ADD DUP2 DUP4 DUP8 DUP1 EXTCODESIZE ISZERO DUP1 ISZERO PUSH2 0x247A JUMPI PUSH1 0x0 DUP1 REVERT JUMPDEST POP GAS CALL ISZERO DUP1 ISZERO PUSH2 0x248E JUMPI RETURNDATASIZE PUSH1 0x0 DUP1 RETURNDATACOPY RETURNDATASIZE PUSH1 0x0 REVERT JUMPDEST POP POP POP POP PUSH2 0x249A PUSH2 0x3250 JUMP JUMPDEST PUSH1 0x0 DUP6 PUSH1 0x1 PUSH1 0x1 PUSH1 0xA0 SHL SUB AND PUSH4 0x70A08231 ADDRESS PUSH1 0x40 MLOAD DUP3 PUSH4 0xFFFFFFFF AND PUSH1 0xE0 SHL DUP2 MSTORE PUSH1 0x4 ADD DUP1 DUP3 PUSH1 0x1 PUSH1 0x1 PUSH1 0xA0 SHL SUB AND DUP2 MSTORE PUSH1 0x20 ADD SWAP2 POP POP PUSH1 0x20 PUSH1 0x40 MLOAD DUP1 DUP4 SUB DUP2 DUP7 DUP1 EXTCODESIZE ISZERO DUP1 ISZERO PUSH2 0x24E9 JUMPI PUSH1 0x0 DUP1 REVERT JUMPDEST POP GAS STATICCALL ISZERO DUP1 ISZERO PUSH2 0x24FD JUMPI RETURNDATASIZE PUSH1 0x0 DUP1 RETURNDATACOPY RETURNDATASIZE PUSH1 0x0 REVERT JUMPDEST POP POP POP POP PUSH1 0x40 MLOAD RETURNDATASIZE PUSH1 0x20 DUP2 LT ISZERO PUSH2 0x2513 JUMPI PUSH1 0x0 DUP1 REVERT JUMPDEST POP MLOAD SWAP1 POP PUSH2 0x2521 DUP2 DUP4 PUSH2 0x14AD JUMP JUMPDEST SWAP7 SWAP6 POP POP POP POP POP POP JUMP JUMPDEST PUSH1 0x0 DUP1 DUP3 SLT ISZERO PUSH2 0x2564 JUMPI PUSH2 0x255F PUSH1 0x1 PUSH2 0x2559 DUP6 PUSH1 0x20 ADD MLOAD PUSH2 0x2AA DUP8 PUSH1 0x0 ADD MLOAD DUP8 PUSH2 0xAC5 SWAP1 SWAP2 SWAP1 PUSH4 0xFFFFFFFF AND JUMP JUMPDEST SWAP1 PUSH2 0x36BE JUMP JUMPDEST PUSH2 0xB6C JUMP JUMPDEST POP SWAP2 SWAP1 POP JUMP JUMPDEST PUSH1 0x0 DUP3 DUP3 ADD DUP4 DUP2 LT ISZERO PUSH2 0xB6C JUMPI PUSH1 0x0 DUP1 REVERT JUMPDEST PUSH1 0x0 PUSH2 0x2586 PUSH2 0x1903 JUMP JUMPDEST PUSH1 0x60 DUP7 ADD MLOAD PUSH1 0x1 PUSH1 0x1 PUSH1 0xA0 SHL SUB SWAP1 DUP2 AND PUSH1 0x0 SWAP1 DUP2 MSTORE PUSH1 0x20 DUP4 DUP2 MSTORE PUSH1 0x40 DUP1 DUP4 KECCAK256 DUP10 MLOAD SWAP1 SWAP5 AND DUP4 MSTORE SWAP3 SWAP1 MSTORE KECCAK256 SWAP1 SWAP2 POP PUSH2 0x25C0 DUP7 DUP7 DUP4 DUP8 DUP8 PUSH2 0x194B JUMP JUMPDEST PUSH1 0x1 DUP2 ADD DUP1 SLOAD PUSH1 0x1 PUSH1 0x1 PUSH1 0x50 SHL SUB NOT AND SWAP1 DUP2 SWAP1 SSTORE PUSH1 0x1 PUSH1 0x50 SHL SWAP1 DIV PUSH1 0x1 PUSH1 0x1 PUSH1 0x50 SHL SUB AND ISZERO DUP1 ISZERO PUSH2 0x2603 JUMPI POP PUSH1 0x1 DUP2 ADD SLOAD PUSH1 0x1 PUSH1 0xA0 SHL SWAP1 DIV PUSH1 0x1 PUSH1 0x1 PUSH1 0x50 SHL SUB AND ISZERO JUMPDEST PUSH2 0x1265 JUMPI PUSH1 0x0 DUP1 REVERT JUMPDEST PUSH1 0x0 DUP1 PUSH1 0x0 DUP1 PUSH1 0x0 DUP1 PUSH2 0x261D PUSH2 0x36D4 JUMP JUMPDEST PUSH1 0x1 PUSH1 0x1 PUSH1 0xA0 SHL SUB SWAP1 SWAP8 AND PUSH1 0x0 SWAP1 DUP2 MSTORE PUSH1 0x20 SWAP8 SWAP1 SWAP8 MSTORE POP POP PUSH1 0x40 SWAP1 SWAP5 KECCAK256 SLOAD PUSH2 0xFFFF DUP2 AND SWAP6 PUSH4 0xFFFFFFFF PUSH3 0x10000 DUP4 DIV DUP2 AND SWAP7 POP PUSH7 0x1000000000000 DUP4 DIV AND SWAP5 POP PUSH1 0xFF PUSH1 0x1 PUSH1 0x50 SHL DUP4 DIV AND SWAP4 POP PUSH1 0x1 PUSH1 0x58 SHL SWAP1 SWAP2 DIV PUSH1 0xD0 SHL SWAP2 POP JUMP JUMPDEST PUSH2 0x2680 PUSH2 0x517D JUMP JUMPDEST PUSH1 0x0 PUSH2 0x268A PUSH2 0x36E1 JUMP JUMPDEST PUSH1 0x1 PUSH1 0x1 PUSH1 0xA0 SHL SUB DUP5 AND PUSH1 0x0 DUP2 DUP2 MSTORE PUSH1 0x20 DUP4 DUP2 MSTORE PUSH1 0x40 SWAP2 DUP3 SWAP1 KECCAK256 SWAP3 DUP7 MSTORE DUP3 SLOAD PUSH2 0xFFFF DUP1 DUP3 AND SWAP3 DUP9 ADD SWAP3 SWAP1 SWAP3 MSTORE PUSH3 0x10000 SWAP1 DIV AND SWAP1 DUP6 ADD MSTORE SWAP1 SWAP2 POP PUSH2 0x26E6 PUSH2 0x2710 PUSH4 0x3B9ACA00 DUP4 SLOAD PUSH1 0x1 PUSH1 0x50 SHL SWAP1 DIV PUSH1 0xFF AND SWAP2 SWAP1 SDIV PUSH1 0x5 MUL PUSH2 0x36EE JUMP JUMPDEST PUSH1 0x80 DUP5 ADD MSTORE DUP1 SLOAD PUSH2 0x2705 SWAP1 PUSH1 0x1 PUSH1 0x40 SHL SWAP1 DIV PUSH2 0xFFFF AND PUSH3 0x186A0 PUSH2 0x36EE JUMP JUMPDEST PUSH1 0xA0 DUP5 ADD MSTORE DUP1 SLOAD PUSH2 0x2724 SWAP1 PUSH1 0x1 PUSH1 0x70 SHL SWAP1 DIV PUSH2 0xFFFF AND PUSH3 0x186A0 PUSH2 0x36EE JUMP JUMPDEST PUSH2 0x120 DUP5 ADD MSTORE PUSH1 0x2 DUP2 ADD SLOAD PUSH2 0x2740 SWAP1 PUSH2 0xFFFF AND PUSH3 0x186A0 PUSH2 0x36EE JUMP JUMPDEST PUSH2 0x180 DUP5 ADD MSTORE DUP1 SLOAD PUSH1 0x64 SWAP1 PUSH1 0xFF PUSH1 0x1 PUSH1 0x58 SHL SWAP1 SWAP2 DIV AND PUSH4 0x3B9ACA00 MUL SDIV PUSH1 0xC0 DUP5 ADD MSTORE DUP1 SLOAD PUSH1 0x1 PUSH1 0x60 SHL DUP2 DIV PUSH1 0xFF SWAP1 DUP2 AND PUSH1 0xE0 DUP7 ADD MSTORE PUSH1 0x1 PUSH1 0x68 SHL SWAP1 SWAP2 DIV AND PUSH2 0x100 DUP5 ADD MSTORE PUSH1 0x40 DUP1 MLOAD DUP1 DUP3 ADD SWAP2 DUP3 SWAP1 MSTORE SWAP1 PUSH1 0x1 DUP4 ADD SWAP1 PUSH1 0x2 SWAP1 DUP3 PUSH1 0x0 DUP6 JUMPDEST DUP3 DUP3 SWAP1 SLOAD SWAP1 PUSH2 0x100 EXP SWAP1 DIV PUSH2 0xFFFF AND PUSH2 0xFFFF AND DUP2 MSTORE PUSH1 0x20 ADD SWAP1 PUSH1 0x2 ADD SWAP1 PUSH1 0x20 DUP3 PUSH1 0x1 ADD DIV SWAP3 DUP4 ADD SWAP3 PUSH1 0x1 SUB DUP3 MUL SWAP2 POP DUP1 DUP5 GT PUSH2 0x279D JUMPI POP POP POP POP POP PUSH2 0x140 DUP6 ADD SWAP2 SWAP1 SWAP2 MSTORE POP PUSH1 0x4 DUP2 ADD SLOAD PUSH1 0xFF AND PUSH2 0x1C0 DUP5 ADD MSTORE DUP1 SLOAD PUSH2 0x2809 SWAP1 PUSH5 0x100000000 SWAP1 DIV PUSH4 0xFFFFFFFF AND PUSH2 0x3715 JUMP JUMPDEST PUSH1 0x60 DUP5 ADD MSTORE PUSH2 0x283F PUSH1 0x3 DUP3 ADD PUSH1 0x0 JUMPDEST PUSH1 0x8 SWAP2 DUP3 DUP3 DIV ADD SWAP2 SWAP1 MOD PUSH1 0x4 MUL SWAP1 SLOAD SWAP1 PUSH2 0x100 EXP SWAP1 DIV PUSH4 0xFFFFFFFF AND PUSH4 0xFFFFFFFF AND PUSH2 0x3715 JUMP JUMPDEST PUSH2 0x1A0 DUP5 ADD MLOAD MSTORE PUSH2 0x2854 PUSH1 0x3 DUP3 ADD PUSH1 0x1 PUSH2 0x2818 JUMP JUMPDEST PUSH2 0x1A0 DUP5 ADD MLOAD PUSH1 0x20 ADD MSTORE POP SWAP1 SWAP3 SWAP2 POP POP JUMP JUMPDEST PUSH1 0x0 PUSH5 0xFFFFFFFFFF DUP4 EQ PUSH2 0x2886 JUMPI DUP2 PUSH1 0x1 PUSH1 0x1 PUSH1 0x50 SHL SUB AND PUSH1 0x0 SUB PUSH2 0x289C JUMP JUMPDEST PUSH2 0x289C DUP5 PUSH1 0x1 PUSH1 0x1 PUSH1 0x50 SHL SUB DUP5 AND PUSH1 0x0 SUB PUSH2 0x3723 JUMP JUMPDEST SWAP5 SWAP4 POP POP POP POP JUMP JUMPDEST PUSH1 0x0 PUSH2 0x28B3 DUP7 DUP7 DUP7 DUP7 DUP7 PUSH2 0x376E JUMP JUMPDEST SWAP1 POP PUSH1 0x0 PUSH2 0x28D3 PUSH1 0x64 PUSH2 0x2AA DUP10 PUSH1 0xE0 ADD MLOAD DUP6 PUSH2 0xAC5 SWAP1 SWAP2 SWAP1 PUSH4 0xFFFFFFFF AND JUMP JUMPDEST SWAP1 POP PUSH1 0x0 PUSH2 0x28E1 DUP4 DUP4 PUSH2 0x36BE JUMP JUMPDEST SWAP1 POP PUSH2 0x28F1 DUP9 PUSH1 0x40 ADD MLOAD DUP4 PUSH2 0x3804 JUMP JUMPDEST PUSH2 0x28FF DUP9 PUSH1 0x40 ADD MLOAD DUP3 PUSH2 0x383B JUMP JUMPDEST PUSH5 0xFFFFFFFFFF DUP6 EQ ISZERO PUSH2 0x2937 JUMPI PUSH2 0x2937 DUP9 PUSH1 0x0 ADD MLOAD DUP10 PUSH1 0x40 ADD MLOAD DUP6 PUSH2 0x2932 DUP8 DUP14 PUSH2 0x160 ADD MLOAD PUSH2 0x252B SWAP1 SWAP2 SWAP1 PUSH4 0xFFFFFFFF AND JUMP JUMPDEST PUSH2 0x387F JUMP JUMPDEST PUSH2 0x294B DUP9 PUSH1 0x0 ADD MLOAD DUP10 PUSH1 0x40 ADD MLOAD DUP4 DUP6 PUSH2 0x3987 JUMP JUMPDEST PUSH1 0x80 DUP8 ADD MLOAD PUSH2 0x295A SWAP1 DUP5 PUSH2 0x36BE JUMP JUMPDEST PUSH1 0x80 SWAP1 SWAP8 ADD SWAP7 SWAP1 SWAP7 MSTORE POP SWAP6 SWAP5 POP POP POP POP POP JUMP JUMPDEST PUSH2 0x2975 PUSH2 0x5255 JUMP JUMPDEST PUSH1 0x20 DUP4 ADD MLOAD PUSH5 0xFFFFFFFFFF EQ PUSH2 0x298A JUMPI PUSH1 0x0 DUP1 REVERT JUMPDEST PUSH2 0x2999 DUP3 PUSH5 0xFFFFFFFFFF PUSH2 0x16DE JUMP JUMPDEST SWAP1 POP PUSH1 0x0 DUP4 PUSH1 0x80 ADD MLOAD SLT ISZERO PUSH2 0x29DB JUMPI PUSH2 0x29DB DUP4 DUP3 PUSH2 0x29C9 DUP7 PUSH1 0x80 ADD MLOAD DUP7 PUSH2 0x160 ADD MLOAD PUSH2 0xB73 SWAP1 SWAP2 SWAP1 PUSH4 0xFFFFFFFF AND JUMP JUMPDEST PUSH2 0x29D6 DUP8 PUSH1 0x80 ADD MLOAD PUSH2 0xB9F JUMP JUMPDEST PUSH2 0x1FC3 JUMP JUMPDEST PUSH2 0xB13 DUP2 DUP4 PUSH2 0x202E JUMP JUMPDEST PUSH1 0x0 DUP1 PUSH2 0xB13 PUSH1 0x15 PUSH2 0x2ABC JUMP JUMPDEST PUSH2 0x29FA PUSH2 0x515C JUMP JUMPDEST PUSH1 0x0 PUSH2 0x2A05 DUP5 PUSH2 0x3A77 JUMP JUMPDEST SWAP1 POP DUP3 DUP2 PUSH1 0x0 ADD MLOAD LT ISZERO PUSH2 0x2A44 JUMPI PUSH1 0x0 DUP1 PUSH2 0x2A1F DUP7 PUSH2 0x3B3F JUMP JUMPDEST SWAP1 POP PUSH2 0x2A2D DUP7 DUP5 DUP4 DUP9 PUSH2 0x3BBC JUMP JUMPDEST SWAP1 SWAP4 POP SWAP2 POP PUSH2 0x2A3D DUP7 DUP4 DUP6 PUSH2 0x3C60 JUMP JUMPDEST POP POP PUSH2 0x2A51 JUMP JUMPDEST DUP1 MLOAD DUP4 EQ PUSH2 0x2A51 JUMPI PUSH1 0x0 DUP1 REVERT JUMPDEST PUSH1 0x40 MLOAD DUP1 PUSH1 0x60 ADD PUSH1 0x40 MSTORE DUP1 PUSH2 0x2A7A PUSH2 0x1356 DUP5 PUSH1 0xA0 ADD MLOAD DUP6 PUSH1 0xC0 ADD MLOAD PUSH2 0x36EE SWAP1 SWAP2 SWAP1 PUSH4 0xFFFFFFFF AND JUMP JUMPDEST DUP2 MSTORE PUSH1 0x20 ADD PUSH2 0x2A9D PUSH2 0x1356 DUP5 PUSH1 0xA0 ADD MLOAD DUP6 PUSH1 0xE0 ADD MLOAD PUSH2 0x36EE SWAP1 SWAP2 SWAP1 PUSH4 0xFFFFFFFF AND JUMP JUMPDEST DUP2 MSTORE PUSH1 0x20 ADD DUP3 PUSH1 0x60 ADD MLOAD DUP2 MSTORE POP SWAP2 POP POP SWAP3 SWAP2 POP POP JUMP JUMPDEST PUSH1 0x0 DUP1 PUSH2 0xB13 PUSH1 0x10 JUMPDEST PUSH1 0x0 PUSH3 0xF4240 DUP3 PUSH1 0x26 DUP2 GT ISZERO PUSH2 0x2ACE JUMPI INVALID JUMPDEST ADD SWAP3 SWAP2 POP POP JUMP JUMPDEST PUSH1 0x0 DUP1 PUSH2 0xB13 PUSH1 0x1A PUSH2 0x2ABC JUMP JUMPDEST PUSH1 0x0 PUSH5 0xFFFFFFFFFF DUP4 EQ PUSH2 0x2AF6 JUMPI DUP2 PUSH2 0x289C JUMP JUMPDEST PUSH2 0x289C DUP5 DUP4 PUSH2 0x3E91 JUMP JUMPDEST PUSH1 0x40 DUP1 MLOAD PUSH1 0x2 DUP1 DUP3 MSTORE PUSH1 0x60 DUP3 ADD DUP4 MSTORE PUSH1 0x0 SWAP3 PUSH1 0x20 DUP4 ADD SWAP1 DUP1 CALLDATASIZE DUP4 CALLDATACOPY POP POP PUSH1 0x40 DUP1 MLOAD PUSH1 0x2 DUP1 DUP3 MSTORE PUSH1 0x60 DUP3 ADD DUP4 MSTORE SWAP4 SWAP5 POP PUSH1 0x0 SWAP4 SWAP1 SWAP3 POP SWAP1 PUSH1 0x20 DUP4 ADD SWAP1 DUP1 CALLDATASIZE DUP4 CALLDATACOPY ADD SWAP1 POP POP SWAP1 POP PUSH1 0x0 PUSH2 0x2B67 DUP7 PUSH1 0x0 ADD MLOAD DUP8 PUSH1 0x40 ADD MLOAD DUP8 PUSH1 0x40 ADD MLOAD PUSH5 0xFFFFFFFFFF AND PUSH1 0x0 PUSH2 0x1E66 JUMP JUMPDEST SWAP1 POP PUSH1 0xA PUSH1 0xFF AND DUP2 OR DUP4 PUSH1 0x0 DUP2 MLOAD DUP2 LT PUSH2 0x2B7D JUMPI INVALID JUMPDEST PUSH1 0x20 MUL PUSH1 0x20 ADD ADD DUP2 DUP2 MSTORE POP POP PUSH1 0x9 PUSH1 0xFF AND DUP2 OR DUP4 PUSH1 0x1 DUP2 MLOAD DUP2 LT PUSH2 0x2B9D JUMPI INVALID JUMPDEST PUSH1 0x20 MUL PUSH1 0x20 ADD ADD DUP2 DUP2 MSTORE POP POP DUP7 PUSH1 0x20 ADD MLOAD PUSH1 0x0 EQ DUP1 PUSH2 0x2BE0 JUMPI POP PUSH1 0x40 DUP6 ADD MLOAD PUSH5 0xFFFFFFFFFF AND ISZERO DUP1 ISZERO SWAP1 PUSH2 0x2BE0 JUMPI POP DUP7 PUSH1 0x20 ADD MLOAD DUP6 PUSH1 0x40 ADD MLOAD PUSH5 0xFFFFFFFFFF AND EQ ISZERO JUMPDEST ISZERO PUSH2 0x2C82 JUMPI DUP5 PUSH1 0x0 ADD MLOAD PUSH1 0x1 PUSH1 0x1 PUSH1 0x50 SHL SUB AND DUP3 PUSH1 0x0 DUP2 MLOAD DUP2 LT PUSH2 0x2C00 JUMPI INVALID JUMPDEST PUSH1 0x20 MUL PUSH1 0x20 ADD ADD DUP2 DUP2 MSTORE POP POP DUP5 PUSH1 0x20 ADD MLOAD PUSH1 0x1 PUSH1 0x1 PUSH1 0x50 SHL SUB AND DUP3 PUSH1 0x1 DUP2 MLOAD DUP2 LT PUSH2 0x2C27 JUMPI INVALID JUMPDEST PUSH1 0x20 MUL PUSH1 0x20 ADD ADD DUP2 DUP2 MSTORE POP POP PUSH1 0x0 PUSH1 0x1 PUSH1 0x1 PUSH1 0xA0 SHL SUB AND DUP8 PUSH1 0x60 ADD MLOAD PUSH1 0x1 PUSH1 0x1 PUSH1 0xA0 SHL SUB AND CALLER PUSH1 0x1 PUSH1 0x1 PUSH1 0xA0 SHL SUB AND PUSH1 0x0 DUP1 MLOAD PUSH1 0x20 PUSH2 0x5ED1 DUP4 CODECOPY DUP2 MLOAD SWAP2 MSTORE DUP7 DUP7 PUSH1 0x40 MLOAD PUSH2 0x2C75 SWAP3 SWAP2 SWAP1 PUSH2 0x5BAF JUMP JUMPDEST PUSH1 0x40 MLOAD DUP1 SWAP2 SUB SWAP1 LOG4 PUSH2 0x2E7F JUMP JUMPDEST DUP5 PUSH1 0x40 ADD MLOAD PUSH5 0xFFFFFFFFFF AND DUP8 PUSH1 0x20 ADD MLOAD EQ ISZERO PUSH2 0x2E7F JUMPI DUP5 MLOAD PUSH1 0x0 SWAP1 PUSH1 0x1 PUSH1 0x1 PUSH1 0x50 SHL SUB AND DUP6 LT DUP1 PUSH2 0x2CC4 JUMPI POP DUP6 PUSH1 0x20 ADD MLOAD PUSH1 0x1 PUSH1 0x1 PUSH1 0x50 SHL SUB AND DUP9 PUSH1 0x40 ADD MLOAD LT JUMPDEST SWAP1 POP DUP1 ISZERO PUSH2 0x2D94 JUMPI DUP6 MLOAD PUSH1 0x1 PUSH1 0x1 PUSH1 0x50 SHL SUB AND DUP6 LT PUSH2 0x2CE4 JUMPI PUSH1 0x0 PUSH2 0x2CF3 JUMP JUMPDEST DUP6 MLOAD PUSH1 0x1 PUSH1 0x1 PUSH1 0x50 SHL SUB AND DUP6 SWAP1 SUB JUMPDEST DUP4 PUSH1 0x0 DUP2 MLOAD DUP2 LT PUSH2 0x2D00 JUMPI INVALID JUMPDEST PUSH1 0x20 MUL PUSH1 0x20 ADD ADD DUP2 DUP2 MSTORE POP POP PUSH2 0x2D30 DUP9 PUSH1 0x40 ADD MLOAD DUP8 PUSH1 0x20 ADD MLOAD PUSH1 0x1 PUSH1 0x1 PUSH1 0x50 SHL SUB AND PUSH2 0x14AD SWAP1 SWAP2 SWAP1 PUSH4 0xFFFFFFFF AND JUMP JUMPDEST DUP4 PUSH1 0x1 DUP2 MLOAD DUP2 LT PUSH2 0x2D3D JUMPI INVALID JUMPDEST PUSH1 0x20 MUL PUSH1 0x20 ADD ADD DUP2 DUP2 MSTORE POP POP PUSH1 0x0 PUSH1 0x1 PUSH1 0x1 PUSH1 0xA0 SHL SUB AND DUP9 PUSH1 0x60 ADD MLOAD PUSH1 0x1 PUSH1 0x1 PUSH1 0xA0 SHL SUB AND CALLER PUSH1 0x1 PUSH1 0x1 PUSH1 0xA0 SHL SUB AND PUSH1 0x0 DUP1 MLOAD PUSH1 0x20 PUSH2 0x5ED1 DUP4 CODECOPY DUP2 MLOAD SWAP2 MSTORE DUP8 DUP8 PUSH1 0x40 MLOAD PUSH2 0x2D8B SWAP3 SWAP2 SWAP1 PUSH2 0x5BAF JUMP JUMPDEST PUSH1 0x40 MLOAD DUP1 SWAP2 SUB SWAP1 LOG4 JUMPDEST DUP1 ISZERO DUP1 PUSH2 0x2DAA JUMPI POP DUP6 MLOAD PUSH1 0x1 PUSH1 0x1 PUSH1 0x50 SHL SUB AND DUP6 GT JUMPDEST ISZERO PUSH2 0x2E7D JUMPI DUP6 MLOAD PUSH2 0x2DC5 SWAP1 DUP7 SWAP1 PUSH1 0x1 PUSH1 0x1 PUSH1 0x50 SHL SUB AND PUSH2 0x14AD JUMP JUMPDEST DUP4 PUSH1 0x0 DUP2 MLOAD DUP2 LT PUSH2 0x2DD2 JUMPI INVALID JUMPDEST PUSH1 0x20 MUL PUSH1 0x20 ADD ADD DUP2 DUP2 MSTORE POP POP DUP8 PUSH1 0x40 ADD MLOAD DUP7 PUSH1 0x20 ADD MLOAD PUSH1 0x1 PUSH1 0x1 PUSH1 0x50 SHL SUB AND LT PUSH2 0x2DFD JUMPI PUSH1 0x0 PUSH2 0x2E19 JUMP JUMPDEST PUSH1 0x20 DUP7 ADD MLOAD PUSH1 0x40 DUP10 ADD MLOAD PUSH2 0x2E19 SWAP2 PUSH1 0x1 PUSH1 0x1 PUSH1 0x50 SHL SUB AND PUSH2 0x14AD JUMP JUMPDEST DUP4 PUSH1 0x1 DUP2 MLOAD DUP2 LT PUSH2 0x2E26 JUMPI INVALID JUMPDEST PUSH1 0x20 MUL PUSH1 0x20 ADD ADD DUP2 DUP2 MSTORE POP POP DUP8 PUSH1 0x60 ADD MLOAD PUSH1 0x1 PUSH1 0x1 PUSH1 0xA0 SHL SUB AND PUSH1 0x0 PUSH1 0x1 PUSH1 0x1 PUSH1 0xA0 SHL SUB AND CALLER PUSH1 0x1 PUSH1 0x1 PUSH1 0xA0 SHL SUB AND PUSH1 0x0 DUP1 MLOAD PUSH1 0x20 PUSH2 0x5ED1 DUP4 CODECOPY DUP2 MLOAD SWAP2 MSTORE DUP8 DUP8 PUSH1 0x40 MLOAD PUSH2 0x2E74 SWAP3 SWAP2 SWAP1 PUSH2 0x5BAF JUMP JUMPDEST PUSH1 0x40 MLOAD DUP1 SWAP2 SUB SWAP1 LOG4 JUMPDEST POP JUMPDEST PUSH1 0x20 DUP8 ADD MLOAD ISZERO DUP1 ISZERO SWAP1 PUSH2 0x2EA1 JUMPI POP DUP7 PUSH1 0x20 ADD MLOAD DUP6 PUSH1 0x40 ADD MLOAD PUSH5 0xFFFFFFFFFF AND EQ ISZERO JUMPDEST ISZERO PUSH2 0x2F87 JUMPI PUSH1 0x0 PUSH2 0x2EC1 DUP8 PUSH1 0x0 ADD MLOAD DUP9 PUSH1 0x40 ADD MLOAD DUP11 PUSH1 0x20 ADD MLOAD PUSH1 0x0 PUSH2 0x1E66 JUMP JUMPDEST SWAP1 POP PUSH1 0xA PUSH1 0xFF AND DUP2 OR DUP5 PUSH1 0x0 DUP2 MLOAD DUP2 LT PUSH2 0x2ED7 JUMPI INVALID JUMPDEST PUSH1 0x20 MUL PUSH1 0x20 ADD ADD DUP2 DUP2 MSTORE POP POP PUSH1 0x9 PUSH1 0xFF AND DUP2 OR DUP5 PUSH1 0x1 DUP2 MLOAD DUP2 LT PUSH2 0x2EF7 JUMPI INVALID JUMPDEST PUSH1 0x20 MUL PUSH1 0x20 ADD ADD DUP2 DUP2 MSTORE POP POP DUP5 DUP4 PUSH1 0x0 DUP2 MLOAD DUP2 LT PUSH2 0x2F11 JUMPI INVALID JUMPDEST PUSH1 0x20 MUL PUSH1 0x20 ADD ADD DUP2 DUP2 MSTORE POP POP DUP8 PUSH1 0x40 ADD MLOAD DUP4 PUSH1 0x1 DUP2 MLOAD DUP2 LT PUSH2 0x2F2F JUMPI INVALID JUMPDEST PUSH1 0x20 MUL PUSH1 0x20 ADD ADD DUP2 DUP2 MSTORE POP POP DUP8 PUSH1 0x60 ADD MLOAD PUSH1 0x1 PUSH1 0x1 PUSH1 0xA0 SHL SUB AND PUSH1 0x0 PUSH1 0x1 PUSH1 0x1 PUSH1 0xA0 SHL SUB AND CALLER PUSH1 0x1 PUSH1 0x1 PUSH1 0xA0 SHL SUB AND PUSH1 0x0 DUP1 MLOAD PUSH1 0x20 PUSH2 0x5ED1 DUP4 CODECOPY DUP2 MLOAD SWAP2 MSTORE DUP8 DUP8 PUSH1 0x40 MLOAD PUSH2 0x2F7D SWAP3 SWAP2 SWAP1 PUSH2 0x5BAF JUMP JUMPDEST PUSH1 0x40 MLOAD DUP1 SWAP2 SUB SWAP1 LOG4 POP JUMPDEST PUSH1 0x80 DUP6 ADD MLOAD PUSH1 0x1 PUSH1 0x1 PUSH1 0x50 SHL SUB AND ISZERO PUSH2 0xD09 JUMPI PUSH1 0x60 DUP8 ADD MLOAD PUSH1 0x80 DUP7 ADD MLOAD PUSH1 0x40 MLOAD PUSH1 0x0 SWAP3 PUSH1 0x1 PUSH1 0x1 PUSH1 0xA0 SHL SUB AND SWAP2 CALLER SWAP2 PUSH1 0x0 DUP1 MLOAD PUSH1 0x20 PUSH2 0x5EF1 DUP4 CODECOPY DUP2 MLOAD SWAP2 MSTORE SWAP2 PUSH2 0x1183 SWAP2 PUSH1 0xB DUP9 OR SWAP2 SWAP1 PUSH2 0x5E5F JUMP JUMPDEST PUSH1 0x0 PUSH5 0xFFFFFFFFFF DUP3 GT ISZERO PUSH2 0xAC1 JUMPI PUSH1 0x0 DUP1 REVERT JUMPDEST PUSH1 0x0 PUSH4 0xFFFFFFFF DUP3 GT ISZERO PUSH2 0xAC1 JUMPI PUSH1 0x0 DUP1 REVERT JUMPDEST PUSH1 0x0 DUP1 PUSH2 0xB13 PUSH1 0x26 PUSH2 0x2ABC JUMP JUMPDEST PUSH1 0x0 DUP1 PUSH2 0x3014 PUSH2 0x3EED JUMP JUMPDEST PUSH2 0xFFFF SWAP4 SWAP1 SWAP4 AND PUSH1 0x0 SWAP1 DUP2 MSTORE PUSH1 0x20 SWAP4 SWAP1 SWAP4 MSTORE POP POP PUSH1 0x40 SWAP1 KECCAK256 SLOAD PUSH1 0x1 PUSH1 0x1 PUSH1 0xA0 SHL SUB AND SWAP1 JUMP JUMPDEST PUSH1 0x0 DUP1 PUSH1 0x0 JUMPDEST DUP4 MLOAD DUP2 LT ISZERO PUSH2 0x3248 JUMPI PUSH1 0x0 DUP5 DUP3 DUP2 MLOAD DUP2 LT PUSH2 0x3056 JUMPI INVALID JUMPDEST PUSH1 0x20 MUL PUSH1 0x20 ADD ADD MLOAD SWAP1 POP PUSH1 0x0 DUP2 PUSH1 0x60 ADD MLOAD PUSH1 0x1 PUSH1 0x1 PUSH1 0xA0 SHL SUB AND PUSH4 0x70A08231 ADDRESS PUSH1 0x40 MLOAD DUP3 PUSH4 0xFFFFFFFF AND PUSH1 0xE0 SHL DUP2 MSTORE PUSH1 0x4 ADD PUSH2 0x3092 SWAP2 SWAP1 PUSH2 0x5AFF JUMP JUMPDEST PUSH1 0x20 PUSH1 0x40 MLOAD DUP1 DUP4 SUB DUP2 DUP7 DUP1 EXTCODESIZE ISZERO DUP1 ISZERO PUSH2 0x30AA JUMPI PUSH1 0x0 DUP1 REVERT JUMPDEST POP GAS STATICCALL ISZERO DUP1 ISZERO PUSH2 0x30BE JUMPI RETURNDATASIZE PUSH1 0x0 DUP1 RETURNDATACOPY RETURNDATASIZE PUSH1 0x0 REVERT JUMPDEST POP POP POP POP PUSH1 0x40 MLOAD RETURNDATASIZE PUSH1 0x1F NOT PUSH1 0x1F DUP3 ADD AND DUP3 ADD DUP1 PUSH1 0x40 MSTORE POP DUP2 ADD SWAP1 PUSH2 0x30E2 SWAP2 SWAP1 PUSH2 0x59BE JUMP JUMPDEST SWAP1 POP PUSH1 0x0 PUSH2 0x30F0 DUP9 ADDRESS PUSH2 0x3EFA JUMP JUMPDEST SWAP1 POP PUSH1 0x0 JUMPDEST DUP4 MLOAD MLOAD DUP2 LT ISZERO PUSH2 0x314C JUMPI PUSH2 0x313B DUP5 PUSH1 0x0 ADD MLOAD DUP3 DUP2 MLOAD DUP2 LT PUSH2 0x3112 JUMPI INVALID JUMPDEST PUSH1 0x20 MUL PUSH1 0x20 ADD ADD MLOAD PUSH1 0x0 DUP7 PUSH1 0x20 ADD MLOAD DUP5 DUP2 MLOAD DUP2 LT PUSH2 0x312C JUMPI INVALID JUMPDEST PUSH1 0x20 MUL PUSH1 0x20 ADD ADD MLOAD PUSH1 0x1 PUSH2 0x3FA4 JUMP JUMPDEST PUSH2 0x3144 JUMPI PUSH1 0x1 SWAP7 POP JUMPDEST PUSH1 0x1 ADD PUSH2 0x30F5 JUMP JUMPDEST POP PUSH1 0x0 PUSH2 0x3159 DUP10 ADDRESS PUSH2 0x3EFA JUMP JUMPDEST SWAP1 POP PUSH1 0x0 PUSH2 0x3167 DUP3 DUP5 PUSH2 0x14AD JUMP JUMPDEST SWAP1 POP DUP1 DUP6 PUSH1 0x40 ADD MLOAD GT ISZERO PUSH2 0x317A JUMPI PUSH1 0x0 DUP1 REVERT JUMPDEST PUSH1 0x60 DUP6 ADD MLOAD PUSH1 0x40 MLOAD PUSH4 0x70A08231 PUSH1 0xE0 SHL DUP2 MSTORE PUSH1 0x0 SWAP2 PUSH1 0x1 PUSH1 0x1 PUSH1 0xA0 SHL SUB AND SWAP1 PUSH4 0x70A08231 SWAP1 PUSH2 0x31AD SWAP1 ADDRESS SWAP1 PUSH1 0x4 ADD PUSH2 0x5AFF JUMP JUMPDEST PUSH1 0x20 PUSH1 0x40 MLOAD DUP1 DUP4 SUB DUP2 DUP7 DUP1 EXTCODESIZE ISZERO DUP1 ISZERO PUSH2 0x31C5 JUMPI PUSH1 0x0 DUP1 REVERT JUMPDEST POP GAS STATICCALL ISZERO DUP1 ISZERO PUSH2 0x31D9 JUMPI RETURNDATASIZE PUSH1 0x0 DUP1 RETURNDATACOPY RETURNDATASIZE PUSH1 0x0 REVERT JUMPDEST POP POP POP POP PUSH1 0x40 MLOAD RETURNDATASIZE PUSH1 0x1F NOT PUSH1 0x1F DUP3 ADD AND DUP3 ADD DUP1 PUSH1 0x40 MSTORE POP DUP2 ADD SWAP1 PUSH2 0x31FD SWAP2 SWAP1 PUSH2 0x59BE JUMP JUMPDEST SWAP1 POP DUP5 DUP2 GT ISZERO PUSH2 0x320C JUMPI PUSH1 0x0 DUP1 REVERT JUMPDEST PUSH2 0x321B DUP7 PUSH1 0x60 ADD MLOAD DUP7 DUP4 PUSH2 0x4212 JUMP JUMPDEST PUSH2 0x3225 DUP9 DUP4 PUSH2 0x256A JUMP JUMPDEST SWAP8 POP PUSH2 0x3236 DUP12 PUSH1 0x0 ADD MLOAD DUP6 DUP6 PUSH2 0x4212 JUMP JUMPDEST POP POP PUSH1 0x1 SWAP1 SWAP5 ADD SWAP4 POP PUSH2 0x303F SWAP3 POP POP POP JUMP JUMPDEST POP SWAP3 POP SWAP3 SWAP1 POP JUMP JUMPDEST PUSH1 0x0 PUSH2 0x325A PUSH2 0x5342 JUMP JUMPDEST RETURNDATASIZE DUP1 ISZERO PUSH2 0x326E JUMPI PUSH1 0x20 DUP2 EQ PUSH2 0x3277 JUMPI PUSH1 0x0 DUP1 REVERT JUMPDEST PUSH1 0x1 SWAP3 POP PUSH2 0x3282 JUMP JUMPDEST PUSH1 0x20 PUSH1 0x0 DUP4 RETURNDATACOPY DUP2 MLOAD SWAP3 POP JUMPDEST POP DUP2 PUSH2 0x15A6 JUMPI PUSH1 0x40 DUP1 MLOAD PUSH3 0x461BCD PUSH1 0xE5 SHL DUP2 MSTORE PUSH1 0x20 PUSH1 0x4 DUP3 ADD MSTORE PUSH1 0x5 PUSH1 0x24 DUP3 ADD MSTORE PUSH5 0x455243323 PUSH1 0xDC SHL PUSH1 0x44 DUP3 ADD MSTORE SWAP1 MLOAD SWAP1 DUP2 SWAP1 SUB PUSH1 0x64 ADD SWAP1 REVERT JUMPDEST PUSH1 0x0 PUSH4 0x5F5E100 DUP4 PUSH1 0x40 ADD MLOAD EQ ISZERO PUSH2 0x32D6 JUMPI POP DUP1 PUSH2 0xB13 JUMP JUMPDEST PUSH1 0x40 DUP4 ADD MLOAD PUSH2 0xB6C SWAP1 PUSH2 0x2AA DUP5 PUSH4 0x5F5E100 PUSH2 0xAC5 JUMP JUMPDEST PUSH1 0x0 PUSH2 0x32F7 PUSH2 0x1BB9 JUMP JUMPDEST PUSH2 0xFFFF DUP5 AND PUSH1 0x0 SWAP1 DUP2 MSTORE PUSH1 0x20 SWAP2 SWAP1 SWAP2 MSTORE PUSH1 0x40 SWAP1 DUP2 SWAP1 KECCAK256 SLOAD SWAP1 MLOAD PUSH4 0xAD1C095D PUSH1 0xE0 SHL DUP2 MSTORE PUSH1 0x1 PUSH1 0x1 PUSH1 0xA0 SHL SUB SWAP1 SWAP2 AND SWAP2 POP DUP2 SWAP1 PUSH4 0xAD1C095D SWAP1 PUSH2 0x333F SWAP1 DUP8 SWAP1 DUP7 SWAP1 PUSH1 0x4 ADD PUSH2 0x5B96 JUMP JUMPDEST PUSH1 0x0 PUSH1 0x40 MLOAD DUP1 DUP4 SUB DUP2 PUSH1 0x0 DUP8 DUP1 EXTCODESIZE ISZERO DUP1 ISZERO PUSH2 0x3359 JUMPI PUSH1 0x0 DUP1 REVERT JUMPDEST POP GAS CALL ISZERO DUP1 ISZERO PUSH2 0x1455 JUMPI RETURNDATASIZE PUSH1 0x0 DUP1 RETURNDATACOPY RETURNDATASIZE PUSH1 0x0 REVERT JUMPDEST PUSH1 0x0 PUSH2 0x3377 PUSH2 0x428F JUMP JUMPDEST PUSH2 0xFFFF DUP6 AND PUSH1 0x0 SWAP1 DUP2 MSTORE PUSH1 0x20 SWAP2 SWAP1 SWAP2 MSTORE PUSH1 0x40 SWAP1 KECCAK256 DUP1 SLOAD SWAP1 SWAP2 POP PUSH5 0xFFFFFFFFFF AND TIMESTAMP EQ PUSH2 0x33A2 JUMPI PUSH1 0x0 DUP1 REVERT JUMPDEST DUP1 SLOAD PUSH1 0x0 SWAP1 PUSH2 0x33C1 SWAP1 PUSH1 0x1 PUSH1 0x28 SHL SWAP1 DIV PUSH1 0x1 PUSH1 0x1 PUSH1 0x58 SHL SUB AND DUP6 PUSH2 0x1910 JUMP JUMPDEST DUP3 SLOAD SWAP1 SWAP2 POP PUSH1 0x0 SWAP1 PUSH2 0x33E3 SWAP1 PUSH1 0x1 PUSH1 0x80 SHL SWAP1 DIV PUSH1 0x1 PUSH1 0x1 PUSH1 0x58 SHL SUB AND DUP6 PUSH2 0x1910 JUMP JUMPDEST SWAP1 POP DUP1 PUSH3 0x4C4B40 SGT ISZERO PUSH2 0x33F5 JUMPI PUSH1 0x0 DUP1 REVERT JUMPDEST PUSH2 0x3406 PUSH2 0x3401 DUP3 PUSH2 0x1926 JUMP JUMPDEST PUSH2 0x429C JUMP JUMPDEST DUP4 SLOAD PUSH1 0x1 PUSH1 0x1 PUSH1 0x58 SHL SUB SWAP2 SWAP1 SWAP2 AND PUSH1 0x1 PUSH1 0x80 SHL MUL PUSH11 0xFFFFFFFFFFFFFFFFFFFFFF PUSH1 0x80 SHL NOT SWAP1 SWAP2 AND OR DUP4 SSTORE PUSH2 0x343C PUSH2 0x3401 DUP4 PUSH2 0x1926 JUMP JUMPDEST DUP4 SLOAD PUSH1 0x1 PUSH1 0x1 PUSH1 0x58 SHL SUB SWAP2 SWAP1 SWAP2 AND PUSH1 0x1 PUSH1 0x28 SHL MUL PUSH16 0xFFFFFFFFFFFFFFFFFFFFFF0000000000 NOT SWAP1 SWAP2 AND OR DUP4 SSTORE PUSH2 0x1265 DUP4 PUSH2 0x42B2 JUMP JUMPDEST PUSH1 0x0 PUSH2 0x347B PUSH2 0x2FFC JUMP JUMPDEST PUSH1 0x1 PUSH1 0x1 PUSH1 0xA0 SHL SUB DUP5 AND PUSH1 0x0 SWAP1 DUP2 MSTORE PUSH1 0x20 DUP3 SWAP1 MSTORE PUSH1 0x40 SWAP1 KECCAK256 SLOAD SWAP1 SWAP2 POP PUSH2 0x34A4 PUSH2 0xC09 DUP3 DUP6 PUSH2 0x1910 JUMP JUMPDEST PUSH1 0x1 PUSH1 0x1 PUSH1 0xA0 SHL SUB SWAP1 SWAP5 AND PUSH1 0x0 SWAP1 DUP2 MSTORE PUSH1 0x20 SWAP3 SWAP1 SWAP3 MSTORE POP PUSH1 0x40 SWAP1 KECCAK256 SWAP2 SWAP1 SWAP2 SSTORE POP JUMP JUMPDEST DUP7 SLOAD PUSH1 0x1 PUSH1 0x1 PUSH1 0x50 SHL SUB AND PUSH1 0x0 SWAP1 DUP2 SUB SWAP1 PUSH2 0x34E2 DUP9 DUP7 DUP7 PUSH2 0x2AE2 JUMP JUMPDEST SWAP1 POP PUSH2 0x34F3 PUSH2 0xC0E PUSH2 0xC09 DUP4 PUSH2 0xB9F JUMP JUMPDEST DUP10 SLOAD PUSH1 0x1 PUSH1 0x1 PUSH1 0x50 SHL SUB NOT AND PUSH1 0x1 PUSH1 0x1 PUSH1 0x50 SHL SUB SWAP2 SWAP1 SWAP2 AND OR DUP10 SSTORE PUSH1 0x0 PUSH2 0x351A DUP4 DUP4 PUSH2 0x4377 JUMP JUMPDEST SWAP1 POP PUSH1 0x0 PUSH5 0xFFFFFFFFFF DUP8 EQ ISZERO PUSH2 0x3541 JUMPI DUP9 MLOAD PUSH2 0x353A SWAP1 DUP12 SWAP1 DUP11 DUP6 PUSH2 0x43FE JUMP JUMPDEST POP DUP5 PUSH2 0x3578 JUMP JUMPDEST DUP5 PUSH2 0x3578 JUMPI DUP9 MLOAD PUSH2 0x3555 SWAP1 DUP10 DUP10 DUP8 DUP8 PUSH2 0x442B JUMP JUMPDEST DUP9 MLOAD PUSH2 0x356A SWAP1 DUP10 PUSH2 0x3565 DUP6 PUSH2 0xB9F JUMP JUMPDEST PUSH2 0x44EB JUMP JUMPDEST PUSH2 0x3575 DUP10 DUP12 DUP11 PUSH2 0x45C1 JUMP JUMPDEST SWAP1 POP JUMPDEST PUSH1 0x0 DUP3 SGT DUP1 ISZERO PUSH2 0x3586 JUMPI POP DUP5 ISZERO JUMPDEST ISZERO PUSH2 0x3598 JUMPI DUP9 MLOAD PUSH2 0x3598 SWAP1 DUP10 DUP4 PUSH2 0x4667 JUMP JUMPDEST POP POP POP POP POP POP POP POP POP POP POP JUMP JUMPDEST PUSH1 0x0 PUSH2 0x35AF PUSH2 0x46E3 JUMP JUMPDEST DUP9 MLOAD PUSH1 0x1 PUSH1 0x1 PUSH1 0xA0 SHL SUB AND PUSH1 0x0 SWAP1 DUP2 MSTORE PUSH1 0x20 SWAP2 DUP3 MSTORE PUSH1 0x40 DUP1 DUP3 KECCAK256 DUP9 DUP4 MSTORE DUP4 MSTORE DUP1 DUP3 KECCAK256 PUSH2 0xFFFF DUP11 AND DUP4 MSTORE SWAP1 SWAP3 MSTORE SWAP1 DUP2 KECCAK256 DUP1 SLOAD SWAP1 SWAP3 POP PUSH2 0x35F9 SWAP1 DUP6 SWAP1 DUP9 SWAP1 PUSH1 0x1 PUSH1 0x1 PUSH1 0x50 SHL SUB AND PUSH2 0x2866 JUMP JUMPDEST SWAP1 POP PUSH2 0x3605 DUP2 DUP7 PUSH2 0x1910 JUMP JUMPDEST SWAP1 POP PUSH2 0x3617 DUP3 DUP6 DUP12 DUP11 DUP11 DUP7 PUSH1 0x0 PUSH2 0x34C6 JUMP JUMPDEST PUSH1 0x0 DUP1 DUP7 SGT DUP1 ISZERO PUSH2 0x362C JUMPI POP PUSH5 0xFFFFFFFFFF DUP8 EQ JUMPDEST ISZERO PUSH2 0x364E JUMPI PUSH2 0x3647 PUSH2 0x13BB DUP7 DUP10 PUSH2 0x3642 DUP11 PUSH2 0xB9F JUMP JUMPDEST PUSH2 0x2AE2 JUMP JUMPDEST SWAP1 POP PUSH2 0x365C JUMP JUMPDEST PUSH2 0x3659 DUP6 DUP9 DUP9 PUSH2 0x2AE2 JUMP JUMPDEST SWAP1 POP JUMPDEST DUP4 ISZERO PUSH2 0x1260 JUMPI PUSH2 0x1260 DUP10 DUP12 PUSH1 0x0 ADD MLOAD DUP11 DUP11 DUP6 PUSH2 0x46F0 JUMP JUMPDEST DUP3 ISZERO DUP1 ISZERO PUSH2 0x367F JUMPI POP DUP2 ISZERO JUMPDEST ISZERO PUSH2 0x3695 JUMPI DUP4 SLOAD PUSH5 0xFFFFFFFFFF NOT AND DUP5 SSTORE PUSH2 0x1DA2 JUMP JUMPDEST DUP4 SLOAD PUSH5 0xFFFFFFFFFF NOT AND PUSH5 0xFFFFFFFFFF SWAP2 SWAP1 SWAP2 AND OR SWAP1 SWAP3 SSTORE POP POP JUMP JUMPDEST PUSH1 0x0 DUP1 PUSH2 0xB13 PUSH1 0x7 PUSH2 0x2ABC JUMP JUMPDEST DUP1 DUP3 SUB DUP3 DUP2 SGT ISZERO PUSH1 0x0 DUP4 SLT ISZERO EQ PUSH2 0xB13 JUMPI PUSH1 0x0 DUP1 REVERT JUMPDEST PUSH1 0x0 DUP1 PUSH2 0xB13 PUSH1 0x2 PUSH2 0x2ABC JUMP JUMPDEST PUSH1 0x0 DUP1 PUSH2 0xB13 PUSH1 0x14 PUSH2 0x2ABC JUMP JUMPDEST PUSH1 0x0 DUP3 PUSH2 0x36FD JUMPI POP PUSH1 0x0 PUSH2 0xB13 JUMP JUMPDEST DUP3 DUP3 MUL DUP3 DUP5 DUP3 DUP2 PUSH2 0x370A JUMPI INVALID JUMPDEST DIV EQ PUSH2 0xB6C JUMPI PUSH1 0x0 DUP1 REVERT JUMPDEST PUSH1 0x8 DUP2 SWAP1 SHR PUSH1 0xFF SWAP1 SWAP2 AND SHL SWAP1 JUMP JUMPDEST PUSH1 0x0 PUSH1 0x1 DUP3 SLT PUSH2 0x3732 JUMPI PUSH1 0x0 DUP1 REVERT JUMPDEST DUP2 PUSH2 0x373F JUMPI POP PUSH1 0x0 PUSH2 0xB13 JUMP JUMPDEST PUSH2 0xB6C PUSH1 0x1 PUSH2 0x2559 PUSH15 0xC097CE7BC90715B34B9F1000000000 PUSH2 0x2AA DUP8 PUSH1 0x20 ADD MLOAD DUP8 PUSH2 0xAC5 SWAP1 SWAP2 SWAP1 PUSH4 0xFFFFFFFF AND JUMP JUMPDEST PUSH1 0x0 DUP1 PUSH5 0xFFFFFFFFFF DUP5 EQ ISZERO PUSH2 0x37C0 JUMPI PUSH1 0x20 DUP7 ADD MLOAD PUSH5 0xFFFFFFFFFF EQ PUSH2 0x3798 JUMPI PUSH1 0x0 SWAP2 POP POP PUSH2 0xE58 JUMP JUMPDEST PUSH2 0x37B2 PUSH2 0x1356 DUP8 PUSH1 0xA0 ADD MLOAD DUP6 PUSH2 0x14AD SWAP1 SWAP2 SWAP1 PUSH4 0xFFFFFFFF AND JUMP JUMPDEST PUSH1 0xA0 DUP8 ADD DUP5 SWAP1 MSTORE SWAP1 POP PUSH2 0x37D0 JUMP JUMPDEST PUSH2 0x37CD PUSH2 0x1356 DUP6 DUP6 PUSH2 0x14AD JUMP JUMPDEST SWAP1 POP JUMPDEST PUSH1 0x80 DUP8 ADD MLOAD PUSH1 0x0 SWAP1 PUSH2 0x37EC SWAP1 PUSH4 0x1DA9C00 SWAP1 PUSH2 0x2AA SWAP1 DUP6 PUSH2 0xAC5 JUMP JUMPDEST SWAP1 POP PUSH2 0x37F8 DUP7 DUP3 PUSH2 0x1008 JUMP JUMPDEST SWAP9 SWAP8 POP POP POP POP POP POP POP POP JUMP JUMPDEST PUSH1 0x0 DUP2 SLT ISZERO PUSH2 0x3812 JUMPI PUSH1 0x0 DUP1 REVERT JUMPDEST PUSH1 0x0 PUSH2 0x3820 PUSH2 0xFEE DUP5 PUSH2 0x4752 JUMP JUMPDEST SWAP1 POP PUSH2 0x382C DUP2 DUP4 PUSH2 0x1910 JUMP JUMPDEST SWAP1 POP PUSH2 0x1CD5 PUSH2 0xFEE DUP5 DUP4 PUSH2 0x47AB JUMP JUMPDEST PUSH1 0x0 DUP2 SLT ISZERO PUSH2 0x3849 JUMPI PUSH1 0x0 DUP1 REVERT JUMPDEST PUSH1 0x0 PUSH2 0x3858 DUP4 PUSH2 0xFFFF AND PUSH2 0x481F JUMP JUMPDEST SWAP1 POP PUSH1 0x0 PUSH2 0x3866 DUP3 DUP6 PUSH2 0x4752 JUMP JUMPDEST SWAP1 POP PUSH2 0x3872 DUP2 DUP5 PUSH2 0x1910 JUMP JUMPDEST SWAP1 POP PUSH2 0x1DA2 DUP3 DUP6 DUP4 PUSH2 0x47AB JUMP JUMPDEST PUSH1 0x0 PUSH2 0x3889 PUSH2 0x1BB9 JUMP JUMPDEST PUSH2 0xFFFF DUP6 AND PUSH1 0x0 SWAP1 DUP2 MSTORE PUSH1 0x20 SWAP2 SWAP1 SWAP2 MSTORE PUSH1 0x40 DUP2 KECCAK256 SLOAD PUSH1 0x1 PUSH1 0x1 PUSH1 0xA0 SHL SUB AND SWAP2 POP PUSH2 0x38B1 PUSH2 0x4845 JUMP JUMPDEST PUSH2 0xFFFF DUP7 AND PUSH1 0x0 SWAP1 DUP2 MSTORE PUSH1 0x20 SWAP2 SWAP1 SWAP2 MSTORE PUSH1 0x40 SWAP1 DUP2 SWAP1 KECCAK256 SLOAD SWAP1 MLOAD PUSH4 0xAD1C095D PUSH1 0xE0 SHL DUP2 MSTORE PUSH1 0x1 PUSH1 0x1 PUSH1 0xA0 SHL SUB SWAP1 SWAP2 AND SWAP2 POP DUP2 SWAP1 PUSH4 0xAD1C095D SWAP1 PUSH2 0x38F9 SWAP1 DUP10 SWAP1 DUP8 SWAP1 PUSH1 0x4 ADD PUSH2 0x5B96 JUMP JUMPDEST PUSH1 0x0 PUSH1 0x40 MLOAD DUP1 DUP4 SUB DUP2 PUSH1 0x0 DUP8 DUP1 EXTCODESIZE ISZERO DUP1 ISZERO PUSH2 0x3913 JUMPI PUSH1 0x0 DUP1 REVERT JUMPDEST POP GAS CALL ISZERO DUP1 ISZERO PUSH2 0x3927 JUMPI RETURNDATASIZE PUSH1 0x0 DUP1 RETURNDATACOPY RETURNDATASIZE PUSH1 0x0 REVERT JUMPDEST POP POP PUSH1 0x40 MLOAD PUSH4 0xAD1C095D PUSH1 0xE0 SHL DUP2 MSTORE PUSH1 0x1 PUSH1 0x1 PUSH1 0xA0 SHL SUB DUP6 AND SWAP3 POP PUSH4 0xAD1C095D SWAP2 POP PUSH2 0x3959 SWAP1 DUP10 SWAP1 DUP9 SWAP1 PUSH1 0x4 ADD PUSH2 0x5B96 JUMP JUMPDEST PUSH1 0x0 PUSH1 0x40 MLOAD DUP1 DUP4 SUB DUP2 PUSH1 0x0 DUP8 DUP1 EXTCODESIZE ISZERO DUP1 ISZERO PUSH2 0x3973 JUMPI PUSH1 0x0 DUP1 REVERT JUMPDEST POP GAS CALL ISZERO DUP1 ISZERO PUSH2 0x1260 JUMPI RETURNDATASIZE PUSH1 0x0 DUP1 RETURNDATACOPY RETURNDATASIZE PUSH1 0x0 REVERT JUMPDEST PUSH1 0x0 PUSH2 0x3991 PUSH2 0x1BB9 JUMP JUMPDEST PUSH2 0xFFFF DUP6 AND PUSH1 0x0 SWAP1 DUP2 MSTORE PUSH1 0x20 SWAP2 SWAP1 SWAP2 MSTORE PUSH1 0x40 DUP2 KECCAK256 SLOAD PUSH1 0x1 PUSH1 0x1 PUSH1 0xA0 SHL SUB AND SWAP2 POP PUSH2 0x39B9 PUSH2 0x4852 JUMP JUMPDEST PUSH2 0xFFFF DUP7 AND PUSH1 0x0 SWAP1 DUP2 MSTORE PUSH1 0x20 SWAP2 SWAP1 SWAP2 MSTORE PUSH1 0x40 SWAP1 KECCAK256 SLOAD PUSH1 0x1 PUSH1 0x1 PUSH1 0xA0 SHL SUB SWAP1 DUP2 AND SWAP2 POP DUP3 AND PUSH4 0x23DE6651 DUP8 PUSH2 0xFEE PUSH2 0x39EF DUP8 PUSH2 0x1926 JUMP JUMPDEST PUSH1 0x40 MLOAD DUP5 PUSH4 0xFFFFFFFF AND PUSH1 0xE0 SHL DUP2 MSTORE PUSH1 0x4 ADD PUSH2 0x3A0D SWAP4 SWAP3 SWAP2 SWAP1 PUSH2 0x5B72 JUMP JUMPDEST PUSH1 0x0 PUSH1 0x40 MLOAD DUP1 DUP4 SUB DUP2 PUSH1 0x0 DUP8 DUP1 EXTCODESIZE ISZERO DUP1 ISZERO PUSH2 0x3A27 JUMPI PUSH1 0x0 DUP1 REVERT JUMPDEST POP GAS CALL ISZERO DUP1 ISZERO PUSH2 0x3A3B JUMPI RETURNDATASIZE PUSH1 0x0 DUP1 RETURNDATACOPY RETURNDATASIZE PUSH1 0x0 REVERT JUMPDEST POP POP POP POP DUP2 PUSH1 0x1 PUSH1 0x1 PUSH1 0xA0 SHL SUB AND PUSH4 0x23DE6651 DUP8 DUP4 PUSH2 0x3A59 DUP9 PUSH2 0x1926 JUMP JUMPDEST PUSH1 0x40 MLOAD DUP5 PUSH4 0xFFFFFFFF AND PUSH1 0xE0 SHL DUP2 MSTORE PUSH1 0x4 ADD PUSH2 0x3959 SWAP4 SWAP3 SWAP2 SWAP1 PUSH2 0x5B72 JUMP JUMPDEST PUSH2 0x3A7F PUSH2 0x5360 JUMP JUMPDEST PUSH1 0x0 PUSH2 0x3A89 PUSH2 0x428F JUMP JUMPDEST PUSH2 0xFFFF SWAP4 DUP5 AND PUSH1 0x0 SWAP1 DUP2 MSTORE PUSH1 0x20 SWAP2 DUP3 MSTORE PUSH1 0x40 SWAP1 DUP2 SWAP1 KECCAK256 DUP1 SLOAD PUSH5 0xFFFFFFFFFF DUP2 AND DUP7 MSTORE PUSH1 0x1 PUSH1 0x28 SHL DUP2 DIV PUSH1 0x1 PUSH1 0x1 PUSH1 0x58 SHL SUB SWAP1 DUP2 AND SWAP5 DUP8 ADD SWAP5 SWAP1 SWAP5 MSTORE PUSH1 0x1 DUP3 ADD SLOAD DUP5 AND SWAP3 DUP7 ADD SWAP3 SWAP1 SWAP3 MSTORE PUSH1 0x1 PUSH1 0xD8 SHL DUP3 DIV PUSH4 0xFFFFFFFF AND PUSH1 0x60 DUP7 ADD MSTORE PUSH1 0x1 PUSH1 0x80 SHL SWAP1 SWAP2 DIV SWAP1 SWAP2 AND PUSH1 0x80 DUP5 ADD MSTORE PUSH1 0x2 ADD SLOAD PUSH1 0x1 PUSH1 0x1 PUSH1 0x50 SHL SUB DUP1 DUP3 AND PUSH1 0xA0 DUP6 ADD MSTORE PUSH1 0x1 PUSH1 0x50 SHL DUP3 DIV DUP2 AND PUSH1 0xC0 DUP6 ADD MSTORE PUSH1 0x1 PUSH1 0xA0 SHL DUP3 DIV AND PUSH1 0xE0 DUP5 ADD MSTORE PUSH1 0x1 PUSH1 0xF0 SHL SWAP1 DIV PUSH1 0xFF AND PUSH2 0x12C MUL SWAP1 SWAP3 AND PUSH2 0x100 DUP3 ADD MSTORE SWAP2 SWAP1 POP JUMP JUMPDEST PUSH1 0x0 DUP1 PUSH2 0x3B4B DUP4 PUSH2 0x3009 JUMP JUMPDEST PUSH1 0x1 PUSH1 0x1 PUSH1 0xA0 SHL SUB AND PUSH4 0xEF81F216 PUSH1 0x40 MLOAD DUP2 PUSH4 0xFFFFFFFF AND PUSH1 0xE0 SHL DUP2 MSTORE PUSH1 0x4 ADD PUSH1 0x40 DUP1 MLOAD DUP1 DUP4 SUB DUP2 PUSH1 0x0 DUP8 DUP1 EXTCODESIZE ISZERO DUP1 ISZERO PUSH2 0x3B84 JUMPI PUSH1 0x0 DUP1 REVERT JUMPDEST POP GAS CALL ISZERO DUP1 ISZERO PUSH2 0x3B98 JUMPI RETURNDATASIZE PUSH1 0x0 DUP1 RETURNDATACOPY RETURNDATASIZE PUSH1 0x0 REVERT JUMPDEST POP POP POP POP PUSH1 0x40 MLOAD RETURNDATASIZE PUSH1 0x1F NOT PUSH1 0x1F DUP3 ADD AND DUP3 ADD DUP1 PUSH1 0x40 MSTORE POP DUP2 ADD SWAP1 PUSH2 0x289C SWAP2 SWAP1 PUSH2 0x583C JUMP JUMPDEST PUSH2 0x3BC4 PUSH2 0x5360 JUMP JUMPDEST PUSH1 0x0 DUP1 PUSH1 0x0 PUSH2 0x3BD4 DUP9 DUP7 DUP10 PUSH2 0x485F JUMP JUMPDEST PUSH1 0xC0 DUP12 ADD SWAP3 SWAP1 SWAP3 MSTORE PUSH1 0xE0 DUP11 ADD SWAP3 SWAP1 SWAP3 MSTORE PUSH1 0x20 DUP10 ADD MLOAD SWAP2 SWAP4 POP SWAP2 POP PUSH2 0x3BF8 SWAP1 DUP4 PUSH2 0x256A JUMP JUMPDEST PUSH1 0x20 DUP9 ADD MSTORE PUSH1 0x80 DUP8 ADD MLOAD PUSH1 0x0 SWAP1 ISZERO PUSH2 0x3C26 JUMPI PUSH1 0x80 DUP9 ADD MLOAD PUSH2 0x3C23 SWAP1 PUSH2 0x3C1D DUP10 DUP3 PUSH2 0x14AD JUMP JUMPDEST SWAP1 PUSH2 0x4970 JUMP JUMPDEST SWAP1 POP JUMPDEST PUSH2 0x3C46 PUSH2 0x3C3B PUSH8 0xDE0B6B3A7640000 DUP4 PUSH2 0x256A JUMP JUMPDEST PUSH1 0xA0 DUP11 ADD MLOAD SWAP1 PUSH2 0x498D JUMP JUMPDEST PUSH1 0xA0 DUP10 ADD MSTORE POP POP PUSH1 0x80 DUP7 ADD SWAP5 SWAP1 SWAP5 MSTORE POP POP DUP3 MSTORE SWAP1 SWAP3 SWAP1 SWAP2 POP JUMP JUMPDEST PUSH1 0x0 PUSH2 0x3C6A PUSH2 0x428F JUMP JUMPDEST PUSH1 0x0 DUP6 PUSH2 0xFFFF AND DUP2 MSTORE PUSH1 0x20 ADD SWAP1 DUP2 MSTORE PUSH1 0x20 ADD PUSH1 0x0 KECCAK256 SWAP1 POP PUSH2 0x3C8E DUP3 PUSH1 0x0 ADD MLOAD PUSH2 0x2FD5 JUMP JUMPDEST DUP2 SLOAD PUSH5 0xFFFFFFFFFF NOT AND PUSH5 0xFFFFFFFFFF SWAP2 SWAP1 SWAP2 AND OR DUP2 SSTORE PUSH1 0xA0 DUP3 ADD MLOAD PUSH2 0x3CB3 SWAP1 PUSH2 0x1935 JUMP JUMPDEST PUSH1 0x2 DUP3 ADD DUP1 SLOAD PUSH1 0x1 PUSH1 0x1 PUSH1 0x50 SHL SUB NOT AND PUSH1 0x1 PUSH1 0x1 PUSH1 0x50 SHL SUB SWAP3 SWAP1 SWAP3 AND SWAP2 SWAP1 SWAP2 OR SWAP1 SSTORE PUSH1 0xC0 DUP3 ADD MLOAD PUSH2 0x3CE3 SWAP1 PUSH2 0x1935 JUMP JUMPDEST DUP2 PUSH1 0x2 ADD PUSH1 0xA PUSH2 0x100 EXP DUP2 SLOAD DUP2 PUSH1 0x1 PUSH1 0x1 PUSH1 0x50 SHL SUB MUL NOT AND SWAP1 DUP4 PUSH1 0x1 PUSH1 0x1 PUSH1 0x50 SHL SUB AND MUL OR SWAP1 SSTORE POP PUSH2 0x3D18 DUP3 PUSH1 0xE0 ADD MLOAD PUSH2 0x1935 JUMP JUMPDEST DUP2 PUSH1 0x2 ADD PUSH1 0x14 PUSH2 0x100 EXP DUP2 SLOAD DUP2 PUSH1 0x1 PUSH1 0x1 PUSH1 0x50 SHL SUB MUL NOT AND SWAP1 DUP4 PUSH1 0x1 PUSH1 0x1 PUSH1 0x50 SHL SUB AND MUL OR SWAP1 SSTORE POP PUSH2 0x3D4D DUP3 PUSH1 0x20 ADD MLOAD PUSH2 0x429C JUMP JUMPDEST DUP2 SLOAD PUSH1 0x1 PUSH1 0x1 PUSH1 0x58 SHL SUB SWAP2 SWAP1 SWAP2 AND PUSH1 0x1 PUSH1 0x28 SHL MUL PUSH16 0xFFFFFFFFFFFFFFFFFFFFFF0000000000 NOT SWAP1 SWAP2 AND OR DUP2 SSTORE PUSH1 0x40 DUP3 ADD MLOAD PUSH2 0x3D87 SWAP1 PUSH2 0x429C JUMP JUMPDEST PUSH1 0x1 DUP3 ADD DUP1 SLOAD PUSH11 0xFFFFFFFFFFFFFFFFFFFFFF NOT AND PUSH1 0x1 PUSH1 0x1 PUSH1 0x58 SHL SUB SWAP3 SWAP1 SWAP3 AND SWAP2 SWAP1 SWAP2 OR SWAP1 SSTORE PUSH1 0x80 DUP3 ADD MLOAD PUSH2 0x3DBB SWAP1 PUSH2 0x429C JUMP JUMPDEST DUP2 SLOAD PUSH1 0x1 PUSH1 0x1 PUSH1 0x58 SHL SUB SWAP2 SWAP1 SWAP2 AND PUSH1 0x1 PUSH1 0x80 SHL MUL PUSH11 0xFFFFFFFFFFFFFFFFFFFFFF PUSH1 0x80 SHL NOT SWAP1 SWAP2 AND OR DUP2 SSTORE PUSH1 0x60 DUP3 ADD MLOAD PUSH2 0x3DF3 SWAP1 PUSH2 0x2FE9 JUMP JUMPDEST DUP2 SLOAD PUSH4 0xFFFFFFFF SWAP2 SWAP1 SWAP2 AND PUSH1 0x1 PUSH1 0xD8 SHL MUL PUSH4 0xFFFFFFFF PUSH1 0xD8 SHL NOT SWAP1 SWAP2 AND OR DUP2 SSTORE DUP3 ISZERO PUSH2 0x3E3F JUMPI PUSH1 0x0 PUSH2 0x3E24 DUP5 PUSH2 0xAAB JUMP JUMPDEST SWAP1 POP PUSH2 0x3E30 DUP6 DUP3 PUSH2 0x3804 JUMP JUMPDEST PUSH2 0x3E3D PUSH2 0xFEE DUP7 DUP4 PUSH2 0x32ED JUMP JUMPDEST POP JUMPDEST DUP4 PUSH2 0xFFFF AND PUSH32 0xEF25641E225E493886510CA1AD6584FA7B442B9FEA820A29D1DE3CE27D270FD2 DUP4 PUSH1 0xA0 ADD MLOAD DUP5 PUSH1 0xC0 ADD MLOAD DUP6 PUSH1 0xE0 ADD MLOAD PUSH1 0x40 MLOAD PUSH2 0x3E83 SWAP4 SWAP3 SWAP2 SWAP1 PUSH2 0x5E49 JUMP JUMPDEST PUSH1 0x40 MLOAD DUP1 SWAP2 SUB SWAP1 LOG2 POP POP POP POP JUMP JUMPDEST PUSH1 0x0 DUP2 PUSH1 0x0 SGT ISZERO DUP1 ISZERO PUSH2 0x3EA4 JUMPI POP PUSH1 0xA DUP3 SLT JUMPDEST ISZERO PUSH2 0x3EB1 JUMPI POP PUSH1 0x0 PUSH2 0xB13 JUMP JUMPDEST PUSH1 0x0 DUP3 SLT PUSH2 0x3EBE JUMPI PUSH1 0x0 DUP1 REVERT JUMPDEST PUSH2 0xB6C PUSH1 0x1 PUSH2 0x2559 DUP6 PUSH1 0x20 ADD MLOAD PUSH2 0x2AA PUSH15 0xC097CE7BC90715B34B9F1000000000 DUP8 PUSH2 0xAC5 SWAP1 SWAP2 SWAP1 PUSH4 0xFFFFFFFF AND JUMP JUMPDEST PUSH1 0x0 DUP1 PUSH2 0xB13 PUSH1 0x1F PUSH2 0x2ABC JUMP JUMPDEST PUSH1 0x0 PUSH1 0x3 DUP4 PUSH1 0x60 ADD MLOAD PUSH1 0x5 DUP2 GT ISZERO PUSH2 0x3F0E JUMPI INVALID JUMPDEST EQ ISZERO PUSH2 0x3F25 JUMPI POP PUSH1 0x1 PUSH1 0x1 PUSH1 0xA0 SHL SUB DUP2 AND BALANCE PUSH2 0xB13 JUMP JUMPDEST DUP3 MLOAD PUSH1 0x40 MLOAD PUSH4 0x70A08231 PUSH1 0xE0 SHL DUP2 MSTORE PUSH1 0x1 PUSH1 0x1 PUSH1 0xA0 SHL SUB SWAP1 SWAP2 AND SWAP1 PUSH4 0x70A08231 SWAP1 PUSH2 0x3F54 SWAP1 DUP6 SWAP1 PUSH1 0x4 ADD PUSH2 0x5AFF JUMP JUMPDEST PUSH1 0x20 PUSH1 0x40 MLOAD DUP1 DUP4 SUB DUP2 DUP7 DUP1 EXTCODESIZE ISZERO DUP1 ISZERO PUSH2 0x3F6C JUMPI PUSH1 0x0 DUP1 REVERT JUMPDEST POP GAS STATICCALL ISZERO DUP1 ISZERO PUSH2 0x3F80 JUMPI RETURNDATASIZE PUSH1 0x0 DUP1 RETURNDATACOPY RETURNDATASIZE PUSH1 0x0 REVERT JUMPDEST POP POP POP POP PUSH1 0x40 MLOAD RETURNDATASIZE PUSH1 0x1F NOT PUSH1 0x1F DUP3 ADD AND DUP3 ADD DUP1 PUSH1 0x40 MSTORE POP DUP2 ADD SWAP1 PUSH2 0x1EC3 SWAP2 SWAP1 PUSH2 0x59BE JUMP JUMPDEST PUSH1 0x0 DUP1 PUSH1 0x0 DUP7 PUSH1 0x1 PUSH1 0x1 PUSH1 0xA0 SHL SUB AND DUP7 DUP7 PUSH1 0x40 MLOAD DUP1 DUP3 DUP1 MLOAD SWAP1 PUSH1 0x20 ADD SWAP1 DUP1 DUP4 DUP4 JUMPDEST PUSH1 0x20 DUP4 LT PUSH2 0x3FE4 JUMPI DUP1 MLOAD DUP3 MSTORE PUSH1 0x1F NOT SWAP1 SWAP3 ADD SWAP2 PUSH1 0x20 SWAP2 DUP3 ADD SWAP2 ADD PUSH2 0x3FC5 JUMP JUMPDEST PUSH1 0x1 DUP4 PUSH1 0x20 SUB PUSH2 0x100 EXP SUB DUP1 NOT DUP3 MLOAD AND DUP2 DUP5 MLOAD AND DUP1 DUP3 OR DUP6 MSTORE POP POP POP POP POP POP SWAP1 POP ADD SWAP2 POP POP PUSH1 0x0 PUSH1 0x40 MLOAD DUP1 DUP4 SUB DUP2 DUP6 DUP8 GAS CALL SWAP3 POP POP POP RETURNDATASIZE DUP1 PUSH1 0x0 DUP2 EQ PUSH2 0x4046 JUMPI PUSH1 0x40 MLOAD SWAP2 POP PUSH1 0x1F NOT PUSH1 0x3F RETURNDATASIZE ADD AND DUP3 ADD PUSH1 0x40 MSTORE RETURNDATASIZE DUP3 MSTORE RETURNDATASIZE PUSH1 0x0 PUSH1 0x20 DUP5 ADD RETURNDATACOPY PUSH2 0x404B JUMP JUMPDEST PUSH1 0x60 SWAP2 POP JUMPDEST POP SWAP2 POP SWAP2 POP DUP4 PUSH2 0x40EE JUMPI DUP2 PUSH2 0x405F DUP3 PUSH2 0x49AA JUMP JUMPDEST SWAP1 PUSH2 0x40E8 JUMPI PUSH1 0x40 MLOAD PUSH3 0x461BCD PUSH1 0xE5 SHL DUP2 MSTORE PUSH1 0x4 ADD DUP1 DUP1 PUSH1 0x20 ADD DUP3 DUP2 SUB DUP3 MSTORE DUP4 DUP2 DUP2 MLOAD DUP2 MSTORE PUSH1 0x20 ADD SWAP2 POP DUP1 MLOAD SWAP1 PUSH1 0x20 ADD SWAP1 DUP1 DUP4 DUP4 PUSH1 0x0 JUMPDEST DUP4 DUP2 LT ISZERO PUSH2 0x40AD JUMPI DUP2 DUP2 ADD MLOAD DUP4 DUP3 ADD MSTORE PUSH1 0x20 ADD PUSH2 0x4095 JUMP JUMPDEST POP POP POP POP SWAP1 POP SWAP1 DUP2 ADD SWAP1 PUSH1 0x1F AND DUP1 ISZERO PUSH2 0x40DA JUMPI DUP1 DUP3 SUB DUP1 MLOAD PUSH1 0x1 DUP4 PUSH1 0x20 SUB PUSH2 0x100 EXP SUB NOT AND DUP2 MSTORE PUSH1 0x20 ADD SWAP2 POP JUMPDEST POP SWAP3 POP POP POP PUSH1 0x40 MLOAD DUP1 SWAP2 SUB SWAP1 REVERT JUMPDEST POP PUSH2 0x1E5C JUMP JUMPDEST DUP7 PUSH1 0x1 PUSH1 0x1 PUSH1 0xA0 SHL SUB AND PUSH32 0x3C7E398C5E91088CAE639370E35B25EA669D81FBDF0DEF5388E73661BC34E08E DUP8 DUP8 PUSH2 0x4124 DUP6 PUSH2 0x49AA JUMP JUMPDEST PUSH1 0x40 MLOAD DUP1 DUP5 DUP2 MSTORE PUSH1 0x20 ADD DUP1 PUSH1 0x20 ADD DUP1 PUSH1 0x20 ADD DUP4 DUP2 SUB DUP4 MSTORE DUP6 DUP2 DUP2 MLOAD DUP2 MSTORE PUSH1 0x20 ADD SWAP2 POP DUP1 MLOAD SWAP1 PUSH1 0x20 ADD SWAP1 DUP1 DUP4 DUP4 PUSH1 0x0 JUMPDEST DUP4 DUP2 LT ISZERO PUSH2 0x416B JUMPI DUP2 DUP2 ADD MLOAD DUP4 DUP3 ADD MSTORE PUSH1 0x20 ADD PUSH2 0x4153 JUMP JUMPDEST POP POP POP POP SWAP1 POP SWAP1 DUP2 ADD SWAP1 PUSH1 0x1F AND DUP1 ISZERO PUSH2 0x4198 JUMPI DUP1 DUP3 SUB DUP1 MLOAD PUSH1 0x1 DUP4 PUSH1 0x20 SUB PUSH2 0x100 EXP SUB NOT AND DUP2 MSTORE PUSH1 0x20 ADD SWAP2 POP JUMPDEST POP DUP4 DUP2 SUB DUP3 MSTORE DUP5 MLOAD DUP2 MSTORE DUP5 MLOAD PUSH1 0x20 SWAP2 DUP3 ADD SWAP2 DUP7 ADD SWAP1 DUP1 DUP4 DUP4 PUSH1 0x0 JUMPDEST DUP4 DUP2 LT ISZERO PUSH2 0x41CB JUMPI DUP2 DUP2 ADD MLOAD DUP4 DUP3 ADD MSTORE PUSH1 0x20 ADD PUSH2 0x41B3 JUMP JUMPDEST POP POP POP POP SWAP1 POP SWAP1 DUP2 ADD SWAP1 PUSH1 0x1F AND DUP1 ISZERO PUSH2 0x41F8 JUMPI DUP1 DUP3 SUB DUP1 MLOAD PUSH1 0x1 DUP4 PUSH1 0x20 SUB PUSH2 0x100 EXP SUB NOT AND DUP2 MSTORE PUSH1 0x20 ADD SWAP2 POP JUMPDEST POP SWAP6 POP POP POP POP POP POP PUSH1 0x40 MLOAD DUP1 SWAP2 SUB SWAP1 LOG2 POP SWAP6 SWAP5 POP POP POP POP POP JUMP JUMPDEST PUSH1 0x0 PUSH2 0x421C PUSH2 0x2FFC JUMP JUMPDEST PUSH1 0x1 PUSH1 0x1 PUSH1 0xA0 SHL SUB DUP6 AND PUSH1 0x0 SWAP1 DUP2 MSTORE PUSH1 0x20 DUP3 SWAP1 MSTORE PUSH1 0x40 SWAP1 KECCAK256 SLOAD SWAP1 SWAP2 POP DUP4 DUP2 GT ISZERO PUSH2 0x4245 JUMPI PUSH1 0x0 DUP1 REVERT JUMPDEST PUSH1 0x0 PUSH2 0x425C PUSH2 0x4253 DUP7 PUSH2 0xAAB JUMP JUMPDEST PUSH2 0x2559 DUP7 PUSH2 0xAAB JUMP JUMPDEST SWAP1 POP PUSH2 0x426B PUSH2 0xC09 DUP4 DUP4 PUSH2 0x1910 JUMP JUMPDEST PUSH1 0x1 PUSH1 0x1 PUSH1 0xA0 SHL SUB SWAP1 SWAP7 AND PUSH1 0x0 SWAP1 DUP2 MSTORE PUSH1 0x20 SWAP4 SWAP1 SWAP4 MSTORE POP POP PUSH1 0x40 SWAP1 KECCAK256 SWAP3 SWAP1 SWAP3 SSTORE POP POP JUMP JUMPDEST PUSH1 0x0 DUP1 PUSH2 0xB13 PUSH1 0x1D PUSH2 0x2ABC JUMP JUMPDEST PUSH1 0x0 PUSH1 0x1 PUSH1 0x1 PUSH1 0x58 SHL SUB DUP3 GT ISZERO PUSH2 0xAC1 JUMPI PUSH1 0x0 DUP1 REVERT JUMPDEST DUP1 SLOAD PUSH1 0x2 DUP3 ADD SLOAD PUSH1 0x0 SWAP2 PUSH2 0x42EE SWAP2 PUSH1 0x1 PUSH1 0x28 SHL SWAP1 SWAP2 DIV PUSH1 0x1 PUSH1 0x1 PUSH1 0x58 SHL SUB AND SWAP1 PUSH2 0x2A4 SWAP1 PUSH1 0x1 PUSH1 0x1 PUSH1 0x50 SHL SUB PUSH1 0x1 PUSH1 0x50 SHL DUP3 DIV DUP2 AND SWAP2 AND PUSH2 0xAC5 JUMP JUMPDEST PUSH1 0x1 DUP4 ADD SLOAD PUSH1 0x2 DUP5 ADD SLOAD SWAP2 SWAP3 POP PUSH1 0x0 SWAP2 PUSH2 0x4328 SWAP2 PUSH1 0x1 PUSH1 0x1 PUSH1 0x58 SHL SUB AND SWAP1 PUSH2 0x2A4 SWAP1 PUSH1 0x1 PUSH1 0x1 PUSH1 0x50 SHL SUB PUSH1 0x1 PUSH1 0xA0 SHL DUP3 DIV DUP2 AND SWAP2 AND PUSH2 0xAC5 JUMP JUMPDEST DUP4 SLOAD SWAP1 SWAP2 POP PUSH1 0x0 SWAP1 PUSH2 0x435F SWAP1 PUSH1 0x1 PUSH1 0x1 PUSH1 0x1 PUSH1 0x58 SHL SUB PUSH1 0x1 PUSH1 0x80 SHL SWAP1 SWAP3 DIV DUP3 AND ADD AND PUSH15 0xC097CE7BC90715B34B9F1000000000 PUSH2 0xAC5 JUMP JUMPDEST SWAP1 POP DUP1 PUSH2 0x436C DUP5 DUP5 PUSH2 0x36BE JUMP JUMPDEST SGT ISZERO PUSH2 0x1DA2 JUMPI PUSH1 0x0 DUP1 REVERT JUMPDEST PUSH1 0x0 DUP2 DUP4 EQ DUP1 PUSH2 0x4394 JUMPI POP PUSH1 0x0 DUP4 SLT ISZERO DUP1 ISZERO PUSH2 0x4394 JUMPI POP PUSH1 0x0 DUP3 SLT ISZERO JUMPDEST ISZERO PUSH2 0x43A1 JUMPI POP PUSH1 0x0 PUSH2 0xB13 JUMP JUMPDEST PUSH1 0x0 DUP4 SGT ISZERO DUP1 ISZERO PUSH2 0x43B2 JUMPI POP DUP2 PUSH1 0x0 SLT JUMPDEST ISZERO PUSH2 0x43BE JUMPI POP DUP2 PUSH2 0xB13 JUMP JUMPDEST PUSH1 0x0 DUP3 SGT ISZERO DUP1 ISZERO PUSH2 0x43CF JUMPI POP DUP3 PUSH1 0x0 SLT JUMPDEST ISZERO PUSH2 0x43DD JUMPI PUSH2 0x1EC3 DUP3 PUSH2 0xB9F JUMP JUMPDEST PUSH1 0x0 DUP4 SGT ISZERO DUP1 ISZERO PUSH2 0x43EF JUMPI POP PUSH1 0x0 DUP3 SGT ISZERO JUMPDEST ISZERO PUSH2 0x70 JUMPI PUSH2 0x1EC3 DUP4 DUP4 PUSH2 0x36BE JUMP JUMPDEST DUP1 ISZERO PUSH2 0x1DA2 JUMPI DUP4 MLOAD PUSH1 0x20 DUP6 ADD MLOAD PUSH1 0x0 SWAP2 PUSH2 0x441D SWAP2 PUSH2 0x2AA SWAP1 DUP6 SWAP1 PUSH2 0xAC5 JUMP JUMPDEST SWAP1 POP PUSH2 0xEF1 DUP5 DUP5 DUP5 DUP5 PUSH2 0x4AB1 JUMP JUMPDEST PUSH1 0x0 PUSH2 0x4437 DUP4 DUP4 PUSH2 0x4377 JUMP JUMPDEST SWAP1 POP DUP1 PUSH2 0x4444 JUMPI POP PUSH2 0xEF1 JUMP JUMPDEST PUSH1 0x0 PUSH2 0x444E PUSH2 0x4BEE JUMP JUMPDEST PUSH2 0xFFFF DUP8 AND PUSH1 0x0 SWAP1 DUP2 MSTORE PUSH1 0x20 DUP3 DUP2 MSTORE PUSH1 0x40 DUP1 DUP4 KECCAK256 DUP10 DUP5 MSTORE SWAP1 SWAP2 MSTORE DUP2 KECCAK256 SLOAD SWAP2 SWAP3 POP PUSH1 0x1 PUSH1 0x1 PUSH1 0x50 SHL SUB SWAP1 SWAP2 AND DUP2 SUB SWAP1 PUSH2 0x4486 DUP3 DUP6 PUSH2 0x36BE JUMP JUMPDEST SWAP1 POP PUSH1 0x0 DUP2 SGT ISZERO PUSH2 0x4496 JUMPI PUSH1 0x0 DUP1 REVERT JUMPDEST PUSH2 0x44A5 PUSH2 0xC0E PUSH2 0xC09 DUP4 PUSH2 0xB9F JUMP JUMPDEST PUSH2 0xFFFF DUP10 AND PUSH1 0x0 SWAP1 DUP2 MSTORE PUSH1 0x20 DUP6 DUP2 MSTORE PUSH1 0x40 DUP1 DUP4 KECCAK256 DUP12 DUP5 MSTORE SWAP1 SWAP2 MSTORE SWAP1 KECCAK256 DUP1 SLOAD PUSH1 0x1 PUSH1 0x1 PUSH1 0x50 SHL SUB NOT AND PUSH1 0x1 PUSH1 0x1 PUSH1 0x50 SHL SUB SWAP3 SWAP1 SWAP3 AND SWAP2 SWAP1 SWAP2 OR SWAP1 SSTORE PUSH2 0xDAD DUP10 DUP10 DUP10 DUP8 PUSH2 0x4BFB JUMP JUMPDEST PUSH1 0x0 PUSH2 0x44F5 PUSH2 0x4C61 JUMP JUMPDEST PUSH1 0x1 PUSH1 0x1 PUSH1 0xA0 SHL SUB DUP6 AND PUSH1 0x0 SWAP1 DUP2 MSTORE PUSH1 0x20 SWAP2 DUP3 MSTORE PUSH1 0x40 DUP1 DUP3 KECCAK256 PUSH2 0xFFFF DUP8 AND DUP4 MSTORE SWAP1 SWAP3 MSTORE SWAP1 DUP2 KECCAK256 DUP1 SLOAD SWAP1 SWAP3 POP PUSH2 0x453A SWAP1 PUSH1 0x1 PUSH1 0x50 SHL SWAP1 DIV PUSH1 0x1 PUSH1 0x1 PUSH1 0x50 SHL SUB AND DUP5 PUSH2 0x36BE JUMP JUMPDEST SWAP1 POP PUSH2 0x4548 PUSH2 0xC0E DUP3 PUSH2 0x1926 JUMP JUMPDEST DUP3 SLOAD PUSH1 0x1 PUSH1 0x1 PUSH1 0x50 SHL SUB SWAP2 SWAP1 SWAP2 AND PUSH1 0x1 PUSH1 0x50 SHL MUL PUSH10 0xFFFFFFFFFFFFFFFFFFFF PUSH1 0x50 SHL NOT SWAP1 SWAP2 AND OR DUP3 SSTORE PUSH1 0x40 MLOAD PUSH2 0xFFFF DUP6 AND SWAP1 PUSH1 0x1 PUSH1 0x1 PUSH1 0xA0 SHL SUB DUP8 AND SWAP1 PUSH32 0x20478EF460E49D010960D4F3FFF35D8DAE385443ABFAC09035D6A2CCBCD834C4 SWAP1 PUSH2 0x45B2 SWAP1 DUP6 SWAP1 PUSH2 0x5BD4 JUMP JUMPDEST PUSH1 0x40 MLOAD DUP1 SWAP2 SUB SWAP1 LOG3 POP POP POP POP POP JUMP JUMPDEST PUSH1 0x0 DUP1 DUP5 PUSH1 0x40 ADD MLOAD PUSH2 0xFFFF AND DUP4 PUSH2 0xFFFF AND EQ ISZERO PUSH2 0x460D JUMPI PUSH2 0x45E0 PUSH2 0x29E5 JUMP JUMPDEST DUP6 MLOAD PUSH1 0x1 PUSH1 0x1 PUSH1 0xA0 SHL SUB AND PUSH1 0x0 SWAP1 DUP2 MSTORE PUSH1 0x20 SWAP2 DUP3 MSTORE PUSH1 0x40 DUP1 DUP3 KECCAK256 PUSH5 0xFFFFFFFFFF DUP4 MSTORE SWAP1 SWAP3 MSTORE KECCAK256 SWAP1 POP PUSH2 0x464A JUMP JUMPDEST PUSH2 0x4615 PUSH2 0x46E3 JUMP JUMPDEST DUP6 MLOAD PUSH1 0x1 PUSH1 0x1 PUSH1 0xA0 SHL SUB AND PUSH1 0x0 SWAP1 DUP2 MSTORE PUSH1 0x20 SWAP2 DUP3 MSTORE PUSH1 0x40 DUP1 DUP3 KECCAK256 PUSH5 0xFFFFFFFFFF DUP4 MSTORE DUP4 MSTORE DUP1 DUP3 KECCAK256 PUSH2 0xFFFF DUP8 AND DUP4 MSTORE SWAP1 SWAP3 MSTORE KECCAK256 SWAP1 POP JUMPDEST DUP1 SLOAD PUSH2 0xE58 SWAP1 DUP6 SWAP1 PUSH5 0xFFFFFFFFFF SWAP1 PUSH1 0x1 PUSH1 0x1 PUSH1 0x50 SHL SUB AND PUSH2 0x2866 JUMP JUMPDEST PUSH1 0x0 PUSH2 0x4671 PUSH2 0x4C61 JUMP JUMPDEST PUSH1 0x1 PUSH1 0x1 PUSH1 0xA0 SHL SUB DUP6 AND PUSH1 0x0 SWAP1 DUP2 MSTORE PUSH1 0x20 SWAP2 DUP3 MSTORE PUSH1 0x40 DUP1 DUP3 KECCAK256 PUSH2 0xFFFF DUP8 AND DUP4 MSTORE SWAP1 SWAP3 MSTORE SWAP1 DUP2 KECCAK256 DUP1 SLOAD SWAP1 SWAP3 POP PUSH2 0x46B6 SWAP1 PUSH1 0x1 PUSH1 0x50 SHL SWAP1 DIV PUSH1 0x1 PUSH1 0x1 PUSH1 0x50 SHL SUB AND DUP5 PUSH2 0x36BE JUMP JUMPDEST DUP3 SLOAD SWAP1 SWAP2 POP PUSH1 0x1 PUSH1 0x1 PUSH1 0x50 SHL SUB AND DUP2 SGT ISZERO PUSH2 0xEF1 JUMPI PUSH1 0x40 MLOAD PUSH3 0x461BCD PUSH1 0xE5 SHL DUP2 MSTORE PUSH1 0x4 ADD PUSH2 0x8C9 SWAP1 PUSH2 0x5C52 JUMP JUMPDEST PUSH1 0x0 DUP1 PUSH2 0xB13 PUSH1 0x18 PUSH2 0x2ABC JUMP JUMPDEST DUP1 PUSH2 0x46FA JUMPI PUSH2 0xEF1 JUMP JUMPDEST PUSH1 0x0 DUP1 DUP1 PUSH2 0x470B DUP8 DUP8 DUP8 PUSH1 0xA PUSH2 0x1E66 JUMP JUMPDEST SWAP1 POP PUSH1 0x0 DUP5 SGT ISZERO PUSH2 0x4722 JUMPI DUP8 SWAP3 POP PUSH1 0x0 SWAP2 POP PUSH2 0x472A JUMP JUMPDEST PUSH1 0x0 SWAP3 POP DUP8 SWAP2 POP JUMPDEST PUSH1 0x1 PUSH1 0x1 PUSH1 0xA0 SHL SUB DUP1 DUP4 AND SWAP1 DUP5 AND CALLER PUSH1 0x0 DUP1 MLOAD PUSH1 0x20 PUSH2 0x5EF1 DUP4 CODECOPY DUP2 MLOAD SWAP2 MSTORE DUP5 PUSH2 0x143E DUP10 PUSH2 0x1BC6 JUMP JUMPDEST PUSH1 0x0 DUP1 PUSH2 0x475D PUSH2 0x4C6E JUMP JUMPDEST PUSH1 0x1 PUSH1 0x1 PUSH1 0xA0 SHL SUB DUP6 AND PUSH1 0x0 SWAP1 DUP2 MSTORE PUSH1 0x20 DUP3 DUP2 MSTORE PUSH1 0x40 DUP1 DUP4 KECCAK256 PUSH2 0xFFFF DUP9 AND DUP5 MSTORE SWAP1 SWAP2 MSTORE DUP2 KECCAK256 DUP1 SLOAD PUSH1 0x1 PUSH1 0xA8 SHL SWAP1 DIV PUSH1 0xA SWAP1 DUP2 SIGNEXTEND SWAP1 SIGNEXTEND SWAP5 POP SWAP2 SWAP3 POP DUP4 SLT ISZERO PUSH2 0x47A3 JUMPI PUSH1 0x0 DUP1 REVERT JUMPDEST POP POP SWAP3 SWAP2 POP POP JUMP JUMPDEST PUSH1 0x0 DUP2 SLT ISZERO PUSH2 0x47B9 JUMPI PUSH1 0x0 DUP1 REVERT JUMPDEST PUSH1 0x0 PUSH2 0x47C3 PUSH2 0x4C6E JUMP JUMPDEST PUSH1 0x1 PUSH1 0x1 PUSH1 0xA0 SHL SUB DUP6 AND PUSH1 0x0 SWAP1 DUP2 MSTORE PUSH1 0x20 DUP3 DUP2 MSTORE PUSH1 0x40 DUP1 DUP4 KECCAK256 PUSH2 0xFFFF DUP9 AND DUP5 MSTORE SWAP1 SWAP2 MSTORE SWAP1 KECCAK256 SWAP1 SWAP2 POP PUSH2 0x47F4 DUP4 PUSH2 0x4C7B JUMP JUMPDEST DUP2 SLOAD PUSH1 0xA SWAP2 SWAP1 SWAP2 SIGNEXTEND PUSH1 0x1 PUSH1 0x1 PUSH1 0x58 SHL SUB AND PUSH1 0x1 PUSH1 0xA8 SHL MUL PUSH1 0x1 PUSH1 0x1 PUSH1 0xA8 SHL SUB SWAP1 SWAP2 AND OR SWAP1 SSTORE POP POP POP POP JUMP JUMPDEST PUSH1 0x0 DUP1 PUSH2 0x482A PUSH2 0x4852 JUMP JUMPDEST PUSH1 0x0 SWAP4 DUP5 MSTORE PUSH1 0x20 MSTORE POP POP PUSH1 0x40 SWAP1 KECCAK256 SLOAD PUSH1 0x1 PUSH1 0x1 PUSH1 0xA0 SHL SUB AND SWAP1 JUMP JUMPDEST PUSH1 0x0 DUP1 PUSH2 0xB13 PUSH1 0x22 PUSH2 0x2ABC JUMP JUMPDEST PUSH1 0x0 DUP1 PUSH2 0xB13 PUSH1 0x3 PUSH2 0x2ABC JUMP JUMPDEST PUSH1 0x0 DUP1 PUSH1 0x0 DUP1 PUSH1 0x0 DUP1 PUSH2 0x4872 DUP10 DUP9 PUSH2 0x4CAD JUMP JUMPDEST DUP10 MLOAD SWAP1 SWAP6 POP SWAP2 SWAP4 POP SWAP2 POP PUSH1 0x0 SWAP1 PUSH2 0x4899 SWAP1 PUSH2 0x488E SWAP1 DUP12 SWAP1 PUSH2 0x14AD JUMP JUMPDEST PUSH4 0x3B9ACA00 SWAP1 PUSH2 0x36EE JUMP JUMPDEST SWAP1 POP PUSH2 0x48D3 PUSH2 0x48C8 PUSH4 0x1DA9C00 PUSH2 0x48B0 DUP6 DUP6 PUSH2 0x36EE JUMP JUMPDEST DUP2 PUSH2 0x48B7 JUMPI INVALID JUMPDEST PUSH8 0xDE0B6B3A7640000 SWAP2 SWAP1 DIV PUSH2 0x256A JUMP JUMPDEST PUSH1 0xE0 DUP11 ADD MLOAD SWAP1 PUSH2 0x498D JUMP JUMPDEST SWAP7 POP PUSH2 0x48F5 PUSH2 0x48EA PUSH4 0x1DA9C00 PUSH2 0x48B0 DUP8 DUP6 PUSH2 0x36EE JUMP JUMPDEST PUSH1 0xC0 DUP11 ADD MLOAD SWAP1 PUSH2 0x498D JUMP JUMPDEST SWAP6 POP DUP2 DUP4 EQ ISZERO PUSH2 0x490C JUMPI POP PUSH1 0x0 SWAP4 POP PUSH2 0x4967 SWAP2 POP POP JUMP JUMPDEST PUSH1 0x0 PUSH2 0x492E PUSH2 0x4923 PUSH4 0x1DA9C00 PUSH2 0x48B0 DUP8 DUP7 PUSH2 0x36EE JUMP JUMPDEST PUSH1 0xE0 DUP12 ADD MLOAD SWAP1 PUSH2 0x498D JUMP JUMPDEST SWAP1 POP PUSH1 0x0 PUSH2 0x493C DUP10 DUP4 PUSH2 0x14AD JUMP JUMPDEST SWAP1 POP PUSH2 0x495F DUP9 PUSH2 0x4959 DUP4 DUP14 PUSH1 0x40 ADD MLOAD PUSH2 0x36EE SWAP1 SWAP2 SWAP1 PUSH4 0xFFFFFFFF AND JUMP JUMPDEST SWAP1 PUSH2 0x4D48 JUMP JUMPDEST SWAP7 POP POP POP POP POP POP JUMPDEST SWAP4 POP SWAP4 POP SWAP4 POP SWAP4 JUMP JUMPDEST PUSH1 0x0 PUSH2 0xB6C PUSH2 0x4987 DUP5 PUSH8 0xDE0B6B3A7640000 PUSH2 0x36EE JUMP JUMPDEST DUP4 PUSH2 0x4D48 JUMP JUMPDEST PUSH1 0x0 PUSH2 0xB6C PUSH2 0x499C DUP5 DUP5 PUSH2 0x36EE JUMP JUMPDEST PUSH8 0xDE0B6B3A7640000 PUSH2 0x4D48 JUMP JUMPDEST PUSH1 0x60 PUSH1 0x44 DUP3 MLOAD LT ISZERO PUSH2 0x49E0 JUMPI POP PUSH1 0x40 DUP1 MLOAD DUP1 DUP3 ADD SWAP1 SWAP2 MSTORE PUSH1 0xD DUP2 MSTORE PUSH13 0x14DA5B195B9D0814995D995C9D PUSH1 0x9A SHL PUSH1 0x20 DUP3 ADD MSTORE PUSH2 0x938 JUMP JUMPDEST PUSH1 0x4 DUP3 ADD DUP1 MLOAD SWAP1 SWAP3 PUSH1 0x24 ADD SWAP1 PUSH1 0x20 DUP2 LT ISZERO PUSH2 0x49FA JUMPI PUSH1 0x0 DUP1 REVERT JUMPDEST DUP2 ADD SWAP1 DUP1 DUP1 MLOAD PUSH1 0x40 MLOAD SWAP4 SWAP3 SWAP2 SWAP1 DUP5 PUSH5 0x100000000 DUP3 GT ISZERO PUSH2 0x4A1A JUMPI PUSH1 0x0 DUP1 REVERT JUMPDEST SWAP1 DUP4 ADD SWAP1 PUSH1 0x20 DUP3 ADD DUP6 DUP2 GT ISZERO PUSH2 0x4A2F JUMPI PUSH1 0x0 DUP1 REVERT JUMPDEST DUP3 MLOAD PUSH5 0x100000000 DUP2 GT DUP3 DUP3 ADD DUP9 LT OR ISZERO PUSH2 0x4A49 JUMPI PUSH1 0x0 DUP1 REVERT JUMPDEST DUP3 MSTORE POP DUP2 MLOAD PUSH1 0x20 SWAP2 DUP3 ADD SWAP3 SWAP1 SWAP2 ADD SWAP1 DUP1 DUP4 DUP4 PUSH1 0x0 JUMPDEST DUP4 DUP2 LT ISZERO PUSH2 0x4A76 JUMPI DUP2 DUP2 ADD MLOAD DUP4 DUP3 ADD MSTORE PUSH1 0x20 ADD PUSH2 0x4A5E JUMP JUMPDEST POP POP POP POP SWAP1 POP SWAP1 DUP2 ADD SWAP1 PUSH1 0x1F AND DUP1 ISZERO PUSH2 0x4AA3 JUMPI DUP1 DUP3 SUB DUP1 MLOAD PUSH1 0x1 DUP4 PUSH1 0x20 SUB PUSH2 0x100 EXP SUB NOT AND DUP2 MSTORE PUSH1 0x20 ADD SWAP2 POP JUMPDEST POP PUSH1 0x40 MSTORE POP POP POP SWAP1 POP SWAP2 SWAP1 POP JUMP JUMPDEST PUSH1 0x0 PUSH2 0x4ABB PUSH2 0x428F JUMP JUMPDEST PUSH2 0xFFFF DUP6 AND PUSH1 0x0 SWAP1 DUP2 MSTORE PUSH1 0x20 SWAP2 SWAP1 SWAP2 MSTORE PUSH1 0x40 SWAP1 KECCAK256 DUP1 SLOAD SWAP1 SWAP2 POP PUSH5 0xFFFFFFFFFF AND TIMESTAMP EQ PUSH2 0x4AE6 JUMPI PUSH1 0x0 DUP1 REVERT JUMPDEST DUP1 SLOAD PUSH1 0x1 PUSH1 0xF8 SHL SWAP1 DIV PUSH1 0xFF AND PUSH2 0x4AFB JUMPI PUSH1 0x0 DUP1 REVERT JUMPDEST PUSH1 0x1 DUP2 ADD SLOAD PUSH1 0x0 SWAP1 PUSH2 0x4B16 SWAP1 PUSH1 0x1 PUSH1 0x1 PUSH1 0x58 SHL SUB AND DUP6 PUSH2 0x1910 JUMP JUMPDEST DUP3 SLOAD SWAP1 SWAP2 POP PUSH1 0x0 SWAP1 PUSH2 0x4B38 SWAP1 PUSH1 0x1 PUSH1 0x28 SHL SWAP1 DIV PUSH1 0x1 PUSH1 0x1 PUSH1 0x58 SHL SUB AND DUP6 PUSH2 0x1910 JUMP JUMPDEST SWAP1 POP DUP2 PUSH1 0x9 NOT SLT DUP1 ISZERO PUSH2 0x4B4B JUMPI POP PUSH1 0x0 DUP3 SLT JUMPDEST ISZERO PUSH2 0x4B55 JUMPI PUSH1 0x0 SWAP2 POP JUMPDEST DUP1 PUSH1 0x9 NOT SLT DUP1 ISZERO PUSH2 0x4B66 JUMPI POP PUSH1 0x0 DUP2 SLT JUMPDEST ISZERO PUSH2 0x4B6F JUMPI POP PUSH1 0x0 JUMPDEST PUSH2 0x4B7B PUSH2 0x3401 DUP4 PUSH2 0x1926 JUMP JUMPDEST PUSH1 0x1 DUP5 ADD DUP1 SLOAD PUSH11 0xFFFFFFFFFFFFFFFFFFFFFF NOT AND PUSH1 0x1 PUSH1 0x1 PUSH1 0x58 SHL SUB SWAP3 SWAP1 SWAP3 AND SWAP2 SWAP1 SWAP2 OR SWAP1 SSTORE PUSH2 0x4BAD PUSH2 0x3401 DUP3 PUSH2 0x1926 JUMP JUMPDEST DUP4 SLOAD PUSH1 0x1 PUSH1 0x1 PUSH1 0x58 SHL SUB SWAP2 SWAP1 SWAP2 AND PUSH1 0x1 PUSH1 0x28 SHL MUL PUSH16 0xFFFFFFFFFFFFFFFFFFFFFF0000000000 NOT SWAP1 SWAP2 AND OR DUP4 SSTORE PUSH2 0x4BE5 DUP8 DUP8 DUP7 DUP9 PUSH2 0x387F JUMP JUMPDEST PUSH2 0xD09 DUP4 PUSH2 0x42B2 JUMP JUMPDEST PUSH1 0x0 DUP1 PUSH2 0xB13 PUSH1 0x20 PUSH2 0x2ABC JUMP JUMPDEST PUSH1 0x0 DUP1 PUSH2 0x4C09 DUP6 DUP6 DUP6 PUSH2 0x4D67 JUMP JUMPDEST SWAP2 POP SWAP2 POP PUSH1 0x0 DUP1 PUSH1 0x0 DUP6 SLT ISZERO PUSH2 0x4C21 JUMPI DUP8 SWAP2 POP PUSH2 0x4C24 JUMP JUMPDEST POP DUP7 JUMPDEST DUP1 PUSH1 0x1 PUSH1 0x1 PUSH1 0xA0 SHL SUB AND DUP3 PUSH1 0x1 PUSH1 0x1 PUSH1 0xA0 SHL SUB AND CALLER PUSH1 0x1 PUSH1 0x1 PUSH1 0xA0 SHL SUB AND PUSH1 0x0 DUP1 MLOAD PUSH1 0x20 PUSH2 0x5ED1 DUP4 CODECOPY DUP2 MLOAD SWAP2 MSTORE DUP8 DUP8 PUSH1 0x40 MLOAD PUSH2 0x144C SWAP3 SWAP2 SWAP1 PUSH2 0x5BAF JUMP JUMPDEST PUSH1 0x0 DUP1 PUSH2 0xB13 PUSH1 0x17 PUSH2 0x2ABC JUMP JUMPDEST PUSH1 0x0 DUP1 PUSH2 0xB13 PUSH1 0x6 PUSH2 0x2ABC JUMP JUMPDEST PUSH1 0x0 PUSH11 0x7FFFFFFFFFFFFFFFFFFFFF NOT DUP3 SLT DUP1 ISZERO SWAP1 PUSH2 0x4CA4 JUMPI POP PUSH11 0x7FFFFFFFFFFFFFFFFFFFFF DUP3 SGT ISZERO JUMPDEST PUSH2 0xAC1 JUMPI PUSH1 0x0 DUP1 REVERT JUMPDEST PUSH1 0x0 DUP1 PUSH1 0x0 DUP1 PUSH1 0x0 DUP6 PUSH1 0x20 ADD MLOAD GT ISZERO PUSH2 0x4CFA JUMPI PUSH2 0x4CF7 PUSH2 0x4CDE DUP7 PUSH1 0xC0 ADD MLOAD DUP8 PUSH1 0x20 ADD MLOAD PUSH2 0x36EE SWAP1 SWAP2 SWAP1 PUSH4 0xFFFFFFFF AND JUMP JUMPDEST PUSH1 0xE0 DUP8 ADD MLOAD PUSH1 0x40 DUP9 ADD MLOAD PUSH2 0x4CF1 SWAP2 PUSH2 0x36EE JUMP JUMPDEST SWAP1 PUSH2 0x4E4C JUMP JUMPDEST SWAP1 POP JUMPDEST PUSH1 0x0 PUSH2 0x4D05 DUP8 PUSH2 0x4E5F JUMP JUMPDEST SWAP1 POP PUSH2 0x4D11 DUP2 DUP4 PUSH2 0x4E92 JUMP JUMPDEST SWAP5 POP DUP2 ISZERO PUSH2 0x4D28 JUMPI PUSH2 0x4D25 DUP2 DUP7 PUSH1 0x1 PUSH2 0x4F4B JUMP JUMPDEST SWAP4 POP JUMPDEST PUSH1 0x20 DUP7 ADD MLOAD ISZERO PUSH2 0x4D3F JUMPI PUSH2 0x4D3C DUP6 DUP4 PUSH2 0x4FC5 JUMP JUMPDEST SWAP3 POP JUMPDEST POP POP SWAP3 POP SWAP3 POP SWAP3 JUMP JUMPDEST PUSH1 0x0 DUP1 DUP3 GT PUSH2 0x4D56 JUMPI PUSH1 0x0 DUP1 REVERT JUMPDEST DUP2 DUP4 DUP2 PUSH2 0x4D5F JUMPI INVALID JUMPDEST DIV SWAP4 SWAP3 POP POP POP JUMP JUMPDEST PUSH1 0x40 DUP1 MLOAD PUSH1 0x2 DUP1 DUP3 MSTORE PUSH1 0x60 DUP3 DUP2 ADD SWAP1 SWAP4 MSTORE DUP3 SWAP2 PUSH1 0x0 SWAP2 DUP2 PUSH1 0x20 ADD PUSH1 0x20 DUP3 MUL DUP1 CALLDATASIZE DUP4 CALLDATACOPY ADD SWAP1 POP POP SWAP1 POP PUSH1 0x0 PUSH2 0x4D9B DUP8 DUP8 PUSH2 0x4FDE JUMP JUMPDEST SWAP1 POP DUP1 DUP3 PUSH1 0x0 DUP2 MLOAD DUP2 LT PUSH2 0x4DAB JUMPI INVALID JUMPDEST PUSH1 0x20 MUL PUSH1 0x20 ADD ADD DUP2 DUP2 MSTORE POP POP PUSH1 0x1 PUSH1 0x40 SHL DUP2 OR DUP3 PUSH1 0x1 DUP2 MLOAD DUP2 LT PUSH2 0x4DCB JUMPI INVALID JUMPDEST PUSH1 0x20 SWAP1 DUP2 MUL SWAP2 SWAP1 SWAP2 ADD ADD MSTORE PUSH1 0x40 DUP1 MLOAD PUSH1 0x2 DUP1 DUP3 MSTORE PUSH1 0x60 DUP3 ADD SWAP1 SWAP3 MSTORE PUSH1 0x0 SWAP2 DUP2 PUSH1 0x20 ADD PUSH1 0x20 DUP3 MUL DUP1 CALLDATASIZE DUP4 CALLDATACOPY ADD SWAP1 POP POP SWAP1 POP PUSH2 0x4E04 DUP7 PUSH2 0x1BC6 JUMP JUMPDEST DUP2 PUSH1 0x0 DUP2 MLOAD DUP2 LT PUSH2 0x4E11 JUMPI INVALID JUMPDEST PUSH1 0x20 MUL PUSH1 0x20 ADD ADD DUP2 DUP2 MSTORE POP POP PUSH2 0x4E26 DUP7 PUSH2 0x1BC6 JUMP JUMPDEST DUP2 PUSH1 0x1 DUP2 MLOAD DUP2 LT PUSH2 0x4E33 JUMPI INVALID JUMPDEST PUSH1 0x20 SWAP1 DUP2 MUL SWAP2 SWAP1 SWAP2 ADD ADD MSTORE SWAP2 SWAP8 SWAP2 SWAP7 POP SWAP1 SWAP5 POP POP POP POP POP JUMP JUMPDEST PUSH1 0x0 PUSH2 0xB6C PUSH2 0x4987 DUP5 PUSH4 0x3B9ACA00 PUSH2 0x36EE JUMP JUMPDEST PUSH2 0x4E67 PUSH2 0x53AC JUMP JUMPDEST PUSH1 0x0 PUSH2 0x4E71 PUSH2 0x4FFC JUMP JUMPDEST PUSH2 0xFFFF DUP5 AND PUSH1 0x0 SWAP1 DUP2 MSTORE PUSH1 0x20 SWAP2 SWAP1 SWAP2 MSTORE PUSH1 0x40 DUP2 KECCAK256 SLOAD SWAP2 POP PUSH2 0xB6C SWAP1 DUP3 PUSH2 0x5009 JUMP JUMPDEST PUSH1 0x0 DUP1 DUP4 PUSH1 0x80 ADD MLOAD GT PUSH2 0x4EA4 JUMPI PUSH1 0x0 DUP1 REVERT JUMPDEST PUSH4 0x3B9ACA00 DUP3 GT ISZERO PUSH2 0x4EB5 JUMPI PUSH1 0x0 DUP1 REVERT JUMPDEST DUP3 MLOAD DUP3 GT PUSH2 0x4ED4 JUMPI DUP3 MLOAD PUSH1 0x40 DUP5 ADD MLOAD PUSH2 0x1EC3 SWAP2 SWAP1 PUSH2 0x4959 SWAP1 DUP6 SWAP1 PUSH2 0x36EE JUMP JUMPDEST DUP3 PUSH1 0x20 ADD MLOAD DUP3 GT PUSH2 0x4F12 JUMPI PUSH1 0x40 DUP4 ADD MLOAD DUP4 MLOAD PUSH1 0x20 DUP6 ADD MLOAD PUSH1 0x60 DUP7 ADD MLOAD PUSH2 0x1EC3 SWAP4 SWAP3 PUSH2 0x4F0C SWAP3 DUP2 SWAP1 SUB SWAP2 PUSH2 0x4959 SWAP2 DUP9 SUB SWAP1 DUP6 SWAP1 SUB PUSH2 0x36EE JUMP JUMPDEST SWAP1 PUSH2 0x256A JUMP JUMPDEST PUSH2 0xB6C DUP4 PUSH1 0x60 ADD MLOAD PUSH2 0x4F0C DUP6 PUSH1 0x20 ADD MLOAD PUSH4 0x3B9ACA00 SUB PUSH2 0x4959 DUP8 PUSH1 0x60 ADD MLOAD DUP9 PUSH1 0x80 ADD MLOAD SUB DUP9 PUSH1 0x20 ADD MLOAD DUP9 SUB PUSH2 0x36EE SWAP1 SWAP2 SWAP1 PUSH4 0xFFFFFFFF AND JUMP JUMPDEST PUSH1 0x0 DUP1 PUSH2 0x4F6A PUSH1 0x64 PUSH2 0x4959 DUP8 PUSH1 0xE0 ADD MLOAD DUP8 PUSH2 0x36EE SWAP1 SWAP2 SWAP1 PUSH4 0xFFFFFFFF AND JUMP JUMPDEST SWAP1 POP DUP5 PUSH1 0xA0 ADD MLOAD DUP2 LT ISZERO PUSH2 0x4F7F JUMPI POP PUSH1 0xA0 DUP5 ADD MLOAD JUMPDEST DUP5 PUSH1 0xC0 ADD MLOAD DUP2 GT ISZERO PUSH2 0x4F92 JUMPI POP PUSH1 0xC0 DUP5 ADD MLOAD JUMPDEST DUP3 ISZERO PUSH2 0x4FA9 JUMPI PUSH2 0x4FA2 DUP5 DUP3 PUSH2 0x256A JUMP JUMPDEST SWAP2 POP PUSH2 0x4FBD JUMP JUMPDEST DUP4 DUP2 GT PUSH2 0x4FB8 JUMPI DUP1 DUP5 SUB PUSH2 0xE58 JUMP JUMPDEST PUSH1 0x0 SWAP2 POP JUMPDEST POP SWAP4 SWAP3 POP POP POP JUMP JUMPDEST PUSH1 0x0 PUSH2 0xB6C PUSH2 0x4FD4 DUP5 DUP5 PUSH2 0x36EE JUMP JUMPDEST PUSH4 0x3B9ACA00 PUSH2 0x4D48 JUMP JUMPDEST PUSH8 0xFFFF000000000000 PUSH1 0x30 DUP4 SWAP1 SHL AND PUSH1 0x8 DUP3 SWAP1 SHL OR PUSH1 0x1 OR SWAP3 SWAP2 POP POP JUMP JUMPDEST PUSH1 0x0 DUP1 PUSH2 0xB13 PUSH1 0x1B PUSH2 0x2ABC JUMP JUMPDEST PUSH2 0x5011 PUSH2 0x53AC JUMP JUMPDEST PUSH1 0x64 PUSH4 0x3B9ACA00 DUP4 PUSH1 0xFF DUP7 AND PUSH1 0x20 DUP2 LT PUSH2 0x5027 JUMPI INVALID JUMPDEST BYTE MUL DUP2 PUSH2 0x5030 JUMPI INVALID JUMPDEST DIV DUP2 MSTORE PUSH1 0x64 PUSH4 0x3B9ACA00 DUP4 PUSH1 0xFF DUP7 AND PUSH1 0x1 ADD PUSH1 0x20 DUP2 LT PUSH2 0x504C JUMPI INVALID JUMPDEST BYTE MUL DUP2 PUSH2 0x5055 JUMPI INVALID JUMPDEST DIV DUP2 PUSH1 0x20 ADD DUP2 DUP2 MSTORE POP POP PUSH2 0x507A DUP3 PUSH1 0x2 DUP6 PUSH1 0xFF AND ADD PUSH1 0x20 DUP2 LT PUSH2 0x5074 JUMPI INVALID JUMPDEST BYTE PUSH2 0x5128 JUMP JUMPDEST PUSH1 0x80 DUP3 ADD DUP2 SWAP1 MSTORE PUSH2 0x100 SWAP1 DUP4 PUSH1 0xFF DUP7 AND PUSH1 0x3 ADD PUSH1 0x20 DUP2 LT PUSH2 0x5097 JUMPI INVALID JUMPDEST BYTE MUL DUP2 PUSH2 0x50A0 JUMPI INVALID JUMPDEST DIV PUSH1 0x40 DUP3 ADD MSTORE PUSH1 0x80 DUP2 ADD MLOAD PUSH2 0x100 SWAP1 DUP4 PUSH1 0xFF DUP7 AND PUSH1 0x4 ADD PUSH1 0x20 DUP2 LT PUSH2 0x50C1 JUMPI INVALID JUMPDEST BYTE MUL DUP2 PUSH2 0x50CA JUMPI INVALID JUMPDEST DIV PUSH1 0x60 DUP3 ADD MSTORE PUSH3 0x7A120 DUP3 PUSH1 0xFF DUP6 AND PUSH1 0x5 ADD PUSH1 0x20 DUP2 LT PUSH2 0x50E6 JUMPI INVALID JUMPDEST BYTE MUL PUSH1 0xA0 DUP3 ADD MSTORE PUSH3 0x2625A0 DUP3 PUSH1 0xFF DUP6 AND PUSH1 0x6 ADD PUSH1 0x20 DUP2 LT PUSH2 0x5103 JUMPI INVALID JUMPDEST BYTE MUL PUSH1 0xC0 DUP3 ADD MSTORE DUP2 PUSH1 0xFF DUP5 AND PUSH1 0x7 ADD PUSH1 0x20 DUP2 LT PUSH2 0x511C JUMPI INVALID JUMPDEST BYTE PUSH1 0xE0 DUP3 ADD MSTORE SWAP3 SWAP2 POP POP JUMP JUMPDEST PUSH1 0x0 DUP2 PUSH1 0xFF AND PUSH1 0x96 LT PUSH2 0x5143 JUMPI PUSH1 0xFF DUP3 AND PUSH3 0x2625A0 MUL PUSH2 0x935 JUMP JUMPDEST POP PUSH1 0x95 NOT PUSH1 0xFF SWAP2 SWAP1 SWAP2 AND ADD PUSH3 0xE4E1C0 MUL PUSH4 0x165A0BC0 ADD SWAP1 JUMP JUMPDEST PUSH1 0x40 MLOAD DUP1 PUSH1 0x60 ADD PUSH1 0x40 MSTORE DUP1 PUSH1 0x0 DUP2 MSTORE PUSH1 0x20 ADD PUSH1 0x0 DUP2 MSTORE PUSH1 0x20 ADD PUSH1 0x0 DUP2 MSTORE POP SWAP1 JUMP JUMPDEST PUSH1 0x40 MLOAD DUP1 PUSH2 0x1E0 ADD PUSH1 0x40 MSTORE DUP1 PUSH1 0x0 PUSH1 0x1 PUSH1 0x1 PUSH1 0xA0 SHL SUB AND DUP2 MSTORE PUSH1 0x20 ADD PUSH1 0x0 PUSH2 0xFFFF AND DUP2 MSTORE PUSH1 0x20 ADD PUSH1 0x0 PUSH2 0xFFFF AND DUP2 MSTORE PUSH1 0x20 ADD PUSH1 0x0 DUP2 MSTORE PUSH1 0x20 ADD PUSH1 0x0 DUP2 MSTORE PUSH1 0x20 ADD PUSH1 0x0 DUP2 MSTORE PUSH1 0x20 ADD PUSH1 0x0 DUP2 MSTORE PUSH1 0x20 ADD PUSH1 0x0 DUP2 MSTORE PUSH1 0x20 ADD PUSH1 0x0 DUP2 MSTORE PUSH1 0x20 ADD PUSH1 0x0 DUP2 MSTORE PUSH1 0x20 ADD PUSH2 0x51E8 PUSH2 0x53F1 JUMP JUMPDEST DUP2 MSTORE PUSH1 0x20 ADD PUSH2 0x51F5 PUSH2 0x515C JUMP JUMPDEST DUP2 MSTORE PUSH1 0x20 ADD PUSH1 0x0 DUP2 MSTORE PUSH1 0x20 ADD PUSH2 0x5209 PUSH2 0x53F1 JUMP JUMPDEST DUP2 MSTORE PUSH1 0x20 ADD PUSH1 0x0 DUP2 MSTORE POP SWAP1 JUMP JUMPDEST PUSH1 0x40 MLOAD DUP1 PUSH1 0xC0 ADD PUSH1 0x40 MSTORE DUP1 PUSH1 0x0 DUP2 MSTORE PUSH1 0x20 ADD PUSH1 0x0 DUP2 MSTORE PUSH1 0x20 ADD PUSH1 0x0 DUP2 MSTORE PUSH1 0x20 ADD PUSH1 0x0 PUSH1 0x1 PUSH1 0x1 PUSH1 0xA0 SHL SUB AND DUP2 MSTORE PUSH1 0x20 ADD PUSH1 0x0 DUP2 MSTORE PUSH1 0x20 ADD PUSH1 0x0 DUP2 MSTORE POP SWAP1 JUMP JUMPDEST PUSH1 0x40 MLOAD DUP1 PUSH1 0x80 ADD PUSH1 0x40 MSTORE DUP1 PUSH1 0x0 DUP2 MSTORE PUSH1 0x20 ADD PUSH1 0x0 DUP2 MSTORE PUSH1 0x20 ADD PUSH1 0x0 DUP2 MSTORE PUSH1 0x20 ADD PUSH1 0x0 ISZERO ISZERO DUP2 MSTORE POP SWAP1 JUMP JUMPDEST PUSH1 0x40 MLOAD DUP1 PUSH1 0x40 ADD PUSH1 0x40 MSTORE DUP1 PUSH1 0x2 SWAP1 JUMPDEST PUSH2 0x5296 PUSH2 0x515C JUMP JUMPDEST DUP2 MSTORE PUSH1 0x20 ADD SWAP1 PUSH1 0x1 SWAP1 SUB SWAP1 DUP2 PUSH2 0x528E JUMPI SWAP1 POP POP SWAP1 JUMP JUMPDEST PUSH1 0x40 DUP1 MLOAD PUSH1 0xC0 DUP2 ADD DUP3 MSTORE PUSH1 0x0 DUP1 DUP3 MSTORE PUSH1 0x20 DUP3 ADD MSTORE SWAP1 DUP2 ADD PUSH2 0x52CB PUSH2 0x515C JUMP JUMPDEST DUP2 MSTORE PUSH1 0x20 ADD PUSH2 0x52D8 PUSH2 0x515C JUMP JUMPDEST DUP2 MSTORE PUSH1 0x20 ADD PUSH1 0x0 DUP2 MSTORE PUSH1 0x20 ADD PUSH1 0x0 DUP2 MSTORE POP SWAP1 JUMP JUMPDEST PUSH1 0x40 DUP1 MLOAD PUSH1 0xA0 DUP2 ADD DUP3 MSTORE PUSH1 0x0 DUP1 DUP3 MSTORE PUSH1 0x20 DUP3 ADD DUP2 SWAP1 MSTORE SWAP2 DUP2 ADD DUP3 SWAP1 MSTORE SWAP1 PUSH1 0x60 DUP3 ADD SWAP1 PUSH2 0x5209 JUMP JUMPDEST PUSH1 0x40 MLOAD DUP1 PUSH1 0xA0 ADD PUSH1 0x40 MSTORE DUP1 PUSH1 0x0 DUP2 MSTORE PUSH1 0x20 ADD PUSH1 0x0 DUP2 MSTORE PUSH1 0x20 ADD PUSH1 0x0 DUP2 MSTORE PUSH1 0x20 ADD PUSH1 0x0 DUP2 MSTORE PUSH1 0x20 ADD PUSH1 0x0 DUP2 MSTORE POP SWAP1 JUMP JUMPDEST PUSH1 0x40 MLOAD DUP1 PUSH1 0x20 ADD PUSH1 0x40 MSTORE DUP1 PUSH1 0x1 SWAP1 PUSH1 0x20 DUP3 MUL DUP1 CALLDATASIZE DUP4 CALLDATACOPY POP SWAP2 SWAP3 SWAP2 POP POP JUMP JUMPDEST PUSH1 0x40 MLOAD DUP1 PUSH2 0x120 ADD PUSH1 0x40 MSTORE DUP1 PUSH1 0x0 DUP2 MSTORE PUSH1 0x20 ADD PUSH1 0x0 DUP2 MSTORE PUSH1 0x20 ADD PUSH1 0x0 DUP2 MSTORE PUSH1 0x20 ADD PUSH1 0x0 DUP2 MSTORE PUSH1 0x20 ADD PUSH1 0x0 DUP2 MSTORE PUSH1 0x20 ADD PUSH1 0x0 DUP2 MSTORE PUSH1 0x20 ADD PUSH1 0x0 DUP2 MSTORE PUSH1 0x20 ADD PUSH1 0x0 DUP2 MSTORE PUSH1 0x20 ADD PUSH1 0x0 DUP2 MSTORE POP SWAP1 JUMP JUMPDEST PUSH1 0x40 MLOAD DUP1 PUSH2 0x100 ADD PUSH1 0x40 MSTORE DUP1 PUSH1 0x0 DUP2 MSTORE PUSH1 0x20 ADD PUSH1 0x0 DUP2 MSTORE PUSH1 0x20 ADD PUSH1 0x0 DUP2 MSTORE PUSH1 0x20 ADD PUSH1 0x0 DUP2 MSTORE PUSH1 0x20 ADD PUSH1 0x0 DUP2 MSTORE PUSH1 0x20 ADD PUSH1 0x0 DUP2 MSTORE PUSH1 0x20 ADD PUSH1 0x0 DUP2 MSTORE PUSH1 0x20 ADD PUSH1 0x0 DUP2 MSTORE POP SWAP1 JUMP JUMPDEST PUSH1 0x40 MLOAD DUP1 PUSH1 0x40 ADD PUSH1 0x40 MSTORE DUP1 PUSH1 0x2 SWAP1 PUSH1 0x20 DUP3 MUL DUP1 CALLDATASIZE DUP4 CALLDATACOPY POP SWAP2 SWAP3 SWAP2 POP POP JUMP JUMPDEST DUP1 MLOAD PUSH2 0x938 DUP2 PUSH2 0x5EB8 JUMP JUMPDEST PUSH1 0x0 DUP3 PUSH1 0x1F DUP4 ADD SLT PUSH2 0x542A JUMPI DUP1 DUP2 REVERT JUMPDEST DUP2 MLOAD PUSH1 0x20 PUSH2 0x543F PUSH2 0x543A DUP4 PUSH2 0x5E9A JUMP JUMPDEST PUSH2 0x5E76 JUMP JUMPDEST DUP3 DUP2 MSTORE DUP2 DUP2 ADD SWAP1 DUP6 DUP4 ADD DUP4 DUP6 MUL DUP8 ADD DUP5 ADD DUP9 LT ISZERO PUSH2 0x545B JUMPI DUP6 DUP7 REVERT JUMPDEST DUP6 JUMPDEST DUP6 DUP2 LT ISZERO PUSH2 0x5482 JUMPI DUP2 MLOAD PUSH2 0x5470 DUP2 PUSH2 0x5EB8 JUMP JUMPDEST DUP5 MSTORE SWAP3 DUP5 ADD SWAP3 SWAP1 DUP5 ADD SWAP1 PUSH1 0x1 ADD PUSH2 0x545D JUMP JUMPDEST POP SWAP1 SWAP8 SWAP7 POP POP POP POP POP POP POP JUMP JUMPDEST PUSH1 0x0 PUSH1 0x1F DUP4 DUP2 DUP5 ADD SLT PUSH2 0x54A0 JUMPI DUP2 DUP3 REVERT JUMPDEST DUP3 MLOAD PUSH1 0x20 PUSH2 0x54B0 PUSH2 0x543A DUP4 PUSH2 0x5E9A JUMP JUMPDEST DUP3 DUP2 MSTORE DUP2 DUP2 ADD SWAP1 DUP7 DUP4 ADD DUP7 JUMPDEST DUP6 DUP2 LT ISZERO PUSH2 0x5555 JUMPI DUP2 MLOAD DUP10 ADD DUP11 PUSH1 0x3F DUP3 ADD SLT PUSH2 0x54D6 JUMPI DUP9 DUP10 REVERT JUMPDEST DUP6 DUP2 ADD MLOAD PUSH8 0xFFFFFFFFFFFFFFFF DUP2 GT ISZERO PUSH2 0x54EC JUMPI INVALID JUMPDEST PUSH2 0x54FD DUP2 DUP11 ADD PUSH1 0x1F NOT AND DUP9 ADD PUSH2 0x5E76 JUMP JUMPDEST DUP2 DUP2 MSTORE PUSH1 0x40 DUP14 DUP2 DUP5 DUP7 ADD ADD GT ISZERO PUSH2 0x5512 JUMPI DUP12 DUP13 REVERT JUMPDEST DUP12 JUMPDEST DUP4 DUP2 LT ISZERO PUSH2 0x552F JUMPI DUP5 DUP2 ADD DUP3 ADD MLOAD DUP4 DUP3 ADD DUP12 ADD MSTORE DUP10 ADD PUSH2 0x5514 JUMP JUMPDEST DUP4 DUP2 GT ISZERO PUSH2 0x553F JUMPI DUP13 DUP11 DUP6 DUP6 ADD ADD MSTORE JUMPDEST POP POP DUP7 MSTORE POP POP SWAP3 DUP5 ADD SWAP3 SWAP1 DUP5 ADD SWAP1 PUSH1 0x1 ADD PUSH2 0x54BC JUMP JUMPDEST POP SWAP1 SWAP9 SWAP8 POP POP POP POP POP POP POP POP JUMP JUMPDEST PUSH1 0x0 DUP3 PUSH1 0x1F DUP4 ADD SLT PUSH2 0x5573 JUMPI DUP1 DUP2 REVERT JUMPDEST PUSH1 0x40 MLOAD PUSH1 0x60 DUP2 ADD DUP2 DUP2 LT PUSH8 0xFFFFFFFFFFFFFFFF DUP3 GT OR ISZERO PUSH2 0x5590 JUMPI INVALID JUMPDEST PUSH1 0x40 MSTORE DUP1 DUP4 PUSH1 0x60 DUP2 ADD DUP7 LT ISZERO PUSH2 0x55A4 JUMPI DUP4 DUP5 REVERT JUMPDEST DUP4 JUMPDEST PUSH1 0x3 DUP2 LT ISZERO PUSH2 0x55C5 JUMPI DUP2 MLOAD DUP4 MSTORE PUSH1 0x20 SWAP3 DUP4 ADD SWAP3 SWAP1 SWAP2 ADD SWAP1 PUSH1 0x1 ADD PUSH2 0x55A6 JUMP JUMPDEST POP SWAP2 SWAP6 SWAP5 POP POP POP POP POP JUMP JUMPDEST DUP1 MLOAD PUSH1 0x1 PUSH1 0x1 PUSH1 0x50 SHL SUB DUP2 AND DUP2 EQ PUSH2 0x938 JUMPI PUSH1 0x0 DUP1 REVERT JUMPDEST PUSH1 0x0 DUP1 PUSH1 0x0 DUP1 PUSH1 0x0 PUSH1 0xA0 DUP7 DUP9 SUB SLT ISZERO PUSH2 0x55FE JUMPI DUP1 DUP2 REVERT JUMPDEST DUP6 CALLDATALOAD PUSH2 0x5609 DUP2 PUSH2 0x5EB8 JUMP JUMPDEST SWAP5 POP PUSH1 0x20 DUP7 ADD CALLDATALOAD PUSH2 0x5619 DUP2 PUSH2 0x5EB8 JUMP JUMPDEST SWAP4 POP PUSH1 0x40 DUP7 ADD CALLDATALOAD PUSH2 0x5629 DUP2 PUSH2 0x5EB8 JUMP JUMPDEST SWAP3 POP PUSH1 0x60 DUP7 ADD CALLDATALOAD PUSH2 0xFFFF DUP2 AND DUP2 EQ PUSH2 0x563F JUMPI DUP2 DUP3 REVERT JUMPDEST SWAP5 SWAP8 SWAP4 SWAP7 POP SWAP2 SWAP5 PUSH1 0x80 ADD CALLDATALOAD SWAP3 SWAP2 POP POP JUMP JUMPDEST PUSH1 0x0 DUP1 PUSH1 0x0 DUP1 PUSH1 0x0 PUSH1 0xA0 DUP7 DUP9 SUB SLT ISZERO PUSH2 0x5667 JUMPI DUP3 DUP4 REVERT JUMPDEST DUP6 CALLDATALOAD PUSH2 0x5672 DUP2 PUSH2 0x5EB8 JUMP JUMPDEST SWAP5 POP PUSH1 0x20 DUP7 ADD CALLDATALOAD PUSH2 0x5682 DUP2 PUSH2 0x5EB8 JUMP JUMPDEST SWAP4 POP PUSH1 0x40 DUP7 ADD CALLDATALOAD PUSH2 0x5692 DUP2 PUSH2 0x5EB8 JUMP JUMPDEST SWAP5 SWAP8 SWAP4 SWAP7 POP SWAP4 SWAP5 PUSH1 0x60 DUP2 ADD CALLDATALOAD SWAP5 POP PUSH1 0x80 ADD CALLDATALOAD SWAP3 SWAP2 POP POP JUMP JUMPDEST PUSH1 0x0 DUP1 PUSH1 0x0 DUP1 PUSH1 0x0 DUP1 PUSH1 0xC0 DUP8 DUP10 SUB SLT ISZERO PUSH2 0x56C2 JUMPI DUP4 DUP5 REVERT JUMPDEST DUP7 CALLDATALOAD PUSH2 0x56CD DUP2 PUSH2 0x5EB8 JUMP JUMPDEST SWAP6 POP PUSH1 0x20 DUP8 ADD CALLDATALOAD PUSH2 0x56DD DUP2 PUSH2 0x5EB8 JUMP JUMPDEST SWAP5 POP PUSH1 0x40 DUP8 ADD CALLDATALOAD PUSH2 0x56ED DUP2 PUSH2 0x5EB8 JUMP JUMPDEST SWAP6 SWAP9 SWAP5 SWAP8 POP SWAP5 SWAP6 PUSH1 0x60 DUP2 ADD CALLDATALOAD SWAP6 POP PUSH1 0x80 DUP2 ADD CALLDATALOAD SWAP5 PUSH1 0xA0 SWAP1 SWAP2 ADD CALLDATALOAD SWAP4 POP SWAP2 POP POP JUMP JUMPDEST PUSH1 0x0 PUSH1 0x20 DUP1 DUP4 DUP6 SUB SLT ISZERO PUSH2 0x5720 JUMPI DUP2 DUP3 REVERT JUMPDEST DUP3 MLOAD PUSH8 0xFFFFFFFFFFFFFFFF DUP1 DUP3 GT ISZERO PUSH2 0x5737 JUMPI DUP4 DUP5 REVERT JUMPDEST DUP2 DUP6 ADD SWAP2 POP DUP6 PUSH1 0x1F DUP4 ADD SLT PUSH2 0x574A JUMPI DUP4 DUP5 REVERT JUMPDEST DUP2 MLOAD PUSH2 0x5758 PUSH2 0x543A DUP3 PUSH2 0x5E9A JUMP JUMPDEST DUP2 DUP2 MSTORE DUP5 DUP2 ADD SWAP1 DUP5 DUP7 ADD DUP8 JUMPDEST DUP5 DUP2 LT ISZERO PUSH2 0x580D JUMPI DUP2 MLOAD DUP8 ADD PUSH1 0x80 DUP2 DUP14 SUB PUSH1 0x1F NOT ADD SLT ISZERO PUSH2 0x5783 JUMPI DUP10 DUP11 REVERT JUMPDEST PUSH1 0x40 DUP1 MLOAD PUSH1 0x80 DUP2 ADD DUP2 DUP2 LT DUP11 DUP3 GT OR ISZERO PUSH2 0x5799 JUMPI INVALID JUMPDEST DUP3 MSTORE DUP3 DUP12 ADD MLOAD DUP10 DUP2 GT ISZERO PUSH2 0x57AB JUMPI DUP13 DUP14 REVERT JUMPDEST PUSH2 0x57B9 DUP16 DUP14 DUP4 DUP8 ADD ADD PUSH2 0x541A JUMP JUMPDEST DUP3 MSTORE POP DUP2 DUP4 ADD MLOAD DUP10 DUP2 GT ISZERO PUSH2 0x57CC JUMPI DUP13 DUP14 REVERT JUMPDEST PUSH2 0x57DA DUP16 DUP14 DUP4 DUP8 ADD ADD PUSH2 0x548F JUMP JUMPDEST DUP13 DUP4 ADD MSTORE POP PUSH1 0x60 DUP4 ADD MLOAD DUP3 DUP3 ADD MSTORE PUSH2 0x57F4 PUSH1 0x80 DUP5 ADD PUSH2 0x540F JUMP JUMPDEST PUSH1 0x60 DUP3 ADD MSTORE DUP7 MSTORE POP POP SWAP3 DUP8 ADD SWAP3 SWAP1 DUP8 ADD SWAP1 PUSH1 0x1 ADD PUSH2 0x5764 JUMP JUMPDEST POP SWAP1 SWAP10 SWAP9 POP POP POP POP POP POP POP POP POP JUMP JUMPDEST PUSH1 0x0 PUSH1 0x20 DUP3 DUP5 SUB SLT ISZERO PUSH2 0x582D JUMPI DUP1 DUP2 REVERT JUMPDEST DUP2 MLOAD DUP1 ISZERO ISZERO DUP2 EQ PUSH2 0xB6C JUMPI DUP2 DUP3 REVERT JUMPDEST PUSH1 0x0 DUP1 PUSH1 0x40 DUP4 DUP6 SUB SLT ISZERO PUSH2 0x584E JUMPI DUP2 DUP3 REVERT JUMPDEST POP POP DUP1 MLOAD PUSH1 0x20 SWAP1 SWAP2 ADD MLOAD SWAP1 SWAP3 SWAP1 SWAP2 POP JUMP JUMPDEST PUSH1 0x0 DUP1 PUSH1 0x0 DUP4 DUP6 SUB PUSH1 0xA0 DUP2 SLT ISZERO PUSH2 0x5874 JUMPI DUP2 DUP3 REVERT JUMPDEST DUP5 MLOAD SWAP4 POP PUSH1 0x20 DUP6 ADD MLOAD SWAP3 POP PUSH1 0x60 PUSH1 0x3F NOT DUP3 ADD SLT ISZERO PUSH2 0x5890 JUMPI DUP2 DUP3 REVERT JUMPDEST POP PUSH1 0x40 MLOAD PUSH1 0x60 DUP2 ADD DUP2 DUP2 LT PUSH8 0xFFFFFFFFFFFFFFFF DUP3 GT OR ISZERO PUSH2 0x58AE JUMPI INVALID JUMPDEST DUP1 PUSH1 0x40 MSTORE POP PUSH1 0x40 DUP6 ADD MLOAD DUP2 MSTORE PUSH1 0x60 DUP6 ADD MLOAD PUSH1 0x20 DUP3 ADD MSTORE PUSH1 0x80 DUP6 ADD MLOAD PUSH1 0x40 DUP3 ADD MSTORE DUP1 SWAP2 POP POP SWAP3 POP SWAP3 POP SWAP3 JUMP JUMPDEST PUSH1 0x0 DUP1 PUSH1 0x0 DUP4 DUP6 SUB PUSH2 0x180 DUP1 DUP3 SLT ISZERO PUSH2 0x58F0 JUMPI DUP3 DUP4 REVERT JUMPDEST PUSH1 0xC0 DUP3 SLT ISZERO PUSH2 0x58FD JUMPI DUP3 DUP4 REVERT JUMPDEST PUSH1 0x40 MLOAD SWAP2 POP PUSH1 0x80 DUP3 ADD DUP3 DUP2 LT PUSH8 0xFFFFFFFFFFFFFFFF DUP3 GT OR ISZERO PUSH2 0x591C JUMPI INVALID JUMPDEST DUP1 PUSH1 0x40 MSTORE POP DUP6 MLOAD DUP3 MSTORE PUSH1 0x20 DUP1 DUP8 ADD MLOAD DUP2 DUP5 ADD MSTORE PUSH1 0x40 DUP8 ADD MLOAD PUSH1 0x40 DUP5 ADD MSTORE PUSH2 0x5946 DUP9 PUSH1 0x60 DUP10 ADD PUSH2 0x5563 JUMP JUMPDEST PUSH1 0x60 DUP5 ADD MSTORE DUP3 SWAP6 POP PUSH2 0x595B DUP9 PUSH1 0xC0 DUP10 ADD PUSH2 0x5563 JUMP JUMPDEST SWAP5 POP DUP8 PUSH2 0x13F DUP9 ADD SLT PUSH2 0x596C JUMPI DUP4 DUP5 REVERT JUMPDEST PUSH2 0x5976 PUSH1 0x60 PUSH2 0x5E76 JUMP JUMPDEST SWAP3 POP DUP3 PUSH2 0x120 DUP9 ADD DUP10 DUP5 DUP11 ADD GT ISZERO PUSH2 0x598C JUMPI DUP6 DUP7 REVERT JUMPDEST DUP6 SWAP4 POP JUMPDEST PUSH1 0x3 DUP5 LT ISZERO PUSH2 0x59AF JUMPI DUP1 MLOAD DUP6 MSTORE SWAP4 DUP3 ADD SWAP4 PUSH1 0x1 SWAP4 SWAP1 SWAP4 ADD SWAP3 DUP3 ADD PUSH2 0x5990 JUMP JUMPDEST POP DUP1 SWAP5 POP POP POP POP POP SWAP3 POP SWAP3 POP SWAP3 JUMP JUMPDEST PUSH1 0x0 PUSH1 0x20 DUP3 DUP5 SUB SLT ISZERO PUSH2 0x59CF JUMPI DUP1 DUP2 REVERT JUMPDEST POP MLOAD SWAP2 SWAP1 POP JUMP JUMPDEST PUSH1 0x0 DUP1 PUSH1 0x0 DUP1 PUSH1 0x0 PUSH1 0xA0 DUP7 DUP9 SUB SLT ISZERO PUSH2 0x59ED JUMPI DUP3 DUP4 REVERT JUMPDEST PUSH2 0x59F6 DUP7 PUSH2 0x55D0 JUMP JUMPDEST SWAP5 POP PUSH1 0x20 DUP7 ADD MLOAD SWAP4 POP PUSH1 0x40 DUP7 ADD MLOAD SWAP3 POP PUSH1 0x60 DUP7 ADD MLOAD SWAP2 POP PUSH2 0x5A19 PUSH1 0x80 DUP8 ADD PUSH2 0x55D0 JUMP JUMPDEST SWAP1 POP SWAP3 SWAP6 POP SWAP3 SWAP6 SWAP1 SWAP4 POP JUMP JUMPDEST PUSH1 0x1 PUSH1 0x1 PUSH1 0xA0 SHL SUB AND SWAP1 MSTORE JUMP JUMPDEST DUP1 PUSH1 0x0 JUMPDEST PUSH1 0x2 DUP2 LT ISZERO PUSH2 0x1DA2 JUMPI DUP2 MLOAD DUP5 MSTORE PUSH1 0x20 SWAP4 DUP5 ADD SWAP4 SWAP1 SWAP2 ADD SWAP1 PUSH1 0x1 ADD PUSH2 0x5A36 JUMP JUMPDEST DUP1 PUSH1 0x0 JUMPDEST PUSH1 0x2 DUP2 LT ISZERO PUSH2 0x1DA2 JUMPI DUP2 MLOAD PUSH2 0xFFFF AND DUP5 MSTORE PUSH1 0x20 SWAP4 DUP5 ADD SWAP4 SWAP1 SWAP2 ADD SWAP1 PUSH1 0x1 ADD PUSH2 0x5A59 JUMP JUMPDEST PUSH1 0x0 DUP2 MLOAD DUP1 DUP5 MSTORE PUSH1 0x20 DUP1 DUP6 ADD SWAP5 POP DUP1 DUP5 ADD DUP4 JUMPDEST DUP4 DUP2 LT ISZERO PUSH2 0x5AAB JUMPI DUP2 MLOAD DUP8 MSTORE SWAP6 DUP3 ADD SWAP6 SWAP1 DUP3 ADD SWAP1 PUSH1 0x1 ADD PUSH2 0x5A8F JUMP JUMPDEST POP SWAP5 SWAP6 SWAP5 POP POP POP POP POP JUMP JUMPDEST DUP1 MLOAD DUP3 MSTORE PUSH1 0x20 DUP1 DUP3 ADD MLOAD SWAP1 DUP4 ADD MSTORE PUSH1 0x40 SWAP1 DUP2 ADD MLOAD SWAP2 ADD MSTORE JUMP JUMPDEST DUP1 MLOAD DUP3 MSTORE PUSH1 0x20 DUP2 ADD MLOAD PUSH1 0x20 DUP4 ADD MSTORE PUSH1 0x40 DUP2 ADD MLOAD PUSH1 0x40 DUP4 ADD MSTORE PUSH1 0x60 DUP2 ADD MLOAD ISZERO ISZERO PUSH1 0x60 DUP4 ADD MSTORE POP POP JUMP JUMPDEST PUSH2 0xFFFF AND SWAP1 MSTORE JUMP JUMPDEST PUSH1 0x1 PUSH1 0x1 PUSH1 0xA0 SHL SUB SWAP2 SWAP1 SWAP2 AND DUP2 MSTORE PUSH1 0x20 ADD SWAP1 JUMP JUMPDEST PUSH1 0x1 PUSH1 0x1 PUSH1 0xA0 SHL SUB SWAP3 DUP4 AND DUP2 MSTORE SWAP2 AND PUSH1 0x20 DUP3 ADD MSTORE PUSH1 0x40 ADD SWAP1 JUMP JUMPDEST PUSH1 0x1 PUSH1 0x1 PUSH1 0xA0 SHL SUB SWAP8 DUP9 AND DUP2 MSTORE SWAP6 DUP8 AND PUSH1 0x20 DUP8 ADD MSTORE SWAP4 SWAP1 SWAP6 AND PUSH1 0x40 DUP6 ADD MSTORE PUSH2 0xFFFF SWAP2 SWAP1 SWAP2 AND PUSH1 0x60 DUP5 ADD MSTORE PUSH1 0x80 DUP4 ADD MSTORE PUSH1 0xA0 DUP3 ADD SWAP3 SWAP1 SWAP3 MSTORE PUSH1 0xC0 DUP2 ADD SWAP2 SWAP1 SWAP2 MSTORE PUSH1 0xE0 ADD SWAP1 JUMP JUMPDEST PUSH1 0x1 PUSH1 0x1 PUSH1 0xA0 SHL SUB SWAP4 DUP5 AND DUP2 MSTORE SWAP2 SWAP1 SWAP3 AND PUSH1 0x20 DUP3 ADD MSTORE PUSH1 0x40 DUP2 ADD SWAP2 SWAP1 SWAP2 MSTORE PUSH1 0x60 ADD SWAP1 JUMP JUMPDEST PUSH1 0x1 PUSH1 0x1 PUSH1 0xA0 SHL SUB SWAP3 SWAP1 SWAP3 AND DUP3 MSTORE PUSH1 0x20 DUP3 ADD MSTORE PUSH1 0x40 ADD SWAP1 JUMP JUMPDEST PUSH1 0x0 PUSH1 0x40 DUP3 MSTORE PUSH2 0x5BC2 PUSH1 0x40 DUP4 ADD DUP6 PUSH2 0x5A7C JUMP JUMPDEST DUP3 DUP2 SUB PUSH1 0x20 DUP5 ADD MSTORE PUSH2 0xE58 DUP2 DUP6 PUSH2 0x5A7C JUMP JUMPDEST SWAP1 DUP2 MSTORE PUSH1 0x20 ADD SWAP1 JUMP JUMPDEST PUSH1 0x20 DUP1 DUP3 MSTORE PUSH1 0xB SWAP1 DUP3 ADD MSTORE PUSH11 0x4554482042616C616E6365 PUSH1 0xA8 SHL PUSH1 0x40 DUP3 ADD MSTORE PUSH1 0x60 ADD SWAP1 JUMP JUMPDEST PUSH1 0x20 DUP1 DUP3 MSTORE PUSH1 0x11 SWAP1 DUP3 ADD MSTORE PUSH17 0x9AC2E8EAE4D2E8F2409AD2E6DAC2E8C6D PUSH1 0x7B SHL PUSH1 0x40 DUP3 ADD MSTORE PUSH1 0x60 ADD SWAP1 JUMP JUMPDEST PUSH1 0x20 DUP1 DUP3 MSTORE PUSH1 0xB SWAP1 DUP3 ADD MSTORE PUSH11 0x4D75737420536574746C65 PUSH1 0xA8 SHL PUSH1 0x40 DUP3 ADD MSTORE PUSH1 0x60 ADD SWAP1 JUMP JUMPDEST PUSH1 0x20 DUP1 DUP3 MSTORE PUSH1 0xC SWAP1 DUP3 ADD MSTORE PUSH12 0x4D6178204361706163697479 PUSH1 0xA0 SHL PUSH1 0x40 DUP3 ADD MSTORE PUSH1 0x60 ADD SWAP1 JUMP JUMPDEST PUSH1 0x20 DUP1 DUP3 MSTORE PUSH1 0xA SWAP1 DUP3 ADD MSTORE PUSH10 0x6D696E20626F72726F77 PUSH1 0xB0 SHL PUSH1 0x40 DUP3 ADD MSTORE PUSH1 0x60 ADD SWAP1 JUMP JUMPDEST PUSH1 0x20 DUP1 DUP3 MSTORE PUSH1 0xA SWAP1 DUP3 ADD MSTORE PUSH10 0x4D696E20426F72726F77 PUSH1 0xB0 SHL PUSH1 0x40 DUP3 ADD MSTORE PUSH1 0x60 ADD SWAP1 JUMP JUMPDEST PUSH2 0xFFFF SWAP4 SWAP1 SWAP4 AND DUP4 MSTORE PUSH1 0x20 DUP4 ADD SWAP2 SWAP1 SWAP2 MSTORE PUSH1 0x40 DUP3 ADD MSTORE PUSH1 0x60 ADD SWAP1 JUMP JUMPDEST PUSH1 0x0 PUSH2 0x3E0 DUP3 ADD SWAP1 POP PUSH2 0xFFFF DUP8 AND DUP3 MSTORE DUP6 MLOAD PUSH1 0x20 DUP4 ADD MSTORE PUSH1 0x20 DUP7 ADD MLOAD PUSH1 0x40 DUP4 ADD MSTORE PUSH1 0x40 DUP7 ADD MLOAD PUSH1 0x60 DUP4 ADD MSTORE PUSH1 0x1 DUP1 PUSH1 0xA0 SHL SUB PUSH1 0x60 DUP8 ADD MLOAD AND PUSH1 0x80 DUP4 ADD MSTORE PUSH1 0x80 DUP7 ADD MLOAD PUSH1 0xA0 DUP4 ADD MSTORE PUSH1 0xA0 DUP7 ADD MLOAD PUSH1 0xC0 DUP4 ADD MSTORE PUSH2 0x5D3B PUSH1 0xE0 DUP4 ADD DUP7 MLOAD PUSH2 0x5A25 JUMP JUMPDEST PUSH1 0x20 DUP6 ADD MLOAD PUSH2 0x100 PUSH2 0x5D4F DUP2 DUP6 ADD DUP4 PUSH2 0x5AF7 JUMP JUMPDEST PUSH1 0x40 DUP8 ADD MLOAD SWAP2 POP PUSH2 0x120 PUSH2 0x5D65 DUP2 DUP7 ADD DUP5 PUSH2 0x5AF7 JUMP JUMPDEST PUSH1 0x60 DUP9 ADD MLOAD SWAP3 POP PUSH2 0x140 DUP4 DUP2 DUP8 ADD MSTORE PUSH1 0x80 DUP10 ADD MLOAD SWAP4 POP PUSH2 0x160 DUP5 DUP2 DUP9 ADD MSTORE PUSH1 0xA0 DUP11 ADD MLOAD SWAP5 POP PUSH2 0x180 DUP6 DUP2 DUP10 ADD MSTORE PUSH1 0xC0 DUP12 ADD MLOAD SWAP6 POP PUSH2 0x1A0 DUP7 DUP2 DUP11 ADD MSTORE PUSH1 0xE0 DUP13 ADD MLOAD SWAP7 POP PUSH2 0x1C0 DUP8 DUP2 DUP12 ADD MSTORE DUP7 DUP14 ADD MLOAD PUSH2 0x1E0 DUP12 ADD MSTORE DUP6 DUP14 ADD MLOAD PUSH2 0x200 DUP12 ADD MSTORE DUP5 DUP14 ADD MLOAD SWAP8 POP PUSH2 0x5DD8 PUSH2 0x220 DUP12 ADD DUP10 PUSH2 0x5A55 JUMP JUMPDEST DUP4 DUP14 ADD MLOAD SWAP8 POP PUSH2 0x5DEC PUSH2 0x260 DUP12 ADD DUP10 PUSH2 0x5AB6 JUMP JUMPDEST DUP3 DUP14 ADD MLOAD PUSH2 0x2C0 DUP12 ADD MSTORE DUP2 DUP14 ADD MLOAD SWAP8 POP PUSH2 0x5E0A PUSH2 0x2E0 DUP12 ADD DUP10 PUSH2 0x5A32 JUMP JUMPDEST DUP1 DUP14 ADD MLOAD PUSH2 0x320 DUP12 ADD MSTORE POP POP POP POP POP POP POP POP PUSH2 0x5E2A PUSH2 0x340 DUP4 ADD DUP6 PUSH2 0x5ACF JUMP JUMPDEST DUP3 PUSH2 0x3C0 DUP4 ADD MSTORE SWAP7 SWAP6 POP POP POP POP POP POP JUMP JUMPDEST SWAP2 DUP3 MSTORE PUSH1 0x20 DUP3 ADD MSTORE PUSH1 0x40 ADD SWAP1 JUMP JUMPDEST SWAP3 DUP4 MSTORE PUSH1 0x20 DUP4 ADD SWAP2 SWAP1 SWAP2 MSTORE PUSH1 0x40 DUP3 ADD MSTORE PUSH1 0x60 ADD SWAP1 JUMP JUMPDEST SWAP2 DUP3 MSTORE PUSH1 0x1 PUSH1 0x1 PUSH1 0x50 SHL SUB AND PUSH1 0x20 DUP3 ADD MSTORE PUSH1 0x40 ADD SWAP1 JUMP JUMPDEST PUSH1 0x40 MLOAD DUP2 DUP2 ADD PUSH8 0xFFFFFFFFFFFFFFFF DUP2 GT DUP3 DUP3 LT OR ISZERO PUSH2 0x5E92 JUMPI INVALID JUMPDEST PUSH1 0x40 MSTORE SWAP2 SWAP1 POP JUMP JUMPDEST PUSH1 0x0 PUSH8 0xFFFFFFFFFFFFFFFF DUP3 GT ISZERO PUSH2 0x5EAE JUMPI INVALID JUMPDEST POP PUSH1 0x20 SWAP1 DUP2 MUL ADD SWAP1 JUMP JUMPDEST PUSH1 0x1 PUSH1 0x1 PUSH1 0xA0 SHL SUB DUP2 AND DUP2 EQ PUSH2 0x5ECD JUMPI PUSH1 0x0 DUP1 REVERT JUMPDEST POP JUMP INVALID 0x4A CODECOPY 0xDC MOD 0xD4 0xC0 0xDB 0xC6 0x4B PUSH17 0xAF90FD698A233A518AA5D07E595D983B8C SDIV 0x26 0xC8 0xF7 0xFB 0xC3 0xD5 DUP2 PUSH9 0xC5AE7397731D063D5B 0xBF RETURNDATASIZE PUSH6 0x7854427343F4 0xC0 DUP4 0x24 0xF PUSH27 0xACAA2D0F62A26469706673582212207D16C61411E668D665B05801 PUSH4 0xACA0FC38 0x25 0x2A 0xF7 0x5C DUP14 0xC2 ADDRESS 0xAD SAR 0xAB 0xCA LOG0 0xE3 PUSH24 0x9B64736F6C63430007060033000000000000000000000000 ","sha1":"a618bdee27a0c8bf5a18071aab9cf07ebbb5529c","source":"// SPDX-License-Identifier: BSUL-1.1\npragma solidity =0.7.6;\npragma abicoder v2;\n\nimport {\n    Token,\n    VaultState,\n    VaultAccountHealthFactors,\n    VaultConfig,\n    VaultAccount,\n    PrimeRate\n} from \"../../global/Types.sol\";\nimport {Constants} from \"../../global/Constants.sol\";\nimport {SafeUint256} from \"../../math/SafeUint256.sol\";\nimport {SafeInt256} from \"../../math/SafeInt256.sol\";\n\nimport {ActionGuards} from \"./ActionGuards.sol\";\nimport {Emitter} from \"../../internal/Emitter.sol\";\nimport {PrimeRateLib} from \"../../internal/pCash/PrimeRateLib.sol\";\nimport {PrimeCashExchangeRate} from \"../../internal/pCash/PrimeCashExchangeRate.sol\";\nimport {VaultConfiguration} from \"../../internal/vaults/VaultConfiguration.sol\";\nimport {VaultAccountLib} from \"../../internal/vaults/VaultAccount.sol\";\nimport {VaultValuation} from \"../../internal/vaults/VaultValuation.sol\";\nimport {VaultSecondaryBorrow} from \"../../internal/vaults/VaultSecondaryBorrow.sol\";\nimport {VaultStateLib} from \"../../internal/vaults/VaultState.sol\";\nimport {TokenHandler} from \"../../internal/balances/TokenHandler.sol\";\n\nimport {SettleAssetsExternal} from \"../SettleAssetsExternal.sol\";\nimport {FreeCollateralExternal} from \"../FreeCollateralExternal.sol\";\n\nimport {\n    IVaultLiquidationAction,\n    IVaultAccountHealth\n} from \"../../../interfaces/notional/IVaultController.sol\";\n\ncontract VaultLiquidationAction is ActionGuards, IVaultLiquidationAction {\n    using VaultConfiguration for VaultConfig;\n    using VaultAccountLib for VaultAccount;\n    using VaultStateLib for VaultState;\n    using PrimeRateLib for PrimeRate;\n    using TokenHandler for Token;\n    using SafeInt256 for int256;\n    using SafeUint256 for uint256;\n\n\n    /// @notice If an account is below the minimum collateral ratio, this method wil deleverage (liquidate)\n    /// that account. `depositAmountPrimeCash` in the borrow currency will be transferred from the liquidator\n    /// and used to offset the account's debt position. The liquidator will receive either vaultShares or\n    /// cash depending.\n    /// @param account the address that will exit the vault\n    /// @param vault the vault to enter\n    /// @param liquidator the address that will receive profits from liquidation\n    /// @param currencyIndex 0 refers to primary borrow, 1 or 2 will refer to one of the secondary\n    /// currencies (if any)\n    /// @param depositUnderlyingInternal amount of underlying to deposit, in 8 decimal underlying precision\n    /// @return vaultSharesToLiquidator amount of vaultShares received from liquidation\n    /// @return depositAmountPrimeCash amount of prime cash deposited from liquidation\n    function deleverageAccount(\n        address account,\n        address vault,\n        address liquidator,\n        uint16 currencyIndex,\n        int256 depositUnderlyingInternal\n    ) external payable nonReentrant override returns (\n        uint256 vaultSharesToLiquidator,\n        int256 depositAmountPrimeCash\n    ) {\n        require(currencyIndex < 3);\n        (\n            VaultConfig memory vaultConfig,\n            VaultAccount memory vaultAccount,\n            VaultState memory vaultState\n        ) = _authenticateDeleverage(account, vault, liquidator);\n\n        PrimeRate memory pr;\n        // Currency Index is validated in this method\n        (\n            depositUnderlyingInternal,\n            vaultSharesToLiquidator,\n            pr\n        ) = IVaultAccountHealth(address(this)).calculateDepositAmountInDeleverage(\n            currencyIndex, vaultAccount, vaultConfig, vaultState, depositUnderlyingInternal\n        );\n        require(depositUnderlyingInternal > 0); // dev: cannot liquidate zero balance\n\n        uint16 currencyId = vaultConfig.borrowCurrencyId;\n        if (currencyIndex == 1) currencyId = vaultConfig.secondaryBorrowCurrencies[0];\n        else if (currencyIndex == 2) currencyId = vaultConfig.secondaryBorrowCurrencies[1];\n\n        Token memory token = TokenHandler.getUnderlyingToken(currencyId);\n        // Excess ETH is returned to the liquidator natively\n        (/* */, depositAmountPrimeCash) = TokenHandler.depositUnderlyingExternal(\n            liquidator, currencyId, token.convertToExternal(depositUnderlyingInternal), pr, false \n        );\n\n        Emitter.emitVaultDeleverageDebt(\n            liquidator, account, vault, currencyId, vaultState.maturity, depositAmountPrimeCash, pr\n        );\n\n        Emitter.emitTransferVaultShares(\n            liquidator, account, vault, vaultConfig.borrowCurrencyId, vaultState.maturity,\n            vaultSharesToLiquidator\n        );\n\n        // Do not skip the min borrow check here\n        vaultAccount.vaultShares = vaultAccount.vaultShares.sub(vaultSharesToLiquidator);\n        if (vaultAccount.maturity == Constants.PRIME_CASH_VAULT_MATURITY) {\n            // Vault account will not incur a cash balance if they are in the prime cash maturity, their debts\n            // will be paid down directly.\n            _reduceAccountDebt(vaultConfig, vaultState, vaultAccount, currencyIndex, depositUnderlyingInternal, true);\n            depositAmountPrimeCash = 0;\n        }\n\n        // Check min borrow in this liquidation method, the deleverage calculation should adhere to the min borrow\n        vaultAccount.setVaultAccountForLiquidation(vaultConfig, currencyIndex, depositAmountPrimeCash, true);\n\n        _transferVaultSharesToLiquidator(\n            liquidator, vaultConfig, vaultSharesToLiquidator, vaultAccount.maturity\n        );\n    }\n\n    /// @notice If an account has a cash balance, a liquidator can purchase the cash and provide\n    /// fCash to the account to reduce it's debt balance.\n    function liquidateVaultCashBalance(\n        address account,\n        address vault,\n        address liquidator,\n        uint256 currencyIndex,\n        int256 fCashDeposit\n    ) external nonReentrant override returns (int256 cashToLiquidator) {\n        (\n            VaultConfig memory vaultConfig,\n            VaultAccount memory vaultAccount,\n            VaultState memory vaultState\n        ) = _authenticateDeleverage(account, vault, liquidator);\n\n        uint16 currencyId;\n        PrimeRate memory pr;\n        int256 fCashBalance;\n        int256 cashBalance;\n\n        if (currencyIndex == 0) {\n            currencyId = vaultConfig.borrowCurrencyId;\n            pr = vaultConfig.primeRate;\n            fCashBalance = vaultAccount.accountDebtUnderlying;\n            cashBalance = vaultAccount.tempCashBalance;\n        } else if (currencyIndex < 3) {\n            (currencyId, pr, fCashBalance, cashBalance) = _getSecondaryCashFactors(\n                vaultConfig, currencyIndex, account\n            );\n        } else {\n            revert(); // dev: invalid currency index\n        }\n\n        {\n            // At this point, the prime rates have already been accrued statefully so using a view method is ok.\n            (int256 fCashRequired, int256 discountFactor) = IVaultAccountHealth(address(this))\n                .getfCashRequiredToLiquidateCash(currencyId, vaultAccount.maturity, cashBalance);\n\n            cashToLiquidator = pr.convertFromUnderlying(fCashDeposit.mulInRatePrecision(discountFactor));\n            if (cashToLiquidator > cashBalance) {\n                // Cap the fCash deposit to the cash balance available at the discount factor\n                fCashDeposit = fCashRequired;\n                cashToLiquidator = cashBalance;\n            }\n        }\n\n        // Cap the fCash deposit to the fcash balance held by the account\n        require(0 < fCashDeposit && fCashDeposit <= fCashBalance.neg());\n\n        _transferCashToVault(\n            vaultAccount, liquidator, vault, currencyId, fCashDeposit, cashToLiquidator\n        );\n\n        // Do not emit the secondary debt event, will be emitted inside _transferCashToVault\n        _reduceAccountDebt(vaultConfig, vaultState, vaultAccount, currencyIndex, fCashDeposit, false);\n        vaultAccount.setVaultAccountForLiquidation(vaultConfig, currencyIndex, cashToLiquidator.neg(), false);\n    }\n\n\n    /// @notice Handles an edge case where vaults that have secondary borrows and have cash in excess of debts\n    /// in one currency but debts in another currency.\n    function liquidateExcessVaultCash(\n        address account,\n        address vault,\n        address liquidator,\n        uint256 excessCashIndex,\n        uint256 debtIndex,\n        uint256 _depositUnderlyingInternal\n    ) external payable nonReentrant override returns (int256 cashToLiquidator) {\n        (\n            VaultConfig memory vaultConfig,\n            VaultAccount memory vaultAccount,\n            /* VaultState memory vaultState */\n        ) = _authenticateDeleverage(account, vault, liquidator);\n\n        // This liquidation is only valid when there are secondary borrows\n        require(vaultConfig.hasSecondaryBorrows());\n        PrimeRate[2] memory primeRates = VaultSecondaryBorrow.getSecondaryPrimeRateStateful(vaultConfig);\n        // All prime rates have accrued statefully at this point, so it is ok to get account health factors which uses\n        // a view method to accrue prime cash -- it will read the values that have already accrued to this block.\n        (VaultAccountHealthFactors memory h, /* */, /* */) =  IVaultAccountHealth(address(this)).getVaultAccountHealthFactors(\n            account, vault\n        );\n        // Validate that there is debt and cash. This ensures that excessCashIndex != debtIndex and\n        // excessCashIndex < 3 and debtIndex < 3. It also validates that the currency indexes are valid\n        // because netDebtOutstanding == 0 for an unused secondary borrow currency.\n        require(0 < h.netDebtOutstanding[excessCashIndex]);\n        require(h.netDebtOutstanding[debtIndex] < 0);\n\n        VaultSecondaryBorrow.ExcessVaultCashFactors memory f = VaultSecondaryBorrow.getLiquidateExcessCashFactors(\n            vaultConfig, primeRates, excessCashIndex, debtIndex\n        );\n\n        int256 depositUnderlyingInternal = _depositUnderlyingInternal.toInt();\n        // Calculation does the following:\n        // excessCashUnderlyingInternal = debtCashInUnderlyingInternal * exchangeRateToExcessCashUnderlying * liquidation bonus\n        // cashToLiquidator = excessCashPR(excessCashUnderlyingInternal)\n        cashToLiquidator = f.excessCashPR.convertFromUnderlying(\n            depositUnderlyingInternal\n                .mul(vaultConfig.excessCashLiquidationBonus)\n                .mul(f.rateDecimals)\n                .div(f.exchangeRate)\n                .div(Constants.PERCENTAGE_DECIMALS)\n        );\n\n        if (h.netDebtOutstanding[excessCashIndex] < cashToLiquidator) {\n            // Limit the deposit to what is held by the account\n            cashToLiquidator = h.netDebtOutstanding[excessCashIndex];\n            // Calculation does the following:\n            // excessCashUnderlyingInternal = excessCashPR(excessPrimeCash)\n            // liquidatorDepositUnderlying = excessCashUnderlyingInternal * exchangeRateToDebtCashUnderlying * liquidationBonus\n            depositUnderlyingInternal = f.excessCashPR.convertToUnderlying(cashToLiquidator)\n                .mul(f.exchangeRate)\n                .mul(Constants.PERCENTAGE_DECIMALS)\n                .div(vaultConfig.excessCashLiquidationBonus)\n                .div(f.rateDecimals);\n        }\n\n        int256 depositAmountPrimeCash = f.debtPR.convertFromUnderlying(depositUnderlyingInternal);\n        int256 netCashToAccount = cashToLiquidator.neg();\n        vaultAccount.setVaultAccountForLiquidation(vaultConfig, excessCashIndex, netCashToAccount, false);\n        vaultAccount.setVaultAccountForLiquidation(vaultConfig, debtIndex, depositAmountPrimeCash, false);\n\n        Emitter.emitTransferPrimeCash(vault, liquidator, f.excessCashCurrencyId, cashToLiquidator);\n        TokenHandler.withdrawPrimeCash(\n            liquidator, f.excessCashCurrencyId, netCashToAccount, f.excessCashPR, false\n        );\n        Emitter.emitVaultMintOrBurnCash(account, vault, f.excessCashCurrencyId, vaultAccount.maturity, netCashToAccount);\n\n        // Deposit the debtIndex from the liquidator\n        TokenHandler.depositExactToMintPrimeCash(\n            liquidator, f.debtCurrencyId, depositAmountPrimeCash, f.debtPR, false\n        );\n        Emitter.emitTransferPrimeCash(liquidator, vault, f.debtCurrencyId, depositAmountPrimeCash);\n        Emitter.emitVaultMintOrBurnCash(account, vault, f.debtCurrencyId, vaultAccount.maturity, depositAmountPrimeCash);\n    }\n\n    function _transferCashToVault(\n        VaultAccount memory vaultAccount,\n        address liquidator,\n        address vault,\n        uint16 currencyId,\n        int256 fCashDeposit,\n        int256 cashToLiquidator\n    ) internal {\n        bool mustCheckFC = SettleAssetsExternal.transferCashToVaultLiquidator(\n            liquidator, vault, vaultAccount.account, currencyId, vaultAccount.maturity, fCashDeposit, cashToLiquidator\n        );\n\n        if (mustCheckFC) {\n            FreeCollateralExternal.checkFreeCollateralAndRevert(liquidator);\n        }\n        emit VaultAccountCashLiquidation(\n            vault, vaultAccount.account, liquidator, currencyId, fCashDeposit, cashToLiquidator\n        );\n    }\n\n    /// @notice Authenticates a call to the deleverage method\n    function _authenticateDeleverage(\n        address account,\n        address vault,\n        address liquidator\n    ) private returns (\n        VaultConfig memory vaultConfig,\n        VaultAccount memory vaultAccount,\n        VaultState memory vaultState\n    ) {\n        // Do not allow invalid accounts to liquidate\n        requireValidAccount(liquidator);\n        require(liquidator != vault);\n\n        // Cannot liquidate self, if a vault needs to deleverage itself as a whole it has other methods \n        // in VaultAction to do so.\n        require(account != msg.sender);\n        require(account != liquidator);\n\n        vaultConfig = VaultConfiguration.getVaultConfigStateful(vault);\n        require(vaultConfig.getFlag(VaultConfiguration.DISABLE_DELEVERAGE) == false);\n\n        // Authorization rules for deleveraging\n        if (vaultConfig.getFlag(VaultConfiguration.ONLY_VAULT_DELEVERAGE)) {\n            require(msg.sender == vault);\n        } else {\n            require(msg.sender == liquidator);\n        }\n\n        vaultAccount = VaultAccountLib.getVaultAccount(account, vaultConfig);\n\n        // Vault accounts that are not settled must be settled first by calling settleVaultAccount\n        // before liquidation. settleVaultAccount is not permissioned so anyone may settle the account.\n        require(block.timestamp < vaultAccount.maturity, \"Must Settle\");\n\n        if (vaultAccount.maturity == Constants.PRIME_CASH_VAULT_MATURITY) {\n            // Returns the updated prime vault state\n            vaultState = vaultAccount.accruePrimeCashFeesToDebtInLiquidation(vaultConfig);\n        } else {\n            vaultState = VaultStateLib.getVaultState(vaultConfig, vaultAccount.maturity);\n        }\n    }\n\n    function _reduceAccountDebt(\n        VaultConfig memory vaultConfig,\n        VaultState memory vaultState,\n        VaultAccount memory vaultAccount,\n        uint256 currencyIndex,\n        int256 depositUnderlyingInternal,\n        bool checkMinBorrow\n    ) private {\n        if (currencyIndex == 0) {\n            vaultAccount.updateAccountDebt(vaultState, depositUnderlyingInternal, 0);\n            vaultState.setVaultState(vaultConfig);\n        } else {\n            // Only set one of the prime rates, the other prime rate is not used since\n            // the net debt amount is set to zero\n            PrimeRate[2] memory pr = VaultSecondaryBorrow.getSecondaryPrimeRateStateful(vaultConfig);\n\n            (int256 accountDebtOne, int256 accountDebtTwo) = VaultSecondaryBorrow.updateAccountSecondaryDebt(\n                vaultConfig,\n                vaultAccount.account,\n                vaultAccount.maturity,\n                currencyIndex == 1 ? depositUnderlyingInternal : 0,\n                currencyIndex == 2 ? depositUnderlyingInternal : 0,\n                pr,\n                false,\n                false // do not emit events during liquidation, they are emitted prior\n            );\n\n            // Only check the minimum borrow requirement on the debt that is being liquidated.\n            if (checkMinBorrow) {\n                int256 accountDebt = currencyIndex == 1 ? accountDebtOne : accountDebtTwo;\n                require(\n                    accountDebt == 0 ||\n                    vaultConfig.minAccountSecondaryBorrow[currencyIndex - 1] <= -accountDebt,\n                    \"Min Borrow\"\n                );\n            }\n        }\n    }\n\n    /// @notice Transfers liquidator profits in the form of vault shares to be returned to the liquidator\n    function _transferVaultSharesToLiquidator(\n        address receiver,\n        VaultConfig memory vaultConfig,\n        uint256 vaultSharesToLiquidator,\n        uint256 maturity\n    ) private {\n        // Liquidator will receive vault shares that they can redeem by calling exitVault. If the liquidator has a\n        // leveraged position on then their collateral ratio will increase\n        VaultAccount memory liquidator = VaultAccountLib.getVaultAccount(receiver, vaultConfig);\n        // The liquidator must be able to receive the vault shares (i.e. not be in the vault at all or be in the\n        // vault at the same maturity). If the liquidator has fCash in the current maturity then their collateral\n        // ratio will increase as a result of the liquidation, no need to check their collateral position.\n        require(liquidator.maturity == 0 || liquidator.maturity == maturity, \"Maturity Mismatch\"); // dev: has vault shares\n        liquidator.maturity = maturity;\n        liquidator.vaultShares = liquidator.vaultShares.add(vaultSharesToLiquidator);\n        liquidator.setVaultAccount({vaultConfig: vaultConfig, checkMinBorrow: true, emitEvents: false});\n    }\n\n    function _getSecondaryCashFactors(\n        VaultConfig memory vaultConfig,\n        uint256 currencyIndex,\n        address account\n    ) private returns (uint16 currencyId, PrimeRate memory pr, int256 fCashBalance, int256 cashBalance) {\n        PrimeRate[2] memory primeRates = VaultSecondaryBorrow.getSecondaryPrimeRateStateful(vaultConfig);\n        (/* */, int256 debtOne, int256 debtTwo) = VaultSecondaryBorrow.getAccountSecondaryDebt(vaultConfig, account, primeRates);\n\n        // Cash balances refer to cash held on the account against debt, not prime cash balances held by the vault.\n        // Those are included in the vault share value.\n        (int256 cashOne, int256 cashTwo) = VaultSecondaryBorrow.getSecondaryCashHeld(account, vaultConfig.vault);\n\n        currencyId = vaultConfig.secondaryBorrowCurrencies[currencyIndex - 1];\n        pr = primeRates[currencyIndex - 1];\n        // Return the correct pair of debt and cash balances\n        (fCashBalance, cashBalance) = currencyIndex == 1 ? (debtOne, cashOne) : (debtTwo, cashTwo);\n    }\n\n    function getLibInfo() external pure returns (address, address) {\n        return (address(FreeCollateralExternal), address(SettleAssetsExternal));\n    }\n}","sourcePath":"contracts/external/actions/VaultLiquidationAction.sol","type":"contract","deployment":{"address":"0x825fe7a917E56D1f5E1758ae3c4df92E60659a17","chainid":"42161","blockHeight":164627737}}