{"abi":[{"inputs":[{"internalType":"uint16","name":"currencyId","type":"uint16"}],"name":"accruePrimeInterest","outputs":[{"components":[{"internalType":"int256","name":"supplyFactor","type":"int256"},{"internalType":"int256","name":"debtFactor","type":"int256"},{"internalType":"uint256","name":"oracleSupplyRate","type":"uint256"}],"internalType":"struct PrimeRate","name":"pr","type":"tuple"},{"components":[{"internalType":"uint256","name":"lastAccrueTime","type":"uint256"},{"internalType":"uint256","name":"totalPrimeSupply","type":"uint256"},{"internalType":"uint256","name":"totalPrimeDebt","type":"uint256"},{"internalType":"uint256","name":"oracleSupplyRate","type":"uint256"},{"internalType":"uint256","name":"lastTotalUnderlyingValue","type":"uint256"},{"internalType":"uint256","name":"underlyingScalar","type":"uint256"},{"internalType":"uint256","name":"supplyScalar","type":"uint256"},{"internalType":"uint256","name":"debtScalar","type":"uint256"},{"internalType":"uint256","name":"rateOracleTimeWindow","type":"uint256"}],"internalType":"struct PrimeCashFactors","name":"factors","type":"tuple"}],"stateMutability":"nonpayable","type":"function"},{"inputs":[{"internalType":"uint16","name":"currencyId","type":"uint16"},{"internalType":"uint88","name":"amountToDepositExternalPrecision","type":"uint88"}],"name":"calculateNTokensToMint","outputs":[{"internalType":"uint256","name":"","type":"uint256"}],"stateMutability":"view","type":"function"},{"inputs":[{"internalType":"uint16","name":"currencyId","type":"uint16"},{"internalType":"int256","name":"primeCashBalance","type":"int256"},{"internalType":"bool","name":"convertToUnderlying","type":"bool"}],"name":"convertCashBalanceToExternal","outputs":[{"internalType":"int256","name":"","type":"int256"}],"stateMutability":"view","type":"function"},{"inputs":[{"internalType":"uint16","name":"currencyId","type":"uint16"},{"internalType":"int256","name":"nTokenBalance","type":"int256"}],"name":"convertNTokenToUnderlying","outputs":[{"internalType":"int256","name":"","type":"int256"}],"stateMutability":"view","type":"function"},{"inputs":[{"internalType":"uint16","name":"currencyId","type":"uint16"},{"internalType":"uint256","name":"maturity","type":"uint256"},{"internalType":"int256","name":"fCashBalance","type":"int256"},{"internalType":"uint256","name":"blockTime","type":"uint256"}],"name":"convertSettledfCash","outputs":[{"internalType":"int256","name":"signedPrimeSupplyValue","type":"int256"}],"stateMutability":"view","type":"function"},{"inputs":[{"internalType":"uint16","name":"currencyId","type":"uint16"},{"internalType":"int256","name":"underlyingExternal","type":"int256"}],"name":"convertUnderlyingToPrimeCash","outputs":[{"internalType":"int256","name":"","type":"int256"}],"stateMutability":"view","type":"function"},{"inputs":[{"internalType":"uint16","name":"currencyId","type":"uint16"},{"internalType":"int88","name":"fCashAmount","type":"int88"},{"internalType":"uint256","name":"marketIndex","type":"uint256"},{"internalType":"uint256","name":"blockTime","type":"uint256"}],"name":"getCashAmountGivenfCashAmount","outputs":[{"internalType":"int256","name":"","type":"int256"},{"internalType":"int256","name":"","type":"int256"}],"stateMutability":"view","type":"function"},{"inputs":[{"internalType":"uint16","name":"currencyId","type":"uint16"},{"internalType":"uint256","name":"fCashAmount","type":"uint256"},{"internalType":"uint256","name":"maturity","type":"uint256"},{"internalType":"uint32","name":"minLendRate","type":"uint32"},{"internalType":"uint256","name":"blockTime","type":"uint256"}],"name":"getDepositFromfCashLend","outputs":[{"internalType":"uint256","name":"depositAmountUnderlying","type":"uint256"},{"internalType":"uint256","name":"depositAmountPrimeCash","type":"uint256"},{"internalType":"uint8","name":"marketIndex","type":"uint8"},{"internalType":"bytes32","name":"encodedTrade","type":"bytes32"}],"stateMutability":"view","type":"function"},{"inputs":[{"internalType":"uint256","name":"maturity","type":"uint256"},{"internalType":"uint256","name":"blockTime","type":"uint256"}],"name":"getMarketIndex","outputs":[{"internalType":"uint8","name":"marketIndex","type":"uint8"}],"stateMutability":"pure","type":"function"},{"inputs":[{"internalType":"uint16","name":"currencyId","type":"uint16"},{"internalType":"uint256","name":"maturity","type":"uint256"},{"internalType":"int256","name":"notional","type":"int256"},{"internalType":"uint256","name":"blockTime","type":"uint256"},{"internalType":"bool","name":"riskAdjusted","type":"bool"}],"name":"getPresentfCashValue","outputs":[{"internalType":"int256","name":"presentValue","type":"int256"}],"stateMutability":"view","type":"function"},{"inputs":[{"internalType":"uint16","name":"currencyId","type":"uint16"},{"internalType":"uint256","name":"fCashBorrow","type":"uint256"},{"internalType":"uint256","name":"maturity","type":"uint256"},{"internalType":"uint32","name":"maxBorrowRate","type":"uint32"},{"internalType":"uint256","name":"blockTime","type":"uint256"}],"name":"getPrincipalFromfCashBorrow","outputs":[{"internalType":"uint256","name":"borrowAmountUnderlying","type":"uint256"},{"internalType":"uint256","name":"borrowAmountPrimeCash","type":"uint256"},{"internalType":"uint8","name":"marketIndex","type":"uint8"},{"internalType":"bytes32","name":"encodedTrade","type":"bytes32"}],"stateMutability":"view","type":"function"},{"inputs":[{"internalType":"uint16","name":"currencyId","type":"uint16"},{"internalType":"int88","name":"netCashToAccount","type":"int88"},{"internalType":"uint256","name":"marketIndex","type":"uint256"},{"internalType":"uint256","name":"blockTime","type":"uint256"}],"name":"getfCashAmountGivenCashAmount","outputs":[{"internalType":"int256","name":"","type":"int256"}],"stateMutability":"view","type":"function"},{"inputs":[{"internalType":"uint16","name":"currencyId","type":"uint16"},{"internalType":"uint256","name":"borrowedAmountExternal","type":"uint256"},{"internalType":"uint256","name":"maturity","type":"uint256"},{"internalType":"uint32","name":"maxBorrowRate","type":"uint32"},{"internalType":"uint256","name":"blockTime","type":"uint256"},{"internalType":"bool","name":"useUnderlying","type":"bool"}],"name":"getfCashBorrowFromPrincipal","outputs":[{"internalType":"uint88","name":"fCashDebt","type":"uint88"},{"internalType":"uint8","name":"marketIndex","type":"uint8"},{"internalType":"bytes32","name":"encodedTrade","type":"bytes32"}],"stateMutability":"view","type":"function"},{"inputs":[{"internalType":"uint16","name":"currencyId","type":"uint16"},{"internalType":"uint256","name":"depositAmountExternal","type":"uint256"},{"internalType":"uint256","name":"maturity","type":"uint256"},{"internalType":"uint32","name":"minLendRate","type":"uint32"},{"internalType":"uint256","name":"blockTime","type":"uint256"},{"internalType":"bool","name":"useUnderlying","type":"bool"}],"name":"getfCashLendFromDeposit","outputs":[{"internalType":"uint88","name":"fCashAmount","type":"uint88"},{"internalType":"uint8","name":"marketIndex","type":"uint8"},{"internalType":"bytes32","name":"encodedTrade","type":"bytes32"}],"stateMutability":"view","type":"function"},{"inputs":[{"internalType":"address","name":"account","type":"address"},{"internalType":"uint256","name":"blockTime","type":"uint256"}],"name":"nTokenGetClaimableIncentives","outputs":[{"internalType":"uint256","name":"","type":"uint256"}],"stateMutability":"view","type":"function"},{"inputs":[{"internalType":"uint16","name":"currencyId","type":"uint16"}],"name":"nTokenPresentValueAssetDenominated","outputs":[{"internalType":"int256","name":"","type":"int256"}],"stateMutability":"view","type":"function"},{"inputs":[{"internalType":"uint16","name":"currencyId","type":"uint16"}],"name":"nTokenPresentValueUnderlyingDenominated","outputs":[{"internalType":"int256","name":"","type":"int256"}],"stateMutability":"view","type":"function"},{"inputs":[],"name":"owner","outputs":[{"internalType":"address","name":"","type":"address"}],"stateMutability":"view","type":"function"},{"inputs":[],"name":"pauseGuardian","outputs":[{"internalType":"address","name":"","type":"address"}],"stateMutability":"view","type":"function"},{"inputs":[],"name":"pauseRouter","outputs":[{"internalType":"address","name":"","type":"address"}],"stateMutability":"view","type":"function"}],"bytecode":"608060405234801561001057600080fd5b506154a4806100206000396000f3fe608060405234801561001057600080fd5b506004361061012c5760003560e01c806382463367116100ad578063bac9e8b111610071578063bac9e8b11461027b578063c50a61341461029d578063c52c43e1146102be578063f11ff573146102d1578063f83a8608146102e45761012c565b806382463367146102325780638355e8951461023a5780638da5cb5b1461024d57806397d6db2e14610255578063aaae47b5146102685761012c565b8063416a1587116100f4578063416a1587146101b65780635953c77b146101d95780636a09a2a3146101f95780636d48c7941461020c5780636ebbf1741461021f5761012c565b8063094614df146101315780630eb494801461015b5780631a05bce11461017b57806324a3d6221461018e5780633b2987b3146101a3575b600080fd5b61014461013f366004614f89565b6102f7565b6040516101529291906151be565b60405180910390f35b61016e610169366004614fd1565b610315565b60405161015291906151b5565b61016e610189366004614f19565b61034c565b610196610362565b6040516101529190615188565b61016e6101b1366004614f19565b610371565b6101c96101c4366004615058565b610394565b604051610152949392919061541e565b6101ec6101e7366004615144565b61043a565b6040516101529190615460565b61016e610207366004615103565b610466565b61016e61021a366004614f33565b6104e2565b61016e61022d366004614f4e565b610549565b6101966105ac565b61016e610248366004614f89565b6105bb565b6101966105df565b61016e610263366004614ee3565b6105f6565b6101c9610276366004615058565b61072e565b61028e6102893660046150a5565b6107c0565b6040516101529392919061543c565b6102b06102ab366004614f19565b61083b565b604051610152929190615382565b61016e6102cc366004615009565b610866565b61016e6102df366004614f33565b6108ae565b61028e6102f23660046150a5565b6108f1565b600080610308868686866000610956565b9150915094509492505050565b60008184111561032457600080fd5b60006103308684610a4f565b5090506103408187878787610b08565b9150505b949350505050565b60008061035883610b2f565b509150505b919050565b6002546001600160a01b031681565b600080600061037f84610b2f565b80516040015191935091506103449083610b64565b6000806000806103a4878661043a565b915060008260ff16116103b657600080fd5b6a7fffffffffffffffffffff88106103cd57600080fd5b60006103e06103db8a610bad565b610bc7565b90506000806103fb8c848760ff168b8d63ffffffff16610956565b915091506104098c82610bd5565b965061041482610c21565b955061042660018685600a0b8c610c30565b508094505050505095509550955095915050565b600080600061044b60078686610c8e565b915091508061045a578161045d565b60005b95945050505050565b600061047183610d1d565b60006104808461ffff16610d5a565b90506000610497826001600160581b038616610d6d565b90506104a1614c17565b6104ab8187610d9d565b8051604001516000906104ca9083906104c49086610db6565b42610dda565b90506104d581610c21565b9450505050505b92915050565b60008060006104f085610b2f565b91509150600061051782604001516105118588610ed990919063ffffffff16565b90610f27565b82516040015190915060009061052d9083610b64565b90506104d56105448861053f84610f58565b610bd5565b610bad565b6000816105575750816105a5565b60006105638542610a4f565b50905060006105728286610b64565b905060006105866105448861053f85610f58565b905060008212610596578061059f565b61059f81610bc7565b93505050505b9392505050565b6001546001600160a01b031681565b60006105c685610d1d565b60006105d186610f79565b905061034085858584610f9a565b60005464010000000090046001600160a01b031681565b6000806106028461102c565b905061060c614c60565b6000610617836110e0565b1561068d57606083015161062f9083908890866110ed565b60008260400151131561068d57600061064f836000015161ffff16611110565b9050600061065d8288611136565b50915050600061067b8584846106768960400151610c21565b6111cc565b9050610687848261124b565b93505050505b60808301515b6001600160701b03198116156107245760f081901c613fff166106b8848983886110ed565b6000846040015113156107115760006106d8856000015161ffff16611110565b905060006106e6828a611136565b5091505060006106ff8784846106768b60400151610c21565b905061070b868261124b565b95505050505b5060101b6001600160801b031916610693565b5095945050505050565b60008060008061073e878661043a565b915060008260ff161161075057600080fd5b6a7fffffffffffffffffffff881061076757600080fd5b600061077289610bad565b905060008061078d8c848760ff168b8d63ffffffff16610956565b9150915061079b8c82610bd5565b96506107ae6107a983610bc7565b610c21565b955061042660008685600a0b8c610c30565b60008060006107cf878661043a565b915060008260ff16116107e157600080fd5b6000806107ef8b8b8861125d565b91509150600061080c610801846112c3565b8660ff168a85610f9a565b90506000811261081b57600080fd5b610828600186838c610c30565b9d959c509a509398505050505050505050565b610843614cbc565b61084b614cdd565b610854836112f5565b915061085f83611307565b9050915091565b60008061087287610f79565b9050821561088d57610886818688876113cf565b9150610724565b6108a385878661089e85838361143d565b611526565b979650505050505050565b6000806108bb8442610a4f565b50905060006108cd8561ffff16610d5a565b905060006108db8286610d6d565b90506108e78382610db6565b9695505050505050565b6000806000610900878661043a565b915060008260ff161161091257600080fd5b6000806109208b8b8861125d565b91509150600061093a61080161093585610bc7565b6112c3565b90508060001261094957600080fd5b610828600086838c610c30565b60008061096287610d1d565b600061096d88610f79565b9050610977614d29565b61098582828960008a61158a565b858160200151116109b15760405162461bcd60e51b81526004016109a8906152d0565b60405180910390fd5b60208101518690036000806109cd8486600a8e900b868e611605565b925050915087600014610a2b5760008b600a0b1215610a0b5787811115610a065760405162461bcd60e51b81526004016109a8906152a0565b610a2b565b87811015610a2b5760405162461bcd60e51b81526004016109a8906152a0565b60408501518290610a3c9082610b64565b9650965050505050509550959350505050565b610a57614cbc565b610a5f614cdd565b610a6884611307565b90508281600001511015610a99576000610a8185611745565b9050610a8f858383876117c0565b509150610aa69050565b80518314610aa657600080fd5b6040518060600160405280610acf6105448460a001518560c0015161186490919063ffffffff16565b8152602001610af26105448460a001518560e0015161186490919063ffffffff16565b8152602001826060015181525091509250929050565b600080610b1686868561188b565b9050610b238782866118bf565b50979650505050505050565b6000610b39614c17565b42610b42614c17565b610b4c8186610d9d565b6000610b58828461192d565b94509092505050915091565b600080610b916ec097ce7bc90715b34b9f1000000000610511866000015186610ed990919063ffffffff16565b905060008312610ba15780610344565b61034481600019611983565b60006001600160ff1b03821115610bc357600080fd5b5090565b60006104dc60001983610ed9565b600080610be58461ffff16610d5a565b90506000808412610c0757610c02610bfd8386611999565b610f58565b610c1a565b610c1a610c1385610bc7565b83906119d1565b905061045d815b600080821215610bc357600080fd5b6000806000610c3e85610f58565b90506001600160581b03811115610c5457600080fd5b60788463ffffffff16901b609882901b60f08860ff16901b60f88a6005811115610c7a57fe5b60ff16901b17171797909650945050505050565b60008060008511610c9e57600080fd5b6007851115610cac57600080fd5b6000610cb784611a0d565b905060015b868111610d0f576000610cd8610cd183611a2e565b849061124b565b905086811415610cf05750925060009150610d159050565b86811115610d065750925060019150610d159050565b50600101610cbc565b50600080fd5b935093915050565b8061ffff166000108015610d3b575060005461ffff90811690821611155b610d575760405162461bcd60e51b81526004016109a8906152fc565b50565b610d62614d71565b6104dc826001611ad2565b60006305f5e10083604001511415610d865750806104dc565b60408301516105a590610511846305f5e100610ed9565b610da78282611b6c565b610db081610f79565b90915250565b81516000908190610b9190610511856ec097ce7bc90715b34b9f1000000000610ed9565b600080831215610de957600080fd5b82610df6575060006105a5565b608084015115610e2e576000610e0b85611c08565b9050828111610e2c5760405162461bcd60e51b81526004016109a8906151fc565b505b6040840151610e3e5750816105a5565b600080610e4b8685611c39565b915091506000821215610e5d57600080fd5b6000811215610e6b57600080fd5b60a086015160051a6207a120026000610e9184610e8b610bfd8287611ca2565b90611cb8565b905081811315610eb35760405162461bcd60e51b81526004016109a890615354565b610ece836105118a604001518a610ed990919063ffffffff16565b9450505050506105a5565b818102600019831415610f0957811580610efb575082828281610ef857fe5b05145b610f0457600080fd5b6104dc565b821580610f1e575081838281610f1b57fe5b05145b6104dc57600080fd5b600081600019148015610f3d5750600160ff1b83145b15610f4757600080fd5b818381610f5057fe5b059392505050565b600080821215610f7257610f6b82610bc7565b905061035d565b508061035d565b610f81614da0565b6000610f8d8342610a4f565b5090506105a58382611cd1565b6000610fa4614d29565b610fb283828760008861158a565b83816020015111610fd55760405162461bcd60e51b81526004016109a8906152d0565b60008482602001510390506000610ff0856000015188611d14565b90506110208184604001518a600a0b61101a87606001518a60400151610b6490919063ffffffff16565b86611d2e565b98975050505050505050565b611034614dcc565b600061103e611e6a565b6001600160a01b03841660009081526020918252604090819020815160c081018352905464ffffffffff811682526001600160f81b0319600160281b820460f81b169382019390935260ff600160301b840481169282019290925261ffff600160381b84041660608201526001600160701b03196901000000000000000000840460701b166080820152600160d81b90920416151560a0820152915050919050565b6060015161ffff16151590565b6110f78242610a4f565b5061012085015261110a84848484611e77565b50505050565b60008061111b611f1f565b6000938452602052505060409020546001600160a01b031690565b600080600061114485611f2c565b91945092509050808411801561115a5750600081115b80156111665750600083115b156111c557600061117686611f8d565b50505091505060006111a16111986305f5e1008461186490919063ffffffff16565b84880387611ff6565b90506111ad848261124b565b93506001600160801b0384106111c257600080fd5b50505b9250925092565b60008460e001516000146111df57600080fd5b61122161121a866101000151611214670de0b6b3a764000061120e886112088c60400151610c21565b90611864565b90612018565b90612037565b829061124b565b9050611239670de0b6b3a764000061120e8486611864565b85610100018181525050949350505050565b6000828201838110156105a557600080fd5b6000611267614da0565b600061127285610bad565b905061127d86610f79565b915083156112a85760006112948761ffff16610d5a565b90506112a08183610d6d565b9350506112ba565b60408201516112b79082610b64565b92505b50935093915050565b60006a7fffffffffffffffffffff1982128015906112ec57506a7fffffffffffffffffffff8213155b610bc357600080fd5b6112fd614cbc565b6104dc824261204c565b61130f614cdd565b600061131961210d565b61ffff93841660009081526020918252604090819020805464ffffffffff81168652600160281b81046001600160581b03908116948701949094526001820154841692860192909252600160d81b820463ffffffff166060860152600160801b9091049091166080840152600201546001600160501b0380821660a0850152600160501b8204811660c0850152600160a01b82041660e0840152600160f01b900460ff1661012c02909216610100820152919050565b6000836113de57506000610344565b60008085136113f7576113f286858561211a565b611402565b611402868585612156565b9050633b9aca0081131561141557600080fd5b60006114218683612197565b90506000861261143157806108a3565b6108a381600019611983565b600080600061145186602001518686610c8e565b915091506000611460876121b0565b9050816114805786516114799061ffff168783886121c4565b935061151c565b600061148b86611a0d565b905060006114a261149b86611a2e565b839061124b565b905060006114ba8a6000015161ffff1683868b6121c4565b905060008087600114156114d85750506040808b0151015188611507565b6114ee6114e760018a03611a2e565b869061124b565b90506115048c6000015161ffff1682888d6121c4565b91505b611514818584868f612263565b985050505050505b5050509392505050565b60008461153557506000610344565b60006115418585612037565b9050600061154f82856122c1565b9050633b9aca0081131561156257600080fd5b600061156e8883612197565b90506000881261157e5780611020565b61102081600019611983565b8260011115801561159f575084602001518311155b6115bb5760405162461bcd60e51b81526004016109a890615278565b60006115d86115c985611a2e565b6115d284611a0d565b9061124b565b90506115fd866000015161ffff168284866115f28b6121b0565b8a949392919061232e565b505050505050565b600080600080841161161657600080fd5b8588604001511361162f5750600091508190508061173a565b600061163f886000015186611d14565b9050600061165e8a606001518a60400151610b6490919063ffffffff16565b90506000806000611673858e8e878f8f612358565b98509194509250905082611696576000806000975097509750505050505061173a565b60408d01516116a5908c612432565b60408e01526116b4848361244e565b935060006116c860008f6040015187612464565b9050633b9aca008111156116ec57600080600098509850985050505050505061173a565b60006116f8878361249b565b9050806117165760008060009950995099505050505050505061173a565b60a08f01525060408c015161172f908e9085858561254e565b909850965050505050505b955095509592505050565b600080611751836125a3565b6001600160a01b031663a77c05b86040518163ffffffff1660e01b8152600401604080518083038186803b15801561178857600080fd5b505afa15801561179c573d6000803e3d6000fd5b505050506040513d601f19601f820116820180604052508101906103449190615165565b6117c8614cdd565b60008060006117d88886896125d3565b60c08b019290925260e08a0192909252602089015191935091506117fc908361124b565b602088015260808701516000901561182a576080880151611827906118218982612037565b906126de565b90505b61184a61183f670de0b6b3a76400008361124b565b60a08a0151906126fb565b60a089015250506080860194909452505082529092909150565b600082611873575060006104dc565b8282028284828161188057fe5b04146105a557600080fd5b611893614cbc565b600061189f8585612718565b9092509050806118b7576118b38584610a4f565b5091505b509392505050565b6000806118cc8484610db6565b91506118d884836127ab565b90506000821215610d1557611923600161191d876000015161051189602001516119178a602001516105118c600001518b610ed990919063ffffffff16565b90610ed9565b90611ca2565b9150935093915050565b60008061193984611c08565b9050828111611949576001810392505b506000611958848460016127e4565b50905060006119678585612947565b606086015190915061045d9061197d848461244e565b9061244e565b600081831261199257816105a5565b5090919050565b60006305f5e100836040015114156119b25750806104dc565b6105a56305f5e100610511856040015185610ed990919063ffffffff16565b60006305f5e100836040015112156119f9576119f2600161197d8585611999565b90506104dc565b6105a583611a0884600161244e565b611999565b60006276a700821015611a1f57600080fd5b6276a700825b06909103919050565b60008160011415611a4357506276a70061035d565b8160021415611a56575062ed4e0061035d565b8160031415611a6a57506301da9c0061035d565b8160041415611a7e57506303b5380061035d565b8160051415611a9257506309450c0061035d565b8160061415611aa6575063128a180061035d565b8160071415611aba5750632514300061035d565b60405162461bcd60e51b81526004016109a890615251565b611ada614d71565b6000611ae46129cc565b6000858152602082815260408083208715158452825291829020825160a08101845281546001600160a01b038116825260ff600160a01b82048116151594830194909452600160b01b81048416600a0a9482019490945293945092916060830191600160a81b909104166005811115611b5957fe5b8152600060209091015295945050505050565b611b798161ffff16611110565b6001600160a01b031660c0830181905260009081908190611b9990611f8d565b94509450945050506000611bb08660c00151611f2c565b505060808701859052604087018190526001600160d01b0319831660a088015260c0870151909150611be4908460006129d9565b602087015260c0860151611bf89086612a6c565b6060909601959095525050505050565b6000816080015160001415611c1f5750600061035d565b60808201516276a70090611c3290611a0d565b0192915050565b6000806000611c4a858560016127e4565b5090506000611c5b868660006127e4565b5090506000611c6a8787612947565b6060880151909150611c809061197d858461244e565b6060880151909550611c969061197d848461244e565b93505050509250929050565b808203828113156000831215146104dc57600080fd5b60006105a5611ccb84633b9aca00610ed9565b83610f27565b611cd9614da0565b6000611ce88461ffff16612ac5565b6040805160808101825261ffff96909616865260ff821660208701528501939093525050606082015290565b611d1c614e01565b6105a58383611d29612ae2565b612aef565b600083611d3a57600080fd5b82841315611d5a5760405162461bcd60e51b81526004016109a890615329565b6000806000611d7e8989888860008c13611d75576001611d79565b6000195b612b46565b90506000871215611da857611d9287610bc7565b9250611da16103db8883612197565b9150611dd5565b611db56103db8883612197565b9250611dd26103db611dcb8b6080015188612b77565b8990612197565b91505b506000611de689898886898c612bdd565b905060005b60fa8160ff161015611e515783830380611e0c57839550505050505061045d565b6000611e1c8c8c8b888c8f612bdd565b90506000611e41611e3a611e308488611ca2565b6105118587610ed9565b8790611ca2565b9596509093505050600101611deb565b5060405162461bcd60e51b81526004016109a890615229565b6000806104dc6001612c03565b8161ffff166000108015611e915750613fff61ffff831611155b611e9a57600080fd5b61ffff8216808552611ead908290612c15565b15611edc57611ec28383866101200151612c9f565b61010088015260e087015260408601526020850152611efa565b6000602085018190526040850181905260e085018190526101008501525b50506000606083018190526080830181905260a0830181905260c09092019190915250565b6000806104dc6003612c03565b600080600080611f3a612d59565b6001600160a01b0395909516600090815260209590955250506040909220546bffffffffffffffffffffffff811693600160601b82046001600160801b03169350600160e01b90910463ffffffff169150565b600080600080600080611f9e612d66565b6001600160a01b039097166000908152602097909752505060409094205461ffff81169563ffffffff62010000830481169650600160301b830416945060ff600160501b8304169350600160581b90910460d01b9150565b60006103448261120e6301da9c00818861120889670de0b6b3a7640000611864565b600080821161202657600080fd5b81838161202f57fe5b049392505050565b60008282111561204657600080fd5b50900390565b612054614cbc565b600061205f84611307565b9050828160000151101561209e5760008061207986612d73565b9050612087868483886117c0565b9093509150612097868385612dcc565b50506120ab565b805183146120ab57600080fd5b60405180606001604052806120d46105448460a001518560c0015161186490919063ffffffff16565b81526020016120f76105448460a001518560e0015161186490919063ffffffff16565b8152602001826060015181525091505092915050565b6000806104dc601d612c03565b600080612128858585613000565b905080156121485761214361213d8585612037565b826122c1565b61045d565b633b9aca0095945050505050565b600080612164858585613050565b905061217361213d8585612037565b915060006121808661308a565b90508281121561218e578092505b50509392505050565b60006105a56121a68484610ed9565b633b9aca00610f27565b6060015161012c60089190911c60ff160290565b6000806121cf6130a5565b905060006276a7006121e085611a0d565b6000898152602085815260408083208b84528252808320949093018083529390522080549192509063ffffffff600160a01b8204811691600160c01b8104821691600160e01b90910416816122475760405162461bcd60e51b81526004016109a8906151cc565b6122548184848c8c6130b2565b9b9a5050505050505050505050565b600081861061227157600080fd5b84821061227d57600080fd5b8383106122a35761229c846115d288880361120e8388038b8803611864565b905061045d565b61229c6122ba87870361120e8688038a8703611864565b8590612037565b6000806122de6122d96301da9c0061120e8688611864565b61313a565b90506122f081621dcd6560491b613158565b90506123036122fe826131ab565b6131cd565b905061231581621dcd6560491b613222565b9050600061232282613258565b60070b95945050505050565b60006276a70061233d85611a0d565b01905061234f87878787878787613261565b50505050505050565b600080600080600061236f878b604001518a612464565b9050633b9aca0081111561239157600080600080945094509450945050612425565b600061239d8c8361249b565b905060006123b86103db6123b1848b612b77565b8b90611cb8565b90506123c88d8360008c12613298565b93506123da6103db6123b1868b612b77565b9650808713156123e957600080fd5b60006123f58289611ca2565b905061240f60646105116124088f613310565b8490610ed9565b955061241e6103db898861244e565b9650505050505b9650965096509692505050565b600061243e8383611ca2565b905060008112156104dc57600080fd5b818101828112156000831215146104dc57600080fd5b60008083121561247357600080fd5b600082121561248157600080fd5b6103446107a9612491848661244e565b610e8b8688612432565b6000808360800151116124ad57600080fd5b633b9aca008211156124be57600080fd5b825182116124dd57825160408401516119f2919061120e908590611864565b826020015182116125155760408301518351602085015160608601516119f293926115d2928190039161120e91880390859003611864565b6105a583606001516115d28560200151633b9aca000361120e87606001518860800151038860200151880361186490919063ffffffff16565b6000808061255c8786610db6565b606089015190915061256e908261244e565b60608901524260e089015260006125858886610db6565b905060006125938989610db6565b9a91995090975050505050505050565b6000806125ae61331d565b61ffff939093166000908152602093909352505060409020546001600160a01b031690565b6000806000806000806125e6898861332a565b8951909550919350915060009061260d90612602908b90612037565b633b9aca0090611864565b905061264761263c6301da9c006126248585611864565b8161262b57fe5b670de0b6b3a764000091900461124b565b60e08a0151906126fb565b965061266961265e6301da9c006126248785611864565b60c08a0151906126fb565b9550818314156126805750600093506126d5915050565b60006126a26126976301da9c006126248786611864565b60e08b0151906126fb565b905060006126b08983612037565b90506126cd8861120e838d6040015161186490919063ffffffff16565b965050505050505b93509350935093565b60006105a56126f584670de0b6b3a7640000611864565b83612018565b60006105a561270a8484611864565b670de0b6b3a7640000612018565b612720614cbc565b60008061272b6133c4565b61ffff861660009081526020828152604080832088845290915290208054600160f01b900460ff16935090915082156127a25780546001600160501b03600160a01b820481169161277d911682611864565b8552815461279b90600160501b90046001600160501b031682611864565b6020860152505b50509250929050565b6000808212156127de576127d9600161191d8560200151610511876000015187610ed990919063ffffffff16565b6105a5565b50919050565b602083015151516000906060908067ffffffffffffffff8111801561280857600080fd5b50604051908082528060200260200182016040528015612832578160200160208202803683370190505b50915061283d614d29565b60005b8281101561293c57875161285b90836001808501908b61158a565b6000886020015160000151828151811061287157fe5b6020026020010151905060008061288883866133d1565b915091506128b56128ae8c60c001518d600001516000015161ffff16866020015161344c565b829061244e565b8785815181106128c157fe5b602002602001018181525050600061291e61291761290b8a88815181106128e457fe5b602002602001015187602001518f8f612901578b60a0015161089e565b8b60c00151611526565b8e516040015190610db6565b849061244e565b905061292a898261244e565b98505060019093019250612840915050565b505050935093915050565b6000806129738460c0015185600001516000015161ffff16866080015186886000015160200151613491565b905080156129c25760006129a58560c0015186600001516000015161ffff16876080015187896000015160008861353d565b508551604001519091506129b99082610db6565b925050506104dc565b60009150506104dc565b6000806104dc6007612c03565b6129e1614e46565b6129e9614e46565b60ff84166129f85790506105a5565b612a0285856135bb565b815260ff841660608201528267ffffffffffffffff81118015612a2457600080fd5b50604051908082528060200260200182016040528015612a5e57816020015b612a4b614e6e565b815260200190600190039081612a435790505b506020820152949350505050565b600080612a776135c7565b6001600160a01b03851660009081526020828152604080832061ffff8816845290915281208054600160a81b9004600a90810b900b9450919250831215612abd57600080fd5b505092915050565b600080612ad06135d4565b60009384526020525050604090205490565b6000806104dc601b612c03565b612af7614e01565b6000612b02846135e1565b61ffff861660009081526020859052604081209192509060048610612b28576001612b2b565b60005b60ff1660028110612b3857fe5b015490506108e7828261361a565b600080612b5d87612b58858989612464565b61249b565b90506000612b6f888360008712613298565b905061102081865b600080612b8f6122d96301da9c0061120e8787611864565b90506000612ba382621dcd6560491b613158565b90506000612bb0826131cd565b90506000612bc482621dcd6560491b613222565b9050612bcf81613258565b60070b979650505050505050565b600080612bed8888888789612b46565b9050611020612bfc8483612197565b869061244e565b6000620f4240826026811115611c3257fe5b60008115801590612c285750613fff8211155b612c3157600080fd5b6080830151606084015161ffff16831415612c505760019150506104dc565b6001600160701b0319811615612c955760f081901c613fff1683811415612c825750600160fe1b9081161490506104dc565b5060101b6001600160801b031916612c50565b5060009392505050565b6000806000806000612caf6135c7565b6001600160a01b03891660009081526020828152604080832061ffff8c168452909152902080546001600160501b0381169650600160501b900463ffffffff1694509091508315612d1c578054612d1590600160701b900466ffffffffffffff16613739565b9250612d31565b8054600160701b900466ffffffffffffff1692505b8054612d4c908890600160a81b9004600a90810b900b613747565b9550505093509350935093565b6000806104dc6011612c03565b6000806104dc6002612c03565b600080612d7f836125a3565b6001600160a01b031663ef81f2166040518163ffffffff1660e01b81526004016040805180830381600087803b158015612db857600080fd5b505af115801561179c573d6000803e3d6000fd5b6000612dd661210d565b60008561ffff1681526020019081526020016000209050612dfa826000015161376e565b815464ffffffffff191664ffffffffff9190911617815560a0820151612e1f90613782565b60028201805469ffffffffffffffffffff19166001600160501b039290921691909117905560c0820151612e5290613782565b81600201600a6101000a8154816001600160501b0302191690836001600160501b03160217905550612e878260e00151613782565b8160020160146101000a8154816001600160501b0302191690836001600160501b03160217905550612ebc8260200151613798565b81546001600160581b0391909116600160281b026fffffffffffffffffffffff0000000000199091161781556040820151612ef690613798565b6001820180546affffffffffffffffffffff19166001600160581b03929092169190911790556080820151612f2a90613798565b81546001600160581b0391909116600160801b026affffffffffffffffffffff60801b199091161781556060820151612f62906137ae565b815463ffffffff91909116600160d81b0263ffffffff60d81b199091161781558215612fae576000612f9384610bad565b9050612f9f85826137c1565b612fac610fee86836137fd565b505b8361ffff167fef25641e225e493886510ca1ad6584fa7b442b9fea820a29d1de3ce27d270fd28360a001518460c001518560e00151604051612ff293929190615408565b60405180910390a250505050565b600061300d84848461143d565b9050600061301a85613887565b905080821161302d5760009150506105a5565b8082039150600061303d86613894565b90508281101561218e5795945050505050565b600061305d84848461143d565b905061306b61121a856138a1565b90506000613078856138ae565b9050808210156118b757949350505050565b606001516207a12060109190911c60ff1602633b9aca000390565b6000806104dc600a612c03565b60008083116130c057600080fd5b818611156130cf57508361045d565b60006130db8388612037565b9050838111156130ee578591505061045d565b60006130fa82866138bb565b9050600061310c633b9aca0083612037565b905061312d633b9aca0061120e6131238a85611864565b6115d28c87611864565b9998505050505050505050565b6000677fffffffffffffff82111561315157600080fd5b5060401b90565b600081600f0b6000141561316b57600080fd5b600082600f0b604085600f0b901b8161318057fe5b05905060016001607f1b031981128015906131a2575060016001607f1b038113155b6105a557600080fd5b6000600f82900b60016001607f1b031914156131c657600080fd5b5060000390565b6000600160461b82600f0b126131e257600080fd5b683fffffffffffffffff1982600f0b12156131ff5750600061035d565b6104dc608083600f0b700171547652b82fe1777d0ffda0d23a7d1202901d6138ce565b6000600f83810b9083900b0260401d60016001607f1b031981128015906131a2575060016001607f1b038113156105a557600080fd5b600f0b60401d90565b61326e878787868561437e565b6132878760e001518860a001518960c0015185886130b2565b60c090970196909652505050505050565b6000806132b7606461120e8760e001518761186490919063ffffffff16565b90508460a001518110156132cc575060a08401515b8460c001518111156132df575060c08401515b82156132f6576132ef848261124b565b91506118b7565b8381116133055780840361045d565b506000949350505050565b6060015160181c60ff1690565b6000806104dc601f612c03565b6000806000806000856020015111156133775761337461335b8660c00151876020015161186490919063ffffffff16565b60e0870151604088015161336e91611864565b906138bb565b90505b600061338287614438565b905061338e818361249b565b945081156133a5576133a281866001613298565b93505b6020860151156111c2576133b9858361446b565b925050509250925092565b6000806104dc601e612c03565b6000806133e18460400151614484565b80156133f257506000846060015112155b6133fb57600080fd5b61341e836080015161051186606001518660600151610ed990919063ffffffff16565b9150613443836080015161051186606001518660400151610ed990919063ffffffff16565b90509250929050565b60008061345761449a565b6001600160a01b03861660009081526020918252604080822087835283528082208683529092522054600f90810b900b9150509392505050565b6000600282116134a35750600061045d565b60006134af87876144a7565b9050806134bd57905061045d565b60006134c885611a0d565b9050858114156134f25750744000800000020020000000020000002000000000201916905061045d565b60015b84811161353257600061350782611a2e565b83019050600061351789836144dc565b509050613526858260006145e7565b945050506001016134f5565b50819250505061045d565b600080600061354b84614632565b90505b80156135ae5760006135608983614657565b905060006135728c8c848c8c8c61470a565b905061357e858261244e565b9450600081121561358e57600193505b61359a868460006145e7565b95506135a586614632565b9250505061354e565b5097509795505050505050565b60606118b78383614766565b6000806104dc6006612c03565b6000806104dc6009612c03565b6000816000106135f057600080fd5b60078211156135fe57600080fd5b6004821061360f5760048203613611565b815b60080292915050565b613622614e01565b6064633b9aca008360ff86166020811061363857fe5b1a028161364157fe5b0481526064633b9aca008360ff86166001016020811061365d57fe5b1a028161366657fe5b0481602001818152505061368b8260028560ff16016020811061368557fe5b1a61477e565b60808201819052610100908360ff8616600301602081106136a857fe5b1a02816136b157fe5b0460408201526080810151610100908360ff8616600401602081106136d257fe5b1a02816136db57fe5b0460608201526207a1208260ff8516600501602081106136f757fe5b1a0260a0820152622625a08260ff85166006016020811061371457fe5b1a0260c08201528160ff84166007016020811061372d57fe5b1a60e082015292915050565b600881901c60ff9091161b90565b60008082126137575750806104dc565b825160208401516119f29190610511908590610ed9565b600064ffffffffff821115610bc357600080fd5b60006001600160501b03821115610bc357600080fd5b60006001600160581b03821115610bc357600080fd5b600063ffffffff821115610bc357600080fd5b60008112156137cf57600080fd5b60006137dd610fee84612a6c565b90506137e9818361244e565b90506137f8610fee84836147b2565b505050565b6000613807614826565b61ffff8416600090815260209190915260409081902054905163ad1c095d60e01b81526001600160a01b039091169150819063ad1c095d9061384f908790869060040161519c565b600060405180830381600087803b15801561386957600080fd5b505af115801561387d573d6000803e3d6000fd5b5050505050505050565b60006104dc826020614833565b60006104dc826048614833565b60006104dc826028614833565b60006104dc826030614833565b60006105a56126f584633b9aca00611864565b6000600160461b82600f0b126138e357600080fd5b683fffffffffffffffff1982600f0b12156139005750600061035d565b6001607f1b60006780000000000000008416600f0b13156139325770016a09e667f3bcc908b2fb1366ea957d3e0260801c5b60008367400000000000000016600f0b131561395f577001306fe0a31b7152de8d5a46305c85edec0260801c5b60008367200000000000000016600f0b131561398c577001172b83c7d517adcdf7c8c50eb14a791f0260801c5b60008367100000000000000016600f0b13156139b95770010b5586cf9890f6298b92b71842a983630260801c5b60008367080000000000000016600f0b13156139e6577001059b0d31585743ae7c548eb68ca417fd0260801c5b60008367040000000000000016600f0b1315613a1357700102c9a3e778060ee6f7caca4f7a29bde80260801c5b60008367020000000000000016600f0b1315613a405770010163da9fb33356d84a66ae336dcdfa3f0260801c5b600083600160381b16600f0b1315613a6957700100b1afa5abcbed6129ab13ec11dc95430260801c5b600083668000000000000016600f0b1315613a955770010058c86da1c09ea1ff19d294cf2f679b0260801c5b600083664000000000000016600f0b1315613ac1577001002c605e2e8cec506d21bfc89a23a00f0260801c5b600083662000000000000016600f0b1315613aed57700100162f3904051fa128bca9c55c31e5df0260801c5b600083661000000000000016600f0b1315613b19577001000b175effdc76ba38e31671ca9397250260801c5b600083660800000000000016600f0b1315613b4557700100058ba01fb9f96d6cacd4b180917c3d0260801c5b600083660400000000000016600f0b1315613b715770010002c5cc37da9491d0985c348c68e7b30260801c5b600083660200000000000016600f0b1315613b9d577001000162e525ee054754457d59952920260260801c5b600083600160301b16600f0b1315613bc65770010000b17255775c040618bf4a4ade83fc0260801c5b6000836580000000000016600f0b1315613bf1577001000058b91b5bc9ae2eed81e9b7d4cfab0260801c5b6000836540000000000016600f0b1315613c1c57700100002c5c89d5ec6ca4d7c8acc017b7c90260801c5b6000836520000000000016600f0b1315613c475770010000162e43f4f831060e02d839a9d16d0260801c5b6000836510000000000016600f0b1315613c7257700100000b1721bcfc99d9f890ea069117630260801c5b6000836508000000000016600f0b1315613c9d5770010000058b90cf1e6d97f9ca14dbcc16280260801c5b6000836504000000000016600f0b1315613cc8577001000002c5c863b73f016468f6bac5ca2b0260801c5b6000836502000000000016600f0b1315613cf357700100000162e430e5a18f6119e3c02282a50260801c5b600083600160281b16600f0b1315613d1c577001000000b1721835514b86e6d96efd1bfe0260801c5b60008364800000000016600f0b1315613d4657700100000058b90c0b48c6be5df846c5b2ef0260801c5b60008364400000000016600f0b1315613d705770010000002c5c8601cc6b9e94213c72737a0260801c5b60008364200000000016600f0b1315613d9a577001000000162e42fff037df38aa2b219f060260801c5b60008364100000000016600f0b1315613dc45770010000000b17217fba9c739aa5819f44f90260801c5b60008364080000000016600f0b1315613dee577001000000058b90bfcdee5acd3c1cedc8230260801c5b60008364040000000016600f0b1315613e1857700100000002c5c85fe31f35a6a30da1be500260801c5b60008364020000000016600f0b1315613e425770010000000162e42ff0999ce3541b9fffcf0260801c5b60008364010000000016600f0b1315613e6c57700100000000b17217f80f4ef5aadda455540260801c5b600083638000000016600f0b1315613e955770010000000058b90bfbf8479bd5a81b51ad0260801c5b600083634000000016600f0b1315613ebe577001000000002c5c85fdf84bd62ae30a74cc0260801c5b600083632000000016600f0b1315613ee757700100000000162e42fefb2fed257559bdaa0260801c5b600083631000000016600f0b1315613f10577001000000000b17217f7d5a7716bba4a9ae0260801c5b600083630800000016600f0b1315613f3957700100000000058b90bfbe9ddbac5e109cce0260801c5b600083630400000016600f0b1315613f625770010000000002c5c85fdf4b15de6f17eb0d0260801c5b600083630200000016600f0b1315613f8b577001000000000162e42fefa494f1478fde050260801c5b600083630100000016600f0b1315613fb45770010000000000b17217f7d20cf927c8e94c0260801c5b6000836280000016600f0b1315613fdc577001000000000058b90bfbe8f71cb4e4b33d0260801c5b6000836240000016600f0b131561400457700100000000002c5c85fdf477b662b269450260801c5b6000836220000016600f0b131561402c5770010000000000162e42fefa3ae53369388c0260801c5b6000836210000016600f0b131561405457700100000000000b17217f7d1d351a389d400260801c5b6000836208000016600f0b131561407c5770010000000000058b90bfbe8e8b2d3d4ede0260801c5b6000836204000016600f0b13156140a4577001000000000002c5c85fdf4741bea6e77e0260801c5b6000836202000016600f0b13156140cc57700100000000000162e42fefa39fe95583c20260801c5b6000836201000016600f0b13156140f4577001000000000000b17217f7d1cfb72b45e10260801c5b60008361800016600f0b131561411b57700100000000000058b90bfbe8e7cc35c3f00260801c5b60008361400016600f0b13156141425770010000000000002c5c85fdf473e242ea380260801c5b60008361200016600f0b1315614169577001000000000000162e42fefa39f02b772c0260801c5b60008361100016600f0b13156141905770010000000000000b17217f7d1cf7d83c1a0260801c5b60008361080016600f0b13156141b7577001000000000000058b90bfbe8e7bdcbe2e0260801c5b60008361040016600f0b13156141de57700100000000000002c5c85fdf473dea871f0260801c5b60008361020016600f0b13156142055770010000000000000162e42fefa39ef44d910260801c5b60008361010016600f0b131561422c57700100000000000000b17217f7d1cf79e9490260801c5b600083608016600f0b13156142525770010000000000000058b90bfbe8e7bce5440260801c5b600083604016600f0b1315614278577001000000000000002c5c85fdf473de6eca0260801c5b600083602016600f0b131561429e57700100000000000000162e42fefa39ef366f0260801c5b600083601016600f0b13156142c4577001000000000000000b17217f7d1cf79afa0260801c5b600083600816600f0b13156142ea57700100000000000000058b90bfbe8e7bcd6d0260801c5b600083600416600f0b13156143105770010000000000000002c5c85fdf473de6b20260801c5b600083600216600f0b1315614336577001000000000000000162e42fefa39ef3580260801c5b600083600116600f0b131561435c5770010000000000000000b17217f7d1cf79ab0260801c5b600f83810b60401d603f03900b1c60016001607f1b038111156104dc57600080fd5b60006143886130a5565b6000868152602082815260408083208884528252808320868452825291829020808a5290890187905280546001600160501b03808216938b0193909352600160501b810490921660608a015263ffffffff600160a01b8304811660a08b0152600160c01b8304811660c08b0152600160e01b90920490911660e08901529091508084156144275760018201546001600160501b0316608089015261387d565b600060808901525050505050505050565b614440614e01565b600061444a612ae2565b61ffff84166000908152602091909152604081205491506105a5908261361a565b60006105a561447a8484611864565b633b9aca00612018565b6000600282108015906104dc5750506008101590565b6000806104dc600c612c03565b6000806144b2614846565b6001600160a01b038516600090815260209182526040808220868352909252205491505092915050565b60008060006144ea85614853565b9050620151808406156145045760008092509250506145e0565b8381106145185760008092509250506145e0565b6201518081850304605a8111614535579250600191506145e09050565b6101688111614574576000620151806207e900840604820160591901905060068104605a016006828161456457fe5b06600014945094505050506145e0565b61087081116145a45760006201518062278d00840604820161016719019050601e8104608701601e828161456457fe5b611de281116145d4576000620151806276a700840604820161086f19019050605a810460c301605a828161456457fe5b61010060009350935050505b9250929050565b6000600183101580156145fc57506101008311155b61460557600080fd5b811561461e5750600160ff1b60001983011c83176105a5565b50600160ff1b60001983011c1983166105a5565b6000816146415750600061035d565b61464a8261486f565b60ff036001019050919050565b60008161466357600080fd5b61010082111561467257600080fd5b600061467d84614853565b90506000605a841161469857506201518083020190506104dc565b608784116146c0575060591983016207e900908102908206909103016276a7000190506104dc565b60c384116146e95750608619830162278d00908102908206909103016301da9c000190506104dc565b5060c21983016276a70090810290820690910301630b1fa8000190506104dc565b60008061471888888861344c565b90508486116147285790506108e7565b82156147425761473a848288886113cf565b9150506108e7565b600061474f85888861143d565b905061475d82888884611526565b925050506108e7565b6060806147738484614908565b915061344382614a20565b60008160ff166096106147995760ff8216622625a0026104dc565b5060951960ff919091160162e4e1c00263165a0bc00190565b60008112156147c057600080fd5b60006147ca6135c7565b6001600160a01b03851660009081526020828152604080832061ffff8816845290915290209091506147fb836112c3565b8154600a9190910b6001600160581b0316600160a81b026001600160a81b0390911617905550505050565b6000806104dc6021612c03565b60609091015160ff911c16622625a00290565b6000806104dc600b612c03565b60006201518082101561486557600080fd5b6201518082611a25565b60008161487b57600080fd5b600160801b821061488e57608091821c91015b600160401b82106148a157604091821c91015b64010000000082106148b557602091821c91015b6201000082106148c757601091821c91015b61010082106148d857600891821c91015b601082106148e857600491821c91015b600482106148f857600291821c91015b6002821061035d57600101919050565b606060088260ff16111561491b57600080fd5b6000614925614be1565b6001600160a01b038516600090815260208290526040812091925060ff851667ffffffffffffffff8111801561495a57600080fd5b5060405190808252806020026020018201604052801561499457816020015b614981614e6e565b8152602001906001900390816149795790505b50905060005b8560ff168110156107245760008382600881106149b357fe5b01905060008383815181106149c457fe5b602090810291909101810151835461ffff8116825264ffffffffff620100008204169282019290925260ff600160381b8304166040820152600160401b909104600a90810b900b6060820152608001919091525060010161499a565b80516060908067ffffffffffffffff81118015614a3c57600080fd5b50604051908082528060200260200182016040528015614a66578160200160208202803683370190505b50915060005b81811015614ac3576000848281518110614a8257fe5b60200260200101519050614aa3816000015182602001518360400151614bee565b848381518110614aaf57fe5b602090810291909101015250600101614a6c565b5060015b81811015614bda57805b600081118015614b095750838181518110614ae857fe5b6020026020010151846001830381518110614aff57fe5b6020026020010151115b15614bd157838181518110614b1a57fe5b6020026020010151846001830381518110614b3157fe5b6020026020010151856001840381518110614b4857fe5b60200260200101868481518110614b5b57fe5b6020026020010182815250828152505050848181518110614b7857fe5b6020026020010151856001830381518110614b8f57fe5b6020026020010151866001840381518110614ba657fe5b60200260200101878481518110614bb957fe5b60209081029190910101919091525260001901614ad1565b50600101614ac7565b5050919050565b6000806104dc600d612c03565b67ffff000000000000603084901b1665ffffffffff00600884901b161760ff8216179392505050565b6040518060e00160405280614c2a614da0565b8152602001614c37614e46565b815260006020820181905260408201819052606082018190526080820181905260a09091015290565b604051806101400160405280600061ffff1681526020016000815260200160008152602001600081526020016000815260200160008152602001600081526020016000815260200160008152602001614cb7614cbc565b905290565b60405180606001604052806000815260200160008152602001600081525090565b6040518061012001604052806000815260200160008152602001600081526020016000815260200160008152602001600081526020016000815260200160008152602001600081525090565b60405180610100016040528060008019168152602001600081526020016000815260200160008152602001600081526020016000815260200160008152602001600081525090565b6040805160a0810182526000808252602082018190529181018290529060608201908152602001600081525090565b6040805160808101825260008082526020820152908101614dbf614cbc565b8152600060209091015290565b6040805160c081018252600080825260208201819052918101829052606081018290526080810182905260a081019190915290565b60405180610100016040528060008152602001600081526020016000815260200160008152602001600081526020016000815260200160008152602001600081525090565b6040518060800160405280606081526020016060815260200160008152602001600081525090565b6040518060c00160405280600061ffff1681526020016000815260200160008152602001600081526020016000815260200160006003811115614cb757fe5b8035801515811461035d57600080fd5b803561ffff8116811461035d57600080fd5b803563ffffffff8116811461035d57600080fd5b60008060408385031215614ef5578182fd5b82356001600160a01b0381168114614f0b578283fd5b946020939093013593505050565b600060208284031215614f2a578081fd5b6105a582614ebd565b60008060408385031215614f45578182fd5b614f0b83614ebd565b600080600060608486031215614f62578081fd5b614f6b84614ebd565b925060208401359150614f8060408501614ead565b90509250925092565b60008060008060808587031215614f9e578081fd5b614fa785614ebd565b9350602085013580600a0b8114614fbc578182fd5b93969395505050506040820135916060013590565b60008060008060808587031215614fe6578384fd5b614fef85614ebd565b966020860135965060408601359560600135945092505050565b600080600080600060a08688031215615020578081fd5b61502986614ebd565b945060208601359350604086013592506060860135915061504c60808701614ead565b90509295509295909350565b600080600080600060a0868803121561506f578081fd5b61507886614ebd565b9450602086013593506040860135925061509460608701614ecf565b949793965091946080013592915050565b60008060008060008060c087890312156150bd578081fd5b6150c687614ebd565b955060208701359450604087013593506150e260608801614ecf565b9250608087013591506150f760a08801614ead565b90509295509295509295565b60008060408385031215615115578182fd5b61511e83614ebd565b915060208301356001600160581b0381168114615139578182fd5b809150509250929050565b60008060408385031215615156578182fd5b50508035926020909101359150565b60008060408385031215615177578182fd5b505080516020909101519092909150565b6001600160a01b0391909116815260200190565b6001600160a01b03929092168252602082015260400190565b90815260200190565b918252602082015260400190565b60208082526016908201527513585c9ad95d081b9bdd081a5b9a5d1a585b1a5e995960521b604082015260600190565b60208082526013908201527214995c5d5a5c995cc81cd95d1d1b195b595b9d606a1b604082015260600190565b6020808252600e908201526d4e6f20636f6e76657267656e636560901b604082015260600190565b6020808252600d908201526c092dcecc2d8d2c840d2dcc8caf609b1b604082015260600190565b6020808252600e908201526d125b9d985b1a59081b585c9ad95d60921b604082015260600190565b6020808252601690820152755472616465206661696c65642c20736c69707061676560501b604082015260600190565b602080825260129082015271496e76616c696420626c6f636b2074696d6560701b604082015260600190565b602080825260139082015272125b9d985b1a590818dd5c9c995b98de481a59606a1b604082015260600190565b60208082526011908201527013dd995c8813585c9ad95d08131a5b5a5d607a1b604082015260600190565b60208082526014908201527313dd995c8811195d9a585d1a5bdb88131a5b5a5d60621b604082015260600190565b6000610180820190508351825260208401516020830152604084015160408301528251606083015260208301516080830152604083015160a0830152606083015160c0830152608083015160e083015260a0830151610100818185015260c085015161012085015260e08501516101408501528085015161016085015250509392505050565b9283526020830191909152604082015260600190565b938452602084019290925260ff166040830152606082015260800190565b6001600160581b0393909316835260ff919091166020830152604082015260600190565b60ff9190911681526020019056fea264697066735822122099ddc09cb3f77dfe5348763e4542148aac4cd459c3e2d1d472145a6c60adafa264736f6c63430007060033","bytecodeSha1":"a65476b43e315e00cfc380aa34d361aede933d58","compiler":{"evm_version":"istanbul","optimizer":{"enabled":true,"runs":200},"version":"0.7.6+commit.7338295f"},"contractName":"CalculationViews","language":"Solidity","natspec":{"kind":"dev","methods":{"accruePrimeInterest(uint16)":{"notice":"Accrues prime interest and updates state up to the current block"},"calculateNTokensToMint(uint16,uint88)":{"notice":"Returns the nTokens that will be minted when some amount of asset tokens are deposited","params":{"amountToDepositExternalPrecision":"amount of underlying tokens in native precision","currencyId":"id number of the currency"},"returns":{"_0":"the amount of nTokens that will be minted"}},"convertCashBalanceToExternal(uint16,int256,bool)":{"notice":"Converts an prime cash balance to an external token denomination","params":{"convertToUnderlying":"true if the value should be converted to underlying","currencyId":"the currency id of the cash balance","primeCashBalance":"the signed cash balance that is stored in Notional"},"returns":{"_0":"the cash balance converted to the external token denomination"}},"convertSettledfCash(uint16,uint256,int256,uint256)":{"notice":"Converts fCash to its settled prime cash value at the specified block time","params":{"blockTime":"block time to convert to settled prime value, must be greater than maturity","currencyId":"the currency id of the fCash asset","fCashBalance":"signed balance of fcash","maturity":"the timestamp when the fCash asset matures"},"returns":{"signedPrimeSupplyValue":"amount of prime cash to be received or owed to the protocol"}},"convertUnderlyingToPrimeCash(uint16,int256)":{"notice":"Converts an underlying balance to prime cash","params":{"currencyId":"the currency id of the cash balance","underlyingExternal":"the underlying external token balance"},"returns":{"_0":"the underlying balance converted to prime cash"}},"getCashAmountGivenfCashAmount(uint16,int88,uint256,uint256)":{"notice":"Returns the cash amount that will be traded given an fCash amount, be sure to buffer these amounts slightly because the liquidity curve is sensitive to changes in block time","params":{"blockTime":"the block time for when the trade will be calculated","currencyId":"id number of the currency","fCashAmount":"amount of fCash to trade, negative for borrowing, positive for lending","marketIndex":"market index of the fCash market"},"returns":{"_0":"net asset cash amount (positive for borrowing, negative for lending) in 8 decimal precision","_1":"underlying cash amount (positive for borrowing, negative for lending) in 8 decimal precision"}},"getDepositFromfCashLend(uint16,uint256,uint256,uint32,uint256)":{"notice":"Returns the amount of underlying cash and asset cash required to lend fCash. When specifying a trade, deposit either underlying or asset tokens (not both). Asset tokens tend to be more gas efficient.","params":{"blockTime":"the block time for when the trade will be calculated","currencyId":"id number of the currency","fCashAmount":"amount of fCash (in underlying) that will be received at maturity. Always 8 decimal precision.","maturity":"the maturity of the fCash to lend","minLendRate":"the minimum lending rate (slippage protection)"},"returns":{"depositAmountPrimeCash":"the amount of prime cash tokens the lender must deposit or mint","depositAmountUnderlying":"the amount of underlying tokens the lender must deposit","encodedTrade":"the encoded bytes32 object to pass to batch trade","marketIndex":"the corresponding market index for the lending"}},"getMarketIndex(uint256,uint256)":{"notice":"Returns a market index value for a given maturity","params":{"blockTime":"the block time for when the trade will be calculated","maturity":"an fCash maturity"},"returns":{"marketIndex":"a value between 1 and 7 that represents the marketIndex (tenor) that corresponds to the maturity. Returns 0 if there is no corresponding marketIndex"}},"getPresentfCashValue(uint16,uint256,int256,uint256,bool)":{"notice":"Returns the present value of the given fCash amount using Notional internal oracle rates","params":{"blockTime":"the block time for when the trade will be calculated","currencyId":"id number of the currency","maturity":"timestamp of the fCash maturity","notional":"amount of fCash notional","riskAdjusted":"true if haircuts and buffers should be applied to the oracle rate"},"returns":{"presentValue":"of fCash in 8 decimal precision and underlying denomination"}},"getPrincipalFromfCashBorrow(uint16,uint256,uint256,uint32,uint256)":{"notice":"Returns the amount of underlying cash and asset cash required to borrow fCash. When specifying a trade, choose to receive either underlying or asset tokens (not both). Asset tokens tend to be more gas efficient.","params":{"blockTime":"the block time for when the trade will be calculated","currencyId":"id number of the currency","fCashBorrow":"amount of fCash (in underlying) that will be received at maturity. Always 8 decimal precision.","maturity":"the maturity of the fCash to lend","maxBorrowRate":"the maximum borrow rate (slippage protection)"},"returns":{"borrowAmountPrimeCash":"the amount of prime cash tokens the borrower will receive","borrowAmountUnderlying":"the amount of underlying tokens the borrower will receive","encodedTrade":"the encoded bytes32 object to pass to batch trade","marketIndex":"the corresponding market index for the lending"}},"getfCashAmountGivenCashAmount(uint16,int88,uint256,uint256)":{"params":{"blockTime":"the block time for when the trade will be calculated","marketIndex":"market index of the fCash market"},"returns":{"_0":"the fCash amount from the trade, positive when lending, negative when borrowing. Always in 8 decimals."}},"getfCashBorrowFromPrincipal(uint16,uint256,uint256,uint32,uint256,bool)":{"notice":"Returns the amount of fCash that would received if lending deposit amount.","params":{"blockTime":"the block time for when the trade will be calculated","borrowedAmountExternal":"amount to borrow in the token's native precision.","currencyId":"id number of the currency","maturity":"the maturity of the fCash to lend","maxBorrowRate":"the maximum borrow rate (slippage protection). If zero then no slippage will be applied","useUnderlying":"true if specifying the underlying token, false if specifying prime cash"},"returns":{"encodedTrade":"the encoded bytes32 object to pass to batch trade","fCashDebt":"the amount of fCash that the borrower will owe, this will be stored as a negative balance in Notional","marketIndex":"the corresponding market index for the lending"}},"getfCashLendFromDeposit(uint16,uint256,uint256,uint32,uint256,bool)":{"notice":"Returns the amount of fCash that would received if lending deposit amount.","params":{"blockTime":"the block time for when the trade will be calculated","currencyId":"id number of the currency","depositAmountExternal":"amount to deposit in the token's native precision. For aTokens use what is returned by the balanceOf selector (not scaledBalanceOf).","maturity":"the maturity of the fCash to lend","minLendRate":"the minimum lending rate (slippage protection)","useUnderlying":"true if specifying the underlying token, false if specifying prime cash"},"returns":{"encodedTrade":"the encoded bytes32 object to pass to batch trade","fCashAmount":"the amount of fCash that the lender will receive","marketIndex":"the corresponding market index for the lending"}},"nTokenGetClaimableIncentives(address,uint256)":{"notice":"Returns the claimable incentives for all nToken balances","params":{"account":"The address of the account which holds the tokens","blockTime":"The block time when incentives will be minted"},"returns":{"_0":"Incentives an account is eligible to claim"}},"nTokenPresentValueAssetDenominated(uint16)":{"notice":"Returns the present value of the nToken's assets denominated in asset tokens"},"nTokenPresentValueUnderlyingDenominated(uint16)":{"notice":"Returns the present value of the nToken's assets denominated in underlying"}},"version":1},"opcodes":"PUSH1 0x80 PUSH1 0x40 MSTORE CALLVALUE DUP1 ISZERO PUSH2 0x10 JUMPI PUSH1 0x0 DUP1 REVERT JUMPDEST POP PUSH1 0x4 CALLDATASIZE LT PUSH2 0x12C JUMPI PUSH1 0x0 CALLDATALOAD PUSH1 0xE0 SHR DUP1 PUSH4 0x82463367 GT PUSH2 0xAD JUMPI DUP1 PUSH4 0xBAC9E8B1 GT PUSH2 0x71 JUMPI DUP1 PUSH4 0xBAC9E8B1 EQ PUSH2 0x27B JUMPI DUP1 PUSH4 0xC50A6134 EQ PUSH2 0x29D JUMPI DUP1 PUSH4 0xC52C43E1 EQ PUSH2 0x2BE JUMPI DUP1 PUSH4 0xF11FF573 EQ PUSH2 0x2D1 JUMPI DUP1 PUSH4 0xF83A8608 EQ PUSH2 0x2E4 JUMPI PUSH2 0x12C JUMP JUMPDEST DUP1 PUSH4 0x82463367 EQ PUSH2 0x232 JUMPI DUP1 PUSH4 0x8355E895 EQ PUSH2 0x23A JUMPI DUP1 PUSH4 0x8DA5CB5B EQ PUSH2 0x24D JUMPI DUP1 PUSH4 0x97D6DB2E EQ PUSH2 0x255 JUMPI DUP1 PUSH4 0xAAAE47B5 EQ PUSH2 0x268 JUMPI PUSH2 0x12C JUMP JUMPDEST DUP1 PUSH4 0x416A1587 GT PUSH2 0xF4 JUMPI DUP1 PUSH4 0x416A1587 EQ PUSH2 0x1B6 JUMPI DUP1 PUSH4 0x5953C77B EQ PUSH2 0x1D9 JUMPI DUP1 PUSH4 0x6A09A2A3 EQ PUSH2 0x1F9 JUMPI DUP1 PUSH4 0x6D48C794 EQ PUSH2 0x20C JUMPI DUP1 PUSH4 0x6EBBF174 EQ PUSH2 0x21F JUMPI PUSH2 0x12C JUMP JUMPDEST DUP1 PUSH4 0x94614DF EQ PUSH2 0x131 JUMPI DUP1 PUSH4 0xEB49480 EQ PUSH2 0x15B JUMPI DUP1 PUSH4 0x1A05BCE1 EQ PUSH2 0x17B JUMPI DUP1 PUSH4 0x24A3D622 EQ PUSH2 0x18E JUMPI DUP1 PUSH4 0x3B2987B3 EQ PUSH2 0x1A3 JUMPI JUMPDEST PUSH1 0x0 DUP1 REVERT JUMPDEST PUSH2 0x144 PUSH2 0x13F CALLDATASIZE PUSH1 0x4 PUSH2 0x4F89 JUMP JUMPDEST PUSH2 0x2F7 JUMP JUMPDEST PUSH1 0x40 MLOAD PUSH2 0x152 SWAP3 SWAP2 SWAP1 PUSH2 0x51BE JUMP JUMPDEST PUSH1 0x40 MLOAD DUP1 SWAP2 SUB SWAP1 RETURN JUMPDEST PUSH2 0x16E PUSH2 0x169 CALLDATASIZE PUSH1 0x4 PUSH2 0x4FD1 JUMP JUMPDEST PUSH2 0x315 JUMP JUMPDEST PUSH1 0x40 MLOAD PUSH2 0x152 SWAP2 SWAP1 PUSH2 0x51B5 JUMP JUMPDEST PUSH2 0x16E PUSH2 0x189 CALLDATASIZE PUSH1 0x4 PUSH2 0x4F19 JUMP JUMPDEST PUSH2 0x34C JUMP JUMPDEST PUSH2 0x196 PUSH2 0x362 JUMP JUMPDEST PUSH1 0x40 MLOAD PUSH2 0x152 SWAP2 SWAP1 PUSH2 0x5188 JUMP JUMPDEST PUSH2 0x16E PUSH2 0x1B1 CALLDATASIZE PUSH1 0x4 PUSH2 0x4F19 JUMP JUMPDEST PUSH2 0x371 JUMP JUMPDEST PUSH2 0x1C9 PUSH2 0x1C4 CALLDATASIZE PUSH1 0x4 PUSH2 0x5058 JUMP JUMPDEST PUSH2 0x394 JUMP JUMPDEST PUSH1 0x40 MLOAD PUSH2 0x152 SWAP5 SWAP4 SWAP3 SWAP2 SWAP1 PUSH2 0x541E JUMP JUMPDEST PUSH2 0x1EC PUSH2 0x1E7 CALLDATASIZE PUSH1 0x4 PUSH2 0x5144 JUMP JUMPDEST PUSH2 0x43A JUMP JUMPDEST PUSH1 0x40 MLOAD PUSH2 0x152 SWAP2 SWAP1 PUSH2 0x5460 JUMP JUMPDEST PUSH2 0x16E PUSH2 0x207 CALLDATASIZE PUSH1 0x4 PUSH2 0x5103 JUMP JUMPDEST PUSH2 0x466 JUMP JUMPDEST PUSH2 0x16E PUSH2 0x21A CALLDATASIZE PUSH1 0x4 PUSH2 0x4F33 JUMP JUMPDEST PUSH2 0x4E2 JUMP JUMPDEST PUSH2 0x16E PUSH2 0x22D CALLDATASIZE PUSH1 0x4 PUSH2 0x4F4E JUMP JUMPDEST PUSH2 0x549 JUMP JUMPDEST PUSH2 0x196 PUSH2 0x5AC JUMP JUMPDEST PUSH2 0x16E PUSH2 0x248 CALLDATASIZE PUSH1 0x4 PUSH2 0x4F89 JUMP JUMPDEST PUSH2 0x5BB JUMP JUMPDEST PUSH2 0x196 PUSH2 0x5DF JUMP JUMPDEST PUSH2 0x16E PUSH2 0x263 CALLDATASIZE PUSH1 0x4 PUSH2 0x4EE3 JUMP JUMPDEST PUSH2 0x5F6 JUMP JUMPDEST PUSH2 0x1C9 PUSH2 0x276 CALLDATASIZE PUSH1 0x4 PUSH2 0x5058 JUMP JUMPDEST PUSH2 0x72E JUMP JUMPDEST PUSH2 0x28E PUSH2 0x289 CALLDATASIZE PUSH1 0x4 PUSH2 0x50A5 JUMP JUMPDEST PUSH2 0x7C0 JUMP JUMPDEST PUSH1 0x40 MLOAD PUSH2 0x152 SWAP4 SWAP3 SWAP2 SWAP1 PUSH2 0x543C JUMP JUMPDEST PUSH2 0x2B0 PUSH2 0x2AB CALLDATASIZE PUSH1 0x4 PUSH2 0x4F19 JUMP JUMPDEST PUSH2 0x83B JUMP JUMPDEST PUSH1 0x40 MLOAD PUSH2 0x152 SWAP3 SWAP2 SWAP1 PUSH2 0x5382 JUMP JUMPDEST PUSH2 0x16E PUSH2 0x2CC CALLDATASIZE PUSH1 0x4 PUSH2 0x5009 JUMP JUMPDEST PUSH2 0x866 JUMP JUMPDEST PUSH2 0x16E PUSH2 0x2DF CALLDATASIZE PUSH1 0x4 PUSH2 0x4F33 JUMP JUMPDEST PUSH2 0x8AE JUMP JUMPDEST PUSH2 0x28E PUSH2 0x2F2 CALLDATASIZE PUSH1 0x4 PUSH2 0x50A5 JUMP JUMPDEST PUSH2 0x8F1 JUMP JUMPDEST PUSH1 0x0 DUP1 PUSH2 0x308 DUP7 DUP7 DUP7 DUP7 PUSH1 0x0 PUSH2 0x956 JUMP JUMPDEST SWAP2 POP SWAP2 POP SWAP5 POP SWAP5 SWAP3 POP POP POP JUMP JUMPDEST PUSH1 0x0 DUP2 DUP5 GT ISZERO PUSH2 0x324 JUMPI PUSH1 0x0 DUP1 REVERT JUMPDEST PUSH1 0x0 PUSH2 0x330 DUP7 DUP5 PUSH2 0xA4F JUMP JUMPDEST POP SWAP1 POP PUSH2 0x340 DUP2 DUP8 DUP8 DUP8 DUP8 PUSH2 0xB08 JUMP JUMPDEST SWAP2 POP POP JUMPDEST SWAP5 SWAP4 POP POP POP POP JUMP JUMPDEST PUSH1 0x0 DUP1 PUSH2 0x358 DUP4 PUSH2 0xB2F JUMP JUMPDEST POP SWAP2 POP POP JUMPDEST SWAP2 SWAP1 POP JUMP JUMPDEST PUSH1 0x2 SLOAD PUSH1 0x1 PUSH1 0x1 PUSH1 0xA0 SHL SUB AND DUP2 JUMP JUMPDEST PUSH1 0x0 DUP1 PUSH1 0x0 PUSH2 0x37F DUP5 PUSH2 0xB2F JUMP JUMPDEST DUP1 MLOAD PUSH1 0x40 ADD MLOAD SWAP2 SWAP4 POP SWAP2 POP PUSH2 0x344 SWAP1 DUP4 PUSH2 0xB64 JUMP JUMPDEST PUSH1 0x0 DUP1 PUSH1 0x0 DUP1 PUSH2 0x3A4 DUP8 DUP7 PUSH2 0x43A JUMP JUMPDEST SWAP2 POP PUSH1 0x0 DUP3 PUSH1 0xFF AND GT PUSH2 0x3B6 JUMPI PUSH1 0x0 DUP1 REVERT JUMPDEST PUSH11 0x7FFFFFFFFFFFFFFFFFFFFF DUP9 LT PUSH2 0x3CD JUMPI PUSH1 0x0 DUP1 REVERT JUMPDEST PUSH1 0x0 PUSH2 0x3E0 PUSH2 0x3DB DUP11 PUSH2 0xBAD JUMP JUMPDEST PUSH2 0xBC7 JUMP JUMPDEST SWAP1 POP PUSH1 0x0 DUP1 PUSH2 0x3FB DUP13 DUP5 DUP8 PUSH1 0xFF AND DUP12 DUP14 PUSH4 0xFFFFFFFF AND PUSH2 0x956 JUMP JUMPDEST SWAP2 POP SWAP2 POP PUSH2 0x409 DUP13 DUP3 PUSH2 0xBD5 JUMP JUMPDEST SWAP7 POP PUSH2 0x414 DUP3 PUSH2 0xC21 JUMP JUMPDEST SWAP6 POP PUSH2 0x426 PUSH1 0x1 DUP7 DUP6 PUSH1 0xA SIGNEXTEND DUP13 PUSH2 0xC30 JUMP JUMPDEST POP DUP1 SWAP5 POP POP POP POP POP SWAP6 POP SWAP6 POP SWAP6 POP SWAP6 SWAP2 POP POP JUMP JUMPDEST PUSH1 0x0 DUP1 PUSH1 0x0 PUSH2 0x44B PUSH1 0x7 DUP7 DUP7 PUSH2 0xC8E JUMP JUMPDEST SWAP2 POP SWAP2 POP DUP1 PUSH2 0x45A JUMPI DUP2 PUSH2 0x45D JUMP JUMPDEST PUSH1 0x0 JUMPDEST SWAP6 SWAP5 POP POP POP POP POP JUMP JUMPDEST PUSH1 0x0 PUSH2 0x471 DUP4 PUSH2 0xD1D JUMP JUMPDEST PUSH1 0x0 PUSH2 0x480 DUP5 PUSH2 0xFFFF AND PUSH2 0xD5A JUMP JUMPDEST SWAP1 POP PUSH1 0x0 PUSH2 0x497 DUP3 PUSH1 0x1 PUSH1 0x1 PUSH1 0x58 SHL SUB DUP7 AND PUSH2 0xD6D JUMP JUMPDEST SWAP1 POP PUSH2 0x4A1 PUSH2 0x4C17 JUMP JUMPDEST PUSH2 0x4AB DUP2 DUP8 PUSH2 0xD9D JUMP JUMPDEST DUP1 MLOAD PUSH1 0x40 ADD MLOAD PUSH1 0x0 SWAP1 PUSH2 0x4CA SWAP1 DUP4 SWAP1 PUSH2 0x4C4 SWAP1 DUP7 PUSH2 0xDB6 JUMP JUMPDEST TIMESTAMP PUSH2 0xDDA JUMP JUMPDEST SWAP1 POP PUSH2 0x4D5 DUP2 PUSH2 0xC21 JUMP JUMPDEST SWAP5 POP POP POP POP POP JUMPDEST SWAP3 SWAP2 POP POP JUMP JUMPDEST PUSH1 0x0 DUP1 PUSH1 0x0 PUSH2 0x4F0 DUP6 PUSH2 0xB2F JUMP JUMPDEST SWAP2 POP SWAP2 POP PUSH1 0x0 PUSH2 0x517 DUP3 PUSH1 0x40 ADD MLOAD PUSH2 0x511 DUP6 DUP9 PUSH2 0xED9 SWAP1 SWAP2 SWAP1 PUSH4 0xFFFFFFFF AND JUMP JUMPDEST SWAP1 PUSH2 0xF27 JUMP JUMPDEST DUP3 MLOAD PUSH1 0x40 ADD MLOAD SWAP1 SWAP2 POP PUSH1 0x0 SWAP1 PUSH2 0x52D SWAP1 DUP4 PUSH2 0xB64 JUMP JUMPDEST SWAP1 POP PUSH2 0x4D5 PUSH2 0x544 DUP9 PUSH2 0x53F DUP5 PUSH2 0xF58 JUMP JUMPDEST PUSH2 0xBD5 JUMP JUMPDEST PUSH2 0xBAD JUMP JUMPDEST PUSH1 0x0 DUP2 PUSH2 0x557 JUMPI POP DUP2 PUSH2 0x5A5 JUMP JUMPDEST PUSH1 0x0 PUSH2 0x563 DUP6 TIMESTAMP PUSH2 0xA4F JUMP JUMPDEST POP SWAP1 POP PUSH1 0x0 PUSH2 0x572 DUP3 DUP7 PUSH2 0xB64 JUMP JUMPDEST SWAP1 POP PUSH1 0x0 PUSH2 0x586 PUSH2 0x544 DUP9 PUSH2 0x53F DUP6 PUSH2 0xF58 JUMP JUMPDEST SWAP1 POP PUSH1 0x0 DUP3 SLT PUSH2 0x596 JUMPI DUP1 PUSH2 0x59F JUMP JUMPDEST PUSH2 0x59F DUP2 PUSH2 0xBC7 JUMP JUMPDEST SWAP4 POP POP POP POP JUMPDEST SWAP4 SWAP3 POP POP POP JUMP JUMPDEST PUSH1 0x1 SLOAD PUSH1 0x1 PUSH1 0x1 PUSH1 0xA0 SHL SUB AND DUP2 JUMP JUMPDEST PUSH1 0x0 PUSH2 0x5C6 DUP6 PUSH2 0xD1D JUMP JUMPDEST PUSH1 0x0 PUSH2 0x5D1 DUP7 PUSH2 0xF79 JUMP JUMPDEST SWAP1 POP PUSH2 0x340 DUP6 DUP6 DUP6 DUP5 PUSH2 0xF9A JUMP JUMPDEST PUSH1 0x0 SLOAD PUSH5 0x100000000 SWAP1 DIV PUSH1 0x1 PUSH1 0x1 PUSH1 0xA0 SHL SUB AND DUP2 JUMP JUMPDEST PUSH1 0x0 DUP1 PUSH2 0x602 DUP5 PUSH2 0x102C JUMP JUMPDEST SWAP1 POP PUSH2 0x60C PUSH2 0x4C60 JUMP JUMPDEST PUSH1 0x0 PUSH2 0x617 DUP4 PUSH2 0x10E0 JUMP JUMPDEST ISZERO PUSH2 0x68D JUMPI PUSH1 0x60 DUP4 ADD MLOAD PUSH2 0x62F SWAP1 DUP4 SWAP1 DUP9 SWAP1 DUP7 PUSH2 0x10ED JUMP JUMPDEST PUSH1 0x0 DUP3 PUSH1 0x40 ADD MLOAD SGT ISZERO PUSH2 0x68D JUMPI PUSH1 0x0 PUSH2 0x64F DUP4 PUSH1 0x0 ADD MLOAD PUSH2 0xFFFF AND PUSH2 0x1110 JUMP JUMPDEST SWAP1 POP PUSH1 0x0 PUSH2 0x65D DUP3 DUP9 PUSH2 0x1136 JUMP JUMPDEST POP SWAP2 POP POP PUSH1 0x0 PUSH2 0x67B DUP6 DUP5 DUP5 PUSH2 0x676 DUP10 PUSH1 0x40 ADD MLOAD PUSH2 0xC21 JUMP JUMPDEST PUSH2 0x11CC JUMP JUMPDEST SWAP1 POP PUSH2 0x687 DUP5 DUP3 PUSH2 0x124B JUMP JUMPDEST SWAP4 POP POP POP POP JUMPDEST PUSH1 0x80 DUP4 ADD MLOAD JUMPDEST PUSH1 0x1 PUSH1 0x1 PUSH1 0x70 SHL SUB NOT DUP2 AND ISZERO PUSH2 0x724 JUMPI PUSH1 0xF0 DUP2 SWAP1 SHR PUSH2 0x3FFF AND PUSH2 0x6B8 DUP5 DUP10 DUP4 DUP9 PUSH2 0x10ED JUMP JUMPDEST PUSH1 0x0 DUP5 PUSH1 0x40 ADD MLOAD SGT ISZERO PUSH2 0x711 JUMPI PUSH1 0x0 PUSH2 0x6D8 DUP6 PUSH1 0x0 ADD MLOAD PUSH2 0xFFFF AND PUSH2 0x1110 JUMP JUMPDEST SWAP1 POP PUSH1 0x0 PUSH2 0x6E6 DUP3 DUP11 PUSH2 0x1136 JUMP JUMPDEST POP SWAP2 POP POP PUSH1 0x0 PUSH2 0x6FF DUP8 DUP5 DUP5 PUSH2 0x676 DUP12 PUSH1 0x40 ADD MLOAD PUSH2 0xC21 JUMP JUMPDEST SWAP1 POP PUSH2 0x70B DUP7 DUP3 PUSH2 0x124B JUMP JUMPDEST SWAP6 POP POP POP POP JUMPDEST POP PUSH1 0x10 SHL PUSH1 0x1 PUSH1 0x1 PUSH1 0x80 SHL SUB NOT AND PUSH2 0x693 JUMP JUMPDEST POP SWAP6 SWAP5 POP POP POP POP POP JUMP JUMPDEST PUSH1 0x0 DUP1 PUSH1 0x0 DUP1 PUSH2 0x73E DUP8 DUP7 PUSH2 0x43A JUMP JUMPDEST SWAP2 POP PUSH1 0x0 DUP3 PUSH1 0xFF AND GT PUSH2 0x750 JUMPI PUSH1 0x0 DUP1 REVERT JUMPDEST PUSH11 0x7FFFFFFFFFFFFFFFFFFFFF DUP9 LT PUSH2 0x767 JUMPI PUSH1 0x0 DUP1 REVERT JUMPDEST PUSH1 0x0 PUSH2 0x772 DUP10 PUSH2 0xBAD JUMP JUMPDEST SWAP1 POP PUSH1 0x0 DUP1 PUSH2 0x78D DUP13 DUP5 DUP8 PUSH1 0xFF AND DUP12 DUP14 PUSH4 0xFFFFFFFF AND PUSH2 0x956 JUMP JUMPDEST SWAP2 POP SWAP2 POP PUSH2 0x79B DUP13 DUP3 PUSH2 0xBD5 JUMP JUMPDEST SWAP7 POP PUSH2 0x7AE PUSH2 0x7A9 DUP4 PUSH2 0xBC7 JUMP JUMPDEST PUSH2 0xC21 JUMP JUMPDEST SWAP6 POP PUSH2 0x426 PUSH1 0x0 DUP7 DUP6 PUSH1 0xA SIGNEXTEND DUP13 PUSH2 0xC30 JUMP JUMPDEST PUSH1 0x0 DUP1 PUSH1 0x0 PUSH2 0x7CF DUP8 DUP7 PUSH2 0x43A JUMP JUMPDEST SWAP2 POP PUSH1 0x0 DUP3 PUSH1 0xFF AND GT PUSH2 0x7E1 JUMPI PUSH1 0x0 DUP1 REVERT JUMPDEST PUSH1 0x0 DUP1 PUSH2 0x7EF DUP12 DUP12 DUP9 PUSH2 0x125D JUMP JUMPDEST SWAP2 POP SWAP2 POP PUSH1 0x0 PUSH2 0x80C PUSH2 0x801 DUP5 PUSH2 0x12C3 JUMP JUMPDEST DUP7 PUSH1 0xFF AND DUP11 DUP6 PUSH2 0xF9A JUMP JUMPDEST SWAP1 POP PUSH1 0x0 DUP2 SLT PUSH2 0x81B JUMPI PUSH1 0x0 DUP1 REVERT JUMPDEST PUSH2 0x828 PUSH1 0x1 DUP7 DUP4 DUP13 PUSH2 0xC30 JUMP JUMPDEST SWAP14 SWAP6 SWAP13 POP SWAP11 POP SWAP4 SWAP9 POP POP POP POP POP POP POP POP POP JUMP JUMPDEST PUSH2 0x843 PUSH2 0x4CBC JUMP JUMPDEST PUSH2 0x84B PUSH2 0x4CDD JUMP JUMPDEST PUSH2 0x854 DUP4 PUSH2 0x12F5 JUMP JUMPDEST SWAP2 POP PUSH2 0x85F DUP4 PUSH2 0x1307 JUMP JUMPDEST SWAP1 POP SWAP2 POP SWAP2 JUMP JUMPDEST PUSH1 0x0 DUP1 PUSH2 0x872 DUP8 PUSH2 0xF79 JUMP JUMPDEST SWAP1 POP DUP3 ISZERO PUSH2 0x88D JUMPI PUSH2 0x886 DUP2 DUP7 DUP9 DUP8 PUSH2 0x13CF JUMP JUMPDEST SWAP2 POP PUSH2 0x724 JUMP JUMPDEST PUSH2 0x8A3 DUP6 DUP8 DUP7 PUSH2 0x89E DUP6 DUP4 DUP4 PUSH2 0x143D JUMP JUMPDEST PUSH2 0x1526 JUMP JUMPDEST SWAP8 SWAP7 POP POP POP POP POP POP POP JUMP JUMPDEST PUSH1 0x0 DUP1 PUSH2 0x8BB DUP5 TIMESTAMP PUSH2 0xA4F JUMP JUMPDEST POP SWAP1 POP PUSH1 0x0 PUSH2 0x8CD DUP6 PUSH2 0xFFFF AND PUSH2 0xD5A JUMP JUMPDEST SWAP1 POP PUSH1 0x0 PUSH2 0x8DB DUP3 DUP7 PUSH2 0xD6D JUMP JUMPDEST SWAP1 POP PUSH2 0x8E7 DUP4 DUP3 PUSH2 0xDB6 JUMP JUMPDEST SWAP7 SWAP6 POP POP POP POP POP POP JUMP JUMPDEST PUSH1 0x0 DUP1 PUSH1 0x0 PUSH2 0x900 DUP8 DUP7 PUSH2 0x43A JUMP JUMPDEST SWAP2 POP PUSH1 0x0 DUP3 PUSH1 0xFF AND GT PUSH2 0x912 JUMPI PUSH1 0x0 DUP1 REVERT JUMPDEST PUSH1 0x0 DUP1 PUSH2 0x920 DUP12 DUP12 DUP9 PUSH2 0x125D JUMP JUMPDEST SWAP2 POP SWAP2 POP PUSH1 0x0 PUSH2 0x93A PUSH2 0x801 PUSH2 0x935 DUP6 PUSH2 0xBC7 JUMP JUMPDEST PUSH2 0x12C3 JUMP JUMPDEST SWAP1 POP DUP1 PUSH1 0x0 SLT PUSH2 0x949 JUMPI PUSH1 0x0 DUP1 REVERT JUMPDEST PUSH2 0x828 PUSH1 0x0 DUP7 DUP4 DUP13 PUSH2 0xC30 JUMP JUMPDEST PUSH1 0x0 DUP1 PUSH2 0x962 DUP8 PUSH2 0xD1D JUMP JUMPDEST PUSH1 0x0 PUSH2 0x96D DUP9 PUSH2 0xF79 JUMP JUMPDEST SWAP1 POP PUSH2 0x977 PUSH2 0x4D29 JUMP JUMPDEST PUSH2 0x985 DUP3 DUP3 DUP10 PUSH1 0x0 DUP11 PUSH2 0x158A JUMP JUMPDEST DUP6 DUP2 PUSH1 0x20 ADD MLOAD GT PUSH2 0x9B1 JUMPI PUSH1 0x40 MLOAD PUSH3 0x461BCD PUSH1 0xE5 SHL DUP2 MSTORE PUSH1 0x4 ADD PUSH2 0x9A8 SWAP1 PUSH2 0x52D0 JUMP JUMPDEST PUSH1 0x40 MLOAD DUP1 SWAP2 SUB SWAP1 REVERT JUMPDEST PUSH1 0x20 DUP2 ADD MLOAD DUP7 SWAP1 SUB PUSH1 0x0 DUP1 PUSH2 0x9CD DUP5 DUP7 PUSH1 0xA DUP15 SWAP1 SIGNEXTEND DUP7 DUP15 PUSH2 0x1605 JUMP JUMPDEST SWAP3 POP POP SWAP2 POP DUP8 PUSH1 0x0 EQ PUSH2 0xA2B JUMPI PUSH1 0x0 DUP12 PUSH1 0xA SIGNEXTEND SLT ISZERO PUSH2 0xA0B JUMPI DUP8 DUP2 GT ISZERO PUSH2 0xA06 JUMPI PUSH1 0x40 MLOAD PUSH3 0x461BCD PUSH1 0xE5 SHL DUP2 MSTORE PUSH1 0x4 ADD PUSH2 0x9A8 SWAP1 PUSH2 0x52A0 JUMP JUMPDEST PUSH2 0xA2B JUMP JUMPDEST DUP8 DUP2 LT ISZERO PUSH2 0xA2B JUMPI PUSH1 0x40 MLOAD PUSH3 0x461BCD PUSH1 0xE5 SHL DUP2 MSTORE PUSH1 0x4 ADD PUSH2 0x9A8 SWAP1 PUSH2 0x52A0 JUMP JUMPDEST PUSH1 0x40 DUP6 ADD MLOAD DUP3 SWAP1 PUSH2 0xA3C SWAP1 DUP3 PUSH2 0xB64 JUMP JUMPDEST SWAP7 POP SWAP7 POP POP POP POP POP POP SWAP6 POP SWAP6 SWAP4 POP POP POP POP JUMP JUMPDEST PUSH2 0xA57 PUSH2 0x4CBC JUMP JUMPDEST PUSH2 0xA5F PUSH2 0x4CDD JUMP JUMPDEST PUSH2 0xA68 DUP5 PUSH2 0x1307 JUMP JUMPDEST SWAP1 POP DUP3 DUP2 PUSH1 0x0 ADD MLOAD LT ISZERO PUSH2 0xA99 JUMPI PUSH1 0x0 PUSH2 0xA81 DUP6 PUSH2 0x1745 JUMP JUMPDEST SWAP1 POP PUSH2 0xA8F DUP6 DUP4 DUP4 DUP8 PUSH2 0x17C0 JUMP JUMPDEST POP SWAP2 POP PUSH2 0xAA6 SWAP1 POP JUMP JUMPDEST DUP1 MLOAD DUP4 EQ PUSH2 0xAA6 JUMPI PUSH1 0x0 DUP1 REVERT JUMPDEST PUSH1 0x40 MLOAD DUP1 PUSH1 0x60 ADD PUSH1 0x40 MSTORE DUP1 PUSH2 0xACF PUSH2 0x544 DUP5 PUSH1 0xA0 ADD MLOAD DUP6 PUSH1 0xC0 ADD MLOAD PUSH2 0x1864 SWAP1 SWAP2 SWAP1 PUSH4 0xFFFFFFFF AND JUMP JUMPDEST DUP2 MSTORE PUSH1 0x20 ADD PUSH2 0xAF2 PUSH2 0x544 DUP5 PUSH1 0xA0 ADD MLOAD DUP6 PUSH1 0xE0 ADD MLOAD PUSH2 0x1864 SWAP1 SWAP2 SWAP1 PUSH4 0xFFFFFFFF AND JUMP JUMPDEST DUP2 MSTORE PUSH1 0x20 ADD DUP3 PUSH1 0x60 ADD MLOAD DUP2 MSTORE POP SWAP2 POP SWAP3 POP SWAP3 SWAP1 POP JUMP JUMPDEST PUSH1 0x0 DUP1 PUSH2 0xB16 DUP7 DUP7 DUP6 PUSH2 0x188B JUMP JUMPDEST SWAP1 POP PUSH2 0xB23 DUP8 DUP3 DUP7 PUSH2 0x18BF JUMP JUMPDEST POP SWAP8 SWAP7 POP POP POP POP POP POP POP JUMP JUMPDEST PUSH1 0x0 PUSH2 0xB39 PUSH2 0x4C17 JUMP JUMPDEST TIMESTAMP PUSH2 0xB42 PUSH2 0x4C17 JUMP JUMPDEST PUSH2 0xB4C DUP2 DUP7 PUSH2 0xD9D JUMP JUMPDEST PUSH1 0x0 PUSH2 0xB58 DUP3 DUP5 PUSH2 0x192D JUMP JUMPDEST SWAP5 POP SWAP1 SWAP3 POP POP POP SWAP2 POP SWAP2 JUMP JUMPDEST PUSH1 0x0 DUP1 PUSH2 0xB91 PUSH15 0xC097CE7BC90715B34B9F1000000000 PUSH2 0x511 DUP7 PUSH1 0x0 ADD MLOAD DUP7 PUSH2 0xED9 SWAP1 SWAP2 SWAP1 PUSH4 0xFFFFFFFF AND JUMP JUMPDEST SWAP1 POP PUSH1 0x0 DUP4 SLT PUSH2 0xBA1 JUMPI DUP1 PUSH2 0x344 JUMP JUMPDEST PUSH2 0x344 DUP2 PUSH1 0x0 NOT PUSH2 0x1983 JUMP JUMPDEST PUSH1 0x0 PUSH1 0x1 PUSH1 0x1 PUSH1 0xFF SHL SUB DUP3 GT ISZERO PUSH2 0xBC3 JUMPI PUSH1 0x0 DUP1 REVERT JUMPDEST POP SWAP1 JUMP JUMPDEST PUSH1 0x0 PUSH2 0x4DC PUSH1 0x0 NOT DUP4 PUSH2 0xED9 JUMP JUMPDEST PUSH1 0x0 DUP1 PUSH2 0xBE5 DUP5 PUSH2 0xFFFF AND PUSH2 0xD5A JUMP JUMPDEST SWAP1 POP PUSH1 0x0 DUP1 DUP5 SLT PUSH2 0xC07 JUMPI PUSH2 0xC02 PUSH2 0xBFD DUP4 DUP7 PUSH2 0x1999 JUMP JUMPDEST PUSH2 0xF58 JUMP JUMPDEST PUSH2 0xC1A JUMP JUMPDEST PUSH2 0xC1A PUSH2 0xC13 DUP6 PUSH2 0xBC7 JUMP JUMPDEST DUP4 SWAP1 PUSH2 0x19D1 JUMP JUMPDEST SWAP1 POP PUSH2 0x45D DUP2 JUMPDEST PUSH1 0x0 DUP1 DUP3 SLT ISZERO PUSH2 0xBC3 JUMPI PUSH1 0x0 DUP1 REVERT JUMPDEST PUSH1 0x0 DUP1 PUSH1 0x0 PUSH2 0xC3E DUP6 PUSH2 0xF58 JUMP JUMPDEST SWAP1 POP PUSH1 0x1 PUSH1 0x1 PUSH1 0x58 SHL SUB DUP2 GT ISZERO PUSH2 0xC54 JUMPI PUSH1 0x0 DUP1 REVERT JUMPDEST PUSH1 0x78 DUP5 PUSH4 0xFFFFFFFF AND SWAP1 SHL PUSH1 0x98 DUP3 SWAP1 SHL PUSH1 0xF0 DUP9 PUSH1 0xFF AND SWAP1 SHL PUSH1 0xF8 DUP11 PUSH1 0x5 DUP2 GT ISZERO PUSH2 0xC7A JUMPI INVALID JUMPDEST PUSH1 0xFF AND SWAP1 SHL OR OR OR SWAP8 SWAP1 SWAP7 POP SWAP5 POP POP POP POP POP JUMP JUMPDEST PUSH1 0x0 DUP1 PUSH1 0x0 DUP6 GT PUSH2 0xC9E JUMPI PUSH1 0x0 DUP1 REVERT JUMPDEST PUSH1 0x7 DUP6 GT ISZERO PUSH2 0xCAC JUMPI PUSH1 0x0 DUP1 REVERT JUMPDEST PUSH1 0x0 PUSH2 0xCB7 DUP5 PUSH2 0x1A0D JUMP JUMPDEST SWAP1 POP PUSH1 0x1 JUMPDEST DUP7 DUP2 GT PUSH2 0xD0F JUMPI PUSH1 0x0 PUSH2 0xCD8 PUSH2 0xCD1 DUP4 PUSH2 0x1A2E JUMP JUMPDEST DUP5 SWAP1 PUSH2 0x124B JUMP JUMPDEST SWAP1 POP DUP7 DUP2 EQ ISZERO PUSH2 0xCF0 JUMPI POP SWAP3 POP PUSH1 0x0 SWAP2 POP PUSH2 0xD15 SWAP1 POP JUMP JUMPDEST DUP7 DUP2 GT ISZERO PUSH2 0xD06 JUMPI POP SWAP3 POP PUSH1 0x1 SWAP2 POP PUSH2 0xD15 SWAP1 POP JUMP JUMPDEST POP PUSH1 0x1 ADD PUSH2 0xCBC JUMP JUMPDEST POP PUSH1 0x0 DUP1 REVERT JUMPDEST SWAP4 POP SWAP4 SWAP2 POP POP JUMP JUMPDEST DUP1 PUSH2 0xFFFF AND PUSH1 0x0 LT DUP1 ISZERO PUSH2 0xD3B JUMPI POP PUSH1 0x0 SLOAD PUSH2 0xFFFF SWAP1 DUP2 AND SWAP1 DUP3 AND GT ISZERO JUMPDEST PUSH2 0xD57 JUMPI PUSH1 0x40 MLOAD PUSH3 0x461BCD PUSH1 0xE5 SHL DUP2 MSTORE PUSH1 0x4 ADD PUSH2 0x9A8 SWAP1 PUSH2 0x52FC JUMP JUMPDEST POP JUMP JUMPDEST PUSH2 0xD62 PUSH2 0x4D71 JUMP JUMPDEST PUSH2 0x4DC DUP3 PUSH1 0x1 PUSH2 0x1AD2 JUMP JUMPDEST PUSH1 0x0 PUSH4 0x5F5E100 DUP4 PUSH1 0x40 ADD MLOAD EQ ISZERO PUSH2 0xD86 JUMPI POP DUP1 PUSH2 0x4DC JUMP JUMPDEST PUSH1 0x40 DUP4 ADD MLOAD PUSH2 0x5A5 SWAP1 PUSH2 0x511 DUP5 PUSH4 0x5F5E100 PUSH2 0xED9 JUMP JUMPDEST PUSH2 0xDA7 DUP3 DUP3 PUSH2 0x1B6C JUMP JUMPDEST PUSH2 0xDB0 DUP2 PUSH2 0xF79 JUMP JUMPDEST SWAP1 SWAP2 MSTORE POP JUMP JUMPDEST DUP2 MLOAD PUSH1 0x0 SWAP1 DUP2 SWAP1 PUSH2 0xB91 SWAP1 PUSH2 0x511 DUP6 PUSH15 0xC097CE7BC90715B34B9F1000000000 PUSH2 0xED9 JUMP JUMPDEST PUSH1 0x0 DUP1 DUP4 SLT ISZERO PUSH2 0xDE9 JUMPI PUSH1 0x0 DUP1 REVERT JUMPDEST DUP3 PUSH2 0xDF6 JUMPI POP PUSH1 0x0 PUSH2 0x5A5 JUMP JUMPDEST PUSH1 0x80 DUP5 ADD MLOAD ISZERO PUSH2 0xE2E JUMPI PUSH1 0x0 PUSH2 0xE0B DUP6 PUSH2 0x1C08 JUMP JUMPDEST SWAP1 POP DUP3 DUP2 GT PUSH2 0xE2C JUMPI PUSH1 0x40 MLOAD PUSH3 0x461BCD PUSH1 0xE5 SHL DUP2 MSTORE PUSH1 0x4 ADD PUSH2 0x9A8 SWAP1 PUSH2 0x51FC JUMP JUMPDEST POP JUMPDEST PUSH1 0x40 DUP5 ADD MLOAD PUSH2 0xE3E JUMPI POP DUP2 PUSH2 0x5A5 JUMP JUMPDEST PUSH1 0x0 DUP1 PUSH2 0xE4B DUP7 DUP6 PUSH2 0x1C39 JUMP JUMPDEST SWAP2 POP SWAP2 POP PUSH1 0x0 DUP3 SLT ISZERO PUSH2 0xE5D JUMPI PUSH1 0x0 DUP1 REVERT JUMPDEST PUSH1 0x0 DUP2 SLT ISZERO PUSH2 0xE6B JUMPI PUSH1 0x0 DUP1 REVERT JUMPDEST PUSH1 0xA0 DUP7 ADD MLOAD PUSH1 0x5 BYTE PUSH3 0x7A120 MUL PUSH1 0x0 PUSH2 0xE91 DUP5 PUSH2 0xE8B PUSH2 0xBFD DUP3 DUP8 PUSH2 0x1CA2 JUMP JUMPDEST SWAP1 PUSH2 0x1CB8 JUMP JUMPDEST SWAP1 POP DUP2 DUP2 SGT ISZERO PUSH2 0xEB3 JUMPI PUSH1 0x40 MLOAD PUSH3 0x461BCD PUSH1 0xE5 SHL DUP2 MSTORE PUSH1 0x4 ADD PUSH2 0x9A8 SWAP1 PUSH2 0x5354 JUMP JUMPDEST PUSH2 0xECE DUP4 PUSH2 0x511 DUP11 PUSH1 0x40 ADD MLOAD DUP11 PUSH2 0xED9 SWAP1 SWAP2 SWAP1 PUSH4 0xFFFFFFFF AND JUMP JUMPDEST SWAP5 POP POP POP POP POP PUSH2 0x5A5 JUMP JUMPDEST DUP2 DUP2 MUL PUSH1 0x0 NOT DUP4 EQ ISZERO PUSH2 0xF09 JUMPI DUP2 ISZERO DUP1 PUSH2 0xEFB JUMPI POP DUP3 DUP3 DUP3 DUP2 PUSH2 0xEF8 JUMPI INVALID JUMPDEST SDIV EQ JUMPDEST PUSH2 0xF04 JUMPI PUSH1 0x0 DUP1 REVERT JUMPDEST PUSH2 0x4DC JUMP JUMPDEST DUP3 ISZERO DUP1 PUSH2 0xF1E JUMPI POP DUP2 DUP4 DUP3 DUP2 PUSH2 0xF1B JUMPI INVALID JUMPDEST SDIV EQ JUMPDEST PUSH2 0x4DC JUMPI PUSH1 0x0 DUP1 REVERT JUMPDEST PUSH1 0x0 DUP2 PUSH1 0x0 NOT EQ DUP1 ISZERO PUSH2 0xF3D JUMPI POP PUSH1 0x1 PUSH1 0xFF SHL DUP4 EQ JUMPDEST ISZERO PUSH2 0xF47 JUMPI PUSH1 0x0 DUP1 REVERT JUMPDEST DUP2 DUP4 DUP2 PUSH2 0xF50 JUMPI INVALID JUMPDEST SDIV SWAP4 SWAP3 POP POP POP JUMP JUMPDEST PUSH1 0x0 DUP1 DUP3 SLT ISZERO PUSH2 0xF72 JUMPI PUSH2 0xF6B DUP3 PUSH2 0xBC7 JUMP JUMPDEST SWAP1 POP PUSH2 0x35D JUMP JUMPDEST POP DUP1 PUSH2 0x35D JUMP JUMPDEST PUSH2 0xF81 PUSH2 0x4DA0 JUMP JUMPDEST PUSH1 0x0 PUSH2 0xF8D DUP4 TIMESTAMP PUSH2 0xA4F JUMP JUMPDEST POP SWAP1 POP PUSH2 0x5A5 DUP4 DUP3 PUSH2 0x1CD1 JUMP JUMPDEST PUSH1 0x0 PUSH2 0xFA4 PUSH2 0x4D29 JUMP JUMPDEST PUSH2 0xFB2 DUP4 DUP3 DUP8 PUSH1 0x0 DUP9 PUSH2 0x158A JUMP JUMPDEST DUP4 DUP2 PUSH1 0x20 ADD MLOAD GT PUSH2 0xFD5 JUMPI PUSH1 0x40 MLOAD PUSH3 0x461BCD PUSH1 0xE5 SHL DUP2 MSTORE PUSH1 0x4 ADD PUSH2 0x9A8 SWAP1 PUSH2 0x52D0 JUMP JUMPDEST PUSH1 0x0 DUP5 DUP3 PUSH1 0x20 ADD MLOAD SUB SWAP1 POP PUSH1 0x0 PUSH2 0xFF0 DUP6 PUSH1 0x0 ADD MLOAD DUP9 PUSH2 0x1D14 JUMP JUMPDEST SWAP1 POP PUSH2 0x1020 DUP2 DUP5 PUSH1 0x40 ADD MLOAD DUP11 PUSH1 0xA SIGNEXTEND PUSH2 0x101A DUP8 PUSH1 0x60 ADD MLOAD DUP11 PUSH1 0x40 ADD MLOAD PUSH2 0xB64 SWAP1 SWAP2 SWAP1 PUSH4 0xFFFFFFFF AND JUMP JUMPDEST DUP7 PUSH2 0x1D2E JUMP JUMPDEST SWAP9 SWAP8 POP POP POP POP POP POP POP POP JUMP JUMPDEST PUSH2 0x1034 PUSH2 0x4DCC JUMP JUMPDEST PUSH1 0x0 PUSH2 0x103E PUSH2 0x1E6A JUMP JUMPDEST PUSH1 0x1 PUSH1 0x1 PUSH1 0xA0 SHL SUB DUP5 AND PUSH1 0x0 SWAP1 DUP2 MSTORE PUSH1 0x20 SWAP2 DUP3 MSTORE PUSH1 0x40 SWAP1 DUP2 SWAP1 KECCAK256 DUP2 MLOAD PUSH1 0xC0 DUP2 ADD DUP4 MSTORE SWAP1 SLOAD PUSH5 0xFFFFFFFFFF DUP2 AND DUP3 MSTORE PUSH1 0x1 PUSH1 0x1 PUSH1 0xF8 SHL SUB NOT PUSH1 0x1 PUSH1 0x28 SHL DUP3 DIV PUSH1 0xF8 SHL AND SWAP4 DUP3 ADD SWAP4 SWAP1 SWAP4 MSTORE PUSH1 0xFF PUSH1 0x1 PUSH1 0x30 SHL DUP5 DIV DUP2 AND SWAP3 DUP3 ADD SWAP3 SWAP1 SWAP3 MSTORE PUSH2 0xFFFF PUSH1 0x1 PUSH1 0x38 SHL DUP5 DIV AND PUSH1 0x60 DUP3 ADD MSTORE PUSH1 0x1 PUSH1 0x1 PUSH1 0x70 SHL SUB NOT PUSH10 0x1000000000000000000 DUP5 DIV PUSH1 0x70 SHL AND PUSH1 0x80 DUP3 ADD MSTORE PUSH1 0x1 PUSH1 0xD8 SHL SWAP1 SWAP3 DIV AND ISZERO ISZERO PUSH1 0xA0 DUP3 ADD MSTORE SWAP2 POP POP SWAP2 SWAP1 POP JUMP JUMPDEST PUSH1 0x60 ADD MLOAD PUSH2 0xFFFF AND ISZERO ISZERO SWAP1 JUMP JUMPDEST PUSH2 0x10F7 DUP3 TIMESTAMP PUSH2 0xA4F JUMP JUMPDEST POP PUSH2 0x120 DUP6 ADD MSTORE PUSH2 0x110A DUP5 DUP5 DUP5 DUP5 PUSH2 0x1E77 JUMP JUMPDEST POP POP POP POP JUMP JUMPDEST PUSH1 0x0 DUP1 PUSH2 0x111B PUSH2 0x1F1F JUMP JUMPDEST PUSH1 0x0 SWAP4 DUP5 MSTORE PUSH1 0x20 MSTORE POP POP PUSH1 0x40 SWAP1 KECCAK256 SLOAD PUSH1 0x1 PUSH1 0x1 PUSH1 0xA0 SHL SUB AND SWAP1 JUMP JUMPDEST PUSH1 0x0 DUP1 PUSH1 0x0 PUSH2 0x1144 DUP6 PUSH2 0x1F2C JUMP JUMPDEST SWAP2 SWAP5 POP SWAP3 POP SWAP1 POP DUP1 DUP5 GT DUP1 ISZERO PUSH2 0x115A JUMPI POP PUSH1 0x0 DUP2 GT JUMPDEST DUP1 ISZERO PUSH2 0x1166 JUMPI POP PUSH1 0x0 DUP4 GT JUMPDEST ISZERO PUSH2 0x11C5 JUMPI PUSH1 0x0 PUSH2 0x1176 DUP7 PUSH2 0x1F8D JUMP JUMPDEST POP POP POP SWAP2 POP POP PUSH1 0x0 PUSH2 0x11A1 PUSH2 0x1198 PUSH4 0x5F5E100 DUP5 PUSH2 0x1864 SWAP1 SWAP2 SWAP1 PUSH4 0xFFFFFFFF AND JUMP JUMPDEST DUP5 DUP9 SUB DUP8 PUSH2 0x1FF6 JUMP JUMPDEST SWAP1 POP PUSH2 0x11AD DUP5 DUP3 PUSH2 0x124B JUMP JUMPDEST SWAP4 POP PUSH1 0x1 PUSH1 0x1 PUSH1 0x80 SHL SUB DUP5 LT PUSH2 0x11C2 JUMPI PUSH1 0x0 DUP1 REVERT JUMPDEST POP POP JUMPDEST SWAP3 POP SWAP3 POP SWAP3 JUMP JUMPDEST PUSH1 0x0 DUP5 PUSH1 0xE0 ADD MLOAD PUSH1 0x0 EQ PUSH2 0x11DF JUMPI PUSH1 0x0 DUP1 REVERT JUMPDEST PUSH2 0x1221 PUSH2 0x121A DUP7 PUSH2 0x100 ADD MLOAD PUSH2 0x1214 PUSH8 0xDE0B6B3A7640000 PUSH2 0x120E DUP9 PUSH2 0x1208 DUP13 PUSH1 0x40 ADD MLOAD PUSH2 0xC21 JUMP JUMPDEST SWAP1 PUSH2 0x1864 JUMP JUMPDEST SWAP1 PUSH2 0x2018 JUMP JUMPDEST SWAP1 PUSH2 0x2037 JUMP JUMPDEST DUP3 SWAP1 PUSH2 0x124B JUMP JUMPDEST SWAP1 POP PUSH2 0x1239 PUSH8 0xDE0B6B3A7640000 PUSH2 0x120E DUP5 DUP7 PUSH2 0x1864 JUMP JUMPDEST DUP6 PUSH2 0x100 ADD DUP2 DUP2 MSTORE POP POP SWAP5 SWAP4 POP POP POP POP JUMP JUMPDEST PUSH1 0x0 DUP3 DUP3 ADD DUP4 DUP2 LT ISZERO PUSH2 0x5A5 JUMPI PUSH1 0x0 DUP1 REVERT JUMPDEST PUSH1 0x0 PUSH2 0x1267 PUSH2 0x4DA0 JUMP JUMPDEST PUSH1 0x0 PUSH2 0x1272 DUP6 PUSH2 0xBAD JUMP JUMPDEST SWAP1 POP PUSH2 0x127D DUP7 PUSH2 0xF79 JUMP JUMPDEST SWAP2 POP DUP4 ISZERO PUSH2 0x12A8 JUMPI PUSH1 0x0 PUSH2 0x1294 DUP8 PUSH2 0xFFFF AND PUSH2 0xD5A JUMP JUMPDEST SWAP1 POP PUSH2 0x12A0 DUP2 DUP4 PUSH2 0xD6D JUMP JUMPDEST SWAP4 POP POP PUSH2 0x12BA JUMP JUMPDEST PUSH1 0x40 DUP3 ADD MLOAD PUSH2 0x12B7 SWAP1 DUP3 PUSH2 0xB64 JUMP JUMPDEST SWAP3 POP JUMPDEST POP SWAP4 POP SWAP4 SWAP2 POP POP JUMP JUMPDEST PUSH1 0x0 PUSH11 0x7FFFFFFFFFFFFFFFFFFFFF NOT DUP3 SLT DUP1 ISZERO SWAP1 PUSH2 0x12EC JUMPI POP PUSH11 0x7FFFFFFFFFFFFFFFFFFFFF DUP3 SGT ISZERO JUMPDEST PUSH2 0xBC3 JUMPI PUSH1 0x0 DUP1 REVERT JUMPDEST PUSH2 0x12FD PUSH2 0x4CBC JUMP JUMPDEST PUSH2 0x4DC DUP3 TIMESTAMP PUSH2 0x204C JUMP JUMPDEST PUSH2 0x130F PUSH2 0x4CDD JUMP JUMPDEST PUSH1 0x0 PUSH2 0x1319 PUSH2 0x210D JUMP JUMPDEST PUSH2 0xFFFF SWAP4 DUP5 AND PUSH1 0x0 SWAP1 DUP2 MSTORE PUSH1 0x20 SWAP2 DUP3 MSTORE PUSH1 0x40 SWAP1 DUP2 SWAP1 KECCAK256 DUP1 SLOAD PUSH5 0xFFFFFFFFFF DUP2 AND DUP7 MSTORE PUSH1 0x1 PUSH1 0x28 SHL DUP2 DIV PUSH1 0x1 PUSH1 0x1 PUSH1 0x58 SHL SUB SWAP1 DUP2 AND SWAP5 DUP8 ADD SWAP5 SWAP1 SWAP5 MSTORE PUSH1 0x1 DUP3 ADD SLOAD DUP5 AND SWAP3 DUP7 ADD SWAP3 SWAP1 SWAP3 MSTORE PUSH1 0x1 PUSH1 0xD8 SHL DUP3 DIV PUSH4 0xFFFFFFFF AND PUSH1 0x60 DUP7 ADD MSTORE PUSH1 0x1 PUSH1 0x80 SHL SWAP1 SWAP2 DIV SWAP1 SWAP2 AND PUSH1 0x80 DUP5 ADD MSTORE PUSH1 0x2 ADD SLOAD PUSH1 0x1 PUSH1 0x1 PUSH1 0x50 SHL SUB DUP1 DUP3 AND PUSH1 0xA0 DUP6 ADD MSTORE PUSH1 0x1 PUSH1 0x50 SHL DUP3 DIV DUP2 AND PUSH1 0xC0 DUP6 ADD MSTORE PUSH1 0x1 PUSH1 0xA0 SHL DUP3 DIV AND PUSH1 0xE0 DUP5 ADD MSTORE PUSH1 0x1 PUSH1 0xF0 SHL SWAP1 DIV PUSH1 0xFF AND PUSH2 0x12C MUL SWAP1 SWAP3 AND PUSH2 0x100 DUP3 ADD MSTORE SWAP2 SWAP1 POP JUMP JUMPDEST PUSH1 0x0 DUP4 PUSH2 0x13DE JUMPI POP PUSH1 0x0 PUSH2 0x344 JUMP JUMPDEST PUSH1 0x0 DUP1 DUP6 SGT PUSH2 0x13F7 JUMPI PUSH2 0x13F2 DUP7 DUP6 DUP6 PUSH2 0x211A JUMP JUMPDEST PUSH2 0x1402 JUMP JUMPDEST PUSH2 0x1402 DUP7 DUP6 DUP6 PUSH2 0x2156 JUMP JUMPDEST SWAP1 POP PUSH4 0x3B9ACA00 DUP2 SGT ISZERO PUSH2 0x1415 JUMPI PUSH1 0x0 DUP1 REVERT JUMPDEST PUSH1 0x0 PUSH2 0x1421 DUP7 DUP4 PUSH2 0x2197 JUMP JUMPDEST SWAP1 POP PUSH1 0x0 DUP7 SLT PUSH2 0x1431 JUMPI DUP1 PUSH2 0x8A3 JUMP JUMPDEST PUSH2 0x8A3 DUP2 PUSH1 0x0 NOT PUSH2 0x1983 JUMP JUMPDEST PUSH1 0x0 DUP1 PUSH1 0x0 PUSH2 0x1451 DUP7 PUSH1 0x20 ADD MLOAD DUP7 DUP7 PUSH2 0xC8E JUMP JUMPDEST SWAP2 POP SWAP2 POP PUSH1 0x0 PUSH2 0x1460 DUP8 PUSH2 0x21B0 JUMP JUMPDEST SWAP1 POP DUP2 PUSH2 0x1480 JUMPI DUP7 MLOAD PUSH2 0x1479 SWAP1 PUSH2 0xFFFF AND DUP8 DUP4 DUP9 PUSH2 0x21C4 JUMP JUMPDEST SWAP4 POP PUSH2 0x151C JUMP JUMPDEST PUSH1 0x0 PUSH2 0x148B DUP7 PUSH2 0x1A0D JUMP JUMPDEST SWAP1 POP PUSH1 0x0 PUSH2 0x14A2 PUSH2 0x149B DUP7 PUSH2 0x1A2E JUMP JUMPDEST DUP4 SWAP1 PUSH2 0x124B JUMP JUMPDEST SWAP1 POP PUSH1 0x0 PUSH2 0x14BA DUP11 PUSH1 0x0 ADD MLOAD PUSH2 0xFFFF AND DUP4 DUP7 DUP12 PUSH2 0x21C4 JUMP JUMPDEST SWAP1 POP PUSH1 0x0 DUP1 DUP8 PUSH1 0x1 EQ ISZERO PUSH2 0x14D8 JUMPI POP POP PUSH1 0x40 DUP1 DUP12 ADD MLOAD ADD MLOAD DUP9 PUSH2 0x1507 JUMP JUMPDEST PUSH2 0x14EE PUSH2 0x14E7 PUSH1 0x1 DUP11 SUB PUSH2 0x1A2E JUMP JUMPDEST DUP7 SWAP1 PUSH2 0x124B JUMP JUMPDEST SWAP1 POP PUSH2 0x1504 DUP13 PUSH1 0x0 ADD MLOAD PUSH2 0xFFFF AND DUP3 DUP9 DUP14 PUSH2 0x21C4 JUMP JUMPDEST SWAP2 POP JUMPDEST PUSH2 0x1514 DUP2 DUP6 DUP5 DUP7 DUP16 PUSH2 0x2263 JUMP JUMPDEST SWAP9 POP POP POP POP POP POP JUMPDEST POP POP POP SWAP4 SWAP3 POP POP POP JUMP JUMPDEST PUSH1 0x0 DUP5 PUSH2 0x1535 JUMPI POP PUSH1 0x0 PUSH2 0x344 JUMP JUMPDEST PUSH1 0x0 PUSH2 0x1541 DUP6 DUP6 PUSH2 0x2037 JUMP JUMPDEST SWAP1 POP PUSH1 0x0 PUSH2 0x154F DUP3 DUP6 PUSH2 0x22C1 JUMP JUMPDEST SWAP1 POP PUSH4 0x3B9ACA00 DUP2 SGT ISZERO PUSH2 0x1562 JUMPI PUSH1 0x0 DUP1 REVERT JUMPDEST PUSH1 0x0 PUSH2 0x156E DUP9 DUP4 PUSH2 0x2197 JUMP JUMPDEST SWAP1 POP PUSH1 0x0 DUP9 SLT PUSH2 0x157E JUMPI DUP1 PUSH2 0x1020 JUMP JUMPDEST PUSH2 0x1020 DUP2 PUSH1 0x0 NOT PUSH2 0x1983 JUMP JUMPDEST DUP3 PUSH1 0x1 GT ISZERO DUP1 ISZERO PUSH2 0x159F JUMPI POP DUP5 PUSH1 0x20 ADD MLOAD DUP4 GT ISZERO JUMPDEST PUSH2 0x15BB JUMPI PUSH1 0x40 MLOAD PUSH3 0x461BCD PUSH1 0xE5 SHL DUP2 MSTORE PUSH1 0x4 ADD PUSH2 0x9A8 SWAP1 PUSH2 0x5278 JUMP JUMPDEST PUSH1 0x0 PUSH2 0x15D8 PUSH2 0x15C9 DUP6 PUSH2 0x1A2E JUMP JUMPDEST PUSH2 0x15D2 DUP5 PUSH2 0x1A0D JUMP JUMPDEST SWAP1 PUSH2 0x124B JUMP JUMPDEST SWAP1 POP PUSH2 0x15FD DUP7 PUSH1 0x0 ADD MLOAD PUSH2 0xFFFF AND DUP3 DUP5 DUP7 PUSH2 0x15F2 DUP12 PUSH2 0x21B0 JUMP JUMPDEST DUP11 SWAP5 SWAP4 SWAP3 SWAP2 SWAP1 PUSH2 0x232E JUMP JUMPDEST POP POP POP POP POP POP JUMP JUMPDEST PUSH1 0x0 DUP1 PUSH1 0x0 DUP1 DUP5 GT PUSH2 0x1616 JUMPI PUSH1 0x0 DUP1 REVERT JUMPDEST DUP6 DUP9 PUSH1 0x40 ADD MLOAD SGT PUSH2 0x162F JUMPI POP PUSH1 0x0 SWAP2 POP DUP2 SWAP1 POP DUP1 PUSH2 0x173A JUMP JUMPDEST PUSH1 0x0 PUSH2 0x163F DUP9 PUSH1 0x0 ADD MLOAD DUP7 PUSH2 0x1D14 JUMP JUMPDEST SWAP1 POP PUSH1 0x0 PUSH2 0x165E DUP11 PUSH1 0x60 ADD MLOAD DUP11 PUSH1 0x40 ADD MLOAD PUSH2 0xB64 SWAP1 SWAP2 SWAP1 PUSH4 0xFFFFFFFF AND JUMP JUMPDEST SWAP1 POP PUSH1 0x0 DUP1 PUSH1 0x0 PUSH2 0x1673 DUP6 DUP15 DUP15 DUP8 DUP16 DUP16 PUSH2 0x2358 JUMP JUMPDEST SWAP9 POP SWAP2 SWAP5 POP SWAP3 POP SWAP1 POP DUP3 PUSH2 0x1696 JUMPI PUSH1 0x0 DUP1 PUSH1 0x0 SWAP8 POP SWAP8 POP SWAP8 POP POP POP POP POP POP PUSH2 0x173A JUMP JUMPDEST PUSH1 0x40 DUP14 ADD MLOAD PUSH2 0x16A5 SWAP1 DUP13 PUSH2 0x2432 JUMP JUMPDEST PUSH1 0x40 DUP15 ADD MSTORE PUSH2 0x16B4 DUP5 DUP4 PUSH2 0x244E JUMP JUMPDEST SWAP4 POP PUSH1 0x0 PUSH2 0x16C8 PUSH1 0x0 DUP16 PUSH1 0x40 ADD MLOAD DUP8 PUSH2 0x2464 JUMP JUMPDEST SWAP1 POP PUSH4 0x3B9ACA00 DUP2 GT ISZERO PUSH2 0x16EC JUMPI PUSH1 0x0 DUP1 PUSH1 0x0 SWAP9 POP SWAP9 POP SWAP9 POP POP POP POP POP POP POP PUSH2 0x173A JUMP JUMPDEST PUSH1 0x0 PUSH2 0x16F8 DUP8 DUP4 PUSH2 0x249B JUMP JUMPDEST SWAP1 POP DUP1 PUSH2 0x1716 JUMPI PUSH1 0x0 DUP1 PUSH1 0x0 SWAP10 POP SWAP10 POP SWAP10 POP POP POP POP POP POP POP POP PUSH2 0x173A JUMP JUMPDEST PUSH1 0xA0 DUP16 ADD MSTORE POP PUSH1 0x40 DUP13 ADD MLOAD PUSH2 0x172F SWAP1 DUP15 SWAP1 DUP6 DUP6 DUP6 PUSH2 0x254E JUMP JUMPDEST SWAP1 SWAP9 POP SWAP7 POP POP POP POP POP POP JUMPDEST SWAP6 POP SWAP6 POP SWAP6 SWAP3 POP POP POP JUMP JUMPDEST PUSH1 0x0 DUP1 PUSH2 0x1751 DUP4 PUSH2 0x25A3 JUMP JUMPDEST PUSH1 0x1 PUSH1 0x1 PUSH1 0xA0 SHL SUB AND PUSH4 0xA77C05B8 PUSH1 0x40 MLOAD DUP2 PUSH4 0xFFFFFFFF AND PUSH1 0xE0 SHL DUP2 MSTORE PUSH1 0x4 ADD PUSH1 0x40 DUP1 MLOAD DUP1 DUP4 SUB DUP2 DUP7 DUP1 EXTCODESIZE ISZERO DUP1 ISZERO PUSH2 0x1788 JUMPI PUSH1 0x0 DUP1 REVERT JUMPDEST POP GAS STATICCALL ISZERO DUP1 ISZERO PUSH2 0x179C JUMPI RETURNDATASIZE PUSH1 0x0 DUP1 RETURNDATACOPY RETURNDATASIZE PUSH1 0x0 REVERT JUMPDEST POP POP POP POP PUSH1 0x40 MLOAD RETURNDATASIZE PUSH1 0x1F NOT PUSH1 0x1F DUP3 ADD AND DUP3 ADD DUP1 PUSH1 0x40 MSTORE POP DUP2 ADD SWAP1 PUSH2 0x344 SWAP2 SWAP1 PUSH2 0x5165 JUMP JUMPDEST PUSH2 0x17C8 PUSH2 0x4CDD JUMP JUMPDEST PUSH1 0x0 DUP1 PUSH1 0x0 PUSH2 0x17D8 DUP9 DUP7 DUP10 PUSH2 0x25D3 JUMP JUMPDEST PUSH1 0xC0 DUP12 ADD SWAP3 SWAP1 SWAP3 MSTORE PUSH1 0xE0 DUP11 ADD SWAP3 SWAP1 SWAP3 MSTORE PUSH1 0x20 DUP10 ADD MLOAD SWAP2 SWAP4 POP SWAP2 POP PUSH2 0x17FC SWAP1 DUP4 PUSH2 0x124B JUMP JUMPDEST PUSH1 0x20 DUP9 ADD MSTORE PUSH1 0x80 DUP8 ADD MLOAD PUSH1 0x0 SWAP1 ISZERO PUSH2 0x182A JUMPI PUSH1 0x80 DUP9 ADD MLOAD PUSH2 0x1827 SWAP1 PUSH2 0x1821 DUP10 DUP3 PUSH2 0x2037 JUMP JUMPDEST SWAP1 PUSH2 0x26DE JUMP JUMPDEST SWAP1 POP JUMPDEST PUSH2 0x184A PUSH2 0x183F PUSH8 0xDE0B6B3A7640000 DUP4 PUSH2 0x124B JUMP JUMPDEST PUSH1 0xA0 DUP11 ADD MLOAD SWAP1 PUSH2 0x26FB JUMP JUMPDEST PUSH1 0xA0 DUP10 ADD MSTORE POP POP PUSH1 0x80 DUP7 ADD SWAP5 SWAP1 SWAP5 MSTORE POP POP DUP3 MSTORE SWAP1 SWAP3 SWAP1 SWAP2 POP JUMP JUMPDEST PUSH1 0x0 DUP3 PUSH2 0x1873 JUMPI POP PUSH1 0x0 PUSH2 0x4DC JUMP JUMPDEST DUP3 DUP3 MUL DUP3 DUP5 DUP3 DUP2 PUSH2 0x1880 JUMPI INVALID JUMPDEST DIV EQ PUSH2 0x5A5 JUMPI PUSH1 0x0 DUP1 REVERT JUMPDEST PUSH2 0x1893 PUSH2 0x4CBC JUMP JUMPDEST PUSH1 0x0 PUSH2 0x189F DUP6 DUP6 PUSH2 0x2718 JUMP JUMPDEST SWAP1 SWAP3 POP SWAP1 POP DUP1 PUSH2 0x18B7 JUMPI PUSH2 0x18B3 DUP6 DUP5 PUSH2 0xA4F JUMP JUMPDEST POP SWAP2 POP JUMPDEST POP SWAP4 SWAP3 POP POP POP JUMP JUMPDEST PUSH1 0x0 DUP1 PUSH2 0x18CC DUP5 DUP5 PUSH2 0xDB6 JUMP JUMPDEST SWAP2 POP PUSH2 0x18D8 DUP5 DUP4 PUSH2 0x27AB JUMP JUMPDEST SWAP1 POP PUSH1 0x0 DUP3 SLT ISZERO PUSH2 0xD15 JUMPI PUSH2 0x1923 PUSH1 0x1 PUSH2 0x191D DUP8 PUSH1 0x0 ADD MLOAD PUSH2 0x511 DUP10 PUSH1 0x20 ADD MLOAD PUSH2 0x1917 DUP11 PUSH1 0x20 ADD MLOAD PUSH2 0x511 DUP13 PUSH1 0x0 ADD MLOAD DUP12 PUSH2 0xED9 SWAP1 SWAP2 SWAP1 PUSH4 0xFFFFFFFF AND JUMP JUMPDEST SWAP1 PUSH2 0xED9 JUMP JUMPDEST SWAP1 PUSH2 0x1CA2 JUMP JUMPDEST SWAP2 POP SWAP4 POP SWAP4 SWAP2 POP POP JUMP JUMPDEST PUSH1 0x0 DUP1 PUSH2 0x1939 DUP5 PUSH2 0x1C08 JUMP JUMPDEST SWAP1 POP DUP3 DUP2 GT PUSH2 0x1949 JUMPI PUSH1 0x1 DUP2 SUB SWAP3 POP JUMPDEST POP PUSH1 0x0 PUSH2 0x1958 DUP5 DUP5 PUSH1 0x1 PUSH2 0x27E4 JUMP JUMPDEST POP SWAP1 POP PUSH1 0x0 PUSH2 0x1967 DUP6 DUP6 PUSH2 0x2947 JUMP JUMPDEST PUSH1 0x60 DUP7 ADD MLOAD SWAP1 SWAP2 POP PUSH2 0x45D SWAP1 PUSH2 0x197D DUP5 DUP5 PUSH2 0x244E JUMP JUMPDEST SWAP1 PUSH2 0x244E JUMP JUMPDEST PUSH1 0x0 DUP2 DUP4 SLT PUSH2 0x1992 JUMPI DUP2 PUSH2 0x5A5 JUMP JUMPDEST POP SWAP1 SWAP2 SWAP1 POP JUMP JUMPDEST PUSH1 0x0 PUSH4 0x5F5E100 DUP4 PUSH1 0x40 ADD MLOAD EQ ISZERO PUSH2 0x19B2 JUMPI POP DUP1 PUSH2 0x4DC JUMP JUMPDEST PUSH2 0x5A5 PUSH4 0x5F5E100 PUSH2 0x511 DUP6 PUSH1 0x40 ADD MLOAD DUP6 PUSH2 0xED9 SWAP1 SWAP2 SWAP1 PUSH4 0xFFFFFFFF AND JUMP JUMPDEST PUSH1 0x0 PUSH4 0x5F5E100 DUP4 PUSH1 0x40 ADD MLOAD SLT ISZERO PUSH2 0x19F9 JUMPI PUSH2 0x19F2 PUSH1 0x1 PUSH2 0x197D DUP6 DUP6 PUSH2 0x1999 JUMP JUMPDEST SWAP1 POP PUSH2 0x4DC JUMP JUMPDEST PUSH2 0x5A5 DUP4 PUSH2 0x1A08 DUP5 PUSH1 0x1 PUSH2 0x244E JUMP JUMPDEST PUSH2 0x1999 JUMP JUMPDEST PUSH1 0x0 PUSH3 0x76A700 DUP3 LT ISZERO PUSH2 0x1A1F JUMPI PUSH1 0x0 DUP1 REVERT JUMPDEST PUSH3 0x76A700 DUP3 JUMPDEST MOD SWAP1 SWAP2 SUB SWAP2 SWAP1 POP JUMP JUMPDEST PUSH1 0x0 DUP2 PUSH1 0x1 EQ ISZERO PUSH2 0x1A43 JUMPI POP PUSH3 0x76A700 PUSH2 0x35D JUMP JUMPDEST DUP2 PUSH1 0x2 EQ ISZERO PUSH2 0x1A56 JUMPI POP PUSH3 0xED4E00 PUSH2 0x35D JUMP JUMPDEST DUP2 PUSH1 0x3 EQ ISZERO PUSH2 0x1A6A JUMPI POP PUSH4 0x1DA9C00 PUSH2 0x35D JUMP JUMPDEST DUP2 PUSH1 0x4 EQ ISZERO PUSH2 0x1A7E JUMPI POP PUSH4 0x3B53800 PUSH2 0x35D JUMP JUMPDEST DUP2 PUSH1 0x5 EQ ISZERO PUSH2 0x1A92 JUMPI POP PUSH4 0x9450C00 PUSH2 0x35D JUMP JUMPDEST DUP2 PUSH1 0x6 EQ ISZERO PUSH2 0x1AA6 JUMPI POP PUSH4 0x128A1800 PUSH2 0x35D JUMP JUMPDEST DUP2 PUSH1 0x7 EQ ISZERO PUSH2 0x1ABA JUMPI POP PUSH4 0x25143000 PUSH2 0x35D JUMP JUMPDEST PUSH1 0x40 MLOAD PUSH3 0x461BCD PUSH1 0xE5 SHL DUP2 MSTORE PUSH1 0x4 ADD PUSH2 0x9A8 SWAP1 PUSH2 0x5251 JUMP JUMPDEST PUSH2 0x1ADA PUSH2 0x4D71 JUMP JUMPDEST PUSH1 0x0 PUSH2 0x1AE4 PUSH2 0x29CC JUMP JUMPDEST PUSH1 0x0 DUP6 DUP2 MSTORE PUSH1 0x20 DUP3 DUP2 MSTORE PUSH1 0x40 DUP1 DUP4 KECCAK256 DUP8 ISZERO ISZERO DUP5 MSTORE DUP3 MSTORE SWAP2 DUP3 SWAP1 KECCAK256 DUP3 MLOAD PUSH1 0xA0 DUP2 ADD DUP5 MSTORE DUP2 SLOAD PUSH1 0x1 PUSH1 0x1 PUSH1 0xA0 SHL SUB DUP2 AND DUP3 MSTORE PUSH1 0xFF PUSH1 0x1 PUSH1 0xA0 SHL DUP3 DIV DUP2 AND ISZERO ISZERO SWAP5 DUP4 ADD SWAP5 SWAP1 SWAP5 MSTORE PUSH1 0x1 PUSH1 0xB0 SHL DUP2 DIV DUP5 AND PUSH1 0xA EXP SWAP5 DUP3 ADD SWAP5 SWAP1 SWAP5 MSTORE SWAP4 SWAP5 POP SWAP3 SWAP2 PUSH1 0x60 DUP4 ADD SWAP2 PUSH1 0x1 PUSH1 0xA8 SHL SWAP1 SWAP2 DIV AND PUSH1 0x5 DUP2 GT ISZERO PUSH2 0x1B59 JUMPI INVALID JUMPDEST DUP2 MSTORE PUSH1 0x0 PUSH1 0x20 SWAP1 SWAP2 ADD MSTORE SWAP6 SWAP5 POP POP POP POP POP JUMP JUMPDEST PUSH2 0x1B79 DUP2 PUSH2 0xFFFF AND PUSH2 0x1110 JUMP JUMPDEST PUSH1 0x1 PUSH1 0x1 PUSH1 0xA0 SHL SUB AND PUSH1 0xC0 DUP4 ADD DUP2 SWAP1 MSTORE PUSH1 0x0 SWAP1 DUP2 SWAP1 DUP2 SWAP1 PUSH2 0x1B99 SWAP1 PUSH2 0x1F8D JUMP JUMPDEST SWAP5 POP SWAP5 POP SWAP5 POP POP POP PUSH1 0x0 PUSH2 0x1BB0 DUP7 PUSH1 0xC0 ADD MLOAD PUSH2 0x1F2C JUMP JUMPDEST POP POP PUSH1 0x80 DUP8 ADD DUP6 SWAP1 MSTORE PUSH1 0x40 DUP8 ADD DUP2 SWAP1 MSTORE PUSH1 0x1 PUSH1 0x1 PUSH1 0xD0 SHL SUB NOT DUP4 AND PUSH1 0xA0 DUP9 ADD MSTORE PUSH1 0xC0 DUP8 ADD MLOAD SWAP1 SWAP2 POP PUSH2 0x1BE4 SWAP1 DUP5 PUSH1 0x0 PUSH2 0x29D9 JUMP JUMPDEST PUSH1 0x20 DUP8 ADD MSTORE PUSH1 0xC0 DUP7 ADD MLOAD PUSH2 0x1BF8 SWAP1 DUP7 PUSH2 0x2A6C JUMP JUMPDEST PUSH1 0x60 SWAP1 SWAP7 ADD SWAP6 SWAP1 SWAP6 MSTORE POP POP POP POP POP JUMP JUMPDEST PUSH1 0x0 DUP2 PUSH1 0x80 ADD MLOAD PUSH1 0x0 EQ ISZERO PUSH2 0x1C1F JUMPI POP PUSH1 0x0 PUSH2 0x35D JUMP JUMPDEST PUSH1 0x80 DUP3 ADD MLOAD PUSH3 0x76A700 SWAP1 PUSH2 0x1C32 SWAP1 PUSH2 0x1A0D JUMP JUMPDEST ADD SWAP3 SWAP2 POP POP JUMP JUMPDEST PUSH1 0x0 DUP1 PUSH1 0x0 PUSH2 0x1C4A DUP6 DUP6 PUSH1 0x1 PUSH2 0x27E4 JUMP JUMPDEST POP SWAP1 POP PUSH1 0x0 PUSH2 0x1C5B DUP7 DUP7 PUSH1 0x0 PUSH2 0x27E4 JUMP JUMPDEST POP SWAP1 POP PUSH1 0x0 PUSH2 0x1C6A DUP8 DUP8 PUSH2 0x2947 JUMP JUMPDEST PUSH1 0x60 DUP9 ADD MLOAD SWAP1 SWAP2 POP PUSH2 0x1C80 SWAP1 PUSH2 0x197D DUP6 DUP5 PUSH2 0x244E JUMP JUMPDEST PUSH1 0x60 DUP9 ADD MLOAD SWAP1 SWAP6 POP PUSH2 0x1C96 SWAP1 PUSH2 0x197D DUP5 DUP5 PUSH2 0x244E JUMP JUMPDEST SWAP4 POP POP POP POP SWAP3 POP SWAP3 SWAP1 POP JUMP JUMPDEST DUP1 DUP3 SUB DUP3 DUP2 SGT ISZERO PUSH1 0x0 DUP4 SLT ISZERO EQ PUSH2 0x4DC JUMPI PUSH1 0x0 DUP1 REVERT JUMPDEST PUSH1 0x0 PUSH2 0x5A5 PUSH2 0x1CCB DUP5 PUSH4 0x3B9ACA00 PUSH2 0xED9 JUMP JUMPDEST DUP4 PUSH2 0xF27 JUMP JUMPDEST PUSH2 0x1CD9 PUSH2 0x4DA0 JUMP JUMPDEST PUSH1 0x0 PUSH2 0x1CE8 DUP5 PUSH2 0xFFFF AND PUSH2 0x2AC5 JUMP JUMPDEST PUSH1 0x40 DUP1 MLOAD PUSH1 0x80 DUP2 ADD DUP3 MSTORE PUSH2 0xFFFF SWAP7 SWAP1 SWAP7 AND DUP7 MSTORE PUSH1 0xFF DUP3 AND PUSH1 0x20 DUP8 ADD MSTORE DUP6 ADD SWAP4 SWAP1 SWAP4 MSTORE POP POP PUSH1 0x60 DUP3 ADD MSTORE SWAP1 JUMP JUMPDEST PUSH2 0x1D1C PUSH2 0x4E01 JUMP JUMPDEST PUSH2 0x5A5 DUP4 DUP4 PUSH2 0x1D29 PUSH2 0x2AE2 JUMP JUMPDEST PUSH2 0x2AEF JUMP JUMPDEST PUSH1 0x0 DUP4 PUSH2 0x1D3A JUMPI PUSH1 0x0 DUP1 REVERT JUMPDEST DUP3 DUP5 SGT ISZERO PUSH2 0x1D5A JUMPI PUSH1 0x40 MLOAD PUSH3 0x461BCD PUSH1 0xE5 SHL DUP2 MSTORE PUSH1 0x4 ADD PUSH2 0x9A8 SWAP1 PUSH2 0x5329 JUMP JUMPDEST PUSH1 0x0 DUP1 PUSH1 0x0 PUSH2 0x1D7E DUP10 DUP10 DUP9 DUP9 PUSH1 0x0 DUP13 SGT PUSH2 0x1D75 JUMPI PUSH1 0x1 PUSH2 0x1D79 JUMP JUMPDEST PUSH1 0x0 NOT JUMPDEST PUSH2 0x2B46 JUMP JUMPDEST SWAP1 POP PUSH1 0x0 DUP8 SLT ISZERO PUSH2 0x1DA8 JUMPI PUSH2 0x1D92 DUP8 PUSH2 0xBC7 JUMP JUMPDEST SWAP3 POP PUSH2 0x1DA1 PUSH2 0x3DB DUP9 DUP4 PUSH2 0x2197 JUMP JUMPDEST SWAP2 POP PUSH2 0x1DD5 JUMP JUMPDEST PUSH2 0x1DB5 PUSH2 0x3DB DUP9 DUP4 PUSH2 0x2197 JUMP JUMPDEST SWAP3 POP PUSH2 0x1DD2 PUSH2 0x3DB PUSH2 0x1DCB DUP12 PUSH1 0x80 ADD MLOAD DUP9 PUSH2 0x2B77 JUMP JUMPDEST DUP10 SWAP1 PUSH2 0x2197 JUMP JUMPDEST SWAP2 POP JUMPDEST POP PUSH1 0x0 PUSH2 0x1DE6 DUP10 DUP10 DUP9 DUP7 DUP10 DUP13 PUSH2 0x2BDD JUMP JUMPDEST SWAP1 POP PUSH1 0x0 JUMPDEST PUSH1 0xFA DUP2 PUSH1 0xFF AND LT ISZERO PUSH2 0x1E51 JUMPI DUP4 DUP4 SUB DUP1 PUSH2 0x1E0C JUMPI DUP4 SWAP6 POP POP POP POP POP POP PUSH2 0x45D JUMP JUMPDEST PUSH1 0x0 PUSH2 0x1E1C DUP13 DUP13 DUP12 DUP9 DUP13 DUP16 PUSH2 0x2BDD JUMP JUMPDEST SWAP1 POP PUSH1 0x0 PUSH2 0x1E41 PUSH2 0x1E3A PUSH2 0x1E30 DUP5 DUP9 PUSH2 0x1CA2 JUMP JUMPDEST PUSH2 0x511 DUP6 DUP8 PUSH2 0xED9 JUMP JUMPDEST DUP8 SWAP1 PUSH2 0x1CA2 JUMP JUMPDEST SWAP6 SWAP7 POP SWAP1 SWAP4 POP POP POP PUSH1 0x1 ADD PUSH2 0x1DEB JUMP JUMPDEST POP PUSH1 0x40 MLOAD PUSH3 0x461BCD PUSH1 0xE5 SHL DUP2 MSTORE PUSH1 0x4 ADD PUSH2 0x9A8 SWAP1 PUSH2 0x5229 JUMP JUMPDEST PUSH1 0x0 DUP1 PUSH2 0x4DC PUSH1 0x1 PUSH2 0x2C03 JUMP JUMPDEST DUP2 PUSH2 0xFFFF AND PUSH1 0x0 LT DUP1 ISZERO PUSH2 0x1E91 JUMPI POP PUSH2 0x3FFF PUSH2 0xFFFF DUP4 AND GT ISZERO JUMPDEST PUSH2 0x1E9A JUMPI PUSH1 0x0 DUP1 REVERT JUMPDEST PUSH2 0xFFFF DUP3 AND DUP1 DUP6 MSTORE PUSH2 0x1EAD SWAP1 DUP3 SWAP1 PUSH2 0x2C15 JUMP JUMPDEST ISZERO PUSH2 0x1EDC JUMPI PUSH2 0x1EC2 DUP4 DUP4 DUP7 PUSH2 0x120 ADD MLOAD PUSH2 0x2C9F JUMP JUMPDEST PUSH2 0x100 DUP9 ADD MSTORE PUSH1 0xE0 DUP8 ADD MSTORE PUSH1 0x40 DUP7 ADD MSTORE PUSH1 0x20 DUP6 ADD MSTORE PUSH2 0x1EFA JUMP JUMPDEST PUSH1 0x0 PUSH1 0x20 DUP6 ADD DUP2 SWAP1 MSTORE PUSH1 0x40 DUP6 ADD DUP2 SWAP1 MSTORE PUSH1 0xE0 DUP6 ADD DUP2 SWAP1 MSTORE PUSH2 0x100 DUP6 ADD MSTORE JUMPDEST POP POP PUSH1 0x0 PUSH1 0x60 DUP4 ADD DUP2 SWAP1 MSTORE PUSH1 0x80 DUP4 ADD DUP2 SWAP1 MSTORE PUSH1 0xA0 DUP4 ADD DUP2 SWAP1 MSTORE PUSH1 0xC0 SWAP1 SWAP3 ADD SWAP2 SWAP1 SWAP2 MSTORE POP JUMP JUMPDEST PUSH1 0x0 DUP1 PUSH2 0x4DC PUSH1 0x3 PUSH2 0x2C03 JUMP JUMPDEST PUSH1 0x0 DUP1 PUSH1 0x0 DUP1 PUSH2 0x1F3A PUSH2 0x2D59 JUMP JUMPDEST PUSH1 0x1 PUSH1 0x1 PUSH1 0xA0 SHL SUB SWAP6 SWAP1 SWAP6 AND PUSH1 0x0 SWAP1 DUP2 MSTORE PUSH1 0x20 SWAP6 SWAP1 SWAP6 MSTORE POP POP PUSH1 0x40 SWAP1 SWAP3 KECCAK256 SLOAD PUSH12 0xFFFFFFFFFFFFFFFFFFFFFFFF DUP2 AND SWAP4 PUSH1 0x1 PUSH1 0x60 SHL DUP3 DIV PUSH1 0x1 PUSH1 0x1 PUSH1 0x80 SHL SUB AND SWAP4 POP PUSH1 0x1 PUSH1 0xE0 SHL SWAP1 SWAP2 DIV PUSH4 0xFFFFFFFF AND SWAP2 POP JUMP JUMPDEST PUSH1 0x0 DUP1 PUSH1 0x0 DUP1 PUSH1 0x0 DUP1 PUSH2 0x1F9E PUSH2 0x2D66 JUMP JUMPDEST PUSH1 0x1 PUSH1 0x1 PUSH1 0xA0 SHL SUB SWAP1 SWAP8 AND PUSH1 0x0 SWAP1 DUP2 MSTORE PUSH1 0x20 SWAP8 SWAP1 SWAP8 MSTORE POP POP PUSH1 0x40 SWAP1 SWAP5 KECCAK256 SLOAD PUSH2 0xFFFF DUP2 AND SWAP6 PUSH4 0xFFFFFFFF PUSH3 0x10000 DUP4 DIV DUP2 AND SWAP7 POP PUSH1 0x1 PUSH1 0x30 SHL DUP4 DIV AND SWAP5 POP PUSH1 0xFF PUSH1 0x1 PUSH1 0x50 SHL DUP4 DIV AND SWAP4 POP PUSH1 0x1 PUSH1 0x58 SHL SWAP1 SWAP2 DIV PUSH1 0xD0 SHL SWAP2 POP JUMP JUMPDEST PUSH1 0x0 PUSH2 0x344 DUP3 PUSH2 0x120E PUSH4 0x1DA9C00 DUP2 DUP9 PUSH2 0x1208 DUP10 PUSH8 0xDE0B6B3A7640000 PUSH2 0x1864 JUMP JUMPDEST PUSH1 0x0 DUP1 DUP3 GT PUSH2 0x2026 JUMPI PUSH1 0x0 DUP1 REVERT JUMPDEST DUP2 DUP4 DUP2 PUSH2 0x202F JUMPI INVALID JUMPDEST DIV SWAP4 SWAP3 POP POP POP JUMP JUMPDEST PUSH1 0x0 DUP3 DUP3 GT ISZERO PUSH2 0x2046 JUMPI PUSH1 0x0 DUP1 REVERT JUMPDEST POP SWAP1 SUB SWAP1 JUMP JUMPDEST PUSH2 0x2054 PUSH2 0x4CBC JUMP JUMPDEST PUSH1 0x0 PUSH2 0x205F DUP5 PUSH2 0x1307 JUMP JUMPDEST SWAP1 POP DUP3 DUP2 PUSH1 0x0 ADD MLOAD LT ISZERO PUSH2 0x209E JUMPI PUSH1 0x0 DUP1 PUSH2 0x2079 DUP7 PUSH2 0x2D73 JUMP JUMPDEST SWAP1 POP PUSH2 0x2087 DUP7 DUP5 DUP4 DUP9 PUSH2 0x17C0 JUMP JUMPDEST SWAP1 SWAP4 POP SWAP2 POP PUSH2 0x2097 DUP7 DUP4 DUP6 PUSH2 0x2DCC JUMP JUMPDEST POP POP PUSH2 0x20AB JUMP JUMPDEST DUP1 MLOAD DUP4 EQ PUSH2 0x20AB JUMPI PUSH1 0x0 DUP1 REVERT JUMPDEST PUSH1 0x40 MLOAD DUP1 PUSH1 0x60 ADD PUSH1 0x40 MSTORE DUP1 PUSH2 0x20D4 PUSH2 0x544 DUP5 PUSH1 0xA0 ADD MLOAD DUP6 PUSH1 0xC0 ADD MLOAD PUSH2 0x1864 SWAP1 SWAP2 SWAP1 PUSH4 0xFFFFFFFF AND JUMP JUMPDEST DUP2 MSTORE PUSH1 0x20 ADD PUSH2 0x20F7 PUSH2 0x544 DUP5 PUSH1 0xA0 ADD MLOAD DUP6 PUSH1 0xE0 ADD MLOAD PUSH2 0x1864 SWAP1 SWAP2 SWAP1 PUSH4 0xFFFFFFFF AND JUMP JUMPDEST DUP2 MSTORE PUSH1 0x20 ADD DUP3 PUSH1 0x60 ADD MLOAD DUP2 MSTORE POP SWAP2 POP POP SWAP3 SWAP2 POP POP JUMP JUMPDEST PUSH1 0x0 DUP1 PUSH2 0x4DC PUSH1 0x1D PUSH2 0x2C03 JUMP JUMPDEST PUSH1 0x0 DUP1 PUSH2 0x2128 DUP6 DUP6 DUP6 PUSH2 0x3000 JUMP JUMPDEST SWAP1 POP DUP1 ISZERO PUSH2 0x2148 JUMPI PUSH2 0x2143 PUSH2 0x213D DUP6 DUP6 PUSH2 0x2037 JUMP JUMPDEST DUP3 PUSH2 0x22C1 JUMP JUMPDEST PUSH2 0x45D JUMP JUMPDEST PUSH4 0x3B9ACA00 SWAP6 SWAP5 POP POP POP POP POP JUMP JUMPDEST PUSH1 0x0 DUP1 PUSH2 0x2164 DUP6 DUP6 DUP6 PUSH2 0x3050 JUMP JUMPDEST SWAP1 POP PUSH2 0x2173 PUSH2 0x213D DUP6 DUP6 PUSH2 0x2037 JUMP JUMPDEST SWAP2 POP PUSH1 0x0 PUSH2 0x2180 DUP7 PUSH2 0x308A JUMP JUMPDEST SWAP1 POP DUP3 DUP2 SLT ISZERO PUSH2 0x218E JUMPI DUP1 SWAP3 POP JUMPDEST POP POP SWAP4 SWAP3 POP POP POP JUMP JUMPDEST PUSH1 0x0 PUSH2 0x5A5 PUSH2 0x21A6 DUP5 DUP5 PUSH2 0xED9 JUMP JUMPDEST PUSH4 0x3B9ACA00 PUSH2 0xF27 JUMP JUMPDEST PUSH1 0x60 ADD MLOAD PUSH2 0x12C PUSH1 0x8 SWAP2 SWAP1 SWAP2 SHR PUSH1 0xFF AND MUL SWAP1 JUMP JUMPDEST PUSH1 0x0 DUP1 PUSH2 0x21CF PUSH2 0x30A5 JUMP JUMPDEST SWAP1 POP PUSH1 0x0 PUSH3 0x76A700 PUSH2 0x21E0 DUP6 PUSH2 0x1A0D JUMP JUMPDEST PUSH1 0x0 DUP10 DUP2 MSTORE PUSH1 0x20 DUP6 DUP2 MSTORE PUSH1 0x40 DUP1 DUP4 KECCAK256 DUP12 DUP5 MSTORE DUP3 MSTORE DUP1 DUP4 KECCAK256 SWAP5 SWAP1 SWAP4 ADD DUP1 DUP4 MSTORE SWAP4 SWAP1 MSTORE KECCAK256 DUP1 SLOAD SWAP2 SWAP3 POP SWAP1 PUSH4 0xFFFFFFFF PUSH1 0x1 PUSH1 0xA0 SHL DUP3 DIV DUP2 AND SWAP2 PUSH1 0x1 PUSH1 0xC0 SHL DUP2 DIV DUP3 AND SWAP2 PUSH1 0x1 PUSH1 0xE0 SHL SWAP1 SWAP2 DIV AND DUP2 PUSH2 0x2247 JUMPI PUSH1 0x40 MLOAD PUSH3 0x461BCD PUSH1 0xE5 SHL DUP2 MSTORE PUSH1 0x4 ADD PUSH2 0x9A8 SWAP1 PUSH2 0x51CC JUMP JUMPDEST PUSH2 0x2254 DUP2 DUP5 DUP5 DUP13 DUP13 PUSH2 0x30B2 JUMP JUMPDEST SWAP12 SWAP11 POP POP POP POP POP POP POP POP POP POP POP JUMP JUMPDEST PUSH1 0x0 DUP2 DUP7 LT PUSH2 0x2271 JUMPI PUSH1 0x0 DUP1 REVERT JUMPDEST DUP5 DUP3 LT PUSH2 0x227D JUMPI PUSH1 0x0 DUP1 REVERT JUMPDEST DUP4 DUP4 LT PUSH2 0x22A3 JUMPI PUSH2 0x229C DUP5 PUSH2 0x15D2 DUP9 DUP9 SUB PUSH2 0x120E DUP4 DUP9 SUB DUP12 DUP9 SUB PUSH2 0x1864 JUMP JUMPDEST SWAP1 POP PUSH2 0x45D JUMP JUMPDEST PUSH2 0x229C PUSH2 0x22BA DUP8 DUP8 SUB PUSH2 0x120E DUP7 DUP9 SUB DUP11 DUP8 SUB PUSH2 0x1864 JUMP JUMPDEST DUP6 SWAP1 PUSH2 0x2037 JUMP JUMPDEST PUSH1 0x0 DUP1 PUSH2 0x22DE PUSH2 0x22D9 PUSH4 0x1DA9C00 PUSH2 0x120E DUP7 DUP9 PUSH2 0x1864 JUMP JUMPDEST PUSH2 0x313A JUMP JUMPDEST SWAP1 POP PUSH2 0x22F0 DUP2 PUSH3 0x1DCD65 PUSH1 0x49 SHL PUSH2 0x3158 JUMP JUMPDEST SWAP1 POP PUSH2 0x2303 PUSH2 0x22FE DUP3 PUSH2 0x31AB JUMP JUMPDEST PUSH2 0x31CD JUMP JUMPDEST SWAP1 POP PUSH2 0x2315 DUP2 PUSH3 0x1DCD65 PUSH1 0x49 SHL PUSH2 0x3222 JUMP JUMPDEST SWAP1 POP PUSH1 0x0 PUSH2 0x2322 DUP3 PUSH2 0x3258 JUMP JUMPDEST PUSH1 0x7 SIGNEXTEND SWAP6 SWAP5 POP POP POP POP POP JUMP JUMPDEST PUSH1 0x0 PUSH3 0x76A700 PUSH2 0x233D DUP6 PUSH2 0x1A0D JUMP JUMPDEST ADD SWAP1 POP PUSH2 0x234F DUP8 DUP8 DUP8 DUP8 DUP8 DUP8 DUP8 PUSH2 0x3261 JUMP JUMPDEST POP POP POP POP POP POP POP JUMP JUMPDEST PUSH1 0x0 DUP1 PUSH1 0x0 DUP1 PUSH1 0x0 PUSH2 0x236F DUP8 DUP12 PUSH1 0x40 ADD MLOAD DUP11 PUSH2 0x2464 JUMP JUMPDEST SWAP1 POP PUSH4 0x3B9ACA00 DUP2 GT ISZERO PUSH2 0x2391 JUMPI PUSH1 0x0 DUP1 PUSH1 0x0 DUP1 SWAP5 POP SWAP5 POP SWAP5 POP SWAP5 POP POP PUSH2 0x2425 JUMP JUMPDEST PUSH1 0x0 PUSH2 0x239D DUP13 DUP4 PUSH2 0x249B JUMP JUMPDEST SWAP1 POP PUSH1 0x0 PUSH2 0x23B8 PUSH2 0x3DB PUSH2 0x23B1 DUP5 DUP12 PUSH2 0x2B77 JUMP JUMPDEST DUP12 SWAP1 PUSH2 0x1CB8 JUMP JUMPDEST SWAP1 POP PUSH2 0x23C8 DUP14 DUP4 PUSH1 0x0 DUP13 SLT PUSH2 0x3298 JUMP JUMPDEST SWAP4 POP PUSH2 0x23DA PUSH2 0x3DB PUSH2 0x23B1 DUP7 DUP12 PUSH2 0x2B77 JUMP JUMPDEST SWAP7 POP DUP1 DUP8 SGT ISZERO PUSH2 0x23E9 JUMPI PUSH1 0x0 DUP1 REVERT JUMPDEST PUSH1 0x0 PUSH2 0x23F5 DUP3 DUP10 PUSH2 0x1CA2 JUMP JUMPDEST SWAP1 POP PUSH2 0x240F PUSH1 0x64 PUSH2 0x511 PUSH2 0x2408 DUP16 PUSH2 0x3310 JUMP JUMPDEST DUP5 SWAP1 PUSH2 0xED9 JUMP JUMPDEST SWAP6 POP PUSH2 0x241E PUSH2 0x3DB DUP10 DUP9 PUSH2 0x244E JUMP JUMPDEST SWAP7 POP POP POP POP POP JUMPDEST SWAP7 POP SWAP7 POP SWAP7 POP SWAP7 SWAP3 POP POP POP JUMP JUMPDEST PUSH1 0x0 PUSH2 0x243E DUP4 DUP4 PUSH2 0x1CA2 JUMP JUMPDEST SWAP1 POP PUSH1 0x0 DUP2 SLT ISZERO PUSH2 0x4DC JUMPI PUSH1 0x0 DUP1 REVERT JUMPDEST DUP2 DUP2 ADD DUP3 DUP2 SLT ISZERO PUSH1 0x0 DUP4 SLT ISZERO EQ PUSH2 0x4DC JUMPI PUSH1 0x0 DUP1 REVERT JUMPDEST PUSH1 0x0 DUP1 DUP4 SLT ISZERO PUSH2 0x2473 JUMPI PUSH1 0x0 DUP1 REVERT JUMPDEST PUSH1 0x0 DUP3 SLT ISZERO PUSH2 0x2481 JUMPI PUSH1 0x0 DUP1 REVERT JUMPDEST PUSH2 0x344 PUSH2 0x7A9 PUSH2 0x2491 DUP5 DUP7 PUSH2 0x244E JUMP JUMPDEST PUSH2 0xE8B DUP7 DUP9 PUSH2 0x2432 JUMP JUMPDEST PUSH1 0x0 DUP1 DUP4 PUSH1 0x80 ADD MLOAD GT PUSH2 0x24AD JUMPI PUSH1 0x0 DUP1 REVERT JUMPDEST PUSH4 0x3B9ACA00 DUP3 GT ISZERO PUSH2 0x24BE JUMPI PUSH1 0x0 DUP1 REVERT JUMPDEST DUP3 MLOAD DUP3 GT PUSH2 0x24DD JUMPI DUP3 MLOAD PUSH1 0x40 DUP5 ADD MLOAD PUSH2 0x19F2 SWAP2 SWAP1 PUSH2 0x120E SWAP1 DUP6 SWAP1 PUSH2 0x1864 JUMP JUMPDEST DUP3 PUSH1 0x20 ADD MLOAD DUP3 GT PUSH2 0x2515 JUMPI PUSH1 0x40 DUP4 ADD MLOAD DUP4 MLOAD PUSH1 0x20 DUP6 ADD MLOAD PUSH1 0x60 DUP7 ADD MLOAD PUSH2 0x19F2 SWAP4 SWAP3 PUSH2 0x15D2 SWAP3 DUP2 SWAP1 SUB SWAP2 PUSH2 0x120E SWAP2 DUP9 SUB SWAP1 DUP6 SWAP1 SUB PUSH2 0x1864 JUMP JUMPDEST PUSH2 0x5A5 DUP4 PUSH1 0x60 ADD MLOAD PUSH2 0x15D2 DUP6 PUSH1 0x20 ADD MLOAD PUSH4 0x3B9ACA00 SUB PUSH2 0x120E DUP8 PUSH1 0x60 ADD MLOAD DUP9 PUSH1 0x80 ADD MLOAD SUB DUP9 PUSH1 0x20 ADD MLOAD DUP9 SUB PUSH2 0x1864 SWAP1 SWAP2 SWAP1 PUSH4 0xFFFFFFFF AND JUMP JUMPDEST PUSH1 0x0 DUP1 DUP1 PUSH2 0x255C DUP8 DUP7 PUSH2 0xDB6 JUMP JUMPDEST PUSH1 0x60 DUP10 ADD MLOAD SWAP1 SWAP2 POP PUSH2 0x256E SWAP1 DUP3 PUSH2 0x244E JUMP JUMPDEST PUSH1 0x60 DUP10 ADD MSTORE TIMESTAMP PUSH1 0xE0 DUP10 ADD MSTORE PUSH1 0x0 PUSH2 0x2585 DUP9 DUP7 PUSH2 0xDB6 JUMP JUMPDEST SWAP1 POP PUSH1 0x0 PUSH2 0x2593 DUP10 DUP10 PUSH2 0xDB6 JUMP JUMPDEST SWAP11 SWAP2 SWAP10 POP SWAP1 SWAP8 POP POP POP POP POP POP POP POP JUMP JUMPDEST PUSH1 0x0 DUP1 PUSH2 0x25AE PUSH2 0x331D JUMP JUMPDEST PUSH2 0xFFFF SWAP4 SWAP1 SWAP4 AND PUSH1 0x0 SWAP1 DUP2 MSTORE PUSH1 0x20 SWAP4 SWAP1 SWAP4 MSTORE POP POP PUSH1 0x40 SWAP1 KECCAK256 SLOAD PUSH1 0x1 PUSH1 0x1 PUSH1 0xA0 SHL SUB AND SWAP1 JUMP JUMPDEST PUSH1 0x0 DUP1 PUSH1 0x0 DUP1 PUSH1 0x0 DUP1 PUSH2 0x25E6 DUP10 DUP9 PUSH2 0x332A JUMP JUMPDEST DUP10 MLOAD SWAP1 SWAP6 POP SWAP2 SWAP4 POP SWAP2 POP PUSH1 0x0 SWAP1 PUSH2 0x260D SWAP1 PUSH2 0x2602 SWAP1 DUP12 SWAP1 PUSH2 0x2037 JUMP JUMPDEST PUSH4 0x3B9ACA00 SWAP1 PUSH2 0x1864 JUMP JUMPDEST SWAP1 POP PUSH2 0x2647 PUSH2 0x263C PUSH4 0x1DA9C00 PUSH2 0x2624 DUP6 DUP6 PUSH2 0x1864 JUMP JUMPDEST DUP2 PUSH2 0x262B JUMPI INVALID JUMPDEST PUSH8 0xDE0B6B3A7640000 SWAP2 SWAP1 DIV PUSH2 0x124B JUMP JUMPDEST PUSH1 0xE0 DUP11 ADD MLOAD SWAP1 PUSH2 0x26FB JUMP JUMPDEST SWAP7 POP PUSH2 0x2669 PUSH2 0x265E PUSH4 0x1DA9C00 PUSH2 0x2624 DUP8 DUP6 PUSH2 0x1864 JUMP JUMPDEST PUSH1 0xC0 DUP11 ADD MLOAD SWAP1 PUSH2 0x26FB JUMP JUMPDEST SWAP6 POP DUP2 DUP4 EQ ISZERO PUSH2 0x2680 JUMPI POP PUSH1 0x0 SWAP4 POP PUSH2 0x26D5 SWAP2 POP POP JUMP JUMPDEST PUSH1 0x0 PUSH2 0x26A2 PUSH2 0x2697 PUSH4 0x1DA9C00 PUSH2 0x2624 DUP8 DUP7 PUSH2 0x1864 JUMP JUMPDEST PUSH1 0xE0 DUP12 ADD MLOAD SWAP1 PUSH2 0x26FB JUMP JUMPDEST SWAP1 POP PUSH1 0x0 PUSH2 0x26B0 DUP10 DUP4 PUSH2 0x2037 JUMP JUMPDEST SWAP1 POP PUSH2 0x26CD DUP9 PUSH2 0x120E DUP4 DUP14 PUSH1 0x40 ADD MLOAD PUSH2 0x1864 SWAP1 SWAP2 SWAP1 PUSH4 0xFFFFFFFF AND JUMP JUMPDEST SWAP7 POP POP POP POP POP POP JUMPDEST SWAP4 POP SWAP4 POP SWAP4 POP SWAP4 JUMP JUMPDEST PUSH1 0x0 PUSH2 0x5A5 PUSH2 0x26F5 DUP5 PUSH8 0xDE0B6B3A7640000 PUSH2 0x1864 JUMP JUMPDEST DUP4 PUSH2 0x2018 JUMP JUMPDEST PUSH1 0x0 PUSH2 0x5A5 PUSH2 0x270A DUP5 DUP5 PUSH2 0x1864 JUMP JUMPDEST PUSH8 0xDE0B6B3A7640000 PUSH2 0x2018 JUMP JUMPDEST PUSH2 0x2720 PUSH2 0x4CBC JUMP JUMPDEST PUSH1 0x0 DUP1 PUSH2 0x272B PUSH2 0x33C4 JUMP JUMPDEST PUSH2 0xFFFF DUP7 AND PUSH1 0x0 SWAP1 DUP2 MSTORE PUSH1 0x20 DUP3 DUP2 MSTORE PUSH1 0x40 DUP1 DUP4 KECCAK256 DUP9 DUP5 MSTORE SWAP1 SWAP2 MSTORE SWAP1 KECCAK256 DUP1 SLOAD PUSH1 0x1 PUSH1 0xF0 SHL SWAP1 DIV PUSH1 0xFF AND SWAP4 POP SWAP1 SWAP2 POP DUP3 ISZERO PUSH2 0x27A2 JUMPI DUP1 SLOAD PUSH1 0x1 PUSH1 0x1 PUSH1 0x50 SHL SUB PUSH1 0x1 PUSH1 0xA0 SHL DUP3 DIV DUP2 AND SWAP2 PUSH2 0x277D SWAP2 AND DUP3 PUSH2 0x1864 JUMP JUMPDEST DUP6 MSTORE DUP2 SLOAD PUSH2 0x279B SWAP1 PUSH1 0x1 PUSH1 0x50 SHL SWAP1 DIV PUSH1 0x1 PUSH1 0x1 PUSH1 0x50 SHL SUB AND DUP3 PUSH2 0x1864 JUMP JUMPDEST PUSH1 0x20 DUP7 ADD MSTORE POP JUMPDEST POP POP SWAP3 POP SWAP3 SWAP1 POP JUMP JUMPDEST PUSH1 0x0 DUP1 DUP3 SLT ISZERO PUSH2 0x27DE JUMPI PUSH2 0x27D9 PUSH1 0x1 PUSH2 0x191D DUP6 PUSH1 0x20 ADD MLOAD PUSH2 0x511 DUP8 PUSH1 0x0 ADD MLOAD DUP8 PUSH2 0xED9 SWAP1 SWAP2 SWAP1 PUSH4 0xFFFFFFFF AND JUMP JUMPDEST PUSH2 0x5A5 JUMP JUMPDEST POP SWAP2 SWAP1 POP JUMP JUMPDEST PUSH1 0x20 DUP4 ADD MLOAD MLOAD MLOAD PUSH1 0x0 SWAP1 PUSH1 0x60 SWAP1 DUP1 PUSH8 0xFFFFFFFFFFFFFFFF DUP2 GT DUP1 ISZERO PUSH2 0x2808 JUMPI PUSH1 0x0 DUP1 REVERT JUMPDEST POP PUSH1 0x40 MLOAD SWAP1 DUP1 DUP3 MSTORE DUP1 PUSH1 0x20 MUL PUSH1 0x20 ADD DUP3 ADD PUSH1 0x40 MSTORE DUP1 ISZERO PUSH2 0x2832 JUMPI DUP2 PUSH1 0x20 ADD PUSH1 0x20 DUP3 MUL DUP1 CALLDATASIZE DUP4 CALLDATACOPY ADD SWAP1 POP JUMPDEST POP SWAP2 POP PUSH2 0x283D PUSH2 0x4D29 JUMP JUMPDEST PUSH1 0x0 JUMPDEST DUP3 DUP2 LT ISZERO PUSH2 0x293C JUMPI DUP8 MLOAD PUSH2 0x285B SWAP1 DUP4 PUSH1 0x1 DUP1 DUP6 ADD SWAP1 DUP12 PUSH2 0x158A JUMP JUMPDEST PUSH1 0x0 DUP9 PUSH1 0x20 ADD MLOAD PUSH1 0x0 ADD MLOAD DUP3 DUP2 MLOAD DUP2 LT PUSH2 0x2871 JUMPI INVALID JUMPDEST PUSH1 0x20 MUL PUSH1 0x20 ADD ADD MLOAD SWAP1 POP PUSH1 0x0 DUP1 PUSH2 0x2888 DUP4 DUP7 PUSH2 0x33D1 JUMP JUMPDEST SWAP2 POP SWAP2 POP PUSH2 0x28B5 PUSH2 0x28AE DUP13 PUSH1 0xC0 ADD MLOAD DUP14 PUSH1 0x0 ADD MLOAD PUSH1 0x0 ADD MLOAD PUSH2 0xFFFF AND DUP7 PUSH1 0x20 ADD MLOAD PUSH2 0x344C JUMP JUMPDEST DUP3 SWAP1 PUSH2 0x244E JUMP JUMPDEST DUP8 DUP6 DUP2 MLOAD DUP2 LT PUSH2 0x28C1 JUMPI INVALID JUMPDEST PUSH1 0x20 MUL PUSH1 0x20 ADD ADD DUP2 DUP2 MSTORE POP POP PUSH1 0x0 PUSH2 0x291E PUSH2 0x2917 PUSH2 0x290B DUP11 DUP9 DUP2 MLOAD DUP2 LT PUSH2 0x28E4 JUMPI INVALID JUMPDEST PUSH1 0x20 MUL PUSH1 0x20 ADD ADD MLOAD DUP8 PUSH1 0x20 ADD MLOAD DUP16 DUP16 PUSH2 0x2901 JUMPI DUP12 PUSH1 0xA0 ADD MLOAD PUSH2 0x89E JUMP JUMPDEST DUP12 PUSH1 0xC0 ADD MLOAD PUSH2 0x1526 JUMP JUMPDEST DUP15 MLOAD PUSH1 0x40 ADD MLOAD SWAP1 PUSH2 0xDB6 JUMP JUMPDEST DUP5 SWAP1 PUSH2 0x244E JUMP JUMPDEST SWAP1 POP PUSH2 0x292A DUP10 DUP3 PUSH2 0x244E JUMP JUMPDEST SWAP9 POP POP PUSH1 0x1 SWAP1 SWAP4 ADD SWAP3 POP PUSH2 0x2840 SWAP2 POP POP JUMP JUMPDEST POP POP POP SWAP4 POP SWAP4 SWAP2 POP POP JUMP JUMPDEST PUSH1 0x0 DUP1 PUSH2 0x2973 DUP5 PUSH1 0xC0 ADD MLOAD DUP6 PUSH1 0x0 ADD MLOAD PUSH1 0x0 ADD MLOAD PUSH2 0xFFFF AND DUP7 PUSH1 0x80 ADD MLOAD DUP7 DUP9 PUSH1 0x0 ADD MLOAD PUSH1 0x20 ADD MLOAD PUSH2 0x3491 JUMP JUMPDEST SWAP1 POP DUP1 ISZERO PUSH2 0x29C2 JUMPI PUSH1 0x0 PUSH2 0x29A5 DUP6 PUSH1 0xC0 ADD MLOAD DUP7 PUSH1 0x0 ADD MLOAD PUSH1 0x0 ADD MLOAD PUSH2 0xFFFF AND DUP8 PUSH1 0x80 ADD MLOAD DUP8 DUP10 PUSH1 0x0 ADD MLOAD PUSH1 0x0 DUP9 PUSH2 0x353D JUMP JUMPDEST POP DUP6 MLOAD PUSH1 0x40 ADD MLOAD SWAP1 SWAP2 POP PUSH2 0x29B9 SWAP1 DUP3 PUSH2 0xDB6 JUMP JUMPDEST SWAP3 POP POP POP PUSH2 0x4DC JUMP JUMPDEST PUSH1 0x0 SWAP2 POP POP PUSH2 0x4DC JUMP JUMPDEST PUSH1 0x0 DUP1 PUSH2 0x4DC PUSH1 0x7 PUSH2 0x2C03 JUMP JUMPDEST PUSH2 0x29E1 PUSH2 0x4E46 JUMP JUMPDEST PUSH2 0x29E9 PUSH2 0x4E46 JUMP JUMPDEST PUSH1 0xFF DUP5 AND PUSH2 0x29F8 JUMPI SWAP1 POP PUSH2 0x5A5 JUMP JUMPDEST PUSH2 0x2A02 DUP6 DUP6 PUSH2 0x35BB JUMP JUMPDEST DUP2 MSTORE PUSH1 0xFF DUP5 AND PUSH1 0x60 DUP3 ADD MSTORE DUP3 PUSH8 0xFFFFFFFFFFFFFFFF DUP2 GT DUP1 ISZERO PUSH2 0x2A24 JUMPI PUSH1 0x0 DUP1 REVERT JUMPDEST POP PUSH1 0x40 MLOAD SWAP1 DUP1 DUP3 MSTORE DUP1 PUSH1 0x20 MUL PUSH1 0x20 ADD DUP3 ADD PUSH1 0x40 MSTORE DUP1 ISZERO PUSH2 0x2A5E JUMPI DUP2 PUSH1 0x20 ADD JUMPDEST PUSH2 0x2A4B PUSH2 0x4E6E JUMP JUMPDEST DUP2 MSTORE PUSH1 0x20 ADD SWAP1 PUSH1 0x1 SWAP1 SUB SWAP1 DUP2 PUSH2 0x2A43 JUMPI SWAP1 POP JUMPDEST POP PUSH1 0x20 DUP3 ADD MSTORE SWAP5 SWAP4 POP POP POP POP JUMP JUMPDEST PUSH1 0x0 DUP1 PUSH2 0x2A77 PUSH2 0x35C7 JUMP JUMPDEST PUSH1 0x1 PUSH1 0x1 PUSH1 0xA0 SHL SUB DUP6 AND PUSH1 0x0 SWAP1 DUP2 MSTORE PUSH1 0x20 DUP3 DUP2 MSTORE PUSH1 0x40 DUP1 DUP4 KECCAK256 PUSH2 0xFFFF DUP9 AND DUP5 MSTORE SWAP1 SWAP2 MSTORE DUP2 KECCAK256 DUP1 SLOAD PUSH1 0x1 PUSH1 0xA8 SHL SWAP1 DIV PUSH1 0xA SWAP1 DUP2 SIGNEXTEND SWAP1 SIGNEXTEND SWAP5 POP SWAP2 SWAP3 POP DUP4 SLT ISZERO PUSH2 0x2ABD JUMPI PUSH1 0x0 DUP1 REVERT JUMPDEST POP POP SWAP3 SWAP2 POP POP JUMP JUMPDEST PUSH1 0x0 DUP1 PUSH2 0x2AD0 PUSH2 0x35D4 JUMP JUMPDEST PUSH1 0x0 SWAP4 DUP5 MSTORE PUSH1 0x20 MSTORE POP POP PUSH1 0x40 SWAP1 KECCAK256 SLOAD SWAP1 JUMP JUMPDEST PUSH1 0x0 DUP1 PUSH2 0x4DC PUSH1 0x1B PUSH2 0x2C03 JUMP JUMPDEST PUSH2 0x2AF7 PUSH2 0x4E01 JUMP JUMPDEST PUSH1 0x0 PUSH2 0x2B02 DUP5 PUSH2 0x35E1 JUMP JUMPDEST PUSH2 0xFFFF DUP7 AND PUSH1 0x0 SWAP1 DUP2 MSTORE PUSH1 0x20 DUP6 SWAP1 MSTORE PUSH1 0x40 DUP2 KECCAK256 SWAP2 SWAP3 POP SWAP1 PUSH1 0x4 DUP7 LT PUSH2 0x2B28 JUMPI PUSH1 0x1 PUSH2 0x2B2B JUMP JUMPDEST PUSH1 0x0 JUMPDEST PUSH1 0xFF AND PUSH1 0x2 DUP2 LT PUSH2 0x2B38 JUMPI INVALID JUMPDEST ADD SLOAD SWAP1 POP PUSH2 0x8E7 DUP3 DUP3 PUSH2 0x361A JUMP JUMPDEST PUSH1 0x0 DUP1 PUSH2 0x2B5D DUP8 PUSH2 0x2B58 DUP6 DUP10 DUP10 PUSH2 0x2464 JUMP JUMPDEST PUSH2 0x249B JUMP JUMPDEST SWAP1 POP PUSH1 0x0 PUSH2 0x2B6F DUP9 DUP4 PUSH1 0x0 DUP8 SLT PUSH2 0x3298 JUMP JUMPDEST SWAP1 POP PUSH2 0x1020 DUP2 DUP7 JUMPDEST PUSH1 0x0 DUP1 PUSH2 0x2B8F PUSH2 0x22D9 PUSH4 0x1DA9C00 PUSH2 0x120E DUP8 DUP8 PUSH2 0x1864 JUMP JUMPDEST SWAP1 POP PUSH1 0x0 PUSH2 0x2BA3 DUP3 PUSH3 0x1DCD65 PUSH1 0x49 SHL PUSH2 0x3158 JUMP JUMPDEST SWAP1 POP PUSH1 0x0 PUSH2 0x2BB0 DUP3 PUSH2 0x31CD JUMP JUMPDEST SWAP1 POP PUSH1 0x0 PUSH2 0x2BC4 DUP3 PUSH3 0x1DCD65 PUSH1 0x49 SHL PUSH2 0x3222 JUMP JUMPDEST SWAP1 POP PUSH2 0x2BCF DUP2 PUSH2 0x3258 JUMP JUMPDEST PUSH1 0x7 SIGNEXTEND SWAP8 SWAP7 POP POP POP POP POP POP POP JUMP JUMPDEST PUSH1 0x0 DUP1 PUSH2 0x2BED DUP9 DUP9 DUP9 DUP8 DUP10 PUSH2 0x2B46 JUMP JUMPDEST SWAP1 POP PUSH2 0x1020 PUSH2 0x2BFC DUP5 DUP4 PUSH2 0x2197 JUMP JUMPDEST DUP7 SWAP1 PUSH2 0x244E JUMP JUMPDEST PUSH1 0x0 PUSH3 0xF4240 DUP3 PUSH1 0x26 DUP2 GT ISZERO PUSH2 0x1C32 JUMPI INVALID JUMPDEST PUSH1 0x0 DUP2 ISZERO DUP1 ISZERO SWAP1 PUSH2 0x2C28 JUMPI POP PUSH2 0x3FFF DUP3 GT ISZERO JUMPDEST PUSH2 0x2C31 JUMPI PUSH1 0x0 DUP1 REVERT JUMPDEST PUSH1 0x80 DUP4 ADD MLOAD PUSH1 0x60 DUP5 ADD MLOAD PUSH2 0xFFFF AND DUP4 EQ ISZERO PUSH2 0x2C50 JUMPI PUSH1 0x1 SWAP2 POP POP PUSH2 0x4DC JUMP JUMPDEST PUSH1 0x1 PUSH1 0x1 PUSH1 0x70 SHL SUB NOT DUP2 AND ISZERO PUSH2 0x2C95 JUMPI PUSH1 0xF0 DUP2 SWAP1 SHR PUSH2 0x3FFF AND DUP4 DUP2 EQ ISZERO PUSH2 0x2C82 JUMPI POP PUSH1 0x1 PUSH1 0xFE SHL SWAP1 DUP2 AND EQ SWAP1 POP PUSH2 0x4DC JUMP JUMPDEST POP PUSH1 0x10 SHL PUSH1 0x1 PUSH1 0x1 PUSH1 0x80 SHL SUB NOT AND PUSH2 0x2C50 JUMP JUMPDEST POP PUSH1 0x0 SWAP4 SWAP3 POP POP POP JUMP JUMPDEST PUSH1 0x0 DUP1 PUSH1 0x0 DUP1 PUSH1 0x0 PUSH2 0x2CAF PUSH2 0x35C7 JUMP JUMPDEST PUSH1 0x1 PUSH1 0x1 PUSH1 0xA0 SHL SUB DUP10 AND PUSH1 0x0 SWAP1 DUP2 MSTORE PUSH1 0x20 DUP3 DUP2 MSTORE PUSH1 0x40 DUP1 DUP4 KECCAK256 PUSH2 0xFFFF DUP13 AND DUP5 MSTORE SWAP1 SWAP2 MSTORE SWAP1 KECCAK256 DUP1 SLOAD PUSH1 0x1 PUSH1 0x1 PUSH1 0x50 SHL SUB DUP2 AND SWAP7 POP PUSH1 0x1 PUSH1 0x50 SHL SWAP1 DIV PUSH4 0xFFFFFFFF AND SWAP5 POP SWAP1 SWAP2 POP DUP4 ISZERO PUSH2 0x2D1C JUMPI DUP1 SLOAD PUSH2 0x2D15 SWAP1 PUSH1 0x1 PUSH1 0x70 SHL SWAP1 DIV PUSH7 0xFFFFFFFFFFFFFF AND PUSH2 0x3739 JUMP JUMPDEST SWAP3 POP PUSH2 0x2D31 JUMP JUMPDEST DUP1 SLOAD PUSH1 0x1 PUSH1 0x70 SHL SWAP1 DIV PUSH7 0xFFFFFFFFFFFFFF AND SWAP3 POP JUMPDEST DUP1 SLOAD PUSH2 0x2D4C SWAP1 DUP9 SWAP1 PUSH1 0x1 PUSH1 0xA8 SHL SWAP1 DIV PUSH1 0xA SWAP1 DUP2 SIGNEXTEND SWAP1 SIGNEXTEND PUSH2 0x3747 JUMP JUMPDEST SWAP6 POP POP POP SWAP4 POP SWAP4 POP SWAP4 POP SWAP4 JUMP JUMPDEST PUSH1 0x0 DUP1 PUSH2 0x4DC PUSH1 0x11 PUSH2 0x2C03 JUMP JUMPDEST PUSH1 0x0 DUP1 PUSH2 0x4DC PUSH1 0x2 PUSH2 0x2C03 JUMP JUMPDEST PUSH1 0x0 DUP1 PUSH2 0x2D7F DUP4 PUSH2 0x25A3 JUMP JUMPDEST PUSH1 0x1 PUSH1 0x1 PUSH1 0xA0 SHL SUB AND PUSH4 0xEF81F216 PUSH1 0x40 MLOAD DUP2 PUSH4 0xFFFFFFFF AND PUSH1 0xE0 SHL DUP2 MSTORE PUSH1 0x4 ADD PUSH1 0x40 DUP1 MLOAD DUP1 DUP4 SUB DUP2 PUSH1 0x0 DUP8 DUP1 EXTCODESIZE ISZERO DUP1 ISZERO PUSH2 0x2DB8 JUMPI PUSH1 0x0 DUP1 REVERT JUMPDEST POP GAS CALL ISZERO DUP1 ISZERO PUSH2 0x179C JUMPI RETURNDATASIZE PUSH1 0x0 DUP1 RETURNDATACOPY RETURNDATASIZE PUSH1 0x0 REVERT JUMPDEST PUSH1 0x0 PUSH2 0x2DD6 PUSH2 0x210D JUMP JUMPDEST PUSH1 0x0 DUP6 PUSH2 0xFFFF AND DUP2 MSTORE PUSH1 0x20 ADD SWAP1 DUP2 MSTORE PUSH1 0x20 ADD PUSH1 0x0 KECCAK256 SWAP1 POP PUSH2 0x2DFA DUP3 PUSH1 0x0 ADD MLOAD PUSH2 0x376E JUMP JUMPDEST DUP2 SLOAD PUSH5 0xFFFFFFFFFF NOT AND PUSH5 0xFFFFFFFFFF SWAP2 SWAP1 SWAP2 AND OR DUP2 SSTORE PUSH1 0xA0 DUP3 ADD MLOAD PUSH2 0x2E1F SWAP1 PUSH2 0x3782 JUMP JUMPDEST PUSH1 0x2 DUP3 ADD DUP1 SLOAD PUSH10 0xFFFFFFFFFFFFFFFFFFFF NOT AND PUSH1 0x1 PUSH1 0x1 PUSH1 0x50 SHL SUB SWAP3 SWAP1 SWAP3 AND SWAP2 SWAP1 SWAP2 OR SWAP1 SSTORE PUSH1 0xC0 DUP3 ADD MLOAD PUSH2 0x2E52 SWAP1 PUSH2 0x3782 JUMP JUMPDEST DUP2 PUSH1 0x2 ADD PUSH1 0xA PUSH2 0x100 EXP DUP2 SLOAD DUP2 PUSH1 0x1 PUSH1 0x1 PUSH1 0x50 SHL SUB MUL NOT AND SWAP1 DUP4 PUSH1 0x1 PUSH1 0x1 PUSH1 0x50 SHL SUB AND MUL OR SWAP1 SSTORE POP PUSH2 0x2E87 DUP3 PUSH1 0xE0 ADD MLOAD PUSH2 0x3782 JUMP JUMPDEST DUP2 PUSH1 0x2 ADD PUSH1 0x14 PUSH2 0x100 EXP DUP2 SLOAD DUP2 PUSH1 0x1 PUSH1 0x1 PUSH1 0x50 SHL SUB MUL NOT AND SWAP1 DUP4 PUSH1 0x1 PUSH1 0x1 PUSH1 0x50 SHL SUB AND MUL OR SWAP1 SSTORE POP PUSH2 0x2EBC DUP3 PUSH1 0x20 ADD MLOAD PUSH2 0x3798 JUMP JUMPDEST DUP2 SLOAD PUSH1 0x1 PUSH1 0x1 PUSH1 0x58 SHL SUB SWAP2 SWAP1 SWAP2 AND PUSH1 0x1 PUSH1 0x28 SHL MUL PUSH16 0xFFFFFFFFFFFFFFFFFFFFFF0000000000 NOT SWAP1 SWAP2 AND OR DUP2 SSTORE PUSH1 0x40 DUP3 ADD MLOAD PUSH2 0x2EF6 SWAP1 PUSH2 0x3798 JUMP JUMPDEST PUSH1 0x1 DUP3 ADD DUP1 SLOAD PUSH11 0xFFFFFFFFFFFFFFFFFFFFFF NOT AND PUSH1 0x1 PUSH1 0x1 PUSH1 0x58 SHL SUB SWAP3 SWAP1 SWAP3 AND SWAP2 SWAP1 SWAP2 OR SWAP1 SSTORE PUSH1 0x80 DUP3 ADD MLOAD PUSH2 0x2F2A SWAP1 PUSH2 0x3798 JUMP JUMPDEST DUP2 SLOAD PUSH1 0x1 PUSH1 0x1 PUSH1 0x58 SHL SUB SWAP2 SWAP1 SWAP2 AND PUSH1 0x1 PUSH1 0x80 SHL MUL PUSH11 0xFFFFFFFFFFFFFFFFFFFFFF PUSH1 0x80 SHL NOT SWAP1 SWAP2 AND OR DUP2 SSTORE PUSH1 0x60 DUP3 ADD MLOAD PUSH2 0x2F62 SWAP1 PUSH2 0x37AE JUMP JUMPDEST DUP2 SLOAD PUSH4 0xFFFFFFFF SWAP2 SWAP1 SWAP2 AND PUSH1 0x1 PUSH1 0xD8 SHL MUL PUSH4 0xFFFFFFFF PUSH1 0xD8 SHL NOT SWAP1 SWAP2 AND OR DUP2 SSTORE DUP3 ISZERO PUSH2 0x2FAE JUMPI PUSH1 0x0 PUSH2 0x2F93 DUP5 PUSH2 0xBAD JUMP JUMPDEST SWAP1 POP PUSH2 0x2F9F DUP6 DUP3 PUSH2 0x37C1 JUMP JUMPDEST PUSH2 0x2FAC PUSH2 0xFEE DUP7 DUP4 PUSH2 0x37FD JUMP JUMPDEST POP JUMPDEST DUP4 PUSH2 0xFFFF AND PUSH32 0xEF25641E225E493886510CA1AD6584FA7B442B9FEA820A29D1DE3CE27D270FD2 DUP4 PUSH1 0xA0 ADD MLOAD DUP5 PUSH1 0xC0 ADD MLOAD DUP6 PUSH1 0xE0 ADD MLOAD PUSH1 0x40 MLOAD PUSH2 0x2FF2 SWAP4 SWAP3 SWAP2 SWAP1 PUSH2 0x5408 JUMP JUMPDEST PUSH1 0x40 MLOAD DUP1 SWAP2 SUB SWAP1 LOG2 POP POP POP POP JUMP JUMPDEST PUSH1 0x0 PUSH2 0x300D DUP5 DUP5 DUP5 PUSH2 0x143D JUMP JUMPDEST SWAP1 POP PUSH1 0x0 PUSH2 0x301A DUP6 PUSH2 0x3887 JUMP JUMPDEST SWAP1 POP DUP1 DUP3 GT PUSH2 0x302D JUMPI PUSH1 0x0 SWAP2 POP POP PUSH2 0x5A5 JUMP JUMPDEST DUP1 DUP3 SUB SWAP2 POP PUSH1 0x0 PUSH2 0x303D DUP7 PUSH2 0x3894 JUMP JUMPDEST SWAP1 POP DUP3 DUP2 LT ISZERO PUSH2 0x218E JUMPI SWAP6 SWAP5 POP POP POP POP POP JUMP JUMPDEST PUSH1 0x0 PUSH2 0x305D DUP5 DUP5 DUP5 PUSH2 0x143D JUMP JUMPDEST SWAP1 POP PUSH2 0x306B PUSH2 0x121A DUP6 PUSH2 0x38A1 JUMP JUMPDEST SWAP1 POP PUSH1 0x0 PUSH2 0x3078 DUP6 PUSH2 0x38AE JUMP JUMPDEST SWAP1 POP DUP1 DUP3 LT ISZERO PUSH2 0x18B7 JUMPI SWAP5 SWAP4 POP POP POP POP JUMP JUMPDEST PUSH1 0x60 ADD MLOAD PUSH3 0x7A120 PUSH1 0x10 SWAP2 SWAP1 SWAP2 SHR PUSH1 0xFF AND MUL PUSH4 0x3B9ACA00 SUB SWAP1 JUMP JUMPDEST PUSH1 0x0 DUP1 PUSH2 0x4DC PUSH1 0xA PUSH2 0x2C03 JUMP JUMPDEST PUSH1 0x0 DUP1 DUP4 GT PUSH2 0x30C0 JUMPI PUSH1 0x0 DUP1 REVERT JUMPDEST DUP2 DUP7 GT ISZERO PUSH2 0x30CF JUMPI POP DUP4 PUSH2 0x45D JUMP JUMPDEST PUSH1 0x0 PUSH2 0x30DB DUP4 DUP9 PUSH2 0x2037 JUMP JUMPDEST SWAP1 POP DUP4 DUP2 GT ISZERO PUSH2 0x30EE JUMPI DUP6 SWAP2 POP POP PUSH2 0x45D JUMP JUMPDEST PUSH1 0x0 PUSH2 0x30FA DUP3 DUP7 PUSH2 0x38BB JUMP JUMPDEST SWAP1 POP PUSH1 0x0 PUSH2 0x310C PUSH4 0x3B9ACA00 DUP4 PUSH2 0x2037 JUMP JUMPDEST SWAP1 POP PUSH2 0x312D PUSH4 0x3B9ACA00 PUSH2 0x120E PUSH2 0x3123 DUP11 DUP6 PUSH2 0x1864 JUMP JUMPDEST PUSH2 0x15D2 DUP13 DUP8 PUSH2 0x1864 JUMP JUMPDEST SWAP10 SWAP9 POP POP POP POP POP POP POP POP POP JUMP JUMPDEST PUSH1 0x0 PUSH8 0x7FFFFFFFFFFFFFFF DUP3 GT ISZERO PUSH2 0x3151 JUMPI PUSH1 0x0 DUP1 REVERT JUMPDEST POP PUSH1 0x40 SHL SWAP1 JUMP JUMPDEST PUSH1 0x0 DUP2 PUSH1 0xF SIGNEXTEND PUSH1 0x0 EQ ISZERO PUSH2 0x316B JUMPI PUSH1 0x0 DUP1 REVERT JUMPDEST PUSH1 0x0 DUP3 PUSH1 0xF SIGNEXTEND PUSH1 0x40 DUP6 PUSH1 0xF SIGNEXTEND SWAP1 SHL DUP2 PUSH2 0x3180 JUMPI INVALID JUMPDEST SDIV SWAP1 POP PUSH1 0x1 PUSH1 0x1 PUSH1 0x7F SHL SUB NOT DUP2 SLT DUP1 ISZERO SWAP1 PUSH2 0x31A2 JUMPI POP PUSH1 0x1 PUSH1 0x1 PUSH1 0x7F SHL SUB DUP2 SGT ISZERO JUMPDEST PUSH2 0x5A5 JUMPI PUSH1 0x0 DUP1 REVERT JUMPDEST PUSH1 0x0 PUSH1 0xF DUP3 SWAP1 SIGNEXTEND PUSH1 0x1 PUSH1 0x1 PUSH1 0x7F SHL SUB NOT EQ ISZERO PUSH2 0x31C6 JUMPI PUSH1 0x0 DUP1 REVERT JUMPDEST POP PUSH1 0x0 SUB SWAP1 JUMP JUMPDEST PUSH1 0x0 PUSH1 0x1 PUSH1 0x46 SHL DUP3 PUSH1 0xF SIGNEXTEND SLT PUSH2 0x31E2 JUMPI PUSH1 0x0 DUP1 REVERT JUMPDEST PUSH9 0x3FFFFFFFFFFFFFFFFF NOT DUP3 PUSH1 0xF SIGNEXTEND SLT ISZERO PUSH2 0x31FF JUMPI POP PUSH1 0x0 PUSH2 0x35D JUMP JUMPDEST PUSH2 0x4DC PUSH1 0x80 DUP4 PUSH1 0xF SIGNEXTEND PUSH17 0x171547652B82FE1777D0FFDA0D23A7D12 MUL SWAP1 SAR PUSH2 0x38CE JUMP JUMPDEST PUSH1 0x0 PUSH1 0xF DUP4 DUP2 SIGNEXTEND SWAP1 DUP4 SWAP1 SIGNEXTEND MUL PUSH1 0x40 SAR PUSH1 0x1 PUSH1 0x1 PUSH1 0x7F SHL SUB NOT DUP2 SLT DUP1 ISZERO SWAP1 PUSH2 0x31A2 JUMPI POP PUSH1 0x1 PUSH1 0x1 PUSH1 0x7F SHL SUB DUP2 SGT ISZERO PUSH2 0x5A5 JUMPI PUSH1 0x0 DUP1 REVERT JUMPDEST PUSH1 0xF SIGNEXTEND PUSH1 0x40 SAR SWAP1 JUMP JUMPDEST PUSH2 0x326E DUP8 DUP8 DUP8 DUP7 DUP6 PUSH2 0x437E JUMP JUMPDEST PUSH2 0x3287 DUP8 PUSH1 0xE0 ADD MLOAD DUP9 PUSH1 0xA0 ADD MLOAD DUP10 PUSH1 0xC0 ADD MLOAD DUP6 DUP9 PUSH2 0x30B2 JUMP JUMPDEST PUSH1 0xC0 SWAP1 SWAP8 ADD SWAP7 SWAP1 SWAP7 MSTORE POP POP POP POP POP POP JUMP JUMPDEST PUSH1 0x0 DUP1 PUSH2 0x32B7 PUSH1 0x64 PUSH2 0x120E DUP8 PUSH1 0xE0 ADD MLOAD DUP8 PUSH2 0x1864 SWAP1 SWAP2 SWAP1 PUSH4 0xFFFFFFFF AND JUMP JUMPDEST SWAP1 POP DUP5 PUSH1 0xA0 ADD MLOAD DUP2 LT ISZERO PUSH2 0x32CC JUMPI POP PUSH1 0xA0 DUP5 ADD MLOAD JUMPDEST DUP5 PUSH1 0xC0 ADD MLOAD DUP2 GT ISZERO PUSH2 0x32DF JUMPI POP PUSH1 0xC0 DUP5 ADD MLOAD JUMPDEST DUP3 ISZERO PUSH2 0x32F6 JUMPI PUSH2 0x32EF DUP5 DUP3 PUSH2 0x124B JUMP JUMPDEST SWAP2 POP PUSH2 0x18B7 JUMP JUMPDEST DUP4 DUP2 GT PUSH2 0x3305 JUMPI DUP1 DUP5 SUB PUSH2 0x45D JUMP JUMPDEST POP PUSH1 0x0 SWAP5 SWAP4 POP POP POP POP JUMP JUMPDEST PUSH1 0x60 ADD MLOAD PUSH1 0x18 SHR PUSH1 0xFF AND SWAP1 JUMP JUMPDEST PUSH1 0x0 DUP1 PUSH2 0x4DC PUSH1 0x1F PUSH2 0x2C03 JUMP JUMPDEST PUSH1 0x0 DUP1 PUSH1 0x0 DUP1 PUSH1 0x0 DUP6 PUSH1 0x20 ADD MLOAD GT ISZERO PUSH2 0x3377 JUMPI PUSH2 0x3374 PUSH2 0x335B DUP7 PUSH1 0xC0 ADD MLOAD DUP8 PUSH1 0x20 ADD MLOAD PUSH2 0x1864 SWAP1 SWAP2 SWAP1 PUSH4 0xFFFFFFFF AND JUMP JUMPDEST PUSH1 0xE0 DUP8 ADD MLOAD PUSH1 0x40 DUP9 ADD MLOAD PUSH2 0x336E SWAP2 PUSH2 0x1864 JUMP JUMPDEST SWAP1 PUSH2 0x38BB JUMP JUMPDEST SWAP1 POP JUMPDEST PUSH1 0x0 PUSH2 0x3382 DUP8 PUSH2 0x4438 JUMP JUMPDEST SWAP1 POP PUSH2 0x338E DUP2 DUP4 PUSH2 0x249B JUMP JUMPDEST SWAP5 POP DUP2 ISZERO PUSH2 0x33A5 JUMPI PUSH2 0x33A2 DUP2 DUP7 PUSH1 0x1 PUSH2 0x3298 JUMP JUMPDEST SWAP4 POP JUMPDEST PUSH1 0x20 DUP7 ADD MLOAD ISZERO PUSH2 0x11C2 JUMPI PUSH2 0x33B9 DUP6 DUP4 PUSH2 0x446B JUMP JUMPDEST SWAP3 POP POP POP SWAP3 POP SWAP3 POP SWAP3 JUMP JUMPDEST PUSH1 0x0 DUP1 PUSH2 0x4DC PUSH1 0x1E PUSH2 0x2C03 JUMP JUMPDEST PUSH1 0x0 DUP1 PUSH2 0x33E1 DUP5 PUSH1 0x40 ADD MLOAD PUSH2 0x4484 JUMP JUMPDEST DUP1 ISZERO PUSH2 0x33F2 JUMPI POP PUSH1 0x0 DUP5 PUSH1 0x60 ADD MLOAD SLT ISZERO JUMPDEST PUSH2 0x33FB JUMPI PUSH1 0x0 DUP1 REVERT JUMPDEST PUSH2 0x341E DUP4 PUSH1 0x80 ADD MLOAD PUSH2 0x511 DUP7 PUSH1 0x60 ADD MLOAD DUP7 PUSH1 0x60 ADD MLOAD PUSH2 0xED9 SWAP1 SWAP2 SWAP1 PUSH4 0xFFFFFFFF AND JUMP JUMPDEST SWAP2 POP PUSH2 0x3443 DUP4 PUSH1 0x80 ADD MLOAD PUSH2 0x511 DUP7 PUSH1 0x60 ADD MLOAD DUP7 PUSH1 0x40 ADD MLOAD PUSH2 0xED9 SWAP1 SWAP2 SWAP1 PUSH4 0xFFFFFFFF AND JUMP JUMPDEST SWAP1 POP SWAP3 POP SWAP3 SWAP1 POP JUMP JUMPDEST PUSH1 0x0 DUP1 PUSH2 0x3457 PUSH2 0x449A JUMP JUMPDEST PUSH1 0x1 PUSH1 0x1 PUSH1 0xA0 SHL SUB DUP7 AND PUSH1 0x0 SWAP1 DUP2 MSTORE PUSH1 0x20 SWAP2 DUP3 MSTORE PUSH1 0x40 DUP1 DUP3 KECCAK256 DUP8 DUP4 MSTORE DUP4 MSTORE DUP1 DUP3 KECCAK256 DUP7 DUP4 MSTORE SWAP1 SWAP3 MSTORE KECCAK256 SLOAD PUSH1 0xF SWAP1 DUP2 SIGNEXTEND SWAP1 SIGNEXTEND SWAP2 POP POP SWAP4 SWAP3 POP POP POP JUMP JUMPDEST PUSH1 0x0 PUSH1 0x2 DUP3 GT PUSH2 0x34A3 JUMPI POP PUSH1 0x0 PUSH2 0x45D JUMP JUMPDEST PUSH1 0x0 PUSH2 0x34AF DUP8 DUP8 PUSH2 0x44A7 JUMP JUMPDEST SWAP1 POP DUP1 PUSH2 0x34BD JUMPI SWAP1 POP PUSH2 0x45D JUMP JUMPDEST PUSH1 0x0 PUSH2 0x34C8 DUP6 PUSH2 0x1A0D JUMP JUMPDEST SWAP1 POP DUP6 DUP2 EQ ISZERO PUSH2 0x34F2 JUMPI POP PUSH21 0x400080000002002000000002000000200000000020 NOT AND SWAP1 POP PUSH2 0x45D JUMP JUMPDEST PUSH1 0x1 JUMPDEST DUP5 DUP2 GT PUSH2 0x3532 JUMPI PUSH1 0x0 PUSH2 0x3507 DUP3 PUSH2 0x1A2E JUMP JUMPDEST DUP4 ADD SWAP1 POP PUSH1 0x0 PUSH2 0x3517 DUP10 DUP4 PUSH2 0x44DC JUMP JUMPDEST POP SWAP1 POP PUSH2 0x3526 DUP6 DUP3 PUSH1 0x0 PUSH2 0x45E7 JUMP JUMPDEST SWAP5 POP POP POP PUSH1 0x1 ADD PUSH2 0x34F5 JUMP JUMPDEST POP DUP2 SWAP3 POP POP POP PUSH2 0x45D JUMP JUMPDEST PUSH1 0x0 DUP1 PUSH1 0x0 PUSH2 0x354B DUP5 PUSH2 0x4632 JUMP JUMPDEST SWAP1 POP JUMPDEST DUP1 ISZERO PUSH2 0x35AE JUMPI PUSH1 0x0 PUSH2 0x3560 DUP10 DUP4 PUSH2 0x4657 JUMP JUMPDEST SWAP1 POP PUSH1 0x0 PUSH2 0x3572 DUP13 DUP13 DUP5 DUP13 DUP13 DUP13 PUSH2 0x470A JUMP JUMPDEST SWAP1 POP PUSH2 0x357E DUP6 DUP3 PUSH2 0x244E JUMP JUMPDEST SWAP5 POP PUSH1 0x0 DUP2 SLT ISZERO PUSH2 0x358E JUMPI PUSH1 0x1 SWAP4 POP JUMPDEST PUSH2 0x359A DUP7 DUP5 PUSH1 0x0 PUSH2 0x45E7 JUMP JUMPDEST SWAP6 POP PUSH2 0x35A5 DUP7 PUSH2 0x4632 JUMP JUMPDEST SWAP3 POP POP POP PUSH2 0x354E JUMP JUMPDEST POP SWAP8 POP SWAP8 SWAP6 POP POP POP POP POP POP JUMP JUMPDEST PUSH1 0x60 PUSH2 0x18B7 DUP4 DUP4 PUSH2 0x4766 JUMP JUMPDEST PUSH1 0x0 DUP1 PUSH2 0x4DC PUSH1 0x6 PUSH2 0x2C03 JUMP JUMPDEST PUSH1 0x0 DUP1 PUSH2 0x4DC PUSH1 0x9 PUSH2 0x2C03 JUMP JUMPDEST PUSH1 0x0 DUP2 PUSH1 0x0 LT PUSH2 0x35F0 JUMPI PUSH1 0x0 DUP1 REVERT JUMPDEST PUSH1 0x7 DUP3 GT ISZERO PUSH2 0x35FE JUMPI PUSH1 0x0 DUP1 REVERT JUMPDEST PUSH1 0x4 DUP3 LT PUSH2 0x360F JUMPI PUSH1 0x4 DUP3 SUB PUSH2 0x3611 JUMP JUMPDEST DUP2 JUMPDEST PUSH1 0x8 MUL SWAP3 SWAP2 POP POP JUMP JUMPDEST PUSH2 0x3622 PUSH2 0x4E01 JUMP JUMPDEST PUSH1 0x64 PUSH4 0x3B9ACA00 DUP4 PUSH1 0xFF DUP7 AND PUSH1 0x20 DUP2 LT PUSH2 0x3638 JUMPI INVALID JUMPDEST BYTE MUL DUP2 PUSH2 0x3641 JUMPI INVALID JUMPDEST DIV DUP2 MSTORE PUSH1 0x64 PUSH4 0x3B9ACA00 DUP4 PUSH1 0xFF DUP7 AND PUSH1 0x1 ADD PUSH1 0x20 DUP2 LT PUSH2 0x365D JUMPI INVALID JUMPDEST BYTE MUL DUP2 PUSH2 0x3666 JUMPI INVALID JUMPDEST DIV DUP2 PUSH1 0x20 ADD DUP2 DUP2 MSTORE POP POP PUSH2 0x368B DUP3 PUSH1 0x2 DUP6 PUSH1 0xFF AND ADD PUSH1 0x20 DUP2 LT PUSH2 0x3685 JUMPI INVALID JUMPDEST BYTE PUSH2 0x477E JUMP JUMPDEST PUSH1 0x80 DUP3 ADD DUP2 SWAP1 MSTORE PUSH2 0x100 SWAP1 DUP4 PUSH1 0xFF DUP7 AND PUSH1 0x3 ADD PUSH1 0x20 DUP2 LT PUSH2 0x36A8 JUMPI INVALID JUMPDEST BYTE MUL DUP2 PUSH2 0x36B1 JUMPI INVALID JUMPDEST DIV PUSH1 0x40 DUP3 ADD MSTORE PUSH1 0x80 DUP2 ADD MLOAD PUSH2 0x100 SWAP1 DUP4 PUSH1 0xFF DUP7 AND PUSH1 0x4 ADD PUSH1 0x20 DUP2 LT PUSH2 0x36D2 JUMPI INVALID JUMPDEST BYTE MUL DUP2 PUSH2 0x36DB JUMPI INVALID JUMPDEST DIV PUSH1 0x60 DUP3 ADD MSTORE PUSH3 0x7A120 DUP3 PUSH1 0xFF DUP6 AND PUSH1 0x5 ADD PUSH1 0x20 DUP2 LT PUSH2 0x36F7 JUMPI INVALID JUMPDEST BYTE MUL PUSH1 0xA0 DUP3 ADD MSTORE PUSH3 0x2625A0 DUP3 PUSH1 0xFF DUP6 AND PUSH1 0x6 ADD PUSH1 0x20 DUP2 LT PUSH2 0x3714 JUMPI INVALID JUMPDEST BYTE MUL PUSH1 0xC0 DUP3 ADD MSTORE DUP2 PUSH1 0xFF DUP5 AND PUSH1 0x7 ADD PUSH1 0x20 DUP2 LT PUSH2 0x372D JUMPI INVALID JUMPDEST BYTE PUSH1 0xE0 DUP3 ADD MSTORE SWAP3 SWAP2 POP POP JUMP JUMPDEST PUSH1 0x8 DUP2 SWAP1 SHR PUSH1 0xFF SWAP1 SWAP2 AND SHL SWAP1 JUMP JUMPDEST PUSH1 0x0 DUP1 DUP3 SLT PUSH2 0x3757 JUMPI POP DUP1 PUSH2 0x4DC JUMP JUMPDEST DUP3 MLOAD PUSH1 0x20 DUP5 ADD MLOAD PUSH2 0x19F2 SWAP2 SWAP1 PUSH2 0x511 SWAP1 DUP6 SWAP1 PUSH2 0xED9 JUMP JUMPDEST PUSH1 0x0 PUSH5 0xFFFFFFFFFF DUP3 GT ISZERO PUSH2 0xBC3 JUMPI PUSH1 0x0 DUP1 REVERT JUMPDEST PUSH1 0x0 PUSH1 0x1 PUSH1 0x1 PUSH1 0x50 SHL SUB DUP3 GT ISZERO PUSH2 0xBC3 JUMPI PUSH1 0x0 DUP1 REVERT JUMPDEST PUSH1 0x0 PUSH1 0x1 PUSH1 0x1 PUSH1 0x58 SHL SUB DUP3 GT ISZERO PUSH2 0xBC3 JUMPI PUSH1 0x0 DUP1 REVERT JUMPDEST PUSH1 0x0 PUSH4 0xFFFFFFFF DUP3 GT ISZERO PUSH2 0xBC3 JUMPI PUSH1 0x0 DUP1 REVERT JUMPDEST PUSH1 0x0 DUP2 SLT ISZERO PUSH2 0x37CF JUMPI PUSH1 0x0 DUP1 REVERT JUMPDEST PUSH1 0x0 PUSH2 0x37DD PUSH2 0xFEE DUP5 PUSH2 0x2A6C JUMP JUMPDEST SWAP1 POP PUSH2 0x37E9 DUP2 DUP4 PUSH2 0x244E JUMP JUMPDEST SWAP1 POP PUSH2 0x37F8 PUSH2 0xFEE DUP5 DUP4 PUSH2 0x47B2 JUMP JUMPDEST POP POP POP JUMP JUMPDEST PUSH1 0x0 PUSH2 0x3807 PUSH2 0x4826 JUMP JUMPDEST PUSH2 0xFFFF DUP5 AND PUSH1 0x0 SWAP1 DUP2 MSTORE PUSH1 0x20 SWAP2 SWAP1 SWAP2 MSTORE PUSH1 0x40 SWAP1 DUP2 SWAP1 KECCAK256 SLOAD SWAP1 MLOAD PUSH4 0xAD1C095D PUSH1 0xE0 SHL DUP2 MSTORE PUSH1 0x1 PUSH1 0x1 PUSH1 0xA0 SHL SUB SWAP1 SWAP2 AND SWAP2 POP DUP2 SWAP1 PUSH4 0xAD1C095D SWAP1 PUSH2 0x384F SWAP1 DUP8 SWAP1 DUP7 SWAP1 PUSH1 0x4 ADD PUSH2 0x519C JUMP JUMPDEST PUSH1 0x0 PUSH1 0x40 MLOAD DUP1 DUP4 SUB DUP2 PUSH1 0x0 DUP8 DUP1 EXTCODESIZE ISZERO DUP1 ISZERO PUSH2 0x3869 JUMPI PUSH1 0x0 DUP1 REVERT JUMPDEST POP GAS CALL ISZERO DUP1 ISZERO PUSH2 0x387D JUMPI RETURNDATASIZE PUSH1 0x0 DUP1 RETURNDATACOPY RETURNDATASIZE PUSH1 0x0 REVERT JUMPDEST POP POP POP POP POP POP POP POP JUMP JUMPDEST PUSH1 0x0 PUSH2 0x4DC DUP3 PUSH1 0x20 PUSH2 0x4833 JUMP JUMPDEST PUSH1 0x0 PUSH2 0x4DC DUP3 PUSH1 0x48 PUSH2 0x4833 JUMP JUMPDEST PUSH1 0x0 PUSH2 0x4DC DUP3 PUSH1 0x28 PUSH2 0x4833 JUMP JUMPDEST PUSH1 0x0 PUSH2 0x4DC DUP3 PUSH1 0x30 PUSH2 0x4833 JUMP JUMPDEST PUSH1 0x0 PUSH2 0x5A5 PUSH2 0x26F5 DUP5 PUSH4 0x3B9ACA00 PUSH2 0x1864 JUMP JUMPDEST PUSH1 0x0 PUSH1 0x1 PUSH1 0x46 SHL DUP3 PUSH1 0xF SIGNEXTEND SLT PUSH2 0x38E3 JUMPI PUSH1 0x0 DUP1 REVERT JUMPDEST PUSH9 0x3FFFFFFFFFFFFFFFFF NOT DUP3 PUSH1 0xF SIGNEXTEND SLT ISZERO PUSH2 0x3900 JUMPI POP PUSH1 0x0 PUSH2 0x35D JUMP JUMPDEST PUSH1 0x1 PUSH1 0x7F SHL PUSH1 0x0 PUSH8 0x8000000000000000 DUP5 AND PUSH1 0xF SIGNEXTEND SGT ISZERO PUSH2 0x3932 JUMPI PUSH17 0x16A09E667F3BCC908B2FB1366EA957D3E MUL PUSH1 0x80 SHR JUMPDEST PUSH1 0x0 DUP4 PUSH8 0x4000000000000000 AND PUSH1 0xF SIGNEXTEND SGT ISZERO PUSH2 0x395F JUMPI PUSH17 0x1306FE0A31B7152DE8D5A46305C85EDEC MUL PUSH1 0x80 SHR JUMPDEST PUSH1 0x0 DUP4 PUSH8 0x2000000000000000 AND PUSH1 0xF SIGNEXTEND SGT ISZERO PUSH2 0x398C JUMPI PUSH17 0x1172B83C7D517ADCDF7C8C50EB14A791F MUL PUSH1 0x80 SHR JUMPDEST PUSH1 0x0 DUP4 PUSH8 0x1000000000000000 AND PUSH1 0xF SIGNEXTEND SGT ISZERO PUSH2 0x39B9 JUMPI PUSH17 0x10B5586CF9890F6298B92B71842A98363 MUL PUSH1 0x80 SHR JUMPDEST PUSH1 0x0 DUP4 PUSH8 0x800000000000000 AND PUSH1 0xF SIGNEXTEND SGT ISZERO PUSH2 0x39E6 JUMPI PUSH17 0x1059B0D31585743AE7C548EB68CA417FD MUL PUSH1 0x80 SHR JUMPDEST PUSH1 0x0 DUP4 PUSH8 0x400000000000000 AND PUSH1 0xF SIGNEXTEND SGT ISZERO PUSH2 0x3A13 JUMPI PUSH17 0x102C9A3E778060EE6F7CACA4F7A29BDE8 MUL PUSH1 0x80 SHR JUMPDEST PUSH1 0x0 DUP4 PUSH8 0x200000000000000 AND PUSH1 0xF SIGNEXTEND SGT ISZERO PUSH2 0x3A40 JUMPI PUSH17 0x10163DA9FB33356D84A66AE336DCDFA3F MUL PUSH1 0x80 SHR JUMPDEST PUSH1 0x0 DUP4 PUSH1 0x1 PUSH1 0x38 SHL AND PUSH1 0xF SIGNEXTEND SGT ISZERO PUSH2 0x3A69 JUMPI PUSH17 0x100B1AFA5ABCBED6129AB13EC11DC9543 MUL PUSH1 0x80 SHR JUMPDEST PUSH1 0x0 DUP4 PUSH7 0x80000000000000 AND PUSH1 0xF SIGNEXTEND SGT ISZERO PUSH2 0x3A95 JUMPI PUSH17 0x10058C86DA1C09EA1FF19D294CF2F679B MUL PUSH1 0x80 SHR JUMPDEST PUSH1 0x0 DUP4 PUSH7 0x40000000000000 AND PUSH1 0xF SIGNEXTEND SGT ISZERO PUSH2 0x3AC1 JUMPI PUSH17 0x1002C605E2E8CEC506D21BFC89A23A00F MUL PUSH1 0x80 SHR JUMPDEST PUSH1 0x0 DUP4 PUSH7 0x20000000000000 AND PUSH1 0xF SIGNEXTEND SGT ISZERO PUSH2 0x3AED JUMPI PUSH17 0x100162F3904051FA128BCA9C55C31E5DF MUL PUSH1 0x80 SHR JUMPDEST PUSH1 0x0 DUP4 PUSH7 0x10000000000000 AND PUSH1 0xF SIGNEXTEND SGT ISZERO PUSH2 0x3B19 JUMPI PUSH17 0x1000B175EFFDC76BA38E31671CA939725 MUL PUSH1 0x80 SHR JUMPDEST PUSH1 0x0 DUP4 PUSH7 0x8000000000000 AND PUSH1 0xF SIGNEXTEND SGT ISZERO PUSH2 0x3B45 JUMPI PUSH17 0x100058BA01FB9F96D6CACD4B180917C3D MUL PUSH1 0x80 SHR JUMPDEST PUSH1 0x0 DUP4 PUSH7 0x4000000000000 AND PUSH1 0xF SIGNEXTEND SGT ISZERO PUSH2 0x3B71 JUMPI PUSH17 0x10002C5CC37DA9491D0985C348C68E7B3 MUL PUSH1 0x80 SHR JUMPDEST PUSH1 0x0 DUP4 PUSH7 0x2000000000000 AND PUSH1 0xF SIGNEXTEND SGT ISZERO PUSH2 0x3B9D JUMPI PUSH17 0x1000162E525EE054754457D5995292026 MUL PUSH1 0x80 SHR JUMPDEST PUSH1 0x0 DUP4 PUSH1 0x1 PUSH1 0x30 SHL AND PUSH1 0xF SIGNEXTEND SGT ISZERO PUSH2 0x3BC6 JUMPI PUSH17 0x10000B17255775C040618BF4A4ADE83FC MUL PUSH1 0x80 SHR JUMPDEST PUSH1 0x0 DUP4 PUSH6 0x800000000000 AND PUSH1 0xF SIGNEXTEND SGT ISZERO PUSH2 0x3BF1 JUMPI PUSH17 0x1000058B91B5BC9AE2EED81E9B7D4CFAB MUL PUSH1 0x80 SHR JUMPDEST PUSH1 0x0 DUP4 PUSH6 0x400000000000 AND PUSH1 0xF SIGNEXTEND SGT ISZERO PUSH2 0x3C1C JUMPI PUSH17 0x100002C5C89D5EC6CA4D7C8ACC017B7C9 MUL PUSH1 0x80 SHR JUMPDEST PUSH1 0x0 DUP4 PUSH6 0x200000000000 AND PUSH1 0xF SIGNEXTEND SGT ISZERO PUSH2 0x3C47 JUMPI PUSH17 0x10000162E43F4F831060E02D839A9D16D MUL PUSH1 0x80 SHR JUMPDEST PUSH1 0x0 DUP4 PUSH6 0x100000000000 AND PUSH1 0xF SIGNEXTEND SGT ISZERO PUSH2 0x3C72 JUMPI PUSH17 0x100000B1721BCFC99D9F890EA06911763 MUL PUSH1 0x80 SHR JUMPDEST PUSH1 0x0 DUP4 PUSH6 0x80000000000 AND PUSH1 0xF SIGNEXTEND SGT ISZERO PUSH2 0x3C9D JUMPI PUSH17 0x10000058B90CF1E6D97F9CA14DBCC1628 MUL PUSH1 0x80 SHR JUMPDEST PUSH1 0x0 DUP4 PUSH6 0x40000000000 AND PUSH1 0xF SIGNEXTEND SGT ISZERO PUSH2 0x3CC8 JUMPI PUSH17 0x1000002C5C863B73F016468F6BAC5CA2B MUL PUSH1 0x80 SHR JUMPDEST PUSH1 0x0 DUP4 PUSH6 0x20000000000 AND PUSH1 0xF SIGNEXTEND SGT ISZERO PUSH2 0x3CF3 JUMPI PUSH17 0x100000162E430E5A18F6119E3C02282A5 MUL PUSH1 0x80 SHR JUMPDEST PUSH1 0x0 DUP4 PUSH1 0x1 PUSH1 0x28 SHL AND PUSH1 0xF SIGNEXTEND SGT ISZERO PUSH2 0x3D1C JUMPI PUSH17 0x1000000B1721835514B86E6D96EFD1BFE MUL PUSH1 0x80 SHR JUMPDEST PUSH1 0x0 DUP4 PUSH5 0x8000000000 AND PUSH1 0xF SIGNEXTEND SGT ISZERO PUSH2 0x3D46 JUMPI PUSH17 0x100000058B90C0B48C6BE5DF846C5B2EF MUL PUSH1 0x80 SHR JUMPDEST PUSH1 0x0 DUP4 PUSH5 0x4000000000 AND PUSH1 0xF SIGNEXTEND SGT ISZERO PUSH2 0x3D70 JUMPI PUSH17 0x10000002C5C8601CC6B9E94213C72737A MUL PUSH1 0x80 SHR JUMPDEST PUSH1 0x0 DUP4 PUSH5 0x2000000000 AND PUSH1 0xF SIGNEXTEND SGT ISZERO PUSH2 0x3D9A JUMPI PUSH17 0x1000000162E42FFF037DF38AA2B219F06 MUL PUSH1 0x80 SHR JUMPDEST PUSH1 0x0 DUP4 PUSH5 0x1000000000 AND PUSH1 0xF SIGNEXTEND SGT ISZERO PUSH2 0x3DC4 JUMPI PUSH17 0x10000000B17217FBA9C739AA5819F44F9 MUL PUSH1 0x80 SHR JUMPDEST PUSH1 0x0 DUP4 PUSH5 0x800000000 AND PUSH1 0xF SIGNEXTEND SGT ISZERO PUSH2 0x3DEE JUMPI PUSH17 0x1000000058B90BFCDEE5ACD3C1CEDC823 MUL PUSH1 0x80 SHR JUMPDEST PUSH1 0x0 DUP4 PUSH5 0x400000000 AND PUSH1 0xF SIGNEXTEND SGT ISZERO PUSH2 0x3E18 JUMPI PUSH17 0x100000002C5C85FE31F35A6A30DA1BE50 MUL PUSH1 0x80 SHR JUMPDEST PUSH1 0x0 DUP4 PUSH5 0x200000000 AND PUSH1 0xF SIGNEXTEND SGT ISZERO PUSH2 0x3E42 JUMPI PUSH17 0x10000000162E42FF0999CE3541B9FFFCF MUL PUSH1 0x80 SHR JUMPDEST PUSH1 0x0 DUP4 PUSH5 0x100000000 AND PUSH1 0xF SIGNEXTEND SGT ISZERO PUSH2 0x3E6C JUMPI PUSH17 0x100000000B17217F80F4EF5AADDA45554 MUL PUSH1 0x80 SHR JUMPDEST PUSH1 0x0 DUP4 PUSH4 0x80000000 AND PUSH1 0xF SIGNEXTEND SGT ISZERO PUSH2 0x3E95 JUMPI PUSH17 0x10000000058B90BFBF8479BD5A81B51AD MUL PUSH1 0x80 SHR JUMPDEST PUSH1 0x0 DUP4 PUSH4 0x40000000 AND PUSH1 0xF SIGNEXTEND SGT ISZERO PUSH2 0x3EBE JUMPI PUSH17 0x1000000002C5C85FDF84BD62AE30A74CC MUL PUSH1 0x80 SHR JUMPDEST PUSH1 0x0 DUP4 PUSH4 0x20000000 AND PUSH1 0xF SIGNEXTEND SGT ISZERO PUSH2 0x3EE7 JUMPI PUSH17 0x100000000162E42FEFB2FED257559BDAA MUL PUSH1 0x80 SHR JUMPDEST PUSH1 0x0 DUP4 PUSH4 0x10000000 AND PUSH1 0xF SIGNEXTEND SGT ISZERO PUSH2 0x3F10 JUMPI PUSH17 0x1000000000B17217F7D5A7716BBA4A9AE MUL PUSH1 0x80 SHR JUMPDEST PUSH1 0x0 DUP4 PUSH4 0x8000000 AND PUSH1 0xF SIGNEXTEND SGT ISZERO PUSH2 0x3F39 JUMPI PUSH17 0x100000000058B90BFBE9DDBAC5E109CCE MUL PUSH1 0x80 SHR JUMPDEST PUSH1 0x0 DUP4 PUSH4 0x4000000 AND PUSH1 0xF SIGNEXTEND SGT ISZERO PUSH2 0x3F62 JUMPI PUSH17 0x10000000002C5C85FDF4B15DE6F17EB0D MUL PUSH1 0x80 SHR JUMPDEST PUSH1 0x0 DUP4 PUSH4 0x2000000 AND PUSH1 0xF SIGNEXTEND SGT ISZERO PUSH2 0x3F8B JUMPI PUSH17 0x1000000000162E42FEFA494F1478FDE05 MUL PUSH1 0x80 SHR JUMPDEST PUSH1 0x0 DUP4 PUSH4 0x1000000 AND PUSH1 0xF SIGNEXTEND SGT ISZERO PUSH2 0x3FB4 JUMPI PUSH17 0x10000000000B17217F7D20CF927C8E94C MUL PUSH1 0x80 SHR JUMPDEST PUSH1 0x0 DUP4 PUSH3 0x800000 AND PUSH1 0xF SIGNEXTEND SGT ISZERO PUSH2 0x3FDC JUMPI PUSH17 0x1000000000058B90BFBE8F71CB4E4B33D MUL PUSH1 0x80 SHR JUMPDEST PUSH1 0x0 DUP4 PUSH3 0x400000 AND PUSH1 0xF SIGNEXTEND SGT ISZERO PUSH2 0x4004 JUMPI PUSH17 0x100000000002C5C85FDF477B662B26945 MUL PUSH1 0x80 SHR JUMPDEST PUSH1 0x0 DUP4 PUSH3 0x200000 AND PUSH1 0xF SIGNEXTEND SGT ISZERO PUSH2 0x402C JUMPI PUSH17 0x10000000000162E42FEFA3AE53369388C MUL PUSH1 0x80 SHR JUMPDEST PUSH1 0x0 DUP4 PUSH3 0x100000 AND PUSH1 0xF SIGNEXTEND SGT ISZERO PUSH2 0x4054 JUMPI PUSH17 0x100000000000B17217F7D1D351A389D40 MUL PUSH1 0x80 SHR JUMPDEST PUSH1 0x0 DUP4 PUSH3 0x80000 AND PUSH1 0xF SIGNEXTEND SGT ISZERO PUSH2 0x407C JUMPI PUSH17 0x10000000000058B90BFBE8E8B2D3D4EDE MUL PUSH1 0x80 SHR JUMPDEST PUSH1 0x0 DUP4 PUSH3 0x40000 AND PUSH1 0xF SIGNEXTEND SGT ISZERO PUSH2 0x40A4 JUMPI PUSH17 0x1000000000002C5C85FDF4741BEA6E77E MUL PUSH1 0x80 SHR JUMPDEST PUSH1 0x0 DUP4 PUSH3 0x20000 AND PUSH1 0xF SIGNEXTEND SGT ISZERO PUSH2 0x40CC JUMPI PUSH17 0x100000000000162E42FEFA39FE95583C2 MUL PUSH1 0x80 SHR JUMPDEST PUSH1 0x0 DUP4 PUSH3 0x10000 AND PUSH1 0xF SIGNEXTEND SGT ISZERO PUSH2 0x40F4 JUMPI PUSH17 0x1000000000000B17217F7D1CFB72B45E1 MUL PUSH1 0x80 SHR JUMPDEST PUSH1 0x0 DUP4 PUSH2 0x8000 AND PUSH1 0xF SIGNEXTEND SGT ISZERO PUSH2 0x411B JUMPI PUSH17 0x100000000000058B90BFBE8E7CC35C3F0 MUL PUSH1 0x80 SHR JUMPDEST PUSH1 0x0 DUP4 PUSH2 0x4000 AND PUSH1 0xF SIGNEXTEND SGT ISZERO PUSH2 0x4142 JUMPI PUSH17 0x10000000000002C5C85FDF473E242EA38 MUL PUSH1 0x80 SHR JUMPDEST PUSH1 0x0 DUP4 PUSH2 0x2000 AND PUSH1 0xF SIGNEXTEND SGT ISZERO PUSH2 0x4169 JUMPI PUSH17 0x1000000000000162E42FEFA39F02B772C MUL PUSH1 0x80 SHR JUMPDEST PUSH1 0x0 DUP4 PUSH2 0x1000 AND PUSH1 0xF SIGNEXTEND SGT ISZERO PUSH2 0x4190 JUMPI PUSH17 0x10000000000000B17217F7D1CF7D83C1A MUL PUSH1 0x80 SHR JUMPDEST PUSH1 0x0 DUP4 PUSH2 0x800 AND PUSH1 0xF SIGNEXTEND SGT ISZERO PUSH2 0x41B7 JUMPI PUSH17 0x1000000000000058B90BFBE8E7BDCBE2E MUL PUSH1 0x80 SHR JUMPDEST PUSH1 0x0 DUP4 PUSH2 0x400 AND PUSH1 0xF SIGNEXTEND SGT ISZERO PUSH2 0x41DE JUMPI PUSH17 0x100000000000002C5C85FDF473DEA871F MUL PUSH1 0x80 SHR JUMPDEST PUSH1 0x0 DUP4 PUSH2 0x200 AND PUSH1 0xF SIGNEXTEND SGT ISZERO PUSH2 0x4205 JUMPI PUSH17 0x10000000000000162E42FEFA39EF44D91 MUL PUSH1 0x80 SHR JUMPDEST PUSH1 0x0 DUP4 PUSH2 0x100 AND PUSH1 0xF SIGNEXTEND SGT ISZERO PUSH2 0x422C JUMPI PUSH17 0x100000000000000B17217F7D1CF79E949 MUL PUSH1 0x80 SHR JUMPDEST PUSH1 0x0 DUP4 PUSH1 0x80 AND PUSH1 0xF SIGNEXTEND SGT ISZERO PUSH2 0x4252 JUMPI PUSH17 0x10000000000000058B90BFBE8E7BCE544 MUL PUSH1 0x80 SHR JUMPDEST PUSH1 0x0 DUP4 PUSH1 0x40 AND PUSH1 0xF SIGNEXTEND SGT ISZERO PUSH2 0x4278 JUMPI PUSH17 0x1000000000000002C5C85FDF473DE6ECA MUL PUSH1 0x80 SHR JUMPDEST PUSH1 0x0 DUP4 PUSH1 0x20 AND PUSH1 0xF SIGNEXTEND SGT ISZERO PUSH2 0x429E JUMPI PUSH17 0x100000000000000162E42FEFA39EF366F MUL PUSH1 0x80 SHR JUMPDEST PUSH1 0x0 DUP4 PUSH1 0x10 AND PUSH1 0xF SIGNEXTEND SGT ISZERO PUSH2 0x42C4 JUMPI PUSH17 0x1000000000000000B17217F7D1CF79AFA MUL PUSH1 0x80 SHR JUMPDEST PUSH1 0x0 DUP4 PUSH1 0x8 AND PUSH1 0xF SIGNEXTEND SGT ISZERO PUSH2 0x42EA JUMPI PUSH17 0x100000000000000058B90BFBE8E7BCD6D MUL PUSH1 0x80 SHR JUMPDEST PUSH1 0x0 DUP4 PUSH1 0x4 AND PUSH1 0xF SIGNEXTEND SGT ISZERO PUSH2 0x4310 JUMPI PUSH17 0x10000000000000002C5C85FDF473DE6B2 MUL PUSH1 0x80 SHR JUMPDEST PUSH1 0x0 DUP4 PUSH1 0x2 AND PUSH1 0xF SIGNEXTEND SGT ISZERO PUSH2 0x4336 JUMPI PUSH17 0x1000000000000000162E42FEFA39EF358 MUL PUSH1 0x80 SHR JUMPDEST PUSH1 0x0 DUP4 PUSH1 0x1 AND PUSH1 0xF SIGNEXTEND SGT ISZERO PUSH2 0x435C JUMPI PUSH17 0x10000000000000000B17217F7D1CF79AB MUL PUSH1 0x80 SHR JUMPDEST PUSH1 0xF DUP4 DUP2 SIGNEXTEND PUSH1 0x40 SAR PUSH1 0x3F SUB SWAP1 SIGNEXTEND SHR PUSH1 0x1 PUSH1 0x1 PUSH1 0x7F SHL SUB DUP2 GT ISZERO PUSH2 0x4DC JUMPI PUSH1 0x0 DUP1 REVERT JUMPDEST PUSH1 0x0 PUSH2 0x4388 PUSH2 0x30A5 JUMP JUMPDEST PUSH1 0x0 DUP7 DUP2 MSTORE PUSH1 0x20 DUP3 DUP2 MSTORE PUSH1 0x40 DUP1 DUP4 KECCAK256 DUP9 DUP5 MSTORE DUP3 MSTORE DUP1 DUP4 KECCAK256 DUP7 DUP5 MSTORE DUP3 MSTORE SWAP2 DUP3 SWAP1 KECCAK256 DUP1 DUP11 MSTORE SWAP1 DUP10 ADD DUP8 SWAP1 MSTORE DUP1 SLOAD PUSH1 0x1 PUSH1 0x1 PUSH1 0x50 SHL SUB DUP1 DUP3 AND SWAP4 DUP12 ADD SWAP4 SWAP1 SWAP4 MSTORE PUSH1 0x1 PUSH1 0x50 SHL DUP2 DIV SWAP1 SWAP3 AND PUSH1 0x60 DUP11 ADD MSTORE PUSH4 0xFFFFFFFF PUSH1 0x1 PUSH1 0xA0 SHL DUP4 DIV DUP2 AND PUSH1 0xA0 DUP12 ADD MSTORE PUSH1 0x1 PUSH1 0xC0 SHL DUP4 DIV DUP2 AND PUSH1 0xC0 DUP12 ADD MSTORE PUSH1 0x1 PUSH1 0xE0 SHL SWAP1 SWAP3 DIV SWAP1 SWAP2 AND PUSH1 0xE0 DUP10 ADD MSTORE SWAP1 SWAP2 POP DUP1 DUP5 ISZERO PUSH2 0x4427 JUMPI PUSH1 0x1 DUP3 ADD SLOAD PUSH1 0x1 PUSH1 0x1 PUSH1 0x50 SHL SUB AND PUSH1 0x80 DUP10 ADD MSTORE PUSH2 0x387D JUMP JUMPDEST PUSH1 0x0 PUSH1 0x80 DUP10 ADD MSTORE POP POP POP POP POP POP POP POP JUMP JUMPDEST PUSH2 0x4440 PUSH2 0x4E01 JUMP JUMPDEST PUSH1 0x0 PUSH2 0x444A PUSH2 0x2AE2 JUMP JUMPDEST PUSH2 0xFFFF DUP5 AND PUSH1 0x0 SWAP1 DUP2 MSTORE PUSH1 0x20 SWAP2 SWAP1 SWAP2 MSTORE PUSH1 0x40 DUP2 KECCAK256 SLOAD SWAP2 POP PUSH2 0x5A5 SWAP1 DUP3 PUSH2 0x361A JUMP JUMPDEST PUSH1 0x0 PUSH2 0x5A5 PUSH2 0x447A DUP5 DUP5 PUSH2 0x1864 JUMP JUMPDEST PUSH4 0x3B9ACA00 PUSH2 0x2018 JUMP JUMPDEST PUSH1 0x0 PUSH1 0x2 DUP3 LT DUP1 ISZERO SWAP1 PUSH2 0x4DC JUMPI POP POP PUSH1 0x8 LT ISZERO SWAP1 JUMP JUMPDEST PUSH1 0x0 DUP1 PUSH2 0x4DC PUSH1 0xC PUSH2 0x2C03 JUMP JUMPDEST PUSH1 0x0 DUP1 PUSH2 0x44B2 PUSH2 0x4846 JUMP JUMPDEST PUSH1 0x1 PUSH1 0x1 PUSH1 0xA0 SHL SUB DUP6 AND PUSH1 0x0 SWAP1 DUP2 MSTORE PUSH1 0x20 SWAP2 DUP3 MSTORE PUSH1 0x40 DUP1 DUP3 KECCAK256 DUP7 DUP4 MSTORE SWAP1 SWAP3 MSTORE KECCAK256 SLOAD SWAP2 POP POP SWAP3 SWAP2 POP POP JUMP JUMPDEST PUSH1 0x0 DUP1 PUSH1 0x0 PUSH2 0x44EA DUP6 PUSH2 0x4853 JUMP JUMPDEST SWAP1 POP PUSH3 0x15180 DUP5 MOD ISZERO PUSH2 0x4504 JUMPI PUSH1 0x0 DUP1 SWAP3 POP SWAP3 POP POP PUSH2 0x45E0 JUMP JUMPDEST DUP4 DUP2 LT PUSH2 0x4518 JUMPI PUSH1 0x0 DUP1 SWAP3 POP SWAP3 POP POP PUSH2 0x45E0 JUMP JUMPDEST PUSH3 0x15180 DUP2 DUP6 SUB DIV PUSH1 0x5A DUP2 GT PUSH2 0x4535 JUMPI SWAP3 POP PUSH1 0x1 SWAP2 POP PUSH2 0x45E0 SWAP1 POP JUMP JUMPDEST PUSH2 0x168 DUP2 GT PUSH2 0x4574 JUMPI PUSH1 0x0 PUSH3 0x15180 PUSH3 0x7E900 DUP5 MOD DIV DUP3 ADD PUSH1 0x59 NOT ADD SWAP1 POP PUSH1 0x6 DUP2 DIV PUSH1 0x5A ADD PUSH1 0x6 DUP3 DUP2 PUSH2 0x4564 JUMPI INVALID JUMPDEST MOD PUSH1 0x0 EQ SWAP5 POP SWAP5 POP POP POP POP PUSH2 0x45E0 JUMP JUMPDEST PUSH2 0x870 DUP2 GT PUSH2 0x45A4 JUMPI PUSH1 0x0 PUSH3 0x15180 PUSH3 0x278D00 DUP5 MOD DIV DUP3 ADD PUSH2 0x167 NOT ADD SWAP1 POP PUSH1 0x1E DUP2 DIV PUSH1 0x87 ADD PUSH1 0x1E DUP3 DUP2 PUSH2 0x4564 JUMPI INVALID JUMPDEST PUSH2 0x1DE2 DUP2 GT PUSH2 0x45D4 JUMPI PUSH1 0x0 PUSH3 0x15180 PUSH3 0x76A700 DUP5 MOD DIV DUP3 ADD PUSH2 0x86F NOT ADD SWAP1 POP PUSH1 0x5A DUP2 DIV PUSH1 0xC3 ADD PUSH1 0x5A DUP3 DUP2 PUSH2 0x4564 JUMPI INVALID JUMPDEST PUSH2 0x100 PUSH1 0x0 SWAP4 POP SWAP4 POP POP POP JUMPDEST SWAP3 POP SWAP3 SWAP1 POP JUMP JUMPDEST PUSH1 0x0 PUSH1 0x1 DUP4 LT ISZERO DUP1 ISZERO PUSH2 0x45FC JUMPI POP PUSH2 0x100 DUP4 GT ISZERO JUMPDEST PUSH2 0x4605 JUMPI PUSH1 0x0 DUP1 REVERT JUMPDEST DUP2 ISZERO PUSH2 0x461E JUMPI POP PUSH1 0x1 PUSH1 0xFF SHL PUSH1 0x0 NOT DUP4 ADD SHR DUP4 OR PUSH2 0x5A5 JUMP JUMPDEST POP PUSH1 0x1 PUSH1 0xFF SHL PUSH1 0x0 NOT DUP4 ADD SHR NOT DUP4 AND PUSH2 0x5A5 JUMP JUMPDEST PUSH1 0x0 DUP2 PUSH2 0x4641 JUMPI POP PUSH1 0x0 PUSH2 0x35D JUMP JUMPDEST PUSH2 0x464A DUP3 PUSH2 0x486F JUMP JUMPDEST PUSH1 0xFF SUB PUSH1 0x1 ADD SWAP1 POP SWAP2 SWAP1 POP JUMP JUMPDEST PUSH1 0x0 DUP2 PUSH2 0x4663 JUMPI PUSH1 0x0 DUP1 REVERT JUMPDEST PUSH2 0x100 DUP3 GT ISZERO PUSH2 0x4672 JUMPI PUSH1 0x0 DUP1 REVERT JUMPDEST PUSH1 0x0 PUSH2 0x467D DUP5 PUSH2 0x4853 JUMP JUMPDEST SWAP1 POP PUSH1 0x0 PUSH1 0x5A DUP5 GT PUSH2 0x4698 JUMPI POP PUSH3 0x15180 DUP4 MUL ADD SWAP1 POP PUSH2 0x4DC JUMP JUMPDEST PUSH1 0x87 DUP5 GT PUSH2 0x46C0 JUMPI POP PUSH1 0x59 NOT DUP4 ADD PUSH3 0x7E900 SWAP1 DUP2 MUL SWAP1 DUP3 MOD SWAP1 SWAP2 SUB ADD PUSH3 0x76A700 ADD SWAP1 POP PUSH2 0x4DC JUMP JUMPDEST PUSH1 0xC3 DUP5 GT PUSH2 0x46E9 JUMPI POP PUSH1 0x86 NOT DUP4 ADD PUSH3 0x278D00 SWAP1 DUP2 MUL SWAP1 DUP3 MOD SWAP1 SWAP2 SUB ADD PUSH4 0x1DA9C00 ADD SWAP1 POP PUSH2 0x4DC JUMP JUMPDEST POP PUSH1 0xC2 NOT DUP4 ADD PUSH3 0x76A700 SWAP1 DUP2 MUL SWAP1 DUP3 MOD SWAP1 SWAP2 SUB ADD PUSH4 0xB1FA800 ADD SWAP1 POP PUSH2 0x4DC JUMP JUMPDEST PUSH1 0x0 DUP1 PUSH2 0x4718 DUP9 DUP9 DUP9 PUSH2 0x344C JUMP JUMPDEST SWAP1 POP DUP5 DUP7 GT PUSH2 0x4728 JUMPI SWAP1 POP PUSH2 0x8E7 JUMP JUMPDEST DUP3 ISZERO PUSH2 0x4742 JUMPI PUSH2 0x473A DUP5 DUP3 DUP9 DUP9 PUSH2 0x13CF JUMP JUMPDEST SWAP2 POP POP PUSH2 0x8E7 JUMP JUMPDEST PUSH1 0x0 PUSH2 0x474F DUP6 DUP9 DUP9 PUSH2 0x143D JUMP JUMPDEST SWAP1 POP PUSH2 0x475D DUP3 DUP9 DUP9 DUP5 PUSH2 0x1526 JUMP JUMPDEST SWAP3 POP POP POP PUSH2 0x8E7 JUMP JUMPDEST PUSH1 0x60 DUP1 PUSH2 0x4773 DUP5 DUP5 PUSH2 0x4908 JUMP JUMPDEST SWAP2 POP PUSH2 0x3443 DUP3 PUSH2 0x4A20 JUMP JUMPDEST PUSH1 0x0 DUP2 PUSH1 0xFF AND PUSH1 0x96 LT PUSH2 0x4799 JUMPI PUSH1 0xFF DUP3 AND PUSH3 0x2625A0 MUL PUSH2 0x4DC JUMP JUMPDEST POP PUSH1 0x95 NOT PUSH1 0xFF SWAP2 SWAP1 SWAP2 AND ADD PUSH3 0xE4E1C0 MUL PUSH4 0x165A0BC0 ADD SWAP1 JUMP JUMPDEST PUSH1 0x0 DUP2 SLT ISZERO PUSH2 0x47C0 JUMPI PUSH1 0x0 DUP1 REVERT JUMPDEST PUSH1 0x0 PUSH2 0x47CA PUSH2 0x35C7 JUMP JUMPDEST PUSH1 0x1 PUSH1 0x1 PUSH1 0xA0 SHL SUB DUP6 AND PUSH1 0x0 SWAP1 DUP2 MSTORE PUSH1 0x20 DUP3 DUP2 MSTORE PUSH1 0x40 DUP1 DUP4 KECCAK256 PUSH2 0xFFFF DUP9 AND DUP5 MSTORE SWAP1 SWAP2 MSTORE SWAP1 KECCAK256 SWAP1 SWAP2 POP PUSH2 0x47FB DUP4 PUSH2 0x12C3 JUMP JUMPDEST DUP2 SLOAD PUSH1 0xA SWAP2 SWAP1 SWAP2 SIGNEXTEND PUSH1 0x1 PUSH1 0x1 PUSH1 0x58 SHL SUB AND PUSH1 0x1 PUSH1 0xA8 SHL MUL PUSH1 0x1 PUSH1 0x1 PUSH1 0xA8 SHL SUB SWAP1 SWAP2 AND OR SWAP1 SSTORE POP POP POP POP JUMP JUMPDEST PUSH1 0x0 DUP1 PUSH2 0x4DC PUSH1 0x21 PUSH2 0x2C03 JUMP JUMPDEST PUSH1 0x60 SWAP1 SWAP2 ADD MLOAD PUSH1 0xFF SWAP2 SHR AND PUSH3 0x2625A0 MUL SWAP1 JUMP JUMPDEST PUSH1 0x0 DUP1 PUSH2 0x4DC PUSH1 0xB PUSH2 0x2C03 JUMP JUMPDEST PUSH1 0x0 PUSH3 0x15180 DUP3 LT ISZERO PUSH2 0x4865 JUMPI PUSH1 0x0 DUP1 REVERT JUMPDEST PUSH3 0x15180 DUP3 PUSH2 0x1A25 JUMP JUMPDEST PUSH1 0x0 DUP2 PUSH2 0x487B JUMPI PUSH1 0x0 DUP1 REVERT JUMPDEST PUSH1 0x1 PUSH1 0x80 SHL DUP3 LT PUSH2 0x488E JUMPI PUSH1 0x80 SWAP2 DUP3 SHR SWAP2 ADD JUMPDEST PUSH1 0x1 PUSH1 0x40 SHL DUP3 LT PUSH2 0x48A1 JUMPI PUSH1 0x40 SWAP2 DUP3 SHR SWAP2 ADD JUMPDEST PUSH5 0x100000000 DUP3 LT PUSH2 0x48B5 JUMPI PUSH1 0x20 SWAP2 DUP3 SHR SWAP2 ADD JUMPDEST PUSH3 0x10000 DUP3 LT PUSH2 0x48C7 JUMPI PUSH1 0x10 SWAP2 DUP3 SHR SWAP2 ADD JUMPDEST PUSH2 0x100 DUP3 LT PUSH2 0x48D8 JUMPI PUSH1 0x8 SWAP2 DUP3 SHR SWAP2 ADD JUMPDEST PUSH1 0x10 DUP3 LT PUSH2 0x48E8 JUMPI PUSH1 0x4 SWAP2 DUP3 SHR SWAP2 ADD JUMPDEST PUSH1 0x4 DUP3 LT PUSH2 0x48F8 JUMPI PUSH1 0x2 SWAP2 DUP3 SHR SWAP2 ADD JUMPDEST PUSH1 0x2 DUP3 LT PUSH2 0x35D JUMPI PUSH1 0x1 ADD SWAP2 SWAP1 POP JUMP JUMPDEST PUSH1 0x60 PUSH1 0x8 DUP3 PUSH1 0xFF AND GT ISZERO PUSH2 0x491B JUMPI PUSH1 0x0 DUP1 REVERT JUMPDEST PUSH1 0x0 PUSH2 0x4925 PUSH2 0x4BE1 JUMP JUMPDEST PUSH1 0x1 PUSH1 0x1 PUSH1 0xA0 SHL SUB DUP6 AND PUSH1 0x0 SWAP1 DUP2 MSTORE PUSH1 0x20 DUP3 SWAP1 MSTORE PUSH1 0x40 DUP2 KECCAK256 SWAP2 SWAP3 POP PUSH1 0xFF DUP6 AND PUSH8 0xFFFFFFFFFFFFFFFF DUP2 GT DUP1 ISZERO PUSH2 0x495A JUMPI PUSH1 0x0 DUP1 REVERT JUMPDEST POP PUSH1 0x40 MLOAD SWAP1 DUP1 DUP3 MSTORE DUP1 PUSH1 0x20 MUL PUSH1 0x20 ADD DUP3 ADD PUSH1 0x40 MSTORE DUP1 ISZERO PUSH2 0x4994 JUMPI DUP2 PUSH1 0x20 ADD JUMPDEST PUSH2 0x4981 PUSH2 0x4E6E JUMP JUMPDEST DUP2 MSTORE PUSH1 0x20 ADD SWAP1 PUSH1 0x1 SWAP1 SUB SWAP1 DUP2 PUSH2 0x4979 JUMPI SWAP1 POP JUMPDEST POP SWAP1 POP PUSH1 0x0 JUMPDEST DUP6 PUSH1 0xFF AND DUP2 LT ISZERO PUSH2 0x724 JUMPI PUSH1 0x0 DUP4 DUP3 PUSH1 0x8 DUP2 LT PUSH2 0x49B3 JUMPI INVALID JUMPDEST ADD SWAP1 POP PUSH1 0x0 DUP4 DUP4 DUP2 MLOAD DUP2 LT PUSH2 0x49C4 JUMPI INVALID JUMPDEST PUSH1 0x20 SWAP1 DUP2 MUL SWAP2 SWAP1 SWAP2 ADD DUP2 ADD MLOAD DUP4 SLOAD PUSH2 0xFFFF DUP2 AND DUP3 MSTORE PUSH5 0xFFFFFFFFFF PUSH3 0x10000 DUP3 DIV AND SWAP3 DUP3 ADD SWAP3 SWAP1 SWAP3 MSTORE PUSH1 0xFF PUSH1 0x1 PUSH1 0x38 SHL DUP4 DIV AND PUSH1 0x40 DUP3 ADD MSTORE PUSH1 0x1 PUSH1 0x40 SHL SWAP1 SWAP2 DIV PUSH1 0xA SWAP1 DUP2 SIGNEXTEND SWAP1 SIGNEXTEND PUSH1 0x60 DUP3 ADD MSTORE PUSH1 0x80 ADD SWAP2 SWAP1 SWAP2 MSTORE POP PUSH1 0x1 ADD PUSH2 0x499A JUMP JUMPDEST DUP1 MLOAD PUSH1 0x60 SWAP1 DUP1 PUSH8 0xFFFFFFFFFFFFFFFF DUP2 GT DUP1 ISZERO PUSH2 0x4A3C JUMPI PUSH1 0x0 DUP1 REVERT JUMPDEST POP PUSH1 0x40 MLOAD SWAP1 DUP1 DUP3 MSTORE DUP1 PUSH1 0x20 MUL PUSH1 0x20 ADD DUP3 ADD PUSH1 0x40 MSTORE DUP1 ISZERO PUSH2 0x4A66 JUMPI DUP2 PUSH1 0x20 ADD PUSH1 0x20 DUP3 MUL DUP1 CALLDATASIZE DUP4 CALLDATACOPY ADD SWAP1 POP JUMPDEST POP SWAP2 POP PUSH1 0x0 JUMPDEST DUP2 DUP2 LT ISZERO PUSH2 0x4AC3 JUMPI PUSH1 0x0 DUP5 DUP3 DUP2 MLOAD DUP2 LT PUSH2 0x4A82 JUMPI INVALID JUMPDEST PUSH1 0x20 MUL PUSH1 0x20 ADD ADD MLOAD SWAP1 POP PUSH2 0x4AA3 DUP2 PUSH1 0x0 ADD MLOAD DUP3 PUSH1 0x20 ADD MLOAD DUP4 PUSH1 0x40 ADD MLOAD PUSH2 0x4BEE JUMP JUMPDEST DUP5 DUP4 DUP2 MLOAD DUP2 LT PUSH2 0x4AAF JUMPI INVALID JUMPDEST PUSH1 0x20 SWAP1 DUP2 MUL SWAP2 SWAP1 SWAP2 ADD ADD MSTORE POP PUSH1 0x1 ADD PUSH2 0x4A6C JUMP JUMPDEST POP PUSH1 0x1 JUMPDEST DUP2 DUP2 LT ISZERO PUSH2 0x4BDA JUMPI DUP1 JUMPDEST PUSH1 0x0 DUP2 GT DUP1 ISZERO PUSH2 0x4B09 JUMPI POP DUP4 DUP2 DUP2 MLOAD DUP2 LT PUSH2 0x4AE8 JUMPI INVALID JUMPDEST PUSH1 0x20 MUL PUSH1 0x20 ADD ADD MLOAD DUP5 PUSH1 0x1 DUP4 SUB DUP2 MLOAD DUP2 LT PUSH2 0x4AFF JUMPI INVALID JUMPDEST PUSH1 0x20 MUL PUSH1 0x20 ADD ADD MLOAD GT JUMPDEST ISZERO PUSH2 0x4BD1 JUMPI DUP4 DUP2 DUP2 MLOAD DUP2 LT PUSH2 0x4B1A JUMPI INVALID JUMPDEST PUSH1 0x20 MUL PUSH1 0x20 ADD ADD MLOAD DUP5 PUSH1 0x1 DUP4 SUB DUP2 MLOAD DUP2 LT PUSH2 0x4B31 JUMPI INVALID JUMPDEST PUSH1 0x20 MUL PUSH1 0x20 ADD ADD MLOAD DUP6 PUSH1 0x1 DUP5 SUB DUP2 MLOAD DUP2 LT PUSH2 0x4B48 JUMPI INVALID JUMPDEST PUSH1 0x20 MUL PUSH1 0x20 ADD ADD DUP7 DUP5 DUP2 MLOAD DUP2 LT PUSH2 0x4B5B JUMPI INVALID JUMPDEST PUSH1 0x20 MUL PUSH1 0x20 ADD ADD DUP3 DUP2 MSTORE POP DUP3 DUP2 MSTORE POP POP POP DUP5 DUP2 DUP2 MLOAD DUP2 LT PUSH2 0x4B78 JUMPI INVALID JUMPDEST PUSH1 0x20 MUL PUSH1 0x20 ADD ADD MLOAD DUP6 PUSH1 0x1 DUP4 SUB DUP2 MLOAD DUP2 LT PUSH2 0x4B8F JUMPI INVALID JUMPDEST PUSH1 0x20 MUL PUSH1 0x20 ADD ADD MLOAD DUP7 PUSH1 0x1 DUP5 SUB DUP2 MLOAD DUP2 LT PUSH2 0x4BA6 JUMPI INVALID JUMPDEST PUSH1 0x20 MUL PUSH1 0x20 ADD ADD DUP8 DUP5 DUP2 MLOAD DUP2 LT PUSH2 0x4BB9 JUMPI INVALID JUMPDEST PUSH1 0x20 SWAP1 DUP2 MUL SWAP2 SWAP1 SWAP2 ADD ADD SWAP2 SWAP1 SWAP2 MSTORE MSTORE PUSH1 0x0 NOT ADD PUSH2 0x4AD1 JUMP JUMPDEST POP PUSH1 0x1 ADD PUSH2 0x4AC7 JUMP JUMPDEST POP POP SWAP2 SWAP1 POP JUMP JUMPDEST PUSH1 0x0 DUP1 PUSH2 0x4DC PUSH1 0xD PUSH2 0x2C03 JUMP JUMPDEST PUSH8 0xFFFF000000000000 PUSH1 0x30 DUP5 SWAP1 SHL AND PUSH6 0xFFFFFFFFFF00 PUSH1 0x8 DUP5 SWAP1 SHL AND OR PUSH1 0xFF DUP3 AND OR SWAP4 SWAP3 POP POP POP JUMP JUMPDEST PUSH1 0x40 MLOAD DUP1 PUSH1 0xE0 ADD PUSH1 0x40 MSTORE DUP1 PUSH2 0x4C2A PUSH2 0x4DA0 JUMP JUMPDEST DUP2 MSTORE PUSH1 0x20 ADD PUSH2 0x4C37 PUSH2 0x4E46 JUMP JUMPDEST DUP2 MSTORE PUSH1 0x0 PUSH1 0x20 DUP3 ADD DUP2 SWAP1 MSTORE PUSH1 0x40 DUP3 ADD DUP2 SWAP1 MSTORE PUSH1 0x60 DUP3 ADD DUP2 SWAP1 MSTORE PUSH1 0x80 DUP3 ADD DUP2 SWAP1 MSTORE PUSH1 0xA0 SWAP1 SWAP2 ADD MSTORE SWAP1 JUMP JUMPDEST PUSH1 0x40 MLOAD DUP1 PUSH2 0x140 ADD PUSH1 0x40 MSTORE DUP1 PUSH1 0x0 PUSH2 0xFFFF AND DUP2 MSTORE PUSH1 0x20 ADD PUSH1 0x0 DUP2 MSTORE PUSH1 0x20 ADD PUSH1 0x0 DUP2 MSTORE PUSH1 0x20 ADD PUSH1 0x0 DUP2 MSTORE PUSH1 0x20 ADD PUSH1 0x0 DUP2 MSTORE PUSH1 0x20 ADD PUSH1 0x0 DUP2 MSTORE PUSH1 0x20 ADD PUSH1 0x0 DUP2 MSTORE PUSH1 0x20 ADD PUSH1 0x0 DUP2 MSTORE PUSH1 0x20 ADD PUSH1 0x0 DUP2 MSTORE PUSH1 0x20 ADD PUSH2 0x4CB7 PUSH2 0x4CBC JUMP JUMPDEST SWAP1 MSTORE SWAP1 JUMP JUMPDEST PUSH1 0x40 MLOAD DUP1 PUSH1 0x60 ADD PUSH1 0x40 MSTORE DUP1 PUSH1 0x0 DUP2 MSTORE PUSH1 0x20 ADD PUSH1 0x0 DUP2 MSTORE PUSH1 0x20 ADD PUSH1 0x0 DUP2 MSTORE POP SWAP1 JUMP JUMPDEST PUSH1 0x40 MLOAD DUP1 PUSH2 0x120 ADD PUSH1 0x40 MSTORE DUP1 PUSH1 0x0 DUP2 MSTORE PUSH1 0x20 ADD PUSH1 0x0 DUP2 MSTORE PUSH1 0x20 ADD PUSH1 0x0 DUP2 MSTORE PUSH1 0x20 ADD PUSH1 0x0 DUP2 MSTORE PUSH1 0x20 ADD PUSH1 0x0 DUP2 MSTORE PUSH1 0x20 ADD PUSH1 0x0 DUP2 MSTORE PUSH1 0x20 ADD PUSH1 0x0 DUP2 MSTORE PUSH1 0x20 ADD PUSH1 0x0 DUP2 MSTORE PUSH1 0x20 ADD PUSH1 0x0 DUP2 MSTORE POP SWAP1 JUMP JUMPDEST PUSH1 0x40 MLOAD DUP1 PUSH2 0x100 ADD PUSH1 0x40 MSTORE DUP1 PUSH1 0x0 DUP1 NOT AND DUP2 MSTORE PUSH1 0x20 ADD PUSH1 0x0 DUP2 MSTORE PUSH1 0x20 ADD PUSH1 0x0 DUP2 MSTORE PUSH1 0x20 ADD PUSH1 0x0 DUP2 MSTORE PUSH1 0x20 ADD PUSH1 0x0 DUP2 MSTORE PUSH1 0x20 ADD PUSH1 0x0 DUP2 MSTORE PUSH1 0x20 ADD PUSH1 0x0 DUP2 MSTORE PUSH1 0x20 ADD PUSH1 0x0 DUP2 MSTORE POP SWAP1 JUMP JUMPDEST PUSH1 0x40 DUP1 MLOAD PUSH1 0xA0 DUP2 ADD DUP3 MSTORE PUSH1 0x0 DUP1 DUP3 MSTORE PUSH1 0x20 DUP3 ADD DUP2 SWAP1 MSTORE SWAP2 DUP2 ADD DUP3 SWAP1 MSTORE SWAP1 PUSH1 0x60 DUP3 ADD SWAP1 DUP2 MSTORE PUSH1 0x20 ADD PUSH1 0x0 DUP2 MSTORE POP SWAP1 JUMP JUMPDEST PUSH1 0x40 DUP1 MLOAD PUSH1 0x80 DUP2 ADD DUP3 MSTORE PUSH1 0x0 DUP1 DUP3 MSTORE PUSH1 0x20 DUP3 ADD MSTORE SWAP1 DUP2 ADD PUSH2 0x4DBF PUSH2 0x4CBC JUMP JUMPDEST DUP2 MSTORE PUSH1 0x0 PUSH1 0x20 SWAP1 SWAP2 ADD MSTORE SWAP1 JUMP JUMPDEST PUSH1 0x40 DUP1 MLOAD PUSH1 0xC0 DUP2 ADD DUP3 MSTORE PUSH1 0x0 DUP1 DUP3 MSTORE PUSH1 0x20 DUP3 ADD DUP2 SWAP1 MSTORE SWAP2 DUP2 ADD DUP3 SWAP1 MSTORE PUSH1 0x60 DUP2 ADD DUP3 SWAP1 MSTORE PUSH1 0x80 DUP2 ADD DUP3 SWAP1 MSTORE PUSH1 0xA0 DUP2 ADD SWAP2 SWAP1 SWAP2 MSTORE SWAP1 JUMP JUMPDEST PUSH1 0x40 MLOAD DUP1 PUSH2 0x100 ADD PUSH1 0x40 MSTORE DUP1 PUSH1 0x0 DUP2 MSTORE PUSH1 0x20 ADD PUSH1 0x0 DUP2 MSTORE PUSH1 0x20 ADD PUSH1 0x0 DUP2 MSTORE PUSH1 0x20 ADD PUSH1 0x0 DUP2 MSTORE PUSH1 0x20 ADD PUSH1 0x0 DUP2 MSTORE PUSH1 0x20 ADD PUSH1 0x0 DUP2 MSTORE PUSH1 0x20 ADD PUSH1 0x0 DUP2 MSTORE PUSH1 0x20 ADD PUSH1 0x0 DUP2 MSTORE POP SWAP1 JUMP JUMPDEST PUSH1 0x40 MLOAD DUP1 PUSH1 0x80 ADD PUSH1 0x40 MSTORE DUP1 PUSH1 0x60 DUP2 MSTORE PUSH1 0x20 ADD PUSH1 0x60 DUP2 MSTORE PUSH1 0x20 ADD PUSH1 0x0 DUP2 MSTORE PUSH1 0x20 ADD PUSH1 0x0 DUP2 MSTORE POP SWAP1 JUMP JUMPDEST PUSH1 0x40 MLOAD DUP1 PUSH1 0xC0 ADD PUSH1 0x40 MSTORE DUP1 PUSH1 0x0 PUSH2 0xFFFF AND DUP2 MSTORE PUSH1 0x20 ADD PUSH1 0x0 DUP2 MSTORE PUSH1 0x20 ADD PUSH1 0x0 DUP2 MSTORE PUSH1 0x20 ADD PUSH1 0x0 DUP2 MSTORE PUSH1 0x20 ADD PUSH1 0x0 DUP2 MSTORE PUSH1 0x20 ADD PUSH1 0x0 PUSH1 0x3 DUP2 GT ISZERO PUSH2 0x4CB7 JUMPI INVALID JUMPDEST DUP1 CALLDATALOAD DUP1 ISZERO ISZERO DUP2 EQ PUSH2 0x35D JUMPI PUSH1 0x0 DUP1 REVERT JUMPDEST DUP1 CALLDATALOAD PUSH2 0xFFFF DUP2 AND DUP2 EQ PUSH2 0x35D JUMPI PUSH1 0x0 DUP1 REVERT JUMPDEST DUP1 CALLDATALOAD PUSH4 0xFFFFFFFF DUP2 AND DUP2 EQ PUSH2 0x35D JUMPI PUSH1 0x0 DUP1 REVERT JUMPDEST PUSH1 0x0 DUP1 PUSH1 0x40 DUP4 DUP6 SUB SLT ISZERO PUSH2 0x4EF5 JUMPI DUP2 DUP3 REVERT JUMPDEST DUP3 CALLDATALOAD PUSH1 0x1 PUSH1 0x1 PUSH1 0xA0 SHL SUB DUP2 AND DUP2 EQ PUSH2 0x4F0B JUMPI DUP3 DUP4 REVERT JUMPDEST SWAP5 PUSH1 0x20 SWAP4 SWAP1 SWAP4 ADD CALLDATALOAD SWAP4 POP POP POP JUMP JUMPDEST PUSH1 0x0 PUSH1 0x20 DUP3 DUP5 SUB SLT ISZERO PUSH2 0x4F2A JUMPI DUP1 DUP2 REVERT JUMPDEST PUSH2 0x5A5 DUP3 PUSH2 0x4EBD JUMP JUMPDEST PUSH1 0x0 DUP1 PUSH1 0x40 DUP4 DUP6 SUB SLT ISZERO PUSH2 0x4F45 JUMPI DUP2 DUP3 REVERT JUMPDEST PUSH2 0x4F0B DUP4 PUSH2 0x4EBD JUMP JUMPDEST PUSH1 0x0 DUP1 PUSH1 0x0 PUSH1 0x60 DUP5 DUP7 SUB SLT ISZERO PUSH2 0x4F62 JUMPI DUP1 DUP2 REVERT JUMPDEST PUSH2 0x4F6B DUP5 PUSH2 0x4EBD JUMP JUMPDEST SWAP3 POP PUSH1 0x20 DUP5 ADD CALLDATALOAD SWAP2 POP PUSH2 0x4F80 PUSH1 0x40 DUP6 ADD PUSH2 0x4EAD JUMP JUMPDEST SWAP1 POP SWAP3 POP SWAP3 POP SWAP3 JUMP JUMPDEST PUSH1 0x0 DUP1 PUSH1 0x0 DUP1 PUSH1 0x80 DUP6 DUP8 SUB SLT ISZERO PUSH2 0x4F9E JUMPI DUP1 DUP2 REVERT JUMPDEST PUSH2 0x4FA7 DUP6 PUSH2 0x4EBD JUMP JUMPDEST SWAP4 POP PUSH1 0x20 DUP6 ADD CALLDATALOAD DUP1 PUSH1 0xA SIGNEXTEND DUP2 EQ PUSH2 0x4FBC JUMPI DUP2 DUP3 REVERT JUMPDEST SWAP4 SWAP7 SWAP4 SWAP6 POP POP POP POP PUSH1 0x40 DUP3 ADD CALLDATALOAD SWAP2 PUSH1 0x60 ADD CALLDATALOAD SWAP1 JUMP JUMPDEST PUSH1 0x0 DUP1 PUSH1 0x0 DUP1 PUSH1 0x80 DUP6 DUP8 SUB SLT ISZERO PUSH2 0x4FE6 JUMPI DUP4 DUP5 REVERT JUMPDEST PUSH2 0x4FEF DUP6 PUSH2 0x4EBD JUMP JUMPDEST SWAP7 PUSH1 0x20 DUP7 ADD CALLDATALOAD SWAP7 POP PUSH1 0x40 DUP7 ADD CALLDATALOAD SWAP6 PUSH1 0x60 ADD CALLDATALOAD SWAP5 POP SWAP3 POP POP POP JUMP JUMPDEST PUSH1 0x0 DUP1 PUSH1 0x0 DUP1 PUSH1 0x0 PUSH1 0xA0 DUP7 DUP9 SUB SLT ISZERO PUSH2 0x5020 JUMPI DUP1 DUP2 REVERT JUMPDEST PUSH2 0x5029 DUP7 PUSH2 0x4EBD JUMP JUMPDEST SWAP5 POP PUSH1 0x20 DUP7 ADD CALLDATALOAD SWAP4 POP PUSH1 0x40 DUP7 ADD CALLDATALOAD SWAP3 POP PUSH1 0x60 DUP7 ADD CALLDATALOAD SWAP2 POP PUSH2 0x504C PUSH1 0x80 DUP8 ADD PUSH2 0x4EAD JUMP JUMPDEST SWAP1 POP SWAP3 SWAP6 POP SWAP3 SWAP6 SWAP1 SWAP4 POP JUMP JUMPDEST PUSH1 0x0 DUP1 PUSH1 0x0 DUP1 PUSH1 0x0 PUSH1 0xA0 DUP7 DUP9 SUB SLT ISZERO PUSH2 0x506F JUMPI DUP1 DUP2 REVERT JUMPDEST PUSH2 0x5078 DUP7 PUSH2 0x4EBD JUMP JUMPDEST SWAP5 POP PUSH1 0x20 DUP7 ADD CALLDATALOAD SWAP4 POP PUSH1 0x40 DUP7 ADD CALLDATALOAD SWAP3 POP PUSH2 0x5094 PUSH1 0x60 DUP8 ADD PUSH2 0x4ECF JUMP JUMPDEST SWAP5 SWAP8 SWAP4 SWAP7 POP SWAP2 SWAP5 PUSH1 0x80 ADD CALLDATALOAD SWAP3 SWAP2 POP POP JUMP JUMPDEST PUSH1 0x0 DUP1 PUSH1 0x0 DUP1 PUSH1 0x0 DUP1 PUSH1 0xC0 DUP8 DUP10 SUB SLT ISZERO PUSH2 0x50BD JUMPI DUP1 DUP2 REVERT JUMPDEST PUSH2 0x50C6 DUP8 PUSH2 0x4EBD JUMP JUMPDEST SWAP6 POP PUSH1 0x20 DUP8 ADD CALLDATALOAD SWAP5 POP PUSH1 0x40 DUP8 ADD CALLDATALOAD SWAP4 POP PUSH2 0x50E2 PUSH1 0x60 DUP9 ADD PUSH2 0x4ECF JUMP JUMPDEST SWAP3 POP PUSH1 0x80 DUP8 ADD CALLDATALOAD SWAP2 POP PUSH2 0x50F7 PUSH1 0xA0 DUP9 ADD PUSH2 0x4EAD JUMP JUMPDEST SWAP1 POP SWAP3 SWAP6 POP SWAP3 SWAP6 POP SWAP3 SWAP6 JUMP JUMPDEST PUSH1 0x0 DUP1 PUSH1 0x40 DUP4 DUP6 SUB SLT ISZERO PUSH2 0x5115 JUMPI DUP2 DUP3 REVERT JUMPDEST PUSH2 0x511E DUP4 PUSH2 0x4EBD JUMP JUMPDEST SWAP2 POP PUSH1 0x20 DUP4 ADD CALLDATALOAD PUSH1 0x1 PUSH1 0x1 PUSH1 0x58 SHL SUB DUP2 AND DUP2 EQ PUSH2 0x5139 JUMPI DUP2 DUP3 REVERT JUMPDEST DUP1 SWAP2 POP POP SWAP3 POP SWAP3 SWAP1 POP JUMP JUMPDEST PUSH1 0x0 DUP1 PUSH1 0x40 DUP4 DUP6 SUB SLT ISZERO PUSH2 0x5156 JUMPI DUP2 DUP3 REVERT JUMPDEST POP POP DUP1 CALLDATALOAD SWAP3 PUSH1 0x20 SWAP1 SWAP2 ADD CALLDATALOAD SWAP2 POP JUMP JUMPDEST PUSH1 0x0 DUP1 PUSH1 0x40 DUP4 DUP6 SUB SLT ISZERO PUSH2 0x5177 JUMPI DUP2 DUP3 REVERT JUMPDEST POP POP DUP1 MLOAD PUSH1 0x20 SWAP1 SWAP2 ADD MLOAD SWAP1 SWAP3 SWAP1 SWAP2 POP JUMP JUMPDEST PUSH1 0x1 PUSH1 0x1 PUSH1 0xA0 SHL SUB SWAP2 SWAP1 SWAP2 AND DUP2 MSTORE PUSH1 0x20 ADD SWAP1 JUMP JUMPDEST PUSH1 0x1 PUSH1 0x1 PUSH1 0xA0 SHL SUB SWAP3 SWAP1 SWAP3 AND DUP3 MSTORE PUSH1 0x20 DUP3 ADD MSTORE PUSH1 0x40 ADD SWAP1 JUMP JUMPDEST SWAP1 DUP2 MSTORE PUSH1 0x20 ADD SWAP1 JUMP JUMPDEST SWAP2 DUP3 MSTORE PUSH1 0x20 DUP3 ADD MSTORE PUSH1 0x40 ADD SWAP1 JUMP JUMPDEST PUSH1 0x20 DUP1 DUP3 MSTORE PUSH1 0x16 SWAP1 DUP3 ADD MSTORE PUSH22 0x13585C9AD95D081B9BDD081A5B9A5D1A585B1A5E9959 PUSH1 0x52 SHL PUSH1 0x40 DUP3 ADD MSTORE PUSH1 0x60 ADD SWAP1 JUMP JUMPDEST PUSH1 0x20 DUP1 DUP3 MSTORE PUSH1 0x13 SWAP1 DUP3 ADD MSTORE PUSH19 0x14995C5D5A5C995CC81CD95D1D1B195B595B9D PUSH1 0x6A SHL PUSH1 0x40 DUP3 ADD MSTORE PUSH1 0x60 ADD SWAP1 JUMP JUMPDEST PUSH1 0x20 DUP1 DUP3 MSTORE PUSH1 0xE SWAP1 DUP3 ADD MSTORE PUSH14 0x4E6F20636F6E76657267656E6365 PUSH1 0x90 SHL PUSH1 0x40 DUP3 ADD MSTORE PUSH1 0x60 ADD SWAP1 JUMP JUMPDEST PUSH1 0x20 DUP1 DUP3 MSTORE PUSH1 0xD SWAP1 DUP3 ADD MSTORE PUSH13 0x92DCECC2D8D2C840D2DCC8CAF PUSH1 0x9B SHL PUSH1 0x40 DUP3 ADD MSTORE PUSH1 0x60 ADD SWAP1 JUMP JUMPDEST PUSH1 0x20 DUP1 DUP3 MSTORE PUSH1 0xE SWAP1 DUP3 ADD MSTORE PUSH14 0x125B9D985B1A59081B585C9AD95D PUSH1 0x92 SHL PUSH1 0x40 DUP3 ADD MSTORE PUSH1 0x60 ADD SWAP1 JUMP JUMPDEST PUSH1 0x20 DUP1 DUP3 MSTORE PUSH1 0x16 SWAP1 DUP3 ADD MSTORE PUSH22 0x5472616465206661696C65642C20736C697070616765 PUSH1 0x50 SHL PUSH1 0x40 DUP3 ADD MSTORE PUSH1 0x60 ADD SWAP1 JUMP JUMPDEST PUSH1 0x20 DUP1 DUP3 MSTORE PUSH1 0x12 SWAP1 DUP3 ADD MSTORE PUSH18 0x496E76616C696420626C6F636B2074696D65 PUSH1 0x70 SHL PUSH1 0x40 DUP3 ADD MSTORE PUSH1 0x60 ADD SWAP1 JUMP JUMPDEST PUSH1 0x20 DUP1 DUP3 MSTORE PUSH1 0x13 SWAP1 DUP3 ADD MSTORE PUSH19 0x125B9D985B1A590818DD5C9C995B98DE481A59 PUSH1 0x6A SHL PUSH1 0x40 DUP3 ADD MSTORE PUSH1 0x60 ADD SWAP1 JUMP JUMPDEST PUSH1 0x20 DUP1 DUP3 MSTORE PUSH1 0x11 SWAP1 DUP3 ADD MSTORE PUSH17 0x13DD995C8813585C9AD95D08131A5B5A5D PUSH1 0x7A SHL PUSH1 0x40 DUP3 ADD MSTORE PUSH1 0x60 ADD SWAP1 JUMP JUMPDEST PUSH1 0x20 DUP1 DUP3 MSTORE PUSH1 0x14 SWAP1 DUP3 ADD MSTORE PUSH20 0x13DD995C8811195D9A585D1A5BDB88131A5B5A5D PUSH1 0x62 SHL PUSH1 0x40 DUP3 ADD MSTORE PUSH1 0x60 ADD SWAP1 JUMP JUMPDEST PUSH1 0x0 PUSH2 0x180 DUP3 ADD SWAP1 POP DUP4 MLOAD DUP3 MSTORE PUSH1 0x20 DUP5 ADD MLOAD PUSH1 0x20 DUP4 ADD MSTORE PUSH1 0x40 DUP5 ADD MLOAD PUSH1 0x40 DUP4 ADD MSTORE DUP3 MLOAD PUSH1 0x60 DUP4 ADD MSTORE PUSH1 0x20 DUP4 ADD MLOAD PUSH1 0x80 DUP4 ADD MSTORE PUSH1 0x40 DUP4 ADD MLOAD PUSH1 0xA0 DUP4 ADD MSTORE PUSH1 0x60 DUP4 ADD MLOAD PUSH1 0xC0 DUP4 ADD MSTORE PUSH1 0x80 DUP4 ADD MLOAD PUSH1 0xE0 DUP4 ADD MSTORE PUSH1 0xA0 DUP4 ADD MLOAD PUSH2 0x100 DUP2 DUP2 DUP6 ADD MSTORE PUSH1 0xC0 DUP6 ADD MLOAD PUSH2 0x120 DUP6 ADD MSTORE PUSH1 0xE0 DUP6 ADD MLOAD PUSH2 0x140 DUP6 ADD MSTORE DUP1 DUP6 ADD MLOAD PUSH2 0x160 DUP6 ADD MSTORE POP POP SWAP4 SWAP3 POP POP POP JUMP JUMPDEST SWAP3 DUP4 MSTORE PUSH1 0x20 DUP4 ADD SWAP2 SWAP1 SWAP2 MSTORE PUSH1 0x40 DUP3 ADD MSTORE PUSH1 0x60 ADD SWAP1 JUMP JUMPDEST SWAP4 DUP5 MSTORE PUSH1 0x20 DUP5 ADD SWAP3 SWAP1 SWAP3 MSTORE PUSH1 0xFF AND PUSH1 0x40 DUP4 ADD MSTORE PUSH1 0x60 DUP3 ADD MSTORE PUSH1 0x80 ADD SWAP1 JUMP JUMPDEST PUSH1 0x1 PUSH1 0x1 PUSH1 0x58 SHL SUB SWAP4 SWAP1 SWAP4 AND DUP4 MSTORE PUSH1 0xFF SWAP2 SWAP1 SWAP2 AND PUSH1 0x20 DUP4 ADD MSTORE PUSH1 0x40 DUP3 ADD MSTORE PUSH1 0x60 ADD SWAP1 JUMP JUMPDEST PUSH1 0xFF SWAP2 SWAP1 SWAP2 AND DUP2 MSTORE PUSH1 0x20 ADD SWAP1 JUMP INVALID LOG2 PUSH5 0x6970667358 0x22 SLT KECCAK256 SWAP10 0xDD 0xC0 SWAP13 0xB3 0xF7 PUSH30 0xFE5348763E4542148AAC4CD459C3E2D1D472145A6C60ADAFA264736F6C63 NUMBER STOP SMOD MOD STOP CALLER ","sha1":"ad860e1a1b042c492169186b9bbc00946f601af3","source":"// SPDX-License-Identifier: BSUL-1.1\npragma solidity =0.7.6;\npragma abicoder v2;\n\nimport {\n    PrimeRate,\n    MarketParameters,\n    Token,\n    CashGroupParameters,\n    nTokenPortfolio,\n    AccountContext,\n    BalanceState,\n    TradeActionType,\n    InterestRateParameters,\n    PrimeCashFactors\n} from \"../global/Types.sol\";\nimport {StorageLayoutV1} from \"../global/StorageLayoutV1.sol\";\nimport {Constants} from \"../global/Constants.sol\";\nimport {SafeInt256} from \"../math/SafeInt256.sol\";\nimport {SafeUint256} from \"../math/SafeUint256.sol\";\n\nimport {AccountContextHandler} from \"../internal/AccountContextHandler.sol\";\nimport {BalanceHandler} from \"../internal/balances/BalanceHandler.sol\";\nimport {TokenHandler} from \"../internal/balances/TokenHandler.sol\";\nimport {Incentives} from \"../internal/balances/Incentives.sol\";\nimport {Market} from \"../internal/markets/Market.sol\";\nimport {CashGroup} from \"../internal/markets/CashGroup.sol\";\nimport {DateTime} from \"../internal/markets/DateTime.sol\";\nimport {InterestRateCurve} from \"../internal/markets/InterestRateCurve.sol\";\nimport {PrimeRateLib} from \"../internal/pCash/PrimeRateLib.sol\";\nimport {PrimeCashExchangeRate} from \"../internal/pCash/PrimeCashExchangeRate.sol\";\nimport {nTokenSupply} from \"../internal/nToken/nTokenSupply.sol\";\nimport {nTokenHandler} from \"../internal/nToken/nTokenHandler.sol\";\nimport {nTokenCalculations} from \"../internal/nToken/nTokenCalculations.sol\";\nimport {AssetHandler} from \"../internal/valuation/AssetHandler.sol\";\n\nimport {nTokenMintAction} from \"./actions/nTokenMintAction.sol\";\nimport {NotionalCalculations} from \"../../interfaces/notional/NotionalCalculations.sol\";\n\ncontract CalculationViews is StorageLayoutV1, NotionalCalculations {\n    using TokenHandler for Token;\n    using Market for MarketParameters;\n    using PrimeRateLib for PrimeRate;\n    using CashGroup for CashGroupParameters;\n    using nTokenHandler for nTokenPortfolio;\n    using AccountContextHandler for AccountContext;\n    using BalanceHandler for BalanceState;\n    using SafeInt256 for int256;\n    using SafeUint256 for uint256;\n\n    function _checkValidCurrency(uint16 currencyId) internal view {\n        require(0 < currencyId && currencyId <= maxCurrencyId, \"Invalid currency id\");\n    }\n\n    /** General Calculation View Methods **/\n\n    /// @notice Returns the nTokens that will be minted when some amount of asset tokens are deposited\n    /// @param currencyId id number of the currency\n    /// @param amountToDepositExternalPrecision amount of underlying tokens in native precision\n    /// @return the amount of nTokens that will be minted\n    function calculateNTokensToMint(uint16 currencyId, uint88 amountToDepositExternalPrecision)\n        external\n        view\n        override\n        returns (uint256)\n    {\n        _checkValidCurrency(currencyId);\n        Token memory token = TokenHandler.getUnderlyingToken(currencyId);\n        int256 amountToDepositInternal = token.convertToInternal(int256(amountToDepositExternalPrecision));\n        nTokenPortfolio memory nToken;\n        nToken.loadNTokenPortfolioView(currencyId);\n\n        int256 tokensToMint = nTokenCalculations.calculateTokensToMint(\n            nToken,\n            nToken.cashGroup.primeRate.convertFromUnderlying(amountToDepositInternal),\n            block.timestamp\n        );\n\n        return tokensToMint.toUint();\n    }\n\n    function convertNTokenToUnderlying(uint16 currencyId, int256 nTokenBalance) external view override returns (int256) {\n        (int256 totalPrimePV, nTokenPortfolio memory nToken) = _getNTokenPV(currencyId);\n        int256 valueInPrimeCash = nTokenBalance.mul(totalPrimePV).div(nToken.totalSupply);\n        int256 valueInUnderlying = nToken.cashGroup.primeRate.convertToUnderlying(valueInPrimeCash);\n        return _convertToAmountExternal(currencyId, valueInUnderlying.abs()).toInt();\n    }\n\n    /// @notice Returns the present value of the nToken's assets denominated in asset tokens\n    function nTokenPresentValueAssetDenominated(uint16 currencyId) external view override returns (int256) {\n        (int256 totalPrimePV, /* */) = _getNTokenPV(currencyId);\n        return totalPrimePV;\n    }\n\n    /// @notice Returns the present value of the nToken's assets denominated in underlying\n    function nTokenPresentValueUnderlyingDenominated(uint16 currencyId) external view override returns (int256) {\n        (int256 totalPrimePV, nTokenPortfolio memory nToken) = _getNTokenPV(currencyId);\n        return nToken.cashGroup.primeRate.convertToUnderlying(totalPrimePV);\n    }\n\n    function _getNTokenPV(uint16 currencyId) private view returns (int256, nTokenPortfolio memory) {\n        uint256 blockTime = block.timestamp;\n        nTokenPortfolio memory nToken;\n        nToken.loadNTokenPortfolioView(currencyId);\n\n        int256 totalPrimePV = nTokenCalculations.getNTokenPrimePV(nToken, blockTime);\n        return (totalPrimePV, nToken);\n    }\n\n    /// @notice Returns the fCash amount to send when given a cash amount, be sure to buffer these amounts\n    /// slightly because the liquidity curve is sensitive to changes in block time\n    /// @param currencyId id number of the currency\n    /// @param netCashToAccount denominated in underlying terms in 1e8 decimal precision,\n    //// positive for borrowing, negative for lending\n    /// @param marketIndex market index of the fCash market\n    /// @param blockTime the block time for when the trade will be calculated\n    /// @return the fCash amount from the trade, positive when lending, negative when borrowing. Always in 8 decimals.\n    function getfCashAmountGivenCashAmount(\n        uint16 currencyId,\n        int88 netCashToAccount,\n        uint256 marketIndex,\n        uint256 blockTime\n    ) external view override returns (int256) {\n        _checkValidCurrency(currencyId);\n        CashGroupParameters memory cashGroup = CashGroup.buildCashGroupView(currencyId);\n        return _getfCashAmountGivenCashAmount(netCashToAccount, marketIndex, blockTime, cashGroup);\n    }\n        \n    function _getfCashAmountGivenCashAmount(\n        int88 netUnderlyingToAccount,\n        uint256 marketIndex,\n        uint256 blockTime,\n        CashGroupParameters memory cashGroup\n    ) internal view returns (int256) {\n        MarketParameters memory market;\n        cashGroup.loadMarket(market, marketIndex, false, blockTime);\n\n        require(market.maturity > blockTime, \"Invalid block time\");\n        uint256 timeToMaturity = market.maturity - blockTime;\n        InterestRateParameters memory irParams = InterestRateCurve.getActiveInterestRateParameters(\n            cashGroup.currencyId, marketIndex\n        );\n\n        return InterestRateCurve.getfCashGivenCashAmount(\n            irParams,\n            market.totalfCash,\n            netUnderlyingToAccount,\n            cashGroup.primeRate.convertToUnderlying(market.totalPrimeCash),\n            timeToMaturity\n        );\n    }\n\n    /// @notice Returns the cash amount that will be traded given an fCash amount, be sure to buffer these amounts\n    /// slightly because the liquidity curve is sensitive to changes in block time\n    /// @param currencyId id number of the currency\n    /// @param fCashAmount amount of fCash to trade, negative for borrowing, positive for lending\n    /// @param marketIndex market index of the fCash market\n    /// @param blockTime the block time for when the trade will be calculated\n    /// @return net asset cash amount (positive for borrowing, negative for lending) in 8 decimal precision\n    /// @return underlying cash amount (positive for borrowing, negative for lending) in 8 decimal precision\n    function getCashAmountGivenfCashAmount(\n        uint16 currencyId,\n        int88 fCashAmount,\n        uint256 marketIndex,\n        uint256 blockTime\n    ) external view override returns (int256, int256) {\n        return _getCashAmountGivenfCashAmount(currencyId, fCashAmount, marketIndex, blockTime, 0);\n    }\n\n    function _getCashAmountGivenfCashAmount(\n        uint16 currencyId,\n        int88 fCashAmount,\n        uint256 marketIndex,\n        uint256 blockTime, \n        uint256 rateLimit\n    ) internal view returns (int256, int256) {\n        _checkValidCurrency(currencyId);\n        CashGroupParameters memory cashGroup = CashGroup.buildCashGroupView(currencyId);\n        MarketParameters memory market;\n        cashGroup.loadMarket(market, marketIndex, false, blockTime);\n\n        require(market.maturity > blockTime, \"Invalid block time\");\n        uint256 timeToMaturity = market.maturity - blockTime;\n\n        // prettier-ignore\n        (int256 primeCash, /* int fee */, uint256 postFeeInterestRate) =\n            InterestRateCurve.calculatefCashTrade(market, cashGroup, fCashAmount, timeToMaturity, marketIndex);\n\n        // Check the slippage here and revert\n        if (rateLimit != 0) {\n            if (fCashAmount < 0) {\n                // Do not allow borrows over the rate limit\n                require(postFeeInterestRate <= rateLimit, \"Trade failed, slippage\");\n            } else {\n                // Do not allow lends under the rate limit\n                require(postFeeInterestRate >= rateLimit, \"Trade failed, slippage\");\n            }\n        }\n\n        return (primeCash, cashGroup.primeRate.convertToUnderlying(primeCash));\n    }\n\n    /// @notice Returns the claimable incentives for all nToken balances\n    /// @param account The address of the account which holds the tokens\n    /// @param blockTime The block time when incentives will be minted\n    /// @return Incentives an account is eligible to claim\n    function nTokenGetClaimableIncentives(address account, uint256 blockTime)\n        external\n        view\n        override\n        returns (uint256)\n    {\n        AccountContext memory accountContext = AccountContextHandler.getAccountContext(account);\n        BalanceState memory balanceState;\n        uint256 totalIncentivesClaimable;\n\n        if (accountContext.isBitmapEnabled()) {\n            balanceState.loadBalanceStateView(account, accountContext.bitmapCurrencyId, accountContext);\n            if (balanceState.storedNTokenBalance > 0) {\n                address tokenAddress = nTokenHandler.nTokenAddress(balanceState.currencyId);\n                (\n                    /* uint256 totalSupply */,\n                    uint256 accumulatedNOTEPerNToken,\n                    /* uint256 lastAccumulatedTime */\n                ) = nTokenSupply.getUpdatedAccumulatedNOTEPerNToken(tokenAddress, blockTime);\n\n                uint256 incentivesToClaim = Incentives.calculateIncentivesToClaim(\n                    balanceState,\n                    tokenAddress,\n                    accumulatedNOTEPerNToken,\n                    balanceState.storedNTokenBalance.toUint()\n                );\n                totalIncentivesClaimable = totalIncentivesClaimable.add(incentivesToClaim);\n            }\n        }\n\n        bytes18 currencies = accountContext.activeCurrencies;\n        while (currencies != 0) {\n            uint16 currencyId = uint16(bytes2(currencies) & Constants.UNMASK_FLAGS);\n            balanceState.loadBalanceStateView(account, currencyId, accountContext);\n\n            if (balanceState.storedNTokenBalance > 0) {\n                address tokenAddress = nTokenHandler.nTokenAddress(balanceState.currencyId);\n                (\n                    /* uint256 totalSupply */,\n                    uint256 accumulatedNOTEPerNToken,\n                    /* uint256 lastAccumulatedTime */\n                ) = nTokenSupply.getUpdatedAccumulatedNOTEPerNToken(tokenAddress, blockTime);\n\n                uint256 incentivesToClaim = Incentives.calculateIncentivesToClaim(\n                    balanceState,\n                    tokenAddress,\n                    accumulatedNOTEPerNToken,\n                    balanceState.storedNTokenBalance.toUint()\n                );\n                totalIncentivesClaimable = totalIncentivesClaimable.add(incentivesToClaim);\n            }\n\n            currencies = currencies << 16;\n        }\n\n        return totalIncentivesClaimable;\n    }\n\n    /// @notice Returns the present value of the given fCash amount using Notional internal oracle rates\n    /// @param currencyId id number of the currency\n    /// @param maturity timestamp of the fCash maturity\n    /// @param notional amount of fCash notional\n    /// @param blockTime the block time for when the trade will be calculated\n    /// @param riskAdjusted true if haircuts and buffers should be applied to the oracle rate\n    /// @return presentValue of fCash in 8 decimal precision and underlying denomination\n    function getPresentfCashValue(\n        uint16 currencyId,\n        uint256 maturity,\n        int256 notional,\n        uint256 blockTime,\n        bool riskAdjusted\n    ) external view override returns (int256 presentValue) {\n        CashGroupParameters memory cg = CashGroup.buildCashGroupView(currencyId);\n        if (riskAdjusted) {\n            presentValue = AssetHandler.getRiskAdjustedPresentfCashValue(\n                cg, notional, maturity, blockTime\n            );\n        } else {\n            presentValue = AssetHandler.getPresentfCashValue(\n                notional,\n                maturity,\n                blockTime,\n                cg.calculateOracleRate(maturity, blockTime)\n            );\n        }\n    }\n\n    /// @notice Returns a market index value for a given maturity\n    /// @param maturity an fCash maturity\n    /// @param blockTime the block time for when the trade will be calculated\n    /// @return marketIndex a value between 1 and 7 that represents the marketIndex (tenor)\n    /// that corresponds to the maturity. Returns 0 if there is no corresponding marketIndex\n    function getMarketIndex(\n        uint256 maturity,\n        uint256 blockTime\n    ) public pure override returns (uint8 marketIndex) {\n        (\n            uint256 _marketIndex,\n            bool isIdiosyncratic\n        ) = DateTime.getMarketIndex(Constants.MAX_TRADED_MARKET_INDEX, maturity, blockTime);\n\n        // Market Index cannot be greater than 7 by construction\n        marketIndex = isIdiosyncratic ? 0 : uint8(_marketIndex);\n    }\n\n    /// @notice Returns the amount of fCash that would received if lending deposit amount.\n    /// @param currencyId id number of the currency\n    /// @param depositAmountExternal amount to deposit in the token's native precision. For aTokens use\n    /// what is returned by the balanceOf selector (not scaledBalanceOf).\n    /// @param maturity the maturity of the fCash to lend\n    /// @param minLendRate the minimum lending rate (slippage protection)\n    /// @param blockTime the block time for when the trade will be calculated\n    /// @param useUnderlying true if specifying the underlying token, false if specifying prime cash\n    /// @return fCashAmount the amount of fCash that the lender will receive\n    /// @return marketIndex the corresponding market index for the lending\n    /// @return encodedTrade the encoded bytes32 object to pass to batch trade\n    function getfCashLendFromDeposit(\n        uint16 currencyId,\n        uint256 depositAmountExternal,\n        uint256 maturity,\n        uint32 minLendRate,\n        uint256 blockTime,\n        bool useUnderlying\n    ) external view override returns (\n        uint88 fCashAmount,\n        uint8 marketIndex,\n        bytes32 encodedTrade\n    ) {\n        marketIndex = getMarketIndex(maturity, blockTime);\n        require(marketIndex > 0);\n\n        (\n            int256 underlyingInternal,\n            CashGroupParameters memory cashGroup\n        ) = _convertDepositAmountToUnderlyingInternal(currencyId, depositAmountExternal, useUnderlying);\n        int256 fCash = _getfCashAmountGivenCashAmount(underlyingInternal.neg().toInt88(), marketIndex, blockTime, cashGroup);\n        require(0 < fCash);\n\n        (\n            encodedTrade,\n            fCashAmount\n        ) = _encodeLendBorrowTrade(TradeActionType.Lend, marketIndex, fCash, minLendRate);\n    }\n\n    /// @notice Returns the amount of fCash that would received if lending deposit amount.\n    /// @param currencyId id number of the currency\n    /// @param borrowedAmountExternal amount to borrow in the token's native precision.\n    /// @param maturity the maturity of the fCash to lend\n    /// @param maxBorrowRate the maximum borrow rate (slippage protection). If zero then no slippage will be applied\n    /// @param blockTime the block time for when the trade will be calculated\n    /// @param useUnderlying true if specifying the underlying token, false if specifying prime cash\n    /// @return fCashDebt the amount of fCash that the borrower will owe, this will be stored as a negative\n    /// balance in Notional\n    /// @return marketIndex the corresponding market index for the lending\n    /// @return encodedTrade the encoded bytes32 object to pass to batch trade\n    function getfCashBorrowFromPrincipal(\n        uint16 currencyId,\n        uint256 borrowedAmountExternal,\n        uint256 maturity,\n        uint32 maxBorrowRate,\n        uint256 blockTime,\n        bool useUnderlying\n    ) external view override returns (\n        uint88 fCashDebt,\n        uint8 marketIndex,\n        bytes32 encodedTrade\n    ) {\n        marketIndex = getMarketIndex(maturity, blockTime);\n        require(marketIndex > 0);\n\n        (\n            int256 underlyingInternal,\n            CashGroupParameters memory cashGroup\n        ) = _convertDepositAmountToUnderlyingInternal(currencyId, borrowedAmountExternal, useUnderlying);\n        int256 fCash = _getfCashAmountGivenCashAmount(underlyingInternal.toInt88(), marketIndex, blockTime, cashGroup);\n        require(fCash < 0);\n\n        (\n            encodedTrade,\n            fCashDebt\n        ) = _encodeLendBorrowTrade(TradeActionType.Borrow, marketIndex, fCash, maxBorrowRate);\n    }\n\n    /// @notice Returns the amount of underlying cash and asset cash required to lend fCash. When specifying a\n    /// trade, deposit either underlying or asset tokens (not both). Asset tokens tend to be more gas efficient.\n    /// @param currencyId id number of the currency\n    /// @param fCashAmount amount of fCash (in underlying) that will be received at maturity. Always 8 decimal precision.\n    /// @param maturity the maturity of the fCash to lend\n    /// @param minLendRate the minimum lending rate (slippage protection)\n    /// @param blockTime the block time for when the trade will be calculated\n    /// @return depositAmountUnderlying the amount of underlying tokens the lender must deposit\n    /// @return depositAmountPrimeCash the amount of prime cash tokens the lender must deposit or mint\n    /// @return marketIndex the corresponding market index for the lending\n    /// @return encodedTrade the encoded bytes32 object to pass to batch trade\n    function getDepositFromfCashLend(\n        uint16 currencyId,\n        uint256 fCashAmount,\n        uint256 maturity,\n        uint32 minLendRate,\n        uint256 blockTime\n    ) external view override returns (\n        uint256 depositAmountUnderlying,\n        uint256 depositAmountPrimeCash,\n        uint8 marketIndex,\n        bytes32 encodedTrade\n    ) {\n        marketIndex = getMarketIndex(maturity, blockTime);\n        require(marketIndex > 0);\n        require(fCashAmount < uint256(int256(type(int88).max)));\n\n        int88 fCash = int88(SafeInt256.toInt(fCashAmount));\n        (\n            int256 primeCash,\n            int256 underlyingCashInternal\n        ) = _getCashAmountGivenfCashAmount(currencyId, fCash, marketIndex, blockTime, minLendRate);\n\n        depositAmountUnderlying = _convertToAmountExternal(currencyId, underlyingCashInternal);\n        depositAmountPrimeCash = primeCash.neg().toUint();\n        (encodedTrade, /* */) = _encodeLendBorrowTrade(TradeActionType.Lend, marketIndex, fCash, minLendRate);\n    }\n\n    /// @notice Returns the amount of underlying cash and asset cash required to borrow fCash. When specifying a\n    /// trade, choose to receive either underlying or asset tokens (not both). Asset tokens tend to be more gas efficient.\n    /// @param currencyId id number of the currency\n    /// @param fCashBorrow amount of fCash (in underlying) that will be received at maturity. Always 8 decimal precision.\n    /// @param maturity the maturity of the fCash to lend\n    /// @param maxBorrowRate the maximum borrow rate (slippage protection)\n    /// @param blockTime the block time for when the trade will be calculated\n    /// @return borrowAmountUnderlying the amount of underlying tokens the borrower will receive\n    /// @return borrowAmountPrimeCash the amount of prime cash tokens the borrower will receive\n    /// @return marketIndex the corresponding market index for the lending\n    /// @return encodedTrade the encoded bytes32 object to pass to batch trade\n    function getPrincipalFromfCashBorrow(\n        uint16 currencyId,\n        uint256 fCashBorrow,\n        uint256 maturity,\n        uint32 maxBorrowRate,\n        uint256 blockTime\n    ) external view override returns (\n        uint256 borrowAmountUnderlying,\n        uint256 borrowAmountPrimeCash,\n        uint8 marketIndex,\n        bytes32 encodedTrade\n    ) {\n        marketIndex = getMarketIndex(maturity, blockTime);\n        require(marketIndex > 0);\n        require(fCashBorrow < uint256(int256(type(int88).max)));\n\n        int88 fCash = int88(SafeInt256.toInt(fCashBorrow).neg());\n        (\n            int256 primeCash,\n            int256 underlyingCashInternal\n        ) = _getCashAmountGivenfCashAmount(currencyId, fCash, marketIndex, blockTime, maxBorrowRate);\n\n        borrowAmountUnderlying = _convertToAmountExternal(currencyId, underlyingCashInternal);\n        borrowAmountPrimeCash = primeCash.toUint();\n        (encodedTrade, /* */) = _encodeLendBorrowTrade(TradeActionType.Borrow, marketIndex, fCash, maxBorrowRate);\n    }\n\n    /// @notice Converts an prime cash balance to an external token denomination\n    /// @param currencyId the currency id of the cash balance\n    /// @param primeCashBalance the signed cash balance that is stored in Notional\n    /// @param convertToUnderlying true if the value should be converted to underlying\n    /// @return the cash balance converted to the external token denomination\n    function convertCashBalanceToExternal(\n        uint16 currencyId,\n        int256 primeCashBalance,\n        bool convertToUnderlying\n    ) external view override returns (int256) {\n        // Prime cash is just 1-1 with itself, no external conversion\n        if (!convertToUnderlying) return primeCashBalance;\n\n        (PrimeRate memory pr, /* */) = PrimeCashExchangeRate\n            .getPrimeCashRateView(currencyId, block.timestamp);\n\n        int256 underlyingBalance = pr.convertToUnderlying(primeCashBalance);\n        int256 externalAmount = _convertToAmountExternal(currencyId, underlyingBalance.abs()).toInt();\n        return underlyingBalance < 0 ? externalAmount.neg() : externalAmount;\n    }\n\n    /// @notice Converts an underlying balance to prime cash\n    /// @param currencyId the currency id of the cash balance\n    /// @param underlyingExternal the underlying external token balance\n    /// @return the underlying balance converted to prime cash\n    function convertUnderlyingToPrimeCash(\n        uint16 currencyId,\n        int256 underlyingExternal\n    ) external view override returns (int256) {\n        (PrimeRate memory pr, /* */) = PrimeCashExchangeRate.getPrimeCashRateView(currencyId, block.timestamp);\n        Token memory token = TokenHandler.getUnderlyingToken(currencyId);\n        int256 underlyingInternal = token.convertToInternal(underlyingExternal);\n        return pr.convertFromUnderlying(underlyingInternal);\n    }\n\n    /// @notice Converts fCash to its settled prime cash value at the specified block time\n    /// @param currencyId the currency id of the fCash asset\n    /// @param maturity the timestamp when the fCash asset matures\n    /// @param fCashBalance signed balance of fcash\n    /// @param blockTime block time to convert to settled prime value, must be greater than maturity\n    /// @return signedPrimeSupplyValue amount of prime cash to be received or owed to the protocol\n    function convertSettledfCash(\n        uint16 currencyId,\n        uint256 maturity,\n        int256 fCashBalance,\n        uint256 blockTime\n    ) external view override returns (int256 signedPrimeSupplyValue) {\n        require(maturity <= blockTime);\n        (PrimeRate memory pr, /* */) = PrimeCashExchangeRate.getPrimeCashRateView(currencyId, blockTime);\n        return pr.convertSettledfCashView(currencyId, maturity, fCashBalance, blockTime);\n    }\n\n    /// @notice Accrues prime interest and updates state up to the current block\n    function accruePrimeInterest(\n        uint16 currencyId\n    ) external override returns (PrimeRate memory pr, PrimeCashFactors memory factors) {\n        pr = PrimeRateLib.buildPrimeRateStateful(currencyId);\n        factors = PrimeCashExchangeRate.getPrimeCashFactors(currencyId);\n    }\n\n    function _convertToAmountExternal(uint16 currencyId, int256 depositAmountInternal) private view returns (uint256) {\n        Token memory token = TokenHandler.getUnderlyingToken(currencyId);\n        int256 amountExternal = depositAmountInternal < 0 ?\n            // We have to do a special rounding adjustment for underlying internal deposits from lending.\n            token.convertToUnderlyingExternalWithAdjustment(depositAmountInternal.neg()) :\n            token.convertToExternal(depositAmountInternal).abs();\n\n        return SafeInt256.toUint(amountExternal);\n    }\n\n    /// @notice Converts an external deposit amount to an internal deposit amount\n    function _convertDepositAmountToUnderlyingInternal(\n        uint16 currencyId,\n        uint256 depositAmountExternal,\n        bool useUnderlying\n    ) private view returns (int256 underlyingInternal, CashGroupParameters memory cashGroup) {\n        int256 depositAmount = depositAmountExternal.toInt();\n        cashGroup = CashGroup.buildCashGroupView(currencyId);\n\n        if (useUnderlying) {\n            Token memory token = TokenHandler.getUnderlyingToken(currencyId);\n            underlyingInternal = token.convertToInternal(depositAmount);\n        } else {\n            // In this case, depositAmount is prime cash denominated\n            underlyingInternal = cashGroup.primeRate.convertToUnderlying(depositAmount);\n        }\n    }\n\n    function _encodeLendBorrowTrade(\n        TradeActionType actionType,\n        uint8 marketIndex,\n        int256 fCash,\n        uint32 slippage\n    ) private pure returns (bytes32 encodedTrade, uint88 fCashAmount) {\n        uint256 absfCash = uint256(fCash.abs());\n        require(absfCash <= uint256(type(uint88).max));\n\n        encodedTrade = bytes32(\n            (uint256(uint8(actionType)) << 248) |\n            (uint256(marketIndex) << 240) |\n            (uint256(absfCash) << 152) |\n            (uint256(slippage) << 120)\n        );\n\n        fCashAmount = uint88(absfCash);\n    }\n}","sourcePath":"contracts/external/CalculationViews.sol","type":"contract","deployment":{"address":"0x964b086F5F003DFFA5eF36299D4082Df0167dfEa","chainid":"42161","blockHeight":182817347}}