{"abi":[{"inputs":[{"internalType":"address","name":"account","type":"address"},{"internalType":"uint16","name":"currencyId","type":"uint16"},{"internalType":"uint256","name":"amountExternalPrecision","type":"uint256"}],"name":"depositAssetToken","outputs":[{"internalType":"uint256","name":"","type":"uint256"}],"stateMutability":"nonpayable","type":"function"},{"inputs":[{"internalType":"address","name":"account","type":"address"},{"internalType":"uint16","name":"currencyId","type":"uint16"},{"internalType":"uint256","name":"amountExternalPrecision","type":"uint256"}],"name":"depositUnderlyingToken","outputs":[{"internalType":"uint256","name":"","type":"uint256"}],"stateMutability":"payable","type":"function"},{"inputs":[{"internalType":"uint16","name":"currencyId","type":"uint16"}],"name":"enableBitmapCurrency","outputs":[],"stateMutability":"nonpayable","type":"function"},{"inputs":[{"internalType":"bool","name":"allowPrimeBorrow","type":"bool"}],"name":"enablePrimeBorrow","outputs":[],"stateMutability":"nonpayable","type":"function"},{"inputs":[],"name":"getLibInfo","outputs":[{"internalType":"address","name":"","type":"address"},{"internalType":"address","name":"","type":"address"},{"internalType":"address","name":"","type":"address"},{"internalType":"address","name":"","type":"address"}],"stateMutability":"pure","type":"function"},{"inputs":[{"internalType":"address","name":"redeemer","type":"address"},{"internalType":"uint16","name":"currencyId","type":"uint16"},{"internalType":"uint96","name":"tokensToRedeem_","type":"uint96"},{"internalType":"bool","name":"sellTokenAssets","type":"bool"},{"internalType":"bool","name":"acceptResidualAssets","type":"bool"}],"name":"nTokenRedeem","outputs":[{"internalType":"int256","name":"","type":"int256"},{"internalType":"bool","name":"","type":"bool"}],"stateMutability":"nonpayable","type":"function"},{"inputs":[],"name":"owner","outputs":[{"internalType":"address","name":"","type":"address"}],"stateMutability":"view","type":"function"},{"inputs":[],"name":"pauseGuardian","outputs":[{"internalType":"address","name":"","type":"address"}],"stateMutability":"view","type":"function"},{"inputs":[],"name":"pauseRouter","outputs":[{"internalType":"address","name":"","type":"address"}],"stateMutability":"view","type":"function"},{"inputs":[{"internalType":"address","name":"account","type":"address"}],"name":"settleAccount","outputs":[{"internalType":"bool","name":"","type":"bool"}],"stateMutability":"nonpayable","type":"function"},{"inputs":[{"internalType":"uint16","name":"currencyId","type":"uint16"},{"internalType":"uint88","name":"amountInternalPrecision","type":"uint88"},{"internalType":"bool","name":"redeemToUnderlying","type":"bool"}],"name":"withdraw","outputs":[{"internalType":"uint256","name":"","type":"uint256"}],"stateMutability":"nonpayable","type":"function"}],"bytecode":"608060405234801561001057600080fd5b50614d0e806100206000396000f3fe60806040526004361061009c5760003560e01c80638246336711610064578063824633671461015c5780638da5cb5b146101715780639c97945014610186578063b8a69455146101a6578063c4c96dae146101c6578063f667f897146101eb5761009c565b806302f332e8146100a157806324a3d622146100d75780632890fb65146100f957806361d0d61c1461010c578063668906431461012e575b600080fd5b3480156100ad57600080fd5b506100c16100bc366004614787565b610218565b6040516100ce9190614c41565b60405180910390f35b3480156100e357600080fd5b506100ec61039a565b6040516100ce9190614872565b6100c16101073660046143d9565b6103a9565b34801561011857600080fd5b5061012c6101273660046145a2565b610462565b005b34801561013a57600080fd5b5061014e610149366004614419565b61049c565b6040516100ce929190614a34565b34801561016857600080fd5b506100ec61073b565b34801561017d57600080fd5b506100ec61074a565b34801561019257600080fd5b5061012c6101a136600461476b565b610761565b3480156101b257600080fd5b506100c16101c13660046143d9565b6107ae565b3480156101d257600080fd5b506101db610828565b6040516100ce9493929190614886565b3480156101f757600080fd5b5061020b6102063660046143bd565b610882565b6040516100ce9190614a29565b60006002600a54141561022a57600080fd5b6002600a5561ffff841660011461026157816102615760405162461bcd60e51b815260040161025890614b34565b60405180910390fd5b600061026c336108b6565b509050610277614074565b6102838133888561097b565b6001600160581b0385811614156102bc5760008160200151136102a557600080fd5b6102b2816020015161099c565b60808201526102d4565b6102ce856001600160581b031661099c565b60808201525b60006102e382338588156109b0565b90506102ef83336109cb565b60208301516001600160f81b0319161561036b57604051636ccc642f60e01b815273__FreeCollateralExternal________________90636ccc642f9061033a903390600401614872565b60006040518083038186803b15801561035257600080fd5b505af4158015610366573d6000803e3d6000fd5b505050505b600081131561037957600080fd5b61038a6103858261099c565b610ae8565b6001600a55979650505050505050565b6002546001600160a01b031681565b60006002600a5414156103bb57600080fd5b6002600a55333014156103cd57600080fd5b336001600160a01b038516146103e257600080fd5b6103eb84610afb565b60006103f685610b76565b9050610400614074565b61040c8187878561097b565b60006104258761041b87610c24565b8491906000610c3a565b90506000811361043457600080fd5b61043f828885610c8c565b61044983886109cb565b6101208201516104599087610caa565b61038a81610ae8565b3330141561046f57600080fd5b61047833610afb565b6000610483336108b6565b5082151560a0820152905061049881336109cb565b5050565b6000806002600a5414156104af57600080fd5b6002600a55336001600160a01b03881614806104ca57503330145b6104e65760405162461bcd60e51b815260040161025890614ade565b6001600160601b03851660006104fb896108b6565b509050610506614074565b610512818b8b8561097b565b82816040015112156105365760405162461bcd60e51b815260040161025890614c14565b61053f8361099c565b60c082015260405163b853e45760e01b8152600090819073__nTokenRedeemAction____________________9063b853e45790610588908f908f908a908f908f9060040161499b565b60006040518083038186803b1580156105a057600080fd5b505af41580156105b4573d6000803e3d6000fd5b505050506040513d6000823e601f3d908101601f191682016040526105dc91908101906145be565b6060850182905290925090506105f3838d86610c8c565b80511561069c5760006106098c61ffff16610ceb565b905073__SettleAssetsExternal__________________63c108fc268e8388866040518563ffffffff1660e01b815260040161064894939291906148b1565b60c06040518083038186803b15801561066057600080fd5b505af4158015610674573d6000803e3d6000fd5b505050506040513d601f19601f8201168201806040525081019061069891906146c8565b9450505b6106a6848d6109cb565b60208401516001600160f81b0319161561072257604051636ccc642f60e01b815273__FreeCollateralExternal________________90636ccc642f906106f1908f90600401614872565b60006040518083038186803b15801561070957600080fd5b505af415801561071d573d6000803e3d6000fd5b505050505b516001600a55909b9015159a5098505050505050505050565b6001546001600160a01b031681565b60005464010000000090046001600160a01b031681565b3330141561076e57600080fd5b60005461ffff908116908216111561078557600080fd5b336000610791826108b6565b50905061079f818442610d11565b6107a981836109cb565b505050565b60006002600a5414156107c057600080fd5b6002600a55333014156107d257600080fd5b336001600160a01b038516146107e757600080fd5b6107f084610afb565b60006107fb85610b76565b9050610805614074565b6108118187878561097b565b60006104258761082087610c24565b849190610e09565b73__FreeCollateralExternal________________73__MigrateIncentives_____________________73__SettleAssetsExternal__________________73__nTokenRedeemAction____________________90919293565b600061088d82610afb565b600080610899846108b6565b9150915080156108ad576108ad82856109cb565b9150505b919050565b6108be6140d0565b6000806108ca84610b76565b90506108d581610ee5565b1561096f576040516337b5fc2160e11b815273__SettleAssetsExternal__________________90636f6bf84290610913908790859060040161497e565b60c06040518083038186803b15801561092b57600080fd5b505af415801561093f573d6000803e3d6000fd5b505050506040513d601f19601f8201168201806040525081019061096391906146c8565b60019250925050610976565b9150600090505b915091565b61098482610f39565b61012085015261099684848484610f4b565b50505050565b60006109aa60001983610ff3565b92915050565b60006109c0858585856001611041565b90505b949350505050565b60006109d56111f7565b6001600160a01b03831660008181526020838152604080832088518154938a01518a84015160608c015160808d015160a08e015164ffffffffff1990981664ffffffffff9095169490941765ff00000000001916600160281b60f89490941c939093029290921766ff0000000000001916600160301b60ff909216919091021768ffff000000000000001916600160381b61ffff90921691909102177affffffffffffffffffffffffffffffffffff0000000000000000001916600160481b60709290921c919091021760ff60d81b1916600160d81b93151593909302929092179091555192935090917f6bd4b121bca854a191536a2ca891155c42ee2fb23f307fb34e8bc65cfcb5412e9190a2505050565b600080821215610af757600080fd5b5090565b6001600160a01b038116610b0e57600080fd5b6001600160a01b038116610fee1415610b2657600080fd5b6001600160a01b0381166105e71415610b3e57600080fd5b6001600160a01b038116301415610b5457600080fd5b6000610b5f82611204565b5050505061ffff1690508060001461049857600080fd5b610b7e6140d0565b6000610b886111f7565b6001600160a01b03841660009081526020918252604090819020815160c081018352905464ffffffffff811682526001600160f81b0319600160281b820460f81b169382019390935260ff600160301b840481169282019290925261ffff600160381b84041660608201526001600160701b0319600160481b840460701b166080820152600160d81b90920416151560a0820152915050919050565b60006001600160ff1b03821115610af757600080fd5b600082610c49575060006109c3565b60008313610c5657600080fd5b610c6c848660000151858861012001518661126d565b6060870151909250610c7f91508261132f565b6060860152949350505050565b608083015115610c9b57600080fd5b61099683838360006001611041565b600080610cb78484611345565b915091508160001415610ccb575050610498565b818111156109965760405162461bcd60e51b815260040161025890614a44565b600080610cf66113b1565b6000938452602052505060409020546001600160a01b031690565b610d1a836113be565b15610d375760405162461bcd60e51b815260040161025890614b6b565b8161ffff166000108015610d515750613fff61ffff831611155b610d6d5760405162461bcd60e51b815260040161025890614be7565b604083015160ff1615610d925760405162461bcd60e51b815260040161025890614ab2565b60208301516001600160f81b03191615610dbe5760405162461bcd60e51b815260040161025890614b99565b610dd38361ffff84166000600160fe1b6113cb565b61ffff821660608401526000610de8826115d1565b905064ffffffffff8110610dfb57600080fd5b64ffffffffff169092525050565b600081610e1857506000610ede565b60008213610e2557600080fd5b6000610e38856000015161ffff166115ef565b80519091506001600160a01b0316610e4f57600080fd5b600181606001516005811115610e6157fe5b1480610e7c5750600281606001516005811115610e7a57fe5b145b15610eb4578451610120860151610e9891839186908890611602565b6060860151909250610eaa908361132f565b6060860152610edc565b600481606001516005811115610ec657fe5b141561009c57610ed98585856000610c3a565b91505b505b9392505050565b600042610ef1836113be565b15610f1257610eff816115d1565b835164ffffffffff161091506108b19050565b825164ffffffffff1615801590610f315750825164ffffffffff168110155b9150506108b1565b610f41614105565b6109aa8242611693565b8161ffff166000108015610f655750613fff61ffff831611155b610f6e57600080fd5b61ffff8216808552610f81908290611754565b15610fb057610f9683838661012001516117de565b61010088015260e087015260408601526020850152610fce565b6000602085018190526040850181905260e085018190526101008501525b50506000606083018190526080830181905260a0830181905260c09092019190915250565b8181026000198314156110235781158061101557508282828161101257fe5b05145b61101e57600080fd5b6109aa565b82158061103857508183828161103557fe5b05145b6109aa57600080fd5b60008061105e86886000015189608001518a610120015188611898565b9150600061107d8860800151896060015161132f90919063ffffffff16565b905083801561108c5750600081125b80156110a7575060208801516000906110a5908361132f565b125b156110cd578560a001516110cd5760405162461bcd60e51b815260040161025890614b0b565b80156110ec5760208801516110e2908261132f565b6020890152600191505b60a0880151151580611101575060c088015115155b1561116a5760006111318960c0015161112b8b60a001518c6040015161132f90919063ffffffff16565b9061132f565b905060008112156111545760405162461bcd60e51b815260040161025890614bc3565b61115f898983611941565b506040890152600191505b8115611199576111998789600001518a602001518b604001518c60e001518d61010001518e6101200151611a38565b875160208901516111c69161ffff16901515806111b9575060408a015115155b889190600160fe1b6113cb565b6000886020015112156111ec57602086018051600160f91b176001600160f81b03191690525b505095945050505050565b6000806109aa6001611b73565b600080600080600080611215611b8c565b6001600160a01b039097166000908152602097909752505060409094205461ffff81169563ffffffff62010000830481169650600160301b830416945060ff600160501b8304169350600160581b90910460d01b9150565b600080600061127b86610ae8565b90508061128f576000809250925050611325565b600061129e8861ffff16611b99565b90506003816060015160058111156112b257fe5b14156112f957348210156112d2576112cd8983340387611bac565b6112f1565b3482146112f15760405162461bcd60e51b815260040161025890614a6d565b869350611313565b61131061130b82600001518b85611c74565b610c24565b93505b611320898986848a611dfc565b925050505b9550959350505050565b818101828112156000831215146109aa57600080fd5b6000806000611352611e43565b61ffff8516600090815260209190915260409020600181015490915061138490600160581b900463ffffffff16611e50565b8154909350600160281b90046001600160581b03166113a66103858783611e5e565b925050509250929050565b6000806109aa6003611b73565b6060015161ffff16151590565b8260001080156113dd5750613fff8311155b6113e657600080fd5b8180156113fa575082846060015161ffff16145b1561140457610996565b6080840151600090815b6001600160701b03198216156115865760f082901c613fff1686811480156114335750855b1561146b57506080870180516001600160f01b0319861660109093029290921c919091176001600160701b0319169052506109969050565b8681148015611478575085155b156114d4576001600160f01b03198516199290921691600360fe1b83166114b2576010836dffffffffffffffffffffffffffff1916901b92505b506001600160701b031991821660109091021c91909117166080850152610996565b86811180156114e05750855b1561153a576080888101516001600160f01b031960f08a901b88178116601086021c9690961795911b161561151457600080fd5b506001600160701b03199182166001919091016010021c91909117166080850152610996565b8681118015611547575085155b156115555750505050610996565b506001600160f01b0319821660108281029190911c93909317929190911b6001600160801b0319169060010161140e565b8461159357505050610996565b600981106115a057600080fd5b6001600160f01b031960f087901b85171660109091021c919091176001600160701b03191660808601525050505050565b6000620151808210156115e357600080fd5b50620151808106900390565b6115f7614126565b6109aa826000611e90565b600061161386600001518486611c74565b935060006116248661ffff16611b99565b9050600060028860600151600581111561163a57fe5b14156116545761164d61130b8988611f2a565b905061167a565b60018860600151600581111561166657fe5b141561009c5761164d61130b898489611fdb565b6116878588838588611dfc565b98975050505050505050565b61169b614105565b60006116a68461219b565b905082816000015110156116e5576000806116c086612263565b90506116ce868483886122e0565b90935091506116de868385612384565b50506116f2565b805183146116f257600080fd5b604051806060016040528061171b61130b8460a001518560c001516125b890919063ffffffff16565b815260200161173e61130b8460a001518560e001516125b890919063ffffffff16565b8152602001826060015181525091505092915050565b600081158015906117675750613fff8211155b61177057600080fd5b6080830151606084015161ffff1683141561178f5760019150506109aa565b6001600160701b03198116156117d45760f081901c613fff16838114156117c15750600160fe1b9081161490506109aa565b5060101b6001600160801b03191661178f565b5060009392505050565b60008060008060006117ee6125df565b6001600160a01b03891660009081526020828152604080832061ffff8c168452909152902080546001600160501b0381169650600160501b900463ffffffff169450909150831561185b57805461185490600160701b900466ffffffffffffff16611e50565b9250611870565b8054600160701b900466ffffffffffffff1692505b805461188b908890600160a81b9004600a90810b900b6125ec565b9550505093509350935093565b6000836118a757506000611938565b600084126118b457600080fd5b60006118c38661ffff16611b99565b90506118d8816118d38688611e5e565b61261a565b915060006118e58361099c565b90506118f2878383612652565b60038260600151600581111561190457fe5b141561191a57611915888286611bac565b611927565b815161192790898361274a565b6119348888858589611dfc565b5050505b95945050505050565b8251600090429082906119579061ffff16610ceb565b90506000611964826127c1565b505090506000611979838960c001518661281d565b905061198788848389612900565b9450600061199484612a2d565b90506001600160a01b03811615611a1c57806001600160a01b0316633f3ef50d898b600001516119c78d60400151610ae8565b8b886040518663ffffffff1660e01b81526004016119e99594939291906149d1565b600060405180830381600087803b158015611a0357600080fd5b505af1158015611a17573d6000803e3d6000fd5b505050505b8515611a2c57611a2c8887612a9f565b50505050509392505050565b6000611a426125df565b6001600160a01b03891660009081526020828152604080832061ffff8c168452909152902090915084611aaa5766ffffffffffffff841115611a8357600080fd5b805466ffffffffffffff60701b1916600160701b66ffffffffffffff861602178155611ac4565b8054600160501b900463ffffffff168514611ac457600080fd5b611acd85612abe565b815463ffffffff91909116600160501b0263ffffffff60501b19909116178155611afe611af987610ae8565b612ad1565b815469ffffffffffffffffffff19166001600160501b039190911617808255611b4490611b3f9085908c908c90600160a81b9004600a90810b900b8c612ae7565b612b0a565b8154600a9190910b6001600160581b0316600160a81b026001600160a81b039091161790555050505050505050565b6000620f4240826026811115611b8557fe5b0192915050565b6000806109aa6002611b73565b611ba1614126565b6109aa826001611e90565b8015611c3e577382af49447d8a07e3bd95bd0d56f35241523fbab16001600160a01b031663d0e30db0836040518263ffffffff1660e01b81526004016000604051808303818588803b158015611c0157600080fd5b505af1158015611c15573d6000803e3d6000fd5b5050505050611c397382af49447d8a07e3bd95bd0d56f35241523fbab1848461274a565b6107a9565b6040516001600160a01b0384169083156108fc029084906000818181858888f19350505050158015610996573d6000803e3d6000fd5b600080846001600160a01b03166370a08231306040518263ffffffff1660e01b815260040180826001600160a01b0316815260200191505060206040518083038186803b158015611cc457600080fd5b505afa158015611cd8573d6000803e3d6000fd5b505050506040513d6020811015611cee57600080fd5b5051604080516323b872dd60e01b81526001600160a01b038781166004830152306024830152604482018790529151929350908716916323b872dd9160648082019260009290919082900301818387803b158015611d4b57600080fd5b505af1158015611d5f573d6000803e3d6000fd5b50505050611d6b612b3c565b6000856001600160a01b03166370a08231306040518263ffffffff1660e01b815260040180826001600160a01b0316815260200191505060206040518083038186803b158015611dba57600080fd5b505afa158015611dce573d6000803e3d6000fd5b505050506040513d6020811015611de457600080fd5b50519050611df28183612ba9565b9695505050505050565b600080611e098486612bbe565b9050611e158382612bee565b9150611e22878784612c10565b611e2d868383612c90565b8351611e399086612d9c565b5095945050505050565b6000806109aa601d611b73565b600881901c60ff9091161b90565b6000610ede6ec097ce7bc90715b34b9f1000000000611e8a856000015185610ff390919063ffffffff16565b90612df1565b611e98614126565b6000611ea2612e22565b6000858152602082815260408083208715158452825291829020825160a08101845281546001600160a01b038116825260ff600160a01b82048116151594830194909452600160b01b81048416600a0a9482019490945293945092916060830191600160a81b909104166005811115611f1757fe5b8152600060209091015295945050505050565b815160405163db006a7560e01b8152600091479183916001600160a01b03169063db006a7590611f5e908790600401614c41565b602060405180830381600087803b158015611f7857600080fd5b505af1158015611f8c573d6000803e3d6000fd5b505050506040513d601f19601f82011682018060405250810190611fb091906147dc565b90508015611fd05760405162461bcd60e51b815260040161025890614a92565b47611df28184612ba9565b60008083600001516001600160a01b03166370a08231306040518263ffffffff1660e01b815260040161200e9190614872565b60206040518083038186803b15801561202657600080fd5b505afa15801561203a573d6000803e3d6000fd5b505050506040513d601f19601f8201168201806040525081019061205e91906147dc565b9050600085600001516001600160a01b031663db006a75856040518263ffffffff1660e01b81526004016120929190614c41565b602060405180830381600087803b1580156120ac57600080fd5b505af11580156120c0573d6000803e3d6000fd5b505050506040513d601f19601f820116820180604052508101906120e491906147dc565b905080156121045760405162461bcd60e51b815260040161025890614a92565b84516040516370a0823160e01b81526000916001600160a01b0316906370a0823190612134903090600401614872565b60206040518083038186803b15801561214c57600080fd5b505afa158015612160573d6000803e3d6000fd5b505050506040513d601f19601f8201168201806040525081019061218491906147dc565b90506121908184612ba9565b979650505050505050565b6121a3614155565b60006121ad611e43565b61ffff93841660009081526020918252604090819020805464ffffffffff81168652600160281b81046001600160581b03908116948701949094526001820154841692860192909252600160d81b820463ffffffff166060860152600160801b9091049091166080840152600201546001600160501b0380821660a0850152600160501b8204811660c0850152600160a01b82041660e0840152600160f01b900460ff1661012c02909216610100820152919050565b60008061226f83612e2f565b6001600160a01b031663ef81f2166040518163ffffffff1660e01b81526004016040805180830381600087803b1580156122a857600080fd5b505af11580156122bc573d6000803e3d6000fd5b505050506040513d601f19601f820116820180604052508101906109c391906147f4565b6122e8614155565b60008060006122f8888689612e5f565b60c08b019290925260e08a01929092526020890151919350915061231c9083612f6a565b602088015260808701516000901561234a576080880151612347906123418982612ba9565b90612f7c565b90505b61236a61235f670de0b6b3a764000083612f6a565b60a08a015190612f99565b60a089015250506080860194909452505082529092909150565b600061238e611e43565b60008561ffff16815260200190815260200160002090506123b28260000151612fb6565b815464ffffffffff191664ffffffffff9190911617815560a08201516123d790612ad1565b60028201805469ffffffffffffffffffff19166001600160501b039290921691909117905560c082015161240a90612ad1565b81600201600a6101000a8154816001600160501b0302191690836001600160501b0316021790555061243f8260e00151612ad1565b8160020160146101000a8154816001600160501b0302191690836001600160501b031602179055506124748260200151612fca565b81546001600160581b0391909116600160281b026fffffffffffffffffffffff00000000001990911617815560408201516124ae90612fca565b6001820180546affffffffffffffffffffff19166001600160581b039290921691909117905560808201516124e290612fca565b81546001600160581b0391909116600160801b026affffffffffffffffffffff60801b19909116178155606082015161251a90612abe565b815463ffffffff91909116600160d81b0263ffffffff60d81b19909116178155821561256657600061254b84610c24565b90506125578582612fe0565b612564610fee8683612c10565b505b8361ffff167fef25641e225e493886510ca1ad6584fa7b442b9fea820a29d1de3ce27d270fd28360a001518460c001518560e001516040516125aa93929190614c4a565b60405180910390a250505050565b6000826125c7575060006109aa565b828202828482816125d457fe5b0414610ede57600080fd5b6000806109aa6006611b73565b60008082126125fc5750806109aa565b825160208401516126139190611e8a908590610ff3565b90506109aa565b60006305f5e100836040015114156126335750806109aa565b610ede6305f5e100611e8a856040015185610ff390919063ffffffff16565b600061265c613017565b83516001600160a01b03166000908152602082905260409020549091508083116126875750506107a9565b600061269286612e2f565b90506000816001600160a01b031663b5e4da238487036040518263ffffffff1660e01b81526004016126c49190614c41565b60006040518083038186803b1580156126dc57600080fd5b505afa1580156126f0573d6000803e3d6000fd5b505050506040513d6000823e601f3d908101601f191682016040526127189190810190614494565b905060006127268783613024565b915061273490508482612f6a565b86111561274057600080fd5b5050505050505050565b826001600160a01b031663a9059cbb83836040518363ffffffff1660e01b815260040180836001600160a01b0316815260200182815260200192505050600060405180830381600087803b1580156127a157600080fd5b505af11580156127b5573d6000803e3d6000fd5b505050506107a9612b3c565b6000806000806127cf61323b565b6001600160a01b0395909516600090815260209590955250506040909220546001600160601b03811693600160601b82046001600160801b03169350600160e01b90910463ffffffff169150565b600080600061282c8685613248565b5091509150600061283b61323b565b6001600160a01b0388166000908152602082905260408120919250612860858961132f565b90508060001315801561287957506001600160601b0381105b61288257600080fd5b81546bffffffffffffffffffffffff19166001600160601b038216176fffffffffffffffffffffffffffffffff60601b1916600160601b6001600160801b0386160217825563ffffffff87106128d757600080fd5b50805463ffffffff8716600160e01b026001600160e01b03909116179055509150509392505050565b60e0840151600090156129c15773__MigrateIncentives_____________________63e0c01a72856129358860400151610ae8565b8860e001518961010001516040518563ffffffff1660e01b815260040161295f9493929190614a03565b60206040518083038186803b15801561297757600080fd5b505af415801561298b573d6000803e3d6000fd5b505050506040513d601f19601f820116820180604052508101906129af91906147dc565b600060e0870181905261010087015290505b612a036129fc8661010001516129f6670de0b6b3a76400006129f0886129ea8c60400151610ae8565b906125b8565b906132de565b90612ba9565b8290612f6a565b9050612a1b670de0b6b3a76400006129f084866125b8565b85610100018181525050949350505050565b600080612a38611b8c565b6001600160a01b0384166000908152602082905260409020805491925090600160f81b900460ff1615612a9457612a6d6132fd565b6001600160a01b0380861660009081526020929092526040909120541692506108b1915050565b6000925050506108b1565b61049873019be259bc299f3f653688c7655c87f998bc7bc1838361274a565b600063ffffffff821115610af757600080fd5b60006001600160501b03821115610af757600080fd5b6000612af3868361330a565b9050611938868686612b058786613349565b6133d0565b60006a7fffffffffffffffffffff198212801590612b3357506a7fffffffffffffffffffff8213155b610af757600080fd5b6000612b466141a1565b3d8015612b5a5760208114612b6357600080fd5b60019250612b6e565b60206000833e815192505b5081610498576040805162461bcd60e51b8152602060048201526005602482015264045524332360dc1b604482015290519081900360640190fd5b600082821115612bb857600080fd5b50900390565b60006305f5e10083604001511415612bd75750806109aa565b6040830151610ede90611e8a846305f5e100610ff3565b8151600090610ede90611e8a846ec097ce7bc90715b34b9f1000000000610ff3565b6000612c1a613404565b61ffff8416600090815260209190915260409081902054905163ad1c095d60e01b81526001600160a01b039091169150819063ad1c095d90612c629087908690600401614965565b600060405180830381600087803b158015612c7c57600080fd5b505af1158015612740573d6000803e3d6000fd5b6000612c9a611e43565b61ffff8516600090815260209190915260409020805490915064ffffffffff164214612cc557600080fd5b8054600090612ce490600160281b90046001600160581b03168561132f565b8254909150600090612d0690600160801b90046001600160581b03168561132f565b905080624c4b401315612d1857600080fd5b612d29612d2482610ae8565b612fca565b83546001600160581b0391909116600160801b026affffffffffffffffffffff60801b19909116178355612d5f612d2483610ae8565b83546001600160581b0391909116600160281b026fffffffffffffffffffffff000000000019909116178355612d9483613411565b505050505050565b6000612da6613017565b6001600160a01b038416600090815260208290526040902054909150612dcf610385828561132f565b6001600160a01b03909416600090815260209290925250604090209190915550565b600081600019148015612e075750600160ff1b83145b15612e1157600080fd5b818381612e1a57fe5b059392505050565b6000806109aa6007611b73565b600080612e3a6134dc565b61ffff939093166000908152602093909352505060409020546001600160a01b031690565b600080600080600080612e7289886134e9565b89519095509193509150600090612e9990612e8e908b90612ba9565b633b9aca00906125b8565b9050612ed3612ec86301da9c00612eb085856125b8565b81612eb757fe5b670de0b6b3a7640000919004612f6a565b60e08a015190612f99565b9650612ef5612eea6301da9c00612eb087856125b8565b60c08a015190612f99565b955081831415612f0c575060009350612f61915050565b6000612f2e612f236301da9c00612eb087866125b8565b60e08b015190612f99565b90506000612f3c8983612ba9565b9050612f59886129f0838d604001516125b890919063ffffffff16565b965050505050505b93509350935093565b600082820183811015610ede57600080fd5b6000610ede612f9384670de0b6b3a76400006125b8565b836132de565b6000610ede612fa884846125b8565b670de0b6b3a76400006132de565b600064ffffffffff821115610af757600080fd5b60006001600160581b03821115610af757600080fd5b6000811215612fee57600080fd5b6000612ffc610fee84613583565b9050613008818361132f565b90506107a9610fee84836135dc565b6000806109aa6026611b73565b60008060005b835181101561323357600084828151811061304157fe5b60200260200101519050600081606001516001600160a01b03166370a08231306040518263ffffffff1660e01b815260040161307d9190614872565b60206040518083038186803b15801561309557600080fd5b505afa1580156130a9573d6000803e3d6000fd5b505050506040513d601f19601f820116820180604052508101906130cd91906147dc565b905060006130db8830613650565b905060005b83515181101561313757613126846000015182815181106130fd57fe5b602002602001015160008660200151848151811061311757fe5b602002602001015160016136fa565b61312f57600196505b6001016130e0565b5060006131448930613650565b905060006131528284612ba9565b9050808560400151111561316557600080fd5b60608501516040516370a0823160e01b81526000916001600160a01b0316906370a0823190613198903090600401614872565b60206040518083038186803b1580156131b057600080fd5b505afa1580156131c4573d6000803e3d6000fd5b505050506040513d601f19601f820116820180604052508101906131e891906147dc565b9050848111156131f757600080fd5b61320686606001518683613968565b6132108883612f6a565b97506132218b600001518585613968565b50506001909401935061302a92505050565b509250929050565b6000806109aa6011611b73565b6000806000613256856127c1565b91945092509050808411801561326c5750600081115b80156132785750600083115b156132d757600061328886611204565b50505091505060006132b36132aa6305f5e100846125b890919063ffffffff16565b848803876139e5565b90506132bf8482612f6a565b93506001600160801b0384106132d457600080fd5b50505b9250925092565b60008082116132ec57600080fd5b8183816132f557fe5b049392505050565b6000806109aa6012611b73565b6000808212156133435761333e60016133388560200151611e8a876000015187610ff390919063ffffffff16565b90613a07565b610ede565b50919050565b600081831480613366575060008312158015613366575060008212155b15613373575060006109aa565b600083131580156133845750816000125b156133905750816109aa565b600082131580156133a15750826000125b156133af576126138261099c565b600083131580156133c1575060008213155b1561009c576126138383613a07565b801561099657835160208501516000916133ef91611e8a908590610ff3565b90506133fd84848484613a1d565b5050505050565b6000806109aa6021611b73565b8054600282015460009161345391600160281b9091046001600160581b03169061344d906001600160501b03600160501b820481169116610ff3565b90610ff3565b6001830154600284015491925060009161348d916001600160581b03169061344d906001600160501b03600160a01b820481169116610ff3565b83549091506000906134c49060016001600160581b03600160801b909204821601166ec097ce7bc90715b34b9f1000000000610ff3565b9050806134d18484613a07565b131561099657600080fd5b6000806109aa601f611b73565b6000806000806000856020015111156135365761353361351a8660c0015187602001516125b890919063ffffffff16565b60e0870151604088015161352d916125b8565b90613b63565b90505b600061354187613b76565b905061354d8183613ba9565b945081156135645761356181866001613c62565b93505b6020860151156132d4576135788583613cd3565b925050509250925092565b60008061358e6125df565b6001600160a01b03851660009081526020828152604080832061ffff8816845290915281208054600160a81b9004600a90810b900b94509192508312156135d457600080fd5b505092915050565b60008112156135ea57600080fd5b60006135f46125df565b6001600160a01b03851660009081526020828152604080832061ffff88168452909152902090915061362583612b0a565b8154600a9190910b6001600160581b0316600160a81b026001600160a81b0390911617905550505050565b600060038360600151600581111561366457fe5b141561367b57506001600160a01b038116316109aa565b82516040516370a0823160e01b81526001600160a01b03909116906370a08231906136aa908590600401614872565b60206040518083038186803b1580156136c257600080fd5b505afa1580156136d6573d6000803e3d6000fd5b505050506040513d601f19601f8201168201806040525081019061261391906147dc565b6000806000866001600160a01b031686866040518082805190602001908083835b6020831061373a5780518252601f19909201916020918201910161371b565b6001836020036101000a03801982511681845116808217855250505050505090500191505060006040518083038185875af1925050503d806000811461379c576040519150601f19603f3d011682016040523d82523d6000602084013e6137a1565b606091505b50915091508361384457816137b582613cec565b9061383e5760405162461bcd60e51b81526004018080602001828103825283818151815260200191508051906020019080838360005b838110156138035781810151838201526020016137eb565b50505050905090810190601f1680156138305780820380516001836020036101000a031916815260200191505b509250505060405180910390fd5b50611e39565b866001600160a01b03167f3c7e398c5e91088cae639370e35b25ea669d81fbdf0def5388e73661bc34e08e878761387a85613cec565b604051808481526020018060200180602001838103835285818151815260200191508051906020019080838360005b838110156138c15781810151838201526020016138a9565b50505050905090810190601f1680156138ee5780820380516001836020036101000a031916815260200191505b50838103825284518152845160209182019186019080838360005b83811015613921578181015183820152602001613909565b50505050905090810190601f16801561394e5780820380516001836020036101000a031916815260200191505b509550505050505060405180910390a25095945050505050565b6000613972613017565b6001600160a01b0385166000908152602082905260409020549091508381111561399b57600080fd5b60006139b26139a986610c24565b61333886610c24565b90506139c1610385838361132f565b6001600160a01b039096166000908152602093909352505060409020929092555050565b60006109c3826129f06301da9c0081886129ea89670de0b6b3a76400006125b8565b808203828113156000831215146109aa57600080fd5b6000613a27611e43565b61ffff8516600090815260209190915260409020805490915064ffffffffff164214613a5257600080fd5b8054600160f81b900460ff16613a6757600080fd5b6001810154600090613a82906001600160581b03168561132f565b8254909150600090613aa490600160281b90046001600160581b03168561132f565b905081600919128015613ab75750600082125b15613ac157600091505b80600919128015613ad25750600081125b15613adb575060005b613ae7612d2483610ae8565b6001840180546affffffffffffffffffffff19166001600160581b0392909216919091179055613b19612d2482610ae8565b83546001600160581b0391909116600160281b026fffffffffffffffffffffff000000000019909116178355613b5187878688613df3565b613b5a83613411565b50505050505050565b6000610ede612f9384633b9aca006125b8565b613b7e6141bf565b6000613b88613f07565b61ffff84166000908152602091909152604081205491506108ad9082613f14565b600080836080015111613bbb57600080fd5b633b9aca00821115613bcc57600080fd5b82518211613beb578251604084015161261391906129f09085906125b8565b82602001518211613c295760408301518351602085015160608601516126139392613c2392819003916129f0918803908590036125b8565b90612f6a565b610ede8360600151613c238560200151633b9aca00036129f08760600151886080015103886020015188036125b890919063ffffffff16565b600080613c8160646129f08760e00151876125b890919063ffffffff16565b90508460a00151811015613c96575060a08401515b8460c00151811115613ca9575060c08401515b8215613cb957610ed98482612f6a565b838111613cc857808403610ed9565b600095945050505050565b6000610ede613ce284846125b8565b633b9aca006132de565b6060604482511015613d22575060408051808201909152600d81526c14da5b195b9d0814995d995c9d609a1b60208201526108b1565b6004820180519092602401906020811015613d3c57600080fd5b8101908080516040519392919084640100000000821115613d5c57600080fd5b908301906020820185811115613d7157600080fd5b8251640100000000811182820188101715613d8b57600080fd5b82525081516020918201929091019080838360005b83811015613db8578181015183820152602001613da0565b50505050905090810190601f168015613de55780820380516001836020036101000a031916815260200191505b506040525050509050919050565b6000613dfd613404565b61ffff8516600090815260209190915260408120546001600160a01b03169150613e25614033565b61ffff8616600090815260209190915260409081902054905163ad1c095d60e01b81526001600160a01b039091169150819063ad1c095d90613e6d9089908790600401614965565b600060405180830381600087803b158015613e8757600080fd5b505af1158015613e9b573d6000803e3d6000fd5b505060405163ad1c095d60e01b81526001600160a01b038516925063ad1c095d9150613ecd9089908890600401614965565b600060405180830381600087803b158015613ee757600080fd5b505af1158015613efb573d6000803e3d6000fd5b50505050505050505050565b6000806109aa601b611b73565b613f1c6141bf565b6064633b9aca008360ff861660208110613f3257fe5b1a0281613f3b57fe5b0481526064633b9aca008360ff861660010160208110613f5757fe5b1a0281613f6057fe5b04816020018181525050613f858260028560ff160160208110613f7f57fe5b1a614040565b60808201819052610100908360ff861660030160208110613fa257fe5b1a0281613fab57fe5b0460408201526080810151610100908360ff861660040160208110613fcc57fe5b1a0281613fd557fe5b0460608201526207a1208260ff851660050160208110613ff157fe5b1a0260a0820152622625a08260ff85166006016020811061400e57fe5b1a0260c08201528160ff84166007016020811061402757fe5b1a60e082015292915050565b6000806109aa6022611b73565b60008160ff1660961061405b5760ff8216622625a0026109aa565b5060951960ff919091160162e4e1c00263165a0bc00190565b604051806101400160405280600061ffff16815260200160008152602001600081526020016000815260200160008152602001600081526020016000815260200160008152602001600081526020016140cb614105565b905290565b6040805160c081018252600080825260208201819052918101829052606081018290526080810182905260a081019190915290565b60405180606001604052806000815260200160008152602001600081525090565b6040805160a0810182526000808252602082018190529181018290529060608201908152602001600081525090565b6040518061012001604052806000815260200160008152602001600081526020016000815260200160008152602001600081526020016000815260200160008152602001600081525090565b60405180602001604052806001906020820280368337509192915050565b60405180610100016040528060008152602001600081526020016000815260200160008152602001600081526020016000815260200160008152602001600081525090565b80516108b181614ca2565b600082601f83011261421f578081fd5b8151602061423461422f83614c84565b614c60565b8281528181019085830183850287018401881015614250578586fd5b855b8581101561427757815161426581614ca2565b84529284019290840190600101614252565b5090979650505050505050565b6000601f8381840112614295578182fd5b825160206142a561422f83614c84565b82815281810190868301865b8581101561434957815189018a603f8201126142cb578889fd5b8581015167ffffffffffffffff8111156142e157fe5b6142f2818a01601f19168801614c60565b8181528c6040838501011115614306578a8bfd5b8a5b8281101561432457838101604001518282018a01528801614308565b82811115614334578b8984840101525b508652505092840192908401906001016142b1565b509098975050505050505050565b80516108b181614cba565b80516001600160701b0319811681146108b157600080fd5b80516001600160f81b0319811681146108b157600080fd5b8051600481106108b157600080fd5b80516108b181614cc8565b805160ff811681146108b157600080fd5b6000602082840312156143ce578081fd5b8135610ede81614ca2565b6000806000606084860312156143ed578182fd5b83356143f881614ca2565b9250602084013561440881614cc8565b929592945050506040919091013590565b600080600080600060a08688031215614430578283fd5b853561443b81614ca2565b9450602086013561444b81614cc8565b935060408601356001600160601b0381168114614466578384fd5b9250606086013561447681614cba565b9150608086013561448681614cba565b809150509295509295909350565b600060208083850312156144a6578182fd5b825167ffffffffffffffff808211156144bd578384fd5b818501915085601f8301126144d0578384fd5b81516144de61422f82614c84565b81815284810190848601875b8481101561459357815187016080818d03601f1901121561450957898afd5b60408051608081018181108a8211171561451f57fe5b8252828b015189811115614531578c8dfd5b61453f8f8d8387010161420f565b8252508183015189811115614552578c8dfd5b6145608f8d83870101614284565b8c8301525060608301518282015261457a60808401614204565b60608201528652505092870192908701906001016144ea565b50909998505050505050505050565b6000602082840312156145b3578081fd5b8135610ede81614cba565b60008060408084860312156145d1578283fd5b8351925060208085015167ffffffffffffffff808211156145f0578485fd5b818701915087601f830112614603578485fd5b815161461161422f82614c84565b8181528481019084860160c0808502870188018d101561462f57898afd5b8996505b848710156146b65780828e03121561464957898afd5b8851818101818110888211171561465c57fe5b8a52825161466981614cc8565b81528289015189820152898301518a820152606080840151908201526080808401519082015260a061469c818501614392565b908201528452600196909601959287019290810190614633565b50989b909a5098505050505050505050565b600060c082840312156146d9578081fd5b60405160c0810181811067ffffffffffffffff821117156146f657fe5b604052825164ffffffffff8116811461470d578283fd5b815261471b6020840161437a565b602082015261472c604084016143ac565b604082015261473d606084016143a1565b606082015261474e60808401614362565b608082015261475f60a08401614357565b60a08201529392505050565b60006020828403121561477c578081fd5b8135610ede81614cc8565b60008060006060848603121561479b578081fd5b83356147a681614cc8565b925060208401356001600160581b03811681146147c1578182fd5b915060408401356147d181614cba565b809150509250925092565b6000602082840312156147ed578081fd5b5051919050565b60008060408385031215614806578182fd5b505080516020909101519092909150565b805164ffffffffff1682526020808201516001600160f81b0319169083015260408082015160ff169083015260608082015161ffff16908301526080808201516001600160701b0319169083015260a0908101511515910152565b6001600160a01b0391909116815260200190565b6001600160a01b03948516815292841660208401529083166040830152909116606082015260800190565b600061012080830160018060a01b038089168552602081891681870152604091506148de82870189614817565b61010086019390935285519182905261014085019280870192855b81811015614955578451805161ffff16875283810151848801528481015185880152606080820151908801526080808201519088015260a090810151906004821061494057fe5b87015260c090950194938201936001016148f9565b50939a9950505050505050505050565b6001600160a01b03929092168252602082015260400190565b6001600160a01b038316815260e08101610ede6020830184614817565b6001600160a01b0395909516855261ffff9390931660208501526040840191909152151560608301521515608082015260a00190565b6001600160a01b0395909516855261ffff93909316602085015260408401919091526060830152608082015260a00190565b6001600160a01b0394909416845260208401929092526040830152606082015260800190565b901515815260200190565b9182521515602082015260400190565b6020808252600f908201526e04f76657220537570706c792043617608c1b604082015260600190565b6020808252600b908201526a4554482042616c616e636560a81b604082015260600190565b60208082526006908201526552656465656d60d01b604082015260600190565b60208082526012908201527143616e6e6f7420686176652061737365747360701b604082015260600190565b6020808252601390820152722ab730baba3437b934bd32b21031b0b63632b960691b604082015260600190565b6020808252600f908201526e4e6f205072696d6520426f72726f7760881b604082015260600190565b6020808252601c908201527f446570726563617465643a2052656465656d20746f2063546f6b656e00000000604082015260600190565b602080825260149082015273043616e6e6f74206368616e6765206269746d61760641b604082015260600190565b60208082526010908201526f10d85b9b9bdd081a185d99481919589d60821b604082015260600190565b6020808252600a90820152692732b390372a37b5b2b760b11b604082015260600190565b602080825260139082015272125b9d985b1a590818dd5c9c995b98de481a59606a1b604082015260600190565b602080825260139082015272496e73756666696369656e7420746f6b656e7360681b604082015260600190565b90815260200190565b9283526020830191909152604082015260600190565b60405181810167ffffffffffffffff81118282101715614c7c57fe5b604052919050565b600067ffffffffffffffff821115614c9857fe5b5060209081020190565b6001600160a01b0381168114614cb757600080fd5b50565b8015158114614cb757600080fd5b61ffff81168114614cb757600080fdfea2646970667358221220f70580816e52240d2116ec9099d8df0fb147ce543ddfeac0240d928c2c61981c64736f6c63430007060033","bytecodeSha1":"ad3c3e09d3eb2e26bb8c50834bd48f6b2776331e","compiler":{"evm_version":"istanbul","optimizer":{"enabled":true,"runs":200},"version":"0.7.6+commit.7338295f"},"contractName":"AccountAction","deployedBytecode":"60806040526004361061009c5760003560e01c80638246336711610064578063824633671461015c5780638da5cb5b146101715780639c97945014610186578063b8a69455146101a6578063c4c96dae146101c6578063f667f897146101eb5761009c565b806302f332e8146100a157806324a3d622146100d75780632890fb65146100f957806361d0d61c1461010c578063668906431461012e575b600080fd5b3480156100ad57600080fd5b506100c16100bc366004614787565b610218565b6040516100ce9190614c41565b60405180910390f35b3480156100e357600080fd5b506100ec61039a565b6040516100ce9190614872565b6100c16101073660046143d9565b6103a9565b34801561011857600080fd5b5061012c6101273660046145a2565b610462565b005b34801561013a57600080fd5b5061014e610149366004614419565b61049c565b6040516100ce929190614a34565b34801561016857600080fd5b506100ec61073b565b34801561017d57600080fd5b506100ec61074a565b34801561019257600080fd5b5061012c6101a136600461476b565b610761565b3480156101b257600080fd5b506100c16101c13660046143d9565b6107ae565b3480156101d257600080fd5b506101db610828565b6040516100ce9493929190614886565b3480156101f757600080fd5b5061020b6102063660046143bd565b610882565b6040516100ce9190614a29565b60006002600a54141561022a57600080fd5b6002600a5561ffff841660011461026157816102615760405162461bcd60e51b815260040161025890614b34565b60405180910390fd5b600061026c336108b6565b509050610277614074565b6102838133888561097b565b6001600160581b0385811614156102bc5760008160200151136102a557600080fd5b6102b2816020015161099c565b60808201526102d4565b6102ce856001600160581b031661099c565b60808201525b60006102e382338588156109b0565b90506102ef83336109cb565b60208301516001600160f81b0319161561036b57604051636ccc642f60e01b815273__$841fddfe32830bb6dbc3a02d7f16c53722$__90636ccc642f9061033a903390600401614872565b60006040518083038186803b15801561035257600080fd5b505af4158015610366573d6000803e3d6000fd5b505050505b600081131561037957600080fd5b61038a6103858261099c565b610ae8565b6001600a55979650505050505050565b6002546001600160a01b031681565b60006002600a5414156103bb57600080fd5b6002600a55333014156103cd57600080fd5b336001600160a01b038516146103e257600080fd5b6103eb84610afb565b60006103f685610b76565b9050610400614074565b61040c8187878561097b565b60006104258761041b87610c24565b8491906000610c3a565b90506000811361043457600080fd5b61043f828885610c8c565b61044983886109cb565b6101208201516104599087610caa565b61038a81610ae8565b3330141561046f57600080fd5b61047833610afb565b6000610483336108b6565b5082151560a0820152905061049881336109cb565b5050565b6000806002600a5414156104af57600080fd5b6002600a55336001600160a01b03881614806104ca57503330145b6104e65760405162461bcd60e51b815260040161025890614ade565b6001600160601b03851660006104fb896108b6565b509050610506614074565b610512818b8b8561097b565b82816040015112156105365760405162461bcd60e51b815260040161025890614c14565b61053f8361099c565b60c082015260405163b853e45760e01b8152600090819073__$43fd92ea4ea9b72ca0014644dbfd757564$__9063b853e45790610588908f908f908a908f908f9060040161499b565b60006040518083038186803b1580156105a057600080fd5b505af41580156105b4573d6000803e3d6000fd5b505050506040513d6000823e601f3d908101601f191682016040526105dc91908101906145be565b6060850182905290925090506105f3838d86610c8c565b80511561069c5760006106098c61ffff16610ceb565b905073__$f6541b0d362a0c7d99a2a29cd3d373d61b$__63c108fc268e8388866040518563ffffffff1660e01b815260040161064894939291906148b1565b60c06040518083038186803b15801561066057600080fd5b505af4158015610674573d6000803e3d6000fd5b505050506040513d601f19601f8201168201806040525081019061069891906146c8565b9450505b6106a6848d6109cb565b60208401516001600160f81b0319161561072257604051636ccc642f60e01b815273__$841fddfe32830bb6dbc3a02d7f16c53722$__90636ccc642f906106f1908f90600401614872565b60006040518083038186803b15801561070957600080fd5b505af415801561071d573d6000803e3d6000fd5b505050505b516001600a55909b9015159a5098505050505050505050565b6001546001600160a01b031681565b60005464010000000090046001600160a01b031681565b3330141561076e57600080fd5b60005461ffff908116908216111561078557600080fd5b336000610791826108b6565b50905061079f818442610d11565b6107a981836109cb565b505050565b60006002600a5414156107c057600080fd5b6002600a55333014156107d257600080fd5b336001600160a01b038516146107e757600080fd5b6107f084610afb565b60006107fb85610b76565b9050610805614074565b6108118187878561097b565b60006104258761082087610c24565b849190610e09565b73__$841fddfe32830bb6dbc3a02d7f16c53722$__73__$b21a4dc043b77aa57922ad9143a3cb040e$__73__$f6541b0d362a0c7d99a2a29cd3d373d61b$__73__$43fd92ea4ea9b72ca0014644dbfd757564$__90919293565b600061088d82610afb565b600080610899846108b6565b9150915080156108ad576108ad82856109cb565b9150505b919050565b6108be6140d0565b6000806108ca84610b76565b90506108d581610ee5565b1561096f576040516337b5fc2160e11b815273__$f6541b0d362a0c7d99a2a29cd3d373d61b$__90636f6bf84290610913908790859060040161497e565b60c06040518083038186803b15801561092b57600080fd5b505af415801561093f573d6000803e3d6000fd5b505050506040513d601f19601f8201168201806040525081019061096391906146c8565b60019250925050610976565b9150600090505b915091565b61098482610f39565b61012085015261099684848484610f4b565b50505050565b60006109aa60001983610ff3565b92915050565b60006109c0858585856001611041565b90505b949350505050565b60006109d56111f7565b6001600160a01b03831660008181526020838152604080832088518154938a01518a84015160608c015160808d015160a08e015164ffffffffff1990981664ffffffffff9095169490941765ff00000000001916600160281b60f89490941c939093029290921766ff0000000000001916600160301b60ff909216919091021768ffff000000000000001916600160381b61ffff90921691909102177affffffffffffffffffffffffffffffffffff0000000000000000001916600160481b60709290921c919091021760ff60d81b1916600160d81b93151593909302929092179091555192935090917f6bd4b121bca854a191536a2ca891155c42ee2fb23f307fb34e8bc65cfcb5412e9190a2505050565b600080821215610af757600080fd5b5090565b6001600160a01b038116610b0e57600080fd5b6001600160a01b038116610fee1415610b2657600080fd5b6001600160a01b0381166105e71415610b3e57600080fd5b6001600160a01b038116301415610b5457600080fd5b6000610b5f82611204565b5050505061ffff1690508060001461049857600080fd5b610b7e6140d0565b6000610b886111f7565b6001600160a01b03841660009081526020918252604090819020815160c081018352905464ffffffffff811682526001600160f81b0319600160281b820460f81b169382019390935260ff600160301b840481169282019290925261ffff600160381b84041660608201526001600160701b0319600160481b840460701b166080820152600160d81b90920416151560a0820152915050919050565b60006001600160ff1b03821115610af757600080fd5b600082610c49575060006109c3565b60008313610c5657600080fd5b610c6c848660000151858861012001518661126d565b6060870151909250610c7f91508261132f565b6060860152949350505050565b608083015115610c9b57600080fd5b61099683838360006001611041565b600080610cb78484611345565b915091508160001415610ccb575050610498565b818111156109965760405162461bcd60e51b815260040161025890614a44565b600080610cf66113b1565b6000938452602052505060409020546001600160a01b031690565b610d1a836113be565b15610d375760405162461bcd60e51b815260040161025890614b6b565b8161ffff166000108015610d515750613fff61ffff831611155b610d6d5760405162461bcd60e51b815260040161025890614be7565b604083015160ff1615610d925760405162461bcd60e51b815260040161025890614ab2565b60208301516001600160f81b03191615610dbe5760405162461bcd60e51b815260040161025890614b99565b610dd38361ffff84166000600160fe1b6113cb565b61ffff821660608401526000610de8826115d1565b905064ffffffffff8110610dfb57600080fd5b64ffffffffff169092525050565b600081610e1857506000610ede565b60008213610e2557600080fd5b6000610e38856000015161ffff166115ef565b80519091506001600160a01b0316610e4f57600080fd5b600181606001516005811115610e6157fe5b1480610e7c5750600281606001516005811115610e7a57fe5b145b15610eb4578451610120860151610e9891839186908890611602565b6060860151909250610eaa908361132f565b6060860152610edc565b600481606001516005811115610ec657fe5b141561009c57610ed98585856000610c3a565b91505b505b9392505050565b600042610ef1836113be565b15610f1257610eff816115d1565b835164ffffffffff161091506108b19050565b825164ffffffffff1615801590610f315750825164ffffffffff168110155b9150506108b1565b610f41614105565b6109aa8242611693565b8161ffff166000108015610f655750613fff61ffff831611155b610f6e57600080fd5b61ffff8216808552610f81908290611754565b15610fb057610f9683838661012001516117de565b61010088015260e087015260408601526020850152610fce565b6000602085018190526040850181905260e085018190526101008501525b50506000606083018190526080830181905260a0830181905260c09092019190915250565b8181026000198314156110235781158061101557508282828161101257fe5b05145b61101e57600080fd5b6109aa565b82158061103857508183828161103557fe5b05145b6109aa57600080fd5b60008061105e86886000015189608001518a610120015188611898565b9150600061107d8860800151896060015161132f90919063ffffffff16565b905083801561108c5750600081125b80156110a7575060208801516000906110a5908361132f565b125b156110cd578560a001516110cd5760405162461bcd60e51b815260040161025890614b0b565b80156110ec5760208801516110e2908261132f565b6020890152600191505b60a0880151151580611101575060c088015115155b1561116a5760006111318960c0015161112b8b60a001518c6040015161132f90919063ffffffff16565b9061132f565b905060008112156111545760405162461bcd60e51b815260040161025890614bc3565b61115f898983611941565b506040890152600191505b8115611199576111998789600001518a602001518b604001518c60e001518d61010001518e6101200151611a38565b875160208901516111c69161ffff16901515806111b9575060408a015115155b889190600160fe1b6113cb565b6000886020015112156111ec57602086018051600160f91b176001600160f81b03191690525b505095945050505050565b6000806109aa6001611b73565b600080600080600080611215611b8c565b6001600160a01b039097166000908152602097909752505060409094205461ffff81169563ffffffff62010000830481169650600160301b830416945060ff600160501b8304169350600160581b90910460d01b9150565b600080600061127b86610ae8565b90508061128f576000809250925050611325565b600061129e8861ffff16611b99565b90506003816060015160058111156112b257fe5b14156112f957348210156112d2576112cd8983340387611bac565b6112f1565b3482146112f15760405162461bcd60e51b815260040161025890614a6d565b869350611313565b61131061130b82600001518b85611c74565b610c24565b93505b611320898986848a611dfc565b925050505b9550959350505050565b818101828112156000831215146109aa57600080fd5b6000806000611352611e43565b61ffff8516600090815260209190915260409020600181015490915061138490600160581b900463ffffffff16611e50565b8154909350600160281b90046001600160581b03166113a66103858783611e5e565b925050509250929050565b6000806109aa6003611b73565b6060015161ffff16151590565b8260001080156113dd5750613fff8311155b6113e657600080fd5b8180156113fa575082846060015161ffff16145b1561140457610996565b6080840151600090815b6001600160701b03198216156115865760f082901c613fff1686811480156114335750855b1561146b57506080870180516001600160f01b0319861660109093029290921c919091176001600160701b0319169052506109969050565b8681148015611478575085155b156114d4576001600160f01b03198516199290921691600360fe1b83166114b2576010836dffffffffffffffffffffffffffff1916901b92505b506001600160701b031991821660109091021c91909117166080850152610996565b86811180156114e05750855b1561153a576080888101516001600160f01b031960f08a901b88178116601086021c9690961795911b161561151457600080fd5b506001600160701b03199182166001919091016010021c91909117166080850152610996565b8681118015611547575085155b156115555750505050610996565b506001600160f01b0319821660108281029190911c93909317929190911b6001600160801b0319169060010161140e565b8461159357505050610996565b600981106115a057600080fd5b6001600160f01b031960f087901b85171660109091021c919091176001600160701b03191660808601525050505050565b6000620151808210156115e357600080fd5b50620151808106900390565b6115f7614126565b6109aa826000611e90565b600061161386600001518486611c74565b935060006116248661ffff16611b99565b9050600060028860600151600581111561163a57fe5b14156116545761164d61130b8988611f2a565b905061167a565b60018860600151600581111561166657fe5b141561009c5761164d61130b898489611fdb565b6116878588838588611dfc565b98975050505050505050565b61169b614105565b60006116a68461219b565b905082816000015110156116e5576000806116c086612263565b90506116ce868483886122e0565b90935091506116de868385612384565b50506116f2565b805183146116f257600080fd5b604051806060016040528061171b61130b8460a001518560c001516125b890919063ffffffff16565b815260200161173e61130b8460a001518560e001516125b890919063ffffffff16565b8152602001826060015181525091505092915050565b600081158015906117675750613fff8211155b61177057600080fd5b6080830151606084015161ffff1683141561178f5760019150506109aa565b6001600160701b03198116156117d45760f081901c613fff16838114156117c15750600160fe1b9081161490506109aa565b5060101b6001600160801b03191661178f565b5060009392505050565b60008060008060006117ee6125df565b6001600160a01b03891660009081526020828152604080832061ffff8c168452909152902080546001600160501b0381169650600160501b900463ffffffff169450909150831561185b57805461185490600160701b900466ffffffffffffff16611e50565b9250611870565b8054600160701b900466ffffffffffffff1692505b805461188b908890600160a81b9004600a90810b900b6125ec565b9550505093509350935093565b6000836118a757506000611938565b600084126118b457600080fd5b60006118c38661ffff16611b99565b90506118d8816118d38688611e5e565b61261a565b915060006118e58361099c565b90506118f2878383612652565b60038260600151600581111561190457fe5b141561191a57611915888286611bac565b611927565b815161192790898361274a565b6119348888858589611dfc565b5050505b95945050505050565b8251600090429082906119579061ffff16610ceb565b90506000611964826127c1565b505090506000611979838960c001518661281d565b905061198788848389612900565b9450600061199484612a2d565b90506001600160a01b03811615611a1c57806001600160a01b0316633f3ef50d898b600001516119c78d60400151610ae8565b8b886040518663ffffffff1660e01b81526004016119e99594939291906149d1565b600060405180830381600087803b158015611a0357600080fd5b505af1158015611a17573d6000803e3d6000fd5b505050505b8515611a2c57611a2c8887612a9f565b50505050509392505050565b6000611a426125df565b6001600160a01b03891660009081526020828152604080832061ffff8c168452909152902090915084611aaa5766ffffffffffffff841115611a8357600080fd5b805466ffffffffffffff60701b1916600160701b66ffffffffffffff861602178155611ac4565b8054600160501b900463ffffffff168514611ac457600080fd5b611acd85612abe565b815463ffffffff91909116600160501b0263ffffffff60501b19909116178155611afe611af987610ae8565b612ad1565b815469ffffffffffffffffffff19166001600160501b039190911617808255611b4490611b3f9085908c908c90600160a81b9004600a90810b900b8c612ae7565b612b0a565b8154600a9190910b6001600160581b0316600160a81b026001600160a81b039091161790555050505050505050565b6000620f4240826026811115611b8557fe5b0192915050565b6000806109aa6002611b73565b611ba1614126565b6109aa826001611e90565b8015611c3e577382af49447d8a07e3bd95bd0d56f35241523fbab16001600160a01b031663d0e30db0836040518263ffffffff1660e01b81526004016000604051808303818588803b158015611c0157600080fd5b505af1158015611c15573d6000803e3d6000fd5b5050505050611c397382af49447d8a07e3bd95bd0d56f35241523fbab1848461274a565b6107a9565b6040516001600160a01b0384169083156108fc029084906000818181858888f19350505050158015610996573d6000803e3d6000fd5b600080846001600160a01b03166370a08231306040518263ffffffff1660e01b815260040180826001600160a01b0316815260200191505060206040518083038186803b158015611cc457600080fd5b505afa158015611cd8573d6000803e3d6000fd5b505050506040513d6020811015611cee57600080fd5b5051604080516323b872dd60e01b81526001600160a01b038781166004830152306024830152604482018790529151929350908716916323b872dd9160648082019260009290919082900301818387803b158015611d4b57600080fd5b505af1158015611d5f573d6000803e3d6000fd5b50505050611d6b612b3c565b6000856001600160a01b03166370a08231306040518263ffffffff1660e01b815260040180826001600160a01b0316815260200191505060206040518083038186803b158015611dba57600080fd5b505afa158015611dce573d6000803e3d6000fd5b505050506040513d6020811015611de457600080fd5b50519050611df28183612ba9565b9695505050505050565b600080611e098486612bbe565b9050611e158382612bee565b9150611e22878784612c10565b611e2d868383612c90565b8351611e399086612d9c565b5095945050505050565b6000806109aa601d611b73565b600881901c60ff9091161b90565b6000610ede6ec097ce7bc90715b34b9f1000000000611e8a856000015185610ff390919063ffffffff16565b90612df1565b611e98614126565b6000611ea2612e22565b6000858152602082815260408083208715158452825291829020825160a08101845281546001600160a01b038116825260ff600160a01b82048116151594830194909452600160b01b81048416600a0a9482019490945293945092916060830191600160a81b909104166005811115611f1757fe5b8152600060209091015295945050505050565b815160405163db006a7560e01b8152600091479183916001600160a01b03169063db006a7590611f5e908790600401614c41565b602060405180830381600087803b158015611f7857600080fd5b505af1158015611f8c573d6000803e3d6000fd5b505050506040513d601f19601f82011682018060405250810190611fb091906147dc565b90508015611fd05760405162461bcd60e51b815260040161025890614a92565b47611df28184612ba9565b60008083600001516001600160a01b03166370a08231306040518263ffffffff1660e01b815260040161200e9190614872565b60206040518083038186803b15801561202657600080fd5b505afa15801561203a573d6000803e3d6000fd5b505050506040513d601f19601f8201168201806040525081019061205e91906147dc565b9050600085600001516001600160a01b031663db006a75856040518263ffffffff1660e01b81526004016120929190614c41565b602060405180830381600087803b1580156120ac57600080fd5b505af11580156120c0573d6000803e3d6000fd5b505050506040513d601f19601f820116820180604052508101906120e491906147dc565b905080156121045760405162461bcd60e51b815260040161025890614a92565b84516040516370a0823160e01b81526000916001600160a01b0316906370a0823190612134903090600401614872565b60206040518083038186803b15801561214c57600080fd5b505afa158015612160573d6000803e3d6000fd5b505050506040513d601f19601f8201168201806040525081019061218491906147dc565b90506121908184612ba9565b979650505050505050565b6121a3614155565b60006121ad611e43565b61ffff93841660009081526020918252604090819020805464ffffffffff81168652600160281b81046001600160581b03908116948701949094526001820154841692860192909252600160d81b820463ffffffff166060860152600160801b9091049091166080840152600201546001600160501b0380821660a0850152600160501b8204811660c0850152600160a01b82041660e0840152600160f01b900460ff1661012c02909216610100820152919050565b60008061226f83612e2f565b6001600160a01b031663ef81f2166040518163ffffffff1660e01b81526004016040805180830381600087803b1580156122a857600080fd5b505af11580156122bc573d6000803e3d6000fd5b505050506040513d601f19601f820116820180604052508101906109c391906147f4565b6122e8614155565b60008060006122f8888689612e5f565b60c08b019290925260e08a01929092526020890151919350915061231c9083612f6a565b602088015260808701516000901561234a576080880151612347906123418982612ba9565b90612f7c565b90505b61236a61235f670de0b6b3a764000083612f6a565b60a08a015190612f99565b60a089015250506080860194909452505082529092909150565b600061238e611e43565b60008561ffff16815260200190815260200160002090506123b28260000151612fb6565b815464ffffffffff191664ffffffffff9190911617815560a08201516123d790612ad1565b60028201805469ffffffffffffffffffff19166001600160501b039290921691909117905560c082015161240a90612ad1565b81600201600a6101000a8154816001600160501b0302191690836001600160501b0316021790555061243f8260e00151612ad1565b8160020160146101000a8154816001600160501b0302191690836001600160501b031602179055506124748260200151612fca565b81546001600160581b0391909116600160281b026fffffffffffffffffffffff00000000001990911617815560408201516124ae90612fca565b6001820180546affffffffffffffffffffff19166001600160581b039290921691909117905560808201516124e290612fca565b81546001600160581b0391909116600160801b026affffffffffffffffffffff60801b19909116178155606082015161251a90612abe565b815463ffffffff91909116600160d81b0263ffffffff60d81b19909116178155821561256657600061254b84610c24565b90506125578582612fe0565b612564610fee8683612c10565b505b8361ffff167fef25641e225e493886510ca1ad6584fa7b442b9fea820a29d1de3ce27d270fd28360a001518460c001518560e001516040516125aa93929190614c4a565b60405180910390a250505050565b6000826125c7575060006109aa565b828202828482816125d457fe5b0414610ede57600080fd5b6000806109aa6006611b73565b60008082126125fc5750806109aa565b825160208401516126139190611e8a908590610ff3565b90506109aa565b60006305f5e100836040015114156126335750806109aa565b610ede6305f5e100611e8a856040015185610ff390919063ffffffff16565b600061265c613017565b83516001600160a01b03166000908152602082905260409020549091508083116126875750506107a9565b600061269286612e2f565b90506000816001600160a01b031663b5e4da238487036040518263ffffffff1660e01b81526004016126c49190614c41565b60006040518083038186803b1580156126dc57600080fd5b505afa1580156126f0573d6000803e3d6000fd5b505050506040513d6000823e601f3d908101601f191682016040526127189190810190614494565b905060006127268783613024565b915061273490508482612f6a565b86111561274057600080fd5b5050505050505050565b826001600160a01b031663a9059cbb83836040518363ffffffff1660e01b815260040180836001600160a01b0316815260200182815260200192505050600060405180830381600087803b1580156127a157600080fd5b505af11580156127b5573d6000803e3d6000fd5b505050506107a9612b3c565b6000806000806127cf61323b565b6001600160a01b0395909516600090815260209590955250506040909220546001600160601b03811693600160601b82046001600160801b03169350600160e01b90910463ffffffff169150565b600080600061282c8685613248565b5091509150600061283b61323b565b6001600160a01b0388166000908152602082905260408120919250612860858961132f565b90508060001315801561287957506001600160601b0381105b61288257600080fd5b81546bffffffffffffffffffffffff19166001600160601b038216176fffffffffffffffffffffffffffffffff60601b1916600160601b6001600160801b0386160217825563ffffffff87106128d757600080fd5b50805463ffffffff8716600160e01b026001600160e01b03909116179055509150509392505050565b60e0840151600090156129c15773__$b21a4dc043b77aa57922ad9143a3cb040e$__63e0c01a72856129358860400151610ae8565b8860e001518961010001516040518563ffffffff1660e01b815260040161295f9493929190614a03565b60206040518083038186803b15801561297757600080fd5b505af415801561298b573d6000803e3d6000fd5b505050506040513d601f19601f820116820180604052508101906129af91906147dc565b600060e0870181905261010087015290505b612a036129fc8661010001516129f6670de0b6b3a76400006129f0886129ea8c60400151610ae8565b906125b8565b906132de565b90612ba9565b8290612f6a565b9050612a1b670de0b6b3a76400006129f084866125b8565b85610100018181525050949350505050565b600080612a38611b8c565b6001600160a01b0384166000908152602082905260409020805491925090600160f81b900460ff1615612a9457612a6d6132fd565b6001600160a01b0380861660009081526020929092526040909120541692506108b1915050565b6000925050506108b1565b61049873019be259bc299f3f653688c7655c87f998bc7bc1838361274a565b600063ffffffff821115610af757600080fd5b60006001600160501b03821115610af757600080fd5b6000612af3868361330a565b9050611938868686612b058786613349565b6133d0565b60006a7fffffffffffffffffffff198212801590612b3357506a7fffffffffffffffffffff8213155b610af757600080fd5b6000612b466141a1565b3d8015612b5a5760208114612b6357600080fd5b60019250612b6e565b60206000833e815192505b5081610498576040805162461bcd60e51b8152602060048201526005602482015264045524332360dc1b604482015290519081900360640190fd5b600082821115612bb857600080fd5b50900390565b60006305f5e10083604001511415612bd75750806109aa565b6040830151610ede90611e8a846305f5e100610ff3565b8151600090610ede90611e8a846ec097ce7bc90715b34b9f1000000000610ff3565b6000612c1a613404565b61ffff8416600090815260209190915260409081902054905163ad1c095d60e01b81526001600160a01b039091169150819063ad1c095d90612c629087908690600401614965565b600060405180830381600087803b158015612c7c57600080fd5b505af1158015612740573d6000803e3d6000fd5b6000612c9a611e43565b61ffff8516600090815260209190915260409020805490915064ffffffffff164214612cc557600080fd5b8054600090612ce490600160281b90046001600160581b03168561132f565b8254909150600090612d0690600160801b90046001600160581b03168561132f565b905080624c4b401315612d1857600080fd5b612d29612d2482610ae8565b612fca565b83546001600160581b0391909116600160801b026affffffffffffffffffffff60801b19909116178355612d5f612d2483610ae8565b83546001600160581b0391909116600160281b026fffffffffffffffffffffff000000000019909116178355612d9483613411565b505050505050565b6000612da6613017565b6001600160a01b038416600090815260208290526040902054909150612dcf610385828561132f565b6001600160a01b03909416600090815260209290925250604090209190915550565b600081600019148015612e075750600160ff1b83145b15612e1157600080fd5b818381612e1a57fe5b059392505050565b6000806109aa6007611b73565b600080612e3a6134dc565b61ffff939093166000908152602093909352505060409020546001600160a01b031690565b600080600080600080612e7289886134e9565b89519095509193509150600090612e9990612e8e908b90612ba9565b633b9aca00906125b8565b9050612ed3612ec86301da9c00612eb085856125b8565b81612eb757fe5b670de0b6b3a7640000919004612f6a565b60e08a015190612f99565b9650612ef5612eea6301da9c00612eb087856125b8565b60c08a015190612f99565b955081831415612f0c575060009350612f61915050565b6000612f2e612f236301da9c00612eb087866125b8565b60e08b015190612f99565b90506000612f3c8983612ba9565b9050612f59886129f0838d604001516125b890919063ffffffff16565b965050505050505b93509350935093565b600082820183811015610ede57600080fd5b6000610ede612f9384670de0b6b3a76400006125b8565b836132de565b6000610ede612fa884846125b8565b670de0b6b3a76400006132de565b600064ffffffffff821115610af757600080fd5b60006001600160581b03821115610af757600080fd5b6000811215612fee57600080fd5b6000612ffc610fee84613583565b9050613008818361132f565b90506107a9610fee84836135dc565b6000806109aa6026611b73565b60008060005b835181101561323357600084828151811061304157fe5b60200260200101519050600081606001516001600160a01b03166370a08231306040518263ffffffff1660e01b815260040161307d9190614872565b60206040518083038186803b15801561309557600080fd5b505afa1580156130a9573d6000803e3d6000fd5b505050506040513d601f19601f820116820180604052508101906130cd91906147dc565b905060006130db8830613650565b905060005b83515181101561313757613126846000015182815181106130fd57fe5b602002602001015160008660200151848151811061311757fe5b602002602001015160016136fa565b61312f57600196505b6001016130e0565b5060006131448930613650565b905060006131528284612ba9565b9050808560400151111561316557600080fd5b60608501516040516370a0823160e01b81526000916001600160a01b0316906370a0823190613198903090600401614872565b60206040518083038186803b1580156131b057600080fd5b505afa1580156131c4573d6000803e3d6000fd5b505050506040513d601f19601f820116820180604052508101906131e891906147dc565b9050848111156131f757600080fd5b61320686606001518683613968565b6132108883612f6a565b97506132218b600001518585613968565b50506001909401935061302a92505050565b509250929050565b6000806109aa6011611b73565b6000806000613256856127c1565b91945092509050808411801561326c5750600081115b80156132785750600083115b156132d757600061328886611204565b50505091505060006132b36132aa6305f5e100846125b890919063ffffffff16565b848803876139e5565b90506132bf8482612f6a565b93506001600160801b0384106132d457600080fd5b50505b9250925092565b60008082116132ec57600080fd5b8183816132f557fe5b049392505050565b6000806109aa6012611b73565b6000808212156133435761333e60016133388560200151611e8a876000015187610ff390919063ffffffff16565b90613a07565b610ede565b50919050565b600081831480613366575060008312158015613366575060008212155b15613373575060006109aa565b600083131580156133845750816000125b156133905750816109aa565b600082131580156133a15750826000125b156133af576126138261099c565b600083131580156133c1575060008213155b1561009c576126138383613a07565b801561099657835160208501516000916133ef91611e8a908590610ff3565b90506133fd84848484613a1d565b5050505050565b6000806109aa6021611b73565b8054600282015460009161345391600160281b9091046001600160581b03169061344d906001600160501b03600160501b820481169116610ff3565b90610ff3565b6001830154600284015491925060009161348d916001600160581b03169061344d906001600160501b03600160a01b820481169116610ff3565b83549091506000906134c49060016001600160581b03600160801b909204821601166ec097ce7bc90715b34b9f1000000000610ff3565b9050806134d18484613a07565b131561099657600080fd5b6000806109aa601f611b73565b6000806000806000856020015111156135365761353361351a8660c0015187602001516125b890919063ffffffff16565b60e0870151604088015161352d916125b8565b90613b63565b90505b600061354187613b76565b905061354d8183613ba9565b945081156135645761356181866001613c62565b93505b6020860151156132d4576135788583613cd3565b925050509250925092565b60008061358e6125df565b6001600160a01b03851660009081526020828152604080832061ffff8816845290915281208054600160a81b9004600a90810b900b94509192508312156135d457600080fd5b505092915050565b60008112156135ea57600080fd5b60006135f46125df565b6001600160a01b03851660009081526020828152604080832061ffff88168452909152902090915061362583612b0a565b8154600a9190910b6001600160581b0316600160a81b026001600160a81b0390911617905550505050565b600060038360600151600581111561366457fe5b141561367b57506001600160a01b038116316109aa565b82516040516370a0823160e01b81526001600160a01b03909116906370a08231906136aa908590600401614872565b60206040518083038186803b1580156136c257600080fd5b505afa1580156136d6573d6000803e3d6000fd5b505050506040513d601f19601f8201168201806040525081019061261391906147dc565b6000806000866001600160a01b031686866040518082805190602001908083835b6020831061373a5780518252601f19909201916020918201910161371b565b6001836020036101000a03801982511681845116808217855250505050505090500191505060006040518083038185875af1925050503d806000811461379c576040519150601f19603f3d011682016040523d82523d6000602084013e6137a1565b606091505b50915091508361384457816137b582613cec565b9061383e5760405162461bcd60e51b81526004018080602001828103825283818151815260200191508051906020019080838360005b838110156138035781810151838201526020016137eb565b50505050905090810190601f1680156138305780820380516001836020036101000a031916815260200191505b509250505060405180910390fd5b50611e39565b866001600160a01b03167f3c7e398c5e91088cae639370e35b25ea669d81fbdf0def5388e73661bc34e08e878761387a85613cec565b604051808481526020018060200180602001838103835285818151815260200191508051906020019080838360005b838110156138c15781810151838201526020016138a9565b50505050905090810190601f1680156138ee5780820380516001836020036101000a031916815260200191505b50838103825284518152845160209182019186019080838360005b83811015613921578181015183820152602001613909565b50505050905090810190601f16801561394e5780820380516001836020036101000a031916815260200191505b509550505050505060405180910390a25095945050505050565b6000613972613017565b6001600160a01b0385166000908152602082905260409020549091508381111561399b57600080fd5b60006139b26139a986610c24565b61333886610c24565b90506139c1610385838361132f565b6001600160a01b039096166000908152602093909352505060409020929092555050565b60006109c3826129f06301da9c0081886129ea89670de0b6b3a76400006125b8565b808203828113156000831215146109aa57600080fd5b6000613a27611e43565b61ffff8516600090815260209190915260409020805490915064ffffffffff164214613a5257600080fd5b8054600160f81b900460ff16613a6757600080fd5b6001810154600090613a82906001600160581b03168561132f565b8254909150600090613aa490600160281b90046001600160581b03168561132f565b905081600919128015613ab75750600082125b15613ac157600091505b80600919128015613ad25750600081125b15613adb575060005b613ae7612d2483610ae8565b6001840180546affffffffffffffffffffff19166001600160581b0392909216919091179055613b19612d2482610ae8565b83546001600160581b0391909116600160281b026fffffffffffffffffffffff000000000019909116178355613b5187878688613df3565b613b5a83613411565b50505050505050565b6000610ede612f9384633b9aca006125b8565b613b7e6141bf565b6000613b88613f07565b61ffff84166000908152602091909152604081205491506108ad9082613f14565b600080836080015111613bbb57600080fd5b633b9aca00821115613bcc57600080fd5b82518211613beb578251604084015161261391906129f09085906125b8565b82602001518211613c295760408301518351602085015160608601516126139392613c2392819003916129f0918803908590036125b8565b90612f6a565b610ede8360600151613c238560200151633b9aca00036129f08760600151886080015103886020015188036125b890919063ffffffff16565b600080613c8160646129f08760e00151876125b890919063ffffffff16565b90508460a00151811015613c96575060a08401515b8460c00151811115613ca9575060c08401515b8215613cb957610ed98482612f6a565b838111613cc857808403610ed9565b600095945050505050565b6000610ede613ce284846125b8565b633b9aca006132de565b6060604482511015613d22575060408051808201909152600d81526c14da5b195b9d0814995d995c9d609a1b60208201526108b1565b6004820180519092602401906020811015613d3c57600080fd5b8101908080516040519392919084640100000000821115613d5c57600080fd5b908301906020820185811115613d7157600080fd5b8251640100000000811182820188101715613d8b57600080fd5b82525081516020918201929091019080838360005b83811015613db8578181015183820152602001613da0565b50505050905090810190601f168015613de55780820380516001836020036101000a031916815260200191505b506040525050509050919050565b6000613dfd613404565b61ffff8516600090815260209190915260408120546001600160a01b03169150613e25614033565b61ffff8616600090815260209190915260409081902054905163ad1c095d60e01b81526001600160a01b039091169150819063ad1c095d90613e6d9089908790600401614965565b600060405180830381600087803b158015613e8757600080fd5b505af1158015613e9b573d6000803e3d6000fd5b505060405163ad1c095d60e01b81526001600160a01b038516925063ad1c095d9150613ecd9089908890600401614965565b600060405180830381600087803b158015613ee757600080fd5b505af1158015613efb573d6000803e3d6000fd5b50505050505050505050565b6000806109aa601b611b73565b613f1c6141bf565b6064633b9aca008360ff861660208110613f3257fe5b1a0281613f3b57fe5b0481526064633b9aca008360ff861660010160208110613f5757fe5b1a0281613f6057fe5b04816020018181525050613f858260028560ff160160208110613f7f57fe5b1a614040565b60808201819052610100908360ff861660030160208110613fa257fe5b1a0281613fab57fe5b0460408201526080810151610100908360ff861660040160208110613fcc57fe5b1a0281613fd557fe5b0460608201526207a1208260ff851660050160208110613ff157fe5b1a0260a0820152622625a08260ff85166006016020811061400e57fe5b1a0260c08201528160ff84166007016020811061402757fe5b1a60e082015292915050565b6000806109aa6022611b73565b60008160ff1660961061405b5760ff8216622625a0026109aa565b5060951960ff919091160162e4e1c00263165a0bc00190565b604051806101400160405280600061ffff16815260200160008152602001600081526020016000815260200160008152602001600081526020016000815260200160008152602001600081526020016140cb614105565b905290565b6040805160c081018252600080825260208201819052918101829052606081018290526080810182905260a081019190915290565b60405180606001604052806000815260200160008152602001600081525090565b6040805160a0810182526000808252602082018190529181018290529060608201908152602001600081525090565b6040518061012001604052806000815260200160008152602001600081526020016000815260200160008152602001600081526020016000815260200160008152602001600081525090565b60405180602001604052806001906020820280368337509192915050565b60405180610100016040528060008152602001600081526020016000815260200160008152602001600081526020016000815260200160008152602001600081525090565b80516108b181614ca2565b600082601f83011261421f578081fd5b8151602061423461422f83614c84565b614c60565b8281528181019085830183850287018401881015614250578586fd5b855b8581101561427757815161426581614ca2565b84529284019290840190600101614252565b5090979650505050505050565b6000601f8381840112614295578182fd5b825160206142a561422f83614c84565b82815281810190868301865b8581101561434957815189018a603f8201126142cb578889fd5b8581015167ffffffffffffffff8111156142e157fe5b6142f2818a01601f19168801614c60565b8181528c6040838501011115614306578a8bfd5b8a5b8281101561432457838101604001518282018a01528801614308565b82811115614334578b8984840101525b508652505092840192908401906001016142b1565b509098975050505050505050565b80516108b181614cba565b80516001600160701b0319811681146108b157600080fd5b80516001600160f81b0319811681146108b157600080fd5b8051600481106108b157600080fd5b80516108b181614cc8565b805160ff811681146108b157600080fd5b6000602082840312156143ce578081fd5b8135610ede81614ca2565b6000806000606084860312156143ed578182fd5b83356143f881614ca2565b9250602084013561440881614cc8565b929592945050506040919091013590565b600080600080600060a08688031215614430578283fd5b853561443b81614ca2565b9450602086013561444b81614cc8565b935060408601356001600160601b0381168114614466578384fd5b9250606086013561447681614cba565b9150608086013561448681614cba565b809150509295509295909350565b600060208083850312156144a6578182fd5b825167ffffffffffffffff808211156144bd578384fd5b818501915085601f8301126144d0578384fd5b81516144de61422f82614c84565b81815284810190848601875b8481101561459357815187016080818d03601f1901121561450957898afd5b60408051608081018181108a8211171561451f57fe5b8252828b015189811115614531578c8dfd5b61453f8f8d8387010161420f565b8252508183015189811115614552578c8dfd5b6145608f8d83870101614284565b8c8301525060608301518282015261457a60808401614204565b60608201528652505092870192908701906001016144ea565b50909998505050505050505050565b6000602082840312156145b3578081fd5b8135610ede81614cba565b60008060408084860312156145d1578283fd5b8351925060208085015167ffffffffffffffff808211156145f0578485fd5b818701915087601f830112614603578485fd5b815161461161422f82614c84565b8181528481019084860160c0808502870188018d101561462f57898afd5b8996505b848710156146b65780828e03121561464957898afd5b8851818101818110888211171561465c57fe5b8a52825161466981614cc8565b81528289015189820152898301518a820152606080840151908201526080808401519082015260a061469c818501614392565b908201528452600196909601959287019290810190614633565b50989b909a5098505050505050505050565b600060c082840312156146d9578081fd5b60405160c0810181811067ffffffffffffffff821117156146f657fe5b604052825164ffffffffff8116811461470d578283fd5b815261471b6020840161437a565b602082015261472c604084016143ac565b604082015261473d606084016143a1565b606082015261474e60808401614362565b608082015261475f60a08401614357565b60a08201529392505050565b60006020828403121561477c578081fd5b8135610ede81614cc8565b60008060006060848603121561479b578081fd5b83356147a681614cc8565b925060208401356001600160581b03811681146147c1578182fd5b915060408401356147d181614cba565b809150509250925092565b6000602082840312156147ed578081fd5b5051919050565b60008060408385031215614806578182fd5b505080516020909101519092909150565b805164ffffffffff1682526020808201516001600160f81b0319169083015260408082015160ff169083015260608082015161ffff16908301526080808201516001600160701b0319169083015260a0908101511515910152565b6001600160a01b0391909116815260200190565b6001600160a01b03948516815292841660208401529083166040830152909116606082015260800190565b600061012080830160018060a01b038089168552602081891681870152604091506148de82870189614817565b61010086019390935285519182905261014085019280870192855b81811015614955578451805161ffff16875283810151848801528481015185880152606080820151908801526080808201519088015260a090810151906004821061494057fe5b87015260c090950194938201936001016148f9565b50939a9950505050505050505050565b6001600160a01b03929092168252602082015260400190565b6001600160a01b038316815260e08101610ede6020830184614817565b6001600160a01b0395909516855261ffff9390931660208501526040840191909152151560608301521515608082015260a00190565b6001600160a01b0395909516855261ffff93909316602085015260408401919091526060830152608082015260a00190565b6001600160a01b0394909416845260208401929092526040830152606082015260800190565b901515815260200190565b9182521515602082015260400190565b6020808252600f908201526e04f76657220537570706c792043617608c1b604082015260600190565b6020808252600b908201526a4554482042616c616e636560a81b604082015260600190565b60208082526006908201526552656465656d60d01b604082015260600190565b60208082526012908201527143616e6e6f7420686176652061737365747360701b604082015260600190565b6020808252601390820152722ab730baba3437b934bd32b21031b0b63632b960691b604082015260600190565b6020808252600f908201526e4e6f205072696d6520426f72726f7760881b604082015260600190565b6020808252601c908201527f446570726563617465643a2052656465656d20746f2063546f6b656e00000000604082015260600190565b602080825260149082015273043616e6e6f74206368616e6765206269746d61760641b604082015260600190565b60208082526010908201526f10d85b9b9bdd081a185d99481919589d60821b604082015260600190565b6020808252600a90820152692732b390372a37b5b2b760b11b604082015260600190565b602080825260139082015272125b9d985b1a590818dd5c9c995b98de481a59606a1b604082015260600190565b602080825260139082015272496e73756666696369656e7420746f6b656e7360681b604082015260600190565b90815260200190565b9283526020830191909152604082015260600190565b60405181810167ffffffffffffffff81118282101715614c7c57fe5b604052919050565b600067ffffffffffffffff821115614c9857fe5b5060209081020190565b6001600160a01b0381168114614cb757600080fd5b50565b8015158114614cb757600080fd5b61ffff81168114614cb757600080fdfea2646970667358221220f70580816e52240d2116ec9099d8df0fb147ce543ddfeac0240d928c2c61981c64736f6c63430007060033","language":"Solidity","natspec":{"kind":"dev","methods":{"depositAssetToken(address,uint16,uint256)":{"details":"emit:CashBalanceChange emit:AccountContextUpdateauth:none","notice":"DEPRECATED: deposits deprecated cTokens tokens as collateral into an account that were listed prior to the migration to prime cash. Future listed tokens will not have asset tokens and will revert in this method.","params":{"account":"the account to deposit into","amountExternalPrecision":"the amount of asset tokens in its native decimal precision (i.e. 8 decimals for cTokens).","currencyId":"currency id of the asset token"},"returns":{"_0":"asset tokens minted and deposited to the account in internal decimals (8)"}},"depositUnderlyingToken(address,uint16,uint256)":{"details":"emit:CashBalanceChange emit:AccountContextUpdateauth:none","notice":"Deposits and wraps the underlying token for a particular cToken. Does not settle assets or check free collateral, idea is to be as gas efficient as possible during potential liquidation events.","params":{"account":"the account to deposit into","amountExternalPrecision":"the amount of underlying tokens in its native decimal precision (i.e. 18 decimals for DAI or 6 decimals for USDC). This will be converted to 8 decimals during transfer.","currencyId":"currency id of the asset token that wraps this underlying"},"returns":{"_0":"asset tokens minted and deposited to the account in internal decimals (8)"}},"enableBitmapCurrency(uint16)":{"details":"emit:AccountSettled emit:AccountContextUpdateauth:msg.sender","notice":"Enables a bitmap currency for msg.sender, account cannot have any assets when this call occurs. Will revert if the account already has a bitmap currency set.","params":{"currencyId":"the currency to enable the bitmap for."}},"enablePrimeBorrow(bool)":{"details":"emit:AccountSettled emit:AccountContextUpdateauth:msg.sender","notice":"A per account setting that allows it to borrow prime cash (i.e. incur negative cash) as a result of account initiated actions. Accounts can still incur negative cash as a result of fCash settlement regardless of this setting.","params":{"allowPrimeBorrow":"true if the account can borrow prime cash"}},"getLibInfo()":{"notice":"Get a list of deployed library addresses (sorted by library name)"},"nTokenRedeem(address,uint16,uint96,bool,bool)":{"details":"auth:msg.sender auth:ERC1155","notice":"Allows accounts to redeem nTokens into constituent assets and then absorb the assets into their portfolio. Due to the complexity here, it is not allowed to be called during a batch trading operation and must be done separately.","params":{"acceptResidualAssets":"if true, will place any residual fCash that could not be sold (either due to slippage or because it was idiosyncratic) into the account's portfolio","currencyId":"the currency associated the nToken","redeemer":"the address that holds the nTokens to redeem","sellTokenAssets":"attempt to sell residual fCash and convert to cash","tokensToRedeem_":"the amount of nTokens to convert to cash"},"returns":{"_0":"total amount of asset cash redeemed","_1":"true or false if there were residuals that were placed into the portfolio"}},"settleAccount(address)":{"details":"emit:AccountSettled emit:AccountContextUpdateauth:none","notice":"Method for manually settling an account, generally should not be called because other methods will check if an account needs to be settled automatically. If a bitmap account has debt and is settled via this method, the hasDebt flag will not be cleared until a free collateral check is performed on the account.","params":{"account":"the account to settle"},"returns":{"_0":"returns true if account has been settled"}},"withdraw(uint16,uint88,bool)":{"details":"emit:CashBalanceChange emit:AccountContextUpdateauth:msg.sender","notice":"Withdraws balances from Notional, may also redeem to underlying tokens on user request. Will settle and do free collateral checks if required. Can only be called by msg.sender, operators who want to withdraw for an account must do an authenticated call via ERC1155Action `safeTransferFrom` or `safeBatchTransferFrom`","params":{"amountInternalPrecision":"the amount of cash balance in internal 8 decimal precision to withdraw, this is be denominated in prime cash. If set to uint88 max, will withdraw an entire cash balance.","currencyId":"currency id of the asset token","redeemToUnderlying":"DEPRECATED except for ETH balances. Prior to the prime cash upgrade, accounts could withdraw cTokens directly. However, post prime cash migration this is no longer the case. If withdrawing ETH, setting redeemToUnderlying to false will redeem ETH as WETH."},"returns":{"_0":"the amount of tokens received by the account denominated in the destination token precision (if"}}},"version":1},"opcodes":"PUSH1 0x80 PUSH1 0x40 MSTORE PUSH1 0x4 CALLDATASIZE LT PUSH2 0x9C JUMPI PUSH1 0x0 CALLDATALOAD PUSH1 0xE0 SHR DUP1 PUSH4 0x82463367 GT PUSH2 0x64 JUMPI DUP1 PUSH4 0x82463367 EQ PUSH2 0x15C JUMPI DUP1 PUSH4 0x8DA5CB5B EQ PUSH2 0x171 JUMPI DUP1 PUSH4 0x9C979450 EQ PUSH2 0x186 JUMPI DUP1 PUSH4 0xB8A69455 EQ PUSH2 0x1A6 JUMPI DUP1 PUSH4 0xC4C96DAE EQ PUSH2 0x1C6 JUMPI DUP1 PUSH4 0xF667F897 EQ PUSH2 0x1EB JUMPI PUSH2 0x9C JUMP JUMPDEST DUP1 PUSH4 0x2F332E8 EQ PUSH2 0xA1 JUMPI DUP1 PUSH4 0x24A3D622 EQ PUSH2 0xD7 JUMPI DUP1 PUSH4 0x2890FB65 EQ PUSH2 0xF9 JUMPI DUP1 PUSH4 0x61D0D61C EQ PUSH2 0x10C JUMPI DUP1 PUSH4 0x66890643 EQ PUSH2 0x12E JUMPI JUMPDEST PUSH1 0x0 DUP1 REVERT JUMPDEST CALLVALUE DUP1 ISZERO PUSH2 0xAD JUMPI PUSH1 0x0 DUP1 REVERT JUMPDEST POP PUSH2 0xC1 PUSH2 0xBC CALLDATASIZE PUSH1 0x4 PUSH2 0x4787 JUMP JUMPDEST PUSH2 0x218 JUMP JUMPDEST PUSH1 0x40 MLOAD PUSH2 0xCE SWAP2 SWAP1 PUSH2 0x4C41 JUMP JUMPDEST PUSH1 0x40 MLOAD DUP1 SWAP2 SUB SWAP1 RETURN JUMPDEST CALLVALUE DUP1 ISZERO PUSH2 0xE3 JUMPI PUSH1 0x0 DUP1 REVERT JUMPDEST POP PUSH2 0xEC PUSH2 0x39A JUMP JUMPDEST PUSH1 0x40 MLOAD PUSH2 0xCE SWAP2 SWAP1 PUSH2 0x4872 JUMP JUMPDEST PUSH2 0xC1 PUSH2 0x107 CALLDATASIZE PUSH1 0x4 PUSH2 0x43D9 JUMP JUMPDEST PUSH2 0x3A9 JUMP JUMPDEST CALLVALUE DUP1 ISZERO PUSH2 0x118 JUMPI PUSH1 0x0 DUP1 REVERT JUMPDEST POP PUSH2 0x12C PUSH2 0x127 CALLDATASIZE PUSH1 0x4 PUSH2 0x45A2 JUMP JUMPDEST PUSH2 0x462 JUMP JUMPDEST STOP JUMPDEST CALLVALUE DUP1 ISZERO PUSH2 0x13A JUMPI PUSH1 0x0 DUP1 REVERT JUMPDEST POP PUSH2 0x14E PUSH2 0x149 CALLDATASIZE PUSH1 0x4 PUSH2 0x4419 JUMP JUMPDEST PUSH2 0x49C JUMP JUMPDEST PUSH1 0x40 MLOAD PUSH2 0xCE SWAP3 SWAP2 SWAP1 PUSH2 0x4A34 JUMP JUMPDEST CALLVALUE DUP1 ISZERO PUSH2 0x168 JUMPI PUSH1 0x0 DUP1 REVERT JUMPDEST POP PUSH2 0xEC PUSH2 0x73B JUMP JUMPDEST CALLVALUE DUP1 ISZERO PUSH2 0x17D JUMPI PUSH1 0x0 DUP1 REVERT JUMPDEST POP PUSH2 0xEC PUSH2 0x74A JUMP JUMPDEST CALLVALUE DUP1 ISZERO PUSH2 0x192 JUMPI PUSH1 0x0 DUP1 REVERT JUMPDEST POP PUSH2 0x12C PUSH2 0x1A1 CALLDATASIZE PUSH1 0x4 PUSH2 0x476B JUMP JUMPDEST PUSH2 0x761 JUMP JUMPDEST CALLVALUE DUP1 ISZERO PUSH2 0x1B2 JUMPI PUSH1 0x0 DUP1 REVERT JUMPDEST POP PUSH2 0xC1 PUSH2 0x1C1 CALLDATASIZE PUSH1 0x4 PUSH2 0x43D9 JUMP JUMPDEST PUSH2 0x7AE JUMP JUMPDEST CALLVALUE DUP1 ISZERO PUSH2 0x1D2 JUMPI PUSH1 0x0 DUP1 REVERT JUMPDEST POP PUSH2 0x1DB PUSH2 0x828 JUMP JUMPDEST PUSH1 0x40 MLOAD PUSH2 0xCE SWAP5 SWAP4 SWAP3 SWAP2 SWAP1 PUSH2 0x4886 JUMP JUMPDEST CALLVALUE DUP1 ISZERO PUSH2 0x1F7 JUMPI PUSH1 0x0 DUP1 REVERT JUMPDEST POP PUSH2 0x20B PUSH2 0x206 CALLDATASIZE PUSH1 0x4 PUSH2 0x43BD JUMP JUMPDEST PUSH2 0x882 JUMP JUMPDEST PUSH1 0x40 MLOAD PUSH2 0xCE SWAP2 SWAP1 PUSH2 0x4A29 JUMP JUMPDEST PUSH1 0x0 PUSH1 0x2 PUSH1 0xA SLOAD EQ ISZERO PUSH2 0x22A JUMPI PUSH1 0x0 DUP1 REVERT JUMPDEST PUSH1 0x2 PUSH1 0xA SSTORE PUSH2 0xFFFF DUP5 AND PUSH1 0x1 EQ PUSH2 0x261 JUMPI DUP2 PUSH2 0x261 JUMPI PUSH1 0x40 MLOAD PUSH3 0x461BCD PUSH1 0xE5 SHL DUP2 MSTORE PUSH1 0x4 ADD PUSH2 0x258 SWAP1 PUSH2 0x4B34 JUMP JUMPDEST PUSH1 0x40 MLOAD DUP1 SWAP2 SUB SWAP1 REVERT JUMPDEST PUSH1 0x0 PUSH2 0x26C CALLER PUSH2 0x8B6 JUMP JUMPDEST POP SWAP1 POP PUSH2 0x277 PUSH2 0x4074 JUMP JUMPDEST PUSH2 0x283 DUP2 CALLER DUP9 DUP6 PUSH2 0x97B JUMP JUMPDEST PUSH1 0x1 PUSH1 0x1 PUSH1 0x58 SHL SUB DUP6 DUP2 AND EQ ISZERO PUSH2 0x2BC JUMPI PUSH1 0x0 DUP2 PUSH1 0x20 ADD MLOAD SGT PUSH2 0x2A5 JUMPI PUSH1 0x0 DUP1 REVERT JUMPDEST PUSH2 0x2B2 DUP2 PUSH1 0x20 ADD MLOAD PUSH2 0x99C JUMP JUMPDEST PUSH1 0x80 DUP3 ADD MSTORE PUSH2 0x2D4 JUMP JUMPDEST PUSH2 0x2CE DUP6 PUSH1 0x1 PUSH1 0x1 PUSH1 0x58 SHL SUB AND PUSH2 0x99C JUMP JUMPDEST PUSH1 0x80 DUP3 ADD MSTORE JUMPDEST PUSH1 0x0 PUSH2 0x2E3 DUP3 CALLER DUP6 DUP9 ISZERO PUSH2 0x9B0 JUMP JUMPDEST SWAP1 POP PUSH2 0x2EF DUP4 CALLER PUSH2 0x9CB JUMP JUMPDEST PUSH1 0x20 DUP4 ADD MLOAD PUSH1 0x1 PUSH1 0x1 PUSH1 0xF8 SHL SUB NOT AND ISZERO PUSH2 0x36B JUMPI PUSH1 0x40 MLOAD PUSH4 0x6CCC642F PUSH1 0xE0 SHL DUP2 MSTORE PUSH20 0x0 SWAP1 PUSH4 0x6CCC642F SWAP1 PUSH2 0x33A SWAP1 CALLER SWAP1 PUSH1 0x4 ADD PUSH2 0x4872 JUMP JUMPDEST PUSH1 0x0 PUSH1 0x40 MLOAD DUP1 DUP4 SUB DUP2 DUP7 DUP1 EXTCODESIZE ISZERO DUP1 ISZERO PUSH2 0x352 JUMPI PUSH1 0x0 DUP1 REVERT JUMPDEST POP GAS DELEGATECALL ISZERO DUP1 ISZERO PUSH2 0x366 JUMPI RETURNDATASIZE PUSH1 0x0 DUP1 RETURNDATACOPY RETURNDATASIZE PUSH1 0x0 REVERT JUMPDEST POP POP POP POP JUMPDEST PUSH1 0x0 DUP2 SGT ISZERO PUSH2 0x379 JUMPI PUSH1 0x0 DUP1 REVERT JUMPDEST PUSH2 0x38A PUSH2 0x385 DUP3 PUSH2 0x99C JUMP JUMPDEST PUSH2 0xAE8 JUMP JUMPDEST PUSH1 0x1 PUSH1 0xA SSTORE SWAP8 SWAP7 POP POP POP POP POP POP POP JUMP JUMPDEST PUSH1 0x2 SLOAD PUSH1 0x1 PUSH1 0x1 PUSH1 0xA0 SHL SUB AND DUP2 JUMP JUMPDEST PUSH1 0x0 PUSH1 0x2 PUSH1 0xA SLOAD EQ ISZERO PUSH2 0x3BB JUMPI PUSH1 0x0 DUP1 REVERT JUMPDEST PUSH1 0x2 PUSH1 0xA SSTORE CALLER ADDRESS EQ ISZERO PUSH2 0x3CD JUMPI PUSH1 0x0 DUP1 REVERT JUMPDEST CALLER PUSH1 0x1 PUSH1 0x1 PUSH1 0xA0 SHL SUB DUP6 AND EQ PUSH2 0x3E2 JUMPI PUSH1 0x0 DUP1 REVERT JUMPDEST PUSH2 0x3EB DUP5 PUSH2 0xAFB JUMP JUMPDEST PUSH1 0x0 PUSH2 0x3F6 DUP6 PUSH2 0xB76 JUMP JUMPDEST SWAP1 POP PUSH2 0x400 PUSH2 0x4074 JUMP JUMPDEST PUSH2 0x40C DUP2 DUP8 DUP8 DUP6 PUSH2 0x97B JUMP JUMPDEST PUSH1 0x0 PUSH2 0x425 DUP8 PUSH2 0x41B DUP8 PUSH2 0xC24 JUMP JUMPDEST DUP5 SWAP2 SWAP1 PUSH1 0x0 PUSH2 0xC3A JUMP JUMPDEST SWAP1 POP PUSH1 0x0 DUP2 SGT PUSH2 0x434 JUMPI PUSH1 0x0 DUP1 REVERT JUMPDEST PUSH2 0x43F DUP3 DUP9 DUP6 PUSH2 0xC8C JUMP JUMPDEST PUSH2 0x449 DUP4 DUP9 PUSH2 0x9CB JUMP JUMPDEST PUSH2 0x120 DUP3 ADD MLOAD PUSH2 0x459 SWAP1 DUP8 PUSH2 0xCAA JUMP JUMPDEST PUSH2 0x38A DUP2 PUSH2 0xAE8 JUMP JUMPDEST CALLER ADDRESS EQ ISZERO PUSH2 0x46F JUMPI PUSH1 0x0 DUP1 REVERT JUMPDEST PUSH2 0x478 CALLER PUSH2 0xAFB JUMP JUMPDEST PUSH1 0x0 PUSH2 0x483 CALLER PUSH2 0x8B6 JUMP JUMPDEST POP DUP3 ISZERO ISZERO PUSH1 0xA0 DUP3 ADD MSTORE SWAP1 POP PUSH2 0x498 DUP2 CALLER PUSH2 0x9CB JUMP JUMPDEST POP POP JUMP JUMPDEST PUSH1 0x0 DUP1 PUSH1 0x2 PUSH1 0xA SLOAD EQ ISZERO PUSH2 0x4AF JUMPI PUSH1 0x0 DUP1 REVERT JUMPDEST PUSH1 0x2 PUSH1 0xA SSTORE CALLER PUSH1 0x1 PUSH1 0x1 PUSH1 0xA0 SHL SUB DUP9 AND EQ DUP1 PUSH2 0x4CA JUMPI POP CALLER ADDRESS EQ JUMPDEST PUSH2 0x4E6 JUMPI PUSH1 0x40 MLOAD PUSH3 0x461BCD PUSH1 0xE5 SHL DUP2 MSTORE PUSH1 0x4 ADD PUSH2 0x258 SWAP1 PUSH2 0x4ADE JUMP JUMPDEST PUSH1 0x1 PUSH1 0x1 PUSH1 0x60 SHL SUB DUP6 AND PUSH1 0x0 PUSH2 0x4FB DUP10 PUSH2 0x8B6 JUMP JUMPDEST POP SWAP1 POP PUSH2 0x506 PUSH2 0x4074 JUMP JUMPDEST PUSH2 0x512 DUP2 DUP12 DUP12 DUP6 PUSH2 0x97B JUMP JUMPDEST DUP3 DUP2 PUSH1 0x40 ADD MLOAD SLT ISZERO PUSH2 0x536 JUMPI PUSH1 0x40 MLOAD PUSH3 0x461BCD PUSH1 0xE5 SHL DUP2 MSTORE PUSH1 0x4 ADD PUSH2 0x258 SWAP1 PUSH2 0x4C14 JUMP JUMPDEST PUSH2 0x53F DUP4 PUSH2 0x99C JUMP JUMPDEST PUSH1 0xC0 DUP3 ADD MSTORE PUSH1 0x40 MLOAD PUSH4 0xB853E457 PUSH1 0xE0 SHL DUP2 MSTORE PUSH1 0x0 SWAP1 DUP2 SWAP1 PUSH20 0x0 SWAP1 PUSH4 0xB853E457 SWAP1 PUSH2 0x588 SWAP1 DUP16 SWAP1 DUP16 SWAP1 DUP11 SWAP1 DUP16 SWAP1 DUP16 SWAP1 PUSH1 0x4 ADD PUSH2 0x499B JUMP JUMPDEST PUSH1 0x0 PUSH1 0x40 MLOAD DUP1 DUP4 SUB DUP2 DUP7 DUP1 EXTCODESIZE ISZERO DUP1 ISZERO PUSH2 0x5A0 JUMPI PUSH1 0x0 DUP1 REVERT JUMPDEST POP GAS DELEGATECALL ISZERO DUP1 ISZERO PUSH2 0x5B4 JUMPI RETURNDATASIZE PUSH1 0x0 DUP1 RETURNDATACOPY RETURNDATASIZE PUSH1 0x0 REVERT JUMPDEST POP POP POP POP PUSH1 0x40 MLOAD RETURNDATASIZE PUSH1 0x0 DUP3 RETURNDATACOPY PUSH1 0x1F RETURNDATASIZE SWAP1 DUP2 ADD PUSH1 0x1F NOT AND DUP3 ADD PUSH1 0x40 MSTORE PUSH2 0x5DC SWAP2 SWAP1 DUP2 ADD SWAP1 PUSH2 0x45BE JUMP JUMPDEST PUSH1 0x60 DUP6 ADD DUP3 SWAP1 MSTORE SWAP1 SWAP3 POP SWAP1 POP PUSH2 0x5F3 DUP4 DUP14 DUP7 PUSH2 0xC8C JUMP JUMPDEST DUP1 MLOAD ISZERO PUSH2 0x69C JUMPI PUSH1 0x0 PUSH2 0x609 DUP13 PUSH2 0xFFFF AND PUSH2 0xCEB JUMP JUMPDEST SWAP1 POP PUSH20 0x0 PUSH4 0xC108FC26 DUP15 DUP4 DUP9 DUP7 PUSH1 0x40 MLOAD DUP6 PUSH4 0xFFFFFFFF AND PUSH1 0xE0 SHL DUP2 MSTORE PUSH1 0x4 ADD PUSH2 0x648 SWAP5 SWAP4 SWAP3 SWAP2 SWAP1 PUSH2 0x48B1 JUMP JUMPDEST PUSH1 0xC0 PUSH1 0x40 MLOAD DUP1 DUP4 SUB DUP2 DUP7 DUP1 EXTCODESIZE ISZERO DUP1 ISZERO PUSH2 0x660 JUMPI PUSH1 0x0 DUP1 REVERT JUMPDEST POP GAS DELEGATECALL ISZERO DUP1 ISZERO PUSH2 0x674 JUMPI RETURNDATASIZE PUSH1 0x0 DUP1 RETURNDATACOPY RETURNDATASIZE PUSH1 0x0 REVERT JUMPDEST POP POP POP POP PUSH1 0x40 MLOAD RETURNDATASIZE PUSH1 0x1F NOT PUSH1 0x1F DUP3 ADD AND DUP3 ADD DUP1 PUSH1 0x40 MSTORE POP DUP2 ADD SWAP1 PUSH2 0x698 SWAP2 SWAP1 PUSH2 0x46C8 JUMP JUMPDEST SWAP5 POP POP JUMPDEST PUSH2 0x6A6 DUP5 DUP14 PUSH2 0x9CB JUMP JUMPDEST PUSH1 0x20 DUP5 ADD MLOAD PUSH1 0x1 PUSH1 0x1 PUSH1 0xF8 SHL SUB NOT AND ISZERO PUSH2 0x722 JUMPI PUSH1 0x40 MLOAD PUSH4 0x6CCC642F PUSH1 0xE0 SHL DUP2 MSTORE PUSH20 0x0 SWAP1 PUSH4 0x6CCC642F SWAP1 PUSH2 0x6F1 SWAP1 DUP16 SWAP1 PUSH1 0x4 ADD PUSH2 0x4872 JUMP JUMPDEST PUSH1 0x0 PUSH1 0x40 MLOAD DUP1 DUP4 SUB DUP2 DUP7 DUP1 EXTCODESIZE ISZERO DUP1 ISZERO PUSH2 0x709 JUMPI PUSH1 0x0 DUP1 REVERT JUMPDEST POP GAS DELEGATECALL ISZERO DUP1 ISZERO PUSH2 0x71D JUMPI RETURNDATASIZE PUSH1 0x0 DUP1 RETURNDATACOPY RETURNDATASIZE PUSH1 0x0 REVERT JUMPDEST POP POP POP POP JUMPDEST MLOAD PUSH1 0x1 PUSH1 0xA SSTORE SWAP1 SWAP12 SWAP1 ISZERO ISZERO SWAP11 POP SWAP9 POP POP POP POP POP POP POP POP POP JUMP JUMPDEST PUSH1 0x1 SLOAD PUSH1 0x1 PUSH1 0x1 PUSH1 0xA0 SHL SUB AND DUP2 JUMP JUMPDEST PUSH1 0x0 SLOAD PUSH5 0x100000000 SWAP1 DIV PUSH1 0x1 PUSH1 0x1 PUSH1 0xA0 SHL SUB AND DUP2 JUMP JUMPDEST CALLER ADDRESS EQ ISZERO PUSH2 0x76E JUMPI PUSH1 0x0 DUP1 REVERT JUMPDEST PUSH1 0x0 SLOAD PUSH2 0xFFFF SWAP1 DUP2 AND SWAP1 DUP3 AND GT ISZERO PUSH2 0x785 JUMPI PUSH1 0x0 DUP1 REVERT JUMPDEST CALLER PUSH1 0x0 PUSH2 0x791 DUP3 PUSH2 0x8B6 JUMP JUMPDEST POP SWAP1 POP PUSH2 0x79F DUP2 DUP5 TIMESTAMP PUSH2 0xD11 JUMP JUMPDEST PUSH2 0x7A9 DUP2 DUP4 PUSH2 0x9CB JUMP JUMPDEST POP POP POP JUMP JUMPDEST PUSH1 0x0 PUSH1 0x2 PUSH1 0xA SLOAD EQ ISZERO PUSH2 0x7C0 JUMPI PUSH1 0x0 DUP1 REVERT JUMPDEST PUSH1 0x2 PUSH1 0xA SSTORE CALLER ADDRESS EQ ISZERO PUSH2 0x7D2 JUMPI PUSH1 0x0 DUP1 REVERT JUMPDEST CALLER PUSH1 0x1 PUSH1 0x1 PUSH1 0xA0 SHL SUB DUP6 AND EQ PUSH2 0x7E7 JUMPI PUSH1 0x0 DUP1 REVERT JUMPDEST PUSH2 0x7F0 DUP5 PUSH2 0xAFB JUMP JUMPDEST PUSH1 0x0 PUSH2 0x7FB DUP6 PUSH2 0xB76 JUMP JUMPDEST SWAP1 POP PUSH2 0x805 PUSH2 0x4074 JUMP JUMPDEST PUSH2 0x811 DUP2 DUP8 DUP8 DUP6 PUSH2 0x97B JUMP JUMPDEST PUSH1 0x0 PUSH2 0x425 DUP8 PUSH2 0x820 DUP8 PUSH2 0xC24 JUMP JUMPDEST DUP5 SWAP2 SWAP1 PUSH2 0xE09 JUMP JUMPDEST PUSH20 0x0 PUSH20 0x0 PUSH20 0x0 PUSH20 0x0 SWAP1 SWAP2 SWAP3 SWAP4 JUMP JUMPDEST PUSH1 0x0 PUSH2 0x88D DUP3 PUSH2 0xAFB JUMP JUMPDEST PUSH1 0x0 DUP1 PUSH2 0x899 DUP5 PUSH2 0x8B6 JUMP JUMPDEST SWAP2 POP SWAP2 POP DUP1 ISZERO PUSH2 0x8AD JUMPI PUSH2 0x8AD DUP3 DUP6 PUSH2 0x9CB JUMP JUMPDEST SWAP2 POP POP JUMPDEST SWAP2 SWAP1 POP JUMP JUMPDEST PUSH2 0x8BE PUSH2 0x40D0 JUMP JUMPDEST PUSH1 0x0 DUP1 PUSH2 0x8CA DUP5 PUSH2 0xB76 JUMP JUMPDEST SWAP1 POP PUSH2 0x8D5 DUP2 PUSH2 0xEE5 JUMP JUMPDEST ISZERO PUSH2 0x96F JUMPI PUSH1 0x40 MLOAD PUSH4 0x37B5FC21 PUSH1 0xE1 SHL DUP2 MSTORE PUSH20 0x0 SWAP1 PUSH4 0x6F6BF842 SWAP1 PUSH2 0x913 SWAP1 DUP8 SWAP1 DUP6 SWAP1 PUSH1 0x4 ADD PUSH2 0x497E JUMP JUMPDEST PUSH1 0xC0 PUSH1 0x40 MLOAD DUP1 DUP4 SUB DUP2 DUP7 DUP1 EXTCODESIZE ISZERO DUP1 ISZERO PUSH2 0x92B JUMPI PUSH1 0x0 DUP1 REVERT JUMPDEST POP GAS DELEGATECALL ISZERO DUP1 ISZERO PUSH2 0x93F JUMPI RETURNDATASIZE PUSH1 0x0 DUP1 RETURNDATACOPY RETURNDATASIZE PUSH1 0x0 REVERT JUMPDEST POP POP POP POP PUSH1 0x40 MLOAD RETURNDATASIZE PUSH1 0x1F NOT PUSH1 0x1F DUP3 ADD AND DUP3 ADD DUP1 PUSH1 0x40 MSTORE POP DUP2 ADD SWAP1 PUSH2 0x963 SWAP2 SWAP1 PUSH2 0x46C8 JUMP JUMPDEST PUSH1 0x1 SWAP3 POP SWAP3 POP POP PUSH2 0x976 JUMP JUMPDEST SWAP2 POP PUSH1 0x0 SWAP1 POP JUMPDEST SWAP2 POP SWAP2 JUMP JUMPDEST PUSH2 0x984 DUP3 PUSH2 0xF39 JUMP JUMPDEST PUSH2 0x120 DUP6 ADD MSTORE PUSH2 0x996 DUP5 DUP5 DUP5 DUP5 PUSH2 0xF4B JUMP JUMPDEST POP POP POP POP JUMP JUMPDEST PUSH1 0x0 PUSH2 0x9AA PUSH1 0x0 NOT DUP4 PUSH2 0xFF3 JUMP JUMPDEST SWAP3 SWAP2 POP POP JUMP JUMPDEST PUSH1 0x0 PUSH2 0x9C0 DUP6 DUP6 DUP6 DUP6 PUSH1 0x1 PUSH2 0x1041 JUMP JUMPDEST SWAP1 POP JUMPDEST SWAP5 SWAP4 POP POP POP POP JUMP JUMPDEST PUSH1 0x0 PUSH2 0x9D5 PUSH2 0x11F7 JUMP JUMPDEST PUSH1 0x1 PUSH1 0x1 PUSH1 0xA0 SHL SUB DUP4 AND PUSH1 0x0 DUP2 DUP2 MSTORE PUSH1 0x20 DUP4 DUP2 MSTORE PUSH1 0x40 DUP1 DUP4 KECCAK256 DUP9 MLOAD DUP2 SLOAD SWAP4 DUP11 ADD MLOAD DUP11 DUP5 ADD MLOAD PUSH1 0x60 DUP13 ADD MLOAD PUSH1 0x80 DUP14 ADD MLOAD PUSH1 0xA0 DUP15 ADD MLOAD PUSH5 0xFFFFFFFFFF NOT SWAP1 SWAP9 AND PUSH5 0xFFFFFFFFFF SWAP1 SWAP6 AND SWAP5 SWAP1 SWAP5 OR PUSH6 0xFF0000000000 NOT AND PUSH1 0x1 PUSH1 0x28 SHL PUSH1 0xF8 SWAP5 SWAP1 SWAP5 SHR SWAP4 SWAP1 SWAP4 MUL SWAP3 SWAP1 SWAP3 OR PUSH7 0xFF000000000000 NOT AND PUSH1 0x1 PUSH1 0x30 SHL PUSH1 0xFF SWAP1 SWAP3 AND SWAP2 SWAP1 SWAP2 MUL OR PUSH9 0xFFFF00000000000000 NOT AND PUSH1 0x1 PUSH1 0x38 SHL PUSH2 0xFFFF SWAP1 SWAP3 AND SWAP2 SWAP1 SWAP2 MUL OR PUSH27 0xFFFFFFFFFFFFFFFFFFFFFFFFFFFFFFFFFFFF000000000000000000 NOT AND PUSH1 0x1 PUSH1 0x48 SHL PUSH1 0x70 SWAP3 SWAP1 SWAP3 SHR SWAP2 SWAP1 SWAP2 MUL OR PUSH1 0xFF PUSH1 0xD8 SHL NOT AND PUSH1 0x1 PUSH1 0xD8 SHL SWAP4 ISZERO ISZERO SWAP4 SWAP1 SWAP4 MUL SWAP3 SWAP1 SWAP3 OR SWAP1 SWAP2 SSTORE MLOAD SWAP3 SWAP4 POP SWAP1 SWAP2 PUSH32 0x6BD4B121BCA854A191536A2CA891155C42EE2FB23F307FB34E8BC65CFCB5412E SWAP2 SWAP1 LOG2 POP POP POP JUMP JUMPDEST PUSH1 0x0 DUP1 DUP3 SLT ISZERO PUSH2 0xAF7 JUMPI PUSH1 0x0 DUP1 REVERT JUMPDEST POP SWAP1 JUMP JUMPDEST PUSH1 0x1 PUSH1 0x1 PUSH1 0xA0 SHL SUB DUP2 AND PUSH2 0xB0E JUMPI PUSH1 0x0 DUP1 REVERT JUMPDEST PUSH1 0x1 PUSH1 0x1 PUSH1 0xA0 SHL SUB DUP2 AND PUSH2 0xFEE EQ ISZERO PUSH2 0xB26 JUMPI PUSH1 0x0 DUP1 REVERT JUMPDEST PUSH1 0x1 PUSH1 0x1 PUSH1 0xA0 SHL SUB DUP2 AND PUSH2 0x5E7 EQ ISZERO PUSH2 0xB3E JUMPI PUSH1 0x0 DUP1 REVERT JUMPDEST PUSH1 0x1 PUSH1 0x1 PUSH1 0xA0 SHL SUB DUP2 AND ADDRESS EQ ISZERO PUSH2 0xB54 JUMPI PUSH1 0x0 DUP1 REVERT JUMPDEST PUSH1 0x0 PUSH2 0xB5F DUP3 PUSH2 0x1204 JUMP JUMPDEST POP POP POP POP PUSH2 0xFFFF AND SWAP1 POP DUP1 PUSH1 0x0 EQ PUSH2 0x498 JUMPI PUSH1 0x0 DUP1 REVERT JUMPDEST PUSH2 0xB7E PUSH2 0x40D0 JUMP JUMPDEST PUSH1 0x0 PUSH2 0xB88 PUSH2 0x11F7 JUMP JUMPDEST PUSH1 0x1 PUSH1 0x1 PUSH1 0xA0 SHL SUB DUP5 AND PUSH1 0x0 SWAP1 DUP2 MSTORE PUSH1 0x20 SWAP2 DUP3 MSTORE PUSH1 0x40 SWAP1 DUP2 SWAP1 KECCAK256 DUP2 MLOAD PUSH1 0xC0 DUP2 ADD DUP4 MSTORE SWAP1 SLOAD PUSH5 0xFFFFFFFFFF DUP2 AND DUP3 MSTORE PUSH1 0x1 PUSH1 0x1 PUSH1 0xF8 SHL SUB NOT PUSH1 0x1 PUSH1 0x28 SHL DUP3 DIV PUSH1 0xF8 SHL AND SWAP4 DUP3 ADD SWAP4 SWAP1 SWAP4 MSTORE PUSH1 0xFF PUSH1 0x1 PUSH1 0x30 SHL DUP5 DIV DUP2 AND SWAP3 DUP3 ADD SWAP3 SWAP1 SWAP3 MSTORE PUSH2 0xFFFF PUSH1 0x1 PUSH1 0x38 SHL DUP5 DIV AND PUSH1 0x60 DUP3 ADD MSTORE PUSH1 0x1 PUSH1 0x1 PUSH1 0x70 SHL SUB NOT PUSH1 0x1 PUSH1 0x48 SHL DUP5 DIV PUSH1 0x70 SHL AND PUSH1 0x80 DUP3 ADD MSTORE PUSH1 0x1 PUSH1 0xD8 SHL SWAP1 SWAP3 DIV AND ISZERO ISZERO PUSH1 0xA0 DUP3 ADD MSTORE SWAP2 POP POP SWAP2 SWAP1 POP JUMP JUMPDEST PUSH1 0x0 PUSH1 0x1 PUSH1 0x1 PUSH1 0xFF SHL SUB DUP3 GT ISZERO PUSH2 0xAF7 JUMPI PUSH1 0x0 DUP1 REVERT JUMPDEST PUSH1 0x0 DUP3 PUSH2 0xC49 JUMPI POP PUSH1 0x0 PUSH2 0x9C3 JUMP JUMPDEST PUSH1 0x0 DUP4 SGT PUSH2 0xC56 JUMPI PUSH1 0x0 DUP1 REVERT JUMPDEST PUSH2 0xC6C DUP5 DUP7 PUSH1 0x0 ADD MLOAD DUP6 DUP9 PUSH2 0x120 ADD MLOAD DUP7 PUSH2 0x126D JUMP JUMPDEST PUSH1 0x60 DUP8 ADD MLOAD SWAP1 SWAP3 POP PUSH2 0xC7F SWAP2 POP DUP3 PUSH2 0x132F JUMP JUMPDEST PUSH1 0x60 DUP7 ADD MSTORE SWAP5 SWAP4 POP POP POP POP JUMP JUMPDEST PUSH1 0x80 DUP4 ADD MLOAD ISZERO PUSH2 0xC9B JUMPI PUSH1 0x0 DUP1 REVERT JUMPDEST PUSH2 0x996 DUP4 DUP4 DUP4 PUSH1 0x0 PUSH1 0x1 PUSH2 0x1041 JUMP JUMPDEST PUSH1 0x0 DUP1 PUSH2 0xCB7 DUP5 DUP5 PUSH2 0x1345 JUMP JUMPDEST SWAP2 POP SWAP2 POP DUP2 PUSH1 0x0 EQ ISZERO PUSH2 0xCCB JUMPI POP POP PUSH2 0x498 JUMP JUMPDEST DUP2 DUP2 GT ISZERO PUSH2 0x996 JUMPI PUSH1 0x40 MLOAD PUSH3 0x461BCD PUSH1 0xE5 SHL DUP2 MSTORE PUSH1 0x4 ADD PUSH2 0x258 SWAP1 PUSH2 0x4A44 JUMP JUMPDEST PUSH1 0x0 DUP1 PUSH2 0xCF6 PUSH2 0x13B1 JUMP JUMPDEST PUSH1 0x0 SWAP4 DUP5 MSTORE PUSH1 0x20 MSTORE POP POP PUSH1 0x40 SWAP1 KECCAK256 SLOAD PUSH1 0x1 PUSH1 0x1 PUSH1 0xA0 SHL SUB AND SWAP1 JUMP JUMPDEST PUSH2 0xD1A DUP4 PUSH2 0x13BE JUMP JUMPDEST ISZERO PUSH2 0xD37 JUMPI PUSH1 0x40 MLOAD PUSH3 0x461BCD PUSH1 0xE5 SHL DUP2 MSTORE PUSH1 0x4 ADD PUSH2 0x258 SWAP1 PUSH2 0x4B6B JUMP JUMPDEST DUP2 PUSH2 0xFFFF AND PUSH1 0x0 LT DUP1 ISZERO PUSH2 0xD51 JUMPI POP PUSH2 0x3FFF PUSH2 0xFFFF DUP4 AND GT ISZERO JUMPDEST PUSH2 0xD6D JUMPI PUSH1 0x40 MLOAD PUSH3 0x461BCD PUSH1 0xE5 SHL DUP2 MSTORE PUSH1 0x4 ADD PUSH2 0x258 SWAP1 PUSH2 0x4BE7 JUMP JUMPDEST PUSH1 0x40 DUP4 ADD MLOAD PUSH1 0xFF AND ISZERO PUSH2 0xD92 JUMPI PUSH1 0x40 MLOAD PUSH3 0x461BCD PUSH1 0xE5 SHL DUP2 MSTORE PUSH1 0x4 ADD PUSH2 0x258 SWAP1 PUSH2 0x4AB2 JUMP JUMPDEST PUSH1 0x20 DUP4 ADD MLOAD PUSH1 0x1 PUSH1 0x1 PUSH1 0xF8 SHL SUB NOT AND ISZERO PUSH2 0xDBE JUMPI PUSH1 0x40 MLOAD PUSH3 0x461BCD PUSH1 0xE5 SHL DUP2 MSTORE PUSH1 0x4 ADD PUSH2 0x258 SWAP1 PUSH2 0x4B99 JUMP JUMPDEST PUSH2 0xDD3 DUP4 PUSH2 0xFFFF DUP5 AND PUSH1 0x0 PUSH1 0x1 PUSH1 0xFE SHL PUSH2 0x13CB JUMP JUMPDEST PUSH2 0xFFFF DUP3 AND PUSH1 0x60 DUP5 ADD MSTORE PUSH1 0x0 PUSH2 0xDE8 DUP3 PUSH2 0x15D1 JUMP JUMPDEST SWAP1 POP PUSH5 0xFFFFFFFFFF DUP2 LT PUSH2 0xDFB JUMPI PUSH1 0x0 DUP1 REVERT JUMPDEST PUSH5 0xFFFFFFFFFF AND SWAP1 SWAP3 MSTORE POP POP JUMP JUMPDEST PUSH1 0x0 DUP2 PUSH2 0xE18 JUMPI POP PUSH1 0x0 PUSH2 0xEDE JUMP JUMPDEST PUSH1 0x0 DUP3 SGT PUSH2 0xE25 JUMPI PUSH1 0x0 DUP1 REVERT JUMPDEST PUSH1 0x0 PUSH2 0xE38 DUP6 PUSH1 0x0 ADD MLOAD PUSH2 0xFFFF AND PUSH2 0x15EF JUMP JUMPDEST DUP1 MLOAD SWAP1 SWAP2 POP PUSH1 0x1 PUSH1 0x1 PUSH1 0xA0 SHL SUB AND PUSH2 0xE4F JUMPI PUSH1 0x0 DUP1 REVERT JUMPDEST PUSH1 0x1 DUP2 PUSH1 0x60 ADD MLOAD PUSH1 0x5 DUP2 GT ISZERO PUSH2 0xE61 JUMPI INVALID JUMPDEST EQ DUP1 PUSH2 0xE7C JUMPI POP PUSH1 0x2 DUP2 PUSH1 0x60 ADD MLOAD PUSH1 0x5 DUP2 GT ISZERO PUSH2 0xE7A JUMPI INVALID JUMPDEST EQ JUMPDEST ISZERO PUSH2 0xEB4 JUMPI DUP5 MLOAD PUSH2 0x120 DUP7 ADD MLOAD PUSH2 0xE98 SWAP2 DUP4 SWAP2 DUP7 SWAP1 DUP9 SWAP1 PUSH2 0x1602 JUMP JUMPDEST PUSH1 0x60 DUP7 ADD MLOAD SWAP1 SWAP3 POP PUSH2 0xEAA SWAP1 DUP4 PUSH2 0x132F JUMP JUMPDEST PUSH1 0x60 DUP7 ADD MSTORE PUSH2 0xEDC JUMP JUMPDEST PUSH1 0x4 DUP2 PUSH1 0x60 ADD MLOAD PUSH1 0x5 DUP2 GT ISZERO PUSH2 0xEC6 JUMPI INVALID JUMPDEST EQ ISZERO PUSH2 0x9C JUMPI PUSH2 0xED9 DUP6 DUP6 DUP6 PUSH1 0x0 PUSH2 0xC3A JUMP JUMPDEST SWAP2 POP JUMPDEST POP JUMPDEST SWAP4 SWAP3 POP POP POP JUMP JUMPDEST PUSH1 0x0 TIMESTAMP PUSH2 0xEF1 DUP4 PUSH2 0x13BE JUMP JUMPDEST ISZERO PUSH2 0xF12 JUMPI PUSH2 0xEFF DUP2 PUSH2 0x15D1 JUMP JUMPDEST DUP4 MLOAD PUSH5 0xFFFFFFFFFF AND LT SWAP2 POP PUSH2 0x8B1 SWAP1 POP JUMP JUMPDEST DUP3 MLOAD PUSH5 0xFFFFFFFFFF AND ISZERO DUP1 ISZERO SWAP1 PUSH2 0xF31 JUMPI POP DUP3 MLOAD PUSH5 0xFFFFFFFFFF AND DUP2 LT ISZERO JUMPDEST SWAP2 POP POP PUSH2 0x8B1 JUMP JUMPDEST PUSH2 0xF41 PUSH2 0x4105 JUMP JUMPDEST PUSH2 0x9AA DUP3 TIMESTAMP PUSH2 0x1693 JUMP JUMPDEST DUP2 PUSH2 0xFFFF AND PUSH1 0x0 LT DUP1 ISZERO PUSH2 0xF65 JUMPI POP PUSH2 0x3FFF PUSH2 0xFFFF DUP4 AND GT ISZERO JUMPDEST PUSH2 0xF6E JUMPI PUSH1 0x0 DUP1 REVERT JUMPDEST PUSH2 0xFFFF DUP3 AND DUP1 DUP6 MSTORE PUSH2 0xF81 SWAP1 DUP3 SWAP1 PUSH2 0x1754 JUMP JUMPDEST ISZERO PUSH2 0xFB0 JUMPI PUSH2 0xF96 DUP4 DUP4 DUP7 PUSH2 0x120 ADD MLOAD PUSH2 0x17DE JUMP JUMPDEST PUSH2 0x100 DUP9 ADD MSTORE PUSH1 0xE0 DUP8 ADD MSTORE PUSH1 0x40 DUP7 ADD MSTORE PUSH1 0x20 DUP6 ADD MSTORE PUSH2 0xFCE JUMP JUMPDEST PUSH1 0x0 PUSH1 0x20 DUP6 ADD DUP2 SWAP1 MSTORE PUSH1 0x40 DUP6 ADD DUP2 SWAP1 MSTORE PUSH1 0xE0 DUP6 ADD DUP2 SWAP1 MSTORE PUSH2 0x100 DUP6 ADD MSTORE JUMPDEST POP POP PUSH1 0x0 PUSH1 0x60 DUP4 ADD DUP2 SWAP1 MSTORE PUSH1 0x80 DUP4 ADD DUP2 SWAP1 MSTORE PUSH1 0xA0 DUP4 ADD DUP2 SWAP1 MSTORE PUSH1 0xC0 SWAP1 SWAP3 ADD SWAP2 SWAP1 SWAP2 MSTORE POP JUMP JUMPDEST DUP2 DUP2 MUL PUSH1 0x0 NOT DUP4 EQ ISZERO PUSH2 0x1023 JUMPI DUP2 ISZERO DUP1 PUSH2 0x1015 JUMPI POP DUP3 DUP3 DUP3 DUP2 PUSH2 0x1012 JUMPI INVALID JUMPDEST SDIV EQ JUMPDEST PUSH2 0x101E JUMPI PUSH1 0x0 DUP1 REVERT JUMPDEST PUSH2 0x9AA JUMP JUMPDEST DUP3 ISZERO DUP1 PUSH2 0x1038 JUMPI POP DUP2 DUP4 DUP3 DUP2 PUSH2 0x1035 JUMPI INVALID JUMPDEST SDIV EQ JUMPDEST PUSH2 0x9AA JUMPI PUSH1 0x0 DUP1 REVERT JUMPDEST PUSH1 0x0 DUP1 PUSH2 0x105E DUP7 DUP9 PUSH1 0x0 ADD MLOAD DUP10 PUSH1 0x80 ADD MLOAD DUP11 PUSH2 0x120 ADD MLOAD DUP9 PUSH2 0x1898 JUMP JUMPDEST SWAP2 POP PUSH1 0x0 PUSH2 0x107D DUP9 PUSH1 0x80 ADD MLOAD DUP10 PUSH1 0x60 ADD MLOAD PUSH2 0x132F SWAP1 SWAP2 SWAP1 PUSH4 0xFFFFFFFF AND JUMP JUMPDEST SWAP1 POP DUP4 DUP1 ISZERO PUSH2 0x108C JUMPI POP PUSH1 0x0 DUP2 SLT JUMPDEST DUP1 ISZERO PUSH2 0x10A7 JUMPI POP PUSH1 0x20 DUP9 ADD MLOAD PUSH1 0x0 SWAP1 PUSH2 0x10A5 SWAP1 DUP4 PUSH2 0x132F JUMP JUMPDEST SLT JUMPDEST ISZERO PUSH2 0x10CD JUMPI DUP6 PUSH1 0xA0 ADD MLOAD PUSH2 0x10CD JUMPI PUSH1 0x40 MLOAD PUSH3 0x461BCD PUSH1 0xE5 SHL DUP2 MSTORE PUSH1 0x4 ADD PUSH2 0x258 SWAP1 PUSH2 0x4B0B JUMP JUMPDEST DUP1 ISZERO PUSH2 0x10EC JUMPI PUSH1 0x20 DUP9 ADD MLOAD PUSH2 0x10E2 SWAP1 DUP3 PUSH2 0x132F JUMP JUMPDEST PUSH1 0x20 DUP10 ADD MSTORE PUSH1 0x1 SWAP2 POP JUMPDEST PUSH1 0xA0 DUP9 ADD MLOAD ISZERO ISZERO DUP1 PUSH2 0x1101 JUMPI POP PUSH1 0xC0 DUP9 ADD MLOAD ISZERO ISZERO JUMPDEST ISZERO PUSH2 0x116A JUMPI PUSH1 0x0 PUSH2 0x1131 DUP10 PUSH1 0xC0 ADD MLOAD PUSH2 0x112B DUP12 PUSH1 0xA0 ADD MLOAD DUP13 PUSH1 0x40 ADD MLOAD PUSH2 0x132F SWAP1 SWAP2 SWAP1 PUSH4 0xFFFFFFFF AND JUMP JUMPDEST SWAP1 PUSH2 0x132F JUMP JUMPDEST SWAP1 POP PUSH1 0x0 DUP2 SLT ISZERO PUSH2 0x1154 JUMPI PUSH1 0x40 MLOAD PUSH3 0x461BCD PUSH1 0xE5 SHL DUP2 MSTORE PUSH1 0x4 ADD PUSH2 0x258 SWAP1 PUSH2 0x4BC3 JUMP JUMPDEST PUSH2 0x115F DUP10 DUP10 DUP4 PUSH2 0x1941 JUMP JUMPDEST POP PUSH1 0x40 DUP10 ADD MSTORE PUSH1 0x1 SWAP2 POP JUMPDEST DUP2 ISZERO PUSH2 0x1199 JUMPI PUSH2 0x1199 DUP8 DUP10 PUSH1 0x0 ADD MLOAD DUP11 PUSH1 0x20 ADD MLOAD DUP12 PUSH1 0x40 ADD MLOAD DUP13 PUSH1 0xE0 ADD MLOAD DUP14 PUSH2 0x100 ADD MLOAD DUP15 PUSH2 0x120 ADD MLOAD PUSH2 0x1A38 JUMP JUMPDEST DUP8 MLOAD PUSH1 0x20 DUP10 ADD MLOAD PUSH2 0x11C6 SWAP2 PUSH2 0xFFFF AND SWAP1 ISZERO ISZERO DUP1 PUSH2 0x11B9 JUMPI POP PUSH1 0x40 DUP11 ADD MLOAD ISZERO ISZERO JUMPDEST DUP9 SWAP2 SWAP1 PUSH1 0x1 PUSH1 0xFE SHL PUSH2 0x13CB JUMP JUMPDEST PUSH1 0x0 DUP9 PUSH1 0x20 ADD MLOAD SLT ISZERO PUSH2 0x11EC JUMPI PUSH1 0x20 DUP7 ADD DUP1 MLOAD PUSH1 0x1 PUSH1 0xF9 SHL OR PUSH1 0x1 PUSH1 0x1 PUSH1 0xF8 SHL SUB NOT AND SWAP1 MSTORE JUMPDEST POP POP SWAP6 SWAP5 POP POP POP POP POP JUMP JUMPDEST PUSH1 0x0 DUP1 PUSH2 0x9AA PUSH1 0x1 PUSH2 0x1B73 JUMP JUMPDEST PUSH1 0x0 DUP1 PUSH1 0x0 DUP1 PUSH1 0x0 DUP1 PUSH2 0x1215 PUSH2 0x1B8C JUMP JUMPDEST PUSH1 0x1 PUSH1 0x1 PUSH1 0xA0 SHL SUB SWAP1 SWAP8 AND PUSH1 0x0 SWAP1 DUP2 MSTORE PUSH1 0x20 SWAP8 SWAP1 SWAP8 MSTORE POP POP PUSH1 0x40 SWAP1 SWAP5 KECCAK256 SLOAD PUSH2 0xFFFF DUP2 AND SWAP6 PUSH4 0xFFFFFFFF PUSH3 0x10000 DUP4 DIV DUP2 AND SWAP7 POP PUSH1 0x1 PUSH1 0x30 SHL DUP4 DIV AND SWAP5 POP PUSH1 0xFF PUSH1 0x1 PUSH1 0x50 SHL DUP4 DIV AND SWAP4 POP PUSH1 0x1 PUSH1 0x58 SHL SWAP1 SWAP2 DIV PUSH1 0xD0 SHL SWAP2 POP JUMP JUMPDEST PUSH1 0x0 DUP1 PUSH1 0x0 PUSH2 0x127B DUP7 PUSH2 0xAE8 JUMP JUMPDEST SWAP1 POP DUP1 PUSH2 0x128F JUMPI PUSH1 0x0 DUP1 SWAP3 POP SWAP3 POP POP PUSH2 0x1325 JUMP JUMPDEST PUSH1 0x0 PUSH2 0x129E DUP9 PUSH2 0xFFFF AND PUSH2 0x1B99 JUMP JUMPDEST SWAP1 POP PUSH1 0x3 DUP2 PUSH1 0x60 ADD MLOAD PUSH1 0x5 DUP2 GT ISZERO PUSH2 0x12B2 JUMPI INVALID JUMPDEST EQ ISZERO PUSH2 0x12F9 JUMPI CALLVALUE DUP3 LT ISZERO PUSH2 0x12D2 JUMPI PUSH2 0x12CD DUP10 DUP4 CALLVALUE SUB DUP8 PUSH2 0x1BAC JUMP JUMPDEST PUSH2 0x12F1 JUMP JUMPDEST CALLVALUE DUP3 EQ PUSH2 0x12F1 JUMPI PUSH1 0x40 MLOAD PUSH3 0x461BCD PUSH1 0xE5 SHL DUP2 MSTORE PUSH1 0x4 ADD PUSH2 0x258 SWAP1 PUSH2 0x4A6D JUMP JUMPDEST DUP7 SWAP4 POP PUSH2 0x1313 JUMP JUMPDEST PUSH2 0x1310 PUSH2 0x130B DUP3 PUSH1 0x0 ADD MLOAD DUP12 DUP6 PUSH2 0x1C74 JUMP JUMPDEST PUSH2 0xC24 JUMP JUMPDEST SWAP4 POP JUMPDEST PUSH2 0x1320 DUP10 DUP10 DUP7 DUP5 DUP11 PUSH2 0x1DFC JUMP JUMPDEST SWAP3 POP POP POP JUMPDEST SWAP6 POP SWAP6 SWAP4 POP POP POP POP JUMP JUMPDEST DUP2 DUP2 ADD DUP3 DUP2 SLT ISZERO PUSH1 0x0 DUP4 SLT ISZERO EQ PUSH2 0x9AA JUMPI PUSH1 0x0 DUP1 REVERT JUMPDEST PUSH1 0x0 DUP1 PUSH1 0x0 PUSH2 0x1352 PUSH2 0x1E43 JUMP JUMPDEST PUSH2 0xFFFF DUP6 AND PUSH1 0x0 SWAP1 DUP2 MSTORE PUSH1 0x20 SWAP2 SWAP1 SWAP2 MSTORE PUSH1 0x40 SWAP1 KECCAK256 PUSH1 0x1 DUP2 ADD SLOAD SWAP1 SWAP2 POP PUSH2 0x1384 SWAP1 PUSH1 0x1 PUSH1 0x58 SHL SWAP1 DIV PUSH4 0xFFFFFFFF AND PUSH2 0x1E50 JUMP JUMPDEST DUP2 SLOAD SWAP1 SWAP4 POP PUSH1 0x1 PUSH1 0x28 SHL SWAP1 DIV PUSH1 0x1 PUSH1 0x1 PUSH1 0x58 SHL SUB AND PUSH2 0x13A6 PUSH2 0x385 DUP8 DUP4 PUSH2 0x1E5E JUMP JUMPDEST SWAP3 POP POP POP SWAP3 POP SWAP3 SWAP1 POP JUMP JUMPDEST PUSH1 0x0 DUP1 PUSH2 0x9AA PUSH1 0x3 PUSH2 0x1B73 JUMP JUMPDEST PUSH1 0x60 ADD MLOAD PUSH2 0xFFFF AND ISZERO ISZERO SWAP1 JUMP JUMPDEST DUP3 PUSH1 0x0 LT DUP1 ISZERO PUSH2 0x13DD JUMPI POP PUSH2 0x3FFF DUP4 GT ISZERO JUMPDEST PUSH2 0x13E6 JUMPI PUSH1 0x0 DUP1 REVERT JUMPDEST DUP2 DUP1 ISZERO PUSH2 0x13FA JUMPI POP DUP3 DUP5 PUSH1 0x60 ADD MLOAD PUSH2 0xFFFF AND EQ JUMPDEST ISZERO PUSH2 0x1404 JUMPI PUSH2 0x996 JUMP JUMPDEST PUSH1 0x80 DUP5 ADD MLOAD PUSH1 0x0 SWAP1 DUP2 JUMPDEST PUSH1 0x1 PUSH1 0x1 PUSH1 0x70 SHL SUB NOT DUP3 AND ISZERO PUSH2 0x1586 JUMPI PUSH1 0xF0 DUP3 SWAP1 SHR PUSH2 0x3FFF AND DUP7 DUP2 EQ DUP1 ISZERO PUSH2 0x1433 JUMPI POP DUP6 JUMPDEST ISZERO PUSH2 0x146B JUMPI POP PUSH1 0x80 DUP8 ADD DUP1 MLOAD PUSH1 0x1 PUSH1 0x1 PUSH1 0xF0 SHL SUB NOT DUP7 AND PUSH1 0x10 SWAP1 SWAP4 MUL SWAP3 SWAP1 SWAP3 SHR SWAP2 SWAP1 SWAP2 OR PUSH1 0x1 PUSH1 0x1 PUSH1 0x70 SHL SUB NOT AND SWAP1 MSTORE POP PUSH2 0x996 SWAP1 POP JUMP JUMPDEST DUP7 DUP2 EQ DUP1 ISZERO PUSH2 0x1478 JUMPI POP DUP6 ISZERO JUMPDEST ISZERO PUSH2 0x14D4 JUMPI PUSH1 0x1 PUSH1 0x1 PUSH1 0xF0 SHL SUB NOT DUP6 AND NOT SWAP3 SWAP1 SWAP3 AND SWAP2 PUSH1 0x3 PUSH1 0xFE SHL DUP4 AND PUSH2 0x14B2 JUMPI PUSH1 0x10 DUP4 PUSH14 0xFFFFFFFFFFFFFFFFFFFFFFFFFFFF NOT AND SWAP1 SHL SWAP3 POP JUMPDEST POP PUSH1 0x1 PUSH1 0x1 PUSH1 0x70 SHL SUB NOT SWAP2 DUP3 AND PUSH1 0x10 SWAP1 SWAP2 MUL SHR SWAP2 SWAP1 SWAP2 OR AND PUSH1 0x80 DUP6 ADD MSTORE PUSH2 0x996 JUMP JUMPDEST DUP7 DUP2 GT DUP1 ISZERO PUSH2 0x14E0 JUMPI POP DUP6 JUMPDEST ISZERO PUSH2 0x153A JUMPI PUSH1 0x80 DUP9 DUP2 ADD MLOAD PUSH1 0x1 PUSH1 0x1 PUSH1 0xF0 SHL SUB NOT PUSH1 0xF0 DUP11 SWAP1 SHL DUP9 OR DUP2 AND PUSH1 0x10 DUP7 MUL SHR SWAP7 SWAP1 SWAP7 OR SWAP6 SWAP2 SHL AND ISZERO PUSH2 0x1514 JUMPI PUSH1 0x0 DUP1 REVERT JUMPDEST POP PUSH1 0x1 PUSH1 0x1 PUSH1 0x70 SHL SUB NOT SWAP2 DUP3 AND PUSH1 0x1 SWAP2 SWAP1 SWAP2 ADD PUSH1 0x10 MUL SHR SWAP2 SWAP1 SWAP2 OR AND PUSH1 0x80 DUP6 ADD MSTORE PUSH2 0x996 JUMP JUMPDEST DUP7 DUP2 GT DUP1 ISZERO PUSH2 0x1547 JUMPI POP DUP6 ISZERO JUMPDEST ISZERO PUSH2 0x1555 JUMPI POP POP POP POP PUSH2 0x996 JUMP JUMPDEST POP PUSH1 0x1 PUSH1 0x1 PUSH1 0xF0 SHL SUB NOT DUP3 AND PUSH1 0x10 DUP3 DUP2 MUL SWAP2 SWAP1 SWAP2 SHR SWAP4 SWAP1 SWAP4 OR SWAP3 SWAP2 SWAP1 SWAP2 SHL PUSH1 0x1 PUSH1 0x1 PUSH1 0x80 SHL SUB NOT AND SWAP1 PUSH1 0x1 ADD PUSH2 0x140E JUMP JUMPDEST DUP5 PUSH2 0x1593 JUMPI POP POP POP PUSH2 0x996 JUMP JUMPDEST PUSH1 0x9 DUP2 LT PUSH2 0x15A0 JUMPI PUSH1 0x0 DUP1 REVERT JUMPDEST PUSH1 0x1 PUSH1 0x1 PUSH1 0xF0 SHL SUB NOT PUSH1 0xF0 DUP8 SWAP1 SHL DUP6 OR AND PUSH1 0x10 SWAP1 SWAP2 MUL SHR SWAP2 SWAP1 SWAP2 OR PUSH1 0x1 PUSH1 0x1 PUSH1 0x70 SHL SUB NOT AND PUSH1 0x80 DUP7 ADD MSTORE POP POP POP POP POP JUMP JUMPDEST PUSH1 0x0 PUSH3 0x15180 DUP3 LT ISZERO PUSH2 0x15E3 JUMPI PUSH1 0x0 DUP1 REVERT JUMPDEST POP PUSH3 0x15180 DUP2 MOD SWAP1 SUB SWAP1 JUMP JUMPDEST PUSH2 0x15F7 PUSH2 0x4126 JUMP JUMPDEST PUSH2 0x9AA DUP3 PUSH1 0x0 PUSH2 0x1E90 JUMP JUMPDEST PUSH1 0x0 PUSH2 0x1613 DUP7 PUSH1 0x0 ADD MLOAD DUP5 DUP7 PUSH2 0x1C74 JUMP JUMPDEST SWAP4 POP PUSH1 0x0 PUSH2 0x1624 DUP7 PUSH2 0xFFFF AND PUSH2 0x1B99 JUMP JUMPDEST SWAP1 POP PUSH1 0x0 PUSH1 0x2 DUP9 PUSH1 0x60 ADD MLOAD PUSH1 0x5 DUP2 GT ISZERO PUSH2 0x163A JUMPI INVALID JUMPDEST EQ ISZERO PUSH2 0x1654 JUMPI PUSH2 0x164D PUSH2 0x130B DUP10 DUP9 PUSH2 0x1F2A JUMP JUMPDEST SWAP1 POP PUSH2 0x167A JUMP JUMPDEST PUSH1 0x1 DUP9 PUSH1 0x60 ADD MLOAD PUSH1 0x5 DUP2 GT ISZERO PUSH2 0x1666 JUMPI INVALID JUMPDEST EQ ISZERO PUSH2 0x9C JUMPI PUSH2 0x164D PUSH2 0x130B DUP10 DUP5 DUP10 PUSH2 0x1FDB JUMP JUMPDEST PUSH2 0x1687 DUP6 DUP9 DUP4 DUP6 DUP9 PUSH2 0x1DFC JUMP JUMPDEST SWAP9 SWAP8 POP POP POP POP POP POP POP POP JUMP JUMPDEST PUSH2 0x169B PUSH2 0x4105 JUMP JUMPDEST PUSH1 0x0 PUSH2 0x16A6 DUP5 PUSH2 0x219B JUMP JUMPDEST SWAP1 POP DUP3 DUP2 PUSH1 0x0 ADD MLOAD LT ISZERO PUSH2 0x16E5 JUMPI PUSH1 0x0 DUP1 PUSH2 0x16C0 DUP7 PUSH2 0x2263 JUMP JUMPDEST SWAP1 POP PUSH2 0x16CE DUP7 DUP5 DUP4 DUP9 PUSH2 0x22E0 JUMP JUMPDEST SWAP1 SWAP4 POP SWAP2 POP PUSH2 0x16DE DUP7 DUP4 DUP6 PUSH2 0x2384 JUMP JUMPDEST POP POP PUSH2 0x16F2 JUMP JUMPDEST DUP1 MLOAD DUP4 EQ PUSH2 0x16F2 JUMPI PUSH1 0x0 DUP1 REVERT JUMPDEST PUSH1 0x40 MLOAD DUP1 PUSH1 0x60 ADD PUSH1 0x40 MSTORE DUP1 PUSH2 0x171B PUSH2 0x130B DUP5 PUSH1 0xA0 ADD MLOAD DUP6 PUSH1 0xC0 ADD MLOAD PUSH2 0x25B8 SWAP1 SWAP2 SWAP1 PUSH4 0xFFFFFFFF AND JUMP JUMPDEST DUP2 MSTORE PUSH1 0x20 ADD PUSH2 0x173E PUSH2 0x130B DUP5 PUSH1 0xA0 ADD MLOAD DUP6 PUSH1 0xE0 ADD MLOAD PUSH2 0x25B8 SWAP1 SWAP2 SWAP1 PUSH4 0xFFFFFFFF AND JUMP JUMPDEST DUP2 MSTORE PUSH1 0x20 ADD DUP3 PUSH1 0x60 ADD MLOAD DUP2 MSTORE POP SWAP2 POP POP SWAP3 SWAP2 POP POP JUMP JUMPDEST PUSH1 0x0 DUP2 ISZERO DUP1 ISZERO SWAP1 PUSH2 0x1767 JUMPI POP PUSH2 0x3FFF DUP3 GT ISZERO JUMPDEST PUSH2 0x1770 JUMPI PUSH1 0x0 DUP1 REVERT JUMPDEST PUSH1 0x80 DUP4 ADD MLOAD PUSH1 0x60 DUP5 ADD MLOAD PUSH2 0xFFFF AND DUP4 EQ ISZERO PUSH2 0x178F JUMPI PUSH1 0x1 SWAP2 POP POP PUSH2 0x9AA JUMP JUMPDEST PUSH1 0x1 PUSH1 0x1 PUSH1 0x70 SHL SUB NOT DUP2 AND ISZERO PUSH2 0x17D4 JUMPI PUSH1 0xF0 DUP2 SWAP1 SHR PUSH2 0x3FFF AND DUP4 DUP2 EQ ISZERO PUSH2 0x17C1 JUMPI POP PUSH1 0x1 PUSH1 0xFE SHL SWAP1 DUP2 AND EQ SWAP1 POP PUSH2 0x9AA JUMP JUMPDEST POP PUSH1 0x10 SHL PUSH1 0x1 PUSH1 0x1 PUSH1 0x80 SHL SUB NOT AND PUSH2 0x178F JUMP JUMPDEST POP PUSH1 0x0 SWAP4 SWAP3 POP POP POP JUMP JUMPDEST PUSH1 0x0 DUP1 PUSH1 0x0 DUP1 PUSH1 0x0 PUSH2 0x17EE PUSH2 0x25DF JUMP JUMPDEST PUSH1 0x1 PUSH1 0x1 PUSH1 0xA0 SHL SUB DUP10 AND PUSH1 0x0 SWAP1 DUP2 MSTORE PUSH1 0x20 DUP3 DUP2 MSTORE PUSH1 0x40 DUP1 DUP4 KECCAK256 PUSH2 0xFFFF DUP13 AND DUP5 MSTORE SWAP1 SWAP2 MSTORE SWAP1 KECCAK256 DUP1 SLOAD PUSH1 0x1 PUSH1 0x1 PUSH1 0x50 SHL SUB DUP2 AND SWAP7 POP PUSH1 0x1 PUSH1 0x50 SHL SWAP1 DIV PUSH4 0xFFFFFFFF AND SWAP5 POP SWAP1 SWAP2 POP DUP4 ISZERO PUSH2 0x185B JUMPI DUP1 SLOAD PUSH2 0x1854 SWAP1 PUSH1 0x1 PUSH1 0x70 SHL SWAP1 DIV PUSH7 0xFFFFFFFFFFFFFF AND PUSH2 0x1E50 JUMP JUMPDEST SWAP3 POP PUSH2 0x1870 JUMP JUMPDEST DUP1 SLOAD PUSH1 0x1 PUSH1 0x70 SHL SWAP1 DIV PUSH7 0xFFFFFFFFFFFFFF AND SWAP3 POP JUMPDEST DUP1 SLOAD PUSH2 0x188B SWAP1 DUP9 SWAP1 PUSH1 0x1 PUSH1 0xA8 SHL SWAP1 DIV PUSH1 0xA SWAP1 DUP2 SIGNEXTEND SWAP1 SIGNEXTEND PUSH2 0x25EC JUMP JUMPDEST SWAP6 POP POP POP SWAP4 POP SWAP4 POP SWAP4 POP SWAP4 JUMP JUMPDEST PUSH1 0x0 DUP4 PUSH2 0x18A7 JUMPI POP PUSH1 0x0 PUSH2 0x1938 JUMP JUMPDEST PUSH1 0x0 DUP5 SLT PUSH2 0x18B4 JUMPI PUSH1 0x0 DUP1 REVERT JUMPDEST PUSH1 0x0 PUSH2 0x18C3 DUP7 PUSH2 0xFFFF AND PUSH2 0x1B99 JUMP JUMPDEST SWAP1 POP PUSH2 0x18D8 DUP2 PUSH2 0x18D3 DUP7 DUP9 PUSH2 0x1E5E JUMP JUMPDEST PUSH2 0x261A JUMP JUMPDEST SWAP2 POP PUSH1 0x0 PUSH2 0x18E5 DUP4 PUSH2 0x99C JUMP JUMPDEST SWAP1 POP PUSH2 0x18F2 DUP8 DUP4 DUP4 PUSH2 0x2652 JUMP JUMPDEST PUSH1 0x3 DUP3 PUSH1 0x60 ADD MLOAD PUSH1 0x5 DUP2 GT ISZERO PUSH2 0x1904 JUMPI INVALID JUMPDEST EQ ISZERO PUSH2 0x191A JUMPI PUSH2 0x1915 DUP9 DUP3 DUP7 PUSH2 0x1BAC JUMP JUMPDEST PUSH2 0x1927 JUMP JUMPDEST DUP2 MLOAD PUSH2 0x1927 SWAP1 DUP10 DUP4 PUSH2 0x274A JUMP JUMPDEST PUSH2 0x1934 DUP9 DUP9 DUP6 DUP6 DUP10 PUSH2 0x1DFC JUMP JUMPDEST POP POP POP JUMPDEST SWAP6 SWAP5 POP POP POP POP POP JUMP JUMPDEST DUP3 MLOAD PUSH1 0x0 SWAP1 TIMESTAMP SWAP1 DUP3 SWAP1 PUSH2 0x1957 SWAP1 PUSH2 0xFFFF AND PUSH2 0xCEB JUMP JUMPDEST SWAP1 POP PUSH1 0x0 PUSH2 0x1964 DUP3 PUSH2 0x27C1 JUMP JUMPDEST POP POP SWAP1 POP PUSH1 0x0 PUSH2 0x1979 DUP4 DUP10 PUSH1 0xC0 ADD MLOAD DUP7 PUSH2 0x281D JUMP JUMPDEST SWAP1 POP PUSH2 0x1987 DUP9 DUP5 DUP4 DUP10 PUSH2 0x2900 JUMP JUMPDEST SWAP5 POP PUSH1 0x0 PUSH2 0x1994 DUP5 PUSH2 0x2A2D JUMP JUMPDEST SWAP1 POP PUSH1 0x1 PUSH1 0x1 PUSH1 0xA0 SHL SUB DUP2 AND ISZERO PUSH2 0x1A1C JUMPI DUP1 PUSH1 0x1 PUSH1 0x1 PUSH1 0xA0 SHL SUB AND PUSH4 0x3F3EF50D DUP10 DUP12 PUSH1 0x0 ADD MLOAD PUSH2 0x19C7 DUP14 PUSH1 0x40 ADD MLOAD PUSH2 0xAE8 JUMP JUMPDEST DUP12 DUP9 PUSH1 0x40 MLOAD DUP7 PUSH4 0xFFFFFFFF AND PUSH1 0xE0 SHL DUP2 MSTORE PUSH1 0x4 ADD PUSH2 0x19E9 SWAP6 SWAP5 SWAP4 SWAP3 SWAP2 SWAP1 PUSH2 0x49D1 JUMP JUMPDEST PUSH1 0x0 PUSH1 0x40 MLOAD DUP1 DUP4 SUB DUP2 PUSH1 0x0 DUP8 DUP1 EXTCODESIZE ISZERO DUP1 ISZERO PUSH2 0x1A03 JUMPI PUSH1 0x0 DUP1 REVERT JUMPDEST POP GAS CALL ISZERO DUP1 ISZERO PUSH2 0x1A17 JUMPI RETURNDATASIZE PUSH1 0x0 DUP1 RETURNDATACOPY RETURNDATASIZE PUSH1 0x0 REVERT JUMPDEST POP POP POP POP JUMPDEST DUP6 ISZERO PUSH2 0x1A2C JUMPI PUSH2 0x1A2C DUP9 DUP8 PUSH2 0x2A9F JUMP JUMPDEST POP POP POP POP POP SWAP4 SWAP3 POP POP POP JUMP JUMPDEST PUSH1 0x0 PUSH2 0x1A42 PUSH2 0x25DF JUMP JUMPDEST PUSH1 0x1 PUSH1 0x1 PUSH1 0xA0 SHL SUB DUP10 AND PUSH1 0x0 SWAP1 DUP2 MSTORE PUSH1 0x20 DUP3 DUP2 MSTORE PUSH1 0x40 DUP1 DUP4 KECCAK256 PUSH2 0xFFFF DUP13 AND DUP5 MSTORE SWAP1 SWAP2 MSTORE SWAP1 KECCAK256 SWAP1 SWAP2 POP DUP5 PUSH2 0x1AAA JUMPI PUSH7 0xFFFFFFFFFFFFFF DUP5 GT ISZERO PUSH2 0x1A83 JUMPI PUSH1 0x0 DUP1 REVERT JUMPDEST DUP1 SLOAD PUSH7 0xFFFFFFFFFFFFFF PUSH1 0x70 SHL NOT AND PUSH1 0x1 PUSH1 0x70 SHL PUSH7 0xFFFFFFFFFFFFFF DUP7 AND MUL OR DUP2 SSTORE PUSH2 0x1AC4 JUMP JUMPDEST DUP1 SLOAD PUSH1 0x1 PUSH1 0x50 SHL SWAP1 DIV PUSH4 0xFFFFFFFF AND DUP6 EQ PUSH2 0x1AC4 JUMPI PUSH1 0x0 DUP1 REVERT JUMPDEST PUSH2 0x1ACD DUP6 PUSH2 0x2ABE JUMP JUMPDEST DUP2 SLOAD PUSH4 0xFFFFFFFF SWAP2 SWAP1 SWAP2 AND PUSH1 0x1 PUSH1 0x50 SHL MUL PUSH4 0xFFFFFFFF PUSH1 0x50 SHL NOT SWAP1 SWAP2 AND OR DUP2 SSTORE PUSH2 0x1AFE PUSH2 0x1AF9 DUP8 PUSH2 0xAE8 JUMP JUMPDEST PUSH2 0x2AD1 JUMP JUMPDEST DUP2 SLOAD PUSH10 0xFFFFFFFFFFFFFFFFFFFF NOT AND PUSH1 0x1 PUSH1 0x1 PUSH1 0x50 SHL SUB SWAP2 SWAP1 SWAP2 AND OR DUP1 DUP3 SSTORE PUSH2 0x1B44 SWAP1 PUSH2 0x1B3F SWAP1 DUP6 SWAP1 DUP13 SWAP1 DUP13 SWAP1 PUSH1 0x1 PUSH1 0xA8 SHL SWAP1 DIV PUSH1 0xA SWAP1 DUP2 SIGNEXTEND SWAP1 SIGNEXTEND DUP13 PUSH2 0x2AE7 JUMP JUMPDEST PUSH2 0x2B0A JUMP JUMPDEST DUP2 SLOAD PUSH1 0xA SWAP2 SWAP1 SWAP2 SIGNEXTEND PUSH1 0x1 PUSH1 0x1 PUSH1 0x58 SHL SUB AND PUSH1 0x1 PUSH1 0xA8 SHL MUL PUSH1 0x1 PUSH1 0x1 PUSH1 0xA8 SHL SUB SWAP1 SWAP2 AND OR SWAP1 SSTORE POP POP POP POP POP POP POP POP JUMP JUMPDEST PUSH1 0x0 PUSH3 0xF4240 DUP3 PUSH1 0x26 DUP2 GT ISZERO PUSH2 0x1B85 JUMPI INVALID JUMPDEST ADD SWAP3 SWAP2 POP POP JUMP JUMPDEST PUSH1 0x0 DUP1 PUSH2 0x9AA PUSH1 0x2 PUSH2 0x1B73 JUMP JUMPDEST PUSH2 0x1BA1 PUSH2 0x4126 JUMP JUMPDEST PUSH2 0x9AA DUP3 PUSH1 0x1 PUSH2 0x1E90 JUMP JUMPDEST DUP1 ISZERO PUSH2 0x1C3E JUMPI PUSH20 0x82AF49447D8A07E3BD95BD0D56F35241523FBAB1 PUSH1 0x1 PUSH1 0x1 PUSH1 0xA0 SHL SUB AND PUSH4 0xD0E30DB0 DUP4 PUSH1 0x40 MLOAD DUP3 PUSH4 0xFFFFFFFF AND PUSH1 0xE0 SHL DUP2 MSTORE PUSH1 0x4 ADD PUSH1 0x0 PUSH1 0x40 MLOAD DUP1 DUP4 SUB DUP2 DUP6 DUP9 DUP1 EXTCODESIZE ISZERO DUP1 ISZERO PUSH2 0x1C01 JUMPI PUSH1 0x0 DUP1 REVERT JUMPDEST POP GAS CALL ISZERO DUP1 ISZERO PUSH2 0x1C15 JUMPI RETURNDATASIZE PUSH1 0x0 DUP1 RETURNDATACOPY RETURNDATASIZE PUSH1 0x0 REVERT JUMPDEST POP POP POP POP POP PUSH2 0x1C39 PUSH20 0x82AF49447D8A07E3BD95BD0D56F35241523FBAB1 DUP5 DUP5 PUSH2 0x274A JUMP JUMPDEST PUSH2 0x7A9 JUMP JUMPDEST PUSH1 0x40 MLOAD PUSH1 0x1 PUSH1 0x1 PUSH1 0xA0 SHL SUB DUP5 AND SWAP1 DUP4 ISZERO PUSH2 0x8FC MUL SWAP1 DUP5 SWAP1 PUSH1 0x0 DUP2 DUP2 DUP2 DUP6 DUP9 DUP9 CALL SWAP4 POP POP POP POP ISZERO DUP1 ISZERO PUSH2 0x996 JUMPI RETURNDATASIZE PUSH1 0x0 DUP1 RETURNDATACOPY RETURNDATASIZE PUSH1 0x0 REVERT JUMPDEST PUSH1 0x0 DUP1 DUP5 PUSH1 0x1 PUSH1 0x1 PUSH1 0xA0 SHL SUB AND PUSH4 0x70A08231 ADDRESS PUSH1 0x40 MLOAD DUP3 PUSH4 0xFFFFFFFF AND PUSH1 0xE0 SHL DUP2 MSTORE PUSH1 0x4 ADD DUP1 DUP3 PUSH1 0x1 PUSH1 0x1 PUSH1 0xA0 SHL SUB AND DUP2 MSTORE PUSH1 0x20 ADD SWAP2 POP POP PUSH1 0x20 PUSH1 0x40 MLOAD DUP1 DUP4 SUB DUP2 DUP7 DUP1 EXTCODESIZE ISZERO DUP1 ISZERO PUSH2 0x1CC4 JUMPI PUSH1 0x0 DUP1 REVERT JUMPDEST POP GAS STATICCALL ISZERO DUP1 ISZERO PUSH2 0x1CD8 JUMPI RETURNDATASIZE PUSH1 0x0 DUP1 RETURNDATACOPY RETURNDATASIZE PUSH1 0x0 REVERT JUMPDEST POP POP POP POP PUSH1 0x40 MLOAD RETURNDATASIZE PUSH1 0x20 DUP2 LT ISZERO PUSH2 0x1CEE JUMPI PUSH1 0x0 DUP1 REVERT JUMPDEST POP MLOAD PUSH1 0x40 DUP1 MLOAD PUSH4 0x23B872DD PUSH1 0xE0 SHL DUP2 MSTORE PUSH1 0x1 PUSH1 0x1 PUSH1 0xA0 SHL SUB DUP8 DUP2 AND PUSH1 0x4 DUP4 ADD MSTORE ADDRESS PUSH1 0x24 DUP4 ADD MSTORE PUSH1 0x44 DUP3 ADD DUP8 SWAP1 MSTORE SWAP2 MLOAD SWAP3 SWAP4 POP SWAP1 DUP8 AND SWAP2 PUSH4 0x23B872DD SWAP2 PUSH1 0x64 DUP1 DUP3 ADD SWAP3 PUSH1 0x0 SWAP3 SWAP1 SWAP2 SWAP1 DUP3 SWAP1 SUB ADD DUP2 DUP4 DUP8 DUP1 EXTCODESIZE ISZERO DUP1 ISZERO PUSH2 0x1D4B JUMPI PUSH1 0x0 DUP1 REVERT JUMPDEST POP GAS CALL ISZERO DUP1 ISZERO PUSH2 0x1D5F JUMPI RETURNDATASIZE PUSH1 0x0 DUP1 RETURNDATACOPY RETURNDATASIZE PUSH1 0x0 REVERT JUMPDEST POP POP POP POP PUSH2 0x1D6B PUSH2 0x2B3C JUMP JUMPDEST PUSH1 0x0 DUP6 PUSH1 0x1 PUSH1 0x1 PUSH1 0xA0 SHL SUB AND PUSH4 0x70A08231 ADDRESS PUSH1 0x40 MLOAD DUP3 PUSH4 0xFFFFFFFF AND PUSH1 0xE0 SHL DUP2 MSTORE PUSH1 0x4 ADD DUP1 DUP3 PUSH1 0x1 PUSH1 0x1 PUSH1 0xA0 SHL SUB AND DUP2 MSTORE PUSH1 0x20 ADD SWAP2 POP POP PUSH1 0x20 PUSH1 0x40 MLOAD DUP1 DUP4 SUB DUP2 DUP7 DUP1 EXTCODESIZE ISZERO DUP1 ISZERO PUSH2 0x1DBA JUMPI PUSH1 0x0 DUP1 REVERT JUMPDEST POP GAS STATICCALL ISZERO DUP1 ISZERO PUSH2 0x1DCE JUMPI RETURNDATASIZE PUSH1 0x0 DUP1 RETURNDATACOPY RETURNDATASIZE PUSH1 0x0 REVERT JUMPDEST POP POP POP POP PUSH1 0x40 MLOAD RETURNDATASIZE PUSH1 0x20 DUP2 LT ISZERO PUSH2 0x1DE4 JUMPI PUSH1 0x0 DUP1 REVERT JUMPDEST POP MLOAD SWAP1 POP PUSH2 0x1DF2 DUP2 DUP4 PUSH2 0x2BA9 JUMP JUMPDEST SWAP7 SWAP6 POP POP POP POP POP POP JUMP JUMPDEST PUSH1 0x0 DUP1 PUSH2 0x1E09 DUP5 DUP7 PUSH2 0x2BBE JUMP JUMPDEST SWAP1 POP PUSH2 0x1E15 DUP4 DUP3 PUSH2 0x2BEE JUMP JUMPDEST SWAP2 POP PUSH2 0x1E22 DUP8 DUP8 DUP5 PUSH2 0x2C10 JUMP JUMPDEST PUSH2 0x1E2D DUP7 DUP4 DUP4 PUSH2 0x2C90 JUMP JUMPDEST DUP4 MLOAD PUSH2 0x1E39 SWAP1 DUP7 PUSH2 0x2D9C JUMP JUMPDEST POP SWAP6 SWAP5 POP POP POP POP POP JUMP JUMPDEST PUSH1 0x0 DUP1 PUSH2 0x9AA PUSH1 0x1D PUSH2 0x1B73 JUMP JUMPDEST PUSH1 0x8 DUP2 SWAP1 SHR PUSH1 0xFF SWAP1 SWAP2 AND SHL SWAP1 JUMP JUMPDEST PUSH1 0x0 PUSH2 0xEDE PUSH15 0xC097CE7BC90715B34B9F1000000000 PUSH2 0x1E8A DUP6 PUSH1 0x0 ADD MLOAD DUP6 PUSH2 0xFF3 SWAP1 SWAP2 SWAP1 PUSH4 0xFFFFFFFF AND JUMP JUMPDEST SWAP1 PUSH2 0x2DF1 JUMP JUMPDEST PUSH2 0x1E98 PUSH2 0x4126 JUMP JUMPDEST PUSH1 0x0 PUSH2 0x1EA2 PUSH2 0x2E22 JUMP JUMPDEST PUSH1 0x0 DUP6 DUP2 MSTORE PUSH1 0x20 DUP3 DUP2 MSTORE PUSH1 0x40 DUP1 DUP4 KECCAK256 DUP8 ISZERO ISZERO DUP5 MSTORE DUP3 MSTORE SWAP2 DUP3 SWAP1 KECCAK256 DUP3 MLOAD PUSH1 0xA0 DUP2 ADD DUP5 MSTORE DUP2 SLOAD PUSH1 0x1 PUSH1 0x1 PUSH1 0xA0 SHL SUB DUP2 AND DUP3 MSTORE PUSH1 0xFF PUSH1 0x1 PUSH1 0xA0 SHL DUP3 DIV DUP2 AND ISZERO ISZERO SWAP5 DUP4 ADD SWAP5 SWAP1 SWAP5 MSTORE PUSH1 0x1 PUSH1 0xB0 SHL DUP2 DIV DUP5 AND PUSH1 0xA EXP SWAP5 DUP3 ADD SWAP5 SWAP1 SWAP5 MSTORE SWAP4 SWAP5 POP SWAP3 SWAP2 PUSH1 0x60 DUP4 ADD SWAP2 PUSH1 0x1 PUSH1 0xA8 SHL SWAP1 SWAP2 DIV AND PUSH1 0x5 DUP2 GT ISZERO PUSH2 0x1F17 JUMPI INVALID JUMPDEST DUP2 MSTORE PUSH1 0x0 PUSH1 0x20 SWAP1 SWAP2 ADD MSTORE SWAP6 SWAP5 POP POP POP POP POP JUMP JUMPDEST DUP2 MLOAD PUSH1 0x40 MLOAD PUSH4 0xDB006A75 PUSH1 0xE0 SHL DUP2 MSTORE PUSH1 0x0 SWAP2 SELFBALANCE SWAP2 DUP4 SWAP2 PUSH1 0x1 PUSH1 0x1 PUSH1 0xA0 SHL SUB AND SWAP1 PUSH4 0xDB006A75 SWAP1 PUSH2 0x1F5E SWAP1 DUP8 SWAP1 PUSH1 0x4 ADD PUSH2 0x4C41 JUMP JUMPDEST PUSH1 0x20 PUSH1 0x40 MLOAD DUP1 DUP4 SUB DUP2 PUSH1 0x0 DUP8 DUP1 EXTCODESIZE ISZERO DUP1 ISZERO PUSH2 0x1F78 JUMPI PUSH1 0x0 DUP1 REVERT JUMPDEST POP GAS CALL ISZERO DUP1 ISZERO PUSH2 0x1F8C JUMPI RETURNDATASIZE PUSH1 0x0 DUP1 RETURNDATACOPY RETURNDATASIZE PUSH1 0x0 REVERT JUMPDEST POP POP POP POP PUSH1 0x40 MLOAD RETURNDATASIZE PUSH1 0x1F NOT PUSH1 0x1F DUP3 ADD AND DUP3 ADD DUP1 PUSH1 0x40 MSTORE POP DUP2 ADD SWAP1 PUSH2 0x1FB0 SWAP2 SWAP1 PUSH2 0x47DC JUMP JUMPDEST SWAP1 POP DUP1 ISZERO PUSH2 0x1FD0 JUMPI PUSH1 0x40 MLOAD PUSH3 0x461BCD PUSH1 0xE5 SHL DUP2 MSTORE PUSH1 0x4 ADD PUSH2 0x258 SWAP1 PUSH2 0x4A92 JUMP JUMPDEST SELFBALANCE PUSH2 0x1DF2 DUP2 DUP5 PUSH2 0x2BA9 JUMP JUMPDEST PUSH1 0x0 DUP1 DUP4 PUSH1 0x0 ADD MLOAD PUSH1 0x1 PUSH1 0x1 PUSH1 0xA0 SHL SUB AND PUSH4 0x70A08231 ADDRESS PUSH1 0x40 MLOAD DUP3 PUSH4 0xFFFFFFFF AND PUSH1 0xE0 SHL DUP2 MSTORE PUSH1 0x4 ADD PUSH2 0x200E SWAP2 SWAP1 PUSH2 0x4872 JUMP JUMPDEST PUSH1 0x20 PUSH1 0x40 MLOAD DUP1 DUP4 SUB DUP2 DUP7 DUP1 EXTCODESIZE ISZERO DUP1 ISZERO PUSH2 0x2026 JUMPI PUSH1 0x0 DUP1 REVERT JUMPDEST POP GAS STATICCALL ISZERO DUP1 ISZERO PUSH2 0x203A JUMPI RETURNDATASIZE PUSH1 0x0 DUP1 RETURNDATACOPY RETURNDATASIZE PUSH1 0x0 REVERT JUMPDEST POP POP POP POP PUSH1 0x40 MLOAD RETURNDATASIZE PUSH1 0x1F NOT PUSH1 0x1F DUP3 ADD AND DUP3 ADD DUP1 PUSH1 0x40 MSTORE POP DUP2 ADD SWAP1 PUSH2 0x205E SWAP2 SWAP1 PUSH2 0x47DC JUMP JUMPDEST SWAP1 POP PUSH1 0x0 DUP6 PUSH1 0x0 ADD MLOAD PUSH1 0x1 PUSH1 0x1 PUSH1 0xA0 SHL SUB AND PUSH4 0xDB006A75 DUP6 PUSH1 0x40 MLOAD DUP3 PUSH4 0xFFFFFFFF AND PUSH1 0xE0 SHL DUP2 MSTORE PUSH1 0x4 ADD PUSH2 0x2092 SWAP2 SWAP1 PUSH2 0x4C41 JUMP JUMPDEST PUSH1 0x20 PUSH1 0x40 MLOAD DUP1 DUP4 SUB DUP2 PUSH1 0x0 DUP8 DUP1 EXTCODESIZE ISZERO DUP1 ISZERO PUSH2 0x20AC JUMPI PUSH1 0x0 DUP1 REVERT JUMPDEST POP GAS CALL ISZERO DUP1 ISZERO PUSH2 0x20C0 JUMPI RETURNDATASIZE PUSH1 0x0 DUP1 RETURNDATACOPY RETURNDATASIZE PUSH1 0x0 REVERT JUMPDEST POP POP POP POP PUSH1 0x40 MLOAD RETURNDATASIZE PUSH1 0x1F NOT PUSH1 0x1F DUP3 ADD AND DUP3 ADD DUP1 PUSH1 0x40 MSTORE POP DUP2 ADD SWAP1 PUSH2 0x20E4 SWAP2 SWAP1 PUSH2 0x47DC JUMP JUMPDEST SWAP1 POP DUP1 ISZERO PUSH2 0x2104 JUMPI PUSH1 0x40 MLOAD PUSH3 0x461BCD PUSH1 0xE5 SHL DUP2 MSTORE PUSH1 0x4 ADD PUSH2 0x258 SWAP1 PUSH2 0x4A92 JUMP JUMPDEST DUP5 MLOAD PUSH1 0x40 MLOAD PUSH4 0x70A08231 PUSH1 0xE0 SHL DUP2 MSTORE PUSH1 0x0 SWAP2 PUSH1 0x1 PUSH1 0x1 PUSH1 0xA0 SHL SUB AND SWAP1 PUSH4 0x70A08231 SWAP1 PUSH2 0x2134 SWAP1 ADDRESS SWAP1 PUSH1 0x4 ADD PUSH2 0x4872 JUMP JUMPDEST PUSH1 0x20 PUSH1 0x40 MLOAD DUP1 DUP4 SUB DUP2 DUP7 DUP1 EXTCODESIZE ISZERO DUP1 ISZERO PUSH2 0x214C JUMPI PUSH1 0x0 DUP1 REVERT JUMPDEST POP GAS STATICCALL ISZERO DUP1 ISZERO PUSH2 0x2160 JUMPI RETURNDATASIZE PUSH1 0x0 DUP1 RETURNDATACOPY RETURNDATASIZE PUSH1 0x0 REVERT JUMPDEST POP POP POP POP PUSH1 0x40 MLOAD RETURNDATASIZE PUSH1 0x1F NOT PUSH1 0x1F DUP3 ADD AND DUP3 ADD DUP1 PUSH1 0x40 MSTORE POP DUP2 ADD SWAP1 PUSH2 0x2184 SWAP2 SWAP1 PUSH2 0x47DC JUMP JUMPDEST SWAP1 POP PUSH2 0x2190 DUP2 DUP5 PUSH2 0x2BA9 JUMP JUMPDEST SWAP8 SWAP7 POP POP POP POP POP POP POP JUMP JUMPDEST PUSH2 0x21A3 PUSH2 0x4155 JUMP JUMPDEST PUSH1 0x0 PUSH2 0x21AD PUSH2 0x1E43 JUMP JUMPDEST PUSH2 0xFFFF SWAP4 DUP5 AND PUSH1 0x0 SWAP1 DUP2 MSTORE PUSH1 0x20 SWAP2 DUP3 MSTORE PUSH1 0x40 SWAP1 DUP2 SWAP1 KECCAK256 DUP1 SLOAD PUSH5 0xFFFFFFFFFF DUP2 AND DUP7 MSTORE PUSH1 0x1 PUSH1 0x28 SHL DUP2 DIV PUSH1 0x1 PUSH1 0x1 PUSH1 0x58 SHL SUB SWAP1 DUP2 AND SWAP5 DUP8 ADD SWAP5 SWAP1 SWAP5 MSTORE PUSH1 0x1 DUP3 ADD SLOAD DUP5 AND SWAP3 DUP7 ADD SWAP3 SWAP1 SWAP3 MSTORE PUSH1 0x1 PUSH1 0xD8 SHL DUP3 DIV PUSH4 0xFFFFFFFF AND PUSH1 0x60 DUP7 ADD MSTORE PUSH1 0x1 PUSH1 0x80 SHL SWAP1 SWAP2 DIV SWAP1 SWAP2 AND PUSH1 0x80 DUP5 ADD MSTORE PUSH1 0x2 ADD SLOAD PUSH1 0x1 PUSH1 0x1 PUSH1 0x50 SHL SUB DUP1 DUP3 AND PUSH1 0xA0 DUP6 ADD MSTORE PUSH1 0x1 PUSH1 0x50 SHL DUP3 DIV DUP2 AND PUSH1 0xC0 DUP6 ADD MSTORE PUSH1 0x1 PUSH1 0xA0 SHL DUP3 DIV AND PUSH1 0xE0 DUP5 ADD MSTORE PUSH1 0x1 PUSH1 0xF0 SHL SWAP1 DIV PUSH1 0xFF AND PUSH2 0x12C MUL SWAP1 SWAP3 AND PUSH2 0x100 DUP3 ADD MSTORE SWAP2 SWAP1 POP JUMP JUMPDEST PUSH1 0x0 DUP1 PUSH2 0x226F DUP4 PUSH2 0x2E2F JUMP JUMPDEST PUSH1 0x1 PUSH1 0x1 PUSH1 0xA0 SHL SUB AND PUSH4 0xEF81F216 PUSH1 0x40 MLOAD DUP2 PUSH4 0xFFFFFFFF AND PUSH1 0xE0 SHL DUP2 MSTORE PUSH1 0x4 ADD PUSH1 0x40 DUP1 MLOAD DUP1 DUP4 SUB DUP2 PUSH1 0x0 DUP8 DUP1 EXTCODESIZE ISZERO DUP1 ISZERO PUSH2 0x22A8 JUMPI PUSH1 0x0 DUP1 REVERT JUMPDEST POP GAS CALL ISZERO DUP1 ISZERO PUSH2 0x22BC JUMPI RETURNDATASIZE PUSH1 0x0 DUP1 RETURNDATACOPY RETURNDATASIZE PUSH1 0x0 REVERT JUMPDEST POP POP POP POP PUSH1 0x40 MLOAD RETURNDATASIZE PUSH1 0x1F NOT PUSH1 0x1F DUP3 ADD AND DUP3 ADD DUP1 PUSH1 0x40 MSTORE POP DUP2 ADD SWAP1 PUSH2 0x9C3 SWAP2 SWAP1 PUSH2 0x47F4 JUMP JUMPDEST PUSH2 0x22E8 PUSH2 0x4155 JUMP JUMPDEST PUSH1 0x0 DUP1 PUSH1 0x0 PUSH2 0x22F8 DUP9 DUP7 DUP10 PUSH2 0x2E5F JUMP JUMPDEST PUSH1 0xC0 DUP12 ADD SWAP3 SWAP1 SWAP3 MSTORE PUSH1 0xE0 DUP11 ADD SWAP3 SWAP1 SWAP3 MSTORE PUSH1 0x20 DUP10 ADD MLOAD SWAP2 SWAP4 POP SWAP2 POP PUSH2 0x231C SWAP1 DUP4 PUSH2 0x2F6A JUMP JUMPDEST PUSH1 0x20 DUP9 ADD MSTORE PUSH1 0x80 DUP8 ADD MLOAD PUSH1 0x0 SWAP1 ISZERO PUSH2 0x234A JUMPI PUSH1 0x80 DUP9 ADD MLOAD PUSH2 0x2347 SWAP1 PUSH2 0x2341 DUP10 DUP3 PUSH2 0x2BA9 JUMP JUMPDEST SWAP1 PUSH2 0x2F7C JUMP JUMPDEST SWAP1 POP JUMPDEST PUSH2 0x236A PUSH2 0x235F PUSH8 0xDE0B6B3A7640000 DUP4 PUSH2 0x2F6A JUMP JUMPDEST PUSH1 0xA0 DUP11 ADD MLOAD SWAP1 PUSH2 0x2F99 JUMP JUMPDEST PUSH1 0xA0 DUP10 ADD MSTORE POP POP PUSH1 0x80 DUP7 ADD SWAP5 SWAP1 SWAP5 MSTORE POP POP DUP3 MSTORE SWAP1 SWAP3 SWAP1 SWAP2 POP JUMP JUMPDEST PUSH1 0x0 PUSH2 0x238E PUSH2 0x1E43 JUMP JUMPDEST PUSH1 0x0 DUP6 PUSH2 0xFFFF AND DUP2 MSTORE PUSH1 0x20 ADD SWAP1 DUP2 MSTORE PUSH1 0x20 ADD PUSH1 0x0 KECCAK256 SWAP1 POP PUSH2 0x23B2 DUP3 PUSH1 0x0 ADD MLOAD PUSH2 0x2FB6 JUMP JUMPDEST DUP2 SLOAD PUSH5 0xFFFFFFFFFF NOT AND PUSH5 0xFFFFFFFFFF SWAP2 SWAP1 SWAP2 AND OR DUP2 SSTORE PUSH1 0xA0 DUP3 ADD MLOAD PUSH2 0x23D7 SWAP1 PUSH2 0x2AD1 JUMP JUMPDEST PUSH1 0x2 DUP3 ADD DUP1 SLOAD PUSH10 0xFFFFFFFFFFFFFFFFFFFF NOT AND PUSH1 0x1 PUSH1 0x1 PUSH1 0x50 SHL SUB SWAP3 SWAP1 SWAP3 AND SWAP2 SWAP1 SWAP2 OR SWAP1 SSTORE PUSH1 0xC0 DUP3 ADD MLOAD PUSH2 0x240A SWAP1 PUSH2 0x2AD1 JUMP JUMPDEST DUP2 PUSH1 0x2 ADD PUSH1 0xA PUSH2 0x100 EXP DUP2 SLOAD DUP2 PUSH1 0x1 PUSH1 0x1 PUSH1 0x50 SHL SUB MUL NOT AND SWAP1 DUP4 PUSH1 0x1 PUSH1 0x1 PUSH1 0x50 SHL SUB AND MUL OR SWAP1 SSTORE POP PUSH2 0x243F DUP3 PUSH1 0xE0 ADD MLOAD PUSH2 0x2AD1 JUMP JUMPDEST DUP2 PUSH1 0x2 ADD PUSH1 0x14 PUSH2 0x100 EXP DUP2 SLOAD DUP2 PUSH1 0x1 PUSH1 0x1 PUSH1 0x50 SHL SUB MUL NOT AND SWAP1 DUP4 PUSH1 0x1 PUSH1 0x1 PUSH1 0x50 SHL SUB AND MUL OR SWAP1 SSTORE POP PUSH2 0x2474 DUP3 PUSH1 0x20 ADD MLOAD PUSH2 0x2FCA JUMP JUMPDEST DUP2 SLOAD PUSH1 0x1 PUSH1 0x1 PUSH1 0x58 SHL SUB SWAP2 SWAP1 SWAP2 AND PUSH1 0x1 PUSH1 0x28 SHL MUL PUSH16 0xFFFFFFFFFFFFFFFFFFFFFF0000000000 NOT SWAP1 SWAP2 AND OR DUP2 SSTORE PUSH1 0x40 DUP3 ADD MLOAD PUSH2 0x24AE SWAP1 PUSH2 0x2FCA JUMP JUMPDEST PUSH1 0x1 DUP3 ADD DUP1 SLOAD PUSH11 0xFFFFFFFFFFFFFFFFFFFFFF NOT AND PUSH1 0x1 PUSH1 0x1 PUSH1 0x58 SHL SUB SWAP3 SWAP1 SWAP3 AND SWAP2 SWAP1 SWAP2 OR SWAP1 SSTORE PUSH1 0x80 DUP3 ADD MLOAD PUSH2 0x24E2 SWAP1 PUSH2 0x2FCA JUMP JUMPDEST DUP2 SLOAD PUSH1 0x1 PUSH1 0x1 PUSH1 0x58 SHL SUB SWAP2 SWAP1 SWAP2 AND PUSH1 0x1 PUSH1 0x80 SHL MUL PUSH11 0xFFFFFFFFFFFFFFFFFFFFFF PUSH1 0x80 SHL NOT SWAP1 SWAP2 AND OR DUP2 SSTORE PUSH1 0x60 DUP3 ADD MLOAD PUSH2 0x251A SWAP1 PUSH2 0x2ABE JUMP JUMPDEST DUP2 SLOAD PUSH4 0xFFFFFFFF SWAP2 SWAP1 SWAP2 AND PUSH1 0x1 PUSH1 0xD8 SHL MUL PUSH4 0xFFFFFFFF PUSH1 0xD8 SHL NOT SWAP1 SWAP2 AND OR DUP2 SSTORE DUP3 ISZERO PUSH2 0x2566 JUMPI PUSH1 0x0 PUSH2 0x254B DUP5 PUSH2 0xC24 JUMP JUMPDEST SWAP1 POP PUSH2 0x2557 DUP6 DUP3 PUSH2 0x2FE0 JUMP JUMPDEST PUSH2 0x2564 PUSH2 0xFEE DUP7 DUP4 PUSH2 0x2C10 JUMP JUMPDEST POP JUMPDEST DUP4 PUSH2 0xFFFF AND PUSH32 0xEF25641E225E493886510CA1AD6584FA7B442B9FEA820A29D1DE3CE27D270FD2 DUP4 PUSH1 0xA0 ADD MLOAD DUP5 PUSH1 0xC0 ADD MLOAD DUP6 PUSH1 0xE0 ADD MLOAD PUSH1 0x40 MLOAD PUSH2 0x25AA SWAP4 SWAP3 SWAP2 SWAP1 PUSH2 0x4C4A JUMP JUMPDEST PUSH1 0x40 MLOAD DUP1 SWAP2 SUB SWAP1 LOG2 POP POP POP POP JUMP JUMPDEST PUSH1 0x0 DUP3 PUSH2 0x25C7 JUMPI POP PUSH1 0x0 PUSH2 0x9AA JUMP JUMPDEST DUP3 DUP3 MUL DUP3 DUP5 DUP3 DUP2 PUSH2 0x25D4 JUMPI INVALID JUMPDEST DIV EQ PUSH2 0xEDE JUMPI PUSH1 0x0 DUP1 REVERT JUMPDEST PUSH1 0x0 DUP1 PUSH2 0x9AA PUSH1 0x6 PUSH2 0x1B73 JUMP JUMPDEST PUSH1 0x0 DUP1 DUP3 SLT PUSH2 0x25FC JUMPI POP DUP1 PUSH2 0x9AA JUMP JUMPDEST DUP3 MLOAD PUSH1 0x20 DUP5 ADD MLOAD PUSH2 0x2613 SWAP2 SWAP1 PUSH2 0x1E8A SWAP1 DUP6 SWAP1 PUSH2 0xFF3 JUMP JUMPDEST SWAP1 POP PUSH2 0x9AA JUMP JUMPDEST PUSH1 0x0 PUSH4 0x5F5E100 DUP4 PUSH1 0x40 ADD MLOAD EQ ISZERO PUSH2 0x2633 JUMPI POP DUP1 PUSH2 0x9AA JUMP JUMPDEST PUSH2 0xEDE PUSH4 0x5F5E100 PUSH2 0x1E8A DUP6 PUSH1 0x40 ADD MLOAD DUP6 PUSH2 0xFF3 SWAP1 SWAP2 SWAP1 PUSH4 0xFFFFFFFF AND JUMP JUMPDEST PUSH1 0x0 PUSH2 0x265C PUSH2 0x3017 JUMP JUMPDEST DUP4 MLOAD PUSH1 0x1 PUSH1 0x1 PUSH1 0xA0 SHL SUB AND PUSH1 0x0 SWAP1 DUP2 MSTORE PUSH1 0x20 DUP3 SWAP1 MSTORE PUSH1 0x40 SWAP1 KECCAK256 SLOAD SWAP1 SWAP2 POP DUP1 DUP4 GT PUSH2 0x2687 JUMPI POP POP PUSH2 0x7A9 JUMP JUMPDEST PUSH1 0x0 PUSH2 0x2692 DUP7 PUSH2 0x2E2F JUMP JUMPDEST SWAP1 POP PUSH1 0x0 DUP2 PUSH1 0x1 PUSH1 0x1 PUSH1 0xA0 SHL SUB AND PUSH4 0xB5E4DA23 DUP5 DUP8 SUB PUSH1 0x40 MLOAD DUP3 PUSH4 0xFFFFFFFF AND PUSH1 0xE0 SHL DUP2 MSTORE PUSH1 0x4 ADD PUSH2 0x26C4 SWAP2 SWAP1 PUSH2 0x4C41 JUMP JUMPDEST PUSH1 0x0 PUSH1 0x40 MLOAD DUP1 DUP4 SUB DUP2 DUP7 DUP1 EXTCODESIZE ISZERO DUP1 ISZERO PUSH2 0x26DC JUMPI PUSH1 0x0 DUP1 REVERT JUMPDEST POP GAS STATICCALL ISZERO DUP1 ISZERO PUSH2 0x26F0 JUMPI RETURNDATASIZE PUSH1 0x0 DUP1 RETURNDATACOPY RETURNDATASIZE PUSH1 0x0 REVERT JUMPDEST POP POP POP POP PUSH1 0x40 MLOAD RETURNDATASIZE PUSH1 0x0 DUP3 RETURNDATACOPY PUSH1 0x1F RETURNDATASIZE SWAP1 DUP2 ADD PUSH1 0x1F NOT AND DUP3 ADD PUSH1 0x40 MSTORE PUSH2 0x2718 SWAP2 SWAP1 DUP2 ADD SWAP1 PUSH2 0x4494 JUMP JUMPDEST SWAP1 POP PUSH1 0x0 PUSH2 0x2726 DUP8 DUP4 PUSH2 0x3024 JUMP JUMPDEST SWAP2 POP PUSH2 0x2734 SWAP1 POP DUP5 DUP3 PUSH2 0x2F6A JUMP JUMPDEST DUP7 GT ISZERO PUSH2 0x2740 JUMPI PUSH1 0x0 DUP1 REVERT JUMPDEST POP POP POP POP POP POP POP POP JUMP JUMPDEST DUP3 PUSH1 0x1 PUSH1 0x1 PUSH1 0xA0 SHL SUB AND PUSH4 0xA9059CBB DUP4 DUP4 PUSH1 0x40 MLOAD DUP4 PUSH4 0xFFFFFFFF AND PUSH1 0xE0 SHL DUP2 MSTORE PUSH1 0x4 ADD DUP1 DUP4 PUSH1 0x1 PUSH1 0x1 PUSH1 0xA0 SHL SUB AND DUP2 MSTORE PUSH1 0x20 ADD DUP3 DUP2 MSTORE PUSH1 0x20 ADD SWAP3 POP POP POP PUSH1 0x0 PUSH1 0x40 MLOAD DUP1 DUP4 SUB DUP2 PUSH1 0x0 DUP8 DUP1 EXTCODESIZE ISZERO DUP1 ISZERO PUSH2 0x27A1 JUMPI PUSH1 0x0 DUP1 REVERT JUMPDEST POP GAS CALL ISZERO DUP1 ISZERO PUSH2 0x27B5 JUMPI RETURNDATASIZE PUSH1 0x0 DUP1 RETURNDATACOPY RETURNDATASIZE PUSH1 0x0 REVERT JUMPDEST POP POP POP POP PUSH2 0x7A9 PUSH2 0x2B3C JUMP JUMPDEST PUSH1 0x0 DUP1 PUSH1 0x0 DUP1 PUSH2 0x27CF PUSH2 0x323B JUMP JUMPDEST PUSH1 0x1 PUSH1 0x1 PUSH1 0xA0 SHL SUB SWAP6 SWAP1 SWAP6 AND PUSH1 0x0 SWAP1 DUP2 MSTORE PUSH1 0x20 SWAP6 SWAP1 SWAP6 MSTORE POP POP PUSH1 0x40 SWAP1 SWAP3 KECCAK256 SLOAD PUSH1 0x1 PUSH1 0x1 PUSH1 0x60 SHL SUB DUP2 AND SWAP4 PUSH1 0x1 PUSH1 0x60 SHL DUP3 DIV PUSH1 0x1 PUSH1 0x1 PUSH1 0x80 SHL SUB AND SWAP4 POP PUSH1 0x1 PUSH1 0xE0 SHL SWAP1 SWAP2 DIV PUSH4 0xFFFFFFFF AND SWAP2 POP JUMP JUMPDEST PUSH1 0x0 DUP1 PUSH1 0x0 PUSH2 0x282C DUP7 DUP6 PUSH2 0x3248 JUMP JUMPDEST POP SWAP2 POP SWAP2 POP PUSH1 0x0 PUSH2 0x283B PUSH2 0x323B JUMP JUMPDEST PUSH1 0x1 PUSH1 0x1 PUSH1 0xA0 SHL SUB DUP9 AND PUSH1 0x0 SWAP1 DUP2 MSTORE PUSH1 0x20 DUP3 SWAP1 MSTORE PUSH1 0x40 DUP2 KECCAK256 SWAP2 SWAP3 POP PUSH2 0x2860 DUP6 DUP10 PUSH2 0x132F JUMP JUMPDEST SWAP1 POP DUP1 PUSH1 0x0 SGT ISZERO DUP1 ISZERO PUSH2 0x2879 JUMPI POP PUSH1 0x1 PUSH1 0x1 PUSH1 0x60 SHL SUB DUP2 LT JUMPDEST PUSH2 0x2882 JUMPI PUSH1 0x0 DUP1 REVERT JUMPDEST DUP2 SLOAD PUSH12 0xFFFFFFFFFFFFFFFFFFFFFFFF NOT AND PUSH1 0x1 PUSH1 0x1 PUSH1 0x60 SHL SUB DUP3 AND OR PUSH16 0xFFFFFFFFFFFFFFFFFFFFFFFFFFFFFFFF PUSH1 0x60 SHL NOT AND PUSH1 0x1 PUSH1 0x60 SHL PUSH1 0x1 PUSH1 0x1 PUSH1 0x80 SHL SUB DUP7 AND MUL OR DUP3 SSTORE PUSH4 0xFFFFFFFF DUP8 LT PUSH2 0x28D7 JUMPI PUSH1 0x0 DUP1 REVERT JUMPDEST POP DUP1 SLOAD PUSH4 0xFFFFFFFF DUP8 AND PUSH1 0x1 PUSH1 0xE0 SHL MUL PUSH1 0x1 PUSH1 0x1 PUSH1 0xE0 SHL SUB SWAP1 SWAP2 AND OR SWAP1 SSTORE POP SWAP2 POP POP SWAP4 SWAP3 POP POP POP JUMP JUMPDEST PUSH1 0xE0 DUP5 ADD MLOAD PUSH1 0x0 SWAP1 ISZERO PUSH2 0x29C1 JUMPI PUSH20 0x0 PUSH4 0xE0C01A72 DUP6 PUSH2 0x2935 DUP9 PUSH1 0x40 ADD MLOAD PUSH2 0xAE8 JUMP JUMPDEST DUP9 PUSH1 0xE0 ADD MLOAD DUP10 PUSH2 0x100 ADD MLOAD PUSH1 0x40 MLOAD DUP6 PUSH4 0xFFFFFFFF AND PUSH1 0xE0 SHL DUP2 MSTORE PUSH1 0x4 ADD PUSH2 0x295F SWAP5 SWAP4 SWAP3 SWAP2 SWAP1 PUSH2 0x4A03 JUMP JUMPDEST PUSH1 0x20 PUSH1 0x40 MLOAD DUP1 DUP4 SUB DUP2 DUP7 DUP1 EXTCODESIZE ISZERO DUP1 ISZERO PUSH2 0x2977 JUMPI PUSH1 0x0 DUP1 REVERT JUMPDEST POP GAS DELEGATECALL ISZERO DUP1 ISZERO PUSH2 0x298B JUMPI RETURNDATASIZE PUSH1 0x0 DUP1 RETURNDATACOPY RETURNDATASIZE PUSH1 0x0 REVERT JUMPDEST POP POP POP POP PUSH1 0x40 MLOAD RETURNDATASIZE PUSH1 0x1F NOT PUSH1 0x1F DUP3 ADD AND DUP3 ADD DUP1 PUSH1 0x40 MSTORE POP DUP2 ADD SWAP1 PUSH2 0x29AF SWAP2 SWAP1 PUSH2 0x47DC JUMP JUMPDEST PUSH1 0x0 PUSH1 0xE0 DUP8 ADD DUP2 SWAP1 MSTORE PUSH2 0x100 DUP8 ADD MSTORE SWAP1 POP JUMPDEST PUSH2 0x2A03 PUSH2 0x29FC DUP7 PUSH2 0x100 ADD MLOAD PUSH2 0x29F6 PUSH8 0xDE0B6B3A7640000 PUSH2 0x29F0 DUP9 PUSH2 0x29EA DUP13 PUSH1 0x40 ADD MLOAD PUSH2 0xAE8 JUMP JUMPDEST SWAP1 PUSH2 0x25B8 JUMP JUMPDEST SWAP1 PUSH2 0x32DE JUMP JUMPDEST SWAP1 PUSH2 0x2BA9 JUMP JUMPDEST DUP3 SWAP1 PUSH2 0x2F6A JUMP JUMPDEST SWAP1 POP PUSH2 0x2A1B PUSH8 0xDE0B6B3A7640000 PUSH2 0x29F0 DUP5 DUP7 PUSH2 0x25B8 JUMP JUMPDEST DUP6 PUSH2 0x100 ADD DUP2 DUP2 MSTORE POP POP SWAP5 SWAP4 POP POP POP POP JUMP JUMPDEST PUSH1 0x0 DUP1 PUSH2 0x2A38 PUSH2 0x1B8C JUMP JUMPDEST PUSH1 0x1 PUSH1 0x1 PUSH1 0xA0 SHL SUB DUP5 AND PUSH1 0x0 SWAP1 DUP2 MSTORE PUSH1 0x20 DUP3 SWAP1 MSTORE PUSH1 0x40 SWAP1 KECCAK256 DUP1 SLOAD SWAP2 SWAP3 POP SWAP1 PUSH1 0x1 PUSH1 0xF8 SHL SWAP1 DIV PUSH1 0xFF AND ISZERO PUSH2 0x2A94 JUMPI PUSH2 0x2A6D PUSH2 0x32FD JUMP JUMPDEST PUSH1 0x1 PUSH1 0x1 PUSH1 0xA0 SHL SUB DUP1 DUP7 AND PUSH1 0x0 SWAP1 DUP2 MSTORE PUSH1 0x20 SWAP3 SWAP1 SWAP3 MSTORE PUSH1 0x40 SWAP1 SWAP2 KECCAK256 SLOAD AND SWAP3 POP PUSH2 0x8B1 SWAP2 POP POP JUMP JUMPDEST PUSH1 0x0 SWAP3 POP POP POP PUSH2 0x8B1 JUMP JUMPDEST PUSH2 0x498 PUSH20 0x19BE259BC299F3F653688C7655C87F998BC7BC1 DUP4 DUP4 PUSH2 0x274A JUMP JUMPDEST PUSH1 0x0 PUSH4 0xFFFFFFFF DUP3 GT ISZERO PUSH2 0xAF7 JUMPI PUSH1 0x0 DUP1 REVERT JUMPDEST PUSH1 0x0 PUSH1 0x1 PUSH1 0x1 PUSH1 0x50 SHL SUB DUP3 GT ISZERO PUSH2 0xAF7 JUMPI PUSH1 0x0 DUP1 REVERT JUMPDEST PUSH1 0x0 PUSH2 0x2AF3 DUP7 DUP4 PUSH2 0x330A JUMP JUMPDEST SWAP1 POP PUSH2 0x1938 DUP7 DUP7 DUP7 PUSH2 0x2B05 DUP8 DUP7 PUSH2 0x3349 JUMP JUMPDEST PUSH2 0x33D0 JUMP JUMPDEST PUSH1 0x0 PUSH11 0x7FFFFFFFFFFFFFFFFFFFFF NOT DUP3 SLT DUP1 ISZERO SWAP1 PUSH2 0x2B33 JUMPI POP PUSH11 0x7FFFFFFFFFFFFFFFFFFFFF DUP3 SGT ISZERO JUMPDEST PUSH2 0xAF7 JUMPI PUSH1 0x0 DUP1 REVERT JUMPDEST PUSH1 0x0 PUSH2 0x2B46 PUSH2 0x41A1 JUMP JUMPDEST RETURNDATASIZE DUP1 ISZERO PUSH2 0x2B5A JUMPI PUSH1 0x20 DUP2 EQ PUSH2 0x2B63 JUMPI PUSH1 0x0 DUP1 REVERT JUMPDEST PUSH1 0x1 SWAP3 POP PUSH2 0x2B6E JUMP JUMPDEST PUSH1 0x20 PUSH1 0x0 DUP4 RETURNDATACOPY DUP2 MLOAD SWAP3 POP JUMPDEST POP DUP2 PUSH2 0x498 JUMPI PUSH1 0x40 DUP1 MLOAD PUSH3 0x461BCD PUSH1 0xE5 SHL DUP2 MSTORE PUSH1 0x20 PUSH1 0x4 DUP3 ADD MSTORE PUSH1 0x5 PUSH1 0x24 DUP3 ADD MSTORE PUSH5 0x455243323 PUSH1 0xDC SHL PUSH1 0x44 DUP3 ADD MSTORE SWAP1 MLOAD SWAP1 DUP2 SWAP1 SUB PUSH1 0x64 ADD SWAP1 REVERT JUMPDEST PUSH1 0x0 DUP3 DUP3 GT ISZERO PUSH2 0x2BB8 JUMPI PUSH1 0x0 DUP1 REVERT JUMPDEST POP SWAP1 SUB SWAP1 JUMP JUMPDEST PUSH1 0x0 PUSH4 0x5F5E100 DUP4 PUSH1 0x40 ADD MLOAD EQ ISZERO PUSH2 0x2BD7 JUMPI POP DUP1 PUSH2 0x9AA JUMP JUMPDEST PUSH1 0x40 DUP4 ADD MLOAD PUSH2 0xEDE SWAP1 PUSH2 0x1E8A DUP5 PUSH4 0x5F5E100 PUSH2 0xFF3 JUMP JUMPDEST DUP2 MLOAD PUSH1 0x0 SWAP1 PUSH2 0xEDE SWAP1 PUSH2 0x1E8A DUP5 PUSH15 0xC097CE7BC90715B34B9F1000000000 PUSH2 0xFF3 JUMP JUMPDEST PUSH1 0x0 PUSH2 0x2C1A PUSH2 0x3404 JUMP JUMPDEST PUSH2 0xFFFF DUP5 AND PUSH1 0x0 SWAP1 DUP2 MSTORE PUSH1 0x20 SWAP2 SWAP1 SWAP2 MSTORE PUSH1 0x40 SWAP1 DUP2 SWAP1 KECCAK256 SLOAD SWAP1 MLOAD PUSH4 0xAD1C095D PUSH1 0xE0 SHL DUP2 MSTORE PUSH1 0x1 PUSH1 0x1 PUSH1 0xA0 SHL SUB SWAP1 SWAP2 AND SWAP2 POP DUP2 SWAP1 PUSH4 0xAD1C095D SWAP1 PUSH2 0x2C62 SWAP1 DUP8 SWAP1 DUP7 SWAP1 PUSH1 0x4 ADD PUSH2 0x4965 JUMP JUMPDEST PUSH1 0x0 PUSH1 0x40 MLOAD DUP1 DUP4 SUB DUP2 PUSH1 0x0 DUP8 DUP1 EXTCODESIZE ISZERO DUP1 ISZERO PUSH2 0x2C7C JUMPI PUSH1 0x0 DUP1 REVERT JUMPDEST POP GAS CALL ISZERO DUP1 ISZERO PUSH2 0x2740 JUMPI RETURNDATASIZE PUSH1 0x0 DUP1 RETURNDATACOPY RETURNDATASIZE PUSH1 0x0 REVERT JUMPDEST PUSH1 0x0 PUSH2 0x2C9A PUSH2 0x1E43 JUMP JUMPDEST PUSH2 0xFFFF DUP6 AND PUSH1 0x0 SWAP1 DUP2 MSTORE PUSH1 0x20 SWAP2 SWAP1 SWAP2 MSTORE PUSH1 0x40 SWAP1 KECCAK256 DUP1 SLOAD SWAP1 SWAP2 POP PUSH5 0xFFFFFFFFFF AND TIMESTAMP EQ PUSH2 0x2CC5 JUMPI PUSH1 0x0 DUP1 REVERT JUMPDEST DUP1 SLOAD PUSH1 0x0 SWAP1 PUSH2 0x2CE4 SWAP1 PUSH1 0x1 PUSH1 0x28 SHL SWAP1 DIV PUSH1 0x1 PUSH1 0x1 PUSH1 0x58 SHL SUB AND DUP6 PUSH2 0x132F JUMP JUMPDEST DUP3 SLOAD SWAP1 SWAP2 POP PUSH1 0x0 SWAP1 PUSH2 0x2D06 SWAP1 PUSH1 0x1 PUSH1 0x80 SHL SWAP1 DIV PUSH1 0x1 PUSH1 0x1 PUSH1 0x58 SHL SUB AND DUP6 PUSH2 0x132F JUMP JUMPDEST SWAP1 POP DUP1 PUSH3 0x4C4B40 SGT ISZERO PUSH2 0x2D18 JUMPI PUSH1 0x0 DUP1 REVERT JUMPDEST PUSH2 0x2D29 PUSH2 0x2D24 DUP3 PUSH2 0xAE8 JUMP JUMPDEST PUSH2 0x2FCA JUMP JUMPDEST DUP4 SLOAD PUSH1 0x1 PUSH1 0x1 PUSH1 0x58 SHL SUB SWAP2 SWAP1 SWAP2 AND PUSH1 0x1 PUSH1 0x80 SHL MUL PUSH11 0xFFFFFFFFFFFFFFFFFFFFFF PUSH1 0x80 SHL NOT SWAP1 SWAP2 AND OR DUP4 SSTORE PUSH2 0x2D5F PUSH2 0x2D24 DUP4 PUSH2 0xAE8 JUMP JUMPDEST DUP4 SLOAD PUSH1 0x1 PUSH1 0x1 PUSH1 0x58 SHL SUB SWAP2 SWAP1 SWAP2 AND PUSH1 0x1 PUSH1 0x28 SHL MUL PUSH16 0xFFFFFFFFFFFFFFFFFFFFFF0000000000 NOT SWAP1 SWAP2 AND OR DUP4 SSTORE PUSH2 0x2D94 DUP4 PUSH2 0x3411 JUMP JUMPDEST POP POP POP POP POP POP JUMP JUMPDEST PUSH1 0x0 PUSH2 0x2DA6 PUSH2 0x3017 JUMP JUMPDEST PUSH1 0x1 PUSH1 0x1 PUSH1 0xA0 SHL SUB DUP5 AND PUSH1 0x0 SWAP1 DUP2 MSTORE PUSH1 0x20 DUP3 SWAP1 MSTORE PUSH1 0x40 SWAP1 KECCAK256 SLOAD SWAP1 SWAP2 POP PUSH2 0x2DCF PUSH2 0x385 DUP3 DUP6 PUSH2 0x132F JUMP JUMPDEST PUSH1 0x1 PUSH1 0x1 PUSH1 0xA0 SHL SUB SWAP1 SWAP5 AND PUSH1 0x0 SWAP1 DUP2 MSTORE PUSH1 0x20 SWAP3 SWAP1 SWAP3 MSTORE POP PUSH1 0x40 SWAP1 KECCAK256 SWAP2 SWAP1 SWAP2 SSTORE POP JUMP JUMPDEST PUSH1 0x0 DUP2 PUSH1 0x0 NOT EQ DUP1 ISZERO PUSH2 0x2E07 JUMPI POP PUSH1 0x1 PUSH1 0xFF SHL DUP4 EQ JUMPDEST ISZERO PUSH2 0x2E11 JUMPI PUSH1 0x0 DUP1 REVERT JUMPDEST DUP2 DUP4 DUP2 PUSH2 0x2E1A JUMPI INVALID JUMPDEST SDIV SWAP4 SWAP3 POP POP POP JUMP JUMPDEST PUSH1 0x0 DUP1 PUSH2 0x9AA PUSH1 0x7 PUSH2 0x1B73 JUMP JUMPDEST PUSH1 0x0 DUP1 PUSH2 0x2E3A PUSH2 0x34DC JUMP JUMPDEST PUSH2 0xFFFF SWAP4 SWAP1 SWAP4 AND PUSH1 0x0 SWAP1 DUP2 MSTORE PUSH1 0x20 SWAP4 SWAP1 SWAP4 MSTORE POP POP PUSH1 0x40 SWAP1 KECCAK256 SLOAD PUSH1 0x1 PUSH1 0x1 PUSH1 0xA0 SHL SUB AND SWAP1 JUMP JUMPDEST PUSH1 0x0 DUP1 PUSH1 0x0 DUP1 PUSH1 0x0 DUP1 PUSH2 0x2E72 DUP10 DUP9 PUSH2 0x34E9 JUMP JUMPDEST DUP10 MLOAD SWAP1 SWAP6 POP SWAP2 SWAP4 POP SWAP2 POP PUSH1 0x0 SWAP1 PUSH2 0x2E99 SWAP1 PUSH2 0x2E8E SWAP1 DUP12 SWAP1 PUSH2 0x2BA9 JUMP JUMPDEST PUSH4 0x3B9ACA00 SWAP1 PUSH2 0x25B8 JUMP JUMPDEST SWAP1 POP PUSH2 0x2ED3 PUSH2 0x2EC8 PUSH4 0x1DA9C00 PUSH2 0x2EB0 DUP6 DUP6 PUSH2 0x25B8 JUMP JUMPDEST DUP2 PUSH2 0x2EB7 JUMPI INVALID JUMPDEST PUSH8 0xDE0B6B3A7640000 SWAP2 SWAP1 DIV PUSH2 0x2F6A JUMP JUMPDEST PUSH1 0xE0 DUP11 ADD MLOAD SWAP1 PUSH2 0x2F99 JUMP JUMPDEST SWAP7 POP PUSH2 0x2EF5 PUSH2 0x2EEA PUSH4 0x1DA9C00 PUSH2 0x2EB0 DUP8 DUP6 PUSH2 0x25B8 JUMP JUMPDEST PUSH1 0xC0 DUP11 ADD MLOAD SWAP1 PUSH2 0x2F99 JUMP JUMPDEST SWAP6 POP DUP2 DUP4 EQ ISZERO PUSH2 0x2F0C JUMPI POP PUSH1 0x0 SWAP4 POP PUSH2 0x2F61 SWAP2 POP POP JUMP JUMPDEST PUSH1 0x0 PUSH2 0x2F2E PUSH2 0x2F23 PUSH4 0x1DA9C00 PUSH2 0x2EB0 DUP8 DUP7 PUSH2 0x25B8 JUMP JUMPDEST PUSH1 0xE0 DUP12 ADD MLOAD SWAP1 PUSH2 0x2F99 JUMP JUMPDEST SWAP1 POP PUSH1 0x0 PUSH2 0x2F3C DUP10 DUP4 PUSH2 0x2BA9 JUMP JUMPDEST SWAP1 POP PUSH2 0x2F59 DUP9 PUSH2 0x29F0 DUP4 DUP14 PUSH1 0x40 ADD MLOAD PUSH2 0x25B8 SWAP1 SWAP2 SWAP1 PUSH4 0xFFFFFFFF AND JUMP JUMPDEST SWAP7 POP POP POP POP POP POP JUMPDEST SWAP4 POP SWAP4 POP SWAP4 POP SWAP4 JUMP JUMPDEST PUSH1 0x0 DUP3 DUP3 ADD DUP4 DUP2 LT ISZERO PUSH2 0xEDE JUMPI PUSH1 0x0 DUP1 REVERT JUMPDEST PUSH1 0x0 PUSH2 0xEDE PUSH2 0x2F93 DUP5 PUSH8 0xDE0B6B3A7640000 PUSH2 0x25B8 JUMP JUMPDEST DUP4 PUSH2 0x32DE JUMP JUMPDEST PUSH1 0x0 PUSH2 0xEDE PUSH2 0x2FA8 DUP5 DUP5 PUSH2 0x25B8 JUMP JUMPDEST PUSH8 0xDE0B6B3A7640000 PUSH2 0x32DE JUMP JUMPDEST PUSH1 0x0 PUSH5 0xFFFFFFFFFF DUP3 GT ISZERO PUSH2 0xAF7 JUMPI PUSH1 0x0 DUP1 REVERT JUMPDEST PUSH1 0x0 PUSH1 0x1 PUSH1 0x1 PUSH1 0x58 SHL SUB DUP3 GT ISZERO PUSH2 0xAF7 JUMPI PUSH1 0x0 DUP1 REVERT JUMPDEST PUSH1 0x0 DUP2 SLT ISZERO PUSH2 0x2FEE JUMPI PUSH1 0x0 DUP1 REVERT JUMPDEST PUSH1 0x0 PUSH2 0x2FFC PUSH2 0xFEE DUP5 PUSH2 0x3583 JUMP JUMPDEST SWAP1 POP PUSH2 0x3008 DUP2 DUP4 PUSH2 0x132F JUMP JUMPDEST SWAP1 POP PUSH2 0x7A9 PUSH2 0xFEE DUP5 DUP4 PUSH2 0x35DC JUMP JUMPDEST PUSH1 0x0 DUP1 PUSH2 0x9AA PUSH1 0x26 PUSH2 0x1B73 JUMP JUMPDEST PUSH1 0x0 DUP1 PUSH1 0x0 JUMPDEST DUP4 MLOAD DUP2 LT ISZERO PUSH2 0x3233 JUMPI PUSH1 0x0 DUP5 DUP3 DUP2 MLOAD DUP2 LT PUSH2 0x3041 JUMPI INVALID JUMPDEST PUSH1 0x20 MUL PUSH1 0x20 ADD ADD MLOAD SWAP1 POP PUSH1 0x0 DUP2 PUSH1 0x60 ADD MLOAD PUSH1 0x1 PUSH1 0x1 PUSH1 0xA0 SHL SUB AND PUSH4 0x70A08231 ADDRESS PUSH1 0x40 MLOAD DUP3 PUSH4 0xFFFFFFFF AND PUSH1 0xE0 SHL DUP2 MSTORE PUSH1 0x4 ADD PUSH2 0x307D SWAP2 SWAP1 PUSH2 0x4872 JUMP JUMPDEST PUSH1 0x20 PUSH1 0x40 MLOAD DUP1 DUP4 SUB DUP2 DUP7 DUP1 EXTCODESIZE ISZERO DUP1 ISZERO PUSH2 0x3095 JUMPI PUSH1 0x0 DUP1 REVERT JUMPDEST POP GAS STATICCALL ISZERO DUP1 ISZERO PUSH2 0x30A9 JUMPI RETURNDATASIZE PUSH1 0x0 DUP1 RETURNDATACOPY RETURNDATASIZE PUSH1 0x0 REVERT JUMPDEST POP POP POP POP PUSH1 0x40 MLOAD RETURNDATASIZE PUSH1 0x1F NOT PUSH1 0x1F DUP3 ADD AND DUP3 ADD DUP1 PUSH1 0x40 MSTORE POP DUP2 ADD SWAP1 PUSH2 0x30CD SWAP2 SWAP1 PUSH2 0x47DC JUMP JUMPDEST SWAP1 POP PUSH1 0x0 PUSH2 0x30DB DUP9 ADDRESS PUSH2 0x3650 JUMP JUMPDEST SWAP1 POP PUSH1 0x0 JUMPDEST DUP4 MLOAD MLOAD DUP2 LT ISZERO PUSH2 0x3137 JUMPI PUSH2 0x3126 DUP5 PUSH1 0x0 ADD MLOAD DUP3 DUP2 MLOAD DUP2 LT PUSH2 0x30FD JUMPI INVALID JUMPDEST PUSH1 0x20 MUL PUSH1 0x20 ADD ADD MLOAD PUSH1 0x0 DUP7 PUSH1 0x20 ADD MLOAD DUP5 DUP2 MLOAD DUP2 LT PUSH2 0x3117 JUMPI INVALID JUMPDEST PUSH1 0x20 MUL PUSH1 0x20 ADD ADD MLOAD PUSH1 0x1 PUSH2 0x36FA JUMP JUMPDEST PUSH2 0x312F JUMPI PUSH1 0x1 SWAP7 POP JUMPDEST PUSH1 0x1 ADD PUSH2 0x30E0 JUMP JUMPDEST POP PUSH1 0x0 PUSH2 0x3144 DUP10 ADDRESS PUSH2 0x3650 JUMP JUMPDEST SWAP1 POP PUSH1 0x0 PUSH2 0x3152 DUP3 DUP5 PUSH2 0x2BA9 JUMP JUMPDEST SWAP1 POP DUP1 DUP6 PUSH1 0x40 ADD MLOAD GT ISZERO PUSH2 0x3165 JUMPI PUSH1 0x0 DUP1 REVERT JUMPDEST PUSH1 0x60 DUP6 ADD MLOAD PUSH1 0x40 MLOAD PUSH4 0x70A08231 PUSH1 0xE0 SHL DUP2 MSTORE PUSH1 0x0 SWAP2 PUSH1 0x1 PUSH1 0x1 PUSH1 0xA0 SHL SUB AND SWAP1 PUSH4 0x70A08231 SWAP1 PUSH2 0x3198 SWAP1 ADDRESS SWAP1 PUSH1 0x4 ADD PUSH2 0x4872 JUMP JUMPDEST PUSH1 0x20 PUSH1 0x40 MLOAD DUP1 DUP4 SUB DUP2 DUP7 DUP1 EXTCODESIZE ISZERO DUP1 ISZERO PUSH2 0x31B0 JUMPI PUSH1 0x0 DUP1 REVERT JUMPDEST POP GAS STATICCALL ISZERO DUP1 ISZERO PUSH2 0x31C4 JUMPI RETURNDATASIZE PUSH1 0x0 DUP1 RETURNDATACOPY RETURNDATASIZE PUSH1 0x0 REVERT JUMPDEST POP POP POP POP PUSH1 0x40 MLOAD RETURNDATASIZE PUSH1 0x1F NOT PUSH1 0x1F DUP3 ADD AND DUP3 ADD DUP1 PUSH1 0x40 MSTORE POP DUP2 ADD SWAP1 PUSH2 0x31E8 SWAP2 SWAP1 PUSH2 0x47DC JUMP JUMPDEST SWAP1 POP DUP5 DUP2 GT ISZERO PUSH2 0x31F7 JUMPI PUSH1 0x0 DUP1 REVERT JUMPDEST PUSH2 0x3206 DUP7 PUSH1 0x60 ADD MLOAD DUP7 DUP4 PUSH2 0x3968 JUMP JUMPDEST PUSH2 0x3210 DUP9 DUP4 PUSH2 0x2F6A JUMP JUMPDEST SWAP8 POP PUSH2 0x3221 DUP12 PUSH1 0x0 ADD MLOAD DUP6 DUP6 PUSH2 0x3968 JUMP JUMPDEST POP POP PUSH1 0x1 SWAP1 SWAP5 ADD SWAP4 POP PUSH2 0x302A SWAP3 POP POP POP JUMP JUMPDEST POP SWAP3 POP SWAP3 SWAP1 POP JUMP JUMPDEST PUSH1 0x0 DUP1 PUSH2 0x9AA PUSH1 0x11 PUSH2 0x1B73 JUMP JUMPDEST PUSH1 0x0 DUP1 PUSH1 0x0 PUSH2 0x3256 DUP6 PUSH2 0x27C1 JUMP JUMPDEST SWAP2 SWAP5 POP SWAP3 POP SWAP1 POP DUP1 DUP5 GT DUP1 ISZERO PUSH2 0x326C JUMPI POP PUSH1 0x0 DUP2 GT JUMPDEST DUP1 ISZERO PUSH2 0x3278 JUMPI POP PUSH1 0x0 DUP4 GT JUMPDEST ISZERO PUSH2 0x32D7 JUMPI PUSH1 0x0 PUSH2 0x3288 DUP7 PUSH2 0x1204 JUMP JUMPDEST POP POP POP SWAP2 POP POP PUSH1 0x0 PUSH2 0x32B3 PUSH2 0x32AA PUSH4 0x5F5E100 DUP5 PUSH2 0x25B8 SWAP1 SWAP2 SWAP1 PUSH4 0xFFFFFFFF AND JUMP JUMPDEST DUP5 DUP9 SUB DUP8 PUSH2 0x39E5 JUMP JUMPDEST SWAP1 POP PUSH2 0x32BF DUP5 DUP3 PUSH2 0x2F6A JUMP JUMPDEST SWAP4 POP PUSH1 0x1 PUSH1 0x1 PUSH1 0x80 SHL SUB DUP5 LT PUSH2 0x32D4 JUMPI PUSH1 0x0 DUP1 REVERT JUMPDEST POP POP JUMPDEST SWAP3 POP SWAP3 POP SWAP3 JUMP JUMPDEST PUSH1 0x0 DUP1 DUP3 GT PUSH2 0x32EC JUMPI PUSH1 0x0 DUP1 REVERT JUMPDEST DUP2 DUP4 DUP2 PUSH2 0x32F5 JUMPI INVALID JUMPDEST DIV SWAP4 SWAP3 POP POP POP JUMP JUMPDEST PUSH1 0x0 DUP1 PUSH2 0x9AA PUSH1 0x12 PUSH2 0x1B73 JUMP JUMPDEST PUSH1 0x0 DUP1 DUP3 SLT ISZERO PUSH2 0x3343 JUMPI PUSH2 0x333E PUSH1 0x1 PUSH2 0x3338 DUP6 PUSH1 0x20 ADD MLOAD PUSH2 0x1E8A DUP8 PUSH1 0x0 ADD MLOAD DUP8 PUSH2 0xFF3 SWAP1 SWAP2 SWAP1 PUSH4 0xFFFFFFFF AND JUMP JUMPDEST SWAP1 PUSH2 0x3A07 JUMP JUMPDEST PUSH2 0xEDE JUMP JUMPDEST POP SWAP2 SWAP1 POP JUMP JUMPDEST PUSH1 0x0 DUP2 DUP4 EQ DUP1 PUSH2 0x3366 JUMPI POP PUSH1 0x0 DUP4 SLT ISZERO DUP1 ISZERO PUSH2 0x3366 JUMPI POP PUSH1 0x0 DUP3 SLT ISZERO JUMPDEST ISZERO PUSH2 0x3373 JUMPI POP PUSH1 0x0 PUSH2 0x9AA JUMP JUMPDEST PUSH1 0x0 DUP4 SGT ISZERO DUP1 ISZERO PUSH2 0x3384 JUMPI POP DUP2 PUSH1 0x0 SLT JUMPDEST ISZERO PUSH2 0x3390 JUMPI POP DUP2 PUSH2 0x9AA JUMP JUMPDEST PUSH1 0x0 DUP3 SGT ISZERO DUP1 ISZERO PUSH2 0x33A1 JUMPI POP DUP3 PUSH1 0x0 SLT JUMPDEST ISZERO PUSH2 0x33AF JUMPI PUSH2 0x2613 DUP3 PUSH2 0x99C JUMP JUMPDEST PUSH1 0x0 DUP4 SGT ISZERO DUP1 ISZERO PUSH2 0x33C1 JUMPI POP PUSH1 0x0 DUP3 SGT ISZERO JUMPDEST ISZERO PUSH2 0x9C JUMPI PUSH2 0x2613 DUP4 DUP4 PUSH2 0x3A07 JUMP JUMPDEST DUP1 ISZERO PUSH2 0x996 JUMPI DUP4 MLOAD PUSH1 0x20 DUP6 ADD MLOAD PUSH1 0x0 SWAP2 PUSH2 0x33EF SWAP2 PUSH2 0x1E8A SWAP1 DUP6 SWAP1 PUSH2 0xFF3 JUMP JUMPDEST SWAP1 POP PUSH2 0x33FD DUP5 DUP5 DUP5 DUP5 PUSH2 0x3A1D JUMP JUMPDEST POP POP POP POP POP JUMP JUMPDEST PUSH1 0x0 DUP1 PUSH2 0x9AA PUSH1 0x21 PUSH2 0x1B73 JUMP JUMPDEST DUP1 SLOAD PUSH1 0x2 DUP3 ADD SLOAD PUSH1 0x0 SWAP2 PUSH2 0x3453 SWAP2 PUSH1 0x1 PUSH1 0x28 SHL SWAP1 SWAP2 DIV PUSH1 0x1 PUSH1 0x1 PUSH1 0x58 SHL SUB AND SWAP1 PUSH2 0x344D SWAP1 PUSH1 0x1 PUSH1 0x1 PUSH1 0x50 SHL SUB PUSH1 0x1 PUSH1 0x50 SHL DUP3 DIV DUP2 AND SWAP2 AND PUSH2 0xFF3 JUMP JUMPDEST SWAP1 PUSH2 0xFF3 JUMP JUMPDEST PUSH1 0x1 DUP4 ADD SLOAD PUSH1 0x2 DUP5 ADD SLOAD SWAP2 SWAP3 POP PUSH1 0x0 SWAP2 PUSH2 0x348D SWAP2 PUSH1 0x1 PUSH1 0x1 PUSH1 0x58 SHL SUB AND SWAP1 PUSH2 0x344D SWAP1 PUSH1 0x1 PUSH1 0x1 PUSH1 0x50 SHL SUB PUSH1 0x1 PUSH1 0xA0 SHL DUP3 DIV DUP2 AND SWAP2 AND PUSH2 0xFF3 JUMP JUMPDEST DUP4 SLOAD SWAP1 SWAP2 POP PUSH1 0x0 SWAP1 PUSH2 0x34C4 SWAP1 PUSH1 0x1 PUSH1 0x1 PUSH1 0x1 PUSH1 0x58 SHL SUB PUSH1 0x1 PUSH1 0x80 SHL SWAP1 SWAP3 DIV DUP3 AND ADD AND PUSH15 0xC097CE7BC90715B34B9F1000000000 PUSH2 0xFF3 JUMP JUMPDEST SWAP1 POP DUP1 PUSH2 0x34D1 DUP5 DUP5 PUSH2 0x3A07 JUMP JUMPDEST SGT ISZERO PUSH2 0x996 JUMPI PUSH1 0x0 DUP1 REVERT JUMPDEST PUSH1 0x0 DUP1 PUSH2 0x9AA PUSH1 0x1F PUSH2 0x1B73 JUMP JUMPDEST PUSH1 0x0 DUP1 PUSH1 0x0 DUP1 PUSH1 0x0 DUP6 PUSH1 0x20 ADD MLOAD GT ISZERO PUSH2 0x3536 JUMPI PUSH2 0x3533 PUSH2 0x351A DUP7 PUSH1 0xC0 ADD MLOAD DUP8 PUSH1 0x20 ADD MLOAD PUSH2 0x25B8 SWAP1 SWAP2 SWAP1 PUSH4 0xFFFFFFFF AND JUMP JUMPDEST PUSH1 0xE0 DUP8 ADD MLOAD PUSH1 0x40 DUP9 ADD MLOAD PUSH2 0x352D SWAP2 PUSH2 0x25B8 JUMP JUMPDEST SWAP1 PUSH2 0x3B63 JUMP JUMPDEST SWAP1 POP JUMPDEST PUSH1 0x0 PUSH2 0x3541 DUP8 PUSH2 0x3B76 JUMP JUMPDEST SWAP1 POP PUSH2 0x354D DUP2 DUP4 PUSH2 0x3BA9 JUMP JUMPDEST SWAP5 POP DUP2 ISZERO PUSH2 0x3564 JUMPI PUSH2 0x3561 DUP2 DUP7 PUSH1 0x1 PUSH2 0x3C62 JUMP JUMPDEST SWAP4 POP JUMPDEST PUSH1 0x20 DUP7 ADD MLOAD ISZERO PUSH2 0x32D4 JUMPI PUSH2 0x3578 DUP6 DUP4 PUSH2 0x3CD3 JUMP JUMPDEST SWAP3 POP POP POP SWAP3 POP SWAP3 POP SWAP3 JUMP JUMPDEST PUSH1 0x0 DUP1 PUSH2 0x358E PUSH2 0x25DF JUMP JUMPDEST PUSH1 0x1 PUSH1 0x1 PUSH1 0xA0 SHL SUB DUP6 AND PUSH1 0x0 SWAP1 DUP2 MSTORE PUSH1 0x20 DUP3 DUP2 MSTORE PUSH1 0x40 DUP1 DUP4 KECCAK256 PUSH2 0xFFFF DUP9 AND DUP5 MSTORE SWAP1 SWAP2 MSTORE DUP2 KECCAK256 DUP1 SLOAD PUSH1 0x1 PUSH1 0xA8 SHL SWAP1 DIV PUSH1 0xA SWAP1 DUP2 SIGNEXTEND SWAP1 SIGNEXTEND SWAP5 POP SWAP2 SWAP3 POP DUP4 SLT ISZERO PUSH2 0x35D4 JUMPI PUSH1 0x0 DUP1 REVERT JUMPDEST POP POP SWAP3 SWAP2 POP POP JUMP JUMPDEST PUSH1 0x0 DUP2 SLT ISZERO PUSH2 0x35EA JUMPI PUSH1 0x0 DUP1 REVERT JUMPDEST PUSH1 0x0 PUSH2 0x35F4 PUSH2 0x25DF JUMP JUMPDEST PUSH1 0x1 PUSH1 0x1 PUSH1 0xA0 SHL SUB DUP6 AND PUSH1 0x0 SWAP1 DUP2 MSTORE PUSH1 0x20 DUP3 DUP2 MSTORE PUSH1 0x40 DUP1 DUP4 KECCAK256 PUSH2 0xFFFF DUP9 AND DUP5 MSTORE SWAP1 SWAP2 MSTORE SWAP1 KECCAK256 SWAP1 SWAP2 POP PUSH2 0x3625 DUP4 PUSH2 0x2B0A JUMP JUMPDEST DUP2 SLOAD PUSH1 0xA SWAP2 SWAP1 SWAP2 SIGNEXTEND PUSH1 0x1 PUSH1 0x1 PUSH1 0x58 SHL SUB AND PUSH1 0x1 PUSH1 0xA8 SHL MUL PUSH1 0x1 PUSH1 0x1 PUSH1 0xA8 SHL SUB SWAP1 SWAP2 AND OR SWAP1 SSTORE POP POP POP POP JUMP JUMPDEST PUSH1 0x0 PUSH1 0x3 DUP4 PUSH1 0x60 ADD MLOAD PUSH1 0x5 DUP2 GT ISZERO PUSH2 0x3664 JUMPI INVALID JUMPDEST EQ ISZERO PUSH2 0x367B JUMPI POP PUSH1 0x1 PUSH1 0x1 PUSH1 0xA0 SHL SUB DUP2 AND BALANCE PUSH2 0x9AA JUMP JUMPDEST DUP3 MLOAD PUSH1 0x40 MLOAD PUSH4 0x70A08231 PUSH1 0xE0 SHL DUP2 MSTORE PUSH1 0x1 PUSH1 0x1 PUSH1 0xA0 SHL SUB SWAP1 SWAP2 AND SWAP1 PUSH4 0x70A08231 SWAP1 PUSH2 0x36AA SWAP1 DUP6 SWAP1 PUSH1 0x4 ADD PUSH2 0x4872 JUMP JUMPDEST PUSH1 0x20 PUSH1 0x40 MLOAD DUP1 DUP4 SUB DUP2 DUP7 DUP1 EXTCODESIZE ISZERO DUP1 ISZERO PUSH2 0x36C2 JUMPI PUSH1 0x0 DUP1 REVERT JUMPDEST POP GAS STATICCALL ISZERO DUP1 ISZERO PUSH2 0x36D6 JUMPI RETURNDATASIZE PUSH1 0x0 DUP1 RETURNDATACOPY RETURNDATASIZE PUSH1 0x0 REVERT JUMPDEST POP POP POP POP PUSH1 0x40 MLOAD RETURNDATASIZE PUSH1 0x1F NOT PUSH1 0x1F DUP3 ADD AND DUP3 ADD DUP1 PUSH1 0x40 MSTORE POP DUP2 ADD SWAP1 PUSH2 0x2613 SWAP2 SWAP1 PUSH2 0x47DC JUMP JUMPDEST PUSH1 0x0 DUP1 PUSH1 0x0 DUP7 PUSH1 0x1 PUSH1 0x1 PUSH1 0xA0 SHL SUB AND DUP7 DUP7 PUSH1 0x40 MLOAD DUP1 DUP3 DUP1 MLOAD SWAP1 PUSH1 0x20 ADD SWAP1 DUP1 DUP4 DUP4 JUMPDEST PUSH1 0x20 DUP4 LT PUSH2 0x373A JUMPI DUP1 MLOAD DUP3 MSTORE PUSH1 0x1F NOT SWAP1 SWAP3 ADD SWAP2 PUSH1 0x20 SWAP2 DUP3 ADD SWAP2 ADD PUSH2 0x371B JUMP JUMPDEST PUSH1 0x1 DUP4 PUSH1 0x20 SUB PUSH2 0x100 EXP SUB DUP1 NOT DUP3 MLOAD AND DUP2 DUP5 MLOAD AND DUP1 DUP3 OR DUP6 MSTORE POP POP POP POP POP POP SWAP1 POP ADD SWAP2 POP POP PUSH1 0x0 PUSH1 0x40 MLOAD DUP1 DUP4 SUB DUP2 DUP6 DUP8 GAS CALL SWAP3 POP POP POP RETURNDATASIZE DUP1 PUSH1 0x0 DUP2 EQ PUSH2 0x379C JUMPI PUSH1 0x40 MLOAD SWAP2 POP PUSH1 0x1F NOT PUSH1 0x3F RETURNDATASIZE ADD AND DUP3 ADD PUSH1 0x40 MSTORE RETURNDATASIZE DUP3 MSTORE RETURNDATASIZE PUSH1 0x0 PUSH1 0x20 DUP5 ADD RETURNDATACOPY PUSH2 0x37A1 JUMP JUMPDEST PUSH1 0x60 SWAP2 POP JUMPDEST POP SWAP2 POP SWAP2 POP DUP4 PUSH2 0x3844 JUMPI DUP2 PUSH2 0x37B5 DUP3 PUSH2 0x3CEC JUMP JUMPDEST SWAP1 PUSH2 0x383E JUMPI PUSH1 0x40 MLOAD PUSH3 0x461BCD PUSH1 0xE5 SHL DUP2 MSTORE PUSH1 0x4 ADD DUP1 DUP1 PUSH1 0x20 ADD DUP3 DUP2 SUB DUP3 MSTORE DUP4 DUP2 DUP2 MLOAD DUP2 MSTORE PUSH1 0x20 ADD SWAP2 POP DUP1 MLOAD SWAP1 PUSH1 0x20 ADD SWAP1 DUP1 DUP4 DUP4 PUSH1 0x0 JUMPDEST DUP4 DUP2 LT ISZERO PUSH2 0x3803 JUMPI DUP2 DUP2 ADD MLOAD DUP4 DUP3 ADD MSTORE PUSH1 0x20 ADD PUSH2 0x37EB JUMP JUMPDEST POP POP POP POP SWAP1 POP SWAP1 DUP2 ADD SWAP1 PUSH1 0x1F AND DUP1 ISZERO PUSH2 0x3830 JUMPI DUP1 DUP3 SUB DUP1 MLOAD PUSH1 0x1 DUP4 PUSH1 0x20 SUB PUSH2 0x100 EXP SUB NOT AND DUP2 MSTORE PUSH1 0x20 ADD SWAP2 POP JUMPDEST POP SWAP3 POP POP POP PUSH1 0x40 MLOAD DUP1 SWAP2 SUB SWAP1 REVERT JUMPDEST POP PUSH2 0x1E39 JUMP JUMPDEST DUP7 PUSH1 0x1 PUSH1 0x1 PUSH1 0xA0 SHL SUB AND PUSH32 0x3C7E398C5E91088CAE639370E35B25EA669D81FBDF0DEF5388E73661BC34E08E DUP8 DUP8 PUSH2 0x387A DUP6 PUSH2 0x3CEC JUMP JUMPDEST PUSH1 0x40 MLOAD DUP1 DUP5 DUP2 MSTORE PUSH1 0x20 ADD DUP1 PUSH1 0x20 ADD DUP1 PUSH1 0x20 ADD DUP4 DUP2 SUB DUP4 MSTORE DUP6 DUP2 DUP2 MLOAD DUP2 MSTORE PUSH1 0x20 ADD SWAP2 POP DUP1 MLOAD SWAP1 PUSH1 0x20 ADD SWAP1 DUP1 DUP4 DUP4 PUSH1 0x0 JUMPDEST DUP4 DUP2 LT ISZERO PUSH2 0x38C1 JUMPI DUP2 DUP2 ADD MLOAD DUP4 DUP3 ADD MSTORE PUSH1 0x20 ADD PUSH2 0x38A9 JUMP JUMPDEST POP POP POP POP SWAP1 POP SWAP1 DUP2 ADD SWAP1 PUSH1 0x1F AND DUP1 ISZERO PUSH2 0x38EE JUMPI DUP1 DUP3 SUB DUP1 MLOAD PUSH1 0x1 DUP4 PUSH1 0x20 SUB PUSH2 0x100 EXP SUB NOT AND DUP2 MSTORE PUSH1 0x20 ADD SWAP2 POP JUMPDEST POP DUP4 DUP2 SUB DUP3 MSTORE DUP5 MLOAD DUP2 MSTORE DUP5 MLOAD PUSH1 0x20 SWAP2 DUP3 ADD SWAP2 DUP7 ADD SWAP1 DUP1 DUP4 DUP4 PUSH1 0x0 JUMPDEST DUP4 DUP2 LT ISZERO PUSH2 0x3921 JUMPI DUP2 DUP2 ADD MLOAD DUP4 DUP3 ADD MSTORE PUSH1 0x20 ADD PUSH2 0x3909 JUMP JUMPDEST POP POP POP POP SWAP1 POP SWAP1 DUP2 ADD SWAP1 PUSH1 0x1F AND DUP1 ISZERO PUSH2 0x394E JUMPI DUP1 DUP3 SUB DUP1 MLOAD PUSH1 0x1 DUP4 PUSH1 0x20 SUB PUSH2 0x100 EXP SUB NOT AND DUP2 MSTORE PUSH1 0x20 ADD SWAP2 POP JUMPDEST POP SWAP6 POP POP POP POP POP POP PUSH1 0x40 MLOAD DUP1 SWAP2 SUB SWAP1 LOG2 POP SWAP6 SWAP5 POP POP POP POP POP JUMP JUMPDEST PUSH1 0x0 PUSH2 0x3972 PUSH2 0x3017 JUMP JUMPDEST PUSH1 0x1 PUSH1 0x1 PUSH1 0xA0 SHL SUB DUP6 AND PUSH1 0x0 SWAP1 DUP2 MSTORE PUSH1 0x20 DUP3 SWAP1 MSTORE PUSH1 0x40 SWAP1 KECCAK256 SLOAD SWAP1 SWAP2 POP DUP4 DUP2 GT ISZERO PUSH2 0x399B JUMPI PUSH1 0x0 DUP1 REVERT JUMPDEST PUSH1 0x0 PUSH2 0x39B2 PUSH2 0x39A9 DUP7 PUSH2 0xC24 JUMP JUMPDEST PUSH2 0x3338 DUP7 PUSH2 0xC24 JUMP JUMPDEST SWAP1 POP PUSH2 0x39C1 PUSH2 0x385 DUP4 DUP4 PUSH2 0x132F JUMP JUMPDEST PUSH1 0x1 PUSH1 0x1 PUSH1 0xA0 SHL SUB SWAP1 SWAP7 AND PUSH1 0x0 SWAP1 DUP2 MSTORE PUSH1 0x20 SWAP4 SWAP1 SWAP4 MSTORE POP POP PUSH1 0x40 SWAP1 KECCAK256 SWAP3 SWAP1 SWAP3 SSTORE POP POP JUMP JUMPDEST PUSH1 0x0 PUSH2 0x9C3 DUP3 PUSH2 0x29F0 PUSH4 0x1DA9C00 DUP2 DUP9 PUSH2 0x29EA DUP10 PUSH8 0xDE0B6B3A7640000 PUSH2 0x25B8 JUMP JUMPDEST DUP1 DUP3 SUB DUP3 DUP2 SGT ISZERO PUSH1 0x0 DUP4 SLT ISZERO EQ PUSH2 0x9AA JUMPI PUSH1 0x0 DUP1 REVERT JUMPDEST PUSH1 0x0 PUSH2 0x3A27 PUSH2 0x1E43 JUMP JUMPDEST PUSH2 0xFFFF DUP6 AND PUSH1 0x0 SWAP1 DUP2 MSTORE PUSH1 0x20 SWAP2 SWAP1 SWAP2 MSTORE PUSH1 0x40 SWAP1 KECCAK256 DUP1 SLOAD SWAP1 SWAP2 POP PUSH5 0xFFFFFFFFFF AND TIMESTAMP EQ PUSH2 0x3A52 JUMPI PUSH1 0x0 DUP1 REVERT JUMPDEST DUP1 SLOAD PUSH1 0x1 PUSH1 0xF8 SHL SWAP1 DIV PUSH1 0xFF AND PUSH2 0x3A67 JUMPI PUSH1 0x0 DUP1 REVERT JUMPDEST PUSH1 0x1 DUP2 ADD SLOAD PUSH1 0x0 SWAP1 PUSH2 0x3A82 SWAP1 PUSH1 0x1 PUSH1 0x1 PUSH1 0x58 SHL SUB AND DUP6 PUSH2 0x132F JUMP JUMPDEST DUP3 SLOAD SWAP1 SWAP2 POP PUSH1 0x0 SWAP1 PUSH2 0x3AA4 SWAP1 PUSH1 0x1 PUSH1 0x28 SHL SWAP1 DIV PUSH1 0x1 PUSH1 0x1 PUSH1 0x58 SHL SUB AND DUP6 PUSH2 0x132F JUMP JUMPDEST SWAP1 POP DUP2 PUSH1 0x9 NOT SLT DUP1 ISZERO PUSH2 0x3AB7 JUMPI POP PUSH1 0x0 DUP3 SLT JUMPDEST ISZERO PUSH2 0x3AC1 JUMPI PUSH1 0x0 SWAP2 POP JUMPDEST DUP1 PUSH1 0x9 NOT SLT DUP1 ISZERO PUSH2 0x3AD2 JUMPI POP PUSH1 0x0 DUP2 SLT JUMPDEST ISZERO PUSH2 0x3ADB JUMPI POP PUSH1 0x0 JUMPDEST PUSH2 0x3AE7 PUSH2 0x2D24 DUP4 PUSH2 0xAE8 JUMP JUMPDEST PUSH1 0x1 DUP5 ADD DUP1 SLOAD PUSH11 0xFFFFFFFFFFFFFFFFFFFFFF NOT AND PUSH1 0x1 PUSH1 0x1 PUSH1 0x58 SHL SUB SWAP3 SWAP1 SWAP3 AND SWAP2 SWAP1 SWAP2 OR SWAP1 SSTORE PUSH2 0x3B19 PUSH2 0x2D24 DUP3 PUSH2 0xAE8 JUMP JUMPDEST DUP4 SLOAD PUSH1 0x1 PUSH1 0x1 PUSH1 0x58 SHL SUB SWAP2 SWAP1 SWAP2 AND PUSH1 0x1 PUSH1 0x28 SHL MUL PUSH16 0xFFFFFFFFFFFFFFFFFFFFFF0000000000 NOT SWAP1 SWAP2 AND OR DUP4 SSTORE PUSH2 0x3B51 DUP8 DUP8 DUP7 DUP9 PUSH2 0x3DF3 JUMP JUMPDEST PUSH2 0x3B5A DUP4 PUSH2 0x3411 JUMP JUMPDEST POP POP POP POP POP POP POP JUMP JUMPDEST PUSH1 0x0 PUSH2 0xEDE PUSH2 0x2F93 DUP5 PUSH4 0x3B9ACA00 PUSH2 0x25B8 JUMP JUMPDEST PUSH2 0x3B7E PUSH2 0x41BF JUMP JUMPDEST PUSH1 0x0 PUSH2 0x3B88 PUSH2 0x3F07 JUMP JUMPDEST PUSH2 0xFFFF DUP5 AND PUSH1 0x0 SWAP1 DUP2 MSTORE PUSH1 0x20 SWAP2 SWAP1 SWAP2 MSTORE PUSH1 0x40 DUP2 KECCAK256 SLOAD SWAP2 POP PUSH2 0x8AD SWAP1 DUP3 PUSH2 0x3F14 JUMP JUMPDEST PUSH1 0x0 DUP1 DUP4 PUSH1 0x80 ADD MLOAD GT PUSH2 0x3BBB JUMPI PUSH1 0x0 DUP1 REVERT JUMPDEST PUSH4 0x3B9ACA00 DUP3 GT ISZERO PUSH2 0x3BCC JUMPI PUSH1 0x0 DUP1 REVERT JUMPDEST DUP3 MLOAD DUP3 GT PUSH2 0x3BEB JUMPI DUP3 MLOAD PUSH1 0x40 DUP5 ADD MLOAD PUSH2 0x2613 SWAP2 SWAP1 PUSH2 0x29F0 SWAP1 DUP6 SWAP1 PUSH2 0x25B8 JUMP JUMPDEST DUP3 PUSH1 0x20 ADD MLOAD DUP3 GT PUSH2 0x3C29 JUMPI PUSH1 0x40 DUP4 ADD MLOAD DUP4 MLOAD PUSH1 0x20 DUP6 ADD MLOAD PUSH1 0x60 DUP7 ADD MLOAD PUSH2 0x2613 SWAP4 SWAP3 PUSH2 0x3C23 SWAP3 DUP2 SWAP1 SUB SWAP2 PUSH2 0x29F0 SWAP2 DUP9 SUB SWAP1 DUP6 SWAP1 SUB PUSH2 0x25B8 JUMP JUMPDEST SWAP1 PUSH2 0x2F6A JUMP JUMPDEST PUSH2 0xEDE DUP4 PUSH1 0x60 ADD MLOAD PUSH2 0x3C23 DUP6 PUSH1 0x20 ADD MLOAD PUSH4 0x3B9ACA00 SUB PUSH2 0x29F0 DUP8 PUSH1 0x60 ADD MLOAD DUP9 PUSH1 0x80 ADD MLOAD SUB DUP9 PUSH1 0x20 ADD MLOAD DUP9 SUB PUSH2 0x25B8 SWAP1 SWAP2 SWAP1 PUSH4 0xFFFFFFFF AND JUMP JUMPDEST PUSH1 0x0 DUP1 PUSH2 0x3C81 PUSH1 0x64 PUSH2 0x29F0 DUP8 PUSH1 0xE0 ADD MLOAD DUP8 PUSH2 0x25B8 SWAP1 SWAP2 SWAP1 PUSH4 0xFFFFFFFF AND JUMP JUMPDEST SWAP1 POP DUP5 PUSH1 0xA0 ADD MLOAD DUP2 LT ISZERO PUSH2 0x3C96 JUMPI POP PUSH1 0xA0 DUP5 ADD MLOAD JUMPDEST DUP5 PUSH1 0xC0 ADD MLOAD DUP2 GT ISZERO PUSH2 0x3CA9 JUMPI POP PUSH1 0xC0 DUP5 ADD MLOAD JUMPDEST DUP3 ISZERO PUSH2 0x3CB9 JUMPI PUSH2 0xED9 DUP5 DUP3 PUSH2 0x2F6A JUMP JUMPDEST DUP4 DUP2 GT PUSH2 0x3CC8 JUMPI DUP1 DUP5 SUB PUSH2 0xED9 JUMP JUMPDEST PUSH1 0x0 SWAP6 SWAP5 POP POP POP POP POP JUMP JUMPDEST PUSH1 0x0 PUSH2 0xEDE PUSH2 0x3CE2 DUP5 DUP5 PUSH2 0x25B8 JUMP JUMPDEST PUSH4 0x3B9ACA00 PUSH2 0x32DE JUMP JUMPDEST PUSH1 0x60 PUSH1 0x44 DUP3 MLOAD LT ISZERO PUSH2 0x3D22 JUMPI POP PUSH1 0x40 DUP1 MLOAD DUP1 DUP3 ADD SWAP1 SWAP2 MSTORE PUSH1 0xD DUP2 MSTORE PUSH13 0x14DA5B195B9D0814995D995C9D PUSH1 0x9A SHL PUSH1 0x20 DUP3 ADD MSTORE PUSH2 0x8B1 JUMP JUMPDEST PUSH1 0x4 DUP3 ADD DUP1 MLOAD SWAP1 SWAP3 PUSH1 0x24 ADD SWAP1 PUSH1 0x20 DUP2 LT ISZERO PUSH2 0x3D3C JUMPI PUSH1 0x0 DUP1 REVERT JUMPDEST DUP2 ADD SWAP1 DUP1 DUP1 MLOAD PUSH1 0x40 MLOAD SWAP4 SWAP3 SWAP2 SWAP1 DUP5 PUSH5 0x100000000 DUP3 GT ISZERO PUSH2 0x3D5C JUMPI PUSH1 0x0 DUP1 REVERT JUMPDEST SWAP1 DUP4 ADD SWAP1 PUSH1 0x20 DUP3 ADD DUP6 DUP2 GT ISZERO PUSH2 0x3D71 JUMPI PUSH1 0x0 DUP1 REVERT JUMPDEST DUP3 MLOAD PUSH5 0x100000000 DUP2 GT DUP3 DUP3 ADD DUP9 LT OR ISZERO PUSH2 0x3D8B JUMPI PUSH1 0x0 DUP1 REVERT JUMPDEST DUP3 MSTORE POP DUP2 MLOAD PUSH1 0x20 SWAP2 DUP3 ADD SWAP3 SWAP1 SWAP2 ADD SWAP1 DUP1 DUP4 DUP4 PUSH1 0x0 JUMPDEST DUP4 DUP2 LT ISZERO PUSH2 0x3DB8 JUMPI DUP2 DUP2 ADD MLOAD DUP4 DUP3 ADD MSTORE PUSH1 0x20 ADD PUSH2 0x3DA0 JUMP JUMPDEST POP POP POP POP SWAP1 POP SWAP1 DUP2 ADD SWAP1 PUSH1 0x1F AND DUP1 ISZERO PUSH2 0x3DE5 JUMPI DUP1 DUP3 SUB DUP1 MLOAD PUSH1 0x1 DUP4 PUSH1 0x20 SUB PUSH2 0x100 EXP SUB NOT AND DUP2 MSTORE PUSH1 0x20 ADD SWAP2 POP JUMPDEST POP PUSH1 0x40 MSTORE POP POP POP SWAP1 POP SWAP2 SWAP1 POP JUMP JUMPDEST PUSH1 0x0 PUSH2 0x3DFD PUSH2 0x3404 JUMP JUMPDEST PUSH2 0xFFFF DUP6 AND PUSH1 0x0 SWAP1 DUP2 MSTORE PUSH1 0x20 SWAP2 SWAP1 SWAP2 MSTORE PUSH1 0x40 DUP2 KECCAK256 SLOAD PUSH1 0x1 PUSH1 0x1 PUSH1 0xA0 SHL SUB AND SWAP2 POP PUSH2 0x3E25 PUSH2 0x4033 JUMP JUMPDEST PUSH2 0xFFFF DUP7 AND PUSH1 0x0 SWAP1 DUP2 MSTORE PUSH1 0x20 SWAP2 SWAP1 SWAP2 MSTORE PUSH1 0x40 SWAP1 DUP2 SWAP1 KECCAK256 SLOAD SWAP1 MLOAD PUSH4 0xAD1C095D PUSH1 0xE0 SHL DUP2 MSTORE PUSH1 0x1 PUSH1 0x1 PUSH1 0xA0 SHL SUB SWAP1 SWAP2 AND SWAP2 POP DUP2 SWAP1 PUSH4 0xAD1C095D SWAP1 PUSH2 0x3E6D SWAP1 DUP10 SWAP1 DUP8 SWAP1 PUSH1 0x4 ADD PUSH2 0x4965 JUMP JUMPDEST PUSH1 0x0 PUSH1 0x40 MLOAD DUP1 DUP4 SUB DUP2 PUSH1 0x0 DUP8 DUP1 EXTCODESIZE ISZERO DUP1 ISZERO PUSH2 0x3E87 JUMPI PUSH1 0x0 DUP1 REVERT JUMPDEST POP GAS CALL ISZERO DUP1 ISZERO PUSH2 0x3E9B JUMPI RETURNDATASIZE PUSH1 0x0 DUP1 RETURNDATACOPY RETURNDATASIZE PUSH1 0x0 REVERT JUMPDEST POP POP PUSH1 0x40 MLOAD PUSH4 0xAD1C095D PUSH1 0xE0 SHL DUP2 MSTORE PUSH1 0x1 PUSH1 0x1 PUSH1 0xA0 SHL SUB DUP6 AND SWAP3 POP PUSH4 0xAD1C095D SWAP2 POP PUSH2 0x3ECD SWAP1 DUP10 SWAP1 DUP9 SWAP1 PUSH1 0x4 ADD PUSH2 0x4965 JUMP JUMPDEST PUSH1 0x0 PUSH1 0x40 MLOAD DUP1 DUP4 SUB DUP2 PUSH1 0x0 DUP8 DUP1 EXTCODESIZE ISZERO DUP1 ISZERO PUSH2 0x3EE7 JUMPI PUSH1 0x0 DUP1 REVERT JUMPDEST POP GAS CALL ISZERO DUP1 ISZERO PUSH2 0x3EFB JUMPI RETURNDATASIZE PUSH1 0x0 DUP1 RETURNDATACOPY RETURNDATASIZE PUSH1 0x0 REVERT JUMPDEST POP POP POP POP POP POP POP POP POP POP JUMP JUMPDEST PUSH1 0x0 DUP1 PUSH2 0x9AA PUSH1 0x1B PUSH2 0x1B73 JUMP JUMPDEST PUSH2 0x3F1C PUSH2 0x41BF JUMP JUMPDEST PUSH1 0x64 PUSH4 0x3B9ACA00 DUP4 PUSH1 0xFF DUP7 AND PUSH1 0x20 DUP2 LT PUSH2 0x3F32 JUMPI INVALID JUMPDEST BYTE MUL DUP2 PUSH2 0x3F3B JUMPI INVALID JUMPDEST DIV DUP2 MSTORE PUSH1 0x64 PUSH4 0x3B9ACA00 DUP4 PUSH1 0xFF DUP7 AND PUSH1 0x1 ADD PUSH1 0x20 DUP2 LT PUSH2 0x3F57 JUMPI INVALID JUMPDEST BYTE MUL DUP2 PUSH2 0x3F60 JUMPI INVALID JUMPDEST DIV DUP2 PUSH1 0x20 ADD DUP2 DUP2 MSTORE POP POP PUSH2 0x3F85 DUP3 PUSH1 0x2 DUP6 PUSH1 0xFF AND ADD PUSH1 0x20 DUP2 LT PUSH2 0x3F7F JUMPI INVALID JUMPDEST BYTE PUSH2 0x4040 JUMP JUMPDEST PUSH1 0x80 DUP3 ADD DUP2 SWAP1 MSTORE PUSH2 0x100 SWAP1 DUP4 PUSH1 0xFF DUP7 AND PUSH1 0x3 ADD PUSH1 0x20 DUP2 LT PUSH2 0x3FA2 JUMPI INVALID JUMPDEST BYTE MUL DUP2 PUSH2 0x3FAB JUMPI INVALID JUMPDEST DIV PUSH1 0x40 DUP3 ADD MSTORE PUSH1 0x80 DUP2 ADD MLOAD PUSH2 0x100 SWAP1 DUP4 PUSH1 0xFF DUP7 AND PUSH1 0x4 ADD PUSH1 0x20 DUP2 LT PUSH2 0x3FCC JUMPI INVALID JUMPDEST BYTE MUL DUP2 PUSH2 0x3FD5 JUMPI INVALID JUMPDEST DIV PUSH1 0x60 DUP3 ADD MSTORE PUSH3 0x7A120 DUP3 PUSH1 0xFF DUP6 AND PUSH1 0x5 ADD PUSH1 0x20 DUP2 LT PUSH2 0x3FF1 JUMPI INVALID JUMPDEST BYTE MUL PUSH1 0xA0 DUP3 ADD MSTORE PUSH3 0x2625A0 DUP3 PUSH1 0xFF DUP6 AND PUSH1 0x6 ADD PUSH1 0x20 DUP2 LT PUSH2 0x400E JUMPI INVALID JUMPDEST BYTE MUL PUSH1 0xC0 DUP3 ADD MSTORE DUP2 PUSH1 0xFF DUP5 AND PUSH1 0x7 ADD PUSH1 0x20 DUP2 LT PUSH2 0x4027 JUMPI INVALID JUMPDEST BYTE PUSH1 0xE0 DUP3 ADD MSTORE SWAP3 SWAP2 POP POP JUMP JUMPDEST PUSH1 0x0 DUP1 PUSH2 0x9AA PUSH1 0x22 PUSH2 0x1B73 JUMP JUMPDEST PUSH1 0x0 DUP2 PUSH1 0xFF AND PUSH1 0x96 LT PUSH2 0x405B JUMPI PUSH1 0xFF DUP3 AND PUSH3 0x2625A0 MUL PUSH2 0x9AA JUMP JUMPDEST POP PUSH1 0x95 NOT PUSH1 0xFF SWAP2 SWAP1 SWAP2 AND ADD PUSH3 0xE4E1C0 MUL PUSH4 0x165A0BC0 ADD SWAP1 JUMP JUMPDEST PUSH1 0x40 MLOAD DUP1 PUSH2 0x140 ADD PUSH1 0x40 MSTORE DUP1 PUSH1 0x0 PUSH2 0xFFFF AND DUP2 MSTORE PUSH1 0x20 ADD PUSH1 0x0 DUP2 MSTORE PUSH1 0x20 ADD PUSH1 0x0 DUP2 MSTORE PUSH1 0x20 ADD PUSH1 0x0 DUP2 MSTORE PUSH1 0x20 ADD PUSH1 0x0 DUP2 MSTORE PUSH1 0x20 ADD PUSH1 0x0 DUP2 MSTORE PUSH1 0x20 ADD PUSH1 0x0 DUP2 MSTORE PUSH1 0x20 ADD PUSH1 0x0 DUP2 MSTORE PUSH1 0x20 ADD PUSH1 0x0 DUP2 MSTORE PUSH1 0x20 ADD PUSH2 0x40CB PUSH2 0x4105 JUMP JUMPDEST SWAP1 MSTORE SWAP1 JUMP JUMPDEST PUSH1 0x40 DUP1 MLOAD PUSH1 0xC0 DUP2 ADD DUP3 MSTORE PUSH1 0x0 DUP1 DUP3 MSTORE PUSH1 0x20 DUP3 ADD DUP2 SWAP1 MSTORE SWAP2 DUP2 ADD DUP3 SWAP1 MSTORE PUSH1 0x60 DUP2 ADD DUP3 SWAP1 MSTORE PUSH1 0x80 DUP2 ADD DUP3 SWAP1 MSTORE PUSH1 0xA0 DUP2 ADD SWAP2 SWAP1 SWAP2 MSTORE SWAP1 JUMP JUMPDEST PUSH1 0x40 MLOAD DUP1 PUSH1 0x60 ADD PUSH1 0x40 MSTORE DUP1 PUSH1 0x0 DUP2 MSTORE PUSH1 0x20 ADD PUSH1 0x0 DUP2 MSTORE PUSH1 0x20 ADD PUSH1 0x0 DUP2 MSTORE POP SWAP1 JUMP JUMPDEST PUSH1 0x40 DUP1 MLOAD PUSH1 0xA0 DUP2 ADD DUP3 MSTORE PUSH1 0x0 DUP1 DUP3 MSTORE PUSH1 0x20 DUP3 ADD DUP2 SWAP1 MSTORE SWAP2 DUP2 ADD DUP3 SWAP1 MSTORE SWAP1 PUSH1 0x60 DUP3 ADD SWAP1 DUP2 MSTORE PUSH1 0x20 ADD PUSH1 0x0 DUP2 MSTORE POP SWAP1 JUMP JUMPDEST PUSH1 0x40 MLOAD DUP1 PUSH2 0x120 ADD PUSH1 0x40 MSTORE DUP1 PUSH1 0x0 DUP2 MSTORE PUSH1 0x20 ADD PUSH1 0x0 DUP2 MSTORE PUSH1 0x20 ADD PUSH1 0x0 DUP2 MSTORE PUSH1 0x20 ADD PUSH1 0x0 DUP2 MSTORE PUSH1 0x20 ADD PUSH1 0x0 DUP2 MSTORE PUSH1 0x20 ADD PUSH1 0x0 DUP2 MSTORE PUSH1 0x20 ADD PUSH1 0x0 DUP2 MSTORE PUSH1 0x20 ADD PUSH1 0x0 DUP2 MSTORE PUSH1 0x20 ADD PUSH1 0x0 DUP2 MSTORE POP SWAP1 JUMP JUMPDEST PUSH1 0x40 MLOAD DUP1 PUSH1 0x20 ADD PUSH1 0x40 MSTORE DUP1 PUSH1 0x1 SWAP1 PUSH1 0x20 DUP3 MUL DUP1 CALLDATASIZE DUP4 CALLDATACOPY POP SWAP2 SWAP3 SWAP2 POP POP JUMP JUMPDEST PUSH1 0x40 MLOAD DUP1 PUSH2 0x100 ADD PUSH1 0x40 MSTORE DUP1 PUSH1 0x0 DUP2 MSTORE PUSH1 0x20 ADD PUSH1 0x0 DUP2 MSTORE PUSH1 0x20 ADD PUSH1 0x0 DUP2 MSTORE PUSH1 0x20 ADD PUSH1 0x0 DUP2 MSTORE PUSH1 0x20 ADD PUSH1 0x0 DUP2 MSTORE PUSH1 0x20 ADD PUSH1 0x0 DUP2 MSTORE PUSH1 0x20 ADD PUSH1 0x0 DUP2 MSTORE PUSH1 0x20 ADD PUSH1 0x0 DUP2 MSTORE POP SWAP1 JUMP JUMPDEST DUP1 MLOAD PUSH2 0x8B1 DUP2 PUSH2 0x4CA2 JUMP JUMPDEST PUSH1 0x0 DUP3 PUSH1 0x1F DUP4 ADD SLT PUSH2 0x421F JUMPI DUP1 DUP2 REVERT JUMPDEST DUP2 MLOAD PUSH1 0x20 PUSH2 0x4234 PUSH2 0x422F DUP4 PUSH2 0x4C84 JUMP JUMPDEST PUSH2 0x4C60 JUMP JUMPDEST DUP3 DUP2 MSTORE DUP2 DUP2 ADD SWAP1 DUP6 DUP4 ADD DUP4 DUP6 MUL DUP8 ADD DUP5 ADD DUP9 LT ISZERO PUSH2 0x4250 JUMPI DUP6 DUP7 REVERT JUMPDEST DUP6 JUMPDEST DUP6 DUP2 LT ISZERO PUSH2 0x4277 JUMPI DUP2 MLOAD PUSH2 0x4265 DUP2 PUSH2 0x4CA2 JUMP JUMPDEST DUP5 MSTORE SWAP3 DUP5 ADD SWAP3 SWAP1 DUP5 ADD SWAP1 PUSH1 0x1 ADD PUSH2 0x4252 JUMP JUMPDEST POP SWAP1 SWAP8 SWAP7 POP POP POP POP POP POP POP JUMP JUMPDEST PUSH1 0x0 PUSH1 0x1F DUP4 DUP2 DUP5 ADD SLT PUSH2 0x4295 JUMPI DUP2 DUP3 REVERT JUMPDEST DUP3 MLOAD PUSH1 0x20 PUSH2 0x42A5 PUSH2 0x422F DUP4 PUSH2 0x4C84 JUMP JUMPDEST DUP3 DUP2 MSTORE DUP2 DUP2 ADD SWAP1 DUP7 DUP4 ADD DUP7 JUMPDEST DUP6 DUP2 LT ISZERO PUSH2 0x4349 JUMPI DUP2 MLOAD DUP10 ADD DUP11 PUSH1 0x3F DUP3 ADD SLT PUSH2 0x42CB JUMPI DUP9 DUP10 REVERT JUMPDEST DUP6 DUP2 ADD MLOAD PUSH8 0xFFFFFFFFFFFFFFFF DUP2 GT ISZERO PUSH2 0x42E1 JUMPI INVALID JUMPDEST PUSH2 0x42F2 DUP2 DUP11 ADD PUSH1 0x1F NOT AND DUP9 ADD PUSH2 0x4C60 JUMP JUMPDEST DUP2 DUP2 MSTORE DUP13 PUSH1 0x40 DUP4 DUP6 ADD ADD GT ISZERO PUSH2 0x4306 JUMPI DUP11 DUP12 REVERT JUMPDEST DUP11 JUMPDEST DUP3 DUP2 LT ISZERO PUSH2 0x4324 JUMPI DUP4 DUP2 ADD PUSH1 0x40 ADD MLOAD DUP3 DUP3 ADD DUP11 ADD MSTORE DUP9 ADD PUSH2 0x4308 JUMP JUMPDEST DUP3 DUP2 GT ISZERO PUSH2 0x4334 JUMPI DUP12 DUP10 DUP5 DUP5 ADD ADD MSTORE JUMPDEST POP DUP7 MSTORE POP POP SWAP3 DUP5 ADD SWAP3 SWAP1 DUP5 ADD SWAP1 PUSH1 0x1 ADD PUSH2 0x42B1 JUMP JUMPDEST POP SWAP1 SWAP9 SWAP8 POP POP POP POP POP POP POP POP JUMP JUMPDEST DUP1 MLOAD PUSH2 0x8B1 DUP2 PUSH2 0x4CBA JUMP JUMPDEST DUP1 MLOAD PUSH1 0x1 PUSH1 0x1 PUSH1 0x70 SHL SUB NOT DUP2 AND DUP2 EQ PUSH2 0x8B1 JUMPI PUSH1 0x0 DUP1 REVERT JUMPDEST DUP1 MLOAD PUSH1 0x1 PUSH1 0x1 PUSH1 0xF8 SHL SUB NOT DUP2 AND DUP2 EQ PUSH2 0x8B1 JUMPI PUSH1 0x0 DUP1 REVERT JUMPDEST DUP1 MLOAD PUSH1 0x4 DUP2 LT PUSH2 0x8B1 JUMPI PUSH1 0x0 DUP1 REVERT JUMPDEST DUP1 MLOAD PUSH2 0x8B1 DUP2 PUSH2 0x4CC8 JUMP JUMPDEST DUP1 MLOAD PUSH1 0xFF DUP2 AND DUP2 EQ PUSH2 0x8B1 JUMPI PUSH1 0x0 DUP1 REVERT JUMPDEST PUSH1 0x0 PUSH1 0x20 DUP3 DUP5 SUB SLT ISZERO PUSH2 0x43CE JUMPI DUP1 DUP2 REVERT JUMPDEST DUP2 CALLDATALOAD PUSH2 0xEDE DUP2 PUSH2 0x4CA2 JUMP JUMPDEST PUSH1 0x0 DUP1 PUSH1 0x0 PUSH1 0x60 DUP5 DUP7 SUB SLT ISZERO PUSH2 0x43ED JUMPI DUP2 DUP3 REVERT JUMPDEST DUP4 CALLDATALOAD PUSH2 0x43F8 DUP2 PUSH2 0x4CA2 JUMP JUMPDEST SWAP3 POP PUSH1 0x20 DUP5 ADD CALLDATALOAD PUSH2 0x4408 DUP2 PUSH2 0x4CC8 JUMP JUMPDEST SWAP3 SWAP6 SWAP3 SWAP5 POP POP POP PUSH1 0x40 SWAP2 SWAP1 SWAP2 ADD CALLDATALOAD SWAP1 JUMP JUMPDEST PUSH1 0x0 DUP1 PUSH1 0x0 DUP1 PUSH1 0x0 PUSH1 0xA0 DUP7 DUP9 SUB SLT ISZERO PUSH2 0x4430 JUMPI DUP3 DUP4 REVERT JUMPDEST DUP6 CALLDATALOAD PUSH2 0x443B DUP2 PUSH2 0x4CA2 JUMP JUMPDEST SWAP5 POP PUSH1 0x20 DUP7 ADD CALLDATALOAD PUSH2 0x444B DUP2 PUSH2 0x4CC8 JUMP JUMPDEST SWAP4 POP PUSH1 0x40 DUP7 ADD CALLDATALOAD PUSH1 0x1 PUSH1 0x1 PUSH1 0x60 SHL SUB DUP2 AND DUP2 EQ PUSH2 0x4466 JUMPI DUP4 DUP5 REVERT JUMPDEST SWAP3 POP PUSH1 0x60 DUP7 ADD CALLDATALOAD PUSH2 0x4476 DUP2 PUSH2 0x4CBA JUMP JUMPDEST SWAP2 POP PUSH1 0x80 DUP7 ADD CALLDATALOAD PUSH2 0x4486 DUP2 PUSH2 0x4CBA JUMP JUMPDEST DUP1 SWAP2 POP POP SWAP3 SWAP6 POP SWAP3 SWAP6 SWAP1 SWAP4 POP JUMP JUMPDEST PUSH1 0x0 PUSH1 0x20 DUP1 DUP4 DUP6 SUB SLT ISZERO PUSH2 0x44A6 JUMPI DUP2 DUP3 REVERT JUMPDEST DUP3 MLOAD PUSH8 0xFFFFFFFFFFFFFFFF DUP1 DUP3 GT ISZERO PUSH2 0x44BD JUMPI DUP4 DUP5 REVERT JUMPDEST DUP2 DUP6 ADD SWAP2 POP DUP6 PUSH1 0x1F DUP4 ADD SLT PUSH2 0x44D0 JUMPI DUP4 DUP5 REVERT JUMPDEST DUP2 MLOAD PUSH2 0x44DE PUSH2 0x422F DUP3 PUSH2 0x4C84 JUMP JUMPDEST DUP2 DUP2 MSTORE DUP5 DUP2 ADD SWAP1 DUP5 DUP7 ADD DUP8 JUMPDEST DUP5 DUP2 LT ISZERO PUSH2 0x4593 JUMPI DUP2 MLOAD DUP8 ADD PUSH1 0x80 DUP2 DUP14 SUB PUSH1 0x1F NOT ADD SLT ISZERO PUSH2 0x4509 JUMPI DUP10 DUP11 REVERT JUMPDEST PUSH1 0x40 DUP1 MLOAD PUSH1 0x80 DUP2 ADD DUP2 DUP2 LT DUP11 DUP3 GT OR ISZERO PUSH2 0x451F JUMPI INVALID JUMPDEST DUP3 MSTORE DUP3 DUP12 ADD MLOAD DUP10 DUP2 GT ISZERO PUSH2 0x4531 JUMPI DUP13 DUP14 REVERT JUMPDEST PUSH2 0x453F DUP16 DUP14 DUP4 DUP8 ADD ADD PUSH2 0x420F JUMP JUMPDEST DUP3 MSTORE POP DUP2 DUP4 ADD MLOAD DUP10 DUP2 GT ISZERO PUSH2 0x4552 JUMPI DUP13 DUP14 REVERT JUMPDEST PUSH2 0x4560 DUP16 DUP14 DUP4 DUP8 ADD ADD PUSH2 0x4284 JUMP JUMPDEST DUP13 DUP4 ADD MSTORE POP PUSH1 0x60 DUP4 ADD MLOAD DUP3 DUP3 ADD MSTORE PUSH2 0x457A PUSH1 0x80 DUP5 ADD PUSH2 0x4204 JUMP JUMPDEST PUSH1 0x60 DUP3 ADD MSTORE DUP7 MSTORE POP POP SWAP3 DUP8 ADD SWAP3 SWAP1 DUP8 ADD SWAP1 PUSH1 0x1 ADD PUSH2 0x44EA JUMP JUMPDEST POP SWAP1 SWAP10 SWAP9 POP POP POP POP POP POP POP POP POP JUMP JUMPDEST PUSH1 0x0 PUSH1 0x20 DUP3 DUP5 SUB SLT ISZERO PUSH2 0x45B3 JUMPI DUP1 DUP2 REVERT JUMPDEST DUP2 CALLDATALOAD PUSH2 0xEDE DUP2 PUSH2 0x4CBA JUMP JUMPDEST PUSH1 0x0 DUP1 PUSH1 0x40 DUP1 DUP5 DUP7 SUB SLT ISZERO PUSH2 0x45D1 JUMPI DUP3 DUP4 REVERT JUMPDEST DUP4 MLOAD SWAP3 POP PUSH1 0x20 DUP1 DUP6 ADD MLOAD PUSH8 0xFFFFFFFFFFFFFFFF DUP1 DUP3 GT ISZERO PUSH2 0x45F0 JUMPI DUP5 DUP6 REVERT JUMPDEST DUP2 DUP8 ADD SWAP2 POP DUP8 PUSH1 0x1F DUP4 ADD SLT PUSH2 0x4603 JUMPI DUP5 DUP6 REVERT JUMPDEST DUP2 MLOAD PUSH2 0x4611 PUSH2 0x422F DUP3 PUSH2 0x4C84 JUMP JUMPDEST DUP2 DUP2 MSTORE DUP5 DUP2 ADD SWAP1 DUP5 DUP7 ADD PUSH1 0xC0 DUP1 DUP6 MUL DUP8 ADD DUP9 ADD DUP14 LT ISZERO PUSH2 0x462F JUMPI DUP10 DUP11 REVERT JUMPDEST DUP10 SWAP7 POP JUMPDEST DUP5 DUP8 LT ISZERO PUSH2 0x46B6 JUMPI DUP1 DUP3 DUP15 SUB SLT ISZERO PUSH2 0x4649 JUMPI DUP10 DUP11 REVERT JUMPDEST DUP9 MLOAD DUP2 DUP2 ADD DUP2 DUP2 LT DUP9 DUP3 GT OR ISZERO PUSH2 0x465C JUMPI INVALID JUMPDEST DUP11 MSTORE DUP3 MLOAD PUSH2 0x4669 DUP2 PUSH2 0x4CC8 JUMP JUMPDEST DUP2 MSTORE DUP3 DUP10 ADD MLOAD DUP10 DUP3 ADD MSTORE DUP10 DUP4 ADD MLOAD DUP11 DUP3 ADD MSTORE PUSH1 0x60 DUP1 DUP5 ADD MLOAD SWAP1 DUP3 ADD MSTORE PUSH1 0x80 DUP1 DUP5 ADD MLOAD SWAP1 DUP3 ADD MSTORE PUSH1 0xA0 PUSH2 0x469C DUP2 DUP6 ADD PUSH2 0x4392 JUMP JUMPDEST SWAP1 DUP3 ADD MSTORE DUP5 MSTORE PUSH1 0x1 SWAP7 SWAP1 SWAP7 ADD SWAP6 SWAP3 DUP8 ADD SWAP3 SWAP1 DUP2 ADD SWAP1 PUSH2 0x4633 JUMP JUMPDEST POP SWAP9 SWAP12 SWAP1 SWAP11 POP SWAP9 POP POP POP POP POP POP POP POP POP JUMP JUMPDEST PUSH1 0x0 PUSH1 0xC0 DUP3 DUP5 SUB SLT ISZERO PUSH2 0x46D9 JUMPI DUP1 DUP2 REVERT JUMPDEST PUSH1 0x40 MLOAD PUSH1 0xC0 DUP2 ADD DUP2 DUP2 LT PUSH8 0xFFFFFFFFFFFFFFFF DUP3 GT OR ISZERO PUSH2 0x46F6 JUMPI INVALID JUMPDEST PUSH1 0x40 MSTORE DUP3 MLOAD PUSH5 0xFFFFFFFFFF DUP2 AND DUP2 EQ PUSH2 0x470D JUMPI DUP3 DUP4 REVERT JUMPDEST DUP2 MSTORE PUSH2 0x471B PUSH1 0x20 DUP5 ADD PUSH2 0x437A JUMP JUMPDEST PUSH1 0x20 DUP3 ADD MSTORE PUSH2 0x472C PUSH1 0x40 DUP5 ADD PUSH2 0x43AC JUMP JUMPDEST PUSH1 0x40 DUP3 ADD MSTORE PUSH2 0x473D PUSH1 0x60 DUP5 ADD PUSH2 0x43A1 JUMP JUMPDEST PUSH1 0x60 DUP3 ADD MSTORE PUSH2 0x474E PUSH1 0x80 DUP5 ADD PUSH2 0x4362 JUMP JUMPDEST PUSH1 0x80 DUP3 ADD MSTORE PUSH2 0x475F PUSH1 0xA0 DUP5 ADD PUSH2 0x4357 JUMP JUMPDEST PUSH1 0xA0 DUP3 ADD MSTORE SWAP4 SWAP3 POP POP POP JUMP JUMPDEST PUSH1 0x0 PUSH1 0x20 DUP3 DUP5 SUB SLT ISZERO PUSH2 0x477C JUMPI DUP1 DUP2 REVERT JUMPDEST DUP2 CALLDATALOAD PUSH2 0xEDE DUP2 PUSH2 0x4CC8 JUMP JUMPDEST PUSH1 0x0 DUP1 PUSH1 0x0 PUSH1 0x60 DUP5 DUP7 SUB SLT ISZERO PUSH2 0x479B JUMPI DUP1 DUP2 REVERT JUMPDEST DUP4 CALLDATALOAD PUSH2 0x47A6 DUP2 PUSH2 0x4CC8 JUMP JUMPDEST SWAP3 POP PUSH1 0x20 DUP5 ADD CALLDATALOAD PUSH1 0x1 PUSH1 0x1 PUSH1 0x58 SHL SUB DUP2 AND DUP2 EQ PUSH2 0x47C1 JUMPI DUP2 DUP3 REVERT JUMPDEST SWAP2 POP PUSH1 0x40 DUP5 ADD CALLDATALOAD PUSH2 0x47D1 DUP2 PUSH2 0x4CBA JUMP JUMPDEST DUP1 SWAP2 POP POP SWAP3 POP SWAP3 POP SWAP3 JUMP JUMPDEST PUSH1 0x0 PUSH1 0x20 DUP3 DUP5 SUB SLT ISZERO PUSH2 0x47ED JUMPI DUP1 DUP2 REVERT JUMPDEST POP MLOAD SWAP2 SWAP1 POP JUMP JUMPDEST PUSH1 0x0 DUP1 PUSH1 0x40 DUP4 DUP6 SUB SLT ISZERO PUSH2 0x4806 JUMPI DUP2 DUP3 REVERT JUMPDEST POP POP DUP1 MLOAD PUSH1 0x20 SWAP1 SWAP2 ADD MLOAD SWAP1 SWAP3 SWAP1 SWAP2 POP JUMP JUMPDEST DUP1 MLOAD PUSH5 0xFFFFFFFFFF AND DUP3 MSTORE PUSH1 0x20 DUP1 DUP3 ADD MLOAD PUSH1 0x1 PUSH1 0x1 PUSH1 0xF8 SHL SUB NOT AND SWAP1 DUP4 ADD MSTORE PUSH1 0x40 DUP1 DUP3 ADD MLOAD PUSH1 0xFF AND SWAP1 DUP4 ADD MSTORE PUSH1 0x60 DUP1 DUP3 ADD MLOAD PUSH2 0xFFFF AND SWAP1 DUP4 ADD MSTORE PUSH1 0x80 DUP1 DUP3 ADD MLOAD PUSH1 0x1 PUSH1 0x1 PUSH1 0x70 SHL SUB NOT AND SWAP1 DUP4 ADD MSTORE PUSH1 0xA0 SWAP1 DUP2 ADD MLOAD ISZERO ISZERO SWAP2 ADD MSTORE JUMP JUMPDEST PUSH1 0x1 PUSH1 0x1 PUSH1 0xA0 SHL SUB SWAP2 SWAP1 SWAP2 AND DUP2 MSTORE PUSH1 0x20 ADD SWAP1 JUMP JUMPDEST PUSH1 0x1 PUSH1 0x1 PUSH1 0xA0 SHL SUB SWAP5 DUP6 AND DUP2 MSTORE SWAP3 DUP5 AND PUSH1 0x20 DUP5 ADD MSTORE SWAP1 DUP4 AND PUSH1 0x40 DUP4 ADD MSTORE SWAP1 SWAP2 AND PUSH1 0x60 DUP3 ADD MSTORE PUSH1 0x80 ADD SWAP1 JUMP JUMPDEST PUSH1 0x0 PUSH2 0x120 DUP1 DUP4 ADD PUSH1 0x1 DUP1 PUSH1 0xA0 SHL SUB DUP1 DUP10 AND DUP6 MSTORE PUSH1 0x20 DUP2 DUP10 AND DUP2 DUP8 ADD MSTORE PUSH1 0x40 SWAP2 POP PUSH2 0x48DE DUP3 DUP8 ADD DUP10 PUSH2 0x4817 JUMP JUMPDEST PUSH2 0x100 DUP7 ADD SWAP4 SWAP1 SWAP4 MSTORE DUP6 MLOAD SWAP2 DUP3 SWAP1 MSTORE PUSH2 0x140 DUP6 ADD SWAP3 DUP1 DUP8 ADD SWAP3 DUP6 JUMPDEST DUP2 DUP2 LT ISZERO PUSH2 0x4955 JUMPI DUP5 MLOAD DUP1 MLOAD PUSH2 0xFFFF AND DUP8 MSTORE DUP4 DUP2 ADD MLOAD DUP5 DUP9 ADD MSTORE DUP5 DUP2 ADD MLOAD DUP6 DUP9 ADD MSTORE PUSH1 0x60 DUP1 DUP3 ADD MLOAD SWAP1 DUP9 ADD MSTORE PUSH1 0x80 DUP1 DUP3 ADD MLOAD SWAP1 DUP9 ADD MSTORE PUSH1 0xA0 SWAP1 DUP2 ADD MLOAD SWAP1 PUSH1 0x4 DUP3 LT PUSH2 0x4940 JUMPI INVALID JUMPDEST DUP8 ADD MSTORE PUSH1 0xC0 SWAP1 SWAP6 ADD SWAP5 SWAP4 DUP3 ADD SWAP4 PUSH1 0x1 ADD PUSH2 0x48F9 JUMP JUMPDEST POP SWAP4 SWAP11 SWAP10 POP POP POP POP POP POP POP POP POP POP JUMP JUMPDEST PUSH1 0x1 PUSH1 0x1 PUSH1 0xA0 SHL SUB SWAP3 SWAP1 SWAP3 AND DUP3 MSTORE PUSH1 0x20 DUP3 ADD MSTORE PUSH1 0x40 ADD SWAP1 JUMP JUMPDEST PUSH1 0x1 PUSH1 0x1 PUSH1 0xA0 SHL SUB DUP4 AND DUP2 MSTORE PUSH1 0xE0 DUP2 ADD PUSH2 0xEDE PUSH1 0x20 DUP4 ADD DUP5 PUSH2 0x4817 JUMP JUMPDEST PUSH1 0x1 PUSH1 0x1 PUSH1 0xA0 SHL SUB SWAP6 SWAP1 SWAP6 AND DUP6 MSTORE PUSH2 0xFFFF SWAP4 SWAP1 SWAP4 AND PUSH1 0x20 DUP6 ADD MSTORE PUSH1 0x40 DUP5 ADD SWAP2 SWAP1 SWAP2 MSTORE ISZERO ISZERO PUSH1 0x60 DUP4 ADD MSTORE ISZERO ISZERO PUSH1 0x80 DUP3 ADD MSTORE PUSH1 0xA0 ADD SWAP1 JUMP JUMPDEST PUSH1 0x1 PUSH1 0x1 PUSH1 0xA0 SHL SUB SWAP6 SWAP1 SWAP6 AND DUP6 MSTORE PUSH2 0xFFFF SWAP4 SWAP1 SWAP4 AND PUSH1 0x20 DUP6 ADD MSTORE PUSH1 0x40 DUP5 ADD SWAP2 SWAP1 SWAP2 MSTORE PUSH1 0x60 DUP4 ADD MSTORE PUSH1 0x80 DUP3 ADD MSTORE PUSH1 0xA0 ADD SWAP1 JUMP JUMPDEST PUSH1 0x1 PUSH1 0x1 PUSH1 0xA0 SHL SUB SWAP5 SWAP1 SWAP5 AND DUP5 MSTORE PUSH1 0x20 DUP5 ADD SWAP3 SWAP1 SWAP3 MSTORE PUSH1 0x40 DUP4 ADD MSTORE PUSH1 0x60 DUP3 ADD MSTORE PUSH1 0x80 ADD SWAP1 JUMP JUMPDEST SWAP1 ISZERO ISZERO DUP2 MSTORE PUSH1 0x20 ADD SWAP1 JUMP JUMPDEST SWAP2 DUP3 MSTORE ISZERO ISZERO PUSH1 0x20 DUP3 ADD MSTORE PUSH1 0x40 ADD SWAP1 JUMP JUMPDEST PUSH1 0x20 DUP1 DUP3 MSTORE PUSH1 0xF SWAP1 DUP3 ADD MSTORE PUSH15 0x4F76657220537570706C792043617 PUSH1 0x8C SHL PUSH1 0x40 DUP3 ADD MSTORE PUSH1 0x60 ADD SWAP1 JUMP JUMPDEST PUSH1 0x20 DUP1 DUP3 MSTORE PUSH1 0xB SWAP1 DUP3 ADD MSTORE PUSH11 0x4554482042616C616E6365 PUSH1 0xA8 SHL PUSH1 0x40 DUP3 ADD MSTORE PUSH1 0x60 ADD SWAP1 JUMP JUMPDEST PUSH1 0x20 DUP1 DUP3 MSTORE PUSH1 0x6 SWAP1 DUP3 ADD MSTORE PUSH6 0x52656465656D PUSH1 0xD0 SHL PUSH1 0x40 DUP3 ADD MSTORE PUSH1 0x60 ADD SWAP1 JUMP JUMPDEST PUSH1 0x20 DUP1 DUP3 MSTORE PUSH1 0x12 SWAP1 DUP3 ADD MSTORE PUSH18 0x43616E6E6F74206861766520617373657473 PUSH1 0x70 SHL PUSH1 0x40 DUP3 ADD MSTORE PUSH1 0x60 ADD SWAP1 JUMP JUMPDEST PUSH1 0x20 DUP1 DUP3 MSTORE PUSH1 0x13 SWAP1 DUP3 ADD MSTORE PUSH19 0x2AB730BABA3437B934BD32B21031B0B63632B9 PUSH1 0x69 SHL PUSH1 0x40 DUP3 ADD MSTORE PUSH1 0x60 ADD SWAP1 JUMP JUMPDEST PUSH1 0x20 DUP1 DUP3 MSTORE PUSH1 0xF SWAP1 DUP3 ADD MSTORE PUSH15 0x4E6F205072696D6520426F72726F77 PUSH1 0x88 SHL PUSH1 0x40 DUP3 ADD MSTORE PUSH1 0x60 ADD SWAP1 JUMP JUMPDEST PUSH1 0x20 DUP1 DUP3 MSTORE PUSH1 0x1C SWAP1 DUP3 ADD MSTORE PUSH32 0x446570726563617465643A2052656465656D20746F2063546F6B656E00000000 PUSH1 0x40 DUP3 ADD MSTORE PUSH1 0x60 ADD SWAP1 JUMP JUMPDEST PUSH1 0x20 DUP1 DUP3 MSTORE PUSH1 0x14 SWAP1 DUP3 ADD MSTORE PUSH20 0x43616E6E6F74206368616E6765206269746D617 PUSH1 0x64 SHL PUSH1 0x40 DUP3 ADD MSTORE PUSH1 0x60 ADD SWAP1 JUMP JUMPDEST PUSH1 0x20 DUP1 DUP3 MSTORE PUSH1 0x10 SWAP1 DUP3 ADD MSTORE PUSH16 0x10D85B9B9BDD081A185D99481919589D PUSH1 0x82 SHL PUSH1 0x40 DUP3 ADD MSTORE PUSH1 0x60 ADD SWAP1 JUMP JUMPDEST PUSH1 0x20 DUP1 DUP3 MSTORE PUSH1 0xA SWAP1 DUP3 ADD MSTORE PUSH10 0x2732B390372A37B5B2B7 PUSH1 0xB1 SHL PUSH1 0x40 DUP3 ADD MSTORE PUSH1 0x60 ADD SWAP1 JUMP JUMPDEST PUSH1 0x20 DUP1 DUP3 MSTORE PUSH1 0x13 SWAP1 DUP3 ADD MSTORE PUSH19 0x125B9D985B1A590818DD5C9C995B98DE481A59 PUSH1 0x6A SHL PUSH1 0x40 DUP3 ADD MSTORE PUSH1 0x60 ADD SWAP1 JUMP JUMPDEST PUSH1 0x20 DUP1 DUP3 MSTORE PUSH1 0x13 SWAP1 DUP3 ADD MSTORE PUSH19 0x496E73756666696369656E7420746F6B656E73 PUSH1 0x68 SHL PUSH1 0x40 DUP3 ADD MSTORE PUSH1 0x60 ADD SWAP1 JUMP JUMPDEST SWAP1 DUP2 MSTORE PUSH1 0x20 ADD SWAP1 JUMP JUMPDEST SWAP3 DUP4 MSTORE PUSH1 0x20 DUP4 ADD SWAP2 SWAP1 SWAP2 MSTORE PUSH1 0x40 DUP3 ADD MSTORE PUSH1 0x60 ADD SWAP1 JUMP JUMPDEST PUSH1 0x40 MLOAD DUP2 DUP2 ADD PUSH8 0xFFFFFFFFFFFFFFFF DUP2 GT DUP3 DUP3 LT OR ISZERO PUSH2 0x4C7C JUMPI INVALID JUMPDEST PUSH1 0x40 MSTORE SWAP2 SWAP1 POP JUMP JUMPDEST PUSH1 0x0 PUSH8 0xFFFFFFFFFFFFFFFF DUP3 GT ISZERO PUSH2 0x4C98 JUMPI INVALID JUMPDEST POP PUSH1 0x20 SWAP1 DUP2 MUL ADD SWAP1 JUMP JUMPDEST PUSH1 0x1 PUSH1 0x1 PUSH1 0xA0 SHL SUB DUP2 AND DUP2 EQ PUSH2 0x4CB7 JUMPI PUSH1 0x0 DUP1 REVERT JUMPDEST POP JUMP JUMPDEST DUP1 ISZERO ISZERO DUP2 EQ PUSH2 0x4CB7 JUMPI PUSH1 0x0 DUP1 REVERT JUMPDEST PUSH2 0xFFFF DUP2 AND DUP2 EQ PUSH2 0x4CB7 JUMPI PUSH1 0x0 DUP1 REVERT INVALID LOG2 PUSH5 0x6970667358 0x22 SLT KECCAK256 0xF7 SDIV DUP1 DUP2 PUSH15 0x52240D2116EC9099D8DF0FB147CE54 RETURNDATASIZE 0xDF 0xEA 0xC0 0x24 0xD SWAP3 DUP13 0x2C PUSH2 0x981C PUSH5 0x736F6C6343 STOP SMOD MOD STOP CALLER ","sha1":"d4eda3cfbfac9c46695ce35a4688b259f8c592e1","source":"// SPDX-License-Identifier: BSUL-1.1\npragma solidity =0.7.6;\npragma abicoder v2;\n\nimport {\n    BalanceState,\n    AccountContext,\n    PortfolioAsset,\n    PrimeRate\n} from \"../../global/Types.sol\";\nimport {Constants} from \"../../global/Constants.sol\";\nimport {SafeInt256} from \"../../math/SafeInt256.sol\";\n\nimport {Emitter} from \"../../internal/Emitter.sol\";\nimport {TransferAssets} from \"../../internal/portfolio/TransferAssets.sol\";\nimport {BalanceHandler} from \"../../internal/balances/BalanceHandler.sol\";\nimport {nTokenHandler} from \"../../internal/nToken/nTokenHandler.sol\";\nimport {PrimeRateLib} from \"../../internal/pCash/PrimeRateLib.sol\";\nimport {AccountContextHandler} from \"../../internal/AccountContextHandler.sol\";\n\nimport {ActionGuards} from \"./ActionGuards.sol\";\nimport {nTokenRedeemAction} from \"./nTokenRedeemAction.sol\";\nimport {SettleAssetsExternal} from \"../SettleAssetsExternal.sol\";\nimport {FreeCollateralExternal} from \"../FreeCollateralExternal.sol\";\nimport {MigrateIncentives} from \"../MigrateIncentives.sol\";\n\ncontract AccountAction is ActionGuards {\n    using BalanceHandler for BalanceState;\n    using AccountContextHandler for AccountContext;\n    using PrimeRateLib for PrimeRate;\n    using SafeInt256 for int256;\n\n    /// @notice A per account setting that allows it to borrow prime cash (i.e. incur negative cash)\n    /// as a result of account initiated actions. Accounts can still incur negative cash as a result of\n    /// fCash settlement regardless of this setting.\n    /// @param allowPrimeBorrow true if the account can borrow prime cash\n    /// @dev emit:AccountSettled emit:AccountContextUpdate\n    /// @dev auth:msg.sender\n    function enablePrimeBorrow(bool allowPrimeBorrow) external {\n        require(msg.sender != address(this)); // dev: no internal call\n        requireValidAccount(msg.sender);\n        (AccountContext memory accountContext, /* didSettle */) = _settleAccountIfRequired(msg.sender);\n        accountContext.allowPrimeBorrow = allowPrimeBorrow;\n        accountContext.setAccountContext(msg.sender);\n    }\n\n    /// @notice Enables a bitmap currency for msg.sender, account cannot have any assets when this call\n    /// occurs. Will revert if the account already has a bitmap currency set.\n    /// @param currencyId the currency to enable the bitmap for.\n    /// @dev emit:AccountSettled emit:AccountContextUpdate\n    /// @dev auth:msg.sender\n    function enableBitmapCurrency(uint16 currencyId) external {\n        require(msg.sender != address(this)); // dev: no internal call to enableBitmapCurrency\n        require(currencyId <= maxCurrencyId); // dev: invalid currency id\n        address account = msg.sender;\n        (AccountContext memory accountContext, /* didSettle */) = _settleAccountIfRequired(account);\n        accountContext.enableBitmapForAccount(currencyId, block.timestamp);\n        accountContext.setAccountContext(account);\n    }\n\n    /// @notice Method for manually settling an account, generally should not be called because other\n    /// methods will check if an account needs to be settled automatically. If a bitmap account has debt\n    /// and is settled via this method, the hasDebt flag will not be cleared until a free collateral check\n    /// is performed on the account.\n    /// @param account the account to settle\n    /// @dev emit:AccountSettled emit:AccountContextUpdate\n    /// @dev auth:none\n    /// @return returns true if account has been settled\n    function settleAccount(address account) external returns (bool) {\n        requireValidAccount(account);\n        (AccountContext memory accountContext, bool didSettle) = _settleAccountIfRequired(account);\n        if (didSettle) accountContext.setAccountContext(account);\n        return didSettle;\n    }\n\n    /// @notice Deposits and wraps the underlying token for a particular cToken. Does not settle assets or check free\n    /// collateral, idea is to be as gas efficient as possible during potential liquidation events.\n    /// @param account the account to deposit into\n    /// @param currencyId currency id of the asset token that wraps this underlying\n    /// @param amountExternalPrecision the amount of underlying tokens in its native decimal precision\n    /// (i.e. 18 decimals for DAI or 6 decimals for USDC). This will be converted to 8 decimals during transfer.\n    /// @return asset tokens minted and deposited to the account in internal decimals (8)\n    /// @dev emit:CashBalanceChange emit:AccountContextUpdate\n    /// @dev auth:none\n    function depositUnderlyingToken(\n        address account,\n        uint16 currencyId,\n        uint256 amountExternalPrecision\n    ) external payable nonReentrant returns (uint256) {\n        require(msg.sender != address(this)); // dev: no internal call to deposit underlying\n        // Only the account can deposit into its balance, donations are not allowed.\n        require(msg.sender == account); // dev: unauthorized\n        requireValidAccount(account);\n\n        AccountContext memory accountContext = AccountContextHandler.getAccountContext(account);\n        BalanceState memory balanceState;\n        balanceState.loadBalanceState(account, currencyId, accountContext);\n\n        // NOTE: using msg.sender here allows for a different sender to deposit tokens into\n        // the specified account. This may be useful for on-demand collateral top ups from a\n        // third party.\n        int256 primeCashReceived = balanceState.depositUnderlyingToken(\n            account,\n            SafeInt256.toInt(amountExternalPrecision),\n            false // there should never be excess ETH here by definition\n        );\n\n        require(primeCashReceived > 0); // dev: asset tokens negative or zero\n\n        balanceState.finalizeNoWithdraw(account, accountContext);\n        accountContext.setAccountContext(account);\n\n        // Check the supply cap after all balances have been finalized\n        balanceState.primeRate.checkSupplyCap(currencyId);\n\n        // NOTE: no free collateral checks required for depositing\n        return primeCashReceived.toUint();\n    }\n\n    /// @notice DEPRECATED: deposits deprecated cTokens tokens as collateral into an account that\n    /// were listed prior to the migration to prime cash. Future listed tokens will not have asset\n    /// tokens and will revert in this method.\n    /// @param account the account to deposit into\n    /// @param currencyId currency id of the asset token\n    /// @param amountExternalPrecision the amount of asset tokens in its native decimal precision\n    /// (i.e. 8 decimals for cTokens).\n    /// @return asset tokens minted and deposited to the account in internal decimals (8)\n    /// @dev emit:CashBalanceChange emit:AccountContextUpdate\n    /// @dev auth:none\n    function depositAssetToken(\n        address account,\n        uint16 currencyId,\n        uint256 amountExternalPrecision\n    ) external nonReentrant returns (uint256) {\n        require(msg.sender != address(this)); // dev: no internal call to deposit asset\n        // Only the account can deposit into its balance, donations are not allowed.\n        require(msg.sender == account); // dev: unauthorized\n        requireValidAccount(account);\n\n        AccountContext memory accountContext = AccountContextHandler.getAccountContext(account);\n        BalanceState memory balanceState;\n        balanceState.loadBalanceState(account, currencyId, accountContext);\n\n        // Int conversion overflow check done inside this method call. msg.sender\n        // is used as the account in deposit to allow for other accounts to deposit\n        // on behalf of the given account. This always does an immediate transfer\n        // and marks the net prime cash change on the balance state.\n        int256 primeCashReceived = balanceState.depositDeprecatedAssetToken(\n            account,\n            SafeInt256.toInt(amountExternalPrecision)\n        );\n\n        require(primeCashReceived > 0); // dev: asset tokens negative or zero\n\n        balanceState.finalizeNoWithdraw(account, accountContext);\n        accountContext.setAccountContext(account);\n\n        // Check the supply cap after all balances have been finalized\n        balanceState.primeRate.checkSupplyCap(currencyId);\n\n        // NOTE: no free collateral checks required for depositing\n        return primeCashReceived.toUint();\n    }\n\n    /// @notice Withdraws balances from Notional, may also redeem to underlying tokens on user request. Will settle\n    /// and do free collateral checks if required. Can only be called by msg.sender, operators who want to withdraw for\n    /// an account must do an authenticated call via ERC1155Action `safeTransferFrom` or `safeBatchTransferFrom`\n    /// @param currencyId currency id of the asset token\n    /// @param amountInternalPrecision the amount of cash balance in internal 8 decimal precision to withdraw,\n    /// this is be denominated in prime cash. If set to uint88 max, will withdraw an entire cash balance.\n    /// @param redeemToUnderlying DEPRECATED except for ETH balances. Prior to the prime cash upgrade, accounts could withdraw\n    /// cTokens directly. However, post prime cash migration this is no longer the case. If withdrawing ETH, setting redeemToUnderlying\n    /// to false will redeem ETH as WETH.\n    /// @dev emit:CashBalanceChange emit:AccountContextUpdate\n    /// @dev auth:msg.sender\n    /// @return the amount of tokens received by the account denominated in the destination token precision (if\n    // redeeming to underlying the amount will be the underlying amount received in that token's native precision)\n    function withdraw(\n        uint16 currencyId,\n        uint88 amountInternalPrecision,\n        bool redeemToUnderlying\n    ) external nonReentrant returns (uint256) {\n        if (currencyId != Constants.ETH_CURRENCY_ID) {\n            require(redeemToUnderlying, \"Deprecated: Redeem to cToken\");\n        }\n        // This happens before reading the balance state to get the most up to date cash balance\n        (AccountContext memory accountContext, /* didSettle */) = _settleAccountIfRequired(msg.sender);\n\n        BalanceState memory balanceState;\n        balanceState.loadBalanceState(msg.sender, currencyId, accountContext);\n        if (amountInternalPrecision == type(uint88).max) {\n            // if set to uint88 max, withdraw the full stored balance. This feature only\n            // works if there is a positive balance\n            require(balanceState.storedCashBalance > 0);\n            balanceState.primeCashWithdraw = balanceState.storedCashBalance.neg();\n        } else {\n            // Overflow is not possible due to uint88\n            balanceState.primeCashWithdraw = int256(amountInternalPrecision).neg();\n        }\n\n        int256 underlyingWithdrawnExternal = balanceState.finalizeWithWithdraw(\n            msg.sender, accountContext, !redeemToUnderlying\n        );\n\n        accountContext.setAccountContext(msg.sender);\n\n        if (accountContext.hasDebt != 0x00) {\n            FreeCollateralExternal.checkFreeCollateralAndRevert(msg.sender);\n        }\n\n        require(underlyingWithdrawnExternal <= 0);\n\n        // No need to check supply caps\n        return underlyingWithdrawnExternal.neg().toUint();\n    }\n\n    /// @notice Allows accounts to redeem nTokens into constituent assets and then absorb the assets\n    /// into their portfolio. Due to the complexity here, it is not allowed to be called during a batch trading\n    /// operation and must be done separately.\n    /// @param redeemer the address that holds the nTokens to redeem\n    /// @param currencyId the currency associated the nToken\n    /// @param tokensToRedeem_ the amount of nTokens to convert to cash\n    /// @param sellTokenAssets attempt to sell residual fCash and convert to cash\n    /// @param acceptResidualAssets if true, will place any residual fCash that could not be sold (either due to slippage\n    /// or because it was idiosyncratic) into the account's portfolio\n    /// @dev auth:msg.sender auth:ERC1155\n    /// @return total amount of asset cash redeemed\n    /// @return true or false if there were residuals that were placed into the portfolio\n    function nTokenRedeem(\n        address redeemer,\n        uint16 currencyId,\n        uint96 tokensToRedeem_,\n        bool sellTokenAssets,\n        bool acceptResidualAssets\n    ) external nonReentrant returns (int256, bool) {\n        // ERC1155 can call this method during a post transfer event\n        require(msg.sender == redeemer || msg.sender == address(this), \"Unauthorized caller\");\n        int256 tokensToRedeem = int256(tokensToRedeem_);\n\n        (AccountContext memory context, /* didSettle */) = _settleAccountIfRequired(redeemer);\n\n        BalanceState memory balance;\n        balance.loadBalanceState(redeemer, currencyId, context);\n\n        require(balance.storedNTokenBalance >= tokensToRedeem, \"Insufficient tokens\");\n        balance.netNTokenSupplyChange = tokensToRedeem.neg();\n\n        (int256 totalPrimeCash, PortfolioAsset[] memory assets) = nTokenRedeemAction.redeem(\n            redeemer, currencyId, tokensToRedeem, sellTokenAssets, acceptResidualAssets\n        );\n\n        // Set balances before transferring assets\n        balance.netCashChange = totalPrimeCash;\n        balance.finalizeNoWithdraw(redeemer, context);\n\n        // The hasResidual flag is only set to true if selling residuals has failed, checking\n        // if the length of assets is greater than zero will detect the presence of ifCash\n        // assets that have not been sold.\n        if (assets.length > 0) {\n            // This method will store assets and return the memory location of the new account\n            // context.\n            address nTokenAddress = nTokenHandler.nTokenAddress(currencyId);\n            context = SettleAssetsExternal.placeAssetsInAccount(redeemer, nTokenAddress, context, assets);\n        }\n\n        context.setAccountContext(redeemer);\n        if (context.hasDebt != 0x00) {\n            FreeCollateralExternal.checkFreeCollateralAndRevert(redeemer);\n        }\n\n        return (totalPrimeCash, assets.length > 0);\n    }\n\n    /// @notice Settle the account if required, returning a reference to the account context. Also\n    /// returns a boolean to indicate if it did settle.\n    function _settleAccountIfRequired(address account)\n        private\n        returns (AccountContext memory, bool)\n    {\n        AccountContext memory accountContext = AccountContextHandler.getAccountContext(account);\n        if (accountContext.mustSettleAssets()) {\n            return (SettleAssetsExternal.settleAccount(account, accountContext), true);\n        } else {\n            return (accountContext, false);\n        }\n    }\n\n    /// @notice Get a list of deployed library addresses (sorted by library name)\n    function getLibInfo() external pure returns (address, address, address, address) {\n        return (\n            address(FreeCollateralExternal),\n            address(MigrateIncentives), \n            address(SettleAssetsExternal), \n            address(nTokenRedeemAction)\n        );\n    }\n}\n","sourcePath":"contracts/external/actions/AccountAction.sol","type":"contract","deployment":{"address":"0x98abc97c26097C1cE884e18087415743DE7842E4","chainid":"42161","blockHeight":164625416}}