{"abi":[{"inputs":[{"internalType":"contract NotionalProxy","name":"notional_","type":"address"}],"stateMutability":"nonpayable","type":"constructor","name":"constructor"},{"anonymous":false,"inputs":[{"indexed":true,"internalType":"address","name":"owner","type":"address"},{"indexed":true,"internalType":"address","name":"spender","type":"address"},{"indexed":false,"internalType":"uint256","name":"value","type":"uint256"}],"name":"Approval","type":"event"},{"anonymous":false,"inputs":[{"indexed":true,"internalType":"address","name":"caller","type":"address"},{"indexed":true,"internalType":"address","name":"owner","type":"address"},{"indexed":false,"internalType":"uint256","name":"assets","type":"uint256"},{"indexed":false,"internalType":"uint256","name":"shares","type":"uint256"}],"name":"Deposit","type":"event"},{"anonymous":false,"inputs":[],"name":"ProxyRenamed","type":"event"},{"anonymous":false,"inputs":[{"indexed":true,"internalType":"address","name":"from","type":"address"},{"indexed":true,"internalType":"address","name":"to","type":"address"},{"indexed":false,"internalType":"uint256","name":"value","type":"uint256"}],"name":"Transfer","type":"event"},{"anonymous":false,"inputs":[{"indexed":true,"internalType":"address","name":"caller","type":"address"},{"indexed":true,"internalType":"address","name":"receiver","type":"address"},{"indexed":true,"internalType":"address","name":"owner","type":"address"},{"indexed":false,"internalType":"uint256","name":"assets","type":"uint256"},{"indexed":false,"internalType":"uint256","name":"shares","type":"uint256"}],"name":"Withdraw","type":"event"},{"inputs":[],"name":"EXCHANGE_RATE_PRECISION","outputs":[{"internalType":"uint256","name":"","type":"uint256"}],"stateMutability":"view","type":"function"},{"inputs":[],"name":"NOTIONAL","outputs":[{"internalType":"contract NotionalProxy","name":"","type":"address"}],"stateMutability":"view","type":"function"},{"inputs":[{"internalType":"address","name":"account","type":"address"},{"internalType":"address","name":"spender","type":"address"}],"name":"allowance","outputs":[{"internalType":"uint256","name":"","type":"uint256"}],"stateMutability":"view","type":"function"},{"inputs":[{"internalType":"address","name":"spender","type":"address"},{"internalType":"uint256","name":"amount","type":"uint256"}],"name":"approve","outputs":[{"internalType":"bool","name":"ret","type":"bool"}],"stateMutability":"nonpayable","type":"function"},{"inputs":[],"name":"asset","outputs":[{"internalType":"address","name":"","type":"address"}],"stateMutability":"view","type":"function"},{"inputs":[{"internalType":"address","name":"account","type":"address"}],"name":"balanceOf","outputs":[{"internalType":"uint256","name":"","type":"uint256"}],"stateMutability":"view","type":"function"},{"inputs":[{"internalType":"uint256","name":"shares","type":"uint256"}],"name":"convertToAssets","outputs":[{"internalType":"uint256","name":"assets","type":"uint256"}],"stateMutability":"view","type":"function"},{"inputs":[{"internalType":"uint256","name":"assets","type":"uint256"}],"name":"convertToShares","outputs":[{"internalType":"uint256","name":"shares","type":"uint256"}],"stateMutability":"view","type":"function"},{"inputs":[],"name":"currencyId","outputs":[{"internalType":"uint16","name":"","type":"uint16"}],"stateMutability":"view","type":"function"},{"inputs":[],"name":"decimals","outputs":[{"internalType":"uint8","name":"","type":"uint8"}],"stateMutability":"view","type":"function"},{"inputs":[{"internalType":"uint256","name":"assets","type":"uint256"},{"internalType":"address","name":"receiver","type":"address"}],"name":"deposit","outputs":[{"internalType":"uint256","name":"shares","type":"uint256"}],"stateMutability":"nonpayable","type":"function"},{"inputs":[{"internalType":"address","name":"account","type":"address"},{"internalType":"int256","name":"netBalance","type":"int256"}],"name":"emitMintOrBurn","outputs":[],"stateMutability":"nonpayable","type":"function"},{"inputs":[{"internalType":"address","name":"minter","type":"address"},{"internalType":"address","name":"burner","type":"address"},{"internalType":"uint256","name":"mintAmount","type":"uint256"},{"internalType":"uint256","name":"transferAndBurnAmount","type":"uint256"}],"name":"emitMintTransferBurn","outputs":[],"stateMutability":"nonpayable","type":"function"},{"inputs":[{"internalType":"address","name":"from","type":"address"},{"internalType":"address","name":"to","type":"address"},{"internalType":"uint256","name":"amount","type":"uint256"}],"name":"emitTransfer","outputs":[],"stateMutability":"nonpayable","type":"function"},{"inputs":[{"internalType":"address","name":"account","type":"address"},{"internalType":"address","name":"nToken","type":"address"},{"internalType":"int256","name":"accountToNToken","type":"int256"},{"internalType":"uint256","name":"cashToReserve","type":"uint256"}],"name":"emitfCashTradeTransfers","outputs":[],"stateMutability":"nonpayable","type":"function"},{"inputs":[],"name":"exchangeRate","outputs":[{"internalType":"uint256","name":"rate","type":"uint256"}],"stateMutability":"view","type":"function"},{"inputs":[{"internalType":"uint16","name":"currencyId_","type":"uint16"},{"internalType":"address","name":"underlying_","type":"address"},{"internalType":"string","name":"underlyingName_","type":"string"},{"internalType":"string","name":"underlyingSymbol_","type":"string"}],"name":"initialize","outputs":[],"stateMutability":"nonpayable","type":"function"},{"inputs":[{"internalType":"address","name":"","type":"address"}],"name":"maxDeposit","outputs":[{"internalType":"uint256","name":"maxAssets","type":"uint256"}],"stateMutability":"view","type":"function"},{"inputs":[{"internalType":"address","name":"","type":"address"}],"name":"maxMint","outputs":[{"internalType":"uint256","name":"maxShares","type":"uint256"}],"stateMutability":"view","type":"function"},{"inputs":[{"internalType":"address","name":"owner","type":"address"}],"name":"maxRedeem","outputs":[{"internalType":"uint256","name":"maxShares","type":"uint256"}],"stateMutability":"view","type":"function"},{"inputs":[{"internalType":"address","name":"owner","type":"address"}],"name":"maxWithdraw","outputs":[{"internalType":"uint256","name":"maxAssets","type":"uint256"}],"stateMutability":"view","type":"function"},{"inputs":[{"internalType":"uint256","name":"shares","type":"uint256"},{"internalType":"address","name":"receiver","type":"address"}],"name":"mint","outputs":[{"internalType":"uint256","name":"assets","type":"uint256"}],"stateMutability":"nonpayable","type":"function"},{"inputs":[],"name":"name","outputs":[{"internalType":"string","name":"","type":"string"}],"stateMutability":"view","type":"function"},{"inputs":[],"name":"nativeDecimals","outputs":[{"internalType":"uint8","name":"","type":"uint8"}],"stateMutability":"view","type":"function"},{"inputs":[{"internalType":"uint256","name":"assets","type":"uint256"}],"name":"previewDeposit","outputs":[{"internalType":"uint256","name":"shares","type":"uint256"}],"stateMutability":"view","type":"function"},{"inputs":[{"internalType":"uint256","name":"shares","type":"uint256"}],"name":"previewMint","outputs":[{"internalType":"uint256","name":"assets","type":"uint256"}],"stateMutability":"view","type":"function"},{"inputs":[{"internalType":"uint256","name":"shares","type":"uint256"}],"name":"previewRedeem","outputs":[{"internalType":"uint256","name":"assets","type":"uint256"}],"stateMutability":"view","type":"function"},{"inputs":[{"internalType":"uint256","name":"assets","type":"uint256"}],"name":"previewWithdraw","outputs":[{"internalType":"uint256","name":"shares","type":"uint256"}],"stateMutability":"view","type":"function"},{"inputs":[{"internalType":"uint256","name":"shares","type":"uint256"},{"internalType":"address","name":"receiver","type":"address"},{"internalType":"address","name":"owner","type":"address"}],"name":"redeem","outputs":[{"internalType":"uint256","name":"assets","type":"uint256"}],"stateMutability":"nonpayable","type":"function"},{"inputs":[{"internalType":"string","name":"underlyingName_","type":"string"},{"internalType":"string","name":"underlyingSymbol_","type":"string"}],"name":"rename","outputs":[],"stateMutability":"nonpayable","type":"function"},{"inputs":[],"name":"symbol","outputs":[{"internalType":"string","name":"","type":"string"}],"stateMutability":"view","type":"function"},{"inputs":[],"name":"totalAssets","outputs":[{"internalType":"uint256","name":"totalManagedAssets","type":"uint256"}],"stateMutability":"view","type":"function"},{"inputs":[],"name":"totalSupply","outputs":[{"internalType":"uint256","name":"","type":"uint256"}],"stateMutability":"view","type":"function"},{"inputs":[{"internalType":"address","name":"to","type":"address"},{"internalType":"uint256","name":"amount","type":"uint256"}],"name":"transfer","outputs":[{"internalType":"bool","name":"ret","type":"bool"}],"stateMutability":"nonpayable","type":"function"},{"inputs":[{"internalType":"address","name":"from","type":"address"},{"internalType":"address","name":"to","type":"address"},{"internalType":"uint256","name":"amount","type":"uint256"}],"name":"transferFrom","outputs":[{"internalType":"bool","name":"ret","type":"bool"}],"stateMutability":"nonpayable","type":"function"},{"inputs":[],"name":"underlying","outputs":[{"internalType":"address","name":"","type":"address"}],"stateMutability":"view","type":"function"},{"inputs":[{"internalType":"uint256","name":"assets","type":"uint256"},{"internalType":"address","name":"receiver","type":"address"},{"internalType":"address","name":"owner","type":"address"}],"name":"withdraw","outputs":[{"internalType":"uint256","name":"shares","type":"uint256"}],"stateMutability":"nonpayable","type":"function"}],"bytecode":"60a06040523480156200001157600080fd5b5060405162002d4038038062002d4083398101604081905262000034916200011c565b6000548190610100900460ff168062000052575062000052620000f8565b8062000061575060005460ff16155b6200009e5760405162461bcd60e51b815260040180806020018281038252602e81526020018062002d12602e913960400191505060405180910390fd5b600054610100900460ff16158015620000ca576000805460ff1961ff0019909116610100171660011790555b6001600160601b0319606083901b166080528015620000ef576000805461ff00191690555b5050506200014c565b600062000110306200011660201b620014641760201c565b15905090565b3b151590565b6000602082840312156200012e578081fd5b81516001600160a01b038116811462000145578182fd5b9392505050565b60805160601c612b53620001bf600039806106e0528061078a52806108dd5280610ab15280610be75280610da45280610f7552806110755280611346528061148b52806115cf5280611692528061174952806119d25280611a835280611b7e5280611d055280611dec5250612b536000f3fe608060405234801561001057600080fd5b50600436106102275760003560e01c806370a0823111610130578063b3d7f6b9116100b8578063ccb2d5ed1161007c578063ccb2d5ed14610461578063ce96cb7714610474578063d905777e14610378578063dd62ed3e14610487578063ef8b30f71461049a57610227565b8063b3d7f6b914610402578063b460af9414610415578063ba08765214610428578063c63d75b61461043b578063c6e6f5921461044e57610227565b806395d89b41116100ff57806395d89b41146103ae5780639c7c722b146103b6578063a9059cbb146103c9578063a992714e146103dc578063ad1c095d146103ef57610227565b806370a0823114610378578063768ea56a1461038b578063858dccb31461039357806394bf804d1461039b57610227565b8063313ce567116101b35780633ba0b9a9116101825780633ba0b9a91461032f578063402d267d146103375780634cdad5061461034a5780636e553f651461035d5780636f307dc31461037057610227565b8063313ce567146102ea57806338d52e0f146102ff57806339de9746146103145780633a01b9641461032757610227565b80630a28a477116101fa5780630a28a4771461029257806318160ddd146102a55780631feeece2146102ad57806323b872dd146102c257806323de6651146102d557610227565b806301e1d1141461022c57806306fdde031461024a57806307a2d13a1461025f578063095ea7b314610272575b600080fd5b6102346104ad565b60405161024191906129e2565b60405180910390f35b6102526104bc565b6040516102419190612856565b61023461026d3660046126f2565b610549565b610285610280366004612507565b6105c4565b604051610241919061284b565b6102346102a03660046126f2565b61062a565b610234610668565b6102b5610672565b60405161024191906128dd565b6102856102d03660046124b2565b61067c565b6102e86102e33660046124b2565b6106d5565b005b6102f2610764565b60405161024191906129f9565b610307610769565b6040516102419190612812565b6102e86103223660046124f2565b61077f565b61023461087a565b610234610886565b6102346103453660046123fd565b6108bc565b6102346103583660046126f2565b6109c8565b61023461036b36600461270a565b6109d3565b610307610a7f565b6102346103863660046123fd565b610a95565b6102f2610aa0565b610307610aaf565b6102346103a936600461270a565b610ad3565b610252610b8d565b6102e86103c436600461256a565b610be5565b6102856103d7366004612507565b610d48565b6102e86103ea366004612666565b610d99565b6102e86103fd366004612507565b61106a565b6102346104103660046126f2565b611138565b61023461042336600461272e565b61116b565b61023461043636600461272e565b61124e565b6102346104493660046123fd565b6112f7565b61023461045c3660046126f2565b61131c565b6102e861046f36600461246d565b61133b565b6102346104823660046123fd565b61143f565b610234610495366004612435565b61144d565b6102346104a83660046126f2565b611459565b60006104b761146a565b905090565b60018054604080516020600284861615610100026000190190941693909304601f810184900484028201840190925281815292918301828280156105415780601f1061051657610100808354040283529160200191610541565b820191906000526020600020905b81548152906001019060200180831161052457829003601f168201915b505050505081565b6000806008600360029054906101000a900460ff1660ff161061057e576008600360029054906101000a900460ff1603610581565b60005b60ff16600a0a90506105bb816105b5836105af670de0b6b3a76400006105af6105a8610886565b8a9061156c565b90611593565b9061156c565b9150505b919050565b60006105d083836115b2565b9050801561062457826001600160a01b0316336001600160a01b03167f8c5be1e5ebec7d5bd14f71427d1e84f3dd0314c0f7b2291e5b200ac8c7c3b9258460405161061b91906129e2565b60405180910390a35b92915050565b60035460009060086201000090910460ff161061065a57610655600161064f8461131c565b90611661565b610624565b61062461045c836001611661565b60006104b7611673565b60035461ffff1681565b6000826001600160a01b0316846001600160a01b0316600080516020612a9e833981519152846040516106af91906129e2565b60405180910390a36106c284848461172c565b9050806106ce57600080fd5b9392505050565b336001600160a01b037f000000000000000000000000000000000000000000000000000000000000000016146107265760405162461bcd60e51b815260040161071d90612889565b60405180910390fd5b816001600160a01b0316836001600160a01b0316600080516020612a9e8339815191528360405161075791906129e2565b60405180910390a3505050565b600881565b600354630100000090046001600160a01b031690565b336001600160a01b037f000000000000000000000000000000000000000000000000000000000000000016146107c75760405162461bcd60e51b815260040161071d90612889565b836001600160a01b031660006001600160a01b0316600080516020612a9e833981519152846040516107f991906129e2565b60405180910390a3826001600160a01b0316846001600160a01b0316600080516020612a9e8339815191528360405161083291906129e2565b60405180910390a360006001600160a01b0316836001600160a01b0316600080516020612a9e8339815191528360405161086c91906129e2565b60405180910390a350505050565b670de0b6b3a764000081565b60008061089161146a565b9050600061089d611673565b90506108b5816105af84670de0b6b3a764000061156c565b9250505090565b60035460405163206f279960e01b8152600091829182916001600160a01b037f0000000000000000000000000000000000000000000000000000000000000000169163206f2799916109199161ffff9091169042906004016129ce565b6102006040518083038186803b15801561093257600080fd5b505afa158015610946573d6000803e3d6000fd5b505050506040513d601f19601f8201168201806040525081019061096a91906125cb565b5050935093505050816000141561098757600019925050506105bf565b808211610999576000925050506105bf565b6003546109bf906305f5e100906105af908486039062010000900460ff16600a0a61156c565b925050506105bf565b600061062482610549565b6000806109df846117e5565b90945090506109ef8482856119b5565b9150826001600160a01b031660006001600160a01b0316600080516020612a9e83398151915284604051610a2391906129e2565b60405180910390a3826001600160a01b0316336001600160a01b03167fdcbc1c05240f31ff3ad067ef1ee35ce4997762752e3a095284754544f4c709d78685604051610a709291906129eb565b60405180910390a35092915050565b600354630100000090046001600160a01b031681565b600061062482611a64565b60035462010000900460ff1681565b7f000000000000000000000000000000000000000000000000000000000000000081565b600080610adf84611138565b9150610aea826117e5565b90925090506000610afc8383866119b5565b9050836001600160a01b031660006001600160a01b0316600080516020612a9e83398151915283604051610b3091906129e2565b60405180910390a3836001600160a01b0316336001600160a01b03167fdcbc1c05240f31ff3ad067ef1ee35ce4997762752e3a095284754544f4c709d78584604051610b7d9291906129eb565b60405180910390a3505092915050565b6002805460408051602060018416156101000260001901909316849004601f810184900484028201840190925281815292918301828280156105415780601f1061051657610100808354040283529160200191610541565b7f00000000000000000000000000000000000000000000000000000000000000006001600160a01b0316638da5cb5b6040518163ffffffff1660e01b815260040160206040518083038186803b158015610c3e57600080fd5b505afa158015610c52573d6000803e3d6000fd5b505050506040513d601f19601f82011682018060405250810190610c769190612419565b6001600160a01b0316336001600160a01b031614610c9357600080fd5b6000806000610ca0611b26565b925092509250828583604051602001610cbb939291906127bf565b60405160208183030381529060405260019080519060200190610cdf929190612285565b508084604051602001610cf3929190612790565b60405160208183030381529060405260029080519060200190610d17929190612285565b506040517f8d4bc6886f1b5887a0c7da5cf5dbdf35c7bcced78089e0e522b49be05817699990600090a15050505050565b6000826001600160a01b0316336001600160a01b0316600080516020612a9e83398151915284604051610d7b91906129e2565b60405180910390a3610d8d8383611b61565b90508061062457600080fd5b336001600160a01b037f00000000000000000000000000000000000000000000000000000000000000001614610de15760405162461bcd60e51b815260040161071d90612889565b600054610100900460ff1680610dfa5750610dfa611bbe565b80610e08575060005460ff16155b610e435760405162461bcd60e51b815260040180806020018281038252602e815260200180612a70602e913960400191505060405180910390fd5b600054610100900460ff16158015610e6e576000805460ff1961ff0019909116610100171660011790555b6003805461ffff191661ffff871617905560008080610e8b611b26565b925092509250828683604051602001610ea6939291906127bf565b60405160208183030381529060405260019080519060200190610eca929190612285565b508085604051602001610ede929190612790565b60405160208183030381529060405260029080519060200190610f02929190612285565b506001600160a01b038716610f4257600380546301000000600160b81b0319167682af49447d8a07e3bd95bd0d56f35241523fbab1000000179055610f9c565b600380546301000000600160b81b03191663010000006001600160a01b038a811682029290921792839055610f9c9204167f0000000000000000000000000000000000000000000000000000000000000000600019611bcf565b60038054906101000a90046001600160a01b03166001600160a01b031663313ce5676040518163ffffffff1660e01b815260040160206040518083038186803b158015610fe857600080fd5b505afa158015610ffc573d6000803e3d6000fd5b505050506040513d601f19601f82011682018060405250810190611020919061276f565b6003805462ff000019166201000060ff93841681029190911791829055602491049091161061104e57600080fd5b5050508015611063576000805461ff00191690555b5050505050565b336001600160a01b037f000000000000000000000000000000000000000000000000000000000000000016146110b25760405162461bcd60e51b815260040161071d90612889565b60008112156110f95760006001600160a01b038316600080516020612a9e8339815191526110df84611ce7565b6040516110ec91906129e2565b60405180910390a3611134565b816001600160a01b031660006001600160a01b0316600080516020612a9e8339815191528360405161112b91906129e2565b60405180910390a35b5050565b60035460009060086201000090910460ff161061115d5761065561026d836001611661565b610624600161064f84610549565b60006111768461062a565b9050600061118383611a64565b9050808211156111a55760405162461bcd60e51b815260040161071d906128af565b60006111b2838686611cf5565b905060006001600160a01b0316846001600160a01b0316600080516020612a9e833981519152856040516111e691906129e2565b60405180910390a3836001600160a01b0316856001600160a01b0316336001600160a01b03167ffbde797d201c681b91056529119e0b02407c7bb96a4a2c75c01fc9667232c8db848760405161123d9291906129eb565b60405180910390a450509392505050565b60008061125c858585611cf5565b905060006001600160a01b0316836001600160a01b0316600080516020612a9e8339815191528760405161129091906129e2565b60405180910390a3826001600160a01b0316846001600160a01b0316336001600160a01b03167ffbde797d201c681b91056529119e0b02407c7bb96a4a2c75c01fc9667232c8db84896040516112e79291906129eb565b60405180910390a4949350505050565b60008061130460006108bc565b90506000198114156113175790506105bf565b6105bb815b6000610624611329610886565b6105af84670de0b6b3a764000061156c565b336001600160a01b037f000000000000000000000000000000000000000000000000000000000000000016146113835760405162461bcd60e51b815260040161071d90612889565b60008212156113d257826001600160a01b0316846001600160a01b0316600080516020612a9e8339815191526113b885611dae565b6040516113c591906129e2565b60405180910390a361140c565b836001600160a01b0316836001600160a01b0316600080516020612a9e8339815191528460405161140391906129e2565b60405180910390a35b610fee6001600160a01b0316846001600160a01b0316600080516020612a9e8339815191528360405161086c91906129e2565b600061062461026d83611a64565b60006106ce8383611dcf565b60006106248261131c565b3b151590565b60035460405163206f279960e01b8152600091829182916001600160a01b037f0000000000000000000000000000000000000000000000000000000000000000169163206f2799916114c79161ffff9091169042906004016129ce565b6102006040518083038186803b1580156114e057600080fd5b505afa1580156114f4573d6000803e3d6000fd5b505050506040513d601f19601f8201168201806040525081019061151891906125cb565b50505050915091506108b56115676305f5e100611561600360029054906101000a900460ff1660ff16600a0a61155b6115548760200151611e7a565b8890611e94565b90611edd565b90611f26565b611f57565b60008261157b57506000610624565b8282028284828161158857fe5b04146106ce57600080fd5b60008082116115a157600080fd5b8183816115aa57fe5b049392505050565b60035460405163ca2cc36160e01b81526000916001600160a01b037f0000000000000000000000000000000000000000000000000000000000000000169163ca2cc3619161160f9161ffff9091169033908890889060040161293d565b602060405180830381600087803b15801561162957600080fd5b505af115801561163d573d6000803e3d6000fd5b505050506040513d601f19601f820116820180604052508101906106ce9190612532565b6000828201838110156106ce57600080fd5b60035460405163206f279960e01b815260009182916001600160a01b037f0000000000000000000000000000000000000000000000000000000000000000169163206f2799916116cc9161ffff169042906004016129ce565b6102006040518083038186803b1580156116e557600080fd5b505afa1580156116f9573d6000803e3d6000fd5b505050506040513d601f19601f8201168201806040525081019061171d91906125cb565b50505050602001519392505050565b6003546040516372b88b2760e11b81526000916001600160a01b037f0000000000000000000000000000000000000000000000000000000000000000169163e571164e9161178b9161ffff909116903390899089908990600401612909565b602060405180830381600087803b1580156117a557600080fd5b505af11580156117b9573d6000803e3d6000fd5b505050506040513d601f19601f820116820180604052508101906117dd9190612532565b949350505050565b6003546040516370a0823160e01b815260009182918291630100000090046001600160a01b0316906370a0823190611821903090600401612812565b60206040518083038186803b15801561183957600080fd5b505afa15801561184d573d6000803e3d6000fd5b505050506040513d601f19601f820116820180604052508101906118719190612552565b905061189260038054906101000a90046001600160a01b0316333087611f66565b6003546040516370a0823160e01b8152600091630100000090046001600160a01b0316906370a08231906118ca903090600401612812565b60206040518083038186803b1580156118e257600080fd5b505afa1580156118f6573d6000803e3d6000fd5b505050506040513d601f19601f8201168201806040525081019061191a9190612552565b90506119268183611fc6565b60035490945061ffff16600114156119a957604051632e1a7d4d60e01b81527382af49447d8a07e3bd95bd0d56f35241523fbab190632e1a7d4d9061196f9087906004016129e2565b600060405180830381600087803b15801561198957600080fd5b505af115801561199d573d6000803e3d6000fd5b505050508392506119ae565b600092505b5050915091565b600354604051632890fb6560e01b81526000916001600160a01b037f00000000000000000000000000000000000000000000000000000000000000001691632890fb65918691611a1291879161ffff909116908a90600401612826565b6020604051808303818588803b158015611a2b57600080fd5b505af1158015611a3f573d6000803e3d6000fd5b50505050506040513d601f19601f820116820180604052508101906117dd9190612552565b6003546040516339df479160e01b815260009182916001600160a01b037f000000000000000000000000000000000000000000000000000000000000000016916339df479191611abd9161ffff169087906004016128ec565b60206040518083038186803b158015611ad557600080fd5b505afa158015611ae9573d6000803e3d6000fd5b505050506040513d601f19601f82011682018060405250810190611b0d9190612552565b905060008112611b1d57806105bb565b50600092915050565b60408051808201825260058152645072696d6560d81b602080830191909152825180840190935260018352600760fc1b908301529160609190565b600354604051631f1cd70760e21b81526000916001600160a01b037f00000000000000000000000000000000000000000000000000000000000000001691637c735c1c9161160f9161ffff9091169033908890889060040161293d565b6000611bc930611464565b15905090565b801580611c55575060408051636eb1769f60e11b81523060048201526001600160a01b03848116602483015291519185169163dd62ed3e91604480820192602092909190829003018186803b158015611c2757600080fd5b505afa158015611c3b573d6000803e3d6000fd5b505050506040513d6020811015611c5157600080fd5b5051155b611c905760405162461bcd60e51b8152600401808060200182810382526036815260200180612ae86036913960400191505060405180910390fd5b604080516001600160a01b038416602482015260448082018490528251808303909101815260649091019091526020810180516001600160e01b031663095ea7b360e01b179052611ce2908490611fdb565b505050565b600061062460001983611edd565b6003546000906001600160a01b037f0000000000000000000000000000000000000000000000000000000000000000169063912e33c79061ffff16848633611d3c8a61208c565b6040518663ffffffff1660e01b8152600401611d5c95949392919061298d565b602060405180830381600087803b158015611d7657600080fd5b505af1158015611d8a573d6000803e3d6000fd5b505050506040513d601f19601f820116820180604052508101906117dd9190612552565b600080821215611dc857611dc182611ce7565b90506105bf565b50806105bf565b600354604051634107597160e01b81526000916001600160a01b037f00000000000000000000000000000000000000000000000000000000000000001691634107597191611e2a9161ffff9091169087908790600401612968565b60206040518083038186803b158015611e4257600080fd5b505afa158015611e56573d6000803e3d6000fd5b505050506040513d601f19601f820116820180604052508101906106ce9190612552565b60006001600160ff1b03821115611e9057600080fd5b5090565b600080611ec16ec097ce7bc90715b34b9f1000000000611561866000015186611edd90919063ffffffff16565b905060008312611ed157806117dd565b6117dd816000196120a6565b818102600019831415611f0857811580611eff575082828281611efc57fe5b05145b61065557600080fd5b821580611f1d575081838281611f1a57fe5b05145b61062457600080fd5b600081600019148015611f3c5750600160ff1b83145b15611f4657600080fd5b818381611f4f57fe5b059392505050565b600080821215611e9057600080fd5b604080516001600160a01b0380861660248301528416604482015260648082018490528251808303909101815260849091019091526020810180516001600160e01b03166323b872dd60e01b179052611fc0908590611fdb565b50505050565b600082821115611fd557600080fd5b50900390565b6000612030826040518060400160405280602081526020017f5361666545524332303a206c6f772d6c6576656c2063616c6c206661696c6564815250856001600160a01b03166120bc9092919063ffffffff16565b805190915015611ce25780806020019051602081101561204f57600080fd5b5051611ce25760405162461bcd60e51b815260040180806020018281038252602a815260200180612abe602a913960400191505060405180910390fd5b60006affffffffffffffffffffff821115611e9057600080fd5b60008183126120b557816106ce565b5090919050565b60606117dd8484600085856120d085611464565b612121576040805162461bcd60e51b815260206004820152601d60248201527f416464726573733a2063616c6c20746f206e6f6e2d636f6e7472616374000000604482015290519081900360640190fd5b600080866001600160a01b031685876040518082805190602001908083835b6020831061215f5780518252601f199092019160209182019101612140565b6001836020036101000a03801982511681845116808217855250505050505090500191505060006040518083038185875af1925050503d80600081146121c1576040519150601f19603f3d011682016040523d82523d6000602084013e6121c6565b606091505b50915091506121d68282866121e1565b979650505050505050565b606083156121f05750816106ce565b8251156122005782518084602001fd5b8160405162461bcd60e51b81526004018080602001828103825283818151815260200191508051906020019080838360005b8381101561224a578181015183820152602001612232565b50505050905090810190601f1680156122775780820380516001836020036101000a031916815260200191505b509250505060405180910390fd5b828054600181600116156101000203166002900490600052602060002090601f0160209004810192826122bb5760008555612301565b82601f106122d457805160ff1916838001178555612301565b82800160010185558215612301579182015b828111156123015782518255916020019190600101906122e6565b50611e909291505b80821115611e905760008155600101612309565b600082601f83011261232d578081fd5b813567ffffffffffffffff81111561234157fe5b612354601f8201601f1916602001612a07565b818152846020838601011115612368578283fd5b816020850160208301379081016020019190915292915050565b6000610120808385031215612395578182fd5b61239e81612a07565b915050815181526020820151602082015260408201516040820152606082015160608201526080820151608082015260a082015160a082015260c082015160c082015260e082015160e082015261010080830151818301525092915050565b60006020828403121561240e578081fd5b81356106ce81612a57565b60006020828403121561242a578081fd5b81516106ce81612a57565b60008060408385031215612447578081fd5b823561245281612a57565b9150602083013561246281612a57565b809150509250929050565b60008060008060808587031215612482578182fd5b843561248d81612a57565b9350602085013561249d81612a57565b93969395505050506040820135916060013590565b6000806000606084860312156124c6578283fd5b83356124d181612a57565b925060208401356124e181612a57565b929592945050506040919091013590565b60008060008060808587031215612482578384fd5b60008060408385031215612519578182fd5b823561252481612a57565b946020939093013593505050565b600060208284031215612543578081fd5b815180151581146106ce578182fd5b600060208284031215612563578081fd5b5051919050565b6000806040838503121561257c578182fd5b823567ffffffffffffffff80821115612593578384fd5b61259f8683870161231d565b935060208501359150808211156125b4578283fd5b506125c18582860161231d565b9150509250929050565b6000806000806000808688036102008112156125e5578485fd5b60608112156125f2578485fd5b506040516060810181811067ffffffffffffffff8211171561261057fe5b6040908152885182526020808a0151908301528881015190820152955061263a8860608901612382565b945061018087015193506101a087015192506101c087015191506101e087015190509295509295509295565b6000806000806080858703121561267b578182fd5b843561ffff8116811461268c578283fd5b9350602085013561269c81612a57565b9250604085013567ffffffffffffffff808211156126b8578384fd5b6126c48883890161231d565b935060608701359150808211156126d9578283fd5b506126e68782880161231d565b91505092959194509250565b600060208284031215612703578081fd5b5035919050565b6000806040838503121561271c578182fd5b82359150602083013561246281612a57565b600080600060608486031215612742578081fd5b83359250602084013561275481612a57565b9150604084013561276481612a57565b809150509250925092565b600060208284031215612780578081fd5b815160ff811681146106ce578182fd5b600083516127a2818460208801612a2b565b8351908301906127b6818360208801612a2b565b01949350505050565b600084516127d1818460208901612a2b565b600160fd1b90830190815284516127ef816001840160208901612a2b565b8451910190612805816001840160208801612a2b565b0160010195945050505050565b6001600160a01b0391909116815260200190565b6001600160a01b0393909316835261ffff919091166020830152604082015260600190565b901515815260200190565b6000602082528251806020840152612875816040850160208701612a2b565b601f01601f19169190910160400192915050565b6020808252600c908201526b155b985d5d1a1bdc9a5e995960a21b604082015260600190565b602080825260149082015273496e73756666696369656e742042616c616e636560601b604082015260600190565b61ffff91909116815260200190565b61ffff9290921682526001600160a01b0316602082015260400190565b61ffff9590951685526001600160a01b03938416602086015291831660408501529091166060830152608082015260a00190565b61ffff9490941684526001600160a01b03928316602085015291166040830152606082015260800190565b61ffff9390931683526001600160a01b03918216602084015216604082015260600190565b61ffff9590951685526001600160a01b039384166020860152918316604085015290911660608301526affffffffffffffffffffff16608082015260a00190565b61ffff929092168252602082015260400190565b90815260200190565b918252602082015260400190565b60ff91909116815260200190565b60405181810167ffffffffffffffff81118282101715612a2357fe5b604052919050565b60005b83811015612a46578181015183820152602001612a2e565b83811115611fc05750506000910152565b6001600160a01b0381168114612a6c57600080fd5b5056fe496e697469616c697a61626c653a20636f6e747261637420697320616c726561647920696e697469616c697a6564ddf252ad1be2c89b69c2b068fc378daa952ba7f163c4a11628f55a4df523b3ef5361666545524332303a204552433230206f7065726174696f6e20646964206e6f7420737563636565645361666545524332303a20617070726f76652066726f6d206e6f6e2d7a65726f20746f206e6f6e2d7a65726f20616c6c6f77616e6365a26469706673582212205ce9b65236f1e9b4c7076e0af2351d4d1f924590bce8f160df31085d6f200b9964736f6c63430007060033496e697469616c697a61626c653a20636f6e747261637420697320616c726561647920696e697469616c697a6564","bytecodeSha1":"da39a3ee5e6b4b0d3255bfef95601890afd80709","compiler":{"evm_version":"istanbul","optimizer":{"enabled":true,"runs":200},"version":"0.7.6+commit.7338295f"},"contractName":"PrimeCashProxy","language":"Solidity","natspec":{"kind":"dev","methods":{"EXCHANGE_RATE_PRECISION()":{"notice":"Precision for exchangeRate()"},"NOTIONAL()":{"notice":"Address of the notional proxy, proxies only have access to a subset of the methods"},"approve(address,uint256)":{"details":"Sets `amount` as the allowance of `spender` over the caller's tokens. Returns a boolean value indicating whether the operation succeeded. IMPORTANT: Beware that changing an allowance with this method brings the risk that someone may use both the old and the new allowance by unfortunate transaction ordering. One possible solution to mitigate this race condition is to first reduce the spender's allowance to 0 and set the desired value afterwards: https://github.com/ethereum/EIPs/issues/20#issuecomment-263524729 Emits an {Approval} event."},"asset()":{"notice":"Returns the asset token reference by IERC4626, uses the underlying token as the asset for ERC4626 so that it is compatible with more use cases."},"balanceOf(address)":{"notice":"Required ERC20 Methods "},"convertToAssets(uint256)":{"details":"Returns the amount of assets that the Vault would exchange for the amount of shares provided, in an ideal scenario where all the conditions are met. - MUST NOT be inclusive of any fees that are charged against assets in the Vault. - MUST NOT show any variations depending on the caller. - MUST NOT reflect slippage or other on-chain conditions, when performing the actual exchange. - MUST NOT revert. NOTE: This calculation MAY NOT reflect the \"per-user\" price-per-share, and instead should reflect the \"average-user's\" price-per-share, meaning what the average user should expect to see when exchanging to and from."},"convertToShares(uint256)":{"details":"Returns the amount of shares that the Vault would exchange for the amount of assets provided, in an ideal scenario where all the conditions are met. - MUST NOT be inclusive of any fees that are charged against assets in the Vault. - MUST NOT show any variations depending on the caller. - MUST NOT reflect slippage or other on-chain conditions, when performing the actual exchange. - MUST NOT revert. NOTE: This calculation MAY NOT reflect the \"per-user\" price-per-share, and instead should reflect the \"average-user's\" price-per-share, meaning what the average user should expect to see when exchanging to and from."},"currencyId()":{"notice":"Currency id that this nToken refers to"},"decimals()":{"notice":"Inherits from Constants.INTERNAL_TOKEN_PRECISION"},"deposit(uint256,address)":{"details":"The proxy contract will first transfer the assets to the contract and then transfer them to Notional.","notice":"Deposits assets into Notional and mints either prime cash or nTokens. Unlike the wrapped fCash proxy this will not hold prime cash assets on the contract and wrap them, the assets will be deposited directly into the user's account and may be used as collateral."},"emitMintOrBurn(address,int256)":{"notice":"Convenience method for minting and burning"},"emitMintTransferBurn(address,address,uint256,uint256)":{"notice":"Convenience method for mint, transfer and burn. Used in vaults to record margin deposits and withdraws."},"emitTransfer(address,address,uint256)":{"notice":"Allows ERC20 transfer events to be emitted from the proper address so that wallet tools can properly track balances."},"emitfCashTradeTransfers(address,address,int256,uint256)":{"notice":"Only used on pCash when fCash is traded."},"maxDeposit(address)":{"notice":"Gets the max underlying supply"},"maxMint(address)":{"notice":"Gets the max underlying supply and converts it to shares"},"maxRedeem(address)":{"details":"Returns the maximum amount of Vault shares that can be redeemed from the owner balance in the Vault, through a redeem call. - MUST return a limited value if owner is subject to some withdrawal limit or timelock. - MUST return balanceOf(owner) if owner is not subject to any withdrawal limit or timelock. - MUST NOT revert."},"maxWithdraw(address)":{"details":"Returns the maximum amount of the underlying asset that can be withdrawn from the owner balance in the Vault, through a withdraw call. - MUST return a limited value if owner is subject to some withdrawal limit or timelock. - MUST NOT revert."},"mint(uint256,address)":{"notice":"Similar to deposit, however the amount of shares are specified instead."},"name()":{"notice":"Will be \"[Staked] nToken {Underlying Token}.name()\", therefore \"USD Coin\" will be \"nToken USD Coin\" for the regular nToken and \"Staked nToken USD Coin\" for the staked version."},"nativeDecimals()":{"notice":"Native underlying decimal places"},"previewDeposit(uint256)":{"details":"Will round down inside convertToShares. Deposits more closely match how Notional processes minting within the protocol.","notice":"Deposits are based on the conversion rate assets to shares."},"previewMint(uint256)":{"details":"Will be called during `mint` to calculate how much assets to transfer. Therefore, there may be some rounding errors when the number of shares minted does not match what is requested.","notice":"Mints are based on the conversion rate from shares to assets."},"previewRedeem(uint256)":{"notice":"Calculates how much assets will be returned when redeeming the given amount of shares."},"previewWithdraw(uint256)":{"notice":"Calculates how many shares need to be redeemed to receive the specified amount of assets."},"redeem(uint256,address,address)":{"notice":"Redeems the asset from Notional and they will be transferred to the receiver."},"symbol()":{"notice":"Will be \"[s]n{Underlying Token}.symbol()\", therefore \"USDC\" will be \"nUSDC\""},"totalAssets()":{"notice":"Returns the total present value of the assets held in native underlying token precision"},"totalSupply()":{"details":"Returns the amount of tokens in existence."},"underlying()":{"notice":"ERC20 underlying token referred to as the \"asset\" in IERC4626"},"withdraw(uint256,address,address)":{"notice":"Withdraws the asset from Notional and they will be transferred to the receiver."}},"version":1},"opcodes":"PUSH1 0x80 PUSH1 0x40 MSTORE CALLVALUE DUP1 ISZERO PUSH2 0x10 JUMPI PUSH1 0x0 DUP1 REVERT JUMPDEST POP PUSH1 0x4 CALLDATASIZE LT PUSH2 0x227 JUMPI PUSH1 0x0 CALLDATALOAD PUSH1 0xE0 SHR DUP1 PUSH4 0x70A08231 GT PUSH2 0x130 JUMPI DUP1 PUSH4 0xB3D7F6B9 GT PUSH2 0xB8 JUMPI DUP1 PUSH4 0xCCB2D5ED GT PUSH2 0x7C JUMPI DUP1 PUSH4 0xCCB2D5ED EQ PUSH2 0x461 JUMPI DUP1 PUSH4 0xCE96CB77 EQ PUSH2 0x474 JUMPI DUP1 PUSH4 0xD905777E EQ PUSH2 0x378 JUMPI DUP1 PUSH4 0xDD62ED3E EQ PUSH2 0x487 JUMPI DUP1 PUSH4 0xEF8B30F7 EQ PUSH2 0x49A JUMPI PUSH2 0x227 JUMP JUMPDEST DUP1 PUSH4 0xB3D7F6B9 EQ PUSH2 0x402 JUMPI DUP1 PUSH4 0xB460AF94 EQ PUSH2 0x415 JUMPI DUP1 PUSH4 0xBA087652 EQ PUSH2 0x428 JUMPI DUP1 PUSH4 0xC63D75B6 EQ PUSH2 0x43B JUMPI DUP1 PUSH4 0xC6E6F592 EQ PUSH2 0x44E JUMPI PUSH2 0x227 JUMP JUMPDEST DUP1 PUSH4 0x95D89B41 GT PUSH2 0xFF JUMPI DUP1 PUSH4 0x95D89B41 EQ PUSH2 0x3AE JUMPI DUP1 PUSH4 0x9C7C722B EQ PUSH2 0x3B6 JUMPI DUP1 PUSH4 0xA9059CBB EQ PUSH2 0x3C9 JUMPI DUP1 PUSH4 0xA992714E EQ PUSH2 0x3DC JUMPI DUP1 PUSH4 0xAD1C095D EQ PUSH2 0x3EF JUMPI PUSH2 0x227 JUMP JUMPDEST DUP1 PUSH4 0x70A08231 EQ PUSH2 0x378 JUMPI DUP1 PUSH4 0x768EA56A EQ PUSH2 0x38B JUMPI DUP1 PUSH4 0x858DCCB3 EQ PUSH2 0x393 JUMPI DUP1 PUSH4 0x94BF804D EQ PUSH2 0x39B JUMPI PUSH2 0x227 JUMP JUMPDEST DUP1 PUSH4 0x313CE567 GT PUSH2 0x1B3 JUMPI DUP1 PUSH4 0x3BA0B9A9 GT PUSH2 0x182 JUMPI DUP1 PUSH4 0x3BA0B9A9 EQ PUSH2 0x32F JUMPI DUP1 PUSH4 0x402D267D EQ PUSH2 0x337 JUMPI DUP1 PUSH4 0x4CDAD506 EQ PUSH2 0x34A JUMPI DUP1 PUSH4 0x6E553F65 EQ PUSH2 0x35D JUMPI DUP1 PUSH4 0x6F307DC3 EQ PUSH2 0x370 JUMPI PUSH2 0x227 JUMP JUMPDEST DUP1 PUSH4 0x313CE567 EQ PUSH2 0x2EA JUMPI DUP1 PUSH4 0x38D52E0F EQ PUSH2 0x2FF JUMPI DUP1 PUSH4 0x39DE9746 EQ PUSH2 0x314 JUMPI DUP1 PUSH4 0x3A01B964 EQ PUSH2 0x327 JUMPI PUSH2 0x227 JUMP JUMPDEST DUP1 PUSH4 0xA28A477 GT PUSH2 0x1FA JUMPI DUP1 PUSH4 0xA28A477 EQ PUSH2 0x292 JUMPI DUP1 PUSH4 0x18160DDD EQ PUSH2 0x2A5 JUMPI DUP1 PUSH4 0x1FEEECE2 EQ PUSH2 0x2AD JUMPI DUP1 PUSH4 0x23B872DD EQ PUSH2 0x2C2 JUMPI DUP1 PUSH4 0x23DE6651 EQ PUSH2 0x2D5 JUMPI PUSH2 0x227 JUMP JUMPDEST DUP1 PUSH4 0x1E1D114 EQ PUSH2 0x22C JUMPI DUP1 PUSH4 0x6FDDE03 EQ PUSH2 0x24A JUMPI DUP1 PUSH4 0x7A2D13A EQ PUSH2 0x25F JUMPI DUP1 PUSH4 0x95EA7B3 EQ PUSH2 0x272 JUMPI JUMPDEST PUSH1 0x0 DUP1 REVERT JUMPDEST PUSH2 0x234 PUSH2 0x4AD JUMP JUMPDEST PUSH1 0x40 MLOAD PUSH2 0x241 SWAP2 SWAP1 PUSH2 0x29E2 JUMP JUMPDEST PUSH1 0x40 MLOAD DUP1 SWAP2 SUB SWAP1 RETURN JUMPDEST PUSH2 0x252 PUSH2 0x4BC JUMP JUMPDEST PUSH1 0x40 MLOAD PUSH2 0x241 SWAP2 SWAP1 PUSH2 0x2856 JUMP JUMPDEST PUSH2 0x234 PUSH2 0x26D CALLDATASIZE PUSH1 0x4 PUSH2 0x26F2 JUMP JUMPDEST PUSH2 0x549 JUMP JUMPDEST PUSH2 0x285 PUSH2 0x280 CALLDATASIZE PUSH1 0x4 PUSH2 0x2507 JUMP JUMPDEST PUSH2 0x5C4 JUMP JUMPDEST PUSH1 0x40 MLOAD PUSH2 0x241 SWAP2 SWAP1 PUSH2 0x284B JUMP JUMPDEST PUSH2 0x234 PUSH2 0x2A0 CALLDATASIZE PUSH1 0x4 PUSH2 0x26F2 JUMP JUMPDEST PUSH2 0x62A JUMP JUMPDEST PUSH2 0x234 PUSH2 0x668 JUMP JUMPDEST PUSH2 0x2B5 PUSH2 0x672 JUMP JUMPDEST PUSH1 0x40 MLOAD PUSH2 0x241 SWAP2 SWAP1 PUSH2 0x28DD JUMP JUMPDEST PUSH2 0x285 PUSH2 0x2D0 CALLDATASIZE PUSH1 0x4 PUSH2 0x24B2 JUMP JUMPDEST PUSH2 0x67C JUMP JUMPDEST PUSH2 0x2E8 PUSH2 0x2E3 CALLDATASIZE PUSH1 0x4 PUSH2 0x24B2 JUMP JUMPDEST PUSH2 0x6D5 JUMP JUMPDEST STOP JUMPDEST PUSH2 0x2F2 PUSH2 0x764 JUMP JUMPDEST PUSH1 0x40 MLOAD PUSH2 0x241 SWAP2 SWAP1 PUSH2 0x29F9 JUMP JUMPDEST PUSH2 0x307 PUSH2 0x769 JUMP JUMPDEST PUSH1 0x40 MLOAD PUSH2 0x241 SWAP2 SWAP1 PUSH2 0x2812 JUMP JUMPDEST PUSH2 0x2E8 PUSH2 0x322 CALLDATASIZE PUSH1 0x4 PUSH2 0x24F2 JUMP JUMPDEST PUSH2 0x77F JUMP JUMPDEST PUSH2 0x234 PUSH2 0x87A JUMP JUMPDEST PUSH2 0x234 PUSH2 0x886 JUMP JUMPDEST PUSH2 0x234 PUSH2 0x345 CALLDATASIZE PUSH1 0x4 PUSH2 0x23FD JUMP JUMPDEST PUSH2 0x8BC JUMP JUMPDEST PUSH2 0x234 PUSH2 0x358 CALLDATASIZE PUSH1 0x4 PUSH2 0x26F2 JUMP JUMPDEST PUSH2 0x9C8 JUMP JUMPDEST PUSH2 0x234 PUSH2 0x36B CALLDATASIZE PUSH1 0x4 PUSH2 0x270A JUMP JUMPDEST PUSH2 0x9D3 JUMP JUMPDEST PUSH2 0x307 PUSH2 0xA7F JUMP JUMPDEST PUSH2 0x234 PUSH2 0x386 CALLDATASIZE PUSH1 0x4 PUSH2 0x23FD JUMP JUMPDEST PUSH2 0xA95 JUMP JUMPDEST PUSH2 0x2F2 PUSH2 0xAA0 JUMP JUMPDEST PUSH2 0x307 PUSH2 0xAAF JUMP JUMPDEST PUSH2 0x234 PUSH2 0x3A9 CALLDATASIZE PUSH1 0x4 PUSH2 0x270A JUMP JUMPDEST PUSH2 0xAD3 JUMP JUMPDEST PUSH2 0x252 PUSH2 0xB8D JUMP JUMPDEST PUSH2 0x2E8 PUSH2 0x3C4 CALLDATASIZE PUSH1 0x4 PUSH2 0x256A JUMP JUMPDEST PUSH2 0xBE5 JUMP JUMPDEST PUSH2 0x285 PUSH2 0x3D7 CALLDATASIZE PUSH1 0x4 PUSH2 0x2507 JUMP JUMPDEST PUSH2 0xD48 JUMP JUMPDEST PUSH2 0x2E8 PUSH2 0x3EA CALLDATASIZE PUSH1 0x4 PUSH2 0x2666 JUMP JUMPDEST PUSH2 0xD99 JUMP JUMPDEST PUSH2 0x2E8 PUSH2 0x3FD CALLDATASIZE PUSH1 0x4 PUSH2 0x2507 JUMP JUMPDEST PUSH2 0x106A JUMP JUMPDEST PUSH2 0x234 PUSH2 0x410 CALLDATASIZE PUSH1 0x4 PUSH2 0x26F2 JUMP JUMPDEST PUSH2 0x1138 JUMP JUMPDEST PUSH2 0x234 PUSH2 0x423 CALLDATASIZE PUSH1 0x4 PUSH2 0x272E JUMP JUMPDEST PUSH2 0x116B JUMP JUMPDEST PUSH2 0x234 PUSH2 0x436 CALLDATASIZE PUSH1 0x4 PUSH2 0x272E JUMP JUMPDEST PUSH2 0x124E JUMP JUMPDEST PUSH2 0x234 PUSH2 0x449 CALLDATASIZE PUSH1 0x4 PUSH2 0x23FD JUMP JUMPDEST PUSH2 0x12F7 JUMP JUMPDEST PUSH2 0x234 PUSH2 0x45C CALLDATASIZE PUSH1 0x4 PUSH2 0x26F2 JUMP JUMPDEST PUSH2 0x131C JUMP JUMPDEST PUSH2 0x2E8 PUSH2 0x46F CALLDATASIZE PUSH1 0x4 PUSH2 0x246D JUMP JUMPDEST PUSH2 0x133B JUMP JUMPDEST PUSH2 0x234 PUSH2 0x482 CALLDATASIZE PUSH1 0x4 PUSH2 0x23FD JUMP JUMPDEST PUSH2 0x143F JUMP JUMPDEST PUSH2 0x234 PUSH2 0x495 CALLDATASIZE PUSH1 0x4 PUSH2 0x2435 JUMP JUMPDEST PUSH2 0x144D JUMP JUMPDEST PUSH2 0x234 PUSH2 0x4A8 CALLDATASIZE PUSH1 0x4 PUSH2 0x26F2 JUMP JUMPDEST PUSH2 0x1459 JUMP JUMPDEST PUSH1 0x0 PUSH2 0x4B7 PUSH2 0x146A JUMP JUMPDEST SWAP1 POP SWAP1 JUMP JUMPDEST PUSH1 0x1 DUP1 SLOAD PUSH1 0x40 DUP1 MLOAD PUSH1 0x20 PUSH1 0x2 DUP5 DUP7 AND ISZERO PUSH2 0x100 MUL PUSH1 0x0 NOT ADD SWAP1 SWAP5 AND SWAP4 SWAP1 SWAP4 DIV PUSH1 0x1F DUP2 ADD DUP5 SWAP1 DIV DUP5 MUL DUP3 ADD DUP5 ADD SWAP1 SWAP3 MSTORE DUP2 DUP2 MSTORE SWAP3 SWAP2 DUP4 ADD DUP3 DUP3 DUP1 ISZERO PUSH2 0x541 JUMPI DUP1 PUSH1 0x1F LT PUSH2 0x516 JUMPI PUSH2 0x100 DUP1 DUP4 SLOAD DIV MUL DUP4 MSTORE SWAP2 PUSH1 0x20 ADD SWAP2 PUSH2 0x541 JUMP JUMPDEST DUP3 ADD SWAP2 SWAP1 PUSH1 0x0 MSTORE PUSH1 0x20 PUSH1 0x0 KECCAK256 SWAP1 JUMPDEST DUP2 SLOAD DUP2 MSTORE SWAP1 PUSH1 0x1 ADD SWAP1 PUSH1 0x20 ADD DUP1 DUP4 GT PUSH2 0x524 JUMPI DUP3 SWAP1 SUB PUSH1 0x1F AND DUP3 ADD SWAP2 JUMPDEST POP POP POP POP POP DUP2 JUMP JUMPDEST PUSH1 0x0 DUP1 PUSH1 0x8 PUSH1 0x3 PUSH1 0x2 SWAP1 SLOAD SWAP1 PUSH2 0x100 EXP SWAP1 DIV PUSH1 0xFF AND PUSH1 0xFF AND LT PUSH2 0x57E JUMPI PUSH1 0x8 PUSH1 0x3 PUSH1 0x2 SWAP1 SLOAD SWAP1 PUSH2 0x100 EXP SWAP1 DIV PUSH1 0xFF AND SUB PUSH2 0x581 JUMP JUMPDEST PUSH1 0x0 JUMPDEST PUSH1 0xFF AND PUSH1 0xA EXP SWAP1 POP PUSH2 0x5BB DUP2 PUSH2 0x5B5 DUP4 PUSH2 0x5AF PUSH8 0xDE0B6B3A7640000 PUSH2 0x5AF PUSH2 0x5A8 PUSH2 0x886 JUMP JUMPDEST DUP11 SWAP1 PUSH2 0x156C JUMP JUMPDEST SWAP1 PUSH2 0x1593 JUMP JUMPDEST SWAP1 PUSH2 0x156C JUMP JUMPDEST SWAP2 POP POP JUMPDEST SWAP2 SWAP1 POP JUMP JUMPDEST PUSH1 0x0 PUSH2 0x5D0 DUP4 DUP4 PUSH2 0x15B2 JUMP JUMPDEST SWAP1 POP DUP1 ISZERO PUSH2 0x624 JUMPI DUP3 PUSH1 0x1 PUSH1 0x1 PUSH1 0xA0 SHL SUB AND CALLER PUSH1 0x1 PUSH1 0x1 PUSH1 0xA0 SHL SUB AND PUSH32 0x8C5BE1E5EBEC7D5BD14F71427D1E84F3DD0314C0F7B2291E5B200AC8C7C3B925 DUP5 PUSH1 0x40 MLOAD PUSH2 0x61B SWAP2 SWAP1 PUSH2 0x29E2 JUMP JUMPDEST PUSH1 0x40 MLOAD DUP1 SWAP2 SUB SWAP1 LOG3 JUMPDEST SWAP3 SWAP2 POP POP JUMP JUMPDEST PUSH1 0x3 SLOAD PUSH1 0x0 SWAP1 PUSH1 0x8 PUSH3 0x10000 SWAP1 SWAP2 DIV PUSH1 0xFF AND LT PUSH2 0x65A JUMPI PUSH2 0x655 PUSH1 0x1 PUSH2 0x64F DUP5 PUSH2 0x131C JUMP JUMPDEST SWAP1 PUSH2 0x1661 JUMP JUMPDEST PUSH2 0x624 JUMP JUMPDEST PUSH2 0x624 PUSH2 0x45C DUP4 PUSH1 0x1 PUSH2 0x1661 JUMP JUMPDEST PUSH1 0x0 PUSH2 0x4B7 PUSH2 0x1673 JUMP JUMPDEST PUSH1 0x3 SLOAD PUSH2 0xFFFF AND DUP2 JUMP JUMPDEST PUSH1 0x0 DUP3 PUSH1 0x1 PUSH1 0x1 PUSH1 0xA0 SHL SUB AND DUP5 PUSH1 0x1 PUSH1 0x1 PUSH1 0xA0 SHL SUB AND PUSH1 0x0 DUP1 MLOAD PUSH1 0x20 PUSH2 0x2A9E DUP4 CODECOPY DUP2 MLOAD SWAP2 MSTORE DUP5 PUSH1 0x40 MLOAD PUSH2 0x6AF SWAP2 SWAP1 PUSH2 0x29E2 JUMP JUMPDEST PUSH1 0x40 MLOAD DUP1 SWAP2 SUB SWAP1 LOG3 PUSH2 0x6C2 DUP5 DUP5 DUP5 PUSH2 0x172C JUMP JUMPDEST SWAP1 POP DUP1 PUSH2 0x6CE JUMPI PUSH1 0x0 DUP1 REVERT JUMPDEST SWAP4 SWAP3 POP POP POP JUMP JUMPDEST CALLER PUSH1 0x1 PUSH1 0x1 PUSH1 0xA0 SHL SUB PUSH32 0x0 AND EQ PUSH2 0x726 JUMPI PUSH1 0x40 MLOAD PUSH3 0x461BCD PUSH1 0xE5 SHL DUP2 MSTORE PUSH1 0x4 ADD PUSH2 0x71D SWAP1 PUSH2 0x2889 JUMP JUMPDEST PUSH1 0x40 MLOAD DUP1 SWAP2 SUB SWAP1 REVERT JUMPDEST DUP2 PUSH1 0x1 PUSH1 0x1 PUSH1 0xA0 SHL SUB AND DUP4 PUSH1 0x1 PUSH1 0x1 PUSH1 0xA0 SHL SUB AND PUSH1 0x0 DUP1 MLOAD PUSH1 0x20 PUSH2 0x2A9E DUP4 CODECOPY DUP2 MLOAD SWAP2 MSTORE DUP4 PUSH1 0x40 MLOAD PUSH2 0x757 SWAP2 SWAP1 PUSH2 0x29E2 JUMP JUMPDEST PUSH1 0x40 MLOAD DUP1 SWAP2 SUB SWAP1 LOG3 POP POP POP JUMP JUMPDEST PUSH1 0x8 DUP2 JUMP JUMPDEST PUSH1 0x3 SLOAD PUSH4 0x1000000 SWAP1 DIV PUSH1 0x1 PUSH1 0x1 PUSH1 0xA0 SHL SUB AND SWAP1 JUMP JUMPDEST CALLER PUSH1 0x1 PUSH1 0x1 PUSH1 0xA0 SHL SUB PUSH32 0x0 AND EQ PUSH2 0x7C7 JUMPI PUSH1 0x40 MLOAD PUSH3 0x461BCD PUSH1 0xE5 SHL DUP2 MSTORE PUSH1 0x4 ADD PUSH2 0x71D SWAP1 PUSH2 0x2889 JUMP JUMPDEST DUP4 PUSH1 0x1 PUSH1 0x1 PUSH1 0xA0 SHL SUB AND PUSH1 0x0 PUSH1 0x1 PUSH1 0x1 PUSH1 0xA0 SHL SUB AND PUSH1 0x0 DUP1 MLOAD PUSH1 0x20 PUSH2 0x2A9E DUP4 CODECOPY DUP2 MLOAD SWAP2 MSTORE DUP5 PUSH1 0x40 MLOAD PUSH2 0x7F9 SWAP2 SWAP1 PUSH2 0x29E2 JUMP JUMPDEST PUSH1 0x40 MLOAD DUP1 SWAP2 SUB SWAP1 LOG3 DUP3 PUSH1 0x1 PUSH1 0x1 PUSH1 0xA0 SHL SUB AND DUP5 PUSH1 0x1 PUSH1 0x1 PUSH1 0xA0 SHL SUB AND PUSH1 0x0 DUP1 MLOAD PUSH1 0x20 PUSH2 0x2A9E DUP4 CODECOPY DUP2 MLOAD SWAP2 MSTORE DUP4 PUSH1 0x40 MLOAD PUSH2 0x832 SWAP2 SWAP1 PUSH2 0x29E2 JUMP JUMPDEST PUSH1 0x40 MLOAD DUP1 SWAP2 SUB SWAP1 LOG3 PUSH1 0x0 PUSH1 0x1 PUSH1 0x1 PUSH1 0xA0 SHL SUB AND DUP4 PUSH1 0x1 PUSH1 0x1 PUSH1 0xA0 SHL SUB AND PUSH1 0x0 DUP1 MLOAD PUSH1 0x20 PUSH2 0x2A9E DUP4 CODECOPY DUP2 MLOAD SWAP2 MSTORE DUP4 PUSH1 0x40 MLOAD PUSH2 0x86C SWAP2 SWAP1 PUSH2 0x29E2 JUMP JUMPDEST PUSH1 0x40 MLOAD DUP1 SWAP2 SUB SWAP1 LOG3 POP POP POP POP JUMP JUMPDEST PUSH8 0xDE0B6B3A7640000 DUP2 JUMP JUMPDEST PUSH1 0x0 DUP1 PUSH2 0x891 PUSH2 0x146A JUMP JUMPDEST SWAP1 POP PUSH1 0x0 PUSH2 0x89D PUSH2 0x1673 JUMP JUMPDEST SWAP1 POP PUSH2 0x8B5 DUP2 PUSH2 0x5AF DUP5 PUSH8 0xDE0B6B3A7640000 PUSH2 0x156C JUMP JUMPDEST SWAP3 POP POP POP SWAP1 JUMP JUMPDEST PUSH1 0x3 SLOAD PUSH1 0x40 MLOAD PUSH4 0x206F2799 PUSH1 0xE0 SHL DUP2 MSTORE PUSH1 0x0 SWAP2 DUP3 SWAP2 DUP3 SWAP2 PUSH1 0x1 PUSH1 0x1 PUSH1 0xA0 SHL SUB PUSH32 0x0 AND SWAP2 PUSH4 0x206F2799 SWAP2 PUSH2 0x919 SWAP2 PUSH2 0xFFFF SWAP1 SWAP2 AND SWAP1 TIMESTAMP SWAP1 PUSH1 0x4 ADD PUSH2 0x29CE JUMP JUMPDEST PUSH2 0x200 PUSH1 0x40 MLOAD DUP1 DUP4 SUB DUP2 DUP7 DUP1 EXTCODESIZE ISZERO DUP1 ISZERO PUSH2 0x932 JUMPI PUSH1 0x0 DUP1 REVERT JUMPDEST POP GAS STATICCALL ISZERO DUP1 ISZERO PUSH2 0x946 JUMPI RETURNDATASIZE PUSH1 0x0 DUP1 RETURNDATACOPY RETURNDATASIZE PUSH1 0x0 REVERT JUMPDEST POP POP POP POP PUSH1 0x40 MLOAD RETURNDATASIZE PUSH1 0x1F NOT PUSH1 0x1F DUP3 ADD AND DUP3 ADD DUP1 PUSH1 0x40 MSTORE POP DUP2 ADD SWAP1 PUSH2 0x96A SWAP2 SWAP1 PUSH2 0x25CB JUMP JUMPDEST POP POP SWAP4 POP SWAP4 POP POP POP DUP2 PUSH1 0x0 EQ ISZERO PUSH2 0x987 JUMPI PUSH1 0x0 NOT SWAP3 POP POP POP PUSH2 0x5BF JUMP JUMPDEST DUP1 DUP3 GT PUSH2 0x999 JUMPI PUSH1 0x0 SWAP3 POP POP POP PUSH2 0x5BF JUMP JUMPDEST PUSH1 0x3 SLOAD PUSH2 0x9BF SWAP1 PUSH4 0x5F5E100 SWAP1 PUSH2 0x5AF SWAP1 DUP5 DUP7 SUB SWAP1 PUSH3 0x10000 SWAP1 DIV PUSH1 0xFF AND PUSH1 0xA EXP PUSH2 0x156C JUMP JUMPDEST SWAP3 POP POP POP PUSH2 0x5BF JUMP JUMPDEST PUSH1 0x0 PUSH2 0x624 DUP3 PUSH2 0x549 JUMP JUMPDEST PUSH1 0x0 DUP1 PUSH2 0x9DF DUP5 PUSH2 0x17E5 JUMP JUMPDEST SWAP1 SWAP5 POP SWAP1 POP PUSH2 0x9EF DUP5 DUP3 DUP6 PUSH2 0x19B5 JUMP JUMPDEST SWAP2 POP DUP3 PUSH1 0x1 PUSH1 0x1 PUSH1 0xA0 SHL SUB AND PUSH1 0x0 PUSH1 0x1 PUSH1 0x1 PUSH1 0xA0 SHL SUB AND PUSH1 0x0 DUP1 MLOAD PUSH1 0x20 PUSH2 0x2A9E DUP4 CODECOPY DUP2 MLOAD SWAP2 MSTORE DUP5 PUSH1 0x40 MLOAD PUSH2 0xA23 SWAP2 SWAP1 PUSH2 0x29E2 JUMP JUMPDEST PUSH1 0x40 MLOAD DUP1 SWAP2 SUB SWAP1 LOG3 DUP3 PUSH1 0x1 PUSH1 0x1 PUSH1 0xA0 SHL SUB AND CALLER PUSH1 0x1 PUSH1 0x1 PUSH1 0xA0 SHL SUB AND PUSH32 0xDCBC1C05240F31FF3AD067EF1EE35CE4997762752E3A095284754544F4C709D7 DUP7 DUP6 PUSH1 0x40 MLOAD PUSH2 0xA70 SWAP3 SWAP2 SWAP1 PUSH2 0x29EB JUMP JUMPDEST PUSH1 0x40 MLOAD DUP1 SWAP2 SUB SWAP1 LOG3 POP SWAP3 SWAP2 POP POP JUMP JUMPDEST PUSH1 0x3 SLOAD PUSH4 0x1000000 SWAP1 DIV PUSH1 0x1 PUSH1 0x1 PUSH1 0xA0 SHL SUB AND DUP2 JUMP JUMPDEST PUSH1 0x0 PUSH2 0x624 DUP3 PUSH2 0x1A64 JUMP JUMPDEST PUSH1 0x3 SLOAD PUSH3 0x10000 SWAP1 DIV PUSH1 0xFF AND DUP2 JUMP JUMPDEST PUSH32 0x0 DUP2 JUMP JUMPDEST PUSH1 0x0 DUP1 PUSH2 0xADF DUP5 PUSH2 0x1138 JUMP JUMPDEST SWAP2 POP PUSH2 0xAEA DUP3 PUSH2 0x17E5 JUMP JUMPDEST SWAP1 SWAP3 POP SWAP1 POP PUSH1 0x0 PUSH2 0xAFC DUP4 DUP4 DUP7 PUSH2 0x19B5 JUMP JUMPDEST SWAP1 POP DUP4 PUSH1 0x1 PUSH1 0x1 PUSH1 0xA0 SHL SUB AND PUSH1 0x0 PUSH1 0x1 PUSH1 0x1 PUSH1 0xA0 SHL SUB AND PUSH1 0x0 DUP1 MLOAD PUSH1 0x20 PUSH2 0x2A9E DUP4 CODECOPY DUP2 MLOAD SWAP2 MSTORE DUP4 PUSH1 0x40 MLOAD PUSH2 0xB30 SWAP2 SWAP1 PUSH2 0x29E2 JUMP JUMPDEST PUSH1 0x40 MLOAD DUP1 SWAP2 SUB SWAP1 LOG3 DUP4 PUSH1 0x1 PUSH1 0x1 PUSH1 0xA0 SHL SUB AND CALLER PUSH1 0x1 PUSH1 0x1 PUSH1 0xA0 SHL SUB AND PUSH32 0xDCBC1C05240F31FF3AD067EF1EE35CE4997762752E3A095284754544F4C709D7 DUP6 DUP5 PUSH1 0x40 MLOAD PUSH2 0xB7D SWAP3 SWAP2 SWAP1 PUSH2 0x29EB JUMP JUMPDEST PUSH1 0x40 MLOAD DUP1 SWAP2 SUB SWAP1 LOG3 POP POP SWAP3 SWAP2 POP POP JUMP JUMPDEST PUSH1 0x2 DUP1 SLOAD PUSH1 0x40 DUP1 MLOAD PUSH1 0x20 PUSH1 0x1 DUP5 AND ISZERO PUSH2 0x100 MUL PUSH1 0x0 NOT ADD SWAP1 SWAP4 AND DUP5 SWAP1 DIV PUSH1 0x1F DUP2 ADD DUP5 SWAP1 DIV DUP5 MUL DUP3 ADD DUP5 ADD SWAP1 SWAP3 MSTORE DUP2 DUP2 MSTORE SWAP3 SWAP2 DUP4 ADD DUP3 DUP3 DUP1 ISZERO PUSH2 0x541 JUMPI DUP1 PUSH1 0x1F LT PUSH2 0x516 JUMPI PUSH2 0x100 DUP1 DUP4 SLOAD DIV MUL DUP4 MSTORE SWAP2 PUSH1 0x20 ADD SWAP2 PUSH2 0x541 JUMP JUMPDEST PUSH32 0x0 PUSH1 0x1 PUSH1 0x1 PUSH1 0xA0 SHL SUB AND PUSH4 0x8DA5CB5B PUSH1 0x40 MLOAD DUP2 PUSH4 0xFFFFFFFF AND PUSH1 0xE0 SHL DUP2 MSTORE PUSH1 0x4 ADD PUSH1 0x20 PUSH1 0x40 MLOAD DUP1 DUP4 SUB DUP2 DUP7 DUP1 EXTCODESIZE ISZERO DUP1 ISZERO PUSH2 0xC3E JUMPI PUSH1 0x0 DUP1 REVERT JUMPDEST POP GAS STATICCALL ISZERO DUP1 ISZERO PUSH2 0xC52 JUMPI RETURNDATASIZE PUSH1 0x0 DUP1 RETURNDATACOPY RETURNDATASIZE PUSH1 0x0 REVERT JUMPDEST POP POP POP POP PUSH1 0x40 MLOAD RETURNDATASIZE PUSH1 0x1F NOT PUSH1 0x1F DUP3 ADD AND DUP3 ADD DUP1 PUSH1 0x40 MSTORE POP DUP2 ADD SWAP1 PUSH2 0xC76 SWAP2 SWAP1 PUSH2 0x2419 JUMP JUMPDEST PUSH1 0x1 PUSH1 0x1 PUSH1 0xA0 SHL SUB AND CALLER PUSH1 0x1 PUSH1 0x1 PUSH1 0xA0 SHL SUB AND EQ PUSH2 0xC93 JUMPI PUSH1 0x0 DUP1 REVERT JUMPDEST PUSH1 0x0 DUP1 PUSH1 0x0 PUSH2 0xCA0 PUSH2 0x1B26 JUMP JUMPDEST SWAP3 POP SWAP3 POP SWAP3 POP DUP3 DUP6 DUP4 PUSH1 0x40 MLOAD PUSH1 0x20 ADD PUSH2 0xCBB SWAP4 SWAP3 SWAP2 SWAP1 PUSH2 0x27BF JUMP JUMPDEST PUSH1 0x40 MLOAD PUSH1 0x20 DUP2 DUP4 SUB SUB DUP2 MSTORE SWAP1 PUSH1 0x40 MSTORE PUSH1 0x1 SWAP1 DUP1 MLOAD SWAP1 PUSH1 0x20 ADD SWAP1 PUSH2 0xCDF SWAP3 SWAP2 SWAP1 PUSH2 0x2285 JUMP JUMPDEST POP DUP1 DUP5 PUSH1 0x40 MLOAD PUSH1 0x20 ADD PUSH2 0xCF3 SWAP3 SWAP2 SWAP1 PUSH2 0x2790 JUMP JUMPDEST PUSH1 0x40 MLOAD PUSH1 0x20 DUP2 DUP4 SUB SUB DUP2 MSTORE SWAP1 PUSH1 0x40 MSTORE PUSH1 0x2 SWAP1 DUP1 MLOAD SWAP1 PUSH1 0x20 ADD SWAP1 PUSH2 0xD17 SWAP3 SWAP2 SWAP1 PUSH2 0x2285 JUMP JUMPDEST POP PUSH1 0x40 MLOAD PUSH32 0x8D4BC6886F1B5887A0C7DA5CF5DBDF35C7BCCED78089E0E522B49BE058176999 SWAP1 PUSH1 0x0 SWAP1 LOG1 POP POP POP POP POP JUMP JUMPDEST PUSH1 0x0 DUP3 PUSH1 0x1 PUSH1 0x1 PUSH1 0xA0 SHL SUB AND CALLER PUSH1 0x1 PUSH1 0x1 PUSH1 0xA0 SHL SUB AND PUSH1 0x0 DUP1 MLOAD PUSH1 0x20 PUSH2 0x2A9E DUP4 CODECOPY DUP2 MLOAD SWAP2 MSTORE DUP5 PUSH1 0x40 MLOAD PUSH2 0xD7B SWAP2 SWAP1 PUSH2 0x29E2 JUMP JUMPDEST PUSH1 0x40 MLOAD DUP1 SWAP2 SUB SWAP1 LOG3 PUSH2 0xD8D DUP4 DUP4 PUSH2 0x1B61 JUMP JUMPDEST SWAP1 POP DUP1 PUSH2 0x624 JUMPI PUSH1 0x0 DUP1 REVERT JUMPDEST CALLER PUSH1 0x1 PUSH1 0x1 PUSH1 0xA0 SHL SUB PUSH32 0x0 AND EQ PUSH2 0xDE1 JUMPI PUSH1 0x40 MLOAD PUSH3 0x461BCD PUSH1 0xE5 SHL DUP2 MSTORE PUSH1 0x4 ADD PUSH2 0x71D SWAP1 PUSH2 0x2889 JUMP JUMPDEST PUSH1 0x0 SLOAD PUSH2 0x100 SWAP1 DIV PUSH1 0xFF AND DUP1 PUSH2 0xDFA JUMPI POP PUSH2 0xDFA PUSH2 0x1BBE JUMP JUMPDEST DUP1 PUSH2 0xE08 JUMPI POP PUSH1 0x0 SLOAD PUSH1 0xFF AND ISZERO JUMPDEST PUSH2 0xE43 JUMPI PUSH1 0x40 MLOAD PUSH3 0x461BCD PUSH1 0xE5 SHL DUP2 MSTORE PUSH1 0x4 ADD DUP1 DUP1 PUSH1 0x20 ADD DUP3 DUP2 SUB DUP3 MSTORE PUSH1 0x2E DUP2 MSTORE PUSH1 0x20 ADD DUP1 PUSH2 0x2A70 PUSH1 0x2E SWAP2 CODECOPY PUSH1 0x40 ADD SWAP2 POP POP PUSH1 0x40 MLOAD DUP1 SWAP2 SUB SWAP1 REVERT JUMPDEST PUSH1 0x0 SLOAD PUSH2 0x100 SWAP1 DIV PUSH1 0xFF AND ISZERO DUP1 ISZERO PUSH2 0xE6E JUMPI PUSH1 0x0 DUP1 SLOAD PUSH1 0xFF NOT PUSH2 0xFF00 NOT SWAP1 SWAP2 AND PUSH2 0x100 OR AND PUSH1 0x1 OR SWAP1 SSTORE JUMPDEST PUSH1 0x3 DUP1 SLOAD PUSH2 0xFFFF NOT AND PUSH2 0xFFFF DUP8 AND OR SWAP1 SSTORE PUSH1 0x0 DUP1 DUP1 PUSH2 0xE8B PUSH2 0x1B26 JUMP JUMPDEST SWAP3 POP SWAP3 POP SWAP3 POP DUP3 DUP7 DUP4 PUSH1 0x40 MLOAD PUSH1 0x20 ADD PUSH2 0xEA6 SWAP4 SWAP3 SWAP2 SWAP1 PUSH2 0x27BF JUMP JUMPDEST PUSH1 0x40 MLOAD PUSH1 0x20 DUP2 DUP4 SUB SUB DUP2 MSTORE SWAP1 PUSH1 0x40 MSTORE PUSH1 0x1 SWAP1 DUP1 MLOAD SWAP1 PUSH1 0x20 ADD SWAP1 PUSH2 0xECA SWAP3 SWAP2 SWAP1 PUSH2 0x2285 JUMP JUMPDEST POP DUP1 DUP6 PUSH1 0x40 MLOAD PUSH1 0x20 ADD PUSH2 0xEDE SWAP3 SWAP2 SWAP1 PUSH2 0x2790 JUMP JUMPDEST PUSH1 0x40 MLOAD PUSH1 0x20 DUP2 DUP4 SUB SUB DUP2 MSTORE SWAP1 PUSH1 0x40 MSTORE PUSH1 0x2 SWAP1 DUP1 MLOAD SWAP1 PUSH1 0x20 ADD SWAP1 PUSH2 0xF02 SWAP3 SWAP2 SWAP1 PUSH2 0x2285 JUMP JUMPDEST POP PUSH1 0x1 PUSH1 0x1 PUSH1 0xA0 SHL SUB DUP8 AND PUSH2 0xF42 JUMPI PUSH1 0x3 DUP1 SLOAD PUSH4 0x1000000 PUSH1 0x1 PUSH1 0xB8 SHL SUB NOT AND PUSH23 0x82AF49447D8A07E3BD95BD0D56F35241523FBAB1000000 OR SWAP1 SSTORE PUSH2 0xF9C JUMP JUMPDEST PUSH1 0x3 DUP1 SLOAD PUSH4 0x1000000 PUSH1 0x1 PUSH1 0xB8 SHL SUB NOT AND PUSH4 0x1000000 PUSH1 0x1 PUSH1 0x1 PUSH1 0xA0 SHL SUB DUP11 DUP2 AND DUP3 MUL SWAP3 SWAP1 SWAP3 OR SWAP3 DUP4 SWAP1 SSTORE PUSH2 0xF9C SWAP3 DIV AND PUSH32 0x0 PUSH1 0x0 NOT PUSH2 0x1BCF JUMP JUMPDEST PUSH1 0x3 DUP1 SLOAD SWAP1 PUSH2 0x100 EXP SWAP1 DIV PUSH1 0x1 PUSH1 0x1 PUSH1 0xA0 SHL SUB AND PUSH1 0x1 PUSH1 0x1 PUSH1 0xA0 SHL SUB AND PUSH4 0x313CE567 PUSH1 0x40 MLOAD DUP2 PUSH4 0xFFFFFFFF AND PUSH1 0xE0 SHL DUP2 MSTORE PUSH1 0x4 ADD PUSH1 0x20 PUSH1 0x40 MLOAD DUP1 DUP4 SUB DUP2 DUP7 DUP1 EXTCODESIZE ISZERO DUP1 ISZERO PUSH2 0xFE8 JUMPI PUSH1 0x0 DUP1 REVERT JUMPDEST POP GAS STATICCALL ISZERO DUP1 ISZERO PUSH2 0xFFC JUMPI RETURNDATASIZE PUSH1 0x0 DUP1 RETURNDATACOPY RETURNDATASIZE PUSH1 0x0 REVERT JUMPDEST POP POP POP POP PUSH1 0x40 MLOAD RETURNDATASIZE PUSH1 0x1F NOT PUSH1 0x1F DUP3 ADD AND DUP3 ADD DUP1 PUSH1 0x40 MSTORE POP DUP2 ADD SWAP1 PUSH2 0x1020 SWAP2 SWAP1 PUSH2 0x276F JUMP JUMPDEST PUSH1 0x3 DUP1 SLOAD PUSH3 0xFF0000 NOT AND PUSH3 0x10000 PUSH1 0xFF SWAP4 DUP5 AND DUP2 MUL SWAP2 SWAP1 SWAP2 OR SWAP2 DUP3 SWAP1 SSTORE PUSH1 0x24 SWAP2 DIV SWAP1 SWAP2 AND LT PUSH2 0x104E JUMPI PUSH1 0x0 DUP1 REVERT JUMPDEST POP POP POP DUP1 ISZERO PUSH2 0x1063 JUMPI PUSH1 0x0 DUP1 SLOAD PUSH2 0xFF00 NOT AND SWAP1 SSTORE JUMPDEST POP POP POP POP POP JUMP JUMPDEST CALLER PUSH1 0x1 PUSH1 0x1 PUSH1 0xA0 SHL SUB PUSH32 0x0 AND EQ PUSH2 0x10B2 JUMPI PUSH1 0x40 MLOAD PUSH3 0x461BCD PUSH1 0xE5 SHL DUP2 MSTORE PUSH1 0x4 ADD PUSH2 0x71D SWAP1 PUSH2 0x2889 JUMP JUMPDEST PUSH1 0x0 DUP2 SLT ISZERO PUSH2 0x10F9 JUMPI PUSH1 0x0 PUSH1 0x1 PUSH1 0x1 PUSH1 0xA0 SHL SUB DUP4 AND PUSH1 0x0 DUP1 MLOAD PUSH1 0x20 PUSH2 0x2A9E DUP4 CODECOPY DUP2 MLOAD SWAP2 MSTORE PUSH2 0x10DF DUP5 PUSH2 0x1CE7 JUMP JUMPDEST PUSH1 0x40 MLOAD PUSH2 0x10EC SWAP2 SWAP1 PUSH2 0x29E2 JUMP JUMPDEST PUSH1 0x40 MLOAD DUP1 SWAP2 SUB SWAP1 LOG3 PUSH2 0x1134 JUMP JUMPDEST DUP2 PUSH1 0x1 PUSH1 0x1 PUSH1 0xA0 SHL SUB AND PUSH1 0x0 PUSH1 0x1 PUSH1 0x1 PUSH1 0xA0 SHL SUB AND PUSH1 0x0 DUP1 MLOAD PUSH1 0x20 PUSH2 0x2A9E DUP4 CODECOPY DUP2 MLOAD SWAP2 MSTORE DUP4 PUSH1 0x40 MLOAD PUSH2 0x112B SWAP2 SWAP1 PUSH2 0x29E2 JUMP JUMPDEST PUSH1 0x40 MLOAD DUP1 SWAP2 SUB SWAP1 LOG3 JUMPDEST POP POP JUMP JUMPDEST PUSH1 0x3 SLOAD PUSH1 0x0 SWAP1 PUSH1 0x8 PUSH3 0x10000 SWAP1 SWAP2 DIV PUSH1 0xFF AND LT PUSH2 0x115D JUMPI PUSH2 0x655 PUSH2 0x26D DUP4 PUSH1 0x1 PUSH2 0x1661 JUMP JUMPDEST PUSH2 0x624 PUSH1 0x1 PUSH2 0x64F DUP5 PUSH2 0x549 JUMP JUMPDEST PUSH1 0x0 PUSH2 0x1176 DUP5 PUSH2 0x62A JUMP JUMPDEST SWAP1 POP PUSH1 0x0 PUSH2 0x1183 DUP4 PUSH2 0x1A64 JUMP JUMPDEST SWAP1 POP DUP1 DUP3 GT ISZERO PUSH2 0x11A5 JUMPI PUSH1 0x40 MLOAD PUSH3 0x461BCD PUSH1 0xE5 SHL DUP2 MSTORE PUSH1 0x4 ADD PUSH2 0x71D SWAP1 PUSH2 0x28AF JUMP JUMPDEST PUSH1 0x0 PUSH2 0x11B2 DUP4 DUP7 DUP7 PUSH2 0x1CF5 JUMP JUMPDEST SWAP1 POP PUSH1 0x0 PUSH1 0x1 PUSH1 0x1 PUSH1 0xA0 SHL SUB AND DUP5 PUSH1 0x1 PUSH1 0x1 PUSH1 0xA0 SHL SUB AND PUSH1 0x0 DUP1 MLOAD PUSH1 0x20 PUSH2 0x2A9E DUP4 CODECOPY DUP2 MLOAD SWAP2 MSTORE DUP6 PUSH1 0x40 MLOAD PUSH2 0x11E6 SWAP2 SWAP1 PUSH2 0x29E2 JUMP JUMPDEST PUSH1 0x40 MLOAD DUP1 SWAP2 SUB SWAP1 LOG3 DUP4 PUSH1 0x1 PUSH1 0x1 PUSH1 0xA0 SHL SUB AND DUP6 PUSH1 0x1 PUSH1 0x1 PUSH1 0xA0 SHL SUB AND CALLER PUSH1 0x1 PUSH1 0x1 PUSH1 0xA0 SHL SUB AND PUSH32 0xFBDE797D201C681B91056529119E0B02407C7BB96A4A2C75C01FC9667232C8DB DUP5 DUP8 PUSH1 0x40 MLOAD PUSH2 0x123D SWAP3 SWAP2 SWAP1 PUSH2 0x29EB JUMP JUMPDEST PUSH1 0x40 MLOAD DUP1 SWAP2 SUB SWAP1 LOG4 POP POP SWAP4 SWAP3 POP POP POP JUMP JUMPDEST PUSH1 0x0 DUP1 PUSH2 0x125C DUP6 DUP6 DUP6 PUSH2 0x1CF5 JUMP JUMPDEST SWAP1 POP PUSH1 0x0 PUSH1 0x1 PUSH1 0x1 PUSH1 0xA0 SHL SUB AND DUP4 PUSH1 0x1 PUSH1 0x1 PUSH1 0xA0 SHL SUB AND PUSH1 0x0 DUP1 MLOAD PUSH1 0x20 PUSH2 0x2A9E DUP4 CODECOPY DUP2 MLOAD SWAP2 MSTORE DUP8 PUSH1 0x40 MLOAD PUSH2 0x1290 SWAP2 SWAP1 PUSH2 0x29E2 JUMP JUMPDEST PUSH1 0x40 MLOAD DUP1 SWAP2 SUB SWAP1 LOG3 DUP3 PUSH1 0x1 PUSH1 0x1 PUSH1 0xA0 SHL SUB AND DUP5 PUSH1 0x1 PUSH1 0x1 PUSH1 0xA0 SHL SUB AND CALLER PUSH1 0x1 PUSH1 0x1 PUSH1 0xA0 SHL SUB AND PUSH32 0xFBDE797D201C681B91056529119E0B02407C7BB96A4A2C75C01FC9667232C8DB DUP5 DUP10 PUSH1 0x40 MLOAD PUSH2 0x12E7 SWAP3 SWAP2 SWAP1 PUSH2 0x29EB JUMP JUMPDEST PUSH1 0x40 MLOAD DUP1 SWAP2 SUB SWAP1 LOG4 SWAP5 SWAP4 POP POP POP POP JUMP JUMPDEST PUSH1 0x0 DUP1 PUSH2 0x1304 PUSH1 0x0 PUSH2 0x8BC JUMP JUMPDEST SWAP1 POP PUSH1 0x0 NOT DUP2 EQ ISZERO PUSH2 0x1317 JUMPI SWAP1 POP PUSH2 0x5BF JUMP JUMPDEST PUSH2 0x5BB DUP2 JUMPDEST PUSH1 0x0 PUSH2 0x624 PUSH2 0x1329 PUSH2 0x886 JUMP JUMPDEST PUSH2 0x5AF DUP5 PUSH8 0xDE0B6B3A7640000 PUSH2 0x156C JUMP JUMPDEST CALLER PUSH1 0x1 PUSH1 0x1 PUSH1 0xA0 SHL SUB PUSH32 0x0 AND EQ PUSH2 0x1383 JUMPI PUSH1 0x40 MLOAD PUSH3 0x461BCD PUSH1 0xE5 SHL DUP2 MSTORE PUSH1 0x4 ADD PUSH2 0x71D SWAP1 PUSH2 0x2889 JUMP JUMPDEST PUSH1 0x0 DUP3 SLT ISZERO PUSH2 0x13D2 JUMPI DUP3 PUSH1 0x1 PUSH1 0x1 PUSH1 0xA0 SHL SUB AND DUP5 PUSH1 0x1 PUSH1 0x1 PUSH1 0xA0 SHL SUB AND PUSH1 0x0 DUP1 MLOAD PUSH1 0x20 PUSH2 0x2A9E DUP4 CODECOPY DUP2 MLOAD SWAP2 MSTORE PUSH2 0x13B8 DUP6 PUSH2 0x1DAE JUMP JUMPDEST PUSH1 0x40 MLOAD PUSH2 0x13C5 SWAP2 SWAP1 PUSH2 0x29E2 JUMP JUMPDEST PUSH1 0x40 MLOAD DUP1 SWAP2 SUB SWAP1 LOG3 PUSH2 0x140C JUMP JUMPDEST DUP4 PUSH1 0x1 PUSH1 0x1 PUSH1 0xA0 SHL SUB AND DUP4 PUSH1 0x1 PUSH1 0x1 PUSH1 0xA0 SHL SUB AND PUSH1 0x0 DUP1 MLOAD PUSH1 0x20 PUSH2 0x2A9E DUP4 CODECOPY DUP2 MLOAD SWAP2 MSTORE DUP5 PUSH1 0x40 MLOAD PUSH2 0x1403 SWAP2 SWAP1 PUSH2 0x29E2 JUMP JUMPDEST PUSH1 0x40 MLOAD DUP1 SWAP2 SUB SWAP1 LOG3 JUMPDEST PUSH2 0xFEE PUSH1 0x1 PUSH1 0x1 PUSH1 0xA0 SHL SUB AND DUP5 PUSH1 0x1 PUSH1 0x1 PUSH1 0xA0 SHL SUB AND PUSH1 0x0 DUP1 MLOAD PUSH1 0x20 PUSH2 0x2A9E DUP4 CODECOPY DUP2 MLOAD SWAP2 MSTORE DUP4 PUSH1 0x40 MLOAD PUSH2 0x86C SWAP2 SWAP1 PUSH2 0x29E2 JUMP JUMPDEST PUSH1 0x0 PUSH2 0x624 PUSH2 0x26D DUP4 PUSH2 0x1A64 JUMP JUMPDEST PUSH1 0x0 PUSH2 0x6CE DUP4 DUP4 PUSH2 0x1DCF JUMP JUMPDEST PUSH1 0x0 PUSH2 0x624 DUP3 PUSH2 0x131C JUMP JUMPDEST EXTCODESIZE ISZERO ISZERO SWAP1 JUMP JUMPDEST PUSH1 0x3 SLOAD PUSH1 0x40 MLOAD PUSH4 0x206F2799 PUSH1 0xE0 SHL DUP2 MSTORE PUSH1 0x0 SWAP2 DUP3 SWAP2 DUP3 SWAP2 PUSH1 0x1 PUSH1 0x1 PUSH1 0xA0 SHL SUB PUSH32 0x0 AND SWAP2 PUSH4 0x206F2799 SWAP2 PUSH2 0x14C7 SWAP2 PUSH2 0xFFFF SWAP1 SWAP2 AND SWAP1 TIMESTAMP SWAP1 PUSH1 0x4 ADD PUSH2 0x29CE JUMP JUMPDEST PUSH2 0x200 PUSH1 0x40 MLOAD DUP1 DUP4 SUB DUP2 DUP7 DUP1 EXTCODESIZE ISZERO DUP1 ISZERO PUSH2 0x14E0 JUMPI PUSH1 0x0 DUP1 REVERT JUMPDEST POP GAS STATICCALL ISZERO DUP1 ISZERO PUSH2 0x14F4 JUMPI RETURNDATASIZE PUSH1 0x0 DUP1 RETURNDATACOPY RETURNDATASIZE PUSH1 0x0 REVERT JUMPDEST POP POP POP POP PUSH1 0x40 MLOAD RETURNDATASIZE PUSH1 0x1F NOT PUSH1 0x1F DUP3 ADD AND DUP3 ADD DUP1 PUSH1 0x40 MSTORE POP DUP2 ADD SWAP1 PUSH2 0x1518 SWAP2 SWAP1 PUSH2 0x25CB JUMP JUMPDEST POP POP POP POP SWAP2 POP SWAP2 POP PUSH2 0x8B5 PUSH2 0x1567 PUSH4 0x5F5E100 PUSH2 0x1561 PUSH1 0x3 PUSH1 0x2 SWAP1 SLOAD SWAP1 PUSH2 0x100 EXP SWAP1 DIV PUSH1 0xFF AND PUSH1 0xFF AND PUSH1 0xA EXP PUSH2 0x155B PUSH2 0x1554 DUP8 PUSH1 0x20 ADD MLOAD PUSH2 0x1E7A JUMP JUMPDEST DUP9 SWAP1 PUSH2 0x1E94 JUMP JUMPDEST SWAP1 PUSH2 0x1EDD JUMP JUMPDEST SWAP1 PUSH2 0x1F26 JUMP JUMPDEST PUSH2 0x1F57 JUMP JUMPDEST PUSH1 0x0 DUP3 PUSH2 0x157B JUMPI POP PUSH1 0x0 PUSH2 0x624 JUMP JUMPDEST DUP3 DUP3 MUL DUP3 DUP5 DUP3 DUP2 PUSH2 0x1588 JUMPI INVALID JUMPDEST DIV EQ PUSH2 0x6CE JUMPI PUSH1 0x0 DUP1 REVERT JUMPDEST PUSH1 0x0 DUP1 DUP3 GT PUSH2 0x15A1 JUMPI PUSH1 0x0 DUP1 REVERT JUMPDEST DUP2 DUP4 DUP2 PUSH2 0x15AA JUMPI INVALID JUMPDEST DIV SWAP4 SWAP3 POP POP POP JUMP JUMPDEST PUSH1 0x3 SLOAD PUSH1 0x40 MLOAD PUSH4 0xCA2CC361 PUSH1 0xE0 SHL DUP2 MSTORE PUSH1 0x0 SWAP2 PUSH1 0x1 PUSH1 0x1 PUSH1 0xA0 SHL SUB PUSH32 0x0 AND SWAP2 PUSH4 0xCA2CC361 SWAP2 PUSH2 0x160F SWAP2 PUSH2 0xFFFF SWAP1 SWAP2 AND SWAP1 CALLER SWAP1 DUP9 SWAP1 DUP9 SWAP1 PUSH1 0x4 ADD PUSH2 0x293D JUMP JUMPDEST PUSH1 0x20 PUSH1 0x40 MLOAD DUP1 DUP4 SUB DUP2 PUSH1 0x0 DUP8 DUP1 EXTCODESIZE ISZERO DUP1 ISZERO PUSH2 0x1629 JUMPI PUSH1 0x0 DUP1 REVERT JUMPDEST POP GAS CALL ISZERO DUP1 ISZERO PUSH2 0x163D JUMPI RETURNDATASIZE PUSH1 0x0 DUP1 RETURNDATACOPY RETURNDATASIZE PUSH1 0x0 REVERT JUMPDEST POP POP POP POP PUSH1 0x40 MLOAD RETURNDATASIZE PUSH1 0x1F NOT PUSH1 0x1F DUP3 ADD AND DUP3 ADD DUP1 PUSH1 0x40 MSTORE POP DUP2 ADD SWAP1 PUSH2 0x6CE SWAP2 SWAP1 PUSH2 0x2532 JUMP JUMPDEST PUSH1 0x0 DUP3 DUP3 ADD DUP4 DUP2 LT ISZERO PUSH2 0x6CE JUMPI PUSH1 0x0 DUP1 REVERT JUMPDEST PUSH1 0x3 SLOAD PUSH1 0x40 MLOAD PUSH4 0x206F2799 PUSH1 0xE0 SHL DUP2 MSTORE PUSH1 0x0 SWAP2 DUP3 SWAP2 PUSH1 0x1 PUSH1 0x1 PUSH1 0xA0 SHL SUB PUSH32 0x0 AND SWAP2 PUSH4 0x206F2799 SWAP2 PUSH2 0x16CC SWAP2 PUSH2 0xFFFF AND SWAP1 TIMESTAMP SWAP1 PUSH1 0x4 ADD PUSH2 0x29CE JUMP JUMPDEST PUSH2 0x200 PUSH1 0x40 MLOAD DUP1 DUP4 SUB DUP2 DUP7 DUP1 EXTCODESIZE ISZERO DUP1 ISZERO PUSH2 0x16E5 JUMPI PUSH1 0x0 DUP1 REVERT JUMPDEST POP GAS STATICCALL ISZERO DUP1 ISZERO PUSH2 0x16F9 JUMPI RETURNDATASIZE PUSH1 0x0 DUP1 RETURNDATACOPY RETURNDATASIZE PUSH1 0x0 REVERT JUMPDEST POP POP POP POP PUSH1 0x40 MLOAD RETURNDATASIZE PUSH1 0x1F NOT PUSH1 0x1F DUP3 ADD AND DUP3 ADD DUP1 PUSH1 0x40 MSTORE POP DUP2 ADD SWAP1 PUSH2 0x171D SWAP2 SWAP1 PUSH2 0x25CB JUMP JUMPDEST POP POP POP POP PUSH1 0x20 ADD MLOAD SWAP4 SWAP3 POP POP POP JUMP JUMPDEST PUSH1 0x3 SLOAD PUSH1 0x40 MLOAD PUSH4 0x72B88B27 PUSH1 0xE1 SHL DUP2 MSTORE PUSH1 0x0 SWAP2 PUSH1 0x1 PUSH1 0x1 PUSH1 0xA0 SHL SUB PUSH32 0x0 AND SWAP2 PUSH4 0xE571164E SWAP2 PUSH2 0x178B SWAP2 PUSH2 0xFFFF SWAP1 SWAP2 AND SWAP1 CALLER SWAP1 DUP10 SWAP1 DUP10 SWAP1 DUP10 SWAP1 PUSH1 0x4 ADD PUSH2 0x2909 JUMP JUMPDEST PUSH1 0x20 PUSH1 0x40 MLOAD DUP1 DUP4 SUB DUP2 PUSH1 0x0 DUP8 DUP1 EXTCODESIZE ISZERO DUP1 ISZERO PUSH2 0x17A5 JUMPI PUSH1 0x0 DUP1 REVERT JUMPDEST POP GAS CALL ISZERO DUP1 ISZERO PUSH2 0x17B9 JUMPI RETURNDATASIZE PUSH1 0x0 DUP1 RETURNDATACOPY RETURNDATASIZE PUSH1 0x0 REVERT JUMPDEST POP POP POP POP PUSH1 0x40 MLOAD RETURNDATASIZE PUSH1 0x1F NOT PUSH1 0x1F DUP3 ADD AND DUP3 ADD DUP1 PUSH1 0x40 MSTORE POP DUP2 ADD SWAP1 PUSH2 0x17DD SWAP2 SWAP1 PUSH2 0x2532 JUMP JUMPDEST SWAP5 SWAP4 POP POP POP POP JUMP JUMPDEST PUSH1 0x3 SLOAD PUSH1 0x40 MLOAD PUSH4 0x70A08231 PUSH1 0xE0 SHL DUP2 MSTORE PUSH1 0x0 SWAP2 DUP3 SWAP2 DUP3 SWAP2 PUSH4 0x1000000 SWAP1 DIV PUSH1 0x1 PUSH1 0x1 PUSH1 0xA0 SHL SUB AND SWAP1 PUSH4 0x70A08231 SWAP1 PUSH2 0x1821 SWAP1 ADDRESS SWAP1 PUSH1 0x4 ADD PUSH2 0x2812 JUMP JUMPDEST PUSH1 0x20 PUSH1 0x40 MLOAD DUP1 DUP4 SUB DUP2 DUP7 DUP1 EXTCODESIZE ISZERO DUP1 ISZERO PUSH2 0x1839 JUMPI PUSH1 0x0 DUP1 REVERT JUMPDEST POP GAS STATICCALL ISZERO DUP1 ISZERO PUSH2 0x184D JUMPI RETURNDATASIZE PUSH1 0x0 DUP1 RETURNDATACOPY RETURNDATASIZE PUSH1 0x0 REVERT JUMPDEST POP POP POP POP PUSH1 0x40 MLOAD RETURNDATASIZE PUSH1 0x1F NOT PUSH1 0x1F DUP3 ADD AND DUP3 ADD DUP1 PUSH1 0x40 MSTORE POP DUP2 ADD SWAP1 PUSH2 0x1871 SWAP2 SWAP1 PUSH2 0x2552 JUMP JUMPDEST SWAP1 POP PUSH2 0x1892 PUSH1 0x3 DUP1 SLOAD SWAP1 PUSH2 0x100 EXP SWAP1 DIV PUSH1 0x1 PUSH1 0x1 PUSH1 0xA0 SHL SUB AND CALLER ADDRESS DUP8 PUSH2 0x1F66 JUMP JUMPDEST PUSH1 0x3 SLOAD PUSH1 0x40 MLOAD PUSH4 0x70A08231 PUSH1 0xE0 SHL DUP2 MSTORE PUSH1 0x0 SWAP2 PUSH4 0x1000000 SWAP1 DIV PUSH1 0x1 PUSH1 0x1 PUSH1 0xA0 SHL SUB AND SWAP1 PUSH4 0x70A08231 SWAP1 PUSH2 0x18CA SWAP1 ADDRESS SWAP1 PUSH1 0x4 ADD PUSH2 0x2812 JUMP JUMPDEST PUSH1 0x20 PUSH1 0x40 MLOAD DUP1 DUP4 SUB DUP2 DUP7 DUP1 EXTCODESIZE ISZERO DUP1 ISZERO PUSH2 0x18E2 JUMPI PUSH1 0x0 DUP1 REVERT JUMPDEST POP GAS STATICCALL ISZERO DUP1 ISZERO PUSH2 0x18F6 JUMPI RETURNDATASIZE PUSH1 0x0 DUP1 RETURNDATACOPY RETURNDATASIZE PUSH1 0x0 REVERT JUMPDEST POP POP POP POP PUSH1 0x40 MLOAD RETURNDATASIZE PUSH1 0x1F NOT PUSH1 0x1F DUP3 ADD AND DUP3 ADD DUP1 PUSH1 0x40 MSTORE POP DUP2 ADD SWAP1 PUSH2 0x191A SWAP2 SWAP1 PUSH2 0x2552 JUMP JUMPDEST SWAP1 POP PUSH2 0x1926 DUP2 DUP4 PUSH2 0x1FC6 JUMP JUMPDEST PUSH1 0x3 SLOAD SWAP1 SWAP5 POP PUSH2 0xFFFF AND PUSH1 0x1 EQ ISZERO PUSH2 0x19A9 JUMPI PUSH1 0x40 MLOAD PUSH4 0x2E1A7D4D PUSH1 0xE0 SHL DUP2 MSTORE PUSH20 0x82AF49447D8A07E3BD95BD0D56F35241523FBAB1 SWAP1 PUSH4 0x2E1A7D4D SWAP1 PUSH2 0x196F SWAP1 DUP8 SWAP1 PUSH1 0x4 ADD PUSH2 0x29E2 JUMP JUMPDEST PUSH1 0x0 PUSH1 0x40 MLOAD DUP1 DUP4 SUB DUP2 PUSH1 0x0 DUP8 DUP1 EXTCODESIZE ISZERO DUP1 ISZERO PUSH2 0x1989 JUMPI PUSH1 0x0 DUP1 REVERT JUMPDEST POP GAS CALL ISZERO DUP1 ISZERO PUSH2 0x199D JUMPI RETURNDATASIZE PUSH1 0x0 DUP1 RETURNDATACOPY RETURNDATASIZE PUSH1 0x0 REVERT JUMPDEST POP POP POP POP DUP4 SWAP3 POP PUSH2 0x19AE JUMP JUMPDEST PUSH1 0x0 SWAP3 POP JUMPDEST POP POP SWAP2 POP SWAP2 JUMP JUMPDEST PUSH1 0x3 SLOAD PUSH1 0x40 MLOAD PUSH4 0x2890FB65 PUSH1 0xE0 SHL DUP2 MSTORE PUSH1 0x0 SWAP2 PUSH1 0x1 PUSH1 0x1 PUSH1 0xA0 SHL SUB PUSH32 0x0 AND SWAP2 PUSH4 0x2890FB65 SWAP2 DUP7 SWAP2 PUSH2 0x1A12 SWAP2 DUP8 SWAP2 PUSH2 0xFFFF SWAP1 SWAP2 AND SWAP1 DUP11 SWAP1 PUSH1 0x4 ADD PUSH2 0x2826 JUMP JUMPDEST PUSH1 0x20 PUSH1 0x40 MLOAD DUP1 DUP4 SUB DUP2 DUP6 DUP9 DUP1 EXTCODESIZE ISZERO DUP1 ISZERO PUSH2 0x1A2B JUMPI PUSH1 0x0 DUP1 REVERT JUMPDEST POP GAS CALL ISZERO DUP1 ISZERO PUSH2 0x1A3F JUMPI RETURNDATASIZE PUSH1 0x0 DUP1 RETURNDATACOPY RETURNDATASIZE PUSH1 0x0 REVERT JUMPDEST POP POP POP POP POP PUSH1 0x40 MLOAD RETURNDATASIZE PUSH1 0x1F NOT PUSH1 0x1F DUP3 ADD AND DUP3 ADD DUP1 PUSH1 0x40 MSTORE POP DUP2 ADD SWAP1 PUSH2 0x17DD SWAP2 SWAP1 PUSH2 0x2552 JUMP JUMPDEST PUSH1 0x3 SLOAD PUSH1 0x40 MLOAD PUSH4 0x39DF4791 PUSH1 0xE0 SHL DUP2 MSTORE PUSH1 0x0 SWAP2 DUP3 SWAP2 PUSH1 0x1 PUSH1 0x1 PUSH1 0xA0 SHL SUB PUSH32 0x0 AND SWAP2 PUSH4 0x39DF4791 SWAP2 PUSH2 0x1ABD SWAP2 PUSH2 0xFFFF AND SWAP1 DUP8 SWAP1 PUSH1 0x4 ADD PUSH2 0x28EC JUMP JUMPDEST PUSH1 0x20 PUSH1 0x40 MLOAD DUP1 DUP4 SUB DUP2 DUP7 DUP1 EXTCODESIZE ISZERO DUP1 ISZERO PUSH2 0x1AD5 JUMPI PUSH1 0x0 DUP1 REVERT JUMPDEST POP GAS STATICCALL ISZERO DUP1 ISZERO PUSH2 0x1AE9 JUMPI RETURNDATASIZE PUSH1 0x0 DUP1 RETURNDATACOPY RETURNDATASIZE PUSH1 0x0 REVERT JUMPDEST POP POP POP POP PUSH1 0x40 MLOAD RETURNDATASIZE PUSH1 0x1F NOT PUSH1 0x1F DUP3 ADD AND DUP3 ADD DUP1 PUSH1 0x40 MSTORE POP DUP2 ADD SWAP1 PUSH2 0x1B0D SWAP2 SWAP1 PUSH2 0x2552 JUMP JUMPDEST SWAP1 POP PUSH1 0x0 DUP2 SLT PUSH2 0x1B1D JUMPI DUP1 PUSH2 0x5BB JUMP JUMPDEST POP PUSH1 0x0 SWAP3 SWAP2 POP POP JUMP JUMPDEST PUSH1 0x40 DUP1 MLOAD DUP1 DUP3 ADD DUP3 MSTORE PUSH1 0x5 DUP2 MSTORE PUSH5 0x5072696D65 PUSH1 0xD8 SHL PUSH1 0x20 DUP1 DUP4 ADD SWAP2 SWAP1 SWAP2 MSTORE DUP3 MLOAD DUP1 DUP5 ADD SWAP1 SWAP4 MSTORE PUSH1 0x1 DUP4 MSTORE PUSH1 0x7 PUSH1 0xFC SHL SWAP1 DUP4 ADD MSTORE SWAP2 PUSH1 0x60 SWAP2 SWAP1 JUMP JUMPDEST PUSH1 0x3 SLOAD PUSH1 0x40 MLOAD PUSH4 0x1F1CD707 PUSH1 0xE2 SHL DUP2 MSTORE PUSH1 0x0 SWAP2 PUSH1 0x1 PUSH1 0x1 PUSH1 0xA0 SHL SUB PUSH32 0x0 AND SWAP2 PUSH4 0x7C735C1C SWAP2 PUSH2 0x160F SWAP2 PUSH2 0xFFFF SWAP1 SWAP2 AND SWAP1 CALLER SWAP1 DUP9 SWAP1 DUP9 SWAP1 PUSH1 0x4 ADD PUSH2 0x293D JUMP JUMPDEST PUSH1 0x0 PUSH2 0x1BC9 ADDRESS PUSH2 0x1464 JUMP JUMPDEST ISZERO SWAP1 POP SWAP1 JUMP JUMPDEST DUP1 ISZERO DUP1 PUSH2 0x1C55 JUMPI POP PUSH1 0x40 DUP1 MLOAD PUSH4 0x6EB1769F PUSH1 0xE1 SHL DUP2 MSTORE ADDRESS PUSH1 0x4 DUP3 ADD MSTORE PUSH1 0x1 PUSH1 0x1 PUSH1 0xA0 SHL SUB DUP5 DUP2 AND PUSH1 0x24 DUP4 ADD MSTORE SWAP2 MLOAD SWAP2 DUP6 AND SWAP2 PUSH4 0xDD62ED3E SWAP2 PUSH1 0x44 DUP1 DUP3 ADD SWAP3 PUSH1 0x20 SWAP3 SWAP1 SWAP2 SWAP1 DUP3 SWAP1 SUB ADD DUP2 DUP7 DUP1 EXTCODESIZE ISZERO DUP1 ISZERO PUSH2 0x1C27 JUMPI PUSH1 0x0 DUP1 REVERT JUMPDEST POP GAS STATICCALL ISZERO DUP1 ISZERO PUSH2 0x1C3B JUMPI RETURNDATASIZE PUSH1 0x0 DUP1 RETURNDATACOPY RETURNDATASIZE PUSH1 0x0 REVERT JUMPDEST POP POP POP POP PUSH1 0x40 MLOAD RETURNDATASIZE PUSH1 0x20 DUP2 LT ISZERO PUSH2 0x1C51 JUMPI PUSH1 0x0 DUP1 REVERT JUMPDEST POP MLOAD ISZERO JUMPDEST PUSH2 0x1C90 JUMPI PUSH1 0x40 MLOAD PUSH3 0x461BCD PUSH1 0xE5 SHL DUP2 MSTORE PUSH1 0x4 ADD DUP1 DUP1 PUSH1 0x20 ADD DUP3 DUP2 SUB DUP3 MSTORE PUSH1 0x36 DUP2 MSTORE PUSH1 0x20 ADD DUP1 PUSH2 0x2AE8 PUSH1 0x36 SWAP2 CODECOPY PUSH1 0x40 ADD SWAP2 POP POP PUSH1 0x40 MLOAD DUP1 SWAP2 SUB SWAP1 REVERT JUMPDEST PUSH1 0x40 DUP1 MLOAD PUSH1 0x1 PUSH1 0x1 PUSH1 0xA0 SHL SUB DUP5 AND PUSH1 0x24 DUP3 ADD MSTORE PUSH1 0x44 DUP1 DUP3 ADD DUP5 SWAP1 MSTORE DUP3 MLOAD DUP1 DUP4 SUB SWAP1 SWAP2 ADD DUP2 MSTORE PUSH1 0x64 SWAP1 SWAP2 ADD SWAP1 SWAP2 MSTORE PUSH1 0x20 DUP2 ADD DUP1 MLOAD PUSH1 0x1 PUSH1 0x1 PUSH1 0xE0 SHL SUB AND PUSH4 0x95EA7B3 PUSH1 0xE0 SHL OR SWAP1 MSTORE PUSH2 0x1CE2 SWAP1 DUP5 SWAP1 PUSH2 0x1FDB JUMP JUMPDEST POP POP POP JUMP JUMPDEST PUSH1 0x0 PUSH2 0x624 PUSH1 0x0 NOT DUP4 PUSH2 0x1EDD JUMP JUMPDEST PUSH1 0x3 SLOAD PUSH1 0x0 SWAP1 PUSH1 0x1 PUSH1 0x1 PUSH1 0xA0 SHL SUB PUSH32 0x0 AND SWAP1 PUSH4 0x912E33C7 SWAP1 PUSH2 0xFFFF AND DUP5 DUP7 CALLER PUSH2 0x1D3C DUP11 PUSH2 0x208C JUMP JUMPDEST PUSH1 0x40 MLOAD DUP7 PUSH4 0xFFFFFFFF AND PUSH1 0xE0 SHL DUP2 MSTORE PUSH1 0x4 ADD PUSH2 0x1D5C SWAP6 SWAP5 SWAP4 SWAP3 SWAP2 SWAP1 PUSH2 0x298D JUMP JUMPDEST PUSH1 0x20 PUSH1 0x40 MLOAD DUP1 DUP4 SUB DUP2 PUSH1 0x0 DUP8 DUP1 EXTCODESIZE ISZERO DUP1 ISZERO PUSH2 0x1D76 JUMPI PUSH1 0x0 DUP1 REVERT JUMPDEST POP GAS CALL ISZERO DUP1 ISZERO PUSH2 0x1D8A JUMPI RETURNDATASIZE PUSH1 0x0 DUP1 RETURNDATACOPY RETURNDATASIZE PUSH1 0x0 REVERT JUMPDEST POP POP POP POP PUSH1 0x40 MLOAD RETURNDATASIZE PUSH1 0x1F NOT PUSH1 0x1F DUP3 ADD AND DUP3 ADD DUP1 PUSH1 0x40 MSTORE POP DUP2 ADD SWAP1 PUSH2 0x17DD SWAP2 SWAP1 PUSH2 0x2552 JUMP JUMPDEST PUSH1 0x0 DUP1 DUP3 SLT ISZERO PUSH2 0x1DC8 JUMPI PUSH2 0x1DC1 DUP3 PUSH2 0x1CE7 JUMP JUMPDEST SWAP1 POP PUSH2 0x5BF JUMP JUMPDEST POP DUP1 PUSH2 0x5BF JUMP JUMPDEST PUSH1 0x3 SLOAD PUSH1 0x40 MLOAD PUSH4 0x41075971 PUSH1 0xE0 SHL DUP2 MSTORE PUSH1 0x0 SWAP2 PUSH1 0x1 PUSH1 0x1 PUSH1 0xA0 SHL SUB PUSH32 0x0 AND SWAP2 PUSH4 0x41075971 SWAP2 PUSH2 0x1E2A SWAP2 PUSH2 0xFFFF SWAP1 SWAP2 AND SWAP1 DUP8 SWAP1 DUP8 SWAP1 PUSH1 0x4 ADD PUSH2 0x2968 JUMP JUMPDEST PUSH1 0x20 PUSH1 0x40 MLOAD DUP1 DUP4 SUB DUP2 DUP7 DUP1 EXTCODESIZE ISZERO DUP1 ISZERO PUSH2 0x1E42 JUMPI PUSH1 0x0 DUP1 REVERT JUMPDEST POP GAS STATICCALL ISZERO DUP1 ISZERO PUSH2 0x1E56 JUMPI RETURNDATASIZE PUSH1 0x0 DUP1 RETURNDATACOPY RETURNDATASIZE PUSH1 0x0 REVERT JUMPDEST POP POP POP POP PUSH1 0x40 MLOAD RETURNDATASIZE PUSH1 0x1F NOT PUSH1 0x1F DUP3 ADD AND DUP3 ADD DUP1 PUSH1 0x40 MSTORE POP DUP2 ADD SWAP1 PUSH2 0x6CE SWAP2 SWAP1 PUSH2 0x2552 JUMP JUMPDEST PUSH1 0x0 PUSH1 0x1 PUSH1 0x1 PUSH1 0xFF SHL SUB DUP3 GT ISZERO PUSH2 0x1E90 JUMPI PUSH1 0x0 DUP1 REVERT JUMPDEST POP SWAP1 JUMP JUMPDEST PUSH1 0x0 DUP1 PUSH2 0x1EC1 PUSH15 0xC097CE7BC90715B34B9F1000000000 PUSH2 0x1561 DUP7 PUSH1 0x0 ADD MLOAD DUP7 PUSH2 0x1EDD SWAP1 SWAP2 SWAP1 PUSH4 0xFFFFFFFF AND JUMP JUMPDEST SWAP1 POP PUSH1 0x0 DUP4 SLT PUSH2 0x1ED1 JUMPI DUP1 PUSH2 0x17DD JUMP JUMPDEST PUSH2 0x17DD DUP2 PUSH1 0x0 NOT PUSH2 0x20A6 JUMP JUMPDEST DUP2 DUP2 MUL PUSH1 0x0 NOT DUP4 EQ ISZERO PUSH2 0x1F08 JUMPI DUP2 ISZERO DUP1 PUSH2 0x1EFF JUMPI POP DUP3 DUP3 DUP3 DUP2 PUSH2 0x1EFC JUMPI INVALID JUMPDEST SDIV EQ JUMPDEST PUSH2 0x655 JUMPI PUSH1 0x0 DUP1 REVERT JUMPDEST DUP3 ISZERO DUP1 PUSH2 0x1F1D JUMPI POP DUP2 DUP4 DUP3 DUP2 PUSH2 0x1F1A JUMPI INVALID JUMPDEST SDIV EQ JUMPDEST PUSH2 0x624 JUMPI PUSH1 0x0 DUP1 REVERT JUMPDEST PUSH1 0x0 DUP2 PUSH1 0x0 NOT EQ DUP1 ISZERO PUSH2 0x1F3C JUMPI POP PUSH1 0x1 PUSH1 0xFF SHL DUP4 EQ JUMPDEST ISZERO PUSH2 0x1F46 JUMPI PUSH1 0x0 DUP1 REVERT JUMPDEST DUP2 DUP4 DUP2 PUSH2 0x1F4F JUMPI INVALID JUMPDEST SDIV SWAP4 SWAP3 POP POP POP JUMP JUMPDEST PUSH1 0x0 DUP1 DUP3 SLT ISZERO PUSH2 0x1E90 JUMPI PUSH1 0x0 DUP1 REVERT JUMPDEST PUSH1 0x40 DUP1 MLOAD PUSH1 0x1 PUSH1 0x1 PUSH1 0xA0 SHL SUB DUP1 DUP7 AND PUSH1 0x24 DUP4 ADD MSTORE DUP5 AND PUSH1 0x44 DUP3 ADD MSTORE PUSH1 0x64 DUP1 DUP3 ADD DUP5 SWAP1 MSTORE DUP3 MLOAD DUP1 DUP4 SUB SWAP1 SWAP2 ADD DUP2 MSTORE PUSH1 0x84 SWAP1 SWAP2 ADD SWAP1 SWAP2 MSTORE PUSH1 0x20 DUP2 ADD DUP1 MLOAD PUSH1 0x1 PUSH1 0x1 PUSH1 0xE0 SHL SUB AND PUSH4 0x23B872DD PUSH1 0xE0 SHL OR SWAP1 MSTORE PUSH2 0x1FC0 SWAP1 DUP6 SWAP1 PUSH2 0x1FDB JUMP JUMPDEST POP POP POP POP JUMP JUMPDEST PUSH1 0x0 DUP3 DUP3 GT ISZERO PUSH2 0x1FD5 JUMPI PUSH1 0x0 DUP1 REVERT JUMPDEST POP SWAP1 SUB SWAP1 JUMP JUMPDEST PUSH1 0x0 PUSH2 0x2030 DUP3 PUSH1 0x40 MLOAD DUP1 PUSH1 0x40 ADD PUSH1 0x40 MSTORE DUP1 PUSH1 0x20 DUP2 MSTORE PUSH1 0x20 ADD PUSH32 0x5361666545524332303A206C6F772D6C6576656C2063616C6C206661696C6564 DUP2 MSTORE POP DUP6 PUSH1 0x1 PUSH1 0x1 PUSH1 0xA0 SHL SUB AND PUSH2 0x20BC SWAP1 SWAP3 SWAP2 SWAP1 PUSH4 0xFFFFFFFF AND JUMP JUMPDEST DUP1 MLOAD SWAP1 SWAP2 POP ISZERO PUSH2 0x1CE2 JUMPI DUP1 DUP1 PUSH1 0x20 ADD SWAP1 MLOAD PUSH1 0x20 DUP2 LT ISZERO PUSH2 0x204F JUMPI PUSH1 0x0 DUP1 REVERT JUMPDEST POP MLOAD PUSH2 0x1CE2 JUMPI PUSH1 0x40 MLOAD PUSH3 0x461BCD PUSH1 0xE5 SHL DUP2 MSTORE PUSH1 0x4 ADD DUP1 DUP1 PUSH1 0x20 ADD DUP3 DUP2 SUB DUP3 MSTORE PUSH1 0x2A DUP2 MSTORE PUSH1 0x20 ADD DUP1 PUSH2 0x2ABE PUSH1 0x2A SWAP2 CODECOPY PUSH1 0x40 ADD SWAP2 POP POP PUSH1 0x40 MLOAD DUP1 SWAP2 SUB SWAP1 REVERT JUMPDEST PUSH1 0x0 PUSH11 0xFFFFFFFFFFFFFFFFFFFFFF DUP3 GT ISZERO PUSH2 0x1E90 JUMPI PUSH1 0x0 DUP1 REVERT JUMPDEST PUSH1 0x0 DUP2 DUP4 SLT PUSH2 0x20B5 JUMPI DUP2 PUSH2 0x6CE JUMP JUMPDEST POP SWAP1 SWAP2 SWAP1 POP JUMP JUMPDEST PUSH1 0x60 PUSH2 0x17DD DUP5 DUP5 PUSH1 0x0 DUP6 DUP6 PUSH2 0x20D0 DUP6 PUSH2 0x1464 JUMP JUMPDEST PUSH2 0x2121 JUMPI PUSH1 0x40 DUP1 MLOAD PUSH3 0x461BCD PUSH1 0xE5 SHL DUP2 MSTORE PUSH1 0x20 PUSH1 0x4 DUP3 ADD MSTORE PUSH1 0x1D PUSH1 0x24 DUP3 ADD MSTORE PUSH32 0x416464726573733A2063616C6C20746F206E6F6E2D636F6E7472616374000000 PUSH1 0x44 DUP3 ADD MSTORE SWAP1 MLOAD SWAP1 DUP2 SWAP1 SUB PUSH1 0x64 ADD SWAP1 REVERT JUMPDEST PUSH1 0x0 DUP1 DUP7 PUSH1 0x1 PUSH1 0x1 PUSH1 0xA0 SHL SUB AND DUP6 DUP8 PUSH1 0x40 MLOAD DUP1 DUP3 DUP1 MLOAD SWAP1 PUSH1 0x20 ADD SWAP1 DUP1 DUP4 DUP4 JUMPDEST PUSH1 0x20 DUP4 LT PUSH2 0x215F JUMPI DUP1 MLOAD DUP3 MSTORE PUSH1 0x1F NOT SWAP1 SWAP3 ADD SWAP2 PUSH1 0x20 SWAP2 DUP3 ADD SWAP2 ADD PUSH2 0x2140 JUMP JUMPDEST PUSH1 0x1 DUP4 PUSH1 0x20 SUB PUSH2 0x100 EXP SUB DUP1 NOT DUP3 MLOAD AND DUP2 DUP5 MLOAD AND DUP1 DUP3 OR DUP6 MSTORE POP POP POP POP POP POP SWAP1 POP ADD SWAP2 POP POP PUSH1 0x0 PUSH1 0x40 MLOAD DUP1 DUP4 SUB DUP2 DUP6 DUP8 GAS CALL SWAP3 POP POP POP RETURNDATASIZE DUP1 PUSH1 0x0 DUP2 EQ PUSH2 0x21C1 JUMPI PUSH1 0x40 MLOAD SWAP2 POP PUSH1 0x1F NOT PUSH1 0x3F RETURNDATASIZE ADD AND DUP3 ADD PUSH1 0x40 MSTORE RETURNDATASIZE DUP3 MSTORE RETURNDATASIZE PUSH1 0x0 PUSH1 0x20 DUP5 ADD RETURNDATACOPY PUSH2 0x21C6 JUMP JUMPDEST PUSH1 0x60 SWAP2 POP JUMPDEST POP SWAP2 POP SWAP2 POP PUSH2 0x21D6 DUP3 DUP3 DUP7 PUSH2 0x21E1 JUMP JUMPDEST SWAP8 SWAP7 POP POP POP POP POP POP POP JUMP JUMPDEST PUSH1 0x60 DUP4 ISZERO PUSH2 0x21F0 JUMPI POP DUP2 PUSH2 0x6CE JUMP JUMPDEST DUP3 MLOAD ISZERO PUSH2 0x2200 JUMPI DUP3 MLOAD DUP1 DUP5 PUSH1 0x20 ADD REVERT JUMPDEST DUP2 PUSH1 0x40 MLOAD PUSH3 0x461BCD PUSH1 0xE5 SHL DUP2 MSTORE PUSH1 0x4 ADD DUP1 DUP1 PUSH1 0x20 ADD DUP3 DUP2 SUB DUP3 MSTORE DUP4 DUP2 DUP2 MLOAD DUP2 MSTORE PUSH1 0x20 ADD SWAP2 POP DUP1 MLOAD SWAP1 PUSH1 0x20 ADD SWAP1 DUP1 DUP4 DUP4 PUSH1 0x0 JUMPDEST DUP4 DUP2 LT ISZERO PUSH2 0x224A JUMPI DUP2 DUP2 ADD MLOAD DUP4 DUP3 ADD MSTORE PUSH1 0x20 ADD PUSH2 0x2232 JUMP JUMPDEST POP POP POP POP SWAP1 POP SWAP1 DUP2 ADD SWAP1 PUSH1 0x1F AND DUP1 ISZERO PUSH2 0x2277 JUMPI DUP1 DUP3 SUB DUP1 MLOAD PUSH1 0x1 DUP4 PUSH1 0x20 SUB PUSH2 0x100 EXP SUB NOT AND DUP2 MSTORE PUSH1 0x20 ADD SWAP2 POP JUMPDEST POP SWAP3 POP POP POP PUSH1 0x40 MLOAD DUP1 SWAP2 SUB SWAP1 REVERT JUMPDEST DUP3 DUP1 SLOAD PUSH1 0x1 DUP2 PUSH1 0x1 AND ISZERO PUSH2 0x100 MUL SUB AND PUSH1 0x2 SWAP1 DIV SWAP1 PUSH1 0x0 MSTORE PUSH1 0x20 PUSH1 0x0 KECCAK256 SWAP1 PUSH1 0x1F ADD PUSH1 0x20 SWAP1 DIV DUP2 ADD SWAP3 DUP3 PUSH2 0x22BB JUMPI PUSH1 0x0 DUP6 SSTORE PUSH2 0x2301 JUMP JUMPDEST DUP3 PUSH1 0x1F LT PUSH2 0x22D4 JUMPI DUP1 MLOAD PUSH1 0xFF NOT AND DUP4 DUP1 ADD OR DUP6 SSTORE PUSH2 0x2301 JUMP JUMPDEST DUP3 DUP1 ADD PUSH1 0x1 ADD DUP6 SSTORE DUP3 ISZERO PUSH2 0x2301 JUMPI SWAP2 DUP3 ADD JUMPDEST DUP3 DUP2 GT ISZERO PUSH2 0x2301 JUMPI DUP3 MLOAD DUP3 SSTORE SWAP2 PUSH1 0x20 ADD SWAP2 SWAP1 PUSH1 0x1 ADD SWAP1 PUSH2 0x22E6 JUMP JUMPDEST POP PUSH2 0x1E90 SWAP3 SWAP2 POP JUMPDEST DUP1 DUP3 GT ISZERO PUSH2 0x1E90 JUMPI PUSH1 0x0 DUP2 SSTORE PUSH1 0x1 ADD PUSH2 0x2309 JUMP JUMPDEST PUSH1 0x0 DUP3 PUSH1 0x1F DUP4 ADD SLT PUSH2 0x232D JUMPI DUP1 DUP2 REVERT JUMPDEST DUP2 CALLDATALOAD PUSH8 0xFFFFFFFFFFFFFFFF DUP2 GT ISZERO PUSH2 0x2341 JUMPI INVALID JUMPDEST PUSH2 0x2354 PUSH1 0x1F DUP3 ADD PUSH1 0x1F NOT AND PUSH1 0x20 ADD PUSH2 0x2A07 JUMP JUMPDEST DUP2 DUP2 MSTORE DUP5 PUSH1 0x20 DUP4 DUP7 ADD ADD GT ISZERO PUSH2 0x2368 JUMPI DUP3 DUP4 REVERT JUMPDEST DUP2 PUSH1 0x20 DUP6 ADD PUSH1 0x20 DUP4 ADD CALLDATACOPY SWAP1 DUP2 ADD PUSH1 0x20 ADD SWAP2 SWAP1 SWAP2 MSTORE SWAP3 SWAP2 POP POP JUMP JUMPDEST PUSH1 0x0 PUSH2 0x120 DUP1 DUP4 DUP6 SUB SLT ISZERO PUSH2 0x2395 JUMPI DUP2 DUP3 REVERT JUMPDEST PUSH2 0x239E DUP2 PUSH2 0x2A07 JUMP JUMPDEST SWAP2 POP POP DUP2 MLOAD DUP2 MSTORE PUSH1 0x20 DUP3 ADD MLOAD PUSH1 0x20 DUP3 ADD MSTORE PUSH1 0x40 DUP3 ADD MLOAD PUSH1 0x40 DUP3 ADD MSTORE PUSH1 0x60 DUP3 ADD MLOAD PUSH1 0x60 DUP3 ADD MSTORE PUSH1 0x80 DUP3 ADD MLOAD PUSH1 0x80 DUP3 ADD MSTORE PUSH1 0xA0 DUP3 ADD MLOAD PUSH1 0xA0 DUP3 ADD MSTORE PUSH1 0xC0 DUP3 ADD MLOAD PUSH1 0xC0 DUP3 ADD MSTORE PUSH1 0xE0 DUP3 ADD MLOAD PUSH1 0xE0 DUP3 ADD MSTORE PUSH2 0x100 DUP1 DUP4 ADD MLOAD DUP2 DUP4 ADD MSTORE POP SWAP3 SWAP2 POP POP JUMP JUMPDEST PUSH1 0x0 PUSH1 0x20 DUP3 DUP5 SUB SLT ISZERO PUSH2 0x240E JUMPI DUP1 DUP2 REVERT JUMPDEST DUP2 CALLDATALOAD PUSH2 0x6CE DUP2 PUSH2 0x2A57 JUMP JUMPDEST PUSH1 0x0 PUSH1 0x20 DUP3 DUP5 SUB SLT ISZERO PUSH2 0x242A JUMPI DUP1 DUP2 REVERT JUMPDEST DUP2 MLOAD PUSH2 0x6CE DUP2 PUSH2 0x2A57 JUMP JUMPDEST PUSH1 0x0 DUP1 PUSH1 0x40 DUP4 DUP6 SUB SLT ISZERO PUSH2 0x2447 JUMPI DUP1 DUP2 REVERT JUMPDEST DUP3 CALLDATALOAD PUSH2 0x2452 DUP2 PUSH2 0x2A57 JUMP JUMPDEST SWAP2 POP PUSH1 0x20 DUP4 ADD CALLDATALOAD PUSH2 0x2462 DUP2 PUSH2 0x2A57 JUMP JUMPDEST DUP1 SWAP2 POP POP SWAP3 POP SWAP3 SWAP1 POP JUMP JUMPDEST PUSH1 0x0 DUP1 PUSH1 0x0 DUP1 PUSH1 0x80 DUP6 DUP8 SUB SLT ISZERO PUSH2 0x2482 JUMPI DUP2 DUP3 REVERT JUMPDEST DUP5 CALLDATALOAD PUSH2 0x248D DUP2 PUSH2 0x2A57 JUMP JUMPDEST SWAP4 POP PUSH1 0x20 DUP6 ADD CALLDATALOAD PUSH2 0x249D DUP2 PUSH2 0x2A57 JUMP JUMPDEST SWAP4 SWAP7 SWAP4 SWAP6 POP POP POP POP PUSH1 0x40 DUP3 ADD CALLDATALOAD SWAP2 PUSH1 0x60 ADD CALLDATALOAD SWAP1 JUMP JUMPDEST PUSH1 0x0 DUP1 PUSH1 0x0 PUSH1 0x60 DUP5 DUP7 SUB SLT ISZERO PUSH2 0x24C6 JUMPI DUP3 DUP4 REVERT JUMPDEST DUP4 CALLDATALOAD PUSH2 0x24D1 DUP2 PUSH2 0x2A57 JUMP JUMPDEST SWAP3 POP PUSH1 0x20 DUP5 ADD CALLDATALOAD PUSH2 0x24E1 DUP2 PUSH2 0x2A57 JUMP JUMPDEST SWAP3 SWAP6 SWAP3 SWAP5 POP POP POP PUSH1 0x40 SWAP2 SWAP1 SWAP2 ADD CALLDATALOAD SWAP1 JUMP JUMPDEST PUSH1 0x0 DUP1 PUSH1 0x0 DUP1 PUSH1 0x80 DUP6 DUP8 SUB SLT ISZERO PUSH2 0x2482 JUMPI DUP4 DUP5 REVERT JUMPDEST PUSH1 0x0 DUP1 PUSH1 0x40 DUP4 DUP6 SUB SLT ISZERO PUSH2 0x2519 JUMPI DUP2 DUP3 REVERT JUMPDEST DUP3 CALLDATALOAD PUSH2 0x2524 DUP2 PUSH2 0x2A57 JUMP JUMPDEST SWAP5 PUSH1 0x20 SWAP4 SWAP1 SWAP4 ADD CALLDATALOAD SWAP4 POP POP POP JUMP JUMPDEST PUSH1 0x0 PUSH1 0x20 DUP3 DUP5 SUB SLT ISZERO PUSH2 0x2543 JUMPI DUP1 DUP2 REVERT JUMPDEST DUP2 MLOAD DUP1 ISZERO ISZERO DUP2 EQ PUSH2 0x6CE JUMPI DUP2 DUP3 REVERT JUMPDEST PUSH1 0x0 PUSH1 0x20 DUP3 DUP5 SUB SLT ISZERO PUSH2 0x2563 JUMPI DUP1 DUP2 REVERT JUMPDEST POP MLOAD SWAP2 SWAP1 POP JUMP JUMPDEST PUSH1 0x0 DUP1 PUSH1 0x40 DUP4 DUP6 SUB SLT ISZERO PUSH2 0x257C JUMPI DUP2 DUP3 REVERT JUMPDEST DUP3 CALLDATALOAD PUSH8 0xFFFFFFFFFFFFFFFF DUP1 DUP3 GT ISZERO PUSH2 0x2593 JUMPI DUP4 DUP5 REVERT JUMPDEST PUSH2 0x259F DUP7 DUP4 DUP8 ADD PUSH2 0x231D JUMP JUMPDEST SWAP4 POP PUSH1 0x20 DUP6 ADD CALLDATALOAD SWAP2 POP DUP1 DUP3 GT ISZERO PUSH2 0x25B4 JUMPI DUP3 DUP4 REVERT JUMPDEST POP PUSH2 0x25C1 DUP6 DUP3 DUP7 ADD PUSH2 0x231D JUMP JUMPDEST SWAP2 POP POP SWAP3 POP SWAP3 SWAP1 POP JUMP JUMPDEST PUSH1 0x0 DUP1 PUSH1 0x0 DUP1 PUSH1 0x0 DUP1 DUP7 DUP9 SUB PUSH2 0x200 DUP2 SLT ISZERO PUSH2 0x25E5 JUMPI DUP5 DUP6 REVERT JUMPDEST PUSH1 0x60 DUP2 SLT ISZERO PUSH2 0x25F2 JUMPI DUP5 DUP6 REVERT JUMPDEST POP PUSH1 0x40 MLOAD PUSH1 0x60 DUP2 ADD DUP2 DUP2 LT PUSH8 0xFFFFFFFFFFFFFFFF DUP3 GT OR ISZERO PUSH2 0x2610 JUMPI INVALID JUMPDEST PUSH1 0x40 SWAP1 DUP2 MSTORE DUP9 MLOAD DUP3 MSTORE PUSH1 0x20 DUP1 DUP11 ADD MLOAD SWAP1 DUP4 ADD MSTORE DUP9 DUP2 ADD MLOAD SWAP1 DUP3 ADD MSTORE SWAP6 POP PUSH2 0x263A DUP9 PUSH1 0x60 DUP10 ADD PUSH2 0x2382 JUMP JUMPDEST SWAP5 POP PUSH2 0x180 DUP8 ADD MLOAD SWAP4 POP PUSH2 0x1A0 DUP8 ADD MLOAD SWAP3 POP PUSH2 0x1C0 DUP8 ADD MLOAD SWAP2 POP PUSH2 0x1E0 DUP8 ADD MLOAD SWAP1 POP SWAP3 SWAP6 POP SWAP3 SWAP6 POP SWAP3 SWAP6 JUMP JUMPDEST PUSH1 0x0 DUP1 PUSH1 0x0 DUP1 PUSH1 0x80 DUP6 DUP8 SUB SLT ISZERO PUSH2 0x267B JUMPI DUP2 DUP3 REVERT JUMPDEST DUP5 CALLDATALOAD PUSH2 0xFFFF DUP2 AND DUP2 EQ PUSH2 0x268C JUMPI DUP3 DUP4 REVERT JUMPDEST SWAP4 POP PUSH1 0x20 DUP6 ADD CALLDATALOAD PUSH2 0x269C DUP2 PUSH2 0x2A57 JUMP JUMPDEST SWAP3 POP PUSH1 0x40 DUP6 ADD CALLDATALOAD PUSH8 0xFFFFFFFFFFFFFFFF DUP1 DUP3 GT ISZERO PUSH2 0x26B8 JUMPI DUP4 DUP5 REVERT JUMPDEST PUSH2 0x26C4 DUP9 DUP4 DUP10 ADD PUSH2 0x231D JUMP JUMPDEST SWAP4 POP PUSH1 0x60 DUP8 ADD CALLDATALOAD SWAP2 POP DUP1 DUP3 GT ISZERO PUSH2 0x26D9 JUMPI DUP3 DUP4 REVERT JUMPDEST POP PUSH2 0x26E6 DUP8 DUP3 DUP9 ADD PUSH2 0x231D JUMP JUMPDEST SWAP2 POP POP SWAP3 SWAP6 SWAP2 SWAP5 POP SWAP3 POP JUMP JUMPDEST PUSH1 0x0 PUSH1 0x20 DUP3 DUP5 SUB SLT ISZERO PUSH2 0x2703 JUMPI DUP1 DUP2 REVERT JUMPDEST POP CALLDATALOAD SWAP2 SWAP1 POP JUMP JUMPDEST PUSH1 0x0 DUP1 PUSH1 0x40 DUP4 DUP6 SUB SLT ISZERO PUSH2 0x271C JUMPI DUP2 DUP3 REVERT JUMPDEST DUP3 CALLDATALOAD SWAP2 POP PUSH1 0x20 DUP4 ADD CALLDATALOAD PUSH2 0x2462 DUP2 PUSH2 0x2A57 JUMP JUMPDEST PUSH1 0x0 DUP1 PUSH1 0x0 PUSH1 0x60 DUP5 DUP7 SUB SLT ISZERO PUSH2 0x2742 JUMPI DUP1 DUP2 REVERT JUMPDEST DUP4 CALLDATALOAD SWAP3 POP PUSH1 0x20 DUP5 ADD CALLDATALOAD PUSH2 0x2754 DUP2 PUSH2 0x2A57 JUMP JUMPDEST SWAP2 POP PUSH1 0x40 DUP5 ADD CALLDATALOAD PUSH2 0x2764 DUP2 PUSH2 0x2A57 JUMP JUMPDEST DUP1 SWAP2 POP POP SWAP3 POP SWAP3 POP SWAP3 JUMP JUMPDEST PUSH1 0x0 PUSH1 0x20 DUP3 DUP5 SUB SLT ISZERO PUSH2 0x2780 JUMPI DUP1 DUP2 REVERT JUMPDEST DUP2 MLOAD PUSH1 0xFF DUP2 AND DUP2 EQ PUSH2 0x6CE JUMPI DUP2 DUP3 REVERT JUMPDEST PUSH1 0x0 DUP4 MLOAD PUSH2 0x27A2 DUP2 DUP5 PUSH1 0x20 DUP9 ADD PUSH2 0x2A2B JUMP JUMPDEST DUP4 MLOAD SWAP1 DUP4 ADD SWAP1 PUSH2 0x27B6 DUP2 DUP4 PUSH1 0x20 DUP9 ADD PUSH2 0x2A2B JUMP JUMPDEST ADD SWAP5 SWAP4 POP POP POP POP JUMP JUMPDEST PUSH1 0x0 DUP5 MLOAD PUSH2 0x27D1 DUP2 DUP5 PUSH1 0x20 DUP10 ADD PUSH2 0x2A2B JUMP JUMPDEST PUSH1 0x1 PUSH1 0xFD SHL SWAP1 DUP4 ADD SWAP1 DUP2 MSTORE DUP5 MLOAD PUSH2 0x27EF DUP2 PUSH1 0x1 DUP5 ADD PUSH1 0x20 DUP10 ADD PUSH2 0x2A2B JUMP JUMPDEST DUP5 MLOAD SWAP2 ADD SWAP1 PUSH2 0x2805 DUP2 PUSH1 0x1 DUP5 ADD PUSH1 0x20 DUP9 ADD PUSH2 0x2A2B JUMP JUMPDEST ADD PUSH1 0x1 ADD SWAP6 SWAP5 POP POP POP POP POP JUMP JUMPDEST PUSH1 0x1 PUSH1 0x1 PUSH1 0xA0 SHL SUB SWAP2 SWAP1 SWAP2 AND DUP2 MSTORE PUSH1 0x20 ADD SWAP1 JUMP JUMPDEST PUSH1 0x1 PUSH1 0x1 PUSH1 0xA0 SHL SUB SWAP4 SWAP1 SWAP4 AND DUP4 MSTORE PUSH2 0xFFFF SWAP2 SWAP1 SWAP2 AND PUSH1 0x20 DUP4 ADD MSTORE PUSH1 0x40 DUP3 ADD MSTORE PUSH1 0x60 ADD SWAP1 JUMP JUMPDEST SWAP1 ISZERO ISZERO DUP2 MSTORE PUSH1 0x20 ADD SWAP1 JUMP JUMPDEST PUSH1 0x0 PUSH1 0x20 DUP3 MSTORE DUP3 MLOAD DUP1 PUSH1 0x20 DUP5 ADD MSTORE PUSH2 0x2875 DUP2 PUSH1 0x40 DUP6 ADD PUSH1 0x20 DUP8 ADD PUSH2 0x2A2B JUMP JUMPDEST PUSH1 0x1F ADD PUSH1 0x1F NOT AND SWAP2 SWAP1 SWAP2 ADD PUSH1 0x40 ADD SWAP3 SWAP2 POP POP JUMP JUMPDEST PUSH1 0x20 DUP1 DUP3 MSTORE PUSH1 0xC SWAP1 DUP3 ADD MSTORE PUSH12 0x155B985D5D1A1BDC9A5E9959 PUSH1 0xA2 SHL PUSH1 0x40 DUP3 ADD MSTORE PUSH1 0x60 ADD SWAP1 JUMP JUMPDEST PUSH1 0x20 DUP1 DUP3 MSTORE PUSH1 0x14 SWAP1 DUP3 ADD MSTORE PUSH20 0x496E73756666696369656E742042616C616E6365 PUSH1 0x60 SHL PUSH1 0x40 DUP3 ADD MSTORE PUSH1 0x60 ADD SWAP1 JUMP JUMPDEST PUSH2 0xFFFF SWAP2 SWAP1 SWAP2 AND DUP2 MSTORE PUSH1 0x20 ADD SWAP1 JUMP JUMPDEST PUSH2 0xFFFF SWAP3 SWAP1 SWAP3 AND DUP3 MSTORE PUSH1 0x1 PUSH1 0x1 PUSH1 0xA0 SHL SUB AND PUSH1 0x20 DUP3 ADD MSTORE PUSH1 0x40 ADD SWAP1 JUMP JUMPDEST PUSH2 0xFFFF SWAP6 SWAP1 SWAP6 AND DUP6 MSTORE PUSH1 0x1 PUSH1 0x1 PUSH1 0xA0 SHL SUB SWAP4 DUP5 AND PUSH1 0x20 DUP7 ADD MSTORE SWAP2 DUP4 AND PUSH1 0x40 DUP6 ADD MSTORE SWAP1 SWAP2 AND PUSH1 0x60 DUP4 ADD MSTORE PUSH1 0x80 DUP3 ADD MSTORE PUSH1 0xA0 ADD SWAP1 JUMP JUMPDEST PUSH2 0xFFFF SWAP5 SWAP1 SWAP5 AND DUP5 MSTORE PUSH1 0x1 PUSH1 0x1 PUSH1 0xA0 SHL SUB SWAP3 DUP4 AND PUSH1 0x20 DUP6 ADD MSTORE SWAP2 AND PUSH1 0x40 DUP4 ADD MSTORE PUSH1 0x60 DUP3 ADD MSTORE PUSH1 0x80 ADD SWAP1 JUMP JUMPDEST PUSH2 0xFFFF SWAP4 SWAP1 SWAP4 AND DUP4 MSTORE PUSH1 0x1 PUSH1 0x1 PUSH1 0xA0 SHL SUB SWAP2 DUP3 AND PUSH1 0x20 DUP5 ADD MSTORE AND PUSH1 0x40 DUP3 ADD MSTORE PUSH1 0x60 ADD SWAP1 JUMP JUMPDEST PUSH2 0xFFFF SWAP6 SWAP1 SWAP6 AND DUP6 MSTORE PUSH1 0x1 PUSH1 0x1 PUSH1 0xA0 SHL SUB SWAP4 DUP5 AND PUSH1 0x20 DUP7 ADD MSTORE SWAP2 DUP4 AND PUSH1 0x40 DUP6 ADD MSTORE SWAP1 SWAP2 AND PUSH1 0x60 DUP4 ADD MSTORE PUSH11 0xFFFFFFFFFFFFFFFFFFFFFF AND PUSH1 0x80 DUP3 ADD MSTORE PUSH1 0xA0 ADD SWAP1 JUMP JUMPDEST PUSH2 0xFFFF SWAP3 SWAP1 SWAP3 AND DUP3 MSTORE PUSH1 0x20 DUP3 ADD MSTORE PUSH1 0x40 ADD SWAP1 JUMP JUMPDEST SWAP1 DUP2 MSTORE PUSH1 0x20 ADD SWAP1 JUMP JUMPDEST SWAP2 DUP3 MSTORE PUSH1 0x20 DUP3 ADD MSTORE PUSH1 0x40 ADD SWAP1 JUMP JUMPDEST PUSH1 0xFF SWAP2 SWAP1 SWAP2 AND DUP2 MSTORE PUSH1 0x20 ADD SWAP1 JUMP JUMPDEST PUSH1 0x40 MLOAD DUP2 DUP2 ADD PUSH8 0xFFFFFFFFFFFFFFFF DUP2 GT DUP3 DUP3 LT OR ISZERO PUSH2 0x2A23 JUMPI INVALID JUMPDEST PUSH1 0x40 MSTORE SWAP2 SWAP1 POP JUMP JUMPDEST PUSH1 0x0 JUMPDEST DUP4 DUP2 LT ISZERO PUSH2 0x2A46 JUMPI DUP2 DUP2 ADD MLOAD DUP4 DUP3 ADD MSTORE PUSH1 0x20 ADD PUSH2 0x2A2E JUMP JUMPDEST DUP4 DUP2 GT ISZERO PUSH2 0x1FC0 JUMPI POP POP PUSH1 0x0 SWAP2 ADD MSTORE JUMP JUMPDEST PUSH1 0x1 PUSH1 0x1 PUSH1 0xA0 SHL SUB DUP2 AND DUP2 EQ PUSH2 0x2A6C JUMPI PUSH1 0x0 DUP1 REVERT JUMPDEST POP JUMP INVALID 0x49 PUSH15 0x697469616C697A61626C653A20636F PUSH15 0x747261637420697320616C72656164 PUSH26 0x20696E697469616C697A6564DDF252AD1BE2C89B69C2B068FC37 DUP14 0xAA SWAP6 0x2B 0xA7 CALL PUSH4 0xC4A11628 CREATE2 GAS 0x4D CREATE2 0x23 0xB3 0xEF MSTORE8 PUSH2 0x6665 GASLIMIT MSTORE NUMBER ORIGIN ADDRESS GASPRICE KECCAK256 GASLIMIT MSTORE NUMBER ORIGIN ADDRESS KECCAK256 PUSH16 0x7065726174696F6E20646964206E6F74 KECCAK256 PUSH20 0x7563636565645361666545524332303A20617070 PUSH19 0x6F76652066726F6D206E6F6E2D7A65726F2074 PUSH16 0x206E6F6E2D7A65726F20616C6C6F7761 PUSH15 0x6365A26469706673582212205CE9B6 MSTORE CALLDATASIZE CALL 0xE9 0xB4 0xC7 SMOD PUSH15 0xAF2351D4D1F924590BCE8F160DF31 ADDMOD 0x5D PUSH16 0x200B9964736F6C634300070600330000 ","sha1":"9688633bd0c97878fd577c527c955e14c443f365","source":"// SPDX-License-Identifier: BSUL-1.1\npragma solidity =0.7.6;\npragma abicoder v2;\n\nimport {SafeInt256} from \"../../math/SafeInt256.sol\";\nimport {SafeUint256} from \"../../math/SafeUint256.sol\";\nimport {Constants} from \"../../global/Constants.sol\";\nimport {PrimeCashFactors, PrimeRate} from \"../../global/Types.sol\";\n\nimport {PrimeRateLib} from \"../../internal/pCash/PrimeRateLib.sol\";\nimport {NotionalProxy, BaseERC4626Proxy} from \"./BaseERC4626Proxy.sol\";\n\ncontract PrimeCashProxy is BaseERC4626Proxy {\n    using SafeInt256 for int256;\n    using SafeUint256 for uint256;\n    using PrimeRateLib for PrimeRate;\n\n    constructor(NotionalProxy notional_) BaseERC4626Proxy(notional_) {}\n\n    function _getPrefixes() internal pure override returns (\n        string memory namePrefix,\n        string memory nameSuffix,\n        string memory symbolPrefix\n    ) {\n        namePrefix = \"Prime\";\n        symbolPrefix = \"p\";\n    }\n\n    function _totalSupply() internal view override returns (uint256 supply) {\n        // Total supply is looked up via the token address\n        (\n            /* */,\n            PrimeCashFactors memory factors,\n            /* */, /* */, /* */, /* */\n        ) = NOTIONAL.getPrimeFactors(currencyId, block.timestamp);\n\n        return factors.totalPrimeSupply;\n    }\n\n    function _balanceOf(address account) internal view override returns (uint256 balance) {\n        int256 cashBalance = NOTIONAL.getBalanceOfPrimeCash(currencyId, account);\n\n        // If cash balance is negative, return a zero to maintain compatibility with uint\n        return cashBalance < 0 ? 0 : uint256(cashBalance);\n    }\n\n    function _allowance(address account, address spender) internal view override returns (uint256) {\n        return NOTIONAL.pCashTransferAllowance(currencyId, account, spender);\n    }\n\n    function _approve(address spender, uint256 amount) internal override returns (bool) {\n        return NOTIONAL.pCashTransferApprove(currencyId, msg.sender, spender, amount);\n    }\n\n    function _transfer(address to, uint256 amount) internal override returns (bool) {\n        return NOTIONAL.pCashTransfer(currencyId, msg.sender, to, amount);\n    }\n\n    function _transferFrom(address from, address to, uint256 amount) internal override returns (bool) {\n        return NOTIONAL.pCashTransferFrom(currencyId, msg.sender, from, to, amount);\n    }\n\n    function _getTotalValueExternal() internal view override returns (uint256 totalValueExternal) {\n        (\n            PrimeRate memory pr,\n            PrimeCashFactors memory factors,\n            /* */, /* */, /* */, /* */\n        ) = NOTIONAL.getPrimeFactors(currencyId, block.timestamp);\n\n        totalValueExternal = pr.convertToUnderlying(factors.totalPrimeSupply.toInt())\n            // No overflow, native decimals is restricted to < 36 in initialize\n            .mul(int256(10**nativeDecimals))\n            .div(Constants.INTERNAL_TOKEN_PRECISION).toUint();\n    }\n\n    /// @notice pCash is a non-standard ERC4626 in the sense that assets are held on the proxy and may be liquidated\n    /// if there is a debt balance as well\n    /// @dev at this point the contract has the tokens....\n    function _mint(uint256 assets, uint256 msgValue, address receiver) internal override returns (uint256 tokensMinted) {\n        return NOTIONAL.depositUnderlyingToken{value: msgValue}(receiver, currencyId, assets);\n    }\n\n    function _redeem(uint256 shares, address receiver, address owner) internal override returns (uint256 assets) {\n        return NOTIONAL.withdrawViaProxy(currencyId, owner, receiver, msg.sender, shares.toUint88());\n    }\n\n}","sourcePath":"contracts/external/proxies/PrimeCashProxy.sol","type":"contract","deployment":{"address":"0xA40f569d1D3fd36c4B8d2Fd64B7440A3edD7ce0c","chainid":"42161","blockHeight":201295475}}