{"abi":[{"inputs":[{"internalType":"address","name":"liquidateAccount","type":"address"},{"internalType":"uint16","name":"localCurrency","type":"uint16"},{"internalType":"uint16","name":"fCashCurrency","type":"uint16"},{"internalType":"uint256[]","name":"fCashMaturities","type":"uint256[]"},{"internalType":"uint256[]","name":"maxfCashLiquidateAmounts","type":"uint256[]"}],"name":"calculatefCashCrossCurrencyLiquidation","outputs":[{"internalType":"int256[]","name":"","type":"int256[]"},{"internalType":"int256","name":"","type":"int256"}],"stateMutability":"nonpayable","type":"function"},{"inputs":[{"internalType":"address","name":"liquidateAccount","type":"address"},{"internalType":"uint16","name":"localCurrency","type":"uint16"},{"internalType":"uint256[]","name":"fCashMaturities","type":"uint256[]"},{"internalType":"uint256[]","name":"maxfCashLiquidateAmounts","type":"uint256[]"}],"name":"calculatefCashLocalLiquidation","outputs":[{"internalType":"int256[]","name":"","type":"int256[]"},{"internalType":"int256","name":"","type":"int256"}],"stateMutability":"nonpayable","type":"function"},{"inputs":[],"name":"getLibInfo","outputs":[{"internalType":"address","name":"","type":"address"},{"internalType":"address","name":"","type":"address"}],"stateMutability":"pure","type":"function"},{"inputs":[{"internalType":"address","name":"liquidateAccount","type":"address"},{"internalType":"uint16","name":"localCurrency","type":"uint16"},{"internalType":"uint16","name":"fCashCurrency","type":"uint16"},{"internalType":"uint256[]","name":"fCashMaturities","type":"uint256[]"},{"internalType":"uint256[]","name":"maxfCashLiquidateAmounts","type":"uint256[]"}],"name":"liquidatefCashCrossCurrency","outputs":[{"internalType":"int256[]","name":"","type":"int256[]"},{"internalType":"int256","name":"","type":"int256"}],"stateMutability":"payable","type":"function"},{"inputs":[{"internalType":"address","name":"liquidateAccount","type":"address"},{"internalType":"uint16","name":"localCurrency","type":"uint16"},{"internalType":"uint256[]","name":"fCashMaturities","type":"uint256[]"},{"internalType":"uint256[]","name":"maxfCashLiquidateAmounts","type":"uint256[]"}],"name":"liquidatefCashLocal","outputs":[{"internalType":"int256[]","name":"","type":"int256[]"},{"internalType":"int256","name":"","type":"int256"}],"stateMutability":"payable","type":"function"},{"inputs":[],"name":"owner","outputs":[{"internalType":"address","name":"","type":"address"}],"stateMutability":"view","type":"function"},{"inputs":[],"name":"pauseGuardian","outputs":[{"internalType":"address","name":"","type":"address"}],"stateMutability":"view","type":"function"},{"inputs":[],"name":"pauseRouter","outputs":[{"internalType":"address","name":"","type":"address"}],"stateMutability":"view","type":"function"}],"bytecode":"608060405234801561001057600080fd5b50615433806100206000396000f3fe60806040526004361061007b5760003560e01c80638da5cb5b1161004e5780638da5cb5b14610101578063c4c96dae14610116578063e816469d14610139578063fa37e3951461014c5761007b565b80630fb281d91461008057806324a3d622146100b75780637fdebbf4146100d957806382463367146100ec575b600080fd5b34801561008c57600080fd5b506100a061009b366004614db4565b61016c565b6040516100ae929190615247565b60405180910390f35b3480156100c357600080fd5b506100cc6101b8565b6040516100ae91906150f4565b6100a06100e7366004614db4565b6101c7565b3480156100f857600080fd5b506100cc61022f565b34801561010d57600080fd5b506100cc61023e565b34801561012257600080fd5b5061012b610255565b6040516100ae929190615108565b6100a0610147366004614e45565b610283565b34801561015857600080fd5b506100a0610167366004614e45565b6102ed565b606060006002600a54141561018057600080fd5b6002600a554260006101978a8a8a8a8a8a8861033b565b60e081015160a0909101516001600a55909b909a5098505050505050505050565b6002546001600160a01b031681565b606060006002600a5414156101db57600080fd5b6002600a55846101ea57600080fd5b4260006101fc8a8a8a8a8a8a8861033b565b905061020d8a338b8c8c8c8761040d565b505060e081015160a0909101516001600a55909a909950975050505050505050565b6001546001600160a01b031681565b60005464010000000090046001600160a01b031681565b73__FreeCollateralExternal________________73__SettleAssetsExternal__________________9091565b606060006002600a54141561029757600080fd5b6002600a55846102a657600080fd5b4260006102b98b8b8b8b8b8b8b89610621565b90506102ca8b338c8c8c8c8761040d565b505060e081015160a0909101516001600a55909b909a5098505050505050505050565b606060006002600a54141561030157600080fd5b6002600a554260006103198b8b8b8b8b8b8b89610621565b60e081015160a0909101516001600a55909c909b509950505050505050505050565b610343614757565b84831461034f57600080fd5b610357614757565b610363898960006106bb565b6040840152602083018190529082526101000151600090610387908b908b90610817565b505050602083015161010001519091506103a190826108d1565b6060830152866001600160401b03811180156103bc57600080fd5b506040519080825280602002602001820160405280156103e6578160200160208202803683370190505b5060e08301526104008a61ffff8b168a8a8a8a888b61092a565b5098975050505050505050565b606060008061041f8861ffff16610c3d565b9050600061042c8a610c58565b60a0860151909150600061043f8b610d06565b9050836020015180156104525750600082135b156104a65760208301516001600160f81b0319161561048c5760405162461bcd60e51b8152600401610483906152e5565b60405180910390fd5b6104a18c848d61049b86610d18565b85610d26565b6104d2565b60008213156104c3576104bd8c8c84846000610dd2565b506104d2565b6104d28c848d61049b86610d18565b6104de8c8e8d85610e49565b6104ef8d88600001518d8585610d26565b60006105008e8e868e8e8e8e610eef565b80955081925050508c6001600160a01b03168e6001600160a01b03167f1f20e4ccba6c78861ee4c638fecd0b6a53b1232adb96ca3a0065b9bb12d6214d8e8e8c60a001518f8f8f60e0015160405161055d96959493929190615329565b60405180910390a361056f848e610fb4565b875161057b908f610fb4565b808015610595575060208401516001600160f81b03191615155b156106025773__FreeCollateralExternal________________636ccc642f8e6040518263ffffffff1660e01b81526004016105d191906150f4565b60006040518083038186803b1580156105e957600080fd5b505af41580156105fd573d6000803e3d6000fd5b505050505b8760e001518860a0015196509650505050505097509795505050505050565b610629614757565b84831461063557600080fd5b61063d614757565b6106488a8a8a6106bb565b604084015260208301528152856001600160401b038111801561066a57600080fd5b50604051908082528060200260200182016040528015610694578160200160208202803683370190505b5060e08201526106ae8a61ffff8a1689898989878a6110d1565b9998505050505050505050565b6106c36147ae565b6106cb6147e3565b6106d3614868565b336001600160a01b03871614156106e957600080fd5b61ffff85166106f757600080fd5b8461ffff168461ffff16141561070c57600080fd5b600080600073__FreeCollateralExternal________________63451d958f8a8a8a6040518463ffffffff1660e01b815260040161074c93929190615222565b60006040518083038186803b15801561076457600080fd5b505af4158015610778573d6000803e3d6000fd5b505050506040513d6000823e601f3d908101601f191682016040526107a09190810190614f1e565b919450925090506107b1838a610fb4565b6040805160808101825282815281516000808252602082810190945292820190836107f2565b6107df614890565b8152602001906001900390816107d75790505b5081526000602082015292516040909301929092525091989097509095509350505050565b600080600080600061082761122b565b6001600160a01b03891660009081526020828152604080832061ffff8c168452909152902080546001600160501b0381169650600160501b900463ffffffff169450909150831561089457805461088d90600160701b900466ffffffffffffff16611238565b92506108a9565b8054600160701b900466ffffffffffffff1692505b80546108c4908890600160a81b9004600a90810b900b611246565b9550505093509350935093565b6000806109046ec097ce7bc90715b34b9f10000000006108fe86600001518661127490919063ffffffff16565b906112c2565b9050600083126109145780610920565b610920816000196112f3565b9150505b92915050565b60208201516040015161093c57600080fd5b61095f826020015160400151836020015160200151846020015160c0015161130b565b608083015260005b85811015610c125780156109a85786868281811061098157fe5b9050602002013587876001840381811061099757fe5b90506020020135116109a857600080fd5b60006109c88a858b8b8b878181106109bc57fe5b90506020020135611357565b905060008112156109e5576000846060015112156109e557600080fd5b806109f05750610c0a565b600080610a1886602001518b8b87818110610a0757fe5b9050602002013587600087136113fb565b9092509050610a3d610a32610a2d83856114c1565b6114d7565b6080880151906114f8565b8660e001518581518110610a4d57fe5b602002602001018181525050610a9d8660e001518581518110610a6c57fe5b6020026020010151610a7d856114d7565b610a988b8b89818110610a8c57fe5b90506020020135611511565b61152b565b8660e001518581518110610aad57fe5b6020026020010181815250506000610ae5828860e001518781518110610acf57fe5b602002602001015161157590919063ffffffff16565b90506000841215610b98578660600151811315610b5057610b2e816108fe89606001518a60e001518981518110610b1857fe5b602002602001015161127490919063ffffffff16565b8760e001518681518110610b3e57fe5b60209081029190910101525060608601515b610b708760e001518681518110610b6357fe5b6020026020010151610d18565b8760e001518681518110610b8057fe5b602002602001018181525050610b9581610d18565b90505b60a0870151610ba7908261158e565b60a08801526060870151610bbb908261158e565b6060880152610bee610be3610a2d610bd385876114c1565b8a60e001518981518110610acf57fe5b6080890151906114c1565b60808801819052600012610c055750505050610c12565b505050505b600101610967565b5060a082015160208301516101000151610c2b916115a4565b60a09092019190915250505050505050565b610c456148d4565b610c508260016115c8565b90505b919050565b610c606147ae565b6000610c6a611662565b6001600160a01b03841660009081526020918252604090819020815160c081018352905464ffffffffff811682526001600160f81b0319600160281b820460f81b169382019390935260ff600160301b840481169282019290925261ffff600160381b84041660608201526001600160701b0319600160481b840460701b166080820152600160d81b90920416151560a0820152915050919050565b610d0e614903565b610c50824261166f565b6000610c5060001983611274565b600080600080610d37898887610817565b929650909450925090506000610d4d858861158e565b90506000811215610d915760008713610d785760405162461bcd60e51b815260040161048390615307565b602089018051600160f91b176001600160f81b03191690525b600081151580610da057508415155b9050610db68a61ffff8b1683600160fe1b611735565b610dc58b8a848888888d611945565b5050505050505050505050565b600083610de157506000610e40565b60008413610dee57600080fd5b6000610dfd8661ffff16610c3d565b90506000610e1482610e0f87896108d1565b611a80565b90506000610e258989848989611abb565b90945090508681036000811215610e3b57600080fd5b505050505b95945050505050565b6000610e53611b78565b61ffff8416600090815260209190915260408120546001600160a01b03169150821215610e7e579293925b806001600160a01b03166323de66518686610e98866114d7565b6040518463ffffffff1660e01b8152600401610eb6939291906151e5565b600060405180830381600087803b158015610ed057600080fd5b505af1158015610ee4573d6000803e3d6000fd5b505050505050505050565b6000610ef96147ae565b600080610f0c8888888860e00151611b85565b865160405163ca25415360e01b815292945090925073__SettleAssetsExternal__________________9163ca25415391610f51918f918f918f908990600401615122565b6101806040518083038186803b158015610f6a57600080fd5b505af4158015610f7e573d6000803e3d6000fd5b505050506040513d601f19601f82011682018060405250810190610fa29190614ee9565b95529a93995092975050505050505050565b6000610fbe611662565b6001600160a01b03831660008181526020838152604080832088518154938a01518a84015160608c015160808d015160a08e015164ffffffffff1990981664ffffffffff9095169490941765ff00000000001916600160281b60f89490941c939093029290921766ff0000000000001916600160301b60ff909216919091021768ffff000000000000001916600160381b61ffff90921691909102177affffffffffffffffffffffffffffffffffff0000000000000000001916600160481b60709290921c919091021760ff60d81b1916600160d81b93151593909302929092179091555192935090917f6bd4b121bca854a191536a2ca891155c42ee2fb23f307fb34e8bc65cfcb5412e9190a2505050565b6000826020015160400151126110e657600080fd5b6000826020015160600151136110fb57600080fd5b6111088260200151611c87565b60c084015260808301819052602083015161012001516040015161112b916108d1565b608083015260005b85811015610ee45780156111745786868281811061114d57fe5b9050602002013587876001840381811061116357fe5b905060200201351161117457600080fd5b60006111888a858b8b8b878181106109bc57fe5b9050806111955750611223565b600081136111a257600080fd5b6111cf848989858181106111b257fe5b90506020020135856111c98a8a88818110610a8c57fe5b85611cdb565b8460e0015183815181106111df57fe5b602002602001018181525050600084608001511315806112055750602084015160600151155b806112165750602084015160400151155b156112215750610ee4565b505b600101611133565b6000806109246006611de8565b600881901c60ff9091161b90565b6000808212611256575080610924565b8251602084015161126d91906108fe908590611274565b9050610924565b8181026000198314156112a45781158061129657508282828161129357fe5b05145b61129f57600080fd5b610924565b8215806112b95750818382816112b657fe5b05145b61092457600080fd5b6000816000191480156112d85750600160ff1b83145b156112e257600080fd5b8183816112eb57fe5b059392505050565b60008183126113025781611304565b825b9392505050565b60008060008513611320578260400151611326565b82606001515b90506000811361133557600080fd5b610e40816108fe606461135161134a89610d18565b8890611e01565b90611274565b82516060015160009061ffff1683141561137d57611376858484611e23565b90506113f3565b60408401515180515b600019810190156113ec57600082828151811061139f57fe5b6020026020010151905085816000015161ffff161480156113c4575060408101516001145b80156113d35750848160200151145b156113e6576060015192506113f3915050565b50611386565b5060009150505b949350505050565b600080600061141a8686896101200151611e689092919063ffffffff16565b90508315611465576114328761012001518787611f51565b925061145e6114418787611f98565b6114596114528a6101200151611fad565b8490611fba565b611fcc565b91506114b7565b611475876101200151878761203f565b92506000611487886101200151612075565b90506114b36114968888611f98565b8284106114ac576114a78484611f98565b611459565b6000611fcc565b9250505b5094509492505050565b8082038281131560008312151461092457600080fd5b6000808212156114f1576114ea82610d18565b9050610c53565b5080610c53565b600061130461150b84633b9aca00611274565b836112c2565b60006001600160ff1b0382111561152757600080fd5b5090565b60008061153e60646108fe866028611274565b9050848481131561154c5750835b818612156115575750805b60008413801561156657508381135b15610e40575091949350505050565b60006113046115848484611274565b633b9aca006112c2565b8181018281121560008312151461092457600080fd5b81516000908190610904906108fe856ec097ce7bc90715b34b9f1000000000611274565b6115d06148d4565b60006115da612082565b6000858152602082815260408083208715158452825291829020825160a08101845281546001600160a01b038116825260ff600160a01b82048116151594830194909452600160b01b81048416600a0a9482019490945293945092916060830191600160a81b90910416600581111561164f57fe5b8152600060209091015295945050505050565b6000806109246001611de8565b611677614903565b60006116828461208f565b905082816000015110156116c15760008061169c86612157565b90506116aa868483886121d4565b90935091506116ba868385612278565b50506116ce565b805183146116ce57600080fd5b60405180606001604052806116fc6116f78460a001518560c001516124ac90919063ffffffff16565b611511565b815260200161171f6116f78460a001518560e001516124ac90919063ffffffff16565b8152602001826060015181525091505092915050565b8260001080156117475750613fff8311155b61175057600080fd5b818015611764575082846060015161ffff16145b1561176e5761193f565b6080840151600090815b6001600160701b03198216156118f95760f082901c613fff16868114801561179d5750855b156117d557506080870180516001600160f01b0319861660109093029290921c919091176001600160701b03191690525061193f9050565b86811480156117e2575085155b1561183e576001600160f01b03198516199290921691600360fe1b831661181c576010836dffffffffffffffffffffffffffff1916901b92505b506001600160701b031991821660109091021c9190911716608085015261193f565b868111801561184a5750855b156118a4576080888101516001600160f01b031960f08a901b88178116601086021c9690961795911b161561187e57600080fd5b506001600160701b03199182166001919091016010021c9190911716608085015261193f565b86811180156118b1575085155b156118bf575050505061193f565b506001600160f01b0319821660108281029190911c93909317929190911b6fffffffffffffffffffffffffffffffff191690600101611778565b846119065750505061193f565b6009811061191357600080fd5b6001600160f01b031960f087901b85171660109091021c919091176001600160701b0319166080860152505b50505050565b600061194f61122b565b6001600160a01b03891660009081526020828152604080832061ffff8c1684529091529020909150846119b75766ffffffffffffff84111561199057600080fd5b805466ffffffffffffff60701b1916600160701b66ffffffffffffff8616021781556119d1565b8054600160501b900463ffffffff1685146119d157600080fd5b6119da856124d3565b815463ffffffff91909116600160501b0263ffffffff60501b19909116178155611a0b611a06876124e6565b6124f5565b815469ffffffffffffffffffff19166001600160501b039190911617808255611a5190611a4c9085908c908c90600160a81b9004600a90810b900b8c61250b565b61252e565b8154600a9190910b6001600160581b0316600160a81b026001600160a81b039091161790555050505050505050565b60006305f5e10083604001511215611aa75761126d6001611aa18585612560565b9061158e565b61130483611ab684600161158e565b612560565b6000806000611ac9866124e6565b905080611add576000809250925050611b6e565b6000611aec8861ffff16610c3d565b9050600381606001516005811115611b0057fe5b1415611b475734821015611b2057611b1b8983340387612598565b611b3f565b348214611b3f5760405162461bcd60e51b815260040161048390615299565b869350611b5c565b611b596116f782600001518b85612665565b93505b611b69898986848a6127ed565b925050505b9550959350505050565b6000806109246021611de8565b80516060906000908414611b9857600080fd5b6000846001600160401b0381118015611bb057600080fd5b50604051908082528060200260200182016040528015611bea57816020015b611bd7614890565b815260200190600190039081611bcf5790505b5090506000805b86811015611c79576000838281518110611c0757fe5b602090810291909101015161ffff8b168152600160408201528751909150879083908110611c3157fe5b6020026020010151816060018181525050888883818110611c4e57fe5b90506020020135816020018181525050600081606001511215611c7057600192505b50600101611bf1565b509097909650945050505050565b600080611cb8611ca8611c9d8560200151610d18565b60e086015190611e01565b61012085015160400151906115a4565b9150611cd48360e00151608001518460c0015160800151612834565b9050915091565b6000806000611cf18860200151888860016113fb565b91509150600080611d368a6020015160e0015160600151611d308c60c001516108fe60648f6020015160c001516040015161127490919063ffffffff16565b906114c1565b9050611d4760646108fe8584611274565b90506000611d5584866114c1565b9050611d61818361158e565b925050506000611d7e828b608001516114f890919063ffffffff16565b9050611d8b81878961152b565b90506000611d9b8b858785612843565b90925090506000611dac8385611575565b60808d0151909150611dbe90826114c1565b60808d015260a08c0151611dd2908361158e565b60a08d0152509094505050505095945050505050565b6000620f4240826026811115611dfa57fe5b0192915050565b60008061092084602001516108fe86600001518661127490919063ffffffff16565b600080611e2e612933565b6001600160a01b03861660009081526020918252604080822087835283528082208683529092522054600f90810b900b9150509392505050565b6000806000611e7c86602001518686612940565b915091506000611e8b876129c8565b905081611eab578651611ea49061ffff168783886129dc565b9350611f47565b6000611eb686612a7b565b90506000611ecd611ec686612a99565b8390611fba565b90506000611ee58a6000015161ffff1683868b6129dc565b90506000808760011415611f035750506040808b0151015188611f32565b611f19611f1260018a03612a99565b8690611fba565b9050611f2f8c6000015161ffff1682888d6129dc565b91505b611f3f818584868f612b3d565b985050505050505b5050509392505050565b600080611f5f858585612ba1565b9050611f74611f6e8585611f98565b82611fcc565b91506000611f8186612be6565b905082811215611f8f578092505b50509392505050565b600082821115611fa757600080fd5b50900390565b6000610c50826038612c01565b60008282018381101561130457600080fd5b600080611fef611fea6301da9c00611fe486886124ac565b90612c14565b612c33565b905061200181621dcd6560491b612c51565b905061201461200f82612ca4565b612cc6565b905061202681621dcd6560491b612d1b565b9050600061203382612d51565b60070b95945050505050565b60008061204d858585612d5a565b9050801561206757612062611f6e8585611f98565b610e40565b633b9aca0095945050505050565b6000610c50826040612c01565b6000806109246007611de8565b612097614924565b60006120a1612daa565b61ffff93841660009081526020918252604090819020805464ffffffffff81168652600160281b81046001600160581b03908116948701949094526001820154841692860192909252600160d81b820463ffffffff166060860152600160801b9091049091166080840152600201546001600160501b0380821660a0850152600160501b8204811660c0850152600160a01b82041660e0840152600160f01b900460ff1661012c02909216610100820152919050565b60008061216383612db7565b6001600160a01b031663ef81f2166040518163ffffffff1660e01b81526004016040805180830381600087803b15801561219c57600080fd5b505af11580156121b0573d6000803e3d6000fd5b505050506040513d601f19601f820116820180604052508101906113f3919061503c565b6121dc614924565b60008060006121ec888689612de7565b60c08b019290925260e08a0192909252602089015191935091506122109083611fba565b602088015260808701516000901561223e57608088015161223b906122358982611f98565b90612ef2565b90505b61225e612253670de0b6b3a764000083611fba565b60a08a015190612f0f565b60a089015250506080860194909452505082529092909150565b6000612282612daa565b60008561ffff16815260200190815260200160002090506122a68260000151612f2c565b815464ffffffffff191664ffffffffff9190911617815560a08201516122cb906124f5565b60028201805469ffffffffffffffffffff19166001600160501b039290921691909117905560c08201516122fe906124f5565b81600201600a6101000a8154816001600160501b0302191690836001600160501b031602179055506123338260e001516124f5565b8160020160146101000a8154816001600160501b0302191690836001600160501b031602179055506123688260200151612f40565b81546001600160581b0391909116600160281b026fffffffffffffffffffffff00000000001990911617815560408201516123a290612f40565b6001820180546affffffffffffffffffffff19166001600160581b039290921691909117905560808201516123d690612f40565b81546001600160581b0391909116600160801b026affffffffffffffffffffff60801b19909116178155606082015161240e906124d3565b815463ffffffff91909116600160d81b0263ffffffff60d81b19909116178155821561245a57600061243f84611511565b905061244b8582612f56565b612458610fee8683612f8d565b505b8361ffff167fef25641e225e493886510ca1ad6584fa7b442b9fea820a29d1de3ce27d270fd28360a001518460c001518560e0015160405161249e9392919061539c565b60405180910390a250505050565b6000826124bb57506000610924565b828202828482816124c857fe5b041461130457600080fd5b600063ffffffff82111561152757600080fd5b60008082121561152757600080fd5b60006001600160501b0382111561152757600080fd5b60006125178683613017565b9050610e408686866125298786613050565b6130d7565b60006a7fffffffffffffffffffff19821280159061255757506a7fffffffffffffffffffff8213155b61152757600080fd5b60006305f5e10083604001511415612579575080610924565b6113046305f5e1006108fe85604001518561127490919063ffffffff16565b801561262a577382af49447d8a07e3bd95bd0d56f35241523fbab16001600160a01b031663d0e30db0836040518263ffffffff1660e01b81526004016000604051808303818588803b1580156125ed57600080fd5b505af1158015612601573d6000803e3d6000fd5b50505050506126257382af49447d8a07e3bd95bd0d56f35241523fbab1848461310b565b612660565b6040516001600160a01b0384169083156108fc029084906000818181858888f1935050505015801561193f573d6000803e3d6000fd5b505050565b600080846001600160a01b03166370a08231306040518263ffffffff1660e01b815260040180826001600160a01b0316815260200191505060206040518083038186803b1580156126b557600080fd5b505afa1580156126c9573d6000803e3d6000fd5b505050506040513d60208110156126df57600080fd5b5051604080516323b872dd60e01b81526001600160a01b038781166004830152306024830152604482018790529151929350908716916323b872dd9160648082019260009290919082900301818387803b15801561273c57600080fd5b505af1158015612750573d6000803e3d6000fd5b5050505061275c61317e565b6000856001600160a01b03166370a08231306040518263ffffffff1660e01b815260040180826001600160a01b0316815260200191505060206040518083038186803b1580156127ab57600080fd5b505afa1580156127bf573d6000803e3d6000fd5b505050506040513d60208110156127d557600080fd5b505190506127e38183611f98565b9695505050505050565b6000806127fa84866131ef565b905061280683826115a4565b9150612813878784612f8d565b61281e86838361321f565b835161282a908661332b565b5095945050505050565b60008183136113025781611304565b600080806128518487611575565b9050600061285f8587611575565b602089015160608101516101209091015160400151919250600091612883916108d1565b9050808213156128a95761289781886114f8565b95509050806128a68689611575565b92505b60006128bf8a602001518b60c00151868a613385565b60208c015161012001516040015191985091506128ef906128e090856115a4565b60208c01516060015190613412565b60208b015160600152600081121561290657600080fd5b60208a015160400151612919908261158e565b60208b015160400152869550935050505094509492505050565b600080610924600c611de8565b6000806000851161295057600080fd5b600785111561295e57600080fd5b600061296984612a7b565b905060015b8681116129ba57600061298361145283612a99565b90508681141561299b57509250600091506129c09050565b868111156129b157509250600191506129c09050565b5060010161296e565b50600080fd5b935093915050565b6060015161012c60089190911c60ff160290565b6000806129e761342e565b905060006276a7006129f885612a7b565b6000898152602085815260408083208b84528252808320949093018083529390522080549192509063ffffffff600160a01b8204811691600160c01b8104821691600160e01b9091041681612a5f5760405162461bcd60e51b815260040161048390615269565b612a6c8184848c8c61343b565b9b9a5050505050505050505050565b60006276a700821015612a8d57600080fd5b506276a7008106900390565b60008160011415612aae57506276a700610c53565b8160021415612ac1575062ed4e00610c53565b8160031415612ad557506301da9c00610c53565b8160041415612ae957506303b53800610c53565b8160051415612afd57506309450c00610c53565b8160061415612b11575063128a1800610c53565b8160071415612b2557506325143000610c53565b60405162461bcd60e51b8152600401610483906152be565b6000818610612b4b57600080fd5b848210612b5757600080fd5b838310612b8357612b7c84612b76888803611fe48388038b88036124ac565b90611fba565b9050610e40565b612b7c612b9a878703611fe48688038a87036124ac565b8590611f98565b6000612bae848484611e68565b9050612bc3612bbc856134b6565b8290611fba565b90506000612bd0856134c3565b905080821015612bde578091505b509392505050565b606001516207a12060109190911c60ff1602633b9aca000390565b60609091015160ff911c16622625a00290565b6000808211612c2257600080fd5b818381612c2b57fe5b049392505050565b6000677fffffffffffffff821115612c4a57600080fd5b5060401b90565b600081600f0b60001415612c6457600080fd5b600082600f0b604085600f0b901b81612c7957fe5b05905060016001607f1b03198112801590612c9b575060016001607f1b038113155b61130457600080fd5b6000600f82900b60016001607f1b03191415612cbf57600080fd5b5060000390565b6000600160461b82600f0b12612cdb57600080fd5b683fffffffffffffffff1982600f0b1215612cf857506000610c53565b610c50608083600f0b700171547652b82fe1777d0ffda0d23a7d1202901d6134d0565b6000600f83810b9083900b0260401d60016001607f1b03198112801590612c9b575060016001607f1b0381131561130457600080fd5b600f0b60401d90565b6000612d67848484611e68565b90506000612d7485613f80565b9050808211612d87576000915050611304565b80820391506000612d9786613f8d565b905082811015611f8f5795945050505050565b600080610924601d611de8565b600080612dc2613f9a565b61ffff939093166000908152602093909352505060409020546001600160a01b031690565b600080600080600080612dfa8988613fa7565b89519095509193509150600090612e2190612e16908b90611f98565b633b9aca00906124ac565b9050612e5b612e506301da9c00612e3885856124ac565b81612e3f57fe5b670de0b6b3a7640000919004611fba565b60e08a015190612f0f565b9650612e7d612e726301da9c00612e3887856124ac565b60c08a015190612f0f565b955081831415612e94575060009350612ee9915050565b6000612eb6612eab6301da9c00612e3887866124ac565b60e08b015190612f0f565b90506000612ec48983611f98565b9050612ee188611fe4838d604001516124ac90919063ffffffff16565b965050505050505b93509350935093565b6000611304612f0984670de0b6b3a76400006124ac565b83612c14565b6000611304612f1e84846124ac565b670de0b6b3a7640000612c14565b600064ffffffffff82111561152757600080fd5b60006001600160581b0382111561152757600080fd5b6000811215612f6457600080fd5b6000612f72610fee84614042565b9050612f7e818361158e565b9050612660610fee848361409b565b6000612f97611b78565b61ffff8416600090815260209190915260409081902054905163ad1c095d60e01b81526001600160a01b039091169150819063ad1c095d90612fdf9087908690600401615209565b600060405180830381600087803b158015612ff957600080fd5b505af115801561300d573d6000803e3d6000fd5b5050505050505050565b60008082121561304a576130456001611d3085602001516108fe87600001518761127490919063ffffffff16565b611304565b50919050565b60008183148061306d57506000831215801561306d575060008212155b1561307a57506000610924565b6000831315801561308b5750816000125b15613097575081610924565b600082131580156130a85750826000125b156130b65761126d82610d18565b600083131580156130c8575060008213155b1561007b5761126d83836114c1565b801561193f57835160208501516000916130f6916108fe908590611274565b90506131048484848461410f565b5050505050565b826001600160a01b031663a9059cbb83836040518363ffffffff1660e01b815260040180836001600160a01b0316815260200182815260200192505050600060405180830381600087803b15801561316257600080fd5b505af1158015613176573d6000803e3d6000fd5b505050506126605b6000613188614970565b3d801561319c57602081146131a557600080fd5b600192506131b0565b60206000833e815192505b50816131eb576040805162461bcd60e51b8152602060048201526005602482015264045524332360dc1b604482015290519081900360640190fd5b5050565b60006305f5e10083604001511415613208575080610924565b6040830151611304906108fe846305f5e100611274565b6000613229612daa565b61ffff8516600090815260209190915260409020805490915064ffffffffff16421461325457600080fd5b805460009061327390600160281b90046001600160581b03168561158e565b825490915060009061329590600160801b90046001600160581b03168561158e565b905080624c4b4013156132a757600080fd5b6132b86132b3826124e6565b612f40565b83546001600160581b0391909116600160801b026affffffffffffffffffffff60801b199091161783556132ee6132b3836124e6565b83546001600160581b0391909116600160281b026fffffffffffffffffffffff00000000001990911617835561332383614255565b505050505050565b600061333561431a565b6001600160a01b03841660009081526020829052604090205490915061336361335e828561158e565b6124e6565b6001600160a01b03909416600090815260209290925250604090209190915550565b60008060006133b8866108fe6133a38a60c001518b60e00151614327565b60c08b0151516108fe906113518b6064611274565b905060006133d4828961010001516115a490919063ffffffff16565b905060006133e58960400151610d18565b905080821315613403576133fd826108fe8884611274565b95508091505b50939793965092945050505050565b600061341e83836114c1565b9050600081121561092457600080fd5b600080610924600a611de8565b600080831161344957600080fd5b81861115613458575083610e40565b60006134648388611f98565b9050838111156134775785915050610e40565b6000613483828661434c565b90506000613495633b9aca0083611f98565b90506106ae633b9aca00611fe46134ac8a856124ac565b612b768c876124ac565b6000610c50826028612c01565b6000610c50826030612c01565b6000600160461b82600f0b126134e557600080fd5b683fffffffffffffffff1982600f0b121561350257506000610c53565b6001607f1b60006780000000000000008416600f0b13156135345770016a09e667f3bcc908b2fb1366ea957d3e0260801c5b60008367400000000000000016600f0b1315613561577001306fe0a31b7152de8d5a46305c85edec0260801c5b60008367200000000000000016600f0b131561358e577001172b83c7d517adcdf7c8c50eb14a791f0260801c5b60008367100000000000000016600f0b13156135bb5770010b5586cf9890f6298b92b71842a983630260801c5b60008367080000000000000016600f0b13156135e8577001059b0d31585743ae7c548eb68ca417fd0260801c5b60008367040000000000000016600f0b131561361557700102c9a3e778060ee6f7caca4f7a29bde80260801c5b60008367020000000000000016600f0b13156136425770010163da9fb33356d84a66ae336dcdfa3f0260801c5b600083600160381b16600f0b131561366b57700100b1afa5abcbed6129ab13ec11dc95430260801c5b600083668000000000000016600f0b13156136975770010058c86da1c09ea1ff19d294cf2f679b0260801c5b600083664000000000000016600f0b13156136c3577001002c605e2e8cec506d21bfc89a23a00f0260801c5b600083662000000000000016600f0b13156136ef57700100162f3904051fa128bca9c55c31e5df0260801c5b600083661000000000000016600f0b131561371b577001000b175effdc76ba38e31671ca9397250260801c5b600083660800000000000016600f0b131561374757700100058ba01fb9f96d6cacd4b180917c3d0260801c5b600083660400000000000016600f0b13156137735770010002c5cc37da9491d0985c348c68e7b30260801c5b600083660200000000000016600f0b131561379f577001000162e525ee054754457d59952920260260801c5b600083600160301b16600f0b13156137c85770010000b17255775c040618bf4a4ade83fc0260801c5b6000836580000000000016600f0b13156137f3577001000058b91b5bc9ae2eed81e9b7d4cfab0260801c5b6000836540000000000016600f0b131561381e57700100002c5c89d5ec6ca4d7c8acc017b7c90260801c5b6000836520000000000016600f0b13156138495770010000162e43f4f831060e02d839a9d16d0260801c5b6000836510000000000016600f0b131561387457700100000b1721bcfc99d9f890ea069117630260801c5b6000836508000000000016600f0b131561389f5770010000058b90cf1e6d97f9ca14dbcc16280260801c5b6000836504000000000016600f0b13156138ca577001000002c5c863b73f016468f6bac5ca2b0260801c5b6000836502000000000016600f0b13156138f557700100000162e430e5a18f6119e3c02282a50260801c5b600083600160281b16600f0b131561391e577001000000b1721835514b86e6d96efd1bfe0260801c5b60008364800000000016600f0b131561394857700100000058b90c0b48c6be5df846c5b2ef0260801c5b60008364400000000016600f0b13156139725770010000002c5c8601cc6b9e94213c72737a0260801c5b60008364200000000016600f0b131561399c577001000000162e42fff037df38aa2b219f060260801c5b60008364100000000016600f0b13156139c65770010000000b17217fba9c739aa5819f44f90260801c5b60008364080000000016600f0b13156139f0577001000000058b90bfcdee5acd3c1cedc8230260801c5b60008364040000000016600f0b1315613a1a57700100000002c5c85fe31f35a6a30da1be500260801c5b60008364020000000016600f0b1315613a445770010000000162e42ff0999ce3541b9fffcf0260801c5b60008364010000000016600f0b1315613a6e57700100000000b17217f80f4ef5aadda455540260801c5b600083638000000016600f0b1315613a975770010000000058b90bfbf8479bd5a81b51ad0260801c5b600083634000000016600f0b1315613ac0577001000000002c5c85fdf84bd62ae30a74cc0260801c5b600083632000000016600f0b1315613ae957700100000000162e42fefb2fed257559bdaa0260801c5b600083631000000016600f0b1315613b12577001000000000b17217f7d5a7716bba4a9ae0260801c5b600083630800000016600f0b1315613b3b57700100000000058b90bfbe9ddbac5e109cce0260801c5b600083630400000016600f0b1315613b645770010000000002c5c85fdf4b15de6f17eb0d0260801c5b600083630200000016600f0b1315613b8d577001000000000162e42fefa494f1478fde050260801c5b600083630100000016600f0b1315613bb65770010000000000b17217f7d20cf927c8e94c0260801c5b6000836280000016600f0b1315613bde577001000000000058b90bfbe8f71cb4e4b33d0260801c5b6000836240000016600f0b1315613c0657700100000000002c5c85fdf477b662b269450260801c5b6000836220000016600f0b1315613c2e5770010000000000162e42fefa3ae53369388c0260801c5b6000836210000016600f0b1315613c5657700100000000000b17217f7d1d351a389d400260801c5b6000836208000016600f0b1315613c7e5770010000000000058b90bfbe8e8b2d3d4ede0260801c5b6000836204000016600f0b1315613ca6577001000000000002c5c85fdf4741bea6e77e0260801c5b6000836202000016600f0b1315613cce57700100000000000162e42fefa39fe95583c20260801c5b6000836201000016600f0b1315613cf6577001000000000000b17217f7d1cfb72b45e10260801c5b60008361800016600f0b1315613d1d57700100000000000058b90bfbe8e7cc35c3f00260801c5b60008361400016600f0b1315613d445770010000000000002c5c85fdf473e242ea380260801c5b60008361200016600f0b1315613d6b577001000000000000162e42fefa39f02b772c0260801c5b60008361100016600f0b1315613d925770010000000000000b17217f7d1cf7d83c1a0260801c5b60008361080016600f0b1315613db9577001000000000000058b90bfbe8e7bdcbe2e0260801c5b60008361040016600f0b1315613de057700100000000000002c5c85fdf473dea871f0260801c5b60008361020016600f0b1315613e075770010000000000000162e42fefa39ef44d910260801c5b60008361010016600f0b1315613e2e57700100000000000000b17217f7d1cf79e9490260801c5b600083608016600f0b1315613e545770010000000000000058b90bfbe8e7bce5440260801c5b600083604016600f0b1315613e7a577001000000000000002c5c85fdf473de6eca0260801c5b600083602016600f0b1315613ea057700100000000000000162e42fefa39ef366f0260801c5b600083601016600f0b1315613ec6577001000000000000000b17217f7d1cf79afa0260801c5b600083600816600f0b1315613eec57700100000000000000058b90bfbe8e7bcd6d0260801c5b600083600416600f0b1315613f125770010000000000000002c5c85fdf473de6b20260801c5b600083600216600f0b1315613f38577001000000000000000162e42fefa39ef3580260801c5b600083600116600f0b1315613f5e5770010000000000000000b17217f7d1cf79ab0260801c5b600f83810b60401d603f03900b1c60016001607f1b03811115610c5057600080fd5b6000610c50826020612c01565b6000610c50826048612c01565b600080610924601f611de8565b600080600080600085602001511115613ff457613ff1613fd88660c0015187602001516124ac90919063ffffffff16565b60e08701516040880151613feb916124ac565b9061434c565b90505b6000613fff8761435f565b905061400b8183614392565b945081156140225761401f81866001614445565b93505b6020860151156140395761403685836144bd565b92505b50509250925092565b60008061404d61122b565b6001600160a01b03851660009081526020828152604080832061ffff8816845290915281208054600160a81b9004600a90810b900b945091925083121561409357600080fd5b505092915050565b60008112156140a957600080fd5b60006140b361122b565b6001600160a01b03851660009081526020828152604080832061ffff8816845290915290209091506140e48361252e565b8154600a9190910b6001600160581b0316600160a81b026001600160a81b0390911617905550505050565b6000614119612daa565b61ffff8516600090815260209190915260409020805490915064ffffffffff16421461414457600080fd5b8054600160f81b900460ff1661415957600080fd5b6001810154600090614174906001600160581b03168561158e565b825490915060009061419690600160281b90046001600160581b03168561158e565b9050816009191280156141a95750600082125b156141b357600091505b806009191280156141c45750600081125b156141cd575060005b6141d96132b3836124e6565b6001840180546affffffffffffffffffffff19166001600160581b039290921691909117905561420b6132b3826124e6565b83546001600160581b0391909116600160281b026fffffffffffffffffffffff000000000019909116178355614243878786886144d6565b61424c83614255565b50505050505050565b8054600282015460009161429191600160281b9091046001600160581b031690611351906001600160501b03600160501b820481169116611274565b600183015460028401549192506000916142cb916001600160581b031690611351906001600160501b03600160a01b820481169116611274565b83549091506000906143029060016001600160581b03600160801b909204821601166ec097ce7bc90715b34b9f1000000000611274565b90508061430f84846114c1565b131561193f57600080fd5b6000806109246026611de8565b600061130482602001516108fe8460000151866020015161127490919063ffffffff16565b6000611304612f0984633b9aca006124ac565b61436761498e565b60006143716145ea565b61ffff841660009081526020919091526040812054915061130490826145f7565b6000808360800151116143a457600080fd5b633b9aca008211156143b557600080fd5b825182116143d4578251604084015161126d9190611fe49085906124ac565b8260200151821161440c57604083015183516020850151606086015161126d9392612b769281900391611fe4918803908590036124ac565b6113048360600151612b768560200151633b9aca0003611fe48760600151886080015103886020015188036124ac90919063ffffffff16565b6000806144646064611fe48760e00151876124ac90919063ffffffff16565b90508460a00151811015614479575060a08401515b8460c0015181111561448c575060c08401515b82156144a35761449c8482611fba565b9150612bde565b8381116144b257808403610e40565b506000949350505050565b60006113046144cc84846124ac565b633b9aca00612c14565b60006144e0611b78565b61ffff8516600090815260209190915260408120546001600160a01b03169150614508614716565b61ffff8616600090815260209190915260409081902054905163ad1c095d60e01b81526001600160a01b039091169150819063ad1c095d906145509089908790600401615209565b600060405180830381600087803b15801561456a57600080fd5b505af115801561457e573d6000803e3d6000fd5b505060405163ad1c095d60e01b81526001600160a01b038516925063ad1c095d91506145b09089908890600401615209565b600060405180830381600087803b1580156145ca57600080fd5b505af11580156145de573d6000803e3d6000fd5b50505050505050505050565b600080610924601b611de8565b6145ff61498e565b6064633b9aca008360ff86166020811061461557fe5b1a028161461e57fe5b0481526064633b9aca008360ff86166001016020811061463a57fe5b1a028161464357fe5b048160200181815250506146688260028560ff16016020811061466257fe5b1a614723565b60808201819052610100908360ff86166003016020811061468557fe5b1a028161468e57fe5b0460408201526080810151610100908360ff8616600401602081106146af57fe5b1a02816146b857fe5b0460608201526207a1208260ff8516600501602081106146d457fe5b1a0260a0820152622625a08260ff8516600601602081106146f157fe5b1a0260c08201528160ff84166007016020811061470a57fe5b1a60e082015292915050565b6000806109246022611de8565b60008160ff1660961061473e5760ff8216622625a002610c50565b5060951960ff919091160162e4e1c00263165a0bc00190565b60405180610100016040528061476b6147ae565b81526020016147786147e3565b8152602001614785614868565b815260200160008152602001600081526020016000815260200160008152602001606081525090565b6040805160c081018252600080825260208201819052918101829052606081018290526080810182905260a081019190915290565b60405180610160016040528060006001600160a01b031681526020016000815260200160008152602001600081526020016000815260200160006001600160d01b03191681526020016148346149d3565b81526020016148416149d3565b815260200161484e614903565b815260200161485b614a02565b8152600060209091015290565b6040518060800160405280606081526020016060815260200160008152602001600081525090565b6040518060c00160405280600061ffff16815260200160008152602001600081526020016000815260200160008152602001600060038111156148cf57fe5b905290565b6040805160a0810182526000808252602082018190529181018290529060608201908152602001600081525090565b60405180606001604052806000815260200160008152602001600081525090565b6040518061012001604052806000815260200160008152602001600081526020016000815260200160008152602001600081526020016000815260200160008152602001600081525090565b60405180602001604052806001906020820280368337509192915050565b60405180610100016040528060008152602001600081526020016000815260200160008152602001600081526020016000815260200160008152602001600081525090565b6040518060a0016040528060008152602001600081526020016000815260200160008152602001600081525090565b604080516080810182526000808252602082015290810161485b614903565b8051610c53816153d5565b600082601f830112614a3c578081fd5b815160206001600160401b0380831115614a5257fe5b614a5f82838502016153b2565b8381528281019086840160c0808702890186018a1015614a7d578788fd5b875b87811015614b075781838c031215614a95578889fd5b604080518381018181108982111715614aaa57fe5b82528451614ab7816153ed565b815284890151898201528185015191810191909152606080850151908201526080808501519082015260a090614aee828601614bb6565b9181019190915285529386019391810191600101614a7f565b50919998505050505050505050565b60008083601f840112614b27578182fd5b5081356001600160401b03811115614b3d578182fd5b6020830191508360208083028501011115614b5757600080fd5b9250929050565b80518015158114610c5357600080fd5b80516001600160701b031981168114610c5357600080fd5b80516001600160f81b031981168114610c5357600080fd5b80516001600160d01b031981168114610c5357600080fd5b805160048110610c5357600080fd5b600060c08284031215614bd6578081fd5b60405160c081018181106001600160401b0382111715614bf257fe5b8060405250809150825164ffffffffff81168114614c0f57600080fd5b8152614c1d60208401614b86565b6020820152614c2e60408401614da3565b6040820152614c3f60608401614d98565b6060820152614c5060808401614b6e565b6080820152614c6160a08401614b5e565b60a08201525092915050565b600060c08284031215614c7e578081fd5b604051608081018181106001600160401b0382111715614c9a57fe5b80604052508091508251614cad816153ed565b815260208381015190820152614cc68460408501614d44565b604082015260a083015160608201525092915050565b600060a08284031215614ced578081fd5b60405160a081018181106001600160401b0382111715614d0957fe5b806040525080915082518152602083015160208201526040830151604082015260608301516060820152608083015160808201525092915050565b600060608284031215614d55578081fd5b604051606081018181106001600160401b0382111715614d7157fe5b80604052508091508251815260208301516020820152604083015160408201525092915050565b8051610c53816153ed565b805160ff81168114610c5357600080fd5b60008060008060008060808789031215614dcc578182fd5b8635614dd7816153d5565b95506020870135614de7816153ed565b945060408701356001600160401b0380821115614e02578384fd5b614e0e8a838b01614b16565b90965094506060890135915080821115614e26578384fd5b50614e3389828a01614b16565b979a9699509497509295939492505050565b600080600080600080600060a0888a031215614e5f578485fd5b8735614e6a816153d5565b96506020880135614e7a816153ed565b95506040880135614e8a816153ed565b945060608801356001600160401b0380821115614ea5578283fd5b614eb18b838c01614b16565b909650945060808a0135915080821115614ec9578283fd5b50614ed68a828b01614b16565b989b979a50959850939692959293505050565b6000806101808385031215614efc578182fd5b614f068484614bc5565b9150614f158460c08501614bc5565b90509250929050565b6000806000838503610420811215614f34578182fd5b614f3e8686614bc5565b935061034060bf1982011215614f52578182fd5b50610160614f5f816153b2565b614f6b60c08701614a21565b815260e08601516020820152610100808701516040830152610120808801516060840152610140808901516080850152614fa6858a01614b9e565b60a0850152614fb98a6101808b01614cdc565b60c0850152614fcc8a6102208b01614cdc565b60e0850152614fdf8a6102c08b01614d44565b83850152614ff18a6103208b01614c6d565b828501526150026103e08a01614b5e565b90840152505061040086015190935090506001600160401b03811115615026578182fd5b61503286828701614a2c565b9150509250925092565b6000806040838503121561504e578182fd5b505080516020909101519092909150565b6000815180845260208085019450808401835b8381101561508e57815187529582019590820190600101615072565b509495945050505050565b805164ffffffffff1682526020808201516001600160f81b0319169083015260408082015160ff169083015260608082015161ffff16908301526080808201516001600160701b0319169083015260a0908101511515910152565b6001600160a01b0391909116815260200190565b6001600160a01b0392831681529116602082015260400190565b60006101e080830160018060a01b03808a1685526020818a16818701526040915061514f8287018a615099565b61515d610100870189615099565b6101c086019390935285519182905261020085019280870192855b818110156151d4578451805161ffff16875283810151848801528481015185880152606080820151908801526080808201519088015260a09081015190600482106151bf57fe5b87015260c09095019493820193600101615178565b50939b9a5050505050505050505050565b6001600160a01b039384168152919092166020820152604081019190915260600190565b6001600160a01b03929092168252602082015260400190565b6001600160a01b0393909316835261ffff918216602084015216604082015260600190565b60006040825261525a604083018561505f565b90508260208301529392505050565b60208082526016908201527513585c9ad95d081b9bdd081a5b9a5d1a585b1a5e995960521b604082015260600190565b6020808252600b908201526a4554482042616c616e636560a81b604082015260600190565b6020808252600d908201526c092dcecc2d8d2c840d2dcc8caf609b1b604082015260600190565b60208082526008908201526712185cc81919589d60c21b604082015260600190565b60208082526008908201526709ccace4086c2e6d60c31b604082015260600190565b61ffff8781168252861660208201526040810185905260a060608201819052810183905260006001600160fb1b03841115615362578081fd5b60208402808660c0850137808301905060c0810182815260c084830301608085015261538e818661505f565b9a9950505050505050505050565b9283526020830191909152604082015260600190565b6040518181016001600160401b03811182821017156153cd57fe5b604052919050565b6001600160a01b03811681146153ea57600080fd5b50565b61ffff811681146153ea57600080fdfea26469706673582212202d94a37402c64ce43a60b1eb94048d0e56d493ebc7e39b23d141aab7347e4cef64736f6c63430007060033","bytecodeSha1":"433867a23b3e1a3d8a4b4c8f5d20fe4c8dafd9f3","compiler":{"evm_version":"istanbul","optimizer":{"enabled":true,"runs":200},"version":"0.7.6+commit.7338295f"},"contractName":"LiquidatefCashAction","deployedBytecode":"60806040526004361061007b5760003560e01c80638da5cb5b1161004e5780638da5cb5b14610101578063c4c96dae14610116578063e816469d14610139578063fa37e3951461014c5761007b565b80630fb281d91461008057806324a3d622146100b75780637fdebbf4146100d957806382463367146100ec575b600080fd5b34801561008c57600080fd5b506100a061009b366004614db4565b61016c565b6040516100ae929190615247565b60405180910390f35b3480156100c357600080fd5b506100cc6101b8565b6040516100ae91906150f4565b6100a06100e7366004614db4565b6101c7565b3480156100f857600080fd5b506100cc61022f565b34801561010d57600080fd5b506100cc61023e565b34801561012257600080fd5b5061012b610255565b6040516100ae929190615108565b6100a0610147366004614e45565b610283565b34801561015857600080fd5b506100a0610167366004614e45565b6102ed565b606060006002600a54141561018057600080fd5b6002600a554260006101978a8a8a8a8a8a8861033b565b60e081015160a0909101516001600a55909b909a5098505050505050505050565b6002546001600160a01b031681565b606060006002600a5414156101db57600080fd5b6002600a55846101ea57600080fd5b4260006101fc8a8a8a8a8a8a8861033b565b905061020d8a338b8c8c8c8761040d565b505060e081015160a0909101516001600a55909a909950975050505050505050565b6001546001600160a01b031681565b60005464010000000090046001600160a01b031681565b73__$841fddfe32830bb6dbc3a02d7f16c53722$__73__$f6541b0d362a0c7d99a2a29cd3d373d61b$__9091565b606060006002600a54141561029757600080fd5b6002600a55846102a657600080fd5b4260006102b98b8b8b8b8b8b8b89610621565b90506102ca8b338c8c8c8c8761040d565b505060e081015160a0909101516001600a55909b909a5098505050505050505050565b606060006002600a54141561030157600080fd5b6002600a554260006103198b8b8b8b8b8b8b89610621565b60e081015160a0909101516001600a55909c909b509950505050505050505050565b610343614757565b84831461034f57600080fd5b610357614757565b610363898960006106bb565b6040840152602083018190529082526101000151600090610387908b908b90610817565b505050602083015161010001519091506103a190826108d1565b6060830152866001600160401b03811180156103bc57600080fd5b506040519080825280602002602001820160405280156103e6578160200160208202803683370190505b5060e08301526104008a61ffff8b168a8a8a8a888b61092a565b5098975050505050505050565b606060008061041f8861ffff16610c3d565b9050600061042c8a610c58565b60a0860151909150600061043f8b610d06565b9050836020015180156104525750600082135b156104a65760208301516001600160f81b0319161561048c5760405162461bcd60e51b8152600401610483906152e5565b60405180910390fd5b6104a18c848d61049b86610d18565b85610d26565b6104d2565b60008213156104c3576104bd8c8c84846000610dd2565b506104d2565b6104d28c848d61049b86610d18565b6104de8c8e8d85610e49565b6104ef8d88600001518d8585610d26565b60006105008e8e868e8e8e8e610eef565b80955081925050508c6001600160a01b03168e6001600160a01b03167f1f20e4ccba6c78861ee4c638fecd0b6a53b1232adb96ca3a0065b9bb12d6214d8e8e8c60a001518f8f8f60e0015160405161055d96959493929190615329565b60405180910390a361056f848e610fb4565b875161057b908f610fb4565b808015610595575060208401516001600160f81b03191615155b156106025773__$841fddfe32830bb6dbc3a02d7f16c53722$__636ccc642f8e6040518263ffffffff1660e01b81526004016105d191906150f4565b60006040518083038186803b1580156105e957600080fd5b505af41580156105fd573d6000803e3d6000fd5b505050505b8760e001518860a0015196509650505050505097509795505050505050565b610629614757565b84831461063557600080fd5b61063d614757565b6106488a8a8a6106bb565b604084015260208301528152856001600160401b038111801561066a57600080fd5b50604051908082528060200260200182016040528015610694578160200160208202803683370190505b5060e08201526106ae8a61ffff8a1689898989878a6110d1565b9998505050505050505050565b6106c36147ae565b6106cb6147e3565b6106d3614868565b336001600160a01b03871614156106e957600080fd5b61ffff85166106f757600080fd5b8461ffff168461ffff16141561070c57600080fd5b600080600073__$841fddfe32830bb6dbc3a02d7f16c53722$__63451d958f8a8a8a6040518463ffffffff1660e01b815260040161074c93929190615222565b60006040518083038186803b15801561076457600080fd5b505af4158015610778573d6000803e3d6000fd5b505050506040513d6000823e601f3d908101601f191682016040526107a09190810190614f1e565b919450925090506107b1838a610fb4565b6040805160808101825282815281516000808252602082810190945292820190836107f2565b6107df614890565b8152602001906001900390816107d75790505b5081526000602082015292516040909301929092525091989097509095509350505050565b600080600080600061082761122b565b6001600160a01b03891660009081526020828152604080832061ffff8c168452909152902080546001600160501b0381169650600160501b900463ffffffff169450909150831561089457805461088d90600160701b900466ffffffffffffff16611238565b92506108a9565b8054600160701b900466ffffffffffffff1692505b80546108c4908890600160a81b9004600a90810b900b611246565b9550505093509350935093565b6000806109046ec097ce7bc90715b34b9f10000000006108fe86600001518661127490919063ffffffff16565b906112c2565b9050600083126109145780610920565b610920816000196112f3565b9150505b92915050565b60208201516040015161093c57600080fd5b61095f826020015160400151836020015160200151846020015160c0015161130b565b608083015260005b85811015610c125780156109a85786868281811061098157fe5b9050602002013587876001840381811061099757fe5b90506020020135116109a857600080fd5b60006109c88a858b8b8b878181106109bc57fe5b90506020020135611357565b905060008112156109e5576000846060015112156109e557600080fd5b806109f05750610c0a565b600080610a1886602001518b8b87818110610a0757fe5b9050602002013587600087136113fb565b9092509050610a3d610a32610a2d83856114c1565b6114d7565b6080880151906114f8565b8660e001518581518110610a4d57fe5b602002602001018181525050610a9d8660e001518581518110610a6c57fe5b6020026020010151610a7d856114d7565b610a988b8b89818110610a8c57fe5b90506020020135611511565b61152b565b8660e001518581518110610aad57fe5b6020026020010181815250506000610ae5828860e001518781518110610acf57fe5b602002602001015161157590919063ffffffff16565b90506000841215610b98578660600151811315610b5057610b2e816108fe89606001518a60e001518981518110610b1857fe5b602002602001015161127490919063ffffffff16565b8760e001518681518110610b3e57fe5b60209081029190910101525060608601515b610b708760e001518681518110610b6357fe5b6020026020010151610d18565b8760e001518681518110610b8057fe5b602002602001018181525050610b9581610d18565b90505b60a0870151610ba7908261158e565b60a08801526060870151610bbb908261158e565b6060880152610bee610be3610a2d610bd385876114c1565b8a60e001518981518110610acf57fe5b6080890151906114c1565b60808801819052600012610c055750505050610c12565b505050505b600101610967565b5060a082015160208301516101000151610c2b916115a4565b60a09092019190915250505050505050565b610c456148d4565b610c508260016115c8565b90505b919050565b610c606147ae565b6000610c6a611662565b6001600160a01b03841660009081526020918252604090819020815160c081018352905464ffffffffff811682526001600160f81b0319600160281b820460f81b169382019390935260ff600160301b840481169282019290925261ffff600160381b84041660608201526001600160701b0319600160481b840460701b166080820152600160d81b90920416151560a0820152915050919050565b610d0e614903565b610c50824261166f565b6000610c5060001983611274565b600080600080610d37898887610817565b929650909450925090506000610d4d858861158e565b90506000811215610d915760008713610d785760405162461bcd60e51b815260040161048390615307565b602089018051600160f91b176001600160f81b03191690525b600081151580610da057508415155b9050610db68a61ffff8b1683600160fe1b611735565b610dc58b8a848888888d611945565b5050505050505050505050565b600083610de157506000610e40565b60008413610dee57600080fd5b6000610dfd8661ffff16610c3d565b90506000610e1482610e0f87896108d1565b611a80565b90506000610e258989848989611abb565b90945090508681036000811215610e3b57600080fd5b505050505b95945050505050565b6000610e53611b78565b61ffff8416600090815260209190915260408120546001600160a01b03169150821215610e7e579293925b806001600160a01b03166323de66518686610e98866114d7565b6040518463ffffffff1660e01b8152600401610eb6939291906151e5565b600060405180830381600087803b158015610ed057600080fd5b505af1158015610ee4573d6000803e3d6000fd5b505050505050505050565b6000610ef96147ae565b600080610f0c8888888860e00151611b85565b865160405163ca25415360e01b815292945090925073__$f6541b0d362a0c7d99a2a29cd3d373d61b$__9163ca25415391610f51918f918f918f908990600401615122565b6101806040518083038186803b158015610f6a57600080fd5b505af4158015610f7e573d6000803e3d6000fd5b505050506040513d601f19601f82011682018060405250810190610fa29190614ee9565b95529a93995092975050505050505050565b6000610fbe611662565b6001600160a01b03831660008181526020838152604080832088518154938a01518a84015160608c015160808d015160a08e015164ffffffffff1990981664ffffffffff9095169490941765ff00000000001916600160281b60f89490941c939093029290921766ff0000000000001916600160301b60ff909216919091021768ffff000000000000001916600160381b61ffff90921691909102177affffffffffffffffffffffffffffffffffff0000000000000000001916600160481b60709290921c919091021760ff60d81b1916600160d81b93151593909302929092179091555192935090917f6bd4b121bca854a191536a2ca891155c42ee2fb23f307fb34e8bc65cfcb5412e9190a2505050565b6000826020015160400151126110e657600080fd5b6000826020015160600151136110fb57600080fd5b6111088260200151611c87565b60c084015260808301819052602083015161012001516040015161112b916108d1565b608083015260005b85811015610ee45780156111745786868281811061114d57fe5b9050602002013587876001840381811061116357fe5b905060200201351161117457600080fd5b60006111888a858b8b8b878181106109bc57fe5b9050806111955750611223565b600081136111a257600080fd5b6111cf848989858181106111b257fe5b90506020020135856111c98a8a88818110610a8c57fe5b85611cdb565b8460e0015183815181106111df57fe5b602002602001018181525050600084608001511315806112055750602084015160600151155b806112165750602084015160400151155b156112215750610ee4565b505b600101611133565b6000806109246006611de8565b600881901c60ff9091161b90565b6000808212611256575080610924565b8251602084015161126d91906108fe908590611274565b9050610924565b8181026000198314156112a45781158061129657508282828161129357fe5b05145b61129f57600080fd5b610924565b8215806112b95750818382816112b657fe5b05145b61092457600080fd5b6000816000191480156112d85750600160ff1b83145b156112e257600080fd5b8183816112eb57fe5b059392505050565b60008183126113025781611304565b825b9392505050565b60008060008513611320578260400151611326565b82606001515b90506000811361133557600080fd5b610e40816108fe606461135161134a89610d18565b8890611e01565b90611274565b82516060015160009061ffff1683141561137d57611376858484611e23565b90506113f3565b60408401515180515b600019810190156113ec57600082828151811061139f57fe5b6020026020010151905085816000015161ffff161480156113c4575060408101516001145b80156113d35750848160200151145b156113e6576060015192506113f3915050565b50611386565b5060009150505b949350505050565b600080600061141a8686896101200151611e689092919063ffffffff16565b90508315611465576114328761012001518787611f51565b925061145e6114418787611f98565b6114596114528a6101200151611fad565b8490611fba565b611fcc565b91506114b7565b611475876101200151878761203f565b92506000611487886101200151612075565b90506114b36114968888611f98565b8284106114ac576114a78484611f98565b611459565b6000611fcc565b9250505b5094509492505050565b8082038281131560008312151461092457600080fd5b6000808212156114f1576114ea82610d18565b9050610c53565b5080610c53565b600061130461150b84633b9aca00611274565b836112c2565b60006001600160ff1b0382111561152757600080fd5b5090565b60008061153e60646108fe866028611274565b9050848481131561154c5750835b818612156115575750805b60008413801561156657508381135b15610e40575091949350505050565b60006113046115848484611274565b633b9aca006112c2565b8181018281121560008312151461092457600080fd5b81516000908190610904906108fe856ec097ce7bc90715b34b9f1000000000611274565b6115d06148d4565b60006115da612082565b6000858152602082815260408083208715158452825291829020825160a08101845281546001600160a01b038116825260ff600160a01b82048116151594830194909452600160b01b81048416600a0a9482019490945293945092916060830191600160a81b90910416600581111561164f57fe5b8152600060209091015295945050505050565b6000806109246001611de8565b611677614903565b60006116828461208f565b905082816000015110156116c15760008061169c86612157565b90506116aa868483886121d4565b90935091506116ba868385612278565b50506116ce565b805183146116ce57600080fd5b60405180606001604052806116fc6116f78460a001518560c001516124ac90919063ffffffff16565b611511565b815260200161171f6116f78460a001518560e001516124ac90919063ffffffff16565b8152602001826060015181525091505092915050565b8260001080156117475750613fff8311155b61175057600080fd5b818015611764575082846060015161ffff16145b1561176e5761193f565b6080840151600090815b6001600160701b03198216156118f95760f082901c613fff16868114801561179d5750855b156117d557506080870180516001600160f01b0319861660109093029290921c919091176001600160701b03191690525061193f9050565b86811480156117e2575085155b1561183e576001600160f01b03198516199290921691600360fe1b831661181c576010836dffffffffffffffffffffffffffff1916901b92505b506001600160701b031991821660109091021c9190911716608085015261193f565b868111801561184a5750855b156118a4576080888101516001600160f01b031960f08a901b88178116601086021c9690961795911b161561187e57600080fd5b506001600160701b03199182166001919091016010021c9190911716608085015261193f565b86811180156118b1575085155b156118bf575050505061193f565b506001600160f01b0319821660108281029190911c93909317929190911b6fffffffffffffffffffffffffffffffff191690600101611778565b846119065750505061193f565b6009811061191357600080fd5b6001600160f01b031960f087901b85171660109091021c919091176001600160701b0319166080860152505b50505050565b600061194f61122b565b6001600160a01b03891660009081526020828152604080832061ffff8c1684529091529020909150846119b75766ffffffffffffff84111561199057600080fd5b805466ffffffffffffff60701b1916600160701b66ffffffffffffff8616021781556119d1565b8054600160501b900463ffffffff1685146119d157600080fd5b6119da856124d3565b815463ffffffff91909116600160501b0263ffffffff60501b19909116178155611a0b611a06876124e6565b6124f5565b815469ffffffffffffffffffff19166001600160501b039190911617808255611a5190611a4c9085908c908c90600160a81b9004600a90810b900b8c61250b565b61252e565b8154600a9190910b6001600160581b0316600160a81b026001600160a81b039091161790555050505050505050565b60006305f5e10083604001511215611aa75761126d6001611aa18585612560565b9061158e565b61130483611ab684600161158e565b612560565b6000806000611ac9866124e6565b905080611add576000809250925050611b6e565b6000611aec8861ffff16610c3d565b9050600381606001516005811115611b0057fe5b1415611b475734821015611b2057611b1b8983340387612598565b611b3f565b348214611b3f5760405162461bcd60e51b815260040161048390615299565b869350611b5c565b611b596116f782600001518b85612665565b93505b611b69898986848a6127ed565b925050505b9550959350505050565b6000806109246021611de8565b80516060906000908414611b9857600080fd5b6000846001600160401b0381118015611bb057600080fd5b50604051908082528060200260200182016040528015611bea57816020015b611bd7614890565b815260200190600190039081611bcf5790505b5090506000805b86811015611c79576000838281518110611c0757fe5b602090810291909101015161ffff8b168152600160408201528751909150879083908110611c3157fe5b6020026020010151816060018181525050888883818110611c4e57fe5b90506020020135816020018181525050600081606001511215611c7057600192505b50600101611bf1565b509097909650945050505050565b600080611cb8611ca8611c9d8560200151610d18565b60e086015190611e01565b61012085015160400151906115a4565b9150611cd48360e00151608001518460c0015160800151612834565b9050915091565b6000806000611cf18860200151888860016113fb565b91509150600080611d368a6020015160e0015160600151611d308c60c001516108fe60648f6020015160c001516040015161127490919063ffffffff16565b906114c1565b9050611d4760646108fe8584611274565b90506000611d5584866114c1565b9050611d61818361158e565b925050506000611d7e828b608001516114f890919063ffffffff16565b9050611d8b81878961152b565b90506000611d9b8b858785612843565b90925090506000611dac8385611575565b60808d0151909150611dbe90826114c1565b60808d015260a08c0151611dd2908361158e565b60a08d0152509094505050505095945050505050565b6000620f4240826026811115611dfa57fe5b0192915050565b60008061092084602001516108fe86600001518661127490919063ffffffff16565b600080611e2e612933565b6001600160a01b03861660009081526020918252604080822087835283528082208683529092522054600f90810b900b9150509392505050565b6000806000611e7c86602001518686612940565b915091506000611e8b876129c8565b905081611eab578651611ea49061ffff168783886129dc565b9350611f47565b6000611eb686612a7b565b90506000611ecd611ec686612a99565b8390611fba565b90506000611ee58a6000015161ffff1683868b6129dc565b90506000808760011415611f035750506040808b0151015188611f32565b611f19611f1260018a03612a99565b8690611fba565b9050611f2f8c6000015161ffff1682888d6129dc565b91505b611f3f818584868f612b3d565b985050505050505b5050509392505050565b600080611f5f858585612ba1565b9050611f74611f6e8585611f98565b82611fcc565b91506000611f8186612be6565b905082811215611f8f578092505b50509392505050565b600082821115611fa757600080fd5b50900390565b6000610c50826038612c01565b60008282018381101561130457600080fd5b600080611fef611fea6301da9c00611fe486886124ac565b90612c14565b612c33565b905061200181621dcd6560491b612c51565b905061201461200f82612ca4565b612cc6565b905061202681621dcd6560491b612d1b565b9050600061203382612d51565b60070b95945050505050565b60008061204d858585612d5a565b9050801561206757612062611f6e8585611f98565b610e40565b633b9aca0095945050505050565b6000610c50826040612c01565b6000806109246007611de8565b612097614924565b60006120a1612daa565b61ffff93841660009081526020918252604090819020805464ffffffffff81168652600160281b81046001600160581b03908116948701949094526001820154841692860192909252600160d81b820463ffffffff166060860152600160801b9091049091166080840152600201546001600160501b0380821660a0850152600160501b8204811660c0850152600160a01b82041660e0840152600160f01b900460ff1661012c02909216610100820152919050565b60008061216383612db7565b6001600160a01b031663ef81f2166040518163ffffffff1660e01b81526004016040805180830381600087803b15801561219c57600080fd5b505af11580156121b0573d6000803e3d6000fd5b505050506040513d601f19601f820116820180604052508101906113f3919061503c565b6121dc614924565b60008060006121ec888689612de7565b60c08b019290925260e08a0192909252602089015191935091506122109083611fba565b602088015260808701516000901561223e57608088015161223b906122358982611f98565b90612ef2565b90505b61225e612253670de0b6b3a764000083611fba565b60a08a015190612f0f565b60a089015250506080860194909452505082529092909150565b6000612282612daa565b60008561ffff16815260200190815260200160002090506122a68260000151612f2c565b815464ffffffffff191664ffffffffff9190911617815560a08201516122cb906124f5565b60028201805469ffffffffffffffffffff19166001600160501b039290921691909117905560c08201516122fe906124f5565b81600201600a6101000a8154816001600160501b0302191690836001600160501b031602179055506123338260e001516124f5565b8160020160146101000a8154816001600160501b0302191690836001600160501b031602179055506123688260200151612f40565b81546001600160581b0391909116600160281b026fffffffffffffffffffffff00000000001990911617815560408201516123a290612f40565b6001820180546affffffffffffffffffffff19166001600160581b039290921691909117905560808201516123d690612f40565b81546001600160581b0391909116600160801b026affffffffffffffffffffff60801b19909116178155606082015161240e906124d3565b815463ffffffff91909116600160d81b0263ffffffff60d81b19909116178155821561245a57600061243f84611511565b905061244b8582612f56565b612458610fee8683612f8d565b505b8361ffff167fef25641e225e493886510ca1ad6584fa7b442b9fea820a29d1de3ce27d270fd28360a001518460c001518560e0015160405161249e9392919061539c565b60405180910390a250505050565b6000826124bb57506000610924565b828202828482816124c857fe5b041461130457600080fd5b600063ffffffff82111561152757600080fd5b60008082121561152757600080fd5b60006001600160501b0382111561152757600080fd5b60006125178683613017565b9050610e408686866125298786613050565b6130d7565b60006a7fffffffffffffffffffff19821280159061255757506a7fffffffffffffffffffff8213155b61152757600080fd5b60006305f5e10083604001511415612579575080610924565b6113046305f5e1006108fe85604001518561127490919063ffffffff16565b801561262a577382af49447d8a07e3bd95bd0d56f35241523fbab16001600160a01b031663d0e30db0836040518263ffffffff1660e01b81526004016000604051808303818588803b1580156125ed57600080fd5b505af1158015612601573d6000803e3d6000fd5b50505050506126257382af49447d8a07e3bd95bd0d56f35241523fbab1848461310b565b612660565b6040516001600160a01b0384169083156108fc029084906000818181858888f1935050505015801561193f573d6000803e3d6000fd5b505050565b600080846001600160a01b03166370a08231306040518263ffffffff1660e01b815260040180826001600160a01b0316815260200191505060206040518083038186803b1580156126b557600080fd5b505afa1580156126c9573d6000803e3d6000fd5b505050506040513d60208110156126df57600080fd5b5051604080516323b872dd60e01b81526001600160a01b038781166004830152306024830152604482018790529151929350908716916323b872dd9160648082019260009290919082900301818387803b15801561273c57600080fd5b505af1158015612750573d6000803e3d6000fd5b5050505061275c61317e565b6000856001600160a01b03166370a08231306040518263ffffffff1660e01b815260040180826001600160a01b0316815260200191505060206040518083038186803b1580156127ab57600080fd5b505afa1580156127bf573d6000803e3d6000fd5b505050506040513d60208110156127d557600080fd5b505190506127e38183611f98565b9695505050505050565b6000806127fa84866131ef565b905061280683826115a4565b9150612813878784612f8d565b61281e86838361321f565b835161282a908661332b565b5095945050505050565b60008183136113025781611304565b600080806128518487611575565b9050600061285f8587611575565b602089015160608101516101209091015160400151919250600091612883916108d1565b9050808213156128a95761289781886114f8565b95509050806128a68689611575565b92505b60006128bf8a602001518b60c00151868a613385565b60208c015161012001516040015191985091506128ef906128e090856115a4565b60208c01516060015190613412565b60208b015160600152600081121561290657600080fd5b60208a015160400151612919908261158e565b60208b015160400152869550935050505094509492505050565b600080610924600c611de8565b6000806000851161295057600080fd5b600785111561295e57600080fd5b600061296984612a7b565b905060015b8681116129ba57600061298361145283612a99565b90508681141561299b57509250600091506129c09050565b868111156129b157509250600191506129c09050565b5060010161296e565b50600080fd5b935093915050565b6060015161012c60089190911c60ff160290565b6000806129e761342e565b905060006276a7006129f885612a7b565b6000898152602085815260408083208b84528252808320949093018083529390522080549192509063ffffffff600160a01b8204811691600160c01b8104821691600160e01b9091041681612a5f5760405162461bcd60e51b815260040161048390615269565b612a6c8184848c8c61343b565b9b9a5050505050505050505050565b60006276a700821015612a8d57600080fd5b506276a7008106900390565b60008160011415612aae57506276a700610c53565b8160021415612ac1575062ed4e00610c53565b8160031415612ad557506301da9c00610c53565b8160041415612ae957506303b53800610c53565b8160051415612afd57506309450c00610c53565b8160061415612b11575063128a1800610c53565b8160071415612b2557506325143000610c53565b60405162461bcd60e51b8152600401610483906152be565b6000818610612b4b57600080fd5b848210612b5757600080fd5b838310612b8357612b7c84612b76888803611fe48388038b88036124ac565b90611fba565b9050610e40565b612b7c612b9a878703611fe48688038a87036124ac565b8590611f98565b6000612bae848484611e68565b9050612bc3612bbc856134b6565b8290611fba565b90506000612bd0856134c3565b905080821015612bde578091505b509392505050565b606001516207a12060109190911c60ff1602633b9aca000390565b60609091015160ff911c16622625a00290565b6000808211612c2257600080fd5b818381612c2b57fe5b049392505050565b6000677fffffffffffffff821115612c4a57600080fd5b5060401b90565b600081600f0b60001415612c6457600080fd5b600082600f0b604085600f0b901b81612c7957fe5b05905060016001607f1b03198112801590612c9b575060016001607f1b038113155b61130457600080fd5b6000600f82900b60016001607f1b03191415612cbf57600080fd5b5060000390565b6000600160461b82600f0b12612cdb57600080fd5b683fffffffffffffffff1982600f0b1215612cf857506000610c53565b610c50608083600f0b700171547652b82fe1777d0ffda0d23a7d1202901d6134d0565b6000600f83810b9083900b0260401d60016001607f1b03198112801590612c9b575060016001607f1b0381131561130457600080fd5b600f0b60401d90565b6000612d67848484611e68565b90506000612d7485613f80565b9050808211612d87576000915050611304565b80820391506000612d9786613f8d565b905082811015611f8f5795945050505050565b600080610924601d611de8565b600080612dc2613f9a565b61ffff939093166000908152602093909352505060409020546001600160a01b031690565b600080600080600080612dfa8988613fa7565b89519095509193509150600090612e2190612e16908b90611f98565b633b9aca00906124ac565b9050612e5b612e506301da9c00612e3885856124ac565b81612e3f57fe5b670de0b6b3a7640000919004611fba565b60e08a015190612f0f565b9650612e7d612e726301da9c00612e3887856124ac565b60c08a015190612f0f565b955081831415612e94575060009350612ee9915050565b6000612eb6612eab6301da9c00612e3887866124ac565b60e08b015190612f0f565b90506000612ec48983611f98565b9050612ee188611fe4838d604001516124ac90919063ffffffff16565b965050505050505b93509350935093565b6000611304612f0984670de0b6b3a76400006124ac565b83612c14565b6000611304612f1e84846124ac565b670de0b6b3a7640000612c14565b600064ffffffffff82111561152757600080fd5b60006001600160581b0382111561152757600080fd5b6000811215612f6457600080fd5b6000612f72610fee84614042565b9050612f7e818361158e565b9050612660610fee848361409b565b6000612f97611b78565b61ffff8416600090815260209190915260409081902054905163ad1c095d60e01b81526001600160a01b039091169150819063ad1c095d90612fdf9087908690600401615209565b600060405180830381600087803b158015612ff957600080fd5b505af115801561300d573d6000803e3d6000fd5b5050505050505050565b60008082121561304a576130456001611d3085602001516108fe87600001518761127490919063ffffffff16565b611304565b50919050565b60008183148061306d57506000831215801561306d575060008212155b1561307a57506000610924565b6000831315801561308b5750816000125b15613097575081610924565b600082131580156130a85750826000125b156130b65761126d82610d18565b600083131580156130c8575060008213155b1561007b5761126d83836114c1565b801561193f57835160208501516000916130f6916108fe908590611274565b90506131048484848461410f565b5050505050565b826001600160a01b031663a9059cbb83836040518363ffffffff1660e01b815260040180836001600160a01b0316815260200182815260200192505050600060405180830381600087803b15801561316257600080fd5b505af1158015613176573d6000803e3d6000fd5b505050506126605b6000613188614970565b3d801561319c57602081146131a557600080fd5b600192506131b0565b60206000833e815192505b50816131eb576040805162461bcd60e51b8152602060048201526005602482015264045524332360dc1b604482015290519081900360640190fd5b5050565b60006305f5e10083604001511415613208575080610924565b6040830151611304906108fe846305f5e100611274565b6000613229612daa565b61ffff8516600090815260209190915260409020805490915064ffffffffff16421461325457600080fd5b805460009061327390600160281b90046001600160581b03168561158e565b825490915060009061329590600160801b90046001600160581b03168561158e565b905080624c4b4013156132a757600080fd5b6132b86132b3826124e6565b612f40565b83546001600160581b0391909116600160801b026affffffffffffffffffffff60801b199091161783556132ee6132b3836124e6565b83546001600160581b0391909116600160281b026fffffffffffffffffffffff00000000001990911617835561332383614255565b505050505050565b600061333561431a565b6001600160a01b03841660009081526020829052604090205490915061336361335e828561158e565b6124e6565b6001600160a01b03909416600090815260209290925250604090209190915550565b60008060006133b8866108fe6133a38a60c001518b60e00151614327565b60c08b0151516108fe906113518b6064611274565b905060006133d4828961010001516115a490919063ffffffff16565b905060006133e58960400151610d18565b905080821315613403576133fd826108fe8884611274565b95508091505b50939793965092945050505050565b600061341e83836114c1565b9050600081121561092457600080fd5b600080610924600a611de8565b600080831161344957600080fd5b81861115613458575083610e40565b60006134648388611f98565b9050838111156134775785915050610e40565b6000613483828661434c565b90506000613495633b9aca0083611f98565b90506106ae633b9aca00611fe46134ac8a856124ac565b612b768c876124ac565b6000610c50826028612c01565b6000610c50826030612c01565b6000600160461b82600f0b126134e557600080fd5b683fffffffffffffffff1982600f0b121561350257506000610c53565b6001607f1b60006780000000000000008416600f0b13156135345770016a09e667f3bcc908b2fb1366ea957d3e0260801c5b60008367400000000000000016600f0b1315613561577001306fe0a31b7152de8d5a46305c85edec0260801c5b60008367200000000000000016600f0b131561358e577001172b83c7d517adcdf7c8c50eb14a791f0260801c5b60008367100000000000000016600f0b13156135bb5770010b5586cf9890f6298b92b71842a983630260801c5b60008367080000000000000016600f0b13156135e8577001059b0d31585743ae7c548eb68ca417fd0260801c5b60008367040000000000000016600f0b131561361557700102c9a3e778060ee6f7caca4f7a29bde80260801c5b60008367020000000000000016600f0b13156136425770010163da9fb33356d84a66ae336dcdfa3f0260801c5b600083600160381b16600f0b131561366b57700100b1afa5abcbed6129ab13ec11dc95430260801c5b600083668000000000000016600f0b13156136975770010058c86da1c09ea1ff19d294cf2f679b0260801c5b600083664000000000000016600f0b13156136c3577001002c605e2e8cec506d21bfc89a23a00f0260801c5b600083662000000000000016600f0b13156136ef57700100162f3904051fa128bca9c55c31e5df0260801c5b600083661000000000000016600f0b131561371b577001000b175effdc76ba38e31671ca9397250260801c5b600083660800000000000016600f0b131561374757700100058ba01fb9f96d6cacd4b180917c3d0260801c5b600083660400000000000016600f0b13156137735770010002c5cc37da9491d0985c348c68e7b30260801c5b600083660200000000000016600f0b131561379f577001000162e525ee054754457d59952920260260801c5b600083600160301b16600f0b13156137c85770010000b17255775c040618bf4a4ade83fc0260801c5b6000836580000000000016600f0b13156137f3577001000058b91b5bc9ae2eed81e9b7d4cfab0260801c5b6000836540000000000016600f0b131561381e57700100002c5c89d5ec6ca4d7c8acc017b7c90260801c5b6000836520000000000016600f0b13156138495770010000162e43f4f831060e02d839a9d16d0260801c5b6000836510000000000016600f0b131561387457700100000b1721bcfc99d9f890ea069117630260801c5b6000836508000000000016600f0b131561389f5770010000058b90cf1e6d97f9ca14dbcc16280260801c5b6000836504000000000016600f0b13156138ca577001000002c5c863b73f016468f6bac5ca2b0260801c5b6000836502000000000016600f0b13156138f557700100000162e430e5a18f6119e3c02282a50260801c5b600083600160281b16600f0b131561391e577001000000b1721835514b86e6d96efd1bfe0260801c5b60008364800000000016600f0b131561394857700100000058b90c0b48c6be5df846c5b2ef0260801c5b60008364400000000016600f0b13156139725770010000002c5c8601cc6b9e94213c72737a0260801c5b60008364200000000016600f0b131561399c577001000000162e42fff037df38aa2b219f060260801c5b60008364100000000016600f0b13156139c65770010000000b17217fba9c739aa5819f44f90260801c5b60008364080000000016600f0b13156139f0577001000000058b90bfcdee5acd3c1cedc8230260801c5b60008364040000000016600f0b1315613a1a57700100000002c5c85fe31f35a6a30da1be500260801c5b60008364020000000016600f0b1315613a445770010000000162e42ff0999ce3541b9fffcf0260801c5b60008364010000000016600f0b1315613a6e57700100000000b17217f80f4ef5aadda455540260801c5b600083638000000016600f0b1315613a975770010000000058b90bfbf8479bd5a81b51ad0260801c5b600083634000000016600f0b1315613ac0577001000000002c5c85fdf84bd62ae30a74cc0260801c5b600083632000000016600f0b1315613ae957700100000000162e42fefb2fed257559bdaa0260801c5b600083631000000016600f0b1315613b12577001000000000b17217f7d5a7716bba4a9ae0260801c5b600083630800000016600f0b1315613b3b57700100000000058b90bfbe9ddbac5e109cce0260801c5b600083630400000016600f0b1315613b645770010000000002c5c85fdf4b15de6f17eb0d0260801c5b600083630200000016600f0b1315613b8d577001000000000162e42fefa494f1478fde050260801c5b600083630100000016600f0b1315613bb65770010000000000b17217f7d20cf927c8e94c0260801c5b6000836280000016600f0b1315613bde577001000000000058b90bfbe8f71cb4e4b33d0260801c5b6000836240000016600f0b1315613c0657700100000000002c5c85fdf477b662b269450260801c5b6000836220000016600f0b1315613c2e5770010000000000162e42fefa3ae53369388c0260801c5b6000836210000016600f0b1315613c5657700100000000000b17217f7d1d351a389d400260801c5b6000836208000016600f0b1315613c7e5770010000000000058b90bfbe8e8b2d3d4ede0260801c5b6000836204000016600f0b1315613ca6577001000000000002c5c85fdf4741bea6e77e0260801c5b6000836202000016600f0b1315613cce57700100000000000162e42fefa39fe95583c20260801c5b6000836201000016600f0b1315613cf6577001000000000000b17217f7d1cfb72b45e10260801c5b60008361800016600f0b1315613d1d57700100000000000058b90bfbe8e7cc35c3f00260801c5b60008361400016600f0b1315613d445770010000000000002c5c85fdf473e242ea380260801c5b60008361200016600f0b1315613d6b577001000000000000162e42fefa39f02b772c0260801c5b60008361100016600f0b1315613d925770010000000000000b17217f7d1cf7d83c1a0260801c5b60008361080016600f0b1315613db9577001000000000000058b90bfbe8e7bdcbe2e0260801c5b60008361040016600f0b1315613de057700100000000000002c5c85fdf473dea871f0260801c5b60008361020016600f0b1315613e075770010000000000000162e42fefa39ef44d910260801c5b60008361010016600f0b1315613e2e57700100000000000000b17217f7d1cf79e9490260801c5b600083608016600f0b1315613e545770010000000000000058b90bfbe8e7bce5440260801c5b600083604016600f0b1315613e7a577001000000000000002c5c85fdf473de6eca0260801c5b600083602016600f0b1315613ea057700100000000000000162e42fefa39ef366f0260801c5b600083601016600f0b1315613ec6577001000000000000000b17217f7d1cf79afa0260801c5b600083600816600f0b1315613eec57700100000000000000058b90bfbe8e7bcd6d0260801c5b600083600416600f0b1315613f125770010000000000000002c5c85fdf473de6b20260801c5b600083600216600f0b1315613f38577001000000000000000162e42fefa39ef3580260801c5b600083600116600f0b1315613f5e5770010000000000000000b17217f7d1cf79ab0260801c5b600f83810b60401d603f03900b1c60016001607f1b03811115610c5057600080fd5b6000610c50826020612c01565b6000610c50826048612c01565b600080610924601f611de8565b600080600080600085602001511115613ff457613ff1613fd88660c0015187602001516124ac90919063ffffffff16565b60e08701516040880151613feb916124ac565b9061434c565b90505b6000613fff8761435f565b905061400b8183614392565b945081156140225761401f81866001614445565b93505b6020860151156140395761403685836144bd565b92505b50509250925092565b60008061404d61122b565b6001600160a01b03851660009081526020828152604080832061ffff8816845290915281208054600160a81b9004600a90810b900b945091925083121561409357600080fd5b505092915050565b60008112156140a957600080fd5b60006140b361122b565b6001600160a01b03851660009081526020828152604080832061ffff8816845290915290209091506140e48361252e565b8154600a9190910b6001600160581b0316600160a81b026001600160a81b0390911617905550505050565b6000614119612daa565b61ffff8516600090815260209190915260409020805490915064ffffffffff16421461414457600080fd5b8054600160f81b900460ff1661415957600080fd5b6001810154600090614174906001600160581b03168561158e565b825490915060009061419690600160281b90046001600160581b03168561158e565b9050816009191280156141a95750600082125b156141b357600091505b806009191280156141c45750600081125b156141cd575060005b6141d96132b3836124e6565b6001840180546affffffffffffffffffffff19166001600160581b039290921691909117905561420b6132b3826124e6565b83546001600160581b0391909116600160281b026fffffffffffffffffffffff000000000019909116178355614243878786886144d6565b61424c83614255565b50505050505050565b8054600282015460009161429191600160281b9091046001600160581b031690611351906001600160501b03600160501b820481169116611274565b600183015460028401549192506000916142cb916001600160581b031690611351906001600160501b03600160a01b820481169116611274565b83549091506000906143029060016001600160581b03600160801b909204821601166ec097ce7bc90715b34b9f1000000000611274565b90508061430f84846114c1565b131561193f57600080fd5b6000806109246026611de8565b600061130482602001516108fe8460000151866020015161127490919063ffffffff16565b6000611304612f0984633b9aca006124ac565b61436761498e565b60006143716145ea565b61ffff841660009081526020919091526040812054915061130490826145f7565b6000808360800151116143a457600080fd5b633b9aca008211156143b557600080fd5b825182116143d4578251604084015161126d9190611fe49085906124ac565b8260200151821161440c57604083015183516020850151606086015161126d9392612b769281900391611fe4918803908590036124ac565b6113048360600151612b768560200151633b9aca0003611fe48760600151886080015103886020015188036124ac90919063ffffffff16565b6000806144646064611fe48760e00151876124ac90919063ffffffff16565b90508460a00151811015614479575060a08401515b8460c0015181111561448c575060c08401515b82156144a35761449c8482611fba565b9150612bde565b8381116144b257808403610e40565b506000949350505050565b60006113046144cc84846124ac565b633b9aca00612c14565b60006144e0611b78565b61ffff8516600090815260209190915260408120546001600160a01b03169150614508614716565b61ffff8616600090815260209190915260409081902054905163ad1c095d60e01b81526001600160a01b039091169150819063ad1c095d906145509089908790600401615209565b600060405180830381600087803b15801561456a57600080fd5b505af115801561457e573d6000803e3d6000fd5b505060405163ad1c095d60e01b81526001600160a01b038516925063ad1c095d91506145b09089908890600401615209565b600060405180830381600087803b1580156145ca57600080fd5b505af11580156145de573d6000803e3d6000fd5b50505050505050505050565b600080610924601b611de8565b6145ff61498e565b6064633b9aca008360ff86166020811061461557fe5b1a028161461e57fe5b0481526064633b9aca008360ff86166001016020811061463a57fe5b1a028161464357fe5b048160200181815250506146688260028560ff16016020811061466257fe5b1a614723565b60808201819052610100908360ff86166003016020811061468557fe5b1a028161468e57fe5b0460408201526080810151610100908360ff8616600401602081106146af57fe5b1a02816146b857fe5b0460608201526207a1208260ff8516600501602081106146d457fe5b1a0260a0820152622625a08260ff8516600601602081106146f157fe5b1a0260c08201528160ff84166007016020811061470a57fe5b1a60e082015292915050565b6000806109246022611de8565b60008160ff1660961061473e5760ff8216622625a002610c50565b5060951960ff919091160162e4e1c00263165a0bc00190565b60405180610100016040528061476b6147ae565b81526020016147786147e3565b8152602001614785614868565b815260200160008152602001600081526020016000815260200160008152602001606081525090565b6040805160c081018252600080825260208201819052918101829052606081018290526080810182905260a081019190915290565b60405180610160016040528060006001600160a01b031681526020016000815260200160008152602001600081526020016000815260200160006001600160d01b03191681526020016148346149d3565b81526020016148416149d3565b815260200161484e614903565b815260200161485b614a02565b8152600060209091015290565b6040518060800160405280606081526020016060815260200160008152602001600081525090565b6040518060c00160405280600061ffff16815260200160008152602001600081526020016000815260200160008152602001600060038111156148cf57fe5b905290565b6040805160a0810182526000808252602082018190529181018290529060608201908152602001600081525090565b60405180606001604052806000815260200160008152602001600081525090565b6040518061012001604052806000815260200160008152602001600081526020016000815260200160008152602001600081526020016000815260200160008152602001600081525090565b60405180602001604052806001906020820280368337509192915050565b60405180610100016040528060008152602001600081526020016000815260200160008152602001600081526020016000815260200160008152602001600081525090565b6040518060a0016040528060008152602001600081526020016000815260200160008152602001600081525090565b604080516080810182526000808252602082015290810161485b614903565b8051610c53816153d5565b600082601f830112614a3c578081fd5b815160206001600160401b0380831115614a5257fe5b614a5f82838502016153b2565b8381528281019086840160c0808702890186018a1015614a7d578788fd5b875b87811015614b075781838c031215614a95578889fd5b604080518381018181108982111715614aaa57fe5b82528451614ab7816153ed565b815284890151898201528185015191810191909152606080850151908201526080808501519082015260a090614aee828601614bb6565b9181019190915285529386019391810191600101614a7f565b50919998505050505050505050565b60008083601f840112614b27578182fd5b5081356001600160401b03811115614b3d578182fd5b6020830191508360208083028501011115614b5757600080fd5b9250929050565b80518015158114610c5357600080fd5b80516001600160701b031981168114610c5357600080fd5b80516001600160f81b031981168114610c5357600080fd5b80516001600160d01b031981168114610c5357600080fd5b805160048110610c5357600080fd5b600060c08284031215614bd6578081fd5b60405160c081018181106001600160401b0382111715614bf257fe5b8060405250809150825164ffffffffff81168114614c0f57600080fd5b8152614c1d60208401614b86565b6020820152614c2e60408401614da3565b6040820152614c3f60608401614d98565b6060820152614c5060808401614b6e565b6080820152614c6160a08401614b5e565b60a08201525092915050565b600060c08284031215614c7e578081fd5b604051608081018181106001600160401b0382111715614c9a57fe5b80604052508091508251614cad816153ed565b815260208381015190820152614cc68460408501614d44565b604082015260a083015160608201525092915050565b600060a08284031215614ced578081fd5b60405160a081018181106001600160401b0382111715614d0957fe5b806040525080915082518152602083015160208201526040830151604082015260608301516060820152608083015160808201525092915050565b600060608284031215614d55578081fd5b604051606081018181106001600160401b0382111715614d7157fe5b80604052508091508251815260208301516020820152604083015160408201525092915050565b8051610c53816153ed565b805160ff81168114610c5357600080fd5b60008060008060008060808789031215614dcc578182fd5b8635614dd7816153d5565b95506020870135614de7816153ed565b945060408701356001600160401b0380821115614e02578384fd5b614e0e8a838b01614b16565b90965094506060890135915080821115614e26578384fd5b50614e3389828a01614b16565b979a9699509497509295939492505050565b600080600080600080600060a0888a031215614e5f578485fd5b8735614e6a816153d5565b96506020880135614e7a816153ed565b95506040880135614e8a816153ed565b945060608801356001600160401b0380821115614ea5578283fd5b614eb18b838c01614b16565b909650945060808a0135915080821115614ec9578283fd5b50614ed68a828b01614b16565b989b979a50959850939692959293505050565b6000806101808385031215614efc578182fd5b614f068484614bc5565b9150614f158460c08501614bc5565b90509250929050565b6000806000838503610420811215614f34578182fd5b614f3e8686614bc5565b935061034060bf1982011215614f52578182fd5b50610160614f5f816153b2565b614f6b60c08701614a21565b815260e08601516020820152610100808701516040830152610120808801516060840152610140808901516080850152614fa6858a01614b9e565b60a0850152614fb98a6101808b01614cdc565b60c0850152614fcc8a6102208b01614cdc565b60e0850152614fdf8a6102c08b01614d44565b83850152614ff18a6103208b01614c6d565b828501526150026103e08a01614b5e565b90840152505061040086015190935090506001600160401b03811115615026578182fd5b61503286828701614a2c565b9150509250925092565b6000806040838503121561504e578182fd5b505080516020909101519092909150565b6000815180845260208085019450808401835b8381101561508e57815187529582019590820190600101615072565b509495945050505050565b805164ffffffffff1682526020808201516001600160f81b0319169083015260408082015160ff169083015260608082015161ffff16908301526080808201516001600160701b0319169083015260a0908101511515910152565b6001600160a01b0391909116815260200190565b6001600160a01b0392831681529116602082015260400190565b60006101e080830160018060a01b03808a1685526020818a16818701526040915061514f8287018a615099565b61515d610100870189615099565b6101c086019390935285519182905261020085019280870192855b818110156151d4578451805161ffff16875283810151848801528481015185880152606080820151908801526080808201519088015260a09081015190600482106151bf57fe5b87015260c09095019493820193600101615178565b50939b9a5050505050505050505050565b6001600160a01b039384168152919092166020820152604081019190915260600190565b6001600160a01b03929092168252602082015260400190565b6001600160a01b0393909316835261ffff918216602084015216604082015260600190565b60006040825261525a604083018561505f565b90508260208301529392505050565b60208082526016908201527513585c9ad95d081b9bdd081a5b9a5d1a585b1a5e995960521b604082015260600190565b6020808252600b908201526a4554482042616c616e636560a81b604082015260600190565b6020808252600d908201526c092dcecc2d8d2c840d2dcc8caf609b1b604082015260600190565b60208082526008908201526712185cc81919589d60c21b604082015260600190565b60208082526008908201526709ccace4086c2e6d60c31b604082015260600190565b61ffff8781168252861660208201526040810185905260a060608201819052810183905260006001600160fb1b03841115615362578081fd5b60208402808660c0850137808301905060c0810182815260c084830301608085015261538e818661505f565b9a9950505050505050505050565b9283526020830191909152604082015260600190565b6040518181016001600160401b03811182821017156153cd57fe5b604052919050565b6001600160a01b03811681146153ea57600080fd5b50565b61ffff811681146153ea57600080fdfea26469706673582212202d94a37402c64ce43a60b1eb94048d0e56d493ebc7e39b23d141aab7347e4cef64736f6c63430007060033","language":"Solidity","natspec":{"kind":"dev","methods":{"calculatefCashCrossCurrencyLiquidation(address,uint16,uint16,uint256[],uint256[])":{"notice":"Calculates fCash cross currency liquidation, can be called via staticcall off chain","params":{"fCashCurrency":"currency of fCash to purchase","fCashMaturities":"array of fCash maturities in the local currency to purchase, must be ordered descending","liquidateAccount":"account to liquidate","localCurrency":"local currency to liquidate","maxfCashLiquidateAmounts":"max notional of fCash to liquidate in corresponding maturity, zero will represent no maximum"},"returns":{"_0":"an array of the notional amounts of fCash to transfer, corresponding to fCashMaturities","_1":"amount of local currency required from the liquidator"}},"calculatefCashLocalLiquidation(address,uint16,uint256[],uint256[])":{"params":{"fCashMaturities":"array of fCash maturities in the local currency to purchase, must be ordered descending","liquidateAccount":"account to liquidate","localCurrency":"local currency to liquidate","maxfCashLiquidateAmounts":"max notional of fCash to liquidate in corresponding maturity, zero will represent no maximum"},"returns":{"_0":"an array of the notional amounts of fCash to transfer, corresponding to fCashMaturities","_1":"amount of local currency required from the liquidator"}},"getLibInfo()":{"notice":"Get a list of deployed library addresses (sorted by library name)"},"liquidatefCashCrossCurrency(address,uint16,uint16,uint256[],uint256[])":{"notice":"Liquidates fCash across local to collateral currency","params":{"fCashCurrency":"currency of fCash to purchase","fCashMaturities":"array of fCash maturities in the local currency to purchase, must be ordered descending","liquidateAccount":"account to liquidate","localCurrency":"local currency to liquidate","maxfCashLiquidateAmounts":"max notional of fCash to liquidate in corresponding maturity, zero will represent no maximum"},"returns":{"_0":"an array of the notional amounts of fCash to transfer, corresponding to fCashMaturities","_1":"amount of local currency required from the liquidator"}},"liquidatefCashLocal(address,uint16,uint256[],uint256[])":{"notice":"Liquidates fCash using local currency","params":{"fCashMaturities":"array of fCash maturities in the local currency to purchase, must be ordered descending","liquidateAccount":"account to liquidate","localCurrency":"local currency to liquidate","maxfCashLiquidateAmounts":"max notional of fCash to liquidate in corresponding maturity, zero will represent no maximum"},"returns":{"_0":"an array of the notional amounts of fCash to transfer, corresponding to fCashMaturities","_1":"amount of local currency required from the liquidator"}}},"version":1},"opcodes":"PUSH1 0x80 PUSH1 0x40 MSTORE PUSH1 0x4 CALLDATASIZE LT PUSH2 0x7B JUMPI PUSH1 0x0 CALLDATALOAD PUSH1 0xE0 SHR DUP1 PUSH4 0x8DA5CB5B GT PUSH2 0x4E JUMPI DUP1 PUSH4 0x8DA5CB5B EQ PUSH2 0x101 JUMPI DUP1 PUSH4 0xC4C96DAE EQ PUSH2 0x116 JUMPI DUP1 PUSH4 0xE816469D EQ PUSH2 0x139 JUMPI DUP1 PUSH4 0xFA37E395 EQ PUSH2 0x14C JUMPI PUSH2 0x7B JUMP JUMPDEST DUP1 PUSH4 0xFB281D9 EQ PUSH2 0x80 JUMPI DUP1 PUSH4 0x24A3D622 EQ PUSH2 0xB7 JUMPI DUP1 PUSH4 0x7FDEBBF4 EQ PUSH2 0xD9 JUMPI DUP1 PUSH4 0x82463367 EQ PUSH2 0xEC JUMPI JUMPDEST PUSH1 0x0 DUP1 REVERT JUMPDEST CALLVALUE DUP1 ISZERO PUSH2 0x8C JUMPI PUSH1 0x0 DUP1 REVERT JUMPDEST POP PUSH2 0xA0 PUSH2 0x9B CALLDATASIZE PUSH1 0x4 PUSH2 0x4DB4 JUMP JUMPDEST PUSH2 0x16C JUMP JUMPDEST PUSH1 0x40 MLOAD PUSH2 0xAE SWAP3 SWAP2 SWAP1 PUSH2 0x5247 JUMP JUMPDEST PUSH1 0x40 MLOAD DUP1 SWAP2 SUB SWAP1 RETURN JUMPDEST CALLVALUE DUP1 ISZERO PUSH2 0xC3 JUMPI PUSH1 0x0 DUP1 REVERT JUMPDEST POP PUSH2 0xCC PUSH2 0x1B8 JUMP JUMPDEST PUSH1 0x40 MLOAD PUSH2 0xAE SWAP2 SWAP1 PUSH2 0x50F4 JUMP JUMPDEST PUSH2 0xA0 PUSH2 0xE7 CALLDATASIZE PUSH1 0x4 PUSH2 0x4DB4 JUMP JUMPDEST PUSH2 0x1C7 JUMP JUMPDEST CALLVALUE DUP1 ISZERO PUSH2 0xF8 JUMPI PUSH1 0x0 DUP1 REVERT JUMPDEST POP PUSH2 0xCC PUSH2 0x22F JUMP JUMPDEST CALLVALUE DUP1 ISZERO PUSH2 0x10D JUMPI PUSH1 0x0 DUP1 REVERT JUMPDEST POP PUSH2 0xCC PUSH2 0x23E JUMP JUMPDEST CALLVALUE DUP1 ISZERO PUSH2 0x122 JUMPI PUSH1 0x0 DUP1 REVERT JUMPDEST POP PUSH2 0x12B PUSH2 0x255 JUMP JUMPDEST PUSH1 0x40 MLOAD PUSH2 0xAE SWAP3 SWAP2 SWAP1 PUSH2 0x5108 JUMP JUMPDEST PUSH2 0xA0 PUSH2 0x147 CALLDATASIZE PUSH1 0x4 PUSH2 0x4E45 JUMP JUMPDEST PUSH2 0x283 JUMP JUMPDEST CALLVALUE DUP1 ISZERO PUSH2 0x158 JUMPI PUSH1 0x0 DUP1 REVERT JUMPDEST POP PUSH2 0xA0 PUSH2 0x167 CALLDATASIZE PUSH1 0x4 PUSH2 0x4E45 JUMP JUMPDEST PUSH2 0x2ED JUMP JUMPDEST PUSH1 0x60 PUSH1 0x0 PUSH1 0x2 PUSH1 0xA SLOAD EQ ISZERO PUSH2 0x180 JUMPI PUSH1 0x0 DUP1 REVERT JUMPDEST PUSH1 0x2 PUSH1 0xA SSTORE TIMESTAMP PUSH1 0x0 PUSH2 0x197 DUP11 DUP11 DUP11 DUP11 DUP11 DUP11 DUP9 PUSH2 0x33B JUMP JUMPDEST PUSH1 0xE0 DUP2 ADD MLOAD PUSH1 0xA0 SWAP1 SWAP2 ADD MLOAD PUSH1 0x1 PUSH1 0xA SSTORE SWAP1 SWAP12 SWAP1 SWAP11 POP SWAP9 POP POP POP POP POP POP POP POP POP JUMP JUMPDEST PUSH1 0x2 SLOAD PUSH1 0x1 PUSH1 0x1 PUSH1 0xA0 SHL SUB AND DUP2 JUMP JUMPDEST PUSH1 0x60 PUSH1 0x0 PUSH1 0x2 PUSH1 0xA SLOAD EQ ISZERO PUSH2 0x1DB JUMPI PUSH1 0x0 DUP1 REVERT JUMPDEST PUSH1 0x2 PUSH1 0xA SSTORE DUP5 PUSH2 0x1EA JUMPI PUSH1 0x0 DUP1 REVERT JUMPDEST TIMESTAMP PUSH1 0x0 PUSH2 0x1FC DUP11 DUP11 DUP11 DUP11 DUP11 DUP11 DUP9 PUSH2 0x33B JUMP JUMPDEST SWAP1 POP PUSH2 0x20D DUP11 CALLER DUP12 DUP13 DUP13 DUP13 DUP8 PUSH2 0x40D JUMP JUMPDEST POP POP PUSH1 0xE0 DUP2 ADD MLOAD PUSH1 0xA0 SWAP1 SWAP2 ADD MLOAD PUSH1 0x1 PUSH1 0xA SSTORE SWAP1 SWAP11 SWAP1 SWAP10 POP SWAP8 POP POP POP POP POP POP POP POP JUMP JUMPDEST PUSH1 0x1 SLOAD PUSH1 0x1 PUSH1 0x1 PUSH1 0xA0 SHL SUB AND DUP2 JUMP JUMPDEST PUSH1 0x0 SLOAD PUSH5 0x100000000 SWAP1 DIV PUSH1 0x1 PUSH1 0x1 PUSH1 0xA0 SHL SUB AND DUP2 JUMP JUMPDEST PUSH20 0x0 PUSH20 0x0 SWAP1 SWAP2 JUMP JUMPDEST PUSH1 0x60 PUSH1 0x0 PUSH1 0x2 PUSH1 0xA SLOAD EQ ISZERO PUSH2 0x297 JUMPI PUSH1 0x0 DUP1 REVERT JUMPDEST PUSH1 0x2 PUSH1 0xA SSTORE DUP5 PUSH2 0x2A6 JUMPI PUSH1 0x0 DUP1 REVERT JUMPDEST TIMESTAMP PUSH1 0x0 PUSH2 0x2B9 DUP12 DUP12 DUP12 DUP12 DUP12 DUP12 DUP12 DUP10 PUSH2 0x621 JUMP JUMPDEST SWAP1 POP PUSH2 0x2CA DUP12 CALLER DUP13 DUP13 DUP13 DUP13 DUP8 PUSH2 0x40D JUMP JUMPDEST POP POP PUSH1 0xE0 DUP2 ADD MLOAD PUSH1 0xA0 SWAP1 SWAP2 ADD MLOAD PUSH1 0x1 PUSH1 0xA SSTORE SWAP1 SWAP12 SWAP1 SWAP11 POP SWAP9 POP POP POP POP POP POP POP POP POP JUMP JUMPDEST PUSH1 0x60 PUSH1 0x0 PUSH1 0x2 PUSH1 0xA SLOAD EQ ISZERO PUSH2 0x301 JUMPI PUSH1 0x0 DUP1 REVERT JUMPDEST PUSH1 0x2 PUSH1 0xA SSTORE TIMESTAMP PUSH1 0x0 PUSH2 0x319 DUP12 DUP12 DUP12 DUP12 DUP12 DUP12 DUP12 DUP10 PUSH2 0x621 JUMP JUMPDEST PUSH1 0xE0 DUP2 ADD MLOAD PUSH1 0xA0 SWAP1 SWAP2 ADD MLOAD PUSH1 0x1 PUSH1 0xA SSTORE SWAP1 SWAP13 SWAP1 SWAP12 POP SWAP10 POP POP POP POP POP POP POP POP POP POP JUMP JUMPDEST PUSH2 0x343 PUSH2 0x4757 JUMP JUMPDEST DUP5 DUP4 EQ PUSH2 0x34F JUMPI PUSH1 0x0 DUP1 REVERT JUMPDEST PUSH2 0x357 PUSH2 0x4757 JUMP JUMPDEST PUSH2 0x363 DUP10 DUP10 PUSH1 0x0 PUSH2 0x6BB JUMP JUMPDEST PUSH1 0x40 DUP5 ADD MSTORE PUSH1 0x20 DUP4 ADD DUP2 SWAP1 MSTORE SWAP1 DUP3 MSTORE PUSH2 0x100 ADD MLOAD PUSH1 0x0 SWAP1 PUSH2 0x387 SWAP1 DUP12 SWAP1 DUP12 SWAP1 PUSH2 0x817 JUMP JUMPDEST POP POP POP PUSH1 0x20 DUP4 ADD MLOAD PUSH2 0x100 ADD MLOAD SWAP1 SWAP2 POP PUSH2 0x3A1 SWAP1 DUP3 PUSH2 0x8D1 JUMP JUMPDEST PUSH1 0x60 DUP4 ADD MSTORE DUP7 PUSH1 0x1 PUSH1 0x1 PUSH1 0x40 SHL SUB DUP2 GT DUP1 ISZERO PUSH2 0x3BC JUMPI PUSH1 0x0 DUP1 REVERT JUMPDEST POP PUSH1 0x40 MLOAD SWAP1 DUP1 DUP3 MSTORE DUP1 PUSH1 0x20 MUL PUSH1 0x20 ADD DUP3 ADD PUSH1 0x40 MSTORE DUP1 ISZERO PUSH2 0x3E6 JUMPI DUP2 PUSH1 0x20 ADD PUSH1 0x20 DUP3 MUL DUP1 CALLDATASIZE DUP4 CALLDATACOPY ADD SWAP1 POP JUMPDEST POP PUSH1 0xE0 DUP4 ADD MSTORE PUSH2 0x400 DUP11 PUSH2 0xFFFF DUP12 AND DUP11 DUP11 DUP11 DUP11 DUP9 DUP12 PUSH2 0x92A JUMP JUMPDEST POP SWAP9 SWAP8 POP POP POP POP POP POP POP POP JUMP JUMPDEST PUSH1 0x60 PUSH1 0x0 DUP1 PUSH2 0x41F DUP9 PUSH2 0xFFFF AND PUSH2 0xC3D JUMP JUMPDEST SWAP1 POP PUSH1 0x0 PUSH2 0x42C DUP11 PUSH2 0xC58 JUMP JUMPDEST PUSH1 0xA0 DUP7 ADD MLOAD SWAP1 SWAP2 POP PUSH1 0x0 PUSH2 0x43F DUP12 PUSH2 0xD06 JUMP JUMPDEST SWAP1 POP DUP4 PUSH1 0x20 ADD MLOAD DUP1 ISZERO PUSH2 0x452 JUMPI POP PUSH1 0x0 DUP3 SGT JUMPDEST ISZERO PUSH2 0x4A6 JUMPI PUSH1 0x20 DUP4 ADD MLOAD PUSH1 0x1 PUSH1 0x1 PUSH1 0xF8 SHL SUB NOT AND ISZERO PUSH2 0x48C JUMPI PUSH1 0x40 MLOAD PUSH3 0x461BCD PUSH1 0xE5 SHL DUP2 MSTORE PUSH1 0x4 ADD PUSH2 0x483 SWAP1 PUSH2 0x52E5 JUMP JUMPDEST PUSH1 0x40 MLOAD DUP1 SWAP2 SUB SWAP1 REVERT JUMPDEST PUSH2 0x4A1 DUP13 DUP5 DUP14 PUSH2 0x49B DUP7 PUSH2 0xD18 JUMP JUMPDEST DUP6 PUSH2 0xD26 JUMP JUMPDEST PUSH2 0x4D2 JUMP JUMPDEST PUSH1 0x0 DUP3 SGT ISZERO PUSH2 0x4C3 JUMPI PUSH2 0x4BD DUP13 DUP13 DUP5 DUP5 PUSH1 0x0 PUSH2 0xDD2 JUMP JUMPDEST POP PUSH2 0x4D2 JUMP JUMPDEST PUSH2 0x4D2 DUP13 DUP5 DUP14 PUSH2 0x49B DUP7 PUSH2 0xD18 JUMP JUMPDEST PUSH2 0x4DE DUP13 DUP15 DUP14 DUP6 PUSH2 0xE49 JUMP JUMPDEST PUSH2 0x4EF DUP14 DUP9 PUSH1 0x0 ADD MLOAD DUP14 DUP6 DUP6 PUSH2 0xD26 JUMP JUMPDEST PUSH1 0x0 PUSH2 0x500 DUP15 DUP15 DUP7 DUP15 DUP15 DUP15 DUP15 PUSH2 0xEEF JUMP JUMPDEST DUP1 SWAP6 POP DUP2 SWAP3 POP POP POP DUP13 PUSH1 0x1 PUSH1 0x1 PUSH1 0xA0 SHL SUB AND DUP15 PUSH1 0x1 PUSH1 0x1 PUSH1 0xA0 SHL SUB AND PUSH32 0x1F20E4CCBA6C78861EE4C638FECD0B6A53B1232ADB96CA3A0065B9BB12D6214D DUP15 DUP15 DUP13 PUSH1 0xA0 ADD MLOAD DUP16 DUP16 DUP16 PUSH1 0xE0 ADD MLOAD PUSH1 0x40 MLOAD PUSH2 0x55D SWAP7 SWAP6 SWAP5 SWAP4 SWAP3 SWAP2 SWAP1 PUSH2 0x5329 JUMP JUMPDEST PUSH1 0x40 MLOAD DUP1 SWAP2 SUB SWAP1 LOG3 PUSH2 0x56F DUP5 DUP15 PUSH2 0xFB4 JUMP JUMPDEST DUP8 MLOAD PUSH2 0x57B SWAP1 DUP16 PUSH2 0xFB4 JUMP JUMPDEST DUP1 DUP1 ISZERO PUSH2 0x595 JUMPI POP PUSH1 0x20 DUP5 ADD MLOAD PUSH1 0x1 PUSH1 0x1 PUSH1 0xF8 SHL SUB NOT AND ISZERO ISZERO JUMPDEST ISZERO PUSH2 0x602 JUMPI PUSH20 0x0 PUSH4 0x6CCC642F DUP15 PUSH1 0x40 MLOAD DUP3 PUSH4 0xFFFFFFFF AND PUSH1 0xE0 SHL DUP2 MSTORE PUSH1 0x4 ADD PUSH2 0x5D1 SWAP2 SWAP1 PUSH2 0x50F4 JUMP JUMPDEST PUSH1 0x0 PUSH1 0x40 MLOAD DUP1 DUP4 SUB DUP2 DUP7 DUP1 EXTCODESIZE ISZERO DUP1 ISZERO PUSH2 0x5E9 JUMPI PUSH1 0x0 DUP1 REVERT JUMPDEST POP GAS DELEGATECALL ISZERO DUP1 ISZERO PUSH2 0x5FD JUMPI RETURNDATASIZE PUSH1 0x0 DUP1 RETURNDATACOPY RETURNDATASIZE PUSH1 0x0 REVERT JUMPDEST POP POP POP POP JUMPDEST DUP8 PUSH1 0xE0 ADD MLOAD DUP9 PUSH1 0xA0 ADD MLOAD SWAP7 POP SWAP7 POP POP POP POP POP POP SWAP8 POP SWAP8 SWAP6 POP POP POP POP POP POP JUMP JUMPDEST PUSH2 0x629 PUSH2 0x4757 JUMP JUMPDEST DUP5 DUP4 EQ PUSH2 0x635 JUMPI PUSH1 0x0 DUP1 REVERT JUMPDEST PUSH2 0x63D PUSH2 0x4757 JUMP JUMPDEST PUSH2 0x648 DUP11 DUP11 DUP11 PUSH2 0x6BB JUMP JUMPDEST PUSH1 0x40 DUP5 ADD MSTORE PUSH1 0x20 DUP4 ADD MSTORE DUP2 MSTORE DUP6 PUSH1 0x1 PUSH1 0x1 PUSH1 0x40 SHL SUB DUP2 GT DUP1 ISZERO PUSH2 0x66A JUMPI PUSH1 0x0 DUP1 REVERT JUMPDEST POP PUSH1 0x40 MLOAD SWAP1 DUP1 DUP3 MSTORE DUP1 PUSH1 0x20 MUL PUSH1 0x20 ADD DUP3 ADD PUSH1 0x40 MSTORE DUP1 ISZERO PUSH2 0x694 JUMPI DUP2 PUSH1 0x20 ADD PUSH1 0x20 DUP3 MUL DUP1 CALLDATASIZE DUP4 CALLDATACOPY ADD SWAP1 POP JUMPDEST POP PUSH1 0xE0 DUP3 ADD MSTORE PUSH2 0x6AE DUP11 PUSH2 0xFFFF DUP11 AND DUP10 DUP10 DUP10 DUP10 DUP8 DUP11 PUSH2 0x10D1 JUMP JUMPDEST SWAP10 SWAP9 POP POP POP POP POP POP POP POP POP JUMP JUMPDEST PUSH2 0x6C3 PUSH2 0x47AE JUMP JUMPDEST PUSH2 0x6CB PUSH2 0x47E3 JUMP JUMPDEST PUSH2 0x6D3 PUSH2 0x4868 JUMP JUMPDEST CALLER PUSH1 0x1 PUSH1 0x1 PUSH1 0xA0 SHL SUB DUP8 AND EQ ISZERO PUSH2 0x6E9 JUMPI PUSH1 0x0 DUP1 REVERT JUMPDEST PUSH2 0xFFFF DUP6 AND PUSH2 0x6F7 JUMPI PUSH1 0x0 DUP1 REVERT JUMPDEST DUP5 PUSH2 0xFFFF AND DUP5 PUSH2 0xFFFF AND EQ ISZERO PUSH2 0x70C JUMPI PUSH1 0x0 DUP1 REVERT JUMPDEST PUSH1 0x0 DUP1 PUSH1 0x0 PUSH20 0x0 PUSH4 0x451D958F DUP11 DUP11 DUP11 PUSH1 0x40 MLOAD DUP5 PUSH4 0xFFFFFFFF AND PUSH1 0xE0 SHL DUP2 MSTORE PUSH1 0x4 ADD PUSH2 0x74C SWAP4 SWAP3 SWAP2 SWAP1 PUSH2 0x5222 JUMP JUMPDEST PUSH1 0x0 PUSH1 0x40 MLOAD DUP1 DUP4 SUB DUP2 DUP7 DUP1 EXTCODESIZE ISZERO DUP1 ISZERO PUSH2 0x764 JUMPI PUSH1 0x0 DUP1 REVERT JUMPDEST POP GAS DELEGATECALL ISZERO DUP1 ISZERO PUSH2 0x778 JUMPI RETURNDATASIZE PUSH1 0x0 DUP1 RETURNDATACOPY RETURNDATASIZE PUSH1 0x0 REVERT JUMPDEST POP POP POP POP PUSH1 0x40 MLOAD RETURNDATASIZE PUSH1 0x0 DUP3 RETURNDATACOPY PUSH1 0x1F RETURNDATASIZE SWAP1 DUP2 ADD PUSH1 0x1F NOT AND DUP3 ADD PUSH1 0x40 MSTORE PUSH2 0x7A0 SWAP2 SWAP1 DUP2 ADD SWAP1 PUSH2 0x4F1E JUMP JUMPDEST SWAP2 SWAP5 POP SWAP3 POP SWAP1 POP PUSH2 0x7B1 DUP4 DUP11 PUSH2 0xFB4 JUMP JUMPDEST PUSH1 0x40 DUP1 MLOAD PUSH1 0x80 DUP2 ADD DUP3 MSTORE DUP3 DUP2 MSTORE DUP2 MLOAD PUSH1 0x0 DUP1 DUP3 MSTORE PUSH1 0x20 DUP3 DUP2 ADD SWAP1 SWAP5 MSTORE SWAP3 DUP3 ADD SWAP1 DUP4 PUSH2 0x7F2 JUMP JUMPDEST PUSH2 0x7DF PUSH2 0x4890 JUMP JUMPDEST DUP2 MSTORE PUSH1 0x20 ADD SWAP1 PUSH1 0x1 SWAP1 SUB SWAP1 DUP2 PUSH2 0x7D7 JUMPI SWAP1 POP JUMPDEST POP DUP2 MSTORE PUSH1 0x0 PUSH1 0x20 DUP3 ADD MSTORE SWAP3 MLOAD PUSH1 0x40 SWAP1 SWAP4 ADD SWAP3 SWAP1 SWAP3 MSTORE POP SWAP2 SWAP9 SWAP1 SWAP8 POP SWAP1 SWAP6 POP SWAP4 POP POP POP POP JUMP JUMPDEST PUSH1 0x0 DUP1 PUSH1 0x0 DUP1 PUSH1 0x0 PUSH2 0x827 PUSH2 0x122B JUMP JUMPDEST PUSH1 0x1 PUSH1 0x1 PUSH1 0xA0 SHL SUB DUP10 AND PUSH1 0x0 SWAP1 DUP2 MSTORE PUSH1 0x20 DUP3 DUP2 MSTORE PUSH1 0x40 DUP1 DUP4 KECCAK256 PUSH2 0xFFFF DUP13 AND DUP5 MSTORE SWAP1 SWAP2 MSTORE SWAP1 KECCAK256 DUP1 SLOAD PUSH1 0x1 PUSH1 0x1 PUSH1 0x50 SHL SUB DUP2 AND SWAP7 POP PUSH1 0x1 PUSH1 0x50 SHL SWAP1 DIV PUSH4 0xFFFFFFFF AND SWAP5 POP SWAP1 SWAP2 POP DUP4 ISZERO PUSH2 0x894 JUMPI DUP1 SLOAD PUSH2 0x88D SWAP1 PUSH1 0x1 PUSH1 0x70 SHL SWAP1 DIV PUSH7 0xFFFFFFFFFFFFFF AND PUSH2 0x1238 JUMP JUMPDEST SWAP3 POP PUSH2 0x8A9 JUMP JUMPDEST DUP1 SLOAD PUSH1 0x1 PUSH1 0x70 SHL SWAP1 DIV PUSH7 0xFFFFFFFFFFFFFF AND SWAP3 POP JUMPDEST DUP1 SLOAD PUSH2 0x8C4 SWAP1 DUP9 SWAP1 PUSH1 0x1 PUSH1 0xA8 SHL SWAP1 DIV PUSH1 0xA SWAP1 DUP2 SIGNEXTEND SWAP1 SIGNEXTEND PUSH2 0x1246 JUMP JUMPDEST SWAP6 POP POP POP SWAP4 POP SWAP4 POP SWAP4 POP SWAP4 JUMP JUMPDEST PUSH1 0x0 DUP1 PUSH2 0x904 PUSH15 0xC097CE7BC90715B34B9F1000000000 PUSH2 0x8FE DUP7 PUSH1 0x0 ADD MLOAD DUP7 PUSH2 0x1274 SWAP1 SWAP2 SWAP1 PUSH4 0xFFFFFFFF AND JUMP JUMPDEST SWAP1 PUSH2 0x12C2 JUMP JUMPDEST SWAP1 POP PUSH1 0x0 DUP4 SLT PUSH2 0x914 JUMPI DUP1 PUSH2 0x920 JUMP JUMPDEST PUSH2 0x920 DUP2 PUSH1 0x0 NOT PUSH2 0x12F3 JUMP JUMPDEST SWAP2 POP POP JUMPDEST SWAP3 SWAP2 POP POP JUMP JUMPDEST PUSH1 0x20 DUP3 ADD MLOAD PUSH1 0x40 ADD MLOAD PUSH2 0x93C JUMPI PUSH1 0x0 DUP1 REVERT JUMPDEST PUSH2 0x95F DUP3 PUSH1 0x20 ADD MLOAD PUSH1 0x40 ADD MLOAD DUP4 PUSH1 0x20 ADD MLOAD PUSH1 0x20 ADD MLOAD DUP5 PUSH1 0x20 ADD MLOAD PUSH1 0xC0 ADD MLOAD PUSH2 0x130B JUMP JUMPDEST PUSH1 0x80 DUP4 ADD MSTORE PUSH1 0x0 JUMPDEST DUP6 DUP2 LT ISZERO PUSH2 0xC12 JUMPI DUP1 ISZERO PUSH2 0x9A8 JUMPI DUP7 DUP7 DUP3 DUP2 DUP2 LT PUSH2 0x981 JUMPI INVALID JUMPDEST SWAP1 POP PUSH1 0x20 MUL ADD CALLDATALOAD DUP8 DUP8 PUSH1 0x1 DUP5 SUB DUP2 DUP2 LT PUSH2 0x997 JUMPI INVALID JUMPDEST SWAP1 POP PUSH1 0x20 MUL ADD CALLDATALOAD GT PUSH2 0x9A8 JUMPI PUSH1 0x0 DUP1 REVERT JUMPDEST PUSH1 0x0 PUSH2 0x9C8 DUP11 DUP6 DUP12 DUP12 DUP12 DUP8 DUP2 DUP2 LT PUSH2 0x9BC JUMPI INVALID JUMPDEST SWAP1 POP PUSH1 0x20 MUL ADD CALLDATALOAD PUSH2 0x1357 JUMP JUMPDEST SWAP1 POP PUSH1 0x0 DUP2 SLT ISZERO PUSH2 0x9E5 JUMPI PUSH1 0x0 DUP5 PUSH1 0x60 ADD MLOAD SLT ISZERO PUSH2 0x9E5 JUMPI PUSH1 0x0 DUP1 REVERT JUMPDEST DUP1 PUSH2 0x9F0 JUMPI POP PUSH2 0xC0A JUMP JUMPDEST PUSH1 0x0 DUP1 PUSH2 0xA18 DUP7 PUSH1 0x20 ADD MLOAD DUP12 DUP12 DUP8 DUP2 DUP2 LT PUSH2 0xA07 JUMPI INVALID JUMPDEST SWAP1 POP PUSH1 0x20 MUL ADD CALLDATALOAD DUP8 PUSH1 0x0 DUP8 SGT PUSH2 0x13FB JUMP JUMPDEST SWAP1 SWAP3 POP SWAP1 POP PUSH2 0xA3D PUSH2 0xA32 PUSH2 0xA2D DUP4 DUP6 PUSH2 0x14C1 JUMP JUMPDEST PUSH2 0x14D7 JUMP JUMPDEST PUSH1 0x80 DUP9 ADD MLOAD SWAP1 PUSH2 0x14F8 JUMP JUMPDEST DUP7 PUSH1 0xE0 ADD MLOAD DUP6 DUP2 MLOAD DUP2 LT PUSH2 0xA4D JUMPI INVALID JUMPDEST PUSH1 0x20 MUL PUSH1 0x20 ADD ADD DUP2 DUP2 MSTORE POP POP PUSH2 0xA9D DUP7 PUSH1 0xE0 ADD MLOAD DUP6 DUP2 MLOAD DUP2 LT PUSH2 0xA6C JUMPI INVALID JUMPDEST PUSH1 0x20 MUL PUSH1 0x20 ADD ADD MLOAD PUSH2 0xA7D DUP6 PUSH2 0x14D7 JUMP JUMPDEST PUSH2 0xA98 DUP12 DUP12 DUP10 DUP2 DUP2 LT PUSH2 0xA8C JUMPI INVALID JUMPDEST SWAP1 POP PUSH1 0x20 MUL ADD CALLDATALOAD PUSH2 0x1511 JUMP JUMPDEST PUSH2 0x152B JUMP JUMPDEST DUP7 PUSH1 0xE0 ADD MLOAD DUP6 DUP2 MLOAD DUP2 LT PUSH2 0xAAD JUMPI INVALID JUMPDEST PUSH1 0x20 MUL PUSH1 0x20 ADD ADD DUP2 DUP2 MSTORE POP POP PUSH1 0x0 PUSH2 0xAE5 DUP3 DUP9 PUSH1 0xE0 ADD MLOAD DUP8 DUP2 MLOAD DUP2 LT PUSH2 0xACF JUMPI INVALID JUMPDEST PUSH1 0x20 MUL PUSH1 0x20 ADD ADD MLOAD PUSH2 0x1575 SWAP1 SWAP2 SWAP1 PUSH4 0xFFFFFFFF AND JUMP JUMPDEST SWAP1 POP PUSH1 0x0 DUP5 SLT ISZERO PUSH2 0xB98 JUMPI DUP7 PUSH1 0x60 ADD MLOAD DUP2 SGT ISZERO PUSH2 0xB50 JUMPI PUSH2 0xB2E DUP2 PUSH2 0x8FE DUP10 PUSH1 0x60 ADD MLOAD DUP11 PUSH1 0xE0 ADD MLOAD DUP10 DUP2 MLOAD DUP2 LT PUSH2 0xB18 JUMPI INVALID JUMPDEST PUSH1 0x20 MUL PUSH1 0x20 ADD ADD MLOAD PUSH2 0x1274 SWAP1 SWAP2 SWAP1 PUSH4 0xFFFFFFFF AND JUMP JUMPDEST DUP8 PUSH1 0xE0 ADD MLOAD DUP7 DUP2 MLOAD DUP2 LT PUSH2 0xB3E JUMPI INVALID JUMPDEST PUSH1 0x20 SWAP1 DUP2 MUL SWAP2 SWAP1 SWAP2 ADD ADD MSTORE POP PUSH1 0x60 DUP7 ADD MLOAD JUMPDEST PUSH2 0xB70 DUP8 PUSH1 0xE0 ADD MLOAD DUP7 DUP2 MLOAD DUP2 LT PUSH2 0xB63 JUMPI INVALID JUMPDEST PUSH1 0x20 MUL PUSH1 0x20 ADD ADD MLOAD PUSH2 0xD18 JUMP JUMPDEST DUP8 PUSH1 0xE0 ADD MLOAD DUP7 DUP2 MLOAD DUP2 LT PUSH2 0xB80 JUMPI INVALID JUMPDEST PUSH1 0x20 MUL PUSH1 0x20 ADD ADD DUP2 DUP2 MSTORE POP POP PUSH2 0xB95 DUP2 PUSH2 0xD18 JUMP JUMPDEST SWAP1 POP JUMPDEST PUSH1 0xA0 DUP8 ADD MLOAD PUSH2 0xBA7 SWAP1 DUP3 PUSH2 0x158E JUMP JUMPDEST PUSH1 0xA0 DUP9 ADD MSTORE PUSH1 0x60 DUP8 ADD MLOAD PUSH2 0xBBB SWAP1 DUP3 PUSH2 0x158E JUMP JUMPDEST PUSH1 0x60 DUP9 ADD MSTORE PUSH2 0xBEE PUSH2 0xBE3 PUSH2 0xA2D PUSH2 0xBD3 DUP6 DUP8 PUSH2 0x14C1 JUMP JUMPDEST DUP11 PUSH1 0xE0 ADD MLOAD DUP10 DUP2 MLOAD DUP2 LT PUSH2 0xACF JUMPI INVALID JUMPDEST PUSH1 0x80 DUP10 ADD MLOAD SWAP1 PUSH2 0x14C1 JUMP JUMPDEST PUSH1 0x80 DUP9 ADD DUP2 SWAP1 MSTORE PUSH1 0x0 SLT PUSH2 0xC05 JUMPI POP POP POP POP PUSH2 0xC12 JUMP JUMPDEST POP POP POP POP JUMPDEST PUSH1 0x1 ADD PUSH2 0x967 JUMP JUMPDEST POP PUSH1 0xA0 DUP3 ADD MLOAD PUSH1 0x20 DUP4 ADD MLOAD PUSH2 0x100 ADD MLOAD PUSH2 0xC2B SWAP2 PUSH2 0x15A4 JUMP JUMPDEST PUSH1 0xA0 SWAP1 SWAP3 ADD SWAP2 SWAP1 SWAP2 MSTORE POP POP POP POP POP POP POP JUMP JUMPDEST PUSH2 0xC45 PUSH2 0x48D4 JUMP JUMPDEST PUSH2 0xC50 DUP3 PUSH1 0x1 PUSH2 0x15C8 JUMP JUMPDEST SWAP1 POP JUMPDEST SWAP2 SWAP1 POP JUMP JUMPDEST PUSH2 0xC60 PUSH2 0x47AE JUMP JUMPDEST PUSH1 0x0 PUSH2 0xC6A PUSH2 0x1662 JUMP JUMPDEST PUSH1 0x1 PUSH1 0x1 PUSH1 0xA0 SHL SUB DUP5 AND PUSH1 0x0 SWAP1 DUP2 MSTORE PUSH1 0x20 SWAP2 DUP3 MSTORE PUSH1 0x40 SWAP1 DUP2 SWAP1 KECCAK256 DUP2 MLOAD PUSH1 0xC0 DUP2 ADD DUP4 MSTORE SWAP1 SLOAD PUSH5 0xFFFFFFFFFF DUP2 AND DUP3 MSTORE PUSH1 0x1 PUSH1 0x1 PUSH1 0xF8 SHL SUB NOT PUSH1 0x1 PUSH1 0x28 SHL DUP3 DIV PUSH1 0xF8 SHL AND SWAP4 DUP3 ADD SWAP4 SWAP1 SWAP4 MSTORE PUSH1 0xFF PUSH1 0x1 PUSH1 0x30 SHL DUP5 DIV DUP2 AND SWAP3 DUP3 ADD SWAP3 SWAP1 SWAP3 MSTORE PUSH2 0xFFFF PUSH1 0x1 PUSH1 0x38 SHL DUP5 DIV AND PUSH1 0x60 DUP3 ADD MSTORE PUSH1 0x1 PUSH1 0x1 PUSH1 0x70 SHL SUB NOT PUSH1 0x1 PUSH1 0x48 SHL DUP5 DIV PUSH1 0x70 SHL AND PUSH1 0x80 DUP3 ADD MSTORE PUSH1 0x1 PUSH1 0xD8 SHL SWAP1 SWAP3 DIV AND ISZERO ISZERO PUSH1 0xA0 DUP3 ADD MSTORE SWAP2 POP POP SWAP2 SWAP1 POP JUMP JUMPDEST PUSH2 0xD0E PUSH2 0x4903 JUMP JUMPDEST PUSH2 0xC50 DUP3 TIMESTAMP PUSH2 0x166F JUMP JUMPDEST PUSH1 0x0 PUSH2 0xC50 PUSH1 0x0 NOT DUP4 PUSH2 0x1274 JUMP JUMPDEST PUSH1 0x0 DUP1 PUSH1 0x0 DUP1 PUSH2 0xD37 DUP10 DUP9 DUP8 PUSH2 0x817 JUMP JUMPDEST SWAP3 SWAP7 POP SWAP1 SWAP5 POP SWAP3 POP SWAP1 POP PUSH1 0x0 PUSH2 0xD4D DUP6 DUP9 PUSH2 0x158E JUMP JUMPDEST SWAP1 POP PUSH1 0x0 DUP2 SLT ISZERO PUSH2 0xD91 JUMPI PUSH1 0x0 DUP8 SGT PUSH2 0xD78 JUMPI PUSH1 0x40 MLOAD PUSH3 0x461BCD PUSH1 0xE5 SHL DUP2 MSTORE PUSH1 0x4 ADD PUSH2 0x483 SWAP1 PUSH2 0x5307 JUMP JUMPDEST PUSH1 0x20 DUP10 ADD DUP1 MLOAD PUSH1 0x1 PUSH1 0xF9 SHL OR PUSH1 0x1 PUSH1 0x1 PUSH1 0xF8 SHL SUB NOT AND SWAP1 MSTORE JUMPDEST PUSH1 0x0 DUP2 ISZERO ISZERO DUP1 PUSH2 0xDA0 JUMPI POP DUP5 ISZERO ISZERO JUMPDEST SWAP1 POP PUSH2 0xDB6 DUP11 PUSH2 0xFFFF DUP12 AND DUP4 PUSH1 0x1 PUSH1 0xFE SHL PUSH2 0x1735 JUMP JUMPDEST PUSH2 0xDC5 DUP12 DUP11 DUP5 DUP9 DUP9 DUP9 DUP14 PUSH2 0x1945 JUMP JUMPDEST POP POP POP POP POP POP POP POP POP POP POP JUMP JUMPDEST PUSH1 0x0 DUP4 PUSH2 0xDE1 JUMPI POP PUSH1 0x0 PUSH2 0xE40 JUMP JUMPDEST PUSH1 0x0 DUP5 SGT PUSH2 0xDEE JUMPI PUSH1 0x0 DUP1 REVERT JUMPDEST PUSH1 0x0 PUSH2 0xDFD DUP7 PUSH2 0xFFFF AND PUSH2 0xC3D JUMP JUMPDEST SWAP1 POP PUSH1 0x0 PUSH2 0xE14 DUP3 PUSH2 0xE0F DUP8 DUP10 PUSH2 0x8D1 JUMP JUMPDEST PUSH2 0x1A80 JUMP JUMPDEST SWAP1 POP PUSH1 0x0 PUSH2 0xE25 DUP10 DUP10 DUP5 DUP10 DUP10 PUSH2 0x1ABB JUMP JUMPDEST SWAP1 SWAP5 POP SWAP1 POP DUP7 DUP2 SUB PUSH1 0x0 DUP2 SLT ISZERO PUSH2 0xE3B JUMPI PUSH1 0x0 DUP1 REVERT JUMPDEST POP POP POP POP JUMPDEST SWAP6 SWAP5 POP POP POP POP POP JUMP JUMPDEST PUSH1 0x0 PUSH2 0xE53 PUSH2 0x1B78 JUMP JUMPDEST PUSH2 0xFFFF DUP5 AND PUSH1 0x0 SWAP1 DUP2 MSTORE PUSH1 0x20 SWAP2 SWAP1 SWAP2 MSTORE PUSH1 0x40 DUP2 KECCAK256 SLOAD PUSH1 0x1 PUSH1 0x1 PUSH1 0xA0 SHL SUB AND SWAP2 POP DUP3 SLT ISZERO PUSH2 0xE7E JUMPI SWAP3 SWAP4 SWAP3 JUMPDEST DUP1 PUSH1 0x1 PUSH1 0x1 PUSH1 0xA0 SHL SUB AND PUSH4 0x23DE6651 DUP7 DUP7 PUSH2 0xE98 DUP7 PUSH2 0x14D7 JUMP JUMPDEST PUSH1 0x40 MLOAD DUP5 PUSH4 0xFFFFFFFF AND PUSH1 0xE0 SHL DUP2 MSTORE PUSH1 0x4 ADD PUSH2 0xEB6 SWAP4 SWAP3 SWAP2 SWAP1 PUSH2 0x51E5 JUMP JUMPDEST PUSH1 0x0 PUSH1 0x40 MLOAD DUP1 DUP4 SUB DUP2 PUSH1 0x0 DUP8 DUP1 EXTCODESIZE ISZERO DUP1 ISZERO PUSH2 0xED0 JUMPI PUSH1 0x0 DUP1 REVERT JUMPDEST POP GAS CALL ISZERO DUP1 ISZERO PUSH2 0xEE4 JUMPI RETURNDATASIZE PUSH1 0x0 DUP1 RETURNDATACOPY RETURNDATASIZE PUSH1 0x0 REVERT JUMPDEST POP POP POP POP POP POP POP POP POP JUMP JUMPDEST PUSH1 0x0 PUSH2 0xEF9 PUSH2 0x47AE JUMP JUMPDEST PUSH1 0x0 DUP1 PUSH2 0xF0C DUP9 DUP9 DUP9 DUP9 PUSH1 0xE0 ADD MLOAD PUSH2 0x1B85 JUMP JUMPDEST DUP7 MLOAD PUSH1 0x40 MLOAD PUSH4 0xCA254153 PUSH1 0xE0 SHL DUP2 MSTORE SWAP3 SWAP5 POP SWAP1 SWAP3 POP PUSH20 0x0 SWAP2 PUSH4 0xCA254153 SWAP2 PUSH2 0xF51 SWAP2 DUP16 SWAP2 DUP16 SWAP2 DUP16 SWAP1 DUP10 SWAP1 PUSH1 0x4 ADD PUSH2 0x5122 JUMP JUMPDEST PUSH2 0x180 PUSH1 0x40 MLOAD DUP1 DUP4 SUB DUP2 DUP7 DUP1 EXTCODESIZE ISZERO DUP1 ISZERO PUSH2 0xF6A JUMPI PUSH1 0x0 DUP1 REVERT JUMPDEST POP GAS DELEGATECALL ISZERO DUP1 ISZERO PUSH2 0xF7E JUMPI RETURNDATASIZE PUSH1 0x0 DUP1 RETURNDATACOPY RETURNDATASIZE PUSH1 0x0 REVERT JUMPDEST POP POP POP POP PUSH1 0x40 MLOAD RETURNDATASIZE PUSH1 0x1F NOT PUSH1 0x1F DUP3 ADD AND DUP3 ADD DUP1 PUSH1 0x40 MSTORE POP DUP2 ADD SWAP1 PUSH2 0xFA2 SWAP2 SWAP1 PUSH2 0x4EE9 JUMP JUMPDEST SWAP6 MSTORE SWAP11 SWAP4 SWAP10 POP SWAP3 SWAP8 POP POP POP POP POP POP POP POP JUMP JUMPDEST PUSH1 0x0 PUSH2 0xFBE PUSH2 0x1662 JUMP JUMPDEST PUSH1 0x1 PUSH1 0x1 PUSH1 0xA0 SHL SUB DUP4 AND PUSH1 0x0 DUP2 DUP2 MSTORE PUSH1 0x20 DUP4 DUP2 MSTORE PUSH1 0x40 DUP1 DUP4 KECCAK256 DUP9 MLOAD DUP2 SLOAD SWAP4 DUP11 ADD MLOAD DUP11 DUP5 ADD MLOAD PUSH1 0x60 DUP13 ADD MLOAD PUSH1 0x80 DUP14 ADD MLOAD PUSH1 0xA0 DUP15 ADD MLOAD PUSH5 0xFFFFFFFFFF NOT SWAP1 SWAP9 AND PUSH5 0xFFFFFFFFFF SWAP1 SWAP6 AND SWAP5 SWAP1 SWAP5 OR PUSH6 0xFF0000000000 NOT AND PUSH1 0x1 PUSH1 0x28 SHL PUSH1 0xF8 SWAP5 SWAP1 SWAP5 SHR SWAP4 SWAP1 SWAP4 MUL SWAP3 SWAP1 SWAP3 OR PUSH7 0xFF000000000000 NOT AND PUSH1 0x1 PUSH1 0x30 SHL PUSH1 0xFF SWAP1 SWAP3 AND SWAP2 SWAP1 SWAP2 MUL OR PUSH9 0xFFFF00000000000000 NOT AND PUSH1 0x1 PUSH1 0x38 SHL PUSH2 0xFFFF SWAP1 SWAP3 AND SWAP2 SWAP1 SWAP2 MUL OR PUSH27 0xFFFFFFFFFFFFFFFFFFFFFFFFFFFFFFFFFFFF000000000000000000 NOT AND PUSH1 0x1 PUSH1 0x48 SHL PUSH1 0x70 SWAP3 SWAP1 SWAP3 SHR SWAP2 SWAP1 SWAP2 MUL OR PUSH1 0xFF PUSH1 0xD8 SHL NOT AND PUSH1 0x1 PUSH1 0xD8 SHL SWAP4 ISZERO ISZERO SWAP4 SWAP1 SWAP4 MUL SWAP3 SWAP1 SWAP3 OR SWAP1 SWAP2 SSTORE MLOAD SWAP3 SWAP4 POP SWAP1 SWAP2 PUSH32 0x6BD4B121BCA854A191536A2CA891155C42EE2FB23F307FB34E8BC65CFCB5412E SWAP2 SWAP1 LOG2 POP POP POP JUMP JUMPDEST PUSH1 0x0 DUP3 PUSH1 0x20 ADD MLOAD PUSH1 0x40 ADD MLOAD SLT PUSH2 0x10E6 JUMPI PUSH1 0x0 DUP1 REVERT JUMPDEST PUSH1 0x0 DUP3 PUSH1 0x20 ADD MLOAD PUSH1 0x60 ADD MLOAD SGT PUSH2 0x10FB JUMPI PUSH1 0x0 DUP1 REVERT JUMPDEST PUSH2 0x1108 DUP3 PUSH1 0x20 ADD MLOAD PUSH2 0x1C87 JUMP JUMPDEST PUSH1 0xC0 DUP5 ADD MSTORE PUSH1 0x80 DUP4 ADD DUP2 SWAP1 MSTORE PUSH1 0x20 DUP4 ADD MLOAD PUSH2 0x120 ADD MLOAD PUSH1 0x40 ADD MLOAD PUSH2 0x112B SWAP2 PUSH2 0x8D1 JUMP JUMPDEST PUSH1 0x80 DUP4 ADD MSTORE PUSH1 0x0 JUMPDEST DUP6 DUP2 LT ISZERO PUSH2 0xEE4 JUMPI DUP1 ISZERO PUSH2 0x1174 JUMPI DUP7 DUP7 DUP3 DUP2 DUP2 LT PUSH2 0x114D JUMPI INVALID JUMPDEST SWAP1 POP PUSH1 0x20 MUL ADD CALLDATALOAD DUP8 DUP8 PUSH1 0x1 DUP5 SUB DUP2 DUP2 LT PUSH2 0x1163 JUMPI INVALID JUMPDEST SWAP1 POP PUSH1 0x20 MUL ADD CALLDATALOAD GT PUSH2 0x1174 JUMPI PUSH1 0x0 DUP1 REVERT JUMPDEST PUSH1 0x0 PUSH2 0x1188 DUP11 DUP6 DUP12 DUP12 DUP12 DUP8 DUP2 DUP2 LT PUSH2 0x9BC JUMPI INVALID JUMPDEST SWAP1 POP DUP1 PUSH2 0x1195 JUMPI POP PUSH2 0x1223 JUMP JUMPDEST PUSH1 0x0 DUP2 SGT PUSH2 0x11A2 JUMPI PUSH1 0x0 DUP1 REVERT JUMPDEST PUSH2 0x11CF DUP5 DUP10 DUP10 DUP6 DUP2 DUP2 LT PUSH2 0x11B2 JUMPI INVALID JUMPDEST SWAP1 POP PUSH1 0x20 MUL ADD CALLDATALOAD DUP6 PUSH2 0x11C9 DUP11 DUP11 DUP9 DUP2 DUP2 LT PUSH2 0xA8C JUMPI INVALID JUMPDEST DUP6 PUSH2 0x1CDB JUMP JUMPDEST DUP5 PUSH1 0xE0 ADD MLOAD DUP4 DUP2 MLOAD DUP2 LT PUSH2 0x11DF JUMPI INVALID JUMPDEST PUSH1 0x20 MUL PUSH1 0x20 ADD ADD DUP2 DUP2 MSTORE POP POP PUSH1 0x0 DUP5 PUSH1 0x80 ADD MLOAD SGT ISZERO DUP1 PUSH2 0x1205 JUMPI POP PUSH1 0x20 DUP5 ADD MLOAD PUSH1 0x60 ADD MLOAD ISZERO JUMPDEST DUP1 PUSH2 0x1216 JUMPI POP PUSH1 0x20 DUP5 ADD MLOAD PUSH1 0x40 ADD MLOAD ISZERO JUMPDEST ISZERO PUSH2 0x1221 JUMPI POP PUSH2 0xEE4 JUMP JUMPDEST POP JUMPDEST PUSH1 0x1 ADD PUSH2 0x1133 JUMP JUMPDEST PUSH1 0x0 DUP1 PUSH2 0x924 PUSH1 0x6 PUSH2 0x1DE8 JUMP JUMPDEST PUSH1 0x8 DUP2 SWAP1 SHR PUSH1 0xFF SWAP1 SWAP2 AND SHL SWAP1 JUMP JUMPDEST PUSH1 0x0 DUP1 DUP3 SLT PUSH2 0x1256 JUMPI POP DUP1 PUSH2 0x924 JUMP JUMPDEST DUP3 MLOAD PUSH1 0x20 DUP5 ADD MLOAD PUSH2 0x126D SWAP2 SWAP1 PUSH2 0x8FE SWAP1 DUP6 SWAP1 PUSH2 0x1274 JUMP JUMPDEST SWAP1 POP PUSH2 0x924 JUMP JUMPDEST DUP2 DUP2 MUL PUSH1 0x0 NOT DUP4 EQ ISZERO PUSH2 0x12A4 JUMPI DUP2 ISZERO DUP1 PUSH2 0x1296 JUMPI POP DUP3 DUP3 DUP3 DUP2 PUSH2 0x1293 JUMPI INVALID JUMPDEST SDIV EQ JUMPDEST PUSH2 0x129F JUMPI PUSH1 0x0 DUP1 REVERT JUMPDEST PUSH2 0x924 JUMP JUMPDEST DUP3 ISZERO DUP1 PUSH2 0x12B9 JUMPI POP DUP2 DUP4 DUP3 DUP2 PUSH2 0x12B6 JUMPI INVALID JUMPDEST SDIV EQ JUMPDEST PUSH2 0x924 JUMPI PUSH1 0x0 DUP1 REVERT JUMPDEST PUSH1 0x0 DUP2 PUSH1 0x0 NOT EQ DUP1 ISZERO PUSH2 0x12D8 JUMPI POP PUSH1 0x1 PUSH1 0xFF SHL DUP4 EQ JUMPDEST ISZERO PUSH2 0x12E2 JUMPI PUSH1 0x0 DUP1 REVERT JUMPDEST DUP2 DUP4 DUP2 PUSH2 0x12EB JUMPI INVALID JUMPDEST SDIV SWAP4 SWAP3 POP POP POP JUMP JUMPDEST PUSH1 0x0 DUP2 DUP4 SLT PUSH2 0x1302 JUMPI DUP2 PUSH2 0x1304 JUMP JUMPDEST DUP3 JUMPDEST SWAP4 SWAP3 POP POP POP JUMP JUMPDEST PUSH1 0x0 DUP1 PUSH1 0x0 DUP6 SGT PUSH2 0x1320 JUMPI DUP3 PUSH1 0x40 ADD MLOAD PUSH2 0x1326 JUMP JUMPDEST DUP3 PUSH1 0x60 ADD MLOAD JUMPDEST SWAP1 POP PUSH1 0x0 DUP2 SGT PUSH2 0x1335 JUMPI PUSH1 0x0 DUP1 REVERT JUMPDEST PUSH2 0xE40 DUP2 PUSH2 0x8FE PUSH1 0x64 PUSH2 0x1351 PUSH2 0x134A DUP10 PUSH2 0xD18 JUMP JUMPDEST DUP9 SWAP1 PUSH2 0x1E01 JUMP JUMPDEST SWAP1 PUSH2 0x1274 JUMP JUMPDEST DUP3 MLOAD PUSH1 0x60 ADD MLOAD PUSH1 0x0 SWAP1 PUSH2 0xFFFF AND DUP4 EQ ISZERO PUSH2 0x137D JUMPI PUSH2 0x1376 DUP6 DUP5 DUP5 PUSH2 0x1E23 JUMP JUMPDEST SWAP1 POP PUSH2 0x13F3 JUMP JUMPDEST PUSH1 0x40 DUP5 ADD MLOAD MLOAD DUP1 MLOAD JUMPDEST PUSH1 0x0 NOT DUP2 ADD SWAP1 ISZERO PUSH2 0x13EC JUMPI PUSH1 0x0 DUP3 DUP3 DUP2 MLOAD DUP2 LT PUSH2 0x139F JUMPI INVALID JUMPDEST PUSH1 0x20 MUL PUSH1 0x20 ADD ADD MLOAD SWAP1 POP DUP6 DUP2 PUSH1 0x0 ADD MLOAD PUSH2 0xFFFF AND EQ DUP1 ISZERO PUSH2 0x13C4 JUMPI POP PUSH1 0x40 DUP2 ADD MLOAD PUSH1 0x1 EQ JUMPDEST DUP1 ISZERO PUSH2 0x13D3 JUMPI POP DUP5 DUP2 PUSH1 0x20 ADD MLOAD EQ JUMPDEST ISZERO PUSH2 0x13E6 JUMPI PUSH1 0x60 ADD MLOAD SWAP3 POP PUSH2 0x13F3 SWAP2 POP POP JUMP JUMPDEST POP PUSH2 0x1386 JUMP JUMPDEST POP PUSH1 0x0 SWAP2 POP POP JUMPDEST SWAP5 SWAP4 POP POP POP POP JUMP JUMPDEST PUSH1 0x0 DUP1 PUSH1 0x0 PUSH2 0x141A DUP7 DUP7 DUP10 PUSH2 0x120 ADD MLOAD PUSH2 0x1E68 SWAP1 SWAP3 SWAP2 SWAP1 PUSH4 0xFFFFFFFF AND JUMP JUMPDEST SWAP1 POP DUP4 ISZERO PUSH2 0x1465 JUMPI PUSH2 0x1432 DUP8 PUSH2 0x120 ADD MLOAD DUP8 DUP8 PUSH2 0x1F51 JUMP JUMPDEST SWAP3 POP PUSH2 0x145E PUSH2 0x1441 DUP8 DUP8 PUSH2 0x1F98 JUMP JUMPDEST PUSH2 0x1459 PUSH2 0x1452 DUP11 PUSH2 0x120 ADD MLOAD PUSH2 0x1FAD JUMP JUMPDEST DUP5 SWAP1 PUSH2 0x1FBA JUMP JUMPDEST PUSH2 0x1FCC JUMP JUMPDEST SWAP2 POP PUSH2 0x14B7 JUMP JUMPDEST PUSH2 0x1475 DUP8 PUSH2 0x120 ADD MLOAD DUP8 DUP8 PUSH2 0x203F JUMP JUMPDEST SWAP3 POP PUSH1 0x0 PUSH2 0x1487 DUP9 PUSH2 0x120 ADD MLOAD PUSH2 0x2075 JUMP JUMPDEST SWAP1 POP PUSH2 0x14B3 PUSH2 0x1496 DUP9 DUP9 PUSH2 0x1F98 JUMP JUMPDEST DUP3 DUP5 LT PUSH2 0x14AC JUMPI PUSH2 0x14A7 DUP5 DUP5 PUSH2 0x1F98 JUMP JUMPDEST PUSH2 0x1459 JUMP JUMPDEST PUSH1 0x0 PUSH2 0x1FCC JUMP JUMPDEST SWAP3 POP POP JUMPDEST POP SWAP5 POP SWAP5 SWAP3 POP POP POP JUMP JUMPDEST DUP1 DUP3 SUB DUP3 DUP2 SGT ISZERO PUSH1 0x0 DUP4 SLT ISZERO EQ PUSH2 0x924 JUMPI PUSH1 0x0 DUP1 REVERT JUMPDEST PUSH1 0x0 DUP1 DUP3 SLT ISZERO PUSH2 0x14F1 JUMPI PUSH2 0x14EA DUP3 PUSH2 0xD18 JUMP JUMPDEST SWAP1 POP PUSH2 0xC53 JUMP JUMPDEST POP DUP1 PUSH2 0xC53 JUMP JUMPDEST PUSH1 0x0 PUSH2 0x1304 PUSH2 0x150B DUP5 PUSH4 0x3B9ACA00 PUSH2 0x1274 JUMP JUMPDEST DUP4 PUSH2 0x12C2 JUMP JUMPDEST PUSH1 0x0 PUSH1 0x1 PUSH1 0x1 PUSH1 0xFF SHL SUB DUP3 GT ISZERO PUSH2 0x1527 JUMPI PUSH1 0x0 DUP1 REVERT JUMPDEST POP SWAP1 JUMP JUMPDEST PUSH1 0x0 DUP1 PUSH2 0x153E PUSH1 0x64 PUSH2 0x8FE DUP7 PUSH1 0x28 PUSH2 0x1274 JUMP JUMPDEST SWAP1 POP DUP5 DUP5 DUP2 SGT ISZERO PUSH2 0x154C JUMPI POP DUP4 JUMPDEST DUP2 DUP7 SLT ISZERO PUSH2 0x1557 JUMPI POP DUP1 JUMPDEST PUSH1 0x0 DUP5 SGT DUP1 ISZERO PUSH2 0x1566 JUMPI POP DUP4 DUP2 SGT JUMPDEST ISZERO PUSH2 0xE40 JUMPI POP SWAP2 SWAP5 SWAP4 POP POP POP POP JUMP JUMPDEST PUSH1 0x0 PUSH2 0x1304 PUSH2 0x1584 DUP5 DUP5 PUSH2 0x1274 JUMP JUMPDEST PUSH4 0x3B9ACA00 PUSH2 0x12C2 JUMP JUMPDEST DUP2 DUP2 ADD DUP3 DUP2 SLT ISZERO PUSH1 0x0 DUP4 SLT ISZERO EQ PUSH2 0x924 JUMPI PUSH1 0x0 DUP1 REVERT JUMPDEST DUP2 MLOAD PUSH1 0x0 SWAP1 DUP2 SWAP1 PUSH2 0x904 SWAP1 PUSH2 0x8FE DUP6 PUSH15 0xC097CE7BC90715B34B9F1000000000 PUSH2 0x1274 JUMP JUMPDEST PUSH2 0x15D0 PUSH2 0x48D4 JUMP JUMPDEST PUSH1 0x0 PUSH2 0x15DA PUSH2 0x2082 JUMP JUMPDEST PUSH1 0x0 DUP6 DUP2 MSTORE PUSH1 0x20 DUP3 DUP2 MSTORE PUSH1 0x40 DUP1 DUP4 KECCAK256 DUP8 ISZERO ISZERO DUP5 MSTORE DUP3 MSTORE SWAP2 DUP3 SWAP1 KECCAK256 DUP3 MLOAD PUSH1 0xA0 DUP2 ADD DUP5 MSTORE DUP2 SLOAD PUSH1 0x1 PUSH1 0x1 PUSH1 0xA0 SHL SUB DUP2 AND DUP3 MSTORE PUSH1 0xFF PUSH1 0x1 PUSH1 0xA0 SHL DUP3 DIV DUP2 AND ISZERO ISZERO SWAP5 DUP4 ADD SWAP5 SWAP1 SWAP5 MSTORE PUSH1 0x1 PUSH1 0xB0 SHL DUP2 DIV DUP5 AND PUSH1 0xA EXP SWAP5 DUP3 ADD SWAP5 SWAP1 SWAP5 MSTORE SWAP4 SWAP5 POP SWAP3 SWAP2 PUSH1 0x60 DUP4 ADD SWAP2 PUSH1 0x1 PUSH1 0xA8 SHL SWAP1 SWAP2 DIV AND PUSH1 0x5 DUP2 GT ISZERO PUSH2 0x164F JUMPI INVALID JUMPDEST DUP2 MSTORE PUSH1 0x0 PUSH1 0x20 SWAP1 SWAP2 ADD MSTORE SWAP6 SWAP5 POP POP POP POP POP JUMP JUMPDEST PUSH1 0x0 DUP1 PUSH2 0x924 PUSH1 0x1 PUSH2 0x1DE8 JUMP JUMPDEST PUSH2 0x1677 PUSH2 0x4903 JUMP JUMPDEST PUSH1 0x0 PUSH2 0x1682 DUP5 PUSH2 0x208F JUMP JUMPDEST SWAP1 POP DUP3 DUP2 PUSH1 0x0 ADD MLOAD LT ISZERO PUSH2 0x16C1 JUMPI PUSH1 0x0 DUP1 PUSH2 0x169C DUP7 PUSH2 0x2157 JUMP JUMPDEST SWAP1 POP PUSH2 0x16AA DUP7 DUP5 DUP4 DUP9 PUSH2 0x21D4 JUMP JUMPDEST SWAP1 SWAP4 POP SWAP2 POP PUSH2 0x16BA DUP7 DUP4 DUP6 PUSH2 0x2278 JUMP JUMPDEST POP POP PUSH2 0x16CE JUMP JUMPDEST DUP1 MLOAD DUP4 EQ PUSH2 0x16CE JUMPI PUSH1 0x0 DUP1 REVERT JUMPDEST PUSH1 0x40 MLOAD DUP1 PUSH1 0x60 ADD PUSH1 0x40 MSTORE DUP1 PUSH2 0x16FC PUSH2 0x16F7 DUP5 PUSH1 0xA0 ADD MLOAD DUP6 PUSH1 0xC0 ADD MLOAD PUSH2 0x24AC SWAP1 SWAP2 SWAP1 PUSH4 0xFFFFFFFF AND JUMP JUMPDEST PUSH2 0x1511 JUMP JUMPDEST DUP2 MSTORE PUSH1 0x20 ADD PUSH2 0x171F PUSH2 0x16F7 DUP5 PUSH1 0xA0 ADD MLOAD DUP6 PUSH1 0xE0 ADD MLOAD PUSH2 0x24AC SWAP1 SWAP2 SWAP1 PUSH4 0xFFFFFFFF AND JUMP JUMPDEST DUP2 MSTORE PUSH1 0x20 ADD DUP3 PUSH1 0x60 ADD MLOAD DUP2 MSTORE POP SWAP2 POP POP SWAP3 SWAP2 POP POP JUMP JUMPDEST DUP3 PUSH1 0x0 LT DUP1 ISZERO PUSH2 0x1747 JUMPI POP PUSH2 0x3FFF DUP4 GT ISZERO JUMPDEST PUSH2 0x1750 JUMPI PUSH1 0x0 DUP1 REVERT JUMPDEST DUP2 DUP1 ISZERO PUSH2 0x1764 JUMPI POP DUP3 DUP5 PUSH1 0x60 ADD MLOAD PUSH2 0xFFFF AND EQ JUMPDEST ISZERO PUSH2 0x176E JUMPI PUSH2 0x193F JUMP JUMPDEST PUSH1 0x80 DUP5 ADD MLOAD PUSH1 0x0 SWAP1 DUP2 JUMPDEST PUSH1 0x1 PUSH1 0x1 PUSH1 0x70 SHL SUB NOT DUP3 AND ISZERO PUSH2 0x18F9 JUMPI PUSH1 0xF0 DUP3 SWAP1 SHR PUSH2 0x3FFF AND DUP7 DUP2 EQ DUP1 ISZERO PUSH2 0x179D JUMPI POP DUP6 JUMPDEST ISZERO PUSH2 0x17D5 JUMPI POP PUSH1 0x80 DUP8 ADD DUP1 MLOAD PUSH1 0x1 PUSH1 0x1 PUSH1 0xF0 SHL SUB NOT DUP7 AND PUSH1 0x10 SWAP1 SWAP4 MUL SWAP3 SWAP1 SWAP3 SHR SWAP2 SWAP1 SWAP2 OR PUSH1 0x1 PUSH1 0x1 PUSH1 0x70 SHL SUB NOT AND SWAP1 MSTORE POP PUSH2 0x193F SWAP1 POP JUMP JUMPDEST DUP7 DUP2 EQ DUP1 ISZERO PUSH2 0x17E2 JUMPI POP DUP6 ISZERO JUMPDEST ISZERO PUSH2 0x183E JUMPI PUSH1 0x1 PUSH1 0x1 PUSH1 0xF0 SHL SUB NOT DUP6 AND NOT SWAP3 SWAP1 SWAP3 AND SWAP2 PUSH1 0x3 PUSH1 0xFE SHL DUP4 AND PUSH2 0x181C JUMPI PUSH1 0x10 DUP4 PUSH14 0xFFFFFFFFFFFFFFFFFFFFFFFFFFFF NOT AND SWAP1 SHL SWAP3 POP JUMPDEST POP PUSH1 0x1 PUSH1 0x1 PUSH1 0x70 SHL SUB NOT SWAP2 DUP3 AND PUSH1 0x10 SWAP1 SWAP2 MUL SHR SWAP2 SWAP1 SWAP2 OR AND PUSH1 0x80 DUP6 ADD MSTORE PUSH2 0x193F JUMP JUMPDEST DUP7 DUP2 GT DUP1 ISZERO PUSH2 0x184A JUMPI POP DUP6 JUMPDEST ISZERO PUSH2 0x18A4 JUMPI PUSH1 0x80 DUP9 DUP2 ADD MLOAD PUSH1 0x1 PUSH1 0x1 PUSH1 0xF0 SHL SUB NOT PUSH1 0xF0 DUP11 SWAP1 SHL DUP9 OR DUP2 AND PUSH1 0x10 DUP7 MUL SHR SWAP7 SWAP1 SWAP7 OR SWAP6 SWAP2 SHL AND ISZERO PUSH2 0x187E JUMPI PUSH1 0x0 DUP1 REVERT JUMPDEST POP PUSH1 0x1 PUSH1 0x1 PUSH1 0x70 SHL SUB NOT SWAP2 DUP3 AND PUSH1 0x1 SWAP2 SWAP1 SWAP2 ADD PUSH1 0x10 MUL SHR SWAP2 SWAP1 SWAP2 OR AND PUSH1 0x80 DUP6 ADD MSTORE PUSH2 0x193F JUMP JUMPDEST DUP7 DUP2 GT DUP1 ISZERO PUSH2 0x18B1 JUMPI POP DUP6 ISZERO JUMPDEST ISZERO PUSH2 0x18BF JUMPI POP POP POP POP PUSH2 0x193F JUMP JUMPDEST POP PUSH1 0x1 PUSH1 0x1 PUSH1 0xF0 SHL SUB NOT DUP3 AND PUSH1 0x10 DUP3 DUP2 MUL SWAP2 SWAP1 SWAP2 SHR SWAP4 SWAP1 SWAP4 OR SWAP3 SWAP2 SWAP1 SWAP2 SHL PUSH16 0xFFFFFFFFFFFFFFFFFFFFFFFFFFFFFFFF NOT AND SWAP1 PUSH1 0x1 ADD PUSH2 0x1778 JUMP JUMPDEST DUP5 PUSH2 0x1906 JUMPI POP POP POP PUSH2 0x193F JUMP JUMPDEST PUSH1 0x9 DUP2 LT PUSH2 0x1913 JUMPI PUSH1 0x0 DUP1 REVERT JUMPDEST PUSH1 0x1 PUSH1 0x1 PUSH1 0xF0 SHL SUB NOT PUSH1 0xF0 DUP8 SWAP1 SHL DUP6 OR AND PUSH1 0x10 SWAP1 SWAP2 MUL SHR SWAP2 SWAP1 SWAP2 OR PUSH1 0x1 PUSH1 0x1 PUSH1 0x70 SHL SUB NOT AND PUSH1 0x80 DUP7 ADD MSTORE POP JUMPDEST POP POP POP POP JUMP JUMPDEST PUSH1 0x0 PUSH2 0x194F PUSH2 0x122B JUMP JUMPDEST PUSH1 0x1 PUSH1 0x1 PUSH1 0xA0 SHL SUB DUP10 AND PUSH1 0x0 SWAP1 DUP2 MSTORE PUSH1 0x20 DUP3 DUP2 MSTORE PUSH1 0x40 DUP1 DUP4 KECCAK256 PUSH2 0xFFFF DUP13 AND DUP5 MSTORE SWAP1 SWAP2 MSTORE SWAP1 KECCAK256 SWAP1 SWAP2 POP DUP5 PUSH2 0x19B7 JUMPI PUSH7 0xFFFFFFFFFFFFFF DUP5 GT ISZERO PUSH2 0x1990 JUMPI PUSH1 0x0 DUP1 REVERT JUMPDEST DUP1 SLOAD PUSH7 0xFFFFFFFFFFFFFF PUSH1 0x70 SHL NOT AND PUSH1 0x1 PUSH1 0x70 SHL PUSH7 0xFFFFFFFFFFFFFF DUP7 AND MUL OR DUP2 SSTORE PUSH2 0x19D1 JUMP JUMPDEST DUP1 SLOAD PUSH1 0x1 PUSH1 0x50 SHL SWAP1 DIV PUSH4 0xFFFFFFFF AND DUP6 EQ PUSH2 0x19D1 JUMPI PUSH1 0x0 DUP1 REVERT JUMPDEST PUSH2 0x19DA DUP6 PUSH2 0x24D3 JUMP JUMPDEST DUP2 SLOAD PUSH4 0xFFFFFFFF SWAP2 SWAP1 SWAP2 AND PUSH1 0x1 PUSH1 0x50 SHL MUL PUSH4 0xFFFFFFFF PUSH1 0x50 SHL NOT SWAP1 SWAP2 AND OR DUP2 SSTORE PUSH2 0x1A0B PUSH2 0x1A06 DUP8 PUSH2 0x24E6 JUMP JUMPDEST PUSH2 0x24F5 JUMP JUMPDEST DUP2 SLOAD PUSH10 0xFFFFFFFFFFFFFFFFFFFF NOT AND PUSH1 0x1 PUSH1 0x1 PUSH1 0x50 SHL SUB SWAP2 SWAP1 SWAP2 AND OR DUP1 DUP3 SSTORE PUSH2 0x1A51 SWAP1 PUSH2 0x1A4C SWAP1 DUP6 SWAP1 DUP13 SWAP1 DUP13 SWAP1 PUSH1 0x1 PUSH1 0xA8 SHL SWAP1 DIV PUSH1 0xA SWAP1 DUP2 SIGNEXTEND SWAP1 SIGNEXTEND DUP13 PUSH2 0x250B JUMP JUMPDEST PUSH2 0x252E JUMP JUMPDEST DUP2 SLOAD PUSH1 0xA SWAP2 SWAP1 SWAP2 SIGNEXTEND PUSH1 0x1 PUSH1 0x1 PUSH1 0x58 SHL SUB AND PUSH1 0x1 PUSH1 0xA8 SHL MUL PUSH1 0x1 PUSH1 0x1 PUSH1 0xA8 SHL SUB SWAP1 SWAP2 AND OR SWAP1 SSTORE POP POP POP POP POP POP POP POP JUMP JUMPDEST PUSH1 0x0 PUSH4 0x5F5E100 DUP4 PUSH1 0x40 ADD MLOAD SLT ISZERO PUSH2 0x1AA7 JUMPI PUSH2 0x126D PUSH1 0x1 PUSH2 0x1AA1 DUP6 DUP6 PUSH2 0x2560 JUMP JUMPDEST SWAP1 PUSH2 0x158E JUMP JUMPDEST PUSH2 0x1304 DUP4 PUSH2 0x1AB6 DUP5 PUSH1 0x1 PUSH2 0x158E JUMP JUMPDEST PUSH2 0x2560 JUMP JUMPDEST PUSH1 0x0 DUP1 PUSH1 0x0 PUSH2 0x1AC9 DUP7 PUSH2 0x24E6 JUMP JUMPDEST SWAP1 POP DUP1 PUSH2 0x1ADD JUMPI PUSH1 0x0 DUP1 SWAP3 POP SWAP3 POP POP PUSH2 0x1B6E JUMP JUMPDEST PUSH1 0x0 PUSH2 0x1AEC DUP9 PUSH2 0xFFFF AND PUSH2 0xC3D JUMP JUMPDEST SWAP1 POP PUSH1 0x3 DUP2 PUSH1 0x60 ADD MLOAD PUSH1 0x5 DUP2 GT ISZERO PUSH2 0x1B00 JUMPI INVALID JUMPDEST EQ ISZERO PUSH2 0x1B47 JUMPI CALLVALUE DUP3 LT ISZERO PUSH2 0x1B20 JUMPI PUSH2 0x1B1B DUP10 DUP4 CALLVALUE SUB DUP8 PUSH2 0x2598 JUMP JUMPDEST PUSH2 0x1B3F JUMP JUMPDEST CALLVALUE DUP3 EQ PUSH2 0x1B3F JUMPI PUSH1 0x40 MLOAD PUSH3 0x461BCD PUSH1 0xE5 SHL DUP2 MSTORE PUSH1 0x4 ADD PUSH2 0x483 SWAP1 PUSH2 0x5299 JUMP JUMPDEST DUP7 SWAP4 POP PUSH2 0x1B5C JUMP JUMPDEST PUSH2 0x1B59 PUSH2 0x16F7 DUP3 PUSH1 0x0 ADD MLOAD DUP12 DUP6 PUSH2 0x2665 JUMP JUMPDEST SWAP4 POP JUMPDEST PUSH2 0x1B69 DUP10 DUP10 DUP7 DUP5 DUP11 PUSH2 0x27ED JUMP JUMPDEST SWAP3 POP POP POP JUMPDEST SWAP6 POP SWAP6 SWAP4 POP POP POP POP JUMP JUMPDEST PUSH1 0x0 DUP1 PUSH2 0x924 PUSH1 0x21 PUSH2 0x1DE8 JUMP JUMPDEST DUP1 MLOAD PUSH1 0x60 SWAP1 PUSH1 0x0 SWAP1 DUP5 EQ PUSH2 0x1B98 JUMPI PUSH1 0x0 DUP1 REVERT JUMPDEST PUSH1 0x0 DUP5 PUSH1 0x1 PUSH1 0x1 PUSH1 0x40 SHL SUB DUP2 GT DUP1 ISZERO PUSH2 0x1BB0 JUMPI PUSH1 0x0 DUP1 REVERT JUMPDEST POP PUSH1 0x40 MLOAD SWAP1 DUP1 DUP3 MSTORE DUP1 PUSH1 0x20 MUL PUSH1 0x20 ADD DUP3 ADD PUSH1 0x40 MSTORE DUP1 ISZERO PUSH2 0x1BEA JUMPI DUP2 PUSH1 0x20 ADD JUMPDEST PUSH2 0x1BD7 PUSH2 0x4890 JUMP JUMPDEST DUP2 MSTORE PUSH1 0x20 ADD SWAP1 PUSH1 0x1 SWAP1 SUB SWAP1 DUP2 PUSH2 0x1BCF JUMPI SWAP1 POP JUMPDEST POP SWAP1 POP PUSH1 0x0 DUP1 JUMPDEST DUP7 DUP2 LT ISZERO PUSH2 0x1C79 JUMPI PUSH1 0x0 DUP4 DUP3 DUP2 MLOAD DUP2 LT PUSH2 0x1C07 JUMPI INVALID JUMPDEST PUSH1 0x20 SWAP1 DUP2 MUL SWAP2 SWAP1 SWAP2 ADD ADD MLOAD PUSH2 0xFFFF DUP12 AND DUP2 MSTORE PUSH1 0x1 PUSH1 0x40 DUP3 ADD MSTORE DUP8 MLOAD SWAP1 SWAP2 POP DUP8 SWAP1 DUP4 SWAP1 DUP2 LT PUSH2 0x1C31 JUMPI INVALID JUMPDEST PUSH1 0x20 MUL PUSH1 0x20 ADD ADD MLOAD DUP2 PUSH1 0x60 ADD DUP2 DUP2 MSTORE POP POP DUP9 DUP9 DUP4 DUP2 DUP2 LT PUSH2 0x1C4E JUMPI INVALID JUMPDEST SWAP1 POP PUSH1 0x20 MUL ADD CALLDATALOAD DUP2 PUSH1 0x20 ADD DUP2 DUP2 MSTORE POP POP PUSH1 0x0 DUP2 PUSH1 0x60 ADD MLOAD SLT ISZERO PUSH2 0x1C70 JUMPI PUSH1 0x1 SWAP3 POP JUMPDEST POP PUSH1 0x1 ADD PUSH2 0x1BF1 JUMP JUMPDEST POP SWAP1 SWAP8 SWAP1 SWAP7 POP SWAP5 POP POP POP POP POP JUMP JUMPDEST PUSH1 0x0 DUP1 PUSH2 0x1CB8 PUSH2 0x1CA8 PUSH2 0x1C9D DUP6 PUSH1 0x20 ADD MLOAD PUSH2 0xD18 JUMP JUMPDEST PUSH1 0xE0 DUP7 ADD MLOAD SWAP1 PUSH2 0x1E01 JUMP JUMPDEST PUSH2 0x120 DUP6 ADD MLOAD PUSH1 0x40 ADD MLOAD SWAP1 PUSH2 0x15A4 JUMP JUMPDEST SWAP2 POP PUSH2 0x1CD4 DUP4 PUSH1 0xE0 ADD MLOAD PUSH1 0x80 ADD MLOAD DUP5 PUSH1 0xC0 ADD MLOAD PUSH1 0x80 ADD MLOAD PUSH2 0x2834 JUMP JUMPDEST SWAP1 POP SWAP2 POP SWAP2 JUMP JUMPDEST PUSH1 0x0 DUP1 PUSH1 0x0 PUSH2 0x1CF1 DUP9 PUSH1 0x20 ADD MLOAD DUP9 DUP9 PUSH1 0x1 PUSH2 0x13FB JUMP JUMPDEST SWAP2 POP SWAP2 POP PUSH1 0x0 DUP1 PUSH2 0x1D36 DUP11 PUSH1 0x20 ADD MLOAD PUSH1 0xE0 ADD MLOAD PUSH1 0x60 ADD MLOAD PUSH2 0x1D30 DUP13 PUSH1 0xC0 ADD MLOAD PUSH2 0x8FE PUSH1 0x64 DUP16 PUSH1 0x20 ADD MLOAD PUSH1 0xC0 ADD MLOAD PUSH1 0x40 ADD MLOAD PUSH2 0x1274 SWAP1 SWAP2 SWAP1 PUSH4 0xFFFFFFFF AND JUMP JUMPDEST SWAP1 PUSH2 0x14C1 JUMP JUMPDEST SWAP1 POP PUSH2 0x1D47 PUSH1 0x64 PUSH2 0x8FE DUP6 DUP5 PUSH2 0x1274 JUMP JUMPDEST SWAP1 POP PUSH1 0x0 PUSH2 0x1D55 DUP5 DUP7 PUSH2 0x14C1 JUMP JUMPDEST SWAP1 POP PUSH2 0x1D61 DUP2 DUP4 PUSH2 0x158E JUMP JUMPDEST SWAP3 POP POP POP PUSH1 0x0 PUSH2 0x1D7E DUP3 DUP12 PUSH1 0x80 ADD MLOAD PUSH2 0x14F8 SWAP1 SWAP2 SWAP1 PUSH4 0xFFFFFFFF AND JUMP JUMPDEST SWAP1 POP PUSH2 0x1D8B DUP2 DUP8 DUP10 PUSH2 0x152B JUMP JUMPDEST SWAP1 POP PUSH1 0x0 PUSH2 0x1D9B DUP12 DUP6 DUP8 DUP6 PUSH2 0x2843 JUMP JUMPDEST SWAP1 SWAP3 POP SWAP1 POP PUSH1 0x0 PUSH2 0x1DAC DUP4 DUP6 PUSH2 0x1575 JUMP JUMPDEST PUSH1 0x80 DUP14 ADD MLOAD SWAP1 SWAP2 POP PUSH2 0x1DBE SWAP1 DUP3 PUSH2 0x14C1 JUMP JUMPDEST PUSH1 0x80 DUP14 ADD MSTORE PUSH1 0xA0 DUP13 ADD MLOAD PUSH2 0x1DD2 SWAP1 DUP4 PUSH2 0x158E JUMP JUMPDEST PUSH1 0xA0 DUP14 ADD MSTORE POP SWAP1 SWAP5 POP POP POP POP POP SWAP6 SWAP5 POP POP POP POP POP JUMP JUMPDEST PUSH1 0x0 PUSH3 0xF4240 DUP3 PUSH1 0x26 DUP2 GT ISZERO PUSH2 0x1DFA JUMPI INVALID JUMPDEST ADD SWAP3 SWAP2 POP POP JUMP JUMPDEST PUSH1 0x0 DUP1 PUSH2 0x920 DUP5 PUSH1 0x20 ADD MLOAD PUSH2 0x8FE DUP7 PUSH1 0x0 ADD MLOAD DUP7 PUSH2 0x1274 SWAP1 SWAP2 SWAP1 PUSH4 0xFFFFFFFF AND JUMP JUMPDEST PUSH1 0x0 DUP1 PUSH2 0x1E2E PUSH2 0x2933 JUMP JUMPDEST PUSH1 0x1 PUSH1 0x1 PUSH1 0xA0 SHL SUB DUP7 AND PUSH1 0x0 SWAP1 DUP2 MSTORE PUSH1 0x20 SWAP2 DUP3 MSTORE PUSH1 0x40 DUP1 DUP3 KECCAK256 DUP8 DUP4 MSTORE DUP4 MSTORE DUP1 DUP3 KECCAK256 DUP7 DUP4 MSTORE SWAP1 SWAP3 MSTORE KECCAK256 SLOAD PUSH1 0xF SWAP1 DUP2 SIGNEXTEND SWAP1 SIGNEXTEND SWAP2 POP POP SWAP4 SWAP3 POP POP POP JUMP JUMPDEST PUSH1 0x0 DUP1 PUSH1 0x0 PUSH2 0x1E7C DUP7 PUSH1 0x20 ADD MLOAD DUP7 DUP7 PUSH2 0x2940 JUMP JUMPDEST SWAP2 POP SWAP2 POP PUSH1 0x0 PUSH2 0x1E8B DUP8 PUSH2 0x29C8 JUMP JUMPDEST SWAP1 POP DUP2 PUSH2 0x1EAB JUMPI DUP7 MLOAD PUSH2 0x1EA4 SWAP1 PUSH2 0xFFFF AND DUP8 DUP4 DUP9 PUSH2 0x29DC JUMP JUMPDEST SWAP4 POP PUSH2 0x1F47 JUMP JUMPDEST PUSH1 0x0 PUSH2 0x1EB6 DUP7 PUSH2 0x2A7B JUMP JUMPDEST SWAP1 POP PUSH1 0x0 PUSH2 0x1ECD PUSH2 0x1EC6 DUP7 PUSH2 0x2A99 JUMP JUMPDEST DUP4 SWAP1 PUSH2 0x1FBA JUMP JUMPDEST SWAP1 POP PUSH1 0x0 PUSH2 0x1EE5 DUP11 PUSH1 0x0 ADD MLOAD PUSH2 0xFFFF AND DUP4 DUP7 DUP12 PUSH2 0x29DC JUMP JUMPDEST SWAP1 POP PUSH1 0x0 DUP1 DUP8 PUSH1 0x1 EQ ISZERO PUSH2 0x1F03 JUMPI POP POP PUSH1 0x40 DUP1 DUP12 ADD MLOAD ADD MLOAD DUP9 PUSH2 0x1F32 JUMP JUMPDEST PUSH2 0x1F19 PUSH2 0x1F12 PUSH1 0x1 DUP11 SUB PUSH2 0x2A99 JUMP JUMPDEST DUP7 SWAP1 PUSH2 0x1FBA JUMP JUMPDEST SWAP1 POP PUSH2 0x1F2F DUP13 PUSH1 0x0 ADD MLOAD PUSH2 0xFFFF AND DUP3 DUP9 DUP14 PUSH2 0x29DC JUMP JUMPDEST SWAP2 POP JUMPDEST PUSH2 0x1F3F DUP2 DUP6 DUP5 DUP7 DUP16 PUSH2 0x2B3D JUMP JUMPDEST SWAP9 POP POP POP POP POP POP JUMPDEST POP POP POP SWAP4 SWAP3 POP POP POP JUMP JUMPDEST PUSH1 0x0 DUP1 PUSH2 0x1F5F DUP6 DUP6 DUP6 PUSH2 0x2BA1 JUMP JUMPDEST SWAP1 POP PUSH2 0x1F74 PUSH2 0x1F6E DUP6 DUP6 PUSH2 0x1F98 JUMP JUMPDEST DUP3 PUSH2 0x1FCC JUMP JUMPDEST SWAP2 POP PUSH1 0x0 PUSH2 0x1F81 DUP7 PUSH2 0x2BE6 JUMP JUMPDEST SWAP1 POP DUP3 DUP2 SLT ISZERO PUSH2 0x1F8F JUMPI DUP1 SWAP3 POP JUMPDEST POP POP SWAP4 SWAP3 POP POP POP JUMP JUMPDEST PUSH1 0x0 DUP3 DUP3 GT ISZERO PUSH2 0x1FA7 JUMPI PUSH1 0x0 DUP1 REVERT JUMPDEST POP SWAP1 SUB SWAP1 JUMP JUMPDEST PUSH1 0x0 PUSH2 0xC50 DUP3 PUSH1 0x38 PUSH2 0x2C01 JUMP JUMPDEST PUSH1 0x0 DUP3 DUP3 ADD DUP4 DUP2 LT ISZERO PUSH2 0x1304 JUMPI PUSH1 0x0 DUP1 REVERT JUMPDEST PUSH1 0x0 DUP1 PUSH2 0x1FEF PUSH2 0x1FEA PUSH4 0x1DA9C00 PUSH2 0x1FE4 DUP7 DUP9 PUSH2 0x24AC JUMP JUMPDEST SWAP1 PUSH2 0x2C14 JUMP JUMPDEST PUSH2 0x2C33 JUMP JUMPDEST SWAP1 POP PUSH2 0x2001 DUP2 PUSH3 0x1DCD65 PUSH1 0x49 SHL PUSH2 0x2C51 JUMP JUMPDEST SWAP1 POP PUSH2 0x2014 PUSH2 0x200F DUP3 PUSH2 0x2CA4 JUMP JUMPDEST PUSH2 0x2CC6 JUMP JUMPDEST SWAP1 POP PUSH2 0x2026 DUP2 PUSH3 0x1DCD65 PUSH1 0x49 SHL PUSH2 0x2D1B JUMP JUMPDEST SWAP1 POP PUSH1 0x0 PUSH2 0x2033 DUP3 PUSH2 0x2D51 JUMP JUMPDEST PUSH1 0x7 SIGNEXTEND SWAP6 SWAP5 POP POP POP POP POP JUMP JUMPDEST PUSH1 0x0 DUP1 PUSH2 0x204D DUP6 DUP6 DUP6 PUSH2 0x2D5A JUMP JUMPDEST SWAP1 POP DUP1 ISZERO PUSH2 0x2067 JUMPI PUSH2 0x2062 PUSH2 0x1F6E DUP6 DUP6 PUSH2 0x1F98 JUMP JUMPDEST PUSH2 0xE40 JUMP JUMPDEST PUSH4 0x3B9ACA00 SWAP6 SWAP5 POP POP POP POP POP JUMP JUMPDEST PUSH1 0x0 PUSH2 0xC50 DUP3 PUSH1 0x40 PUSH2 0x2C01 JUMP JUMPDEST PUSH1 0x0 DUP1 PUSH2 0x924 PUSH1 0x7 PUSH2 0x1DE8 JUMP JUMPDEST PUSH2 0x2097 PUSH2 0x4924 JUMP JUMPDEST PUSH1 0x0 PUSH2 0x20A1 PUSH2 0x2DAA JUMP JUMPDEST PUSH2 0xFFFF SWAP4 DUP5 AND PUSH1 0x0 SWAP1 DUP2 MSTORE PUSH1 0x20 SWAP2 DUP3 MSTORE PUSH1 0x40 SWAP1 DUP2 SWAP1 KECCAK256 DUP1 SLOAD PUSH5 0xFFFFFFFFFF DUP2 AND DUP7 MSTORE PUSH1 0x1 PUSH1 0x28 SHL DUP2 DIV PUSH1 0x1 PUSH1 0x1 PUSH1 0x58 SHL SUB SWAP1 DUP2 AND SWAP5 DUP8 ADD SWAP5 SWAP1 SWAP5 MSTORE PUSH1 0x1 DUP3 ADD SLOAD DUP5 AND SWAP3 DUP7 ADD SWAP3 SWAP1 SWAP3 MSTORE PUSH1 0x1 PUSH1 0xD8 SHL DUP3 DIV PUSH4 0xFFFFFFFF AND PUSH1 0x60 DUP7 ADD MSTORE PUSH1 0x1 PUSH1 0x80 SHL SWAP1 SWAP2 DIV SWAP1 SWAP2 AND PUSH1 0x80 DUP5 ADD MSTORE PUSH1 0x2 ADD SLOAD PUSH1 0x1 PUSH1 0x1 PUSH1 0x50 SHL SUB DUP1 DUP3 AND PUSH1 0xA0 DUP6 ADD MSTORE PUSH1 0x1 PUSH1 0x50 SHL DUP3 DIV DUP2 AND PUSH1 0xC0 DUP6 ADD MSTORE PUSH1 0x1 PUSH1 0xA0 SHL DUP3 DIV AND PUSH1 0xE0 DUP5 ADD MSTORE PUSH1 0x1 PUSH1 0xF0 SHL SWAP1 DIV PUSH1 0xFF AND PUSH2 0x12C MUL SWAP1 SWAP3 AND PUSH2 0x100 DUP3 ADD MSTORE SWAP2 SWAP1 POP JUMP JUMPDEST PUSH1 0x0 DUP1 PUSH2 0x2163 DUP4 PUSH2 0x2DB7 JUMP JUMPDEST PUSH1 0x1 PUSH1 0x1 PUSH1 0xA0 SHL SUB AND PUSH4 0xEF81F216 PUSH1 0x40 MLOAD DUP2 PUSH4 0xFFFFFFFF AND PUSH1 0xE0 SHL DUP2 MSTORE PUSH1 0x4 ADD PUSH1 0x40 DUP1 MLOAD DUP1 DUP4 SUB DUP2 PUSH1 0x0 DUP8 DUP1 EXTCODESIZE ISZERO DUP1 ISZERO PUSH2 0x219C JUMPI PUSH1 0x0 DUP1 REVERT JUMPDEST POP GAS CALL ISZERO DUP1 ISZERO PUSH2 0x21B0 JUMPI RETURNDATASIZE PUSH1 0x0 DUP1 RETURNDATACOPY RETURNDATASIZE PUSH1 0x0 REVERT JUMPDEST POP POP POP POP PUSH1 0x40 MLOAD RETURNDATASIZE PUSH1 0x1F NOT PUSH1 0x1F DUP3 ADD AND DUP3 ADD DUP1 PUSH1 0x40 MSTORE POP DUP2 ADD SWAP1 PUSH2 0x13F3 SWAP2 SWAP1 PUSH2 0x503C JUMP JUMPDEST PUSH2 0x21DC PUSH2 0x4924 JUMP JUMPDEST PUSH1 0x0 DUP1 PUSH1 0x0 PUSH2 0x21EC DUP9 DUP7 DUP10 PUSH2 0x2DE7 JUMP JUMPDEST PUSH1 0xC0 DUP12 ADD SWAP3 SWAP1 SWAP3 MSTORE PUSH1 0xE0 DUP11 ADD SWAP3 SWAP1 SWAP3 MSTORE PUSH1 0x20 DUP10 ADD MLOAD SWAP2 SWAP4 POP SWAP2 POP PUSH2 0x2210 SWAP1 DUP4 PUSH2 0x1FBA JUMP JUMPDEST PUSH1 0x20 DUP9 ADD MSTORE PUSH1 0x80 DUP8 ADD MLOAD PUSH1 0x0 SWAP1 ISZERO PUSH2 0x223E JUMPI PUSH1 0x80 DUP9 ADD MLOAD PUSH2 0x223B SWAP1 PUSH2 0x2235 DUP10 DUP3 PUSH2 0x1F98 JUMP JUMPDEST SWAP1 PUSH2 0x2EF2 JUMP JUMPDEST SWAP1 POP JUMPDEST PUSH2 0x225E PUSH2 0x2253 PUSH8 0xDE0B6B3A7640000 DUP4 PUSH2 0x1FBA JUMP JUMPDEST PUSH1 0xA0 DUP11 ADD MLOAD SWAP1 PUSH2 0x2F0F JUMP JUMPDEST PUSH1 0xA0 DUP10 ADD MSTORE POP POP PUSH1 0x80 DUP7 ADD SWAP5 SWAP1 SWAP5 MSTORE POP POP DUP3 MSTORE SWAP1 SWAP3 SWAP1 SWAP2 POP JUMP JUMPDEST PUSH1 0x0 PUSH2 0x2282 PUSH2 0x2DAA JUMP JUMPDEST PUSH1 0x0 DUP6 PUSH2 0xFFFF AND DUP2 MSTORE PUSH1 0x20 ADD SWAP1 DUP2 MSTORE PUSH1 0x20 ADD PUSH1 0x0 KECCAK256 SWAP1 POP PUSH2 0x22A6 DUP3 PUSH1 0x0 ADD MLOAD PUSH2 0x2F2C JUMP JUMPDEST DUP2 SLOAD PUSH5 0xFFFFFFFFFF NOT AND PUSH5 0xFFFFFFFFFF SWAP2 SWAP1 SWAP2 AND OR DUP2 SSTORE PUSH1 0xA0 DUP3 ADD MLOAD PUSH2 0x22CB SWAP1 PUSH2 0x24F5 JUMP JUMPDEST PUSH1 0x2 DUP3 ADD DUP1 SLOAD PUSH10 0xFFFFFFFFFFFFFFFFFFFF NOT AND PUSH1 0x1 PUSH1 0x1 PUSH1 0x50 SHL SUB SWAP3 SWAP1 SWAP3 AND SWAP2 SWAP1 SWAP2 OR SWAP1 SSTORE PUSH1 0xC0 DUP3 ADD MLOAD PUSH2 0x22FE SWAP1 PUSH2 0x24F5 JUMP JUMPDEST DUP2 PUSH1 0x2 ADD PUSH1 0xA PUSH2 0x100 EXP DUP2 SLOAD DUP2 PUSH1 0x1 PUSH1 0x1 PUSH1 0x50 SHL SUB MUL NOT AND SWAP1 DUP4 PUSH1 0x1 PUSH1 0x1 PUSH1 0x50 SHL SUB AND MUL OR SWAP1 SSTORE POP PUSH2 0x2333 DUP3 PUSH1 0xE0 ADD MLOAD PUSH2 0x24F5 JUMP JUMPDEST DUP2 PUSH1 0x2 ADD PUSH1 0x14 PUSH2 0x100 EXP DUP2 SLOAD DUP2 PUSH1 0x1 PUSH1 0x1 PUSH1 0x50 SHL SUB MUL NOT AND SWAP1 DUP4 PUSH1 0x1 PUSH1 0x1 PUSH1 0x50 SHL SUB AND MUL OR SWAP1 SSTORE POP PUSH2 0x2368 DUP3 PUSH1 0x20 ADD MLOAD PUSH2 0x2F40 JUMP JUMPDEST DUP2 SLOAD PUSH1 0x1 PUSH1 0x1 PUSH1 0x58 SHL SUB SWAP2 SWAP1 SWAP2 AND PUSH1 0x1 PUSH1 0x28 SHL MUL PUSH16 0xFFFFFFFFFFFFFFFFFFFFFF0000000000 NOT SWAP1 SWAP2 AND OR DUP2 SSTORE PUSH1 0x40 DUP3 ADD MLOAD PUSH2 0x23A2 SWAP1 PUSH2 0x2F40 JUMP JUMPDEST PUSH1 0x1 DUP3 ADD DUP1 SLOAD PUSH11 0xFFFFFFFFFFFFFFFFFFFFFF NOT AND PUSH1 0x1 PUSH1 0x1 PUSH1 0x58 SHL SUB SWAP3 SWAP1 SWAP3 AND SWAP2 SWAP1 SWAP2 OR SWAP1 SSTORE PUSH1 0x80 DUP3 ADD MLOAD PUSH2 0x23D6 SWAP1 PUSH2 0x2F40 JUMP JUMPDEST DUP2 SLOAD PUSH1 0x1 PUSH1 0x1 PUSH1 0x58 SHL SUB SWAP2 SWAP1 SWAP2 AND PUSH1 0x1 PUSH1 0x80 SHL MUL PUSH11 0xFFFFFFFFFFFFFFFFFFFFFF PUSH1 0x80 SHL NOT SWAP1 SWAP2 AND OR DUP2 SSTORE PUSH1 0x60 DUP3 ADD MLOAD PUSH2 0x240E SWAP1 PUSH2 0x24D3 JUMP JUMPDEST DUP2 SLOAD PUSH4 0xFFFFFFFF SWAP2 SWAP1 SWAP2 AND PUSH1 0x1 PUSH1 0xD8 SHL MUL PUSH4 0xFFFFFFFF PUSH1 0xD8 SHL NOT SWAP1 SWAP2 AND OR DUP2 SSTORE DUP3 ISZERO PUSH2 0x245A JUMPI PUSH1 0x0 PUSH2 0x243F DUP5 PUSH2 0x1511 JUMP JUMPDEST SWAP1 POP PUSH2 0x244B DUP6 DUP3 PUSH2 0x2F56 JUMP JUMPDEST PUSH2 0x2458 PUSH2 0xFEE DUP7 DUP4 PUSH2 0x2F8D JUMP JUMPDEST POP JUMPDEST DUP4 PUSH2 0xFFFF AND PUSH32 0xEF25641E225E493886510CA1AD6584FA7B442B9FEA820A29D1DE3CE27D270FD2 DUP4 PUSH1 0xA0 ADD MLOAD DUP5 PUSH1 0xC0 ADD MLOAD DUP6 PUSH1 0xE0 ADD MLOAD PUSH1 0x40 MLOAD PUSH2 0x249E SWAP4 SWAP3 SWAP2 SWAP1 PUSH2 0x539C JUMP JUMPDEST PUSH1 0x40 MLOAD DUP1 SWAP2 SUB SWAP1 LOG2 POP POP POP POP JUMP JUMPDEST PUSH1 0x0 DUP3 PUSH2 0x24BB JUMPI POP PUSH1 0x0 PUSH2 0x924 JUMP JUMPDEST DUP3 DUP3 MUL DUP3 DUP5 DUP3 DUP2 PUSH2 0x24C8 JUMPI INVALID JUMPDEST DIV EQ PUSH2 0x1304 JUMPI PUSH1 0x0 DUP1 REVERT JUMPDEST PUSH1 0x0 PUSH4 0xFFFFFFFF DUP3 GT ISZERO PUSH2 0x1527 JUMPI PUSH1 0x0 DUP1 REVERT JUMPDEST PUSH1 0x0 DUP1 DUP3 SLT ISZERO PUSH2 0x1527 JUMPI PUSH1 0x0 DUP1 REVERT JUMPDEST PUSH1 0x0 PUSH1 0x1 PUSH1 0x1 PUSH1 0x50 SHL SUB DUP3 GT ISZERO PUSH2 0x1527 JUMPI PUSH1 0x0 DUP1 REVERT JUMPDEST PUSH1 0x0 PUSH2 0x2517 DUP7 DUP4 PUSH2 0x3017 JUMP JUMPDEST SWAP1 POP PUSH2 0xE40 DUP7 DUP7 DUP7 PUSH2 0x2529 DUP8 DUP7 PUSH2 0x3050 JUMP JUMPDEST PUSH2 0x30D7 JUMP JUMPDEST PUSH1 0x0 PUSH11 0x7FFFFFFFFFFFFFFFFFFFFF NOT DUP3 SLT DUP1 ISZERO SWAP1 PUSH2 0x2557 JUMPI POP PUSH11 0x7FFFFFFFFFFFFFFFFFFFFF DUP3 SGT ISZERO JUMPDEST PUSH2 0x1527 JUMPI PUSH1 0x0 DUP1 REVERT JUMPDEST PUSH1 0x0 PUSH4 0x5F5E100 DUP4 PUSH1 0x40 ADD MLOAD EQ ISZERO PUSH2 0x2579 JUMPI POP DUP1 PUSH2 0x924 JUMP JUMPDEST PUSH2 0x1304 PUSH4 0x5F5E100 PUSH2 0x8FE DUP6 PUSH1 0x40 ADD MLOAD DUP6 PUSH2 0x1274 SWAP1 SWAP2 SWAP1 PUSH4 0xFFFFFFFF AND JUMP JUMPDEST DUP1 ISZERO PUSH2 0x262A JUMPI PUSH20 0x82AF49447D8A07E3BD95BD0D56F35241523FBAB1 PUSH1 0x1 PUSH1 0x1 PUSH1 0xA0 SHL SUB AND PUSH4 0xD0E30DB0 DUP4 PUSH1 0x40 MLOAD DUP3 PUSH4 0xFFFFFFFF AND PUSH1 0xE0 SHL DUP2 MSTORE PUSH1 0x4 ADD PUSH1 0x0 PUSH1 0x40 MLOAD DUP1 DUP4 SUB DUP2 DUP6 DUP9 DUP1 EXTCODESIZE ISZERO DUP1 ISZERO PUSH2 0x25ED JUMPI PUSH1 0x0 DUP1 REVERT JUMPDEST POP GAS CALL ISZERO DUP1 ISZERO PUSH2 0x2601 JUMPI RETURNDATASIZE PUSH1 0x0 DUP1 RETURNDATACOPY RETURNDATASIZE PUSH1 0x0 REVERT JUMPDEST POP POP POP POP POP PUSH2 0x2625 PUSH20 0x82AF49447D8A07E3BD95BD0D56F35241523FBAB1 DUP5 DUP5 PUSH2 0x310B JUMP JUMPDEST PUSH2 0x2660 JUMP JUMPDEST PUSH1 0x40 MLOAD PUSH1 0x1 PUSH1 0x1 PUSH1 0xA0 SHL SUB DUP5 AND SWAP1 DUP4 ISZERO PUSH2 0x8FC MUL SWAP1 DUP5 SWAP1 PUSH1 0x0 DUP2 DUP2 DUP2 DUP6 DUP9 DUP9 CALL SWAP4 POP POP POP POP ISZERO DUP1 ISZERO PUSH2 0x193F JUMPI RETURNDATASIZE PUSH1 0x0 DUP1 RETURNDATACOPY RETURNDATASIZE PUSH1 0x0 REVERT JUMPDEST POP POP POP JUMP JUMPDEST PUSH1 0x0 DUP1 DUP5 PUSH1 0x1 PUSH1 0x1 PUSH1 0xA0 SHL SUB AND PUSH4 0x70A08231 ADDRESS PUSH1 0x40 MLOAD DUP3 PUSH4 0xFFFFFFFF AND PUSH1 0xE0 SHL DUP2 MSTORE PUSH1 0x4 ADD DUP1 DUP3 PUSH1 0x1 PUSH1 0x1 PUSH1 0xA0 SHL SUB AND DUP2 MSTORE PUSH1 0x20 ADD SWAP2 POP POP PUSH1 0x20 PUSH1 0x40 MLOAD DUP1 DUP4 SUB DUP2 DUP7 DUP1 EXTCODESIZE ISZERO DUP1 ISZERO PUSH2 0x26B5 JUMPI PUSH1 0x0 DUP1 REVERT JUMPDEST POP GAS STATICCALL ISZERO DUP1 ISZERO PUSH2 0x26C9 JUMPI RETURNDATASIZE PUSH1 0x0 DUP1 RETURNDATACOPY RETURNDATASIZE PUSH1 0x0 REVERT JUMPDEST POP POP POP POP PUSH1 0x40 MLOAD RETURNDATASIZE PUSH1 0x20 DUP2 LT ISZERO PUSH2 0x26DF JUMPI PUSH1 0x0 DUP1 REVERT JUMPDEST POP MLOAD PUSH1 0x40 DUP1 MLOAD PUSH4 0x23B872DD PUSH1 0xE0 SHL DUP2 MSTORE PUSH1 0x1 PUSH1 0x1 PUSH1 0xA0 SHL SUB DUP8 DUP2 AND PUSH1 0x4 DUP4 ADD MSTORE ADDRESS PUSH1 0x24 DUP4 ADD MSTORE PUSH1 0x44 DUP3 ADD DUP8 SWAP1 MSTORE SWAP2 MLOAD SWAP3 SWAP4 POP SWAP1 DUP8 AND SWAP2 PUSH4 0x23B872DD SWAP2 PUSH1 0x64 DUP1 DUP3 ADD SWAP3 PUSH1 0x0 SWAP3 SWAP1 SWAP2 SWAP1 DUP3 SWAP1 SUB ADD DUP2 DUP4 DUP8 DUP1 EXTCODESIZE ISZERO DUP1 ISZERO PUSH2 0x273C JUMPI PUSH1 0x0 DUP1 REVERT JUMPDEST POP GAS CALL ISZERO DUP1 ISZERO PUSH2 0x2750 JUMPI RETURNDATASIZE PUSH1 0x0 DUP1 RETURNDATACOPY RETURNDATASIZE PUSH1 0x0 REVERT JUMPDEST POP POP POP POP PUSH2 0x275C PUSH2 0x317E JUMP JUMPDEST PUSH1 0x0 DUP6 PUSH1 0x1 PUSH1 0x1 PUSH1 0xA0 SHL SUB AND PUSH4 0x70A08231 ADDRESS PUSH1 0x40 MLOAD DUP3 PUSH4 0xFFFFFFFF AND PUSH1 0xE0 SHL DUP2 MSTORE PUSH1 0x4 ADD DUP1 DUP3 PUSH1 0x1 PUSH1 0x1 PUSH1 0xA0 SHL SUB AND DUP2 MSTORE PUSH1 0x20 ADD SWAP2 POP POP PUSH1 0x20 PUSH1 0x40 MLOAD DUP1 DUP4 SUB DUP2 DUP7 DUP1 EXTCODESIZE ISZERO DUP1 ISZERO PUSH2 0x27AB JUMPI PUSH1 0x0 DUP1 REVERT JUMPDEST POP GAS STATICCALL ISZERO DUP1 ISZERO PUSH2 0x27BF JUMPI RETURNDATASIZE PUSH1 0x0 DUP1 RETURNDATACOPY RETURNDATASIZE PUSH1 0x0 REVERT JUMPDEST POP POP POP POP PUSH1 0x40 MLOAD RETURNDATASIZE PUSH1 0x20 DUP2 LT ISZERO PUSH2 0x27D5 JUMPI PUSH1 0x0 DUP1 REVERT JUMPDEST POP MLOAD SWAP1 POP PUSH2 0x27E3 DUP2 DUP4 PUSH2 0x1F98 JUMP JUMPDEST SWAP7 SWAP6 POP POP POP POP POP POP JUMP JUMPDEST PUSH1 0x0 DUP1 PUSH2 0x27FA DUP5 DUP7 PUSH2 0x31EF JUMP JUMPDEST SWAP1 POP PUSH2 0x2806 DUP4 DUP3 PUSH2 0x15A4 JUMP JUMPDEST SWAP2 POP PUSH2 0x2813 DUP8 DUP8 DUP5 PUSH2 0x2F8D JUMP JUMPDEST PUSH2 0x281E DUP7 DUP4 DUP4 PUSH2 0x321F JUMP JUMPDEST DUP4 MLOAD PUSH2 0x282A SWAP1 DUP7 PUSH2 0x332B JUMP JUMPDEST POP SWAP6 SWAP5 POP POP POP POP POP JUMP JUMPDEST PUSH1 0x0 DUP2 DUP4 SGT PUSH2 0x1302 JUMPI DUP2 PUSH2 0x1304 JUMP JUMPDEST PUSH1 0x0 DUP1 DUP1 PUSH2 0x2851 DUP5 DUP8 PUSH2 0x1575 JUMP JUMPDEST SWAP1 POP PUSH1 0x0 PUSH2 0x285F DUP6 DUP8 PUSH2 0x1575 JUMP JUMPDEST PUSH1 0x20 DUP10 ADD MLOAD PUSH1 0x60 DUP2 ADD MLOAD PUSH2 0x120 SWAP1 SWAP2 ADD MLOAD PUSH1 0x40 ADD MLOAD SWAP2 SWAP3 POP PUSH1 0x0 SWAP2 PUSH2 0x2883 SWAP2 PUSH2 0x8D1 JUMP JUMPDEST SWAP1 POP DUP1 DUP3 SGT ISZERO PUSH2 0x28A9 JUMPI PUSH2 0x2897 DUP2 DUP9 PUSH2 0x14F8 JUMP JUMPDEST SWAP6 POP SWAP1 POP DUP1 PUSH2 0x28A6 DUP7 DUP10 PUSH2 0x1575 JUMP JUMPDEST SWAP3 POP JUMPDEST PUSH1 0x0 PUSH2 0x28BF DUP11 PUSH1 0x20 ADD MLOAD DUP12 PUSH1 0xC0 ADD MLOAD DUP7 DUP11 PUSH2 0x3385 JUMP JUMPDEST PUSH1 0x20 DUP13 ADD MLOAD PUSH2 0x120 ADD MLOAD PUSH1 0x40 ADD MLOAD SWAP2 SWAP9 POP SWAP2 POP PUSH2 0x28EF SWAP1 PUSH2 0x28E0 SWAP1 DUP6 PUSH2 0x15A4 JUMP JUMPDEST PUSH1 0x20 DUP13 ADD MLOAD PUSH1 0x60 ADD MLOAD SWAP1 PUSH2 0x3412 JUMP JUMPDEST PUSH1 0x20 DUP12 ADD MLOAD PUSH1 0x60 ADD MSTORE PUSH1 0x0 DUP2 SLT ISZERO PUSH2 0x2906 JUMPI PUSH1 0x0 DUP1 REVERT JUMPDEST PUSH1 0x20 DUP11 ADD MLOAD PUSH1 0x40 ADD MLOAD PUSH2 0x2919 SWAP1 DUP3 PUSH2 0x158E JUMP JUMPDEST PUSH1 0x20 DUP12 ADD MLOAD PUSH1 0x40 ADD MSTORE DUP7 SWAP6 POP SWAP4 POP POP POP POP SWAP5 POP SWAP5 SWAP3 POP POP POP JUMP JUMPDEST PUSH1 0x0 DUP1 PUSH2 0x924 PUSH1 0xC PUSH2 0x1DE8 JUMP JUMPDEST PUSH1 0x0 DUP1 PUSH1 0x0 DUP6 GT PUSH2 0x2950 JUMPI PUSH1 0x0 DUP1 REVERT JUMPDEST PUSH1 0x7 DUP6 GT ISZERO PUSH2 0x295E JUMPI PUSH1 0x0 DUP1 REVERT JUMPDEST PUSH1 0x0 PUSH2 0x2969 DUP5 PUSH2 0x2A7B JUMP JUMPDEST SWAP1 POP PUSH1 0x1 JUMPDEST DUP7 DUP2 GT PUSH2 0x29BA JUMPI PUSH1 0x0 PUSH2 0x2983 PUSH2 0x1452 DUP4 PUSH2 0x2A99 JUMP JUMPDEST SWAP1 POP DUP7 DUP2 EQ ISZERO PUSH2 0x299B JUMPI POP SWAP3 POP PUSH1 0x0 SWAP2 POP PUSH2 0x29C0 SWAP1 POP JUMP JUMPDEST DUP7 DUP2 GT ISZERO PUSH2 0x29B1 JUMPI POP SWAP3 POP PUSH1 0x1 SWAP2 POP PUSH2 0x29C0 SWAP1 POP JUMP JUMPDEST POP PUSH1 0x1 ADD PUSH2 0x296E JUMP JUMPDEST POP PUSH1 0x0 DUP1 REVERT JUMPDEST SWAP4 POP SWAP4 SWAP2 POP POP JUMP JUMPDEST PUSH1 0x60 ADD MLOAD PUSH2 0x12C PUSH1 0x8 SWAP2 SWAP1 SWAP2 SHR PUSH1 0xFF AND MUL SWAP1 JUMP JUMPDEST PUSH1 0x0 DUP1 PUSH2 0x29E7 PUSH2 0x342E JUMP JUMPDEST SWAP1 POP PUSH1 0x0 PUSH3 0x76A700 PUSH2 0x29F8 DUP6 PUSH2 0x2A7B JUMP JUMPDEST PUSH1 0x0 DUP10 DUP2 MSTORE PUSH1 0x20 DUP6 DUP2 MSTORE PUSH1 0x40 DUP1 DUP4 KECCAK256 DUP12 DUP5 MSTORE DUP3 MSTORE DUP1 DUP4 KECCAK256 SWAP5 SWAP1 SWAP4 ADD DUP1 DUP4 MSTORE SWAP4 SWAP1 MSTORE KECCAK256 DUP1 SLOAD SWAP2 SWAP3 POP SWAP1 PUSH4 0xFFFFFFFF PUSH1 0x1 PUSH1 0xA0 SHL DUP3 DIV DUP2 AND SWAP2 PUSH1 0x1 PUSH1 0xC0 SHL DUP2 DIV DUP3 AND SWAP2 PUSH1 0x1 PUSH1 0xE0 SHL SWAP1 SWAP2 DIV AND DUP2 PUSH2 0x2A5F JUMPI PUSH1 0x40 MLOAD PUSH3 0x461BCD PUSH1 0xE5 SHL DUP2 MSTORE PUSH1 0x4 ADD PUSH2 0x483 SWAP1 PUSH2 0x5269 JUMP JUMPDEST PUSH2 0x2A6C DUP2 DUP5 DUP5 DUP13 DUP13 PUSH2 0x343B JUMP JUMPDEST SWAP12 SWAP11 POP POP POP POP POP POP POP POP POP POP POP JUMP JUMPDEST PUSH1 0x0 PUSH3 0x76A700 DUP3 LT ISZERO PUSH2 0x2A8D JUMPI PUSH1 0x0 DUP1 REVERT JUMPDEST POP PUSH3 0x76A700 DUP2 MOD SWAP1 SUB SWAP1 JUMP JUMPDEST PUSH1 0x0 DUP2 PUSH1 0x1 EQ ISZERO PUSH2 0x2AAE JUMPI POP PUSH3 0x76A700 PUSH2 0xC53 JUMP JUMPDEST DUP2 PUSH1 0x2 EQ ISZERO PUSH2 0x2AC1 JUMPI POP PUSH3 0xED4E00 PUSH2 0xC53 JUMP JUMPDEST DUP2 PUSH1 0x3 EQ ISZERO PUSH2 0x2AD5 JUMPI POP PUSH4 0x1DA9C00 PUSH2 0xC53 JUMP JUMPDEST DUP2 PUSH1 0x4 EQ ISZERO PUSH2 0x2AE9 JUMPI POP PUSH4 0x3B53800 PUSH2 0xC53 JUMP JUMPDEST DUP2 PUSH1 0x5 EQ ISZERO PUSH2 0x2AFD JUMPI POP PUSH4 0x9450C00 PUSH2 0xC53 JUMP JUMPDEST DUP2 PUSH1 0x6 EQ ISZERO PUSH2 0x2B11 JUMPI POP PUSH4 0x128A1800 PUSH2 0xC53 JUMP JUMPDEST DUP2 PUSH1 0x7 EQ ISZERO PUSH2 0x2B25 JUMPI POP PUSH4 0x25143000 PUSH2 0xC53 JUMP JUMPDEST PUSH1 0x40 MLOAD PUSH3 0x461BCD PUSH1 0xE5 SHL DUP2 MSTORE PUSH1 0x4 ADD PUSH2 0x483 SWAP1 PUSH2 0x52BE JUMP JUMPDEST PUSH1 0x0 DUP2 DUP7 LT PUSH2 0x2B4B JUMPI PUSH1 0x0 DUP1 REVERT JUMPDEST DUP5 DUP3 LT PUSH2 0x2B57 JUMPI PUSH1 0x0 DUP1 REVERT JUMPDEST DUP4 DUP4 LT PUSH2 0x2B83 JUMPI PUSH2 0x2B7C DUP5 PUSH2 0x2B76 DUP9 DUP9 SUB PUSH2 0x1FE4 DUP4 DUP9 SUB DUP12 DUP9 SUB PUSH2 0x24AC JUMP JUMPDEST SWAP1 PUSH2 0x1FBA JUMP JUMPDEST SWAP1 POP PUSH2 0xE40 JUMP JUMPDEST PUSH2 0x2B7C PUSH2 0x2B9A DUP8 DUP8 SUB PUSH2 0x1FE4 DUP7 DUP9 SUB DUP11 DUP8 SUB PUSH2 0x24AC JUMP JUMPDEST DUP6 SWAP1 PUSH2 0x1F98 JUMP JUMPDEST PUSH1 0x0 PUSH2 0x2BAE DUP5 DUP5 DUP5 PUSH2 0x1E68 JUMP JUMPDEST SWAP1 POP PUSH2 0x2BC3 PUSH2 0x2BBC DUP6 PUSH2 0x34B6 JUMP JUMPDEST DUP3 SWAP1 PUSH2 0x1FBA JUMP JUMPDEST SWAP1 POP PUSH1 0x0 PUSH2 0x2BD0 DUP6 PUSH2 0x34C3 JUMP JUMPDEST SWAP1 POP DUP1 DUP3 LT ISZERO PUSH2 0x2BDE JUMPI DUP1 SWAP2 POP JUMPDEST POP SWAP4 SWAP3 POP POP POP JUMP JUMPDEST PUSH1 0x60 ADD MLOAD PUSH3 0x7A120 PUSH1 0x10 SWAP2 SWAP1 SWAP2 SHR PUSH1 0xFF AND MUL PUSH4 0x3B9ACA00 SUB SWAP1 JUMP JUMPDEST PUSH1 0x60 SWAP1 SWAP2 ADD MLOAD PUSH1 0xFF SWAP2 SHR AND PUSH3 0x2625A0 MUL SWAP1 JUMP JUMPDEST PUSH1 0x0 DUP1 DUP3 GT PUSH2 0x2C22 JUMPI PUSH1 0x0 DUP1 REVERT JUMPDEST DUP2 DUP4 DUP2 PUSH2 0x2C2B JUMPI INVALID JUMPDEST DIV SWAP4 SWAP3 POP POP POP JUMP JUMPDEST PUSH1 0x0 PUSH8 0x7FFFFFFFFFFFFFFF DUP3 GT ISZERO PUSH2 0x2C4A JUMPI PUSH1 0x0 DUP1 REVERT JUMPDEST POP PUSH1 0x40 SHL SWAP1 JUMP JUMPDEST PUSH1 0x0 DUP2 PUSH1 0xF SIGNEXTEND PUSH1 0x0 EQ ISZERO PUSH2 0x2C64 JUMPI PUSH1 0x0 DUP1 REVERT JUMPDEST PUSH1 0x0 DUP3 PUSH1 0xF SIGNEXTEND PUSH1 0x40 DUP6 PUSH1 0xF SIGNEXTEND SWAP1 SHL DUP2 PUSH2 0x2C79 JUMPI INVALID JUMPDEST SDIV SWAP1 POP PUSH1 0x1 PUSH1 0x1 PUSH1 0x7F SHL SUB NOT DUP2 SLT DUP1 ISZERO SWAP1 PUSH2 0x2C9B JUMPI POP PUSH1 0x1 PUSH1 0x1 PUSH1 0x7F SHL SUB DUP2 SGT ISZERO JUMPDEST PUSH2 0x1304 JUMPI PUSH1 0x0 DUP1 REVERT JUMPDEST PUSH1 0x0 PUSH1 0xF DUP3 SWAP1 SIGNEXTEND PUSH1 0x1 PUSH1 0x1 PUSH1 0x7F SHL SUB NOT EQ ISZERO PUSH2 0x2CBF JUMPI PUSH1 0x0 DUP1 REVERT JUMPDEST POP PUSH1 0x0 SUB SWAP1 JUMP JUMPDEST PUSH1 0x0 PUSH1 0x1 PUSH1 0x46 SHL DUP3 PUSH1 0xF SIGNEXTEND SLT PUSH2 0x2CDB JUMPI PUSH1 0x0 DUP1 REVERT JUMPDEST PUSH9 0x3FFFFFFFFFFFFFFFFF NOT DUP3 PUSH1 0xF SIGNEXTEND SLT ISZERO PUSH2 0x2CF8 JUMPI POP PUSH1 0x0 PUSH2 0xC53 JUMP JUMPDEST PUSH2 0xC50 PUSH1 0x80 DUP4 PUSH1 0xF SIGNEXTEND PUSH17 0x171547652B82FE1777D0FFDA0D23A7D12 MUL SWAP1 SAR PUSH2 0x34D0 JUMP JUMPDEST PUSH1 0x0 PUSH1 0xF DUP4 DUP2 SIGNEXTEND SWAP1 DUP4 SWAP1 SIGNEXTEND MUL PUSH1 0x40 SAR PUSH1 0x1 PUSH1 0x1 PUSH1 0x7F SHL SUB NOT DUP2 SLT DUP1 ISZERO SWAP1 PUSH2 0x2C9B JUMPI POP PUSH1 0x1 PUSH1 0x1 PUSH1 0x7F SHL SUB DUP2 SGT ISZERO PUSH2 0x1304 JUMPI PUSH1 0x0 DUP1 REVERT JUMPDEST PUSH1 0xF SIGNEXTEND PUSH1 0x40 SAR SWAP1 JUMP JUMPDEST PUSH1 0x0 PUSH2 0x2D67 DUP5 DUP5 DUP5 PUSH2 0x1E68 JUMP JUMPDEST SWAP1 POP PUSH1 0x0 PUSH2 0x2D74 DUP6 PUSH2 0x3F80 JUMP JUMPDEST SWAP1 POP DUP1 DUP3 GT PUSH2 0x2D87 JUMPI PUSH1 0x0 SWAP2 POP POP PUSH2 0x1304 JUMP JUMPDEST DUP1 DUP3 SUB SWAP2 POP PUSH1 0x0 PUSH2 0x2D97 DUP7 PUSH2 0x3F8D JUMP JUMPDEST SWAP1 POP DUP3 DUP2 LT ISZERO PUSH2 0x1F8F JUMPI SWAP6 SWAP5 POP POP POP POP POP JUMP JUMPDEST PUSH1 0x0 DUP1 PUSH2 0x924 PUSH1 0x1D PUSH2 0x1DE8 JUMP JUMPDEST PUSH1 0x0 DUP1 PUSH2 0x2DC2 PUSH2 0x3F9A JUMP JUMPDEST PUSH2 0xFFFF SWAP4 SWAP1 SWAP4 AND PUSH1 0x0 SWAP1 DUP2 MSTORE PUSH1 0x20 SWAP4 SWAP1 SWAP4 MSTORE POP POP PUSH1 0x40 SWAP1 KECCAK256 SLOAD PUSH1 0x1 PUSH1 0x1 PUSH1 0xA0 SHL SUB AND SWAP1 JUMP JUMPDEST PUSH1 0x0 DUP1 PUSH1 0x0 DUP1 PUSH1 0x0 DUP1 PUSH2 0x2DFA DUP10 DUP9 PUSH2 0x3FA7 JUMP JUMPDEST DUP10 MLOAD SWAP1 SWAP6 POP SWAP2 SWAP4 POP SWAP2 POP PUSH1 0x0 SWAP1 PUSH2 0x2E21 SWAP1 PUSH2 0x2E16 SWAP1 DUP12 SWAP1 PUSH2 0x1F98 JUMP JUMPDEST PUSH4 0x3B9ACA00 SWAP1 PUSH2 0x24AC JUMP JUMPDEST SWAP1 POP PUSH2 0x2E5B PUSH2 0x2E50 PUSH4 0x1DA9C00 PUSH2 0x2E38 DUP6 DUP6 PUSH2 0x24AC JUMP JUMPDEST DUP2 PUSH2 0x2E3F JUMPI INVALID JUMPDEST PUSH8 0xDE0B6B3A7640000 SWAP2 SWAP1 DIV PUSH2 0x1FBA JUMP JUMPDEST PUSH1 0xE0 DUP11 ADD MLOAD SWAP1 PUSH2 0x2F0F JUMP JUMPDEST SWAP7 POP PUSH2 0x2E7D PUSH2 0x2E72 PUSH4 0x1DA9C00 PUSH2 0x2E38 DUP8 DUP6 PUSH2 0x24AC JUMP JUMPDEST PUSH1 0xC0 DUP11 ADD MLOAD SWAP1 PUSH2 0x2F0F JUMP JUMPDEST SWAP6 POP DUP2 DUP4 EQ ISZERO PUSH2 0x2E94 JUMPI POP PUSH1 0x0 SWAP4 POP PUSH2 0x2EE9 SWAP2 POP POP JUMP JUMPDEST PUSH1 0x0 PUSH2 0x2EB6 PUSH2 0x2EAB PUSH4 0x1DA9C00 PUSH2 0x2E38 DUP8 DUP7 PUSH2 0x24AC JUMP JUMPDEST PUSH1 0xE0 DUP12 ADD MLOAD SWAP1 PUSH2 0x2F0F JUMP JUMPDEST SWAP1 POP PUSH1 0x0 PUSH2 0x2EC4 DUP10 DUP4 PUSH2 0x1F98 JUMP JUMPDEST SWAP1 POP PUSH2 0x2EE1 DUP9 PUSH2 0x1FE4 DUP4 DUP14 PUSH1 0x40 ADD MLOAD PUSH2 0x24AC SWAP1 SWAP2 SWAP1 PUSH4 0xFFFFFFFF AND JUMP JUMPDEST SWAP7 POP POP POP POP POP POP JUMPDEST SWAP4 POP SWAP4 POP SWAP4 POP SWAP4 JUMP JUMPDEST PUSH1 0x0 PUSH2 0x1304 PUSH2 0x2F09 DUP5 PUSH8 0xDE0B6B3A7640000 PUSH2 0x24AC JUMP JUMPDEST DUP4 PUSH2 0x2C14 JUMP JUMPDEST PUSH1 0x0 PUSH2 0x1304 PUSH2 0x2F1E DUP5 DUP5 PUSH2 0x24AC JUMP JUMPDEST PUSH8 0xDE0B6B3A7640000 PUSH2 0x2C14 JUMP JUMPDEST PUSH1 0x0 PUSH5 0xFFFFFFFFFF DUP3 GT ISZERO PUSH2 0x1527 JUMPI PUSH1 0x0 DUP1 REVERT JUMPDEST PUSH1 0x0 PUSH1 0x1 PUSH1 0x1 PUSH1 0x58 SHL SUB DUP3 GT ISZERO PUSH2 0x1527 JUMPI PUSH1 0x0 DUP1 REVERT JUMPDEST PUSH1 0x0 DUP2 SLT ISZERO PUSH2 0x2F64 JUMPI PUSH1 0x0 DUP1 REVERT JUMPDEST PUSH1 0x0 PUSH2 0x2F72 PUSH2 0xFEE DUP5 PUSH2 0x4042 JUMP JUMPDEST SWAP1 POP PUSH2 0x2F7E DUP2 DUP4 PUSH2 0x158E JUMP JUMPDEST SWAP1 POP PUSH2 0x2660 PUSH2 0xFEE DUP5 DUP4 PUSH2 0x409B JUMP JUMPDEST PUSH1 0x0 PUSH2 0x2F97 PUSH2 0x1B78 JUMP JUMPDEST PUSH2 0xFFFF DUP5 AND PUSH1 0x0 SWAP1 DUP2 MSTORE PUSH1 0x20 SWAP2 SWAP1 SWAP2 MSTORE PUSH1 0x40 SWAP1 DUP2 SWAP1 KECCAK256 SLOAD SWAP1 MLOAD PUSH4 0xAD1C095D PUSH1 0xE0 SHL DUP2 MSTORE PUSH1 0x1 PUSH1 0x1 PUSH1 0xA0 SHL SUB SWAP1 SWAP2 AND SWAP2 POP DUP2 SWAP1 PUSH4 0xAD1C095D SWAP1 PUSH2 0x2FDF SWAP1 DUP8 SWAP1 DUP7 SWAP1 PUSH1 0x4 ADD PUSH2 0x5209 JUMP JUMPDEST PUSH1 0x0 PUSH1 0x40 MLOAD DUP1 DUP4 SUB DUP2 PUSH1 0x0 DUP8 DUP1 EXTCODESIZE ISZERO DUP1 ISZERO PUSH2 0x2FF9 JUMPI PUSH1 0x0 DUP1 REVERT JUMPDEST POP GAS CALL ISZERO DUP1 ISZERO PUSH2 0x300D JUMPI RETURNDATASIZE PUSH1 0x0 DUP1 RETURNDATACOPY RETURNDATASIZE PUSH1 0x0 REVERT JUMPDEST POP POP POP POP POP POP POP POP JUMP JUMPDEST PUSH1 0x0 DUP1 DUP3 SLT ISZERO PUSH2 0x304A JUMPI PUSH2 0x3045 PUSH1 0x1 PUSH2 0x1D30 DUP6 PUSH1 0x20 ADD MLOAD PUSH2 0x8FE DUP8 PUSH1 0x0 ADD MLOAD DUP8 PUSH2 0x1274 SWAP1 SWAP2 SWAP1 PUSH4 0xFFFFFFFF AND JUMP JUMPDEST PUSH2 0x1304 JUMP JUMPDEST POP SWAP2 SWAP1 POP JUMP JUMPDEST PUSH1 0x0 DUP2 DUP4 EQ DUP1 PUSH2 0x306D JUMPI POP PUSH1 0x0 DUP4 SLT ISZERO DUP1 ISZERO PUSH2 0x306D JUMPI POP PUSH1 0x0 DUP3 SLT ISZERO JUMPDEST ISZERO PUSH2 0x307A JUMPI POP PUSH1 0x0 PUSH2 0x924 JUMP JUMPDEST PUSH1 0x0 DUP4 SGT ISZERO DUP1 ISZERO PUSH2 0x308B JUMPI POP DUP2 PUSH1 0x0 SLT JUMPDEST ISZERO PUSH2 0x3097 JUMPI POP DUP2 PUSH2 0x924 JUMP JUMPDEST PUSH1 0x0 DUP3 SGT ISZERO DUP1 ISZERO PUSH2 0x30A8 JUMPI POP DUP3 PUSH1 0x0 SLT JUMPDEST ISZERO PUSH2 0x30B6 JUMPI PUSH2 0x126D DUP3 PUSH2 0xD18 JUMP JUMPDEST PUSH1 0x0 DUP4 SGT ISZERO DUP1 ISZERO PUSH2 0x30C8 JUMPI POP PUSH1 0x0 DUP3 SGT ISZERO JUMPDEST ISZERO PUSH2 0x7B JUMPI PUSH2 0x126D DUP4 DUP4 PUSH2 0x14C1 JUMP JUMPDEST DUP1 ISZERO PUSH2 0x193F JUMPI DUP4 MLOAD PUSH1 0x20 DUP6 ADD MLOAD PUSH1 0x0 SWAP2 PUSH2 0x30F6 SWAP2 PUSH2 0x8FE SWAP1 DUP6 SWAP1 PUSH2 0x1274 JUMP JUMPDEST SWAP1 POP PUSH2 0x3104 DUP5 DUP5 DUP5 DUP5 PUSH2 0x410F JUMP JUMPDEST POP POP POP POP POP JUMP JUMPDEST DUP3 PUSH1 0x1 PUSH1 0x1 PUSH1 0xA0 SHL SUB AND PUSH4 0xA9059CBB DUP4 DUP4 PUSH1 0x40 MLOAD DUP4 PUSH4 0xFFFFFFFF AND PUSH1 0xE0 SHL DUP2 MSTORE PUSH1 0x4 ADD DUP1 DUP4 PUSH1 0x1 PUSH1 0x1 PUSH1 0xA0 SHL SUB AND DUP2 MSTORE PUSH1 0x20 ADD DUP3 DUP2 MSTORE PUSH1 0x20 ADD SWAP3 POP POP POP PUSH1 0x0 PUSH1 0x40 MLOAD DUP1 DUP4 SUB DUP2 PUSH1 0x0 DUP8 DUP1 EXTCODESIZE ISZERO DUP1 ISZERO PUSH2 0x3162 JUMPI PUSH1 0x0 DUP1 REVERT JUMPDEST POP GAS CALL ISZERO DUP1 ISZERO PUSH2 0x3176 JUMPI RETURNDATASIZE PUSH1 0x0 DUP1 RETURNDATACOPY RETURNDATASIZE PUSH1 0x0 REVERT JUMPDEST POP POP POP POP PUSH2 0x2660 JUMPDEST PUSH1 0x0 PUSH2 0x3188 PUSH2 0x4970 JUMP JUMPDEST RETURNDATASIZE DUP1 ISZERO PUSH2 0x319C JUMPI PUSH1 0x20 DUP2 EQ PUSH2 0x31A5 JUMPI PUSH1 0x0 DUP1 REVERT JUMPDEST PUSH1 0x1 SWAP3 POP PUSH2 0x31B0 JUMP JUMPDEST PUSH1 0x20 PUSH1 0x0 DUP4 RETURNDATACOPY DUP2 MLOAD SWAP3 POP JUMPDEST POP DUP2 PUSH2 0x31EB JUMPI PUSH1 0x40 DUP1 MLOAD PUSH3 0x461BCD PUSH1 0xE5 SHL DUP2 MSTORE PUSH1 0x20 PUSH1 0x4 DUP3 ADD MSTORE PUSH1 0x5 PUSH1 0x24 DUP3 ADD MSTORE PUSH5 0x455243323 PUSH1 0xDC SHL PUSH1 0x44 DUP3 ADD MSTORE SWAP1 MLOAD SWAP1 DUP2 SWAP1 SUB PUSH1 0x64 ADD SWAP1 REVERT JUMPDEST POP POP JUMP JUMPDEST PUSH1 0x0 PUSH4 0x5F5E100 DUP4 PUSH1 0x40 ADD MLOAD EQ ISZERO PUSH2 0x3208 JUMPI POP DUP1 PUSH2 0x924 JUMP JUMPDEST PUSH1 0x40 DUP4 ADD MLOAD PUSH2 0x1304 SWAP1 PUSH2 0x8FE DUP5 PUSH4 0x5F5E100 PUSH2 0x1274 JUMP JUMPDEST PUSH1 0x0 PUSH2 0x3229 PUSH2 0x2DAA JUMP JUMPDEST PUSH2 0xFFFF DUP6 AND PUSH1 0x0 SWAP1 DUP2 MSTORE PUSH1 0x20 SWAP2 SWAP1 SWAP2 MSTORE PUSH1 0x40 SWAP1 KECCAK256 DUP1 SLOAD SWAP1 SWAP2 POP PUSH5 0xFFFFFFFFFF AND TIMESTAMP EQ PUSH2 0x3254 JUMPI PUSH1 0x0 DUP1 REVERT JUMPDEST DUP1 SLOAD PUSH1 0x0 SWAP1 PUSH2 0x3273 SWAP1 PUSH1 0x1 PUSH1 0x28 SHL SWAP1 DIV PUSH1 0x1 PUSH1 0x1 PUSH1 0x58 SHL SUB AND DUP6 PUSH2 0x158E JUMP JUMPDEST DUP3 SLOAD SWAP1 SWAP2 POP PUSH1 0x0 SWAP1 PUSH2 0x3295 SWAP1 PUSH1 0x1 PUSH1 0x80 SHL SWAP1 DIV PUSH1 0x1 PUSH1 0x1 PUSH1 0x58 SHL SUB AND DUP6 PUSH2 0x158E JUMP JUMPDEST SWAP1 POP DUP1 PUSH3 0x4C4B40 SGT ISZERO PUSH2 0x32A7 JUMPI PUSH1 0x0 DUP1 REVERT JUMPDEST PUSH2 0x32B8 PUSH2 0x32B3 DUP3 PUSH2 0x24E6 JUMP JUMPDEST PUSH2 0x2F40 JUMP JUMPDEST DUP4 SLOAD PUSH1 0x1 PUSH1 0x1 PUSH1 0x58 SHL SUB SWAP2 SWAP1 SWAP2 AND PUSH1 0x1 PUSH1 0x80 SHL MUL PUSH11 0xFFFFFFFFFFFFFFFFFFFFFF PUSH1 0x80 SHL NOT SWAP1 SWAP2 AND OR DUP4 SSTORE PUSH2 0x32EE PUSH2 0x32B3 DUP4 PUSH2 0x24E6 JUMP JUMPDEST DUP4 SLOAD PUSH1 0x1 PUSH1 0x1 PUSH1 0x58 SHL SUB SWAP2 SWAP1 SWAP2 AND PUSH1 0x1 PUSH1 0x28 SHL MUL PUSH16 0xFFFFFFFFFFFFFFFFFFFFFF0000000000 NOT SWAP1 SWAP2 AND OR DUP4 SSTORE PUSH2 0x3323 DUP4 PUSH2 0x4255 JUMP JUMPDEST POP POP POP POP POP POP JUMP JUMPDEST PUSH1 0x0 PUSH2 0x3335 PUSH2 0x431A JUMP JUMPDEST PUSH1 0x1 PUSH1 0x1 PUSH1 0xA0 SHL SUB DUP5 AND PUSH1 0x0 SWAP1 DUP2 MSTORE PUSH1 0x20 DUP3 SWAP1 MSTORE PUSH1 0x40 SWAP1 KECCAK256 SLOAD SWAP1 SWAP2 POP PUSH2 0x3363 PUSH2 0x335E DUP3 DUP6 PUSH2 0x158E JUMP JUMPDEST PUSH2 0x24E6 JUMP JUMPDEST PUSH1 0x1 PUSH1 0x1 PUSH1 0xA0 SHL SUB SWAP1 SWAP5 AND PUSH1 0x0 SWAP1 DUP2 MSTORE PUSH1 0x20 SWAP3 SWAP1 SWAP3 MSTORE POP PUSH1 0x40 SWAP1 KECCAK256 SWAP2 SWAP1 SWAP2 SSTORE POP JUMP JUMPDEST PUSH1 0x0 DUP1 PUSH1 0x0 PUSH2 0x33B8 DUP7 PUSH2 0x8FE PUSH2 0x33A3 DUP11 PUSH1 0xC0 ADD MLOAD DUP12 PUSH1 0xE0 ADD MLOAD PUSH2 0x4327 JUMP JUMPDEST PUSH1 0xC0 DUP12 ADD MLOAD MLOAD PUSH2 0x8FE SWAP1 PUSH2 0x1351 DUP12 PUSH1 0x64 PUSH2 0x1274 JUMP JUMPDEST SWAP1 POP PUSH1 0x0 PUSH2 0x33D4 DUP3 DUP10 PUSH2 0x100 ADD MLOAD PUSH2 0x15A4 SWAP1 SWAP2 SWAP1 PUSH4 0xFFFFFFFF AND JUMP JUMPDEST SWAP1 POP PUSH1 0x0 PUSH2 0x33E5 DUP10 PUSH1 0x40 ADD MLOAD PUSH2 0xD18 JUMP JUMPDEST SWAP1 POP DUP1 DUP3 SGT ISZERO PUSH2 0x3403 JUMPI PUSH2 0x33FD DUP3 PUSH2 0x8FE DUP9 DUP5 PUSH2 0x1274 JUMP JUMPDEST SWAP6 POP DUP1 SWAP2 POP JUMPDEST POP SWAP4 SWAP8 SWAP4 SWAP7 POP SWAP3 SWAP5 POP POP POP POP POP JUMP JUMPDEST PUSH1 0x0 PUSH2 0x341E DUP4 DUP4 PUSH2 0x14C1 JUMP JUMPDEST SWAP1 POP PUSH1 0x0 DUP2 SLT ISZERO PUSH2 0x924 JUMPI PUSH1 0x0 DUP1 REVERT JUMPDEST PUSH1 0x0 DUP1 PUSH2 0x924 PUSH1 0xA PUSH2 0x1DE8 JUMP JUMPDEST PUSH1 0x0 DUP1 DUP4 GT PUSH2 0x3449 JUMPI PUSH1 0x0 DUP1 REVERT JUMPDEST DUP2 DUP7 GT ISZERO PUSH2 0x3458 JUMPI POP DUP4 PUSH2 0xE40 JUMP JUMPDEST PUSH1 0x0 PUSH2 0x3464 DUP4 DUP9 PUSH2 0x1F98 JUMP JUMPDEST SWAP1 POP DUP4 DUP2 GT ISZERO PUSH2 0x3477 JUMPI DUP6 SWAP2 POP POP PUSH2 0xE40 JUMP JUMPDEST PUSH1 0x0 PUSH2 0x3483 DUP3 DUP7 PUSH2 0x434C JUMP JUMPDEST SWAP1 POP PUSH1 0x0 PUSH2 0x3495 PUSH4 0x3B9ACA00 DUP4 PUSH2 0x1F98 JUMP JUMPDEST SWAP1 POP PUSH2 0x6AE PUSH4 0x3B9ACA00 PUSH2 0x1FE4 PUSH2 0x34AC DUP11 DUP6 PUSH2 0x24AC JUMP JUMPDEST PUSH2 0x2B76 DUP13 DUP8 PUSH2 0x24AC JUMP JUMPDEST PUSH1 0x0 PUSH2 0xC50 DUP3 PUSH1 0x28 PUSH2 0x2C01 JUMP JUMPDEST PUSH1 0x0 PUSH2 0xC50 DUP3 PUSH1 0x30 PUSH2 0x2C01 JUMP JUMPDEST PUSH1 0x0 PUSH1 0x1 PUSH1 0x46 SHL DUP3 PUSH1 0xF SIGNEXTEND SLT PUSH2 0x34E5 JUMPI PUSH1 0x0 DUP1 REVERT JUMPDEST PUSH9 0x3FFFFFFFFFFFFFFFFF NOT DUP3 PUSH1 0xF SIGNEXTEND SLT ISZERO PUSH2 0x3502 JUMPI POP PUSH1 0x0 PUSH2 0xC53 JUMP JUMPDEST PUSH1 0x1 PUSH1 0x7F SHL PUSH1 0x0 PUSH8 0x8000000000000000 DUP5 AND PUSH1 0xF SIGNEXTEND SGT ISZERO PUSH2 0x3534 JUMPI PUSH17 0x16A09E667F3BCC908B2FB1366EA957D3E MUL PUSH1 0x80 SHR JUMPDEST PUSH1 0x0 DUP4 PUSH8 0x4000000000000000 AND PUSH1 0xF SIGNEXTEND SGT ISZERO PUSH2 0x3561 JUMPI PUSH17 0x1306FE0A31B7152DE8D5A46305C85EDEC MUL PUSH1 0x80 SHR JUMPDEST PUSH1 0x0 DUP4 PUSH8 0x2000000000000000 AND PUSH1 0xF SIGNEXTEND SGT ISZERO PUSH2 0x358E JUMPI PUSH17 0x1172B83C7D517ADCDF7C8C50EB14A791F MUL PUSH1 0x80 SHR JUMPDEST PUSH1 0x0 DUP4 PUSH8 0x1000000000000000 AND PUSH1 0xF SIGNEXTEND SGT ISZERO PUSH2 0x35BB JUMPI PUSH17 0x10B5586CF9890F6298B92B71842A98363 MUL PUSH1 0x80 SHR JUMPDEST PUSH1 0x0 DUP4 PUSH8 0x800000000000000 AND PUSH1 0xF SIGNEXTEND SGT ISZERO PUSH2 0x35E8 JUMPI PUSH17 0x1059B0D31585743AE7C548EB68CA417FD MUL PUSH1 0x80 SHR JUMPDEST PUSH1 0x0 DUP4 PUSH8 0x400000000000000 AND PUSH1 0xF SIGNEXTEND SGT ISZERO PUSH2 0x3615 JUMPI PUSH17 0x102C9A3E778060EE6F7CACA4F7A29BDE8 MUL PUSH1 0x80 SHR JUMPDEST PUSH1 0x0 DUP4 PUSH8 0x200000000000000 AND PUSH1 0xF SIGNEXTEND SGT ISZERO PUSH2 0x3642 JUMPI PUSH17 0x10163DA9FB33356D84A66AE336DCDFA3F MUL PUSH1 0x80 SHR JUMPDEST PUSH1 0x0 DUP4 PUSH1 0x1 PUSH1 0x38 SHL AND PUSH1 0xF SIGNEXTEND SGT ISZERO PUSH2 0x366B JUMPI PUSH17 0x100B1AFA5ABCBED6129AB13EC11DC9543 MUL PUSH1 0x80 SHR JUMPDEST PUSH1 0x0 DUP4 PUSH7 0x80000000000000 AND PUSH1 0xF SIGNEXTEND SGT ISZERO PUSH2 0x3697 JUMPI PUSH17 0x10058C86DA1C09EA1FF19D294CF2F679B MUL PUSH1 0x80 SHR JUMPDEST PUSH1 0x0 DUP4 PUSH7 0x40000000000000 AND PUSH1 0xF SIGNEXTEND SGT ISZERO PUSH2 0x36C3 JUMPI PUSH17 0x1002C605E2E8CEC506D21BFC89A23A00F MUL PUSH1 0x80 SHR JUMPDEST PUSH1 0x0 DUP4 PUSH7 0x20000000000000 AND PUSH1 0xF SIGNEXTEND SGT ISZERO PUSH2 0x36EF JUMPI PUSH17 0x100162F3904051FA128BCA9C55C31E5DF MUL PUSH1 0x80 SHR JUMPDEST PUSH1 0x0 DUP4 PUSH7 0x10000000000000 AND PUSH1 0xF SIGNEXTEND SGT ISZERO PUSH2 0x371B JUMPI PUSH17 0x1000B175EFFDC76BA38E31671CA939725 MUL PUSH1 0x80 SHR JUMPDEST PUSH1 0x0 DUP4 PUSH7 0x8000000000000 AND PUSH1 0xF SIGNEXTEND SGT ISZERO PUSH2 0x3747 JUMPI PUSH17 0x100058BA01FB9F96D6CACD4B180917C3D MUL PUSH1 0x80 SHR JUMPDEST PUSH1 0x0 DUP4 PUSH7 0x4000000000000 AND PUSH1 0xF SIGNEXTEND SGT ISZERO PUSH2 0x3773 JUMPI PUSH17 0x10002C5CC37DA9491D0985C348C68E7B3 MUL PUSH1 0x80 SHR JUMPDEST PUSH1 0x0 DUP4 PUSH7 0x2000000000000 AND PUSH1 0xF SIGNEXTEND SGT ISZERO PUSH2 0x379F JUMPI PUSH17 0x1000162E525EE054754457D5995292026 MUL PUSH1 0x80 SHR JUMPDEST PUSH1 0x0 DUP4 PUSH1 0x1 PUSH1 0x30 SHL AND PUSH1 0xF SIGNEXTEND SGT ISZERO PUSH2 0x37C8 JUMPI PUSH17 0x10000B17255775C040618BF4A4ADE83FC MUL PUSH1 0x80 SHR JUMPDEST PUSH1 0x0 DUP4 PUSH6 0x800000000000 AND PUSH1 0xF SIGNEXTEND SGT ISZERO PUSH2 0x37F3 JUMPI PUSH17 0x1000058B91B5BC9AE2EED81E9B7D4CFAB MUL PUSH1 0x80 SHR JUMPDEST PUSH1 0x0 DUP4 PUSH6 0x400000000000 AND PUSH1 0xF SIGNEXTEND SGT ISZERO PUSH2 0x381E JUMPI PUSH17 0x100002C5C89D5EC6CA4D7C8ACC017B7C9 MUL PUSH1 0x80 SHR JUMPDEST PUSH1 0x0 DUP4 PUSH6 0x200000000000 AND PUSH1 0xF SIGNEXTEND SGT ISZERO PUSH2 0x3849 JUMPI PUSH17 0x10000162E43F4F831060E02D839A9D16D MUL PUSH1 0x80 SHR JUMPDEST PUSH1 0x0 DUP4 PUSH6 0x100000000000 AND PUSH1 0xF SIGNEXTEND SGT ISZERO PUSH2 0x3874 JUMPI PUSH17 0x100000B1721BCFC99D9F890EA06911763 MUL PUSH1 0x80 SHR JUMPDEST PUSH1 0x0 DUP4 PUSH6 0x80000000000 AND PUSH1 0xF SIGNEXTEND SGT ISZERO PUSH2 0x389F JUMPI PUSH17 0x10000058B90CF1E6D97F9CA14DBCC1628 MUL PUSH1 0x80 SHR JUMPDEST PUSH1 0x0 DUP4 PUSH6 0x40000000000 AND PUSH1 0xF SIGNEXTEND SGT ISZERO PUSH2 0x38CA JUMPI PUSH17 0x1000002C5C863B73F016468F6BAC5CA2B MUL PUSH1 0x80 SHR JUMPDEST PUSH1 0x0 DUP4 PUSH6 0x20000000000 AND PUSH1 0xF SIGNEXTEND SGT ISZERO PUSH2 0x38F5 JUMPI PUSH17 0x100000162E430E5A18F6119E3C02282A5 MUL PUSH1 0x80 SHR JUMPDEST PUSH1 0x0 DUP4 PUSH1 0x1 PUSH1 0x28 SHL AND PUSH1 0xF SIGNEXTEND SGT ISZERO PUSH2 0x391E JUMPI PUSH17 0x1000000B1721835514B86E6D96EFD1BFE MUL PUSH1 0x80 SHR JUMPDEST PUSH1 0x0 DUP4 PUSH5 0x8000000000 AND PUSH1 0xF SIGNEXTEND SGT ISZERO PUSH2 0x3948 JUMPI PUSH17 0x100000058B90C0B48C6BE5DF846C5B2EF MUL PUSH1 0x80 SHR JUMPDEST PUSH1 0x0 DUP4 PUSH5 0x4000000000 AND PUSH1 0xF SIGNEXTEND SGT ISZERO PUSH2 0x3972 JUMPI PUSH17 0x10000002C5C8601CC6B9E94213C72737A MUL PUSH1 0x80 SHR JUMPDEST PUSH1 0x0 DUP4 PUSH5 0x2000000000 AND PUSH1 0xF SIGNEXTEND SGT ISZERO PUSH2 0x399C JUMPI PUSH17 0x1000000162E42FFF037DF38AA2B219F06 MUL PUSH1 0x80 SHR JUMPDEST PUSH1 0x0 DUP4 PUSH5 0x1000000000 AND PUSH1 0xF SIGNEXTEND SGT ISZERO PUSH2 0x39C6 JUMPI PUSH17 0x10000000B17217FBA9C739AA5819F44F9 MUL PUSH1 0x80 SHR JUMPDEST PUSH1 0x0 DUP4 PUSH5 0x800000000 AND PUSH1 0xF SIGNEXTEND SGT ISZERO PUSH2 0x39F0 JUMPI PUSH17 0x1000000058B90BFCDEE5ACD3C1CEDC823 MUL PUSH1 0x80 SHR JUMPDEST PUSH1 0x0 DUP4 PUSH5 0x400000000 AND PUSH1 0xF SIGNEXTEND SGT ISZERO PUSH2 0x3A1A JUMPI PUSH17 0x100000002C5C85FE31F35A6A30DA1BE50 MUL PUSH1 0x80 SHR JUMPDEST PUSH1 0x0 DUP4 PUSH5 0x200000000 AND PUSH1 0xF SIGNEXTEND SGT ISZERO PUSH2 0x3A44 JUMPI PUSH17 0x10000000162E42FF0999CE3541B9FFFCF MUL PUSH1 0x80 SHR JUMPDEST PUSH1 0x0 DUP4 PUSH5 0x100000000 AND PUSH1 0xF SIGNEXTEND SGT ISZERO PUSH2 0x3A6E JUMPI PUSH17 0x100000000B17217F80F4EF5AADDA45554 MUL PUSH1 0x80 SHR JUMPDEST PUSH1 0x0 DUP4 PUSH4 0x80000000 AND PUSH1 0xF SIGNEXTEND SGT ISZERO PUSH2 0x3A97 JUMPI PUSH17 0x10000000058B90BFBF8479BD5A81B51AD MUL PUSH1 0x80 SHR JUMPDEST PUSH1 0x0 DUP4 PUSH4 0x40000000 AND PUSH1 0xF SIGNEXTEND SGT ISZERO PUSH2 0x3AC0 JUMPI PUSH17 0x1000000002C5C85FDF84BD62AE30A74CC MUL PUSH1 0x80 SHR JUMPDEST PUSH1 0x0 DUP4 PUSH4 0x20000000 AND PUSH1 0xF SIGNEXTEND SGT ISZERO PUSH2 0x3AE9 JUMPI PUSH17 0x100000000162E42FEFB2FED257559BDAA MUL PUSH1 0x80 SHR JUMPDEST PUSH1 0x0 DUP4 PUSH4 0x10000000 AND PUSH1 0xF SIGNEXTEND SGT ISZERO PUSH2 0x3B12 JUMPI PUSH17 0x1000000000B17217F7D5A7716BBA4A9AE MUL PUSH1 0x80 SHR JUMPDEST PUSH1 0x0 DUP4 PUSH4 0x8000000 AND PUSH1 0xF SIGNEXTEND SGT ISZERO PUSH2 0x3B3B JUMPI PUSH17 0x100000000058B90BFBE9DDBAC5E109CCE MUL PUSH1 0x80 SHR JUMPDEST PUSH1 0x0 DUP4 PUSH4 0x4000000 AND PUSH1 0xF SIGNEXTEND SGT ISZERO PUSH2 0x3B64 JUMPI PUSH17 0x10000000002C5C85FDF4B15DE6F17EB0D MUL PUSH1 0x80 SHR JUMPDEST PUSH1 0x0 DUP4 PUSH4 0x2000000 AND PUSH1 0xF SIGNEXTEND SGT ISZERO PUSH2 0x3B8D JUMPI PUSH17 0x1000000000162E42FEFA494F1478FDE05 MUL PUSH1 0x80 SHR JUMPDEST PUSH1 0x0 DUP4 PUSH4 0x1000000 AND PUSH1 0xF SIGNEXTEND SGT ISZERO PUSH2 0x3BB6 JUMPI PUSH17 0x10000000000B17217F7D20CF927C8E94C MUL PUSH1 0x80 SHR JUMPDEST PUSH1 0x0 DUP4 PUSH3 0x800000 AND PUSH1 0xF SIGNEXTEND SGT ISZERO PUSH2 0x3BDE JUMPI PUSH17 0x1000000000058B90BFBE8F71CB4E4B33D MUL PUSH1 0x80 SHR JUMPDEST PUSH1 0x0 DUP4 PUSH3 0x400000 AND PUSH1 0xF SIGNEXTEND SGT ISZERO PUSH2 0x3C06 JUMPI PUSH17 0x100000000002C5C85FDF477B662B26945 MUL PUSH1 0x80 SHR JUMPDEST PUSH1 0x0 DUP4 PUSH3 0x200000 AND PUSH1 0xF SIGNEXTEND SGT ISZERO PUSH2 0x3C2E JUMPI PUSH17 0x10000000000162E42FEFA3AE53369388C MUL PUSH1 0x80 SHR JUMPDEST PUSH1 0x0 DUP4 PUSH3 0x100000 AND PUSH1 0xF SIGNEXTEND SGT ISZERO PUSH2 0x3C56 JUMPI PUSH17 0x100000000000B17217F7D1D351A389D40 MUL PUSH1 0x80 SHR JUMPDEST PUSH1 0x0 DUP4 PUSH3 0x80000 AND PUSH1 0xF SIGNEXTEND SGT ISZERO PUSH2 0x3C7E JUMPI PUSH17 0x10000000000058B90BFBE8E8B2D3D4EDE MUL PUSH1 0x80 SHR JUMPDEST PUSH1 0x0 DUP4 PUSH3 0x40000 AND PUSH1 0xF SIGNEXTEND SGT ISZERO PUSH2 0x3CA6 JUMPI PUSH17 0x1000000000002C5C85FDF4741BEA6E77E MUL PUSH1 0x80 SHR JUMPDEST PUSH1 0x0 DUP4 PUSH3 0x20000 AND PUSH1 0xF SIGNEXTEND SGT ISZERO PUSH2 0x3CCE JUMPI PUSH17 0x100000000000162E42FEFA39FE95583C2 MUL PUSH1 0x80 SHR JUMPDEST PUSH1 0x0 DUP4 PUSH3 0x10000 AND PUSH1 0xF SIGNEXTEND SGT ISZERO PUSH2 0x3CF6 JUMPI PUSH17 0x1000000000000B17217F7D1CFB72B45E1 MUL PUSH1 0x80 SHR JUMPDEST PUSH1 0x0 DUP4 PUSH2 0x8000 AND PUSH1 0xF SIGNEXTEND SGT ISZERO PUSH2 0x3D1D JUMPI PUSH17 0x100000000000058B90BFBE8E7CC35C3F0 MUL PUSH1 0x80 SHR JUMPDEST PUSH1 0x0 DUP4 PUSH2 0x4000 AND PUSH1 0xF SIGNEXTEND SGT ISZERO PUSH2 0x3D44 JUMPI PUSH17 0x10000000000002C5C85FDF473E242EA38 MUL PUSH1 0x80 SHR JUMPDEST PUSH1 0x0 DUP4 PUSH2 0x2000 AND PUSH1 0xF SIGNEXTEND SGT ISZERO PUSH2 0x3D6B JUMPI PUSH17 0x1000000000000162E42FEFA39F02B772C MUL PUSH1 0x80 SHR JUMPDEST PUSH1 0x0 DUP4 PUSH2 0x1000 AND PUSH1 0xF SIGNEXTEND SGT ISZERO PUSH2 0x3D92 JUMPI PUSH17 0x10000000000000B17217F7D1CF7D83C1A MUL PUSH1 0x80 SHR JUMPDEST PUSH1 0x0 DUP4 PUSH2 0x800 AND PUSH1 0xF SIGNEXTEND SGT ISZERO PUSH2 0x3DB9 JUMPI PUSH17 0x1000000000000058B90BFBE8E7BDCBE2E MUL PUSH1 0x80 SHR JUMPDEST PUSH1 0x0 DUP4 PUSH2 0x400 AND PUSH1 0xF SIGNEXTEND SGT ISZERO PUSH2 0x3DE0 JUMPI PUSH17 0x100000000000002C5C85FDF473DEA871F MUL PUSH1 0x80 SHR JUMPDEST PUSH1 0x0 DUP4 PUSH2 0x200 AND PUSH1 0xF SIGNEXTEND SGT ISZERO PUSH2 0x3E07 JUMPI PUSH17 0x10000000000000162E42FEFA39EF44D91 MUL PUSH1 0x80 SHR JUMPDEST PUSH1 0x0 DUP4 PUSH2 0x100 AND PUSH1 0xF SIGNEXTEND SGT ISZERO PUSH2 0x3E2E JUMPI PUSH17 0x100000000000000B17217F7D1CF79E949 MUL PUSH1 0x80 SHR JUMPDEST PUSH1 0x0 DUP4 PUSH1 0x80 AND PUSH1 0xF SIGNEXTEND SGT ISZERO PUSH2 0x3E54 JUMPI PUSH17 0x10000000000000058B90BFBE8E7BCE544 MUL PUSH1 0x80 SHR JUMPDEST PUSH1 0x0 DUP4 PUSH1 0x40 AND PUSH1 0xF SIGNEXTEND SGT ISZERO PUSH2 0x3E7A JUMPI PUSH17 0x1000000000000002C5C85FDF473DE6ECA MUL PUSH1 0x80 SHR JUMPDEST PUSH1 0x0 DUP4 PUSH1 0x20 AND PUSH1 0xF SIGNEXTEND SGT ISZERO PUSH2 0x3EA0 JUMPI PUSH17 0x100000000000000162E42FEFA39EF366F MUL PUSH1 0x80 SHR JUMPDEST PUSH1 0x0 DUP4 PUSH1 0x10 AND PUSH1 0xF SIGNEXTEND SGT ISZERO PUSH2 0x3EC6 JUMPI PUSH17 0x1000000000000000B17217F7D1CF79AFA MUL PUSH1 0x80 SHR JUMPDEST PUSH1 0x0 DUP4 PUSH1 0x8 AND PUSH1 0xF SIGNEXTEND SGT ISZERO PUSH2 0x3EEC JUMPI PUSH17 0x100000000000000058B90BFBE8E7BCD6D MUL PUSH1 0x80 SHR JUMPDEST PUSH1 0x0 DUP4 PUSH1 0x4 AND PUSH1 0xF SIGNEXTEND SGT ISZERO PUSH2 0x3F12 JUMPI PUSH17 0x10000000000000002C5C85FDF473DE6B2 MUL PUSH1 0x80 SHR JUMPDEST PUSH1 0x0 DUP4 PUSH1 0x2 AND PUSH1 0xF SIGNEXTEND SGT ISZERO PUSH2 0x3F38 JUMPI PUSH17 0x1000000000000000162E42FEFA39EF358 MUL PUSH1 0x80 SHR JUMPDEST PUSH1 0x0 DUP4 PUSH1 0x1 AND PUSH1 0xF SIGNEXTEND SGT ISZERO PUSH2 0x3F5E JUMPI PUSH17 0x10000000000000000B17217F7D1CF79AB MUL PUSH1 0x80 SHR JUMPDEST PUSH1 0xF DUP4 DUP2 SIGNEXTEND PUSH1 0x40 SAR PUSH1 0x3F SUB SWAP1 SIGNEXTEND SHR PUSH1 0x1 PUSH1 0x1 PUSH1 0x7F SHL SUB DUP2 GT ISZERO PUSH2 0xC50 JUMPI PUSH1 0x0 DUP1 REVERT JUMPDEST PUSH1 0x0 PUSH2 0xC50 DUP3 PUSH1 0x20 PUSH2 0x2C01 JUMP JUMPDEST PUSH1 0x0 PUSH2 0xC50 DUP3 PUSH1 0x48 PUSH2 0x2C01 JUMP JUMPDEST PUSH1 0x0 DUP1 PUSH2 0x924 PUSH1 0x1F PUSH2 0x1DE8 JUMP JUMPDEST PUSH1 0x0 DUP1 PUSH1 0x0 DUP1 PUSH1 0x0 DUP6 PUSH1 0x20 ADD MLOAD GT ISZERO PUSH2 0x3FF4 JUMPI PUSH2 0x3FF1 PUSH2 0x3FD8 DUP7 PUSH1 0xC0 ADD MLOAD DUP8 PUSH1 0x20 ADD MLOAD PUSH2 0x24AC SWAP1 SWAP2 SWAP1 PUSH4 0xFFFFFFFF AND JUMP JUMPDEST PUSH1 0xE0 DUP8 ADD MLOAD PUSH1 0x40 DUP9 ADD MLOAD PUSH2 0x3FEB SWAP2 PUSH2 0x24AC JUMP JUMPDEST SWAP1 PUSH2 0x434C JUMP JUMPDEST SWAP1 POP JUMPDEST PUSH1 0x0 PUSH2 0x3FFF DUP8 PUSH2 0x435F JUMP JUMPDEST SWAP1 POP PUSH2 0x400B DUP2 DUP4 PUSH2 0x4392 JUMP JUMPDEST SWAP5 POP DUP2 ISZERO PUSH2 0x4022 JUMPI PUSH2 0x401F DUP2 DUP7 PUSH1 0x1 PUSH2 0x4445 JUMP JUMPDEST SWAP4 POP JUMPDEST PUSH1 0x20 DUP7 ADD MLOAD ISZERO PUSH2 0x4039 JUMPI PUSH2 0x4036 DUP6 DUP4 PUSH2 0x44BD JUMP JUMPDEST SWAP3 POP JUMPDEST POP POP SWAP3 POP SWAP3 POP SWAP3 JUMP JUMPDEST PUSH1 0x0 DUP1 PUSH2 0x404D PUSH2 0x122B JUMP JUMPDEST PUSH1 0x1 PUSH1 0x1 PUSH1 0xA0 SHL SUB DUP6 AND PUSH1 0x0 SWAP1 DUP2 MSTORE PUSH1 0x20 DUP3 DUP2 MSTORE PUSH1 0x40 DUP1 DUP4 KECCAK256 PUSH2 0xFFFF DUP9 AND DUP5 MSTORE SWAP1 SWAP2 MSTORE DUP2 KECCAK256 DUP1 SLOAD PUSH1 0x1 PUSH1 0xA8 SHL SWAP1 DIV PUSH1 0xA SWAP1 DUP2 SIGNEXTEND SWAP1 SIGNEXTEND SWAP5 POP SWAP2 SWAP3 POP DUP4 SLT ISZERO PUSH2 0x4093 JUMPI PUSH1 0x0 DUP1 REVERT JUMPDEST POP POP SWAP3 SWAP2 POP POP JUMP JUMPDEST PUSH1 0x0 DUP2 SLT ISZERO PUSH2 0x40A9 JUMPI PUSH1 0x0 DUP1 REVERT JUMPDEST PUSH1 0x0 PUSH2 0x40B3 PUSH2 0x122B JUMP JUMPDEST PUSH1 0x1 PUSH1 0x1 PUSH1 0xA0 SHL SUB DUP6 AND PUSH1 0x0 SWAP1 DUP2 MSTORE PUSH1 0x20 DUP3 DUP2 MSTORE PUSH1 0x40 DUP1 DUP4 KECCAK256 PUSH2 0xFFFF DUP9 AND DUP5 MSTORE SWAP1 SWAP2 MSTORE SWAP1 KECCAK256 SWAP1 SWAP2 POP PUSH2 0x40E4 DUP4 PUSH2 0x252E JUMP JUMPDEST DUP2 SLOAD PUSH1 0xA SWAP2 SWAP1 SWAP2 SIGNEXTEND PUSH1 0x1 PUSH1 0x1 PUSH1 0x58 SHL SUB AND PUSH1 0x1 PUSH1 0xA8 SHL MUL PUSH1 0x1 PUSH1 0x1 PUSH1 0xA8 SHL SUB SWAP1 SWAP2 AND OR SWAP1 SSTORE POP POP POP POP JUMP JUMPDEST PUSH1 0x0 PUSH2 0x4119 PUSH2 0x2DAA JUMP JUMPDEST PUSH2 0xFFFF DUP6 AND PUSH1 0x0 SWAP1 DUP2 MSTORE PUSH1 0x20 SWAP2 SWAP1 SWAP2 MSTORE PUSH1 0x40 SWAP1 KECCAK256 DUP1 SLOAD SWAP1 SWAP2 POP PUSH5 0xFFFFFFFFFF AND TIMESTAMP EQ PUSH2 0x4144 JUMPI PUSH1 0x0 DUP1 REVERT JUMPDEST DUP1 SLOAD PUSH1 0x1 PUSH1 0xF8 SHL SWAP1 DIV PUSH1 0xFF AND PUSH2 0x4159 JUMPI PUSH1 0x0 DUP1 REVERT JUMPDEST PUSH1 0x1 DUP2 ADD SLOAD PUSH1 0x0 SWAP1 PUSH2 0x4174 SWAP1 PUSH1 0x1 PUSH1 0x1 PUSH1 0x58 SHL SUB AND DUP6 PUSH2 0x158E JUMP JUMPDEST DUP3 SLOAD SWAP1 SWAP2 POP PUSH1 0x0 SWAP1 PUSH2 0x4196 SWAP1 PUSH1 0x1 PUSH1 0x28 SHL SWAP1 DIV PUSH1 0x1 PUSH1 0x1 PUSH1 0x58 SHL SUB AND DUP6 PUSH2 0x158E JUMP JUMPDEST SWAP1 POP DUP2 PUSH1 0x9 NOT SLT DUP1 ISZERO PUSH2 0x41A9 JUMPI POP PUSH1 0x0 DUP3 SLT JUMPDEST ISZERO PUSH2 0x41B3 JUMPI PUSH1 0x0 SWAP2 POP JUMPDEST DUP1 PUSH1 0x9 NOT SLT DUP1 ISZERO PUSH2 0x41C4 JUMPI POP PUSH1 0x0 DUP2 SLT JUMPDEST ISZERO PUSH2 0x41CD JUMPI POP PUSH1 0x0 JUMPDEST PUSH2 0x41D9 PUSH2 0x32B3 DUP4 PUSH2 0x24E6 JUMP JUMPDEST PUSH1 0x1 DUP5 ADD DUP1 SLOAD PUSH11 0xFFFFFFFFFFFFFFFFFFFFFF NOT AND PUSH1 0x1 PUSH1 0x1 PUSH1 0x58 SHL SUB SWAP3 SWAP1 SWAP3 AND SWAP2 SWAP1 SWAP2 OR SWAP1 SSTORE PUSH2 0x420B PUSH2 0x32B3 DUP3 PUSH2 0x24E6 JUMP JUMPDEST DUP4 SLOAD PUSH1 0x1 PUSH1 0x1 PUSH1 0x58 SHL SUB SWAP2 SWAP1 SWAP2 AND PUSH1 0x1 PUSH1 0x28 SHL MUL PUSH16 0xFFFFFFFFFFFFFFFFFFFFFF0000000000 NOT SWAP1 SWAP2 AND OR DUP4 SSTORE PUSH2 0x4243 DUP8 DUP8 DUP7 DUP9 PUSH2 0x44D6 JUMP JUMPDEST PUSH2 0x424C DUP4 PUSH2 0x4255 JUMP JUMPDEST POP POP POP POP POP POP POP JUMP JUMPDEST DUP1 SLOAD PUSH1 0x2 DUP3 ADD SLOAD PUSH1 0x0 SWAP2 PUSH2 0x4291 SWAP2 PUSH1 0x1 PUSH1 0x28 SHL SWAP1 SWAP2 DIV PUSH1 0x1 PUSH1 0x1 PUSH1 0x58 SHL SUB AND SWAP1 PUSH2 0x1351 SWAP1 PUSH1 0x1 PUSH1 0x1 PUSH1 0x50 SHL SUB PUSH1 0x1 PUSH1 0x50 SHL DUP3 DIV DUP2 AND SWAP2 AND PUSH2 0x1274 JUMP JUMPDEST PUSH1 0x1 DUP4 ADD SLOAD PUSH1 0x2 DUP5 ADD SLOAD SWAP2 SWAP3 POP PUSH1 0x0 SWAP2 PUSH2 0x42CB SWAP2 PUSH1 0x1 PUSH1 0x1 PUSH1 0x58 SHL SUB AND SWAP1 PUSH2 0x1351 SWAP1 PUSH1 0x1 PUSH1 0x1 PUSH1 0x50 SHL SUB PUSH1 0x1 PUSH1 0xA0 SHL DUP3 DIV DUP2 AND SWAP2 AND PUSH2 0x1274 JUMP JUMPDEST DUP4 SLOAD SWAP1 SWAP2 POP PUSH1 0x0 SWAP1 PUSH2 0x4302 SWAP1 PUSH1 0x1 PUSH1 0x1 PUSH1 0x1 PUSH1 0x58 SHL SUB PUSH1 0x1 PUSH1 0x80 SHL SWAP1 SWAP3 DIV DUP3 AND ADD AND PUSH15 0xC097CE7BC90715B34B9F1000000000 PUSH2 0x1274 JUMP JUMPDEST SWAP1 POP DUP1 PUSH2 0x430F DUP5 DUP5 PUSH2 0x14C1 JUMP JUMPDEST SGT ISZERO PUSH2 0x193F JUMPI PUSH1 0x0 DUP1 REVERT JUMPDEST PUSH1 0x0 DUP1 PUSH2 0x924 PUSH1 0x26 PUSH2 0x1DE8 JUMP JUMPDEST PUSH1 0x0 PUSH2 0x1304 DUP3 PUSH1 0x20 ADD MLOAD PUSH2 0x8FE DUP5 PUSH1 0x0 ADD MLOAD DUP7 PUSH1 0x20 ADD MLOAD PUSH2 0x1274 SWAP1 SWAP2 SWAP1 PUSH4 0xFFFFFFFF AND JUMP JUMPDEST PUSH1 0x0 PUSH2 0x1304 PUSH2 0x2F09 DUP5 PUSH4 0x3B9ACA00 PUSH2 0x24AC JUMP JUMPDEST PUSH2 0x4367 PUSH2 0x498E JUMP JUMPDEST PUSH1 0x0 PUSH2 0x4371 PUSH2 0x45EA JUMP JUMPDEST PUSH2 0xFFFF DUP5 AND PUSH1 0x0 SWAP1 DUP2 MSTORE PUSH1 0x20 SWAP2 SWAP1 SWAP2 MSTORE PUSH1 0x40 DUP2 KECCAK256 SLOAD SWAP2 POP PUSH2 0x1304 SWAP1 DUP3 PUSH2 0x45F7 JUMP JUMPDEST PUSH1 0x0 DUP1 DUP4 PUSH1 0x80 ADD MLOAD GT PUSH2 0x43A4 JUMPI PUSH1 0x0 DUP1 REVERT JUMPDEST PUSH4 0x3B9ACA00 DUP3 GT ISZERO PUSH2 0x43B5 JUMPI PUSH1 0x0 DUP1 REVERT JUMPDEST DUP3 MLOAD DUP3 GT PUSH2 0x43D4 JUMPI DUP3 MLOAD PUSH1 0x40 DUP5 ADD MLOAD PUSH2 0x126D SWAP2 SWAP1 PUSH2 0x1FE4 SWAP1 DUP6 SWAP1 PUSH2 0x24AC JUMP JUMPDEST DUP3 PUSH1 0x20 ADD MLOAD DUP3 GT PUSH2 0x440C JUMPI PUSH1 0x40 DUP4 ADD MLOAD DUP4 MLOAD PUSH1 0x20 DUP6 ADD MLOAD PUSH1 0x60 DUP7 ADD MLOAD PUSH2 0x126D SWAP4 SWAP3 PUSH2 0x2B76 SWAP3 DUP2 SWAP1 SUB SWAP2 PUSH2 0x1FE4 SWAP2 DUP9 SUB SWAP1 DUP6 SWAP1 SUB PUSH2 0x24AC JUMP JUMPDEST PUSH2 0x1304 DUP4 PUSH1 0x60 ADD MLOAD PUSH2 0x2B76 DUP6 PUSH1 0x20 ADD MLOAD PUSH4 0x3B9ACA00 SUB PUSH2 0x1FE4 DUP8 PUSH1 0x60 ADD MLOAD DUP9 PUSH1 0x80 ADD MLOAD SUB DUP9 PUSH1 0x20 ADD MLOAD DUP9 SUB PUSH2 0x24AC SWAP1 SWAP2 SWAP1 PUSH4 0xFFFFFFFF AND JUMP JUMPDEST PUSH1 0x0 DUP1 PUSH2 0x4464 PUSH1 0x64 PUSH2 0x1FE4 DUP8 PUSH1 0xE0 ADD MLOAD DUP8 PUSH2 0x24AC SWAP1 SWAP2 SWAP1 PUSH4 0xFFFFFFFF AND JUMP JUMPDEST SWAP1 POP DUP5 PUSH1 0xA0 ADD MLOAD DUP2 LT ISZERO PUSH2 0x4479 JUMPI POP PUSH1 0xA0 DUP5 ADD MLOAD JUMPDEST DUP5 PUSH1 0xC0 ADD MLOAD DUP2 GT ISZERO PUSH2 0x448C JUMPI POP PUSH1 0xC0 DUP5 ADD MLOAD JUMPDEST DUP3 ISZERO PUSH2 0x44A3 JUMPI PUSH2 0x449C DUP5 DUP3 PUSH2 0x1FBA JUMP JUMPDEST SWAP2 POP PUSH2 0x2BDE JUMP JUMPDEST DUP4 DUP2 GT PUSH2 0x44B2 JUMPI DUP1 DUP5 SUB PUSH2 0xE40 JUMP JUMPDEST POP PUSH1 0x0 SWAP5 SWAP4 POP POP POP POP JUMP JUMPDEST PUSH1 0x0 PUSH2 0x1304 PUSH2 0x44CC DUP5 DUP5 PUSH2 0x24AC JUMP JUMPDEST PUSH4 0x3B9ACA00 PUSH2 0x2C14 JUMP JUMPDEST PUSH1 0x0 PUSH2 0x44E0 PUSH2 0x1B78 JUMP JUMPDEST PUSH2 0xFFFF DUP6 AND PUSH1 0x0 SWAP1 DUP2 MSTORE PUSH1 0x20 SWAP2 SWAP1 SWAP2 MSTORE PUSH1 0x40 DUP2 KECCAK256 SLOAD PUSH1 0x1 PUSH1 0x1 PUSH1 0xA0 SHL SUB AND SWAP2 POP PUSH2 0x4508 PUSH2 0x4716 JUMP JUMPDEST PUSH2 0xFFFF DUP7 AND PUSH1 0x0 SWAP1 DUP2 MSTORE PUSH1 0x20 SWAP2 SWAP1 SWAP2 MSTORE PUSH1 0x40 SWAP1 DUP2 SWAP1 KECCAK256 SLOAD SWAP1 MLOAD PUSH4 0xAD1C095D PUSH1 0xE0 SHL DUP2 MSTORE PUSH1 0x1 PUSH1 0x1 PUSH1 0xA0 SHL SUB SWAP1 SWAP2 AND SWAP2 POP DUP2 SWAP1 PUSH4 0xAD1C095D SWAP1 PUSH2 0x4550 SWAP1 DUP10 SWAP1 DUP8 SWAP1 PUSH1 0x4 ADD PUSH2 0x5209 JUMP JUMPDEST PUSH1 0x0 PUSH1 0x40 MLOAD DUP1 DUP4 SUB DUP2 PUSH1 0x0 DUP8 DUP1 EXTCODESIZE ISZERO DUP1 ISZERO PUSH2 0x456A JUMPI PUSH1 0x0 DUP1 REVERT JUMPDEST POP GAS CALL ISZERO DUP1 ISZERO PUSH2 0x457E JUMPI RETURNDATASIZE PUSH1 0x0 DUP1 RETURNDATACOPY RETURNDATASIZE PUSH1 0x0 REVERT JUMPDEST POP POP PUSH1 0x40 MLOAD PUSH4 0xAD1C095D PUSH1 0xE0 SHL DUP2 MSTORE PUSH1 0x1 PUSH1 0x1 PUSH1 0xA0 SHL SUB DUP6 AND SWAP3 POP PUSH4 0xAD1C095D SWAP2 POP PUSH2 0x45B0 SWAP1 DUP10 SWAP1 DUP9 SWAP1 PUSH1 0x4 ADD PUSH2 0x5209 JUMP JUMPDEST PUSH1 0x0 PUSH1 0x40 MLOAD DUP1 DUP4 SUB DUP2 PUSH1 0x0 DUP8 DUP1 EXTCODESIZE ISZERO DUP1 ISZERO PUSH2 0x45CA JUMPI PUSH1 0x0 DUP1 REVERT JUMPDEST POP GAS CALL ISZERO DUP1 ISZERO PUSH2 0x45DE JUMPI RETURNDATASIZE PUSH1 0x0 DUP1 RETURNDATACOPY RETURNDATASIZE PUSH1 0x0 REVERT JUMPDEST POP POP POP POP POP POP POP POP POP POP JUMP JUMPDEST PUSH1 0x0 DUP1 PUSH2 0x924 PUSH1 0x1B PUSH2 0x1DE8 JUMP JUMPDEST PUSH2 0x45FF PUSH2 0x498E JUMP JUMPDEST PUSH1 0x64 PUSH4 0x3B9ACA00 DUP4 PUSH1 0xFF DUP7 AND PUSH1 0x20 DUP2 LT PUSH2 0x4615 JUMPI INVALID JUMPDEST BYTE MUL DUP2 PUSH2 0x461E JUMPI INVALID JUMPDEST DIV DUP2 MSTORE PUSH1 0x64 PUSH4 0x3B9ACA00 DUP4 PUSH1 0xFF DUP7 AND PUSH1 0x1 ADD PUSH1 0x20 DUP2 LT PUSH2 0x463A JUMPI INVALID JUMPDEST BYTE MUL DUP2 PUSH2 0x4643 JUMPI INVALID JUMPDEST DIV DUP2 PUSH1 0x20 ADD DUP2 DUP2 MSTORE POP POP PUSH2 0x4668 DUP3 PUSH1 0x2 DUP6 PUSH1 0xFF AND ADD PUSH1 0x20 DUP2 LT PUSH2 0x4662 JUMPI INVALID JUMPDEST BYTE PUSH2 0x4723 JUMP JUMPDEST PUSH1 0x80 DUP3 ADD DUP2 SWAP1 MSTORE PUSH2 0x100 SWAP1 DUP4 PUSH1 0xFF DUP7 AND PUSH1 0x3 ADD PUSH1 0x20 DUP2 LT PUSH2 0x4685 JUMPI INVALID JUMPDEST BYTE MUL DUP2 PUSH2 0x468E JUMPI INVALID JUMPDEST DIV PUSH1 0x40 DUP3 ADD MSTORE PUSH1 0x80 DUP2 ADD MLOAD PUSH2 0x100 SWAP1 DUP4 PUSH1 0xFF DUP7 AND PUSH1 0x4 ADD PUSH1 0x20 DUP2 LT PUSH2 0x46AF JUMPI INVALID JUMPDEST BYTE MUL DUP2 PUSH2 0x46B8 JUMPI INVALID JUMPDEST DIV PUSH1 0x60 DUP3 ADD MSTORE PUSH3 0x7A120 DUP3 PUSH1 0xFF DUP6 AND PUSH1 0x5 ADD PUSH1 0x20 DUP2 LT PUSH2 0x46D4 JUMPI INVALID JUMPDEST BYTE MUL PUSH1 0xA0 DUP3 ADD MSTORE PUSH3 0x2625A0 DUP3 PUSH1 0xFF DUP6 AND PUSH1 0x6 ADD PUSH1 0x20 DUP2 LT PUSH2 0x46F1 JUMPI INVALID JUMPDEST BYTE MUL PUSH1 0xC0 DUP3 ADD MSTORE DUP2 PUSH1 0xFF DUP5 AND PUSH1 0x7 ADD PUSH1 0x20 DUP2 LT PUSH2 0x470A JUMPI INVALID JUMPDEST BYTE PUSH1 0xE0 DUP3 ADD MSTORE SWAP3 SWAP2 POP POP JUMP JUMPDEST PUSH1 0x0 DUP1 PUSH2 0x924 PUSH1 0x22 PUSH2 0x1DE8 JUMP JUMPDEST PUSH1 0x0 DUP2 PUSH1 0xFF AND PUSH1 0x96 LT PUSH2 0x473E JUMPI PUSH1 0xFF DUP3 AND PUSH3 0x2625A0 MUL PUSH2 0xC50 JUMP JUMPDEST POP PUSH1 0x95 NOT PUSH1 0xFF SWAP2 SWAP1 SWAP2 AND ADD PUSH3 0xE4E1C0 MUL PUSH4 0x165A0BC0 ADD SWAP1 JUMP JUMPDEST PUSH1 0x40 MLOAD DUP1 PUSH2 0x100 ADD PUSH1 0x40 MSTORE DUP1 PUSH2 0x476B PUSH2 0x47AE JUMP JUMPDEST DUP2 MSTORE PUSH1 0x20 ADD PUSH2 0x4778 PUSH2 0x47E3 JUMP JUMPDEST DUP2 MSTORE PUSH1 0x20 ADD PUSH2 0x4785 PUSH2 0x4868 JUMP JUMPDEST DUP2 MSTORE PUSH1 0x20 ADD PUSH1 0x0 DUP2 MSTORE PUSH1 0x20 ADD PUSH1 0x0 DUP2 MSTORE PUSH1 0x20 ADD PUSH1 0x0 DUP2 MSTORE PUSH1 0x20 ADD PUSH1 0x0 DUP2 MSTORE PUSH1 0x20 ADD PUSH1 0x60 DUP2 MSTORE POP SWAP1 JUMP JUMPDEST PUSH1 0x40 DUP1 MLOAD PUSH1 0xC0 DUP2 ADD DUP3 MSTORE PUSH1 0x0 DUP1 DUP3 MSTORE PUSH1 0x20 DUP3 ADD DUP2 SWAP1 MSTORE SWAP2 DUP2 ADD DUP3 SWAP1 MSTORE PUSH1 0x60 DUP2 ADD DUP3 SWAP1 MSTORE PUSH1 0x80 DUP2 ADD DUP3 SWAP1 MSTORE PUSH1 0xA0 DUP2 ADD SWAP2 SWAP1 SWAP2 MSTORE SWAP1 JUMP JUMPDEST PUSH1 0x40 MLOAD DUP1 PUSH2 0x160 ADD PUSH1 0x40 MSTORE DUP1 PUSH1 0x0 PUSH1 0x1 PUSH1 0x1 PUSH1 0xA0 SHL SUB AND DUP2 MSTORE PUSH1 0x20 ADD PUSH1 0x0 DUP2 MSTORE PUSH1 0x20 ADD PUSH1 0x0 DUP2 MSTORE PUSH1 0x20 ADD PUSH1 0x0 DUP2 MSTORE PUSH1 0x20 ADD PUSH1 0x0 DUP2 MSTORE PUSH1 0x20 ADD PUSH1 0x0 PUSH1 0x1 PUSH1 0x1 PUSH1 0xD0 SHL SUB NOT AND DUP2 MSTORE PUSH1 0x20 ADD PUSH2 0x4834 PUSH2 0x49D3 JUMP JUMPDEST DUP2 MSTORE PUSH1 0x20 ADD PUSH2 0x4841 PUSH2 0x49D3 JUMP JUMPDEST DUP2 MSTORE PUSH1 0x20 ADD PUSH2 0x484E PUSH2 0x4903 JUMP JUMPDEST DUP2 MSTORE PUSH1 0x20 ADD PUSH2 0x485B PUSH2 0x4A02 JUMP JUMPDEST DUP2 MSTORE PUSH1 0x0 PUSH1 0x20 SWAP1 SWAP2 ADD MSTORE SWAP1 JUMP JUMPDEST PUSH1 0x40 MLOAD DUP1 PUSH1 0x80 ADD PUSH1 0x40 MSTORE DUP1 PUSH1 0x60 DUP2 MSTORE PUSH1 0x20 ADD PUSH1 0x60 DUP2 MSTORE PUSH1 0x20 ADD PUSH1 0x0 DUP2 MSTORE PUSH1 0x20 ADD PUSH1 0x0 DUP2 MSTORE POP SWAP1 JUMP JUMPDEST PUSH1 0x40 MLOAD DUP1 PUSH1 0xC0 ADD PUSH1 0x40 MSTORE DUP1 PUSH1 0x0 PUSH2 0xFFFF AND DUP2 MSTORE PUSH1 0x20 ADD PUSH1 0x0 DUP2 MSTORE PUSH1 0x20 ADD PUSH1 0x0 DUP2 MSTORE PUSH1 0x20 ADD PUSH1 0x0 DUP2 MSTORE PUSH1 0x20 ADD PUSH1 0x0 DUP2 MSTORE PUSH1 0x20 ADD PUSH1 0x0 PUSH1 0x3 DUP2 GT ISZERO PUSH2 0x48CF JUMPI INVALID JUMPDEST SWAP1 MSTORE SWAP1 JUMP JUMPDEST PUSH1 0x40 DUP1 MLOAD PUSH1 0xA0 DUP2 ADD DUP3 MSTORE PUSH1 0x0 DUP1 DUP3 MSTORE PUSH1 0x20 DUP3 ADD DUP2 SWAP1 MSTORE SWAP2 DUP2 ADD DUP3 SWAP1 MSTORE SWAP1 PUSH1 0x60 DUP3 ADD SWAP1 DUP2 MSTORE PUSH1 0x20 ADD PUSH1 0x0 DUP2 MSTORE POP SWAP1 JUMP JUMPDEST PUSH1 0x40 MLOAD DUP1 PUSH1 0x60 ADD PUSH1 0x40 MSTORE DUP1 PUSH1 0x0 DUP2 MSTORE PUSH1 0x20 ADD PUSH1 0x0 DUP2 MSTORE PUSH1 0x20 ADD PUSH1 0x0 DUP2 MSTORE POP SWAP1 JUMP JUMPDEST PUSH1 0x40 MLOAD DUP1 PUSH2 0x120 ADD PUSH1 0x40 MSTORE DUP1 PUSH1 0x0 DUP2 MSTORE PUSH1 0x20 ADD PUSH1 0x0 DUP2 MSTORE PUSH1 0x20 ADD PUSH1 0x0 DUP2 MSTORE PUSH1 0x20 ADD PUSH1 0x0 DUP2 MSTORE PUSH1 0x20 ADD PUSH1 0x0 DUP2 MSTORE PUSH1 0x20 ADD PUSH1 0x0 DUP2 MSTORE PUSH1 0x20 ADD PUSH1 0x0 DUP2 MSTORE PUSH1 0x20 ADD PUSH1 0x0 DUP2 MSTORE PUSH1 0x20 ADD PUSH1 0x0 DUP2 MSTORE POP SWAP1 JUMP JUMPDEST PUSH1 0x40 MLOAD DUP1 PUSH1 0x20 ADD PUSH1 0x40 MSTORE DUP1 PUSH1 0x1 SWAP1 PUSH1 0x20 DUP3 MUL DUP1 CALLDATASIZE DUP4 CALLDATACOPY POP SWAP2 SWAP3 SWAP2 POP POP JUMP JUMPDEST PUSH1 0x40 MLOAD DUP1 PUSH2 0x100 ADD PUSH1 0x40 MSTORE DUP1 PUSH1 0x0 DUP2 MSTORE PUSH1 0x20 ADD PUSH1 0x0 DUP2 MSTORE PUSH1 0x20 ADD PUSH1 0x0 DUP2 MSTORE PUSH1 0x20 ADD PUSH1 0x0 DUP2 MSTORE PUSH1 0x20 ADD PUSH1 0x0 DUP2 MSTORE PUSH1 0x20 ADD PUSH1 0x0 DUP2 MSTORE PUSH1 0x20 ADD PUSH1 0x0 DUP2 MSTORE PUSH1 0x20 ADD PUSH1 0x0 DUP2 MSTORE POP SWAP1 JUMP JUMPDEST PUSH1 0x40 MLOAD DUP1 PUSH1 0xA0 ADD PUSH1 0x40 MSTORE DUP1 PUSH1 0x0 DUP2 MSTORE PUSH1 0x20 ADD PUSH1 0x0 DUP2 MSTORE PUSH1 0x20 ADD PUSH1 0x0 DUP2 MSTORE PUSH1 0x20 ADD PUSH1 0x0 DUP2 MSTORE PUSH1 0x20 ADD PUSH1 0x0 DUP2 MSTORE POP SWAP1 JUMP JUMPDEST PUSH1 0x40 DUP1 MLOAD PUSH1 0x80 DUP2 ADD DUP3 MSTORE PUSH1 0x0 DUP1 DUP3 MSTORE PUSH1 0x20 DUP3 ADD MSTORE SWAP1 DUP2 ADD PUSH2 0x485B PUSH2 0x4903 JUMP JUMPDEST DUP1 MLOAD PUSH2 0xC53 DUP2 PUSH2 0x53D5 JUMP JUMPDEST PUSH1 0x0 DUP3 PUSH1 0x1F DUP4 ADD SLT PUSH2 0x4A3C JUMPI DUP1 DUP2 REVERT JUMPDEST DUP2 MLOAD PUSH1 0x20 PUSH1 0x1 PUSH1 0x1 PUSH1 0x40 SHL SUB DUP1 DUP4 GT ISZERO PUSH2 0x4A52 JUMPI INVALID JUMPDEST PUSH2 0x4A5F DUP3 DUP4 DUP6 MUL ADD PUSH2 0x53B2 JUMP JUMPDEST DUP4 DUP2 MSTORE DUP3 DUP2 ADD SWAP1 DUP7 DUP5 ADD PUSH1 0xC0 DUP1 DUP8 MUL DUP10 ADD DUP7 ADD DUP11 LT ISZERO PUSH2 0x4A7D JUMPI DUP8 DUP9 REVERT JUMPDEST DUP8 JUMPDEST DUP8 DUP2 LT ISZERO PUSH2 0x4B07 JUMPI DUP2 DUP4 DUP13 SUB SLT ISZERO PUSH2 0x4A95 JUMPI DUP9 DUP10 REVERT JUMPDEST PUSH1 0x40 DUP1 MLOAD DUP4 DUP2 ADD DUP2 DUP2 LT DUP10 DUP3 GT OR ISZERO PUSH2 0x4AAA JUMPI INVALID JUMPDEST DUP3 MSTORE DUP5 MLOAD PUSH2 0x4AB7 DUP2 PUSH2 0x53ED JUMP JUMPDEST DUP2 MSTORE DUP5 DUP10 ADD MLOAD DUP10 DUP3 ADD MSTORE DUP2 DUP6 ADD MLOAD SWAP2 DUP2 ADD SWAP2 SWAP1 SWAP2 MSTORE PUSH1 0x60 DUP1 DUP6 ADD MLOAD SWAP1 DUP3 ADD MSTORE PUSH1 0x80 DUP1 DUP6 ADD MLOAD SWAP1 DUP3 ADD MSTORE PUSH1 0xA0 SWAP1 PUSH2 0x4AEE DUP3 DUP7 ADD PUSH2 0x4BB6 JUMP JUMPDEST SWAP2 DUP2 ADD SWAP2 SWAP1 SWAP2 MSTORE DUP6 MSTORE SWAP4 DUP7 ADD SWAP4 SWAP2 DUP2 ADD SWAP2 PUSH1 0x1 ADD PUSH2 0x4A7F JUMP JUMPDEST POP SWAP2 SWAP10 SWAP9 POP POP POP POP POP POP POP POP POP JUMP JUMPDEST PUSH1 0x0 DUP1 DUP4 PUSH1 0x1F DUP5 ADD SLT PUSH2 0x4B27 JUMPI DUP2 DUP3 REVERT JUMPDEST POP DUP2 CALLDATALOAD PUSH1 0x1 PUSH1 0x1 PUSH1 0x40 SHL SUB DUP2 GT ISZERO PUSH2 0x4B3D JUMPI DUP2 DUP3 REVERT JUMPDEST PUSH1 0x20 DUP4 ADD SWAP2 POP DUP4 PUSH1 0x20 DUP1 DUP4 MUL DUP6 ADD ADD GT ISZERO PUSH2 0x4B57 JUMPI PUSH1 0x0 DUP1 REVERT JUMPDEST SWAP3 POP SWAP3 SWAP1 POP JUMP JUMPDEST DUP1 MLOAD DUP1 ISZERO ISZERO DUP2 EQ PUSH2 0xC53 JUMPI PUSH1 0x0 DUP1 REVERT JUMPDEST DUP1 MLOAD PUSH1 0x1 PUSH1 0x1 PUSH1 0x70 SHL SUB NOT DUP2 AND DUP2 EQ PUSH2 0xC53 JUMPI PUSH1 0x0 DUP1 REVERT JUMPDEST DUP1 MLOAD PUSH1 0x1 PUSH1 0x1 PUSH1 0xF8 SHL SUB NOT DUP2 AND DUP2 EQ PUSH2 0xC53 JUMPI PUSH1 0x0 DUP1 REVERT JUMPDEST DUP1 MLOAD PUSH1 0x1 PUSH1 0x1 PUSH1 0xD0 SHL SUB NOT DUP2 AND DUP2 EQ PUSH2 0xC53 JUMPI PUSH1 0x0 DUP1 REVERT JUMPDEST DUP1 MLOAD PUSH1 0x4 DUP2 LT PUSH2 0xC53 JUMPI PUSH1 0x0 DUP1 REVERT JUMPDEST PUSH1 0x0 PUSH1 0xC0 DUP3 DUP5 SUB SLT ISZERO PUSH2 0x4BD6 JUMPI DUP1 DUP2 REVERT JUMPDEST PUSH1 0x40 MLOAD PUSH1 0xC0 DUP2 ADD DUP2 DUP2 LT PUSH1 0x1 PUSH1 0x1 PUSH1 0x40 SHL SUB DUP3 GT OR ISZERO PUSH2 0x4BF2 JUMPI INVALID JUMPDEST DUP1 PUSH1 0x40 MSTORE POP DUP1 SWAP2 POP DUP3 MLOAD PUSH5 0xFFFFFFFFFF DUP2 AND DUP2 EQ PUSH2 0x4C0F JUMPI PUSH1 0x0 DUP1 REVERT JUMPDEST DUP2 MSTORE PUSH2 0x4C1D PUSH1 0x20 DUP5 ADD PUSH2 0x4B86 JUMP JUMPDEST PUSH1 0x20 DUP3 ADD MSTORE PUSH2 0x4C2E PUSH1 0x40 DUP5 ADD PUSH2 0x4DA3 JUMP JUMPDEST PUSH1 0x40 DUP3 ADD MSTORE PUSH2 0x4C3F PUSH1 0x60 DUP5 ADD PUSH2 0x4D98 JUMP JUMPDEST PUSH1 0x60 DUP3 ADD MSTORE PUSH2 0x4C50 PUSH1 0x80 DUP5 ADD PUSH2 0x4B6E JUMP JUMPDEST PUSH1 0x80 DUP3 ADD MSTORE PUSH2 0x4C61 PUSH1 0xA0 DUP5 ADD PUSH2 0x4B5E JUMP JUMPDEST PUSH1 0xA0 DUP3 ADD MSTORE POP SWAP3 SWAP2 POP POP JUMP JUMPDEST PUSH1 0x0 PUSH1 0xC0 DUP3 DUP5 SUB SLT ISZERO PUSH2 0x4C7E JUMPI DUP1 DUP2 REVERT JUMPDEST PUSH1 0x40 MLOAD PUSH1 0x80 DUP2 ADD DUP2 DUP2 LT PUSH1 0x1 PUSH1 0x1 PUSH1 0x40 SHL SUB DUP3 GT OR ISZERO PUSH2 0x4C9A JUMPI INVALID JUMPDEST DUP1 PUSH1 0x40 MSTORE POP DUP1 SWAP2 POP DUP3 MLOAD PUSH2 0x4CAD DUP2 PUSH2 0x53ED JUMP JUMPDEST DUP2 MSTORE PUSH1 0x20 DUP4 DUP2 ADD MLOAD SWAP1 DUP3 ADD MSTORE PUSH2 0x4CC6 DUP5 PUSH1 0x40 DUP6 ADD PUSH2 0x4D44 JUMP JUMPDEST PUSH1 0x40 DUP3 ADD MSTORE PUSH1 0xA0 DUP4 ADD MLOAD PUSH1 0x60 DUP3 ADD MSTORE POP SWAP3 SWAP2 POP POP JUMP JUMPDEST PUSH1 0x0 PUSH1 0xA0 DUP3 DUP5 SUB SLT ISZERO PUSH2 0x4CED JUMPI DUP1 DUP2 REVERT JUMPDEST PUSH1 0x40 MLOAD PUSH1 0xA0 DUP2 ADD DUP2 DUP2 LT PUSH1 0x1 PUSH1 0x1 PUSH1 0x40 SHL SUB DUP3 GT OR ISZERO PUSH2 0x4D09 JUMPI INVALID JUMPDEST DUP1 PUSH1 0x40 MSTORE POP DUP1 SWAP2 POP DUP3 MLOAD DUP2 MSTORE PUSH1 0x20 DUP4 ADD MLOAD PUSH1 0x20 DUP3 ADD MSTORE PUSH1 0x40 DUP4 ADD MLOAD PUSH1 0x40 DUP3 ADD MSTORE PUSH1 0x60 DUP4 ADD MLOAD PUSH1 0x60 DUP3 ADD MSTORE PUSH1 0x80 DUP4 ADD MLOAD PUSH1 0x80 DUP3 ADD MSTORE POP SWAP3 SWAP2 POP POP JUMP JUMPDEST PUSH1 0x0 PUSH1 0x60 DUP3 DUP5 SUB SLT ISZERO PUSH2 0x4D55 JUMPI DUP1 DUP2 REVERT JUMPDEST PUSH1 0x40 MLOAD PUSH1 0x60 DUP2 ADD DUP2 DUP2 LT PUSH1 0x1 PUSH1 0x1 PUSH1 0x40 SHL SUB DUP3 GT OR ISZERO PUSH2 0x4D71 JUMPI INVALID JUMPDEST DUP1 PUSH1 0x40 MSTORE POP DUP1 SWAP2 POP DUP3 MLOAD DUP2 MSTORE PUSH1 0x20 DUP4 ADD MLOAD PUSH1 0x20 DUP3 ADD MSTORE PUSH1 0x40 DUP4 ADD MLOAD PUSH1 0x40 DUP3 ADD MSTORE POP SWAP3 SWAP2 POP POP JUMP JUMPDEST DUP1 MLOAD PUSH2 0xC53 DUP2 PUSH2 0x53ED JUMP JUMPDEST DUP1 MLOAD PUSH1 0xFF DUP2 AND DUP2 EQ PUSH2 0xC53 JUMPI PUSH1 0x0 DUP1 REVERT JUMPDEST PUSH1 0x0 DUP1 PUSH1 0x0 DUP1 PUSH1 0x0 DUP1 PUSH1 0x80 DUP8 DUP10 SUB SLT ISZERO PUSH2 0x4DCC JUMPI DUP2 DUP3 REVERT JUMPDEST DUP7 CALLDATALOAD PUSH2 0x4DD7 DUP2 PUSH2 0x53D5 JUMP JUMPDEST SWAP6 POP PUSH1 0x20 DUP8 ADD CALLDATALOAD PUSH2 0x4DE7 DUP2 PUSH2 0x53ED JUMP JUMPDEST SWAP5 POP PUSH1 0x40 DUP8 ADD CALLDATALOAD PUSH1 0x1 PUSH1 0x1 PUSH1 0x40 SHL SUB DUP1 DUP3 GT ISZERO PUSH2 0x4E02 JUMPI DUP4 DUP5 REVERT JUMPDEST PUSH2 0x4E0E DUP11 DUP4 DUP12 ADD PUSH2 0x4B16 JUMP JUMPDEST SWAP1 SWAP7 POP SWAP5 POP PUSH1 0x60 DUP10 ADD CALLDATALOAD SWAP2 POP DUP1 DUP3 GT ISZERO PUSH2 0x4E26 JUMPI DUP4 DUP5 REVERT JUMPDEST POP PUSH2 0x4E33 DUP10 DUP3 DUP11 ADD PUSH2 0x4B16 JUMP JUMPDEST SWAP8 SWAP11 SWAP7 SWAP10 POP SWAP5 SWAP8 POP SWAP3 SWAP6 SWAP4 SWAP5 SWAP3 POP POP POP JUMP JUMPDEST PUSH1 0x0 DUP1 PUSH1 0x0 DUP1 PUSH1 0x0 DUP1 PUSH1 0x0 PUSH1 0xA0 DUP9 DUP11 SUB SLT ISZERO PUSH2 0x4E5F JUMPI DUP5 DUP6 REVERT JUMPDEST DUP8 CALLDATALOAD PUSH2 0x4E6A DUP2 PUSH2 0x53D5 JUMP JUMPDEST SWAP7 POP PUSH1 0x20 DUP9 ADD CALLDATALOAD PUSH2 0x4E7A DUP2 PUSH2 0x53ED JUMP JUMPDEST SWAP6 POP PUSH1 0x40 DUP9 ADD CALLDATALOAD PUSH2 0x4E8A DUP2 PUSH2 0x53ED JUMP JUMPDEST SWAP5 POP PUSH1 0x60 DUP9 ADD CALLDATALOAD PUSH1 0x1 PUSH1 0x1 PUSH1 0x40 SHL SUB DUP1 DUP3 GT ISZERO PUSH2 0x4EA5 JUMPI DUP3 DUP4 REVERT JUMPDEST PUSH2 0x4EB1 DUP12 DUP4 DUP13 ADD PUSH2 0x4B16 JUMP JUMPDEST SWAP1 SWAP7 POP SWAP5 POP PUSH1 0x80 DUP11 ADD CALLDATALOAD SWAP2 POP DUP1 DUP3 GT ISZERO PUSH2 0x4EC9 JUMPI DUP3 DUP4 REVERT JUMPDEST POP PUSH2 0x4ED6 DUP11 DUP3 DUP12 ADD PUSH2 0x4B16 JUMP JUMPDEST SWAP9 SWAP12 SWAP8 SWAP11 POP SWAP6 SWAP9 POP SWAP4 SWAP7 SWAP3 SWAP6 SWAP3 SWAP4 POP POP POP JUMP JUMPDEST PUSH1 0x0 DUP1 PUSH2 0x180 DUP4 DUP6 SUB SLT ISZERO PUSH2 0x4EFC JUMPI DUP2 DUP3 REVERT JUMPDEST PUSH2 0x4F06 DUP5 DUP5 PUSH2 0x4BC5 JUMP JUMPDEST SWAP2 POP PUSH2 0x4F15 DUP5 PUSH1 0xC0 DUP6 ADD PUSH2 0x4BC5 JUMP JUMPDEST SWAP1 POP SWAP3 POP SWAP3 SWAP1 POP JUMP JUMPDEST PUSH1 0x0 DUP1 PUSH1 0x0 DUP4 DUP6 SUB PUSH2 0x420 DUP2 SLT ISZERO PUSH2 0x4F34 JUMPI DUP2 DUP3 REVERT JUMPDEST PUSH2 0x4F3E DUP7 DUP7 PUSH2 0x4BC5 JUMP JUMPDEST SWAP4 POP PUSH2 0x340 PUSH1 0xBF NOT DUP3 ADD SLT ISZERO PUSH2 0x4F52 JUMPI DUP2 DUP3 REVERT JUMPDEST POP PUSH2 0x160 PUSH2 0x4F5F DUP2 PUSH2 0x53B2 JUMP JUMPDEST PUSH2 0x4F6B PUSH1 0xC0 DUP8 ADD PUSH2 0x4A21 JUMP JUMPDEST DUP2 MSTORE PUSH1 0xE0 DUP7 ADD MLOAD PUSH1 0x20 DUP3 ADD MSTORE PUSH2 0x100 DUP1 DUP8 ADD MLOAD PUSH1 0x40 DUP4 ADD MSTORE PUSH2 0x120 DUP1 DUP9 ADD MLOAD PUSH1 0x60 DUP5 ADD MSTORE PUSH2 0x140 DUP1 DUP10 ADD MLOAD PUSH1 0x80 DUP6 ADD MSTORE PUSH2 0x4FA6 DUP6 DUP11 ADD PUSH2 0x4B9E JUMP JUMPDEST PUSH1 0xA0 DUP6 ADD MSTORE PUSH2 0x4FB9 DUP11 PUSH2 0x180 DUP12 ADD PUSH2 0x4CDC JUMP JUMPDEST PUSH1 0xC0 DUP6 ADD MSTORE PUSH2 0x4FCC DUP11 PUSH2 0x220 DUP12 ADD PUSH2 0x4CDC JUMP JUMPDEST PUSH1 0xE0 DUP6 ADD MSTORE PUSH2 0x4FDF DUP11 PUSH2 0x2C0 DUP12 ADD PUSH2 0x4D44 JUMP JUMPDEST DUP4 DUP6 ADD MSTORE PUSH2 0x4FF1 DUP11 PUSH2 0x320 DUP12 ADD PUSH2 0x4C6D JUMP JUMPDEST DUP3 DUP6 ADD MSTORE PUSH2 0x5002 PUSH2 0x3E0 DUP11 ADD PUSH2 0x4B5E JUMP JUMPDEST SWAP1 DUP5 ADD MSTORE POP POP PUSH2 0x400 DUP7 ADD MLOAD SWAP1 SWAP4 POP SWAP1 POP PUSH1 0x1 PUSH1 0x1 PUSH1 0x40 SHL SUB DUP2 GT ISZERO PUSH2 0x5026 JUMPI DUP2 DUP3 REVERT JUMPDEST PUSH2 0x5032 DUP7 DUP3 DUP8 ADD PUSH2 0x4A2C JUMP JUMPDEST SWAP2 POP POP SWAP3 POP SWAP3 POP SWAP3 JUMP JUMPDEST PUSH1 0x0 DUP1 PUSH1 0x40 DUP4 DUP6 SUB SLT ISZERO PUSH2 0x504E JUMPI DUP2 DUP3 REVERT JUMPDEST POP POP DUP1 MLOAD PUSH1 0x20 SWAP1 SWAP2 ADD MLOAD SWAP1 SWAP3 SWAP1 SWAP2 POP JUMP JUMPDEST PUSH1 0x0 DUP2 MLOAD DUP1 DUP5 MSTORE PUSH1 0x20 DUP1 DUP6 ADD SWAP5 POP DUP1 DUP5 ADD DUP4 JUMPDEST DUP4 DUP2 LT ISZERO PUSH2 0x508E JUMPI DUP2 MLOAD DUP8 MSTORE SWAP6 DUP3 ADD SWAP6 SWAP1 DUP3 ADD SWAP1 PUSH1 0x1 ADD PUSH2 0x5072 JUMP JUMPDEST POP SWAP5 SWAP6 SWAP5 POP POP POP POP POP JUMP JUMPDEST DUP1 MLOAD PUSH5 0xFFFFFFFFFF AND DUP3 MSTORE PUSH1 0x20 DUP1 DUP3 ADD MLOAD PUSH1 0x1 PUSH1 0x1 PUSH1 0xF8 SHL SUB NOT AND SWAP1 DUP4 ADD MSTORE PUSH1 0x40 DUP1 DUP3 ADD MLOAD PUSH1 0xFF AND SWAP1 DUP4 ADD MSTORE PUSH1 0x60 DUP1 DUP3 ADD MLOAD PUSH2 0xFFFF AND SWAP1 DUP4 ADD MSTORE PUSH1 0x80 DUP1 DUP3 ADD MLOAD PUSH1 0x1 PUSH1 0x1 PUSH1 0x70 SHL SUB NOT AND SWAP1 DUP4 ADD MSTORE PUSH1 0xA0 SWAP1 DUP2 ADD MLOAD ISZERO ISZERO SWAP2 ADD MSTORE JUMP JUMPDEST PUSH1 0x1 PUSH1 0x1 PUSH1 0xA0 SHL SUB SWAP2 SWAP1 SWAP2 AND DUP2 MSTORE PUSH1 0x20 ADD SWAP1 JUMP JUMPDEST PUSH1 0x1 PUSH1 0x1 PUSH1 0xA0 SHL SUB SWAP3 DUP4 AND DUP2 MSTORE SWAP2 AND PUSH1 0x20 DUP3 ADD MSTORE PUSH1 0x40 ADD SWAP1 JUMP JUMPDEST PUSH1 0x0 PUSH2 0x1E0 DUP1 DUP4 ADD PUSH1 0x1 DUP1 PUSH1 0xA0 SHL SUB DUP1 DUP11 AND DUP6 MSTORE PUSH1 0x20 DUP2 DUP11 AND DUP2 DUP8 ADD MSTORE PUSH1 0x40 SWAP2 POP PUSH2 0x514F DUP3 DUP8 ADD DUP11 PUSH2 0x5099 JUMP JUMPDEST PUSH2 0x515D PUSH2 0x100 DUP8 ADD DUP10 PUSH2 0x5099 JUMP JUMPDEST PUSH2 0x1C0 DUP7 ADD SWAP4 SWAP1 SWAP4 MSTORE DUP6 MLOAD SWAP2 DUP3 SWAP1 MSTORE PUSH2 0x200 DUP6 ADD SWAP3 DUP1 DUP8 ADD SWAP3 DUP6 JUMPDEST DUP2 DUP2 LT ISZERO PUSH2 0x51D4 JUMPI DUP5 MLOAD DUP1 MLOAD PUSH2 0xFFFF AND DUP8 MSTORE DUP4 DUP2 ADD MLOAD DUP5 DUP9 ADD MSTORE DUP5 DUP2 ADD MLOAD DUP6 DUP9 ADD MSTORE PUSH1 0x60 DUP1 DUP3 ADD MLOAD SWAP1 DUP9 ADD MSTORE PUSH1 0x80 DUP1 DUP3 ADD MLOAD SWAP1 DUP9 ADD MSTORE PUSH1 0xA0 SWAP1 DUP2 ADD MLOAD SWAP1 PUSH1 0x4 DUP3 LT PUSH2 0x51BF JUMPI INVALID JUMPDEST DUP8 ADD MSTORE PUSH1 0xC0 SWAP1 SWAP6 ADD SWAP5 SWAP4 DUP3 ADD SWAP4 PUSH1 0x1 ADD PUSH2 0x5178 JUMP JUMPDEST POP SWAP4 SWAP12 SWAP11 POP POP POP POP POP POP POP POP POP POP POP JUMP JUMPDEST PUSH1 0x1 PUSH1 0x1 PUSH1 0xA0 SHL SUB SWAP4 DUP5 AND DUP2 MSTORE SWAP2 SWAP1 SWAP3 AND PUSH1 0x20 DUP3 ADD MSTORE PUSH1 0x40 DUP2 ADD SWAP2 SWAP1 SWAP2 MSTORE PUSH1 0x60 ADD SWAP1 JUMP JUMPDEST PUSH1 0x1 PUSH1 0x1 PUSH1 0xA0 SHL SUB SWAP3 SWAP1 SWAP3 AND DUP3 MSTORE PUSH1 0x20 DUP3 ADD MSTORE PUSH1 0x40 ADD SWAP1 JUMP JUMPDEST PUSH1 0x1 PUSH1 0x1 PUSH1 0xA0 SHL SUB SWAP4 SWAP1 SWAP4 AND DUP4 MSTORE PUSH2 0xFFFF SWAP2 DUP3 AND PUSH1 0x20 DUP5 ADD MSTORE AND PUSH1 0x40 DUP3 ADD MSTORE PUSH1 0x60 ADD SWAP1 JUMP JUMPDEST PUSH1 0x0 PUSH1 0x40 DUP3 MSTORE PUSH2 0x525A PUSH1 0x40 DUP4 ADD DUP6 PUSH2 0x505F JUMP JUMPDEST SWAP1 POP DUP3 PUSH1 0x20 DUP4 ADD MSTORE SWAP4 SWAP3 POP POP POP JUMP JUMPDEST PUSH1 0x20 DUP1 DUP3 MSTORE PUSH1 0x16 SWAP1 DUP3 ADD MSTORE PUSH22 0x13585C9AD95D081B9BDD081A5B9A5D1A585B1A5E9959 PUSH1 0x52 SHL PUSH1 0x40 DUP3 ADD MSTORE PUSH1 0x60 ADD SWAP1 JUMP JUMPDEST PUSH1 0x20 DUP1 DUP3 MSTORE PUSH1 0xB SWAP1 DUP3 ADD MSTORE PUSH11 0x4554482042616C616E6365 PUSH1 0xA8 SHL PUSH1 0x40 DUP3 ADD MSTORE PUSH1 0x60 ADD SWAP1 JUMP JUMPDEST PUSH1 0x20 DUP1 DUP3 MSTORE PUSH1 0xD SWAP1 DUP3 ADD MSTORE PUSH13 0x92DCECC2D8D2C840D2DCC8CAF PUSH1 0x9B SHL PUSH1 0x40 DUP3 ADD MSTORE PUSH1 0x60 ADD SWAP1 JUMP JUMPDEST PUSH1 0x20 DUP1 DUP3 MSTORE PUSH1 0x8 SWAP1 DUP3 ADD MSTORE PUSH8 0x12185CC81919589D PUSH1 0xC2 SHL PUSH1 0x40 DUP3 ADD MSTORE PUSH1 0x60 ADD SWAP1 JUMP JUMPDEST PUSH1 0x20 DUP1 DUP3 MSTORE PUSH1 0x8 SWAP1 DUP3 ADD MSTORE PUSH8 0x9CCACE4086C2E6D PUSH1 0xC3 SHL PUSH1 0x40 DUP3 ADD MSTORE PUSH1 0x60 ADD SWAP1 JUMP JUMPDEST PUSH2 0xFFFF DUP8 DUP2 AND DUP3 MSTORE DUP7 AND PUSH1 0x20 DUP3 ADD MSTORE PUSH1 0x40 DUP2 ADD DUP6 SWAP1 MSTORE PUSH1 0xA0 PUSH1 0x60 DUP3 ADD DUP2 SWAP1 MSTORE DUP2 ADD DUP4 SWAP1 MSTORE PUSH1 0x0 PUSH1 0x1 PUSH1 0x1 PUSH1 0xFB SHL SUB DUP5 GT ISZERO PUSH2 0x5362 JUMPI DUP1 DUP2 REVERT JUMPDEST PUSH1 0x20 DUP5 MUL DUP1 DUP7 PUSH1 0xC0 DUP6 ADD CALLDATACOPY DUP1 DUP4 ADD SWAP1 POP PUSH1 0xC0 DUP2 ADD DUP3 DUP2 MSTORE PUSH1 0xC0 DUP5 DUP4 SUB ADD PUSH1 0x80 DUP6 ADD MSTORE PUSH2 0x538E DUP2 DUP7 PUSH2 0x505F JUMP JUMPDEST SWAP11 SWAP10 POP POP POP POP POP POP POP POP POP POP JUMP JUMPDEST SWAP3 DUP4 MSTORE PUSH1 0x20 DUP4 ADD SWAP2 SWAP1 SWAP2 MSTORE PUSH1 0x40 DUP3 ADD MSTORE PUSH1 0x60 ADD SWAP1 JUMP JUMPDEST PUSH1 0x40 MLOAD DUP2 DUP2 ADD PUSH1 0x1 PUSH1 0x1 PUSH1 0x40 SHL SUB DUP2 GT DUP3 DUP3 LT OR ISZERO PUSH2 0x53CD JUMPI INVALID JUMPDEST PUSH1 0x40 MSTORE SWAP2 SWAP1 POP JUMP JUMPDEST PUSH1 0x1 PUSH1 0x1 PUSH1 0xA0 SHL SUB DUP2 AND DUP2 EQ PUSH2 0x53EA JUMPI PUSH1 0x0 DUP1 REVERT JUMPDEST POP JUMP JUMPDEST PUSH2 0xFFFF DUP2 AND DUP2 EQ PUSH2 0x53EA JUMPI PUSH1 0x0 DUP1 REVERT INVALID LOG2 PUSH5 0x6970667358 0x22 SLT KECCAK256 0x2D SWAP5 LOG3 PUSH21 0x2C64CE43A60B1EB94048D0E56D493EBC7E39B23D1 COINBASE 0xAA 0xB7 CALLVALUE PUSH31 0x4CEF64736F6C63430007060033000000000000000000000000000000000000 ","sha1":"4b04bf17bd8ee291eebf4c8d483e1255295d78e4","source":"// SPDX-License-Identifier: BSUL-1.1\npragma solidity =0.7.6;\npragma abicoder v2;\n\nimport {\n    AccountContext,\n    PrimeRate,\n    LiquidationFactors\n} from \"../../global/Types.sol\";\nimport {SafeInt256} from \"../../math/SafeInt256.sol\";\n\nimport {ActionGuards} from \"./ActionGuards.sol\";\nimport {AccountContextHandler} from \"../../internal/AccountContextHandler.sol\";\nimport {LiquidatefCash} from \"../../internal/liquidation/LiquidatefCash.sol\";\nimport {LiquidationHelpers} from \"../../internal/liquidation/LiquidationHelpers.sol\";\nimport {BalanceHandler} from \"../../internal/balances/BalanceHandler.sol\";\nimport {PrimeRateLib} from \"../../internal/pCash/PrimeRateLib.sol\";\n\nimport {FreeCollateralExternal} from \"../FreeCollateralExternal.sol\";\nimport {SettleAssetsExternal} from \"../SettleAssetsExternal.sol\";\n\ncontract LiquidatefCashAction is ActionGuards {\n    using AccountContextHandler for AccountContext;\n    using PrimeRateLib for PrimeRate;\n    using SafeInt256 for int256;\n\n    /// @notice Calculates fCash local liquidation amounts, may settle account so this can be called off\n    // chain using a static call\n    /// @param liquidateAccount account to liquidate\n    /// @param localCurrency local currency to liquidate\n    /// @param fCashMaturities array of fCash maturities in the local currency to purchase, must be\n    /// ordered descending\n    /// @param maxfCashLiquidateAmounts max notional of fCash to liquidate in corresponding maturity,\n    /// zero will represent no maximum\n    /// @return an array of the notional amounts of fCash to transfer, corresponding to fCashMaturities\n    /// @return amount of local currency required from the liquidator\n    function calculatefCashLocalLiquidation(\n        address liquidateAccount,\n        uint16 localCurrency,\n        uint256[] calldata fCashMaturities,\n        uint256[] calldata maxfCashLiquidateAmounts\n    ) external nonReentrant returns (int256[] memory, int256) {\n        uint256 blockTime = block.timestamp;\n        LiquidatefCash.fCashContext memory c =\n            _liquidateLocal(\n                liquidateAccount,\n                localCurrency,\n                fCashMaturities,\n                maxfCashLiquidateAmounts,\n                blockTime\n            );\n\n        return (c.fCashNotionalTransfers, c.localPrimeCashFromLiquidator);\n    }\n\n    /// @notice Liquidates fCash using local currency\n    /// @param liquidateAccount account to liquidate\n    /// @param localCurrency local currency to liquidate\n    /// @param fCashMaturities array of fCash maturities in the local currency to purchase, must be ordered\n    /// descending\n    /// @param maxfCashLiquidateAmounts max notional of fCash to liquidate in corresponding maturity,\n    /// zero will represent no maximum\n    /// @return an array of the notional amounts of fCash to transfer, corresponding to fCashMaturities\n    /// @return amount of local currency required from the liquidator\n    function liquidatefCashLocal(\n        address liquidateAccount,\n        uint16 localCurrency,\n        uint256[] calldata fCashMaturities,\n        uint256[] calldata maxfCashLiquidateAmounts\n    ) external payable nonReentrant returns (int256[] memory, int256) {\n        require(fCashMaturities.length > 0);\n        uint256 blockTime = block.timestamp;\n        LiquidatefCash.fCashContext memory c =\n            _liquidateLocal(\n                liquidateAccount,\n                localCurrency,\n                fCashMaturities,\n                maxfCashLiquidateAmounts,\n                blockTime\n            );\n\n        LiquidatefCash.finalizefCashLiquidation(\n            liquidateAccount,\n            msg.sender,\n            localCurrency,\n            localCurrency,\n            fCashMaturities,\n            c\n        );\n\n        return (c.fCashNotionalTransfers, c.localPrimeCashFromLiquidator);\n    }\n\n    /// @notice Calculates fCash cross currency liquidation, can be called via staticcall off chain\n    /// @param liquidateAccount account to liquidate\n    /// @param localCurrency local currency to liquidate\n    /// @param fCashCurrency currency of fCash to purchase\n    /// @param fCashMaturities array of fCash maturities in the local currency to purchase, must be ordered\n    /// descending\n    /// @param maxfCashLiquidateAmounts max notional of fCash to liquidate in corresponding maturity, zero\n    /// will represent no maximum\n    /// @return an array of the notional amounts of fCash to transfer, corresponding to fCashMaturities\n    /// @return amount of local currency required from the liquidator\n    function calculatefCashCrossCurrencyLiquidation(\n        address liquidateAccount,\n        uint16 localCurrency,\n        uint16 fCashCurrency,\n        uint256[] calldata fCashMaturities,\n        uint256[] calldata maxfCashLiquidateAmounts\n    ) external nonReentrant returns (int256[] memory, int256) {\n        uint256 blockTime = block.timestamp;\n        LiquidatefCash.fCashContext memory c =\n            _liquidateCrossCurrency(\n                liquidateAccount,\n                localCurrency,\n                fCashCurrency,\n                fCashMaturities,\n                maxfCashLiquidateAmounts,\n                blockTime\n            );\n\n        return (c.fCashNotionalTransfers, c.localPrimeCashFromLiquidator);\n    }\n\n    /// @notice Liquidates fCash across local to collateral currency\n    /// @param liquidateAccount account to liquidate\n    /// @param localCurrency local currency to liquidate\n    /// @param fCashCurrency currency of fCash to purchase\n    /// @param fCashMaturities array of fCash maturities in the local currency to purchase, must be ordered\n    /// descending\n    /// @param maxfCashLiquidateAmounts max notional of fCash to liquidate in corresponding maturity, zero\n    /// will represent no maximum\n    /// @return an array of the notional amounts of fCash to transfer, corresponding to fCashMaturities\n    /// @return amount of local currency required from the liquidator\n    function liquidatefCashCrossCurrency(\n        address liquidateAccount,\n        uint16 localCurrency,\n        uint16 fCashCurrency,\n        uint256[] calldata fCashMaturities,\n        uint256[] calldata maxfCashLiquidateAmounts\n    ) external payable nonReentrant returns (int256[] memory, int256) {\n        require(fCashMaturities.length > 0);\n        uint256 blockTime = block.timestamp;\n\n        LiquidatefCash.fCashContext memory c =\n            _liquidateCrossCurrency(\n                liquidateAccount,\n                localCurrency,\n                fCashCurrency,\n                fCashMaturities,\n                maxfCashLiquidateAmounts,\n                blockTime\n            );\n\n        LiquidatefCash.finalizefCashLiquidation(\n            liquidateAccount,\n            msg.sender,\n            localCurrency,\n            fCashCurrency,\n            fCashMaturities,\n            c\n        );\n\n        return (c.fCashNotionalTransfers, c.localPrimeCashFromLiquidator);\n    }\n\n    function _liquidateLocal(\n        address liquidateAccount,\n        uint16 localCurrency,\n        uint256[] calldata fCashMaturities,\n        uint256[] calldata maxfCashLiquidateAmounts,\n        uint256 blockTime\n    ) private returns (LiquidatefCash.fCashContext memory) {\n        require(fCashMaturities.length == maxfCashLiquidateAmounts.length);\n        LiquidatefCash.fCashContext memory c;\n        (c.accountContext, c.factors, c.portfolio) = LiquidationHelpers.preLiquidationActions(\n            liquidateAccount,\n            localCurrency,\n            0\n        );\n\n        // prettier-ignore\n        (\n            int256 cashBalance,\n            /* int256 nTokenBalance */,\n            /* uint256 lastClaimTime */,\n            /* uint256 accountIncentiveDebt */\n        ) = BalanceHandler.getBalanceStorage(liquidateAccount, localCurrency, c.factors.localPrimeRate);\n        // Cash balance is used if liquidating negative fCash\n        c.localCashBalanceUnderlying = c.factors.localPrimeRate.convertToUnderlying(cashBalance);\n        c.fCashNotionalTransfers = new int256[](fCashMaturities.length);\n\n        LiquidatefCash.liquidatefCashLocal(\n            liquidateAccount,\n            localCurrency,\n            fCashMaturities,\n            maxfCashLiquidateAmounts,\n            c,\n            blockTime\n        );\n\n        return c;\n    }\n\n    function _liquidateCrossCurrency(\n        address liquidateAccount,\n        uint16 localCurrency,\n        uint16 fCashCurrency,\n        uint256[] calldata fCashMaturities,\n        uint256[] calldata maxfCashLiquidateAmounts,\n        uint256 blockTime\n    ) private returns (LiquidatefCash.fCashContext memory) {\n        require(fCashMaturities.length == maxfCashLiquidateAmounts.length); // dev: fcash maturity length mismatch\n        LiquidatefCash.fCashContext memory c;\n        (c.accountContext, c.factors, c.portfolio) = LiquidationHelpers.preLiquidationActions(\n            liquidateAccount,\n            localCurrency,\n            fCashCurrency\n        );\n        c.fCashNotionalTransfers = new int256[](fCashMaturities.length);\n\n        LiquidatefCash.liquidatefCashCrossCurrency(\n            liquidateAccount,\n            fCashCurrency,\n            fCashMaturities,\n            maxfCashLiquidateAmounts,\n            c,\n            blockTime\n        );\n\n        return c;\n    }\n\n    /// @notice Get a list of deployed library addresses (sorted by library name)\n    function getLibInfo() external pure returns (address, address) {\n        return (address(FreeCollateralExternal), address(SettleAssetsExternal));\n    }\n}\n","sourcePath":"contracts/external/actions/LiquidatefCashAction.sol","type":"contract","deployment":{"address":"0xA87A4acF5015eCAD81faa80E860Ef8B225a555F4","chainid":"42161","blockHeight":182817645}}