{"bytecode":"6101406040523480156200001257600080fd5b5060405162003f3438038062003f34833981016040819052620000359162000099565b6001600160601b0319606097881b811660805294871b851660a05292861b841660c052600180546001600160a01b039093166001600160a01b03199093169290921790915590151560f81b60e05291831b811661010052911b16610120526200015f565b600080600080600080600060e0888a031215620000b4578283fd5b8751620000c18162000146565b6020890151909750620000d48162000146565b6040890151909650620000e78162000146565b6060890151909550620000fa8162000146565b60808901519094506200010d8162000146565b60a0890151909350620001208162000146565b60c0890151909250801515811462000136578182fd5b8091505092959891949750929550565b6001600160a01b03811681146200015c57600080fd5b50565b60805160601c60a05160601c60c05160601c60e05160f81c6101005160601c6101205160601c613ced6200024760003980610fe5528061109b52806110d452508061034e52806108f55280610c985280611d135250806115a75250806102e2528061224552508061038a52806103e55280610638528061070b5280610767528061085c52806110095280611ced5250806103065280610aa55280610b3652806111cf528061120f52806112c1528061144352806114d352806116e852806117a1528061194652806119d652806121bf528061268e5280612764528061281c5250613ced6000f3fe6080604052600436106100ec5760003560e01c8063b12ffdad1161008a578063d99a9c9c11610059578063d99a9c9c1461024b578063f2fde38b1461027a578063f3fef3a31461029a578063fc2db717146102ba576100f3565b8063b12ffdad146101c8578063b4dcfc77146101e8578063c2243379146101fd578063c39994441461021d576100f3565b80638a3843e0116100c65780638a3843e01461015a5780638da5cb5b14610171578063920f5c8414610186578063ad5c4648146101b3576100f3565b806306c63840146100f85780634aa07e6414610123578063858dccb314610145576100f3565b366100f357005b600080fd5b34801561010457600080fd5b5061010d6102cf565b60405161011a9190613b79565b60405180910390f35b34801561012f57600080fd5b506101386102e0565b60405161011a919061370f565b34801561015157600080fd5b50610138610304565b34801561016657600080fd5b5061016f610328565b005b34801561017d57600080fd5b50610138610332565b34801561019257600080fd5b506101a66101a1366004612f6a565b610341565b60405161011a9190613aa7565b3480156101bf57600080fd5b5061013861085a565b3480156101d457600080fd5b5061016f6101e3366004613083565b61087e565b3480156101f457600080fd5b506101386108f3565b34801561020957600080fd5b5061016f610218366004612f16565b610917565b34801561022957600080fd5b5061023d610238366004612e31565b610a9f565b60405161011a929190613ab2565b34801561025757600080fd5b5061026b610266366004612e94565b610bca565b60405161011a93929190613be1565b34801561028657600080fd5b5061016f610295366004612e31565b610eeb565b3480156102a657600080fd5b5061016f6102b5366004612e69565b610f5d565b3480156102c657600080fd5b50610138610fe3565b600154600160a01b900461ffff1681565b7f000000000000000000000000000000000000000000000000000000000000000081565b7f000000000000000000000000000000000000000000000000000000000000000081565b610330611007565b565b6001546001600160a01b031681565b6000336001600160a01b037f0000000000000000000000000000000000000000000000000000000000000000161461037857600080fd5b60006103868385018561334b565b90507f00000000000000000000000000000000000000000000000000000000000000006001600160a01b03168b8b60008181106103bf57fe5b90506020020160208101906103d49190612e31565b6001600160a01b03161415610475577f00000000000000000000000000000000000000000000000000000000000000006001600160a01b0316632e1a7d4d8a8a600081811061041f57fe5b905060200201356040518263ffffffff1660e01b81526004016104429190613bd8565b600060405180830381600087803b15801561045c57600080fd5b505af1158015610470573d6000803e3d6000fd5b505050505b608081015151156104a7576000816080015180602001905181019061049a9190613576565b90506104a58161107d565b505b6000815160ff1660038111156104b957fe5b60038111156104c457fe5b141561050c57610507818c8c808060200260200160405190810160405280939291908181526020018383602002808284376000920191909152506110fb92505050565b61062c565b6001815160ff16600381111561051e57fe5b600381111561052957fe5b141561056c57610507818c8c8080602002602001604051908101604052809392919081815260200183836020028082843760009201919091525061135d92505050565b6002815160ff16600381111561057e57fe5b600381111561058957fe5b14156105cc57610507818c8c8080602002602001604051908101604052809392919081815260200183836020028082843760009201919091525061160292505050565b6003815160ff1660038111156105de57fe5b60038111156105e957fe5b141561062c5761062c818c8c8080602002602001604051908101604052809392919081815260200183836020028082843760009201919091525061186092505050565b8060600151156106ab577f00000000000000000000000000000000000000000000000000000000000000006001600160a01b031663d0e30db0476040518263ffffffff1660e01b81526004016000604051808303818588803b15801561069157600080fd5b505af11580156106a5573d6000803e3d6000fd5b50505050505b6001815160ff1660038111156106bd57fe5b60038111156106c857fe5b14806106ee57506003815160ff1660038111156106e157fe5b60038111156106ec57fe5b145b156106fc576106fc81611aad565b806060015115801561076057507f00000000000000000000000000000000000000000000000000000000000000006001600160a01b03168b8b600081811061074057fe5b90506020020160208101906107559190612e31565b6001600160a01b0316145b156107da577f00000000000000000000000000000000000000000000000000000000000000006001600160a01b031663d0e30db0476040518263ffffffff1660e01b81526004016000604051808303818588803b1580156107c057600080fd5b505af11580156107d4573d6000803e3d6000fd5b50505050505b806020015115610847576108478b8b60008181106107f457fe5b90506020020160208101906108099190612e31565b6108428989600081811061081957fe5b905060200201358c8c600081811061082d57fe5b90506020020135611b5390919063ffffffff16565b611bb6565b60019150505b9998505050505050505050565b7f000000000000000000000000000000000000000000000000000000000000000081565b6001546001600160a01b031633146108b15760405162461bcd60e51b81526004016108a890613b44565b60405180910390fd5b60005b818110156108ee576108e58383838181106108cb57fe5b90506020020160208101906108e091906135a8565b611cce565b506001016108b4565b505050565b7f000000000000000000000000000000000000000000000000000000000000000081565b6001546001600160a01b031633146109415760405162461bcd60e51b81526004016108a890613b44565b60005b82811015610a995783838281811061095857fe5b905060200201602081019061096d9190612e31565b6001600160a01b031663095ea7b38360006040518363ffffffff1660e01b815260040161099b929190613946565b602060405180830381600087803b1580156109b557600080fd5b505af11580156109c9573d6000803e3d6000fd5b505050506040513d601f19601f820116820180604052508101906109ed91906130c2565b508383828181106109fa57fe5b9050602002016020810190610a0f9190612e31565b6001600160a01b031663095ea7b3836000196040518363ffffffff1660e01b8152600401610a3e929190613946565b602060405180830381600087803b158015610a5857600080fd5b505af1158015610a6c573d6000803e3d6000fd5b505050506040513d601f19601f82011682018060405250810190610a9091906130c2565b50600101610944565b50505050565b600060607f00000000000000000000000000000000000000000000000000000000000000006001600160a01b031663f667f897846040518263ffffffff1660e01b8152600401610aef919061370f565b600060405180830381600087803b158015610b0957600080fd5b505af1158015610b1d573d6000803e3d6000fd5b50506040516330e6651160e21b81526001600160a01b037f000000000000000000000000000000000000000000000000000000000000000016925063c39994449150610b6d90869060040161370f565b60006040518083038186803b158015610b8557600080fd5b505afa158015610b99573d6000803e3d6000fd5b505050506040513d6000823e601f3d908101601f19168201604052610bc191908101906130de565b91509150915091565b600154600090819081906001600160a01b03163314610bfb5760405162461bcd60e51b81526004016108a890613b44565b6040805160018082528183019092526000916020808301908036833750506040805160018082528183019092529293506000929150602080830190803683370190505090508a82600081518110610c4e57fe5b60200260200101906001600160a01b031690816001600160a01b0316815250508981600081518110610c7c57fe5b60209081029190910101526040805160018082528183019092527f00000000000000000000000000000000000000000000000000000000000000006001600160a01b03169163ab9c4b5d9130918691869181602001602082028036833701905050308f8f60006040518963ffffffff1660e01b8152600401610d0598979695949392919061389a565b600060405180830381600087803b158015610d1f57600080fd5b505af1158015610d33573d6000803e3d6000fd5b50506040516370a0823160e01b81526001600160a01b038e1692506370a082319150610d6390309060040161370f565b60206040518083038186803b158015610d7b57600080fd5b505afa158015610d8f573d6000803e3d6000fd5b505050506040513d601f19601f82011682018060405250810190610db391906135c4565b94506001600160a01b03871615610e45576040516370a0823160e01b81526001600160a01b038816906370a0823190610df090309060040161370f565b60206040518083038186803b158015610e0857600080fd5b505afa158015610e1c573d6000803e3d6000fd5b505050506040513d601f19601f82011682018060405250810190610e4091906135c4565b610e47565b475b93506001600160a01b03861615610ed9576040516370a0823160e01b81526001600160a01b038716906370a0823190610e8490309060040161370f565b60206040518083038186803b158015610e9c57600080fd5b505afa158015610eb0573d6000803e3d6000fd5b505050506040513d601f19601f82011682018060405250810190610ed491906135c4565b610edb565b475b9250505096509650969350505050565b6001546001600160a01b03163314610f155760405162461bcd60e51b81526004016108a890613b44565b6001600160a01b038116610f3b5760405162461bcd60e51b81526004016108a890613af2565b600180546001600160a01b0319166001600160a01b0392909216919091179055565b60015460405163a9059cbb60e01b81526001600160a01b038481169263a9059cbb92610f9192909116908590600401613946565b602060405180830381600087803b158015610fab57600080fd5b505af1158015610fbf573d6000803e3d6000fd5b505050506040513d601f19601f820116820180604052508101906108ee91906130c2565b7f000000000000000000000000000000000000000000000000000000000000000081565b7f00000000000000000000000000000000000000000000000000000000000000006001600160a01b031663d0e30db0476040518263ffffffff1660e01b81526004016000604051808303818588803b15801561106257600080fd5b505af1158015611076573d6000803e3d6000fd5b5050505050565b8060400151156110c7576020810151606082015182516110c09290917f000000000000000000000000000000000000000000000000000000000000000090611d3f565b50506110f8565b602081015181516108ee917f0000000000000000000000000000000000000000000000000000000000000000611e8c565b50565b60008260a00151806020019051810190611115919061341c565b905082604001511561129b5760008260008151811061113057fe5b60200260200101516001600160a01b03166370a08231306040518263ffffffff1660e01b8152600401611163919061370f565b60206040518083038186803b15801561117b57600080fd5b505afa15801561118f573d6000803e3d6000fd5b505050506040513d601f19601f820116820180604052508101906111b391906135c4565b90506111f3836000815181106111c557fe5b60200260200101517f0000000000000000000000000000000000000000000000000000000000000000611fd6565b6020820151604051632890fb6560e01b81526001600160a01b037f00000000000000000000000000000000000000000000000000000000000000001691632890fb65916112469130918690600401613a54565b602060405180830381600087803b15801561126057600080fd5b505af1158015611274573d6000803e3d6000fd5b505050506040513d601f19601f8201168201806040525081019061129891906135c4565b50505b805160208201516040808401519051632d10e6eb60e01b81526000936001600160a01b037f00000000000000000000000000000000000000000000000000000000000000001693632d10e6eb9347936112f993929190600401613a79565b60408051808303818588803b15801561131157600080fd5b505af1158015611325573d6000803e3d6000fd5b50505050506040513d601f19601f8201168201806040525081019061134a9190613122565b915050610a998260200151826001612090565b60008260a001518060200190518101906113779190613172565b90508260400151156114cf5760008260008151811061139257fe5b60200260200101516001600160a01b03166370a08231306040518263ffffffff1660e01b81526004016113c5919061370f565b60206040518083038186803b1580156113dd57600080fd5b505afa1580156113f1573d6000803e3d6000fd5b505050506040513d601f19601f8201168201806040525081019061141591906135c4565b9050611427836000815181106111c557fe5b6020820151604051632890fb6560e01b81526001600160a01b037f00000000000000000000000000000000000000000000000000000000000000001691632890fb659161147a9130918690600401613a54565b602060405180830381600087803b15801561149457600080fd5b505af11580156114a8573d6000803e3d6000fd5b505050506040513d601f19601f820116820180604052508101906114cc91906135c4565b50505b60007f00000000000000000000000000000000000000000000000000000000000000006001600160a01b0316636633af394784600001518560200151866040015187608001518860a001516001806040518963ffffffff1660e01b815260040161153f97969594939291906139fe565b6060604051808303818588803b15801561155857600080fd5b505af115801561156c573d6000803e3d6000fd5b50505050506040513d601f19601f820116820180604052508101906115919190613145565b925050506115a58260400151826001612090565b7f000000000000000000000000000000000000000000000000000000000000000080156115da57506005826040015161ffff16145b156115e7576115e761222e565b836040015115610a9957610a99826020015160006001612090565b60008260a0015180602001905181019061161c9190613484565b90508260400151156117745760008260008151811061163757fe5b60200260200101516001600160a01b03166370a08231306040518263ffffffff1660e01b815260040161166a919061370f565b60206040518083038186803b15801561168257600080fd5b505afa158015611696573d6000803e3d6000fd5b505050506040513d601f19601f820116820180604052508101906116ba91906135c4565b90506116cc836000815181106111c557fe5b6020820151604051632890fb6560e01b81526001600160a01b037f00000000000000000000000000000000000000000000000000000000000000001691632890fb659161171f9130918690600401613a54565b602060405180830381600087803b15801561173957600080fd5b505af115801561174d573d6000803e3d6000fd5b505050506040513d601f19601f8201168201806040525081019061177191906135c4565b50505b8051602082015160408084015160608501519151631ff7aefd60e21b815260009485946001600160a01b037f00000000000000000000000000000000000000000000000000000000000000001694637fdebbf49447946117d99493929060040161395f565b6000604051808303818588803b1580156117f257600080fd5b505af1158015611806573d6000803e3d6000fd5b50505050506040513d6000823e601f3d908101601f1916820160405261182f919081019061303f565b91509150611076836020015184604001518460008512611850576000611859565b61185985612340565b6001612361565b60008260a0015180602001905181019061187a9190613242565b90508260400151156119d25760008260008151811061189557fe5b60200260200101516001600160a01b03166370a08231306040518263ffffffff1660e01b81526004016118c8919061370f565b60206040518083038186803b1580156118e057600080fd5b505afa1580156118f4573d6000803e3d6000fd5b505050506040513d601f19601f8201168201806040525081019061191891906135c4565b905061192a836000815181106111c557fe5b6020820151604051632890fb6560e01b81526001600160a01b037f00000000000000000000000000000000000000000000000000000000000000001691632890fb659161197d9130918690600401613a54565b602060405180830381600087803b15801561199757600080fd5b505af11580156119ab573d6000803e3d6000fd5b505050506040513d601f19601f820116820180604052508101906119cf91906135c4565b50505b60007f00000000000000000000000000000000000000000000000000000000000000006001600160a01b031663e816469d478460000151856020015186604001518760a001518860c001516040518763ffffffff1660e01b8152600401611a3d9594939291906139aa565b6000604051808303818588803b158015611a5657600080fd5b505af1158015611a6a573d6000803e3d6000fd5b50505050506040513d6000823e601f3d908101601f19168201604052611a93919081019061303f565b509050610a9982604001518360a001518360006001612361565b60006001825160ff166003811115611ac157fe5b6003811115611acc57fe5b1415611b085760008260a00151806020019051810190611aec9190613172565b905080606001519150611b028160c0015161107d565b50611b3a565b60008260a00151806020019051810190611b229190613242565b905080608001519150611b388160e0015161107d565b505b816020015115611b4f57611b4f816000611bb6565b5050565b600082820183811015611bad576040805162461bcd60e51b815260206004820152601b60248201527f536166654d6174683a206164646974696f6e206f766572666c6f770000000000604482015290519081900360640190fd5b90505b92915050565b6040516370a0823160e01b81526000906001600160a01b038416906370a0823190611be590309060040161370f565b60206040518083038186803b158015611bfd57600080fd5b505afa158015611c11573d6000803e3d6000fd5b505050506040513d601f19601f82011682018060405250810190611c3591906135c4565b9050818111156108ee576001546001600160a01b038085169163a9059cbb9116611c5f8486612702565b6040518363ffffffff1660e01b8152600401611c7c929190613946565b602060405180830381600087803b158015611c9657600080fd5b505af1158015611caa573d6000803e3d6000fd5b505050506040513d601f19601f82011682018060405250810190610a9991906130c2565b600080611cda8361275f565b90506001600160a01b038116611d0d57507f00000000000000000000000000000000000000000000000000000000000000005b611d37817f0000000000000000000000000000000000000000000000000000000000000000611fd6565b90505b919050565b600080600080856001600160a01b031663aaf10f426040518163ffffffff1660e01b815260040160206040518083038186803b158015611d7e57600080fd5b505afa158015611d92573d6000803e3d6000fd5b505050506040513d601f19601f82011682018060405250810190611db69190612e4d565b6001600160a01b0316635caf9fda60e01b888a88604051602401611ddc93929190613ba5565b60408051601f198184030181529181526020820180516001600160e01b03166001600160e01b0319909416939093179092529051611e1a91906136f3565b600060405180830381855af49150503d8060008114611e55576040519150601f19603f3d011682016040523d82523d6000602084013e611e5a565b606091505b509150915081611e6957600080fd5b80806020019051810190611e7d9190613122565b90999098509650505050505050565b600080600080846001600160a01b031663aaf10f426040518163ffffffff1660e01b815260040160206040518083038186803b158015611ecb57600080fd5b505afa158015611edf573d6000803e3d6000fd5b505050506040513d601f19601f82011682018060405250810190611f039190612e4d565b6001600160a01b0316632ba8c23c60e01b8789604051602401611f27929190613b88565b60408051601f198184030181529181526020820180516001600160e01b03166001600160e01b0319909416939093179092529051611f6591906136f3565b600060405180830381855af49150503d8060008114611fa0576040519150601f19603f3d011682016040523d82523d6000602084013e611fa5565b606091505b509150915081611fb457600080fd5b80806020019051810190611fc89190613122565b909890975095505050505050565b604051636eb1769f60e11b8152600160801b906001600160a01b0384169063dd62ed3e9061200a9030908690600401613880565b60206040518083038186803b15801561202257600080fd5b505afa158015612036573d6000803e3d6000fd5b505050506040513d601f19601f8201168201806040525081019061205a91906135c4565b1015611b4f5760405163095ea7b360e01b81526001600160a01b0383169063095ea7b390610f9190849060001990600401613946565b604080516001808252818301909252600091816020015b6120af612a06565b8152602001906001900390816120a75790505090506001600160601b038316156120da5760056120dd565b60005b816000815181106120ea57fe5b602002602001015160000190600681111561210157fe5b9081600681111561210e57fe5b81525050838160008151811061212057fe5b60200260200101516020019061ffff16908161ffff1681525050826001600160601b03168160008151811061215157fe5b6020026020010151604001818152505060018160008151811061217057fe5b60200260200101516080019015159081151581525050818160008151811061219457fe5b602090810291909101015190151560a090910152604051633735195360e11b81526001600160a01b037f00000000000000000000000000000000000000000000000000000000000000001690636e6a32a6906121f690309085906004016137e8565b600060405180830381600087803b15801561221057600080fd5b505af1158015612224573d6000803e3d6000fd5b5050505050505050565b6040516370a0823160e01b81526001600160a01b037f0000000000000000000000000000000000000000000000000000000000000000169063de0e9a3e9082906370a082319061228290309060040161370f565b60206040518083038186803b15801561229a57600080fd5b505afa1580156122ae573d6000803e3d6000fd5b505050506040513d601f19601f820116820180604052508101906122d291906135c4565b6040518263ffffffff1660e01b81526004016122ee9190613bd8565b602060405180830381600087803b15801561230857600080fd5b505af115801561231c573d6000803e3d6000fd5b505050506040513d601f19601f820116820180604052508101906110f891906135c4565b60008082121561235a5761235382612847565b9050611d3a565b5080611d3a565b604080516001808252818301909252429160009190816020015b612383612a3d565b81526020019060019003908161237b579050509050600084116123a75760006123aa565b60015b816000815181106123b757fe5b60200260200101516000019060068111156123ce57fe5b908160068111156123db57fe5b8152505083816000815181106123ed57fe5b60200260200101516040018181525050868160008151811061240b57fe5b60200260200101516020019061ffff16908161ffff168152505060018160008151811061243457fe5b60200260200101516080019015159081151581525050828160008151811061245857fe5b602002602001015160a001901515908115158152505060008087516001600160401b038111801561248857600080fd5b506040519080825280602002602001820160405280156124b2578160200160208202803683370190505b50905060005b87518110156125a8578781815181106124cd57fe5b6020026020010151600014156124e2576125a0565b60008061250460078c85815181106124f657fe5b602002602001015189612855565b9150915080156125155750506125a0565b60986125338b858151811061252657fe5b6020026020010151612340565b6affffffffffffffffffffff16901b60f083901b60f860008d878151811061255757fe5b60200260200101511361256b57600061256e565b60015b600581111561257957fe5b901b171760001b84868151811061258c57fe5b602090810291909101015250506001909201915b6001016124b8565b508051821015612659576000826001600160401b03811180156125ca57600080fd5b506040519080825280602002602001820160405280156125f4578160200160208202803683370190505b50905060005b838110156126355782818151811061260e57fe5b602002602001015182828151811061262257fe5b60209081029190910101526001016125fa565b50808460008151811061264457fe5b602002602001015160c0018190525050612677565b808360008151811061266757fe5b602002602001015160c001819052505b604051630276b64b60e01b81526001600160a01b037f00000000000000000000000000000000000000000000000000000000000000001690630276b64b906126c59030908790600401613723565b600060405180830381600087803b1580156126df57600080fd5b505af11580156126f3573d6000803e3d6000fd5b50505050505050505050505050565b600082821115612759576040805162461bcd60e51b815260206004820152601e60248201527f536166654d6174683a207375627472616374696f6e206f766572666c6f770000604482015290519081900360640190fd5b50900390565b6000807f00000000000000000000000000000000000000000000000000000000000000006001600160a01b0316634ebad18e846040518263ffffffff1660e01b81526004016127ae9190613b79565b6101406040518083038186803b1580156127c757600080fd5b505afa1580156127db573d6000803e3d6000fd5b505050506040513d601f19601f820116820180604052508101906127ff9190613541565b80519092506001600160a01b0316159050612840578051612840907f0000000000000000000000000000000000000000000000000000000000000000611fd6565b5192915050565b6000611d37600019836128e4565b6000806000851161286557600080fd5b600785111561287357600080fd5b600061287e84612932565b905060015b8681116128d657600061289f61289883612950565b84906129f4565b9050868114156128b757509250600091506128dc9050565b868111156128cd57509250600191506128dc9050565b50600101612883565b50600080fd5b935093915050565b8181026000198314156129145781158061290657508282828161290357fe5b05145b61290f57600080fd5b611bb0565b82158061292957508183828161292657fe5b05145b611bb057600080fd5b60006276a70082101561294457600080fd5b506276a7008106900390565b6000816001141561296557506276a700611d3a565b8160021415612978575062ed4e00611d3a565b816003141561298c57506301da9c00611d3a565b81600414156129a057506303b53800611d3a565b81600514156129b457506309450c00611d3a565b81600614156129c8575063128a1800611d3a565b81600714156129dc57506325143000611d3a565b60405162461bcd60e51b81526004016108a890613b1d565b600082820183811015611bad57600080fd5b6040805160c08101909152806000815260006020820181905260408201819052606082018190526080820181905260a09091015290565b6040805160e081019091528060008152602001600061ffff1681526020016000815260200160008152602001600015158152602001600015158152602001606081525090565b8051611d3a81613c84565b60008083601f840112612a9f578182fd5b5081356001600160401b03811115612ab5578182fd5b6020830191508360208083028501011115612acf57600080fd5b9250929050565b600082601f830112612ae6578081fd5b81516020612afb612af683613c1a565b613bf7565b8281528181019085830183850287018401881015612b17578586fd5b855b85811015612b3557815184529284019290840190600101612b19565b5090979650505050505050565b8035611d3a81613c99565b8051611d3a81613c99565b60008083601f840112612b69578182fd5b5081356001600160401b03811115612b7f578182fd5b602083019150836020828501011115612acf57600080fd5b600082601f830112612ba7578081fd5b8135612bb5612af682613c37565b818152846020838601011115612bc9578283fd5b816020850160208301379081016020019190915292915050565b600082601f830112612bf3578081fd5b8151612c01612af682613c37565b818152846020838601011115612c15578283fd5b612c26826020830160208701613c58565b949350505050565b805160048110611d3a57600080fd5b600060a08284031215612c4e578081fd5b60405160a081018181106001600160401b0382111715612c6a57fe5b80604052508091508251612c7d81613c84565b81526020830151612c8d81613c99565b602082015260408381015190820152606083015160068110612cae57600080fd5b6060820152608092830151920191909152919050565b600060808284031215612cd5578081fd5b60408051608081016001600160401b038282108183111715612cf357fe5b8184528294508551915080821115612d0a57600080fd5b9085019060e08288031215612d1e57600080fd5b612d2860e0613bf7565b612d3183612c2e565b8152612d3f60208401612a83565b6020820152612d4f858401612a83565b85820152606083015160608201526080830151608082015260a083015160a082015260c083015182811115612d8357600080fd5b612d8f89828601612be3565b60c083015250835250612da6905060208501612dea565b6020820152612db6828501612b4d565b82820152612dc660608501612df5565b6060820152505092915050565b80516001600160801b0381168114611d3a57600080fd5b8051611d3a81613ca7565b805163ffffffff81168114611d3a57600080fd5b803560ff81168114611d3a57600080fd5b80516001600160601b0381168114611d3a57600080fd5b600060208284031215612e42578081fd5b8135611bad81613c84565b600060208284031215612e5e578081fd5b8151611bad81613c84565b60008060408385031215612e7b578081fd5b8235612e8681613c84565b946020939093013593505050565b60008060008060008060a08789031215612eac578182fd5b8635612eb781613c84565b95506020870135945060408701356001600160401b03811115612ed8578283fd5b612ee489828a01612b58565b9095509350506060870135612ef881613c84565b91506080870135612f0881613c84565b809150509295509295509295565b600080600060408486031215612f2a578081fd5b83356001600160401b03811115612f3f578182fd5b612f4b86828701612a8e565b9094509250506020840135612f5f81613c84565b809150509250925092565b600080600080600080600080600060a08a8c031215612f87578687fd5b89356001600160401b0380821115612f9d578889fd5b612fa98d838e01612a8e565b909b50995060208c0135915080821115612fc1578889fd5b612fcd8d838e01612a8e565b909950975060408c0135915080821115612fe5578485fd5b612ff18d838e01612a8e565b909750955060608c0135915061300682613c84565b90935060808b0135908082111561301b578384fd5b506130288c828d01612b58565b915080935050809150509295985092959850929598565b60008060408385031215613051578182fd5b82516001600160401b03811115613066578283fd5b61307285828601612ad6565b925050602083015190509250929050565b60008060208385031215613095578182fd5b82356001600160401b038111156130aa578283fd5b6130b685828601612a8e565b90969095509350505050565b6000602082840312156130d3578081fd5b8151611bad81613c99565b600080604083850312156130f0578182fd5b8251915060208301516001600160401b0381111561310c578182fd5b61311885828601612ad6565b9150509250929050565b60008060408385031215613134578182fd5b505080516020909101519092909150565b600080600060608486031215613159578081fd5b8351925060208401519150604084015190509250925092565b600060208284031215613183578081fd5b81516001600160401b0380821115613199578283fd5b9083019060e082860312156131ac578283fd5b6131b660e0613bf7565b6131bf83612a83565b81526131cd60208401612dea565b60208201526131de60408401612dea565b60408201526131ef60608401612a83565b606082015261320060808401612dd3565b608082015261321160a08401612e1a565b60a082015260c083015182811115613227578485fd5b61323387828601612cc4565b60c08301525095945050505050565b600060208284031215613253578081fd5b81516001600160401b0380821115613269578283fd5b818401915061010080838703121561327f578384fd5b61328881613bf7565b905061329383612a83565b81526132a160208401612dea565b60208201526132b260408401612dea565b60408201526132c360608401612a83565b60608201526132d460808401612a83565b608082015260a0830151828111156132ea578485fd5b6132f687828601612ad6565b60a08301525060c08301518281111561330d578485fd5b61331987828601612ad6565b60c08301525060e083015182811115613330578485fd5b61333c87828601612cc4565b60e08301525095945050505050565b60006020828403121561335c578081fd5b81356001600160401b0380821115613372578283fd5b9083019060c08286031215613385578283fd5b61338f60c0613bf7565b61339883612e09565b81526133a660208401612b42565b60208201526133b760408401612b42565b60408201526133c860608401612b42565b60608201526080830135828111156133de578485fd5b6133ea87828601612b97565b60808301525060a083013582811115613401578485fd5b61340d87828601612b97565b60a08301525095945050505050565b60006060828403121561342d578081fd5b604051606081018181106001600160401b038211171561344957fe5b604052825161345781613c84565b8152602083015161346781613ca7565b602082015261347860408401612e1a565b60408201529392505050565b600060208284031215613495578081fd5b81516001600160401b03808211156134ab578283fd5b90830190608082860312156134be578283fd5b6040516080810181811083821117156134d357fe5b6040526134df83612a83565b81526134ed60208401612dea565b6020820152604083015182811115613503578485fd5b61350f87828601612ad6565b604083015250606083015182811115613526578485fd5b61353287828601612ad6565b60608301525095945050505050565b6000806101408385031215613554578182fd5b61355e8484612c3d565b915061356d8460a08501612c3d565b90509250929050565b600060208284031215613587578081fd5b81516001600160401b0381111561359c578182fd5b612c2684828501612cc4565b6000602082840312156135b9578081fd5b8135611bad81613ca7565b6000602082840312156135d5578081fd5b5051919050565b6001600160a01b03169052565b6000815180845260208085019450808401835b83811015613618578151875295820195908201906001016135fc565b509495945050505050565b60008284528282602086013780602084860101526020601f19601f85011685010190509392505050565b6007811061365757fe5b9052565b61ffff169052565b600081516004811061367157fe5b80845250602082015160018060a01b0380821660208601528060408501511660408601525050606082015160608401526080820151608084015260a082015160a084015260c082015160e060c085015280518060e08601526101006136dc8282880160208601613c58565b80601f19601f840116870101935050505092915050565b60008251613705818460208701613c58565b9190910192915050565b6001600160a01b0391909116815260200190565b6001600160a01b0383168152604060208083018290528351838301819052600092916060918286019080830287018401888401875b838110156137d857605f198a8403018552815160e061377885835161364d565b8188015161ffff1685890152898201518a860152888201518986015260808083015115159086015260a08083015115159086015260c0918201519185018190526137c4818601836135e9565b968801969450505090850190600101613758565b50909a9950505050505050505050565b6001600160a01b03831681526040602080830182905283518383018190526000929160609182860190878301865b8281101561387157815161382b85825161364d565b8086015161ffff16858701528781015188860152868101518786015260808082015115159086015260a09081015115159085015260c09093019290840190600101613816565b50919998505050505050505050565b6001600160a01b0392831681529116602082015260400190565b6001600160a01b03898116825260e060208084018290528a519184018290526000928b820192909190610100860190855b818110156138e95785518516835294830194918301916001016138cb565b505085810360408701526138fd818d6135e9565b9350505050828103606084015261391481896135e9565b905061392360808401886135dc565b82810360a0840152613936818688613623565b91505061084d60c083018461365b565b6001600160a01b03929092168252602082015260400190565b6001600160a01b038516815261ffff8416602082015260806040820181905260009061398d908301856135e9565b828103606084015261399f81856135e9565b979650505050505050565b6001600160a01b038616815261ffff85811660208301528416604082015260a0606082018190526000906139e0908301856135e9565b82810360808401526139f281856135e9565b98975050505050505050565b6001600160a01b0397909716875261ffff95861660208801529390941660408601526001600160801b039190911660608501526001600160601b0316608084015290151560a0830152151560c082015260e00190565b6001600160a01b0393909316835261ffff919091166020830152604082015260600190565b6001600160a01b0393909316835261ffff9190911660208301526001600160601b0316604082015260600190565b901515815260200190565b60006040820184835260206040818501528185518084526060860191508287019350845b81811015612b3557845183529383019391830191600101613ad6565b60208082526011908201527034b73b30b634b2103732bb9037bbb732b960791b604082015260600190565b6020808252600d908201526c092dcecc2d8d2c840d2dcc8caf609b1b604082015260600190565b6020808252818101527f4f776e61626c653a2063616c6c6572206973206e6f7420746865206f776e6572604082015260600190565b61ffff91909116815260200190565b600061ffff8416825260406020830152612c266040830184613663565b600061ffff8516825260606020830152613bc26060830185613663565b905063ffffffff83166040830152949350505050565b90815260200190565b9283526020830191909152604082015260600190565b6040518181016001600160401b0381118282101715613c1257fe5b604052919050565b60006001600160401b03821115613c2d57fe5b5060209081020190565b60006001600160401b03821115613c4a57fe5b50601f01601f191660200190565b60005b83811015613c73578181015183820152602001613c5b565b83811115610a995750506000910152565b6001600160a01b03811681146110f857600080fd5b80151581146110f857600080fd5b61ffff811681146110f857600080fdfea26469706673582212205e5cd9f2061d1c5cf5b56a791e02d397546cdd058e5534cc7a0014d28f666ebe64736f6c63430007060033","bytecodeSha1":"cdc4f3d2c3b703375811e1575318787da61e218a","type":"contract","abi":[{"inputs":[{"internalType":"contract NotionalProxy","name":"notional_","type":"address"},{"internalType":"address","name":"lendingPool_","type":"address"},{"internalType":"address","name":"weth_","type":"address"},{"internalType":"contract IWstETH","name":"wstETH_","type":"address"},{"internalType":"address","name":"owner_","type":"address"},{"internalType":"address","name":"tradingModule_","type":"address"},{"internalType":"bool","name":"unwrapStETH_","type":"bool"}],"stateMutability":"nonpayable","type":"constructor","name":"constructor"},{"inputs":[],"name":"LENDING_POOL","outputs":[{"internalType":"address","name":"","type":"address"}],"stateMutability":"view","type":"function"},{"inputs":[],"name":"NOTIONAL","outputs":[{"internalType":"contract NotionalProxy","name":"","type":"address"}],"stateMutability":"view","type":"function"},{"inputs":[],"name":"TRADING_MODULE","outputs":[{"internalType":"contract ITradingModule","name":"","type":"address"}],"stateMutability":"view","type":"function"},{"inputs":[],"name":"WETH","outputs":[{"internalType":"contract WETH9","name":"","type":"address"}],"stateMutability":"view","type":"function"},{"inputs":[{"internalType":"address[]","name":"tokens","type":"address[]"},{"internalType":"address","name":"spender","type":"address"}],"name":"approveTokens","outputs":[],"stateMutability":"nonpayable","type":"function"},{"inputs":[{"internalType":"uint16[]","name":"currencies","type":"uint16[]"}],"name":"enableCurrencies","outputs":[],"stateMutability":"nonpayable","type":"function"},{"inputs":[{"internalType":"address[]","name":"assets","type":"address[]"},{"internalType":"uint256[]","name":"amounts","type":"uint256[]"},{"internalType":"uint256[]","name":"premiums","type":"uint256[]"},{"internalType":"address","name":"initiator","type":"address"},{"internalType":"bytes","name":"params","type":"bytes"}],"name":"executeOperation","outputs":[{"internalType":"bool","name":"","type":"bool"}],"stateMutability":"nonpayable","type":"function"},{"inputs":[{"internalType":"address","name":"asset","type":"address"},{"internalType":"uint256","name":"amount","type":"uint256"},{"internalType":"bytes","name":"params","type":"bytes"},{"internalType":"address","name":"localAddress","type":"address"},{"internalType":"address","name":"collateralAddress","type":"address"}],"name":"flashLoan","outputs":[{"internalType":"uint256","name":"flashLoanResidual","type":"uint256"},{"internalType":"uint256","name":"localProfit","type":"uint256"},{"internalType":"uint256","name":"collateralProfit","type":"uint256"}],"stateMutability":"nonpayable","type":"function"},{"inputs":[{"internalType":"address","name":"account","type":"address"}],"name":"getFreeCollateral","outputs":[{"internalType":"int256","name":"","type":"int256"},{"internalType":"int256[]","name":"","type":"int256[]"}],"stateMutability":"nonpayable","type":"function"},{"inputs":[],"name":"ifCashCurrencyId","outputs":[{"internalType":"uint16","name":"","type":"uint16"}],"stateMutability":"view","type":"function"},{"inputs":[],"name":"owner","outputs":[{"internalType":"address","name":"","type":"address"}],"stateMutability":"view","type":"function"},{"inputs":[{"internalType":"address","name":"newOwner","type":"address"}],"name":"transferOwnership","outputs":[],"stateMutability":"nonpayable","type":"function"},{"inputs":[{"internalType":"address","name":"token","type":"address"},{"internalType":"uint256","name":"amount","type":"uint256"}],"name":"withdraw","outputs":[],"stateMutability":"nonpayable","type":"function"},{"inputs":[],"name":"wrapToWETH","outputs":[],"stateMutability":"nonpayable","type":"function"},{"inputs":[],"name":"wstETH","outputs":[{"internalType":"contract IWstETH","name":"","type":"address"}],"stateMutability":"view","type":"function"},{"stateMutability":"payable","type":"receive"}],"compiler":{"version":"0.7.6+commit.7338295f","evm_version":"istanbul","optimizer":{"enabled":true,"runs":200}},"contractName":"FlashLiquidator","language":"Solidity","natspec":{"methods":{"getFreeCollateral(address)":{"notice":"Used by bots to get free collateral for a given account via callStatic"}},"kind":"dev","version":1},"opcodes":"PUSH1 0x80 PUSH1 0x40 MSTORE PUSH1 0x4 CALLDATASIZE LT PUSH2 0xEC JUMPI PUSH1 0x0 CALLDATALOAD PUSH1 0xE0 SHR DUP1 PUSH4 0xB12FFDAD GT PUSH2 0x8A JUMPI DUP1 PUSH4 0xD99A9C9C GT PUSH2 0x59 JUMPI DUP1 PUSH4 0xD99A9C9C EQ PUSH2 0x24B JUMPI DUP1 PUSH4 0xF2FDE38B EQ PUSH2 0x27A JUMPI DUP1 PUSH4 0xF3FEF3A3 EQ PUSH2 0x29A JUMPI DUP1 PUSH4 0xFC2DB717 EQ PUSH2 0x2BA JUMPI PUSH2 0xF3 JUMP JUMPDEST DUP1 PUSH4 0xB12FFDAD EQ PUSH2 0x1C8 JUMPI DUP1 PUSH4 0xB4DCFC77 EQ PUSH2 0x1E8 JUMPI DUP1 PUSH4 0xC2243379 EQ PUSH2 0x1FD JUMPI DUP1 PUSH4 0xC3999444 EQ PUSH2 0x21D JUMPI PUSH2 0xF3 JUMP JUMPDEST DUP1 PUSH4 0x8A3843E0 GT PUSH2 0xC6 JUMPI DUP1 PUSH4 0x8A3843E0 EQ PUSH2 0x15A JUMPI DUP1 PUSH4 0x8DA5CB5B EQ PUSH2 0x171 JUMPI DUP1 PUSH4 0x920F5C84 EQ PUSH2 0x186 JUMPI DUP1 PUSH4 0xAD5C4648 EQ PUSH2 0x1B3 JUMPI PUSH2 0xF3 JUMP JUMPDEST DUP1 PUSH4 0x6C63840 EQ PUSH2 0xF8 JUMPI DUP1 PUSH4 0x4AA07E64 EQ PUSH2 0x123 JUMPI DUP1 PUSH4 0x858DCCB3 EQ PUSH2 0x145 JUMPI PUSH2 0xF3 JUMP JUMPDEST CALLDATASIZE PUSH2 0xF3 JUMPI STOP JUMPDEST PUSH1 0x0 DUP1 REVERT JUMPDEST CALLVALUE DUP1 ISZERO PUSH2 0x104 JUMPI PUSH1 0x0 DUP1 REVERT JUMPDEST POP PUSH2 0x10D PUSH2 0x2CF JUMP JUMPDEST PUSH1 0x40 MLOAD PUSH2 0x11A SWAP2 SWAP1 PUSH2 0x3B79 JUMP JUMPDEST PUSH1 0x40 MLOAD DUP1 SWAP2 SUB SWAP1 RETURN JUMPDEST CALLVALUE DUP1 ISZERO PUSH2 0x12F JUMPI PUSH1 0x0 DUP1 REVERT JUMPDEST POP PUSH2 0x138 PUSH2 0x2E0 JUMP JUMPDEST PUSH1 0x40 MLOAD PUSH2 0x11A SWAP2 SWAP1 PUSH2 0x370F JUMP JUMPDEST CALLVALUE DUP1 ISZERO PUSH2 0x151 JUMPI PUSH1 0x0 DUP1 REVERT JUMPDEST POP PUSH2 0x138 PUSH2 0x304 JUMP JUMPDEST CALLVALUE DUP1 ISZERO PUSH2 0x166 JUMPI PUSH1 0x0 DUP1 REVERT JUMPDEST POP PUSH2 0x16F PUSH2 0x328 JUMP JUMPDEST STOP JUMPDEST CALLVALUE DUP1 ISZERO PUSH2 0x17D JUMPI PUSH1 0x0 DUP1 REVERT JUMPDEST POP PUSH2 0x138 PUSH2 0x332 JUMP JUMPDEST CALLVALUE DUP1 ISZERO PUSH2 0x192 JUMPI PUSH1 0x0 DUP1 REVERT JUMPDEST POP PUSH2 0x1A6 PUSH2 0x1A1 CALLDATASIZE PUSH1 0x4 PUSH2 0x2F6A JUMP JUMPDEST PUSH2 0x341 JUMP JUMPDEST PUSH1 0x40 MLOAD PUSH2 0x11A SWAP2 SWAP1 PUSH2 0x3AA7 JUMP JUMPDEST CALLVALUE DUP1 ISZERO PUSH2 0x1BF JUMPI PUSH1 0x0 DUP1 REVERT JUMPDEST POP PUSH2 0x138 PUSH2 0x85A JUMP JUMPDEST CALLVALUE DUP1 ISZERO PUSH2 0x1D4 JUMPI PUSH1 0x0 DUP1 REVERT JUMPDEST POP PUSH2 0x16F PUSH2 0x1E3 CALLDATASIZE PUSH1 0x4 PUSH2 0x3083 JUMP JUMPDEST PUSH2 0x87E JUMP JUMPDEST CALLVALUE DUP1 ISZERO PUSH2 0x1F4 JUMPI PUSH1 0x0 DUP1 REVERT JUMPDEST POP PUSH2 0x138 PUSH2 0x8F3 JUMP JUMPDEST CALLVALUE DUP1 ISZERO PUSH2 0x209 JUMPI PUSH1 0x0 DUP1 REVERT JUMPDEST POP PUSH2 0x16F PUSH2 0x218 CALLDATASIZE PUSH1 0x4 PUSH2 0x2F16 JUMP JUMPDEST PUSH2 0x917 JUMP JUMPDEST CALLVALUE DUP1 ISZERO PUSH2 0x229 JUMPI PUSH1 0x0 DUP1 REVERT JUMPDEST POP PUSH2 0x23D PUSH2 0x238 CALLDATASIZE PUSH1 0x4 PUSH2 0x2E31 JUMP JUMPDEST PUSH2 0xA9F JUMP JUMPDEST PUSH1 0x40 MLOAD PUSH2 0x11A SWAP3 SWAP2 SWAP1 PUSH2 0x3AB2 JUMP JUMPDEST CALLVALUE DUP1 ISZERO PUSH2 0x257 JUMPI PUSH1 0x0 DUP1 REVERT JUMPDEST POP PUSH2 0x26B PUSH2 0x266 CALLDATASIZE PUSH1 0x4 PUSH2 0x2E94 JUMP JUMPDEST PUSH2 0xBCA JUMP JUMPDEST PUSH1 0x40 MLOAD PUSH2 0x11A SWAP4 SWAP3 SWAP2 SWAP1 PUSH2 0x3BE1 JUMP JUMPDEST CALLVALUE DUP1 ISZERO PUSH2 0x286 JUMPI PUSH1 0x0 DUP1 REVERT JUMPDEST POP PUSH2 0x16F PUSH2 0x295 CALLDATASIZE PUSH1 0x4 PUSH2 0x2E31 JUMP JUMPDEST PUSH2 0xEEB JUMP JUMPDEST CALLVALUE DUP1 ISZERO PUSH2 0x2A6 JUMPI PUSH1 0x0 DUP1 REVERT JUMPDEST POP PUSH2 0x16F PUSH2 0x2B5 CALLDATASIZE PUSH1 0x4 PUSH2 0x2E69 JUMP JUMPDEST PUSH2 0xF5D JUMP JUMPDEST CALLVALUE DUP1 ISZERO PUSH2 0x2C6 JUMPI PUSH1 0x0 DUP1 REVERT JUMPDEST POP PUSH2 0x138 PUSH2 0xFE3 JUMP JUMPDEST PUSH1 0x1 SLOAD PUSH1 0x1 PUSH1 0xA0 SHL SWAP1 DIV PUSH2 0xFFFF AND DUP2 JUMP JUMPDEST PUSH32 0x0 DUP2 JUMP JUMPDEST PUSH32 0x0 DUP2 JUMP JUMPDEST PUSH2 0x330 PUSH2 0x1007 JUMP JUMPDEST JUMP JUMPDEST PUSH1 0x1 SLOAD PUSH1 0x1 PUSH1 0x1 PUSH1 0xA0 SHL SUB AND DUP2 JUMP JUMPDEST PUSH1 0x0 CALLER PUSH1 0x1 PUSH1 0x1 PUSH1 0xA0 SHL SUB PUSH32 0x0 AND EQ PUSH2 0x378 JUMPI PUSH1 0x0 DUP1 REVERT JUMPDEST PUSH1 0x0 PUSH2 0x386 DUP4 DUP6 ADD DUP6 PUSH2 0x334B JUMP JUMPDEST SWAP1 POP PUSH32 0x0 PUSH1 0x1 PUSH1 0x1 PUSH1 0xA0 SHL SUB AND DUP12 DUP12 PUSH1 0x0 DUP2 DUP2 LT PUSH2 0x3BF JUMPI INVALID JUMPDEST SWAP1 POP PUSH1 0x20 MUL ADD PUSH1 0x20 DUP2 ADD SWAP1 PUSH2 0x3D4 SWAP2 SWAP1 PUSH2 0x2E31 JUMP JUMPDEST PUSH1 0x1 PUSH1 0x1 PUSH1 0xA0 SHL SUB AND EQ ISZERO PUSH2 0x475 JUMPI PUSH32 0x0 PUSH1 0x1 PUSH1 0x1 PUSH1 0xA0 SHL SUB AND PUSH4 0x2E1A7D4D DUP11 DUP11 PUSH1 0x0 DUP2 DUP2 LT PUSH2 0x41F JUMPI INVALID JUMPDEST SWAP1 POP PUSH1 0x20 MUL ADD CALLDATALOAD PUSH1 0x40 MLOAD DUP3 PUSH4 0xFFFFFFFF AND PUSH1 0xE0 SHL DUP2 MSTORE PUSH1 0x4 ADD PUSH2 0x442 SWAP2 SWAP1 PUSH2 0x3BD8 JUMP JUMPDEST PUSH1 0x0 PUSH1 0x40 MLOAD DUP1 DUP4 SUB DUP2 PUSH1 0x0 DUP8 DUP1 EXTCODESIZE ISZERO DUP1 ISZERO PUSH2 0x45C JUMPI PUSH1 0x0 DUP1 REVERT JUMPDEST POP GAS CALL ISZERO DUP1 ISZERO PUSH2 0x470 JUMPI RETURNDATASIZE PUSH1 0x0 DUP1 RETURNDATACOPY RETURNDATASIZE PUSH1 0x0 REVERT JUMPDEST POP POP POP POP JUMPDEST PUSH1 0x80 DUP2 ADD MLOAD MLOAD ISZERO PUSH2 0x4A7 JUMPI PUSH1 0x0 DUP2 PUSH1 0x80 ADD MLOAD DUP1 PUSH1 0x20 ADD SWAP1 MLOAD DUP2 ADD SWAP1 PUSH2 0x49A SWAP2 SWAP1 PUSH2 0x3576 JUMP JUMPDEST SWAP1 POP PUSH2 0x4A5 DUP2 PUSH2 0x107D JUMP JUMPDEST POP JUMPDEST PUSH1 0x0 DUP2 MLOAD PUSH1 0xFF AND PUSH1 0x3 DUP2 GT ISZERO PUSH2 0x4B9 JUMPI INVALID JUMPDEST PUSH1 0x3 DUP2 GT ISZERO PUSH2 0x4C4 JUMPI INVALID JUMPDEST EQ ISZERO PUSH2 0x50C JUMPI PUSH2 0x507 DUP2 DUP13 DUP13 DUP1 DUP1 PUSH1 0x20 MUL PUSH1 0x20 ADD PUSH1 0x40 MLOAD SWAP1 DUP2 ADD PUSH1 0x40 MSTORE DUP1 SWAP4 SWAP3 SWAP2 SWAP1 DUP2 DUP2 MSTORE PUSH1 0x20 ADD DUP4 DUP4 PUSH1 0x20 MUL DUP1 DUP3 DUP5 CALLDATACOPY PUSH1 0x0 SWAP3 ADD SWAP2 SWAP1 SWAP2 MSTORE POP PUSH2 0x10FB SWAP3 POP POP POP JUMP JUMPDEST PUSH2 0x62C JUMP JUMPDEST PUSH1 0x1 DUP2 MLOAD PUSH1 0xFF AND PUSH1 0x3 DUP2 GT ISZERO PUSH2 0x51E JUMPI INVALID JUMPDEST PUSH1 0x3 DUP2 GT ISZERO PUSH2 0x529 JUMPI INVALID JUMPDEST EQ ISZERO PUSH2 0x56C JUMPI PUSH2 0x507 DUP2 DUP13 DUP13 DUP1 DUP1 PUSH1 0x20 MUL PUSH1 0x20 ADD PUSH1 0x40 MLOAD SWAP1 DUP2 ADD PUSH1 0x40 MSTORE DUP1 SWAP4 SWAP3 SWAP2 SWAP1 DUP2 DUP2 MSTORE PUSH1 0x20 ADD DUP4 DUP4 PUSH1 0x20 MUL DUP1 DUP3 DUP5 CALLDATACOPY PUSH1 0x0 SWAP3 ADD SWAP2 SWAP1 SWAP2 MSTORE POP PUSH2 0x135D SWAP3 POP POP POP JUMP JUMPDEST PUSH1 0x2 DUP2 MLOAD PUSH1 0xFF AND PUSH1 0x3 DUP2 GT ISZERO PUSH2 0x57E JUMPI INVALID JUMPDEST PUSH1 0x3 DUP2 GT ISZERO PUSH2 0x589 JUMPI INVALID JUMPDEST EQ ISZERO PUSH2 0x5CC JUMPI PUSH2 0x507 DUP2 DUP13 DUP13 DUP1 DUP1 PUSH1 0x20 MUL PUSH1 0x20 ADD PUSH1 0x40 MLOAD SWAP1 DUP2 ADD PUSH1 0x40 MSTORE DUP1 SWAP4 SWAP3 SWAP2 SWAP1 DUP2 DUP2 MSTORE PUSH1 0x20 ADD DUP4 DUP4 PUSH1 0x20 MUL DUP1 DUP3 DUP5 CALLDATACOPY PUSH1 0x0 SWAP3 ADD SWAP2 SWAP1 SWAP2 MSTORE POP PUSH2 0x1602 SWAP3 POP POP POP JUMP JUMPDEST PUSH1 0x3 DUP2 MLOAD PUSH1 0xFF AND PUSH1 0x3 DUP2 GT ISZERO PUSH2 0x5DE JUMPI INVALID JUMPDEST PUSH1 0x3 DUP2 GT ISZERO PUSH2 0x5E9 JUMPI INVALID JUMPDEST EQ ISZERO PUSH2 0x62C JUMPI PUSH2 0x62C DUP2 DUP13 DUP13 DUP1 DUP1 PUSH1 0x20 MUL PUSH1 0x20 ADD PUSH1 0x40 MLOAD SWAP1 DUP2 ADD PUSH1 0x40 MSTORE DUP1 SWAP4 SWAP3 SWAP2 SWAP1 DUP2 DUP2 MSTORE PUSH1 0x20 ADD DUP4 DUP4 PUSH1 0x20 MUL DUP1 DUP3 DUP5 CALLDATACOPY PUSH1 0x0 SWAP3 ADD SWAP2 SWAP1 SWAP2 MSTORE POP PUSH2 0x1860 SWAP3 POP POP POP JUMP JUMPDEST DUP1 PUSH1 0x60 ADD MLOAD ISZERO PUSH2 0x6AB JUMPI PUSH32 0x0 PUSH1 0x1 PUSH1 0x1 PUSH1 0xA0 SHL SUB AND PUSH4 0xD0E30DB0 SELFBALANCE PUSH1 0x40 MLOAD DUP3 PUSH4 0xFFFFFFFF AND PUSH1 0xE0 SHL DUP2 MSTORE PUSH1 0x4 ADD PUSH1 0x0 PUSH1 0x40 MLOAD DUP1 DUP4 SUB DUP2 DUP6 DUP9 DUP1 EXTCODESIZE ISZERO DUP1 ISZERO PUSH2 0x691 JUMPI PUSH1 0x0 DUP1 REVERT JUMPDEST POP GAS CALL ISZERO DUP1 ISZERO PUSH2 0x6A5 JUMPI RETURNDATASIZE PUSH1 0x0 DUP1 RETURNDATACOPY RETURNDATASIZE PUSH1 0x0 REVERT JUMPDEST POP POP POP POP POP JUMPDEST PUSH1 0x1 DUP2 MLOAD PUSH1 0xFF AND PUSH1 0x3 DUP2 GT ISZERO PUSH2 0x6BD JUMPI INVALID JUMPDEST PUSH1 0x3 DUP2 GT ISZERO PUSH2 0x6C8 JUMPI INVALID JUMPDEST EQ DUP1 PUSH2 0x6EE JUMPI POP PUSH1 0x3 DUP2 MLOAD PUSH1 0xFF AND PUSH1 0x3 DUP2 GT ISZERO PUSH2 0x6E1 JUMPI INVALID JUMPDEST PUSH1 0x3 DUP2 GT ISZERO PUSH2 0x6EC JUMPI INVALID JUMPDEST EQ JUMPDEST ISZERO PUSH2 0x6FC JUMPI PUSH2 0x6FC DUP2 PUSH2 0x1AAD JUMP JUMPDEST DUP1 PUSH1 0x60 ADD MLOAD ISZERO DUP1 ISZERO PUSH2 0x760 JUMPI POP PUSH32 0x0 PUSH1 0x1 PUSH1 0x1 PUSH1 0xA0 SHL SUB AND DUP12 DUP12 PUSH1 0x0 DUP2 DUP2 LT PUSH2 0x740 JUMPI INVALID JUMPDEST SWAP1 POP PUSH1 0x20 MUL ADD PUSH1 0x20 DUP2 ADD SWAP1 PUSH2 0x755 SWAP2 SWAP1 PUSH2 0x2E31 JUMP JUMPDEST PUSH1 0x1 PUSH1 0x1 PUSH1 0xA0 SHL SUB AND EQ JUMPDEST ISZERO PUSH2 0x7DA JUMPI PUSH32 0x0 PUSH1 0x1 PUSH1 0x1 PUSH1 0xA0 SHL SUB AND PUSH4 0xD0E30DB0 SELFBALANCE PUSH1 0x40 MLOAD DUP3 PUSH4 0xFFFFFFFF AND PUSH1 0xE0 SHL DUP2 MSTORE PUSH1 0x4 ADD PUSH1 0x0 PUSH1 0x40 MLOAD DUP1 DUP4 SUB DUP2 DUP6 DUP9 DUP1 EXTCODESIZE ISZERO DUP1 ISZERO PUSH2 0x7C0 JUMPI PUSH1 0x0 DUP1 REVERT JUMPDEST POP GAS CALL ISZERO DUP1 ISZERO PUSH2 0x7D4 JUMPI RETURNDATASIZE PUSH1 0x0 DUP1 RETURNDATACOPY RETURNDATASIZE PUSH1 0x0 REVERT JUMPDEST POP POP POP POP POP JUMPDEST DUP1 PUSH1 0x20 ADD MLOAD ISZERO PUSH2 0x847 JUMPI PUSH2 0x847 DUP12 DUP12 PUSH1 0x0 DUP2 DUP2 LT PUSH2 0x7F4 JUMPI INVALID JUMPDEST SWAP1 POP PUSH1 0x20 MUL ADD PUSH1 0x20 DUP2 ADD SWAP1 PUSH2 0x809 SWAP2 SWAP1 PUSH2 0x2E31 JUMP JUMPDEST PUSH2 0x842 DUP10 DUP10 PUSH1 0x0 DUP2 DUP2 LT PUSH2 0x819 JUMPI INVALID JUMPDEST SWAP1 POP PUSH1 0x20 MUL ADD CALLDATALOAD DUP13 DUP13 PUSH1 0x0 DUP2 DUP2 LT PUSH2 0x82D JUMPI INVALID JUMPDEST SWAP1 POP PUSH1 0x20 MUL ADD CALLDATALOAD PUSH2 0x1B53 SWAP1 SWAP2 SWAP1 PUSH4 0xFFFFFFFF AND JUMP JUMPDEST PUSH2 0x1BB6 JUMP JUMPDEST PUSH1 0x1 SWAP2 POP POP JUMPDEST SWAP10 SWAP9 POP POP POP POP POP POP POP POP POP JUMP JUMPDEST PUSH32 0x0 DUP2 JUMP JUMPDEST PUSH1 0x1 SLOAD PUSH1 0x1 PUSH1 0x1 PUSH1 0xA0 SHL SUB AND CALLER EQ PUSH2 0x8B1 JUMPI PUSH1 0x40 MLOAD PUSH3 0x461BCD PUSH1 0xE5 SHL DUP2 MSTORE PUSH1 0x4 ADD PUSH2 0x8A8 SWAP1 PUSH2 0x3B44 JUMP JUMPDEST PUSH1 0x40 MLOAD DUP1 SWAP2 SUB SWAP1 REVERT JUMPDEST PUSH1 0x0 JUMPDEST DUP2 DUP2 LT ISZERO PUSH2 0x8EE JUMPI PUSH2 0x8E5 DUP4 DUP4 DUP4 DUP2 DUP2 LT PUSH2 0x8CB JUMPI INVALID JUMPDEST SWAP1 POP PUSH1 0x20 MUL ADD PUSH1 0x20 DUP2 ADD SWAP1 PUSH2 0x8E0 SWAP2 SWAP1 PUSH2 0x35A8 JUMP JUMPDEST PUSH2 0x1CCE JUMP JUMPDEST POP PUSH1 0x1 ADD PUSH2 0x8B4 JUMP JUMPDEST POP POP POP JUMP JUMPDEST PUSH32 0x0 DUP2 JUMP JUMPDEST PUSH1 0x1 SLOAD PUSH1 0x1 PUSH1 0x1 PUSH1 0xA0 SHL SUB AND CALLER EQ PUSH2 0x941 JUMPI PUSH1 0x40 MLOAD PUSH3 0x461BCD PUSH1 0xE5 SHL DUP2 MSTORE PUSH1 0x4 ADD PUSH2 0x8A8 SWAP1 PUSH2 0x3B44 JUMP JUMPDEST PUSH1 0x0 JUMPDEST DUP3 DUP2 LT ISZERO PUSH2 0xA99 JUMPI DUP4 DUP4 DUP3 DUP2 DUP2 LT PUSH2 0x958 JUMPI INVALID JUMPDEST SWAP1 POP PUSH1 0x20 MUL ADD PUSH1 0x20 DUP2 ADD SWAP1 PUSH2 0x96D SWAP2 SWAP1 PUSH2 0x2E31 JUMP JUMPDEST PUSH1 0x1 PUSH1 0x1 PUSH1 0xA0 SHL SUB AND PUSH4 0x95EA7B3 DUP4 PUSH1 0x0 PUSH1 0x40 MLOAD DUP4 PUSH4 0xFFFFFFFF AND PUSH1 0xE0 SHL DUP2 MSTORE PUSH1 0x4 ADD PUSH2 0x99B SWAP3 SWAP2 SWAP1 PUSH2 0x3946 JUMP JUMPDEST PUSH1 0x20 PUSH1 0x40 MLOAD DUP1 DUP4 SUB DUP2 PUSH1 0x0 DUP8 DUP1 EXTCODESIZE ISZERO DUP1 ISZERO PUSH2 0x9B5 JUMPI PUSH1 0x0 DUP1 REVERT JUMPDEST POP GAS CALL ISZERO DUP1 ISZERO PUSH2 0x9C9 JUMPI RETURNDATASIZE PUSH1 0x0 DUP1 RETURNDATACOPY RETURNDATASIZE PUSH1 0x0 REVERT JUMPDEST POP POP POP POP PUSH1 0x40 MLOAD RETURNDATASIZE PUSH1 0x1F NOT PUSH1 0x1F DUP3 ADD AND DUP3 ADD DUP1 PUSH1 0x40 MSTORE POP DUP2 ADD SWAP1 PUSH2 0x9ED SWAP2 SWAP1 PUSH2 0x30C2 JUMP JUMPDEST POP DUP4 DUP4 DUP3 DUP2 DUP2 LT PUSH2 0x9FA JUMPI INVALID JUMPDEST SWAP1 POP PUSH1 0x20 MUL ADD PUSH1 0x20 DUP2 ADD SWAP1 PUSH2 0xA0F SWAP2 SWAP1 PUSH2 0x2E31 JUMP JUMPDEST PUSH1 0x1 PUSH1 0x1 PUSH1 0xA0 SHL SUB AND PUSH4 0x95EA7B3 DUP4 PUSH1 0x0 NOT PUSH1 0x40 MLOAD DUP4 PUSH4 0xFFFFFFFF AND PUSH1 0xE0 SHL DUP2 MSTORE PUSH1 0x4 ADD PUSH2 0xA3E SWAP3 SWAP2 SWAP1 PUSH2 0x3946 JUMP JUMPDEST PUSH1 0x20 PUSH1 0x40 MLOAD DUP1 DUP4 SUB DUP2 PUSH1 0x0 DUP8 DUP1 EXTCODESIZE ISZERO DUP1 ISZERO PUSH2 0xA58 JUMPI PUSH1 0x0 DUP1 REVERT JUMPDEST POP GAS CALL ISZERO DUP1 ISZERO PUSH2 0xA6C JUMPI RETURNDATASIZE PUSH1 0x0 DUP1 RETURNDATACOPY RETURNDATASIZE PUSH1 0x0 REVERT JUMPDEST POP POP POP POP PUSH1 0x40 MLOAD RETURNDATASIZE PUSH1 0x1F NOT PUSH1 0x1F DUP3 ADD AND DUP3 ADD DUP1 PUSH1 0x40 MSTORE POP DUP2 ADD SWAP1 PUSH2 0xA90 SWAP2 SWAP1 PUSH2 0x30C2 JUMP JUMPDEST POP PUSH1 0x1 ADD PUSH2 0x944 JUMP JUMPDEST POP POP POP POP JUMP JUMPDEST PUSH1 0x0 PUSH1 0x60 PUSH32 0x0 PUSH1 0x1 PUSH1 0x1 PUSH1 0xA0 SHL SUB AND PUSH4 0xF667F897 DUP5 PUSH1 0x40 MLOAD DUP3 PUSH4 0xFFFFFFFF AND PUSH1 0xE0 SHL DUP2 MSTORE PUSH1 0x4 ADD PUSH2 0xAEF SWAP2 SWAP1 PUSH2 0x370F JUMP JUMPDEST PUSH1 0x0 PUSH1 0x40 MLOAD DUP1 DUP4 SUB DUP2 PUSH1 0x0 DUP8 DUP1 EXTCODESIZE ISZERO DUP1 ISZERO PUSH2 0xB09 JUMPI PUSH1 0x0 DUP1 REVERT JUMPDEST POP GAS CALL ISZERO DUP1 ISZERO PUSH2 0xB1D JUMPI RETURNDATASIZE PUSH1 0x0 DUP1 RETURNDATACOPY RETURNDATASIZE PUSH1 0x0 REVERT JUMPDEST POP POP PUSH1 0x40 MLOAD PUSH4 0x30E66511 PUSH1 0xE2 SHL DUP2 MSTORE PUSH1 0x1 PUSH1 0x1 PUSH1 0xA0 SHL SUB PUSH32 0x0 AND SWAP3 POP PUSH4 0xC3999444 SWAP2 POP PUSH2 0xB6D SWAP1 DUP7 SWAP1 PUSH1 0x4 ADD PUSH2 0x370F JUMP JUMPDEST PUSH1 0x0 PUSH1 0x40 MLOAD DUP1 DUP4 SUB DUP2 DUP7 DUP1 EXTCODESIZE ISZERO DUP1 ISZERO PUSH2 0xB85 JUMPI PUSH1 0x0 DUP1 REVERT JUMPDEST POP GAS STATICCALL ISZERO DUP1 ISZERO PUSH2 0xB99 JUMPI RETURNDATASIZE PUSH1 0x0 DUP1 RETURNDATACOPY RETURNDATASIZE PUSH1 0x0 REVERT JUMPDEST POP POP POP POP PUSH1 0x40 MLOAD RETURNDATASIZE PUSH1 0x0 DUP3 RETURNDATACOPY PUSH1 0x1F RETURNDATASIZE SWAP1 DUP2 ADD PUSH1 0x1F NOT AND DUP3 ADD PUSH1 0x40 MSTORE PUSH2 0xBC1 SWAP2 SWAP1 DUP2 ADD SWAP1 PUSH2 0x30DE JUMP JUMPDEST SWAP2 POP SWAP2 POP SWAP2 POP SWAP2 JUMP JUMPDEST PUSH1 0x1 SLOAD PUSH1 0x0 SWAP1 DUP2 SWAP1 DUP2 SWAP1 PUSH1 0x1 PUSH1 0x1 PUSH1 0xA0 SHL SUB AND CALLER EQ PUSH2 0xBFB JUMPI PUSH1 0x40 MLOAD PUSH3 0x461BCD PUSH1 0xE5 SHL DUP2 MSTORE PUSH1 0x4 ADD PUSH2 0x8A8 SWAP1 PUSH2 0x3B44 JUMP JUMPDEST PUSH1 0x40 DUP1 MLOAD PUSH1 0x1 DUP1 DUP3 MSTORE DUP2 DUP4 ADD SWAP1 SWAP3 MSTORE PUSH1 0x0 SWAP2 PUSH1 0x20 DUP1 DUP4 ADD SWAP1 DUP1 CALLDATASIZE DUP4 CALLDATACOPY POP POP PUSH1 0x40 DUP1 MLOAD PUSH1 0x1 DUP1 DUP3 MSTORE DUP2 DUP4 ADD SWAP1 SWAP3 MSTORE SWAP3 SWAP4 POP PUSH1 0x0 SWAP3 SWAP2 POP PUSH1 0x20 DUP1 DUP4 ADD SWAP1 DUP1 CALLDATASIZE DUP4 CALLDATACOPY ADD SWAP1 POP POP SWAP1 POP DUP11 DUP3 PUSH1 0x0 DUP2 MLOAD DUP2 LT PUSH2 0xC4E JUMPI INVALID JUMPDEST PUSH1 0x20 MUL PUSH1 0x20 ADD ADD SWAP1 PUSH1 0x1 PUSH1 0x1 PUSH1 0xA0 SHL SUB AND SWAP1 DUP2 PUSH1 0x1 PUSH1 0x1 PUSH1 0xA0 SHL SUB AND DUP2 MSTORE POP POP DUP10 DUP2 PUSH1 0x0 DUP2 MLOAD DUP2 LT PUSH2 0xC7C JUMPI INVALID JUMPDEST PUSH1 0x20 SWAP1 DUP2 MUL SWAP2 SWAP1 SWAP2 ADD ADD MSTORE PUSH1 0x40 DUP1 MLOAD PUSH1 0x1 DUP1 DUP3 MSTORE DUP2 DUP4 ADD SWAP1 SWAP3 MSTORE PUSH32 0x0 PUSH1 0x1 PUSH1 0x1 PUSH1 0xA0 SHL SUB AND SWAP2 PUSH4 0xAB9C4B5D SWAP2 ADDRESS SWAP2 DUP7 SWAP2 DUP7 SWAP2 DUP2 PUSH1 0x20 ADD PUSH1 0x20 DUP3 MUL DUP1 CALLDATASIZE DUP4 CALLDATACOPY ADD SWAP1 POP POP ADDRESS DUP16 DUP16 PUSH1 0x0 PUSH1 0x40 MLOAD DUP10 PUSH4 0xFFFFFFFF AND PUSH1 0xE0 SHL DUP2 MSTORE PUSH1 0x4 ADD PUSH2 0xD05 SWAP9 SWAP8 SWAP7 SWAP6 SWAP5 SWAP4 SWAP3 SWAP2 SWAP1 PUSH2 0x389A JUMP JUMPDEST PUSH1 0x0 PUSH1 0x40 MLOAD DUP1 DUP4 SUB DUP2 PUSH1 0x0 DUP8 DUP1 EXTCODESIZE ISZERO DUP1 ISZERO PUSH2 0xD1F JUMPI PUSH1 0x0 DUP1 REVERT JUMPDEST POP GAS CALL ISZERO DUP1 ISZERO PUSH2 0xD33 JUMPI RETURNDATASIZE PUSH1 0x0 DUP1 RETURNDATACOPY RETURNDATASIZE PUSH1 0x0 REVERT JUMPDEST POP POP PUSH1 0x40 MLOAD PUSH4 0x70A08231 PUSH1 0xE0 SHL DUP2 MSTORE PUSH1 0x1 PUSH1 0x1 PUSH1 0xA0 SHL SUB DUP15 AND SWAP3 POP PUSH4 0x70A08231 SWAP2 POP PUSH2 0xD63 SWAP1 ADDRESS SWAP1 PUSH1 0x4 ADD PUSH2 0x370F JUMP JUMPDEST PUSH1 0x20 PUSH1 0x40 MLOAD DUP1 DUP4 SUB DUP2 DUP7 DUP1 EXTCODESIZE ISZERO DUP1 ISZERO PUSH2 0xD7B JUMPI PUSH1 0x0 DUP1 REVERT JUMPDEST POP GAS STATICCALL ISZERO DUP1 ISZERO PUSH2 0xD8F JUMPI RETURNDATASIZE PUSH1 0x0 DUP1 RETURNDATACOPY RETURNDATASIZE PUSH1 0x0 REVERT JUMPDEST POP POP POP POP PUSH1 0x40 MLOAD RETURNDATASIZE PUSH1 0x1F NOT PUSH1 0x1F DUP3 ADD AND DUP3 ADD DUP1 PUSH1 0x40 MSTORE POP DUP2 ADD SWAP1 PUSH2 0xDB3 SWAP2 SWAP1 PUSH2 0x35C4 JUMP JUMPDEST SWAP5 POP PUSH1 0x1 PUSH1 0x1 PUSH1 0xA0 SHL SUB DUP8 AND ISZERO PUSH2 0xE45 JUMPI PUSH1 0x40 MLOAD PUSH4 0x70A08231 PUSH1 0xE0 SHL DUP2 MSTORE PUSH1 0x1 PUSH1 0x1 PUSH1 0xA0 SHL SUB DUP9 AND SWAP1 PUSH4 0x70A08231 SWAP1 PUSH2 0xDF0 SWAP1 ADDRESS SWAP1 PUSH1 0x4 ADD PUSH2 0x370F JUMP JUMPDEST PUSH1 0x20 PUSH1 0x40 MLOAD DUP1 DUP4 SUB DUP2 DUP7 DUP1 EXTCODESIZE ISZERO DUP1 ISZERO PUSH2 0xE08 JUMPI PUSH1 0x0 DUP1 REVERT JUMPDEST POP GAS STATICCALL ISZERO DUP1 ISZERO PUSH2 0xE1C JUMPI RETURNDATASIZE PUSH1 0x0 DUP1 RETURNDATACOPY RETURNDATASIZE PUSH1 0x0 REVERT JUMPDEST POP POP POP POP PUSH1 0x40 MLOAD RETURNDATASIZE PUSH1 0x1F NOT PUSH1 0x1F DUP3 ADD AND DUP3 ADD DUP1 PUSH1 0x40 MSTORE POP DUP2 ADD SWAP1 PUSH2 0xE40 SWAP2 SWAP1 PUSH2 0x35C4 JUMP JUMPDEST PUSH2 0xE47 JUMP JUMPDEST SELFBALANCE JUMPDEST SWAP4 POP PUSH1 0x1 PUSH1 0x1 PUSH1 0xA0 SHL SUB DUP7 AND ISZERO PUSH2 0xED9 JUMPI PUSH1 0x40 MLOAD PUSH4 0x70A08231 PUSH1 0xE0 SHL DUP2 MSTORE PUSH1 0x1 PUSH1 0x1 PUSH1 0xA0 SHL SUB DUP8 AND SWAP1 PUSH4 0x70A08231 SWAP1 PUSH2 0xE84 SWAP1 ADDRESS SWAP1 PUSH1 0x4 ADD PUSH2 0x370F JUMP JUMPDEST PUSH1 0x20 PUSH1 0x40 MLOAD DUP1 DUP4 SUB DUP2 DUP7 DUP1 EXTCODESIZE ISZERO DUP1 ISZERO PUSH2 0xE9C JUMPI PUSH1 0x0 DUP1 REVERT JUMPDEST POP GAS STATICCALL ISZERO DUP1 ISZERO PUSH2 0xEB0 JUMPI RETURNDATASIZE PUSH1 0x0 DUP1 RETURNDATACOPY RETURNDATASIZE PUSH1 0x0 REVERT JUMPDEST POP POP POP POP PUSH1 0x40 MLOAD RETURNDATASIZE PUSH1 0x1F NOT PUSH1 0x1F DUP3 ADD AND DUP3 ADD DUP1 PUSH1 0x40 MSTORE POP DUP2 ADD SWAP1 PUSH2 0xED4 SWAP2 SWAP1 PUSH2 0x35C4 JUMP JUMPDEST PUSH2 0xEDB JUMP JUMPDEST SELFBALANCE JUMPDEST SWAP3 POP POP POP SWAP7 POP SWAP7 POP SWAP7 SWAP4 POP POP POP POP JUMP JUMPDEST PUSH1 0x1 SLOAD PUSH1 0x1 PUSH1 0x1 PUSH1 0xA0 SHL SUB AND CALLER EQ PUSH2 0xF15 JUMPI PUSH1 0x40 MLOAD PUSH3 0x461BCD PUSH1 0xE5 SHL DUP2 MSTORE PUSH1 0x4 ADD PUSH2 0x8A8 SWAP1 PUSH2 0x3B44 JUMP JUMPDEST PUSH1 0x1 PUSH1 0x1 PUSH1 0xA0 SHL SUB DUP2 AND PUSH2 0xF3B JUMPI PUSH1 0x40 MLOAD PUSH3 0x461BCD PUSH1 0xE5 SHL DUP2 MSTORE PUSH1 0x4 ADD PUSH2 0x8A8 SWAP1 PUSH2 0x3AF2 JUMP JUMPDEST PUSH1 0x1 DUP1 SLOAD PUSH1 0x1 PUSH1 0x1 PUSH1 0xA0 SHL SUB NOT AND PUSH1 0x1 PUSH1 0x1 PUSH1 0xA0 SHL SUB SWAP3 SWAP1 SWAP3 AND SWAP2 SWAP1 SWAP2 OR SWAP1 SSTORE JUMP JUMPDEST PUSH1 0x1 SLOAD PUSH1 0x40 MLOAD PUSH4 0xA9059CBB PUSH1 0xE0 SHL DUP2 MSTORE PUSH1 0x1 PUSH1 0x1 PUSH1 0xA0 SHL SUB DUP5 DUP2 AND SWAP3 PUSH4 0xA9059CBB SWAP3 PUSH2 0xF91 SWAP3 SWAP1 SWAP2 AND SWAP1 DUP6 SWAP1 PUSH1 0x4 ADD PUSH2 0x3946 JUMP JUMPDEST PUSH1 0x20 PUSH1 0x40 MLOAD DUP1 DUP4 SUB DUP2 PUSH1 0x0 DUP8 DUP1 EXTCODESIZE ISZERO DUP1 ISZERO PUSH2 0xFAB JUMPI PUSH1 0x0 DUP1 REVERT JUMPDEST POP GAS CALL ISZERO DUP1 ISZERO PUSH2 0xFBF JUMPI RETURNDATASIZE PUSH1 0x0 DUP1 RETURNDATACOPY RETURNDATASIZE PUSH1 0x0 REVERT JUMPDEST POP POP POP POP PUSH1 0x40 MLOAD RETURNDATASIZE PUSH1 0x1F NOT PUSH1 0x1F DUP3 ADD AND DUP3 ADD DUP1 PUSH1 0x40 MSTORE POP DUP2 ADD SWAP1 PUSH2 0x8EE SWAP2 SWAP1 PUSH2 0x30C2 JUMP JUMPDEST PUSH32 0x0 DUP2 JUMP JUMPDEST PUSH32 0x0 PUSH1 0x1 PUSH1 0x1 PUSH1 0xA0 SHL SUB AND PUSH4 0xD0E30DB0 SELFBALANCE PUSH1 0x40 MLOAD DUP3 PUSH4 0xFFFFFFFF AND PUSH1 0xE0 SHL DUP2 MSTORE PUSH1 0x4 ADD PUSH1 0x0 PUSH1 0x40 MLOAD DUP1 DUP4 SUB DUP2 DUP6 DUP9 DUP1 EXTCODESIZE ISZERO DUP1 ISZERO PUSH2 0x1062 JUMPI PUSH1 0x0 DUP1 REVERT JUMPDEST POP GAS CALL ISZERO DUP1 ISZERO PUSH2 0x1076 JUMPI RETURNDATASIZE PUSH1 0x0 DUP1 RETURNDATACOPY RETURNDATASIZE PUSH1 0x0 REVERT JUMPDEST POP POP POP POP POP JUMP JUMPDEST DUP1 PUSH1 0x40 ADD MLOAD ISZERO PUSH2 0x10C7 JUMPI PUSH1 0x20 DUP2 ADD MLOAD PUSH1 0x60 DUP3 ADD MLOAD DUP3 MLOAD PUSH2 0x10C0 SWAP3 SWAP1 SWAP2 PUSH32 0x0 SWAP1 PUSH2 0x1D3F JUMP JUMPDEST POP POP PUSH2 0x10F8 JUMP JUMPDEST PUSH1 0x20 DUP2 ADD MLOAD DUP2 MLOAD PUSH2 0x8EE SWAP2 PUSH32 0x0 PUSH2 0x1E8C JUMP JUMPDEST POP JUMP JUMPDEST PUSH1 0x0 DUP3 PUSH1 0xA0 ADD MLOAD DUP1 PUSH1 0x20 ADD SWAP1 MLOAD DUP2 ADD SWAP1 PUSH2 0x1115 SWAP2 SWAP1 PUSH2 0x341C JUMP JUMPDEST SWAP1 POP DUP3 PUSH1 0x40 ADD MLOAD ISZERO PUSH2 0x129B JUMPI PUSH1 0x0 DUP3 PUSH1 0x0 DUP2 MLOAD DUP2 LT PUSH2 0x1130 JUMPI INVALID JUMPDEST PUSH1 0x20 MUL PUSH1 0x20 ADD ADD MLOAD PUSH1 0x1 PUSH1 0x1 PUSH1 0xA0 SHL SUB AND PUSH4 0x70A08231 ADDRESS PUSH1 0x40 MLOAD DUP3 PUSH4 0xFFFFFFFF AND PUSH1 0xE0 SHL DUP2 MSTORE PUSH1 0x4 ADD PUSH2 0x1163 SWAP2 SWAP1 PUSH2 0x370F JUMP JUMPDEST PUSH1 0x20 PUSH1 0x40 MLOAD DUP1 DUP4 SUB DUP2 DUP7 DUP1 EXTCODESIZE ISZERO DUP1 ISZERO PUSH2 0x117B JUMPI PUSH1 0x0 DUP1 REVERT JUMPDEST POP GAS STATICCALL ISZERO DUP1 ISZERO PUSH2 0x118F JUMPI RETURNDATASIZE PUSH1 0x0 DUP1 RETURNDATACOPY RETURNDATASIZE PUSH1 0x0 REVERT JUMPDEST POP POP POP POP PUSH1 0x40 MLOAD RETURNDATASIZE PUSH1 0x1F NOT PUSH1 0x1F DUP3 ADD AND DUP3 ADD DUP1 PUSH1 0x40 MSTORE POP DUP2 ADD SWAP1 PUSH2 0x11B3 SWAP2 SWAP1 PUSH2 0x35C4 JUMP JUMPDEST SWAP1 POP PUSH2 0x11F3 DUP4 PUSH1 0x0 DUP2 MLOAD DUP2 LT PUSH2 0x11C5 JUMPI INVALID JUMPDEST PUSH1 0x20 MUL PUSH1 0x20 ADD ADD MLOAD PUSH32 0x0 PUSH2 0x1FD6 JUMP JUMPDEST PUSH1 0x20 DUP3 ADD MLOAD PUSH1 0x40 MLOAD PUSH4 0x2890FB65 PUSH1 0xE0 SHL DUP2 MSTORE PUSH1 0x1 PUSH1 0x1 PUSH1 0xA0 SHL SUB PUSH32 0x0 AND SWAP2 PUSH4 0x2890FB65 SWAP2 PUSH2 0x1246 SWAP2 ADDRESS SWAP2 DUP7 SWAP1 PUSH1 0x4 ADD PUSH2 0x3A54 JUMP JUMPDEST PUSH1 0x20 PUSH1 0x40 MLOAD DUP1 DUP4 SUB DUP2 PUSH1 0x0 DUP8 DUP1 EXTCODESIZE ISZERO DUP1 ISZERO PUSH2 0x1260 JUMPI PUSH1 0x0 DUP1 REVERT JUMPDEST POP GAS CALL ISZERO DUP1 ISZERO PUSH2 0x1274 JUMPI RETURNDATASIZE PUSH1 0x0 DUP1 RETURNDATACOPY RETURNDATASIZE PUSH1 0x0 REVERT JUMPDEST POP POP POP POP PUSH1 0x40 MLOAD RETURNDATASIZE PUSH1 0x1F NOT PUSH1 0x1F DUP3 ADD AND DUP3 ADD DUP1 PUSH1 0x40 MSTORE POP DUP2 ADD SWAP1 PUSH2 0x1298 SWAP2 SWAP1 PUSH2 0x35C4 JUMP JUMPDEST POP POP JUMPDEST DUP1 MLOAD PUSH1 0x20 DUP3 ADD MLOAD PUSH1 0x40 DUP1 DUP5 ADD MLOAD SWAP1 MLOAD PUSH4 0x2D10E6EB PUSH1 0xE0 SHL DUP2 MSTORE PUSH1 0x0 SWAP4 PUSH1 0x1 PUSH1 0x1 PUSH1 0xA0 SHL SUB PUSH32 0x0 AND SWAP4 PUSH4 0x2D10E6EB SWAP4 SELFBALANCE SWAP4 PUSH2 0x12F9 SWAP4 SWAP3 SWAP2 SWAP1 PUSH1 0x4 ADD PUSH2 0x3A79 JUMP JUMPDEST PUSH1 0x40 DUP1 MLOAD DUP1 DUP4 SUB DUP2 DUP6 DUP9 DUP1 EXTCODESIZE ISZERO DUP1 ISZERO PUSH2 0x1311 JUMPI PUSH1 0x0 DUP1 REVERT JUMPDEST POP GAS CALL ISZERO DUP1 ISZERO PUSH2 0x1325 JUMPI RETURNDATASIZE PUSH1 0x0 DUP1 RETURNDATACOPY RETURNDATASIZE PUSH1 0x0 REVERT JUMPDEST POP POP POP POP POP PUSH1 0x40 MLOAD RETURNDATASIZE PUSH1 0x1F NOT PUSH1 0x1F DUP3 ADD AND DUP3 ADD DUP1 PUSH1 0x40 MSTORE POP DUP2 ADD SWAP1 PUSH2 0x134A SWAP2 SWAP1 PUSH2 0x3122 JUMP JUMPDEST SWAP2 POP POP PUSH2 0xA99 DUP3 PUSH1 0x20 ADD MLOAD DUP3 PUSH1 0x1 PUSH2 0x2090 JUMP JUMPDEST PUSH1 0x0 DUP3 PUSH1 0xA0 ADD MLOAD DUP1 PUSH1 0x20 ADD SWAP1 MLOAD DUP2 ADD SWAP1 PUSH2 0x1377 SWAP2 SWAP1 PUSH2 0x3172 JUMP JUMPDEST SWAP1 POP DUP3 PUSH1 0x40 ADD MLOAD ISZERO PUSH2 0x14CF JUMPI PUSH1 0x0 DUP3 PUSH1 0x0 DUP2 MLOAD DUP2 LT PUSH2 0x1392 JUMPI INVALID JUMPDEST PUSH1 0x20 MUL PUSH1 0x20 ADD ADD MLOAD PUSH1 0x1 PUSH1 0x1 PUSH1 0xA0 SHL SUB AND PUSH4 0x70A08231 ADDRESS PUSH1 0x40 MLOAD DUP3 PUSH4 0xFFFFFFFF AND PUSH1 0xE0 SHL DUP2 MSTORE PUSH1 0x4 ADD PUSH2 0x13C5 SWAP2 SWAP1 PUSH2 0x370F JUMP JUMPDEST PUSH1 0x20 PUSH1 0x40 MLOAD DUP1 DUP4 SUB DUP2 DUP7 DUP1 EXTCODESIZE ISZERO DUP1 ISZERO PUSH2 0x13DD JUMPI PUSH1 0x0 DUP1 REVERT JUMPDEST POP GAS STATICCALL ISZERO DUP1 ISZERO PUSH2 0x13F1 JUMPI RETURNDATASIZE PUSH1 0x0 DUP1 RETURNDATACOPY RETURNDATASIZE PUSH1 0x0 REVERT JUMPDEST POP POP POP POP PUSH1 0x40 MLOAD RETURNDATASIZE PUSH1 0x1F NOT PUSH1 0x1F DUP3 ADD AND DUP3 ADD DUP1 PUSH1 0x40 MSTORE POP DUP2 ADD SWAP1 PUSH2 0x1415 SWAP2 SWAP1 PUSH2 0x35C4 JUMP JUMPDEST SWAP1 POP PUSH2 0x1427 DUP4 PUSH1 0x0 DUP2 MLOAD DUP2 LT PUSH2 0x11C5 JUMPI INVALID JUMPDEST PUSH1 0x20 DUP3 ADD MLOAD PUSH1 0x40 MLOAD PUSH4 0x2890FB65 PUSH1 0xE0 SHL DUP2 MSTORE PUSH1 0x1 PUSH1 0x1 PUSH1 0xA0 SHL SUB PUSH32 0x0 AND SWAP2 PUSH4 0x2890FB65 SWAP2 PUSH2 0x147A SWAP2 ADDRESS SWAP2 DUP7 SWAP1 PUSH1 0x4 ADD PUSH2 0x3A54 JUMP JUMPDEST PUSH1 0x20 PUSH1 0x40 MLOAD DUP1 DUP4 SUB DUP2 PUSH1 0x0 DUP8 DUP1 EXTCODESIZE ISZERO DUP1 ISZERO PUSH2 0x1494 JUMPI PUSH1 0x0 DUP1 REVERT JUMPDEST POP GAS CALL ISZERO DUP1 ISZERO PUSH2 0x14A8 JUMPI RETURNDATASIZE PUSH1 0x0 DUP1 RETURNDATACOPY RETURNDATASIZE PUSH1 0x0 REVERT JUMPDEST POP POP POP POP PUSH1 0x40 MLOAD RETURNDATASIZE PUSH1 0x1F NOT PUSH1 0x1F DUP3 ADD AND DUP3 ADD DUP1 PUSH1 0x40 MSTORE POP DUP2 ADD SWAP1 PUSH2 0x14CC SWAP2 SWAP1 PUSH2 0x35C4 JUMP JUMPDEST POP POP JUMPDEST PUSH1 0x0 PUSH32 0x0 PUSH1 0x1 PUSH1 0x1 PUSH1 0xA0 SHL SUB AND PUSH4 0x6633AF39 SELFBALANCE DUP5 PUSH1 0x0 ADD MLOAD DUP6 PUSH1 0x20 ADD MLOAD DUP7 PUSH1 0x40 ADD MLOAD DUP8 PUSH1 0x80 ADD MLOAD DUP9 PUSH1 0xA0 ADD MLOAD PUSH1 0x1 DUP1 PUSH1 0x40 MLOAD DUP10 PUSH4 0xFFFFFFFF AND PUSH1 0xE0 SHL DUP2 MSTORE PUSH1 0x4 ADD PUSH2 0x153F SWAP8 SWAP7 SWAP6 SWAP5 SWAP4 SWAP3 SWAP2 SWAP1 PUSH2 0x39FE JUMP JUMPDEST PUSH1 0x60 PUSH1 0x40 MLOAD DUP1 DUP4 SUB DUP2 DUP6 DUP9 DUP1 EXTCODESIZE ISZERO DUP1 ISZERO PUSH2 0x1558 JUMPI PUSH1 0x0 DUP1 REVERT JUMPDEST POP GAS CALL ISZERO DUP1 ISZERO PUSH2 0x156C JUMPI RETURNDATASIZE PUSH1 0x0 DUP1 RETURNDATACOPY RETURNDATASIZE PUSH1 0x0 REVERT JUMPDEST POP POP POP POP POP PUSH1 0x40 MLOAD RETURNDATASIZE PUSH1 0x1F NOT PUSH1 0x1F DUP3 ADD AND DUP3 ADD DUP1 PUSH1 0x40 MSTORE POP DUP2 ADD SWAP1 PUSH2 0x1591 SWAP2 SWAP1 PUSH2 0x3145 JUMP JUMPDEST SWAP3 POP POP POP PUSH2 0x15A5 DUP3 PUSH1 0x40 ADD MLOAD DUP3 PUSH1 0x1 PUSH2 0x2090 JUMP JUMPDEST PUSH32 0x0 DUP1 ISZERO PUSH2 0x15DA JUMPI POP PUSH1 0x5 DUP3 PUSH1 0x40 ADD MLOAD PUSH2 0xFFFF AND EQ JUMPDEST ISZERO PUSH2 0x15E7 JUMPI PUSH2 0x15E7 PUSH2 0x222E JUMP JUMPDEST DUP4 PUSH1 0x40 ADD MLOAD ISZERO PUSH2 0xA99 JUMPI PUSH2 0xA99 DUP3 PUSH1 0x20 ADD MLOAD PUSH1 0x0 PUSH1 0x1 PUSH2 0x2090 JUMP JUMPDEST PUSH1 0x0 DUP3 PUSH1 0xA0 ADD MLOAD DUP1 PUSH1 0x20 ADD SWAP1 MLOAD DUP2 ADD SWAP1 PUSH2 0x161C SWAP2 SWAP1 PUSH2 0x3484 JUMP JUMPDEST SWAP1 POP DUP3 PUSH1 0x40 ADD MLOAD ISZERO PUSH2 0x1774 JUMPI PUSH1 0x0 DUP3 PUSH1 0x0 DUP2 MLOAD DUP2 LT PUSH2 0x1637 JUMPI INVALID JUMPDEST PUSH1 0x20 MUL PUSH1 0x20 ADD ADD MLOAD PUSH1 0x1 PUSH1 0x1 PUSH1 0xA0 SHL SUB AND PUSH4 0x70A08231 ADDRESS PUSH1 0x40 MLOAD DUP3 PUSH4 0xFFFFFFFF AND PUSH1 0xE0 SHL DUP2 MSTORE PUSH1 0x4 ADD PUSH2 0x166A SWAP2 SWAP1 PUSH2 0x370F JUMP JUMPDEST PUSH1 0x20 PUSH1 0x40 MLOAD DUP1 DUP4 SUB DUP2 DUP7 DUP1 EXTCODESIZE ISZERO DUP1 ISZERO PUSH2 0x1682 JUMPI PUSH1 0x0 DUP1 REVERT JUMPDEST POP GAS STATICCALL ISZERO DUP1 ISZERO PUSH2 0x1696 JUMPI RETURNDATASIZE PUSH1 0x0 DUP1 RETURNDATACOPY RETURNDATASIZE PUSH1 0x0 REVERT JUMPDEST POP POP POP POP PUSH1 0x40 MLOAD RETURNDATASIZE PUSH1 0x1F NOT PUSH1 0x1F DUP3 ADD AND DUP3 ADD DUP1 PUSH1 0x40 MSTORE POP DUP2 ADD SWAP1 PUSH2 0x16BA SWAP2 SWAP1 PUSH2 0x35C4 JUMP JUMPDEST SWAP1 POP PUSH2 0x16CC DUP4 PUSH1 0x0 DUP2 MLOAD DUP2 LT PUSH2 0x11C5 JUMPI INVALID JUMPDEST PUSH1 0x20 DUP3 ADD MLOAD PUSH1 0x40 MLOAD PUSH4 0x2890FB65 PUSH1 0xE0 SHL DUP2 MSTORE PUSH1 0x1 PUSH1 0x1 PUSH1 0xA0 SHL SUB PUSH32 0x0 AND SWAP2 PUSH4 0x2890FB65 SWAP2 PUSH2 0x171F SWAP2 ADDRESS SWAP2 DUP7 SWAP1 PUSH1 0x4 ADD PUSH2 0x3A54 JUMP JUMPDEST PUSH1 0x20 PUSH1 0x40 MLOAD DUP1 DUP4 SUB DUP2 PUSH1 0x0 DUP8 DUP1 EXTCODESIZE ISZERO DUP1 ISZERO PUSH2 0x1739 JUMPI PUSH1 0x0 DUP1 REVERT JUMPDEST POP GAS CALL ISZERO DUP1 ISZERO PUSH2 0x174D JUMPI RETURNDATASIZE PUSH1 0x0 DUP1 RETURNDATACOPY RETURNDATASIZE PUSH1 0x0 REVERT JUMPDEST POP POP POP POP PUSH1 0x40 MLOAD RETURNDATASIZE PUSH1 0x1F NOT PUSH1 0x1F DUP3 ADD AND DUP3 ADD DUP1 PUSH1 0x40 MSTORE POP DUP2 ADD SWAP1 PUSH2 0x1771 SWAP2 SWAP1 PUSH2 0x35C4 JUMP JUMPDEST POP POP JUMPDEST DUP1 MLOAD PUSH1 0x20 DUP3 ADD MLOAD PUSH1 0x40 DUP1 DUP5 ADD MLOAD PUSH1 0x60 DUP6 ADD MLOAD SWAP2 MLOAD PUSH4 0x1FF7AEFD PUSH1 0xE2 SHL DUP2 MSTORE PUSH1 0x0 SWAP5 DUP6 SWAP5 PUSH1 0x1 PUSH1 0x1 PUSH1 0xA0 SHL SUB PUSH32 0x0 AND SWAP5 PUSH4 0x7FDEBBF4 SWAP5 SELFBALANCE SWAP5 PUSH2 0x17D9 SWAP5 SWAP4 SWAP3 SWAP1 PUSH1 0x4 ADD PUSH2 0x395F JUMP JUMPDEST PUSH1 0x0 PUSH1 0x40 MLOAD DUP1 DUP4 SUB DUP2 DUP6 DUP9 DUP1 EXTCODESIZE ISZERO DUP1 ISZERO PUSH2 0x17F2 JUMPI PUSH1 0x0 DUP1 REVERT JUMPDEST POP GAS CALL ISZERO DUP1 ISZERO PUSH2 0x1806 JUMPI RETURNDATASIZE PUSH1 0x0 DUP1 RETURNDATACOPY RETURNDATASIZE PUSH1 0x0 REVERT JUMPDEST POP POP POP POP POP PUSH1 0x40 MLOAD RETURNDATASIZE PUSH1 0x0 DUP3 RETURNDATACOPY PUSH1 0x1F RETURNDATASIZE SWAP1 DUP2 ADD PUSH1 0x1F NOT AND DUP3 ADD PUSH1 0x40 MSTORE PUSH2 0x182F SWAP2 SWAP1 DUP2 ADD SWAP1 PUSH2 0x303F JUMP JUMPDEST SWAP2 POP SWAP2 POP PUSH2 0x1076 DUP4 PUSH1 0x20 ADD MLOAD DUP5 PUSH1 0x40 ADD MLOAD DUP5 PUSH1 0x0 DUP6 SLT PUSH2 0x1850 JUMPI PUSH1 0x0 PUSH2 0x1859 JUMP JUMPDEST PUSH2 0x1859 DUP6 PUSH2 0x2340 JUMP JUMPDEST PUSH1 0x1 PUSH2 0x2361 JUMP JUMPDEST PUSH1 0x0 DUP3 PUSH1 0xA0 ADD MLOAD DUP1 PUSH1 0x20 ADD SWAP1 MLOAD DUP2 ADD SWAP1 PUSH2 0x187A SWAP2 SWAP1 PUSH2 0x3242 JUMP JUMPDEST SWAP1 POP DUP3 PUSH1 0x40 ADD MLOAD ISZERO PUSH2 0x19D2 JUMPI PUSH1 0x0 DUP3 PUSH1 0x0 DUP2 MLOAD DUP2 LT PUSH2 0x1895 JUMPI INVALID JUMPDEST PUSH1 0x20 MUL PUSH1 0x20 ADD ADD MLOAD PUSH1 0x1 PUSH1 0x1 PUSH1 0xA0 SHL SUB AND PUSH4 0x70A08231 ADDRESS PUSH1 0x40 MLOAD DUP3 PUSH4 0xFFFFFFFF AND PUSH1 0xE0 SHL DUP2 MSTORE PUSH1 0x4 ADD PUSH2 0x18C8 SWAP2 SWAP1 PUSH2 0x370F JUMP JUMPDEST PUSH1 0x20 PUSH1 0x40 MLOAD DUP1 DUP4 SUB DUP2 DUP7 DUP1 EXTCODESIZE ISZERO DUP1 ISZERO PUSH2 0x18E0 JUMPI PUSH1 0x0 DUP1 REVERT JUMPDEST POP GAS STATICCALL ISZERO DUP1 ISZERO PUSH2 0x18F4 JUMPI RETURNDATASIZE PUSH1 0x0 DUP1 RETURNDATACOPY RETURNDATASIZE PUSH1 0x0 REVERT JUMPDEST POP POP POP POP PUSH1 0x40 MLOAD RETURNDATASIZE PUSH1 0x1F NOT PUSH1 0x1F DUP3 ADD AND DUP3 ADD DUP1 PUSH1 0x40 MSTORE POP DUP2 ADD SWAP1 PUSH2 0x1918 SWAP2 SWAP1 PUSH2 0x35C4 JUMP JUMPDEST SWAP1 POP PUSH2 0x192A DUP4 PUSH1 0x0 DUP2 MLOAD DUP2 LT PUSH2 0x11C5 JUMPI INVALID JUMPDEST PUSH1 0x20 DUP3 ADD MLOAD PUSH1 0x40 MLOAD PUSH4 0x2890FB65 PUSH1 0xE0 SHL DUP2 MSTORE PUSH1 0x1 PUSH1 0x1 PUSH1 0xA0 SHL SUB PUSH32 0x0 AND SWAP2 PUSH4 0x2890FB65 SWAP2 PUSH2 0x197D SWAP2 ADDRESS SWAP2 DUP7 SWAP1 PUSH1 0x4 ADD PUSH2 0x3A54 JUMP JUMPDEST PUSH1 0x20 PUSH1 0x40 MLOAD DUP1 DUP4 SUB DUP2 PUSH1 0x0 DUP8 DUP1 EXTCODESIZE ISZERO DUP1 ISZERO PUSH2 0x1997 JUMPI PUSH1 0x0 DUP1 REVERT JUMPDEST POP GAS CALL ISZERO DUP1 ISZERO PUSH2 0x19AB JUMPI RETURNDATASIZE PUSH1 0x0 DUP1 RETURNDATACOPY RETURNDATASIZE PUSH1 0x0 REVERT JUMPDEST POP POP POP POP PUSH1 0x40 MLOAD RETURNDATASIZE PUSH1 0x1F NOT PUSH1 0x1F DUP3 ADD AND DUP3 ADD DUP1 PUSH1 0x40 MSTORE POP DUP2 ADD SWAP1 PUSH2 0x19CF SWAP2 SWAP1 PUSH2 0x35C4 JUMP JUMPDEST POP POP JUMPDEST PUSH1 0x0 PUSH32 0x0 PUSH1 0x1 PUSH1 0x1 PUSH1 0xA0 SHL SUB AND PUSH4 0xE816469D SELFBALANCE DUP5 PUSH1 0x0 ADD MLOAD DUP6 PUSH1 0x20 ADD MLOAD DUP7 PUSH1 0x40 ADD MLOAD DUP8 PUSH1 0xA0 ADD MLOAD DUP9 PUSH1 0xC0 ADD MLOAD PUSH1 0x40 MLOAD DUP8 PUSH4 0xFFFFFFFF AND PUSH1 0xE0 SHL DUP2 MSTORE PUSH1 0x4 ADD PUSH2 0x1A3D SWAP6 SWAP5 SWAP4 SWAP3 SWAP2 SWAP1 PUSH2 0x39AA JUMP JUMPDEST PUSH1 0x0 PUSH1 0x40 MLOAD DUP1 DUP4 SUB DUP2 DUP6 DUP9 DUP1 EXTCODESIZE ISZERO DUP1 ISZERO PUSH2 0x1A56 JUMPI PUSH1 0x0 DUP1 REVERT JUMPDEST POP GAS CALL ISZERO DUP1 ISZERO PUSH2 0x1A6A JUMPI RETURNDATASIZE PUSH1 0x0 DUP1 RETURNDATACOPY RETURNDATASIZE PUSH1 0x0 REVERT JUMPDEST POP POP POP POP POP PUSH1 0x40 MLOAD RETURNDATASIZE PUSH1 0x0 DUP3 RETURNDATACOPY PUSH1 0x1F RETURNDATASIZE SWAP1 DUP2 ADD PUSH1 0x1F NOT AND DUP3 ADD PUSH1 0x40 MSTORE PUSH2 0x1A93 SWAP2 SWAP1 DUP2 ADD SWAP1 PUSH2 0x303F JUMP JUMPDEST POP SWAP1 POP PUSH2 0xA99 DUP3 PUSH1 0x40 ADD MLOAD DUP4 PUSH1 0xA0 ADD MLOAD DUP4 PUSH1 0x0 PUSH1 0x1 PUSH2 0x2361 JUMP JUMPDEST PUSH1 0x0 PUSH1 0x1 DUP3 MLOAD PUSH1 0xFF AND PUSH1 0x3 DUP2 GT ISZERO PUSH2 0x1AC1 JUMPI INVALID JUMPDEST PUSH1 0x3 DUP2 GT ISZERO PUSH2 0x1ACC JUMPI INVALID JUMPDEST EQ ISZERO PUSH2 0x1B08 JUMPI PUSH1 0x0 DUP3 PUSH1 0xA0 ADD MLOAD DUP1 PUSH1 0x20 ADD SWAP1 MLOAD DUP2 ADD SWAP1 PUSH2 0x1AEC SWAP2 SWAP1 PUSH2 0x3172 JUMP JUMPDEST SWAP1 POP DUP1 PUSH1 0x60 ADD MLOAD SWAP2 POP PUSH2 0x1B02 DUP2 PUSH1 0xC0 ADD MLOAD PUSH2 0x107D JUMP JUMPDEST POP PUSH2 0x1B3A JUMP JUMPDEST PUSH1 0x0 DUP3 PUSH1 0xA0 ADD MLOAD DUP1 PUSH1 0x20 ADD SWAP1 MLOAD DUP2 ADD SWAP1 PUSH2 0x1B22 SWAP2 SWAP1 PUSH2 0x3242 JUMP JUMPDEST SWAP1 POP DUP1 PUSH1 0x80 ADD MLOAD SWAP2 POP PUSH2 0x1B38 DUP2 PUSH1 0xE0 ADD MLOAD PUSH2 0x107D JUMP JUMPDEST POP JUMPDEST DUP2 PUSH1 0x20 ADD MLOAD ISZERO PUSH2 0x1B4F JUMPI PUSH2 0x1B4F DUP2 PUSH1 0x0 PUSH2 0x1BB6 JUMP JUMPDEST POP POP JUMP JUMPDEST PUSH1 0x0 DUP3 DUP3 ADD DUP4 DUP2 LT ISZERO PUSH2 0x1BAD JUMPI PUSH1 0x40 DUP1 MLOAD PUSH3 0x461BCD PUSH1 0xE5 SHL DUP2 MSTORE PUSH1 0x20 PUSH1 0x4 DUP3 ADD MSTORE PUSH1 0x1B PUSH1 0x24 DUP3 ADD MSTORE PUSH32 0x536166654D6174683A206164646974696F6E206F766572666C6F770000000000 PUSH1 0x44 DUP3 ADD MSTORE SWAP1 MLOAD SWAP1 DUP2 SWAP1 SUB PUSH1 0x64 ADD SWAP1 REVERT JUMPDEST SWAP1 POP JUMPDEST SWAP3 SWAP2 POP POP JUMP JUMPDEST PUSH1 0x40 MLOAD PUSH4 0x70A08231 PUSH1 0xE0 SHL DUP2 MSTORE PUSH1 0x0 SWAP1 PUSH1 0x1 PUSH1 0x1 PUSH1 0xA0 SHL SUB DUP5 AND SWAP1 PUSH4 0x70A08231 SWAP1 PUSH2 0x1BE5 SWAP1 ADDRESS SWAP1 PUSH1 0x4 ADD PUSH2 0x370F JUMP JUMPDEST PUSH1 0x20 PUSH1 0x40 MLOAD DUP1 DUP4 SUB DUP2 DUP7 DUP1 EXTCODESIZE ISZERO DUP1 ISZERO PUSH2 0x1BFD JUMPI PUSH1 0x0 DUP1 REVERT JUMPDEST POP GAS STATICCALL ISZERO DUP1 ISZERO PUSH2 0x1C11 JUMPI RETURNDATASIZE PUSH1 0x0 DUP1 RETURNDATACOPY RETURNDATASIZE PUSH1 0x0 REVERT JUMPDEST POP POP POP POP PUSH1 0x40 MLOAD RETURNDATASIZE PUSH1 0x1F NOT PUSH1 0x1F DUP3 ADD AND DUP3 ADD DUP1 PUSH1 0x40 MSTORE POP DUP2 ADD SWAP1 PUSH2 0x1C35 SWAP2 SWAP1 PUSH2 0x35C4 JUMP JUMPDEST SWAP1 POP DUP2 DUP2 GT ISZERO PUSH2 0x8EE JUMPI PUSH1 0x1 SLOAD PUSH1 0x1 PUSH1 0x1 PUSH1 0xA0 SHL SUB DUP1 DUP6 AND SWAP2 PUSH4 0xA9059CBB SWAP2 AND PUSH2 0x1C5F DUP5 DUP7 PUSH2 0x2702 JUMP JUMPDEST PUSH1 0x40 MLOAD DUP4 PUSH4 0xFFFFFFFF AND PUSH1 0xE0 SHL DUP2 MSTORE PUSH1 0x4 ADD PUSH2 0x1C7C SWAP3 SWAP2 SWAP1 PUSH2 0x3946 JUMP JUMPDEST PUSH1 0x20 PUSH1 0x40 MLOAD DUP1 DUP4 SUB DUP2 PUSH1 0x0 DUP8 DUP1 EXTCODESIZE ISZERO DUP1 ISZERO PUSH2 0x1C96 JUMPI PUSH1 0x0 DUP1 REVERT JUMPDEST POP GAS CALL ISZERO DUP1 ISZERO PUSH2 0x1CAA JUMPI RETURNDATASIZE PUSH1 0x0 DUP1 RETURNDATACOPY RETURNDATASIZE PUSH1 0x0 REVERT JUMPDEST POP POP POP POP PUSH1 0x40 MLOAD RETURNDATASIZE PUSH1 0x1F NOT PUSH1 0x1F DUP3 ADD AND DUP3 ADD DUP1 PUSH1 0x40 MSTORE POP DUP2 ADD SWAP1 PUSH2 0xA99 SWAP2 SWAP1 PUSH2 0x30C2 JUMP JUMPDEST PUSH1 0x0 DUP1 PUSH2 0x1CDA DUP4 PUSH2 0x275F JUMP JUMPDEST SWAP1 POP PUSH1 0x1 PUSH1 0x1 PUSH1 0xA0 SHL SUB DUP2 AND PUSH2 0x1D0D JUMPI POP PUSH32 0x0 JUMPDEST PUSH2 0x1D37 DUP2 PUSH32 0x0 PUSH2 0x1FD6 JUMP JUMPDEST SWAP1 POP JUMPDEST SWAP2 SWAP1 POP JUMP JUMPDEST PUSH1 0x0 DUP1 PUSH1 0x0 DUP1 DUP6 PUSH1 0x1 PUSH1 0x1 PUSH1 0xA0 SHL SUB AND PUSH4 0xAAF10F42 PUSH1 0x40 MLOAD DUP2 PUSH4 0xFFFFFFFF AND PUSH1 0xE0 SHL DUP2 MSTORE PUSH1 0x4 ADD PUSH1 0x20 PUSH1 0x40 MLOAD DUP1 DUP4 SUB DUP2 DUP7 DUP1 EXTCODESIZE ISZERO DUP1 ISZERO PUSH2 0x1D7E JUMPI PUSH1 0x0 DUP1 REVERT JUMPDEST POP GAS STATICCALL ISZERO DUP1 ISZERO PUSH2 0x1D92 JUMPI RETURNDATASIZE PUSH1 0x0 DUP1 RETURNDATACOPY RETURNDATASIZE PUSH1 0x0 REVERT JUMPDEST POP POP POP POP PUSH1 0x40 MLOAD RETURNDATASIZE PUSH1 0x1F NOT PUSH1 0x1F DUP3 ADD AND DUP3 ADD DUP1 PUSH1 0x40 MSTORE POP DUP2 ADD SWAP1 PUSH2 0x1DB6 SWAP2 SWAP1 PUSH2 0x2E4D JUMP JUMPDEST PUSH1 0x1 PUSH1 0x1 PUSH1 0xA0 SHL SUB AND PUSH4 0x5CAF9FDA PUSH1 0xE0 SHL DUP9 DUP11 DUP9 PUSH1 0x40 MLOAD PUSH1 0x24 ADD PUSH2 0x1DDC SWAP4 SWAP3 SWAP2 SWAP1 PUSH2 0x3BA5 JUMP JUMPDEST PUSH1 0x40 DUP1 MLOAD PUSH1 0x1F NOT DUP2 DUP5 SUB ADD DUP2 MSTORE SWAP2 DUP2 MSTORE PUSH1 0x20 DUP3 ADD DUP1 MLOAD PUSH1 0x1 PUSH1 0x1 PUSH1 0xE0 SHL SUB AND PUSH1 0x1 PUSH1 0x1 PUSH1 0xE0 SHL SUB NOT SWAP1 SWAP5 AND SWAP4 SWAP1 SWAP4 OR SWAP1 SWAP3 MSTORE SWAP1 MLOAD PUSH2 0x1E1A SWAP2 SWAP1 PUSH2 0x36F3 JUMP JUMPDEST PUSH1 0x0 PUSH1 0x40 MLOAD DUP1 DUP4 SUB DUP2 DUP6 GAS DELEGATECALL SWAP2 POP POP RETURNDATASIZE DUP1 PUSH1 0x0 DUP2 EQ PUSH2 0x1E55 JUMPI PUSH1 0x40 MLOAD SWAP2 POP PUSH1 0x1F NOT PUSH1 0x3F RETURNDATASIZE ADD AND DUP3 ADD PUSH1 0x40 MSTORE RETURNDATASIZE DUP3 MSTORE RETURNDATASIZE PUSH1 0x0 PUSH1 0x20 DUP5 ADD RETURNDATACOPY PUSH2 0x1E5A JUMP JUMPDEST PUSH1 0x60 SWAP2 POP JUMPDEST POP SWAP2 POP SWAP2 POP DUP2 PUSH2 0x1E69 JUMPI PUSH1 0x0 DUP1 REVERT JUMPDEST DUP1 DUP1 PUSH1 0x20 ADD SWAP1 MLOAD DUP2 ADD SWAP1 PUSH2 0x1E7D SWAP2 SWAP1 PUSH2 0x3122 JUMP JUMPDEST SWAP1 SWAP10 SWAP1 SWAP9 POP SWAP7 POP POP POP POP POP POP POP JUMP JUMPDEST PUSH1 0x0 DUP1 PUSH1 0x0 DUP1 DUP5 PUSH1 0x1 PUSH1 0x1 PUSH1 0xA0 SHL SUB AND PUSH4 0xAAF10F42 PUSH1 0x40 MLOAD DUP2 PUSH4 0xFFFFFFFF AND PUSH1 0xE0 SHL DUP2 MSTORE PUSH1 0x4 ADD PUSH1 0x20 PUSH1 0x40 MLOAD DUP1 DUP4 SUB DUP2 DUP7 DUP1 EXTCODESIZE ISZERO DUP1 ISZERO PUSH2 0x1ECB JUMPI PUSH1 0x0 DUP1 REVERT JUMPDEST POP GAS STATICCALL ISZERO DUP1 ISZERO PUSH2 0x1EDF JUMPI RETURNDATASIZE PUSH1 0x0 DUP1 RETURNDATACOPY RETURNDATASIZE PUSH1 0x0 REVERT JUMPDEST POP POP POP POP PUSH1 0x40 MLOAD RETURNDATASIZE PUSH1 0x1F NOT PUSH1 0x1F DUP3 ADD AND DUP3 ADD DUP1 PUSH1 0x40 MSTORE POP DUP2 ADD SWAP1 PUSH2 0x1F03 SWAP2 SWAP1 PUSH2 0x2E4D JUMP JUMPDEST PUSH1 0x1 PUSH1 0x1 PUSH1 0xA0 SHL SUB AND PUSH4 0x2BA8C23C PUSH1 0xE0 SHL DUP8 DUP10 PUSH1 0x40 MLOAD PUSH1 0x24 ADD PUSH2 0x1F27 SWAP3 SWAP2 SWAP1 PUSH2 0x3B88 JUMP JUMPDEST PUSH1 0x40 DUP1 MLOAD PUSH1 0x1F NOT DUP2 DUP5 SUB ADD DUP2 MSTORE SWAP2 DUP2 MSTORE PUSH1 0x20 DUP3 ADD DUP1 MLOAD PUSH1 0x1 PUSH1 0x1 PUSH1 0xE0 SHL SUB AND PUSH1 0x1 PUSH1 0x1 PUSH1 0xE0 SHL SUB NOT SWAP1 SWAP5 AND SWAP4 SWAP1 SWAP4 OR SWAP1 SWAP3 MSTORE SWAP1 MLOAD PUSH2 0x1F65 SWAP2 SWAP1 PUSH2 0x36F3 JUMP JUMPDEST PUSH1 0x0 PUSH1 0x40 MLOAD DUP1 DUP4 SUB DUP2 DUP6 GAS DELEGATECALL SWAP2 POP POP RETURNDATASIZE DUP1 PUSH1 0x0 DUP2 EQ PUSH2 0x1FA0 JUMPI PUSH1 0x40 MLOAD SWAP2 POP PUSH1 0x1F NOT PUSH1 0x3F RETURNDATASIZE ADD AND DUP3 ADD PUSH1 0x40 MSTORE RETURNDATASIZE DUP3 MSTORE RETURNDATASIZE PUSH1 0x0 PUSH1 0x20 DUP5 ADD RETURNDATACOPY PUSH2 0x1FA5 JUMP JUMPDEST PUSH1 0x60 SWAP2 POP JUMPDEST POP SWAP2 POP SWAP2 POP DUP2 PUSH2 0x1FB4 JUMPI PUSH1 0x0 DUP1 REVERT JUMPDEST DUP1 DUP1 PUSH1 0x20 ADD SWAP1 MLOAD DUP2 ADD SWAP1 PUSH2 0x1FC8 SWAP2 SWAP1 PUSH2 0x3122 JUMP JUMPDEST SWAP1 SWAP9 SWAP1 SWAP8 POP SWAP6 POP POP POP POP POP POP JUMP JUMPDEST PUSH1 0x40 MLOAD PUSH4 0x6EB1769F PUSH1 0xE1 SHL DUP2 MSTORE PUSH1 0x1 PUSH1 0x80 SHL SWAP1 PUSH1 0x1 PUSH1 0x1 PUSH1 0xA0 SHL SUB DUP5 AND SWAP1 PUSH4 0xDD62ED3E SWAP1 PUSH2 0x200A SWAP1 ADDRESS SWAP1 DUP7 SWAP1 PUSH1 0x4 ADD PUSH2 0x3880 JUMP JUMPDEST PUSH1 0x20 PUSH1 0x40 MLOAD DUP1 DUP4 SUB DUP2 DUP7 DUP1 EXTCODESIZE ISZERO DUP1 ISZERO PUSH2 0x2022 JUMPI PUSH1 0x0 DUP1 REVERT JUMPDEST POP GAS STATICCALL ISZERO DUP1 ISZERO PUSH2 0x2036 JUMPI RETURNDATASIZE PUSH1 0x0 DUP1 RETURNDATACOPY RETURNDATASIZE PUSH1 0x0 REVERT JUMPDEST POP POP POP POP PUSH1 0x40 MLOAD RETURNDATASIZE PUSH1 0x1F NOT PUSH1 0x1F DUP3 ADD AND DUP3 ADD DUP1 PUSH1 0x40 MSTORE POP DUP2 ADD SWAP1 PUSH2 0x205A SWAP2 SWAP1 PUSH2 0x35C4 JUMP JUMPDEST LT ISZERO PUSH2 0x1B4F JUMPI PUSH1 0x40 MLOAD PUSH4 0x95EA7B3 PUSH1 0xE0 SHL DUP2 MSTORE PUSH1 0x1 PUSH1 0x1 PUSH1 0xA0 SHL SUB DUP4 AND SWAP1 PUSH4 0x95EA7B3 SWAP1 PUSH2 0xF91 SWAP1 DUP5 SWAP1 PUSH1 0x0 NOT SWAP1 PUSH1 0x4 ADD PUSH2 0x3946 JUMP JUMPDEST PUSH1 0x40 DUP1 MLOAD PUSH1 0x1 DUP1 DUP3 MSTORE DUP2 DUP4 ADD SWAP1 SWAP3 MSTORE PUSH1 0x0 SWAP2 DUP2 PUSH1 0x20 ADD JUMPDEST PUSH2 0x20AF PUSH2 0x2A06 JUMP JUMPDEST DUP2 MSTORE PUSH1 0x20 ADD SWAP1 PUSH1 0x1 SWAP1 SUB SWAP1 DUP2 PUSH2 0x20A7 JUMPI SWAP1 POP POP SWAP1 POP PUSH1 0x1 PUSH1 0x1 PUSH1 0x60 SHL SUB DUP4 AND ISZERO PUSH2 0x20DA JUMPI PUSH1 0x5 PUSH2 0x20DD JUMP JUMPDEST PUSH1 0x0 JUMPDEST DUP2 PUSH1 0x0 DUP2 MLOAD DUP2 LT PUSH2 0x20EA JUMPI INVALID JUMPDEST PUSH1 0x20 MUL PUSH1 0x20 ADD ADD MLOAD PUSH1 0x0 ADD SWAP1 PUSH1 0x6 DUP2 GT ISZERO PUSH2 0x2101 JUMPI INVALID JUMPDEST SWAP1 DUP2 PUSH1 0x6 DUP2 GT ISZERO PUSH2 0x210E JUMPI INVALID JUMPDEST DUP2 MSTORE POP POP DUP4 DUP2 PUSH1 0x0 DUP2 MLOAD DUP2 LT PUSH2 0x2120 JUMPI INVALID JUMPDEST PUSH1 0x20 MUL PUSH1 0x20 ADD ADD MLOAD PUSH1 0x20 ADD SWAP1 PUSH2 0xFFFF AND SWAP1 DUP2 PUSH2 0xFFFF AND DUP2 MSTORE POP POP DUP3 PUSH1 0x1 PUSH1 0x1 PUSH1 0x60 SHL SUB AND DUP2 PUSH1 0x0 DUP2 MLOAD DUP2 LT PUSH2 0x2151 JUMPI INVALID JUMPDEST PUSH1 0x20 MUL PUSH1 0x20 ADD ADD MLOAD PUSH1 0x40 ADD DUP2 DUP2 MSTORE POP POP PUSH1 0x1 DUP2 PUSH1 0x0 DUP2 MLOAD DUP2 LT PUSH2 0x2170 JUMPI INVALID JUMPDEST PUSH1 0x20 MUL PUSH1 0x20 ADD ADD MLOAD PUSH1 0x80 ADD SWAP1 ISZERO ISZERO SWAP1 DUP2 ISZERO ISZERO DUP2 MSTORE POP POP DUP2 DUP2 PUSH1 0x0 DUP2 MLOAD DUP2 LT PUSH2 0x2194 JUMPI INVALID JUMPDEST PUSH1 0x20 SWAP1 DUP2 MUL SWAP2 SWAP1 SWAP2 ADD ADD MLOAD SWAP1 ISZERO ISZERO PUSH1 0xA0 SWAP1 SWAP2 ADD MSTORE PUSH1 0x40 MLOAD PUSH4 0x37351953 PUSH1 0xE1 SHL DUP2 MSTORE PUSH1 0x1 PUSH1 0x1 PUSH1 0xA0 SHL SUB PUSH32 0x0 AND SWAP1 PUSH4 0x6E6A32A6 SWAP1 PUSH2 0x21F6 SWAP1 ADDRESS SWAP1 DUP6 SWAP1 PUSH1 0x4 ADD PUSH2 0x37E8 JUMP JUMPDEST PUSH1 0x0 PUSH1 0x40 MLOAD DUP1 DUP4 SUB DUP2 PUSH1 0x0 DUP8 DUP1 EXTCODESIZE ISZERO DUP1 ISZERO PUSH2 0x2210 JUMPI PUSH1 0x0 DUP1 REVERT JUMPDEST POP GAS CALL ISZERO DUP1 ISZERO PUSH2 0x2224 JUMPI RETURNDATASIZE PUSH1 0x0 DUP1 RETURNDATACOPY RETURNDATASIZE PUSH1 0x0 REVERT JUMPDEST POP POP POP POP POP POP POP POP JUMP JUMPDEST PUSH1 0x40 MLOAD PUSH4 0x70A08231 PUSH1 0xE0 SHL DUP2 MSTORE PUSH1 0x1 PUSH1 0x1 PUSH1 0xA0 SHL SUB PUSH32 0x0 AND SWAP1 PUSH4 0xDE0E9A3E SWAP1 DUP3 SWAP1 PUSH4 0x70A08231 SWAP1 PUSH2 0x2282 SWAP1 ADDRESS SWAP1 PUSH1 0x4 ADD PUSH2 0x370F JUMP JUMPDEST PUSH1 0x20 PUSH1 0x40 MLOAD DUP1 DUP4 SUB DUP2 DUP7 DUP1 EXTCODESIZE ISZERO DUP1 ISZERO PUSH2 0x229A JUMPI PUSH1 0x0 DUP1 REVERT JUMPDEST POP GAS STATICCALL ISZERO DUP1 ISZERO PUSH2 0x22AE JUMPI RETURNDATASIZE PUSH1 0x0 DUP1 RETURNDATACOPY RETURNDATASIZE PUSH1 0x0 REVERT JUMPDEST POP POP POP POP PUSH1 0x40 MLOAD RETURNDATASIZE PUSH1 0x1F NOT PUSH1 0x1F DUP3 ADD AND DUP3 ADD DUP1 PUSH1 0x40 MSTORE POP DUP2 ADD SWAP1 PUSH2 0x22D2 SWAP2 SWAP1 PUSH2 0x35C4 JUMP JUMPDEST PUSH1 0x40 MLOAD DUP3 PUSH4 0xFFFFFFFF AND PUSH1 0xE0 SHL DUP2 MSTORE PUSH1 0x4 ADD PUSH2 0x22EE SWAP2 SWAP1 PUSH2 0x3BD8 JUMP JUMPDEST PUSH1 0x20 PUSH1 0x40 MLOAD DUP1 DUP4 SUB DUP2 PUSH1 0x0 DUP8 DUP1 EXTCODESIZE ISZERO DUP1 ISZERO PUSH2 0x2308 JUMPI PUSH1 0x0 DUP1 REVERT JUMPDEST POP GAS CALL ISZERO DUP1 ISZERO PUSH2 0x231C JUMPI RETURNDATASIZE PUSH1 0x0 DUP1 RETURNDATACOPY RETURNDATASIZE PUSH1 0x0 REVERT JUMPDEST POP POP POP POP PUSH1 0x40 MLOAD RETURNDATASIZE PUSH1 0x1F NOT PUSH1 0x1F DUP3 ADD AND DUP3 ADD DUP1 PUSH1 0x40 MSTORE POP DUP2 ADD SWAP1 PUSH2 0x10F8 SWAP2 SWAP1 PUSH2 0x35C4 JUMP JUMPDEST PUSH1 0x0 DUP1 DUP3 SLT ISZERO PUSH2 0x235A JUMPI PUSH2 0x2353 DUP3 PUSH2 0x2847 JUMP JUMPDEST SWAP1 POP PUSH2 0x1D3A JUMP JUMPDEST POP DUP1 PUSH2 0x1D3A JUMP JUMPDEST PUSH1 0x40 DUP1 MLOAD PUSH1 0x1 DUP1 DUP3 MSTORE DUP2 DUP4 ADD SWAP1 SWAP3 MSTORE TIMESTAMP SWAP2 PUSH1 0x0 SWAP2 SWAP1 DUP2 PUSH1 0x20 ADD JUMPDEST PUSH2 0x2383 PUSH2 0x2A3D JUMP JUMPDEST DUP2 MSTORE PUSH1 0x20 ADD SWAP1 PUSH1 0x1 SWAP1 SUB SWAP1 DUP2 PUSH2 0x237B JUMPI SWAP1 POP POP SWAP1 POP PUSH1 0x0 DUP5 GT PUSH2 0x23A7 JUMPI PUSH1 0x0 PUSH2 0x23AA JUMP JUMPDEST PUSH1 0x1 JUMPDEST DUP2 PUSH1 0x0 DUP2 MLOAD DUP2 LT PUSH2 0x23B7 JUMPI INVALID JUMPDEST PUSH1 0x20 MUL PUSH1 0x20 ADD ADD MLOAD PUSH1 0x0 ADD SWAP1 PUSH1 0x6 DUP2 GT ISZERO PUSH2 0x23CE JUMPI INVALID JUMPDEST SWAP1 DUP2 PUSH1 0x6 DUP2 GT ISZERO PUSH2 0x23DB JUMPI INVALID JUMPDEST DUP2 MSTORE POP POP DUP4 DUP2 PUSH1 0x0 DUP2 MLOAD DUP2 LT PUSH2 0x23ED JUMPI INVALID JUMPDEST PUSH1 0x20 MUL PUSH1 0x20 ADD ADD MLOAD PUSH1 0x40 ADD DUP2 DUP2 MSTORE POP POP DUP7 DUP2 PUSH1 0x0 DUP2 MLOAD DUP2 LT PUSH2 0x240B JUMPI INVALID JUMPDEST PUSH1 0x20 MUL PUSH1 0x20 ADD ADD MLOAD PUSH1 0x20 ADD SWAP1 PUSH2 0xFFFF AND SWAP1 DUP2 PUSH2 0xFFFF AND DUP2 MSTORE POP POP PUSH1 0x1 DUP2 PUSH1 0x0 DUP2 MLOAD DUP2 LT PUSH2 0x2434 JUMPI INVALID JUMPDEST PUSH1 0x20 MUL PUSH1 0x20 ADD ADD MLOAD PUSH1 0x80 ADD SWAP1 ISZERO ISZERO SWAP1 DUP2 ISZERO ISZERO DUP2 MSTORE POP POP DUP3 DUP2 PUSH1 0x0 DUP2 MLOAD DUP2 LT PUSH2 0x2458 JUMPI INVALID JUMPDEST PUSH1 0x20 MUL PUSH1 0x20 ADD ADD MLOAD PUSH1 0xA0 ADD SWAP1 ISZERO ISZERO SWAP1 DUP2 ISZERO ISZERO DUP2 MSTORE POP POP PUSH1 0x0 DUP1 DUP8 MLOAD PUSH1 0x1 PUSH1 0x1 PUSH1 0x40 SHL SUB DUP2 GT DUP1 ISZERO PUSH2 0x2488 JUMPI PUSH1 0x0 DUP1 REVERT JUMPDEST POP PUSH1 0x40 MLOAD SWAP1 DUP1 DUP3 MSTORE DUP1 PUSH1 0x20 MUL PUSH1 0x20 ADD DUP3 ADD PUSH1 0x40 MSTORE DUP1 ISZERO PUSH2 0x24B2 JUMPI DUP2 PUSH1 0x20 ADD PUSH1 0x20 DUP3 MUL DUP1 CALLDATASIZE DUP4 CALLDATACOPY ADD SWAP1 POP JUMPDEST POP SWAP1 POP PUSH1 0x0 JUMPDEST DUP8 MLOAD DUP2 LT ISZERO PUSH2 0x25A8 JUMPI DUP8 DUP2 DUP2 MLOAD DUP2 LT PUSH2 0x24CD JUMPI INVALID JUMPDEST PUSH1 0x20 MUL PUSH1 0x20 ADD ADD MLOAD PUSH1 0x0 EQ ISZERO PUSH2 0x24E2 JUMPI PUSH2 0x25A0 JUMP JUMPDEST PUSH1 0x0 DUP1 PUSH2 0x2504 PUSH1 0x7 DUP13 DUP6 DUP2 MLOAD DUP2 LT PUSH2 0x24F6 JUMPI INVALID JUMPDEST PUSH1 0x20 MUL PUSH1 0x20 ADD ADD MLOAD DUP10 PUSH2 0x2855 JUMP JUMPDEST SWAP2 POP SWAP2 POP DUP1 ISZERO PUSH2 0x2515 JUMPI POP POP PUSH2 0x25A0 JUMP JUMPDEST PUSH1 0x98 PUSH2 0x2533 DUP12 DUP6 DUP2 MLOAD DUP2 LT PUSH2 0x2526 JUMPI INVALID JUMPDEST PUSH1 0x20 MUL PUSH1 0x20 ADD ADD MLOAD PUSH2 0x2340 JUMP JUMPDEST PUSH11 0xFFFFFFFFFFFFFFFFFFFFFF AND SWAP1 SHL PUSH1 0xF0 DUP4 SWAP1 SHL PUSH1 0xF8 PUSH1 0x0 DUP14 DUP8 DUP2 MLOAD DUP2 LT PUSH2 0x2557 JUMPI INVALID JUMPDEST PUSH1 0x20 MUL PUSH1 0x20 ADD ADD MLOAD SGT PUSH2 0x256B JUMPI PUSH1 0x0 PUSH2 0x256E JUMP JUMPDEST PUSH1 0x1 JUMPDEST PUSH1 0x5 DUP2 GT ISZERO PUSH2 0x2579 JUMPI INVALID JUMPDEST SWAP1 SHL OR OR PUSH1 0x0 SHL DUP5 DUP7 DUP2 MLOAD DUP2 LT PUSH2 0x258C JUMPI INVALID JUMPDEST PUSH1 0x20 SWAP1 DUP2 MUL SWAP2 SWAP1 SWAP2 ADD ADD MSTORE POP POP PUSH1 0x1 SWAP1 SWAP3 ADD SWAP2 JUMPDEST PUSH1 0x1 ADD PUSH2 0x24B8 JUMP JUMPDEST POP DUP1 MLOAD DUP3 LT ISZERO PUSH2 0x2659 JUMPI PUSH1 0x0 DUP3 PUSH1 0x1 PUSH1 0x1 PUSH1 0x40 SHL SUB DUP2 GT DUP1 ISZERO PUSH2 0x25CA JUMPI PUSH1 0x0 DUP1 REVERT JUMPDEST POP PUSH1 0x40 MLOAD SWAP1 DUP1 DUP3 MSTORE DUP1 PUSH1 0x20 MUL PUSH1 0x20 ADD DUP3 ADD PUSH1 0x40 MSTORE DUP1 ISZERO PUSH2 0x25F4 JUMPI DUP2 PUSH1 0x20 ADD PUSH1 0x20 DUP3 MUL DUP1 CALLDATASIZE DUP4 CALLDATACOPY ADD SWAP1 POP JUMPDEST POP SWAP1 POP PUSH1 0x0 JUMPDEST DUP4 DUP2 LT ISZERO PUSH2 0x2635 JUMPI DUP3 DUP2 DUP2 MLOAD DUP2 LT PUSH2 0x260E JUMPI INVALID JUMPDEST PUSH1 0x20 MUL PUSH1 0x20 ADD ADD MLOAD DUP3 DUP3 DUP2 MLOAD DUP2 LT PUSH2 0x2622 JUMPI INVALID JUMPDEST PUSH1 0x20 SWAP1 DUP2 MUL SWAP2 SWAP1 SWAP2 ADD ADD MSTORE PUSH1 0x1 ADD PUSH2 0x25FA JUMP JUMPDEST POP DUP1 DUP5 PUSH1 0x0 DUP2 MLOAD DUP2 LT PUSH2 0x2644 JUMPI INVALID JUMPDEST PUSH1 0x20 MUL PUSH1 0x20 ADD ADD MLOAD PUSH1 0xC0 ADD DUP2 SWAP1 MSTORE POP POP PUSH2 0x2677 JUMP JUMPDEST DUP1 DUP4 PUSH1 0x0 DUP2 MLOAD DUP2 LT PUSH2 0x2667 JUMPI INVALID JUMPDEST PUSH1 0x20 MUL PUSH1 0x20 ADD ADD MLOAD PUSH1 0xC0 ADD DUP2 SWAP1 MSTORE POP JUMPDEST PUSH1 0x40 MLOAD PUSH4 0x276B64B PUSH1 0xE0 SHL DUP2 MSTORE PUSH1 0x1 PUSH1 0x1 PUSH1 0xA0 SHL SUB PUSH32 0x0 AND SWAP1 PUSH4 0x276B64B SWAP1 PUSH2 0x26C5 SWAP1 ADDRESS SWAP1 DUP8 SWAP1 PUSH1 0x4 ADD PUSH2 0x3723 JUMP JUMPDEST PUSH1 0x0 PUSH1 0x40 MLOAD DUP1 DUP4 SUB DUP2 PUSH1 0x0 DUP8 DUP1 EXTCODESIZE ISZERO DUP1 ISZERO PUSH2 0x26DF JUMPI PUSH1 0x0 DUP1 REVERT JUMPDEST POP GAS CALL ISZERO DUP1 ISZERO PUSH2 0x26F3 JUMPI RETURNDATASIZE PUSH1 0x0 DUP1 RETURNDATACOPY RETURNDATASIZE PUSH1 0x0 REVERT JUMPDEST POP POP POP POP POP POP POP POP POP POP POP POP POP JUMP JUMPDEST PUSH1 0x0 DUP3 DUP3 GT ISZERO PUSH2 0x2759 JUMPI PUSH1 0x40 DUP1 MLOAD PUSH3 0x461BCD PUSH1 0xE5 SHL DUP2 MSTORE PUSH1 0x20 PUSH1 0x4 DUP3 ADD MSTORE PUSH1 0x1E PUSH1 0x24 DUP3 ADD MSTORE PUSH32 0x536166654D6174683A207375627472616374696F6E206F766572666C6F770000 PUSH1 0x44 DUP3 ADD MSTORE SWAP1 MLOAD SWAP1 DUP2 SWAP1 SUB PUSH1 0x64 ADD SWAP1 REVERT JUMPDEST POP SWAP1 SUB SWAP1 JUMP JUMPDEST PUSH1 0x0 DUP1 PUSH32 0x0 PUSH1 0x1 PUSH1 0x1 PUSH1 0xA0 SHL SUB AND PUSH4 0x4EBAD18E DUP5 PUSH1 0x40 MLOAD DUP3 PUSH4 0xFFFFFFFF AND PUSH1 0xE0 SHL DUP2 MSTORE PUSH1 0x4 ADD PUSH2 0x27AE SWAP2 SWAP1 PUSH2 0x3B79 JUMP JUMPDEST PUSH2 0x140 PUSH1 0x40 MLOAD DUP1 DUP4 SUB DUP2 DUP7 DUP1 EXTCODESIZE ISZERO DUP1 ISZERO PUSH2 0x27C7 JUMPI PUSH1 0x0 DUP1 REVERT JUMPDEST POP GAS STATICCALL ISZERO DUP1 ISZERO PUSH2 0x27DB JUMPI RETURNDATASIZE PUSH1 0x0 DUP1 RETURNDATACOPY RETURNDATASIZE PUSH1 0x0 REVERT JUMPDEST POP POP POP POP PUSH1 0x40 MLOAD RETURNDATASIZE PUSH1 0x1F NOT PUSH1 0x1F DUP3 ADD AND DUP3 ADD DUP1 PUSH1 0x40 MSTORE POP DUP2 ADD SWAP1 PUSH2 0x27FF SWAP2 SWAP1 PUSH2 0x3541 JUMP JUMPDEST DUP1 MLOAD SWAP1 SWAP3 POP PUSH1 0x1 PUSH1 0x1 PUSH1 0xA0 SHL SUB AND ISZERO SWAP1 POP PUSH2 0x2840 JUMPI DUP1 MLOAD PUSH2 0x2840 SWAP1 PUSH32 0x0 PUSH2 0x1FD6 JUMP JUMPDEST MLOAD SWAP3 SWAP2 POP POP JUMP JUMPDEST PUSH1 0x0 PUSH2 0x1D37 PUSH1 0x0 NOT DUP4 PUSH2 0x28E4 JUMP JUMPDEST PUSH1 0x0 DUP1 PUSH1 0x0 DUP6 GT PUSH2 0x2865 JUMPI PUSH1 0x0 DUP1 REVERT JUMPDEST PUSH1 0x7 DUP6 GT ISZERO PUSH2 0x2873 JUMPI PUSH1 0x0 DUP1 REVERT JUMPDEST PUSH1 0x0 PUSH2 0x287E DUP5 PUSH2 0x2932 JUMP JUMPDEST SWAP1 POP PUSH1 0x1 JUMPDEST DUP7 DUP2 GT PUSH2 0x28D6 JUMPI PUSH1 0x0 PUSH2 0x289F PUSH2 0x2898 DUP4 PUSH2 0x2950 JUMP JUMPDEST DUP5 SWAP1 PUSH2 0x29F4 JUMP JUMPDEST SWAP1 POP DUP7 DUP2 EQ ISZERO PUSH2 0x28B7 JUMPI POP SWAP3 POP PUSH1 0x0 SWAP2 POP PUSH2 0x28DC SWAP1 POP JUMP JUMPDEST DUP7 DUP2 GT ISZERO PUSH2 0x28CD JUMPI POP SWAP3 POP PUSH1 0x1 SWAP2 POP PUSH2 0x28DC SWAP1 POP JUMP JUMPDEST POP PUSH1 0x1 ADD PUSH2 0x2883 JUMP JUMPDEST POP PUSH1 0x0 DUP1 REVERT JUMPDEST SWAP4 POP SWAP4 SWAP2 POP POP JUMP JUMPDEST DUP2 DUP2 MUL PUSH1 0x0 NOT DUP4 EQ ISZERO PUSH2 0x2914 JUMPI DUP2 ISZERO DUP1 PUSH2 0x2906 JUMPI POP DUP3 DUP3 DUP3 DUP2 PUSH2 0x2903 JUMPI INVALID JUMPDEST SDIV EQ JUMPDEST PUSH2 0x290F JUMPI PUSH1 0x0 DUP1 REVERT JUMPDEST PUSH2 0x1BB0 JUMP JUMPDEST DUP3 ISZERO DUP1 PUSH2 0x2929 JUMPI POP DUP2 DUP4 DUP3 DUP2 PUSH2 0x2926 JUMPI INVALID JUMPDEST SDIV EQ JUMPDEST PUSH2 0x1BB0 JUMPI PUSH1 0x0 DUP1 REVERT JUMPDEST PUSH1 0x0 PUSH3 0x76A700 DUP3 LT ISZERO PUSH2 0x2944 JUMPI PUSH1 0x0 DUP1 REVERT JUMPDEST POP PUSH3 0x76A700 DUP2 MOD SWAP1 SUB SWAP1 JUMP JUMPDEST PUSH1 0x0 DUP2 PUSH1 0x1 EQ ISZERO PUSH2 0x2965 JUMPI POP PUSH3 0x76A700 PUSH2 0x1D3A JUMP JUMPDEST DUP2 PUSH1 0x2 EQ ISZERO PUSH2 0x2978 JUMPI POP PUSH3 0xED4E00 PUSH2 0x1D3A JUMP JUMPDEST DUP2 PUSH1 0x3 EQ ISZERO PUSH2 0x298C JUMPI POP PUSH4 0x1DA9C00 PUSH2 0x1D3A JUMP JUMPDEST DUP2 PUSH1 0x4 EQ ISZERO PUSH2 0x29A0 JUMPI POP PUSH4 0x3B53800 PUSH2 0x1D3A JUMP JUMPDEST DUP2 PUSH1 0x5 EQ ISZERO PUSH2 0x29B4 JUMPI POP PUSH4 0x9450C00 PUSH2 0x1D3A JUMP JUMPDEST DUP2 PUSH1 0x6 EQ ISZERO PUSH2 0x29C8 JUMPI POP PUSH4 0x128A1800 PUSH2 0x1D3A JUMP JUMPDEST DUP2 PUSH1 0x7 EQ ISZERO PUSH2 0x29DC JUMPI POP PUSH4 0x25143000 PUSH2 0x1D3A JUMP JUMPDEST PUSH1 0x40 MLOAD PUSH3 0x461BCD PUSH1 0xE5 SHL DUP2 MSTORE PUSH1 0x4 ADD PUSH2 0x8A8 SWAP1 PUSH2 0x3B1D JUMP JUMPDEST PUSH1 0x0 DUP3 DUP3 ADD DUP4 DUP2 LT ISZERO PUSH2 0x1BAD JUMPI PUSH1 0x0 DUP1 REVERT JUMPDEST PUSH1 0x40 DUP1 MLOAD PUSH1 0xC0 DUP2 ADD SWAP1 SWAP2 MSTORE DUP1 PUSH1 0x0 DUP2 MSTORE PUSH1 0x0 PUSH1 0x20 DUP3 ADD DUP2 SWAP1 MSTORE PUSH1 0x40 DUP3 ADD DUP2 SWAP1 MSTORE PUSH1 0x60 DUP3 ADD DUP2 SWAP1 MSTORE PUSH1 0x80 DUP3 ADD DUP2 SWAP1 MSTORE PUSH1 0xA0 SWAP1 SWAP2 ADD MSTORE SWAP1 JUMP JUMPDEST PUSH1 0x40 DUP1 MLOAD PUSH1 0xE0 DUP2 ADD SWAP1 SWAP2 MSTORE DUP1 PUSH1 0x0 DUP2 MSTORE PUSH1 0x20 ADD PUSH1 0x0 PUSH2 0xFFFF AND DUP2 MSTORE PUSH1 0x20 ADD PUSH1 0x0 DUP2 MSTORE PUSH1 0x20 ADD PUSH1 0x0 DUP2 MSTORE PUSH1 0x20 ADD PUSH1 0x0 ISZERO ISZERO DUP2 MSTORE PUSH1 0x20 ADD PUSH1 0x0 ISZERO ISZERO DUP2 MSTORE PUSH1 0x20 ADD PUSH1 0x60 DUP2 MSTORE POP SWAP1 JUMP JUMPDEST DUP1 MLOAD PUSH2 0x1D3A DUP2 PUSH2 0x3C84 JUMP JUMPDEST PUSH1 0x0 DUP1 DUP4 PUSH1 0x1F DUP5 ADD SLT PUSH2 0x2A9F JUMPI DUP2 DUP3 REVERT JUMPDEST POP DUP2 CALLDATALOAD PUSH1 0x1 PUSH1 0x1 PUSH1 0x40 SHL SUB DUP2 GT ISZERO PUSH2 0x2AB5 JUMPI DUP2 DUP3 REVERT JUMPDEST PUSH1 0x20 DUP4 ADD SWAP2 POP DUP4 PUSH1 0x20 DUP1 DUP4 MUL DUP6 ADD ADD GT ISZERO PUSH2 0x2ACF JUMPI PUSH1 0x0 DUP1 REVERT JUMPDEST SWAP3 POP SWAP3 SWAP1 POP JUMP JUMPDEST PUSH1 0x0 DUP3 PUSH1 0x1F DUP4 ADD SLT PUSH2 0x2AE6 JUMPI DUP1 DUP2 REVERT JUMPDEST DUP2 MLOAD PUSH1 0x20 PUSH2 0x2AFB PUSH2 0x2AF6 DUP4 PUSH2 0x3C1A JUMP JUMPDEST PUSH2 0x3BF7 JUMP JUMPDEST DUP3 DUP2 MSTORE DUP2 DUP2 ADD SWAP1 DUP6 DUP4 ADD DUP4 DUP6 MUL DUP8 ADD DUP5 ADD DUP9 LT ISZERO PUSH2 0x2B17 JUMPI DUP6 DUP7 REVERT JUMPDEST DUP6 JUMPDEST DUP6 DUP2 LT ISZERO PUSH2 0x2B35 JUMPI DUP2 MLOAD DUP5 MSTORE SWAP3 DUP5 ADD SWAP3 SWAP1 DUP5 ADD SWAP1 PUSH1 0x1 ADD PUSH2 0x2B19 JUMP JUMPDEST POP SWAP1 SWAP8 SWAP7 POP POP POP POP POP POP POP JUMP JUMPDEST DUP1 CALLDATALOAD PUSH2 0x1D3A DUP2 PUSH2 0x3C99 JUMP JUMPDEST DUP1 MLOAD PUSH2 0x1D3A DUP2 PUSH2 0x3C99 JUMP JUMPDEST PUSH1 0x0 DUP1 DUP4 PUSH1 0x1F DUP5 ADD SLT PUSH2 0x2B69 JUMPI DUP2 DUP3 REVERT JUMPDEST POP DUP2 CALLDATALOAD PUSH1 0x1 PUSH1 0x1 PUSH1 0x40 SHL SUB DUP2 GT ISZERO PUSH2 0x2B7F JUMPI DUP2 DUP3 REVERT JUMPDEST PUSH1 0x20 DUP4 ADD SWAP2 POP DUP4 PUSH1 0x20 DUP3 DUP6 ADD ADD GT ISZERO PUSH2 0x2ACF JUMPI PUSH1 0x0 DUP1 REVERT JUMPDEST PUSH1 0x0 DUP3 PUSH1 0x1F DUP4 ADD SLT PUSH2 0x2BA7 JUMPI DUP1 DUP2 REVERT JUMPDEST DUP2 CALLDATALOAD PUSH2 0x2BB5 PUSH2 0x2AF6 DUP3 PUSH2 0x3C37 JUMP JUMPDEST DUP2 DUP2 MSTORE DUP5 PUSH1 0x20 DUP4 DUP7 ADD ADD GT ISZERO PUSH2 0x2BC9 JUMPI DUP3 DUP4 REVERT JUMPDEST DUP2 PUSH1 0x20 DUP6 ADD PUSH1 0x20 DUP4 ADD CALLDATACOPY SWAP1 DUP2 ADD PUSH1 0x20 ADD SWAP2 SWAP1 SWAP2 MSTORE SWAP3 SWAP2 POP POP JUMP JUMPDEST PUSH1 0x0 DUP3 PUSH1 0x1F DUP4 ADD SLT PUSH2 0x2BF3 JUMPI DUP1 DUP2 REVERT JUMPDEST DUP2 MLOAD PUSH2 0x2C01 PUSH2 0x2AF6 DUP3 PUSH2 0x3C37 JUMP JUMPDEST DUP2 DUP2 MSTORE DUP5 PUSH1 0x20 DUP4 DUP7 ADD ADD GT ISZERO PUSH2 0x2C15 JUMPI DUP3 DUP4 REVERT JUMPDEST PUSH2 0x2C26 DUP3 PUSH1 0x20 DUP4 ADD PUSH1 0x20 DUP8 ADD PUSH2 0x3C58 JUMP JUMPDEST SWAP5 SWAP4 POP POP POP POP JUMP JUMPDEST DUP1 MLOAD PUSH1 0x4 DUP2 LT PUSH2 0x1D3A JUMPI PUSH1 0x0 DUP1 REVERT JUMPDEST PUSH1 0x0 PUSH1 0xA0 DUP3 DUP5 SUB SLT ISZERO PUSH2 0x2C4E JUMPI DUP1 DUP2 REVERT JUMPDEST PUSH1 0x40 MLOAD PUSH1 0xA0 DUP2 ADD DUP2 DUP2 LT PUSH1 0x1 PUSH1 0x1 PUSH1 0x40 SHL SUB DUP3 GT OR ISZERO PUSH2 0x2C6A JUMPI INVALID JUMPDEST DUP1 PUSH1 0x40 MSTORE POP DUP1 SWAP2 POP DUP3 MLOAD PUSH2 0x2C7D DUP2 PUSH2 0x3C84 JUMP JUMPDEST DUP2 MSTORE PUSH1 0x20 DUP4 ADD MLOAD PUSH2 0x2C8D DUP2 PUSH2 0x3C99 JUMP JUMPDEST PUSH1 0x20 DUP3 ADD MSTORE PUSH1 0x40 DUP4 DUP2 ADD MLOAD SWAP1 DUP3 ADD MSTORE PUSH1 0x60 DUP4 ADD MLOAD PUSH1 0x6 DUP2 LT PUSH2 0x2CAE JUMPI PUSH1 0x0 DUP1 REVERT JUMPDEST PUSH1 0x60 DUP3 ADD MSTORE PUSH1 0x80 SWAP3 DUP4 ADD MLOAD SWAP3 ADD SWAP2 SWAP1 SWAP2 MSTORE SWAP2 SWAP1 POP JUMP JUMPDEST PUSH1 0x0 PUSH1 0x80 DUP3 DUP5 SUB SLT ISZERO PUSH2 0x2CD5 JUMPI DUP1 DUP2 REVERT JUMPDEST PUSH1 0x40 DUP1 MLOAD PUSH1 0x80 DUP2 ADD PUSH1 0x1 PUSH1 0x1 PUSH1 0x40 SHL SUB DUP3 DUP3 LT DUP2 DUP4 GT OR ISZERO PUSH2 0x2CF3 JUMPI INVALID JUMPDEST DUP2 DUP5 MSTORE DUP3 SWAP5 POP DUP6 MLOAD SWAP2 POP DUP1 DUP3 GT ISZERO PUSH2 0x2D0A JUMPI PUSH1 0x0 DUP1 REVERT JUMPDEST SWAP1 DUP6 ADD SWAP1 PUSH1 0xE0 DUP3 DUP9 SUB SLT ISZERO PUSH2 0x2D1E JUMPI PUSH1 0x0 DUP1 REVERT JUMPDEST PUSH2 0x2D28 PUSH1 0xE0 PUSH2 0x3BF7 JUMP JUMPDEST PUSH2 0x2D31 DUP4 PUSH2 0x2C2E JUMP JUMPDEST DUP2 MSTORE PUSH2 0x2D3F PUSH1 0x20 DUP5 ADD PUSH2 0x2A83 JUMP JUMPDEST PUSH1 0x20 DUP3 ADD MSTORE PUSH2 0x2D4F DUP6 DUP5 ADD PUSH2 0x2A83 JUMP JUMPDEST DUP6 DUP3 ADD MSTORE PUSH1 0x60 DUP4 ADD MLOAD PUSH1 0x60 DUP3 ADD MSTORE PUSH1 0x80 DUP4 ADD MLOAD PUSH1 0x80 DUP3 ADD MSTORE PUSH1 0xA0 DUP4 ADD MLOAD PUSH1 0xA0 DUP3 ADD MSTORE PUSH1 0xC0 DUP4 ADD MLOAD DUP3 DUP2 GT ISZERO PUSH2 0x2D83 JUMPI PUSH1 0x0 DUP1 REVERT JUMPDEST PUSH2 0x2D8F DUP10 DUP3 DUP7 ADD PUSH2 0x2BE3 JUMP JUMPDEST PUSH1 0xC0 DUP4 ADD MSTORE POP DUP4 MSTORE POP PUSH2 0x2DA6 SWAP1 POP PUSH1 0x20 DUP6 ADD PUSH2 0x2DEA JUMP JUMPDEST PUSH1 0x20 DUP3 ADD MSTORE PUSH2 0x2DB6 DUP3 DUP6 ADD PUSH2 0x2B4D JUMP JUMPDEST DUP3 DUP3 ADD MSTORE PUSH2 0x2DC6 PUSH1 0x60 DUP6 ADD PUSH2 0x2DF5 JUMP JUMPDEST PUSH1 0x60 DUP3 ADD MSTORE POP POP SWAP3 SWAP2 POP POP JUMP JUMPDEST DUP1 MLOAD PUSH1 0x1 PUSH1 0x1 PUSH1 0x80 SHL SUB DUP2 AND DUP2 EQ PUSH2 0x1D3A JUMPI PUSH1 0x0 DUP1 REVERT JUMPDEST DUP1 MLOAD PUSH2 0x1D3A DUP2 PUSH2 0x3CA7 JUMP JUMPDEST DUP1 MLOAD PUSH4 0xFFFFFFFF DUP2 AND DUP2 EQ PUSH2 0x1D3A JUMPI PUSH1 0x0 DUP1 REVERT JUMPDEST DUP1 CALLDATALOAD PUSH1 0xFF DUP2 AND DUP2 EQ PUSH2 0x1D3A JUMPI PUSH1 0x0 DUP1 REVERT JUMPDEST DUP1 MLOAD PUSH1 0x1 PUSH1 0x1 PUSH1 0x60 SHL SUB DUP2 AND DUP2 EQ PUSH2 0x1D3A JUMPI PUSH1 0x0 DUP1 REVERT JUMPDEST PUSH1 0x0 PUSH1 0x20 DUP3 DUP5 SUB SLT ISZERO PUSH2 0x2E42 JUMPI DUP1 DUP2 REVERT JUMPDEST DUP2 CALLDATALOAD PUSH2 0x1BAD DUP2 PUSH2 0x3C84 JUMP JUMPDEST PUSH1 0x0 PUSH1 0x20 DUP3 DUP5 SUB SLT ISZERO PUSH2 0x2E5E JUMPI DUP1 DUP2 REVERT JUMPDEST DUP2 MLOAD PUSH2 0x1BAD DUP2 PUSH2 0x3C84 JUMP JUMPDEST PUSH1 0x0 DUP1 PUSH1 0x40 DUP4 DUP6 SUB SLT ISZERO PUSH2 0x2E7B JUMPI DUP1 DUP2 REVERT JUMPDEST DUP3 CALLDATALOAD PUSH2 0x2E86 DUP2 PUSH2 0x3C84 JUMP JUMPDEST SWAP5 PUSH1 0x20 SWAP4 SWAP1 SWAP4 ADD CALLDATALOAD SWAP4 POP POP POP JUMP JUMPDEST PUSH1 0x0 DUP1 PUSH1 0x0 DUP1 PUSH1 0x0 DUP1 PUSH1 0xA0 DUP8 DUP10 SUB SLT ISZERO PUSH2 0x2EAC JUMPI DUP2 DUP3 REVERT JUMPDEST DUP7 CALLDATALOAD PUSH2 0x2EB7 DUP2 PUSH2 0x3C84 JUMP JUMPDEST SWAP6 POP PUSH1 0x20 DUP8 ADD CALLDATALOAD SWAP5 POP PUSH1 0x40 DUP8 ADD CALLDATALOAD PUSH1 0x1 PUSH1 0x1 PUSH1 0x40 SHL SUB DUP2 GT ISZERO PUSH2 0x2ED8 JUMPI DUP3 DUP4 REVERT JUMPDEST PUSH2 0x2EE4 DUP10 DUP3 DUP11 ADD PUSH2 0x2B58 JUMP JUMPDEST SWAP1 SWAP6 POP SWAP4 POP POP PUSH1 0x60 DUP8 ADD CALLDATALOAD PUSH2 0x2EF8 DUP2 PUSH2 0x3C84 JUMP JUMPDEST SWAP2 POP PUSH1 0x80 DUP8 ADD CALLDATALOAD PUSH2 0x2F08 DUP2 PUSH2 0x3C84 JUMP JUMPDEST DUP1 SWAP2 POP POP SWAP3 SWAP6 POP SWAP3 SWAP6 POP SWAP3 SWAP6 JUMP JUMPDEST PUSH1 0x0 DUP1 PUSH1 0x0 PUSH1 0x40 DUP5 DUP7 SUB SLT ISZERO PUSH2 0x2F2A JUMPI DUP1 DUP2 REVERT JUMPDEST DUP4 CALLDATALOAD PUSH1 0x1 PUSH1 0x1 PUSH1 0x40 SHL SUB DUP2 GT ISZERO PUSH2 0x2F3F JUMPI DUP2 DUP3 REVERT JUMPDEST PUSH2 0x2F4B DUP7 DUP3 DUP8 ADD PUSH2 0x2A8E JUMP JUMPDEST SWAP1 SWAP5 POP SWAP3 POP POP PUSH1 0x20 DUP5 ADD CALLDATALOAD PUSH2 0x2F5F DUP2 PUSH2 0x3C84 JUMP JUMPDEST DUP1 SWAP2 POP POP SWAP3 POP SWAP3 POP SWAP3 JUMP JUMPDEST PUSH1 0x0 DUP1 PUSH1 0x0 DUP1 PUSH1 0x0 DUP1 PUSH1 0x0 DUP1 PUSH1 0x0 PUSH1 0xA0 DUP11 DUP13 SUB SLT ISZERO PUSH2 0x2F87 JUMPI DUP7 DUP8 REVERT JUMPDEST DUP10 CALLDATALOAD PUSH1 0x1 PUSH1 0x1 PUSH1 0x40 SHL SUB DUP1 DUP3 GT ISZERO PUSH2 0x2F9D JUMPI DUP9 DUP10 REVERT JUMPDEST PUSH2 0x2FA9 DUP14 DUP4 DUP15 ADD PUSH2 0x2A8E JUMP JUMPDEST SWAP1 SWAP12 POP SWAP10 POP PUSH1 0x20 DUP13 ADD CALLDATALOAD SWAP2 POP DUP1 DUP3 GT ISZERO PUSH2 0x2FC1 JUMPI DUP9 DUP10 REVERT JUMPDEST PUSH2 0x2FCD DUP14 DUP4 DUP15 ADD PUSH2 0x2A8E JUMP JUMPDEST SWAP1 SWAP10 POP SWAP8 POP PUSH1 0x40 DUP13 ADD CALLDATALOAD SWAP2 POP DUP1 DUP3 GT ISZERO PUSH2 0x2FE5 JUMPI DUP5 DUP6 REVERT JUMPDEST PUSH2 0x2FF1 DUP14 DUP4 DUP15 ADD PUSH2 0x2A8E JUMP JUMPDEST SWAP1 SWAP8 POP SWAP6 POP PUSH1 0x60 DUP13 ADD CALLDATALOAD SWAP2 POP PUSH2 0x3006 DUP3 PUSH2 0x3C84 JUMP JUMPDEST SWAP1 SWAP4 POP PUSH1 0x80 DUP12 ADD CALLDATALOAD SWAP1 DUP1 DUP3 GT ISZERO PUSH2 0x301B JUMPI DUP4 DUP5 REVERT JUMPDEST POP PUSH2 0x3028 DUP13 DUP3 DUP14 ADD PUSH2 0x2B58 JUMP JUMPDEST SWAP2 POP DUP1 SWAP4 POP POP DUP1 SWAP2 POP POP SWAP3 SWAP6 SWAP9 POP SWAP3 SWAP6 SWAP9 POP SWAP3 SWAP6 SWAP9 JUMP JUMPDEST PUSH1 0x0 DUP1 PUSH1 0x40 DUP4 DUP6 SUB SLT ISZERO PUSH2 0x3051 JUMPI DUP2 DUP3 REVERT JUMPDEST DUP3 MLOAD PUSH1 0x1 PUSH1 0x1 PUSH1 0x40 SHL SUB DUP2 GT ISZERO PUSH2 0x3066 JUMPI DUP3 DUP4 REVERT JUMPDEST PUSH2 0x3072 DUP6 DUP3 DUP7 ADD PUSH2 0x2AD6 JUMP JUMPDEST SWAP3 POP POP PUSH1 0x20 DUP4 ADD MLOAD SWAP1 POP SWAP3 POP SWAP3 SWAP1 POP JUMP JUMPDEST PUSH1 0x0 DUP1 PUSH1 0x20 DUP4 DUP6 SUB SLT ISZERO PUSH2 0x3095 JUMPI DUP2 DUP3 REVERT JUMPDEST DUP3 CALLDATALOAD PUSH1 0x1 PUSH1 0x1 PUSH1 0x40 SHL SUB DUP2 GT ISZERO PUSH2 0x30AA JUMPI DUP3 DUP4 REVERT JUMPDEST PUSH2 0x30B6 DUP6 DUP3 DUP7 ADD PUSH2 0x2A8E JUMP JUMPDEST SWAP1 SWAP7 SWAP1 SWAP6 POP SWAP4 POP POP POP POP JUMP JUMPDEST PUSH1 0x0 PUSH1 0x20 DUP3 DUP5 SUB SLT ISZERO PUSH2 0x30D3 JUMPI DUP1 DUP2 REVERT JUMPDEST DUP2 MLOAD PUSH2 0x1BAD DUP2 PUSH2 0x3C99 JUMP JUMPDEST PUSH1 0x0 DUP1 PUSH1 0x40 DUP4 DUP6 SUB SLT ISZERO PUSH2 0x30F0 JUMPI DUP2 DUP3 REVERT JUMPDEST DUP3 MLOAD SWAP2 POP PUSH1 0x20 DUP4 ADD MLOAD PUSH1 0x1 PUSH1 0x1 PUSH1 0x40 SHL SUB DUP2 GT ISZERO PUSH2 0x310C JUMPI DUP2 DUP3 REVERT JUMPDEST PUSH2 0x3118 DUP6 DUP3 DUP7 ADD PUSH2 0x2AD6 JUMP JUMPDEST SWAP2 POP POP SWAP3 POP SWAP3 SWAP1 POP JUMP JUMPDEST PUSH1 0x0 DUP1 PUSH1 0x40 DUP4 DUP6 SUB SLT ISZERO PUSH2 0x3134 JUMPI DUP2 DUP3 REVERT JUMPDEST POP POP DUP1 MLOAD PUSH1 0x20 SWAP1 SWAP2 ADD MLOAD SWAP1 SWAP3 SWAP1 SWAP2 POP JUMP JUMPDEST PUSH1 0x0 DUP1 PUSH1 0x0 PUSH1 0x60 DUP5 DUP7 SUB SLT ISZERO PUSH2 0x3159 JUMPI DUP1 DUP2 REVERT JUMPDEST DUP4 MLOAD SWAP3 POP PUSH1 0x20 DUP5 ADD MLOAD SWAP2 POP PUSH1 0x40 DUP5 ADD MLOAD SWAP1 POP SWAP3 POP SWAP3 POP SWAP3 JUMP JUMPDEST PUSH1 0x0 PUSH1 0x20 DUP3 DUP5 SUB SLT ISZERO PUSH2 0x3183 JUMPI DUP1 DUP2 REVERT JUMPDEST DUP2 MLOAD PUSH1 0x1 PUSH1 0x1 PUSH1 0x40 SHL SUB DUP1 DUP3 GT ISZERO PUSH2 0x3199 JUMPI DUP3 DUP4 REVERT JUMPDEST SWAP1 DUP4 ADD SWAP1 PUSH1 0xE0 DUP3 DUP7 SUB SLT ISZERO PUSH2 0x31AC JUMPI DUP3 DUP4 REVERT JUMPDEST PUSH2 0x31B6 PUSH1 0xE0 PUSH2 0x3BF7 JUMP JUMPDEST PUSH2 0x31BF DUP4 PUSH2 0x2A83 JUMP JUMPDEST DUP2 MSTORE PUSH2 0x31CD PUSH1 0x20 DUP5 ADD PUSH2 0x2DEA JUMP JUMPDEST PUSH1 0x20 DUP3 ADD MSTORE PUSH2 0x31DE PUSH1 0x40 DUP5 ADD PUSH2 0x2DEA JUMP JUMPDEST PUSH1 0x40 DUP3 ADD MSTORE PUSH2 0x31EF PUSH1 0x60 DUP5 ADD PUSH2 0x2A83 JUMP JUMPDEST PUSH1 0x60 DUP3 ADD MSTORE PUSH2 0x3200 PUSH1 0x80 DUP5 ADD PUSH2 0x2DD3 JUMP JUMPDEST PUSH1 0x80 DUP3 ADD MSTORE PUSH2 0x3211 PUSH1 0xA0 DUP5 ADD PUSH2 0x2E1A JUMP JUMPDEST PUSH1 0xA0 DUP3 ADD MSTORE PUSH1 0xC0 DUP4 ADD MLOAD DUP3 DUP2 GT ISZERO PUSH2 0x3227 JUMPI DUP5 DUP6 REVERT JUMPDEST PUSH2 0x3233 DUP8 DUP3 DUP7 ADD PUSH2 0x2CC4 JUMP JUMPDEST PUSH1 0xC0 DUP4 ADD MSTORE POP SWAP6 SWAP5 POP POP POP POP POP JUMP JUMPDEST PUSH1 0x0 PUSH1 0x20 DUP3 DUP5 SUB SLT ISZERO PUSH2 0x3253 JUMPI DUP1 DUP2 REVERT JUMPDEST DUP2 MLOAD PUSH1 0x1 PUSH1 0x1 PUSH1 0x40 SHL SUB DUP1 DUP3 GT ISZERO PUSH2 0x3269 JUMPI DUP3 DUP4 REVERT JUMPDEST DUP2 DUP5 ADD SWAP2 POP PUSH2 0x100 DUP1 DUP4 DUP8 SUB SLT ISZERO PUSH2 0x327F JUMPI DUP4 DUP5 REVERT JUMPDEST PUSH2 0x3288 DUP2 PUSH2 0x3BF7 JUMP JUMPDEST SWAP1 POP PUSH2 0x3293 DUP4 PUSH2 0x2A83 JUMP JUMPDEST DUP2 MSTORE PUSH2 0x32A1 PUSH1 0x20 DUP5 ADD PUSH2 0x2DEA JUMP JUMPDEST PUSH1 0x20 DUP3 ADD MSTORE PUSH2 0x32B2 PUSH1 0x40 DUP5 ADD PUSH2 0x2DEA JUMP JUMPDEST PUSH1 0x40 DUP3 ADD MSTORE PUSH2 0x32C3 PUSH1 0x60 DUP5 ADD PUSH2 0x2A83 JUMP JUMPDEST PUSH1 0x60 DUP3 ADD MSTORE PUSH2 0x32D4 PUSH1 0x80 DUP5 ADD PUSH2 0x2A83 JUMP JUMPDEST PUSH1 0x80 DUP3 ADD MSTORE PUSH1 0xA0 DUP4 ADD MLOAD DUP3 DUP2 GT ISZERO PUSH2 0x32EA JUMPI DUP5 DUP6 REVERT JUMPDEST PUSH2 0x32F6 DUP8 DUP3 DUP7 ADD PUSH2 0x2AD6 JUMP JUMPDEST PUSH1 0xA0 DUP4 ADD MSTORE POP PUSH1 0xC0 DUP4 ADD MLOAD DUP3 DUP2 GT ISZERO PUSH2 0x330D JUMPI DUP5 DUP6 REVERT JUMPDEST PUSH2 0x3319 DUP8 DUP3 DUP7 ADD PUSH2 0x2AD6 JUMP JUMPDEST PUSH1 0xC0 DUP4 ADD MSTORE POP PUSH1 0xE0 DUP4 ADD MLOAD DUP3 DUP2 GT ISZERO PUSH2 0x3330 JUMPI DUP5 DUP6 REVERT JUMPDEST PUSH2 0x333C DUP8 DUP3 DUP7 ADD PUSH2 0x2CC4 JUMP JUMPDEST PUSH1 0xE0 DUP4 ADD MSTORE POP SWAP6 SWAP5 POP POP POP POP POP JUMP JUMPDEST PUSH1 0x0 PUSH1 0x20 DUP3 DUP5 SUB SLT ISZERO PUSH2 0x335C JUMPI DUP1 DUP2 REVERT JUMPDEST DUP2 CALLDATALOAD PUSH1 0x1 PUSH1 0x1 PUSH1 0x40 SHL SUB DUP1 DUP3 GT ISZERO PUSH2 0x3372 JUMPI DUP3 DUP4 REVERT JUMPDEST SWAP1 DUP4 ADD SWAP1 PUSH1 0xC0 DUP3 DUP7 SUB SLT ISZERO PUSH2 0x3385 JUMPI DUP3 DUP4 REVERT JUMPDEST PUSH2 0x338F PUSH1 0xC0 PUSH2 0x3BF7 JUMP JUMPDEST PUSH2 0x3398 DUP4 PUSH2 0x2E09 JUMP JUMPDEST DUP2 MSTORE PUSH2 0x33A6 PUSH1 0x20 DUP5 ADD PUSH2 0x2B42 JUMP JUMPDEST PUSH1 0x20 DUP3 ADD MSTORE PUSH2 0x33B7 PUSH1 0x40 DUP5 ADD PUSH2 0x2B42 JUMP JUMPDEST PUSH1 0x40 DUP3 ADD MSTORE PUSH2 0x33C8 PUSH1 0x60 DUP5 ADD PUSH2 0x2B42 JUMP JUMPDEST PUSH1 0x60 DUP3 ADD MSTORE PUSH1 0x80 DUP4 ADD CALLDATALOAD DUP3 DUP2 GT ISZERO PUSH2 0x33DE JUMPI DUP5 DUP6 REVERT JUMPDEST PUSH2 0x33EA DUP8 DUP3 DUP7 ADD PUSH2 0x2B97 JUMP JUMPDEST PUSH1 0x80 DUP4 ADD MSTORE POP PUSH1 0xA0 DUP4 ADD CALLDATALOAD DUP3 DUP2 GT ISZERO PUSH2 0x3401 JUMPI DUP5 DUP6 REVERT JUMPDEST PUSH2 0x340D DUP8 DUP3 DUP7 ADD PUSH2 0x2B97 JUMP JUMPDEST PUSH1 0xA0 DUP4 ADD MSTORE POP SWAP6 SWAP5 POP POP POP POP POP JUMP JUMPDEST PUSH1 0x0 PUSH1 0x60 DUP3 DUP5 SUB SLT ISZERO PUSH2 0x342D JUMPI DUP1 DUP2 REVERT JUMPDEST PUSH1 0x40 MLOAD PUSH1 0x60 DUP2 ADD DUP2 DUP2 LT PUSH1 0x1 PUSH1 0x1 PUSH1 0x40 SHL SUB DUP3 GT OR ISZERO PUSH2 0x3449 JUMPI INVALID JUMPDEST PUSH1 0x40 MSTORE DUP3 MLOAD PUSH2 0x3457 DUP2 PUSH2 0x3C84 JUMP JUMPDEST DUP2 MSTORE PUSH1 0x20 DUP4 ADD MLOAD PUSH2 0x3467 DUP2 PUSH2 0x3CA7 JUMP JUMPDEST PUSH1 0x20 DUP3 ADD MSTORE PUSH2 0x3478 PUSH1 0x40 DUP5 ADD PUSH2 0x2E1A JUMP JUMPDEST PUSH1 0x40 DUP3 ADD MSTORE SWAP4 SWAP3 POP POP POP JUMP JUMPDEST PUSH1 0x0 PUSH1 0x20 DUP3 DUP5 SUB SLT ISZERO PUSH2 0x3495 JUMPI DUP1 DUP2 REVERT JUMPDEST DUP2 MLOAD PUSH1 0x1 PUSH1 0x1 PUSH1 0x40 SHL SUB DUP1 DUP3 GT ISZERO PUSH2 0x34AB JUMPI DUP3 DUP4 REVERT JUMPDEST SWAP1 DUP4 ADD SWAP1 PUSH1 0x80 DUP3 DUP7 SUB SLT ISZERO PUSH2 0x34BE JUMPI DUP3 DUP4 REVERT JUMPDEST PUSH1 0x40 MLOAD PUSH1 0x80 DUP2 ADD DUP2 DUP2 LT DUP4 DUP3 GT OR ISZERO PUSH2 0x34D3 JUMPI INVALID JUMPDEST PUSH1 0x40 MSTORE PUSH2 0x34DF DUP4 PUSH2 0x2A83 JUMP JUMPDEST DUP2 MSTORE PUSH2 0x34ED PUSH1 0x20 DUP5 ADD PUSH2 0x2DEA JUMP JUMPDEST PUSH1 0x20 DUP3 ADD MSTORE PUSH1 0x40 DUP4 ADD MLOAD DUP3 DUP2 GT ISZERO PUSH2 0x3503 JUMPI DUP5 DUP6 REVERT JUMPDEST PUSH2 0x350F DUP8 DUP3 DUP7 ADD PUSH2 0x2AD6 JUMP JUMPDEST PUSH1 0x40 DUP4 ADD MSTORE POP PUSH1 0x60 DUP4 ADD MLOAD DUP3 DUP2 GT ISZERO PUSH2 0x3526 JUMPI DUP5 DUP6 REVERT JUMPDEST PUSH2 0x3532 DUP8 DUP3 DUP7 ADD PUSH2 0x2AD6 JUMP JUMPDEST PUSH1 0x60 DUP4 ADD MSTORE POP SWAP6 SWAP5 POP POP POP POP POP JUMP JUMPDEST PUSH1 0x0 DUP1 PUSH2 0x140 DUP4 DUP6 SUB SLT ISZERO PUSH2 0x3554 JUMPI DUP2 DUP3 REVERT JUMPDEST PUSH2 0x355E DUP5 DUP5 PUSH2 0x2C3D JUMP JUMPDEST SWAP2 POP PUSH2 0x356D DUP5 PUSH1 0xA0 DUP6 ADD PUSH2 0x2C3D JUMP JUMPDEST SWAP1 POP SWAP3 POP SWAP3 SWAP1 POP JUMP JUMPDEST PUSH1 0x0 PUSH1 0x20 DUP3 DUP5 SUB SLT ISZERO PUSH2 0x3587 JUMPI DUP1 DUP2 REVERT JUMPDEST DUP2 MLOAD PUSH1 0x1 PUSH1 0x1 PUSH1 0x40 SHL SUB DUP2 GT ISZERO PUSH2 0x359C JUMPI DUP2 DUP3 REVERT JUMPDEST PUSH2 0x2C26 DUP5 DUP3 DUP6 ADD PUSH2 0x2CC4 JUMP JUMPDEST PUSH1 0x0 PUSH1 0x20 DUP3 DUP5 SUB SLT ISZERO PUSH2 0x35B9 JUMPI DUP1 DUP2 REVERT JUMPDEST DUP2 CALLDATALOAD PUSH2 0x1BAD DUP2 PUSH2 0x3CA7 JUMP JUMPDEST PUSH1 0x0 PUSH1 0x20 DUP3 DUP5 SUB SLT ISZERO PUSH2 0x35D5 JUMPI DUP1 DUP2 REVERT JUMPDEST POP MLOAD SWAP2 SWAP1 POP JUMP JUMPDEST PUSH1 0x1 PUSH1 0x1 PUSH1 0xA0 SHL SUB AND SWAP1 MSTORE JUMP JUMPDEST PUSH1 0x0 DUP2 MLOAD DUP1 DUP5 MSTORE PUSH1 0x20 DUP1 DUP6 ADD SWAP5 POP DUP1 DUP5 ADD DUP4 JUMPDEST DUP4 DUP2 LT ISZERO PUSH2 0x3618 JUMPI DUP2 MLOAD DUP8 MSTORE SWAP6 DUP3 ADD SWAP6 SWAP1 DUP3 ADD SWAP1 PUSH1 0x1 ADD PUSH2 0x35FC JUMP JUMPDEST POP SWAP5 SWAP6 SWAP5 POP POP POP POP POP JUMP JUMPDEST PUSH1 0x0 DUP3 DUP5 MSTORE DUP3 DUP3 PUSH1 0x20 DUP7 ADD CALLDATACOPY DUP1 PUSH1 0x20 DUP5 DUP7 ADD ADD MSTORE PUSH1 0x20 PUSH1 0x1F NOT PUSH1 0x1F DUP6 ADD AND DUP6 ADD ADD SWAP1 POP SWAP4 SWAP3 POP POP POP JUMP JUMPDEST PUSH1 0x7 DUP2 LT PUSH2 0x3657 JUMPI INVALID JUMPDEST SWAP1 MSTORE JUMP JUMPDEST PUSH2 0xFFFF AND SWAP1 MSTORE JUMP JUMPDEST PUSH1 0x0 DUP2 MLOAD PUSH1 0x4 DUP2 LT PUSH2 0x3671 JUMPI INVALID JUMPDEST DUP1 DUP5 MSTORE POP PUSH1 0x20 DUP3 ADD MLOAD PUSH1 0x1 DUP1 PUSH1 0xA0 SHL SUB DUP1 DUP3 AND PUSH1 0x20 DUP7 ADD MSTORE DUP1 PUSH1 0x40 DUP6 ADD MLOAD AND PUSH1 0x40 DUP7 ADD MSTORE POP POP PUSH1 0x60 DUP3 ADD MLOAD PUSH1 0x60 DUP5 ADD MSTORE PUSH1 0x80 DUP3 ADD MLOAD PUSH1 0x80 DUP5 ADD MSTORE PUSH1 0xA0 DUP3 ADD MLOAD PUSH1 0xA0 DUP5 ADD MSTORE PUSH1 0xC0 DUP3 ADD MLOAD PUSH1 0xE0 PUSH1 0xC0 DUP6 ADD MSTORE DUP1 MLOAD DUP1 PUSH1 0xE0 DUP7 ADD MSTORE PUSH2 0x100 PUSH2 0x36DC DUP3 DUP3 DUP9 ADD PUSH1 0x20 DUP7 ADD PUSH2 0x3C58 JUMP JUMPDEST DUP1 PUSH1 0x1F NOT PUSH1 0x1F DUP5 ADD AND DUP8 ADD ADD SWAP4 POP POP POP POP SWAP3 SWAP2 POP POP JUMP JUMPDEST PUSH1 0x0 DUP3 MLOAD PUSH2 0x3705 DUP2 DUP5 PUSH1 0x20 DUP8 ADD PUSH2 0x3C58 JUMP JUMPDEST SWAP2 SWAP1 SWAP2 ADD SWAP3 SWAP2 POP POP JUMP JUMPDEST PUSH1 0x1 PUSH1 0x1 PUSH1 0xA0 SHL SUB SWAP2 SWAP1 SWAP2 AND DUP2 MSTORE PUSH1 0x20 ADD SWAP1 JUMP JUMPDEST PUSH1 0x1 PUSH1 0x1 PUSH1 0xA0 SHL SUB DUP4 AND DUP2 MSTORE PUSH1 0x40 PUSH1 0x20 DUP1 DUP4 ADD DUP3 SWAP1 MSTORE DUP4 MLOAD DUP4 DUP4 ADD DUP2 SWAP1 MSTORE PUSH1 0x0 SWAP3 SWAP2 PUSH1 0x60 SWAP2 DUP3 DUP7 ADD SWAP1 DUP1 DUP4 MUL DUP8 ADD DUP5 ADD DUP9 DUP5 ADD DUP8 JUMPDEST DUP4 DUP2 LT ISZERO PUSH2 0x37D8 JUMPI PUSH1 0x5F NOT DUP11 DUP5 SUB ADD DUP6 MSTORE DUP2 MLOAD PUSH1 0xE0 PUSH2 0x3778 DUP6 DUP4 MLOAD PUSH2 0x364D JUMP JUMPDEST DUP2 DUP9 ADD MLOAD PUSH2 0xFFFF AND DUP6 DUP10 ADD MSTORE DUP10 DUP3 ADD MLOAD DUP11 DUP7 ADD MSTORE DUP9 DUP3 ADD MLOAD DUP10 DUP7 ADD MSTORE PUSH1 0x80 DUP1 DUP4 ADD MLOAD ISZERO ISZERO SWAP1 DUP7 ADD MSTORE PUSH1 0xA0 DUP1 DUP4 ADD MLOAD ISZERO ISZERO SWAP1 DUP7 ADD MSTORE PUSH1 0xC0 SWAP2 DUP3 ADD MLOAD SWAP2 DUP6 ADD DUP2 SWAP1 MSTORE PUSH2 0x37C4 DUP2 DUP7 ADD DUP4 PUSH2 0x35E9 JUMP JUMPDEST SWAP7 DUP9 ADD SWAP7 SWAP5 POP POP POP SWAP1 DUP6 ADD SWAP1 PUSH1 0x1 ADD PUSH2 0x3758 JUMP JUMPDEST POP SWAP1 SWAP11 SWAP10 POP POP POP POP POP POP POP POP POP POP JUMP JUMPDEST PUSH1 0x1 PUSH1 0x1 PUSH1 0xA0 SHL SUB DUP4 AND DUP2 MSTORE PUSH1 0x40 PUSH1 0x20 DUP1 DUP4 ADD DUP3 SWAP1 MSTORE DUP4 MLOAD DUP4 DUP4 ADD DUP2 SWAP1 MSTORE PUSH1 0x0 SWAP3 SWAP2 PUSH1 0x60 SWAP2 DUP3 DUP7 ADD SWAP1 DUP8 DUP4 ADD DUP7 JUMPDEST DUP3 DUP2 LT ISZERO PUSH2 0x3871 JUMPI DUP2 MLOAD PUSH2 0x382B DUP6 DUP3 MLOAD PUSH2 0x364D JUMP JUMPDEST DUP1 DUP7 ADD MLOAD PUSH2 0xFFFF AND DUP6 DUP8 ADD MSTORE DUP8 DUP2 ADD MLOAD DUP9 DUP7 ADD MSTORE DUP7 DUP2 ADD MLOAD DUP8 DUP7 ADD MSTORE PUSH1 0x80 DUP1 DUP3 ADD MLOAD ISZERO ISZERO SWAP1 DUP7 ADD MSTORE PUSH1 0xA0 SWAP1 DUP2 ADD MLOAD ISZERO ISZERO SWAP1 DUP6 ADD MSTORE PUSH1 0xC0 SWAP1 SWAP4 ADD SWAP3 SWAP1 DUP5 ADD SWAP1 PUSH1 0x1 ADD PUSH2 0x3816 JUMP JUMPDEST POP SWAP2 SWAP10 SWAP9 POP POP POP POP POP POP POP POP POP JUMP JUMPDEST PUSH1 0x1 PUSH1 0x1 PUSH1 0xA0 SHL SUB SWAP3 DUP4 AND DUP2 MSTORE SWAP2 AND PUSH1 0x20 DUP3 ADD MSTORE PUSH1 0x40 ADD SWAP1 JUMP JUMPDEST PUSH1 0x1 PUSH1 0x1 PUSH1 0xA0 SHL SUB DUP10 DUP2 AND DUP3 MSTORE PUSH1 0xE0 PUSH1 0x20 DUP1 DUP5 ADD DUP3 SWAP1 MSTORE DUP11 MLOAD SWAP2 DUP5 ADD DUP3 SWAP1 MSTORE PUSH1 0x0 SWAP3 DUP12 DUP3 ADD SWAP3 SWAP1 SWAP2 SWAP1 PUSH2 0x100 DUP7 ADD SWAP1 DUP6 JUMPDEST DUP2 DUP2 LT ISZERO PUSH2 0x38E9 JUMPI DUP6 MLOAD DUP6 AND DUP4 MSTORE SWAP5 DUP4 ADD SWAP5 SWAP2 DUP4 ADD SWAP2 PUSH1 0x1 ADD PUSH2 0x38CB JUMP JUMPDEST POP POP DUP6 DUP2 SUB PUSH1 0x40 DUP8 ADD MSTORE PUSH2 0x38FD DUP2 DUP14 PUSH2 0x35E9 JUMP JUMPDEST SWAP4 POP POP POP POP DUP3 DUP2 SUB PUSH1 0x60 DUP5 ADD MSTORE PUSH2 0x3914 DUP2 DUP10 PUSH2 0x35E9 JUMP JUMPDEST SWAP1 POP PUSH2 0x3923 PUSH1 0x80 DUP5 ADD DUP9 PUSH2 0x35DC JUMP JUMPDEST DUP3 DUP2 SUB PUSH1 0xA0 DUP5 ADD MSTORE PUSH2 0x3936 DUP2 DUP7 DUP9 PUSH2 0x3623 JUMP JUMPDEST SWAP2 POP POP PUSH2 0x84D PUSH1 0xC0 DUP4 ADD DUP5 PUSH2 0x365B JUMP JUMPDEST PUSH1 0x1 PUSH1 0x1 PUSH1 0xA0 SHL SUB SWAP3 SWAP1 SWAP3 AND DUP3 MSTORE PUSH1 0x20 DUP3 ADD MSTORE PUSH1 0x40 ADD SWAP1 JUMP JUMPDEST PUSH1 0x1 PUSH1 0x1 PUSH1 0xA0 SHL SUB DUP6 AND DUP2 MSTORE PUSH2 0xFFFF DUP5 AND PUSH1 0x20 DUP3 ADD MSTORE PUSH1 0x80 PUSH1 0x40 DUP3 ADD DUP2 SWAP1 MSTORE PUSH1 0x0 SWAP1 PUSH2 0x398D SWAP1 DUP4 ADD DUP6 PUSH2 0x35E9 JUMP JUMPDEST DUP3 DUP2 SUB PUSH1 0x60 DUP5 ADD MSTORE PUSH2 0x399F DUP2 DUP6 PUSH2 0x35E9 JUMP JUMPDEST SWAP8 SWAP7 POP POP POP POP POP POP POP JUMP JUMPDEST PUSH1 0x1 PUSH1 0x1 PUSH1 0xA0 SHL SUB DUP7 AND DUP2 MSTORE PUSH2 0xFFFF DUP6 DUP2 AND PUSH1 0x20 DUP4 ADD MSTORE DUP5 AND PUSH1 0x40 DUP3 ADD MSTORE PUSH1 0xA0 PUSH1 0x60 DUP3 ADD DUP2 SWAP1 MSTORE PUSH1 0x0 SWAP1 PUSH2 0x39E0 SWAP1 DUP4 ADD DUP6 PUSH2 0x35E9 JUMP JUMPDEST DUP3 DUP2 SUB PUSH1 0x80 DUP5 ADD MSTORE PUSH2 0x39F2 DUP2 DUP6 PUSH2 0x35E9 JUMP JUMPDEST SWAP9 SWAP8 POP POP POP POP POP POP POP POP JUMP JUMPDEST PUSH1 0x1 PUSH1 0x1 PUSH1 0xA0 SHL SUB SWAP8 SWAP1 SWAP8 AND DUP8 MSTORE PUSH2 0xFFFF SWAP6 DUP7 AND PUSH1 0x20 DUP9 ADD MSTORE SWAP4 SWAP1 SWAP5 AND PUSH1 0x40 DUP7 ADD MSTORE PUSH1 0x1 PUSH1 0x1 PUSH1 0x80 SHL SUB SWAP2 SWAP1 SWAP2 AND PUSH1 0x60 DUP6 ADD MSTORE PUSH1 0x1 PUSH1 0x1 PUSH1 0x60 SHL SUB AND PUSH1 0x80 DUP5 ADD MSTORE SWAP1 ISZERO ISZERO PUSH1 0xA0 DUP4 ADD MSTORE ISZERO ISZERO PUSH1 0xC0 DUP3 ADD MSTORE PUSH1 0xE0 ADD SWAP1 JUMP JUMPDEST PUSH1 0x1 PUSH1 0x1 PUSH1 0xA0 SHL SUB SWAP4 SWAP1 SWAP4 AND DUP4 MSTORE PUSH2 0xFFFF SWAP2 SWAP1 SWAP2 AND PUSH1 0x20 DUP4 ADD MSTORE PUSH1 0x40 DUP3 ADD MSTORE PUSH1 0x60 ADD SWAP1 JUMP JUMPDEST PUSH1 0x1 PUSH1 0x1 PUSH1 0xA0 SHL SUB SWAP4 SWAP1 SWAP4 AND DUP4 MSTORE PUSH2 0xFFFF SWAP2 SWAP1 SWAP2 AND PUSH1 0x20 DUP4 ADD MSTORE PUSH1 0x1 PUSH1 0x1 PUSH1 0x60 SHL SUB AND PUSH1 0x40 DUP3 ADD MSTORE PUSH1 0x60 ADD SWAP1 JUMP JUMPDEST SWAP1 ISZERO ISZERO DUP2 MSTORE PUSH1 0x20 ADD SWAP1 JUMP JUMPDEST PUSH1 0x0 PUSH1 0x40 DUP3 ADD DUP5 DUP4 MSTORE PUSH1 0x20 PUSH1 0x40 DUP2 DUP6 ADD MSTORE DUP2 DUP6 MLOAD DUP1 DUP5 MSTORE PUSH1 0x60 DUP7 ADD SWAP2 POP DUP3 DUP8 ADD SWAP4 POP DUP5 JUMPDEST DUP2 DUP2 LT ISZERO PUSH2 0x2B35 JUMPI DUP5 MLOAD DUP4 MSTORE SWAP4 DUP4 ADD SWAP4 SWAP2 DUP4 ADD SWAP2 PUSH1 0x1 ADD PUSH2 0x3AD6 JUMP JUMPDEST PUSH1 0x20 DUP1 DUP3 MSTORE PUSH1 0x11 SWAP1 DUP3 ADD MSTORE PUSH17 0x34B73B30B634B2103732BB9037BBB732B9 PUSH1 0x79 SHL PUSH1 0x40 DUP3 ADD MSTORE PUSH1 0x60 ADD SWAP1 JUMP JUMPDEST PUSH1 0x20 DUP1 DUP3 MSTORE PUSH1 0xD SWAP1 DUP3 ADD MSTORE PUSH13 0x92DCECC2D8D2C840D2DCC8CAF PUSH1 0x9B SHL PUSH1 0x40 DUP3 ADD MSTORE PUSH1 0x60 ADD SWAP1 JUMP JUMPDEST PUSH1 0x20 DUP1 DUP3 MSTORE DUP2 DUP2 ADD MSTORE PUSH32 0x4F776E61626C653A2063616C6C6572206973206E6F7420746865206F776E6572 PUSH1 0x40 DUP3 ADD MSTORE PUSH1 0x60 ADD SWAP1 JUMP JUMPDEST PUSH2 0xFFFF SWAP2 SWAP1 SWAP2 AND DUP2 MSTORE PUSH1 0x20 ADD SWAP1 JUMP JUMPDEST PUSH1 0x0 PUSH2 0xFFFF DUP5 AND DUP3 MSTORE PUSH1 0x40 PUSH1 0x20 DUP4 ADD MSTORE PUSH2 0x2C26 PUSH1 0x40 DUP4 ADD DUP5 PUSH2 0x3663 JUMP JUMPDEST PUSH1 0x0 PUSH2 0xFFFF DUP6 AND DUP3 MSTORE PUSH1 0x60 PUSH1 0x20 DUP4 ADD MSTORE PUSH2 0x3BC2 PUSH1 0x60 DUP4 ADD DUP6 PUSH2 0x3663 JUMP JUMPDEST SWAP1 POP PUSH4 0xFFFFFFFF DUP4 AND PUSH1 0x40 DUP4 ADD MSTORE SWAP5 SWAP4 POP POP POP POP JUMP JUMPDEST SWAP1 DUP2 MSTORE PUSH1 0x20 ADD SWAP1 JUMP JUMPDEST SWAP3 DUP4 MSTORE PUSH1 0x20 DUP4 ADD SWAP2 SWAP1 SWAP2 MSTORE PUSH1 0x40 DUP3 ADD MSTORE PUSH1 0x60 ADD SWAP1 JUMP JUMPDEST PUSH1 0x40 MLOAD DUP2 DUP2 ADD PUSH1 0x1 PUSH1 0x1 PUSH1 0x40 SHL SUB DUP2 GT DUP3 DUP3 LT OR ISZERO PUSH2 0x3C12 JUMPI INVALID JUMPDEST PUSH1 0x40 MSTORE SWAP2 SWAP1 POP JUMP JUMPDEST PUSH1 0x0 PUSH1 0x1 PUSH1 0x1 PUSH1 0x40 SHL SUB DUP3 GT ISZERO PUSH2 0x3C2D JUMPI INVALID JUMPDEST POP PUSH1 0x20 SWAP1 DUP2 MUL ADD SWAP1 JUMP JUMPDEST PUSH1 0x0 PUSH1 0x1 PUSH1 0x1 PUSH1 0x40 SHL SUB DUP3 GT ISZERO PUSH2 0x3C4A JUMPI INVALID JUMPDEST POP PUSH1 0x1F ADD PUSH1 0x1F NOT AND PUSH1 0x20 ADD SWAP1 JUMP JUMPDEST PUSH1 0x0 JUMPDEST DUP4 DUP2 LT ISZERO PUSH2 0x3C73 JUMPI DUP2 DUP2 ADD MLOAD DUP4 DUP3 ADD MSTORE PUSH1 0x20 ADD PUSH2 0x3C5B JUMP JUMPDEST DUP4 DUP2 GT ISZERO PUSH2 0xA99 JUMPI POP POP PUSH1 0x0 SWAP2 ADD MSTORE JUMP JUMPDEST PUSH1 0x1 PUSH1 0x1 PUSH1 0xA0 SHL SUB DUP2 AND DUP2 EQ PUSH2 0x10F8 JUMPI PUSH1 0x0 DUP1 REVERT JUMPDEST DUP1 ISZERO ISZERO DUP2 EQ PUSH2 0x10F8 JUMPI PUSH1 0x0 DUP1 REVERT JUMPDEST PUSH2 0xFFFF DUP2 AND DUP2 EQ PUSH2 0x10F8 JUMPI PUSH1 0x0 DUP1 REVERT INVALID LOG2 PUSH5 0x6970667358 0x22 SLT KECCAK256 0x5E 0x5C 0xD9 CALLCODE MOD SAR SHR 0x5C CREATE2 0xB5 PUSH11 0x791E02D397546CDD058E55 CALLVALUE 0xCC PUSH27 0x14D28F666EBE64736F6C63430007060033000000000000000000 ","sha1":"10d0f4502aa81f55d9db3bf783e72e4496c1071e","source":"// SPDX-License-Identifier: BSUL-1.1\npragma solidity =0.7.6;\npragma abicoder v2;\n\nimport {IERC20} from \"@openzeppelin/contracts/token/ERC20/IERC20.sol\";\nimport {SafeMath} from \"@openzeppelin/contracts/math/SafeMath.sol\";\nimport {FlashLiquidatorBase} from \"./FlashLiquidatorBase.sol\";\nimport {\n    TradeActionType,\n    DepositActionType, \n    BalanceAction, \n    BalanceActionWithTrades\n} from \"../../global/Types.sol\";\nimport {SafeInt256} from \"../../math/SafeInt256.sol\";\nimport {DateTime} from \"../../internal/markets/DateTime.sol\";\nimport {NotionalProxy} from \"../../../interfaces/notional/NotionalProxy.sol\";\nimport {IWstETH} from \"../../../interfaces/IWstETH.sol\";\n\ncontract FlashLiquidator is FlashLiquidatorBase {\n    using SafeInt256 for int256;\n    using SafeMath for uint256;\n\n    constructor(\n        NotionalProxy notional_,\n        address lendingPool_,\n        address weth_,\n        IWstETH wstETH_,\n        address owner_,\n        address tradingModule_,\n        bool unwrapStETH_\n    )\n        FlashLiquidatorBase(\n            notional_,\n            lendingPool_,\n            weth_,\n            wstETH_,\n            owner_,\n            tradingModule_,\n            unwrapStETH_\n        )\n    {}\n\n    function _redeemAndWithdraw(\n        uint16 nTokenCurrencyId,\n        uint96 nTokenBalance,\n        bool redeemToUnderlying\n    ) internal override {\n        BalanceAction[] memory action = new BalanceAction[](1);\n        // If nTokenBalance is zero still try to withdraw entire cash balance\n        action[0].actionType = nTokenBalance == 0\n            ? DepositActionType.None\n            : DepositActionType.RedeemNToken;\n        action[0].currencyId = nTokenCurrencyId;\n        action[0].depositActionAmount = nTokenBalance;\n        action[0].withdrawEntireCashBalance = true;\n        action[0].redeemToUnderlying = redeemToUnderlying;\n        NOTIONAL.batchBalanceAction(address(this), action);\n    }\n\n    function _sellfCashAssets(\n        uint16 fCashCurrency,\n        uint256[] memory fCashMaturities,\n        int256[] memory fCashNotional,\n        uint256 depositActionAmount,\n        bool redeemToUnderlying\n    ) internal override {\n        uint256 blockTime = block.timestamp;\n        BalanceActionWithTrades[] memory action = new BalanceActionWithTrades[](1);\n        action[0].actionType = depositActionAmount > 0\n            ? DepositActionType.DepositAsset\n            : DepositActionType.None;\n        action[0].depositActionAmount = depositActionAmount;\n        action[0].currencyId = fCashCurrency;\n        action[0].withdrawEntireCashBalance = true;\n        action[0].redeemToUnderlying = redeemToUnderlying;\n\n        uint256 numTrades;\n        bytes32[] memory trades = new bytes32[](fCashMaturities.length);\n        for (uint256 i; i < fCashNotional.length; i++) {\n            if (fCashNotional[i] == 0) continue;\n            (uint256 marketIndex, bool isIdiosyncratic) = DateTime.getMarketIndex(\n                7,\n                fCashMaturities[i],\n                blockTime\n            );\n            // We don't trade it out here but if the contract does take on idiosyncratic cash we need to be careful\n            if (isIdiosyncratic) continue;\n\n            trades[numTrades] = bytes32(\n                (uint256(fCashNotional[i] > 0 ? TradeActionType.Borrow : TradeActionType.Lend) <<\n                    248) |\n                    (marketIndex << 240) |\n                    (uint256(uint88(fCashNotional[i].abs())) << 152)\n            );\n            numTrades++;\n        }\n\n        if (numTrades < trades.length) {\n            // Shrink the trades array to length if it is not full\n            bytes32[] memory newTrades = new bytes32[](numTrades);\n            for (uint256 i; i < numTrades; i++) {\n                newTrades[i] = trades[i];\n            }\n            action[0].trades = newTrades;\n        } else {\n            action[0].trades = trades;\n        }\n\n        NOTIONAL.batchBalanceAndTradeAction(address(this), action);\n    }\n\n    function transferOwnership(address newOwner) external onlyOwner {\n        require(newOwner != address(0), \"invalid new owner\");\n        owner = newOwner;\n    }\n\n    function wrapToWETH() external {\n        _wrapToWETH();\n    }\n\n    function withdraw(address token, uint256 amount) external {\n        IERC20(token).transfer(owner, amount);\n    }\n\n    receive() external payable {}\n}\n","sourcePath":"contracts/external/liquidators/FlashLiquidator.sol","deployment":{"address":"0xaCe757160cedD8b735f3dc19870A52F611F04a2e","chainid":"42161","blockHeight":168771058}}