{"abi":[{"inputs":[],"stateMutability":"nonpayable","type":"constructor","name":"constructor"},{"anonymous":false,"inputs":[{"indexed":false,"internalType":"address","name":"previousAdmin","type":"address"},{"indexed":false,"internalType":"address","name":"newAdmin","type":"address"}],"name":"AdminChanged","type":"event"},{"anonymous":false,"inputs":[{"indexed":true,"internalType":"address","name":"beacon","type":"address"}],"name":"BeaconUpgraded","type":"event"},{"anonymous":false,"inputs":[{"indexed":true,"internalType":"address","name":"implementation","type":"address"}],"name":"Upgraded","type":"event"},{"inputs":[],"name":"CURRENT_ROUTER","outputs":[{"internalType":"address","name":"","type":"address"}],"stateMutability":"view","type":"function"},{"inputs":[],"name":"FINAL_ROUTER","outputs":[{"internalType":"address","name":"","type":"address"}],"stateMutability":"view","type":"function"},{"inputs":[],"name":"NOTIONAL","outputs":[{"internalType":"contract NotionalProxy","name":"","type":"address"}],"stateMutability":"view","type":"function"},{"inputs":[],"name":"OWNER","outputs":[{"internalType":"address","name":"","type":"address"}],"stateMutability":"view","type":"function"},{"inputs":[],"name":"SELF","outputs":[{"internalType":"address","name":"","type":"address"}],"stateMutability":"view","type":"function"},{"inputs":[],"name":"USDC","outputs":[{"internalType":"address","name":"","type":"address"}],"stateMutability":"view","type":"function"},{"inputs":[],"name":"USDC_E","outputs":[{"internalType":"address","name":"","type":"address"}],"stateMutability":"view","type":"function"},{"inputs":[],"name":"atomicPatchAndUpgrade","outputs":[],"stateMutability":"nonpayable","type":"function"},{"inputs":[],"name":"owner","outputs":[{"internalType":"address","name":"","type":"address"}],"stateMutability":"view","type":"function"},{"inputs":[],"name":"patchFix","outputs":[],"stateMutability":"nonpayable","type":"function"},{"inputs":[],"name":"pauseGuardian","outputs":[{"internalType":"address","name":"","type":"address"}],"stateMutability":"view","type":"function"},{"inputs":[],"name":"pauseRouter","outputs":[{"internalType":"address","name":"","type":"address"}],"stateMutability":"view","type":"function"},{"inputs":[],"name":"returnOwnership","outputs":[],"stateMutability":"nonpayable","type":"function"},{"inputs":[{"internalType":"address","name":"newImplementation","type":"address"}],"name":"upgradeTo","outputs":[],"stateMutability":"nonpayable","type":"function"},{"inputs":[{"internalType":"address","name":"newImplementation","type":"address"},{"internalType":"bytes","name":"data","type":"bytes"}],"name":"upgradeToAndCall","outputs":[],"stateMutability":"payable","type":"function"}],"bytecode":"6101206040523060601b610100523480156200001a57600080fd5b50731344a36a1b56144c3bc62e7757377d288fde03696001600160a01b031663aaf10f426040518163ffffffff1660e01b815260040160206040518083038186803b1580156200006957600080fd5b505afa1580156200007e573d6000803e3d6000fd5b505050506040513d601f19601f82011682018060405250810190620000a491906200020f565b731344a36a1b56144c3bc62e7757377d288fde03696001600160a01b031663aaf10f426040518163ffffffff1660e01b815260040160206040518083038186803b158015620000f257600080fd5b505afa15801562000107573d6000803e3d6000fd5b505050506040513d601f19601f820116820180604052508101906200012d91906200020f565b6001600160601b0319606082811b821660a0527f1344a36a1b56144c3bc62e7757377d288fde036900000000000000000000000060e05283901b1660c05260408051638da5cb5b60e01b81529051731344a36a1b56144c3bc62e7757377d288fde0369918291638da5cb5b91600480820192602092909190829003018186803b158015620001ba57600080fd5b505afa158015620001cf573d6000803e3d6000fd5b505050506040513d601f19601f82011682018060405250810190620001f591906200020f565b60601b6001600160601b031916608052506200023f915050565b60006020828403121562000221578081fd5b81516001600160a01b038116811462000238578182fd5b9392505050565b60805160601c60a05160601c60c05160601c60e05160601c6101005160601c611002620002e860003980610296528061058e528061082b528061086a525080610304528061040552806104b1528061055f52806105fc528061069a528061075252508061044152806108cf5250806103b9528061062b528061089452508061026352806102c35280610331528061048552806106c9528061072852806107f652506110026000f3fe6080604052600436106100e85760003560e01c80634f1ef2861161008a5780638d6ac768116100595780638d6ac768146101f55780638da5cb5b1461020a578063e2960e661461021f578063f028e6fb14610234576100e8565b80634f1ef286146101a357806382463367146101b6578063858dccb3146101cb57806389a30271146101e0576100e8565b806326bd0c4e116100c657806326bd0c4e14610142578063297d1a34146101575780633659cfe61461016e57806343dc9bb21461018e576100e8565b80630d2c5441146100ed578063117803e31461011857806324a3d6221461012d575b600080fd5b3480156100f957600080fd5b50610102610249565b60405161010f9190610e7c565b60405180910390f35b34801561012457600080fd5b50610102610261565b34801561013957600080fd5b50610102610285565b34801561014e57600080fd5b50610102610294565b34801561016357600080fd5b5061016c6102b8565b005b34801561017a57600080fd5b5061016c610189366004610d9a565b610390565b34801561019a57600080fd5b506101026103b7565b61016c6101b1366004610dd2565b6103db565b3480156101c257600080fd5b506101026103f4565b3480156101d757600080fd5b50610102610403565b3480156101ec57600080fd5b50610102610427565b34801561020157600080fd5b5061010261043f565b34801561021657600080fd5b50610102610463565b34801561022b57600080fd5b5061016c61047a565b34801561024057600080fd5b5061016c610820565b73ff970a61a04b1ca14834a43f5de4533ebddb5cc881565b7f000000000000000000000000000000000000000000000000000000000000000081565b6002546001600160a01b031681565b7f000000000000000000000000000000000000000000000000000000000000000081565b336001600160a01b037f000000000000000000000000000000000000000000000000000000000000000016146102ed57600080fd5b604051632c90b94d60e21b81526001600160a01b037f0000000000000000000000000000000000000000000000000000000000000000169063b242e5349061035c907f000000000000000000000000000000000000000000000000000000000000000090600190600401610e90565b600060405180830381600087803b15801561037657600080fd5b505af115801561038a573d6000803e3d6000fd5b50505050565b6103998161085f565b6103b48160405180602001604052806000815250600061090c565b50565b7f000000000000000000000000000000000000000000000000000000000000000081565b6103e48261085f565b6103f08282600161090c565b5050565b6001546001600160a01b031681565b7f000000000000000000000000000000000000000000000000000000000000000081565b73af88d065e77c8cc2239327c5edb3a432268e583181565b7f000000000000000000000000000000000000000000000000000000000000000081565b60005464010000000090046001600160a01b031681565b336001600160a01b037f000000000000000000000000000000000000000000000000000000000000000016146104af57600080fd5b7f00000000000000000000000000000000000000000000000000000000000000006001600160a01b0316634e71e0c86040518163ffffffff1660e01b8152600401600060405180830381600087803b15801561050a57600080fd5b505af115801561051e573d6000803e3d6000fd5b50506040805160048082526024820183526020820180516001600160e01b031663f028e6fb60e01b179052915163278f794360e11b81526001600160a01b037f0000000000000000000000000000000000000000000000000000000000000000169450634f1ef28693506105b5927f0000000000000000000000000000000000000000000000000000000000000000929101610eab565b600060405180830381600087803b1580156105cf57600080fd5b505af11580156105e3573d6000803e3d6000fd5b5050604051631b2ce7f360e11b81526001600160a01b037f0000000000000000000000000000000000000000000000000000000000000000169250633659cfe69150610653907f000000000000000000000000000000000000000000000000000000000000000090600401610e7c565b600060405180830381600087803b15801561066d57600080fd5b505af1158015610681573d6000803e3d6000fd5b5050604051632c90b94d60e21b81526001600160a01b037f000000000000000000000000000000000000000000000000000000000000000016925063b242e53491506106f4907f000000000000000000000000000000000000000000000000000000000000000090600190600401610e90565b600060405180830381600087803b15801561070e57600080fd5b505af1158015610722573d6000803e3d6000fd5b505050507f00000000000000000000000000000000000000000000000000000000000000006001600160a01b03167f00000000000000000000000000000000000000000000000000000000000000006001600160a01b0316638da5cb5b6040518163ffffffff1660e01b815260040160206040518083038186803b1580156107a957600080fd5b505afa1580156107bd573d6000803e3d6000fd5b505050506040513d601f19601f820116820180604052508101906107e19190610db6565b6001600160a01b0316146107f457600080fd5b7f00000000000000000000000000000000000000000000000000000000000000006001600160a01b0316ff5b336001600160a01b037f0000000000000000000000000000000000000000000000000000000000000000161461085557600080fd5b61085d610a3f565b565b336001600160a01b037f00000000000000000000000000000000000000000000000000000000000000001614801561090357507f00000000000000000000000000000000000000000000000000000000000000006001600160a01b0316816001600160a01b0316148061090357507f00000000000000000000000000000000000000000000000000000000000000006001600160a01b0316816001600160a01b0316145b6103b457600080fd5b6000610916610ab6565b905061092184610af0565b60008351118061092e5750815b1561093f5761093d8484610b7f565b505b600061096a7f4910fdfa16fed3260ed0e7147f7cc6da11a60208b5b9406d12a635614ffd9143610bab565b805490915060ff16610a3857805460ff19166001178155604080516001600160a01b0384166024808301919091528251808303909101815260449091019091526020810180516001600160e01b0316631b2ce7f360e11b1790526109cf908690610b7f565b50805460ff191681556109e0610ab6565b6001600160a01b0316826001600160a01b031614610a2f5760405162461bcd60e51b815260040180806020018281038252602f815260200180610f24602f913960400191505060405180910390fd5b610a3885610bae565b5050505050565b60096020527fdc1303420e1de1bf5070c31381331b9d5f0aaee32452b85779235a5688bdc151805461ffff1990811690915573af88d065e77c8cc2239327c5edb3a432268e58316000527fd1c7a8d80cb51b6f04cd3c82c5d50c654f9bd031bdda2ed4c281b9804e9aacf380549091166003179055565b6000610ae17f360894a13ba1a3210667c828492db98dca3e2076cc3735a920a3ca505d382bbc610bab565b546001600160a01b0316905090565b610af981610bee565b610b345760405162461bcd60e51b815260040180806020018281038252602d815260200180610f53602d913960400191505060405180910390fd5b80610b5e7f360894a13ba1a3210667c828492db98dca3e2076cc3735a920a3ca505d382bbc610bab565b80546001600160a01b0319166001600160a01b039290921691909117905550565b6060610ba48383604051806060016040528060278152602001610f8060279139610bf4565b9392505050565b90565b610bb781610af0565b6040516001600160a01b038216907fbc7cd75a20ee27fd9adebab32041f755214dbc6bffa90cc0225b39da2e5c2d3b90600090a250565b3b151590565b6060610bff84610bee565b610c3a5760405162461bcd60e51b8152600401808060200182810382526026815260200180610fa76026913960400191505060405180910390fd5b600080856001600160a01b0316856040518082805190602001908083835b60208310610c775780518252601f199092019160209182019101610c58565b6001836020036101000a038019825116818451168082178552505050505050905001915050600060405180830381855af49150503d8060008114610cd7576040519150601f19603f3d011682016040523d82523d6000602084013e610cdc565b606091505b5091509150610cec828286610cf6565b9695505050505050565b60608315610d05575081610ba4565b825115610d155782518084602001fd5b8160405162461bcd60e51b81526004018080602001828103825283818151815260200191508051906020019080838360005b83811015610d5f578181015183820152602001610d47565b50505050905090810190601f168015610d8c5780820380516001836020036101000a031916815260200191505b509250505060405180910390fd5b600060208284031215610dab578081fd5b8135610ba481610f0e565b600060208284031215610dc7578081fd5b8151610ba481610f0e565b60008060408385031215610de4578081fd5b8235610def81610f0e565b915060208381013567ffffffffffffffff80821115610e0c578384fd5b818601915086601f830112610e1f578384fd5b813581811115610e2b57fe5b604051601f8201601f1916810185018381118282101715610e4857fe5b6040528181528382018501891015610e5e578586fd5b81858501868301378585838301015280955050505050509250929050565b6001600160a01b0391909116815260200190565b6001600160a01b039290921682521515602082015260400190565b600060018060a01b038416825260206040818401528351806040850152825b81811015610ee657858101830151858201606001528201610eca565b81811115610ef75783606083870101525b50601f01601f191692909201606001949350505050565b6001600160a01b03811681146103b457600080fdfe45524331393637557067726164653a207570677261646520627265616b732066757274686572207570677261646573455243313936373a206e657720696d706c656d656e746174696f6e206973206e6f74206120636f6e7472616374416464726573733a206c6f772d6c6576656c2064656c65676174652063616c6c206661696c6564416464726573733a2064656c65676174652063616c6c20746f206e6f6e2d636f6e7472616374a2646970667358221220328462093ee2c445ced9f071d42e7eb9b687cea85726d23f6db2608eb5c3d4e964736f6c63430007060033","bytecodeSha1":"51c9f69d0cf91cf800c5092c38b6478b815ca964","compiler":{"evm_version":"istanbul","optimizer":{"enabled":true,"runs":200},"version":"0.7.6+commit.7338295f"},"contractName":"MigrateUSDC_AddressToCurrencyId","language":"Solidity","natspec":{"kind":"dev","methods":{"atomicPatchAndUpgrade()":{"notice":"The owner of the proxy can call this method to run the patch fix code and upgrade the router. The owner must first transfer ownership to this contract, so that the upgrade methods can succeed. At the end of the method, ownership will be transferred back to the owner."},"patchFix()":{"details":"Can only be called by this contract during the `upgradeToAndCall` method"},"upgradeTo(address)":{"details":"Upgrade the implementation of the proxy to `newImplementation`. Calls {_authorizeUpgrade}. Emits an {Upgraded} event."},"upgradeToAndCall(address,bytes)":{"details":"Upgrade the implementation of the proxy to `newImplementation`, and subsequently execute the function call encoded in `data`. Calls {_authorizeUpgrade}. Emits an {Upgraded} event."}},"version":1},"opcodes":"PUSH1 0x80 PUSH1 0x40 MSTORE PUSH1 0x4 CALLDATASIZE LT PUSH2 0xE8 JUMPI PUSH1 0x0 CALLDATALOAD PUSH1 0xE0 SHR DUP1 PUSH4 0x4F1EF286 GT PUSH2 0x8A JUMPI DUP1 PUSH4 0x8D6AC768 GT PUSH2 0x59 JUMPI DUP1 PUSH4 0x8D6AC768 EQ PUSH2 0x1F5 JUMPI DUP1 PUSH4 0x8DA5CB5B EQ PUSH2 0x20A JUMPI DUP1 PUSH4 0xE2960E66 EQ PUSH2 0x21F JUMPI DUP1 PUSH4 0xF028E6FB EQ PUSH2 0x234 JUMPI PUSH2 0xE8 JUMP JUMPDEST DUP1 PUSH4 0x4F1EF286 EQ PUSH2 0x1A3 JUMPI DUP1 PUSH4 0x82463367 EQ PUSH2 0x1B6 JUMPI DUP1 PUSH4 0x858DCCB3 EQ PUSH2 0x1CB JUMPI DUP1 PUSH4 0x89A30271 EQ PUSH2 0x1E0 JUMPI PUSH2 0xE8 JUMP JUMPDEST DUP1 PUSH4 0x26BD0C4E GT PUSH2 0xC6 JUMPI DUP1 PUSH4 0x26BD0C4E EQ PUSH2 0x142 JUMPI DUP1 PUSH4 0x297D1A34 EQ PUSH2 0x157 JUMPI DUP1 PUSH4 0x3659CFE6 EQ PUSH2 0x16E JUMPI DUP1 PUSH4 0x43DC9BB2 EQ PUSH2 0x18E JUMPI PUSH2 0xE8 JUMP JUMPDEST DUP1 PUSH4 0xD2C5441 EQ PUSH2 0xED JUMPI DUP1 PUSH4 0x117803E3 EQ PUSH2 0x118 JUMPI DUP1 PUSH4 0x24A3D622 EQ PUSH2 0x12D JUMPI JUMPDEST PUSH1 0x0 DUP1 REVERT JUMPDEST CALLVALUE DUP1 ISZERO PUSH2 0xF9 JUMPI PUSH1 0x0 DUP1 REVERT JUMPDEST POP PUSH2 0x102 PUSH2 0x249 JUMP JUMPDEST PUSH1 0x40 MLOAD PUSH2 0x10F SWAP2 SWAP1 PUSH2 0xE7C JUMP JUMPDEST PUSH1 0x40 MLOAD DUP1 SWAP2 SUB SWAP1 RETURN JUMPDEST CALLVALUE DUP1 ISZERO PUSH2 0x124 JUMPI PUSH1 0x0 DUP1 REVERT JUMPDEST POP PUSH2 0x102 PUSH2 0x261 JUMP JUMPDEST CALLVALUE DUP1 ISZERO PUSH2 0x139 JUMPI PUSH1 0x0 DUP1 REVERT JUMPDEST POP PUSH2 0x102 PUSH2 0x285 JUMP JUMPDEST CALLVALUE DUP1 ISZERO PUSH2 0x14E JUMPI PUSH1 0x0 DUP1 REVERT JUMPDEST POP PUSH2 0x102 PUSH2 0x294 JUMP JUMPDEST CALLVALUE DUP1 ISZERO PUSH2 0x163 JUMPI PUSH1 0x0 DUP1 REVERT JUMPDEST POP PUSH2 0x16C PUSH2 0x2B8 JUMP JUMPDEST STOP JUMPDEST CALLVALUE DUP1 ISZERO PUSH2 0x17A JUMPI PUSH1 0x0 DUP1 REVERT JUMPDEST POP PUSH2 0x16C PUSH2 0x189 CALLDATASIZE PUSH1 0x4 PUSH2 0xD9A JUMP JUMPDEST PUSH2 0x390 JUMP JUMPDEST CALLVALUE DUP1 ISZERO PUSH2 0x19A JUMPI PUSH1 0x0 DUP1 REVERT JUMPDEST POP PUSH2 0x102 PUSH2 0x3B7 JUMP JUMPDEST PUSH2 0x16C PUSH2 0x1B1 CALLDATASIZE PUSH1 0x4 PUSH2 0xDD2 JUMP JUMPDEST PUSH2 0x3DB JUMP JUMPDEST CALLVALUE DUP1 ISZERO PUSH2 0x1C2 JUMPI PUSH1 0x0 DUP1 REVERT JUMPDEST POP PUSH2 0x102 PUSH2 0x3F4 JUMP JUMPDEST CALLVALUE DUP1 ISZERO PUSH2 0x1D7 JUMPI PUSH1 0x0 DUP1 REVERT JUMPDEST POP PUSH2 0x102 PUSH2 0x403 JUMP JUMPDEST CALLVALUE DUP1 ISZERO PUSH2 0x1EC JUMPI PUSH1 0x0 DUP1 REVERT JUMPDEST POP PUSH2 0x102 PUSH2 0x427 JUMP JUMPDEST CALLVALUE DUP1 ISZERO PUSH2 0x201 JUMPI PUSH1 0x0 DUP1 REVERT JUMPDEST POP PUSH2 0x102 PUSH2 0x43F JUMP JUMPDEST CALLVALUE DUP1 ISZERO PUSH2 0x216 JUMPI PUSH1 0x0 DUP1 REVERT JUMPDEST POP PUSH2 0x102 PUSH2 0x463 JUMP JUMPDEST CALLVALUE DUP1 ISZERO PUSH2 0x22B JUMPI PUSH1 0x0 DUP1 REVERT JUMPDEST POP PUSH2 0x16C PUSH2 0x47A JUMP JUMPDEST CALLVALUE DUP1 ISZERO PUSH2 0x240 JUMPI PUSH1 0x0 DUP1 REVERT JUMPDEST POP PUSH2 0x16C PUSH2 0x820 JUMP JUMPDEST PUSH20 0xFF970A61A04B1CA14834A43F5DE4533EBDDB5CC8 DUP2 JUMP JUMPDEST PUSH32 0x0 DUP2 JUMP JUMPDEST PUSH1 0x2 SLOAD PUSH1 0x1 PUSH1 0x1 PUSH1 0xA0 SHL SUB AND DUP2 JUMP JUMPDEST PUSH32 0x0 DUP2 JUMP JUMPDEST CALLER PUSH1 0x1 PUSH1 0x1 PUSH1 0xA0 SHL SUB PUSH32 0x0 AND EQ PUSH2 0x2ED JUMPI PUSH1 0x0 DUP1 REVERT JUMPDEST PUSH1 0x40 MLOAD PUSH4 0x2C90B94D PUSH1 0xE2 SHL DUP2 MSTORE PUSH1 0x1 PUSH1 0x1 PUSH1 0xA0 SHL SUB PUSH32 0x0 AND SWAP1 PUSH4 0xB242E534 SWAP1 PUSH2 0x35C SWAP1 PUSH32 0x0 SWAP1 PUSH1 0x1 SWAP1 PUSH1 0x4 ADD PUSH2 0xE90 JUMP JUMPDEST PUSH1 0x0 PUSH1 0x40 MLOAD DUP1 DUP4 SUB DUP2 PUSH1 0x0 DUP8 DUP1 EXTCODESIZE ISZERO DUP1 ISZERO PUSH2 0x376 JUMPI PUSH1 0x0 DUP1 REVERT JUMPDEST POP GAS CALL ISZERO DUP1 ISZERO PUSH2 0x38A JUMPI RETURNDATASIZE PUSH1 0x0 DUP1 RETURNDATACOPY RETURNDATASIZE PUSH1 0x0 REVERT JUMPDEST POP POP POP POP JUMP JUMPDEST PUSH2 0x399 DUP2 PUSH2 0x85F JUMP JUMPDEST PUSH2 0x3B4 DUP2 PUSH1 0x40 MLOAD DUP1 PUSH1 0x20 ADD PUSH1 0x40 MSTORE DUP1 PUSH1 0x0 DUP2 MSTORE POP PUSH1 0x0 PUSH2 0x90C JUMP JUMPDEST POP JUMP JUMPDEST PUSH32 0x0 DUP2 JUMP JUMPDEST PUSH2 0x3E4 DUP3 PUSH2 0x85F JUMP JUMPDEST PUSH2 0x3F0 DUP3 DUP3 PUSH1 0x1 PUSH2 0x90C JUMP JUMPDEST POP POP JUMP JUMPDEST PUSH1 0x1 SLOAD PUSH1 0x1 PUSH1 0x1 PUSH1 0xA0 SHL SUB AND DUP2 JUMP JUMPDEST PUSH32 0x0 DUP2 JUMP JUMPDEST PUSH20 0xAF88D065E77C8CC2239327C5EDB3A432268E5831 DUP2 JUMP JUMPDEST PUSH32 0x0 DUP2 JUMP JUMPDEST PUSH1 0x0 SLOAD PUSH5 0x100000000 SWAP1 DIV PUSH1 0x1 PUSH1 0x1 PUSH1 0xA0 SHL SUB AND DUP2 JUMP JUMPDEST CALLER PUSH1 0x1 PUSH1 0x1 PUSH1 0xA0 SHL SUB PUSH32 0x0 AND EQ PUSH2 0x4AF JUMPI PUSH1 0x0 DUP1 REVERT JUMPDEST PUSH32 0x0 PUSH1 0x1 PUSH1 0x1 PUSH1 0xA0 SHL SUB AND PUSH4 0x4E71E0C8 PUSH1 0x40 MLOAD DUP2 PUSH4 0xFFFFFFFF AND PUSH1 0xE0 SHL DUP2 MSTORE PUSH1 0x4 ADD PUSH1 0x0 PUSH1 0x40 MLOAD DUP1 DUP4 SUB DUP2 PUSH1 0x0 DUP8 DUP1 EXTCODESIZE ISZERO DUP1 ISZERO PUSH2 0x50A JUMPI PUSH1 0x0 DUP1 REVERT JUMPDEST POP GAS CALL ISZERO DUP1 ISZERO PUSH2 0x51E JUMPI RETURNDATASIZE PUSH1 0x0 DUP1 RETURNDATACOPY RETURNDATASIZE PUSH1 0x0 REVERT JUMPDEST POP POP PUSH1 0x40 DUP1 MLOAD PUSH1 0x4 DUP1 DUP3 MSTORE PUSH1 0x24 DUP3 ADD DUP4 MSTORE PUSH1 0x20 DUP3 ADD DUP1 MLOAD PUSH1 0x1 PUSH1 0x1 PUSH1 0xE0 SHL SUB AND PUSH4 0xF028E6FB PUSH1 0xE0 SHL OR SWAP1 MSTORE SWAP2 MLOAD PUSH4 0x278F7943 PUSH1 0xE1 SHL DUP2 MSTORE PUSH1 0x1 PUSH1 0x1 PUSH1 0xA0 SHL SUB PUSH32 0x0 AND SWAP5 POP PUSH4 0x4F1EF286 SWAP4 POP PUSH2 0x5B5 SWAP3 PUSH32 0x0 SWAP3 SWAP2 ADD PUSH2 0xEAB JUMP JUMPDEST PUSH1 0x0 PUSH1 0x40 MLOAD DUP1 DUP4 SUB DUP2 PUSH1 0x0 DUP8 DUP1 EXTCODESIZE ISZERO DUP1 ISZERO PUSH2 0x5CF JUMPI PUSH1 0x0 DUP1 REVERT JUMPDEST POP GAS CALL ISZERO DUP1 ISZERO PUSH2 0x5E3 JUMPI RETURNDATASIZE PUSH1 0x0 DUP1 RETURNDATACOPY RETURNDATASIZE PUSH1 0x0 REVERT JUMPDEST POP POP PUSH1 0x40 MLOAD PUSH4 0x1B2CE7F3 PUSH1 0xE1 SHL DUP2 MSTORE PUSH1 0x1 PUSH1 0x1 PUSH1 0xA0 SHL SUB PUSH32 0x0 AND SWAP3 POP PUSH4 0x3659CFE6 SWAP2 POP PUSH2 0x653 SWAP1 PUSH32 0x0 SWAP1 PUSH1 0x4 ADD PUSH2 0xE7C JUMP JUMPDEST PUSH1 0x0 PUSH1 0x40 MLOAD DUP1 DUP4 SUB DUP2 PUSH1 0x0 DUP8 DUP1 EXTCODESIZE ISZERO DUP1 ISZERO PUSH2 0x66D JUMPI PUSH1 0x0 DUP1 REVERT JUMPDEST POP GAS CALL ISZERO DUP1 ISZERO PUSH2 0x681 JUMPI RETURNDATASIZE PUSH1 0x0 DUP1 RETURNDATACOPY RETURNDATASIZE PUSH1 0x0 REVERT JUMPDEST POP POP PUSH1 0x40 MLOAD PUSH4 0x2C90B94D PUSH1 0xE2 SHL DUP2 MSTORE PUSH1 0x1 PUSH1 0x1 PUSH1 0xA0 SHL SUB PUSH32 0x0 AND SWAP3 POP PUSH4 0xB242E534 SWAP2 POP PUSH2 0x6F4 SWAP1 PUSH32 0x0 SWAP1 PUSH1 0x1 SWAP1 PUSH1 0x4 ADD PUSH2 0xE90 JUMP JUMPDEST PUSH1 0x0 PUSH1 0x40 MLOAD DUP1 DUP4 SUB DUP2 PUSH1 0x0 DUP8 DUP1 EXTCODESIZE ISZERO DUP1 ISZERO PUSH2 0x70E JUMPI PUSH1 0x0 DUP1 REVERT JUMPDEST POP GAS CALL ISZERO DUP1 ISZERO PUSH2 0x722 JUMPI RETURNDATASIZE PUSH1 0x0 DUP1 RETURNDATACOPY RETURNDATASIZE PUSH1 0x0 REVERT JUMPDEST POP POP POP POP PUSH32 0x0 PUSH1 0x1 PUSH1 0x1 PUSH1 0xA0 SHL SUB AND PUSH32 0x0 PUSH1 0x1 PUSH1 0x1 PUSH1 0xA0 SHL SUB AND PUSH4 0x8DA5CB5B PUSH1 0x40 MLOAD DUP2 PUSH4 0xFFFFFFFF AND PUSH1 0xE0 SHL DUP2 MSTORE PUSH1 0x4 ADD PUSH1 0x20 PUSH1 0x40 MLOAD DUP1 DUP4 SUB DUP2 DUP7 DUP1 EXTCODESIZE ISZERO DUP1 ISZERO PUSH2 0x7A9 JUMPI PUSH1 0x0 DUP1 REVERT JUMPDEST POP GAS STATICCALL ISZERO DUP1 ISZERO PUSH2 0x7BD JUMPI RETURNDATASIZE PUSH1 0x0 DUP1 RETURNDATACOPY RETURNDATASIZE PUSH1 0x0 REVERT JUMPDEST POP POP POP POP PUSH1 0x40 MLOAD RETURNDATASIZE PUSH1 0x1F NOT PUSH1 0x1F DUP3 ADD AND DUP3 ADD DUP1 PUSH1 0x40 MSTORE POP DUP2 ADD SWAP1 PUSH2 0x7E1 SWAP2 SWAP1 PUSH2 0xDB6 JUMP JUMPDEST PUSH1 0x1 PUSH1 0x1 PUSH1 0xA0 SHL SUB AND EQ PUSH2 0x7F4 JUMPI PUSH1 0x0 DUP1 REVERT JUMPDEST PUSH32 0x0 PUSH1 0x1 PUSH1 0x1 PUSH1 0xA0 SHL SUB AND SELFDESTRUCT JUMPDEST CALLER PUSH1 0x1 PUSH1 0x1 PUSH1 0xA0 SHL SUB PUSH32 0x0 AND EQ PUSH2 0x855 JUMPI PUSH1 0x0 DUP1 REVERT JUMPDEST PUSH2 0x85D PUSH2 0xA3F JUMP JUMPDEST JUMP JUMPDEST CALLER PUSH1 0x1 PUSH1 0x1 PUSH1 0xA0 SHL SUB PUSH32 0x0 AND EQ DUP1 ISZERO PUSH2 0x903 JUMPI POP PUSH32 0x0 PUSH1 0x1 PUSH1 0x1 PUSH1 0xA0 SHL SUB AND DUP2 PUSH1 0x1 PUSH1 0x1 PUSH1 0xA0 SHL SUB AND EQ DUP1 PUSH2 0x903 JUMPI POP PUSH32 0x0 PUSH1 0x1 PUSH1 0x1 PUSH1 0xA0 SHL SUB AND DUP2 PUSH1 0x1 PUSH1 0x1 PUSH1 0xA0 SHL SUB AND EQ JUMPDEST PUSH2 0x3B4 JUMPI PUSH1 0x0 DUP1 REVERT JUMPDEST PUSH1 0x0 PUSH2 0x916 PUSH2 0xAB6 JUMP JUMPDEST SWAP1 POP PUSH2 0x921 DUP5 PUSH2 0xAF0 JUMP JUMPDEST PUSH1 0x0 DUP4 MLOAD GT DUP1 PUSH2 0x92E JUMPI POP DUP2 JUMPDEST ISZERO PUSH2 0x93F JUMPI PUSH2 0x93D DUP5 DUP5 PUSH2 0xB7F JUMP JUMPDEST POP JUMPDEST PUSH1 0x0 PUSH2 0x96A PUSH32 0x4910FDFA16FED3260ED0E7147F7CC6DA11A60208B5B9406D12A635614FFD9143 PUSH2 0xBAB JUMP JUMPDEST DUP1 SLOAD SWAP1 SWAP2 POP PUSH1 0xFF AND PUSH2 0xA38 JUMPI DUP1 SLOAD PUSH1 0xFF NOT AND PUSH1 0x1 OR DUP2 SSTORE PUSH1 0x40 DUP1 MLOAD PUSH1 0x1 PUSH1 0x1 PUSH1 0xA0 SHL SUB DUP5 AND PUSH1 0x24 DUP1 DUP4 ADD SWAP2 SWAP1 SWAP2 MSTORE DUP3 MLOAD DUP1 DUP4 SUB SWAP1 SWAP2 ADD DUP2 MSTORE PUSH1 0x44 SWAP1 SWAP2 ADD SWAP1 SWAP2 MSTORE PUSH1 0x20 DUP2 ADD DUP1 MLOAD PUSH1 0x1 PUSH1 0x1 PUSH1 0xE0 SHL SUB AND PUSH4 0x1B2CE7F3 PUSH1 0xE1 SHL OR SWAP1 MSTORE PUSH2 0x9CF SWAP1 DUP7 SWAP1 PUSH2 0xB7F JUMP JUMPDEST POP DUP1 SLOAD PUSH1 0xFF NOT AND DUP2 SSTORE PUSH2 0x9E0 PUSH2 0xAB6 JUMP JUMPDEST PUSH1 0x1 PUSH1 0x1 PUSH1 0xA0 SHL SUB AND DUP3 PUSH1 0x1 PUSH1 0x1 PUSH1 0xA0 SHL SUB AND EQ PUSH2 0xA2F JUMPI PUSH1 0x40 MLOAD PUSH3 0x461BCD PUSH1 0xE5 SHL DUP2 MSTORE PUSH1 0x4 ADD DUP1 DUP1 PUSH1 0x20 ADD DUP3 DUP2 SUB DUP3 MSTORE PUSH1 0x2F DUP2 MSTORE PUSH1 0x20 ADD DUP1 PUSH2 0xF24 PUSH1 0x2F SWAP2 CODECOPY PUSH1 0x40 ADD SWAP2 POP POP PUSH1 0x40 MLOAD DUP1 SWAP2 SUB SWAP1 REVERT JUMPDEST PUSH2 0xA38 DUP6 PUSH2 0xBAE JUMP JUMPDEST POP POP POP POP POP JUMP JUMPDEST PUSH1 0x9 PUSH1 0x20 MSTORE PUSH32 0xDC1303420E1DE1BF5070C31381331B9D5F0AAEE32452B85779235A5688BDC151 DUP1 SLOAD PUSH2 0xFFFF NOT SWAP1 DUP2 AND SWAP1 SWAP2 SSTORE PUSH20 0xAF88D065E77C8CC2239327C5EDB3A432268E5831 PUSH1 0x0 MSTORE PUSH32 0xD1C7A8D80CB51B6F04CD3C82C5D50C654F9BD031BDDA2ED4C281B9804E9AACF3 DUP1 SLOAD SWAP1 SWAP2 AND PUSH1 0x3 OR SWAP1 SSTORE JUMP JUMPDEST PUSH1 0x0 PUSH2 0xAE1 PUSH32 0x360894A13BA1A3210667C828492DB98DCA3E2076CC3735A920A3CA505D382BBC PUSH2 0xBAB JUMP JUMPDEST SLOAD PUSH1 0x1 PUSH1 0x1 PUSH1 0xA0 SHL SUB AND SWAP1 POP SWAP1 JUMP JUMPDEST PUSH2 0xAF9 DUP2 PUSH2 0xBEE JUMP JUMPDEST PUSH2 0xB34 JUMPI PUSH1 0x40 MLOAD PUSH3 0x461BCD PUSH1 0xE5 SHL DUP2 MSTORE PUSH1 0x4 ADD DUP1 DUP1 PUSH1 0x20 ADD DUP3 DUP2 SUB DUP3 MSTORE PUSH1 0x2D DUP2 MSTORE PUSH1 0x20 ADD DUP1 PUSH2 0xF53 PUSH1 0x2D SWAP2 CODECOPY PUSH1 0x40 ADD SWAP2 POP POP PUSH1 0x40 MLOAD DUP1 SWAP2 SUB SWAP1 REVERT JUMPDEST DUP1 PUSH2 0xB5E PUSH32 0x360894A13BA1A3210667C828492DB98DCA3E2076CC3735A920A3CA505D382BBC PUSH2 0xBAB JUMP JUMPDEST DUP1 SLOAD PUSH1 0x1 PUSH1 0x1 PUSH1 0xA0 SHL SUB NOT AND PUSH1 0x1 PUSH1 0x1 PUSH1 0xA0 SHL SUB SWAP3 SWAP1 SWAP3 AND SWAP2 SWAP1 SWAP2 OR SWAP1 SSTORE POP JUMP JUMPDEST PUSH1 0x60 PUSH2 0xBA4 DUP4 DUP4 PUSH1 0x40 MLOAD DUP1 PUSH1 0x60 ADD PUSH1 0x40 MSTORE DUP1 PUSH1 0x27 DUP2 MSTORE PUSH1 0x20 ADD PUSH2 0xF80 PUSH1 0x27 SWAP2 CODECOPY PUSH2 0xBF4 JUMP JUMPDEST SWAP4 SWAP3 POP POP POP JUMP JUMPDEST SWAP1 JUMP JUMPDEST PUSH2 0xBB7 DUP2 PUSH2 0xAF0 JUMP JUMPDEST PUSH1 0x40 MLOAD PUSH1 0x1 PUSH1 0x1 PUSH1 0xA0 SHL SUB DUP3 AND SWAP1 PUSH32 0xBC7CD75A20EE27FD9ADEBAB32041F755214DBC6BFFA90CC0225B39DA2E5C2D3B SWAP1 PUSH1 0x0 SWAP1 LOG2 POP JUMP JUMPDEST EXTCODESIZE ISZERO ISZERO SWAP1 JUMP JUMPDEST PUSH1 0x60 PUSH2 0xBFF DUP5 PUSH2 0xBEE JUMP JUMPDEST PUSH2 0xC3A JUMPI PUSH1 0x40 MLOAD PUSH3 0x461BCD PUSH1 0xE5 SHL DUP2 MSTORE PUSH1 0x4 ADD DUP1 DUP1 PUSH1 0x20 ADD DUP3 DUP2 SUB DUP3 MSTORE PUSH1 0x26 DUP2 MSTORE PUSH1 0x20 ADD DUP1 PUSH2 0xFA7 PUSH1 0x26 SWAP2 CODECOPY PUSH1 0x40 ADD SWAP2 POP POP PUSH1 0x40 MLOAD DUP1 SWAP2 SUB SWAP1 REVERT JUMPDEST PUSH1 0x0 DUP1 DUP6 PUSH1 0x1 PUSH1 0x1 PUSH1 0xA0 SHL SUB AND DUP6 PUSH1 0x40 MLOAD DUP1 DUP3 DUP1 MLOAD SWAP1 PUSH1 0x20 ADD SWAP1 DUP1 DUP4 DUP4 JUMPDEST PUSH1 0x20 DUP4 LT PUSH2 0xC77 JUMPI DUP1 MLOAD DUP3 MSTORE PUSH1 0x1F NOT SWAP1 SWAP3 ADD SWAP2 PUSH1 0x20 SWAP2 DUP3 ADD SWAP2 ADD PUSH2 0xC58 JUMP JUMPDEST PUSH1 0x1 DUP4 PUSH1 0x20 SUB PUSH2 0x100 EXP SUB DUP1 NOT DUP3 MLOAD AND DUP2 DUP5 MLOAD AND DUP1 DUP3 OR DUP6 MSTORE POP POP POP POP POP POP SWAP1 POP ADD SWAP2 POP POP PUSH1 0x0 PUSH1 0x40 MLOAD DUP1 DUP4 SUB DUP2 DUP6 GAS DELEGATECALL SWAP2 POP POP RETURNDATASIZE DUP1 PUSH1 0x0 DUP2 EQ PUSH2 0xCD7 JUMPI PUSH1 0x40 MLOAD SWAP2 POP PUSH1 0x1F NOT PUSH1 0x3F RETURNDATASIZE ADD AND DUP3 ADD PUSH1 0x40 MSTORE RETURNDATASIZE DUP3 MSTORE RETURNDATASIZE PUSH1 0x0 PUSH1 0x20 DUP5 ADD RETURNDATACOPY PUSH2 0xCDC JUMP JUMPDEST PUSH1 0x60 SWAP2 POP JUMPDEST POP SWAP2 POP SWAP2 POP PUSH2 0xCEC DUP3 DUP3 DUP7 PUSH2 0xCF6 JUMP JUMPDEST SWAP7 SWAP6 POP POP POP POP POP POP JUMP JUMPDEST PUSH1 0x60 DUP4 ISZERO PUSH2 0xD05 JUMPI POP DUP2 PUSH2 0xBA4 JUMP JUMPDEST DUP3 MLOAD ISZERO PUSH2 0xD15 JUMPI DUP3 MLOAD DUP1 DUP5 PUSH1 0x20 ADD REVERT JUMPDEST DUP2 PUSH1 0x40 MLOAD PUSH3 0x461BCD PUSH1 0xE5 SHL DUP2 MSTORE PUSH1 0x4 ADD DUP1 DUP1 PUSH1 0x20 ADD DUP3 DUP2 SUB DUP3 MSTORE DUP4 DUP2 DUP2 MLOAD DUP2 MSTORE PUSH1 0x20 ADD SWAP2 POP DUP1 MLOAD SWAP1 PUSH1 0x20 ADD SWAP1 DUP1 DUP4 DUP4 PUSH1 0x0 JUMPDEST DUP4 DUP2 LT ISZERO PUSH2 0xD5F JUMPI DUP2 DUP2 ADD MLOAD DUP4 DUP3 ADD MSTORE PUSH1 0x20 ADD PUSH2 0xD47 JUMP JUMPDEST POP POP POP POP SWAP1 POP SWAP1 DUP2 ADD SWAP1 PUSH1 0x1F AND DUP1 ISZERO PUSH2 0xD8C JUMPI DUP1 DUP3 SUB DUP1 MLOAD PUSH1 0x1 DUP4 PUSH1 0x20 SUB PUSH2 0x100 EXP SUB NOT AND DUP2 MSTORE PUSH1 0x20 ADD SWAP2 POP JUMPDEST POP SWAP3 POP POP POP PUSH1 0x40 MLOAD DUP1 SWAP2 SUB SWAP1 REVERT JUMPDEST PUSH1 0x0 PUSH1 0x20 DUP3 DUP5 SUB SLT ISZERO PUSH2 0xDAB JUMPI DUP1 DUP2 REVERT JUMPDEST DUP2 CALLDATALOAD PUSH2 0xBA4 DUP2 PUSH2 0xF0E JUMP JUMPDEST PUSH1 0x0 PUSH1 0x20 DUP3 DUP5 SUB SLT ISZERO PUSH2 0xDC7 JUMPI DUP1 DUP2 REVERT JUMPDEST DUP2 MLOAD PUSH2 0xBA4 DUP2 PUSH2 0xF0E JUMP JUMPDEST PUSH1 0x0 DUP1 PUSH1 0x40 DUP4 DUP6 SUB SLT ISZERO PUSH2 0xDE4 JUMPI DUP1 DUP2 REVERT JUMPDEST DUP3 CALLDATALOAD PUSH2 0xDEF DUP2 PUSH2 0xF0E JUMP JUMPDEST SWAP2 POP PUSH1 0x20 DUP4 DUP2 ADD CALLDATALOAD PUSH8 0xFFFFFFFFFFFFFFFF DUP1 DUP3 GT ISZERO PUSH2 0xE0C JUMPI DUP4 DUP5 REVERT JUMPDEST DUP2 DUP7 ADD SWAP2 POP DUP7 PUSH1 0x1F DUP4 ADD SLT PUSH2 0xE1F JUMPI DUP4 DUP5 REVERT JUMPDEST DUP2 CALLDATALOAD DUP2 DUP2 GT ISZERO PUSH2 0xE2B JUMPI INVALID JUMPDEST PUSH1 0x40 MLOAD PUSH1 0x1F DUP3 ADD PUSH1 0x1F NOT AND DUP2 ADD DUP6 ADD DUP4 DUP2 GT DUP3 DUP3 LT OR ISZERO PUSH2 0xE48 JUMPI INVALID JUMPDEST PUSH1 0x40 MSTORE DUP2 DUP2 MSTORE DUP4 DUP3 ADD DUP6 ADD DUP10 LT ISZERO PUSH2 0xE5E JUMPI DUP6 DUP7 REVERT JUMPDEST DUP2 DUP6 DUP6 ADD DUP7 DUP4 ADD CALLDATACOPY DUP6 DUP6 DUP4 DUP4 ADD ADD MSTORE DUP1 SWAP6 POP POP POP POP POP POP SWAP3 POP SWAP3 SWAP1 POP JUMP JUMPDEST PUSH1 0x1 PUSH1 0x1 PUSH1 0xA0 SHL SUB SWAP2 SWAP1 SWAP2 AND DUP2 MSTORE PUSH1 0x20 ADD SWAP1 JUMP JUMPDEST PUSH1 0x1 PUSH1 0x1 PUSH1 0xA0 SHL SUB SWAP3 SWAP1 SWAP3 AND DUP3 MSTORE ISZERO ISZERO PUSH1 0x20 DUP3 ADD MSTORE PUSH1 0x40 ADD SWAP1 JUMP JUMPDEST PUSH1 0x0 PUSH1 0x1 DUP1 PUSH1 0xA0 SHL SUB DUP5 AND DUP3 MSTORE PUSH1 0x20 PUSH1 0x40 DUP2 DUP5 ADD MSTORE DUP4 MLOAD DUP1 PUSH1 0x40 DUP6 ADD MSTORE DUP3 JUMPDEST DUP2 DUP2 LT ISZERO PUSH2 0xEE6 JUMPI DUP6 DUP2 ADD DUP4 ADD MLOAD DUP6 DUP3 ADD PUSH1 0x60 ADD MSTORE DUP3 ADD PUSH2 0xECA JUMP JUMPDEST DUP2 DUP2 GT ISZERO PUSH2 0xEF7 JUMPI DUP4 PUSH1 0x60 DUP4 DUP8 ADD ADD MSTORE JUMPDEST POP PUSH1 0x1F ADD PUSH1 0x1F NOT AND SWAP3 SWAP1 SWAP3 ADD PUSH1 0x60 ADD SWAP5 SWAP4 POP POP POP POP JUMP JUMPDEST PUSH1 0x1 PUSH1 0x1 PUSH1 0xA0 SHL SUB DUP2 AND DUP2 EQ PUSH2 0x3B4 JUMPI PUSH1 0x0 DUP1 REVERT INVALID GASLIMIT MSTORE NUMBER BALANCE CODECOPY CALLDATASIZE CALLDATACOPY SSTORE PUSH17 0x67726164653A2075706772616465206272 PUSH6 0x616B73206675 PUSH19 0x74686572207570677261646573455243313936 CALLDATACOPY GASPRICE KECCAK256 PUSH15 0x657720696D706C656D656E74617469 PUSH16 0x6E206973206E6F74206120636F6E7472 PUSH2 0x6374 COINBASE PUSH5 0x6472657373 GASPRICE KECCAK256 PUSH13 0x6F772D6C6576656C2064656C65 PUSH8 0x6174652063616C6C KECCAK256 PUSH7 0x61696C65644164 PUSH5 0x726573733A KECCAK256 PUSH5 0x656C656761 PUSH21 0x652063616C6C20746F206E6F6E2D636F6E74726163 PUSH21 0xA2646970667358221220328462093EE2C445CED9F0 PUSH18 0xD42E7EB9B687CEA85726D23F6DB2608EB5C3 0xD4 0xE9 PUSH5 0x736F6C6343 STOP SMOD MOD STOP CALLER ","sha1":"0de4e5f9f481746c7ebf0bbd528d7e017a8ca640","source":"\n// SPDX-License-Identifier: BSUL-1.1\npragma solidity =0.7.6;\npragma abicoder v2;\n\nimport \"../../global/StorageLayoutV2.sol\";\nimport \"../../proxy/nProxy.sol\";\nimport \"./BasePatchFixRouter.sol\";\n\ncontract MigrateUSDC_AddressToCurrencyId is StorageLayoutV2, BasePatchFixRouter {\n    address public constant USDC = 0xaf88d065e77c8cC2239327C5EDb3A432268e5831;\n    address public constant USDC_E = 0xFF970A61A04b1cA14834A43f5dE4533eBDDB5CC8;\n    address payable constant proxy = 0x1344A36A1B56144C3Bc62E7757377D288fDE0369;\n    uint16 constant USDC_CURRENCY_ID = 3;\n\n    constructor() BasePatchFixRouter(\n        nProxy(proxy).getImplementation(),\n        nProxy(proxy).getImplementation(),\n        NotionalProxy(proxy)\n    ) {}\n\n    function _patchFix() internal override {\n        // Updates the reverse mapping of the tokenAddressToCurrencyId\n        delete tokenAddressToCurrencyId[USDC_E];\n        tokenAddressToCurrencyId[USDC] = USDC_CURRENCY_ID;\n    }\n}","sourcePath":"contracts/external/patchfix/MigrateUSDC_AddressToCurrencyId.sol","type":"contract","deployment":{"address":"0xbaA748fc864Ece66Fd958027F1A07b346C2aB387","chainid":"42161","blockHeight":164973856}}