{"abi":[{"anonymous":false,"inputs":[{"indexed":true,"internalType":"address","name":"account","type":"address"},{"indexed":true,"internalType":"address","name":"operator","type":"address"},{"indexed":false,"internalType":"bool","name":"approved","type":"bool"}],"name":"ApprovalForAll","type":"event"},{"anonymous":false,"inputs":[{"indexed":true,"internalType":"address","name":"operator","type":"address"},{"indexed":true,"internalType":"address","name":"from","type":"address"},{"indexed":true,"internalType":"address","name":"to","type":"address"},{"indexed":false,"internalType":"uint256[]","name":"ids","type":"uint256[]"},{"indexed":false,"internalType":"uint256[]","name":"values","type":"uint256[]"}],"name":"TransferBatch","type":"event"},{"anonymous":false,"inputs":[{"indexed":true,"internalType":"address","name":"operator","type":"address"},{"indexed":true,"internalType":"address","name":"from","type":"address"},{"indexed":true,"internalType":"address","name":"to","type":"address"},{"indexed":false,"internalType":"uint256","name":"id","type":"uint256"},{"indexed":false,"internalType":"uint256","name":"value","type":"uint256"}],"name":"TransferSingle","type":"event"},{"anonymous":false,"inputs":[{"indexed":false,"internalType":"string","name":"value","type":"string"},{"indexed":true,"internalType":"uint256","name":"id","type":"uint256"}],"name":"URI","type":"event"},{"inputs":[{"internalType":"address","name":"account","type":"address"},{"internalType":"uint256","name":"id","type":"uint256"}],"name":"balanceOf","outputs":[{"internalType":"uint256","name":"","type":"uint256"}],"stateMutability":"view","type":"function"},{"inputs":[{"internalType":"address[]","name":"accounts","type":"address[]"},{"internalType":"uint256[]","name":"ids","type":"uint256[]"}],"name":"balanceOfBatch","outputs":[{"internalType":"uint256[]","name":"","type":"uint256[]"}],"stateMutability":"view","type":"function"},{"inputs":[{"internalType":"uint256[]","name":"ids","type":"uint256[]"},{"internalType":"uint256[]","name":"amounts","type":"uint256[]"}],"name":"decodeToAssets","outputs":[{"components":[{"internalType":"uint16","name":"currencyId","type":"uint16"},{"internalType":"uint256","name":"maturity","type":"uint256"},{"internalType":"uint256","name":"assetType","type":"uint256"},{"internalType":"int256","name":"notional","type":"int256"},{"internalType":"uint256","name":"storageSlot","type":"uint256"},{"internalType":"enum AssetStorageState","name":"storageState","type":"uint8"}],"internalType":"struct PortfolioAsset[]","name":"","type":"tuple[]"}],"stateMutability":"view","type":"function"},{"inputs":[{"internalType":"uint16","name":"currencyId","type":"uint16"},{"internalType":"uint40","name":"maturity","type":"uint40"},{"internalType":"uint8","name":"","type":"uint8"}],"name":"encodeToId","outputs":[{"internalType":"uint256","name":"","type":"uint256"}],"stateMutability":"pure","type":"function"},{"inputs":[],"name":"getLibInfo","outputs":[{"internalType":"address","name":"","type":"address"},{"internalType":"address","name":"","type":"address"}],"stateMutability":"pure","type":"function"},{"inputs":[{"internalType":"address","name":"account","type":"address"},{"internalType":"address","name":"operator","type":"address"}],"name":"isApprovedForAll","outputs":[{"internalType":"bool","name":"","type":"bool"}],"stateMutability":"view","type":"function"},{"inputs":[],"name":"owner","outputs":[{"internalType":"address","name":"","type":"address"}],"stateMutability":"view","type":"function"},{"inputs":[],"name":"pauseGuardian","outputs":[{"internalType":"address","name":"","type":"address"}],"stateMutability":"view","type":"function"},{"inputs":[],"name":"pauseRouter","outputs":[{"internalType":"address","name":"","type":"address"}],"stateMutability":"view","type":"function"},{"inputs":[{"internalType":"address","name":"from","type":"address"},{"internalType":"address","name":"to","type":"address"},{"internalType":"uint256[]","name":"ids","type":"uint256[]"},{"internalType":"uint256[]","name":"amounts","type":"uint256[]"},{"internalType":"bytes","name":"data","type":"bytes"}],"name":"safeBatchTransferFrom","outputs":[],"stateMutability":"payable","type":"function"},{"inputs":[{"internalType":"address","name":"from","type":"address"},{"internalType":"address","name":"to","type":"address"},{"internalType":"uint256","name":"id","type":"uint256"},{"internalType":"uint256","name":"amount","type":"uint256"},{"internalType":"bytes","name":"data","type":"bytes"}],"name":"safeTransferFrom","outputs":[],"stateMutability":"payable","type":"function"},{"inputs":[{"internalType":"address","name":"operator","type":"address"},{"internalType":"bool","name":"approved","type":"bool"}],"name":"setApprovalForAll","outputs":[],"stateMutability":"nonpayable","type":"function"},{"inputs":[{"internalType":"address","name":"account","type":"address"},{"internalType":"uint256","name":"id","type":"uint256"}],"name":"signedBalanceOf","outputs":[{"internalType":"int256","name":"notional","type":"int256"}],"stateMutability":"view","type":"function"},{"inputs":[{"internalType":"address[]","name":"accounts","type":"address[]"},{"internalType":"uint256[]","name":"ids","type":"uint256[]"}],"name":"signedBalanceOfBatch","outputs":[{"internalType":"int256[]","name":"","type":"int256[]"}],"stateMutability":"view","type":"function"},{"inputs":[{"internalType":"bytes4","name":"interfaceId","type":"bytes4"}],"name":"supportsInterface","outputs":[{"internalType":"bool","name":"","type":"bool"}],"stateMutability":"pure","type":"function"}],"bytecode":"608060405234801561001057600080fd5b50612dcd806100206000396000f3fe6080604052600436106100e75760003560e01c8063735a1dc81161008a578063a22cb46511610059578063a22cb4651461026a578063c4c96dae1461028a578063e985e9c5146102ad578063f242432a146102cd576100e7565b8063735a1dc81461020057806381a868551461022057806382463367146102405780638da5cb5b14610255576100e7565b806324a3d622116100c657806324a3d6221461016f5780632eb2c2d6146101915780633fa6b808146101a65780634e1273f4146101d3576100e7565b8062fdd58e146100ec57806301ffc9a7146101225780630fac8f091461014f575b600080fd5b3480156100f857600080fd5b5061010c6101073660046125d5565b6102e0565b6040516101199190612af3565b60405180910390f35b34801561012e57600080fd5b5061014261013d366004612681565b610312565b6040516101199190612ae8565b34801561015b57600080fd5b5061010c61016a3660046125d5565b61032c565b34801561017b57600080fd5b50610184610487565b60405161011991906128f1565b6101a461019f366004612473565b610496565b005b3480156101b257600080fd5b506101c66101c1366004612600565b6106b4565b6040516101199190612aa6565b3480156101df57600080fd5b506101f36101ee366004612600565b6106d1565b6040516101199190612a62565b34801561020c57600080fd5b5061010c61021b366004612794565b610795565b34801561022c57600080fd5b506101f361023b366004612600565b6107b4565b34801561024c57600080fd5b50610184610862565b34801561026157600080fd5b50610184610871565b34801561027657600080fd5b506101a46102853660046125a8565b610888565b34801561029657600080fd5b5061029f6108f7565b6040516101199291906129a4565b3480156102b957600080fd5b506101426102c836600461243b565b610925565b6101a46102db36600461252e565b61097d565b6000806102ed848461032c565b9050600081126103055761030081610b3d565b610308565b60005b9150505b92915050565b6001600160e01b03198116636cdb3d1360e11b145b919050565b6000826001600160a01b031661034d61034484610b50565b61ffff16610b56565b6001600160a01b0316141561036d576103668383610b7c565b905061030c565b61037682610c93565b1561041257600080600061038985610c9f565b925092509250600061039a87610ce3565b90506103a581610d93565b156103c5576103be87826060015161ffff168686610da0565b94506103e0565b6103dd6103d6888360400151610dda565b8585610dee565b94505b811561040957600085126103f55760006103fe565b6103fe85610e67565b94505050505061030c565b5050505061030c565b6040516304a7a34160e41b81523090634a7a3410906104379086908690600401612a49565b60206040518083038186803b15801561044f57600080fd5b505afa158015610463573d6000803e3d6000fd5b505050506040513d601f19601f8201168201806040525081019061036691906126b9565b6002546001600160a01b031681565b6104a08888610e75565b60005b858110156105595760008585838181106104b957fe5b90506020020135905060008082136104ec576104e78a8a8a868181106104db57fe5b9050602002013561032c565b6104fc565b6104fc8b8a8a868181106104db57fe5b9050600081136105275760405162461bcd60e51b815260040161051e90612c50565b60405180910390fd5b61053082610f15565b81121561054f5760405162461bcd60e51b815260040161051e90612c50565b50506001016104a3565b5060008061056988888888610f36565b9150915080156105995761057d8933610925565b6105995760405162461bcd60e51b815260040161051e90612b83565b6000806105a78c8c86611092565b915091506105ba8c8c84848a8a89611172565b6105c38b611450565b156106a6577fbc197c819b3e337a6f9652dd10becd7eef83032af3b9d958d3d42f66941466216001600160e01b0319168b6001600160a01b031663bc197c81338f8e8e8e8e8e8e6040518963ffffffff1660e01b815260040161062d989796959493929190612905565b602060405180830381600087803b15801561064757600080fd5b505af115801561065b573d6000803e3d6000fd5b505050506040513d601f19601f8201168201806040525081019061067f919061269d565b6001600160e01b031916146106a65760405162461bcd60e51b815260040161051e90612cab565b505050505050505050505050565b606060006106c486868686610f36565b509150505b949350505050565b60608382146106df57600080fd5b60008467ffffffffffffffff811180156106f857600080fd5b50604051908082528060200260200182016040528015610722578160200160208202803683370190505b50905060005b8581101561078b5761076c87878381811061073f57fe5b9050602002016020810190610754919061241f565b86868481811061076057fe5b905060200201356102e0565b82828151811061077857fe5b6020908102919091010152600101610728565b5095945050505050565b60006107aa848464ffffffffff166000611456565b90505b9392505050565b60608382146107c257600080fd5b60008467ffffffffffffffff811180156107db57600080fd5b50604051908082528060200260200182016040528015610805578160200160208202803683370190505b50905060005b8581101561078b5761084387878381811061082257fe5b9050602002016020810190610837919061241f565b8686848181106104db57fe5b82828151811061084f57fe5b602090810291909101015260010161080b565b6001546001600160a01b031681565b60005464010000000090046001600160a01b031681565b3360008181526007602090815260408083206001600160a01b038716808552925291829020805460ff191685151517905590519091907f17307eab39ab6107e8899845ad3d59bd9653f200f220920489ca2b5937696c31906108eb908590612ae8565b60405180910390a35050565b73__FreeCollateralExternal________________73__SettleAssetsExternal__________________9091565b6001600160a01b03811660009081526006602052604081205460ff161561094e5750600161030c565b506001600160a01b03918216600090815260076020908152604080832093909416825291909152205460ff1690565b6109878686610e75565b61098f6121f5565b8315610a5057604080516001808252818301909252600091816020015b6109b461222a565b8152602001906001900390816109ac5790505090506000816000815181106109d857fe5b602002602001015190506109ec878261149f565b6109f58661150b565b606082015285610a058a8961032c565b1215610a235760405162461bcd60e51b815260040161051e90612c50565b610a3a816000015161ffff16826020015142611521565b610a45898984611092565b509250610a5c915050565b610a5987610ce3565b90505b610a646121f5565b610a748888848488886000611172565b610a7d87611450565b15610b335760405163f23a6e6160e01b808252906001600160a01b0389169063f23a6e6190610aba9033908d908c908c908c908c90600401612969565b602060405180830381600087803b158015610ad457600080fd5b505af1158015610ae8573d6000803e3d6000fd5b505050506040513d601f19601f82011682018060405250810190610b0c919061269d565b6001600160e01b03191614610b335760405162461bcd60e51b815260040161051e90612cab565b5050505050505050565b600080821215610b4c57600080fd5b5090565b60301c90565b600080610b61611558565b6000938452602052505060409020546001600160a01b031690565b600080600080610b8b85610c9f565b925092509250600080610ba060078542611565565b915091508080610bad5750825b15610bf357610bc2888661ffff168787610da0565b95508215610bee5760008612610bd9576000610be2565b610be286610e67565b9550505050505061030c565b610c88565b6000610bfe896115ec565b5093505050508060ff16831115610c1e576000965050505050505061030c565b6000610c2a8a83610dda565b9050610c3461226e565b610c47818961ffff168942600180611655565b6080810151610c615760009850505050505050505061030c565b610c81826001870381518110610c7357fe5b60200260200101518261167f565b9950505050505b505050505092915050565b60ff8116600114919050565b6000808060ff8416600114610cbc57506000915081905080610cdc565b505050603081901c64ffffffffff600883901c16600160ff604085901c16145b9193909250565b610ceb6121f5565b6000610cf5611700565b6001600160a01b03841660009081526020918252604090819020815160c081018352905464ffffffffff811682526001600160f81b031965010000000000820460f81b169382019390935260ff600160301b840481169282019290925261ffff600160381b84041660608201526001600160701b0319600160481b840460701b166080820152600160d81b90920416151560a0820152915050919050565b6060015161ffff16151590565b600061ffff83161580610db75750838361ffff1614155b15610dc4575060006106c9565b610dd3858461ffff168461170d565b90506106c9565b6060610de68383611752565b509392505050565b6000805b8451811015610e5c576000858281518110610e0957fe5b602002602001015190508461ffff16816000015161ffff16148015610e315750838160200151145b8015610e41575060408101516001145b15610e53576060015191506107ad9050565b50600101610df2565b506000949350505050565b600061030c6000198361176a565b806001600160a01b0316826001600160a01b031614158015610e9f57506001600160a01b03811615155b8015610eb457506001600160a01b0381163014155b610ed05760405162461bcd60e51b815260040161051e90612b2f565b336001600160a01b0383161480610eec5750610eec8233610925565b610f085760405162461bcd60e51b815260040161051e90612b83565b610f11826117b8565b5050565b600080821215610f2f57610f2882610e67565b9050610327565b5080610327565b60606000848314610f4657600080fd5b6000808667ffffffffffffffff81118015610f6057600080fd5b50604051908082528060200260200182016040528015610f9a57816020015b610f8761222a565b815260200190600190039081610f7f5790505b50905060005b87811015611085578015610ff457888860018303818110610fbd57fe5b90506020020135898983818110610fd057fe5b9050602002013511610ff45760405162461bcd60e51b815260040161051e90612c24565b600082828151811061100257fe5b6020026020010151905061103b8a8a8481811061101b57fe5b9050602002013584848151811061102e57fe5b602002602001015161149f565b611052816000015161ffff16826020015142611521565b87878381811061105e57fe5b60200291909101356060830181905260001315905061107c57600193505b50600101610fa0565b5097909650945050505050565b61109a6121f5565b6110a26121f5565b60006110ad85610ce3565b905060006110ba87610ce3565b60405163ca25415360e01b815290915073__SettleAssetsExternal__________________9063ca254153906110fc908a908a90869088908c906004016129be565b6101806040518083038186803b15801561111557600080fd5b505af4158015611129573d6000803e3d6000fd5b505050506040513d601f19601f8201168201806040525081019061114d9190612768565b9250905061115b8188611833565b6111658287611833565b925090505b935093915050565b6000806020841061118f57600061118b85870187612669565b9250505b6001600160e01b031982166356a273dd60e01b14806111be57506001600160e01b03198216630541f52760e41b145b806111d957506001600160e01b03198216633735195360e11b145b806111f457506001600160e01b03198216630276b64b60e01b145b1561130457611207602460048688612cd1565b810190611214919061241f565b9050886001600160a01b0316816001600160a01b031614806112575750876001600160a01b0316816001600160a01b031614801561125757506112578833610925565b6112735760405162461bcd60e51b815260040161051e90612b58565b600080306001600160a01b03163488886040516112919291906128e1565b60006040518083038185875af1925050503d80600081146112ce576040519150601f19603f3d011682016040523d82523d6000602084013e6112d3565b606091505b5091509150816112e282611952565b906113005760405162461bcd60e51b815260040161051e9190612afc565b5050505b886001600160a01b0316816001600160a01b031614158015611333575060208701516001600160f81b03191615155b156113a057604051636ccc642f60e01b815273__FreeCollateralExternal________________90636ccc642f9061136f908c906004016128f1565b60006040518083038186803b15801561138757600080fd5b505af415801561139b573d6000803e3d6000fd5b505050505b8280156113bf5750876001600160a01b0316816001600160a01b031614155b80156113d8575060208601516001600160f81b03191615155b1561144557604051636ccc642f60e01b815273__FreeCollateralExternal________________90636ccc642f90611414908b906004016128f1565b60006040518083038186803b15801561142c57600080fd5b505af4158015611440573d6000803e3d6000fd5b505050505b505050505050505050565b3b151590565b6000613fff61ffff8516111561146b57600080fd5b64ffffffffff83111561147d57600080fd5b61148784846119b2565b905060008212156107ad57600160401b179392505050565b6114a882610c93565b6114c45760405162461bcd60e51b815260040161051e90612c7e565b60006114cf83610c9f565b602085019190915261ffff9091168352905080156114ff5760405162461bcd60e51b815260040161051e90612bd0565b50600160409091015250565b60006001600160ff1b03821115610b4c57600080fd5b61153761152d846119d0565b60ff1683836119e6565b6115535760405162461bcd60e51b815260040161051e90612bfa565b505050565b60008061030c6003611a36565b6000806000851161157557600080fd5b600785111561158357600080fd5b600061158e84611a4f565b905060015b8681116115e65760006115af6115a883611a70565b8490611b14565b9050868114156115c7575092506000915061116a9050565b868111156115dd575092506001915061116a9050565b50600101611593565b50600080fd5b6000806000806000806115fd611b26565b6001600160a01b039097166000908152602097909752505060409094205461ffff81169563ffffffff62010000830481169650600160301b830416945060ff600160501b8304169350600160581b90910460d01b9150565b60006276a70061166485611a4f565b01905061167687878787878787611b33565b50505050505050565b60008061168f8460400151611b6a565b80156116a057506000846060015112155b6116a957600080fd5b6116d283608001516116cc8660600151866060015161176a90919063ffffffff16565b90611b80565b91506116f783608001516116cc8660600151866040015161176a90919063ffffffff16565b90509250929050565b60008061030c6001611a36565b600080611718611bb1565b6001600160a01b03861660009081526020918252604080822087835283528082208683529092522054600f90810b900b9150509392505050565b60608061175f8484611bbe565b91506116f782611cd6565b81810260001983141561179a5781158061178c57508282828161178957fe5b05145b61179557600080fd5b61030c565b8215806117af5750818382816117ac57fe5b05145b61030c57600080fd5b6001600160a01b0381166117cb57600080fd5b6001600160a01b038116610fee14156117e357600080fd5b6001600160a01b0381166105e714156117fb57600080fd5b6001600160a01b03811630141561181157600080fd5b600061181c826115ec565b5050505061ffff16905080600014610f1157600080fd5b600061183d611700565b6001600160a01b03831660008181526020838152604080832088518154938a01518a84015160608c015160808d015160a08e015164ffffffffff1990981664ffffffffff9095169490941765ff000000000019166501000000000060f89490941c939093029290921766ff0000000000001916600160301b60ff909216919091021768ffff000000000000001916600160381b61ffff90921691909102177affffffffffffffffffffffffffffffffffff0000000000000000001916600160481b60709290921c919091021760ff60d81b1916600160d81b93151593909302929092179091555192935090917f6bd4b121bca854a191536a2ca891155c42ee2fb23f307fb34e8bc65cfcb5412e9190a2505050565b6060604482511015611998575060408051808201909152601d81527f5472616e73616374696f6e2072657665727465642073696c656e746c790000006020820152610327565b6004820191508180602001905181019061030c91906126d1565b67ffff000000000000603083901b16600882901b1760011792915050565b6000806119dc83611e97565b60ff169392505050565b6000806119f283611a4f565b90506000611a09611a0287611a70565b8390611b14565b905080851115611a1e576000925050506107ad565b6000611a2a8587611eb4565b98975050505050505050565b6000620f4240826026811115611a4857fe5b0192915050565b60006276a700821015611a6157600080fd5b6276a700825b06909103919050565b60008160011415611a8557506276a700610327565b8160021415611a98575062ed4e00610327565b8160031415611aac57506301da9c00610327565b8160041415611ac057506303b53800610327565b8160051415611ad457506309450c00610327565b8160061415611ae8575063128a1800610327565b8160071415611afc57506325143000610327565b60405162461bcd60e51b815260040161051e90612ba9565b6000828201838110156107ad57600080fd5b60008061030c6002611a36565b611b408787878685611fbf565b611b598760e001518860a001518960c00151858861207f565b60c090970196909652505050505050565b60006002821080159061030c5750506008101590565b600081600019148015611b965750600160ff1b83145b15611ba057600080fd5b818381611ba957fe5b059392505050565b60008061030c600c611a36565b606060088260ff161115611bd157600080fd5b6000611bdb612115565b6001600160a01b038516600090815260208290526040812091925060ff851667ffffffffffffffff81118015611c1057600080fd5b50604051908082528060200260200182016040528015611c4a57816020015b611c3761222a565b815260200190600190039081611c2f5790505b50905060005b8560ff1681101561078b576000838260088110611c6957fe5b0190506000838381518110611c7a57fe5b602090810291909101810151835461ffff8116825264ffffffffff620100008204169282019290925260ff600160381b8304166040820152600160401b909104600a90810b900b60608201526080019190915250600101611c50565b80516060908067ffffffffffffffff81118015611cf257600080fd5b50604051908082528060200260200182016040528015611d1c578160200160208202803683370190505b50915060005b81811015611d79576000848281518110611d3857fe5b60200260200101519050611d59816000015182602001518360400151612122565b848381518110611d6557fe5b602090810291909101015250600101611d22565b5060015b81811015611e9057805b600081118015611dbf5750838181518110611d9e57fe5b6020026020010151846001830381518110611db557fe5b6020026020010151115b15611e8757838181518110611dd057fe5b6020026020010151846001830381518110611de757fe5b6020026020010151856001840381518110611dfe57fe5b60200260200101868481518110611e1157fe5b6020026020010182815250828152505050848181518110611e2e57fe5b6020026020010151856001830381518110611e4557fe5b6020026020010151866001840381518110611e5c57fe5b60200260200101878481518110611e6f57fe5b60209081029190910101919091525260001901611d87565b50600101611d7d565b5050919050565b600080611ea261214b565b60009384526020525050604090205490565b6000806000611ec285612158565b905062015180840615611edc576000809250925050611fb8565b838110611ef0576000809250925050611fb8565b6201518081850304605a8111611f0d57925060019150611fb89050565b6101688111611f4c576000620151806207e900840604820160591901905060068104605a0160068281611f3c57fe5b0660001494509450505050611fb8565b6108708111611f7c5760006201518062278d00840604820161016719019050601e8104608701601e8281611f3c57fe5b611de28111611fac576000620151806276a700840604820161086f19019050605a810460c301605a8281611f3c57fe5b61010060009350935050505b9250929050565b6000611fc9612174565b6000868152602082815260408083208884528252808320868452825291829020808a52908901879052805469ffffffffffffffffffff808216938b0193909352600160501b810490921660608a015263ffffffff600160a01b8304811660a08b0152600160c01b8304811660c08b0152600160e01b90920490911660e089015290915080841561206e57600182015469ffffffffffffffffffff166080890152610b33565b600060808901525050505050505050565b600080831161208d57600080fd5b8186111561209c57508361210c565b60006120a88388612181565b9050838111156120bb578591505061210c565b60006120c78286612196565b905060006120d9633b9aca0083612181565b9050612106633b9aca006121006120f08a856121af565b6120fa8c876121af565b90611b14565b906121d6565b93505050505b95945050505050565b60008061030c600d611a36565b67ffff000000000000603084901b1665ffffffffff00600884901b161760ff8216179392505050565b60008061030c6009611a36565b60006201518082101561216a57600080fd5b6201518082611a67565b60008061030c600a611a36565b60008282111561219057600080fd5b50900390565b60006107ad6121a984633b9aca006121af565b836121d6565b6000826121be5750600061030c565b828202828482816121cb57fe5b04146107ad57600080fd5b60008082116121e457600080fd5b8183816121ed57fe5b049392505050565b6040805160c081018252600080825260208201819052918101829052606081018290526080810182905260a081019190915290565b6040518060c00160405280600061ffff168152602001600081526020016000815260200160008152602001600081526020016000600381111561226957fe5b905290565b60405180610100016040528060008019168152602001600081526020016000815260200160008152602001600081526020016000815260200160008152602001600081525090565b60008083601f8401126122c7578081fd5b50813567ffffffffffffffff8111156122de578182fd5b6020830191508360208083028501011115611fb857600080fd5b805161032781612d41565b80516001600160701b03198116811461032757600080fd5b60008083601f84011261232c578182fd5b50813567ffffffffffffffff811115612343578182fd5b602083019150836020828501011115611fb857600080fd5b600060c0828403121561236c578081fd5b60405160c0810181811067ffffffffffffffff8211171561238957fe5b8060405250809150825161239c81612d75565b815260208301516001600160f81b0319811681146123b957600080fd5b60208201526123ca60408401612414565b60408201526123db60608401612409565b60608201526123ec60808401612303565b60808201526123fd60a084016122f8565b60a08201525092915050565b805161032781612d65565b805161032781612d88565b600060208284031215612430578081fd5b81356107ad81612d29565b6000806040838503121561244d578081fd5b823561245881612d29565b9150602083013561246881612d29565b809150509250929050565b60008060008060008060008060a0898b03121561248e578384fd5b883561249981612d29565b975060208901356124a981612d29565b9650604089013567ffffffffffffffff808211156124c5578586fd5b6124d18c838d016122b6565b909850965060608b01359150808211156124e9578586fd5b6124f58c838d016122b6565b909650945060808b013591508082111561250d578384fd5b5061251a8b828c0161231b565b999c989b5096995094979396929594505050565b60008060008060008060a08789031215612546578182fd5b863561255181612d29565b9550602087013561256181612d29565b94506040870135935060608701359250608087013567ffffffffffffffff81111561258a578283fd5b61259689828a0161231b565b979a9699509497509295939492505050565b600080604083850312156125ba578182fd5b82356125c581612d29565b9150602083013561246881612d41565b600080604083850312156125e7578182fd5b82356125f281612d29565b946020939093013593505050565b60008060008060408587031215612615578182fd5b843567ffffffffffffffff8082111561262c578384fd5b612638888389016122b6565b90965094506020870135915080821115612650578384fd5b5061265d878288016122b6565b95989497509550505050565b60006020828403121561267a578081fd5b5035919050565b600060208284031215612692578081fd5b81356107ad81612d4f565b6000602082840312156126ae578081fd5b81516107ad81612d4f565b6000602082840312156126ca578081fd5b5051919050565b6000602082840312156126e2578081fd5b815167ffffffffffffffff808211156126f9578283fd5b818401915084601f83011261270c578283fd5b81518181111561271857fe5b604051601f8201601f19168101602001838111828210171561273657fe5b60405281815283820160200187101561274d578485fd5b61275e826020830160208701612cf9565b9695505050505050565b600080610180838503121561277b578182fd5b612785848461235b565b91506116f78460c0850161235b565b6000806000606084860312156127a8578081fd5b83356127b381612d65565b925060208401356127c381612d75565b915060408401356127d381612d88565b809150509250925092565b81835260006001600160fb1b038311156127f6578081fd5b6020830280836020870137939093016020019283525090919050565b60008284528282602086013780602084860101526020601f19601f85011685010190509392505050565b805164ffffffffff1682526020808201516001600160f81b0319169083015260408082015160ff169083015260608082015161ffff16908301526080808201516001600160701b0319169083015260a0908101511515910152565b61ffff81511682526020810151602083015260408101516040830152606081015160608301526080810151608083015260a0810151600481106128d657fe5b8060a0840152505050565b6000828483379101908152919050565b6001600160a01b0391909116815260200190565b6001600160a01b0389811682528816602082015260a060408201819052600090612932908301888a6127de565b82810360608401526129458187896127de565b9050828103608084015261295a818587612812565b9b9a5050505050505050505050565b6001600160a01b03878116825286166020820152604081018590526060810184905260a060808201819052600090611a2a9083018486612812565b6001600160a01b0392831681529116602082015260400190565b60006101e080830160018060a01b03808a1685526020818a16818701526129e8604087018a61283c565b6129f661010087018961283c565b6101c0860193909352508451908190526102008401918086019190845b82811015612a3957612a26858551612897565b60c0949094019392810192600101612a13565b50929a9950505050505050505050565b6001600160a01b03929092168252602082015260400190565b6020808252825182820181905260009190848201906040850190845b81811015612a9a57835183529284019291840191600101612a7e565b50909695505050505050565b6020808252825182820181905260009190848201906040850190845b81811015612a9a57612ad5838551612897565b9284019260c09290920191600101612ac2565b901515815260200190565b90815260200190565b6000602082528251806020840152612b1b816040850160208701612cf9565b601f01601f19169190910160400192915050565b6020808252600f908201526e496e76616c6964206164647265737360881b604082015260600190565b602080825260119082015270155b985d5d1a1bdc9a5e99590818d85b1b607a1b604082015260600190565b6020808252600c908201526b155b985d5d1a1bdc9a5e995960a21b604082015260600190565b6020808252600d908201526c092dcecc2d8d2c840d2dcc8caf609b1b604082015260600190565b60208082526010908201526f2737902232b13a102a3930b739b332b960811b604082015260600190565b60208082526010908201526f496e76616c6964206d6174757269747960801b604082015260600190565b60208082526012908201527112511cc81b5d5cdd081899481cdbdc9d195960721b604082015260600190565b602080825260149082015273496e73756666696369656e742042616c616e636560601b604082015260600190565b60208082526013908201527227b7363c903321b0b9b4102a3930b739b332b960691b604082015260600190565b6020808252600c908201526b139bdd081858d8d95c1d195960a21b604082015260600190565b60008085851115612ce0578182fd5b83861115612cec578182fd5b5050820193919092039150565b60005b83811015612d14578181015183820152602001612cfc565b83811115612d23576000848401525b50505050565b6001600160a01b0381168114612d3e57600080fd5b50565b8015158114612d3e57600080fd5b6001600160e01b031981168114612d3e57600080fd5b61ffff81168114612d3e57600080fd5b64ffffffffff81168114612d3e57600080fd5b60ff81168114612d3e57600080fdfea2646970667358221220478dd1bb8e80bb1e2251f60774d94ac262f9e3dcd4e75b0642af3244e533043f64736f6c63430007060033","bytecodeSha1":"052ab42c6f9c21ff403e065f5f04dd7a1d8c548f","compiler":{"evm_version":"istanbul","optimizer":{"enabled":true,"runs":200},"version":"0.7.6+commit.7338295f"},"contractName":"ERC1155Action","deployedBytecode":"6080604052600436106100e75760003560e01c8063735a1dc81161008a578063a22cb46511610059578063a22cb4651461026a578063c4c96dae1461028a578063e985e9c5146102ad578063f242432a146102cd576100e7565b8063735a1dc81461020057806381a868551461022057806382463367146102405780638da5cb5b14610255576100e7565b806324a3d622116100c657806324a3d6221461016f5780632eb2c2d6146101915780633fa6b808146101a65780634e1273f4146101d3576100e7565b8062fdd58e146100ec57806301ffc9a7146101225780630fac8f091461014f575b600080fd5b3480156100f857600080fd5b5061010c6101073660046125d5565b6102e0565b6040516101199190612af3565b60405180910390f35b34801561012e57600080fd5b5061014261013d366004612681565b610312565b6040516101199190612ae8565b34801561015b57600080fd5b5061010c61016a3660046125d5565b61032c565b34801561017b57600080fd5b50610184610487565b60405161011991906128f1565b6101a461019f366004612473565b610496565b005b3480156101b257600080fd5b506101c66101c1366004612600565b6106b4565b6040516101199190612aa6565b3480156101df57600080fd5b506101f36101ee366004612600565b6106d1565b6040516101199190612a62565b34801561020c57600080fd5b5061010c61021b366004612794565b610795565b34801561022c57600080fd5b506101f361023b366004612600565b6107b4565b34801561024c57600080fd5b50610184610862565b34801561026157600080fd5b50610184610871565b34801561027657600080fd5b506101a46102853660046125a8565b610888565b34801561029657600080fd5b5061029f6108f7565b6040516101199291906129a4565b3480156102b957600080fd5b506101426102c836600461243b565b610925565b6101a46102db36600461252e565b61097d565b6000806102ed848461032c565b9050600081126103055761030081610b3d565b610308565b60005b9150505b92915050565b6001600160e01b03198116636cdb3d1360e11b145b919050565b6000826001600160a01b031661034d61034484610b50565b61ffff16610b56565b6001600160a01b0316141561036d576103668383610b7c565b905061030c565b61037682610c93565b1561041257600080600061038985610c9f565b925092509250600061039a87610ce3565b90506103a581610d93565b156103c5576103be87826060015161ffff168686610da0565b94506103e0565b6103dd6103d6888360400151610dda565b8585610dee565b94505b811561040957600085126103f55760006103fe565b6103fe85610e67565b94505050505061030c565b5050505061030c565b6040516304a7a34160e41b81523090634a7a3410906104379086908690600401612a49565b60206040518083038186803b15801561044f57600080fd5b505afa158015610463573d6000803e3d6000fd5b505050506040513d601f19601f8201168201806040525081019061036691906126b9565b6002546001600160a01b031681565b6104a08888610e75565b60005b858110156105595760008585838181106104b957fe5b90506020020135905060008082136104ec576104e78a8a8a868181106104db57fe5b9050602002013561032c565b6104fc565b6104fc8b8a8a868181106104db57fe5b9050600081136105275760405162461bcd60e51b815260040161051e90612c50565b60405180910390fd5b61053082610f15565b81121561054f5760405162461bcd60e51b815260040161051e90612c50565b50506001016104a3565b5060008061056988888888610f36565b9150915080156105995761057d8933610925565b6105995760405162461bcd60e51b815260040161051e90612b83565b6000806105a78c8c86611092565b915091506105ba8c8c84848a8a89611172565b6105c38b611450565b156106a6577fbc197c819b3e337a6f9652dd10becd7eef83032af3b9d958d3d42f66941466216001600160e01b0319168b6001600160a01b031663bc197c81338f8e8e8e8e8e8e6040518963ffffffff1660e01b815260040161062d989796959493929190612905565b602060405180830381600087803b15801561064757600080fd5b505af115801561065b573d6000803e3d6000fd5b505050506040513d601f19601f8201168201806040525081019061067f919061269d565b6001600160e01b031916146106a65760405162461bcd60e51b815260040161051e90612cab565b505050505050505050505050565b606060006106c486868686610f36565b509150505b949350505050565b60608382146106df57600080fd5b60008467ffffffffffffffff811180156106f857600080fd5b50604051908082528060200260200182016040528015610722578160200160208202803683370190505b50905060005b8581101561078b5761076c87878381811061073f57fe5b9050602002016020810190610754919061241f565b86868481811061076057fe5b905060200201356102e0565b82828151811061077857fe5b6020908102919091010152600101610728565b5095945050505050565b60006107aa848464ffffffffff166000611456565b90505b9392505050565b60608382146107c257600080fd5b60008467ffffffffffffffff811180156107db57600080fd5b50604051908082528060200260200182016040528015610805578160200160208202803683370190505b50905060005b8581101561078b5761084387878381811061082257fe5b9050602002016020810190610837919061241f565b8686848181106104db57fe5b82828151811061084f57fe5b602090810291909101015260010161080b565b6001546001600160a01b031681565b60005464010000000090046001600160a01b031681565b3360008181526007602090815260408083206001600160a01b038716808552925291829020805460ff191685151517905590519091907f17307eab39ab6107e8899845ad3d59bd9653f200f220920489ca2b5937696c31906108eb908590612ae8565b60405180910390a35050565b73__$841fddfe32830bb6dbc3a02d7f16c53722$__73__$f6541b0d362a0c7d99a2a29cd3d373d61b$__9091565b6001600160a01b03811660009081526006602052604081205460ff161561094e5750600161030c565b506001600160a01b03918216600090815260076020908152604080832093909416825291909152205460ff1690565b6109878686610e75565b61098f6121f5565b8315610a5057604080516001808252818301909252600091816020015b6109b461222a565b8152602001906001900390816109ac5790505090506000816000815181106109d857fe5b602002602001015190506109ec878261149f565b6109f58661150b565b606082015285610a058a8961032c565b1215610a235760405162461bcd60e51b815260040161051e90612c50565b610a3a816000015161ffff16826020015142611521565b610a45898984611092565b509250610a5c915050565b610a5987610ce3565b90505b610a646121f5565b610a748888848488886000611172565b610a7d87611450565b15610b335760405163f23a6e6160e01b808252906001600160a01b0389169063f23a6e6190610aba9033908d908c908c908c908c90600401612969565b602060405180830381600087803b158015610ad457600080fd5b505af1158015610ae8573d6000803e3d6000fd5b505050506040513d601f19601f82011682018060405250810190610b0c919061269d565b6001600160e01b03191614610b335760405162461bcd60e51b815260040161051e90612cab565b5050505050505050565b600080821215610b4c57600080fd5b5090565b60301c90565b600080610b61611558565b6000938452602052505060409020546001600160a01b031690565b600080600080610b8b85610c9f565b925092509250600080610ba060078542611565565b915091508080610bad5750825b15610bf357610bc2888661ffff168787610da0565b95508215610bee5760008612610bd9576000610be2565b610be286610e67565b9550505050505061030c565b610c88565b6000610bfe896115ec565b5093505050508060ff16831115610c1e576000965050505050505061030c565b6000610c2a8a83610dda565b9050610c3461226e565b610c47818961ffff168942600180611655565b6080810151610c615760009850505050505050505061030c565b610c81826001870381518110610c7357fe5b60200260200101518261167f565b9950505050505b505050505092915050565b60ff8116600114919050565b6000808060ff8416600114610cbc57506000915081905080610cdc565b505050603081901c64ffffffffff600883901c16600160ff604085901c16145b9193909250565b610ceb6121f5565b6000610cf5611700565b6001600160a01b03841660009081526020918252604090819020815160c081018352905464ffffffffff811682526001600160f81b031965010000000000820460f81b169382019390935260ff600160301b840481169282019290925261ffff600160381b84041660608201526001600160701b0319600160481b840460701b166080820152600160d81b90920416151560a0820152915050919050565b6060015161ffff16151590565b600061ffff83161580610db75750838361ffff1614155b15610dc4575060006106c9565b610dd3858461ffff168461170d565b90506106c9565b6060610de68383611752565b509392505050565b6000805b8451811015610e5c576000858281518110610e0957fe5b602002602001015190508461ffff16816000015161ffff16148015610e315750838160200151145b8015610e41575060408101516001145b15610e53576060015191506107ad9050565b50600101610df2565b506000949350505050565b600061030c6000198361176a565b806001600160a01b0316826001600160a01b031614158015610e9f57506001600160a01b03811615155b8015610eb457506001600160a01b0381163014155b610ed05760405162461bcd60e51b815260040161051e90612b2f565b336001600160a01b0383161480610eec5750610eec8233610925565b610f085760405162461bcd60e51b815260040161051e90612b83565b610f11826117b8565b5050565b600080821215610f2f57610f2882610e67565b9050610327565b5080610327565b60606000848314610f4657600080fd5b6000808667ffffffffffffffff81118015610f6057600080fd5b50604051908082528060200260200182016040528015610f9a57816020015b610f8761222a565b815260200190600190039081610f7f5790505b50905060005b87811015611085578015610ff457888860018303818110610fbd57fe5b90506020020135898983818110610fd057fe5b9050602002013511610ff45760405162461bcd60e51b815260040161051e90612c24565b600082828151811061100257fe5b6020026020010151905061103b8a8a8481811061101b57fe5b9050602002013584848151811061102e57fe5b602002602001015161149f565b611052816000015161ffff16826020015142611521565b87878381811061105e57fe5b60200291909101356060830181905260001315905061107c57600193505b50600101610fa0565b5097909650945050505050565b61109a6121f5565b6110a26121f5565b60006110ad85610ce3565b905060006110ba87610ce3565b60405163ca25415360e01b815290915073__$f6541b0d362a0c7d99a2a29cd3d373d61b$__9063ca254153906110fc908a908a90869088908c906004016129be565b6101806040518083038186803b15801561111557600080fd5b505af4158015611129573d6000803e3d6000fd5b505050506040513d601f19601f8201168201806040525081019061114d9190612768565b9250905061115b8188611833565b6111658287611833565b925090505b935093915050565b6000806020841061118f57600061118b85870187612669565b9250505b6001600160e01b031982166356a273dd60e01b14806111be57506001600160e01b03198216630541f52760e41b145b806111d957506001600160e01b03198216633735195360e11b145b806111f457506001600160e01b03198216630276b64b60e01b145b1561130457611207602460048688612cd1565b810190611214919061241f565b9050886001600160a01b0316816001600160a01b031614806112575750876001600160a01b0316816001600160a01b031614801561125757506112578833610925565b6112735760405162461bcd60e51b815260040161051e90612b58565b600080306001600160a01b03163488886040516112919291906128e1565b60006040518083038185875af1925050503d80600081146112ce576040519150601f19603f3d011682016040523d82523d6000602084013e6112d3565b606091505b5091509150816112e282611952565b906113005760405162461bcd60e51b815260040161051e9190612afc565b5050505b886001600160a01b0316816001600160a01b031614158015611333575060208701516001600160f81b03191615155b156113a057604051636ccc642f60e01b815273__$841fddfe32830bb6dbc3a02d7f16c53722$__90636ccc642f9061136f908c906004016128f1565b60006040518083038186803b15801561138757600080fd5b505af415801561139b573d6000803e3d6000fd5b505050505b8280156113bf5750876001600160a01b0316816001600160a01b031614155b80156113d8575060208601516001600160f81b03191615155b1561144557604051636ccc642f60e01b815273__$841fddfe32830bb6dbc3a02d7f16c53722$__90636ccc642f90611414908b906004016128f1565b60006040518083038186803b15801561142c57600080fd5b505af4158015611440573d6000803e3d6000fd5b505050505b505050505050505050565b3b151590565b6000613fff61ffff8516111561146b57600080fd5b64ffffffffff83111561147d57600080fd5b61148784846119b2565b905060008212156107ad57600160401b179392505050565b6114a882610c93565b6114c45760405162461bcd60e51b815260040161051e90612c7e565b60006114cf83610c9f565b602085019190915261ffff9091168352905080156114ff5760405162461bcd60e51b815260040161051e90612bd0565b50600160409091015250565b60006001600160ff1b03821115610b4c57600080fd5b61153761152d846119d0565b60ff1683836119e6565b6115535760405162461bcd60e51b815260040161051e90612bfa565b505050565b60008061030c6003611a36565b6000806000851161157557600080fd5b600785111561158357600080fd5b600061158e84611a4f565b905060015b8681116115e65760006115af6115a883611a70565b8490611b14565b9050868114156115c7575092506000915061116a9050565b868111156115dd575092506001915061116a9050565b50600101611593565b50600080fd5b6000806000806000806115fd611b26565b6001600160a01b039097166000908152602097909752505060409094205461ffff81169563ffffffff62010000830481169650600160301b830416945060ff600160501b8304169350600160581b90910460d01b9150565b60006276a70061166485611a4f565b01905061167687878787878787611b33565b50505050505050565b60008061168f8460400151611b6a565b80156116a057506000846060015112155b6116a957600080fd5b6116d283608001516116cc8660600151866060015161176a90919063ffffffff16565b90611b80565b91506116f783608001516116cc8660600151866040015161176a90919063ffffffff16565b90509250929050565b60008061030c6001611a36565b600080611718611bb1565b6001600160a01b03861660009081526020918252604080822087835283528082208683529092522054600f90810b900b9150509392505050565b60608061175f8484611bbe565b91506116f782611cd6565b81810260001983141561179a5781158061178c57508282828161178957fe5b05145b61179557600080fd5b61030c565b8215806117af5750818382816117ac57fe5b05145b61030c57600080fd5b6001600160a01b0381166117cb57600080fd5b6001600160a01b038116610fee14156117e357600080fd5b6001600160a01b0381166105e714156117fb57600080fd5b6001600160a01b03811630141561181157600080fd5b600061181c826115ec565b5050505061ffff16905080600014610f1157600080fd5b600061183d611700565b6001600160a01b03831660008181526020838152604080832088518154938a01518a84015160608c015160808d015160a08e015164ffffffffff1990981664ffffffffff9095169490941765ff000000000019166501000000000060f89490941c939093029290921766ff0000000000001916600160301b60ff909216919091021768ffff000000000000001916600160381b61ffff90921691909102177affffffffffffffffffffffffffffffffffff0000000000000000001916600160481b60709290921c919091021760ff60d81b1916600160d81b93151593909302929092179091555192935090917f6bd4b121bca854a191536a2ca891155c42ee2fb23f307fb34e8bc65cfcb5412e9190a2505050565b6060604482511015611998575060408051808201909152601d81527f5472616e73616374696f6e2072657665727465642073696c656e746c790000006020820152610327565b6004820191508180602001905181019061030c91906126d1565b67ffff000000000000603083901b16600882901b1760011792915050565b6000806119dc83611e97565b60ff169392505050565b6000806119f283611a4f565b90506000611a09611a0287611a70565b8390611b14565b905080851115611a1e576000925050506107ad565b6000611a2a8587611eb4565b98975050505050505050565b6000620f4240826026811115611a4857fe5b0192915050565b60006276a700821015611a6157600080fd5b6276a700825b06909103919050565b60008160011415611a8557506276a700610327565b8160021415611a98575062ed4e00610327565b8160031415611aac57506301da9c00610327565b8160041415611ac057506303b53800610327565b8160051415611ad457506309450c00610327565b8160061415611ae8575063128a1800610327565b8160071415611afc57506325143000610327565b60405162461bcd60e51b815260040161051e90612ba9565b6000828201838110156107ad57600080fd5b60008061030c6002611a36565b611b408787878685611fbf565b611b598760e001518860a001518960c00151858861207f565b60c090970196909652505050505050565b60006002821080159061030c5750506008101590565b600081600019148015611b965750600160ff1b83145b15611ba057600080fd5b818381611ba957fe5b059392505050565b60008061030c600c611a36565b606060088260ff161115611bd157600080fd5b6000611bdb612115565b6001600160a01b038516600090815260208290526040812091925060ff851667ffffffffffffffff81118015611c1057600080fd5b50604051908082528060200260200182016040528015611c4a57816020015b611c3761222a565b815260200190600190039081611c2f5790505b50905060005b8560ff1681101561078b576000838260088110611c6957fe5b0190506000838381518110611c7a57fe5b602090810291909101810151835461ffff8116825264ffffffffff620100008204169282019290925260ff600160381b8304166040820152600160401b909104600a90810b900b60608201526080019190915250600101611c50565b80516060908067ffffffffffffffff81118015611cf257600080fd5b50604051908082528060200260200182016040528015611d1c578160200160208202803683370190505b50915060005b81811015611d79576000848281518110611d3857fe5b60200260200101519050611d59816000015182602001518360400151612122565b848381518110611d6557fe5b602090810291909101015250600101611d22565b5060015b81811015611e9057805b600081118015611dbf5750838181518110611d9e57fe5b6020026020010151846001830381518110611db557fe5b6020026020010151115b15611e8757838181518110611dd057fe5b6020026020010151846001830381518110611de757fe5b6020026020010151856001840381518110611dfe57fe5b60200260200101868481518110611e1157fe5b6020026020010182815250828152505050848181518110611e2e57fe5b6020026020010151856001830381518110611e4557fe5b6020026020010151866001840381518110611e5c57fe5b60200260200101878481518110611e6f57fe5b60209081029190910101919091525260001901611d87565b50600101611d7d565b5050919050565b600080611ea261214b565b60009384526020525050604090205490565b6000806000611ec285612158565b905062015180840615611edc576000809250925050611fb8565b838110611ef0576000809250925050611fb8565b6201518081850304605a8111611f0d57925060019150611fb89050565b6101688111611f4c576000620151806207e900840604820160591901905060068104605a0160068281611f3c57fe5b0660001494509450505050611fb8565b6108708111611f7c5760006201518062278d00840604820161016719019050601e8104608701601e8281611f3c57fe5b611de28111611fac576000620151806276a700840604820161086f19019050605a810460c301605a8281611f3c57fe5b61010060009350935050505b9250929050565b6000611fc9612174565b6000868152602082815260408083208884528252808320868452825291829020808a52908901879052805469ffffffffffffffffffff808216938b0193909352600160501b810490921660608a015263ffffffff600160a01b8304811660a08b0152600160c01b8304811660c08b0152600160e01b90920490911660e089015290915080841561206e57600182015469ffffffffffffffffffff166080890152610b33565b600060808901525050505050505050565b600080831161208d57600080fd5b8186111561209c57508361210c565b60006120a88388612181565b9050838111156120bb578591505061210c565b60006120c78286612196565b905060006120d9633b9aca0083612181565b9050612106633b9aca006121006120f08a856121af565b6120fa8c876121af565b90611b14565b906121d6565b93505050505b95945050505050565b60008061030c600d611a36565b67ffff000000000000603084901b1665ffffffffff00600884901b161760ff8216179392505050565b60008061030c6009611a36565b60006201518082101561216a57600080fd5b6201518082611a67565b60008061030c600a611a36565b60008282111561219057600080fd5b50900390565b60006107ad6121a984633b9aca006121af565b836121d6565b6000826121be5750600061030c565b828202828482816121cb57fe5b04146107ad57600080fd5b60008082116121e457600080fd5b8183816121ed57fe5b049392505050565b6040805160c081018252600080825260208201819052918101829052606081018290526080810182905260a081019190915290565b6040518060c00160405280600061ffff168152602001600081526020016000815260200160008152602001600081526020016000600381111561226957fe5b905290565b60405180610100016040528060008019168152602001600081526020016000815260200160008152602001600081526020016000815260200160008152602001600081525090565b60008083601f8401126122c7578081fd5b50813567ffffffffffffffff8111156122de578182fd5b6020830191508360208083028501011115611fb857600080fd5b805161032781612d41565b80516001600160701b03198116811461032757600080fd5b60008083601f84011261232c578182fd5b50813567ffffffffffffffff811115612343578182fd5b602083019150836020828501011115611fb857600080fd5b600060c0828403121561236c578081fd5b60405160c0810181811067ffffffffffffffff8211171561238957fe5b8060405250809150825161239c81612d75565b815260208301516001600160f81b0319811681146123b957600080fd5b60208201526123ca60408401612414565b60408201526123db60608401612409565b60608201526123ec60808401612303565b60808201526123fd60a084016122f8565b60a08201525092915050565b805161032781612d65565b805161032781612d88565b600060208284031215612430578081fd5b81356107ad81612d29565b6000806040838503121561244d578081fd5b823561245881612d29565b9150602083013561246881612d29565b809150509250929050565b60008060008060008060008060a0898b03121561248e578384fd5b883561249981612d29565b975060208901356124a981612d29565b9650604089013567ffffffffffffffff808211156124c5578586fd5b6124d18c838d016122b6565b909850965060608b01359150808211156124e9578586fd5b6124f58c838d016122b6565b909650945060808b013591508082111561250d578384fd5b5061251a8b828c0161231b565b999c989b5096995094979396929594505050565b60008060008060008060a08789031215612546578182fd5b863561255181612d29565b9550602087013561256181612d29565b94506040870135935060608701359250608087013567ffffffffffffffff81111561258a578283fd5b61259689828a0161231b565b979a9699509497509295939492505050565b600080604083850312156125ba578182fd5b82356125c581612d29565b9150602083013561246881612d41565b600080604083850312156125e7578182fd5b82356125f281612d29565b946020939093013593505050565b60008060008060408587031215612615578182fd5b843567ffffffffffffffff8082111561262c578384fd5b612638888389016122b6565b90965094506020870135915080821115612650578384fd5b5061265d878288016122b6565b95989497509550505050565b60006020828403121561267a578081fd5b5035919050565b600060208284031215612692578081fd5b81356107ad81612d4f565b6000602082840312156126ae578081fd5b81516107ad81612d4f565b6000602082840312156126ca578081fd5b5051919050565b6000602082840312156126e2578081fd5b815167ffffffffffffffff808211156126f9578283fd5b818401915084601f83011261270c578283fd5b81518181111561271857fe5b604051601f8201601f19168101602001838111828210171561273657fe5b60405281815283820160200187101561274d578485fd5b61275e826020830160208701612cf9565b9695505050505050565b600080610180838503121561277b578182fd5b612785848461235b565b91506116f78460c0850161235b565b6000806000606084860312156127a8578081fd5b83356127b381612d65565b925060208401356127c381612d75565b915060408401356127d381612d88565b809150509250925092565b81835260006001600160fb1b038311156127f6578081fd5b6020830280836020870137939093016020019283525090919050565b60008284528282602086013780602084860101526020601f19601f85011685010190509392505050565b805164ffffffffff1682526020808201516001600160f81b0319169083015260408082015160ff169083015260608082015161ffff16908301526080808201516001600160701b0319169083015260a0908101511515910152565b61ffff81511682526020810151602083015260408101516040830152606081015160608301526080810151608083015260a0810151600481106128d657fe5b8060a0840152505050565b6000828483379101908152919050565b6001600160a01b0391909116815260200190565b6001600160a01b0389811682528816602082015260a060408201819052600090612932908301888a6127de565b82810360608401526129458187896127de565b9050828103608084015261295a818587612812565b9b9a5050505050505050505050565b6001600160a01b03878116825286166020820152604081018590526060810184905260a060808201819052600090611a2a9083018486612812565b6001600160a01b0392831681529116602082015260400190565b60006101e080830160018060a01b03808a1685526020818a16818701526129e8604087018a61283c565b6129f661010087018961283c565b6101c0860193909352508451908190526102008401918086019190845b82811015612a3957612a26858551612897565b60c0949094019392810192600101612a13565b50929a9950505050505050505050565b6001600160a01b03929092168252602082015260400190565b6020808252825182820181905260009190848201906040850190845b81811015612a9a57835183529284019291840191600101612a7e565b50909695505050505050565b6020808252825182820181905260009190848201906040850190845b81811015612a9a57612ad5838551612897565b9284019260c09290920191600101612ac2565b901515815260200190565b90815260200190565b6000602082528251806020840152612b1b816040850160208701612cf9565b601f01601f19169190910160400192915050565b6020808252600f908201526e496e76616c6964206164647265737360881b604082015260600190565b602080825260119082015270155b985d5d1a1bdc9a5e99590818d85b1b607a1b604082015260600190565b6020808252600c908201526b155b985d5d1a1bdc9a5e995960a21b604082015260600190565b6020808252600d908201526c092dcecc2d8d2c840d2dcc8caf609b1b604082015260600190565b60208082526010908201526f2737902232b13a102a3930b739b332b960811b604082015260600190565b60208082526010908201526f496e76616c6964206d6174757269747960801b604082015260600190565b60208082526012908201527112511cc81b5d5cdd081899481cdbdc9d195960721b604082015260600190565b602080825260149082015273496e73756666696369656e742042616c616e636560601b604082015260600190565b60208082526013908201527227b7363c903321b0b9b4102a3930b739b332b960691b604082015260600190565b6020808252600c908201526b139bdd081858d8d95c1d195960a21b604082015260600190565b60008085851115612ce0578182fd5b83861115612cec578182fd5b5050820193919092039150565b60005b83811015612d14578181015183820152602001612cfc565b83811115612d23576000848401525b50505050565b6001600160a01b0381168114612d3e57600080fd5b50565b8015158114612d3e57600080fd5b6001600160e01b031981168114612d3e57600080fd5b61ffff81168114612d3e57600080fd5b64ffffffffff81168114612d3e57600080fd5b60ff81168114612d3e57600080fdfea2646970667358221220478dd1bb8e80bb1e2251f60774d94ac262f9e3dcd4e75b0642af3244e533043f64736f6c63430007060033","language":"Solidity","natspec":{"kind":"dev","methods":{"balanceOf(address,uint256)":{"notice":"Returns the balance of an ERC1155 id on an account.","params":{"account":"account to get the id for","id":"the ERC1155 id"},"returns":{"_0":"Balance of the ERC1155 id as an unsigned integer (negative fCash balances return zero)"}},"balanceOfBatch(address[],uint256[])":{"notice":"Returns the balance of a batch of accounts and ids. WARNING: negative fCash balances are represented as zero balances in the array. ","params":{"accounts":"array of accounts to get balances for","ids":"array of ids to get balances for"},"returns":{"_0":"Returns an array of unsigned balances"}},"decodeToAssets(uint256[],uint256[])":{"notice":"Decodes ids and amounts to PortfolioAsset objects","params":{"amounts":"amounts to transfer","ids":"array of ERC1155 ids"},"returns":{"_0":"array of portfolio asset objects"}},"encodeToId(uint16,uint40,uint8)":{"notice":"Encodes parameters into an ERC1155 id, this method always returns an fCash id","params":{"currencyId":"currency id of the asset","maturity":"timestamp of the maturity"},"returns":{"_0":"ERC1155 id"}},"getLibInfo()":{"notice":"Get a list of deployed library addresses (sorted by library name)"},"isApprovedForAll(address,address)":{"notice":"Checks approval state for an account, will first check if global transfer operator is enabled before falling through to an account specific transfer operator.","params":{"account":"address of the account","operator":"address of the operator"},"returns":{"_0":"true for approved"}},"safeBatchTransferFrom(address,address,uint256[],uint256[],bytes)":{"details":"emit:TransferBatch, emit:AccountContextUpdate, emit:AccountSettled","notice":"Transfer of a batch of fCash or liquidity token assets between accounts. Allows `from` account to transfer more fCash than they have as long as they pass a subsequent free collateral check. This enables OTC trading of fCash assets.","params":{"amounts":"amounts to transfer","data":"arbitrary data passed to ERC1155Receiver (if contract) and if properly specified can be used to initiate a trading action on Notional for the `from` address","from":"account to transfer from","ids":"ERC1155 ids of the assets","to":"account to transfer to"}},"safeTransferFrom(address,address,uint256,uint256,bytes)":{"details":"emit:TransferSingle, emit:AccountContextUpdate, emit:AccountSettled","notice":"Transfer of a single fCash or liquidity token asset between accounts. Allows `from` account to transfer more fCash than they have as long as they pass a subsequent free collateral check. This enables OTC trading of fCash assets.","params":{"amount":"amount to transfer","data":"arbitrary data passed to ERC1155Receiver (if contract) and if properly specified can be used to initiate a trading action on Notional for the `from` address","from":"account to transfer from","id":"ERC1155 id of the asset","to":"account to transfer to"}},"setApprovalForAll(address,bool)":{"details":"emit:ApprovalForAll","notice":"Allows an account to set approval for an operator","params":{"approved":"state of the approval","operator":"address of the operator"}},"signedBalanceOf(address,uint256)":{"notice":"Returns the balance of an ERC1155 id on an account.","params":{"account":"account to get the id for","id":"the ERC1155 id"},"returns":{"notional":"balance of the ERC1155 id as a signed integer"}},"signedBalanceOfBatch(address[],uint256[])":{"notice":"Returns the balance of a batch of accounts and ids.","params":{"accounts":"array of accounts to get balances for","ids":"array of ids to get balances for"},"returns":{"_0":"Returns an array of signed balances"}}},"version":1},"opcodes":"PUSH1 0x80 PUSH1 0x40 MSTORE PUSH1 0x4 CALLDATASIZE LT PUSH2 0xE7 JUMPI PUSH1 0x0 CALLDATALOAD PUSH1 0xE0 SHR DUP1 PUSH4 0x735A1DC8 GT PUSH2 0x8A JUMPI DUP1 PUSH4 0xA22CB465 GT PUSH2 0x59 JUMPI DUP1 PUSH4 0xA22CB465 EQ PUSH2 0x26A JUMPI DUP1 PUSH4 0xC4C96DAE EQ PUSH2 0x28A JUMPI DUP1 PUSH4 0xE985E9C5 EQ PUSH2 0x2AD JUMPI DUP1 PUSH4 0xF242432A EQ PUSH2 0x2CD JUMPI PUSH2 0xE7 JUMP JUMPDEST DUP1 PUSH4 0x735A1DC8 EQ PUSH2 0x200 JUMPI DUP1 PUSH4 0x81A86855 EQ PUSH2 0x220 JUMPI DUP1 PUSH4 0x82463367 EQ PUSH2 0x240 JUMPI DUP1 PUSH4 0x8DA5CB5B EQ PUSH2 0x255 JUMPI PUSH2 0xE7 JUMP JUMPDEST DUP1 PUSH4 0x24A3D622 GT PUSH2 0xC6 JUMPI DUP1 PUSH4 0x24A3D622 EQ PUSH2 0x16F JUMPI DUP1 PUSH4 0x2EB2C2D6 EQ PUSH2 0x191 JUMPI DUP1 PUSH4 0x3FA6B808 EQ PUSH2 0x1A6 JUMPI DUP1 PUSH4 0x4E1273F4 EQ PUSH2 0x1D3 JUMPI PUSH2 0xE7 JUMP JUMPDEST DUP1 PUSH3 0xFDD58E EQ PUSH2 0xEC JUMPI DUP1 PUSH4 0x1FFC9A7 EQ PUSH2 0x122 JUMPI DUP1 PUSH4 0xFAC8F09 EQ PUSH2 0x14F JUMPI JUMPDEST PUSH1 0x0 DUP1 REVERT JUMPDEST CALLVALUE DUP1 ISZERO PUSH2 0xF8 JUMPI PUSH1 0x0 DUP1 REVERT JUMPDEST POP PUSH2 0x10C PUSH2 0x107 CALLDATASIZE PUSH1 0x4 PUSH2 0x25D5 JUMP JUMPDEST PUSH2 0x2E0 JUMP JUMPDEST PUSH1 0x40 MLOAD PUSH2 0x119 SWAP2 SWAP1 PUSH2 0x2AF3 JUMP JUMPDEST PUSH1 0x40 MLOAD DUP1 SWAP2 SUB SWAP1 RETURN JUMPDEST CALLVALUE DUP1 ISZERO PUSH2 0x12E JUMPI PUSH1 0x0 DUP1 REVERT JUMPDEST POP PUSH2 0x142 PUSH2 0x13D CALLDATASIZE PUSH1 0x4 PUSH2 0x2681 JUMP JUMPDEST PUSH2 0x312 JUMP JUMPDEST PUSH1 0x40 MLOAD PUSH2 0x119 SWAP2 SWAP1 PUSH2 0x2AE8 JUMP JUMPDEST CALLVALUE DUP1 ISZERO PUSH2 0x15B JUMPI PUSH1 0x0 DUP1 REVERT JUMPDEST POP PUSH2 0x10C PUSH2 0x16A CALLDATASIZE PUSH1 0x4 PUSH2 0x25D5 JUMP JUMPDEST PUSH2 0x32C JUMP JUMPDEST CALLVALUE DUP1 ISZERO PUSH2 0x17B JUMPI PUSH1 0x0 DUP1 REVERT JUMPDEST POP PUSH2 0x184 PUSH2 0x487 JUMP JUMPDEST PUSH1 0x40 MLOAD PUSH2 0x119 SWAP2 SWAP1 PUSH2 0x28F1 JUMP JUMPDEST PUSH2 0x1A4 PUSH2 0x19F CALLDATASIZE PUSH1 0x4 PUSH2 0x2473 JUMP JUMPDEST PUSH2 0x496 JUMP JUMPDEST STOP JUMPDEST CALLVALUE DUP1 ISZERO PUSH2 0x1B2 JUMPI PUSH1 0x0 DUP1 REVERT JUMPDEST POP PUSH2 0x1C6 PUSH2 0x1C1 CALLDATASIZE PUSH1 0x4 PUSH2 0x2600 JUMP JUMPDEST PUSH2 0x6B4 JUMP JUMPDEST PUSH1 0x40 MLOAD PUSH2 0x119 SWAP2 SWAP1 PUSH2 0x2AA6 JUMP JUMPDEST CALLVALUE DUP1 ISZERO PUSH2 0x1DF JUMPI PUSH1 0x0 DUP1 REVERT JUMPDEST POP PUSH2 0x1F3 PUSH2 0x1EE CALLDATASIZE PUSH1 0x4 PUSH2 0x2600 JUMP JUMPDEST PUSH2 0x6D1 JUMP JUMPDEST PUSH1 0x40 MLOAD PUSH2 0x119 SWAP2 SWAP1 PUSH2 0x2A62 JUMP JUMPDEST CALLVALUE DUP1 ISZERO PUSH2 0x20C JUMPI PUSH1 0x0 DUP1 REVERT JUMPDEST POP PUSH2 0x10C PUSH2 0x21B CALLDATASIZE PUSH1 0x4 PUSH2 0x2794 JUMP JUMPDEST PUSH2 0x795 JUMP JUMPDEST CALLVALUE DUP1 ISZERO PUSH2 0x22C JUMPI PUSH1 0x0 DUP1 REVERT JUMPDEST POP PUSH2 0x1F3 PUSH2 0x23B CALLDATASIZE PUSH1 0x4 PUSH2 0x2600 JUMP JUMPDEST PUSH2 0x7B4 JUMP JUMPDEST CALLVALUE DUP1 ISZERO PUSH2 0x24C JUMPI PUSH1 0x0 DUP1 REVERT JUMPDEST POP PUSH2 0x184 PUSH2 0x862 JUMP JUMPDEST CALLVALUE DUP1 ISZERO PUSH2 0x261 JUMPI PUSH1 0x0 DUP1 REVERT JUMPDEST POP PUSH2 0x184 PUSH2 0x871 JUMP JUMPDEST CALLVALUE DUP1 ISZERO PUSH2 0x276 JUMPI PUSH1 0x0 DUP1 REVERT JUMPDEST POP PUSH2 0x1A4 PUSH2 0x285 CALLDATASIZE PUSH1 0x4 PUSH2 0x25A8 JUMP JUMPDEST PUSH2 0x888 JUMP JUMPDEST CALLVALUE DUP1 ISZERO PUSH2 0x296 JUMPI PUSH1 0x0 DUP1 REVERT JUMPDEST POP PUSH2 0x29F PUSH2 0x8F7 JUMP JUMPDEST PUSH1 0x40 MLOAD PUSH2 0x119 SWAP3 SWAP2 SWAP1 PUSH2 0x29A4 JUMP JUMPDEST CALLVALUE DUP1 ISZERO PUSH2 0x2B9 JUMPI PUSH1 0x0 DUP1 REVERT JUMPDEST POP PUSH2 0x142 PUSH2 0x2C8 CALLDATASIZE PUSH1 0x4 PUSH2 0x243B JUMP JUMPDEST PUSH2 0x925 JUMP JUMPDEST PUSH2 0x1A4 PUSH2 0x2DB CALLDATASIZE PUSH1 0x4 PUSH2 0x252E JUMP JUMPDEST PUSH2 0x97D JUMP JUMPDEST PUSH1 0x0 DUP1 PUSH2 0x2ED DUP5 DUP5 PUSH2 0x32C JUMP JUMPDEST SWAP1 POP PUSH1 0x0 DUP2 SLT PUSH2 0x305 JUMPI PUSH2 0x300 DUP2 PUSH2 0xB3D JUMP JUMPDEST PUSH2 0x308 JUMP JUMPDEST PUSH1 0x0 JUMPDEST SWAP2 POP POP JUMPDEST SWAP3 SWAP2 POP POP JUMP JUMPDEST PUSH1 0x1 PUSH1 0x1 PUSH1 0xE0 SHL SUB NOT DUP2 AND PUSH4 0x6CDB3D13 PUSH1 0xE1 SHL EQ JUMPDEST SWAP2 SWAP1 POP JUMP JUMPDEST PUSH1 0x0 DUP3 PUSH1 0x1 PUSH1 0x1 PUSH1 0xA0 SHL SUB AND PUSH2 0x34D PUSH2 0x344 DUP5 PUSH2 0xB50 JUMP JUMPDEST PUSH2 0xFFFF AND PUSH2 0xB56 JUMP JUMPDEST PUSH1 0x1 PUSH1 0x1 PUSH1 0xA0 SHL SUB AND EQ ISZERO PUSH2 0x36D JUMPI PUSH2 0x366 DUP4 DUP4 PUSH2 0xB7C JUMP JUMPDEST SWAP1 POP PUSH2 0x30C JUMP JUMPDEST PUSH2 0x376 DUP3 PUSH2 0xC93 JUMP JUMPDEST ISZERO PUSH2 0x412 JUMPI PUSH1 0x0 DUP1 PUSH1 0x0 PUSH2 0x389 DUP6 PUSH2 0xC9F JUMP JUMPDEST SWAP3 POP SWAP3 POP SWAP3 POP PUSH1 0x0 PUSH2 0x39A DUP8 PUSH2 0xCE3 JUMP JUMPDEST SWAP1 POP PUSH2 0x3A5 DUP2 PUSH2 0xD93 JUMP JUMPDEST ISZERO PUSH2 0x3C5 JUMPI PUSH2 0x3BE DUP8 DUP3 PUSH1 0x60 ADD MLOAD PUSH2 0xFFFF AND DUP7 DUP7 PUSH2 0xDA0 JUMP JUMPDEST SWAP5 POP PUSH2 0x3E0 JUMP JUMPDEST PUSH2 0x3DD PUSH2 0x3D6 DUP9 DUP4 PUSH1 0x40 ADD MLOAD PUSH2 0xDDA JUMP JUMPDEST DUP6 DUP6 PUSH2 0xDEE JUMP JUMPDEST SWAP5 POP JUMPDEST DUP2 ISZERO PUSH2 0x409 JUMPI PUSH1 0x0 DUP6 SLT PUSH2 0x3F5 JUMPI PUSH1 0x0 PUSH2 0x3FE JUMP JUMPDEST PUSH2 0x3FE DUP6 PUSH2 0xE67 JUMP JUMPDEST SWAP5 POP POP POP POP POP PUSH2 0x30C JUMP JUMPDEST POP POP POP POP PUSH2 0x30C JUMP JUMPDEST PUSH1 0x40 MLOAD PUSH4 0x4A7A341 PUSH1 0xE4 SHL DUP2 MSTORE ADDRESS SWAP1 PUSH4 0x4A7A3410 SWAP1 PUSH2 0x437 SWAP1 DUP7 SWAP1 DUP7 SWAP1 PUSH1 0x4 ADD PUSH2 0x2A49 JUMP JUMPDEST PUSH1 0x20 PUSH1 0x40 MLOAD DUP1 DUP4 SUB DUP2 DUP7 DUP1 EXTCODESIZE ISZERO DUP1 ISZERO PUSH2 0x44F JUMPI PUSH1 0x0 DUP1 REVERT JUMPDEST POP GAS STATICCALL ISZERO DUP1 ISZERO PUSH2 0x463 JUMPI RETURNDATASIZE PUSH1 0x0 DUP1 RETURNDATACOPY RETURNDATASIZE PUSH1 0x0 REVERT JUMPDEST POP POP POP POP PUSH1 0x40 MLOAD RETURNDATASIZE PUSH1 0x1F NOT PUSH1 0x1F DUP3 ADD AND DUP3 ADD DUP1 PUSH1 0x40 MSTORE POP DUP2 ADD SWAP1 PUSH2 0x366 SWAP2 SWAP1 PUSH2 0x26B9 JUMP JUMPDEST PUSH1 0x2 SLOAD PUSH1 0x1 PUSH1 0x1 PUSH1 0xA0 SHL SUB AND DUP2 JUMP JUMPDEST PUSH2 0x4A0 DUP9 DUP9 PUSH2 0xE75 JUMP JUMPDEST PUSH1 0x0 JUMPDEST DUP6 DUP2 LT ISZERO PUSH2 0x559 JUMPI PUSH1 0x0 DUP6 DUP6 DUP4 DUP2 DUP2 LT PUSH2 0x4B9 JUMPI INVALID JUMPDEST SWAP1 POP PUSH1 0x20 MUL ADD CALLDATALOAD SWAP1 POP PUSH1 0x0 DUP1 DUP3 SGT PUSH2 0x4EC JUMPI PUSH2 0x4E7 DUP11 DUP11 DUP11 DUP7 DUP2 DUP2 LT PUSH2 0x4DB JUMPI INVALID JUMPDEST SWAP1 POP PUSH1 0x20 MUL ADD CALLDATALOAD PUSH2 0x32C JUMP JUMPDEST PUSH2 0x4FC JUMP JUMPDEST PUSH2 0x4FC DUP12 DUP11 DUP11 DUP7 DUP2 DUP2 LT PUSH2 0x4DB JUMPI INVALID JUMPDEST SWAP1 POP PUSH1 0x0 DUP2 SGT PUSH2 0x527 JUMPI PUSH1 0x40 MLOAD PUSH3 0x461BCD PUSH1 0xE5 SHL DUP2 MSTORE PUSH1 0x4 ADD PUSH2 0x51E SWAP1 PUSH2 0x2C50 JUMP JUMPDEST PUSH1 0x40 MLOAD DUP1 SWAP2 SUB SWAP1 REVERT JUMPDEST PUSH2 0x530 DUP3 PUSH2 0xF15 JUMP JUMPDEST DUP2 SLT ISZERO PUSH2 0x54F JUMPI PUSH1 0x40 MLOAD PUSH3 0x461BCD PUSH1 0xE5 SHL DUP2 MSTORE PUSH1 0x4 ADD PUSH2 0x51E SWAP1 PUSH2 0x2C50 JUMP JUMPDEST POP POP PUSH1 0x1 ADD PUSH2 0x4A3 JUMP JUMPDEST POP PUSH1 0x0 DUP1 PUSH2 0x569 DUP9 DUP9 DUP9 DUP9 PUSH2 0xF36 JUMP JUMPDEST SWAP2 POP SWAP2 POP DUP1 ISZERO PUSH2 0x599 JUMPI PUSH2 0x57D DUP10 CALLER PUSH2 0x925 JUMP JUMPDEST PUSH2 0x599 JUMPI PUSH1 0x40 MLOAD PUSH3 0x461BCD PUSH1 0xE5 SHL DUP2 MSTORE PUSH1 0x4 ADD PUSH2 0x51E SWAP1 PUSH2 0x2B83 JUMP JUMPDEST PUSH1 0x0 DUP1 PUSH2 0x5A7 DUP13 DUP13 DUP7 PUSH2 0x1092 JUMP JUMPDEST SWAP2 POP SWAP2 POP PUSH2 0x5BA DUP13 DUP13 DUP5 DUP5 DUP11 DUP11 DUP10 PUSH2 0x1172 JUMP JUMPDEST PUSH2 0x5C3 DUP12 PUSH2 0x1450 JUMP JUMPDEST ISZERO PUSH2 0x6A6 JUMPI PUSH32 0xBC197C819B3E337A6F9652DD10BECD7EEF83032AF3B9D958D3D42F6694146621 PUSH1 0x1 PUSH1 0x1 PUSH1 0xE0 SHL SUB NOT AND DUP12 PUSH1 0x1 PUSH1 0x1 PUSH1 0xA0 SHL SUB AND PUSH4 0xBC197C81 CALLER DUP16 DUP15 DUP15 DUP15 DUP15 DUP15 DUP15 PUSH1 0x40 MLOAD DUP10 PUSH4 0xFFFFFFFF AND PUSH1 0xE0 SHL DUP2 MSTORE PUSH1 0x4 ADD PUSH2 0x62D SWAP9 SWAP8 SWAP7 SWAP6 SWAP5 SWAP4 SWAP3 SWAP2 SWAP1 PUSH2 0x2905 JUMP JUMPDEST PUSH1 0x20 PUSH1 0x40 MLOAD DUP1 DUP4 SUB DUP2 PUSH1 0x0 DUP8 DUP1 EXTCODESIZE ISZERO DUP1 ISZERO PUSH2 0x647 JUMPI PUSH1 0x0 DUP1 REVERT JUMPDEST POP GAS CALL ISZERO DUP1 ISZERO PUSH2 0x65B JUMPI RETURNDATASIZE PUSH1 0x0 DUP1 RETURNDATACOPY RETURNDATASIZE PUSH1 0x0 REVERT JUMPDEST POP POP POP POP PUSH1 0x40 MLOAD RETURNDATASIZE PUSH1 0x1F NOT PUSH1 0x1F DUP3 ADD AND DUP3 ADD DUP1 PUSH1 0x40 MSTORE POP DUP2 ADD SWAP1 PUSH2 0x67F SWAP2 SWAP1 PUSH2 0x269D JUMP JUMPDEST PUSH1 0x1 PUSH1 0x1 PUSH1 0xE0 SHL SUB NOT AND EQ PUSH2 0x6A6 JUMPI PUSH1 0x40 MLOAD PUSH3 0x461BCD PUSH1 0xE5 SHL DUP2 MSTORE PUSH1 0x4 ADD PUSH2 0x51E SWAP1 PUSH2 0x2CAB JUMP JUMPDEST POP POP POP POP POP POP POP POP POP POP POP POP JUMP JUMPDEST PUSH1 0x60 PUSH1 0x0 PUSH2 0x6C4 DUP7 DUP7 DUP7 DUP7 PUSH2 0xF36 JUMP JUMPDEST POP SWAP2 POP POP JUMPDEST SWAP5 SWAP4 POP POP POP POP JUMP JUMPDEST PUSH1 0x60 DUP4 DUP3 EQ PUSH2 0x6DF JUMPI PUSH1 0x0 DUP1 REVERT JUMPDEST PUSH1 0x0 DUP5 PUSH8 0xFFFFFFFFFFFFFFFF DUP2 GT DUP1 ISZERO PUSH2 0x6F8 JUMPI PUSH1 0x0 DUP1 REVERT JUMPDEST POP PUSH1 0x40 MLOAD SWAP1 DUP1 DUP3 MSTORE DUP1 PUSH1 0x20 MUL PUSH1 0x20 ADD DUP3 ADD PUSH1 0x40 MSTORE DUP1 ISZERO PUSH2 0x722 JUMPI DUP2 PUSH1 0x20 ADD PUSH1 0x20 DUP3 MUL DUP1 CALLDATASIZE DUP4 CALLDATACOPY ADD SWAP1 POP JUMPDEST POP SWAP1 POP PUSH1 0x0 JUMPDEST DUP6 DUP2 LT ISZERO PUSH2 0x78B JUMPI PUSH2 0x76C DUP8 DUP8 DUP4 DUP2 DUP2 LT PUSH2 0x73F JUMPI INVALID JUMPDEST SWAP1 POP PUSH1 0x20 MUL ADD PUSH1 0x20 DUP2 ADD SWAP1 PUSH2 0x754 SWAP2 SWAP1 PUSH2 0x241F JUMP JUMPDEST DUP7 DUP7 DUP5 DUP2 DUP2 LT PUSH2 0x760 JUMPI INVALID JUMPDEST SWAP1 POP PUSH1 0x20 MUL ADD CALLDATALOAD PUSH2 0x2E0 JUMP JUMPDEST DUP3 DUP3 DUP2 MLOAD DUP2 LT PUSH2 0x778 JUMPI INVALID JUMPDEST PUSH1 0x20 SWAP1 DUP2 MUL SWAP2 SWAP1 SWAP2 ADD ADD MSTORE PUSH1 0x1 ADD PUSH2 0x728 JUMP JUMPDEST POP SWAP6 SWAP5 POP POP POP POP POP JUMP JUMPDEST PUSH1 0x0 PUSH2 0x7AA DUP5 DUP5 PUSH5 0xFFFFFFFFFF AND PUSH1 0x0 PUSH2 0x1456 JUMP JUMPDEST SWAP1 POP JUMPDEST SWAP4 SWAP3 POP POP POP JUMP JUMPDEST PUSH1 0x60 DUP4 DUP3 EQ PUSH2 0x7C2 JUMPI PUSH1 0x0 DUP1 REVERT JUMPDEST PUSH1 0x0 DUP5 PUSH8 0xFFFFFFFFFFFFFFFF DUP2 GT DUP1 ISZERO PUSH2 0x7DB JUMPI PUSH1 0x0 DUP1 REVERT JUMPDEST POP PUSH1 0x40 MLOAD SWAP1 DUP1 DUP3 MSTORE DUP1 PUSH1 0x20 MUL PUSH1 0x20 ADD DUP3 ADD PUSH1 0x40 MSTORE DUP1 ISZERO PUSH2 0x805 JUMPI DUP2 PUSH1 0x20 ADD PUSH1 0x20 DUP3 MUL DUP1 CALLDATASIZE DUP4 CALLDATACOPY ADD SWAP1 POP JUMPDEST POP SWAP1 POP PUSH1 0x0 JUMPDEST DUP6 DUP2 LT ISZERO PUSH2 0x78B JUMPI PUSH2 0x843 DUP8 DUP8 DUP4 DUP2 DUP2 LT PUSH2 0x822 JUMPI INVALID JUMPDEST SWAP1 POP PUSH1 0x20 MUL ADD PUSH1 0x20 DUP2 ADD SWAP1 PUSH2 0x837 SWAP2 SWAP1 PUSH2 0x241F JUMP JUMPDEST DUP7 DUP7 DUP5 DUP2 DUP2 LT PUSH2 0x4DB JUMPI INVALID JUMPDEST DUP3 DUP3 DUP2 MLOAD DUP2 LT PUSH2 0x84F JUMPI INVALID JUMPDEST PUSH1 0x20 SWAP1 DUP2 MUL SWAP2 SWAP1 SWAP2 ADD ADD MSTORE PUSH1 0x1 ADD PUSH2 0x80B JUMP JUMPDEST PUSH1 0x1 SLOAD PUSH1 0x1 PUSH1 0x1 PUSH1 0xA0 SHL SUB AND DUP2 JUMP JUMPDEST PUSH1 0x0 SLOAD PUSH5 0x100000000 SWAP1 DIV PUSH1 0x1 PUSH1 0x1 PUSH1 0xA0 SHL SUB AND DUP2 JUMP JUMPDEST CALLER PUSH1 0x0 DUP2 DUP2 MSTORE PUSH1 0x7 PUSH1 0x20 SWAP1 DUP2 MSTORE PUSH1 0x40 DUP1 DUP4 KECCAK256 PUSH1 0x1 PUSH1 0x1 PUSH1 0xA0 SHL SUB DUP8 AND DUP1 DUP6 MSTORE SWAP3 MSTORE SWAP2 DUP3 SWAP1 KECCAK256 DUP1 SLOAD PUSH1 0xFF NOT AND DUP6 ISZERO ISZERO OR SWAP1 SSTORE SWAP1 MLOAD SWAP1 SWAP2 SWAP1 PUSH32 0x17307EAB39AB6107E8899845AD3D59BD9653F200F220920489CA2B5937696C31 SWAP1 PUSH2 0x8EB SWAP1 DUP6 SWAP1 PUSH2 0x2AE8 JUMP JUMPDEST PUSH1 0x40 MLOAD DUP1 SWAP2 SUB SWAP1 LOG3 POP POP JUMP JUMPDEST PUSH20 0x0 PUSH20 0x0 SWAP1 SWAP2 JUMP JUMPDEST PUSH1 0x1 PUSH1 0x1 PUSH1 0xA0 SHL SUB DUP2 AND PUSH1 0x0 SWAP1 DUP2 MSTORE PUSH1 0x6 PUSH1 0x20 MSTORE PUSH1 0x40 DUP2 KECCAK256 SLOAD PUSH1 0xFF AND ISZERO PUSH2 0x94E JUMPI POP PUSH1 0x1 PUSH2 0x30C JUMP JUMPDEST POP PUSH1 0x1 PUSH1 0x1 PUSH1 0xA0 SHL SUB SWAP2 DUP3 AND PUSH1 0x0 SWAP1 DUP2 MSTORE PUSH1 0x7 PUSH1 0x20 SWAP1 DUP2 MSTORE PUSH1 0x40 DUP1 DUP4 KECCAK256 SWAP4 SWAP1 SWAP5 AND DUP3 MSTORE SWAP2 SWAP1 SWAP2 MSTORE KECCAK256 SLOAD PUSH1 0xFF AND SWAP1 JUMP JUMPDEST PUSH2 0x987 DUP7 DUP7 PUSH2 0xE75 JUMP JUMPDEST PUSH2 0x98F PUSH2 0x21F5 JUMP JUMPDEST DUP4 ISZERO PUSH2 0xA50 JUMPI PUSH1 0x40 DUP1 MLOAD PUSH1 0x1 DUP1 DUP3 MSTORE DUP2 DUP4 ADD SWAP1 SWAP3 MSTORE PUSH1 0x0 SWAP2 DUP2 PUSH1 0x20 ADD JUMPDEST PUSH2 0x9B4 PUSH2 0x222A JUMP JUMPDEST DUP2 MSTORE PUSH1 0x20 ADD SWAP1 PUSH1 0x1 SWAP1 SUB SWAP1 DUP2 PUSH2 0x9AC JUMPI SWAP1 POP POP SWAP1 POP PUSH1 0x0 DUP2 PUSH1 0x0 DUP2 MLOAD DUP2 LT PUSH2 0x9D8 JUMPI INVALID JUMPDEST PUSH1 0x20 MUL PUSH1 0x20 ADD ADD MLOAD SWAP1 POP PUSH2 0x9EC DUP8 DUP3 PUSH2 0x149F JUMP JUMPDEST PUSH2 0x9F5 DUP7 PUSH2 0x150B JUMP JUMPDEST PUSH1 0x60 DUP3 ADD MSTORE DUP6 PUSH2 0xA05 DUP11 DUP10 PUSH2 0x32C JUMP JUMPDEST SLT ISZERO PUSH2 0xA23 JUMPI PUSH1 0x40 MLOAD PUSH3 0x461BCD PUSH1 0xE5 SHL DUP2 MSTORE PUSH1 0x4 ADD PUSH2 0x51E SWAP1 PUSH2 0x2C50 JUMP JUMPDEST PUSH2 0xA3A DUP2 PUSH1 0x0 ADD MLOAD PUSH2 0xFFFF AND DUP3 PUSH1 0x20 ADD MLOAD TIMESTAMP PUSH2 0x1521 JUMP JUMPDEST PUSH2 0xA45 DUP10 DUP10 DUP5 PUSH2 0x1092 JUMP JUMPDEST POP SWAP3 POP PUSH2 0xA5C SWAP2 POP POP JUMP JUMPDEST PUSH2 0xA59 DUP8 PUSH2 0xCE3 JUMP JUMPDEST SWAP1 POP JUMPDEST PUSH2 0xA64 PUSH2 0x21F5 JUMP JUMPDEST PUSH2 0xA74 DUP9 DUP9 DUP5 DUP5 DUP9 DUP9 PUSH1 0x0 PUSH2 0x1172 JUMP JUMPDEST PUSH2 0xA7D DUP8 PUSH2 0x1450 JUMP JUMPDEST ISZERO PUSH2 0xB33 JUMPI PUSH1 0x40 MLOAD PUSH4 0xF23A6E61 PUSH1 0xE0 SHL DUP1 DUP3 MSTORE SWAP1 PUSH1 0x1 PUSH1 0x1 PUSH1 0xA0 SHL SUB DUP10 AND SWAP1 PUSH4 0xF23A6E61 SWAP1 PUSH2 0xABA SWAP1 CALLER SWAP1 DUP14 SWAP1 DUP13 SWAP1 DUP13 SWAP1 DUP13 SWAP1 DUP13 SWAP1 PUSH1 0x4 ADD PUSH2 0x2969 JUMP JUMPDEST PUSH1 0x20 PUSH1 0x40 MLOAD DUP1 DUP4 SUB DUP2 PUSH1 0x0 DUP8 DUP1 EXTCODESIZE ISZERO DUP1 ISZERO PUSH2 0xAD4 JUMPI PUSH1 0x0 DUP1 REVERT JUMPDEST POP GAS CALL ISZERO DUP1 ISZERO PUSH2 0xAE8 JUMPI RETURNDATASIZE PUSH1 0x0 DUP1 RETURNDATACOPY RETURNDATASIZE PUSH1 0x0 REVERT JUMPDEST POP POP POP POP PUSH1 0x40 MLOAD RETURNDATASIZE PUSH1 0x1F NOT PUSH1 0x1F DUP3 ADD AND DUP3 ADD DUP1 PUSH1 0x40 MSTORE POP DUP2 ADD SWAP1 PUSH2 0xB0C SWAP2 SWAP1 PUSH2 0x269D JUMP JUMPDEST PUSH1 0x1 PUSH1 0x1 PUSH1 0xE0 SHL SUB NOT AND EQ PUSH2 0xB33 JUMPI PUSH1 0x40 MLOAD PUSH3 0x461BCD PUSH1 0xE5 SHL DUP2 MSTORE PUSH1 0x4 ADD PUSH2 0x51E SWAP1 PUSH2 0x2CAB JUMP JUMPDEST POP POP POP POP POP POP POP POP JUMP JUMPDEST PUSH1 0x0 DUP1 DUP3 SLT ISZERO PUSH2 0xB4C JUMPI PUSH1 0x0 DUP1 REVERT JUMPDEST POP SWAP1 JUMP JUMPDEST PUSH1 0x30 SHR SWAP1 JUMP JUMPDEST PUSH1 0x0 DUP1 PUSH2 0xB61 PUSH2 0x1558 JUMP JUMPDEST PUSH1 0x0 SWAP4 DUP5 MSTORE PUSH1 0x20 MSTORE POP POP PUSH1 0x40 SWAP1 KECCAK256 SLOAD PUSH1 0x1 PUSH1 0x1 PUSH1 0xA0 SHL SUB AND SWAP1 JUMP JUMPDEST PUSH1 0x0 DUP1 PUSH1 0x0 DUP1 PUSH2 0xB8B DUP6 PUSH2 0xC9F JUMP JUMPDEST SWAP3 POP SWAP3 POP SWAP3 POP PUSH1 0x0 DUP1 PUSH2 0xBA0 PUSH1 0x7 DUP6 TIMESTAMP PUSH2 0x1565 JUMP JUMPDEST SWAP2 POP SWAP2 POP DUP1 DUP1 PUSH2 0xBAD JUMPI POP DUP3 JUMPDEST ISZERO PUSH2 0xBF3 JUMPI PUSH2 0xBC2 DUP9 DUP7 PUSH2 0xFFFF AND DUP8 DUP8 PUSH2 0xDA0 JUMP JUMPDEST SWAP6 POP DUP3 ISZERO PUSH2 0xBEE JUMPI PUSH1 0x0 DUP7 SLT PUSH2 0xBD9 JUMPI PUSH1 0x0 PUSH2 0xBE2 JUMP JUMPDEST PUSH2 0xBE2 DUP7 PUSH2 0xE67 JUMP JUMPDEST SWAP6 POP POP POP POP POP POP PUSH2 0x30C JUMP JUMPDEST PUSH2 0xC88 JUMP JUMPDEST PUSH1 0x0 PUSH2 0xBFE DUP10 PUSH2 0x15EC JUMP JUMPDEST POP SWAP4 POP POP POP POP DUP1 PUSH1 0xFF AND DUP4 GT ISZERO PUSH2 0xC1E JUMPI PUSH1 0x0 SWAP7 POP POP POP POP POP POP POP PUSH2 0x30C JUMP JUMPDEST PUSH1 0x0 PUSH2 0xC2A DUP11 DUP4 PUSH2 0xDDA JUMP JUMPDEST SWAP1 POP PUSH2 0xC34 PUSH2 0x226E JUMP JUMPDEST PUSH2 0xC47 DUP2 DUP10 PUSH2 0xFFFF AND DUP10 TIMESTAMP PUSH1 0x1 DUP1 PUSH2 0x1655 JUMP JUMPDEST PUSH1 0x80 DUP2 ADD MLOAD PUSH2 0xC61 JUMPI PUSH1 0x0 SWAP9 POP POP POP POP POP POP POP POP POP PUSH2 0x30C JUMP JUMPDEST PUSH2 0xC81 DUP3 PUSH1 0x1 DUP8 SUB DUP2 MLOAD DUP2 LT PUSH2 0xC73 JUMPI INVALID JUMPDEST PUSH1 0x20 MUL PUSH1 0x20 ADD ADD MLOAD DUP3 PUSH2 0x167F JUMP JUMPDEST SWAP10 POP POP POP POP POP JUMPDEST POP POP POP POP POP SWAP3 SWAP2 POP POP JUMP JUMPDEST PUSH1 0xFF DUP2 AND PUSH1 0x1 EQ SWAP2 SWAP1 POP JUMP JUMPDEST PUSH1 0x0 DUP1 DUP1 PUSH1 0xFF DUP5 AND PUSH1 0x1 EQ PUSH2 0xCBC JUMPI POP PUSH1 0x0 SWAP2 POP DUP2 SWAP1 POP DUP1 PUSH2 0xCDC JUMP JUMPDEST POP POP POP PUSH1 0x30 DUP2 SWAP1 SHR PUSH5 0xFFFFFFFFFF PUSH1 0x8 DUP4 SWAP1 SHR AND PUSH1 0x1 PUSH1 0xFF PUSH1 0x40 DUP6 SWAP1 SHR AND EQ JUMPDEST SWAP2 SWAP4 SWAP1 SWAP3 POP JUMP JUMPDEST PUSH2 0xCEB PUSH2 0x21F5 JUMP JUMPDEST PUSH1 0x0 PUSH2 0xCF5 PUSH2 0x1700 JUMP JUMPDEST PUSH1 0x1 PUSH1 0x1 PUSH1 0xA0 SHL SUB DUP5 AND PUSH1 0x0 SWAP1 DUP2 MSTORE PUSH1 0x20 SWAP2 DUP3 MSTORE PUSH1 0x40 SWAP1 DUP2 SWAP1 KECCAK256 DUP2 MLOAD PUSH1 0xC0 DUP2 ADD DUP4 MSTORE SWAP1 SLOAD PUSH5 0xFFFFFFFFFF DUP2 AND DUP3 MSTORE PUSH1 0x1 PUSH1 0x1 PUSH1 0xF8 SHL SUB NOT PUSH6 0x10000000000 DUP3 DIV PUSH1 0xF8 SHL AND SWAP4 DUP3 ADD SWAP4 SWAP1 SWAP4 MSTORE PUSH1 0xFF PUSH1 0x1 PUSH1 0x30 SHL DUP5 DIV DUP2 AND SWAP3 DUP3 ADD SWAP3 SWAP1 SWAP3 MSTORE PUSH2 0xFFFF PUSH1 0x1 PUSH1 0x38 SHL DUP5 DIV AND PUSH1 0x60 DUP3 ADD MSTORE PUSH1 0x1 PUSH1 0x1 PUSH1 0x70 SHL SUB NOT PUSH1 0x1 PUSH1 0x48 SHL DUP5 DIV PUSH1 0x70 SHL AND PUSH1 0x80 DUP3 ADD MSTORE PUSH1 0x1 PUSH1 0xD8 SHL SWAP1 SWAP3 DIV AND ISZERO ISZERO PUSH1 0xA0 DUP3 ADD MSTORE SWAP2 POP POP SWAP2 SWAP1 POP JUMP JUMPDEST PUSH1 0x60 ADD MLOAD PUSH2 0xFFFF AND ISZERO ISZERO SWAP1 JUMP JUMPDEST PUSH1 0x0 PUSH2 0xFFFF DUP4 AND ISZERO DUP1 PUSH2 0xDB7 JUMPI POP DUP4 DUP4 PUSH2 0xFFFF AND EQ ISZERO JUMPDEST ISZERO PUSH2 0xDC4 JUMPI POP PUSH1 0x0 PUSH2 0x6C9 JUMP JUMPDEST PUSH2 0xDD3 DUP6 DUP5 PUSH2 0xFFFF AND DUP5 PUSH2 0x170D JUMP JUMPDEST SWAP1 POP PUSH2 0x6C9 JUMP JUMPDEST PUSH1 0x60 PUSH2 0xDE6 DUP4 DUP4 PUSH2 0x1752 JUMP JUMPDEST POP SWAP4 SWAP3 POP POP POP JUMP JUMPDEST PUSH1 0x0 DUP1 JUMPDEST DUP5 MLOAD DUP2 LT ISZERO PUSH2 0xE5C JUMPI PUSH1 0x0 DUP6 DUP3 DUP2 MLOAD DUP2 LT PUSH2 0xE09 JUMPI INVALID JUMPDEST PUSH1 0x20 MUL PUSH1 0x20 ADD ADD MLOAD SWAP1 POP DUP5 PUSH2 0xFFFF AND DUP2 PUSH1 0x0 ADD MLOAD PUSH2 0xFFFF AND EQ DUP1 ISZERO PUSH2 0xE31 JUMPI POP DUP4 DUP2 PUSH1 0x20 ADD MLOAD EQ JUMPDEST DUP1 ISZERO PUSH2 0xE41 JUMPI POP PUSH1 0x40 DUP2 ADD MLOAD PUSH1 0x1 EQ JUMPDEST ISZERO PUSH2 0xE53 JUMPI PUSH1 0x60 ADD MLOAD SWAP2 POP PUSH2 0x7AD SWAP1 POP JUMP JUMPDEST POP PUSH1 0x1 ADD PUSH2 0xDF2 JUMP JUMPDEST POP PUSH1 0x0 SWAP5 SWAP4 POP POP POP POP JUMP JUMPDEST PUSH1 0x0 PUSH2 0x30C PUSH1 0x0 NOT DUP4 PUSH2 0x176A JUMP JUMPDEST DUP1 PUSH1 0x1 PUSH1 0x1 PUSH1 0xA0 SHL SUB AND DUP3 PUSH1 0x1 PUSH1 0x1 PUSH1 0xA0 SHL SUB AND EQ ISZERO DUP1 ISZERO PUSH2 0xE9F JUMPI POP PUSH1 0x1 PUSH1 0x1 PUSH1 0xA0 SHL SUB DUP2 AND ISZERO ISZERO JUMPDEST DUP1 ISZERO PUSH2 0xEB4 JUMPI POP PUSH1 0x1 PUSH1 0x1 PUSH1 0xA0 SHL SUB DUP2 AND ADDRESS EQ ISZERO JUMPDEST PUSH2 0xED0 JUMPI PUSH1 0x40 MLOAD PUSH3 0x461BCD PUSH1 0xE5 SHL DUP2 MSTORE PUSH1 0x4 ADD PUSH2 0x51E SWAP1 PUSH2 0x2B2F JUMP JUMPDEST CALLER PUSH1 0x1 PUSH1 0x1 PUSH1 0xA0 SHL SUB DUP4 AND EQ DUP1 PUSH2 0xEEC JUMPI POP PUSH2 0xEEC DUP3 CALLER PUSH2 0x925 JUMP JUMPDEST PUSH2 0xF08 JUMPI PUSH1 0x40 MLOAD PUSH3 0x461BCD PUSH1 0xE5 SHL DUP2 MSTORE PUSH1 0x4 ADD PUSH2 0x51E SWAP1 PUSH2 0x2B83 JUMP JUMPDEST PUSH2 0xF11 DUP3 PUSH2 0x17B8 JUMP JUMPDEST POP POP JUMP JUMPDEST PUSH1 0x0 DUP1 DUP3 SLT ISZERO PUSH2 0xF2F JUMPI PUSH2 0xF28 DUP3 PUSH2 0xE67 JUMP JUMPDEST SWAP1 POP PUSH2 0x327 JUMP JUMPDEST POP DUP1 PUSH2 0x327 JUMP JUMPDEST PUSH1 0x60 PUSH1 0x0 DUP5 DUP4 EQ PUSH2 0xF46 JUMPI PUSH1 0x0 DUP1 REVERT JUMPDEST PUSH1 0x0 DUP1 DUP7 PUSH8 0xFFFFFFFFFFFFFFFF DUP2 GT DUP1 ISZERO PUSH2 0xF60 JUMPI PUSH1 0x0 DUP1 REVERT JUMPDEST POP PUSH1 0x40 MLOAD SWAP1 DUP1 DUP3 MSTORE DUP1 PUSH1 0x20 MUL PUSH1 0x20 ADD DUP3 ADD PUSH1 0x40 MSTORE DUP1 ISZERO PUSH2 0xF9A JUMPI DUP2 PUSH1 0x20 ADD JUMPDEST PUSH2 0xF87 PUSH2 0x222A JUMP JUMPDEST DUP2 MSTORE PUSH1 0x20 ADD SWAP1 PUSH1 0x1 SWAP1 SUB SWAP1 DUP2 PUSH2 0xF7F JUMPI SWAP1 POP JUMPDEST POP SWAP1 POP PUSH1 0x0 JUMPDEST DUP8 DUP2 LT ISZERO PUSH2 0x1085 JUMPI DUP1 ISZERO PUSH2 0xFF4 JUMPI DUP9 DUP9 PUSH1 0x1 DUP4 SUB DUP2 DUP2 LT PUSH2 0xFBD JUMPI INVALID JUMPDEST SWAP1 POP PUSH1 0x20 MUL ADD CALLDATALOAD DUP10 DUP10 DUP4 DUP2 DUP2 LT PUSH2 0xFD0 JUMPI INVALID JUMPDEST SWAP1 POP PUSH1 0x20 MUL ADD CALLDATALOAD GT PUSH2 0xFF4 JUMPI PUSH1 0x40 MLOAD PUSH3 0x461BCD PUSH1 0xE5 SHL DUP2 MSTORE PUSH1 0x4 ADD PUSH2 0x51E SWAP1 PUSH2 0x2C24 JUMP JUMPDEST PUSH1 0x0 DUP3 DUP3 DUP2 MLOAD DUP2 LT PUSH2 0x1002 JUMPI INVALID JUMPDEST PUSH1 0x20 MUL PUSH1 0x20 ADD ADD MLOAD SWAP1 POP PUSH2 0x103B DUP11 DUP11 DUP5 DUP2 DUP2 LT PUSH2 0x101B JUMPI INVALID JUMPDEST SWAP1 POP PUSH1 0x20 MUL ADD CALLDATALOAD DUP5 DUP5 DUP2 MLOAD DUP2 LT PUSH2 0x102E JUMPI INVALID JUMPDEST PUSH1 0x20 MUL PUSH1 0x20 ADD ADD MLOAD PUSH2 0x149F JUMP JUMPDEST PUSH2 0x1052 DUP2 PUSH1 0x0 ADD MLOAD PUSH2 0xFFFF AND DUP3 PUSH1 0x20 ADD MLOAD TIMESTAMP PUSH2 0x1521 JUMP JUMPDEST DUP8 DUP8 DUP4 DUP2 DUP2 LT PUSH2 0x105E JUMPI INVALID JUMPDEST PUSH1 0x20 MUL SWAP2 SWAP1 SWAP2 ADD CALLDATALOAD PUSH1 0x60 DUP4 ADD DUP2 SWAP1 MSTORE PUSH1 0x0 SGT ISZERO SWAP1 POP PUSH2 0x107C JUMPI PUSH1 0x1 SWAP4 POP JUMPDEST POP PUSH1 0x1 ADD PUSH2 0xFA0 JUMP JUMPDEST POP SWAP8 SWAP1 SWAP7 POP SWAP5 POP POP POP POP POP JUMP JUMPDEST PUSH2 0x109A PUSH2 0x21F5 JUMP JUMPDEST PUSH2 0x10A2 PUSH2 0x21F5 JUMP JUMPDEST PUSH1 0x0 PUSH2 0x10AD DUP6 PUSH2 0xCE3 JUMP JUMPDEST SWAP1 POP PUSH1 0x0 PUSH2 0x10BA DUP8 PUSH2 0xCE3 JUMP JUMPDEST PUSH1 0x40 MLOAD PUSH4 0xCA254153 PUSH1 0xE0 SHL DUP2 MSTORE SWAP1 SWAP2 POP PUSH20 0x0 SWAP1 PUSH4 0xCA254153 SWAP1 PUSH2 0x10FC SWAP1 DUP11 SWAP1 DUP11 SWAP1 DUP7 SWAP1 DUP9 SWAP1 DUP13 SWAP1 PUSH1 0x4 ADD PUSH2 0x29BE JUMP JUMPDEST PUSH2 0x180 PUSH1 0x40 MLOAD DUP1 DUP4 SUB DUP2 DUP7 DUP1 EXTCODESIZE ISZERO DUP1 ISZERO PUSH2 0x1115 JUMPI PUSH1 0x0 DUP1 REVERT JUMPDEST POP GAS DELEGATECALL ISZERO DUP1 ISZERO PUSH2 0x1129 JUMPI RETURNDATASIZE PUSH1 0x0 DUP1 RETURNDATACOPY RETURNDATASIZE PUSH1 0x0 REVERT JUMPDEST POP POP POP POP PUSH1 0x40 MLOAD RETURNDATASIZE PUSH1 0x1F NOT PUSH1 0x1F DUP3 ADD AND DUP3 ADD DUP1 PUSH1 0x40 MSTORE POP DUP2 ADD SWAP1 PUSH2 0x114D SWAP2 SWAP1 PUSH2 0x2768 JUMP JUMPDEST SWAP3 POP SWAP1 POP PUSH2 0x115B DUP2 DUP9 PUSH2 0x1833 JUMP JUMPDEST PUSH2 0x1165 DUP3 DUP8 PUSH2 0x1833 JUMP JUMPDEST SWAP3 POP SWAP1 POP JUMPDEST SWAP4 POP SWAP4 SWAP2 POP POP JUMP JUMPDEST PUSH1 0x0 DUP1 PUSH1 0x20 DUP5 LT PUSH2 0x118F JUMPI PUSH1 0x0 PUSH2 0x118B DUP6 DUP8 ADD DUP8 PUSH2 0x2669 JUMP JUMPDEST SWAP3 POP POP JUMPDEST PUSH1 0x1 PUSH1 0x1 PUSH1 0xE0 SHL SUB NOT DUP3 AND PUSH4 0x56A273DD PUSH1 0xE0 SHL EQ DUP1 PUSH2 0x11BE JUMPI POP PUSH1 0x1 PUSH1 0x1 PUSH1 0xE0 SHL SUB NOT DUP3 AND PUSH4 0x541F527 PUSH1 0xE4 SHL EQ JUMPDEST DUP1 PUSH2 0x11D9 JUMPI POP PUSH1 0x1 PUSH1 0x1 PUSH1 0xE0 SHL SUB NOT DUP3 AND PUSH4 0x37351953 PUSH1 0xE1 SHL EQ JUMPDEST DUP1 PUSH2 0x11F4 JUMPI POP PUSH1 0x1 PUSH1 0x1 PUSH1 0xE0 SHL SUB NOT DUP3 AND PUSH4 0x276B64B PUSH1 0xE0 SHL EQ JUMPDEST ISZERO PUSH2 0x1304 JUMPI PUSH2 0x1207 PUSH1 0x24 PUSH1 0x4 DUP7 DUP9 PUSH2 0x2CD1 JUMP JUMPDEST DUP2 ADD SWAP1 PUSH2 0x1214 SWAP2 SWAP1 PUSH2 0x241F JUMP JUMPDEST SWAP1 POP DUP9 PUSH1 0x1 PUSH1 0x1 PUSH1 0xA0 SHL SUB AND DUP2 PUSH1 0x1 PUSH1 0x1 PUSH1 0xA0 SHL SUB AND EQ DUP1 PUSH2 0x1257 JUMPI POP DUP8 PUSH1 0x1 PUSH1 0x1 PUSH1 0xA0 SHL SUB AND DUP2 PUSH1 0x1 PUSH1 0x1 PUSH1 0xA0 SHL SUB AND EQ DUP1 ISZERO PUSH2 0x1257 JUMPI POP PUSH2 0x1257 DUP9 CALLER PUSH2 0x925 JUMP JUMPDEST PUSH2 0x1273 JUMPI PUSH1 0x40 MLOAD PUSH3 0x461BCD PUSH1 0xE5 SHL DUP2 MSTORE PUSH1 0x4 ADD PUSH2 0x51E SWAP1 PUSH2 0x2B58 JUMP JUMPDEST PUSH1 0x0 DUP1 ADDRESS PUSH1 0x1 PUSH1 0x1 PUSH1 0xA0 SHL SUB AND CALLVALUE DUP9 DUP9 PUSH1 0x40 MLOAD PUSH2 0x1291 SWAP3 SWAP2 SWAP1 PUSH2 0x28E1 JUMP JUMPDEST PUSH1 0x0 PUSH1 0x40 MLOAD DUP1 DUP4 SUB DUP2 DUP6 DUP8 GAS CALL SWAP3 POP POP POP RETURNDATASIZE DUP1 PUSH1 0x0 DUP2 EQ PUSH2 0x12CE JUMPI PUSH1 0x40 MLOAD SWAP2 POP PUSH1 0x1F NOT PUSH1 0x3F RETURNDATASIZE ADD AND DUP3 ADD PUSH1 0x40 MSTORE RETURNDATASIZE DUP3 MSTORE RETURNDATASIZE PUSH1 0x0 PUSH1 0x20 DUP5 ADD RETURNDATACOPY PUSH2 0x12D3 JUMP JUMPDEST PUSH1 0x60 SWAP2 POP JUMPDEST POP SWAP2 POP SWAP2 POP DUP2 PUSH2 0x12E2 DUP3 PUSH2 0x1952 JUMP JUMPDEST SWAP1 PUSH2 0x1300 JUMPI PUSH1 0x40 MLOAD PUSH3 0x461BCD PUSH1 0xE5 SHL DUP2 MSTORE PUSH1 0x4 ADD PUSH2 0x51E SWAP2 SWAP1 PUSH2 0x2AFC JUMP JUMPDEST POP POP POP JUMPDEST DUP9 PUSH1 0x1 PUSH1 0x1 PUSH1 0xA0 SHL SUB AND DUP2 PUSH1 0x1 PUSH1 0x1 PUSH1 0xA0 SHL SUB AND EQ ISZERO DUP1 ISZERO PUSH2 0x1333 JUMPI POP PUSH1 0x20 DUP8 ADD MLOAD PUSH1 0x1 PUSH1 0x1 PUSH1 0xF8 SHL SUB NOT AND ISZERO ISZERO JUMPDEST ISZERO PUSH2 0x13A0 JUMPI PUSH1 0x40 MLOAD PUSH4 0x6CCC642F PUSH1 0xE0 SHL DUP2 MSTORE PUSH20 0x0 SWAP1 PUSH4 0x6CCC642F SWAP1 PUSH2 0x136F SWAP1 DUP13 SWAP1 PUSH1 0x4 ADD PUSH2 0x28F1 JUMP JUMPDEST PUSH1 0x0 PUSH1 0x40 MLOAD DUP1 DUP4 SUB DUP2 DUP7 DUP1 EXTCODESIZE ISZERO DUP1 ISZERO PUSH2 0x1387 JUMPI PUSH1 0x0 DUP1 REVERT JUMPDEST POP GAS DELEGATECALL ISZERO DUP1 ISZERO PUSH2 0x139B JUMPI RETURNDATASIZE PUSH1 0x0 DUP1 RETURNDATACOPY RETURNDATASIZE PUSH1 0x0 REVERT JUMPDEST POP POP POP POP JUMPDEST DUP3 DUP1 ISZERO PUSH2 0x13BF JUMPI POP DUP8 PUSH1 0x1 PUSH1 0x1 PUSH1 0xA0 SHL SUB AND DUP2 PUSH1 0x1 PUSH1 0x1 PUSH1 0xA0 SHL SUB AND EQ ISZERO JUMPDEST DUP1 ISZERO PUSH2 0x13D8 JUMPI POP PUSH1 0x20 DUP7 ADD MLOAD PUSH1 0x1 PUSH1 0x1 PUSH1 0xF8 SHL SUB NOT AND ISZERO ISZERO JUMPDEST ISZERO PUSH2 0x1445 JUMPI PUSH1 0x40 MLOAD PUSH4 0x6CCC642F PUSH1 0xE0 SHL DUP2 MSTORE PUSH20 0x0 SWAP1 PUSH4 0x6CCC642F SWAP1 PUSH2 0x1414 SWAP1 DUP12 SWAP1 PUSH1 0x4 ADD PUSH2 0x28F1 JUMP JUMPDEST PUSH1 0x0 PUSH1 0x40 MLOAD DUP1 DUP4 SUB DUP2 DUP7 DUP1 EXTCODESIZE ISZERO DUP1 ISZERO PUSH2 0x142C JUMPI PUSH1 0x0 DUP1 REVERT JUMPDEST POP GAS DELEGATECALL ISZERO DUP1 ISZERO PUSH2 0x1440 JUMPI RETURNDATASIZE PUSH1 0x0 DUP1 RETURNDATACOPY RETURNDATASIZE PUSH1 0x0 REVERT JUMPDEST POP POP POP POP JUMPDEST POP POP POP POP POP POP POP POP POP JUMP JUMPDEST EXTCODESIZE ISZERO ISZERO SWAP1 JUMP JUMPDEST PUSH1 0x0 PUSH2 0x3FFF PUSH2 0xFFFF DUP6 AND GT ISZERO PUSH2 0x146B JUMPI PUSH1 0x0 DUP1 REVERT JUMPDEST PUSH5 0xFFFFFFFFFF DUP4 GT ISZERO PUSH2 0x147D JUMPI PUSH1 0x0 DUP1 REVERT JUMPDEST PUSH2 0x1487 DUP5 DUP5 PUSH2 0x19B2 JUMP JUMPDEST SWAP1 POP PUSH1 0x0 DUP3 SLT ISZERO PUSH2 0x7AD JUMPI PUSH1 0x1 PUSH1 0x40 SHL OR SWAP4 SWAP3 POP POP POP JUMP JUMPDEST PUSH2 0x14A8 DUP3 PUSH2 0xC93 JUMP JUMPDEST PUSH2 0x14C4 JUMPI PUSH1 0x40 MLOAD PUSH3 0x461BCD PUSH1 0xE5 SHL DUP2 MSTORE PUSH1 0x4 ADD PUSH2 0x51E SWAP1 PUSH2 0x2C7E JUMP JUMPDEST PUSH1 0x0 PUSH2 0x14CF DUP4 PUSH2 0xC9F JUMP JUMPDEST PUSH1 0x20 DUP6 ADD SWAP2 SWAP1 SWAP2 MSTORE PUSH2 0xFFFF SWAP1 SWAP2 AND DUP4 MSTORE SWAP1 POP DUP1 ISZERO PUSH2 0x14FF JUMPI PUSH1 0x40 MLOAD PUSH3 0x461BCD PUSH1 0xE5 SHL DUP2 MSTORE PUSH1 0x4 ADD PUSH2 0x51E SWAP1 PUSH2 0x2BD0 JUMP JUMPDEST POP PUSH1 0x1 PUSH1 0x40 SWAP1 SWAP2 ADD MSTORE POP JUMP JUMPDEST PUSH1 0x0 PUSH1 0x1 PUSH1 0x1 PUSH1 0xFF SHL SUB DUP3 GT ISZERO PUSH2 0xB4C JUMPI PUSH1 0x0 DUP1 REVERT JUMPDEST PUSH2 0x1537 PUSH2 0x152D DUP5 PUSH2 0x19D0 JUMP JUMPDEST PUSH1 0xFF AND DUP4 DUP4 PUSH2 0x19E6 JUMP JUMPDEST PUSH2 0x1553 JUMPI PUSH1 0x40 MLOAD PUSH3 0x461BCD PUSH1 0xE5 SHL DUP2 MSTORE PUSH1 0x4 ADD PUSH2 0x51E SWAP1 PUSH2 0x2BFA JUMP JUMPDEST POP POP POP JUMP JUMPDEST PUSH1 0x0 DUP1 PUSH2 0x30C PUSH1 0x3 PUSH2 0x1A36 JUMP JUMPDEST PUSH1 0x0 DUP1 PUSH1 0x0 DUP6 GT PUSH2 0x1575 JUMPI PUSH1 0x0 DUP1 REVERT JUMPDEST PUSH1 0x7 DUP6 GT ISZERO PUSH2 0x1583 JUMPI PUSH1 0x0 DUP1 REVERT JUMPDEST PUSH1 0x0 PUSH2 0x158E DUP5 PUSH2 0x1A4F JUMP JUMPDEST SWAP1 POP PUSH1 0x1 JUMPDEST DUP7 DUP2 GT PUSH2 0x15E6 JUMPI PUSH1 0x0 PUSH2 0x15AF PUSH2 0x15A8 DUP4 PUSH2 0x1A70 JUMP JUMPDEST DUP5 SWAP1 PUSH2 0x1B14 JUMP JUMPDEST SWAP1 POP DUP7 DUP2 EQ ISZERO PUSH2 0x15C7 JUMPI POP SWAP3 POP PUSH1 0x0 SWAP2 POP PUSH2 0x116A SWAP1 POP JUMP JUMPDEST DUP7 DUP2 GT ISZERO PUSH2 0x15DD JUMPI POP SWAP3 POP PUSH1 0x1 SWAP2 POP PUSH2 0x116A SWAP1 POP JUMP JUMPDEST POP PUSH1 0x1 ADD PUSH2 0x1593 JUMP JUMPDEST POP PUSH1 0x0 DUP1 REVERT JUMPDEST PUSH1 0x0 DUP1 PUSH1 0x0 DUP1 PUSH1 0x0 DUP1 PUSH2 0x15FD PUSH2 0x1B26 JUMP JUMPDEST PUSH1 0x1 PUSH1 0x1 PUSH1 0xA0 SHL SUB SWAP1 SWAP8 AND PUSH1 0x0 SWAP1 DUP2 MSTORE PUSH1 0x20 SWAP8 SWAP1 SWAP8 MSTORE POP POP PUSH1 0x40 SWAP1 SWAP5 KECCAK256 SLOAD PUSH2 0xFFFF DUP2 AND SWAP6 PUSH4 0xFFFFFFFF PUSH3 0x10000 DUP4 DIV DUP2 AND SWAP7 POP PUSH1 0x1 PUSH1 0x30 SHL DUP4 DIV AND SWAP5 POP PUSH1 0xFF PUSH1 0x1 PUSH1 0x50 SHL DUP4 DIV AND SWAP4 POP PUSH1 0x1 PUSH1 0x58 SHL SWAP1 SWAP2 DIV PUSH1 0xD0 SHL SWAP2 POP JUMP JUMPDEST PUSH1 0x0 PUSH3 0x76A700 PUSH2 0x1664 DUP6 PUSH2 0x1A4F JUMP JUMPDEST ADD SWAP1 POP PUSH2 0x1676 DUP8 DUP8 DUP8 DUP8 DUP8 DUP8 DUP8 PUSH2 0x1B33 JUMP JUMPDEST POP POP POP POP POP POP POP JUMP JUMPDEST PUSH1 0x0 DUP1 PUSH2 0x168F DUP5 PUSH1 0x40 ADD MLOAD PUSH2 0x1B6A JUMP JUMPDEST DUP1 ISZERO PUSH2 0x16A0 JUMPI POP PUSH1 0x0 DUP5 PUSH1 0x60 ADD MLOAD SLT ISZERO JUMPDEST PUSH2 0x16A9 JUMPI PUSH1 0x0 DUP1 REVERT JUMPDEST PUSH2 0x16D2 DUP4 PUSH1 0x80 ADD MLOAD PUSH2 0x16CC DUP7 PUSH1 0x60 ADD MLOAD DUP7 PUSH1 0x60 ADD MLOAD PUSH2 0x176A SWAP1 SWAP2 SWAP1 PUSH4 0xFFFFFFFF AND JUMP JUMPDEST SWAP1 PUSH2 0x1B80 JUMP JUMPDEST SWAP2 POP PUSH2 0x16F7 DUP4 PUSH1 0x80 ADD MLOAD PUSH2 0x16CC DUP7 PUSH1 0x60 ADD MLOAD DUP7 PUSH1 0x40 ADD MLOAD PUSH2 0x176A SWAP1 SWAP2 SWAP1 PUSH4 0xFFFFFFFF AND JUMP JUMPDEST SWAP1 POP SWAP3 POP SWAP3 SWAP1 POP JUMP JUMPDEST PUSH1 0x0 DUP1 PUSH2 0x30C PUSH1 0x1 PUSH2 0x1A36 JUMP JUMPDEST PUSH1 0x0 DUP1 PUSH2 0x1718 PUSH2 0x1BB1 JUMP JUMPDEST PUSH1 0x1 PUSH1 0x1 PUSH1 0xA0 SHL SUB DUP7 AND PUSH1 0x0 SWAP1 DUP2 MSTORE PUSH1 0x20 SWAP2 DUP3 MSTORE PUSH1 0x40 DUP1 DUP3 KECCAK256 DUP8 DUP4 MSTORE DUP4 MSTORE DUP1 DUP3 KECCAK256 DUP7 DUP4 MSTORE SWAP1 SWAP3 MSTORE KECCAK256 SLOAD PUSH1 0xF SWAP1 DUP2 SIGNEXTEND SWAP1 SIGNEXTEND SWAP2 POP POP SWAP4 SWAP3 POP POP POP JUMP JUMPDEST PUSH1 0x60 DUP1 PUSH2 0x175F DUP5 DUP5 PUSH2 0x1BBE JUMP JUMPDEST SWAP2 POP PUSH2 0x16F7 DUP3 PUSH2 0x1CD6 JUMP JUMPDEST DUP2 DUP2 MUL PUSH1 0x0 NOT DUP4 EQ ISZERO PUSH2 0x179A JUMPI DUP2 ISZERO DUP1 PUSH2 0x178C JUMPI POP DUP3 DUP3 DUP3 DUP2 PUSH2 0x1789 JUMPI INVALID JUMPDEST SDIV EQ JUMPDEST PUSH2 0x1795 JUMPI PUSH1 0x0 DUP1 REVERT JUMPDEST PUSH2 0x30C JUMP JUMPDEST DUP3 ISZERO DUP1 PUSH2 0x17AF JUMPI POP DUP2 DUP4 DUP3 DUP2 PUSH2 0x17AC JUMPI INVALID JUMPDEST SDIV EQ JUMPDEST PUSH2 0x30C JUMPI PUSH1 0x0 DUP1 REVERT JUMPDEST PUSH1 0x1 PUSH1 0x1 PUSH1 0xA0 SHL SUB DUP2 AND PUSH2 0x17CB JUMPI PUSH1 0x0 DUP1 REVERT JUMPDEST PUSH1 0x1 PUSH1 0x1 PUSH1 0xA0 SHL SUB DUP2 AND PUSH2 0xFEE EQ ISZERO PUSH2 0x17E3 JUMPI PUSH1 0x0 DUP1 REVERT JUMPDEST PUSH1 0x1 PUSH1 0x1 PUSH1 0xA0 SHL SUB DUP2 AND PUSH2 0x5E7 EQ ISZERO PUSH2 0x17FB JUMPI PUSH1 0x0 DUP1 REVERT JUMPDEST PUSH1 0x1 PUSH1 0x1 PUSH1 0xA0 SHL SUB DUP2 AND ADDRESS EQ ISZERO PUSH2 0x1811 JUMPI PUSH1 0x0 DUP1 REVERT JUMPDEST PUSH1 0x0 PUSH2 0x181C DUP3 PUSH2 0x15EC JUMP JUMPDEST POP POP POP POP PUSH2 0xFFFF AND SWAP1 POP DUP1 PUSH1 0x0 EQ PUSH2 0xF11 JUMPI PUSH1 0x0 DUP1 REVERT JUMPDEST PUSH1 0x0 PUSH2 0x183D PUSH2 0x1700 JUMP JUMPDEST PUSH1 0x1 PUSH1 0x1 PUSH1 0xA0 SHL SUB DUP4 AND PUSH1 0x0 DUP2 DUP2 MSTORE PUSH1 0x20 DUP4 DUP2 MSTORE PUSH1 0x40 DUP1 DUP4 KECCAK256 DUP9 MLOAD DUP2 SLOAD SWAP4 DUP11 ADD MLOAD DUP11 DUP5 ADD MLOAD PUSH1 0x60 DUP13 ADD MLOAD PUSH1 0x80 DUP14 ADD MLOAD PUSH1 0xA0 DUP15 ADD MLOAD PUSH5 0xFFFFFFFFFF NOT SWAP1 SWAP9 AND PUSH5 0xFFFFFFFFFF SWAP1 SWAP6 AND SWAP5 SWAP1 SWAP5 OR PUSH6 0xFF0000000000 NOT AND PUSH6 0x10000000000 PUSH1 0xF8 SWAP5 SWAP1 SWAP5 SHR SWAP4 SWAP1 SWAP4 MUL SWAP3 SWAP1 SWAP3 OR PUSH7 0xFF000000000000 NOT AND PUSH1 0x1 PUSH1 0x30 SHL PUSH1 0xFF SWAP1 SWAP3 AND SWAP2 SWAP1 SWAP2 MUL OR PUSH9 0xFFFF00000000000000 NOT AND PUSH1 0x1 PUSH1 0x38 SHL PUSH2 0xFFFF SWAP1 SWAP3 AND SWAP2 SWAP1 SWAP2 MUL OR PUSH27 0xFFFFFFFFFFFFFFFFFFFFFFFFFFFFFFFFFFFF000000000000000000 NOT AND PUSH1 0x1 PUSH1 0x48 SHL PUSH1 0x70 SWAP3 SWAP1 SWAP3 SHR SWAP2 SWAP1 SWAP2 MUL OR PUSH1 0xFF PUSH1 0xD8 SHL NOT AND PUSH1 0x1 PUSH1 0xD8 SHL SWAP4 ISZERO ISZERO SWAP4 SWAP1 SWAP4 MUL SWAP3 SWAP1 SWAP3 OR SWAP1 SWAP2 SSTORE MLOAD SWAP3 SWAP4 POP SWAP1 SWAP2 PUSH32 0x6BD4B121BCA854A191536A2CA891155C42EE2FB23F307FB34E8BC65CFCB5412E SWAP2 SWAP1 LOG2 POP POP POP JUMP JUMPDEST PUSH1 0x60 PUSH1 0x44 DUP3 MLOAD LT ISZERO PUSH2 0x1998 JUMPI POP PUSH1 0x40 DUP1 MLOAD DUP1 DUP3 ADD SWAP1 SWAP2 MSTORE PUSH1 0x1D DUP2 MSTORE PUSH32 0x5472616E73616374696F6E2072657665727465642073696C656E746C79000000 PUSH1 0x20 DUP3 ADD MSTORE PUSH2 0x327 JUMP JUMPDEST PUSH1 0x4 DUP3 ADD SWAP2 POP DUP2 DUP1 PUSH1 0x20 ADD SWAP1 MLOAD DUP2 ADD SWAP1 PUSH2 0x30C SWAP2 SWAP1 PUSH2 0x26D1 JUMP JUMPDEST PUSH8 0xFFFF000000000000 PUSH1 0x30 DUP4 SWAP1 SHL AND PUSH1 0x8 DUP3 SWAP1 SHL OR PUSH1 0x1 OR SWAP3 SWAP2 POP POP JUMP JUMPDEST PUSH1 0x0 DUP1 PUSH2 0x19DC DUP4 PUSH2 0x1E97 JUMP JUMPDEST PUSH1 0xFF AND SWAP4 SWAP3 POP POP POP JUMP JUMPDEST PUSH1 0x0 DUP1 PUSH2 0x19F2 DUP4 PUSH2 0x1A4F JUMP JUMPDEST SWAP1 POP PUSH1 0x0 PUSH2 0x1A09 PUSH2 0x1A02 DUP8 PUSH2 0x1A70 JUMP JUMPDEST DUP4 SWAP1 PUSH2 0x1B14 JUMP JUMPDEST SWAP1 POP DUP1 DUP6 GT ISZERO PUSH2 0x1A1E JUMPI PUSH1 0x0 SWAP3 POP POP POP PUSH2 0x7AD JUMP JUMPDEST PUSH1 0x0 PUSH2 0x1A2A DUP6 DUP8 PUSH2 0x1EB4 JUMP JUMPDEST SWAP9 SWAP8 POP POP POP POP POP POP POP POP JUMP JUMPDEST PUSH1 0x0 PUSH3 0xF4240 DUP3 PUSH1 0x26 DUP2 GT ISZERO PUSH2 0x1A48 JUMPI INVALID JUMPDEST ADD SWAP3 SWAP2 POP POP JUMP JUMPDEST PUSH1 0x0 PUSH3 0x76A700 DUP3 LT ISZERO PUSH2 0x1A61 JUMPI PUSH1 0x0 DUP1 REVERT JUMPDEST PUSH3 0x76A700 DUP3 JUMPDEST MOD SWAP1 SWAP2 SUB SWAP2 SWAP1 POP JUMP JUMPDEST PUSH1 0x0 DUP2 PUSH1 0x1 EQ ISZERO PUSH2 0x1A85 JUMPI POP PUSH3 0x76A700 PUSH2 0x327 JUMP JUMPDEST DUP2 PUSH1 0x2 EQ ISZERO PUSH2 0x1A98 JUMPI POP PUSH3 0xED4E00 PUSH2 0x327 JUMP JUMPDEST DUP2 PUSH1 0x3 EQ ISZERO PUSH2 0x1AAC JUMPI POP PUSH4 0x1DA9C00 PUSH2 0x327 JUMP JUMPDEST DUP2 PUSH1 0x4 EQ ISZERO PUSH2 0x1AC0 JUMPI POP PUSH4 0x3B53800 PUSH2 0x327 JUMP JUMPDEST DUP2 PUSH1 0x5 EQ ISZERO PUSH2 0x1AD4 JUMPI POP PUSH4 0x9450C00 PUSH2 0x327 JUMP JUMPDEST DUP2 PUSH1 0x6 EQ ISZERO PUSH2 0x1AE8 JUMPI POP PUSH4 0x128A1800 PUSH2 0x327 JUMP JUMPDEST DUP2 PUSH1 0x7 EQ ISZERO PUSH2 0x1AFC JUMPI POP PUSH4 0x25143000 PUSH2 0x327 JUMP JUMPDEST PUSH1 0x40 MLOAD PUSH3 0x461BCD PUSH1 0xE5 SHL DUP2 MSTORE PUSH1 0x4 ADD PUSH2 0x51E SWAP1 PUSH2 0x2BA9 JUMP JUMPDEST PUSH1 0x0 DUP3 DUP3 ADD DUP4 DUP2 LT ISZERO PUSH2 0x7AD JUMPI PUSH1 0x0 DUP1 REVERT JUMPDEST PUSH1 0x0 DUP1 PUSH2 0x30C PUSH1 0x2 PUSH2 0x1A36 JUMP JUMPDEST PUSH2 0x1B40 DUP8 DUP8 DUP8 DUP7 DUP6 PUSH2 0x1FBF JUMP JUMPDEST PUSH2 0x1B59 DUP8 PUSH1 0xE0 ADD MLOAD DUP9 PUSH1 0xA0 ADD MLOAD DUP10 PUSH1 0xC0 ADD MLOAD DUP6 DUP9 PUSH2 0x207F JUMP JUMPDEST PUSH1 0xC0 SWAP1 SWAP8 ADD SWAP7 SWAP1 SWAP7 MSTORE POP POP POP POP POP POP JUMP JUMPDEST PUSH1 0x0 PUSH1 0x2 DUP3 LT DUP1 ISZERO SWAP1 PUSH2 0x30C JUMPI POP POP PUSH1 0x8 LT ISZERO SWAP1 JUMP JUMPDEST PUSH1 0x0 DUP2 PUSH1 0x0 NOT EQ DUP1 ISZERO PUSH2 0x1B96 JUMPI POP PUSH1 0x1 PUSH1 0xFF SHL DUP4 EQ JUMPDEST ISZERO PUSH2 0x1BA0 JUMPI PUSH1 0x0 DUP1 REVERT JUMPDEST DUP2 DUP4 DUP2 PUSH2 0x1BA9 JUMPI INVALID JUMPDEST SDIV SWAP4 SWAP3 POP POP POP JUMP JUMPDEST PUSH1 0x0 DUP1 PUSH2 0x30C PUSH1 0xC PUSH2 0x1A36 JUMP JUMPDEST PUSH1 0x60 PUSH1 0x8 DUP3 PUSH1 0xFF AND GT ISZERO PUSH2 0x1BD1 JUMPI PUSH1 0x0 DUP1 REVERT JUMPDEST PUSH1 0x0 PUSH2 0x1BDB PUSH2 0x2115 JUMP JUMPDEST PUSH1 0x1 PUSH1 0x1 PUSH1 0xA0 SHL SUB DUP6 AND PUSH1 0x0 SWAP1 DUP2 MSTORE PUSH1 0x20 DUP3 SWAP1 MSTORE PUSH1 0x40 DUP2 KECCAK256 SWAP2 SWAP3 POP PUSH1 0xFF DUP6 AND PUSH8 0xFFFFFFFFFFFFFFFF DUP2 GT DUP1 ISZERO PUSH2 0x1C10 JUMPI PUSH1 0x0 DUP1 REVERT JUMPDEST POP PUSH1 0x40 MLOAD SWAP1 DUP1 DUP3 MSTORE DUP1 PUSH1 0x20 MUL PUSH1 0x20 ADD DUP3 ADD PUSH1 0x40 MSTORE DUP1 ISZERO PUSH2 0x1C4A JUMPI DUP2 PUSH1 0x20 ADD JUMPDEST PUSH2 0x1C37 PUSH2 0x222A JUMP JUMPDEST DUP2 MSTORE PUSH1 0x20 ADD SWAP1 PUSH1 0x1 SWAP1 SUB SWAP1 DUP2 PUSH2 0x1C2F JUMPI SWAP1 POP JUMPDEST POP SWAP1 POP PUSH1 0x0 JUMPDEST DUP6 PUSH1 0xFF AND DUP2 LT ISZERO PUSH2 0x78B JUMPI PUSH1 0x0 DUP4 DUP3 PUSH1 0x8 DUP2 LT PUSH2 0x1C69 JUMPI INVALID JUMPDEST ADD SWAP1 POP PUSH1 0x0 DUP4 DUP4 DUP2 MLOAD DUP2 LT PUSH2 0x1C7A JUMPI INVALID JUMPDEST PUSH1 0x20 SWAP1 DUP2 MUL SWAP2 SWAP1 SWAP2 ADD DUP2 ADD MLOAD DUP4 SLOAD PUSH2 0xFFFF DUP2 AND DUP3 MSTORE PUSH5 0xFFFFFFFFFF PUSH3 0x10000 DUP3 DIV AND SWAP3 DUP3 ADD SWAP3 SWAP1 SWAP3 MSTORE PUSH1 0xFF PUSH1 0x1 PUSH1 0x38 SHL DUP4 DIV AND PUSH1 0x40 DUP3 ADD MSTORE PUSH1 0x1 PUSH1 0x40 SHL SWAP1 SWAP2 DIV PUSH1 0xA SWAP1 DUP2 SIGNEXTEND SWAP1 SIGNEXTEND PUSH1 0x60 DUP3 ADD MSTORE PUSH1 0x80 ADD SWAP2 SWAP1 SWAP2 MSTORE POP PUSH1 0x1 ADD PUSH2 0x1C50 JUMP JUMPDEST DUP1 MLOAD PUSH1 0x60 SWAP1 DUP1 PUSH8 0xFFFFFFFFFFFFFFFF DUP2 GT DUP1 ISZERO PUSH2 0x1CF2 JUMPI PUSH1 0x0 DUP1 REVERT JUMPDEST POP PUSH1 0x40 MLOAD SWAP1 DUP1 DUP3 MSTORE DUP1 PUSH1 0x20 MUL PUSH1 0x20 ADD DUP3 ADD PUSH1 0x40 MSTORE DUP1 ISZERO PUSH2 0x1D1C JUMPI DUP2 PUSH1 0x20 ADD PUSH1 0x20 DUP3 MUL DUP1 CALLDATASIZE DUP4 CALLDATACOPY ADD SWAP1 POP JUMPDEST POP SWAP2 POP PUSH1 0x0 JUMPDEST DUP2 DUP2 LT ISZERO PUSH2 0x1D79 JUMPI PUSH1 0x0 DUP5 DUP3 DUP2 MLOAD DUP2 LT PUSH2 0x1D38 JUMPI INVALID JUMPDEST PUSH1 0x20 MUL PUSH1 0x20 ADD ADD MLOAD SWAP1 POP PUSH2 0x1D59 DUP2 PUSH1 0x0 ADD MLOAD DUP3 PUSH1 0x20 ADD MLOAD DUP4 PUSH1 0x40 ADD MLOAD PUSH2 0x2122 JUMP JUMPDEST DUP5 DUP4 DUP2 MLOAD DUP2 LT PUSH2 0x1D65 JUMPI INVALID JUMPDEST PUSH1 0x20 SWAP1 DUP2 MUL SWAP2 SWAP1 SWAP2 ADD ADD MSTORE POP PUSH1 0x1 ADD PUSH2 0x1D22 JUMP JUMPDEST POP PUSH1 0x1 JUMPDEST DUP2 DUP2 LT ISZERO PUSH2 0x1E90 JUMPI DUP1 JUMPDEST PUSH1 0x0 DUP2 GT DUP1 ISZERO PUSH2 0x1DBF JUMPI POP DUP4 DUP2 DUP2 MLOAD DUP2 LT PUSH2 0x1D9E JUMPI INVALID JUMPDEST PUSH1 0x20 MUL PUSH1 0x20 ADD ADD MLOAD DUP5 PUSH1 0x1 DUP4 SUB DUP2 MLOAD DUP2 LT PUSH2 0x1DB5 JUMPI INVALID JUMPDEST PUSH1 0x20 MUL PUSH1 0x20 ADD ADD MLOAD GT JUMPDEST ISZERO PUSH2 0x1E87 JUMPI DUP4 DUP2 DUP2 MLOAD DUP2 LT PUSH2 0x1DD0 JUMPI INVALID JUMPDEST PUSH1 0x20 MUL PUSH1 0x20 ADD ADD MLOAD DUP5 PUSH1 0x1 DUP4 SUB DUP2 MLOAD DUP2 LT PUSH2 0x1DE7 JUMPI INVALID JUMPDEST PUSH1 0x20 MUL PUSH1 0x20 ADD ADD MLOAD DUP6 PUSH1 0x1 DUP5 SUB DUP2 MLOAD DUP2 LT PUSH2 0x1DFE JUMPI INVALID JUMPDEST PUSH1 0x20 MUL PUSH1 0x20 ADD ADD DUP7 DUP5 DUP2 MLOAD DUP2 LT PUSH2 0x1E11 JUMPI INVALID JUMPDEST PUSH1 0x20 MUL PUSH1 0x20 ADD ADD DUP3 DUP2 MSTORE POP DUP3 DUP2 MSTORE POP POP POP DUP5 DUP2 DUP2 MLOAD DUP2 LT PUSH2 0x1E2E JUMPI INVALID JUMPDEST PUSH1 0x20 MUL PUSH1 0x20 ADD ADD MLOAD DUP6 PUSH1 0x1 DUP4 SUB DUP2 MLOAD DUP2 LT PUSH2 0x1E45 JUMPI INVALID JUMPDEST PUSH1 0x20 MUL PUSH1 0x20 ADD ADD MLOAD DUP7 PUSH1 0x1 DUP5 SUB DUP2 MLOAD DUP2 LT PUSH2 0x1E5C JUMPI INVALID JUMPDEST PUSH1 0x20 MUL PUSH1 0x20 ADD ADD DUP8 DUP5 DUP2 MLOAD DUP2 LT PUSH2 0x1E6F JUMPI INVALID JUMPDEST PUSH1 0x20 SWAP1 DUP2 MUL SWAP2 SWAP1 SWAP2 ADD ADD SWAP2 SWAP1 SWAP2 MSTORE MSTORE PUSH1 0x0 NOT ADD PUSH2 0x1D87 JUMP JUMPDEST POP PUSH1 0x1 ADD PUSH2 0x1D7D JUMP JUMPDEST POP POP SWAP2 SWAP1 POP JUMP JUMPDEST PUSH1 0x0 DUP1 PUSH2 0x1EA2 PUSH2 0x214B JUMP JUMPDEST PUSH1 0x0 SWAP4 DUP5 MSTORE PUSH1 0x20 MSTORE POP POP PUSH1 0x40 SWAP1 KECCAK256 SLOAD SWAP1 JUMP JUMPDEST PUSH1 0x0 DUP1 PUSH1 0x0 PUSH2 0x1EC2 DUP6 PUSH2 0x2158 JUMP JUMPDEST SWAP1 POP PUSH3 0x15180 DUP5 MOD ISZERO PUSH2 0x1EDC JUMPI PUSH1 0x0 DUP1 SWAP3 POP SWAP3 POP POP PUSH2 0x1FB8 JUMP JUMPDEST DUP4 DUP2 LT PUSH2 0x1EF0 JUMPI PUSH1 0x0 DUP1 SWAP3 POP SWAP3 POP POP PUSH2 0x1FB8 JUMP JUMPDEST PUSH3 0x15180 DUP2 DUP6 SUB DIV PUSH1 0x5A DUP2 GT PUSH2 0x1F0D JUMPI SWAP3 POP PUSH1 0x1 SWAP2 POP PUSH2 0x1FB8 SWAP1 POP JUMP JUMPDEST PUSH2 0x168 DUP2 GT PUSH2 0x1F4C JUMPI PUSH1 0x0 PUSH3 0x15180 PUSH3 0x7E900 DUP5 MOD DIV DUP3 ADD PUSH1 0x59 NOT ADD SWAP1 POP PUSH1 0x6 DUP2 DIV PUSH1 0x5A ADD PUSH1 0x6 DUP3 DUP2 PUSH2 0x1F3C JUMPI INVALID JUMPDEST MOD PUSH1 0x0 EQ SWAP5 POP SWAP5 POP POP POP POP PUSH2 0x1FB8 JUMP JUMPDEST PUSH2 0x870 DUP2 GT PUSH2 0x1F7C JUMPI PUSH1 0x0 PUSH3 0x15180 PUSH3 0x278D00 DUP5 MOD DIV DUP3 ADD PUSH2 0x167 NOT ADD SWAP1 POP PUSH1 0x1E DUP2 DIV PUSH1 0x87 ADD PUSH1 0x1E DUP3 DUP2 PUSH2 0x1F3C JUMPI INVALID JUMPDEST PUSH2 0x1DE2 DUP2 GT PUSH2 0x1FAC JUMPI PUSH1 0x0 PUSH3 0x15180 PUSH3 0x76A700 DUP5 MOD DIV DUP3 ADD PUSH2 0x86F NOT ADD SWAP1 POP PUSH1 0x5A DUP2 DIV PUSH1 0xC3 ADD PUSH1 0x5A DUP3 DUP2 PUSH2 0x1F3C JUMPI INVALID JUMPDEST PUSH2 0x100 PUSH1 0x0 SWAP4 POP SWAP4 POP POP POP JUMPDEST SWAP3 POP SWAP3 SWAP1 POP JUMP JUMPDEST PUSH1 0x0 PUSH2 0x1FC9 PUSH2 0x2174 JUMP JUMPDEST PUSH1 0x0 DUP7 DUP2 MSTORE PUSH1 0x20 DUP3 DUP2 MSTORE PUSH1 0x40 DUP1 DUP4 KECCAK256 DUP9 DUP5 MSTORE DUP3 MSTORE DUP1 DUP4 KECCAK256 DUP7 DUP5 MSTORE DUP3 MSTORE SWAP2 DUP3 SWAP1 KECCAK256 DUP1 DUP11 MSTORE SWAP1 DUP10 ADD DUP8 SWAP1 MSTORE DUP1 SLOAD PUSH10 0xFFFFFFFFFFFFFFFFFFFF DUP1 DUP3 AND SWAP4 DUP12 ADD SWAP4 SWAP1 SWAP4 MSTORE PUSH1 0x1 PUSH1 0x50 SHL DUP2 DIV SWAP1 SWAP3 AND PUSH1 0x60 DUP11 ADD MSTORE PUSH4 0xFFFFFFFF PUSH1 0x1 PUSH1 0xA0 SHL DUP4 DIV DUP2 AND PUSH1 0xA0 DUP12 ADD MSTORE PUSH1 0x1 PUSH1 0xC0 SHL DUP4 DIV DUP2 AND PUSH1 0xC0 DUP12 ADD MSTORE PUSH1 0x1 PUSH1 0xE0 SHL SWAP1 SWAP3 DIV SWAP1 SWAP2 AND PUSH1 0xE0 DUP10 ADD MSTORE SWAP1 SWAP2 POP DUP1 DUP5 ISZERO PUSH2 0x206E JUMPI PUSH1 0x1 DUP3 ADD SLOAD PUSH10 0xFFFFFFFFFFFFFFFFFFFF AND PUSH1 0x80 DUP10 ADD MSTORE PUSH2 0xB33 JUMP JUMPDEST PUSH1 0x0 PUSH1 0x80 DUP10 ADD MSTORE POP POP POP POP POP POP POP POP JUMP JUMPDEST PUSH1 0x0 DUP1 DUP4 GT PUSH2 0x208D JUMPI PUSH1 0x0 DUP1 REVERT JUMPDEST DUP2 DUP7 GT ISZERO PUSH2 0x209C JUMPI POP DUP4 PUSH2 0x210C JUMP JUMPDEST PUSH1 0x0 PUSH2 0x20A8 DUP4 DUP9 PUSH2 0x2181 JUMP JUMPDEST SWAP1 POP DUP4 DUP2 GT ISZERO PUSH2 0x20BB JUMPI DUP6 SWAP2 POP POP PUSH2 0x210C JUMP JUMPDEST PUSH1 0x0 PUSH2 0x20C7 DUP3 DUP7 PUSH2 0x2196 JUMP JUMPDEST SWAP1 POP PUSH1 0x0 PUSH2 0x20D9 PUSH4 0x3B9ACA00 DUP4 PUSH2 0x2181 JUMP JUMPDEST SWAP1 POP PUSH2 0x2106 PUSH4 0x3B9ACA00 PUSH2 0x2100 PUSH2 0x20F0 DUP11 DUP6 PUSH2 0x21AF JUMP JUMPDEST PUSH2 0x20FA DUP13 DUP8 PUSH2 0x21AF JUMP JUMPDEST SWAP1 PUSH2 0x1B14 JUMP JUMPDEST SWAP1 PUSH2 0x21D6 JUMP JUMPDEST SWAP4 POP POP POP POP JUMPDEST SWAP6 SWAP5 POP POP POP POP POP JUMP JUMPDEST PUSH1 0x0 DUP1 PUSH2 0x30C PUSH1 0xD PUSH2 0x1A36 JUMP JUMPDEST PUSH8 0xFFFF000000000000 PUSH1 0x30 DUP5 SWAP1 SHL AND PUSH6 0xFFFFFFFFFF00 PUSH1 0x8 DUP5 SWAP1 SHL AND OR PUSH1 0xFF DUP3 AND OR SWAP4 SWAP3 POP POP POP JUMP JUMPDEST PUSH1 0x0 DUP1 PUSH2 0x30C PUSH1 0x9 PUSH2 0x1A36 JUMP JUMPDEST PUSH1 0x0 PUSH3 0x15180 DUP3 LT ISZERO PUSH2 0x216A JUMPI PUSH1 0x0 DUP1 REVERT JUMPDEST PUSH3 0x15180 DUP3 PUSH2 0x1A67 JUMP JUMPDEST PUSH1 0x0 DUP1 PUSH2 0x30C PUSH1 0xA PUSH2 0x1A36 JUMP JUMPDEST PUSH1 0x0 DUP3 DUP3 GT ISZERO PUSH2 0x2190 JUMPI PUSH1 0x0 DUP1 REVERT JUMPDEST POP SWAP1 SUB SWAP1 JUMP JUMPDEST PUSH1 0x0 PUSH2 0x7AD PUSH2 0x21A9 DUP5 PUSH4 0x3B9ACA00 PUSH2 0x21AF JUMP JUMPDEST DUP4 PUSH2 0x21D6 JUMP JUMPDEST PUSH1 0x0 DUP3 PUSH2 0x21BE JUMPI POP PUSH1 0x0 PUSH2 0x30C JUMP JUMPDEST DUP3 DUP3 MUL DUP3 DUP5 DUP3 DUP2 PUSH2 0x21CB JUMPI INVALID JUMPDEST DIV EQ PUSH2 0x7AD JUMPI PUSH1 0x0 DUP1 REVERT JUMPDEST PUSH1 0x0 DUP1 DUP3 GT PUSH2 0x21E4 JUMPI PUSH1 0x0 DUP1 REVERT JUMPDEST DUP2 DUP4 DUP2 PUSH2 0x21ED JUMPI INVALID JUMPDEST DIV SWAP4 SWAP3 POP POP POP JUMP JUMPDEST PUSH1 0x40 DUP1 MLOAD PUSH1 0xC0 DUP2 ADD DUP3 MSTORE PUSH1 0x0 DUP1 DUP3 MSTORE PUSH1 0x20 DUP3 ADD DUP2 SWAP1 MSTORE SWAP2 DUP2 ADD DUP3 SWAP1 MSTORE PUSH1 0x60 DUP2 ADD DUP3 SWAP1 MSTORE PUSH1 0x80 DUP2 ADD DUP3 SWAP1 MSTORE PUSH1 0xA0 DUP2 ADD SWAP2 SWAP1 SWAP2 MSTORE SWAP1 JUMP JUMPDEST PUSH1 0x40 MLOAD DUP1 PUSH1 0xC0 ADD PUSH1 0x40 MSTORE DUP1 PUSH1 0x0 PUSH2 0xFFFF AND DUP2 MSTORE PUSH1 0x20 ADD PUSH1 0x0 DUP2 MSTORE PUSH1 0x20 ADD PUSH1 0x0 DUP2 MSTORE PUSH1 0x20 ADD PUSH1 0x0 DUP2 MSTORE PUSH1 0x20 ADD PUSH1 0x0 DUP2 MSTORE PUSH1 0x20 ADD PUSH1 0x0 PUSH1 0x3 DUP2 GT ISZERO PUSH2 0x2269 JUMPI INVALID JUMPDEST SWAP1 MSTORE SWAP1 JUMP JUMPDEST PUSH1 0x40 MLOAD DUP1 PUSH2 0x100 ADD PUSH1 0x40 MSTORE DUP1 PUSH1 0x0 DUP1 NOT AND DUP2 MSTORE PUSH1 0x20 ADD PUSH1 0x0 DUP2 MSTORE PUSH1 0x20 ADD PUSH1 0x0 DUP2 MSTORE PUSH1 0x20 ADD PUSH1 0x0 DUP2 MSTORE PUSH1 0x20 ADD PUSH1 0x0 DUP2 MSTORE PUSH1 0x20 ADD PUSH1 0x0 DUP2 MSTORE PUSH1 0x20 ADD PUSH1 0x0 DUP2 MSTORE PUSH1 0x20 ADD PUSH1 0x0 DUP2 MSTORE POP SWAP1 JUMP JUMPDEST PUSH1 0x0 DUP1 DUP4 PUSH1 0x1F DUP5 ADD SLT PUSH2 0x22C7 JUMPI DUP1 DUP2 REVERT JUMPDEST POP DUP2 CALLDATALOAD PUSH8 0xFFFFFFFFFFFFFFFF DUP2 GT ISZERO PUSH2 0x22DE JUMPI DUP2 DUP3 REVERT JUMPDEST PUSH1 0x20 DUP4 ADD SWAP2 POP DUP4 PUSH1 0x20 DUP1 DUP4 MUL DUP6 ADD ADD GT ISZERO PUSH2 0x1FB8 JUMPI PUSH1 0x0 DUP1 REVERT JUMPDEST DUP1 MLOAD PUSH2 0x327 DUP2 PUSH2 0x2D41 JUMP JUMPDEST DUP1 MLOAD PUSH1 0x1 PUSH1 0x1 PUSH1 0x70 SHL SUB NOT DUP2 AND DUP2 EQ PUSH2 0x327 JUMPI PUSH1 0x0 DUP1 REVERT JUMPDEST PUSH1 0x0 DUP1 DUP4 PUSH1 0x1F DUP5 ADD SLT PUSH2 0x232C JUMPI DUP2 DUP3 REVERT JUMPDEST POP DUP2 CALLDATALOAD PUSH8 0xFFFFFFFFFFFFFFFF DUP2 GT ISZERO PUSH2 0x2343 JUMPI DUP2 DUP3 REVERT JUMPDEST PUSH1 0x20 DUP4 ADD SWAP2 POP DUP4 PUSH1 0x20 DUP3 DUP6 ADD ADD GT ISZERO PUSH2 0x1FB8 JUMPI PUSH1 0x0 DUP1 REVERT JUMPDEST PUSH1 0x0 PUSH1 0xC0 DUP3 DUP5 SUB SLT ISZERO PUSH2 0x236C JUMPI DUP1 DUP2 REVERT JUMPDEST PUSH1 0x40 MLOAD PUSH1 0xC0 DUP2 ADD DUP2 DUP2 LT PUSH8 0xFFFFFFFFFFFFFFFF DUP3 GT OR ISZERO PUSH2 0x2389 JUMPI INVALID JUMPDEST DUP1 PUSH1 0x40 MSTORE POP DUP1 SWAP2 POP DUP3 MLOAD PUSH2 0x239C DUP2 PUSH2 0x2D75 JUMP JUMPDEST DUP2 MSTORE PUSH1 0x20 DUP4 ADD MLOAD PUSH1 0x1 PUSH1 0x1 PUSH1 0xF8 SHL SUB NOT DUP2 AND DUP2 EQ PUSH2 0x23B9 JUMPI PUSH1 0x0 DUP1 REVERT JUMPDEST PUSH1 0x20 DUP3 ADD MSTORE PUSH2 0x23CA PUSH1 0x40 DUP5 ADD PUSH2 0x2414 JUMP JUMPDEST PUSH1 0x40 DUP3 ADD MSTORE PUSH2 0x23DB PUSH1 0x60 DUP5 ADD PUSH2 0x2409 JUMP JUMPDEST PUSH1 0x60 DUP3 ADD MSTORE PUSH2 0x23EC PUSH1 0x80 DUP5 ADD PUSH2 0x2303 JUMP JUMPDEST PUSH1 0x80 DUP3 ADD MSTORE PUSH2 0x23FD PUSH1 0xA0 DUP5 ADD PUSH2 0x22F8 JUMP JUMPDEST PUSH1 0xA0 DUP3 ADD MSTORE POP SWAP3 SWAP2 POP POP JUMP JUMPDEST DUP1 MLOAD PUSH2 0x327 DUP2 PUSH2 0x2D65 JUMP JUMPDEST DUP1 MLOAD PUSH2 0x327 DUP2 PUSH2 0x2D88 JUMP JUMPDEST PUSH1 0x0 PUSH1 0x20 DUP3 DUP5 SUB SLT ISZERO PUSH2 0x2430 JUMPI DUP1 DUP2 REVERT JUMPDEST DUP2 CALLDATALOAD PUSH2 0x7AD DUP2 PUSH2 0x2D29 JUMP JUMPDEST PUSH1 0x0 DUP1 PUSH1 0x40 DUP4 DUP6 SUB SLT ISZERO PUSH2 0x244D JUMPI DUP1 DUP2 REVERT JUMPDEST DUP3 CALLDATALOAD PUSH2 0x2458 DUP2 PUSH2 0x2D29 JUMP JUMPDEST SWAP2 POP PUSH1 0x20 DUP4 ADD CALLDATALOAD PUSH2 0x2468 DUP2 PUSH2 0x2D29 JUMP JUMPDEST DUP1 SWAP2 POP POP SWAP3 POP SWAP3 SWAP1 POP JUMP JUMPDEST PUSH1 0x0 DUP1 PUSH1 0x0 DUP1 PUSH1 0x0 DUP1 PUSH1 0x0 DUP1 PUSH1 0xA0 DUP10 DUP12 SUB SLT ISZERO PUSH2 0x248E JUMPI DUP4 DUP5 REVERT JUMPDEST DUP9 CALLDATALOAD PUSH2 0x2499 DUP2 PUSH2 0x2D29 JUMP JUMPDEST SWAP8 POP PUSH1 0x20 DUP10 ADD CALLDATALOAD PUSH2 0x24A9 DUP2 PUSH2 0x2D29 JUMP JUMPDEST SWAP7 POP PUSH1 0x40 DUP10 ADD CALLDATALOAD PUSH8 0xFFFFFFFFFFFFFFFF DUP1 DUP3 GT ISZERO PUSH2 0x24C5 JUMPI DUP6 DUP7 REVERT JUMPDEST PUSH2 0x24D1 DUP13 DUP4 DUP14 ADD PUSH2 0x22B6 JUMP JUMPDEST SWAP1 SWAP9 POP SWAP7 POP PUSH1 0x60 DUP12 ADD CALLDATALOAD SWAP2 POP DUP1 DUP3 GT ISZERO PUSH2 0x24E9 JUMPI DUP6 DUP7 REVERT JUMPDEST PUSH2 0x24F5 DUP13 DUP4 DUP14 ADD PUSH2 0x22B6 JUMP JUMPDEST SWAP1 SWAP7 POP SWAP5 POP PUSH1 0x80 DUP12 ADD CALLDATALOAD SWAP2 POP DUP1 DUP3 GT ISZERO PUSH2 0x250D JUMPI DUP4 DUP5 REVERT JUMPDEST POP PUSH2 0x251A DUP12 DUP3 DUP13 ADD PUSH2 0x231B JUMP JUMPDEST SWAP10 SWAP13 SWAP9 SWAP12 POP SWAP7 SWAP10 POP SWAP5 SWAP8 SWAP4 SWAP7 SWAP3 SWAP6 SWAP5 POP POP POP JUMP JUMPDEST PUSH1 0x0 DUP1 PUSH1 0x0 DUP1 PUSH1 0x0 DUP1 PUSH1 0xA0 DUP8 DUP10 SUB SLT ISZERO PUSH2 0x2546 JUMPI DUP2 DUP3 REVERT JUMPDEST DUP7 CALLDATALOAD PUSH2 0x2551 DUP2 PUSH2 0x2D29 JUMP JUMPDEST SWAP6 POP PUSH1 0x20 DUP8 ADD CALLDATALOAD PUSH2 0x2561 DUP2 PUSH2 0x2D29 JUMP JUMPDEST SWAP5 POP PUSH1 0x40 DUP8 ADD CALLDATALOAD SWAP4 POP PUSH1 0x60 DUP8 ADD CALLDATALOAD SWAP3 POP PUSH1 0x80 DUP8 ADD CALLDATALOAD PUSH8 0xFFFFFFFFFFFFFFFF DUP2 GT ISZERO PUSH2 0x258A JUMPI DUP3 DUP4 REVERT JUMPDEST PUSH2 0x2596 DUP10 DUP3 DUP11 ADD PUSH2 0x231B JUMP JUMPDEST SWAP8 SWAP11 SWAP7 SWAP10 POP SWAP5 SWAP8 POP SWAP3 SWAP6 SWAP4 SWAP5 SWAP3 POP POP POP JUMP JUMPDEST PUSH1 0x0 DUP1 PUSH1 0x40 DUP4 DUP6 SUB SLT ISZERO PUSH2 0x25BA JUMPI DUP2 DUP3 REVERT JUMPDEST DUP3 CALLDATALOAD PUSH2 0x25C5 DUP2 PUSH2 0x2D29 JUMP JUMPDEST SWAP2 POP PUSH1 0x20 DUP4 ADD CALLDATALOAD PUSH2 0x2468 DUP2 PUSH2 0x2D41 JUMP JUMPDEST PUSH1 0x0 DUP1 PUSH1 0x40 DUP4 DUP6 SUB SLT ISZERO PUSH2 0x25E7 JUMPI DUP2 DUP3 REVERT JUMPDEST DUP3 CALLDATALOAD PUSH2 0x25F2 DUP2 PUSH2 0x2D29 JUMP JUMPDEST SWAP5 PUSH1 0x20 SWAP4 SWAP1 SWAP4 ADD CALLDATALOAD SWAP4 POP POP POP JUMP JUMPDEST PUSH1 0x0 DUP1 PUSH1 0x0 DUP1 PUSH1 0x40 DUP6 DUP8 SUB SLT ISZERO PUSH2 0x2615 JUMPI DUP2 DUP3 REVERT JUMPDEST DUP5 CALLDATALOAD PUSH8 0xFFFFFFFFFFFFFFFF DUP1 DUP3 GT ISZERO PUSH2 0x262C JUMPI DUP4 DUP5 REVERT JUMPDEST PUSH2 0x2638 DUP9 DUP4 DUP10 ADD PUSH2 0x22B6 JUMP JUMPDEST SWAP1 SWAP7 POP SWAP5 POP PUSH1 0x20 DUP8 ADD CALLDATALOAD SWAP2 POP DUP1 DUP3 GT ISZERO PUSH2 0x2650 JUMPI DUP4 DUP5 REVERT JUMPDEST POP PUSH2 0x265D DUP8 DUP3 DUP9 ADD PUSH2 0x22B6 JUMP JUMPDEST SWAP6 SWAP9 SWAP5 SWAP8 POP SWAP6 POP POP POP POP JUMP JUMPDEST PUSH1 0x0 PUSH1 0x20 DUP3 DUP5 SUB SLT ISZERO PUSH2 0x267A JUMPI DUP1 DUP2 REVERT JUMPDEST POP CALLDATALOAD SWAP2 SWAP1 POP JUMP JUMPDEST PUSH1 0x0 PUSH1 0x20 DUP3 DUP5 SUB SLT ISZERO PUSH2 0x2692 JUMPI DUP1 DUP2 REVERT JUMPDEST DUP2 CALLDATALOAD PUSH2 0x7AD DUP2 PUSH2 0x2D4F JUMP JUMPDEST PUSH1 0x0 PUSH1 0x20 DUP3 DUP5 SUB SLT ISZERO PUSH2 0x26AE JUMPI DUP1 DUP2 REVERT JUMPDEST DUP2 MLOAD PUSH2 0x7AD DUP2 PUSH2 0x2D4F JUMP JUMPDEST PUSH1 0x0 PUSH1 0x20 DUP3 DUP5 SUB SLT ISZERO PUSH2 0x26CA JUMPI DUP1 DUP2 REVERT JUMPDEST POP MLOAD SWAP2 SWAP1 POP JUMP JUMPDEST PUSH1 0x0 PUSH1 0x20 DUP3 DUP5 SUB SLT ISZERO PUSH2 0x26E2 JUMPI DUP1 DUP2 REVERT JUMPDEST DUP2 MLOAD PUSH8 0xFFFFFFFFFFFFFFFF DUP1 DUP3 GT ISZERO PUSH2 0x26F9 JUMPI DUP3 DUP4 REVERT JUMPDEST DUP2 DUP5 ADD SWAP2 POP DUP5 PUSH1 0x1F DUP4 ADD SLT PUSH2 0x270C JUMPI DUP3 DUP4 REVERT JUMPDEST DUP2 MLOAD DUP2 DUP2 GT ISZERO PUSH2 0x2718 JUMPI INVALID JUMPDEST PUSH1 0x40 MLOAD PUSH1 0x1F DUP3 ADD PUSH1 0x1F NOT AND DUP2 ADD PUSH1 0x20 ADD DUP4 DUP2 GT DUP3 DUP3 LT OR ISZERO PUSH2 0x2736 JUMPI INVALID JUMPDEST PUSH1 0x40 MSTORE DUP2 DUP2 MSTORE DUP4 DUP3 ADD PUSH1 0x20 ADD DUP8 LT ISZERO PUSH2 0x274D JUMPI DUP5 DUP6 REVERT JUMPDEST PUSH2 0x275E DUP3 PUSH1 0x20 DUP4 ADD PUSH1 0x20 DUP8 ADD PUSH2 0x2CF9 JUMP JUMPDEST SWAP7 SWAP6 POP POP POP POP POP POP JUMP JUMPDEST PUSH1 0x0 DUP1 PUSH2 0x180 DUP4 DUP6 SUB SLT ISZERO PUSH2 0x277B JUMPI DUP2 DUP3 REVERT JUMPDEST PUSH2 0x2785 DUP5 DUP5 PUSH2 0x235B JUMP JUMPDEST SWAP2 POP PUSH2 0x16F7 DUP5 PUSH1 0xC0 DUP6 ADD PUSH2 0x235B JUMP JUMPDEST PUSH1 0x0 DUP1 PUSH1 0x0 PUSH1 0x60 DUP5 DUP7 SUB SLT ISZERO PUSH2 0x27A8 JUMPI DUP1 DUP2 REVERT JUMPDEST DUP4 CALLDATALOAD PUSH2 0x27B3 DUP2 PUSH2 0x2D65 JUMP JUMPDEST SWAP3 POP PUSH1 0x20 DUP5 ADD CALLDATALOAD PUSH2 0x27C3 DUP2 PUSH2 0x2D75 JUMP JUMPDEST SWAP2 POP PUSH1 0x40 DUP5 ADD CALLDATALOAD PUSH2 0x27D3 DUP2 PUSH2 0x2D88 JUMP JUMPDEST DUP1 SWAP2 POP POP SWAP3 POP SWAP3 POP SWAP3 JUMP JUMPDEST DUP2 DUP4 MSTORE PUSH1 0x0 PUSH1 0x1 PUSH1 0x1 PUSH1 0xFB SHL SUB DUP4 GT ISZERO PUSH2 0x27F6 JUMPI DUP1 DUP2 REVERT JUMPDEST PUSH1 0x20 DUP4 MUL DUP1 DUP4 PUSH1 0x20 DUP8 ADD CALLDATACOPY SWAP4 SWAP1 SWAP4 ADD PUSH1 0x20 ADD SWAP3 DUP4 MSTORE POP SWAP1 SWAP2 SWAP1 POP JUMP JUMPDEST PUSH1 0x0 DUP3 DUP5 MSTORE DUP3 DUP3 PUSH1 0x20 DUP7 ADD CALLDATACOPY DUP1 PUSH1 0x20 DUP5 DUP7 ADD ADD MSTORE PUSH1 0x20 PUSH1 0x1F NOT PUSH1 0x1F DUP6 ADD AND DUP6 ADD ADD SWAP1 POP SWAP4 SWAP3 POP POP POP JUMP JUMPDEST DUP1 MLOAD PUSH5 0xFFFFFFFFFF AND DUP3 MSTORE PUSH1 0x20 DUP1 DUP3 ADD MLOAD PUSH1 0x1 PUSH1 0x1 PUSH1 0xF8 SHL SUB NOT AND SWAP1 DUP4 ADD MSTORE PUSH1 0x40 DUP1 DUP3 ADD MLOAD PUSH1 0xFF AND SWAP1 DUP4 ADD MSTORE PUSH1 0x60 DUP1 DUP3 ADD MLOAD PUSH2 0xFFFF AND SWAP1 DUP4 ADD MSTORE PUSH1 0x80 DUP1 DUP3 ADD MLOAD PUSH1 0x1 PUSH1 0x1 PUSH1 0x70 SHL SUB NOT AND SWAP1 DUP4 ADD MSTORE PUSH1 0xA0 SWAP1 DUP2 ADD MLOAD ISZERO ISZERO SWAP2 ADD MSTORE JUMP JUMPDEST PUSH2 0xFFFF DUP2 MLOAD AND DUP3 MSTORE PUSH1 0x20 DUP2 ADD MLOAD PUSH1 0x20 DUP4 ADD MSTORE PUSH1 0x40 DUP2 ADD MLOAD PUSH1 0x40 DUP4 ADD MSTORE PUSH1 0x60 DUP2 ADD MLOAD PUSH1 0x60 DUP4 ADD MSTORE PUSH1 0x80 DUP2 ADD MLOAD PUSH1 0x80 DUP4 ADD MSTORE PUSH1 0xA0 DUP2 ADD MLOAD PUSH1 0x4 DUP2 LT PUSH2 0x28D6 JUMPI INVALID JUMPDEST DUP1 PUSH1 0xA0 DUP5 ADD MSTORE POP POP POP JUMP JUMPDEST PUSH1 0x0 DUP3 DUP5 DUP4 CALLDATACOPY SWAP2 ADD SWAP1 DUP2 MSTORE SWAP2 SWAP1 POP JUMP JUMPDEST PUSH1 0x1 PUSH1 0x1 PUSH1 0xA0 SHL SUB SWAP2 SWAP1 SWAP2 AND DUP2 MSTORE PUSH1 0x20 ADD SWAP1 JUMP JUMPDEST PUSH1 0x1 PUSH1 0x1 PUSH1 0xA0 SHL SUB DUP10 DUP2 AND DUP3 MSTORE DUP9 AND PUSH1 0x20 DUP3 ADD MSTORE PUSH1 0xA0 PUSH1 0x40 DUP3 ADD DUP2 SWAP1 MSTORE PUSH1 0x0 SWAP1 PUSH2 0x2932 SWAP1 DUP4 ADD DUP9 DUP11 PUSH2 0x27DE JUMP JUMPDEST DUP3 DUP2 SUB PUSH1 0x60 DUP5 ADD MSTORE PUSH2 0x2945 DUP2 DUP8 DUP10 PUSH2 0x27DE JUMP JUMPDEST SWAP1 POP DUP3 DUP2 SUB PUSH1 0x80 DUP5 ADD MSTORE PUSH2 0x295A DUP2 DUP6 DUP8 PUSH2 0x2812 JUMP JUMPDEST SWAP12 SWAP11 POP POP POP POP POP POP POP POP POP POP POP JUMP JUMPDEST PUSH1 0x1 PUSH1 0x1 PUSH1 0xA0 SHL SUB DUP8 DUP2 AND DUP3 MSTORE DUP7 AND PUSH1 0x20 DUP3 ADD MSTORE PUSH1 0x40 DUP2 ADD DUP6 SWAP1 MSTORE PUSH1 0x60 DUP2 ADD DUP5 SWAP1 MSTORE PUSH1 0xA0 PUSH1 0x80 DUP3 ADD DUP2 SWAP1 MSTORE PUSH1 0x0 SWAP1 PUSH2 0x1A2A SWAP1 DUP4 ADD DUP5 DUP7 PUSH2 0x2812 JUMP JUMPDEST PUSH1 0x1 PUSH1 0x1 PUSH1 0xA0 SHL SUB SWAP3 DUP4 AND DUP2 MSTORE SWAP2 AND PUSH1 0x20 DUP3 ADD MSTORE PUSH1 0x40 ADD SWAP1 JUMP JUMPDEST PUSH1 0x0 PUSH2 0x1E0 DUP1 DUP4 ADD PUSH1 0x1 DUP1 PUSH1 0xA0 SHL SUB DUP1 DUP11 AND DUP6 MSTORE PUSH1 0x20 DUP2 DUP11 AND DUP2 DUP8 ADD MSTORE PUSH2 0x29E8 PUSH1 0x40 DUP8 ADD DUP11 PUSH2 0x283C JUMP JUMPDEST PUSH2 0x29F6 PUSH2 0x100 DUP8 ADD DUP10 PUSH2 0x283C JUMP JUMPDEST PUSH2 0x1C0 DUP7 ADD SWAP4 SWAP1 SWAP4 MSTORE POP DUP5 MLOAD SWAP1 DUP2 SWAP1 MSTORE PUSH2 0x200 DUP5 ADD SWAP2 DUP1 DUP7 ADD SWAP2 SWAP1 DUP5 JUMPDEST DUP3 DUP2 LT ISZERO PUSH2 0x2A39 JUMPI PUSH2 0x2A26 DUP6 DUP6 MLOAD PUSH2 0x2897 JUMP JUMPDEST PUSH1 0xC0 SWAP5 SWAP1 SWAP5 ADD SWAP4 SWAP3 DUP2 ADD SWAP3 PUSH1 0x1 ADD PUSH2 0x2A13 JUMP JUMPDEST POP SWAP3 SWAP11 SWAP10 POP POP POP POP POP POP POP POP POP POP JUMP JUMPDEST PUSH1 0x1 PUSH1 0x1 PUSH1 0xA0 SHL SUB SWAP3 SWAP1 SWAP3 AND DUP3 MSTORE PUSH1 0x20 DUP3 ADD MSTORE PUSH1 0x40 ADD SWAP1 JUMP JUMPDEST PUSH1 0x20 DUP1 DUP3 MSTORE DUP3 MLOAD DUP3 DUP3 ADD DUP2 SWAP1 MSTORE PUSH1 0x0 SWAP2 SWAP1 DUP5 DUP3 ADD SWAP1 PUSH1 0x40 DUP6 ADD SWAP1 DUP5 JUMPDEST DUP2 DUP2 LT ISZERO PUSH2 0x2A9A JUMPI DUP4 MLOAD DUP4 MSTORE SWAP3 DUP5 ADD SWAP3 SWAP2 DUP5 ADD SWAP2 PUSH1 0x1 ADD PUSH2 0x2A7E JUMP JUMPDEST POP SWAP1 SWAP7 SWAP6 POP POP POP POP POP POP JUMP JUMPDEST PUSH1 0x20 DUP1 DUP3 MSTORE DUP3 MLOAD DUP3 DUP3 ADD DUP2 SWAP1 MSTORE PUSH1 0x0 SWAP2 SWAP1 DUP5 DUP3 ADD SWAP1 PUSH1 0x40 DUP6 ADD SWAP1 DUP5 JUMPDEST DUP2 DUP2 LT ISZERO PUSH2 0x2A9A JUMPI PUSH2 0x2AD5 DUP4 DUP6 MLOAD PUSH2 0x2897 JUMP JUMPDEST SWAP3 DUP5 ADD SWAP3 PUSH1 0xC0 SWAP3 SWAP1 SWAP3 ADD SWAP2 PUSH1 0x1 ADD PUSH2 0x2AC2 JUMP JUMPDEST SWAP1 ISZERO ISZERO DUP2 MSTORE PUSH1 0x20 ADD SWAP1 JUMP JUMPDEST SWAP1 DUP2 MSTORE PUSH1 0x20 ADD SWAP1 JUMP JUMPDEST PUSH1 0x0 PUSH1 0x20 DUP3 MSTORE DUP3 MLOAD DUP1 PUSH1 0x20 DUP5 ADD MSTORE PUSH2 0x2B1B DUP2 PUSH1 0x40 DUP6 ADD PUSH1 0x20 DUP8 ADD PUSH2 0x2CF9 JUMP JUMPDEST PUSH1 0x1F ADD PUSH1 0x1F NOT AND SWAP2 SWAP1 SWAP2 ADD PUSH1 0x40 ADD SWAP3 SWAP2 POP POP JUMP JUMPDEST PUSH1 0x20 DUP1 DUP3 MSTORE PUSH1 0xF SWAP1 DUP3 ADD MSTORE PUSH15 0x496E76616C69642061646472657373 PUSH1 0x88 SHL PUSH1 0x40 DUP3 ADD MSTORE PUSH1 0x60 ADD SWAP1 JUMP JUMPDEST PUSH1 0x20 DUP1 DUP3 MSTORE PUSH1 0x11 SWAP1 DUP3 ADD MSTORE PUSH17 0x155B985D5D1A1BDC9A5E99590818D85B1B PUSH1 0x7A SHL PUSH1 0x40 DUP3 ADD MSTORE PUSH1 0x60 ADD SWAP1 JUMP JUMPDEST PUSH1 0x20 DUP1 DUP3 MSTORE PUSH1 0xC SWAP1 DUP3 ADD MSTORE PUSH12 0x155B985D5D1A1BDC9A5E9959 PUSH1 0xA2 SHL PUSH1 0x40 DUP3 ADD MSTORE PUSH1 0x60 ADD SWAP1 JUMP JUMPDEST PUSH1 0x20 DUP1 DUP3 MSTORE PUSH1 0xD SWAP1 DUP3 ADD MSTORE PUSH13 0x92DCECC2D8D2C840D2DCC8CAF PUSH1 0x9B SHL PUSH1 0x40 DUP3 ADD MSTORE PUSH1 0x60 ADD SWAP1 JUMP JUMPDEST PUSH1 0x20 DUP1 DUP3 MSTORE PUSH1 0x10 SWAP1 DUP3 ADD MSTORE PUSH16 0x2737902232B13A102A3930B739B332B9 PUSH1 0x81 SHL PUSH1 0x40 DUP3 ADD MSTORE PUSH1 0x60 ADD SWAP1 JUMP JUMPDEST PUSH1 0x20 DUP1 DUP3 MSTORE PUSH1 0x10 SWAP1 DUP3 ADD MSTORE PUSH16 0x496E76616C6964206D61747572697479 PUSH1 0x80 SHL PUSH1 0x40 DUP3 ADD MSTORE PUSH1 0x60 ADD SWAP1 JUMP JUMPDEST PUSH1 0x20 DUP1 DUP3 MSTORE PUSH1 0x12 SWAP1 DUP3 ADD MSTORE PUSH18 0x12511CC81B5D5CDD081899481CDBDC9D1959 PUSH1 0x72 SHL PUSH1 0x40 DUP3 ADD MSTORE PUSH1 0x60 ADD SWAP1 JUMP JUMPDEST PUSH1 0x20 DUP1 DUP3 MSTORE PUSH1 0x14 SWAP1 DUP3 ADD MSTORE PUSH20 0x496E73756666696369656E742042616C616E6365 PUSH1 0x60 SHL PUSH1 0x40 DUP3 ADD MSTORE PUSH1 0x60 ADD SWAP1 JUMP JUMPDEST PUSH1 0x20 DUP1 DUP3 MSTORE PUSH1 0x13 SWAP1 DUP3 ADD MSTORE PUSH19 0x27B7363C903321B0B9B4102A3930B739B332B9 PUSH1 0x69 SHL PUSH1 0x40 DUP3 ADD MSTORE PUSH1 0x60 ADD SWAP1 JUMP JUMPDEST PUSH1 0x20 DUP1 DUP3 MSTORE PUSH1 0xC SWAP1 DUP3 ADD MSTORE PUSH12 0x139BDD081858D8D95C1D1959 PUSH1 0xA2 SHL PUSH1 0x40 DUP3 ADD MSTORE PUSH1 0x60 ADD SWAP1 JUMP JUMPDEST PUSH1 0x0 DUP1 DUP6 DUP6 GT ISZERO PUSH2 0x2CE0 JUMPI DUP2 DUP3 REVERT JUMPDEST DUP4 DUP7 GT ISZERO PUSH2 0x2CEC JUMPI DUP2 DUP3 REVERT JUMPDEST POP POP DUP3 ADD SWAP4 SWAP2 SWAP1 SWAP3 SUB SWAP2 POP JUMP JUMPDEST PUSH1 0x0 JUMPDEST DUP4 DUP2 LT ISZERO PUSH2 0x2D14 JUMPI DUP2 DUP2 ADD MLOAD DUP4 DUP3 ADD MSTORE PUSH1 0x20 ADD PUSH2 0x2CFC JUMP JUMPDEST DUP4 DUP2 GT ISZERO PUSH2 0x2D23 JUMPI PUSH1 0x0 DUP5 DUP5 ADD MSTORE JUMPDEST POP POP POP POP JUMP JUMPDEST PUSH1 0x1 PUSH1 0x1 PUSH1 0xA0 SHL SUB DUP2 AND DUP2 EQ PUSH2 0x2D3E JUMPI PUSH1 0x0 DUP1 REVERT JUMPDEST POP JUMP JUMPDEST DUP1 ISZERO ISZERO DUP2 EQ PUSH2 0x2D3E JUMPI PUSH1 0x0 DUP1 REVERT JUMPDEST PUSH1 0x1 PUSH1 0x1 PUSH1 0xE0 SHL SUB NOT DUP2 AND DUP2 EQ PUSH2 0x2D3E JUMPI PUSH1 0x0 DUP1 REVERT JUMPDEST PUSH2 0xFFFF DUP2 AND DUP2 EQ PUSH2 0x2D3E JUMPI PUSH1 0x0 DUP1 REVERT JUMPDEST PUSH5 0xFFFFFFFFFF DUP2 AND DUP2 EQ PUSH2 0x2D3E JUMPI PUSH1 0x0 DUP1 REVERT JUMPDEST PUSH1 0xFF DUP2 AND DUP2 EQ PUSH2 0x2D3E JUMPI PUSH1 0x0 DUP1 REVERT INVALID LOG2 PUSH5 0x6970667358 0x22 SLT KECCAK256 SELFBALANCE DUP14 0xD1 0xBB DUP15 DUP1 0xBB 0x1E 0x22 MLOAD 0xF6 SMOD PUSH21 0xD94AC262F9E3DCD4E75B0642AF3244E533043F6473 PUSH16 0x6C634300070600330000000000000000 ","sha1":"03b3c429b886399935b9ecf847c31abe4fc50016","source":"// SPDX-License-Identifier: BSUL-1.1\npragma solidity =0.7.6;\npragma abicoder v2;\n\nimport {\n    AccountContext,\n    PortfolioAsset,\n    MarketParameters\n} from '../../global/Types.sol';\nimport {StorageLayoutV1} from \"../../global/StorageLayoutV1.sol\";\nimport {Constants} from \"../../global/Constants.sol\";\nimport {SafeInt256} from \"../../math/SafeInt256.sol\";\n\nimport {Emitter} from \"../../internal/Emitter.sol\";\nimport {AccountContextHandler} from \"../../internal/AccountContextHandler.sol\";\nimport {DateTime} from \"../../internal/markets/DateTime.sol\";\nimport {CashGroup} from \"../../internal/markets/CashGroup.sol\";\nimport {Market} from \"../../internal/markets/Market.sol\";\nimport {nTokenHandler} from \"../../internal/nToken/nTokenHandler.sol\";\nimport {TransferAssets} from \"../../internal/portfolio/TransferAssets.sol\";\nimport {PortfolioHandler} from \"../../internal/portfolio/PortfolioHandler.sol\";\nimport {BitmapAssetsHandler} from \"../../internal/portfolio/BitmapAssetsHandler.sol\";\nimport {AssetHandler} from \"../../internal/valuation/AssetHandler.sol\";\n\nimport {FreeCollateralExternal} from \"../FreeCollateralExternal.sol\";\nimport {SettleAssetsExternal} from \"../SettleAssetsExternal.sol\";\nimport {ActionGuards} from \"./ActionGuards.sol\";\n\nimport {NotionalProxy} from \"../../../interfaces/notional/NotionalProxy.sol\";\nimport {IERC1155TokenReceiver} from \"../../../interfaces/IERC1155TokenReceiver.sol\";\nimport {nERC1155Interface} from \"../../../interfaces/notional/nERC1155Interface.sol\";\nimport {IVaultAccountHealth} from \"../../../interfaces/notional/IVaultController.sol\";\nimport \"@openzeppelin/contracts/token/ERC1155/IERC1155.sol\";\nimport \"@openzeppelin/contracts/utils/Address.sol\";\n\ncontract ERC1155Action is nERC1155Interface, ActionGuards {\n    using SafeInt256 for int256;\n    using AccountContextHandler for AccountContext;\n\n    bytes4 internal constant ERC1155_ACCEPTED = bytes4(keccak256(\"onERC1155Received(address,address,uint256,uint256,bytes)\"));\n    bytes4 internal constant ERC1155_BATCH_ACCEPTED = bytes4(keccak256(\"onERC1155BatchReceived(address,address,uint256[],uint256[],bytes)\"));\n\n    function supportsInterface(bytes4 interfaceId) external pure override returns (bool) {\n        return interfaceId == type(IERC1155).interfaceId;\n    }\n\n    /// @notice Returns the balance of an ERC1155 id on an account.\n    /// @param account account to get the id for\n    /// @param id the ERC1155 id\n    /// @return Balance of the ERC1155 id as an unsigned integer (negative fCash balances return zero)\n    function balanceOf(address account, uint256 id) public view override returns (uint256) {\n        int256 notional = signedBalanceOf(account, id);\n        return notional < 0 ? 0 : notional.toUint();\n    }\n\n    /// @notice Returns the balance of an ERC1155 id on an account.\n    /// @param account account to get the id for\n    /// @param id the ERC1155 id\n    /// @return notional balance of the ERC1155 id as a signed integer\n    function signedBalanceOf(address account, uint256 id) public view override returns (int256 notional) {\n        if (nTokenHandler.nTokenAddress(Emitter.decodeCurrencyId(id)) == account) {\n            // Special handling for nToken balances since they do not work like regular account balances.\n            return _balanceInNToken(account, id);\n        } else if (Emitter.isfCash(id)) {\n            (uint16 currencyId, uint256 maturity, bool isfCashDebt) = Emitter.decodefCashId(id);\n            AccountContext memory accountContext = AccountContextHandler.getAccountContext(account);\n\n            if (accountContext.isBitmapEnabled()) {\n                notional = _balanceInBitmap(account, accountContext.bitmapCurrencyId, currencyId, maturity);\n            } else {\n                notional = _balanceInArray(\n                    PortfolioHandler.getSortedPortfolio(account, accountContext.assetArrayLength),\n                    currencyId,\n                    maturity\n                );\n            }\n\n            // If asking for the fCash debt id, then return the positive amount or zero if it is not debt\n            if (isfCashDebt) return notional < 0 ? notional.neg() : 0;\n            return notional;\n        } else {\n            // In this case, the id is referencing a vault asset and we make a call back to retrieve the relevant\n            // data. This is pretty inefficient for on chain calls but will work fine for off chain calls\n            return IVaultAccountHealth(address(this)).signedBalanceOfVaultTokenId(account, id);\n        }\n    }\n\n    /// @notice Returns the balance of a batch of accounts and ids.\n    /// @param accounts array of accounts to get balances for\n    /// @param ids array of ids to get balances for\n    /// @return Returns an array of signed balances\n    function signedBalanceOfBatch(address[] calldata accounts, uint256[] calldata ids)\n        external\n        view\n        override\n        returns (int256[] memory)\n    {\n        require(accounts.length == ids.length);\n        int256[] memory amounts = new int256[](accounts.length);\n\n        for (uint256 i; i < accounts.length; i++) {\n            // This is pretty inefficient but gets the job done\n            amounts[i] = signedBalanceOf(accounts[i], ids[i]);\n        }\n\n        return amounts;\n    }\n\n    /// @notice Returns the balance of a batch of accounts and ids. WARNING: negative fCash balances are represented\n    /// as zero balances in the array. \n    /// @param accounts array of accounts to get balances for\n    /// @param ids array of ids to get balances for\n    /// @return Returns an array of unsigned balances\n    function balanceOfBatch(address[] calldata accounts, uint256[] calldata ids)\n        external\n        view\n        override\n        returns (uint256[] memory)\n    {\n        require(accounts.length == ids.length);\n        uint256[] memory amounts = new uint256[](accounts.length);\n\n        for (uint256 i; i < accounts.length; i++) {\n            // This is pretty inefficient but gets the job done\n            amounts[i] = balanceOf(accounts[i], ids[i]);\n        }\n\n        return amounts;\n    }\n\n    /// @dev Returns the balance from a bitmap given the id\n    function _balanceInBitmap(\n        address account,\n        uint256 bitmapCurrencyId,\n        uint16 currencyId,\n        uint256 maturity\n    ) internal view returns (int256) {\n        if (currencyId == 0 || currencyId != bitmapCurrencyId) {\n            return 0;\n        } else {\n            return BitmapAssetsHandler.getifCashNotional(account, currencyId, maturity);\n        }\n    }\n\n    /// @dev Searches an array for the matching asset\n    function _balanceInArray(\n        PortfolioAsset[] memory portfolio, uint16 currencyId, uint256 maturity\n    ) internal pure returns (int256) {\n        for (uint256 i; i < portfolio.length; i++) {\n            PortfolioAsset memory asset = portfolio[i];\n            if (\n                asset.currencyId == currencyId &&\n                asset.maturity == maturity &&\n                asset.assetType == Constants.FCASH_ASSET_TYPE\n            ) return asset.notional;\n        }\n\n        return 0;\n    }\n\n    function _balanceInNToken(address nTokenAccount, uint256 id) internal view returns (int256 balance) {\n        (uint16 currencyId, uint256 maturity, bool isfCashDebt) = Emitter.decodefCashId(id);\n        // Allow the balanceOf to search all of the max markets, if the returned market index exceeds the asset array length then,\n        // the function will return a zero balance rather than revert.\n        (uint256 marketIndex, bool isIdiosyncratic) = DateTime.getMarketIndex(Constants.MAX_TRADED_MARKET_INDEX, maturity, block.timestamp);\n\n        if (isIdiosyncratic || isfCashDebt) {\n            // If asking for an idiosyncratic market or fCash debt, then the fCash balance will only be in the bitmap\n            balance = _balanceInBitmap(nTokenAccount, currencyId, currencyId, maturity);\n\n            // Flip the sign to positive if asking for the fCash debt\n            if (isfCashDebt) return balance < 0 ? balance.neg() : 0;\n        } else {\n            // If asking for the positive fCash balance, that means we need to load the market and get the cash claims\n            (/* */, /* */, /* */, uint8 assetArrayLength, /* */) = nTokenHandler.getNTokenContext(nTokenAccount);\n\n            // Market index is beyond the maximum length of the market so return a zero balance.\n            if (marketIndex > assetArrayLength) return 0;\n\n            PortfolioAsset[] memory liquidityTokens = PortfolioHandler.getSortedPortfolio(nTokenAccount, assetArrayLength);\n            MarketParameters memory market;\n            // rateOracleTimeWindow is not used here, so it is set to 1 to save some gas. This also only loads the current settlement\n            // market, if markets are not initialized this will not return the proper balance.\n            Market.loadMarket(market, currencyId, maturity, block.timestamp, true, 1);\n            if (market.totalLiquidity == 0) return 0;\n\n            (/* int256 cashClaim */, balance) = AssetHandler.getCashClaims(liquidityTokens[marketIndex - 1], market);\n        }\n    }\n\n    /// @notice Transfer of a single fCash or liquidity token asset between accounts. Allows `from` account to transfer more fCash\n    /// than they have as long as they pass a subsequent free collateral check. This enables OTC trading of fCash assets.\n    /// @param from account to transfer from\n    /// @param to account to transfer to\n    /// @param id ERC1155 id of the asset\n    /// @param amount amount to transfer\n    /// @param data arbitrary data passed to ERC1155Receiver (if contract) and if properly specified can be used to initiate\n    /// a trading action on Notional for the `from` address\n    /// @dev emit:TransferSingle, emit:AccountContextUpdate, emit:AccountSettled\n    function safeTransferFrom(\n        address from,\n        address to,\n        uint256 id,\n        uint256 amount,\n        bytes calldata data\n    ) external payable override {\n        // NOTE: there is no re-entrancy guard on this method because that would prevent a callback in \n        // _checkPostTransferEvent. The external call to the receiver is done at the very end after all stateful\n        // updates have occurred.\n        _validateAccounts(from, to);\n\n        // When amount is set to zero this method can be used as a way to execute trades via a transfer operator\n        AccountContext memory fromContext;\n        if (amount > 0) {\n            PortfolioAsset[] memory assets = new PortfolioAsset[](1);\n            PortfolioAsset memory asset = assets[0];\n\n            // Only Positive fCash is supported in ERC1155 transfers\n            _decodeTofCashAsset(id, asset);\n\n            // This ensures that asset.notional is always a positive amount\n            asset.notional = SafeInt256.toInt(amount);\n            require(signedBalanceOf(from, id) >= int256(amount), \"Insufficient Balance\");\n            _requireValidMaturity(asset.currencyId, asset.maturity, block.timestamp);\n\n            // prettier-ignore\n            (fromContext, /* toContext */) = _transfer(from, to, assets);\n        } else {\n            fromContext = AccountContextHandler.getAccountContext(from);\n        }\n\n        // toContext is always empty here because we cannot have bidirectional transfers in `safeTransferFrom`\n        AccountContext memory toContext;\n        _checkPostTransferEvent(from, to, fromContext, toContext, data, false);\n\n        // Do this external call at the end to prevent re-entrancy\n        if (Address.isContract(to)) {\n            require(\n                IERC1155TokenReceiver(to).onERC1155Received(msg.sender, from, id, amount, data) ==\n                    ERC1155_ACCEPTED,\n                \"Not accepted\"\n            );\n        }\n    }\n\n    /// @notice Transfer of a batch of fCash or liquidity token assets between accounts. Allows `from` account to transfer more fCash\n    /// than they have as long as they pass a subsequent free collateral check. This enables OTC trading of fCash assets.\n    /// @param from account to transfer from\n    /// @param to account to transfer to\n    /// @param ids ERC1155 ids of the assets\n    /// @param amounts amounts to transfer\n    /// @param data arbitrary data passed to ERC1155Receiver (if contract) and if properly specified can be used to initiate\n    /// a trading action on Notional for the `from` address\n    /// @dev emit:TransferBatch, emit:AccountContextUpdate, emit:AccountSettled\n    function safeBatchTransferFrom(\n        address from,\n        address to,\n        uint256[] calldata ids,\n        uint256[] calldata amounts,\n        bytes calldata data\n    ) external payable override {\n        // NOTE: there is no re-entrancy guard on this method because that would prevent a callback in \n        // _checkPostTransferEvent. The external call to the receiver is done at the very end.\n        _validateAccounts(from, to);\n\n        for (uint256 i; i < ids.length; i++) {\n            int256 amount = int256(amounts[i]);\n            int256 balance = amount > 0 ? signedBalanceOf(from, ids[i]) : signedBalanceOf(to, ids[i]);\n            require(balance > 0, \"Insufficient Balance\");\n            require(balance >= amount.abs(), \"Insufficient Balance\");\n        }\n\n        (PortfolioAsset[] memory assets, bool toTransferNegative) = _decodeToAssets(ids, amounts);\n        // When doing a bidirectional transfer must ensure that the `to` account has given approval\n        // to msg.sender as well.\n        if (toTransferNegative) require(isApprovedForAll(to, msg.sender), \"Unauthorized\");\n\n        (AccountContext memory fromContext, AccountContext memory toContext) = _transfer(\n            from,\n            to,\n            assets\n        );\n\n        _checkPostTransferEvent(from, to, fromContext, toContext, data, toTransferNegative);\n\n        // Do this at the end to prevent re-entrancy\n        if (Address.isContract(to)) {\n            require(\n                IERC1155TokenReceiver(to).onERC1155BatchReceived(\n                    msg.sender,\n                    from,\n                    ids,\n                    amounts,\n                    data\n                ) == ERC1155_BATCH_ACCEPTED,\n                \"Not accepted\"\n            );\n        }\n    }\n\n    /// @dev Validates accounts on transfer\n    function _validateAccounts(address from, address to) private view {\n        // Cannot transfer to self, cannot transfer to zero address\n        require(from != to && to != address(0) && to != address(this), \"Invalid address\");\n        // Authentication is valid\n        require(msg.sender == from || isApprovedForAll(from, msg.sender), \"Unauthorized\");\n        // nTokens will not accept transfers because they do not implement the ERC1155\n        // receive method\n\n        // Defensive check to ensure that an authorized operator does not call these methods\n        // with an invalid `from` account\n        requireValidAccount(from);\n    }\n\n    /// @notice Decodes ids and amounts to PortfolioAsset objects\n    /// @param ids array of ERC1155 ids\n    /// @param amounts amounts to transfer\n    /// @return array of portfolio asset objects\n    function decodeToAssets(uint256[] calldata ids, uint256[] calldata amounts)\n        external\n        view\n        override\n        returns (PortfolioAsset[] memory)\n    {\n        // prettier-ignore\n        (PortfolioAsset[] memory assets, /* */) = _decodeToAssets(ids, amounts);\n        return assets;\n    }\n\n    function _decodeTofCashAsset(uint256 id, PortfolioAsset memory asset) private pure {\n        require(Emitter.isfCash(id), \"Only fCash Transfer\");\n        bool isfCashDebt;\n        (asset.currencyId, asset.maturity, isfCashDebt) = Emitter.decodefCashId(id);\n        // Technically debt is transferrable inside this method, but for clarity and backwards compatibility\n        // this restriction is applied here.\n        require(!isfCashDebt, \"No Debt Transfer\");\n\n        asset.assetType = Constants.FCASH_ASSET_TYPE;\n    }\n\n    function _decodeToAssets(uint256[] calldata ids, uint256[] calldata amounts)\n        private\n        view\n        returns (PortfolioAsset[] memory, bool)\n    {\n        require(ids.length == amounts.length);\n        bool toTransferNegative = false;\n        PortfolioAsset[] memory assets = new PortfolioAsset[](ids.length);\n\n        for (uint256 i; i < ids.length; i++) {\n            // Require that ids are not duplicated, there is no valid reason to have duplicate ids\n            if (i > 0) require(ids[i] > ids[i - 1], \"IDs must be sorted\");\n\n            PortfolioAsset memory asset = assets[i];\n            _decodeTofCashAsset(ids[i], assets[i]);\n\n            _requireValidMaturity(asset.currencyId, asset.maturity, block.timestamp);\n            // Although amounts is encoded as uint256 we allow it to be negative here. This will\n            // allow for bidirectional transfers of fCash. Internally fCash assets are always stored\n            // as int128 (for bitmap portfolio) or int88 (for array portfolio) so there is no potential\n            // that a uint256 value that is greater than type(int256).max would actually valid.\n            asset.notional = int256(amounts[i]);\n            // If there is a negative transfer we mark it as such, this will force us to do a free collateral\n            // check on the `to` address as well.\n            if (asset.notional < 0) toTransferNegative = true;\n        }\n\n        return (assets, toTransferNegative);\n    }\n\n    /// @notice Encodes parameters into an ERC1155 id, this method always returns an fCash id\n    /// @param currencyId currency id of the asset\n    /// @param maturity timestamp of the maturity\n    /// @return ERC1155 id\n    function encodeToId(\n        uint16 currencyId,\n        uint40 maturity,\n        uint8 /* assetType */\n    ) external pure override returns (uint256) {\n        return Emitter.encodefCashId(currencyId, maturity, 0);\n    }\n\n    /// @dev Ensures that all maturities specified are valid for the currency id (i.e. they do not\n    /// go past the max maturity date)\n    function _requireValidMaturity(\n        uint256 currencyId,\n        uint256 maturity,\n        uint256 blockTime\n    ) private view {\n        require(\n            DateTime.isValidMaturity(CashGroup.getMaxMarketIndex(currencyId), maturity, blockTime),\n            \"Invalid maturity\"\n        );\n    }\n\n    /// @dev Internal asset transfer event between accounts\n    function _transfer(\n        address from,\n        address to,\n        PortfolioAsset[] memory assets\n    ) internal returns (AccountContext memory, AccountContext memory) {\n        AccountContext memory toContext = AccountContextHandler.getAccountContext(to);\n        AccountContext memory fromContext = AccountContextHandler.getAccountContext(from);\n        \n        // NOTE: context returned are in different memory locations\n        (fromContext, toContext) = SettleAssetsExternal.transferAssets(\n            from, to, fromContext, toContext, assets\n        );\n\n        fromContext.setAccountContext(from);\n        toContext.setAccountContext(to);\n\n        return (fromContext, toContext);\n    }\n\n    /// @dev Checks post transfer events which will either be initiating one of the batch trading events or a free collateral\n    /// check if required.\n    function _checkPostTransferEvent(\n        address from,\n        address to,\n        AccountContext memory fromContext,\n        AccountContext memory toContext,\n        bytes calldata data,\n        bool toTransferNegative\n    ) internal {\n        bytes4 sig = 0;\n        address transactedAccount = address(0);\n        if (data.length >= 32) {\n            // Method signature is not abi encoded so decode to bytes32 first and take the first 4 bytes. This works\n            // because all the methods we want to call below require more than 32 bytes in the calldata\n            bytes32 tmp = abi.decode(data, (bytes32));\n            sig = bytes4(tmp);\n        }\n\n        // These are the only four methods allowed to occur in a post transfer event. These actions allow `from`\n        // accounts to take any sort of trading action as a result of their transfer. All of these actions will\n        // handle checking free collateral so no additional check is necessary here.\n        if (\n            sig == NotionalProxy.nTokenRedeem.selector ||\n            sig == NotionalProxy.batchLend.selector ||\n            sig == NotionalProxy.batchBalanceAction.selector ||\n            sig == NotionalProxy.batchBalanceAndTradeAction.selector\n        ) {\n            transactedAccount = abi.decode(data[4:36], (address));\n            // Ensure that the \"transactedAccount\" parameter of the call is set to the from address or the\n            // to address. If it is the \"to\" address then ensure that the msg.sender has approval to\n            // execute operations\n            require(\n                transactedAccount == from ||\n                    (transactedAccount == to && isApprovedForAll(to, msg.sender)),\n                \"Unauthorized call\"\n            );\n\n            // We can only call back to Notional itself at this point, account context is already\n            // stored and all three of the whitelisted methods above will check free collateral.\n            (bool status, bytes memory result) = address(this).call{value: msg.value}(data);\n            require(status, _getRevertMsg(result));\n        }\n\n        // The transacted account will have its free collateral checked above so there is\n        // no need to recheck here.\n        // If transactedAccount == 0 then will check fc\n        // If transactedAccount == to then will check fc\n        // If transactedAccount == from then will skip, prefer call above\n        if (transactedAccount != from && fromContext.hasDebt != 0x00) {\n            FreeCollateralExternal.checkFreeCollateralAndRevert(from);\n        }\n\n        // Check free collateral if the `to` account has taken on a negative fCash amount\n        // If toTransferNegative is false then will not check\n        // If transactedAccount == 0 then will check fc\n        // If transactedAccount == from then will check fc\n        // If transactedAccount == to then will skip, prefer call above\n        if (toTransferNegative && transactedAccount != to && toContext.hasDebt != 0x00) {\n            FreeCollateralExternal.checkFreeCollateralAndRevert(to);\n        }\n    }\n\n    function _getRevertMsg(bytes memory _returnData) internal pure returns (string memory) {\n        // If the _res length is less than 68, then the transaction failed silently (without a revert message)\n        if (_returnData.length < 68) return \"Transaction reverted silently\";\n\n        assembly {\n            // Slice the sighash.\n            _returnData := add(_returnData, 0x04)\n        }\n        return abi.decode(_returnData, (string)); // All that remains is the revert string\n    }\n\n    /// @notice Allows an account to set approval for an operator\n    /// @param operator address of the operator\n    /// @param approved state of the approval\n    /// @dev emit:ApprovalForAll\n    function setApprovalForAll(address operator, bool approved) external override {\n        accountAuthorizedTransferOperator[msg.sender][operator] = approved;\n        emit ApprovalForAll(msg.sender, operator, approved);\n    }\n\n    /// @notice Checks approval state for an account, will first check if global transfer operator is enabled\n    /// before falling through to an account specific transfer operator.\n    /// @param account address of the account\n    /// @param operator address of the operator\n    /// @return true for approved\n    function isApprovedForAll(address account, address operator)\n        public\n        view\n        override\n        returns (bool)\n    {\n        if (globalTransferOperator[operator]) return true;\n\n        return accountAuthorizedTransferOperator[account][operator];\n    }\n\n    /// @notice Get a list of deployed library addresses (sorted by library name)\n    function getLibInfo() external pure returns (address, address) {\n        return (address(FreeCollateralExternal), address(SettleAssetsExternal));\n    }\n}\n","sourcePath":"contracts/external/actions/ERC1155Action.sol","type":"contract","deployment":{"address":"0xBE71FAf1Ab80eb98D2Abd7647151e72DdEb042B9","chainid":"42161","blockHeight":175128542}}