{"abi":[{"anonymous":false,"inputs":[{"indexed":true,"internalType":"address","name":"vault","type":"address"},{"indexed":true,"internalType":"address","name":"account","type":"address"},{"indexed":true,"internalType":"address","name":"liquidator","type":"address"},{"indexed":false,"internalType":"uint16","name":"currencyId","type":"uint16"},{"indexed":false,"internalType":"int256","name":"fCashDeposit","type":"int256"},{"indexed":false,"internalType":"int256","name":"cashToLiquidator","type":"int256"}],"name":"VaultAccountCashLiquidation","type":"event"},{"anonymous":false,"inputs":[{"indexed":true,"internalType":"address","name":"vault","type":"address"},{"indexed":true,"internalType":"address","name":"account","type":"address"},{"indexed":false,"internalType":"uint16","name":"currencyId","type":"uint16"},{"indexed":false,"internalType":"uint256","name":"vaultSharesToLiquidator","type":"uint256"},{"indexed":false,"internalType":"int256","name":"depositAmountPrimeCash","type":"int256"}],"name":"VaultDeleverageAccount","type":"event"},{"anonymous":false,"inputs":[{"indexed":true,"internalType":"address","name":"vault","type":"address"},{"indexed":true,"internalType":"address","name":"account","type":"address"},{"indexed":true,"internalType":"address","name":"liquidator","type":"address"},{"indexed":false,"internalType":"uint256","name":"vaultSharesToLiquidator","type":"uint256"},{"indexed":false,"internalType":"bool","name":"transferSharesToLiquidator","type":"bool"}],"name":"VaultLiquidatorProfit","type":"event"},{"inputs":[{"internalType":"address","name":"account","type":"address"},{"internalType":"address","name":"vault","type":"address"},{"internalType":"address","name":"liquidator","type":"address"},{"internalType":"uint16","name":"currencyIndex","type":"uint16"},{"internalType":"int256","name":"depositUnderlyingInternal","type":"int256"}],"name":"deleverageAccount","outputs":[{"internalType":"uint256","name":"vaultSharesToLiquidator","type":"uint256"},{"internalType":"int256","name":"depositAmountPrimeCash","type":"int256"}],"stateMutability":"payable","type":"function"},{"inputs":[],"name":"getLibInfo","outputs":[{"internalType":"address","name":"","type":"address"},{"internalType":"address","name":"","type":"address"}],"stateMutability":"pure","type":"function"},{"inputs":[{"internalType":"address","name":"account","type":"address"},{"internalType":"address","name":"vault","type":"address"},{"internalType":"address","name":"liquidator","type":"address"},{"internalType":"uint256","name":"excessCashIndex","type":"uint256"},{"internalType":"uint256","name":"debtIndex","type":"uint256"},{"internalType":"uint256","name":"_depositUnderlyingInternal","type":"uint256"}],"name":"liquidateExcessVaultCash","outputs":[{"internalType":"int256","name":"cashToLiquidator","type":"int256"}],"stateMutability":"payable","type":"function"},{"inputs":[{"internalType":"address","name":"account","type":"address"},{"internalType":"address","name":"vault","type":"address"},{"internalType":"address","name":"liquidator","type":"address"},{"internalType":"uint256","name":"currencyIndex","type":"uint256"},{"internalType":"int256","name":"fCashDeposit","type":"int256"}],"name":"liquidateVaultCashBalance","outputs":[{"internalType":"int256","name":"cashToLiquidator","type":"int256"}],"stateMutability":"nonpayable","type":"function"},{"inputs":[],"name":"owner","outputs":[{"internalType":"address","name":"","type":"address"}],"stateMutability":"view","type":"function"},{"inputs":[],"name":"pauseGuardian","outputs":[{"internalType":"address","name":"","type":"address"}],"stateMutability":"view","type":"function"},{"inputs":[],"name":"pauseRouter","outputs":[{"internalType":"address","name":"","type":"address"}],"stateMutability":"view","type":"function"}],"bytecode":"608060405234801561001057600080fd5b50615e8f80620000216000396000f3fe6080604052600436106100705760003560e01c80638da5cb5b1161004e5780638da5cb5b146100d55780639ab77186146100ea578063c4c96dae1461010a578063fcaf198b1461012d57610070565b806321bf8c661461007557806324a3d6221461009e57806382463367146100c0575b600080fd5b6100886100833660046155e2565b61014e565b6040516100959190615b1d565b60405180910390f35b3480156100aa57600080fd5b506100b36103f6565b6040516100959190615a48565b3480156100cc57600080fd5b506100b3610405565b3480156100e157600080fd5b506100b3610414565b3480156100f657600080fd5b50610088610105366004615588565b61042b565b34801561011657600080fd5b5061011f6105ba565b604051610095929190615a5c565b61014061013b36600461551f565b6105e8565b604051610095929190615d84565b60006002600a54141561016057600080fd5b6002600a556000806101738989896107c6565b50915091506101818261090f565b61018a57600080fd5b60006101958361093e565b60405163b14428b960e01b8152909150600090309063b14428b9906101c0908e908e90600401615a5c565b6101806040518083038186803b1580156101d957600080fd5b505afa1580156101ed573d6000803e3d6000fd5b505050506040513d601f19601f820116820180604052508101906102119190615822565b505090508060600151886003811061022557fe5b602002015160001261023657600080fd5b60008160600151886003811061024857fe5b60200201511261025757600080fd5b600061026585848b8b61099e565b9050600061027288610aac565b90506102bb6102b060646102aa85608001516102aa8760a001516102a48d6101c0015189610ac690919063ffffffff16565b90610ac6565b90610b1a565b604084015190610b4b565b96508683606001518b600381106102ce57fe5b602002015112156103285782606001518a600381106102e957fe5b602002015196506103258260a001516102aa886101c001516102aa60646102a488608001516102a48f8b60400151610b9390919063ffffffff16565b90505b606082015160009061033a9083610b4b565b9050600061034789610bc0565b905061035787898e846000610bce565b61036587898d856000610bce565b6103758e8e86600001518c610d33565b61038c8d8e86600001518488604001516000610dd9565b506103a28f8f86600001518a6020015185610e83565b6103b88d85602001518487606001516000610f1a565b506103c98d8f866020015185610d33565b6103de8f8f86602001518a6020015186610e83565b50506001600a5550949b9a5050505050505050505050565b6002546001600160a01b031681565b6001546001600160a01b031681565b60005464010000000090046001600160a01b031681565b60006002600a54141561043d57600080fd5b6002600a55600080806104518989896107c6565b9250925092506000610461615083565b6000808961048457505050506040830151610160840151835160808501516104a3565b60038a101561007057610498878b8f610f91565b929650909450925090505b602086015160405163f82f279d60e01b81526000918291309163f82f279d916104d2918a918890600401615c09565b604080518083038186803b1580156104e957600080fd5b505afa1580156104fd573d6000803e3d6000fd5b505050506040513d601f19601f820116820180604052508101906105219190615785565b909250905061053a6105338c8361102b565b8690610b4b565b9950828a131561054b57819a508299505b5050886000128015610565575061056182610bc0565b8913155b61056e57600080fd5b61057c868c8e878d8d61104b565b61058b8786888d8d60006111be565b6105a4878b6105998b610bc0565b899291906000610bce565b50506001600a5550939998505050505050505050565b73__FreeCollateralExternal________________73__SettleAssetsExternal__________________9091565b6000806002600a5414156105fb57600080fd5b6002600a55600361ffff85161061061157600080fd5b60008060006106218a8a8a6107c6565b92509250925061062f615083565b604051630c74db1f60e41b8152309063c74db1f09061065a908b908790899088908e90600401615c25565b60a060405180830381600087803b15801561067457600080fd5b505af1158015610688573d6000803e3d6000fd5b505050506040513d601f19601f820116820180604052508101906106ac91906157a8565b91985096509050600087136106c057600080fd5b6040840151600161ffff8a1614156106df5750610140840151516106f8565b8861ffff16600214156106f85750610140840151602001515b60006107078261ffff16611297565b90506107208b83610718848d6112aa565b8660006112e2565b9050809750506107398b8e8e8588600001518c896113a4565b61074f8b8e8e896040015188600001518d611489565b604085015161075e90896114d7565b6040860152602085015164ffffffffff141561078c576107878685878d61ffff168d60016111be565b600096505b61079e858761ffff8d168a6001610bce565b6107ae8b878a88602001516114ec565b5050505050506001600a819055509550959350505050565b6107ce6150a4565b6107d661513d565b6107de61517c565b6107e784611555565b846001600160a01b0316846001600160a01b0316141561080657600080fd5b6001600160a01b03861633141561081c57600080fd5b836001600160a01b0316866001600160a01b0316141561083b57600080fd5b610844856115d4565b9250610852836101006115ff565b1561085c57600080fd5b6108678360206115ff565b1561088657336001600160a01b0386161461088157600080fd5b61089b565b336001600160a01b0385161461089b57600080fd5b6108a58684611614565b9150816020015142106108d35760405162461bcd60e51b81526004016108ca90615b76565b60405180910390fd5b602082015164ffffffffff14156108f5576108ee82846116c3565b9050610906565b610903838360200151611708565b90505b93509350939050565b6101408101515160009061ffff1615158061093657506101408201516020015161ffff1615155b90505b919050565b6109466151a6565b6101408201515161ffff16156109705761014082015161096d9060005b6020020151611793565b81525b6101408201516020015161ffff161561093957610140820151610994906001610963565b6020820152919050565b6109a66151d3565b826109c65760408086015161ffff16825261016086015190820152610a00565b84610140015160018403600281106109da57fe5b602002015161ffff168152836000198401600281106109f557fe5b602002015160408201525b81610a2357604085015161ffff1660208201526101608501516060820152610a64565b8461014001516001830360028110610a3757fe5b6020908102919091015161ffff169082015283600019830160028110610a5957fe5b602002015160608201525b6000610a77826000015161ffff166117a5565b90506000610a8c836020015161ffff166117a5565b9050610a988282611908565b6080840152505160a0820152949350505050565b60006001600160ff1b03821115610ac257600080fd5b5090565b818102600019831415610af657811580610ae8575082828281610ae557fe5b05145b610af157600080fd5b610b14565b821580610b0b575081838281610b0857fe5b05145b610b1457600080fd5b92915050565b600081600019148015610b305750600160ff1b83145b15610b3a57600080fd5b818381610b4357fe5b059392505050565b81516000908190610b6f906102aa856ec097ce7bc90715b34b9f1000000000610ac6565b905060008312610b7f5780610b8b565b610b8b8160001961192d565b949350505050565b600080610b6f6ec097ce7bc90715b34b9f10000000006102aa866000015186610ac690919063ffffffff16565b600061093660001983610ac6565b6000610bd8611943565b60608701516001600160a01b039081166000908152602083815260408083208a5190941683529290522090915084610c5b576001810154610c3490610c2f90610c2a906001600160501b031687611950565b611966565b611975565b6001820180546001600160501b0319166001600160501b0392909216919091179055610d11565b8460011415610cb8576001810154610c8b90610c2f90610c2a90600160501b90046001600160501b031687611950565b81600101600a6101000a8154816001600160501b0302191690836001600160501b03160217905550610d11565b8460021415610070576001810154610ce890610c2f90610c2a90600160a01b90046001600160501b031687611950565b8160010160146101000a8154816001600160501b0302191690836001600160501b031602179055505b6000876080018181525050610d2a87878386600061198b565b50505050505050565b6000610d3d611bf9565b61ffff8416600090815260209190915260408120546001600160a01b03169150821215610d68579293925b806001600160a01b03166323de66518686610d8286611c06565b6040518463ffffffff1660e01b8152600401610da093929190615abb565b600060405180830381600087803b158015610dba57600080fd5b505af1158015610dce573d6000803e3d6000fd5b505050505050505050565b600083610de857506000610e79565b60008412610df557600080fd5b6000610e048661ffff16611297565b9050610e1981610e148688610b93565b6112aa565b91506000610e2683610bc0565b9050610e33878383611c27565b600382606001516005811115610e4557fe5b1415610e5b57610e56888286611d18565b610e68565b8151610e68908983611de6565b610e758988858589611e5d565b5050505b9695505050505050565b80610e8d57610f13565b6000610e9c858585600b611ea4565b90506000806000841215610eb557508690506000610ebc565b5060009050865b6000610ec785611c06565b9050816001600160a01b0316836001600160a01b0316336001600160a01b0316600080516020615e3a8339815191528785604051610f06929190615d84565b60405180910390a4505050505b5050505050565b600083610f2957506000610f88565b60008413610f3657600080fd5b6000610f458661ffff16611297565b90506000610f5c82610f578789610b93565b611eda565b90506000610f6d89898489896112e2565b90945090508681036000811215610f8357600080fd5b505050505b95945050505050565b6000610f9b615083565b6000806000610fa98861093e565b9050600080610fb98a8985611f17565b9250925050600080610fcf8a8d60000151611fab565b915091508b610140015160018c0360028110610fe757fe5b602002015198508460018c0360028110610ffd57fe5b602002015197508a600114611013578281611016565b83825b999d989c509a50979850959650505050505050565b600061104461103a8484610ac6565b633b9aca00610b1a565b9392505050565b606086015160208701516040516351586b3360e01b815260009273__SettleAssetsExternal__________________926351586b3392611098928b928b928b91908b908b90600401615a76565b60206040518083038186803b1580156110b057600080fd5b505af41580156110c4573d6000803e3d6000fd5b505050506040513d601f19601f820116820180604052508101906110e89190615765565b9050801561115857604051636ccc642f60e01b815273__FreeCollateralExternal________________90636ccc642f90611127908990600401615a48565b60006040518083038186803b15801561113f57600080fd5b505af4158015611153573d6000803e3d6000fd5b505050505b856001600160a01b031687606001516001600160a01b0316866001600160a01b03167f19b09f1f990520654bea0360dd08a2678d6926fd849dd49bc385862dc91af7538787876040516111ad93929190615c09565b60405180910390a450505050505050565b826111df576111d08486846000612001565b6111da858761206c565b61128f565b60006111ea8761093e565b905060008061122889886060015189602001518960011461120c57600061120e565b885b8a60021461121d57600061121f565b895b88600080612115565b915091508315610dce576000866001146112425781611244565b825b905080158061126e5750806000038a6101a00151600189036002811061126657fe5b602002015113155b61128a5760405162461bcd60e51b81526004016108ca90615be5565b505050505b505050505050565b61129f615213565b610936826001612347565b60006305f5e100836040015114156112c3575080610b14565b6110446305f5e1006102aa856040015185610ac690919063ffffffff16565b60008060006112f086611966565b90508061130457600080925092505061139a565b60006113138861ffff16611297565b905060038160600151600581111561132757fe5b141561136e5734821015611347576113428983340387611d18565b611366565b3482146113665760405162461bcd60e51b81526004016108ca90615b26565b869350611388565b61138561138082600001518b856123e1565b610aac565b93505b611395898986848a611e5d565b925050505b9550959350505050565b6113b087868685610d33565b60006113bf8686866000611ea4565b905064ffffffffff84141561143f5760006113ea6113e5846113e087610bc0565b61255f565b610bc0565b90508060001914156113fa575060005b60006001600160a01b03891633600080516020615e3a833981519152600a861761142386611966565b604051611431929190615d84565b60405180910390a45061147f565b6001600160a01b038716600033600080516020615e3a833981519152600b851761146888611966565b604051611476929190615d84565b60405180910390a45b5050505050505050565b60006114988585856009611ea4565b9050866001600160a01b0316866001600160a01b0316336001600160a01b0316600080516020615e3a83398151915284866040516111ad929190615d84565b6000828211156114e657600080fd5b50900390565b60006114f88585611614565b90508060200151600014806115105750818160200151145b61152c5760405162461bcd60e51b81526004016108ca90615b4b565b602081018290526040810151611542908461259e565b6040820152610f138185600160006125b0565b6001600160a01b03811661156857600080fd5b6001600160a01b038116610fee141561158057600080fd5b6001600160a01b0381166105e7141561159857600080fd5b6001600160a01b0381163014156115ae57600080fd5b60006115b982612640565b5050505061ffff169050806000146115d057600080fd5b5050565b6115dc6150a4565b6115e5826126ac565b90506115f48160400151611793565b610160820152919050565b60209190910151811661ffff90811691161490565b61161c61513d565b6000611626611943565b6001600160a01b038086166000818152602084815260408083208951909516835293815290839020805464ffffffffff600160a01b8204169288018390526001600160501b03600160501b8204811695890195909552606088019390935260018101548416608088015263ffffffff600160c81b84041660a0880152610160880151949550936116b89390921661289a565b835250909392505050565b6116cb61517c565b6116fd836116ee6113e58660000151866101600151610b4b90919063ffffffff16565b602086015185929190426128d0565b506110448383612999565b61171061517c565b600061171a612a11565b84516001600160a01b031660009081526020828152604080832087845290915290819020858552805460ff600160f01b820416151560608701526001600160501b03600160a01b8204811693870193909352610160880151939450909261178592909187911661289a565b602084015250909392505050565b61179b615083565b6109368242612a1e565b6117ad61523a565b60006117b7612adf565b60008481526020829052604081209192508060018614156117e45750670de0b6b3a76400009050806118a7565b825460408051633fabe5a360e21b815290516001600160a01b039092169163feaf968c9160048082019260a092909190829003018186803b15801561182857600080fd5b505afa15801561183c573d6000803e3d6000fd5b505050506040513d601f19601f82011682018060405250810190611860919061591f565b5091935050600083139150611876905057600080fd5b825460ff600160a01b82048116600a0a9350600160a81b90910416156118a7576118a4816102aa8480610ac6565b90505b8254600160b01b900460ff1660968113156118c75760951901600a026096015b6040805160a081018252938452602084019290925290820152905460ff600160b81b820481166060840152600160c01b909104166080820152915050919050565b600061104482602001516102aa84600001518660200151610ac690919063ffffffff16565b600081831261193c5781611044565b5090919050565b600080610b146016612ae8565b81810182811215600083121514610b1457600080fd5b600080821215610ac257600080fd5b60006001600160501b03821115610ac257600080fd5b60808501511561199a57600080fd5b606084015185516119aa90610bc0565b1280156119b45750815b156119e857845115806119cc57506001856040015111155b6119e85760405162461bcd60e51b81526004016108ca90615be5565b6119f18461090f565b15611a90576000611a00612b01565b60608701516001600160a01b03908116600090815260209283526040808220895190931682529183522080549188015190925064ffffffffff90911690811480611a48575080155b611a5157600080fd5b80611a8d578154600160281b90046001600160501b0316158015611a8457508154600160781b90046001600160501b0316155b611a8d57600080fd5b50505b6000611ab0610c2a6113e587610160015189602001518a60000151612b0e565b90508115611b39576040805160e08101825285546001600160501b038082168352600160501b80830482166020850152600160a01b80840464ffffffffff1695850195909552600160c81b90920463ffffffff16606084015260018801548082166080850152918204811660a084015292900490911660c0820152611b39908790879084612b2c565b611b468660400151611975565b84546001600160501b0391909116600160501b0269ffffffffffffffffffff60501b199091161784556020860151611b7d90613001565b845464ffffffffff91909116600160a01b0264ffffffffff60a01b1990911617845560a0860151611bad90613015565b845463ffffffff91909116600160c81b0263ffffffff60c81b19909116178455611bd681611975565b84546001600160501b0319166001600160501b0391909116179093555050505050565b600080610b146021612ae8565b600080821215611c2057611c1982610bc0565b9050610939565b5080610939565b6000611c31613028565b83516001600160a01b0316600090815260208290526040902054909150808311611c5c575050611d13565b6000611c6786613035565b90506000816001600160a01b031663b5e4da238487036040518263ffffffff1660e01b8152600401611c999190615b1d565b60006040518083038186803b158015611cb157600080fd5b505afa158015611cc5573d6000803e3d6000fd5b505050506040513d6000823e601f3d908101601f19168201604052611ced9190810190615646565b90506000611cfb8783613065565b9050611d07848261259e565b86111561147f57600080fd5b505050565b8015611daa577382af49447d8a07e3bd95bd0d56f35241523fbab16001600160a01b031663d0e30db0836040518263ffffffff1660e01b81526004016000604051808303818588803b158015611d6d57600080fd5b505af1158015611d81573d6000803e3d6000fd5b5050505050611da57382af49447d8a07e3bd95bd0d56f35241523fbab18484611de6565b611d13565b6040516001600160a01b0384169083156108fc029084906000818181858888f19350505050158015611de0573d6000803e3d6000fd5b50505050565b826001600160a01b031663a9059cbb83836040518363ffffffff1660e01b815260040180836001600160a01b0316815260200182815260200192505050600060405180830381600087803b158015611e3d57600080fd5b505af1158015611e51573d6000803e3d6000fd5b50505050611d136132a8565b600080611e6a8486613315565b9050611e768382610b4b565b9150611e83878784613345565b611e8e8683836133c5565b8351611e9a90866134c9565b5095945050505050565b68010000000000000000600160e01b03604085901b1667ffff000000000000603085901b1617600883901b178117949350505050565b60006305f5e10083604001511215611f0857611f016001611efb85856112aa565b90611950565b9050610b14565b61104483610e14846001611950565b600080600080611f25612b01565b6001600160a01b038781166000908152602092835260408082208b5190931682529190925290208054865164ffffffffff82169650919250611f7991908690600160281b90046001600160501b031661289a565b9250611f9f856001602002015182548690600160781b90046001600160501b031661289a565b91505093509350939050565b6000806000611fb8611943565b6001600160a01b0395861660009081526020918252604080822096909716815294905250505020600101546001600160501b03600160501b8204811692600160a01b9092041690565b82516020850151146120195783511561201957600080fd5b60808401516120289082611950565b608085015283516120399083611950565b8085526000121561204957600080fd5b60208301516120589083611950565b6020840181905260001215611de057600080fd5b6000612076612a11565b82516001600160a01b0316600090815260208281526040808320875184529091529081902090850151919250906120ac90611975565b81546060860151801515600160f01b0260ff60f01b196001600160501b0394909416600160a01b0269ffffffffffffffffffff60a01b199093169290921792909216178255610160840151604085015186516020880151611de09486949389939092909161351e565b6000806000612122612b01565b6001600160a01b03808c166000908152602092835260408082208f519093168252919092529020805490915064ffffffffff1689811480612161575080155b61216a57600080fd5b8651825461218a91908c90600160281b90046001600160501b031661289a565b93506121b0876001602002015183548c90600160781b90046001600160501b031661289a565b92508815612238576121c2848a611950565b93506121f18c8c8e61014001516000600281106121db57fe5b60200201518d8d8c60005b60200201518b6135fd565b61220c610c2f610c2a6113e58a600060200201518e89612b0e565b82546001600160501b0391909116600160281b026effffffffffffffffffff0000000000199091161782555b87156122b5576122488389611950565b92506122708c8c8e610140015160016002811061226157fe5b60200201518d8c8c60016121e6565b61228b610c2f610c2a6113e58a600160200201518e88612b0e565b82546001600160501b0391909116600160781b0269ffffffffffffffffffff60781b199091161782555b8515612324578315806122d257506101a08c015151600085900312155b6122ee5760405162461bcd60e51b81526004016108ca90615bc1565b82158061230857506101a08c015160200151600084900312155b6123245760405162461bcd60e51b81526004016108ca90615bc1565b6123388285856123338e613001565b6136cb565b50509850989650505050505050565b61234f615213565b6000612359613709565b6000858152602082815260408083208715158452825291829020825160a08101845281546001600160a01b038116825260ff600160a01b82048116151594830194909452600160b01b81048416600a0a9482019490945293945092916060830191600160a81b9091041660058111156123ce57fe5b8152600060209091015295945050505050565b600080846001600160a01b03166370a08231306040518263ffffffff1660e01b815260040180826001600160a01b0316815260200191505060206040518083038186803b15801561243157600080fd5b505afa158015612445573d6000803e3d6000fd5b505050506040513d602081101561245b57600080fd5b5051604080516323b872dd60e01b81526001600160a01b038781166004830152306024830152604482018790529151929350908716916323b872dd9160648082019260009290919082900301818387803b1580156124b857600080fd5b505af11580156124cc573d6000803e3d6000fd5b505050506124d86132a8565b6000856001600160a01b03166370a08231306040518263ffffffff1660e01b815260040180826001600160a01b0316815260200191505060206040518083038186803b15801561252757600080fd5b505afa15801561253b573d6000803e3d6000fd5b505050506040513d602081101561255157600080fd5b50519050610e7981836114d7565b60008082121561259857612593600161258d85602001516102aa876000015187610ac690919063ffffffff16565b90613716565b611044565b50919050565b60008282018381101561104457600080fd5b60006125ba611943565b60608601516001600160a01b0390811660009081526020838152604080832089519094168352929052209091506125f4868683878761198b565b6001810180546001600160501b03191690819055600160501b90046001600160501b031615801561263757506001810154600160a01b90046001600160501b0316155b61128f57600080fd5b60008060008060008061265161372c565b6001600160a01b039097166000908152602097909752505060409094205461ffff81169563ffffffff620100008304811696506601000000000000830416945060ff600160501b8304169350600160581b90910460d01b9150565b6126b46150a4565b60006126be613739565b6001600160a01b03841660008181526020838152604091829020928652825461ffff80821692880192909252620100009004169085015290915061271a612710633b9aca008354600160501b900460ff16919005600502613746565b6080840152805461273990600160401b900461ffff16620186a0613746565b60a0840152805461275890600160701b900461ffff16620186a0613746565b61012084015260028101546127749061ffff16620186a0613746565b610180840152805460649060ff600160581b90910416633b9aca00020560c08401528054600160601b810460ff90811660e0860152600160681b909104166101008401526040805180820191829052906001830190600290826000855b82829054906101000a900461ffff1661ffff16815260200190600201906020826001010492830192600103820291508084116127d157505050505061014085019190915250600481015460ff166101c0840152805461283d90640100000000900463ffffffff1661376d565b60608401526128736003820160005b600891828204019190066004029054906101000a900463ffffffff1663ffffffff1661376d565b6101a08401515261288860038201600161284c565b6101a084015160200152509092915050565b600064ffffffffff83146128ba57816001600160501b0316600003610b8b565b610b8b846001600160501b03841660000361377b565b60006128df86868686866137c6565b905060006128ff60646102aa8960e0015185610ac690919063ffffffff16565b9050600061290d8383613716565b905061291d88604001518361385c565b61292b886040015182613893565b64ffffffffff85141561296357612963886000015189604001518561295e878d610160015161255f90919063ffffffff16565b6138d7565b6129778860000151896040015183856139df565b60808701516129869084613716565b6080909701969096525095945050505050565b6129a161517c565b602083015164ffffffffff146129b657600080fd5b6129c58264ffffffffff611708565b9050600083608001511215612a0757612a0783826129f58660800151866101600151610b9390919063ffffffff16565b612a028760800151610bc0565b612001565b610b14818361206c565b600080610b146015612ae8565b612a26615083565b6000612a3184613acf565b90508281600001511015612a7057600080612a4b86613b97565b9050612a5986848388613c14565b9093509150612a69868385613cb8565b5050612a7d565b80518314612a7d57600080fd5b6040518060600160405280612aa66113808460a001518560c0015161374690919063ffffffff16565b8152602001612ac96113808460a001518560e0015161374690919063ffffffff16565b8152602001826060015181525091505092915050565b600080610b1460105b6000620f4240826026811115612afa57fe5b0192915050565b600080610b14601a612ae8565b600064ffffffffff8314612b225781610b8b565b610b8b8483613ee9565b6040805160028082526060820183526000926020830190803683375050604080516002808252606082018352939450600093909250906020830190803683370190505090506000612b9386600001518760400151876040015164ffffffffff166000611ea4565b9050600a60ff16811783600081518110612ba957fe5b602002602001018181525050600960ff16811783600181518110612bc957fe5b602002602001018181525050866020015160001480612c0c5750604085015164ffffffffff1615801590612c0c57508660200151856040015164ffffffffff1614155b15612cae5784600001516001600160501b031682600081518110612c2c57fe5b60200260200101818152505084602001516001600160501b031682600181518110612c5357fe5b60200260200101818152505060006001600160a01b031687606001516001600160a01b0316336001600160a01b0316600080516020615e1a8339815191528686604051612ca1929190615af8565b60405180910390a4612eab565b846040015164ffffffffff1687602001511415612eab5784516000906001600160501b0316851080612cf0575085602001516001600160501b03168860400151105b90508015612dc05785516001600160501b03168510612d10576000612d1f565b85516001600160501b03168590035b83600081518110612d2c57fe5b602002602001018181525050612d5c886040015187602001516001600160501b03166114d790919063ffffffff16565b83600181518110612d6957fe5b60200260200101818152505060006001600160a01b031688606001516001600160a01b0316336001600160a01b0316600080516020615e1a8339815191528787604051612db7929190615af8565b60405180910390a45b801580612dd6575085516001600160501b031685115b15612ea9578551612df19086906001600160501b03166114d7565b83600081518110612dfe57fe5b602002602001018181525050876040015186602001516001600160501b031610612e29576000612e45565b60208601516040890151612e45916001600160501b03166114d7565b83600181518110612e5257fe5b60200260200101818152505087606001516001600160a01b031660006001600160a01b0316336001600160a01b0316600080516020615e1a8339815191528787604051612ea0929190615af8565b60405180910390a45b505b602087015115801590612ecd57508660200151856040015164ffffffffff1614155b15612fb3576000612eed876000015188604001518a602001516000611ea4565b9050600a60ff16811784600081518110612f0357fe5b602002602001018181525050600960ff16811784600181518110612f2357fe5b6020026020010181815250508483600081518110612f3d57fe5b602002602001018181525050876040015183600181518110612f5b57fe5b60200260200101818152505087606001516001600160a01b031660006001600160a01b0316336001600160a01b0316600080516020615e1a8339815191528787604051612fa9929190615af8565b60405180910390a4505b60808501516001600160501b031615610d2a57606087015160808601516040516000926001600160a01b0316913391600080516020615e3a833981519152916111ad91600b88179190615da8565b600064ffffffffff821115610ac257600080fd5b600063ffffffff821115610ac257600080fd5b600080610b146026612ae8565b600080613040613f45565b61ffff939093166000908152602093909352505060409020546001600160a01b031690565b6000805b82518110156132a157600083828151811061308057fe5b60200260200101519050600081606001516001600160a01b03166370a08231306040518263ffffffff1660e01b81526004016130bc9190615a48565b60206040518083038186803b1580156130d457600080fd5b505afa1580156130e8573d6000803e3d6000fd5b505050506040513d601f19601f8201168201806040525081019061310c9190615907565b9050600061311a8730613f52565b905060005b83515181101561316b576131638460000151828151811061313c57fe5b602002602001015160008660200151848151811061315657fe5b6020026020010151613ffc565b60010161311f565b5060006131788830613f52565b9050600061318682846114d7565b9050808560400151111561319957600080fd5b60608501516040516370a0823160e01b81526000916001600160a01b0316906370a08231906131cc903090600401615a48565b60206040518083038186803b1580156131e457600080fd5b505afa1580156131f8573d6000803e3d6000fd5b505050506040513d601f19601f8201168201806040525081019061321c9190615907565b90508481111561322b57600080fd5b608086015160ff161580159061324a575061324685826114d7565b8214155b1561326557608086015161326290829060ff1661259e565b90505b61327486606001518683614139565b61327e888361259e565b975061328f8a600001518585614139565b50506001909401935061306992505050565b5092915050565b60006132b2615269565b3d80156132c657602081146132cf57600080fd5b600192506132da565b60206000833e815192505b50816115d0576040805162461bcd60e51b8152602060048201526005602482015264045524332360dc1b604482015290519081900360640190fd5b60006305f5e1008360400151141561332e575080610b14565b6040830151611044906102aa846305f5e100610ac6565b600061334f611bf9565b61ffff8416600090815260209190915260409081902054905163ad1c095d60e01b81526001600160a01b039091169150819063ad1c095d906133979087908690600401615adf565b600060405180830381600087803b1580156133b157600080fd5b505af115801561147f573d6000803e3d6000fd5b60006133cf6141b6565b61ffff8516600090815260209190915260409020805490915064ffffffffff1642146133fa57600080fd5b805460009061341990600160281b90046001600160581b031685611950565b825490915060009061343b90600160801b90046001600160581b031685611950565b905080624c4b40131561344d57600080fd5b61345e61345982611966565b6141c3565b83546001600160581b0391909116600160801b026affffffffffffffffffffff60801b1990911617835561349461345983611966565b83546001600160581b0391909116600160281b026fffffffffffffffffffffff00000000001990911617835561128f836141d9565b60006134d3613028565b6001600160a01b0384166000908152602082905260409020549091506134fc610c2a8285611950565b6001600160a01b03909416600090815260209290925250604090209190915550565b86546001600160501b031660009081039061353a888686612b0e565b905061354b610c2f610c2a83610bc0565b89546001600160501b0319166001600160501b03919091161789556000613572838361429e565b9050600064ffffffffff871415613599578851613592908b908a85614325565b50846135d0565b846135d05788516135ad9089898787614352565b88516135c290896135bd85610bc0565b614412565b6135cd898b8a6144e8565b90505b6000821380156135de575084155b156135f05788516135f090898361458e565b5050505050505050505050565b600061360761460a565b88516001600160a01b0316600090815260209182526040808220888352835280822061ffff8a168352909252908120805490925061365190859088906001600160501b031661289a565b905061365d8186611950565b905061366f82858b8a8a86600061351e565b60008086138015613684575064ffffffffff87145b156136a65761369f6113e5868961369a8a610bc0565b612b0e565b90506136b4565b6136b1858888612b0e565b90505b831561128a5761128a898b600001518a8a85614617565b821580156136d7575081155b156136ed57835464ffffffffff19168455611de0565b835464ffffffffff191664ffffffffff91909116179092555050565b600080610b146007612ae8565b80820382811315600083121514610b1457600080fd5b600080610b146002612ae8565b600080610b146014612ae8565b60008261375557506000610b14565b8282028284828161376257fe5b041461104457600080fd5b600881901c60ff9091161b90565b60006001821261378a57600080fd5b8161379757506000610b14565b611044600161258d6ec097ce7bc90715b34b9f10000000006102aa876020015187610ac690919063ffffffff16565b60008064ffffffffff84141561381857602086015164ffffffffff146137f0576000915050610f88565b61380a6113808760a00151856114d790919063ffffffff16565b60a087018490529050613828565b61382561138085856114d7565b90505b6080870151600090613844906301da9c00906102aa9085610ac6565b9050613850868261102b565b98975050505050505050565b600081121561386a57600080fd5b6000613878610fee84614679565b90506138848183611950565b9050611d13610fee84836146d2565b60008112156138a157600080fd5b60006138b08361ffff16614746565b905060006138be8285614679565b90506138ca8184611950565b9050611de08285836146d2565b60006138e1611bf9565b61ffff8516600090815260209190915260408120546001600160a01b0316915061390961476c565b61ffff8616600090815260209190915260409081902054905163ad1c095d60e01b81526001600160a01b039091169150819063ad1c095d906139519089908790600401615adf565b600060405180830381600087803b15801561396b57600080fd5b505af115801561397f573d6000803e3d6000fd5b505060405163ad1c095d60e01b81526001600160a01b038516925063ad1c095d91506139b19089908890600401615adf565b600060405180830381600087803b1580156139cb57600080fd5b505af115801561128a573d6000803e3d6000fd5b60006139e9611bf9565b61ffff8516600090815260209190915260408120546001600160a01b03169150613a11614779565b61ffff8616600090815260209190915260409020546001600160a01b03908116915082166323de665187610fee613a4787611966565b6040518463ffffffff1660e01b8152600401613a6593929190615abb565b600060405180830381600087803b158015613a7f57600080fd5b505af1158015613a93573d6000803e3d6000fd5b50505050816001600160a01b03166323de66518783613ab188611966565b6040518463ffffffff1660e01b81526004016139b193929190615abb565b613ad7615287565b6000613ae16141b6565b61ffff93841660009081526020918252604090819020805464ffffffffff81168652600160281b81046001600160581b03908116948701949094526001820154841692860192909252600160d81b820463ffffffff166060860152600160801b9091049091166080840152600201546001600160501b0380821660a0850152600160501b8204811660c0850152600160a01b82041660e0840152600160f01b900460ff1661012c02909216610100820152919050565b600080613ba383613035565b6001600160a01b031663ef81f2166040518163ffffffff1660e01b81526004016040805180830381600087803b158015613bdc57600080fd5b505af1158015613bf0573d6000803e3d6000fd5b505050506040513d601f19601f82011682018060405250810190610b8b9190615785565b613c1c615287565b6000806000613c2c888689614786565b60c08b019290925260e08a019290925260208901519193509150613c50908361259e565b6020880152608087015160009015613c7e576080880151613c7b90613c7589826114d7565b90614897565b90505b613c9e613c93670de0b6b3a76400008361259e565b60a08a0151906148b4565b60a089015250506080860194909452505082529092909150565b6000613cc26141b6565b60008561ffff1681526020019081526020016000209050613ce68260000151613001565b815464ffffffffff191664ffffffffff9190911617815560a0820151613d0b90611975565b6002820180546001600160501b0319166001600160501b039290921691909117905560c0820151613d3b90611975565b81600201600a6101000a8154816001600160501b0302191690836001600160501b03160217905550613d708260e00151611975565b8160020160146101000a8154816001600160501b0302191690836001600160501b03160217905550613da582602001516141c3565b81546001600160581b0391909116600160281b026fffffffffffffffffffffff0000000000199091161781556040820151613ddf906141c3565b6001820180546affffffffffffffffffffff19166001600160581b03929092169190911790556080820151613e13906141c3565b81546001600160581b0391909116600160801b026affffffffffffffffffffff60801b199091161781556060820151613e4b90613015565b815463ffffffff91909116600160d81b0263ffffffff60d81b199091161781558215613e97576000613e7c84610aac565b9050613e88858261385c565b613e95610fee8683613345565b505b8361ffff167fef25641e225e493886510ca1ad6584fa7b442b9fea820a29d1de3ce27d270fd28360a001518460c001518560e00151604051613edb93929190615d92565b60405180910390a250505050565b600081600013158015613efc5750600a82125b15613f0957506000610b14565b60008212613f1657600080fd5b611044600161258d85602001516102aa6ec097ce7bc90715b34b9f100000000087610ac690919063ffffffff16565b600080610b14601f612ae8565b6000600383606001516005811115613f6657fe5b1415613f7d57506001600160a01b03811631610b14565b82516040516370a0823160e01b81526001600160a01b03909116906370a0823190613fac908590600401615a48565b60206040518083038186803b158015613fc457600080fd5b505afa158015613fd8573d6000803e3d6000fd5b505050506040513d601f19601f82011682018060405250810190611f019190615907565b600080846001600160a01b031684846040518082805190602001908083835b6020831061403a5780518252601f19909201916020918201910161401b565b6001836020036101000a03801982511681845116808217855250505050505090500191505060006040518083038185875af1925050503d806000811461409c576040519150601f19603f3d011682016040523d82523d6000602084013e6140a1565b606091505b5091509150816140b0826148d1565b9061128f5760405162461bcd60e51b81526004018080602001828103825283818151815260200191508051906020019080838360005b838110156140fe5781810151838201526020016140e6565b50505050905090810190601f16801561412b5780820380516001836020036101000a031916815260200191505b509250505060405180910390fd5b6000614143613028565b6001600160a01b0385166000908152602082905260409020549091508381111561416c57600080fd5b600061418361417a86610aac565b61258d86610aac565b9050614192610c2a8383611950565b6001600160a01b039096166000908152602093909352505060409020929092555050565b600080610b14601d612ae8565b60006001600160581b03821115610ac257600080fd5b8054600282015460009161421591600160281b9091046001600160581b0316906102a4906001600160501b03600160501b820481169116610ac6565b6001830154600284015491925060009161424f916001600160581b0316906102a4906001600160501b03600160a01b820481169116610ac6565b83549091506000906142869060016001600160581b03600160801b909204821601166ec097ce7bc90715b34b9f1000000000610ac6565b9050806142938484613716565b1315611de057600080fd5b6000818314806142bb5750600083121580156142bb575060008212155b156142c857506000610b14565b600083131580156142d95750816000125b156142e5575081610b14565b600082131580156142f65750826000125b1561430457611f0182610bc0565b60008313158015614316575060008213155b1561007057611f018383613716565b8015611de05783516020850151600091614344916102aa908590610ac6565b9050610f13848484846149d8565b600061435e838361429e565b90508061436b5750610f13565b6000614375614b15565b61ffff87166000908152602082815260408083208984529091528120549192506001600160501b039091168103906143ad8285613716565b905060008113156143bd57600080fd5b6143cc610c2f610c2a83610bc0565b61ffff89166000908152602085815260408083208b8452909152902080546001600160501b0319166001600160501b0392909216919091179055610dce89898987614b22565b600061441c614b88565b6001600160a01b03851660009081526020918252604080822061ffff87168352909252908120805490925061446190600160501b90046001600160501b031684613716565b905061446f610c2f82611966565b82546001600160501b0391909116600160501b0269ffffffffffffffffffff60501b1990911617825560405161ffff8516906001600160a01b038716907f20478ef460e49d010960d4f3fff35d8dae385443abfac09035d6a2ccbcd834c4906144d9908590615b1d565b60405180910390a35050505050565b600080846040015161ffff168361ffff16141561453457614507612a11565b85516001600160a01b031660009081526020918252604080822064ffffffffff8352909252209050614571565b61453c61460a565b85516001600160a01b031660009081526020918252604080822064ffffffffff8352835280822061ffff871683529092522090505b8054610f8890859064ffffffffff906001600160501b031661289a565b6000614598614b88565b6001600160a01b03851660009081526020918252604080822061ffff8716835290925290812080549092506145dd90600160501b90046001600160501b031684613716565b82549091506001600160501b0316811315610f135760405162461bcd60e51b81526004016108ca90615b9b565b600080610b146018612ae8565b8061462157610f13565b60008080614632878787600a611ea4565b905060008413156146495787925060009150614651565b600092508791505b6001600160a01b0380831690841633600080516020615e3a8339815191528461146889611c06565b600080614684614b95565b6001600160a01b03851660009081526020828152604080832061ffff8816845290915281208054600160a81b9004600a90810b900b94509192508312156146ca57600080fd5b505092915050565b60008112156146e057600080fd5b60006146ea614b95565b6001600160a01b03851660009081526020828152604080832061ffff88168452909152902090915061471b83614ba2565b8154600a9190910b6001600160581b0316600160a81b026001600160a81b0390911617905550505050565b600080614751614779565b6000938452602052505060409020546001600160a01b031690565b600080610b146022612ae8565b600080610b146003612ae8565b6000806000806000806147998988614bd4565b895190955091935091506000906147c0906147b5908b906114d7565b633b9aca0090613746565b90506147fa6147ef6301da9c006147d78585613746565b816147de57fe5b670de0b6b3a764000091900461259e565b60e08a0151906148b4565b965061481c6148116301da9c006147d78785613746565b60c08a0151906148b4565b95508183141561483357506000935061488e915050565b600061485561484a6301da9c006147d78786613746565b60e08b0151906148b4565b9050600061486389836114d7565b905061488688614880838d6040015161374690919063ffffffff16565b90614c6f565b965050505050505b93509350935093565b60006110446148ae84670de0b6b3a7640000613746565b83614c6f565b60006110446148c38484613746565b670de0b6b3a7640000614c6f565b6060604482511015614907575060408051808201909152600d81526c14da5b195b9d0814995d995c9d609a1b6020820152610939565b600482018051909260240190602081101561492157600080fd5b810190808051604051939291908464010000000082111561494157600080fd5b90830190602082018581111561495657600080fd5b825164010000000081118282018810171561497057600080fd5b82525081516020918201929091019080838360005b8381101561499d578181015183820152602001614985565b50505050905090810190601f1680156149ca5780820380516001836020036101000a031916815260200191505b506040525050509050919050565b60006149e26141b6565b61ffff8516600090815260209190915260409020805490915064ffffffffff164214614a0d57600080fd5b8054600160f81b900460ff16614a2257600080fd5b6001810154600090614a3d906001600160581b031685611950565b8254909150600090614a5f90600160281b90046001600160581b031685611950565b905081600919128015614a725750600082125b15614a7c57600091505b80600919128015614a8d5750600081125b15614a96575060005b614aa261345983611966565b6001840180546affffffffffffffffffffff19166001600160581b0392909216919091179055614ad461345982611966565b83546001600160581b0391909116600160281b026fffffffffffffffffffffff000000000019909116178355614b0c878786886138d7565b610d2a836141d9565b600080610b146020612ae8565b600080614b30858585614c8e565b915091506000806000851215614b4857879150614b4b565b50865b806001600160a01b0316826001600160a01b0316336001600160a01b0316600080516020615e1a8339815191528787604051611476929190615af8565b600080610b146017612ae8565b600080610b146006612ae8565b60006a7fffffffffffffffffffff198212801590614bcb57506a7fffffffffffffffffffff8213155b610ac257600080fd5b600080600080600085602001511115614c2157614c1e614c058660c00151876020015161374690919063ffffffff16565b60e08701516040880151614c1891613746565b90614d73565b90505b6000614c2c87614d86565b9050614c388183614db9565b94508115614c4f57614c4c81866001614e72565b93505b602086015115614c6657614c638583614eec565b92505b50509250925092565b6000808211614c7d57600080fd5b818381614c8657fe5b049392505050565b604080516002808252606082810190935282916000918160200160208202803683370190505090506000614cc28787614f05565b90508082600081518110614cd257fe5b602002602001018181525050600160401b811782600181518110614cf257fe5b602090810291909101015260408051600280825260608201909252600091816020016020820280368337019050509050614d2b86611c06565b81600081518110614d3857fe5b602002602001018181525050614d4d86611c06565b81600181518110614d5a57fe5b6020908102919091010152919791965090945050505050565b60006110446148ae84633b9aca00613746565b614d8e6152d3565b6000614d98614f23565b61ffff84166000908152602091909152604081205491506110449082614f30565b600080836080015111614dcb57600080fd5b633b9aca00821115614ddc57600080fd5b82518211614dfb5782516040840151611f019190614880908590613746565b82602001518211614e39576040830151835160208501516060860151611f019392614e33928190039161488091880390859003613746565b9061259e565b6110448360600151614e338560200151633b9aca000361488087606001518860800151038860200151880361374690919063ffffffff16565b600080614e9160646148808760e001518761374690919063ffffffff16565b90508460a00151811015614ea6575060a08401515b8460c00151811115614eb9575060c08401515b8215614ed057614ec9848261259e565b9150614ee4565b838111614edf57808403610f88565b600091505b509392505050565b6000611044614efb8484613746565b633b9aca00614c6f565b67ffff000000000000603083901b16600882901b1760011792915050565b600080610b14601b612ae8565b614f386152d3565b6064633b9aca008360ff861660208110614f4e57fe5b1a0281614f5757fe5b0481526064633b9aca008360ff861660010160208110614f7357fe5b1a0281614f7c57fe5b04816020018181525050614fa18260028560ff160160208110614f9b57fe5b1a61504f565b60808201819052610100908360ff861660030160208110614fbe57fe5b1a0281614fc757fe5b0460408201526080810151610100908360ff861660040160208110614fe857fe5b1a0281614ff157fe5b0460608201526207a1208260ff85166005016020811061500d57fe5b1a0260a0820152622625a08260ff85166006016020811061502a57fe5b1a0260c08201528160ff84166007016020811061504357fe5b1a60e082015292915050565b60008160ff1660961061506a5760ff8216622625a002610936565b5060951960ff919091160162e4e1c00263165a0bc00190565b60405180606001604052806000815260200160008152602001600081525090565b604051806101e0016040528060006001600160a01b03168152602001600061ffff168152602001600061ffff1681526020016000815260200160008152602001600081526020016000815260200160008152602001600081526020016000815260200161510f615318565b815260200161511c615083565b815260200160008152602001615130615318565b8152602001600081525090565b6040518060c0016040528060008152602001600081526020016000815260200160006001600160a01b0316815260200160008152602001600081525090565b60405180608001604052806000815260200160008152602001600081526020016000151581525090565b60405180604001604052806002905b6151bd615083565b8152602001906001900390816151b55790505090565b6040805160c081018252600080825260208201529081016151f2615083565b81526020016151ff615083565b815260200160008152602001600081525090565b6040805160a081018252600080825260208201819052918101829052906060820190615130565b6040518060a0016040528060008152602001600081526020016000815260200160008152602001600081525090565b60405180602001604052806001906020820280368337509192915050565b6040518061012001604052806000815260200160008152602001600081526020016000815260200160008152602001600081526020016000815260200160008152602001600081525090565b60405180610100016040528060008152602001600081526020016000815260200160008152602001600081526020016000815260200160008152602001600081525090565b60405180604001604052806002906020820280368337509192915050565b805161093981615e01565b600082601f830112615351578081fd5b8151602061536661536183615de3565b615dbf565b8281528181019085830183850287018401881015615382578586fd5b855b858110156153a957815161539781615e01565b84529284019290840190600101615384565b5090979650505050505050565b6000601f83818401126153c7578182fd5b825160206153d761536183615de3565b82815281810190868301865b8581101561547c57815189018a603f8201126153fd578889fd5b8581015167ffffffffffffffff81111561541357fe5b615424818a01601f19168801615dbf565b81815260408d81848601011115615439578b8cfd5b8b5b83811015615456578481018201518382018b0152890161543b565b83811115615466578c8a85850101525b50508652505092840192908401906001016153e3565b509098975050505050505050565b600082601f83011261549a578081fd5b6040516060810181811067ffffffffffffffff821117156154b757fe5b6040528083606081018610156154cb578384fd5b835b60038110156154ec5781518352602092830192909101906001016154cd565b509195945050505050565b80516001600160501b038116811461093957600080fd5b805160ff8116811461093957600080fd5b600080600080600060a08688031215615536578081fd5b853561554181615e01565b9450602086013561555181615e01565b9350604086013561556181615e01565b9250606086013561ffff81168114615577578182fd5b949793965091946080013592915050565b600080600080600060a0868803121561559f578283fd5b85356155aa81615e01565b945060208601356155ba81615e01565b935060408601356155ca81615e01565b94979396509394606081013594506080013592915050565b60008060008060008060c087890312156155fa578384fd5b863561560581615e01565b9550602087013561561581615e01565b9450604087013561562581615e01565b959894975094956060810135955060808101359460a0909101359350915050565b60006020808385031215615658578182fd5b825167ffffffffffffffff8082111561566f578384fd5b818501915085601f830112615682578384fd5b815161569061536182615de3565b81815284810190848601875b84811015615756578151870160a0818d03601f190112156156bb57898afd5b6040805160a081018181108a821117156156d157fe5b8252828b0151898111156156e3578c8dfd5b6156f18f8d83870101615341565b8252508183015189811115615704578c8dfd5b6157128f8d838701016153b6565b8c8301525060608301518282015261572c60808401615336565b606082015261573d60a0840161550e565b608082015286525050928701929087019060010161569c565b50909998505050505050505050565b600060208284031215615776578081fd5b81518015158114611044578182fd5b60008060408385031215615797578182fd5b505080516020909101519092909150565b600080600083850360a08112156157bd578182fd5b84519350602085015192506060603f19820112156157d9578182fd5b506040516060810181811067ffffffffffffffff821117156157f757fe5b8060405250604085015181526060850151602082015260808501516040820152809150509250925092565b600080600083850361018080821215615839578283fd5b60c0821215615846578283fd5b60405191506080820182811067ffffffffffffffff8211171561586557fe5b806040525085518252602080870151818401526040870151604084015261588f886060890161548a565b60608401528295506158a48860c0890161548a565b94508761013f8801126158b5578384fd5b6158bf6060615dbf565b925082610120880189848a0111156158d5578586fd5b8593505b60038410156158f85780518552938201936001939093019282016158d9565b50809450505050509250925092565b600060208284031215615918578081fd5b5051919050565b600080600080600060a08688031215615936578283fd5b61593f866154f7565b9450602086015193506040860151925060608601519150615962608087016154f7565b90509295509295909350565b6001600160a01b03169052565b8060005b6002811015611de057815184526020938401939091019060010161597f565b8060005b6002811015611de057815161ffff168452602093840193909101906001016159a2565b6000815180845260208085019450808401835b838110156159f4578151875295820195908201906001016159d8565b509495945050505050565b8051825260208082015190830152604090810151910152565b8051825260208101516020830152604081015160408301526060810151151560608301525050565b61ffff169052565b6001600160a01b0391909116815260200190565b6001600160a01b0392831681529116602082015260400190565b6001600160a01b039788168152958716602087015293909516604085015261ffff919091166060840152608083015260a082019290925260c081019190915260e00190565b6001600160a01b039384168152919092166020820152604081019190915260600190565b6001600160a01b03929092168252602082015260400190565b600060408252615b0b60408301856159c5565b8281036020840152610f8881856159c5565b90815260200190565b6020808252600b908201526a4554482042616c616e636560a81b604082015260600190565b60208082526011908201527009ac2e8eae4d2e8f2409ad2e6dac2e8c6d607b1b604082015260600190565b6020808252600b908201526a4d75737420536574746c6560a81b604082015260600190565b6020808252600c908201526b4d617820436170616369747960a01b604082015260600190565b6020808252600a90820152696d696e20626f72726f7760b01b604082015260600190565b6020808252600a90820152694d696e20426f72726f7760b01b604082015260600190565b61ffff9390931683526020830191909152604082015260600190565b60006103e08201905061ffff8716825285516020830152602086015160408301526040860151606083015260018060a01b036060870151166080830152608086015160a083015260a086015160c0830152615c8460e08301865161596e565b6020850151610100615c9881850183615a40565b60408701519150610120615cae81860184615a40565b60608801519250610140838187015260808901519350610160848188015260a08a01519450610180858189015260c08b015195506101a086818a015260e08c015196506101c087818b0152868d01516101e08b0152858d01516102008b0152848d01519750615d216102208b018961599e565b838d01519750615d356102608b01896159ff565b828d01516102c08b0152818d01519750615d536102e08b018961597b565b808d01516103208b01525050505050505050615d73610340830185615a18565b826103c08301529695505050505050565b918252602082015260400190565b9283526020830191909152604082015260600190565b9182526001600160501b0316602082015260400190565b60405181810167ffffffffffffffff81118282101715615ddb57fe5b604052919050565b600067ffffffffffffffff821115615df757fe5b5060209081020190565b6001600160a01b0381168114615e1657600080fd5b5056fe4a39dc06d4c0dbc64b70af90fd698a233a518aa5d07e595d983b8c0526c8f7fbc3d58168c5ae7397731d063d5bbf3d657854427343f4c083240f7aacaa2d0f62a26469706673582212205a48ad24c8d232ee61c8466cfc8209689c845d17cba5e36fc1e15da3c0fc4c4a64736f6c63430007060033","bytecodeSha1":"75b3b57f5c58df9856da616d013b5b79f677796e","compiler":{"evm_version":"istanbul","optimizer":{"enabled":true,"runs":200},"version":"0.7.6+commit.7338295f"},"contractName":"VaultLiquidationAction","deployedBytecode":"6080604052600436106100705760003560e01c80638da5cb5b1161004e5780638da5cb5b146100d55780639ab77186146100ea578063c4c96dae1461010a578063fcaf198b1461012d57610070565b806321bf8c661461007557806324a3d6221461009e57806382463367146100c0575b600080fd5b6100886100833660046155e2565b61014e565b6040516100959190615b1d565b60405180910390f35b3480156100aa57600080fd5b506100b36103f6565b6040516100959190615a48565b3480156100cc57600080fd5b506100b3610405565b3480156100e157600080fd5b506100b3610414565b3480156100f657600080fd5b50610088610105366004615588565b61042b565b34801561011657600080fd5b5061011f6105ba565b604051610095929190615a5c565b61014061013b36600461551f565b6105e8565b604051610095929190615d84565b60006002600a54141561016057600080fd5b6002600a556000806101738989896107c6565b50915091506101818261090f565b61018a57600080fd5b60006101958361093e565b60405163b14428b960e01b8152909150600090309063b14428b9906101c0908e908e90600401615a5c565b6101806040518083038186803b1580156101d957600080fd5b505afa1580156101ed573d6000803e3d6000fd5b505050506040513d601f19601f820116820180604052508101906102119190615822565b505090508060600151886003811061022557fe5b602002015160001261023657600080fd5b60008160600151886003811061024857fe5b60200201511261025757600080fd5b600061026585848b8b61099e565b9050600061027288610aac565b90506102bb6102b060646102aa85608001516102aa8760a001516102a48d6101c0015189610ac690919063ffffffff16565b90610ac6565b90610b1a565b604084015190610b4b565b96508683606001518b600381106102ce57fe5b602002015112156103285782606001518a600381106102e957fe5b602002015196506103258260a001516102aa886101c001516102aa60646102a488608001516102a48f8b60400151610b9390919063ffffffff16565b90505b606082015160009061033a9083610b4b565b9050600061034789610bc0565b905061035787898e846000610bce565b61036587898d856000610bce565b6103758e8e86600001518c610d33565b61038c8d8e86600001518488604001516000610dd9565b506103a28f8f86600001518a6020015185610e83565b6103b88d85602001518487606001516000610f1a565b506103c98d8f866020015185610d33565b6103de8f8f86602001518a6020015186610e83565b50506001600a5550949b9a5050505050505050505050565b6002546001600160a01b031681565b6001546001600160a01b031681565b60005464010000000090046001600160a01b031681565b60006002600a54141561043d57600080fd5b6002600a55600080806104518989896107c6565b9250925092506000610461615083565b6000808961048457505050506040830151610160840151835160808501516104a3565b60038a101561007057610498878b8f610f91565b929650909450925090505b602086015160405163f82f279d60e01b81526000918291309163f82f279d916104d2918a918890600401615c09565b604080518083038186803b1580156104e957600080fd5b505afa1580156104fd573d6000803e3d6000fd5b505050506040513d601f19601f820116820180604052508101906105219190615785565b909250905061053a6105338c8361102b565b8690610b4b565b9950828a131561054b57819a508299505b5050886000128015610565575061056182610bc0565b8913155b61056e57600080fd5b61057c868c8e878d8d61104b565b61058b8786888d8d60006111be565b6105a4878b6105998b610bc0565b899291906000610bce565b50506001600a5550939998505050505050505050565b73__$841fddfe32830bb6dbc3a02d7f16c53722$__73__$f6541b0d362a0c7d99a2a29cd3d373d61b$__9091565b6000806002600a5414156105fb57600080fd5b6002600a55600361ffff85161061061157600080fd5b60008060006106218a8a8a6107c6565b92509250925061062f615083565b604051630c74db1f60e41b8152309063c74db1f09061065a908b908790899088908e90600401615c25565b60a060405180830381600087803b15801561067457600080fd5b505af1158015610688573d6000803e3d6000fd5b505050506040513d601f19601f820116820180604052508101906106ac91906157a8565b91985096509050600087136106c057600080fd5b6040840151600161ffff8a1614156106df5750610140840151516106f8565b8861ffff16600214156106f85750610140840151602001515b60006107078261ffff16611297565b90506107208b83610718848d6112aa565b8660006112e2565b9050809750506107398b8e8e8588600001518c896113a4565b61074f8b8e8e896040015188600001518d611489565b604085015161075e90896114d7565b6040860152602085015164ffffffffff141561078c576107878685878d61ffff168d60016111be565b600096505b61079e858761ffff8d168a6001610bce565b6107ae8b878a88602001516114ec565b5050505050506001600a819055509550959350505050565b6107ce6150a4565b6107d661513d565b6107de61517c565b6107e784611555565b846001600160a01b0316846001600160a01b0316141561080657600080fd5b6001600160a01b03861633141561081c57600080fd5b836001600160a01b0316866001600160a01b0316141561083b57600080fd5b610844856115d4565b9250610852836101006115ff565b1561085c57600080fd5b6108678360206115ff565b1561088657336001600160a01b0386161461088157600080fd5b61089b565b336001600160a01b0385161461089b57600080fd5b6108a58684611614565b9150816020015142106108d35760405162461bcd60e51b81526004016108ca90615b76565b60405180910390fd5b602082015164ffffffffff14156108f5576108ee82846116c3565b9050610906565b610903838360200151611708565b90505b93509350939050565b6101408101515160009061ffff1615158061093657506101408201516020015161ffff1615155b90505b919050565b6109466151a6565b6101408201515161ffff16156109705761014082015161096d9060005b6020020151611793565b81525b6101408201516020015161ffff161561093957610140820151610994906001610963565b6020820152919050565b6109a66151d3565b826109c65760408086015161ffff16825261016086015190820152610a00565b84610140015160018403600281106109da57fe5b602002015161ffff168152836000198401600281106109f557fe5b602002015160408201525b81610a2357604085015161ffff1660208201526101608501516060820152610a64565b8461014001516001830360028110610a3757fe5b6020908102919091015161ffff169082015283600019830160028110610a5957fe5b602002015160608201525b6000610a77826000015161ffff166117a5565b90506000610a8c836020015161ffff166117a5565b9050610a988282611908565b6080840152505160a0820152949350505050565b60006001600160ff1b03821115610ac257600080fd5b5090565b818102600019831415610af657811580610ae8575082828281610ae557fe5b05145b610af157600080fd5b610b14565b821580610b0b575081838281610b0857fe5b05145b610b1457600080fd5b92915050565b600081600019148015610b305750600160ff1b83145b15610b3a57600080fd5b818381610b4357fe5b059392505050565b81516000908190610b6f906102aa856ec097ce7bc90715b34b9f1000000000610ac6565b905060008312610b7f5780610b8b565b610b8b8160001961192d565b949350505050565b600080610b6f6ec097ce7bc90715b34b9f10000000006102aa866000015186610ac690919063ffffffff16565b600061093660001983610ac6565b6000610bd8611943565b60608701516001600160a01b039081166000908152602083815260408083208a5190941683529290522090915084610c5b576001810154610c3490610c2f90610c2a906001600160501b031687611950565b611966565b611975565b6001820180546001600160501b0319166001600160501b0392909216919091179055610d11565b8460011415610cb8576001810154610c8b90610c2f90610c2a90600160501b90046001600160501b031687611950565b81600101600a6101000a8154816001600160501b0302191690836001600160501b03160217905550610d11565b8460021415610070576001810154610ce890610c2f90610c2a90600160a01b90046001600160501b031687611950565b8160010160146101000a8154816001600160501b0302191690836001600160501b031602179055505b6000876080018181525050610d2a87878386600061198b565b50505050505050565b6000610d3d611bf9565b61ffff8416600090815260209190915260408120546001600160a01b03169150821215610d68579293925b806001600160a01b03166323de66518686610d8286611c06565b6040518463ffffffff1660e01b8152600401610da093929190615abb565b600060405180830381600087803b158015610dba57600080fd5b505af1158015610dce573d6000803e3d6000fd5b505050505050505050565b600083610de857506000610e79565b60008412610df557600080fd5b6000610e048661ffff16611297565b9050610e1981610e148688610b93565b6112aa565b91506000610e2683610bc0565b9050610e33878383611c27565b600382606001516005811115610e4557fe5b1415610e5b57610e56888286611d18565b610e68565b8151610e68908983611de6565b610e758988858589611e5d565b5050505b9695505050505050565b80610e8d57610f13565b6000610e9c858585600b611ea4565b90506000806000841215610eb557508690506000610ebc565b5060009050865b6000610ec785611c06565b9050816001600160a01b0316836001600160a01b0316336001600160a01b0316600080516020615e3a8339815191528785604051610f06929190615d84565b60405180910390a4505050505b5050505050565b600083610f2957506000610f88565b60008413610f3657600080fd5b6000610f458661ffff16611297565b90506000610f5c82610f578789610b93565b611eda565b90506000610f6d89898489896112e2565b90945090508681036000811215610f8357600080fd5b505050505b95945050505050565b6000610f9b615083565b6000806000610fa98861093e565b9050600080610fb98a8985611f17565b9250925050600080610fcf8a8d60000151611fab565b915091508b610140015160018c0360028110610fe757fe5b602002015198508460018c0360028110610ffd57fe5b602002015197508a600114611013578281611016565b83825b999d989c509a50979850959650505050505050565b600061104461103a8484610ac6565b633b9aca00610b1a565b9392505050565b606086015160208701516040516351586b3360e01b815260009273__$f6541b0d362a0c7d99a2a29cd3d373d61b$__926351586b3392611098928b928b928b91908b908b90600401615a76565b60206040518083038186803b1580156110b057600080fd5b505af41580156110c4573d6000803e3d6000fd5b505050506040513d601f19601f820116820180604052508101906110e89190615765565b9050801561115857604051636ccc642f60e01b815273__$841fddfe32830bb6dbc3a02d7f16c53722$__90636ccc642f90611127908990600401615a48565b60006040518083038186803b15801561113f57600080fd5b505af4158015611153573d6000803e3d6000fd5b505050505b856001600160a01b031687606001516001600160a01b0316866001600160a01b03167f19b09f1f990520654bea0360dd08a2678d6926fd849dd49bc385862dc91af7538787876040516111ad93929190615c09565b60405180910390a450505050505050565b826111df576111d08486846000612001565b6111da858761206c565b61128f565b60006111ea8761093e565b905060008061122889886060015189602001518960011461120c57600061120e565b885b8a60021461121d57600061121f565b895b88600080612115565b915091508315610dce576000866001146112425781611244565b825b905080158061126e5750806000038a6101a00151600189036002811061126657fe5b602002015113155b61128a5760405162461bcd60e51b81526004016108ca90615be5565b505050505b505050505050565b61129f615213565b610936826001612347565b60006305f5e100836040015114156112c3575080610b14565b6110446305f5e1006102aa856040015185610ac690919063ffffffff16565b60008060006112f086611966565b90508061130457600080925092505061139a565b60006113138861ffff16611297565b905060038160600151600581111561132757fe5b141561136e5734821015611347576113428983340387611d18565b611366565b3482146113665760405162461bcd60e51b81526004016108ca90615b26565b869350611388565b61138561138082600001518b856123e1565b610aac565b93505b611395898986848a611e5d565b925050505b9550959350505050565b6113b087868685610d33565b60006113bf8686866000611ea4565b905064ffffffffff84141561143f5760006113ea6113e5846113e087610bc0565b61255f565b610bc0565b90508060001914156113fa575060005b60006001600160a01b03891633600080516020615e3a833981519152600a861761142386611966565b604051611431929190615d84565b60405180910390a45061147f565b6001600160a01b038716600033600080516020615e3a833981519152600b851761146888611966565b604051611476929190615d84565b60405180910390a45b5050505050505050565b60006114988585856009611ea4565b9050866001600160a01b0316866001600160a01b0316336001600160a01b0316600080516020615e3a83398151915284866040516111ad929190615d84565b6000828211156114e657600080fd5b50900390565b60006114f88585611614565b90508060200151600014806115105750818160200151145b61152c5760405162461bcd60e51b81526004016108ca90615b4b565b602081018290526040810151611542908461259e565b6040820152610f138185600160006125b0565b6001600160a01b03811661156857600080fd5b6001600160a01b038116610fee141561158057600080fd5b6001600160a01b0381166105e7141561159857600080fd5b6001600160a01b0381163014156115ae57600080fd5b60006115b982612640565b5050505061ffff169050806000146115d057600080fd5b5050565b6115dc6150a4565b6115e5826126ac565b90506115f48160400151611793565b610160820152919050565b60209190910151811661ffff90811691161490565b61161c61513d565b6000611626611943565b6001600160a01b038086166000818152602084815260408083208951909516835293815290839020805464ffffffffff600160a01b8204169288018390526001600160501b03600160501b8204811695890195909552606088019390935260018101548416608088015263ffffffff600160c81b84041660a0880152610160880151949550936116b89390921661289a565b835250909392505050565b6116cb61517c565b6116fd836116ee6113e58660000151866101600151610b4b90919063ffffffff16565b602086015185929190426128d0565b506110448383612999565b61171061517c565b600061171a612a11565b84516001600160a01b031660009081526020828152604080832087845290915290819020858552805460ff600160f01b820416151560608701526001600160501b03600160a01b8204811693870193909352610160880151939450909261178592909187911661289a565b602084015250909392505050565b61179b615083565b6109368242612a1e565b6117ad61523a565b60006117b7612adf565b60008481526020829052604081209192508060018614156117e45750670de0b6b3a76400009050806118a7565b825460408051633fabe5a360e21b815290516001600160a01b039092169163feaf968c9160048082019260a092909190829003018186803b15801561182857600080fd5b505afa15801561183c573d6000803e3d6000fd5b505050506040513d601f19601f82011682018060405250810190611860919061591f565b5091935050600083139150611876905057600080fd5b825460ff600160a01b82048116600a0a9350600160a81b90910416156118a7576118a4816102aa8480610ac6565b90505b8254600160b01b900460ff1660968113156118c75760951901600a026096015b6040805160a081018252938452602084019290925290820152905460ff600160b81b820481166060840152600160c01b909104166080820152915050919050565b600061104482602001516102aa84600001518660200151610ac690919063ffffffff16565b600081831261193c5781611044565b5090919050565b600080610b146016612ae8565b81810182811215600083121514610b1457600080fd5b600080821215610ac257600080fd5b60006001600160501b03821115610ac257600080fd5b60808501511561199a57600080fd5b606084015185516119aa90610bc0565b1280156119b45750815b156119e857845115806119cc57506001856040015111155b6119e85760405162461bcd60e51b81526004016108ca90615be5565b6119f18461090f565b15611a90576000611a00612b01565b60608701516001600160a01b03908116600090815260209283526040808220895190931682529183522080549188015190925064ffffffffff90911690811480611a48575080155b611a5157600080fd5b80611a8d578154600160281b90046001600160501b0316158015611a8457508154600160781b90046001600160501b0316155b611a8d57600080fd5b50505b6000611ab0610c2a6113e587610160015189602001518a60000151612b0e565b90508115611b39576040805160e08101825285546001600160501b038082168352600160501b80830482166020850152600160a01b80840464ffffffffff1695850195909552600160c81b90920463ffffffff16606084015260018801548082166080850152918204811660a084015292900490911660c0820152611b39908790879084612b2c565b611b468660400151611975565b84546001600160501b0391909116600160501b0269ffffffffffffffffffff60501b199091161784556020860151611b7d90613001565b845464ffffffffff91909116600160a01b0264ffffffffff60a01b1990911617845560a0860151611bad90613015565b845463ffffffff91909116600160c81b0263ffffffff60c81b19909116178455611bd681611975565b84546001600160501b0319166001600160501b0391909116179093555050505050565b600080610b146021612ae8565b600080821215611c2057611c1982610bc0565b9050610939565b5080610939565b6000611c31613028565b83516001600160a01b0316600090815260208290526040902054909150808311611c5c575050611d13565b6000611c6786613035565b90506000816001600160a01b031663b5e4da238487036040518263ffffffff1660e01b8152600401611c999190615b1d565b60006040518083038186803b158015611cb157600080fd5b505afa158015611cc5573d6000803e3d6000fd5b505050506040513d6000823e601f3d908101601f19168201604052611ced9190810190615646565b90506000611cfb8783613065565b9050611d07848261259e565b86111561147f57600080fd5b505050565b8015611daa577382af49447d8a07e3bd95bd0d56f35241523fbab16001600160a01b031663d0e30db0836040518263ffffffff1660e01b81526004016000604051808303818588803b158015611d6d57600080fd5b505af1158015611d81573d6000803e3d6000fd5b5050505050611da57382af49447d8a07e3bd95bd0d56f35241523fbab18484611de6565b611d13565b6040516001600160a01b0384169083156108fc029084906000818181858888f19350505050158015611de0573d6000803e3d6000fd5b50505050565b826001600160a01b031663a9059cbb83836040518363ffffffff1660e01b815260040180836001600160a01b0316815260200182815260200192505050600060405180830381600087803b158015611e3d57600080fd5b505af1158015611e51573d6000803e3d6000fd5b50505050611d136132a8565b600080611e6a8486613315565b9050611e768382610b4b565b9150611e83878784613345565b611e8e8683836133c5565b8351611e9a90866134c9565b5095945050505050565b68010000000000000000600160e01b03604085901b1667ffff000000000000603085901b1617600883901b178117949350505050565b60006305f5e10083604001511215611f0857611f016001611efb85856112aa565b90611950565b9050610b14565b61104483610e14846001611950565b600080600080611f25612b01565b6001600160a01b038781166000908152602092835260408082208b5190931682529190925290208054865164ffffffffff82169650919250611f7991908690600160281b90046001600160501b031661289a565b9250611f9f856001602002015182548690600160781b90046001600160501b031661289a565b91505093509350939050565b6000806000611fb8611943565b6001600160a01b0395861660009081526020918252604080822096909716815294905250505020600101546001600160501b03600160501b8204811692600160a01b9092041690565b82516020850151146120195783511561201957600080fd5b60808401516120289082611950565b608085015283516120399083611950565b8085526000121561204957600080fd5b60208301516120589083611950565b6020840181905260001215611de057600080fd5b6000612076612a11565b82516001600160a01b0316600090815260208281526040808320875184529091529081902090850151919250906120ac90611975565b81546060860151801515600160f01b0260ff60f01b196001600160501b0394909416600160a01b0269ffffffffffffffffffff60a01b199093169290921792909216178255610160840151604085015186516020880151611de09486949389939092909161351e565b6000806000612122612b01565b6001600160a01b03808c166000908152602092835260408082208f519093168252919092529020805490915064ffffffffff1689811480612161575080155b61216a57600080fd5b8651825461218a91908c90600160281b90046001600160501b031661289a565b93506121b0876001602002015183548c90600160781b90046001600160501b031661289a565b92508815612238576121c2848a611950565b93506121f18c8c8e61014001516000600281106121db57fe5b60200201518d8d8c60005b60200201518b6135fd565b61220c610c2f610c2a6113e58a600060200201518e89612b0e565b82546001600160501b0391909116600160281b026effffffffffffffffffff0000000000199091161782555b87156122b5576122488389611950565b92506122708c8c8e610140015160016002811061226157fe5b60200201518d8c8c60016121e6565b61228b610c2f610c2a6113e58a600160200201518e88612b0e565b82546001600160501b0391909116600160781b0269ffffffffffffffffffff60781b199091161782555b8515612324578315806122d257506101a08c015151600085900312155b6122ee5760405162461bcd60e51b81526004016108ca90615bc1565b82158061230857506101a08c015160200151600084900312155b6123245760405162461bcd60e51b81526004016108ca90615bc1565b6123388285856123338e613001565b6136cb565b50509850989650505050505050565b61234f615213565b6000612359613709565b6000858152602082815260408083208715158452825291829020825160a08101845281546001600160a01b038116825260ff600160a01b82048116151594830194909452600160b01b81048416600a0a9482019490945293945092916060830191600160a81b9091041660058111156123ce57fe5b8152600060209091015295945050505050565b600080846001600160a01b03166370a08231306040518263ffffffff1660e01b815260040180826001600160a01b0316815260200191505060206040518083038186803b15801561243157600080fd5b505afa158015612445573d6000803e3d6000fd5b505050506040513d602081101561245b57600080fd5b5051604080516323b872dd60e01b81526001600160a01b038781166004830152306024830152604482018790529151929350908716916323b872dd9160648082019260009290919082900301818387803b1580156124b857600080fd5b505af11580156124cc573d6000803e3d6000fd5b505050506124d86132a8565b6000856001600160a01b03166370a08231306040518263ffffffff1660e01b815260040180826001600160a01b0316815260200191505060206040518083038186803b15801561252757600080fd5b505afa15801561253b573d6000803e3d6000fd5b505050506040513d602081101561255157600080fd5b50519050610e7981836114d7565b60008082121561259857612593600161258d85602001516102aa876000015187610ac690919063ffffffff16565b90613716565b611044565b50919050565b60008282018381101561104457600080fd5b60006125ba611943565b60608601516001600160a01b0390811660009081526020838152604080832089519094168352929052209091506125f4868683878761198b565b6001810180546001600160501b03191690819055600160501b90046001600160501b031615801561263757506001810154600160a01b90046001600160501b0316155b61128f57600080fd5b60008060008060008061265161372c565b6001600160a01b039097166000908152602097909752505060409094205461ffff81169563ffffffff620100008304811696506601000000000000830416945060ff600160501b8304169350600160581b90910460d01b9150565b6126b46150a4565b60006126be613739565b6001600160a01b03841660008181526020838152604091829020928652825461ffff80821692880192909252620100009004169085015290915061271a612710633b9aca008354600160501b900460ff16919005600502613746565b6080840152805461273990600160401b900461ffff16620186a0613746565b60a0840152805461275890600160701b900461ffff16620186a0613746565b61012084015260028101546127749061ffff16620186a0613746565b610180840152805460649060ff600160581b90910416633b9aca00020560c08401528054600160601b810460ff90811660e0860152600160681b909104166101008401526040805180820191829052906001830190600290826000855b82829054906101000a900461ffff1661ffff16815260200190600201906020826001010492830192600103820291508084116127d157505050505061014085019190915250600481015460ff166101c0840152805461283d90640100000000900463ffffffff1661376d565b60608401526128736003820160005b600891828204019190066004029054906101000a900463ffffffff1663ffffffff1661376d565b6101a08401515261288860038201600161284c565b6101a084015160200152509092915050565b600064ffffffffff83146128ba57816001600160501b0316600003610b8b565b610b8b846001600160501b03841660000361377b565b60006128df86868686866137c6565b905060006128ff60646102aa8960e0015185610ac690919063ffffffff16565b9050600061290d8383613716565b905061291d88604001518361385c565b61292b886040015182613893565b64ffffffffff85141561296357612963886000015189604001518561295e878d610160015161255f90919063ffffffff16565b6138d7565b6129778860000151896040015183856139df565b60808701516129869084613716565b6080909701969096525095945050505050565b6129a161517c565b602083015164ffffffffff146129b657600080fd5b6129c58264ffffffffff611708565b9050600083608001511215612a0757612a0783826129f58660800151866101600151610b9390919063ffffffff16565b612a028760800151610bc0565b612001565b610b14818361206c565b600080610b146015612ae8565b612a26615083565b6000612a3184613acf565b90508281600001511015612a7057600080612a4b86613b97565b9050612a5986848388613c14565b9093509150612a69868385613cb8565b5050612a7d565b80518314612a7d57600080fd5b6040518060600160405280612aa66113808460a001518560c0015161374690919063ffffffff16565b8152602001612ac96113808460a001518560e0015161374690919063ffffffff16565b8152602001826060015181525091505092915050565b600080610b1460105b6000620f4240826026811115612afa57fe5b0192915050565b600080610b14601a612ae8565b600064ffffffffff8314612b225781610b8b565b610b8b8483613ee9565b6040805160028082526060820183526000926020830190803683375050604080516002808252606082018352939450600093909250906020830190803683370190505090506000612b9386600001518760400151876040015164ffffffffff166000611ea4565b9050600a60ff16811783600081518110612ba957fe5b602002602001018181525050600960ff16811783600181518110612bc957fe5b602002602001018181525050866020015160001480612c0c5750604085015164ffffffffff1615801590612c0c57508660200151856040015164ffffffffff1614155b15612cae5784600001516001600160501b031682600081518110612c2c57fe5b60200260200101818152505084602001516001600160501b031682600181518110612c5357fe5b60200260200101818152505060006001600160a01b031687606001516001600160a01b0316336001600160a01b0316600080516020615e1a8339815191528686604051612ca1929190615af8565b60405180910390a4612eab565b846040015164ffffffffff1687602001511415612eab5784516000906001600160501b0316851080612cf0575085602001516001600160501b03168860400151105b90508015612dc05785516001600160501b03168510612d10576000612d1f565b85516001600160501b03168590035b83600081518110612d2c57fe5b602002602001018181525050612d5c886040015187602001516001600160501b03166114d790919063ffffffff16565b83600181518110612d6957fe5b60200260200101818152505060006001600160a01b031688606001516001600160a01b0316336001600160a01b0316600080516020615e1a8339815191528787604051612db7929190615af8565b60405180910390a45b801580612dd6575085516001600160501b031685115b15612ea9578551612df19086906001600160501b03166114d7565b83600081518110612dfe57fe5b602002602001018181525050876040015186602001516001600160501b031610612e29576000612e45565b60208601516040890151612e45916001600160501b03166114d7565b83600181518110612e5257fe5b60200260200101818152505087606001516001600160a01b031660006001600160a01b0316336001600160a01b0316600080516020615e1a8339815191528787604051612ea0929190615af8565b60405180910390a45b505b602087015115801590612ecd57508660200151856040015164ffffffffff1614155b15612fb3576000612eed876000015188604001518a602001516000611ea4565b9050600a60ff16811784600081518110612f0357fe5b602002602001018181525050600960ff16811784600181518110612f2357fe5b6020026020010181815250508483600081518110612f3d57fe5b602002602001018181525050876040015183600181518110612f5b57fe5b60200260200101818152505087606001516001600160a01b031660006001600160a01b0316336001600160a01b0316600080516020615e1a8339815191528787604051612fa9929190615af8565b60405180910390a4505b60808501516001600160501b031615610d2a57606087015160808601516040516000926001600160a01b0316913391600080516020615e3a833981519152916111ad91600b88179190615da8565b600064ffffffffff821115610ac257600080fd5b600063ffffffff821115610ac257600080fd5b600080610b146026612ae8565b600080613040613f45565b61ffff939093166000908152602093909352505060409020546001600160a01b031690565b6000805b82518110156132a157600083828151811061308057fe5b60200260200101519050600081606001516001600160a01b03166370a08231306040518263ffffffff1660e01b81526004016130bc9190615a48565b60206040518083038186803b1580156130d457600080fd5b505afa1580156130e8573d6000803e3d6000fd5b505050506040513d601f19601f8201168201806040525081019061310c9190615907565b9050600061311a8730613f52565b905060005b83515181101561316b576131638460000151828151811061313c57fe5b602002602001015160008660200151848151811061315657fe5b6020026020010151613ffc565b60010161311f565b5060006131788830613f52565b9050600061318682846114d7565b9050808560400151111561319957600080fd5b60608501516040516370a0823160e01b81526000916001600160a01b0316906370a08231906131cc903090600401615a48565b60206040518083038186803b1580156131e457600080fd5b505afa1580156131f8573d6000803e3d6000fd5b505050506040513d601f19601f8201168201806040525081019061321c9190615907565b90508481111561322b57600080fd5b608086015160ff161580159061324a575061324685826114d7565b8214155b1561326557608086015161326290829060ff1661259e565b90505b61327486606001518683614139565b61327e888361259e565b975061328f8a600001518585614139565b50506001909401935061306992505050565b5092915050565b60006132b2615269565b3d80156132c657602081146132cf57600080fd5b600192506132da565b60206000833e815192505b50816115d0576040805162461bcd60e51b8152602060048201526005602482015264045524332360dc1b604482015290519081900360640190fd5b60006305f5e1008360400151141561332e575080610b14565b6040830151611044906102aa846305f5e100610ac6565b600061334f611bf9565b61ffff8416600090815260209190915260409081902054905163ad1c095d60e01b81526001600160a01b039091169150819063ad1c095d906133979087908690600401615adf565b600060405180830381600087803b1580156133b157600080fd5b505af115801561147f573d6000803e3d6000fd5b60006133cf6141b6565b61ffff8516600090815260209190915260409020805490915064ffffffffff1642146133fa57600080fd5b805460009061341990600160281b90046001600160581b031685611950565b825490915060009061343b90600160801b90046001600160581b031685611950565b905080624c4b40131561344d57600080fd5b61345e61345982611966565b6141c3565b83546001600160581b0391909116600160801b026affffffffffffffffffffff60801b1990911617835561349461345983611966565b83546001600160581b0391909116600160281b026fffffffffffffffffffffff00000000001990911617835561128f836141d9565b60006134d3613028565b6001600160a01b0384166000908152602082905260409020549091506134fc610c2a8285611950565b6001600160a01b03909416600090815260209290925250604090209190915550565b86546001600160501b031660009081039061353a888686612b0e565b905061354b610c2f610c2a83610bc0565b89546001600160501b0319166001600160501b03919091161789556000613572838361429e565b9050600064ffffffffff871415613599578851613592908b908a85614325565b50846135d0565b846135d05788516135ad9089898787614352565b88516135c290896135bd85610bc0565b614412565b6135cd898b8a6144e8565b90505b6000821380156135de575084155b156135f05788516135f090898361458e565b5050505050505050505050565b600061360761460a565b88516001600160a01b0316600090815260209182526040808220888352835280822061ffff8a168352909252908120805490925061365190859088906001600160501b031661289a565b905061365d8186611950565b905061366f82858b8a8a86600061351e565b60008086138015613684575064ffffffffff87145b156136a65761369f6113e5868961369a8a610bc0565b612b0e565b90506136b4565b6136b1858888612b0e565b90505b831561128a5761128a898b600001518a8a85614617565b821580156136d7575081155b156136ed57835464ffffffffff19168455611de0565b835464ffffffffff191664ffffffffff91909116179092555050565b600080610b146007612ae8565b80820382811315600083121514610b1457600080fd5b600080610b146002612ae8565b600080610b146014612ae8565b60008261375557506000610b14565b8282028284828161376257fe5b041461104457600080fd5b600881901c60ff9091161b90565b60006001821261378a57600080fd5b8161379757506000610b14565b611044600161258d6ec097ce7bc90715b34b9f10000000006102aa876020015187610ac690919063ffffffff16565b60008064ffffffffff84141561381857602086015164ffffffffff146137f0576000915050610f88565b61380a6113808760a00151856114d790919063ffffffff16565b60a087018490529050613828565b61382561138085856114d7565b90505b6080870151600090613844906301da9c00906102aa9085610ac6565b9050613850868261102b565b98975050505050505050565b600081121561386a57600080fd5b6000613878610fee84614679565b90506138848183611950565b9050611d13610fee84836146d2565b60008112156138a157600080fd5b60006138b08361ffff16614746565b905060006138be8285614679565b90506138ca8184611950565b9050611de08285836146d2565b60006138e1611bf9565b61ffff8516600090815260209190915260408120546001600160a01b0316915061390961476c565b61ffff8616600090815260209190915260409081902054905163ad1c095d60e01b81526001600160a01b039091169150819063ad1c095d906139519089908790600401615adf565b600060405180830381600087803b15801561396b57600080fd5b505af115801561397f573d6000803e3d6000fd5b505060405163ad1c095d60e01b81526001600160a01b038516925063ad1c095d91506139b19089908890600401615adf565b600060405180830381600087803b1580156139cb57600080fd5b505af115801561128a573d6000803e3d6000fd5b60006139e9611bf9565b61ffff8516600090815260209190915260408120546001600160a01b03169150613a11614779565b61ffff8616600090815260209190915260409020546001600160a01b03908116915082166323de665187610fee613a4787611966565b6040518463ffffffff1660e01b8152600401613a6593929190615abb565b600060405180830381600087803b158015613a7f57600080fd5b505af1158015613a93573d6000803e3d6000fd5b50505050816001600160a01b03166323de66518783613ab188611966565b6040518463ffffffff1660e01b81526004016139b193929190615abb565b613ad7615287565b6000613ae16141b6565b61ffff93841660009081526020918252604090819020805464ffffffffff81168652600160281b81046001600160581b03908116948701949094526001820154841692860192909252600160d81b820463ffffffff166060860152600160801b9091049091166080840152600201546001600160501b0380821660a0850152600160501b8204811660c0850152600160a01b82041660e0840152600160f01b900460ff1661012c02909216610100820152919050565b600080613ba383613035565b6001600160a01b031663ef81f2166040518163ffffffff1660e01b81526004016040805180830381600087803b158015613bdc57600080fd5b505af1158015613bf0573d6000803e3d6000fd5b505050506040513d601f19601f82011682018060405250810190610b8b9190615785565b613c1c615287565b6000806000613c2c888689614786565b60c08b019290925260e08a019290925260208901519193509150613c50908361259e565b6020880152608087015160009015613c7e576080880151613c7b90613c7589826114d7565b90614897565b90505b613c9e613c93670de0b6b3a76400008361259e565b60a08a0151906148b4565b60a089015250506080860194909452505082529092909150565b6000613cc26141b6565b60008561ffff1681526020019081526020016000209050613ce68260000151613001565b815464ffffffffff191664ffffffffff9190911617815560a0820151613d0b90611975565b6002820180546001600160501b0319166001600160501b039290921691909117905560c0820151613d3b90611975565b81600201600a6101000a8154816001600160501b0302191690836001600160501b03160217905550613d708260e00151611975565b8160020160146101000a8154816001600160501b0302191690836001600160501b03160217905550613da582602001516141c3565b81546001600160581b0391909116600160281b026fffffffffffffffffffffff0000000000199091161781556040820151613ddf906141c3565b6001820180546affffffffffffffffffffff19166001600160581b03929092169190911790556080820151613e13906141c3565b81546001600160581b0391909116600160801b026affffffffffffffffffffff60801b199091161781556060820151613e4b90613015565b815463ffffffff91909116600160d81b0263ffffffff60d81b199091161781558215613e97576000613e7c84610aac565b9050613e88858261385c565b613e95610fee8683613345565b505b8361ffff167fef25641e225e493886510ca1ad6584fa7b442b9fea820a29d1de3ce27d270fd28360a001518460c001518560e00151604051613edb93929190615d92565b60405180910390a250505050565b600081600013158015613efc5750600a82125b15613f0957506000610b14565b60008212613f1657600080fd5b611044600161258d85602001516102aa6ec097ce7bc90715b34b9f100000000087610ac690919063ffffffff16565b600080610b14601f612ae8565b6000600383606001516005811115613f6657fe5b1415613f7d57506001600160a01b03811631610b14565b82516040516370a0823160e01b81526001600160a01b03909116906370a0823190613fac908590600401615a48565b60206040518083038186803b158015613fc457600080fd5b505afa158015613fd8573d6000803e3d6000fd5b505050506040513d601f19601f82011682018060405250810190611f019190615907565b600080846001600160a01b031684846040518082805190602001908083835b6020831061403a5780518252601f19909201916020918201910161401b565b6001836020036101000a03801982511681845116808217855250505050505090500191505060006040518083038185875af1925050503d806000811461409c576040519150601f19603f3d011682016040523d82523d6000602084013e6140a1565b606091505b5091509150816140b0826148d1565b9061128f5760405162461bcd60e51b81526004018080602001828103825283818151815260200191508051906020019080838360005b838110156140fe5781810151838201526020016140e6565b50505050905090810190601f16801561412b5780820380516001836020036101000a031916815260200191505b509250505060405180910390fd5b6000614143613028565b6001600160a01b0385166000908152602082905260409020549091508381111561416c57600080fd5b600061418361417a86610aac565b61258d86610aac565b9050614192610c2a8383611950565b6001600160a01b039096166000908152602093909352505060409020929092555050565b600080610b14601d612ae8565b60006001600160581b03821115610ac257600080fd5b8054600282015460009161421591600160281b9091046001600160581b0316906102a4906001600160501b03600160501b820481169116610ac6565b6001830154600284015491925060009161424f916001600160581b0316906102a4906001600160501b03600160a01b820481169116610ac6565b83549091506000906142869060016001600160581b03600160801b909204821601166ec097ce7bc90715b34b9f1000000000610ac6565b9050806142938484613716565b1315611de057600080fd5b6000818314806142bb5750600083121580156142bb575060008212155b156142c857506000610b14565b600083131580156142d95750816000125b156142e5575081610b14565b600082131580156142f65750826000125b1561430457611f0182610bc0565b60008313158015614316575060008213155b1561007057611f018383613716565b8015611de05783516020850151600091614344916102aa908590610ac6565b9050610f13848484846149d8565b600061435e838361429e565b90508061436b5750610f13565b6000614375614b15565b61ffff87166000908152602082815260408083208984529091528120549192506001600160501b039091168103906143ad8285613716565b905060008113156143bd57600080fd5b6143cc610c2f610c2a83610bc0565b61ffff89166000908152602085815260408083208b8452909152902080546001600160501b0319166001600160501b0392909216919091179055610dce89898987614b22565b600061441c614b88565b6001600160a01b03851660009081526020918252604080822061ffff87168352909252908120805490925061446190600160501b90046001600160501b031684613716565b905061446f610c2f82611966565b82546001600160501b0391909116600160501b0269ffffffffffffffffffff60501b1990911617825560405161ffff8516906001600160a01b038716907f20478ef460e49d010960d4f3fff35d8dae385443abfac09035d6a2ccbcd834c4906144d9908590615b1d565b60405180910390a35050505050565b600080846040015161ffff168361ffff16141561453457614507612a11565b85516001600160a01b031660009081526020918252604080822064ffffffffff8352909252209050614571565b61453c61460a565b85516001600160a01b031660009081526020918252604080822064ffffffffff8352835280822061ffff871683529092522090505b8054610f8890859064ffffffffff906001600160501b031661289a565b6000614598614b88565b6001600160a01b03851660009081526020918252604080822061ffff8716835290925290812080549092506145dd90600160501b90046001600160501b031684613716565b82549091506001600160501b0316811315610f135760405162461bcd60e51b81526004016108ca90615b9b565b600080610b146018612ae8565b8061462157610f13565b60008080614632878787600a611ea4565b905060008413156146495787925060009150614651565b600092508791505b6001600160a01b0380831690841633600080516020615e3a8339815191528461146889611c06565b600080614684614b95565b6001600160a01b03851660009081526020828152604080832061ffff8816845290915281208054600160a81b9004600a90810b900b94509192508312156146ca57600080fd5b505092915050565b60008112156146e057600080fd5b60006146ea614b95565b6001600160a01b03851660009081526020828152604080832061ffff88168452909152902090915061471b83614ba2565b8154600a9190910b6001600160581b0316600160a81b026001600160a81b0390911617905550505050565b600080614751614779565b6000938452602052505060409020546001600160a01b031690565b600080610b146022612ae8565b600080610b146003612ae8565b6000806000806000806147998988614bd4565b895190955091935091506000906147c0906147b5908b906114d7565b633b9aca0090613746565b90506147fa6147ef6301da9c006147d78585613746565b816147de57fe5b670de0b6b3a764000091900461259e565b60e08a0151906148b4565b965061481c6148116301da9c006147d78785613746565b60c08a0151906148b4565b95508183141561483357506000935061488e915050565b600061485561484a6301da9c006147d78786613746565b60e08b0151906148b4565b9050600061486389836114d7565b905061488688614880838d6040015161374690919063ffffffff16565b90614c6f565b965050505050505b93509350935093565b60006110446148ae84670de0b6b3a7640000613746565b83614c6f565b60006110446148c38484613746565b670de0b6b3a7640000614c6f565b6060604482511015614907575060408051808201909152600d81526c14da5b195b9d0814995d995c9d609a1b6020820152610939565b600482018051909260240190602081101561492157600080fd5b810190808051604051939291908464010000000082111561494157600080fd5b90830190602082018581111561495657600080fd5b825164010000000081118282018810171561497057600080fd5b82525081516020918201929091019080838360005b8381101561499d578181015183820152602001614985565b50505050905090810190601f1680156149ca5780820380516001836020036101000a031916815260200191505b506040525050509050919050565b60006149e26141b6565b61ffff8516600090815260209190915260409020805490915064ffffffffff164214614a0d57600080fd5b8054600160f81b900460ff16614a2257600080fd5b6001810154600090614a3d906001600160581b031685611950565b8254909150600090614a5f90600160281b90046001600160581b031685611950565b905081600919128015614a725750600082125b15614a7c57600091505b80600919128015614a8d5750600081125b15614a96575060005b614aa261345983611966565b6001840180546affffffffffffffffffffff19166001600160581b0392909216919091179055614ad461345982611966565b83546001600160581b0391909116600160281b026fffffffffffffffffffffff000000000019909116178355614b0c878786886138d7565b610d2a836141d9565b600080610b146020612ae8565b600080614b30858585614c8e565b915091506000806000851215614b4857879150614b4b565b50865b806001600160a01b0316826001600160a01b0316336001600160a01b0316600080516020615e1a8339815191528787604051611476929190615af8565b600080610b146017612ae8565b600080610b146006612ae8565b60006a7fffffffffffffffffffff198212801590614bcb57506a7fffffffffffffffffffff8213155b610ac257600080fd5b600080600080600085602001511115614c2157614c1e614c058660c00151876020015161374690919063ffffffff16565b60e08701516040880151614c1891613746565b90614d73565b90505b6000614c2c87614d86565b9050614c388183614db9565b94508115614c4f57614c4c81866001614e72565b93505b602086015115614c6657614c638583614eec565b92505b50509250925092565b6000808211614c7d57600080fd5b818381614c8657fe5b049392505050565b604080516002808252606082810190935282916000918160200160208202803683370190505090506000614cc28787614f05565b90508082600081518110614cd257fe5b602002602001018181525050600160401b811782600181518110614cf257fe5b602090810291909101015260408051600280825260608201909252600091816020016020820280368337019050509050614d2b86611c06565b81600081518110614d3857fe5b602002602001018181525050614d4d86611c06565b81600181518110614d5a57fe5b6020908102919091010152919791965090945050505050565b60006110446148ae84633b9aca00613746565b614d8e6152d3565b6000614d98614f23565b61ffff84166000908152602091909152604081205491506110449082614f30565b600080836080015111614dcb57600080fd5b633b9aca00821115614ddc57600080fd5b82518211614dfb5782516040840151611f019190614880908590613746565b82602001518211614e39576040830151835160208501516060860151611f019392614e33928190039161488091880390859003613746565b9061259e565b6110448360600151614e338560200151633b9aca000361488087606001518860800151038860200151880361374690919063ffffffff16565b600080614e9160646148808760e001518761374690919063ffffffff16565b90508460a00151811015614ea6575060a08401515b8460c00151811115614eb9575060c08401515b8215614ed057614ec9848261259e565b9150614ee4565b838111614edf57808403610f88565b600091505b509392505050565b6000611044614efb8484613746565b633b9aca00614c6f565b67ffff000000000000603083901b16600882901b1760011792915050565b600080610b14601b612ae8565b614f386152d3565b6064633b9aca008360ff861660208110614f4e57fe5b1a0281614f5757fe5b0481526064633b9aca008360ff861660010160208110614f7357fe5b1a0281614f7c57fe5b04816020018181525050614fa18260028560ff160160208110614f9b57fe5b1a61504f565b60808201819052610100908360ff861660030160208110614fbe57fe5b1a0281614fc757fe5b0460408201526080810151610100908360ff861660040160208110614fe857fe5b1a0281614ff157fe5b0460608201526207a1208260ff85166005016020811061500d57fe5b1a0260a0820152622625a08260ff85166006016020811061502a57fe5b1a0260c08201528160ff84166007016020811061504357fe5b1a60e082015292915050565b60008160ff1660961061506a5760ff8216622625a002610936565b5060951960ff919091160162e4e1c00263165a0bc00190565b60405180606001604052806000815260200160008152602001600081525090565b604051806101e0016040528060006001600160a01b03168152602001600061ffff168152602001600061ffff1681526020016000815260200160008152602001600081526020016000815260200160008152602001600081526020016000815260200161510f615318565b815260200161511c615083565b815260200160008152602001615130615318565b8152602001600081525090565b6040518060c0016040528060008152602001600081526020016000815260200160006001600160a01b0316815260200160008152602001600081525090565b60405180608001604052806000815260200160008152602001600081526020016000151581525090565b60405180604001604052806002905b6151bd615083565b8152602001906001900390816151b55790505090565b6040805160c081018252600080825260208201529081016151f2615083565b81526020016151ff615083565b815260200160008152602001600081525090565b6040805160a081018252600080825260208201819052918101829052906060820190615130565b6040518060a0016040528060008152602001600081526020016000815260200160008152602001600081525090565b60405180602001604052806001906020820280368337509192915050565b6040518061012001604052806000815260200160008152602001600081526020016000815260200160008152602001600081526020016000815260200160008152602001600081525090565b60405180610100016040528060008152602001600081526020016000815260200160008152602001600081526020016000815260200160008152602001600081525090565b60405180604001604052806002906020820280368337509192915050565b805161093981615e01565b600082601f830112615351578081fd5b8151602061536661536183615de3565b615dbf565b8281528181019085830183850287018401881015615382578586fd5b855b858110156153a957815161539781615e01565b84529284019290840190600101615384565b5090979650505050505050565b6000601f83818401126153c7578182fd5b825160206153d761536183615de3565b82815281810190868301865b8581101561547c57815189018a603f8201126153fd578889fd5b8581015167ffffffffffffffff81111561541357fe5b615424818a01601f19168801615dbf565b81815260408d81848601011115615439578b8cfd5b8b5b83811015615456578481018201518382018b0152890161543b565b83811115615466578c8a85850101525b50508652505092840192908401906001016153e3565b509098975050505050505050565b600082601f83011261549a578081fd5b6040516060810181811067ffffffffffffffff821117156154b757fe5b6040528083606081018610156154cb578384fd5b835b60038110156154ec5781518352602092830192909101906001016154cd565b509195945050505050565b80516001600160501b038116811461093957600080fd5b805160ff8116811461093957600080fd5b600080600080600060a08688031215615536578081fd5b853561554181615e01565b9450602086013561555181615e01565b9350604086013561556181615e01565b9250606086013561ffff81168114615577578182fd5b949793965091946080013592915050565b600080600080600060a0868803121561559f578283fd5b85356155aa81615e01565b945060208601356155ba81615e01565b935060408601356155ca81615e01565b94979396509394606081013594506080013592915050565b60008060008060008060c087890312156155fa578384fd5b863561560581615e01565b9550602087013561561581615e01565b9450604087013561562581615e01565b959894975094956060810135955060808101359460a0909101359350915050565b60006020808385031215615658578182fd5b825167ffffffffffffffff8082111561566f578384fd5b818501915085601f830112615682578384fd5b815161569061536182615de3565b81815284810190848601875b84811015615756578151870160a0818d03601f190112156156bb57898afd5b6040805160a081018181108a821117156156d157fe5b8252828b0151898111156156e3578c8dfd5b6156f18f8d83870101615341565b8252508183015189811115615704578c8dfd5b6157128f8d838701016153b6565b8c8301525060608301518282015261572c60808401615336565b606082015261573d60a0840161550e565b608082015286525050928701929087019060010161569c565b50909998505050505050505050565b600060208284031215615776578081fd5b81518015158114611044578182fd5b60008060408385031215615797578182fd5b505080516020909101519092909150565b600080600083850360a08112156157bd578182fd5b84519350602085015192506060603f19820112156157d9578182fd5b506040516060810181811067ffffffffffffffff821117156157f757fe5b8060405250604085015181526060850151602082015260808501516040820152809150509250925092565b600080600083850361018080821215615839578283fd5b60c0821215615846578283fd5b60405191506080820182811067ffffffffffffffff8211171561586557fe5b806040525085518252602080870151818401526040870151604084015261588f886060890161548a565b60608401528295506158a48860c0890161548a565b94508761013f8801126158b5578384fd5b6158bf6060615dbf565b925082610120880189848a0111156158d5578586fd5b8593505b60038410156158f85780518552938201936001939093019282016158d9565b50809450505050509250925092565b600060208284031215615918578081fd5b5051919050565b600080600080600060a08688031215615936578283fd5b61593f866154f7565b9450602086015193506040860151925060608601519150615962608087016154f7565b90509295509295909350565b6001600160a01b03169052565b8060005b6002811015611de057815184526020938401939091019060010161597f565b8060005b6002811015611de057815161ffff168452602093840193909101906001016159a2565b6000815180845260208085019450808401835b838110156159f4578151875295820195908201906001016159d8565b509495945050505050565b8051825260208082015190830152604090810151910152565b8051825260208101516020830152604081015160408301526060810151151560608301525050565b61ffff169052565b6001600160a01b0391909116815260200190565b6001600160a01b0392831681529116602082015260400190565b6001600160a01b039788168152958716602087015293909516604085015261ffff919091166060840152608083015260a082019290925260c081019190915260e00190565b6001600160a01b039384168152919092166020820152604081019190915260600190565b6001600160a01b03929092168252602082015260400190565b600060408252615b0b60408301856159c5565b8281036020840152610f8881856159c5565b90815260200190565b6020808252600b908201526a4554482042616c616e636560a81b604082015260600190565b60208082526011908201527009ac2e8eae4d2e8f2409ad2e6dac2e8c6d607b1b604082015260600190565b6020808252600b908201526a4d75737420536574746c6560a81b604082015260600190565b6020808252600c908201526b4d617820436170616369747960a01b604082015260600190565b6020808252600a90820152696d696e20626f72726f7760b01b604082015260600190565b6020808252600a90820152694d696e20426f72726f7760b01b604082015260600190565b61ffff9390931683526020830191909152604082015260600190565b60006103e08201905061ffff8716825285516020830152602086015160408301526040860151606083015260018060a01b036060870151166080830152608086015160a083015260a086015160c0830152615c8460e08301865161596e565b6020850151610100615c9881850183615a40565b60408701519150610120615cae81860184615a40565b60608801519250610140838187015260808901519350610160848188015260a08a01519450610180858189015260c08b015195506101a086818a015260e08c015196506101c087818b0152868d01516101e08b0152858d01516102008b0152848d01519750615d216102208b018961599e565b838d01519750615d356102608b01896159ff565b828d01516102c08b0152818d01519750615d536102e08b018961597b565b808d01516103208b01525050505050505050615d73610340830185615a18565b826103c08301529695505050505050565b918252602082015260400190565b9283526020830191909152604082015260600190565b9182526001600160501b0316602082015260400190565b60405181810167ffffffffffffffff81118282101715615ddb57fe5b604052919050565b600067ffffffffffffffff821115615df757fe5b5060209081020190565b6001600160a01b0381168114615e1657600080fd5b5056fe4a39dc06d4c0dbc64b70af90fd698a233a518aa5d07e595d983b8c0526c8f7fbc3d58168c5ae7397731d063d5bbf3d657854427343f4c083240f7aacaa2d0f62a26469706673582212205a48ad24c8d232ee61c8466cfc8209689c845d17cba5e36fc1e15da3c0fc4c4a64736f6c63430007060033","language":"Solidity","natspec":{"kind":"dev","methods":{"deleverageAccount(address,address,address,uint16,int256)":{"notice":"If an account is below the minimum collateral ratio, this method wil deleverage (liquidate) that account. `depositAmountPrimeCash` in the borrow currency will be transferred from the liquidator and used to offset the account's debt position. The liquidator will receive either vaultShares or cash depending.","params":{"account":"the address that will exit the vault","currencyIndex":"0 refers to primary borrow, 1 or 2 will refer to one of the secondary currencies (if any)","depositUnderlyingInternal":"amount of underlying to deposit, in 8 decimal underlying precision","liquidator":"the address that will receive profits from liquidation","vault":"the vault to enter"},"returns":{"depositAmountPrimeCash":"amount of prime cash deposited from liquidation","vaultSharesToLiquidator":"amount of vaultShares received from liquidation"}},"liquidateExcessVaultCash(address,address,address,uint256,uint256,uint256)":{"notice":"Handles an edge case where vaults that have secondary borrows and have cash in excess of debts in one currency but debts in another currency."},"liquidateVaultCashBalance(address,address,address,uint256,int256)":{"notice":"If an account has a cash balance, a liquidator can purchase the cash and provide fCash to the account to reduce it's debt balance."}},"version":1},"opcodes":"PUSH1 0x80 PUSH1 0x40 MSTORE PUSH1 0x4 CALLDATASIZE LT PUSH2 0x70 JUMPI PUSH1 0x0 CALLDATALOAD PUSH1 0xE0 SHR DUP1 PUSH4 0x8DA5CB5B GT PUSH2 0x4E JUMPI DUP1 PUSH4 0x8DA5CB5B EQ PUSH2 0xD5 JUMPI DUP1 PUSH4 0x9AB77186 EQ PUSH2 0xEA JUMPI DUP1 PUSH4 0xC4C96DAE EQ PUSH2 0x10A JUMPI DUP1 PUSH4 0xFCAF198B EQ PUSH2 0x12D JUMPI PUSH2 0x70 JUMP JUMPDEST DUP1 PUSH4 0x21BF8C66 EQ PUSH2 0x75 JUMPI DUP1 PUSH4 0x24A3D622 EQ PUSH2 0x9E JUMPI DUP1 PUSH4 0x82463367 EQ PUSH2 0xC0 JUMPI JUMPDEST PUSH1 0x0 DUP1 REVERT JUMPDEST PUSH2 0x88 PUSH2 0x83 CALLDATASIZE PUSH1 0x4 PUSH2 0x55E2 JUMP JUMPDEST PUSH2 0x14E JUMP JUMPDEST PUSH1 0x40 MLOAD PUSH2 0x95 SWAP2 SWAP1 PUSH2 0x5B1D JUMP JUMPDEST PUSH1 0x40 MLOAD DUP1 SWAP2 SUB SWAP1 RETURN JUMPDEST CALLVALUE DUP1 ISZERO PUSH2 0xAA JUMPI PUSH1 0x0 DUP1 REVERT JUMPDEST POP PUSH2 0xB3 PUSH2 0x3F6 JUMP JUMPDEST PUSH1 0x40 MLOAD PUSH2 0x95 SWAP2 SWAP1 PUSH2 0x5A48 JUMP JUMPDEST CALLVALUE DUP1 ISZERO PUSH2 0xCC JUMPI PUSH1 0x0 DUP1 REVERT JUMPDEST POP PUSH2 0xB3 PUSH2 0x405 JUMP JUMPDEST CALLVALUE DUP1 ISZERO PUSH2 0xE1 JUMPI PUSH1 0x0 DUP1 REVERT JUMPDEST POP PUSH2 0xB3 PUSH2 0x414 JUMP JUMPDEST CALLVALUE DUP1 ISZERO PUSH2 0xF6 JUMPI PUSH1 0x0 DUP1 REVERT JUMPDEST POP PUSH2 0x88 PUSH2 0x105 CALLDATASIZE PUSH1 0x4 PUSH2 0x5588 JUMP JUMPDEST PUSH2 0x42B JUMP JUMPDEST CALLVALUE DUP1 ISZERO PUSH2 0x116 JUMPI PUSH1 0x0 DUP1 REVERT JUMPDEST POP PUSH2 0x11F PUSH2 0x5BA JUMP JUMPDEST PUSH1 0x40 MLOAD PUSH2 0x95 SWAP3 SWAP2 SWAP1 PUSH2 0x5A5C JUMP JUMPDEST PUSH2 0x140 PUSH2 0x13B CALLDATASIZE PUSH1 0x4 PUSH2 0x551F JUMP JUMPDEST PUSH2 0x5E8 JUMP JUMPDEST PUSH1 0x40 MLOAD PUSH2 0x95 SWAP3 SWAP2 SWAP1 PUSH2 0x5D84 JUMP JUMPDEST PUSH1 0x0 PUSH1 0x2 PUSH1 0xA SLOAD EQ ISZERO PUSH2 0x160 JUMPI PUSH1 0x0 DUP1 REVERT JUMPDEST PUSH1 0x2 PUSH1 0xA SSTORE PUSH1 0x0 DUP1 PUSH2 0x173 DUP10 DUP10 DUP10 PUSH2 0x7C6 JUMP JUMPDEST POP SWAP2 POP SWAP2 POP PUSH2 0x181 DUP3 PUSH2 0x90F JUMP JUMPDEST PUSH2 0x18A JUMPI PUSH1 0x0 DUP1 REVERT JUMPDEST PUSH1 0x0 PUSH2 0x195 DUP4 PUSH2 0x93E JUMP JUMPDEST PUSH1 0x40 MLOAD PUSH4 0xB14428B9 PUSH1 0xE0 SHL DUP2 MSTORE SWAP1 SWAP2 POP PUSH1 0x0 SWAP1 ADDRESS SWAP1 PUSH4 0xB14428B9 SWAP1 PUSH2 0x1C0 SWAP1 DUP15 SWAP1 DUP15 SWAP1 PUSH1 0x4 ADD PUSH2 0x5A5C JUMP JUMPDEST PUSH2 0x180 PUSH1 0x40 MLOAD DUP1 DUP4 SUB DUP2 DUP7 DUP1 EXTCODESIZE ISZERO DUP1 ISZERO PUSH2 0x1D9 JUMPI PUSH1 0x0 DUP1 REVERT JUMPDEST POP GAS STATICCALL ISZERO DUP1 ISZERO PUSH2 0x1ED JUMPI RETURNDATASIZE PUSH1 0x0 DUP1 RETURNDATACOPY RETURNDATASIZE PUSH1 0x0 REVERT JUMPDEST POP POP POP POP PUSH1 0x40 MLOAD RETURNDATASIZE PUSH1 0x1F NOT PUSH1 0x1F DUP3 ADD AND DUP3 ADD DUP1 PUSH1 0x40 MSTORE POP DUP2 ADD SWAP1 PUSH2 0x211 SWAP2 SWAP1 PUSH2 0x5822 JUMP JUMPDEST POP POP SWAP1 POP DUP1 PUSH1 0x60 ADD MLOAD DUP9 PUSH1 0x3 DUP2 LT PUSH2 0x225 JUMPI INVALID JUMPDEST PUSH1 0x20 MUL ADD MLOAD PUSH1 0x0 SLT PUSH2 0x236 JUMPI PUSH1 0x0 DUP1 REVERT JUMPDEST PUSH1 0x0 DUP2 PUSH1 0x60 ADD MLOAD DUP9 PUSH1 0x3 DUP2 LT PUSH2 0x248 JUMPI INVALID JUMPDEST PUSH1 0x20 MUL ADD MLOAD SLT PUSH2 0x257 JUMPI PUSH1 0x0 DUP1 REVERT JUMPDEST PUSH1 0x0 PUSH2 0x265 DUP6 DUP5 DUP12 DUP12 PUSH2 0x99E JUMP JUMPDEST SWAP1 POP PUSH1 0x0 PUSH2 0x272 DUP9 PUSH2 0xAAC JUMP JUMPDEST SWAP1 POP PUSH2 0x2BB PUSH2 0x2B0 PUSH1 0x64 PUSH2 0x2AA DUP6 PUSH1 0x80 ADD MLOAD PUSH2 0x2AA DUP8 PUSH1 0xA0 ADD MLOAD PUSH2 0x2A4 DUP14 PUSH2 0x1C0 ADD MLOAD DUP10 PUSH2 0xAC6 SWAP1 SWAP2 SWAP1 PUSH4 0xFFFFFFFF AND JUMP JUMPDEST SWAP1 PUSH2 0xAC6 JUMP JUMPDEST SWAP1 PUSH2 0xB1A JUMP JUMPDEST PUSH1 0x40 DUP5 ADD MLOAD SWAP1 PUSH2 0xB4B JUMP JUMPDEST SWAP7 POP DUP7 DUP4 PUSH1 0x60 ADD MLOAD DUP12 PUSH1 0x3 DUP2 LT PUSH2 0x2CE JUMPI INVALID JUMPDEST PUSH1 0x20 MUL ADD MLOAD SLT ISZERO PUSH2 0x328 JUMPI DUP3 PUSH1 0x60 ADD MLOAD DUP11 PUSH1 0x3 DUP2 LT PUSH2 0x2E9 JUMPI INVALID JUMPDEST PUSH1 0x20 MUL ADD MLOAD SWAP7 POP PUSH2 0x325 DUP3 PUSH1 0xA0 ADD MLOAD PUSH2 0x2AA DUP9 PUSH2 0x1C0 ADD MLOAD PUSH2 0x2AA PUSH1 0x64 PUSH2 0x2A4 DUP9 PUSH1 0x80 ADD MLOAD PUSH2 0x2A4 DUP16 DUP12 PUSH1 0x40 ADD MLOAD PUSH2 0xB93 SWAP1 SWAP2 SWAP1 PUSH4 0xFFFFFFFF AND JUMP JUMPDEST SWAP1 POP JUMPDEST PUSH1 0x60 DUP3 ADD MLOAD PUSH1 0x0 SWAP1 PUSH2 0x33A SWAP1 DUP4 PUSH2 0xB4B JUMP JUMPDEST SWAP1 POP PUSH1 0x0 PUSH2 0x347 DUP10 PUSH2 0xBC0 JUMP JUMPDEST SWAP1 POP PUSH2 0x357 DUP8 DUP10 DUP15 DUP5 PUSH1 0x0 PUSH2 0xBCE JUMP JUMPDEST PUSH2 0x365 DUP8 DUP10 DUP14 DUP6 PUSH1 0x0 PUSH2 0xBCE JUMP JUMPDEST PUSH2 0x375 DUP15 DUP15 DUP7 PUSH1 0x0 ADD MLOAD DUP13 PUSH2 0xD33 JUMP JUMPDEST PUSH2 0x38C DUP14 DUP15 DUP7 PUSH1 0x0 ADD MLOAD DUP5 DUP9 PUSH1 0x40 ADD MLOAD PUSH1 0x0 PUSH2 0xDD9 JUMP JUMPDEST POP PUSH2 0x3A2 DUP16 DUP16 DUP7 PUSH1 0x0 ADD MLOAD DUP11 PUSH1 0x20 ADD MLOAD DUP6 PUSH2 0xE83 JUMP JUMPDEST PUSH2 0x3B8 DUP14 DUP6 PUSH1 0x20 ADD MLOAD DUP5 DUP8 PUSH1 0x60 ADD MLOAD PUSH1 0x0 PUSH2 0xF1A JUMP JUMPDEST POP PUSH2 0x3C9 DUP14 DUP16 DUP7 PUSH1 0x20 ADD MLOAD DUP6 PUSH2 0xD33 JUMP JUMPDEST PUSH2 0x3DE DUP16 DUP16 DUP7 PUSH1 0x20 ADD MLOAD DUP11 PUSH1 0x20 ADD MLOAD DUP7 PUSH2 0xE83 JUMP JUMPDEST POP POP PUSH1 0x1 PUSH1 0xA SSTORE POP SWAP5 SWAP12 SWAP11 POP POP POP POP POP POP POP POP POP POP POP JUMP JUMPDEST PUSH1 0x2 SLOAD PUSH1 0x1 PUSH1 0x1 PUSH1 0xA0 SHL SUB AND DUP2 JUMP JUMPDEST PUSH1 0x1 SLOAD PUSH1 0x1 PUSH1 0x1 PUSH1 0xA0 SHL SUB AND DUP2 JUMP JUMPDEST PUSH1 0x0 SLOAD PUSH5 0x100000000 SWAP1 DIV PUSH1 0x1 PUSH1 0x1 PUSH1 0xA0 SHL SUB AND DUP2 JUMP JUMPDEST PUSH1 0x0 PUSH1 0x2 PUSH1 0xA SLOAD EQ ISZERO PUSH2 0x43D JUMPI PUSH1 0x0 DUP1 REVERT JUMPDEST PUSH1 0x2 PUSH1 0xA SSTORE PUSH1 0x0 DUP1 DUP1 PUSH2 0x451 DUP10 DUP10 DUP10 PUSH2 0x7C6 JUMP JUMPDEST SWAP3 POP SWAP3 POP SWAP3 POP PUSH1 0x0 PUSH2 0x461 PUSH2 0x5083 JUMP JUMPDEST PUSH1 0x0 DUP1 DUP10 PUSH2 0x484 JUMPI POP POP POP POP PUSH1 0x40 DUP4 ADD MLOAD PUSH2 0x160 DUP5 ADD MLOAD DUP4 MLOAD PUSH1 0x80 DUP6 ADD MLOAD PUSH2 0x4A3 JUMP JUMPDEST PUSH1 0x3 DUP11 LT ISZERO PUSH2 0x70 JUMPI PUSH2 0x498 DUP8 DUP12 DUP16 PUSH2 0xF91 JUMP JUMPDEST SWAP3 SWAP7 POP SWAP1 SWAP5 POP SWAP3 POP SWAP1 POP JUMPDEST PUSH1 0x20 DUP7 ADD MLOAD PUSH1 0x40 MLOAD PUSH4 0xF82F279D PUSH1 0xE0 SHL DUP2 MSTORE PUSH1 0x0 SWAP2 DUP3 SWAP2 ADDRESS SWAP2 PUSH4 0xF82F279D SWAP2 PUSH2 0x4D2 SWAP2 DUP11 SWAP2 DUP9 SWAP1 PUSH1 0x4 ADD PUSH2 0x5C09 JUMP JUMPDEST PUSH1 0x40 DUP1 MLOAD DUP1 DUP4 SUB DUP2 DUP7 DUP1 EXTCODESIZE ISZERO DUP1 ISZERO PUSH2 0x4E9 JUMPI PUSH1 0x0 DUP1 REVERT JUMPDEST POP GAS STATICCALL ISZERO DUP1 ISZERO PUSH2 0x4FD JUMPI RETURNDATASIZE PUSH1 0x0 DUP1 RETURNDATACOPY RETURNDATASIZE PUSH1 0x0 REVERT JUMPDEST POP POP POP POP PUSH1 0x40 MLOAD RETURNDATASIZE PUSH1 0x1F NOT PUSH1 0x1F DUP3 ADD AND DUP3 ADD DUP1 PUSH1 0x40 MSTORE POP DUP2 ADD SWAP1 PUSH2 0x521 SWAP2 SWAP1 PUSH2 0x5785 JUMP JUMPDEST SWAP1 SWAP3 POP SWAP1 POP PUSH2 0x53A PUSH2 0x533 DUP13 DUP4 PUSH2 0x102B JUMP JUMPDEST DUP7 SWAP1 PUSH2 0xB4B JUMP JUMPDEST SWAP10 POP DUP3 DUP11 SGT ISZERO PUSH2 0x54B JUMPI DUP2 SWAP11 POP DUP3 SWAP10 POP JUMPDEST POP POP DUP9 PUSH1 0x0 SLT DUP1 ISZERO PUSH2 0x565 JUMPI POP PUSH2 0x561 DUP3 PUSH2 0xBC0 JUMP JUMPDEST DUP10 SGT ISZERO JUMPDEST PUSH2 0x56E JUMPI PUSH1 0x0 DUP1 REVERT JUMPDEST PUSH2 0x57C DUP7 DUP13 DUP15 DUP8 DUP14 DUP14 PUSH2 0x104B JUMP JUMPDEST PUSH2 0x58B DUP8 DUP7 DUP9 DUP14 DUP14 PUSH1 0x0 PUSH2 0x11BE JUMP JUMPDEST PUSH2 0x5A4 DUP8 DUP12 PUSH2 0x599 DUP12 PUSH2 0xBC0 JUMP JUMPDEST DUP10 SWAP3 SWAP2 SWAP1 PUSH1 0x0 PUSH2 0xBCE JUMP JUMPDEST POP POP PUSH1 0x1 PUSH1 0xA SSTORE POP SWAP4 SWAP10 SWAP9 POP POP POP POP POP POP POP POP POP JUMP JUMPDEST PUSH20 0x0 PUSH20 0x0 SWAP1 SWAP2 JUMP JUMPDEST PUSH1 0x0 DUP1 PUSH1 0x2 PUSH1 0xA SLOAD EQ ISZERO PUSH2 0x5FB JUMPI PUSH1 0x0 DUP1 REVERT JUMPDEST PUSH1 0x2 PUSH1 0xA SSTORE PUSH1 0x3 PUSH2 0xFFFF DUP6 AND LT PUSH2 0x611 JUMPI PUSH1 0x0 DUP1 REVERT JUMPDEST PUSH1 0x0 DUP1 PUSH1 0x0 PUSH2 0x621 DUP11 DUP11 DUP11 PUSH2 0x7C6 JUMP JUMPDEST SWAP3 POP SWAP3 POP SWAP3 POP PUSH2 0x62F PUSH2 0x5083 JUMP JUMPDEST PUSH1 0x40 MLOAD PUSH4 0xC74DB1F PUSH1 0xE4 SHL DUP2 MSTORE ADDRESS SWAP1 PUSH4 0xC74DB1F0 SWAP1 PUSH2 0x65A SWAP1 DUP12 SWAP1 DUP8 SWAP1 DUP10 SWAP1 DUP9 SWAP1 DUP15 SWAP1 PUSH1 0x4 ADD PUSH2 0x5C25 JUMP JUMPDEST PUSH1 0xA0 PUSH1 0x40 MLOAD DUP1 DUP4 SUB DUP2 PUSH1 0x0 DUP8 DUP1 EXTCODESIZE ISZERO DUP1 ISZERO PUSH2 0x674 JUMPI PUSH1 0x0 DUP1 REVERT JUMPDEST POP GAS CALL ISZERO DUP1 ISZERO PUSH2 0x688 JUMPI RETURNDATASIZE PUSH1 0x0 DUP1 RETURNDATACOPY RETURNDATASIZE PUSH1 0x0 REVERT JUMPDEST POP POP POP POP PUSH1 0x40 MLOAD RETURNDATASIZE PUSH1 0x1F NOT PUSH1 0x1F DUP3 ADD AND DUP3 ADD DUP1 PUSH1 0x40 MSTORE POP DUP2 ADD SWAP1 PUSH2 0x6AC SWAP2 SWAP1 PUSH2 0x57A8 JUMP JUMPDEST SWAP2 SWAP9 POP SWAP7 POP SWAP1 POP PUSH1 0x0 DUP8 SGT PUSH2 0x6C0 JUMPI PUSH1 0x0 DUP1 REVERT JUMPDEST PUSH1 0x40 DUP5 ADD MLOAD PUSH1 0x1 PUSH2 0xFFFF DUP11 AND EQ ISZERO PUSH2 0x6DF JUMPI POP PUSH2 0x140 DUP5 ADD MLOAD MLOAD PUSH2 0x6F8 JUMP JUMPDEST DUP9 PUSH2 0xFFFF AND PUSH1 0x2 EQ ISZERO PUSH2 0x6F8 JUMPI POP PUSH2 0x140 DUP5 ADD MLOAD PUSH1 0x20 ADD MLOAD JUMPDEST PUSH1 0x0 PUSH2 0x707 DUP3 PUSH2 0xFFFF AND PUSH2 0x1297 JUMP JUMPDEST SWAP1 POP PUSH2 0x720 DUP12 DUP4 PUSH2 0x718 DUP5 DUP14 PUSH2 0x12AA JUMP JUMPDEST DUP7 PUSH1 0x0 PUSH2 0x12E2 JUMP JUMPDEST SWAP1 POP DUP1 SWAP8 POP POP PUSH2 0x739 DUP12 DUP15 DUP15 DUP6 DUP9 PUSH1 0x0 ADD MLOAD DUP13 DUP10 PUSH2 0x13A4 JUMP JUMPDEST PUSH2 0x74F DUP12 DUP15 DUP15 DUP10 PUSH1 0x40 ADD MLOAD DUP9 PUSH1 0x0 ADD MLOAD DUP14 PUSH2 0x1489 JUMP JUMPDEST PUSH1 0x40 DUP6 ADD MLOAD PUSH2 0x75E SWAP1 DUP10 PUSH2 0x14D7 JUMP JUMPDEST PUSH1 0x40 DUP7 ADD MSTORE PUSH1 0x20 DUP6 ADD MLOAD PUSH5 0xFFFFFFFFFF EQ ISZERO PUSH2 0x78C JUMPI PUSH2 0x787 DUP7 DUP6 DUP8 DUP14 PUSH2 0xFFFF AND DUP14 PUSH1 0x1 PUSH2 0x11BE JUMP JUMPDEST PUSH1 0x0 SWAP7 POP JUMPDEST PUSH2 0x79E DUP6 DUP8 PUSH2 0xFFFF DUP14 AND DUP11 PUSH1 0x1 PUSH2 0xBCE JUMP JUMPDEST PUSH2 0x7AE DUP12 DUP8 DUP11 DUP9 PUSH1 0x20 ADD MLOAD PUSH2 0x14EC JUMP JUMPDEST POP POP POP POP POP POP PUSH1 0x1 PUSH1 0xA DUP2 SWAP1 SSTORE POP SWAP6 POP SWAP6 SWAP4 POP POP POP POP JUMP JUMPDEST PUSH2 0x7CE PUSH2 0x50A4 JUMP JUMPDEST PUSH2 0x7D6 PUSH2 0x513D JUMP JUMPDEST PUSH2 0x7DE PUSH2 0x517C JUMP JUMPDEST PUSH2 0x7E7 DUP5 PUSH2 0x1555 JUMP JUMPDEST DUP5 PUSH1 0x1 PUSH1 0x1 PUSH1 0xA0 SHL SUB AND DUP5 PUSH1 0x1 PUSH1 0x1 PUSH1 0xA0 SHL SUB AND EQ ISZERO PUSH2 0x806 JUMPI PUSH1 0x0 DUP1 REVERT JUMPDEST PUSH1 0x1 PUSH1 0x1 PUSH1 0xA0 SHL SUB DUP7 AND CALLER EQ ISZERO PUSH2 0x81C JUMPI PUSH1 0x0 DUP1 REVERT JUMPDEST DUP4 PUSH1 0x1 PUSH1 0x1 PUSH1 0xA0 SHL SUB AND DUP7 PUSH1 0x1 PUSH1 0x1 PUSH1 0xA0 SHL SUB AND EQ ISZERO PUSH2 0x83B JUMPI PUSH1 0x0 DUP1 REVERT JUMPDEST PUSH2 0x844 DUP6 PUSH2 0x15D4 JUMP JUMPDEST SWAP3 POP PUSH2 0x852 DUP4 PUSH2 0x100 PUSH2 0x15FF JUMP JUMPDEST ISZERO PUSH2 0x85C JUMPI PUSH1 0x0 DUP1 REVERT JUMPDEST PUSH2 0x867 DUP4 PUSH1 0x20 PUSH2 0x15FF JUMP JUMPDEST ISZERO PUSH2 0x886 JUMPI CALLER PUSH1 0x1 PUSH1 0x1 PUSH1 0xA0 SHL SUB DUP7 AND EQ PUSH2 0x881 JUMPI PUSH1 0x0 DUP1 REVERT JUMPDEST PUSH2 0x89B JUMP JUMPDEST CALLER PUSH1 0x1 PUSH1 0x1 PUSH1 0xA0 SHL SUB DUP6 AND EQ PUSH2 0x89B JUMPI PUSH1 0x0 DUP1 REVERT JUMPDEST PUSH2 0x8A5 DUP7 DUP5 PUSH2 0x1614 JUMP JUMPDEST SWAP2 POP DUP2 PUSH1 0x20 ADD MLOAD TIMESTAMP LT PUSH2 0x8D3 JUMPI PUSH1 0x40 MLOAD PUSH3 0x461BCD PUSH1 0xE5 SHL DUP2 MSTORE PUSH1 0x4 ADD PUSH2 0x8CA SWAP1 PUSH2 0x5B76 JUMP JUMPDEST PUSH1 0x40 MLOAD DUP1 SWAP2 SUB SWAP1 REVERT JUMPDEST PUSH1 0x20 DUP3 ADD MLOAD PUSH5 0xFFFFFFFFFF EQ ISZERO PUSH2 0x8F5 JUMPI PUSH2 0x8EE DUP3 DUP5 PUSH2 0x16C3 JUMP JUMPDEST SWAP1 POP PUSH2 0x906 JUMP JUMPDEST PUSH2 0x903 DUP4 DUP4 PUSH1 0x20 ADD MLOAD PUSH2 0x1708 JUMP JUMPDEST SWAP1 POP JUMPDEST SWAP4 POP SWAP4 POP SWAP4 SWAP1 POP JUMP JUMPDEST PUSH2 0x140 DUP2 ADD MLOAD MLOAD PUSH1 0x0 SWAP1 PUSH2 0xFFFF AND ISZERO ISZERO DUP1 PUSH2 0x936 JUMPI POP PUSH2 0x140 DUP3 ADD MLOAD PUSH1 0x20 ADD MLOAD PUSH2 0xFFFF AND ISZERO ISZERO JUMPDEST SWAP1 POP JUMPDEST SWAP2 SWAP1 POP JUMP JUMPDEST PUSH2 0x946 PUSH2 0x51A6 JUMP JUMPDEST PUSH2 0x140 DUP3 ADD MLOAD MLOAD PUSH2 0xFFFF AND ISZERO PUSH2 0x970 JUMPI PUSH2 0x140 DUP3 ADD MLOAD PUSH2 0x96D SWAP1 PUSH1 0x0 JUMPDEST PUSH1 0x20 MUL ADD MLOAD PUSH2 0x1793 JUMP JUMPDEST DUP2 MSTORE JUMPDEST PUSH2 0x140 DUP3 ADD MLOAD PUSH1 0x20 ADD MLOAD PUSH2 0xFFFF AND ISZERO PUSH2 0x939 JUMPI PUSH2 0x140 DUP3 ADD MLOAD PUSH2 0x994 SWAP1 PUSH1 0x1 PUSH2 0x963 JUMP JUMPDEST PUSH1 0x20 DUP3 ADD MSTORE SWAP2 SWAP1 POP JUMP JUMPDEST PUSH2 0x9A6 PUSH2 0x51D3 JUMP JUMPDEST DUP3 PUSH2 0x9C6 JUMPI PUSH1 0x40 DUP1 DUP7 ADD MLOAD PUSH2 0xFFFF AND DUP3 MSTORE PUSH2 0x160 DUP7 ADD MLOAD SWAP1 DUP3 ADD MSTORE PUSH2 0xA00 JUMP JUMPDEST DUP5 PUSH2 0x140 ADD MLOAD PUSH1 0x1 DUP5 SUB PUSH1 0x2 DUP2 LT PUSH2 0x9DA JUMPI INVALID JUMPDEST PUSH1 0x20 MUL ADD MLOAD PUSH2 0xFFFF AND DUP2 MSTORE DUP4 PUSH1 0x0 NOT DUP5 ADD PUSH1 0x2 DUP2 LT PUSH2 0x9F5 JUMPI INVALID JUMPDEST PUSH1 0x20 MUL ADD MLOAD PUSH1 0x40 DUP3 ADD MSTORE JUMPDEST DUP2 PUSH2 0xA23 JUMPI PUSH1 0x40 DUP6 ADD MLOAD PUSH2 0xFFFF AND PUSH1 0x20 DUP3 ADD MSTORE PUSH2 0x160 DUP6 ADD MLOAD PUSH1 0x60 DUP3 ADD MSTORE PUSH2 0xA64 JUMP JUMPDEST DUP5 PUSH2 0x140 ADD MLOAD PUSH1 0x1 DUP4 SUB PUSH1 0x2 DUP2 LT PUSH2 0xA37 JUMPI INVALID JUMPDEST PUSH1 0x20 SWAP1 DUP2 MUL SWAP2 SWAP1 SWAP2 ADD MLOAD PUSH2 0xFFFF AND SWAP1 DUP3 ADD MSTORE DUP4 PUSH1 0x0 NOT DUP4 ADD PUSH1 0x2 DUP2 LT PUSH2 0xA59 JUMPI INVALID JUMPDEST PUSH1 0x20 MUL ADD MLOAD PUSH1 0x60 DUP3 ADD MSTORE JUMPDEST PUSH1 0x0 PUSH2 0xA77 DUP3 PUSH1 0x0 ADD MLOAD PUSH2 0xFFFF AND PUSH2 0x17A5 JUMP JUMPDEST SWAP1 POP PUSH1 0x0 PUSH2 0xA8C DUP4 PUSH1 0x20 ADD MLOAD PUSH2 0xFFFF AND PUSH2 0x17A5 JUMP JUMPDEST SWAP1 POP PUSH2 0xA98 DUP3 DUP3 PUSH2 0x1908 JUMP JUMPDEST PUSH1 0x80 DUP5 ADD MSTORE POP MLOAD PUSH1 0xA0 DUP3 ADD MSTORE SWAP5 SWAP4 POP POP POP POP JUMP JUMPDEST PUSH1 0x0 PUSH1 0x1 PUSH1 0x1 PUSH1 0xFF SHL SUB DUP3 GT ISZERO PUSH2 0xAC2 JUMPI PUSH1 0x0 DUP1 REVERT JUMPDEST POP SWAP1 JUMP JUMPDEST DUP2 DUP2 MUL PUSH1 0x0 NOT DUP4 EQ ISZERO PUSH2 0xAF6 JUMPI DUP2 ISZERO DUP1 PUSH2 0xAE8 JUMPI POP DUP3 DUP3 DUP3 DUP2 PUSH2 0xAE5 JUMPI INVALID JUMPDEST SDIV EQ JUMPDEST PUSH2 0xAF1 JUMPI PUSH1 0x0 DUP1 REVERT JUMPDEST PUSH2 0xB14 JUMP JUMPDEST DUP3 ISZERO DUP1 PUSH2 0xB0B JUMPI POP DUP2 DUP4 DUP3 DUP2 PUSH2 0xB08 JUMPI INVALID JUMPDEST SDIV EQ JUMPDEST PUSH2 0xB14 JUMPI PUSH1 0x0 DUP1 REVERT JUMPDEST SWAP3 SWAP2 POP POP JUMP JUMPDEST PUSH1 0x0 DUP2 PUSH1 0x0 NOT EQ DUP1 ISZERO PUSH2 0xB30 JUMPI POP PUSH1 0x1 PUSH1 0xFF SHL DUP4 EQ JUMPDEST ISZERO PUSH2 0xB3A JUMPI PUSH1 0x0 DUP1 REVERT JUMPDEST DUP2 DUP4 DUP2 PUSH2 0xB43 JUMPI INVALID JUMPDEST SDIV SWAP4 SWAP3 POP POP POP JUMP JUMPDEST DUP2 MLOAD PUSH1 0x0 SWAP1 DUP2 SWAP1 PUSH2 0xB6F SWAP1 PUSH2 0x2AA DUP6 PUSH15 0xC097CE7BC90715B34B9F1000000000 PUSH2 0xAC6 JUMP JUMPDEST SWAP1 POP PUSH1 0x0 DUP4 SLT PUSH2 0xB7F JUMPI DUP1 PUSH2 0xB8B JUMP JUMPDEST PUSH2 0xB8B DUP2 PUSH1 0x0 NOT PUSH2 0x192D JUMP JUMPDEST SWAP5 SWAP4 POP POP POP POP JUMP JUMPDEST PUSH1 0x0 DUP1 PUSH2 0xB6F PUSH15 0xC097CE7BC90715B34B9F1000000000 PUSH2 0x2AA DUP7 PUSH1 0x0 ADD MLOAD DUP7 PUSH2 0xAC6 SWAP1 SWAP2 SWAP1 PUSH4 0xFFFFFFFF AND JUMP JUMPDEST PUSH1 0x0 PUSH2 0x936 PUSH1 0x0 NOT DUP4 PUSH2 0xAC6 JUMP JUMPDEST PUSH1 0x0 PUSH2 0xBD8 PUSH2 0x1943 JUMP JUMPDEST PUSH1 0x60 DUP8 ADD MLOAD PUSH1 0x1 PUSH1 0x1 PUSH1 0xA0 SHL SUB SWAP1 DUP2 AND PUSH1 0x0 SWAP1 DUP2 MSTORE PUSH1 0x20 DUP4 DUP2 MSTORE PUSH1 0x40 DUP1 DUP4 KECCAK256 DUP11 MLOAD SWAP1 SWAP5 AND DUP4 MSTORE SWAP3 SWAP1 MSTORE KECCAK256 SWAP1 SWAP2 POP DUP5 PUSH2 0xC5B JUMPI PUSH1 0x1 DUP2 ADD SLOAD PUSH2 0xC34 SWAP1 PUSH2 0xC2F SWAP1 PUSH2 0xC2A SWAP1 PUSH1 0x1 PUSH1 0x1 PUSH1 0x50 SHL SUB AND DUP8 PUSH2 0x1950 JUMP JUMPDEST PUSH2 0x1966 JUMP JUMPDEST PUSH2 0x1975 JUMP JUMPDEST PUSH1 0x1 DUP3 ADD DUP1 SLOAD PUSH1 0x1 PUSH1 0x1 PUSH1 0x50 SHL SUB NOT AND PUSH1 0x1 PUSH1 0x1 PUSH1 0x50 SHL SUB SWAP3 SWAP1 SWAP3 AND SWAP2 SWAP1 SWAP2 OR SWAP1 SSTORE PUSH2 0xD11 JUMP JUMPDEST DUP5 PUSH1 0x1 EQ ISZERO PUSH2 0xCB8 JUMPI PUSH1 0x1 DUP2 ADD SLOAD PUSH2 0xC8B SWAP1 PUSH2 0xC2F SWAP1 PUSH2 0xC2A SWAP1 PUSH1 0x1 PUSH1 0x50 SHL SWAP1 DIV PUSH1 0x1 PUSH1 0x1 PUSH1 0x50 SHL SUB AND DUP8 PUSH2 0x1950 JUMP JUMPDEST DUP2 PUSH1 0x1 ADD PUSH1 0xA PUSH2 0x100 EXP DUP2 SLOAD DUP2 PUSH1 0x1 PUSH1 0x1 PUSH1 0x50 SHL SUB MUL NOT AND SWAP1 DUP4 PUSH1 0x1 PUSH1 0x1 PUSH1 0x50 SHL SUB AND MUL OR SWAP1 SSTORE POP PUSH2 0xD11 JUMP JUMPDEST DUP5 PUSH1 0x2 EQ ISZERO PUSH2 0x70 JUMPI PUSH1 0x1 DUP2 ADD SLOAD PUSH2 0xCE8 SWAP1 PUSH2 0xC2F SWAP1 PUSH2 0xC2A SWAP1 PUSH1 0x1 PUSH1 0xA0 SHL SWAP1 DIV PUSH1 0x1 PUSH1 0x1 PUSH1 0x50 SHL SUB AND DUP8 PUSH2 0x1950 JUMP JUMPDEST DUP2 PUSH1 0x1 ADD PUSH1 0x14 PUSH2 0x100 EXP DUP2 SLOAD DUP2 PUSH1 0x1 PUSH1 0x1 PUSH1 0x50 SHL SUB MUL NOT AND SWAP1 DUP4 PUSH1 0x1 PUSH1 0x1 PUSH1 0x50 SHL SUB AND MUL OR SWAP1 SSTORE POP JUMPDEST PUSH1 0x0 DUP8 PUSH1 0x80 ADD DUP2 DUP2 MSTORE POP POP PUSH2 0xD2A DUP8 DUP8 DUP4 DUP7 PUSH1 0x0 PUSH2 0x198B JUMP JUMPDEST POP POP POP POP POP POP POP JUMP JUMPDEST PUSH1 0x0 PUSH2 0xD3D PUSH2 0x1BF9 JUMP JUMPDEST PUSH2 0xFFFF DUP5 AND PUSH1 0x0 SWAP1 DUP2 MSTORE PUSH1 0x20 SWAP2 SWAP1 SWAP2 MSTORE PUSH1 0x40 DUP2 KECCAK256 SLOAD PUSH1 0x1 PUSH1 0x1 PUSH1 0xA0 SHL SUB AND SWAP2 POP DUP3 SLT ISZERO PUSH2 0xD68 JUMPI SWAP3 SWAP4 SWAP3 JUMPDEST DUP1 PUSH1 0x1 PUSH1 0x1 PUSH1 0xA0 SHL SUB AND PUSH4 0x23DE6651 DUP7 DUP7 PUSH2 0xD82 DUP7 PUSH2 0x1C06 JUMP JUMPDEST PUSH1 0x40 MLOAD DUP5 PUSH4 0xFFFFFFFF AND PUSH1 0xE0 SHL DUP2 MSTORE PUSH1 0x4 ADD PUSH2 0xDA0 SWAP4 SWAP3 SWAP2 SWAP1 PUSH2 0x5ABB JUMP JUMPDEST PUSH1 0x0 PUSH1 0x40 MLOAD DUP1 DUP4 SUB DUP2 PUSH1 0x0 DUP8 DUP1 EXTCODESIZE ISZERO DUP1 ISZERO PUSH2 0xDBA JUMPI PUSH1 0x0 DUP1 REVERT JUMPDEST POP GAS CALL ISZERO DUP1 ISZERO PUSH2 0xDCE JUMPI RETURNDATASIZE PUSH1 0x0 DUP1 RETURNDATACOPY RETURNDATASIZE PUSH1 0x0 REVERT JUMPDEST POP POP POP POP POP POP POP POP POP JUMP JUMPDEST PUSH1 0x0 DUP4 PUSH2 0xDE8 JUMPI POP PUSH1 0x0 PUSH2 0xE79 JUMP JUMPDEST PUSH1 0x0 DUP5 SLT PUSH2 0xDF5 JUMPI PUSH1 0x0 DUP1 REVERT JUMPDEST PUSH1 0x0 PUSH2 0xE04 DUP7 PUSH2 0xFFFF AND PUSH2 0x1297 JUMP JUMPDEST SWAP1 POP PUSH2 0xE19 DUP2 PUSH2 0xE14 DUP7 DUP9 PUSH2 0xB93 JUMP JUMPDEST PUSH2 0x12AA JUMP JUMPDEST SWAP2 POP PUSH1 0x0 PUSH2 0xE26 DUP4 PUSH2 0xBC0 JUMP JUMPDEST SWAP1 POP PUSH2 0xE33 DUP8 DUP4 DUP4 PUSH2 0x1C27 JUMP JUMPDEST PUSH1 0x3 DUP3 PUSH1 0x60 ADD MLOAD PUSH1 0x5 DUP2 GT ISZERO PUSH2 0xE45 JUMPI INVALID JUMPDEST EQ ISZERO PUSH2 0xE5B JUMPI PUSH2 0xE56 DUP9 DUP3 DUP7 PUSH2 0x1D18 JUMP JUMPDEST PUSH2 0xE68 JUMP JUMPDEST DUP2 MLOAD PUSH2 0xE68 SWAP1 DUP10 DUP4 PUSH2 0x1DE6 JUMP JUMPDEST PUSH2 0xE75 DUP10 DUP9 DUP6 DUP6 DUP10 PUSH2 0x1E5D JUMP JUMPDEST POP POP POP JUMPDEST SWAP7 SWAP6 POP POP POP POP POP POP JUMP JUMPDEST DUP1 PUSH2 0xE8D JUMPI PUSH2 0xF13 JUMP JUMPDEST PUSH1 0x0 PUSH2 0xE9C DUP6 DUP6 DUP6 PUSH1 0xB PUSH2 0x1EA4 JUMP JUMPDEST SWAP1 POP PUSH1 0x0 DUP1 PUSH1 0x0 DUP5 SLT ISZERO PUSH2 0xEB5 JUMPI POP DUP7 SWAP1 POP PUSH1 0x0 PUSH2 0xEBC JUMP JUMPDEST POP PUSH1 0x0 SWAP1 POP DUP7 JUMPDEST PUSH1 0x0 PUSH2 0xEC7 DUP6 PUSH2 0x1C06 JUMP JUMPDEST SWAP1 POP DUP2 PUSH1 0x1 PUSH1 0x1 PUSH1 0xA0 SHL SUB AND DUP4 PUSH1 0x1 PUSH1 0x1 PUSH1 0xA0 SHL SUB AND CALLER PUSH1 0x1 PUSH1 0x1 PUSH1 0xA0 SHL SUB AND PUSH1 0x0 DUP1 MLOAD PUSH1 0x20 PUSH2 0x5E3A DUP4 CODECOPY DUP2 MLOAD SWAP2 MSTORE DUP8 DUP6 PUSH1 0x40 MLOAD PUSH2 0xF06 SWAP3 SWAP2 SWAP1 PUSH2 0x5D84 JUMP JUMPDEST PUSH1 0x40 MLOAD DUP1 SWAP2 SUB SWAP1 LOG4 POP POP POP POP JUMPDEST POP POP POP POP POP JUMP JUMPDEST PUSH1 0x0 DUP4 PUSH2 0xF29 JUMPI POP PUSH1 0x0 PUSH2 0xF88 JUMP JUMPDEST PUSH1 0x0 DUP5 SGT PUSH2 0xF36 JUMPI PUSH1 0x0 DUP1 REVERT JUMPDEST PUSH1 0x0 PUSH2 0xF45 DUP7 PUSH2 0xFFFF AND PUSH2 0x1297 JUMP JUMPDEST SWAP1 POP PUSH1 0x0 PUSH2 0xF5C DUP3 PUSH2 0xF57 DUP8 DUP10 PUSH2 0xB93 JUMP JUMPDEST PUSH2 0x1EDA JUMP JUMPDEST SWAP1 POP PUSH1 0x0 PUSH2 0xF6D DUP10 DUP10 DUP5 DUP10 DUP10 PUSH2 0x12E2 JUMP JUMPDEST SWAP1 SWAP5 POP SWAP1 POP DUP7 DUP2 SUB PUSH1 0x0 DUP2 SLT ISZERO PUSH2 0xF83 JUMPI PUSH1 0x0 DUP1 REVERT JUMPDEST POP POP POP POP JUMPDEST SWAP6 SWAP5 POP POP POP POP POP JUMP JUMPDEST PUSH1 0x0 PUSH2 0xF9B PUSH2 0x5083 JUMP JUMPDEST PUSH1 0x0 DUP1 PUSH1 0x0 PUSH2 0xFA9 DUP9 PUSH2 0x93E JUMP JUMPDEST SWAP1 POP PUSH1 0x0 DUP1 PUSH2 0xFB9 DUP11 DUP10 DUP6 PUSH2 0x1F17 JUMP JUMPDEST SWAP3 POP SWAP3 POP POP PUSH1 0x0 DUP1 PUSH2 0xFCF DUP11 DUP14 PUSH1 0x0 ADD MLOAD PUSH2 0x1FAB JUMP JUMPDEST SWAP2 POP SWAP2 POP DUP12 PUSH2 0x140 ADD MLOAD PUSH1 0x1 DUP13 SUB PUSH1 0x2 DUP2 LT PUSH2 0xFE7 JUMPI INVALID JUMPDEST PUSH1 0x20 MUL ADD MLOAD SWAP9 POP DUP5 PUSH1 0x1 DUP13 SUB PUSH1 0x2 DUP2 LT PUSH2 0xFFD JUMPI INVALID JUMPDEST PUSH1 0x20 MUL ADD MLOAD SWAP8 POP DUP11 PUSH1 0x1 EQ PUSH2 0x1013 JUMPI DUP3 DUP2 PUSH2 0x1016 JUMP JUMPDEST DUP4 DUP3 JUMPDEST SWAP10 SWAP14 SWAP9 SWAP13 POP SWAP11 POP SWAP8 SWAP9 POP SWAP6 SWAP7 POP POP POP POP POP POP POP JUMP JUMPDEST PUSH1 0x0 PUSH2 0x1044 PUSH2 0x103A DUP5 DUP5 PUSH2 0xAC6 JUMP JUMPDEST PUSH4 0x3B9ACA00 PUSH2 0xB1A JUMP JUMPDEST SWAP4 SWAP3 POP POP POP JUMP JUMPDEST PUSH1 0x60 DUP7 ADD MLOAD PUSH1 0x20 DUP8 ADD MLOAD PUSH1 0x40 MLOAD PUSH4 0x51586B33 PUSH1 0xE0 SHL DUP2 MSTORE PUSH1 0x0 SWAP3 PUSH20 0x0 SWAP3 PUSH4 0x51586B33 SWAP3 PUSH2 0x1098 SWAP3 DUP12 SWAP3 DUP12 SWAP3 DUP12 SWAP2 SWAP1 DUP12 SWAP1 DUP12 SWAP1 PUSH1 0x4 ADD PUSH2 0x5A76 JUMP JUMPDEST PUSH1 0x20 PUSH1 0x40 MLOAD DUP1 DUP4 SUB DUP2 DUP7 DUP1 EXTCODESIZE ISZERO DUP1 ISZERO PUSH2 0x10B0 JUMPI PUSH1 0x0 DUP1 REVERT JUMPDEST POP GAS DELEGATECALL ISZERO DUP1 ISZERO PUSH2 0x10C4 JUMPI RETURNDATASIZE PUSH1 0x0 DUP1 RETURNDATACOPY RETURNDATASIZE PUSH1 0x0 REVERT JUMPDEST POP POP POP POP PUSH1 0x40 MLOAD RETURNDATASIZE PUSH1 0x1F NOT PUSH1 0x1F DUP3 ADD AND DUP3 ADD DUP1 PUSH1 0x40 MSTORE POP DUP2 ADD SWAP1 PUSH2 0x10E8 SWAP2 SWAP1 PUSH2 0x5765 JUMP JUMPDEST SWAP1 POP DUP1 ISZERO PUSH2 0x1158 JUMPI PUSH1 0x40 MLOAD PUSH4 0x6CCC642F PUSH1 0xE0 SHL DUP2 MSTORE PUSH20 0x0 SWAP1 PUSH4 0x6CCC642F SWAP1 PUSH2 0x1127 SWAP1 DUP10 SWAP1 PUSH1 0x4 ADD PUSH2 0x5A48 JUMP JUMPDEST PUSH1 0x0 PUSH1 0x40 MLOAD DUP1 DUP4 SUB DUP2 DUP7 DUP1 EXTCODESIZE ISZERO DUP1 ISZERO PUSH2 0x113F JUMPI PUSH1 0x0 DUP1 REVERT JUMPDEST POP GAS DELEGATECALL ISZERO DUP1 ISZERO PUSH2 0x1153 JUMPI RETURNDATASIZE PUSH1 0x0 DUP1 RETURNDATACOPY RETURNDATASIZE PUSH1 0x0 REVERT JUMPDEST POP POP POP POP JUMPDEST DUP6 PUSH1 0x1 PUSH1 0x1 PUSH1 0xA0 SHL SUB AND DUP8 PUSH1 0x60 ADD MLOAD PUSH1 0x1 PUSH1 0x1 PUSH1 0xA0 SHL SUB AND DUP7 PUSH1 0x1 PUSH1 0x1 PUSH1 0xA0 SHL SUB AND PUSH32 0x19B09F1F990520654BEA0360DD08A2678D6926FD849DD49BC385862DC91AF753 DUP8 DUP8 DUP8 PUSH1 0x40 MLOAD PUSH2 0x11AD SWAP4 SWAP3 SWAP2 SWAP1 PUSH2 0x5C09 JUMP JUMPDEST PUSH1 0x40 MLOAD DUP1 SWAP2 SUB SWAP1 LOG4 POP POP POP POP POP POP POP JUMP JUMPDEST DUP3 PUSH2 0x11DF JUMPI PUSH2 0x11D0 DUP5 DUP7 DUP5 PUSH1 0x0 PUSH2 0x2001 JUMP JUMPDEST PUSH2 0x11DA DUP6 DUP8 PUSH2 0x206C JUMP JUMPDEST PUSH2 0x128F JUMP JUMPDEST PUSH1 0x0 PUSH2 0x11EA DUP8 PUSH2 0x93E JUMP JUMPDEST SWAP1 POP PUSH1 0x0 DUP1 PUSH2 0x1228 DUP10 DUP9 PUSH1 0x60 ADD MLOAD DUP10 PUSH1 0x20 ADD MLOAD DUP10 PUSH1 0x1 EQ PUSH2 0x120C JUMPI PUSH1 0x0 PUSH2 0x120E JUMP JUMPDEST DUP9 JUMPDEST DUP11 PUSH1 0x2 EQ PUSH2 0x121D JUMPI PUSH1 0x0 PUSH2 0x121F JUMP JUMPDEST DUP10 JUMPDEST DUP9 PUSH1 0x0 DUP1 PUSH2 0x2115 JUMP JUMPDEST SWAP2 POP SWAP2 POP DUP4 ISZERO PUSH2 0xDCE JUMPI PUSH1 0x0 DUP7 PUSH1 0x1 EQ PUSH2 0x1242 JUMPI DUP2 PUSH2 0x1244 JUMP JUMPDEST DUP3 JUMPDEST SWAP1 POP DUP1 ISZERO DUP1 PUSH2 0x126E JUMPI POP DUP1 PUSH1 0x0 SUB DUP11 PUSH2 0x1A0 ADD MLOAD PUSH1 0x1 DUP10 SUB PUSH1 0x2 DUP2 LT PUSH2 0x1266 JUMPI INVALID JUMPDEST PUSH1 0x20 MUL ADD MLOAD SGT ISZERO JUMPDEST PUSH2 0x128A JUMPI PUSH1 0x40 MLOAD PUSH3 0x461BCD PUSH1 0xE5 SHL DUP2 MSTORE PUSH1 0x4 ADD PUSH2 0x8CA SWAP1 PUSH2 0x5BE5 JUMP JUMPDEST POP POP POP POP JUMPDEST POP POP POP POP POP POP JUMP JUMPDEST PUSH2 0x129F PUSH2 0x5213 JUMP JUMPDEST PUSH2 0x936 DUP3 PUSH1 0x1 PUSH2 0x2347 JUMP JUMPDEST PUSH1 0x0 PUSH4 0x5F5E100 DUP4 PUSH1 0x40 ADD MLOAD EQ ISZERO PUSH2 0x12C3 JUMPI POP DUP1 PUSH2 0xB14 JUMP JUMPDEST PUSH2 0x1044 PUSH4 0x5F5E100 PUSH2 0x2AA DUP6 PUSH1 0x40 ADD MLOAD DUP6 PUSH2 0xAC6 SWAP1 SWAP2 SWAP1 PUSH4 0xFFFFFFFF AND JUMP JUMPDEST PUSH1 0x0 DUP1 PUSH1 0x0 PUSH2 0x12F0 DUP7 PUSH2 0x1966 JUMP JUMPDEST SWAP1 POP DUP1 PUSH2 0x1304 JUMPI PUSH1 0x0 DUP1 SWAP3 POP SWAP3 POP POP PUSH2 0x139A JUMP JUMPDEST PUSH1 0x0 PUSH2 0x1313 DUP9 PUSH2 0xFFFF AND PUSH2 0x1297 JUMP JUMPDEST SWAP1 POP PUSH1 0x3 DUP2 PUSH1 0x60 ADD MLOAD PUSH1 0x5 DUP2 GT ISZERO PUSH2 0x1327 JUMPI INVALID JUMPDEST EQ ISZERO PUSH2 0x136E JUMPI CALLVALUE DUP3 LT ISZERO PUSH2 0x1347 JUMPI PUSH2 0x1342 DUP10 DUP4 CALLVALUE SUB DUP8 PUSH2 0x1D18 JUMP JUMPDEST PUSH2 0x1366 JUMP JUMPDEST CALLVALUE DUP3 EQ PUSH2 0x1366 JUMPI PUSH1 0x40 MLOAD PUSH3 0x461BCD PUSH1 0xE5 SHL DUP2 MSTORE PUSH1 0x4 ADD PUSH2 0x8CA SWAP1 PUSH2 0x5B26 JUMP JUMPDEST DUP7 SWAP4 POP PUSH2 0x1388 JUMP JUMPDEST PUSH2 0x1385 PUSH2 0x1380 DUP3 PUSH1 0x0 ADD MLOAD DUP12 DUP6 PUSH2 0x23E1 JUMP JUMPDEST PUSH2 0xAAC JUMP JUMPDEST SWAP4 POP JUMPDEST PUSH2 0x1395 DUP10 DUP10 DUP7 DUP5 DUP11 PUSH2 0x1E5D JUMP JUMPDEST SWAP3 POP POP POP JUMPDEST SWAP6 POP SWAP6 SWAP4 POP POP POP POP JUMP JUMPDEST PUSH2 0x13B0 DUP8 DUP7 DUP7 DUP6 PUSH2 0xD33 JUMP JUMPDEST PUSH1 0x0 PUSH2 0x13BF DUP7 DUP7 DUP7 PUSH1 0x0 PUSH2 0x1EA4 JUMP JUMPDEST SWAP1 POP PUSH5 0xFFFFFFFFFF DUP5 EQ ISZERO PUSH2 0x143F JUMPI PUSH1 0x0 PUSH2 0x13EA PUSH2 0x13E5 DUP5 PUSH2 0x13E0 DUP8 PUSH2 0xBC0 JUMP JUMPDEST PUSH2 0x255F JUMP JUMPDEST PUSH2 0xBC0 JUMP JUMPDEST SWAP1 POP DUP1 PUSH1 0x0 NOT EQ ISZERO PUSH2 0x13FA JUMPI POP PUSH1 0x0 JUMPDEST PUSH1 0x0 PUSH1 0x1 PUSH1 0x1 PUSH1 0xA0 SHL SUB DUP10 AND CALLER PUSH1 0x0 DUP1 MLOAD PUSH1 0x20 PUSH2 0x5E3A DUP4 CODECOPY DUP2 MLOAD SWAP2 MSTORE PUSH1 0xA DUP7 OR PUSH2 0x1423 DUP7 PUSH2 0x1966 JUMP JUMPDEST PUSH1 0x40 MLOAD PUSH2 0x1431 SWAP3 SWAP2 SWAP1 PUSH2 0x5D84 JUMP JUMPDEST PUSH1 0x40 MLOAD DUP1 SWAP2 SUB SWAP1 LOG4 POP PUSH2 0x147F JUMP JUMPDEST PUSH1 0x1 PUSH1 0x1 PUSH1 0xA0 SHL SUB DUP8 AND PUSH1 0x0 CALLER PUSH1 0x0 DUP1 MLOAD PUSH1 0x20 PUSH2 0x5E3A DUP4 CODECOPY DUP2 MLOAD SWAP2 MSTORE PUSH1 0xB DUP6 OR PUSH2 0x1468 DUP9 PUSH2 0x1966 JUMP JUMPDEST PUSH1 0x40 MLOAD PUSH2 0x1476 SWAP3 SWAP2 SWAP1 PUSH2 0x5D84 JUMP JUMPDEST PUSH1 0x40 MLOAD DUP1 SWAP2 SUB SWAP1 LOG4 JUMPDEST POP POP POP POP POP POP POP POP JUMP JUMPDEST PUSH1 0x0 PUSH2 0x1498 DUP6 DUP6 DUP6 PUSH1 0x9 PUSH2 0x1EA4 JUMP JUMPDEST SWAP1 POP DUP7 PUSH1 0x1 PUSH1 0x1 PUSH1 0xA0 SHL SUB AND DUP7 PUSH1 0x1 PUSH1 0x1 PUSH1 0xA0 SHL SUB AND CALLER PUSH1 0x1 PUSH1 0x1 PUSH1 0xA0 SHL SUB AND PUSH1 0x0 DUP1 MLOAD PUSH1 0x20 PUSH2 0x5E3A DUP4 CODECOPY DUP2 MLOAD SWAP2 MSTORE DUP5 DUP7 PUSH1 0x40 MLOAD PUSH2 0x11AD SWAP3 SWAP2 SWAP1 PUSH2 0x5D84 JUMP JUMPDEST PUSH1 0x0 DUP3 DUP3 GT ISZERO PUSH2 0x14E6 JUMPI PUSH1 0x0 DUP1 REVERT JUMPDEST POP SWAP1 SUB SWAP1 JUMP JUMPDEST PUSH1 0x0 PUSH2 0x14F8 DUP6 DUP6 PUSH2 0x1614 JUMP JUMPDEST SWAP1 POP DUP1 PUSH1 0x20 ADD MLOAD PUSH1 0x0 EQ DUP1 PUSH2 0x1510 JUMPI POP DUP2 DUP2 PUSH1 0x20 ADD MLOAD EQ JUMPDEST PUSH2 0x152C JUMPI PUSH1 0x40 MLOAD PUSH3 0x461BCD PUSH1 0xE5 SHL DUP2 MSTORE PUSH1 0x4 ADD PUSH2 0x8CA SWAP1 PUSH2 0x5B4B JUMP JUMPDEST PUSH1 0x20 DUP2 ADD DUP3 SWAP1 MSTORE PUSH1 0x40 DUP2 ADD MLOAD PUSH2 0x1542 SWAP1 DUP5 PUSH2 0x259E JUMP JUMPDEST PUSH1 0x40 DUP3 ADD MSTORE PUSH2 0xF13 DUP2 DUP6 PUSH1 0x1 PUSH1 0x0 PUSH2 0x25B0 JUMP JUMPDEST PUSH1 0x1 PUSH1 0x1 PUSH1 0xA0 SHL SUB DUP2 AND PUSH2 0x1568 JUMPI PUSH1 0x0 DUP1 REVERT JUMPDEST PUSH1 0x1 PUSH1 0x1 PUSH1 0xA0 SHL SUB DUP2 AND PUSH2 0xFEE EQ ISZERO PUSH2 0x1580 JUMPI PUSH1 0x0 DUP1 REVERT JUMPDEST PUSH1 0x1 PUSH1 0x1 PUSH1 0xA0 SHL SUB DUP2 AND PUSH2 0x5E7 EQ ISZERO PUSH2 0x1598 JUMPI PUSH1 0x0 DUP1 REVERT JUMPDEST PUSH1 0x1 PUSH1 0x1 PUSH1 0xA0 SHL SUB DUP2 AND ADDRESS EQ ISZERO PUSH2 0x15AE JUMPI PUSH1 0x0 DUP1 REVERT JUMPDEST PUSH1 0x0 PUSH2 0x15B9 DUP3 PUSH2 0x2640 JUMP JUMPDEST POP POP POP POP PUSH2 0xFFFF AND SWAP1 POP DUP1 PUSH1 0x0 EQ PUSH2 0x15D0 JUMPI PUSH1 0x0 DUP1 REVERT JUMPDEST POP POP JUMP JUMPDEST PUSH2 0x15DC PUSH2 0x50A4 JUMP JUMPDEST PUSH2 0x15E5 DUP3 PUSH2 0x26AC JUMP JUMPDEST SWAP1 POP PUSH2 0x15F4 DUP2 PUSH1 0x40 ADD MLOAD PUSH2 0x1793 JUMP JUMPDEST PUSH2 0x160 DUP3 ADD MSTORE SWAP2 SWAP1 POP JUMP JUMPDEST PUSH1 0x20 SWAP2 SWAP1 SWAP2 ADD MLOAD DUP2 AND PUSH2 0xFFFF SWAP1 DUP2 AND SWAP2 AND EQ SWAP1 JUMP JUMPDEST PUSH2 0x161C PUSH2 0x513D JUMP JUMPDEST PUSH1 0x0 PUSH2 0x1626 PUSH2 0x1943 JUMP JUMPDEST PUSH1 0x1 PUSH1 0x1 PUSH1 0xA0 SHL SUB DUP1 DUP7 AND PUSH1 0x0 DUP2 DUP2 MSTORE PUSH1 0x20 DUP5 DUP2 MSTORE PUSH1 0x40 DUP1 DUP4 KECCAK256 DUP10 MLOAD SWAP1 SWAP6 AND DUP4 MSTORE SWAP4 DUP2 MSTORE SWAP1 DUP4 SWAP1 KECCAK256 DUP1 SLOAD PUSH5 0xFFFFFFFFFF PUSH1 0x1 PUSH1 0xA0 SHL DUP3 DIV AND SWAP3 DUP9 ADD DUP4 SWAP1 MSTORE PUSH1 0x1 PUSH1 0x1 PUSH1 0x50 SHL SUB PUSH1 0x1 PUSH1 0x50 SHL DUP3 DIV DUP2 AND SWAP6 DUP10 ADD SWAP6 SWAP1 SWAP6 MSTORE PUSH1 0x60 DUP9 ADD SWAP4 SWAP1 SWAP4 MSTORE PUSH1 0x1 DUP2 ADD SLOAD DUP5 AND PUSH1 0x80 DUP9 ADD MSTORE PUSH4 0xFFFFFFFF PUSH1 0x1 PUSH1 0xC8 SHL DUP5 DIV AND PUSH1 0xA0 DUP9 ADD MSTORE PUSH2 0x160 DUP9 ADD MLOAD SWAP5 SWAP6 POP SWAP4 PUSH2 0x16B8 SWAP4 SWAP1 SWAP3 AND PUSH2 0x289A JUMP JUMPDEST DUP4 MSTORE POP SWAP1 SWAP4 SWAP3 POP POP POP JUMP JUMPDEST PUSH2 0x16CB PUSH2 0x517C JUMP JUMPDEST PUSH2 0x16FD DUP4 PUSH2 0x16EE PUSH2 0x13E5 DUP7 PUSH1 0x0 ADD MLOAD DUP7 PUSH2 0x160 ADD MLOAD PUSH2 0xB4B SWAP1 SWAP2 SWAP1 PUSH4 0xFFFFFFFF AND JUMP JUMPDEST PUSH1 0x20 DUP7 ADD MLOAD DUP6 SWAP3 SWAP2 SWAP1 TIMESTAMP PUSH2 0x28D0 JUMP JUMPDEST POP PUSH2 0x1044 DUP4 DUP4 PUSH2 0x2999 JUMP JUMPDEST PUSH2 0x1710 PUSH2 0x517C JUMP JUMPDEST PUSH1 0x0 PUSH2 0x171A PUSH2 0x2A11 JUMP JUMPDEST DUP5 MLOAD PUSH1 0x1 PUSH1 0x1 PUSH1 0xA0 SHL SUB AND PUSH1 0x0 SWAP1 DUP2 MSTORE PUSH1 0x20 DUP3 DUP2 MSTORE PUSH1 0x40 DUP1 DUP4 KECCAK256 DUP8 DUP5 MSTORE SWAP1 SWAP2 MSTORE SWAP1 DUP2 SWAP1 KECCAK256 DUP6 DUP6 MSTORE DUP1 SLOAD PUSH1 0xFF PUSH1 0x1 PUSH1 0xF0 SHL DUP3 DIV AND ISZERO ISZERO PUSH1 0x60 DUP8 ADD MSTORE PUSH1 0x1 PUSH1 0x1 PUSH1 0x50 SHL SUB PUSH1 0x1 PUSH1 0xA0 SHL DUP3 DIV DUP2 AND SWAP4 DUP8 ADD SWAP4 SWAP1 SWAP4 MSTORE PUSH2 0x160 DUP9 ADD MLOAD SWAP4 SWAP5 POP SWAP1 SWAP3 PUSH2 0x1785 SWAP3 SWAP1 SWAP2 DUP8 SWAP2 AND PUSH2 0x289A JUMP JUMPDEST PUSH1 0x20 DUP5 ADD MSTORE POP SWAP1 SWAP4 SWAP3 POP POP POP JUMP JUMPDEST PUSH2 0x179B PUSH2 0x5083 JUMP JUMPDEST PUSH2 0x936 DUP3 TIMESTAMP PUSH2 0x2A1E JUMP JUMPDEST PUSH2 0x17AD PUSH2 0x523A JUMP JUMPDEST PUSH1 0x0 PUSH2 0x17B7 PUSH2 0x2ADF JUMP JUMPDEST PUSH1 0x0 DUP5 DUP2 MSTORE PUSH1 0x20 DUP3 SWAP1 MSTORE PUSH1 0x40 DUP2 KECCAK256 SWAP2 SWAP3 POP DUP1 PUSH1 0x1 DUP7 EQ ISZERO PUSH2 0x17E4 JUMPI POP PUSH8 0xDE0B6B3A7640000 SWAP1 POP DUP1 PUSH2 0x18A7 JUMP JUMPDEST DUP3 SLOAD PUSH1 0x40 DUP1 MLOAD PUSH4 0x3FABE5A3 PUSH1 0xE2 SHL DUP2 MSTORE SWAP1 MLOAD PUSH1 0x1 PUSH1 0x1 PUSH1 0xA0 SHL SUB SWAP1 SWAP3 AND SWAP2 PUSH4 0xFEAF968C SWAP2 PUSH1 0x4 DUP1 DUP3 ADD SWAP3 PUSH1 0xA0 SWAP3 SWAP1 SWAP2 SWAP1 DUP3 SWAP1 SUB ADD DUP2 DUP7 DUP1 EXTCODESIZE ISZERO DUP1 ISZERO PUSH2 0x1828 JUMPI PUSH1 0x0 DUP1 REVERT JUMPDEST POP GAS STATICCALL ISZERO DUP1 ISZERO PUSH2 0x183C JUMPI RETURNDATASIZE PUSH1 0x0 DUP1 RETURNDATACOPY RETURNDATASIZE PUSH1 0x0 REVERT JUMPDEST POP POP POP POP PUSH1 0x40 MLOAD RETURNDATASIZE PUSH1 0x1F NOT PUSH1 0x1F DUP3 ADD AND DUP3 ADD DUP1 PUSH1 0x40 MSTORE POP DUP2 ADD SWAP1 PUSH2 0x1860 SWAP2 SWAP1 PUSH2 0x591F JUMP JUMPDEST POP SWAP2 SWAP4 POP POP PUSH1 0x0 DUP4 SGT SWAP2 POP PUSH2 0x1876 SWAP1 POP JUMPI PUSH1 0x0 DUP1 REVERT JUMPDEST DUP3 SLOAD PUSH1 0xFF PUSH1 0x1 PUSH1 0xA0 SHL DUP3 DIV DUP2 AND PUSH1 0xA EXP SWAP4 POP PUSH1 0x1 PUSH1 0xA8 SHL SWAP1 SWAP2 DIV AND ISZERO PUSH2 0x18A7 JUMPI PUSH2 0x18A4 DUP2 PUSH2 0x2AA DUP5 DUP1 PUSH2 0xAC6 JUMP JUMPDEST SWAP1 POP JUMPDEST DUP3 SLOAD PUSH1 0x1 PUSH1 0xB0 SHL SWAP1 DIV PUSH1 0xFF AND PUSH1 0x96 DUP2 SGT ISZERO PUSH2 0x18C7 JUMPI PUSH1 0x95 NOT ADD PUSH1 0xA MUL PUSH1 0x96 ADD JUMPDEST PUSH1 0x40 DUP1 MLOAD PUSH1 0xA0 DUP2 ADD DUP3 MSTORE SWAP4 DUP5 MSTORE PUSH1 0x20 DUP5 ADD SWAP3 SWAP1 SWAP3 MSTORE SWAP1 DUP3 ADD MSTORE SWAP1 SLOAD PUSH1 0xFF PUSH1 0x1 PUSH1 0xB8 SHL DUP3 DIV DUP2 AND PUSH1 0x60 DUP5 ADD MSTORE PUSH1 0x1 PUSH1 0xC0 SHL SWAP1 SWAP2 DIV AND PUSH1 0x80 DUP3 ADD MSTORE SWAP2 POP POP SWAP2 SWAP1 POP JUMP JUMPDEST PUSH1 0x0 PUSH2 0x1044 DUP3 PUSH1 0x20 ADD MLOAD PUSH2 0x2AA DUP5 PUSH1 0x0 ADD MLOAD DUP7 PUSH1 0x20 ADD MLOAD PUSH2 0xAC6 SWAP1 SWAP2 SWAP1 PUSH4 0xFFFFFFFF AND JUMP JUMPDEST PUSH1 0x0 DUP2 DUP4 SLT PUSH2 0x193C JUMPI DUP2 PUSH2 0x1044 JUMP JUMPDEST POP SWAP1 SWAP2 SWAP1 POP JUMP JUMPDEST PUSH1 0x0 DUP1 PUSH2 0xB14 PUSH1 0x16 PUSH2 0x2AE8 JUMP JUMPDEST DUP2 DUP2 ADD DUP3 DUP2 SLT ISZERO PUSH1 0x0 DUP4 SLT ISZERO EQ PUSH2 0xB14 JUMPI PUSH1 0x0 DUP1 REVERT JUMPDEST PUSH1 0x0 DUP1 DUP3 SLT ISZERO PUSH2 0xAC2 JUMPI PUSH1 0x0 DUP1 REVERT JUMPDEST PUSH1 0x0 PUSH1 0x1 PUSH1 0x1 PUSH1 0x50 SHL SUB DUP3 GT ISZERO PUSH2 0xAC2 JUMPI PUSH1 0x0 DUP1 REVERT JUMPDEST PUSH1 0x80 DUP6 ADD MLOAD ISZERO PUSH2 0x199A JUMPI PUSH1 0x0 DUP1 REVERT JUMPDEST PUSH1 0x60 DUP5 ADD MLOAD DUP6 MLOAD PUSH2 0x19AA SWAP1 PUSH2 0xBC0 JUMP JUMPDEST SLT DUP1 ISZERO PUSH2 0x19B4 JUMPI POP DUP2 JUMPDEST ISZERO PUSH2 0x19E8 JUMPI DUP5 MLOAD ISZERO DUP1 PUSH2 0x19CC JUMPI POP PUSH1 0x1 DUP6 PUSH1 0x40 ADD MLOAD GT ISZERO JUMPDEST PUSH2 0x19E8 JUMPI PUSH1 0x40 MLOAD PUSH3 0x461BCD PUSH1 0xE5 SHL DUP2 MSTORE PUSH1 0x4 ADD PUSH2 0x8CA SWAP1 PUSH2 0x5BE5 JUMP JUMPDEST PUSH2 0x19F1 DUP5 PUSH2 0x90F JUMP JUMPDEST ISZERO PUSH2 0x1A90 JUMPI PUSH1 0x0 PUSH2 0x1A00 PUSH2 0x2B01 JUMP JUMPDEST PUSH1 0x60 DUP8 ADD MLOAD PUSH1 0x1 PUSH1 0x1 PUSH1 0xA0 SHL SUB SWAP1 DUP2 AND PUSH1 0x0 SWAP1 DUP2 MSTORE PUSH1 0x20 SWAP3 DUP4 MSTORE PUSH1 0x40 DUP1 DUP3 KECCAK256 DUP10 MLOAD SWAP1 SWAP4 AND DUP3 MSTORE SWAP2 DUP4 MSTORE KECCAK256 DUP1 SLOAD SWAP2 DUP9 ADD MLOAD SWAP1 SWAP3 POP PUSH5 0xFFFFFFFFFF SWAP1 SWAP2 AND SWAP1 DUP2 EQ DUP1 PUSH2 0x1A48 JUMPI POP DUP1 ISZERO JUMPDEST PUSH2 0x1A51 JUMPI PUSH1 0x0 DUP1 REVERT JUMPDEST DUP1 PUSH2 0x1A8D JUMPI DUP2 SLOAD PUSH1 0x1 PUSH1 0x28 SHL SWAP1 DIV PUSH1 0x1 PUSH1 0x1 PUSH1 0x50 SHL SUB AND ISZERO DUP1 ISZERO PUSH2 0x1A84 JUMPI POP DUP2 SLOAD PUSH1 0x1 PUSH1 0x78 SHL SWAP1 DIV PUSH1 0x1 PUSH1 0x1 PUSH1 0x50 SHL SUB AND ISZERO JUMPDEST PUSH2 0x1A8D JUMPI PUSH1 0x0 DUP1 REVERT JUMPDEST POP POP JUMPDEST PUSH1 0x0 PUSH2 0x1AB0 PUSH2 0xC2A PUSH2 0x13E5 DUP8 PUSH2 0x160 ADD MLOAD DUP10 PUSH1 0x20 ADD MLOAD DUP11 PUSH1 0x0 ADD MLOAD PUSH2 0x2B0E JUMP JUMPDEST SWAP1 POP DUP2 ISZERO PUSH2 0x1B39 JUMPI PUSH1 0x40 DUP1 MLOAD PUSH1 0xE0 DUP2 ADD DUP3 MSTORE DUP6 SLOAD PUSH1 0x1 PUSH1 0x1 PUSH1 0x50 SHL SUB DUP1 DUP3 AND DUP4 MSTORE PUSH1 0x1 PUSH1 0x50 SHL DUP1 DUP4 DIV DUP3 AND PUSH1 0x20 DUP6 ADD MSTORE PUSH1 0x1 PUSH1 0xA0 SHL DUP1 DUP5 DIV PUSH5 0xFFFFFFFFFF AND SWAP6 DUP6 ADD SWAP6 SWAP1 SWAP6 MSTORE PUSH1 0x1 PUSH1 0xC8 SHL SWAP1 SWAP3 DIV PUSH4 0xFFFFFFFF AND PUSH1 0x60 DUP5 ADD MSTORE PUSH1 0x1 DUP9 ADD SLOAD DUP1 DUP3 AND PUSH1 0x80 DUP6 ADD MSTORE SWAP2 DUP3 DIV DUP2 AND PUSH1 0xA0 DUP5 ADD MSTORE SWAP3 SWAP1 DIV SWAP1 SWAP2 AND PUSH1 0xC0 DUP3 ADD MSTORE PUSH2 0x1B39 SWAP1 DUP8 SWAP1 DUP8 SWAP1 DUP5 PUSH2 0x2B2C JUMP JUMPDEST PUSH2 0x1B46 DUP7 PUSH1 0x40 ADD MLOAD PUSH2 0x1975 JUMP JUMPDEST DUP5 SLOAD PUSH1 0x1 PUSH1 0x1 PUSH1 0x50 SHL SUB SWAP2 SWAP1 SWAP2 AND PUSH1 0x1 PUSH1 0x50 SHL MUL PUSH10 0xFFFFFFFFFFFFFFFFFFFF PUSH1 0x50 SHL NOT SWAP1 SWAP2 AND OR DUP5 SSTORE PUSH1 0x20 DUP7 ADD MLOAD PUSH2 0x1B7D SWAP1 PUSH2 0x3001 JUMP JUMPDEST DUP5 SLOAD PUSH5 0xFFFFFFFFFF SWAP2 SWAP1 SWAP2 AND PUSH1 0x1 PUSH1 0xA0 SHL MUL PUSH5 0xFFFFFFFFFF PUSH1 0xA0 SHL NOT SWAP1 SWAP2 AND OR DUP5 SSTORE PUSH1 0xA0 DUP7 ADD MLOAD PUSH2 0x1BAD SWAP1 PUSH2 0x3015 JUMP JUMPDEST DUP5 SLOAD PUSH4 0xFFFFFFFF SWAP2 SWAP1 SWAP2 AND PUSH1 0x1 PUSH1 0xC8 SHL MUL PUSH4 0xFFFFFFFF PUSH1 0xC8 SHL NOT SWAP1 SWAP2 AND OR DUP5 SSTORE PUSH2 0x1BD6 DUP2 PUSH2 0x1975 JUMP JUMPDEST DUP5 SLOAD PUSH1 0x1 PUSH1 0x1 PUSH1 0x50 SHL SUB NOT AND PUSH1 0x1 PUSH1 0x1 PUSH1 0x50 SHL SUB SWAP2 SWAP1 SWAP2 AND OR SWAP1 SWAP4 SSTORE POP POP POP POP POP JUMP JUMPDEST PUSH1 0x0 DUP1 PUSH2 0xB14 PUSH1 0x21 PUSH2 0x2AE8 JUMP JUMPDEST PUSH1 0x0 DUP1 DUP3 SLT ISZERO PUSH2 0x1C20 JUMPI PUSH2 0x1C19 DUP3 PUSH2 0xBC0 JUMP JUMPDEST SWAP1 POP PUSH2 0x939 JUMP JUMPDEST POP DUP1 PUSH2 0x939 JUMP JUMPDEST PUSH1 0x0 PUSH2 0x1C31 PUSH2 0x3028 JUMP JUMPDEST DUP4 MLOAD PUSH1 0x1 PUSH1 0x1 PUSH1 0xA0 SHL SUB AND PUSH1 0x0 SWAP1 DUP2 MSTORE PUSH1 0x20 DUP3 SWAP1 MSTORE PUSH1 0x40 SWAP1 KECCAK256 SLOAD SWAP1 SWAP2 POP DUP1 DUP4 GT PUSH2 0x1C5C JUMPI POP POP PUSH2 0x1D13 JUMP JUMPDEST PUSH1 0x0 PUSH2 0x1C67 DUP7 PUSH2 0x3035 JUMP JUMPDEST SWAP1 POP PUSH1 0x0 DUP2 PUSH1 0x1 PUSH1 0x1 PUSH1 0xA0 SHL SUB AND PUSH4 0xB5E4DA23 DUP5 DUP8 SUB PUSH1 0x40 MLOAD DUP3 PUSH4 0xFFFFFFFF AND PUSH1 0xE0 SHL DUP2 MSTORE PUSH1 0x4 ADD PUSH2 0x1C99 SWAP2 SWAP1 PUSH2 0x5B1D JUMP JUMPDEST PUSH1 0x0 PUSH1 0x40 MLOAD DUP1 DUP4 SUB DUP2 DUP7 DUP1 EXTCODESIZE ISZERO DUP1 ISZERO PUSH2 0x1CB1 JUMPI PUSH1 0x0 DUP1 REVERT JUMPDEST POP GAS STATICCALL ISZERO DUP1 ISZERO PUSH2 0x1CC5 JUMPI RETURNDATASIZE PUSH1 0x0 DUP1 RETURNDATACOPY RETURNDATASIZE PUSH1 0x0 REVERT JUMPDEST POP POP POP POP PUSH1 0x40 MLOAD RETURNDATASIZE PUSH1 0x0 DUP3 RETURNDATACOPY PUSH1 0x1F RETURNDATASIZE SWAP1 DUP2 ADD PUSH1 0x1F NOT AND DUP3 ADD PUSH1 0x40 MSTORE PUSH2 0x1CED SWAP2 SWAP1 DUP2 ADD SWAP1 PUSH2 0x5646 JUMP JUMPDEST SWAP1 POP PUSH1 0x0 PUSH2 0x1CFB DUP8 DUP4 PUSH2 0x3065 JUMP JUMPDEST SWAP1 POP PUSH2 0x1D07 DUP5 DUP3 PUSH2 0x259E JUMP JUMPDEST DUP7 GT ISZERO PUSH2 0x147F JUMPI PUSH1 0x0 DUP1 REVERT JUMPDEST POP POP POP JUMP JUMPDEST DUP1 ISZERO PUSH2 0x1DAA JUMPI PUSH20 0x82AF49447D8A07E3BD95BD0D56F35241523FBAB1 PUSH1 0x1 PUSH1 0x1 PUSH1 0xA0 SHL SUB AND PUSH4 0xD0E30DB0 DUP4 PUSH1 0x40 MLOAD DUP3 PUSH4 0xFFFFFFFF AND PUSH1 0xE0 SHL DUP2 MSTORE PUSH1 0x4 ADD PUSH1 0x0 PUSH1 0x40 MLOAD DUP1 DUP4 SUB DUP2 DUP6 DUP9 DUP1 EXTCODESIZE ISZERO DUP1 ISZERO PUSH2 0x1D6D JUMPI PUSH1 0x0 DUP1 REVERT JUMPDEST POP GAS CALL ISZERO DUP1 ISZERO PUSH2 0x1D81 JUMPI RETURNDATASIZE PUSH1 0x0 DUP1 RETURNDATACOPY RETURNDATASIZE PUSH1 0x0 REVERT JUMPDEST POP POP POP POP POP PUSH2 0x1DA5 PUSH20 0x82AF49447D8A07E3BD95BD0D56F35241523FBAB1 DUP5 DUP5 PUSH2 0x1DE6 JUMP JUMPDEST PUSH2 0x1D13 JUMP JUMPDEST PUSH1 0x40 MLOAD PUSH1 0x1 PUSH1 0x1 PUSH1 0xA0 SHL SUB DUP5 AND SWAP1 DUP4 ISZERO PUSH2 0x8FC MUL SWAP1 DUP5 SWAP1 PUSH1 0x0 DUP2 DUP2 DUP2 DUP6 DUP9 DUP9 CALL SWAP4 POP POP POP POP ISZERO DUP1 ISZERO PUSH2 0x1DE0 JUMPI RETURNDATASIZE PUSH1 0x0 DUP1 RETURNDATACOPY RETURNDATASIZE PUSH1 0x0 REVERT JUMPDEST POP POP POP POP JUMP JUMPDEST DUP3 PUSH1 0x1 PUSH1 0x1 PUSH1 0xA0 SHL SUB AND PUSH4 0xA9059CBB DUP4 DUP4 PUSH1 0x40 MLOAD DUP4 PUSH4 0xFFFFFFFF AND PUSH1 0xE0 SHL DUP2 MSTORE PUSH1 0x4 ADD DUP1 DUP4 PUSH1 0x1 PUSH1 0x1 PUSH1 0xA0 SHL SUB AND DUP2 MSTORE PUSH1 0x20 ADD DUP3 DUP2 MSTORE PUSH1 0x20 ADD SWAP3 POP POP POP PUSH1 0x0 PUSH1 0x40 MLOAD DUP1 DUP4 SUB DUP2 PUSH1 0x0 DUP8 DUP1 EXTCODESIZE ISZERO DUP1 ISZERO PUSH2 0x1E3D JUMPI PUSH1 0x0 DUP1 REVERT JUMPDEST POP GAS CALL ISZERO DUP1 ISZERO PUSH2 0x1E51 JUMPI RETURNDATASIZE PUSH1 0x0 DUP1 RETURNDATACOPY RETURNDATASIZE PUSH1 0x0 REVERT JUMPDEST POP POP POP POP PUSH2 0x1D13 PUSH2 0x32A8 JUMP JUMPDEST PUSH1 0x0 DUP1 PUSH2 0x1E6A DUP5 DUP7 PUSH2 0x3315 JUMP JUMPDEST SWAP1 POP PUSH2 0x1E76 DUP4 DUP3 PUSH2 0xB4B JUMP JUMPDEST SWAP2 POP PUSH2 0x1E83 DUP8 DUP8 DUP5 PUSH2 0x3345 JUMP JUMPDEST PUSH2 0x1E8E DUP7 DUP4 DUP4 PUSH2 0x33C5 JUMP JUMPDEST DUP4 MLOAD PUSH2 0x1E9A SWAP1 DUP7 PUSH2 0x34C9 JUMP JUMPDEST POP SWAP6 SWAP5 POP POP POP POP POP JUMP JUMPDEST PUSH9 0x10000000000000000 PUSH1 0x1 PUSH1 0xE0 SHL SUB PUSH1 0x40 DUP6 SWAP1 SHL AND PUSH8 0xFFFF000000000000 PUSH1 0x30 DUP6 SWAP1 SHL AND OR PUSH1 0x8 DUP4 SWAP1 SHL OR DUP2 OR SWAP5 SWAP4 POP POP POP POP JUMP JUMPDEST PUSH1 0x0 PUSH4 0x5F5E100 DUP4 PUSH1 0x40 ADD MLOAD SLT ISZERO PUSH2 0x1F08 JUMPI PUSH2 0x1F01 PUSH1 0x1 PUSH2 0x1EFB DUP6 DUP6 PUSH2 0x12AA JUMP JUMPDEST SWAP1 PUSH2 0x1950 JUMP JUMPDEST SWAP1 POP PUSH2 0xB14 JUMP JUMPDEST PUSH2 0x1044 DUP4 PUSH2 0xE14 DUP5 PUSH1 0x1 PUSH2 0x1950 JUMP JUMPDEST PUSH1 0x0 DUP1 PUSH1 0x0 DUP1 PUSH2 0x1F25 PUSH2 0x2B01 JUMP JUMPDEST PUSH1 0x1 PUSH1 0x1 PUSH1 0xA0 SHL SUB DUP8 DUP2 AND PUSH1 0x0 SWAP1 DUP2 MSTORE PUSH1 0x20 SWAP3 DUP4 MSTORE PUSH1 0x40 DUP1 DUP3 KECCAK256 DUP12 MLOAD SWAP1 SWAP4 AND DUP3 MSTORE SWAP2 SWAP1 SWAP3 MSTORE SWAP1 KECCAK256 DUP1 SLOAD DUP7 MLOAD PUSH5 0xFFFFFFFFFF DUP3 AND SWAP7 POP SWAP2 SWAP3 POP PUSH2 0x1F79 SWAP2 SWAP1 DUP7 SWAP1 PUSH1 0x1 PUSH1 0x28 SHL SWAP1 DIV PUSH1 0x1 PUSH1 0x1 PUSH1 0x50 SHL SUB AND PUSH2 0x289A JUMP JUMPDEST SWAP3 POP PUSH2 0x1F9F DUP6 PUSH1 0x1 PUSH1 0x20 MUL ADD MLOAD DUP3 SLOAD DUP7 SWAP1 PUSH1 0x1 PUSH1 0x78 SHL SWAP1 DIV PUSH1 0x1 PUSH1 0x1 PUSH1 0x50 SHL SUB AND PUSH2 0x289A JUMP JUMPDEST SWAP2 POP POP SWAP4 POP SWAP4 POP SWAP4 SWAP1 POP JUMP JUMPDEST PUSH1 0x0 DUP1 PUSH1 0x0 PUSH2 0x1FB8 PUSH2 0x1943 JUMP JUMPDEST PUSH1 0x1 PUSH1 0x1 PUSH1 0xA0 SHL SUB SWAP6 DUP7 AND PUSH1 0x0 SWAP1 DUP2 MSTORE PUSH1 0x20 SWAP2 DUP3 MSTORE PUSH1 0x40 DUP1 DUP3 KECCAK256 SWAP7 SWAP1 SWAP8 AND DUP2 MSTORE SWAP5 SWAP1 MSTORE POP POP POP KECCAK256 PUSH1 0x1 ADD SLOAD PUSH1 0x1 PUSH1 0x1 PUSH1 0x50 SHL SUB PUSH1 0x1 PUSH1 0x50 SHL DUP3 DIV DUP2 AND SWAP3 PUSH1 0x1 PUSH1 0xA0 SHL SWAP1 SWAP3 DIV AND SWAP1 JUMP JUMPDEST DUP3 MLOAD PUSH1 0x20 DUP6 ADD MLOAD EQ PUSH2 0x2019 JUMPI DUP4 MLOAD ISZERO PUSH2 0x2019 JUMPI PUSH1 0x0 DUP1 REVERT JUMPDEST PUSH1 0x80 DUP5 ADD MLOAD PUSH2 0x2028 SWAP1 DUP3 PUSH2 0x1950 JUMP JUMPDEST PUSH1 0x80 DUP6 ADD MSTORE DUP4 MLOAD PUSH2 0x2039 SWAP1 DUP4 PUSH2 0x1950 JUMP JUMPDEST DUP1 DUP6 MSTORE PUSH1 0x0 SLT ISZERO PUSH2 0x2049 JUMPI PUSH1 0x0 DUP1 REVERT JUMPDEST PUSH1 0x20 DUP4 ADD MLOAD PUSH2 0x2058 SWAP1 DUP4 PUSH2 0x1950 JUMP JUMPDEST PUSH1 0x20 DUP5 ADD DUP2 SWAP1 MSTORE PUSH1 0x0 SLT ISZERO PUSH2 0x1DE0 JUMPI PUSH1 0x0 DUP1 REVERT JUMPDEST PUSH1 0x0 PUSH2 0x2076 PUSH2 0x2A11 JUMP JUMPDEST DUP3 MLOAD PUSH1 0x1 PUSH1 0x1 PUSH1 0xA0 SHL SUB AND PUSH1 0x0 SWAP1 DUP2 MSTORE PUSH1 0x20 DUP3 DUP2 MSTORE PUSH1 0x40 DUP1 DUP4 KECCAK256 DUP8 MLOAD DUP5 MSTORE SWAP1 SWAP2 MSTORE SWAP1 DUP2 SWAP1 KECCAK256 SWAP1 DUP6 ADD MLOAD SWAP2 SWAP3 POP SWAP1 PUSH2 0x20AC SWAP1 PUSH2 0x1975 JUMP JUMPDEST DUP2 SLOAD PUSH1 0x60 DUP7 ADD MLOAD DUP1 ISZERO ISZERO PUSH1 0x1 PUSH1 0xF0 SHL MUL PUSH1 0xFF PUSH1 0xF0 SHL NOT PUSH1 0x1 PUSH1 0x1 PUSH1 0x50 SHL SUB SWAP5 SWAP1 SWAP5 AND PUSH1 0x1 PUSH1 0xA0 SHL MUL PUSH10 0xFFFFFFFFFFFFFFFFFFFF PUSH1 0xA0 SHL NOT SWAP1 SWAP4 AND SWAP3 SWAP1 SWAP3 OR SWAP3 SWAP1 SWAP3 AND OR DUP3 SSTORE PUSH2 0x160 DUP5 ADD MLOAD PUSH1 0x40 DUP6 ADD MLOAD DUP7 MLOAD PUSH1 0x20 DUP9 ADD MLOAD PUSH2 0x1DE0 SWAP5 DUP7 SWAP5 SWAP4 DUP10 SWAP4 SWAP1 SWAP3 SWAP1 SWAP2 PUSH2 0x351E JUMP JUMPDEST PUSH1 0x0 DUP1 PUSH1 0x0 PUSH2 0x2122 PUSH2 0x2B01 JUMP JUMPDEST PUSH1 0x1 PUSH1 0x1 PUSH1 0xA0 SHL SUB DUP1 DUP13 AND PUSH1 0x0 SWAP1 DUP2 MSTORE PUSH1 0x20 SWAP3 DUP4 MSTORE PUSH1 0x40 DUP1 DUP3 KECCAK256 DUP16 MLOAD SWAP1 SWAP4 AND DUP3 MSTORE SWAP2 SWAP1 SWAP3 MSTORE SWAP1 KECCAK256 DUP1 SLOAD SWAP1 SWAP2 POP PUSH5 0xFFFFFFFFFF AND DUP10 DUP2 EQ DUP1 PUSH2 0x2161 JUMPI POP DUP1 ISZERO JUMPDEST PUSH2 0x216A JUMPI PUSH1 0x0 DUP1 REVERT JUMPDEST DUP7 MLOAD DUP3 SLOAD PUSH2 0x218A SWAP2 SWAP1 DUP13 SWAP1 PUSH1 0x1 PUSH1 0x28 SHL SWAP1 DIV PUSH1 0x1 PUSH1 0x1 PUSH1 0x50 SHL SUB AND PUSH2 0x289A JUMP JUMPDEST SWAP4 POP PUSH2 0x21B0 DUP8 PUSH1 0x1 PUSH1 0x20 MUL ADD MLOAD DUP4 SLOAD DUP13 SWAP1 PUSH1 0x1 PUSH1 0x78 SHL SWAP1 DIV PUSH1 0x1 PUSH1 0x1 PUSH1 0x50 SHL SUB AND PUSH2 0x289A JUMP JUMPDEST SWAP3 POP DUP9 ISZERO PUSH2 0x2238 JUMPI PUSH2 0x21C2 DUP5 DUP11 PUSH2 0x1950 JUMP JUMPDEST SWAP4 POP PUSH2 0x21F1 DUP13 DUP13 DUP15 PUSH2 0x140 ADD MLOAD PUSH1 0x0 PUSH1 0x2 DUP2 LT PUSH2 0x21DB JUMPI INVALID JUMPDEST PUSH1 0x20 MUL ADD MLOAD DUP14 DUP14 DUP13 PUSH1 0x0 JUMPDEST PUSH1 0x20 MUL ADD MLOAD DUP12 PUSH2 0x35FD JUMP JUMPDEST PUSH2 0x220C PUSH2 0xC2F PUSH2 0xC2A PUSH2 0x13E5 DUP11 PUSH1 0x0 PUSH1 0x20 MUL ADD MLOAD DUP15 DUP10 PUSH2 0x2B0E JUMP JUMPDEST DUP3 SLOAD PUSH1 0x1 PUSH1 0x1 PUSH1 0x50 SHL SUB SWAP2 SWAP1 SWAP2 AND PUSH1 0x1 PUSH1 0x28 SHL MUL PUSH15 0xFFFFFFFFFFFFFFFFFFFF0000000000 NOT SWAP1 SWAP2 AND OR DUP3 SSTORE JUMPDEST DUP8 ISZERO PUSH2 0x22B5 JUMPI PUSH2 0x2248 DUP4 DUP10 PUSH2 0x1950 JUMP JUMPDEST SWAP3 POP PUSH2 0x2270 DUP13 DUP13 DUP15 PUSH2 0x140 ADD MLOAD PUSH1 0x1 PUSH1 0x2 DUP2 LT PUSH2 0x2261 JUMPI INVALID JUMPDEST PUSH1 0x20 MUL ADD MLOAD DUP14 DUP13 DUP13 PUSH1 0x1 PUSH2 0x21E6 JUMP JUMPDEST PUSH2 0x228B PUSH2 0xC2F PUSH2 0xC2A PUSH2 0x13E5 DUP11 PUSH1 0x1 PUSH1 0x20 MUL ADD MLOAD DUP15 DUP9 PUSH2 0x2B0E JUMP JUMPDEST DUP3 SLOAD PUSH1 0x1 PUSH1 0x1 PUSH1 0x50 SHL SUB SWAP2 SWAP1 SWAP2 AND PUSH1 0x1 PUSH1 0x78 SHL MUL PUSH10 0xFFFFFFFFFFFFFFFFFFFF PUSH1 0x78 SHL NOT SWAP1 SWAP2 AND OR DUP3 SSTORE JUMPDEST DUP6 ISZERO PUSH2 0x2324 JUMPI DUP4 ISZERO DUP1 PUSH2 0x22D2 JUMPI POP PUSH2 0x1A0 DUP13 ADD MLOAD MLOAD PUSH1 0x0 DUP6 SWAP1 SUB SLT ISZERO JUMPDEST PUSH2 0x22EE JUMPI PUSH1 0x40 MLOAD PUSH3 0x461BCD PUSH1 0xE5 SHL DUP2 MSTORE PUSH1 0x4 ADD PUSH2 0x8CA SWAP1 PUSH2 0x5BC1 JUMP JUMPDEST DUP3 ISZERO DUP1 PUSH2 0x2308 JUMPI POP PUSH2 0x1A0 DUP13 ADD MLOAD PUSH1 0x20 ADD MLOAD PUSH1 0x0 DUP5 SWAP1 SUB SLT ISZERO JUMPDEST PUSH2 0x2324 JUMPI PUSH1 0x40 MLOAD PUSH3 0x461BCD PUSH1 0xE5 SHL DUP2 MSTORE PUSH1 0x4 ADD PUSH2 0x8CA SWAP1 PUSH2 0x5BC1 JUMP JUMPDEST PUSH2 0x2338 DUP3 DUP6 DUP6 PUSH2 0x2333 DUP15 PUSH2 0x3001 JUMP JUMPDEST PUSH2 0x36CB JUMP JUMPDEST POP POP SWAP9 POP SWAP9 SWAP7 POP POP POP POP POP POP POP JUMP JUMPDEST PUSH2 0x234F PUSH2 0x5213 JUMP JUMPDEST PUSH1 0x0 PUSH2 0x2359 PUSH2 0x3709 JUMP JUMPDEST PUSH1 0x0 DUP6 DUP2 MSTORE PUSH1 0x20 DUP3 DUP2 MSTORE PUSH1 0x40 DUP1 DUP4 KECCAK256 DUP8 ISZERO ISZERO DUP5 MSTORE DUP3 MSTORE SWAP2 DUP3 SWAP1 KECCAK256 DUP3 MLOAD PUSH1 0xA0 DUP2 ADD DUP5 MSTORE DUP2 SLOAD PUSH1 0x1 PUSH1 0x1 PUSH1 0xA0 SHL SUB DUP2 AND DUP3 MSTORE PUSH1 0xFF PUSH1 0x1 PUSH1 0xA0 SHL DUP3 DIV DUP2 AND ISZERO ISZERO SWAP5 DUP4 ADD SWAP5 SWAP1 SWAP5 MSTORE PUSH1 0x1 PUSH1 0xB0 SHL DUP2 DIV DUP5 AND PUSH1 0xA EXP SWAP5 DUP3 ADD SWAP5 SWAP1 SWAP5 MSTORE SWAP4 SWAP5 POP SWAP3 SWAP2 PUSH1 0x60 DUP4 ADD SWAP2 PUSH1 0x1 PUSH1 0xA8 SHL SWAP1 SWAP2 DIV AND PUSH1 0x5 DUP2 GT ISZERO PUSH2 0x23CE JUMPI INVALID JUMPDEST DUP2 MSTORE PUSH1 0x0 PUSH1 0x20 SWAP1 SWAP2 ADD MSTORE SWAP6 SWAP5 POP POP POP POP POP JUMP JUMPDEST PUSH1 0x0 DUP1 DUP5 PUSH1 0x1 PUSH1 0x1 PUSH1 0xA0 SHL SUB AND PUSH4 0x70A08231 ADDRESS PUSH1 0x40 MLOAD DUP3 PUSH4 0xFFFFFFFF AND PUSH1 0xE0 SHL DUP2 MSTORE PUSH1 0x4 ADD DUP1 DUP3 PUSH1 0x1 PUSH1 0x1 PUSH1 0xA0 SHL SUB AND DUP2 MSTORE PUSH1 0x20 ADD SWAP2 POP POP PUSH1 0x20 PUSH1 0x40 MLOAD DUP1 DUP4 SUB DUP2 DUP7 DUP1 EXTCODESIZE ISZERO DUP1 ISZERO PUSH2 0x2431 JUMPI PUSH1 0x0 DUP1 REVERT JUMPDEST POP GAS STATICCALL ISZERO DUP1 ISZERO PUSH2 0x2445 JUMPI RETURNDATASIZE PUSH1 0x0 DUP1 RETURNDATACOPY RETURNDATASIZE PUSH1 0x0 REVERT JUMPDEST POP POP POP POP PUSH1 0x40 MLOAD RETURNDATASIZE PUSH1 0x20 DUP2 LT ISZERO PUSH2 0x245B JUMPI PUSH1 0x0 DUP1 REVERT JUMPDEST POP MLOAD PUSH1 0x40 DUP1 MLOAD PUSH4 0x23B872DD PUSH1 0xE0 SHL DUP2 MSTORE PUSH1 0x1 PUSH1 0x1 PUSH1 0xA0 SHL SUB DUP8 DUP2 AND PUSH1 0x4 DUP4 ADD MSTORE ADDRESS PUSH1 0x24 DUP4 ADD MSTORE PUSH1 0x44 DUP3 ADD DUP8 SWAP1 MSTORE SWAP2 MLOAD SWAP3 SWAP4 POP SWAP1 DUP8 AND SWAP2 PUSH4 0x23B872DD SWAP2 PUSH1 0x64 DUP1 DUP3 ADD SWAP3 PUSH1 0x0 SWAP3 SWAP1 SWAP2 SWAP1 DUP3 SWAP1 SUB ADD DUP2 DUP4 DUP8 DUP1 EXTCODESIZE ISZERO DUP1 ISZERO PUSH2 0x24B8 JUMPI PUSH1 0x0 DUP1 REVERT JUMPDEST POP GAS CALL ISZERO DUP1 ISZERO PUSH2 0x24CC JUMPI RETURNDATASIZE PUSH1 0x0 DUP1 RETURNDATACOPY RETURNDATASIZE PUSH1 0x0 REVERT JUMPDEST POP POP POP POP PUSH2 0x24D8 PUSH2 0x32A8 JUMP JUMPDEST PUSH1 0x0 DUP6 PUSH1 0x1 PUSH1 0x1 PUSH1 0xA0 SHL SUB AND PUSH4 0x70A08231 ADDRESS PUSH1 0x40 MLOAD DUP3 PUSH4 0xFFFFFFFF AND PUSH1 0xE0 SHL DUP2 MSTORE PUSH1 0x4 ADD DUP1 DUP3 PUSH1 0x1 PUSH1 0x1 PUSH1 0xA0 SHL SUB AND DUP2 MSTORE PUSH1 0x20 ADD SWAP2 POP POP PUSH1 0x20 PUSH1 0x40 MLOAD DUP1 DUP4 SUB DUP2 DUP7 DUP1 EXTCODESIZE ISZERO DUP1 ISZERO PUSH2 0x2527 JUMPI PUSH1 0x0 DUP1 REVERT JUMPDEST POP GAS STATICCALL ISZERO DUP1 ISZERO PUSH2 0x253B JUMPI RETURNDATASIZE PUSH1 0x0 DUP1 RETURNDATACOPY RETURNDATASIZE PUSH1 0x0 REVERT JUMPDEST POP POP POP POP PUSH1 0x40 MLOAD RETURNDATASIZE PUSH1 0x20 DUP2 LT ISZERO PUSH2 0x2551 JUMPI PUSH1 0x0 DUP1 REVERT JUMPDEST POP MLOAD SWAP1 POP PUSH2 0xE79 DUP2 DUP4 PUSH2 0x14D7 JUMP JUMPDEST PUSH1 0x0 DUP1 DUP3 SLT ISZERO PUSH2 0x2598 JUMPI PUSH2 0x2593 PUSH1 0x1 PUSH2 0x258D DUP6 PUSH1 0x20 ADD MLOAD PUSH2 0x2AA DUP8 PUSH1 0x0 ADD MLOAD DUP8 PUSH2 0xAC6 SWAP1 SWAP2 SWAP1 PUSH4 0xFFFFFFFF AND JUMP JUMPDEST SWAP1 PUSH2 0x3716 JUMP JUMPDEST PUSH2 0x1044 JUMP JUMPDEST POP SWAP2 SWAP1 POP JUMP JUMPDEST PUSH1 0x0 DUP3 DUP3 ADD DUP4 DUP2 LT ISZERO PUSH2 0x1044 JUMPI PUSH1 0x0 DUP1 REVERT JUMPDEST PUSH1 0x0 PUSH2 0x25BA PUSH2 0x1943 JUMP JUMPDEST PUSH1 0x60 DUP7 ADD MLOAD PUSH1 0x1 PUSH1 0x1 PUSH1 0xA0 SHL SUB SWAP1 DUP2 AND PUSH1 0x0 SWAP1 DUP2 MSTORE PUSH1 0x20 DUP4 DUP2 MSTORE PUSH1 0x40 DUP1 DUP4 KECCAK256 DUP10 MLOAD SWAP1 SWAP5 AND DUP4 MSTORE SWAP3 SWAP1 MSTORE KECCAK256 SWAP1 SWAP2 POP PUSH2 0x25F4 DUP7 DUP7 DUP4 DUP8 DUP8 PUSH2 0x198B JUMP JUMPDEST PUSH1 0x1 DUP2 ADD DUP1 SLOAD PUSH1 0x1 PUSH1 0x1 PUSH1 0x50 SHL SUB NOT AND SWAP1 DUP2 SWAP1 SSTORE PUSH1 0x1 PUSH1 0x50 SHL SWAP1 DIV PUSH1 0x1 PUSH1 0x1 PUSH1 0x50 SHL SUB AND ISZERO DUP1 ISZERO PUSH2 0x2637 JUMPI POP PUSH1 0x1 DUP2 ADD SLOAD PUSH1 0x1 PUSH1 0xA0 SHL SWAP1 DIV PUSH1 0x1 PUSH1 0x1 PUSH1 0x50 SHL SUB AND ISZERO JUMPDEST PUSH2 0x128F JUMPI PUSH1 0x0 DUP1 REVERT JUMPDEST PUSH1 0x0 DUP1 PUSH1 0x0 DUP1 PUSH1 0x0 DUP1 PUSH2 0x2651 PUSH2 0x372C JUMP JUMPDEST PUSH1 0x1 PUSH1 0x1 PUSH1 0xA0 SHL SUB SWAP1 SWAP8 AND PUSH1 0x0 SWAP1 DUP2 MSTORE PUSH1 0x20 SWAP8 SWAP1 SWAP8 MSTORE POP POP PUSH1 0x40 SWAP1 SWAP5 KECCAK256 SLOAD PUSH2 0xFFFF DUP2 AND SWAP6 PUSH4 0xFFFFFFFF PUSH3 0x10000 DUP4 DIV DUP2 AND SWAP7 POP PUSH7 0x1000000000000 DUP4 DIV AND SWAP5 POP PUSH1 0xFF PUSH1 0x1 PUSH1 0x50 SHL DUP4 DIV AND SWAP4 POP PUSH1 0x1 PUSH1 0x58 SHL SWAP1 SWAP2 DIV PUSH1 0xD0 SHL SWAP2 POP JUMP JUMPDEST PUSH2 0x26B4 PUSH2 0x50A4 JUMP JUMPDEST PUSH1 0x0 PUSH2 0x26BE PUSH2 0x3739 JUMP JUMPDEST PUSH1 0x1 PUSH1 0x1 PUSH1 0xA0 SHL SUB DUP5 AND PUSH1 0x0 DUP2 DUP2 MSTORE PUSH1 0x20 DUP4 DUP2 MSTORE PUSH1 0x40 SWAP2 DUP3 SWAP1 KECCAK256 SWAP3 DUP7 MSTORE DUP3 SLOAD PUSH2 0xFFFF DUP1 DUP3 AND SWAP3 DUP9 ADD SWAP3 SWAP1 SWAP3 MSTORE PUSH3 0x10000 SWAP1 DIV AND SWAP1 DUP6 ADD MSTORE SWAP1 SWAP2 POP PUSH2 0x271A PUSH2 0x2710 PUSH4 0x3B9ACA00 DUP4 SLOAD PUSH1 0x1 PUSH1 0x50 SHL SWAP1 DIV PUSH1 0xFF AND SWAP2 SWAP1 SDIV PUSH1 0x5 MUL PUSH2 0x3746 JUMP JUMPDEST PUSH1 0x80 DUP5 ADD MSTORE DUP1 SLOAD PUSH2 0x2739 SWAP1 PUSH1 0x1 PUSH1 0x40 SHL SWAP1 DIV PUSH2 0xFFFF AND PUSH3 0x186A0 PUSH2 0x3746 JUMP JUMPDEST PUSH1 0xA0 DUP5 ADD MSTORE DUP1 SLOAD PUSH2 0x2758 SWAP1 PUSH1 0x1 PUSH1 0x70 SHL SWAP1 DIV PUSH2 0xFFFF AND PUSH3 0x186A0 PUSH2 0x3746 JUMP JUMPDEST PUSH2 0x120 DUP5 ADD MSTORE PUSH1 0x2 DUP2 ADD SLOAD PUSH2 0x2774 SWAP1 PUSH2 0xFFFF AND PUSH3 0x186A0 PUSH2 0x3746 JUMP JUMPDEST PUSH2 0x180 DUP5 ADD MSTORE DUP1 SLOAD PUSH1 0x64 SWAP1 PUSH1 0xFF PUSH1 0x1 PUSH1 0x58 SHL SWAP1 SWAP2 DIV AND PUSH4 0x3B9ACA00 MUL SDIV PUSH1 0xC0 DUP5 ADD MSTORE DUP1 SLOAD PUSH1 0x1 PUSH1 0x60 SHL DUP2 DIV PUSH1 0xFF SWAP1 DUP2 AND PUSH1 0xE0 DUP7 ADD MSTORE PUSH1 0x1 PUSH1 0x68 SHL SWAP1 SWAP2 DIV AND PUSH2 0x100 DUP5 ADD MSTORE PUSH1 0x40 DUP1 MLOAD DUP1 DUP3 ADD SWAP2 DUP3 SWAP1 MSTORE SWAP1 PUSH1 0x1 DUP4 ADD SWAP1 PUSH1 0x2 SWAP1 DUP3 PUSH1 0x0 DUP6 JUMPDEST DUP3 DUP3 SWAP1 SLOAD SWAP1 PUSH2 0x100 EXP SWAP1 DIV PUSH2 0xFFFF AND PUSH2 0xFFFF AND DUP2 MSTORE PUSH1 0x20 ADD SWAP1 PUSH1 0x2 ADD SWAP1 PUSH1 0x20 DUP3 PUSH1 0x1 ADD DIV SWAP3 DUP4 ADD SWAP3 PUSH1 0x1 SUB DUP3 MUL SWAP2 POP DUP1 DUP5 GT PUSH2 0x27D1 JUMPI POP POP POP POP POP PUSH2 0x140 DUP6 ADD SWAP2 SWAP1 SWAP2 MSTORE POP PUSH1 0x4 DUP2 ADD SLOAD PUSH1 0xFF AND PUSH2 0x1C0 DUP5 ADD MSTORE DUP1 SLOAD PUSH2 0x283D SWAP1 PUSH5 0x100000000 SWAP1 DIV PUSH4 0xFFFFFFFF AND PUSH2 0x376D JUMP JUMPDEST PUSH1 0x60 DUP5 ADD MSTORE PUSH2 0x2873 PUSH1 0x3 DUP3 ADD PUSH1 0x0 JUMPDEST PUSH1 0x8 SWAP2 DUP3 DUP3 DIV ADD SWAP2 SWAP1 MOD PUSH1 0x4 MUL SWAP1 SLOAD SWAP1 PUSH2 0x100 EXP SWAP1 DIV PUSH4 0xFFFFFFFF AND PUSH4 0xFFFFFFFF AND PUSH2 0x376D JUMP JUMPDEST PUSH2 0x1A0 DUP5 ADD MLOAD MSTORE PUSH2 0x2888 PUSH1 0x3 DUP3 ADD PUSH1 0x1 PUSH2 0x284C JUMP JUMPDEST PUSH2 0x1A0 DUP5 ADD MLOAD PUSH1 0x20 ADD MSTORE POP SWAP1 SWAP3 SWAP2 POP POP JUMP JUMPDEST PUSH1 0x0 PUSH5 0xFFFFFFFFFF DUP4 EQ PUSH2 0x28BA JUMPI DUP2 PUSH1 0x1 PUSH1 0x1 PUSH1 0x50 SHL SUB AND PUSH1 0x0 SUB PUSH2 0xB8B JUMP JUMPDEST PUSH2 0xB8B DUP5 PUSH1 0x1 PUSH1 0x1 PUSH1 0x50 SHL SUB DUP5 AND PUSH1 0x0 SUB PUSH2 0x377B JUMP JUMPDEST PUSH1 0x0 PUSH2 0x28DF DUP7 DUP7 DUP7 DUP7 DUP7 PUSH2 0x37C6 JUMP JUMPDEST SWAP1 POP PUSH1 0x0 PUSH2 0x28FF PUSH1 0x64 PUSH2 0x2AA DUP10 PUSH1 0xE0 ADD MLOAD DUP6 PUSH2 0xAC6 SWAP1 SWAP2 SWAP1 PUSH4 0xFFFFFFFF AND JUMP JUMPDEST SWAP1 POP PUSH1 0x0 PUSH2 0x290D DUP4 DUP4 PUSH2 0x3716 JUMP JUMPDEST SWAP1 POP PUSH2 0x291D DUP9 PUSH1 0x40 ADD MLOAD DUP4 PUSH2 0x385C JUMP JUMPDEST PUSH2 0x292B DUP9 PUSH1 0x40 ADD MLOAD DUP3 PUSH2 0x3893 JUMP JUMPDEST PUSH5 0xFFFFFFFFFF DUP6 EQ ISZERO PUSH2 0x2963 JUMPI PUSH2 0x2963 DUP9 PUSH1 0x0 ADD MLOAD DUP10 PUSH1 0x40 ADD MLOAD DUP6 PUSH2 0x295E DUP8 DUP14 PUSH2 0x160 ADD MLOAD PUSH2 0x255F SWAP1 SWAP2 SWAP1 PUSH4 0xFFFFFFFF AND JUMP JUMPDEST PUSH2 0x38D7 JUMP JUMPDEST PUSH2 0x2977 DUP9 PUSH1 0x0 ADD MLOAD DUP10 PUSH1 0x40 ADD MLOAD DUP4 DUP6 PUSH2 0x39DF JUMP JUMPDEST PUSH1 0x80 DUP8 ADD MLOAD PUSH2 0x2986 SWAP1 DUP5 PUSH2 0x3716 JUMP JUMPDEST PUSH1 0x80 SWAP1 SWAP8 ADD SWAP7 SWAP1 SWAP7 MSTORE POP SWAP6 SWAP5 POP POP POP POP POP JUMP JUMPDEST PUSH2 0x29A1 PUSH2 0x517C JUMP JUMPDEST PUSH1 0x20 DUP4 ADD MLOAD PUSH5 0xFFFFFFFFFF EQ PUSH2 0x29B6 JUMPI PUSH1 0x0 DUP1 REVERT JUMPDEST PUSH2 0x29C5 DUP3 PUSH5 0xFFFFFFFFFF PUSH2 0x1708 JUMP JUMPDEST SWAP1 POP PUSH1 0x0 DUP4 PUSH1 0x80 ADD MLOAD SLT ISZERO PUSH2 0x2A07 JUMPI PUSH2 0x2A07 DUP4 DUP3 PUSH2 0x29F5 DUP7 PUSH1 0x80 ADD MLOAD DUP7 PUSH2 0x160 ADD MLOAD PUSH2 0xB93 SWAP1 SWAP2 SWAP1 PUSH4 0xFFFFFFFF AND JUMP JUMPDEST PUSH2 0x2A02 DUP8 PUSH1 0x80 ADD MLOAD PUSH2 0xBC0 JUMP JUMPDEST PUSH2 0x2001 JUMP JUMPDEST PUSH2 0xB14 DUP2 DUP4 PUSH2 0x206C JUMP JUMPDEST PUSH1 0x0 DUP1 PUSH2 0xB14 PUSH1 0x15 PUSH2 0x2AE8 JUMP JUMPDEST PUSH2 0x2A26 PUSH2 0x5083 JUMP JUMPDEST PUSH1 0x0 PUSH2 0x2A31 DUP5 PUSH2 0x3ACF JUMP JUMPDEST SWAP1 POP DUP3 DUP2 PUSH1 0x0 ADD MLOAD LT ISZERO PUSH2 0x2A70 JUMPI PUSH1 0x0 DUP1 PUSH2 0x2A4B DUP7 PUSH2 0x3B97 JUMP JUMPDEST SWAP1 POP PUSH2 0x2A59 DUP7 DUP5 DUP4 DUP9 PUSH2 0x3C14 JUMP JUMPDEST SWAP1 SWAP4 POP SWAP2 POP PUSH2 0x2A69 DUP7 DUP4 DUP6 PUSH2 0x3CB8 JUMP JUMPDEST POP POP PUSH2 0x2A7D JUMP JUMPDEST DUP1 MLOAD DUP4 EQ PUSH2 0x2A7D JUMPI PUSH1 0x0 DUP1 REVERT JUMPDEST PUSH1 0x40 MLOAD DUP1 PUSH1 0x60 ADD PUSH1 0x40 MSTORE DUP1 PUSH2 0x2AA6 PUSH2 0x1380 DUP5 PUSH1 0xA0 ADD MLOAD DUP6 PUSH1 0xC0 ADD MLOAD PUSH2 0x3746 SWAP1 SWAP2 SWAP1 PUSH4 0xFFFFFFFF AND JUMP JUMPDEST DUP2 MSTORE PUSH1 0x20 ADD PUSH2 0x2AC9 PUSH2 0x1380 DUP5 PUSH1 0xA0 ADD MLOAD DUP6 PUSH1 0xE0 ADD MLOAD PUSH2 0x3746 SWAP1 SWAP2 SWAP1 PUSH4 0xFFFFFFFF AND JUMP JUMPDEST DUP2 MSTORE PUSH1 0x20 ADD DUP3 PUSH1 0x60 ADD MLOAD DUP2 MSTORE POP SWAP2 POP POP SWAP3 SWAP2 POP POP JUMP JUMPDEST PUSH1 0x0 DUP1 PUSH2 0xB14 PUSH1 0x10 JUMPDEST PUSH1 0x0 PUSH3 0xF4240 DUP3 PUSH1 0x26 DUP2 GT ISZERO PUSH2 0x2AFA JUMPI INVALID JUMPDEST ADD SWAP3 SWAP2 POP POP JUMP JUMPDEST PUSH1 0x0 DUP1 PUSH2 0xB14 PUSH1 0x1A PUSH2 0x2AE8 JUMP JUMPDEST PUSH1 0x0 PUSH5 0xFFFFFFFFFF DUP4 EQ PUSH2 0x2B22 JUMPI DUP2 PUSH2 0xB8B JUMP JUMPDEST PUSH2 0xB8B DUP5 DUP4 PUSH2 0x3EE9 JUMP JUMPDEST PUSH1 0x40 DUP1 MLOAD PUSH1 0x2 DUP1 DUP3 MSTORE PUSH1 0x60 DUP3 ADD DUP4 MSTORE PUSH1 0x0 SWAP3 PUSH1 0x20 DUP4 ADD SWAP1 DUP1 CALLDATASIZE DUP4 CALLDATACOPY POP POP PUSH1 0x40 DUP1 MLOAD PUSH1 0x2 DUP1 DUP3 MSTORE PUSH1 0x60 DUP3 ADD DUP4 MSTORE SWAP4 SWAP5 POP PUSH1 0x0 SWAP4 SWAP1 SWAP3 POP SWAP1 PUSH1 0x20 DUP4 ADD SWAP1 DUP1 CALLDATASIZE DUP4 CALLDATACOPY ADD SWAP1 POP POP SWAP1 POP PUSH1 0x0 PUSH2 0x2B93 DUP7 PUSH1 0x0 ADD MLOAD DUP8 PUSH1 0x40 ADD MLOAD DUP8 PUSH1 0x40 ADD MLOAD PUSH5 0xFFFFFFFFFF AND PUSH1 0x0 PUSH2 0x1EA4 JUMP JUMPDEST SWAP1 POP PUSH1 0xA PUSH1 0xFF AND DUP2 OR DUP4 PUSH1 0x0 DUP2 MLOAD DUP2 LT PUSH2 0x2BA9 JUMPI INVALID JUMPDEST PUSH1 0x20 MUL PUSH1 0x20 ADD ADD DUP2 DUP2 MSTORE POP POP PUSH1 0x9 PUSH1 0xFF AND DUP2 OR DUP4 PUSH1 0x1 DUP2 MLOAD DUP2 LT PUSH2 0x2BC9 JUMPI INVALID JUMPDEST PUSH1 0x20 MUL PUSH1 0x20 ADD ADD DUP2 DUP2 MSTORE POP POP DUP7 PUSH1 0x20 ADD MLOAD PUSH1 0x0 EQ DUP1 PUSH2 0x2C0C JUMPI POP PUSH1 0x40 DUP6 ADD MLOAD PUSH5 0xFFFFFFFFFF AND ISZERO DUP1 ISZERO SWAP1 PUSH2 0x2C0C JUMPI POP DUP7 PUSH1 0x20 ADD MLOAD DUP6 PUSH1 0x40 ADD MLOAD PUSH5 0xFFFFFFFFFF AND EQ ISZERO JUMPDEST ISZERO PUSH2 0x2CAE JUMPI DUP5 PUSH1 0x0 ADD MLOAD PUSH1 0x1 PUSH1 0x1 PUSH1 0x50 SHL SUB AND DUP3 PUSH1 0x0 DUP2 MLOAD DUP2 LT PUSH2 0x2C2C JUMPI INVALID JUMPDEST PUSH1 0x20 MUL PUSH1 0x20 ADD ADD DUP2 DUP2 MSTORE POP POP DUP5 PUSH1 0x20 ADD MLOAD PUSH1 0x1 PUSH1 0x1 PUSH1 0x50 SHL SUB AND DUP3 PUSH1 0x1 DUP2 MLOAD DUP2 LT PUSH2 0x2C53 JUMPI INVALID JUMPDEST PUSH1 0x20 MUL PUSH1 0x20 ADD ADD DUP2 DUP2 MSTORE POP POP PUSH1 0x0 PUSH1 0x1 PUSH1 0x1 PUSH1 0xA0 SHL SUB AND DUP8 PUSH1 0x60 ADD MLOAD PUSH1 0x1 PUSH1 0x1 PUSH1 0xA0 SHL SUB AND CALLER PUSH1 0x1 PUSH1 0x1 PUSH1 0xA0 SHL SUB AND PUSH1 0x0 DUP1 MLOAD PUSH1 0x20 PUSH2 0x5E1A DUP4 CODECOPY DUP2 MLOAD SWAP2 MSTORE DUP7 DUP7 PUSH1 0x40 MLOAD PUSH2 0x2CA1 SWAP3 SWAP2 SWAP1 PUSH2 0x5AF8 JUMP JUMPDEST PUSH1 0x40 MLOAD DUP1 SWAP2 SUB SWAP1 LOG4 PUSH2 0x2EAB JUMP JUMPDEST DUP5 PUSH1 0x40 ADD MLOAD PUSH5 0xFFFFFFFFFF AND DUP8 PUSH1 0x20 ADD MLOAD EQ ISZERO PUSH2 0x2EAB JUMPI DUP5 MLOAD PUSH1 0x0 SWAP1 PUSH1 0x1 PUSH1 0x1 PUSH1 0x50 SHL SUB AND DUP6 LT DUP1 PUSH2 0x2CF0 JUMPI POP DUP6 PUSH1 0x20 ADD MLOAD PUSH1 0x1 PUSH1 0x1 PUSH1 0x50 SHL SUB AND DUP9 PUSH1 0x40 ADD MLOAD LT JUMPDEST SWAP1 POP DUP1 ISZERO PUSH2 0x2DC0 JUMPI DUP6 MLOAD PUSH1 0x1 PUSH1 0x1 PUSH1 0x50 SHL SUB AND DUP6 LT PUSH2 0x2D10 JUMPI PUSH1 0x0 PUSH2 0x2D1F JUMP JUMPDEST DUP6 MLOAD PUSH1 0x1 PUSH1 0x1 PUSH1 0x50 SHL SUB AND DUP6 SWAP1 SUB JUMPDEST DUP4 PUSH1 0x0 DUP2 MLOAD DUP2 LT PUSH2 0x2D2C JUMPI INVALID JUMPDEST PUSH1 0x20 MUL PUSH1 0x20 ADD ADD DUP2 DUP2 MSTORE POP POP PUSH2 0x2D5C DUP9 PUSH1 0x40 ADD MLOAD DUP8 PUSH1 0x20 ADD MLOAD PUSH1 0x1 PUSH1 0x1 PUSH1 0x50 SHL SUB AND PUSH2 0x14D7 SWAP1 SWAP2 SWAP1 PUSH4 0xFFFFFFFF AND JUMP JUMPDEST DUP4 PUSH1 0x1 DUP2 MLOAD DUP2 LT PUSH2 0x2D69 JUMPI INVALID JUMPDEST PUSH1 0x20 MUL PUSH1 0x20 ADD ADD DUP2 DUP2 MSTORE POP POP PUSH1 0x0 PUSH1 0x1 PUSH1 0x1 PUSH1 0xA0 SHL SUB AND DUP9 PUSH1 0x60 ADD MLOAD PUSH1 0x1 PUSH1 0x1 PUSH1 0xA0 SHL SUB AND CALLER PUSH1 0x1 PUSH1 0x1 PUSH1 0xA0 SHL SUB AND PUSH1 0x0 DUP1 MLOAD PUSH1 0x20 PUSH2 0x5E1A DUP4 CODECOPY DUP2 MLOAD SWAP2 MSTORE DUP8 DUP8 PUSH1 0x40 MLOAD PUSH2 0x2DB7 SWAP3 SWAP2 SWAP1 PUSH2 0x5AF8 JUMP JUMPDEST PUSH1 0x40 MLOAD DUP1 SWAP2 SUB SWAP1 LOG4 JUMPDEST DUP1 ISZERO DUP1 PUSH2 0x2DD6 JUMPI POP DUP6 MLOAD PUSH1 0x1 PUSH1 0x1 PUSH1 0x50 SHL SUB AND DUP6 GT JUMPDEST ISZERO PUSH2 0x2EA9 JUMPI DUP6 MLOAD PUSH2 0x2DF1 SWAP1 DUP7 SWAP1 PUSH1 0x1 PUSH1 0x1 PUSH1 0x50 SHL SUB AND PUSH2 0x14D7 JUMP JUMPDEST DUP4 PUSH1 0x0 DUP2 MLOAD DUP2 LT PUSH2 0x2DFE JUMPI INVALID JUMPDEST PUSH1 0x20 MUL PUSH1 0x20 ADD ADD DUP2 DUP2 MSTORE POP POP DUP8 PUSH1 0x40 ADD MLOAD DUP7 PUSH1 0x20 ADD MLOAD PUSH1 0x1 PUSH1 0x1 PUSH1 0x50 SHL SUB AND LT PUSH2 0x2E29 JUMPI PUSH1 0x0 PUSH2 0x2E45 JUMP JUMPDEST PUSH1 0x20 DUP7 ADD MLOAD PUSH1 0x40 DUP10 ADD MLOAD PUSH2 0x2E45 SWAP2 PUSH1 0x1 PUSH1 0x1 PUSH1 0x50 SHL SUB AND PUSH2 0x14D7 JUMP JUMPDEST DUP4 PUSH1 0x1 DUP2 MLOAD DUP2 LT PUSH2 0x2E52 JUMPI INVALID JUMPDEST PUSH1 0x20 MUL PUSH1 0x20 ADD ADD DUP2 DUP2 MSTORE POP POP DUP8 PUSH1 0x60 ADD MLOAD PUSH1 0x1 PUSH1 0x1 PUSH1 0xA0 SHL SUB AND PUSH1 0x0 PUSH1 0x1 PUSH1 0x1 PUSH1 0xA0 SHL SUB AND CALLER PUSH1 0x1 PUSH1 0x1 PUSH1 0xA0 SHL SUB AND PUSH1 0x0 DUP1 MLOAD PUSH1 0x20 PUSH2 0x5E1A DUP4 CODECOPY DUP2 MLOAD SWAP2 MSTORE DUP8 DUP8 PUSH1 0x40 MLOAD PUSH2 0x2EA0 SWAP3 SWAP2 SWAP1 PUSH2 0x5AF8 JUMP JUMPDEST PUSH1 0x40 MLOAD DUP1 SWAP2 SUB SWAP1 LOG4 JUMPDEST POP JUMPDEST PUSH1 0x20 DUP8 ADD MLOAD ISZERO DUP1 ISZERO SWAP1 PUSH2 0x2ECD JUMPI POP DUP7 PUSH1 0x20 ADD MLOAD DUP6 PUSH1 0x40 ADD MLOAD PUSH5 0xFFFFFFFFFF AND EQ ISZERO JUMPDEST ISZERO PUSH2 0x2FB3 JUMPI PUSH1 0x0 PUSH2 0x2EED DUP8 PUSH1 0x0 ADD MLOAD DUP9 PUSH1 0x40 ADD MLOAD DUP11 PUSH1 0x20 ADD MLOAD PUSH1 0x0 PUSH2 0x1EA4 JUMP JUMPDEST SWAP1 POP PUSH1 0xA PUSH1 0xFF AND DUP2 OR DUP5 PUSH1 0x0 DUP2 MLOAD DUP2 LT PUSH2 0x2F03 JUMPI INVALID JUMPDEST PUSH1 0x20 MUL PUSH1 0x20 ADD ADD DUP2 DUP2 MSTORE POP POP PUSH1 0x9 PUSH1 0xFF AND DUP2 OR DUP5 PUSH1 0x1 DUP2 MLOAD DUP2 LT PUSH2 0x2F23 JUMPI INVALID JUMPDEST PUSH1 0x20 MUL PUSH1 0x20 ADD ADD DUP2 DUP2 MSTORE POP POP DUP5 DUP4 PUSH1 0x0 DUP2 MLOAD DUP2 LT PUSH2 0x2F3D JUMPI INVALID JUMPDEST PUSH1 0x20 MUL PUSH1 0x20 ADD ADD DUP2 DUP2 MSTORE POP POP DUP8 PUSH1 0x40 ADD MLOAD DUP4 PUSH1 0x1 DUP2 MLOAD DUP2 LT PUSH2 0x2F5B JUMPI INVALID JUMPDEST PUSH1 0x20 MUL PUSH1 0x20 ADD ADD DUP2 DUP2 MSTORE POP POP DUP8 PUSH1 0x60 ADD MLOAD PUSH1 0x1 PUSH1 0x1 PUSH1 0xA0 SHL SUB AND PUSH1 0x0 PUSH1 0x1 PUSH1 0x1 PUSH1 0xA0 SHL SUB AND CALLER PUSH1 0x1 PUSH1 0x1 PUSH1 0xA0 SHL SUB AND PUSH1 0x0 DUP1 MLOAD PUSH1 0x20 PUSH2 0x5E1A DUP4 CODECOPY DUP2 MLOAD SWAP2 MSTORE DUP8 DUP8 PUSH1 0x40 MLOAD PUSH2 0x2FA9 SWAP3 SWAP2 SWAP1 PUSH2 0x5AF8 JUMP JUMPDEST PUSH1 0x40 MLOAD DUP1 SWAP2 SUB SWAP1 LOG4 POP JUMPDEST PUSH1 0x80 DUP6 ADD MLOAD PUSH1 0x1 PUSH1 0x1 PUSH1 0x50 SHL SUB AND ISZERO PUSH2 0xD2A JUMPI PUSH1 0x60 DUP8 ADD MLOAD PUSH1 0x80 DUP7 ADD MLOAD PUSH1 0x40 MLOAD PUSH1 0x0 SWAP3 PUSH1 0x1 PUSH1 0x1 PUSH1 0xA0 SHL SUB AND SWAP2 CALLER SWAP2 PUSH1 0x0 DUP1 MLOAD PUSH1 0x20 PUSH2 0x5E3A DUP4 CODECOPY DUP2 MLOAD SWAP2 MSTORE SWAP2 PUSH2 0x11AD SWAP2 PUSH1 0xB DUP9 OR SWAP2 SWAP1 PUSH2 0x5DA8 JUMP JUMPDEST PUSH1 0x0 PUSH5 0xFFFFFFFFFF DUP3 GT ISZERO PUSH2 0xAC2 JUMPI PUSH1 0x0 DUP1 REVERT JUMPDEST PUSH1 0x0 PUSH4 0xFFFFFFFF DUP3 GT ISZERO PUSH2 0xAC2 JUMPI PUSH1 0x0 DUP1 REVERT JUMPDEST PUSH1 0x0 DUP1 PUSH2 0xB14 PUSH1 0x26 PUSH2 0x2AE8 JUMP JUMPDEST PUSH1 0x0 DUP1 PUSH2 0x3040 PUSH2 0x3F45 JUMP JUMPDEST PUSH2 0xFFFF SWAP4 SWAP1 SWAP4 AND PUSH1 0x0 SWAP1 DUP2 MSTORE PUSH1 0x20 SWAP4 SWAP1 SWAP4 MSTORE POP POP PUSH1 0x40 SWAP1 KECCAK256 SLOAD PUSH1 0x1 PUSH1 0x1 PUSH1 0xA0 SHL SUB AND SWAP1 JUMP JUMPDEST PUSH1 0x0 DUP1 JUMPDEST DUP3 MLOAD DUP2 LT ISZERO PUSH2 0x32A1 JUMPI PUSH1 0x0 DUP4 DUP3 DUP2 MLOAD DUP2 LT PUSH2 0x3080 JUMPI INVALID JUMPDEST PUSH1 0x20 MUL PUSH1 0x20 ADD ADD MLOAD SWAP1 POP PUSH1 0x0 DUP2 PUSH1 0x60 ADD MLOAD PUSH1 0x1 PUSH1 0x1 PUSH1 0xA0 SHL SUB AND PUSH4 0x70A08231 ADDRESS PUSH1 0x40 MLOAD DUP3 PUSH4 0xFFFFFFFF AND PUSH1 0xE0 SHL DUP2 MSTORE PUSH1 0x4 ADD PUSH2 0x30BC SWAP2 SWAP1 PUSH2 0x5A48 JUMP JUMPDEST PUSH1 0x20 PUSH1 0x40 MLOAD DUP1 DUP4 SUB DUP2 DUP7 DUP1 EXTCODESIZE ISZERO DUP1 ISZERO PUSH2 0x30D4 JUMPI PUSH1 0x0 DUP1 REVERT JUMPDEST POP GAS STATICCALL ISZERO DUP1 ISZERO PUSH2 0x30E8 JUMPI RETURNDATASIZE PUSH1 0x0 DUP1 RETURNDATACOPY RETURNDATASIZE PUSH1 0x0 REVERT JUMPDEST POP POP POP POP PUSH1 0x40 MLOAD RETURNDATASIZE PUSH1 0x1F NOT PUSH1 0x1F DUP3 ADD AND DUP3 ADD DUP1 PUSH1 0x40 MSTORE POP DUP2 ADD SWAP1 PUSH2 0x310C SWAP2 SWAP1 PUSH2 0x5907 JUMP JUMPDEST SWAP1 POP PUSH1 0x0 PUSH2 0x311A DUP8 ADDRESS PUSH2 0x3F52 JUMP JUMPDEST SWAP1 POP PUSH1 0x0 JUMPDEST DUP4 MLOAD MLOAD DUP2 LT ISZERO PUSH2 0x316B JUMPI PUSH2 0x3163 DUP5 PUSH1 0x0 ADD MLOAD DUP3 DUP2 MLOAD DUP2 LT PUSH2 0x313C JUMPI INVALID JUMPDEST PUSH1 0x20 MUL PUSH1 0x20 ADD ADD MLOAD PUSH1 0x0 DUP7 PUSH1 0x20 ADD MLOAD DUP5 DUP2 MLOAD DUP2 LT PUSH2 0x3156 JUMPI INVALID JUMPDEST PUSH1 0x20 MUL PUSH1 0x20 ADD ADD MLOAD PUSH2 0x3FFC JUMP JUMPDEST PUSH1 0x1 ADD PUSH2 0x311F JUMP JUMPDEST POP PUSH1 0x0 PUSH2 0x3178 DUP9 ADDRESS PUSH2 0x3F52 JUMP JUMPDEST SWAP1 POP PUSH1 0x0 PUSH2 0x3186 DUP3 DUP5 PUSH2 0x14D7 JUMP JUMPDEST SWAP1 POP DUP1 DUP6 PUSH1 0x40 ADD MLOAD GT ISZERO PUSH2 0x3199 JUMPI PUSH1 0x0 DUP1 REVERT JUMPDEST PUSH1 0x60 DUP6 ADD MLOAD PUSH1 0x40 MLOAD PUSH4 0x70A08231 PUSH1 0xE0 SHL DUP2 MSTORE PUSH1 0x0 SWAP2 PUSH1 0x1 PUSH1 0x1 PUSH1 0xA0 SHL SUB AND SWAP1 PUSH4 0x70A08231 SWAP1 PUSH2 0x31CC SWAP1 ADDRESS SWAP1 PUSH1 0x4 ADD PUSH2 0x5A48 JUMP JUMPDEST PUSH1 0x20 PUSH1 0x40 MLOAD DUP1 DUP4 SUB DUP2 DUP7 DUP1 EXTCODESIZE ISZERO DUP1 ISZERO PUSH2 0x31E4 JUMPI PUSH1 0x0 DUP1 REVERT JUMPDEST POP GAS STATICCALL ISZERO DUP1 ISZERO PUSH2 0x31F8 JUMPI RETURNDATASIZE PUSH1 0x0 DUP1 RETURNDATACOPY RETURNDATASIZE PUSH1 0x0 REVERT JUMPDEST POP POP POP POP PUSH1 0x40 MLOAD RETURNDATASIZE PUSH1 0x1F NOT PUSH1 0x1F DUP3 ADD AND DUP3 ADD DUP1 PUSH1 0x40 MSTORE POP DUP2 ADD SWAP1 PUSH2 0x321C SWAP2 SWAP1 PUSH2 0x5907 JUMP JUMPDEST SWAP1 POP DUP5 DUP2 GT ISZERO PUSH2 0x322B JUMPI PUSH1 0x0 DUP1 REVERT JUMPDEST PUSH1 0x80 DUP7 ADD MLOAD PUSH1 0xFF AND ISZERO DUP1 ISZERO SWAP1 PUSH2 0x324A JUMPI POP PUSH2 0x3246 DUP6 DUP3 PUSH2 0x14D7 JUMP JUMPDEST DUP3 EQ ISZERO JUMPDEST ISZERO PUSH2 0x3265 JUMPI PUSH1 0x80 DUP7 ADD MLOAD PUSH2 0x3262 SWAP1 DUP3 SWAP1 PUSH1 0xFF AND PUSH2 0x259E JUMP JUMPDEST SWAP1 POP JUMPDEST PUSH2 0x3274 DUP7 PUSH1 0x60 ADD MLOAD DUP7 DUP4 PUSH2 0x4139 JUMP JUMPDEST PUSH2 0x327E DUP9 DUP4 PUSH2 0x259E JUMP JUMPDEST SWAP8 POP PUSH2 0x328F DUP11 PUSH1 0x0 ADD MLOAD DUP6 DUP6 PUSH2 0x4139 JUMP JUMPDEST POP POP PUSH1 0x1 SWAP1 SWAP5 ADD SWAP4 POP PUSH2 0x3069 SWAP3 POP POP POP JUMP JUMPDEST POP SWAP3 SWAP2 POP POP JUMP JUMPDEST PUSH1 0x0 PUSH2 0x32B2 PUSH2 0x5269 JUMP JUMPDEST RETURNDATASIZE DUP1 ISZERO PUSH2 0x32C6 JUMPI PUSH1 0x20 DUP2 EQ PUSH2 0x32CF JUMPI PUSH1 0x0 DUP1 REVERT JUMPDEST PUSH1 0x1 SWAP3 POP PUSH2 0x32DA JUMP JUMPDEST PUSH1 0x20 PUSH1 0x0 DUP4 RETURNDATACOPY DUP2 MLOAD SWAP3 POP JUMPDEST POP DUP2 PUSH2 0x15D0 JUMPI PUSH1 0x40 DUP1 MLOAD PUSH3 0x461BCD PUSH1 0xE5 SHL DUP2 MSTORE PUSH1 0x20 PUSH1 0x4 DUP3 ADD MSTORE PUSH1 0x5 PUSH1 0x24 DUP3 ADD MSTORE PUSH5 0x455243323 PUSH1 0xDC SHL PUSH1 0x44 DUP3 ADD MSTORE SWAP1 MLOAD SWAP1 DUP2 SWAP1 SUB PUSH1 0x64 ADD SWAP1 REVERT JUMPDEST PUSH1 0x0 PUSH4 0x5F5E100 DUP4 PUSH1 0x40 ADD MLOAD EQ ISZERO PUSH2 0x332E JUMPI POP DUP1 PUSH2 0xB14 JUMP JUMPDEST PUSH1 0x40 DUP4 ADD MLOAD PUSH2 0x1044 SWAP1 PUSH2 0x2AA DUP5 PUSH4 0x5F5E100 PUSH2 0xAC6 JUMP JUMPDEST PUSH1 0x0 PUSH2 0x334F PUSH2 0x1BF9 JUMP JUMPDEST PUSH2 0xFFFF DUP5 AND PUSH1 0x0 SWAP1 DUP2 MSTORE PUSH1 0x20 SWAP2 SWAP1 SWAP2 MSTORE PUSH1 0x40 SWAP1 DUP2 SWAP1 KECCAK256 SLOAD SWAP1 MLOAD PUSH4 0xAD1C095D PUSH1 0xE0 SHL DUP2 MSTORE PUSH1 0x1 PUSH1 0x1 PUSH1 0xA0 SHL SUB SWAP1 SWAP2 AND SWAP2 POP DUP2 SWAP1 PUSH4 0xAD1C095D SWAP1 PUSH2 0x3397 SWAP1 DUP8 SWAP1 DUP7 SWAP1 PUSH1 0x4 ADD PUSH2 0x5ADF JUMP JUMPDEST PUSH1 0x0 PUSH1 0x40 MLOAD DUP1 DUP4 SUB DUP2 PUSH1 0x0 DUP8 DUP1 EXTCODESIZE ISZERO DUP1 ISZERO PUSH2 0x33B1 JUMPI PUSH1 0x0 DUP1 REVERT JUMPDEST POP GAS CALL ISZERO DUP1 ISZERO PUSH2 0x147F JUMPI RETURNDATASIZE PUSH1 0x0 DUP1 RETURNDATACOPY RETURNDATASIZE PUSH1 0x0 REVERT JUMPDEST PUSH1 0x0 PUSH2 0x33CF PUSH2 0x41B6 JUMP JUMPDEST PUSH2 0xFFFF DUP6 AND PUSH1 0x0 SWAP1 DUP2 MSTORE PUSH1 0x20 SWAP2 SWAP1 SWAP2 MSTORE PUSH1 0x40 SWAP1 KECCAK256 DUP1 SLOAD SWAP1 SWAP2 POP PUSH5 0xFFFFFFFFFF AND TIMESTAMP EQ PUSH2 0x33FA JUMPI PUSH1 0x0 DUP1 REVERT JUMPDEST DUP1 SLOAD PUSH1 0x0 SWAP1 PUSH2 0x3419 SWAP1 PUSH1 0x1 PUSH1 0x28 SHL SWAP1 DIV PUSH1 0x1 PUSH1 0x1 PUSH1 0x58 SHL SUB AND DUP6 PUSH2 0x1950 JUMP JUMPDEST DUP3 SLOAD SWAP1 SWAP2 POP PUSH1 0x0 SWAP1 PUSH2 0x343B SWAP1 PUSH1 0x1 PUSH1 0x80 SHL SWAP1 DIV PUSH1 0x1 PUSH1 0x1 PUSH1 0x58 SHL SUB AND DUP6 PUSH2 0x1950 JUMP JUMPDEST SWAP1 POP DUP1 PUSH3 0x4C4B40 SGT ISZERO PUSH2 0x344D JUMPI PUSH1 0x0 DUP1 REVERT JUMPDEST PUSH2 0x345E PUSH2 0x3459 DUP3 PUSH2 0x1966 JUMP JUMPDEST PUSH2 0x41C3 JUMP JUMPDEST DUP4 SLOAD PUSH1 0x1 PUSH1 0x1 PUSH1 0x58 SHL SUB SWAP2 SWAP1 SWAP2 AND PUSH1 0x1 PUSH1 0x80 SHL MUL PUSH11 0xFFFFFFFFFFFFFFFFFFFFFF PUSH1 0x80 SHL NOT SWAP1 SWAP2 AND OR DUP4 SSTORE PUSH2 0x3494 PUSH2 0x3459 DUP4 PUSH2 0x1966 JUMP JUMPDEST DUP4 SLOAD PUSH1 0x1 PUSH1 0x1 PUSH1 0x58 SHL SUB SWAP2 SWAP1 SWAP2 AND PUSH1 0x1 PUSH1 0x28 SHL MUL PUSH16 0xFFFFFFFFFFFFFFFFFFFFFF0000000000 NOT SWAP1 SWAP2 AND OR DUP4 SSTORE PUSH2 0x128F DUP4 PUSH2 0x41D9 JUMP JUMPDEST PUSH1 0x0 PUSH2 0x34D3 PUSH2 0x3028 JUMP JUMPDEST PUSH1 0x1 PUSH1 0x1 PUSH1 0xA0 SHL SUB DUP5 AND PUSH1 0x0 SWAP1 DUP2 MSTORE PUSH1 0x20 DUP3 SWAP1 MSTORE PUSH1 0x40 SWAP1 KECCAK256 SLOAD SWAP1 SWAP2 POP PUSH2 0x34FC PUSH2 0xC2A DUP3 DUP6 PUSH2 0x1950 JUMP JUMPDEST PUSH1 0x1 PUSH1 0x1 PUSH1 0xA0 SHL SUB SWAP1 SWAP5 AND PUSH1 0x0 SWAP1 DUP2 MSTORE PUSH1 0x20 SWAP3 SWAP1 SWAP3 MSTORE POP PUSH1 0x40 SWAP1 KECCAK256 SWAP2 SWAP1 SWAP2 SSTORE POP JUMP JUMPDEST DUP7 SLOAD PUSH1 0x1 PUSH1 0x1 PUSH1 0x50 SHL SUB AND PUSH1 0x0 SWAP1 DUP2 SUB SWAP1 PUSH2 0x353A DUP9 DUP7 DUP7 PUSH2 0x2B0E JUMP JUMPDEST SWAP1 POP PUSH2 0x354B PUSH2 0xC2F PUSH2 0xC2A DUP4 PUSH2 0xBC0 JUMP JUMPDEST DUP10 SLOAD PUSH1 0x1 PUSH1 0x1 PUSH1 0x50 SHL SUB NOT AND PUSH1 0x1 PUSH1 0x1 PUSH1 0x50 SHL SUB SWAP2 SWAP1 SWAP2 AND OR DUP10 SSTORE PUSH1 0x0 PUSH2 0x3572 DUP4 DUP4 PUSH2 0x429E JUMP JUMPDEST SWAP1 POP PUSH1 0x0 PUSH5 0xFFFFFFFFFF DUP8 EQ ISZERO PUSH2 0x3599 JUMPI DUP9 MLOAD PUSH2 0x3592 SWAP1 DUP12 SWAP1 DUP11 DUP6 PUSH2 0x4325 JUMP JUMPDEST POP DUP5 PUSH2 0x35D0 JUMP JUMPDEST DUP5 PUSH2 0x35D0 JUMPI DUP9 MLOAD PUSH2 0x35AD SWAP1 DUP10 DUP10 DUP8 DUP8 PUSH2 0x4352 JUMP JUMPDEST DUP9 MLOAD PUSH2 0x35C2 SWAP1 DUP10 PUSH2 0x35BD DUP6 PUSH2 0xBC0 JUMP JUMPDEST PUSH2 0x4412 JUMP JUMPDEST PUSH2 0x35CD DUP10 DUP12 DUP11 PUSH2 0x44E8 JUMP JUMPDEST SWAP1 POP JUMPDEST PUSH1 0x0 DUP3 SGT DUP1 ISZERO PUSH2 0x35DE JUMPI POP DUP5 ISZERO JUMPDEST ISZERO PUSH2 0x35F0 JUMPI DUP9 MLOAD PUSH2 0x35F0 SWAP1 DUP10 DUP4 PUSH2 0x458E JUMP JUMPDEST POP POP POP POP POP POP POP POP POP POP POP JUMP JUMPDEST PUSH1 0x0 PUSH2 0x3607 PUSH2 0x460A JUMP JUMPDEST DUP9 MLOAD PUSH1 0x1 PUSH1 0x1 PUSH1 0xA0 SHL SUB AND PUSH1 0x0 SWAP1 DUP2 MSTORE PUSH1 0x20 SWAP2 DUP3 MSTORE PUSH1 0x40 DUP1 DUP3 KECCAK256 DUP9 DUP4 MSTORE DUP4 MSTORE DUP1 DUP3 KECCAK256 PUSH2 0xFFFF DUP11 AND DUP4 MSTORE SWAP1 SWAP3 MSTORE SWAP1 DUP2 KECCAK256 DUP1 SLOAD SWAP1 SWAP3 POP PUSH2 0x3651 SWAP1 DUP6 SWAP1 DUP9 SWAP1 PUSH1 0x1 PUSH1 0x1 PUSH1 0x50 SHL SUB AND PUSH2 0x289A JUMP JUMPDEST SWAP1 POP PUSH2 0x365D DUP2 DUP7 PUSH2 0x1950 JUMP JUMPDEST SWAP1 POP PUSH2 0x366F DUP3 DUP6 DUP12 DUP11 DUP11 DUP7 PUSH1 0x0 PUSH2 0x351E JUMP JUMPDEST PUSH1 0x0 DUP1 DUP7 SGT DUP1 ISZERO PUSH2 0x3684 JUMPI POP PUSH5 0xFFFFFFFFFF DUP8 EQ JUMPDEST ISZERO PUSH2 0x36A6 JUMPI PUSH2 0x369F PUSH2 0x13E5 DUP7 DUP10 PUSH2 0x369A DUP11 PUSH2 0xBC0 JUMP JUMPDEST PUSH2 0x2B0E JUMP JUMPDEST SWAP1 POP PUSH2 0x36B4 JUMP JUMPDEST PUSH2 0x36B1 DUP6 DUP9 DUP9 PUSH2 0x2B0E JUMP JUMPDEST SWAP1 POP JUMPDEST DUP4 ISZERO PUSH2 0x128A JUMPI PUSH2 0x128A DUP10 DUP12 PUSH1 0x0 ADD MLOAD DUP11 DUP11 DUP6 PUSH2 0x4617 JUMP JUMPDEST DUP3 ISZERO DUP1 ISZERO PUSH2 0x36D7 JUMPI POP DUP2 ISZERO JUMPDEST ISZERO PUSH2 0x36ED JUMPI DUP4 SLOAD PUSH5 0xFFFFFFFFFF NOT AND DUP5 SSTORE PUSH2 0x1DE0 JUMP JUMPDEST DUP4 SLOAD PUSH5 0xFFFFFFFFFF NOT AND PUSH5 0xFFFFFFFFFF SWAP2 SWAP1 SWAP2 AND OR SWAP1 SWAP3 SSTORE POP POP JUMP JUMPDEST PUSH1 0x0 DUP1 PUSH2 0xB14 PUSH1 0x7 PUSH2 0x2AE8 JUMP JUMPDEST DUP1 DUP3 SUB DUP3 DUP2 SGT ISZERO PUSH1 0x0 DUP4 SLT ISZERO EQ PUSH2 0xB14 JUMPI PUSH1 0x0 DUP1 REVERT JUMPDEST PUSH1 0x0 DUP1 PUSH2 0xB14 PUSH1 0x2 PUSH2 0x2AE8 JUMP JUMPDEST PUSH1 0x0 DUP1 PUSH2 0xB14 PUSH1 0x14 PUSH2 0x2AE8 JUMP JUMPDEST PUSH1 0x0 DUP3 PUSH2 0x3755 JUMPI POP PUSH1 0x0 PUSH2 0xB14 JUMP JUMPDEST DUP3 DUP3 MUL DUP3 DUP5 DUP3 DUP2 PUSH2 0x3762 JUMPI INVALID JUMPDEST DIV EQ PUSH2 0x1044 JUMPI PUSH1 0x0 DUP1 REVERT JUMPDEST PUSH1 0x8 DUP2 SWAP1 SHR PUSH1 0xFF SWAP1 SWAP2 AND SHL SWAP1 JUMP JUMPDEST PUSH1 0x0 PUSH1 0x1 DUP3 SLT PUSH2 0x378A JUMPI PUSH1 0x0 DUP1 REVERT JUMPDEST DUP2 PUSH2 0x3797 JUMPI POP PUSH1 0x0 PUSH2 0xB14 JUMP JUMPDEST PUSH2 0x1044 PUSH1 0x1 PUSH2 0x258D PUSH15 0xC097CE7BC90715B34B9F1000000000 PUSH2 0x2AA DUP8 PUSH1 0x20 ADD MLOAD DUP8 PUSH2 0xAC6 SWAP1 SWAP2 SWAP1 PUSH4 0xFFFFFFFF AND JUMP JUMPDEST PUSH1 0x0 DUP1 PUSH5 0xFFFFFFFFFF DUP5 EQ ISZERO PUSH2 0x3818 JUMPI PUSH1 0x20 DUP7 ADD MLOAD PUSH5 0xFFFFFFFFFF EQ PUSH2 0x37F0 JUMPI PUSH1 0x0 SWAP2 POP POP PUSH2 0xF88 JUMP JUMPDEST PUSH2 0x380A PUSH2 0x1380 DUP8 PUSH1 0xA0 ADD MLOAD DUP6 PUSH2 0x14D7 SWAP1 SWAP2 SWAP1 PUSH4 0xFFFFFFFF AND JUMP JUMPDEST PUSH1 0xA0 DUP8 ADD DUP5 SWAP1 MSTORE SWAP1 POP PUSH2 0x3828 JUMP JUMPDEST PUSH2 0x3825 PUSH2 0x1380 DUP6 DUP6 PUSH2 0x14D7 JUMP JUMPDEST SWAP1 POP JUMPDEST PUSH1 0x80 DUP8 ADD MLOAD PUSH1 0x0 SWAP1 PUSH2 0x3844 SWAP1 PUSH4 0x1DA9C00 SWAP1 PUSH2 0x2AA SWAP1 DUP6 PUSH2 0xAC6 JUMP JUMPDEST SWAP1 POP PUSH2 0x3850 DUP7 DUP3 PUSH2 0x102B JUMP JUMPDEST SWAP9 SWAP8 POP POP POP POP POP POP POP POP JUMP JUMPDEST PUSH1 0x0 DUP2 SLT ISZERO PUSH2 0x386A JUMPI PUSH1 0x0 DUP1 REVERT JUMPDEST PUSH1 0x0 PUSH2 0x3878 PUSH2 0xFEE DUP5 PUSH2 0x4679 JUMP JUMPDEST SWAP1 POP PUSH2 0x3884 DUP2 DUP4 PUSH2 0x1950 JUMP JUMPDEST SWAP1 POP PUSH2 0x1D13 PUSH2 0xFEE DUP5 DUP4 PUSH2 0x46D2 JUMP JUMPDEST PUSH1 0x0 DUP2 SLT ISZERO PUSH2 0x38A1 JUMPI PUSH1 0x0 DUP1 REVERT JUMPDEST PUSH1 0x0 PUSH2 0x38B0 DUP4 PUSH2 0xFFFF AND PUSH2 0x4746 JUMP JUMPDEST SWAP1 POP PUSH1 0x0 PUSH2 0x38BE DUP3 DUP6 PUSH2 0x4679 JUMP JUMPDEST SWAP1 POP PUSH2 0x38CA DUP2 DUP5 PUSH2 0x1950 JUMP JUMPDEST SWAP1 POP PUSH2 0x1DE0 DUP3 DUP6 DUP4 PUSH2 0x46D2 JUMP JUMPDEST PUSH1 0x0 PUSH2 0x38E1 PUSH2 0x1BF9 JUMP JUMPDEST PUSH2 0xFFFF DUP6 AND PUSH1 0x0 SWAP1 DUP2 MSTORE PUSH1 0x20 SWAP2 SWAP1 SWAP2 MSTORE PUSH1 0x40 DUP2 KECCAK256 SLOAD PUSH1 0x1 PUSH1 0x1 PUSH1 0xA0 SHL SUB AND SWAP2 POP PUSH2 0x3909 PUSH2 0x476C JUMP JUMPDEST PUSH2 0xFFFF DUP7 AND PUSH1 0x0 SWAP1 DUP2 MSTORE PUSH1 0x20 SWAP2 SWAP1 SWAP2 MSTORE PUSH1 0x40 SWAP1 DUP2 SWAP1 KECCAK256 SLOAD SWAP1 MLOAD PUSH4 0xAD1C095D PUSH1 0xE0 SHL DUP2 MSTORE PUSH1 0x1 PUSH1 0x1 PUSH1 0xA0 SHL SUB SWAP1 SWAP2 AND SWAP2 POP DUP2 SWAP1 PUSH4 0xAD1C095D SWAP1 PUSH2 0x3951 SWAP1 DUP10 SWAP1 DUP8 SWAP1 PUSH1 0x4 ADD PUSH2 0x5ADF JUMP JUMPDEST PUSH1 0x0 PUSH1 0x40 MLOAD DUP1 DUP4 SUB DUP2 PUSH1 0x0 DUP8 DUP1 EXTCODESIZE ISZERO DUP1 ISZERO PUSH2 0x396B JUMPI PUSH1 0x0 DUP1 REVERT JUMPDEST POP GAS CALL ISZERO DUP1 ISZERO PUSH2 0x397F JUMPI RETURNDATASIZE PUSH1 0x0 DUP1 RETURNDATACOPY RETURNDATASIZE PUSH1 0x0 REVERT JUMPDEST POP POP PUSH1 0x40 MLOAD PUSH4 0xAD1C095D PUSH1 0xE0 SHL DUP2 MSTORE PUSH1 0x1 PUSH1 0x1 PUSH1 0xA0 SHL SUB DUP6 AND SWAP3 POP PUSH4 0xAD1C095D SWAP2 POP PUSH2 0x39B1 SWAP1 DUP10 SWAP1 DUP9 SWAP1 PUSH1 0x4 ADD PUSH2 0x5ADF JUMP JUMPDEST PUSH1 0x0 PUSH1 0x40 MLOAD DUP1 DUP4 SUB DUP2 PUSH1 0x0 DUP8 DUP1 EXTCODESIZE ISZERO DUP1 ISZERO PUSH2 0x39CB JUMPI PUSH1 0x0 DUP1 REVERT JUMPDEST POP GAS CALL ISZERO DUP1 ISZERO PUSH2 0x128A JUMPI RETURNDATASIZE PUSH1 0x0 DUP1 RETURNDATACOPY RETURNDATASIZE PUSH1 0x0 REVERT JUMPDEST PUSH1 0x0 PUSH2 0x39E9 PUSH2 0x1BF9 JUMP JUMPDEST PUSH2 0xFFFF DUP6 AND PUSH1 0x0 SWAP1 DUP2 MSTORE PUSH1 0x20 SWAP2 SWAP1 SWAP2 MSTORE PUSH1 0x40 DUP2 KECCAK256 SLOAD PUSH1 0x1 PUSH1 0x1 PUSH1 0xA0 SHL SUB AND SWAP2 POP PUSH2 0x3A11 PUSH2 0x4779 JUMP JUMPDEST PUSH2 0xFFFF DUP7 AND PUSH1 0x0 SWAP1 DUP2 MSTORE PUSH1 0x20 SWAP2 SWAP1 SWAP2 MSTORE PUSH1 0x40 SWAP1 KECCAK256 SLOAD PUSH1 0x1 PUSH1 0x1 PUSH1 0xA0 SHL SUB SWAP1 DUP2 AND SWAP2 POP DUP3 AND PUSH4 0x23DE6651 DUP8 PUSH2 0xFEE PUSH2 0x3A47 DUP8 PUSH2 0x1966 JUMP JUMPDEST PUSH1 0x40 MLOAD DUP5 PUSH4 0xFFFFFFFF AND PUSH1 0xE0 SHL DUP2 MSTORE PUSH1 0x4 ADD PUSH2 0x3A65 SWAP4 SWAP3 SWAP2 SWAP1 PUSH2 0x5ABB JUMP JUMPDEST PUSH1 0x0 PUSH1 0x40 MLOAD DUP1 DUP4 SUB DUP2 PUSH1 0x0 DUP8 DUP1 EXTCODESIZE ISZERO DUP1 ISZERO PUSH2 0x3A7F JUMPI PUSH1 0x0 DUP1 REVERT JUMPDEST POP GAS CALL ISZERO DUP1 ISZERO PUSH2 0x3A93 JUMPI RETURNDATASIZE PUSH1 0x0 DUP1 RETURNDATACOPY RETURNDATASIZE PUSH1 0x0 REVERT JUMPDEST POP POP POP POP DUP2 PUSH1 0x1 PUSH1 0x1 PUSH1 0xA0 SHL SUB AND PUSH4 0x23DE6651 DUP8 DUP4 PUSH2 0x3AB1 DUP9 PUSH2 0x1966 JUMP JUMPDEST PUSH1 0x40 MLOAD DUP5 PUSH4 0xFFFFFFFF AND PUSH1 0xE0 SHL DUP2 MSTORE PUSH1 0x4 ADD PUSH2 0x39B1 SWAP4 SWAP3 SWAP2 SWAP1 PUSH2 0x5ABB JUMP JUMPDEST PUSH2 0x3AD7 PUSH2 0x5287 JUMP JUMPDEST PUSH1 0x0 PUSH2 0x3AE1 PUSH2 0x41B6 JUMP JUMPDEST PUSH2 0xFFFF SWAP4 DUP5 AND PUSH1 0x0 SWAP1 DUP2 MSTORE PUSH1 0x20 SWAP2 DUP3 MSTORE PUSH1 0x40 SWAP1 DUP2 SWAP1 KECCAK256 DUP1 SLOAD PUSH5 0xFFFFFFFFFF DUP2 AND DUP7 MSTORE PUSH1 0x1 PUSH1 0x28 SHL DUP2 DIV PUSH1 0x1 PUSH1 0x1 PUSH1 0x58 SHL SUB SWAP1 DUP2 AND SWAP5 DUP8 ADD SWAP5 SWAP1 SWAP5 MSTORE PUSH1 0x1 DUP3 ADD SLOAD DUP5 AND SWAP3 DUP7 ADD SWAP3 SWAP1 SWAP3 MSTORE PUSH1 0x1 PUSH1 0xD8 SHL DUP3 DIV PUSH4 0xFFFFFFFF AND PUSH1 0x60 DUP7 ADD MSTORE PUSH1 0x1 PUSH1 0x80 SHL SWAP1 SWAP2 DIV SWAP1 SWAP2 AND PUSH1 0x80 DUP5 ADD MSTORE PUSH1 0x2 ADD SLOAD PUSH1 0x1 PUSH1 0x1 PUSH1 0x50 SHL SUB DUP1 DUP3 AND PUSH1 0xA0 DUP6 ADD MSTORE PUSH1 0x1 PUSH1 0x50 SHL DUP3 DIV DUP2 AND PUSH1 0xC0 DUP6 ADD MSTORE PUSH1 0x1 PUSH1 0xA0 SHL DUP3 DIV AND PUSH1 0xE0 DUP5 ADD MSTORE PUSH1 0x1 PUSH1 0xF0 SHL SWAP1 DIV PUSH1 0xFF AND PUSH2 0x12C MUL SWAP1 SWAP3 AND PUSH2 0x100 DUP3 ADD MSTORE SWAP2 SWAP1 POP JUMP JUMPDEST PUSH1 0x0 DUP1 PUSH2 0x3BA3 DUP4 PUSH2 0x3035 JUMP JUMPDEST PUSH1 0x1 PUSH1 0x1 PUSH1 0xA0 SHL SUB AND PUSH4 0xEF81F216 PUSH1 0x40 MLOAD DUP2 PUSH4 0xFFFFFFFF AND PUSH1 0xE0 SHL DUP2 MSTORE PUSH1 0x4 ADD PUSH1 0x40 DUP1 MLOAD DUP1 DUP4 SUB DUP2 PUSH1 0x0 DUP8 DUP1 EXTCODESIZE ISZERO DUP1 ISZERO PUSH2 0x3BDC JUMPI PUSH1 0x0 DUP1 REVERT JUMPDEST POP GAS CALL ISZERO DUP1 ISZERO PUSH2 0x3BF0 JUMPI RETURNDATASIZE PUSH1 0x0 DUP1 RETURNDATACOPY RETURNDATASIZE PUSH1 0x0 REVERT JUMPDEST POP POP POP POP PUSH1 0x40 MLOAD RETURNDATASIZE PUSH1 0x1F NOT PUSH1 0x1F DUP3 ADD AND DUP3 ADD DUP1 PUSH1 0x40 MSTORE POP DUP2 ADD SWAP1 PUSH2 0xB8B SWAP2 SWAP1 PUSH2 0x5785 JUMP JUMPDEST PUSH2 0x3C1C PUSH2 0x5287 JUMP JUMPDEST PUSH1 0x0 DUP1 PUSH1 0x0 PUSH2 0x3C2C DUP9 DUP7 DUP10 PUSH2 0x4786 JUMP JUMPDEST PUSH1 0xC0 DUP12 ADD SWAP3 SWAP1 SWAP3 MSTORE PUSH1 0xE0 DUP11 ADD SWAP3 SWAP1 SWAP3 MSTORE PUSH1 0x20 DUP10 ADD MLOAD SWAP2 SWAP4 POP SWAP2 POP PUSH2 0x3C50 SWAP1 DUP4 PUSH2 0x259E JUMP JUMPDEST PUSH1 0x20 DUP9 ADD MSTORE PUSH1 0x80 DUP8 ADD MLOAD PUSH1 0x0 SWAP1 ISZERO PUSH2 0x3C7E JUMPI PUSH1 0x80 DUP9 ADD MLOAD PUSH2 0x3C7B SWAP1 PUSH2 0x3C75 DUP10 DUP3 PUSH2 0x14D7 JUMP JUMPDEST SWAP1 PUSH2 0x4897 JUMP JUMPDEST SWAP1 POP JUMPDEST PUSH2 0x3C9E PUSH2 0x3C93 PUSH8 0xDE0B6B3A7640000 DUP4 PUSH2 0x259E JUMP JUMPDEST PUSH1 0xA0 DUP11 ADD MLOAD SWAP1 PUSH2 0x48B4 JUMP JUMPDEST PUSH1 0xA0 DUP10 ADD MSTORE POP POP PUSH1 0x80 DUP7 ADD SWAP5 SWAP1 SWAP5 MSTORE POP POP DUP3 MSTORE SWAP1 SWAP3 SWAP1 SWAP2 POP JUMP JUMPDEST PUSH1 0x0 PUSH2 0x3CC2 PUSH2 0x41B6 JUMP JUMPDEST PUSH1 0x0 DUP6 PUSH2 0xFFFF AND DUP2 MSTORE PUSH1 0x20 ADD SWAP1 DUP2 MSTORE PUSH1 0x20 ADD PUSH1 0x0 KECCAK256 SWAP1 POP PUSH2 0x3CE6 DUP3 PUSH1 0x0 ADD MLOAD PUSH2 0x3001 JUMP JUMPDEST DUP2 SLOAD PUSH5 0xFFFFFFFFFF NOT AND PUSH5 0xFFFFFFFFFF SWAP2 SWAP1 SWAP2 AND OR DUP2 SSTORE PUSH1 0xA0 DUP3 ADD MLOAD PUSH2 0x3D0B SWAP1 PUSH2 0x1975 JUMP JUMPDEST PUSH1 0x2 DUP3 ADD DUP1 SLOAD PUSH1 0x1 PUSH1 0x1 PUSH1 0x50 SHL SUB NOT AND PUSH1 0x1 PUSH1 0x1 PUSH1 0x50 SHL SUB SWAP3 SWAP1 SWAP3 AND SWAP2 SWAP1 SWAP2 OR SWAP1 SSTORE PUSH1 0xC0 DUP3 ADD MLOAD PUSH2 0x3D3B SWAP1 PUSH2 0x1975 JUMP JUMPDEST DUP2 PUSH1 0x2 ADD PUSH1 0xA PUSH2 0x100 EXP DUP2 SLOAD DUP2 PUSH1 0x1 PUSH1 0x1 PUSH1 0x50 SHL SUB MUL NOT AND SWAP1 DUP4 PUSH1 0x1 PUSH1 0x1 PUSH1 0x50 SHL SUB AND MUL OR SWAP1 SSTORE POP PUSH2 0x3D70 DUP3 PUSH1 0xE0 ADD MLOAD PUSH2 0x1975 JUMP JUMPDEST DUP2 PUSH1 0x2 ADD PUSH1 0x14 PUSH2 0x100 EXP DUP2 SLOAD DUP2 PUSH1 0x1 PUSH1 0x1 PUSH1 0x50 SHL SUB MUL NOT AND SWAP1 DUP4 PUSH1 0x1 PUSH1 0x1 PUSH1 0x50 SHL SUB AND MUL OR SWAP1 SSTORE POP PUSH2 0x3DA5 DUP3 PUSH1 0x20 ADD MLOAD PUSH2 0x41C3 JUMP JUMPDEST DUP2 SLOAD PUSH1 0x1 PUSH1 0x1 PUSH1 0x58 SHL SUB SWAP2 SWAP1 SWAP2 AND PUSH1 0x1 PUSH1 0x28 SHL MUL PUSH16 0xFFFFFFFFFFFFFFFFFFFFFF0000000000 NOT SWAP1 SWAP2 AND OR DUP2 SSTORE PUSH1 0x40 DUP3 ADD MLOAD PUSH2 0x3DDF SWAP1 PUSH2 0x41C3 JUMP JUMPDEST PUSH1 0x1 DUP3 ADD DUP1 SLOAD PUSH11 0xFFFFFFFFFFFFFFFFFFFFFF NOT AND PUSH1 0x1 PUSH1 0x1 PUSH1 0x58 SHL SUB SWAP3 SWAP1 SWAP3 AND SWAP2 SWAP1 SWAP2 OR SWAP1 SSTORE PUSH1 0x80 DUP3 ADD MLOAD PUSH2 0x3E13 SWAP1 PUSH2 0x41C3 JUMP JUMPDEST DUP2 SLOAD PUSH1 0x1 PUSH1 0x1 PUSH1 0x58 SHL SUB SWAP2 SWAP1 SWAP2 AND PUSH1 0x1 PUSH1 0x80 SHL MUL PUSH11 0xFFFFFFFFFFFFFFFFFFFFFF PUSH1 0x80 SHL NOT SWAP1 SWAP2 AND OR DUP2 SSTORE PUSH1 0x60 DUP3 ADD MLOAD PUSH2 0x3E4B SWAP1 PUSH2 0x3015 JUMP JUMPDEST DUP2 SLOAD PUSH4 0xFFFFFFFF SWAP2 SWAP1 SWAP2 AND PUSH1 0x1 PUSH1 0xD8 SHL MUL PUSH4 0xFFFFFFFF PUSH1 0xD8 SHL NOT SWAP1 SWAP2 AND OR DUP2 SSTORE DUP3 ISZERO PUSH2 0x3E97 JUMPI PUSH1 0x0 PUSH2 0x3E7C DUP5 PUSH2 0xAAC JUMP JUMPDEST SWAP1 POP PUSH2 0x3E88 DUP6 DUP3 PUSH2 0x385C JUMP JUMPDEST PUSH2 0x3E95 PUSH2 0xFEE DUP7 DUP4 PUSH2 0x3345 JUMP JUMPDEST POP JUMPDEST DUP4 PUSH2 0xFFFF AND PUSH32 0xEF25641E225E493886510CA1AD6584FA7B442B9FEA820A29D1DE3CE27D270FD2 DUP4 PUSH1 0xA0 ADD MLOAD DUP5 PUSH1 0xC0 ADD MLOAD DUP6 PUSH1 0xE0 ADD MLOAD PUSH1 0x40 MLOAD PUSH2 0x3EDB SWAP4 SWAP3 SWAP2 SWAP1 PUSH2 0x5D92 JUMP JUMPDEST PUSH1 0x40 MLOAD DUP1 SWAP2 SUB SWAP1 LOG2 POP POP POP POP JUMP JUMPDEST PUSH1 0x0 DUP2 PUSH1 0x0 SGT ISZERO DUP1 ISZERO PUSH2 0x3EFC JUMPI POP PUSH1 0xA DUP3 SLT JUMPDEST ISZERO PUSH2 0x3F09 JUMPI POP PUSH1 0x0 PUSH2 0xB14 JUMP JUMPDEST PUSH1 0x0 DUP3 SLT PUSH2 0x3F16 JUMPI PUSH1 0x0 DUP1 REVERT JUMPDEST PUSH2 0x1044 PUSH1 0x1 PUSH2 0x258D DUP6 PUSH1 0x20 ADD MLOAD PUSH2 0x2AA PUSH15 0xC097CE7BC90715B34B9F1000000000 DUP8 PUSH2 0xAC6 SWAP1 SWAP2 SWAP1 PUSH4 0xFFFFFFFF AND JUMP JUMPDEST PUSH1 0x0 DUP1 PUSH2 0xB14 PUSH1 0x1F PUSH2 0x2AE8 JUMP JUMPDEST PUSH1 0x0 PUSH1 0x3 DUP4 PUSH1 0x60 ADD MLOAD PUSH1 0x5 DUP2 GT ISZERO PUSH2 0x3F66 JUMPI INVALID JUMPDEST EQ ISZERO PUSH2 0x3F7D JUMPI POP PUSH1 0x1 PUSH1 0x1 PUSH1 0xA0 SHL SUB DUP2 AND BALANCE PUSH2 0xB14 JUMP JUMPDEST DUP3 MLOAD PUSH1 0x40 MLOAD PUSH4 0x70A08231 PUSH1 0xE0 SHL DUP2 MSTORE PUSH1 0x1 PUSH1 0x1 PUSH1 0xA0 SHL SUB SWAP1 SWAP2 AND SWAP1 PUSH4 0x70A08231 SWAP1 PUSH2 0x3FAC SWAP1 DUP6 SWAP1 PUSH1 0x4 ADD PUSH2 0x5A48 JUMP JUMPDEST PUSH1 0x20 PUSH1 0x40 MLOAD DUP1 DUP4 SUB DUP2 DUP7 DUP1 EXTCODESIZE ISZERO DUP1 ISZERO PUSH2 0x3FC4 JUMPI PUSH1 0x0 DUP1 REVERT JUMPDEST POP GAS STATICCALL ISZERO DUP1 ISZERO PUSH2 0x3FD8 JUMPI RETURNDATASIZE PUSH1 0x0 DUP1 RETURNDATACOPY RETURNDATASIZE PUSH1 0x0 REVERT JUMPDEST POP POP POP POP PUSH1 0x40 MLOAD RETURNDATASIZE PUSH1 0x1F NOT PUSH1 0x1F DUP3 ADD AND DUP3 ADD DUP1 PUSH1 0x40 MSTORE POP DUP2 ADD SWAP1 PUSH2 0x1F01 SWAP2 SWAP1 PUSH2 0x5907 JUMP JUMPDEST PUSH1 0x0 DUP1 DUP5 PUSH1 0x1 PUSH1 0x1 PUSH1 0xA0 SHL SUB AND DUP5 DUP5 PUSH1 0x40 MLOAD DUP1 DUP3 DUP1 MLOAD SWAP1 PUSH1 0x20 ADD SWAP1 DUP1 DUP4 DUP4 JUMPDEST PUSH1 0x20 DUP4 LT PUSH2 0x403A JUMPI DUP1 MLOAD DUP3 MSTORE PUSH1 0x1F NOT SWAP1 SWAP3 ADD SWAP2 PUSH1 0x20 SWAP2 DUP3 ADD SWAP2 ADD PUSH2 0x401B JUMP JUMPDEST PUSH1 0x1 DUP4 PUSH1 0x20 SUB PUSH2 0x100 EXP SUB DUP1 NOT DUP3 MLOAD AND DUP2 DUP5 MLOAD AND DUP1 DUP3 OR DUP6 MSTORE POP POP POP POP POP POP SWAP1 POP ADD SWAP2 POP POP PUSH1 0x0 PUSH1 0x40 MLOAD DUP1 DUP4 SUB DUP2 DUP6 DUP8 GAS CALL SWAP3 POP POP POP RETURNDATASIZE DUP1 PUSH1 0x0 DUP2 EQ PUSH2 0x409C JUMPI PUSH1 0x40 MLOAD SWAP2 POP PUSH1 0x1F NOT PUSH1 0x3F RETURNDATASIZE ADD AND DUP3 ADD PUSH1 0x40 MSTORE RETURNDATASIZE DUP3 MSTORE RETURNDATASIZE PUSH1 0x0 PUSH1 0x20 DUP5 ADD RETURNDATACOPY PUSH2 0x40A1 JUMP JUMPDEST PUSH1 0x60 SWAP2 POP JUMPDEST POP SWAP2 POP SWAP2 POP DUP2 PUSH2 0x40B0 DUP3 PUSH2 0x48D1 JUMP JUMPDEST SWAP1 PUSH2 0x128F JUMPI PUSH1 0x40 MLOAD PUSH3 0x461BCD PUSH1 0xE5 SHL DUP2 MSTORE PUSH1 0x4 ADD DUP1 DUP1 PUSH1 0x20 ADD DUP3 DUP2 SUB DUP3 MSTORE DUP4 DUP2 DUP2 MLOAD DUP2 MSTORE PUSH1 0x20 ADD SWAP2 POP DUP1 MLOAD SWAP1 PUSH1 0x20 ADD SWAP1 DUP1 DUP4 DUP4 PUSH1 0x0 JUMPDEST DUP4 DUP2 LT ISZERO PUSH2 0x40FE JUMPI DUP2 DUP2 ADD MLOAD DUP4 DUP3 ADD MSTORE PUSH1 0x20 ADD PUSH2 0x40E6 JUMP JUMPDEST POP POP POP POP SWAP1 POP SWAP1 DUP2 ADD SWAP1 PUSH1 0x1F AND DUP1 ISZERO PUSH2 0x412B JUMPI DUP1 DUP3 SUB DUP1 MLOAD PUSH1 0x1 DUP4 PUSH1 0x20 SUB PUSH2 0x100 EXP SUB NOT AND DUP2 MSTORE PUSH1 0x20 ADD SWAP2 POP JUMPDEST POP SWAP3 POP POP POP PUSH1 0x40 MLOAD DUP1 SWAP2 SUB SWAP1 REVERT JUMPDEST PUSH1 0x0 PUSH2 0x4143 PUSH2 0x3028 JUMP JUMPDEST PUSH1 0x1 PUSH1 0x1 PUSH1 0xA0 SHL SUB DUP6 AND PUSH1 0x0 SWAP1 DUP2 MSTORE PUSH1 0x20 DUP3 SWAP1 MSTORE PUSH1 0x40 SWAP1 KECCAK256 SLOAD SWAP1 SWAP2 POP DUP4 DUP2 GT ISZERO PUSH2 0x416C JUMPI PUSH1 0x0 DUP1 REVERT JUMPDEST PUSH1 0x0 PUSH2 0x4183 PUSH2 0x417A DUP7 PUSH2 0xAAC JUMP JUMPDEST PUSH2 0x258D DUP7 PUSH2 0xAAC JUMP JUMPDEST SWAP1 POP PUSH2 0x4192 PUSH2 0xC2A DUP4 DUP4 PUSH2 0x1950 JUMP JUMPDEST PUSH1 0x1 PUSH1 0x1 PUSH1 0xA0 SHL SUB SWAP1 SWAP7 AND PUSH1 0x0 SWAP1 DUP2 MSTORE PUSH1 0x20 SWAP4 SWAP1 SWAP4 MSTORE POP POP PUSH1 0x40 SWAP1 KECCAK256 SWAP3 SWAP1 SWAP3 SSTORE POP POP JUMP JUMPDEST PUSH1 0x0 DUP1 PUSH2 0xB14 PUSH1 0x1D PUSH2 0x2AE8 JUMP JUMPDEST PUSH1 0x0 PUSH1 0x1 PUSH1 0x1 PUSH1 0x58 SHL SUB DUP3 GT ISZERO PUSH2 0xAC2 JUMPI PUSH1 0x0 DUP1 REVERT JUMPDEST DUP1 SLOAD PUSH1 0x2 DUP3 ADD SLOAD PUSH1 0x0 SWAP2 PUSH2 0x4215 SWAP2 PUSH1 0x1 PUSH1 0x28 SHL SWAP1 SWAP2 DIV PUSH1 0x1 PUSH1 0x1 PUSH1 0x58 SHL SUB AND SWAP1 PUSH2 0x2A4 SWAP1 PUSH1 0x1 PUSH1 0x1 PUSH1 0x50 SHL SUB PUSH1 0x1 PUSH1 0x50 SHL DUP3 DIV DUP2 AND SWAP2 AND PUSH2 0xAC6 JUMP JUMPDEST PUSH1 0x1 DUP4 ADD SLOAD PUSH1 0x2 DUP5 ADD SLOAD SWAP2 SWAP3 POP PUSH1 0x0 SWAP2 PUSH2 0x424F SWAP2 PUSH1 0x1 PUSH1 0x1 PUSH1 0x58 SHL SUB AND SWAP1 PUSH2 0x2A4 SWAP1 PUSH1 0x1 PUSH1 0x1 PUSH1 0x50 SHL SUB PUSH1 0x1 PUSH1 0xA0 SHL DUP3 DIV DUP2 AND SWAP2 AND PUSH2 0xAC6 JUMP JUMPDEST DUP4 SLOAD SWAP1 SWAP2 POP PUSH1 0x0 SWAP1 PUSH2 0x4286 SWAP1 PUSH1 0x1 PUSH1 0x1 PUSH1 0x1 PUSH1 0x58 SHL SUB PUSH1 0x1 PUSH1 0x80 SHL SWAP1 SWAP3 DIV DUP3 AND ADD AND PUSH15 0xC097CE7BC90715B34B9F1000000000 PUSH2 0xAC6 JUMP JUMPDEST SWAP1 POP DUP1 PUSH2 0x4293 DUP5 DUP5 PUSH2 0x3716 JUMP JUMPDEST SGT ISZERO PUSH2 0x1DE0 JUMPI PUSH1 0x0 DUP1 REVERT JUMPDEST PUSH1 0x0 DUP2 DUP4 EQ DUP1 PUSH2 0x42BB JUMPI POP PUSH1 0x0 DUP4 SLT ISZERO DUP1 ISZERO PUSH2 0x42BB JUMPI POP PUSH1 0x0 DUP3 SLT ISZERO JUMPDEST ISZERO PUSH2 0x42C8 JUMPI POP PUSH1 0x0 PUSH2 0xB14 JUMP JUMPDEST PUSH1 0x0 DUP4 SGT ISZERO DUP1 ISZERO PUSH2 0x42D9 JUMPI POP DUP2 PUSH1 0x0 SLT JUMPDEST ISZERO PUSH2 0x42E5 JUMPI POP DUP2 PUSH2 0xB14 JUMP JUMPDEST PUSH1 0x0 DUP3 SGT ISZERO DUP1 ISZERO PUSH2 0x42F6 JUMPI POP DUP3 PUSH1 0x0 SLT JUMPDEST ISZERO PUSH2 0x4304 JUMPI PUSH2 0x1F01 DUP3 PUSH2 0xBC0 JUMP JUMPDEST PUSH1 0x0 DUP4 SGT ISZERO DUP1 ISZERO PUSH2 0x4316 JUMPI POP PUSH1 0x0 DUP3 SGT ISZERO JUMPDEST ISZERO PUSH2 0x70 JUMPI PUSH2 0x1F01 DUP4 DUP4 PUSH2 0x3716 JUMP JUMPDEST DUP1 ISZERO PUSH2 0x1DE0 JUMPI DUP4 MLOAD PUSH1 0x20 DUP6 ADD MLOAD PUSH1 0x0 SWAP2 PUSH2 0x4344 SWAP2 PUSH2 0x2AA SWAP1 DUP6 SWAP1 PUSH2 0xAC6 JUMP JUMPDEST SWAP1 POP PUSH2 0xF13 DUP5 DUP5 DUP5 DUP5 PUSH2 0x49D8 JUMP JUMPDEST PUSH1 0x0 PUSH2 0x435E DUP4 DUP4 PUSH2 0x429E JUMP JUMPDEST SWAP1 POP DUP1 PUSH2 0x436B JUMPI POP PUSH2 0xF13 JUMP JUMPDEST PUSH1 0x0 PUSH2 0x4375 PUSH2 0x4B15 JUMP JUMPDEST PUSH2 0xFFFF DUP8 AND PUSH1 0x0 SWAP1 DUP2 MSTORE PUSH1 0x20 DUP3 DUP2 MSTORE PUSH1 0x40 DUP1 DUP4 KECCAK256 DUP10 DUP5 MSTORE SWAP1 SWAP2 MSTORE DUP2 KECCAK256 SLOAD SWAP2 SWAP3 POP PUSH1 0x1 PUSH1 0x1 PUSH1 0x50 SHL SUB SWAP1 SWAP2 AND DUP2 SUB SWAP1 PUSH2 0x43AD DUP3 DUP6 PUSH2 0x3716 JUMP JUMPDEST SWAP1 POP PUSH1 0x0 DUP2 SGT ISZERO PUSH2 0x43BD JUMPI PUSH1 0x0 DUP1 REVERT JUMPDEST PUSH2 0x43CC PUSH2 0xC2F PUSH2 0xC2A DUP4 PUSH2 0xBC0 JUMP JUMPDEST PUSH2 0xFFFF DUP10 AND PUSH1 0x0 SWAP1 DUP2 MSTORE PUSH1 0x20 DUP6 DUP2 MSTORE PUSH1 0x40 DUP1 DUP4 KECCAK256 DUP12 DUP5 MSTORE SWAP1 SWAP2 MSTORE SWAP1 KECCAK256 DUP1 SLOAD PUSH1 0x1 PUSH1 0x1 PUSH1 0x50 SHL SUB NOT AND PUSH1 0x1 PUSH1 0x1 PUSH1 0x50 SHL SUB SWAP3 SWAP1 SWAP3 AND SWAP2 SWAP1 SWAP2 OR SWAP1 SSTORE PUSH2 0xDCE DUP10 DUP10 DUP10 DUP8 PUSH2 0x4B22 JUMP JUMPDEST PUSH1 0x0 PUSH2 0x441C PUSH2 0x4B88 JUMP JUMPDEST PUSH1 0x1 PUSH1 0x1 PUSH1 0xA0 SHL SUB DUP6 AND PUSH1 0x0 SWAP1 DUP2 MSTORE PUSH1 0x20 SWAP2 DUP3 MSTORE PUSH1 0x40 DUP1 DUP3 KECCAK256 PUSH2 0xFFFF DUP8 AND DUP4 MSTORE SWAP1 SWAP3 MSTORE SWAP1 DUP2 KECCAK256 DUP1 SLOAD SWAP1 SWAP3 POP PUSH2 0x4461 SWAP1 PUSH1 0x1 PUSH1 0x50 SHL SWAP1 DIV PUSH1 0x1 PUSH1 0x1 PUSH1 0x50 SHL SUB AND DUP5 PUSH2 0x3716 JUMP JUMPDEST SWAP1 POP PUSH2 0x446F PUSH2 0xC2F DUP3 PUSH2 0x1966 JUMP JUMPDEST DUP3 SLOAD PUSH1 0x1 PUSH1 0x1 PUSH1 0x50 SHL SUB SWAP2 SWAP1 SWAP2 AND PUSH1 0x1 PUSH1 0x50 SHL MUL PUSH10 0xFFFFFFFFFFFFFFFFFFFF PUSH1 0x50 SHL NOT SWAP1 SWAP2 AND OR DUP3 SSTORE PUSH1 0x40 MLOAD PUSH2 0xFFFF DUP6 AND SWAP1 PUSH1 0x1 PUSH1 0x1 PUSH1 0xA0 SHL SUB DUP8 AND SWAP1 PUSH32 0x20478EF460E49D010960D4F3FFF35D8DAE385443ABFAC09035D6A2CCBCD834C4 SWAP1 PUSH2 0x44D9 SWAP1 DUP6 SWAP1 PUSH2 0x5B1D JUMP JUMPDEST PUSH1 0x40 MLOAD DUP1 SWAP2 SUB SWAP1 LOG3 POP POP POP POP POP JUMP JUMPDEST PUSH1 0x0 DUP1 DUP5 PUSH1 0x40 ADD MLOAD PUSH2 0xFFFF AND DUP4 PUSH2 0xFFFF AND EQ ISZERO PUSH2 0x4534 JUMPI PUSH2 0x4507 PUSH2 0x2A11 JUMP JUMPDEST DUP6 MLOAD PUSH1 0x1 PUSH1 0x1 PUSH1 0xA0 SHL SUB AND PUSH1 0x0 SWAP1 DUP2 MSTORE PUSH1 0x20 SWAP2 DUP3 MSTORE PUSH1 0x40 DUP1 DUP3 KECCAK256 PUSH5 0xFFFFFFFFFF DUP4 MSTORE SWAP1 SWAP3 MSTORE KECCAK256 SWAP1 POP PUSH2 0x4571 JUMP JUMPDEST PUSH2 0x453C PUSH2 0x460A JUMP JUMPDEST DUP6 MLOAD PUSH1 0x1 PUSH1 0x1 PUSH1 0xA0 SHL SUB AND PUSH1 0x0 SWAP1 DUP2 MSTORE PUSH1 0x20 SWAP2 DUP3 MSTORE PUSH1 0x40 DUP1 DUP3 KECCAK256 PUSH5 0xFFFFFFFFFF DUP4 MSTORE DUP4 MSTORE DUP1 DUP3 KECCAK256 PUSH2 0xFFFF DUP8 AND DUP4 MSTORE SWAP1 SWAP3 MSTORE KECCAK256 SWAP1 POP JUMPDEST DUP1 SLOAD PUSH2 0xF88 SWAP1 DUP6 SWAP1 PUSH5 0xFFFFFFFFFF SWAP1 PUSH1 0x1 PUSH1 0x1 PUSH1 0x50 SHL SUB AND PUSH2 0x289A JUMP JUMPDEST PUSH1 0x0 PUSH2 0x4598 PUSH2 0x4B88 JUMP JUMPDEST PUSH1 0x1 PUSH1 0x1 PUSH1 0xA0 SHL SUB DUP6 AND PUSH1 0x0 SWAP1 DUP2 MSTORE PUSH1 0x20 SWAP2 DUP3 MSTORE PUSH1 0x40 DUP1 DUP3 KECCAK256 PUSH2 0xFFFF DUP8 AND DUP4 MSTORE SWAP1 SWAP3 MSTORE SWAP1 DUP2 KECCAK256 DUP1 SLOAD SWAP1 SWAP3 POP PUSH2 0x45DD SWAP1 PUSH1 0x1 PUSH1 0x50 SHL SWAP1 DIV PUSH1 0x1 PUSH1 0x1 PUSH1 0x50 SHL SUB AND DUP5 PUSH2 0x3716 JUMP JUMPDEST DUP3 SLOAD SWAP1 SWAP2 POP PUSH1 0x1 PUSH1 0x1 PUSH1 0x50 SHL SUB AND DUP2 SGT ISZERO PUSH2 0xF13 JUMPI PUSH1 0x40 MLOAD PUSH3 0x461BCD PUSH1 0xE5 SHL DUP2 MSTORE PUSH1 0x4 ADD PUSH2 0x8CA SWAP1 PUSH2 0x5B9B JUMP JUMPDEST PUSH1 0x0 DUP1 PUSH2 0xB14 PUSH1 0x18 PUSH2 0x2AE8 JUMP JUMPDEST DUP1 PUSH2 0x4621 JUMPI PUSH2 0xF13 JUMP JUMPDEST PUSH1 0x0 DUP1 DUP1 PUSH2 0x4632 DUP8 DUP8 DUP8 PUSH1 0xA PUSH2 0x1EA4 JUMP JUMPDEST SWAP1 POP PUSH1 0x0 DUP5 SGT ISZERO PUSH2 0x4649 JUMPI DUP8 SWAP3 POP PUSH1 0x0 SWAP2 POP PUSH2 0x4651 JUMP JUMPDEST PUSH1 0x0 SWAP3 POP DUP8 SWAP2 POP JUMPDEST PUSH1 0x1 PUSH1 0x1 PUSH1 0xA0 SHL SUB DUP1 DUP4 AND SWAP1 DUP5 AND CALLER PUSH1 0x0 DUP1 MLOAD PUSH1 0x20 PUSH2 0x5E3A DUP4 CODECOPY DUP2 MLOAD SWAP2 MSTORE DUP5 PUSH2 0x1468 DUP10 PUSH2 0x1C06 JUMP JUMPDEST PUSH1 0x0 DUP1 PUSH2 0x4684 PUSH2 0x4B95 JUMP JUMPDEST PUSH1 0x1 PUSH1 0x1 PUSH1 0xA0 SHL SUB DUP6 AND PUSH1 0x0 SWAP1 DUP2 MSTORE PUSH1 0x20 DUP3 DUP2 MSTORE PUSH1 0x40 DUP1 DUP4 KECCAK256 PUSH2 0xFFFF DUP9 AND DUP5 MSTORE SWAP1 SWAP2 MSTORE DUP2 KECCAK256 DUP1 SLOAD PUSH1 0x1 PUSH1 0xA8 SHL SWAP1 DIV PUSH1 0xA SWAP1 DUP2 SIGNEXTEND SWAP1 SIGNEXTEND SWAP5 POP SWAP2 SWAP3 POP DUP4 SLT ISZERO PUSH2 0x46CA JUMPI PUSH1 0x0 DUP1 REVERT JUMPDEST POP POP SWAP3 SWAP2 POP POP JUMP JUMPDEST PUSH1 0x0 DUP2 SLT ISZERO PUSH2 0x46E0 JUMPI PUSH1 0x0 DUP1 REVERT JUMPDEST PUSH1 0x0 PUSH2 0x46EA PUSH2 0x4B95 JUMP JUMPDEST PUSH1 0x1 PUSH1 0x1 PUSH1 0xA0 SHL SUB DUP6 AND PUSH1 0x0 SWAP1 DUP2 MSTORE PUSH1 0x20 DUP3 DUP2 MSTORE PUSH1 0x40 DUP1 DUP4 KECCAK256 PUSH2 0xFFFF DUP9 AND DUP5 MSTORE SWAP1 SWAP2 MSTORE SWAP1 KECCAK256 SWAP1 SWAP2 POP PUSH2 0x471B DUP4 PUSH2 0x4BA2 JUMP JUMPDEST DUP2 SLOAD PUSH1 0xA SWAP2 SWAP1 SWAP2 SIGNEXTEND PUSH1 0x1 PUSH1 0x1 PUSH1 0x58 SHL SUB AND PUSH1 0x1 PUSH1 0xA8 SHL MUL PUSH1 0x1 PUSH1 0x1 PUSH1 0xA8 SHL SUB SWAP1 SWAP2 AND OR SWAP1 SSTORE POP POP POP POP JUMP JUMPDEST PUSH1 0x0 DUP1 PUSH2 0x4751 PUSH2 0x4779 JUMP JUMPDEST PUSH1 0x0 SWAP4 DUP5 MSTORE PUSH1 0x20 MSTORE POP POP PUSH1 0x40 SWAP1 KECCAK256 SLOAD PUSH1 0x1 PUSH1 0x1 PUSH1 0xA0 SHL SUB AND SWAP1 JUMP JUMPDEST PUSH1 0x0 DUP1 PUSH2 0xB14 PUSH1 0x22 PUSH2 0x2AE8 JUMP JUMPDEST PUSH1 0x0 DUP1 PUSH2 0xB14 PUSH1 0x3 PUSH2 0x2AE8 JUMP JUMPDEST PUSH1 0x0 DUP1 PUSH1 0x0 DUP1 PUSH1 0x0 DUP1 PUSH2 0x4799 DUP10 DUP9 PUSH2 0x4BD4 JUMP JUMPDEST DUP10 MLOAD SWAP1 SWAP6 POP SWAP2 SWAP4 POP SWAP2 POP PUSH1 0x0 SWAP1 PUSH2 0x47C0 SWAP1 PUSH2 0x47B5 SWAP1 DUP12 SWAP1 PUSH2 0x14D7 JUMP JUMPDEST PUSH4 0x3B9ACA00 SWAP1 PUSH2 0x3746 JUMP JUMPDEST SWAP1 POP PUSH2 0x47FA PUSH2 0x47EF PUSH4 0x1DA9C00 PUSH2 0x47D7 DUP6 DUP6 PUSH2 0x3746 JUMP JUMPDEST DUP2 PUSH2 0x47DE JUMPI INVALID JUMPDEST PUSH8 0xDE0B6B3A7640000 SWAP2 SWAP1 DIV PUSH2 0x259E JUMP JUMPDEST PUSH1 0xE0 DUP11 ADD MLOAD SWAP1 PUSH2 0x48B4 JUMP JUMPDEST SWAP7 POP PUSH2 0x481C PUSH2 0x4811 PUSH4 0x1DA9C00 PUSH2 0x47D7 DUP8 DUP6 PUSH2 0x3746 JUMP JUMPDEST PUSH1 0xC0 DUP11 ADD MLOAD SWAP1 PUSH2 0x48B4 JUMP JUMPDEST SWAP6 POP DUP2 DUP4 EQ ISZERO PUSH2 0x4833 JUMPI POP PUSH1 0x0 SWAP4 POP PUSH2 0x488E SWAP2 POP POP JUMP JUMPDEST PUSH1 0x0 PUSH2 0x4855 PUSH2 0x484A PUSH4 0x1DA9C00 PUSH2 0x47D7 DUP8 DUP7 PUSH2 0x3746 JUMP JUMPDEST PUSH1 0xE0 DUP12 ADD MLOAD SWAP1 PUSH2 0x48B4 JUMP JUMPDEST SWAP1 POP PUSH1 0x0 PUSH2 0x4863 DUP10 DUP4 PUSH2 0x14D7 JUMP JUMPDEST SWAP1 POP PUSH2 0x4886 DUP9 PUSH2 0x4880 DUP4 DUP14 PUSH1 0x40 ADD MLOAD PUSH2 0x3746 SWAP1 SWAP2 SWAP1 PUSH4 0xFFFFFFFF AND JUMP JUMPDEST SWAP1 PUSH2 0x4C6F JUMP JUMPDEST SWAP7 POP POP POP POP POP POP JUMPDEST SWAP4 POP SWAP4 POP SWAP4 POP SWAP4 JUMP JUMPDEST PUSH1 0x0 PUSH2 0x1044 PUSH2 0x48AE DUP5 PUSH8 0xDE0B6B3A7640000 PUSH2 0x3746 JUMP JUMPDEST DUP4 PUSH2 0x4C6F JUMP JUMPDEST PUSH1 0x0 PUSH2 0x1044 PUSH2 0x48C3 DUP5 DUP5 PUSH2 0x3746 JUMP JUMPDEST PUSH8 0xDE0B6B3A7640000 PUSH2 0x4C6F JUMP JUMPDEST PUSH1 0x60 PUSH1 0x44 DUP3 MLOAD LT ISZERO PUSH2 0x4907 JUMPI POP PUSH1 0x40 DUP1 MLOAD DUP1 DUP3 ADD SWAP1 SWAP2 MSTORE PUSH1 0xD DUP2 MSTORE PUSH13 0x14DA5B195B9D0814995D995C9D PUSH1 0x9A SHL PUSH1 0x20 DUP3 ADD MSTORE PUSH2 0x939 JUMP JUMPDEST PUSH1 0x4 DUP3 ADD DUP1 MLOAD SWAP1 SWAP3 PUSH1 0x24 ADD SWAP1 PUSH1 0x20 DUP2 LT ISZERO PUSH2 0x4921 JUMPI PUSH1 0x0 DUP1 REVERT JUMPDEST DUP2 ADD SWAP1 DUP1 DUP1 MLOAD PUSH1 0x40 MLOAD SWAP4 SWAP3 SWAP2 SWAP1 DUP5 PUSH5 0x100000000 DUP3 GT ISZERO PUSH2 0x4941 JUMPI PUSH1 0x0 DUP1 REVERT JUMPDEST SWAP1 DUP4 ADD SWAP1 PUSH1 0x20 DUP3 ADD DUP6 DUP2 GT ISZERO PUSH2 0x4956 JUMPI PUSH1 0x0 DUP1 REVERT JUMPDEST DUP3 MLOAD PUSH5 0x100000000 DUP2 GT DUP3 DUP3 ADD DUP9 LT OR ISZERO PUSH2 0x4970 JUMPI PUSH1 0x0 DUP1 REVERT JUMPDEST DUP3 MSTORE POP DUP2 MLOAD PUSH1 0x20 SWAP2 DUP3 ADD SWAP3 SWAP1 SWAP2 ADD SWAP1 DUP1 DUP4 DUP4 PUSH1 0x0 JUMPDEST DUP4 DUP2 LT ISZERO PUSH2 0x499D JUMPI DUP2 DUP2 ADD MLOAD DUP4 DUP3 ADD MSTORE PUSH1 0x20 ADD PUSH2 0x4985 JUMP JUMPDEST POP POP POP POP SWAP1 POP SWAP1 DUP2 ADD SWAP1 PUSH1 0x1F AND DUP1 ISZERO PUSH2 0x49CA JUMPI DUP1 DUP3 SUB DUP1 MLOAD PUSH1 0x1 DUP4 PUSH1 0x20 SUB PUSH2 0x100 EXP SUB NOT AND DUP2 MSTORE PUSH1 0x20 ADD SWAP2 POP JUMPDEST POP PUSH1 0x40 MSTORE POP POP POP SWAP1 POP SWAP2 SWAP1 POP JUMP JUMPDEST PUSH1 0x0 PUSH2 0x49E2 PUSH2 0x41B6 JUMP JUMPDEST PUSH2 0xFFFF DUP6 AND PUSH1 0x0 SWAP1 DUP2 MSTORE PUSH1 0x20 SWAP2 SWAP1 SWAP2 MSTORE PUSH1 0x40 SWAP1 KECCAK256 DUP1 SLOAD SWAP1 SWAP2 POP PUSH5 0xFFFFFFFFFF AND TIMESTAMP EQ PUSH2 0x4A0D JUMPI PUSH1 0x0 DUP1 REVERT JUMPDEST DUP1 SLOAD PUSH1 0x1 PUSH1 0xF8 SHL SWAP1 DIV PUSH1 0xFF AND PUSH2 0x4A22 JUMPI PUSH1 0x0 DUP1 REVERT JUMPDEST PUSH1 0x1 DUP2 ADD SLOAD PUSH1 0x0 SWAP1 PUSH2 0x4A3D SWAP1 PUSH1 0x1 PUSH1 0x1 PUSH1 0x58 SHL SUB AND DUP6 PUSH2 0x1950 JUMP JUMPDEST DUP3 SLOAD SWAP1 SWAP2 POP PUSH1 0x0 SWAP1 PUSH2 0x4A5F SWAP1 PUSH1 0x1 PUSH1 0x28 SHL SWAP1 DIV PUSH1 0x1 PUSH1 0x1 PUSH1 0x58 SHL SUB AND DUP6 PUSH2 0x1950 JUMP JUMPDEST SWAP1 POP DUP2 PUSH1 0x9 NOT SLT DUP1 ISZERO PUSH2 0x4A72 JUMPI POP PUSH1 0x0 DUP3 SLT JUMPDEST ISZERO PUSH2 0x4A7C JUMPI PUSH1 0x0 SWAP2 POP JUMPDEST DUP1 PUSH1 0x9 NOT SLT DUP1 ISZERO PUSH2 0x4A8D JUMPI POP PUSH1 0x0 DUP2 SLT JUMPDEST ISZERO PUSH2 0x4A96 JUMPI POP PUSH1 0x0 JUMPDEST PUSH2 0x4AA2 PUSH2 0x3459 DUP4 PUSH2 0x1966 JUMP JUMPDEST PUSH1 0x1 DUP5 ADD DUP1 SLOAD PUSH11 0xFFFFFFFFFFFFFFFFFFFFFF NOT AND PUSH1 0x1 PUSH1 0x1 PUSH1 0x58 SHL SUB SWAP3 SWAP1 SWAP3 AND SWAP2 SWAP1 SWAP2 OR SWAP1 SSTORE PUSH2 0x4AD4 PUSH2 0x3459 DUP3 PUSH2 0x1966 JUMP JUMPDEST DUP4 SLOAD PUSH1 0x1 PUSH1 0x1 PUSH1 0x58 SHL SUB SWAP2 SWAP1 SWAP2 AND PUSH1 0x1 PUSH1 0x28 SHL MUL PUSH16 0xFFFFFFFFFFFFFFFFFFFFFF0000000000 NOT SWAP1 SWAP2 AND OR DUP4 SSTORE PUSH2 0x4B0C DUP8 DUP8 DUP7 DUP9 PUSH2 0x38D7 JUMP JUMPDEST PUSH2 0xD2A DUP4 PUSH2 0x41D9 JUMP JUMPDEST PUSH1 0x0 DUP1 PUSH2 0xB14 PUSH1 0x20 PUSH2 0x2AE8 JUMP JUMPDEST PUSH1 0x0 DUP1 PUSH2 0x4B30 DUP6 DUP6 DUP6 PUSH2 0x4C8E JUMP JUMPDEST SWAP2 POP SWAP2 POP PUSH1 0x0 DUP1 PUSH1 0x0 DUP6 SLT ISZERO PUSH2 0x4B48 JUMPI DUP8 SWAP2 POP PUSH2 0x4B4B JUMP JUMPDEST POP DUP7 JUMPDEST DUP1 PUSH1 0x1 PUSH1 0x1 PUSH1 0xA0 SHL SUB AND DUP3 PUSH1 0x1 PUSH1 0x1 PUSH1 0xA0 SHL SUB AND CALLER PUSH1 0x1 PUSH1 0x1 PUSH1 0xA0 SHL SUB AND PUSH1 0x0 DUP1 MLOAD PUSH1 0x20 PUSH2 0x5E1A DUP4 CODECOPY DUP2 MLOAD SWAP2 MSTORE DUP8 DUP8 PUSH1 0x40 MLOAD PUSH2 0x1476 SWAP3 SWAP2 SWAP1 PUSH2 0x5AF8 JUMP JUMPDEST PUSH1 0x0 DUP1 PUSH2 0xB14 PUSH1 0x17 PUSH2 0x2AE8 JUMP JUMPDEST PUSH1 0x0 DUP1 PUSH2 0xB14 PUSH1 0x6 PUSH2 0x2AE8 JUMP JUMPDEST PUSH1 0x0 PUSH11 0x7FFFFFFFFFFFFFFFFFFFFF NOT DUP3 SLT DUP1 ISZERO SWAP1 PUSH2 0x4BCB JUMPI POP PUSH11 0x7FFFFFFFFFFFFFFFFFFFFF DUP3 SGT ISZERO JUMPDEST PUSH2 0xAC2 JUMPI PUSH1 0x0 DUP1 REVERT JUMPDEST PUSH1 0x0 DUP1 PUSH1 0x0 DUP1 PUSH1 0x0 DUP6 PUSH1 0x20 ADD MLOAD GT ISZERO PUSH2 0x4C21 JUMPI PUSH2 0x4C1E PUSH2 0x4C05 DUP7 PUSH1 0xC0 ADD MLOAD DUP8 PUSH1 0x20 ADD MLOAD PUSH2 0x3746 SWAP1 SWAP2 SWAP1 PUSH4 0xFFFFFFFF AND JUMP JUMPDEST PUSH1 0xE0 DUP8 ADD MLOAD PUSH1 0x40 DUP9 ADD MLOAD PUSH2 0x4C18 SWAP2 PUSH2 0x3746 JUMP JUMPDEST SWAP1 PUSH2 0x4D73 JUMP JUMPDEST SWAP1 POP JUMPDEST PUSH1 0x0 PUSH2 0x4C2C DUP8 PUSH2 0x4D86 JUMP JUMPDEST SWAP1 POP PUSH2 0x4C38 DUP2 DUP4 PUSH2 0x4DB9 JUMP JUMPDEST SWAP5 POP DUP2 ISZERO PUSH2 0x4C4F JUMPI PUSH2 0x4C4C DUP2 DUP7 PUSH1 0x1 PUSH2 0x4E72 JUMP JUMPDEST SWAP4 POP JUMPDEST PUSH1 0x20 DUP7 ADD MLOAD ISZERO PUSH2 0x4C66 JUMPI PUSH2 0x4C63 DUP6 DUP4 PUSH2 0x4EEC JUMP JUMPDEST SWAP3 POP JUMPDEST POP POP SWAP3 POP SWAP3 POP SWAP3 JUMP JUMPDEST PUSH1 0x0 DUP1 DUP3 GT PUSH2 0x4C7D JUMPI PUSH1 0x0 DUP1 REVERT JUMPDEST DUP2 DUP4 DUP2 PUSH2 0x4C86 JUMPI INVALID JUMPDEST DIV SWAP4 SWAP3 POP POP POP JUMP JUMPDEST PUSH1 0x40 DUP1 MLOAD PUSH1 0x2 DUP1 DUP3 MSTORE PUSH1 0x60 DUP3 DUP2 ADD SWAP1 SWAP4 MSTORE DUP3 SWAP2 PUSH1 0x0 SWAP2 DUP2 PUSH1 0x20 ADD PUSH1 0x20 DUP3 MUL DUP1 CALLDATASIZE DUP4 CALLDATACOPY ADD SWAP1 POP POP SWAP1 POP PUSH1 0x0 PUSH2 0x4CC2 DUP8 DUP8 PUSH2 0x4F05 JUMP JUMPDEST SWAP1 POP DUP1 DUP3 PUSH1 0x0 DUP2 MLOAD DUP2 LT PUSH2 0x4CD2 JUMPI INVALID JUMPDEST PUSH1 0x20 MUL PUSH1 0x20 ADD ADD DUP2 DUP2 MSTORE POP POP PUSH1 0x1 PUSH1 0x40 SHL DUP2 OR DUP3 PUSH1 0x1 DUP2 MLOAD DUP2 LT PUSH2 0x4CF2 JUMPI INVALID JUMPDEST PUSH1 0x20 SWAP1 DUP2 MUL SWAP2 SWAP1 SWAP2 ADD ADD MSTORE PUSH1 0x40 DUP1 MLOAD PUSH1 0x2 DUP1 DUP3 MSTORE PUSH1 0x60 DUP3 ADD SWAP1 SWAP3 MSTORE PUSH1 0x0 SWAP2 DUP2 PUSH1 0x20 ADD PUSH1 0x20 DUP3 MUL DUP1 CALLDATASIZE DUP4 CALLDATACOPY ADD SWAP1 POP POP SWAP1 POP PUSH2 0x4D2B DUP7 PUSH2 0x1C06 JUMP JUMPDEST DUP2 PUSH1 0x0 DUP2 MLOAD DUP2 LT PUSH2 0x4D38 JUMPI INVALID JUMPDEST PUSH1 0x20 MUL PUSH1 0x20 ADD ADD DUP2 DUP2 MSTORE POP POP PUSH2 0x4D4D DUP7 PUSH2 0x1C06 JUMP JUMPDEST DUP2 PUSH1 0x1 DUP2 MLOAD DUP2 LT PUSH2 0x4D5A JUMPI INVALID JUMPDEST PUSH1 0x20 SWAP1 DUP2 MUL SWAP2 SWAP1 SWAP2 ADD ADD MSTORE SWAP2 SWAP8 SWAP2 SWAP7 POP SWAP1 SWAP5 POP POP POP POP POP JUMP JUMPDEST PUSH1 0x0 PUSH2 0x1044 PUSH2 0x48AE DUP5 PUSH4 0x3B9ACA00 PUSH2 0x3746 JUMP JUMPDEST PUSH2 0x4D8E PUSH2 0x52D3 JUMP JUMPDEST PUSH1 0x0 PUSH2 0x4D98 PUSH2 0x4F23 JUMP JUMPDEST PUSH2 0xFFFF DUP5 AND PUSH1 0x0 SWAP1 DUP2 MSTORE PUSH1 0x20 SWAP2 SWAP1 SWAP2 MSTORE PUSH1 0x40 DUP2 KECCAK256 SLOAD SWAP2 POP PUSH2 0x1044 SWAP1 DUP3 PUSH2 0x4F30 JUMP JUMPDEST PUSH1 0x0 DUP1 DUP4 PUSH1 0x80 ADD MLOAD GT PUSH2 0x4DCB JUMPI PUSH1 0x0 DUP1 REVERT JUMPDEST PUSH4 0x3B9ACA00 DUP3 GT ISZERO PUSH2 0x4DDC JUMPI PUSH1 0x0 DUP1 REVERT JUMPDEST DUP3 MLOAD DUP3 GT PUSH2 0x4DFB JUMPI DUP3 MLOAD PUSH1 0x40 DUP5 ADD MLOAD PUSH2 0x1F01 SWAP2 SWAP1 PUSH2 0x4880 SWAP1 DUP6 SWAP1 PUSH2 0x3746 JUMP JUMPDEST DUP3 PUSH1 0x20 ADD MLOAD DUP3 GT PUSH2 0x4E39 JUMPI PUSH1 0x40 DUP4 ADD MLOAD DUP4 MLOAD PUSH1 0x20 DUP6 ADD MLOAD PUSH1 0x60 DUP7 ADD MLOAD PUSH2 0x1F01 SWAP4 SWAP3 PUSH2 0x4E33 SWAP3 DUP2 SWAP1 SUB SWAP2 PUSH2 0x4880 SWAP2 DUP9 SUB SWAP1 DUP6 SWAP1 SUB PUSH2 0x3746 JUMP JUMPDEST SWAP1 PUSH2 0x259E JUMP JUMPDEST PUSH2 0x1044 DUP4 PUSH1 0x60 ADD MLOAD PUSH2 0x4E33 DUP6 PUSH1 0x20 ADD MLOAD PUSH4 0x3B9ACA00 SUB PUSH2 0x4880 DUP8 PUSH1 0x60 ADD MLOAD DUP9 PUSH1 0x80 ADD MLOAD SUB DUP9 PUSH1 0x20 ADD MLOAD DUP9 SUB PUSH2 0x3746 SWAP1 SWAP2 SWAP1 PUSH4 0xFFFFFFFF AND JUMP JUMPDEST PUSH1 0x0 DUP1 PUSH2 0x4E91 PUSH1 0x64 PUSH2 0x4880 DUP8 PUSH1 0xE0 ADD MLOAD DUP8 PUSH2 0x3746 SWAP1 SWAP2 SWAP1 PUSH4 0xFFFFFFFF AND JUMP JUMPDEST SWAP1 POP DUP5 PUSH1 0xA0 ADD MLOAD DUP2 LT ISZERO PUSH2 0x4EA6 JUMPI POP PUSH1 0xA0 DUP5 ADD MLOAD JUMPDEST DUP5 PUSH1 0xC0 ADD MLOAD DUP2 GT ISZERO PUSH2 0x4EB9 JUMPI POP PUSH1 0xC0 DUP5 ADD MLOAD JUMPDEST DUP3 ISZERO PUSH2 0x4ED0 JUMPI PUSH2 0x4EC9 DUP5 DUP3 PUSH2 0x259E JUMP JUMPDEST SWAP2 POP PUSH2 0x4EE4 JUMP JUMPDEST DUP4 DUP2 GT PUSH2 0x4EDF JUMPI DUP1 DUP5 SUB PUSH2 0xF88 JUMP JUMPDEST PUSH1 0x0 SWAP2 POP JUMPDEST POP SWAP4 SWAP3 POP POP POP JUMP JUMPDEST PUSH1 0x0 PUSH2 0x1044 PUSH2 0x4EFB DUP5 DUP5 PUSH2 0x3746 JUMP JUMPDEST PUSH4 0x3B9ACA00 PUSH2 0x4C6F JUMP JUMPDEST PUSH8 0xFFFF000000000000 PUSH1 0x30 DUP4 SWAP1 SHL AND PUSH1 0x8 DUP3 SWAP1 SHL OR PUSH1 0x1 OR SWAP3 SWAP2 POP POP JUMP JUMPDEST PUSH1 0x0 DUP1 PUSH2 0xB14 PUSH1 0x1B PUSH2 0x2AE8 JUMP JUMPDEST PUSH2 0x4F38 PUSH2 0x52D3 JUMP JUMPDEST PUSH1 0x64 PUSH4 0x3B9ACA00 DUP4 PUSH1 0xFF DUP7 AND PUSH1 0x20 DUP2 LT PUSH2 0x4F4E JUMPI INVALID JUMPDEST BYTE MUL DUP2 PUSH2 0x4F57 JUMPI INVALID JUMPDEST DIV DUP2 MSTORE PUSH1 0x64 PUSH4 0x3B9ACA00 DUP4 PUSH1 0xFF DUP7 AND PUSH1 0x1 ADD PUSH1 0x20 DUP2 LT PUSH2 0x4F73 JUMPI INVALID JUMPDEST BYTE MUL DUP2 PUSH2 0x4F7C JUMPI INVALID JUMPDEST DIV DUP2 PUSH1 0x20 ADD DUP2 DUP2 MSTORE POP POP PUSH2 0x4FA1 DUP3 PUSH1 0x2 DUP6 PUSH1 0xFF AND ADD PUSH1 0x20 DUP2 LT PUSH2 0x4F9B JUMPI INVALID JUMPDEST BYTE PUSH2 0x504F JUMP JUMPDEST PUSH1 0x80 DUP3 ADD DUP2 SWAP1 MSTORE PUSH2 0x100 SWAP1 DUP4 PUSH1 0xFF DUP7 AND PUSH1 0x3 ADD PUSH1 0x20 DUP2 LT PUSH2 0x4FBE JUMPI INVALID JUMPDEST BYTE MUL DUP2 PUSH2 0x4FC7 JUMPI INVALID JUMPDEST DIV PUSH1 0x40 DUP3 ADD MSTORE PUSH1 0x80 DUP2 ADD MLOAD PUSH2 0x100 SWAP1 DUP4 PUSH1 0xFF DUP7 AND PUSH1 0x4 ADD PUSH1 0x20 DUP2 LT PUSH2 0x4FE8 JUMPI INVALID JUMPDEST BYTE MUL DUP2 PUSH2 0x4FF1 JUMPI INVALID JUMPDEST DIV PUSH1 0x60 DUP3 ADD MSTORE PUSH3 0x7A120 DUP3 PUSH1 0xFF DUP6 AND PUSH1 0x5 ADD PUSH1 0x20 DUP2 LT PUSH2 0x500D JUMPI INVALID JUMPDEST BYTE MUL PUSH1 0xA0 DUP3 ADD MSTORE PUSH3 0x2625A0 DUP3 PUSH1 0xFF DUP6 AND PUSH1 0x6 ADD PUSH1 0x20 DUP2 LT PUSH2 0x502A JUMPI INVALID JUMPDEST BYTE MUL PUSH1 0xC0 DUP3 ADD MSTORE DUP2 PUSH1 0xFF DUP5 AND PUSH1 0x7 ADD PUSH1 0x20 DUP2 LT PUSH2 0x5043 JUMPI INVALID JUMPDEST BYTE PUSH1 0xE0 DUP3 ADD MSTORE SWAP3 SWAP2 POP POP JUMP JUMPDEST PUSH1 0x0 DUP2 PUSH1 0xFF AND PUSH1 0x96 LT PUSH2 0x506A JUMPI PUSH1 0xFF DUP3 AND PUSH3 0x2625A0 MUL PUSH2 0x936 JUMP JUMPDEST POP PUSH1 0x95 NOT PUSH1 0xFF SWAP2 SWAP1 SWAP2 AND ADD PUSH3 0xE4E1C0 MUL PUSH4 0x165A0BC0 ADD SWAP1 JUMP JUMPDEST PUSH1 0x40 MLOAD DUP1 PUSH1 0x60 ADD PUSH1 0x40 MSTORE DUP1 PUSH1 0x0 DUP2 MSTORE PUSH1 0x20 ADD PUSH1 0x0 DUP2 MSTORE PUSH1 0x20 ADD PUSH1 0x0 DUP2 MSTORE POP SWAP1 JUMP JUMPDEST PUSH1 0x40 MLOAD DUP1 PUSH2 0x1E0 ADD PUSH1 0x40 MSTORE DUP1 PUSH1 0x0 PUSH1 0x1 PUSH1 0x1 PUSH1 0xA0 SHL SUB AND DUP2 MSTORE PUSH1 0x20 ADD PUSH1 0x0 PUSH2 0xFFFF AND DUP2 MSTORE PUSH1 0x20 ADD PUSH1 0x0 PUSH2 0xFFFF AND DUP2 MSTORE PUSH1 0x20 ADD PUSH1 0x0 DUP2 MSTORE PUSH1 0x20 ADD PUSH1 0x0 DUP2 MSTORE PUSH1 0x20 ADD PUSH1 0x0 DUP2 MSTORE PUSH1 0x20 ADD PUSH1 0x0 DUP2 MSTORE PUSH1 0x20 ADD PUSH1 0x0 DUP2 MSTORE PUSH1 0x20 ADD PUSH1 0x0 DUP2 MSTORE PUSH1 0x20 ADD PUSH1 0x0 DUP2 MSTORE PUSH1 0x20 ADD PUSH2 0x510F PUSH2 0x5318 JUMP JUMPDEST DUP2 MSTORE PUSH1 0x20 ADD PUSH2 0x511C PUSH2 0x5083 JUMP JUMPDEST DUP2 MSTORE PUSH1 0x20 ADD PUSH1 0x0 DUP2 MSTORE PUSH1 0x20 ADD PUSH2 0x5130 PUSH2 0x5318 JUMP JUMPDEST DUP2 MSTORE PUSH1 0x20 ADD PUSH1 0x0 DUP2 MSTORE POP SWAP1 JUMP JUMPDEST PUSH1 0x40 MLOAD DUP1 PUSH1 0xC0 ADD PUSH1 0x40 MSTORE DUP1 PUSH1 0x0 DUP2 MSTORE PUSH1 0x20 ADD PUSH1 0x0 DUP2 MSTORE PUSH1 0x20 ADD PUSH1 0x0 DUP2 MSTORE PUSH1 0x20 ADD PUSH1 0x0 PUSH1 0x1 PUSH1 0x1 PUSH1 0xA0 SHL SUB AND DUP2 MSTORE PUSH1 0x20 ADD PUSH1 0x0 DUP2 MSTORE PUSH1 0x20 ADD PUSH1 0x0 DUP2 MSTORE POP SWAP1 JUMP JUMPDEST PUSH1 0x40 MLOAD DUP1 PUSH1 0x80 ADD PUSH1 0x40 MSTORE DUP1 PUSH1 0x0 DUP2 MSTORE PUSH1 0x20 ADD PUSH1 0x0 DUP2 MSTORE PUSH1 0x20 ADD PUSH1 0x0 DUP2 MSTORE PUSH1 0x20 ADD PUSH1 0x0 ISZERO ISZERO DUP2 MSTORE POP SWAP1 JUMP JUMPDEST PUSH1 0x40 MLOAD DUP1 PUSH1 0x40 ADD PUSH1 0x40 MSTORE DUP1 PUSH1 0x2 SWAP1 JUMPDEST PUSH2 0x51BD PUSH2 0x5083 JUMP JUMPDEST DUP2 MSTORE PUSH1 0x20 ADD SWAP1 PUSH1 0x1 SWAP1 SUB SWAP1 DUP2 PUSH2 0x51B5 JUMPI SWAP1 POP POP SWAP1 JUMP JUMPDEST PUSH1 0x40 DUP1 MLOAD PUSH1 0xC0 DUP2 ADD DUP3 MSTORE PUSH1 0x0 DUP1 DUP3 MSTORE PUSH1 0x20 DUP3 ADD MSTORE SWAP1 DUP2 ADD PUSH2 0x51F2 PUSH2 0x5083 JUMP JUMPDEST DUP2 MSTORE PUSH1 0x20 ADD PUSH2 0x51FF PUSH2 0x5083 JUMP JUMPDEST DUP2 MSTORE PUSH1 0x20 ADD PUSH1 0x0 DUP2 MSTORE PUSH1 0x20 ADD PUSH1 0x0 DUP2 MSTORE POP SWAP1 JUMP JUMPDEST PUSH1 0x40 DUP1 MLOAD PUSH1 0xA0 DUP2 ADD DUP3 MSTORE PUSH1 0x0 DUP1 DUP3 MSTORE PUSH1 0x20 DUP3 ADD DUP2 SWAP1 MSTORE SWAP2 DUP2 ADD DUP3 SWAP1 MSTORE SWAP1 PUSH1 0x60 DUP3 ADD SWAP1 PUSH2 0x5130 JUMP JUMPDEST PUSH1 0x40 MLOAD DUP1 PUSH1 0xA0 ADD PUSH1 0x40 MSTORE DUP1 PUSH1 0x0 DUP2 MSTORE PUSH1 0x20 ADD PUSH1 0x0 DUP2 MSTORE PUSH1 0x20 ADD PUSH1 0x0 DUP2 MSTORE PUSH1 0x20 ADD PUSH1 0x0 DUP2 MSTORE PUSH1 0x20 ADD PUSH1 0x0 DUP2 MSTORE POP SWAP1 JUMP JUMPDEST PUSH1 0x40 MLOAD DUP1 PUSH1 0x20 ADD PUSH1 0x40 MSTORE DUP1 PUSH1 0x1 SWAP1 PUSH1 0x20 DUP3 MUL DUP1 CALLDATASIZE DUP4 CALLDATACOPY POP SWAP2 SWAP3 SWAP2 POP POP JUMP JUMPDEST PUSH1 0x40 MLOAD DUP1 PUSH2 0x120 ADD PUSH1 0x40 MSTORE DUP1 PUSH1 0x0 DUP2 MSTORE PUSH1 0x20 ADD PUSH1 0x0 DUP2 MSTORE PUSH1 0x20 ADD PUSH1 0x0 DUP2 MSTORE PUSH1 0x20 ADD PUSH1 0x0 DUP2 MSTORE PUSH1 0x20 ADD PUSH1 0x0 DUP2 MSTORE PUSH1 0x20 ADD PUSH1 0x0 DUP2 MSTORE PUSH1 0x20 ADD PUSH1 0x0 DUP2 MSTORE PUSH1 0x20 ADD PUSH1 0x0 DUP2 MSTORE PUSH1 0x20 ADD PUSH1 0x0 DUP2 MSTORE POP SWAP1 JUMP JUMPDEST PUSH1 0x40 MLOAD DUP1 PUSH2 0x100 ADD PUSH1 0x40 MSTORE DUP1 PUSH1 0x0 DUP2 MSTORE PUSH1 0x20 ADD PUSH1 0x0 DUP2 MSTORE PUSH1 0x20 ADD PUSH1 0x0 DUP2 MSTORE PUSH1 0x20 ADD PUSH1 0x0 DUP2 MSTORE PUSH1 0x20 ADD PUSH1 0x0 DUP2 MSTORE PUSH1 0x20 ADD PUSH1 0x0 DUP2 MSTORE PUSH1 0x20 ADD PUSH1 0x0 DUP2 MSTORE PUSH1 0x20 ADD PUSH1 0x0 DUP2 MSTORE POP SWAP1 JUMP JUMPDEST PUSH1 0x40 MLOAD DUP1 PUSH1 0x40 ADD PUSH1 0x40 MSTORE DUP1 PUSH1 0x2 SWAP1 PUSH1 0x20 DUP3 MUL DUP1 CALLDATASIZE DUP4 CALLDATACOPY POP SWAP2 SWAP3 SWAP2 POP POP JUMP JUMPDEST DUP1 MLOAD PUSH2 0x939 DUP2 PUSH2 0x5E01 JUMP JUMPDEST PUSH1 0x0 DUP3 PUSH1 0x1F DUP4 ADD SLT PUSH2 0x5351 JUMPI DUP1 DUP2 REVERT JUMPDEST DUP2 MLOAD PUSH1 0x20 PUSH2 0x5366 PUSH2 0x5361 DUP4 PUSH2 0x5DE3 JUMP JUMPDEST PUSH2 0x5DBF JUMP JUMPDEST DUP3 DUP2 MSTORE DUP2 DUP2 ADD SWAP1 DUP6 DUP4 ADD DUP4 DUP6 MUL DUP8 ADD DUP5 ADD DUP9 LT ISZERO PUSH2 0x5382 JUMPI DUP6 DUP7 REVERT JUMPDEST DUP6 JUMPDEST DUP6 DUP2 LT ISZERO PUSH2 0x53A9 JUMPI DUP2 MLOAD PUSH2 0x5397 DUP2 PUSH2 0x5E01 JUMP JUMPDEST DUP5 MSTORE SWAP3 DUP5 ADD SWAP3 SWAP1 DUP5 ADD SWAP1 PUSH1 0x1 ADD PUSH2 0x5384 JUMP JUMPDEST POP SWAP1 SWAP8 SWAP7 POP POP POP POP POP POP POP JUMP JUMPDEST PUSH1 0x0 PUSH1 0x1F DUP4 DUP2 DUP5 ADD SLT PUSH2 0x53C7 JUMPI DUP2 DUP3 REVERT JUMPDEST DUP3 MLOAD PUSH1 0x20 PUSH2 0x53D7 PUSH2 0x5361 DUP4 PUSH2 0x5DE3 JUMP JUMPDEST DUP3 DUP2 MSTORE DUP2 DUP2 ADD SWAP1 DUP7 DUP4 ADD DUP7 JUMPDEST DUP6 DUP2 LT ISZERO PUSH2 0x547C JUMPI DUP2 MLOAD DUP10 ADD DUP11 PUSH1 0x3F DUP3 ADD SLT PUSH2 0x53FD JUMPI DUP9 DUP10 REVERT JUMPDEST DUP6 DUP2 ADD MLOAD PUSH8 0xFFFFFFFFFFFFFFFF DUP2 GT ISZERO PUSH2 0x5413 JUMPI INVALID JUMPDEST PUSH2 0x5424 DUP2 DUP11 ADD PUSH1 0x1F NOT AND DUP9 ADD PUSH2 0x5DBF JUMP JUMPDEST DUP2 DUP2 MSTORE PUSH1 0x40 DUP14 DUP2 DUP5 DUP7 ADD ADD GT ISZERO PUSH2 0x5439 JUMPI DUP12 DUP13 REVERT JUMPDEST DUP12 JUMPDEST DUP4 DUP2 LT ISZERO PUSH2 0x5456 JUMPI DUP5 DUP2 ADD DUP3 ADD MLOAD DUP4 DUP3 ADD DUP12 ADD MSTORE DUP10 ADD PUSH2 0x543B JUMP JUMPDEST DUP4 DUP2 GT ISZERO PUSH2 0x5466 JUMPI DUP13 DUP11 DUP6 DUP6 ADD ADD MSTORE JUMPDEST POP POP DUP7 MSTORE POP POP SWAP3 DUP5 ADD SWAP3 SWAP1 DUP5 ADD SWAP1 PUSH1 0x1 ADD PUSH2 0x53E3 JUMP JUMPDEST POP SWAP1 SWAP9 SWAP8 POP POP POP POP POP POP POP POP JUMP JUMPDEST PUSH1 0x0 DUP3 PUSH1 0x1F DUP4 ADD SLT PUSH2 0x549A JUMPI DUP1 DUP2 REVERT JUMPDEST PUSH1 0x40 MLOAD PUSH1 0x60 DUP2 ADD DUP2 DUP2 LT PUSH8 0xFFFFFFFFFFFFFFFF DUP3 GT OR ISZERO PUSH2 0x54B7 JUMPI INVALID JUMPDEST PUSH1 0x40 MSTORE DUP1 DUP4 PUSH1 0x60 DUP2 ADD DUP7 LT ISZERO PUSH2 0x54CB JUMPI DUP4 DUP5 REVERT JUMPDEST DUP4 JUMPDEST PUSH1 0x3 DUP2 LT ISZERO PUSH2 0x54EC JUMPI DUP2 MLOAD DUP4 MSTORE PUSH1 0x20 SWAP3 DUP4 ADD SWAP3 SWAP1 SWAP2 ADD SWAP1 PUSH1 0x1 ADD PUSH2 0x54CD JUMP JUMPDEST POP SWAP2 SWAP6 SWAP5 POP POP POP POP POP JUMP JUMPDEST DUP1 MLOAD PUSH1 0x1 PUSH1 0x1 PUSH1 0x50 SHL SUB DUP2 AND DUP2 EQ PUSH2 0x939 JUMPI PUSH1 0x0 DUP1 REVERT JUMPDEST DUP1 MLOAD PUSH1 0xFF DUP2 AND DUP2 EQ PUSH2 0x939 JUMPI PUSH1 0x0 DUP1 REVERT JUMPDEST PUSH1 0x0 DUP1 PUSH1 0x0 DUP1 PUSH1 0x0 PUSH1 0xA0 DUP7 DUP9 SUB SLT ISZERO PUSH2 0x5536 JUMPI DUP1 DUP2 REVERT JUMPDEST DUP6 CALLDATALOAD PUSH2 0x5541 DUP2 PUSH2 0x5E01 JUMP JUMPDEST SWAP5 POP PUSH1 0x20 DUP7 ADD CALLDATALOAD PUSH2 0x5551 DUP2 PUSH2 0x5E01 JUMP JUMPDEST SWAP4 POP PUSH1 0x40 DUP7 ADD CALLDATALOAD PUSH2 0x5561 DUP2 PUSH2 0x5E01 JUMP JUMPDEST SWAP3 POP PUSH1 0x60 DUP7 ADD CALLDATALOAD PUSH2 0xFFFF DUP2 AND DUP2 EQ PUSH2 0x5577 JUMPI DUP2 DUP3 REVERT JUMPDEST SWAP5 SWAP8 SWAP4 SWAP7 POP SWAP2 SWAP5 PUSH1 0x80 ADD CALLDATALOAD SWAP3 SWAP2 POP POP JUMP JUMPDEST PUSH1 0x0 DUP1 PUSH1 0x0 DUP1 PUSH1 0x0 PUSH1 0xA0 DUP7 DUP9 SUB SLT ISZERO PUSH2 0x559F JUMPI DUP3 DUP4 REVERT JUMPDEST DUP6 CALLDATALOAD PUSH2 0x55AA DUP2 PUSH2 0x5E01 JUMP JUMPDEST SWAP5 POP PUSH1 0x20 DUP7 ADD CALLDATALOAD PUSH2 0x55BA DUP2 PUSH2 0x5E01 JUMP JUMPDEST SWAP4 POP PUSH1 0x40 DUP7 ADD CALLDATALOAD PUSH2 0x55CA DUP2 PUSH2 0x5E01 JUMP JUMPDEST SWAP5 SWAP8 SWAP4 SWAP7 POP SWAP4 SWAP5 PUSH1 0x60 DUP2 ADD CALLDATALOAD SWAP5 POP PUSH1 0x80 ADD CALLDATALOAD SWAP3 SWAP2 POP POP JUMP JUMPDEST PUSH1 0x0 DUP1 PUSH1 0x0 DUP1 PUSH1 0x0 DUP1 PUSH1 0xC0 DUP8 DUP10 SUB SLT ISZERO PUSH2 0x55FA JUMPI DUP4 DUP5 REVERT JUMPDEST DUP7 CALLDATALOAD PUSH2 0x5605 DUP2 PUSH2 0x5E01 JUMP JUMPDEST SWAP6 POP PUSH1 0x20 DUP8 ADD CALLDATALOAD PUSH2 0x5615 DUP2 PUSH2 0x5E01 JUMP JUMPDEST SWAP5 POP PUSH1 0x40 DUP8 ADD CALLDATALOAD PUSH2 0x5625 DUP2 PUSH2 0x5E01 JUMP JUMPDEST SWAP6 SWAP9 SWAP5 SWAP8 POP SWAP5 SWAP6 PUSH1 0x60 DUP2 ADD CALLDATALOAD SWAP6 POP PUSH1 0x80 DUP2 ADD CALLDATALOAD SWAP5 PUSH1 0xA0 SWAP1 SWAP2 ADD CALLDATALOAD SWAP4 POP SWAP2 POP POP JUMP JUMPDEST PUSH1 0x0 PUSH1 0x20 DUP1 DUP4 DUP6 SUB SLT ISZERO PUSH2 0x5658 JUMPI DUP2 DUP3 REVERT JUMPDEST DUP3 MLOAD PUSH8 0xFFFFFFFFFFFFFFFF DUP1 DUP3 GT ISZERO PUSH2 0x566F JUMPI DUP4 DUP5 REVERT JUMPDEST DUP2 DUP6 ADD SWAP2 POP DUP6 PUSH1 0x1F DUP4 ADD SLT PUSH2 0x5682 JUMPI DUP4 DUP5 REVERT JUMPDEST DUP2 MLOAD PUSH2 0x5690 PUSH2 0x5361 DUP3 PUSH2 0x5DE3 JUMP JUMPDEST DUP2 DUP2 MSTORE DUP5 DUP2 ADD SWAP1 DUP5 DUP7 ADD DUP8 JUMPDEST DUP5 DUP2 LT ISZERO PUSH2 0x5756 JUMPI DUP2 MLOAD DUP8 ADD PUSH1 0xA0 DUP2 DUP14 SUB PUSH1 0x1F NOT ADD SLT ISZERO PUSH2 0x56BB JUMPI DUP10 DUP11 REVERT JUMPDEST PUSH1 0x40 DUP1 MLOAD PUSH1 0xA0 DUP2 ADD DUP2 DUP2 LT DUP11 DUP3 GT OR ISZERO PUSH2 0x56D1 JUMPI INVALID JUMPDEST DUP3 MSTORE DUP3 DUP12 ADD MLOAD DUP10 DUP2 GT ISZERO PUSH2 0x56E3 JUMPI DUP13 DUP14 REVERT JUMPDEST PUSH2 0x56F1 DUP16 DUP14 DUP4 DUP8 ADD ADD PUSH2 0x5341 JUMP JUMPDEST DUP3 MSTORE POP DUP2 DUP4 ADD MLOAD DUP10 DUP2 GT ISZERO PUSH2 0x5704 JUMPI DUP13 DUP14 REVERT JUMPDEST PUSH2 0x5712 DUP16 DUP14 DUP4 DUP8 ADD ADD PUSH2 0x53B6 JUMP JUMPDEST DUP13 DUP4 ADD MSTORE POP PUSH1 0x60 DUP4 ADD MLOAD DUP3 DUP3 ADD MSTORE PUSH2 0x572C PUSH1 0x80 DUP5 ADD PUSH2 0x5336 JUMP JUMPDEST PUSH1 0x60 DUP3 ADD MSTORE PUSH2 0x573D PUSH1 0xA0 DUP5 ADD PUSH2 0x550E JUMP JUMPDEST PUSH1 0x80 DUP3 ADD MSTORE DUP7 MSTORE POP POP SWAP3 DUP8 ADD SWAP3 SWAP1 DUP8 ADD SWAP1 PUSH1 0x1 ADD PUSH2 0x569C JUMP JUMPDEST POP SWAP1 SWAP10 SWAP9 POP POP POP POP POP POP POP POP POP JUMP JUMPDEST PUSH1 0x0 PUSH1 0x20 DUP3 DUP5 SUB SLT ISZERO PUSH2 0x5776 JUMPI DUP1 DUP2 REVERT JUMPDEST DUP2 MLOAD DUP1 ISZERO ISZERO DUP2 EQ PUSH2 0x1044 JUMPI DUP2 DUP3 REVERT JUMPDEST PUSH1 0x0 DUP1 PUSH1 0x40 DUP4 DUP6 SUB SLT ISZERO PUSH2 0x5797 JUMPI DUP2 DUP3 REVERT JUMPDEST POP POP DUP1 MLOAD PUSH1 0x20 SWAP1 SWAP2 ADD MLOAD SWAP1 SWAP3 SWAP1 SWAP2 POP JUMP JUMPDEST PUSH1 0x0 DUP1 PUSH1 0x0 DUP4 DUP6 SUB PUSH1 0xA0 DUP2 SLT ISZERO PUSH2 0x57BD JUMPI DUP2 DUP3 REVERT JUMPDEST DUP5 MLOAD SWAP4 POP PUSH1 0x20 DUP6 ADD MLOAD SWAP3 POP PUSH1 0x60 PUSH1 0x3F NOT DUP3 ADD SLT ISZERO PUSH2 0x57D9 JUMPI DUP2 DUP3 REVERT JUMPDEST POP PUSH1 0x40 MLOAD PUSH1 0x60 DUP2 ADD DUP2 DUP2 LT PUSH8 0xFFFFFFFFFFFFFFFF DUP3 GT OR ISZERO PUSH2 0x57F7 JUMPI INVALID JUMPDEST DUP1 PUSH1 0x40 MSTORE POP PUSH1 0x40 DUP6 ADD MLOAD DUP2 MSTORE PUSH1 0x60 DUP6 ADD MLOAD PUSH1 0x20 DUP3 ADD MSTORE PUSH1 0x80 DUP6 ADD MLOAD PUSH1 0x40 DUP3 ADD MSTORE DUP1 SWAP2 POP POP SWAP3 POP SWAP3 POP SWAP3 JUMP JUMPDEST PUSH1 0x0 DUP1 PUSH1 0x0 DUP4 DUP6 SUB PUSH2 0x180 DUP1 DUP3 SLT ISZERO PUSH2 0x5839 JUMPI DUP3 DUP4 REVERT JUMPDEST PUSH1 0xC0 DUP3 SLT ISZERO PUSH2 0x5846 JUMPI DUP3 DUP4 REVERT JUMPDEST PUSH1 0x40 MLOAD SWAP2 POP PUSH1 0x80 DUP3 ADD DUP3 DUP2 LT PUSH8 0xFFFFFFFFFFFFFFFF DUP3 GT OR ISZERO PUSH2 0x5865 JUMPI INVALID JUMPDEST DUP1 PUSH1 0x40 MSTORE POP DUP6 MLOAD DUP3 MSTORE PUSH1 0x20 DUP1 DUP8 ADD MLOAD DUP2 DUP5 ADD MSTORE PUSH1 0x40 DUP8 ADD MLOAD PUSH1 0x40 DUP5 ADD MSTORE PUSH2 0x588F DUP9 PUSH1 0x60 DUP10 ADD PUSH2 0x548A JUMP JUMPDEST PUSH1 0x60 DUP5 ADD MSTORE DUP3 SWAP6 POP PUSH2 0x58A4 DUP9 PUSH1 0xC0 DUP10 ADD PUSH2 0x548A JUMP JUMPDEST SWAP5 POP DUP8 PUSH2 0x13F DUP9 ADD SLT PUSH2 0x58B5 JUMPI DUP4 DUP5 REVERT JUMPDEST PUSH2 0x58BF PUSH1 0x60 PUSH2 0x5DBF JUMP JUMPDEST SWAP3 POP DUP3 PUSH2 0x120 DUP9 ADD DUP10 DUP5 DUP11 ADD GT ISZERO PUSH2 0x58D5 JUMPI DUP6 DUP7 REVERT JUMPDEST DUP6 SWAP4 POP JUMPDEST PUSH1 0x3 DUP5 LT ISZERO PUSH2 0x58F8 JUMPI DUP1 MLOAD DUP6 MSTORE SWAP4 DUP3 ADD SWAP4 PUSH1 0x1 SWAP4 SWAP1 SWAP4 ADD SWAP3 DUP3 ADD PUSH2 0x58D9 JUMP JUMPDEST POP DUP1 SWAP5 POP POP POP POP POP SWAP3 POP SWAP3 POP SWAP3 JUMP JUMPDEST PUSH1 0x0 PUSH1 0x20 DUP3 DUP5 SUB SLT ISZERO PUSH2 0x5918 JUMPI DUP1 DUP2 REVERT JUMPDEST POP MLOAD SWAP2 SWAP1 POP JUMP JUMPDEST PUSH1 0x0 DUP1 PUSH1 0x0 DUP1 PUSH1 0x0 PUSH1 0xA0 DUP7 DUP9 SUB SLT ISZERO PUSH2 0x5936 JUMPI DUP3 DUP4 REVERT JUMPDEST PUSH2 0x593F DUP7 PUSH2 0x54F7 JUMP JUMPDEST SWAP5 POP PUSH1 0x20 DUP7 ADD MLOAD SWAP4 POP PUSH1 0x40 DUP7 ADD MLOAD SWAP3 POP PUSH1 0x60 DUP7 ADD MLOAD SWAP2 POP PUSH2 0x5962 PUSH1 0x80 DUP8 ADD PUSH2 0x54F7 JUMP JUMPDEST SWAP1 POP SWAP3 SWAP6 POP SWAP3 SWAP6 SWAP1 SWAP4 POP JUMP JUMPDEST PUSH1 0x1 PUSH1 0x1 PUSH1 0xA0 SHL SUB AND SWAP1 MSTORE JUMP JUMPDEST DUP1 PUSH1 0x0 JUMPDEST PUSH1 0x2 DUP2 LT ISZERO PUSH2 0x1DE0 JUMPI DUP2 MLOAD DUP5 MSTORE PUSH1 0x20 SWAP4 DUP5 ADD SWAP4 SWAP1 SWAP2 ADD SWAP1 PUSH1 0x1 ADD PUSH2 0x597F JUMP JUMPDEST DUP1 PUSH1 0x0 JUMPDEST PUSH1 0x2 DUP2 LT ISZERO PUSH2 0x1DE0 JUMPI DUP2 MLOAD PUSH2 0xFFFF AND DUP5 MSTORE PUSH1 0x20 SWAP4 DUP5 ADD SWAP4 SWAP1 SWAP2 ADD SWAP1 PUSH1 0x1 ADD PUSH2 0x59A2 JUMP JUMPDEST PUSH1 0x0 DUP2 MLOAD DUP1 DUP5 MSTORE PUSH1 0x20 DUP1 DUP6 ADD SWAP5 POP DUP1 DUP5 ADD DUP4 JUMPDEST DUP4 DUP2 LT ISZERO PUSH2 0x59F4 JUMPI DUP2 MLOAD DUP8 MSTORE SWAP6 DUP3 ADD SWAP6 SWAP1 DUP3 ADD SWAP1 PUSH1 0x1 ADD PUSH2 0x59D8 JUMP JUMPDEST POP SWAP5 SWAP6 SWAP5 POP POP POP POP POP JUMP JUMPDEST DUP1 MLOAD DUP3 MSTORE PUSH1 0x20 DUP1 DUP3 ADD MLOAD SWAP1 DUP4 ADD MSTORE PUSH1 0x40 SWAP1 DUP2 ADD MLOAD SWAP2 ADD MSTORE JUMP JUMPDEST DUP1 MLOAD DUP3 MSTORE PUSH1 0x20 DUP2 ADD MLOAD PUSH1 0x20 DUP4 ADD MSTORE PUSH1 0x40 DUP2 ADD MLOAD PUSH1 0x40 DUP4 ADD MSTORE PUSH1 0x60 DUP2 ADD MLOAD ISZERO ISZERO PUSH1 0x60 DUP4 ADD MSTORE POP POP JUMP JUMPDEST PUSH2 0xFFFF AND SWAP1 MSTORE JUMP JUMPDEST PUSH1 0x1 PUSH1 0x1 PUSH1 0xA0 SHL SUB SWAP2 SWAP1 SWAP2 AND DUP2 MSTORE PUSH1 0x20 ADD SWAP1 JUMP JUMPDEST PUSH1 0x1 PUSH1 0x1 PUSH1 0xA0 SHL SUB SWAP3 DUP4 AND DUP2 MSTORE SWAP2 AND PUSH1 0x20 DUP3 ADD MSTORE PUSH1 0x40 ADD SWAP1 JUMP JUMPDEST PUSH1 0x1 PUSH1 0x1 PUSH1 0xA0 SHL SUB SWAP8 DUP9 AND DUP2 MSTORE SWAP6 DUP8 AND PUSH1 0x20 DUP8 ADD MSTORE SWAP4 SWAP1 SWAP6 AND PUSH1 0x40 DUP6 ADD MSTORE PUSH2 0xFFFF SWAP2 SWAP1 SWAP2 AND PUSH1 0x60 DUP5 ADD MSTORE PUSH1 0x80 DUP4 ADD MSTORE PUSH1 0xA0 DUP3 ADD SWAP3 SWAP1 SWAP3 MSTORE PUSH1 0xC0 DUP2 ADD SWAP2 SWAP1 SWAP2 MSTORE PUSH1 0xE0 ADD SWAP1 JUMP JUMPDEST PUSH1 0x1 PUSH1 0x1 PUSH1 0xA0 SHL SUB SWAP4 DUP5 AND DUP2 MSTORE SWAP2 SWAP1 SWAP3 AND PUSH1 0x20 DUP3 ADD MSTORE PUSH1 0x40 DUP2 ADD SWAP2 SWAP1 SWAP2 MSTORE PUSH1 0x60 ADD SWAP1 JUMP JUMPDEST PUSH1 0x1 PUSH1 0x1 PUSH1 0xA0 SHL SUB SWAP3 SWAP1 SWAP3 AND DUP3 MSTORE PUSH1 0x20 DUP3 ADD MSTORE PUSH1 0x40 ADD SWAP1 JUMP JUMPDEST PUSH1 0x0 PUSH1 0x40 DUP3 MSTORE PUSH2 0x5B0B PUSH1 0x40 DUP4 ADD DUP6 PUSH2 0x59C5 JUMP JUMPDEST DUP3 DUP2 SUB PUSH1 0x20 DUP5 ADD MSTORE PUSH2 0xF88 DUP2 DUP6 PUSH2 0x59C5 JUMP JUMPDEST SWAP1 DUP2 MSTORE PUSH1 0x20 ADD SWAP1 JUMP JUMPDEST PUSH1 0x20 DUP1 DUP3 MSTORE PUSH1 0xB SWAP1 DUP3 ADD MSTORE PUSH11 0x4554482042616C616E6365 PUSH1 0xA8 SHL PUSH1 0x40 DUP3 ADD MSTORE PUSH1 0x60 ADD SWAP1 JUMP JUMPDEST PUSH1 0x20 DUP1 DUP3 MSTORE PUSH1 0x11 SWAP1 DUP3 ADD MSTORE PUSH17 0x9AC2E8EAE4D2E8F2409AD2E6DAC2E8C6D PUSH1 0x7B SHL PUSH1 0x40 DUP3 ADD MSTORE PUSH1 0x60 ADD SWAP1 JUMP JUMPDEST PUSH1 0x20 DUP1 DUP3 MSTORE PUSH1 0xB SWAP1 DUP3 ADD MSTORE PUSH11 0x4D75737420536574746C65 PUSH1 0xA8 SHL PUSH1 0x40 DUP3 ADD MSTORE PUSH1 0x60 ADD SWAP1 JUMP JUMPDEST PUSH1 0x20 DUP1 DUP3 MSTORE PUSH1 0xC SWAP1 DUP3 ADD MSTORE PUSH12 0x4D6178204361706163697479 PUSH1 0xA0 SHL PUSH1 0x40 DUP3 ADD MSTORE PUSH1 0x60 ADD SWAP1 JUMP JUMPDEST PUSH1 0x20 DUP1 DUP3 MSTORE PUSH1 0xA SWAP1 DUP3 ADD MSTORE PUSH10 0x6D696E20626F72726F77 PUSH1 0xB0 SHL PUSH1 0x40 DUP3 ADD MSTORE PUSH1 0x60 ADD SWAP1 JUMP JUMPDEST PUSH1 0x20 DUP1 DUP3 MSTORE PUSH1 0xA SWAP1 DUP3 ADD MSTORE PUSH10 0x4D696E20426F72726F77 PUSH1 0xB0 SHL PUSH1 0x40 DUP3 ADD MSTORE PUSH1 0x60 ADD SWAP1 JUMP JUMPDEST PUSH2 0xFFFF SWAP4 SWAP1 SWAP4 AND DUP4 MSTORE PUSH1 0x20 DUP4 ADD SWAP2 SWAP1 SWAP2 MSTORE PUSH1 0x40 DUP3 ADD MSTORE PUSH1 0x60 ADD SWAP1 JUMP JUMPDEST PUSH1 0x0 PUSH2 0x3E0 DUP3 ADD SWAP1 POP PUSH2 0xFFFF DUP8 AND DUP3 MSTORE DUP6 MLOAD PUSH1 0x20 DUP4 ADD MSTORE PUSH1 0x20 DUP7 ADD MLOAD PUSH1 0x40 DUP4 ADD MSTORE PUSH1 0x40 DUP7 ADD MLOAD PUSH1 0x60 DUP4 ADD MSTORE PUSH1 0x1 DUP1 PUSH1 0xA0 SHL SUB PUSH1 0x60 DUP8 ADD MLOAD AND PUSH1 0x80 DUP4 ADD MSTORE PUSH1 0x80 DUP7 ADD MLOAD PUSH1 0xA0 DUP4 ADD MSTORE PUSH1 0xA0 DUP7 ADD MLOAD PUSH1 0xC0 DUP4 ADD MSTORE PUSH2 0x5C84 PUSH1 0xE0 DUP4 ADD DUP7 MLOAD PUSH2 0x596E JUMP JUMPDEST PUSH1 0x20 DUP6 ADD MLOAD PUSH2 0x100 PUSH2 0x5C98 DUP2 DUP6 ADD DUP4 PUSH2 0x5A40 JUMP JUMPDEST PUSH1 0x40 DUP8 ADD MLOAD SWAP2 POP PUSH2 0x120 PUSH2 0x5CAE DUP2 DUP7 ADD DUP5 PUSH2 0x5A40 JUMP JUMPDEST PUSH1 0x60 DUP9 ADD MLOAD SWAP3 POP PUSH2 0x140 DUP4 DUP2 DUP8 ADD MSTORE PUSH1 0x80 DUP10 ADD MLOAD SWAP4 POP PUSH2 0x160 DUP5 DUP2 DUP9 ADD MSTORE PUSH1 0xA0 DUP11 ADD MLOAD SWAP5 POP PUSH2 0x180 DUP6 DUP2 DUP10 ADD MSTORE PUSH1 0xC0 DUP12 ADD MLOAD SWAP6 POP PUSH2 0x1A0 DUP7 DUP2 DUP11 ADD MSTORE PUSH1 0xE0 DUP13 ADD MLOAD SWAP7 POP PUSH2 0x1C0 DUP8 DUP2 DUP12 ADD MSTORE DUP7 DUP14 ADD MLOAD PUSH2 0x1E0 DUP12 ADD MSTORE DUP6 DUP14 ADD MLOAD PUSH2 0x200 DUP12 ADD MSTORE DUP5 DUP14 ADD MLOAD SWAP8 POP PUSH2 0x5D21 PUSH2 0x220 DUP12 ADD DUP10 PUSH2 0x599E JUMP JUMPDEST DUP4 DUP14 ADD MLOAD SWAP8 POP PUSH2 0x5D35 PUSH2 0x260 DUP12 ADD DUP10 PUSH2 0x59FF JUMP JUMPDEST DUP3 DUP14 ADD MLOAD PUSH2 0x2C0 DUP12 ADD MSTORE DUP2 DUP14 ADD MLOAD SWAP8 POP PUSH2 0x5D53 PUSH2 0x2E0 DUP12 ADD DUP10 PUSH2 0x597B JUMP JUMPDEST DUP1 DUP14 ADD MLOAD PUSH2 0x320 DUP12 ADD MSTORE POP POP POP POP POP POP POP POP PUSH2 0x5D73 PUSH2 0x340 DUP4 ADD DUP6 PUSH2 0x5A18 JUMP JUMPDEST DUP3 PUSH2 0x3C0 DUP4 ADD MSTORE SWAP7 SWAP6 POP POP POP POP POP POP JUMP JUMPDEST SWAP2 DUP3 MSTORE PUSH1 0x20 DUP3 ADD MSTORE PUSH1 0x40 ADD SWAP1 JUMP JUMPDEST SWAP3 DUP4 MSTORE PUSH1 0x20 DUP4 ADD SWAP2 SWAP1 SWAP2 MSTORE PUSH1 0x40 DUP3 ADD MSTORE PUSH1 0x60 ADD SWAP1 JUMP JUMPDEST SWAP2 DUP3 MSTORE PUSH1 0x1 PUSH1 0x1 PUSH1 0x50 SHL SUB AND PUSH1 0x20 DUP3 ADD MSTORE PUSH1 0x40 ADD SWAP1 JUMP JUMPDEST PUSH1 0x40 MLOAD DUP2 DUP2 ADD PUSH8 0xFFFFFFFFFFFFFFFF DUP2 GT DUP3 DUP3 LT OR ISZERO PUSH2 0x5DDB JUMPI INVALID JUMPDEST PUSH1 0x40 MSTORE SWAP2 SWAP1 POP JUMP JUMPDEST PUSH1 0x0 PUSH8 0xFFFFFFFFFFFFFFFF DUP3 GT ISZERO PUSH2 0x5DF7 JUMPI INVALID JUMPDEST POP PUSH1 0x20 SWAP1 DUP2 MUL ADD SWAP1 JUMP JUMPDEST PUSH1 0x1 PUSH1 0x1 PUSH1 0xA0 SHL SUB DUP2 AND DUP2 EQ PUSH2 0x5E16 JUMPI PUSH1 0x0 DUP1 REVERT JUMPDEST POP JUMP INVALID 0x4A CODECOPY 0xDC MOD 0xD4 0xC0 0xDB 0xC6 0x4B PUSH17 0xAF90FD698A233A518AA5D07E595D983B8C SDIV 0x26 0xC8 0xF7 0xFB 0xC3 0xD5 DUP2 PUSH9 0xC5AE7397731D063D5B 0xBF RETURNDATASIZE PUSH6 0x7854427343F4 0xC0 DUP4 0x24 0xF PUSH27 0xACAA2D0F62A26469706673582212205A48AD24C8D232EE61C8466C 0xFC DUP3 MULMOD PUSH9 0x9C845D17CBA5E36FC1 0xE1 0x5D LOG3 0xC0 0xFC 0x4C 0x4A PUSH5 0x736F6C6343 STOP SMOD MOD STOP CALLER ","sha1":"8450fc37ec205ef62be20eee52244881a9a4ae5e","source":"// SPDX-License-Identifier: BSUL-1.1\npragma solidity =0.7.6;\npragma abicoder v2;\n\nimport {\n    Token,\n    VaultState,\n    VaultAccountHealthFactors,\n    VaultConfig,\n    VaultAccount,\n    PrimeRate\n} from \"../../global/Types.sol\";\nimport {Constants} from \"../../global/Constants.sol\";\nimport {SafeUint256} from \"../../math/SafeUint256.sol\";\nimport {SafeInt256} from \"../../math/SafeInt256.sol\";\n\nimport {ActionGuards} from \"./ActionGuards.sol\";\nimport {Emitter} from \"../../internal/Emitter.sol\";\nimport {PrimeRateLib} from \"../../internal/pCash/PrimeRateLib.sol\";\nimport {PrimeCashExchangeRate} from \"../../internal/pCash/PrimeCashExchangeRate.sol\";\nimport {VaultConfiguration} from \"../../internal/vaults/VaultConfiguration.sol\";\nimport {VaultAccountLib} from \"../../internal/vaults/VaultAccount.sol\";\nimport {VaultValuation} from \"../../internal/vaults/VaultValuation.sol\";\nimport {VaultSecondaryBorrow} from \"../../internal/vaults/VaultSecondaryBorrow.sol\";\nimport {VaultStateLib} from \"../../internal/vaults/VaultState.sol\";\nimport {TokenHandler} from \"../../internal/balances/TokenHandler.sol\";\n\nimport {SettleAssetsExternal} from \"../SettleAssetsExternal.sol\";\nimport {FreeCollateralExternal} from \"../FreeCollateralExternal.sol\";\n\nimport {\n    IVaultLiquidationAction,\n    IVaultAccountHealth\n} from \"../../../interfaces/notional/IVaultController.sol\";\n\ncontract VaultLiquidationAction is ActionGuards, IVaultLiquidationAction {\n    using VaultConfiguration for VaultConfig;\n    using VaultAccountLib for VaultAccount;\n    using VaultStateLib for VaultState;\n    using PrimeRateLib for PrimeRate;\n    using TokenHandler for Token;\n    using SafeInt256 for int256;\n    using SafeUint256 for uint256;\n\n\n    /// @notice If an account is below the minimum collateral ratio, this method wil deleverage (liquidate)\n    /// that account. `depositAmountPrimeCash` in the borrow currency will be transferred from the liquidator\n    /// and used to offset the account's debt position. The liquidator will receive either vaultShares or\n    /// cash depending.\n    /// @param account the address that will exit the vault\n    /// @param vault the vault to enter\n    /// @param liquidator the address that will receive profits from liquidation\n    /// @param currencyIndex 0 refers to primary borrow, 1 or 2 will refer to one of the secondary\n    /// currencies (if any)\n    /// @param depositUnderlyingInternal amount of underlying to deposit, in 8 decimal underlying precision\n    /// @return vaultSharesToLiquidator amount of vaultShares received from liquidation\n    /// @return depositAmountPrimeCash amount of prime cash deposited from liquidation\n    function deleverageAccount(\n        address account,\n        address vault,\n        address liquidator,\n        uint16 currencyIndex,\n        int256 depositUnderlyingInternal\n    ) external payable nonReentrant override returns (\n        uint256 vaultSharesToLiquidator,\n        int256 depositAmountPrimeCash\n    ) {\n        require(currencyIndex < 3);\n        (\n            VaultConfig memory vaultConfig,\n            VaultAccount memory vaultAccount,\n            VaultState memory vaultState\n        ) = _authenticateDeleverage(account, vault, liquidator);\n\n        PrimeRate memory pr;\n        // Currency Index is validated in this method\n        (\n            depositUnderlyingInternal,\n            vaultSharesToLiquidator,\n            pr\n        ) = IVaultAccountHealth(address(this)).calculateDepositAmountInDeleverage(\n            currencyIndex, vaultAccount, vaultConfig, vaultState, depositUnderlyingInternal\n        );\n        require(depositUnderlyingInternal > 0); // dev: cannot liquidate zero balance\n\n        uint16 currencyId = vaultConfig.borrowCurrencyId;\n        if (currencyIndex == 1) currencyId = vaultConfig.secondaryBorrowCurrencies[0];\n        else if (currencyIndex == 2) currencyId = vaultConfig.secondaryBorrowCurrencies[1];\n\n        Token memory token = TokenHandler.getUnderlyingToken(currencyId);\n        // Excess ETH is returned to the liquidator natively\n        (/* */, depositAmountPrimeCash) = TokenHandler.depositUnderlyingExternal(\n            liquidator, currencyId, token.convertToExternal(depositUnderlyingInternal), pr, false \n        );\n\n        Emitter.emitVaultDeleverageDebt(\n            liquidator, account, vault, currencyId, vaultState.maturity, depositAmountPrimeCash, pr\n        );\n\n        Emitter.emitTransferVaultShares(\n            liquidator, account, vault, vaultConfig.borrowCurrencyId, vaultState.maturity,\n            vaultSharesToLiquidator\n        );\n\n        // Do not skip the min borrow check here\n        vaultAccount.vaultShares = vaultAccount.vaultShares.sub(vaultSharesToLiquidator);\n        if (vaultAccount.maturity == Constants.PRIME_CASH_VAULT_MATURITY) {\n            // Vault account will not incur a cash balance if they are in the prime cash maturity, their debts\n            // will be paid down directly.\n            _reduceAccountDebt(vaultConfig, vaultState, vaultAccount, currencyIndex, depositUnderlyingInternal, true);\n            depositAmountPrimeCash = 0;\n        }\n\n        // Check min borrow in this liquidation method, the deleverage calculation should adhere to the min borrow\n        vaultAccount.setVaultAccountForLiquidation(vaultConfig, currencyIndex, depositAmountPrimeCash, true);\n\n        _transferVaultSharesToLiquidator(\n            liquidator, vaultConfig, vaultSharesToLiquidator, vaultAccount.maturity\n        );\n    }\n\n    /// @notice If an account has a cash balance, a liquidator can purchase the cash and provide\n    /// fCash to the account to reduce it's debt balance.\n    function liquidateVaultCashBalance(\n        address account,\n        address vault,\n        address liquidator,\n        uint256 currencyIndex,\n        int256 fCashDeposit\n    ) external nonReentrant override returns (int256 cashToLiquidator) {\n        (\n            VaultConfig memory vaultConfig,\n            VaultAccount memory vaultAccount,\n            VaultState memory vaultState\n        ) = _authenticateDeleverage(account, vault, liquidator);\n\n        uint16 currencyId;\n        PrimeRate memory pr;\n        int256 fCashBalance;\n        int256 cashBalance;\n\n        if (currencyIndex == 0) {\n            currencyId = vaultConfig.borrowCurrencyId;\n            pr = vaultConfig.primeRate;\n            fCashBalance = vaultAccount.accountDebtUnderlying;\n            cashBalance = vaultAccount.tempCashBalance;\n        } else if (currencyIndex < 3) {\n            (currencyId, pr, fCashBalance, cashBalance) = _getSecondaryCashFactors(\n                vaultConfig, currencyIndex, account\n            );\n        } else {\n            revert(); // dev: invalid currency index\n        }\n\n        {\n            // At this point, the prime rates have already been accrued statefully so using a view method is ok.\n            (int256 fCashRequired, int256 discountFactor) = IVaultAccountHealth(address(this))\n                .getfCashRequiredToLiquidateCash(currencyId, vaultAccount.maturity, cashBalance);\n\n            cashToLiquidator = pr.convertFromUnderlying(fCashDeposit.mulInRatePrecision(discountFactor));\n            if (cashToLiquidator > cashBalance) {\n                // Cap the fCash deposit to the cash balance available at the discount factor\n                fCashDeposit = fCashRequired;\n                cashToLiquidator = cashBalance;\n            }\n        }\n\n        // Cap the fCash deposit to the fcash balance held by the account\n        require(0 < fCashDeposit && fCashDeposit <= fCashBalance.neg());\n\n        _transferCashToVault(\n            vaultAccount, liquidator, vault, currencyId, fCashDeposit, cashToLiquidator\n        );\n\n        // Do not emit the secondary debt event, will be emitted inside _transferCashToVault\n        _reduceAccountDebt(vaultConfig, vaultState, vaultAccount, currencyIndex, fCashDeposit, false);\n        vaultAccount.setVaultAccountForLiquidation(vaultConfig, currencyIndex, cashToLiquidator.neg(), false);\n    }\n\n\n    /// @notice Handles an edge case where vaults that have secondary borrows and have cash in excess of debts\n    /// in one currency but debts in another currency.\n    function liquidateExcessVaultCash(\n        address account,\n        address vault,\n        address liquidator,\n        uint256 excessCashIndex,\n        uint256 debtIndex,\n        uint256 _depositUnderlyingInternal\n    ) external payable nonReentrant override returns (int256 cashToLiquidator) {\n        (\n            VaultConfig memory vaultConfig,\n            VaultAccount memory vaultAccount,\n            /* VaultState memory vaultState */\n        ) = _authenticateDeleverage(account, vault, liquidator);\n\n        // This liquidation is only valid when there are secondary borrows\n        require(vaultConfig.hasSecondaryBorrows());\n        PrimeRate[2] memory primeRates = VaultSecondaryBorrow.getSecondaryPrimeRateStateful(vaultConfig);\n        // All prime rates have accrued statefully at this point, so it is ok to get account health factors which uses\n        // a view method to accrue prime cash -- it will read the values that have already accrued to this block.\n        (VaultAccountHealthFactors memory h, /* */, /* */) =  IVaultAccountHealth(address(this)).getVaultAccountHealthFactors(\n            account, vault\n        );\n        // Validate that there is debt and cash. This ensures that excessCashIndex != debtIndex and\n        // excessCashIndex < 3 and debtIndex < 3. It also validates that the currency indexes are valid\n        // because netDebtOutstanding == 0 for an unused secondary borrow currency.\n        require(0 < h.netDebtOutstanding[excessCashIndex]);\n        require(h.netDebtOutstanding[debtIndex] < 0);\n\n        VaultSecondaryBorrow.ExcessVaultCashFactors memory f = VaultSecondaryBorrow.getLiquidateExcessCashFactors(\n            vaultConfig, primeRates, excessCashIndex, debtIndex\n        );\n\n        int256 depositUnderlyingInternal = _depositUnderlyingInternal.toInt();\n        // Calculation does the following:\n        // excessCashUnderlyingInternal = debtCashInUnderlyingInternal * exchangeRateToExcessCashUnderlying * liquidation bonus\n        // cashToLiquidator = excessCashPR(excessCashUnderlyingInternal)\n        cashToLiquidator = f.excessCashPR.convertFromUnderlying(\n            depositUnderlyingInternal\n                .mul(vaultConfig.excessCashLiquidationBonus)\n                .mul(f.rateDecimals)\n                .div(f.exchangeRate)\n                .div(Constants.PERCENTAGE_DECIMALS)\n        );\n\n        if (h.netDebtOutstanding[excessCashIndex] < cashToLiquidator) {\n            // Limit the deposit to what is held by the account\n            cashToLiquidator = h.netDebtOutstanding[excessCashIndex];\n            // Calculation does the following:\n            // excessCashUnderlyingInternal = excessCashPR(excessPrimeCash)\n            // liquidatorDepositUnderlying = excessCashUnderlyingInternal * exchangeRateToDebtCashUnderlying * liquidationBonus\n            depositUnderlyingInternal = f.excessCashPR.convertToUnderlying(cashToLiquidator)\n                .mul(f.exchangeRate)\n                .mul(Constants.PERCENTAGE_DECIMALS)\n                .div(vaultConfig.excessCashLiquidationBonus)\n                .div(f.rateDecimals);\n        }\n\n        int256 depositAmountPrimeCash = f.debtPR.convertFromUnderlying(depositUnderlyingInternal);\n        int256 netCashToAccount = cashToLiquidator.neg();\n        vaultAccount.setVaultAccountForLiquidation(vaultConfig, excessCashIndex, netCashToAccount, false);\n        vaultAccount.setVaultAccountForLiquidation(vaultConfig, debtIndex, depositAmountPrimeCash, false);\n\n        Emitter.emitTransferPrimeCash(vault, liquidator, f.excessCashCurrencyId, cashToLiquidator);\n        TokenHandler.withdrawPrimeCash(\n            liquidator, liquidator, f.excessCashCurrencyId, netCashToAccount, f.excessCashPR, false\n        );\n        Emitter.emitVaultMintOrBurnCash(account, vault, f.excessCashCurrencyId, vaultAccount.maturity, netCashToAccount);\n\n        // Deposit the debtIndex from the liquidator\n        TokenHandler.depositExactToMintPrimeCash(\n            liquidator, f.debtCurrencyId, depositAmountPrimeCash, f.debtPR, false\n        );\n        Emitter.emitTransferPrimeCash(liquidator, vault, f.debtCurrencyId, depositAmountPrimeCash);\n        Emitter.emitVaultMintOrBurnCash(account, vault, f.debtCurrencyId, vaultAccount.maturity, depositAmountPrimeCash);\n    }\n\n    function _transferCashToVault(\n        VaultAccount memory vaultAccount,\n        address liquidator,\n        address vault,\n        uint16 currencyId,\n        int256 fCashDeposit,\n        int256 cashToLiquidator\n    ) internal {\n        bool mustCheckFC = SettleAssetsExternal.transferCashToVaultLiquidator(\n            liquidator, vault, vaultAccount.account, currencyId, vaultAccount.maturity, fCashDeposit, cashToLiquidator\n        );\n\n        if (mustCheckFC) {\n            FreeCollateralExternal.checkFreeCollateralAndRevert(liquidator);\n        }\n        emit VaultAccountCashLiquidation(\n            vault, vaultAccount.account, liquidator, currencyId, fCashDeposit, cashToLiquidator\n        );\n    }\n\n    /// @notice Authenticates a call to the deleverage method\n    function _authenticateDeleverage(\n        address account,\n        address vault,\n        address liquidator\n    ) private returns (\n        VaultConfig memory vaultConfig,\n        VaultAccount memory vaultAccount,\n        VaultState memory vaultState\n    ) {\n        // Do not allow invalid accounts to liquidate\n        requireValidAccount(liquidator);\n        require(liquidator != vault);\n\n        // Cannot liquidate self, if a vault needs to deleverage itself as a whole it has other methods \n        // in VaultAction to do so.\n        require(account != msg.sender);\n        require(account != liquidator);\n\n        vaultConfig = VaultConfiguration.getVaultConfigStateful(vault);\n        require(vaultConfig.getFlag(VaultConfiguration.DISABLE_DELEVERAGE) == false);\n\n        // Authorization rules for deleveraging\n        if (vaultConfig.getFlag(VaultConfiguration.ONLY_VAULT_DELEVERAGE)) {\n            require(msg.sender == vault);\n        } else {\n            require(msg.sender == liquidator);\n        }\n\n        vaultAccount = VaultAccountLib.getVaultAccount(account, vaultConfig);\n\n        // Vault accounts that are not settled must be settled first by calling settleVaultAccount\n        // before liquidation. settleVaultAccount is not permissioned so anyone may settle the account.\n        require(block.timestamp < vaultAccount.maturity, \"Must Settle\");\n\n        if (vaultAccount.maturity == Constants.PRIME_CASH_VAULT_MATURITY) {\n            // Returns the updated prime vault state\n            vaultState = vaultAccount.accruePrimeCashFeesToDebtInLiquidation(vaultConfig);\n        } else {\n            vaultState = VaultStateLib.getVaultState(vaultConfig, vaultAccount.maturity);\n        }\n    }\n\n    function _reduceAccountDebt(\n        VaultConfig memory vaultConfig,\n        VaultState memory vaultState,\n        VaultAccount memory vaultAccount,\n        uint256 currencyIndex,\n        int256 depositUnderlyingInternal,\n        bool checkMinBorrow\n    ) private {\n        if (currencyIndex == 0) {\n            vaultAccount.updateAccountDebt(vaultState, depositUnderlyingInternal, 0);\n            vaultState.setVaultState(vaultConfig);\n        } else {\n            // Only set one of the prime rates, the other prime rate is not used since\n            // the net debt amount is set to zero\n            PrimeRate[2] memory pr = VaultSecondaryBorrow.getSecondaryPrimeRateStateful(vaultConfig);\n\n            (int256 accountDebtOne, int256 accountDebtTwo) = VaultSecondaryBorrow.updateAccountSecondaryDebt(\n                vaultConfig,\n                vaultAccount.account,\n                vaultAccount.maturity,\n                currencyIndex == 1 ? depositUnderlyingInternal : 0,\n                currencyIndex == 2 ? depositUnderlyingInternal : 0,\n                pr,\n                false,\n                false // do not emit events during liquidation, they are emitted prior\n            );\n\n            // Only check the minimum borrow requirement on the debt that is being liquidated.\n            if (checkMinBorrow) {\n                int256 accountDebt = currencyIndex == 1 ? accountDebtOne : accountDebtTwo;\n                require(\n                    accountDebt == 0 ||\n                    vaultConfig.minAccountSecondaryBorrow[currencyIndex - 1] <= -accountDebt,\n                    \"Min Borrow\"\n                );\n            }\n        }\n    }\n\n    /// @notice Transfers liquidator profits in the form of vault shares to be returned to the liquidator\n    function _transferVaultSharesToLiquidator(\n        address receiver,\n        VaultConfig memory vaultConfig,\n        uint256 vaultSharesToLiquidator,\n        uint256 maturity\n    ) private {\n        // Liquidator will receive vault shares that they can redeem by calling exitVault. If the liquidator has a\n        // leveraged position on then their collateral ratio will increase\n        VaultAccount memory liquidator = VaultAccountLib.getVaultAccount(receiver, vaultConfig);\n        // The liquidator must be able to receive the vault shares (i.e. not be in the vault at all or be in the\n        // vault at the same maturity). If the liquidator has fCash in the current maturity then their collateral\n        // ratio will increase as a result of the liquidation, no need to check their collateral position.\n        require(liquidator.maturity == 0 || liquidator.maturity == maturity, \"Maturity Mismatch\"); // dev: has vault shares\n        liquidator.maturity = maturity;\n        liquidator.vaultShares = liquidator.vaultShares.add(vaultSharesToLiquidator);\n        liquidator.setVaultAccount({vaultConfig: vaultConfig, checkMinBorrow: true, emitEvents: false});\n    }\n\n    function _getSecondaryCashFactors(\n        VaultConfig memory vaultConfig,\n        uint256 currencyIndex,\n        address account\n    ) private returns (uint16 currencyId, PrimeRate memory pr, int256 fCashBalance, int256 cashBalance) {\n        PrimeRate[2] memory primeRates = VaultSecondaryBorrow.getSecondaryPrimeRateStateful(vaultConfig);\n        (/* */, int256 debtOne, int256 debtTwo) = VaultSecondaryBorrow.getAccountSecondaryDebt(vaultConfig, account, primeRates);\n\n        // Cash balances refer to cash held on the account against debt, not prime cash balances held by the vault.\n        // Those are included in the vault share value.\n        (int256 cashOne, int256 cashTwo) = VaultSecondaryBorrow.getSecondaryCashHeld(account, vaultConfig.vault);\n\n        currencyId = vaultConfig.secondaryBorrowCurrencies[currencyIndex - 1];\n        pr = primeRates[currencyIndex - 1];\n        // Return the correct pair of debt and cash balances\n        (fCashBalance, cashBalance) = currencyIndex == 1 ? (debtOne, cashOne) : (debtTwo, cashTwo);\n    }\n\n    function getLibInfo() external pure returns (address, address) {\n        return (address(FreeCollateralExternal), address(SettleAssetsExternal));\n    }\n}","sourcePath":"contracts/external/actions/VaultLiquidationAction.sol","type":"contract","deployment":{"address":"0xC1BD497e6C318124D96f45890Dc11769088564eC","chainid":"42161","blockHeight":182818786}}