{"abi":[{"inputs":[{"internalType":"address","name":"account","type":"address"},{"internalType":"address","name":"vault","type":"address"},{"internalType":"uint256","name":"depositAmountExternal","type":"uint256"},{"internalType":"uint256","name":"maturity","type":"uint256"},{"internalType":"uint256","name":"borrowAmount","type":"uint256"},{"internalType":"uint32","name":"maxBorrowRate","type":"uint32"},{"internalType":"bytes","name":"vaultData","type":"bytes"}],"name":"enterVault","outputs":[{"internalType":"uint256","name":"vaultSharesAdded","type":"uint256"}],"stateMutability":"payable","type":"function"},{"inputs":[{"internalType":"address","name":"account","type":"address"},{"internalType":"address","name":"vault","type":"address"},{"internalType":"address","name":"receiver","type":"address"},{"internalType":"uint256","name":"vaultSharesToRedeem","type":"uint256"},{"internalType":"uint256","name":"lendAmount","type":"uint256"},{"internalType":"uint32","name":"minLendRate","type":"uint32"},{"internalType":"bytes","name":"exitVaultData","type":"bytes"}],"name":"exitVault","outputs":[{"internalType":"uint256","name":"underlyingToReceiver","type":"uint256"}],"stateMutability":"payable","type":"function"},{"inputs":[],"name":"getLibInfo","outputs":[{"internalType":"address","name":"","type":"address"}],"stateMutability":"pure","type":"function"},{"inputs":[],"name":"owner","outputs":[{"internalType":"address","name":"","type":"address"}],"stateMutability":"view","type":"function"},{"inputs":[],"name":"pauseGuardian","outputs":[{"internalType":"address","name":"","type":"address"}],"stateMutability":"view","type":"function"},{"inputs":[],"name":"pauseRouter","outputs":[{"internalType":"address","name":"","type":"address"}],"stateMutability":"view","type":"function"},{"inputs":[{"internalType":"address","name":"account","type":"address"},{"internalType":"address","name":"vault","type":"address"},{"internalType":"uint256","name":"newBorrowAmount","type":"uint256"},{"internalType":"uint256","name":"maturity","type":"uint256"},{"internalType":"uint256","name":"depositAmountExternal","type":"uint256"},{"internalType":"uint32","name":"minLendRate","type":"uint32"},{"internalType":"uint32","name":"maxBorrowRate","type":"uint32"},{"internalType":"bytes","name":"enterVaultData","type":"bytes"}],"name":"rollVaultPosition","outputs":[{"internalType":"uint256","name":"vaultSharesAdded","type":"uint256"}],"stateMutability":"payable","type":"function"},{"inputs":[{"internalType":"address","name":"account","type":"address"},{"internalType":"address","name":"vault","type":"address"}],"name":"settleVaultAccount","outputs":[],"stateMutability":"nonpayable","type":"function"}],"bytecode":"608060405234801561001057600080fd5b50615f9d80620000216000396000f3fe60806040526004361061007b5760003560e01c80638da5cb5b1161004e5780638da5cb5b146100f357806395c1a20214610108578063c4c96dae1461011b578063eec51108146101305761007b565b806324a3d62214610080578063653b6104146100ab5780636ce48f01146100cb57806382463367146100de575b600080fd5b34801561008c57600080fd5b50610095610152565b6040516100a29190615c70565b60405180910390f35b6100be6100b9366004615a1b565b610161565b6040516100a29190615e89565b6100be6100d9366004615925565b6102fd565b3480156100ea57600080fd5b506100956104f2565b3480156100ff57600080fd5b50610095610501565b6100be6101163660046159c2565b610518565b34801561012757600080fd5b50610095610666565b34801561013c57600080fd5b5061015061014b3660046158ed565b61067e565b005b6002546001600160a01b031681565b60006002600a54141561017357600080fd5b6002600a5560006101838a610709565b9050610191818c6010610734565b61019c816080610778565b156101a7576001600a555b60006101b38c8361078f565b90506101bf818361083e565b506101cb826001610778565b6101d457600080fd5b6101df826002610778565b6101e857600080fd5b60008a116101f557600080fd5b888160200151141561020657600080fd5b88421061021257600080fd5b60006102228383602001516108a5565b60408301519450905061023781838587610930565b610254838261024985600001516109db565b859291908c426109f1565b81511561026057600080fd5b61026a8184610acc565b61027583838b610b78565b61028582848c8e8b8b8b8b610bd6565b9350306001600160a01b031663c9384f268d8f6040518363ffffffff1660e01b81526004016102b5929190615c84565b600060405180830381600087803b1580156102cf57600080fd5b505af11580156102e3573d6000803e3d6000fd5b50506001600a5550939d9c50505050505050505050505050565b60006002600a54141561030f57600080fd5b6002600a55600061031f89610709565b905061032d818b6008610734565b610338816080610778565b15610343576001600a555b600061034f8b8361078f565b905042603c8260a0015101111561036557600080fd5b61036f818361083e565b5060006103808383602001516108a5565b602083015190915064ffffffffff14801561039c575060001988145b156103b9576103b66103b183600001516109db565b610c77565b97505b6103d283826103c78b610c8a565b859291908b426109f1565b6103de8183858c610930565b600082608001511315610424576103ff8b8b85604001518560800151610ca0565b61041a8a846040015184608001518661016001516000610d46565b6000608084015293505b61043c61043584848d8d8b8b610d79565b8590610e93565b93506104488184610acc565b815115801561045957506040820151155b1561046657600060208301525b6104738284600180610eac565b6020820151156104de57306001600160a01b031663c9384f268c8e6040518363ffffffff1660e01b81526004016104ab929190615c84565b600060405180830381600087803b1580156104c557600080fd5b505af11580156104d9573d6000803e3d6000fd5b505050505b50506001600a555098975050505050505050565b6001546001600160a01b031681565b60005464010000000090046001600160a01b031681565b60006002600a54141561052a57600080fd5b6002600a5561053889610f3c565b876001600160a01b0316896001600160a01b0316141561055757600080fd5b600061056289610709565b9050610570818b6004610734565b61057b816080610778565b15610586576001600a555b610591816001610778565b61059a57600080fd5b8642106105a657600080fd5b60006105b28b8361078f565b90506105be818361083e565b50602081015115806105d35750878160200151145b6105dc57600080fd5b6105e782828b610b78565b6105f881838a8a8a8a8a6000610bd6565b60405163649c279360e11b8152909350309063c9384f2690610620908d908f90600401615c84565b600060405180830381600087803b15801561063a57600080fd5b505af115801561064e573d6000803e3d6000fd5b50506001600a5550929b9a5050505050505050505050565b73__TradingAction_________________________90565b6002600a54141561068e57600080fd5b6002600a5561069c82610f3c565b806001600160a01b0316826001600160a01b031614156106bb57600080fd5b60006106c682610709565b905060006106d4848361078f565b90506106e08183610fbb565b6106e957600080fd5b6106f38183611178565b506106fe81836111f0565b50506001600a555050565b610711615527565b61071a826112c7565b905061072981604001516114b5565b610160820152919050565b61073e8382610778565b1561075e5782516001600160a01b0316331461075957600080fd5b610773565b6001600160a01b038216331461077357600080fd5b505050565b602082015161ffff80831691831616145b92915050565b6107976155c0565b60006107a16114c7565b6001600160a01b038086166000818152602084815260408083208951909516835293815290839020805464ffffffffff600160a01b8204169288018390526001600160501b03600160501b8204811695890195909552606088019390935260018101548416608088015263ffffffff600160c81b84041660a088015261016088015194955093610833939092166114d4565b835250909392505050565b600061084a8383610fbb565b9050801580156108625750602083015164ffffffffff145b156107895761089e8361088f61088a866000015186610160015161151290919063ffffffff16565b6109db565b6020860151859291904261153a565b5092915050565b6108ad6155ff565b60006108b7611603565b84516001600160a01b031660009081526020828152604080832087845290915290819020858552805460ff600160f01b820416151560608701526001600160501b03600160a01b820481169387019390935261016088015193945090926109229290918791166114d4565b602084015250909392505050565b835160208401511461094157600080fd5b600061094b611603565b83516001600160a01b0316600090815260208281526040808320895184529091529081902090870151919250906109829084611610565b6040808801919091528501516109989084611610565b8560400181815250506109ae8660400151611625565b81546001600160501b0391909116600160a01b02600160a01b600160f01b03199091161790555050505050565b60006109e96000198361163b565b90505b919050565b826109fb57610ac4565b8551600090610a0a9085611689565b1315610a1557600080fd5b85602001518110610a2557600080fd5b602086015160009064ffffffffff14610a5b57610a5886604001518760000151896020015187878b61010001518861169f565b90505b80610aa857610160860151610a749061088a9086611512565b602088015190915064ffffffffff14610aa857610aa8866000015187604001518960200151610aa2856109db565b886117ad565b6000811315610ab657600080fd5b610ac287868684611891565b505b505050505050565b6000610ad6611603565b82516001600160a01b031660009081526020828152604080832087518452909152908190209085015191925090610b0c90611625565b81546060860151801515600160f01b0260ff60f01b196001600160501b0394909416600160a01b02600160a01b600160f01b03199093169290921792909216178255610160840151604085015186516020880151610b72948694938993909290916118fc565b50505050565b6000610b9d83606001518560400151610b9085610c8a565b87610160015160006119db565b6080850151909250610bb0915082611689565b60808401526000811315610b7257610b7283606001518560000151866040015184610ca0565b60008689602001511480610be957508851155b610bf257600080fd5b6000610bfe89896108a5565b90508615610c2457610c1f8a8a838b610c1961088a8d610c8a565b8b611aa6565b610c47565b64ffffffffff8814610c4757610c458960400151898b610100015142611b51565b505b610c55818b8b868989611b9a565b4260a08c01529150610c6a8a8a600180610eac565b5098975050505050505050565b600080821215610c8657600080fd5b5090565b60006001600160ff1b03821115610c8657600080fd5b6000610caa611c43565b61ffff8416600090815260209190915260408120546001600160a01b03169150821215610cd5579293925b806001600160a01b03166323de66518686610cef86611c50565b6040518463ffffffff1660e01b8152600401610d0d93929190615c9e565b600060405180830381600087803b158015610d2757600080fd5b505af1158015610d3b573d6000803e3d6000fd5b505050505050505050565b600080610d5e8787610d57886109db565b8787611c71565b9050610d6c6103b1826109db565b9150505b95945050505050565b600080600080610d908a6040015161ffff16611d19565b9050600089608001511215610dd7576000610dc061088a8b608001518d6101600151611d2c90919063ffffffff16565b9050610dcf6103b18383611d58565b925050610de6565b608089015115610de657600080fd5b610dff8a828b606001518b8b8e60200151888d8d611d95565b50945092505080821015610e6f5760008282039050600080610e3a8b606001518d60400151610e2d86610c8a565b8f610160015160006119db565b91509150610e51610e4a83610c77565b8690610e93565b9450610e6b8b606001518d600001518e6040015184610ca0565b5050505b80821015610e7c57600080fd5b600088608001818152505050509695505050505050565b600082820183811015610ea557600080fd5b9392505050565b6000610eb66114c7565b60608601516001600160a01b039081166000908152602083815260408083208951909416835292905220909150610ef08686838787611eb5565b6001810180546001600160501b03191690819055600160501b90046001600160501b0316158015610f3357506001810154600160a01b90046001600160501b0316155b610ac457600080fd5b6001600160a01b038116610f4f57600080fd5b6001600160a01b038116610fee1415610f6757600080fd5b6001600160a01b0381166105e71415610f7f57600080fd5b6001600160a01b038116301415610f9557600080fd5b6000610fa082612123565b5050505061ffff16905080600014610fb757600080fd5b5050565b6000826020015160001480610fd35750826020015142105b15610fe057506000610789565b6000610ff08385602001516108a5565b90506000610ffc611603565b84516001600160a01b031660009081526020918252604080822064ffffffffff83529092522060608301519091506110635761104b81856000015186604001518560000151866020015161218f565b60006020830152600160608301526110638285610acc565b61106f828686846121f8565b6110788461230a565b156110d85783516060860151604051634140f63560e11b81523092638281ec6a926110a592600401615c84565b600060405180830381600087803b1580156110bf57600080fd5b505af11580156110d3573d6000803e3d6000fd5b505050505b60006110f38560400151876020015188600001516000612333565b905061111485610160015183876040015188600001518a6080015186612378565b608088015260208701805160a089015264ffffffffff905261016086015190915061113f9082612441565b80875261016086015161116b91889161115c9161088a9190611512565b87919064ffffffffff4261153a565b5060019695505050505050565b6111806155ff565b602083015164ffffffffff1461119557600080fd5b6111a48264ffffffffff6108a5565b90506000836080015112156111e6576111e683826111d48660800151866101600151611d2c90919063ffffffff16565b6111e187608001516109db565b611891565b6107898183610acc565b608082018051600091829052906112056114c7565b60608501516001600160a01b0390811660009081526020838152604080832088519094168352929052908120919250611245908690869084906001611eb5565b82611261576001810180546001600160501b03191690556112c0565b82600012156112c05761127b61127684610c77565b611625565b8160010160006101000a8154816001600160501b0302191690836001600160501b031602179055506112c0856060015185600001518660400151886020015187612492565b5050505050565b6112cf615527565b60006112d9612528565b6001600160a01b03841660008181526020838152604091829020928652825461ffff808216928801929092526201000090041690850152909150611335612710633b9aca008354600160501b900460ff16919005600502612535565b6080840152805461135490600160401b900461ffff16620186a0612535565b60a0840152805461137390600160701b900461ffff16620186a0612535565b610120840152600281015461138f9061ffff16620186a0612535565b610180840152805460649060ff600160581b90910416633b9aca00020560c08401528054600160601b810460ff90811660e0860152600160681b909104166101008401526040805180820191829052906001830190600290826000855b82829054906101000a900461ffff1661ffff16815260200190600201906020826001010492830192600103820291508084116113ec57505050505061014085019190915250600481015460ff166101c0840152805461145890640100000000900463ffffffff1661255c565b606084015261148e6003820160005b600891828204019190066004029054906101000a900463ffffffff1663ffffffff1661255c565b6101a0840151526114a3600382016001611467565b6101a084015160200152509092915050565b6114bd615629565b6109e9824261256a565b600080610789601661262b565b600064ffffffffff83146114f457816001600160501b031660000361150a565b61150a846001600160501b038416600003612441565b949350505050565b8151600090610ea590611534846ec097ce7bc90715b34b9f100000000061163b565b90612644565b60006115498686868686612675565b9050600061156960646115348960e001518561163b90919063ffffffff16565b90506000611577838361270b565b9050611587886040015183612721565b611595886040015182612758565b64ffffffffff8514156115cd576115cd88600001518960400151856115c8878d610160015161279c90919063ffffffff16565b6127d5565b6115e18860000151896040015183856128e9565b60808701516115f0908461270b565b6080909701969096525095945050505050565b600080610789601561262b565b60008282111561161f57600080fd5b50900390565b60006001600160501b03821115610c8657600080fd5b81810260001983141561166b5781158061165d57508282828161165a57fe5b05145b61166657600080fd5b610789565b82158061168057508183828161167d57fe5b05145b61078957600080fd5b8181018281121560008312151461078957600080fd5b6000806116ae89888686611b51565b905060006116bb87611c50565b90506001600160581b0381106116d057600080fd5b600060788763ffffffff16901b609883901b60f085901b60f860008c136116f85760016116fb565b60005b600581111561170657fe5b60ff16901b17171760001b905073__TradingAction_________________________63715e90028c8c846040518463ffffffff1660e01b815260040161174e93929190615e64565b60206040518083038186803b15801561176657600080fd5b505af415801561177a573d6000803e3d6000fd5b505050506040513d601f19601f8201168201806040525081019061179e9190615bd1565b9b9a5050505050505050505050565b60006117b76129d9565b61ffff861660009081526020828152604080832088845290915290208054919250906118009061127690600160501b90046001600160501b03166117fa86610c77565b90610e93565b815469ffffffffffffffffffff60501b1916600160501b6001600160501b0392831602178083556118409161127691600160a01b9004166117fa87610c77565b81546001600160501b0391909116600160a01b02600160a01b600160f01b0319909116178155611874876105e78887610ca0565b6118826105e78787866129e6565b610ac26105e788888887612a5e565b82516020850151146118a9578351156118a957600080fd5b60808401516118b89082611689565b608085015283516118c99083611689565b808552600012156118d957600080fd5b60208301516118e89083611689565b6020840181905260001215610b7257600080fd5b86546001600160501b0316600090810390611918888686612ac9565b90506119296112766103b1836109db565b89546001600160501b0319166001600160501b039190911617895560006119508383612ae7565b9050600064ffffffffff871415611977578851611970908b908a85612b6e565b50846119ae565b846119ae57885161198b9089898787612b9b565b88516119a0908961199b856109db565b612c5b565b6119ab898b8a612d31565b90505b6000821380156119bc575084155b156119ce5788516119ce908983612dd7565b5050505050505050505050565b60008060006119e986610c77565b9050806119fd576000809250925050611a9c565b6000611a0c8861ffff16611d19565b9050600381606001516005811115611a2057fe5b1415611a705734821015611a4057611a3b8983340387612e53565b611a68565b348214611a685760405162461bcd60e51b8152600401611a5f90615dce565b60405180910390fd5b869350611a8a565b611a87611a8282600001518b85612f16565b610c8a565b93505b611a97898986848a61309e565b925050505b9550959350505050565b60008212611ab357600080fd5b600064ffffffffff841415611add57610160860151611ad69061088a9085611512565b9050611b0a565b611af9866040015187600001518686868b61010001514261169f565b9050611b08868883874261153a565b505b60008113611b1757600080fd5b611b2387868584611891565b8651611b2e906109db565b86606001511315610ac25760405162461bcd60e51b8152600401611a5f90615e40565b6000806000611b638761ffff166130e5565b9050611b738160ff1687866130fb565b909350915084831115611b8557600080fd5b8115611b9057600080fd5b5050949350505050565b60008086608001511215611bad57600080fd5b8651602087015114611bd457604086015115611bc857600080fd5b86516020870152611be5565b8651602087015114611be557600080fd5b611bf18787878761318a565b606086015160808701518851600092611c0d92899288886131f2565b600060808901529050611c228888888461318a565b611c2c8582610e93565b9150611c388887610acc565b509695505050505050565b600080610789602161262b565b600080821215611c6a57611c63826109db565b90506109ec565b50806109ec565b600083611c8057506000610d70565b60008412611c8d57600080fd5b6000611c9c8661ffff16611d19565b9050611cb181611cac8688611d2c565b61329a565b91506000611cbe836109db565b9050611ccb8783836132d2565b600382606001516005811115611cdd57fe5b1415611cf357611cee888286612e53565b611d00565b8151611d009089836133c0565b611d0d888885858961309e565b50505095945050505050565b611d2161564a565b6109e9826001613437565b6000610ea56ec097ce7bc90715b34b9f100000000061153485600001518561163b90919063ffffffff16565b60006305f5e10083604001511215611d8657611d7f6001611d79858561329a565b90611689565b9050610789565b610ea583611cac846001611689565b6000808080611da48c306134d1565b8d5160405163089e0a2160e31b81529192506001600160a01b0316906344f0510890611de0908e908e908e908e908e908e908e90600401615ceb565b602060405180830381600087803b158015611dfa57600080fd5b505af1158015611e0e573d6000803e3d6000fd5b505050506040513d601f19601f82011682018060405250810190611e329190615bd1565b92506000611e408d306134d1565b9050611e4c8183611610565b9450611e5d8d60000151838361357b565b50506000611e74611e6d85610c8a565b8d906135f8565b6101608e0151909150611e879082611512565b9150611e988d604001518383613628565b611ea58d8d8c868661372c565b5099509950999650505050505050565b608085015115611ec457600080fd5b60608401518551611ed4906109db565b128015611ede5750815b15611f125784511580611ef657506001856040015111155b611f125760405162461bcd60e51b8152600401611a5f90615e40565b611f1b8461230a565b15611fba576000611f2a61377c565b60608701516001600160a01b03908116600090815260209283526040808220895190931682529183522080549188015190925064ffffffffff90911690811480611f72575080155b611f7b57600080fd5b80611fb7578154600160281b90046001600160501b0316158015611fae57508154600160781b90046001600160501b0316155b611fb757600080fd5b50505b6000611fda6103b161088a87610160015189602001518a60000151612ac9565b90508115612063576040805160e08101825285546001600160501b038082168352600160501b80830482166020850152600160a01b80840464ffffffffff1695850195909552600160c81b90920463ffffffff16606084015260018801548082166080850152918204811660a084015292900490911660c0820152612063908790879084613789565b6120708660400151611625565b84546001600160501b0391909116600160501b0269ffffffffffffffffffff60501b1990911617845560208601516120a790613c6f565b845464ffffffffff91909116600160a01b0264ffffffffff60a01b1990911617845560a08601516120d790613c83565b845463ffffffff91909116600160c81b0263ffffffff60c81b1990911617845561210081611625565b84546001600160501b0319166001600160501b0391909116179093555050505050565b600080600080600080612134613c96565b6001600160a01b039097166000908152602097909752505060409094205461ffff81169563ffffffff620100008304811696506601000000000000830416945060ff600160501b8304169350600160581b90910460d01b9150565b600061219d84848488612333565b86549091506001600160501b031660006121b7828461270b565b90506121c561127682610c77565b88546001600160501b0319166001600160501b03919091161788556121ee878761199b876109db565b5050505050505050565b6000612205836040610778565b1561229f578251606085015160408087015188519151631de7e96360e21b81526001600160a01b039094169363779fa58c9361224693909291600401615d4f565b602060405180830381600087803b15801561226057600080fd5b505af1158015612274573d6000803e3d6000fd5b505050506040513d601f19601f820116820180604052508101906122989190615bd1565b90506122a6565b5060408301515b6122b68585858760400151610930565b6040840181905281546122dd9061127690600160a01b90046001600160501b031683610e93565b82546001600160501b0391909116600160a01b02600160a01b600160f01b03199091161790915550505050565b6101408101515160009061ffff161515806109e957505061014001516020015161ffff16151590565b60008060006123428787613ca3565b915091508061235057600080fd5b61235a8286613d36565b92506001600160a01b03841615611b9057611b908488888887613d92565b8060008084131561243657600061239c61239561088a8b88611d2c565b8a90613d36565b90506000848212156123d6575060009250836123cf6123c861088a6123c1858561270b565b8d90612441565b8b90611512565b92506123e5565b50806123e2858261270b565b93505b6123f18a888a84612b6e565b88546001600160501b031660006124088284611689565b905061241661127682610c77565b8b546001600160501b0319166001600160501b0391909116178b55505050505b965096945050505050565b60006001821261245057600080fd5b8161245d57506000610789565b610ea5600161248c6ec097ce7bc90715b34b9f100000000061153487602001518761163b90919063ffffffff16565b9061270b565b8061249c576112c0565b60006124ab858585600b613e65565b905060008060008412156124c4575086905060006124cb565b5060009050865b60006124d685611c50565b9050816001600160a01b0316836001600160a01b0316336001600160a01b0316600080516020615f488339815191528785604051612515929190615e92565b60405180910390a4505050505050505050565b600080610789601461262b565b60008261254457506000610789565b8282028284828161255157fe5b0414610ea557600080fd5b600881901c60ff9091161b90565b612572615629565b600061257d84613e9b565b905082816000015110156125bc5760008061259786613f63565b90506125a586848388613fe0565b90935091506125b5868385614084565b50506125c9565b805183146125c957600080fd5b60405180606001604052806125f2611a828460a001518560c0015161253590919063ffffffff16565b8152602001612615611a828460a001518560e0015161253590919063ffffffff16565b8152602001826060015181525091505092915050565b6000620f424082602681111561263d57fe5b0192915050565b60008160001914801561265a5750600160ff1b83145b1561266457600080fd5b81838161266d57fe5b059392505050565b60008064ffffffffff8414156126c757602086015164ffffffffff1461269f576000915050610d70565b6126b9611a828760a001518561161090919063ffffffff16565b60a0870184905290506126d7565b6126d4611a828585611610565b90505b60808701516000906126f3906301da9c0090611534908561163b565b90506126ff86826142b5565b98975050505050505050565b8082038281131560008312151461078957600080fd5b600081121561272f57600080fd5b600061273d610fee846142ce565b90506127498183611689565b9050610773610fee8483614327565b600081121561276657600080fd5b60006127758361ffff1661439b565b9050600061278382856142ce565b905061278f8184611689565b9050610b72828583614327565b6000808212156127cf576127ca600161248c856020015161153487600001518761163b90919063ffffffff16565b610ea5565b50919050565b60006127df611c43565b61ffff8516600090815260209190915260408120546001600160a01b031691506128076143c1565b61ffff8616600090815260209190915260409081902054905163ad1c095d60e01b81526001600160a01b039091169150819063ad1c095d9061284f9089908790600401615d36565b600060405180830381600087803b15801561286957600080fd5b505af115801561287d573d6000803e3d6000fd5b505060405163ad1c095d60e01b81526001600160a01b038516925063ad1c095d91506128af9089908890600401615d36565b600060405180830381600087803b1580156128c957600080fd5b505af11580156128dd573d6000803e3d6000fd5b50505050505050505050565b60006128f3611c43565b61ffff8516600090815260209190915260408120546001600160a01b0316915061291b6143ce565b61ffff8616600090815260209190915260409020546001600160a01b03908116915082166323de665187610fee61295187610c77565b6040518463ffffffff1660e01b815260040161296f93929190615c9e565b600060405180830381600087803b15801561298957600080fd5b505af115801561299d573d6000803e3d6000fd5b50505050816001600160a01b03166323de665187836129bb88610c77565b6040518463ffffffff1660e01b81526004016128af93929190615c9e565b600080610789602061262b565b6000806129f48585856143db565b915091506000806000851215612a0c57879150612a0f565b50865b806001600160a01b0316826001600160a01b0316336001600160a01b0316600080516020615f288339815191528787604051612a4c929190615da9565b60405180910390a45050505050505050565b80612a68576112c0565b6000612a7484846144c0565b90506000821215612a83579394935b6001600160a01b0380861690871633600080516020615f4883398151915284612aab87611c50565b604051612ab9929190615e92565b60405180910390a4505050505050565b600064ffffffffff8314612add578161150a565b61150a8483613d36565b600081831480612b04575060008312158015612b04575060008212155b15612b1157506000610789565b60008313158015612b225750816000125b15612b2e575081610789565b60008213158015612b3f5750826000125b15612b4d57611d7f826109db565b60008313158015612b5f575060008213155b1561007b57611d7f838361270b565b8015610b725783516020850151600091612b8d9161153490859061163b565b90506112c0848484846144de565b6000612ba78383612ae7565b905080612bb457506112c0565b6000612bbe6129d9565b61ffff87166000908152602082815260408083208984529091528120549192506001600160501b03909116810390612bf6828561270b565b90506000811315612c0657600080fd5b612c156112766103b1836109db565b61ffff89166000908152602085815260408083208b8452909152902080546001600160501b0319166001600160501b0392909216919091179055610d3b898989876129e6565b6000612c6561461b565b6001600160a01b03851660009081526020918252604080822061ffff871683529092529081208054909250612caa90600160501b90046001600160501b03168461270b565b9050612cb861127682610c77565b82546001600160501b0391909116600160501b0269ffffffffffffffffffff60501b1990911617825560405161ffff8516906001600160a01b038716907f20478ef460e49d010960d4f3fff35d8dae385443abfac09035d6a2ccbcd834c490612d22908590615e89565b60405180910390a35050505050565b600080846040015161ffff168361ffff161415612d7d57612d50611603565b85516001600160a01b031660009081526020918252604080822064ffffffffff8352909252209050612dba565b612d85614628565b85516001600160a01b031660009081526020918252604080822064ffffffffff8352835280822061ffff871683529092522090505b8054610d7090859064ffffffffff906001600160501b03166114d4565b6000612de161461b565b6001600160a01b03851660009081526020918252604080822061ffff871683529092529081208054909250612e2690600160501b90046001600160501b03168461270b565b82549091506001600160501b03168113156112c05760405162461bcd60e51b8152600401611a5f90615e1a565b8015612ee0577382af49447d8a07e3bd95bd0d56f35241523fbab16001600160a01b031663d0e30db0836040518263ffffffff1660e01b81526004016000604051808303818588803b158015612ea857600080fd5b505af1158015612ebc573d6000803e3d6000fd5b50505050506107597382af49447d8a07e3bd95bd0d56f35241523fbab184846133c0565b6040516001600160a01b0384169083156108fc029084906000818181858888f19350505050158015610b72573d6000803e3d6000fd5b600080846001600160a01b03166370a08231306040518263ffffffff1660e01b815260040180826001600160a01b0316815260200191505060206040518083038186803b158015612f6657600080fd5b505afa158015612f7a573d6000803e3d6000fd5b505050506040513d6020811015612f9057600080fd5b5051604080516323b872dd60e01b81526001600160a01b038781166004830152306024830152604482018790529151929350908716916323b872dd9160648082019260009290919082900301818387803b158015612fed57600080fd5b505af1158015613001573d6000803e3d6000fd5b5050505061300d614635565b6000856001600160a01b03166370a08231306040518263ffffffff1660e01b815260040180826001600160a01b0316815260200191505060206040518083038186803b15801561305c57600080fd5b505afa158015613070573d6000803e3d6000fd5b505050506040513d602081101561308657600080fd5b505190506130948183611610565b9695505050505050565b6000806130ab84866135f8565b90506130b78382611512565b91506130c48787846146a2565b6130cf868383613628565b83516130db9086614722565b5095945050505050565b6000806130f183614777565b60ff169392505050565b6000806000851161310b57600080fd5b600785111561311957600080fd5b600061312484614794565b905060015b86811161317c57600061314561313e836147b2565b8490610e93565b90508681141561315d57509250600091506131829050565b8681111561317357509250600191506131829050565b50600101613129565b50600080fd5b935093915050565b835160208401511461319b57600080fd5b60006131a5611603565b83516001600160a01b0316600090815260208281526040808320895184529091529081902090870151919250906131dc9084610e93565b6040808801919091528501516109989084610e93565b60008061321088600001518960400151888b61016001516000610d46565b885160405163dc6679c560e01b81529192506001600160a01b03169063dc6679c590613248908a9085908a908a908a90600401615d70565b602060405180830381600087803b15801561326257600080fd5b505af1158015613276573d6000803e3d6000fd5b505050506040513d601f19601f820116820180604052508101906126ff9190615bd1565b60006305f5e100836040015114156132b3575080610789565b610ea56305f5e10061153485604001518561163b90919063ffffffff16565b60006132dc614856565b83516001600160a01b0316600090815260208290526040902054909150808311613307575050610773565b600061331286614863565b90506000816001600160a01b031663b5e4da238487036040518263ffffffff1660e01b81526004016133449190615e89565b60006040518083038186803b15801561335c57600080fd5b505afa158015613370573d6000803e3d6000fd5b505050506040513d6000823e601f3d908101601f191682016040526133989190810190615ac3565b905060006133a68783614893565b91506133b490508482610e93565b8611156121ee57600080fd5b826001600160a01b031663a9059cbb83836040518363ffffffff1660e01b815260040180836001600160a01b0316815260200182815260200192505050600060405180830381600087803b15801561341757600080fd5b505af115801561342b573d6000803e3d6000fd5b50505050610773614635565b61343f61564a565b6000613449614aaa565b6000858152602082815260408083208715158452825291829020825160a08101845281546001600160a01b038116825260ff600160a01b82048116151594830194909452600160b01b81048416600a0a9482019490945293945092916060830191600160a81b9091041660058111156134be57fe5b8152600060209091015295945050505050565b60006003836060015160058111156134e557fe5b14156134fc57506001600160a01b03811631610789565b82516040516370a0823160e01b81526001600160a01b03909116906370a082319061352b908590600401615c70565b60206040518083038186803b15801561354357600080fd5b505afa158015613557573d6000803e3d6000fd5b505050506040513d601f19601f82011682018060405250810190611d7f9190615bd1565b6000613585614856565b6001600160a01b038516600090815260208290526040902054909150838111156135ae57600080fd5b60006135c56135bc86610c8a565b61248c86610c8a565b90506135d46103b18383611689565b6001600160a01b039096166000908152602093909352505060409020929092555050565b60006305f5e10083604001511415613611575080610789565b6040830151610ea590611534846305f5e10061163b565b6000613632614ab7565b61ffff8516600090815260209190915260409020805490915064ffffffffff16421461365d57600080fd5b805460009061367c90600160281b90046001600160581b031685611689565b825490915060009061369e90600160801b90046001600160581b031685611689565b905080624c4b4013156136b057600080fd5b6136c16136bc82610c77565b614ac4565b83546001600160581b0391909116600160801b026affffffffffffffffffffff60801b199091161783556136f76136bc83610c77565b83546001600160581b0391909116600160281b026fffffffffffffffffffffff000000000019909116178355610ac483614ada565b81156112c05760006137596103b161374d61374686610c8a565b88906135f8565b61016089015190611512565b9050610ac48660000151858860400151613776856117fa88610c77565b85614ba5565b600080610789601a61262b565b60408051600280825260608201835260009260208301908036833750506040805160028082526060820183529394506000939092509060208301908036833701905050905060006137f086600001518760400151876040015164ffffffffff166000613e65565b9050600a60ff1681178360008151811061380657fe5b602002602001018181525050600960ff1681178360018151811061382657fe5b6020026020010181815250508660200151600014806138695750604085015164ffffffffff161580159061386957508660200151856040015164ffffffffff1614155b1561390b5784600001516001600160501b03168260008151811061388957fe5b60200260200101818152505084602001516001600160501b0316826001815181106138b057fe5b60200260200101818152505060006001600160a01b031687606001516001600160a01b0316336001600160a01b0316600080516020615f2883398151915286866040516138fe929190615da9565b60405180910390a4613b08565b846040015164ffffffffff1687602001511415613b085784516000906001600160501b031685108061394d575085602001516001600160501b03168860400151105b90508015613a1d5785516001600160501b0316851061396d57600061397c565b85516001600160501b03168590035b8360008151811061398957fe5b6020026020010181815250506139b9886040015187602001516001600160501b031661161090919063ffffffff16565b836001815181106139c657fe5b60200260200101818152505060006001600160a01b031688606001516001600160a01b0316336001600160a01b0316600080516020615f288339815191528787604051613a14929190615da9565b60405180910390a45b801580613a33575085516001600160501b031685115b15613b06578551613a4e9086906001600160501b0316611610565b83600081518110613a5b57fe5b602002602001018181525050876040015186602001516001600160501b031610613a86576000613aa2565b60208601516040890151613aa2916001600160501b0316611610565b83600181518110613aaf57fe5b60200260200101818152505087606001516001600160a01b031660006001600160a01b0316336001600160a01b0316600080516020615f288339815191528787604051613afd929190615da9565b60405180910390a45b505b602087015115801590613b2a57508660200151856040015164ffffffffff1614155b15613c10576000613b4a876000015188604001518a602001516000613e65565b9050600a60ff16811784600081518110613b6057fe5b602002602001018181525050600960ff16811784600181518110613b8057fe5b6020026020010181815250508483600081518110613b9a57fe5b602002602001018181525050876040015183600181518110613bb857fe5b60200260200101818152505087606001516001600160a01b031660006001600160a01b0316336001600160a01b0316600080516020615f288339815191528787604051613c06929190615da9565b60405180910390a4505b60808501516001600160501b031615610ac257606087015160808601516040516000926001600160a01b0316913391600080516020615f4883398151915291613c5e91600b88179190615eb6565b60405180910390a450505050505050565b600064ffffffffff821115610c8657600080fd5b600063ffffffff821115610c8657600080fd5b600080610789600261262b565b613cab615629565b600080613cb6614bfb565b61ffff861660009081526020828152604080832088845290915290208054600160f01b900460ff1693509091508215613d2d5780546001600160501b03600160a01b8204811691613d08911682612535565b85528154613d2690600160501b90046001600160501b031682612535565b6020860152505b50509250929050565b600081600013158015613d495750600a82125b15613d5657506000610789565b60008212613d6357600080fd5b610ea5600161248c85602001516115346ec097ce7bc90715b34b9f10000000008761163b90919063ffffffff16565b6000613d9e85856144c0565b90506000831215613db057600160401b175b60006001600160a01b03871633600080516020615f4883398151915284613dd688611c50565b604051613de4929190615e92565b60405180910390a46000613dfb6000841287614c08565b9050806001600160a01b03166323de66516105e789613e1987611c50565b6040518463ffffffff1660e01b8152600401613e3793929190615c9e565b600060405180830381600087803b158015613e5157600080fd5b505af11580156119ce573d6000803e3d6000fd5b68010000000000000000600160e01b03604085901b1667ffff000000000000603085901b1617600883901b178117949350505050565b613ea3615671565b6000613ead614ab7565b61ffff93841660009081526020918252604090819020805464ffffffffff81168652600160281b81046001600160581b03908116948701949094526001820154841692860192909252600160d81b820463ffffffff166060860152600160801b9091049091166080840152600201546001600160501b0380821660a0850152600160501b8204811660c0850152600160a01b82041660e0840152600160f01b900460ff1661012c02909216610100820152919050565b600080613f6f83614863565b6001600160a01b031663ef81f2166040518163ffffffff1660e01b81526004016040805180830381600087803b158015613fa857600080fd5b505af1158015613fbc573d6000803e3d6000fd5b505050506040513d601f19601f8201168201806040525081019061150a9190615be9565b613fe8615671565b6000806000613ff8888689614c68565b60c08b019290925260e08a01929092526020890151919350915061401c9083610e93565b602088015260808701516000901561404a576080880151614047906140418982611610565b90614d79565b90505b61406a61405f670de0b6b3a764000083610e93565b60a08a015190614d96565b60a089015250506080860194909452505082529092909150565b600061408e614ab7565b60008561ffff16815260200190815260200160002090506140b28260000151613c6f565b815464ffffffffff191664ffffffffff9190911617815560a08201516140d790611625565b6002820180546001600160501b0319166001600160501b039290921691909117905560c082015161410790611625565b81600201600a6101000a8154816001600160501b0302191690836001600160501b0316021790555061413c8260e00151611625565b8160020160146101000a8154816001600160501b0302191690836001600160501b031602179055506141718260200151614ac4565b81546001600160581b0391909116600160281b026fffffffffffffffffffffff00000000001990911617815560408201516141ab90614ac4565b6001820180546affffffffffffffffffffff19166001600160581b039290921691909117905560808201516141df90614ac4565b81546001600160581b0391909116600160801b026affffffffffffffffffffff60801b19909116178155606082015161421790613c83565b815463ffffffff91909116600160d81b0263ffffffff60d81b19909116178155821561426357600061424884610c8a565b90506142548582612721565b614261610fee86836146a2565b505b8361ffff167fef25641e225e493886510ca1ad6584fa7b442b9fea820a29d1de3ce27d270fd28360a001518460c001518560e001516040516142a793929190615ea0565b60405180910390a250505050565b6000610ea56142c4848461163b565b633b9aca00612644565b6000806142d9614db3565b6001600160a01b03851660009081526020828152604080832061ffff8816845290915281208054600160a81b9004600a90810b900b945091925083121561431f57600080fd5b505092915050565b600081121561433557600080fd5b600061433f614db3565b6001600160a01b03851660009081526020828152604080832061ffff88168452909152902090915061437083614dc0565b8154600a9190910b6001600160581b0316600160a81b026001600160a81b0390911617905550505050565b6000806143a66143ce565b6000938452602052505060409020546001600160a01b031690565b600080610789602261262b565b600080610789600361262b565b60408051600280825260608281019093528291600091816020016020820280368337019050509050600061440f87876144c0565b9050808260008151811061441f57fe5b602002602001018181525050600160401b81178260018151811061443f57fe5b60209081029190910101526040805160028082526060820190925260009181602001602082028036833701905050905061447886611c50565b8160008151811061448557fe5b60200260200101818152505061449a86611c50565b816001815181106144a757fe5b6020908102919091010152919791965090945050505050565b67ffff000000000000603083901b16600882901b1760011792915050565b60006144e8614ab7565b61ffff8516600090815260209190915260409020805490915064ffffffffff16421461451357600080fd5b8054600160f81b900460ff1661452857600080fd5b6001810154600090614543906001600160581b031685611689565b825490915060009061456590600160281b90046001600160581b031685611689565b9050816009191280156145785750600082125b1561458257600091505b806009191280156145935750600081125b1561459c575060005b6145a86136bc83610c77565b6001840180546affffffffffffffffffffff19166001600160581b03929092169190911790556145da6136bc82610c77565b83546001600160581b0391909116600160281b026fffffffffffffffffffffff000000000019909116178355614612878786886127d5565b610ac283614ada565b600080610789601761262b565b600080610789601861262b565b600061463f6156bd565b3d8015614653576020811461465c57600080fd5b60019250614667565b60206000833e815192505b5081610fb7576040805162461bcd60e51b8152602060048201526005602482015264045524332360dc1b604482015290519081900360640190fd5b60006146ac611c43565b61ffff8416600090815260209190915260409081902054905163ad1c095d60e01b81526001600160a01b039091169150819063ad1c095d906146f49087908690600401615d36565b600060405180830381600087803b15801561470e57600080fd5b505af11580156121ee573d6000803e3d6000fd5b600061472c614856565b6001600160a01b0384166000908152602082905260409020549091506147556103b18285611689565b6001600160a01b03909416600090815260209290925250604090209190915550565b600080614782614df2565b60009384526020525050604090205490565b60006276a7008210156147a657600080fd5b506276a7008106900390565b600081600114156147c757506276a7006109ec565b81600214156147da575062ed4e006109ec565b81600314156147ee57506301da9c006109ec565b816004141561480257506303b538006109ec565b816005141561481657506309450c006109ec565b816006141561482a575063128a18006109ec565b816007141561483e575063251430006109ec565b60405162461bcd60e51b8152600401611a5f90615df3565b600080610789602661262b565b60008061486e614dff565b61ffff939093166000908152602093909352505060409020546001600160a01b031690565b60008060005b8351811015614aa25760008482815181106148b057fe5b60200260200101519050600081606001516001600160a01b03166370a08231306040518263ffffffff1660e01b81526004016148ec9190615c70565b60206040518083038186803b15801561490457600080fd5b505afa158015614918573d6000803e3d6000fd5b505050506040513d601f19601f8201168201806040525081019061493c9190615bd1565b9050600061494a88306134d1565b905060005b8351518110156149a6576149958460000151828151811061496c57fe5b602002602001015160008660200151848151811061498657fe5b60200260200101516001614e0c565b61499e57600196505b60010161494f565b5060006149b389306134d1565b905060006149c18284611610565b905080856040015111156149d457600080fd5b60608501516040516370a0823160e01b81526000916001600160a01b0316906370a0823190614a07903090600401615c70565b60206040518083038186803b158015614a1f57600080fd5b505afa158015614a33573d6000803e3d6000fd5b505050506040513d601f19601f82011682018060405250810190614a579190615bd1565b905084811115614a6657600080fd5b614a758660600151868361357b565b614a7f8883610e93565b9750614a908b60000151858561357b565b50506001909401935061489992505050565b509250929050565b600080610789600761262b565b600080610789601d61262b565b60006001600160581b03821115610c8657600080fd5b80546002820154600091614b1c91600160281b9091046001600160581b031690614b16906001600160501b03600160501b82048116911661163b565b9061163b565b60018301546002840154919250600091614b56916001600160581b031690614b16906001600160501b03600160a01b82048116911661163b565b8354909150600090614b8d9060016001600160581b03600160801b909204821601166ec097ce7bc90715b34b9f100000000061163b565b905080614b9a848461270b565b1315610b7257600080fd5b6000614baf611c43565b61ffff85166000908152602091909152604090819020549051631cef4ba360e11b81526001600160a01b03909116915081906339de9746906128af908990899088908890600401615cc2565b600080610789601e61262b565b600082614c3a57614c17611c43565b61ffff8316600090815260209190915260409020546001600160a01b0316610ea5565b614c426143c1565b61ffff8316600090815260209190915260409020546001600160a01b0316905092915050565b600080600080600080614c7b898861507a565b89519095509193509150600090614ca290614c97908b90611610565b633b9aca0090612535565b9050614cdc614cd16301da9c00614cb98585612535565b81614cc057fe5b670de0b6b3a7640000919004610e93565b60e08a015190614d96565b9650614cfe614cf36301da9c00614cb98785612535565b60c08a015190614d96565b955081831415614d15575060009350614d70915050565b6000614d37614d2c6301da9c00614cb98786612535565b60e08b015190614d96565b90506000614d458983611610565b9050614d6888614d62838d6040015161253590919063ffffffff16565b90615115565b965050505050505b93509350935093565b6000610ea5614d9084670de0b6b3a7640000612535565b83615115565b6000610ea5614da58484612535565b670de0b6b3a7640000615115565b600080610789600661262b565b60006a7fffffffffffffffffffff198212801590614de957506a7fffffffffffffffffffff8213155b610c8657600080fd5b600080610789600961262b565b600080610789601f61262b565b6000806000866001600160a01b031686866040518082805190602001908083835b60208310614e4c5780518252601f199092019160209182019101614e2d565b6001836020036101000a03801982511681845116808217855250505050505090500191505060006040518083038185875af1925050503d8060008114614eae576040519150601f19603f3d011682016040523d82523d6000602084013e614eb3565b606091505b509150915083614f565781614ec782615134565b90614f505760405162461bcd60e51b81526004018080602001828103825283818151815260200191508051906020019080838360005b83811015614f15578181015183820152602001614efd565b50505050905090810190601f168015614f425780820380516001836020036101000a031916815260200191505b509250505060405180910390fd5b506130db565b866001600160a01b03167f3c7e398c5e91088cae639370e35b25ea669d81fbdf0def5388e73661bc34e08e8787614f8c85615134565b604051808481526020018060200180602001838103835285818151815260200191508051906020019080838360005b83811015614fd3578181015183820152602001614fbb565b50505050905090810190601f1680156150005780820380516001836020036101000a031916815260200191505b50838103825284518152845160209182019186019080838360005b8381101561503357818101518382015260200161501b565b50505050905090810190601f1680156150605780820380516001836020036101000a031916815260200191505b509550505050505060405180910390a25095945050505050565b6000806000806000856020015111156150c7576150c46150ab8660c00151876020015161253590919063ffffffff16565b60e087015160408801516150be91612535565b9061523b565b90505b60006150d28761524e565b90506150de8183615281565b945081156150f5576150f281866001615334565b93505b60208601511561510c5761510985836153ae565b92505b50509250925092565b600080821161512357600080fd5b81838161512c57fe5b049392505050565b606060448251101561516a575060408051808201909152600d81526c14da5b195b9d0814995d995c9d609a1b60208201526109ec565b600482018051909260240190602081101561518457600080fd5b81019080805160405193929190846401000000008211156151a457600080fd5b9083019060208201858111156151b957600080fd5b82516401000000008111828201881017156151d357600080fd5b82525081516020918201929091019080838360005b838110156152005781810151838201526020016151e8565b50505050905090810190601f16801561522d5780820380516001836020036101000a031916815260200191505b506040525050509050919050565b6000610ea5614d9084633b9aca00612535565b6152566156db565b60006152606153c7565b61ffff8416600090815260209190915260408120549150610ea590826153d4565b60008083608001511161529357600080fd5b633b9aca008211156152a457600080fd5b825182116152c35782516040840151611d7f9190614d62908590612535565b826020015182116152fb576040830151835160208501516060860151611d7f93926117fa9281900391614d6291880390859003612535565b610ea583606001516117fa8560200151633b9aca0003614d6287606001518860800151038860200151880361253590919063ffffffff16565b6000806153536064614d628760e001518761253590919063ffffffff16565b90508460a00151811015615368575060a08401515b8460c0015181111561537b575060c08401515b82156153925761538b8482610e93565b91506153a6565b8381116153a157808403610d70565b600091505b509392505050565b6000610ea56153bd8484612535565b633b9aca00615115565b600080610789601b61262b565b6153dc6156db565b6064633b9aca008360ff8616602081106153f257fe5b1a02816153fb57fe5b0481526064633b9aca008360ff86166001016020811061541757fe5b1a028161542057fe5b048160200181815250506154458260028560ff16016020811061543f57fe5b1a6154f3565b60808201819052610100908360ff86166003016020811061546257fe5b1a028161546b57fe5b0460408201526080810151610100908360ff86166004016020811061548c57fe5b1a028161549557fe5b0460608201526207a1208260ff8516600501602081106154b157fe5b1a0260a0820152622625a08260ff8516600601602081106154ce57fe5b1a0260c08201528160ff8416600701602081106154e757fe5b1a60e082015292915050565b60008160ff1660961061550e5760ff8216622625a0026109e9565b5060951960ff919091160162e4e1c00263165a0bc00190565b604051806101e0016040528060006001600160a01b03168152602001600061ffff168152602001600061ffff16815260200160008152602001600081526020016000815260200160008152602001600081526020016000815260200160008152602001615592615720565b815260200161559f615629565b8152602001600081526020016155b3615720565b8152602001600081525090565b6040518060c0016040528060008152602001600081526020016000815260200160006001600160a01b0316815260200160008152602001600081525090565b60405180608001604052806000815260200160008152602001600081526020016000151581525090565b60405180606001604052806000815260200160008152602001600081525090565b6040805160a0810182526000808252602082018190529181018290529060608201906155b3565b6040518061012001604052806000815260200160008152602001600081526020016000815260200160008152602001600081526020016000815260200160008152602001600081525090565b60405180602001604052806001906020820280368337509192915050565b60405180610100016040528060008152602001600081526020016000815260200160008152602001600081526020016000815260200160008152602001600081525090565b60405180604001604052806002906020820280368337509192915050565b80516109ec81615f0f565b600082601f830112615759578081fd5b8151602061576e61576983615ef1565b615ecd565b828152818101908583018385028701840188101561578a578586fd5b855b858110156157b157815161579f81615f0f565b8452928401929084019060010161578c565b5090979650505050505050565b6000601f83818401126157cf578182fd5b825160206157df61576983615ef1565b82815281810190868301865b8581101561588457815189018a603f820112615805578889fd5b8581015167ffffffffffffffff81111561581b57fe5b61582c818a01601f19168801615ecd565b81815260408d81848601011115615841578b8cfd5b8b5b8381101561585e578481018201518382018b01528901615843565b8381111561586e578c8a85850101525b50508652505092840192908401906001016157eb565b509098975050505050505050565b60008083601f8401126158a3578182fd5b50813567ffffffffffffffff8111156158ba578182fd5b6020830191508360208285010111156158d257600080fd5b9250929050565b803563ffffffff811681146109ec57600080fd5b600080604083850312156158ff578182fd5b823561590a81615f0f565b9150602083013561591a81615f0f565b809150509250929050565b60008060008060008060008060e0898b031215615940578384fd5b883561594b81615f0f565b9750602089013561595b81615f0f565b9650604089013561596b81615f0f565b9550606089013594506080890135935061598760a08a016158d9565b925060c089013567ffffffffffffffff8111156159a2578283fd5b6159ae8b828c01615892565b999c989b5096995094979396929594505050565b60008060008060008060008060e0898b0312156159dd578384fd5b88356159e881615f0f565b975060208901356159f881615f0f565b965060408901359550606089013594506080890135935061598760a08a016158d9565b60008060008060008060008060006101008a8c031215615a39578283fd5b8935615a4481615f0f565b985060208a0135615a5481615f0f565b975060408a0135965060608a0135955060808a01359450615a7760a08b016158d9565b9350615a8560c08b016158d9565b925060e08a013567ffffffffffffffff811115615aa0578182fd5b615aac8c828d01615892565b915080935050809150509295985092959850929598565b60006020808385031215615ad5578182fd5b825167ffffffffffffffff80821115615aec578384fd5b818501915085601f830112615aff578384fd5b8151615b0d61576982615ef1565b81815284810190848601875b84811015615bc257815187016080818d03601f19011215615b3857898afd5b60408051608081018181108a82111715615b4e57fe5b8252828b015189811115615b60578c8dfd5b615b6e8f8d83870101615749565b8252508183015189811115615b81578c8dfd5b615b8f8f8d838701016157be565b8c83015250606083015182820152615ba96080840161573e565b6060820152865250509287019290870190600101615b19565b50909998505050505050505050565b600060208284031215615be2578081fd5b5051919050565b60008060408385031215615bfb578182fd5b505080516020909101519092909150565b6000815180845260208085019450808401835b83811015615c3b57815187529582019590820190600101615c1f565b509495945050505050565b60008284528282602086013780602084860101526020601f19601f85011685010190509392505050565b6001600160a01b0391909116815260200190565b6001600160a01b0392831681529116602082015260400190565b6001600160a01b039384168152919092166020820152604081019190915260600190565b6001600160a01b0394851681529290931660208301526040820152606081019190915260800190565b600060018060a01b03808a16835280891660208401525086604083015285606083015284608083015260c060a0830152615d2960c083018486615c46565b9998505050505050505050565b6001600160a01b03929092168252602082015260400190565b6001600160a01b039390931683526020830191909152604082015260600190565b600060018060a01b038716825285602083015284604083015260806060830152615d9e608083018486615c46565b979650505050505050565b600060408252615dbc6040830185615c0c565b8281036020840152610d708185615c0c565b6020808252600b908201526a4554482042616c616e636560a81b604082015260600190565b6020808252600d908201526c092dcecc2d8d2c840d2dcc8caf609b1b604082015260600190565b6020808252600c908201526b4d617820436170616369747960a01b604082015260600190565b6020808252600a90820152694d696e20426f72726f7760b01b604082015260600190565b61ffff9390931683526001600160a01b03919091166020830152604082015260600190565b90815260200190565b918252602082015260400190565b9283526020830191909152604082015260600190565b9182526001600160501b0316602082015260400190565b60405181810167ffffffffffffffff81118282101715615ee957fe5b604052919050565b600067ffffffffffffffff821115615f0557fe5b5060209081020190565b6001600160a01b0381168114615f2457600080fd5b5056fe4a39dc06d4c0dbc64b70af90fd698a233a518aa5d07e595d983b8c0526c8f7fbc3d58168c5ae7397731d063d5bbf3d657854427343f4c083240f7aacaa2d0f62a2646970667358221220e0c7394cd00c763261e9c495a70c94b931e23284b67af01f0dea966b8b772ab964736f6c63430007060033","bytecodeSha1":"1523b7382b37d412c20a1c7b64da8a8dbcda0efd","compiler":{"evm_version":"istanbul","optimizer":{"enabled":true,"runs":200},"version":"0.7.6+commit.7338295f"},"contractName":"VaultAccountAction","deployedBytecode":"60806040526004361061007b5760003560e01c80638da5cb5b1161004e5780638da5cb5b146100f357806395c1a20214610108578063c4c96dae1461011b578063eec51108146101305761007b565b806324a3d62214610080578063653b6104146100ab5780636ce48f01146100cb57806382463367146100de575b600080fd5b34801561008c57600080fd5b50610095610152565b6040516100a29190615c70565b60405180910390f35b6100be6100b9366004615a1b565b610161565b6040516100a29190615e89565b6100be6100d9366004615925565b6102fd565b3480156100ea57600080fd5b506100956104f2565b3480156100ff57600080fd5b50610095610501565b6100be6101163660046159c2565b610518565b34801561012757600080fd5b50610095610666565b34801561013c57600080fd5b5061015061014b3660046158ed565b61067e565b005b6002546001600160a01b031681565b60006002600a54141561017357600080fd5b6002600a5560006101838a610709565b9050610191818c6010610734565b61019c816080610778565b156101a7576001600a555b60006101b38c8361078f565b90506101bf818361083e565b506101cb826001610778565b6101d457600080fd5b6101df826002610778565b6101e857600080fd5b60008a116101f557600080fd5b888160200151141561020657600080fd5b88421061021257600080fd5b60006102228383602001516108a5565b60408301519450905061023781838587610930565b610254838261024985600001516109db565b859291908c426109f1565b81511561026057600080fd5b61026a8184610acc565b61027583838b610b78565b61028582848c8e8b8b8b8b610bd6565b9350306001600160a01b031663c9384f268d8f6040518363ffffffff1660e01b81526004016102b5929190615c84565b600060405180830381600087803b1580156102cf57600080fd5b505af11580156102e3573d6000803e3d6000fd5b50506001600a5550939d9c50505050505050505050505050565b60006002600a54141561030f57600080fd5b6002600a55600061031f89610709565b905061032d818b6008610734565b610338816080610778565b15610343576001600a555b600061034f8b8361078f565b905042603c8260a0015101111561036557600080fd5b61036f818361083e565b5060006103808383602001516108a5565b602083015190915064ffffffffff14801561039c575060001988145b156103b9576103b66103b183600001516109db565b610c77565b97505b6103d283826103c78b610c8a565b859291908b426109f1565b6103de8183858c610930565b600082608001511315610424576103ff8b8b85604001518560800151610ca0565b61041a8a846040015184608001518661016001516000610d46565b6000608084015293505b61043c61043584848d8d8b8b610d79565b8590610e93565b93506104488184610acc565b815115801561045957506040820151155b1561046657600060208301525b6104738284600180610eac565b6020820151156104de57306001600160a01b031663c9384f268c8e6040518363ffffffff1660e01b81526004016104ab929190615c84565b600060405180830381600087803b1580156104c557600080fd5b505af11580156104d9573d6000803e3d6000fd5b505050505b50506001600a555098975050505050505050565b6001546001600160a01b031681565b60005464010000000090046001600160a01b031681565b60006002600a54141561052a57600080fd5b6002600a5561053889610f3c565b876001600160a01b0316896001600160a01b0316141561055757600080fd5b600061056289610709565b9050610570818b6004610734565b61057b816080610778565b15610586576001600a555b610591816001610778565b61059a57600080fd5b8642106105a657600080fd5b60006105b28b8361078f565b90506105be818361083e565b50602081015115806105d35750878160200151145b6105dc57600080fd5b6105e782828b610b78565b6105f881838a8a8a8a8a6000610bd6565b60405163649c279360e11b8152909350309063c9384f2690610620908d908f90600401615c84565b600060405180830381600087803b15801561063a57600080fd5b505af115801561064e573d6000803e3d6000fd5b50506001600a5550929b9a5050505050505050505050565b73__$7ac922d04bd7a1b42c7f6e5f1dd89a70af$__90565b6002600a54141561068e57600080fd5b6002600a5561069c82610f3c565b806001600160a01b0316826001600160a01b031614156106bb57600080fd5b60006106c682610709565b905060006106d4848361078f565b90506106e08183610fbb565b6106e957600080fd5b6106f38183611178565b506106fe81836111f0565b50506001600a555050565b610711615527565b61071a826112c7565b905061072981604001516114b5565b610160820152919050565b61073e8382610778565b1561075e5782516001600160a01b0316331461075957600080fd5b610773565b6001600160a01b038216331461077357600080fd5b505050565b602082015161ffff80831691831616145b92915050565b6107976155c0565b60006107a16114c7565b6001600160a01b038086166000818152602084815260408083208951909516835293815290839020805464ffffffffff600160a01b8204169288018390526001600160501b03600160501b8204811695890195909552606088019390935260018101548416608088015263ffffffff600160c81b84041660a088015261016088015194955093610833939092166114d4565b835250909392505050565b600061084a8383610fbb565b9050801580156108625750602083015164ffffffffff145b156107895761089e8361088f61088a866000015186610160015161151290919063ffffffff16565b6109db565b6020860151859291904261153a565b5092915050565b6108ad6155ff565b60006108b7611603565b84516001600160a01b031660009081526020828152604080832087845290915290819020858552805460ff600160f01b820416151560608701526001600160501b03600160a01b820481169387019390935261016088015193945090926109229290918791166114d4565b602084015250909392505050565b835160208401511461094157600080fd5b600061094b611603565b83516001600160a01b0316600090815260208281526040808320895184529091529081902090870151919250906109829084611610565b6040808801919091528501516109989084611610565b8560400181815250506109ae8660400151611625565b81546001600160501b0391909116600160a01b02600160a01b600160f01b03199091161790555050505050565b60006109e96000198361163b565b90505b919050565b826109fb57610ac4565b8551600090610a0a9085611689565b1315610a1557600080fd5b85602001518110610a2557600080fd5b602086015160009064ffffffffff14610a5b57610a5886604001518760000151896020015187878b61010001518861169f565b90505b80610aa857610160860151610a749061088a9086611512565b602088015190915064ffffffffff14610aa857610aa8866000015187604001518960200151610aa2856109db565b886117ad565b6000811315610ab657600080fd5b610ac287868684611891565b505b505050505050565b6000610ad6611603565b82516001600160a01b031660009081526020828152604080832087518452909152908190209085015191925090610b0c90611625565b81546060860151801515600160f01b0260ff60f01b196001600160501b0394909416600160a01b02600160a01b600160f01b03199093169290921792909216178255610160840151604085015186516020880151610b72948694938993909290916118fc565b50505050565b6000610b9d83606001518560400151610b9085610c8a565b87610160015160006119db565b6080850151909250610bb0915082611689565b60808401526000811315610b7257610b7283606001518560000151866040015184610ca0565b60008689602001511480610be957508851155b610bf257600080fd5b6000610bfe89896108a5565b90508615610c2457610c1f8a8a838b610c1961088a8d610c8a565b8b611aa6565b610c47565b64ffffffffff8814610c4757610c458960400151898b610100015142611b51565b505b610c55818b8b868989611b9a565b4260a08c01529150610c6a8a8a600180610eac565b5098975050505050505050565b600080821215610c8657600080fd5b5090565b60006001600160ff1b03821115610c8657600080fd5b6000610caa611c43565b61ffff8416600090815260209190915260408120546001600160a01b03169150821215610cd5579293925b806001600160a01b03166323de66518686610cef86611c50565b6040518463ffffffff1660e01b8152600401610d0d93929190615c9e565b600060405180830381600087803b158015610d2757600080fd5b505af1158015610d3b573d6000803e3d6000fd5b505050505050505050565b600080610d5e8787610d57886109db565b8787611c71565b9050610d6c6103b1826109db565b9150505b95945050505050565b600080600080610d908a6040015161ffff16611d19565b9050600089608001511215610dd7576000610dc061088a8b608001518d6101600151611d2c90919063ffffffff16565b9050610dcf6103b18383611d58565b925050610de6565b608089015115610de657600080fd5b610dff8a828b606001518b8b8e60200151888d8d611d95565b50945092505080821015610e6f5760008282039050600080610e3a8b606001518d60400151610e2d86610c8a565b8f610160015160006119db565b91509150610e51610e4a83610c77565b8690610e93565b9450610e6b8b606001518d600001518e6040015184610ca0565b5050505b80821015610e7c57600080fd5b600088608001818152505050509695505050505050565b600082820183811015610ea557600080fd5b9392505050565b6000610eb66114c7565b60608601516001600160a01b039081166000908152602083815260408083208951909416835292905220909150610ef08686838787611eb5565b6001810180546001600160501b03191690819055600160501b90046001600160501b0316158015610f3357506001810154600160a01b90046001600160501b0316155b610ac457600080fd5b6001600160a01b038116610f4f57600080fd5b6001600160a01b038116610fee1415610f6757600080fd5b6001600160a01b0381166105e71415610f7f57600080fd5b6001600160a01b038116301415610f9557600080fd5b6000610fa082612123565b5050505061ffff16905080600014610fb757600080fd5b5050565b6000826020015160001480610fd35750826020015142105b15610fe057506000610789565b6000610ff08385602001516108a5565b90506000610ffc611603565b84516001600160a01b031660009081526020918252604080822064ffffffffff83529092522060608301519091506110635761104b81856000015186604001518560000151866020015161218f565b60006020830152600160608301526110638285610acc565b61106f828686846121f8565b6110788461230a565b156110d85783516060860151604051634140f63560e11b81523092638281ec6a926110a592600401615c84565b600060405180830381600087803b1580156110bf57600080fd5b505af11580156110d3573d6000803e3d6000fd5b505050505b60006110f38560400151876020015188600001516000612333565b905061111485610160015183876040015188600001518a6080015186612378565b608088015260208701805160a089015264ffffffffff905261016086015190915061113f9082612441565b80875261016086015161116b91889161115c9161088a9190611512565b87919064ffffffffff4261153a565b5060019695505050505050565b6111806155ff565b602083015164ffffffffff1461119557600080fd5b6111a48264ffffffffff6108a5565b90506000836080015112156111e6576111e683826111d48660800151866101600151611d2c90919063ffffffff16565b6111e187608001516109db565b611891565b6107898183610acc565b608082018051600091829052906112056114c7565b60608501516001600160a01b0390811660009081526020838152604080832088519094168352929052908120919250611245908690869084906001611eb5565b82611261576001810180546001600160501b03191690556112c0565b82600012156112c05761127b61127684610c77565b611625565b8160010160006101000a8154816001600160501b0302191690836001600160501b031602179055506112c0856060015185600001518660400151886020015187612492565b5050505050565b6112cf615527565b60006112d9612528565b6001600160a01b03841660008181526020838152604091829020928652825461ffff808216928801929092526201000090041690850152909150611335612710633b9aca008354600160501b900460ff16919005600502612535565b6080840152805461135490600160401b900461ffff16620186a0612535565b60a0840152805461137390600160701b900461ffff16620186a0612535565b610120840152600281015461138f9061ffff16620186a0612535565b610180840152805460649060ff600160581b90910416633b9aca00020560c08401528054600160601b810460ff90811660e0860152600160681b909104166101008401526040805180820191829052906001830190600290826000855b82829054906101000a900461ffff1661ffff16815260200190600201906020826001010492830192600103820291508084116113ec57505050505061014085019190915250600481015460ff166101c0840152805461145890640100000000900463ffffffff1661255c565b606084015261148e6003820160005b600891828204019190066004029054906101000a900463ffffffff1663ffffffff1661255c565b6101a0840151526114a3600382016001611467565b6101a084015160200152509092915050565b6114bd615629565b6109e9824261256a565b600080610789601661262b565b600064ffffffffff83146114f457816001600160501b031660000361150a565b61150a846001600160501b038416600003612441565b949350505050565b8151600090610ea590611534846ec097ce7bc90715b34b9f100000000061163b565b90612644565b60006115498686868686612675565b9050600061156960646115348960e001518561163b90919063ffffffff16565b90506000611577838361270b565b9050611587886040015183612721565b611595886040015182612758565b64ffffffffff8514156115cd576115cd88600001518960400151856115c8878d610160015161279c90919063ffffffff16565b6127d5565b6115e18860000151896040015183856128e9565b60808701516115f0908461270b565b6080909701969096525095945050505050565b600080610789601561262b565b60008282111561161f57600080fd5b50900390565b60006001600160501b03821115610c8657600080fd5b81810260001983141561166b5781158061165d57508282828161165a57fe5b05145b61166657600080fd5b610789565b82158061168057508183828161167d57fe5b05145b61078957600080fd5b8181018281121560008312151461078957600080fd5b6000806116ae89888686611b51565b905060006116bb87611c50565b90506001600160581b0381106116d057600080fd5b600060788763ffffffff16901b609883901b60f085901b60f860008c136116f85760016116fb565b60005b600581111561170657fe5b60ff16901b17171760001b905073__$7ac922d04bd7a1b42c7f6e5f1dd89a70af$__63715e90028c8c846040518463ffffffff1660e01b815260040161174e93929190615e64565b60206040518083038186803b15801561176657600080fd5b505af415801561177a573d6000803e3d6000fd5b505050506040513d601f19601f8201168201806040525081019061179e9190615bd1565b9b9a5050505050505050505050565b60006117b76129d9565b61ffff861660009081526020828152604080832088845290915290208054919250906118009061127690600160501b90046001600160501b03166117fa86610c77565b90610e93565b815469ffffffffffffffffffff60501b1916600160501b6001600160501b0392831602178083556118409161127691600160a01b9004166117fa87610c77565b81546001600160501b0391909116600160a01b02600160a01b600160f01b0319909116178155611874876105e78887610ca0565b6118826105e78787866129e6565b610ac26105e788888887612a5e565b82516020850151146118a9578351156118a957600080fd5b60808401516118b89082611689565b608085015283516118c99083611689565b808552600012156118d957600080fd5b60208301516118e89083611689565b6020840181905260001215610b7257600080fd5b86546001600160501b0316600090810390611918888686612ac9565b90506119296112766103b1836109db565b89546001600160501b0319166001600160501b039190911617895560006119508383612ae7565b9050600064ffffffffff871415611977578851611970908b908a85612b6e565b50846119ae565b846119ae57885161198b9089898787612b9b565b88516119a0908961199b856109db565b612c5b565b6119ab898b8a612d31565b90505b6000821380156119bc575084155b156119ce5788516119ce908983612dd7565b5050505050505050505050565b60008060006119e986610c77565b9050806119fd576000809250925050611a9c565b6000611a0c8861ffff16611d19565b9050600381606001516005811115611a2057fe5b1415611a705734821015611a4057611a3b8983340387612e53565b611a68565b348214611a685760405162461bcd60e51b8152600401611a5f90615dce565b60405180910390fd5b869350611a8a565b611a87611a8282600001518b85612f16565b610c8a565b93505b611a97898986848a61309e565b925050505b9550959350505050565b60008212611ab357600080fd5b600064ffffffffff841415611add57610160860151611ad69061088a9085611512565b9050611b0a565b611af9866040015187600001518686868b61010001514261169f565b9050611b08868883874261153a565b505b60008113611b1757600080fd5b611b2387868584611891565b8651611b2e906109db565b86606001511315610ac25760405162461bcd60e51b8152600401611a5f90615e40565b6000806000611b638761ffff166130e5565b9050611b738160ff1687866130fb565b909350915084831115611b8557600080fd5b8115611b9057600080fd5b5050949350505050565b60008086608001511215611bad57600080fd5b8651602087015114611bd457604086015115611bc857600080fd5b86516020870152611be5565b8651602087015114611be557600080fd5b611bf18787878761318a565b606086015160808701518851600092611c0d92899288886131f2565b600060808901529050611c228888888461318a565b611c2c8582610e93565b9150611c388887610acc565b509695505050505050565b600080610789602161262b565b600080821215611c6a57611c63826109db565b90506109ec565b50806109ec565b600083611c8057506000610d70565b60008412611c8d57600080fd5b6000611c9c8661ffff16611d19565b9050611cb181611cac8688611d2c565b61329a565b91506000611cbe836109db565b9050611ccb8783836132d2565b600382606001516005811115611cdd57fe5b1415611cf357611cee888286612e53565b611d00565b8151611d009089836133c0565b611d0d888885858961309e565b50505095945050505050565b611d2161564a565b6109e9826001613437565b6000610ea56ec097ce7bc90715b34b9f100000000061153485600001518561163b90919063ffffffff16565b60006305f5e10083604001511215611d8657611d7f6001611d79858561329a565b90611689565b9050610789565b610ea583611cac846001611689565b6000808080611da48c306134d1565b8d5160405163089e0a2160e31b81529192506001600160a01b0316906344f0510890611de0908e908e908e908e908e908e908e90600401615ceb565b602060405180830381600087803b158015611dfa57600080fd5b505af1158015611e0e573d6000803e3d6000fd5b505050506040513d601f19601f82011682018060405250810190611e329190615bd1565b92506000611e408d306134d1565b9050611e4c8183611610565b9450611e5d8d60000151838361357b565b50506000611e74611e6d85610c8a565b8d906135f8565b6101608e0151909150611e879082611512565b9150611e988d604001518383613628565b611ea58d8d8c868661372c565b5099509950999650505050505050565b608085015115611ec457600080fd5b60608401518551611ed4906109db565b128015611ede5750815b15611f125784511580611ef657506001856040015111155b611f125760405162461bcd60e51b8152600401611a5f90615e40565b611f1b8461230a565b15611fba576000611f2a61377c565b60608701516001600160a01b03908116600090815260209283526040808220895190931682529183522080549188015190925064ffffffffff90911690811480611f72575080155b611f7b57600080fd5b80611fb7578154600160281b90046001600160501b0316158015611fae57508154600160781b90046001600160501b0316155b611fb757600080fd5b50505b6000611fda6103b161088a87610160015189602001518a60000151612ac9565b90508115612063576040805160e08101825285546001600160501b038082168352600160501b80830482166020850152600160a01b80840464ffffffffff1695850195909552600160c81b90920463ffffffff16606084015260018801548082166080850152918204811660a084015292900490911660c0820152612063908790879084613789565b6120708660400151611625565b84546001600160501b0391909116600160501b0269ffffffffffffffffffff60501b1990911617845560208601516120a790613c6f565b845464ffffffffff91909116600160a01b0264ffffffffff60a01b1990911617845560a08601516120d790613c83565b845463ffffffff91909116600160c81b0263ffffffff60c81b1990911617845561210081611625565b84546001600160501b0319166001600160501b0391909116179093555050505050565b600080600080600080612134613c96565b6001600160a01b039097166000908152602097909752505060409094205461ffff81169563ffffffff620100008304811696506601000000000000830416945060ff600160501b8304169350600160581b90910460d01b9150565b600061219d84848488612333565b86549091506001600160501b031660006121b7828461270b565b90506121c561127682610c77565b88546001600160501b0319166001600160501b03919091161788556121ee878761199b876109db565b5050505050505050565b6000612205836040610778565b1561229f578251606085015160408087015188519151631de7e96360e21b81526001600160a01b039094169363779fa58c9361224693909291600401615d4f565b602060405180830381600087803b15801561226057600080fd5b505af1158015612274573d6000803e3d6000fd5b505050506040513d601f19601f820116820180604052508101906122989190615bd1565b90506122a6565b5060408301515b6122b68585858760400151610930565b6040840181905281546122dd9061127690600160a01b90046001600160501b031683610e93565b82546001600160501b0391909116600160a01b02600160a01b600160f01b03199091161790915550505050565b6101408101515160009061ffff161515806109e957505061014001516020015161ffff16151590565b60008060006123428787613ca3565b915091508061235057600080fd5b61235a8286613d36565b92506001600160a01b03841615611b9057611b908488888887613d92565b8060008084131561243657600061239c61239561088a8b88611d2c565b8a90613d36565b90506000848212156123d6575060009250836123cf6123c861088a6123c1858561270b565b8d90612441565b8b90611512565b92506123e5565b50806123e2858261270b565b93505b6123f18a888a84612b6e565b88546001600160501b031660006124088284611689565b905061241661127682610c77565b8b546001600160501b0319166001600160501b0391909116178b55505050505b965096945050505050565b60006001821261245057600080fd5b8161245d57506000610789565b610ea5600161248c6ec097ce7bc90715b34b9f100000000061153487602001518761163b90919063ffffffff16565b9061270b565b8061249c576112c0565b60006124ab858585600b613e65565b905060008060008412156124c4575086905060006124cb565b5060009050865b60006124d685611c50565b9050816001600160a01b0316836001600160a01b0316336001600160a01b0316600080516020615f488339815191528785604051612515929190615e92565b60405180910390a4505050505050505050565b600080610789601461262b565b60008261254457506000610789565b8282028284828161255157fe5b0414610ea557600080fd5b600881901c60ff9091161b90565b612572615629565b600061257d84613e9b565b905082816000015110156125bc5760008061259786613f63565b90506125a586848388613fe0565b90935091506125b5868385614084565b50506125c9565b805183146125c957600080fd5b60405180606001604052806125f2611a828460a001518560c0015161253590919063ffffffff16565b8152602001612615611a828460a001518560e0015161253590919063ffffffff16565b8152602001826060015181525091505092915050565b6000620f424082602681111561263d57fe5b0192915050565b60008160001914801561265a5750600160ff1b83145b1561266457600080fd5b81838161266d57fe5b059392505050565b60008064ffffffffff8414156126c757602086015164ffffffffff1461269f576000915050610d70565b6126b9611a828760a001518561161090919063ffffffff16565b60a0870184905290506126d7565b6126d4611a828585611610565b90505b60808701516000906126f3906301da9c0090611534908561163b565b90506126ff86826142b5565b98975050505050505050565b8082038281131560008312151461078957600080fd5b600081121561272f57600080fd5b600061273d610fee846142ce565b90506127498183611689565b9050610773610fee8483614327565b600081121561276657600080fd5b60006127758361ffff1661439b565b9050600061278382856142ce565b905061278f8184611689565b9050610b72828583614327565b6000808212156127cf576127ca600161248c856020015161153487600001518761163b90919063ffffffff16565b610ea5565b50919050565b60006127df611c43565b61ffff8516600090815260209190915260408120546001600160a01b031691506128076143c1565b61ffff8616600090815260209190915260409081902054905163ad1c095d60e01b81526001600160a01b039091169150819063ad1c095d9061284f9089908790600401615d36565b600060405180830381600087803b15801561286957600080fd5b505af115801561287d573d6000803e3d6000fd5b505060405163ad1c095d60e01b81526001600160a01b038516925063ad1c095d91506128af9089908890600401615d36565b600060405180830381600087803b1580156128c957600080fd5b505af11580156128dd573d6000803e3d6000fd5b50505050505050505050565b60006128f3611c43565b61ffff8516600090815260209190915260408120546001600160a01b0316915061291b6143ce565b61ffff8616600090815260209190915260409020546001600160a01b03908116915082166323de665187610fee61295187610c77565b6040518463ffffffff1660e01b815260040161296f93929190615c9e565b600060405180830381600087803b15801561298957600080fd5b505af115801561299d573d6000803e3d6000fd5b50505050816001600160a01b03166323de665187836129bb88610c77565b6040518463ffffffff1660e01b81526004016128af93929190615c9e565b600080610789602061262b565b6000806129f48585856143db565b915091506000806000851215612a0c57879150612a0f565b50865b806001600160a01b0316826001600160a01b0316336001600160a01b0316600080516020615f288339815191528787604051612a4c929190615da9565b60405180910390a45050505050505050565b80612a68576112c0565b6000612a7484846144c0565b90506000821215612a83579394935b6001600160a01b0380861690871633600080516020615f4883398151915284612aab87611c50565b604051612ab9929190615e92565b60405180910390a4505050505050565b600064ffffffffff8314612add578161150a565b61150a8483613d36565b600081831480612b04575060008312158015612b04575060008212155b15612b1157506000610789565b60008313158015612b225750816000125b15612b2e575081610789565b60008213158015612b3f5750826000125b15612b4d57611d7f826109db565b60008313158015612b5f575060008213155b1561007b57611d7f838361270b565b8015610b725783516020850151600091612b8d9161153490859061163b565b90506112c0848484846144de565b6000612ba78383612ae7565b905080612bb457506112c0565b6000612bbe6129d9565b61ffff87166000908152602082815260408083208984529091528120549192506001600160501b03909116810390612bf6828561270b565b90506000811315612c0657600080fd5b612c156112766103b1836109db565b61ffff89166000908152602085815260408083208b8452909152902080546001600160501b0319166001600160501b0392909216919091179055610d3b898989876129e6565b6000612c6561461b565b6001600160a01b03851660009081526020918252604080822061ffff871683529092529081208054909250612caa90600160501b90046001600160501b03168461270b565b9050612cb861127682610c77565b82546001600160501b0391909116600160501b0269ffffffffffffffffffff60501b1990911617825560405161ffff8516906001600160a01b038716907f20478ef460e49d010960d4f3fff35d8dae385443abfac09035d6a2ccbcd834c490612d22908590615e89565b60405180910390a35050505050565b600080846040015161ffff168361ffff161415612d7d57612d50611603565b85516001600160a01b031660009081526020918252604080822064ffffffffff8352909252209050612dba565b612d85614628565b85516001600160a01b031660009081526020918252604080822064ffffffffff8352835280822061ffff871683529092522090505b8054610d7090859064ffffffffff906001600160501b03166114d4565b6000612de161461b565b6001600160a01b03851660009081526020918252604080822061ffff871683529092529081208054909250612e2690600160501b90046001600160501b03168461270b565b82549091506001600160501b03168113156112c05760405162461bcd60e51b8152600401611a5f90615e1a565b8015612ee0577382af49447d8a07e3bd95bd0d56f35241523fbab16001600160a01b031663d0e30db0836040518263ffffffff1660e01b81526004016000604051808303818588803b158015612ea857600080fd5b505af1158015612ebc573d6000803e3d6000fd5b50505050506107597382af49447d8a07e3bd95bd0d56f35241523fbab184846133c0565b6040516001600160a01b0384169083156108fc029084906000818181858888f19350505050158015610b72573d6000803e3d6000fd5b600080846001600160a01b03166370a08231306040518263ffffffff1660e01b815260040180826001600160a01b0316815260200191505060206040518083038186803b158015612f6657600080fd5b505afa158015612f7a573d6000803e3d6000fd5b505050506040513d6020811015612f9057600080fd5b5051604080516323b872dd60e01b81526001600160a01b038781166004830152306024830152604482018790529151929350908716916323b872dd9160648082019260009290919082900301818387803b158015612fed57600080fd5b505af1158015613001573d6000803e3d6000fd5b5050505061300d614635565b6000856001600160a01b03166370a08231306040518263ffffffff1660e01b815260040180826001600160a01b0316815260200191505060206040518083038186803b15801561305c57600080fd5b505afa158015613070573d6000803e3d6000fd5b505050506040513d602081101561308657600080fd5b505190506130948183611610565b9695505050505050565b6000806130ab84866135f8565b90506130b78382611512565b91506130c48787846146a2565b6130cf868383613628565b83516130db9086614722565b5095945050505050565b6000806130f183614777565b60ff169392505050565b6000806000851161310b57600080fd5b600785111561311957600080fd5b600061312484614794565b905060015b86811161317c57600061314561313e836147b2565b8490610e93565b90508681141561315d57509250600091506131829050565b8681111561317357509250600191506131829050565b50600101613129565b50600080fd5b935093915050565b835160208401511461319b57600080fd5b60006131a5611603565b83516001600160a01b0316600090815260208281526040808320895184529091529081902090870151919250906131dc9084610e93565b6040808801919091528501516109989084610e93565b60008061321088600001518960400151888b61016001516000610d46565b885160405163dc6679c560e01b81529192506001600160a01b03169063dc6679c590613248908a9085908a908a908a90600401615d70565b602060405180830381600087803b15801561326257600080fd5b505af1158015613276573d6000803e3d6000fd5b505050506040513d601f19601f820116820180604052508101906126ff9190615bd1565b60006305f5e100836040015114156132b3575080610789565b610ea56305f5e10061153485604001518561163b90919063ffffffff16565b60006132dc614856565b83516001600160a01b0316600090815260208290526040902054909150808311613307575050610773565b600061331286614863565b90506000816001600160a01b031663b5e4da238487036040518263ffffffff1660e01b81526004016133449190615e89565b60006040518083038186803b15801561335c57600080fd5b505afa158015613370573d6000803e3d6000fd5b505050506040513d6000823e601f3d908101601f191682016040526133989190810190615ac3565b905060006133a68783614893565b91506133b490508482610e93565b8611156121ee57600080fd5b826001600160a01b031663a9059cbb83836040518363ffffffff1660e01b815260040180836001600160a01b0316815260200182815260200192505050600060405180830381600087803b15801561341757600080fd5b505af115801561342b573d6000803e3d6000fd5b50505050610773614635565b61343f61564a565b6000613449614aaa565b6000858152602082815260408083208715158452825291829020825160a08101845281546001600160a01b038116825260ff600160a01b82048116151594830194909452600160b01b81048416600a0a9482019490945293945092916060830191600160a81b9091041660058111156134be57fe5b8152600060209091015295945050505050565b60006003836060015160058111156134e557fe5b14156134fc57506001600160a01b03811631610789565b82516040516370a0823160e01b81526001600160a01b03909116906370a082319061352b908590600401615c70565b60206040518083038186803b15801561354357600080fd5b505afa158015613557573d6000803e3d6000fd5b505050506040513d601f19601f82011682018060405250810190611d7f9190615bd1565b6000613585614856565b6001600160a01b038516600090815260208290526040902054909150838111156135ae57600080fd5b60006135c56135bc86610c8a565b61248c86610c8a565b90506135d46103b18383611689565b6001600160a01b039096166000908152602093909352505060409020929092555050565b60006305f5e10083604001511415613611575080610789565b6040830151610ea590611534846305f5e10061163b565b6000613632614ab7565b61ffff8516600090815260209190915260409020805490915064ffffffffff16421461365d57600080fd5b805460009061367c90600160281b90046001600160581b031685611689565b825490915060009061369e90600160801b90046001600160581b031685611689565b905080624c4b4013156136b057600080fd5b6136c16136bc82610c77565b614ac4565b83546001600160581b0391909116600160801b026affffffffffffffffffffff60801b199091161783556136f76136bc83610c77565b83546001600160581b0391909116600160281b026fffffffffffffffffffffff000000000019909116178355610ac483614ada565b81156112c05760006137596103b161374d61374686610c8a565b88906135f8565b61016089015190611512565b9050610ac48660000151858860400151613776856117fa88610c77565b85614ba5565b600080610789601a61262b565b60408051600280825260608201835260009260208301908036833750506040805160028082526060820183529394506000939092509060208301908036833701905050905060006137f086600001518760400151876040015164ffffffffff166000613e65565b9050600a60ff1681178360008151811061380657fe5b602002602001018181525050600960ff1681178360018151811061382657fe5b6020026020010181815250508660200151600014806138695750604085015164ffffffffff161580159061386957508660200151856040015164ffffffffff1614155b1561390b5784600001516001600160501b03168260008151811061388957fe5b60200260200101818152505084602001516001600160501b0316826001815181106138b057fe5b60200260200101818152505060006001600160a01b031687606001516001600160a01b0316336001600160a01b0316600080516020615f2883398151915286866040516138fe929190615da9565b60405180910390a4613b08565b846040015164ffffffffff1687602001511415613b085784516000906001600160501b031685108061394d575085602001516001600160501b03168860400151105b90508015613a1d5785516001600160501b0316851061396d57600061397c565b85516001600160501b03168590035b8360008151811061398957fe5b6020026020010181815250506139b9886040015187602001516001600160501b031661161090919063ffffffff16565b836001815181106139c657fe5b60200260200101818152505060006001600160a01b031688606001516001600160a01b0316336001600160a01b0316600080516020615f288339815191528787604051613a14929190615da9565b60405180910390a45b801580613a33575085516001600160501b031685115b15613b06578551613a4e9086906001600160501b0316611610565b83600081518110613a5b57fe5b602002602001018181525050876040015186602001516001600160501b031610613a86576000613aa2565b60208601516040890151613aa2916001600160501b0316611610565b83600181518110613aaf57fe5b60200260200101818152505087606001516001600160a01b031660006001600160a01b0316336001600160a01b0316600080516020615f288339815191528787604051613afd929190615da9565b60405180910390a45b505b602087015115801590613b2a57508660200151856040015164ffffffffff1614155b15613c10576000613b4a876000015188604001518a602001516000613e65565b9050600a60ff16811784600081518110613b6057fe5b602002602001018181525050600960ff16811784600181518110613b8057fe5b6020026020010181815250508483600081518110613b9a57fe5b602002602001018181525050876040015183600181518110613bb857fe5b60200260200101818152505087606001516001600160a01b031660006001600160a01b0316336001600160a01b0316600080516020615f288339815191528787604051613c06929190615da9565b60405180910390a4505b60808501516001600160501b031615610ac257606087015160808601516040516000926001600160a01b0316913391600080516020615f4883398151915291613c5e91600b88179190615eb6565b60405180910390a450505050505050565b600064ffffffffff821115610c8657600080fd5b600063ffffffff821115610c8657600080fd5b600080610789600261262b565b613cab615629565b600080613cb6614bfb565b61ffff861660009081526020828152604080832088845290915290208054600160f01b900460ff1693509091508215613d2d5780546001600160501b03600160a01b8204811691613d08911682612535565b85528154613d2690600160501b90046001600160501b031682612535565b6020860152505b50509250929050565b600081600013158015613d495750600a82125b15613d5657506000610789565b60008212613d6357600080fd5b610ea5600161248c85602001516115346ec097ce7bc90715b34b9f10000000008761163b90919063ffffffff16565b6000613d9e85856144c0565b90506000831215613db057600160401b175b60006001600160a01b03871633600080516020615f4883398151915284613dd688611c50565b604051613de4929190615e92565b60405180910390a46000613dfb6000841287614c08565b9050806001600160a01b03166323de66516105e789613e1987611c50565b6040518463ffffffff1660e01b8152600401613e3793929190615c9e565b600060405180830381600087803b158015613e5157600080fd5b505af11580156119ce573d6000803e3d6000fd5b68010000000000000000600160e01b03604085901b1667ffff000000000000603085901b1617600883901b178117949350505050565b613ea3615671565b6000613ead614ab7565b61ffff93841660009081526020918252604090819020805464ffffffffff81168652600160281b81046001600160581b03908116948701949094526001820154841692860192909252600160d81b820463ffffffff166060860152600160801b9091049091166080840152600201546001600160501b0380821660a0850152600160501b8204811660c0850152600160a01b82041660e0840152600160f01b900460ff1661012c02909216610100820152919050565b600080613f6f83614863565b6001600160a01b031663ef81f2166040518163ffffffff1660e01b81526004016040805180830381600087803b158015613fa857600080fd5b505af1158015613fbc573d6000803e3d6000fd5b505050506040513d601f19601f8201168201806040525081019061150a9190615be9565b613fe8615671565b6000806000613ff8888689614c68565b60c08b019290925260e08a01929092526020890151919350915061401c9083610e93565b602088015260808701516000901561404a576080880151614047906140418982611610565b90614d79565b90505b61406a61405f670de0b6b3a764000083610e93565b60a08a015190614d96565b60a089015250506080860194909452505082529092909150565b600061408e614ab7565b60008561ffff16815260200190815260200160002090506140b28260000151613c6f565b815464ffffffffff191664ffffffffff9190911617815560a08201516140d790611625565b6002820180546001600160501b0319166001600160501b039290921691909117905560c082015161410790611625565b81600201600a6101000a8154816001600160501b0302191690836001600160501b0316021790555061413c8260e00151611625565b8160020160146101000a8154816001600160501b0302191690836001600160501b031602179055506141718260200151614ac4565b81546001600160581b0391909116600160281b026fffffffffffffffffffffff00000000001990911617815560408201516141ab90614ac4565b6001820180546affffffffffffffffffffff19166001600160581b039290921691909117905560808201516141df90614ac4565b81546001600160581b0391909116600160801b026affffffffffffffffffffff60801b19909116178155606082015161421790613c83565b815463ffffffff91909116600160d81b0263ffffffff60d81b19909116178155821561426357600061424884610c8a565b90506142548582612721565b614261610fee86836146a2565b505b8361ffff167fef25641e225e493886510ca1ad6584fa7b442b9fea820a29d1de3ce27d270fd28360a001518460c001518560e001516040516142a793929190615ea0565b60405180910390a250505050565b6000610ea56142c4848461163b565b633b9aca00612644565b6000806142d9614db3565b6001600160a01b03851660009081526020828152604080832061ffff8816845290915281208054600160a81b9004600a90810b900b945091925083121561431f57600080fd5b505092915050565b600081121561433557600080fd5b600061433f614db3565b6001600160a01b03851660009081526020828152604080832061ffff88168452909152902090915061437083614dc0565b8154600a9190910b6001600160581b0316600160a81b026001600160a81b0390911617905550505050565b6000806143a66143ce565b6000938452602052505060409020546001600160a01b031690565b600080610789602261262b565b600080610789600361262b565b60408051600280825260608281019093528291600091816020016020820280368337019050509050600061440f87876144c0565b9050808260008151811061441f57fe5b602002602001018181525050600160401b81178260018151811061443f57fe5b60209081029190910101526040805160028082526060820190925260009181602001602082028036833701905050905061447886611c50565b8160008151811061448557fe5b60200260200101818152505061449a86611c50565b816001815181106144a757fe5b6020908102919091010152919791965090945050505050565b67ffff000000000000603083901b16600882901b1760011792915050565b60006144e8614ab7565b61ffff8516600090815260209190915260409020805490915064ffffffffff16421461451357600080fd5b8054600160f81b900460ff1661452857600080fd5b6001810154600090614543906001600160581b031685611689565b825490915060009061456590600160281b90046001600160581b031685611689565b9050816009191280156145785750600082125b1561458257600091505b806009191280156145935750600081125b1561459c575060005b6145a86136bc83610c77565b6001840180546affffffffffffffffffffff19166001600160581b03929092169190911790556145da6136bc82610c77565b83546001600160581b0391909116600160281b026fffffffffffffffffffffff000000000019909116178355614612878786886127d5565b610ac283614ada565b600080610789601761262b565b600080610789601861262b565b600061463f6156bd565b3d8015614653576020811461465c57600080fd5b60019250614667565b60206000833e815192505b5081610fb7576040805162461bcd60e51b8152602060048201526005602482015264045524332360dc1b604482015290519081900360640190fd5b60006146ac611c43565b61ffff8416600090815260209190915260409081902054905163ad1c095d60e01b81526001600160a01b039091169150819063ad1c095d906146f49087908690600401615d36565b600060405180830381600087803b15801561470e57600080fd5b505af11580156121ee573d6000803e3d6000fd5b600061472c614856565b6001600160a01b0384166000908152602082905260409020549091506147556103b18285611689565b6001600160a01b03909416600090815260209290925250604090209190915550565b600080614782614df2565b60009384526020525050604090205490565b60006276a7008210156147a657600080fd5b506276a7008106900390565b600081600114156147c757506276a7006109ec565b81600214156147da575062ed4e006109ec565b81600314156147ee57506301da9c006109ec565b816004141561480257506303b538006109ec565b816005141561481657506309450c006109ec565b816006141561482a575063128a18006109ec565b816007141561483e575063251430006109ec565b60405162461bcd60e51b8152600401611a5f90615df3565b600080610789602661262b565b60008061486e614dff565b61ffff939093166000908152602093909352505060409020546001600160a01b031690565b60008060005b8351811015614aa25760008482815181106148b057fe5b60200260200101519050600081606001516001600160a01b03166370a08231306040518263ffffffff1660e01b81526004016148ec9190615c70565b60206040518083038186803b15801561490457600080fd5b505afa158015614918573d6000803e3d6000fd5b505050506040513d601f19601f8201168201806040525081019061493c9190615bd1565b9050600061494a88306134d1565b905060005b8351518110156149a6576149958460000151828151811061496c57fe5b602002602001015160008660200151848151811061498657fe5b60200260200101516001614e0c565b61499e57600196505b60010161494f565b5060006149b389306134d1565b905060006149c18284611610565b905080856040015111156149d457600080fd5b60608501516040516370a0823160e01b81526000916001600160a01b0316906370a0823190614a07903090600401615c70565b60206040518083038186803b158015614a1f57600080fd5b505afa158015614a33573d6000803e3d6000fd5b505050506040513d601f19601f82011682018060405250810190614a579190615bd1565b905084811115614a6657600080fd5b614a758660600151868361357b565b614a7f8883610e93565b9750614a908b60000151858561357b565b50506001909401935061489992505050565b509250929050565b600080610789600761262b565b600080610789601d61262b565b60006001600160581b03821115610c8657600080fd5b80546002820154600091614b1c91600160281b9091046001600160581b031690614b16906001600160501b03600160501b82048116911661163b565b9061163b565b60018301546002840154919250600091614b56916001600160581b031690614b16906001600160501b03600160a01b82048116911661163b565b8354909150600090614b8d9060016001600160581b03600160801b909204821601166ec097ce7bc90715b34b9f100000000061163b565b905080614b9a848461270b565b1315610b7257600080fd5b6000614baf611c43565b61ffff85166000908152602091909152604090819020549051631cef4ba360e11b81526001600160a01b03909116915081906339de9746906128af908990899088908890600401615cc2565b600080610789601e61262b565b600082614c3a57614c17611c43565b61ffff8316600090815260209190915260409020546001600160a01b0316610ea5565b614c426143c1565b61ffff8316600090815260209190915260409020546001600160a01b0316905092915050565b600080600080600080614c7b898861507a565b89519095509193509150600090614ca290614c97908b90611610565b633b9aca0090612535565b9050614cdc614cd16301da9c00614cb98585612535565b81614cc057fe5b670de0b6b3a7640000919004610e93565b60e08a015190614d96565b9650614cfe614cf36301da9c00614cb98785612535565b60c08a015190614d96565b955081831415614d15575060009350614d70915050565b6000614d37614d2c6301da9c00614cb98786612535565b60e08b015190614d96565b90506000614d458983611610565b9050614d6888614d62838d6040015161253590919063ffffffff16565b90615115565b965050505050505b93509350935093565b6000610ea5614d9084670de0b6b3a7640000612535565b83615115565b6000610ea5614da58484612535565b670de0b6b3a7640000615115565b600080610789600661262b565b60006a7fffffffffffffffffffff198212801590614de957506a7fffffffffffffffffffff8213155b610c8657600080fd5b600080610789600961262b565b600080610789601f61262b565b6000806000866001600160a01b031686866040518082805190602001908083835b60208310614e4c5780518252601f199092019160209182019101614e2d565b6001836020036101000a03801982511681845116808217855250505050505090500191505060006040518083038185875af1925050503d8060008114614eae576040519150601f19603f3d011682016040523d82523d6000602084013e614eb3565b606091505b509150915083614f565781614ec782615134565b90614f505760405162461bcd60e51b81526004018080602001828103825283818151815260200191508051906020019080838360005b83811015614f15578181015183820152602001614efd565b50505050905090810190601f168015614f425780820380516001836020036101000a031916815260200191505b509250505060405180910390fd5b506130db565b866001600160a01b03167f3c7e398c5e91088cae639370e35b25ea669d81fbdf0def5388e73661bc34e08e8787614f8c85615134565b604051808481526020018060200180602001838103835285818151815260200191508051906020019080838360005b83811015614fd3578181015183820152602001614fbb565b50505050905090810190601f1680156150005780820380516001836020036101000a031916815260200191505b50838103825284518152845160209182019186019080838360005b8381101561503357818101518382015260200161501b565b50505050905090810190601f1680156150605780820380516001836020036101000a031916815260200191505b509550505050505060405180910390a25095945050505050565b6000806000806000856020015111156150c7576150c46150ab8660c00151876020015161253590919063ffffffff16565b60e087015160408801516150be91612535565b9061523b565b90505b60006150d28761524e565b90506150de8183615281565b945081156150f5576150f281866001615334565b93505b60208601511561510c5761510985836153ae565b92505b50509250925092565b600080821161512357600080fd5b81838161512c57fe5b049392505050565b606060448251101561516a575060408051808201909152600d81526c14da5b195b9d0814995d995c9d609a1b60208201526109ec565b600482018051909260240190602081101561518457600080fd5b81019080805160405193929190846401000000008211156151a457600080fd5b9083019060208201858111156151b957600080fd5b82516401000000008111828201881017156151d357600080fd5b82525081516020918201929091019080838360005b838110156152005781810151838201526020016151e8565b50505050905090810190601f16801561522d5780820380516001836020036101000a031916815260200191505b506040525050509050919050565b6000610ea5614d9084633b9aca00612535565b6152566156db565b60006152606153c7565b61ffff8416600090815260209190915260408120549150610ea590826153d4565b60008083608001511161529357600080fd5b633b9aca008211156152a457600080fd5b825182116152c35782516040840151611d7f9190614d62908590612535565b826020015182116152fb576040830151835160208501516060860151611d7f93926117fa9281900391614d6291880390859003612535565b610ea583606001516117fa8560200151633b9aca0003614d6287606001518860800151038860200151880361253590919063ffffffff16565b6000806153536064614d628760e001518761253590919063ffffffff16565b90508460a00151811015615368575060a08401515b8460c0015181111561537b575060c08401515b82156153925761538b8482610e93565b91506153a6565b8381116153a157808403610d70565b600091505b509392505050565b6000610ea56153bd8484612535565b633b9aca00615115565b600080610789601b61262b565b6153dc6156db565b6064633b9aca008360ff8616602081106153f257fe5b1a02816153fb57fe5b0481526064633b9aca008360ff86166001016020811061541757fe5b1a028161542057fe5b048160200181815250506154458260028560ff16016020811061543f57fe5b1a6154f3565b60808201819052610100908360ff86166003016020811061546257fe5b1a028161546b57fe5b0460408201526080810151610100908360ff86166004016020811061548c57fe5b1a028161549557fe5b0460608201526207a1208260ff8516600501602081106154b157fe5b1a0260a0820152622625a08260ff8516600601602081106154ce57fe5b1a0260c08201528160ff8416600701602081106154e757fe5b1a60e082015292915050565b60008160ff1660961061550e5760ff8216622625a0026109e9565b5060951960ff919091160162e4e1c00263165a0bc00190565b604051806101e0016040528060006001600160a01b03168152602001600061ffff168152602001600061ffff16815260200160008152602001600081526020016000815260200160008152602001600081526020016000815260200160008152602001615592615720565b815260200161559f615629565b8152602001600081526020016155b3615720565b8152602001600081525090565b6040518060c0016040528060008152602001600081526020016000815260200160006001600160a01b0316815260200160008152602001600081525090565b60405180608001604052806000815260200160008152602001600081526020016000151581525090565b60405180606001604052806000815260200160008152602001600081525090565b6040805160a0810182526000808252602082018190529181018290529060608201906155b3565b6040518061012001604052806000815260200160008152602001600081526020016000815260200160008152602001600081526020016000815260200160008152602001600081525090565b60405180602001604052806001906020820280368337509192915050565b60405180610100016040528060008152602001600081526020016000815260200160008152602001600081526020016000815260200160008152602001600081525090565b60405180604001604052806002906020820280368337509192915050565b80516109ec81615f0f565b600082601f830112615759578081fd5b8151602061576e61576983615ef1565b615ecd565b828152818101908583018385028701840188101561578a578586fd5b855b858110156157b157815161579f81615f0f565b8452928401929084019060010161578c565b5090979650505050505050565b6000601f83818401126157cf578182fd5b825160206157df61576983615ef1565b82815281810190868301865b8581101561588457815189018a603f820112615805578889fd5b8581015167ffffffffffffffff81111561581b57fe5b61582c818a01601f19168801615ecd565b81815260408d81848601011115615841578b8cfd5b8b5b8381101561585e578481018201518382018b01528901615843565b8381111561586e578c8a85850101525b50508652505092840192908401906001016157eb565b509098975050505050505050565b60008083601f8401126158a3578182fd5b50813567ffffffffffffffff8111156158ba578182fd5b6020830191508360208285010111156158d257600080fd5b9250929050565b803563ffffffff811681146109ec57600080fd5b600080604083850312156158ff578182fd5b823561590a81615f0f565b9150602083013561591a81615f0f565b809150509250929050565b60008060008060008060008060e0898b031215615940578384fd5b883561594b81615f0f565b9750602089013561595b81615f0f565b9650604089013561596b81615f0f565b9550606089013594506080890135935061598760a08a016158d9565b925060c089013567ffffffffffffffff8111156159a2578283fd5b6159ae8b828c01615892565b999c989b5096995094979396929594505050565b60008060008060008060008060e0898b0312156159dd578384fd5b88356159e881615f0f565b975060208901356159f881615f0f565b965060408901359550606089013594506080890135935061598760a08a016158d9565b60008060008060008060008060006101008a8c031215615a39578283fd5b8935615a4481615f0f565b985060208a0135615a5481615f0f565b975060408a0135965060608a0135955060808a01359450615a7760a08b016158d9565b9350615a8560c08b016158d9565b925060e08a013567ffffffffffffffff811115615aa0578182fd5b615aac8c828d01615892565b915080935050809150509295985092959850929598565b60006020808385031215615ad5578182fd5b825167ffffffffffffffff80821115615aec578384fd5b818501915085601f830112615aff578384fd5b8151615b0d61576982615ef1565b81815284810190848601875b84811015615bc257815187016080818d03601f19011215615b3857898afd5b60408051608081018181108a82111715615b4e57fe5b8252828b015189811115615b60578c8dfd5b615b6e8f8d83870101615749565b8252508183015189811115615b81578c8dfd5b615b8f8f8d838701016157be565b8c83015250606083015182820152615ba96080840161573e565b6060820152865250509287019290870190600101615b19565b50909998505050505050505050565b600060208284031215615be2578081fd5b5051919050565b60008060408385031215615bfb578182fd5b505080516020909101519092909150565b6000815180845260208085019450808401835b83811015615c3b57815187529582019590820190600101615c1f565b509495945050505050565b60008284528282602086013780602084860101526020601f19601f85011685010190509392505050565b6001600160a01b0391909116815260200190565b6001600160a01b0392831681529116602082015260400190565b6001600160a01b039384168152919092166020820152604081019190915260600190565b6001600160a01b0394851681529290931660208301526040820152606081019190915260800190565b600060018060a01b03808a16835280891660208401525086604083015285606083015284608083015260c060a0830152615d2960c083018486615c46565b9998505050505050505050565b6001600160a01b03929092168252602082015260400190565b6001600160a01b039390931683526020830191909152604082015260600190565b600060018060a01b038716825285602083015284604083015260806060830152615d9e608083018486615c46565b979650505050505050565b600060408252615dbc6040830185615c0c565b8281036020840152610d708185615c0c565b6020808252600b908201526a4554482042616c616e636560a81b604082015260600190565b6020808252600d908201526c092dcecc2d8d2c840d2dcc8caf609b1b604082015260600190565b6020808252600c908201526b4d617820436170616369747960a01b604082015260600190565b6020808252600a90820152694d696e20426f72726f7760b01b604082015260600190565b61ffff9390931683526001600160a01b03919091166020830152604082015260600190565b90815260200190565b918252602082015260400190565b9283526020830191909152604082015260600190565b9182526001600160501b0316602082015260400190565b60405181810167ffffffffffffffff81118282101715615ee957fe5b604052919050565b600067ffffffffffffffff821115615f0557fe5b5060209081020190565b6001600160a01b0381168114615f2457600080fd5b5056fe4a39dc06d4c0dbc64b70af90fd698a233a518aa5d07e595d983b8c0526c8f7fbc3d58168c5ae7397731d063d5bbf3d657854427343f4c083240f7aacaa2d0f62a2646970667358221220e0c7394cd00c763261e9c495a70c94b931e23284b67af01f0dea966b8b772ab964736f6c63430007060033","language":"Solidity","natspec":{"kind":"dev","methods":{"enterVault(address,address,uint256,uint256,uint256,uint32,bytes)":{"notice":"Borrows a specified amount of fCash in the vault's borrow currency and deposits it all plus the depositAmountExternal into the vault to mint strategy tokens.","params":{"account":"the address that will enter the vault","borrowAmount":"amount to borrow, for fCash maturities this is the fCash amount. For pCash maturities this is the underlying borrowed.","depositAmountExternal":"some amount of additional collateral in the borrowed currency to be transferred to vault","maturity":"the maturity to borrow at","maxBorrowRate":"maximum interest rate to borrow at, only applies as a slippage limit for fCash maturities","vault":"the vault to enter","vaultData":"additional data to pass to the vault contract"},"returns":{"vaultSharesAdded":"the total vault shares tokens added to the maturity. Allows enterVault to be used by off-chain methods to get an accurate simulation of the strategy tokens minted."}},"exitVault(address,address,address,uint256,uint256,uint32,bytes)":{"notice":"Allows an account to withdraw their position from the vault at any time. Will redeem some number of vault shares to the borrow currency and close the borrow position by lending. Any shortfall in cash from lending will be transferred from the account, any excess profits will be transferred to the account.","params":{"account":"the address that will exit the vault","exitVaultData":"passed to the vault during exit","lendAmount":"amount of fCash to lend if fixed, amount of underlying to lend if in pCash","minLendRate":"the minimum rate to lend at","receiver":"the address that will receive profits","vault":"the vault to enter","vaultSharesToRedeem":"amount of vault tokens to exit, only relevant when exiting pre-maturity"},"returns":{"underlyingToReceiver":"amount of underlying tokens returned to the receiver on exit"}},"rollVaultPosition(address,address,uint256,uint256,uint256,uint32,uint32,bytes)":{"notice":"Re-enters the vault at a different maturity. The account's existing borrow position will be closed and a new borrow position at the specified maturity will be opened. Strategy token holdings will transfer to the new maturity. Accounts can roll to longer or shorter dated maturities.","params":{"account":"the address that will reenter the vault","depositAmountExternal":"amount to deposit into the new maturity","maturity":"new maturity to borrow at","maxBorrowRate":"slippage protection for new borrow position","minLendRate":"slippage protection for repaying debts","newBorrowAmount":"amount of fCash to borrow in the next maturity","vault":"the vault to reenter"},"returns":{"vaultSharesAdded":"the total strategy tokens added to the maturity, including any tokens rolled from the previous maturity. Allows rollVaultPosition to be used by off-chain methods to get an accurate simulation of the strategy tokens minted."}},"settleVaultAccount(address,address)":{"notice":"Settles a matured vault account by transforming it from an fCash maturity into a prime cash account. This method is not authenticated, anyone can settle a vault account without permission. Generally speaking, this action is economically equivalent no matter when it is called. In some edge conditions when the vault is holding prime cash, it is advantageous for the vault account to have this called sooner. All vault account actions will first settle the vault account before taking any further actions.","params":{"account":"the address to settle","vault":"the vault the account is in"}}},"version":1},"opcodes":"PUSH1 0x80 PUSH1 0x40 MSTORE PUSH1 0x4 CALLDATASIZE LT PUSH2 0x7B JUMPI PUSH1 0x0 CALLDATALOAD PUSH1 0xE0 SHR DUP1 PUSH4 0x8DA5CB5B GT PUSH2 0x4E JUMPI DUP1 PUSH4 0x8DA5CB5B EQ PUSH2 0xF3 JUMPI DUP1 PUSH4 0x95C1A202 EQ PUSH2 0x108 JUMPI DUP1 PUSH4 0xC4C96DAE EQ PUSH2 0x11B JUMPI DUP1 PUSH4 0xEEC51108 EQ PUSH2 0x130 JUMPI PUSH2 0x7B JUMP JUMPDEST DUP1 PUSH4 0x24A3D622 EQ PUSH2 0x80 JUMPI DUP1 PUSH4 0x653B6104 EQ PUSH2 0xAB JUMPI DUP1 PUSH4 0x6CE48F01 EQ PUSH2 0xCB JUMPI DUP1 PUSH4 0x82463367 EQ PUSH2 0xDE JUMPI JUMPDEST PUSH1 0x0 DUP1 REVERT JUMPDEST CALLVALUE DUP1 ISZERO PUSH2 0x8C JUMPI PUSH1 0x0 DUP1 REVERT JUMPDEST POP PUSH2 0x95 PUSH2 0x152 JUMP JUMPDEST PUSH1 0x40 MLOAD PUSH2 0xA2 SWAP2 SWAP1 PUSH2 0x5C70 JUMP JUMPDEST PUSH1 0x40 MLOAD DUP1 SWAP2 SUB SWAP1 RETURN JUMPDEST PUSH2 0xBE PUSH2 0xB9 CALLDATASIZE PUSH1 0x4 PUSH2 0x5A1B JUMP JUMPDEST PUSH2 0x161 JUMP JUMPDEST PUSH1 0x40 MLOAD PUSH2 0xA2 SWAP2 SWAP1 PUSH2 0x5E89 JUMP JUMPDEST PUSH2 0xBE PUSH2 0xD9 CALLDATASIZE PUSH1 0x4 PUSH2 0x5925 JUMP JUMPDEST PUSH2 0x2FD JUMP JUMPDEST CALLVALUE DUP1 ISZERO PUSH2 0xEA JUMPI PUSH1 0x0 DUP1 REVERT JUMPDEST POP PUSH2 0x95 PUSH2 0x4F2 JUMP JUMPDEST CALLVALUE DUP1 ISZERO PUSH2 0xFF JUMPI PUSH1 0x0 DUP1 REVERT JUMPDEST POP PUSH2 0x95 PUSH2 0x501 JUMP JUMPDEST PUSH2 0xBE PUSH2 0x116 CALLDATASIZE PUSH1 0x4 PUSH2 0x59C2 JUMP JUMPDEST PUSH2 0x518 JUMP JUMPDEST CALLVALUE DUP1 ISZERO PUSH2 0x127 JUMPI PUSH1 0x0 DUP1 REVERT JUMPDEST POP PUSH2 0x95 PUSH2 0x666 JUMP JUMPDEST CALLVALUE DUP1 ISZERO PUSH2 0x13C JUMPI PUSH1 0x0 DUP1 REVERT JUMPDEST POP PUSH2 0x150 PUSH2 0x14B CALLDATASIZE PUSH1 0x4 PUSH2 0x58ED JUMP JUMPDEST PUSH2 0x67E JUMP JUMPDEST STOP JUMPDEST PUSH1 0x2 SLOAD PUSH1 0x1 PUSH1 0x1 PUSH1 0xA0 SHL SUB AND DUP2 JUMP JUMPDEST PUSH1 0x0 PUSH1 0x2 PUSH1 0xA SLOAD EQ ISZERO PUSH2 0x173 JUMPI PUSH1 0x0 DUP1 REVERT JUMPDEST PUSH1 0x2 PUSH1 0xA SSTORE PUSH1 0x0 PUSH2 0x183 DUP11 PUSH2 0x709 JUMP JUMPDEST SWAP1 POP PUSH2 0x191 DUP2 DUP13 PUSH1 0x10 PUSH2 0x734 JUMP JUMPDEST PUSH2 0x19C DUP2 PUSH1 0x80 PUSH2 0x778 JUMP JUMPDEST ISZERO PUSH2 0x1A7 JUMPI PUSH1 0x1 PUSH1 0xA SSTORE JUMPDEST PUSH1 0x0 PUSH2 0x1B3 DUP13 DUP4 PUSH2 0x78F JUMP JUMPDEST SWAP1 POP PUSH2 0x1BF DUP2 DUP4 PUSH2 0x83E JUMP JUMPDEST POP PUSH2 0x1CB DUP3 PUSH1 0x1 PUSH2 0x778 JUMP JUMPDEST PUSH2 0x1D4 JUMPI PUSH1 0x0 DUP1 REVERT JUMPDEST PUSH2 0x1DF DUP3 PUSH1 0x2 PUSH2 0x778 JUMP JUMPDEST PUSH2 0x1E8 JUMPI PUSH1 0x0 DUP1 REVERT JUMPDEST PUSH1 0x0 DUP11 GT PUSH2 0x1F5 JUMPI PUSH1 0x0 DUP1 REVERT JUMPDEST DUP9 DUP2 PUSH1 0x20 ADD MLOAD EQ ISZERO PUSH2 0x206 JUMPI PUSH1 0x0 DUP1 REVERT JUMPDEST DUP9 TIMESTAMP LT PUSH2 0x212 JUMPI PUSH1 0x0 DUP1 REVERT JUMPDEST PUSH1 0x0 PUSH2 0x222 DUP4 DUP4 PUSH1 0x20 ADD MLOAD PUSH2 0x8A5 JUMP JUMPDEST PUSH1 0x40 DUP4 ADD MLOAD SWAP5 POP SWAP1 POP PUSH2 0x237 DUP2 DUP4 DUP6 DUP8 PUSH2 0x930 JUMP JUMPDEST PUSH2 0x254 DUP4 DUP3 PUSH2 0x249 DUP6 PUSH1 0x0 ADD MLOAD PUSH2 0x9DB JUMP JUMPDEST DUP6 SWAP3 SWAP2 SWAP1 DUP13 TIMESTAMP PUSH2 0x9F1 JUMP JUMPDEST DUP2 MLOAD ISZERO PUSH2 0x260 JUMPI PUSH1 0x0 DUP1 REVERT JUMPDEST PUSH2 0x26A DUP2 DUP5 PUSH2 0xACC JUMP JUMPDEST PUSH2 0x275 DUP4 DUP4 DUP12 PUSH2 0xB78 JUMP JUMPDEST PUSH2 0x285 DUP3 DUP5 DUP13 DUP15 DUP12 DUP12 DUP12 DUP12 PUSH2 0xBD6 JUMP JUMPDEST SWAP4 POP ADDRESS PUSH1 0x1 PUSH1 0x1 PUSH1 0xA0 SHL SUB AND PUSH4 0xC9384F26 DUP14 DUP16 PUSH1 0x40 MLOAD DUP4 PUSH4 0xFFFFFFFF AND PUSH1 0xE0 SHL DUP2 MSTORE PUSH1 0x4 ADD PUSH2 0x2B5 SWAP3 SWAP2 SWAP1 PUSH2 0x5C84 JUMP JUMPDEST PUSH1 0x0 PUSH1 0x40 MLOAD DUP1 DUP4 SUB DUP2 PUSH1 0x0 DUP8 DUP1 EXTCODESIZE ISZERO DUP1 ISZERO PUSH2 0x2CF JUMPI PUSH1 0x0 DUP1 REVERT JUMPDEST POP GAS CALL ISZERO DUP1 ISZERO PUSH2 0x2E3 JUMPI RETURNDATASIZE PUSH1 0x0 DUP1 RETURNDATACOPY RETURNDATASIZE PUSH1 0x0 REVERT JUMPDEST POP POP PUSH1 0x1 PUSH1 0xA SSTORE POP SWAP4 SWAP14 SWAP13 POP POP POP POP POP POP POP POP POP POP POP POP POP JUMP JUMPDEST PUSH1 0x0 PUSH1 0x2 PUSH1 0xA SLOAD EQ ISZERO PUSH2 0x30F JUMPI PUSH1 0x0 DUP1 REVERT JUMPDEST PUSH1 0x2 PUSH1 0xA SSTORE PUSH1 0x0 PUSH2 0x31F DUP10 PUSH2 0x709 JUMP JUMPDEST SWAP1 POP PUSH2 0x32D DUP2 DUP12 PUSH1 0x8 PUSH2 0x734 JUMP JUMPDEST PUSH2 0x338 DUP2 PUSH1 0x80 PUSH2 0x778 JUMP JUMPDEST ISZERO PUSH2 0x343 JUMPI PUSH1 0x1 PUSH1 0xA SSTORE JUMPDEST PUSH1 0x0 PUSH2 0x34F DUP12 DUP4 PUSH2 0x78F JUMP JUMPDEST SWAP1 POP TIMESTAMP PUSH1 0x3C DUP3 PUSH1 0xA0 ADD MLOAD ADD GT ISZERO PUSH2 0x365 JUMPI PUSH1 0x0 DUP1 REVERT JUMPDEST PUSH2 0x36F DUP2 DUP4 PUSH2 0x83E JUMP JUMPDEST POP PUSH1 0x0 PUSH2 0x380 DUP4 DUP4 PUSH1 0x20 ADD MLOAD PUSH2 0x8A5 JUMP JUMPDEST PUSH1 0x20 DUP4 ADD MLOAD SWAP1 SWAP2 POP PUSH5 0xFFFFFFFFFF EQ DUP1 ISZERO PUSH2 0x39C JUMPI POP PUSH1 0x0 NOT DUP9 EQ JUMPDEST ISZERO PUSH2 0x3B9 JUMPI PUSH2 0x3B6 PUSH2 0x3B1 DUP4 PUSH1 0x0 ADD MLOAD PUSH2 0x9DB JUMP JUMPDEST PUSH2 0xC77 JUMP JUMPDEST SWAP8 POP JUMPDEST PUSH2 0x3D2 DUP4 DUP3 PUSH2 0x3C7 DUP12 PUSH2 0xC8A JUMP JUMPDEST DUP6 SWAP3 SWAP2 SWAP1 DUP12 TIMESTAMP PUSH2 0x9F1 JUMP JUMPDEST PUSH2 0x3DE DUP2 DUP4 DUP6 DUP13 PUSH2 0x930 JUMP JUMPDEST PUSH1 0x0 DUP3 PUSH1 0x80 ADD MLOAD SGT ISZERO PUSH2 0x424 JUMPI PUSH2 0x3FF DUP12 DUP12 DUP6 PUSH1 0x40 ADD MLOAD DUP6 PUSH1 0x80 ADD MLOAD PUSH2 0xCA0 JUMP JUMPDEST PUSH2 0x41A DUP11 DUP5 PUSH1 0x40 ADD MLOAD DUP5 PUSH1 0x80 ADD MLOAD DUP7 PUSH2 0x160 ADD MLOAD PUSH1 0x0 PUSH2 0xD46 JUMP JUMPDEST PUSH1 0x0 PUSH1 0x80 DUP5 ADD MSTORE SWAP4 POP JUMPDEST PUSH2 0x43C PUSH2 0x435 DUP5 DUP5 DUP14 DUP14 DUP12 DUP12 PUSH2 0xD79 JUMP JUMPDEST DUP6 SWAP1 PUSH2 0xE93 JUMP JUMPDEST SWAP4 POP PUSH2 0x448 DUP2 DUP5 PUSH2 0xACC JUMP JUMPDEST DUP2 MLOAD ISZERO DUP1 ISZERO PUSH2 0x459 JUMPI POP PUSH1 0x40 DUP3 ADD MLOAD ISZERO JUMPDEST ISZERO PUSH2 0x466 JUMPI PUSH1 0x0 PUSH1 0x20 DUP4 ADD MSTORE JUMPDEST PUSH2 0x473 DUP3 DUP5 PUSH1 0x1 DUP1 PUSH2 0xEAC JUMP JUMPDEST PUSH1 0x20 DUP3 ADD MLOAD ISZERO PUSH2 0x4DE JUMPI ADDRESS PUSH1 0x1 PUSH1 0x1 PUSH1 0xA0 SHL SUB AND PUSH4 0xC9384F26 DUP13 DUP15 PUSH1 0x40 MLOAD DUP4 PUSH4 0xFFFFFFFF AND PUSH1 0xE0 SHL DUP2 MSTORE PUSH1 0x4 ADD PUSH2 0x4AB SWAP3 SWAP2 SWAP1 PUSH2 0x5C84 JUMP JUMPDEST PUSH1 0x0 PUSH1 0x40 MLOAD DUP1 DUP4 SUB DUP2 PUSH1 0x0 DUP8 DUP1 EXTCODESIZE ISZERO DUP1 ISZERO PUSH2 0x4C5 JUMPI PUSH1 0x0 DUP1 REVERT JUMPDEST POP GAS CALL ISZERO DUP1 ISZERO PUSH2 0x4D9 JUMPI RETURNDATASIZE PUSH1 0x0 DUP1 RETURNDATACOPY RETURNDATASIZE PUSH1 0x0 REVERT JUMPDEST POP POP POP POP JUMPDEST POP POP PUSH1 0x1 PUSH1 0xA SSTORE POP SWAP9 SWAP8 POP POP POP POP POP POP POP POP JUMP JUMPDEST PUSH1 0x1 SLOAD PUSH1 0x1 PUSH1 0x1 PUSH1 0xA0 SHL SUB AND DUP2 JUMP JUMPDEST PUSH1 0x0 SLOAD PUSH5 0x100000000 SWAP1 DIV PUSH1 0x1 PUSH1 0x1 PUSH1 0xA0 SHL SUB AND DUP2 JUMP JUMPDEST PUSH1 0x0 PUSH1 0x2 PUSH1 0xA SLOAD EQ ISZERO PUSH2 0x52A JUMPI PUSH1 0x0 DUP1 REVERT JUMPDEST PUSH1 0x2 PUSH1 0xA SSTORE PUSH2 0x538 DUP10 PUSH2 0xF3C JUMP JUMPDEST DUP8 PUSH1 0x1 PUSH1 0x1 PUSH1 0xA0 SHL SUB AND DUP10 PUSH1 0x1 PUSH1 0x1 PUSH1 0xA0 SHL SUB AND EQ ISZERO PUSH2 0x557 JUMPI PUSH1 0x0 DUP1 REVERT JUMPDEST PUSH1 0x0 PUSH2 0x562 DUP10 PUSH2 0x709 JUMP JUMPDEST SWAP1 POP PUSH2 0x570 DUP2 DUP12 PUSH1 0x4 PUSH2 0x734 JUMP JUMPDEST PUSH2 0x57B DUP2 PUSH1 0x80 PUSH2 0x778 JUMP JUMPDEST ISZERO PUSH2 0x586 JUMPI PUSH1 0x1 PUSH1 0xA SSTORE JUMPDEST PUSH2 0x591 DUP2 PUSH1 0x1 PUSH2 0x778 JUMP JUMPDEST PUSH2 0x59A JUMPI PUSH1 0x0 DUP1 REVERT JUMPDEST DUP7 TIMESTAMP LT PUSH2 0x5A6 JUMPI PUSH1 0x0 DUP1 REVERT JUMPDEST PUSH1 0x0 PUSH2 0x5B2 DUP12 DUP4 PUSH2 0x78F JUMP JUMPDEST SWAP1 POP PUSH2 0x5BE DUP2 DUP4 PUSH2 0x83E JUMP JUMPDEST POP PUSH1 0x20 DUP2 ADD MLOAD ISZERO DUP1 PUSH2 0x5D3 JUMPI POP DUP8 DUP2 PUSH1 0x20 ADD MLOAD EQ JUMPDEST PUSH2 0x5DC JUMPI PUSH1 0x0 DUP1 REVERT JUMPDEST PUSH2 0x5E7 DUP3 DUP3 DUP12 PUSH2 0xB78 JUMP JUMPDEST PUSH2 0x5F8 DUP2 DUP4 DUP11 DUP11 DUP11 DUP11 DUP11 PUSH1 0x0 PUSH2 0xBD6 JUMP JUMPDEST PUSH1 0x40 MLOAD PUSH4 0x649C2793 PUSH1 0xE1 SHL DUP2 MSTORE SWAP1 SWAP4 POP ADDRESS SWAP1 PUSH4 0xC9384F26 SWAP1 PUSH2 0x620 SWAP1 DUP14 SWAP1 DUP16 SWAP1 PUSH1 0x4 ADD PUSH2 0x5C84 JUMP JUMPDEST PUSH1 0x0 PUSH1 0x40 MLOAD DUP1 DUP4 SUB DUP2 PUSH1 0x0 DUP8 DUP1 EXTCODESIZE ISZERO DUP1 ISZERO PUSH2 0x63A JUMPI PUSH1 0x0 DUP1 REVERT JUMPDEST POP GAS CALL ISZERO DUP1 ISZERO PUSH2 0x64E JUMPI RETURNDATASIZE PUSH1 0x0 DUP1 RETURNDATACOPY RETURNDATASIZE PUSH1 0x0 REVERT JUMPDEST POP POP PUSH1 0x1 PUSH1 0xA SSTORE POP SWAP3 SWAP12 SWAP11 POP POP POP POP POP POP POP POP POP POP POP JUMP JUMPDEST PUSH20 0x0 SWAP1 JUMP JUMPDEST PUSH1 0x2 PUSH1 0xA SLOAD EQ ISZERO PUSH2 0x68E JUMPI PUSH1 0x0 DUP1 REVERT JUMPDEST PUSH1 0x2 PUSH1 0xA SSTORE PUSH2 0x69C DUP3 PUSH2 0xF3C JUMP JUMPDEST DUP1 PUSH1 0x1 PUSH1 0x1 PUSH1 0xA0 SHL SUB AND DUP3 PUSH1 0x1 PUSH1 0x1 PUSH1 0xA0 SHL SUB AND EQ ISZERO PUSH2 0x6BB JUMPI PUSH1 0x0 DUP1 REVERT JUMPDEST PUSH1 0x0 PUSH2 0x6C6 DUP3 PUSH2 0x709 JUMP JUMPDEST SWAP1 POP PUSH1 0x0 PUSH2 0x6D4 DUP5 DUP4 PUSH2 0x78F JUMP JUMPDEST SWAP1 POP PUSH2 0x6E0 DUP2 DUP4 PUSH2 0xFBB JUMP JUMPDEST PUSH2 0x6E9 JUMPI PUSH1 0x0 DUP1 REVERT JUMPDEST PUSH2 0x6F3 DUP2 DUP4 PUSH2 0x1178 JUMP JUMPDEST POP PUSH2 0x6FE DUP2 DUP4 PUSH2 0x11F0 JUMP JUMPDEST POP POP PUSH1 0x1 PUSH1 0xA SSTORE POP POP JUMP JUMPDEST PUSH2 0x711 PUSH2 0x5527 JUMP JUMPDEST PUSH2 0x71A DUP3 PUSH2 0x12C7 JUMP JUMPDEST SWAP1 POP PUSH2 0x729 DUP2 PUSH1 0x40 ADD MLOAD PUSH2 0x14B5 JUMP JUMPDEST PUSH2 0x160 DUP3 ADD MSTORE SWAP2 SWAP1 POP JUMP JUMPDEST PUSH2 0x73E DUP4 DUP3 PUSH2 0x778 JUMP JUMPDEST ISZERO PUSH2 0x75E JUMPI DUP3 MLOAD PUSH1 0x1 PUSH1 0x1 PUSH1 0xA0 SHL SUB AND CALLER EQ PUSH2 0x759 JUMPI PUSH1 0x0 DUP1 REVERT JUMPDEST PUSH2 0x773 JUMP JUMPDEST PUSH1 0x1 PUSH1 0x1 PUSH1 0xA0 SHL SUB DUP3 AND CALLER EQ PUSH2 0x773 JUMPI PUSH1 0x0 DUP1 REVERT JUMPDEST POP POP POP JUMP JUMPDEST PUSH1 0x20 DUP3 ADD MLOAD PUSH2 0xFFFF DUP1 DUP4 AND SWAP2 DUP4 AND AND EQ JUMPDEST SWAP3 SWAP2 POP POP JUMP JUMPDEST PUSH2 0x797 PUSH2 0x55C0 JUMP JUMPDEST PUSH1 0x0 PUSH2 0x7A1 PUSH2 0x14C7 JUMP JUMPDEST PUSH1 0x1 PUSH1 0x1 PUSH1 0xA0 SHL SUB DUP1 DUP7 AND PUSH1 0x0 DUP2 DUP2 MSTORE PUSH1 0x20 DUP5 DUP2 MSTORE PUSH1 0x40 DUP1 DUP4 KECCAK256 DUP10 MLOAD SWAP1 SWAP6 AND DUP4 MSTORE SWAP4 DUP2 MSTORE SWAP1 DUP4 SWAP1 KECCAK256 DUP1 SLOAD PUSH5 0xFFFFFFFFFF PUSH1 0x1 PUSH1 0xA0 SHL DUP3 DIV AND SWAP3 DUP9 ADD DUP4 SWAP1 MSTORE PUSH1 0x1 PUSH1 0x1 PUSH1 0x50 SHL SUB PUSH1 0x1 PUSH1 0x50 SHL DUP3 DIV DUP2 AND SWAP6 DUP10 ADD SWAP6 SWAP1 SWAP6 MSTORE PUSH1 0x60 DUP9 ADD SWAP4 SWAP1 SWAP4 MSTORE PUSH1 0x1 DUP2 ADD SLOAD DUP5 AND PUSH1 0x80 DUP9 ADD MSTORE PUSH4 0xFFFFFFFF PUSH1 0x1 PUSH1 0xC8 SHL DUP5 DIV AND PUSH1 0xA0 DUP9 ADD MSTORE PUSH2 0x160 DUP9 ADD MLOAD SWAP5 SWAP6 POP SWAP4 PUSH2 0x833 SWAP4 SWAP1 SWAP3 AND PUSH2 0x14D4 JUMP JUMPDEST DUP4 MSTORE POP SWAP1 SWAP4 SWAP3 POP POP POP JUMP JUMPDEST PUSH1 0x0 PUSH2 0x84A DUP4 DUP4 PUSH2 0xFBB JUMP JUMPDEST SWAP1 POP DUP1 ISZERO DUP1 ISZERO PUSH2 0x862 JUMPI POP PUSH1 0x20 DUP4 ADD MLOAD PUSH5 0xFFFFFFFFFF EQ JUMPDEST ISZERO PUSH2 0x789 JUMPI PUSH2 0x89E DUP4 PUSH2 0x88F PUSH2 0x88A DUP7 PUSH1 0x0 ADD MLOAD DUP7 PUSH2 0x160 ADD MLOAD PUSH2 0x1512 SWAP1 SWAP2 SWAP1 PUSH4 0xFFFFFFFF AND JUMP JUMPDEST PUSH2 0x9DB JUMP JUMPDEST PUSH1 0x20 DUP7 ADD MLOAD DUP6 SWAP3 SWAP2 SWAP1 TIMESTAMP PUSH2 0x153A JUMP JUMPDEST POP SWAP3 SWAP2 POP POP JUMP JUMPDEST PUSH2 0x8AD PUSH2 0x55FF JUMP JUMPDEST PUSH1 0x0 PUSH2 0x8B7 PUSH2 0x1603 JUMP JUMPDEST DUP5 MLOAD PUSH1 0x1 PUSH1 0x1 PUSH1 0xA0 SHL SUB AND PUSH1 0x0 SWAP1 DUP2 MSTORE PUSH1 0x20 DUP3 DUP2 MSTORE PUSH1 0x40 DUP1 DUP4 KECCAK256 DUP8 DUP5 MSTORE SWAP1 SWAP2 MSTORE SWAP1 DUP2 SWAP1 KECCAK256 DUP6 DUP6 MSTORE DUP1 SLOAD PUSH1 0xFF PUSH1 0x1 PUSH1 0xF0 SHL DUP3 DIV AND ISZERO ISZERO PUSH1 0x60 DUP8 ADD MSTORE PUSH1 0x1 PUSH1 0x1 PUSH1 0x50 SHL SUB PUSH1 0x1 PUSH1 0xA0 SHL DUP3 DIV DUP2 AND SWAP4 DUP8 ADD SWAP4 SWAP1 SWAP4 MSTORE PUSH2 0x160 DUP9 ADD MLOAD SWAP4 SWAP5 POP SWAP1 SWAP3 PUSH2 0x922 SWAP3 SWAP1 SWAP2 DUP8 SWAP2 AND PUSH2 0x14D4 JUMP JUMPDEST PUSH1 0x20 DUP5 ADD MSTORE POP SWAP1 SWAP4 SWAP3 POP POP POP JUMP JUMPDEST DUP4 MLOAD PUSH1 0x20 DUP5 ADD MLOAD EQ PUSH2 0x941 JUMPI PUSH1 0x0 DUP1 REVERT JUMPDEST PUSH1 0x0 PUSH2 0x94B PUSH2 0x1603 JUMP JUMPDEST DUP4 MLOAD PUSH1 0x1 PUSH1 0x1 PUSH1 0xA0 SHL SUB AND PUSH1 0x0 SWAP1 DUP2 MSTORE PUSH1 0x20 DUP3 DUP2 MSTORE PUSH1 0x40 DUP1 DUP4 KECCAK256 DUP10 MLOAD DUP5 MSTORE SWAP1 SWAP2 MSTORE SWAP1 DUP2 SWAP1 KECCAK256 SWAP1 DUP8 ADD MLOAD SWAP2 SWAP3 POP SWAP1 PUSH2 0x982 SWAP1 DUP5 PUSH2 0x1610 JUMP JUMPDEST PUSH1 0x40 DUP1 DUP9 ADD SWAP2 SWAP1 SWAP2 MSTORE DUP6 ADD MLOAD PUSH2 0x998 SWAP1 DUP5 PUSH2 0x1610 JUMP JUMPDEST DUP6 PUSH1 0x40 ADD DUP2 DUP2 MSTORE POP POP PUSH2 0x9AE DUP7 PUSH1 0x40 ADD MLOAD PUSH2 0x1625 JUMP JUMPDEST DUP2 SLOAD PUSH1 0x1 PUSH1 0x1 PUSH1 0x50 SHL SUB SWAP2 SWAP1 SWAP2 AND PUSH1 0x1 PUSH1 0xA0 SHL MUL PUSH1 0x1 PUSH1 0xA0 SHL PUSH1 0x1 PUSH1 0xF0 SHL SUB NOT SWAP1 SWAP2 AND OR SWAP1 SSTORE POP POP POP POP POP JUMP JUMPDEST PUSH1 0x0 PUSH2 0x9E9 PUSH1 0x0 NOT DUP4 PUSH2 0x163B JUMP JUMPDEST SWAP1 POP JUMPDEST SWAP2 SWAP1 POP JUMP JUMPDEST DUP3 PUSH2 0x9FB JUMPI PUSH2 0xAC4 JUMP JUMPDEST DUP6 MLOAD PUSH1 0x0 SWAP1 PUSH2 0xA0A SWAP1 DUP6 PUSH2 0x1689 JUMP JUMPDEST SGT ISZERO PUSH2 0xA15 JUMPI PUSH1 0x0 DUP1 REVERT JUMPDEST DUP6 PUSH1 0x20 ADD MLOAD DUP2 LT PUSH2 0xA25 JUMPI PUSH1 0x0 DUP1 REVERT JUMPDEST PUSH1 0x20 DUP7 ADD MLOAD PUSH1 0x0 SWAP1 PUSH5 0xFFFFFFFFFF EQ PUSH2 0xA5B JUMPI PUSH2 0xA58 DUP7 PUSH1 0x40 ADD MLOAD DUP8 PUSH1 0x0 ADD MLOAD DUP10 PUSH1 0x20 ADD MLOAD DUP8 DUP8 DUP12 PUSH2 0x100 ADD MLOAD DUP9 PUSH2 0x169F JUMP JUMPDEST SWAP1 POP JUMPDEST DUP1 PUSH2 0xAA8 JUMPI PUSH2 0x160 DUP7 ADD MLOAD PUSH2 0xA74 SWAP1 PUSH2 0x88A SWAP1 DUP7 PUSH2 0x1512 JUMP JUMPDEST PUSH1 0x20 DUP9 ADD MLOAD SWAP1 SWAP2 POP PUSH5 0xFFFFFFFFFF EQ PUSH2 0xAA8 JUMPI PUSH2 0xAA8 DUP7 PUSH1 0x0 ADD MLOAD DUP8 PUSH1 0x40 ADD MLOAD DUP10 PUSH1 0x20 ADD MLOAD PUSH2 0xAA2 DUP6 PUSH2 0x9DB JUMP JUMPDEST DUP9 PUSH2 0x17AD JUMP JUMPDEST PUSH1 0x0 DUP2 SGT ISZERO PUSH2 0xAB6 JUMPI PUSH1 0x0 DUP1 REVERT JUMPDEST PUSH2 0xAC2 DUP8 DUP7 DUP7 DUP5 PUSH2 0x1891 JUMP JUMPDEST POP JUMPDEST POP POP POP POP POP POP JUMP JUMPDEST PUSH1 0x0 PUSH2 0xAD6 PUSH2 0x1603 JUMP JUMPDEST DUP3 MLOAD PUSH1 0x1 PUSH1 0x1 PUSH1 0xA0 SHL SUB AND PUSH1 0x0 SWAP1 DUP2 MSTORE PUSH1 0x20 DUP3 DUP2 MSTORE PUSH1 0x40 DUP1 DUP4 KECCAK256 DUP8 MLOAD DUP5 MSTORE SWAP1 SWAP2 MSTORE SWAP1 DUP2 SWAP1 KECCAK256 SWAP1 DUP6 ADD MLOAD SWAP2 SWAP3 POP SWAP1 PUSH2 0xB0C SWAP1 PUSH2 0x1625 JUMP JUMPDEST DUP2 SLOAD PUSH1 0x60 DUP7 ADD MLOAD DUP1 ISZERO ISZERO PUSH1 0x1 PUSH1 0xF0 SHL MUL PUSH1 0xFF PUSH1 0xF0 SHL NOT PUSH1 0x1 PUSH1 0x1 PUSH1 0x50 SHL SUB SWAP5 SWAP1 SWAP5 AND PUSH1 0x1 PUSH1 0xA0 SHL MUL PUSH1 0x1 PUSH1 0xA0 SHL PUSH1 0x1 PUSH1 0xF0 SHL SUB NOT SWAP1 SWAP4 AND SWAP3 SWAP1 SWAP3 OR SWAP3 SWAP1 SWAP3 AND OR DUP3 SSTORE PUSH2 0x160 DUP5 ADD MLOAD PUSH1 0x40 DUP6 ADD MLOAD DUP7 MLOAD PUSH1 0x20 DUP9 ADD MLOAD PUSH2 0xB72 SWAP5 DUP7 SWAP5 SWAP4 DUP10 SWAP4 SWAP1 SWAP3 SWAP1 SWAP2 PUSH2 0x18FC JUMP JUMPDEST POP POP POP POP JUMP JUMPDEST PUSH1 0x0 PUSH2 0xB9D DUP4 PUSH1 0x60 ADD MLOAD DUP6 PUSH1 0x40 ADD MLOAD PUSH2 0xB90 DUP6 PUSH2 0xC8A JUMP JUMPDEST DUP8 PUSH2 0x160 ADD MLOAD PUSH1 0x0 PUSH2 0x19DB JUMP JUMPDEST PUSH1 0x80 DUP6 ADD MLOAD SWAP1 SWAP3 POP PUSH2 0xBB0 SWAP2 POP DUP3 PUSH2 0x1689 JUMP JUMPDEST PUSH1 0x80 DUP5 ADD MSTORE PUSH1 0x0 DUP2 SGT ISZERO PUSH2 0xB72 JUMPI PUSH2 0xB72 DUP4 PUSH1 0x60 ADD MLOAD DUP6 PUSH1 0x0 ADD MLOAD DUP7 PUSH1 0x40 ADD MLOAD DUP5 PUSH2 0xCA0 JUMP JUMPDEST PUSH1 0x0 DUP7 DUP10 PUSH1 0x20 ADD MLOAD EQ DUP1 PUSH2 0xBE9 JUMPI POP DUP9 MLOAD ISZERO JUMPDEST PUSH2 0xBF2 JUMPI PUSH1 0x0 DUP1 REVERT JUMPDEST PUSH1 0x0 PUSH2 0xBFE DUP10 DUP10 PUSH2 0x8A5 JUMP JUMPDEST SWAP1 POP DUP7 ISZERO PUSH2 0xC24 JUMPI PUSH2 0xC1F DUP11 DUP11 DUP4 DUP12 PUSH2 0xC19 PUSH2 0x88A DUP14 PUSH2 0xC8A JUMP JUMPDEST DUP12 PUSH2 0x1AA6 JUMP JUMPDEST PUSH2 0xC47 JUMP JUMPDEST PUSH5 0xFFFFFFFFFF DUP9 EQ PUSH2 0xC47 JUMPI PUSH2 0xC45 DUP10 PUSH1 0x40 ADD MLOAD DUP10 DUP12 PUSH2 0x100 ADD MLOAD TIMESTAMP PUSH2 0x1B51 JUMP JUMPDEST POP JUMPDEST PUSH2 0xC55 DUP2 DUP12 DUP12 DUP7 DUP10 DUP10 PUSH2 0x1B9A JUMP JUMPDEST TIMESTAMP PUSH1 0xA0 DUP13 ADD MSTORE SWAP2 POP PUSH2 0xC6A DUP11 DUP11 PUSH1 0x1 DUP1 PUSH2 0xEAC JUMP JUMPDEST POP SWAP9 SWAP8 POP POP POP POP POP POP POP POP JUMP JUMPDEST PUSH1 0x0 DUP1 DUP3 SLT ISZERO PUSH2 0xC86 JUMPI PUSH1 0x0 DUP1 REVERT JUMPDEST POP SWAP1 JUMP JUMPDEST PUSH1 0x0 PUSH1 0x1 PUSH1 0x1 PUSH1 0xFF SHL SUB DUP3 GT ISZERO PUSH2 0xC86 JUMPI PUSH1 0x0 DUP1 REVERT JUMPDEST PUSH1 0x0 PUSH2 0xCAA PUSH2 0x1C43 JUMP JUMPDEST PUSH2 0xFFFF DUP5 AND PUSH1 0x0 SWAP1 DUP2 MSTORE PUSH1 0x20 SWAP2 SWAP1 SWAP2 MSTORE PUSH1 0x40 DUP2 KECCAK256 SLOAD PUSH1 0x1 PUSH1 0x1 PUSH1 0xA0 SHL SUB AND SWAP2 POP DUP3 SLT ISZERO PUSH2 0xCD5 JUMPI SWAP3 SWAP4 SWAP3 JUMPDEST DUP1 PUSH1 0x1 PUSH1 0x1 PUSH1 0xA0 SHL SUB AND PUSH4 0x23DE6651 DUP7 DUP7 PUSH2 0xCEF DUP7 PUSH2 0x1C50 JUMP JUMPDEST PUSH1 0x40 MLOAD DUP5 PUSH4 0xFFFFFFFF AND PUSH1 0xE0 SHL DUP2 MSTORE PUSH1 0x4 ADD PUSH2 0xD0D SWAP4 SWAP3 SWAP2 SWAP1 PUSH2 0x5C9E JUMP JUMPDEST PUSH1 0x0 PUSH1 0x40 MLOAD DUP1 DUP4 SUB DUP2 PUSH1 0x0 DUP8 DUP1 EXTCODESIZE ISZERO DUP1 ISZERO PUSH2 0xD27 JUMPI PUSH1 0x0 DUP1 REVERT JUMPDEST POP GAS CALL ISZERO DUP1 ISZERO PUSH2 0xD3B JUMPI RETURNDATASIZE PUSH1 0x0 DUP1 RETURNDATACOPY RETURNDATASIZE PUSH1 0x0 REVERT JUMPDEST POP POP POP POP POP POP POP POP POP JUMP JUMPDEST PUSH1 0x0 DUP1 PUSH2 0xD5E DUP8 DUP8 PUSH2 0xD57 DUP9 PUSH2 0x9DB JUMP JUMPDEST DUP8 DUP8 PUSH2 0x1C71 JUMP JUMPDEST SWAP1 POP PUSH2 0xD6C PUSH2 0x3B1 DUP3 PUSH2 0x9DB JUMP JUMPDEST SWAP2 POP POP JUMPDEST SWAP6 SWAP5 POP POP POP POP POP JUMP JUMPDEST PUSH1 0x0 DUP1 PUSH1 0x0 DUP1 PUSH2 0xD90 DUP11 PUSH1 0x40 ADD MLOAD PUSH2 0xFFFF AND PUSH2 0x1D19 JUMP JUMPDEST SWAP1 POP PUSH1 0x0 DUP10 PUSH1 0x80 ADD MLOAD SLT ISZERO PUSH2 0xDD7 JUMPI PUSH1 0x0 PUSH2 0xDC0 PUSH2 0x88A DUP12 PUSH1 0x80 ADD MLOAD DUP14 PUSH2 0x160 ADD MLOAD PUSH2 0x1D2C SWAP1 SWAP2 SWAP1 PUSH4 0xFFFFFFFF AND JUMP JUMPDEST SWAP1 POP PUSH2 0xDCF PUSH2 0x3B1 DUP4 DUP4 PUSH2 0x1D58 JUMP JUMPDEST SWAP3 POP POP PUSH2 0xDE6 JUMP JUMPDEST PUSH1 0x80 DUP10 ADD MLOAD ISZERO PUSH2 0xDE6 JUMPI PUSH1 0x0 DUP1 REVERT JUMPDEST PUSH2 0xDFF DUP11 DUP3 DUP12 PUSH1 0x60 ADD MLOAD DUP12 DUP12 DUP15 PUSH1 0x20 ADD MLOAD DUP9 DUP14 DUP14 PUSH2 0x1D95 JUMP JUMPDEST POP SWAP5 POP SWAP3 POP POP DUP1 DUP3 LT ISZERO PUSH2 0xE6F JUMPI PUSH1 0x0 DUP3 DUP3 SUB SWAP1 POP PUSH1 0x0 DUP1 PUSH2 0xE3A DUP12 PUSH1 0x60 ADD MLOAD DUP14 PUSH1 0x40 ADD MLOAD PUSH2 0xE2D DUP7 PUSH2 0xC8A JUMP JUMPDEST DUP16 PUSH2 0x160 ADD MLOAD PUSH1 0x0 PUSH2 0x19DB JUMP JUMPDEST SWAP2 POP SWAP2 POP PUSH2 0xE51 PUSH2 0xE4A DUP4 PUSH2 0xC77 JUMP JUMPDEST DUP7 SWAP1 PUSH2 0xE93 JUMP JUMPDEST SWAP5 POP PUSH2 0xE6B DUP12 PUSH1 0x60 ADD MLOAD DUP14 PUSH1 0x0 ADD MLOAD DUP15 PUSH1 0x40 ADD MLOAD DUP5 PUSH2 0xCA0 JUMP JUMPDEST POP POP POP JUMPDEST DUP1 DUP3 LT ISZERO PUSH2 0xE7C JUMPI PUSH1 0x0 DUP1 REVERT JUMPDEST PUSH1 0x0 DUP9 PUSH1 0x80 ADD DUP2 DUP2 MSTORE POP POP POP POP SWAP7 SWAP6 POP POP POP POP POP POP JUMP JUMPDEST PUSH1 0x0 DUP3 DUP3 ADD DUP4 DUP2 LT ISZERO PUSH2 0xEA5 JUMPI PUSH1 0x0 DUP1 REVERT JUMPDEST SWAP4 SWAP3 POP POP POP JUMP JUMPDEST PUSH1 0x0 PUSH2 0xEB6 PUSH2 0x14C7 JUMP JUMPDEST PUSH1 0x60 DUP7 ADD MLOAD PUSH1 0x1 PUSH1 0x1 PUSH1 0xA0 SHL SUB SWAP1 DUP2 AND PUSH1 0x0 SWAP1 DUP2 MSTORE PUSH1 0x20 DUP4 DUP2 MSTORE PUSH1 0x40 DUP1 DUP4 KECCAK256 DUP10 MLOAD SWAP1 SWAP5 AND DUP4 MSTORE SWAP3 SWAP1 MSTORE KECCAK256 SWAP1 SWAP2 POP PUSH2 0xEF0 DUP7 DUP7 DUP4 DUP8 DUP8 PUSH2 0x1EB5 JUMP JUMPDEST PUSH1 0x1 DUP2 ADD DUP1 SLOAD PUSH1 0x1 PUSH1 0x1 PUSH1 0x50 SHL SUB NOT AND SWAP1 DUP2 SWAP1 SSTORE PUSH1 0x1 PUSH1 0x50 SHL SWAP1 DIV PUSH1 0x1 PUSH1 0x1 PUSH1 0x50 SHL SUB AND ISZERO DUP1 ISZERO PUSH2 0xF33 JUMPI POP PUSH1 0x1 DUP2 ADD SLOAD PUSH1 0x1 PUSH1 0xA0 SHL SWAP1 DIV PUSH1 0x1 PUSH1 0x1 PUSH1 0x50 SHL SUB AND ISZERO JUMPDEST PUSH2 0xAC4 JUMPI PUSH1 0x0 DUP1 REVERT JUMPDEST PUSH1 0x1 PUSH1 0x1 PUSH1 0xA0 SHL SUB DUP2 AND PUSH2 0xF4F JUMPI PUSH1 0x0 DUP1 REVERT JUMPDEST PUSH1 0x1 PUSH1 0x1 PUSH1 0xA0 SHL SUB DUP2 AND PUSH2 0xFEE EQ ISZERO PUSH2 0xF67 JUMPI PUSH1 0x0 DUP1 REVERT JUMPDEST PUSH1 0x1 PUSH1 0x1 PUSH1 0xA0 SHL SUB DUP2 AND PUSH2 0x5E7 EQ ISZERO PUSH2 0xF7F JUMPI PUSH1 0x0 DUP1 REVERT JUMPDEST PUSH1 0x1 PUSH1 0x1 PUSH1 0xA0 SHL SUB DUP2 AND ADDRESS EQ ISZERO PUSH2 0xF95 JUMPI PUSH1 0x0 DUP1 REVERT JUMPDEST PUSH1 0x0 PUSH2 0xFA0 DUP3 PUSH2 0x2123 JUMP JUMPDEST POP POP POP POP PUSH2 0xFFFF AND SWAP1 POP DUP1 PUSH1 0x0 EQ PUSH2 0xFB7 JUMPI PUSH1 0x0 DUP1 REVERT JUMPDEST POP POP JUMP JUMPDEST PUSH1 0x0 DUP3 PUSH1 0x20 ADD MLOAD PUSH1 0x0 EQ DUP1 PUSH2 0xFD3 JUMPI POP DUP3 PUSH1 0x20 ADD MLOAD TIMESTAMP LT JUMPDEST ISZERO PUSH2 0xFE0 JUMPI POP PUSH1 0x0 PUSH2 0x789 JUMP JUMPDEST PUSH1 0x0 PUSH2 0xFF0 DUP4 DUP6 PUSH1 0x20 ADD MLOAD PUSH2 0x8A5 JUMP JUMPDEST SWAP1 POP PUSH1 0x0 PUSH2 0xFFC PUSH2 0x1603 JUMP JUMPDEST DUP5 MLOAD PUSH1 0x1 PUSH1 0x1 PUSH1 0xA0 SHL SUB AND PUSH1 0x0 SWAP1 DUP2 MSTORE PUSH1 0x20 SWAP2 DUP3 MSTORE PUSH1 0x40 DUP1 DUP3 KECCAK256 PUSH5 0xFFFFFFFFFF DUP4 MSTORE SWAP1 SWAP3 MSTORE KECCAK256 PUSH1 0x60 DUP4 ADD MLOAD SWAP1 SWAP2 POP PUSH2 0x1063 JUMPI PUSH2 0x104B DUP2 DUP6 PUSH1 0x0 ADD MLOAD DUP7 PUSH1 0x40 ADD MLOAD DUP6 PUSH1 0x0 ADD MLOAD DUP7 PUSH1 0x20 ADD MLOAD PUSH2 0x218F JUMP JUMPDEST PUSH1 0x0 PUSH1 0x20 DUP4 ADD MSTORE PUSH1 0x1 PUSH1 0x60 DUP4 ADD MSTORE PUSH2 0x1063 DUP3 DUP6 PUSH2 0xACC JUMP JUMPDEST PUSH2 0x106F DUP3 DUP7 DUP7 DUP5 PUSH2 0x21F8 JUMP JUMPDEST PUSH2 0x1078 DUP5 PUSH2 0x230A JUMP JUMPDEST ISZERO PUSH2 0x10D8 JUMPI DUP4 MLOAD PUSH1 0x60 DUP7 ADD MLOAD PUSH1 0x40 MLOAD PUSH4 0x4140F635 PUSH1 0xE1 SHL DUP2 MSTORE ADDRESS SWAP3 PUSH4 0x8281EC6A SWAP3 PUSH2 0x10A5 SWAP3 PUSH1 0x4 ADD PUSH2 0x5C84 JUMP JUMPDEST PUSH1 0x0 PUSH1 0x40 MLOAD DUP1 DUP4 SUB DUP2 PUSH1 0x0 DUP8 DUP1 EXTCODESIZE ISZERO DUP1 ISZERO PUSH2 0x10BF JUMPI PUSH1 0x0 DUP1 REVERT JUMPDEST POP GAS CALL ISZERO DUP1 ISZERO PUSH2 0x10D3 JUMPI RETURNDATASIZE PUSH1 0x0 DUP1 RETURNDATACOPY RETURNDATASIZE PUSH1 0x0 REVERT JUMPDEST POP POP POP POP JUMPDEST PUSH1 0x0 PUSH2 0x10F3 DUP6 PUSH1 0x40 ADD MLOAD DUP8 PUSH1 0x20 ADD MLOAD DUP9 PUSH1 0x0 ADD MLOAD PUSH1 0x0 PUSH2 0x2333 JUMP JUMPDEST SWAP1 POP PUSH2 0x1114 DUP6 PUSH2 0x160 ADD MLOAD DUP4 DUP8 PUSH1 0x40 ADD MLOAD DUP9 PUSH1 0x0 ADD MLOAD DUP11 PUSH1 0x80 ADD MLOAD DUP7 PUSH2 0x2378 JUMP JUMPDEST PUSH1 0x80 DUP9 ADD MSTORE PUSH1 0x20 DUP8 ADD DUP1 MLOAD PUSH1 0xA0 DUP10 ADD MSTORE PUSH5 0xFFFFFFFFFF SWAP1 MSTORE PUSH2 0x160 DUP7 ADD MLOAD SWAP1 SWAP2 POP PUSH2 0x113F SWAP1 DUP3 PUSH2 0x2441 JUMP JUMPDEST DUP1 DUP8 MSTORE PUSH2 0x160 DUP7 ADD MLOAD PUSH2 0x116B SWAP2 DUP9 SWAP2 PUSH2 0x115C SWAP2 PUSH2 0x88A SWAP2 SWAP1 PUSH2 0x1512 JUMP JUMPDEST DUP8 SWAP2 SWAP1 PUSH5 0xFFFFFFFFFF TIMESTAMP PUSH2 0x153A JUMP JUMPDEST POP PUSH1 0x1 SWAP7 SWAP6 POP POP POP POP POP POP JUMP JUMPDEST PUSH2 0x1180 PUSH2 0x55FF JUMP JUMPDEST PUSH1 0x20 DUP4 ADD MLOAD PUSH5 0xFFFFFFFFFF EQ PUSH2 0x1195 JUMPI PUSH1 0x0 DUP1 REVERT JUMPDEST PUSH2 0x11A4 DUP3 PUSH5 0xFFFFFFFFFF PUSH2 0x8A5 JUMP JUMPDEST SWAP1 POP PUSH1 0x0 DUP4 PUSH1 0x80 ADD MLOAD SLT ISZERO PUSH2 0x11E6 JUMPI PUSH2 0x11E6 DUP4 DUP3 PUSH2 0x11D4 DUP7 PUSH1 0x80 ADD MLOAD DUP7 PUSH2 0x160 ADD MLOAD PUSH2 0x1D2C SWAP1 SWAP2 SWAP1 PUSH4 0xFFFFFFFF AND JUMP JUMPDEST PUSH2 0x11E1 DUP8 PUSH1 0x80 ADD MLOAD PUSH2 0x9DB JUMP JUMPDEST PUSH2 0x1891 JUMP JUMPDEST PUSH2 0x789 DUP2 DUP4 PUSH2 0xACC JUMP JUMPDEST PUSH1 0x80 DUP3 ADD DUP1 MLOAD PUSH1 0x0 SWAP2 DUP3 SWAP1 MSTORE SWAP1 PUSH2 0x1205 PUSH2 0x14C7 JUMP JUMPDEST PUSH1 0x60 DUP6 ADD MLOAD PUSH1 0x1 PUSH1 0x1 PUSH1 0xA0 SHL SUB SWAP1 DUP2 AND PUSH1 0x0 SWAP1 DUP2 MSTORE PUSH1 0x20 DUP4 DUP2 MSTORE PUSH1 0x40 DUP1 DUP4 KECCAK256 DUP9 MLOAD SWAP1 SWAP5 AND DUP4 MSTORE SWAP3 SWAP1 MSTORE SWAP1 DUP2 KECCAK256 SWAP2 SWAP3 POP PUSH2 0x1245 SWAP1 DUP7 SWAP1 DUP7 SWAP1 DUP5 SWAP1 PUSH1 0x1 PUSH2 0x1EB5 JUMP JUMPDEST DUP3 PUSH2 0x1261 JUMPI PUSH1 0x1 DUP2 ADD DUP1 SLOAD PUSH1 0x1 PUSH1 0x1 PUSH1 0x50 SHL SUB NOT AND SWAP1 SSTORE PUSH2 0x12C0 JUMP JUMPDEST DUP3 PUSH1 0x0 SLT ISZERO PUSH2 0x12C0 JUMPI PUSH2 0x127B PUSH2 0x1276 DUP5 PUSH2 0xC77 JUMP JUMPDEST PUSH2 0x1625 JUMP JUMPDEST DUP2 PUSH1 0x1 ADD PUSH1 0x0 PUSH2 0x100 EXP DUP2 SLOAD DUP2 PUSH1 0x1 PUSH1 0x1 PUSH1 0x50 SHL SUB MUL NOT AND SWAP1 DUP4 PUSH1 0x1 PUSH1 0x1 PUSH1 0x50 SHL SUB AND MUL OR SWAP1 SSTORE POP PUSH2 0x12C0 DUP6 PUSH1 0x60 ADD MLOAD DUP6 PUSH1 0x0 ADD MLOAD DUP7 PUSH1 0x40 ADD MLOAD DUP9 PUSH1 0x20 ADD MLOAD DUP8 PUSH2 0x2492 JUMP JUMPDEST POP POP POP POP POP JUMP JUMPDEST PUSH2 0x12CF PUSH2 0x5527 JUMP JUMPDEST PUSH1 0x0 PUSH2 0x12D9 PUSH2 0x2528 JUMP JUMPDEST PUSH1 0x1 PUSH1 0x1 PUSH1 0xA0 SHL SUB DUP5 AND PUSH1 0x0 DUP2 DUP2 MSTORE PUSH1 0x20 DUP4 DUP2 MSTORE PUSH1 0x40 SWAP2 DUP3 SWAP1 KECCAK256 SWAP3 DUP7 MSTORE DUP3 SLOAD PUSH2 0xFFFF DUP1 DUP3 AND SWAP3 DUP9 ADD SWAP3 SWAP1 SWAP3 MSTORE PUSH3 0x10000 SWAP1 DIV AND SWAP1 DUP6 ADD MSTORE SWAP1 SWAP2 POP PUSH2 0x1335 PUSH2 0x2710 PUSH4 0x3B9ACA00 DUP4 SLOAD PUSH1 0x1 PUSH1 0x50 SHL SWAP1 DIV PUSH1 0xFF AND SWAP2 SWAP1 SDIV PUSH1 0x5 MUL PUSH2 0x2535 JUMP JUMPDEST PUSH1 0x80 DUP5 ADD MSTORE DUP1 SLOAD PUSH2 0x1354 SWAP1 PUSH1 0x1 PUSH1 0x40 SHL SWAP1 DIV PUSH2 0xFFFF AND PUSH3 0x186A0 PUSH2 0x2535 JUMP JUMPDEST PUSH1 0xA0 DUP5 ADD MSTORE DUP1 SLOAD PUSH2 0x1373 SWAP1 PUSH1 0x1 PUSH1 0x70 SHL SWAP1 DIV PUSH2 0xFFFF AND PUSH3 0x186A0 PUSH2 0x2535 JUMP JUMPDEST PUSH2 0x120 DUP5 ADD MSTORE PUSH1 0x2 DUP2 ADD SLOAD PUSH2 0x138F SWAP1 PUSH2 0xFFFF AND PUSH3 0x186A0 PUSH2 0x2535 JUMP JUMPDEST PUSH2 0x180 DUP5 ADD MSTORE DUP1 SLOAD PUSH1 0x64 SWAP1 PUSH1 0xFF PUSH1 0x1 PUSH1 0x58 SHL SWAP1 SWAP2 DIV AND PUSH4 0x3B9ACA00 MUL SDIV PUSH1 0xC0 DUP5 ADD MSTORE DUP1 SLOAD PUSH1 0x1 PUSH1 0x60 SHL DUP2 DIV PUSH1 0xFF SWAP1 DUP2 AND PUSH1 0xE0 DUP7 ADD MSTORE PUSH1 0x1 PUSH1 0x68 SHL SWAP1 SWAP2 DIV AND PUSH2 0x100 DUP5 ADD MSTORE PUSH1 0x40 DUP1 MLOAD DUP1 DUP3 ADD SWAP2 DUP3 SWAP1 MSTORE SWAP1 PUSH1 0x1 DUP4 ADD SWAP1 PUSH1 0x2 SWAP1 DUP3 PUSH1 0x0 DUP6 JUMPDEST DUP3 DUP3 SWAP1 SLOAD SWAP1 PUSH2 0x100 EXP SWAP1 DIV PUSH2 0xFFFF AND PUSH2 0xFFFF AND DUP2 MSTORE PUSH1 0x20 ADD SWAP1 PUSH1 0x2 ADD SWAP1 PUSH1 0x20 DUP3 PUSH1 0x1 ADD DIV SWAP3 DUP4 ADD SWAP3 PUSH1 0x1 SUB DUP3 MUL SWAP2 POP DUP1 DUP5 GT PUSH2 0x13EC JUMPI POP POP POP POP POP PUSH2 0x140 DUP6 ADD SWAP2 SWAP1 SWAP2 MSTORE POP PUSH1 0x4 DUP2 ADD SLOAD PUSH1 0xFF AND PUSH2 0x1C0 DUP5 ADD MSTORE DUP1 SLOAD PUSH2 0x1458 SWAP1 PUSH5 0x100000000 SWAP1 DIV PUSH4 0xFFFFFFFF AND PUSH2 0x255C JUMP JUMPDEST PUSH1 0x60 DUP5 ADD MSTORE PUSH2 0x148E PUSH1 0x3 DUP3 ADD PUSH1 0x0 JUMPDEST PUSH1 0x8 SWAP2 DUP3 DUP3 DIV ADD SWAP2 SWAP1 MOD PUSH1 0x4 MUL SWAP1 SLOAD SWAP1 PUSH2 0x100 EXP SWAP1 DIV PUSH4 0xFFFFFFFF AND PUSH4 0xFFFFFFFF AND PUSH2 0x255C JUMP JUMPDEST PUSH2 0x1A0 DUP5 ADD MLOAD MSTORE PUSH2 0x14A3 PUSH1 0x3 DUP3 ADD PUSH1 0x1 PUSH2 0x1467 JUMP JUMPDEST PUSH2 0x1A0 DUP5 ADD MLOAD PUSH1 0x20 ADD MSTORE POP SWAP1 SWAP3 SWAP2 POP POP JUMP JUMPDEST PUSH2 0x14BD PUSH2 0x5629 JUMP JUMPDEST PUSH2 0x9E9 DUP3 TIMESTAMP PUSH2 0x256A JUMP JUMPDEST PUSH1 0x0 DUP1 PUSH2 0x789 PUSH1 0x16 PUSH2 0x262B JUMP JUMPDEST PUSH1 0x0 PUSH5 0xFFFFFFFFFF DUP4 EQ PUSH2 0x14F4 JUMPI DUP2 PUSH1 0x1 PUSH1 0x1 PUSH1 0x50 SHL SUB AND PUSH1 0x0 SUB PUSH2 0x150A JUMP JUMPDEST PUSH2 0x150A DUP5 PUSH1 0x1 PUSH1 0x1 PUSH1 0x50 SHL SUB DUP5 AND PUSH1 0x0 SUB PUSH2 0x2441 JUMP JUMPDEST SWAP5 SWAP4 POP POP POP POP JUMP JUMPDEST DUP2 MLOAD PUSH1 0x0 SWAP1 PUSH2 0xEA5 SWAP1 PUSH2 0x1534 DUP5 PUSH15 0xC097CE7BC90715B34B9F1000000000 PUSH2 0x163B JUMP JUMPDEST SWAP1 PUSH2 0x2644 JUMP JUMPDEST PUSH1 0x0 PUSH2 0x1549 DUP7 DUP7 DUP7 DUP7 DUP7 PUSH2 0x2675 JUMP JUMPDEST SWAP1 POP PUSH1 0x0 PUSH2 0x1569 PUSH1 0x64 PUSH2 0x1534 DUP10 PUSH1 0xE0 ADD MLOAD DUP6 PUSH2 0x163B SWAP1 SWAP2 SWAP1 PUSH4 0xFFFFFFFF AND JUMP JUMPDEST SWAP1 POP PUSH1 0x0 PUSH2 0x1577 DUP4 DUP4 PUSH2 0x270B JUMP JUMPDEST SWAP1 POP PUSH2 0x1587 DUP9 PUSH1 0x40 ADD MLOAD DUP4 PUSH2 0x2721 JUMP JUMPDEST PUSH2 0x1595 DUP9 PUSH1 0x40 ADD MLOAD DUP3 PUSH2 0x2758 JUMP JUMPDEST PUSH5 0xFFFFFFFFFF DUP6 EQ ISZERO PUSH2 0x15CD JUMPI PUSH2 0x15CD DUP9 PUSH1 0x0 ADD MLOAD DUP10 PUSH1 0x40 ADD MLOAD DUP6 PUSH2 0x15C8 DUP8 DUP14 PUSH2 0x160 ADD MLOAD PUSH2 0x279C SWAP1 SWAP2 SWAP1 PUSH4 0xFFFFFFFF AND JUMP JUMPDEST PUSH2 0x27D5 JUMP JUMPDEST PUSH2 0x15E1 DUP9 PUSH1 0x0 ADD MLOAD DUP10 PUSH1 0x40 ADD MLOAD DUP4 DUP6 PUSH2 0x28E9 JUMP JUMPDEST PUSH1 0x80 DUP8 ADD MLOAD PUSH2 0x15F0 SWAP1 DUP5 PUSH2 0x270B JUMP JUMPDEST PUSH1 0x80 SWAP1 SWAP8 ADD SWAP7 SWAP1 SWAP7 MSTORE POP SWAP6 SWAP5 POP POP POP POP POP JUMP JUMPDEST PUSH1 0x0 DUP1 PUSH2 0x789 PUSH1 0x15 PUSH2 0x262B JUMP JUMPDEST PUSH1 0x0 DUP3 DUP3 GT ISZERO PUSH2 0x161F JUMPI PUSH1 0x0 DUP1 REVERT JUMPDEST POP SWAP1 SUB SWAP1 JUMP JUMPDEST PUSH1 0x0 PUSH1 0x1 PUSH1 0x1 PUSH1 0x50 SHL SUB DUP3 GT ISZERO PUSH2 0xC86 JUMPI PUSH1 0x0 DUP1 REVERT JUMPDEST DUP2 DUP2 MUL PUSH1 0x0 NOT DUP4 EQ ISZERO PUSH2 0x166B JUMPI DUP2 ISZERO DUP1 PUSH2 0x165D JUMPI POP DUP3 DUP3 DUP3 DUP2 PUSH2 0x165A JUMPI INVALID JUMPDEST SDIV EQ JUMPDEST PUSH2 0x1666 JUMPI PUSH1 0x0 DUP1 REVERT JUMPDEST PUSH2 0x789 JUMP JUMPDEST DUP3 ISZERO DUP1 PUSH2 0x1680 JUMPI POP DUP2 DUP4 DUP3 DUP2 PUSH2 0x167D JUMPI INVALID JUMPDEST SDIV EQ JUMPDEST PUSH2 0x789 JUMPI PUSH1 0x0 DUP1 REVERT JUMPDEST DUP2 DUP2 ADD DUP3 DUP2 SLT ISZERO PUSH1 0x0 DUP4 SLT ISZERO EQ PUSH2 0x789 JUMPI PUSH1 0x0 DUP1 REVERT JUMPDEST PUSH1 0x0 DUP1 PUSH2 0x16AE DUP10 DUP9 DUP7 DUP7 PUSH2 0x1B51 JUMP JUMPDEST SWAP1 POP PUSH1 0x0 PUSH2 0x16BB DUP8 PUSH2 0x1C50 JUMP JUMPDEST SWAP1 POP PUSH1 0x1 PUSH1 0x1 PUSH1 0x58 SHL SUB DUP2 LT PUSH2 0x16D0 JUMPI PUSH1 0x0 DUP1 REVERT JUMPDEST PUSH1 0x0 PUSH1 0x78 DUP8 PUSH4 0xFFFFFFFF AND SWAP1 SHL PUSH1 0x98 DUP4 SWAP1 SHL PUSH1 0xF0 DUP6 SWAP1 SHL PUSH1 0xF8 PUSH1 0x0 DUP13 SGT PUSH2 0x16F8 JUMPI PUSH1 0x1 PUSH2 0x16FB JUMP JUMPDEST PUSH1 0x0 JUMPDEST PUSH1 0x5 DUP2 GT ISZERO PUSH2 0x1706 JUMPI INVALID JUMPDEST PUSH1 0xFF AND SWAP1 SHL OR OR OR PUSH1 0x0 SHL SWAP1 POP PUSH20 0x0 PUSH4 0x715E9002 DUP13 DUP13 DUP5 PUSH1 0x40 MLOAD DUP5 PUSH4 0xFFFFFFFF AND PUSH1 0xE0 SHL DUP2 MSTORE PUSH1 0x4 ADD PUSH2 0x174E SWAP4 SWAP3 SWAP2 SWAP1 PUSH2 0x5E64 JUMP JUMPDEST PUSH1 0x20 PUSH1 0x40 MLOAD DUP1 DUP4 SUB DUP2 DUP7 DUP1 EXTCODESIZE ISZERO DUP1 ISZERO PUSH2 0x1766 JUMPI PUSH1 0x0 DUP1 REVERT JUMPDEST POP GAS DELEGATECALL ISZERO DUP1 ISZERO PUSH2 0x177A JUMPI RETURNDATASIZE PUSH1 0x0 DUP1 RETURNDATACOPY RETURNDATASIZE PUSH1 0x0 REVERT JUMPDEST POP POP POP POP PUSH1 0x40 MLOAD RETURNDATASIZE PUSH1 0x1F NOT PUSH1 0x1F DUP3 ADD AND DUP3 ADD DUP1 PUSH1 0x40 MSTORE POP DUP2 ADD SWAP1 PUSH2 0x179E SWAP2 SWAP1 PUSH2 0x5BD1 JUMP JUMPDEST SWAP12 SWAP11 POP POP POP POP POP POP POP POP POP POP POP JUMP JUMPDEST PUSH1 0x0 PUSH2 0x17B7 PUSH2 0x29D9 JUMP JUMPDEST PUSH2 0xFFFF DUP7 AND PUSH1 0x0 SWAP1 DUP2 MSTORE PUSH1 0x20 DUP3 DUP2 MSTORE PUSH1 0x40 DUP1 DUP4 KECCAK256 DUP9 DUP5 MSTORE SWAP1 SWAP2 MSTORE SWAP1 KECCAK256 DUP1 SLOAD SWAP2 SWAP3 POP SWAP1 PUSH2 0x1800 SWAP1 PUSH2 0x1276 SWAP1 PUSH1 0x1 PUSH1 0x50 SHL SWAP1 DIV PUSH1 0x1 PUSH1 0x1 PUSH1 0x50 SHL SUB AND PUSH2 0x17FA DUP7 PUSH2 0xC77 JUMP JUMPDEST SWAP1 PUSH2 0xE93 JUMP JUMPDEST DUP2 SLOAD PUSH10 0xFFFFFFFFFFFFFFFFFFFF PUSH1 0x50 SHL NOT AND PUSH1 0x1 PUSH1 0x50 SHL PUSH1 0x1 PUSH1 0x1 PUSH1 0x50 SHL SUB SWAP3 DUP4 AND MUL OR DUP1 DUP4 SSTORE PUSH2 0x1840 SWAP2 PUSH2 0x1276 SWAP2 PUSH1 0x1 PUSH1 0xA0 SHL SWAP1 DIV AND PUSH2 0x17FA DUP8 PUSH2 0xC77 JUMP JUMPDEST DUP2 SLOAD PUSH1 0x1 PUSH1 0x1 PUSH1 0x50 SHL SUB SWAP2 SWAP1 SWAP2 AND PUSH1 0x1 PUSH1 0xA0 SHL MUL PUSH1 0x1 PUSH1 0xA0 SHL PUSH1 0x1 PUSH1 0xF0 SHL SUB NOT SWAP1 SWAP2 AND OR DUP2 SSTORE PUSH2 0x1874 DUP8 PUSH2 0x5E7 DUP9 DUP8 PUSH2 0xCA0 JUMP JUMPDEST PUSH2 0x1882 PUSH2 0x5E7 DUP8 DUP8 DUP7 PUSH2 0x29E6 JUMP JUMPDEST PUSH2 0xAC2 PUSH2 0x5E7 DUP9 DUP9 DUP9 DUP8 PUSH2 0x2A5E JUMP JUMPDEST DUP3 MLOAD PUSH1 0x20 DUP6 ADD MLOAD EQ PUSH2 0x18A9 JUMPI DUP4 MLOAD ISZERO PUSH2 0x18A9 JUMPI PUSH1 0x0 DUP1 REVERT JUMPDEST PUSH1 0x80 DUP5 ADD MLOAD PUSH2 0x18B8 SWAP1 DUP3 PUSH2 0x1689 JUMP JUMPDEST PUSH1 0x80 DUP6 ADD MSTORE DUP4 MLOAD PUSH2 0x18C9 SWAP1 DUP4 PUSH2 0x1689 JUMP JUMPDEST DUP1 DUP6 MSTORE PUSH1 0x0 SLT ISZERO PUSH2 0x18D9 JUMPI PUSH1 0x0 DUP1 REVERT JUMPDEST PUSH1 0x20 DUP4 ADD MLOAD PUSH2 0x18E8 SWAP1 DUP4 PUSH2 0x1689 JUMP JUMPDEST PUSH1 0x20 DUP5 ADD DUP2 SWAP1 MSTORE PUSH1 0x0 SLT ISZERO PUSH2 0xB72 JUMPI PUSH1 0x0 DUP1 REVERT JUMPDEST DUP7 SLOAD PUSH1 0x1 PUSH1 0x1 PUSH1 0x50 SHL SUB AND PUSH1 0x0 SWAP1 DUP2 SUB SWAP1 PUSH2 0x1918 DUP9 DUP7 DUP7 PUSH2 0x2AC9 JUMP JUMPDEST SWAP1 POP PUSH2 0x1929 PUSH2 0x1276 PUSH2 0x3B1 DUP4 PUSH2 0x9DB JUMP JUMPDEST DUP10 SLOAD PUSH1 0x1 PUSH1 0x1 PUSH1 0x50 SHL SUB NOT AND PUSH1 0x1 PUSH1 0x1 PUSH1 0x50 SHL SUB SWAP2 SWAP1 SWAP2 AND OR DUP10 SSTORE PUSH1 0x0 PUSH2 0x1950 DUP4 DUP4 PUSH2 0x2AE7 JUMP JUMPDEST SWAP1 POP PUSH1 0x0 PUSH5 0xFFFFFFFFFF DUP8 EQ ISZERO PUSH2 0x1977 JUMPI DUP9 MLOAD PUSH2 0x1970 SWAP1 DUP12 SWAP1 DUP11 DUP6 PUSH2 0x2B6E JUMP JUMPDEST POP DUP5 PUSH2 0x19AE JUMP JUMPDEST DUP5 PUSH2 0x19AE JUMPI DUP9 MLOAD PUSH2 0x198B SWAP1 DUP10 DUP10 DUP8 DUP8 PUSH2 0x2B9B JUMP JUMPDEST DUP9 MLOAD PUSH2 0x19A0 SWAP1 DUP10 PUSH2 0x199B DUP6 PUSH2 0x9DB JUMP JUMPDEST PUSH2 0x2C5B JUMP JUMPDEST PUSH2 0x19AB DUP10 DUP12 DUP11 PUSH2 0x2D31 JUMP JUMPDEST SWAP1 POP JUMPDEST PUSH1 0x0 DUP3 SGT DUP1 ISZERO PUSH2 0x19BC JUMPI POP DUP5 ISZERO JUMPDEST ISZERO PUSH2 0x19CE JUMPI DUP9 MLOAD PUSH2 0x19CE SWAP1 DUP10 DUP4 PUSH2 0x2DD7 JUMP JUMPDEST POP POP POP POP POP POP POP POP POP POP POP JUMP JUMPDEST PUSH1 0x0 DUP1 PUSH1 0x0 PUSH2 0x19E9 DUP7 PUSH2 0xC77 JUMP JUMPDEST SWAP1 POP DUP1 PUSH2 0x19FD JUMPI PUSH1 0x0 DUP1 SWAP3 POP SWAP3 POP POP PUSH2 0x1A9C JUMP JUMPDEST PUSH1 0x0 PUSH2 0x1A0C DUP9 PUSH2 0xFFFF AND PUSH2 0x1D19 JUMP JUMPDEST SWAP1 POP PUSH1 0x3 DUP2 PUSH1 0x60 ADD MLOAD PUSH1 0x5 DUP2 GT ISZERO PUSH2 0x1A20 JUMPI INVALID JUMPDEST EQ ISZERO PUSH2 0x1A70 JUMPI CALLVALUE DUP3 LT ISZERO PUSH2 0x1A40 JUMPI PUSH2 0x1A3B DUP10 DUP4 CALLVALUE SUB DUP8 PUSH2 0x2E53 JUMP JUMPDEST PUSH2 0x1A68 JUMP JUMPDEST CALLVALUE DUP3 EQ PUSH2 0x1A68 JUMPI PUSH1 0x40 MLOAD PUSH3 0x461BCD PUSH1 0xE5 SHL DUP2 MSTORE PUSH1 0x4 ADD PUSH2 0x1A5F SWAP1 PUSH2 0x5DCE JUMP JUMPDEST PUSH1 0x40 MLOAD DUP1 SWAP2 SUB SWAP1 REVERT JUMPDEST DUP7 SWAP4 POP PUSH2 0x1A8A JUMP JUMPDEST PUSH2 0x1A87 PUSH2 0x1A82 DUP3 PUSH1 0x0 ADD MLOAD DUP12 DUP6 PUSH2 0x2F16 JUMP JUMPDEST PUSH2 0xC8A JUMP JUMPDEST SWAP4 POP JUMPDEST PUSH2 0x1A97 DUP10 DUP10 DUP7 DUP5 DUP11 PUSH2 0x309E JUMP JUMPDEST SWAP3 POP POP POP JUMPDEST SWAP6 POP SWAP6 SWAP4 POP POP POP POP JUMP JUMPDEST PUSH1 0x0 DUP3 SLT PUSH2 0x1AB3 JUMPI PUSH1 0x0 DUP1 REVERT JUMPDEST PUSH1 0x0 PUSH5 0xFFFFFFFFFF DUP5 EQ ISZERO PUSH2 0x1ADD JUMPI PUSH2 0x160 DUP7 ADD MLOAD PUSH2 0x1AD6 SWAP1 PUSH2 0x88A SWAP1 DUP6 PUSH2 0x1512 JUMP JUMPDEST SWAP1 POP PUSH2 0x1B0A JUMP JUMPDEST PUSH2 0x1AF9 DUP7 PUSH1 0x40 ADD MLOAD DUP8 PUSH1 0x0 ADD MLOAD DUP7 DUP7 DUP7 DUP12 PUSH2 0x100 ADD MLOAD TIMESTAMP PUSH2 0x169F JUMP JUMPDEST SWAP1 POP PUSH2 0x1B08 DUP7 DUP9 DUP4 DUP8 TIMESTAMP PUSH2 0x153A JUMP JUMPDEST POP JUMPDEST PUSH1 0x0 DUP2 SGT PUSH2 0x1B17 JUMPI PUSH1 0x0 DUP1 REVERT JUMPDEST PUSH2 0x1B23 DUP8 DUP7 DUP6 DUP5 PUSH2 0x1891 JUMP JUMPDEST DUP7 MLOAD PUSH2 0x1B2E SWAP1 PUSH2 0x9DB JUMP JUMPDEST DUP7 PUSH1 0x60 ADD MLOAD SGT ISZERO PUSH2 0xAC2 JUMPI PUSH1 0x40 MLOAD PUSH3 0x461BCD PUSH1 0xE5 SHL DUP2 MSTORE PUSH1 0x4 ADD PUSH2 0x1A5F SWAP1 PUSH2 0x5E40 JUMP JUMPDEST PUSH1 0x0 DUP1 PUSH1 0x0 PUSH2 0x1B63 DUP8 PUSH2 0xFFFF AND PUSH2 0x30E5 JUMP JUMPDEST SWAP1 POP PUSH2 0x1B73 DUP2 PUSH1 0xFF AND DUP8 DUP7 PUSH2 0x30FB JUMP JUMPDEST SWAP1 SWAP4 POP SWAP2 POP DUP5 DUP4 GT ISZERO PUSH2 0x1B85 JUMPI PUSH1 0x0 DUP1 REVERT JUMPDEST DUP2 ISZERO PUSH2 0x1B90 JUMPI PUSH1 0x0 DUP1 REVERT JUMPDEST POP POP SWAP5 SWAP4 POP POP POP POP JUMP JUMPDEST PUSH1 0x0 DUP1 DUP7 PUSH1 0x80 ADD MLOAD SLT ISZERO PUSH2 0x1BAD JUMPI PUSH1 0x0 DUP1 REVERT JUMPDEST DUP7 MLOAD PUSH1 0x20 DUP8 ADD MLOAD EQ PUSH2 0x1BD4 JUMPI PUSH1 0x40 DUP7 ADD MLOAD ISZERO PUSH2 0x1BC8 JUMPI PUSH1 0x0 DUP1 REVERT JUMPDEST DUP7 MLOAD PUSH1 0x20 DUP8 ADD MSTORE PUSH2 0x1BE5 JUMP JUMPDEST DUP7 MLOAD PUSH1 0x20 DUP8 ADD MLOAD EQ PUSH2 0x1BE5 JUMPI PUSH1 0x0 DUP1 REVERT JUMPDEST PUSH2 0x1BF1 DUP8 DUP8 DUP8 DUP8 PUSH2 0x318A JUMP JUMPDEST PUSH1 0x60 DUP7 ADD MLOAD PUSH1 0x80 DUP8 ADD MLOAD DUP9 MLOAD PUSH1 0x0 SWAP3 PUSH2 0x1C0D SWAP3 DUP10 SWAP3 DUP9 DUP9 PUSH2 0x31F2 JUMP JUMPDEST PUSH1 0x0 PUSH1 0x80 DUP10 ADD MSTORE SWAP1 POP PUSH2 0x1C22 DUP9 DUP9 DUP9 DUP5 PUSH2 0x318A JUMP JUMPDEST PUSH2 0x1C2C DUP6 DUP3 PUSH2 0xE93 JUMP JUMPDEST SWAP2 POP PUSH2 0x1C38 DUP9 DUP8 PUSH2 0xACC JUMP JUMPDEST POP SWAP7 SWAP6 POP POP POP POP POP POP JUMP JUMPDEST PUSH1 0x0 DUP1 PUSH2 0x789 PUSH1 0x21 PUSH2 0x262B JUMP JUMPDEST PUSH1 0x0 DUP1 DUP3 SLT ISZERO PUSH2 0x1C6A JUMPI PUSH2 0x1C63 DUP3 PUSH2 0x9DB JUMP JUMPDEST SWAP1 POP PUSH2 0x9EC JUMP JUMPDEST POP DUP1 PUSH2 0x9EC JUMP JUMPDEST PUSH1 0x0 DUP4 PUSH2 0x1C80 JUMPI POP PUSH1 0x0 PUSH2 0xD70 JUMP JUMPDEST PUSH1 0x0 DUP5 SLT PUSH2 0x1C8D JUMPI PUSH1 0x0 DUP1 REVERT JUMPDEST PUSH1 0x0 PUSH2 0x1C9C DUP7 PUSH2 0xFFFF AND PUSH2 0x1D19 JUMP JUMPDEST SWAP1 POP PUSH2 0x1CB1 DUP2 PUSH2 0x1CAC DUP7 DUP9 PUSH2 0x1D2C JUMP JUMPDEST PUSH2 0x329A JUMP JUMPDEST SWAP2 POP PUSH1 0x0 PUSH2 0x1CBE DUP4 PUSH2 0x9DB JUMP JUMPDEST SWAP1 POP PUSH2 0x1CCB DUP8 DUP4 DUP4 PUSH2 0x32D2 JUMP JUMPDEST PUSH1 0x3 DUP3 PUSH1 0x60 ADD MLOAD PUSH1 0x5 DUP2 GT ISZERO PUSH2 0x1CDD JUMPI INVALID JUMPDEST EQ ISZERO PUSH2 0x1CF3 JUMPI PUSH2 0x1CEE DUP9 DUP3 DUP7 PUSH2 0x2E53 JUMP JUMPDEST PUSH2 0x1D00 JUMP JUMPDEST DUP2 MLOAD PUSH2 0x1D00 SWAP1 DUP10 DUP4 PUSH2 0x33C0 JUMP JUMPDEST PUSH2 0x1D0D DUP9 DUP9 DUP6 DUP6 DUP10 PUSH2 0x309E JUMP JUMPDEST POP POP POP SWAP6 SWAP5 POP POP POP POP POP JUMP JUMPDEST PUSH2 0x1D21 PUSH2 0x564A JUMP JUMPDEST PUSH2 0x9E9 DUP3 PUSH1 0x1 PUSH2 0x3437 JUMP JUMPDEST PUSH1 0x0 PUSH2 0xEA5 PUSH15 0xC097CE7BC90715B34B9F1000000000 PUSH2 0x1534 DUP6 PUSH1 0x0 ADD MLOAD DUP6 PUSH2 0x163B SWAP1 SWAP2 SWAP1 PUSH4 0xFFFFFFFF AND JUMP JUMPDEST PUSH1 0x0 PUSH4 0x5F5E100 DUP4 PUSH1 0x40 ADD MLOAD SLT ISZERO PUSH2 0x1D86 JUMPI PUSH2 0x1D7F PUSH1 0x1 PUSH2 0x1D79 DUP6 DUP6 PUSH2 0x329A JUMP JUMPDEST SWAP1 PUSH2 0x1689 JUMP JUMPDEST SWAP1 POP PUSH2 0x789 JUMP JUMPDEST PUSH2 0xEA5 DUP4 PUSH2 0x1CAC DUP5 PUSH1 0x1 PUSH2 0x1689 JUMP JUMPDEST PUSH1 0x0 DUP1 DUP1 DUP1 PUSH2 0x1DA4 DUP13 ADDRESS PUSH2 0x34D1 JUMP JUMPDEST DUP14 MLOAD PUSH1 0x40 MLOAD PUSH4 0x89E0A21 PUSH1 0xE3 SHL DUP2 MSTORE SWAP2 SWAP3 POP PUSH1 0x1 PUSH1 0x1 PUSH1 0xA0 SHL SUB AND SWAP1 PUSH4 0x44F05108 SWAP1 PUSH2 0x1DE0 SWAP1 DUP15 SWAP1 DUP15 SWAP1 DUP15 SWAP1 DUP15 SWAP1 DUP15 SWAP1 DUP15 SWAP1 DUP15 SWAP1 PUSH1 0x4 ADD PUSH2 0x5CEB JUMP JUMPDEST PUSH1 0x20 PUSH1 0x40 MLOAD DUP1 DUP4 SUB DUP2 PUSH1 0x0 DUP8 DUP1 EXTCODESIZE ISZERO DUP1 ISZERO PUSH2 0x1DFA JUMPI PUSH1 0x0 DUP1 REVERT JUMPDEST POP GAS CALL ISZERO DUP1 ISZERO PUSH2 0x1E0E JUMPI RETURNDATASIZE PUSH1 0x0 DUP1 RETURNDATACOPY RETURNDATASIZE PUSH1 0x0 REVERT JUMPDEST POP POP POP POP PUSH1 0x40 MLOAD RETURNDATASIZE PUSH1 0x1F NOT PUSH1 0x1F DUP3 ADD AND DUP3 ADD DUP1 PUSH1 0x40 MSTORE POP DUP2 ADD SWAP1 PUSH2 0x1E32 SWAP2 SWAP1 PUSH2 0x5BD1 JUMP JUMPDEST SWAP3 POP PUSH1 0x0 PUSH2 0x1E40 DUP14 ADDRESS PUSH2 0x34D1 JUMP JUMPDEST SWAP1 POP PUSH2 0x1E4C DUP2 DUP4 PUSH2 0x1610 JUMP JUMPDEST SWAP5 POP PUSH2 0x1E5D DUP14 PUSH1 0x0 ADD MLOAD DUP4 DUP4 PUSH2 0x357B JUMP JUMPDEST POP POP PUSH1 0x0 PUSH2 0x1E74 PUSH2 0x1E6D DUP6 PUSH2 0xC8A JUMP JUMPDEST DUP14 SWAP1 PUSH2 0x35F8 JUMP JUMPDEST PUSH2 0x160 DUP15 ADD MLOAD SWAP1 SWAP2 POP PUSH2 0x1E87 SWAP1 DUP3 PUSH2 0x1512 JUMP JUMPDEST SWAP2 POP PUSH2 0x1E98 DUP14 PUSH1 0x40 ADD MLOAD DUP4 DUP4 PUSH2 0x3628 JUMP JUMPDEST PUSH2 0x1EA5 DUP14 DUP14 DUP13 DUP7 DUP7 PUSH2 0x372C JUMP JUMPDEST POP SWAP10 POP SWAP10 POP SWAP10 SWAP7 POP POP POP POP POP POP POP JUMP JUMPDEST PUSH1 0x80 DUP6 ADD MLOAD ISZERO PUSH2 0x1EC4 JUMPI PUSH1 0x0 DUP1 REVERT JUMPDEST PUSH1 0x60 DUP5 ADD MLOAD DUP6 MLOAD PUSH2 0x1ED4 SWAP1 PUSH2 0x9DB JUMP JUMPDEST SLT DUP1 ISZERO PUSH2 0x1EDE JUMPI POP DUP2 JUMPDEST ISZERO PUSH2 0x1F12 JUMPI DUP5 MLOAD ISZERO DUP1 PUSH2 0x1EF6 JUMPI POP PUSH1 0x1 DUP6 PUSH1 0x40 ADD MLOAD GT ISZERO JUMPDEST PUSH2 0x1F12 JUMPI PUSH1 0x40 MLOAD PUSH3 0x461BCD PUSH1 0xE5 SHL DUP2 MSTORE PUSH1 0x4 ADD PUSH2 0x1A5F SWAP1 PUSH2 0x5E40 JUMP JUMPDEST PUSH2 0x1F1B DUP5 PUSH2 0x230A JUMP JUMPDEST ISZERO PUSH2 0x1FBA JUMPI PUSH1 0x0 PUSH2 0x1F2A PUSH2 0x377C JUMP JUMPDEST PUSH1 0x60 DUP8 ADD MLOAD PUSH1 0x1 PUSH1 0x1 PUSH1 0xA0 SHL SUB SWAP1 DUP2 AND PUSH1 0x0 SWAP1 DUP2 MSTORE PUSH1 0x20 SWAP3 DUP4 MSTORE PUSH1 0x40 DUP1 DUP3 KECCAK256 DUP10 MLOAD SWAP1 SWAP4 AND DUP3 MSTORE SWAP2 DUP4 MSTORE KECCAK256 DUP1 SLOAD SWAP2 DUP9 ADD MLOAD SWAP1 SWAP3 POP PUSH5 0xFFFFFFFFFF SWAP1 SWAP2 AND SWAP1 DUP2 EQ DUP1 PUSH2 0x1F72 JUMPI POP DUP1 ISZERO JUMPDEST PUSH2 0x1F7B JUMPI PUSH1 0x0 DUP1 REVERT JUMPDEST DUP1 PUSH2 0x1FB7 JUMPI DUP2 SLOAD PUSH1 0x1 PUSH1 0x28 SHL SWAP1 DIV PUSH1 0x1 PUSH1 0x1 PUSH1 0x50 SHL SUB AND ISZERO DUP1 ISZERO PUSH2 0x1FAE JUMPI POP DUP2 SLOAD PUSH1 0x1 PUSH1 0x78 SHL SWAP1 DIV PUSH1 0x1 PUSH1 0x1 PUSH1 0x50 SHL SUB AND ISZERO JUMPDEST PUSH2 0x1FB7 JUMPI PUSH1 0x0 DUP1 REVERT JUMPDEST POP POP JUMPDEST PUSH1 0x0 PUSH2 0x1FDA PUSH2 0x3B1 PUSH2 0x88A DUP8 PUSH2 0x160 ADD MLOAD DUP10 PUSH1 0x20 ADD MLOAD DUP11 PUSH1 0x0 ADD MLOAD PUSH2 0x2AC9 JUMP JUMPDEST SWAP1 POP DUP2 ISZERO PUSH2 0x2063 JUMPI PUSH1 0x40 DUP1 MLOAD PUSH1 0xE0 DUP2 ADD DUP3 MSTORE DUP6 SLOAD PUSH1 0x1 PUSH1 0x1 PUSH1 0x50 SHL SUB DUP1 DUP3 AND DUP4 MSTORE PUSH1 0x1 PUSH1 0x50 SHL DUP1 DUP4 DIV DUP3 AND PUSH1 0x20 DUP6 ADD MSTORE PUSH1 0x1 PUSH1 0xA0 SHL DUP1 DUP5 DIV PUSH5 0xFFFFFFFFFF AND SWAP6 DUP6 ADD SWAP6 SWAP1 SWAP6 MSTORE PUSH1 0x1 PUSH1 0xC8 SHL SWAP1 SWAP3 DIV PUSH4 0xFFFFFFFF AND PUSH1 0x60 DUP5 ADD MSTORE PUSH1 0x1 DUP9 ADD SLOAD DUP1 DUP3 AND PUSH1 0x80 DUP6 ADD MSTORE SWAP2 DUP3 DIV DUP2 AND PUSH1 0xA0 DUP5 ADD MSTORE SWAP3 SWAP1 DIV SWAP1 SWAP2 AND PUSH1 0xC0 DUP3 ADD MSTORE PUSH2 0x2063 SWAP1 DUP8 SWAP1 DUP8 SWAP1 DUP5 PUSH2 0x3789 JUMP JUMPDEST PUSH2 0x2070 DUP7 PUSH1 0x40 ADD MLOAD PUSH2 0x1625 JUMP JUMPDEST DUP5 SLOAD PUSH1 0x1 PUSH1 0x1 PUSH1 0x50 SHL SUB SWAP2 SWAP1 SWAP2 AND PUSH1 0x1 PUSH1 0x50 SHL MUL PUSH10 0xFFFFFFFFFFFFFFFFFFFF PUSH1 0x50 SHL NOT SWAP1 SWAP2 AND OR DUP5 SSTORE PUSH1 0x20 DUP7 ADD MLOAD PUSH2 0x20A7 SWAP1 PUSH2 0x3C6F JUMP JUMPDEST DUP5 SLOAD PUSH5 0xFFFFFFFFFF SWAP2 SWAP1 SWAP2 AND PUSH1 0x1 PUSH1 0xA0 SHL MUL PUSH5 0xFFFFFFFFFF PUSH1 0xA0 SHL NOT SWAP1 SWAP2 AND OR DUP5 SSTORE PUSH1 0xA0 DUP7 ADD MLOAD PUSH2 0x20D7 SWAP1 PUSH2 0x3C83 JUMP JUMPDEST DUP5 SLOAD PUSH4 0xFFFFFFFF SWAP2 SWAP1 SWAP2 AND PUSH1 0x1 PUSH1 0xC8 SHL MUL PUSH4 0xFFFFFFFF PUSH1 0xC8 SHL NOT SWAP1 SWAP2 AND OR DUP5 SSTORE PUSH2 0x2100 DUP2 PUSH2 0x1625 JUMP JUMPDEST DUP5 SLOAD PUSH1 0x1 PUSH1 0x1 PUSH1 0x50 SHL SUB NOT AND PUSH1 0x1 PUSH1 0x1 PUSH1 0x50 SHL SUB SWAP2 SWAP1 SWAP2 AND OR SWAP1 SWAP4 SSTORE POP POP POP POP POP JUMP JUMPDEST PUSH1 0x0 DUP1 PUSH1 0x0 DUP1 PUSH1 0x0 DUP1 PUSH2 0x2134 PUSH2 0x3C96 JUMP JUMPDEST PUSH1 0x1 PUSH1 0x1 PUSH1 0xA0 SHL SUB SWAP1 SWAP8 AND PUSH1 0x0 SWAP1 DUP2 MSTORE PUSH1 0x20 SWAP8 SWAP1 SWAP8 MSTORE POP POP PUSH1 0x40 SWAP1 SWAP5 KECCAK256 SLOAD PUSH2 0xFFFF DUP2 AND SWAP6 PUSH4 0xFFFFFFFF PUSH3 0x10000 DUP4 DIV DUP2 AND SWAP7 POP PUSH7 0x1000000000000 DUP4 DIV AND SWAP5 POP PUSH1 0xFF PUSH1 0x1 PUSH1 0x50 SHL DUP4 DIV AND SWAP4 POP PUSH1 0x1 PUSH1 0x58 SHL SWAP1 SWAP2 DIV PUSH1 0xD0 SHL SWAP2 POP JUMP JUMPDEST PUSH1 0x0 PUSH2 0x219D DUP5 DUP5 DUP5 DUP9 PUSH2 0x2333 JUMP JUMPDEST DUP7 SLOAD SWAP1 SWAP2 POP PUSH1 0x1 PUSH1 0x1 PUSH1 0x50 SHL SUB AND PUSH1 0x0 PUSH2 0x21B7 DUP3 DUP5 PUSH2 0x270B JUMP JUMPDEST SWAP1 POP PUSH2 0x21C5 PUSH2 0x1276 DUP3 PUSH2 0xC77 JUMP JUMPDEST DUP9 SLOAD PUSH1 0x1 PUSH1 0x1 PUSH1 0x50 SHL SUB NOT AND PUSH1 0x1 PUSH1 0x1 PUSH1 0x50 SHL SUB SWAP2 SWAP1 SWAP2 AND OR DUP9 SSTORE PUSH2 0x21EE DUP8 DUP8 PUSH2 0x199B DUP8 PUSH2 0x9DB JUMP JUMPDEST POP POP POP POP POP POP POP POP JUMP JUMPDEST PUSH1 0x0 PUSH2 0x2205 DUP4 PUSH1 0x40 PUSH2 0x778 JUMP JUMPDEST ISZERO PUSH2 0x229F JUMPI DUP3 MLOAD PUSH1 0x60 DUP6 ADD MLOAD PUSH1 0x40 DUP1 DUP8 ADD MLOAD DUP9 MLOAD SWAP2 MLOAD PUSH4 0x1DE7E963 PUSH1 0xE2 SHL DUP2 MSTORE PUSH1 0x1 PUSH1 0x1 PUSH1 0xA0 SHL SUB SWAP1 SWAP5 AND SWAP4 PUSH4 0x779FA58C SWAP4 PUSH2 0x2246 SWAP4 SWAP1 SWAP3 SWAP2 PUSH1 0x4 ADD PUSH2 0x5D4F JUMP JUMPDEST PUSH1 0x20 PUSH1 0x40 MLOAD DUP1 DUP4 SUB DUP2 PUSH1 0x0 DUP8 DUP1 EXTCODESIZE ISZERO DUP1 ISZERO PUSH2 0x2260 JUMPI PUSH1 0x0 DUP1 REVERT JUMPDEST POP GAS CALL ISZERO DUP1 ISZERO PUSH2 0x2274 JUMPI RETURNDATASIZE PUSH1 0x0 DUP1 RETURNDATACOPY RETURNDATASIZE PUSH1 0x0 REVERT JUMPDEST POP POP POP POP PUSH1 0x40 MLOAD RETURNDATASIZE PUSH1 0x1F NOT PUSH1 0x1F DUP3 ADD AND DUP3 ADD DUP1 PUSH1 0x40 MSTORE POP DUP2 ADD SWAP1 PUSH2 0x2298 SWAP2 SWAP1 PUSH2 0x5BD1 JUMP JUMPDEST SWAP1 POP PUSH2 0x22A6 JUMP JUMPDEST POP PUSH1 0x40 DUP4 ADD MLOAD JUMPDEST PUSH2 0x22B6 DUP6 DUP6 DUP6 DUP8 PUSH1 0x40 ADD MLOAD PUSH2 0x930 JUMP JUMPDEST PUSH1 0x40 DUP5 ADD DUP2 SWAP1 MSTORE DUP2 SLOAD PUSH2 0x22DD SWAP1 PUSH2 0x1276 SWAP1 PUSH1 0x1 PUSH1 0xA0 SHL SWAP1 DIV PUSH1 0x1 PUSH1 0x1 PUSH1 0x50 SHL SUB AND DUP4 PUSH2 0xE93 JUMP JUMPDEST DUP3 SLOAD PUSH1 0x1 PUSH1 0x1 PUSH1 0x50 SHL SUB SWAP2 SWAP1 SWAP2 AND PUSH1 0x1 PUSH1 0xA0 SHL MUL PUSH1 0x1 PUSH1 0xA0 SHL PUSH1 0x1 PUSH1 0xF0 SHL SUB NOT SWAP1 SWAP2 AND OR SWAP1 SWAP2 SSTORE POP POP POP POP JUMP JUMPDEST PUSH2 0x140 DUP2 ADD MLOAD MLOAD PUSH1 0x0 SWAP1 PUSH2 0xFFFF AND ISZERO ISZERO DUP1 PUSH2 0x9E9 JUMPI POP POP PUSH2 0x140 ADD MLOAD PUSH1 0x20 ADD MLOAD PUSH2 0xFFFF AND ISZERO ISZERO SWAP1 JUMP JUMPDEST PUSH1 0x0 DUP1 PUSH1 0x0 PUSH2 0x2342 DUP8 DUP8 PUSH2 0x3CA3 JUMP JUMPDEST SWAP2 POP SWAP2 POP DUP1 PUSH2 0x2350 JUMPI PUSH1 0x0 DUP1 REVERT JUMPDEST PUSH2 0x235A DUP3 DUP7 PUSH2 0x3D36 JUMP JUMPDEST SWAP3 POP PUSH1 0x1 PUSH1 0x1 PUSH1 0xA0 SHL SUB DUP5 AND ISZERO PUSH2 0x1B90 JUMPI PUSH2 0x1B90 DUP5 DUP9 DUP9 DUP9 DUP8 PUSH2 0x3D92 JUMP JUMPDEST DUP1 PUSH1 0x0 DUP1 DUP5 SGT ISZERO PUSH2 0x2436 JUMPI PUSH1 0x0 PUSH2 0x239C PUSH2 0x2395 PUSH2 0x88A DUP12 DUP9 PUSH2 0x1D2C JUMP JUMPDEST DUP11 SWAP1 PUSH2 0x3D36 JUMP JUMPDEST SWAP1 POP PUSH1 0x0 DUP5 DUP3 SLT ISZERO PUSH2 0x23D6 JUMPI POP PUSH1 0x0 SWAP3 POP DUP4 PUSH2 0x23CF PUSH2 0x23C8 PUSH2 0x88A PUSH2 0x23C1 DUP6 DUP6 PUSH2 0x270B JUMP JUMPDEST DUP14 SWAP1 PUSH2 0x2441 JUMP JUMPDEST DUP12 SWAP1 PUSH2 0x1512 JUMP JUMPDEST SWAP3 POP PUSH2 0x23E5 JUMP JUMPDEST POP DUP1 PUSH2 0x23E2 DUP6 DUP3 PUSH2 0x270B JUMP JUMPDEST SWAP4 POP JUMPDEST PUSH2 0x23F1 DUP11 DUP9 DUP11 DUP5 PUSH2 0x2B6E JUMP JUMPDEST DUP9 SLOAD PUSH1 0x1 PUSH1 0x1 PUSH1 0x50 SHL SUB AND PUSH1 0x0 PUSH2 0x2408 DUP3 DUP5 PUSH2 0x1689 JUMP JUMPDEST SWAP1 POP PUSH2 0x2416 PUSH2 0x1276 DUP3 PUSH2 0xC77 JUMP JUMPDEST DUP12 SLOAD PUSH1 0x1 PUSH1 0x1 PUSH1 0x50 SHL SUB NOT AND PUSH1 0x1 PUSH1 0x1 PUSH1 0x50 SHL SUB SWAP2 SWAP1 SWAP2 AND OR DUP12 SSTORE POP POP POP POP JUMPDEST SWAP7 POP SWAP7 SWAP5 POP POP POP POP POP JUMP JUMPDEST PUSH1 0x0 PUSH1 0x1 DUP3 SLT PUSH2 0x2450 JUMPI PUSH1 0x0 DUP1 REVERT JUMPDEST DUP2 PUSH2 0x245D JUMPI POP PUSH1 0x0 PUSH2 0x789 JUMP JUMPDEST PUSH2 0xEA5 PUSH1 0x1 PUSH2 0x248C PUSH15 0xC097CE7BC90715B34B9F1000000000 PUSH2 0x1534 DUP8 PUSH1 0x20 ADD MLOAD DUP8 PUSH2 0x163B SWAP1 SWAP2 SWAP1 PUSH4 0xFFFFFFFF AND JUMP JUMPDEST SWAP1 PUSH2 0x270B JUMP JUMPDEST DUP1 PUSH2 0x249C JUMPI PUSH2 0x12C0 JUMP JUMPDEST PUSH1 0x0 PUSH2 0x24AB DUP6 DUP6 DUP6 PUSH1 0xB PUSH2 0x3E65 JUMP JUMPDEST SWAP1 POP PUSH1 0x0 DUP1 PUSH1 0x0 DUP5 SLT ISZERO PUSH2 0x24C4 JUMPI POP DUP7 SWAP1 POP PUSH1 0x0 PUSH2 0x24CB JUMP JUMPDEST POP PUSH1 0x0 SWAP1 POP DUP7 JUMPDEST PUSH1 0x0 PUSH2 0x24D6 DUP6 PUSH2 0x1C50 JUMP JUMPDEST SWAP1 POP DUP2 PUSH1 0x1 PUSH1 0x1 PUSH1 0xA0 SHL SUB AND DUP4 PUSH1 0x1 PUSH1 0x1 PUSH1 0xA0 SHL SUB AND CALLER PUSH1 0x1 PUSH1 0x1 PUSH1 0xA0 SHL SUB AND PUSH1 0x0 DUP1 MLOAD PUSH1 0x20 PUSH2 0x5F48 DUP4 CODECOPY DUP2 MLOAD SWAP2 MSTORE DUP8 DUP6 PUSH1 0x40 MLOAD PUSH2 0x2515 SWAP3 SWAP2 SWAP1 PUSH2 0x5E92 JUMP JUMPDEST PUSH1 0x40 MLOAD DUP1 SWAP2 SUB SWAP1 LOG4 POP POP POP POP POP POP POP POP POP JUMP JUMPDEST PUSH1 0x0 DUP1 PUSH2 0x789 PUSH1 0x14 PUSH2 0x262B JUMP JUMPDEST PUSH1 0x0 DUP3 PUSH2 0x2544 JUMPI POP PUSH1 0x0 PUSH2 0x789 JUMP JUMPDEST DUP3 DUP3 MUL DUP3 DUP5 DUP3 DUP2 PUSH2 0x2551 JUMPI INVALID JUMPDEST DIV EQ PUSH2 0xEA5 JUMPI PUSH1 0x0 DUP1 REVERT JUMPDEST PUSH1 0x8 DUP2 SWAP1 SHR PUSH1 0xFF SWAP1 SWAP2 AND SHL SWAP1 JUMP JUMPDEST PUSH2 0x2572 PUSH2 0x5629 JUMP JUMPDEST PUSH1 0x0 PUSH2 0x257D DUP5 PUSH2 0x3E9B JUMP JUMPDEST SWAP1 POP DUP3 DUP2 PUSH1 0x0 ADD MLOAD LT ISZERO PUSH2 0x25BC JUMPI PUSH1 0x0 DUP1 PUSH2 0x2597 DUP7 PUSH2 0x3F63 JUMP JUMPDEST SWAP1 POP PUSH2 0x25A5 DUP7 DUP5 DUP4 DUP9 PUSH2 0x3FE0 JUMP JUMPDEST SWAP1 SWAP4 POP SWAP2 POP PUSH2 0x25B5 DUP7 DUP4 DUP6 PUSH2 0x4084 JUMP JUMPDEST POP POP PUSH2 0x25C9 JUMP JUMPDEST DUP1 MLOAD DUP4 EQ PUSH2 0x25C9 JUMPI PUSH1 0x0 DUP1 REVERT JUMPDEST PUSH1 0x40 MLOAD DUP1 PUSH1 0x60 ADD PUSH1 0x40 MSTORE DUP1 PUSH2 0x25F2 PUSH2 0x1A82 DUP5 PUSH1 0xA0 ADD MLOAD DUP6 PUSH1 0xC0 ADD MLOAD PUSH2 0x2535 SWAP1 SWAP2 SWAP1 PUSH4 0xFFFFFFFF AND JUMP JUMPDEST DUP2 MSTORE PUSH1 0x20 ADD PUSH2 0x2615 PUSH2 0x1A82 DUP5 PUSH1 0xA0 ADD MLOAD DUP6 PUSH1 0xE0 ADD MLOAD PUSH2 0x2535 SWAP1 SWAP2 SWAP1 PUSH4 0xFFFFFFFF AND JUMP JUMPDEST DUP2 MSTORE PUSH1 0x20 ADD DUP3 PUSH1 0x60 ADD MLOAD DUP2 MSTORE POP SWAP2 POP POP SWAP3 SWAP2 POP POP JUMP JUMPDEST PUSH1 0x0 PUSH3 0xF4240 DUP3 PUSH1 0x26 DUP2 GT ISZERO PUSH2 0x263D JUMPI INVALID JUMPDEST ADD SWAP3 SWAP2 POP POP JUMP JUMPDEST PUSH1 0x0 DUP2 PUSH1 0x0 NOT EQ DUP1 ISZERO PUSH2 0x265A JUMPI POP PUSH1 0x1 PUSH1 0xFF SHL DUP4 EQ JUMPDEST ISZERO PUSH2 0x2664 JUMPI PUSH1 0x0 DUP1 REVERT JUMPDEST DUP2 DUP4 DUP2 PUSH2 0x266D JUMPI INVALID JUMPDEST SDIV SWAP4 SWAP3 POP POP POP JUMP JUMPDEST PUSH1 0x0 DUP1 PUSH5 0xFFFFFFFFFF DUP5 EQ ISZERO PUSH2 0x26C7 JUMPI PUSH1 0x20 DUP7 ADD MLOAD PUSH5 0xFFFFFFFFFF EQ PUSH2 0x269F JUMPI PUSH1 0x0 SWAP2 POP POP PUSH2 0xD70 JUMP JUMPDEST PUSH2 0x26B9 PUSH2 0x1A82 DUP8 PUSH1 0xA0 ADD MLOAD DUP6 PUSH2 0x1610 SWAP1 SWAP2 SWAP1 PUSH4 0xFFFFFFFF AND JUMP JUMPDEST PUSH1 0xA0 DUP8 ADD DUP5 SWAP1 MSTORE SWAP1 POP PUSH2 0x26D7 JUMP JUMPDEST PUSH2 0x26D4 PUSH2 0x1A82 DUP6 DUP6 PUSH2 0x1610 JUMP JUMPDEST SWAP1 POP JUMPDEST PUSH1 0x80 DUP8 ADD MLOAD PUSH1 0x0 SWAP1 PUSH2 0x26F3 SWAP1 PUSH4 0x1DA9C00 SWAP1 PUSH2 0x1534 SWAP1 DUP6 PUSH2 0x163B JUMP JUMPDEST SWAP1 POP PUSH2 0x26FF DUP7 DUP3 PUSH2 0x42B5 JUMP JUMPDEST SWAP9 SWAP8 POP POP POP POP POP POP POP POP JUMP JUMPDEST DUP1 DUP3 SUB DUP3 DUP2 SGT ISZERO PUSH1 0x0 DUP4 SLT ISZERO EQ PUSH2 0x789 JUMPI PUSH1 0x0 DUP1 REVERT JUMPDEST PUSH1 0x0 DUP2 SLT ISZERO PUSH2 0x272F JUMPI PUSH1 0x0 DUP1 REVERT JUMPDEST PUSH1 0x0 PUSH2 0x273D PUSH2 0xFEE DUP5 PUSH2 0x42CE JUMP JUMPDEST SWAP1 POP PUSH2 0x2749 DUP2 DUP4 PUSH2 0x1689 JUMP JUMPDEST SWAP1 POP PUSH2 0x773 PUSH2 0xFEE DUP5 DUP4 PUSH2 0x4327 JUMP JUMPDEST PUSH1 0x0 DUP2 SLT ISZERO PUSH2 0x2766 JUMPI PUSH1 0x0 DUP1 REVERT JUMPDEST PUSH1 0x0 PUSH2 0x2775 DUP4 PUSH2 0xFFFF AND PUSH2 0x439B JUMP JUMPDEST SWAP1 POP PUSH1 0x0 PUSH2 0x2783 DUP3 DUP6 PUSH2 0x42CE JUMP JUMPDEST SWAP1 POP PUSH2 0x278F DUP2 DUP5 PUSH2 0x1689 JUMP JUMPDEST SWAP1 POP PUSH2 0xB72 DUP3 DUP6 DUP4 PUSH2 0x4327 JUMP JUMPDEST PUSH1 0x0 DUP1 DUP3 SLT ISZERO PUSH2 0x27CF JUMPI PUSH2 0x27CA PUSH1 0x1 PUSH2 0x248C DUP6 PUSH1 0x20 ADD MLOAD PUSH2 0x1534 DUP8 PUSH1 0x0 ADD MLOAD DUP8 PUSH2 0x163B SWAP1 SWAP2 SWAP1 PUSH4 0xFFFFFFFF AND JUMP JUMPDEST PUSH2 0xEA5 JUMP JUMPDEST POP SWAP2 SWAP1 POP JUMP JUMPDEST PUSH1 0x0 PUSH2 0x27DF PUSH2 0x1C43 JUMP JUMPDEST PUSH2 0xFFFF DUP6 AND PUSH1 0x0 SWAP1 DUP2 MSTORE PUSH1 0x20 SWAP2 SWAP1 SWAP2 MSTORE PUSH1 0x40 DUP2 KECCAK256 SLOAD PUSH1 0x1 PUSH1 0x1 PUSH1 0xA0 SHL SUB AND SWAP2 POP PUSH2 0x2807 PUSH2 0x43C1 JUMP JUMPDEST PUSH2 0xFFFF DUP7 AND PUSH1 0x0 SWAP1 DUP2 MSTORE PUSH1 0x20 SWAP2 SWAP1 SWAP2 MSTORE PUSH1 0x40 SWAP1 DUP2 SWAP1 KECCAK256 SLOAD SWAP1 MLOAD PUSH4 0xAD1C095D PUSH1 0xE0 SHL DUP2 MSTORE PUSH1 0x1 PUSH1 0x1 PUSH1 0xA0 SHL SUB SWAP1 SWAP2 AND SWAP2 POP DUP2 SWAP1 PUSH4 0xAD1C095D SWAP1 PUSH2 0x284F SWAP1 DUP10 SWAP1 DUP8 SWAP1 PUSH1 0x4 ADD PUSH2 0x5D36 JUMP JUMPDEST PUSH1 0x0 PUSH1 0x40 MLOAD DUP1 DUP4 SUB DUP2 PUSH1 0x0 DUP8 DUP1 EXTCODESIZE ISZERO DUP1 ISZERO PUSH2 0x2869 JUMPI PUSH1 0x0 DUP1 REVERT JUMPDEST POP GAS CALL ISZERO DUP1 ISZERO PUSH2 0x287D JUMPI RETURNDATASIZE PUSH1 0x0 DUP1 RETURNDATACOPY RETURNDATASIZE PUSH1 0x0 REVERT JUMPDEST POP POP PUSH1 0x40 MLOAD PUSH4 0xAD1C095D PUSH1 0xE0 SHL DUP2 MSTORE PUSH1 0x1 PUSH1 0x1 PUSH1 0xA0 SHL SUB DUP6 AND SWAP3 POP PUSH4 0xAD1C095D SWAP2 POP PUSH2 0x28AF SWAP1 DUP10 SWAP1 DUP9 SWAP1 PUSH1 0x4 ADD PUSH2 0x5D36 JUMP JUMPDEST PUSH1 0x0 PUSH1 0x40 MLOAD DUP1 DUP4 SUB DUP2 PUSH1 0x0 DUP8 DUP1 EXTCODESIZE ISZERO DUP1 ISZERO PUSH2 0x28C9 JUMPI PUSH1 0x0 DUP1 REVERT JUMPDEST POP GAS CALL ISZERO DUP1 ISZERO PUSH2 0x28DD JUMPI RETURNDATASIZE PUSH1 0x0 DUP1 RETURNDATACOPY RETURNDATASIZE PUSH1 0x0 REVERT JUMPDEST POP POP POP POP POP POP POP POP POP POP JUMP JUMPDEST PUSH1 0x0 PUSH2 0x28F3 PUSH2 0x1C43 JUMP JUMPDEST PUSH2 0xFFFF DUP6 AND PUSH1 0x0 SWAP1 DUP2 MSTORE PUSH1 0x20 SWAP2 SWAP1 SWAP2 MSTORE PUSH1 0x40 DUP2 KECCAK256 SLOAD PUSH1 0x1 PUSH1 0x1 PUSH1 0xA0 SHL SUB AND SWAP2 POP PUSH2 0x291B PUSH2 0x43CE JUMP JUMPDEST PUSH2 0xFFFF DUP7 AND PUSH1 0x0 SWAP1 DUP2 MSTORE PUSH1 0x20 SWAP2 SWAP1 SWAP2 MSTORE PUSH1 0x40 SWAP1 KECCAK256 SLOAD PUSH1 0x1 PUSH1 0x1 PUSH1 0xA0 SHL SUB SWAP1 DUP2 AND SWAP2 POP DUP3 AND PUSH4 0x23DE6651 DUP8 PUSH2 0xFEE PUSH2 0x2951 DUP8 PUSH2 0xC77 JUMP JUMPDEST PUSH1 0x40 MLOAD DUP5 PUSH4 0xFFFFFFFF AND PUSH1 0xE0 SHL DUP2 MSTORE PUSH1 0x4 ADD PUSH2 0x296F SWAP4 SWAP3 SWAP2 SWAP1 PUSH2 0x5C9E JUMP JUMPDEST PUSH1 0x0 PUSH1 0x40 MLOAD DUP1 DUP4 SUB DUP2 PUSH1 0x0 DUP8 DUP1 EXTCODESIZE ISZERO DUP1 ISZERO PUSH2 0x2989 JUMPI PUSH1 0x0 DUP1 REVERT JUMPDEST POP GAS CALL ISZERO DUP1 ISZERO PUSH2 0x299D JUMPI RETURNDATASIZE PUSH1 0x0 DUP1 RETURNDATACOPY RETURNDATASIZE PUSH1 0x0 REVERT JUMPDEST POP POP POP POP DUP2 PUSH1 0x1 PUSH1 0x1 PUSH1 0xA0 SHL SUB AND PUSH4 0x23DE6651 DUP8 DUP4 PUSH2 0x29BB DUP9 PUSH2 0xC77 JUMP JUMPDEST PUSH1 0x40 MLOAD DUP5 PUSH4 0xFFFFFFFF AND PUSH1 0xE0 SHL DUP2 MSTORE PUSH1 0x4 ADD PUSH2 0x28AF SWAP4 SWAP3 SWAP2 SWAP1 PUSH2 0x5C9E JUMP JUMPDEST PUSH1 0x0 DUP1 PUSH2 0x789 PUSH1 0x20 PUSH2 0x262B JUMP JUMPDEST PUSH1 0x0 DUP1 PUSH2 0x29F4 DUP6 DUP6 DUP6 PUSH2 0x43DB JUMP JUMPDEST SWAP2 POP SWAP2 POP PUSH1 0x0 DUP1 PUSH1 0x0 DUP6 SLT ISZERO PUSH2 0x2A0C JUMPI DUP8 SWAP2 POP PUSH2 0x2A0F JUMP JUMPDEST POP DUP7 JUMPDEST DUP1 PUSH1 0x1 PUSH1 0x1 PUSH1 0xA0 SHL SUB AND DUP3 PUSH1 0x1 PUSH1 0x1 PUSH1 0xA0 SHL SUB AND CALLER PUSH1 0x1 PUSH1 0x1 PUSH1 0xA0 SHL SUB AND PUSH1 0x0 DUP1 MLOAD PUSH1 0x20 PUSH2 0x5F28 DUP4 CODECOPY DUP2 MLOAD SWAP2 MSTORE DUP8 DUP8 PUSH1 0x40 MLOAD PUSH2 0x2A4C SWAP3 SWAP2 SWAP1 PUSH2 0x5DA9 JUMP JUMPDEST PUSH1 0x40 MLOAD DUP1 SWAP2 SUB SWAP1 LOG4 POP POP POP POP POP POP POP POP JUMP JUMPDEST DUP1 PUSH2 0x2A68 JUMPI PUSH2 0x12C0 JUMP JUMPDEST PUSH1 0x0 PUSH2 0x2A74 DUP5 DUP5 PUSH2 0x44C0 JUMP JUMPDEST SWAP1 POP PUSH1 0x0 DUP3 SLT ISZERO PUSH2 0x2A83 JUMPI SWAP4 SWAP5 SWAP4 JUMPDEST PUSH1 0x1 PUSH1 0x1 PUSH1 0xA0 SHL SUB DUP1 DUP7 AND SWAP1 DUP8 AND CALLER PUSH1 0x0 DUP1 MLOAD PUSH1 0x20 PUSH2 0x5F48 DUP4 CODECOPY DUP2 MLOAD SWAP2 MSTORE DUP5 PUSH2 0x2AAB DUP8 PUSH2 0x1C50 JUMP JUMPDEST PUSH1 0x40 MLOAD PUSH2 0x2AB9 SWAP3 SWAP2 SWAP1 PUSH2 0x5E92 JUMP JUMPDEST PUSH1 0x40 MLOAD DUP1 SWAP2 SUB SWAP1 LOG4 POP POP POP POP POP POP JUMP JUMPDEST PUSH1 0x0 PUSH5 0xFFFFFFFFFF DUP4 EQ PUSH2 0x2ADD JUMPI DUP2 PUSH2 0x150A JUMP JUMPDEST PUSH2 0x150A DUP5 DUP4 PUSH2 0x3D36 JUMP JUMPDEST PUSH1 0x0 DUP2 DUP4 EQ DUP1 PUSH2 0x2B04 JUMPI POP PUSH1 0x0 DUP4 SLT ISZERO DUP1 ISZERO PUSH2 0x2B04 JUMPI POP PUSH1 0x0 DUP3 SLT ISZERO JUMPDEST ISZERO PUSH2 0x2B11 JUMPI POP PUSH1 0x0 PUSH2 0x789 JUMP JUMPDEST PUSH1 0x0 DUP4 SGT ISZERO DUP1 ISZERO PUSH2 0x2B22 JUMPI POP DUP2 PUSH1 0x0 SLT JUMPDEST ISZERO PUSH2 0x2B2E JUMPI POP DUP2 PUSH2 0x789 JUMP JUMPDEST PUSH1 0x0 DUP3 SGT ISZERO DUP1 ISZERO PUSH2 0x2B3F JUMPI POP DUP3 PUSH1 0x0 SLT JUMPDEST ISZERO PUSH2 0x2B4D JUMPI PUSH2 0x1D7F DUP3 PUSH2 0x9DB JUMP JUMPDEST PUSH1 0x0 DUP4 SGT ISZERO DUP1 ISZERO PUSH2 0x2B5F JUMPI POP PUSH1 0x0 DUP3 SGT ISZERO JUMPDEST ISZERO PUSH2 0x7B JUMPI PUSH2 0x1D7F DUP4 DUP4 PUSH2 0x270B JUMP JUMPDEST DUP1 ISZERO PUSH2 0xB72 JUMPI DUP4 MLOAD PUSH1 0x20 DUP6 ADD MLOAD PUSH1 0x0 SWAP2 PUSH2 0x2B8D SWAP2 PUSH2 0x1534 SWAP1 DUP6 SWAP1 PUSH2 0x163B JUMP JUMPDEST SWAP1 POP PUSH2 0x12C0 DUP5 DUP5 DUP5 DUP5 PUSH2 0x44DE JUMP JUMPDEST PUSH1 0x0 PUSH2 0x2BA7 DUP4 DUP4 PUSH2 0x2AE7 JUMP JUMPDEST SWAP1 POP DUP1 PUSH2 0x2BB4 JUMPI POP PUSH2 0x12C0 JUMP JUMPDEST PUSH1 0x0 PUSH2 0x2BBE PUSH2 0x29D9 JUMP JUMPDEST PUSH2 0xFFFF DUP8 AND PUSH1 0x0 SWAP1 DUP2 MSTORE PUSH1 0x20 DUP3 DUP2 MSTORE PUSH1 0x40 DUP1 DUP4 KECCAK256 DUP10 DUP5 MSTORE SWAP1 SWAP2 MSTORE DUP2 KECCAK256 SLOAD SWAP2 SWAP3 POP PUSH1 0x1 PUSH1 0x1 PUSH1 0x50 SHL SUB SWAP1 SWAP2 AND DUP2 SUB SWAP1 PUSH2 0x2BF6 DUP3 DUP6 PUSH2 0x270B JUMP JUMPDEST SWAP1 POP PUSH1 0x0 DUP2 SGT ISZERO PUSH2 0x2C06 JUMPI PUSH1 0x0 DUP1 REVERT JUMPDEST PUSH2 0x2C15 PUSH2 0x1276 PUSH2 0x3B1 DUP4 PUSH2 0x9DB JUMP JUMPDEST PUSH2 0xFFFF DUP10 AND PUSH1 0x0 SWAP1 DUP2 MSTORE PUSH1 0x20 DUP6 DUP2 MSTORE PUSH1 0x40 DUP1 DUP4 KECCAK256 DUP12 DUP5 MSTORE SWAP1 SWAP2 MSTORE SWAP1 KECCAK256 DUP1 SLOAD PUSH1 0x1 PUSH1 0x1 PUSH1 0x50 SHL SUB NOT AND PUSH1 0x1 PUSH1 0x1 PUSH1 0x50 SHL SUB SWAP3 SWAP1 SWAP3 AND SWAP2 SWAP1 SWAP2 OR SWAP1 SSTORE PUSH2 0xD3B DUP10 DUP10 DUP10 DUP8 PUSH2 0x29E6 JUMP JUMPDEST PUSH1 0x0 PUSH2 0x2C65 PUSH2 0x461B JUMP JUMPDEST PUSH1 0x1 PUSH1 0x1 PUSH1 0xA0 SHL SUB DUP6 AND PUSH1 0x0 SWAP1 DUP2 MSTORE PUSH1 0x20 SWAP2 DUP3 MSTORE PUSH1 0x40 DUP1 DUP3 KECCAK256 PUSH2 0xFFFF DUP8 AND DUP4 MSTORE SWAP1 SWAP3 MSTORE SWAP1 DUP2 KECCAK256 DUP1 SLOAD SWAP1 SWAP3 POP PUSH2 0x2CAA SWAP1 PUSH1 0x1 PUSH1 0x50 SHL SWAP1 DIV PUSH1 0x1 PUSH1 0x1 PUSH1 0x50 SHL SUB AND DUP5 PUSH2 0x270B JUMP JUMPDEST SWAP1 POP PUSH2 0x2CB8 PUSH2 0x1276 DUP3 PUSH2 0xC77 JUMP JUMPDEST DUP3 SLOAD PUSH1 0x1 PUSH1 0x1 PUSH1 0x50 SHL SUB SWAP2 SWAP1 SWAP2 AND PUSH1 0x1 PUSH1 0x50 SHL MUL PUSH10 0xFFFFFFFFFFFFFFFFFFFF PUSH1 0x50 SHL NOT SWAP1 SWAP2 AND OR DUP3 SSTORE PUSH1 0x40 MLOAD PUSH2 0xFFFF DUP6 AND SWAP1 PUSH1 0x1 PUSH1 0x1 PUSH1 0xA0 SHL SUB DUP8 AND SWAP1 PUSH32 0x20478EF460E49D010960D4F3FFF35D8DAE385443ABFAC09035D6A2CCBCD834C4 SWAP1 PUSH2 0x2D22 SWAP1 DUP6 SWAP1 PUSH2 0x5E89 JUMP JUMPDEST PUSH1 0x40 MLOAD DUP1 SWAP2 SUB SWAP1 LOG3 POP POP POP POP POP JUMP JUMPDEST PUSH1 0x0 DUP1 DUP5 PUSH1 0x40 ADD MLOAD PUSH2 0xFFFF AND DUP4 PUSH2 0xFFFF AND EQ ISZERO PUSH2 0x2D7D JUMPI PUSH2 0x2D50 PUSH2 0x1603 JUMP JUMPDEST DUP6 MLOAD PUSH1 0x1 PUSH1 0x1 PUSH1 0xA0 SHL SUB AND PUSH1 0x0 SWAP1 DUP2 MSTORE PUSH1 0x20 SWAP2 DUP3 MSTORE PUSH1 0x40 DUP1 DUP3 KECCAK256 PUSH5 0xFFFFFFFFFF DUP4 MSTORE SWAP1 SWAP3 MSTORE KECCAK256 SWAP1 POP PUSH2 0x2DBA JUMP JUMPDEST PUSH2 0x2D85 PUSH2 0x4628 JUMP JUMPDEST DUP6 MLOAD PUSH1 0x1 PUSH1 0x1 PUSH1 0xA0 SHL SUB AND PUSH1 0x0 SWAP1 DUP2 MSTORE PUSH1 0x20 SWAP2 DUP3 MSTORE PUSH1 0x40 DUP1 DUP3 KECCAK256 PUSH5 0xFFFFFFFFFF DUP4 MSTORE DUP4 MSTORE DUP1 DUP3 KECCAK256 PUSH2 0xFFFF DUP8 AND DUP4 MSTORE SWAP1 SWAP3 MSTORE KECCAK256 SWAP1 POP JUMPDEST DUP1 SLOAD PUSH2 0xD70 SWAP1 DUP6 SWAP1 PUSH5 0xFFFFFFFFFF SWAP1 PUSH1 0x1 PUSH1 0x1 PUSH1 0x50 SHL SUB AND PUSH2 0x14D4 JUMP JUMPDEST PUSH1 0x0 PUSH2 0x2DE1 PUSH2 0x461B JUMP JUMPDEST PUSH1 0x1 PUSH1 0x1 PUSH1 0xA0 SHL SUB DUP6 AND PUSH1 0x0 SWAP1 DUP2 MSTORE PUSH1 0x20 SWAP2 DUP3 MSTORE PUSH1 0x40 DUP1 DUP3 KECCAK256 PUSH2 0xFFFF DUP8 AND DUP4 MSTORE SWAP1 SWAP3 MSTORE SWAP1 DUP2 KECCAK256 DUP1 SLOAD SWAP1 SWAP3 POP PUSH2 0x2E26 SWAP1 PUSH1 0x1 PUSH1 0x50 SHL SWAP1 DIV PUSH1 0x1 PUSH1 0x1 PUSH1 0x50 SHL SUB AND DUP5 PUSH2 0x270B JUMP JUMPDEST DUP3 SLOAD SWAP1 SWAP2 POP PUSH1 0x1 PUSH1 0x1 PUSH1 0x50 SHL SUB AND DUP2 SGT ISZERO PUSH2 0x12C0 JUMPI PUSH1 0x40 MLOAD PUSH3 0x461BCD PUSH1 0xE5 SHL DUP2 MSTORE PUSH1 0x4 ADD PUSH2 0x1A5F SWAP1 PUSH2 0x5E1A JUMP JUMPDEST DUP1 ISZERO PUSH2 0x2EE0 JUMPI PUSH20 0x82AF49447D8A07E3BD95BD0D56F35241523FBAB1 PUSH1 0x1 PUSH1 0x1 PUSH1 0xA0 SHL SUB AND PUSH4 0xD0E30DB0 DUP4 PUSH1 0x40 MLOAD DUP3 PUSH4 0xFFFFFFFF AND PUSH1 0xE0 SHL DUP2 MSTORE PUSH1 0x4 ADD PUSH1 0x0 PUSH1 0x40 MLOAD DUP1 DUP4 SUB DUP2 DUP6 DUP9 DUP1 EXTCODESIZE ISZERO DUP1 ISZERO PUSH2 0x2EA8 JUMPI PUSH1 0x0 DUP1 REVERT JUMPDEST POP GAS CALL ISZERO DUP1 ISZERO PUSH2 0x2EBC JUMPI RETURNDATASIZE PUSH1 0x0 DUP1 RETURNDATACOPY RETURNDATASIZE PUSH1 0x0 REVERT JUMPDEST POP POP POP POP POP PUSH2 0x759 PUSH20 0x82AF49447D8A07E3BD95BD0D56F35241523FBAB1 DUP5 DUP5 PUSH2 0x33C0 JUMP JUMPDEST PUSH1 0x40 MLOAD PUSH1 0x1 PUSH1 0x1 PUSH1 0xA0 SHL SUB DUP5 AND SWAP1 DUP4 ISZERO PUSH2 0x8FC MUL SWAP1 DUP5 SWAP1 PUSH1 0x0 DUP2 DUP2 DUP2 DUP6 DUP9 DUP9 CALL SWAP4 POP POP POP POP ISZERO DUP1 ISZERO PUSH2 0xB72 JUMPI RETURNDATASIZE PUSH1 0x0 DUP1 RETURNDATACOPY RETURNDATASIZE PUSH1 0x0 REVERT JUMPDEST PUSH1 0x0 DUP1 DUP5 PUSH1 0x1 PUSH1 0x1 PUSH1 0xA0 SHL SUB AND PUSH4 0x70A08231 ADDRESS PUSH1 0x40 MLOAD DUP3 PUSH4 0xFFFFFFFF AND PUSH1 0xE0 SHL DUP2 MSTORE PUSH1 0x4 ADD DUP1 DUP3 PUSH1 0x1 PUSH1 0x1 PUSH1 0xA0 SHL SUB AND DUP2 MSTORE PUSH1 0x20 ADD SWAP2 POP POP PUSH1 0x20 PUSH1 0x40 MLOAD DUP1 DUP4 SUB DUP2 DUP7 DUP1 EXTCODESIZE ISZERO DUP1 ISZERO PUSH2 0x2F66 JUMPI PUSH1 0x0 DUP1 REVERT JUMPDEST POP GAS STATICCALL ISZERO DUP1 ISZERO PUSH2 0x2F7A JUMPI RETURNDATASIZE PUSH1 0x0 DUP1 RETURNDATACOPY RETURNDATASIZE PUSH1 0x0 REVERT JUMPDEST POP POP POP POP PUSH1 0x40 MLOAD RETURNDATASIZE PUSH1 0x20 DUP2 LT ISZERO PUSH2 0x2F90 JUMPI PUSH1 0x0 DUP1 REVERT JUMPDEST POP MLOAD PUSH1 0x40 DUP1 MLOAD PUSH4 0x23B872DD PUSH1 0xE0 SHL DUP2 MSTORE PUSH1 0x1 PUSH1 0x1 PUSH1 0xA0 SHL SUB DUP8 DUP2 AND PUSH1 0x4 DUP4 ADD MSTORE ADDRESS PUSH1 0x24 DUP4 ADD MSTORE PUSH1 0x44 DUP3 ADD DUP8 SWAP1 MSTORE SWAP2 MLOAD SWAP3 SWAP4 POP SWAP1 DUP8 AND SWAP2 PUSH4 0x23B872DD SWAP2 PUSH1 0x64 DUP1 DUP3 ADD SWAP3 PUSH1 0x0 SWAP3 SWAP1 SWAP2 SWAP1 DUP3 SWAP1 SUB ADD DUP2 DUP4 DUP8 DUP1 EXTCODESIZE ISZERO DUP1 ISZERO PUSH2 0x2FED JUMPI PUSH1 0x0 DUP1 REVERT JUMPDEST POP GAS CALL ISZERO DUP1 ISZERO PUSH2 0x3001 JUMPI RETURNDATASIZE PUSH1 0x0 DUP1 RETURNDATACOPY RETURNDATASIZE PUSH1 0x0 REVERT JUMPDEST POP POP POP POP PUSH2 0x300D PUSH2 0x4635 JUMP JUMPDEST PUSH1 0x0 DUP6 PUSH1 0x1 PUSH1 0x1 PUSH1 0xA0 SHL SUB AND PUSH4 0x70A08231 ADDRESS PUSH1 0x40 MLOAD DUP3 PUSH4 0xFFFFFFFF AND PUSH1 0xE0 SHL DUP2 MSTORE PUSH1 0x4 ADD DUP1 DUP3 PUSH1 0x1 PUSH1 0x1 PUSH1 0xA0 SHL SUB AND DUP2 MSTORE PUSH1 0x20 ADD SWAP2 POP POP PUSH1 0x20 PUSH1 0x40 MLOAD DUP1 DUP4 SUB DUP2 DUP7 DUP1 EXTCODESIZE ISZERO DUP1 ISZERO PUSH2 0x305C JUMPI PUSH1 0x0 DUP1 REVERT JUMPDEST POP GAS STATICCALL ISZERO DUP1 ISZERO PUSH2 0x3070 JUMPI RETURNDATASIZE PUSH1 0x0 DUP1 RETURNDATACOPY RETURNDATASIZE PUSH1 0x0 REVERT JUMPDEST POP POP POP POP PUSH1 0x40 MLOAD RETURNDATASIZE PUSH1 0x20 DUP2 LT ISZERO PUSH2 0x3086 JUMPI PUSH1 0x0 DUP1 REVERT JUMPDEST POP MLOAD SWAP1 POP PUSH2 0x3094 DUP2 DUP4 PUSH2 0x1610 JUMP JUMPDEST SWAP7 SWAP6 POP POP POP POP POP POP JUMP JUMPDEST PUSH1 0x0 DUP1 PUSH2 0x30AB DUP5 DUP7 PUSH2 0x35F8 JUMP JUMPDEST SWAP1 POP PUSH2 0x30B7 DUP4 DUP3 PUSH2 0x1512 JUMP JUMPDEST SWAP2 POP PUSH2 0x30C4 DUP8 DUP8 DUP5 PUSH2 0x46A2 JUMP JUMPDEST PUSH2 0x30CF DUP7 DUP4 DUP4 PUSH2 0x3628 JUMP JUMPDEST DUP4 MLOAD PUSH2 0x30DB SWAP1 DUP7 PUSH2 0x4722 JUMP JUMPDEST POP SWAP6 SWAP5 POP POP POP POP POP JUMP JUMPDEST PUSH1 0x0 DUP1 PUSH2 0x30F1 DUP4 PUSH2 0x4777 JUMP JUMPDEST PUSH1 0xFF AND SWAP4 SWAP3 POP POP POP JUMP JUMPDEST PUSH1 0x0 DUP1 PUSH1 0x0 DUP6 GT PUSH2 0x310B JUMPI PUSH1 0x0 DUP1 REVERT JUMPDEST PUSH1 0x7 DUP6 GT ISZERO PUSH2 0x3119 JUMPI PUSH1 0x0 DUP1 REVERT JUMPDEST PUSH1 0x0 PUSH2 0x3124 DUP5 PUSH2 0x4794 JUMP JUMPDEST SWAP1 POP PUSH1 0x1 JUMPDEST DUP7 DUP2 GT PUSH2 0x317C JUMPI PUSH1 0x0 PUSH2 0x3145 PUSH2 0x313E DUP4 PUSH2 0x47B2 JUMP JUMPDEST DUP5 SWAP1 PUSH2 0xE93 JUMP JUMPDEST SWAP1 POP DUP7 DUP2 EQ ISZERO PUSH2 0x315D JUMPI POP SWAP3 POP PUSH1 0x0 SWAP2 POP PUSH2 0x3182 SWAP1 POP JUMP JUMPDEST DUP7 DUP2 GT ISZERO PUSH2 0x3173 JUMPI POP SWAP3 POP PUSH1 0x1 SWAP2 POP PUSH2 0x3182 SWAP1 POP JUMP JUMPDEST POP PUSH1 0x1 ADD PUSH2 0x3129 JUMP JUMPDEST POP PUSH1 0x0 DUP1 REVERT JUMPDEST SWAP4 POP SWAP4 SWAP2 POP POP JUMP JUMPDEST DUP4 MLOAD PUSH1 0x20 DUP5 ADD MLOAD EQ PUSH2 0x319B JUMPI PUSH1 0x0 DUP1 REVERT JUMPDEST PUSH1 0x0 PUSH2 0x31A5 PUSH2 0x1603 JUMP JUMPDEST DUP4 MLOAD PUSH1 0x1 PUSH1 0x1 PUSH1 0xA0 SHL SUB AND PUSH1 0x0 SWAP1 DUP2 MSTORE PUSH1 0x20 DUP3 DUP2 MSTORE PUSH1 0x40 DUP1 DUP4 KECCAK256 DUP10 MLOAD DUP5 MSTORE SWAP1 SWAP2 MSTORE SWAP1 DUP2 SWAP1 KECCAK256 SWAP1 DUP8 ADD MLOAD SWAP2 SWAP3 POP SWAP1 PUSH2 0x31DC SWAP1 DUP5 PUSH2 0xE93 JUMP JUMPDEST PUSH1 0x40 DUP1 DUP9 ADD SWAP2 SWAP1 SWAP2 MSTORE DUP6 ADD MLOAD PUSH2 0x998 SWAP1 DUP5 PUSH2 0xE93 JUMP JUMPDEST PUSH1 0x0 DUP1 PUSH2 0x3210 DUP9 PUSH1 0x0 ADD MLOAD DUP10 PUSH1 0x40 ADD MLOAD DUP9 DUP12 PUSH2 0x160 ADD MLOAD PUSH1 0x0 PUSH2 0xD46 JUMP JUMPDEST DUP9 MLOAD PUSH1 0x40 MLOAD PUSH4 0xDC6679C5 PUSH1 0xE0 SHL DUP2 MSTORE SWAP2 SWAP3 POP PUSH1 0x1 PUSH1 0x1 PUSH1 0xA0 SHL SUB AND SWAP1 PUSH4 0xDC6679C5 SWAP1 PUSH2 0x3248 SWAP1 DUP11 SWAP1 DUP6 SWAP1 DUP11 SWAP1 DUP11 SWAP1 DUP11 SWAP1 PUSH1 0x4 ADD PUSH2 0x5D70 JUMP JUMPDEST PUSH1 0x20 PUSH1 0x40 MLOAD DUP1 DUP4 SUB DUP2 PUSH1 0x0 DUP8 DUP1 EXTCODESIZE ISZERO DUP1 ISZERO PUSH2 0x3262 JUMPI PUSH1 0x0 DUP1 REVERT JUMPDEST POP GAS CALL ISZERO DUP1 ISZERO PUSH2 0x3276 JUMPI RETURNDATASIZE PUSH1 0x0 DUP1 RETURNDATACOPY RETURNDATASIZE PUSH1 0x0 REVERT JUMPDEST POP POP POP POP PUSH1 0x40 MLOAD RETURNDATASIZE PUSH1 0x1F NOT PUSH1 0x1F DUP3 ADD AND DUP3 ADD DUP1 PUSH1 0x40 MSTORE POP DUP2 ADD SWAP1 PUSH2 0x26FF SWAP2 SWAP1 PUSH2 0x5BD1 JUMP JUMPDEST PUSH1 0x0 PUSH4 0x5F5E100 DUP4 PUSH1 0x40 ADD MLOAD EQ ISZERO PUSH2 0x32B3 JUMPI POP DUP1 PUSH2 0x789 JUMP JUMPDEST PUSH2 0xEA5 PUSH4 0x5F5E100 PUSH2 0x1534 DUP6 PUSH1 0x40 ADD MLOAD DUP6 PUSH2 0x163B SWAP1 SWAP2 SWAP1 PUSH4 0xFFFFFFFF AND JUMP JUMPDEST PUSH1 0x0 PUSH2 0x32DC PUSH2 0x4856 JUMP JUMPDEST DUP4 MLOAD PUSH1 0x1 PUSH1 0x1 PUSH1 0xA0 SHL SUB AND PUSH1 0x0 SWAP1 DUP2 MSTORE PUSH1 0x20 DUP3 SWAP1 MSTORE PUSH1 0x40 SWAP1 KECCAK256 SLOAD SWAP1 SWAP2 POP DUP1 DUP4 GT PUSH2 0x3307 JUMPI POP POP PUSH2 0x773 JUMP JUMPDEST PUSH1 0x0 PUSH2 0x3312 DUP7 PUSH2 0x4863 JUMP JUMPDEST SWAP1 POP PUSH1 0x0 DUP2 PUSH1 0x1 PUSH1 0x1 PUSH1 0xA0 SHL SUB AND PUSH4 0xB5E4DA23 DUP5 DUP8 SUB PUSH1 0x40 MLOAD DUP3 PUSH4 0xFFFFFFFF AND PUSH1 0xE0 SHL DUP2 MSTORE PUSH1 0x4 ADD PUSH2 0x3344 SWAP2 SWAP1 PUSH2 0x5E89 JUMP JUMPDEST PUSH1 0x0 PUSH1 0x40 MLOAD DUP1 DUP4 SUB DUP2 DUP7 DUP1 EXTCODESIZE ISZERO DUP1 ISZERO PUSH2 0x335C JUMPI PUSH1 0x0 DUP1 REVERT JUMPDEST POP GAS STATICCALL ISZERO DUP1 ISZERO PUSH2 0x3370 JUMPI RETURNDATASIZE PUSH1 0x0 DUP1 RETURNDATACOPY RETURNDATASIZE PUSH1 0x0 REVERT JUMPDEST POP POP POP POP PUSH1 0x40 MLOAD RETURNDATASIZE PUSH1 0x0 DUP3 RETURNDATACOPY PUSH1 0x1F RETURNDATASIZE SWAP1 DUP2 ADD PUSH1 0x1F NOT AND DUP3 ADD PUSH1 0x40 MSTORE PUSH2 0x3398 SWAP2 SWAP1 DUP2 ADD SWAP1 PUSH2 0x5AC3 JUMP JUMPDEST SWAP1 POP PUSH1 0x0 PUSH2 0x33A6 DUP8 DUP4 PUSH2 0x4893 JUMP JUMPDEST SWAP2 POP PUSH2 0x33B4 SWAP1 POP DUP5 DUP3 PUSH2 0xE93 JUMP JUMPDEST DUP7 GT ISZERO PUSH2 0x21EE JUMPI PUSH1 0x0 DUP1 REVERT JUMPDEST DUP3 PUSH1 0x1 PUSH1 0x1 PUSH1 0xA0 SHL SUB AND PUSH4 0xA9059CBB DUP4 DUP4 PUSH1 0x40 MLOAD DUP4 PUSH4 0xFFFFFFFF AND PUSH1 0xE0 SHL DUP2 MSTORE PUSH1 0x4 ADD DUP1 DUP4 PUSH1 0x1 PUSH1 0x1 PUSH1 0xA0 SHL SUB AND DUP2 MSTORE PUSH1 0x20 ADD DUP3 DUP2 MSTORE PUSH1 0x20 ADD SWAP3 POP POP POP PUSH1 0x0 PUSH1 0x40 MLOAD DUP1 DUP4 SUB DUP2 PUSH1 0x0 DUP8 DUP1 EXTCODESIZE ISZERO DUP1 ISZERO PUSH2 0x3417 JUMPI PUSH1 0x0 DUP1 REVERT JUMPDEST POP GAS CALL ISZERO DUP1 ISZERO PUSH2 0x342B JUMPI RETURNDATASIZE PUSH1 0x0 DUP1 RETURNDATACOPY RETURNDATASIZE PUSH1 0x0 REVERT JUMPDEST POP POP POP POP PUSH2 0x773 PUSH2 0x4635 JUMP JUMPDEST PUSH2 0x343F PUSH2 0x564A JUMP JUMPDEST PUSH1 0x0 PUSH2 0x3449 PUSH2 0x4AAA JUMP JUMPDEST PUSH1 0x0 DUP6 DUP2 MSTORE PUSH1 0x20 DUP3 DUP2 MSTORE PUSH1 0x40 DUP1 DUP4 KECCAK256 DUP8 ISZERO ISZERO DUP5 MSTORE DUP3 MSTORE SWAP2 DUP3 SWAP1 KECCAK256 DUP3 MLOAD PUSH1 0xA0 DUP2 ADD DUP5 MSTORE DUP2 SLOAD PUSH1 0x1 PUSH1 0x1 PUSH1 0xA0 SHL SUB DUP2 AND DUP3 MSTORE PUSH1 0xFF PUSH1 0x1 PUSH1 0xA0 SHL DUP3 DIV DUP2 AND ISZERO ISZERO SWAP5 DUP4 ADD SWAP5 SWAP1 SWAP5 MSTORE PUSH1 0x1 PUSH1 0xB0 SHL DUP2 DIV DUP5 AND PUSH1 0xA EXP SWAP5 DUP3 ADD SWAP5 SWAP1 SWAP5 MSTORE SWAP4 SWAP5 POP SWAP3 SWAP2 PUSH1 0x60 DUP4 ADD SWAP2 PUSH1 0x1 PUSH1 0xA8 SHL SWAP1 SWAP2 DIV AND PUSH1 0x5 DUP2 GT ISZERO PUSH2 0x34BE JUMPI INVALID JUMPDEST DUP2 MSTORE PUSH1 0x0 PUSH1 0x20 SWAP1 SWAP2 ADD MSTORE SWAP6 SWAP5 POP POP POP POP POP JUMP JUMPDEST PUSH1 0x0 PUSH1 0x3 DUP4 PUSH1 0x60 ADD MLOAD PUSH1 0x5 DUP2 GT ISZERO PUSH2 0x34E5 JUMPI INVALID JUMPDEST EQ ISZERO PUSH2 0x34FC JUMPI POP PUSH1 0x1 PUSH1 0x1 PUSH1 0xA0 SHL SUB DUP2 AND BALANCE PUSH2 0x789 JUMP JUMPDEST DUP3 MLOAD PUSH1 0x40 MLOAD PUSH4 0x70A08231 PUSH1 0xE0 SHL DUP2 MSTORE PUSH1 0x1 PUSH1 0x1 PUSH1 0xA0 SHL SUB SWAP1 SWAP2 AND SWAP1 PUSH4 0x70A08231 SWAP1 PUSH2 0x352B SWAP1 DUP6 SWAP1 PUSH1 0x4 ADD PUSH2 0x5C70 JUMP JUMPDEST PUSH1 0x20 PUSH1 0x40 MLOAD DUP1 DUP4 SUB DUP2 DUP7 DUP1 EXTCODESIZE ISZERO DUP1 ISZERO PUSH2 0x3543 JUMPI PUSH1 0x0 DUP1 REVERT JUMPDEST POP GAS STATICCALL ISZERO DUP1 ISZERO PUSH2 0x3557 JUMPI RETURNDATASIZE PUSH1 0x0 DUP1 RETURNDATACOPY RETURNDATASIZE PUSH1 0x0 REVERT JUMPDEST POP POP POP POP PUSH1 0x40 MLOAD RETURNDATASIZE PUSH1 0x1F NOT PUSH1 0x1F DUP3 ADD AND DUP3 ADD DUP1 PUSH1 0x40 MSTORE POP DUP2 ADD SWAP1 PUSH2 0x1D7F SWAP2 SWAP1 PUSH2 0x5BD1 JUMP JUMPDEST PUSH1 0x0 PUSH2 0x3585 PUSH2 0x4856 JUMP JUMPDEST PUSH1 0x1 PUSH1 0x1 PUSH1 0xA0 SHL SUB DUP6 AND PUSH1 0x0 SWAP1 DUP2 MSTORE PUSH1 0x20 DUP3 SWAP1 MSTORE PUSH1 0x40 SWAP1 KECCAK256 SLOAD SWAP1 SWAP2 POP DUP4 DUP2 GT ISZERO PUSH2 0x35AE JUMPI PUSH1 0x0 DUP1 REVERT JUMPDEST PUSH1 0x0 PUSH2 0x35C5 PUSH2 0x35BC DUP7 PUSH2 0xC8A JUMP JUMPDEST PUSH2 0x248C DUP7 PUSH2 0xC8A JUMP JUMPDEST SWAP1 POP PUSH2 0x35D4 PUSH2 0x3B1 DUP4 DUP4 PUSH2 0x1689 JUMP JUMPDEST PUSH1 0x1 PUSH1 0x1 PUSH1 0xA0 SHL SUB SWAP1 SWAP7 AND PUSH1 0x0 SWAP1 DUP2 MSTORE PUSH1 0x20 SWAP4 SWAP1 SWAP4 MSTORE POP POP PUSH1 0x40 SWAP1 KECCAK256 SWAP3 SWAP1 SWAP3 SSTORE POP POP JUMP JUMPDEST PUSH1 0x0 PUSH4 0x5F5E100 DUP4 PUSH1 0x40 ADD MLOAD EQ ISZERO PUSH2 0x3611 JUMPI POP DUP1 PUSH2 0x789 JUMP JUMPDEST PUSH1 0x40 DUP4 ADD MLOAD PUSH2 0xEA5 SWAP1 PUSH2 0x1534 DUP5 PUSH4 0x5F5E100 PUSH2 0x163B JUMP JUMPDEST PUSH1 0x0 PUSH2 0x3632 PUSH2 0x4AB7 JUMP JUMPDEST PUSH2 0xFFFF DUP6 AND PUSH1 0x0 SWAP1 DUP2 MSTORE PUSH1 0x20 SWAP2 SWAP1 SWAP2 MSTORE PUSH1 0x40 SWAP1 KECCAK256 DUP1 SLOAD SWAP1 SWAP2 POP PUSH5 0xFFFFFFFFFF AND TIMESTAMP EQ PUSH2 0x365D JUMPI PUSH1 0x0 DUP1 REVERT JUMPDEST DUP1 SLOAD PUSH1 0x0 SWAP1 PUSH2 0x367C SWAP1 PUSH1 0x1 PUSH1 0x28 SHL SWAP1 DIV PUSH1 0x1 PUSH1 0x1 PUSH1 0x58 SHL SUB AND DUP6 PUSH2 0x1689 JUMP JUMPDEST DUP3 SLOAD SWAP1 SWAP2 POP PUSH1 0x0 SWAP1 PUSH2 0x369E SWAP1 PUSH1 0x1 PUSH1 0x80 SHL SWAP1 DIV PUSH1 0x1 PUSH1 0x1 PUSH1 0x58 SHL SUB AND DUP6 PUSH2 0x1689 JUMP JUMPDEST SWAP1 POP DUP1 PUSH3 0x4C4B40 SGT ISZERO PUSH2 0x36B0 JUMPI PUSH1 0x0 DUP1 REVERT JUMPDEST PUSH2 0x36C1 PUSH2 0x36BC DUP3 PUSH2 0xC77 JUMP JUMPDEST PUSH2 0x4AC4 JUMP JUMPDEST DUP4 SLOAD PUSH1 0x1 PUSH1 0x1 PUSH1 0x58 SHL SUB SWAP2 SWAP1 SWAP2 AND PUSH1 0x1 PUSH1 0x80 SHL MUL PUSH11 0xFFFFFFFFFFFFFFFFFFFFFF PUSH1 0x80 SHL NOT SWAP1 SWAP2 AND OR DUP4 SSTORE PUSH2 0x36F7 PUSH2 0x36BC DUP4 PUSH2 0xC77 JUMP JUMPDEST DUP4 SLOAD PUSH1 0x1 PUSH1 0x1 PUSH1 0x58 SHL SUB SWAP2 SWAP1 SWAP2 AND PUSH1 0x1 PUSH1 0x28 SHL MUL PUSH16 0xFFFFFFFFFFFFFFFFFFFFFF0000000000 NOT SWAP1 SWAP2 AND OR DUP4 SSTORE PUSH2 0xAC4 DUP4 PUSH2 0x4ADA JUMP JUMPDEST DUP2 ISZERO PUSH2 0x12C0 JUMPI PUSH1 0x0 PUSH2 0x3759 PUSH2 0x3B1 PUSH2 0x374D PUSH2 0x3746 DUP7 PUSH2 0xC8A JUMP JUMPDEST DUP9 SWAP1 PUSH2 0x35F8 JUMP JUMPDEST PUSH2 0x160 DUP10 ADD MLOAD SWAP1 PUSH2 0x1512 JUMP JUMPDEST SWAP1 POP PUSH2 0xAC4 DUP7 PUSH1 0x0 ADD MLOAD DUP6 DUP9 PUSH1 0x40 ADD MLOAD PUSH2 0x3776 DUP6 PUSH2 0x17FA DUP9 PUSH2 0xC77 JUMP JUMPDEST DUP6 PUSH2 0x4BA5 JUMP JUMPDEST PUSH1 0x0 DUP1 PUSH2 0x789 PUSH1 0x1A PUSH2 0x262B JUMP JUMPDEST PUSH1 0x40 DUP1 MLOAD PUSH1 0x2 DUP1 DUP3 MSTORE PUSH1 0x60 DUP3 ADD DUP4 MSTORE PUSH1 0x0 SWAP3 PUSH1 0x20 DUP4 ADD SWAP1 DUP1 CALLDATASIZE DUP4 CALLDATACOPY POP POP PUSH1 0x40 DUP1 MLOAD PUSH1 0x2 DUP1 DUP3 MSTORE PUSH1 0x60 DUP3 ADD DUP4 MSTORE SWAP4 SWAP5 POP PUSH1 0x0 SWAP4 SWAP1 SWAP3 POP SWAP1 PUSH1 0x20 DUP4 ADD SWAP1 DUP1 CALLDATASIZE DUP4 CALLDATACOPY ADD SWAP1 POP POP SWAP1 POP PUSH1 0x0 PUSH2 0x37F0 DUP7 PUSH1 0x0 ADD MLOAD DUP8 PUSH1 0x40 ADD MLOAD DUP8 PUSH1 0x40 ADD MLOAD PUSH5 0xFFFFFFFFFF AND PUSH1 0x0 PUSH2 0x3E65 JUMP JUMPDEST SWAP1 POP PUSH1 0xA PUSH1 0xFF AND DUP2 OR DUP4 PUSH1 0x0 DUP2 MLOAD DUP2 LT PUSH2 0x3806 JUMPI INVALID JUMPDEST PUSH1 0x20 MUL PUSH1 0x20 ADD ADD DUP2 DUP2 MSTORE POP POP PUSH1 0x9 PUSH1 0xFF AND DUP2 OR DUP4 PUSH1 0x1 DUP2 MLOAD DUP2 LT PUSH2 0x3826 JUMPI INVALID JUMPDEST PUSH1 0x20 MUL PUSH1 0x20 ADD ADD DUP2 DUP2 MSTORE POP POP DUP7 PUSH1 0x20 ADD MLOAD PUSH1 0x0 EQ DUP1 PUSH2 0x3869 JUMPI POP PUSH1 0x40 DUP6 ADD MLOAD PUSH5 0xFFFFFFFFFF AND ISZERO DUP1 ISZERO SWAP1 PUSH2 0x3869 JUMPI POP DUP7 PUSH1 0x20 ADD MLOAD DUP6 PUSH1 0x40 ADD MLOAD PUSH5 0xFFFFFFFFFF AND EQ ISZERO JUMPDEST ISZERO PUSH2 0x390B JUMPI DUP5 PUSH1 0x0 ADD MLOAD PUSH1 0x1 PUSH1 0x1 PUSH1 0x50 SHL SUB AND DUP3 PUSH1 0x0 DUP2 MLOAD DUP2 LT PUSH2 0x3889 JUMPI INVALID JUMPDEST PUSH1 0x20 MUL PUSH1 0x20 ADD ADD DUP2 DUP2 MSTORE POP POP DUP5 PUSH1 0x20 ADD MLOAD PUSH1 0x1 PUSH1 0x1 PUSH1 0x50 SHL SUB AND DUP3 PUSH1 0x1 DUP2 MLOAD DUP2 LT PUSH2 0x38B0 JUMPI INVALID JUMPDEST PUSH1 0x20 MUL PUSH1 0x20 ADD ADD DUP2 DUP2 MSTORE POP POP PUSH1 0x0 PUSH1 0x1 PUSH1 0x1 PUSH1 0xA0 SHL SUB AND DUP8 PUSH1 0x60 ADD MLOAD PUSH1 0x1 PUSH1 0x1 PUSH1 0xA0 SHL SUB AND CALLER PUSH1 0x1 PUSH1 0x1 PUSH1 0xA0 SHL SUB AND PUSH1 0x0 DUP1 MLOAD PUSH1 0x20 PUSH2 0x5F28 DUP4 CODECOPY DUP2 MLOAD SWAP2 MSTORE DUP7 DUP7 PUSH1 0x40 MLOAD PUSH2 0x38FE SWAP3 SWAP2 SWAP1 PUSH2 0x5DA9 JUMP JUMPDEST PUSH1 0x40 MLOAD DUP1 SWAP2 SUB SWAP1 LOG4 PUSH2 0x3B08 JUMP JUMPDEST DUP5 PUSH1 0x40 ADD MLOAD PUSH5 0xFFFFFFFFFF AND DUP8 PUSH1 0x20 ADD MLOAD EQ ISZERO PUSH2 0x3B08 JUMPI DUP5 MLOAD PUSH1 0x0 SWAP1 PUSH1 0x1 PUSH1 0x1 PUSH1 0x50 SHL SUB AND DUP6 LT DUP1 PUSH2 0x394D JUMPI POP DUP6 PUSH1 0x20 ADD MLOAD PUSH1 0x1 PUSH1 0x1 PUSH1 0x50 SHL SUB AND DUP9 PUSH1 0x40 ADD MLOAD LT JUMPDEST SWAP1 POP DUP1 ISZERO PUSH2 0x3A1D JUMPI DUP6 MLOAD PUSH1 0x1 PUSH1 0x1 PUSH1 0x50 SHL SUB AND DUP6 LT PUSH2 0x396D JUMPI PUSH1 0x0 PUSH2 0x397C JUMP JUMPDEST DUP6 MLOAD PUSH1 0x1 PUSH1 0x1 PUSH1 0x50 SHL SUB AND DUP6 SWAP1 SUB JUMPDEST DUP4 PUSH1 0x0 DUP2 MLOAD DUP2 LT PUSH2 0x3989 JUMPI INVALID JUMPDEST PUSH1 0x20 MUL PUSH1 0x20 ADD ADD DUP2 DUP2 MSTORE POP POP PUSH2 0x39B9 DUP9 PUSH1 0x40 ADD MLOAD DUP8 PUSH1 0x20 ADD MLOAD PUSH1 0x1 PUSH1 0x1 PUSH1 0x50 SHL SUB AND PUSH2 0x1610 SWAP1 SWAP2 SWAP1 PUSH4 0xFFFFFFFF AND JUMP JUMPDEST DUP4 PUSH1 0x1 DUP2 MLOAD DUP2 LT PUSH2 0x39C6 JUMPI INVALID JUMPDEST PUSH1 0x20 MUL PUSH1 0x20 ADD ADD DUP2 DUP2 MSTORE POP POP PUSH1 0x0 PUSH1 0x1 PUSH1 0x1 PUSH1 0xA0 SHL SUB AND DUP9 PUSH1 0x60 ADD MLOAD PUSH1 0x1 PUSH1 0x1 PUSH1 0xA0 SHL SUB AND CALLER PUSH1 0x1 PUSH1 0x1 PUSH1 0xA0 SHL SUB AND PUSH1 0x0 DUP1 MLOAD PUSH1 0x20 PUSH2 0x5F28 DUP4 CODECOPY DUP2 MLOAD SWAP2 MSTORE DUP8 DUP8 PUSH1 0x40 MLOAD PUSH2 0x3A14 SWAP3 SWAP2 SWAP1 PUSH2 0x5DA9 JUMP JUMPDEST PUSH1 0x40 MLOAD DUP1 SWAP2 SUB SWAP1 LOG4 JUMPDEST DUP1 ISZERO DUP1 PUSH2 0x3A33 JUMPI POP DUP6 MLOAD PUSH1 0x1 PUSH1 0x1 PUSH1 0x50 SHL SUB AND DUP6 GT JUMPDEST ISZERO PUSH2 0x3B06 JUMPI DUP6 MLOAD PUSH2 0x3A4E SWAP1 DUP7 SWAP1 PUSH1 0x1 PUSH1 0x1 PUSH1 0x50 SHL SUB AND PUSH2 0x1610 JUMP JUMPDEST DUP4 PUSH1 0x0 DUP2 MLOAD DUP2 LT PUSH2 0x3A5B JUMPI INVALID JUMPDEST PUSH1 0x20 MUL PUSH1 0x20 ADD ADD DUP2 DUP2 MSTORE POP POP DUP8 PUSH1 0x40 ADD MLOAD DUP7 PUSH1 0x20 ADD MLOAD PUSH1 0x1 PUSH1 0x1 PUSH1 0x50 SHL SUB AND LT PUSH2 0x3A86 JUMPI PUSH1 0x0 PUSH2 0x3AA2 JUMP JUMPDEST PUSH1 0x20 DUP7 ADD MLOAD PUSH1 0x40 DUP10 ADD MLOAD PUSH2 0x3AA2 SWAP2 PUSH1 0x1 PUSH1 0x1 PUSH1 0x50 SHL SUB AND PUSH2 0x1610 JUMP JUMPDEST DUP4 PUSH1 0x1 DUP2 MLOAD DUP2 LT PUSH2 0x3AAF JUMPI INVALID JUMPDEST PUSH1 0x20 MUL PUSH1 0x20 ADD ADD DUP2 DUP2 MSTORE POP POP DUP8 PUSH1 0x60 ADD MLOAD PUSH1 0x1 PUSH1 0x1 PUSH1 0xA0 SHL SUB AND PUSH1 0x0 PUSH1 0x1 PUSH1 0x1 PUSH1 0xA0 SHL SUB AND CALLER PUSH1 0x1 PUSH1 0x1 PUSH1 0xA0 SHL SUB AND PUSH1 0x0 DUP1 MLOAD PUSH1 0x20 PUSH2 0x5F28 DUP4 CODECOPY DUP2 MLOAD SWAP2 MSTORE DUP8 DUP8 PUSH1 0x40 MLOAD PUSH2 0x3AFD SWAP3 SWAP2 SWAP1 PUSH2 0x5DA9 JUMP JUMPDEST PUSH1 0x40 MLOAD DUP1 SWAP2 SUB SWAP1 LOG4 JUMPDEST POP JUMPDEST PUSH1 0x20 DUP8 ADD MLOAD ISZERO DUP1 ISZERO SWAP1 PUSH2 0x3B2A JUMPI POP DUP7 PUSH1 0x20 ADD MLOAD DUP6 PUSH1 0x40 ADD MLOAD PUSH5 0xFFFFFFFFFF AND EQ ISZERO JUMPDEST ISZERO PUSH2 0x3C10 JUMPI PUSH1 0x0 PUSH2 0x3B4A DUP8 PUSH1 0x0 ADD MLOAD DUP9 PUSH1 0x40 ADD MLOAD DUP11 PUSH1 0x20 ADD MLOAD PUSH1 0x0 PUSH2 0x3E65 JUMP JUMPDEST SWAP1 POP PUSH1 0xA PUSH1 0xFF AND DUP2 OR DUP5 PUSH1 0x0 DUP2 MLOAD DUP2 LT PUSH2 0x3B60 JUMPI INVALID JUMPDEST PUSH1 0x20 MUL PUSH1 0x20 ADD ADD DUP2 DUP2 MSTORE POP POP PUSH1 0x9 PUSH1 0xFF AND DUP2 OR DUP5 PUSH1 0x1 DUP2 MLOAD DUP2 LT PUSH2 0x3B80 JUMPI INVALID JUMPDEST PUSH1 0x20 MUL PUSH1 0x20 ADD ADD DUP2 DUP2 MSTORE POP POP DUP5 DUP4 PUSH1 0x0 DUP2 MLOAD DUP2 LT PUSH2 0x3B9A JUMPI INVALID JUMPDEST PUSH1 0x20 MUL PUSH1 0x20 ADD ADD DUP2 DUP2 MSTORE POP POP DUP8 PUSH1 0x40 ADD MLOAD DUP4 PUSH1 0x1 DUP2 MLOAD DUP2 LT PUSH2 0x3BB8 JUMPI INVALID JUMPDEST PUSH1 0x20 MUL PUSH1 0x20 ADD ADD DUP2 DUP2 MSTORE POP POP DUP8 PUSH1 0x60 ADD MLOAD PUSH1 0x1 PUSH1 0x1 PUSH1 0xA0 SHL SUB AND PUSH1 0x0 PUSH1 0x1 PUSH1 0x1 PUSH1 0xA0 SHL SUB AND CALLER PUSH1 0x1 PUSH1 0x1 PUSH1 0xA0 SHL SUB AND PUSH1 0x0 DUP1 MLOAD PUSH1 0x20 PUSH2 0x5F28 DUP4 CODECOPY DUP2 MLOAD SWAP2 MSTORE DUP8 DUP8 PUSH1 0x40 MLOAD PUSH2 0x3C06 SWAP3 SWAP2 SWAP1 PUSH2 0x5DA9 JUMP JUMPDEST PUSH1 0x40 MLOAD DUP1 SWAP2 SUB SWAP1 LOG4 POP JUMPDEST PUSH1 0x80 DUP6 ADD MLOAD PUSH1 0x1 PUSH1 0x1 PUSH1 0x50 SHL SUB AND ISZERO PUSH2 0xAC2 JUMPI PUSH1 0x60 DUP8 ADD MLOAD PUSH1 0x80 DUP7 ADD MLOAD PUSH1 0x40 MLOAD PUSH1 0x0 SWAP3 PUSH1 0x1 PUSH1 0x1 PUSH1 0xA0 SHL SUB AND SWAP2 CALLER SWAP2 PUSH1 0x0 DUP1 MLOAD PUSH1 0x20 PUSH2 0x5F48 DUP4 CODECOPY DUP2 MLOAD SWAP2 MSTORE SWAP2 PUSH2 0x3C5E SWAP2 PUSH1 0xB DUP9 OR SWAP2 SWAP1 PUSH2 0x5EB6 JUMP JUMPDEST PUSH1 0x40 MLOAD DUP1 SWAP2 SUB SWAP1 LOG4 POP POP POP POP POP POP POP JUMP JUMPDEST PUSH1 0x0 PUSH5 0xFFFFFFFFFF DUP3 GT ISZERO PUSH2 0xC86 JUMPI PUSH1 0x0 DUP1 REVERT JUMPDEST PUSH1 0x0 PUSH4 0xFFFFFFFF DUP3 GT ISZERO PUSH2 0xC86 JUMPI PUSH1 0x0 DUP1 REVERT JUMPDEST PUSH1 0x0 DUP1 PUSH2 0x789 PUSH1 0x2 PUSH2 0x262B JUMP JUMPDEST PUSH2 0x3CAB PUSH2 0x5629 JUMP JUMPDEST PUSH1 0x0 DUP1 PUSH2 0x3CB6 PUSH2 0x4BFB JUMP JUMPDEST PUSH2 0xFFFF DUP7 AND PUSH1 0x0 SWAP1 DUP2 MSTORE PUSH1 0x20 DUP3 DUP2 MSTORE PUSH1 0x40 DUP1 DUP4 KECCAK256 DUP9 DUP5 MSTORE SWAP1 SWAP2 MSTORE SWAP1 KECCAK256 DUP1 SLOAD PUSH1 0x1 PUSH1 0xF0 SHL SWAP1 DIV PUSH1 0xFF AND SWAP4 POP SWAP1 SWAP2 POP DUP3 ISZERO PUSH2 0x3D2D JUMPI DUP1 SLOAD PUSH1 0x1 PUSH1 0x1 PUSH1 0x50 SHL SUB PUSH1 0x1 PUSH1 0xA0 SHL DUP3 DIV DUP2 AND SWAP2 PUSH2 0x3D08 SWAP2 AND DUP3 PUSH2 0x2535 JUMP JUMPDEST DUP6 MSTORE DUP2 SLOAD PUSH2 0x3D26 SWAP1 PUSH1 0x1 PUSH1 0x50 SHL SWAP1 DIV PUSH1 0x1 PUSH1 0x1 PUSH1 0x50 SHL SUB AND DUP3 PUSH2 0x2535 JUMP JUMPDEST PUSH1 0x20 DUP7 ADD MSTORE POP JUMPDEST POP POP SWAP3 POP SWAP3 SWAP1 POP JUMP JUMPDEST PUSH1 0x0 DUP2 PUSH1 0x0 SGT ISZERO DUP1 ISZERO PUSH2 0x3D49 JUMPI POP PUSH1 0xA DUP3 SLT JUMPDEST ISZERO PUSH2 0x3D56 JUMPI POP PUSH1 0x0 PUSH2 0x789 JUMP JUMPDEST PUSH1 0x0 DUP3 SLT PUSH2 0x3D63 JUMPI PUSH1 0x0 DUP1 REVERT JUMPDEST PUSH2 0xEA5 PUSH1 0x1 PUSH2 0x248C DUP6 PUSH1 0x20 ADD MLOAD PUSH2 0x1534 PUSH15 0xC097CE7BC90715B34B9F1000000000 DUP8 PUSH2 0x163B SWAP1 SWAP2 SWAP1 PUSH4 0xFFFFFFFF AND JUMP JUMPDEST PUSH1 0x0 PUSH2 0x3D9E DUP6 DUP6 PUSH2 0x44C0 JUMP JUMPDEST SWAP1 POP PUSH1 0x0 DUP4 SLT ISZERO PUSH2 0x3DB0 JUMPI PUSH1 0x1 PUSH1 0x40 SHL OR JUMPDEST PUSH1 0x0 PUSH1 0x1 PUSH1 0x1 PUSH1 0xA0 SHL SUB DUP8 AND CALLER PUSH1 0x0 DUP1 MLOAD PUSH1 0x20 PUSH2 0x5F48 DUP4 CODECOPY DUP2 MLOAD SWAP2 MSTORE DUP5 PUSH2 0x3DD6 DUP9 PUSH2 0x1C50 JUMP JUMPDEST PUSH1 0x40 MLOAD PUSH2 0x3DE4 SWAP3 SWAP2 SWAP1 PUSH2 0x5E92 JUMP JUMPDEST PUSH1 0x40 MLOAD DUP1 SWAP2 SUB SWAP1 LOG4 PUSH1 0x0 PUSH2 0x3DFB PUSH1 0x0 DUP5 SLT DUP8 PUSH2 0x4C08 JUMP JUMPDEST SWAP1 POP DUP1 PUSH1 0x1 PUSH1 0x1 PUSH1 0xA0 SHL SUB AND PUSH4 0x23DE6651 PUSH2 0x5E7 DUP10 PUSH2 0x3E19 DUP8 PUSH2 0x1C50 JUMP JUMPDEST PUSH1 0x40 MLOAD DUP5 PUSH4 0xFFFFFFFF AND PUSH1 0xE0 SHL DUP2 MSTORE PUSH1 0x4 ADD PUSH2 0x3E37 SWAP4 SWAP3 SWAP2 SWAP1 PUSH2 0x5C9E JUMP JUMPDEST PUSH1 0x0 PUSH1 0x40 MLOAD DUP1 DUP4 SUB DUP2 PUSH1 0x0 DUP8 DUP1 EXTCODESIZE ISZERO DUP1 ISZERO PUSH2 0x3E51 JUMPI PUSH1 0x0 DUP1 REVERT JUMPDEST POP GAS CALL ISZERO DUP1 ISZERO PUSH2 0x19CE JUMPI RETURNDATASIZE PUSH1 0x0 DUP1 RETURNDATACOPY RETURNDATASIZE PUSH1 0x0 REVERT JUMPDEST PUSH9 0x10000000000000000 PUSH1 0x1 PUSH1 0xE0 SHL SUB PUSH1 0x40 DUP6 SWAP1 SHL AND PUSH8 0xFFFF000000000000 PUSH1 0x30 DUP6 SWAP1 SHL AND OR PUSH1 0x8 DUP4 SWAP1 SHL OR DUP2 OR SWAP5 SWAP4 POP POP POP POP JUMP JUMPDEST PUSH2 0x3EA3 PUSH2 0x5671 JUMP JUMPDEST PUSH1 0x0 PUSH2 0x3EAD PUSH2 0x4AB7 JUMP JUMPDEST PUSH2 0xFFFF SWAP4 DUP5 AND PUSH1 0x0 SWAP1 DUP2 MSTORE PUSH1 0x20 SWAP2 DUP3 MSTORE PUSH1 0x40 SWAP1 DUP2 SWAP1 KECCAK256 DUP1 SLOAD PUSH5 0xFFFFFFFFFF DUP2 AND DUP7 MSTORE PUSH1 0x1 PUSH1 0x28 SHL DUP2 DIV PUSH1 0x1 PUSH1 0x1 PUSH1 0x58 SHL SUB SWAP1 DUP2 AND SWAP5 DUP8 ADD SWAP5 SWAP1 SWAP5 MSTORE PUSH1 0x1 DUP3 ADD SLOAD DUP5 AND SWAP3 DUP7 ADD SWAP3 SWAP1 SWAP3 MSTORE PUSH1 0x1 PUSH1 0xD8 SHL DUP3 DIV PUSH4 0xFFFFFFFF AND PUSH1 0x60 DUP7 ADD MSTORE PUSH1 0x1 PUSH1 0x80 SHL SWAP1 SWAP2 DIV SWAP1 SWAP2 AND PUSH1 0x80 DUP5 ADD MSTORE PUSH1 0x2 ADD SLOAD PUSH1 0x1 PUSH1 0x1 PUSH1 0x50 SHL SUB DUP1 DUP3 AND PUSH1 0xA0 DUP6 ADD MSTORE PUSH1 0x1 PUSH1 0x50 SHL DUP3 DIV DUP2 AND PUSH1 0xC0 DUP6 ADD MSTORE PUSH1 0x1 PUSH1 0xA0 SHL DUP3 DIV AND PUSH1 0xE0 DUP5 ADD MSTORE PUSH1 0x1 PUSH1 0xF0 SHL SWAP1 DIV PUSH1 0xFF AND PUSH2 0x12C MUL SWAP1 SWAP3 AND PUSH2 0x100 DUP3 ADD MSTORE SWAP2 SWAP1 POP JUMP JUMPDEST PUSH1 0x0 DUP1 PUSH2 0x3F6F DUP4 PUSH2 0x4863 JUMP JUMPDEST PUSH1 0x1 PUSH1 0x1 PUSH1 0xA0 SHL SUB AND PUSH4 0xEF81F216 PUSH1 0x40 MLOAD DUP2 PUSH4 0xFFFFFFFF AND PUSH1 0xE0 SHL DUP2 MSTORE PUSH1 0x4 ADD PUSH1 0x40 DUP1 MLOAD DUP1 DUP4 SUB DUP2 PUSH1 0x0 DUP8 DUP1 EXTCODESIZE ISZERO DUP1 ISZERO PUSH2 0x3FA8 JUMPI PUSH1 0x0 DUP1 REVERT JUMPDEST POP GAS CALL ISZERO DUP1 ISZERO PUSH2 0x3FBC JUMPI RETURNDATASIZE PUSH1 0x0 DUP1 RETURNDATACOPY RETURNDATASIZE PUSH1 0x0 REVERT JUMPDEST POP POP POP POP PUSH1 0x40 MLOAD RETURNDATASIZE PUSH1 0x1F NOT PUSH1 0x1F DUP3 ADD AND DUP3 ADD DUP1 PUSH1 0x40 MSTORE POP DUP2 ADD SWAP1 PUSH2 0x150A SWAP2 SWAP1 PUSH2 0x5BE9 JUMP JUMPDEST PUSH2 0x3FE8 PUSH2 0x5671 JUMP JUMPDEST PUSH1 0x0 DUP1 PUSH1 0x0 PUSH2 0x3FF8 DUP9 DUP7 DUP10 PUSH2 0x4C68 JUMP JUMPDEST PUSH1 0xC0 DUP12 ADD SWAP3 SWAP1 SWAP3 MSTORE PUSH1 0xE0 DUP11 ADD SWAP3 SWAP1 SWAP3 MSTORE PUSH1 0x20 DUP10 ADD MLOAD SWAP2 SWAP4 POP SWAP2 POP PUSH2 0x401C SWAP1 DUP4 PUSH2 0xE93 JUMP JUMPDEST PUSH1 0x20 DUP9 ADD MSTORE PUSH1 0x80 DUP8 ADD MLOAD PUSH1 0x0 SWAP1 ISZERO PUSH2 0x404A JUMPI PUSH1 0x80 DUP9 ADD MLOAD PUSH2 0x4047 SWAP1 PUSH2 0x4041 DUP10 DUP3 PUSH2 0x1610 JUMP JUMPDEST SWAP1 PUSH2 0x4D79 JUMP JUMPDEST SWAP1 POP JUMPDEST PUSH2 0x406A PUSH2 0x405F PUSH8 0xDE0B6B3A7640000 DUP4 PUSH2 0xE93 JUMP JUMPDEST PUSH1 0xA0 DUP11 ADD MLOAD SWAP1 PUSH2 0x4D96 JUMP JUMPDEST PUSH1 0xA0 DUP10 ADD MSTORE POP POP PUSH1 0x80 DUP7 ADD SWAP5 SWAP1 SWAP5 MSTORE POP POP DUP3 MSTORE SWAP1 SWAP3 SWAP1 SWAP2 POP JUMP JUMPDEST PUSH1 0x0 PUSH2 0x408E PUSH2 0x4AB7 JUMP JUMPDEST PUSH1 0x0 DUP6 PUSH2 0xFFFF AND DUP2 MSTORE PUSH1 0x20 ADD SWAP1 DUP2 MSTORE PUSH1 0x20 ADD PUSH1 0x0 KECCAK256 SWAP1 POP PUSH2 0x40B2 DUP3 PUSH1 0x0 ADD MLOAD PUSH2 0x3C6F JUMP JUMPDEST DUP2 SLOAD PUSH5 0xFFFFFFFFFF NOT AND PUSH5 0xFFFFFFFFFF SWAP2 SWAP1 SWAP2 AND OR DUP2 SSTORE PUSH1 0xA0 DUP3 ADD MLOAD PUSH2 0x40D7 SWAP1 PUSH2 0x1625 JUMP JUMPDEST PUSH1 0x2 DUP3 ADD DUP1 SLOAD PUSH1 0x1 PUSH1 0x1 PUSH1 0x50 SHL SUB NOT AND PUSH1 0x1 PUSH1 0x1 PUSH1 0x50 SHL SUB SWAP3 SWAP1 SWAP3 AND SWAP2 SWAP1 SWAP2 OR SWAP1 SSTORE PUSH1 0xC0 DUP3 ADD MLOAD PUSH2 0x4107 SWAP1 PUSH2 0x1625 JUMP JUMPDEST DUP2 PUSH1 0x2 ADD PUSH1 0xA PUSH2 0x100 EXP DUP2 SLOAD DUP2 PUSH1 0x1 PUSH1 0x1 PUSH1 0x50 SHL SUB MUL NOT AND SWAP1 DUP4 PUSH1 0x1 PUSH1 0x1 PUSH1 0x50 SHL SUB AND MUL OR SWAP1 SSTORE POP PUSH2 0x413C DUP3 PUSH1 0xE0 ADD MLOAD PUSH2 0x1625 JUMP JUMPDEST DUP2 PUSH1 0x2 ADD PUSH1 0x14 PUSH2 0x100 EXP DUP2 SLOAD DUP2 PUSH1 0x1 PUSH1 0x1 PUSH1 0x50 SHL SUB MUL NOT AND SWAP1 DUP4 PUSH1 0x1 PUSH1 0x1 PUSH1 0x50 SHL SUB AND MUL OR SWAP1 SSTORE POP PUSH2 0x4171 DUP3 PUSH1 0x20 ADD MLOAD PUSH2 0x4AC4 JUMP JUMPDEST DUP2 SLOAD PUSH1 0x1 PUSH1 0x1 PUSH1 0x58 SHL SUB SWAP2 SWAP1 SWAP2 AND PUSH1 0x1 PUSH1 0x28 SHL MUL PUSH16 0xFFFFFFFFFFFFFFFFFFFFFF0000000000 NOT SWAP1 SWAP2 AND OR DUP2 SSTORE PUSH1 0x40 DUP3 ADD MLOAD PUSH2 0x41AB SWAP1 PUSH2 0x4AC4 JUMP JUMPDEST PUSH1 0x1 DUP3 ADD DUP1 SLOAD PUSH11 0xFFFFFFFFFFFFFFFFFFFFFF NOT AND PUSH1 0x1 PUSH1 0x1 PUSH1 0x58 SHL SUB SWAP3 SWAP1 SWAP3 AND SWAP2 SWAP1 SWAP2 OR SWAP1 SSTORE PUSH1 0x80 DUP3 ADD MLOAD PUSH2 0x41DF SWAP1 PUSH2 0x4AC4 JUMP JUMPDEST DUP2 SLOAD PUSH1 0x1 PUSH1 0x1 PUSH1 0x58 SHL SUB SWAP2 SWAP1 SWAP2 AND PUSH1 0x1 PUSH1 0x80 SHL MUL PUSH11 0xFFFFFFFFFFFFFFFFFFFFFF PUSH1 0x80 SHL NOT SWAP1 SWAP2 AND OR DUP2 SSTORE PUSH1 0x60 DUP3 ADD MLOAD PUSH2 0x4217 SWAP1 PUSH2 0x3C83 JUMP JUMPDEST DUP2 SLOAD PUSH4 0xFFFFFFFF SWAP2 SWAP1 SWAP2 AND PUSH1 0x1 PUSH1 0xD8 SHL MUL PUSH4 0xFFFFFFFF PUSH1 0xD8 SHL NOT SWAP1 SWAP2 AND OR DUP2 SSTORE DUP3 ISZERO PUSH2 0x4263 JUMPI PUSH1 0x0 PUSH2 0x4248 DUP5 PUSH2 0xC8A JUMP JUMPDEST SWAP1 POP PUSH2 0x4254 DUP6 DUP3 PUSH2 0x2721 JUMP JUMPDEST PUSH2 0x4261 PUSH2 0xFEE DUP7 DUP4 PUSH2 0x46A2 JUMP JUMPDEST POP JUMPDEST DUP4 PUSH2 0xFFFF AND PUSH32 0xEF25641E225E493886510CA1AD6584FA7B442B9FEA820A29D1DE3CE27D270FD2 DUP4 PUSH1 0xA0 ADD MLOAD DUP5 PUSH1 0xC0 ADD MLOAD DUP6 PUSH1 0xE0 ADD MLOAD PUSH1 0x40 MLOAD PUSH2 0x42A7 SWAP4 SWAP3 SWAP2 SWAP1 PUSH2 0x5EA0 JUMP JUMPDEST PUSH1 0x40 MLOAD DUP1 SWAP2 SUB SWAP1 LOG2 POP POP POP POP JUMP JUMPDEST PUSH1 0x0 PUSH2 0xEA5 PUSH2 0x42C4 DUP5 DUP5 PUSH2 0x163B JUMP JUMPDEST PUSH4 0x3B9ACA00 PUSH2 0x2644 JUMP JUMPDEST PUSH1 0x0 DUP1 PUSH2 0x42D9 PUSH2 0x4DB3 JUMP JUMPDEST PUSH1 0x1 PUSH1 0x1 PUSH1 0xA0 SHL SUB DUP6 AND PUSH1 0x0 SWAP1 DUP2 MSTORE PUSH1 0x20 DUP3 DUP2 MSTORE PUSH1 0x40 DUP1 DUP4 KECCAK256 PUSH2 0xFFFF DUP9 AND DUP5 MSTORE SWAP1 SWAP2 MSTORE DUP2 KECCAK256 DUP1 SLOAD PUSH1 0x1 PUSH1 0xA8 SHL SWAP1 DIV PUSH1 0xA SWAP1 DUP2 SIGNEXTEND SWAP1 SIGNEXTEND SWAP5 POP SWAP2 SWAP3 POP DUP4 SLT ISZERO PUSH2 0x431F JUMPI PUSH1 0x0 DUP1 REVERT JUMPDEST POP POP SWAP3 SWAP2 POP POP JUMP JUMPDEST PUSH1 0x0 DUP2 SLT ISZERO PUSH2 0x4335 JUMPI PUSH1 0x0 DUP1 REVERT JUMPDEST PUSH1 0x0 PUSH2 0x433F PUSH2 0x4DB3 JUMP JUMPDEST PUSH1 0x1 PUSH1 0x1 PUSH1 0xA0 SHL SUB DUP6 AND PUSH1 0x0 SWAP1 DUP2 MSTORE PUSH1 0x20 DUP3 DUP2 MSTORE PUSH1 0x40 DUP1 DUP4 KECCAK256 PUSH2 0xFFFF DUP9 AND DUP5 MSTORE SWAP1 SWAP2 MSTORE SWAP1 KECCAK256 SWAP1 SWAP2 POP PUSH2 0x4370 DUP4 PUSH2 0x4DC0 JUMP JUMPDEST DUP2 SLOAD PUSH1 0xA SWAP2 SWAP1 SWAP2 SIGNEXTEND PUSH1 0x1 PUSH1 0x1 PUSH1 0x58 SHL SUB AND PUSH1 0x1 PUSH1 0xA8 SHL MUL PUSH1 0x1 PUSH1 0x1 PUSH1 0xA8 SHL SUB SWAP1 SWAP2 AND OR SWAP1 SSTORE POP POP POP POP JUMP JUMPDEST PUSH1 0x0 DUP1 PUSH2 0x43A6 PUSH2 0x43CE JUMP JUMPDEST PUSH1 0x0 SWAP4 DUP5 MSTORE PUSH1 0x20 MSTORE POP POP PUSH1 0x40 SWAP1 KECCAK256 SLOAD PUSH1 0x1 PUSH1 0x1 PUSH1 0xA0 SHL SUB AND SWAP1 JUMP JUMPDEST PUSH1 0x0 DUP1 PUSH2 0x789 PUSH1 0x22 PUSH2 0x262B JUMP JUMPDEST PUSH1 0x0 DUP1 PUSH2 0x789 PUSH1 0x3 PUSH2 0x262B JUMP JUMPDEST PUSH1 0x40 DUP1 MLOAD PUSH1 0x2 DUP1 DUP3 MSTORE PUSH1 0x60 DUP3 DUP2 ADD SWAP1 SWAP4 MSTORE DUP3 SWAP2 PUSH1 0x0 SWAP2 DUP2 PUSH1 0x20 ADD PUSH1 0x20 DUP3 MUL DUP1 CALLDATASIZE DUP4 CALLDATACOPY ADD SWAP1 POP POP SWAP1 POP PUSH1 0x0 PUSH2 0x440F DUP8 DUP8 PUSH2 0x44C0 JUMP JUMPDEST SWAP1 POP DUP1 DUP3 PUSH1 0x0 DUP2 MLOAD DUP2 LT PUSH2 0x441F JUMPI INVALID JUMPDEST PUSH1 0x20 MUL PUSH1 0x20 ADD ADD DUP2 DUP2 MSTORE POP POP PUSH1 0x1 PUSH1 0x40 SHL DUP2 OR DUP3 PUSH1 0x1 DUP2 MLOAD DUP2 LT PUSH2 0x443F JUMPI INVALID JUMPDEST PUSH1 0x20 SWAP1 DUP2 MUL SWAP2 SWAP1 SWAP2 ADD ADD MSTORE PUSH1 0x40 DUP1 MLOAD PUSH1 0x2 DUP1 DUP3 MSTORE PUSH1 0x60 DUP3 ADD SWAP1 SWAP3 MSTORE PUSH1 0x0 SWAP2 DUP2 PUSH1 0x20 ADD PUSH1 0x20 DUP3 MUL DUP1 CALLDATASIZE DUP4 CALLDATACOPY ADD SWAP1 POP POP SWAP1 POP PUSH2 0x4478 DUP7 PUSH2 0x1C50 JUMP JUMPDEST DUP2 PUSH1 0x0 DUP2 MLOAD DUP2 LT PUSH2 0x4485 JUMPI INVALID JUMPDEST PUSH1 0x20 MUL PUSH1 0x20 ADD ADD DUP2 DUP2 MSTORE POP POP PUSH2 0x449A DUP7 PUSH2 0x1C50 JUMP JUMPDEST DUP2 PUSH1 0x1 DUP2 MLOAD DUP2 LT PUSH2 0x44A7 JUMPI INVALID JUMPDEST PUSH1 0x20 SWAP1 DUP2 MUL SWAP2 SWAP1 SWAP2 ADD ADD MSTORE SWAP2 SWAP8 SWAP2 SWAP7 POP SWAP1 SWAP5 POP POP POP POP POP JUMP JUMPDEST PUSH8 0xFFFF000000000000 PUSH1 0x30 DUP4 SWAP1 SHL AND PUSH1 0x8 DUP3 SWAP1 SHL OR PUSH1 0x1 OR SWAP3 SWAP2 POP POP JUMP JUMPDEST PUSH1 0x0 PUSH2 0x44E8 PUSH2 0x4AB7 JUMP JUMPDEST PUSH2 0xFFFF DUP6 AND PUSH1 0x0 SWAP1 DUP2 MSTORE PUSH1 0x20 SWAP2 SWAP1 SWAP2 MSTORE PUSH1 0x40 SWAP1 KECCAK256 DUP1 SLOAD SWAP1 SWAP2 POP PUSH5 0xFFFFFFFFFF AND TIMESTAMP EQ PUSH2 0x4513 JUMPI PUSH1 0x0 DUP1 REVERT JUMPDEST DUP1 SLOAD PUSH1 0x1 PUSH1 0xF8 SHL SWAP1 DIV PUSH1 0xFF AND PUSH2 0x4528 JUMPI PUSH1 0x0 DUP1 REVERT JUMPDEST PUSH1 0x1 DUP2 ADD SLOAD PUSH1 0x0 SWAP1 PUSH2 0x4543 SWAP1 PUSH1 0x1 PUSH1 0x1 PUSH1 0x58 SHL SUB AND DUP6 PUSH2 0x1689 JUMP JUMPDEST DUP3 SLOAD SWAP1 SWAP2 POP PUSH1 0x0 SWAP1 PUSH2 0x4565 SWAP1 PUSH1 0x1 PUSH1 0x28 SHL SWAP1 DIV PUSH1 0x1 PUSH1 0x1 PUSH1 0x58 SHL SUB AND DUP6 PUSH2 0x1689 JUMP JUMPDEST SWAP1 POP DUP2 PUSH1 0x9 NOT SLT DUP1 ISZERO PUSH2 0x4578 JUMPI POP PUSH1 0x0 DUP3 SLT JUMPDEST ISZERO PUSH2 0x4582 JUMPI PUSH1 0x0 SWAP2 POP JUMPDEST DUP1 PUSH1 0x9 NOT SLT DUP1 ISZERO PUSH2 0x4593 JUMPI POP PUSH1 0x0 DUP2 SLT JUMPDEST ISZERO PUSH2 0x459C JUMPI POP PUSH1 0x0 JUMPDEST PUSH2 0x45A8 PUSH2 0x36BC DUP4 PUSH2 0xC77 JUMP JUMPDEST PUSH1 0x1 DUP5 ADD DUP1 SLOAD PUSH11 0xFFFFFFFFFFFFFFFFFFFFFF NOT AND PUSH1 0x1 PUSH1 0x1 PUSH1 0x58 SHL SUB SWAP3 SWAP1 SWAP3 AND SWAP2 SWAP1 SWAP2 OR SWAP1 SSTORE PUSH2 0x45DA PUSH2 0x36BC DUP3 PUSH2 0xC77 JUMP JUMPDEST DUP4 SLOAD PUSH1 0x1 PUSH1 0x1 PUSH1 0x58 SHL SUB SWAP2 SWAP1 SWAP2 AND PUSH1 0x1 PUSH1 0x28 SHL MUL PUSH16 0xFFFFFFFFFFFFFFFFFFFFFF0000000000 NOT SWAP1 SWAP2 AND OR DUP4 SSTORE PUSH2 0x4612 DUP8 DUP8 DUP7 DUP9 PUSH2 0x27D5 JUMP JUMPDEST PUSH2 0xAC2 DUP4 PUSH2 0x4ADA JUMP JUMPDEST PUSH1 0x0 DUP1 PUSH2 0x789 PUSH1 0x17 PUSH2 0x262B JUMP JUMPDEST PUSH1 0x0 DUP1 PUSH2 0x789 PUSH1 0x18 PUSH2 0x262B JUMP JUMPDEST PUSH1 0x0 PUSH2 0x463F PUSH2 0x56BD JUMP JUMPDEST RETURNDATASIZE DUP1 ISZERO PUSH2 0x4653 JUMPI PUSH1 0x20 DUP2 EQ PUSH2 0x465C JUMPI PUSH1 0x0 DUP1 REVERT JUMPDEST PUSH1 0x1 SWAP3 POP PUSH2 0x4667 JUMP JUMPDEST PUSH1 0x20 PUSH1 0x0 DUP4 RETURNDATACOPY DUP2 MLOAD SWAP3 POP JUMPDEST POP DUP2 PUSH2 0xFB7 JUMPI PUSH1 0x40 DUP1 MLOAD PUSH3 0x461BCD PUSH1 0xE5 SHL DUP2 MSTORE PUSH1 0x20 PUSH1 0x4 DUP3 ADD MSTORE PUSH1 0x5 PUSH1 0x24 DUP3 ADD MSTORE PUSH5 0x455243323 PUSH1 0xDC SHL PUSH1 0x44 DUP3 ADD MSTORE SWAP1 MLOAD SWAP1 DUP2 SWAP1 SUB PUSH1 0x64 ADD SWAP1 REVERT JUMPDEST PUSH1 0x0 PUSH2 0x46AC PUSH2 0x1C43 JUMP JUMPDEST PUSH2 0xFFFF DUP5 AND PUSH1 0x0 SWAP1 DUP2 MSTORE PUSH1 0x20 SWAP2 SWAP1 SWAP2 MSTORE PUSH1 0x40 SWAP1 DUP2 SWAP1 KECCAK256 SLOAD SWAP1 MLOAD PUSH4 0xAD1C095D PUSH1 0xE0 SHL DUP2 MSTORE PUSH1 0x1 PUSH1 0x1 PUSH1 0xA0 SHL SUB SWAP1 SWAP2 AND SWAP2 POP DUP2 SWAP1 PUSH4 0xAD1C095D SWAP1 PUSH2 0x46F4 SWAP1 DUP8 SWAP1 DUP7 SWAP1 PUSH1 0x4 ADD PUSH2 0x5D36 JUMP JUMPDEST PUSH1 0x0 PUSH1 0x40 MLOAD DUP1 DUP4 SUB DUP2 PUSH1 0x0 DUP8 DUP1 EXTCODESIZE ISZERO DUP1 ISZERO PUSH2 0x470E JUMPI PUSH1 0x0 DUP1 REVERT JUMPDEST POP GAS CALL ISZERO DUP1 ISZERO PUSH2 0x21EE JUMPI RETURNDATASIZE PUSH1 0x0 DUP1 RETURNDATACOPY RETURNDATASIZE PUSH1 0x0 REVERT JUMPDEST PUSH1 0x0 PUSH2 0x472C PUSH2 0x4856 JUMP JUMPDEST PUSH1 0x1 PUSH1 0x1 PUSH1 0xA0 SHL SUB DUP5 AND PUSH1 0x0 SWAP1 DUP2 MSTORE PUSH1 0x20 DUP3 SWAP1 MSTORE PUSH1 0x40 SWAP1 KECCAK256 SLOAD SWAP1 SWAP2 POP PUSH2 0x4755 PUSH2 0x3B1 DUP3 DUP6 PUSH2 0x1689 JUMP JUMPDEST PUSH1 0x1 PUSH1 0x1 PUSH1 0xA0 SHL SUB SWAP1 SWAP5 AND PUSH1 0x0 SWAP1 DUP2 MSTORE PUSH1 0x20 SWAP3 SWAP1 SWAP3 MSTORE POP PUSH1 0x40 SWAP1 KECCAK256 SWAP2 SWAP1 SWAP2 SSTORE POP JUMP JUMPDEST PUSH1 0x0 DUP1 PUSH2 0x4782 PUSH2 0x4DF2 JUMP JUMPDEST PUSH1 0x0 SWAP4 DUP5 MSTORE PUSH1 0x20 MSTORE POP POP PUSH1 0x40 SWAP1 KECCAK256 SLOAD SWAP1 JUMP JUMPDEST PUSH1 0x0 PUSH3 0x76A700 DUP3 LT ISZERO PUSH2 0x47A6 JUMPI PUSH1 0x0 DUP1 REVERT JUMPDEST POP PUSH3 0x76A700 DUP2 MOD SWAP1 SUB SWAP1 JUMP JUMPDEST PUSH1 0x0 DUP2 PUSH1 0x1 EQ ISZERO PUSH2 0x47C7 JUMPI POP PUSH3 0x76A700 PUSH2 0x9EC JUMP JUMPDEST DUP2 PUSH1 0x2 EQ ISZERO PUSH2 0x47DA JUMPI POP PUSH3 0xED4E00 PUSH2 0x9EC JUMP JUMPDEST DUP2 PUSH1 0x3 EQ ISZERO PUSH2 0x47EE JUMPI POP PUSH4 0x1DA9C00 PUSH2 0x9EC JUMP JUMPDEST DUP2 PUSH1 0x4 EQ ISZERO PUSH2 0x4802 JUMPI POP PUSH4 0x3B53800 PUSH2 0x9EC JUMP JUMPDEST DUP2 PUSH1 0x5 EQ ISZERO PUSH2 0x4816 JUMPI POP PUSH4 0x9450C00 PUSH2 0x9EC JUMP JUMPDEST DUP2 PUSH1 0x6 EQ ISZERO PUSH2 0x482A JUMPI POP PUSH4 0x128A1800 PUSH2 0x9EC JUMP JUMPDEST DUP2 PUSH1 0x7 EQ ISZERO PUSH2 0x483E JUMPI POP PUSH4 0x25143000 PUSH2 0x9EC JUMP JUMPDEST PUSH1 0x40 MLOAD PUSH3 0x461BCD PUSH1 0xE5 SHL DUP2 MSTORE PUSH1 0x4 ADD PUSH2 0x1A5F SWAP1 PUSH2 0x5DF3 JUMP JUMPDEST PUSH1 0x0 DUP1 PUSH2 0x789 PUSH1 0x26 PUSH2 0x262B JUMP JUMPDEST PUSH1 0x0 DUP1 PUSH2 0x486E PUSH2 0x4DFF JUMP JUMPDEST PUSH2 0xFFFF SWAP4 SWAP1 SWAP4 AND PUSH1 0x0 SWAP1 DUP2 MSTORE PUSH1 0x20 SWAP4 SWAP1 SWAP4 MSTORE POP POP PUSH1 0x40 SWAP1 KECCAK256 SLOAD PUSH1 0x1 PUSH1 0x1 PUSH1 0xA0 SHL SUB AND SWAP1 JUMP JUMPDEST PUSH1 0x0 DUP1 PUSH1 0x0 JUMPDEST DUP4 MLOAD DUP2 LT ISZERO PUSH2 0x4AA2 JUMPI PUSH1 0x0 DUP5 DUP3 DUP2 MLOAD DUP2 LT PUSH2 0x48B0 JUMPI INVALID JUMPDEST PUSH1 0x20 MUL PUSH1 0x20 ADD ADD MLOAD SWAP1 POP PUSH1 0x0 DUP2 PUSH1 0x60 ADD MLOAD PUSH1 0x1 PUSH1 0x1 PUSH1 0xA0 SHL SUB AND PUSH4 0x70A08231 ADDRESS PUSH1 0x40 MLOAD DUP3 PUSH4 0xFFFFFFFF AND PUSH1 0xE0 SHL DUP2 MSTORE PUSH1 0x4 ADD PUSH2 0x48EC SWAP2 SWAP1 PUSH2 0x5C70 JUMP JUMPDEST PUSH1 0x20 PUSH1 0x40 MLOAD DUP1 DUP4 SUB DUP2 DUP7 DUP1 EXTCODESIZE ISZERO DUP1 ISZERO PUSH2 0x4904 JUMPI PUSH1 0x0 DUP1 REVERT JUMPDEST POP GAS STATICCALL ISZERO DUP1 ISZERO PUSH2 0x4918 JUMPI RETURNDATASIZE PUSH1 0x0 DUP1 RETURNDATACOPY RETURNDATASIZE PUSH1 0x0 REVERT JUMPDEST POP POP POP POP PUSH1 0x40 MLOAD RETURNDATASIZE PUSH1 0x1F NOT PUSH1 0x1F DUP3 ADD AND DUP3 ADD DUP1 PUSH1 0x40 MSTORE POP DUP2 ADD SWAP1 PUSH2 0x493C SWAP2 SWAP1 PUSH2 0x5BD1 JUMP JUMPDEST SWAP1 POP PUSH1 0x0 PUSH2 0x494A DUP9 ADDRESS PUSH2 0x34D1 JUMP JUMPDEST SWAP1 POP PUSH1 0x0 JUMPDEST DUP4 MLOAD MLOAD DUP2 LT ISZERO PUSH2 0x49A6 JUMPI PUSH2 0x4995 DUP5 PUSH1 0x0 ADD MLOAD DUP3 DUP2 MLOAD DUP2 LT PUSH2 0x496C JUMPI INVALID JUMPDEST PUSH1 0x20 MUL PUSH1 0x20 ADD ADD MLOAD PUSH1 0x0 DUP7 PUSH1 0x20 ADD MLOAD DUP5 DUP2 MLOAD DUP2 LT PUSH2 0x4986 JUMPI INVALID JUMPDEST PUSH1 0x20 MUL PUSH1 0x20 ADD ADD MLOAD PUSH1 0x1 PUSH2 0x4E0C JUMP JUMPDEST PUSH2 0x499E JUMPI PUSH1 0x1 SWAP7 POP JUMPDEST PUSH1 0x1 ADD PUSH2 0x494F JUMP JUMPDEST POP PUSH1 0x0 PUSH2 0x49B3 DUP10 ADDRESS PUSH2 0x34D1 JUMP JUMPDEST SWAP1 POP PUSH1 0x0 PUSH2 0x49C1 DUP3 DUP5 PUSH2 0x1610 JUMP JUMPDEST SWAP1 POP DUP1 DUP6 PUSH1 0x40 ADD MLOAD GT ISZERO PUSH2 0x49D4 JUMPI PUSH1 0x0 DUP1 REVERT JUMPDEST PUSH1 0x60 DUP6 ADD MLOAD PUSH1 0x40 MLOAD PUSH4 0x70A08231 PUSH1 0xE0 SHL DUP2 MSTORE PUSH1 0x0 SWAP2 PUSH1 0x1 PUSH1 0x1 PUSH1 0xA0 SHL SUB AND SWAP1 PUSH4 0x70A08231 SWAP1 PUSH2 0x4A07 SWAP1 ADDRESS SWAP1 PUSH1 0x4 ADD PUSH2 0x5C70 JUMP JUMPDEST PUSH1 0x20 PUSH1 0x40 MLOAD DUP1 DUP4 SUB DUP2 DUP7 DUP1 EXTCODESIZE ISZERO DUP1 ISZERO PUSH2 0x4A1F JUMPI PUSH1 0x0 DUP1 REVERT JUMPDEST POP GAS STATICCALL ISZERO DUP1 ISZERO PUSH2 0x4A33 JUMPI RETURNDATASIZE PUSH1 0x0 DUP1 RETURNDATACOPY RETURNDATASIZE PUSH1 0x0 REVERT JUMPDEST POP POP POP POP PUSH1 0x40 MLOAD RETURNDATASIZE PUSH1 0x1F NOT PUSH1 0x1F DUP3 ADD AND DUP3 ADD DUP1 PUSH1 0x40 MSTORE POP DUP2 ADD SWAP1 PUSH2 0x4A57 SWAP2 SWAP1 PUSH2 0x5BD1 JUMP JUMPDEST SWAP1 POP DUP5 DUP2 GT ISZERO PUSH2 0x4A66 JUMPI PUSH1 0x0 DUP1 REVERT JUMPDEST PUSH2 0x4A75 DUP7 PUSH1 0x60 ADD MLOAD DUP7 DUP4 PUSH2 0x357B JUMP JUMPDEST PUSH2 0x4A7F DUP9 DUP4 PUSH2 0xE93 JUMP JUMPDEST SWAP8 POP PUSH2 0x4A90 DUP12 PUSH1 0x0 ADD MLOAD DUP6 DUP6 PUSH2 0x357B JUMP JUMPDEST POP POP PUSH1 0x1 SWAP1 SWAP5 ADD SWAP4 POP PUSH2 0x4899 SWAP3 POP POP POP JUMP JUMPDEST POP SWAP3 POP SWAP3 SWAP1 POP JUMP JUMPDEST PUSH1 0x0 DUP1 PUSH2 0x789 PUSH1 0x7 PUSH2 0x262B JUMP JUMPDEST PUSH1 0x0 DUP1 PUSH2 0x789 PUSH1 0x1D PUSH2 0x262B JUMP JUMPDEST PUSH1 0x0 PUSH1 0x1 PUSH1 0x1 PUSH1 0x58 SHL SUB DUP3 GT ISZERO PUSH2 0xC86 JUMPI PUSH1 0x0 DUP1 REVERT JUMPDEST DUP1 SLOAD PUSH1 0x2 DUP3 ADD SLOAD PUSH1 0x0 SWAP2 PUSH2 0x4B1C SWAP2 PUSH1 0x1 PUSH1 0x28 SHL SWAP1 SWAP2 DIV PUSH1 0x1 PUSH1 0x1 PUSH1 0x58 SHL SUB AND SWAP1 PUSH2 0x4B16 SWAP1 PUSH1 0x1 PUSH1 0x1 PUSH1 0x50 SHL SUB PUSH1 0x1 PUSH1 0x50 SHL DUP3 DIV DUP2 AND SWAP2 AND PUSH2 0x163B JUMP JUMPDEST SWAP1 PUSH2 0x163B JUMP JUMPDEST PUSH1 0x1 DUP4 ADD SLOAD PUSH1 0x2 DUP5 ADD SLOAD SWAP2 SWAP3 POP PUSH1 0x0 SWAP2 PUSH2 0x4B56 SWAP2 PUSH1 0x1 PUSH1 0x1 PUSH1 0x58 SHL SUB AND SWAP1 PUSH2 0x4B16 SWAP1 PUSH1 0x1 PUSH1 0x1 PUSH1 0x50 SHL SUB PUSH1 0x1 PUSH1 0xA0 SHL DUP3 DIV DUP2 AND SWAP2 AND PUSH2 0x163B JUMP JUMPDEST DUP4 SLOAD SWAP1 SWAP2 POP PUSH1 0x0 SWAP1 PUSH2 0x4B8D SWAP1 PUSH1 0x1 PUSH1 0x1 PUSH1 0x1 PUSH1 0x58 SHL SUB PUSH1 0x1 PUSH1 0x80 SHL SWAP1 SWAP3 DIV DUP3 AND ADD AND PUSH15 0xC097CE7BC90715B34B9F1000000000 PUSH2 0x163B JUMP JUMPDEST SWAP1 POP DUP1 PUSH2 0x4B9A DUP5 DUP5 PUSH2 0x270B JUMP JUMPDEST SGT ISZERO PUSH2 0xB72 JUMPI PUSH1 0x0 DUP1 REVERT JUMPDEST PUSH1 0x0 PUSH2 0x4BAF PUSH2 0x1C43 JUMP JUMPDEST PUSH2 0xFFFF DUP6 AND PUSH1 0x0 SWAP1 DUP2 MSTORE PUSH1 0x20 SWAP2 SWAP1 SWAP2 MSTORE PUSH1 0x40 SWAP1 DUP2 SWAP1 KECCAK256 SLOAD SWAP1 MLOAD PUSH4 0x1CEF4BA3 PUSH1 0xE1 SHL DUP2 MSTORE PUSH1 0x1 PUSH1 0x1 PUSH1 0xA0 SHL SUB SWAP1 SWAP2 AND SWAP2 POP DUP2 SWAP1 PUSH4 0x39DE9746 SWAP1 PUSH2 0x28AF SWAP1 DUP10 SWAP1 DUP10 SWAP1 DUP9 SWAP1 DUP9 SWAP1 PUSH1 0x4 ADD PUSH2 0x5CC2 JUMP JUMPDEST PUSH1 0x0 DUP1 PUSH2 0x789 PUSH1 0x1E PUSH2 0x262B JUMP JUMPDEST PUSH1 0x0 DUP3 PUSH2 0x4C3A JUMPI PUSH2 0x4C17 PUSH2 0x1C43 JUMP JUMPDEST PUSH2 0xFFFF DUP4 AND PUSH1 0x0 SWAP1 DUP2 MSTORE PUSH1 0x20 SWAP2 SWAP1 SWAP2 MSTORE PUSH1 0x40 SWAP1 KECCAK256 SLOAD PUSH1 0x1 PUSH1 0x1 PUSH1 0xA0 SHL SUB AND PUSH2 0xEA5 JUMP JUMPDEST PUSH2 0x4C42 PUSH2 0x43C1 JUMP JUMPDEST PUSH2 0xFFFF DUP4 AND PUSH1 0x0 SWAP1 DUP2 MSTORE PUSH1 0x20 SWAP2 SWAP1 SWAP2 MSTORE PUSH1 0x40 SWAP1 KECCAK256 SLOAD PUSH1 0x1 PUSH1 0x1 PUSH1 0xA0 SHL SUB AND SWAP1 POP SWAP3 SWAP2 POP POP JUMP JUMPDEST PUSH1 0x0 DUP1 PUSH1 0x0 DUP1 PUSH1 0x0 DUP1 PUSH2 0x4C7B DUP10 DUP9 PUSH2 0x507A JUMP JUMPDEST DUP10 MLOAD SWAP1 SWAP6 POP SWAP2 SWAP4 POP SWAP2 POP PUSH1 0x0 SWAP1 PUSH2 0x4CA2 SWAP1 PUSH2 0x4C97 SWAP1 DUP12 SWAP1 PUSH2 0x1610 JUMP JUMPDEST PUSH4 0x3B9ACA00 SWAP1 PUSH2 0x2535 JUMP JUMPDEST SWAP1 POP PUSH2 0x4CDC PUSH2 0x4CD1 PUSH4 0x1DA9C00 PUSH2 0x4CB9 DUP6 DUP6 PUSH2 0x2535 JUMP JUMPDEST DUP2 PUSH2 0x4CC0 JUMPI INVALID JUMPDEST PUSH8 0xDE0B6B3A7640000 SWAP2 SWAP1 DIV PUSH2 0xE93 JUMP JUMPDEST PUSH1 0xE0 DUP11 ADD MLOAD SWAP1 PUSH2 0x4D96 JUMP JUMPDEST SWAP7 POP PUSH2 0x4CFE PUSH2 0x4CF3 PUSH4 0x1DA9C00 PUSH2 0x4CB9 DUP8 DUP6 PUSH2 0x2535 JUMP JUMPDEST PUSH1 0xC0 DUP11 ADD MLOAD SWAP1 PUSH2 0x4D96 JUMP JUMPDEST SWAP6 POP DUP2 DUP4 EQ ISZERO PUSH2 0x4D15 JUMPI POP PUSH1 0x0 SWAP4 POP PUSH2 0x4D70 SWAP2 POP POP JUMP JUMPDEST PUSH1 0x0 PUSH2 0x4D37 PUSH2 0x4D2C PUSH4 0x1DA9C00 PUSH2 0x4CB9 DUP8 DUP7 PUSH2 0x2535 JUMP JUMPDEST PUSH1 0xE0 DUP12 ADD MLOAD SWAP1 PUSH2 0x4D96 JUMP JUMPDEST SWAP1 POP PUSH1 0x0 PUSH2 0x4D45 DUP10 DUP4 PUSH2 0x1610 JUMP JUMPDEST SWAP1 POP PUSH2 0x4D68 DUP9 PUSH2 0x4D62 DUP4 DUP14 PUSH1 0x40 ADD MLOAD PUSH2 0x2535 SWAP1 SWAP2 SWAP1 PUSH4 0xFFFFFFFF AND JUMP JUMPDEST SWAP1 PUSH2 0x5115 JUMP JUMPDEST SWAP7 POP POP POP POP POP POP JUMPDEST SWAP4 POP SWAP4 POP SWAP4 POP SWAP4 JUMP JUMPDEST PUSH1 0x0 PUSH2 0xEA5 PUSH2 0x4D90 DUP5 PUSH8 0xDE0B6B3A7640000 PUSH2 0x2535 JUMP JUMPDEST DUP4 PUSH2 0x5115 JUMP JUMPDEST PUSH1 0x0 PUSH2 0xEA5 PUSH2 0x4DA5 DUP5 DUP5 PUSH2 0x2535 JUMP JUMPDEST PUSH8 0xDE0B6B3A7640000 PUSH2 0x5115 JUMP JUMPDEST PUSH1 0x0 DUP1 PUSH2 0x789 PUSH1 0x6 PUSH2 0x262B JUMP JUMPDEST PUSH1 0x0 PUSH11 0x7FFFFFFFFFFFFFFFFFFFFF NOT DUP3 SLT DUP1 ISZERO SWAP1 PUSH2 0x4DE9 JUMPI POP PUSH11 0x7FFFFFFFFFFFFFFFFFFFFF DUP3 SGT ISZERO JUMPDEST PUSH2 0xC86 JUMPI PUSH1 0x0 DUP1 REVERT JUMPDEST PUSH1 0x0 DUP1 PUSH2 0x789 PUSH1 0x9 PUSH2 0x262B JUMP JUMPDEST PUSH1 0x0 DUP1 PUSH2 0x789 PUSH1 0x1F PUSH2 0x262B JUMP JUMPDEST PUSH1 0x0 DUP1 PUSH1 0x0 DUP7 PUSH1 0x1 PUSH1 0x1 PUSH1 0xA0 SHL SUB AND DUP7 DUP7 PUSH1 0x40 MLOAD DUP1 DUP3 DUP1 MLOAD SWAP1 PUSH1 0x20 ADD SWAP1 DUP1 DUP4 DUP4 JUMPDEST PUSH1 0x20 DUP4 LT PUSH2 0x4E4C JUMPI DUP1 MLOAD DUP3 MSTORE PUSH1 0x1F NOT SWAP1 SWAP3 ADD SWAP2 PUSH1 0x20 SWAP2 DUP3 ADD SWAP2 ADD PUSH2 0x4E2D JUMP JUMPDEST PUSH1 0x1 DUP4 PUSH1 0x20 SUB PUSH2 0x100 EXP SUB DUP1 NOT DUP3 MLOAD AND DUP2 DUP5 MLOAD AND DUP1 DUP3 OR DUP6 MSTORE POP POP POP POP POP POP SWAP1 POP ADD SWAP2 POP POP PUSH1 0x0 PUSH1 0x40 MLOAD DUP1 DUP4 SUB DUP2 DUP6 DUP8 GAS CALL SWAP3 POP POP POP RETURNDATASIZE DUP1 PUSH1 0x0 DUP2 EQ PUSH2 0x4EAE JUMPI PUSH1 0x40 MLOAD SWAP2 POP PUSH1 0x1F NOT PUSH1 0x3F RETURNDATASIZE ADD AND DUP3 ADD PUSH1 0x40 MSTORE RETURNDATASIZE DUP3 MSTORE RETURNDATASIZE PUSH1 0x0 PUSH1 0x20 DUP5 ADD RETURNDATACOPY PUSH2 0x4EB3 JUMP JUMPDEST PUSH1 0x60 SWAP2 POP JUMPDEST POP SWAP2 POP SWAP2 POP DUP4 PUSH2 0x4F56 JUMPI DUP2 PUSH2 0x4EC7 DUP3 PUSH2 0x5134 JUMP JUMPDEST SWAP1 PUSH2 0x4F50 JUMPI PUSH1 0x40 MLOAD PUSH3 0x461BCD PUSH1 0xE5 SHL DUP2 MSTORE PUSH1 0x4 ADD DUP1 DUP1 PUSH1 0x20 ADD DUP3 DUP2 SUB DUP3 MSTORE DUP4 DUP2 DUP2 MLOAD DUP2 MSTORE PUSH1 0x20 ADD SWAP2 POP DUP1 MLOAD SWAP1 PUSH1 0x20 ADD SWAP1 DUP1 DUP4 DUP4 PUSH1 0x0 JUMPDEST DUP4 DUP2 LT ISZERO PUSH2 0x4F15 JUMPI DUP2 DUP2 ADD MLOAD DUP4 DUP3 ADD MSTORE PUSH1 0x20 ADD PUSH2 0x4EFD JUMP JUMPDEST POP POP POP POP SWAP1 POP SWAP1 DUP2 ADD SWAP1 PUSH1 0x1F AND DUP1 ISZERO PUSH2 0x4F42 JUMPI DUP1 DUP3 SUB DUP1 MLOAD PUSH1 0x1 DUP4 PUSH1 0x20 SUB PUSH2 0x100 EXP SUB NOT AND DUP2 MSTORE PUSH1 0x20 ADD SWAP2 POP JUMPDEST POP SWAP3 POP POP POP PUSH1 0x40 MLOAD DUP1 SWAP2 SUB SWAP1 REVERT JUMPDEST POP PUSH2 0x30DB JUMP JUMPDEST DUP7 PUSH1 0x1 PUSH1 0x1 PUSH1 0xA0 SHL SUB AND PUSH32 0x3C7E398C5E91088CAE639370E35B25EA669D81FBDF0DEF5388E73661BC34E08E DUP8 DUP8 PUSH2 0x4F8C DUP6 PUSH2 0x5134 JUMP JUMPDEST PUSH1 0x40 MLOAD DUP1 DUP5 DUP2 MSTORE PUSH1 0x20 ADD DUP1 PUSH1 0x20 ADD DUP1 PUSH1 0x20 ADD DUP4 DUP2 SUB DUP4 MSTORE DUP6 DUP2 DUP2 MLOAD DUP2 MSTORE PUSH1 0x20 ADD SWAP2 POP DUP1 MLOAD SWAP1 PUSH1 0x20 ADD SWAP1 DUP1 DUP4 DUP4 PUSH1 0x0 JUMPDEST DUP4 DUP2 LT ISZERO PUSH2 0x4FD3 JUMPI DUP2 DUP2 ADD MLOAD DUP4 DUP3 ADD MSTORE PUSH1 0x20 ADD PUSH2 0x4FBB JUMP JUMPDEST POP POP POP POP SWAP1 POP SWAP1 DUP2 ADD SWAP1 PUSH1 0x1F AND DUP1 ISZERO PUSH2 0x5000 JUMPI DUP1 DUP3 SUB DUP1 MLOAD PUSH1 0x1 DUP4 PUSH1 0x20 SUB PUSH2 0x100 EXP SUB NOT AND DUP2 MSTORE PUSH1 0x20 ADD SWAP2 POP JUMPDEST POP DUP4 DUP2 SUB DUP3 MSTORE DUP5 MLOAD DUP2 MSTORE DUP5 MLOAD PUSH1 0x20 SWAP2 DUP3 ADD SWAP2 DUP7 ADD SWAP1 DUP1 DUP4 DUP4 PUSH1 0x0 JUMPDEST DUP4 DUP2 LT ISZERO PUSH2 0x5033 JUMPI DUP2 DUP2 ADD MLOAD DUP4 DUP3 ADD MSTORE PUSH1 0x20 ADD PUSH2 0x501B JUMP JUMPDEST POP POP POP POP SWAP1 POP SWAP1 DUP2 ADD SWAP1 PUSH1 0x1F AND DUP1 ISZERO PUSH2 0x5060 JUMPI DUP1 DUP3 SUB DUP1 MLOAD PUSH1 0x1 DUP4 PUSH1 0x20 SUB PUSH2 0x100 EXP SUB NOT AND DUP2 MSTORE PUSH1 0x20 ADD SWAP2 POP JUMPDEST POP SWAP6 POP POP POP POP POP POP PUSH1 0x40 MLOAD DUP1 SWAP2 SUB SWAP1 LOG2 POP SWAP6 SWAP5 POP POP POP POP POP JUMP JUMPDEST PUSH1 0x0 DUP1 PUSH1 0x0 DUP1 PUSH1 0x0 DUP6 PUSH1 0x20 ADD MLOAD GT ISZERO PUSH2 0x50C7 JUMPI PUSH2 0x50C4 PUSH2 0x50AB DUP7 PUSH1 0xC0 ADD MLOAD DUP8 PUSH1 0x20 ADD MLOAD PUSH2 0x2535 SWAP1 SWAP2 SWAP1 PUSH4 0xFFFFFFFF AND JUMP JUMPDEST PUSH1 0xE0 DUP8 ADD MLOAD PUSH1 0x40 DUP9 ADD MLOAD PUSH2 0x50BE SWAP2 PUSH2 0x2535 JUMP JUMPDEST SWAP1 PUSH2 0x523B JUMP JUMPDEST SWAP1 POP JUMPDEST PUSH1 0x0 PUSH2 0x50D2 DUP8 PUSH2 0x524E JUMP JUMPDEST SWAP1 POP PUSH2 0x50DE DUP2 DUP4 PUSH2 0x5281 JUMP JUMPDEST SWAP5 POP DUP2 ISZERO PUSH2 0x50F5 JUMPI PUSH2 0x50F2 DUP2 DUP7 PUSH1 0x1 PUSH2 0x5334 JUMP JUMPDEST SWAP4 POP JUMPDEST PUSH1 0x20 DUP7 ADD MLOAD ISZERO PUSH2 0x510C JUMPI PUSH2 0x5109 DUP6 DUP4 PUSH2 0x53AE JUMP JUMPDEST SWAP3 POP JUMPDEST POP POP SWAP3 POP SWAP3 POP SWAP3 JUMP JUMPDEST PUSH1 0x0 DUP1 DUP3 GT PUSH2 0x5123 JUMPI PUSH1 0x0 DUP1 REVERT JUMPDEST DUP2 DUP4 DUP2 PUSH2 0x512C JUMPI INVALID JUMPDEST DIV SWAP4 SWAP3 POP POP POP JUMP JUMPDEST PUSH1 0x60 PUSH1 0x44 DUP3 MLOAD LT ISZERO PUSH2 0x516A JUMPI POP PUSH1 0x40 DUP1 MLOAD DUP1 DUP3 ADD SWAP1 SWAP2 MSTORE PUSH1 0xD DUP2 MSTORE PUSH13 0x14DA5B195B9D0814995D995C9D PUSH1 0x9A SHL PUSH1 0x20 DUP3 ADD MSTORE PUSH2 0x9EC JUMP JUMPDEST PUSH1 0x4 DUP3 ADD DUP1 MLOAD SWAP1 SWAP3 PUSH1 0x24 ADD SWAP1 PUSH1 0x20 DUP2 LT ISZERO PUSH2 0x5184 JUMPI PUSH1 0x0 DUP1 REVERT JUMPDEST DUP2 ADD SWAP1 DUP1 DUP1 MLOAD PUSH1 0x40 MLOAD SWAP4 SWAP3 SWAP2 SWAP1 DUP5 PUSH5 0x100000000 DUP3 GT ISZERO PUSH2 0x51A4 JUMPI PUSH1 0x0 DUP1 REVERT JUMPDEST SWAP1 DUP4 ADD SWAP1 PUSH1 0x20 DUP3 ADD DUP6 DUP2 GT ISZERO PUSH2 0x51B9 JUMPI PUSH1 0x0 DUP1 REVERT JUMPDEST DUP3 MLOAD PUSH5 0x100000000 DUP2 GT DUP3 DUP3 ADD DUP9 LT OR ISZERO PUSH2 0x51D3 JUMPI PUSH1 0x0 DUP1 REVERT JUMPDEST DUP3 MSTORE POP DUP2 MLOAD PUSH1 0x20 SWAP2 DUP3 ADD SWAP3 SWAP1 SWAP2 ADD SWAP1 DUP1 DUP4 DUP4 PUSH1 0x0 JUMPDEST DUP4 DUP2 LT ISZERO PUSH2 0x5200 JUMPI DUP2 DUP2 ADD MLOAD DUP4 DUP3 ADD MSTORE PUSH1 0x20 ADD PUSH2 0x51E8 JUMP JUMPDEST POP POP POP POP SWAP1 POP SWAP1 DUP2 ADD SWAP1 PUSH1 0x1F AND DUP1 ISZERO PUSH2 0x522D JUMPI DUP1 DUP3 SUB DUP1 MLOAD PUSH1 0x1 DUP4 PUSH1 0x20 SUB PUSH2 0x100 EXP SUB NOT AND DUP2 MSTORE PUSH1 0x20 ADD SWAP2 POP JUMPDEST POP PUSH1 0x40 MSTORE POP POP POP SWAP1 POP SWAP2 SWAP1 POP JUMP JUMPDEST PUSH1 0x0 PUSH2 0xEA5 PUSH2 0x4D90 DUP5 PUSH4 0x3B9ACA00 PUSH2 0x2535 JUMP JUMPDEST PUSH2 0x5256 PUSH2 0x56DB JUMP JUMPDEST PUSH1 0x0 PUSH2 0x5260 PUSH2 0x53C7 JUMP JUMPDEST PUSH2 0xFFFF DUP5 AND PUSH1 0x0 SWAP1 DUP2 MSTORE PUSH1 0x20 SWAP2 SWAP1 SWAP2 MSTORE PUSH1 0x40 DUP2 KECCAK256 SLOAD SWAP2 POP PUSH2 0xEA5 SWAP1 DUP3 PUSH2 0x53D4 JUMP JUMPDEST PUSH1 0x0 DUP1 DUP4 PUSH1 0x80 ADD MLOAD GT PUSH2 0x5293 JUMPI PUSH1 0x0 DUP1 REVERT JUMPDEST PUSH4 0x3B9ACA00 DUP3 GT ISZERO PUSH2 0x52A4 JUMPI PUSH1 0x0 DUP1 REVERT JUMPDEST DUP3 MLOAD DUP3 GT PUSH2 0x52C3 JUMPI DUP3 MLOAD PUSH1 0x40 DUP5 ADD MLOAD PUSH2 0x1D7F SWAP2 SWAP1 PUSH2 0x4D62 SWAP1 DUP6 SWAP1 PUSH2 0x2535 JUMP JUMPDEST DUP3 PUSH1 0x20 ADD MLOAD DUP3 GT PUSH2 0x52FB JUMPI PUSH1 0x40 DUP4 ADD MLOAD DUP4 MLOAD PUSH1 0x20 DUP6 ADD MLOAD PUSH1 0x60 DUP7 ADD MLOAD PUSH2 0x1D7F SWAP4 SWAP3 PUSH2 0x17FA SWAP3 DUP2 SWAP1 SUB SWAP2 PUSH2 0x4D62 SWAP2 DUP9 SUB SWAP1 DUP6 SWAP1 SUB PUSH2 0x2535 JUMP JUMPDEST PUSH2 0xEA5 DUP4 PUSH1 0x60 ADD MLOAD PUSH2 0x17FA DUP6 PUSH1 0x20 ADD MLOAD PUSH4 0x3B9ACA00 SUB PUSH2 0x4D62 DUP8 PUSH1 0x60 ADD MLOAD DUP9 PUSH1 0x80 ADD MLOAD SUB DUP9 PUSH1 0x20 ADD MLOAD DUP9 SUB PUSH2 0x2535 SWAP1 SWAP2 SWAP1 PUSH4 0xFFFFFFFF AND JUMP JUMPDEST PUSH1 0x0 DUP1 PUSH2 0x5353 PUSH1 0x64 PUSH2 0x4D62 DUP8 PUSH1 0xE0 ADD MLOAD DUP8 PUSH2 0x2535 SWAP1 SWAP2 SWAP1 PUSH4 0xFFFFFFFF AND JUMP JUMPDEST SWAP1 POP DUP5 PUSH1 0xA0 ADD MLOAD DUP2 LT ISZERO PUSH2 0x5368 JUMPI POP PUSH1 0xA0 DUP5 ADD MLOAD JUMPDEST DUP5 PUSH1 0xC0 ADD MLOAD DUP2 GT ISZERO PUSH2 0x537B JUMPI POP PUSH1 0xC0 DUP5 ADD MLOAD JUMPDEST DUP3 ISZERO PUSH2 0x5392 JUMPI PUSH2 0x538B DUP5 DUP3 PUSH2 0xE93 JUMP JUMPDEST SWAP2 POP PUSH2 0x53A6 JUMP JUMPDEST DUP4 DUP2 GT PUSH2 0x53A1 JUMPI DUP1 DUP5 SUB PUSH2 0xD70 JUMP JUMPDEST PUSH1 0x0 SWAP2 POP JUMPDEST POP SWAP4 SWAP3 POP POP POP JUMP JUMPDEST PUSH1 0x0 PUSH2 0xEA5 PUSH2 0x53BD DUP5 DUP5 PUSH2 0x2535 JUMP JUMPDEST PUSH4 0x3B9ACA00 PUSH2 0x5115 JUMP JUMPDEST PUSH1 0x0 DUP1 PUSH2 0x789 PUSH1 0x1B PUSH2 0x262B JUMP JUMPDEST PUSH2 0x53DC PUSH2 0x56DB JUMP JUMPDEST PUSH1 0x64 PUSH4 0x3B9ACA00 DUP4 PUSH1 0xFF DUP7 AND PUSH1 0x20 DUP2 LT PUSH2 0x53F2 JUMPI INVALID JUMPDEST BYTE MUL DUP2 PUSH2 0x53FB JUMPI INVALID JUMPDEST DIV DUP2 MSTORE PUSH1 0x64 PUSH4 0x3B9ACA00 DUP4 PUSH1 0xFF DUP7 AND PUSH1 0x1 ADD PUSH1 0x20 DUP2 LT PUSH2 0x5417 JUMPI INVALID JUMPDEST BYTE MUL DUP2 PUSH2 0x5420 JUMPI INVALID JUMPDEST DIV DUP2 PUSH1 0x20 ADD DUP2 DUP2 MSTORE POP POP PUSH2 0x5445 DUP3 PUSH1 0x2 DUP6 PUSH1 0xFF AND ADD PUSH1 0x20 DUP2 LT PUSH2 0x543F JUMPI INVALID JUMPDEST BYTE PUSH2 0x54F3 JUMP JUMPDEST PUSH1 0x80 DUP3 ADD DUP2 SWAP1 MSTORE PUSH2 0x100 SWAP1 DUP4 PUSH1 0xFF DUP7 AND PUSH1 0x3 ADD PUSH1 0x20 DUP2 LT PUSH2 0x5462 JUMPI INVALID JUMPDEST BYTE MUL DUP2 PUSH2 0x546B JUMPI INVALID JUMPDEST DIV PUSH1 0x40 DUP3 ADD MSTORE PUSH1 0x80 DUP2 ADD MLOAD PUSH2 0x100 SWAP1 DUP4 PUSH1 0xFF DUP7 AND PUSH1 0x4 ADD PUSH1 0x20 DUP2 LT PUSH2 0x548C JUMPI INVALID JUMPDEST BYTE MUL DUP2 PUSH2 0x5495 JUMPI INVALID JUMPDEST DIV PUSH1 0x60 DUP3 ADD MSTORE PUSH3 0x7A120 DUP3 PUSH1 0xFF DUP6 AND PUSH1 0x5 ADD PUSH1 0x20 DUP2 LT PUSH2 0x54B1 JUMPI INVALID JUMPDEST BYTE MUL PUSH1 0xA0 DUP3 ADD MSTORE PUSH3 0x2625A0 DUP3 PUSH1 0xFF DUP6 AND PUSH1 0x6 ADD PUSH1 0x20 DUP2 LT PUSH2 0x54CE JUMPI INVALID JUMPDEST BYTE MUL PUSH1 0xC0 DUP3 ADD MSTORE DUP2 PUSH1 0xFF DUP5 AND PUSH1 0x7 ADD PUSH1 0x20 DUP2 LT PUSH2 0x54E7 JUMPI INVALID JUMPDEST BYTE PUSH1 0xE0 DUP3 ADD MSTORE SWAP3 SWAP2 POP POP JUMP JUMPDEST PUSH1 0x0 DUP2 PUSH1 0xFF AND PUSH1 0x96 LT PUSH2 0x550E JUMPI PUSH1 0xFF DUP3 AND PUSH3 0x2625A0 MUL PUSH2 0x9E9 JUMP JUMPDEST POP PUSH1 0x95 NOT PUSH1 0xFF SWAP2 SWAP1 SWAP2 AND ADD PUSH3 0xE4E1C0 MUL PUSH4 0x165A0BC0 ADD SWAP1 JUMP JUMPDEST PUSH1 0x40 MLOAD DUP1 PUSH2 0x1E0 ADD PUSH1 0x40 MSTORE DUP1 PUSH1 0x0 PUSH1 0x1 PUSH1 0x1 PUSH1 0xA0 SHL SUB AND DUP2 MSTORE PUSH1 0x20 ADD PUSH1 0x0 PUSH2 0xFFFF AND DUP2 MSTORE PUSH1 0x20 ADD PUSH1 0x0 PUSH2 0xFFFF AND DUP2 MSTORE PUSH1 0x20 ADD PUSH1 0x0 DUP2 MSTORE PUSH1 0x20 ADD PUSH1 0x0 DUP2 MSTORE PUSH1 0x20 ADD PUSH1 0x0 DUP2 MSTORE PUSH1 0x20 ADD PUSH1 0x0 DUP2 MSTORE PUSH1 0x20 ADD PUSH1 0x0 DUP2 MSTORE PUSH1 0x20 ADD PUSH1 0x0 DUP2 MSTORE PUSH1 0x20 ADD PUSH1 0x0 DUP2 MSTORE PUSH1 0x20 ADD PUSH2 0x5592 PUSH2 0x5720 JUMP JUMPDEST DUP2 MSTORE PUSH1 0x20 ADD PUSH2 0x559F PUSH2 0x5629 JUMP JUMPDEST DUP2 MSTORE PUSH1 0x20 ADD PUSH1 0x0 DUP2 MSTORE PUSH1 0x20 ADD PUSH2 0x55B3 PUSH2 0x5720 JUMP JUMPDEST DUP2 MSTORE PUSH1 0x20 ADD PUSH1 0x0 DUP2 MSTORE POP SWAP1 JUMP JUMPDEST PUSH1 0x40 MLOAD DUP1 PUSH1 0xC0 ADD PUSH1 0x40 MSTORE DUP1 PUSH1 0x0 DUP2 MSTORE PUSH1 0x20 ADD PUSH1 0x0 DUP2 MSTORE PUSH1 0x20 ADD PUSH1 0x0 DUP2 MSTORE PUSH1 0x20 ADD PUSH1 0x0 PUSH1 0x1 PUSH1 0x1 PUSH1 0xA0 SHL SUB AND DUP2 MSTORE PUSH1 0x20 ADD PUSH1 0x0 DUP2 MSTORE PUSH1 0x20 ADD PUSH1 0x0 DUP2 MSTORE POP SWAP1 JUMP JUMPDEST PUSH1 0x40 MLOAD DUP1 PUSH1 0x80 ADD PUSH1 0x40 MSTORE DUP1 PUSH1 0x0 DUP2 MSTORE PUSH1 0x20 ADD PUSH1 0x0 DUP2 MSTORE PUSH1 0x20 ADD PUSH1 0x0 DUP2 MSTORE PUSH1 0x20 ADD PUSH1 0x0 ISZERO ISZERO DUP2 MSTORE POP SWAP1 JUMP JUMPDEST PUSH1 0x40 MLOAD DUP1 PUSH1 0x60 ADD PUSH1 0x40 MSTORE DUP1 PUSH1 0x0 DUP2 MSTORE PUSH1 0x20 ADD PUSH1 0x0 DUP2 MSTORE PUSH1 0x20 ADD PUSH1 0x0 DUP2 MSTORE POP SWAP1 JUMP JUMPDEST PUSH1 0x40 DUP1 MLOAD PUSH1 0xA0 DUP2 ADD DUP3 MSTORE PUSH1 0x0 DUP1 DUP3 MSTORE PUSH1 0x20 DUP3 ADD DUP2 SWAP1 MSTORE SWAP2 DUP2 ADD DUP3 SWAP1 MSTORE SWAP1 PUSH1 0x60 DUP3 ADD SWAP1 PUSH2 0x55B3 JUMP JUMPDEST PUSH1 0x40 MLOAD DUP1 PUSH2 0x120 ADD PUSH1 0x40 MSTORE DUP1 PUSH1 0x0 DUP2 MSTORE PUSH1 0x20 ADD PUSH1 0x0 DUP2 MSTORE PUSH1 0x20 ADD PUSH1 0x0 DUP2 MSTORE PUSH1 0x20 ADD PUSH1 0x0 DUP2 MSTORE PUSH1 0x20 ADD PUSH1 0x0 DUP2 MSTORE PUSH1 0x20 ADD PUSH1 0x0 DUP2 MSTORE PUSH1 0x20 ADD PUSH1 0x0 DUP2 MSTORE PUSH1 0x20 ADD PUSH1 0x0 DUP2 MSTORE PUSH1 0x20 ADD PUSH1 0x0 DUP2 MSTORE POP SWAP1 JUMP JUMPDEST PUSH1 0x40 MLOAD DUP1 PUSH1 0x20 ADD PUSH1 0x40 MSTORE DUP1 PUSH1 0x1 SWAP1 PUSH1 0x20 DUP3 MUL DUP1 CALLDATASIZE DUP4 CALLDATACOPY POP SWAP2 SWAP3 SWAP2 POP POP JUMP JUMPDEST PUSH1 0x40 MLOAD DUP1 PUSH2 0x100 ADD PUSH1 0x40 MSTORE DUP1 PUSH1 0x0 DUP2 MSTORE PUSH1 0x20 ADD PUSH1 0x0 DUP2 MSTORE PUSH1 0x20 ADD PUSH1 0x0 DUP2 MSTORE PUSH1 0x20 ADD PUSH1 0x0 DUP2 MSTORE PUSH1 0x20 ADD PUSH1 0x0 DUP2 MSTORE PUSH1 0x20 ADD PUSH1 0x0 DUP2 MSTORE PUSH1 0x20 ADD PUSH1 0x0 DUP2 MSTORE PUSH1 0x20 ADD PUSH1 0x0 DUP2 MSTORE POP SWAP1 JUMP JUMPDEST PUSH1 0x40 MLOAD DUP1 PUSH1 0x40 ADD PUSH1 0x40 MSTORE DUP1 PUSH1 0x2 SWAP1 PUSH1 0x20 DUP3 MUL DUP1 CALLDATASIZE DUP4 CALLDATACOPY POP SWAP2 SWAP3 SWAP2 POP POP JUMP JUMPDEST DUP1 MLOAD PUSH2 0x9EC DUP2 PUSH2 0x5F0F JUMP JUMPDEST PUSH1 0x0 DUP3 PUSH1 0x1F DUP4 ADD SLT PUSH2 0x5759 JUMPI DUP1 DUP2 REVERT JUMPDEST DUP2 MLOAD PUSH1 0x20 PUSH2 0x576E PUSH2 0x5769 DUP4 PUSH2 0x5EF1 JUMP JUMPDEST PUSH2 0x5ECD JUMP JUMPDEST DUP3 DUP2 MSTORE DUP2 DUP2 ADD SWAP1 DUP6 DUP4 ADD DUP4 DUP6 MUL DUP8 ADD DUP5 ADD DUP9 LT ISZERO PUSH2 0x578A JUMPI DUP6 DUP7 REVERT JUMPDEST DUP6 JUMPDEST DUP6 DUP2 LT ISZERO PUSH2 0x57B1 JUMPI DUP2 MLOAD PUSH2 0x579F DUP2 PUSH2 0x5F0F JUMP JUMPDEST DUP5 MSTORE SWAP3 DUP5 ADD SWAP3 SWAP1 DUP5 ADD SWAP1 PUSH1 0x1 ADD PUSH2 0x578C JUMP JUMPDEST POP SWAP1 SWAP8 SWAP7 POP POP POP POP POP POP POP JUMP JUMPDEST PUSH1 0x0 PUSH1 0x1F DUP4 DUP2 DUP5 ADD SLT PUSH2 0x57CF JUMPI DUP2 DUP3 REVERT JUMPDEST DUP3 MLOAD PUSH1 0x20 PUSH2 0x57DF PUSH2 0x5769 DUP4 PUSH2 0x5EF1 JUMP JUMPDEST DUP3 DUP2 MSTORE DUP2 DUP2 ADD SWAP1 DUP7 DUP4 ADD DUP7 JUMPDEST DUP6 DUP2 LT ISZERO PUSH2 0x5884 JUMPI DUP2 MLOAD DUP10 ADD DUP11 PUSH1 0x3F DUP3 ADD SLT PUSH2 0x5805 JUMPI DUP9 DUP10 REVERT JUMPDEST DUP6 DUP2 ADD MLOAD PUSH8 0xFFFFFFFFFFFFFFFF DUP2 GT ISZERO PUSH2 0x581B JUMPI INVALID JUMPDEST PUSH2 0x582C DUP2 DUP11 ADD PUSH1 0x1F NOT AND DUP9 ADD PUSH2 0x5ECD JUMP JUMPDEST DUP2 DUP2 MSTORE PUSH1 0x40 DUP14 DUP2 DUP5 DUP7 ADD ADD GT ISZERO PUSH2 0x5841 JUMPI DUP12 DUP13 REVERT JUMPDEST DUP12 JUMPDEST DUP4 DUP2 LT ISZERO PUSH2 0x585E JUMPI DUP5 DUP2 ADD DUP3 ADD MLOAD DUP4 DUP3 ADD DUP12 ADD MSTORE DUP10 ADD PUSH2 0x5843 JUMP JUMPDEST DUP4 DUP2 GT ISZERO PUSH2 0x586E JUMPI DUP13 DUP11 DUP6 DUP6 ADD ADD MSTORE JUMPDEST POP POP DUP7 MSTORE POP POP SWAP3 DUP5 ADD SWAP3 SWAP1 DUP5 ADD SWAP1 PUSH1 0x1 ADD PUSH2 0x57EB JUMP JUMPDEST POP SWAP1 SWAP9 SWAP8 POP POP POP POP POP POP POP POP JUMP JUMPDEST PUSH1 0x0 DUP1 DUP4 PUSH1 0x1F DUP5 ADD SLT PUSH2 0x58A3 JUMPI DUP2 DUP3 REVERT JUMPDEST POP DUP2 CALLDATALOAD PUSH8 0xFFFFFFFFFFFFFFFF DUP2 GT ISZERO PUSH2 0x58BA JUMPI DUP2 DUP3 REVERT JUMPDEST PUSH1 0x20 DUP4 ADD SWAP2 POP DUP4 PUSH1 0x20 DUP3 DUP6 ADD ADD GT ISZERO PUSH2 0x58D2 JUMPI PUSH1 0x0 DUP1 REVERT JUMPDEST SWAP3 POP SWAP3 SWAP1 POP JUMP JUMPDEST DUP1 CALLDATALOAD PUSH4 0xFFFFFFFF DUP2 AND DUP2 EQ PUSH2 0x9EC JUMPI PUSH1 0x0 DUP1 REVERT JUMPDEST PUSH1 0x0 DUP1 PUSH1 0x40 DUP4 DUP6 SUB SLT ISZERO PUSH2 0x58FF JUMPI DUP2 DUP3 REVERT JUMPDEST DUP3 CALLDATALOAD PUSH2 0x590A DUP2 PUSH2 0x5F0F JUMP JUMPDEST SWAP2 POP PUSH1 0x20 DUP4 ADD CALLDATALOAD PUSH2 0x591A DUP2 PUSH2 0x5F0F JUMP JUMPDEST DUP1 SWAP2 POP POP SWAP3 POP SWAP3 SWAP1 POP JUMP JUMPDEST PUSH1 0x0 DUP1 PUSH1 0x0 DUP1 PUSH1 0x0 DUP1 PUSH1 0x0 DUP1 PUSH1 0xE0 DUP10 DUP12 SUB SLT ISZERO PUSH2 0x5940 JUMPI DUP4 DUP5 REVERT JUMPDEST DUP9 CALLDATALOAD PUSH2 0x594B DUP2 PUSH2 0x5F0F JUMP JUMPDEST SWAP8 POP PUSH1 0x20 DUP10 ADD CALLDATALOAD PUSH2 0x595B DUP2 PUSH2 0x5F0F JUMP JUMPDEST SWAP7 POP PUSH1 0x40 DUP10 ADD CALLDATALOAD PUSH2 0x596B DUP2 PUSH2 0x5F0F JUMP JUMPDEST SWAP6 POP PUSH1 0x60 DUP10 ADD CALLDATALOAD SWAP5 POP PUSH1 0x80 DUP10 ADD CALLDATALOAD SWAP4 POP PUSH2 0x5987 PUSH1 0xA0 DUP11 ADD PUSH2 0x58D9 JUMP JUMPDEST SWAP3 POP PUSH1 0xC0 DUP10 ADD CALLDATALOAD PUSH8 0xFFFFFFFFFFFFFFFF DUP2 GT ISZERO PUSH2 0x59A2 JUMPI DUP3 DUP4 REVERT JUMPDEST PUSH2 0x59AE DUP12 DUP3 DUP13 ADD PUSH2 0x5892 JUMP JUMPDEST SWAP10 SWAP13 SWAP9 SWAP12 POP SWAP7 SWAP10 POP SWAP5 SWAP8 SWAP4 SWAP7 SWAP3 SWAP6 SWAP5 POP POP POP JUMP JUMPDEST PUSH1 0x0 DUP1 PUSH1 0x0 DUP1 PUSH1 0x0 DUP1 PUSH1 0x0 DUP1 PUSH1 0xE0 DUP10 DUP12 SUB SLT ISZERO PUSH2 0x59DD JUMPI DUP4 DUP5 REVERT JUMPDEST DUP9 CALLDATALOAD PUSH2 0x59E8 DUP2 PUSH2 0x5F0F JUMP JUMPDEST SWAP8 POP PUSH1 0x20 DUP10 ADD CALLDATALOAD PUSH2 0x59F8 DUP2 PUSH2 0x5F0F JUMP JUMPDEST SWAP7 POP PUSH1 0x40 DUP10 ADD CALLDATALOAD SWAP6 POP PUSH1 0x60 DUP10 ADD CALLDATALOAD SWAP5 POP PUSH1 0x80 DUP10 ADD CALLDATALOAD SWAP4 POP PUSH2 0x5987 PUSH1 0xA0 DUP11 ADD PUSH2 0x58D9 JUMP JUMPDEST PUSH1 0x0 DUP1 PUSH1 0x0 DUP1 PUSH1 0x0 DUP1 PUSH1 0x0 DUP1 PUSH1 0x0 PUSH2 0x100 DUP11 DUP13 SUB SLT ISZERO PUSH2 0x5A39 JUMPI DUP3 DUP4 REVERT JUMPDEST DUP10 CALLDATALOAD PUSH2 0x5A44 DUP2 PUSH2 0x5F0F JUMP JUMPDEST SWAP9 POP PUSH1 0x20 DUP11 ADD CALLDATALOAD PUSH2 0x5A54 DUP2 PUSH2 0x5F0F JUMP JUMPDEST SWAP8 POP PUSH1 0x40 DUP11 ADD CALLDATALOAD SWAP7 POP PUSH1 0x60 DUP11 ADD CALLDATALOAD SWAP6 POP PUSH1 0x80 DUP11 ADD CALLDATALOAD SWAP5 POP PUSH2 0x5A77 PUSH1 0xA0 DUP12 ADD PUSH2 0x58D9 JUMP JUMPDEST SWAP4 POP PUSH2 0x5A85 PUSH1 0xC0 DUP12 ADD PUSH2 0x58D9 JUMP JUMPDEST SWAP3 POP PUSH1 0xE0 DUP11 ADD CALLDATALOAD PUSH8 0xFFFFFFFFFFFFFFFF DUP2 GT ISZERO PUSH2 0x5AA0 JUMPI DUP2 DUP3 REVERT JUMPDEST PUSH2 0x5AAC DUP13 DUP3 DUP14 ADD PUSH2 0x5892 JUMP JUMPDEST SWAP2 POP DUP1 SWAP4 POP POP DUP1 SWAP2 POP POP SWAP3 SWAP6 SWAP9 POP SWAP3 SWAP6 SWAP9 POP SWAP3 SWAP6 SWAP9 JUMP JUMPDEST PUSH1 0x0 PUSH1 0x20 DUP1 DUP4 DUP6 SUB SLT ISZERO PUSH2 0x5AD5 JUMPI DUP2 DUP3 REVERT JUMPDEST DUP3 MLOAD PUSH8 0xFFFFFFFFFFFFFFFF DUP1 DUP3 GT ISZERO PUSH2 0x5AEC JUMPI DUP4 DUP5 REVERT JUMPDEST DUP2 DUP6 ADD SWAP2 POP DUP6 PUSH1 0x1F DUP4 ADD SLT PUSH2 0x5AFF JUMPI DUP4 DUP5 REVERT JUMPDEST DUP2 MLOAD PUSH2 0x5B0D PUSH2 0x5769 DUP3 PUSH2 0x5EF1 JUMP JUMPDEST DUP2 DUP2 MSTORE DUP5 DUP2 ADD SWAP1 DUP5 DUP7 ADD DUP8 JUMPDEST DUP5 DUP2 LT ISZERO PUSH2 0x5BC2 JUMPI DUP2 MLOAD DUP8 ADD PUSH1 0x80 DUP2 DUP14 SUB PUSH1 0x1F NOT ADD SLT ISZERO PUSH2 0x5B38 JUMPI DUP10 DUP11 REVERT JUMPDEST PUSH1 0x40 DUP1 MLOAD PUSH1 0x80 DUP2 ADD DUP2 DUP2 LT DUP11 DUP3 GT OR ISZERO PUSH2 0x5B4E JUMPI INVALID JUMPDEST DUP3 MSTORE DUP3 DUP12 ADD MLOAD DUP10 DUP2 GT ISZERO PUSH2 0x5B60 JUMPI DUP13 DUP14 REVERT JUMPDEST PUSH2 0x5B6E DUP16 DUP14 DUP4 DUP8 ADD ADD PUSH2 0x5749 JUMP JUMPDEST DUP3 MSTORE POP DUP2 DUP4 ADD MLOAD DUP10 DUP2 GT ISZERO PUSH2 0x5B81 JUMPI DUP13 DUP14 REVERT JUMPDEST PUSH2 0x5B8F DUP16 DUP14 DUP4 DUP8 ADD ADD PUSH2 0x57BE JUMP JUMPDEST DUP13 DUP4 ADD MSTORE POP PUSH1 0x60 DUP4 ADD MLOAD DUP3 DUP3 ADD MSTORE PUSH2 0x5BA9 PUSH1 0x80 DUP5 ADD PUSH2 0x573E JUMP JUMPDEST PUSH1 0x60 DUP3 ADD MSTORE DUP7 MSTORE POP POP SWAP3 DUP8 ADD SWAP3 SWAP1 DUP8 ADD SWAP1 PUSH1 0x1 ADD PUSH2 0x5B19 JUMP JUMPDEST POP SWAP1 SWAP10 SWAP9 POP POP POP POP POP POP POP POP POP JUMP JUMPDEST PUSH1 0x0 PUSH1 0x20 DUP3 DUP5 SUB SLT ISZERO PUSH2 0x5BE2 JUMPI DUP1 DUP2 REVERT JUMPDEST POP MLOAD SWAP2 SWAP1 POP JUMP JUMPDEST PUSH1 0x0 DUP1 PUSH1 0x40 DUP4 DUP6 SUB SLT ISZERO PUSH2 0x5BFB JUMPI DUP2 DUP3 REVERT JUMPDEST POP POP DUP1 MLOAD PUSH1 0x20 SWAP1 SWAP2 ADD MLOAD SWAP1 SWAP3 SWAP1 SWAP2 POP JUMP JUMPDEST PUSH1 0x0 DUP2 MLOAD DUP1 DUP5 MSTORE PUSH1 0x20 DUP1 DUP6 ADD SWAP5 POP DUP1 DUP5 ADD DUP4 JUMPDEST DUP4 DUP2 LT ISZERO PUSH2 0x5C3B JUMPI DUP2 MLOAD DUP8 MSTORE SWAP6 DUP3 ADD SWAP6 SWAP1 DUP3 ADD SWAP1 PUSH1 0x1 ADD PUSH2 0x5C1F JUMP JUMPDEST POP SWAP5 SWAP6 SWAP5 POP POP POP POP POP JUMP JUMPDEST PUSH1 0x0 DUP3 DUP5 MSTORE DUP3 DUP3 PUSH1 0x20 DUP7 ADD CALLDATACOPY DUP1 PUSH1 0x20 DUP5 DUP7 ADD ADD MSTORE PUSH1 0x20 PUSH1 0x1F NOT PUSH1 0x1F DUP6 ADD AND DUP6 ADD ADD SWAP1 POP SWAP4 SWAP3 POP POP POP JUMP JUMPDEST PUSH1 0x1 PUSH1 0x1 PUSH1 0xA0 SHL SUB SWAP2 SWAP1 SWAP2 AND DUP2 MSTORE PUSH1 0x20 ADD SWAP1 JUMP JUMPDEST PUSH1 0x1 PUSH1 0x1 PUSH1 0xA0 SHL SUB SWAP3 DUP4 AND DUP2 MSTORE SWAP2 AND PUSH1 0x20 DUP3 ADD MSTORE PUSH1 0x40 ADD SWAP1 JUMP JUMPDEST PUSH1 0x1 PUSH1 0x1 PUSH1 0xA0 SHL SUB SWAP4 DUP5 AND DUP2 MSTORE SWAP2 SWAP1 SWAP3 AND PUSH1 0x20 DUP3 ADD MSTORE PUSH1 0x40 DUP2 ADD SWAP2 SWAP1 SWAP2 MSTORE PUSH1 0x60 ADD SWAP1 JUMP JUMPDEST PUSH1 0x1 PUSH1 0x1 PUSH1 0xA0 SHL SUB SWAP5 DUP6 AND DUP2 MSTORE SWAP3 SWAP1 SWAP4 AND PUSH1 0x20 DUP4 ADD MSTORE PUSH1 0x40 DUP3 ADD MSTORE PUSH1 0x60 DUP2 ADD SWAP2 SWAP1 SWAP2 MSTORE PUSH1 0x80 ADD SWAP1 JUMP JUMPDEST PUSH1 0x0 PUSH1 0x1 DUP1 PUSH1 0xA0 SHL SUB DUP1 DUP11 AND DUP4 MSTORE DUP1 DUP10 AND PUSH1 0x20 DUP5 ADD MSTORE POP DUP7 PUSH1 0x40 DUP4 ADD MSTORE DUP6 PUSH1 0x60 DUP4 ADD MSTORE DUP5 PUSH1 0x80 DUP4 ADD MSTORE PUSH1 0xC0 PUSH1 0xA0 DUP4 ADD MSTORE PUSH2 0x5D29 PUSH1 0xC0 DUP4 ADD DUP5 DUP7 PUSH2 0x5C46 JUMP JUMPDEST SWAP10 SWAP9 POP POP POP POP POP POP POP POP POP JUMP JUMPDEST PUSH1 0x1 PUSH1 0x1 PUSH1 0xA0 SHL SUB SWAP3 SWAP1 SWAP3 AND DUP3 MSTORE PUSH1 0x20 DUP3 ADD MSTORE PUSH1 0x40 ADD SWAP1 JUMP JUMPDEST PUSH1 0x1 PUSH1 0x1 PUSH1 0xA0 SHL SUB SWAP4 SWAP1 SWAP4 AND DUP4 MSTORE PUSH1 0x20 DUP4 ADD SWAP2 SWAP1 SWAP2 MSTORE PUSH1 0x40 DUP3 ADD MSTORE PUSH1 0x60 ADD SWAP1 JUMP JUMPDEST PUSH1 0x0 PUSH1 0x1 DUP1 PUSH1 0xA0 SHL SUB DUP8 AND DUP3 MSTORE DUP6 PUSH1 0x20 DUP4 ADD MSTORE DUP5 PUSH1 0x40 DUP4 ADD MSTORE PUSH1 0x80 PUSH1 0x60 DUP4 ADD MSTORE PUSH2 0x5D9E PUSH1 0x80 DUP4 ADD DUP5 DUP7 PUSH2 0x5C46 JUMP JUMPDEST SWAP8 SWAP7 POP POP POP POP POP POP POP JUMP JUMPDEST PUSH1 0x0 PUSH1 0x40 DUP3 MSTORE PUSH2 0x5DBC PUSH1 0x40 DUP4 ADD DUP6 PUSH2 0x5C0C JUMP JUMPDEST DUP3 DUP2 SUB PUSH1 0x20 DUP5 ADD MSTORE PUSH2 0xD70 DUP2 DUP6 PUSH2 0x5C0C JUMP JUMPDEST PUSH1 0x20 DUP1 DUP3 MSTORE PUSH1 0xB SWAP1 DUP3 ADD MSTORE PUSH11 0x4554482042616C616E6365 PUSH1 0xA8 SHL PUSH1 0x40 DUP3 ADD MSTORE PUSH1 0x60 ADD SWAP1 JUMP JUMPDEST PUSH1 0x20 DUP1 DUP3 MSTORE PUSH1 0xD SWAP1 DUP3 ADD MSTORE PUSH13 0x92DCECC2D8D2C840D2DCC8CAF PUSH1 0x9B SHL PUSH1 0x40 DUP3 ADD MSTORE PUSH1 0x60 ADD SWAP1 JUMP JUMPDEST PUSH1 0x20 DUP1 DUP3 MSTORE PUSH1 0xC SWAP1 DUP3 ADD MSTORE PUSH12 0x4D6178204361706163697479 PUSH1 0xA0 SHL PUSH1 0x40 DUP3 ADD MSTORE PUSH1 0x60 ADD SWAP1 JUMP JUMPDEST PUSH1 0x20 DUP1 DUP3 MSTORE PUSH1 0xA SWAP1 DUP3 ADD MSTORE PUSH10 0x4D696E20426F72726F77 PUSH1 0xB0 SHL PUSH1 0x40 DUP3 ADD MSTORE PUSH1 0x60 ADD SWAP1 JUMP JUMPDEST PUSH2 0xFFFF SWAP4 SWAP1 SWAP4 AND DUP4 MSTORE PUSH1 0x1 PUSH1 0x1 PUSH1 0xA0 SHL SUB SWAP2 SWAP1 SWAP2 AND PUSH1 0x20 DUP4 ADD MSTORE PUSH1 0x40 DUP3 ADD MSTORE PUSH1 0x60 ADD SWAP1 JUMP JUMPDEST SWAP1 DUP2 MSTORE PUSH1 0x20 ADD SWAP1 JUMP JUMPDEST SWAP2 DUP3 MSTORE PUSH1 0x20 DUP3 ADD MSTORE PUSH1 0x40 ADD SWAP1 JUMP JUMPDEST SWAP3 DUP4 MSTORE PUSH1 0x20 DUP4 ADD SWAP2 SWAP1 SWAP2 MSTORE PUSH1 0x40 DUP3 ADD MSTORE PUSH1 0x60 ADD SWAP1 JUMP JUMPDEST SWAP2 DUP3 MSTORE PUSH1 0x1 PUSH1 0x1 PUSH1 0x50 SHL SUB AND PUSH1 0x20 DUP3 ADD MSTORE PUSH1 0x40 ADD SWAP1 JUMP JUMPDEST PUSH1 0x40 MLOAD DUP2 DUP2 ADD PUSH8 0xFFFFFFFFFFFFFFFF DUP2 GT DUP3 DUP3 LT OR ISZERO PUSH2 0x5EE9 JUMPI INVALID JUMPDEST PUSH1 0x40 MSTORE SWAP2 SWAP1 POP JUMP JUMPDEST PUSH1 0x0 PUSH8 0xFFFFFFFFFFFFFFFF DUP3 GT ISZERO PUSH2 0x5F05 JUMPI INVALID JUMPDEST POP PUSH1 0x20 SWAP1 DUP2 MUL ADD SWAP1 JUMP JUMPDEST PUSH1 0x1 PUSH1 0x1 PUSH1 0xA0 SHL SUB DUP2 AND DUP2 EQ PUSH2 0x5F24 JUMPI PUSH1 0x0 DUP1 REVERT JUMPDEST POP JUMP INVALID 0x4A CODECOPY 0xDC MOD 0xD4 0xC0 0xDB 0xC6 0x4B PUSH17 0xAF90FD698A233A518AA5D07E595D983B8C SDIV 0x26 0xC8 0xF7 0xFB 0xC3 0xD5 DUP2 PUSH9 0xC5AE7397731D063D5B 0xBF RETURNDATASIZE PUSH6 0x7854427343F4 0xC0 DUP4 0x24 0xF PUSH27 0xACAA2D0F62A2646970667358221220E0C7394CD00C763261E9C495 0xA7 0xC SWAP5 0xB9 BALANCE 0xE2 ORIGIN DUP5 0xB6 PUSH27 0xF01F0DEA966B8B772AB964736F6C63430007060033000000000000 ","sha1":"6845d5950a2c9d008244af4426428414cf87f235","source":"// SPDX-License-Identifier: BSUL-1.1\npragma solidity =0.7.6;\npragma abicoder v2;\n\nimport {\n    VaultAccount,\n    VaultState,\n    PrimeRate,\n    VaultConfig\n} from \"../../global/Types.sol\";\nimport {Constants} from \"../../global/Constants.sol\";\nimport {SafeUint256} from \"../../math/SafeUint256.sol\";\nimport {SafeInt256} from \"../../math/SafeInt256.sol\";\n\nimport {Emitter} from \"../../internal/Emitter.sol\";\nimport {PrimeRateLib} from \"../../internal/pCash/PrimeRateLib.sol\";\nimport {VaultConfiguration} from \"../../internal/vaults/VaultConfiguration.sol\";\nimport {VaultAccountLib} from \"../../internal/vaults/VaultAccount.sol\";\nimport {VaultValuation} from \"../../internal/vaults/VaultValuation.sol\";\nimport {VaultStateLib, VaultState} from \"../../internal/vaults/VaultState.sol\";\n\nimport {ActionGuards} from \"./ActionGuards.sol\";\nimport {TradingAction} from \"./TradingAction.sol\";\nimport {IVaultAccountAction, IVaultAccountHealth} from \"../../../interfaces/notional/IVaultController.sol\";\n\ncontract VaultAccountAction is ActionGuards, IVaultAccountAction {\n    using VaultConfiguration for VaultConfig;\n    using VaultAccountLib for VaultAccount;\n    using VaultStateLib for VaultState;\n    using PrimeRateLib for PrimeRate;\n    using SafeInt256 for int256;\n    using SafeUint256 for uint256;\n\n    /// @notice Settles a matured vault account by transforming it from an fCash maturity into\n    /// a prime cash account. This method is not authenticated, anyone can settle a vault account\n    /// without permission. Generally speaking, this action is economically equivalent no matter\n    /// when it is called. In some edge conditions when the vault is holding prime cash, it is\n    /// advantageous for the vault account to have this called sooner. All vault account actions\n    /// will first settle the vault account before taking any further actions.\n    /// @param account the address to settle\n    /// @param vault the vault the account is in\n    function settleVaultAccount(address account, address vault) external override nonReentrant {\n        requireValidAccount(account);\n        require(account != vault);\n\n        VaultConfig memory vaultConfig = VaultConfiguration.getVaultConfigStateful(vault);\n        VaultAccount memory vaultAccount = VaultAccountLib.getVaultAccount(account, vaultConfig);\n        \n        // Require that the account settled, otherwise we may leave the account in an unintended\n        // state in this method because we allow it to skip the min borrow check in the next line.\n        require(vaultAccount.settleVaultAccount(vaultConfig));\n\n        vaultAccount.accruePrimeCashFeesToDebt(vaultConfig);\n        vaultAccount.setVaultAccountInSettlement(vaultConfig);\n    }\n\n    /// @notice Borrows a specified amount of fCash in the vault's borrow currency and deposits it\n    /// all plus the depositAmountExternal into the vault to mint strategy tokens.\n    /// @param account the address that will enter the vault\n    /// @param vault the vault to enter\n    /// @param depositAmountExternal some amount of additional collateral in the borrowed currency\n    /// to be transferred to vault\n    /// @param maturity the maturity to borrow at\n    /// @param borrowAmount amount to borrow, for fCash maturities this is the fCash amount. For pCash\n    /// maturities this is the underlying borrowed.\n    /// @param maxBorrowRate maximum interest rate to borrow at, only applies as a slippage limit for\n    /// fCash maturities\n    /// @param vaultData additional data to pass to the vault contract\n    /// @return vaultSharesAdded the total vault shares tokens added to the maturity. Allows enterVault\n    /// to be used by off-chain methods to get an accurate simulation of the strategy tokens minted.\n    function enterVault(\n        address account,\n        address vault,\n        uint256 depositAmountExternal,\n        uint256 maturity,\n        uint256 borrowAmount,\n        uint32 maxBorrowRate,\n        bytes calldata vaultData\n    ) external payable override nonReentrant returns (uint256 vaultSharesAdded) { \n        // Ensure that system level accounts cannot enter vaults\n        requireValidAccount(account);\n        require(account != vault);\n\n        VaultConfig memory vaultConfig = VaultConfiguration.getVaultConfigStateful(vault);\n        vaultConfig.authorizeCaller(account, VaultConfiguration.ONLY_VAULT_ENTRY);\n\n        // If the vault allows further re-entrancy then set the status back to the default\n        if (vaultConfig.getFlag(VaultConfiguration.ALLOW_REENTRANCY)) {\n            reentrancyStatus = _NOT_ENTERED;\n        }\n\n        // Vaults cannot be entered if they are paused or matured\n        require(vaultConfig.getFlag(VaultConfiguration.ENABLED));\n        require(block.timestamp < maturity);\n\n        VaultAccount memory vaultAccount = VaultAccountLib.getVaultAccount(account, vaultConfig);\n        vaultAccount.settleAccountOrAccruePrimeCashFees(vaultConfig);\n\n        // Accounts can only call enter vault when establishing a new account or increasing an existing\n        // position. Accounts that have matured fCash positions can increase their prime cash position.\n        require(vaultAccount.maturity == 0 || vaultAccount.maturity == maturity); // dev: cannot enter with matured position\n\n        // Deposits some amount of tokens into as margin for the vault. The tokens are first transferred into Notional\n        // and then withdrawn as prime cash when entering the vault\n        vaultConfig.depositMarginForVault(vaultAccount, depositAmountExternal);\n\n        vaultSharesAdded = vaultAccount.borrowAndEnterVault(\n            vaultConfig, maturity, borrowAmount, maxBorrowRate, vaultData, 0\n        );\n\n        IVaultAccountHealth(address(this)).checkVaultAccountCollateralRatio(vault, account);\n    }\n\n    /// @notice Re-enters the vault at a different maturity. The account's existing borrow position will be closed\n    /// and a new borrow position at the specified maturity will be opened. Strategy token holdings will transfer\n    /// to the new maturity. Accounts can roll to longer or shorter dated maturities.\n    /// @param account the address that will reenter the vault\n    /// @param vault the vault to reenter\n    /// @param newBorrowAmount amount of fCash to borrow in the next maturity\n    /// @param maturity new maturity to borrow at\n    /// @param depositAmountExternal amount to deposit into the new maturity\n    /// @param minLendRate slippage protection for repaying debts\n    /// @param maxBorrowRate slippage protection for new borrow position\n    /// @return vaultSharesAdded the total strategy tokens added to the maturity, including any tokens\n    /// rolled from the previous maturity. Allows rollVaultPosition to be used by off-chain methods to get\n    /// an accurate simulation of the strategy tokens minted.\n    function rollVaultPosition(\n        address account,\n        address vault,\n        uint256 newBorrowAmount,\n        uint256 maturity,\n        uint256 depositAmountExternal,\n        uint32 minLendRate,\n        uint32 maxBorrowRate,\n        bytes calldata enterVaultData\n    ) external payable override nonReentrant returns (uint256 vaultSharesAdded) {\n        VaultConfig memory vaultConfig = VaultConfiguration.getVaultConfigStateful(vault);\n        vaultConfig.authorizeCaller(account, VaultConfiguration.ONLY_VAULT_ROLL);\n\n        // If the vault allows further re-entrancy then set the status back to the default\n        if (vaultConfig.getFlag(VaultConfiguration.ALLOW_REENTRANCY)) {\n            reentrancyStatus = _NOT_ENTERED;\n        }\n\n        // If the vault account has matured, this will return a vault account in the prime cash\n        // maturity. The vault account may have some temporary cash balance that will be applied\n        // to lending or borrowing.\n        VaultAccount memory vaultAccount = VaultAccountLib.getVaultAccount(account, vaultConfig);\n        vaultAccount.settleAccountOrAccruePrimeCashFees(vaultConfig);\n\n        // Cannot roll unless all of these requirements are met\n        require(vaultConfig.getFlag(VaultConfiguration.ENABLED));\n        require(vaultConfig.getFlag(VaultConfiguration.ALLOW_ROLL_POSITION));\n        // Must borrow into the new maturity, otherwise account should exit\n        require(newBorrowAmount > 0);\n        // Cannot roll into the existing maturity, after settlement this will be the prime cash maturity\n        require(vaultAccount.maturity != maturity);\n        require(block.timestamp < maturity); // dev: cannot roll to matured\n\n        // VaultState must be loaded after settleAccountOrAccruePrimeCashFees\n        VaultState memory vaultState = VaultStateLib.getVaultState(vaultConfig, vaultAccount.maturity);\n        // Exit the maturity pool by removing all the vault shares.\n        vaultSharesAdded = vaultAccount.vaultShares;\n        vaultState.exitMaturity(vaultAccount, vaultConfig, vaultAccount.vaultShares);\n\n        // Exit the vault first and debit the temporary cash balance with the cost to exit\n        vaultAccount.lendToExitVault(\n            vaultConfig,\n            vaultState,\n            vaultAccount.accountDebtUnderlying.neg(), // must fully exit the fCash position\n            minLendRate,\n            block.timestamp\n        );\n\n        // This should never be the case for a healthy vault account due to the mechanics of exiting the vault\n        // above but we check it for safety here.\n        require(vaultAccount.accountDebtUnderlying == 0);\n        vaultState.setVaultState(vaultConfig);\n\n        // Takes a deposit from the user as repayment for the lending, allows an account to roll their position\n        // even if they are close to the max borrow capacity.\n        vaultConfig.depositMarginForVault(vaultAccount, depositAmountExternal);\n\n        // Enters the vault at the longer dated maturity. The account is required to borrow at this\n        // point due  to the requirement earlier in this method, they cannot enter the maturity\n        // with below minAccountBorrowSize\n        vaultSharesAdded = vaultAccount.borrowAndEnterVault(\n            vaultConfig,\n            maturity, // This is the new maturity to enter\n            newBorrowAmount,\n            maxBorrowRate,\n            enterVaultData,\n            vaultSharesAdded\n        );\n\n        // emit VaultRollPosition(vault, account, maturity, newBorrowAmount);\n        IVaultAccountHealth(address(this)).checkVaultAccountCollateralRatio(vault, account);\n    }\n\n    /// @notice Allows an account to withdraw their position from the vault at any time. Will\n    /// redeem some number of vault shares to the borrow currency and close the borrow position by\n    /// lending. Any shortfall in cash from lending will be transferred from the account, any excess\n    /// profits will be transferred to the account.\n    /// @param account the address that will exit the vault\n    /// @param vault the vault to enter\n    /// @param receiver the address that will receive profits\n    /// @param vaultSharesToRedeem amount of vault tokens to exit, only relevant when exiting pre-maturity\n    /// @param lendAmount amount of fCash to lend if fixed, amount of underlying to lend if in pCash\n    /// @param minLendRate the minimum rate to lend at\n    /// @param exitVaultData passed to the vault during exit\n    /// @return underlyingToReceiver amount of underlying tokens returned to the receiver on exit\n    function exitVault(\n        address account,\n        address vault,\n        address receiver,\n        uint256 vaultSharesToRedeem,\n        uint256 lendAmount,\n        uint32 minLendRate,\n        bytes calldata exitVaultData\n    ) external payable override nonReentrant returns (uint256 underlyingToReceiver) {\n        VaultConfig memory vaultConfig = VaultConfiguration.getVaultConfigStateful(vault);\n        vaultConfig.authorizeCaller(account, VaultConfiguration.ONLY_VAULT_EXIT);\n\n        // If the vault allows further re-entrancy then set the status back to the default\n        if (vaultConfig.getFlag(VaultConfiguration.ALLOW_REENTRANCY)) {\n            reentrancyStatus = _NOT_ENTERED;\n        }\n\n        VaultAccount memory vaultAccount = VaultAccountLib.getVaultAccount(account, vaultConfig);\n        require(vaultAccount.lastUpdateBlockTime + Constants.VAULT_ACCOUNT_MIN_TIME <= block.timestamp);\n\n        // Do this after the check above to ensure that the lastUpdateBlockTime is enforced\n        vaultAccount.settleAccountOrAccruePrimeCashFees(vaultConfig);\n\n        // Vault state must be loaded after settleAccountOrAccruePrimeCashFees\n        VaultState memory vaultState = VaultStateLib.getVaultState(vaultConfig, vaultAccount.maturity);\n        if (vaultAccount.maturity == Constants.PRIME_CASH_VAULT_MATURITY && lendAmount == type(uint256).max) {\n            // Since prime cash values are rebasing it is difficult to calculate a full repayment off chain. If\n            // the vault account is in the prime cash maturity the uint256 max value signifies a full repayment\n            lendAmount = vaultAccount.accountDebtUnderlying.neg().toUint();\n        }\n\n        // Puts a negative cash balance on the vault's temporary cash balance\n        vaultAccount.lendToExitVault(\n            vaultConfig, vaultState, lendAmount.toInt(), minLendRate, block.timestamp\n        );\n        vaultState.exitMaturity(vaultAccount, vaultConfig, vaultSharesToRedeem);\n\n        if (vaultAccount.tempCashBalance > 0) {\n            Emitter.emitTransferPrimeCash(\n                vault, receiver, vaultConfig.borrowCurrencyId, vaultAccount.tempCashBalance\n            );\n\n            underlyingToReceiver = VaultConfiguration.transferFromNotional(\n                receiver, vaultConfig.borrowCurrencyId, vaultAccount.tempCashBalance, vaultConfig.primeRate, false\n            );\n\n            vaultAccount.tempCashBalance = 0;\n        }\n\n        // If insufficient strategy tokens are redeemed (or if it is set to zero), then\n        // redeem with debt repayment will recover the repayment from the account's wallet\n        // directly.\n        underlyingToReceiver = underlyingToReceiver.add(vaultConfig.redeemWithDebtRepayment(\n            vaultAccount, receiver, vaultSharesToRedeem, exitVaultData\n        ));\n\n        // Set the vault state after redemption completes\n        vaultState.setVaultState(vaultConfig);\n\n        if (vaultAccount.accountDebtUnderlying == 0 && vaultAccount.vaultShares == 0) {\n            // If the account has no position in the vault at this point, set the maturity to zero as well\n            vaultAccount.maturity = 0;\n        }\n        vaultAccount.setVaultAccount({vaultConfig: vaultConfig, checkMinBorrow: true, emitEvents: true});\n\n        // It's possible that the user redeems more vault shares than they lend (it is not always the case\n        // that they will be increasing their collateral ratio here, so we check that this is the case). No\n        // need to check if the account has exited in full (maturity == 0).\n        if (vaultAccount.maturity != 0) {\n            IVaultAccountHealth(address(this)).checkVaultAccountCollateralRatio(vault, account);\n        }\n    }\n\n    function getLibInfo() external pure returns (address) {\n        return address(TradingAction);\n    }\n}\n","sourcePath":"contracts/external/actions/VaultAccountAction.sol","type":"contract","deployment":{"address":"0xC799d098669623d631e1F43659Bf51E776e23B3A","chainid":"42161","blockHeight":164627430}}