{"abi":[{"inputs":[{"internalType":"address","name":"account","type":"address"},{"internalType":"uint16","name":"currencyId","type":"uint16"},{"internalType":"uint256","name":"amountExternalPrecision","type":"uint256"}],"name":"depositAssetToken","outputs":[{"internalType":"uint256","name":"","type":"uint256"}],"stateMutability":"nonpayable","type":"function"},{"inputs":[{"internalType":"address","name":"account","type":"address"},{"internalType":"uint16","name":"currencyId","type":"uint16"},{"internalType":"uint256","name":"amountExternalPrecision","type":"uint256"}],"name":"depositUnderlyingToken","outputs":[{"internalType":"uint256","name":"","type":"uint256"}],"stateMutability":"payable","type":"function"},{"inputs":[{"internalType":"uint16","name":"currencyId","type":"uint16"}],"name":"enableBitmapCurrency","outputs":[],"stateMutability":"nonpayable","type":"function"},{"inputs":[{"internalType":"bool","name":"allowPrimeBorrow","type":"bool"}],"name":"enablePrimeBorrow","outputs":[],"stateMutability":"nonpayable","type":"function"},{"inputs":[],"name":"getLibInfo","outputs":[{"internalType":"address","name":"","type":"address"},{"internalType":"address","name":"","type":"address"},{"internalType":"address","name":"","type":"address"}],"stateMutability":"pure","type":"function"},{"inputs":[{"internalType":"address","name":"redeemer","type":"address"},{"internalType":"uint16","name":"currencyId","type":"uint16"},{"internalType":"uint96","name":"tokensToRedeem_","type":"uint96"}],"name":"nTokenRedeem","outputs":[{"internalType":"int256","name":"","type":"int256"}],"stateMutability":"nonpayable","type":"function"},{"inputs":[],"name":"owner","outputs":[{"internalType":"address","name":"","type":"address"}],"stateMutability":"view","type":"function"},{"inputs":[],"name":"pauseGuardian","outputs":[{"internalType":"address","name":"","type":"address"}],"stateMutability":"view","type":"function"},{"inputs":[],"name":"pauseRouter","outputs":[{"internalType":"address","name":"","type":"address"}],"stateMutability":"view","type":"function"},{"inputs":[{"internalType":"address","name":"account","type":"address"}],"name":"settleAccount","outputs":[{"internalType":"bool","name":"","type":"bool"}],"stateMutability":"nonpayable","type":"function"},{"inputs":[{"internalType":"uint16","name":"currencyId","type":"uint16"},{"internalType":"uint88","name":"amountInternalPrecision","type":"uint88"},{"internalType":"bool","name":"redeemToUnderlying","type":"bool"}],"name":"withdraw","outputs":[{"internalType":"uint256","name":"","type":"uint256"}],"stateMutability":"nonpayable","type":"function"},{"inputs":[{"internalType":"uint16","name":"currencyId","type":"uint16"},{"internalType":"address","name":"account","type":"address"},{"internalType":"address","name":"receiver","type":"address"},{"internalType":"address","name":"spender","type":"address"},{"internalType":"uint88","name":"withdrawAmountPrimeCash","type":"uint88"}],"name":"withdrawViaProxy","outputs":[{"internalType":"uint256","name":"","type":"uint256"}],"stateMutability":"nonpayable","type":"function"}],"bytecode":"608060405234801561001057600080fd5b50614cf7806100206000396000f3fe6080604052600436106100a75760003560e01c80638da5cb5b116100645780638da5cb5b1461016e578063912e33c7146101835780639c979450146101a3578063b8a69455146101c3578063c4c96dae146101e3578063f667f89714610207576100a7565b806302f332e8146100ac57806324a3d622146100e25780632890fb651461010457806356a273dd1461011757806361d0d61c146101375780638246336714610159575b600080fd5b3480156100b857600080fd5b506100cc6100c7366004614823565b610234565b6040516100d991906149a8565b60405180910390f35b3480156100ee57600080fd5b506100f76103b6565b6040516100d99190614883565b6100cc610112366004614510565b6103c5565b34801561012357600080fd5b506100cc610132366004614550565b610469565b34801561014357600080fd5b506101576101523660046146c4565b610647565b005b34801561016557600080fd5b506100f7610681565b34801561017a57600080fd5b506100f7610690565b34801561018f57600080fd5b506100cc61019e3660046147b7565b6106a7565b3480156101af57600080fd5b506101576101be36600461479b565b6108dc565b3480156101cf57600080fd5b506100cc6101de366004614510565b610929565b3480156101ef57600080fd5b506101f86109a3565b6040516100d993929190614897565b34801561021357600080fd5b506102276102223660046144f4565b6109e7565b6040516100d9919061499d565b60006002600a54141561024657600080fd5b6002600a5561ffff841660011461027d578161027d5760405162461bcd60e51b815260040161027490614ad1565b60405180910390fd5b600061028833610a1b565b5090506102936141a2565b61029f81338885610ae0565b6001600160581b0385811614156102d85760008160200151136102c157600080fd5b6102ce8160200151610b01565b60808201526102f0565b6102ea856001600160581b0316610b01565b60808201525b60006102ff8233858815610b15565b905061030b8333610b31565b60208301516001600160f81b0319161561038757604051636ccc642f60e01b815273__FreeCollateralExternal________________90636ccc642f90610356903390600401614883565b60006040518083038186803b15801561036e57600080fd5b505af4158015610382573d6000803e3d6000fd5b505050505b600081131561039557600080fd5b6103a66103a182610b01565b610c4e565b6001600a55979650505050505050565b6002546001600160a01b031681565b60006002600a5414156103d757600080fd5b6002600a55333014156103e957600080fd5b6103f284610c61565b60006103fd85610cdc565b90506104076141a2565b61041381878785610ae0565b600061042c3361042287610d8a565b8491906000610da0565b90506000811361043b57600080fd5b610446828885610df2565b6104508388610b31565b6101208201516104609087610e11565b6103a681610c4e565b60006002600a54141561047b57600080fd5b6002600a55336001600160a01b038516148061049657503330145b6104b25760405162461bcd60e51b815260040161027490614a7b565b6001600160601b03821660006104c786610a1b565b5090506104d26141a2565b6104de81888885610ae0565b82816040015112156105025760405162461bcd60e51b815260040161027490614bdf565b61050b83610b01565b60c0820152604051630e22aaa360e01b815260009073__nTokenRedeemAction____________________90630e22aaa39061054e908b908b908990600401614946565b60206040518083038186803b15801561056657600080fd5b505af415801561057a573d6000803e3d6000fd5b505050506040513d601f19601f8201168201806040525081019061059e91906146e0565b6060830181905290506105b2828985610df2565b6105bc8389610b31565b60208301516001600160f81b031916156103a657604051636ccc642f60e01b815273__FreeCollateralExternal________________90636ccc642f90610607908b90600401614883565b60006040518083038186803b15801561061f57600080fd5b505af4158015610633573d6000803e3d6000fd5b505050506001600a55979650505050505050565b3330141561065457600080fd5b61065d33610c61565b600061066833610a1b565b5082151560a0820152905061067d8133610b31565b5050565b6001546001600160a01b031681565b60005464010000000090046001600160a01b031681565b60006002600a5414156106b957600080fd5b6002600a5560006106c987610e54565b9050336001600160a01b038216146106e057600080fd5b6106e986610c61565b836001600160a01b0316866001600160a01b0316146107b157600061070c610e81565b6001600160a01b03808916600090815260209283526040808220928916825291835281812061ffff8c16825290925290205490506001600160581b0384168110156107695760405162461bcd60e51b815260040161027490614a4b565b836001600160581b0316810361077d610e81565b6001600160a01b03808a16600090815260209283526040808220928a16825291835281812061ffff8d168252909252902055505b60006107bc87610a1b565b5090506107c76141a2565b6107d381898b85610ae0565b8060200151856001600160581b031613156108005760405162461bcd60e51b815260040161027490614b08565b610812856001600160581b0316610b01565b60808201526000610827828a8a866001610e8e565b9050610833838a610b31565b60208301516001600160f81b031916156108af57604051636ccc642f60e01b815273__FreeCollateralExternal________________90636ccc642f9061087e908c90600401614883565b60006040518083038186803b15801561089657600080fd5b505af41580156108aa573d6000803e3d6000fd5b505050505b60008113156108bd57600080fd5b6108c96103a182610b01565b6001600a559a9950505050505050505050565b333014156108e957600080fd5b60005461ffff908116908216111561090057600080fd5b33600061090c82610a1b565b50905061091a818442610eab565b6109248183610b31565b505050565b60006002600a54141561093b57600080fd5b6002600a553330141561094d57600080fd5b336001600160a01b0385161461096257600080fd5b61096b84610c61565b600061097685610cdc565b90506109806141a2565b61098c81878785610ae0565b600061042c8761099b87610d8a565b849190610fa3565b73__FreeCollateralExternal________________73__SettleAssetsExternal__________________73__nTokenRedeemAction____________________909192565b60006109f282610c61565b6000806109fe84610a1b565b915091508015610a1257610a128285610b31565b9150505b919050565b610a236141fe565b600080610a2f84610cdc565b9050610a3a8161107f565b15610ad4576040516337b5fc2160e11b815273__SettleAssetsExternal__________________90636f6bf84290610a7890879085906004016148d3565b60c06040518083038186803b158015610a9057600080fd5b505af4158015610aa4573d6000803e3d6000fd5b505050506040513d601f19601f82011682018060405250810190610ac891906146f8565b60019250925050610adb565b9150600090505b915091565b610ae9826110d3565b610120850152610afb848484846110e5565b50505050565b6000610b0f6000198361118d565b92915050565b6000610b26858586868660016111db565b90505b949350505050565b6000610b3b6113b2565b6001600160a01b03831660008181526020838152604080832088518154938a01518a84015160608c015160808d015160a08e015164ffffffffff1990981664ffffffffff9095169490941765ff00000000001916600160281b60f89490941c939093029290921766ff0000000000001916600160301b60ff909216919091021768ffff000000000000001916600160381b61ffff90921691909102177affffffffffffffffffffffffffffffffffff0000000000000000001916600160481b60709290921c919091021760ff60d81b1916600160d81b93151593909302929092179091555192935090917f6bd4b121bca854a191536a2ca891155c42ee2fb23f307fb34e8bc65cfcb5412e9190a2505050565b600080821215610c5d57600080fd5b5090565b6001600160a01b038116610c7457600080fd5b6001600160a01b038116610fee1415610c8c57600080fd5b6001600160a01b0381166105e71415610ca457600080fd5b6001600160a01b038116301415610cba57600080fd5b6000610cc5826113bf565b5050505061ffff1690508060001461067d57600080fd5b610ce46141fe565b6000610cee6113b2565b6001600160a01b03841660009081526020918252604090819020815160c081018352905464ffffffffff811682526001600160f81b0319600160281b820460f81b169382019390935260ff600160301b840481169282019290925261ffff600160381b84041660608201526001600160701b0319600160481b840460701b166080820152600160d81b90920416151560a0820152915050919050565b60006001600160ff1b03821115610c5d57600080fd5b600082610daf57506000610b29565b60008313610dbc57600080fd5b610dd28486600001518588610120015186611428565b6060870151909250610de59150826114ea565b6060860152949350505050565b608083015115610e0157600080fd5b610afb83838484600060016111db565b600080610e1e8484611500565b5050915091508160001415610e3457505061067d565b81811115610afb5760405162461bcd60e51b8152600401610274906149b1565b6000610e5e6115c5565b61ffff90921660009081526020929092525060409020546001600160a01b031690565b600080610b0f60236115ce565b6000610e9f868686868660016111db565b90505b95945050505050565b610eb4836115e7565b15610ed15760405162461bcd60e51b815260040161027490614b36565b8161ffff166000108015610eeb5750613fff61ffff831611155b610f075760405162461bcd60e51b815260040161027490614bb2565b604083015160ff1615610f2c5760405162461bcd60e51b815260040161027490614a1f565b60208301516001600160f81b03191615610f585760405162461bcd60e51b815260040161027490614b64565b610f6d8361ffff84166000600160fe1b6115f4565b61ffff821660608401526000610f82826117f3565b905064ffffffffff8110610f9557600080fd5b64ffffffffff169092525050565b600081610fb257506000611078565b60008213610fbf57600080fd5b6000610fd2856000015161ffff16611811565b80519091506001600160a01b0316610fe957600080fd5b600181606001516005811115610ffb57fe5b1480611016575060028160600151600581111561101457fe5b145b1561104e57845161012086015161103291839186908890611824565b606086015190925061104490836114ea565b6060860152611076565b60048160600151600581111561106057fe5b14156100a7576110738585856000610da0565b91505b505b9392505050565b60004261108b836115e7565b156110ac57611099816117f3565b835164ffffffffff16109150610a169050565b825164ffffffffff16158015906110cb5750825164ffffffffff168110155b915050610a16565b6110db614233565b610b0f82426118b5565b8161ffff1660001080156110ff5750613fff61ffff831611155b61110857600080fd5b61ffff821680855261111b908290611976565b1561114a576111308383866101200151611a00565b61010088015260e087015260408601526020850152611168565b6000602085018190526040850181905260e085018190526101008501525b50506000606083018190526080830181905260a0830181905260c09092019190915250565b8181026000198314156111bd578115806111af5750828282816111ac57fe5b05145b6111b857600080fd5b610b0f565b8215806111d25750818382816111cf57fe5b05145b610b0f57600080fd5b60008060006111fb88888b600001518c608001518d61012001518a611aba565b9250600061121a8a608001518b606001516114ea90919063ffffffff16565b90508480156112295750600081125b8015611244575060208a015160009061124290836114ea565b125b1561126f578660a0015161126a5760405162461bcd60e51b815260040161027490614aa8565b600191505b801561128e5760208a015161128490826114ea565b60208b0152600192505b5060a08901511515806112a4575060c089015115155b1561130d5760006112d48a60c001516112ce8c60a001518d604001516114ea90919063ffffffff16565b906114ea565b905060008112156112f75760405162461bcd60e51b815260040161027490614b8e565b6113028a8a83611b64565b5060408a0152600191505b811561133c5761133c888a600001518b602001518c604001518d60e001518e61010001518f6101200151611c5b565b885160208a01516113699161ffff169015158061135c575060408b015115155b889190600160fe1b6115f4565b60008960200151121561138f57602086018051600160f91b176001600160f81b03191690525b80156113a65788516101208a01516113a691611d96565b50509695505050505050565b600080610b0f60016115ce565b6000806000806000806113d0611dd9565b6001600160a01b039097166000908152602097909752505060409094205461ffff81169563ffffffff62010000830481169650600160301b830416945060ff600160501b8304169350600160581b90910460d01b9150565b600080600061143686610c4e565b90508061144a5760008092509250506114e0565b60006114598861ffff16611de6565b905060038160600151600581111561146d57fe5b14156114b4573482101561148d576114888983340387611df9565b6114ac565b3482146114ac5760405162461bcd60e51b8152600401610274906149da565b8693506114ce565b6114cb6114c682600001518b85611ec1565b610d8a565b93505b6114db898986848a61203f565b925050505b9550959350505050565b81810182811215600083121514610b0f57600080fd5b6000806000806000611510612086565b61ffff8716600090815260209190915260409020600181015490915061154290600160581b900463ffffffff16612093565b600182015490955061156c90606490611566908890600160781b900460ff166120a1565b906120c8565b8154909350600160281b90046001600160581b031661158e6103a189836120e7565b60018301549095506001600160581b03166000036115b76103a16115b28b84612136565b610b01565b935050505092959194509250565b600080610b0f60215b6000620f42408260268111156115e057fe5b0192915050565b6060015161ffff16151590565b8260001080156116065750613fff8311155b61160f57600080fd5b818015611623575082846060015161ffff16145b1561162d57610afb565b6080840151600090815b6001600160701b03198216156117a85760f082901c613fff16868114801561165c5750855b1561169457506080870180516001600160f01b0319861660109093029290921c919091176001600160701b031916905250610afb9050565b86811480156116a1575085155b156116f6576001600160f01b03198516199290921691600360fe1b83166116d4576010836001600160701b031916901b92505b506001600160701b031991821660109091021c91909117166080850152610afb565b86811180156117025750855b1561175c576080888101516001600160f01b031960f08a901b88178116601086021c9690961795911b161561173657600080fd5b506001600160701b03199182166001919091016010021c91909117166080850152610afb565b8681118015611769575085155b156117775750505050610afb565b506001600160f01b0319821660108281029190911c93909317929190911b6001600160801b03191690600101611637565b846117b557505050610afb565b600981106117c257600080fd5b6001600160f01b031960f087901b85171660109091021c919091176001600160701b03191660808601525050505050565b60006201518082101561180557600080fd5b50620151808106900390565b611819614254565b610b0f826000612187565b600061183586600001518486611ec1565b935060006118468661ffff16611de6565b9050600060028860600151600581111561185c57fe5b14156118765761186f6114c68988612221565b905061189c565b60018860600151600581111561188857fe5b14156100a75761186f6114c68984896122d2565b6118a9858883858861203f565b98975050505050505050565b6118bd614233565b60006118c884612492565b90508281600001511015611907576000806118e28661255a565b90506118f0868483886125d7565b909350915061190086838561267b565b5050611914565b8051831461191457600080fd5b604051806060016040528061193d6114c68460a001518560c001516120a190919063ffffffff16565b81526020016119606114c68460a001518560e001516120a190919063ffffffff16565b8152602001826060015181525091505092915050565b600081158015906119895750613fff8211155b61199257600080fd5b6080830151606084015161ffff168314156119b1576001915050610b0f565b6001600160701b03198116156119f65760f081901c613fff16838114156119e35750600160fe1b908116149050610b0f565b5060101b6001600160801b0319166119b1565b5060009392505050565b6000806000806000611a106128af565b6001600160a01b03891660009081526020828152604080832061ffff8c168452909152902080546001600160501b0381169650600160501b900463ffffffff1694509091508315611a7d578054611a7690600160701b900466ffffffffffffff16612093565b9250611a92565b8054600160701b900466ffffffffffffff1692505b8054611aad908890600160a81b9004600a90810b900b6128bc565b9550505093509350935093565b600083611ac957506000611b5a565b60008412611ad657600080fd5b6000611ae58661ffff16611de6565b9050611afa81611af586886120e7565b6128ea565b91506000611b0783610b01565b9050611b14878383612922565b600382606001516005811115611b2657fe5b1415611b3c57611b37888286611df9565b611b49565b8151611b49908983612a18565b611b56898885858961203f565b5050505b9695505050505050565b825160009042908290611b7a9061ffff16612a8f565b90506000611b8782612ab5565b505090506000611b9c838960c0015186612b11565b9050611baa88848389612bf4565b94506000611bb784612c6d565b90506001600160a01b03811615611c3f57806001600160a01b0316633f3ef50d898b60000151611bea8d60400151610c4e565b8b886040518663ffffffff1660e01b8152600401611c0c95949392919061496b565b600060405180830381600087803b158015611c2657600080fd5b505af1158015611c3a573d6000803e3d6000fd5b505050505b8515611c4f57611c4f8887612cdf565b50505050509392505050565b6000611c656128af565b6001600160a01b03891660009081526020828152604080832061ffff8c168452909152902090915084611ccd5766ffffffffffffff841115611ca657600080fd5b805466ffffffffffffff60701b1916600160701b66ffffffffffffff861602178155611ce7565b8054600160501b900463ffffffff168514611ce757600080fd5b611cf085612cfe565b815463ffffffff91909116600160501b0263ffffffff60501b19909116178155611d21611d1c87610c4e565b612d11565b815469ffffffffffffffffffff19166001600160501b039190911617808255611d6790611d629085908c908c90600160a81b9004600a90810b900b8c612d27565b612d4a565b8154600a9190910b6001600160581b0316600160a81b026001600160a81b039091161790555050505050505050565b600080611da38484611500565b9350935050508160001415611db957505061067d565b81811115610afb5760405162461bcd60e51b815260040161027490614c0c565b600080610b0f60026115ce565b611dee614254565b610b0f826001612187565b8015611e8b577382af49447d8a07e3bd95bd0d56f35241523fbab16001600160a01b031663d0e30db0836040518263ffffffff1660e01b81526004016000604051808303818588803b158015611e4e57600080fd5b505af1158015611e62573d6000803e3d6000fd5b5050505050611e867382af49447d8a07e3bd95bd0d56f35241523fbab18484612a18565b610924565b6040516001600160a01b0384169083156108fc029084906000818181858888f19350505050158015610afb573d6000803e3d6000fd5b600080846001600160a01b03166370a08231306040518263ffffffff1660e01b815260040180826001600160a01b0316815260200191505060206040518083038186803b158015611f1157600080fd5b505afa158015611f25573d6000803e3d6000fd5b505050506040513d6020811015611f3b57600080fd5b5051604080516323b872dd60e01b81526001600160a01b038781166004830152306024830152604482018790529151929350908716916323b872dd9160648082019260009290919082900301818387803b158015611f9857600080fd5b505af1158015611fac573d6000803e3d6000fd5b50505050611fb8612d7c565b6000856001600160a01b03166370a08231306040518263ffffffff1660e01b815260040180826001600160a01b0316815260200191505060206040518083038186803b15801561200757600080fd5b505afa15801561201b573d6000803e3d6000fd5b505050506040513d602081101561203157600080fd5b50519050611b5a8183612de9565b60008061204c8486612dfe565b90506120588382612e2e565b9150612065878784612e52565b612070868383612ed2565b835161207c9086612fde565b5095945050505050565b600080610b0f601d6115ce565b600881901c60ff9091161b90565b6000826120b057506000610b0f565b828202828482816120bd57fe5b041461107857600080fd5b60008082116120d657600080fd5b8183816120df57fe5b049392505050565b60008061211a6ec097ce7bc90715b34b9f100000000061211486600001518661118d90919063ffffffff16565b90613033565b90506000831261212a5780610b29565b610b2981600019613064565b60006001821261214557600080fd5b8161215257506000610b0f565b61107860016121816ec097ce7bc90715b34b9f100000000061211487602001518761118d90919063ffffffff16565b9061307a565b61218f614254565b6000612199613090565b6000858152602082815260408083208715158452825291829020825160a08101845281546001600160a01b038116825260ff600160a01b82048116151594830194909452600160b01b81048416600a0a9482019490945293945092916060830191600160a81b90910416600581111561220e57fe5b8152600060209091015295945050505050565b815160405163db006a7560e01b8152600091479183916001600160a01b03169063db006a75906122559087906004016149a8565b602060405180830381600087803b15801561226f57600080fd5b505af1158015612283573d6000803e3d6000fd5b505050506040513d601f19601f820116820180604052508101906122a791906146e0565b905080156122c75760405162461bcd60e51b8152600401610274906149ff565b47611b5a8184612de9565b60008083600001516001600160a01b03166370a08231306040518263ffffffff1660e01b81526004016123059190614883565b60206040518083038186803b15801561231d57600080fd5b505afa158015612331573d6000803e3d6000fd5b505050506040513d601f19601f8201168201806040525081019061235591906146e0565b9050600085600001516001600160a01b031663db006a75856040518263ffffffff1660e01b815260040161238991906149a8565b602060405180830381600087803b1580156123a357600080fd5b505af11580156123b7573d6000803e3d6000fd5b505050506040513d601f19601f820116820180604052508101906123db91906146e0565b905080156123fb5760405162461bcd60e51b8152600401610274906149ff565b84516040516370a0823160e01b81526000916001600160a01b0316906370a082319061242b903090600401614883565b60206040518083038186803b15801561244357600080fd5b505afa158015612457573d6000803e3d6000fd5b505050506040513d601f19601f8201168201806040525081019061247b91906146e0565b90506124878184612de9565b979650505050505050565b61249a614283565b60006124a4612086565b61ffff93841660009081526020918252604090819020805464ffffffffff81168652600160281b81046001600160581b03908116948701949094526001820154841692860192909252600160d81b820463ffffffff166060860152600160801b9091049091166080840152600201546001600160501b0380821660a0850152600160501b8204811660c0850152600160a01b82041660e0840152600160f01b900460ff1661012c02909216610100820152919050565b6000806125668361309d565b6001600160a01b031663ef81f2166040518163ffffffff1660e01b81526004016040805180830381600087803b15801561259f57600080fd5b505af11580156125b3573d6000803e3d6000fd5b505050506040513d601f19601f82011682018060405250810190610b299190614860565b6125df614283565b60008060006125ef8886896130cd565b60c08b019290925260e08a01929092526020890151919350915061261390836131d8565b602088015260808701516000901561264157608088015161263e906126388982612de9565b906131ea565b90505b612661612656670de0b6b3a7640000836131d8565b60a08a015190613207565b60a089015250506080860194909452505082529092909150565b6000612685612086565b60008561ffff16815260200190815260200160002090506126a98260000151613224565b815464ffffffffff191664ffffffffff9190911617815560a08201516126ce90612d11565b60028201805469ffffffffffffffffffff19166001600160501b039290921691909117905560c082015161270190612d11565b81600201600a6101000a8154816001600160501b0302191690836001600160501b031602179055506127368260e00151612d11565b8160020160146101000a8154816001600160501b0302191690836001600160501b0316021790555061276b8260200151613238565b81546001600160581b0391909116600160281b026fffffffffffffffffffffff00000000001990911617815560408201516127a590613238565b6001820180546affffffffffffffffffffff19166001600160581b039290921691909117905560808201516127d990613238565b81546001600160581b0391909116600160801b026affffffffffffffffffffff60801b19909116178155606082015161281190612cfe565b815463ffffffff91909116600160d81b0263ffffffff60d81b19909116178155821561285d57600061284284610d8a565b905061284e858261324e565b61285b610fee8683612e52565b505b8361ffff167fef25641e225e493886510ca1ad6584fa7b442b9fea820a29d1de3ce27d270fd28360a001518460c001518560e001516040516128a193929190614c33565b60405180910390a250505050565b600080610b0f60066115ce565b60008082126128cc575080610b0f565b825160208401516128e3919061211490859061118d565b9050610b0f565b60006305f5e10083604001511415612903575080610b0f565b6110786305f5e10061211485604001518561118d90919063ffffffff16565b600061292c613285565b83516001600160a01b0316600090815260208290526040902054909150808311612957575050610924565b60006129628661309d565b90506000816001600160a01b031663b5e4da238487036040518263ffffffff1660e01b815260040161299491906149a8565b60006040518083038186803b1580156129ac57600080fd5b505afa1580156129c0573d6000803e3d6000fd5b505050506040513d6000823e601f3d908101601f191682016040526129e891908101906145a5565b905060006129f68783613292565b9050612a0284826131d8565b861115612a0e57600080fd5b5050505050505050565b826001600160a01b031663a9059cbb83836040518363ffffffff1660e01b815260040180836001600160a01b0316815260200182815260200192505050600060405180830381600087803b158015612a6f57600080fd5b505af1158015612a83573d6000803e3d6000fd5b50505050610924612d7c565b600080612a9a6134d5565b6000938452602052505060409020546001600160a01b031690565b600080600080612ac36134e2565b6001600160a01b0395909516600090815260209590955250506040909220546001600160601b03811693600160601b82046001600160801b03169350600160e01b90910463ffffffff169150565b6000806000612b2086856134ef565b50915091506000612b2f6134e2565b6001600160a01b0388166000908152602082905260408120919250612b5485896114ea565b905080600013158015612b6d57506001600160601b0381105b612b7657600080fd5b81546bffffffffffffffffffffffff19166001600160601b038216176fffffffffffffffffffffffffffffffff60601b1916600160601b6001600160801b0386160217825563ffffffff8710612bcb57600080fd5b50805463ffffffff8716600160e01b026001600160e01b03909116179055509150509392505050565b60008460e00151600014612c0757600080fd5b612c43612c3c866101000151612c36670de0b6b3a764000061156688612c308c60400151610c4e565b906120a1565b90612de9565b82906131d8565b9050612c5b670de0b6b3a764000061156684866120a1565b85610100018181525050949350505050565b600080612c78611dd9565b6001600160a01b0384166000908152602082905260409020805491925090600160f81b900460ff1615612cd457612cad613585565b6001600160a01b038086166000908152602092909252604090912054169250610a16915050565b600092505050610a16565b61067d73019be259bc299f3f653688c7655c87f998bc7bc18383612a18565b600063ffffffff821115610c5d57600080fd5b60006001600160501b03821115610c5d57600080fd5b6000612d338683613592565b9050610ea2868686612d4587866135cb565b613652565b60006a7fffffffffffffffffffff198212801590612d7357506a7fffffffffffffffffffff8213155b610c5d57600080fd5b6000612d866142cf565b3d8015612d9a5760208114612da357600080fd5b60019250612dae565b60206000833e815192505b508161067d576040805162461bcd60e51b8152602060048201526005602482015264045524332360dc1b604482015290519081900360640190fd5b600082821115612df857600080fd5b50900390565b60006305f5e10083604001511415612e17575080610b0f565b604083015161107890612114846305f5e10061118d565b8151600090819061211a90612114856ec097ce7bc90715b34b9f100000000061118d565b6000612e5c6115c5565b61ffff8416600090815260209190915260409081902054905163ad1c095d60e01b81526001600160a01b039091169150819063ad1c095d90612ea490879086906004016148ba565b600060405180830381600087803b158015612ebe57600080fd5b505af1158015612a0e573d6000803e3d6000fd5b6000612edc612086565b61ffff8516600090815260209190915260409020805490915064ffffffffff164214612f0757600080fd5b8054600090612f2690600160281b90046001600160581b0316856114ea565b8254909150600090612f4890600160801b90046001600160581b0316856114ea565b905080624c4b401315612f5a57600080fd5b612f6b612f6682610c4e565b613238565b83546001600160581b0391909116600160801b026affffffffffffffffffffff60801b19909116178355612fa1612f6683610c4e565b83546001600160581b0391909116600160281b026fffffffffffffffffffffff000000000019909116178355612fd683613686565b505050505050565b6000612fe8613285565b6001600160a01b0384166000908152602082905260409020549091506130116103a182856114ea565b6001600160a01b03909416600090815260209290925250604090209190915550565b6000816000191480156130495750600160ff1b83145b1561305357600080fd5b81838161305c57fe5b059392505050565b60008183126130735781611078565b5090919050565b80820382811315600083121514610b0f57600080fd5b600080610b0f60076115ce565b6000806130a8613751565b61ffff939093166000908152602093909352505060409020546001600160a01b031690565b6000806000806000806130e0898861375e565b89519095509193509150600090613107906130fc908b90612de9565b633b9aca00906120a1565b90506131416131366301da9c0061311e85856120a1565b8161312557fe5b670de0b6b3a76400009190046131d8565b60e08a015190613207565b96506131636131586301da9c0061311e87856120a1565b60c08a015190613207565b95508183141561317a5750600093506131cf915050565b600061319c6131916301da9c0061311e87866120a1565b60e08b015190613207565b905060006131aa8983612de9565b90506131c788611566838d604001516120a190919063ffffffff16565b965050505050505b93509350935093565b60008282018381101561107857600080fd5b600061107861320184670de0b6b3a76400006120a1565b836120c8565b600061107861321684846120a1565b670de0b6b3a76400006120c8565b600064ffffffffff821115610c5d57600080fd5b60006001600160581b03821115610c5d57600080fd5b600081121561325c57600080fd5b600061326a610fee846137f8565b905061327681836114ea565b9050610924610fee8483613851565b600080610b0f60266115ce565b6000805b82518110156134ce5760008382815181106132ad57fe5b60200260200101519050600081606001516001600160a01b03166370a08231306040518263ffffffff1660e01b81526004016132e99190614883565b60206040518083038186803b15801561330157600080fd5b505afa158015613315573d6000803e3d6000fd5b505050506040513d601f19601f8201168201806040525081019061333991906146e0565b9050600061334787306138c5565b905060005b835151811015613398576133908460000151828151811061336957fe5b602002602001015160008660200151848151811061338357fe5b602002602001015161396f565b60010161334c565b5060006133a588306138c5565b905060006133b38284612de9565b905080856040015111156133c657600080fd5b60608501516040516370a0823160e01b81526000916001600160a01b0316906370a08231906133f9903090600401614883565b60206040518083038186803b15801561341157600080fd5b505afa158015613425573d6000803e3d6000fd5b505050506040513d601f19601f8201168201806040525081019061344991906146e0565b90508481111561345857600080fd5b608086015160ff161580159061347757506134738582612de9565b8214155b1561349257608086015161348f90829060ff166131d8565b90505b6134a186606001518683613aac565b6134ab88836131d8565b97506134bc8a600001518585613aac565b50506001909401935061329692505050565b5092915050565b600080610b0f60036115ce565b600080610b0f60116115ce565b60008060006134fd85612ab5565b9194509250905080841180156135135750600081115b801561351f5750600083115b1561357e57600061352f866113bf565b505050915050600061355a6135516305f5e100846120a190919063ffffffff16565b84880387613b29565b905061356684826131d8565b93506001600160801b03841061357b57600080fd5b50505b9250925092565b600080610b0f60126115ce565b6000808212156135c5576135c06001612181856020015161211487600001518761118d90919063ffffffff16565b611078565b50919050565b6000818314806135e85750600083121580156135e8575060008212155b156135f557506000610b0f565b600083131580156136065750816000125b15613612575081610b0f565b600082131580156136235750826000125b15613631576128e382610b01565b60008313158015613643575060008213155b156100a7576128e3838361307a565b8015610afb57835160208501516000916136719161211490859061118d565b905061367f84848484613b4b565b5050505050565b805460028201546000916136c891600160281b9091046001600160581b0316906136c2906001600160501b03600160501b82048116911661118d565b9061118d565b60018301546002840154919250600091613702916001600160581b0316906136c2906001600160501b03600160a01b82048116911661118d565b83549091506000906137399060016001600160581b03600160801b909204821601166ec097ce7bc90715b34b9f100000000061118d565b905080613746848461307a565b1315610afb57600080fd5b600080610b0f601f6115ce565b6000806000806000856020015111156137ab576137a861378f8660c0015187602001516120a190919063ffffffff16565b60e087015160408801516137a2916120a1565b90613c91565b90505b60006137b687613ca4565b90506137c28183613cd7565b945081156137d9576137d681866001613d90565b93505b60208601511561357b576137ed8583613e01565b925050509250925092565b6000806138036128af565b6001600160a01b03851660009081526020828152604080832061ffff8816845290915281208054600160a81b9004600a90810b900b945091925083121561384957600080fd5b505092915050565b600081121561385f57600080fd5b60006138696128af565b6001600160a01b03851660009081526020828152604080832061ffff88168452909152902090915061389a83612d4a565b8154600a9190910b6001600160581b0316600160a81b026001600160a81b0390911617905550505050565b60006003836060015160058111156138d957fe5b14156138f057506001600160a01b03811631610b0f565b82516040516370a0823160e01b81526001600160a01b03909116906370a082319061391f908590600401614883565b60206040518083038186803b15801561393757600080fd5b505afa15801561394b573d6000803e3d6000fd5b505050506040513d601f19601f820116820180604052508101906128e391906146e0565b600080846001600160a01b031684846040518082805190602001908083835b602083106139ad5780518252601f19909201916020918201910161398e565b6001836020036101000a03801982511681845116808217855250505050505090500191505060006040518083038185875af1925050503d8060008114613a0f576040519150601f19603f3d011682016040523d82523d6000602084013e613a14565b606091505b509150915081613a2382613e1a565b90612fd65760405162461bcd60e51b81526004018080602001828103825283818151815260200191508051906020019080838360005b83811015613a71578181015183820152602001613a59565b50505050905090810190601f168015613a9e5780820380516001836020036101000a031916815260200191505b509250505060405180910390fd5b6000613ab6613285565b6001600160a01b03851660009081526020829052604090205490915083811115613adf57600080fd5b6000613af6613aed86610d8a565b61218186610d8a565b9050613b056103a183836114ea565b6001600160a01b039096166000908152602093909352505060409020929092555050565b6000610b29826115666301da9c008188612c3089670de0b6b3a76400006120a1565b6000613b55612086565b61ffff8516600090815260209190915260409020805490915064ffffffffff164214613b8057600080fd5b8054600160f81b900460ff16613b9557600080fd5b6001810154600090613bb0906001600160581b0316856114ea565b8254909150600090613bd290600160281b90046001600160581b0316856114ea565b905081600919128015613be55750600082125b15613bef57600091505b80600919128015613c005750600081125b15613c09575060005b613c15612f6683610c4e565b6001840180546affffffffffffffffffffff19166001600160581b0392909216919091179055613c47612f6682610c4e565b83546001600160581b0391909116600160281b026fffffffffffffffffffffff000000000019909116178355613c7f87878688613f21565b613c8883613686565b50505050505050565b600061107861320184633b9aca006120a1565b613cac6142ed565b6000613cb6614035565b61ffff8416600090815260209190915260408120549150610a129082614042565b600080836080015111613ce957600080fd5b633b9aca00821115613cfa57600080fd5b82518211613d1957825160408401516128e391906115669085906120a1565b82602001518211613d575760408301518351602085015160608601516128e39392613d519281900391611566918803908590036120a1565b906131d8565b6110788360600151613d518560200151633b9aca00036115668760600151886080015103886020015188036120a190919063ffffffff16565b600080613daf60646115668760e00151876120a190919063ffffffff16565b90508460a00151811015613dc4575060a08401515b8460c00151811115613dd7575060c08401515b8215613de75761107384826131d8565b838111613df657808403611073565b600095945050505050565b6000611078613e1084846120a1565b633b9aca006120c8565b6060604482511015613e50575060408051808201909152600d81526c14da5b195b9d0814995d995c9d609a1b6020820152610a16565b6004820180519092602401906020811015613e6a57600080fd5b8101908080516040519392919084640100000000821115613e8a57600080fd5b908301906020820185811115613e9f57600080fd5b8251640100000000811182820188101715613eb957600080fd5b82525081516020918201929091019080838360005b83811015613ee6578181015183820152602001613ece565b50505050905090810190601f168015613f135780820380516001836020036101000a031916815260200191505b506040525050509050919050565b6000613f2b6115c5565b61ffff8516600090815260209190915260408120546001600160a01b03169150613f53614161565b61ffff8616600090815260209190915260409081902054905163ad1c095d60e01b81526001600160a01b039091169150819063ad1c095d90613f9b90899087906004016148ba565b600060405180830381600087803b158015613fb557600080fd5b505af1158015613fc9573d6000803e3d6000fd5b505060405163ad1c095d60e01b81526001600160a01b038516925063ad1c095d9150613ffb90899088906004016148ba565b600060405180830381600087803b15801561401557600080fd5b505af1158015614029573d6000803e3d6000fd5b50505050505050505050565b600080610b0f601b6115ce565b61404a6142ed565b6064633b9aca008360ff86166020811061406057fe5b1a028161406957fe5b0481526064633b9aca008360ff86166001016020811061408557fe5b1a028161408e57fe5b048160200181815250506140b38260028560ff1601602081106140ad57fe5b1a61416e565b60808201819052610100908360ff8616600301602081106140d057fe5b1a02816140d957fe5b0460408201526080810151610100908360ff8616600401602081106140fa57fe5b1a028161410357fe5b0460608201526207a1208260ff85166005016020811061411f57fe5b1a0260a0820152622625a08260ff85166006016020811061413c57fe5b1a0260c08201528160ff84166007016020811061415557fe5b1a60e082015292915050565b600080610b0f60226115ce565b60008160ff166096106141895760ff8216622625a002610b0f565b5060951960ff919091160162e4e1c00263165a0bc00190565b604051806101400160405280600061ffff16815260200160008152602001600081526020016000815260200160008152602001600081526020016000815260200160008152602001600081526020016141f9614233565b905290565b6040805160c081018252600080825260208201819052918101829052606081018290526080810182905260a081019190915290565b60405180606001604052806000815260200160008152602001600081525090565b6040805160a0810182526000808252602082018190529181018290529060608201908152602001600081525090565b6040518061012001604052806000815260200160008152602001600081526020016000815260200160008152602001600081526020016000815260200160008152602001600081525090565b60405180602001604052806001906020820280368337509192915050565b60405180610100016040528060008152602001600081526020016000815260200160008152602001600081526020016000815260200160008152602001600081525090565b8051610a1681614c8b565b600082601f83011261434d578081fd5b8151602061436261435d83614c6d565b614c49565b828152818101908583018385028701840188101561437e578586fd5b855b858110156143a557815161439381614c8b565b84529284019290840190600101614380565b5090979650505050505050565b6000601f83818401126143c3578182fd5b825160206143d361435d83614c6d565b82815281810190868301865b8581101561447857815189018a603f8201126143f9578889fd5b8581015167ffffffffffffffff81111561440f57fe5b614420818a01601f19168801614c49565b81815260408d81848601011115614435578b8cfd5b8b5b83811015614452578481018201518382018b01528901614437565b83811115614462578c8a85850101525b50508652505092840192908401906001016143df565b509098975050505050505050565b8051610a1681614ca3565b80516001600160701b031981168114610a1657600080fd5b80516001600160f81b031981168114610a1657600080fd5b8051610a1681614cb1565b80356001600160581b0381168114610a1657600080fd5b805160ff81168114610a1657600080fd5b600060208284031215614505578081fd5b813561107881614c8b565b600080600060608486031215614524578182fd5b833561452f81614c8b565b9250602084013561453f81614cb1565b929592945050506040919091013590565b600080600060608486031215614564578081fd5b833561456f81614c8b565b9250602084013561457f81614cb1565b915060408401356001600160601b038116811461459a578182fd5b809150509250925092565b600060208083850312156145b7578182fd5b825167ffffffffffffffff808211156145ce578384fd5b818501915085601f8301126145e1578384fd5b81516145ef61435d82614c6d565b81815284810190848601875b848110156146b5578151870160a0818d03601f1901121561461a57898afd5b6040805160a081018181108a8211171561463057fe5b8252828b015189811115614642578c8dfd5b6146508f8d8387010161433d565b8252508183015189811115614663578c8dfd5b6146718f8d838701016143b2565b8c8301525060608301518282015261468b60808401614332565b606082015261469c60a084016144e3565b60808201528652505092870192908701906001016145fb565b50909998505050505050505050565b6000602082840312156146d5578081fd5b813561107881614ca3565b6000602082840312156146f1578081fd5b5051919050565b600060c08284031215614709578081fd5b60405160c0810181811067ffffffffffffffff8211171561472657fe5b604052825164ffffffffff8116811461473d578283fd5b815261474b602084016144a9565b602082015261475c604084016144e3565b604082015261476d606084016144c1565b606082015261477e60808401614491565b608082015261478f60a08401614486565b60a08201529392505050565b6000602082840312156147ac578081fd5b813561107881614cb1565b600080600080600060a086880312156147ce578283fd5b85356147d981614cb1565b945060208601356147e981614c8b565b935060408601356147f981614c8b565b9250606086013561480981614c8b565b9150614817608087016144cc565b90509295509295909350565b600080600060608486031215614837578081fd5b833561484281614cb1565b9250614850602085016144cc565b9150604084013561459a81614ca3565b60008060408385031215614872578182fd5b505080516020909101519092909150565b6001600160a01b0391909116815260200190565b6001600160a01b0393841681529183166020830152909116604082015260600190565b6001600160a01b03929092168252602082015260400190565b600060e08201905060018060a01b038416825264ffffffffff835116602083015260ff60f81b602084015116604083015260ff604084015116606083015261ffff60608401511660808301526001600160701b031960808401511660a083015260a0830151151560c08301529392505050565b6001600160a01b0393909316835261ffff919091166020830152604082015260600190565b6001600160a01b0395909516855261ffff93909316602085015260408401919091526060830152608082015260a00190565b901515815260200190565b90815260200190565b6020808252600f908201526e04f76657220537570706c792043617608c1b604082015260600190565b6020808252600b908201526a4554482042616c616e636560a81b604082015260600190565b60208082526006908201526552656465656d60d01b604082015260600190565b60208082526012908201527143616e6e6f7420686176652061737365747360701b604082015260600190565b602080825260169082015275496e73756666696369656e7420616c6c6f77616e636560501b604082015260600190565b6020808252601390820152722ab730baba3437b934bd32b21031b0b63632b960691b604082015260600190565b6020808252600f908201526e4e6f205072696d6520426f72726f7760881b604082015260600190565b6020808252601c908201527f446570726563617465643a2052656465656d20746f2063546f6b656e00000000604082015260600190565b602080825260149082015273496e73756666696369656e742042616c616e636560601b604082015260600190565b602080825260149082015273043616e6e6f74206368616e6765206269746d61760641b604082015260600190565b60208082526010908201526f10d85b9b9bdd081a185d99481919589d60821b604082015260600190565b6020808252600a90820152692732b390372a37b5b2b760b11b604082015260600190565b602080825260139082015272125b9d985b1a590818dd5c9c995b98de481a59606a1b604082015260600190565b602080825260139082015272496e73756666696369656e7420746f6b656e7360681b604082015260600190565b6020808252600d908201526c04f76657220446562742043617609c1b604082015260600190565b9283526020830191909152604082015260600190565b60405181810167ffffffffffffffff81118282101715614c6557fe5b604052919050565b600067ffffffffffffffff821115614c8157fe5b5060209081020190565b6001600160a01b0381168114614ca057600080fd5b50565b8015158114614ca057600080fd5b61ffff81168114614ca057600080fdfea26469706673582212206a1faf394a6fc32a7e6c297ff83b8c92f6164d3ebc5aa8e2b6538fb122d2f16564736f6c63430007060033","bytecodeSha1":"d4389e4c230442b823d9bca7652c83f1f2d03250","compiler":{"evm_version":"istanbul","optimizer":{"enabled":true,"runs":200},"version":"0.7.6+commit.7338295f"},"contractName":"AccountAction","deployedBytecode":"6080604052600436106100a75760003560e01c80638da5cb5b116100645780638da5cb5b1461016e578063912e33c7146101835780639c979450146101a3578063b8a69455146101c3578063c4c96dae146101e3578063f667f89714610207576100a7565b806302f332e8146100ac57806324a3d622146100e25780632890fb651461010457806356a273dd1461011757806361d0d61c146101375780638246336714610159575b600080fd5b3480156100b857600080fd5b506100cc6100c7366004614823565b610234565b6040516100d991906149a8565b60405180910390f35b3480156100ee57600080fd5b506100f76103b6565b6040516100d99190614883565b6100cc610112366004614510565b6103c5565b34801561012357600080fd5b506100cc610132366004614550565b610469565b34801561014357600080fd5b506101576101523660046146c4565b610647565b005b34801561016557600080fd5b506100f7610681565b34801561017a57600080fd5b506100f7610690565b34801561018f57600080fd5b506100cc61019e3660046147b7565b6106a7565b3480156101af57600080fd5b506101576101be36600461479b565b6108dc565b3480156101cf57600080fd5b506100cc6101de366004614510565b610929565b3480156101ef57600080fd5b506101f86109a3565b6040516100d993929190614897565b34801561021357600080fd5b506102276102223660046144f4565b6109e7565b6040516100d9919061499d565b60006002600a54141561024657600080fd5b6002600a5561ffff841660011461027d578161027d5760405162461bcd60e51b815260040161027490614ad1565b60405180910390fd5b600061028833610a1b565b5090506102936141a2565b61029f81338885610ae0565b6001600160581b0385811614156102d85760008160200151136102c157600080fd5b6102ce8160200151610b01565b60808201526102f0565b6102ea856001600160581b0316610b01565b60808201525b60006102ff8233858815610b15565b905061030b8333610b31565b60208301516001600160f81b0319161561038757604051636ccc642f60e01b815273__$841fddfe32830bb6dbc3a02d7f16c53722$__90636ccc642f90610356903390600401614883565b60006040518083038186803b15801561036e57600080fd5b505af4158015610382573d6000803e3d6000fd5b505050505b600081131561039557600080fd5b6103a66103a182610b01565b610c4e565b6001600a55979650505050505050565b6002546001600160a01b031681565b60006002600a5414156103d757600080fd5b6002600a55333014156103e957600080fd5b6103f284610c61565b60006103fd85610cdc565b90506104076141a2565b61041381878785610ae0565b600061042c3361042287610d8a565b8491906000610da0565b90506000811361043b57600080fd5b610446828885610df2565b6104508388610b31565b6101208201516104609087610e11565b6103a681610c4e565b60006002600a54141561047b57600080fd5b6002600a55336001600160a01b038516148061049657503330145b6104b25760405162461bcd60e51b815260040161027490614a7b565b6001600160601b03821660006104c786610a1b565b5090506104d26141a2565b6104de81888885610ae0565b82816040015112156105025760405162461bcd60e51b815260040161027490614bdf565b61050b83610b01565b60c0820152604051630e22aaa360e01b815260009073__$43fd92ea4ea9b72ca0014644dbfd757564$__90630e22aaa39061054e908b908b908990600401614946565b60206040518083038186803b15801561056657600080fd5b505af415801561057a573d6000803e3d6000fd5b505050506040513d601f19601f8201168201806040525081019061059e91906146e0565b6060830181905290506105b2828985610df2565b6105bc8389610b31565b60208301516001600160f81b031916156103a657604051636ccc642f60e01b815273__$841fddfe32830bb6dbc3a02d7f16c53722$__90636ccc642f90610607908b90600401614883565b60006040518083038186803b15801561061f57600080fd5b505af4158015610633573d6000803e3d6000fd5b505050506001600a55979650505050505050565b3330141561065457600080fd5b61065d33610c61565b600061066833610a1b565b5082151560a0820152905061067d8133610b31565b5050565b6001546001600160a01b031681565b60005464010000000090046001600160a01b031681565b60006002600a5414156106b957600080fd5b6002600a5560006106c987610e54565b9050336001600160a01b038216146106e057600080fd5b6106e986610c61565b836001600160a01b0316866001600160a01b0316146107b157600061070c610e81565b6001600160a01b03808916600090815260209283526040808220928916825291835281812061ffff8c16825290925290205490506001600160581b0384168110156107695760405162461bcd60e51b815260040161027490614a4b565b836001600160581b0316810361077d610e81565b6001600160a01b03808a16600090815260209283526040808220928a16825291835281812061ffff8d168252909252902055505b60006107bc87610a1b565b5090506107c76141a2565b6107d381898b85610ae0565b8060200151856001600160581b031613156108005760405162461bcd60e51b815260040161027490614b08565b610812856001600160581b0316610b01565b60808201526000610827828a8a866001610e8e565b9050610833838a610b31565b60208301516001600160f81b031916156108af57604051636ccc642f60e01b815273__$841fddfe32830bb6dbc3a02d7f16c53722$__90636ccc642f9061087e908c90600401614883565b60006040518083038186803b15801561089657600080fd5b505af41580156108aa573d6000803e3d6000fd5b505050505b60008113156108bd57600080fd5b6108c96103a182610b01565b6001600a559a9950505050505050505050565b333014156108e957600080fd5b60005461ffff908116908216111561090057600080fd5b33600061090c82610a1b565b50905061091a818442610eab565b6109248183610b31565b505050565b60006002600a54141561093b57600080fd5b6002600a553330141561094d57600080fd5b336001600160a01b0385161461096257600080fd5b61096b84610c61565b600061097685610cdc565b90506109806141a2565b61098c81878785610ae0565b600061042c8761099b87610d8a565b849190610fa3565b73__$841fddfe32830bb6dbc3a02d7f16c53722$__73__$f6541b0d362a0c7d99a2a29cd3d373d61b$__73__$43fd92ea4ea9b72ca0014644dbfd757564$__909192565b60006109f282610c61565b6000806109fe84610a1b565b915091508015610a1257610a128285610b31565b9150505b919050565b610a236141fe565b600080610a2f84610cdc565b9050610a3a8161107f565b15610ad4576040516337b5fc2160e11b815273__$f6541b0d362a0c7d99a2a29cd3d373d61b$__90636f6bf84290610a7890879085906004016148d3565b60c06040518083038186803b158015610a9057600080fd5b505af4158015610aa4573d6000803e3d6000fd5b505050506040513d601f19601f82011682018060405250810190610ac891906146f8565b60019250925050610adb565b9150600090505b915091565b610ae9826110d3565b610120850152610afb848484846110e5565b50505050565b6000610b0f6000198361118d565b92915050565b6000610b26858586868660016111db565b90505b949350505050565b6000610b3b6113b2565b6001600160a01b03831660008181526020838152604080832088518154938a01518a84015160608c015160808d015160a08e015164ffffffffff1990981664ffffffffff9095169490941765ff00000000001916600160281b60f89490941c939093029290921766ff0000000000001916600160301b60ff909216919091021768ffff000000000000001916600160381b61ffff90921691909102177affffffffffffffffffffffffffffffffffff0000000000000000001916600160481b60709290921c919091021760ff60d81b1916600160d81b93151593909302929092179091555192935090917f6bd4b121bca854a191536a2ca891155c42ee2fb23f307fb34e8bc65cfcb5412e9190a2505050565b600080821215610c5d57600080fd5b5090565b6001600160a01b038116610c7457600080fd5b6001600160a01b038116610fee1415610c8c57600080fd5b6001600160a01b0381166105e71415610ca457600080fd5b6001600160a01b038116301415610cba57600080fd5b6000610cc5826113bf565b5050505061ffff1690508060001461067d57600080fd5b610ce46141fe565b6000610cee6113b2565b6001600160a01b03841660009081526020918252604090819020815160c081018352905464ffffffffff811682526001600160f81b0319600160281b820460f81b169382019390935260ff600160301b840481169282019290925261ffff600160381b84041660608201526001600160701b0319600160481b840460701b166080820152600160d81b90920416151560a0820152915050919050565b60006001600160ff1b03821115610c5d57600080fd5b600082610daf57506000610b29565b60008313610dbc57600080fd5b610dd28486600001518588610120015186611428565b6060870151909250610de59150826114ea565b6060860152949350505050565b608083015115610e0157600080fd5b610afb83838484600060016111db565b600080610e1e8484611500565b5050915091508160001415610e3457505061067d565b81811115610afb5760405162461bcd60e51b8152600401610274906149b1565b6000610e5e6115c5565b61ffff90921660009081526020929092525060409020546001600160a01b031690565b600080610b0f60236115ce565b6000610e9f868686868660016111db565b90505b95945050505050565b610eb4836115e7565b15610ed15760405162461bcd60e51b815260040161027490614b36565b8161ffff166000108015610eeb5750613fff61ffff831611155b610f075760405162461bcd60e51b815260040161027490614bb2565b604083015160ff1615610f2c5760405162461bcd60e51b815260040161027490614a1f565b60208301516001600160f81b03191615610f585760405162461bcd60e51b815260040161027490614b64565b610f6d8361ffff84166000600160fe1b6115f4565b61ffff821660608401526000610f82826117f3565b905064ffffffffff8110610f9557600080fd5b64ffffffffff169092525050565b600081610fb257506000611078565b60008213610fbf57600080fd5b6000610fd2856000015161ffff16611811565b80519091506001600160a01b0316610fe957600080fd5b600181606001516005811115610ffb57fe5b1480611016575060028160600151600581111561101457fe5b145b1561104e57845161012086015161103291839186908890611824565b606086015190925061104490836114ea565b6060860152611076565b60048160600151600581111561106057fe5b14156100a7576110738585856000610da0565b91505b505b9392505050565b60004261108b836115e7565b156110ac57611099816117f3565b835164ffffffffff16109150610a169050565b825164ffffffffff16158015906110cb5750825164ffffffffff168110155b915050610a16565b6110db614233565b610b0f82426118b5565b8161ffff1660001080156110ff5750613fff61ffff831611155b61110857600080fd5b61ffff821680855261111b908290611976565b1561114a576111308383866101200151611a00565b61010088015260e087015260408601526020850152611168565b6000602085018190526040850181905260e085018190526101008501525b50506000606083018190526080830181905260a0830181905260c09092019190915250565b8181026000198314156111bd578115806111af5750828282816111ac57fe5b05145b6111b857600080fd5b610b0f565b8215806111d25750818382816111cf57fe5b05145b610b0f57600080fd5b60008060006111fb88888b600001518c608001518d61012001518a611aba565b9250600061121a8a608001518b606001516114ea90919063ffffffff16565b90508480156112295750600081125b8015611244575060208a015160009061124290836114ea565b125b1561126f578660a0015161126a5760405162461bcd60e51b815260040161027490614aa8565b600191505b801561128e5760208a015161128490826114ea565b60208b0152600192505b5060a08901511515806112a4575060c089015115155b1561130d5760006112d48a60c001516112ce8c60a001518d604001516114ea90919063ffffffff16565b906114ea565b905060008112156112f75760405162461bcd60e51b815260040161027490614b8e565b6113028a8a83611b64565b5060408a0152600191505b811561133c5761133c888a600001518b602001518c604001518d60e001518e61010001518f6101200151611c5b565b885160208a01516113699161ffff169015158061135c575060408b015115155b889190600160fe1b6115f4565b60008960200151121561138f57602086018051600160f91b176001600160f81b03191690525b80156113a65788516101208a01516113a691611d96565b50509695505050505050565b600080610b0f60016115ce565b6000806000806000806113d0611dd9565b6001600160a01b039097166000908152602097909752505060409094205461ffff81169563ffffffff62010000830481169650600160301b830416945060ff600160501b8304169350600160581b90910460d01b9150565b600080600061143686610c4e565b90508061144a5760008092509250506114e0565b60006114598861ffff16611de6565b905060038160600151600581111561146d57fe5b14156114b4573482101561148d576114888983340387611df9565b6114ac565b3482146114ac5760405162461bcd60e51b8152600401610274906149da565b8693506114ce565b6114cb6114c682600001518b85611ec1565b610d8a565b93505b6114db898986848a61203f565b925050505b9550959350505050565b81810182811215600083121514610b0f57600080fd5b6000806000806000611510612086565b61ffff8716600090815260209190915260409020600181015490915061154290600160581b900463ffffffff16612093565b600182015490955061156c90606490611566908890600160781b900460ff166120a1565b906120c8565b8154909350600160281b90046001600160581b031661158e6103a189836120e7565b60018301549095506001600160581b03166000036115b76103a16115b28b84612136565b610b01565b935050505092959194509250565b600080610b0f60215b6000620f42408260268111156115e057fe5b0192915050565b6060015161ffff16151590565b8260001080156116065750613fff8311155b61160f57600080fd5b818015611623575082846060015161ffff16145b1561162d57610afb565b6080840151600090815b6001600160701b03198216156117a85760f082901c613fff16868114801561165c5750855b1561169457506080870180516001600160f01b0319861660109093029290921c919091176001600160701b031916905250610afb9050565b86811480156116a1575085155b156116f6576001600160f01b03198516199290921691600360fe1b83166116d4576010836001600160701b031916901b92505b506001600160701b031991821660109091021c91909117166080850152610afb565b86811180156117025750855b1561175c576080888101516001600160f01b031960f08a901b88178116601086021c9690961795911b161561173657600080fd5b506001600160701b03199182166001919091016010021c91909117166080850152610afb565b8681118015611769575085155b156117775750505050610afb565b506001600160f01b0319821660108281029190911c93909317929190911b6001600160801b03191690600101611637565b846117b557505050610afb565b600981106117c257600080fd5b6001600160f01b031960f087901b85171660109091021c919091176001600160701b03191660808601525050505050565b60006201518082101561180557600080fd5b50620151808106900390565b611819614254565b610b0f826000612187565b600061183586600001518486611ec1565b935060006118468661ffff16611de6565b9050600060028860600151600581111561185c57fe5b14156118765761186f6114c68988612221565b905061189c565b60018860600151600581111561188857fe5b14156100a75761186f6114c68984896122d2565b6118a9858883858861203f565b98975050505050505050565b6118bd614233565b60006118c884612492565b90508281600001511015611907576000806118e28661255a565b90506118f0868483886125d7565b909350915061190086838561267b565b5050611914565b8051831461191457600080fd5b604051806060016040528061193d6114c68460a001518560c001516120a190919063ffffffff16565b81526020016119606114c68460a001518560e001516120a190919063ffffffff16565b8152602001826060015181525091505092915050565b600081158015906119895750613fff8211155b61199257600080fd5b6080830151606084015161ffff168314156119b1576001915050610b0f565b6001600160701b03198116156119f65760f081901c613fff16838114156119e35750600160fe1b908116149050610b0f565b5060101b6001600160801b0319166119b1565b5060009392505050565b6000806000806000611a106128af565b6001600160a01b03891660009081526020828152604080832061ffff8c168452909152902080546001600160501b0381169650600160501b900463ffffffff1694509091508315611a7d578054611a7690600160701b900466ffffffffffffff16612093565b9250611a92565b8054600160701b900466ffffffffffffff1692505b8054611aad908890600160a81b9004600a90810b900b6128bc565b9550505093509350935093565b600083611ac957506000611b5a565b60008412611ad657600080fd5b6000611ae58661ffff16611de6565b9050611afa81611af586886120e7565b6128ea565b91506000611b0783610b01565b9050611b14878383612922565b600382606001516005811115611b2657fe5b1415611b3c57611b37888286611df9565b611b49565b8151611b49908983612a18565b611b56898885858961203f565b5050505b9695505050505050565b825160009042908290611b7a9061ffff16612a8f565b90506000611b8782612ab5565b505090506000611b9c838960c0015186612b11565b9050611baa88848389612bf4565b94506000611bb784612c6d565b90506001600160a01b03811615611c3f57806001600160a01b0316633f3ef50d898b60000151611bea8d60400151610c4e565b8b886040518663ffffffff1660e01b8152600401611c0c95949392919061496b565b600060405180830381600087803b158015611c2657600080fd5b505af1158015611c3a573d6000803e3d6000fd5b505050505b8515611c4f57611c4f8887612cdf565b50505050509392505050565b6000611c656128af565b6001600160a01b03891660009081526020828152604080832061ffff8c168452909152902090915084611ccd5766ffffffffffffff841115611ca657600080fd5b805466ffffffffffffff60701b1916600160701b66ffffffffffffff861602178155611ce7565b8054600160501b900463ffffffff168514611ce757600080fd5b611cf085612cfe565b815463ffffffff91909116600160501b0263ffffffff60501b19909116178155611d21611d1c87610c4e565b612d11565b815469ffffffffffffffffffff19166001600160501b039190911617808255611d6790611d629085908c908c90600160a81b9004600a90810b900b8c612d27565b612d4a565b8154600a9190910b6001600160581b0316600160a81b026001600160a81b039091161790555050505050505050565b600080611da38484611500565b9350935050508160001415611db957505061067d565b81811115610afb5760405162461bcd60e51b815260040161027490614c0c565b600080610b0f60026115ce565b611dee614254565b610b0f826001612187565b8015611e8b577382af49447d8a07e3bd95bd0d56f35241523fbab16001600160a01b031663d0e30db0836040518263ffffffff1660e01b81526004016000604051808303818588803b158015611e4e57600080fd5b505af1158015611e62573d6000803e3d6000fd5b5050505050611e867382af49447d8a07e3bd95bd0d56f35241523fbab18484612a18565b610924565b6040516001600160a01b0384169083156108fc029084906000818181858888f19350505050158015610afb573d6000803e3d6000fd5b600080846001600160a01b03166370a08231306040518263ffffffff1660e01b815260040180826001600160a01b0316815260200191505060206040518083038186803b158015611f1157600080fd5b505afa158015611f25573d6000803e3d6000fd5b505050506040513d6020811015611f3b57600080fd5b5051604080516323b872dd60e01b81526001600160a01b038781166004830152306024830152604482018790529151929350908716916323b872dd9160648082019260009290919082900301818387803b158015611f9857600080fd5b505af1158015611fac573d6000803e3d6000fd5b50505050611fb8612d7c565b6000856001600160a01b03166370a08231306040518263ffffffff1660e01b815260040180826001600160a01b0316815260200191505060206040518083038186803b15801561200757600080fd5b505afa15801561201b573d6000803e3d6000fd5b505050506040513d602081101561203157600080fd5b50519050611b5a8183612de9565b60008061204c8486612dfe565b90506120588382612e2e565b9150612065878784612e52565b612070868383612ed2565b835161207c9086612fde565b5095945050505050565b600080610b0f601d6115ce565b600881901c60ff9091161b90565b6000826120b057506000610b0f565b828202828482816120bd57fe5b041461107857600080fd5b60008082116120d657600080fd5b8183816120df57fe5b049392505050565b60008061211a6ec097ce7bc90715b34b9f100000000061211486600001518661118d90919063ffffffff16565b90613033565b90506000831261212a5780610b29565b610b2981600019613064565b60006001821261214557600080fd5b8161215257506000610b0f565b61107860016121816ec097ce7bc90715b34b9f100000000061211487602001518761118d90919063ffffffff16565b9061307a565b61218f614254565b6000612199613090565b6000858152602082815260408083208715158452825291829020825160a08101845281546001600160a01b038116825260ff600160a01b82048116151594830194909452600160b01b81048416600a0a9482019490945293945092916060830191600160a81b90910416600581111561220e57fe5b8152600060209091015295945050505050565b815160405163db006a7560e01b8152600091479183916001600160a01b03169063db006a75906122559087906004016149a8565b602060405180830381600087803b15801561226f57600080fd5b505af1158015612283573d6000803e3d6000fd5b505050506040513d601f19601f820116820180604052508101906122a791906146e0565b905080156122c75760405162461bcd60e51b8152600401610274906149ff565b47611b5a8184612de9565b60008083600001516001600160a01b03166370a08231306040518263ffffffff1660e01b81526004016123059190614883565b60206040518083038186803b15801561231d57600080fd5b505afa158015612331573d6000803e3d6000fd5b505050506040513d601f19601f8201168201806040525081019061235591906146e0565b9050600085600001516001600160a01b031663db006a75856040518263ffffffff1660e01b815260040161238991906149a8565b602060405180830381600087803b1580156123a357600080fd5b505af11580156123b7573d6000803e3d6000fd5b505050506040513d601f19601f820116820180604052508101906123db91906146e0565b905080156123fb5760405162461bcd60e51b8152600401610274906149ff565b84516040516370a0823160e01b81526000916001600160a01b0316906370a082319061242b903090600401614883565b60206040518083038186803b15801561244357600080fd5b505afa158015612457573d6000803e3d6000fd5b505050506040513d601f19601f8201168201806040525081019061247b91906146e0565b90506124878184612de9565b979650505050505050565b61249a614283565b60006124a4612086565b61ffff93841660009081526020918252604090819020805464ffffffffff81168652600160281b81046001600160581b03908116948701949094526001820154841692860192909252600160d81b820463ffffffff166060860152600160801b9091049091166080840152600201546001600160501b0380821660a0850152600160501b8204811660c0850152600160a01b82041660e0840152600160f01b900460ff1661012c02909216610100820152919050565b6000806125668361309d565b6001600160a01b031663ef81f2166040518163ffffffff1660e01b81526004016040805180830381600087803b15801561259f57600080fd5b505af11580156125b3573d6000803e3d6000fd5b505050506040513d601f19601f82011682018060405250810190610b299190614860565b6125df614283565b60008060006125ef8886896130cd565b60c08b019290925260e08a01929092526020890151919350915061261390836131d8565b602088015260808701516000901561264157608088015161263e906126388982612de9565b906131ea565b90505b612661612656670de0b6b3a7640000836131d8565b60a08a015190613207565b60a089015250506080860194909452505082529092909150565b6000612685612086565b60008561ffff16815260200190815260200160002090506126a98260000151613224565b815464ffffffffff191664ffffffffff9190911617815560a08201516126ce90612d11565b60028201805469ffffffffffffffffffff19166001600160501b039290921691909117905560c082015161270190612d11565b81600201600a6101000a8154816001600160501b0302191690836001600160501b031602179055506127368260e00151612d11565b8160020160146101000a8154816001600160501b0302191690836001600160501b0316021790555061276b8260200151613238565b81546001600160581b0391909116600160281b026fffffffffffffffffffffff00000000001990911617815560408201516127a590613238565b6001820180546affffffffffffffffffffff19166001600160581b039290921691909117905560808201516127d990613238565b81546001600160581b0391909116600160801b026affffffffffffffffffffff60801b19909116178155606082015161281190612cfe565b815463ffffffff91909116600160d81b0263ffffffff60d81b19909116178155821561285d57600061284284610d8a565b905061284e858261324e565b61285b610fee8683612e52565b505b8361ffff167fef25641e225e493886510ca1ad6584fa7b442b9fea820a29d1de3ce27d270fd28360a001518460c001518560e001516040516128a193929190614c33565b60405180910390a250505050565b600080610b0f60066115ce565b60008082126128cc575080610b0f565b825160208401516128e3919061211490859061118d565b9050610b0f565b60006305f5e10083604001511415612903575080610b0f565b6110786305f5e10061211485604001518561118d90919063ffffffff16565b600061292c613285565b83516001600160a01b0316600090815260208290526040902054909150808311612957575050610924565b60006129628661309d565b90506000816001600160a01b031663b5e4da238487036040518263ffffffff1660e01b815260040161299491906149a8565b60006040518083038186803b1580156129ac57600080fd5b505afa1580156129c0573d6000803e3d6000fd5b505050506040513d6000823e601f3d908101601f191682016040526129e891908101906145a5565b905060006129f68783613292565b9050612a0284826131d8565b861115612a0e57600080fd5b5050505050505050565b826001600160a01b031663a9059cbb83836040518363ffffffff1660e01b815260040180836001600160a01b0316815260200182815260200192505050600060405180830381600087803b158015612a6f57600080fd5b505af1158015612a83573d6000803e3d6000fd5b50505050610924612d7c565b600080612a9a6134d5565b6000938452602052505060409020546001600160a01b031690565b600080600080612ac36134e2565b6001600160a01b0395909516600090815260209590955250506040909220546001600160601b03811693600160601b82046001600160801b03169350600160e01b90910463ffffffff169150565b6000806000612b2086856134ef565b50915091506000612b2f6134e2565b6001600160a01b0388166000908152602082905260408120919250612b5485896114ea565b905080600013158015612b6d57506001600160601b0381105b612b7657600080fd5b81546bffffffffffffffffffffffff19166001600160601b038216176fffffffffffffffffffffffffffffffff60601b1916600160601b6001600160801b0386160217825563ffffffff8710612bcb57600080fd5b50805463ffffffff8716600160e01b026001600160e01b03909116179055509150509392505050565b60008460e00151600014612c0757600080fd5b612c43612c3c866101000151612c36670de0b6b3a764000061156688612c308c60400151610c4e565b906120a1565b90612de9565b82906131d8565b9050612c5b670de0b6b3a764000061156684866120a1565b85610100018181525050949350505050565b600080612c78611dd9565b6001600160a01b0384166000908152602082905260409020805491925090600160f81b900460ff1615612cd457612cad613585565b6001600160a01b038086166000908152602092909252604090912054169250610a16915050565b600092505050610a16565b61067d73019be259bc299f3f653688c7655c87f998bc7bc18383612a18565b600063ffffffff821115610c5d57600080fd5b60006001600160501b03821115610c5d57600080fd5b6000612d338683613592565b9050610ea2868686612d4587866135cb565b613652565b60006a7fffffffffffffffffffff198212801590612d7357506a7fffffffffffffffffffff8213155b610c5d57600080fd5b6000612d866142cf565b3d8015612d9a5760208114612da357600080fd5b60019250612dae565b60206000833e815192505b508161067d576040805162461bcd60e51b8152602060048201526005602482015264045524332360dc1b604482015290519081900360640190fd5b600082821115612df857600080fd5b50900390565b60006305f5e10083604001511415612e17575080610b0f565b604083015161107890612114846305f5e10061118d565b8151600090819061211a90612114856ec097ce7bc90715b34b9f100000000061118d565b6000612e5c6115c5565b61ffff8416600090815260209190915260409081902054905163ad1c095d60e01b81526001600160a01b039091169150819063ad1c095d90612ea490879086906004016148ba565b600060405180830381600087803b158015612ebe57600080fd5b505af1158015612a0e573d6000803e3d6000fd5b6000612edc612086565b61ffff8516600090815260209190915260409020805490915064ffffffffff164214612f0757600080fd5b8054600090612f2690600160281b90046001600160581b0316856114ea565b8254909150600090612f4890600160801b90046001600160581b0316856114ea565b905080624c4b401315612f5a57600080fd5b612f6b612f6682610c4e565b613238565b83546001600160581b0391909116600160801b026affffffffffffffffffffff60801b19909116178355612fa1612f6683610c4e565b83546001600160581b0391909116600160281b026fffffffffffffffffffffff000000000019909116178355612fd683613686565b505050505050565b6000612fe8613285565b6001600160a01b0384166000908152602082905260409020549091506130116103a182856114ea565b6001600160a01b03909416600090815260209290925250604090209190915550565b6000816000191480156130495750600160ff1b83145b1561305357600080fd5b81838161305c57fe5b059392505050565b60008183126130735781611078565b5090919050565b80820382811315600083121514610b0f57600080fd5b600080610b0f60076115ce565b6000806130a8613751565b61ffff939093166000908152602093909352505060409020546001600160a01b031690565b6000806000806000806130e0898861375e565b89519095509193509150600090613107906130fc908b90612de9565b633b9aca00906120a1565b90506131416131366301da9c0061311e85856120a1565b8161312557fe5b670de0b6b3a76400009190046131d8565b60e08a015190613207565b96506131636131586301da9c0061311e87856120a1565b60c08a015190613207565b95508183141561317a5750600093506131cf915050565b600061319c6131916301da9c0061311e87866120a1565b60e08b015190613207565b905060006131aa8983612de9565b90506131c788611566838d604001516120a190919063ffffffff16565b965050505050505b93509350935093565b60008282018381101561107857600080fd5b600061107861320184670de0b6b3a76400006120a1565b836120c8565b600061107861321684846120a1565b670de0b6b3a76400006120c8565b600064ffffffffff821115610c5d57600080fd5b60006001600160581b03821115610c5d57600080fd5b600081121561325c57600080fd5b600061326a610fee846137f8565b905061327681836114ea565b9050610924610fee8483613851565b600080610b0f60266115ce565b6000805b82518110156134ce5760008382815181106132ad57fe5b60200260200101519050600081606001516001600160a01b03166370a08231306040518263ffffffff1660e01b81526004016132e99190614883565b60206040518083038186803b15801561330157600080fd5b505afa158015613315573d6000803e3d6000fd5b505050506040513d601f19601f8201168201806040525081019061333991906146e0565b9050600061334787306138c5565b905060005b835151811015613398576133908460000151828151811061336957fe5b602002602001015160008660200151848151811061338357fe5b602002602001015161396f565b60010161334c565b5060006133a588306138c5565b905060006133b38284612de9565b905080856040015111156133c657600080fd5b60608501516040516370a0823160e01b81526000916001600160a01b0316906370a08231906133f9903090600401614883565b60206040518083038186803b15801561341157600080fd5b505afa158015613425573d6000803e3d6000fd5b505050506040513d601f19601f8201168201806040525081019061344991906146e0565b90508481111561345857600080fd5b608086015160ff161580159061347757506134738582612de9565b8214155b1561349257608086015161348f90829060ff166131d8565b90505b6134a186606001518683613aac565b6134ab88836131d8565b97506134bc8a600001518585613aac565b50506001909401935061329692505050565b5092915050565b600080610b0f60036115ce565b600080610b0f60116115ce565b60008060006134fd85612ab5565b9194509250905080841180156135135750600081115b801561351f5750600083115b1561357e57600061352f866113bf565b505050915050600061355a6135516305f5e100846120a190919063ffffffff16565b84880387613b29565b905061356684826131d8565b93506001600160801b03841061357b57600080fd5b50505b9250925092565b600080610b0f60126115ce565b6000808212156135c5576135c06001612181856020015161211487600001518761118d90919063ffffffff16565b611078565b50919050565b6000818314806135e85750600083121580156135e8575060008212155b156135f557506000610b0f565b600083131580156136065750816000125b15613612575081610b0f565b600082131580156136235750826000125b15613631576128e382610b01565b60008313158015613643575060008213155b156100a7576128e3838361307a565b8015610afb57835160208501516000916136719161211490859061118d565b905061367f84848484613b4b565b5050505050565b805460028201546000916136c891600160281b9091046001600160581b0316906136c2906001600160501b03600160501b82048116911661118d565b9061118d565b60018301546002840154919250600091613702916001600160581b0316906136c2906001600160501b03600160a01b82048116911661118d565b83549091506000906137399060016001600160581b03600160801b909204821601166ec097ce7bc90715b34b9f100000000061118d565b905080613746848461307a565b1315610afb57600080fd5b600080610b0f601f6115ce565b6000806000806000856020015111156137ab576137a861378f8660c0015187602001516120a190919063ffffffff16565b60e087015160408801516137a2916120a1565b90613c91565b90505b60006137b687613ca4565b90506137c28183613cd7565b945081156137d9576137d681866001613d90565b93505b60208601511561357b576137ed8583613e01565b925050509250925092565b6000806138036128af565b6001600160a01b03851660009081526020828152604080832061ffff8816845290915281208054600160a81b9004600a90810b900b945091925083121561384957600080fd5b505092915050565b600081121561385f57600080fd5b60006138696128af565b6001600160a01b03851660009081526020828152604080832061ffff88168452909152902090915061389a83612d4a565b8154600a9190910b6001600160581b0316600160a81b026001600160a81b0390911617905550505050565b60006003836060015160058111156138d957fe5b14156138f057506001600160a01b03811631610b0f565b82516040516370a0823160e01b81526001600160a01b03909116906370a082319061391f908590600401614883565b60206040518083038186803b15801561393757600080fd5b505afa15801561394b573d6000803e3d6000fd5b505050506040513d601f19601f820116820180604052508101906128e391906146e0565b600080846001600160a01b031684846040518082805190602001908083835b602083106139ad5780518252601f19909201916020918201910161398e565b6001836020036101000a03801982511681845116808217855250505050505090500191505060006040518083038185875af1925050503d8060008114613a0f576040519150601f19603f3d011682016040523d82523d6000602084013e613a14565b606091505b509150915081613a2382613e1a565b90612fd65760405162461bcd60e51b81526004018080602001828103825283818151815260200191508051906020019080838360005b83811015613a71578181015183820152602001613a59565b50505050905090810190601f168015613a9e5780820380516001836020036101000a031916815260200191505b509250505060405180910390fd5b6000613ab6613285565b6001600160a01b03851660009081526020829052604090205490915083811115613adf57600080fd5b6000613af6613aed86610d8a565b61218186610d8a565b9050613b056103a183836114ea565b6001600160a01b039096166000908152602093909352505060409020929092555050565b6000610b29826115666301da9c008188612c3089670de0b6b3a76400006120a1565b6000613b55612086565b61ffff8516600090815260209190915260409020805490915064ffffffffff164214613b8057600080fd5b8054600160f81b900460ff16613b9557600080fd5b6001810154600090613bb0906001600160581b0316856114ea565b8254909150600090613bd290600160281b90046001600160581b0316856114ea565b905081600919128015613be55750600082125b15613bef57600091505b80600919128015613c005750600081125b15613c09575060005b613c15612f6683610c4e565b6001840180546affffffffffffffffffffff19166001600160581b0392909216919091179055613c47612f6682610c4e565b83546001600160581b0391909116600160281b026fffffffffffffffffffffff000000000019909116178355613c7f87878688613f21565b613c8883613686565b50505050505050565b600061107861320184633b9aca006120a1565b613cac6142ed565b6000613cb6614035565b61ffff8416600090815260209190915260408120549150610a129082614042565b600080836080015111613ce957600080fd5b633b9aca00821115613cfa57600080fd5b82518211613d1957825160408401516128e391906115669085906120a1565b82602001518211613d575760408301518351602085015160608601516128e39392613d519281900391611566918803908590036120a1565b906131d8565b6110788360600151613d518560200151633b9aca00036115668760600151886080015103886020015188036120a190919063ffffffff16565b600080613daf60646115668760e00151876120a190919063ffffffff16565b90508460a00151811015613dc4575060a08401515b8460c00151811115613dd7575060c08401515b8215613de75761107384826131d8565b838111613df657808403611073565b600095945050505050565b6000611078613e1084846120a1565b633b9aca006120c8565b6060604482511015613e50575060408051808201909152600d81526c14da5b195b9d0814995d995c9d609a1b6020820152610a16565b6004820180519092602401906020811015613e6a57600080fd5b8101908080516040519392919084640100000000821115613e8a57600080fd5b908301906020820185811115613e9f57600080fd5b8251640100000000811182820188101715613eb957600080fd5b82525081516020918201929091019080838360005b83811015613ee6578181015183820152602001613ece565b50505050905090810190601f168015613f135780820380516001836020036101000a031916815260200191505b506040525050509050919050565b6000613f2b6115c5565b61ffff8516600090815260209190915260408120546001600160a01b03169150613f53614161565b61ffff8616600090815260209190915260409081902054905163ad1c095d60e01b81526001600160a01b039091169150819063ad1c095d90613f9b90899087906004016148ba565b600060405180830381600087803b158015613fb557600080fd5b505af1158015613fc9573d6000803e3d6000fd5b505060405163ad1c095d60e01b81526001600160a01b038516925063ad1c095d9150613ffb90899088906004016148ba565b600060405180830381600087803b15801561401557600080fd5b505af1158015614029573d6000803e3d6000fd5b50505050505050505050565b600080610b0f601b6115ce565b61404a6142ed565b6064633b9aca008360ff86166020811061406057fe5b1a028161406957fe5b0481526064633b9aca008360ff86166001016020811061408557fe5b1a028161408e57fe5b048160200181815250506140b38260028560ff1601602081106140ad57fe5b1a61416e565b60808201819052610100908360ff8616600301602081106140d057fe5b1a02816140d957fe5b0460408201526080810151610100908360ff8616600401602081106140fa57fe5b1a028161410357fe5b0460608201526207a1208260ff85166005016020811061411f57fe5b1a0260a0820152622625a08260ff85166006016020811061413c57fe5b1a0260c08201528160ff84166007016020811061415557fe5b1a60e082015292915050565b600080610b0f60226115ce565b60008160ff166096106141895760ff8216622625a002610b0f565b5060951960ff919091160162e4e1c00263165a0bc00190565b604051806101400160405280600061ffff16815260200160008152602001600081526020016000815260200160008152602001600081526020016000815260200160008152602001600081526020016141f9614233565b905290565b6040805160c081018252600080825260208201819052918101829052606081018290526080810182905260a081019190915290565b60405180606001604052806000815260200160008152602001600081525090565b6040805160a0810182526000808252602082018190529181018290529060608201908152602001600081525090565b6040518061012001604052806000815260200160008152602001600081526020016000815260200160008152602001600081526020016000815260200160008152602001600081525090565b60405180602001604052806001906020820280368337509192915050565b60405180610100016040528060008152602001600081526020016000815260200160008152602001600081526020016000815260200160008152602001600081525090565b8051610a1681614c8b565b600082601f83011261434d578081fd5b8151602061436261435d83614c6d565b614c49565b828152818101908583018385028701840188101561437e578586fd5b855b858110156143a557815161439381614c8b565b84529284019290840190600101614380565b5090979650505050505050565b6000601f83818401126143c3578182fd5b825160206143d361435d83614c6d565b82815281810190868301865b8581101561447857815189018a603f8201126143f9578889fd5b8581015167ffffffffffffffff81111561440f57fe5b614420818a01601f19168801614c49565b81815260408d81848601011115614435578b8cfd5b8b5b83811015614452578481018201518382018b01528901614437565b83811115614462578c8a85850101525b50508652505092840192908401906001016143df565b509098975050505050505050565b8051610a1681614ca3565b80516001600160701b031981168114610a1657600080fd5b80516001600160f81b031981168114610a1657600080fd5b8051610a1681614cb1565b80356001600160581b0381168114610a1657600080fd5b805160ff81168114610a1657600080fd5b600060208284031215614505578081fd5b813561107881614c8b565b600080600060608486031215614524578182fd5b833561452f81614c8b565b9250602084013561453f81614cb1565b929592945050506040919091013590565b600080600060608486031215614564578081fd5b833561456f81614c8b565b9250602084013561457f81614cb1565b915060408401356001600160601b038116811461459a578182fd5b809150509250925092565b600060208083850312156145b7578182fd5b825167ffffffffffffffff808211156145ce578384fd5b818501915085601f8301126145e1578384fd5b81516145ef61435d82614c6d565b81815284810190848601875b848110156146b5578151870160a0818d03601f1901121561461a57898afd5b6040805160a081018181108a8211171561463057fe5b8252828b015189811115614642578c8dfd5b6146508f8d8387010161433d565b8252508183015189811115614663578c8dfd5b6146718f8d838701016143b2565b8c8301525060608301518282015261468b60808401614332565b606082015261469c60a084016144e3565b60808201528652505092870192908701906001016145fb565b50909998505050505050505050565b6000602082840312156146d5578081fd5b813561107881614ca3565b6000602082840312156146f1578081fd5b5051919050565b600060c08284031215614709578081fd5b60405160c0810181811067ffffffffffffffff8211171561472657fe5b604052825164ffffffffff8116811461473d578283fd5b815261474b602084016144a9565b602082015261475c604084016144e3565b604082015261476d606084016144c1565b606082015261477e60808401614491565b608082015261478f60a08401614486565b60a08201529392505050565b6000602082840312156147ac578081fd5b813561107881614cb1565b600080600080600060a086880312156147ce578283fd5b85356147d981614cb1565b945060208601356147e981614c8b565b935060408601356147f981614c8b565b9250606086013561480981614c8b565b9150614817608087016144cc565b90509295509295909350565b600080600060608486031215614837578081fd5b833561484281614cb1565b9250614850602085016144cc565b9150604084013561459a81614ca3565b60008060408385031215614872578182fd5b505080516020909101519092909150565b6001600160a01b0391909116815260200190565b6001600160a01b0393841681529183166020830152909116604082015260600190565b6001600160a01b03929092168252602082015260400190565b600060e08201905060018060a01b038416825264ffffffffff835116602083015260ff60f81b602084015116604083015260ff604084015116606083015261ffff60608401511660808301526001600160701b031960808401511660a083015260a0830151151560c08301529392505050565b6001600160a01b0393909316835261ffff919091166020830152604082015260600190565b6001600160a01b0395909516855261ffff93909316602085015260408401919091526060830152608082015260a00190565b901515815260200190565b90815260200190565b6020808252600f908201526e04f76657220537570706c792043617608c1b604082015260600190565b6020808252600b908201526a4554482042616c616e636560a81b604082015260600190565b60208082526006908201526552656465656d60d01b604082015260600190565b60208082526012908201527143616e6e6f7420686176652061737365747360701b604082015260600190565b602080825260169082015275496e73756666696369656e7420616c6c6f77616e636560501b604082015260600190565b6020808252601390820152722ab730baba3437b934bd32b21031b0b63632b960691b604082015260600190565b6020808252600f908201526e4e6f205072696d6520426f72726f7760881b604082015260600190565b6020808252601c908201527f446570726563617465643a2052656465656d20746f2063546f6b656e00000000604082015260600190565b602080825260149082015273496e73756666696369656e742042616c616e636560601b604082015260600190565b602080825260149082015273043616e6e6f74206368616e6765206269746d61760641b604082015260600190565b60208082526010908201526f10d85b9b9bdd081a185d99481919589d60821b604082015260600190565b6020808252600a90820152692732b390372a37b5b2b760b11b604082015260600190565b602080825260139082015272125b9d985b1a590818dd5c9c995b98de481a59606a1b604082015260600190565b602080825260139082015272496e73756666696369656e7420746f6b656e7360681b604082015260600190565b6020808252600d908201526c04f76657220446562742043617609c1b604082015260600190565b9283526020830191909152604082015260600190565b60405181810167ffffffffffffffff81118282101715614c6557fe5b604052919050565b600067ffffffffffffffff821115614c8157fe5b5060209081020190565b6001600160a01b0381168114614ca057600080fd5b50565b8015158114614ca057600080fd5b61ffff81168114614ca057600080fdfea26469706673582212206a1faf394a6fc32a7e6c297ff83b8c92f6164d3ebc5aa8e2b6538fb122d2f16564736f6c63430007060033","language":"Solidity","natspec":{"kind":"dev","methods":{"depositAssetToken(address,uint16,uint256)":{"details":"emit:CashBalanceChange emit:AccountContextUpdateauth:none","notice":"DEPRECATED: deposits deprecated cTokens tokens as collateral into an account that were listed prior to the migration to prime cash. Future listed tokens will not have asset tokens and will revert in this method.","params":{"account":"the account to deposit into","amountExternalPrecision":"the amount of asset tokens in its native decimal precision (i.e. 8 decimals for cTokens).","currencyId":"currency id of the asset token"},"returns":{"_0":"asset tokens minted and deposited to the account in internal decimals (8)"}},"depositUnderlyingToken(address,uint16,uint256)":{"details":"emit:CashBalanceChange emit:AccountContextUpdateauth:none","notice":"Deposits and wraps the underlying token for a particular cToken. Does not settle assets or check free collateral, idea is to be as gas efficient as possible during potential liquidation events.","params":{"account":"the account to deposit into","amountExternalPrecision":"the amount of underlying tokens in its native decimal precision (i.e. 18 decimals for DAI or 6 decimals for USDC). This will be converted to 8 decimals during transfer.","currencyId":"currency id of the asset token that wraps this underlying"},"returns":{"_0":"asset tokens minted and deposited to the account in internal decimals (8)"}},"enableBitmapCurrency(uint16)":{"details":"emit:AccountSettled emit:AccountContextUpdateauth:msg.sender","notice":"Enables a bitmap currency for msg.sender, account cannot have any assets when this call occurs. Will revert if the account already has a bitmap currency set.","params":{"currencyId":"the currency to enable the bitmap for."}},"enablePrimeBorrow(bool)":{"details":"emit:AccountSettled emit:AccountContextUpdateauth:msg.sender","notice":"A per account setting that allows it to borrow prime cash (i.e. incur negative cash) as a result of account initiated actions. Accounts can still incur negative cash as a result of fCash settlement regardless of this setting.","params":{"allowPrimeBorrow":"true if the account can borrow prime cash"}},"getLibInfo()":{"notice":"Get a list of deployed library addresses (sorted by library name)"},"nTokenRedeem(address,uint16,uint96)":{"details":"auth:msg.sender auth:ERC1155","notice":"Allows accounts to redeem nTokens to prime cash while the supply cap is breached. This method does not withdraw any tokens from the contract. Will revert if fCash cannot be sold back into the market.","params":{"currencyId":"the currency associated the nToken","redeemer":"the address that holds the nTokens to redeem","tokensToRedeem_":"the amount of nTokens to convert to cash"},"returns":{"_0":"total amount of prime cash redeemed"}},"settleAccount(address)":{"details":"emit:AccountSettled emit:AccountContextUpdateauth:none","notice":"Method for manually settling an account, generally should not be called because other methods will check if an account needs to be settled automatically. If a bitmap account has debt and is settled via this method, the hasDebt flag will not be cleared until a free collateral check is performed on the account.","params":{"account":"the account to settle"},"returns":{"_0":"returns true if account has been settled"}},"withdraw(uint16,uint88,bool)":{"details":"emit:CashBalanceChange emit:AccountContextUpdateauth:msg.sender","notice":"Withdraws balances from Notional, may also redeem to underlying tokens on user request. Will settle and do free collateral checks if required. Can only be called by msg.sender, operators who want to withdraw for an account must do an authenticated call via ERC1155Action `safeTransferFrom` or `safeBatchTransferFrom`","params":{"amountInternalPrecision":"the amount of cash balance in internal 8 decimal precision to withdraw, this is be denominated in prime cash. If set to uint88 max, will withdraw an entire cash balance.","currencyId":"currency id of the asset token","redeemToUnderlying":"DEPRECATED except for ETH balances. Prior to the prime cash upgrade, accounts could withdraw cTokens directly. However, post prime cash migration this is no longer the case. If withdrawing ETH, setting redeemToUnderlying to false will redeem ETH as WETH."},"returns":{"_0":"the amount of tokens received by the account denominated in the destination token precision (if"}}},"version":1},"opcodes":"PUSH1 0x80 PUSH1 0x40 MSTORE PUSH1 0x4 CALLDATASIZE LT PUSH2 0xA7 JUMPI PUSH1 0x0 CALLDATALOAD PUSH1 0xE0 SHR DUP1 PUSH4 0x8DA5CB5B GT PUSH2 0x64 JUMPI DUP1 PUSH4 0x8DA5CB5B EQ PUSH2 0x16E JUMPI DUP1 PUSH4 0x912E33C7 EQ PUSH2 0x183 JUMPI DUP1 PUSH4 0x9C979450 EQ PUSH2 0x1A3 JUMPI DUP1 PUSH4 0xB8A69455 EQ PUSH2 0x1C3 JUMPI DUP1 PUSH4 0xC4C96DAE EQ PUSH2 0x1E3 JUMPI DUP1 PUSH4 0xF667F897 EQ PUSH2 0x207 JUMPI PUSH2 0xA7 JUMP JUMPDEST DUP1 PUSH4 0x2F332E8 EQ PUSH2 0xAC JUMPI DUP1 PUSH4 0x24A3D622 EQ PUSH2 0xE2 JUMPI DUP1 PUSH4 0x2890FB65 EQ PUSH2 0x104 JUMPI DUP1 PUSH4 0x56A273DD EQ PUSH2 0x117 JUMPI DUP1 PUSH4 0x61D0D61C EQ PUSH2 0x137 JUMPI DUP1 PUSH4 0x82463367 EQ PUSH2 0x159 JUMPI JUMPDEST PUSH1 0x0 DUP1 REVERT JUMPDEST CALLVALUE DUP1 ISZERO PUSH2 0xB8 JUMPI PUSH1 0x0 DUP1 REVERT JUMPDEST POP PUSH2 0xCC PUSH2 0xC7 CALLDATASIZE PUSH1 0x4 PUSH2 0x4823 JUMP JUMPDEST PUSH2 0x234 JUMP JUMPDEST PUSH1 0x40 MLOAD PUSH2 0xD9 SWAP2 SWAP1 PUSH2 0x49A8 JUMP JUMPDEST PUSH1 0x40 MLOAD DUP1 SWAP2 SUB SWAP1 RETURN JUMPDEST CALLVALUE DUP1 ISZERO PUSH2 0xEE JUMPI PUSH1 0x0 DUP1 REVERT JUMPDEST POP PUSH2 0xF7 PUSH2 0x3B6 JUMP JUMPDEST PUSH1 0x40 MLOAD PUSH2 0xD9 SWAP2 SWAP1 PUSH2 0x4883 JUMP JUMPDEST PUSH2 0xCC PUSH2 0x112 CALLDATASIZE PUSH1 0x4 PUSH2 0x4510 JUMP JUMPDEST PUSH2 0x3C5 JUMP JUMPDEST CALLVALUE DUP1 ISZERO PUSH2 0x123 JUMPI PUSH1 0x0 DUP1 REVERT JUMPDEST POP PUSH2 0xCC PUSH2 0x132 CALLDATASIZE PUSH1 0x4 PUSH2 0x4550 JUMP JUMPDEST PUSH2 0x469 JUMP JUMPDEST CALLVALUE DUP1 ISZERO PUSH2 0x143 JUMPI PUSH1 0x0 DUP1 REVERT JUMPDEST POP PUSH2 0x157 PUSH2 0x152 CALLDATASIZE PUSH1 0x4 PUSH2 0x46C4 JUMP JUMPDEST PUSH2 0x647 JUMP JUMPDEST STOP JUMPDEST CALLVALUE DUP1 ISZERO PUSH2 0x165 JUMPI PUSH1 0x0 DUP1 REVERT JUMPDEST POP PUSH2 0xF7 PUSH2 0x681 JUMP JUMPDEST CALLVALUE DUP1 ISZERO PUSH2 0x17A JUMPI PUSH1 0x0 DUP1 REVERT JUMPDEST POP PUSH2 0xF7 PUSH2 0x690 JUMP JUMPDEST CALLVALUE DUP1 ISZERO PUSH2 0x18F JUMPI PUSH1 0x0 DUP1 REVERT JUMPDEST POP PUSH2 0xCC PUSH2 0x19E CALLDATASIZE PUSH1 0x4 PUSH2 0x47B7 JUMP JUMPDEST PUSH2 0x6A7 JUMP JUMPDEST CALLVALUE DUP1 ISZERO PUSH2 0x1AF JUMPI PUSH1 0x0 DUP1 REVERT JUMPDEST POP PUSH2 0x157 PUSH2 0x1BE CALLDATASIZE PUSH1 0x4 PUSH2 0x479B JUMP JUMPDEST PUSH2 0x8DC JUMP JUMPDEST CALLVALUE DUP1 ISZERO PUSH2 0x1CF JUMPI PUSH1 0x0 DUP1 REVERT JUMPDEST POP PUSH2 0xCC PUSH2 0x1DE CALLDATASIZE PUSH1 0x4 PUSH2 0x4510 JUMP JUMPDEST PUSH2 0x929 JUMP JUMPDEST CALLVALUE DUP1 ISZERO PUSH2 0x1EF JUMPI PUSH1 0x0 DUP1 REVERT JUMPDEST POP PUSH2 0x1F8 PUSH2 0x9A3 JUMP JUMPDEST PUSH1 0x40 MLOAD PUSH2 0xD9 SWAP4 SWAP3 SWAP2 SWAP1 PUSH2 0x4897 JUMP JUMPDEST CALLVALUE DUP1 ISZERO PUSH2 0x213 JUMPI PUSH1 0x0 DUP1 REVERT JUMPDEST POP PUSH2 0x227 PUSH2 0x222 CALLDATASIZE PUSH1 0x4 PUSH2 0x44F4 JUMP JUMPDEST PUSH2 0x9E7 JUMP JUMPDEST PUSH1 0x40 MLOAD PUSH2 0xD9 SWAP2 SWAP1 PUSH2 0x499D JUMP JUMPDEST PUSH1 0x0 PUSH1 0x2 PUSH1 0xA SLOAD EQ ISZERO PUSH2 0x246 JUMPI PUSH1 0x0 DUP1 REVERT JUMPDEST PUSH1 0x2 PUSH1 0xA SSTORE PUSH2 0xFFFF DUP5 AND PUSH1 0x1 EQ PUSH2 0x27D JUMPI DUP2 PUSH2 0x27D JUMPI PUSH1 0x40 MLOAD PUSH3 0x461BCD PUSH1 0xE5 SHL DUP2 MSTORE PUSH1 0x4 ADD PUSH2 0x274 SWAP1 PUSH2 0x4AD1 JUMP JUMPDEST PUSH1 0x40 MLOAD DUP1 SWAP2 SUB SWAP1 REVERT JUMPDEST PUSH1 0x0 PUSH2 0x288 CALLER PUSH2 0xA1B JUMP JUMPDEST POP SWAP1 POP PUSH2 0x293 PUSH2 0x41A2 JUMP JUMPDEST PUSH2 0x29F DUP2 CALLER DUP9 DUP6 PUSH2 0xAE0 JUMP JUMPDEST PUSH1 0x1 PUSH1 0x1 PUSH1 0x58 SHL SUB DUP6 DUP2 AND EQ ISZERO PUSH2 0x2D8 JUMPI PUSH1 0x0 DUP2 PUSH1 0x20 ADD MLOAD SGT PUSH2 0x2C1 JUMPI PUSH1 0x0 DUP1 REVERT JUMPDEST PUSH2 0x2CE DUP2 PUSH1 0x20 ADD MLOAD PUSH2 0xB01 JUMP JUMPDEST PUSH1 0x80 DUP3 ADD MSTORE PUSH2 0x2F0 JUMP JUMPDEST PUSH2 0x2EA DUP6 PUSH1 0x1 PUSH1 0x1 PUSH1 0x58 SHL SUB AND PUSH2 0xB01 JUMP JUMPDEST PUSH1 0x80 DUP3 ADD MSTORE JUMPDEST PUSH1 0x0 PUSH2 0x2FF DUP3 CALLER DUP6 DUP9 ISZERO PUSH2 0xB15 JUMP JUMPDEST SWAP1 POP PUSH2 0x30B DUP4 CALLER PUSH2 0xB31 JUMP JUMPDEST PUSH1 0x20 DUP4 ADD MLOAD PUSH1 0x1 PUSH1 0x1 PUSH1 0xF8 SHL SUB NOT AND ISZERO PUSH2 0x387 JUMPI PUSH1 0x40 MLOAD PUSH4 0x6CCC642F PUSH1 0xE0 SHL DUP2 MSTORE PUSH20 0x0 SWAP1 PUSH4 0x6CCC642F SWAP1 PUSH2 0x356 SWAP1 CALLER SWAP1 PUSH1 0x4 ADD PUSH2 0x4883 JUMP JUMPDEST PUSH1 0x0 PUSH1 0x40 MLOAD DUP1 DUP4 SUB DUP2 DUP7 DUP1 EXTCODESIZE ISZERO DUP1 ISZERO PUSH2 0x36E JUMPI PUSH1 0x0 DUP1 REVERT JUMPDEST POP GAS DELEGATECALL ISZERO DUP1 ISZERO PUSH2 0x382 JUMPI RETURNDATASIZE PUSH1 0x0 DUP1 RETURNDATACOPY RETURNDATASIZE PUSH1 0x0 REVERT JUMPDEST POP POP POP POP JUMPDEST PUSH1 0x0 DUP2 SGT ISZERO PUSH2 0x395 JUMPI PUSH1 0x0 DUP1 REVERT JUMPDEST PUSH2 0x3A6 PUSH2 0x3A1 DUP3 PUSH2 0xB01 JUMP JUMPDEST PUSH2 0xC4E JUMP JUMPDEST PUSH1 0x1 PUSH1 0xA SSTORE SWAP8 SWAP7 POP POP POP POP POP POP POP JUMP JUMPDEST PUSH1 0x2 SLOAD PUSH1 0x1 PUSH1 0x1 PUSH1 0xA0 SHL SUB AND DUP2 JUMP JUMPDEST PUSH1 0x0 PUSH1 0x2 PUSH1 0xA SLOAD EQ ISZERO PUSH2 0x3D7 JUMPI PUSH1 0x0 DUP1 REVERT JUMPDEST PUSH1 0x2 PUSH1 0xA SSTORE CALLER ADDRESS EQ ISZERO PUSH2 0x3E9 JUMPI PUSH1 0x0 DUP1 REVERT JUMPDEST PUSH2 0x3F2 DUP5 PUSH2 0xC61 JUMP JUMPDEST PUSH1 0x0 PUSH2 0x3FD DUP6 PUSH2 0xCDC JUMP JUMPDEST SWAP1 POP PUSH2 0x407 PUSH2 0x41A2 JUMP JUMPDEST PUSH2 0x413 DUP2 DUP8 DUP8 DUP6 PUSH2 0xAE0 JUMP JUMPDEST PUSH1 0x0 PUSH2 0x42C CALLER PUSH2 0x422 DUP8 PUSH2 0xD8A JUMP JUMPDEST DUP5 SWAP2 SWAP1 PUSH1 0x0 PUSH2 0xDA0 JUMP JUMPDEST SWAP1 POP PUSH1 0x0 DUP2 SGT PUSH2 0x43B JUMPI PUSH1 0x0 DUP1 REVERT JUMPDEST PUSH2 0x446 DUP3 DUP9 DUP6 PUSH2 0xDF2 JUMP JUMPDEST PUSH2 0x450 DUP4 DUP9 PUSH2 0xB31 JUMP JUMPDEST PUSH2 0x120 DUP3 ADD MLOAD PUSH2 0x460 SWAP1 DUP8 PUSH2 0xE11 JUMP JUMPDEST PUSH2 0x3A6 DUP2 PUSH2 0xC4E JUMP JUMPDEST PUSH1 0x0 PUSH1 0x2 PUSH1 0xA SLOAD EQ ISZERO PUSH2 0x47B JUMPI PUSH1 0x0 DUP1 REVERT JUMPDEST PUSH1 0x2 PUSH1 0xA SSTORE CALLER PUSH1 0x1 PUSH1 0x1 PUSH1 0xA0 SHL SUB DUP6 AND EQ DUP1 PUSH2 0x496 JUMPI POP CALLER ADDRESS EQ JUMPDEST PUSH2 0x4B2 JUMPI PUSH1 0x40 MLOAD PUSH3 0x461BCD PUSH1 0xE5 SHL DUP2 MSTORE PUSH1 0x4 ADD PUSH2 0x274 SWAP1 PUSH2 0x4A7B JUMP JUMPDEST PUSH1 0x1 PUSH1 0x1 PUSH1 0x60 SHL SUB DUP3 AND PUSH1 0x0 PUSH2 0x4C7 DUP7 PUSH2 0xA1B JUMP JUMPDEST POP SWAP1 POP PUSH2 0x4D2 PUSH2 0x41A2 JUMP JUMPDEST PUSH2 0x4DE DUP2 DUP9 DUP9 DUP6 PUSH2 0xAE0 JUMP JUMPDEST DUP3 DUP2 PUSH1 0x40 ADD MLOAD SLT ISZERO PUSH2 0x502 JUMPI PUSH1 0x40 MLOAD PUSH3 0x461BCD PUSH1 0xE5 SHL DUP2 MSTORE PUSH1 0x4 ADD PUSH2 0x274 SWAP1 PUSH2 0x4BDF JUMP JUMPDEST PUSH2 0x50B DUP4 PUSH2 0xB01 JUMP JUMPDEST PUSH1 0xC0 DUP3 ADD MSTORE PUSH1 0x40 MLOAD PUSH4 0xE22AAA3 PUSH1 0xE0 SHL DUP2 MSTORE PUSH1 0x0 SWAP1 PUSH20 0x0 SWAP1 PUSH4 0xE22AAA3 SWAP1 PUSH2 0x54E SWAP1 DUP12 SWAP1 DUP12 SWAP1 DUP10 SWAP1 PUSH1 0x4 ADD PUSH2 0x4946 JUMP JUMPDEST PUSH1 0x20 PUSH1 0x40 MLOAD DUP1 DUP4 SUB DUP2 DUP7 DUP1 EXTCODESIZE ISZERO DUP1 ISZERO PUSH2 0x566 JUMPI PUSH1 0x0 DUP1 REVERT JUMPDEST POP GAS DELEGATECALL ISZERO DUP1 ISZERO PUSH2 0x57A JUMPI RETURNDATASIZE PUSH1 0x0 DUP1 RETURNDATACOPY RETURNDATASIZE PUSH1 0x0 REVERT JUMPDEST POP POP POP POP PUSH1 0x40 MLOAD RETURNDATASIZE PUSH1 0x1F NOT PUSH1 0x1F DUP3 ADD AND DUP3 ADD DUP1 PUSH1 0x40 MSTORE POP DUP2 ADD SWAP1 PUSH2 0x59E SWAP2 SWAP1 PUSH2 0x46E0 JUMP JUMPDEST PUSH1 0x60 DUP4 ADD DUP2 SWAP1 MSTORE SWAP1 POP PUSH2 0x5B2 DUP3 DUP10 DUP6 PUSH2 0xDF2 JUMP JUMPDEST PUSH2 0x5BC DUP4 DUP10 PUSH2 0xB31 JUMP JUMPDEST PUSH1 0x20 DUP4 ADD MLOAD PUSH1 0x1 PUSH1 0x1 PUSH1 0xF8 SHL SUB NOT AND ISZERO PUSH2 0x3A6 JUMPI PUSH1 0x40 MLOAD PUSH4 0x6CCC642F PUSH1 0xE0 SHL DUP2 MSTORE PUSH20 0x0 SWAP1 PUSH4 0x6CCC642F SWAP1 PUSH2 0x607 SWAP1 DUP12 SWAP1 PUSH1 0x4 ADD PUSH2 0x4883 JUMP JUMPDEST PUSH1 0x0 PUSH1 0x40 MLOAD DUP1 DUP4 SUB DUP2 DUP7 DUP1 EXTCODESIZE ISZERO DUP1 ISZERO PUSH2 0x61F JUMPI PUSH1 0x0 DUP1 REVERT JUMPDEST POP GAS DELEGATECALL ISZERO DUP1 ISZERO PUSH2 0x633 JUMPI RETURNDATASIZE PUSH1 0x0 DUP1 RETURNDATACOPY RETURNDATASIZE PUSH1 0x0 REVERT JUMPDEST POP POP POP POP PUSH1 0x1 PUSH1 0xA SSTORE SWAP8 SWAP7 POP POP POP POP POP POP POP JUMP JUMPDEST CALLER ADDRESS EQ ISZERO PUSH2 0x654 JUMPI PUSH1 0x0 DUP1 REVERT JUMPDEST PUSH2 0x65D CALLER PUSH2 0xC61 JUMP JUMPDEST PUSH1 0x0 PUSH2 0x668 CALLER PUSH2 0xA1B JUMP JUMPDEST POP DUP3 ISZERO ISZERO PUSH1 0xA0 DUP3 ADD MSTORE SWAP1 POP PUSH2 0x67D DUP2 CALLER PUSH2 0xB31 JUMP JUMPDEST POP POP JUMP JUMPDEST PUSH1 0x1 SLOAD PUSH1 0x1 PUSH1 0x1 PUSH1 0xA0 SHL SUB AND DUP2 JUMP JUMPDEST PUSH1 0x0 SLOAD PUSH5 0x100000000 SWAP1 DIV PUSH1 0x1 PUSH1 0x1 PUSH1 0xA0 SHL SUB AND DUP2 JUMP JUMPDEST PUSH1 0x0 PUSH1 0x2 PUSH1 0xA SLOAD EQ ISZERO PUSH2 0x6B9 JUMPI PUSH1 0x0 DUP1 REVERT JUMPDEST PUSH1 0x2 PUSH1 0xA SSTORE PUSH1 0x0 PUSH2 0x6C9 DUP8 PUSH2 0xE54 JUMP JUMPDEST SWAP1 POP CALLER PUSH1 0x1 PUSH1 0x1 PUSH1 0xA0 SHL SUB DUP3 AND EQ PUSH2 0x6E0 JUMPI PUSH1 0x0 DUP1 REVERT JUMPDEST PUSH2 0x6E9 DUP7 PUSH2 0xC61 JUMP JUMPDEST DUP4 PUSH1 0x1 PUSH1 0x1 PUSH1 0xA0 SHL SUB AND DUP7 PUSH1 0x1 PUSH1 0x1 PUSH1 0xA0 SHL SUB AND EQ PUSH2 0x7B1 JUMPI PUSH1 0x0 PUSH2 0x70C PUSH2 0xE81 JUMP JUMPDEST PUSH1 0x1 PUSH1 0x1 PUSH1 0xA0 SHL SUB DUP1 DUP10 AND PUSH1 0x0 SWAP1 DUP2 MSTORE PUSH1 0x20 SWAP3 DUP4 MSTORE PUSH1 0x40 DUP1 DUP3 KECCAK256 SWAP3 DUP10 AND DUP3 MSTORE SWAP2 DUP4 MSTORE DUP2 DUP2 KECCAK256 PUSH2 0xFFFF DUP13 AND DUP3 MSTORE SWAP1 SWAP3 MSTORE SWAP1 KECCAK256 SLOAD SWAP1 POP PUSH1 0x1 PUSH1 0x1 PUSH1 0x58 SHL SUB DUP5 AND DUP2 LT ISZERO PUSH2 0x769 JUMPI PUSH1 0x40 MLOAD PUSH3 0x461BCD PUSH1 0xE5 SHL DUP2 MSTORE PUSH1 0x4 ADD PUSH2 0x274 SWAP1 PUSH2 0x4A4B JUMP JUMPDEST DUP4 PUSH1 0x1 PUSH1 0x1 PUSH1 0x58 SHL SUB AND DUP2 SUB PUSH2 0x77D PUSH2 0xE81 JUMP JUMPDEST PUSH1 0x1 PUSH1 0x1 PUSH1 0xA0 SHL SUB DUP1 DUP11 AND PUSH1 0x0 SWAP1 DUP2 MSTORE PUSH1 0x20 SWAP3 DUP4 MSTORE PUSH1 0x40 DUP1 DUP3 KECCAK256 SWAP3 DUP11 AND DUP3 MSTORE SWAP2 DUP4 MSTORE DUP2 DUP2 KECCAK256 PUSH2 0xFFFF DUP14 AND DUP3 MSTORE SWAP1 SWAP3 MSTORE SWAP1 KECCAK256 SSTORE POP JUMPDEST PUSH1 0x0 PUSH2 0x7BC DUP8 PUSH2 0xA1B JUMP JUMPDEST POP SWAP1 POP PUSH2 0x7C7 PUSH2 0x41A2 JUMP JUMPDEST PUSH2 0x7D3 DUP2 DUP10 DUP12 DUP6 PUSH2 0xAE0 JUMP JUMPDEST DUP1 PUSH1 0x20 ADD MLOAD DUP6 PUSH1 0x1 PUSH1 0x1 PUSH1 0x58 SHL SUB AND SGT ISZERO PUSH2 0x800 JUMPI PUSH1 0x40 MLOAD PUSH3 0x461BCD PUSH1 0xE5 SHL DUP2 MSTORE PUSH1 0x4 ADD PUSH2 0x274 SWAP1 PUSH2 0x4B08 JUMP JUMPDEST PUSH2 0x812 DUP6 PUSH1 0x1 PUSH1 0x1 PUSH1 0x58 SHL SUB AND PUSH2 0xB01 JUMP JUMPDEST PUSH1 0x80 DUP3 ADD MSTORE PUSH1 0x0 PUSH2 0x827 DUP3 DUP11 DUP11 DUP7 PUSH1 0x1 PUSH2 0xE8E JUMP JUMPDEST SWAP1 POP PUSH2 0x833 DUP4 DUP11 PUSH2 0xB31 JUMP JUMPDEST PUSH1 0x20 DUP4 ADD MLOAD PUSH1 0x1 PUSH1 0x1 PUSH1 0xF8 SHL SUB NOT AND ISZERO PUSH2 0x8AF JUMPI PUSH1 0x40 MLOAD PUSH4 0x6CCC642F PUSH1 0xE0 SHL DUP2 MSTORE PUSH20 0x0 SWAP1 PUSH4 0x6CCC642F SWAP1 PUSH2 0x87E SWAP1 DUP13 SWAP1 PUSH1 0x4 ADD PUSH2 0x4883 JUMP JUMPDEST PUSH1 0x0 PUSH1 0x40 MLOAD DUP1 DUP4 SUB DUP2 DUP7 DUP1 EXTCODESIZE ISZERO DUP1 ISZERO PUSH2 0x896 JUMPI PUSH1 0x0 DUP1 REVERT JUMPDEST POP GAS DELEGATECALL ISZERO DUP1 ISZERO PUSH2 0x8AA JUMPI RETURNDATASIZE PUSH1 0x0 DUP1 RETURNDATACOPY RETURNDATASIZE PUSH1 0x0 REVERT JUMPDEST POP POP POP POP JUMPDEST PUSH1 0x0 DUP2 SGT ISZERO PUSH2 0x8BD JUMPI PUSH1 0x0 DUP1 REVERT JUMPDEST PUSH2 0x8C9 PUSH2 0x3A1 DUP3 PUSH2 0xB01 JUMP JUMPDEST PUSH1 0x1 PUSH1 0xA SSTORE SWAP11 SWAP10 POP POP POP POP POP POP POP POP POP POP JUMP JUMPDEST CALLER ADDRESS EQ ISZERO PUSH2 0x8E9 JUMPI PUSH1 0x0 DUP1 REVERT JUMPDEST PUSH1 0x0 SLOAD PUSH2 0xFFFF SWAP1 DUP2 AND SWAP1 DUP3 AND GT ISZERO PUSH2 0x900 JUMPI PUSH1 0x0 DUP1 REVERT JUMPDEST CALLER PUSH1 0x0 PUSH2 0x90C DUP3 PUSH2 0xA1B JUMP JUMPDEST POP SWAP1 POP PUSH2 0x91A DUP2 DUP5 TIMESTAMP PUSH2 0xEAB JUMP JUMPDEST PUSH2 0x924 DUP2 DUP4 PUSH2 0xB31 JUMP JUMPDEST POP POP POP JUMP JUMPDEST PUSH1 0x0 PUSH1 0x2 PUSH1 0xA SLOAD EQ ISZERO PUSH2 0x93B JUMPI PUSH1 0x0 DUP1 REVERT JUMPDEST PUSH1 0x2 PUSH1 0xA SSTORE CALLER ADDRESS EQ ISZERO PUSH2 0x94D JUMPI PUSH1 0x0 DUP1 REVERT JUMPDEST CALLER PUSH1 0x1 PUSH1 0x1 PUSH1 0xA0 SHL SUB DUP6 AND EQ PUSH2 0x962 JUMPI PUSH1 0x0 DUP1 REVERT JUMPDEST PUSH2 0x96B DUP5 PUSH2 0xC61 JUMP JUMPDEST PUSH1 0x0 PUSH2 0x976 DUP6 PUSH2 0xCDC JUMP JUMPDEST SWAP1 POP PUSH2 0x980 PUSH2 0x41A2 JUMP JUMPDEST PUSH2 0x98C DUP2 DUP8 DUP8 DUP6 PUSH2 0xAE0 JUMP JUMPDEST PUSH1 0x0 PUSH2 0x42C DUP8 PUSH2 0x99B DUP8 PUSH2 0xD8A JUMP JUMPDEST DUP5 SWAP2 SWAP1 PUSH2 0xFA3 JUMP JUMPDEST PUSH20 0x0 PUSH20 0x0 PUSH20 0x0 SWAP1 SWAP2 SWAP3 JUMP JUMPDEST PUSH1 0x0 PUSH2 0x9F2 DUP3 PUSH2 0xC61 JUMP JUMPDEST PUSH1 0x0 DUP1 PUSH2 0x9FE DUP5 PUSH2 0xA1B JUMP JUMPDEST SWAP2 POP SWAP2 POP DUP1 ISZERO PUSH2 0xA12 JUMPI PUSH2 0xA12 DUP3 DUP6 PUSH2 0xB31 JUMP JUMPDEST SWAP2 POP POP JUMPDEST SWAP2 SWAP1 POP JUMP JUMPDEST PUSH2 0xA23 PUSH2 0x41FE JUMP JUMPDEST PUSH1 0x0 DUP1 PUSH2 0xA2F DUP5 PUSH2 0xCDC JUMP JUMPDEST SWAP1 POP PUSH2 0xA3A DUP2 PUSH2 0x107F JUMP JUMPDEST ISZERO PUSH2 0xAD4 JUMPI PUSH1 0x40 MLOAD PUSH4 0x37B5FC21 PUSH1 0xE1 SHL DUP2 MSTORE PUSH20 0x0 SWAP1 PUSH4 0x6F6BF842 SWAP1 PUSH2 0xA78 SWAP1 DUP8 SWAP1 DUP6 SWAP1 PUSH1 0x4 ADD PUSH2 0x48D3 JUMP JUMPDEST PUSH1 0xC0 PUSH1 0x40 MLOAD DUP1 DUP4 SUB DUP2 DUP7 DUP1 EXTCODESIZE ISZERO DUP1 ISZERO PUSH2 0xA90 JUMPI PUSH1 0x0 DUP1 REVERT JUMPDEST POP GAS DELEGATECALL ISZERO DUP1 ISZERO PUSH2 0xAA4 JUMPI RETURNDATASIZE PUSH1 0x0 DUP1 RETURNDATACOPY RETURNDATASIZE PUSH1 0x0 REVERT JUMPDEST POP POP POP POP PUSH1 0x40 MLOAD RETURNDATASIZE PUSH1 0x1F NOT PUSH1 0x1F DUP3 ADD AND DUP3 ADD DUP1 PUSH1 0x40 MSTORE POP DUP2 ADD SWAP1 PUSH2 0xAC8 SWAP2 SWAP1 PUSH2 0x46F8 JUMP JUMPDEST PUSH1 0x1 SWAP3 POP SWAP3 POP POP PUSH2 0xADB JUMP JUMPDEST SWAP2 POP PUSH1 0x0 SWAP1 POP JUMPDEST SWAP2 POP SWAP2 JUMP JUMPDEST PUSH2 0xAE9 DUP3 PUSH2 0x10D3 JUMP JUMPDEST PUSH2 0x120 DUP6 ADD MSTORE PUSH2 0xAFB DUP5 DUP5 DUP5 DUP5 PUSH2 0x10E5 JUMP JUMPDEST POP POP POP POP JUMP JUMPDEST PUSH1 0x0 PUSH2 0xB0F PUSH1 0x0 NOT DUP4 PUSH2 0x118D JUMP JUMPDEST SWAP3 SWAP2 POP POP JUMP JUMPDEST PUSH1 0x0 PUSH2 0xB26 DUP6 DUP6 DUP7 DUP7 DUP7 PUSH1 0x1 PUSH2 0x11DB JUMP JUMPDEST SWAP1 POP JUMPDEST SWAP5 SWAP4 POP POP POP POP JUMP JUMPDEST PUSH1 0x0 PUSH2 0xB3B PUSH2 0x13B2 JUMP JUMPDEST PUSH1 0x1 PUSH1 0x1 PUSH1 0xA0 SHL SUB DUP4 AND PUSH1 0x0 DUP2 DUP2 MSTORE PUSH1 0x20 DUP4 DUP2 MSTORE PUSH1 0x40 DUP1 DUP4 KECCAK256 DUP9 MLOAD DUP2 SLOAD SWAP4 DUP11 ADD MLOAD DUP11 DUP5 ADD MLOAD PUSH1 0x60 DUP13 ADD MLOAD PUSH1 0x80 DUP14 ADD MLOAD PUSH1 0xA0 DUP15 ADD MLOAD PUSH5 0xFFFFFFFFFF NOT SWAP1 SWAP9 AND PUSH5 0xFFFFFFFFFF SWAP1 SWAP6 AND SWAP5 SWAP1 SWAP5 OR PUSH6 0xFF0000000000 NOT AND PUSH1 0x1 PUSH1 0x28 SHL PUSH1 0xF8 SWAP5 SWAP1 SWAP5 SHR SWAP4 SWAP1 SWAP4 MUL SWAP3 SWAP1 SWAP3 OR PUSH7 0xFF000000000000 NOT AND PUSH1 0x1 PUSH1 0x30 SHL PUSH1 0xFF SWAP1 SWAP3 AND SWAP2 SWAP1 SWAP2 MUL OR PUSH9 0xFFFF00000000000000 NOT AND PUSH1 0x1 PUSH1 0x38 SHL PUSH2 0xFFFF SWAP1 SWAP3 AND SWAP2 SWAP1 SWAP2 MUL OR PUSH27 0xFFFFFFFFFFFFFFFFFFFFFFFFFFFFFFFFFFFF000000000000000000 NOT AND PUSH1 0x1 PUSH1 0x48 SHL PUSH1 0x70 SWAP3 SWAP1 SWAP3 SHR SWAP2 SWAP1 SWAP2 MUL OR PUSH1 0xFF PUSH1 0xD8 SHL NOT AND PUSH1 0x1 PUSH1 0xD8 SHL SWAP4 ISZERO ISZERO SWAP4 SWAP1 SWAP4 MUL SWAP3 SWAP1 SWAP3 OR SWAP1 SWAP2 SSTORE MLOAD SWAP3 SWAP4 POP SWAP1 SWAP2 PUSH32 0x6BD4B121BCA854A191536A2CA891155C42EE2FB23F307FB34E8BC65CFCB5412E SWAP2 SWAP1 LOG2 POP POP POP JUMP JUMPDEST PUSH1 0x0 DUP1 DUP3 SLT ISZERO PUSH2 0xC5D JUMPI PUSH1 0x0 DUP1 REVERT JUMPDEST POP SWAP1 JUMP JUMPDEST PUSH1 0x1 PUSH1 0x1 PUSH1 0xA0 SHL SUB DUP2 AND PUSH2 0xC74 JUMPI PUSH1 0x0 DUP1 REVERT JUMPDEST PUSH1 0x1 PUSH1 0x1 PUSH1 0xA0 SHL SUB DUP2 AND PUSH2 0xFEE EQ ISZERO PUSH2 0xC8C JUMPI PUSH1 0x0 DUP1 REVERT JUMPDEST PUSH1 0x1 PUSH1 0x1 PUSH1 0xA0 SHL SUB DUP2 AND PUSH2 0x5E7 EQ ISZERO PUSH2 0xCA4 JUMPI PUSH1 0x0 DUP1 REVERT JUMPDEST PUSH1 0x1 PUSH1 0x1 PUSH1 0xA0 SHL SUB DUP2 AND ADDRESS EQ ISZERO PUSH2 0xCBA JUMPI PUSH1 0x0 DUP1 REVERT JUMPDEST PUSH1 0x0 PUSH2 0xCC5 DUP3 PUSH2 0x13BF JUMP JUMPDEST POP POP POP POP PUSH2 0xFFFF AND SWAP1 POP DUP1 PUSH1 0x0 EQ PUSH2 0x67D JUMPI PUSH1 0x0 DUP1 REVERT JUMPDEST PUSH2 0xCE4 PUSH2 0x41FE JUMP JUMPDEST PUSH1 0x0 PUSH2 0xCEE PUSH2 0x13B2 JUMP JUMPDEST PUSH1 0x1 PUSH1 0x1 PUSH1 0xA0 SHL SUB DUP5 AND PUSH1 0x0 SWAP1 DUP2 MSTORE PUSH1 0x20 SWAP2 DUP3 MSTORE PUSH1 0x40 SWAP1 DUP2 SWAP1 KECCAK256 DUP2 MLOAD PUSH1 0xC0 DUP2 ADD DUP4 MSTORE SWAP1 SLOAD PUSH5 0xFFFFFFFFFF DUP2 AND DUP3 MSTORE PUSH1 0x1 PUSH1 0x1 PUSH1 0xF8 SHL SUB NOT PUSH1 0x1 PUSH1 0x28 SHL DUP3 DIV PUSH1 0xF8 SHL AND SWAP4 DUP3 ADD SWAP4 SWAP1 SWAP4 MSTORE PUSH1 0xFF PUSH1 0x1 PUSH1 0x30 SHL DUP5 DIV DUP2 AND SWAP3 DUP3 ADD SWAP3 SWAP1 SWAP3 MSTORE PUSH2 0xFFFF PUSH1 0x1 PUSH1 0x38 SHL DUP5 DIV AND PUSH1 0x60 DUP3 ADD MSTORE PUSH1 0x1 PUSH1 0x1 PUSH1 0x70 SHL SUB NOT PUSH1 0x1 PUSH1 0x48 SHL DUP5 DIV PUSH1 0x70 SHL AND PUSH1 0x80 DUP3 ADD MSTORE PUSH1 0x1 PUSH1 0xD8 SHL SWAP1 SWAP3 DIV AND ISZERO ISZERO PUSH1 0xA0 DUP3 ADD MSTORE SWAP2 POP POP SWAP2 SWAP1 POP JUMP JUMPDEST PUSH1 0x0 PUSH1 0x1 PUSH1 0x1 PUSH1 0xFF SHL SUB DUP3 GT ISZERO PUSH2 0xC5D JUMPI PUSH1 0x0 DUP1 REVERT JUMPDEST PUSH1 0x0 DUP3 PUSH2 0xDAF JUMPI POP PUSH1 0x0 PUSH2 0xB29 JUMP JUMPDEST PUSH1 0x0 DUP4 SGT PUSH2 0xDBC JUMPI PUSH1 0x0 DUP1 REVERT JUMPDEST PUSH2 0xDD2 DUP5 DUP7 PUSH1 0x0 ADD MLOAD DUP6 DUP9 PUSH2 0x120 ADD MLOAD DUP7 PUSH2 0x1428 JUMP JUMPDEST PUSH1 0x60 DUP8 ADD MLOAD SWAP1 SWAP3 POP PUSH2 0xDE5 SWAP2 POP DUP3 PUSH2 0x14EA JUMP JUMPDEST PUSH1 0x60 DUP7 ADD MSTORE SWAP5 SWAP4 POP POP POP POP JUMP JUMPDEST PUSH1 0x80 DUP4 ADD MLOAD ISZERO PUSH2 0xE01 JUMPI PUSH1 0x0 DUP1 REVERT JUMPDEST PUSH2 0xAFB DUP4 DUP4 DUP5 DUP5 PUSH1 0x0 PUSH1 0x1 PUSH2 0x11DB JUMP JUMPDEST PUSH1 0x0 DUP1 PUSH2 0xE1E DUP5 DUP5 PUSH2 0x1500 JUMP JUMPDEST POP POP SWAP2 POP SWAP2 POP DUP2 PUSH1 0x0 EQ ISZERO PUSH2 0xE34 JUMPI POP POP PUSH2 0x67D JUMP JUMPDEST DUP2 DUP2 GT ISZERO PUSH2 0xAFB JUMPI PUSH1 0x40 MLOAD PUSH3 0x461BCD PUSH1 0xE5 SHL DUP2 MSTORE PUSH1 0x4 ADD PUSH2 0x274 SWAP1 PUSH2 0x49B1 JUMP JUMPDEST PUSH1 0x0 PUSH2 0xE5E PUSH2 0x15C5 JUMP JUMPDEST PUSH2 0xFFFF SWAP1 SWAP3 AND PUSH1 0x0 SWAP1 DUP2 MSTORE PUSH1 0x20 SWAP3 SWAP1 SWAP3 MSTORE POP PUSH1 0x40 SWAP1 KECCAK256 SLOAD PUSH1 0x1 PUSH1 0x1 PUSH1 0xA0 SHL SUB AND SWAP1 JUMP JUMPDEST PUSH1 0x0 DUP1 PUSH2 0xB0F PUSH1 0x23 PUSH2 0x15CE JUMP JUMPDEST PUSH1 0x0 PUSH2 0xE9F DUP7 DUP7 DUP7 DUP7 DUP7 PUSH1 0x1 PUSH2 0x11DB JUMP JUMPDEST SWAP1 POP JUMPDEST SWAP6 SWAP5 POP POP POP POP POP JUMP JUMPDEST PUSH2 0xEB4 DUP4 PUSH2 0x15E7 JUMP JUMPDEST ISZERO PUSH2 0xED1 JUMPI PUSH1 0x40 MLOAD PUSH3 0x461BCD PUSH1 0xE5 SHL DUP2 MSTORE PUSH1 0x4 ADD PUSH2 0x274 SWAP1 PUSH2 0x4B36 JUMP JUMPDEST DUP2 PUSH2 0xFFFF AND PUSH1 0x0 LT DUP1 ISZERO PUSH2 0xEEB JUMPI POP PUSH2 0x3FFF PUSH2 0xFFFF DUP4 AND GT ISZERO JUMPDEST PUSH2 0xF07 JUMPI PUSH1 0x40 MLOAD PUSH3 0x461BCD PUSH1 0xE5 SHL DUP2 MSTORE PUSH1 0x4 ADD PUSH2 0x274 SWAP1 PUSH2 0x4BB2 JUMP JUMPDEST PUSH1 0x40 DUP4 ADD MLOAD PUSH1 0xFF AND ISZERO PUSH2 0xF2C JUMPI PUSH1 0x40 MLOAD PUSH3 0x461BCD PUSH1 0xE5 SHL DUP2 MSTORE PUSH1 0x4 ADD PUSH2 0x274 SWAP1 PUSH2 0x4A1F JUMP JUMPDEST PUSH1 0x20 DUP4 ADD MLOAD PUSH1 0x1 PUSH1 0x1 PUSH1 0xF8 SHL SUB NOT AND ISZERO PUSH2 0xF58 JUMPI PUSH1 0x40 MLOAD PUSH3 0x461BCD PUSH1 0xE5 SHL DUP2 MSTORE PUSH1 0x4 ADD PUSH2 0x274 SWAP1 PUSH2 0x4B64 JUMP JUMPDEST PUSH2 0xF6D DUP4 PUSH2 0xFFFF DUP5 AND PUSH1 0x0 PUSH1 0x1 PUSH1 0xFE SHL PUSH2 0x15F4 JUMP JUMPDEST PUSH2 0xFFFF DUP3 AND PUSH1 0x60 DUP5 ADD MSTORE PUSH1 0x0 PUSH2 0xF82 DUP3 PUSH2 0x17F3 JUMP JUMPDEST SWAP1 POP PUSH5 0xFFFFFFFFFF DUP2 LT PUSH2 0xF95 JUMPI PUSH1 0x0 DUP1 REVERT JUMPDEST PUSH5 0xFFFFFFFFFF AND SWAP1 SWAP3 MSTORE POP POP JUMP JUMPDEST PUSH1 0x0 DUP2 PUSH2 0xFB2 JUMPI POP PUSH1 0x0 PUSH2 0x1078 JUMP JUMPDEST PUSH1 0x0 DUP3 SGT PUSH2 0xFBF JUMPI PUSH1 0x0 DUP1 REVERT JUMPDEST PUSH1 0x0 PUSH2 0xFD2 DUP6 PUSH1 0x0 ADD MLOAD PUSH2 0xFFFF AND PUSH2 0x1811 JUMP JUMPDEST DUP1 MLOAD SWAP1 SWAP2 POP PUSH1 0x1 PUSH1 0x1 PUSH1 0xA0 SHL SUB AND PUSH2 0xFE9 JUMPI PUSH1 0x0 DUP1 REVERT JUMPDEST PUSH1 0x1 DUP2 PUSH1 0x60 ADD MLOAD PUSH1 0x5 DUP2 GT ISZERO PUSH2 0xFFB JUMPI INVALID JUMPDEST EQ DUP1 PUSH2 0x1016 JUMPI POP PUSH1 0x2 DUP2 PUSH1 0x60 ADD MLOAD PUSH1 0x5 DUP2 GT ISZERO PUSH2 0x1014 JUMPI INVALID JUMPDEST EQ JUMPDEST ISZERO PUSH2 0x104E JUMPI DUP5 MLOAD PUSH2 0x120 DUP7 ADD MLOAD PUSH2 0x1032 SWAP2 DUP4 SWAP2 DUP7 SWAP1 DUP9 SWAP1 PUSH2 0x1824 JUMP JUMPDEST PUSH1 0x60 DUP7 ADD MLOAD SWAP1 SWAP3 POP PUSH2 0x1044 SWAP1 DUP4 PUSH2 0x14EA JUMP JUMPDEST PUSH1 0x60 DUP7 ADD MSTORE PUSH2 0x1076 JUMP JUMPDEST PUSH1 0x4 DUP2 PUSH1 0x60 ADD MLOAD PUSH1 0x5 DUP2 GT ISZERO PUSH2 0x1060 JUMPI INVALID JUMPDEST EQ ISZERO PUSH2 0xA7 JUMPI PUSH2 0x1073 DUP6 DUP6 DUP6 PUSH1 0x0 PUSH2 0xDA0 JUMP JUMPDEST SWAP2 POP JUMPDEST POP JUMPDEST SWAP4 SWAP3 POP POP POP JUMP JUMPDEST PUSH1 0x0 TIMESTAMP PUSH2 0x108B DUP4 PUSH2 0x15E7 JUMP JUMPDEST ISZERO PUSH2 0x10AC JUMPI PUSH2 0x1099 DUP2 PUSH2 0x17F3 JUMP JUMPDEST DUP4 MLOAD PUSH5 0xFFFFFFFFFF AND LT SWAP2 POP PUSH2 0xA16 SWAP1 POP JUMP JUMPDEST DUP3 MLOAD PUSH5 0xFFFFFFFFFF AND ISZERO DUP1 ISZERO SWAP1 PUSH2 0x10CB JUMPI POP DUP3 MLOAD PUSH5 0xFFFFFFFFFF AND DUP2 LT ISZERO JUMPDEST SWAP2 POP POP PUSH2 0xA16 JUMP JUMPDEST PUSH2 0x10DB PUSH2 0x4233 JUMP JUMPDEST PUSH2 0xB0F DUP3 TIMESTAMP PUSH2 0x18B5 JUMP JUMPDEST DUP2 PUSH2 0xFFFF AND PUSH1 0x0 LT DUP1 ISZERO PUSH2 0x10FF JUMPI POP PUSH2 0x3FFF PUSH2 0xFFFF DUP4 AND GT ISZERO JUMPDEST PUSH2 0x1108 JUMPI PUSH1 0x0 DUP1 REVERT JUMPDEST PUSH2 0xFFFF DUP3 AND DUP1 DUP6 MSTORE PUSH2 0x111B SWAP1 DUP3 SWAP1 PUSH2 0x1976 JUMP JUMPDEST ISZERO PUSH2 0x114A JUMPI PUSH2 0x1130 DUP4 DUP4 DUP7 PUSH2 0x120 ADD MLOAD PUSH2 0x1A00 JUMP JUMPDEST PUSH2 0x100 DUP9 ADD MSTORE PUSH1 0xE0 DUP8 ADD MSTORE PUSH1 0x40 DUP7 ADD MSTORE PUSH1 0x20 DUP6 ADD MSTORE PUSH2 0x1168 JUMP JUMPDEST PUSH1 0x0 PUSH1 0x20 DUP6 ADD DUP2 SWAP1 MSTORE PUSH1 0x40 DUP6 ADD DUP2 SWAP1 MSTORE PUSH1 0xE0 DUP6 ADD DUP2 SWAP1 MSTORE PUSH2 0x100 DUP6 ADD MSTORE JUMPDEST POP POP PUSH1 0x0 PUSH1 0x60 DUP4 ADD DUP2 SWAP1 MSTORE PUSH1 0x80 DUP4 ADD DUP2 SWAP1 MSTORE PUSH1 0xA0 DUP4 ADD DUP2 SWAP1 MSTORE PUSH1 0xC0 SWAP1 SWAP3 ADD SWAP2 SWAP1 SWAP2 MSTORE POP JUMP JUMPDEST DUP2 DUP2 MUL PUSH1 0x0 NOT DUP4 EQ ISZERO PUSH2 0x11BD JUMPI DUP2 ISZERO DUP1 PUSH2 0x11AF JUMPI POP DUP3 DUP3 DUP3 DUP2 PUSH2 0x11AC JUMPI INVALID JUMPDEST SDIV EQ JUMPDEST PUSH2 0x11B8 JUMPI PUSH1 0x0 DUP1 REVERT JUMPDEST PUSH2 0xB0F JUMP JUMPDEST DUP3 ISZERO DUP1 PUSH2 0x11D2 JUMPI POP DUP2 DUP4 DUP3 DUP2 PUSH2 0x11CF JUMPI INVALID JUMPDEST SDIV EQ JUMPDEST PUSH2 0xB0F JUMPI PUSH1 0x0 DUP1 REVERT JUMPDEST PUSH1 0x0 DUP1 PUSH1 0x0 PUSH2 0x11FB DUP9 DUP9 DUP12 PUSH1 0x0 ADD MLOAD DUP13 PUSH1 0x80 ADD MLOAD DUP14 PUSH2 0x120 ADD MLOAD DUP11 PUSH2 0x1ABA JUMP JUMPDEST SWAP3 POP PUSH1 0x0 PUSH2 0x121A DUP11 PUSH1 0x80 ADD MLOAD DUP12 PUSH1 0x60 ADD MLOAD PUSH2 0x14EA SWAP1 SWAP2 SWAP1 PUSH4 0xFFFFFFFF AND JUMP JUMPDEST SWAP1 POP DUP5 DUP1 ISZERO PUSH2 0x1229 JUMPI POP PUSH1 0x0 DUP2 SLT JUMPDEST DUP1 ISZERO PUSH2 0x1244 JUMPI POP PUSH1 0x20 DUP11 ADD MLOAD PUSH1 0x0 SWAP1 PUSH2 0x1242 SWAP1 DUP4 PUSH2 0x14EA JUMP JUMPDEST SLT JUMPDEST ISZERO PUSH2 0x126F JUMPI DUP7 PUSH1 0xA0 ADD MLOAD PUSH2 0x126A JUMPI PUSH1 0x40 MLOAD PUSH3 0x461BCD PUSH1 0xE5 SHL DUP2 MSTORE PUSH1 0x4 ADD PUSH2 0x274 SWAP1 PUSH2 0x4AA8 JUMP JUMPDEST PUSH1 0x1 SWAP2 POP JUMPDEST DUP1 ISZERO PUSH2 0x128E JUMPI PUSH1 0x20 DUP11 ADD MLOAD PUSH2 0x1284 SWAP1 DUP3 PUSH2 0x14EA JUMP JUMPDEST PUSH1 0x20 DUP12 ADD MSTORE PUSH1 0x1 SWAP3 POP JUMPDEST POP PUSH1 0xA0 DUP10 ADD MLOAD ISZERO ISZERO DUP1 PUSH2 0x12A4 JUMPI POP PUSH1 0xC0 DUP10 ADD MLOAD ISZERO ISZERO JUMPDEST ISZERO PUSH2 0x130D JUMPI PUSH1 0x0 PUSH2 0x12D4 DUP11 PUSH1 0xC0 ADD MLOAD PUSH2 0x12CE DUP13 PUSH1 0xA0 ADD MLOAD DUP14 PUSH1 0x40 ADD MLOAD PUSH2 0x14EA SWAP1 SWAP2 SWAP1 PUSH4 0xFFFFFFFF AND JUMP JUMPDEST SWAP1 PUSH2 0x14EA JUMP JUMPDEST SWAP1 POP PUSH1 0x0 DUP2 SLT ISZERO PUSH2 0x12F7 JUMPI PUSH1 0x40 MLOAD PUSH3 0x461BCD PUSH1 0xE5 SHL DUP2 MSTORE PUSH1 0x4 ADD PUSH2 0x274 SWAP1 PUSH2 0x4B8E JUMP JUMPDEST PUSH2 0x1302 DUP11 DUP11 DUP4 PUSH2 0x1B64 JUMP JUMPDEST POP PUSH1 0x40 DUP11 ADD MSTORE PUSH1 0x1 SWAP2 POP JUMPDEST DUP2 ISZERO PUSH2 0x133C JUMPI PUSH2 0x133C DUP9 DUP11 PUSH1 0x0 ADD MLOAD DUP12 PUSH1 0x20 ADD MLOAD DUP13 PUSH1 0x40 ADD MLOAD DUP14 PUSH1 0xE0 ADD MLOAD DUP15 PUSH2 0x100 ADD MLOAD DUP16 PUSH2 0x120 ADD MLOAD PUSH2 0x1C5B JUMP JUMPDEST DUP9 MLOAD PUSH1 0x20 DUP11 ADD MLOAD PUSH2 0x1369 SWAP2 PUSH2 0xFFFF AND SWAP1 ISZERO ISZERO DUP1 PUSH2 0x135C JUMPI POP PUSH1 0x40 DUP12 ADD MLOAD ISZERO ISZERO JUMPDEST DUP9 SWAP2 SWAP1 PUSH1 0x1 PUSH1 0xFE SHL PUSH2 0x15F4 JUMP JUMPDEST PUSH1 0x0 DUP10 PUSH1 0x20 ADD MLOAD SLT ISZERO PUSH2 0x138F JUMPI PUSH1 0x20 DUP7 ADD DUP1 MLOAD PUSH1 0x1 PUSH1 0xF9 SHL OR PUSH1 0x1 PUSH1 0x1 PUSH1 0xF8 SHL SUB NOT AND SWAP1 MSTORE JUMPDEST DUP1 ISZERO PUSH2 0x13A6 JUMPI DUP9 MLOAD PUSH2 0x120 DUP11 ADD MLOAD PUSH2 0x13A6 SWAP2 PUSH2 0x1D96 JUMP JUMPDEST POP POP SWAP7 SWAP6 POP POP POP POP POP POP JUMP JUMPDEST PUSH1 0x0 DUP1 PUSH2 0xB0F PUSH1 0x1 PUSH2 0x15CE JUMP JUMPDEST PUSH1 0x0 DUP1 PUSH1 0x0 DUP1 PUSH1 0x0 DUP1 PUSH2 0x13D0 PUSH2 0x1DD9 JUMP JUMPDEST PUSH1 0x1 PUSH1 0x1 PUSH1 0xA0 SHL SUB SWAP1 SWAP8 AND PUSH1 0x0 SWAP1 DUP2 MSTORE PUSH1 0x20 SWAP8 SWAP1 SWAP8 MSTORE POP POP PUSH1 0x40 SWAP1 SWAP5 KECCAK256 SLOAD PUSH2 0xFFFF DUP2 AND SWAP6 PUSH4 0xFFFFFFFF PUSH3 0x10000 DUP4 DIV DUP2 AND SWAP7 POP PUSH1 0x1 PUSH1 0x30 SHL DUP4 DIV AND SWAP5 POP PUSH1 0xFF PUSH1 0x1 PUSH1 0x50 SHL DUP4 DIV AND SWAP4 POP PUSH1 0x1 PUSH1 0x58 SHL SWAP1 SWAP2 DIV PUSH1 0xD0 SHL SWAP2 POP JUMP JUMPDEST PUSH1 0x0 DUP1 PUSH1 0x0 PUSH2 0x1436 DUP7 PUSH2 0xC4E JUMP JUMPDEST SWAP1 POP DUP1 PUSH2 0x144A JUMPI PUSH1 0x0 DUP1 SWAP3 POP SWAP3 POP POP PUSH2 0x14E0 JUMP JUMPDEST PUSH1 0x0 PUSH2 0x1459 DUP9 PUSH2 0xFFFF AND PUSH2 0x1DE6 JUMP JUMPDEST SWAP1 POP PUSH1 0x3 DUP2 PUSH1 0x60 ADD MLOAD PUSH1 0x5 DUP2 GT ISZERO PUSH2 0x146D JUMPI INVALID JUMPDEST EQ ISZERO PUSH2 0x14B4 JUMPI CALLVALUE DUP3 LT ISZERO PUSH2 0x148D JUMPI PUSH2 0x1488 DUP10 DUP4 CALLVALUE SUB DUP8 PUSH2 0x1DF9 JUMP JUMPDEST PUSH2 0x14AC JUMP JUMPDEST CALLVALUE DUP3 EQ PUSH2 0x14AC JUMPI PUSH1 0x40 MLOAD PUSH3 0x461BCD PUSH1 0xE5 SHL DUP2 MSTORE PUSH1 0x4 ADD PUSH2 0x274 SWAP1 PUSH2 0x49DA JUMP JUMPDEST DUP7 SWAP4 POP PUSH2 0x14CE JUMP JUMPDEST PUSH2 0x14CB PUSH2 0x14C6 DUP3 PUSH1 0x0 ADD MLOAD DUP12 DUP6 PUSH2 0x1EC1 JUMP JUMPDEST PUSH2 0xD8A JUMP JUMPDEST SWAP4 POP JUMPDEST PUSH2 0x14DB DUP10 DUP10 DUP7 DUP5 DUP11 PUSH2 0x203F JUMP JUMPDEST SWAP3 POP POP POP JUMPDEST SWAP6 POP SWAP6 SWAP4 POP POP POP POP JUMP JUMPDEST DUP2 DUP2 ADD DUP3 DUP2 SLT ISZERO PUSH1 0x0 DUP4 SLT ISZERO EQ PUSH2 0xB0F JUMPI PUSH1 0x0 DUP1 REVERT JUMPDEST PUSH1 0x0 DUP1 PUSH1 0x0 DUP1 PUSH1 0x0 PUSH2 0x1510 PUSH2 0x2086 JUMP JUMPDEST PUSH2 0xFFFF DUP8 AND PUSH1 0x0 SWAP1 DUP2 MSTORE PUSH1 0x20 SWAP2 SWAP1 SWAP2 MSTORE PUSH1 0x40 SWAP1 KECCAK256 PUSH1 0x1 DUP2 ADD SLOAD SWAP1 SWAP2 POP PUSH2 0x1542 SWAP1 PUSH1 0x1 PUSH1 0x58 SHL SWAP1 DIV PUSH4 0xFFFFFFFF AND PUSH2 0x2093 JUMP JUMPDEST PUSH1 0x1 DUP3 ADD SLOAD SWAP1 SWAP6 POP PUSH2 0x156C SWAP1 PUSH1 0x64 SWAP1 PUSH2 0x1566 SWAP1 DUP9 SWAP1 PUSH1 0x1 PUSH1 0x78 SHL SWAP1 DIV PUSH1 0xFF AND PUSH2 0x20A1 JUMP JUMPDEST SWAP1 PUSH2 0x20C8 JUMP JUMPDEST DUP2 SLOAD SWAP1 SWAP4 POP PUSH1 0x1 PUSH1 0x28 SHL SWAP1 DIV PUSH1 0x1 PUSH1 0x1 PUSH1 0x58 SHL SUB AND PUSH2 0x158E PUSH2 0x3A1 DUP10 DUP4 PUSH2 0x20E7 JUMP JUMPDEST PUSH1 0x1 DUP4 ADD SLOAD SWAP1 SWAP6 POP PUSH1 0x1 PUSH1 0x1 PUSH1 0x58 SHL SUB AND PUSH1 0x0 SUB PUSH2 0x15B7 PUSH2 0x3A1 PUSH2 0x15B2 DUP12 DUP5 PUSH2 0x2136 JUMP JUMPDEST PUSH2 0xB01 JUMP JUMPDEST SWAP4 POP POP POP POP SWAP3 SWAP6 SWAP2 SWAP5 POP SWAP3 POP JUMP JUMPDEST PUSH1 0x0 DUP1 PUSH2 0xB0F PUSH1 0x21 JUMPDEST PUSH1 0x0 PUSH3 0xF4240 DUP3 PUSH1 0x26 DUP2 GT ISZERO PUSH2 0x15E0 JUMPI INVALID JUMPDEST ADD SWAP3 SWAP2 POP POP JUMP JUMPDEST PUSH1 0x60 ADD MLOAD PUSH2 0xFFFF AND ISZERO ISZERO SWAP1 JUMP JUMPDEST DUP3 PUSH1 0x0 LT DUP1 ISZERO PUSH2 0x1606 JUMPI POP PUSH2 0x3FFF DUP4 GT ISZERO JUMPDEST PUSH2 0x160F JUMPI PUSH1 0x0 DUP1 REVERT JUMPDEST DUP2 DUP1 ISZERO PUSH2 0x1623 JUMPI POP DUP3 DUP5 PUSH1 0x60 ADD MLOAD PUSH2 0xFFFF AND EQ JUMPDEST ISZERO PUSH2 0x162D JUMPI PUSH2 0xAFB JUMP JUMPDEST PUSH1 0x80 DUP5 ADD MLOAD PUSH1 0x0 SWAP1 DUP2 JUMPDEST PUSH1 0x1 PUSH1 0x1 PUSH1 0x70 SHL SUB NOT DUP3 AND ISZERO PUSH2 0x17A8 JUMPI PUSH1 0xF0 DUP3 SWAP1 SHR PUSH2 0x3FFF AND DUP7 DUP2 EQ DUP1 ISZERO PUSH2 0x165C JUMPI POP DUP6 JUMPDEST ISZERO PUSH2 0x1694 JUMPI POP PUSH1 0x80 DUP8 ADD DUP1 MLOAD PUSH1 0x1 PUSH1 0x1 PUSH1 0xF0 SHL SUB NOT DUP7 AND PUSH1 0x10 SWAP1 SWAP4 MUL SWAP3 SWAP1 SWAP3 SHR SWAP2 SWAP1 SWAP2 OR PUSH1 0x1 PUSH1 0x1 PUSH1 0x70 SHL SUB NOT AND SWAP1 MSTORE POP PUSH2 0xAFB SWAP1 POP JUMP JUMPDEST DUP7 DUP2 EQ DUP1 ISZERO PUSH2 0x16A1 JUMPI POP DUP6 ISZERO JUMPDEST ISZERO PUSH2 0x16F6 JUMPI PUSH1 0x1 PUSH1 0x1 PUSH1 0xF0 SHL SUB NOT DUP6 AND NOT SWAP3 SWAP1 SWAP3 AND SWAP2 PUSH1 0x3 PUSH1 0xFE SHL DUP4 AND PUSH2 0x16D4 JUMPI PUSH1 0x10 DUP4 PUSH1 0x1 PUSH1 0x1 PUSH1 0x70 SHL SUB NOT AND SWAP1 SHL SWAP3 POP JUMPDEST POP PUSH1 0x1 PUSH1 0x1 PUSH1 0x70 SHL SUB NOT SWAP2 DUP3 AND PUSH1 0x10 SWAP1 SWAP2 MUL SHR SWAP2 SWAP1 SWAP2 OR AND PUSH1 0x80 DUP6 ADD MSTORE PUSH2 0xAFB JUMP JUMPDEST DUP7 DUP2 GT DUP1 ISZERO PUSH2 0x1702 JUMPI POP DUP6 JUMPDEST ISZERO PUSH2 0x175C JUMPI PUSH1 0x80 DUP9 DUP2 ADD MLOAD PUSH1 0x1 PUSH1 0x1 PUSH1 0xF0 SHL SUB NOT PUSH1 0xF0 DUP11 SWAP1 SHL DUP9 OR DUP2 AND PUSH1 0x10 DUP7 MUL SHR SWAP7 SWAP1 SWAP7 OR SWAP6 SWAP2 SHL AND ISZERO PUSH2 0x1736 JUMPI PUSH1 0x0 DUP1 REVERT JUMPDEST POP PUSH1 0x1 PUSH1 0x1 PUSH1 0x70 SHL SUB NOT SWAP2 DUP3 AND PUSH1 0x1 SWAP2 SWAP1 SWAP2 ADD PUSH1 0x10 MUL SHR SWAP2 SWAP1 SWAP2 OR AND PUSH1 0x80 DUP6 ADD MSTORE PUSH2 0xAFB JUMP JUMPDEST DUP7 DUP2 GT DUP1 ISZERO PUSH2 0x1769 JUMPI POP DUP6 ISZERO JUMPDEST ISZERO PUSH2 0x1777 JUMPI POP POP POP POP PUSH2 0xAFB JUMP JUMPDEST POP PUSH1 0x1 PUSH1 0x1 PUSH1 0xF0 SHL SUB NOT DUP3 AND PUSH1 0x10 DUP3 DUP2 MUL SWAP2 SWAP1 SWAP2 SHR SWAP4 SWAP1 SWAP4 OR SWAP3 SWAP2 SWAP1 SWAP2 SHL PUSH1 0x1 PUSH1 0x1 PUSH1 0x80 SHL SUB NOT AND SWAP1 PUSH1 0x1 ADD PUSH2 0x1637 JUMP JUMPDEST DUP5 PUSH2 0x17B5 JUMPI POP POP POP PUSH2 0xAFB JUMP JUMPDEST PUSH1 0x9 DUP2 LT PUSH2 0x17C2 JUMPI PUSH1 0x0 DUP1 REVERT JUMPDEST PUSH1 0x1 PUSH1 0x1 PUSH1 0xF0 SHL SUB NOT PUSH1 0xF0 DUP8 SWAP1 SHL DUP6 OR AND PUSH1 0x10 SWAP1 SWAP2 MUL SHR SWAP2 SWAP1 SWAP2 OR PUSH1 0x1 PUSH1 0x1 PUSH1 0x70 SHL SUB NOT AND PUSH1 0x80 DUP7 ADD MSTORE POP POP POP POP POP JUMP JUMPDEST PUSH1 0x0 PUSH3 0x15180 DUP3 LT ISZERO PUSH2 0x1805 JUMPI PUSH1 0x0 DUP1 REVERT JUMPDEST POP PUSH3 0x15180 DUP2 MOD SWAP1 SUB SWAP1 JUMP JUMPDEST PUSH2 0x1819 PUSH2 0x4254 JUMP JUMPDEST PUSH2 0xB0F DUP3 PUSH1 0x0 PUSH2 0x2187 JUMP JUMPDEST PUSH1 0x0 PUSH2 0x1835 DUP7 PUSH1 0x0 ADD MLOAD DUP5 DUP7 PUSH2 0x1EC1 JUMP JUMPDEST SWAP4 POP PUSH1 0x0 PUSH2 0x1846 DUP7 PUSH2 0xFFFF AND PUSH2 0x1DE6 JUMP JUMPDEST SWAP1 POP PUSH1 0x0 PUSH1 0x2 DUP9 PUSH1 0x60 ADD MLOAD PUSH1 0x5 DUP2 GT ISZERO PUSH2 0x185C JUMPI INVALID JUMPDEST EQ ISZERO PUSH2 0x1876 JUMPI PUSH2 0x186F PUSH2 0x14C6 DUP10 DUP9 PUSH2 0x2221 JUMP JUMPDEST SWAP1 POP PUSH2 0x189C JUMP JUMPDEST PUSH1 0x1 DUP9 PUSH1 0x60 ADD MLOAD PUSH1 0x5 DUP2 GT ISZERO PUSH2 0x1888 JUMPI INVALID JUMPDEST EQ ISZERO PUSH2 0xA7 JUMPI PUSH2 0x186F PUSH2 0x14C6 DUP10 DUP5 DUP10 PUSH2 0x22D2 JUMP JUMPDEST PUSH2 0x18A9 DUP6 DUP9 DUP4 DUP6 DUP9 PUSH2 0x203F JUMP JUMPDEST SWAP9 SWAP8 POP POP POP POP POP POP POP POP JUMP JUMPDEST PUSH2 0x18BD PUSH2 0x4233 JUMP JUMPDEST PUSH1 0x0 PUSH2 0x18C8 DUP5 PUSH2 0x2492 JUMP JUMPDEST SWAP1 POP DUP3 DUP2 PUSH1 0x0 ADD MLOAD LT ISZERO PUSH2 0x1907 JUMPI PUSH1 0x0 DUP1 PUSH2 0x18E2 DUP7 PUSH2 0x255A JUMP JUMPDEST SWAP1 POP PUSH2 0x18F0 DUP7 DUP5 DUP4 DUP9 PUSH2 0x25D7 JUMP JUMPDEST SWAP1 SWAP4 POP SWAP2 POP PUSH2 0x1900 DUP7 DUP4 DUP6 PUSH2 0x267B JUMP JUMPDEST POP POP PUSH2 0x1914 JUMP JUMPDEST DUP1 MLOAD DUP4 EQ PUSH2 0x1914 JUMPI PUSH1 0x0 DUP1 REVERT JUMPDEST PUSH1 0x40 MLOAD DUP1 PUSH1 0x60 ADD PUSH1 0x40 MSTORE DUP1 PUSH2 0x193D PUSH2 0x14C6 DUP5 PUSH1 0xA0 ADD MLOAD DUP6 PUSH1 0xC0 ADD MLOAD PUSH2 0x20A1 SWAP1 SWAP2 SWAP1 PUSH4 0xFFFFFFFF AND JUMP JUMPDEST DUP2 MSTORE PUSH1 0x20 ADD PUSH2 0x1960 PUSH2 0x14C6 DUP5 PUSH1 0xA0 ADD MLOAD DUP6 PUSH1 0xE0 ADD MLOAD PUSH2 0x20A1 SWAP1 SWAP2 SWAP1 PUSH4 0xFFFFFFFF AND JUMP JUMPDEST DUP2 MSTORE PUSH1 0x20 ADD DUP3 PUSH1 0x60 ADD MLOAD DUP2 MSTORE POP SWAP2 POP POP SWAP3 SWAP2 POP POP JUMP JUMPDEST PUSH1 0x0 DUP2 ISZERO DUP1 ISZERO SWAP1 PUSH2 0x1989 JUMPI POP PUSH2 0x3FFF DUP3 GT ISZERO JUMPDEST PUSH2 0x1992 JUMPI PUSH1 0x0 DUP1 REVERT JUMPDEST PUSH1 0x80 DUP4 ADD MLOAD PUSH1 0x60 DUP5 ADD MLOAD PUSH2 0xFFFF AND DUP4 EQ ISZERO PUSH2 0x19B1 JUMPI PUSH1 0x1 SWAP2 POP POP PUSH2 0xB0F JUMP JUMPDEST PUSH1 0x1 PUSH1 0x1 PUSH1 0x70 SHL SUB NOT DUP2 AND ISZERO PUSH2 0x19F6 JUMPI PUSH1 0xF0 DUP2 SWAP1 SHR PUSH2 0x3FFF AND DUP4 DUP2 EQ ISZERO PUSH2 0x19E3 JUMPI POP PUSH1 0x1 PUSH1 0xFE SHL SWAP1 DUP2 AND EQ SWAP1 POP PUSH2 0xB0F JUMP JUMPDEST POP PUSH1 0x10 SHL PUSH1 0x1 PUSH1 0x1 PUSH1 0x80 SHL SUB NOT AND PUSH2 0x19B1 JUMP JUMPDEST POP PUSH1 0x0 SWAP4 SWAP3 POP POP POP JUMP JUMPDEST PUSH1 0x0 DUP1 PUSH1 0x0 DUP1 PUSH1 0x0 PUSH2 0x1A10 PUSH2 0x28AF JUMP JUMPDEST PUSH1 0x1 PUSH1 0x1 PUSH1 0xA0 SHL SUB DUP10 AND PUSH1 0x0 SWAP1 DUP2 MSTORE PUSH1 0x20 DUP3 DUP2 MSTORE PUSH1 0x40 DUP1 DUP4 KECCAK256 PUSH2 0xFFFF DUP13 AND DUP5 MSTORE SWAP1 SWAP2 MSTORE SWAP1 KECCAK256 DUP1 SLOAD PUSH1 0x1 PUSH1 0x1 PUSH1 0x50 SHL SUB DUP2 AND SWAP7 POP PUSH1 0x1 PUSH1 0x50 SHL SWAP1 DIV PUSH4 0xFFFFFFFF AND SWAP5 POP SWAP1 SWAP2 POP DUP4 ISZERO PUSH2 0x1A7D JUMPI DUP1 SLOAD PUSH2 0x1A76 SWAP1 PUSH1 0x1 PUSH1 0x70 SHL SWAP1 DIV PUSH7 0xFFFFFFFFFFFFFF AND PUSH2 0x2093 JUMP JUMPDEST SWAP3 POP PUSH2 0x1A92 JUMP JUMPDEST DUP1 SLOAD PUSH1 0x1 PUSH1 0x70 SHL SWAP1 DIV PUSH7 0xFFFFFFFFFFFFFF AND SWAP3 POP JUMPDEST DUP1 SLOAD PUSH2 0x1AAD SWAP1 DUP9 SWAP1 PUSH1 0x1 PUSH1 0xA8 SHL SWAP1 DIV PUSH1 0xA SWAP1 DUP2 SIGNEXTEND SWAP1 SIGNEXTEND PUSH2 0x28BC JUMP JUMPDEST SWAP6 POP POP POP SWAP4 POP SWAP4 POP SWAP4 POP SWAP4 JUMP JUMPDEST PUSH1 0x0 DUP4 PUSH2 0x1AC9 JUMPI POP PUSH1 0x0 PUSH2 0x1B5A JUMP JUMPDEST PUSH1 0x0 DUP5 SLT PUSH2 0x1AD6 JUMPI PUSH1 0x0 DUP1 REVERT JUMPDEST PUSH1 0x0 PUSH2 0x1AE5 DUP7 PUSH2 0xFFFF AND PUSH2 0x1DE6 JUMP JUMPDEST SWAP1 POP PUSH2 0x1AFA DUP2 PUSH2 0x1AF5 DUP7 DUP9 PUSH2 0x20E7 JUMP JUMPDEST PUSH2 0x28EA JUMP JUMPDEST SWAP2 POP PUSH1 0x0 PUSH2 0x1B07 DUP4 PUSH2 0xB01 JUMP JUMPDEST SWAP1 POP PUSH2 0x1B14 DUP8 DUP4 DUP4 PUSH2 0x2922 JUMP JUMPDEST PUSH1 0x3 DUP3 PUSH1 0x60 ADD MLOAD PUSH1 0x5 DUP2 GT ISZERO PUSH2 0x1B26 JUMPI INVALID JUMPDEST EQ ISZERO PUSH2 0x1B3C JUMPI PUSH2 0x1B37 DUP9 DUP3 DUP7 PUSH2 0x1DF9 JUMP JUMPDEST PUSH2 0x1B49 JUMP JUMPDEST DUP2 MLOAD PUSH2 0x1B49 SWAP1 DUP10 DUP4 PUSH2 0x2A18 JUMP JUMPDEST PUSH2 0x1B56 DUP10 DUP9 DUP6 DUP6 DUP10 PUSH2 0x203F JUMP JUMPDEST POP POP POP JUMPDEST SWAP7 SWAP6 POP POP POP POP POP POP JUMP JUMPDEST DUP3 MLOAD PUSH1 0x0 SWAP1 TIMESTAMP SWAP1 DUP3 SWAP1 PUSH2 0x1B7A SWAP1 PUSH2 0xFFFF AND PUSH2 0x2A8F JUMP JUMPDEST SWAP1 POP PUSH1 0x0 PUSH2 0x1B87 DUP3 PUSH2 0x2AB5 JUMP JUMPDEST POP POP SWAP1 POP PUSH1 0x0 PUSH2 0x1B9C DUP4 DUP10 PUSH1 0xC0 ADD MLOAD DUP7 PUSH2 0x2B11 JUMP JUMPDEST SWAP1 POP PUSH2 0x1BAA DUP9 DUP5 DUP4 DUP10 PUSH2 0x2BF4 JUMP JUMPDEST SWAP5 POP PUSH1 0x0 PUSH2 0x1BB7 DUP5 PUSH2 0x2C6D JUMP JUMPDEST SWAP1 POP PUSH1 0x1 PUSH1 0x1 PUSH1 0xA0 SHL SUB DUP2 AND ISZERO PUSH2 0x1C3F JUMPI DUP1 PUSH1 0x1 PUSH1 0x1 PUSH1 0xA0 SHL SUB AND PUSH4 0x3F3EF50D DUP10 DUP12 PUSH1 0x0 ADD MLOAD PUSH2 0x1BEA DUP14 PUSH1 0x40 ADD MLOAD PUSH2 0xC4E JUMP JUMPDEST DUP12 DUP9 PUSH1 0x40 MLOAD DUP7 PUSH4 0xFFFFFFFF AND PUSH1 0xE0 SHL DUP2 MSTORE PUSH1 0x4 ADD PUSH2 0x1C0C SWAP6 SWAP5 SWAP4 SWAP3 SWAP2 SWAP1 PUSH2 0x496B JUMP JUMPDEST PUSH1 0x0 PUSH1 0x40 MLOAD DUP1 DUP4 SUB DUP2 PUSH1 0x0 DUP8 DUP1 EXTCODESIZE ISZERO DUP1 ISZERO PUSH2 0x1C26 JUMPI PUSH1 0x0 DUP1 REVERT JUMPDEST POP GAS CALL ISZERO DUP1 ISZERO PUSH2 0x1C3A JUMPI RETURNDATASIZE PUSH1 0x0 DUP1 RETURNDATACOPY RETURNDATASIZE PUSH1 0x0 REVERT JUMPDEST POP POP POP POP JUMPDEST DUP6 ISZERO PUSH2 0x1C4F JUMPI PUSH2 0x1C4F DUP9 DUP8 PUSH2 0x2CDF JUMP JUMPDEST POP POP POP POP POP SWAP4 SWAP3 POP POP POP JUMP JUMPDEST PUSH1 0x0 PUSH2 0x1C65 PUSH2 0x28AF JUMP JUMPDEST PUSH1 0x1 PUSH1 0x1 PUSH1 0xA0 SHL SUB DUP10 AND PUSH1 0x0 SWAP1 DUP2 MSTORE PUSH1 0x20 DUP3 DUP2 MSTORE PUSH1 0x40 DUP1 DUP4 KECCAK256 PUSH2 0xFFFF DUP13 AND DUP5 MSTORE SWAP1 SWAP2 MSTORE SWAP1 KECCAK256 SWAP1 SWAP2 POP DUP5 PUSH2 0x1CCD JUMPI PUSH7 0xFFFFFFFFFFFFFF DUP5 GT ISZERO PUSH2 0x1CA6 JUMPI PUSH1 0x0 DUP1 REVERT JUMPDEST DUP1 SLOAD PUSH7 0xFFFFFFFFFFFFFF PUSH1 0x70 SHL NOT AND PUSH1 0x1 PUSH1 0x70 SHL PUSH7 0xFFFFFFFFFFFFFF DUP7 AND MUL OR DUP2 SSTORE PUSH2 0x1CE7 JUMP JUMPDEST DUP1 SLOAD PUSH1 0x1 PUSH1 0x50 SHL SWAP1 DIV PUSH4 0xFFFFFFFF AND DUP6 EQ PUSH2 0x1CE7 JUMPI PUSH1 0x0 DUP1 REVERT JUMPDEST PUSH2 0x1CF0 DUP6 PUSH2 0x2CFE JUMP JUMPDEST DUP2 SLOAD PUSH4 0xFFFFFFFF SWAP2 SWAP1 SWAP2 AND PUSH1 0x1 PUSH1 0x50 SHL MUL PUSH4 0xFFFFFFFF PUSH1 0x50 SHL NOT SWAP1 SWAP2 AND OR DUP2 SSTORE PUSH2 0x1D21 PUSH2 0x1D1C DUP8 PUSH2 0xC4E JUMP JUMPDEST PUSH2 0x2D11 JUMP JUMPDEST DUP2 SLOAD PUSH10 0xFFFFFFFFFFFFFFFFFFFF NOT AND PUSH1 0x1 PUSH1 0x1 PUSH1 0x50 SHL SUB SWAP2 SWAP1 SWAP2 AND OR DUP1 DUP3 SSTORE PUSH2 0x1D67 SWAP1 PUSH2 0x1D62 SWAP1 DUP6 SWAP1 DUP13 SWAP1 DUP13 SWAP1 PUSH1 0x1 PUSH1 0xA8 SHL SWAP1 DIV PUSH1 0xA SWAP1 DUP2 SIGNEXTEND SWAP1 SIGNEXTEND DUP13 PUSH2 0x2D27 JUMP JUMPDEST PUSH2 0x2D4A JUMP JUMPDEST DUP2 SLOAD PUSH1 0xA SWAP2 SWAP1 SWAP2 SIGNEXTEND PUSH1 0x1 PUSH1 0x1 PUSH1 0x58 SHL SUB AND PUSH1 0x1 PUSH1 0xA8 SHL MUL PUSH1 0x1 PUSH1 0x1 PUSH1 0xA8 SHL SUB SWAP1 SWAP2 AND OR SWAP1 SSTORE POP POP POP POP POP POP POP POP JUMP JUMPDEST PUSH1 0x0 DUP1 PUSH2 0x1DA3 DUP5 DUP5 PUSH2 0x1500 JUMP JUMPDEST SWAP4 POP SWAP4 POP POP POP DUP2 PUSH1 0x0 EQ ISZERO PUSH2 0x1DB9 JUMPI POP POP PUSH2 0x67D JUMP JUMPDEST DUP2 DUP2 GT ISZERO PUSH2 0xAFB JUMPI PUSH1 0x40 MLOAD PUSH3 0x461BCD PUSH1 0xE5 SHL DUP2 MSTORE PUSH1 0x4 ADD PUSH2 0x274 SWAP1 PUSH2 0x4C0C JUMP JUMPDEST PUSH1 0x0 DUP1 PUSH2 0xB0F PUSH1 0x2 PUSH2 0x15CE JUMP JUMPDEST PUSH2 0x1DEE PUSH2 0x4254 JUMP JUMPDEST PUSH2 0xB0F DUP3 PUSH1 0x1 PUSH2 0x2187 JUMP JUMPDEST DUP1 ISZERO PUSH2 0x1E8B JUMPI PUSH20 0x82AF49447D8A07E3BD95BD0D56F35241523FBAB1 PUSH1 0x1 PUSH1 0x1 PUSH1 0xA0 SHL SUB AND PUSH4 0xD0E30DB0 DUP4 PUSH1 0x40 MLOAD DUP3 PUSH4 0xFFFFFFFF AND PUSH1 0xE0 SHL DUP2 MSTORE PUSH1 0x4 ADD PUSH1 0x0 PUSH1 0x40 MLOAD DUP1 DUP4 SUB DUP2 DUP6 DUP9 DUP1 EXTCODESIZE ISZERO DUP1 ISZERO PUSH2 0x1E4E JUMPI PUSH1 0x0 DUP1 REVERT JUMPDEST POP GAS CALL ISZERO DUP1 ISZERO PUSH2 0x1E62 JUMPI RETURNDATASIZE PUSH1 0x0 DUP1 RETURNDATACOPY RETURNDATASIZE PUSH1 0x0 REVERT JUMPDEST POP POP POP POP POP PUSH2 0x1E86 PUSH20 0x82AF49447D8A07E3BD95BD0D56F35241523FBAB1 DUP5 DUP5 PUSH2 0x2A18 JUMP JUMPDEST PUSH2 0x924 JUMP JUMPDEST PUSH1 0x40 MLOAD PUSH1 0x1 PUSH1 0x1 PUSH1 0xA0 SHL SUB DUP5 AND SWAP1 DUP4 ISZERO PUSH2 0x8FC MUL SWAP1 DUP5 SWAP1 PUSH1 0x0 DUP2 DUP2 DUP2 DUP6 DUP9 DUP9 CALL SWAP4 POP POP POP POP ISZERO DUP1 ISZERO PUSH2 0xAFB JUMPI RETURNDATASIZE PUSH1 0x0 DUP1 RETURNDATACOPY RETURNDATASIZE PUSH1 0x0 REVERT JUMPDEST PUSH1 0x0 DUP1 DUP5 PUSH1 0x1 PUSH1 0x1 PUSH1 0xA0 SHL SUB AND PUSH4 0x70A08231 ADDRESS PUSH1 0x40 MLOAD DUP3 PUSH4 0xFFFFFFFF AND PUSH1 0xE0 SHL DUP2 MSTORE PUSH1 0x4 ADD DUP1 DUP3 PUSH1 0x1 PUSH1 0x1 PUSH1 0xA0 SHL SUB AND DUP2 MSTORE PUSH1 0x20 ADD SWAP2 POP POP PUSH1 0x20 PUSH1 0x40 MLOAD DUP1 DUP4 SUB DUP2 DUP7 DUP1 EXTCODESIZE ISZERO DUP1 ISZERO PUSH2 0x1F11 JUMPI PUSH1 0x0 DUP1 REVERT JUMPDEST POP GAS STATICCALL ISZERO DUP1 ISZERO PUSH2 0x1F25 JUMPI RETURNDATASIZE PUSH1 0x0 DUP1 RETURNDATACOPY RETURNDATASIZE PUSH1 0x0 REVERT JUMPDEST POP POP POP POP PUSH1 0x40 MLOAD RETURNDATASIZE PUSH1 0x20 DUP2 LT ISZERO PUSH2 0x1F3B JUMPI PUSH1 0x0 DUP1 REVERT JUMPDEST POP MLOAD PUSH1 0x40 DUP1 MLOAD PUSH4 0x23B872DD PUSH1 0xE0 SHL DUP2 MSTORE PUSH1 0x1 PUSH1 0x1 PUSH1 0xA0 SHL SUB DUP8 DUP2 AND PUSH1 0x4 DUP4 ADD MSTORE ADDRESS PUSH1 0x24 DUP4 ADD MSTORE PUSH1 0x44 DUP3 ADD DUP8 SWAP1 MSTORE SWAP2 MLOAD SWAP3 SWAP4 POP SWAP1 DUP8 AND SWAP2 PUSH4 0x23B872DD SWAP2 PUSH1 0x64 DUP1 DUP3 ADD SWAP3 PUSH1 0x0 SWAP3 SWAP1 SWAP2 SWAP1 DUP3 SWAP1 SUB ADD DUP2 DUP4 DUP8 DUP1 EXTCODESIZE ISZERO DUP1 ISZERO PUSH2 0x1F98 JUMPI PUSH1 0x0 DUP1 REVERT JUMPDEST POP GAS CALL ISZERO DUP1 ISZERO PUSH2 0x1FAC JUMPI RETURNDATASIZE PUSH1 0x0 DUP1 RETURNDATACOPY RETURNDATASIZE PUSH1 0x0 REVERT JUMPDEST POP POP POP POP PUSH2 0x1FB8 PUSH2 0x2D7C JUMP JUMPDEST PUSH1 0x0 DUP6 PUSH1 0x1 PUSH1 0x1 PUSH1 0xA0 SHL SUB AND PUSH4 0x70A08231 ADDRESS PUSH1 0x40 MLOAD DUP3 PUSH4 0xFFFFFFFF AND PUSH1 0xE0 SHL DUP2 MSTORE PUSH1 0x4 ADD DUP1 DUP3 PUSH1 0x1 PUSH1 0x1 PUSH1 0xA0 SHL SUB AND DUP2 MSTORE PUSH1 0x20 ADD SWAP2 POP POP PUSH1 0x20 PUSH1 0x40 MLOAD DUP1 DUP4 SUB DUP2 DUP7 DUP1 EXTCODESIZE ISZERO DUP1 ISZERO PUSH2 0x2007 JUMPI PUSH1 0x0 DUP1 REVERT JUMPDEST POP GAS STATICCALL ISZERO DUP1 ISZERO PUSH2 0x201B JUMPI RETURNDATASIZE PUSH1 0x0 DUP1 RETURNDATACOPY RETURNDATASIZE PUSH1 0x0 REVERT JUMPDEST POP POP POP POP PUSH1 0x40 MLOAD RETURNDATASIZE PUSH1 0x20 DUP2 LT ISZERO PUSH2 0x2031 JUMPI PUSH1 0x0 DUP1 REVERT JUMPDEST POP MLOAD SWAP1 POP PUSH2 0x1B5A DUP2 DUP4 PUSH2 0x2DE9 JUMP JUMPDEST PUSH1 0x0 DUP1 PUSH2 0x204C DUP5 DUP7 PUSH2 0x2DFE JUMP JUMPDEST SWAP1 POP PUSH2 0x2058 DUP4 DUP3 PUSH2 0x2E2E JUMP JUMPDEST SWAP2 POP PUSH2 0x2065 DUP8 DUP8 DUP5 PUSH2 0x2E52 JUMP JUMPDEST PUSH2 0x2070 DUP7 DUP4 DUP4 PUSH2 0x2ED2 JUMP JUMPDEST DUP4 MLOAD PUSH2 0x207C SWAP1 DUP7 PUSH2 0x2FDE JUMP JUMPDEST POP SWAP6 SWAP5 POP POP POP POP POP JUMP JUMPDEST PUSH1 0x0 DUP1 PUSH2 0xB0F PUSH1 0x1D PUSH2 0x15CE JUMP JUMPDEST PUSH1 0x8 DUP2 SWAP1 SHR PUSH1 0xFF SWAP1 SWAP2 AND SHL SWAP1 JUMP JUMPDEST PUSH1 0x0 DUP3 PUSH2 0x20B0 JUMPI POP PUSH1 0x0 PUSH2 0xB0F JUMP JUMPDEST DUP3 DUP3 MUL DUP3 DUP5 DUP3 DUP2 PUSH2 0x20BD JUMPI INVALID JUMPDEST DIV EQ PUSH2 0x1078 JUMPI PUSH1 0x0 DUP1 REVERT JUMPDEST PUSH1 0x0 DUP1 DUP3 GT PUSH2 0x20D6 JUMPI PUSH1 0x0 DUP1 REVERT JUMPDEST DUP2 DUP4 DUP2 PUSH2 0x20DF JUMPI INVALID JUMPDEST DIV SWAP4 SWAP3 POP POP POP JUMP JUMPDEST PUSH1 0x0 DUP1 PUSH2 0x211A PUSH15 0xC097CE7BC90715B34B9F1000000000 PUSH2 0x2114 DUP7 PUSH1 0x0 ADD MLOAD DUP7 PUSH2 0x118D SWAP1 SWAP2 SWAP1 PUSH4 0xFFFFFFFF AND JUMP JUMPDEST SWAP1 PUSH2 0x3033 JUMP JUMPDEST SWAP1 POP PUSH1 0x0 DUP4 SLT PUSH2 0x212A JUMPI DUP1 PUSH2 0xB29 JUMP JUMPDEST PUSH2 0xB29 DUP2 PUSH1 0x0 NOT PUSH2 0x3064 JUMP JUMPDEST PUSH1 0x0 PUSH1 0x1 DUP3 SLT PUSH2 0x2145 JUMPI PUSH1 0x0 DUP1 REVERT JUMPDEST DUP2 PUSH2 0x2152 JUMPI POP PUSH1 0x0 PUSH2 0xB0F JUMP JUMPDEST PUSH2 0x1078 PUSH1 0x1 PUSH2 0x2181 PUSH15 0xC097CE7BC90715B34B9F1000000000 PUSH2 0x2114 DUP8 PUSH1 0x20 ADD MLOAD DUP8 PUSH2 0x118D SWAP1 SWAP2 SWAP1 PUSH4 0xFFFFFFFF AND JUMP JUMPDEST SWAP1 PUSH2 0x307A JUMP JUMPDEST PUSH2 0x218F PUSH2 0x4254 JUMP JUMPDEST PUSH1 0x0 PUSH2 0x2199 PUSH2 0x3090 JUMP JUMPDEST PUSH1 0x0 DUP6 DUP2 MSTORE PUSH1 0x20 DUP3 DUP2 MSTORE PUSH1 0x40 DUP1 DUP4 KECCAK256 DUP8 ISZERO ISZERO DUP5 MSTORE DUP3 MSTORE SWAP2 DUP3 SWAP1 KECCAK256 DUP3 MLOAD PUSH1 0xA0 DUP2 ADD DUP5 MSTORE DUP2 SLOAD PUSH1 0x1 PUSH1 0x1 PUSH1 0xA0 SHL SUB DUP2 AND DUP3 MSTORE PUSH1 0xFF PUSH1 0x1 PUSH1 0xA0 SHL DUP3 DIV DUP2 AND ISZERO ISZERO SWAP5 DUP4 ADD SWAP5 SWAP1 SWAP5 MSTORE PUSH1 0x1 PUSH1 0xB0 SHL DUP2 DIV DUP5 AND PUSH1 0xA EXP SWAP5 DUP3 ADD SWAP5 SWAP1 SWAP5 MSTORE SWAP4 SWAP5 POP SWAP3 SWAP2 PUSH1 0x60 DUP4 ADD SWAP2 PUSH1 0x1 PUSH1 0xA8 SHL SWAP1 SWAP2 DIV AND PUSH1 0x5 DUP2 GT ISZERO PUSH2 0x220E JUMPI INVALID JUMPDEST DUP2 MSTORE PUSH1 0x0 PUSH1 0x20 SWAP1 SWAP2 ADD MSTORE SWAP6 SWAP5 POP POP POP POP POP JUMP JUMPDEST DUP2 MLOAD PUSH1 0x40 MLOAD PUSH4 0xDB006A75 PUSH1 0xE0 SHL DUP2 MSTORE PUSH1 0x0 SWAP2 SELFBALANCE SWAP2 DUP4 SWAP2 PUSH1 0x1 PUSH1 0x1 PUSH1 0xA0 SHL SUB AND SWAP1 PUSH4 0xDB006A75 SWAP1 PUSH2 0x2255 SWAP1 DUP8 SWAP1 PUSH1 0x4 ADD PUSH2 0x49A8 JUMP JUMPDEST PUSH1 0x20 PUSH1 0x40 MLOAD DUP1 DUP4 SUB DUP2 PUSH1 0x0 DUP8 DUP1 EXTCODESIZE ISZERO DUP1 ISZERO PUSH2 0x226F JUMPI PUSH1 0x0 DUP1 REVERT JUMPDEST POP GAS CALL ISZERO DUP1 ISZERO PUSH2 0x2283 JUMPI RETURNDATASIZE PUSH1 0x0 DUP1 RETURNDATACOPY RETURNDATASIZE PUSH1 0x0 REVERT JUMPDEST POP POP POP POP PUSH1 0x40 MLOAD RETURNDATASIZE PUSH1 0x1F NOT PUSH1 0x1F DUP3 ADD AND DUP3 ADD DUP1 PUSH1 0x40 MSTORE POP DUP2 ADD SWAP1 PUSH2 0x22A7 SWAP2 SWAP1 PUSH2 0x46E0 JUMP JUMPDEST SWAP1 POP DUP1 ISZERO PUSH2 0x22C7 JUMPI PUSH1 0x40 MLOAD PUSH3 0x461BCD PUSH1 0xE5 SHL DUP2 MSTORE PUSH1 0x4 ADD PUSH2 0x274 SWAP1 PUSH2 0x49FF JUMP JUMPDEST SELFBALANCE PUSH2 0x1B5A DUP2 DUP5 PUSH2 0x2DE9 JUMP JUMPDEST PUSH1 0x0 DUP1 DUP4 PUSH1 0x0 ADD MLOAD PUSH1 0x1 PUSH1 0x1 PUSH1 0xA0 SHL SUB AND PUSH4 0x70A08231 ADDRESS PUSH1 0x40 MLOAD DUP3 PUSH4 0xFFFFFFFF AND PUSH1 0xE0 SHL DUP2 MSTORE PUSH1 0x4 ADD PUSH2 0x2305 SWAP2 SWAP1 PUSH2 0x4883 JUMP JUMPDEST PUSH1 0x20 PUSH1 0x40 MLOAD DUP1 DUP4 SUB DUP2 DUP7 DUP1 EXTCODESIZE ISZERO DUP1 ISZERO PUSH2 0x231D JUMPI PUSH1 0x0 DUP1 REVERT JUMPDEST POP GAS STATICCALL ISZERO DUP1 ISZERO PUSH2 0x2331 JUMPI RETURNDATASIZE PUSH1 0x0 DUP1 RETURNDATACOPY RETURNDATASIZE PUSH1 0x0 REVERT JUMPDEST POP POP POP POP PUSH1 0x40 MLOAD RETURNDATASIZE PUSH1 0x1F NOT PUSH1 0x1F DUP3 ADD AND DUP3 ADD DUP1 PUSH1 0x40 MSTORE POP DUP2 ADD SWAP1 PUSH2 0x2355 SWAP2 SWAP1 PUSH2 0x46E0 JUMP JUMPDEST SWAP1 POP PUSH1 0x0 DUP6 PUSH1 0x0 ADD MLOAD PUSH1 0x1 PUSH1 0x1 PUSH1 0xA0 SHL SUB AND PUSH4 0xDB006A75 DUP6 PUSH1 0x40 MLOAD DUP3 PUSH4 0xFFFFFFFF AND PUSH1 0xE0 SHL DUP2 MSTORE PUSH1 0x4 ADD PUSH2 0x2389 SWAP2 SWAP1 PUSH2 0x49A8 JUMP JUMPDEST PUSH1 0x20 PUSH1 0x40 MLOAD DUP1 DUP4 SUB DUP2 PUSH1 0x0 DUP8 DUP1 EXTCODESIZE ISZERO DUP1 ISZERO PUSH2 0x23A3 JUMPI PUSH1 0x0 DUP1 REVERT JUMPDEST POP GAS CALL ISZERO DUP1 ISZERO PUSH2 0x23B7 JUMPI RETURNDATASIZE PUSH1 0x0 DUP1 RETURNDATACOPY RETURNDATASIZE PUSH1 0x0 REVERT JUMPDEST POP POP POP POP PUSH1 0x40 MLOAD RETURNDATASIZE PUSH1 0x1F NOT PUSH1 0x1F DUP3 ADD AND DUP3 ADD DUP1 PUSH1 0x40 MSTORE POP DUP2 ADD SWAP1 PUSH2 0x23DB SWAP2 SWAP1 PUSH2 0x46E0 JUMP JUMPDEST SWAP1 POP DUP1 ISZERO PUSH2 0x23FB JUMPI PUSH1 0x40 MLOAD PUSH3 0x461BCD PUSH1 0xE5 SHL DUP2 MSTORE PUSH1 0x4 ADD PUSH2 0x274 SWAP1 PUSH2 0x49FF JUMP JUMPDEST DUP5 MLOAD PUSH1 0x40 MLOAD PUSH4 0x70A08231 PUSH1 0xE0 SHL DUP2 MSTORE PUSH1 0x0 SWAP2 PUSH1 0x1 PUSH1 0x1 PUSH1 0xA0 SHL SUB AND SWAP1 PUSH4 0x70A08231 SWAP1 PUSH2 0x242B SWAP1 ADDRESS SWAP1 PUSH1 0x4 ADD PUSH2 0x4883 JUMP JUMPDEST PUSH1 0x20 PUSH1 0x40 MLOAD DUP1 DUP4 SUB DUP2 DUP7 DUP1 EXTCODESIZE ISZERO DUP1 ISZERO PUSH2 0x2443 JUMPI PUSH1 0x0 DUP1 REVERT JUMPDEST POP GAS STATICCALL ISZERO DUP1 ISZERO PUSH2 0x2457 JUMPI RETURNDATASIZE PUSH1 0x0 DUP1 RETURNDATACOPY RETURNDATASIZE PUSH1 0x0 REVERT JUMPDEST POP POP POP POP PUSH1 0x40 MLOAD RETURNDATASIZE PUSH1 0x1F NOT PUSH1 0x1F DUP3 ADD AND DUP3 ADD DUP1 PUSH1 0x40 MSTORE POP DUP2 ADD SWAP1 PUSH2 0x247B SWAP2 SWAP1 PUSH2 0x46E0 JUMP JUMPDEST SWAP1 POP PUSH2 0x2487 DUP2 DUP5 PUSH2 0x2DE9 JUMP JUMPDEST SWAP8 SWAP7 POP POP POP POP POP POP POP JUMP JUMPDEST PUSH2 0x249A PUSH2 0x4283 JUMP JUMPDEST PUSH1 0x0 PUSH2 0x24A4 PUSH2 0x2086 JUMP JUMPDEST PUSH2 0xFFFF SWAP4 DUP5 AND PUSH1 0x0 SWAP1 DUP2 MSTORE PUSH1 0x20 SWAP2 DUP3 MSTORE PUSH1 0x40 SWAP1 DUP2 SWAP1 KECCAK256 DUP1 SLOAD PUSH5 0xFFFFFFFFFF DUP2 AND DUP7 MSTORE PUSH1 0x1 PUSH1 0x28 SHL DUP2 DIV PUSH1 0x1 PUSH1 0x1 PUSH1 0x58 SHL SUB SWAP1 DUP2 AND SWAP5 DUP8 ADD SWAP5 SWAP1 SWAP5 MSTORE PUSH1 0x1 DUP3 ADD SLOAD DUP5 AND SWAP3 DUP7 ADD SWAP3 SWAP1 SWAP3 MSTORE PUSH1 0x1 PUSH1 0xD8 SHL DUP3 DIV PUSH4 0xFFFFFFFF AND PUSH1 0x60 DUP7 ADD MSTORE PUSH1 0x1 PUSH1 0x80 SHL SWAP1 SWAP2 DIV SWAP1 SWAP2 AND PUSH1 0x80 DUP5 ADD MSTORE PUSH1 0x2 ADD SLOAD PUSH1 0x1 PUSH1 0x1 PUSH1 0x50 SHL SUB DUP1 DUP3 AND PUSH1 0xA0 DUP6 ADD MSTORE PUSH1 0x1 PUSH1 0x50 SHL DUP3 DIV DUP2 AND PUSH1 0xC0 DUP6 ADD MSTORE PUSH1 0x1 PUSH1 0xA0 SHL DUP3 DIV AND PUSH1 0xE0 DUP5 ADD MSTORE PUSH1 0x1 PUSH1 0xF0 SHL SWAP1 DIV PUSH1 0xFF AND PUSH2 0x12C MUL SWAP1 SWAP3 AND PUSH2 0x100 DUP3 ADD MSTORE SWAP2 SWAP1 POP JUMP JUMPDEST PUSH1 0x0 DUP1 PUSH2 0x2566 DUP4 PUSH2 0x309D JUMP JUMPDEST PUSH1 0x1 PUSH1 0x1 PUSH1 0xA0 SHL SUB AND PUSH4 0xEF81F216 PUSH1 0x40 MLOAD DUP2 PUSH4 0xFFFFFFFF AND PUSH1 0xE0 SHL DUP2 MSTORE PUSH1 0x4 ADD PUSH1 0x40 DUP1 MLOAD DUP1 DUP4 SUB DUP2 PUSH1 0x0 DUP8 DUP1 EXTCODESIZE ISZERO DUP1 ISZERO PUSH2 0x259F JUMPI PUSH1 0x0 DUP1 REVERT JUMPDEST POP GAS CALL ISZERO DUP1 ISZERO PUSH2 0x25B3 JUMPI RETURNDATASIZE PUSH1 0x0 DUP1 RETURNDATACOPY RETURNDATASIZE PUSH1 0x0 REVERT JUMPDEST POP POP POP POP PUSH1 0x40 MLOAD RETURNDATASIZE PUSH1 0x1F NOT PUSH1 0x1F DUP3 ADD AND DUP3 ADD DUP1 PUSH1 0x40 MSTORE POP DUP2 ADD SWAP1 PUSH2 0xB29 SWAP2 SWAP1 PUSH2 0x4860 JUMP JUMPDEST PUSH2 0x25DF PUSH2 0x4283 JUMP JUMPDEST PUSH1 0x0 DUP1 PUSH1 0x0 PUSH2 0x25EF DUP9 DUP7 DUP10 PUSH2 0x30CD JUMP JUMPDEST PUSH1 0xC0 DUP12 ADD SWAP3 SWAP1 SWAP3 MSTORE PUSH1 0xE0 DUP11 ADD SWAP3 SWAP1 SWAP3 MSTORE PUSH1 0x20 DUP10 ADD MLOAD SWAP2 SWAP4 POP SWAP2 POP PUSH2 0x2613 SWAP1 DUP4 PUSH2 0x31D8 JUMP JUMPDEST PUSH1 0x20 DUP9 ADD MSTORE PUSH1 0x80 DUP8 ADD MLOAD PUSH1 0x0 SWAP1 ISZERO PUSH2 0x2641 JUMPI PUSH1 0x80 DUP9 ADD MLOAD PUSH2 0x263E SWAP1 PUSH2 0x2638 DUP10 DUP3 PUSH2 0x2DE9 JUMP JUMPDEST SWAP1 PUSH2 0x31EA JUMP JUMPDEST SWAP1 POP JUMPDEST PUSH2 0x2661 PUSH2 0x2656 PUSH8 0xDE0B6B3A7640000 DUP4 PUSH2 0x31D8 JUMP JUMPDEST PUSH1 0xA0 DUP11 ADD MLOAD SWAP1 PUSH2 0x3207 JUMP JUMPDEST PUSH1 0xA0 DUP10 ADD MSTORE POP POP PUSH1 0x80 DUP7 ADD SWAP5 SWAP1 SWAP5 MSTORE POP POP DUP3 MSTORE SWAP1 SWAP3 SWAP1 SWAP2 POP JUMP JUMPDEST PUSH1 0x0 PUSH2 0x2685 PUSH2 0x2086 JUMP JUMPDEST PUSH1 0x0 DUP6 PUSH2 0xFFFF AND DUP2 MSTORE PUSH1 0x20 ADD SWAP1 DUP2 MSTORE PUSH1 0x20 ADD PUSH1 0x0 KECCAK256 SWAP1 POP PUSH2 0x26A9 DUP3 PUSH1 0x0 ADD MLOAD PUSH2 0x3224 JUMP JUMPDEST DUP2 SLOAD PUSH5 0xFFFFFFFFFF NOT AND PUSH5 0xFFFFFFFFFF SWAP2 SWAP1 SWAP2 AND OR DUP2 SSTORE PUSH1 0xA0 DUP3 ADD MLOAD PUSH2 0x26CE SWAP1 PUSH2 0x2D11 JUMP JUMPDEST PUSH1 0x2 DUP3 ADD DUP1 SLOAD PUSH10 0xFFFFFFFFFFFFFFFFFFFF NOT AND PUSH1 0x1 PUSH1 0x1 PUSH1 0x50 SHL SUB SWAP3 SWAP1 SWAP3 AND SWAP2 SWAP1 SWAP2 OR SWAP1 SSTORE PUSH1 0xC0 DUP3 ADD MLOAD PUSH2 0x2701 SWAP1 PUSH2 0x2D11 JUMP JUMPDEST DUP2 PUSH1 0x2 ADD PUSH1 0xA PUSH2 0x100 EXP DUP2 SLOAD DUP2 PUSH1 0x1 PUSH1 0x1 PUSH1 0x50 SHL SUB MUL NOT AND SWAP1 DUP4 PUSH1 0x1 PUSH1 0x1 PUSH1 0x50 SHL SUB AND MUL OR SWAP1 SSTORE POP PUSH2 0x2736 DUP3 PUSH1 0xE0 ADD MLOAD PUSH2 0x2D11 JUMP JUMPDEST DUP2 PUSH1 0x2 ADD PUSH1 0x14 PUSH2 0x100 EXP DUP2 SLOAD DUP2 PUSH1 0x1 PUSH1 0x1 PUSH1 0x50 SHL SUB MUL NOT AND SWAP1 DUP4 PUSH1 0x1 PUSH1 0x1 PUSH1 0x50 SHL SUB AND MUL OR SWAP1 SSTORE POP PUSH2 0x276B DUP3 PUSH1 0x20 ADD MLOAD PUSH2 0x3238 JUMP JUMPDEST DUP2 SLOAD PUSH1 0x1 PUSH1 0x1 PUSH1 0x58 SHL SUB SWAP2 SWAP1 SWAP2 AND PUSH1 0x1 PUSH1 0x28 SHL MUL PUSH16 0xFFFFFFFFFFFFFFFFFFFFFF0000000000 NOT SWAP1 SWAP2 AND OR DUP2 SSTORE PUSH1 0x40 DUP3 ADD MLOAD PUSH2 0x27A5 SWAP1 PUSH2 0x3238 JUMP JUMPDEST PUSH1 0x1 DUP3 ADD DUP1 SLOAD PUSH11 0xFFFFFFFFFFFFFFFFFFFFFF NOT AND PUSH1 0x1 PUSH1 0x1 PUSH1 0x58 SHL SUB SWAP3 SWAP1 SWAP3 AND SWAP2 SWAP1 SWAP2 OR SWAP1 SSTORE PUSH1 0x80 DUP3 ADD MLOAD PUSH2 0x27D9 SWAP1 PUSH2 0x3238 JUMP JUMPDEST DUP2 SLOAD PUSH1 0x1 PUSH1 0x1 PUSH1 0x58 SHL SUB SWAP2 SWAP1 SWAP2 AND PUSH1 0x1 PUSH1 0x80 SHL MUL PUSH11 0xFFFFFFFFFFFFFFFFFFFFFF PUSH1 0x80 SHL NOT SWAP1 SWAP2 AND OR DUP2 SSTORE PUSH1 0x60 DUP3 ADD MLOAD PUSH2 0x2811 SWAP1 PUSH2 0x2CFE JUMP JUMPDEST DUP2 SLOAD PUSH4 0xFFFFFFFF SWAP2 SWAP1 SWAP2 AND PUSH1 0x1 PUSH1 0xD8 SHL MUL PUSH4 0xFFFFFFFF PUSH1 0xD8 SHL NOT SWAP1 SWAP2 AND OR DUP2 SSTORE DUP3 ISZERO PUSH2 0x285D JUMPI PUSH1 0x0 PUSH2 0x2842 DUP5 PUSH2 0xD8A JUMP JUMPDEST SWAP1 POP PUSH2 0x284E DUP6 DUP3 PUSH2 0x324E JUMP JUMPDEST PUSH2 0x285B PUSH2 0xFEE DUP7 DUP4 PUSH2 0x2E52 JUMP JUMPDEST POP JUMPDEST DUP4 PUSH2 0xFFFF AND PUSH32 0xEF25641E225E493886510CA1AD6584FA7B442B9FEA820A29D1DE3CE27D270FD2 DUP4 PUSH1 0xA0 ADD MLOAD DUP5 PUSH1 0xC0 ADD MLOAD DUP6 PUSH1 0xE0 ADD MLOAD PUSH1 0x40 MLOAD PUSH2 0x28A1 SWAP4 SWAP3 SWAP2 SWAP1 PUSH2 0x4C33 JUMP JUMPDEST PUSH1 0x40 MLOAD DUP1 SWAP2 SUB SWAP1 LOG2 POP POP POP POP JUMP JUMPDEST PUSH1 0x0 DUP1 PUSH2 0xB0F PUSH1 0x6 PUSH2 0x15CE JUMP JUMPDEST PUSH1 0x0 DUP1 DUP3 SLT PUSH2 0x28CC JUMPI POP DUP1 PUSH2 0xB0F JUMP JUMPDEST DUP3 MLOAD PUSH1 0x20 DUP5 ADD MLOAD PUSH2 0x28E3 SWAP2 SWAP1 PUSH2 0x2114 SWAP1 DUP6 SWAP1 PUSH2 0x118D JUMP JUMPDEST SWAP1 POP PUSH2 0xB0F JUMP JUMPDEST PUSH1 0x0 PUSH4 0x5F5E100 DUP4 PUSH1 0x40 ADD MLOAD EQ ISZERO PUSH2 0x2903 JUMPI POP DUP1 PUSH2 0xB0F JUMP JUMPDEST PUSH2 0x1078 PUSH4 0x5F5E100 PUSH2 0x2114 DUP6 PUSH1 0x40 ADD MLOAD DUP6 PUSH2 0x118D SWAP1 SWAP2 SWAP1 PUSH4 0xFFFFFFFF AND JUMP JUMPDEST PUSH1 0x0 PUSH2 0x292C PUSH2 0x3285 JUMP JUMPDEST DUP4 MLOAD PUSH1 0x1 PUSH1 0x1 PUSH1 0xA0 SHL SUB AND PUSH1 0x0 SWAP1 DUP2 MSTORE PUSH1 0x20 DUP3 SWAP1 MSTORE PUSH1 0x40 SWAP1 KECCAK256 SLOAD SWAP1 SWAP2 POP DUP1 DUP4 GT PUSH2 0x2957 JUMPI POP POP PUSH2 0x924 JUMP JUMPDEST PUSH1 0x0 PUSH2 0x2962 DUP7 PUSH2 0x309D JUMP JUMPDEST SWAP1 POP PUSH1 0x0 DUP2 PUSH1 0x1 PUSH1 0x1 PUSH1 0xA0 SHL SUB AND PUSH4 0xB5E4DA23 DUP5 DUP8 SUB PUSH1 0x40 MLOAD DUP3 PUSH4 0xFFFFFFFF AND PUSH1 0xE0 SHL DUP2 MSTORE PUSH1 0x4 ADD PUSH2 0x2994 SWAP2 SWAP1 PUSH2 0x49A8 JUMP JUMPDEST PUSH1 0x0 PUSH1 0x40 MLOAD DUP1 DUP4 SUB DUP2 DUP7 DUP1 EXTCODESIZE ISZERO DUP1 ISZERO PUSH2 0x29AC JUMPI PUSH1 0x0 DUP1 REVERT JUMPDEST POP GAS STATICCALL ISZERO DUP1 ISZERO PUSH2 0x29C0 JUMPI RETURNDATASIZE PUSH1 0x0 DUP1 RETURNDATACOPY RETURNDATASIZE PUSH1 0x0 REVERT JUMPDEST POP POP POP POP PUSH1 0x40 MLOAD RETURNDATASIZE PUSH1 0x0 DUP3 RETURNDATACOPY PUSH1 0x1F RETURNDATASIZE SWAP1 DUP2 ADD PUSH1 0x1F NOT AND DUP3 ADD PUSH1 0x40 MSTORE PUSH2 0x29E8 SWAP2 SWAP1 DUP2 ADD SWAP1 PUSH2 0x45A5 JUMP JUMPDEST SWAP1 POP PUSH1 0x0 PUSH2 0x29F6 DUP8 DUP4 PUSH2 0x3292 JUMP JUMPDEST SWAP1 POP PUSH2 0x2A02 DUP5 DUP3 PUSH2 0x31D8 JUMP JUMPDEST DUP7 GT ISZERO PUSH2 0x2A0E JUMPI PUSH1 0x0 DUP1 REVERT JUMPDEST POP POP POP POP POP POP POP POP JUMP JUMPDEST DUP3 PUSH1 0x1 PUSH1 0x1 PUSH1 0xA0 SHL SUB AND PUSH4 0xA9059CBB DUP4 DUP4 PUSH1 0x40 MLOAD DUP4 PUSH4 0xFFFFFFFF AND PUSH1 0xE0 SHL DUP2 MSTORE PUSH1 0x4 ADD DUP1 DUP4 PUSH1 0x1 PUSH1 0x1 PUSH1 0xA0 SHL SUB AND DUP2 MSTORE PUSH1 0x20 ADD DUP3 DUP2 MSTORE PUSH1 0x20 ADD SWAP3 POP POP POP PUSH1 0x0 PUSH1 0x40 MLOAD DUP1 DUP4 SUB DUP2 PUSH1 0x0 DUP8 DUP1 EXTCODESIZE ISZERO DUP1 ISZERO PUSH2 0x2A6F JUMPI PUSH1 0x0 DUP1 REVERT JUMPDEST POP GAS CALL ISZERO DUP1 ISZERO PUSH2 0x2A83 JUMPI RETURNDATASIZE PUSH1 0x0 DUP1 RETURNDATACOPY RETURNDATASIZE PUSH1 0x0 REVERT JUMPDEST POP POP POP POP PUSH2 0x924 PUSH2 0x2D7C JUMP JUMPDEST PUSH1 0x0 DUP1 PUSH2 0x2A9A PUSH2 0x34D5 JUMP JUMPDEST PUSH1 0x0 SWAP4 DUP5 MSTORE PUSH1 0x20 MSTORE POP POP PUSH1 0x40 SWAP1 KECCAK256 SLOAD PUSH1 0x1 PUSH1 0x1 PUSH1 0xA0 SHL SUB AND SWAP1 JUMP JUMPDEST PUSH1 0x0 DUP1 PUSH1 0x0 DUP1 PUSH2 0x2AC3 PUSH2 0x34E2 JUMP JUMPDEST PUSH1 0x1 PUSH1 0x1 PUSH1 0xA0 SHL SUB SWAP6 SWAP1 SWAP6 AND PUSH1 0x0 SWAP1 DUP2 MSTORE PUSH1 0x20 SWAP6 SWAP1 SWAP6 MSTORE POP POP PUSH1 0x40 SWAP1 SWAP3 KECCAK256 SLOAD PUSH1 0x1 PUSH1 0x1 PUSH1 0x60 SHL SUB DUP2 AND SWAP4 PUSH1 0x1 PUSH1 0x60 SHL DUP3 DIV PUSH1 0x1 PUSH1 0x1 PUSH1 0x80 SHL SUB AND SWAP4 POP PUSH1 0x1 PUSH1 0xE0 SHL SWAP1 SWAP2 DIV PUSH4 0xFFFFFFFF AND SWAP2 POP JUMP JUMPDEST PUSH1 0x0 DUP1 PUSH1 0x0 PUSH2 0x2B20 DUP7 DUP6 PUSH2 0x34EF JUMP JUMPDEST POP SWAP2 POP SWAP2 POP PUSH1 0x0 PUSH2 0x2B2F PUSH2 0x34E2 JUMP JUMPDEST PUSH1 0x1 PUSH1 0x1 PUSH1 0xA0 SHL SUB DUP9 AND PUSH1 0x0 SWAP1 DUP2 MSTORE PUSH1 0x20 DUP3 SWAP1 MSTORE PUSH1 0x40 DUP2 KECCAK256 SWAP2 SWAP3 POP PUSH2 0x2B54 DUP6 DUP10 PUSH2 0x14EA JUMP JUMPDEST SWAP1 POP DUP1 PUSH1 0x0 SGT ISZERO DUP1 ISZERO PUSH2 0x2B6D JUMPI POP PUSH1 0x1 PUSH1 0x1 PUSH1 0x60 SHL SUB DUP2 LT JUMPDEST PUSH2 0x2B76 JUMPI PUSH1 0x0 DUP1 REVERT JUMPDEST DUP2 SLOAD PUSH12 0xFFFFFFFFFFFFFFFFFFFFFFFF NOT AND PUSH1 0x1 PUSH1 0x1 PUSH1 0x60 SHL SUB DUP3 AND OR PUSH16 0xFFFFFFFFFFFFFFFFFFFFFFFFFFFFFFFF PUSH1 0x60 SHL NOT AND PUSH1 0x1 PUSH1 0x60 SHL PUSH1 0x1 PUSH1 0x1 PUSH1 0x80 SHL SUB DUP7 AND MUL OR DUP3 SSTORE PUSH4 0xFFFFFFFF DUP8 LT PUSH2 0x2BCB JUMPI PUSH1 0x0 DUP1 REVERT JUMPDEST POP DUP1 SLOAD PUSH4 0xFFFFFFFF DUP8 AND PUSH1 0x1 PUSH1 0xE0 SHL MUL PUSH1 0x1 PUSH1 0x1 PUSH1 0xE0 SHL SUB SWAP1 SWAP2 AND OR SWAP1 SSTORE POP SWAP2 POP POP SWAP4 SWAP3 POP POP POP JUMP JUMPDEST PUSH1 0x0 DUP5 PUSH1 0xE0 ADD MLOAD PUSH1 0x0 EQ PUSH2 0x2C07 JUMPI PUSH1 0x0 DUP1 REVERT JUMPDEST PUSH2 0x2C43 PUSH2 0x2C3C DUP7 PUSH2 0x100 ADD MLOAD PUSH2 0x2C36 PUSH8 0xDE0B6B3A7640000 PUSH2 0x1566 DUP9 PUSH2 0x2C30 DUP13 PUSH1 0x40 ADD MLOAD PUSH2 0xC4E JUMP JUMPDEST SWAP1 PUSH2 0x20A1 JUMP JUMPDEST SWAP1 PUSH2 0x2DE9 JUMP JUMPDEST DUP3 SWAP1 PUSH2 0x31D8 JUMP JUMPDEST SWAP1 POP PUSH2 0x2C5B PUSH8 0xDE0B6B3A7640000 PUSH2 0x1566 DUP5 DUP7 PUSH2 0x20A1 JUMP JUMPDEST DUP6 PUSH2 0x100 ADD DUP2 DUP2 MSTORE POP POP SWAP5 SWAP4 POP POP POP POP JUMP JUMPDEST PUSH1 0x0 DUP1 PUSH2 0x2C78 PUSH2 0x1DD9 JUMP JUMPDEST PUSH1 0x1 PUSH1 0x1 PUSH1 0xA0 SHL SUB DUP5 AND PUSH1 0x0 SWAP1 DUP2 MSTORE PUSH1 0x20 DUP3 SWAP1 MSTORE PUSH1 0x40 SWAP1 KECCAK256 DUP1 SLOAD SWAP2 SWAP3 POP SWAP1 PUSH1 0x1 PUSH1 0xF8 SHL SWAP1 DIV PUSH1 0xFF AND ISZERO PUSH2 0x2CD4 JUMPI PUSH2 0x2CAD PUSH2 0x3585 JUMP JUMPDEST PUSH1 0x1 PUSH1 0x1 PUSH1 0xA0 SHL SUB DUP1 DUP7 AND PUSH1 0x0 SWAP1 DUP2 MSTORE PUSH1 0x20 SWAP3 SWAP1 SWAP3 MSTORE PUSH1 0x40 SWAP1 SWAP2 KECCAK256 SLOAD AND SWAP3 POP PUSH2 0xA16 SWAP2 POP POP JUMP JUMPDEST PUSH1 0x0 SWAP3 POP POP POP PUSH2 0xA16 JUMP JUMPDEST PUSH2 0x67D PUSH20 0x19BE259BC299F3F653688C7655C87F998BC7BC1 DUP4 DUP4 PUSH2 0x2A18 JUMP JUMPDEST PUSH1 0x0 PUSH4 0xFFFFFFFF DUP3 GT ISZERO PUSH2 0xC5D JUMPI PUSH1 0x0 DUP1 REVERT JUMPDEST PUSH1 0x0 PUSH1 0x1 PUSH1 0x1 PUSH1 0x50 SHL SUB DUP3 GT ISZERO PUSH2 0xC5D JUMPI PUSH1 0x0 DUP1 REVERT JUMPDEST PUSH1 0x0 PUSH2 0x2D33 DUP7 DUP4 PUSH2 0x3592 JUMP JUMPDEST SWAP1 POP PUSH2 0xEA2 DUP7 DUP7 DUP7 PUSH2 0x2D45 DUP8 DUP7 PUSH2 0x35CB JUMP JUMPDEST PUSH2 0x3652 JUMP JUMPDEST PUSH1 0x0 PUSH11 0x7FFFFFFFFFFFFFFFFFFFFF NOT DUP3 SLT DUP1 ISZERO SWAP1 PUSH2 0x2D73 JUMPI POP PUSH11 0x7FFFFFFFFFFFFFFFFFFFFF DUP3 SGT ISZERO JUMPDEST PUSH2 0xC5D JUMPI PUSH1 0x0 DUP1 REVERT JUMPDEST PUSH1 0x0 PUSH2 0x2D86 PUSH2 0x42CF JUMP JUMPDEST RETURNDATASIZE DUP1 ISZERO PUSH2 0x2D9A JUMPI PUSH1 0x20 DUP2 EQ PUSH2 0x2DA3 JUMPI PUSH1 0x0 DUP1 REVERT JUMPDEST PUSH1 0x1 SWAP3 POP PUSH2 0x2DAE JUMP JUMPDEST PUSH1 0x20 PUSH1 0x0 DUP4 RETURNDATACOPY DUP2 MLOAD SWAP3 POP JUMPDEST POP DUP2 PUSH2 0x67D JUMPI PUSH1 0x40 DUP1 MLOAD PUSH3 0x461BCD PUSH1 0xE5 SHL DUP2 MSTORE PUSH1 0x20 PUSH1 0x4 DUP3 ADD MSTORE PUSH1 0x5 PUSH1 0x24 DUP3 ADD MSTORE PUSH5 0x455243323 PUSH1 0xDC SHL PUSH1 0x44 DUP3 ADD MSTORE SWAP1 MLOAD SWAP1 DUP2 SWAP1 SUB PUSH1 0x64 ADD SWAP1 REVERT JUMPDEST PUSH1 0x0 DUP3 DUP3 GT ISZERO PUSH2 0x2DF8 JUMPI PUSH1 0x0 DUP1 REVERT JUMPDEST POP SWAP1 SUB SWAP1 JUMP JUMPDEST PUSH1 0x0 PUSH4 0x5F5E100 DUP4 PUSH1 0x40 ADD MLOAD EQ ISZERO PUSH2 0x2E17 JUMPI POP DUP1 PUSH2 0xB0F JUMP JUMPDEST PUSH1 0x40 DUP4 ADD MLOAD PUSH2 0x1078 SWAP1 PUSH2 0x2114 DUP5 PUSH4 0x5F5E100 PUSH2 0x118D JUMP JUMPDEST DUP2 MLOAD PUSH1 0x0 SWAP1 DUP2 SWAP1 PUSH2 0x211A SWAP1 PUSH2 0x2114 DUP6 PUSH15 0xC097CE7BC90715B34B9F1000000000 PUSH2 0x118D JUMP JUMPDEST PUSH1 0x0 PUSH2 0x2E5C PUSH2 0x15C5 JUMP JUMPDEST PUSH2 0xFFFF DUP5 AND PUSH1 0x0 SWAP1 DUP2 MSTORE PUSH1 0x20 SWAP2 SWAP1 SWAP2 MSTORE PUSH1 0x40 SWAP1 DUP2 SWAP1 KECCAK256 SLOAD SWAP1 MLOAD PUSH4 0xAD1C095D PUSH1 0xE0 SHL DUP2 MSTORE PUSH1 0x1 PUSH1 0x1 PUSH1 0xA0 SHL SUB SWAP1 SWAP2 AND SWAP2 POP DUP2 SWAP1 PUSH4 0xAD1C095D SWAP1 PUSH2 0x2EA4 SWAP1 DUP8 SWAP1 DUP7 SWAP1 PUSH1 0x4 ADD PUSH2 0x48BA JUMP JUMPDEST PUSH1 0x0 PUSH1 0x40 MLOAD DUP1 DUP4 SUB DUP2 PUSH1 0x0 DUP8 DUP1 EXTCODESIZE ISZERO DUP1 ISZERO PUSH2 0x2EBE JUMPI PUSH1 0x0 DUP1 REVERT JUMPDEST POP GAS CALL ISZERO DUP1 ISZERO PUSH2 0x2A0E JUMPI RETURNDATASIZE PUSH1 0x0 DUP1 RETURNDATACOPY RETURNDATASIZE PUSH1 0x0 REVERT JUMPDEST PUSH1 0x0 PUSH2 0x2EDC PUSH2 0x2086 JUMP JUMPDEST PUSH2 0xFFFF DUP6 AND PUSH1 0x0 SWAP1 DUP2 MSTORE PUSH1 0x20 SWAP2 SWAP1 SWAP2 MSTORE PUSH1 0x40 SWAP1 KECCAK256 DUP1 SLOAD SWAP1 SWAP2 POP PUSH5 0xFFFFFFFFFF AND TIMESTAMP EQ PUSH2 0x2F07 JUMPI PUSH1 0x0 DUP1 REVERT JUMPDEST DUP1 SLOAD PUSH1 0x0 SWAP1 PUSH2 0x2F26 SWAP1 PUSH1 0x1 PUSH1 0x28 SHL SWAP1 DIV PUSH1 0x1 PUSH1 0x1 PUSH1 0x58 SHL SUB AND DUP6 PUSH2 0x14EA JUMP JUMPDEST DUP3 SLOAD SWAP1 SWAP2 POP PUSH1 0x0 SWAP1 PUSH2 0x2F48 SWAP1 PUSH1 0x1 PUSH1 0x80 SHL SWAP1 DIV PUSH1 0x1 PUSH1 0x1 PUSH1 0x58 SHL SUB AND DUP6 PUSH2 0x14EA JUMP JUMPDEST SWAP1 POP DUP1 PUSH3 0x4C4B40 SGT ISZERO PUSH2 0x2F5A JUMPI PUSH1 0x0 DUP1 REVERT JUMPDEST PUSH2 0x2F6B PUSH2 0x2F66 DUP3 PUSH2 0xC4E JUMP JUMPDEST PUSH2 0x3238 JUMP JUMPDEST DUP4 SLOAD PUSH1 0x1 PUSH1 0x1 PUSH1 0x58 SHL SUB SWAP2 SWAP1 SWAP2 AND PUSH1 0x1 PUSH1 0x80 SHL MUL PUSH11 0xFFFFFFFFFFFFFFFFFFFFFF PUSH1 0x80 SHL NOT SWAP1 SWAP2 AND OR DUP4 SSTORE PUSH2 0x2FA1 PUSH2 0x2F66 DUP4 PUSH2 0xC4E JUMP JUMPDEST DUP4 SLOAD PUSH1 0x1 PUSH1 0x1 PUSH1 0x58 SHL SUB SWAP2 SWAP1 SWAP2 AND PUSH1 0x1 PUSH1 0x28 SHL MUL PUSH16 0xFFFFFFFFFFFFFFFFFFFFFF0000000000 NOT SWAP1 SWAP2 AND OR DUP4 SSTORE PUSH2 0x2FD6 DUP4 PUSH2 0x3686 JUMP JUMPDEST POP POP POP POP POP POP JUMP JUMPDEST PUSH1 0x0 PUSH2 0x2FE8 PUSH2 0x3285 JUMP JUMPDEST PUSH1 0x1 PUSH1 0x1 PUSH1 0xA0 SHL SUB DUP5 AND PUSH1 0x0 SWAP1 DUP2 MSTORE PUSH1 0x20 DUP3 SWAP1 MSTORE PUSH1 0x40 SWAP1 KECCAK256 SLOAD SWAP1 SWAP2 POP PUSH2 0x3011 PUSH2 0x3A1 DUP3 DUP6 PUSH2 0x14EA JUMP JUMPDEST PUSH1 0x1 PUSH1 0x1 PUSH1 0xA0 SHL SUB SWAP1 SWAP5 AND PUSH1 0x0 SWAP1 DUP2 MSTORE PUSH1 0x20 SWAP3 SWAP1 SWAP3 MSTORE POP PUSH1 0x40 SWAP1 KECCAK256 SWAP2 SWAP1 SWAP2 SSTORE POP JUMP JUMPDEST PUSH1 0x0 DUP2 PUSH1 0x0 NOT EQ DUP1 ISZERO PUSH2 0x3049 JUMPI POP PUSH1 0x1 PUSH1 0xFF SHL DUP4 EQ JUMPDEST ISZERO PUSH2 0x3053 JUMPI PUSH1 0x0 DUP1 REVERT JUMPDEST DUP2 DUP4 DUP2 PUSH2 0x305C JUMPI INVALID JUMPDEST SDIV SWAP4 SWAP3 POP POP POP JUMP JUMPDEST PUSH1 0x0 DUP2 DUP4 SLT PUSH2 0x3073 JUMPI DUP2 PUSH2 0x1078 JUMP JUMPDEST POP SWAP1 SWAP2 SWAP1 POP JUMP JUMPDEST DUP1 DUP3 SUB DUP3 DUP2 SGT ISZERO PUSH1 0x0 DUP4 SLT ISZERO EQ PUSH2 0xB0F JUMPI PUSH1 0x0 DUP1 REVERT JUMPDEST PUSH1 0x0 DUP1 PUSH2 0xB0F PUSH1 0x7 PUSH2 0x15CE JUMP JUMPDEST PUSH1 0x0 DUP1 PUSH2 0x30A8 PUSH2 0x3751 JUMP JUMPDEST PUSH2 0xFFFF SWAP4 SWAP1 SWAP4 AND PUSH1 0x0 SWAP1 DUP2 MSTORE PUSH1 0x20 SWAP4 SWAP1 SWAP4 MSTORE POP POP PUSH1 0x40 SWAP1 KECCAK256 SLOAD PUSH1 0x1 PUSH1 0x1 PUSH1 0xA0 SHL SUB AND SWAP1 JUMP JUMPDEST PUSH1 0x0 DUP1 PUSH1 0x0 DUP1 PUSH1 0x0 DUP1 PUSH2 0x30E0 DUP10 DUP9 PUSH2 0x375E JUMP JUMPDEST DUP10 MLOAD SWAP1 SWAP6 POP SWAP2 SWAP4 POP SWAP2 POP PUSH1 0x0 SWAP1 PUSH2 0x3107 SWAP1 PUSH2 0x30FC SWAP1 DUP12 SWAP1 PUSH2 0x2DE9 JUMP JUMPDEST PUSH4 0x3B9ACA00 SWAP1 PUSH2 0x20A1 JUMP JUMPDEST SWAP1 POP PUSH2 0x3141 PUSH2 0x3136 PUSH4 0x1DA9C00 PUSH2 0x311E DUP6 DUP6 PUSH2 0x20A1 JUMP JUMPDEST DUP2 PUSH2 0x3125 JUMPI INVALID JUMPDEST PUSH8 0xDE0B6B3A7640000 SWAP2 SWAP1 DIV PUSH2 0x31D8 JUMP JUMPDEST PUSH1 0xE0 DUP11 ADD MLOAD SWAP1 PUSH2 0x3207 JUMP JUMPDEST SWAP7 POP PUSH2 0x3163 PUSH2 0x3158 PUSH4 0x1DA9C00 PUSH2 0x311E DUP8 DUP6 PUSH2 0x20A1 JUMP JUMPDEST PUSH1 0xC0 DUP11 ADD MLOAD SWAP1 PUSH2 0x3207 JUMP JUMPDEST SWAP6 POP DUP2 DUP4 EQ ISZERO PUSH2 0x317A JUMPI POP PUSH1 0x0 SWAP4 POP PUSH2 0x31CF SWAP2 POP POP JUMP JUMPDEST PUSH1 0x0 PUSH2 0x319C PUSH2 0x3191 PUSH4 0x1DA9C00 PUSH2 0x311E DUP8 DUP7 PUSH2 0x20A1 JUMP JUMPDEST PUSH1 0xE0 DUP12 ADD MLOAD SWAP1 PUSH2 0x3207 JUMP JUMPDEST SWAP1 POP PUSH1 0x0 PUSH2 0x31AA DUP10 DUP4 PUSH2 0x2DE9 JUMP JUMPDEST SWAP1 POP PUSH2 0x31C7 DUP9 PUSH2 0x1566 DUP4 DUP14 PUSH1 0x40 ADD MLOAD PUSH2 0x20A1 SWAP1 SWAP2 SWAP1 PUSH4 0xFFFFFFFF AND JUMP JUMPDEST SWAP7 POP POP POP POP POP POP JUMPDEST SWAP4 POP SWAP4 POP SWAP4 POP SWAP4 JUMP JUMPDEST PUSH1 0x0 DUP3 DUP3 ADD DUP4 DUP2 LT ISZERO PUSH2 0x1078 JUMPI PUSH1 0x0 DUP1 REVERT JUMPDEST PUSH1 0x0 PUSH2 0x1078 PUSH2 0x3201 DUP5 PUSH8 0xDE0B6B3A7640000 PUSH2 0x20A1 JUMP JUMPDEST DUP4 PUSH2 0x20C8 JUMP JUMPDEST PUSH1 0x0 PUSH2 0x1078 PUSH2 0x3216 DUP5 DUP5 PUSH2 0x20A1 JUMP JUMPDEST PUSH8 0xDE0B6B3A7640000 PUSH2 0x20C8 JUMP JUMPDEST PUSH1 0x0 PUSH5 0xFFFFFFFFFF DUP3 GT ISZERO PUSH2 0xC5D JUMPI PUSH1 0x0 DUP1 REVERT JUMPDEST PUSH1 0x0 PUSH1 0x1 PUSH1 0x1 PUSH1 0x58 SHL SUB DUP3 GT ISZERO PUSH2 0xC5D JUMPI PUSH1 0x0 DUP1 REVERT JUMPDEST PUSH1 0x0 DUP2 SLT ISZERO PUSH2 0x325C JUMPI PUSH1 0x0 DUP1 REVERT JUMPDEST PUSH1 0x0 PUSH2 0x326A PUSH2 0xFEE DUP5 PUSH2 0x37F8 JUMP JUMPDEST SWAP1 POP PUSH2 0x3276 DUP2 DUP4 PUSH2 0x14EA JUMP JUMPDEST SWAP1 POP PUSH2 0x924 PUSH2 0xFEE DUP5 DUP4 PUSH2 0x3851 JUMP JUMPDEST PUSH1 0x0 DUP1 PUSH2 0xB0F PUSH1 0x26 PUSH2 0x15CE JUMP JUMPDEST PUSH1 0x0 DUP1 JUMPDEST DUP3 MLOAD DUP2 LT ISZERO PUSH2 0x34CE JUMPI PUSH1 0x0 DUP4 DUP3 DUP2 MLOAD DUP2 LT PUSH2 0x32AD JUMPI INVALID JUMPDEST PUSH1 0x20 MUL PUSH1 0x20 ADD ADD MLOAD SWAP1 POP PUSH1 0x0 DUP2 PUSH1 0x60 ADD MLOAD PUSH1 0x1 PUSH1 0x1 PUSH1 0xA0 SHL SUB AND PUSH4 0x70A08231 ADDRESS PUSH1 0x40 MLOAD DUP3 PUSH4 0xFFFFFFFF AND PUSH1 0xE0 SHL DUP2 MSTORE PUSH1 0x4 ADD PUSH2 0x32E9 SWAP2 SWAP1 PUSH2 0x4883 JUMP JUMPDEST PUSH1 0x20 PUSH1 0x40 MLOAD DUP1 DUP4 SUB DUP2 DUP7 DUP1 EXTCODESIZE ISZERO DUP1 ISZERO PUSH2 0x3301 JUMPI PUSH1 0x0 DUP1 REVERT JUMPDEST POP GAS STATICCALL ISZERO DUP1 ISZERO PUSH2 0x3315 JUMPI RETURNDATASIZE PUSH1 0x0 DUP1 RETURNDATACOPY RETURNDATASIZE PUSH1 0x0 REVERT JUMPDEST POP POP POP POP PUSH1 0x40 MLOAD RETURNDATASIZE PUSH1 0x1F NOT PUSH1 0x1F DUP3 ADD AND DUP3 ADD DUP1 PUSH1 0x40 MSTORE POP DUP2 ADD SWAP1 PUSH2 0x3339 SWAP2 SWAP1 PUSH2 0x46E0 JUMP JUMPDEST SWAP1 POP PUSH1 0x0 PUSH2 0x3347 DUP8 ADDRESS PUSH2 0x38C5 JUMP JUMPDEST SWAP1 POP PUSH1 0x0 JUMPDEST DUP4 MLOAD MLOAD DUP2 LT ISZERO PUSH2 0x3398 JUMPI PUSH2 0x3390 DUP5 PUSH1 0x0 ADD MLOAD DUP3 DUP2 MLOAD DUP2 LT PUSH2 0x3369 JUMPI INVALID JUMPDEST PUSH1 0x20 MUL PUSH1 0x20 ADD ADD MLOAD PUSH1 0x0 DUP7 PUSH1 0x20 ADD MLOAD DUP5 DUP2 MLOAD DUP2 LT PUSH2 0x3383 JUMPI INVALID JUMPDEST PUSH1 0x20 MUL PUSH1 0x20 ADD ADD MLOAD PUSH2 0x396F JUMP JUMPDEST PUSH1 0x1 ADD PUSH2 0x334C JUMP JUMPDEST POP PUSH1 0x0 PUSH2 0x33A5 DUP9 ADDRESS PUSH2 0x38C5 JUMP JUMPDEST SWAP1 POP PUSH1 0x0 PUSH2 0x33B3 DUP3 DUP5 PUSH2 0x2DE9 JUMP JUMPDEST SWAP1 POP DUP1 DUP6 PUSH1 0x40 ADD MLOAD GT ISZERO PUSH2 0x33C6 JUMPI PUSH1 0x0 DUP1 REVERT JUMPDEST PUSH1 0x60 DUP6 ADD MLOAD PUSH1 0x40 MLOAD PUSH4 0x70A08231 PUSH1 0xE0 SHL DUP2 MSTORE PUSH1 0x0 SWAP2 PUSH1 0x1 PUSH1 0x1 PUSH1 0xA0 SHL SUB AND SWAP1 PUSH4 0x70A08231 SWAP1 PUSH2 0x33F9 SWAP1 ADDRESS SWAP1 PUSH1 0x4 ADD PUSH2 0x4883 JUMP JUMPDEST PUSH1 0x20 PUSH1 0x40 MLOAD DUP1 DUP4 SUB DUP2 DUP7 DUP1 EXTCODESIZE ISZERO DUP1 ISZERO PUSH2 0x3411 JUMPI PUSH1 0x0 DUP1 REVERT JUMPDEST POP GAS STATICCALL ISZERO DUP1 ISZERO PUSH2 0x3425 JUMPI RETURNDATASIZE PUSH1 0x0 DUP1 RETURNDATACOPY RETURNDATASIZE PUSH1 0x0 REVERT JUMPDEST POP POP POP POP PUSH1 0x40 MLOAD RETURNDATASIZE PUSH1 0x1F NOT PUSH1 0x1F DUP3 ADD AND DUP3 ADD DUP1 PUSH1 0x40 MSTORE POP DUP2 ADD SWAP1 PUSH2 0x3449 SWAP2 SWAP1 PUSH2 0x46E0 JUMP JUMPDEST SWAP1 POP DUP5 DUP2 GT ISZERO PUSH2 0x3458 JUMPI PUSH1 0x0 DUP1 REVERT JUMPDEST PUSH1 0x80 DUP7 ADD MLOAD PUSH1 0xFF AND ISZERO DUP1 ISZERO SWAP1 PUSH2 0x3477 JUMPI POP PUSH2 0x3473 DUP6 DUP3 PUSH2 0x2DE9 JUMP JUMPDEST DUP3 EQ ISZERO JUMPDEST ISZERO PUSH2 0x3492 JUMPI PUSH1 0x80 DUP7 ADD MLOAD PUSH2 0x348F SWAP1 DUP3 SWAP1 PUSH1 0xFF AND PUSH2 0x31D8 JUMP JUMPDEST SWAP1 POP JUMPDEST PUSH2 0x34A1 DUP7 PUSH1 0x60 ADD MLOAD DUP7 DUP4 PUSH2 0x3AAC JUMP JUMPDEST PUSH2 0x34AB DUP9 DUP4 PUSH2 0x31D8 JUMP JUMPDEST SWAP8 POP PUSH2 0x34BC DUP11 PUSH1 0x0 ADD MLOAD DUP6 DUP6 PUSH2 0x3AAC JUMP JUMPDEST POP POP PUSH1 0x1 SWAP1 SWAP5 ADD SWAP4 POP PUSH2 0x3296 SWAP3 POP POP POP JUMP JUMPDEST POP SWAP3 SWAP2 POP POP JUMP JUMPDEST PUSH1 0x0 DUP1 PUSH2 0xB0F PUSH1 0x3 PUSH2 0x15CE JUMP JUMPDEST PUSH1 0x0 DUP1 PUSH2 0xB0F PUSH1 0x11 PUSH2 0x15CE JUMP JUMPDEST PUSH1 0x0 DUP1 PUSH1 0x0 PUSH2 0x34FD DUP6 PUSH2 0x2AB5 JUMP JUMPDEST SWAP2 SWAP5 POP SWAP3 POP SWAP1 POP DUP1 DUP5 GT DUP1 ISZERO PUSH2 0x3513 JUMPI POP PUSH1 0x0 DUP2 GT JUMPDEST DUP1 ISZERO PUSH2 0x351F JUMPI POP PUSH1 0x0 DUP4 GT JUMPDEST ISZERO PUSH2 0x357E JUMPI PUSH1 0x0 PUSH2 0x352F DUP7 PUSH2 0x13BF JUMP JUMPDEST POP POP POP SWAP2 POP POP PUSH1 0x0 PUSH2 0x355A PUSH2 0x3551 PUSH4 0x5F5E100 DUP5 PUSH2 0x20A1 SWAP1 SWAP2 SWAP1 PUSH4 0xFFFFFFFF AND JUMP JUMPDEST DUP5 DUP9 SUB DUP8 PUSH2 0x3B29 JUMP JUMPDEST SWAP1 POP PUSH2 0x3566 DUP5 DUP3 PUSH2 0x31D8 JUMP JUMPDEST SWAP4 POP PUSH1 0x1 PUSH1 0x1 PUSH1 0x80 SHL SUB DUP5 LT PUSH2 0x357B JUMPI PUSH1 0x0 DUP1 REVERT JUMPDEST POP POP JUMPDEST SWAP3 POP SWAP3 POP SWAP3 JUMP JUMPDEST PUSH1 0x0 DUP1 PUSH2 0xB0F PUSH1 0x12 PUSH2 0x15CE JUMP JUMPDEST PUSH1 0x0 DUP1 DUP3 SLT ISZERO PUSH2 0x35C5 JUMPI PUSH2 0x35C0 PUSH1 0x1 PUSH2 0x2181 DUP6 PUSH1 0x20 ADD MLOAD PUSH2 0x2114 DUP8 PUSH1 0x0 ADD MLOAD DUP8 PUSH2 0x118D SWAP1 SWAP2 SWAP1 PUSH4 0xFFFFFFFF AND JUMP JUMPDEST PUSH2 0x1078 JUMP JUMPDEST POP SWAP2 SWAP1 POP JUMP JUMPDEST PUSH1 0x0 DUP2 DUP4 EQ DUP1 PUSH2 0x35E8 JUMPI POP PUSH1 0x0 DUP4 SLT ISZERO DUP1 ISZERO PUSH2 0x35E8 JUMPI POP PUSH1 0x0 DUP3 SLT ISZERO JUMPDEST ISZERO PUSH2 0x35F5 JUMPI POP PUSH1 0x0 PUSH2 0xB0F JUMP JUMPDEST PUSH1 0x0 DUP4 SGT ISZERO DUP1 ISZERO PUSH2 0x3606 JUMPI POP DUP2 PUSH1 0x0 SLT JUMPDEST ISZERO PUSH2 0x3612 JUMPI POP DUP2 PUSH2 0xB0F JUMP JUMPDEST PUSH1 0x0 DUP3 SGT ISZERO DUP1 ISZERO PUSH2 0x3623 JUMPI POP DUP3 PUSH1 0x0 SLT JUMPDEST ISZERO PUSH2 0x3631 JUMPI PUSH2 0x28E3 DUP3 PUSH2 0xB01 JUMP JUMPDEST PUSH1 0x0 DUP4 SGT ISZERO DUP1 ISZERO PUSH2 0x3643 JUMPI POP PUSH1 0x0 DUP3 SGT ISZERO JUMPDEST ISZERO PUSH2 0xA7 JUMPI PUSH2 0x28E3 DUP4 DUP4 PUSH2 0x307A JUMP JUMPDEST DUP1 ISZERO PUSH2 0xAFB JUMPI DUP4 MLOAD PUSH1 0x20 DUP6 ADD MLOAD PUSH1 0x0 SWAP2 PUSH2 0x3671 SWAP2 PUSH2 0x2114 SWAP1 DUP6 SWAP1 PUSH2 0x118D JUMP JUMPDEST SWAP1 POP PUSH2 0x367F DUP5 DUP5 DUP5 DUP5 PUSH2 0x3B4B JUMP JUMPDEST POP POP POP POP POP JUMP JUMPDEST DUP1 SLOAD PUSH1 0x2 DUP3 ADD SLOAD PUSH1 0x0 SWAP2 PUSH2 0x36C8 SWAP2 PUSH1 0x1 PUSH1 0x28 SHL SWAP1 SWAP2 DIV PUSH1 0x1 PUSH1 0x1 PUSH1 0x58 SHL SUB AND SWAP1 PUSH2 0x36C2 SWAP1 PUSH1 0x1 PUSH1 0x1 PUSH1 0x50 SHL SUB PUSH1 0x1 PUSH1 0x50 SHL DUP3 DIV DUP2 AND SWAP2 AND PUSH2 0x118D JUMP JUMPDEST SWAP1 PUSH2 0x118D JUMP JUMPDEST PUSH1 0x1 DUP4 ADD SLOAD PUSH1 0x2 DUP5 ADD SLOAD SWAP2 SWAP3 POP PUSH1 0x0 SWAP2 PUSH2 0x3702 SWAP2 PUSH1 0x1 PUSH1 0x1 PUSH1 0x58 SHL SUB AND SWAP1 PUSH2 0x36C2 SWAP1 PUSH1 0x1 PUSH1 0x1 PUSH1 0x50 SHL SUB PUSH1 0x1 PUSH1 0xA0 SHL DUP3 DIV DUP2 AND SWAP2 AND PUSH2 0x118D JUMP JUMPDEST DUP4 SLOAD SWAP1 SWAP2 POP PUSH1 0x0 SWAP1 PUSH2 0x3739 SWAP1 PUSH1 0x1 PUSH1 0x1 PUSH1 0x1 PUSH1 0x58 SHL SUB PUSH1 0x1 PUSH1 0x80 SHL SWAP1 SWAP3 DIV DUP3 AND ADD AND PUSH15 0xC097CE7BC90715B34B9F1000000000 PUSH2 0x118D JUMP JUMPDEST SWAP1 POP DUP1 PUSH2 0x3746 DUP5 DUP5 PUSH2 0x307A JUMP JUMPDEST SGT ISZERO PUSH2 0xAFB JUMPI PUSH1 0x0 DUP1 REVERT JUMPDEST PUSH1 0x0 DUP1 PUSH2 0xB0F PUSH1 0x1F PUSH2 0x15CE JUMP JUMPDEST PUSH1 0x0 DUP1 PUSH1 0x0 DUP1 PUSH1 0x0 DUP6 PUSH1 0x20 ADD MLOAD GT ISZERO PUSH2 0x37AB JUMPI PUSH2 0x37A8 PUSH2 0x378F DUP7 PUSH1 0xC0 ADD MLOAD DUP8 PUSH1 0x20 ADD MLOAD PUSH2 0x20A1 SWAP1 SWAP2 SWAP1 PUSH4 0xFFFFFFFF AND JUMP JUMPDEST PUSH1 0xE0 DUP8 ADD MLOAD PUSH1 0x40 DUP9 ADD MLOAD PUSH2 0x37A2 SWAP2 PUSH2 0x20A1 JUMP JUMPDEST SWAP1 PUSH2 0x3C91 JUMP JUMPDEST SWAP1 POP JUMPDEST PUSH1 0x0 PUSH2 0x37B6 DUP8 PUSH2 0x3CA4 JUMP JUMPDEST SWAP1 POP PUSH2 0x37C2 DUP2 DUP4 PUSH2 0x3CD7 JUMP JUMPDEST SWAP5 POP DUP2 ISZERO PUSH2 0x37D9 JUMPI PUSH2 0x37D6 DUP2 DUP7 PUSH1 0x1 PUSH2 0x3D90 JUMP JUMPDEST SWAP4 POP JUMPDEST PUSH1 0x20 DUP7 ADD MLOAD ISZERO PUSH2 0x357B JUMPI PUSH2 0x37ED DUP6 DUP4 PUSH2 0x3E01 JUMP JUMPDEST SWAP3 POP POP POP SWAP3 POP SWAP3 POP SWAP3 JUMP JUMPDEST PUSH1 0x0 DUP1 PUSH2 0x3803 PUSH2 0x28AF JUMP JUMPDEST PUSH1 0x1 PUSH1 0x1 PUSH1 0xA0 SHL SUB DUP6 AND PUSH1 0x0 SWAP1 DUP2 MSTORE PUSH1 0x20 DUP3 DUP2 MSTORE PUSH1 0x40 DUP1 DUP4 KECCAK256 PUSH2 0xFFFF DUP9 AND DUP5 MSTORE SWAP1 SWAP2 MSTORE DUP2 KECCAK256 DUP1 SLOAD PUSH1 0x1 PUSH1 0xA8 SHL SWAP1 DIV PUSH1 0xA SWAP1 DUP2 SIGNEXTEND SWAP1 SIGNEXTEND SWAP5 POP SWAP2 SWAP3 POP DUP4 SLT ISZERO PUSH2 0x3849 JUMPI PUSH1 0x0 DUP1 REVERT JUMPDEST POP POP SWAP3 SWAP2 POP POP JUMP JUMPDEST PUSH1 0x0 DUP2 SLT ISZERO PUSH2 0x385F JUMPI PUSH1 0x0 DUP1 REVERT JUMPDEST PUSH1 0x0 PUSH2 0x3869 PUSH2 0x28AF JUMP JUMPDEST PUSH1 0x1 PUSH1 0x1 PUSH1 0xA0 SHL SUB DUP6 AND PUSH1 0x0 SWAP1 DUP2 MSTORE PUSH1 0x20 DUP3 DUP2 MSTORE PUSH1 0x40 DUP1 DUP4 KECCAK256 PUSH2 0xFFFF DUP9 AND DUP5 MSTORE SWAP1 SWAP2 MSTORE SWAP1 KECCAK256 SWAP1 SWAP2 POP PUSH2 0x389A DUP4 PUSH2 0x2D4A JUMP JUMPDEST DUP2 SLOAD PUSH1 0xA SWAP2 SWAP1 SWAP2 SIGNEXTEND PUSH1 0x1 PUSH1 0x1 PUSH1 0x58 SHL SUB AND PUSH1 0x1 PUSH1 0xA8 SHL MUL PUSH1 0x1 PUSH1 0x1 PUSH1 0xA8 SHL SUB SWAP1 SWAP2 AND OR SWAP1 SSTORE POP POP POP POP JUMP JUMPDEST PUSH1 0x0 PUSH1 0x3 DUP4 PUSH1 0x60 ADD MLOAD PUSH1 0x5 DUP2 GT ISZERO PUSH2 0x38D9 JUMPI INVALID JUMPDEST EQ ISZERO PUSH2 0x38F0 JUMPI POP PUSH1 0x1 PUSH1 0x1 PUSH1 0xA0 SHL SUB DUP2 AND BALANCE PUSH2 0xB0F JUMP JUMPDEST DUP3 MLOAD PUSH1 0x40 MLOAD PUSH4 0x70A08231 PUSH1 0xE0 SHL DUP2 MSTORE PUSH1 0x1 PUSH1 0x1 PUSH1 0xA0 SHL SUB SWAP1 SWAP2 AND SWAP1 PUSH4 0x70A08231 SWAP1 PUSH2 0x391F SWAP1 DUP6 SWAP1 PUSH1 0x4 ADD PUSH2 0x4883 JUMP JUMPDEST PUSH1 0x20 PUSH1 0x40 MLOAD DUP1 DUP4 SUB DUP2 DUP7 DUP1 EXTCODESIZE ISZERO DUP1 ISZERO PUSH2 0x3937 JUMPI PUSH1 0x0 DUP1 REVERT JUMPDEST POP GAS STATICCALL ISZERO DUP1 ISZERO PUSH2 0x394B JUMPI RETURNDATASIZE PUSH1 0x0 DUP1 RETURNDATACOPY RETURNDATASIZE PUSH1 0x0 REVERT JUMPDEST POP POP POP POP PUSH1 0x40 MLOAD RETURNDATASIZE PUSH1 0x1F NOT PUSH1 0x1F DUP3 ADD AND DUP3 ADD DUP1 PUSH1 0x40 MSTORE POP DUP2 ADD SWAP1 PUSH2 0x28E3 SWAP2 SWAP1 PUSH2 0x46E0 JUMP JUMPDEST PUSH1 0x0 DUP1 DUP5 PUSH1 0x1 PUSH1 0x1 PUSH1 0xA0 SHL SUB AND DUP5 DUP5 PUSH1 0x40 MLOAD DUP1 DUP3 DUP1 MLOAD SWAP1 PUSH1 0x20 ADD SWAP1 DUP1 DUP4 DUP4 JUMPDEST PUSH1 0x20 DUP4 LT PUSH2 0x39AD JUMPI DUP1 MLOAD DUP3 MSTORE PUSH1 0x1F NOT SWAP1 SWAP3 ADD SWAP2 PUSH1 0x20 SWAP2 DUP3 ADD SWAP2 ADD PUSH2 0x398E JUMP JUMPDEST PUSH1 0x1 DUP4 PUSH1 0x20 SUB PUSH2 0x100 EXP SUB DUP1 NOT DUP3 MLOAD AND DUP2 DUP5 MLOAD AND DUP1 DUP3 OR DUP6 MSTORE POP POP POP POP POP POP SWAP1 POP ADD SWAP2 POP POP PUSH1 0x0 PUSH1 0x40 MLOAD DUP1 DUP4 SUB DUP2 DUP6 DUP8 GAS CALL SWAP3 POP POP POP RETURNDATASIZE DUP1 PUSH1 0x0 DUP2 EQ PUSH2 0x3A0F JUMPI PUSH1 0x40 MLOAD SWAP2 POP PUSH1 0x1F NOT PUSH1 0x3F RETURNDATASIZE ADD AND DUP3 ADD PUSH1 0x40 MSTORE RETURNDATASIZE DUP3 MSTORE RETURNDATASIZE PUSH1 0x0 PUSH1 0x20 DUP5 ADD RETURNDATACOPY PUSH2 0x3A14 JUMP JUMPDEST PUSH1 0x60 SWAP2 POP JUMPDEST POP SWAP2 POP SWAP2 POP DUP2 PUSH2 0x3A23 DUP3 PUSH2 0x3E1A JUMP JUMPDEST SWAP1 PUSH2 0x2FD6 JUMPI PUSH1 0x40 MLOAD PUSH3 0x461BCD PUSH1 0xE5 SHL DUP2 MSTORE PUSH1 0x4 ADD DUP1 DUP1 PUSH1 0x20 ADD DUP3 DUP2 SUB DUP3 MSTORE DUP4 DUP2 DUP2 MLOAD DUP2 MSTORE PUSH1 0x20 ADD SWAP2 POP DUP1 MLOAD SWAP1 PUSH1 0x20 ADD SWAP1 DUP1 DUP4 DUP4 PUSH1 0x0 JUMPDEST DUP4 DUP2 LT ISZERO PUSH2 0x3A71 JUMPI DUP2 DUP2 ADD MLOAD DUP4 DUP3 ADD MSTORE PUSH1 0x20 ADD PUSH2 0x3A59 JUMP JUMPDEST POP POP POP POP SWAP1 POP SWAP1 DUP2 ADD SWAP1 PUSH1 0x1F AND DUP1 ISZERO PUSH2 0x3A9E JUMPI DUP1 DUP3 SUB DUP1 MLOAD PUSH1 0x1 DUP4 PUSH1 0x20 SUB PUSH2 0x100 EXP SUB NOT AND DUP2 MSTORE PUSH1 0x20 ADD SWAP2 POP JUMPDEST POP SWAP3 POP POP POP PUSH1 0x40 MLOAD DUP1 SWAP2 SUB SWAP1 REVERT JUMPDEST PUSH1 0x0 PUSH2 0x3AB6 PUSH2 0x3285 JUMP JUMPDEST PUSH1 0x1 PUSH1 0x1 PUSH1 0xA0 SHL SUB DUP6 AND PUSH1 0x0 SWAP1 DUP2 MSTORE PUSH1 0x20 DUP3 SWAP1 MSTORE PUSH1 0x40 SWAP1 KECCAK256 SLOAD SWAP1 SWAP2 POP DUP4 DUP2 GT ISZERO PUSH2 0x3ADF JUMPI PUSH1 0x0 DUP1 REVERT JUMPDEST PUSH1 0x0 PUSH2 0x3AF6 PUSH2 0x3AED DUP7 PUSH2 0xD8A JUMP JUMPDEST PUSH2 0x2181 DUP7 PUSH2 0xD8A JUMP JUMPDEST SWAP1 POP PUSH2 0x3B05 PUSH2 0x3A1 DUP4 DUP4 PUSH2 0x14EA JUMP JUMPDEST PUSH1 0x1 PUSH1 0x1 PUSH1 0xA0 SHL SUB SWAP1 SWAP7 AND PUSH1 0x0 SWAP1 DUP2 MSTORE PUSH1 0x20 SWAP4 SWAP1 SWAP4 MSTORE POP POP PUSH1 0x40 SWAP1 KECCAK256 SWAP3 SWAP1 SWAP3 SSTORE POP POP JUMP JUMPDEST PUSH1 0x0 PUSH2 0xB29 DUP3 PUSH2 0x1566 PUSH4 0x1DA9C00 DUP2 DUP9 PUSH2 0x2C30 DUP10 PUSH8 0xDE0B6B3A7640000 PUSH2 0x20A1 JUMP JUMPDEST PUSH1 0x0 PUSH2 0x3B55 PUSH2 0x2086 JUMP JUMPDEST PUSH2 0xFFFF DUP6 AND PUSH1 0x0 SWAP1 DUP2 MSTORE PUSH1 0x20 SWAP2 SWAP1 SWAP2 MSTORE PUSH1 0x40 SWAP1 KECCAK256 DUP1 SLOAD SWAP1 SWAP2 POP PUSH5 0xFFFFFFFFFF AND TIMESTAMP EQ PUSH2 0x3B80 JUMPI PUSH1 0x0 DUP1 REVERT JUMPDEST DUP1 SLOAD PUSH1 0x1 PUSH1 0xF8 SHL SWAP1 DIV PUSH1 0xFF AND PUSH2 0x3B95 JUMPI PUSH1 0x0 DUP1 REVERT JUMPDEST PUSH1 0x1 DUP2 ADD SLOAD PUSH1 0x0 SWAP1 PUSH2 0x3BB0 SWAP1 PUSH1 0x1 PUSH1 0x1 PUSH1 0x58 SHL SUB AND DUP6 PUSH2 0x14EA JUMP JUMPDEST DUP3 SLOAD SWAP1 SWAP2 POP PUSH1 0x0 SWAP1 PUSH2 0x3BD2 SWAP1 PUSH1 0x1 PUSH1 0x28 SHL SWAP1 DIV PUSH1 0x1 PUSH1 0x1 PUSH1 0x58 SHL SUB AND DUP6 PUSH2 0x14EA JUMP JUMPDEST SWAP1 POP DUP2 PUSH1 0x9 NOT SLT DUP1 ISZERO PUSH2 0x3BE5 JUMPI POP PUSH1 0x0 DUP3 SLT JUMPDEST ISZERO PUSH2 0x3BEF JUMPI PUSH1 0x0 SWAP2 POP JUMPDEST DUP1 PUSH1 0x9 NOT SLT DUP1 ISZERO PUSH2 0x3C00 JUMPI POP PUSH1 0x0 DUP2 SLT JUMPDEST ISZERO PUSH2 0x3C09 JUMPI POP PUSH1 0x0 JUMPDEST PUSH2 0x3C15 PUSH2 0x2F66 DUP4 PUSH2 0xC4E JUMP JUMPDEST PUSH1 0x1 DUP5 ADD DUP1 SLOAD PUSH11 0xFFFFFFFFFFFFFFFFFFFFFF NOT AND PUSH1 0x1 PUSH1 0x1 PUSH1 0x58 SHL SUB SWAP3 SWAP1 SWAP3 AND SWAP2 SWAP1 SWAP2 OR SWAP1 SSTORE PUSH2 0x3C47 PUSH2 0x2F66 DUP3 PUSH2 0xC4E JUMP JUMPDEST DUP4 SLOAD PUSH1 0x1 PUSH1 0x1 PUSH1 0x58 SHL SUB SWAP2 SWAP1 SWAP2 AND PUSH1 0x1 PUSH1 0x28 SHL MUL PUSH16 0xFFFFFFFFFFFFFFFFFFFFFF0000000000 NOT SWAP1 SWAP2 AND OR DUP4 SSTORE PUSH2 0x3C7F DUP8 DUP8 DUP7 DUP9 PUSH2 0x3F21 JUMP JUMPDEST PUSH2 0x3C88 DUP4 PUSH2 0x3686 JUMP JUMPDEST POP POP POP POP POP POP POP JUMP JUMPDEST PUSH1 0x0 PUSH2 0x1078 PUSH2 0x3201 DUP5 PUSH4 0x3B9ACA00 PUSH2 0x20A1 JUMP JUMPDEST PUSH2 0x3CAC PUSH2 0x42ED JUMP JUMPDEST PUSH1 0x0 PUSH2 0x3CB6 PUSH2 0x4035 JUMP JUMPDEST PUSH2 0xFFFF DUP5 AND PUSH1 0x0 SWAP1 DUP2 MSTORE PUSH1 0x20 SWAP2 SWAP1 SWAP2 MSTORE PUSH1 0x40 DUP2 KECCAK256 SLOAD SWAP2 POP PUSH2 0xA12 SWAP1 DUP3 PUSH2 0x4042 JUMP JUMPDEST PUSH1 0x0 DUP1 DUP4 PUSH1 0x80 ADD MLOAD GT PUSH2 0x3CE9 JUMPI PUSH1 0x0 DUP1 REVERT JUMPDEST PUSH4 0x3B9ACA00 DUP3 GT ISZERO PUSH2 0x3CFA JUMPI PUSH1 0x0 DUP1 REVERT JUMPDEST DUP3 MLOAD DUP3 GT PUSH2 0x3D19 JUMPI DUP3 MLOAD PUSH1 0x40 DUP5 ADD MLOAD PUSH2 0x28E3 SWAP2 SWAP1 PUSH2 0x1566 SWAP1 DUP6 SWAP1 PUSH2 0x20A1 JUMP JUMPDEST DUP3 PUSH1 0x20 ADD MLOAD DUP3 GT PUSH2 0x3D57 JUMPI PUSH1 0x40 DUP4 ADD MLOAD DUP4 MLOAD PUSH1 0x20 DUP6 ADD MLOAD PUSH1 0x60 DUP7 ADD MLOAD PUSH2 0x28E3 SWAP4 SWAP3 PUSH2 0x3D51 SWAP3 DUP2 SWAP1 SUB SWAP2 PUSH2 0x1566 SWAP2 DUP9 SUB SWAP1 DUP6 SWAP1 SUB PUSH2 0x20A1 JUMP JUMPDEST SWAP1 PUSH2 0x31D8 JUMP JUMPDEST PUSH2 0x1078 DUP4 PUSH1 0x60 ADD MLOAD PUSH2 0x3D51 DUP6 PUSH1 0x20 ADD MLOAD PUSH4 0x3B9ACA00 SUB PUSH2 0x1566 DUP8 PUSH1 0x60 ADD MLOAD DUP9 PUSH1 0x80 ADD MLOAD SUB DUP9 PUSH1 0x20 ADD MLOAD DUP9 SUB PUSH2 0x20A1 SWAP1 SWAP2 SWAP1 PUSH4 0xFFFFFFFF AND JUMP JUMPDEST PUSH1 0x0 DUP1 PUSH2 0x3DAF PUSH1 0x64 PUSH2 0x1566 DUP8 PUSH1 0xE0 ADD MLOAD DUP8 PUSH2 0x20A1 SWAP1 SWAP2 SWAP1 PUSH4 0xFFFFFFFF AND JUMP JUMPDEST SWAP1 POP DUP5 PUSH1 0xA0 ADD MLOAD DUP2 LT ISZERO PUSH2 0x3DC4 JUMPI POP PUSH1 0xA0 DUP5 ADD MLOAD JUMPDEST DUP5 PUSH1 0xC0 ADD MLOAD DUP2 GT ISZERO PUSH2 0x3DD7 JUMPI POP PUSH1 0xC0 DUP5 ADD MLOAD JUMPDEST DUP3 ISZERO PUSH2 0x3DE7 JUMPI PUSH2 0x1073 DUP5 DUP3 PUSH2 0x31D8 JUMP JUMPDEST DUP4 DUP2 GT PUSH2 0x3DF6 JUMPI DUP1 DUP5 SUB PUSH2 0x1073 JUMP JUMPDEST PUSH1 0x0 SWAP6 SWAP5 POP POP POP POP POP JUMP JUMPDEST PUSH1 0x0 PUSH2 0x1078 PUSH2 0x3E10 DUP5 DUP5 PUSH2 0x20A1 JUMP JUMPDEST PUSH4 0x3B9ACA00 PUSH2 0x20C8 JUMP JUMPDEST PUSH1 0x60 PUSH1 0x44 DUP3 MLOAD LT ISZERO PUSH2 0x3E50 JUMPI POP PUSH1 0x40 DUP1 MLOAD DUP1 DUP3 ADD SWAP1 SWAP2 MSTORE PUSH1 0xD DUP2 MSTORE PUSH13 0x14DA5B195B9D0814995D995C9D PUSH1 0x9A SHL PUSH1 0x20 DUP3 ADD MSTORE PUSH2 0xA16 JUMP JUMPDEST PUSH1 0x4 DUP3 ADD DUP1 MLOAD SWAP1 SWAP3 PUSH1 0x24 ADD SWAP1 PUSH1 0x20 DUP2 LT ISZERO PUSH2 0x3E6A JUMPI PUSH1 0x0 DUP1 REVERT JUMPDEST DUP2 ADD SWAP1 DUP1 DUP1 MLOAD PUSH1 0x40 MLOAD SWAP4 SWAP3 SWAP2 SWAP1 DUP5 PUSH5 0x100000000 DUP3 GT ISZERO PUSH2 0x3E8A JUMPI PUSH1 0x0 DUP1 REVERT JUMPDEST SWAP1 DUP4 ADD SWAP1 PUSH1 0x20 DUP3 ADD DUP6 DUP2 GT ISZERO PUSH2 0x3E9F JUMPI PUSH1 0x0 DUP1 REVERT JUMPDEST DUP3 MLOAD PUSH5 0x100000000 DUP2 GT DUP3 DUP3 ADD DUP9 LT OR ISZERO PUSH2 0x3EB9 JUMPI PUSH1 0x0 DUP1 REVERT JUMPDEST DUP3 MSTORE POP DUP2 MLOAD PUSH1 0x20 SWAP2 DUP3 ADD SWAP3 SWAP1 SWAP2 ADD SWAP1 DUP1 DUP4 DUP4 PUSH1 0x0 JUMPDEST DUP4 DUP2 LT ISZERO PUSH2 0x3EE6 JUMPI DUP2 DUP2 ADD MLOAD DUP4 DUP3 ADD MSTORE PUSH1 0x20 ADD PUSH2 0x3ECE JUMP JUMPDEST POP POP POP POP SWAP1 POP SWAP1 DUP2 ADD SWAP1 PUSH1 0x1F AND DUP1 ISZERO PUSH2 0x3F13 JUMPI DUP1 DUP3 SUB DUP1 MLOAD PUSH1 0x1 DUP4 PUSH1 0x20 SUB PUSH2 0x100 EXP SUB NOT AND DUP2 MSTORE PUSH1 0x20 ADD SWAP2 POP JUMPDEST POP PUSH1 0x40 MSTORE POP POP POP SWAP1 POP SWAP2 SWAP1 POP JUMP JUMPDEST PUSH1 0x0 PUSH2 0x3F2B PUSH2 0x15C5 JUMP JUMPDEST PUSH2 0xFFFF DUP6 AND PUSH1 0x0 SWAP1 DUP2 MSTORE PUSH1 0x20 SWAP2 SWAP1 SWAP2 MSTORE PUSH1 0x40 DUP2 KECCAK256 SLOAD PUSH1 0x1 PUSH1 0x1 PUSH1 0xA0 SHL SUB AND SWAP2 POP PUSH2 0x3F53 PUSH2 0x4161 JUMP JUMPDEST PUSH2 0xFFFF DUP7 AND PUSH1 0x0 SWAP1 DUP2 MSTORE PUSH1 0x20 SWAP2 SWAP1 SWAP2 MSTORE PUSH1 0x40 SWAP1 DUP2 SWAP1 KECCAK256 SLOAD SWAP1 MLOAD PUSH4 0xAD1C095D PUSH1 0xE0 SHL DUP2 MSTORE PUSH1 0x1 PUSH1 0x1 PUSH1 0xA0 SHL SUB SWAP1 SWAP2 AND SWAP2 POP DUP2 SWAP1 PUSH4 0xAD1C095D SWAP1 PUSH2 0x3F9B SWAP1 DUP10 SWAP1 DUP8 SWAP1 PUSH1 0x4 ADD PUSH2 0x48BA JUMP JUMPDEST PUSH1 0x0 PUSH1 0x40 MLOAD DUP1 DUP4 SUB DUP2 PUSH1 0x0 DUP8 DUP1 EXTCODESIZE ISZERO DUP1 ISZERO PUSH2 0x3FB5 JUMPI PUSH1 0x0 DUP1 REVERT JUMPDEST POP GAS CALL ISZERO DUP1 ISZERO PUSH2 0x3FC9 JUMPI RETURNDATASIZE PUSH1 0x0 DUP1 RETURNDATACOPY RETURNDATASIZE PUSH1 0x0 REVERT JUMPDEST POP POP PUSH1 0x40 MLOAD PUSH4 0xAD1C095D PUSH1 0xE0 SHL DUP2 MSTORE PUSH1 0x1 PUSH1 0x1 PUSH1 0xA0 SHL SUB DUP6 AND SWAP3 POP PUSH4 0xAD1C095D SWAP2 POP PUSH2 0x3FFB SWAP1 DUP10 SWAP1 DUP9 SWAP1 PUSH1 0x4 ADD PUSH2 0x48BA JUMP JUMPDEST PUSH1 0x0 PUSH1 0x40 MLOAD DUP1 DUP4 SUB DUP2 PUSH1 0x0 DUP8 DUP1 EXTCODESIZE ISZERO DUP1 ISZERO PUSH2 0x4015 JUMPI PUSH1 0x0 DUP1 REVERT JUMPDEST POP GAS CALL ISZERO DUP1 ISZERO PUSH2 0x4029 JUMPI RETURNDATASIZE PUSH1 0x0 DUP1 RETURNDATACOPY RETURNDATASIZE PUSH1 0x0 REVERT JUMPDEST POP POP POP POP POP POP POP POP POP POP JUMP JUMPDEST PUSH1 0x0 DUP1 PUSH2 0xB0F PUSH1 0x1B PUSH2 0x15CE JUMP JUMPDEST PUSH2 0x404A PUSH2 0x42ED JUMP JUMPDEST PUSH1 0x64 PUSH4 0x3B9ACA00 DUP4 PUSH1 0xFF DUP7 AND PUSH1 0x20 DUP2 LT PUSH2 0x4060 JUMPI INVALID JUMPDEST BYTE MUL DUP2 PUSH2 0x4069 JUMPI INVALID JUMPDEST DIV DUP2 MSTORE PUSH1 0x64 PUSH4 0x3B9ACA00 DUP4 PUSH1 0xFF DUP7 AND PUSH1 0x1 ADD PUSH1 0x20 DUP2 LT PUSH2 0x4085 JUMPI INVALID JUMPDEST BYTE MUL DUP2 PUSH2 0x408E JUMPI INVALID JUMPDEST DIV DUP2 PUSH1 0x20 ADD DUP2 DUP2 MSTORE POP POP PUSH2 0x40B3 DUP3 PUSH1 0x2 DUP6 PUSH1 0xFF AND ADD PUSH1 0x20 DUP2 LT PUSH2 0x40AD JUMPI INVALID JUMPDEST BYTE PUSH2 0x416E JUMP JUMPDEST PUSH1 0x80 DUP3 ADD DUP2 SWAP1 MSTORE PUSH2 0x100 SWAP1 DUP4 PUSH1 0xFF DUP7 AND PUSH1 0x3 ADD PUSH1 0x20 DUP2 LT PUSH2 0x40D0 JUMPI INVALID JUMPDEST BYTE MUL DUP2 PUSH2 0x40D9 JUMPI INVALID JUMPDEST DIV PUSH1 0x40 DUP3 ADD MSTORE PUSH1 0x80 DUP2 ADD MLOAD PUSH2 0x100 SWAP1 DUP4 PUSH1 0xFF DUP7 AND PUSH1 0x4 ADD PUSH1 0x20 DUP2 LT PUSH2 0x40FA JUMPI INVALID JUMPDEST BYTE MUL DUP2 PUSH2 0x4103 JUMPI INVALID JUMPDEST DIV PUSH1 0x60 DUP3 ADD MSTORE PUSH3 0x7A120 DUP3 PUSH1 0xFF DUP6 AND PUSH1 0x5 ADD PUSH1 0x20 DUP2 LT PUSH2 0x411F JUMPI INVALID JUMPDEST BYTE MUL PUSH1 0xA0 DUP3 ADD MSTORE PUSH3 0x2625A0 DUP3 PUSH1 0xFF DUP6 AND PUSH1 0x6 ADD PUSH1 0x20 DUP2 LT PUSH2 0x413C JUMPI INVALID JUMPDEST BYTE MUL PUSH1 0xC0 DUP3 ADD MSTORE DUP2 PUSH1 0xFF DUP5 AND PUSH1 0x7 ADD PUSH1 0x20 DUP2 LT PUSH2 0x4155 JUMPI INVALID JUMPDEST BYTE PUSH1 0xE0 DUP3 ADD MSTORE SWAP3 SWAP2 POP POP JUMP JUMPDEST PUSH1 0x0 DUP1 PUSH2 0xB0F PUSH1 0x22 PUSH2 0x15CE JUMP JUMPDEST PUSH1 0x0 DUP2 PUSH1 0xFF AND PUSH1 0x96 LT PUSH2 0x4189 JUMPI PUSH1 0xFF DUP3 AND PUSH3 0x2625A0 MUL PUSH2 0xB0F JUMP JUMPDEST POP PUSH1 0x95 NOT PUSH1 0xFF SWAP2 SWAP1 SWAP2 AND ADD PUSH3 0xE4E1C0 MUL PUSH4 0x165A0BC0 ADD SWAP1 JUMP JUMPDEST PUSH1 0x40 MLOAD DUP1 PUSH2 0x140 ADD PUSH1 0x40 MSTORE DUP1 PUSH1 0x0 PUSH2 0xFFFF AND DUP2 MSTORE PUSH1 0x20 ADD PUSH1 0x0 DUP2 MSTORE PUSH1 0x20 ADD PUSH1 0x0 DUP2 MSTORE PUSH1 0x20 ADD PUSH1 0x0 DUP2 MSTORE PUSH1 0x20 ADD PUSH1 0x0 DUP2 MSTORE PUSH1 0x20 ADD PUSH1 0x0 DUP2 MSTORE PUSH1 0x20 ADD PUSH1 0x0 DUP2 MSTORE PUSH1 0x20 ADD PUSH1 0x0 DUP2 MSTORE PUSH1 0x20 ADD PUSH1 0x0 DUP2 MSTORE PUSH1 0x20 ADD PUSH2 0x41F9 PUSH2 0x4233 JUMP JUMPDEST SWAP1 MSTORE SWAP1 JUMP JUMPDEST PUSH1 0x40 DUP1 MLOAD PUSH1 0xC0 DUP2 ADD DUP3 MSTORE PUSH1 0x0 DUP1 DUP3 MSTORE PUSH1 0x20 DUP3 ADD DUP2 SWAP1 MSTORE SWAP2 DUP2 ADD DUP3 SWAP1 MSTORE PUSH1 0x60 DUP2 ADD DUP3 SWAP1 MSTORE PUSH1 0x80 DUP2 ADD DUP3 SWAP1 MSTORE PUSH1 0xA0 DUP2 ADD SWAP2 SWAP1 SWAP2 MSTORE SWAP1 JUMP JUMPDEST PUSH1 0x40 MLOAD DUP1 PUSH1 0x60 ADD PUSH1 0x40 MSTORE DUP1 PUSH1 0x0 DUP2 MSTORE PUSH1 0x20 ADD PUSH1 0x0 DUP2 MSTORE PUSH1 0x20 ADD PUSH1 0x0 DUP2 MSTORE POP SWAP1 JUMP JUMPDEST PUSH1 0x40 DUP1 MLOAD PUSH1 0xA0 DUP2 ADD DUP3 MSTORE PUSH1 0x0 DUP1 DUP3 MSTORE PUSH1 0x20 DUP3 ADD DUP2 SWAP1 MSTORE SWAP2 DUP2 ADD DUP3 SWAP1 MSTORE SWAP1 PUSH1 0x60 DUP3 ADD SWAP1 DUP2 MSTORE PUSH1 0x20 ADD PUSH1 0x0 DUP2 MSTORE POP SWAP1 JUMP JUMPDEST PUSH1 0x40 MLOAD DUP1 PUSH2 0x120 ADD PUSH1 0x40 MSTORE DUP1 PUSH1 0x0 DUP2 MSTORE PUSH1 0x20 ADD PUSH1 0x0 DUP2 MSTORE PUSH1 0x20 ADD PUSH1 0x0 DUP2 MSTORE PUSH1 0x20 ADD PUSH1 0x0 DUP2 MSTORE PUSH1 0x20 ADD PUSH1 0x0 DUP2 MSTORE PUSH1 0x20 ADD PUSH1 0x0 DUP2 MSTORE PUSH1 0x20 ADD PUSH1 0x0 DUP2 MSTORE PUSH1 0x20 ADD PUSH1 0x0 DUP2 MSTORE PUSH1 0x20 ADD PUSH1 0x0 DUP2 MSTORE POP SWAP1 JUMP JUMPDEST PUSH1 0x40 MLOAD DUP1 PUSH1 0x20 ADD PUSH1 0x40 MSTORE DUP1 PUSH1 0x1 SWAP1 PUSH1 0x20 DUP3 MUL DUP1 CALLDATASIZE DUP4 CALLDATACOPY POP SWAP2 SWAP3 SWAP2 POP POP JUMP JUMPDEST PUSH1 0x40 MLOAD DUP1 PUSH2 0x100 ADD PUSH1 0x40 MSTORE DUP1 PUSH1 0x0 DUP2 MSTORE PUSH1 0x20 ADD PUSH1 0x0 DUP2 MSTORE PUSH1 0x20 ADD PUSH1 0x0 DUP2 MSTORE PUSH1 0x20 ADD PUSH1 0x0 DUP2 MSTORE PUSH1 0x20 ADD PUSH1 0x0 DUP2 MSTORE PUSH1 0x20 ADD PUSH1 0x0 DUP2 MSTORE PUSH1 0x20 ADD PUSH1 0x0 DUP2 MSTORE PUSH1 0x20 ADD PUSH1 0x0 DUP2 MSTORE POP SWAP1 JUMP JUMPDEST DUP1 MLOAD PUSH2 0xA16 DUP2 PUSH2 0x4C8B JUMP JUMPDEST PUSH1 0x0 DUP3 PUSH1 0x1F DUP4 ADD SLT PUSH2 0x434D JUMPI DUP1 DUP2 REVERT JUMPDEST DUP2 MLOAD PUSH1 0x20 PUSH2 0x4362 PUSH2 0x435D DUP4 PUSH2 0x4C6D JUMP JUMPDEST PUSH2 0x4C49 JUMP JUMPDEST DUP3 DUP2 MSTORE DUP2 DUP2 ADD SWAP1 DUP6 DUP4 ADD DUP4 DUP6 MUL DUP8 ADD DUP5 ADD DUP9 LT ISZERO PUSH2 0x437E JUMPI DUP6 DUP7 REVERT JUMPDEST DUP6 JUMPDEST DUP6 DUP2 LT ISZERO PUSH2 0x43A5 JUMPI DUP2 MLOAD PUSH2 0x4393 DUP2 PUSH2 0x4C8B JUMP JUMPDEST DUP5 MSTORE SWAP3 DUP5 ADD SWAP3 SWAP1 DUP5 ADD SWAP1 PUSH1 0x1 ADD PUSH2 0x4380 JUMP JUMPDEST POP SWAP1 SWAP8 SWAP7 POP POP POP POP POP POP POP JUMP JUMPDEST PUSH1 0x0 PUSH1 0x1F DUP4 DUP2 DUP5 ADD SLT PUSH2 0x43C3 JUMPI DUP2 DUP3 REVERT JUMPDEST DUP3 MLOAD PUSH1 0x20 PUSH2 0x43D3 PUSH2 0x435D DUP4 PUSH2 0x4C6D JUMP JUMPDEST DUP3 DUP2 MSTORE DUP2 DUP2 ADD SWAP1 DUP7 DUP4 ADD DUP7 JUMPDEST DUP6 DUP2 LT ISZERO PUSH2 0x4478 JUMPI DUP2 MLOAD DUP10 ADD DUP11 PUSH1 0x3F DUP3 ADD SLT PUSH2 0x43F9 JUMPI DUP9 DUP10 REVERT JUMPDEST DUP6 DUP2 ADD MLOAD PUSH8 0xFFFFFFFFFFFFFFFF DUP2 GT ISZERO PUSH2 0x440F JUMPI INVALID JUMPDEST PUSH2 0x4420 DUP2 DUP11 ADD PUSH1 0x1F NOT AND DUP9 ADD PUSH2 0x4C49 JUMP JUMPDEST DUP2 DUP2 MSTORE PUSH1 0x40 DUP14 DUP2 DUP5 DUP7 ADD ADD GT ISZERO PUSH2 0x4435 JUMPI DUP12 DUP13 REVERT JUMPDEST DUP12 JUMPDEST DUP4 DUP2 LT ISZERO PUSH2 0x4452 JUMPI DUP5 DUP2 ADD DUP3 ADD MLOAD DUP4 DUP3 ADD DUP12 ADD MSTORE DUP10 ADD PUSH2 0x4437 JUMP JUMPDEST DUP4 DUP2 GT ISZERO PUSH2 0x4462 JUMPI DUP13 DUP11 DUP6 DUP6 ADD ADD MSTORE JUMPDEST POP POP DUP7 MSTORE POP POP SWAP3 DUP5 ADD SWAP3 SWAP1 DUP5 ADD SWAP1 PUSH1 0x1 ADD PUSH2 0x43DF JUMP JUMPDEST POP SWAP1 SWAP9 SWAP8 POP POP POP POP POP POP POP POP JUMP JUMPDEST DUP1 MLOAD PUSH2 0xA16 DUP2 PUSH2 0x4CA3 JUMP JUMPDEST DUP1 MLOAD PUSH1 0x1 PUSH1 0x1 PUSH1 0x70 SHL SUB NOT DUP2 AND DUP2 EQ PUSH2 0xA16 JUMPI PUSH1 0x0 DUP1 REVERT JUMPDEST DUP1 MLOAD PUSH1 0x1 PUSH1 0x1 PUSH1 0xF8 SHL SUB NOT DUP2 AND DUP2 EQ PUSH2 0xA16 JUMPI PUSH1 0x0 DUP1 REVERT JUMPDEST DUP1 MLOAD PUSH2 0xA16 DUP2 PUSH2 0x4CB1 JUMP JUMPDEST DUP1 CALLDATALOAD PUSH1 0x1 PUSH1 0x1 PUSH1 0x58 SHL SUB DUP2 AND DUP2 EQ PUSH2 0xA16 JUMPI PUSH1 0x0 DUP1 REVERT JUMPDEST DUP1 MLOAD PUSH1 0xFF DUP2 AND DUP2 EQ PUSH2 0xA16 JUMPI PUSH1 0x0 DUP1 REVERT JUMPDEST PUSH1 0x0 PUSH1 0x20 DUP3 DUP5 SUB SLT ISZERO PUSH2 0x4505 JUMPI DUP1 DUP2 REVERT JUMPDEST DUP2 CALLDATALOAD PUSH2 0x1078 DUP2 PUSH2 0x4C8B JUMP JUMPDEST PUSH1 0x0 DUP1 PUSH1 0x0 PUSH1 0x60 DUP5 DUP7 SUB SLT ISZERO PUSH2 0x4524 JUMPI DUP2 DUP3 REVERT JUMPDEST DUP4 CALLDATALOAD PUSH2 0x452F DUP2 PUSH2 0x4C8B JUMP JUMPDEST SWAP3 POP PUSH1 0x20 DUP5 ADD CALLDATALOAD PUSH2 0x453F DUP2 PUSH2 0x4CB1 JUMP JUMPDEST SWAP3 SWAP6 SWAP3 SWAP5 POP POP POP PUSH1 0x40 SWAP2 SWAP1 SWAP2 ADD CALLDATALOAD SWAP1 JUMP JUMPDEST PUSH1 0x0 DUP1 PUSH1 0x0 PUSH1 0x60 DUP5 DUP7 SUB SLT ISZERO PUSH2 0x4564 JUMPI DUP1 DUP2 REVERT JUMPDEST DUP4 CALLDATALOAD PUSH2 0x456F DUP2 PUSH2 0x4C8B JUMP JUMPDEST SWAP3 POP PUSH1 0x20 DUP5 ADD CALLDATALOAD PUSH2 0x457F DUP2 PUSH2 0x4CB1 JUMP JUMPDEST SWAP2 POP PUSH1 0x40 DUP5 ADD CALLDATALOAD PUSH1 0x1 PUSH1 0x1 PUSH1 0x60 SHL SUB DUP2 AND DUP2 EQ PUSH2 0x459A JUMPI DUP2 DUP3 REVERT JUMPDEST DUP1 SWAP2 POP POP SWAP3 POP SWAP3 POP SWAP3 JUMP JUMPDEST PUSH1 0x0 PUSH1 0x20 DUP1 DUP4 DUP6 SUB SLT ISZERO PUSH2 0x45B7 JUMPI DUP2 DUP3 REVERT JUMPDEST DUP3 MLOAD PUSH8 0xFFFFFFFFFFFFFFFF DUP1 DUP3 GT ISZERO PUSH2 0x45CE JUMPI DUP4 DUP5 REVERT JUMPDEST DUP2 DUP6 ADD SWAP2 POP DUP6 PUSH1 0x1F DUP4 ADD SLT PUSH2 0x45E1 JUMPI DUP4 DUP5 REVERT JUMPDEST DUP2 MLOAD PUSH2 0x45EF PUSH2 0x435D DUP3 PUSH2 0x4C6D JUMP JUMPDEST DUP2 DUP2 MSTORE DUP5 DUP2 ADD SWAP1 DUP5 DUP7 ADD DUP8 JUMPDEST DUP5 DUP2 LT ISZERO PUSH2 0x46B5 JUMPI DUP2 MLOAD DUP8 ADD PUSH1 0xA0 DUP2 DUP14 SUB PUSH1 0x1F NOT ADD SLT ISZERO PUSH2 0x461A JUMPI DUP10 DUP11 REVERT JUMPDEST PUSH1 0x40 DUP1 MLOAD PUSH1 0xA0 DUP2 ADD DUP2 DUP2 LT DUP11 DUP3 GT OR ISZERO PUSH2 0x4630 JUMPI INVALID JUMPDEST DUP3 MSTORE DUP3 DUP12 ADD MLOAD DUP10 DUP2 GT ISZERO PUSH2 0x4642 JUMPI DUP13 DUP14 REVERT JUMPDEST PUSH2 0x4650 DUP16 DUP14 DUP4 DUP8 ADD ADD PUSH2 0x433D JUMP JUMPDEST DUP3 MSTORE POP DUP2 DUP4 ADD MLOAD DUP10 DUP2 GT ISZERO PUSH2 0x4663 JUMPI DUP13 DUP14 REVERT JUMPDEST PUSH2 0x4671 DUP16 DUP14 DUP4 DUP8 ADD ADD PUSH2 0x43B2 JUMP JUMPDEST DUP13 DUP4 ADD MSTORE POP PUSH1 0x60 DUP4 ADD MLOAD DUP3 DUP3 ADD MSTORE PUSH2 0x468B PUSH1 0x80 DUP5 ADD PUSH2 0x4332 JUMP JUMPDEST PUSH1 0x60 DUP3 ADD MSTORE PUSH2 0x469C PUSH1 0xA0 DUP5 ADD PUSH2 0x44E3 JUMP JUMPDEST PUSH1 0x80 DUP3 ADD MSTORE DUP7 MSTORE POP POP SWAP3 DUP8 ADD SWAP3 SWAP1 DUP8 ADD SWAP1 PUSH1 0x1 ADD PUSH2 0x45FB JUMP JUMPDEST POP SWAP1 SWAP10 SWAP9 POP POP POP POP POP POP POP POP POP JUMP JUMPDEST PUSH1 0x0 PUSH1 0x20 DUP3 DUP5 SUB SLT ISZERO PUSH2 0x46D5 JUMPI DUP1 DUP2 REVERT JUMPDEST DUP2 CALLDATALOAD PUSH2 0x1078 DUP2 PUSH2 0x4CA3 JUMP JUMPDEST PUSH1 0x0 PUSH1 0x20 DUP3 DUP5 SUB SLT ISZERO PUSH2 0x46F1 JUMPI DUP1 DUP2 REVERT JUMPDEST POP MLOAD SWAP2 SWAP1 POP JUMP JUMPDEST PUSH1 0x0 PUSH1 0xC0 DUP3 DUP5 SUB SLT ISZERO PUSH2 0x4709 JUMPI DUP1 DUP2 REVERT JUMPDEST PUSH1 0x40 MLOAD PUSH1 0xC0 DUP2 ADD DUP2 DUP2 LT PUSH8 0xFFFFFFFFFFFFFFFF DUP3 GT OR ISZERO PUSH2 0x4726 JUMPI INVALID JUMPDEST PUSH1 0x40 MSTORE DUP3 MLOAD PUSH5 0xFFFFFFFFFF DUP2 AND DUP2 EQ PUSH2 0x473D JUMPI DUP3 DUP4 REVERT JUMPDEST DUP2 MSTORE PUSH2 0x474B PUSH1 0x20 DUP5 ADD PUSH2 0x44A9 JUMP JUMPDEST PUSH1 0x20 DUP3 ADD MSTORE PUSH2 0x475C PUSH1 0x40 DUP5 ADD PUSH2 0x44E3 JUMP JUMPDEST PUSH1 0x40 DUP3 ADD MSTORE PUSH2 0x476D PUSH1 0x60 DUP5 ADD PUSH2 0x44C1 JUMP JUMPDEST PUSH1 0x60 DUP3 ADD MSTORE PUSH2 0x477E PUSH1 0x80 DUP5 ADD PUSH2 0x4491 JUMP JUMPDEST PUSH1 0x80 DUP3 ADD MSTORE PUSH2 0x478F PUSH1 0xA0 DUP5 ADD PUSH2 0x4486 JUMP JUMPDEST PUSH1 0xA0 DUP3 ADD MSTORE SWAP4 SWAP3 POP POP POP JUMP JUMPDEST PUSH1 0x0 PUSH1 0x20 DUP3 DUP5 SUB SLT ISZERO PUSH2 0x47AC JUMPI DUP1 DUP2 REVERT JUMPDEST DUP2 CALLDATALOAD PUSH2 0x1078 DUP2 PUSH2 0x4CB1 JUMP JUMPDEST PUSH1 0x0 DUP1 PUSH1 0x0 DUP1 PUSH1 0x0 PUSH1 0xA0 DUP7 DUP9 SUB SLT ISZERO PUSH2 0x47CE JUMPI DUP3 DUP4 REVERT JUMPDEST DUP6 CALLDATALOAD PUSH2 0x47D9 DUP2 PUSH2 0x4CB1 JUMP JUMPDEST SWAP5 POP PUSH1 0x20 DUP7 ADD CALLDATALOAD PUSH2 0x47E9 DUP2 PUSH2 0x4C8B JUMP JUMPDEST SWAP4 POP PUSH1 0x40 DUP7 ADD CALLDATALOAD PUSH2 0x47F9 DUP2 PUSH2 0x4C8B JUMP JUMPDEST SWAP3 POP PUSH1 0x60 DUP7 ADD CALLDATALOAD PUSH2 0x4809 DUP2 PUSH2 0x4C8B JUMP JUMPDEST SWAP2 POP PUSH2 0x4817 PUSH1 0x80 DUP8 ADD PUSH2 0x44CC JUMP JUMPDEST SWAP1 POP SWAP3 SWAP6 POP SWAP3 SWAP6 SWAP1 SWAP4 POP JUMP JUMPDEST PUSH1 0x0 DUP1 PUSH1 0x0 PUSH1 0x60 DUP5 DUP7 SUB SLT ISZERO PUSH2 0x4837 JUMPI DUP1 DUP2 REVERT JUMPDEST DUP4 CALLDATALOAD PUSH2 0x4842 DUP2 PUSH2 0x4CB1 JUMP JUMPDEST SWAP3 POP PUSH2 0x4850 PUSH1 0x20 DUP6 ADD PUSH2 0x44CC JUMP JUMPDEST SWAP2 POP PUSH1 0x40 DUP5 ADD CALLDATALOAD PUSH2 0x459A DUP2 PUSH2 0x4CA3 JUMP JUMPDEST PUSH1 0x0 DUP1 PUSH1 0x40 DUP4 DUP6 SUB SLT ISZERO PUSH2 0x4872 JUMPI DUP2 DUP3 REVERT JUMPDEST POP POP DUP1 MLOAD PUSH1 0x20 SWAP1 SWAP2 ADD MLOAD SWAP1 SWAP3 SWAP1 SWAP2 POP JUMP JUMPDEST PUSH1 0x1 PUSH1 0x1 PUSH1 0xA0 SHL SUB SWAP2 SWAP1 SWAP2 AND DUP2 MSTORE PUSH1 0x20 ADD SWAP1 JUMP JUMPDEST PUSH1 0x1 PUSH1 0x1 PUSH1 0xA0 SHL SUB SWAP4 DUP5 AND DUP2 MSTORE SWAP2 DUP4 AND PUSH1 0x20 DUP4 ADD MSTORE SWAP1 SWAP2 AND PUSH1 0x40 DUP3 ADD MSTORE PUSH1 0x60 ADD SWAP1 JUMP JUMPDEST PUSH1 0x1 PUSH1 0x1 PUSH1 0xA0 SHL SUB SWAP3 SWAP1 SWAP3 AND DUP3 MSTORE PUSH1 0x20 DUP3 ADD MSTORE PUSH1 0x40 ADD SWAP1 JUMP JUMPDEST PUSH1 0x0 PUSH1 0xE0 DUP3 ADD SWAP1 POP PUSH1 0x1 DUP1 PUSH1 0xA0 SHL SUB DUP5 AND DUP3 MSTORE PUSH5 0xFFFFFFFFFF DUP4 MLOAD AND PUSH1 0x20 DUP4 ADD MSTORE PUSH1 0xFF PUSH1 0xF8 SHL PUSH1 0x20 DUP5 ADD MLOAD AND PUSH1 0x40 DUP4 ADD MSTORE PUSH1 0xFF PUSH1 0x40 DUP5 ADD MLOAD AND PUSH1 0x60 DUP4 ADD MSTORE PUSH2 0xFFFF PUSH1 0x60 DUP5 ADD MLOAD AND PUSH1 0x80 DUP4 ADD MSTORE PUSH1 0x1 PUSH1 0x1 PUSH1 0x70 SHL SUB NOT PUSH1 0x80 DUP5 ADD MLOAD AND PUSH1 0xA0 DUP4 ADD MSTORE PUSH1 0xA0 DUP4 ADD MLOAD ISZERO ISZERO PUSH1 0xC0 DUP4 ADD MSTORE SWAP4 SWAP3 POP POP POP JUMP JUMPDEST PUSH1 0x1 PUSH1 0x1 PUSH1 0xA0 SHL SUB SWAP4 SWAP1 SWAP4 AND DUP4 MSTORE PUSH2 0xFFFF SWAP2 SWAP1 SWAP2 AND PUSH1 0x20 DUP4 ADD MSTORE PUSH1 0x40 DUP3 ADD MSTORE PUSH1 0x60 ADD SWAP1 JUMP JUMPDEST PUSH1 0x1 PUSH1 0x1 PUSH1 0xA0 SHL SUB SWAP6 SWAP1 SWAP6 AND DUP6 MSTORE PUSH2 0xFFFF SWAP4 SWAP1 SWAP4 AND PUSH1 0x20 DUP6 ADD MSTORE PUSH1 0x40 DUP5 ADD SWAP2 SWAP1 SWAP2 MSTORE PUSH1 0x60 DUP4 ADD MSTORE PUSH1 0x80 DUP3 ADD MSTORE PUSH1 0xA0 ADD SWAP1 JUMP JUMPDEST SWAP1 ISZERO ISZERO DUP2 MSTORE PUSH1 0x20 ADD SWAP1 JUMP JUMPDEST SWAP1 DUP2 MSTORE PUSH1 0x20 ADD SWAP1 JUMP JUMPDEST PUSH1 0x20 DUP1 DUP3 MSTORE PUSH1 0xF SWAP1 DUP3 ADD MSTORE PUSH15 0x4F76657220537570706C792043617 PUSH1 0x8C SHL PUSH1 0x40 DUP3 ADD MSTORE PUSH1 0x60 ADD SWAP1 JUMP JUMPDEST PUSH1 0x20 DUP1 DUP3 MSTORE PUSH1 0xB SWAP1 DUP3 ADD MSTORE PUSH11 0x4554482042616C616E6365 PUSH1 0xA8 SHL PUSH1 0x40 DUP3 ADD MSTORE PUSH1 0x60 ADD SWAP1 JUMP JUMPDEST PUSH1 0x20 DUP1 DUP3 MSTORE PUSH1 0x6 SWAP1 DUP3 ADD MSTORE PUSH6 0x52656465656D PUSH1 0xD0 SHL PUSH1 0x40 DUP3 ADD MSTORE PUSH1 0x60 ADD SWAP1 JUMP JUMPDEST PUSH1 0x20 DUP1 DUP3 MSTORE PUSH1 0x12 SWAP1 DUP3 ADD MSTORE PUSH18 0x43616E6E6F74206861766520617373657473 PUSH1 0x70 SHL PUSH1 0x40 DUP3 ADD MSTORE PUSH1 0x60 ADD SWAP1 JUMP JUMPDEST PUSH1 0x20 DUP1 DUP3 MSTORE PUSH1 0x16 SWAP1 DUP3 ADD MSTORE PUSH22 0x496E73756666696369656E7420616C6C6F77616E6365 PUSH1 0x50 SHL PUSH1 0x40 DUP3 ADD MSTORE PUSH1 0x60 ADD SWAP1 JUMP JUMPDEST PUSH1 0x20 DUP1 DUP3 MSTORE PUSH1 0x13 SWAP1 DUP3 ADD MSTORE PUSH19 0x2AB730BABA3437B934BD32B21031B0B63632B9 PUSH1 0x69 SHL PUSH1 0x40 DUP3 ADD MSTORE PUSH1 0x60 ADD SWAP1 JUMP JUMPDEST PUSH1 0x20 DUP1 DUP3 MSTORE PUSH1 0xF SWAP1 DUP3 ADD MSTORE PUSH15 0x4E6F205072696D6520426F72726F77 PUSH1 0x88 SHL PUSH1 0x40 DUP3 ADD MSTORE PUSH1 0x60 ADD SWAP1 JUMP JUMPDEST PUSH1 0x20 DUP1 DUP3 MSTORE PUSH1 0x1C SWAP1 DUP3 ADD MSTORE PUSH32 0x446570726563617465643A2052656465656D20746F2063546F6B656E00000000 PUSH1 0x40 DUP3 ADD MSTORE PUSH1 0x60 ADD SWAP1 JUMP JUMPDEST PUSH1 0x20 DUP1 DUP3 MSTORE PUSH1 0x14 SWAP1 DUP3 ADD MSTORE PUSH20 0x496E73756666696369656E742042616C616E6365 PUSH1 0x60 SHL PUSH1 0x40 DUP3 ADD MSTORE PUSH1 0x60 ADD SWAP1 JUMP JUMPDEST PUSH1 0x20 DUP1 DUP3 MSTORE PUSH1 0x14 SWAP1 DUP3 ADD MSTORE PUSH20 0x43616E6E6F74206368616E6765206269746D617 PUSH1 0x64 SHL PUSH1 0x40 DUP3 ADD MSTORE PUSH1 0x60 ADD SWAP1 JUMP JUMPDEST PUSH1 0x20 DUP1 DUP3 MSTORE PUSH1 0x10 SWAP1 DUP3 ADD MSTORE PUSH16 0x10D85B9B9BDD081A185D99481919589D PUSH1 0x82 SHL PUSH1 0x40 DUP3 ADD MSTORE PUSH1 0x60 ADD SWAP1 JUMP JUMPDEST PUSH1 0x20 DUP1 DUP3 MSTORE PUSH1 0xA SWAP1 DUP3 ADD MSTORE PUSH10 0x2732B390372A37B5B2B7 PUSH1 0xB1 SHL PUSH1 0x40 DUP3 ADD MSTORE PUSH1 0x60 ADD SWAP1 JUMP JUMPDEST PUSH1 0x20 DUP1 DUP3 MSTORE PUSH1 0x13 SWAP1 DUP3 ADD MSTORE PUSH19 0x125B9D985B1A590818DD5C9C995B98DE481A59 PUSH1 0x6A SHL PUSH1 0x40 DUP3 ADD MSTORE PUSH1 0x60 ADD SWAP1 JUMP JUMPDEST PUSH1 0x20 DUP1 DUP3 MSTORE PUSH1 0x13 SWAP1 DUP3 ADD MSTORE PUSH19 0x496E73756666696369656E7420746F6B656E73 PUSH1 0x68 SHL PUSH1 0x40 DUP3 ADD MSTORE PUSH1 0x60 ADD SWAP1 JUMP JUMPDEST PUSH1 0x20 DUP1 DUP3 MSTORE PUSH1 0xD SWAP1 DUP3 ADD MSTORE PUSH13 0x4F76657220446562742043617 PUSH1 0x9C SHL PUSH1 0x40 DUP3 ADD MSTORE PUSH1 0x60 ADD SWAP1 JUMP JUMPDEST SWAP3 DUP4 MSTORE PUSH1 0x20 DUP4 ADD SWAP2 SWAP1 SWAP2 MSTORE PUSH1 0x40 DUP3 ADD MSTORE PUSH1 0x60 ADD SWAP1 JUMP JUMPDEST PUSH1 0x40 MLOAD DUP2 DUP2 ADD PUSH8 0xFFFFFFFFFFFFFFFF DUP2 GT DUP3 DUP3 LT OR ISZERO PUSH2 0x4C65 JUMPI INVALID JUMPDEST PUSH1 0x40 MSTORE SWAP2 SWAP1 POP JUMP JUMPDEST PUSH1 0x0 PUSH8 0xFFFFFFFFFFFFFFFF DUP3 GT ISZERO PUSH2 0x4C81 JUMPI INVALID JUMPDEST POP PUSH1 0x20 SWAP1 DUP2 MUL ADD SWAP1 JUMP JUMPDEST PUSH1 0x1 PUSH1 0x1 PUSH1 0xA0 SHL SUB DUP2 AND DUP2 EQ PUSH2 0x4CA0 JUMPI PUSH1 0x0 DUP1 REVERT JUMPDEST POP JUMP JUMPDEST DUP1 ISZERO ISZERO DUP2 EQ PUSH2 0x4CA0 JUMPI PUSH1 0x0 DUP1 REVERT JUMPDEST PUSH2 0xFFFF DUP2 AND DUP2 EQ PUSH2 0x4CA0 JUMPI PUSH1 0x0 DUP1 REVERT INVALID LOG2 PUSH5 0x6970667358 0x22 SLT KECCAK256 PUSH11 0x1FAF394A6FC32A7E6C297F 0xF8 EXTCODESIZE DUP13 SWAP3 0xF6 AND 0x4D RETURNDATACOPY 0xBC GAS 0xA8 0xE2 0xB6 MSTORE8 DUP16 0xB1 0x22 0xD2 CALL PUSH6 0x64736F6C6343 STOP SMOD MOD STOP CALLER ","sha1":"b3b8f6d305c51f096dc424dc4deffa825167c531","source":"// SPDX-License-Identifier: BSUL-1.1\npragma solidity =0.7.6;\npragma abicoder v2;\n\nimport {\n    BalanceState,\n    AccountContext,\n    PortfolioAsset,\n    PrimeRate\n} from \"../../global/Types.sol\";\nimport {Constants} from \"../../global/Constants.sol\";\nimport {LibStorage} from \"../../global/LibStorage.sol\";\nimport {SafeInt256} from \"../../math/SafeInt256.sol\";\n\nimport {Emitter} from \"../../internal/Emitter.sol\";\nimport {TransferAssets} from \"../../internal/portfolio/TransferAssets.sol\";\nimport {BalanceHandler} from \"../../internal/balances/BalanceHandler.sol\";\nimport {nTokenHandler} from \"../../internal/nToken/nTokenHandler.sol\";\nimport {PrimeRateLib} from \"../../internal/pCash/PrimeRateLib.sol\";\nimport {PrimeCashExchangeRate} from \"../../internal/pCash/PrimeCashExchangeRate.sol\";\nimport {PrimeSupplyCap} from \"../../internal/pCash/PrimeSupplyCap.sol\";\nimport {AccountContextHandler} from \"../../internal/AccountContextHandler.sol\";\n\nimport {ActionGuards} from \"./ActionGuards.sol\";\nimport {nTokenRedeemAction} from \"./nTokenRedeemAction.sol\";\nimport {SettleAssetsExternal} from \"../SettleAssetsExternal.sol\";\nimport {FreeCollateralExternal} from \"../FreeCollateralExternal.sol\";\n\ncontract AccountAction is ActionGuards {\n    using BalanceHandler for BalanceState;\n    using AccountContextHandler for AccountContext;\n    using PrimeRateLib for PrimeRate;\n    using PrimeSupplyCap for PrimeRate;\n    using SafeInt256 for int256;\n\n    /// @notice A per account setting that allows it to borrow prime cash (i.e. incur negative cash)\n    /// as a result of account initiated actions. Accounts can still incur negative cash as a result of\n    /// fCash settlement regardless of this setting.\n    /// @param allowPrimeBorrow true if the account can borrow prime cash\n    /// @dev emit:AccountSettled emit:AccountContextUpdate\n    /// @dev auth:msg.sender\n    function enablePrimeBorrow(bool allowPrimeBorrow) external {\n        require(msg.sender != address(this)); // dev: no internal call\n        requireValidAccount(msg.sender);\n        (AccountContext memory accountContext, /* didSettle */) = _settleAccountIfRequired(msg.sender);\n        accountContext.allowPrimeBorrow = allowPrimeBorrow;\n        accountContext.setAccountContext(msg.sender);\n    }\n\n    /// @notice Enables a bitmap currency for msg.sender, account cannot have any assets when this call\n    /// occurs. Will revert if the account already has a bitmap currency set.\n    /// @param currencyId the currency to enable the bitmap for.\n    /// @dev emit:AccountSettled emit:AccountContextUpdate\n    /// @dev auth:msg.sender\n    function enableBitmapCurrency(uint16 currencyId) external {\n        require(msg.sender != address(this)); // dev: no internal call to enableBitmapCurrency\n        require(currencyId <= maxCurrencyId); // dev: invalid currency id\n        address account = msg.sender;\n        (AccountContext memory accountContext, /* didSettle */) = _settleAccountIfRequired(account);\n        accountContext.enableBitmapForAccount(currencyId, block.timestamp);\n        accountContext.setAccountContext(account);\n    }\n\n    /// @notice Method for manually settling an account, generally should not be called because other\n    /// methods will check if an account needs to be settled automatically. If a bitmap account has debt\n    /// and is settled via this method, the hasDebt flag will not be cleared until a free collateral check\n    /// is performed on the account.\n    /// @param account the account to settle\n    /// @dev emit:AccountSettled emit:AccountContextUpdate\n    /// @dev auth:none\n    /// @return returns true if account has been settled\n    function settleAccount(address account) external returns (bool) {\n        requireValidAccount(account);\n        (AccountContext memory accountContext, bool didSettle) = _settleAccountIfRequired(account);\n        if (didSettle) accountContext.setAccountContext(account);\n        return didSettle;\n    }\n\n    /// @notice Deposits and wraps the underlying token for a particular cToken. Does not settle assets or check free\n    /// collateral, idea is to be as gas efficient as possible during potential liquidation events.\n    /// @param account the account to deposit into\n    /// @param currencyId currency id of the asset token that wraps this underlying\n    /// @param amountExternalPrecision the amount of underlying tokens in its native decimal precision\n    /// (i.e. 18 decimals for DAI or 6 decimals for USDC). This will be converted to 8 decimals during transfer.\n    /// @return asset tokens minted and deposited to the account in internal decimals (8)\n    /// @dev emit:CashBalanceChange emit:AccountContextUpdate\n    /// @dev auth:none\n    function depositUnderlyingToken(\n        address account,\n        uint16 currencyId,\n        uint256 amountExternalPrecision\n    ) external payable nonReentrant returns (uint256) {\n        require(msg.sender != address(this)); // dev: no internal call to deposit underlying\n        // Only the account can deposit into its balance, donations are not allowed.\n        requireValidAccount(account);\n\n        AccountContext memory accountContext = AccountContextHandler.getAccountContext(account);\n        BalanceState memory balanceState;\n        balanceState.loadBalanceState(account, currencyId, accountContext);\n\n        // NOTE: using msg.sender here allows for a different sender to deposit tokens into\n        // the specified account. This may be useful for on-demand collateral top ups from a\n        // third party.\n        int256 primeCashReceived = balanceState.depositUnderlyingToken(\n            msg.sender,\n            SafeInt256.toInt(amountExternalPrecision),\n            false // there should never be excess ETH here by definition\n        );\n\n        require(primeCashReceived > 0); // dev: asset tokens negative or zero\n\n        balanceState.finalizeNoWithdraw(account, accountContext);\n        accountContext.setAccountContext(account);\n\n        // Check the supply cap after all balances have been finalized\n        balanceState.primeRate.checkSupplyCap(currencyId);\n\n        // NOTE: no free collateral checks required for depositing\n        return primeCashReceived.toUint();\n    }\n\n    /// @notice DEPRECATED: deposits deprecated cTokens tokens as collateral into an account that\n    /// were listed prior to the migration to prime cash. Future listed tokens will not have asset\n    /// tokens and will revert in this method.\n    /// @param account the account to deposit into\n    /// @param currencyId currency id of the asset token\n    /// @param amountExternalPrecision the amount of asset tokens in its native decimal precision\n    /// (i.e. 8 decimals for cTokens).\n    /// @return asset tokens minted and deposited to the account in internal decimals (8)\n    /// @dev emit:CashBalanceChange emit:AccountContextUpdate\n    /// @dev auth:none\n    function depositAssetToken(\n        address account,\n        uint16 currencyId,\n        uint256 amountExternalPrecision\n    ) external nonReentrant returns (uint256) {\n        require(msg.sender != address(this)); // dev: no internal call to deposit asset\n        // Only the account can deposit into its balance, donations are not allowed.\n        require(msg.sender == account); // dev: unauthorized\n        requireValidAccount(account);\n\n        AccountContext memory accountContext = AccountContextHandler.getAccountContext(account);\n        BalanceState memory balanceState;\n        balanceState.loadBalanceState(account, currencyId, accountContext);\n\n        // Int conversion overflow check done inside this method call. msg.sender\n        // is used as the account in deposit to allow for other accounts to deposit\n        // on behalf of the given account. This always does an immediate transfer\n        // and marks the net prime cash change on the balance state.\n        int256 primeCashReceived = balanceState.depositDeprecatedAssetToken(\n            account,\n            SafeInt256.toInt(amountExternalPrecision)\n        );\n\n        require(primeCashReceived > 0); // dev: asset tokens negative or zero\n\n        balanceState.finalizeNoWithdraw(account, accountContext);\n        accountContext.setAccountContext(account);\n\n        // Check the supply cap after all balances have been finalized\n        balanceState.primeRate.checkSupplyCap(currencyId);\n\n        // NOTE: no free collateral checks required for depositing\n        return primeCashReceived.toUint();\n    }\n\n    /// @notice Withdraws balances from Notional, may also redeem to underlying tokens on user request. Will settle\n    /// and do free collateral checks if required. Can only be called by msg.sender, operators who want to withdraw for\n    /// an account must do an authenticated call via ERC1155Action `safeTransferFrom` or `safeBatchTransferFrom`\n    /// @param currencyId currency id of the asset token\n    /// @param amountInternalPrecision the amount of cash balance in internal 8 decimal precision to withdraw,\n    /// this is be denominated in prime cash. If set to uint88 max, will withdraw an entire cash balance.\n    /// @param redeemToUnderlying DEPRECATED except for ETH balances. Prior to the prime cash upgrade, accounts could withdraw\n    /// cTokens directly. However, post prime cash migration this is no longer the case. If withdrawing ETH, setting redeemToUnderlying\n    /// to false will redeem ETH as WETH.\n    /// @dev emit:CashBalanceChange emit:AccountContextUpdate\n    /// @dev auth:msg.sender\n    /// @return the amount of tokens received by the account denominated in the destination token precision (if\n    // redeeming to underlying the amount will be the underlying amount received in that token's native precision)\n    function withdraw(\n        uint16 currencyId,\n        uint88 amountInternalPrecision,\n        bool redeemToUnderlying\n    ) external nonReentrant returns (uint256) {\n        if (currencyId != Constants.ETH_CURRENCY_ID) {\n            require(redeemToUnderlying, \"Deprecated: Redeem to cToken\");\n        }\n        // This happens before reading the balance state to get the most up to date cash balance\n        (AccountContext memory accountContext, /* didSettle */) = _settleAccountIfRequired(msg.sender);\n\n        BalanceState memory balanceState;\n        balanceState.loadBalanceState(msg.sender, currencyId, accountContext);\n        if (amountInternalPrecision == type(uint88).max) {\n            // if set to uint88 max, withdraw the full stored balance. This feature only\n            // works if there is a positive balance\n            require(balanceState.storedCashBalance > 0);\n            balanceState.primeCashWithdraw = balanceState.storedCashBalance.neg();\n        } else {\n            // Overflow is not possible due to uint88\n            balanceState.primeCashWithdraw = int256(amountInternalPrecision).neg();\n        }\n\n        int256 underlyingWithdrawnExternal = balanceState.finalizeWithWithdraw(\n            msg.sender, accountContext, !redeemToUnderlying\n        );\n\n        accountContext.setAccountContext(msg.sender);\n\n        if (accountContext.hasDebt != 0x00) {\n            FreeCollateralExternal.checkFreeCollateralAndRevert(msg.sender);\n        }\n\n        require(underlyingWithdrawnExternal <= 0);\n\n        // No need to check supply caps\n        return underlyingWithdrawnExternal.neg().toUint();\n    }\n\n    function withdrawViaProxy(\n        uint16 currencyId,\n        address account,\n        address receiver,\n        address spender,\n        uint88 withdrawAmountPrimeCash\n    ) external nonReentrant returns (uint256) {\n        address pCashAddress = PrimeCashExchangeRate.getCashProxyAddress(currencyId);\n        require(msg.sender == pCashAddress);\n        requireValidAccount(account);\n\n        if (account != spender) {\n            uint256 allowance = LibStorage.getPCashTransferAllowance()[account][spender][currencyId];\n            require(allowance >= withdrawAmountPrimeCash, \"Insufficient allowance\");\n            LibStorage.getPCashTransferAllowance()[account][spender][currencyId] = allowance - withdrawAmountPrimeCash;\n        }\n\n        // This happens before reading the balance state to get the most up to date cash balance\n        (AccountContext memory accountContext, /* didSettle */) = _settleAccountIfRequired(account);\n\n        BalanceState memory balanceState;\n        balanceState.loadBalanceState(account, currencyId, accountContext);\n        // Cannot withdraw more than existing balance via proxy.\n        require(withdrawAmountPrimeCash <= balanceState.storedCashBalance, \"Insufficient Balance\");\n        // Overflow is not possible due to uint88\n        balanceState.primeCashWithdraw = int256(withdrawAmountPrimeCash).neg();\n\n        // NOTE: withdraw wrapped is always set to true so that the receiver will receive WETH\n        // if ETH is being withdrawn\n        int256 underlyingWithdrawnExternal = balanceState.finalizeWithWithdrawReceiver(\n            account, receiver, accountContext, true\n        );\n\n        accountContext.setAccountContext(account);\n\n        if (accountContext.hasDebt != 0x00) {\n            FreeCollateralExternal.checkFreeCollateralAndRevert(account);\n        }\n\n        require(underlyingWithdrawnExternal <= 0);\n\n        // No need to check supply caps\n        return underlyingWithdrawnExternal.neg().toUint();\n    }\n\n    /// @notice Allows accounts to redeem nTokens to prime cash while the supply cap is breached. This\n    /// method does not withdraw any tokens from the contract. Will revert if fCash cannot be sold back\n    /// into the market.\n    /// @param redeemer the address that holds the nTokens to redeem\n    /// @param currencyId the currency associated the nToken\n    /// @param tokensToRedeem_ the amount of nTokens to convert to cash\n    /// @dev auth:msg.sender auth:ERC1155\n    /// @return total amount of prime cash redeemed\n    function nTokenRedeem(\n        address redeemer,\n        uint16 currencyId,\n        uint96 tokensToRedeem_\n    ) external nonReentrant returns (int256) {\n        // ERC1155 can call this method during a post transfer event\n        require(msg.sender == redeemer || msg.sender == address(this), \"Unauthorized caller\");\n        int256 tokensToRedeem = int256(tokensToRedeem_);\n\n        (AccountContext memory context, /* didSettle */) = _settleAccountIfRequired(redeemer);\n\n        BalanceState memory balance;\n        balance.loadBalanceState(redeemer, currencyId, context);\n\n        require(balance.storedNTokenBalance >= tokensToRedeem, \"Insufficient tokens\");\n        balance.netNTokenSupplyChange = tokensToRedeem.neg();\n\n        int256 totalPrimeCash = nTokenRedeemAction.nTokenRedeemViaBatch(\n            redeemer, currencyId, tokensToRedeem\n        );\n\n        // Set balances before transferring assets\n        balance.netCashChange = totalPrimeCash;\n        balance.finalizeNoWithdraw(redeemer, context);\n\n        context.setAccountContext(redeemer);\n        if (context.hasDebt != 0x00) {\n            FreeCollateralExternal.checkFreeCollateralAndRevert(redeemer);\n        }\n\n        return totalPrimeCash;\n    }\n\n    /// @notice Settle the account if required, returning a reference to the account context. Also\n    /// returns a boolean to indicate if it did settle.\n    function _settleAccountIfRequired(address account)\n        private\n        returns (AccountContext memory, bool)\n    {\n        AccountContext memory accountContext = AccountContextHandler.getAccountContext(account);\n        if (accountContext.mustSettleAssets()) {\n            return (SettleAssetsExternal.settleAccount(account, accountContext), true);\n        } else {\n            return (accountContext, false);\n        }\n    }\n\n    /// @notice Get a list of deployed library addresses (sorted by library name)\n    function getLibInfo() external pure returns (address, address, address) {\n        return (\n            address(FreeCollateralExternal),\n            address(SettleAssetsExternal), \n            address(nTokenRedeemAction)\n        );\n    }\n}\n","sourcePath":"contracts/external/actions/AccountAction.sol","type":"contract","deployment":{"address":"0xCeEcaf20c6d5A168Ad4f73180217007B66E3d594","chainid":"42161","blockHeight":182816472}}