{"abi":[{"anonymous":false,"inputs":[{"indexed":true,"internalType":"address","name":"liquidated","type":"address"},{"indexed":true,"internalType":"address","name":"liquidator","type":"address"},{"indexed":false,"internalType":"uint16","name":"localCurrencyId","type":"uint16"},{"indexed":false,"internalType":"uint16","name":"collateralCurrencyId","type":"uint16"},{"indexed":false,"internalType":"int256","name":"localPrimeCashFromLiquidator","type":"int256"},{"indexed":false,"internalType":"int256","name":"netCollateralTransfer","type":"int256"},{"indexed":false,"internalType":"int256","name":"netNTokenTransfer","type":"int256"}],"name":"LiquidateCollateralCurrency","type":"event"},{"anonymous":false,"inputs":[{"indexed":true,"internalType":"address","name":"liquidated","type":"address"},{"indexed":true,"internalType":"address","name":"liquidator","type":"address"},{"indexed":false,"internalType":"uint16","name":"localCurrencyId","type":"uint16"},{"indexed":false,"internalType":"int256","name":"localPrimeCashFromLiquidator","type":"int256"}],"name":"LiquidateLocalCurrency","type":"event"},{"inputs":[{"internalType":"address","name":"liquidateAccount","type":"address"},{"internalType":"uint16","name":"localCurrency","type":"uint16"},{"internalType":"uint16","name":"collateralCurrency","type":"uint16"},{"internalType":"uint128","name":"maxCollateralLiquidation","type":"uint128"},{"internalType":"uint96","name":"maxNTokenLiquidation","type":"uint96"}],"name":"calculateCollateralCurrencyLiquidation","outputs":[{"internalType":"int256","name":"","type":"int256"},{"internalType":"int256","name":"","type":"int256"},{"internalType":"int256","name":"","type":"int256"}],"stateMutability":"nonpayable","type":"function"},{"inputs":[{"internalType":"address","name":"liquidateAccount","type":"address"},{"internalType":"uint16","name":"localCurrency","type":"uint16"},{"internalType":"uint96","name":"maxNTokenLiquidation","type":"uint96"}],"name":"calculateLocalCurrencyLiquidation","outputs":[{"internalType":"int256","name":"","type":"int256"},{"internalType":"int256","name":"","type":"int256"}],"stateMutability":"nonpayable","type":"function"},{"inputs":[],"name":"getLibInfo","outputs":[{"internalType":"address","name":"","type":"address"},{"internalType":"address","name":"","type":"address"}],"stateMutability":"pure","type":"function"},{"inputs":[{"internalType":"address","name":"liquidateAccount","type":"address"},{"internalType":"uint16","name":"localCurrency","type":"uint16"},{"internalType":"uint16","name":"collateralCurrency","type":"uint16"},{"internalType":"uint128","name":"maxCollateralLiquidation","type":"uint128"},{"internalType":"uint96","name":"maxNTokenLiquidation","type":"uint96"},{"internalType":"bool","name":"withdrawCollateral","type":"bool"},{"internalType":"bool","name":"redeemToUnderlying","type":"bool"}],"name":"liquidateCollateralCurrency","outputs":[{"internalType":"int256","name":"","type":"int256"},{"internalType":"int256","name":"","type":"int256"},{"internalType":"int256","name":"","type":"int256"}],"stateMutability":"payable","type":"function"},{"inputs":[{"internalType":"address","name":"liquidateAccount","type":"address"},{"internalType":"uint16","name":"localCurrency","type":"uint16"},{"internalType":"uint96","name":"maxNTokenLiquidation","type":"uint96"}],"name":"liquidateLocalCurrency","outputs":[{"internalType":"int256","name":"","type":"int256"},{"internalType":"int256","name":"","type":"int256"}],"stateMutability":"payable","type":"function"},{"inputs":[],"name":"owner","outputs":[{"internalType":"address","name":"","type":"address"}],"stateMutability":"view","type":"function"},{"inputs":[],"name":"pauseGuardian","outputs":[{"internalType":"address","name":"","type":"address"}],"stateMutability":"view","type":"function"},{"inputs":[],"name":"pauseRouter","outputs":[{"internalType":"address","name":"","type":"address"}],"stateMutability":"view","type":"function"}],"bytecode":"608060405234801561001057600080fd5b50614f4e806100206000396000f3fe60806040526004361061007b5760003560e01c80638da5cb5b1161004e5780638da5cb5b146101035780639a600eeb14610118578063c4c96dae14610138578063e3e7cb4f1461015b5761007b565b806324a3d622146100805780632d10e6eb146100ab5780636633af39146100cc57806382463367146100ee575b600080fd5b34801561008c57600080fd5b5061009561017b565b6040516100a29190614c33565b60405180910390f35b6100be6100b93660046149b2565b61018a565b6040516100a2929190614d1b565b6100df6100da366004614921565b610264565b6040516100a293929190614d29565b3480156100fa57600080fd5b5061009561031a565b34801561010f57600080fd5b50610095610329565b34801561012457600080fd5b506100df6101333660046148b7565b610340565b34801561014457600080fd5b5061014d6103a4565b6040516100a2929190614c47565b34801561016757600080fd5b506100be6101763660046149b2565b6103d2565b6002546001600160a01b031681565b6000806002600a54141561019d57600080fd5b6002600a55600080806101b288888884610420565b92509250925060006101d3338a8a876101ce8860a00151610479565b61048f565b90506101e0838a8461058e565b336001600160a01b0316896001600160a01b03167f4596c3b6545e97eb42b719442dd0afa8eb7680f3ff72c762763d4b292ee26ea78a87604051610225929190614e57565b60405180910390a361023781336105b2565b610241828a6105b2565b8361024f8460a00151610479565b6001600a55909a909950975050505050505050565b60008060006002600a54141561027957600080fd5b6002600a55600080806102908d8d8d8d8d866106cf565b92509250925060006102a78e8e8e87878e8e61072a565b90506102b58e8e8487610776565b6102c0838f846107a3565b6102cc8e8e86866107c0565b6102d6828f6105b2565b6102e081336105b2565b836102ee8460600151610479565b6102fb8560a00151610479565b965096509650505050506001600a819055509750975097945050505050565b6001546001600160a01b031681565b60005464010000000090046001600160a01b031681565b60008060006002600a54141561035557600080fd5b6002600a5560008061036c8a8a8a8a8a60016106cf565b50915091508161037f8260600151610479565b61038c8360a00151610479565b6001600a55919c909b50909950975050505050505050565b73__FreeCollateralExternal________________73__MigrateIncentives_____________________9091565b6000806002600a5414156103e557600080fd5b6002600a556000806103fa8787876001610420565b50915091508161040d8260a00151610479565b6001600a55909890975095505050505050565b600061042a614118565b610432614174565b61043a6141a9565b61044688886000610835565b50909250905061045883898985610991565b84151561014082015261046c8684836109ac565b9350509450945094915050565b600061048760001983610af2565b90505b919050565b610497614174565b60006104a68561ffff16610b46565b905060006104b388610b59565b90506104bd614118565b6104c9818a8985610991565b600086136104d657600080fd5b8260200151156105385785816020015112158015610500575060208201516001600160f81b031916155b6105255760405162461bcd60e51b815260040161051c90614db4565b60405180910390fd5b61052e86610479565b606082015261054d565b61054b8988888461012001516000610c07565b505b61055989898989610c7d565b600085131561056e5761056e888a8988610d23565b60a08101859052610580818a8461058e565b509150505b95945050505050565b60808301511561059d57600080fd5b6105ac83838360006001610e33565b50505050565b60006105bc610fe9565b6001600160a01b03831660008181526020838152604080832088518154938a01518a84015160608c015160808d015160a08e015164ffffffffff1990981664ffffffffff9095169490941765ff00000000001916600160281b60f89490941c939093029290921766ff0000000000001916600160301b60ff909216919091021768ffff000000000000001916600160381b61ffff90921691909102177affffffffffffffffffffffffffffffffffff0000000000000000001916600160481b60709290921c919091021760ff60d81b1916600160d81b93151593909302929092179091555192935090917f6bd4b121bca854a191536a2ca891155c42ee2fb23f307fb34e8bc65cfcb5412e9190a2505050565b60006106d9614118565b6106e1614174565b6106e96141a9565b6106f48a8a8a610835565b509092509050610706838b8a85610991565b84151561014082015261071b87878584610ff6565b93505096509650969350505050565b610732614174565b61074033898988600061048f565b905061076a33828a896107568960600151610479565b6107638a60a00151610479565b898961110b565b50979650505050505050565b61077e614118565b61078a81868686610991565b6060810182905261079c81868561058e565b5050505050565b6080830151156107b257600080fd5b6105ac838383600080610e33565b336001600160a01b0316846001600160a01b03167f88fff2f00941b1272999212de454ee8d15f54d132723b35e3423ef742109861c858460000151866108098760600151610479565b6108168860a00151610479565b604051610827959493929190614e6b565b60405180910390a350505050565b61083d614174565b6108456141a9565b61084d61422e565b336001600160a01b038716141561086357600080fd5b61ffff851661087157600080fd5b8461ffff168461ffff16141561088657600080fd5b600080600073__FreeCollateralExternal________________63451d958f8a8a8a6040518463ffffffff1660e01b81526004016108c693929190614c9e565b60006040518083038186803b1580156108de57600080fd5b505af41580156108f2573d6000803e3d6000fd5b505050506040513d6000823e601f3d908101601f1916820160405261091a9190810190614b06565b9194509250905061092b838a6105b2565b60408051608081018252828152815160008082526020828101909452928201908361096c565b610959614256565b8152602001906001900390816109515790505b5081526000602082015292516040909301929092525091989097509095509350505050565b61099a826111a7565b6101208501526105ac848484846111b9565b60008160400151600014156109c057600080fd5b60006109e86109dc846040015185602001518660c00151611261565b610100850151906112a7565b9050600083608001511315610aea5760a0830151600090600381901a90821a11610a1157600080fd5b60a08401516080850151600382901a60009290921a9190910360ff1690610a6590610a3c9083610af2565b60a08701516040890151610a5f9160031a90610a59908890610af2565b90610af2565b906112d0565b915050610a80818660400151886001600160601b0316611301565b9050610a8b81610479565b60a0868101919091526040860151908501516080860151600092610ac4929091610a5f91600381901a918391610a59908990891a610af2565b6060870151909150610ad6908261134b565b6060870152610ae5848261134b565b935050505b509392505050565b818102600019831415610b2257811580610b14575082828281610b1157fe5b05145b610b1d57600080fd5b610b40565b821580610b37575081838281610b3457fe5b05145b610b4057600080fd5b92915050565b610b4e614295565b610487826001611361565b610b61614174565b6000610b6b610fe9565b6001600160a01b03841660009081526020918252604090819020815160c081018352905464ffffffffff811682526001600160f81b0319600160281b820460f81b169382019390935260ff600160301b840481169282019290925261ffff600160381b84041660608201526001600160701b0319600160481b840460701b166080820152600160d81b90920416151560a0820152915050919050565b600083610c1657506000610585565b60008413610c2357600080fd5b6000610c328661ffff16610b46565b90506000610c4982610c4487896113fb565b611427565b90506000610c5a8989848989611463565b90945090508681036000811215610c7057600080fd5b5050505095945050505050565b6000610c87611525565b61ffff8416600090815260209190915260408120546001600160a01b03169150821215610cb2579293925b806001600160a01b03166323de66518686610ccc86611532565b6040518463ffffffff1660e01b8152600401610cea93929190614c61565b600060405180830381600087803b158015610d0457600080fd5b505af1158015610d18573d6000803e3d6000fd5b505050505050505050565b6000610d2d611553565b61ffff8416600090815260209190915260408120546001600160a01b03169150821215610d58579293925b6000610d6383611532565b9050610d6e84611560565b15610dc8576001600160a01b03808616908716337fc3d58168c5ae7397731d063d5bbf3d657854427343f4c083240f7aacaa2d0f62610dac8861157d565b85604051610dbb929190614d1b565b60405180910390a4610e2b565b6040516323de665160e01b81526001600160a01b038316906323de665190610df890899089908690600401614c61565b600060405180830381600087803b158015610e1257600080fd5b505af1158015610e26573d6000803e3d6000fd5b505050505b505050505050565b600080610e5086886000015189608001518a610120015188611593565b91506000610e6f8860800151896060015161134b90919063ffffffff16565b9050838015610e7e5750600081125b8015610e9957506020880151600090610e97908361134b565b125b15610ebf578560a00151610ebf5760405162461bcd60e51b815260040161051c90614d8b565b8015610ede576020880151610ed4908261134b565b6020890152600191505b60a0880151151580610ef3575060c088015115155b15610f5c576000610f238960c00151610f1d8b60a001518c6040015161134b90919063ffffffff16565b9061134b565b90506000811215610f465760405162461bcd60e51b815260040161051c90614e33565b610f51898983611636565b506040890152600191505b8115610f8b57610f8b8789600001518a602001518b604001518c60e001518d61010001518e610120015161172d565b87516020890151610fb89161ffff1690151580610fab575060408a015115155b889190600160fe1b611868565b600088602001511215610fde57602086018051600160f91b176001600160f81b03191690525b505095945050505050565b600080610b406001611a6e565b60008082604001511261101b5760405162461bcd60e51b815260040161051c90614d3f565b600082606001511361103f5760405162461bcd60e51b815260040161051c90614dd5565b60008061105584886001600160801b0316611a87565b9150915060008290506000866020015113156110b1578086602001511261108c5761107f81610479565b60608701525060006110b1565b6110998660200151610479565b606087015260208601516110ae908290611b3a565b90505b6000811380156110c5575060008560800151135b156110e2576110df8686838a6001600160601b0316611b56565b90505b60008113156111005760608601516110fa9082611c14565b60608701525b509695505050505050565b611113614174565b816111305760405162461bcd60e51b815260040161051c90614dfc565b611138614118565b611144818b898c610991565b60608101869052851561115d5761115d888b8989610c7d565b841561116f5761116f888b8988610d23565b83156111845761117e86610479565b60808201525b60a08101859052611198818b8b6000611c2a565b50979998505050505050505050565b6111af6142c4565b6104878242611c3a565b8161ffff1660001080156111d35750613fff61ffff831611155b6111dc57600080fd5b61ffff82168085526111ef908290611cfb565b1561121e576112048383866101200151611d85565b61010088015260e08701526040860152602085015261123c565b6000602085018190526040850181905260e085018190526101008501525b50506000606083018190526080830181905260a0830181905260c09092019190915250565b6000806000851361127657826040015161127c565b82606001515b90506000811361128b57600080fd5b61058581610a5f6064610a596112a089610479565b8890611e3f565b81516000906112c990610a5f846ec097ce7bc90715b34b9f1000000000610af2565b9392505050565b6000816000191480156112e65750600160ff1b83145b156112f057600080fd5b8183816112f957fe5b059392505050565b6000806113146064610a5f866028610af2565b905084848113156113225750835b8186121561132d5750805b60008413801561133c57508381135b15610585575091949350505050565b81810182811215600083121514610b4057600080fd5b611369614295565b6000611373611e69565b6000858152602082815260408083208715158452825291829020825160a08101845281546001600160a01b038116825260ff600160a01b82048116151594830194909452600160b01b81048416600a0a9482019490945293945092916060830191600160a81b9091041660058111156113e857fe5b8152600060209091015295945050505050565b60006112c96ec097ce7bc90715b34b9f1000000000610a5f856000015185610af290919063ffffffff16565b60006305f5e1008360400151121561144f576114486001610f1d8585611e76565b9050610b40565b6112c98361145e84600161134b565b611e76565b600080600061147186611eae565b90508061148557600080925092505061151b565b60006114948861ffff16610b46565b90506003816060015160058111156114a857fe5b14156114ef57348210156114c8576114c38983340387611ec1565b6114e7565b3482146114e75760405162461bcd60e51b815260040161051c90614d66565b869350611509565b61150661150182600001518b85611f8e565b612116565b93505b611516898986848a61212c565b925050505b9550959350505050565b600080610b406021611a6e565b60008082121561154c5761154582610479565b905061048a565b508061048a565b600080610b406003611a6e565b6000466001811480156112c957505050600461ffff909116111590565b600c60309190911b67ffff000000000000161790565b6000836115a257506000610585565b600084126115af57600080fd5b60006115be8661ffff16610b46565b90506115ce8161145e86886113fb565b915060006115db83610479565b90506115e8878383612173565b6003826060015160058111156115fa57fe5b14156116105761160b888286611ec1565b61161d565b815161161d90898361226b565b61162a888885858961212c565b50505095945050505050565b82516000904290829061164c9061ffff166122e2565b9050600061165982612308565b50509050600061166e838960c0015186612364565b905061167c88848389612447565b9450600061168984612574565b90506001600160a01b0381161561171157806001600160a01b0316633f3ef50d898b600001516116bc8d60400151611eae565b8b886040518663ffffffff1660e01b81526004016116de959493929190614cc3565b600060405180830381600087803b1580156116f857600080fd5b505af115801561170c573d6000803e3d6000fd5b505050505b85156117215761172188876125e6565b50505050509392505050565b6000611737612609565b6001600160a01b03891660009081526020828152604080832061ffff8c16845290915290209091508461179f5766ffffffffffffff84111561177857600080fd5b805466ffffffffffffff60701b1916600160701b66ffffffffffffff8616021781556117b9565b8054600160501b900463ffffffff1685146117b957600080fd5b6117c285612616565b815463ffffffff91909116600160501b0263ffffffff60501b199091161781556117f36117ee87611eae565b612629565b815469ffffffffffffffffffff19166001600160501b039190911617808255611839906118349085908c908c90600160a81b9004600a90810b900b8c61263f565b612662565b8154600a9190910b6001600160581b0316600160a81b026001600160a81b039091161790555050505050505050565b82600010801561187a5750613fff8311155b61188357600080fd5b818015611897575082846060015161ffff16145b156118a1576105ac565b6080840151600090815b6001600160701b0319821615611a235760f082901c613fff1686811480156118d05750855b1561190857506080870180516001600160f01b0319861660109093029290921c919091176001600160701b0319169052506105ac9050565b8681148015611915575085155b15611971576001600160f01b03198516199290921691600360fe1b831661194f576010836dffffffffffffffffffffffffffff1916901b92505b506001600160701b031991821660109091021c919091171660808501526105ac565b868111801561197d5750855b156119d7576080888101516001600160f01b031960f08a901b88178116601086021c9690961795911b16156119b157600080fd5b506001600160701b03199182166001919091016010021c919091171660808501526105ac565b86811180156119e4575085155b156119f257505050506105ac565b506001600160f01b0319821660108281029190911c93909317929190911b6001600160801b031916906001016118ab565b84611a30575050506105ac565b60098110611a3d57600080fd5b6001600160f01b031960f087901b85171660109091021c919091176001600160701b03191660808601525050505050565b6000620f4240826026811115611a8057fe5b0192915050565b600080600080611a9686612694565b915091506000611ace8760e0015160600151611ac884610a5f60648c60c0015160400151610af290919063ffffffff16565b90611c14565b905060008113611add57600080fd5b611aec81610a5f856064610af2565b945050611afe84876060015187611301565b93506000611b1e85886101200151604001516113fb90919063ffffffff16565b9050611b2c878383886126e8565b909890975095505050505050565b6000611b468383611c14565b90506000811215610b4057600080fd5b60a0830151608084015160009180831a9160039190911a908390611b9990611b7e9085610af2565b610a5f84610a598c604001518b610af290919063ffffffff16565b9050600085138015611baa57508481135b15611bb25750835b8760400151811315611bc5575060408701515b611bce81610479565b8860a0018181525050611c08611c018960400151610a5f85610a5f88610a598e6080015189610af290919063ffffffff16565b8790611b3a565b98975050505050505050565b80820382811315600083121514610b4057600080fd5b6000610585858585856001610e33565b611c426142c4565b6000611c4d84612775565b90508281600001511015611c8c57600080611c678661283d565b9050611c75868483886128ba565b9093509150611c8586838561295e565b5050611c99565b80518314611c9957600080fd5b6040518060600160405280611cc26115018460a001518560c00151612b9290919063ffffffff16565b8152602001611ce56115018460a001518560e00151612b9290919063ffffffff16565b8152602001826060015181525091505092915050565b60008115801590611d0e5750613fff8211155b611d1757600080fd5b6080830151606084015161ffff16831415611d36576001915050610b40565b6001600160701b0319811615611d7b5760f081901c613fff1683811415611d685750600160fe1b908116149050610b40565b5060101b6001600160801b031916611d36565b5060009392505050565b6000806000806000611d95612609565b6001600160a01b03891660009081526020828152604080832061ffff8c168452909152902080546001600160501b0381169650600160501b900463ffffffff1694509091508315611e02578054611dfb90600160701b900466ffffffffffffff16612bb9565b9250611e17565b8054600160701b900466ffffffffffffff1692505b8054611e32908890600160a81b9004600a90810b900b612bc7565b9550505093509350935093565b600080611e618460200151610a5f866000015186610af290919063ffffffff16565b949350505050565b600080610b406007611a6e565b60006305f5e10083604001511415611e8f575080610b40565b6112c96305f5e100610a5f856040015185610af290919063ffffffff16565b600080821215611ebd57600080fd5b5090565b8015611f53577382af49447d8a07e3bd95bd0d56f35241523fbab16001600160a01b031663d0e30db0836040518263ffffffff1660e01b81526004016000604051808303818588803b158015611f1657600080fd5b505af1158015611f2a573d6000803e3d6000fd5b5050505050611f4e7382af49447d8a07e3bd95bd0d56f35241523fbab1848461226b565b611f89565b6040516001600160a01b0384169083156108fc029084906000818181858888f193505050501580156105ac573d6000803e3d6000fd5b505050565b600080846001600160a01b03166370a08231306040518263ffffffff1660e01b815260040180826001600160a01b0316815260200191505060206040518083038186803b158015611fde57600080fd5b505afa158015611ff2573d6000803e3d6000fd5b505050506040513d602081101561200857600080fd5b5051604080516323b872dd60e01b81526001600160a01b038781166004830152306024830152604482018790529151929350908716916323b872dd9160648082019260009290919082900301818387803b15801561206557600080fd5b505af1158015612079573d6000803e3d6000fd5b50505050612085612bee565b6000856001600160a01b03166370a08231306040518263ffffffff1660e01b815260040180826001600160a01b0316815260200191505060206040518083038186803b1580156120d457600080fd5b505afa1580156120e8573d6000803e3d6000fd5b505050506040513d60208110156120fe57600080fd5b5051905061210c8183612c5b565b9695505050505050565b60006001600160ff1b03821115611ebd57600080fd5b6000806121398486612c70565b905061214583826112a7565b9150612152878784612ca0565b61215d868383612d20565b83516121699086612e24565b5095945050505050565b600061217d612e7e565b83516001600160a01b03166000908152602082905260409020549091508083116121a8575050611f89565b60006121b386612e8b565b90506000816001600160a01b031663b5e4da238487036040518263ffffffff1660e01b81526004016121e59190614e97565b60006040518083038186803b1580156121fd57600080fd5b505afa158015612211573d6000803e3d6000fd5b505050506040513d6000823e601f3d908101601f1916820160405261223991908101906149f8565b905060006122478783612ebb565b9150612255905084826130d2565b86111561226157600080fd5b5050505050505050565b826001600160a01b031663a9059cbb83836040518363ffffffff1660e01b815260040180836001600160a01b0316815260200182815260200192505050600060405180830381600087803b1580156122c257600080fd5b505af11580156122d6573d6000803e3d6000fd5b50505050611f89612bee565b6000806122ed611553565b6000938452602052505060409020546001600160a01b031690565b6000806000806123166130e4565b6001600160a01b0395909516600090815260209590955250506040909220546001600160601b03811693600160601b82046001600160801b03169350600160e01b90910463ffffffff169150565b600080600061237386856130f1565b509150915060006123826130e4565b6001600160a01b03881660009081526020829052604081209192506123a7858961134b565b9050806000131580156123c057506001600160601b0381105b6123c957600080fd5b81546bffffffffffffffffffffffff19166001600160601b038216176fffffffffffffffffffffffffffffffff60601b1916600160601b6001600160801b0386160217825563ffffffff871061241e57600080fd5b50805463ffffffff8716600160e01b026001600160e01b03909116179055509150509392505050565b60e0840151600090156125085773__MigrateIncentives_____________________63e0c01a728561247c8860400151611eae565b8860e001518961010001516040518563ffffffff1660e01b81526004016124a69493929190614cf5565b60206040518083038186803b1580156124be57600080fd5b505af41580156124d2573d6000803e3d6000fd5b505050506040513d601f19601f820116820180604052508101906124f69190614bf8565b600060e0870181905261010087015290505b61254a61254386610100015161253d670de0b6b3a7640000612537886125318c60400151611eae565b90612b92565b90613187565b90612c5b565b82906130d2565b9050612562670de0b6b3a76400006125378486612b92565b85610100018181525050949350505050565b60008061257f6131a6565b6001600160a01b0384166000908152602082905260409020805491925090600160f81b900460ff16156125db576125b46131b3565b6001600160a01b03808616600090815260209290925260409091205416925061048a915050565b60009250505061048a565b61260573019be259bc299f3f653688c7655c87f998bc7bc1838361226b565b5050565b600080610b406006611a6e565b600063ffffffff821115611ebd57600080fd5b60006001600160501b03821115611ebd57600080fd5b600061264b86836131c0565b905061058586868661265d87866131f9565b613280565b60006a7fffffffffffffffffffff19821280159061268b57506a7fffffffffffffffffffff8213155b611ebd57600080fd5b6000806126c56126b56126aa8560200151610479565b60e086015190611e3f565b61012085015160400151906112a7565b91506126e18360e00151608001518460c00151608001516132ad565b9050915091565b600080600061271b86610a5f6127068a60c001518b60e001516132c3565b60c08b015151610a5f90610a598b6064610af2565b90506000612737828961010001516112a790919063ffffffff16565b905060006127488960400151610479565b9050808213156127665761276082610a5f8884610af2565b95508091505b50939793965092945050505050565b61277d6142e5565b60006127876132e8565b61ffff93841660009081526020918252604090819020805464ffffffffff81168652600160281b81046001600160581b03908116948701949094526001820154841692860192909252600160d81b820463ffffffff166060860152600160801b9091049091166080840152600201546001600160501b0380821660a0850152600160501b8204811660c0850152600160a01b82041660e0840152600160f01b900460ff1661012c02909216610100820152919050565b60008061284983612e8b565b6001600160a01b031663ef81f2166040518163ffffffff1660e01b81526004016040805180830381600087803b15801561288257600080fd5b505af1158015612896573d6000803e3d6000fd5b505050506040513d601f19601f82011682018060405250810190611e619190614c10565b6128c26142e5565b60008060006128d28886896132f5565b60c08b019290925260e08a0192909252602089015191935091506128f690836130d2565b60208801526080870151600090156129245760808801516129219061291b8982612c5b565b90613400565b90505b612944612939670de0b6b3a7640000836130d2565b60a08a01519061341d565b60a089015250506080860194909452505082529092909150565b60006129686132e8565b60008561ffff168152602001908152602001600020905061298c826000015161343a565b815464ffffffffff191664ffffffffff9190911617815560a08201516129b190612629565b60028201805469ffffffffffffffffffff19166001600160501b039290921691909117905560c08201516129e490612629565b81600201600a6101000a8154816001600160501b0302191690836001600160501b03160217905550612a198260e00151612629565b8160020160146101000a8154816001600160501b0302191690836001600160501b03160217905550612a4e826020015161344e565b81546001600160581b0391909116600160281b026fffffffffffffffffffffff0000000000199091161781556040820151612a889061344e565b6001820180546affffffffffffffffffffff19166001600160581b03929092169190911790556080820151612abc9061344e565b81546001600160581b0391909116600160801b026affffffffffffffffffffff60801b199091161781556060820151612af490612616565b815463ffffffff91909116600160d81b0263ffffffff60d81b199091161781558215612b40576000612b2584612116565b9050612b318582613464565b612b3e610fee8683612ca0565b505b8361ffff167fef25641e225e493886510ca1ad6584fa7b442b9fea820a29d1de3ce27d270fd28360a001518460c001518560e00151604051612b8493929190614d29565b60405180910390a250505050565b600082612ba157506000610b40565b82820282848281612bae57fe5b04146112c957600080fd5b600881901c60ff9091161b90565b6000808212612bd7575080610b40565b825160208401516114489190610a5f908590610af2565b6000612bf8614331565b3d8015612c0c5760208114612c1557600080fd5b60019250612c20565b60206000833e815192505b5081612605576040805162461bcd60e51b8152602060048201526005602482015264045524332360dc1b604482015290519081900360640190fd5b600082821115612c6a57600080fd5b50900390565b60006305f5e10083604001511415612c89575080610b40565b60408301516112c990610a5f846305f5e100610af2565b6000612caa611525565b61ffff8416600090815260209190915260409081902054905163ad1c095d60e01b81526001600160a01b039091169150819063ad1c095d90612cf29087908690600401614c85565b600060405180830381600087803b158015612d0c57600080fd5b505af1158015612261573d6000803e3d6000fd5b6000612d2a6132e8565b61ffff8516600090815260209190915260409020805490915064ffffffffff164214612d5557600080fd5b8054600090612d7490600160281b90046001600160581b03168561134b565b8254909150600090612d9690600160801b90046001600160581b03168561134b565b905080624c4b401315612da857600080fd5b612db9612db482611eae565b61344e565b83546001600160581b0391909116600160801b026affffffffffffffffffffff60801b19909116178355612def612db483611eae565b83546001600160581b0391909116600160281b026fffffffffffffffffffffff000000000019909116178355610e2b8361349b565b6000612e2e612e7e565b6001600160a01b038416600090815260208290526040902054909150612e5c612e57828561134b565b611eae565b6001600160a01b03909416600090815260209290925250604090209190915550565b600080610b406026611a6e565b600080612e96613560565b61ffff939093166000908152602093909352505060409020546001600160a01b031690565b60008060005b83518110156130ca576000848281518110612ed857fe5b60200260200101519050600081606001516001600160a01b03166370a08231306040518263ffffffff1660e01b8152600401612f149190614c33565b60206040518083038186803b158015612f2c57600080fd5b505afa158015612f40573d6000803e3d6000fd5b505050506040513d601f19601f82011682018060405250810190612f649190614bf8565b90506000612f72883061356d565b905060005b835151811015612fce57612fbd84600001518281518110612f9457fe5b6020026020010151600086602001518481518110612fae57fe5b60200260200101516001613617565b612fc657600196505b600101612f77565b506000612fdb893061356d565b90506000612fe98284612c5b565b90508085604001511115612ffc57600080fd5b60608501516040516370a0823160e01b81526000916001600160a01b0316906370a082319061302f903090600401614c33565b60206040518083038186803b15801561304757600080fd5b505afa15801561305b573d6000803e3d6000fd5b505050506040513d601f19601f8201168201806040525081019061307f9190614bf8565b90508481111561308e57600080fd5b61309d86606001518683613885565b6130a788836130d2565b97506130b88b600001518585613885565b505060019094019350612ec192505050565b509250929050565b6000828201838110156112c957600080fd5b600080610b406011611a6e565b60008060006130ff85612308565b9194509250905080841180156131155750600081115b80156131215750600083115b1561318057600061313186613902565b505050915050600061315c6131536305f5e10084612b9290919063ffffffff16565b8488038761396b565b905061316884826130d2565b93506001600160801b03841061317d57600080fd5b50505b9250925092565b600080821161319557600080fd5b81838161319e57fe5b049392505050565b600080610b406002611a6e565b600080610b406012611a6e565b6000808212156131f3576131ee6001611ac88560200151610a5f876000015187610af290919063ffffffff16565b6112c9565b50919050565b600081831480613216575060008312158015613216575060008212155b1561322357506000610b40565b600083131580156132345750816000125b15613240575081610b40565b600082131580156132515750826000125b1561325f5761144882610479565b60008313158015613271575060008213155b1561007b576114488383611c14565b80156105ac578351602085015160009161329f91610a5f908590610af2565b905061079c8484848461398d565b60008183136132bc57816112c9565b5090919050565b60006112c98260200151610a5f84600001518660200151610af290919063ffffffff16565b600080610b40601d611a6e565b6000806000806000806133088988613ad3565b8951909550919350915060009061332f90613324908b90612c5b565b633b9aca0090612b92565b905061336961335e6301da9c006133468585612b92565b8161334d57fe5b670de0b6b3a76400009190046130d2565b60e08a01519061341d565b965061338b6133806301da9c006133468785612b92565b60c08a01519061341d565b9550818314156133a25750600093506133f7915050565b60006133c46133b96301da9c006133468786612b92565b60e08b01519061341d565b905060006133d28983612c5b565b90506133ef88612537838d60400151612b9290919063ffffffff16565b965050505050505b93509350935093565b60006112c961341784670de0b6b3a7640000612b92565b83613187565b60006112c961342c8484612b92565b670de0b6b3a7640000613187565b600064ffffffffff821115611ebd57600080fd5b60006001600160581b03821115611ebd57600080fd5b600081121561347257600080fd5b6000613480610fee84613b6d565b905061348c818361134b565b9050611f89610fee8483613bc6565b805460028201546000916134d791600160281b9091046001600160581b031690610a59906001600160501b03600160501b820481169116610af2565b60018301546002840154919250600091613511916001600160581b031690610a59906001600160501b03600160a01b820481169116610af2565b83549091506000906135489060016001600160581b03600160801b909204821601166ec097ce7bc90715b34b9f1000000000610af2565b9050806135558484611c14565b13156105ac57600080fd5b600080610b40601f611a6e565b600060038360600151600581111561358157fe5b141561359857506001600160a01b03811631610b40565b82516040516370a0823160e01b81526001600160a01b03909116906370a08231906135c7908590600401614c33565b60206040518083038186803b1580156135df57600080fd5b505afa1580156135f3573d6000803e3d6000fd5b505050506040513d601f19601f820116820180604052508101906114489190614bf8565b6000806000866001600160a01b031686866040518082805190602001908083835b602083106136575780518252601f199092019160209182019101613638565b6001836020036101000a03801982511681845116808217855250505050505090500191505060006040518083038185875af1925050503d80600081146136b9576040519150601f19603f3d011682016040523d82523d6000602084013e6136be565b606091505b50915091508361376157816136d282613c3a565b9061375b5760405162461bcd60e51b81526004018080602001828103825283818151815260200191508051906020019080838360005b83811015613720578181015183820152602001613708565b50505050905090810190601f16801561374d5780820380516001836020036101000a031916815260200191505b509250505060405180910390fd5b50612169565b866001600160a01b03167f3c7e398c5e91088cae639370e35b25ea669d81fbdf0def5388e73661bc34e08e878761379785613c3a565b604051808481526020018060200180602001838103835285818151815260200191508051906020019080838360005b838110156137de5781810151838201526020016137c6565b50505050905090810190601f16801561380b5780820380516001836020036101000a031916815260200191505b50838103825284518152845160209182019186019080838360005b8381101561383e578181015183820152602001613826565b50505050905090810190601f16801561386b5780820380516001836020036101000a031916815260200191505b509550505050505060405180910390a25095945050505050565b600061388f612e7e565b6001600160a01b038516600090815260208290526040902054909150838111156138b857600080fd5b60006138cf6138c686612116565b611ac886612116565b90506138de612e57838361134b565b6001600160a01b039096166000908152602093909352505060409020929092555050565b6000806000806000806139136131a6565b6001600160a01b039097166000908152602097909752505060409094205461ffff81169563ffffffff62010000830481169650600160301b830416945060ff600160501b8304169350600160581b90910460d01b9150565b6000611e61826125376301da9c00818861253189670de0b6b3a7640000612b92565b60006139976132e8565b61ffff8516600090815260209190915260409020805490915064ffffffffff1642146139c257600080fd5b8054600160f81b900460ff166139d757600080fd5b60018101546000906139f2906001600160581b03168561134b565b8254909150600090613a1490600160281b90046001600160581b03168561134b565b905081600919128015613a275750600082125b15613a3157600091505b80600919128015613a425750600081125b15613a4b575060005b613a57612db483611eae565b6001840180546affffffffffffffffffffff19166001600160581b0392909216919091179055613a89612db482611eae565b83546001600160581b0391909116600160281b026fffffffffffffffffffffff000000000019909116178355613ac187878688613d41565b613aca8361349b565b50505050505050565b600080600080600085602001511115613b2057613b1d613b048660c001518760200151612b9290919063ffffffff16565b60e08701516040880151613b1791612b92565b90613e1b565b90505b6000613b2b87613e2e565b9050613b378183613e61565b94508115613b4e57613b4b81866001613f1a565b93505b60208601511561317d57613b628583613f92565b925050509250925092565b600080613b78612609565b6001600160a01b03851660009081526020828152604080832061ffff8816845290915281208054600160a81b9004600a90810b900b9450919250831215613bbe57600080fd5b505092915050565b6000811215613bd457600080fd5b6000613bde612609565b6001600160a01b03851660009081526020828152604080832061ffff881684529091529020909150613c0f83612662565b8154600a9190910b6001600160581b0316600160a81b026001600160a81b0390911617905550505050565b6060604482511015613c70575060408051808201909152600d81526c14da5b195b9d0814995d995c9d609a1b602082015261048a565b6004820180519092602401906020811015613c8a57600080fd5b8101908080516040519392919084640100000000821115613caa57600080fd5b908301906020820185811115613cbf57600080fd5b8251640100000000811182820188101715613cd957600080fd5b82525081516020918201929091019080838360005b83811015613d06578181015183820152602001613cee565b50505050905090810190601f168015613d335780820380516001836020036101000a031916815260200191505b506040525050509050919050565b6000613d4b611525565b61ffff8516600090815260209190915260408120546001600160a01b03169150613d73613fab565b61ffff8616600090815260209190915260409081902054905163ad1c095d60e01b81526001600160a01b039091169150819063ad1c095d90613dbb9089908790600401614c85565b600060405180830381600087803b158015613dd557600080fd5b505af1158015613de9573d6000803e3d6000fd5b505060405163ad1c095d60e01b81526001600160a01b038516925063ad1c095d9150610df89089908890600401614c85565b60006112c961341784633b9aca00612b92565b613e3661434f565b6000613e40613fb8565b61ffff84166000908152602091909152604081205491506112c99082613fc5565b600080836080015111613e7357600080fd5b633b9aca00821115613e8457600080fd5b82518211613ea357825160408401516114489190612537908590612b92565b82602001518211613ee15760408301518351602085015160608601516114489392613edb928190039161253791880390859003612b92565b906130d2565b6112c98360600151613edb8560200151633b9aca0003612537876060015188608001510388602001518803612b9290919063ffffffff16565b600080613f3960646125378760e0015187612b9290919063ffffffff16565b90508460a00151811015613f4e575060a08401515b8460c00151811115613f61575060c08401515b8215613f7857613f7184826130d2565b9150610aea565b838111613f8757808403610585565b506000949350505050565b60006112c9613fa18484612b92565b633b9aca00613187565b600080610b406022611a6e565b600080610b40601b611a6e565b613fcd61434f565b6064633b9aca008360ff861660208110613fe357fe5b1a0281613fec57fe5b0481526064633b9aca008360ff86166001016020811061400857fe5b1a028161401157fe5b048160200181815250506140368260028560ff16016020811061403057fe5b1a6140e4565b60808201819052610100908360ff86166003016020811061405357fe5b1a028161405c57fe5b0460408201526080810151610100908360ff86166004016020811061407d57fe5b1a028161408657fe5b0460608201526207a1208260ff8516600501602081106140a257fe5b1a0260a0820152622625a08260ff8516600601602081106140bf57fe5b1a0260c08201528160ff8416600701602081106140d857fe5b1a60e082015292915050565b60008160ff166096106140ff5760ff8216622625a002610487565b5060951960ff919091160162e4e1c00263165a0bc00190565b604051806101400160405280600061ffff168152602001600081526020016000815260200160008152602001600081526020016000815260200160008152602001600081526020016000815260200161416f6142c4565b905290565b6040805160c081018252600080825260208201819052918101829052606081018290526080810182905260a081019190915290565b60405180610160016040528060006001600160a01b031681526020016000815260200160008152602001600081526020016000815260200160006001600160d01b03191681526020016141fa614394565b8152602001614207614394565b81526020016142146142c4565b81526020016142216143c3565b8152600060209091015290565b6040518060800160405280606081526020016060815260200160008152602001600081525090565b6040518060c00160405280600061ffff168152602001600081526020016000815260200160008152602001600081526020016000600381111561416f57fe5b6040805160a0810182526000808252602082018190529181018290529060608201908152602001600081525090565b60405180606001604052806000815260200160008152602001600081525090565b6040518061012001604052806000815260200160008152602001600081526020016000815260200160008152602001600081526020016000815260200160008152602001600081525090565b60405180602001604052806001906020820280368337509192915050565b60405180610100016040528060008152602001600081526020016000815260200160008152602001600081526020016000815260200160008152602001600081525090565b6040518060a0016040528060008152602001600081526020016000815260200160008152602001600081525090565b60408051608081018252600080825260208201529081016142216142c4565b805161048a81614ee2565b600082601f8301126143fd578081fd5b8151602061441261440d83614ec4565b614ea0565b828152818101908583018385028701840188101561442e578586fd5b855b8581101561445557815161444381614ee2565b84529284019290840190600101614430565b5090979650505050505050565b6000601f8381840112614473578182fd5b8251602061448361440d83614ec4565b82815281810190868301865b8581101561452857815189018a603f8201126144a9578889fd5b8581015167ffffffffffffffff8111156144bf57fe5b6144d0818a01601f19168801614ea0565b81815260408d818486010111156144e5578b8cfd5b8b5b83811015614502578481018201518382018b015289016144e7565b83811115614512578c8a85850101525b505086525050928401929084019060010161448f565b509098975050505050505050565b600082601f830112614546578081fd5b8151602061455661440d83614ec4565b8281528181019085830160c080860288018501891015614574578687fd5b865b868110156146065781838b03121561458c578788fd5b6040805183810181811067ffffffffffffffff821117156145a957fe5b825284516145b681614f08565b815284880151888201528185015191810191909152606080850151908201526080808501519082015260a0906145ed828601614667565b9181019190915285529385019391810191600101614576565b509198975050505050505050565b805161048a81614efa565b80516001600160701b03198116811461048a57600080fd5b80516001600160f81b03198116811461048a57600080fd5b80516001600160d01b03198116811461048a57600080fd5b80516004811061048a57600080fd5b600060c08284031215614687578081fd5b6040516080810181811067ffffffffffffffff821117156146a457fe5b806040525080915082516146b781614f08565b8152602083810151908201526146d08460408501614818565b604082015260a083015160608201525092915050565b600060a082840312156146f7578081fd5b60405160a0810181811067ffffffffffffffff8211171561471457fe5b806040525080915082518152602083015160208201526040830151604082015260608301516060820152608083015160808201525092915050565b60006103408284031215614761578081fd5b61016061476d81614ea0565b9150614778836143e2565b8252602083015160208301526040830151604083015260608301516060830152608083015160808301526147ae60a0840161464f565b60a08301526147c08460c085016146e6565b60c08301526147d1848285016146e6565b60e0830152506147e5836102008401614818565b6101008201526147f9836102608401614676565b61012082015261480c6103208301614614565b61014082015292915050565b600060608284031215614829578081fd5b6040516060810181811067ffffffffffffffff8211171561484657fe5b80604052508091508251815260208301516020820152604083015160408201525092915050565b80356001600160801b038116811461048a57600080fd5b805161048a81614f08565b805160ff8116811461048a57600080fd5b80356001600160601b038116811461048a57600080fd5b600080600080600060a086880312156148ce578081fd5b85356148d981614ee2565b945060208601356148e981614f08565b935060408601356148f981614f08565b92506149076060870161486d565b9150614915608087016148a0565b90509295509295909350565b600080600080600080600060e0888a03121561493b578485fd5b873561494681614ee2565b9650602088013561495681614f08565b9550604088013561496681614f08565b94506149746060890161486d565b9350614982608089016148a0565b925060a088013561499281614efa565b915060c08801356149a281614efa565b8091505092959891949750929550565b6000806000606084860312156149c6578081fd5b83356149d181614ee2565b925060208401356149e181614f08565b91506149ef604085016148a0565b90509250925092565b60006020808385031215614a0a578182fd5b825167ffffffffffffffff80821115614a21578384fd5b818501915085601f830112614a34578384fd5b8151614a4261440d82614ec4565b81815284810190848601875b84811015614af757815187016080818d03601f19011215614a6d57898afd5b60408051608081018181108a82111715614a8357fe5b8252828b015189811115614a95578c8dfd5b614aa38f8d838701016143ed565b8252508183015189811115614ab6578c8dfd5b614ac48f8d83870101614462565b8c83015250606083015182820152614ade608084016143e2565b6060820152865250509287019290870190600101614a4e565b50909998505050505050505050565b6000806000838503610420811215614b1c578182fd5b60c0811215614b29578182fd5b5060405160c0810167ffffffffffffffff8282108183111715614b4857fe5b816040528651915064ffffffffff82168214614b62578384fd5b818352614b7160208801614637565b6020840152614b826040880161488f565b6040840152614b9360608801614884565b6060840152614ba46080880161461f565b6080840152614bb560a08801614614565b60a0840152829550614bca8860c0890161474f565b9450610400870151925080831115614be0578384fd5b5050614bee86828701614536565b9150509250925092565b600060208284031215614c09578081fd5b5051919050565b60008060408385031215614c22578182fd5b505080516020909101519092909150565b6001600160a01b0391909116815260200190565b6001600160a01b0392831681529116602082015260400190565b6001600160a01b039384168152919092166020820152604081019190915260600190565b6001600160a01b03929092168252602082015260400190565b6001600160a01b0393909316835261ffff918216602084015216604082015260600190565b6001600160a01b0395909516855261ffff93909316602085015260408401919091526060830152608082015260a00190565b6001600160a01b0394909416845260208401929092526040830152606082015260800190565b918252602082015260400190565b9283526020830191909152604082015260600190565b6020808252600d908201526c139bc81b1bd8d85b081919589d609a1b604082015260600190565b6020808252600b908201526a4554482042616c616e636560a81b604082015260600190565b6020808252600f908201526e4e6f205072696d6520426f72726f7760881b604082015260600190565b60208082526007908201526609cde40c6c2e6d60cb1b604082015260600190565b6020808252600d908201526c139bc818dbdb1b185d195c985b609a1b604082015260600190565b6020808252601c908201527f446570726563617465643a2052656465656d20746f2063546f6b656e00000000604082015260600190565b6020808252600a90820152692732b390372a37b5b2b760b11b604082015260600190565b61ffff929092168252602082015260400190565b61ffff958616815293909416602084015260408301919091526060820152608081019190915260a00190565b90815260200190565b60405181810167ffffffffffffffff81118282101715614ebc57fe5b604052919050565b600067ffffffffffffffff821115614ed857fe5b5060209081020190565b6001600160a01b0381168114614ef757600080fd5b50565b8015158114614ef757600080fd5b61ffff81168114614ef757600080fdfea264697066735822122069f7a5ff4030ca004ad979d12ea679e4f77b26871c6646f0eb4e390a50af792f64736f6c63430007060033","bytecodeSha1":"fc4a05ce5d719a8959dbb8f25549f7fc0058f352","compiler":{"evm_version":"istanbul","optimizer":{"enabled":true,"runs":200},"version":"0.7.6+commit.7338295f"},"contractName":"LiquidateCurrencyAction","deployedBytecode":"60806040526004361061007b5760003560e01c80638da5cb5b1161004e5780638da5cb5b146101035780639a600eeb14610118578063c4c96dae14610138578063e3e7cb4f1461015b5761007b565b806324a3d622146100805780632d10e6eb146100ab5780636633af39146100cc57806382463367146100ee575b600080fd5b34801561008c57600080fd5b5061009561017b565b6040516100a29190614c33565b60405180910390f35b6100be6100b93660046149b2565b61018a565b6040516100a2929190614d1b565b6100df6100da366004614921565b610264565b6040516100a293929190614d29565b3480156100fa57600080fd5b5061009561031a565b34801561010f57600080fd5b50610095610329565b34801561012457600080fd5b506100df6101333660046148b7565b610340565b34801561014457600080fd5b5061014d6103a4565b6040516100a2929190614c47565b34801561016757600080fd5b506100be6101763660046149b2565b6103d2565b6002546001600160a01b031681565b6000806002600a54141561019d57600080fd5b6002600a55600080806101b288888884610420565b92509250925060006101d3338a8a876101ce8860a00151610479565b61048f565b90506101e0838a8461058e565b336001600160a01b0316896001600160a01b03167f4596c3b6545e97eb42b719442dd0afa8eb7680f3ff72c762763d4b292ee26ea78a87604051610225929190614e57565b60405180910390a361023781336105b2565b610241828a6105b2565b8361024f8460a00151610479565b6001600a55909a909950975050505050505050565b60008060006002600a54141561027957600080fd5b6002600a55600080806102908d8d8d8d8d866106cf565b92509250925060006102a78e8e8e87878e8e61072a565b90506102b58e8e8487610776565b6102c0838f846107a3565b6102cc8e8e86866107c0565b6102d6828f6105b2565b6102e081336105b2565b836102ee8460600151610479565b6102fb8560a00151610479565b965096509650505050506001600a819055509750975097945050505050565b6001546001600160a01b031681565b60005464010000000090046001600160a01b031681565b60008060006002600a54141561035557600080fd5b6002600a5560008061036c8a8a8a8a8a60016106cf565b50915091508161037f8260600151610479565b61038c8360a00151610479565b6001600a55919c909b50909950975050505050505050565b73__$841fddfe32830bb6dbc3a02d7f16c53722$__73__$b21a4dc043b77aa57922ad9143a3cb040e$__9091565b6000806002600a5414156103e557600080fd5b6002600a556000806103fa8787876001610420565b50915091508161040d8260a00151610479565b6001600a55909890975095505050505050565b600061042a614118565b610432614174565b61043a6141a9565b61044688886000610835565b50909250905061045883898985610991565b84151561014082015261046c8684836109ac565b9350509450945094915050565b600061048760001983610af2565b90505b919050565b610497614174565b60006104a68561ffff16610b46565b905060006104b388610b59565b90506104bd614118565b6104c9818a8985610991565b600086136104d657600080fd5b8260200151156105385785816020015112158015610500575060208201516001600160f81b031916155b6105255760405162461bcd60e51b815260040161051c90614db4565b60405180910390fd5b61052e86610479565b606082015261054d565b61054b8988888461012001516000610c07565b505b61055989898989610c7d565b600085131561056e5761056e888a8988610d23565b60a08101859052610580818a8461058e565b509150505b95945050505050565b60808301511561059d57600080fd5b6105ac83838360006001610e33565b50505050565b60006105bc610fe9565b6001600160a01b03831660008181526020838152604080832088518154938a01518a84015160608c015160808d015160a08e015164ffffffffff1990981664ffffffffff9095169490941765ff00000000001916600160281b60f89490941c939093029290921766ff0000000000001916600160301b60ff909216919091021768ffff000000000000001916600160381b61ffff90921691909102177affffffffffffffffffffffffffffffffffff0000000000000000001916600160481b60709290921c919091021760ff60d81b1916600160d81b93151593909302929092179091555192935090917f6bd4b121bca854a191536a2ca891155c42ee2fb23f307fb34e8bc65cfcb5412e9190a2505050565b60006106d9614118565b6106e1614174565b6106e96141a9565b6106f48a8a8a610835565b509092509050610706838b8a85610991565b84151561014082015261071b87878584610ff6565b93505096509650969350505050565b610732614174565b61074033898988600061048f565b905061076a33828a896107568960600151610479565b6107638a60a00151610479565b898961110b565b50979650505050505050565b61077e614118565b61078a81868686610991565b6060810182905261079c81868561058e565b5050505050565b6080830151156107b257600080fd5b6105ac838383600080610e33565b336001600160a01b0316846001600160a01b03167f88fff2f00941b1272999212de454ee8d15f54d132723b35e3423ef742109861c858460000151866108098760600151610479565b6108168860a00151610479565b604051610827959493929190614e6b565b60405180910390a350505050565b61083d614174565b6108456141a9565b61084d61422e565b336001600160a01b038716141561086357600080fd5b61ffff851661087157600080fd5b8461ffff168461ffff16141561088657600080fd5b600080600073__$841fddfe32830bb6dbc3a02d7f16c53722$__63451d958f8a8a8a6040518463ffffffff1660e01b81526004016108c693929190614c9e565b60006040518083038186803b1580156108de57600080fd5b505af41580156108f2573d6000803e3d6000fd5b505050506040513d6000823e601f3d908101601f1916820160405261091a9190810190614b06565b9194509250905061092b838a6105b2565b60408051608081018252828152815160008082526020828101909452928201908361096c565b610959614256565b8152602001906001900390816109515790505b5081526000602082015292516040909301929092525091989097509095509350505050565b61099a826111a7565b6101208501526105ac848484846111b9565b60008160400151600014156109c057600080fd5b60006109e86109dc846040015185602001518660c00151611261565b610100850151906112a7565b9050600083608001511315610aea5760a0830151600090600381901a90821a11610a1157600080fd5b60a08401516080850151600382901a60009290921a9190910360ff1690610a6590610a3c9083610af2565b60a08701516040890151610a5f9160031a90610a59908890610af2565b90610af2565b906112d0565b915050610a80818660400151886001600160601b0316611301565b9050610a8b81610479565b60a0868101919091526040860151908501516080860151600092610ac4929091610a5f91600381901a918391610a59908990891a610af2565b6060870151909150610ad6908261134b565b6060870152610ae5848261134b565b935050505b509392505050565b818102600019831415610b2257811580610b14575082828281610b1157fe5b05145b610b1d57600080fd5b610b40565b821580610b37575081838281610b3457fe5b05145b610b4057600080fd5b92915050565b610b4e614295565b610487826001611361565b610b61614174565b6000610b6b610fe9565b6001600160a01b03841660009081526020918252604090819020815160c081018352905464ffffffffff811682526001600160f81b0319600160281b820460f81b169382019390935260ff600160301b840481169282019290925261ffff600160381b84041660608201526001600160701b0319600160481b840460701b166080820152600160d81b90920416151560a0820152915050919050565b600083610c1657506000610585565b60008413610c2357600080fd5b6000610c328661ffff16610b46565b90506000610c4982610c4487896113fb565b611427565b90506000610c5a8989848989611463565b90945090508681036000811215610c7057600080fd5b5050505095945050505050565b6000610c87611525565b61ffff8416600090815260209190915260408120546001600160a01b03169150821215610cb2579293925b806001600160a01b03166323de66518686610ccc86611532565b6040518463ffffffff1660e01b8152600401610cea93929190614c61565b600060405180830381600087803b158015610d0457600080fd5b505af1158015610d18573d6000803e3d6000fd5b505050505050505050565b6000610d2d611553565b61ffff8416600090815260209190915260408120546001600160a01b03169150821215610d58579293925b6000610d6383611532565b9050610d6e84611560565b15610dc8576001600160a01b03808616908716337fc3d58168c5ae7397731d063d5bbf3d657854427343f4c083240f7aacaa2d0f62610dac8861157d565b85604051610dbb929190614d1b565b60405180910390a4610e2b565b6040516323de665160e01b81526001600160a01b038316906323de665190610df890899089908690600401614c61565b600060405180830381600087803b158015610e1257600080fd5b505af1158015610e26573d6000803e3d6000fd5b505050505b505050505050565b600080610e5086886000015189608001518a610120015188611593565b91506000610e6f8860800151896060015161134b90919063ffffffff16565b9050838015610e7e5750600081125b8015610e9957506020880151600090610e97908361134b565b125b15610ebf578560a00151610ebf5760405162461bcd60e51b815260040161051c90614d8b565b8015610ede576020880151610ed4908261134b565b6020890152600191505b60a0880151151580610ef3575060c088015115155b15610f5c576000610f238960c00151610f1d8b60a001518c6040015161134b90919063ffffffff16565b9061134b565b90506000811215610f465760405162461bcd60e51b815260040161051c90614e33565b610f51898983611636565b506040890152600191505b8115610f8b57610f8b8789600001518a602001518b604001518c60e001518d61010001518e610120015161172d565b87516020890151610fb89161ffff1690151580610fab575060408a015115155b889190600160fe1b611868565b600088602001511215610fde57602086018051600160f91b176001600160f81b03191690525b505095945050505050565b600080610b406001611a6e565b60008082604001511261101b5760405162461bcd60e51b815260040161051c90614d3f565b600082606001511361103f5760405162461bcd60e51b815260040161051c90614dd5565b60008061105584886001600160801b0316611a87565b9150915060008290506000866020015113156110b1578086602001511261108c5761107f81610479565b60608701525060006110b1565b6110998660200151610479565b606087015260208601516110ae908290611b3a565b90505b6000811380156110c5575060008560800151135b156110e2576110df8686838a6001600160601b0316611b56565b90505b60008113156111005760608601516110fa9082611c14565b60608701525b509695505050505050565b611113614174565b816111305760405162461bcd60e51b815260040161051c90614dfc565b611138614118565b611144818b898c610991565b60608101869052851561115d5761115d888b8989610c7d565b841561116f5761116f888b8988610d23565b83156111845761117e86610479565b60808201525b60a08101859052611198818b8b6000611c2a565b50979998505050505050505050565b6111af6142c4565b6104878242611c3a565b8161ffff1660001080156111d35750613fff61ffff831611155b6111dc57600080fd5b61ffff82168085526111ef908290611cfb565b1561121e576112048383866101200151611d85565b61010088015260e08701526040860152602085015261123c565b6000602085018190526040850181905260e085018190526101008501525b50506000606083018190526080830181905260a0830181905260c09092019190915250565b6000806000851361127657826040015161127c565b82606001515b90506000811361128b57600080fd5b61058581610a5f6064610a596112a089610479565b8890611e3f565b81516000906112c990610a5f846ec097ce7bc90715b34b9f1000000000610af2565b9392505050565b6000816000191480156112e65750600160ff1b83145b156112f057600080fd5b8183816112f957fe5b059392505050565b6000806113146064610a5f866028610af2565b905084848113156113225750835b8186121561132d5750805b60008413801561133c57508381135b15610585575091949350505050565b81810182811215600083121514610b4057600080fd5b611369614295565b6000611373611e69565b6000858152602082815260408083208715158452825291829020825160a08101845281546001600160a01b038116825260ff600160a01b82048116151594830194909452600160b01b81048416600a0a9482019490945293945092916060830191600160a81b9091041660058111156113e857fe5b8152600060209091015295945050505050565b60006112c96ec097ce7bc90715b34b9f1000000000610a5f856000015185610af290919063ffffffff16565b60006305f5e1008360400151121561144f576114486001610f1d8585611e76565b9050610b40565b6112c98361145e84600161134b565b611e76565b600080600061147186611eae565b90508061148557600080925092505061151b565b60006114948861ffff16610b46565b90506003816060015160058111156114a857fe5b14156114ef57348210156114c8576114c38983340387611ec1565b6114e7565b3482146114e75760405162461bcd60e51b815260040161051c90614d66565b869350611509565b61150661150182600001518b85611f8e565b612116565b93505b611516898986848a61212c565b925050505b9550959350505050565b600080610b406021611a6e565b60008082121561154c5761154582610479565b905061048a565b508061048a565b600080610b406003611a6e565b6000466001811480156112c957505050600461ffff909116111590565b600c60309190911b67ffff000000000000161790565b6000836115a257506000610585565b600084126115af57600080fd5b60006115be8661ffff16610b46565b90506115ce8161145e86886113fb565b915060006115db83610479565b90506115e8878383612173565b6003826060015160058111156115fa57fe5b14156116105761160b888286611ec1565b61161d565b815161161d90898361226b565b61162a888885858961212c565b50505095945050505050565b82516000904290829061164c9061ffff166122e2565b9050600061165982612308565b50509050600061166e838960c0015186612364565b905061167c88848389612447565b9450600061168984612574565b90506001600160a01b0381161561171157806001600160a01b0316633f3ef50d898b600001516116bc8d60400151611eae565b8b886040518663ffffffff1660e01b81526004016116de959493929190614cc3565b600060405180830381600087803b1580156116f857600080fd5b505af115801561170c573d6000803e3d6000fd5b505050505b85156117215761172188876125e6565b50505050509392505050565b6000611737612609565b6001600160a01b03891660009081526020828152604080832061ffff8c16845290915290209091508461179f5766ffffffffffffff84111561177857600080fd5b805466ffffffffffffff60701b1916600160701b66ffffffffffffff8616021781556117b9565b8054600160501b900463ffffffff1685146117b957600080fd5b6117c285612616565b815463ffffffff91909116600160501b0263ffffffff60501b199091161781556117f36117ee87611eae565b612629565b815469ffffffffffffffffffff19166001600160501b039190911617808255611839906118349085908c908c90600160a81b9004600a90810b900b8c61263f565b612662565b8154600a9190910b6001600160581b0316600160a81b026001600160a81b039091161790555050505050505050565b82600010801561187a5750613fff8311155b61188357600080fd5b818015611897575082846060015161ffff16145b156118a1576105ac565b6080840151600090815b6001600160701b0319821615611a235760f082901c613fff1686811480156118d05750855b1561190857506080870180516001600160f01b0319861660109093029290921c919091176001600160701b0319169052506105ac9050565b8681148015611915575085155b15611971576001600160f01b03198516199290921691600360fe1b831661194f576010836dffffffffffffffffffffffffffff1916901b92505b506001600160701b031991821660109091021c919091171660808501526105ac565b868111801561197d5750855b156119d7576080888101516001600160f01b031960f08a901b88178116601086021c9690961795911b16156119b157600080fd5b506001600160701b03199182166001919091016010021c919091171660808501526105ac565b86811180156119e4575085155b156119f257505050506105ac565b506001600160f01b0319821660108281029190911c93909317929190911b6001600160801b031916906001016118ab565b84611a30575050506105ac565b60098110611a3d57600080fd5b6001600160f01b031960f087901b85171660109091021c919091176001600160701b03191660808601525050505050565b6000620f4240826026811115611a8057fe5b0192915050565b600080600080611a9686612694565b915091506000611ace8760e0015160600151611ac884610a5f60648c60c0015160400151610af290919063ffffffff16565b90611c14565b905060008113611add57600080fd5b611aec81610a5f856064610af2565b945050611afe84876060015187611301565b93506000611b1e85886101200151604001516113fb90919063ffffffff16565b9050611b2c878383886126e8565b909890975095505050505050565b6000611b468383611c14565b90506000811215610b4057600080fd5b60a0830151608084015160009180831a9160039190911a908390611b9990611b7e9085610af2565b610a5f84610a598c604001518b610af290919063ffffffff16565b9050600085138015611baa57508481135b15611bb25750835b8760400151811315611bc5575060408701515b611bce81610479565b8860a0018181525050611c08611c018960400151610a5f85610a5f88610a598e6080015189610af290919063ffffffff16565b8790611b3a565b98975050505050505050565b80820382811315600083121514610b4057600080fd5b6000610585858585856001610e33565b611c426142c4565b6000611c4d84612775565b90508281600001511015611c8c57600080611c678661283d565b9050611c75868483886128ba565b9093509150611c8586838561295e565b5050611c99565b80518314611c9957600080fd5b6040518060600160405280611cc26115018460a001518560c00151612b9290919063ffffffff16565b8152602001611ce56115018460a001518560e00151612b9290919063ffffffff16565b8152602001826060015181525091505092915050565b60008115801590611d0e5750613fff8211155b611d1757600080fd5b6080830151606084015161ffff16831415611d36576001915050610b40565b6001600160701b0319811615611d7b5760f081901c613fff1683811415611d685750600160fe1b908116149050610b40565b5060101b6001600160801b031916611d36565b5060009392505050565b6000806000806000611d95612609565b6001600160a01b03891660009081526020828152604080832061ffff8c168452909152902080546001600160501b0381169650600160501b900463ffffffff1694509091508315611e02578054611dfb90600160701b900466ffffffffffffff16612bb9565b9250611e17565b8054600160701b900466ffffffffffffff1692505b8054611e32908890600160a81b9004600a90810b900b612bc7565b9550505093509350935093565b600080611e618460200151610a5f866000015186610af290919063ffffffff16565b949350505050565b600080610b406007611a6e565b60006305f5e10083604001511415611e8f575080610b40565b6112c96305f5e100610a5f856040015185610af290919063ffffffff16565b600080821215611ebd57600080fd5b5090565b8015611f53577382af49447d8a07e3bd95bd0d56f35241523fbab16001600160a01b031663d0e30db0836040518263ffffffff1660e01b81526004016000604051808303818588803b158015611f1657600080fd5b505af1158015611f2a573d6000803e3d6000fd5b5050505050611f4e7382af49447d8a07e3bd95bd0d56f35241523fbab1848461226b565b611f89565b6040516001600160a01b0384169083156108fc029084906000818181858888f193505050501580156105ac573d6000803e3d6000fd5b505050565b600080846001600160a01b03166370a08231306040518263ffffffff1660e01b815260040180826001600160a01b0316815260200191505060206040518083038186803b158015611fde57600080fd5b505afa158015611ff2573d6000803e3d6000fd5b505050506040513d602081101561200857600080fd5b5051604080516323b872dd60e01b81526001600160a01b038781166004830152306024830152604482018790529151929350908716916323b872dd9160648082019260009290919082900301818387803b15801561206557600080fd5b505af1158015612079573d6000803e3d6000fd5b50505050612085612bee565b6000856001600160a01b03166370a08231306040518263ffffffff1660e01b815260040180826001600160a01b0316815260200191505060206040518083038186803b1580156120d457600080fd5b505afa1580156120e8573d6000803e3d6000fd5b505050506040513d60208110156120fe57600080fd5b5051905061210c8183612c5b565b9695505050505050565b60006001600160ff1b03821115611ebd57600080fd5b6000806121398486612c70565b905061214583826112a7565b9150612152878784612ca0565b61215d868383612d20565b83516121699086612e24565b5095945050505050565b600061217d612e7e565b83516001600160a01b03166000908152602082905260409020549091508083116121a8575050611f89565b60006121b386612e8b565b90506000816001600160a01b031663b5e4da238487036040518263ffffffff1660e01b81526004016121e59190614e97565b60006040518083038186803b1580156121fd57600080fd5b505afa158015612211573d6000803e3d6000fd5b505050506040513d6000823e601f3d908101601f1916820160405261223991908101906149f8565b905060006122478783612ebb565b9150612255905084826130d2565b86111561226157600080fd5b5050505050505050565b826001600160a01b031663a9059cbb83836040518363ffffffff1660e01b815260040180836001600160a01b0316815260200182815260200192505050600060405180830381600087803b1580156122c257600080fd5b505af11580156122d6573d6000803e3d6000fd5b50505050611f89612bee565b6000806122ed611553565b6000938452602052505060409020546001600160a01b031690565b6000806000806123166130e4565b6001600160a01b0395909516600090815260209590955250506040909220546001600160601b03811693600160601b82046001600160801b03169350600160e01b90910463ffffffff169150565b600080600061237386856130f1565b509150915060006123826130e4565b6001600160a01b03881660009081526020829052604081209192506123a7858961134b565b9050806000131580156123c057506001600160601b0381105b6123c957600080fd5b81546bffffffffffffffffffffffff19166001600160601b038216176fffffffffffffffffffffffffffffffff60601b1916600160601b6001600160801b0386160217825563ffffffff871061241e57600080fd5b50805463ffffffff8716600160e01b026001600160e01b03909116179055509150509392505050565b60e0840151600090156125085773__$b21a4dc043b77aa57922ad9143a3cb040e$__63e0c01a728561247c8860400151611eae565b8860e001518961010001516040518563ffffffff1660e01b81526004016124a69493929190614cf5565b60206040518083038186803b1580156124be57600080fd5b505af41580156124d2573d6000803e3d6000fd5b505050506040513d601f19601f820116820180604052508101906124f69190614bf8565b600060e0870181905261010087015290505b61254a61254386610100015161253d670de0b6b3a7640000612537886125318c60400151611eae565b90612b92565b90613187565b90612c5b565b82906130d2565b9050612562670de0b6b3a76400006125378486612b92565b85610100018181525050949350505050565b60008061257f6131a6565b6001600160a01b0384166000908152602082905260409020805491925090600160f81b900460ff16156125db576125b46131b3565b6001600160a01b03808616600090815260209290925260409091205416925061048a915050565b60009250505061048a565b61260573019be259bc299f3f653688c7655c87f998bc7bc1838361226b565b5050565b600080610b406006611a6e565b600063ffffffff821115611ebd57600080fd5b60006001600160501b03821115611ebd57600080fd5b600061264b86836131c0565b905061058586868661265d87866131f9565b613280565b60006a7fffffffffffffffffffff19821280159061268b57506a7fffffffffffffffffffff8213155b611ebd57600080fd5b6000806126c56126b56126aa8560200151610479565b60e086015190611e3f565b61012085015160400151906112a7565b91506126e18360e00151608001518460c00151608001516132ad565b9050915091565b600080600061271b86610a5f6127068a60c001518b60e001516132c3565b60c08b015151610a5f90610a598b6064610af2565b90506000612737828961010001516112a790919063ffffffff16565b905060006127488960400151610479565b9050808213156127665761276082610a5f8884610af2565b95508091505b50939793965092945050505050565b61277d6142e5565b60006127876132e8565b61ffff93841660009081526020918252604090819020805464ffffffffff81168652600160281b81046001600160581b03908116948701949094526001820154841692860192909252600160d81b820463ffffffff166060860152600160801b9091049091166080840152600201546001600160501b0380821660a0850152600160501b8204811660c0850152600160a01b82041660e0840152600160f01b900460ff1661012c02909216610100820152919050565b60008061284983612e8b565b6001600160a01b031663ef81f2166040518163ffffffff1660e01b81526004016040805180830381600087803b15801561288257600080fd5b505af1158015612896573d6000803e3d6000fd5b505050506040513d601f19601f82011682018060405250810190611e619190614c10565b6128c26142e5565b60008060006128d28886896132f5565b60c08b019290925260e08a0192909252602089015191935091506128f690836130d2565b60208801526080870151600090156129245760808801516129219061291b8982612c5b565b90613400565b90505b612944612939670de0b6b3a7640000836130d2565b60a08a01519061341d565b60a089015250506080860194909452505082529092909150565b60006129686132e8565b60008561ffff168152602001908152602001600020905061298c826000015161343a565b815464ffffffffff191664ffffffffff9190911617815560a08201516129b190612629565b60028201805469ffffffffffffffffffff19166001600160501b039290921691909117905560c08201516129e490612629565b81600201600a6101000a8154816001600160501b0302191690836001600160501b03160217905550612a198260e00151612629565b8160020160146101000a8154816001600160501b0302191690836001600160501b03160217905550612a4e826020015161344e565b81546001600160581b0391909116600160281b026fffffffffffffffffffffff0000000000199091161781556040820151612a889061344e565b6001820180546affffffffffffffffffffff19166001600160581b03929092169190911790556080820151612abc9061344e565b81546001600160581b0391909116600160801b026affffffffffffffffffffff60801b199091161781556060820151612af490612616565b815463ffffffff91909116600160d81b0263ffffffff60d81b199091161781558215612b40576000612b2584612116565b9050612b318582613464565b612b3e610fee8683612ca0565b505b8361ffff167fef25641e225e493886510ca1ad6584fa7b442b9fea820a29d1de3ce27d270fd28360a001518460c001518560e00151604051612b8493929190614d29565b60405180910390a250505050565b600082612ba157506000610b40565b82820282848281612bae57fe5b04146112c957600080fd5b600881901c60ff9091161b90565b6000808212612bd7575080610b40565b825160208401516114489190610a5f908590610af2565b6000612bf8614331565b3d8015612c0c5760208114612c1557600080fd5b60019250612c20565b60206000833e815192505b5081612605576040805162461bcd60e51b8152602060048201526005602482015264045524332360dc1b604482015290519081900360640190fd5b600082821115612c6a57600080fd5b50900390565b60006305f5e10083604001511415612c89575080610b40565b60408301516112c990610a5f846305f5e100610af2565b6000612caa611525565b61ffff8416600090815260209190915260409081902054905163ad1c095d60e01b81526001600160a01b039091169150819063ad1c095d90612cf29087908690600401614c85565b600060405180830381600087803b158015612d0c57600080fd5b505af1158015612261573d6000803e3d6000fd5b6000612d2a6132e8565b61ffff8516600090815260209190915260409020805490915064ffffffffff164214612d5557600080fd5b8054600090612d7490600160281b90046001600160581b03168561134b565b8254909150600090612d9690600160801b90046001600160581b03168561134b565b905080624c4b401315612da857600080fd5b612db9612db482611eae565b61344e565b83546001600160581b0391909116600160801b026affffffffffffffffffffff60801b19909116178355612def612db483611eae565b83546001600160581b0391909116600160281b026fffffffffffffffffffffff000000000019909116178355610e2b8361349b565b6000612e2e612e7e565b6001600160a01b038416600090815260208290526040902054909150612e5c612e57828561134b565b611eae565b6001600160a01b03909416600090815260209290925250604090209190915550565b600080610b406026611a6e565b600080612e96613560565b61ffff939093166000908152602093909352505060409020546001600160a01b031690565b60008060005b83518110156130ca576000848281518110612ed857fe5b60200260200101519050600081606001516001600160a01b03166370a08231306040518263ffffffff1660e01b8152600401612f149190614c33565b60206040518083038186803b158015612f2c57600080fd5b505afa158015612f40573d6000803e3d6000fd5b505050506040513d601f19601f82011682018060405250810190612f649190614bf8565b90506000612f72883061356d565b905060005b835151811015612fce57612fbd84600001518281518110612f9457fe5b6020026020010151600086602001518481518110612fae57fe5b60200260200101516001613617565b612fc657600196505b600101612f77565b506000612fdb893061356d565b90506000612fe98284612c5b565b90508085604001511115612ffc57600080fd5b60608501516040516370a0823160e01b81526000916001600160a01b0316906370a082319061302f903090600401614c33565b60206040518083038186803b15801561304757600080fd5b505afa15801561305b573d6000803e3d6000fd5b505050506040513d601f19601f8201168201806040525081019061307f9190614bf8565b90508481111561308e57600080fd5b61309d86606001518683613885565b6130a788836130d2565b97506130b88b600001518585613885565b505060019094019350612ec192505050565b509250929050565b6000828201838110156112c957600080fd5b600080610b406011611a6e565b60008060006130ff85612308565b9194509250905080841180156131155750600081115b80156131215750600083115b1561318057600061313186613902565b505050915050600061315c6131536305f5e10084612b9290919063ffffffff16565b8488038761396b565b905061316884826130d2565b93506001600160801b03841061317d57600080fd5b50505b9250925092565b600080821161319557600080fd5b81838161319e57fe5b049392505050565b600080610b406002611a6e565b600080610b406012611a6e565b6000808212156131f3576131ee6001611ac88560200151610a5f876000015187610af290919063ffffffff16565b6112c9565b50919050565b600081831480613216575060008312158015613216575060008212155b1561322357506000610b40565b600083131580156132345750816000125b15613240575081610b40565b600082131580156132515750826000125b1561325f5761144882610479565b60008313158015613271575060008213155b1561007b576114488383611c14565b80156105ac578351602085015160009161329f91610a5f908590610af2565b905061079c8484848461398d565b60008183136132bc57816112c9565b5090919050565b60006112c98260200151610a5f84600001518660200151610af290919063ffffffff16565b600080610b40601d611a6e565b6000806000806000806133088988613ad3565b8951909550919350915060009061332f90613324908b90612c5b565b633b9aca0090612b92565b905061336961335e6301da9c006133468585612b92565b8161334d57fe5b670de0b6b3a76400009190046130d2565b60e08a01519061341d565b965061338b6133806301da9c006133468785612b92565b60c08a01519061341d565b9550818314156133a25750600093506133f7915050565b60006133c46133b96301da9c006133468786612b92565b60e08b01519061341d565b905060006133d28983612c5b565b90506133ef88612537838d60400151612b9290919063ffffffff16565b965050505050505b93509350935093565b60006112c961341784670de0b6b3a7640000612b92565b83613187565b60006112c961342c8484612b92565b670de0b6b3a7640000613187565b600064ffffffffff821115611ebd57600080fd5b60006001600160581b03821115611ebd57600080fd5b600081121561347257600080fd5b6000613480610fee84613b6d565b905061348c818361134b565b9050611f89610fee8483613bc6565b805460028201546000916134d791600160281b9091046001600160581b031690610a59906001600160501b03600160501b820481169116610af2565b60018301546002840154919250600091613511916001600160581b031690610a59906001600160501b03600160a01b820481169116610af2565b83549091506000906135489060016001600160581b03600160801b909204821601166ec097ce7bc90715b34b9f1000000000610af2565b9050806135558484611c14565b13156105ac57600080fd5b600080610b40601f611a6e565b600060038360600151600581111561358157fe5b141561359857506001600160a01b03811631610b40565b82516040516370a0823160e01b81526001600160a01b03909116906370a08231906135c7908590600401614c33565b60206040518083038186803b1580156135df57600080fd5b505afa1580156135f3573d6000803e3d6000fd5b505050506040513d601f19601f820116820180604052508101906114489190614bf8565b6000806000866001600160a01b031686866040518082805190602001908083835b602083106136575780518252601f199092019160209182019101613638565b6001836020036101000a03801982511681845116808217855250505050505090500191505060006040518083038185875af1925050503d80600081146136b9576040519150601f19603f3d011682016040523d82523d6000602084013e6136be565b606091505b50915091508361376157816136d282613c3a565b9061375b5760405162461bcd60e51b81526004018080602001828103825283818151815260200191508051906020019080838360005b83811015613720578181015183820152602001613708565b50505050905090810190601f16801561374d5780820380516001836020036101000a031916815260200191505b509250505060405180910390fd5b50612169565b866001600160a01b03167f3c7e398c5e91088cae639370e35b25ea669d81fbdf0def5388e73661bc34e08e878761379785613c3a565b604051808481526020018060200180602001838103835285818151815260200191508051906020019080838360005b838110156137de5781810151838201526020016137c6565b50505050905090810190601f16801561380b5780820380516001836020036101000a031916815260200191505b50838103825284518152845160209182019186019080838360005b8381101561383e578181015183820152602001613826565b50505050905090810190601f16801561386b5780820380516001836020036101000a031916815260200191505b509550505050505060405180910390a25095945050505050565b600061388f612e7e565b6001600160a01b038516600090815260208290526040902054909150838111156138b857600080fd5b60006138cf6138c686612116565b611ac886612116565b90506138de612e57838361134b565b6001600160a01b039096166000908152602093909352505060409020929092555050565b6000806000806000806139136131a6565b6001600160a01b039097166000908152602097909752505060409094205461ffff81169563ffffffff62010000830481169650600160301b830416945060ff600160501b8304169350600160581b90910460d01b9150565b6000611e61826125376301da9c00818861253189670de0b6b3a7640000612b92565b60006139976132e8565b61ffff8516600090815260209190915260409020805490915064ffffffffff1642146139c257600080fd5b8054600160f81b900460ff166139d757600080fd5b60018101546000906139f2906001600160581b03168561134b565b8254909150600090613a1490600160281b90046001600160581b03168561134b565b905081600919128015613a275750600082125b15613a3157600091505b80600919128015613a425750600081125b15613a4b575060005b613a57612db483611eae565b6001840180546affffffffffffffffffffff19166001600160581b0392909216919091179055613a89612db482611eae565b83546001600160581b0391909116600160281b026fffffffffffffffffffffff000000000019909116178355613ac187878688613d41565b613aca8361349b565b50505050505050565b600080600080600085602001511115613b2057613b1d613b048660c001518760200151612b9290919063ffffffff16565b60e08701516040880151613b1791612b92565b90613e1b565b90505b6000613b2b87613e2e565b9050613b378183613e61565b94508115613b4e57613b4b81866001613f1a565b93505b60208601511561317d57613b628583613f92565b925050509250925092565b600080613b78612609565b6001600160a01b03851660009081526020828152604080832061ffff8816845290915281208054600160a81b9004600a90810b900b9450919250831215613bbe57600080fd5b505092915050565b6000811215613bd457600080fd5b6000613bde612609565b6001600160a01b03851660009081526020828152604080832061ffff881684529091529020909150613c0f83612662565b8154600a9190910b6001600160581b0316600160a81b026001600160a81b0390911617905550505050565b6060604482511015613c70575060408051808201909152600d81526c14da5b195b9d0814995d995c9d609a1b602082015261048a565b6004820180519092602401906020811015613c8a57600080fd5b8101908080516040519392919084640100000000821115613caa57600080fd5b908301906020820185811115613cbf57600080fd5b8251640100000000811182820188101715613cd957600080fd5b82525081516020918201929091019080838360005b83811015613d06578181015183820152602001613cee565b50505050905090810190601f168015613d335780820380516001836020036101000a031916815260200191505b506040525050509050919050565b6000613d4b611525565b61ffff8516600090815260209190915260408120546001600160a01b03169150613d73613fab565b61ffff8616600090815260209190915260409081902054905163ad1c095d60e01b81526001600160a01b039091169150819063ad1c095d90613dbb9089908790600401614c85565b600060405180830381600087803b158015613dd557600080fd5b505af1158015613de9573d6000803e3d6000fd5b505060405163ad1c095d60e01b81526001600160a01b038516925063ad1c095d9150610df89089908890600401614c85565b60006112c961341784633b9aca00612b92565b613e3661434f565b6000613e40613fb8565b61ffff84166000908152602091909152604081205491506112c99082613fc5565b600080836080015111613e7357600080fd5b633b9aca00821115613e8457600080fd5b82518211613ea357825160408401516114489190612537908590612b92565b82602001518211613ee15760408301518351602085015160608601516114489392613edb928190039161253791880390859003612b92565b906130d2565b6112c98360600151613edb8560200151633b9aca0003612537876060015188608001510388602001518803612b9290919063ffffffff16565b600080613f3960646125378760e0015187612b9290919063ffffffff16565b90508460a00151811015613f4e575060a08401515b8460c00151811115613f61575060c08401515b8215613f7857613f7184826130d2565b9150610aea565b838111613f8757808403610585565b506000949350505050565b60006112c9613fa18484612b92565b633b9aca00613187565b600080610b406022611a6e565b600080610b40601b611a6e565b613fcd61434f565b6064633b9aca008360ff861660208110613fe357fe5b1a0281613fec57fe5b0481526064633b9aca008360ff86166001016020811061400857fe5b1a028161401157fe5b048160200181815250506140368260028560ff16016020811061403057fe5b1a6140e4565b60808201819052610100908360ff86166003016020811061405357fe5b1a028161405c57fe5b0460408201526080810151610100908360ff86166004016020811061407d57fe5b1a028161408657fe5b0460608201526207a1208260ff8516600501602081106140a257fe5b1a0260a0820152622625a08260ff8516600601602081106140bf57fe5b1a0260c08201528160ff8416600701602081106140d857fe5b1a60e082015292915050565b60008160ff166096106140ff5760ff8216622625a002610487565b5060951960ff919091160162e4e1c00263165a0bc00190565b604051806101400160405280600061ffff168152602001600081526020016000815260200160008152602001600081526020016000815260200160008152602001600081526020016000815260200161416f6142c4565b905290565b6040805160c081018252600080825260208201819052918101829052606081018290526080810182905260a081019190915290565b60405180610160016040528060006001600160a01b031681526020016000815260200160008152602001600081526020016000815260200160006001600160d01b03191681526020016141fa614394565b8152602001614207614394565b81526020016142146142c4565b81526020016142216143c3565b8152600060209091015290565b6040518060800160405280606081526020016060815260200160008152602001600081525090565b6040518060c00160405280600061ffff168152602001600081526020016000815260200160008152602001600081526020016000600381111561416f57fe5b6040805160a0810182526000808252602082018190529181018290529060608201908152602001600081525090565b60405180606001604052806000815260200160008152602001600081525090565b6040518061012001604052806000815260200160008152602001600081526020016000815260200160008152602001600081526020016000815260200160008152602001600081525090565b60405180602001604052806001906020820280368337509192915050565b60405180610100016040528060008152602001600081526020016000815260200160008152602001600081526020016000815260200160008152602001600081525090565b6040518060a0016040528060008152602001600081526020016000815260200160008152602001600081525090565b60408051608081018252600080825260208201529081016142216142c4565b805161048a81614ee2565b600082601f8301126143fd578081fd5b8151602061441261440d83614ec4565b614ea0565b828152818101908583018385028701840188101561442e578586fd5b855b8581101561445557815161444381614ee2565b84529284019290840190600101614430565b5090979650505050505050565b6000601f8381840112614473578182fd5b8251602061448361440d83614ec4565b82815281810190868301865b8581101561452857815189018a603f8201126144a9578889fd5b8581015167ffffffffffffffff8111156144bf57fe5b6144d0818a01601f19168801614ea0565b81815260408d818486010111156144e5578b8cfd5b8b5b83811015614502578481018201518382018b015289016144e7565b83811115614512578c8a85850101525b505086525050928401929084019060010161448f565b509098975050505050505050565b600082601f830112614546578081fd5b8151602061455661440d83614ec4565b8281528181019085830160c080860288018501891015614574578687fd5b865b868110156146065781838b03121561458c578788fd5b6040805183810181811067ffffffffffffffff821117156145a957fe5b825284516145b681614f08565b815284880151888201528185015191810191909152606080850151908201526080808501519082015260a0906145ed828601614667565b9181019190915285529385019391810191600101614576565b509198975050505050505050565b805161048a81614efa565b80516001600160701b03198116811461048a57600080fd5b80516001600160f81b03198116811461048a57600080fd5b80516001600160d01b03198116811461048a57600080fd5b80516004811061048a57600080fd5b600060c08284031215614687578081fd5b6040516080810181811067ffffffffffffffff821117156146a457fe5b806040525080915082516146b781614f08565b8152602083810151908201526146d08460408501614818565b604082015260a083015160608201525092915050565b600060a082840312156146f7578081fd5b60405160a0810181811067ffffffffffffffff8211171561471457fe5b806040525080915082518152602083015160208201526040830151604082015260608301516060820152608083015160808201525092915050565b60006103408284031215614761578081fd5b61016061476d81614ea0565b9150614778836143e2565b8252602083015160208301526040830151604083015260608301516060830152608083015160808301526147ae60a0840161464f565b60a08301526147c08460c085016146e6565b60c08301526147d1848285016146e6565b60e0830152506147e5836102008401614818565b6101008201526147f9836102608401614676565b61012082015261480c6103208301614614565b61014082015292915050565b600060608284031215614829578081fd5b6040516060810181811067ffffffffffffffff8211171561484657fe5b80604052508091508251815260208301516020820152604083015160408201525092915050565b80356001600160801b038116811461048a57600080fd5b805161048a81614f08565b805160ff8116811461048a57600080fd5b80356001600160601b038116811461048a57600080fd5b600080600080600060a086880312156148ce578081fd5b85356148d981614ee2565b945060208601356148e981614f08565b935060408601356148f981614f08565b92506149076060870161486d565b9150614915608087016148a0565b90509295509295909350565b600080600080600080600060e0888a03121561493b578485fd5b873561494681614ee2565b9650602088013561495681614f08565b9550604088013561496681614f08565b94506149746060890161486d565b9350614982608089016148a0565b925060a088013561499281614efa565b915060c08801356149a281614efa565b8091505092959891949750929550565b6000806000606084860312156149c6578081fd5b83356149d181614ee2565b925060208401356149e181614f08565b91506149ef604085016148a0565b90509250925092565b60006020808385031215614a0a578182fd5b825167ffffffffffffffff80821115614a21578384fd5b818501915085601f830112614a34578384fd5b8151614a4261440d82614ec4565b81815284810190848601875b84811015614af757815187016080818d03601f19011215614a6d57898afd5b60408051608081018181108a82111715614a8357fe5b8252828b015189811115614a95578c8dfd5b614aa38f8d838701016143ed565b8252508183015189811115614ab6578c8dfd5b614ac48f8d83870101614462565b8c83015250606083015182820152614ade608084016143e2565b6060820152865250509287019290870190600101614a4e565b50909998505050505050505050565b6000806000838503610420811215614b1c578182fd5b60c0811215614b29578182fd5b5060405160c0810167ffffffffffffffff8282108183111715614b4857fe5b816040528651915064ffffffffff82168214614b62578384fd5b818352614b7160208801614637565b6020840152614b826040880161488f565b6040840152614b9360608801614884565b6060840152614ba46080880161461f565b6080840152614bb560a08801614614565b60a0840152829550614bca8860c0890161474f565b9450610400870151925080831115614be0578384fd5b5050614bee86828701614536565b9150509250925092565b600060208284031215614c09578081fd5b5051919050565b60008060408385031215614c22578182fd5b505080516020909101519092909150565b6001600160a01b0391909116815260200190565b6001600160a01b0392831681529116602082015260400190565b6001600160a01b039384168152919092166020820152604081019190915260600190565b6001600160a01b03929092168252602082015260400190565b6001600160a01b0393909316835261ffff918216602084015216604082015260600190565b6001600160a01b0395909516855261ffff93909316602085015260408401919091526060830152608082015260a00190565b6001600160a01b0394909416845260208401929092526040830152606082015260800190565b918252602082015260400190565b9283526020830191909152604082015260600190565b6020808252600d908201526c139bc81b1bd8d85b081919589d609a1b604082015260600190565b6020808252600b908201526a4554482042616c616e636560a81b604082015260600190565b6020808252600f908201526e4e6f205072696d6520426f72726f7760881b604082015260600190565b60208082526007908201526609cde40c6c2e6d60cb1b604082015260600190565b6020808252600d908201526c139bc818dbdb1b185d195c985b609a1b604082015260600190565b6020808252601c908201527f446570726563617465643a2052656465656d20746f2063546f6b656e00000000604082015260600190565b6020808252600a90820152692732b390372a37b5b2b760b11b604082015260600190565b61ffff929092168252602082015260400190565b61ffff958616815293909416602084015260408301919091526060820152608081019190915260a00190565b90815260200190565b60405181810167ffffffffffffffff81118282101715614ebc57fe5b604052919050565b600067ffffffffffffffff821115614ed857fe5b5060209081020190565b6001600160a01b0381168114614ef757600080fd5b50565b8015158114614ef757600080fd5b61ffff81168114614ef757600080fdfea264697066735822122069f7a5ff4030ca004ad979d12ea679e4f77b26871c6646f0eb4e390a50af792f64736f6c63430007060033","language":"Solidity","natspec":{"kind":"dev","methods":{"calculateCollateralCurrencyLiquidation(address,uint16,uint16,uint128,uint96)":{"notice":"Calculates local and collateral currency transfers for a liquidation. This is a stateful method because it may settle the liquidated account if required. However, it can be called using staticcall off chain to determine the net currency amounts required before liquidating.","params":{"collateralCurrency":"id of the collateral currency","liquidateAccount":"account to liquidate","localCurrency":"id of the local currency","maxCollateralLiquidation":"maximum amount of collateral (inclusive of cash and nTokens) to liquidate","maxNTokenLiquidation":"maximum amount of nTokens to purchase (if any)"},"returns":{"_0":"local currency required from liquidator (negative)","_1":"collateral asset cash paid to liquidator (positive)","_2":"collateral nTokens paid to liquidator (positive)"}},"calculateLocalCurrencyLiquidation(address,uint16,uint96)":{"notice":"Calculates the net local currency required by the liquidator. This is a stateful method because it may settle the liquidated account if required. However, it can be called using staticcall off chain to determine the net local currency required before liquidating.","params":{"liquidateAccount":"account to liquidate","localCurrency":"id of the local currency","maxNTokenLiquidation":"maximum amount of nTokens to purchase (if any)"},"returns":{"_0":"local currency required from liquidator (positive or negative)","_1":"local nTokens paid to liquidator (positive)"}},"getLibInfo()":{"notice":"Get a list of deployed library addresses (sorted by library name)"},"liquidateCollateralCurrency(address,uint16,uint16,uint128,uint96,bool,bool)":{"notice":"Liquidates an account between local and collateral currency","params":{"collateralCurrency":"id of the collateral currency","liquidateAccount":"account to liquidate","localCurrency":"id of the local currency","maxCollateralLiquidation":"maximum amount of collateral (inclusive of cash and nTokens) to liquidate","maxNTokenLiquidation":"maximum amount of nTokens to purchase (if any)","redeemToUnderlying":"if true, converts collateral cash from asset cash to underlying","withdrawCollateral":"if true, withdraws collateral cash back to msg.sender"},"returns":{"_0":"local currency required from liquidator (negative)","_1":"collateral asset cash paid to liquidator (positive)","_2":"collateral nTokens paid to liquidator (positive)"}},"liquidateLocalCurrency(address,uint16,uint96)":{"notice":"Liquidates an account using local currency only","params":{"liquidateAccount":"account to liquidate","localCurrency":"id of the local currency","maxNTokenLiquidation":"maximum amount of nTokens to purchase (if any)"},"returns":{"_0":"local currency required from liquidator (positive or negative)","_1":"local nTokens paid to liquidator (positive)"}}},"version":1},"opcodes":"PUSH1 0x80 PUSH1 0x40 MSTORE PUSH1 0x4 CALLDATASIZE LT PUSH2 0x7B JUMPI PUSH1 0x0 CALLDATALOAD PUSH1 0xE0 SHR DUP1 PUSH4 0x8DA5CB5B GT PUSH2 0x4E JUMPI DUP1 PUSH4 0x8DA5CB5B EQ PUSH2 0x103 JUMPI DUP1 PUSH4 0x9A600EEB EQ PUSH2 0x118 JUMPI DUP1 PUSH4 0xC4C96DAE EQ PUSH2 0x138 JUMPI DUP1 PUSH4 0xE3E7CB4F EQ PUSH2 0x15B JUMPI PUSH2 0x7B JUMP JUMPDEST DUP1 PUSH4 0x24A3D622 EQ PUSH2 0x80 JUMPI DUP1 PUSH4 0x2D10E6EB EQ PUSH2 0xAB JUMPI DUP1 PUSH4 0x6633AF39 EQ PUSH2 0xCC JUMPI DUP1 PUSH4 0x82463367 EQ PUSH2 0xEE JUMPI JUMPDEST PUSH1 0x0 DUP1 REVERT JUMPDEST CALLVALUE DUP1 ISZERO PUSH2 0x8C JUMPI PUSH1 0x0 DUP1 REVERT JUMPDEST POP PUSH2 0x95 PUSH2 0x17B JUMP JUMPDEST PUSH1 0x40 MLOAD PUSH2 0xA2 SWAP2 SWAP1 PUSH2 0x4C33 JUMP JUMPDEST PUSH1 0x40 MLOAD DUP1 SWAP2 SUB SWAP1 RETURN JUMPDEST PUSH2 0xBE PUSH2 0xB9 CALLDATASIZE PUSH1 0x4 PUSH2 0x49B2 JUMP JUMPDEST PUSH2 0x18A JUMP JUMPDEST PUSH1 0x40 MLOAD PUSH2 0xA2 SWAP3 SWAP2 SWAP1 PUSH2 0x4D1B JUMP JUMPDEST PUSH2 0xDF PUSH2 0xDA CALLDATASIZE PUSH1 0x4 PUSH2 0x4921 JUMP JUMPDEST PUSH2 0x264 JUMP JUMPDEST PUSH1 0x40 MLOAD PUSH2 0xA2 SWAP4 SWAP3 SWAP2 SWAP1 PUSH2 0x4D29 JUMP JUMPDEST CALLVALUE DUP1 ISZERO PUSH2 0xFA JUMPI PUSH1 0x0 DUP1 REVERT JUMPDEST POP PUSH2 0x95 PUSH2 0x31A JUMP JUMPDEST CALLVALUE DUP1 ISZERO PUSH2 0x10F JUMPI PUSH1 0x0 DUP1 REVERT JUMPDEST POP PUSH2 0x95 PUSH2 0x329 JUMP JUMPDEST CALLVALUE DUP1 ISZERO PUSH2 0x124 JUMPI PUSH1 0x0 DUP1 REVERT JUMPDEST POP PUSH2 0xDF PUSH2 0x133 CALLDATASIZE PUSH1 0x4 PUSH2 0x48B7 JUMP JUMPDEST PUSH2 0x340 JUMP JUMPDEST CALLVALUE DUP1 ISZERO PUSH2 0x144 JUMPI PUSH1 0x0 DUP1 REVERT JUMPDEST POP PUSH2 0x14D PUSH2 0x3A4 JUMP JUMPDEST PUSH1 0x40 MLOAD PUSH2 0xA2 SWAP3 SWAP2 SWAP1 PUSH2 0x4C47 JUMP JUMPDEST CALLVALUE DUP1 ISZERO PUSH2 0x167 JUMPI PUSH1 0x0 DUP1 REVERT JUMPDEST POP PUSH2 0xBE PUSH2 0x176 CALLDATASIZE PUSH1 0x4 PUSH2 0x49B2 JUMP JUMPDEST PUSH2 0x3D2 JUMP JUMPDEST PUSH1 0x2 SLOAD PUSH1 0x1 PUSH1 0x1 PUSH1 0xA0 SHL SUB AND DUP2 JUMP JUMPDEST PUSH1 0x0 DUP1 PUSH1 0x2 PUSH1 0xA SLOAD EQ ISZERO PUSH2 0x19D JUMPI PUSH1 0x0 DUP1 REVERT JUMPDEST PUSH1 0x2 PUSH1 0xA SSTORE PUSH1 0x0 DUP1 DUP1 PUSH2 0x1B2 DUP9 DUP9 DUP9 DUP5 PUSH2 0x420 JUMP JUMPDEST SWAP3 POP SWAP3 POP SWAP3 POP PUSH1 0x0 PUSH2 0x1D3 CALLER DUP11 DUP11 DUP8 PUSH2 0x1CE DUP9 PUSH1 0xA0 ADD MLOAD PUSH2 0x479 JUMP JUMPDEST PUSH2 0x48F JUMP JUMPDEST SWAP1 POP PUSH2 0x1E0 DUP4 DUP11 DUP5 PUSH2 0x58E JUMP JUMPDEST CALLER PUSH1 0x1 PUSH1 0x1 PUSH1 0xA0 SHL SUB AND DUP10 PUSH1 0x1 PUSH1 0x1 PUSH1 0xA0 SHL SUB AND PUSH32 0x4596C3B6545E97EB42B719442DD0AFA8EB7680F3FF72C762763D4B292EE26EA7 DUP11 DUP8 PUSH1 0x40 MLOAD PUSH2 0x225 SWAP3 SWAP2 SWAP1 PUSH2 0x4E57 JUMP JUMPDEST PUSH1 0x40 MLOAD DUP1 SWAP2 SUB SWAP1 LOG3 PUSH2 0x237 DUP2 CALLER PUSH2 0x5B2 JUMP JUMPDEST PUSH2 0x241 DUP3 DUP11 PUSH2 0x5B2 JUMP JUMPDEST DUP4 PUSH2 0x24F DUP5 PUSH1 0xA0 ADD MLOAD PUSH2 0x479 JUMP JUMPDEST PUSH1 0x1 PUSH1 0xA SSTORE SWAP1 SWAP11 SWAP1 SWAP10 POP SWAP8 POP POP POP POP POP POP POP POP JUMP JUMPDEST PUSH1 0x0 DUP1 PUSH1 0x0 PUSH1 0x2 PUSH1 0xA SLOAD EQ ISZERO PUSH2 0x279 JUMPI PUSH1 0x0 DUP1 REVERT JUMPDEST PUSH1 0x2 PUSH1 0xA SSTORE PUSH1 0x0 DUP1 DUP1 PUSH2 0x290 DUP14 DUP14 DUP14 DUP14 DUP14 DUP7 PUSH2 0x6CF JUMP JUMPDEST SWAP3 POP SWAP3 POP SWAP3 POP PUSH1 0x0 PUSH2 0x2A7 DUP15 DUP15 DUP15 DUP8 DUP8 DUP15 DUP15 PUSH2 0x72A JUMP JUMPDEST SWAP1 POP PUSH2 0x2B5 DUP15 DUP15 DUP5 DUP8 PUSH2 0x776 JUMP JUMPDEST PUSH2 0x2C0 DUP4 DUP16 DUP5 PUSH2 0x7A3 JUMP JUMPDEST PUSH2 0x2CC DUP15 DUP15 DUP7 DUP7 PUSH2 0x7C0 JUMP JUMPDEST PUSH2 0x2D6 DUP3 DUP16 PUSH2 0x5B2 JUMP JUMPDEST PUSH2 0x2E0 DUP2 CALLER PUSH2 0x5B2 JUMP JUMPDEST DUP4 PUSH2 0x2EE DUP5 PUSH1 0x60 ADD MLOAD PUSH2 0x479 JUMP JUMPDEST PUSH2 0x2FB DUP6 PUSH1 0xA0 ADD MLOAD PUSH2 0x479 JUMP JUMPDEST SWAP7 POP SWAP7 POP SWAP7 POP POP POP POP POP PUSH1 0x1 PUSH1 0xA DUP2 SWAP1 SSTORE POP SWAP8 POP SWAP8 POP SWAP8 SWAP5 POP POP POP POP POP JUMP JUMPDEST PUSH1 0x1 SLOAD PUSH1 0x1 PUSH1 0x1 PUSH1 0xA0 SHL SUB AND DUP2 JUMP JUMPDEST PUSH1 0x0 SLOAD PUSH5 0x100000000 SWAP1 DIV PUSH1 0x1 PUSH1 0x1 PUSH1 0xA0 SHL SUB AND DUP2 JUMP JUMPDEST PUSH1 0x0 DUP1 PUSH1 0x0 PUSH1 0x2 PUSH1 0xA SLOAD EQ ISZERO PUSH2 0x355 JUMPI PUSH1 0x0 DUP1 REVERT JUMPDEST PUSH1 0x2 PUSH1 0xA SSTORE PUSH1 0x0 DUP1 PUSH2 0x36C DUP11 DUP11 DUP11 DUP11 DUP11 PUSH1 0x1 PUSH2 0x6CF JUMP JUMPDEST POP SWAP2 POP SWAP2 POP DUP2 PUSH2 0x37F DUP3 PUSH1 0x60 ADD MLOAD PUSH2 0x479 JUMP JUMPDEST PUSH2 0x38C DUP4 PUSH1 0xA0 ADD MLOAD PUSH2 0x479 JUMP JUMPDEST PUSH1 0x1 PUSH1 0xA SSTORE SWAP2 SWAP13 SWAP1 SWAP12 POP SWAP1 SWAP10 POP SWAP8 POP POP POP POP POP POP POP POP JUMP JUMPDEST PUSH20 0x0 PUSH20 0x0 SWAP1 SWAP2 JUMP JUMPDEST PUSH1 0x0 DUP1 PUSH1 0x2 PUSH1 0xA SLOAD EQ ISZERO PUSH2 0x3E5 JUMPI PUSH1 0x0 DUP1 REVERT JUMPDEST PUSH1 0x2 PUSH1 0xA SSTORE PUSH1 0x0 DUP1 PUSH2 0x3FA DUP8 DUP8 DUP8 PUSH1 0x1 PUSH2 0x420 JUMP JUMPDEST POP SWAP2 POP SWAP2 POP DUP2 PUSH2 0x40D DUP3 PUSH1 0xA0 ADD MLOAD PUSH2 0x479 JUMP JUMPDEST PUSH1 0x1 PUSH1 0xA SSTORE SWAP1 SWAP9 SWAP1 SWAP8 POP SWAP6 POP POP POP POP POP POP JUMP JUMPDEST PUSH1 0x0 PUSH2 0x42A PUSH2 0x4118 JUMP JUMPDEST PUSH2 0x432 PUSH2 0x4174 JUMP JUMPDEST PUSH2 0x43A PUSH2 0x41A9 JUMP JUMPDEST PUSH2 0x446 DUP9 DUP9 PUSH1 0x0 PUSH2 0x835 JUMP JUMPDEST POP SWAP1 SWAP3 POP SWAP1 POP PUSH2 0x458 DUP4 DUP10 DUP10 DUP6 PUSH2 0x991 JUMP JUMPDEST DUP5 ISZERO ISZERO PUSH2 0x140 DUP3 ADD MSTORE PUSH2 0x46C DUP7 DUP5 DUP4 PUSH2 0x9AC JUMP JUMPDEST SWAP4 POP POP SWAP5 POP SWAP5 POP SWAP5 SWAP2 POP POP JUMP JUMPDEST PUSH1 0x0 PUSH2 0x487 PUSH1 0x0 NOT DUP4 PUSH2 0xAF2 JUMP JUMPDEST SWAP1 POP JUMPDEST SWAP2 SWAP1 POP JUMP JUMPDEST PUSH2 0x497 PUSH2 0x4174 JUMP JUMPDEST PUSH1 0x0 PUSH2 0x4A6 DUP6 PUSH2 0xFFFF AND PUSH2 0xB46 JUMP JUMPDEST SWAP1 POP PUSH1 0x0 PUSH2 0x4B3 DUP9 PUSH2 0xB59 JUMP JUMPDEST SWAP1 POP PUSH2 0x4BD PUSH2 0x4118 JUMP JUMPDEST PUSH2 0x4C9 DUP2 DUP11 DUP10 DUP6 PUSH2 0x991 JUMP JUMPDEST PUSH1 0x0 DUP7 SGT PUSH2 0x4D6 JUMPI PUSH1 0x0 DUP1 REVERT JUMPDEST DUP3 PUSH1 0x20 ADD MLOAD ISZERO PUSH2 0x538 JUMPI DUP6 DUP2 PUSH1 0x20 ADD MLOAD SLT ISZERO DUP1 ISZERO PUSH2 0x500 JUMPI POP PUSH1 0x20 DUP3 ADD MLOAD PUSH1 0x1 PUSH1 0x1 PUSH1 0xF8 SHL SUB NOT AND ISZERO JUMPDEST PUSH2 0x525 JUMPI PUSH1 0x40 MLOAD PUSH3 0x461BCD PUSH1 0xE5 SHL DUP2 MSTORE PUSH1 0x4 ADD PUSH2 0x51C SWAP1 PUSH2 0x4DB4 JUMP JUMPDEST PUSH1 0x40 MLOAD DUP1 SWAP2 SUB SWAP1 REVERT JUMPDEST PUSH2 0x52E DUP7 PUSH2 0x479 JUMP JUMPDEST PUSH1 0x60 DUP3 ADD MSTORE PUSH2 0x54D JUMP JUMPDEST PUSH2 0x54B DUP10 DUP9 DUP9 DUP5 PUSH2 0x120 ADD MLOAD PUSH1 0x0 PUSH2 0xC07 JUMP JUMPDEST POP JUMPDEST PUSH2 0x559 DUP10 DUP10 DUP10 DUP10 PUSH2 0xC7D JUMP JUMPDEST PUSH1 0x0 DUP6 SGT ISZERO PUSH2 0x56E JUMPI PUSH2 0x56E DUP9 DUP11 DUP10 DUP9 PUSH2 0xD23 JUMP JUMPDEST PUSH1 0xA0 DUP2 ADD DUP6 SWAP1 MSTORE PUSH2 0x580 DUP2 DUP11 DUP5 PUSH2 0x58E JUMP JUMPDEST POP SWAP2 POP POP JUMPDEST SWAP6 SWAP5 POP POP POP POP POP JUMP JUMPDEST PUSH1 0x80 DUP4 ADD MLOAD ISZERO PUSH2 0x59D JUMPI PUSH1 0x0 DUP1 REVERT JUMPDEST PUSH2 0x5AC DUP4 DUP4 DUP4 PUSH1 0x0 PUSH1 0x1 PUSH2 0xE33 JUMP JUMPDEST POP POP POP POP JUMP JUMPDEST PUSH1 0x0 PUSH2 0x5BC PUSH2 0xFE9 JUMP JUMPDEST PUSH1 0x1 PUSH1 0x1 PUSH1 0xA0 SHL SUB DUP4 AND PUSH1 0x0 DUP2 DUP2 MSTORE PUSH1 0x20 DUP4 DUP2 MSTORE PUSH1 0x40 DUP1 DUP4 KECCAK256 DUP9 MLOAD DUP2 SLOAD SWAP4 DUP11 ADD MLOAD DUP11 DUP5 ADD MLOAD PUSH1 0x60 DUP13 ADD MLOAD PUSH1 0x80 DUP14 ADD MLOAD PUSH1 0xA0 DUP15 ADD MLOAD PUSH5 0xFFFFFFFFFF NOT SWAP1 SWAP9 AND PUSH5 0xFFFFFFFFFF SWAP1 SWAP6 AND SWAP5 SWAP1 SWAP5 OR PUSH6 0xFF0000000000 NOT AND PUSH1 0x1 PUSH1 0x28 SHL PUSH1 0xF8 SWAP5 SWAP1 SWAP5 SHR SWAP4 SWAP1 SWAP4 MUL SWAP3 SWAP1 SWAP3 OR PUSH7 0xFF000000000000 NOT AND PUSH1 0x1 PUSH1 0x30 SHL PUSH1 0xFF SWAP1 SWAP3 AND SWAP2 SWAP1 SWAP2 MUL OR PUSH9 0xFFFF00000000000000 NOT AND PUSH1 0x1 PUSH1 0x38 SHL PUSH2 0xFFFF SWAP1 SWAP3 AND SWAP2 SWAP1 SWAP2 MUL OR PUSH27 0xFFFFFFFFFFFFFFFFFFFFFFFFFFFFFFFFFFFF000000000000000000 NOT AND PUSH1 0x1 PUSH1 0x48 SHL PUSH1 0x70 SWAP3 SWAP1 SWAP3 SHR SWAP2 SWAP1 SWAP2 MUL OR PUSH1 0xFF PUSH1 0xD8 SHL NOT AND PUSH1 0x1 PUSH1 0xD8 SHL SWAP4 ISZERO ISZERO SWAP4 SWAP1 SWAP4 MUL SWAP3 SWAP1 SWAP3 OR SWAP1 SWAP2 SSTORE MLOAD SWAP3 SWAP4 POP SWAP1 SWAP2 PUSH32 0x6BD4B121BCA854A191536A2CA891155C42EE2FB23F307FB34E8BC65CFCB5412E SWAP2 SWAP1 LOG2 POP POP POP JUMP JUMPDEST PUSH1 0x0 PUSH2 0x6D9 PUSH2 0x4118 JUMP JUMPDEST PUSH2 0x6E1 PUSH2 0x4174 JUMP JUMPDEST PUSH2 0x6E9 PUSH2 0x41A9 JUMP JUMPDEST PUSH2 0x6F4 DUP11 DUP11 DUP11 PUSH2 0x835 JUMP JUMPDEST POP SWAP1 SWAP3 POP SWAP1 POP PUSH2 0x706 DUP4 DUP12 DUP11 DUP6 PUSH2 0x991 JUMP JUMPDEST DUP5 ISZERO ISZERO PUSH2 0x140 DUP3 ADD MSTORE PUSH2 0x71B DUP8 DUP8 DUP6 DUP5 PUSH2 0xFF6 JUMP JUMPDEST SWAP4 POP POP SWAP7 POP SWAP7 POP SWAP7 SWAP4 POP POP POP POP JUMP JUMPDEST PUSH2 0x732 PUSH2 0x4174 JUMP JUMPDEST PUSH2 0x740 CALLER DUP10 DUP10 DUP9 PUSH1 0x0 PUSH2 0x48F JUMP JUMPDEST SWAP1 POP PUSH2 0x76A CALLER DUP3 DUP11 DUP10 PUSH2 0x756 DUP10 PUSH1 0x60 ADD MLOAD PUSH2 0x479 JUMP JUMPDEST PUSH2 0x763 DUP11 PUSH1 0xA0 ADD MLOAD PUSH2 0x479 JUMP JUMPDEST DUP10 DUP10 PUSH2 0x110B JUMP JUMPDEST POP SWAP8 SWAP7 POP POP POP POP POP POP POP JUMP JUMPDEST PUSH2 0x77E PUSH2 0x4118 JUMP JUMPDEST PUSH2 0x78A DUP2 DUP7 DUP7 DUP7 PUSH2 0x991 JUMP JUMPDEST PUSH1 0x60 DUP2 ADD DUP3 SWAP1 MSTORE PUSH2 0x79C DUP2 DUP7 DUP6 PUSH2 0x58E JUMP JUMPDEST POP POP POP POP POP JUMP JUMPDEST PUSH1 0x80 DUP4 ADD MLOAD ISZERO PUSH2 0x7B2 JUMPI PUSH1 0x0 DUP1 REVERT JUMPDEST PUSH2 0x5AC DUP4 DUP4 DUP4 PUSH1 0x0 DUP1 PUSH2 0xE33 JUMP JUMPDEST CALLER PUSH1 0x1 PUSH1 0x1 PUSH1 0xA0 SHL SUB AND DUP5 PUSH1 0x1 PUSH1 0x1 PUSH1 0xA0 SHL SUB AND PUSH32 0x88FFF2F00941B1272999212DE454EE8D15F54D132723B35E3423EF742109861C DUP6 DUP5 PUSH1 0x0 ADD MLOAD DUP7 PUSH2 0x809 DUP8 PUSH1 0x60 ADD MLOAD PUSH2 0x479 JUMP JUMPDEST PUSH2 0x816 DUP9 PUSH1 0xA0 ADD MLOAD PUSH2 0x479 JUMP JUMPDEST PUSH1 0x40 MLOAD PUSH2 0x827 SWAP6 SWAP5 SWAP4 SWAP3 SWAP2 SWAP1 PUSH2 0x4E6B JUMP JUMPDEST PUSH1 0x40 MLOAD DUP1 SWAP2 SUB SWAP1 LOG3 POP POP POP POP JUMP JUMPDEST PUSH2 0x83D PUSH2 0x4174 JUMP JUMPDEST PUSH2 0x845 PUSH2 0x41A9 JUMP JUMPDEST PUSH2 0x84D PUSH2 0x422E JUMP JUMPDEST CALLER PUSH1 0x1 PUSH1 0x1 PUSH1 0xA0 SHL SUB DUP8 AND EQ ISZERO PUSH2 0x863 JUMPI PUSH1 0x0 DUP1 REVERT JUMPDEST PUSH2 0xFFFF DUP6 AND PUSH2 0x871 JUMPI PUSH1 0x0 DUP1 REVERT JUMPDEST DUP5 PUSH2 0xFFFF AND DUP5 PUSH2 0xFFFF AND EQ ISZERO PUSH2 0x886 JUMPI PUSH1 0x0 DUP1 REVERT JUMPDEST PUSH1 0x0 DUP1 PUSH1 0x0 PUSH20 0x0 PUSH4 0x451D958F DUP11 DUP11 DUP11 PUSH1 0x40 MLOAD DUP5 PUSH4 0xFFFFFFFF AND PUSH1 0xE0 SHL DUP2 MSTORE PUSH1 0x4 ADD PUSH2 0x8C6 SWAP4 SWAP3 SWAP2 SWAP1 PUSH2 0x4C9E JUMP JUMPDEST PUSH1 0x0 PUSH1 0x40 MLOAD DUP1 DUP4 SUB DUP2 DUP7 DUP1 EXTCODESIZE ISZERO DUP1 ISZERO PUSH2 0x8DE JUMPI PUSH1 0x0 DUP1 REVERT JUMPDEST POP GAS DELEGATECALL ISZERO DUP1 ISZERO PUSH2 0x8F2 JUMPI RETURNDATASIZE PUSH1 0x0 DUP1 RETURNDATACOPY RETURNDATASIZE PUSH1 0x0 REVERT JUMPDEST POP POP POP POP PUSH1 0x40 MLOAD RETURNDATASIZE PUSH1 0x0 DUP3 RETURNDATACOPY PUSH1 0x1F RETURNDATASIZE SWAP1 DUP2 ADD PUSH1 0x1F NOT AND DUP3 ADD PUSH1 0x40 MSTORE PUSH2 0x91A SWAP2 SWAP1 DUP2 ADD SWAP1 PUSH2 0x4B06 JUMP JUMPDEST SWAP2 SWAP5 POP SWAP3 POP SWAP1 POP PUSH2 0x92B DUP4 DUP11 PUSH2 0x5B2 JUMP JUMPDEST PUSH1 0x40 DUP1 MLOAD PUSH1 0x80 DUP2 ADD DUP3 MSTORE DUP3 DUP2 MSTORE DUP2 MLOAD PUSH1 0x0 DUP1 DUP3 MSTORE PUSH1 0x20 DUP3 DUP2 ADD SWAP1 SWAP5 MSTORE SWAP3 DUP3 ADD SWAP1 DUP4 PUSH2 0x96C JUMP JUMPDEST PUSH2 0x959 PUSH2 0x4256 JUMP JUMPDEST DUP2 MSTORE PUSH1 0x20 ADD SWAP1 PUSH1 0x1 SWAP1 SUB SWAP1 DUP2 PUSH2 0x951 JUMPI SWAP1 POP JUMPDEST POP DUP2 MSTORE PUSH1 0x0 PUSH1 0x20 DUP3 ADD MSTORE SWAP3 MLOAD PUSH1 0x40 SWAP1 SWAP4 ADD SWAP3 SWAP1 SWAP3 MSTORE POP SWAP2 SWAP9 SWAP1 SWAP8 POP SWAP1 SWAP6 POP SWAP4 POP POP POP POP JUMP JUMPDEST PUSH2 0x99A DUP3 PUSH2 0x11A7 JUMP JUMPDEST PUSH2 0x120 DUP6 ADD MSTORE PUSH2 0x5AC DUP5 DUP5 DUP5 DUP5 PUSH2 0x11B9 JUMP JUMPDEST PUSH1 0x0 DUP2 PUSH1 0x40 ADD MLOAD PUSH1 0x0 EQ ISZERO PUSH2 0x9C0 JUMPI PUSH1 0x0 DUP1 REVERT JUMPDEST PUSH1 0x0 PUSH2 0x9E8 PUSH2 0x9DC DUP5 PUSH1 0x40 ADD MLOAD DUP6 PUSH1 0x20 ADD MLOAD DUP7 PUSH1 0xC0 ADD MLOAD PUSH2 0x1261 JUMP JUMPDEST PUSH2 0x100 DUP6 ADD MLOAD SWAP1 PUSH2 0x12A7 JUMP JUMPDEST SWAP1 POP PUSH1 0x0 DUP4 PUSH1 0x80 ADD MLOAD SGT ISZERO PUSH2 0xAEA JUMPI PUSH1 0xA0 DUP4 ADD MLOAD PUSH1 0x0 SWAP1 PUSH1 0x3 DUP2 SWAP1 BYTE SWAP1 DUP3 BYTE GT PUSH2 0xA11 JUMPI PUSH1 0x0 DUP1 REVERT JUMPDEST PUSH1 0xA0 DUP5 ADD MLOAD PUSH1 0x80 DUP6 ADD MLOAD PUSH1 0x3 DUP3 SWAP1 BYTE PUSH1 0x0 SWAP3 SWAP1 SWAP3 BYTE SWAP2 SWAP1 SWAP2 SUB PUSH1 0xFF AND SWAP1 PUSH2 0xA65 SWAP1 PUSH2 0xA3C SWAP1 DUP4 PUSH2 0xAF2 JUMP JUMPDEST PUSH1 0xA0 DUP8 ADD MLOAD PUSH1 0x40 DUP10 ADD MLOAD PUSH2 0xA5F SWAP2 PUSH1 0x3 BYTE SWAP1 PUSH2 0xA59 SWAP1 DUP9 SWAP1 PUSH2 0xAF2 JUMP JUMPDEST SWAP1 PUSH2 0xAF2 JUMP JUMPDEST SWAP1 PUSH2 0x12D0 JUMP JUMPDEST SWAP2 POP POP PUSH2 0xA80 DUP2 DUP7 PUSH1 0x40 ADD MLOAD DUP9 PUSH1 0x1 PUSH1 0x1 PUSH1 0x60 SHL SUB AND PUSH2 0x1301 JUMP JUMPDEST SWAP1 POP PUSH2 0xA8B DUP2 PUSH2 0x479 JUMP JUMPDEST PUSH1 0xA0 DUP7 DUP2 ADD SWAP2 SWAP1 SWAP2 MSTORE PUSH1 0x40 DUP7 ADD MLOAD SWAP1 DUP6 ADD MLOAD PUSH1 0x80 DUP7 ADD MLOAD PUSH1 0x0 SWAP3 PUSH2 0xAC4 SWAP3 SWAP1 SWAP2 PUSH2 0xA5F SWAP2 PUSH1 0x3 DUP2 SWAP1 BYTE SWAP2 DUP4 SWAP2 PUSH2 0xA59 SWAP1 DUP10 SWAP1 DUP10 BYTE PUSH2 0xAF2 JUMP JUMPDEST PUSH1 0x60 DUP8 ADD MLOAD SWAP1 SWAP2 POP PUSH2 0xAD6 SWAP1 DUP3 PUSH2 0x134B JUMP JUMPDEST PUSH1 0x60 DUP8 ADD MSTORE PUSH2 0xAE5 DUP5 DUP3 PUSH2 0x134B JUMP JUMPDEST SWAP4 POP POP POP JUMPDEST POP SWAP4 SWAP3 POP POP POP JUMP JUMPDEST DUP2 DUP2 MUL PUSH1 0x0 NOT DUP4 EQ ISZERO PUSH2 0xB22 JUMPI DUP2 ISZERO DUP1 PUSH2 0xB14 JUMPI POP DUP3 DUP3 DUP3 DUP2 PUSH2 0xB11 JUMPI INVALID JUMPDEST SDIV EQ JUMPDEST PUSH2 0xB1D JUMPI PUSH1 0x0 DUP1 REVERT JUMPDEST PUSH2 0xB40 JUMP JUMPDEST DUP3 ISZERO DUP1 PUSH2 0xB37 JUMPI POP DUP2 DUP4 DUP3 DUP2 PUSH2 0xB34 JUMPI INVALID JUMPDEST SDIV EQ JUMPDEST PUSH2 0xB40 JUMPI PUSH1 0x0 DUP1 REVERT JUMPDEST SWAP3 SWAP2 POP POP JUMP JUMPDEST PUSH2 0xB4E PUSH2 0x4295 JUMP JUMPDEST PUSH2 0x487 DUP3 PUSH1 0x1 PUSH2 0x1361 JUMP JUMPDEST PUSH2 0xB61 PUSH2 0x4174 JUMP JUMPDEST PUSH1 0x0 PUSH2 0xB6B PUSH2 0xFE9 JUMP JUMPDEST PUSH1 0x1 PUSH1 0x1 PUSH1 0xA0 SHL SUB DUP5 AND PUSH1 0x0 SWAP1 DUP2 MSTORE PUSH1 0x20 SWAP2 DUP3 MSTORE PUSH1 0x40 SWAP1 DUP2 SWAP1 KECCAK256 DUP2 MLOAD PUSH1 0xC0 DUP2 ADD DUP4 MSTORE SWAP1 SLOAD PUSH5 0xFFFFFFFFFF DUP2 AND DUP3 MSTORE PUSH1 0x1 PUSH1 0x1 PUSH1 0xF8 SHL SUB NOT PUSH1 0x1 PUSH1 0x28 SHL DUP3 DIV PUSH1 0xF8 SHL AND SWAP4 DUP3 ADD SWAP4 SWAP1 SWAP4 MSTORE PUSH1 0xFF PUSH1 0x1 PUSH1 0x30 SHL DUP5 DIV DUP2 AND SWAP3 DUP3 ADD SWAP3 SWAP1 SWAP3 MSTORE PUSH2 0xFFFF PUSH1 0x1 PUSH1 0x38 SHL DUP5 DIV AND PUSH1 0x60 DUP3 ADD MSTORE PUSH1 0x1 PUSH1 0x1 PUSH1 0x70 SHL SUB NOT PUSH1 0x1 PUSH1 0x48 SHL DUP5 DIV PUSH1 0x70 SHL AND PUSH1 0x80 DUP3 ADD MSTORE PUSH1 0x1 PUSH1 0xD8 SHL SWAP1 SWAP3 DIV AND ISZERO ISZERO PUSH1 0xA0 DUP3 ADD MSTORE SWAP2 POP POP SWAP2 SWAP1 POP JUMP JUMPDEST PUSH1 0x0 DUP4 PUSH2 0xC16 JUMPI POP PUSH1 0x0 PUSH2 0x585 JUMP JUMPDEST PUSH1 0x0 DUP5 SGT PUSH2 0xC23 JUMPI PUSH1 0x0 DUP1 REVERT JUMPDEST PUSH1 0x0 PUSH2 0xC32 DUP7 PUSH2 0xFFFF AND PUSH2 0xB46 JUMP JUMPDEST SWAP1 POP PUSH1 0x0 PUSH2 0xC49 DUP3 PUSH2 0xC44 DUP8 DUP10 PUSH2 0x13FB JUMP JUMPDEST PUSH2 0x1427 JUMP JUMPDEST SWAP1 POP PUSH1 0x0 PUSH2 0xC5A DUP10 DUP10 DUP5 DUP10 DUP10 PUSH2 0x1463 JUMP JUMPDEST SWAP1 SWAP5 POP SWAP1 POP DUP7 DUP2 SUB PUSH1 0x0 DUP2 SLT ISZERO PUSH2 0xC70 JUMPI PUSH1 0x0 DUP1 REVERT JUMPDEST POP POP POP POP SWAP6 SWAP5 POP POP POP POP POP JUMP JUMPDEST PUSH1 0x0 PUSH2 0xC87 PUSH2 0x1525 JUMP JUMPDEST PUSH2 0xFFFF DUP5 AND PUSH1 0x0 SWAP1 DUP2 MSTORE PUSH1 0x20 SWAP2 SWAP1 SWAP2 MSTORE PUSH1 0x40 DUP2 KECCAK256 SLOAD PUSH1 0x1 PUSH1 0x1 PUSH1 0xA0 SHL SUB AND SWAP2 POP DUP3 SLT ISZERO PUSH2 0xCB2 JUMPI SWAP3 SWAP4 SWAP3 JUMPDEST DUP1 PUSH1 0x1 PUSH1 0x1 PUSH1 0xA0 SHL SUB AND PUSH4 0x23DE6651 DUP7 DUP7 PUSH2 0xCCC DUP7 PUSH2 0x1532 JUMP JUMPDEST PUSH1 0x40 MLOAD DUP5 PUSH4 0xFFFFFFFF AND PUSH1 0xE0 SHL DUP2 MSTORE PUSH1 0x4 ADD PUSH2 0xCEA SWAP4 SWAP3 SWAP2 SWAP1 PUSH2 0x4C61 JUMP JUMPDEST PUSH1 0x0 PUSH1 0x40 MLOAD DUP1 DUP4 SUB DUP2 PUSH1 0x0 DUP8 DUP1 EXTCODESIZE ISZERO DUP1 ISZERO PUSH2 0xD04 JUMPI PUSH1 0x0 DUP1 REVERT JUMPDEST POP GAS CALL ISZERO DUP1 ISZERO PUSH2 0xD18 JUMPI RETURNDATASIZE PUSH1 0x0 DUP1 RETURNDATACOPY RETURNDATASIZE PUSH1 0x0 REVERT JUMPDEST POP POP POP POP POP POP POP POP POP JUMP JUMPDEST PUSH1 0x0 PUSH2 0xD2D PUSH2 0x1553 JUMP JUMPDEST PUSH2 0xFFFF DUP5 AND PUSH1 0x0 SWAP1 DUP2 MSTORE PUSH1 0x20 SWAP2 SWAP1 SWAP2 MSTORE PUSH1 0x40 DUP2 KECCAK256 SLOAD PUSH1 0x1 PUSH1 0x1 PUSH1 0xA0 SHL SUB AND SWAP2 POP DUP3 SLT ISZERO PUSH2 0xD58 JUMPI SWAP3 SWAP4 SWAP3 JUMPDEST PUSH1 0x0 PUSH2 0xD63 DUP4 PUSH2 0x1532 JUMP JUMPDEST SWAP1 POP PUSH2 0xD6E DUP5 PUSH2 0x1560 JUMP JUMPDEST ISZERO PUSH2 0xDC8 JUMPI PUSH1 0x1 PUSH1 0x1 PUSH1 0xA0 SHL SUB DUP1 DUP7 AND SWAP1 DUP8 AND CALLER PUSH32 0xC3D58168C5AE7397731D063D5BBF3D657854427343F4C083240F7AACAA2D0F62 PUSH2 0xDAC DUP9 PUSH2 0x157D JUMP JUMPDEST DUP6 PUSH1 0x40 MLOAD PUSH2 0xDBB SWAP3 SWAP2 SWAP1 PUSH2 0x4D1B JUMP JUMPDEST PUSH1 0x40 MLOAD DUP1 SWAP2 SUB SWAP1 LOG4 PUSH2 0xE2B JUMP JUMPDEST PUSH1 0x40 MLOAD PUSH4 0x23DE6651 PUSH1 0xE0 SHL DUP2 MSTORE PUSH1 0x1 PUSH1 0x1 PUSH1 0xA0 SHL SUB DUP4 AND SWAP1 PUSH4 0x23DE6651 SWAP1 PUSH2 0xDF8 SWAP1 DUP10 SWAP1 DUP10 SWAP1 DUP7 SWAP1 PUSH1 0x4 ADD PUSH2 0x4C61 JUMP JUMPDEST PUSH1 0x0 PUSH1 0x40 MLOAD DUP1 DUP4 SUB DUP2 PUSH1 0x0 DUP8 DUP1 EXTCODESIZE ISZERO DUP1 ISZERO PUSH2 0xE12 JUMPI PUSH1 0x0 DUP1 REVERT JUMPDEST POP GAS CALL ISZERO DUP1 ISZERO PUSH2 0xE26 JUMPI RETURNDATASIZE PUSH1 0x0 DUP1 RETURNDATACOPY RETURNDATASIZE PUSH1 0x0 REVERT JUMPDEST POP POP POP POP JUMPDEST POP POP POP POP POP POP JUMP JUMPDEST PUSH1 0x0 DUP1 PUSH2 0xE50 DUP7 DUP9 PUSH1 0x0 ADD MLOAD DUP10 PUSH1 0x80 ADD MLOAD DUP11 PUSH2 0x120 ADD MLOAD DUP9 PUSH2 0x1593 JUMP JUMPDEST SWAP2 POP PUSH1 0x0 PUSH2 0xE6F DUP9 PUSH1 0x80 ADD MLOAD DUP10 PUSH1 0x60 ADD MLOAD PUSH2 0x134B SWAP1 SWAP2 SWAP1 PUSH4 0xFFFFFFFF AND JUMP JUMPDEST SWAP1 POP DUP4 DUP1 ISZERO PUSH2 0xE7E JUMPI POP PUSH1 0x0 DUP2 SLT JUMPDEST DUP1 ISZERO PUSH2 0xE99 JUMPI POP PUSH1 0x20 DUP9 ADD MLOAD PUSH1 0x0 SWAP1 PUSH2 0xE97 SWAP1 DUP4 PUSH2 0x134B JUMP JUMPDEST SLT JUMPDEST ISZERO PUSH2 0xEBF JUMPI DUP6 PUSH1 0xA0 ADD MLOAD PUSH2 0xEBF JUMPI PUSH1 0x40 MLOAD PUSH3 0x461BCD PUSH1 0xE5 SHL DUP2 MSTORE PUSH1 0x4 ADD PUSH2 0x51C SWAP1 PUSH2 0x4D8B JUMP JUMPDEST DUP1 ISZERO PUSH2 0xEDE JUMPI PUSH1 0x20 DUP9 ADD MLOAD PUSH2 0xED4 SWAP1 DUP3 PUSH2 0x134B JUMP JUMPDEST PUSH1 0x20 DUP10 ADD MSTORE PUSH1 0x1 SWAP2 POP JUMPDEST PUSH1 0xA0 DUP9 ADD MLOAD ISZERO ISZERO DUP1 PUSH2 0xEF3 JUMPI POP PUSH1 0xC0 DUP9 ADD MLOAD ISZERO ISZERO JUMPDEST ISZERO PUSH2 0xF5C JUMPI PUSH1 0x0 PUSH2 0xF23 DUP10 PUSH1 0xC0 ADD MLOAD PUSH2 0xF1D DUP12 PUSH1 0xA0 ADD MLOAD DUP13 PUSH1 0x40 ADD MLOAD PUSH2 0x134B SWAP1 SWAP2 SWAP1 PUSH4 0xFFFFFFFF AND JUMP JUMPDEST SWAP1 PUSH2 0x134B JUMP JUMPDEST SWAP1 POP PUSH1 0x0 DUP2 SLT ISZERO PUSH2 0xF46 JUMPI PUSH1 0x40 MLOAD PUSH3 0x461BCD PUSH1 0xE5 SHL DUP2 MSTORE PUSH1 0x4 ADD PUSH2 0x51C SWAP1 PUSH2 0x4E33 JUMP JUMPDEST PUSH2 0xF51 DUP10 DUP10 DUP4 PUSH2 0x1636 JUMP JUMPDEST POP PUSH1 0x40 DUP10 ADD MSTORE PUSH1 0x1 SWAP2 POP JUMPDEST DUP2 ISZERO PUSH2 0xF8B JUMPI PUSH2 0xF8B DUP8 DUP10 PUSH1 0x0 ADD MLOAD DUP11 PUSH1 0x20 ADD MLOAD DUP12 PUSH1 0x40 ADD MLOAD DUP13 PUSH1 0xE0 ADD MLOAD DUP14 PUSH2 0x100 ADD MLOAD DUP15 PUSH2 0x120 ADD MLOAD PUSH2 0x172D JUMP JUMPDEST DUP8 MLOAD PUSH1 0x20 DUP10 ADD MLOAD PUSH2 0xFB8 SWAP2 PUSH2 0xFFFF AND SWAP1 ISZERO ISZERO DUP1 PUSH2 0xFAB JUMPI POP PUSH1 0x40 DUP11 ADD MLOAD ISZERO ISZERO JUMPDEST DUP9 SWAP2 SWAP1 PUSH1 0x1 PUSH1 0xFE SHL PUSH2 0x1868 JUMP JUMPDEST PUSH1 0x0 DUP9 PUSH1 0x20 ADD MLOAD SLT ISZERO PUSH2 0xFDE JUMPI PUSH1 0x20 DUP7 ADD DUP1 MLOAD PUSH1 0x1 PUSH1 0xF9 SHL OR PUSH1 0x1 PUSH1 0x1 PUSH1 0xF8 SHL SUB NOT AND SWAP1 MSTORE JUMPDEST POP POP SWAP6 SWAP5 POP POP POP POP POP JUMP JUMPDEST PUSH1 0x0 DUP1 PUSH2 0xB40 PUSH1 0x1 PUSH2 0x1A6E JUMP JUMPDEST PUSH1 0x0 DUP1 DUP3 PUSH1 0x40 ADD MLOAD SLT PUSH2 0x101B JUMPI PUSH1 0x40 MLOAD PUSH3 0x461BCD PUSH1 0xE5 SHL DUP2 MSTORE PUSH1 0x4 ADD PUSH2 0x51C SWAP1 PUSH2 0x4D3F JUMP JUMPDEST PUSH1 0x0 DUP3 PUSH1 0x60 ADD MLOAD SGT PUSH2 0x103F JUMPI PUSH1 0x40 MLOAD PUSH3 0x461BCD PUSH1 0xE5 SHL DUP2 MSTORE PUSH1 0x4 ADD PUSH2 0x51C SWAP1 PUSH2 0x4DD5 JUMP JUMPDEST PUSH1 0x0 DUP1 PUSH2 0x1055 DUP5 DUP9 PUSH1 0x1 PUSH1 0x1 PUSH1 0x80 SHL SUB AND PUSH2 0x1A87 JUMP JUMPDEST SWAP2 POP SWAP2 POP PUSH1 0x0 DUP3 SWAP1 POP PUSH1 0x0 DUP7 PUSH1 0x20 ADD MLOAD SGT ISZERO PUSH2 0x10B1 JUMPI DUP1 DUP7 PUSH1 0x20 ADD MLOAD SLT PUSH2 0x108C JUMPI PUSH2 0x107F DUP2 PUSH2 0x479 JUMP JUMPDEST PUSH1 0x60 DUP8 ADD MSTORE POP PUSH1 0x0 PUSH2 0x10B1 JUMP JUMPDEST PUSH2 0x1099 DUP7 PUSH1 0x20 ADD MLOAD PUSH2 0x479 JUMP JUMPDEST PUSH1 0x60 DUP8 ADD MSTORE PUSH1 0x20 DUP7 ADD MLOAD PUSH2 0x10AE SWAP1 DUP3 SWAP1 PUSH2 0x1B3A JUMP JUMPDEST SWAP1 POP JUMPDEST PUSH1 0x0 DUP2 SGT DUP1 ISZERO PUSH2 0x10C5 JUMPI POP PUSH1 0x0 DUP6 PUSH1 0x80 ADD MLOAD SGT JUMPDEST ISZERO PUSH2 0x10E2 JUMPI PUSH2 0x10DF DUP7 DUP7 DUP4 DUP11 PUSH1 0x1 PUSH1 0x1 PUSH1 0x60 SHL SUB AND PUSH2 0x1B56 JUMP JUMPDEST SWAP1 POP JUMPDEST PUSH1 0x0 DUP2 SGT ISZERO PUSH2 0x1100 JUMPI PUSH1 0x60 DUP7 ADD MLOAD PUSH2 0x10FA SWAP1 DUP3 PUSH2 0x1C14 JUMP JUMPDEST PUSH1 0x60 DUP8 ADD MSTORE JUMPDEST POP SWAP7 SWAP6 POP POP POP POP POP POP JUMP JUMPDEST PUSH2 0x1113 PUSH2 0x4174 JUMP JUMPDEST DUP2 PUSH2 0x1130 JUMPI PUSH1 0x40 MLOAD PUSH3 0x461BCD PUSH1 0xE5 SHL DUP2 MSTORE PUSH1 0x4 ADD PUSH2 0x51C SWAP1 PUSH2 0x4DFC JUMP JUMPDEST PUSH2 0x1138 PUSH2 0x4118 JUMP JUMPDEST PUSH2 0x1144 DUP2 DUP12 DUP10 DUP13 PUSH2 0x991 JUMP JUMPDEST PUSH1 0x60 DUP2 ADD DUP7 SWAP1 MSTORE DUP6 ISZERO PUSH2 0x115D JUMPI PUSH2 0x115D DUP9 DUP12 DUP10 DUP10 PUSH2 0xC7D JUMP JUMPDEST DUP5 ISZERO PUSH2 0x116F JUMPI PUSH2 0x116F DUP9 DUP12 DUP10 DUP9 PUSH2 0xD23 JUMP JUMPDEST DUP4 ISZERO PUSH2 0x1184 JUMPI PUSH2 0x117E DUP7 PUSH2 0x479 JUMP JUMPDEST PUSH1 0x80 DUP3 ADD MSTORE JUMPDEST PUSH1 0xA0 DUP2 ADD DUP6 SWAP1 MSTORE PUSH2 0x1198 DUP2 DUP12 DUP12 PUSH1 0x0 PUSH2 0x1C2A JUMP JUMPDEST POP SWAP8 SWAP10 SWAP9 POP POP POP POP POP POP POP POP POP JUMP JUMPDEST PUSH2 0x11AF PUSH2 0x42C4 JUMP JUMPDEST PUSH2 0x487 DUP3 TIMESTAMP PUSH2 0x1C3A JUMP JUMPDEST DUP2 PUSH2 0xFFFF AND PUSH1 0x0 LT DUP1 ISZERO PUSH2 0x11D3 JUMPI POP PUSH2 0x3FFF PUSH2 0xFFFF DUP4 AND GT ISZERO JUMPDEST PUSH2 0x11DC JUMPI PUSH1 0x0 DUP1 REVERT JUMPDEST PUSH2 0xFFFF DUP3 AND DUP1 DUP6 MSTORE PUSH2 0x11EF SWAP1 DUP3 SWAP1 PUSH2 0x1CFB JUMP JUMPDEST ISZERO PUSH2 0x121E JUMPI PUSH2 0x1204 DUP4 DUP4 DUP7 PUSH2 0x120 ADD MLOAD PUSH2 0x1D85 JUMP JUMPDEST PUSH2 0x100 DUP9 ADD MSTORE PUSH1 0xE0 DUP8 ADD MSTORE PUSH1 0x40 DUP7 ADD MSTORE PUSH1 0x20 DUP6 ADD MSTORE PUSH2 0x123C JUMP JUMPDEST PUSH1 0x0 PUSH1 0x20 DUP6 ADD DUP2 SWAP1 MSTORE PUSH1 0x40 DUP6 ADD DUP2 SWAP1 MSTORE PUSH1 0xE0 DUP6 ADD DUP2 SWAP1 MSTORE PUSH2 0x100 DUP6 ADD MSTORE JUMPDEST POP POP PUSH1 0x0 PUSH1 0x60 DUP4 ADD DUP2 SWAP1 MSTORE PUSH1 0x80 DUP4 ADD DUP2 SWAP1 MSTORE PUSH1 0xA0 DUP4 ADD DUP2 SWAP1 MSTORE PUSH1 0xC0 SWAP1 SWAP3 ADD SWAP2 SWAP1 SWAP2 MSTORE POP JUMP JUMPDEST PUSH1 0x0 DUP1 PUSH1 0x0 DUP6 SGT PUSH2 0x1276 JUMPI DUP3 PUSH1 0x40 ADD MLOAD PUSH2 0x127C JUMP JUMPDEST DUP3 PUSH1 0x60 ADD MLOAD JUMPDEST SWAP1 POP PUSH1 0x0 DUP2 SGT PUSH2 0x128B JUMPI PUSH1 0x0 DUP1 REVERT JUMPDEST PUSH2 0x585 DUP2 PUSH2 0xA5F PUSH1 0x64 PUSH2 0xA59 PUSH2 0x12A0 DUP10 PUSH2 0x479 JUMP JUMPDEST DUP9 SWAP1 PUSH2 0x1E3F JUMP JUMPDEST DUP2 MLOAD PUSH1 0x0 SWAP1 PUSH2 0x12C9 SWAP1 PUSH2 0xA5F DUP5 PUSH15 0xC097CE7BC90715B34B9F1000000000 PUSH2 0xAF2 JUMP JUMPDEST SWAP4 SWAP3 POP POP POP JUMP JUMPDEST PUSH1 0x0 DUP2 PUSH1 0x0 NOT EQ DUP1 ISZERO PUSH2 0x12E6 JUMPI POP PUSH1 0x1 PUSH1 0xFF SHL DUP4 EQ JUMPDEST ISZERO PUSH2 0x12F0 JUMPI PUSH1 0x0 DUP1 REVERT JUMPDEST DUP2 DUP4 DUP2 PUSH2 0x12F9 JUMPI INVALID JUMPDEST SDIV SWAP4 SWAP3 POP POP POP JUMP JUMPDEST PUSH1 0x0 DUP1 PUSH2 0x1314 PUSH1 0x64 PUSH2 0xA5F DUP7 PUSH1 0x28 PUSH2 0xAF2 JUMP JUMPDEST SWAP1 POP DUP5 DUP5 DUP2 SGT ISZERO PUSH2 0x1322 JUMPI POP DUP4 JUMPDEST DUP2 DUP7 SLT ISZERO PUSH2 0x132D JUMPI POP DUP1 JUMPDEST PUSH1 0x0 DUP5 SGT DUP1 ISZERO PUSH2 0x133C JUMPI POP DUP4 DUP2 SGT JUMPDEST ISZERO PUSH2 0x585 JUMPI POP SWAP2 SWAP5 SWAP4 POP POP POP POP JUMP JUMPDEST DUP2 DUP2 ADD DUP3 DUP2 SLT ISZERO PUSH1 0x0 DUP4 SLT ISZERO EQ PUSH2 0xB40 JUMPI PUSH1 0x0 DUP1 REVERT JUMPDEST PUSH2 0x1369 PUSH2 0x4295 JUMP JUMPDEST PUSH1 0x0 PUSH2 0x1373 PUSH2 0x1E69 JUMP JUMPDEST PUSH1 0x0 DUP6 DUP2 MSTORE PUSH1 0x20 DUP3 DUP2 MSTORE PUSH1 0x40 DUP1 DUP4 KECCAK256 DUP8 ISZERO ISZERO DUP5 MSTORE DUP3 MSTORE SWAP2 DUP3 SWAP1 KECCAK256 DUP3 MLOAD PUSH1 0xA0 DUP2 ADD DUP5 MSTORE DUP2 SLOAD PUSH1 0x1 PUSH1 0x1 PUSH1 0xA0 SHL SUB DUP2 AND DUP3 MSTORE PUSH1 0xFF PUSH1 0x1 PUSH1 0xA0 SHL DUP3 DIV DUP2 AND ISZERO ISZERO SWAP5 DUP4 ADD SWAP5 SWAP1 SWAP5 MSTORE PUSH1 0x1 PUSH1 0xB0 SHL DUP2 DIV DUP5 AND PUSH1 0xA EXP SWAP5 DUP3 ADD SWAP5 SWAP1 SWAP5 MSTORE SWAP4 SWAP5 POP SWAP3 SWAP2 PUSH1 0x60 DUP4 ADD SWAP2 PUSH1 0x1 PUSH1 0xA8 SHL SWAP1 SWAP2 DIV AND PUSH1 0x5 DUP2 GT ISZERO PUSH2 0x13E8 JUMPI INVALID JUMPDEST DUP2 MSTORE PUSH1 0x0 PUSH1 0x20 SWAP1 SWAP2 ADD MSTORE SWAP6 SWAP5 POP POP POP POP POP JUMP JUMPDEST PUSH1 0x0 PUSH2 0x12C9 PUSH15 0xC097CE7BC90715B34B9F1000000000 PUSH2 0xA5F DUP6 PUSH1 0x0 ADD MLOAD DUP6 PUSH2 0xAF2 SWAP1 SWAP2 SWAP1 PUSH4 0xFFFFFFFF AND JUMP JUMPDEST PUSH1 0x0 PUSH4 0x5F5E100 DUP4 PUSH1 0x40 ADD MLOAD SLT ISZERO PUSH2 0x144F JUMPI PUSH2 0x1448 PUSH1 0x1 PUSH2 0xF1D DUP6 DUP6 PUSH2 0x1E76 JUMP JUMPDEST SWAP1 POP PUSH2 0xB40 JUMP JUMPDEST PUSH2 0x12C9 DUP4 PUSH2 0x145E DUP5 PUSH1 0x1 PUSH2 0x134B JUMP JUMPDEST PUSH2 0x1E76 JUMP JUMPDEST PUSH1 0x0 DUP1 PUSH1 0x0 PUSH2 0x1471 DUP7 PUSH2 0x1EAE JUMP JUMPDEST SWAP1 POP DUP1 PUSH2 0x1485 JUMPI PUSH1 0x0 DUP1 SWAP3 POP SWAP3 POP POP PUSH2 0x151B JUMP JUMPDEST PUSH1 0x0 PUSH2 0x1494 DUP9 PUSH2 0xFFFF AND PUSH2 0xB46 JUMP JUMPDEST SWAP1 POP PUSH1 0x3 DUP2 PUSH1 0x60 ADD MLOAD PUSH1 0x5 DUP2 GT ISZERO PUSH2 0x14A8 JUMPI INVALID JUMPDEST EQ ISZERO PUSH2 0x14EF JUMPI CALLVALUE DUP3 LT ISZERO PUSH2 0x14C8 JUMPI PUSH2 0x14C3 DUP10 DUP4 CALLVALUE SUB DUP8 PUSH2 0x1EC1 JUMP JUMPDEST PUSH2 0x14E7 JUMP JUMPDEST CALLVALUE DUP3 EQ PUSH2 0x14E7 JUMPI PUSH1 0x40 MLOAD PUSH3 0x461BCD PUSH1 0xE5 SHL DUP2 MSTORE PUSH1 0x4 ADD PUSH2 0x51C SWAP1 PUSH2 0x4D66 JUMP JUMPDEST DUP7 SWAP4 POP PUSH2 0x1509 JUMP JUMPDEST PUSH2 0x1506 PUSH2 0x1501 DUP3 PUSH1 0x0 ADD MLOAD DUP12 DUP6 PUSH2 0x1F8E JUMP JUMPDEST PUSH2 0x2116 JUMP JUMPDEST SWAP4 POP JUMPDEST PUSH2 0x1516 DUP10 DUP10 DUP7 DUP5 DUP11 PUSH2 0x212C JUMP JUMPDEST SWAP3 POP POP POP JUMPDEST SWAP6 POP SWAP6 SWAP4 POP POP POP POP JUMP JUMPDEST PUSH1 0x0 DUP1 PUSH2 0xB40 PUSH1 0x21 PUSH2 0x1A6E JUMP JUMPDEST PUSH1 0x0 DUP1 DUP3 SLT ISZERO PUSH2 0x154C JUMPI PUSH2 0x1545 DUP3 PUSH2 0x479 JUMP JUMPDEST SWAP1 POP PUSH2 0x48A JUMP JUMPDEST POP DUP1 PUSH2 0x48A JUMP JUMPDEST PUSH1 0x0 DUP1 PUSH2 0xB40 PUSH1 0x3 PUSH2 0x1A6E JUMP JUMPDEST PUSH1 0x0 CHAINID PUSH1 0x1 DUP2 EQ DUP1 ISZERO PUSH2 0x12C9 JUMPI POP POP POP PUSH1 0x4 PUSH2 0xFFFF SWAP1 SWAP2 AND GT ISZERO SWAP1 JUMP JUMPDEST PUSH1 0xC PUSH1 0x30 SWAP2 SWAP1 SWAP2 SHL PUSH8 0xFFFF000000000000 AND OR SWAP1 JUMP JUMPDEST PUSH1 0x0 DUP4 PUSH2 0x15A2 JUMPI POP PUSH1 0x0 PUSH2 0x585 JUMP JUMPDEST PUSH1 0x0 DUP5 SLT PUSH2 0x15AF JUMPI PUSH1 0x0 DUP1 REVERT JUMPDEST PUSH1 0x0 PUSH2 0x15BE DUP7 PUSH2 0xFFFF AND PUSH2 0xB46 JUMP JUMPDEST SWAP1 POP PUSH2 0x15CE DUP2 PUSH2 0x145E DUP7 DUP9 PUSH2 0x13FB JUMP JUMPDEST SWAP2 POP PUSH1 0x0 PUSH2 0x15DB DUP4 PUSH2 0x479 JUMP JUMPDEST SWAP1 POP PUSH2 0x15E8 DUP8 DUP4 DUP4 PUSH2 0x2173 JUMP JUMPDEST PUSH1 0x3 DUP3 PUSH1 0x60 ADD MLOAD PUSH1 0x5 DUP2 GT ISZERO PUSH2 0x15FA JUMPI INVALID JUMPDEST EQ ISZERO PUSH2 0x1610 JUMPI PUSH2 0x160B DUP9 DUP3 DUP7 PUSH2 0x1EC1 JUMP JUMPDEST PUSH2 0x161D JUMP JUMPDEST DUP2 MLOAD PUSH2 0x161D SWAP1 DUP10 DUP4 PUSH2 0x226B JUMP JUMPDEST PUSH2 0x162A DUP9 DUP9 DUP6 DUP6 DUP10 PUSH2 0x212C JUMP JUMPDEST POP POP POP SWAP6 SWAP5 POP POP POP POP POP JUMP JUMPDEST DUP3 MLOAD PUSH1 0x0 SWAP1 TIMESTAMP SWAP1 DUP3 SWAP1 PUSH2 0x164C SWAP1 PUSH2 0xFFFF AND PUSH2 0x22E2 JUMP JUMPDEST SWAP1 POP PUSH1 0x0 PUSH2 0x1659 DUP3 PUSH2 0x2308 JUMP JUMPDEST POP POP SWAP1 POP PUSH1 0x0 PUSH2 0x166E DUP4 DUP10 PUSH1 0xC0 ADD MLOAD DUP7 PUSH2 0x2364 JUMP JUMPDEST SWAP1 POP PUSH2 0x167C DUP9 DUP5 DUP4 DUP10 PUSH2 0x2447 JUMP JUMPDEST SWAP5 POP PUSH1 0x0 PUSH2 0x1689 DUP5 PUSH2 0x2574 JUMP JUMPDEST SWAP1 POP PUSH1 0x1 PUSH1 0x1 PUSH1 0xA0 SHL SUB DUP2 AND ISZERO PUSH2 0x1711 JUMPI DUP1 PUSH1 0x1 PUSH1 0x1 PUSH1 0xA0 SHL SUB AND PUSH4 0x3F3EF50D DUP10 DUP12 PUSH1 0x0 ADD MLOAD PUSH2 0x16BC DUP14 PUSH1 0x40 ADD MLOAD PUSH2 0x1EAE JUMP JUMPDEST DUP12 DUP9 PUSH1 0x40 MLOAD DUP7 PUSH4 0xFFFFFFFF AND PUSH1 0xE0 SHL DUP2 MSTORE PUSH1 0x4 ADD PUSH2 0x16DE SWAP6 SWAP5 SWAP4 SWAP3 SWAP2 SWAP1 PUSH2 0x4CC3 JUMP JUMPDEST PUSH1 0x0 PUSH1 0x40 MLOAD DUP1 DUP4 SUB DUP2 PUSH1 0x0 DUP8 DUP1 EXTCODESIZE ISZERO DUP1 ISZERO PUSH2 0x16F8 JUMPI PUSH1 0x0 DUP1 REVERT JUMPDEST POP GAS CALL ISZERO DUP1 ISZERO PUSH2 0x170C JUMPI RETURNDATASIZE PUSH1 0x0 DUP1 RETURNDATACOPY RETURNDATASIZE PUSH1 0x0 REVERT JUMPDEST POP POP POP POP JUMPDEST DUP6 ISZERO PUSH2 0x1721 JUMPI PUSH2 0x1721 DUP9 DUP8 PUSH2 0x25E6 JUMP JUMPDEST POP POP POP POP POP SWAP4 SWAP3 POP POP POP JUMP JUMPDEST PUSH1 0x0 PUSH2 0x1737 PUSH2 0x2609 JUMP JUMPDEST PUSH1 0x1 PUSH1 0x1 PUSH1 0xA0 SHL SUB DUP10 AND PUSH1 0x0 SWAP1 DUP2 MSTORE PUSH1 0x20 DUP3 DUP2 MSTORE PUSH1 0x40 DUP1 DUP4 KECCAK256 PUSH2 0xFFFF DUP13 AND DUP5 MSTORE SWAP1 SWAP2 MSTORE SWAP1 KECCAK256 SWAP1 SWAP2 POP DUP5 PUSH2 0x179F JUMPI PUSH7 0xFFFFFFFFFFFFFF DUP5 GT ISZERO PUSH2 0x1778 JUMPI PUSH1 0x0 DUP1 REVERT JUMPDEST DUP1 SLOAD PUSH7 0xFFFFFFFFFFFFFF PUSH1 0x70 SHL NOT AND PUSH1 0x1 PUSH1 0x70 SHL PUSH7 0xFFFFFFFFFFFFFF DUP7 AND MUL OR DUP2 SSTORE PUSH2 0x17B9 JUMP JUMPDEST DUP1 SLOAD PUSH1 0x1 PUSH1 0x50 SHL SWAP1 DIV PUSH4 0xFFFFFFFF AND DUP6 EQ PUSH2 0x17B9 JUMPI PUSH1 0x0 DUP1 REVERT JUMPDEST PUSH2 0x17C2 DUP6 PUSH2 0x2616 JUMP JUMPDEST DUP2 SLOAD PUSH4 0xFFFFFFFF SWAP2 SWAP1 SWAP2 AND PUSH1 0x1 PUSH1 0x50 SHL MUL PUSH4 0xFFFFFFFF PUSH1 0x50 SHL NOT SWAP1 SWAP2 AND OR DUP2 SSTORE PUSH2 0x17F3 PUSH2 0x17EE DUP8 PUSH2 0x1EAE JUMP JUMPDEST PUSH2 0x2629 JUMP JUMPDEST DUP2 SLOAD PUSH10 0xFFFFFFFFFFFFFFFFFFFF NOT AND PUSH1 0x1 PUSH1 0x1 PUSH1 0x50 SHL SUB SWAP2 SWAP1 SWAP2 AND OR DUP1 DUP3 SSTORE PUSH2 0x1839 SWAP1 PUSH2 0x1834 SWAP1 DUP6 SWAP1 DUP13 SWAP1 DUP13 SWAP1 PUSH1 0x1 PUSH1 0xA8 SHL SWAP1 DIV PUSH1 0xA SWAP1 DUP2 SIGNEXTEND SWAP1 SIGNEXTEND DUP13 PUSH2 0x263F JUMP JUMPDEST PUSH2 0x2662 JUMP JUMPDEST DUP2 SLOAD PUSH1 0xA SWAP2 SWAP1 SWAP2 SIGNEXTEND PUSH1 0x1 PUSH1 0x1 PUSH1 0x58 SHL SUB AND PUSH1 0x1 PUSH1 0xA8 SHL MUL PUSH1 0x1 PUSH1 0x1 PUSH1 0xA8 SHL SUB SWAP1 SWAP2 AND OR SWAP1 SSTORE POP POP POP POP POP POP POP POP JUMP JUMPDEST DUP3 PUSH1 0x0 LT DUP1 ISZERO PUSH2 0x187A JUMPI POP PUSH2 0x3FFF DUP4 GT ISZERO JUMPDEST PUSH2 0x1883 JUMPI PUSH1 0x0 DUP1 REVERT JUMPDEST DUP2 DUP1 ISZERO PUSH2 0x1897 JUMPI POP DUP3 DUP5 PUSH1 0x60 ADD MLOAD PUSH2 0xFFFF AND EQ JUMPDEST ISZERO PUSH2 0x18A1 JUMPI PUSH2 0x5AC JUMP JUMPDEST PUSH1 0x80 DUP5 ADD MLOAD PUSH1 0x0 SWAP1 DUP2 JUMPDEST PUSH1 0x1 PUSH1 0x1 PUSH1 0x70 SHL SUB NOT DUP3 AND ISZERO PUSH2 0x1A23 JUMPI PUSH1 0xF0 DUP3 SWAP1 SHR PUSH2 0x3FFF AND DUP7 DUP2 EQ DUP1 ISZERO PUSH2 0x18D0 JUMPI POP DUP6 JUMPDEST ISZERO PUSH2 0x1908 JUMPI POP PUSH1 0x80 DUP8 ADD DUP1 MLOAD PUSH1 0x1 PUSH1 0x1 PUSH1 0xF0 SHL SUB NOT DUP7 AND PUSH1 0x10 SWAP1 SWAP4 MUL SWAP3 SWAP1 SWAP3 SHR SWAP2 SWAP1 SWAP2 OR PUSH1 0x1 PUSH1 0x1 PUSH1 0x70 SHL SUB NOT AND SWAP1 MSTORE POP PUSH2 0x5AC SWAP1 POP JUMP JUMPDEST DUP7 DUP2 EQ DUP1 ISZERO PUSH2 0x1915 JUMPI POP DUP6 ISZERO JUMPDEST ISZERO PUSH2 0x1971 JUMPI PUSH1 0x1 PUSH1 0x1 PUSH1 0xF0 SHL SUB NOT DUP6 AND NOT SWAP3 SWAP1 SWAP3 AND SWAP2 PUSH1 0x3 PUSH1 0xFE SHL DUP4 AND PUSH2 0x194F JUMPI PUSH1 0x10 DUP4 PUSH14 0xFFFFFFFFFFFFFFFFFFFFFFFFFFFF NOT AND SWAP1 SHL SWAP3 POP JUMPDEST POP PUSH1 0x1 PUSH1 0x1 PUSH1 0x70 SHL SUB NOT SWAP2 DUP3 AND PUSH1 0x10 SWAP1 SWAP2 MUL SHR SWAP2 SWAP1 SWAP2 OR AND PUSH1 0x80 DUP6 ADD MSTORE PUSH2 0x5AC JUMP JUMPDEST DUP7 DUP2 GT DUP1 ISZERO PUSH2 0x197D JUMPI POP DUP6 JUMPDEST ISZERO PUSH2 0x19D7 JUMPI PUSH1 0x80 DUP9 DUP2 ADD MLOAD PUSH1 0x1 PUSH1 0x1 PUSH1 0xF0 SHL SUB NOT PUSH1 0xF0 DUP11 SWAP1 SHL DUP9 OR DUP2 AND PUSH1 0x10 DUP7 MUL SHR SWAP7 SWAP1 SWAP7 OR SWAP6 SWAP2 SHL AND ISZERO PUSH2 0x19B1 JUMPI PUSH1 0x0 DUP1 REVERT JUMPDEST POP PUSH1 0x1 PUSH1 0x1 PUSH1 0x70 SHL SUB NOT SWAP2 DUP3 AND PUSH1 0x1 SWAP2 SWAP1 SWAP2 ADD PUSH1 0x10 MUL SHR SWAP2 SWAP1 SWAP2 OR AND PUSH1 0x80 DUP6 ADD MSTORE PUSH2 0x5AC JUMP JUMPDEST DUP7 DUP2 GT DUP1 ISZERO PUSH2 0x19E4 JUMPI POP DUP6 ISZERO JUMPDEST ISZERO PUSH2 0x19F2 JUMPI POP POP POP POP PUSH2 0x5AC JUMP JUMPDEST POP PUSH1 0x1 PUSH1 0x1 PUSH1 0xF0 SHL SUB NOT DUP3 AND PUSH1 0x10 DUP3 DUP2 MUL SWAP2 SWAP1 SWAP2 SHR SWAP4 SWAP1 SWAP4 OR SWAP3 SWAP2 SWAP1 SWAP2 SHL PUSH1 0x1 PUSH1 0x1 PUSH1 0x80 SHL SUB NOT AND SWAP1 PUSH1 0x1 ADD PUSH2 0x18AB JUMP JUMPDEST DUP5 PUSH2 0x1A30 JUMPI POP POP POP PUSH2 0x5AC JUMP JUMPDEST PUSH1 0x9 DUP2 LT PUSH2 0x1A3D JUMPI PUSH1 0x0 DUP1 REVERT JUMPDEST PUSH1 0x1 PUSH1 0x1 PUSH1 0xF0 SHL SUB NOT PUSH1 0xF0 DUP8 SWAP1 SHL DUP6 OR AND PUSH1 0x10 SWAP1 SWAP2 MUL SHR SWAP2 SWAP1 SWAP2 OR PUSH1 0x1 PUSH1 0x1 PUSH1 0x70 SHL SUB NOT AND PUSH1 0x80 DUP7 ADD MSTORE POP POP POP POP POP JUMP JUMPDEST PUSH1 0x0 PUSH3 0xF4240 DUP3 PUSH1 0x26 DUP2 GT ISZERO PUSH2 0x1A80 JUMPI INVALID JUMPDEST ADD SWAP3 SWAP2 POP POP JUMP JUMPDEST PUSH1 0x0 DUP1 PUSH1 0x0 DUP1 PUSH2 0x1A96 DUP7 PUSH2 0x2694 JUMP JUMPDEST SWAP2 POP SWAP2 POP PUSH1 0x0 PUSH2 0x1ACE DUP8 PUSH1 0xE0 ADD MLOAD PUSH1 0x60 ADD MLOAD PUSH2 0x1AC8 DUP5 PUSH2 0xA5F PUSH1 0x64 DUP13 PUSH1 0xC0 ADD MLOAD PUSH1 0x40 ADD MLOAD PUSH2 0xAF2 SWAP1 SWAP2 SWAP1 PUSH4 0xFFFFFFFF AND JUMP JUMPDEST SWAP1 PUSH2 0x1C14 JUMP JUMPDEST SWAP1 POP PUSH1 0x0 DUP2 SGT PUSH2 0x1ADD JUMPI PUSH1 0x0 DUP1 REVERT JUMPDEST PUSH2 0x1AEC DUP2 PUSH2 0xA5F DUP6 PUSH1 0x64 PUSH2 0xAF2 JUMP JUMPDEST SWAP5 POP POP PUSH2 0x1AFE DUP5 DUP8 PUSH1 0x60 ADD MLOAD DUP8 PUSH2 0x1301 JUMP JUMPDEST SWAP4 POP PUSH1 0x0 PUSH2 0x1B1E DUP6 DUP9 PUSH2 0x120 ADD MLOAD PUSH1 0x40 ADD MLOAD PUSH2 0x13FB SWAP1 SWAP2 SWAP1 PUSH4 0xFFFFFFFF AND JUMP JUMPDEST SWAP1 POP PUSH2 0x1B2C DUP8 DUP4 DUP4 DUP9 PUSH2 0x26E8 JUMP JUMPDEST SWAP1 SWAP9 SWAP1 SWAP8 POP SWAP6 POP POP POP POP POP POP JUMP JUMPDEST PUSH1 0x0 PUSH2 0x1B46 DUP4 DUP4 PUSH2 0x1C14 JUMP JUMPDEST SWAP1 POP PUSH1 0x0 DUP2 SLT ISZERO PUSH2 0xB40 JUMPI PUSH1 0x0 DUP1 REVERT JUMPDEST PUSH1 0xA0 DUP4 ADD MLOAD PUSH1 0x80 DUP5 ADD MLOAD PUSH1 0x0 SWAP2 DUP1 DUP4 BYTE SWAP2 PUSH1 0x3 SWAP2 SWAP1 SWAP2 BYTE SWAP1 DUP4 SWAP1 PUSH2 0x1B99 SWAP1 PUSH2 0x1B7E SWAP1 DUP6 PUSH2 0xAF2 JUMP JUMPDEST PUSH2 0xA5F DUP5 PUSH2 0xA59 DUP13 PUSH1 0x40 ADD MLOAD DUP12 PUSH2 0xAF2 SWAP1 SWAP2 SWAP1 PUSH4 0xFFFFFFFF AND JUMP JUMPDEST SWAP1 POP PUSH1 0x0 DUP6 SGT DUP1 ISZERO PUSH2 0x1BAA JUMPI POP DUP5 DUP2 SGT JUMPDEST ISZERO PUSH2 0x1BB2 JUMPI POP DUP4 JUMPDEST DUP8 PUSH1 0x40 ADD MLOAD DUP2 SGT ISZERO PUSH2 0x1BC5 JUMPI POP PUSH1 0x40 DUP8 ADD MLOAD JUMPDEST PUSH2 0x1BCE DUP2 PUSH2 0x479 JUMP JUMPDEST DUP9 PUSH1 0xA0 ADD DUP2 DUP2 MSTORE POP POP PUSH2 0x1C08 PUSH2 0x1C01 DUP10 PUSH1 0x40 ADD MLOAD PUSH2 0xA5F DUP6 PUSH2 0xA5F DUP9 PUSH2 0xA59 DUP15 PUSH1 0x80 ADD MLOAD DUP10 PUSH2 0xAF2 SWAP1 SWAP2 SWAP1 PUSH4 0xFFFFFFFF AND JUMP JUMPDEST DUP8 SWAP1 PUSH2 0x1B3A JUMP JUMPDEST SWAP9 SWAP8 POP POP POP POP POP POP POP POP JUMP JUMPDEST DUP1 DUP3 SUB DUP3 DUP2 SGT ISZERO PUSH1 0x0 DUP4 SLT ISZERO EQ PUSH2 0xB40 JUMPI PUSH1 0x0 DUP1 REVERT JUMPDEST PUSH1 0x0 PUSH2 0x585 DUP6 DUP6 DUP6 DUP6 PUSH1 0x1 PUSH2 0xE33 JUMP JUMPDEST PUSH2 0x1C42 PUSH2 0x42C4 JUMP JUMPDEST PUSH1 0x0 PUSH2 0x1C4D DUP5 PUSH2 0x2775 JUMP JUMPDEST SWAP1 POP DUP3 DUP2 PUSH1 0x0 ADD MLOAD LT ISZERO PUSH2 0x1C8C JUMPI PUSH1 0x0 DUP1 PUSH2 0x1C67 DUP7 PUSH2 0x283D JUMP JUMPDEST SWAP1 POP PUSH2 0x1C75 DUP7 DUP5 DUP4 DUP9 PUSH2 0x28BA JUMP JUMPDEST SWAP1 SWAP4 POP SWAP2 POP PUSH2 0x1C85 DUP7 DUP4 DUP6 PUSH2 0x295E JUMP JUMPDEST POP POP PUSH2 0x1C99 JUMP JUMPDEST DUP1 MLOAD DUP4 EQ PUSH2 0x1C99 JUMPI PUSH1 0x0 DUP1 REVERT JUMPDEST PUSH1 0x40 MLOAD DUP1 PUSH1 0x60 ADD PUSH1 0x40 MSTORE DUP1 PUSH2 0x1CC2 PUSH2 0x1501 DUP5 PUSH1 0xA0 ADD MLOAD DUP6 PUSH1 0xC0 ADD MLOAD PUSH2 0x2B92 SWAP1 SWAP2 SWAP1 PUSH4 0xFFFFFFFF AND JUMP JUMPDEST DUP2 MSTORE PUSH1 0x20 ADD PUSH2 0x1CE5 PUSH2 0x1501 DUP5 PUSH1 0xA0 ADD MLOAD DUP6 PUSH1 0xE0 ADD MLOAD PUSH2 0x2B92 SWAP1 SWAP2 SWAP1 PUSH4 0xFFFFFFFF AND JUMP JUMPDEST DUP2 MSTORE PUSH1 0x20 ADD DUP3 PUSH1 0x60 ADD MLOAD DUP2 MSTORE POP SWAP2 POP POP SWAP3 SWAP2 POP POP JUMP JUMPDEST PUSH1 0x0 DUP2 ISZERO DUP1 ISZERO SWAP1 PUSH2 0x1D0E JUMPI POP PUSH2 0x3FFF DUP3 GT ISZERO JUMPDEST PUSH2 0x1D17 JUMPI PUSH1 0x0 DUP1 REVERT JUMPDEST PUSH1 0x80 DUP4 ADD MLOAD PUSH1 0x60 DUP5 ADD MLOAD PUSH2 0xFFFF AND DUP4 EQ ISZERO PUSH2 0x1D36 JUMPI PUSH1 0x1 SWAP2 POP POP PUSH2 0xB40 JUMP JUMPDEST PUSH1 0x1 PUSH1 0x1 PUSH1 0x70 SHL SUB NOT DUP2 AND ISZERO PUSH2 0x1D7B JUMPI PUSH1 0xF0 DUP2 SWAP1 SHR PUSH2 0x3FFF AND DUP4 DUP2 EQ ISZERO PUSH2 0x1D68 JUMPI POP PUSH1 0x1 PUSH1 0xFE SHL SWAP1 DUP2 AND EQ SWAP1 POP PUSH2 0xB40 JUMP JUMPDEST POP PUSH1 0x10 SHL PUSH1 0x1 PUSH1 0x1 PUSH1 0x80 SHL SUB NOT AND PUSH2 0x1D36 JUMP JUMPDEST POP PUSH1 0x0 SWAP4 SWAP3 POP POP POP JUMP JUMPDEST PUSH1 0x0 DUP1 PUSH1 0x0 DUP1 PUSH1 0x0 PUSH2 0x1D95 PUSH2 0x2609 JUMP JUMPDEST PUSH1 0x1 PUSH1 0x1 PUSH1 0xA0 SHL SUB DUP10 AND PUSH1 0x0 SWAP1 DUP2 MSTORE PUSH1 0x20 DUP3 DUP2 MSTORE PUSH1 0x40 DUP1 DUP4 KECCAK256 PUSH2 0xFFFF DUP13 AND DUP5 MSTORE SWAP1 SWAP2 MSTORE SWAP1 KECCAK256 DUP1 SLOAD PUSH1 0x1 PUSH1 0x1 PUSH1 0x50 SHL SUB DUP2 AND SWAP7 POP PUSH1 0x1 PUSH1 0x50 SHL SWAP1 DIV PUSH4 0xFFFFFFFF AND SWAP5 POP SWAP1 SWAP2 POP DUP4 ISZERO PUSH2 0x1E02 JUMPI DUP1 SLOAD PUSH2 0x1DFB SWAP1 PUSH1 0x1 PUSH1 0x70 SHL SWAP1 DIV PUSH7 0xFFFFFFFFFFFFFF AND PUSH2 0x2BB9 JUMP JUMPDEST SWAP3 POP PUSH2 0x1E17 JUMP JUMPDEST DUP1 SLOAD PUSH1 0x1 PUSH1 0x70 SHL SWAP1 DIV PUSH7 0xFFFFFFFFFFFFFF AND SWAP3 POP JUMPDEST DUP1 SLOAD PUSH2 0x1E32 SWAP1 DUP9 SWAP1 PUSH1 0x1 PUSH1 0xA8 SHL SWAP1 DIV PUSH1 0xA SWAP1 DUP2 SIGNEXTEND SWAP1 SIGNEXTEND PUSH2 0x2BC7 JUMP JUMPDEST SWAP6 POP POP POP SWAP4 POP SWAP4 POP SWAP4 POP SWAP4 JUMP JUMPDEST PUSH1 0x0 DUP1 PUSH2 0x1E61 DUP5 PUSH1 0x20 ADD MLOAD PUSH2 0xA5F DUP7 PUSH1 0x0 ADD MLOAD DUP7 PUSH2 0xAF2 SWAP1 SWAP2 SWAP1 PUSH4 0xFFFFFFFF AND JUMP JUMPDEST SWAP5 SWAP4 POP POP POP POP JUMP JUMPDEST PUSH1 0x0 DUP1 PUSH2 0xB40 PUSH1 0x7 PUSH2 0x1A6E JUMP JUMPDEST PUSH1 0x0 PUSH4 0x5F5E100 DUP4 PUSH1 0x40 ADD MLOAD EQ ISZERO PUSH2 0x1E8F JUMPI POP DUP1 PUSH2 0xB40 JUMP JUMPDEST PUSH2 0x12C9 PUSH4 0x5F5E100 PUSH2 0xA5F DUP6 PUSH1 0x40 ADD MLOAD DUP6 PUSH2 0xAF2 SWAP1 SWAP2 SWAP1 PUSH4 0xFFFFFFFF AND JUMP JUMPDEST PUSH1 0x0 DUP1 DUP3 SLT ISZERO PUSH2 0x1EBD JUMPI PUSH1 0x0 DUP1 REVERT JUMPDEST POP SWAP1 JUMP JUMPDEST DUP1 ISZERO PUSH2 0x1F53 JUMPI PUSH20 0x82AF49447D8A07E3BD95BD0D56F35241523FBAB1 PUSH1 0x1 PUSH1 0x1 PUSH1 0xA0 SHL SUB AND PUSH4 0xD0E30DB0 DUP4 PUSH1 0x40 MLOAD DUP3 PUSH4 0xFFFFFFFF AND PUSH1 0xE0 SHL DUP2 MSTORE PUSH1 0x4 ADD PUSH1 0x0 PUSH1 0x40 MLOAD DUP1 DUP4 SUB DUP2 DUP6 DUP9 DUP1 EXTCODESIZE ISZERO DUP1 ISZERO PUSH2 0x1F16 JUMPI PUSH1 0x0 DUP1 REVERT JUMPDEST POP GAS CALL ISZERO DUP1 ISZERO PUSH2 0x1F2A JUMPI RETURNDATASIZE PUSH1 0x0 DUP1 RETURNDATACOPY RETURNDATASIZE PUSH1 0x0 REVERT JUMPDEST POP POP POP POP POP PUSH2 0x1F4E PUSH20 0x82AF49447D8A07E3BD95BD0D56F35241523FBAB1 DUP5 DUP5 PUSH2 0x226B JUMP JUMPDEST PUSH2 0x1F89 JUMP JUMPDEST PUSH1 0x40 MLOAD PUSH1 0x1 PUSH1 0x1 PUSH1 0xA0 SHL SUB DUP5 AND SWAP1 DUP4 ISZERO PUSH2 0x8FC MUL SWAP1 DUP5 SWAP1 PUSH1 0x0 DUP2 DUP2 DUP2 DUP6 DUP9 DUP9 CALL SWAP4 POP POP POP POP ISZERO DUP1 ISZERO PUSH2 0x5AC JUMPI RETURNDATASIZE PUSH1 0x0 DUP1 RETURNDATACOPY RETURNDATASIZE PUSH1 0x0 REVERT JUMPDEST POP POP POP JUMP JUMPDEST PUSH1 0x0 DUP1 DUP5 PUSH1 0x1 PUSH1 0x1 PUSH1 0xA0 SHL SUB AND PUSH4 0x70A08231 ADDRESS PUSH1 0x40 MLOAD DUP3 PUSH4 0xFFFFFFFF AND PUSH1 0xE0 SHL DUP2 MSTORE PUSH1 0x4 ADD DUP1 DUP3 PUSH1 0x1 PUSH1 0x1 PUSH1 0xA0 SHL SUB AND DUP2 MSTORE PUSH1 0x20 ADD SWAP2 POP POP PUSH1 0x20 PUSH1 0x40 MLOAD DUP1 DUP4 SUB DUP2 DUP7 DUP1 EXTCODESIZE ISZERO DUP1 ISZERO PUSH2 0x1FDE JUMPI PUSH1 0x0 DUP1 REVERT JUMPDEST POP GAS STATICCALL ISZERO DUP1 ISZERO PUSH2 0x1FF2 JUMPI RETURNDATASIZE PUSH1 0x0 DUP1 RETURNDATACOPY RETURNDATASIZE PUSH1 0x0 REVERT JUMPDEST POP POP POP POP PUSH1 0x40 MLOAD RETURNDATASIZE PUSH1 0x20 DUP2 LT ISZERO PUSH2 0x2008 JUMPI PUSH1 0x0 DUP1 REVERT JUMPDEST POP MLOAD PUSH1 0x40 DUP1 MLOAD PUSH4 0x23B872DD PUSH1 0xE0 SHL DUP2 MSTORE PUSH1 0x1 PUSH1 0x1 PUSH1 0xA0 SHL SUB DUP8 DUP2 AND PUSH1 0x4 DUP4 ADD MSTORE ADDRESS PUSH1 0x24 DUP4 ADD MSTORE PUSH1 0x44 DUP3 ADD DUP8 SWAP1 MSTORE SWAP2 MLOAD SWAP3 SWAP4 POP SWAP1 DUP8 AND SWAP2 PUSH4 0x23B872DD SWAP2 PUSH1 0x64 DUP1 DUP3 ADD SWAP3 PUSH1 0x0 SWAP3 SWAP1 SWAP2 SWAP1 DUP3 SWAP1 SUB ADD DUP2 DUP4 DUP8 DUP1 EXTCODESIZE ISZERO DUP1 ISZERO PUSH2 0x2065 JUMPI PUSH1 0x0 DUP1 REVERT JUMPDEST POP GAS CALL ISZERO DUP1 ISZERO PUSH2 0x2079 JUMPI RETURNDATASIZE PUSH1 0x0 DUP1 RETURNDATACOPY RETURNDATASIZE PUSH1 0x0 REVERT JUMPDEST POP POP POP POP PUSH2 0x2085 PUSH2 0x2BEE JUMP JUMPDEST PUSH1 0x0 DUP6 PUSH1 0x1 PUSH1 0x1 PUSH1 0xA0 SHL SUB AND PUSH4 0x70A08231 ADDRESS PUSH1 0x40 MLOAD DUP3 PUSH4 0xFFFFFFFF AND PUSH1 0xE0 SHL DUP2 MSTORE PUSH1 0x4 ADD DUP1 DUP3 PUSH1 0x1 PUSH1 0x1 PUSH1 0xA0 SHL SUB AND DUP2 MSTORE PUSH1 0x20 ADD SWAP2 POP POP PUSH1 0x20 PUSH1 0x40 MLOAD DUP1 DUP4 SUB DUP2 DUP7 DUP1 EXTCODESIZE ISZERO DUP1 ISZERO PUSH2 0x20D4 JUMPI PUSH1 0x0 DUP1 REVERT JUMPDEST POP GAS STATICCALL ISZERO DUP1 ISZERO PUSH2 0x20E8 JUMPI RETURNDATASIZE PUSH1 0x0 DUP1 RETURNDATACOPY RETURNDATASIZE PUSH1 0x0 REVERT JUMPDEST POP POP POP POP PUSH1 0x40 MLOAD RETURNDATASIZE PUSH1 0x20 DUP2 LT ISZERO PUSH2 0x20FE JUMPI PUSH1 0x0 DUP1 REVERT JUMPDEST POP MLOAD SWAP1 POP PUSH2 0x210C DUP2 DUP4 PUSH2 0x2C5B JUMP JUMPDEST SWAP7 SWAP6 POP POP POP POP POP POP JUMP JUMPDEST PUSH1 0x0 PUSH1 0x1 PUSH1 0x1 PUSH1 0xFF SHL SUB DUP3 GT ISZERO PUSH2 0x1EBD JUMPI PUSH1 0x0 DUP1 REVERT JUMPDEST PUSH1 0x0 DUP1 PUSH2 0x2139 DUP5 DUP7 PUSH2 0x2C70 JUMP JUMPDEST SWAP1 POP PUSH2 0x2145 DUP4 DUP3 PUSH2 0x12A7 JUMP JUMPDEST SWAP2 POP PUSH2 0x2152 DUP8 DUP8 DUP5 PUSH2 0x2CA0 JUMP JUMPDEST PUSH2 0x215D DUP7 DUP4 DUP4 PUSH2 0x2D20 JUMP JUMPDEST DUP4 MLOAD PUSH2 0x2169 SWAP1 DUP7 PUSH2 0x2E24 JUMP JUMPDEST POP SWAP6 SWAP5 POP POP POP POP POP JUMP JUMPDEST PUSH1 0x0 PUSH2 0x217D PUSH2 0x2E7E JUMP JUMPDEST DUP4 MLOAD PUSH1 0x1 PUSH1 0x1 PUSH1 0xA0 SHL SUB AND PUSH1 0x0 SWAP1 DUP2 MSTORE PUSH1 0x20 DUP3 SWAP1 MSTORE PUSH1 0x40 SWAP1 KECCAK256 SLOAD SWAP1 SWAP2 POP DUP1 DUP4 GT PUSH2 0x21A8 JUMPI POP POP PUSH2 0x1F89 JUMP JUMPDEST PUSH1 0x0 PUSH2 0x21B3 DUP7 PUSH2 0x2E8B JUMP JUMPDEST SWAP1 POP PUSH1 0x0 DUP2 PUSH1 0x1 PUSH1 0x1 PUSH1 0xA0 SHL SUB AND PUSH4 0xB5E4DA23 DUP5 DUP8 SUB PUSH1 0x40 MLOAD DUP3 PUSH4 0xFFFFFFFF AND PUSH1 0xE0 SHL DUP2 MSTORE PUSH1 0x4 ADD PUSH2 0x21E5 SWAP2 SWAP1 PUSH2 0x4E97 JUMP JUMPDEST PUSH1 0x0 PUSH1 0x40 MLOAD DUP1 DUP4 SUB DUP2 DUP7 DUP1 EXTCODESIZE ISZERO DUP1 ISZERO PUSH2 0x21FD JUMPI PUSH1 0x0 DUP1 REVERT JUMPDEST POP GAS STATICCALL ISZERO DUP1 ISZERO PUSH2 0x2211 JUMPI RETURNDATASIZE PUSH1 0x0 DUP1 RETURNDATACOPY RETURNDATASIZE PUSH1 0x0 REVERT JUMPDEST POP POP POP POP PUSH1 0x40 MLOAD RETURNDATASIZE PUSH1 0x0 DUP3 RETURNDATACOPY PUSH1 0x1F RETURNDATASIZE SWAP1 DUP2 ADD PUSH1 0x1F NOT AND DUP3 ADD PUSH1 0x40 MSTORE PUSH2 0x2239 SWAP2 SWAP1 DUP2 ADD SWAP1 PUSH2 0x49F8 JUMP JUMPDEST SWAP1 POP PUSH1 0x0 PUSH2 0x2247 DUP8 DUP4 PUSH2 0x2EBB JUMP JUMPDEST SWAP2 POP PUSH2 0x2255 SWAP1 POP DUP5 DUP3 PUSH2 0x30D2 JUMP JUMPDEST DUP7 GT ISZERO PUSH2 0x2261 JUMPI PUSH1 0x0 DUP1 REVERT JUMPDEST POP POP POP POP POP POP POP POP JUMP JUMPDEST DUP3 PUSH1 0x1 PUSH1 0x1 PUSH1 0xA0 SHL SUB AND PUSH4 0xA9059CBB DUP4 DUP4 PUSH1 0x40 MLOAD DUP4 PUSH4 0xFFFFFFFF AND PUSH1 0xE0 SHL DUP2 MSTORE PUSH1 0x4 ADD DUP1 DUP4 PUSH1 0x1 PUSH1 0x1 PUSH1 0xA0 SHL SUB AND DUP2 MSTORE PUSH1 0x20 ADD DUP3 DUP2 MSTORE PUSH1 0x20 ADD SWAP3 POP POP POP PUSH1 0x0 PUSH1 0x40 MLOAD DUP1 DUP4 SUB DUP2 PUSH1 0x0 DUP8 DUP1 EXTCODESIZE ISZERO DUP1 ISZERO PUSH2 0x22C2 JUMPI PUSH1 0x0 DUP1 REVERT JUMPDEST POP GAS CALL ISZERO DUP1 ISZERO PUSH2 0x22D6 JUMPI RETURNDATASIZE PUSH1 0x0 DUP1 RETURNDATACOPY RETURNDATASIZE PUSH1 0x0 REVERT JUMPDEST POP POP POP POP PUSH2 0x1F89 PUSH2 0x2BEE JUMP JUMPDEST PUSH1 0x0 DUP1 PUSH2 0x22ED PUSH2 0x1553 JUMP JUMPDEST PUSH1 0x0 SWAP4 DUP5 MSTORE PUSH1 0x20 MSTORE POP POP PUSH1 0x40 SWAP1 KECCAK256 SLOAD PUSH1 0x1 PUSH1 0x1 PUSH1 0xA0 SHL SUB AND SWAP1 JUMP JUMPDEST PUSH1 0x0 DUP1 PUSH1 0x0 DUP1 PUSH2 0x2316 PUSH2 0x30E4 JUMP JUMPDEST PUSH1 0x1 PUSH1 0x1 PUSH1 0xA0 SHL SUB SWAP6 SWAP1 SWAP6 AND PUSH1 0x0 SWAP1 DUP2 MSTORE PUSH1 0x20 SWAP6 SWAP1 SWAP6 MSTORE POP POP PUSH1 0x40 SWAP1 SWAP3 KECCAK256 SLOAD PUSH1 0x1 PUSH1 0x1 PUSH1 0x60 SHL SUB DUP2 AND SWAP4 PUSH1 0x1 PUSH1 0x60 SHL DUP3 DIV PUSH1 0x1 PUSH1 0x1 PUSH1 0x80 SHL SUB AND SWAP4 POP PUSH1 0x1 PUSH1 0xE0 SHL SWAP1 SWAP2 DIV PUSH4 0xFFFFFFFF AND SWAP2 POP JUMP JUMPDEST PUSH1 0x0 DUP1 PUSH1 0x0 PUSH2 0x2373 DUP7 DUP6 PUSH2 0x30F1 JUMP JUMPDEST POP SWAP2 POP SWAP2 POP PUSH1 0x0 PUSH2 0x2382 PUSH2 0x30E4 JUMP JUMPDEST PUSH1 0x1 PUSH1 0x1 PUSH1 0xA0 SHL SUB DUP9 AND PUSH1 0x0 SWAP1 DUP2 MSTORE PUSH1 0x20 DUP3 SWAP1 MSTORE PUSH1 0x40 DUP2 KECCAK256 SWAP2 SWAP3 POP PUSH2 0x23A7 DUP6 DUP10 PUSH2 0x134B JUMP JUMPDEST SWAP1 POP DUP1 PUSH1 0x0 SGT ISZERO DUP1 ISZERO PUSH2 0x23C0 JUMPI POP PUSH1 0x1 PUSH1 0x1 PUSH1 0x60 SHL SUB DUP2 LT JUMPDEST PUSH2 0x23C9 JUMPI PUSH1 0x0 DUP1 REVERT JUMPDEST DUP2 SLOAD PUSH12 0xFFFFFFFFFFFFFFFFFFFFFFFF NOT AND PUSH1 0x1 PUSH1 0x1 PUSH1 0x60 SHL SUB DUP3 AND OR PUSH16 0xFFFFFFFFFFFFFFFFFFFFFFFFFFFFFFFF PUSH1 0x60 SHL NOT AND PUSH1 0x1 PUSH1 0x60 SHL PUSH1 0x1 PUSH1 0x1 PUSH1 0x80 SHL SUB DUP7 AND MUL OR DUP3 SSTORE PUSH4 0xFFFFFFFF DUP8 LT PUSH2 0x241E JUMPI PUSH1 0x0 DUP1 REVERT JUMPDEST POP DUP1 SLOAD PUSH4 0xFFFFFFFF DUP8 AND PUSH1 0x1 PUSH1 0xE0 SHL MUL PUSH1 0x1 PUSH1 0x1 PUSH1 0xE0 SHL SUB SWAP1 SWAP2 AND OR SWAP1 SSTORE POP SWAP2 POP POP SWAP4 SWAP3 POP POP POP JUMP JUMPDEST PUSH1 0xE0 DUP5 ADD MLOAD PUSH1 0x0 SWAP1 ISZERO PUSH2 0x2508 JUMPI PUSH20 0x0 PUSH4 0xE0C01A72 DUP6 PUSH2 0x247C DUP9 PUSH1 0x40 ADD MLOAD PUSH2 0x1EAE JUMP JUMPDEST DUP9 PUSH1 0xE0 ADD MLOAD DUP10 PUSH2 0x100 ADD MLOAD PUSH1 0x40 MLOAD DUP6 PUSH4 0xFFFFFFFF AND PUSH1 0xE0 SHL DUP2 MSTORE PUSH1 0x4 ADD PUSH2 0x24A6 SWAP5 SWAP4 SWAP3 SWAP2 SWAP1 PUSH2 0x4CF5 JUMP JUMPDEST PUSH1 0x20 PUSH1 0x40 MLOAD DUP1 DUP4 SUB DUP2 DUP7 DUP1 EXTCODESIZE ISZERO DUP1 ISZERO PUSH2 0x24BE JUMPI PUSH1 0x0 DUP1 REVERT JUMPDEST POP GAS DELEGATECALL ISZERO DUP1 ISZERO PUSH2 0x24D2 JUMPI RETURNDATASIZE PUSH1 0x0 DUP1 RETURNDATACOPY RETURNDATASIZE PUSH1 0x0 REVERT JUMPDEST POP POP POP POP PUSH1 0x40 MLOAD RETURNDATASIZE PUSH1 0x1F NOT PUSH1 0x1F DUP3 ADD AND DUP3 ADD DUP1 PUSH1 0x40 MSTORE POP DUP2 ADD SWAP1 PUSH2 0x24F6 SWAP2 SWAP1 PUSH2 0x4BF8 JUMP JUMPDEST PUSH1 0x0 PUSH1 0xE0 DUP8 ADD DUP2 SWAP1 MSTORE PUSH2 0x100 DUP8 ADD MSTORE SWAP1 POP JUMPDEST PUSH2 0x254A PUSH2 0x2543 DUP7 PUSH2 0x100 ADD MLOAD PUSH2 0x253D PUSH8 0xDE0B6B3A7640000 PUSH2 0x2537 DUP9 PUSH2 0x2531 DUP13 PUSH1 0x40 ADD MLOAD PUSH2 0x1EAE JUMP JUMPDEST SWAP1 PUSH2 0x2B92 JUMP JUMPDEST SWAP1 PUSH2 0x3187 JUMP JUMPDEST SWAP1 PUSH2 0x2C5B JUMP JUMPDEST DUP3 SWAP1 PUSH2 0x30D2 JUMP JUMPDEST SWAP1 POP PUSH2 0x2562 PUSH8 0xDE0B6B3A7640000 PUSH2 0x2537 DUP5 DUP7 PUSH2 0x2B92 JUMP JUMPDEST DUP6 PUSH2 0x100 ADD DUP2 DUP2 MSTORE POP POP SWAP5 SWAP4 POP POP POP POP JUMP JUMPDEST PUSH1 0x0 DUP1 PUSH2 0x257F PUSH2 0x31A6 JUMP JUMPDEST PUSH1 0x1 PUSH1 0x1 PUSH1 0xA0 SHL SUB DUP5 AND PUSH1 0x0 SWAP1 DUP2 MSTORE PUSH1 0x20 DUP3 SWAP1 MSTORE PUSH1 0x40 SWAP1 KECCAK256 DUP1 SLOAD SWAP2 SWAP3 POP SWAP1 PUSH1 0x1 PUSH1 0xF8 SHL SWAP1 DIV PUSH1 0xFF AND ISZERO PUSH2 0x25DB JUMPI PUSH2 0x25B4 PUSH2 0x31B3 JUMP JUMPDEST PUSH1 0x1 PUSH1 0x1 PUSH1 0xA0 SHL SUB DUP1 DUP7 AND PUSH1 0x0 SWAP1 DUP2 MSTORE PUSH1 0x20 SWAP3 SWAP1 SWAP3 MSTORE PUSH1 0x40 SWAP1 SWAP2 KECCAK256 SLOAD AND SWAP3 POP PUSH2 0x48A SWAP2 POP POP JUMP JUMPDEST PUSH1 0x0 SWAP3 POP POP POP PUSH2 0x48A JUMP JUMPDEST PUSH2 0x2605 PUSH20 0x19BE259BC299F3F653688C7655C87F998BC7BC1 DUP4 DUP4 PUSH2 0x226B JUMP JUMPDEST POP POP JUMP JUMPDEST PUSH1 0x0 DUP1 PUSH2 0xB40 PUSH1 0x6 PUSH2 0x1A6E JUMP JUMPDEST PUSH1 0x0 PUSH4 0xFFFFFFFF DUP3 GT ISZERO PUSH2 0x1EBD JUMPI PUSH1 0x0 DUP1 REVERT JUMPDEST PUSH1 0x0 PUSH1 0x1 PUSH1 0x1 PUSH1 0x50 SHL SUB DUP3 GT ISZERO PUSH2 0x1EBD JUMPI PUSH1 0x0 DUP1 REVERT JUMPDEST PUSH1 0x0 PUSH2 0x264B DUP7 DUP4 PUSH2 0x31C0 JUMP JUMPDEST SWAP1 POP PUSH2 0x585 DUP7 DUP7 DUP7 PUSH2 0x265D DUP8 DUP7 PUSH2 0x31F9 JUMP JUMPDEST PUSH2 0x3280 JUMP JUMPDEST PUSH1 0x0 PUSH11 0x7FFFFFFFFFFFFFFFFFFFFF NOT DUP3 SLT DUP1 ISZERO SWAP1 PUSH2 0x268B JUMPI POP PUSH11 0x7FFFFFFFFFFFFFFFFFFFFF DUP3 SGT ISZERO JUMPDEST PUSH2 0x1EBD JUMPI PUSH1 0x0 DUP1 REVERT JUMPDEST PUSH1 0x0 DUP1 PUSH2 0x26C5 PUSH2 0x26B5 PUSH2 0x26AA DUP6 PUSH1 0x20 ADD MLOAD PUSH2 0x479 JUMP JUMPDEST PUSH1 0xE0 DUP7 ADD MLOAD SWAP1 PUSH2 0x1E3F JUMP JUMPDEST PUSH2 0x120 DUP6 ADD MLOAD PUSH1 0x40 ADD MLOAD SWAP1 PUSH2 0x12A7 JUMP JUMPDEST SWAP2 POP PUSH2 0x26E1 DUP4 PUSH1 0xE0 ADD MLOAD PUSH1 0x80 ADD MLOAD DUP5 PUSH1 0xC0 ADD MLOAD PUSH1 0x80 ADD MLOAD PUSH2 0x32AD JUMP JUMPDEST SWAP1 POP SWAP2 POP SWAP2 JUMP JUMPDEST PUSH1 0x0 DUP1 PUSH1 0x0 PUSH2 0x271B DUP7 PUSH2 0xA5F PUSH2 0x2706 DUP11 PUSH1 0xC0 ADD MLOAD DUP12 PUSH1 0xE0 ADD MLOAD PUSH2 0x32C3 JUMP JUMPDEST PUSH1 0xC0 DUP12 ADD MLOAD MLOAD PUSH2 0xA5F SWAP1 PUSH2 0xA59 DUP12 PUSH1 0x64 PUSH2 0xAF2 JUMP JUMPDEST SWAP1 POP PUSH1 0x0 PUSH2 0x2737 DUP3 DUP10 PUSH2 0x100 ADD MLOAD PUSH2 0x12A7 SWAP1 SWAP2 SWAP1 PUSH4 0xFFFFFFFF AND JUMP JUMPDEST SWAP1 POP PUSH1 0x0 PUSH2 0x2748 DUP10 PUSH1 0x40 ADD MLOAD PUSH2 0x479 JUMP JUMPDEST SWAP1 POP DUP1 DUP3 SGT ISZERO PUSH2 0x2766 JUMPI PUSH2 0x2760 DUP3 PUSH2 0xA5F DUP9 DUP5 PUSH2 0xAF2 JUMP JUMPDEST SWAP6 POP DUP1 SWAP2 POP JUMPDEST POP SWAP4 SWAP8 SWAP4 SWAP7 POP SWAP3 SWAP5 POP POP POP POP POP JUMP JUMPDEST PUSH2 0x277D PUSH2 0x42E5 JUMP JUMPDEST PUSH1 0x0 PUSH2 0x2787 PUSH2 0x32E8 JUMP JUMPDEST PUSH2 0xFFFF SWAP4 DUP5 AND PUSH1 0x0 SWAP1 DUP2 MSTORE PUSH1 0x20 SWAP2 DUP3 MSTORE PUSH1 0x40 SWAP1 DUP2 SWAP1 KECCAK256 DUP1 SLOAD PUSH5 0xFFFFFFFFFF DUP2 AND DUP7 MSTORE PUSH1 0x1 PUSH1 0x28 SHL DUP2 DIV PUSH1 0x1 PUSH1 0x1 PUSH1 0x58 SHL SUB SWAP1 DUP2 AND SWAP5 DUP8 ADD SWAP5 SWAP1 SWAP5 MSTORE PUSH1 0x1 DUP3 ADD SLOAD DUP5 AND SWAP3 DUP7 ADD SWAP3 SWAP1 SWAP3 MSTORE PUSH1 0x1 PUSH1 0xD8 SHL DUP3 DIV PUSH4 0xFFFFFFFF AND PUSH1 0x60 DUP7 ADD MSTORE PUSH1 0x1 PUSH1 0x80 SHL SWAP1 SWAP2 DIV SWAP1 SWAP2 AND PUSH1 0x80 DUP5 ADD MSTORE PUSH1 0x2 ADD SLOAD PUSH1 0x1 PUSH1 0x1 PUSH1 0x50 SHL SUB DUP1 DUP3 AND PUSH1 0xA0 DUP6 ADD MSTORE PUSH1 0x1 PUSH1 0x50 SHL DUP3 DIV DUP2 AND PUSH1 0xC0 DUP6 ADD MSTORE PUSH1 0x1 PUSH1 0xA0 SHL DUP3 DIV AND PUSH1 0xE0 DUP5 ADD MSTORE PUSH1 0x1 PUSH1 0xF0 SHL SWAP1 DIV PUSH1 0xFF AND PUSH2 0x12C MUL SWAP1 SWAP3 AND PUSH2 0x100 DUP3 ADD MSTORE SWAP2 SWAP1 POP JUMP JUMPDEST PUSH1 0x0 DUP1 PUSH2 0x2849 DUP4 PUSH2 0x2E8B JUMP JUMPDEST PUSH1 0x1 PUSH1 0x1 PUSH1 0xA0 SHL SUB AND PUSH4 0xEF81F216 PUSH1 0x40 MLOAD DUP2 PUSH4 0xFFFFFFFF AND PUSH1 0xE0 SHL DUP2 MSTORE PUSH1 0x4 ADD PUSH1 0x40 DUP1 MLOAD DUP1 DUP4 SUB DUP2 PUSH1 0x0 DUP8 DUP1 EXTCODESIZE ISZERO DUP1 ISZERO PUSH2 0x2882 JUMPI PUSH1 0x0 DUP1 REVERT JUMPDEST POP GAS CALL ISZERO DUP1 ISZERO PUSH2 0x2896 JUMPI RETURNDATASIZE PUSH1 0x0 DUP1 RETURNDATACOPY RETURNDATASIZE PUSH1 0x0 REVERT JUMPDEST POP POP POP POP PUSH1 0x40 MLOAD RETURNDATASIZE PUSH1 0x1F NOT PUSH1 0x1F DUP3 ADD AND DUP3 ADD DUP1 PUSH1 0x40 MSTORE POP DUP2 ADD SWAP1 PUSH2 0x1E61 SWAP2 SWAP1 PUSH2 0x4C10 JUMP JUMPDEST PUSH2 0x28C2 PUSH2 0x42E5 JUMP JUMPDEST PUSH1 0x0 DUP1 PUSH1 0x0 PUSH2 0x28D2 DUP9 DUP7 DUP10 PUSH2 0x32F5 JUMP JUMPDEST PUSH1 0xC0 DUP12 ADD SWAP3 SWAP1 SWAP3 MSTORE PUSH1 0xE0 DUP11 ADD SWAP3 SWAP1 SWAP3 MSTORE PUSH1 0x20 DUP10 ADD MLOAD SWAP2 SWAP4 POP SWAP2 POP PUSH2 0x28F6 SWAP1 DUP4 PUSH2 0x30D2 JUMP JUMPDEST PUSH1 0x20 DUP9 ADD MSTORE PUSH1 0x80 DUP8 ADD MLOAD PUSH1 0x0 SWAP1 ISZERO PUSH2 0x2924 JUMPI PUSH1 0x80 DUP9 ADD MLOAD PUSH2 0x2921 SWAP1 PUSH2 0x291B DUP10 DUP3 PUSH2 0x2C5B JUMP JUMPDEST SWAP1 PUSH2 0x3400 JUMP JUMPDEST SWAP1 POP JUMPDEST PUSH2 0x2944 PUSH2 0x2939 PUSH8 0xDE0B6B3A7640000 DUP4 PUSH2 0x30D2 JUMP JUMPDEST PUSH1 0xA0 DUP11 ADD MLOAD SWAP1 PUSH2 0x341D JUMP JUMPDEST PUSH1 0xA0 DUP10 ADD MSTORE POP POP PUSH1 0x80 DUP7 ADD SWAP5 SWAP1 SWAP5 MSTORE POP POP DUP3 MSTORE SWAP1 SWAP3 SWAP1 SWAP2 POP JUMP JUMPDEST PUSH1 0x0 PUSH2 0x2968 PUSH2 0x32E8 JUMP JUMPDEST PUSH1 0x0 DUP6 PUSH2 0xFFFF AND DUP2 MSTORE PUSH1 0x20 ADD SWAP1 DUP2 MSTORE PUSH1 0x20 ADD PUSH1 0x0 KECCAK256 SWAP1 POP PUSH2 0x298C DUP3 PUSH1 0x0 ADD MLOAD PUSH2 0x343A JUMP JUMPDEST DUP2 SLOAD PUSH5 0xFFFFFFFFFF NOT AND PUSH5 0xFFFFFFFFFF SWAP2 SWAP1 SWAP2 AND OR DUP2 SSTORE PUSH1 0xA0 DUP3 ADD MLOAD PUSH2 0x29B1 SWAP1 PUSH2 0x2629 JUMP JUMPDEST PUSH1 0x2 DUP3 ADD DUP1 SLOAD PUSH10 0xFFFFFFFFFFFFFFFFFFFF NOT AND PUSH1 0x1 PUSH1 0x1 PUSH1 0x50 SHL SUB SWAP3 SWAP1 SWAP3 AND SWAP2 SWAP1 SWAP2 OR SWAP1 SSTORE PUSH1 0xC0 DUP3 ADD MLOAD PUSH2 0x29E4 SWAP1 PUSH2 0x2629 JUMP JUMPDEST DUP2 PUSH1 0x2 ADD PUSH1 0xA PUSH2 0x100 EXP DUP2 SLOAD DUP2 PUSH1 0x1 PUSH1 0x1 PUSH1 0x50 SHL SUB MUL NOT AND SWAP1 DUP4 PUSH1 0x1 PUSH1 0x1 PUSH1 0x50 SHL SUB AND MUL OR SWAP1 SSTORE POP PUSH2 0x2A19 DUP3 PUSH1 0xE0 ADD MLOAD PUSH2 0x2629 JUMP JUMPDEST DUP2 PUSH1 0x2 ADD PUSH1 0x14 PUSH2 0x100 EXP DUP2 SLOAD DUP2 PUSH1 0x1 PUSH1 0x1 PUSH1 0x50 SHL SUB MUL NOT AND SWAP1 DUP4 PUSH1 0x1 PUSH1 0x1 PUSH1 0x50 SHL SUB AND MUL OR SWAP1 SSTORE POP PUSH2 0x2A4E DUP3 PUSH1 0x20 ADD MLOAD PUSH2 0x344E JUMP JUMPDEST DUP2 SLOAD PUSH1 0x1 PUSH1 0x1 PUSH1 0x58 SHL SUB SWAP2 SWAP1 SWAP2 AND PUSH1 0x1 PUSH1 0x28 SHL MUL PUSH16 0xFFFFFFFFFFFFFFFFFFFFFF0000000000 NOT SWAP1 SWAP2 AND OR DUP2 SSTORE PUSH1 0x40 DUP3 ADD MLOAD PUSH2 0x2A88 SWAP1 PUSH2 0x344E JUMP JUMPDEST PUSH1 0x1 DUP3 ADD DUP1 SLOAD PUSH11 0xFFFFFFFFFFFFFFFFFFFFFF NOT AND PUSH1 0x1 PUSH1 0x1 PUSH1 0x58 SHL SUB SWAP3 SWAP1 SWAP3 AND SWAP2 SWAP1 SWAP2 OR SWAP1 SSTORE PUSH1 0x80 DUP3 ADD MLOAD PUSH2 0x2ABC SWAP1 PUSH2 0x344E JUMP JUMPDEST DUP2 SLOAD PUSH1 0x1 PUSH1 0x1 PUSH1 0x58 SHL SUB SWAP2 SWAP1 SWAP2 AND PUSH1 0x1 PUSH1 0x80 SHL MUL PUSH11 0xFFFFFFFFFFFFFFFFFFFFFF PUSH1 0x80 SHL NOT SWAP1 SWAP2 AND OR DUP2 SSTORE PUSH1 0x60 DUP3 ADD MLOAD PUSH2 0x2AF4 SWAP1 PUSH2 0x2616 JUMP JUMPDEST DUP2 SLOAD PUSH4 0xFFFFFFFF SWAP2 SWAP1 SWAP2 AND PUSH1 0x1 PUSH1 0xD8 SHL MUL PUSH4 0xFFFFFFFF PUSH1 0xD8 SHL NOT SWAP1 SWAP2 AND OR DUP2 SSTORE DUP3 ISZERO PUSH2 0x2B40 JUMPI PUSH1 0x0 PUSH2 0x2B25 DUP5 PUSH2 0x2116 JUMP JUMPDEST SWAP1 POP PUSH2 0x2B31 DUP6 DUP3 PUSH2 0x3464 JUMP JUMPDEST PUSH2 0x2B3E PUSH2 0xFEE DUP7 DUP4 PUSH2 0x2CA0 JUMP JUMPDEST POP JUMPDEST DUP4 PUSH2 0xFFFF AND PUSH32 0xEF25641E225E493886510CA1AD6584FA7B442B9FEA820A29D1DE3CE27D270FD2 DUP4 PUSH1 0xA0 ADD MLOAD DUP5 PUSH1 0xC0 ADD MLOAD DUP6 PUSH1 0xE0 ADD MLOAD PUSH1 0x40 MLOAD PUSH2 0x2B84 SWAP4 SWAP3 SWAP2 SWAP1 PUSH2 0x4D29 JUMP JUMPDEST PUSH1 0x40 MLOAD DUP1 SWAP2 SUB SWAP1 LOG2 POP POP POP POP JUMP JUMPDEST PUSH1 0x0 DUP3 PUSH2 0x2BA1 JUMPI POP PUSH1 0x0 PUSH2 0xB40 JUMP JUMPDEST DUP3 DUP3 MUL DUP3 DUP5 DUP3 DUP2 PUSH2 0x2BAE JUMPI INVALID JUMPDEST DIV EQ PUSH2 0x12C9 JUMPI PUSH1 0x0 DUP1 REVERT JUMPDEST PUSH1 0x8 DUP2 SWAP1 SHR PUSH1 0xFF SWAP1 SWAP2 AND SHL SWAP1 JUMP JUMPDEST PUSH1 0x0 DUP1 DUP3 SLT PUSH2 0x2BD7 JUMPI POP DUP1 PUSH2 0xB40 JUMP JUMPDEST DUP3 MLOAD PUSH1 0x20 DUP5 ADD MLOAD PUSH2 0x1448 SWAP2 SWAP1 PUSH2 0xA5F SWAP1 DUP6 SWAP1 PUSH2 0xAF2 JUMP JUMPDEST PUSH1 0x0 PUSH2 0x2BF8 PUSH2 0x4331 JUMP JUMPDEST RETURNDATASIZE DUP1 ISZERO PUSH2 0x2C0C JUMPI PUSH1 0x20 DUP2 EQ PUSH2 0x2C15 JUMPI PUSH1 0x0 DUP1 REVERT JUMPDEST PUSH1 0x1 SWAP3 POP PUSH2 0x2C20 JUMP JUMPDEST PUSH1 0x20 PUSH1 0x0 DUP4 RETURNDATACOPY DUP2 MLOAD SWAP3 POP JUMPDEST POP DUP2 PUSH2 0x2605 JUMPI PUSH1 0x40 DUP1 MLOAD PUSH3 0x461BCD PUSH1 0xE5 SHL DUP2 MSTORE PUSH1 0x20 PUSH1 0x4 DUP3 ADD MSTORE PUSH1 0x5 PUSH1 0x24 DUP3 ADD MSTORE PUSH5 0x455243323 PUSH1 0xDC SHL PUSH1 0x44 DUP3 ADD MSTORE SWAP1 MLOAD SWAP1 DUP2 SWAP1 SUB PUSH1 0x64 ADD SWAP1 REVERT JUMPDEST PUSH1 0x0 DUP3 DUP3 GT ISZERO PUSH2 0x2C6A JUMPI PUSH1 0x0 DUP1 REVERT JUMPDEST POP SWAP1 SUB SWAP1 JUMP JUMPDEST PUSH1 0x0 PUSH4 0x5F5E100 DUP4 PUSH1 0x40 ADD MLOAD EQ ISZERO PUSH2 0x2C89 JUMPI POP DUP1 PUSH2 0xB40 JUMP JUMPDEST PUSH1 0x40 DUP4 ADD MLOAD PUSH2 0x12C9 SWAP1 PUSH2 0xA5F DUP5 PUSH4 0x5F5E100 PUSH2 0xAF2 JUMP JUMPDEST PUSH1 0x0 PUSH2 0x2CAA PUSH2 0x1525 JUMP JUMPDEST PUSH2 0xFFFF DUP5 AND PUSH1 0x0 SWAP1 DUP2 MSTORE PUSH1 0x20 SWAP2 SWAP1 SWAP2 MSTORE PUSH1 0x40 SWAP1 DUP2 SWAP1 KECCAK256 SLOAD SWAP1 MLOAD PUSH4 0xAD1C095D PUSH1 0xE0 SHL DUP2 MSTORE PUSH1 0x1 PUSH1 0x1 PUSH1 0xA0 SHL SUB SWAP1 SWAP2 AND SWAP2 POP DUP2 SWAP1 PUSH4 0xAD1C095D SWAP1 PUSH2 0x2CF2 SWAP1 DUP8 SWAP1 DUP7 SWAP1 PUSH1 0x4 ADD PUSH2 0x4C85 JUMP JUMPDEST PUSH1 0x0 PUSH1 0x40 MLOAD DUP1 DUP4 SUB DUP2 PUSH1 0x0 DUP8 DUP1 EXTCODESIZE ISZERO DUP1 ISZERO PUSH2 0x2D0C JUMPI PUSH1 0x0 DUP1 REVERT JUMPDEST POP GAS CALL ISZERO DUP1 ISZERO PUSH2 0x2261 JUMPI RETURNDATASIZE PUSH1 0x0 DUP1 RETURNDATACOPY RETURNDATASIZE PUSH1 0x0 REVERT JUMPDEST PUSH1 0x0 PUSH2 0x2D2A PUSH2 0x32E8 JUMP JUMPDEST PUSH2 0xFFFF DUP6 AND PUSH1 0x0 SWAP1 DUP2 MSTORE PUSH1 0x20 SWAP2 SWAP1 SWAP2 MSTORE PUSH1 0x40 SWAP1 KECCAK256 DUP1 SLOAD SWAP1 SWAP2 POP PUSH5 0xFFFFFFFFFF AND TIMESTAMP EQ PUSH2 0x2D55 JUMPI PUSH1 0x0 DUP1 REVERT JUMPDEST DUP1 SLOAD PUSH1 0x0 SWAP1 PUSH2 0x2D74 SWAP1 PUSH1 0x1 PUSH1 0x28 SHL SWAP1 DIV PUSH1 0x1 PUSH1 0x1 PUSH1 0x58 SHL SUB AND DUP6 PUSH2 0x134B JUMP JUMPDEST DUP3 SLOAD SWAP1 SWAP2 POP PUSH1 0x0 SWAP1 PUSH2 0x2D96 SWAP1 PUSH1 0x1 PUSH1 0x80 SHL SWAP1 DIV PUSH1 0x1 PUSH1 0x1 PUSH1 0x58 SHL SUB AND DUP6 PUSH2 0x134B JUMP JUMPDEST SWAP1 POP DUP1 PUSH3 0x4C4B40 SGT ISZERO PUSH2 0x2DA8 JUMPI PUSH1 0x0 DUP1 REVERT JUMPDEST PUSH2 0x2DB9 PUSH2 0x2DB4 DUP3 PUSH2 0x1EAE JUMP JUMPDEST PUSH2 0x344E JUMP JUMPDEST DUP4 SLOAD PUSH1 0x1 PUSH1 0x1 PUSH1 0x58 SHL SUB SWAP2 SWAP1 SWAP2 AND PUSH1 0x1 PUSH1 0x80 SHL MUL PUSH11 0xFFFFFFFFFFFFFFFFFFFFFF PUSH1 0x80 SHL NOT SWAP1 SWAP2 AND OR DUP4 SSTORE PUSH2 0x2DEF PUSH2 0x2DB4 DUP4 PUSH2 0x1EAE JUMP JUMPDEST DUP4 SLOAD PUSH1 0x1 PUSH1 0x1 PUSH1 0x58 SHL SUB SWAP2 SWAP1 SWAP2 AND PUSH1 0x1 PUSH1 0x28 SHL MUL PUSH16 0xFFFFFFFFFFFFFFFFFFFFFF0000000000 NOT SWAP1 SWAP2 AND OR DUP4 SSTORE PUSH2 0xE2B DUP4 PUSH2 0x349B JUMP JUMPDEST PUSH1 0x0 PUSH2 0x2E2E PUSH2 0x2E7E JUMP JUMPDEST PUSH1 0x1 PUSH1 0x1 PUSH1 0xA0 SHL SUB DUP5 AND PUSH1 0x0 SWAP1 DUP2 MSTORE PUSH1 0x20 DUP3 SWAP1 MSTORE PUSH1 0x40 SWAP1 KECCAK256 SLOAD SWAP1 SWAP2 POP PUSH2 0x2E5C PUSH2 0x2E57 DUP3 DUP6 PUSH2 0x134B JUMP JUMPDEST PUSH2 0x1EAE JUMP JUMPDEST PUSH1 0x1 PUSH1 0x1 PUSH1 0xA0 SHL SUB SWAP1 SWAP5 AND PUSH1 0x0 SWAP1 DUP2 MSTORE PUSH1 0x20 SWAP3 SWAP1 SWAP3 MSTORE POP PUSH1 0x40 SWAP1 KECCAK256 SWAP2 SWAP1 SWAP2 SSTORE POP JUMP JUMPDEST PUSH1 0x0 DUP1 PUSH2 0xB40 PUSH1 0x26 PUSH2 0x1A6E JUMP JUMPDEST PUSH1 0x0 DUP1 PUSH2 0x2E96 PUSH2 0x3560 JUMP JUMPDEST PUSH2 0xFFFF SWAP4 SWAP1 SWAP4 AND PUSH1 0x0 SWAP1 DUP2 MSTORE PUSH1 0x20 SWAP4 SWAP1 SWAP4 MSTORE POP POP PUSH1 0x40 SWAP1 KECCAK256 SLOAD PUSH1 0x1 PUSH1 0x1 PUSH1 0xA0 SHL SUB AND SWAP1 JUMP JUMPDEST PUSH1 0x0 DUP1 PUSH1 0x0 JUMPDEST DUP4 MLOAD DUP2 LT ISZERO PUSH2 0x30CA JUMPI PUSH1 0x0 DUP5 DUP3 DUP2 MLOAD DUP2 LT PUSH2 0x2ED8 JUMPI INVALID JUMPDEST PUSH1 0x20 MUL PUSH1 0x20 ADD ADD MLOAD SWAP1 POP PUSH1 0x0 DUP2 PUSH1 0x60 ADD MLOAD PUSH1 0x1 PUSH1 0x1 PUSH1 0xA0 SHL SUB AND PUSH4 0x70A08231 ADDRESS PUSH1 0x40 MLOAD DUP3 PUSH4 0xFFFFFFFF AND PUSH1 0xE0 SHL DUP2 MSTORE PUSH1 0x4 ADD PUSH2 0x2F14 SWAP2 SWAP1 PUSH2 0x4C33 JUMP JUMPDEST PUSH1 0x20 PUSH1 0x40 MLOAD DUP1 DUP4 SUB DUP2 DUP7 DUP1 EXTCODESIZE ISZERO DUP1 ISZERO PUSH2 0x2F2C JUMPI PUSH1 0x0 DUP1 REVERT JUMPDEST POP GAS STATICCALL ISZERO DUP1 ISZERO PUSH2 0x2F40 JUMPI RETURNDATASIZE PUSH1 0x0 DUP1 RETURNDATACOPY RETURNDATASIZE PUSH1 0x0 REVERT JUMPDEST POP POP POP POP PUSH1 0x40 MLOAD RETURNDATASIZE PUSH1 0x1F NOT PUSH1 0x1F DUP3 ADD AND DUP3 ADD DUP1 PUSH1 0x40 MSTORE POP DUP2 ADD SWAP1 PUSH2 0x2F64 SWAP2 SWAP1 PUSH2 0x4BF8 JUMP JUMPDEST SWAP1 POP PUSH1 0x0 PUSH2 0x2F72 DUP9 ADDRESS PUSH2 0x356D JUMP JUMPDEST SWAP1 POP PUSH1 0x0 JUMPDEST DUP4 MLOAD MLOAD DUP2 LT ISZERO PUSH2 0x2FCE JUMPI PUSH2 0x2FBD DUP5 PUSH1 0x0 ADD MLOAD DUP3 DUP2 MLOAD DUP2 LT PUSH2 0x2F94 JUMPI INVALID JUMPDEST PUSH1 0x20 MUL PUSH1 0x20 ADD ADD MLOAD PUSH1 0x0 DUP7 PUSH1 0x20 ADD MLOAD DUP5 DUP2 MLOAD DUP2 LT PUSH2 0x2FAE JUMPI INVALID JUMPDEST PUSH1 0x20 MUL PUSH1 0x20 ADD ADD MLOAD PUSH1 0x1 PUSH2 0x3617 JUMP JUMPDEST PUSH2 0x2FC6 JUMPI PUSH1 0x1 SWAP7 POP JUMPDEST PUSH1 0x1 ADD PUSH2 0x2F77 JUMP JUMPDEST POP PUSH1 0x0 PUSH2 0x2FDB DUP10 ADDRESS PUSH2 0x356D JUMP JUMPDEST SWAP1 POP PUSH1 0x0 PUSH2 0x2FE9 DUP3 DUP5 PUSH2 0x2C5B JUMP JUMPDEST SWAP1 POP DUP1 DUP6 PUSH1 0x40 ADD MLOAD GT ISZERO PUSH2 0x2FFC JUMPI PUSH1 0x0 DUP1 REVERT JUMPDEST PUSH1 0x60 DUP6 ADD MLOAD PUSH1 0x40 MLOAD PUSH4 0x70A08231 PUSH1 0xE0 SHL DUP2 MSTORE PUSH1 0x0 SWAP2 PUSH1 0x1 PUSH1 0x1 PUSH1 0xA0 SHL SUB AND SWAP1 PUSH4 0x70A08231 SWAP1 PUSH2 0x302F SWAP1 ADDRESS SWAP1 PUSH1 0x4 ADD PUSH2 0x4C33 JUMP JUMPDEST PUSH1 0x20 PUSH1 0x40 MLOAD DUP1 DUP4 SUB DUP2 DUP7 DUP1 EXTCODESIZE ISZERO DUP1 ISZERO PUSH2 0x3047 JUMPI PUSH1 0x0 DUP1 REVERT JUMPDEST POP GAS STATICCALL ISZERO DUP1 ISZERO PUSH2 0x305B JUMPI RETURNDATASIZE PUSH1 0x0 DUP1 RETURNDATACOPY RETURNDATASIZE PUSH1 0x0 REVERT JUMPDEST POP POP POP POP PUSH1 0x40 MLOAD RETURNDATASIZE PUSH1 0x1F NOT PUSH1 0x1F DUP3 ADD AND DUP3 ADD DUP1 PUSH1 0x40 MSTORE POP DUP2 ADD SWAP1 PUSH2 0x307F SWAP2 SWAP1 PUSH2 0x4BF8 JUMP JUMPDEST SWAP1 POP DUP5 DUP2 GT ISZERO PUSH2 0x308E JUMPI PUSH1 0x0 DUP1 REVERT JUMPDEST PUSH2 0x309D DUP7 PUSH1 0x60 ADD MLOAD DUP7 DUP4 PUSH2 0x3885 JUMP JUMPDEST PUSH2 0x30A7 DUP9 DUP4 PUSH2 0x30D2 JUMP JUMPDEST SWAP8 POP PUSH2 0x30B8 DUP12 PUSH1 0x0 ADD MLOAD DUP6 DUP6 PUSH2 0x3885 JUMP JUMPDEST POP POP PUSH1 0x1 SWAP1 SWAP5 ADD SWAP4 POP PUSH2 0x2EC1 SWAP3 POP POP POP JUMP JUMPDEST POP SWAP3 POP SWAP3 SWAP1 POP JUMP JUMPDEST PUSH1 0x0 DUP3 DUP3 ADD DUP4 DUP2 LT ISZERO PUSH2 0x12C9 JUMPI PUSH1 0x0 DUP1 REVERT JUMPDEST PUSH1 0x0 DUP1 PUSH2 0xB40 PUSH1 0x11 PUSH2 0x1A6E JUMP JUMPDEST PUSH1 0x0 DUP1 PUSH1 0x0 PUSH2 0x30FF DUP6 PUSH2 0x2308 JUMP JUMPDEST SWAP2 SWAP5 POP SWAP3 POP SWAP1 POP DUP1 DUP5 GT DUP1 ISZERO PUSH2 0x3115 JUMPI POP PUSH1 0x0 DUP2 GT JUMPDEST DUP1 ISZERO PUSH2 0x3121 JUMPI POP PUSH1 0x0 DUP4 GT JUMPDEST ISZERO PUSH2 0x3180 JUMPI PUSH1 0x0 PUSH2 0x3131 DUP7 PUSH2 0x3902 JUMP JUMPDEST POP POP POP SWAP2 POP POP PUSH1 0x0 PUSH2 0x315C PUSH2 0x3153 PUSH4 0x5F5E100 DUP5 PUSH2 0x2B92 SWAP1 SWAP2 SWAP1 PUSH4 0xFFFFFFFF AND JUMP JUMPDEST DUP5 DUP9 SUB DUP8 PUSH2 0x396B JUMP JUMPDEST SWAP1 POP PUSH2 0x3168 DUP5 DUP3 PUSH2 0x30D2 JUMP JUMPDEST SWAP4 POP PUSH1 0x1 PUSH1 0x1 PUSH1 0x80 SHL SUB DUP5 LT PUSH2 0x317D JUMPI PUSH1 0x0 DUP1 REVERT JUMPDEST POP POP JUMPDEST SWAP3 POP SWAP3 POP SWAP3 JUMP JUMPDEST PUSH1 0x0 DUP1 DUP3 GT PUSH2 0x3195 JUMPI PUSH1 0x0 DUP1 REVERT JUMPDEST DUP2 DUP4 DUP2 PUSH2 0x319E JUMPI INVALID JUMPDEST DIV SWAP4 SWAP3 POP POP POP JUMP JUMPDEST PUSH1 0x0 DUP1 PUSH2 0xB40 PUSH1 0x2 PUSH2 0x1A6E JUMP JUMPDEST PUSH1 0x0 DUP1 PUSH2 0xB40 PUSH1 0x12 PUSH2 0x1A6E JUMP JUMPDEST PUSH1 0x0 DUP1 DUP3 SLT ISZERO PUSH2 0x31F3 JUMPI PUSH2 0x31EE PUSH1 0x1 PUSH2 0x1AC8 DUP6 PUSH1 0x20 ADD MLOAD PUSH2 0xA5F DUP8 PUSH1 0x0 ADD MLOAD DUP8 PUSH2 0xAF2 SWAP1 SWAP2 SWAP1 PUSH4 0xFFFFFFFF AND JUMP JUMPDEST PUSH2 0x12C9 JUMP JUMPDEST POP SWAP2 SWAP1 POP JUMP JUMPDEST PUSH1 0x0 DUP2 DUP4 EQ DUP1 PUSH2 0x3216 JUMPI POP PUSH1 0x0 DUP4 SLT ISZERO DUP1 ISZERO PUSH2 0x3216 JUMPI POP PUSH1 0x0 DUP3 SLT ISZERO JUMPDEST ISZERO PUSH2 0x3223 JUMPI POP PUSH1 0x0 PUSH2 0xB40 JUMP JUMPDEST PUSH1 0x0 DUP4 SGT ISZERO DUP1 ISZERO PUSH2 0x3234 JUMPI POP DUP2 PUSH1 0x0 SLT JUMPDEST ISZERO PUSH2 0x3240 JUMPI POP DUP2 PUSH2 0xB40 JUMP JUMPDEST PUSH1 0x0 DUP3 SGT ISZERO DUP1 ISZERO PUSH2 0x3251 JUMPI POP DUP3 PUSH1 0x0 SLT JUMPDEST ISZERO PUSH2 0x325F JUMPI PUSH2 0x1448 DUP3 PUSH2 0x479 JUMP JUMPDEST PUSH1 0x0 DUP4 SGT ISZERO DUP1 ISZERO PUSH2 0x3271 JUMPI POP PUSH1 0x0 DUP3 SGT ISZERO JUMPDEST ISZERO PUSH2 0x7B JUMPI PUSH2 0x1448 DUP4 DUP4 PUSH2 0x1C14 JUMP JUMPDEST DUP1 ISZERO PUSH2 0x5AC JUMPI DUP4 MLOAD PUSH1 0x20 DUP6 ADD MLOAD PUSH1 0x0 SWAP2 PUSH2 0x329F SWAP2 PUSH2 0xA5F SWAP1 DUP6 SWAP1 PUSH2 0xAF2 JUMP JUMPDEST SWAP1 POP PUSH2 0x79C DUP5 DUP5 DUP5 DUP5 PUSH2 0x398D JUMP JUMPDEST PUSH1 0x0 DUP2 DUP4 SGT PUSH2 0x32BC JUMPI DUP2 PUSH2 0x12C9 JUMP JUMPDEST POP SWAP1 SWAP2 SWAP1 POP JUMP JUMPDEST PUSH1 0x0 PUSH2 0x12C9 DUP3 PUSH1 0x20 ADD MLOAD PUSH2 0xA5F DUP5 PUSH1 0x0 ADD MLOAD DUP7 PUSH1 0x20 ADD MLOAD PUSH2 0xAF2 SWAP1 SWAP2 SWAP1 PUSH4 0xFFFFFFFF AND JUMP JUMPDEST PUSH1 0x0 DUP1 PUSH2 0xB40 PUSH1 0x1D PUSH2 0x1A6E JUMP JUMPDEST PUSH1 0x0 DUP1 PUSH1 0x0 DUP1 PUSH1 0x0 DUP1 PUSH2 0x3308 DUP10 DUP9 PUSH2 0x3AD3 JUMP JUMPDEST DUP10 MLOAD SWAP1 SWAP6 POP SWAP2 SWAP4 POP SWAP2 POP PUSH1 0x0 SWAP1 PUSH2 0x332F SWAP1 PUSH2 0x3324 SWAP1 DUP12 SWAP1 PUSH2 0x2C5B JUMP JUMPDEST PUSH4 0x3B9ACA00 SWAP1 PUSH2 0x2B92 JUMP JUMPDEST SWAP1 POP PUSH2 0x3369 PUSH2 0x335E PUSH4 0x1DA9C00 PUSH2 0x3346 DUP6 DUP6 PUSH2 0x2B92 JUMP JUMPDEST DUP2 PUSH2 0x334D JUMPI INVALID JUMPDEST PUSH8 0xDE0B6B3A7640000 SWAP2 SWAP1 DIV PUSH2 0x30D2 JUMP JUMPDEST PUSH1 0xE0 DUP11 ADD MLOAD SWAP1 PUSH2 0x341D JUMP JUMPDEST SWAP7 POP PUSH2 0x338B PUSH2 0x3380 PUSH4 0x1DA9C00 PUSH2 0x3346 DUP8 DUP6 PUSH2 0x2B92 JUMP JUMPDEST PUSH1 0xC0 DUP11 ADD MLOAD SWAP1 PUSH2 0x341D JUMP JUMPDEST SWAP6 POP DUP2 DUP4 EQ ISZERO PUSH2 0x33A2 JUMPI POP PUSH1 0x0 SWAP4 POP PUSH2 0x33F7 SWAP2 POP POP JUMP JUMPDEST PUSH1 0x0 PUSH2 0x33C4 PUSH2 0x33B9 PUSH4 0x1DA9C00 PUSH2 0x3346 DUP8 DUP7 PUSH2 0x2B92 JUMP JUMPDEST PUSH1 0xE0 DUP12 ADD MLOAD SWAP1 PUSH2 0x341D JUMP JUMPDEST SWAP1 POP PUSH1 0x0 PUSH2 0x33D2 DUP10 DUP4 PUSH2 0x2C5B JUMP JUMPDEST SWAP1 POP PUSH2 0x33EF DUP9 PUSH2 0x2537 DUP4 DUP14 PUSH1 0x40 ADD MLOAD PUSH2 0x2B92 SWAP1 SWAP2 SWAP1 PUSH4 0xFFFFFFFF AND JUMP JUMPDEST SWAP7 POP POP POP POP POP POP JUMPDEST SWAP4 POP SWAP4 POP SWAP4 POP SWAP4 JUMP JUMPDEST PUSH1 0x0 PUSH2 0x12C9 PUSH2 0x3417 DUP5 PUSH8 0xDE0B6B3A7640000 PUSH2 0x2B92 JUMP JUMPDEST DUP4 PUSH2 0x3187 JUMP JUMPDEST PUSH1 0x0 PUSH2 0x12C9 PUSH2 0x342C DUP5 DUP5 PUSH2 0x2B92 JUMP JUMPDEST PUSH8 0xDE0B6B3A7640000 PUSH2 0x3187 JUMP JUMPDEST PUSH1 0x0 PUSH5 0xFFFFFFFFFF DUP3 GT ISZERO PUSH2 0x1EBD JUMPI PUSH1 0x0 DUP1 REVERT JUMPDEST PUSH1 0x0 PUSH1 0x1 PUSH1 0x1 PUSH1 0x58 SHL SUB DUP3 GT ISZERO PUSH2 0x1EBD JUMPI PUSH1 0x0 DUP1 REVERT JUMPDEST PUSH1 0x0 DUP2 SLT ISZERO PUSH2 0x3472 JUMPI PUSH1 0x0 DUP1 REVERT JUMPDEST PUSH1 0x0 PUSH2 0x3480 PUSH2 0xFEE DUP5 PUSH2 0x3B6D JUMP JUMPDEST SWAP1 POP PUSH2 0x348C DUP2 DUP4 PUSH2 0x134B JUMP JUMPDEST SWAP1 POP PUSH2 0x1F89 PUSH2 0xFEE DUP5 DUP4 PUSH2 0x3BC6 JUMP JUMPDEST DUP1 SLOAD PUSH1 0x2 DUP3 ADD SLOAD PUSH1 0x0 SWAP2 PUSH2 0x34D7 SWAP2 PUSH1 0x1 PUSH1 0x28 SHL SWAP1 SWAP2 DIV PUSH1 0x1 PUSH1 0x1 PUSH1 0x58 SHL SUB AND SWAP1 PUSH2 0xA59 SWAP1 PUSH1 0x1 PUSH1 0x1 PUSH1 0x50 SHL SUB PUSH1 0x1 PUSH1 0x50 SHL DUP3 DIV DUP2 AND SWAP2 AND PUSH2 0xAF2 JUMP JUMPDEST PUSH1 0x1 DUP4 ADD SLOAD PUSH1 0x2 DUP5 ADD SLOAD SWAP2 SWAP3 POP PUSH1 0x0 SWAP2 PUSH2 0x3511 SWAP2 PUSH1 0x1 PUSH1 0x1 PUSH1 0x58 SHL SUB AND SWAP1 PUSH2 0xA59 SWAP1 PUSH1 0x1 PUSH1 0x1 PUSH1 0x50 SHL SUB PUSH1 0x1 PUSH1 0xA0 SHL DUP3 DIV DUP2 AND SWAP2 AND PUSH2 0xAF2 JUMP JUMPDEST DUP4 SLOAD SWAP1 SWAP2 POP PUSH1 0x0 SWAP1 PUSH2 0x3548 SWAP1 PUSH1 0x1 PUSH1 0x1 PUSH1 0x1 PUSH1 0x58 SHL SUB PUSH1 0x1 PUSH1 0x80 SHL SWAP1 SWAP3 DIV DUP3 AND ADD AND PUSH15 0xC097CE7BC90715B34B9F1000000000 PUSH2 0xAF2 JUMP JUMPDEST SWAP1 POP DUP1 PUSH2 0x3555 DUP5 DUP5 PUSH2 0x1C14 JUMP JUMPDEST SGT ISZERO PUSH2 0x5AC JUMPI PUSH1 0x0 DUP1 REVERT JUMPDEST PUSH1 0x0 DUP1 PUSH2 0xB40 PUSH1 0x1F PUSH2 0x1A6E JUMP JUMPDEST PUSH1 0x0 PUSH1 0x3 DUP4 PUSH1 0x60 ADD MLOAD PUSH1 0x5 DUP2 GT ISZERO PUSH2 0x3581 JUMPI INVALID JUMPDEST EQ ISZERO PUSH2 0x3598 JUMPI POP PUSH1 0x1 PUSH1 0x1 PUSH1 0xA0 SHL SUB DUP2 AND BALANCE PUSH2 0xB40 JUMP JUMPDEST DUP3 MLOAD PUSH1 0x40 MLOAD PUSH4 0x70A08231 PUSH1 0xE0 SHL DUP2 MSTORE PUSH1 0x1 PUSH1 0x1 PUSH1 0xA0 SHL SUB SWAP1 SWAP2 AND SWAP1 PUSH4 0x70A08231 SWAP1 PUSH2 0x35C7 SWAP1 DUP6 SWAP1 PUSH1 0x4 ADD PUSH2 0x4C33 JUMP JUMPDEST PUSH1 0x20 PUSH1 0x40 MLOAD DUP1 DUP4 SUB DUP2 DUP7 DUP1 EXTCODESIZE ISZERO DUP1 ISZERO PUSH2 0x35DF JUMPI PUSH1 0x0 DUP1 REVERT JUMPDEST POP GAS STATICCALL ISZERO DUP1 ISZERO PUSH2 0x35F3 JUMPI RETURNDATASIZE PUSH1 0x0 DUP1 RETURNDATACOPY RETURNDATASIZE PUSH1 0x0 REVERT JUMPDEST POP POP POP POP PUSH1 0x40 MLOAD RETURNDATASIZE PUSH1 0x1F NOT PUSH1 0x1F DUP3 ADD AND DUP3 ADD DUP1 PUSH1 0x40 MSTORE POP DUP2 ADD SWAP1 PUSH2 0x1448 SWAP2 SWAP1 PUSH2 0x4BF8 JUMP JUMPDEST PUSH1 0x0 DUP1 PUSH1 0x0 DUP7 PUSH1 0x1 PUSH1 0x1 PUSH1 0xA0 SHL SUB AND DUP7 DUP7 PUSH1 0x40 MLOAD DUP1 DUP3 DUP1 MLOAD SWAP1 PUSH1 0x20 ADD SWAP1 DUP1 DUP4 DUP4 JUMPDEST PUSH1 0x20 DUP4 LT PUSH2 0x3657 JUMPI DUP1 MLOAD DUP3 MSTORE PUSH1 0x1F NOT SWAP1 SWAP3 ADD SWAP2 PUSH1 0x20 SWAP2 DUP3 ADD SWAP2 ADD PUSH2 0x3638 JUMP JUMPDEST PUSH1 0x1 DUP4 PUSH1 0x20 SUB PUSH2 0x100 EXP SUB DUP1 NOT DUP3 MLOAD AND DUP2 DUP5 MLOAD AND DUP1 DUP3 OR DUP6 MSTORE POP POP POP POP POP POP SWAP1 POP ADD SWAP2 POP POP PUSH1 0x0 PUSH1 0x40 MLOAD DUP1 DUP4 SUB DUP2 DUP6 DUP8 GAS CALL SWAP3 POP POP POP RETURNDATASIZE DUP1 PUSH1 0x0 DUP2 EQ PUSH2 0x36B9 JUMPI PUSH1 0x40 MLOAD SWAP2 POP PUSH1 0x1F NOT PUSH1 0x3F RETURNDATASIZE ADD AND DUP3 ADD PUSH1 0x40 MSTORE RETURNDATASIZE DUP3 MSTORE RETURNDATASIZE PUSH1 0x0 PUSH1 0x20 DUP5 ADD RETURNDATACOPY PUSH2 0x36BE JUMP JUMPDEST PUSH1 0x60 SWAP2 POP JUMPDEST POP SWAP2 POP SWAP2 POP DUP4 PUSH2 0x3761 JUMPI DUP2 PUSH2 0x36D2 DUP3 PUSH2 0x3C3A JUMP JUMPDEST SWAP1 PUSH2 0x375B JUMPI PUSH1 0x40 MLOAD PUSH3 0x461BCD PUSH1 0xE5 SHL DUP2 MSTORE PUSH1 0x4 ADD DUP1 DUP1 PUSH1 0x20 ADD DUP3 DUP2 SUB DUP3 MSTORE DUP4 DUP2 DUP2 MLOAD DUP2 MSTORE PUSH1 0x20 ADD SWAP2 POP DUP1 MLOAD SWAP1 PUSH1 0x20 ADD SWAP1 DUP1 DUP4 DUP4 PUSH1 0x0 JUMPDEST DUP4 DUP2 LT ISZERO PUSH2 0x3720 JUMPI DUP2 DUP2 ADD MLOAD DUP4 DUP3 ADD MSTORE PUSH1 0x20 ADD PUSH2 0x3708 JUMP JUMPDEST POP POP POP POP SWAP1 POP SWAP1 DUP2 ADD SWAP1 PUSH1 0x1F AND DUP1 ISZERO PUSH2 0x374D JUMPI DUP1 DUP3 SUB DUP1 MLOAD PUSH1 0x1 DUP4 PUSH1 0x20 SUB PUSH2 0x100 EXP SUB NOT AND DUP2 MSTORE PUSH1 0x20 ADD SWAP2 POP JUMPDEST POP SWAP3 POP POP POP PUSH1 0x40 MLOAD DUP1 SWAP2 SUB SWAP1 REVERT JUMPDEST POP PUSH2 0x2169 JUMP JUMPDEST DUP7 PUSH1 0x1 PUSH1 0x1 PUSH1 0xA0 SHL SUB AND PUSH32 0x3C7E398C5E91088CAE639370E35B25EA669D81FBDF0DEF5388E73661BC34E08E DUP8 DUP8 PUSH2 0x3797 DUP6 PUSH2 0x3C3A JUMP JUMPDEST PUSH1 0x40 MLOAD DUP1 DUP5 DUP2 MSTORE PUSH1 0x20 ADD DUP1 PUSH1 0x20 ADD DUP1 PUSH1 0x20 ADD DUP4 DUP2 SUB DUP4 MSTORE DUP6 DUP2 DUP2 MLOAD DUP2 MSTORE PUSH1 0x20 ADD SWAP2 POP DUP1 MLOAD SWAP1 PUSH1 0x20 ADD SWAP1 DUP1 DUP4 DUP4 PUSH1 0x0 JUMPDEST DUP4 DUP2 LT ISZERO PUSH2 0x37DE JUMPI DUP2 DUP2 ADD MLOAD DUP4 DUP3 ADD MSTORE PUSH1 0x20 ADD PUSH2 0x37C6 JUMP JUMPDEST POP POP POP POP SWAP1 POP SWAP1 DUP2 ADD SWAP1 PUSH1 0x1F AND DUP1 ISZERO PUSH2 0x380B JUMPI DUP1 DUP3 SUB DUP1 MLOAD PUSH1 0x1 DUP4 PUSH1 0x20 SUB PUSH2 0x100 EXP SUB NOT AND DUP2 MSTORE PUSH1 0x20 ADD SWAP2 POP JUMPDEST POP DUP4 DUP2 SUB DUP3 MSTORE DUP5 MLOAD DUP2 MSTORE DUP5 MLOAD PUSH1 0x20 SWAP2 DUP3 ADD SWAP2 DUP7 ADD SWAP1 DUP1 DUP4 DUP4 PUSH1 0x0 JUMPDEST DUP4 DUP2 LT ISZERO PUSH2 0x383E JUMPI DUP2 DUP2 ADD MLOAD DUP4 DUP3 ADD MSTORE PUSH1 0x20 ADD PUSH2 0x3826 JUMP JUMPDEST POP POP POP POP SWAP1 POP SWAP1 DUP2 ADD SWAP1 PUSH1 0x1F AND DUP1 ISZERO PUSH2 0x386B JUMPI DUP1 DUP3 SUB DUP1 MLOAD PUSH1 0x1 DUP4 PUSH1 0x20 SUB PUSH2 0x100 EXP SUB NOT AND DUP2 MSTORE PUSH1 0x20 ADD SWAP2 POP JUMPDEST POP SWAP6 POP POP POP POP POP POP PUSH1 0x40 MLOAD DUP1 SWAP2 SUB SWAP1 LOG2 POP SWAP6 SWAP5 POP POP POP POP POP JUMP JUMPDEST PUSH1 0x0 PUSH2 0x388F PUSH2 0x2E7E JUMP JUMPDEST PUSH1 0x1 PUSH1 0x1 PUSH1 0xA0 SHL SUB DUP6 AND PUSH1 0x0 SWAP1 DUP2 MSTORE PUSH1 0x20 DUP3 SWAP1 MSTORE PUSH1 0x40 SWAP1 KECCAK256 SLOAD SWAP1 SWAP2 POP DUP4 DUP2 GT ISZERO PUSH2 0x38B8 JUMPI PUSH1 0x0 DUP1 REVERT JUMPDEST PUSH1 0x0 PUSH2 0x38CF PUSH2 0x38C6 DUP7 PUSH2 0x2116 JUMP JUMPDEST PUSH2 0x1AC8 DUP7 PUSH2 0x2116 JUMP JUMPDEST SWAP1 POP PUSH2 0x38DE PUSH2 0x2E57 DUP4 DUP4 PUSH2 0x134B JUMP JUMPDEST PUSH1 0x1 PUSH1 0x1 PUSH1 0xA0 SHL SUB SWAP1 SWAP7 AND PUSH1 0x0 SWAP1 DUP2 MSTORE PUSH1 0x20 SWAP4 SWAP1 SWAP4 MSTORE POP POP PUSH1 0x40 SWAP1 KECCAK256 SWAP3 SWAP1 SWAP3 SSTORE POP POP JUMP JUMPDEST PUSH1 0x0 DUP1 PUSH1 0x0 DUP1 PUSH1 0x0 DUP1 PUSH2 0x3913 PUSH2 0x31A6 JUMP JUMPDEST PUSH1 0x1 PUSH1 0x1 PUSH1 0xA0 SHL SUB SWAP1 SWAP8 AND PUSH1 0x0 SWAP1 DUP2 MSTORE PUSH1 0x20 SWAP8 SWAP1 SWAP8 MSTORE POP POP PUSH1 0x40 SWAP1 SWAP5 KECCAK256 SLOAD PUSH2 0xFFFF DUP2 AND SWAP6 PUSH4 0xFFFFFFFF PUSH3 0x10000 DUP4 DIV DUP2 AND SWAP7 POP PUSH1 0x1 PUSH1 0x30 SHL DUP4 DIV AND SWAP5 POP PUSH1 0xFF PUSH1 0x1 PUSH1 0x50 SHL DUP4 DIV AND SWAP4 POP PUSH1 0x1 PUSH1 0x58 SHL SWAP1 SWAP2 DIV PUSH1 0xD0 SHL SWAP2 POP JUMP JUMPDEST PUSH1 0x0 PUSH2 0x1E61 DUP3 PUSH2 0x2537 PUSH4 0x1DA9C00 DUP2 DUP9 PUSH2 0x2531 DUP10 PUSH8 0xDE0B6B3A7640000 PUSH2 0x2B92 JUMP JUMPDEST PUSH1 0x0 PUSH2 0x3997 PUSH2 0x32E8 JUMP JUMPDEST PUSH2 0xFFFF DUP6 AND PUSH1 0x0 SWAP1 DUP2 MSTORE PUSH1 0x20 SWAP2 SWAP1 SWAP2 MSTORE PUSH1 0x40 SWAP1 KECCAK256 DUP1 SLOAD SWAP1 SWAP2 POP PUSH5 0xFFFFFFFFFF AND TIMESTAMP EQ PUSH2 0x39C2 JUMPI PUSH1 0x0 DUP1 REVERT JUMPDEST DUP1 SLOAD PUSH1 0x1 PUSH1 0xF8 SHL SWAP1 DIV PUSH1 0xFF AND PUSH2 0x39D7 JUMPI PUSH1 0x0 DUP1 REVERT JUMPDEST PUSH1 0x1 DUP2 ADD SLOAD PUSH1 0x0 SWAP1 PUSH2 0x39F2 SWAP1 PUSH1 0x1 PUSH1 0x1 PUSH1 0x58 SHL SUB AND DUP6 PUSH2 0x134B JUMP JUMPDEST DUP3 SLOAD SWAP1 SWAP2 POP PUSH1 0x0 SWAP1 PUSH2 0x3A14 SWAP1 PUSH1 0x1 PUSH1 0x28 SHL SWAP1 DIV PUSH1 0x1 PUSH1 0x1 PUSH1 0x58 SHL SUB AND DUP6 PUSH2 0x134B JUMP JUMPDEST SWAP1 POP DUP2 PUSH1 0x9 NOT SLT DUP1 ISZERO PUSH2 0x3A27 JUMPI POP PUSH1 0x0 DUP3 SLT JUMPDEST ISZERO PUSH2 0x3A31 JUMPI PUSH1 0x0 SWAP2 POP JUMPDEST DUP1 PUSH1 0x9 NOT SLT DUP1 ISZERO PUSH2 0x3A42 JUMPI POP PUSH1 0x0 DUP2 SLT JUMPDEST ISZERO PUSH2 0x3A4B JUMPI POP PUSH1 0x0 JUMPDEST PUSH2 0x3A57 PUSH2 0x2DB4 DUP4 PUSH2 0x1EAE JUMP JUMPDEST PUSH1 0x1 DUP5 ADD DUP1 SLOAD PUSH11 0xFFFFFFFFFFFFFFFFFFFFFF NOT AND PUSH1 0x1 PUSH1 0x1 PUSH1 0x58 SHL SUB SWAP3 SWAP1 SWAP3 AND SWAP2 SWAP1 SWAP2 OR SWAP1 SSTORE PUSH2 0x3A89 PUSH2 0x2DB4 DUP3 PUSH2 0x1EAE JUMP JUMPDEST DUP4 SLOAD PUSH1 0x1 PUSH1 0x1 PUSH1 0x58 SHL SUB SWAP2 SWAP1 SWAP2 AND PUSH1 0x1 PUSH1 0x28 SHL MUL PUSH16 0xFFFFFFFFFFFFFFFFFFFFFF0000000000 NOT SWAP1 SWAP2 AND OR DUP4 SSTORE PUSH2 0x3AC1 DUP8 DUP8 DUP7 DUP9 PUSH2 0x3D41 JUMP JUMPDEST PUSH2 0x3ACA DUP4 PUSH2 0x349B JUMP JUMPDEST POP POP POP POP POP POP POP JUMP JUMPDEST PUSH1 0x0 DUP1 PUSH1 0x0 DUP1 PUSH1 0x0 DUP6 PUSH1 0x20 ADD MLOAD GT ISZERO PUSH2 0x3B20 JUMPI PUSH2 0x3B1D PUSH2 0x3B04 DUP7 PUSH1 0xC0 ADD MLOAD DUP8 PUSH1 0x20 ADD MLOAD PUSH2 0x2B92 SWAP1 SWAP2 SWAP1 PUSH4 0xFFFFFFFF AND JUMP JUMPDEST PUSH1 0xE0 DUP8 ADD MLOAD PUSH1 0x40 DUP9 ADD MLOAD PUSH2 0x3B17 SWAP2 PUSH2 0x2B92 JUMP JUMPDEST SWAP1 PUSH2 0x3E1B JUMP JUMPDEST SWAP1 POP JUMPDEST PUSH1 0x0 PUSH2 0x3B2B DUP8 PUSH2 0x3E2E JUMP JUMPDEST SWAP1 POP PUSH2 0x3B37 DUP2 DUP4 PUSH2 0x3E61 JUMP JUMPDEST SWAP5 POP DUP2 ISZERO PUSH2 0x3B4E JUMPI PUSH2 0x3B4B DUP2 DUP7 PUSH1 0x1 PUSH2 0x3F1A JUMP JUMPDEST SWAP4 POP JUMPDEST PUSH1 0x20 DUP7 ADD MLOAD ISZERO PUSH2 0x317D JUMPI PUSH2 0x3B62 DUP6 DUP4 PUSH2 0x3F92 JUMP JUMPDEST SWAP3 POP POP POP SWAP3 POP SWAP3 POP SWAP3 JUMP JUMPDEST PUSH1 0x0 DUP1 PUSH2 0x3B78 PUSH2 0x2609 JUMP JUMPDEST PUSH1 0x1 PUSH1 0x1 PUSH1 0xA0 SHL SUB DUP6 AND PUSH1 0x0 SWAP1 DUP2 MSTORE PUSH1 0x20 DUP3 DUP2 MSTORE PUSH1 0x40 DUP1 DUP4 KECCAK256 PUSH2 0xFFFF DUP9 AND DUP5 MSTORE SWAP1 SWAP2 MSTORE DUP2 KECCAK256 DUP1 SLOAD PUSH1 0x1 PUSH1 0xA8 SHL SWAP1 DIV PUSH1 0xA SWAP1 DUP2 SIGNEXTEND SWAP1 SIGNEXTEND SWAP5 POP SWAP2 SWAP3 POP DUP4 SLT ISZERO PUSH2 0x3BBE JUMPI PUSH1 0x0 DUP1 REVERT JUMPDEST POP POP SWAP3 SWAP2 POP POP JUMP JUMPDEST PUSH1 0x0 DUP2 SLT ISZERO PUSH2 0x3BD4 JUMPI PUSH1 0x0 DUP1 REVERT JUMPDEST PUSH1 0x0 PUSH2 0x3BDE PUSH2 0x2609 JUMP JUMPDEST PUSH1 0x1 PUSH1 0x1 PUSH1 0xA0 SHL SUB DUP6 AND PUSH1 0x0 SWAP1 DUP2 MSTORE PUSH1 0x20 DUP3 DUP2 MSTORE PUSH1 0x40 DUP1 DUP4 KECCAK256 PUSH2 0xFFFF DUP9 AND DUP5 MSTORE SWAP1 SWAP2 MSTORE SWAP1 KECCAK256 SWAP1 SWAP2 POP PUSH2 0x3C0F DUP4 PUSH2 0x2662 JUMP JUMPDEST DUP2 SLOAD PUSH1 0xA SWAP2 SWAP1 SWAP2 SIGNEXTEND PUSH1 0x1 PUSH1 0x1 PUSH1 0x58 SHL SUB AND PUSH1 0x1 PUSH1 0xA8 SHL MUL PUSH1 0x1 PUSH1 0x1 PUSH1 0xA8 SHL SUB SWAP1 SWAP2 AND OR SWAP1 SSTORE POP POP POP POP JUMP JUMPDEST PUSH1 0x60 PUSH1 0x44 DUP3 MLOAD LT ISZERO PUSH2 0x3C70 JUMPI POP PUSH1 0x40 DUP1 MLOAD DUP1 DUP3 ADD SWAP1 SWAP2 MSTORE PUSH1 0xD DUP2 MSTORE PUSH13 0x14DA5B195B9D0814995D995C9D PUSH1 0x9A SHL PUSH1 0x20 DUP3 ADD MSTORE PUSH2 0x48A JUMP JUMPDEST PUSH1 0x4 DUP3 ADD DUP1 MLOAD SWAP1 SWAP3 PUSH1 0x24 ADD SWAP1 PUSH1 0x20 DUP2 LT ISZERO PUSH2 0x3C8A JUMPI PUSH1 0x0 DUP1 REVERT JUMPDEST DUP2 ADD SWAP1 DUP1 DUP1 MLOAD PUSH1 0x40 MLOAD SWAP4 SWAP3 SWAP2 SWAP1 DUP5 PUSH5 0x100000000 DUP3 GT ISZERO PUSH2 0x3CAA JUMPI PUSH1 0x0 DUP1 REVERT JUMPDEST SWAP1 DUP4 ADD SWAP1 PUSH1 0x20 DUP3 ADD DUP6 DUP2 GT ISZERO PUSH2 0x3CBF JUMPI PUSH1 0x0 DUP1 REVERT JUMPDEST DUP3 MLOAD PUSH5 0x100000000 DUP2 GT DUP3 DUP3 ADD DUP9 LT OR ISZERO PUSH2 0x3CD9 JUMPI PUSH1 0x0 DUP1 REVERT JUMPDEST DUP3 MSTORE POP DUP2 MLOAD PUSH1 0x20 SWAP2 DUP3 ADD SWAP3 SWAP1 SWAP2 ADD SWAP1 DUP1 DUP4 DUP4 PUSH1 0x0 JUMPDEST DUP4 DUP2 LT ISZERO PUSH2 0x3D06 JUMPI DUP2 DUP2 ADD MLOAD DUP4 DUP3 ADD MSTORE PUSH1 0x20 ADD PUSH2 0x3CEE JUMP JUMPDEST POP POP POP POP SWAP1 POP SWAP1 DUP2 ADD SWAP1 PUSH1 0x1F AND DUP1 ISZERO PUSH2 0x3D33 JUMPI DUP1 DUP3 SUB DUP1 MLOAD PUSH1 0x1 DUP4 PUSH1 0x20 SUB PUSH2 0x100 EXP SUB NOT AND DUP2 MSTORE PUSH1 0x20 ADD SWAP2 POP JUMPDEST POP PUSH1 0x40 MSTORE POP POP POP SWAP1 POP SWAP2 SWAP1 POP JUMP JUMPDEST PUSH1 0x0 PUSH2 0x3D4B PUSH2 0x1525 JUMP JUMPDEST PUSH2 0xFFFF DUP6 AND PUSH1 0x0 SWAP1 DUP2 MSTORE PUSH1 0x20 SWAP2 SWAP1 SWAP2 MSTORE PUSH1 0x40 DUP2 KECCAK256 SLOAD PUSH1 0x1 PUSH1 0x1 PUSH1 0xA0 SHL SUB AND SWAP2 POP PUSH2 0x3D73 PUSH2 0x3FAB JUMP JUMPDEST PUSH2 0xFFFF DUP7 AND PUSH1 0x0 SWAP1 DUP2 MSTORE PUSH1 0x20 SWAP2 SWAP1 SWAP2 MSTORE PUSH1 0x40 SWAP1 DUP2 SWAP1 KECCAK256 SLOAD SWAP1 MLOAD PUSH4 0xAD1C095D PUSH1 0xE0 SHL DUP2 MSTORE PUSH1 0x1 PUSH1 0x1 PUSH1 0xA0 SHL SUB SWAP1 SWAP2 AND SWAP2 POP DUP2 SWAP1 PUSH4 0xAD1C095D SWAP1 PUSH2 0x3DBB SWAP1 DUP10 SWAP1 DUP8 SWAP1 PUSH1 0x4 ADD PUSH2 0x4C85 JUMP JUMPDEST PUSH1 0x0 PUSH1 0x40 MLOAD DUP1 DUP4 SUB DUP2 PUSH1 0x0 DUP8 DUP1 EXTCODESIZE ISZERO DUP1 ISZERO PUSH2 0x3DD5 JUMPI PUSH1 0x0 DUP1 REVERT JUMPDEST POP GAS CALL ISZERO DUP1 ISZERO PUSH2 0x3DE9 JUMPI RETURNDATASIZE PUSH1 0x0 DUP1 RETURNDATACOPY RETURNDATASIZE PUSH1 0x0 REVERT JUMPDEST POP POP PUSH1 0x40 MLOAD PUSH4 0xAD1C095D PUSH1 0xE0 SHL DUP2 MSTORE PUSH1 0x1 PUSH1 0x1 PUSH1 0xA0 SHL SUB DUP6 AND SWAP3 POP PUSH4 0xAD1C095D SWAP2 POP PUSH2 0xDF8 SWAP1 DUP10 SWAP1 DUP9 SWAP1 PUSH1 0x4 ADD PUSH2 0x4C85 JUMP JUMPDEST PUSH1 0x0 PUSH2 0x12C9 PUSH2 0x3417 DUP5 PUSH4 0x3B9ACA00 PUSH2 0x2B92 JUMP JUMPDEST PUSH2 0x3E36 PUSH2 0x434F JUMP JUMPDEST PUSH1 0x0 PUSH2 0x3E40 PUSH2 0x3FB8 JUMP JUMPDEST PUSH2 0xFFFF DUP5 AND PUSH1 0x0 SWAP1 DUP2 MSTORE PUSH1 0x20 SWAP2 SWAP1 SWAP2 MSTORE PUSH1 0x40 DUP2 KECCAK256 SLOAD SWAP2 POP PUSH2 0x12C9 SWAP1 DUP3 PUSH2 0x3FC5 JUMP JUMPDEST PUSH1 0x0 DUP1 DUP4 PUSH1 0x80 ADD MLOAD GT PUSH2 0x3E73 JUMPI PUSH1 0x0 DUP1 REVERT JUMPDEST PUSH4 0x3B9ACA00 DUP3 GT ISZERO PUSH2 0x3E84 JUMPI PUSH1 0x0 DUP1 REVERT JUMPDEST DUP3 MLOAD DUP3 GT PUSH2 0x3EA3 JUMPI DUP3 MLOAD PUSH1 0x40 DUP5 ADD MLOAD PUSH2 0x1448 SWAP2 SWAP1 PUSH2 0x2537 SWAP1 DUP6 SWAP1 PUSH2 0x2B92 JUMP JUMPDEST DUP3 PUSH1 0x20 ADD MLOAD DUP3 GT PUSH2 0x3EE1 JUMPI PUSH1 0x40 DUP4 ADD MLOAD DUP4 MLOAD PUSH1 0x20 DUP6 ADD MLOAD PUSH1 0x60 DUP7 ADD MLOAD PUSH2 0x1448 SWAP4 SWAP3 PUSH2 0x3EDB SWAP3 DUP2 SWAP1 SUB SWAP2 PUSH2 0x2537 SWAP2 DUP9 SUB SWAP1 DUP6 SWAP1 SUB PUSH2 0x2B92 JUMP JUMPDEST SWAP1 PUSH2 0x30D2 JUMP JUMPDEST PUSH2 0x12C9 DUP4 PUSH1 0x60 ADD MLOAD PUSH2 0x3EDB DUP6 PUSH1 0x20 ADD MLOAD PUSH4 0x3B9ACA00 SUB PUSH2 0x2537 DUP8 PUSH1 0x60 ADD MLOAD DUP9 PUSH1 0x80 ADD MLOAD SUB DUP9 PUSH1 0x20 ADD MLOAD DUP9 SUB PUSH2 0x2B92 SWAP1 SWAP2 SWAP1 PUSH4 0xFFFFFFFF AND JUMP JUMPDEST PUSH1 0x0 DUP1 PUSH2 0x3F39 PUSH1 0x64 PUSH2 0x2537 DUP8 PUSH1 0xE0 ADD MLOAD DUP8 PUSH2 0x2B92 SWAP1 SWAP2 SWAP1 PUSH4 0xFFFFFFFF AND JUMP JUMPDEST SWAP1 POP DUP5 PUSH1 0xA0 ADD MLOAD DUP2 LT ISZERO PUSH2 0x3F4E JUMPI POP PUSH1 0xA0 DUP5 ADD MLOAD JUMPDEST DUP5 PUSH1 0xC0 ADD MLOAD DUP2 GT ISZERO PUSH2 0x3F61 JUMPI POP PUSH1 0xC0 DUP5 ADD MLOAD JUMPDEST DUP3 ISZERO PUSH2 0x3F78 JUMPI PUSH2 0x3F71 DUP5 DUP3 PUSH2 0x30D2 JUMP JUMPDEST SWAP2 POP PUSH2 0xAEA JUMP JUMPDEST DUP4 DUP2 GT PUSH2 0x3F87 JUMPI DUP1 DUP5 SUB PUSH2 0x585 JUMP JUMPDEST POP PUSH1 0x0 SWAP5 SWAP4 POP POP POP POP JUMP JUMPDEST PUSH1 0x0 PUSH2 0x12C9 PUSH2 0x3FA1 DUP5 DUP5 PUSH2 0x2B92 JUMP JUMPDEST PUSH4 0x3B9ACA00 PUSH2 0x3187 JUMP JUMPDEST PUSH1 0x0 DUP1 PUSH2 0xB40 PUSH1 0x22 PUSH2 0x1A6E JUMP JUMPDEST PUSH1 0x0 DUP1 PUSH2 0xB40 PUSH1 0x1B PUSH2 0x1A6E JUMP JUMPDEST PUSH2 0x3FCD PUSH2 0x434F JUMP JUMPDEST PUSH1 0x64 PUSH4 0x3B9ACA00 DUP4 PUSH1 0xFF DUP7 AND PUSH1 0x20 DUP2 LT PUSH2 0x3FE3 JUMPI INVALID JUMPDEST BYTE MUL DUP2 PUSH2 0x3FEC JUMPI INVALID JUMPDEST DIV DUP2 MSTORE PUSH1 0x64 PUSH4 0x3B9ACA00 DUP4 PUSH1 0xFF DUP7 AND PUSH1 0x1 ADD PUSH1 0x20 DUP2 LT PUSH2 0x4008 JUMPI INVALID JUMPDEST BYTE MUL DUP2 PUSH2 0x4011 JUMPI INVALID JUMPDEST DIV DUP2 PUSH1 0x20 ADD DUP2 DUP2 MSTORE POP POP PUSH2 0x4036 DUP3 PUSH1 0x2 DUP6 PUSH1 0xFF AND ADD PUSH1 0x20 DUP2 LT PUSH2 0x4030 JUMPI INVALID JUMPDEST BYTE PUSH2 0x40E4 JUMP JUMPDEST PUSH1 0x80 DUP3 ADD DUP2 SWAP1 MSTORE PUSH2 0x100 SWAP1 DUP4 PUSH1 0xFF DUP7 AND PUSH1 0x3 ADD PUSH1 0x20 DUP2 LT PUSH2 0x4053 JUMPI INVALID JUMPDEST BYTE MUL DUP2 PUSH2 0x405C JUMPI INVALID JUMPDEST DIV PUSH1 0x40 DUP3 ADD MSTORE PUSH1 0x80 DUP2 ADD MLOAD PUSH2 0x100 SWAP1 DUP4 PUSH1 0xFF DUP7 AND PUSH1 0x4 ADD PUSH1 0x20 DUP2 LT PUSH2 0x407D JUMPI INVALID JUMPDEST BYTE MUL DUP2 PUSH2 0x4086 JUMPI INVALID JUMPDEST DIV PUSH1 0x60 DUP3 ADD MSTORE PUSH3 0x7A120 DUP3 PUSH1 0xFF DUP6 AND PUSH1 0x5 ADD PUSH1 0x20 DUP2 LT PUSH2 0x40A2 JUMPI INVALID JUMPDEST BYTE MUL PUSH1 0xA0 DUP3 ADD MSTORE PUSH3 0x2625A0 DUP3 PUSH1 0xFF DUP6 AND PUSH1 0x6 ADD PUSH1 0x20 DUP2 LT PUSH2 0x40BF JUMPI INVALID JUMPDEST BYTE MUL PUSH1 0xC0 DUP3 ADD MSTORE DUP2 PUSH1 0xFF DUP5 AND PUSH1 0x7 ADD PUSH1 0x20 DUP2 LT PUSH2 0x40D8 JUMPI INVALID JUMPDEST BYTE PUSH1 0xE0 DUP3 ADD MSTORE SWAP3 SWAP2 POP POP JUMP JUMPDEST PUSH1 0x0 DUP2 PUSH1 0xFF AND PUSH1 0x96 LT PUSH2 0x40FF JUMPI PUSH1 0xFF DUP3 AND PUSH3 0x2625A0 MUL PUSH2 0x487 JUMP JUMPDEST POP PUSH1 0x95 NOT PUSH1 0xFF SWAP2 SWAP1 SWAP2 AND ADD PUSH3 0xE4E1C0 MUL PUSH4 0x165A0BC0 ADD SWAP1 JUMP JUMPDEST PUSH1 0x40 MLOAD DUP1 PUSH2 0x140 ADD PUSH1 0x40 MSTORE DUP1 PUSH1 0x0 PUSH2 0xFFFF AND DUP2 MSTORE PUSH1 0x20 ADD PUSH1 0x0 DUP2 MSTORE PUSH1 0x20 ADD PUSH1 0x0 DUP2 MSTORE PUSH1 0x20 ADD PUSH1 0x0 DUP2 MSTORE PUSH1 0x20 ADD PUSH1 0x0 DUP2 MSTORE PUSH1 0x20 ADD PUSH1 0x0 DUP2 MSTORE PUSH1 0x20 ADD PUSH1 0x0 DUP2 MSTORE PUSH1 0x20 ADD PUSH1 0x0 DUP2 MSTORE PUSH1 0x20 ADD PUSH1 0x0 DUP2 MSTORE PUSH1 0x20 ADD PUSH2 0x416F PUSH2 0x42C4 JUMP JUMPDEST SWAP1 MSTORE SWAP1 JUMP JUMPDEST PUSH1 0x40 DUP1 MLOAD PUSH1 0xC0 DUP2 ADD DUP3 MSTORE PUSH1 0x0 DUP1 DUP3 MSTORE PUSH1 0x20 DUP3 ADD DUP2 SWAP1 MSTORE SWAP2 DUP2 ADD DUP3 SWAP1 MSTORE PUSH1 0x60 DUP2 ADD DUP3 SWAP1 MSTORE PUSH1 0x80 DUP2 ADD DUP3 SWAP1 MSTORE PUSH1 0xA0 DUP2 ADD SWAP2 SWAP1 SWAP2 MSTORE SWAP1 JUMP JUMPDEST PUSH1 0x40 MLOAD DUP1 PUSH2 0x160 ADD PUSH1 0x40 MSTORE DUP1 PUSH1 0x0 PUSH1 0x1 PUSH1 0x1 PUSH1 0xA0 SHL SUB AND DUP2 MSTORE PUSH1 0x20 ADD PUSH1 0x0 DUP2 MSTORE PUSH1 0x20 ADD PUSH1 0x0 DUP2 MSTORE PUSH1 0x20 ADD PUSH1 0x0 DUP2 MSTORE PUSH1 0x20 ADD PUSH1 0x0 DUP2 MSTORE PUSH1 0x20 ADD PUSH1 0x0 PUSH1 0x1 PUSH1 0x1 PUSH1 0xD0 SHL SUB NOT AND DUP2 MSTORE PUSH1 0x20 ADD PUSH2 0x41FA PUSH2 0x4394 JUMP JUMPDEST DUP2 MSTORE PUSH1 0x20 ADD PUSH2 0x4207 PUSH2 0x4394 JUMP JUMPDEST DUP2 MSTORE PUSH1 0x20 ADD PUSH2 0x4214 PUSH2 0x42C4 JUMP JUMPDEST DUP2 MSTORE PUSH1 0x20 ADD PUSH2 0x4221 PUSH2 0x43C3 JUMP JUMPDEST DUP2 MSTORE PUSH1 0x0 PUSH1 0x20 SWAP1 SWAP2 ADD MSTORE SWAP1 JUMP JUMPDEST PUSH1 0x40 MLOAD DUP1 PUSH1 0x80 ADD PUSH1 0x40 MSTORE DUP1 PUSH1 0x60 DUP2 MSTORE PUSH1 0x20 ADD PUSH1 0x60 DUP2 MSTORE PUSH1 0x20 ADD PUSH1 0x0 DUP2 MSTORE PUSH1 0x20 ADD PUSH1 0x0 DUP2 MSTORE POP SWAP1 JUMP JUMPDEST PUSH1 0x40 MLOAD DUP1 PUSH1 0xC0 ADD PUSH1 0x40 MSTORE DUP1 PUSH1 0x0 PUSH2 0xFFFF AND DUP2 MSTORE PUSH1 0x20 ADD PUSH1 0x0 DUP2 MSTORE PUSH1 0x20 ADD PUSH1 0x0 DUP2 MSTORE PUSH1 0x20 ADD PUSH1 0x0 DUP2 MSTORE PUSH1 0x20 ADD PUSH1 0x0 DUP2 MSTORE PUSH1 0x20 ADD PUSH1 0x0 PUSH1 0x3 DUP2 GT ISZERO PUSH2 0x416F JUMPI INVALID JUMPDEST PUSH1 0x40 DUP1 MLOAD PUSH1 0xA0 DUP2 ADD DUP3 MSTORE PUSH1 0x0 DUP1 DUP3 MSTORE PUSH1 0x20 DUP3 ADD DUP2 SWAP1 MSTORE SWAP2 DUP2 ADD DUP3 SWAP1 MSTORE SWAP1 PUSH1 0x60 DUP3 ADD SWAP1 DUP2 MSTORE PUSH1 0x20 ADD PUSH1 0x0 DUP2 MSTORE POP SWAP1 JUMP JUMPDEST PUSH1 0x40 MLOAD DUP1 PUSH1 0x60 ADD PUSH1 0x40 MSTORE DUP1 PUSH1 0x0 DUP2 MSTORE PUSH1 0x20 ADD PUSH1 0x0 DUP2 MSTORE PUSH1 0x20 ADD PUSH1 0x0 DUP2 MSTORE POP SWAP1 JUMP JUMPDEST PUSH1 0x40 MLOAD DUP1 PUSH2 0x120 ADD PUSH1 0x40 MSTORE DUP1 PUSH1 0x0 DUP2 MSTORE PUSH1 0x20 ADD PUSH1 0x0 DUP2 MSTORE PUSH1 0x20 ADD PUSH1 0x0 DUP2 MSTORE PUSH1 0x20 ADD PUSH1 0x0 DUP2 MSTORE PUSH1 0x20 ADD PUSH1 0x0 DUP2 MSTORE PUSH1 0x20 ADD PUSH1 0x0 DUP2 MSTORE PUSH1 0x20 ADD PUSH1 0x0 DUP2 MSTORE PUSH1 0x20 ADD PUSH1 0x0 DUP2 MSTORE PUSH1 0x20 ADD PUSH1 0x0 DUP2 MSTORE POP SWAP1 JUMP JUMPDEST PUSH1 0x40 MLOAD DUP1 PUSH1 0x20 ADD PUSH1 0x40 MSTORE DUP1 PUSH1 0x1 SWAP1 PUSH1 0x20 DUP3 MUL DUP1 CALLDATASIZE DUP4 CALLDATACOPY POP SWAP2 SWAP3 SWAP2 POP POP JUMP JUMPDEST PUSH1 0x40 MLOAD DUP1 PUSH2 0x100 ADD PUSH1 0x40 MSTORE DUP1 PUSH1 0x0 DUP2 MSTORE PUSH1 0x20 ADD PUSH1 0x0 DUP2 MSTORE PUSH1 0x20 ADD PUSH1 0x0 DUP2 MSTORE PUSH1 0x20 ADD PUSH1 0x0 DUP2 MSTORE PUSH1 0x20 ADD PUSH1 0x0 DUP2 MSTORE PUSH1 0x20 ADD PUSH1 0x0 DUP2 MSTORE PUSH1 0x20 ADD PUSH1 0x0 DUP2 MSTORE PUSH1 0x20 ADD PUSH1 0x0 DUP2 MSTORE POP SWAP1 JUMP JUMPDEST PUSH1 0x40 MLOAD DUP1 PUSH1 0xA0 ADD PUSH1 0x40 MSTORE DUP1 PUSH1 0x0 DUP2 MSTORE PUSH1 0x20 ADD PUSH1 0x0 DUP2 MSTORE PUSH1 0x20 ADD PUSH1 0x0 DUP2 MSTORE PUSH1 0x20 ADD PUSH1 0x0 DUP2 MSTORE PUSH1 0x20 ADD PUSH1 0x0 DUP2 MSTORE POP SWAP1 JUMP JUMPDEST PUSH1 0x40 DUP1 MLOAD PUSH1 0x80 DUP2 ADD DUP3 MSTORE PUSH1 0x0 DUP1 DUP3 MSTORE PUSH1 0x20 DUP3 ADD MSTORE SWAP1 DUP2 ADD PUSH2 0x4221 PUSH2 0x42C4 JUMP JUMPDEST DUP1 MLOAD PUSH2 0x48A DUP2 PUSH2 0x4EE2 JUMP JUMPDEST PUSH1 0x0 DUP3 PUSH1 0x1F DUP4 ADD SLT PUSH2 0x43FD JUMPI DUP1 DUP2 REVERT JUMPDEST DUP2 MLOAD PUSH1 0x20 PUSH2 0x4412 PUSH2 0x440D DUP4 PUSH2 0x4EC4 JUMP JUMPDEST PUSH2 0x4EA0 JUMP JUMPDEST DUP3 DUP2 MSTORE DUP2 DUP2 ADD SWAP1 DUP6 DUP4 ADD DUP4 DUP6 MUL DUP8 ADD DUP5 ADD DUP9 LT ISZERO PUSH2 0x442E JUMPI DUP6 DUP7 REVERT JUMPDEST DUP6 JUMPDEST DUP6 DUP2 LT ISZERO PUSH2 0x4455 JUMPI DUP2 MLOAD PUSH2 0x4443 DUP2 PUSH2 0x4EE2 JUMP JUMPDEST DUP5 MSTORE SWAP3 DUP5 ADD SWAP3 SWAP1 DUP5 ADD SWAP1 PUSH1 0x1 ADD PUSH2 0x4430 JUMP JUMPDEST POP SWAP1 SWAP8 SWAP7 POP POP POP POP POP POP POP JUMP JUMPDEST PUSH1 0x0 PUSH1 0x1F DUP4 DUP2 DUP5 ADD SLT PUSH2 0x4473 JUMPI DUP2 DUP3 REVERT JUMPDEST DUP3 MLOAD PUSH1 0x20 PUSH2 0x4483 PUSH2 0x440D DUP4 PUSH2 0x4EC4 JUMP JUMPDEST DUP3 DUP2 MSTORE DUP2 DUP2 ADD SWAP1 DUP7 DUP4 ADD DUP7 JUMPDEST DUP6 DUP2 LT ISZERO PUSH2 0x4528 JUMPI DUP2 MLOAD DUP10 ADD DUP11 PUSH1 0x3F DUP3 ADD SLT PUSH2 0x44A9 JUMPI DUP9 DUP10 REVERT JUMPDEST DUP6 DUP2 ADD MLOAD PUSH8 0xFFFFFFFFFFFFFFFF DUP2 GT ISZERO PUSH2 0x44BF JUMPI INVALID JUMPDEST PUSH2 0x44D0 DUP2 DUP11 ADD PUSH1 0x1F NOT AND DUP9 ADD PUSH2 0x4EA0 JUMP JUMPDEST DUP2 DUP2 MSTORE PUSH1 0x40 DUP14 DUP2 DUP5 DUP7 ADD ADD GT ISZERO PUSH2 0x44E5 JUMPI DUP12 DUP13 REVERT JUMPDEST DUP12 JUMPDEST DUP4 DUP2 LT ISZERO PUSH2 0x4502 JUMPI DUP5 DUP2 ADD DUP3 ADD MLOAD DUP4 DUP3 ADD DUP12 ADD MSTORE DUP10 ADD PUSH2 0x44E7 JUMP JUMPDEST DUP4 DUP2 GT ISZERO PUSH2 0x4512 JUMPI DUP13 DUP11 DUP6 DUP6 ADD ADD MSTORE JUMPDEST POP POP DUP7 MSTORE POP POP SWAP3 DUP5 ADD SWAP3 SWAP1 DUP5 ADD SWAP1 PUSH1 0x1 ADD PUSH2 0x448F JUMP JUMPDEST POP SWAP1 SWAP9 SWAP8 POP POP POP POP POP POP POP POP JUMP JUMPDEST PUSH1 0x0 DUP3 PUSH1 0x1F DUP4 ADD SLT PUSH2 0x4546 JUMPI DUP1 DUP2 REVERT JUMPDEST DUP2 MLOAD PUSH1 0x20 PUSH2 0x4556 PUSH2 0x440D DUP4 PUSH2 0x4EC4 JUMP JUMPDEST DUP3 DUP2 MSTORE DUP2 DUP2 ADD SWAP1 DUP6 DUP4 ADD PUSH1 0xC0 DUP1 DUP7 MUL DUP9 ADD DUP6 ADD DUP10 LT ISZERO PUSH2 0x4574 JUMPI DUP7 DUP8 REVERT JUMPDEST DUP7 JUMPDEST DUP7 DUP2 LT ISZERO PUSH2 0x4606 JUMPI DUP2 DUP4 DUP12 SUB SLT ISZERO PUSH2 0x458C JUMPI DUP8 DUP9 REVERT JUMPDEST PUSH1 0x40 DUP1 MLOAD DUP4 DUP2 ADD DUP2 DUP2 LT PUSH8 0xFFFFFFFFFFFFFFFF DUP3 GT OR ISZERO PUSH2 0x45A9 JUMPI INVALID JUMPDEST DUP3 MSTORE DUP5 MLOAD PUSH2 0x45B6 DUP2 PUSH2 0x4F08 JUMP JUMPDEST DUP2 MSTORE DUP5 DUP9 ADD MLOAD DUP9 DUP3 ADD MSTORE DUP2 DUP6 ADD MLOAD SWAP2 DUP2 ADD SWAP2 SWAP1 SWAP2 MSTORE PUSH1 0x60 DUP1 DUP6 ADD MLOAD SWAP1 DUP3 ADD MSTORE PUSH1 0x80 DUP1 DUP6 ADD MLOAD SWAP1 DUP3 ADD MSTORE PUSH1 0xA0 SWAP1 PUSH2 0x45ED DUP3 DUP7 ADD PUSH2 0x4667 JUMP JUMPDEST SWAP2 DUP2 ADD SWAP2 SWAP1 SWAP2 MSTORE DUP6 MSTORE SWAP4 DUP6 ADD SWAP4 SWAP2 DUP2 ADD SWAP2 PUSH1 0x1 ADD PUSH2 0x4576 JUMP JUMPDEST POP SWAP2 SWAP9 SWAP8 POP POP POP POP POP POP POP POP JUMP JUMPDEST DUP1 MLOAD PUSH2 0x48A DUP2 PUSH2 0x4EFA JUMP JUMPDEST DUP1 MLOAD PUSH1 0x1 PUSH1 0x1 PUSH1 0x70 SHL SUB NOT DUP2 AND DUP2 EQ PUSH2 0x48A JUMPI PUSH1 0x0 DUP1 REVERT JUMPDEST DUP1 MLOAD PUSH1 0x1 PUSH1 0x1 PUSH1 0xF8 SHL SUB NOT DUP2 AND DUP2 EQ PUSH2 0x48A JUMPI PUSH1 0x0 DUP1 REVERT JUMPDEST DUP1 MLOAD PUSH1 0x1 PUSH1 0x1 PUSH1 0xD0 SHL SUB NOT DUP2 AND DUP2 EQ PUSH2 0x48A JUMPI PUSH1 0x0 DUP1 REVERT JUMPDEST DUP1 MLOAD PUSH1 0x4 DUP2 LT PUSH2 0x48A JUMPI PUSH1 0x0 DUP1 REVERT JUMPDEST PUSH1 0x0 PUSH1 0xC0 DUP3 DUP5 SUB SLT ISZERO PUSH2 0x4687 JUMPI DUP1 DUP2 REVERT JUMPDEST PUSH1 0x40 MLOAD PUSH1 0x80 DUP2 ADD DUP2 DUP2 LT PUSH8 0xFFFFFFFFFFFFFFFF DUP3 GT OR ISZERO PUSH2 0x46A4 JUMPI INVALID JUMPDEST DUP1 PUSH1 0x40 MSTORE POP DUP1 SWAP2 POP DUP3 MLOAD PUSH2 0x46B7 DUP2 PUSH2 0x4F08 JUMP JUMPDEST DUP2 MSTORE PUSH1 0x20 DUP4 DUP2 ADD MLOAD SWAP1 DUP3 ADD MSTORE PUSH2 0x46D0 DUP5 PUSH1 0x40 DUP6 ADD PUSH2 0x4818 JUMP JUMPDEST PUSH1 0x40 DUP3 ADD MSTORE PUSH1 0xA0 DUP4 ADD MLOAD PUSH1 0x60 DUP3 ADD MSTORE POP SWAP3 SWAP2 POP POP JUMP JUMPDEST PUSH1 0x0 PUSH1 0xA0 DUP3 DUP5 SUB SLT ISZERO PUSH2 0x46F7 JUMPI DUP1 DUP2 REVERT JUMPDEST PUSH1 0x40 MLOAD PUSH1 0xA0 DUP2 ADD DUP2 DUP2 LT PUSH8 0xFFFFFFFFFFFFFFFF DUP3 GT OR ISZERO PUSH2 0x4714 JUMPI INVALID JUMPDEST DUP1 PUSH1 0x40 MSTORE POP DUP1 SWAP2 POP DUP3 MLOAD DUP2 MSTORE PUSH1 0x20 DUP4 ADD MLOAD PUSH1 0x20 DUP3 ADD MSTORE PUSH1 0x40 DUP4 ADD MLOAD PUSH1 0x40 DUP3 ADD MSTORE PUSH1 0x60 DUP4 ADD MLOAD PUSH1 0x60 DUP3 ADD MSTORE PUSH1 0x80 DUP4 ADD MLOAD PUSH1 0x80 DUP3 ADD MSTORE POP SWAP3 SWAP2 POP POP JUMP JUMPDEST PUSH1 0x0 PUSH2 0x340 DUP3 DUP5 SUB SLT ISZERO PUSH2 0x4761 JUMPI DUP1 DUP2 REVERT JUMPDEST PUSH2 0x160 PUSH2 0x476D DUP2 PUSH2 0x4EA0 JUMP JUMPDEST SWAP2 POP PUSH2 0x4778 DUP4 PUSH2 0x43E2 JUMP JUMPDEST DUP3 MSTORE PUSH1 0x20 DUP4 ADD MLOAD PUSH1 0x20 DUP4 ADD MSTORE PUSH1 0x40 DUP4 ADD MLOAD PUSH1 0x40 DUP4 ADD MSTORE PUSH1 0x60 DUP4 ADD MLOAD PUSH1 0x60 DUP4 ADD MSTORE PUSH1 0x80 DUP4 ADD MLOAD PUSH1 0x80 DUP4 ADD MSTORE PUSH2 0x47AE PUSH1 0xA0 DUP5 ADD PUSH2 0x464F JUMP JUMPDEST PUSH1 0xA0 DUP4 ADD MSTORE PUSH2 0x47C0 DUP5 PUSH1 0xC0 DUP6 ADD PUSH2 0x46E6 JUMP JUMPDEST PUSH1 0xC0 DUP4 ADD MSTORE PUSH2 0x47D1 DUP5 DUP3 DUP6 ADD PUSH2 0x46E6 JUMP JUMPDEST PUSH1 0xE0 DUP4 ADD MSTORE POP PUSH2 0x47E5 DUP4 PUSH2 0x200 DUP5 ADD PUSH2 0x4818 JUMP JUMPDEST PUSH2 0x100 DUP3 ADD MSTORE PUSH2 0x47F9 DUP4 PUSH2 0x260 DUP5 ADD PUSH2 0x4676 JUMP JUMPDEST PUSH2 0x120 DUP3 ADD MSTORE PUSH2 0x480C PUSH2 0x320 DUP4 ADD PUSH2 0x4614 JUMP JUMPDEST PUSH2 0x140 DUP3 ADD MSTORE SWAP3 SWAP2 POP POP JUMP JUMPDEST PUSH1 0x0 PUSH1 0x60 DUP3 DUP5 SUB SLT ISZERO PUSH2 0x4829 JUMPI DUP1 DUP2 REVERT JUMPDEST PUSH1 0x40 MLOAD PUSH1 0x60 DUP2 ADD DUP2 DUP2 LT PUSH8 0xFFFFFFFFFFFFFFFF DUP3 GT OR ISZERO PUSH2 0x4846 JUMPI INVALID JUMPDEST DUP1 PUSH1 0x40 MSTORE POP DUP1 SWAP2 POP DUP3 MLOAD DUP2 MSTORE PUSH1 0x20 DUP4 ADD MLOAD PUSH1 0x20 DUP3 ADD MSTORE PUSH1 0x40 DUP4 ADD MLOAD PUSH1 0x40 DUP3 ADD MSTORE POP SWAP3 SWAP2 POP POP JUMP JUMPDEST DUP1 CALLDATALOAD PUSH1 0x1 PUSH1 0x1 PUSH1 0x80 SHL SUB DUP2 AND DUP2 EQ PUSH2 0x48A JUMPI PUSH1 0x0 DUP1 REVERT JUMPDEST DUP1 MLOAD PUSH2 0x48A DUP2 PUSH2 0x4F08 JUMP JUMPDEST DUP1 MLOAD PUSH1 0xFF DUP2 AND DUP2 EQ PUSH2 0x48A JUMPI PUSH1 0x0 DUP1 REVERT JUMPDEST DUP1 CALLDATALOAD PUSH1 0x1 PUSH1 0x1 PUSH1 0x60 SHL SUB DUP2 AND DUP2 EQ PUSH2 0x48A JUMPI PUSH1 0x0 DUP1 REVERT JUMPDEST PUSH1 0x0 DUP1 PUSH1 0x0 DUP1 PUSH1 0x0 PUSH1 0xA0 DUP7 DUP9 SUB SLT ISZERO PUSH2 0x48CE JUMPI DUP1 DUP2 REVERT JUMPDEST DUP6 CALLDATALOAD PUSH2 0x48D9 DUP2 PUSH2 0x4EE2 JUMP JUMPDEST SWAP5 POP PUSH1 0x20 DUP7 ADD CALLDATALOAD PUSH2 0x48E9 DUP2 PUSH2 0x4F08 JUMP JUMPDEST SWAP4 POP PUSH1 0x40 DUP7 ADD CALLDATALOAD PUSH2 0x48F9 DUP2 PUSH2 0x4F08 JUMP JUMPDEST SWAP3 POP PUSH2 0x4907 PUSH1 0x60 DUP8 ADD PUSH2 0x486D JUMP JUMPDEST SWAP2 POP PUSH2 0x4915 PUSH1 0x80 DUP8 ADD PUSH2 0x48A0 JUMP JUMPDEST SWAP1 POP SWAP3 SWAP6 POP SWAP3 SWAP6 SWAP1 SWAP4 POP JUMP JUMPDEST PUSH1 0x0 DUP1 PUSH1 0x0 DUP1 PUSH1 0x0 DUP1 PUSH1 0x0 PUSH1 0xE0 DUP9 DUP11 SUB SLT ISZERO PUSH2 0x493B JUMPI DUP5 DUP6 REVERT JUMPDEST DUP8 CALLDATALOAD PUSH2 0x4946 DUP2 PUSH2 0x4EE2 JUMP JUMPDEST SWAP7 POP PUSH1 0x20 DUP9 ADD CALLDATALOAD PUSH2 0x4956 DUP2 PUSH2 0x4F08 JUMP JUMPDEST SWAP6 POP PUSH1 0x40 DUP9 ADD CALLDATALOAD PUSH2 0x4966 DUP2 PUSH2 0x4F08 JUMP JUMPDEST SWAP5 POP PUSH2 0x4974 PUSH1 0x60 DUP10 ADD PUSH2 0x486D JUMP JUMPDEST SWAP4 POP PUSH2 0x4982 PUSH1 0x80 DUP10 ADD PUSH2 0x48A0 JUMP JUMPDEST SWAP3 POP PUSH1 0xA0 DUP9 ADD CALLDATALOAD PUSH2 0x4992 DUP2 PUSH2 0x4EFA JUMP JUMPDEST SWAP2 POP PUSH1 0xC0 DUP9 ADD CALLDATALOAD PUSH2 0x49A2 DUP2 PUSH2 0x4EFA JUMP JUMPDEST DUP1 SWAP2 POP POP SWAP3 SWAP6 SWAP9 SWAP2 SWAP5 SWAP8 POP SWAP3 SWAP6 POP JUMP JUMPDEST PUSH1 0x0 DUP1 PUSH1 0x0 PUSH1 0x60 DUP5 DUP7 SUB SLT ISZERO PUSH2 0x49C6 JUMPI DUP1 DUP2 REVERT JUMPDEST DUP4 CALLDATALOAD PUSH2 0x49D1 DUP2 PUSH2 0x4EE2 JUMP JUMPDEST SWAP3 POP PUSH1 0x20 DUP5 ADD CALLDATALOAD PUSH2 0x49E1 DUP2 PUSH2 0x4F08 JUMP JUMPDEST SWAP2 POP PUSH2 0x49EF PUSH1 0x40 DUP6 ADD PUSH2 0x48A0 JUMP JUMPDEST SWAP1 POP SWAP3 POP SWAP3 POP SWAP3 JUMP JUMPDEST PUSH1 0x0 PUSH1 0x20 DUP1 DUP4 DUP6 SUB SLT ISZERO PUSH2 0x4A0A JUMPI DUP2 DUP3 REVERT JUMPDEST DUP3 MLOAD PUSH8 0xFFFFFFFFFFFFFFFF DUP1 DUP3 GT ISZERO PUSH2 0x4A21 JUMPI DUP4 DUP5 REVERT JUMPDEST DUP2 DUP6 ADD SWAP2 POP DUP6 PUSH1 0x1F DUP4 ADD SLT PUSH2 0x4A34 JUMPI DUP4 DUP5 REVERT JUMPDEST DUP2 MLOAD PUSH2 0x4A42 PUSH2 0x440D DUP3 PUSH2 0x4EC4 JUMP JUMPDEST DUP2 DUP2 MSTORE DUP5 DUP2 ADD SWAP1 DUP5 DUP7 ADD DUP8 JUMPDEST DUP5 DUP2 LT ISZERO PUSH2 0x4AF7 JUMPI DUP2 MLOAD DUP8 ADD PUSH1 0x80 DUP2 DUP14 SUB PUSH1 0x1F NOT ADD SLT ISZERO PUSH2 0x4A6D JUMPI DUP10 DUP11 REVERT JUMPDEST PUSH1 0x40 DUP1 MLOAD PUSH1 0x80 DUP2 ADD DUP2 DUP2 LT DUP11 DUP3 GT OR ISZERO PUSH2 0x4A83 JUMPI INVALID JUMPDEST DUP3 MSTORE DUP3 DUP12 ADD MLOAD DUP10 DUP2 GT ISZERO PUSH2 0x4A95 JUMPI DUP13 DUP14 REVERT JUMPDEST PUSH2 0x4AA3 DUP16 DUP14 DUP4 DUP8 ADD ADD PUSH2 0x43ED JUMP JUMPDEST DUP3 MSTORE POP DUP2 DUP4 ADD MLOAD DUP10 DUP2 GT ISZERO PUSH2 0x4AB6 JUMPI DUP13 DUP14 REVERT JUMPDEST PUSH2 0x4AC4 DUP16 DUP14 DUP4 DUP8 ADD ADD PUSH2 0x4462 JUMP JUMPDEST DUP13 DUP4 ADD MSTORE POP PUSH1 0x60 DUP4 ADD MLOAD DUP3 DUP3 ADD MSTORE PUSH2 0x4ADE PUSH1 0x80 DUP5 ADD PUSH2 0x43E2 JUMP JUMPDEST PUSH1 0x60 DUP3 ADD MSTORE DUP7 MSTORE POP POP SWAP3 DUP8 ADD SWAP3 SWAP1 DUP8 ADD SWAP1 PUSH1 0x1 ADD PUSH2 0x4A4E JUMP JUMPDEST POP SWAP1 SWAP10 SWAP9 POP POP POP POP POP POP POP POP POP JUMP JUMPDEST PUSH1 0x0 DUP1 PUSH1 0x0 DUP4 DUP6 SUB PUSH2 0x420 DUP2 SLT ISZERO PUSH2 0x4B1C JUMPI DUP2 DUP3 REVERT JUMPDEST PUSH1 0xC0 DUP2 SLT ISZERO PUSH2 0x4B29 JUMPI DUP2 DUP3 REVERT JUMPDEST POP PUSH1 0x40 MLOAD PUSH1 0xC0 DUP2 ADD PUSH8 0xFFFFFFFFFFFFFFFF DUP3 DUP3 LT DUP2 DUP4 GT OR ISZERO PUSH2 0x4B48 JUMPI INVALID JUMPDEST DUP2 PUSH1 0x40 MSTORE DUP7 MLOAD SWAP2 POP PUSH5 0xFFFFFFFFFF DUP3 AND DUP3 EQ PUSH2 0x4B62 JUMPI DUP4 DUP5 REVERT JUMPDEST DUP2 DUP4 MSTORE PUSH2 0x4B71 PUSH1 0x20 DUP9 ADD PUSH2 0x4637 JUMP JUMPDEST PUSH1 0x20 DUP5 ADD MSTORE PUSH2 0x4B82 PUSH1 0x40 DUP9 ADD PUSH2 0x488F JUMP JUMPDEST PUSH1 0x40 DUP5 ADD MSTORE PUSH2 0x4B93 PUSH1 0x60 DUP9 ADD PUSH2 0x4884 JUMP JUMPDEST PUSH1 0x60 DUP5 ADD MSTORE PUSH2 0x4BA4 PUSH1 0x80 DUP9 ADD PUSH2 0x461F JUMP JUMPDEST PUSH1 0x80 DUP5 ADD MSTORE PUSH2 0x4BB5 PUSH1 0xA0 DUP9 ADD PUSH2 0x4614 JUMP JUMPDEST PUSH1 0xA0 DUP5 ADD MSTORE DUP3 SWAP6 POP PUSH2 0x4BCA DUP9 PUSH1 0xC0 DUP10 ADD PUSH2 0x474F JUMP JUMPDEST SWAP5 POP PUSH2 0x400 DUP8 ADD MLOAD SWAP3 POP DUP1 DUP4 GT ISZERO PUSH2 0x4BE0 JUMPI DUP4 DUP5 REVERT JUMPDEST POP POP PUSH2 0x4BEE DUP7 DUP3 DUP8 ADD PUSH2 0x4536 JUMP JUMPDEST SWAP2 POP POP SWAP3 POP SWAP3 POP SWAP3 JUMP JUMPDEST PUSH1 0x0 PUSH1 0x20 DUP3 DUP5 SUB SLT ISZERO PUSH2 0x4C09 JUMPI DUP1 DUP2 REVERT JUMPDEST POP MLOAD SWAP2 SWAP1 POP JUMP JUMPDEST PUSH1 0x0 DUP1 PUSH1 0x40 DUP4 DUP6 SUB SLT ISZERO PUSH2 0x4C22 JUMPI DUP2 DUP3 REVERT JUMPDEST POP POP DUP1 MLOAD PUSH1 0x20 SWAP1 SWAP2 ADD MLOAD SWAP1 SWAP3 SWAP1 SWAP2 POP JUMP JUMPDEST PUSH1 0x1 PUSH1 0x1 PUSH1 0xA0 SHL SUB SWAP2 SWAP1 SWAP2 AND DUP2 MSTORE PUSH1 0x20 ADD SWAP1 JUMP JUMPDEST PUSH1 0x1 PUSH1 0x1 PUSH1 0xA0 SHL SUB SWAP3 DUP4 AND DUP2 MSTORE SWAP2 AND PUSH1 0x20 DUP3 ADD MSTORE PUSH1 0x40 ADD SWAP1 JUMP JUMPDEST PUSH1 0x1 PUSH1 0x1 PUSH1 0xA0 SHL SUB SWAP4 DUP5 AND DUP2 MSTORE SWAP2 SWAP1 SWAP3 AND PUSH1 0x20 DUP3 ADD MSTORE PUSH1 0x40 DUP2 ADD SWAP2 SWAP1 SWAP2 MSTORE PUSH1 0x60 ADD SWAP1 JUMP JUMPDEST PUSH1 0x1 PUSH1 0x1 PUSH1 0xA0 SHL SUB SWAP3 SWAP1 SWAP3 AND DUP3 MSTORE PUSH1 0x20 DUP3 ADD MSTORE PUSH1 0x40 ADD SWAP1 JUMP JUMPDEST PUSH1 0x1 PUSH1 0x1 PUSH1 0xA0 SHL SUB SWAP4 SWAP1 SWAP4 AND DUP4 MSTORE PUSH2 0xFFFF SWAP2 DUP3 AND PUSH1 0x20 DUP5 ADD MSTORE AND PUSH1 0x40 DUP3 ADD MSTORE PUSH1 0x60 ADD SWAP1 JUMP JUMPDEST PUSH1 0x1 PUSH1 0x1 PUSH1 0xA0 SHL SUB SWAP6 SWAP1 SWAP6 AND DUP6 MSTORE PUSH2 0xFFFF SWAP4 SWAP1 SWAP4 AND PUSH1 0x20 DUP6 ADD MSTORE PUSH1 0x40 DUP5 ADD SWAP2 SWAP1 SWAP2 MSTORE PUSH1 0x60 DUP4 ADD MSTORE PUSH1 0x80 DUP3 ADD MSTORE PUSH1 0xA0 ADD SWAP1 JUMP JUMPDEST PUSH1 0x1 PUSH1 0x1 PUSH1 0xA0 SHL SUB SWAP5 SWAP1 SWAP5 AND DUP5 MSTORE PUSH1 0x20 DUP5 ADD SWAP3 SWAP1 SWAP3 MSTORE PUSH1 0x40 DUP4 ADD MSTORE PUSH1 0x60 DUP3 ADD MSTORE PUSH1 0x80 ADD SWAP1 JUMP JUMPDEST SWAP2 DUP3 MSTORE PUSH1 0x20 DUP3 ADD MSTORE PUSH1 0x40 ADD SWAP1 JUMP JUMPDEST SWAP3 DUP4 MSTORE PUSH1 0x20 DUP4 ADD SWAP2 SWAP1 SWAP2 MSTORE PUSH1 0x40 DUP3 ADD MSTORE PUSH1 0x60 ADD SWAP1 JUMP JUMPDEST PUSH1 0x20 DUP1 DUP3 MSTORE PUSH1 0xD SWAP1 DUP3 ADD MSTORE PUSH13 0x139BC81B1BD8D85B081919589D PUSH1 0x9A SHL PUSH1 0x40 DUP3 ADD MSTORE PUSH1 0x60 ADD SWAP1 JUMP JUMPDEST PUSH1 0x20 DUP1 DUP3 MSTORE PUSH1 0xB SWAP1 DUP3 ADD MSTORE PUSH11 0x4554482042616C616E6365 PUSH1 0xA8 SHL PUSH1 0x40 DUP3 ADD MSTORE PUSH1 0x60 ADD SWAP1 JUMP JUMPDEST PUSH1 0x20 DUP1 DUP3 MSTORE PUSH1 0xF SWAP1 DUP3 ADD MSTORE PUSH15 0x4E6F205072696D6520426F72726F77 PUSH1 0x88 SHL PUSH1 0x40 DUP3 ADD MSTORE PUSH1 0x60 ADD SWAP1 JUMP JUMPDEST PUSH1 0x20 DUP1 DUP3 MSTORE PUSH1 0x7 SWAP1 DUP3 ADD MSTORE PUSH7 0x9CDE40C6C2E6D PUSH1 0xCB SHL PUSH1 0x40 DUP3 ADD MSTORE PUSH1 0x60 ADD SWAP1 JUMP JUMPDEST PUSH1 0x20 DUP1 DUP3 MSTORE PUSH1 0xD SWAP1 DUP3 ADD MSTORE PUSH13 0x139BC818DBDB1B185D195C985B PUSH1 0x9A SHL PUSH1 0x40 DUP3 ADD MSTORE PUSH1 0x60 ADD SWAP1 JUMP JUMPDEST PUSH1 0x20 DUP1 DUP3 MSTORE PUSH1 0x1C SWAP1 DUP3 ADD MSTORE PUSH32 0x446570726563617465643A2052656465656D20746F2063546F6B656E00000000 PUSH1 0x40 DUP3 ADD MSTORE PUSH1 0x60 ADD SWAP1 JUMP JUMPDEST PUSH1 0x20 DUP1 DUP3 MSTORE PUSH1 0xA SWAP1 DUP3 ADD MSTORE PUSH10 0x2732B390372A37B5B2B7 PUSH1 0xB1 SHL PUSH1 0x40 DUP3 ADD MSTORE PUSH1 0x60 ADD SWAP1 JUMP JUMPDEST PUSH2 0xFFFF SWAP3 SWAP1 SWAP3 AND DUP3 MSTORE PUSH1 0x20 DUP3 ADD MSTORE PUSH1 0x40 ADD SWAP1 JUMP JUMPDEST PUSH2 0xFFFF SWAP6 DUP7 AND DUP2 MSTORE SWAP4 SWAP1 SWAP5 AND PUSH1 0x20 DUP5 ADD MSTORE PUSH1 0x40 DUP4 ADD SWAP2 SWAP1 SWAP2 MSTORE PUSH1 0x60 DUP3 ADD MSTORE PUSH1 0x80 DUP2 ADD SWAP2 SWAP1 SWAP2 MSTORE PUSH1 0xA0 ADD SWAP1 JUMP JUMPDEST SWAP1 DUP2 MSTORE PUSH1 0x20 ADD SWAP1 JUMP JUMPDEST PUSH1 0x40 MLOAD DUP2 DUP2 ADD PUSH8 0xFFFFFFFFFFFFFFFF DUP2 GT DUP3 DUP3 LT OR ISZERO PUSH2 0x4EBC JUMPI INVALID JUMPDEST PUSH1 0x40 MSTORE SWAP2 SWAP1 POP JUMP JUMPDEST PUSH1 0x0 PUSH8 0xFFFFFFFFFFFFFFFF DUP3 GT ISZERO PUSH2 0x4ED8 JUMPI INVALID JUMPDEST POP PUSH1 0x20 SWAP1 DUP2 MUL ADD SWAP1 JUMP JUMPDEST PUSH1 0x1 PUSH1 0x1 PUSH1 0xA0 SHL SUB DUP2 AND DUP2 EQ PUSH2 0x4EF7 JUMPI PUSH1 0x0 DUP1 REVERT JUMPDEST POP JUMP JUMPDEST DUP1 ISZERO ISZERO DUP2 EQ PUSH2 0x4EF7 JUMPI PUSH1 0x0 DUP1 REVERT JUMPDEST PUSH2 0xFFFF DUP2 AND DUP2 EQ PUSH2 0x4EF7 JUMPI PUSH1 0x0 DUP1 REVERT INVALID LOG2 PUSH5 0x6970667358 0x22 SLT KECCAK256 PUSH10 0xF7A5FF4030CA004AD979 0xD1 0x2E 0xA6 PUSH26 0xE4F77B26871C6646F0EB4E390A50AF792F64736F6C6343000706 STOP CALLER ","sha1":"1ce34b294e9e2b4f4ca44ba97c6ea7b8efb3d07f","source":"// SPDX-License-Identifier: BSUL-1.1\npragma solidity =0.7.6;\npragma abicoder v2;\n\nimport {\n    BalanceState,\n    AccountContext,\n    LiquidationFactors\n} from \"../../global/Types.sol\";\nimport {SafeInt256} from \"../../math/SafeInt256.sol\";\n\nimport {AccountContextHandler} from \"../../internal/AccountContextHandler.sol\";\nimport {BalanceHandler} from \"../../internal/balances/BalanceHandler.sol\";\nimport {LiquidateCurrency} from \"../../internal/liquidation/LiquidateCurrency.sol\";\nimport {LiquidationHelpers} from \"../../internal/liquidation/LiquidationHelpers.sol\";\nimport {ActionGuards} from \"./ActionGuards.sol\";\n\nimport {MigrateIncentives} from \"../MigrateIncentives.sol\";\nimport {FreeCollateralExternal} from \"../FreeCollateralExternal.sol\";\n\ncontract LiquidateCurrencyAction is ActionGuards {\n    using AccountContextHandler for AccountContext;\n    using BalanceHandler for BalanceState;\n    using SafeInt256 for int256;\n\n    event LiquidateLocalCurrency(\n        address indexed liquidated,\n        address indexed liquidator,\n        uint16 localCurrencyId,\n        int256 localPrimeCashFromLiquidator\n    );\n\n    event LiquidateCollateralCurrency(\n        address indexed liquidated,\n        address indexed liquidator,\n        uint16 localCurrencyId,\n        uint16 collateralCurrencyId,\n        int256 localPrimeCashFromLiquidator,\n        int256 netCollateralTransfer,\n        int256 netNTokenTransfer\n    );\n\n    /// @notice Calculates the net local currency required by the liquidator. This is a stateful method\n    /// because it may settle the liquidated account if required. However, it can be called using staticcall\n    /// off chain to determine the net local currency required before liquidating.\n    /// @param liquidateAccount account to liquidate\n    /// @param localCurrency id of the local currency\n    /// @param maxNTokenLiquidation maximum amount of nTokens to purchase (if any)\n    /// @return local currency required from liquidator (positive or negative)\n    /// @return local nTokens paid to liquidator (positive)\n    function calculateLocalCurrencyLiquidation(\n        address liquidateAccount,\n        uint16 localCurrency,\n        uint96 maxNTokenLiquidation\n    ) external nonReentrant returns (int256, int256) {\n        // prettier-ignore\n        (\n            int256 localPrimeCashFromLiquidator,\n            BalanceState memory localBalanceState,\n            /* AccountContext memory accountContext */\n        ) = _localCurrencyLiquidation(\n            liquidateAccount,\n            localCurrency,\n            maxNTokenLiquidation,\n            true // Is Calculation\n        );\n\n        return (\n            localPrimeCashFromLiquidator,\n            localBalanceState.netNTokenTransfer.neg()\n        );\n    }\n\n    /// @notice Liquidates an account using local currency only\n    /// @param liquidateAccount account to liquidate\n    /// @param localCurrency id of the local currency\n    /// @param maxNTokenLiquidation maximum amount of nTokens to purchase (if any)\n    /// @return local currency required from liquidator (positive or negative)\n    /// @return local nTokens paid to liquidator (positive)\n    function liquidateLocalCurrency(\n        address liquidateAccount,\n        uint16 localCurrency,\n        uint96 maxNTokenLiquidation\n    ) external payable nonReentrant returns (int256, int256) {\n        // Calculates liquidation results:\n        //  - ntoken transfers\n        //  - amount of cash paid to/from the liquidator\n        (\n            int256 localPrimeCashFromLiquidator,\n            BalanceState memory localBalanceState,\n            AccountContext memory accountContext\n        ) = _localCurrencyLiquidation(\n            liquidateAccount,\n            localCurrency,\n            maxNTokenLiquidation,\n            false // is not calculation\n        );\n\n        // Finalizes liquidator account changes:\n        //  - transfers local asset cash to/from liquidator wallet (not notional cash\n        //    balance). Exception is with tokens that have a transfer fee\n        //  - transfers ntokens to liquidator\n        AccountContext memory liquidatorContext = LiquidationHelpers.finalizeLiquidatorLocal(\n            msg.sender,\n            liquidateAccount,\n            localCurrency,\n            localPrimeCashFromLiquidator,\n            localBalanceState.netNTokenTransfer.neg()\n        );\n        // Finalizes liquidated account changes:\n        //   - credits additional change in localBalanceChange.netCashChange\n        //   - removes transferred nTokens from the account\n        //   - sets the account context\n        localBalanceState.finalizeNoWithdraw(liquidateAccount, accountContext);\n\n        emit LiquidateLocalCurrency(\n            liquidateAccount,\n            msg.sender,\n            localCurrency,\n            localPrimeCashFromLiquidator\n        );\n\n        liquidatorContext.setAccountContext(msg.sender);\n        accountContext.setAccountContext(liquidateAccount);\n\n        return (\n            localPrimeCashFromLiquidator,\n            localBalanceState.netNTokenTransfer.neg()\n        );\n    }\n\n    /// @notice Calculates local and collateral currency transfers for a liquidation. This is a stateful method\n    /// because it may settle the liquidated account if required. However, it can be called using staticcall\n    /// off chain to determine the net currency amounts required before liquidating.\n    /// @param liquidateAccount account to liquidate\n    /// @param localCurrency id of the local currency\n    /// @param collateralCurrency id of the collateral currency\n    /// @param maxCollateralLiquidation maximum amount of collateral (inclusive of cash and nTokens) to liquidate\n    /// @param maxNTokenLiquidation maximum amount of nTokens to purchase (if any)\n    /// @return local currency required from liquidator (negative)\n    /// @return collateral asset cash paid to liquidator (positive)\n    /// @return collateral nTokens paid to liquidator (positive)\n    function calculateCollateralCurrencyLiquidation(\n        address liquidateAccount,\n        uint16 localCurrency,\n        uint16 collateralCurrency,\n        uint128 maxCollateralLiquidation,\n        uint96 maxNTokenLiquidation\n    ) external nonReentrant returns (int256, int256, int256) {\n        // prettier-ignore\n        (\n            int256 localPrimeCashFromLiquidator,\n            BalanceState memory collateralBalanceState,\n            /* */\n        ) = _collateralCurrencyLiquidation(\n                liquidateAccount,\n                localCurrency,\n                collateralCurrency,\n                maxCollateralLiquidation,\n                maxNTokenLiquidation,\n                true // is calculation\n            );\n\n        return (\n            localPrimeCashFromLiquidator,\n            collateralBalanceState.netCashChange.neg(),\n            collateralBalanceState.netNTokenTransfer.neg()\n        );\n    }\n\n    /// @notice Liquidates an account between local and collateral currency\n    /// @param liquidateAccount account to liquidate\n    /// @param localCurrency id of the local currency\n    /// @param collateralCurrency id of the collateral currency\n    /// @param maxCollateralLiquidation maximum amount of collateral (inclusive of cash and nTokens) to liquidate\n    /// @param maxNTokenLiquidation maximum amount of nTokens to purchase (if any)\n    /// @param withdrawCollateral if true, withdraws collateral cash back to msg.sender\n    /// @param redeemToUnderlying if true, converts collateral cash from asset cash to underlying\n    /// @return local currency required from liquidator (negative)\n    /// @return collateral asset cash paid to liquidator (positive)\n    /// @return collateral nTokens paid to liquidator (positive)\n    function liquidateCollateralCurrency(\n        address liquidateAccount,\n        uint16 localCurrency,\n        uint16 collateralCurrency,\n        uint128 maxCollateralLiquidation,\n        uint96 maxNTokenLiquidation,\n        bool withdrawCollateral,\n        bool redeemToUnderlying\n    ) external payable nonReentrant returns (int256, int256, int256) {\n        // Calculates currency liquidation:\n        //  - amount of collateral cash balance given to liquidator\n        //  - liquidity tokens withdrawn\n        //  - collateral ntokens transferred to liquidator\n        (\n            int256 localPrimeCashFromLiquidator,\n            BalanceState memory collateralBalanceState,\n            AccountContext memory accountContext\n        ) = _collateralCurrencyLiquidation(\n            liquidateAccount,\n            localCurrency,\n            collateralCurrency,\n            maxCollateralLiquidation,\n            maxNTokenLiquidation,\n            false // is not calculation\n        );\n\n        // Finalizes the liquidator side of the transaction:\n        //   - transfers local asset cash from the liquidator wallet (exception\n        //     is if local asset has transfer fees)\n        //   - transfers collateral cash to liquidator, withdrawing and redeeming\n        //     if specified\n        //   - transfers ntokens to liquidator\n        //   - sets account context\n        AccountContext memory liquidatorContext = _finalizeLiquidatorBalances(\n            liquidateAccount,\n            localCurrency,\n            collateralCurrency,\n            localPrimeCashFromLiquidator,\n            collateralBalanceState,\n            withdrawCollateral,\n            redeemToUnderlying\n        );\n\n        // Finalize liquidated account local balance:\n        //   - adds local asset cash to the balance\n        LiquidationHelpers.finalizeLiquidatedLocalBalance(\n            liquidateAccount,\n            localCurrency,\n            accountContext,\n            localPrimeCashFromLiquidator\n        );\n\n        // Finalizes the liquidated account collateral balance:\n        //   - removes collateral cash paid to liquidator from cash balance\n        //   - removes collateral nTokens from the account\n        //   - skips the allowPrimeBorrow check\n        //   - sets the account context\n        collateralBalanceState.finalizeCollateralLiquidation(liquidateAccount, accountContext);\n\n        _emitCollateralEvent(\n            liquidateAccount,\n            localCurrency,\n            localPrimeCashFromLiquidator,\n            collateralBalanceState\n        );\n\n        accountContext.setAccountContext(liquidateAccount);\n        liquidatorContext.setAccountContext(msg.sender);\n\n        return (\n            localPrimeCashFromLiquidator,\n            collateralBalanceState.netCashChange.neg(),\n            collateralBalanceState.netNTokenTransfer.neg()\n        );\n    }\n\n    function _emitCollateralEvent(\n        address liquidateAccount,\n        uint16 localCurrency,\n        int256 localPrimeCashFromLiquidator,\n        BalanceState memory collateralBalanceState\n    ) private {\n        emit LiquidateCollateralCurrency(\n            liquidateAccount,\n            msg.sender,\n            localCurrency,\n            uint16(collateralBalanceState.currencyId),\n            localPrimeCashFromLiquidator,\n            collateralBalanceState.netCashChange.neg(),\n            collateralBalanceState.netNTokenTransfer.neg()\n        );\n    }\n\n    function _localCurrencyLiquidation(\n        address liquidateAccount,\n        uint16 localCurrency,\n        uint96 maxNTokenLiquidation,\n        bool isCalculation\n    ) internal returns (\n        int256 localPrimeCashFromLiquidator,\n        BalanceState memory localBalanceState,\n        AccountContext memory accountContext\n    ) {\n        LiquidationFactors memory factors;\n        (accountContext, factors, /* */) = LiquidationHelpers.preLiquidationActions(\n            liquidateAccount, localCurrency, 0\n        );\n\n        localBalanceState.loadBalanceState(liquidateAccount, localCurrency, accountContext);\n        factors.isCalculation = isCalculation;\n\n        localPrimeCashFromLiquidator = LiquidateCurrency.liquidateLocalCurrency(\n            maxNTokenLiquidation,\n            localBalanceState,\n            factors\n        );\n    }\n\n    function _collateralCurrencyLiquidation(\n        address liquidateAccount,\n        uint16 localCurrency,\n        uint16 collateralCurrency,\n        uint128 maxCollateralLiquidation,\n        uint96 maxNTokenLiquidation,\n        bool isCalculation\n    ) private returns (\n        int256 localPrimeCashFromLiquidator,\n        BalanceState memory collateralBalanceState,\n        AccountContext memory accountContext\n    ) {\n        LiquidationFactors memory factors;\n        (accountContext, factors, /* */) = LiquidationHelpers.preLiquidationActions(\n            liquidateAccount, localCurrency, collateralCurrency\n        );\n\n        collateralBalanceState.loadBalanceState(liquidateAccount, collateralCurrency, accountContext);\n        factors.isCalculation = isCalculation;\n\n        localPrimeCashFromLiquidator = LiquidateCurrency.liquidateCollateralCurrency(\n            maxCollateralLiquidation,\n            maxNTokenLiquidation,\n            collateralBalanceState,\n            factors\n        );\n    }\n\n    /// @dev Only used for collateral currency liquidation\n    function _finalizeLiquidatorBalances(\n        address liquidateAccount,\n        uint16 localCurrency,\n        uint16 collateralCurrency,\n        int256 localPrimeCashFromLiquidator,\n        BalanceState memory collateralBalanceState,\n        bool withdrawCollateral,\n        bool redeemToUnderlying\n    ) private returns (AccountContext memory liquidatorContext) {\n        // Will transfer local currency from the liquidator\n        liquidatorContext = LiquidationHelpers.finalizeLiquidatorLocal(\n            msg.sender,\n            liquidateAccount,\n            localCurrency,\n            localPrimeCashFromLiquidator,\n            0 // No nToken transfers\n        );\n\n        // Will transfer collateral to the liquidator\n        LiquidationHelpers.finalizeLiquidatorCollateral(\n            msg.sender,\n            liquidatorContext,\n            liquidateAccount,\n            collateralCurrency,\n            collateralBalanceState.netCashChange.neg(),\n            collateralBalanceState.netNTokenTransfer.neg(),\n            withdrawCollateral,\n            redeemToUnderlying\n        );\n    }\n\n    /// @notice Get a list of deployed library addresses (sorted by library name)\n    function getLibInfo() external pure returns (address, address) {\n        return (address(FreeCollateralExternal), address(MigrateIncentives));\n    }\n}\n","sourcePath":"contracts/external/actions/LiquidateCurrencyAction.sol","type":"contract","deployment":{"address":"0xcfbAFCe23e55EC0E6f864a3C16ADf2744D0Cb1f2","chainid":"42161","blockHeight":164625999}}