{"abi":[{"inputs":[{"internalType":"contract Comptroller","name":"_comptroller","type":"address"}],"stateMutability":"nonpayable","type":"constructor","name":"constructor"},{"anonymous":false,"inputs":[{"indexed":false,"internalType":"uint16","name":"currencyId","type":"uint16"},{"indexed":false,"internalType":"uint256","name":"supplyFactor","type":"uint256"},{"indexed":false,"internalType":"uint256","name":"annualizedInterestRate","type":"uint256"}],"name":"CurrencyRebalanced","type":"event"},{"anonymous":false,"inputs":[{"indexed":true,"internalType":"uint16","name":"currencyId","type":"uint16"},{"indexed":false,"internalType":"int256","name":"harvestAmount","type":"int256"}],"name":"ExcessReserveBalanceHarvested","type":"event"},{"anonymous":false,"inputs":[{"indexed":false,"internalType":"uint16","name":"currencyId","type":"uint16"},{"indexed":false,"internalType":"uint40","name":"cooldownTimeInSeconds","type":"uint40"}],"name":"RebalancingCooldownUpdated","type":"event"},{"anonymous":false,"inputs":[{"indexed":false,"internalType":"uint16","name":"currencyId","type":"uint16"},{"components":[{"internalType":"address","name":"holding","type":"address"},{"internalType":"uint8","name":"target","type":"uint8"}],"indexed":false,"internalType":"struct NotionalTreasury.RebalancingTargetConfig[]","name":"targets","type":"tuple[]"}],"name":"RebalancingTargetsUpdated","type":"event"},{"anonymous":false,"inputs":[{"indexed":true,"internalType":"uint16","name":"currencyId","type":"uint16"},{"indexed":false,"internalType":"int256","name":"newBalance","type":"int256"}],"name":"ReserveBalanceUpdated","type":"event"},{"anonymous":false,"inputs":[{"indexed":false,"internalType":"uint16","name":"currencyId","type":"uint16"},{"indexed":false,"internalType":"uint256","name":"bufferAmount","type":"uint256"}],"name":"ReserveBufferUpdated","type":"event"},{"anonymous":false,"inputs":[{"indexed":true,"internalType":"address","name":"previousManager","type":"address"},{"indexed":true,"internalType":"address","name":"newManager","type":"address"}],"name":"TreasuryManagerChanged","type":"event"},{"anonymous":false,"inputs":[{"indexed":false,"internalType":"uint16","name":"currencyId","type":"uint16"},{"indexed":false,"internalType":"uint32","name":"newEmissionRate","type":"uint32"}],"name":"UpdateIncentiveEmissionRate","type":"event"},{"anonymous":false,"inputs":[{"indexed":true,"internalType":"uint16","name":"currencyId","type":"uint16"},{"indexed":false,"internalType":"address","name":"rewarder","type":"address"}],"name":"UpdateSecondaryIncentiveRewarder","type":"event"},{"inputs":[],"name":"COMP","outputs":[{"internalType":"contract IERC20","name":"","type":"address"}],"stateMutability":"view","type":"function"},{"inputs":[],"name":"COMPTROLLER","outputs":[{"internalType":"contract Comptroller","name":"","type":"address"}],"stateMutability":"view","type":"function"},{"inputs":[{"internalType":"address[]","name":"cTokens","type":"address[]"}],"name":"claimCOMPAndTransfer","outputs":[{"internalType":"uint256","name":"","type":"uint256"}],"stateMutability":"nonpayable","type":"function"},{"inputs":[],"name":"owner","outputs":[{"internalType":"address","name":"","type":"address"}],"stateMutability":"view","type":"function"},{"inputs":[],"name":"pauseGuardian","outputs":[{"internalType":"address","name":"","type":"address"}],"stateMutability":"view","type":"function"},{"inputs":[],"name":"pauseRouter","outputs":[{"internalType":"address","name":"","type":"address"}],"stateMutability":"view","type":"function"},{"inputs":[{"internalType":"uint16[]","name":"currencyId","type":"uint16[]"}],"name":"rebalance","outputs":[],"stateMutability":"nonpayable","type":"function"},{"inputs":[{"internalType":"uint16","name":"currencyId","type":"uint16"},{"internalType":"uint40","name":"cooldownTimeInSeconds","type":"uint40"}],"name":"setRebalancingCooldown","outputs":[],"stateMutability":"nonpayable","type":"function"},{"inputs":[{"internalType":"uint16","name":"currencyId","type":"uint16"},{"components":[{"internalType":"address","name":"holding","type":"address"},{"internalType":"uint8","name":"target","type":"uint8"}],"internalType":"struct NotionalTreasury.RebalancingTargetConfig[]","name":"targets","type":"tuple[]"}],"name":"setRebalancingTargets","outputs":[],"stateMutability":"nonpayable","type":"function"},{"inputs":[{"internalType":"uint16","name":"currencyId","type":"uint16"},{"internalType":"uint256","name":"bufferAmount","type":"uint256"}],"name":"setReserveBuffer","outputs":[],"stateMutability":"nonpayable","type":"function"},{"inputs":[{"internalType":"uint16","name":"currencyId","type":"uint16"},{"internalType":"int256","name":"newBalance","type":"int256"}],"name":"setReserveCashBalance","outputs":[],"stateMutability":"nonpayable","type":"function"},{"inputs":[{"internalType":"uint16","name":"currencyId","type":"uint16"},{"internalType":"contract IRewarder","name":"rewarder","type":"address"}],"name":"setSecondaryIncentiveRewarder","outputs":[],"stateMutability":"nonpayable","type":"function"},{"inputs":[{"internalType":"address","name":"manager","type":"address"}],"name":"setTreasuryManager","outputs":[],"stateMutability":"nonpayable","type":"function"},{"inputs":[{"internalType":"uint16[]","name":"currencies","type":"uint16[]"}],"name":"transferReserveToTreasury","outputs":[{"internalType":"uint256[]","name":"","type":"uint256[]"}],"stateMutability":"nonpayable","type":"function"},{"inputs":[{"internalType":"uint16","name":"currencyId","type":"uint16"},{"internalType":"uint32","name":"newEmissionRate","type":"uint32"}],"name":"updateIncentiveEmissionRate","outputs":[],"stateMutability":"nonpayable","type":"function"}],"bytecode":"60c06040523480156200001157600080fd5b5060405162004d8b38038062004d8b8339810160408190526200003491620000eb565b6001600160601b0319606082901b1660a0526001600160a01b03811615620000d157806001600160a01b0316639d1b5a0a6040518163ffffffff1660e01b815260040160206040518083038186803b1580156200009057600080fd5b505afa158015620000a5573d6000803e3d6000fd5b505050506040513d601f19601f82011682018060405250810190620000cb9190620000eb565b620000d4565b60005b60601b6001600160601b031916608052506200012a565b600060208284031215620000fd578081fd5b81516200010a8162000111565b9392505050565b6001600160a01b03811681146200012757600080fd5b50565b60805160601c60a05160601c614c23620001686000398061073f5280610cd2525080610bb65280610c345280610d565280610dff5250614c236000f3fe608060405234801561001057600080fd5b50600436106100f55760003560e01c80638da5cb5b11610097578063a9efba3211610066578063a9efba32146101c4578063b71501bc146101d7578063fadb7fee146101df578063fe47a9f2146101ff576100f5565b80638da5cb5b146101835780638e73b23c1461018b578063a05e12551461019e578063a9d7bc52146101b1576100f5565b806324a3d622116100d357806324a3d622146101355780635f82c67e146101535780636d7a00eb1461015b578063824633671461017b576100f5565b8063038af5dc146100fa5780630655d8b81461010f57806312adc47b14610122575b600080fd5b61010d6101083660046146bb565b610212565b005b61010d61011d366004614639565b6104e3565b61010d6101303660046146f3565b6106e6565b61013d61072e565b60405161014a9190614818565b60405180910390f35b61013d61073d565b61016e610169366004614588565b610761565b60405161014a9190614925565b61013d610925565b61013d610934565b61010d6101993660046146f3565b61094a565b61010d6101ac366004614588565b6109d8565b61010d6101bf36600461471e565b610a43565b61010d6101d2366004614753565b610b13565b61013d610bb4565b6101f26101ed3660046142f4565b610bd8565b60405161014a9190614938565b61010d61020d3660046142bc565b610e34565b600054600160201b90046001600160a01b0316331461024c5760405162461bcd60e51b8152600401610243906149a6565b60405180910390fd5b61025582610ec1565b60006102648361ffff16610efe565b90506001600160a01b0382161561040857816001600160a01b0316639d4be3f56040518163ffffffff1660e01b8152600401602060405180830381600087803b1580156102b057600080fd5b505af11580156102c4573d6000803e3d6000fd5b505050506040513d601f19601f820116820180604052508101906102e8919061461d565b61ffff168361ffff16146102fb57600080fd5b816001600160a01b0316631c9219766040518163ffffffff1660e01b8152600401602060405180830381600087803b15801561033657600080fd5b505af115801561034a573d6000803e3d6000fd5b505050506040513d601f19601f8201168201806040525081019061036e91906142d8565b6001600160a01b0316816001600160a01b03161461038b57600080fd5b816001600160a01b031663432cc1b36040518163ffffffff1660e01b8152600401602060405180830381600087803b1580156103c657600080fd5b505af11580156103da573d6000803e3d6000fd5b505050506040513d601f19601f820116820180604052508101906103fe91906145e1565b1561040857600080fd5b600061041382610f2b565b9050806001600160a01b0316836001600160a01b0316141561043457600080fd5b6001600160a01b0381161561049757806001600160a01b031663225435c06040518163ffffffff1660e01b8152600401600060405180830381600087803b15801561047e57600080fd5b505af1158015610492573d6000803e3d6000fd5b505050505b6104a18484610f9d565b8361ffff167f972af272071de4b82ff83458c3a6de8ba183a9c7dc724d4cf91d25f524a810e1846040516104d59190614818565b60405180910390a250505050565b600054600160201b90046001600160a01b031633146105145760405162461bcd60e51b8152600401610243906149a6565b600061051f84611040565b90506000816001600160a01b031663e79bf13b6040518163ffffffff1660e01b815260040160006040518083038186803b15801561055c57600080fd5b505afa158015610570573d6000803e3d6000fd5b505050506040513d6000823e601f3d908101601f191682016040526105989190810190614333565b805190915083146105a857600080fd5b60006105b2611070565b61ffff87166000908152602091909152604081209150805b835181101561069357368787838181106105e057fe5b905060400201905060008583815181106105f657fe5b60200260200101519050806001600160a01b031682600001602081019061061d91906142bc565b6001600160a01b03161461063057600080fd5b61064d61064360408401602085016147c4565b859060ff16611083565b935061065f60408301602084016147c4565b6001600160a01b03919091166000908152602086905260409020805460ff191660ff909216919091179055506001016105ca565b5060648111156106a257600080fd5b7f173893b333beacb26403450e70f577038a6531741aaff45c341bee3b8d4b42c48787876040516106d593929190614a5a565b60405180910390a150505050505050565b600054600160201b90046001600160a01b031633146107175760405162461bcd60e51b8152600401610243906149a6565b61072082610ec1565b61072a828261109c565b5050565b6002546001600160a01b031681565b7f000000000000000000000000000000000000000000000000000000000000000081565b600b546060906001600160a01b0316331461078e5760405162461bcd60e51b815260040161024390614941565b6002600a54141561079e57600080fd5b6002600a556000826001600160401b03811180156107bb57600080fd5b506040519080825280602002602001820160405280156107e5578160200160208202803683370190505b50905060005b838110156109185780156108635784846001830381811061080857fe5b905060200201602081019061081d9190614601565b61ffff1685858381811061082d57fe5b90506020020160208101906108429190614601565b61ffff16116108635760405162461bcd60e51b8152600401610243906149db565b600085858381811061087157fe5b90506020020160208101906108869190614601565b905061089181610ec1565b61ffff81166000908152600c60205260408120546108ae906110dd565b9050806108bc575050610910565b60006108ca610fee846110f7565b90508181136108db57505050610910565b8181036108e88482611150565b8686815181106108f457fe5b60200260200101818152505061090b8483836111bf565b505050505b6001016107eb565b506001600a559392505050565b6001546001600160a01b031681565b600054600160201b90046001600160a01b031681565b600054600160201b90046001600160a01b0316331461097b5760405162461bcd60e51b8152600401610243906149a6565b61098482610ec1565b61ffff82166000908152600c602052604090819020829055517ffd37f6bc518c96b848c133a7d44a5a9b5acea171be7dc45e363f153347ed7641906109cc9084908490614abd565b60405180910390a15050565b600b546001600160a01b03163314610a025760405162461bcd60e51b815260040161024390614941565b60005b81811015610a3e57610a36838383818110610a1c57fe5b9050602002016020810190610a319190614601565b611219565b600101610a05565b505050565b600054600160201b90046001600160a01b03163314610a745760405162461bcd60e51b8152600401610243906149a6565b610a7d82610ec1565b6000610a8c8361ffff16610efe565b90506001600160a01b038116610aa157600080fd5b6305f5e1008263ffffffff1612610aca5760405162461bcd60e51b815260040161024390614a07565b610ad58183426113b7565b7f713f9554d16202d36a895476ec29ce9250f47d35422e2d9409e8f644d6aab6898383604051610b06929190614aed565b60405180910390a1505050565b600054600160201b90046001600160a01b03163314610b445760405162461bcd60e51b8152600401610243906149a6565b6000610b4e61140d565b61ffff841660009081526020829052604090819020805464ffffffffff60801b1916600160801b64ffffffffff871602179055519091507f16b1cf4cbff8df027f5bec1791dc85fa6b5f625fba6bc942c10482ccfe6814b290610b069085908590614b07565b7f000000000000000000000000000000000000000000000000000000000000000081565b600b546000906001600160a01b03163314610c055760405162461bcd60e51b815260040161024390614941565b6002600a541415610c1557600080fd5b6002600a556040516370a0823160e01b81526000906001600160a01b037f000000000000000000000000000000000000000000000000000000000000000016906370a0823190610c69903090600401614818565b60206040518083038186803b158015610c8157600080fd5b505afa158015610c95573d6000803e3d6000fd5b505050506040513d601f19601f82011682018060405250810190610cb99190614789565b60405162e1ed9760e51b81529091506001600160a01b037f00000000000000000000000000000000000000000000000000000000000000001690631c3db2e090610d0b90309088908890600401614850565b600060405180830381600087803b158015610d2557600080fd5b505af1158015610d39573d6000803e3d6000fd5b50506040516370a0823160e01b8152600092506001600160a01b037f00000000000000000000000000000000000000000000000000000000000000001691506370a0823190610d8c903090600401614818565b60206040518083038186803b158015610da457600080fd5b505afa158015610db8573d6000803e3d6000fd5b505050506040513d601f19601f82011682018060405250810190610ddc9190614789565b90506000610dea828461141a565b90508015610e2657610e266001600160a01b037f000000000000000000000000000000000000000000000000000000000000000016338361142f565b6001600a5595945050505050565b600054600160201b90046001600160a01b03163314610e655760405162461bcd60e51b8152600401610243906149a6565b600b546040516001600160a01b038084169216907ff92cfddd8d7ab2f6e4fd488959c76c8033aaaa6dad691a0cbd1fc68f194b3d0c90600090a3600b80546001600160a01b0319166001600160a01b0392909216919091179055565b8061ffff166000108015610edf575060005461ffff90811690821611155b610efb5760405162461bcd60e51b815260040161024390614a2d565b50565b600080610f09611481565b600084815260209190915260409020546001600160a01b03169150505b919050565b600080610f3661148e565b6001600160a01b0384166000908152602082905260409020805491925090600160f81b900460ff1615610f9257610f6b61149b565b6001600160a01b038086166000908152602092909252604090912054169250610f26915050565b600092505050610f26565b6000610fac8361ffff16610efe565b90506001600160a01b038116610fc157600080fd5b6000610fcb61148e565b6001600160a01b03838116600090815260208390526040902080546001600160f81b03169186161515600160f81b029190911781559091508361100c61149b565b6001600160a01b0394851660009081526020919091526040902080546001600160a01b031916919094161790925550505050565b60008061104b6114a8565b61ffff939093166000908152602093909352505060409020546001600160a01b031690565b60008061107d60246114b1565b92915050565b60008282018381101561109557600080fd5b9392505050565b60008112156110aa57600080fd5b60006110b8610fee846110f7565b90506110c7610fee84846114ca565b610a3e610fee846110d8858561153e565b611554565b60006001600160ff1b038211156110f357600080fd5b5090565b6000806111026115de565b6001600160a01b03851660009081526020828152604080832061ffff8816845290915281208054600160a81b9004600a90810b900b945091925083121561114857600080fd5b505092915050565b60008061115c846115eb565b600b5490915061117a90610fee906001600160a01b031686866115fd565b600b546000906111a8906111a3906001600160a01b03168761119b886116a3565b8660016116b1565b6116a3565b9050600081136111b757600080fd5b949350505050565b6111c9828261175a565b91506111d8610fee84846114ca565b8261ffff167f7c5e8932dd97cea84f9ab339dad12a29a4cd81e67e7d892663aa03a3f0832b738260405161120c9190614938565b60405180910390a2505050565b600061122361140d565b61ffff831660009081526020918252604090819020815160608101835290546001600160801b038116825264ffffffffff600160801b82048116948301859052600160a81b90910416918101829052925042916112809190611083565b1061129d5760405162461bcd60e51b815260040161024390614978565b60006112a8836115eb565b90506112b383611776565b6000806112c383600001516119a6565b84519091506001600160801b031615611359576000611324633b9aca00611318670de0b6b3a764000061131e89600001516001600160801b0316611318670de0b6b3a7640000896119b590919063ffffffff16565b906119dc565b9061141a565b9050611355611347866040015164ffffffffff164261141a90919063ffffffff16565b611318836301da9c006119b5565b9250505b61136b85611366836119fb565b611a11565b6113758583611a83565b7feddea56dfbd588f030ed3fcbde65761f19492023ce381012239e7f7cc8d35a7c8582846040516113a893929190614ad1565b60405180910390a15050505050565b6113c383600083611ad4565b5060006113ce61148e565b6001600160a01b03909416600090815260209490945250506040909120805463ffffffff909216620100000265ffffffff000019909216919091179055565b60008061107d60256114b1565b60008282111561142957600080fd5b50900390565b604080516001600160a01b038416602482015260448082018490528251808303909101815260649091019091526020810180516001600160e01b031663a9059cbb60e01b179052610a3e908490611bb5565b60008061107d60036114b1565b60008061107d60026114b1565b60008061107d60126114b1565b60008061107d601f5b6000620f42408260268111156114c357fe5b0192915050565b60008112156114d857600080fd5b60006114e26115de565b6001600160a01b03851660009081526020828152604080832061ffff88168452909152902090915061151383611c66565b8154600a9190910b6001600160581b0316600160a81b026001600160a81b0390911617905550505050565b8082038281131560008312151461107d57600080fd5b600061155e611c98565b61ffff8416600090815260209190915260409081902054905163ad1c095d60e01b81526001600160a01b039091169150819063ad1c095d906115a690879086906004016148ac565b600060405180830381600087803b1580156115c057600080fd5b505af11580156115d4573d6000803e3d6000fd5b5050505050505050565b60008061107d60066114b1565b6115f3613f9d565b61107d8242611ca5565b6000611607611c98565b61ffff8416600090815260209190915260408120546001600160a01b03169150821215611632579293925b806001600160a01b03166323de6651868661164c86611d6b565b6040518463ffffffff1660e01b815260040161166a9392919061482c565b600060405180830381600087803b15801561168457600080fd5b505af1158015611698573d6000803e3d6000fd5b505050505050505050565b600061107d60001983611d8c565b6000836116c057506000611751565b600084126116cd57600080fd5b60006116dc8661ffff16611dda565b90506116f1816116ec8688611ded565b611e19565b915060006116fe836116a3565b905061170b878383611e51565b60038260600151600581111561171d57fe5b14156117335761172e888286611f3f565b611740565b815161174090898361200d565b61174d8888858589612084565b5050505b95945050505050565b6000611766838361153e565b9050600081121561107d57600080fd5b600061178182611040565b90506000816001600160a01b031663e79bf13b6040518163ffffffff1660e01b815260040160006040518083038186803b1580156117be57600080fd5b505afa1580156117d2573d6000803e3d6000fd5b505050506040513d6000823e601f3d908101601f191682016040526117fa9190810190614333565b9050600061180884836120cb565b905060006118178484846121cc565b90506000846001600160a01b031663ef81f2166040518163ffffffff1660e01b81526004016040805180830381600087803b15801561185557600080fd5b505af1158015611869573d6000803e3d6000fd5b505050506040513d601f19601f8201168201806040525081019061188d91906147a1565b509050600061189f8761ffff16611dda565b905060006118b1828560000151612613565b509050806118c7576118c782856020015161282a565b6000876001600160a01b031663ef81f2166040518163ffffffff1660e01b81526004016040805180830381600087803b15801561190357600080fd5b505af1158015611917573d6000803e3d6000fd5b505050506040513d601f19601f8201168201806040525081019061193b91906147a1565b509050600061195b61194c836110dd565b611955876110dd565b9061153e565b9050600061198861196b876110dd565b611982633b9aca0061197c86611d6b565b90611d8c565b90612a36565b9050620186a0811261199957600080fd5b5050505050505050505050565b6000808212156110f357600080fd5b6000826119c45750600061107d565b828202828482816119d157fe5b041461109557600080fd5b60008082116119ea57600080fd5b8183816119f357fe5b049392505050565b60006001600160801b038211156110f357600080fd5b6000611a1b61140d565b9050611a2642612a67565b61ffff93909316600090815260209190915260409020805464ffffffffff60a81b1916600160a81b64ffffffffff90941693909302929092176fffffffffffffffffffffffffffffffff19166001600160801b0391909116179055565b6000611a8d612a7b565b9050611a9882612a88565b61ffff909316600090815260209190915260409020805463ffffffff93909316600160d81b0263ffffffff60d81b199093169290921790915550565b6000806000611ae38685612a9b565b50915091506000611af2612b31565b6001600160a01b0388166000908152602082905260408120919250611b178589612b3e565b905080600013158015611b3057506001600160601b0381105b611b3957600080fd5b81546bffffffffffffffffffffffff19166001600160601b038216176fffffffffffffffffffffffffffffffff60601b1916600160601b6001600160801b0386160217825563ffffffff8710611b8e57600080fd5b5080546001600160e01b0316600160e01b63ffffffff881602179055509150509392505050565b6000611c0a826040518060400160405280602081526020017f5361666545524332303a206c6f772d6c6576656c2063616c6c206661696c6564815250856001600160a01b0316612b549092919063ffffffff16565b805190915015610a3e57808060200190516020811015611c2957600080fd5b5051610a3e5760405162461bcd60e51b815260040180806020018281038252602a815260200180614bc4602a913960400191505060405180910390fd5b60006a7fffffffffffffffffffff198212801590611c8f57506a7fffffffffffffffffffff8213155b6110f357600080fd5b60008061107d60216114b1565b611cad613f9d565b6000611cb884612b63565b90508281600001511015611cf757600080611cd286612c2b565b9050611ce086848388612ca8565b9093509150611cf0868385612d4c565b5050611d04565b80518314611d0457600080fd5b6040518060600160405280611d32611d2d8460a001518560c001516119b590919063ffffffff16565b6110dd565b8152602001611d55611d2d8460a001518560e001516119b590919063ffffffff16565b8152602001826060015181525091505092915050565b600080821215611d8557611d7e826116a3565b9050610f26565b5080610f26565b818102600019831415611dbc57811580611dae575082828281611dab57fe5b05145b611db757600080fd5b61107d565b821580611dd1575081838281611dce57fe5b05145b61107d57600080fd5b611de2613fbe565b61107d826001612f72565b60006110956ec097ce7bc90715b34b9f1000000000611982856000015185611d8c90919063ffffffff16565b60006305f5e10083604001511415611e3257508061107d565b6110956305f5e100611982856040015185611d8c90919063ffffffff16565b6000611e5b61300c565b83516001600160a01b0316600090815260208290526040902054909150808311611e86575050610a3e565b6000611e9186611040565b90506000816001600160a01b031663b5e4da238487036040518263ffffffff1660e01b8152600401611ec39190614938565b60006040518083038186803b158015611edb57600080fd5b505afa158015611eef573d6000803e3d6000fd5b505050506040513d6000823e601f3d908101601f19168201604052611f17919081019061448a565b90506000611f258783612613565b9150611f3390508482611083565b8611156115d457600080fd5b8015611fd1577382af49447d8a07e3bd95bd0d56f35241523fbab16001600160a01b031663d0e30db0836040518263ffffffff1660e01b81526004016000604051808303818588803b158015611f9457600080fd5b505af1158015611fa8573d6000803e3d6000fd5b5050505050611fcc7382af49447d8a07e3bd95bd0d56f35241523fbab1848461200d565b610a3e565b6040516001600160a01b0384169083156108fc029084906000818181858888f19350505050158015612007573d6000803e3d6000fd5b50505050565b826001600160a01b031663a9059cbb83836040518363ffffffff1660e01b815260040180836001600160a01b0316815260200182815260200192505050600060405180830381600087803b15801561206457600080fd5b505af1158015612078573d6000803e3d6000fd5b50505050610a3e613019565b6000806120918486613086565b905061209d83826130b6565b91506120aa878784611554565b6120b58683836130d8565b83516120c190866131e4565b5095945050505050565b606060006120d7611070565b61ffff851660009081526020919091526040902083519091506001600160401b038111801561210557600080fd5b5060405190808252806020026020018201604052801561212f578160200160208202803683370190505b5091506000805b84518110156121bd57600083600087848151811061215057fe5b60200260200101516001600160a01b03166001600160a01b0316815260200190815260200160002060009054906101000a900460ff1690508085838151811061219557fe5b60ff92831660209182029290920101526121b29084908316611083565b925050600101612136565b50606481111561114857600080fd5b6121d4613fed565b6000846001600160a01b031663395c46ba6040518163ffffffff1660e01b815260040160006040518083038186803b15801561220f57600080fd5b505afa158015612223573d6000803e3d6000fd5b505050506040513d6000823e601f3d908101601f1916820160405261224b91908101906145af565b90506000856001600160a01b031663a77c05b86040518163ffffffff1660e01b8152600401604080518083038186803b15801561228757600080fd5b505afa15801561229b573d6000803e3d6000fd5b505050506040513d601f19601f820116820180604052508101906122bf91906147a1565b509050600085516001600160401b03811180156122db57600080fd5b50604051908082528060200260200182016040528015612305578160200160208202803683370190505b509050600086516001600160401b038111801561232157600080fd5b5060405190808252806020026020018201604052801561234b578160200160208202803683370190505b509050600087516001600160401b038111801561236757600080fd5b50604051908082528060200260200182016040528015612391578160200160208202803683370190505b509050600088516001600160401b03811180156123ad57600080fd5b506040519080825280602002602001820160405280156123d7578160200160208202803683370190505b50905060005b89518110156124f95760008a82815181106123f457fe5b60200260200101519050600061242e60646113188d868151811061241457fe5b602002602001015160ff168b6119b590919063ffffffff16565b9050600089848151811061243e57fe5b602002602001015190508288858151811061245557fe5b60200260200101906001600160a01b031690816001600160a01b0316815250508286858151811061248257fe5b60200260200101906001600160a01b031690816001600160a01b031681525050808210156124ca578181038785815181106124b957fe5b6020026020010181815250506124ee565b818110156124ee578082038585815181106124e157fe5b6020026020010181815250505b5050506001016123dd565b5060405163871ade4360e01b81526001600160a01b038b169063871ade439061252890879087906004016148c5565b60006040518083038186803b15801561254057600080fd5b505afa158015612554573d6000803e3d6000fd5b505050506040513d6000823e601f3d908101601f1916820160405261257c919081019061448a565b87526040516376cf13af60e01b81526001600160a01b038b16906376cf13af906125ac90859085906004016148c5565b60006040518083038186803b1580156125c457600080fd5b505afa1580156125d8573d6000803e3d6000fd5b505050506040513d6000823e601f3d908101601f191682016040526126009190810190614365565b6020880152509498975050505050505050565b60008060005b835181101561282257600084828151811061263057fe5b60200260200101519050600081606001516001600160a01b03166370a08231306040518263ffffffff1660e01b815260040161266c9190614818565b60206040518083038186803b15801561268457600080fd5b505afa158015612698573d6000803e3d6000fd5b505050506040513d601f19601f820116820180604052508101906126bc9190614789565b905060006126ca883061323e565b905060005b83515181101561272657612715846000015182815181106126ec57fe5b602002602001015160008660200151848151811061270657fe5b602002602001015160016132ef565b61271e57600196505b6001016126cf565b506000612733893061323e565b90506000612741828461141a565b9050808560400151111561275457600080fd5b60608501516040516370a0823160e01b81526000916001600160a01b0316906370a0823190612787903090600401614818565b60206040518083038186803b15801561279f57600080fd5b505afa1580156127b3573d6000803e3d6000fd5b505050506040513d601f19601f820116820180604052508101906127d79190614789565b9050848111156127e657600080fd5b6127f58660600151868361355d565b6127ff8883611083565b97506128108b60000151858561355d565b50506001909401935061261992505050565b509250929050565b6000805b825181101561200757600083828151811061284557fe5b60200260200101519050600081608001516001600160a01b03166370a08231306040518263ffffffff1660e01b81526004016128819190614818565b60206040518083038186803b15801561289957600080fd5b505afa1580156128ad573d6000803e3d6000fd5b505050506040513d601f19601f820116820180604052508101906128d19190614789565b905060006128df873061323e565b905060005b83515181101561293a576129318460000151828151811061290157fe5b60200260200101518560400151838151811061291957fe5b60200260200101518660200151848151811061270657fe5b506001016128e4565b506000612947883061323e565b90506000612955838361141a565b9050846060015181111561296857600080fd5b60808501516040516370a0823160e01b81526000916001600160a01b0316906370a082319061299b903090600401614818565b60206040518083038186803b1580156129b357600080fd5b505afa1580156129c7573d6000803e3d6000fd5b505050506040513d601f19601f820116820180604052508101906129eb9190614789565b9050808511156129fa57600080fd5b612a098660800151868361355d565b612a138883611083565b9750612a248a60000151858561355d565b50506001909401935061282e92505050565b600081600019148015612a4c5750600160ff1b83145b15612a5657600080fd5b818381612a5f57fe5b059392505050565b600064ffffffffff8211156110f357600080fd5b60008061107d601d6114b1565b600063ffffffff8211156110f357600080fd5b6000806000612aa9856135da565b919450925090508084118015612abf5750600081115b8015612acb5750600083115b15612b2a576000612adb86613636565b5050509150506000612b06612afd6305f5e100846119b590919063ffffffff16565b848803876136a2565b9050612b128482611083565b93506001600160801b038410612b2757600080fd5b50505b9250925092565b60008061107d60116114b1565b8181018281121560008312151461107d57600080fd5b60606111b784846000856136ca565b612b6b614007565b6000612b75612a7b565b61ffff93841660009081526020918252604090819020805464ffffffffff81168652600160281b81046001600160581b03908116948701949094526001820154841692860192909252600160d81b820463ffffffff166060860152600160801b9091049091166080840152600201546001600160501b0380821660a0850152600160501b8204811660c0850152600160a01b82041660e0840152600160f01b900460ff1661012c02909216610100820152919050565b600080612c3783611040565b6001600160a01b031663ef81f2166040518163ffffffff1660e01b81526004016040805180830381600087803b158015612c7057600080fd5b505af1158015612c84573d6000803e3d6000fd5b505050506040513d601f19601f820116820180604052508101906111b791906147a1565b612cb0614007565b6000806000612cc0888689613825565b60c08b019290925260e08a019290925260208901519193509150612ce49083611083565b6020880152608087015160009015612d12576080880151612d0f90612d09898261141a565b90613930565b90505b612d32612d27670de0b6b3a764000083611083565b60a08a01519061394d565b60a089015250506080860194909452505082529092909150565b6000612d56612a7b565b60008561ffff1681526020019081526020016000209050612d7a8260000151612a67565b815464ffffffffff191664ffffffffff9190911617815560a0820151612d9f9061396a565b60028201805469ffffffffffffffffffff19166001600160501b039290921691909117905560c0820151612dd29061396a565b81600201600a6101000a8154816001600160501b0302191690836001600160501b03160217905550612e078260e0015161396a565b8160020160146101000a8154816001600160501b0302191690836001600160501b03160217905550612e3c8260200151613980565b81546001600160581b0391909116600160281b026fffffffffffffffffffffff0000000000199091161781556040820151612e7690613980565b6001820180546affffffffffffffffffffff19166001600160581b03929092169190911790556080820151612eaa90613980565b81546001600160581b0391909116600160801b026affffffffffffffffffffff60801b199091161781556060820151612ee290612a88565b815463ffffffff91909116600160d81b0263ffffffff60d81b199091161781558215612f2e576000612f13846110dd565b9050612f1f8582613996565b612f2c610fee8683611554565b505b8361ffff167fef25641e225e493886510ca1ad6584fa7b442b9fea820a29d1de3ce27d270fd28360a001518460c001518560e001516040516104d593929190614b22565b612f7a613fbe565b6000612f846139cd565b6000858152602082815260408083208715158452825291829020825160a08101845281546001600160a01b038116825260ff600160a01b82048116151594830194909452600160b01b81048416600a0a9482019490945293945092916060830191600160a81b909104166005811115612ff957fe5b8152600060209091015295945050505050565b60008061107d60266114b1565b6000613023614053565b3d8015613037576020811461304057600080fd5b6001925061304b565b60206000833e815192505b508161072a576040805162461bcd60e51b8152602060048201526005602482015264045524332360dc1b604482015290519081900360640190fd5b60006305f5e1008360400151141561309f57508061107d565b604083015161109590611982846305f5e100611d8c565b815160009061109590611982846ec097ce7bc90715b34b9f1000000000611d8c565b60006130e2612a7b565b61ffff8516600090815260209190915260409020805490915064ffffffffff16421461310d57600080fd5b805460009061312c90600160281b90046001600160581b031685612b3e565b825490915060009061314e90600160801b90046001600160581b031685612b3e565b905080624c4b40131561316057600080fd5b61317161316c826119a6565b613980565b83546001600160581b0391909116600160801b026affffffffffffffffffffff60801b199091161783556131a761316c836119a6565b83546001600160581b0391909116600160281b026fffffffffffffffffffffff0000000000199091161783556131dc836139da565b505050505050565b60006131ee61300c565b6001600160a01b03841660009081526020829052604090205490915061321c6132178285612b3e565b6119a6565b6001600160a01b03909416600090815260209290925250604090209190915550565b600060038360600151600581111561325257fe5b141561326957506001600160a01b0381163161107d565b82516040516370a0823160e01b81526001600160a01b03909116906370a0823190613298908590600401614818565b60206040518083038186803b1580156132b057600080fd5b505afa1580156132c4573d6000803e3d6000fd5b505050506040513d601f19601f820116820180604052508101906132e89190614789565b905061107d565b6000806000866001600160a01b031686866040518082805190602001908083835b6020831061332f5780518252601f199092019160209182019101613310565b6001836020036101000a03801982511681845116808217855250505050505090500191505060006040518083038185875af1925050503d8060008114613391576040519150601f19603f3d011682016040523d82523d6000602084013e613396565b606091505b50915091508361343957816133aa82613a9f565b906134335760405162461bcd60e51b81526004018080602001828103825283818151815260200191508051906020019080838360005b838110156133f85781810151838201526020016133e0565b50505050905090810190601f1680156134255780820380516001836020036101000a031916815260200191505b509250505060405180910390fd5b506120c1565b866001600160a01b03167f3c7e398c5e91088cae639370e35b25ea669d81fbdf0def5388e73661bc34e08e878761346f85613a9f565b604051808481526020018060200180602001838103835285818151815260200191508051906020019080838360005b838110156134b657818101518382015260200161349e565b50505050905090810190601f1680156134e35780820380516001836020036101000a031916815260200191505b50838103825284518152845160209182019186019080838360005b838110156135165781810151838201526020016134fe565b50505050905090810190601f1680156135435780820380516001836020036101000a031916815260200191505b509550505050505060405180910390a25095945050505050565b600061356761300c565b6001600160a01b0385166000908152602082905260409020549091508381111561359057600080fd5b60006135a761359e866110dd565b611955866110dd565b90506135b66132178383612b3e565b6001600160a01b039096166000908152602093909352505060409020929092555050565b6000806000806135e8612b31565b6001600160a01b0395909516600090815260209590955250506040909220546001600160601b03811693600160601b82046001600160801b03169350600160e01b90910463ffffffff169150565b60008060008060008061364761148e565b6001600160a01b039097166000908152602097909752505060409094205461ffff81169563ffffffff620100008304811696506601000000000000830416945060ff600160501b8304169350600160581b90910460d01b9150565b60006111b7826113186301da9c0081886136c489670de0b6b3a76400006119b5565b906119b5565b60608247101561370b5760405162461bcd60e51b8152600401808060200182810382526026815260200180614b9e6026913960400191505060405180910390fd5b61371485613ba4565b613765576040805162461bcd60e51b815260206004820152601d60248201527f416464726573733a2063616c6c20746f206e6f6e2d636f6e7472616374000000604482015290519081900360640190fd5b600080866001600160a01b031685876040518082805190602001908083835b602083106137a35780518252601f199092019160209182019101613784565b6001836020036101000a03801982511681845116808217855250505050505090500191505060006040518083038185875af1925050503d8060008114613805576040519150601f19603f3d011682016040523d82523d6000602084013e61380a565b606091505b509150915061381a828286613baa565b979650505050505050565b6000806000806000806138388988613c10565b8951909550919350915060009061385f90613854908b9061141a565b633b9aca00906119b5565b905061389961388e6301da9c0061387685856119b5565b8161387d57fe5b670de0b6b3a7640000919004611083565b60e08a01519061394d565b96506138bb6138b06301da9c0061387687856119b5565b60c08a01519061394d565b9550818314156138d2575060009350613927915050565b60006138f46138e96301da9c0061387687866119b5565b60e08b01519061394d565b90506000613902898361141a565b905061391f88611318838d604001516119b590919063ffffffff16565b965050505050505b93509350935093565b600061109561394784670de0b6b3a76400006119b5565b836119dc565b600061109561395c84846119b5565b670de0b6b3a76400006119dc565b60006001600160501b038211156110f357600080fd5b60006001600160581b038211156110f357600080fd5b60008112156139a457600080fd5b60006139b2610fee846110f7565b90506139be8183612b3e565b9050610a3e610fee84836114ca565b60008061107d60076114b1565b80546002820154600091613a1691600160281b9091046001600160581b03169061197c906001600160501b03600160501b820481169116611d8c565b60018301546002840154919250600091613a50916001600160581b03169061197c906001600160501b03600160a01b820481169116611d8c565b8354909150600090613a879060016001600160581b03600160801b909204821601166ec097ce7bc90715b34b9f1000000000611d8c565b905080613a94848461153e565b131561200757600080fd5b6060604482511015613ad5575060408051808201909152600d81526c14da5b195b9d0814995d995c9d609a1b6020820152610f26565b6004820180519092602401906020811015613aef57600080fd5b8101908080516040519392919084600160201b821115613b0e57600080fd5b908301906020820185811115613b2357600080fd5b8251600160201b811182820188101715613b3c57600080fd5b82525081516020918201929091019080838360005b83811015613b69578181015183820152602001613b51565b50505050905090810190601f168015613b965780820380516001836020036101000a031916815260200191505b506040525050509050919050565b3b151590565b60608315613bb9575081611095565b825115613bc95782518084602001fd5b60405162461bcd60e51b81526020600482018181528451602484015284518593919283926044019190850190808383600083156133f85781810151838201526020016133e0565b600080600080600085602001511115613c5d57613c5a613c418660c0015187602001516119b590919063ffffffff16565b60e08701516040880151613c54916119b5565b90613caa565b90505b6000613c6887613cbd565b9050613c748183613cf0565b94508115613c8b57613c8881866001613da9565b93505b602086015115612b2757613c9f8583613e24565b925050509250925092565b600061109561394784633b9aca006119b5565b613cc5614071565b6000613ccf613e3d565b61ffff84166000908152602091909152604081205491506110959082613e4a565b600080836080015111613d0257600080fd5b633b9aca00821115613d1357600080fd5b82518211613d3257825160408401516132e891906113189085906119b5565b82602001518211613d705760408301518351602085015160608601516132e89392613d6a9281900391611318918803908590036119b5565b90611083565b6110958360600151613d6a8560200151633b9aca00036113188760600151886080015103886020015188036119b590919063ffffffff16565b600080613dc860646113188760e00151876119b590919063ffffffff16565b90508460a00151811015613ddd575060a08401515b8460c00151811115613df0575060c08401515b8215613e0757613e008482611083565b9150613e1c565b838111613e1657808403613e19565b60005b91505b509392505050565b6000611095613e3384846119b5565b633b9aca006119dc565b60008061107d601b6114b1565b613e52614071565b6064633b9aca008360ff861660208110613e6857fe5b1a0281613e7157fe5b0481526064633b9aca008360ff861660010160208110613e8d57fe5b1a0281613e9657fe5b04816020018181525050613ebb8260028560ff160160208110613eb557fe5b1a613f69565b60808201819052610100908360ff861660030160208110613ed857fe5b1a0281613ee157fe5b0460408201526080810151610100908360ff861660040160208110613f0257fe5b1a0281613f0b57fe5b0460608201526207a1208260ff851660050160208110613f2757fe5b1a0260a0820152622625a08260ff851660060160208110613f4457fe5b1a0260c08201528160ff841660070160208110613f5d57fe5b1a60e082015292915050565b60008160ff16609610613f845760ff8216622625a00261107d565b5060951960ff919091160162e4e1c00263165a0bc00190565b60405180606001604052806000815260200160008152602001600081525090565b6040805160a0810182526000808252602082018190529181018290529060608201908152602001600081525090565b604051806040016040528060608152602001606081525090565b6040518061012001604052806000815260200160008152602001600081526020016000815260200160008152602001600081526020016000815260200160008152602001600081525090565b60405180602001604052806001906020820280368337509192915050565b60405180610100016040528060008152602001600081526020016000815260200160008152602001600081526020016000815260200160008152602001600081525090565b8051610f2681614b78565b60008083601f8401126140d2578182fd5b5081356001600160401b038111156140e8578182fd5b602083019150836020808302850101111561410257600080fd5b9250929050565b600082601f830112614119578081fd5b8151602061412e61412983614b5b565b614b38565b828152818101908583018385028701840188101561414a578586fd5b855b8581101561417157815161415f81614b78565b8452928401929084019060010161414c565b5090979650505050505050565b6000601f838184011261418f578182fd5b8251602061419f61412983614b5b565b82815281810190868301865b8581101561424357815189018a603f8201126141c5578889fd5b858101516001600160401b038111156141da57fe5b6141eb818a01601f19168801614b38565b81815260408d81848601011115614200578b8cfd5b8b5b8381101561421d578481018201518382018b01528901614202565b8381111561422d578c8a85850101525b50508652505092840192908401906001016141ab565b509098975050505050505050565b600082601f830112614261578081fd5b8151602061427161412983614b5b565b828152818101908583018385028701840188101561428d578586fd5b855b858110156141715781518452928401929084019060010161428f565b803560ff81168114610f2657600080fd5b6000602082840312156142cd578081fd5b813561109581614b78565b6000602082840312156142e9578081fd5b815161109581614b78565b60008060208385031215614306578081fd5b82356001600160401b0381111561431b578182fd5b614327858286016140c1565b90969095509350505050565b600060208284031215614344578081fd5b81516001600160401b03811115614359578182fd5b6111b784828501614109565b60006020808385031215614377578182fd5b82516001600160401b038082111561438d578384fd5b818501915085601f8301126143a0578384fd5b81516143ae61412982614b5b565b81815284810190848601875b8481101561447b578151870160a080601f19838f030112156143da578a8bfd5b6143e381614b38565b8a830151898111156143f3578c8dfd5b6144018f8d83870101614109565b825250604083015189811115614415578c8dfd5b6144238f8d8387010161417e565b8c83015250606083015189811115614439578c8dfd5b6144478f8d83870101614251565b604083015250608083015160608201526144628284016140b6565b60808201528652505092870192908701906001016143ba565b50909998505050505050505050565b6000602080838503121561449c578182fd5b82516001600160401b03808211156144b2578384fd5b818501915085601f8301126144c5578384fd5b81516144d361412982614b5b565b81815284810190848601875b8481101561447b57815187016080818d03601f190112156144fe57898afd5b60408051608081018181108a8211171561451457fe5b8252828b015189811115614526578c8dfd5b6145348f8d83870101614109565b8252508183015189811115614547578c8dfd5b6145558f8d8387010161417e565b8c8301525060608301518282015261456f608084016140b6565b60608201528652505092870192908701906001016144df565b6000806020838503121561459a578182fd5b82356001600160401b0381111561431b578283fd5b6000602082840312156145c0578081fd5b81516001600160401b038111156145d5578182fd5b6111b784828501614251565b6000602082840312156145f2578081fd5b81518015158114611095578182fd5b600060208284031215614612578081fd5b813561109581614b8d565b60006020828403121561462e578081fd5b815161109581614b8d565b60008060006040848603121561464d578081fd5b833561465881614b8d565b925060208401356001600160401b0380821115614673578283fd5b818601915086601f830112614686578283fd5b813581811115614694578384fd5b8760206040830285010111156146a8578384fd5b6020830194508093505050509250925092565b600080604083850312156146cd578182fd5b82356146d881614b8d565b915060208301356146e881614b78565b809150509250929050565b60008060408385031215614705578182fd5b823561471081614b8d565b946020939093013593505050565b60008060408385031215614730578182fd5b823561473b81614b8d565b9150602083013563ffffffff811681146146e8578182fd5b60008060408385031215614765578182fd5b823561477081614b8d565b9150602083013564ffffffffff811681146146e8578182fd5b60006020828403121561479a578081fd5b5051919050565b600080604083850312156147b3578182fd5b505080516020909101519092909150565b6000602082840312156147d5578081fd5b611095826142ab565b6000815180845260208085019450808401835b8381101561480d578151875295820195908201906001016147f1565b509495945050505050565b6001600160a01b0391909116815260200190565b6001600160a01b039384168152919092166020820152604081019190915260600190565b6001600160a01b03848116825260406020808401829052908301849052600091859160608501845b8781101561489f57843561488b81614b78565b841682529382019390820190600101614878565b5098975050505050505050565b6001600160a01b03929092168252602082015260400190565b604080825283519082018190526000906020906060840190828701845b828110156149075781516001600160a01b0316845292840192908401906001016148e2565b5050508381038285015261491b81866147de565b9695505050505050565b60006020825261109560208301846147de565b90815260200190565b60208082526019908201527f5472656173757279206d616e6167657220726571756972656400000000000000604082015260600190565b6020808252601490820152732932b130b630b731b4b7339031b7b7b63237bbb760611b604082015260600190565b6020808252818101527f4f776e61626c653a2063616c6c6572206973206e6f7420746865206f776e6572604082015260600190565b60208082526012908201527112511cc81b5d5cdd081899481cdbdc9d195960721b604082015260600190565b6020808252600c908201526b496e76616c6964207261746560a01b604082015260600190565b602080825260139082015272125b9d985b1a590818dd5c9c995b98de481a59606a1b604082015260600190565b61ffff841681526040602080830182905282820184905260009190859060608501845b8781101561489f578335614a9081614b78565b6001600160a01b0316825260ff614aa88585016142ab565b16828401529284019290840190600101614a7d565b61ffff929092168252602082015260400190565b61ffff9390931683526020830191909152604082015260600190565b61ffff92909216825263ffffffff16602082015260400190565b61ffff92909216825264ffffffffff16602082015260400190565b9283526020830191909152604082015260600190565b6040518181016001600160401b0381118282101715614b5357fe5b604052919050565b60006001600160401b03821115614b6e57fe5b5060209081020190565b6001600160a01b0381168114610efb57600080fd5b61ffff81168114610efb57600080fdfe416464726573733a20696e73756666696369656e742062616c616e636520666f722063616c6c5361666545524332303a204552433230206f7065726174696f6e20646964206e6f742073756363656564a26469706673582212208a85aba996e374a9d4e465a8b2b86e24c3540de7d0368f79eb646cd4df4037f964736f6c63430007060033","bytecodeSha1":"7ad0769afe95cdda92caf6a40f0ae753b8cb4b67","compiler":{"evm_version":"istanbul","optimizer":{"enabled":true,"runs":200},"version":"0.7.6+commit.7338295f"},"contractName":"TreasuryAction","language":"Solidity","natspec":{"kind":"dev","methods":{"claimCOMPAndTransfer(address[])":{"notice":"Claims COMP incentives earned and transfers to the treasury manager contract.","params":{"cTokens":"a list of cTokens to claim incentives for"},"returns":{"_0":"the balance of COMP claimed"}},"setReserveBuffer(uint16,uint256)":{"notice":"Sets the reserve buffer. This is the amount of reserve balance to keep denominated in 1e8 The reserve cannot be harvested if it's below this amount. This portion of the reserve will remain on the contract to act as a buffer against potential insolvency.","params":{"bufferAmount":"reserve buffer amount to keep in internal token precision (1e8)","currencyId":"refers to the currency of the reserve"}},"setReserveCashBalance(uint16,int256)":{"notice":"This is used in the case of insolvency. It allows the owner to re-align the reserve with its correct balance.","params":{"currencyId":"refers to the currency of the reserve","newBalance":"new reserve balance to set, must be less than the current balance"}},"setSecondaryIncentiveRewarder(uint16,address)":{"details":"emit:UpdateSecondaryIncentiveRewarder","notice":"Sets a secondary incentive rewarder for a currency. This contract will be called whenever an nToken balance changes and allows a secondary contract to mint incentives to the account. This will override any previous rewarder, if set. Will have no effect if there is no nToken corresponding to the currency id.","params":{"currencyId":"currency id of the nToken","rewarder":"rewarder contract"}},"setTreasuryManager(address)":{"notice":"Sets the new treasury manager contract"},"transferReserveToTreasury(uint16[])":{"notice":"Transfers some amount of reserve assets to the treasury manager contract to be invested into the sNOTE pool.","params":{"currencies":"an array of currencies to transfer from Notional"}},"updateIncentiveEmissionRate(uint16,uint32)":{"details":"emit:UpdateIncentiveEmissionRate","notice":"Updates the emission rate of incentives for a given currency","params":{"currencyId":"the currency id that the nToken references","newEmissionRate":"Target total incentives to emit for an nToken over an entire year denominated in WHOLE TOKENS (i.e. setting this to 1 means 1e8 tokens). The rate will not be exact due to multiplier effects and fluctuating token supply."}}},"version":1},"opcodes":"PUSH1 0x80 PUSH1 0x40 MSTORE CALLVALUE DUP1 ISZERO PUSH2 0x10 JUMPI PUSH1 0x0 DUP1 REVERT JUMPDEST POP PUSH1 0x4 CALLDATASIZE LT PUSH2 0xF5 JUMPI PUSH1 0x0 CALLDATALOAD PUSH1 0xE0 SHR DUP1 PUSH4 0x8DA5CB5B GT PUSH2 0x97 JUMPI DUP1 PUSH4 0xA9EFBA32 GT PUSH2 0x66 JUMPI DUP1 PUSH4 0xA9EFBA32 EQ PUSH2 0x1C4 JUMPI DUP1 PUSH4 0xB71501BC EQ PUSH2 0x1D7 JUMPI DUP1 PUSH4 0xFADB7FEE EQ PUSH2 0x1DF JUMPI DUP1 PUSH4 0xFE47A9F2 EQ PUSH2 0x1FF JUMPI PUSH2 0xF5 JUMP JUMPDEST DUP1 PUSH4 0x8DA5CB5B EQ PUSH2 0x183 JUMPI DUP1 PUSH4 0x8E73B23C EQ PUSH2 0x18B JUMPI DUP1 PUSH4 0xA05E1255 EQ PUSH2 0x19E JUMPI DUP1 PUSH4 0xA9D7BC52 EQ PUSH2 0x1B1 JUMPI PUSH2 0xF5 JUMP JUMPDEST DUP1 PUSH4 0x24A3D622 GT PUSH2 0xD3 JUMPI DUP1 PUSH4 0x24A3D622 EQ PUSH2 0x135 JUMPI DUP1 PUSH4 0x5F82C67E EQ PUSH2 0x153 JUMPI DUP1 PUSH4 0x6D7A00EB EQ PUSH2 0x15B JUMPI DUP1 PUSH4 0x82463367 EQ PUSH2 0x17B JUMPI PUSH2 0xF5 JUMP JUMPDEST DUP1 PUSH4 0x38AF5DC EQ PUSH2 0xFA JUMPI DUP1 PUSH4 0x655D8B8 EQ PUSH2 0x10F JUMPI DUP1 PUSH4 0x12ADC47B EQ PUSH2 0x122 JUMPI JUMPDEST PUSH1 0x0 DUP1 REVERT JUMPDEST PUSH2 0x10D PUSH2 0x108 CALLDATASIZE PUSH1 0x4 PUSH2 0x46BB JUMP JUMPDEST PUSH2 0x212 JUMP JUMPDEST STOP JUMPDEST PUSH2 0x10D PUSH2 0x11D CALLDATASIZE PUSH1 0x4 PUSH2 0x4639 JUMP JUMPDEST PUSH2 0x4E3 JUMP JUMPDEST PUSH2 0x10D PUSH2 0x130 CALLDATASIZE PUSH1 0x4 PUSH2 0x46F3 JUMP JUMPDEST PUSH2 0x6E6 JUMP JUMPDEST PUSH2 0x13D PUSH2 0x72E JUMP JUMPDEST PUSH1 0x40 MLOAD PUSH2 0x14A SWAP2 SWAP1 PUSH2 0x4818 JUMP JUMPDEST PUSH1 0x40 MLOAD DUP1 SWAP2 SUB SWAP1 RETURN JUMPDEST PUSH2 0x13D PUSH2 0x73D JUMP JUMPDEST PUSH2 0x16E PUSH2 0x169 CALLDATASIZE PUSH1 0x4 PUSH2 0x4588 JUMP JUMPDEST PUSH2 0x761 JUMP JUMPDEST PUSH1 0x40 MLOAD PUSH2 0x14A SWAP2 SWAP1 PUSH2 0x4925 JUMP JUMPDEST PUSH2 0x13D PUSH2 0x925 JUMP JUMPDEST PUSH2 0x13D PUSH2 0x934 JUMP JUMPDEST PUSH2 0x10D PUSH2 0x199 CALLDATASIZE PUSH1 0x4 PUSH2 0x46F3 JUMP JUMPDEST PUSH2 0x94A JUMP JUMPDEST PUSH2 0x10D PUSH2 0x1AC CALLDATASIZE PUSH1 0x4 PUSH2 0x4588 JUMP JUMPDEST PUSH2 0x9D8 JUMP JUMPDEST PUSH2 0x10D PUSH2 0x1BF CALLDATASIZE PUSH1 0x4 PUSH2 0x471E JUMP JUMPDEST PUSH2 0xA43 JUMP JUMPDEST PUSH2 0x10D PUSH2 0x1D2 CALLDATASIZE PUSH1 0x4 PUSH2 0x4753 JUMP JUMPDEST PUSH2 0xB13 JUMP JUMPDEST PUSH2 0x13D PUSH2 0xBB4 JUMP JUMPDEST PUSH2 0x1F2 PUSH2 0x1ED CALLDATASIZE PUSH1 0x4 PUSH2 0x42F4 JUMP JUMPDEST PUSH2 0xBD8 JUMP JUMPDEST PUSH1 0x40 MLOAD PUSH2 0x14A SWAP2 SWAP1 PUSH2 0x4938 JUMP JUMPDEST PUSH2 0x10D PUSH2 0x20D CALLDATASIZE PUSH1 0x4 PUSH2 0x42BC JUMP JUMPDEST PUSH2 0xE34 JUMP JUMPDEST PUSH1 0x0 SLOAD PUSH1 0x1 PUSH1 0x20 SHL SWAP1 DIV PUSH1 0x1 PUSH1 0x1 PUSH1 0xA0 SHL SUB AND CALLER EQ PUSH2 0x24C JUMPI PUSH1 0x40 MLOAD PUSH3 0x461BCD PUSH1 0xE5 SHL DUP2 MSTORE PUSH1 0x4 ADD PUSH2 0x243 SWAP1 PUSH2 0x49A6 JUMP JUMPDEST PUSH1 0x40 MLOAD DUP1 SWAP2 SUB SWAP1 REVERT JUMPDEST PUSH2 0x255 DUP3 PUSH2 0xEC1 JUMP JUMPDEST PUSH1 0x0 PUSH2 0x264 DUP4 PUSH2 0xFFFF AND PUSH2 0xEFE JUMP JUMPDEST SWAP1 POP PUSH1 0x1 PUSH1 0x1 PUSH1 0xA0 SHL SUB DUP3 AND ISZERO PUSH2 0x408 JUMPI DUP2 PUSH1 0x1 PUSH1 0x1 PUSH1 0xA0 SHL SUB AND PUSH4 0x9D4BE3F5 PUSH1 0x40 MLOAD DUP2 PUSH4 0xFFFFFFFF AND PUSH1 0xE0 SHL DUP2 MSTORE PUSH1 0x4 ADD PUSH1 0x20 PUSH1 0x40 MLOAD DUP1 DUP4 SUB DUP2 PUSH1 0x0 DUP8 DUP1 EXTCODESIZE ISZERO DUP1 ISZERO PUSH2 0x2B0 JUMPI PUSH1 0x0 DUP1 REVERT JUMPDEST POP GAS CALL ISZERO DUP1 ISZERO PUSH2 0x2C4 JUMPI RETURNDATASIZE PUSH1 0x0 DUP1 RETURNDATACOPY RETURNDATASIZE PUSH1 0x0 REVERT JUMPDEST POP POP POP POP PUSH1 0x40 MLOAD RETURNDATASIZE PUSH1 0x1F NOT PUSH1 0x1F DUP3 ADD AND DUP3 ADD DUP1 PUSH1 0x40 MSTORE POP DUP2 ADD SWAP1 PUSH2 0x2E8 SWAP2 SWAP1 PUSH2 0x461D JUMP JUMPDEST PUSH2 0xFFFF AND DUP4 PUSH2 0xFFFF AND EQ PUSH2 0x2FB JUMPI PUSH1 0x0 DUP1 REVERT JUMPDEST DUP2 PUSH1 0x1 PUSH1 0x1 PUSH1 0xA0 SHL SUB AND PUSH4 0x1C921976 PUSH1 0x40 MLOAD DUP2 PUSH4 0xFFFFFFFF AND PUSH1 0xE0 SHL DUP2 MSTORE PUSH1 0x4 ADD PUSH1 0x20 PUSH1 0x40 MLOAD DUP1 DUP4 SUB DUP2 PUSH1 0x0 DUP8 DUP1 EXTCODESIZE ISZERO DUP1 ISZERO PUSH2 0x336 JUMPI PUSH1 0x0 DUP1 REVERT JUMPDEST POP GAS CALL ISZERO DUP1 ISZERO PUSH2 0x34A JUMPI RETURNDATASIZE PUSH1 0x0 DUP1 RETURNDATACOPY RETURNDATASIZE PUSH1 0x0 REVERT JUMPDEST POP POP POP POP PUSH1 0x40 MLOAD RETURNDATASIZE PUSH1 0x1F NOT PUSH1 0x1F DUP3 ADD AND DUP3 ADD DUP1 PUSH1 0x40 MSTORE POP DUP2 ADD SWAP1 PUSH2 0x36E SWAP2 SWAP1 PUSH2 0x42D8 JUMP JUMPDEST PUSH1 0x1 PUSH1 0x1 PUSH1 0xA0 SHL SUB AND DUP2 PUSH1 0x1 PUSH1 0x1 PUSH1 0xA0 SHL SUB AND EQ PUSH2 0x38B JUMPI PUSH1 0x0 DUP1 REVERT JUMPDEST DUP2 PUSH1 0x1 PUSH1 0x1 PUSH1 0xA0 SHL SUB AND PUSH4 0x432CC1B3 PUSH1 0x40 MLOAD DUP2 PUSH4 0xFFFFFFFF AND PUSH1 0xE0 SHL DUP2 MSTORE PUSH1 0x4 ADD PUSH1 0x20 PUSH1 0x40 MLOAD DUP1 DUP4 SUB DUP2 PUSH1 0x0 DUP8 DUP1 EXTCODESIZE ISZERO DUP1 ISZERO PUSH2 0x3C6 JUMPI PUSH1 0x0 DUP1 REVERT JUMPDEST POP GAS CALL ISZERO DUP1 ISZERO PUSH2 0x3DA JUMPI RETURNDATASIZE PUSH1 0x0 DUP1 RETURNDATACOPY RETURNDATASIZE PUSH1 0x0 REVERT JUMPDEST POP POP POP POP PUSH1 0x40 MLOAD RETURNDATASIZE PUSH1 0x1F NOT PUSH1 0x1F DUP3 ADD AND DUP3 ADD DUP1 PUSH1 0x40 MSTORE POP DUP2 ADD SWAP1 PUSH2 0x3FE SWAP2 SWAP1 PUSH2 0x45E1 JUMP JUMPDEST ISZERO PUSH2 0x408 JUMPI PUSH1 0x0 DUP1 REVERT JUMPDEST PUSH1 0x0 PUSH2 0x413 DUP3 PUSH2 0xF2B JUMP JUMPDEST SWAP1 POP DUP1 PUSH1 0x1 PUSH1 0x1 PUSH1 0xA0 SHL SUB AND DUP4 PUSH1 0x1 PUSH1 0x1 PUSH1 0xA0 SHL SUB AND EQ ISZERO PUSH2 0x434 JUMPI PUSH1 0x0 DUP1 REVERT JUMPDEST PUSH1 0x1 PUSH1 0x1 PUSH1 0xA0 SHL SUB DUP2 AND ISZERO PUSH2 0x497 JUMPI DUP1 PUSH1 0x1 PUSH1 0x1 PUSH1 0xA0 SHL SUB AND PUSH4 0x225435C0 PUSH1 0x40 MLOAD DUP2 PUSH4 0xFFFFFFFF AND PUSH1 0xE0 SHL DUP2 MSTORE PUSH1 0x4 ADD PUSH1 0x0 PUSH1 0x40 MLOAD DUP1 DUP4 SUB DUP2 PUSH1 0x0 DUP8 DUP1 EXTCODESIZE ISZERO DUP1 ISZERO PUSH2 0x47E JUMPI PUSH1 0x0 DUP1 REVERT JUMPDEST POP GAS CALL ISZERO DUP1 ISZERO PUSH2 0x492 JUMPI RETURNDATASIZE PUSH1 0x0 DUP1 RETURNDATACOPY RETURNDATASIZE PUSH1 0x0 REVERT JUMPDEST POP POP POP POP JUMPDEST PUSH2 0x4A1 DUP5 DUP5 PUSH2 0xF9D JUMP JUMPDEST DUP4 PUSH2 0xFFFF AND PUSH32 0x972AF272071DE4B82FF83458C3A6DE8BA183A9C7DC724D4CF91D25F524A810E1 DUP5 PUSH1 0x40 MLOAD PUSH2 0x4D5 SWAP2 SWAP1 PUSH2 0x4818 JUMP JUMPDEST PUSH1 0x40 MLOAD DUP1 SWAP2 SUB SWAP1 LOG2 POP POP POP POP JUMP JUMPDEST PUSH1 0x0 SLOAD PUSH1 0x1 PUSH1 0x20 SHL SWAP1 DIV PUSH1 0x1 PUSH1 0x1 PUSH1 0xA0 SHL SUB AND CALLER EQ PUSH2 0x514 JUMPI PUSH1 0x40 MLOAD PUSH3 0x461BCD PUSH1 0xE5 SHL DUP2 MSTORE PUSH1 0x4 ADD PUSH2 0x243 SWAP1 PUSH2 0x49A6 JUMP JUMPDEST PUSH1 0x0 PUSH2 0x51F DUP5 PUSH2 0x1040 JUMP JUMPDEST SWAP1 POP PUSH1 0x0 DUP2 PUSH1 0x1 PUSH1 0x1 PUSH1 0xA0 SHL SUB AND PUSH4 0xE79BF13B PUSH1 0x40 MLOAD DUP2 PUSH4 0xFFFFFFFF AND PUSH1 0xE0 SHL DUP2 MSTORE PUSH1 0x4 ADD PUSH1 0x0 PUSH1 0x40 MLOAD DUP1 DUP4 SUB DUP2 DUP7 DUP1 EXTCODESIZE ISZERO DUP1 ISZERO PUSH2 0x55C JUMPI PUSH1 0x0 DUP1 REVERT JUMPDEST POP GAS STATICCALL ISZERO DUP1 ISZERO PUSH2 0x570 JUMPI RETURNDATASIZE PUSH1 0x0 DUP1 RETURNDATACOPY RETURNDATASIZE PUSH1 0x0 REVERT JUMPDEST POP POP POP POP PUSH1 0x40 MLOAD RETURNDATASIZE PUSH1 0x0 DUP3 RETURNDATACOPY PUSH1 0x1F RETURNDATASIZE SWAP1 DUP2 ADD PUSH1 0x1F NOT AND DUP3 ADD PUSH1 0x40 MSTORE PUSH2 0x598 SWAP2 SWAP1 DUP2 ADD SWAP1 PUSH2 0x4333 JUMP JUMPDEST DUP1 MLOAD SWAP1 SWAP2 POP DUP4 EQ PUSH2 0x5A8 JUMPI PUSH1 0x0 DUP1 REVERT JUMPDEST PUSH1 0x0 PUSH2 0x5B2 PUSH2 0x1070 JUMP JUMPDEST PUSH2 0xFFFF DUP8 AND PUSH1 0x0 SWAP1 DUP2 MSTORE PUSH1 0x20 SWAP2 SWAP1 SWAP2 MSTORE PUSH1 0x40 DUP2 KECCAK256 SWAP2 POP DUP1 JUMPDEST DUP4 MLOAD DUP2 LT ISZERO PUSH2 0x693 JUMPI CALLDATASIZE DUP8 DUP8 DUP4 DUP2 DUP2 LT PUSH2 0x5E0 JUMPI INVALID JUMPDEST SWAP1 POP PUSH1 0x40 MUL ADD SWAP1 POP PUSH1 0x0 DUP6 DUP4 DUP2 MLOAD DUP2 LT PUSH2 0x5F6 JUMPI INVALID JUMPDEST PUSH1 0x20 MUL PUSH1 0x20 ADD ADD MLOAD SWAP1 POP DUP1 PUSH1 0x1 PUSH1 0x1 PUSH1 0xA0 SHL SUB AND DUP3 PUSH1 0x0 ADD PUSH1 0x20 DUP2 ADD SWAP1 PUSH2 0x61D SWAP2 SWAP1 PUSH2 0x42BC JUMP JUMPDEST PUSH1 0x1 PUSH1 0x1 PUSH1 0xA0 SHL SUB AND EQ PUSH2 0x630 JUMPI PUSH1 0x0 DUP1 REVERT JUMPDEST PUSH2 0x64D PUSH2 0x643 PUSH1 0x40 DUP5 ADD PUSH1 0x20 DUP6 ADD PUSH2 0x47C4 JUMP JUMPDEST DUP6 SWAP1 PUSH1 0xFF AND PUSH2 0x1083 JUMP JUMPDEST SWAP4 POP PUSH2 0x65F PUSH1 0x40 DUP4 ADD PUSH1 0x20 DUP5 ADD PUSH2 0x47C4 JUMP JUMPDEST PUSH1 0x1 PUSH1 0x1 PUSH1 0xA0 SHL SUB SWAP2 SWAP1 SWAP2 AND PUSH1 0x0 SWAP1 DUP2 MSTORE PUSH1 0x20 DUP7 SWAP1 MSTORE PUSH1 0x40 SWAP1 KECCAK256 DUP1 SLOAD PUSH1 0xFF NOT AND PUSH1 0xFF SWAP1 SWAP3 AND SWAP2 SWAP1 SWAP2 OR SWAP1 SSTORE POP PUSH1 0x1 ADD PUSH2 0x5CA JUMP JUMPDEST POP PUSH1 0x64 DUP2 GT ISZERO PUSH2 0x6A2 JUMPI PUSH1 0x0 DUP1 REVERT JUMPDEST PUSH32 0x173893B333BEACB26403450E70F577038A6531741AAFF45C341BEE3B8D4B42C4 DUP8 DUP8 DUP8 PUSH1 0x40 MLOAD PUSH2 0x6D5 SWAP4 SWAP3 SWAP2 SWAP1 PUSH2 0x4A5A JUMP JUMPDEST PUSH1 0x40 MLOAD DUP1 SWAP2 SUB SWAP1 LOG1 POP POP POP POP POP POP POP JUMP JUMPDEST PUSH1 0x0 SLOAD PUSH1 0x1 PUSH1 0x20 SHL SWAP1 DIV PUSH1 0x1 PUSH1 0x1 PUSH1 0xA0 SHL SUB AND CALLER EQ PUSH2 0x717 JUMPI PUSH1 0x40 MLOAD PUSH3 0x461BCD PUSH1 0xE5 SHL DUP2 MSTORE PUSH1 0x4 ADD PUSH2 0x243 SWAP1 PUSH2 0x49A6 JUMP JUMPDEST PUSH2 0x720 DUP3 PUSH2 0xEC1 JUMP JUMPDEST PUSH2 0x72A DUP3 DUP3 PUSH2 0x109C JUMP JUMPDEST POP POP JUMP JUMPDEST PUSH1 0x2 SLOAD PUSH1 0x1 PUSH1 0x1 PUSH1 0xA0 SHL SUB AND DUP2 JUMP JUMPDEST PUSH32 0x0 DUP2 JUMP JUMPDEST PUSH1 0xB SLOAD PUSH1 0x60 SWAP1 PUSH1 0x1 PUSH1 0x1 PUSH1 0xA0 SHL SUB AND CALLER EQ PUSH2 0x78E JUMPI PUSH1 0x40 MLOAD PUSH3 0x461BCD PUSH1 0xE5 SHL DUP2 MSTORE PUSH1 0x4 ADD PUSH2 0x243 SWAP1 PUSH2 0x4941 JUMP JUMPDEST PUSH1 0x2 PUSH1 0xA SLOAD EQ ISZERO PUSH2 0x79E JUMPI PUSH1 0x0 DUP1 REVERT JUMPDEST PUSH1 0x2 PUSH1 0xA SSTORE PUSH1 0x0 DUP3 PUSH1 0x1 PUSH1 0x1 PUSH1 0x40 SHL SUB DUP2 GT DUP1 ISZERO PUSH2 0x7BB JUMPI PUSH1 0x0 DUP1 REVERT JUMPDEST POP PUSH1 0x40 MLOAD SWAP1 DUP1 DUP3 MSTORE DUP1 PUSH1 0x20 MUL PUSH1 0x20 ADD DUP3 ADD PUSH1 0x40 MSTORE DUP1 ISZERO PUSH2 0x7E5 JUMPI DUP2 PUSH1 0x20 ADD PUSH1 0x20 DUP3 MUL DUP1 CALLDATASIZE DUP4 CALLDATACOPY ADD SWAP1 POP JUMPDEST POP SWAP1 POP PUSH1 0x0 JUMPDEST DUP4 DUP2 LT ISZERO PUSH2 0x918 JUMPI DUP1 ISZERO PUSH2 0x863 JUMPI DUP5 DUP5 PUSH1 0x1 DUP4 SUB DUP2 DUP2 LT PUSH2 0x808 JUMPI INVALID JUMPDEST SWAP1 POP PUSH1 0x20 MUL ADD PUSH1 0x20 DUP2 ADD SWAP1 PUSH2 0x81D SWAP2 SWAP1 PUSH2 0x4601 JUMP JUMPDEST PUSH2 0xFFFF AND DUP6 DUP6 DUP4 DUP2 DUP2 LT PUSH2 0x82D JUMPI INVALID JUMPDEST SWAP1 POP PUSH1 0x20 MUL ADD PUSH1 0x20 DUP2 ADD SWAP1 PUSH2 0x842 SWAP2 SWAP1 PUSH2 0x4601 JUMP JUMPDEST PUSH2 0xFFFF AND GT PUSH2 0x863 JUMPI PUSH1 0x40 MLOAD PUSH3 0x461BCD PUSH1 0xE5 SHL DUP2 MSTORE PUSH1 0x4 ADD PUSH2 0x243 SWAP1 PUSH2 0x49DB JUMP JUMPDEST PUSH1 0x0 DUP6 DUP6 DUP4 DUP2 DUP2 LT PUSH2 0x871 JUMPI INVALID JUMPDEST SWAP1 POP PUSH1 0x20 MUL ADD PUSH1 0x20 DUP2 ADD SWAP1 PUSH2 0x886 SWAP2 SWAP1 PUSH2 0x4601 JUMP JUMPDEST SWAP1 POP PUSH2 0x891 DUP2 PUSH2 0xEC1 JUMP JUMPDEST PUSH2 0xFFFF DUP2 AND PUSH1 0x0 SWAP1 DUP2 MSTORE PUSH1 0xC PUSH1 0x20 MSTORE PUSH1 0x40 DUP2 KECCAK256 SLOAD PUSH2 0x8AE SWAP1 PUSH2 0x10DD JUMP JUMPDEST SWAP1 POP DUP1 PUSH2 0x8BC JUMPI POP POP PUSH2 0x910 JUMP JUMPDEST PUSH1 0x0 PUSH2 0x8CA PUSH2 0xFEE DUP5 PUSH2 0x10F7 JUMP JUMPDEST SWAP1 POP DUP2 DUP2 SGT PUSH2 0x8DB JUMPI POP POP POP PUSH2 0x910 JUMP JUMPDEST DUP2 DUP2 SUB PUSH2 0x8E8 DUP5 DUP3 PUSH2 0x1150 JUMP JUMPDEST DUP7 DUP7 DUP2 MLOAD DUP2 LT PUSH2 0x8F4 JUMPI INVALID JUMPDEST PUSH1 0x20 MUL PUSH1 0x20 ADD ADD DUP2 DUP2 MSTORE POP POP PUSH2 0x90B DUP5 DUP4 DUP4 PUSH2 0x11BF JUMP JUMPDEST POP POP POP POP JUMPDEST PUSH1 0x1 ADD PUSH2 0x7EB JUMP JUMPDEST POP PUSH1 0x1 PUSH1 0xA SSTORE SWAP4 SWAP3 POP POP POP JUMP JUMPDEST PUSH1 0x1 SLOAD PUSH1 0x1 PUSH1 0x1 PUSH1 0xA0 SHL SUB AND DUP2 JUMP JUMPDEST PUSH1 0x0 SLOAD PUSH1 0x1 PUSH1 0x20 SHL SWAP1 DIV PUSH1 0x1 PUSH1 0x1 PUSH1 0xA0 SHL SUB AND DUP2 JUMP JUMPDEST PUSH1 0x0 SLOAD PUSH1 0x1 PUSH1 0x20 SHL SWAP1 DIV PUSH1 0x1 PUSH1 0x1 PUSH1 0xA0 SHL SUB AND CALLER EQ PUSH2 0x97B JUMPI PUSH1 0x40 MLOAD PUSH3 0x461BCD PUSH1 0xE5 SHL DUP2 MSTORE PUSH1 0x4 ADD PUSH2 0x243 SWAP1 PUSH2 0x49A6 JUMP JUMPDEST PUSH2 0x984 DUP3 PUSH2 0xEC1 JUMP JUMPDEST PUSH2 0xFFFF DUP3 AND PUSH1 0x0 SWAP1 DUP2 MSTORE PUSH1 0xC PUSH1 0x20 MSTORE PUSH1 0x40 SWAP1 DUP2 SWAP1 KECCAK256 DUP3 SWAP1 SSTORE MLOAD PUSH32 0xFD37F6BC518C96B848C133A7D44A5A9B5ACEA171BE7DC45E363F153347ED7641 SWAP1 PUSH2 0x9CC SWAP1 DUP5 SWAP1 DUP5 SWAP1 PUSH2 0x4ABD JUMP JUMPDEST PUSH1 0x40 MLOAD DUP1 SWAP2 SUB SWAP1 LOG1 POP POP JUMP JUMPDEST PUSH1 0xB SLOAD PUSH1 0x1 PUSH1 0x1 PUSH1 0xA0 SHL SUB AND CALLER EQ PUSH2 0xA02 JUMPI PUSH1 0x40 MLOAD PUSH3 0x461BCD PUSH1 0xE5 SHL DUP2 MSTORE PUSH1 0x4 ADD PUSH2 0x243 SWAP1 PUSH2 0x4941 JUMP JUMPDEST PUSH1 0x0 JUMPDEST DUP2 DUP2 LT ISZERO PUSH2 0xA3E JUMPI PUSH2 0xA36 DUP4 DUP4 DUP4 DUP2 DUP2 LT PUSH2 0xA1C JUMPI INVALID JUMPDEST SWAP1 POP PUSH1 0x20 MUL ADD PUSH1 0x20 DUP2 ADD SWAP1 PUSH2 0xA31 SWAP2 SWAP1 PUSH2 0x4601 JUMP JUMPDEST PUSH2 0x1219 JUMP JUMPDEST PUSH1 0x1 ADD PUSH2 0xA05 JUMP JUMPDEST POP POP POP JUMP JUMPDEST PUSH1 0x0 SLOAD PUSH1 0x1 PUSH1 0x20 SHL SWAP1 DIV PUSH1 0x1 PUSH1 0x1 PUSH1 0xA0 SHL SUB AND CALLER EQ PUSH2 0xA74 JUMPI PUSH1 0x40 MLOAD PUSH3 0x461BCD PUSH1 0xE5 SHL DUP2 MSTORE PUSH1 0x4 ADD PUSH2 0x243 SWAP1 PUSH2 0x49A6 JUMP JUMPDEST PUSH2 0xA7D DUP3 PUSH2 0xEC1 JUMP JUMPDEST PUSH1 0x0 PUSH2 0xA8C DUP4 PUSH2 0xFFFF AND PUSH2 0xEFE JUMP JUMPDEST SWAP1 POP PUSH1 0x1 PUSH1 0x1 PUSH1 0xA0 SHL SUB DUP2 AND PUSH2 0xAA1 JUMPI PUSH1 0x0 DUP1 REVERT JUMPDEST PUSH4 0x5F5E100 DUP3 PUSH4 0xFFFFFFFF AND SLT PUSH2 0xACA JUMPI PUSH1 0x40 MLOAD PUSH3 0x461BCD PUSH1 0xE5 SHL DUP2 MSTORE PUSH1 0x4 ADD PUSH2 0x243 SWAP1 PUSH2 0x4A07 JUMP JUMPDEST PUSH2 0xAD5 DUP2 DUP4 TIMESTAMP PUSH2 0x13B7 JUMP JUMPDEST PUSH32 0x713F9554D16202D36A895476EC29CE9250F47D35422E2D9409E8F644D6AAB689 DUP4 DUP4 PUSH1 0x40 MLOAD PUSH2 0xB06 SWAP3 SWAP2 SWAP1 PUSH2 0x4AED JUMP JUMPDEST PUSH1 0x40 MLOAD DUP1 SWAP2 SUB SWAP1 LOG1 POP POP POP JUMP JUMPDEST PUSH1 0x0 SLOAD PUSH1 0x1 PUSH1 0x20 SHL SWAP1 DIV PUSH1 0x1 PUSH1 0x1 PUSH1 0xA0 SHL SUB AND CALLER EQ PUSH2 0xB44 JUMPI PUSH1 0x40 MLOAD PUSH3 0x461BCD PUSH1 0xE5 SHL DUP2 MSTORE PUSH1 0x4 ADD PUSH2 0x243 SWAP1 PUSH2 0x49A6 JUMP JUMPDEST PUSH1 0x0 PUSH2 0xB4E PUSH2 0x140D JUMP JUMPDEST PUSH2 0xFFFF DUP5 AND PUSH1 0x0 SWAP1 DUP2 MSTORE PUSH1 0x20 DUP3 SWAP1 MSTORE PUSH1 0x40 SWAP1 DUP2 SWAP1 KECCAK256 DUP1 SLOAD PUSH5 0xFFFFFFFFFF PUSH1 0x80 SHL NOT AND PUSH1 0x1 PUSH1 0x80 SHL PUSH5 0xFFFFFFFFFF DUP8 AND MUL OR SWAP1 SSTORE MLOAD SWAP1 SWAP2 POP PUSH32 0x16B1CF4CBFF8DF027F5BEC1791DC85FA6B5F625FBA6BC942C10482CCFE6814B2 SWAP1 PUSH2 0xB06 SWAP1 DUP6 SWAP1 DUP6 SWAP1 PUSH2 0x4B07 JUMP JUMPDEST PUSH32 0x0 DUP2 JUMP JUMPDEST PUSH1 0xB SLOAD PUSH1 0x0 SWAP1 PUSH1 0x1 PUSH1 0x1 PUSH1 0xA0 SHL SUB AND CALLER EQ PUSH2 0xC05 JUMPI PUSH1 0x40 MLOAD PUSH3 0x461BCD PUSH1 0xE5 SHL DUP2 MSTORE PUSH1 0x4 ADD PUSH2 0x243 SWAP1 PUSH2 0x4941 JUMP JUMPDEST PUSH1 0x2 PUSH1 0xA SLOAD EQ ISZERO PUSH2 0xC15 JUMPI PUSH1 0x0 DUP1 REVERT JUMPDEST PUSH1 0x2 PUSH1 0xA SSTORE PUSH1 0x40 MLOAD PUSH4 0x70A08231 PUSH1 0xE0 SHL DUP2 MSTORE PUSH1 0x0 SWAP1 PUSH1 0x1 PUSH1 0x1 PUSH1 0xA0 SHL SUB PUSH32 0x0 AND SWAP1 PUSH4 0x70A08231 SWAP1 PUSH2 0xC69 SWAP1 ADDRESS SWAP1 PUSH1 0x4 ADD PUSH2 0x4818 JUMP JUMPDEST PUSH1 0x20 PUSH1 0x40 MLOAD DUP1 DUP4 SUB DUP2 DUP7 DUP1 EXTCODESIZE ISZERO DUP1 ISZERO PUSH2 0xC81 JUMPI PUSH1 0x0 DUP1 REVERT JUMPDEST POP GAS STATICCALL ISZERO DUP1 ISZERO PUSH2 0xC95 JUMPI RETURNDATASIZE PUSH1 0x0 DUP1 RETURNDATACOPY RETURNDATASIZE PUSH1 0x0 REVERT JUMPDEST POP POP POP POP PUSH1 0x40 MLOAD RETURNDATASIZE PUSH1 0x1F NOT PUSH1 0x1F DUP3 ADD AND DUP3 ADD DUP1 PUSH1 0x40 MSTORE POP DUP2 ADD SWAP1 PUSH2 0xCB9 SWAP2 SWAP1 PUSH2 0x4789 JUMP JUMPDEST PUSH1 0x40 MLOAD PUSH3 0xE1ED97 PUSH1 0xE5 SHL DUP2 MSTORE SWAP1 SWAP2 POP PUSH1 0x1 PUSH1 0x1 PUSH1 0xA0 SHL SUB PUSH32 0x0 AND SWAP1 PUSH4 0x1C3DB2E0 SWAP1 PUSH2 0xD0B SWAP1 ADDRESS SWAP1 DUP9 SWAP1 DUP9 SWAP1 PUSH1 0x4 ADD PUSH2 0x4850 JUMP JUMPDEST PUSH1 0x0 PUSH1 0x40 MLOAD DUP1 DUP4 SUB DUP2 PUSH1 0x0 DUP8 DUP1 EXTCODESIZE ISZERO DUP1 ISZERO PUSH2 0xD25 JUMPI PUSH1 0x0 DUP1 REVERT JUMPDEST POP GAS CALL ISZERO DUP1 ISZERO PUSH2 0xD39 JUMPI RETURNDATASIZE PUSH1 0x0 DUP1 RETURNDATACOPY RETURNDATASIZE PUSH1 0x0 REVERT JUMPDEST POP POP PUSH1 0x40 MLOAD PUSH4 0x70A08231 PUSH1 0xE0 SHL DUP2 MSTORE PUSH1 0x0 SWAP3 POP PUSH1 0x1 PUSH1 0x1 PUSH1 0xA0 SHL SUB PUSH32 0x0 AND SWAP2 POP PUSH4 0x70A08231 SWAP1 PUSH2 0xD8C SWAP1 ADDRESS SWAP1 PUSH1 0x4 ADD PUSH2 0x4818 JUMP JUMPDEST PUSH1 0x20 PUSH1 0x40 MLOAD DUP1 DUP4 SUB DUP2 DUP7 DUP1 EXTCODESIZE ISZERO DUP1 ISZERO PUSH2 0xDA4 JUMPI PUSH1 0x0 DUP1 REVERT JUMPDEST POP GAS STATICCALL ISZERO DUP1 ISZERO PUSH2 0xDB8 JUMPI RETURNDATASIZE PUSH1 0x0 DUP1 RETURNDATACOPY RETURNDATASIZE PUSH1 0x0 REVERT JUMPDEST POP POP POP POP PUSH1 0x40 MLOAD RETURNDATASIZE PUSH1 0x1F NOT PUSH1 0x1F DUP3 ADD AND DUP3 ADD DUP1 PUSH1 0x40 MSTORE POP DUP2 ADD SWAP1 PUSH2 0xDDC SWAP2 SWAP1 PUSH2 0x4789 JUMP JUMPDEST SWAP1 POP PUSH1 0x0 PUSH2 0xDEA DUP3 DUP5 PUSH2 0x141A JUMP JUMPDEST SWAP1 POP DUP1 ISZERO PUSH2 0xE26 JUMPI PUSH2 0xE26 PUSH1 0x1 PUSH1 0x1 PUSH1 0xA0 SHL SUB PUSH32 0x0 AND CALLER DUP4 PUSH2 0x142F JUMP JUMPDEST PUSH1 0x1 PUSH1 0xA SSTORE SWAP6 SWAP5 POP POP POP POP POP JUMP JUMPDEST PUSH1 0x0 SLOAD PUSH1 0x1 PUSH1 0x20 SHL SWAP1 DIV PUSH1 0x1 PUSH1 0x1 PUSH1 0xA0 SHL SUB AND CALLER EQ PUSH2 0xE65 JUMPI PUSH1 0x40 MLOAD PUSH3 0x461BCD PUSH1 0xE5 SHL DUP2 MSTORE PUSH1 0x4 ADD PUSH2 0x243 SWAP1 PUSH2 0x49A6 JUMP JUMPDEST PUSH1 0xB SLOAD PUSH1 0x40 MLOAD PUSH1 0x1 PUSH1 0x1 PUSH1 0xA0 SHL SUB DUP1 DUP5 AND SWAP3 AND SWAP1 PUSH32 0xF92CFDDD8D7AB2F6E4FD488959C76C8033AAAA6DAD691A0CBD1FC68F194B3D0C SWAP1 PUSH1 0x0 SWAP1 LOG3 PUSH1 0xB DUP1 SLOAD PUSH1 0x1 PUSH1 0x1 PUSH1 0xA0 SHL SUB NOT AND PUSH1 0x1 PUSH1 0x1 PUSH1 0xA0 SHL SUB SWAP3 SWAP1 SWAP3 AND SWAP2 SWAP1 SWAP2 OR SWAP1 SSTORE JUMP JUMPDEST DUP1 PUSH2 0xFFFF AND PUSH1 0x0 LT DUP1 ISZERO PUSH2 0xEDF JUMPI POP PUSH1 0x0 SLOAD PUSH2 0xFFFF SWAP1 DUP2 AND SWAP1 DUP3 AND GT ISZERO JUMPDEST PUSH2 0xEFB JUMPI PUSH1 0x40 MLOAD PUSH3 0x461BCD PUSH1 0xE5 SHL DUP2 MSTORE PUSH1 0x4 ADD PUSH2 0x243 SWAP1 PUSH2 0x4A2D JUMP JUMPDEST POP JUMP JUMPDEST PUSH1 0x0 DUP1 PUSH2 0xF09 PUSH2 0x1481 JUMP JUMPDEST PUSH1 0x0 DUP5 DUP2 MSTORE PUSH1 0x20 SWAP2 SWAP1 SWAP2 MSTORE PUSH1 0x40 SWAP1 KECCAK256 SLOAD PUSH1 0x1 PUSH1 0x1 PUSH1 0xA0 SHL SUB AND SWAP2 POP POP JUMPDEST SWAP2 SWAP1 POP JUMP JUMPDEST PUSH1 0x0 DUP1 PUSH2 0xF36 PUSH2 0x148E JUMP JUMPDEST PUSH1 0x1 PUSH1 0x1 PUSH1 0xA0 SHL SUB DUP5 AND PUSH1 0x0 SWAP1 DUP2 MSTORE PUSH1 0x20 DUP3 SWAP1 MSTORE PUSH1 0x40 SWAP1 KECCAK256 DUP1 SLOAD SWAP2 SWAP3 POP SWAP1 PUSH1 0x1 PUSH1 0xF8 SHL SWAP1 DIV PUSH1 0xFF AND ISZERO PUSH2 0xF92 JUMPI PUSH2 0xF6B PUSH2 0x149B JUMP JUMPDEST PUSH1 0x1 PUSH1 0x1 PUSH1 0xA0 SHL SUB DUP1 DUP7 AND PUSH1 0x0 SWAP1 DUP2 MSTORE PUSH1 0x20 SWAP3 SWAP1 SWAP3 MSTORE PUSH1 0x40 SWAP1 SWAP2 KECCAK256 SLOAD AND SWAP3 POP PUSH2 0xF26 SWAP2 POP POP JUMP JUMPDEST PUSH1 0x0 SWAP3 POP POP POP PUSH2 0xF26 JUMP JUMPDEST PUSH1 0x0 PUSH2 0xFAC DUP4 PUSH2 0xFFFF AND PUSH2 0xEFE JUMP JUMPDEST SWAP1 POP PUSH1 0x1 PUSH1 0x1 PUSH1 0xA0 SHL SUB DUP2 AND PUSH2 0xFC1 JUMPI PUSH1 0x0 DUP1 REVERT JUMPDEST PUSH1 0x0 PUSH2 0xFCB PUSH2 0x148E JUMP JUMPDEST PUSH1 0x1 PUSH1 0x1 PUSH1 0xA0 SHL SUB DUP4 DUP2 AND PUSH1 0x0 SWAP1 DUP2 MSTORE PUSH1 0x20 DUP4 SWAP1 MSTORE PUSH1 0x40 SWAP1 KECCAK256 DUP1 SLOAD PUSH1 0x1 PUSH1 0x1 PUSH1 0xF8 SHL SUB AND SWAP2 DUP7 AND ISZERO ISZERO PUSH1 0x1 PUSH1 0xF8 SHL MUL SWAP2 SWAP1 SWAP2 OR DUP2 SSTORE SWAP1 SWAP2 POP DUP4 PUSH2 0x100C PUSH2 0x149B JUMP JUMPDEST PUSH1 0x1 PUSH1 0x1 PUSH1 0xA0 SHL SUB SWAP5 DUP6 AND PUSH1 0x0 SWAP1 DUP2 MSTORE PUSH1 0x20 SWAP2 SWAP1 SWAP2 MSTORE PUSH1 0x40 SWAP1 KECCAK256 DUP1 SLOAD PUSH1 0x1 PUSH1 0x1 PUSH1 0xA0 SHL SUB NOT AND SWAP2 SWAP1 SWAP5 AND OR SWAP1 SWAP3 SSTORE POP POP POP POP JUMP JUMPDEST PUSH1 0x0 DUP1 PUSH2 0x104B PUSH2 0x14A8 JUMP JUMPDEST PUSH2 0xFFFF SWAP4 SWAP1 SWAP4 AND PUSH1 0x0 SWAP1 DUP2 MSTORE PUSH1 0x20 SWAP4 SWAP1 SWAP4 MSTORE POP POP PUSH1 0x40 SWAP1 KECCAK256 SLOAD PUSH1 0x1 PUSH1 0x1 PUSH1 0xA0 SHL SUB AND SWAP1 JUMP JUMPDEST PUSH1 0x0 DUP1 PUSH2 0x107D PUSH1 0x24 PUSH2 0x14B1 JUMP JUMPDEST SWAP3 SWAP2 POP POP JUMP JUMPDEST PUSH1 0x0 DUP3 DUP3 ADD DUP4 DUP2 LT ISZERO PUSH2 0x1095 JUMPI PUSH1 0x0 DUP1 REVERT JUMPDEST SWAP4 SWAP3 POP POP POP JUMP JUMPDEST PUSH1 0x0 DUP2 SLT ISZERO PUSH2 0x10AA JUMPI PUSH1 0x0 DUP1 REVERT JUMPDEST PUSH1 0x0 PUSH2 0x10B8 PUSH2 0xFEE DUP5 PUSH2 0x10F7 JUMP JUMPDEST SWAP1 POP PUSH2 0x10C7 PUSH2 0xFEE DUP5 DUP5 PUSH2 0x14CA JUMP JUMPDEST PUSH2 0xA3E PUSH2 0xFEE DUP5 PUSH2 0x10D8 DUP6 DUP6 PUSH2 0x153E JUMP JUMPDEST PUSH2 0x1554 JUMP JUMPDEST PUSH1 0x0 PUSH1 0x1 PUSH1 0x1 PUSH1 0xFF SHL SUB DUP3 GT ISZERO PUSH2 0x10F3 JUMPI PUSH1 0x0 DUP1 REVERT JUMPDEST POP SWAP1 JUMP JUMPDEST PUSH1 0x0 DUP1 PUSH2 0x1102 PUSH2 0x15DE JUMP JUMPDEST PUSH1 0x1 PUSH1 0x1 PUSH1 0xA0 SHL SUB DUP6 AND PUSH1 0x0 SWAP1 DUP2 MSTORE PUSH1 0x20 DUP3 DUP2 MSTORE PUSH1 0x40 DUP1 DUP4 KECCAK256 PUSH2 0xFFFF DUP9 AND DUP5 MSTORE SWAP1 SWAP2 MSTORE DUP2 KECCAK256 DUP1 SLOAD PUSH1 0x1 PUSH1 0xA8 SHL SWAP1 DIV PUSH1 0xA SWAP1 DUP2 SIGNEXTEND SWAP1 SIGNEXTEND SWAP5 POP SWAP2 SWAP3 POP DUP4 SLT ISZERO PUSH2 0x1148 JUMPI PUSH1 0x0 DUP1 REVERT JUMPDEST POP POP SWAP3 SWAP2 POP POP JUMP JUMPDEST PUSH1 0x0 DUP1 PUSH2 0x115C DUP5 PUSH2 0x15EB JUMP JUMPDEST PUSH1 0xB SLOAD SWAP1 SWAP2 POP PUSH2 0x117A SWAP1 PUSH2 0xFEE SWAP1 PUSH1 0x1 PUSH1 0x1 PUSH1 0xA0 SHL SUB AND DUP7 DUP7 PUSH2 0x15FD JUMP JUMPDEST PUSH1 0xB SLOAD PUSH1 0x0 SWAP1 PUSH2 0x11A8 SWAP1 PUSH2 0x11A3 SWAP1 PUSH1 0x1 PUSH1 0x1 PUSH1 0xA0 SHL SUB AND DUP8 PUSH2 0x119B DUP9 PUSH2 0x16A3 JUMP JUMPDEST DUP7 PUSH1 0x1 PUSH2 0x16B1 JUMP JUMPDEST PUSH2 0x16A3 JUMP JUMPDEST SWAP1 POP PUSH1 0x0 DUP2 SGT PUSH2 0x11B7 JUMPI PUSH1 0x0 DUP1 REVERT JUMPDEST SWAP5 SWAP4 POP POP POP POP JUMP JUMPDEST PUSH2 0x11C9 DUP3 DUP3 PUSH2 0x175A JUMP JUMPDEST SWAP2 POP PUSH2 0x11D8 PUSH2 0xFEE DUP5 DUP5 PUSH2 0x14CA JUMP JUMPDEST DUP3 PUSH2 0xFFFF AND PUSH32 0x7C5E8932DD97CEA84F9AB339DAD12A29A4CD81E67E7D892663AA03A3F0832B73 DUP3 PUSH1 0x40 MLOAD PUSH2 0x120C SWAP2 SWAP1 PUSH2 0x4938 JUMP JUMPDEST PUSH1 0x40 MLOAD DUP1 SWAP2 SUB SWAP1 LOG2 POP POP POP JUMP JUMPDEST PUSH1 0x0 PUSH2 0x1223 PUSH2 0x140D JUMP JUMPDEST PUSH2 0xFFFF DUP4 AND PUSH1 0x0 SWAP1 DUP2 MSTORE PUSH1 0x20 SWAP2 DUP3 MSTORE PUSH1 0x40 SWAP1 DUP2 SWAP1 KECCAK256 DUP2 MLOAD PUSH1 0x60 DUP2 ADD DUP4 MSTORE SWAP1 SLOAD PUSH1 0x1 PUSH1 0x1 PUSH1 0x80 SHL SUB DUP2 AND DUP3 MSTORE PUSH5 0xFFFFFFFFFF PUSH1 0x1 PUSH1 0x80 SHL DUP3 DIV DUP2 AND SWAP5 DUP4 ADD DUP6 SWAP1 MSTORE PUSH1 0x1 PUSH1 0xA8 SHL SWAP1 SWAP2 DIV AND SWAP2 DUP2 ADD DUP3 SWAP1 MSTORE SWAP3 POP TIMESTAMP SWAP2 PUSH2 0x1280 SWAP2 SWAP1 PUSH2 0x1083 JUMP JUMPDEST LT PUSH2 0x129D JUMPI PUSH1 0x40 MLOAD PUSH3 0x461BCD PUSH1 0xE5 SHL DUP2 MSTORE PUSH1 0x4 ADD PUSH2 0x243 SWAP1 PUSH2 0x4978 JUMP JUMPDEST PUSH1 0x0 PUSH2 0x12A8 DUP4 PUSH2 0x15EB JUMP JUMPDEST SWAP1 POP PUSH2 0x12B3 DUP4 PUSH2 0x1776 JUMP JUMPDEST PUSH1 0x0 DUP1 PUSH2 0x12C3 DUP4 PUSH1 0x0 ADD MLOAD PUSH2 0x19A6 JUMP JUMPDEST DUP5 MLOAD SWAP1 SWAP2 POP PUSH1 0x1 PUSH1 0x1 PUSH1 0x80 SHL SUB AND ISZERO PUSH2 0x1359 JUMPI PUSH1 0x0 PUSH2 0x1324 PUSH4 0x3B9ACA00 PUSH2 0x1318 PUSH8 0xDE0B6B3A7640000 PUSH2 0x131E DUP10 PUSH1 0x0 ADD MLOAD PUSH1 0x1 PUSH1 0x1 PUSH1 0x80 SHL SUB AND PUSH2 0x1318 PUSH8 0xDE0B6B3A7640000 DUP10 PUSH2 0x19B5 SWAP1 SWAP2 SWAP1 PUSH4 0xFFFFFFFF AND JUMP JUMPDEST SWAP1 PUSH2 0x19DC JUMP JUMPDEST SWAP1 PUSH2 0x141A JUMP JUMPDEST SWAP1 POP PUSH2 0x1355 PUSH2 0x1347 DUP7 PUSH1 0x40 ADD MLOAD PUSH5 0xFFFFFFFFFF AND TIMESTAMP PUSH2 0x141A SWAP1 SWAP2 SWAP1 PUSH4 0xFFFFFFFF AND JUMP JUMPDEST PUSH2 0x1318 DUP4 PUSH4 0x1DA9C00 PUSH2 0x19B5 JUMP JUMPDEST SWAP3 POP POP JUMPDEST PUSH2 0x136B DUP6 PUSH2 0x1366 DUP4 PUSH2 0x19FB JUMP JUMPDEST PUSH2 0x1A11 JUMP JUMPDEST PUSH2 0x1375 DUP6 DUP4 PUSH2 0x1A83 JUMP JUMPDEST PUSH32 0xEDDEA56DFBD588F030ED3FCBDE65761F19492023CE381012239E7F7CC8D35A7C DUP6 DUP3 DUP5 PUSH1 0x40 MLOAD PUSH2 0x13A8 SWAP4 SWAP3 SWAP2 SWAP1 PUSH2 0x4AD1 JUMP JUMPDEST PUSH1 0x40 MLOAD DUP1 SWAP2 SUB SWAP1 LOG1 POP POP POP POP POP JUMP JUMPDEST PUSH2 0x13C3 DUP4 PUSH1 0x0 DUP4 PUSH2 0x1AD4 JUMP JUMPDEST POP PUSH1 0x0 PUSH2 0x13CE PUSH2 0x148E JUMP JUMPDEST PUSH1 0x1 PUSH1 0x1 PUSH1 0xA0 SHL SUB SWAP1 SWAP5 AND PUSH1 0x0 SWAP1 DUP2 MSTORE PUSH1 0x20 SWAP5 SWAP1 SWAP5 MSTORE POP POP PUSH1 0x40 SWAP1 SWAP2 KECCAK256 DUP1 SLOAD PUSH4 0xFFFFFFFF SWAP1 SWAP3 AND PUSH3 0x10000 MUL PUSH6 0xFFFFFFFF0000 NOT SWAP1 SWAP3 AND SWAP2 SWAP1 SWAP2 OR SWAP1 SSTORE JUMP JUMPDEST PUSH1 0x0 DUP1 PUSH2 0x107D PUSH1 0x25 PUSH2 0x14B1 JUMP JUMPDEST PUSH1 0x0 DUP3 DUP3 GT ISZERO PUSH2 0x1429 JUMPI PUSH1 0x0 DUP1 REVERT JUMPDEST POP SWAP1 SUB SWAP1 JUMP JUMPDEST PUSH1 0x40 DUP1 MLOAD PUSH1 0x1 PUSH1 0x1 PUSH1 0xA0 SHL SUB DUP5 AND PUSH1 0x24 DUP3 ADD MSTORE PUSH1 0x44 DUP1 DUP3 ADD DUP5 SWAP1 MSTORE DUP3 MLOAD DUP1 DUP4 SUB SWAP1 SWAP2 ADD DUP2 MSTORE PUSH1 0x64 SWAP1 SWAP2 ADD SWAP1 SWAP2 MSTORE PUSH1 0x20 DUP2 ADD DUP1 MLOAD PUSH1 0x1 PUSH1 0x1 PUSH1 0xE0 SHL SUB AND PUSH4 0xA9059CBB PUSH1 0xE0 SHL OR SWAP1 MSTORE PUSH2 0xA3E SWAP1 DUP5 SWAP1 PUSH2 0x1BB5 JUMP JUMPDEST PUSH1 0x0 DUP1 PUSH2 0x107D PUSH1 0x3 PUSH2 0x14B1 JUMP JUMPDEST PUSH1 0x0 DUP1 PUSH2 0x107D PUSH1 0x2 PUSH2 0x14B1 JUMP JUMPDEST PUSH1 0x0 DUP1 PUSH2 0x107D PUSH1 0x12 PUSH2 0x14B1 JUMP JUMPDEST PUSH1 0x0 DUP1 PUSH2 0x107D PUSH1 0x1F JUMPDEST PUSH1 0x0 PUSH3 0xF4240 DUP3 PUSH1 0x26 DUP2 GT ISZERO PUSH2 0x14C3 JUMPI INVALID JUMPDEST ADD SWAP3 SWAP2 POP POP JUMP JUMPDEST PUSH1 0x0 DUP2 SLT ISZERO PUSH2 0x14D8 JUMPI PUSH1 0x0 DUP1 REVERT JUMPDEST PUSH1 0x0 PUSH2 0x14E2 PUSH2 0x15DE JUMP JUMPDEST PUSH1 0x1 PUSH1 0x1 PUSH1 0xA0 SHL SUB DUP6 AND PUSH1 0x0 SWAP1 DUP2 MSTORE PUSH1 0x20 DUP3 DUP2 MSTORE PUSH1 0x40 DUP1 DUP4 KECCAK256 PUSH2 0xFFFF DUP9 AND DUP5 MSTORE SWAP1 SWAP2 MSTORE SWAP1 KECCAK256 SWAP1 SWAP2 POP PUSH2 0x1513 DUP4 PUSH2 0x1C66 JUMP JUMPDEST DUP2 SLOAD PUSH1 0xA SWAP2 SWAP1 SWAP2 SIGNEXTEND PUSH1 0x1 PUSH1 0x1 PUSH1 0x58 SHL SUB AND PUSH1 0x1 PUSH1 0xA8 SHL MUL PUSH1 0x1 PUSH1 0x1 PUSH1 0xA8 SHL SUB SWAP1 SWAP2 AND OR SWAP1 SSTORE POP POP POP POP JUMP JUMPDEST DUP1 DUP3 SUB DUP3 DUP2 SGT ISZERO PUSH1 0x0 DUP4 SLT ISZERO EQ PUSH2 0x107D JUMPI PUSH1 0x0 DUP1 REVERT JUMPDEST PUSH1 0x0 PUSH2 0x155E PUSH2 0x1C98 JUMP JUMPDEST PUSH2 0xFFFF DUP5 AND PUSH1 0x0 SWAP1 DUP2 MSTORE PUSH1 0x20 SWAP2 SWAP1 SWAP2 MSTORE PUSH1 0x40 SWAP1 DUP2 SWAP1 KECCAK256 SLOAD SWAP1 MLOAD PUSH4 0xAD1C095D PUSH1 0xE0 SHL DUP2 MSTORE PUSH1 0x1 PUSH1 0x1 PUSH1 0xA0 SHL SUB SWAP1 SWAP2 AND SWAP2 POP DUP2 SWAP1 PUSH4 0xAD1C095D SWAP1 PUSH2 0x15A6 SWAP1 DUP8 SWAP1 DUP7 SWAP1 PUSH1 0x4 ADD PUSH2 0x48AC JUMP JUMPDEST PUSH1 0x0 PUSH1 0x40 MLOAD DUP1 DUP4 SUB DUP2 PUSH1 0x0 DUP8 DUP1 EXTCODESIZE ISZERO DUP1 ISZERO PUSH2 0x15C0 JUMPI PUSH1 0x0 DUP1 REVERT JUMPDEST POP GAS CALL ISZERO DUP1 ISZERO PUSH2 0x15D4 JUMPI RETURNDATASIZE PUSH1 0x0 DUP1 RETURNDATACOPY RETURNDATASIZE PUSH1 0x0 REVERT JUMPDEST POP POP POP POP POP POP POP POP JUMP JUMPDEST PUSH1 0x0 DUP1 PUSH2 0x107D PUSH1 0x6 PUSH2 0x14B1 JUMP JUMPDEST PUSH2 0x15F3 PUSH2 0x3F9D JUMP JUMPDEST PUSH2 0x107D DUP3 TIMESTAMP PUSH2 0x1CA5 JUMP JUMPDEST PUSH1 0x0 PUSH2 0x1607 PUSH2 0x1C98 JUMP JUMPDEST PUSH2 0xFFFF DUP5 AND PUSH1 0x0 SWAP1 DUP2 MSTORE PUSH1 0x20 SWAP2 SWAP1 SWAP2 MSTORE PUSH1 0x40 DUP2 KECCAK256 SLOAD PUSH1 0x1 PUSH1 0x1 PUSH1 0xA0 SHL SUB AND SWAP2 POP DUP3 SLT ISZERO PUSH2 0x1632 JUMPI SWAP3 SWAP4 SWAP3 JUMPDEST DUP1 PUSH1 0x1 PUSH1 0x1 PUSH1 0xA0 SHL SUB AND PUSH4 0x23DE6651 DUP7 DUP7 PUSH2 0x164C DUP7 PUSH2 0x1D6B JUMP JUMPDEST PUSH1 0x40 MLOAD DUP5 PUSH4 0xFFFFFFFF AND PUSH1 0xE0 SHL DUP2 MSTORE PUSH1 0x4 ADD PUSH2 0x166A SWAP4 SWAP3 SWAP2 SWAP1 PUSH2 0x482C JUMP JUMPDEST PUSH1 0x0 PUSH1 0x40 MLOAD DUP1 DUP4 SUB DUP2 PUSH1 0x0 DUP8 DUP1 EXTCODESIZE ISZERO DUP1 ISZERO PUSH2 0x1684 JUMPI PUSH1 0x0 DUP1 REVERT JUMPDEST POP GAS CALL ISZERO DUP1 ISZERO PUSH2 0x1698 JUMPI RETURNDATASIZE PUSH1 0x0 DUP1 RETURNDATACOPY RETURNDATASIZE PUSH1 0x0 REVERT JUMPDEST POP POP POP POP POP POP POP POP POP JUMP JUMPDEST PUSH1 0x0 PUSH2 0x107D PUSH1 0x0 NOT DUP4 PUSH2 0x1D8C JUMP JUMPDEST PUSH1 0x0 DUP4 PUSH2 0x16C0 JUMPI POP PUSH1 0x0 PUSH2 0x1751 JUMP JUMPDEST PUSH1 0x0 DUP5 SLT PUSH2 0x16CD JUMPI PUSH1 0x0 DUP1 REVERT JUMPDEST PUSH1 0x0 PUSH2 0x16DC DUP7 PUSH2 0xFFFF AND PUSH2 0x1DDA JUMP JUMPDEST SWAP1 POP PUSH2 0x16F1 DUP2 PUSH2 0x16EC DUP7 DUP9 PUSH2 0x1DED JUMP JUMPDEST PUSH2 0x1E19 JUMP JUMPDEST SWAP2 POP PUSH1 0x0 PUSH2 0x16FE DUP4 PUSH2 0x16A3 JUMP JUMPDEST SWAP1 POP PUSH2 0x170B DUP8 DUP4 DUP4 PUSH2 0x1E51 JUMP JUMPDEST PUSH1 0x3 DUP3 PUSH1 0x60 ADD MLOAD PUSH1 0x5 DUP2 GT ISZERO PUSH2 0x171D JUMPI INVALID JUMPDEST EQ ISZERO PUSH2 0x1733 JUMPI PUSH2 0x172E DUP9 DUP3 DUP7 PUSH2 0x1F3F JUMP JUMPDEST PUSH2 0x1740 JUMP JUMPDEST DUP2 MLOAD PUSH2 0x1740 SWAP1 DUP10 DUP4 PUSH2 0x200D JUMP JUMPDEST PUSH2 0x174D DUP9 DUP9 DUP6 DUP6 DUP10 PUSH2 0x2084 JUMP JUMPDEST POP POP POP JUMPDEST SWAP6 SWAP5 POP POP POP POP POP JUMP JUMPDEST PUSH1 0x0 PUSH2 0x1766 DUP4 DUP4 PUSH2 0x153E JUMP JUMPDEST SWAP1 POP PUSH1 0x0 DUP2 SLT ISZERO PUSH2 0x107D JUMPI PUSH1 0x0 DUP1 REVERT JUMPDEST PUSH1 0x0 PUSH2 0x1781 DUP3 PUSH2 0x1040 JUMP JUMPDEST SWAP1 POP PUSH1 0x0 DUP2 PUSH1 0x1 PUSH1 0x1 PUSH1 0xA0 SHL SUB AND PUSH4 0xE79BF13B PUSH1 0x40 MLOAD DUP2 PUSH4 0xFFFFFFFF AND PUSH1 0xE0 SHL DUP2 MSTORE PUSH1 0x4 ADD PUSH1 0x0 PUSH1 0x40 MLOAD DUP1 DUP4 SUB DUP2 DUP7 DUP1 EXTCODESIZE ISZERO DUP1 ISZERO PUSH2 0x17BE JUMPI PUSH1 0x0 DUP1 REVERT JUMPDEST POP GAS STATICCALL ISZERO DUP1 ISZERO PUSH2 0x17D2 JUMPI RETURNDATASIZE PUSH1 0x0 DUP1 RETURNDATACOPY RETURNDATASIZE PUSH1 0x0 REVERT JUMPDEST POP POP POP POP PUSH1 0x40 MLOAD RETURNDATASIZE PUSH1 0x0 DUP3 RETURNDATACOPY PUSH1 0x1F RETURNDATASIZE SWAP1 DUP2 ADD PUSH1 0x1F NOT AND DUP3 ADD PUSH1 0x40 MSTORE PUSH2 0x17FA SWAP2 SWAP1 DUP2 ADD SWAP1 PUSH2 0x4333 JUMP JUMPDEST SWAP1 POP PUSH1 0x0 PUSH2 0x1808 DUP5 DUP4 PUSH2 0x20CB JUMP JUMPDEST SWAP1 POP PUSH1 0x0 PUSH2 0x1817 DUP5 DUP5 DUP5 PUSH2 0x21CC JUMP JUMPDEST SWAP1 POP PUSH1 0x0 DUP5 PUSH1 0x1 PUSH1 0x1 PUSH1 0xA0 SHL SUB AND PUSH4 0xEF81F216 PUSH1 0x40 MLOAD DUP2 PUSH4 0xFFFFFFFF AND PUSH1 0xE0 SHL DUP2 MSTORE PUSH1 0x4 ADD PUSH1 0x40 DUP1 MLOAD DUP1 DUP4 SUB DUP2 PUSH1 0x0 DUP8 DUP1 EXTCODESIZE ISZERO DUP1 ISZERO PUSH2 0x1855 JUMPI PUSH1 0x0 DUP1 REVERT JUMPDEST POP GAS CALL ISZERO DUP1 ISZERO PUSH2 0x1869 JUMPI RETURNDATASIZE PUSH1 0x0 DUP1 RETURNDATACOPY RETURNDATASIZE PUSH1 0x0 REVERT JUMPDEST POP POP POP POP PUSH1 0x40 MLOAD RETURNDATASIZE PUSH1 0x1F NOT PUSH1 0x1F DUP3 ADD AND DUP3 ADD DUP1 PUSH1 0x40 MSTORE POP DUP2 ADD SWAP1 PUSH2 0x188D SWAP2 SWAP1 PUSH2 0x47A1 JUMP JUMPDEST POP SWAP1 POP PUSH1 0x0 PUSH2 0x189F DUP8 PUSH2 0xFFFF AND PUSH2 0x1DDA JUMP JUMPDEST SWAP1 POP PUSH1 0x0 PUSH2 0x18B1 DUP3 DUP6 PUSH1 0x0 ADD MLOAD PUSH2 0x2613 JUMP JUMPDEST POP SWAP1 POP DUP1 PUSH2 0x18C7 JUMPI PUSH2 0x18C7 DUP3 DUP6 PUSH1 0x20 ADD MLOAD PUSH2 0x282A JUMP JUMPDEST PUSH1 0x0 DUP8 PUSH1 0x1 PUSH1 0x1 PUSH1 0xA0 SHL SUB AND PUSH4 0xEF81F216 PUSH1 0x40 MLOAD DUP2 PUSH4 0xFFFFFFFF AND PUSH1 0xE0 SHL DUP2 MSTORE PUSH1 0x4 ADD PUSH1 0x40 DUP1 MLOAD DUP1 DUP4 SUB DUP2 PUSH1 0x0 DUP8 DUP1 EXTCODESIZE ISZERO DUP1 ISZERO PUSH2 0x1903 JUMPI PUSH1 0x0 DUP1 REVERT JUMPDEST POP GAS CALL ISZERO DUP1 ISZERO PUSH2 0x1917 JUMPI RETURNDATASIZE PUSH1 0x0 DUP1 RETURNDATACOPY RETURNDATASIZE PUSH1 0x0 REVERT JUMPDEST POP POP POP POP PUSH1 0x40 MLOAD RETURNDATASIZE PUSH1 0x1F NOT PUSH1 0x1F DUP3 ADD AND DUP3 ADD DUP1 PUSH1 0x40 MSTORE POP DUP2 ADD SWAP1 PUSH2 0x193B SWAP2 SWAP1 PUSH2 0x47A1 JUMP JUMPDEST POP SWAP1 POP PUSH1 0x0 PUSH2 0x195B PUSH2 0x194C DUP4 PUSH2 0x10DD JUMP JUMPDEST PUSH2 0x1955 DUP8 PUSH2 0x10DD JUMP JUMPDEST SWAP1 PUSH2 0x153E JUMP JUMPDEST SWAP1 POP PUSH1 0x0 PUSH2 0x1988 PUSH2 0x196B DUP8 PUSH2 0x10DD JUMP JUMPDEST PUSH2 0x1982 PUSH4 0x3B9ACA00 PUSH2 0x197C DUP7 PUSH2 0x1D6B JUMP JUMPDEST SWAP1 PUSH2 0x1D8C JUMP JUMPDEST SWAP1 PUSH2 0x2A36 JUMP JUMPDEST SWAP1 POP PUSH3 0x186A0 DUP2 SLT PUSH2 0x1999 JUMPI PUSH1 0x0 DUP1 REVERT JUMPDEST POP POP POP POP POP POP POP POP POP POP POP JUMP JUMPDEST PUSH1 0x0 DUP1 DUP3 SLT ISZERO PUSH2 0x10F3 JUMPI PUSH1 0x0 DUP1 REVERT JUMPDEST PUSH1 0x0 DUP3 PUSH2 0x19C4 JUMPI POP PUSH1 0x0 PUSH2 0x107D JUMP JUMPDEST DUP3 DUP3 MUL DUP3 DUP5 DUP3 DUP2 PUSH2 0x19D1 JUMPI INVALID JUMPDEST DIV EQ PUSH2 0x1095 JUMPI PUSH1 0x0 DUP1 REVERT JUMPDEST PUSH1 0x0 DUP1 DUP3 GT PUSH2 0x19EA JUMPI PUSH1 0x0 DUP1 REVERT JUMPDEST DUP2 DUP4 DUP2 PUSH2 0x19F3 JUMPI INVALID JUMPDEST DIV SWAP4 SWAP3 POP POP POP JUMP JUMPDEST PUSH1 0x0 PUSH1 0x1 PUSH1 0x1 PUSH1 0x80 SHL SUB DUP3 GT ISZERO PUSH2 0x10F3 JUMPI PUSH1 0x0 DUP1 REVERT JUMPDEST PUSH1 0x0 PUSH2 0x1A1B PUSH2 0x140D JUMP JUMPDEST SWAP1 POP PUSH2 0x1A26 TIMESTAMP PUSH2 0x2A67 JUMP JUMPDEST PUSH2 0xFFFF SWAP4 SWAP1 SWAP4 AND PUSH1 0x0 SWAP1 DUP2 MSTORE PUSH1 0x20 SWAP2 SWAP1 SWAP2 MSTORE PUSH1 0x40 SWAP1 KECCAK256 DUP1 SLOAD PUSH5 0xFFFFFFFFFF PUSH1 0xA8 SHL NOT AND PUSH1 0x1 PUSH1 0xA8 SHL PUSH5 0xFFFFFFFFFF SWAP1 SWAP5 AND SWAP4 SWAP1 SWAP4 MUL SWAP3 SWAP1 SWAP3 OR PUSH16 0xFFFFFFFFFFFFFFFFFFFFFFFFFFFFFFFF NOT AND PUSH1 0x1 PUSH1 0x1 PUSH1 0x80 SHL SUB SWAP2 SWAP1 SWAP2 AND OR SWAP1 SSTORE JUMP JUMPDEST PUSH1 0x0 PUSH2 0x1A8D PUSH2 0x2A7B JUMP JUMPDEST SWAP1 POP PUSH2 0x1A98 DUP3 PUSH2 0x2A88 JUMP JUMPDEST PUSH2 0xFFFF SWAP1 SWAP4 AND PUSH1 0x0 SWAP1 DUP2 MSTORE PUSH1 0x20 SWAP2 SWAP1 SWAP2 MSTORE PUSH1 0x40 SWAP1 KECCAK256 DUP1 SLOAD PUSH4 0xFFFFFFFF SWAP4 SWAP1 SWAP4 AND PUSH1 0x1 PUSH1 0xD8 SHL MUL PUSH4 0xFFFFFFFF PUSH1 0xD8 SHL NOT SWAP1 SWAP4 AND SWAP3 SWAP1 SWAP3 OR SWAP1 SWAP2 SSTORE POP JUMP JUMPDEST PUSH1 0x0 DUP1 PUSH1 0x0 PUSH2 0x1AE3 DUP7 DUP6 PUSH2 0x2A9B JUMP JUMPDEST POP SWAP2 POP SWAP2 POP PUSH1 0x0 PUSH2 0x1AF2 PUSH2 0x2B31 JUMP JUMPDEST PUSH1 0x1 PUSH1 0x1 PUSH1 0xA0 SHL SUB DUP9 AND PUSH1 0x0 SWAP1 DUP2 MSTORE PUSH1 0x20 DUP3 SWAP1 MSTORE PUSH1 0x40 DUP2 KECCAK256 SWAP2 SWAP3 POP PUSH2 0x1B17 DUP6 DUP10 PUSH2 0x2B3E JUMP JUMPDEST SWAP1 POP DUP1 PUSH1 0x0 SGT ISZERO DUP1 ISZERO PUSH2 0x1B30 JUMPI POP PUSH1 0x1 PUSH1 0x1 PUSH1 0x60 SHL SUB DUP2 LT JUMPDEST PUSH2 0x1B39 JUMPI PUSH1 0x0 DUP1 REVERT JUMPDEST DUP2 SLOAD PUSH12 0xFFFFFFFFFFFFFFFFFFFFFFFF NOT AND PUSH1 0x1 PUSH1 0x1 PUSH1 0x60 SHL SUB DUP3 AND OR PUSH16 0xFFFFFFFFFFFFFFFFFFFFFFFFFFFFFFFF PUSH1 0x60 SHL NOT AND PUSH1 0x1 PUSH1 0x60 SHL PUSH1 0x1 PUSH1 0x1 PUSH1 0x80 SHL SUB DUP7 AND MUL OR DUP3 SSTORE PUSH4 0xFFFFFFFF DUP8 LT PUSH2 0x1B8E JUMPI PUSH1 0x0 DUP1 REVERT JUMPDEST POP DUP1 SLOAD PUSH1 0x1 PUSH1 0x1 PUSH1 0xE0 SHL SUB AND PUSH1 0x1 PUSH1 0xE0 SHL PUSH4 0xFFFFFFFF DUP9 AND MUL OR SWAP1 SSTORE POP SWAP2 POP POP SWAP4 SWAP3 POP POP POP JUMP JUMPDEST PUSH1 0x0 PUSH2 0x1C0A DUP3 PUSH1 0x40 MLOAD DUP1 PUSH1 0x40 ADD PUSH1 0x40 MSTORE DUP1 PUSH1 0x20 DUP2 MSTORE PUSH1 0x20 ADD PUSH32 0x5361666545524332303A206C6F772D6C6576656C2063616C6C206661696C6564 DUP2 MSTORE POP DUP6 PUSH1 0x1 PUSH1 0x1 PUSH1 0xA0 SHL SUB AND PUSH2 0x2B54 SWAP1 SWAP3 SWAP2 SWAP1 PUSH4 0xFFFFFFFF AND JUMP JUMPDEST DUP1 MLOAD SWAP1 SWAP2 POP ISZERO PUSH2 0xA3E JUMPI DUP1 DUP1 PUSH1 0x20 ADD SWAP1 MLOAD PUSH1 0x20 DUP2 LT ISZERO PUSH2 0x1C29 JUMPI PUSH1 0x0 DUP1 REVERT JUMPDEST POP MLOAD PUSH2 0xA3E JUMPI PUSH1 0x40 MLOAD PUSH3 0x461BCD PUSH1 0xE5 SHL DUP2 MSTORE PUSH1 0x4 ADD DUP1 DUP1 PUSH1 0x20 ADD DUP3 DUP2 SUB DUP3 MSTORE PUSH1 0x2A DUP2 MSTORE PUSH1 0x20 ADD DUP1 PUSH2 0x4BC4 PUSH1 0x2A SWAP2 CODECOPY PUSH1 0x40 ADD SWAP2 POP POP PUSH1 0x40 MLOAD DUP1 SWAP2 SUB SWAP1 REVERT JUMPDEST PUSH1 0x0 PUSH11 0x7FFFFFFFFFFFFFFFFFFFFF NOT DUP3 SLT DUP1 ISZERO SWAP1 PUSH2 0x1C8F JUMPI POP PUSH11 0x7FFFFFFFFFFFFFFFFFFFFF DUP3 SGT ISZERO JUMPDEST PUSH2 0x10F3 JUMPI PUSH1 0x0 DUP1 REVERT JUMPDEST PUSH1 0x0 DUP1 PUSH2 0x107D PUSH1 0x21 PUSH2 0x14B1 JUMP JUMPDEST PUSH2 0x1CAD PUSH2 0x3F9D JUMP JUMPDEST PUSH1 0x0 PUSH2 0x1CB8 DUP5 PUSH2 0x2B63 JUMP JUMPDEST SWAP1 POP DUP3 DUP2 PUSH1 0x0 ADD MLOAD LT ISZERO PUSH2 0x1CF7 JUMPI PUSH1 0x0 DUP1 PUSH2 0x1CD2 DUP7 PUSH2 0x2C2B JUMP JUMPDEST SWAP1 POP PUSH2 0x1CE0 DUP7 DUP5 DUP4 DUP9 PUSH2 0x2CA8 JUMP JUMPDEST SWAP1 SWAP4 POP SWAP2 POP PUSH2 0x1CF0 DUP7 DUP4 DUP6 PUSH2 0x2D4C JUMP JUMPDEST POP POP PUSH2 0x1D04 JUMP JUMPDEST DUP1 MLOAD DUP4 EQ PUSH2 0x1D04 JUMPI PUSH1 0x0 DUP1 REVERT JUMPDEST PUSH1 0x40 MLOAD DUP1 PUSH1 0x60 ADD PUSH1 0x40 MSTORE DUP1 PUSH2 0x1D32 PUSH2 0x1D2D DUP5 PUSH1 0xA0 ADD MLOAD DUP6 PUSH1 0xC0 ADD MLOAD PUSH2 0x19B5 SWAP1 SWAP2 SWAP1 PUSH4 0xFFFFFFFF AND JUMP JUMPDEST PUSH2 0x10DD JUMP JUMPDEST DUP2 MSTORE PUSH1 0x20 ADD PUSH2 0x1D55 PUSH2 0x1D2D DUP5 PUSH1 0xA0 ADD MLOAD DUP6 PUSH1 0xE0 ADD MLOAD PUSH2 0x19B5 SWAP1 SWAP2 SWAP1 PUSH4 0xFFFFFFFF AND JUMP JUMPDEST DUP2 MSTORE PUSH1 0x20 ADD DUP3 PUSH1 0x60 ADD MLOAD DUP2 MSTORE POP SWAP2 POP POP SWAP3 SWAP2 POP POP JUMP JUMPDEST PUSH1 0x0 DUP1 DUP3 SLT ISZERO PUSH2 0x1D85 JUMPI PUSH2 0x1D7E DUP3 PUSH2 0x16A3 JUMP JUMPDEST SWAP1 POP PUSH2 0xF26 JUMP JUMPDEST POP DUP1 PUSH2 0xF26 JUMP JUMPDEST DUP2 DUP2 MUL PUSH1 0x0 NOT DUP4 EQ ISZERO PUSH2 0x1DBC JUMPI DUP2 ISZERO DUP1 PUSH2 0x1DAE JUMPI POP DUP3 DUP3 DUP3 DUP2 PUSH2 0x1DAB JUMPI INVALID JUMPDEST SDIV EQ JUMPDEST PUSH2 0x1DB7 JUMPI PUSH1 0x0 DUP1 REVERT JUMPDEST PUSH2 0x107D JUMP JUMPDEST DUP3 ISZERO DUP1 PUSH2 0x1DD1 JUMPI POP DUP2 DUP4 DUP3 DUP2 PUSH2 0x1DCE JUMPI INVALID JUMPDEST SDIV EQ JUMPDEST PUSH2 0x107D JUMPI PUSH1 0x0 DUP1 REVERT JUMPDEST PUSH2 0x1DE2 PUSH2 0x3FBE JUMP JUMPDEST PUSH2 0x107D DUP3 PUSH1 0x1 PUSH2 0x2F72 JUMP JUMPDEST PUSH1 0x0 PUSH2 0x1095 PUSH15 0xC097CE7BC90715B34B9F1000000000 PUSH2 0x1982 DUP6 PUSH1 0x0 ADD MLOAD DUP6 PUSH2 0x1D8C SWAP1 SWAP2 SWAP1 PUSH4 0xFFFFFFFF AND JUMP JUMPDEST PUSH1 0x0 PUSH4 0x5F5E100 DUP4 PUSH1 0x40 ADD MLOAD EQ ISZERO PUSH2 0x1E32 JUMPI POP DUP1 PUSH2 0x107D JUMP JUMPDEST PUSH2 0x1095 PUSH4 0x5F5E100 PUSH2 0x1982 DUP6 PUSH1 0x40 ADD MLOAD DUP6 PUSH2 0x1D8C SWAP1 SWAP2 SWAP1 PUSH4 0xFFFFFFFF AND JUMP JUMPDEST PUSH1 0x0 PUSH2 0x1E5B PUSH2 0x300C JUMP JUMPDEST DUP4 MLOAD PUSH1 0x1 PUSH1 0x1 PUSH1 0xA0 SHL SUB AND PUSH1 0x0 SWAP1 DUP2 MSTORE PUSH1 0x20 DUP3 SWAP1 MSTORE PUSH1 0x40 SWAP1 KECCAK256 SLOAD SWAP1 SWAP2 POP DUP1 DUP4 GT PUSH2 0x1E86 JUMPI POP POP PUSH2 0xA3E JUMP JUMPDEST PUSH1 0x0 PUSH2 0x1E91 DUP7 PUSH2 0x1040 JUMP JUMPDEST SWAP1 POP PUSH1 0x0 DUP2 PUSH1 0x1 PUSH1 0x1 PUSH1 0xA0 SHL SUB AND PUSH4 0xB5E4DA23 DUP5 DUP8 SUB PUSH1 0x40 MLOAD DUP3 PUSH4 0xFFFFFFFF AND PUSH1 0xE0 SHL DUP2 MSTORE PUSH1 0x4 ADD PUSH2 0x1EC3 SWAP2 SWAP1 PUSH2 0x4938 JUMP JUMPDEST PUSH1 0x0 PUSH1 0x40 MLOAD DUP1 DUP4 SUB DUP2 DUP7 DUP1 EXTCODESIZE ISZERO DUP1 ISZERO PUSH2 0x1EDB JUMPI PUSH1 0x0 DUP1 REVERT JUMPDEST POP GAS STATICCALL ISZERO DUP1 ISZERO PUSH2 0x1EEF JUMPI RETURNDATASIZE PUSH1 0x0 DUP1 RETURNDATACOPY RETURNDATASIZE PUSH1 0x0 REVERT JUMPDEST POP POP POP POP PUSH1 0x40 MLOAD RETURNDATASIZE PUSH1 0x0 DUP3 RETURNDATACOPY PUSH1 0x1F RETURNDATASIZE SWAP1 DUP2 ADD PUSH1 0x1F NOT AND DUP3 ADD PUSH1 0x40 MSTORE PUSH2 0x1F17 SWAP2 SWAP1 DUP2 ADD SWAP1 PUSH2 0x448A JUMP JUMPDEST SWAP1 POP PUSH1 0x0 PUSH2 0x1F25 DUP8 DUP4 PUSH2 0x2613 JUMP JUMPDEST SWAP2 POP PUSH2 0x1F33 SWAP1 POP DUP5 DUP3 PUSH2 0x1083 JUMP JUMPDEST DUP7 GT ISZERO PUSH2 0x15D4 JUMPI PUSH1 0x0 DUP1 REVERT JUMPDEST DUP1 ISZERO PUSH2 0x1FD1 JUMPI PUSH20 0x82AF49447D8A07E3BD95BD0D56F35241523FBAB1 PUSH1 0x1 PUSH1 0x1 PUSH1 0xA0 SHL SUB AND PUSH4 0xD0E30DB0 DUP4 PUSH1 0x40 MLOAD DUP3 PUSH4 0xFFFFFFFF AND PUSH1 0xE0 SHL DUP2 MSTORE PUSH1 0x4 ADD PUSH1 0x0 PUSH1 0x40 MLOAD DUP1 DUP4 SUB DUP2 DUP6 DUP9 DUP1 EXTCODESIZE ISZERO DUP1 ISZERO PUSH2 0x1F94 JUMPI PUSH1 0x0 DUP1 REVERT JUMPDEST POP GAS CALL ISZERO DUP1 ISZERO PUSH2 0x1FA8 JUMPI RETURNDATASIZE PUSH1 0x0 DUP1 RETURNDATACOPY RETURNDATASIZE PUSH1 0x0 REVERT JUMPDEST POP POP POP POP POP PUSH2 0x1FCC PUSH20 0x82AF49447D8A07E3BD95BD0D56F35241523FBAB1 DUP5 DUP5 PUSH2 0x200D JUMP JUMPDEST PUSH2 0xA3E JUMP JUMPDEST PUSH1 0x40 MLOAD PUSH1 0x1 PUSH1 0x1 PUSH1 0xA0 SHL SUB DUP5 AND SWAP1 DUP4 ISZERO PUSH2 0x8FC MUL SWAP1 DUP5 SWAP1 PUSH1 0x0 DUP2 DUP2 DUP2 DUP6 DUP9 DUP9 CALL SWAP4 POP POP POP POP ISZERO DUP1 ISZERO PUSH2 0x2007 JUMPI RETURNDATASIZE PUSH1 0x0 DUP1 RETURNDATACOPY RETURNDATASIZE PUSH1 0x0 REVERT JUMPDEST POP POP POP POP JUMP JUMPDEST DUP3 PUSH1 0x1 PUSH1 0x1 PUSH1 0xA0 SHL SUB AND PUSH4 0xA9059CBB DUP4 DUP4 PUSH1 0x40 MLOAD DUP4 PUSH4 0xFFFFFFFF AND PUSH1 0xE0 SHL DUP2 MSTORE PUSH1 0x4 ADD DUP1 DUP4 PUSH1 0x1 PUSH1 0x1 PUSH1 0xA0 SHL SUB AND DUP2 MSTORE PUSH1 0x20 ADD DUP3 DUP2 MSTORE PUSH1 0x20 ADD SWAP3 POP POP POP PUSH1 0x0 PUSH1 0x40 MLOAD DUP1 DUP4 SUB DUP2 PUSH1 0x0 DUP8 DUP1 EXTCODESIZE ISZERO DUP1 ISZERO PUSH2 0x2064 JUMPI PUSH1 0x0 DUP1 REVERT JUMPDEST POP GAS CALL ISZERO DUP1 ISZERO PUSH2 0x2078 JUMPI RETURNDATASIZE PUSH1 0x0 DUP1 RETURNDATACOPY RETURNDATASIZE PUSH1 0x0 REVERT JUMPDEST POP POP POP POP PUSH2 0xA3E PUSH2 0x3019 JUMP JUMPDEST PUSH1 0x0 DUP1 PUSH2 0x2091 DUP5 DUP7 PUSH2 0x3086 JUMP JUMPDEST SWAP1 POP PUSH2 0x209D DUP4 DUP3 PUSH2 0x30B6 JUMP JUMPDEST SWAP2 POP PUSH2 0x20AA DUP8 DUP8 DUP5 PUSH2 0x1554 JUMP JUMPDEST PUSH2 0x20B5 DUP7 DUP4 DUP4 PUSH2 0x30D8 JUMP JUMPDEST DUP4 MLOAD PUSH2 0x20C1 SWAP1 DUP7 PUSH2 0x31E4 JUMP JUMPDEST POP SWAP6 SWAP5 POP POP POP POP POP JUMP JUMPDEST PUSH1 0x60 PUSH1 0x0 PUSH2 0x20D7 PUSH2 0x1070 JUMP JUMPDEST PUSH2 0xFFFF DUP6 AND PUSH1 0x0 SWAP1 DUP2 MSTORE PUSH1 0x20 SWAP2 SWAP1 SWAP2 MSTORE PUSH1 0x40 SWAP1 KECCAK256 DUP4 MLOAD SWAP1 SWAP2 POP PUSH1 0x1 PUSH1 0x1 PUSH1 0x40 SHL SUB DUP2 GT DUP1 ISZERO PUSH2 0x2105 JUMPI PUSH1 0x0 DUP1 REVERT JUMPDEST POP PUSH1 0x40 MLOAD SWAP1 DUP1 DUP3 MSTORE DUP1 PUSH1 0x20 MUL PUSH1 0x20 ADD DUP3 ADD PUSH1 0x40 MSTORE DUP1 ISZERO PUSH2 0x212F JUMPI DUP2 PUSH1 0x20 ADD PUSH1 0x20 DUP3 MUL DUP1 CALLDATASIZE DUP4 CALLDATACOPY ADD SWAP1 POP JUMPDEST POP SWAP2 POP PUSH1 0x0 DUP1 JUMPDEST DUP5 MLOAD DUP2 LT ISZERO PUSH2 0x21BD JUMPI PUSH1 0x0 DUP4 PUSH1 0x0 DUP8 DUP5 DUP2 MLOAD DUP2 LT PUSH2 0x2150 JUMPI INVALID JUMPDEST PUSH1 0x20 MUL PUSH1 0x20 ADD ADD MLOAD PUSH1 0x1 PUSH1 0x1 PUSH1 0xA0 SHL SUB AND PUSH1 0x1 PUSH1 0x1 PUSH1 0xA0 SHL SUB AND DUP2 MSTORE PUSH1 0x20 ADD SWAP1 DUP2 MSTORE PUSH1 0x20 ADD PUSH1 0x0 KECCAK256 PUSH1 0x0 SWAP1 SLOAD SWAP1 PUSH2 0x100 EXP SWAP1 DIV PUSH1 0xFF AND SWAP1 POP DUP1 DUP6 DUP4 DUP2 MLOAD DUP2 LT PUSH2 0x2195 JUMPI INVALID JUMPDEST PUSH1 0xFF SWAP3 DUP4 AND PUSH1 0x20 SWAP2 DUP3 MUL SWAP3 SWAP1 SWAP3 ADD ADD MSTORE PUSH2 0x21B2 SWAP1 DUP5 SWAP1 DUP4 AND PUSH2 0x1083 JUMP JUMPDEST SWAP3 POP POP PUSH1 0x1 ADD PUSH2 0x2136 JUMP JUMPDEST POP PUSH1 0x64 DUP2 GT ISZERO PUSH2 0x1148 JUMPI PUSH1 0x0 DUP1 REVERT JUMPDEST PUSH2 0x21D4 PUSH2 0x3FED JUMP JUMPDEST PUSH1 0x0 DUP5 PUSH1 0x1 PUSH1 0x1 PUSH1 0xA0 SHL SUB AND PUSH4 0x395C46BA PUSH1 0x40 MLOAD DUP2 PUSH4 0xFFFFFFFF AND PUSH1 0xE0 SHL DUP2 MSTORE PUSH1 0x4 ADD PUSH1 0x0 PUSH1 0x40 MLOAD DUP1 DUP4 SUB DUP2 DUP7 DUP1 EXTCODESIZE ISZERO DUP1 ISZERO PUSH2 0x220F JUMPI PUSH1 0x0 DUP1 REVERT JUMPDEST POP GAS STATICCALL ISZERO DUP1 ISZERO PUSH2 0x2223 JUMPI RETURNDATASIZE PUSH1 0x0 DUP1 RETURNDATACOPY RETURNDATASIZE PUSH1 0x0 REVERT JUMPDEST POP POP POP POP PUSH1 0x40 MLOAD RETURNDATASIZE PUSH1 0x0 DUP3 RETURNDATACOPY PUSH1 0x1F RETURNDATASIZE SWAP1 DUP2 ADD PUSH1 0x1F NOT AND DUP3 ADD PUSH1 0x40 MSTORE PUSH2 0x224B SWAP2 SWAP1 DUP2 ADD SWAP1 PUSH2 0x45AF JUMP JUMPDEST SWAP1 POP PUSH1 0x0 DUP6 PUSH1 0x1 PUSH1 0x1 PUSH1 0xA0 SHL SUB AND PUSH4 0xA77C05B8 PUSH1 0x40 MLOAD DUP2 PUSH4 0xFFFFFFFF AND PUSH1 0xE0 SHL DUP2 MSTORE PUSH1 0x4 ADD PUSH1 0x40 DUP1 MLOAD DUP1 DUP4 SUB DUP2 DUP7 DUP1 EXTCODESIZE ISZERO DUP1 ISZERO PUSH2 0x2287 JUMPI PUSH1 0x0 DUP1 REVERT JUMPDEST POP GAS STATICCALL ISZERO DUP1 ISZERO PUSH2 0x229B JUMPI RETURNDATASIZE PUSH1 0x0 DUP1 RETURNDATACOPY RETURNDATASIZE PUSH1 0x0 REVERT JUMPDEST POP POP POP POP PUSH1 0x40 MLOAD RETURNDATASIZE PUSH1 0x1F NOT PUSH1 0x1F DUP3 ADD AND DUP3 ADD DUP1 PUSH1 0x40 MSTORE POP DUP2 ADD SWAP1 PUSH2 0x22BF SWAP2 SWAP1 PUSH2 0x47A1 JUMP JUMPDEST POP SWAP1 POP PUSH1 0x0 DUP6 MLOAD PUSH1 0x1 PUSH1 0x1 PUSH1 0x40 SHL SUB DUP2 GT DUP1 ISZERO PUSH2 0x22DB JUMPI PUSH1 0x0 DUP1 REVERT JUMPDEST POP PUSH1 0x40 MLOAD SWAP1 DUP1 DUP3 MSTORE DUP1 PUSH1 0x20 MUL PUSH1 0x20 ADD DUP3 ADD PUSH1 0x40 MSTORE DUP1 ISZERO PUSH2 0x2305 JUMPI DUP2 PUSH1 0x20 ADD PUSH1 0x20 DUP3 MUL DUP1 CALLDATASIZE DUP4 CALLDATACOPY ADD SWAP1 POP JUMPDEST POP SWAP1 POP PUSH1 0x0 DUP7 MLOAD PUSH1 0x1 PUSH1 0x1 PUSH1 0x40 SHL SUB DUP2 GT DUP1 ISZERO PUSH2 0x2321 JUMPI PUSH1 0x0 DUP1 REVERT JUMPDEST POP PUSH1 0x40 MLOAD SWAP1 DUP1 DUP3 MSTORE DUP1 PUSH1 0x20 MUL PUSH1 0x20 ADD DUP3 ADD PUSH1 0x40 MSTORE DUP1 ISZERO PUSH2 0x234B JUMPI DUP2 PUSH1 0x20 ADD PUSH1 0x20 DUP3 MUL DUP1 CALLDATASIZE DUP4 CALLDATACOPY ADD SWAP1 POP JUMPDEST POP SWAP1 POP PUSH1 0x0 DUP8 MLOAD PUSH1 0x1 PUSH1 0x1 PUSH1 0x40 SHL SUB DUP2 GT DUP1 ISZERO PUSH2 0x2367 JUMPI PUSH1 0x0 DUP1 REVERT JUMPDEST POP PUSH1 0x40 MLOAD SWAP1 DUP1 DUP3 MSTORE DUP1 PUSH1 0x20 MUL PUSH1 0x20 ADD DUP3 ADD PUSH1 0x40 MSTORE DUP1 ISZERO PUSH2 0x2391 JUMPI DUP2 PUSH1 0x20 ADD PUSH1 0x20 DUP3 MUL DUP1 CALLDATASIZE DUP4 CALLDATACOPY ADD SWAP1 POP JUMPDEST POP SWAP1 POP PUSH1 0x0 DUP9 MLOAD PUSH1 0x1 PUSH1 0x1 PUSH1 0x40 SHL SUB DUP2 GT DUP1 ISZERO PUSH2 0x23AD JUMPI PUSH1 0x0 DUP1 REVERT JUMPDEST POP PUSH1 0x40 MLOAD SWAP1 DUP1 DUP3 MSTORE DUP1 PUSH1 0x20 MUL PUSH1 0x20 ADD DUP3 ADD PUSH1 0x40 MSTORE DUP1 ISZERO PUSH2 0x23D7 JUMPI DUP2 PUSH1 0x20 ADD PUSH1 0x20 DUP3 MUL DUP1 CALLDATASIZE DUP4 CALLDATACOPY ADD SWAP1 POP JUMPDEST POP SWAP1 POP PUSH1 0x0 JUMPDEST DUP10 MLOAD DUP2 LT ISZERO PUSH2 0x24F9 JUMPI PUSH1 0x0 DUP11 DUP3 DUP2 MLOAD DUP2 LT PUSH2 0x23F4 JUMPI INVALID JUMPDEST PUSH1 0x20 MUL PUSH1 0x20 ADD ADD MLOAD SWAP1 POP PUSH1 0x0 PUSH2 0x242E PUSH1 0x64 PUSH2 0x1318 DUP14 DUP7 DUP2 MLOAD DUP2 LT PUSH2 0x2414 JUMPI INVALID JUMPDEST PUSH1 0x20 MUL PUSH1 0x20 ADD ADD MLOAD PUSH1 0xFF AND DUP12 PUSH2 0x19B5 SWAP1 SWAP2 SWAP1 PUSH4 0xFFFFFFFF AND JUMP JUMPDEST SWAP1 POP PUSH1 0x0 DUP10 DUP5 DUP2 MLOAD DUP2 LT PUSH2 0x243E JUMPI INVALID JUMPDEST PUSH1 0x20 MUL PUSH1 0x20 ADD ADD MLOAD SWAP1 POP DUP3 DUP9 DUP6 DUP2 MLOAD DUP2 LT PUSH2 0x2455 JUMPI INVALID JUMPDEST PUSH1 0x20 MUL PUSH1 0x20 ADD ADD SWAP1 PUSH1 0x1 PUSH1 0x1 PUSH1 0xA0 SHL SUB AND SWAP1 DUP2 PUSH1 0x1 PUSH1 0x1 PUSH1 0xA0 SHL SUB AND DUP2 MSTORE POP POP DUP3 DUP7 DUP6 DUP2 MLOAD DUP2 LT PUSH2 0x2482 JUMPI INVALID JUMPDEST PUSH1 0x20 MUL PUSH1 0x20 ADD ADD SWAP1 PUSH1 0x1 PUSH1 0x1 PUSH1 0xA0 SHL SUB AND SWAP1 DUP2 PUSH1 0x1 PUSH1 0x1 PUSH1 0xA0 SHL SUB AND DUP2 MSTORE POP POP DUP1 DUP3 LT ISZERO PUSH2 0x24CA JUMPI DUP2 DUP2 SUB DUP8 DUP6 DUP2 MLOAD DUP2 LT PUSH2 0x24B9 JUMPI INVALID JUMPDEST PUSH1 0x20 MUL PUSH1 0x20 ADD ADD DUP2 DUP2 MSTORE POP POP PUSH2 0x24EE JUMP JUMPDEST DUP2 DUP2 LT ISZERO PUSH2 0x24EE JUMPI DUP1 DUP3 SUB DUP6 DUP6 DUP2 MLOAD DUP2 LT PUSH2 0x24E1 JUMPI INVALID JUMPDEST PUSH1 0x20 MUL PUSH1 0x20 ADD ADD DUP2 DUP2 MSTORE POP POP JUMPDEST POP POP POP PUSH1 0x1 ADD PUSH2 0x23DD JUMP JUMPDEST POP PUSH1 0x40 MLOAD PUSH4 0x871ADE43 PUSH1 0xE0 SHL DUP2 MSTORE PUSH1 0x1 PUSH1 0x1 PUSH1 0xA0 SHL SUB DUP12 AND SWAP1 PUSH4 0x871ADE43 SWAP1 PUSH2 0x2528 SWAP1 DUP8 SWAP1 DUP8 SWAP1 PUSH1 0x4 ADD PUSH2 0x48C5 JUMP JUMPDEST PUSH1 0x0 PUSH1 0x40 MLOAD DUP1 DUP4 SUB DUP2 DUP7 DUP1 EXTCODESIZE ISZERO DUP1 ISZERO PUSH2 0x2540 JUMPI PUSH1 0x0 DUP1 REVERT JUMPDEST POP GAS STATICCALL ISZERO DUP1 ISZERO PUSH2 0x2554 JUMPI RETURNDATASIZE PUSH1 0x0 DUP1 RETURNDATACOPY RETURNDATASIZE PUSH1 0x0 REVERT JUMPDEST POP POP POP POP PUSH1 0x40 MLOAD RETURNDATASIZE PUSH1 0x0 DUP3 RETURNDATACOPY PUSH1 0x1F RETURNDATASIZE SWAP1 DUP2 ADD PUSH1 0x1F NOT AND DUP3 ADD PUSH1 0x40 MSTORE PUSH2 0x257C SWAP2 SWAP1 DUP2 ADD SWAP1 PUSH2 0x448A JUMP JUMPDEST DUP8 MSTORE PUSH1 0x40 MLOAD PUSH4 0x76CF13AF PUSH1 0xE0 SHL DUP2 MSTORE PUSH1 0x1 PUSH1 0x1 PUSH1 0xA0 SHL SUB DUP12 AND SWAP1 PUSH4 0x76CF13AF SWAP1 PUSH2 0x25AC SWAP1 DUP6 SWAP1 DUP6 SWAP1 PUSH1 0x4 ADD PUSH2 0x48C5 JUMP JUMPDEST PUSH1 0x0 PUSH1 0x40 MLOAD DUP1 DUP4 SUB DUP2 DUP7 DUP1 EXTCODESIZE ISZERO DUP1 ISZERO PUSH2 0x25C4 JUMPI PUSH1 0x0 DUP1 REVERT JUMPDEST POP GAS STATICCALL ISZERO DUP1 ISZERO PUSH2 0x25D8 JUMPI RETURNDATASIZE PUSH1 0x0 DUP1 RETURNDATACOPY RETURNDATASIZE PUSH1 0x0 REVERT JUMPDEST POP POP POP POP PUSH1 0x40 MLOAD RETURNDATASIZE PUSH1 0x0 DUP3 RETURNDATACOPY PUSH1 0x1F RETURNDATASIZE SWAP1 DUP2 ADD PUSH1 0x1F NOT AND DUP3 ADD PUSH1 0x40 MSTORE PUSH2 0x2600 SWAP2 SWAP1 DUP2 ADD SWAP1 PUSH2 0x4365 JUMP JUMPDEST PUSH1 0x20 DUP9 ADD MSTORE POP SWAP5 SWAP9 SWAP8 POP POP POP POP POP POP POP POP JUMP JUMPDEST PUSH1 0x0 DUP1 PUSH1 0x0 JUMPDEST DUP4 MLOAD DUP2 LT ISZERO PUSH2 0x2822 JUMPI PUSH1 0x0 DUP5 DUP3 DUP2 MLOAD DUP2 LT PUSH2 0x2630 JUMPI INVALID JUMPDEST PUSH1 0x20 MUL PUSH1 0x20 ADD ADD MLOAD SWAP1 POP PUSH1 0x0 DUP2 PUSH1 0x60 ADD MLOAD PUSH1 0x1 PUSH1 0x1 PUSH1 0xA0 SHL SUB AND PUSH4 0x70A08231 ADDRESS PUSH1 0x40 MLOAD DUP3 PUSH4 0xFFFFFFFF AND PUSH1 0xE0 SHL DUP2 MSTORE PUSH1 0x4 ADD PUSH2 0x266C SWAP2 SWAP1 PUSH2 0x4818 JUMP JUMPDEST PUSH1 0x20 PUSH1 0x40 MLOAD DUP1 DUP4 SUB DUP2 DUP7 DUP1 EXTCODESIZE ISZERO DUP1 ISZERO PUSH2 0x2684 JUMPI PUSH1 0x0 DUP1 REVERT JUMPDEST POP GAS STATICCALL ISZERO DUP1 ISZERO PUSH2 0x2698 JUMPI RETURNDATASIZE PUSH1 0x0 DUP1 RETURNDATACOPY RETURNDATASIZE PUSH1 0x0 REVERT JUMPDEST POP POP POP POP PUSH1 0x40 MLOAD RETURNDATASIZE PUSH1 0x1F NOT PUSH1 0x1F DUP3 ADD AND DUP3 ADD DUP1 PUSH1 0x40 MSTORE POP DUP2 ADD SWAP1 PUSH2 0x26BC SWAP2 SWAP1 PUSH2 0x4789 JUMP JUMPDEST SWAP1 POP PUSH1 0x0 PUSH2 0x26CA DUP9 ADDRESS PUSH2 0x323E JUMP JUMPDEST SWAP1 POP PUSH1 0x0 JUMPDEST DUP4 MLOAD MLOAD DUP2 LT ISZERO PUSH2 0x2726 JUMPI PUSH2 0x2715 DUP5 PUSH1 0x0 ADD MLOAD DUP3 DUP2 MLOAD DUP2 LT PUSH2 0x26EC JUMPI INVALID JUMPDEST PUSH1 0x20 MUL PUSH1 0x20 ADD ADD MLOAD PUSH1 0x0 DUP7 PUSH1 0x20 ADD MLOAD DUP5 DUP2 MLOAD DUP2 LT PUSH2 0x2706 JUMPI INVALID JUMPDEST PUSH1 0x20 MUL PUSH1 0x20 ADD ADD MLOAD PUSH1 0x1 PUSH2 0x32EF JUMP JUMPDEST PUSH2 0x271E JUMPI PUSH1 0x1 SWAP7 POP JUMPDEST PUSH1 0x1 ADD PUSH2 0x26CF JUMP JUMPDEST POP PUSH1 0x0 PUSH2 0x2733 DUP10 ADDRESS PUSH2 0x323E JUMP JUMPDEST SWAP1 POP PUSH1 0x0 PUSH2 0x2741 DUP3 DUP5 PUSH2 0x141A JUMP JUMPDEST SWAP1 POP DUP1 DUP6 PUSH1 0x40 ADD MLOAD GT ISZERO PUSH2 0x2754 JUMPI PUSH1 0x0 DUP1 REVERT JUMPDEST PUSH1 0x60 DUP6 ADD MLOAD PUSH1 0x40 MLOAD PUSH4 0x70A08231 PUSH1 0xE0 SHL DUP2 MSTORE PUSH1 0x0 SWAP2 PUSH1 0x1 PUSH1 0x1 PUSH1 0xA0 SHL SUB AND SWAP1 PUSH4 0x70A08231 SWAP1 PUSH2 0x2787 SWAP1 ADDRESS SWAP1 PUSH1 0x4 ADD PUSH2 0x4818 JUMP JUMPDEST PUSH1 0x20 PUSH1 0x40 MLOAD DUP1 DUP4 SUB DUP2 DUP7 DUP1 EXTCODESIZE ISZERO DUP1 ISZERO PUSH2 0x279F JUMPI PUSH1 0x0 DUP1 REVERT JUMPDEST POP GAS STATICCALL ISZERO DUP1 ISZERO PUSH2 0x27B3 JUMPI RETURNDATASIZE PUSH1 0x0 DUP1 RETURNDATACOPY RETURNDATASIZE PUSH1 0x0 REVERT JUMPDEST POP POP POP POP PUSH1 0x40 MLOAD RETURNDATASIZE PUSH1 0x1F NOT PUSH1 0x1F DUP3 ADD AND DUP3 ADD DUP1 PUSH1 0x40 MSTORE POP DUP2 ADD SWAP1 PUSH2 0x27D7 SWAP2 SWAP1 PUSH2 0x4789 JUMP JUMPDEST SWAP1 POP DUP5 DUP2 GT ISZERO PUSH2 0x27E6 JUMPI PUSH1 0x0 DUP1 REVERT JUMPDEST PUSH2 0x27F5 DUP7 PUSH1 0x60 ADD MLOAD DUP7 DUP4 PUSH2 0x355D JUMP JUMPDEST PUSH2 0x27FF DUP9 DUP4 PUSH2 0x1083 JUMP JUMPDEST SWAP8 POP PUSH2 0x2810 DUP12 PUSH1 0x0 ADD MLOAD DUP6 DUP6 PUSH2 0x355D JUMP JUMPDEST POP POP PUSH1 0x1 SWAP1 SWAP5 ADD SWAP4 POP PUSH2 0x2619 SWAP3 POP POP POP JUMP JUMPDEST POP SWAP3 POP SWAP3 SWAP1 POP JUMP JUMPDEST PUSH1 0x0 DUP1 JUMPDEST DUP3 MLOAD DUP2 LT ISZERO PUSH2 0x2007 JUMPI PUSH1 0x0 DUP4 DUP3 DUP2 MLOAD DUP2 LT PUSH2 0x2845 JUMPI INVALID JUMPDEST PUSH1 0x20 MUL PUSH1 0x20 ADD ADD MLOAD SWAP1 POP PUSH1 0x0 DUP2 PUSH1 0x80 ADD MLOAD PUSH1 0x1 PUSH1 0x1 PUSH1 0xA0 SHL SUB AND PUSH4 0x70A08231 ADDRESS PUSH1 0x40 MLOAD DUP3 PUSH4 0xFFFFFFFF AND PUSH1 0xE0 SHL DUP2 MSTORE PUSH1 0x4 ADD PUSH2 0x2881 SWAP2 SWAP1 PUSH2 0x4818 JUMP JUMPDEST PUSH1 0x20 PUSH1 0x40 MLOAD DUP1 DUP4 SUB DUP2 DUP7 DUP1 EXTCODESIZE ISZERO DUP1 ISZERO PUSH2 0x2899 JUMPI PUSH1 0x0 DUP1 REVERT JUMPDEST POP GAS STATICCALL ISZERO DUP1 ISZERO PUSH2 0x28AD JUMPI RETURNDATASIZE PUSH1 0x0 DUP1 RETURNDATACOPY RETURNDATASIZE PUSH1 0x0 REVERT JUMPDEST POP POP POP POP PUSH1 0x40 MLOAD RETURNDATASIZE PUSH1 0x1F NOT PUSH1 0x1F DUP3 ADD AND DUP3 ADD DUP1 PUSH1 0x40 MSTORE POP DUP2 ADD SWAP1 PUSH2 0x28D1 SWAP2 SWAP1 PUSH2 0x4789 JUMP JUMPDEST SWAP1 POP PUSH1 0x0 PUSH2 0x28DF DUP8 ADDRESS PUSH2 0x323E JUMP JUMPDEST SWAP1 POP PUSH1 0x0 JUMPDEST DUP4 MLOAD MLOAD DUP2 LT ISZERO PUSH2 0x293A JUMPI PUSH2 0x2931 DUP5 PUSH1 0x0 ADD MLOAD DUP3 DUP2 MLOAD DUP2 LT PUSH2 0x2901 JUMPI INVALID JUMPDEST PUSH1 0x20 MUL PUSH1 0x20 ADD ADD MLOAD DUP6 PUSH1 0x40 ADD MLOAD DUP4 DUP2 MLOAD DUP2 LT PUSH2 0x2919 JUMPI INVALID JUMPDEST PUSH1 0x20 MUL PUSH1 0x20 ADD ADD MLOAD DUP7 PUSH1 0x20 ADD MLOAD DUP5 DUP2 MLOAD DUP2 LT PUSH2 0x2706 JUMPI INVALID JUMPDEST POP PUSH1 0x1 ADD PUSH2 0x28E4 JUMP JUMPDEST POP PUSH1 0x0 PUSH2 0x2947 DUP9 ADDRESS PUSH2 0x323E JUMP JUMPDEST SWAP1 POP PUSH1 0x0 PUSH2 0x2955 DUP4 DUP4 PUSH2 0x141A JUMP JUMPDEST SWAP1 POP DUP5 PUSH1 0x60 ADD MLOAD DUP2 GT ISZERO PUSH2 0x2968 JUMPI PUSH1 0x0 DUP1 REVERT JUMPDEST PUSH1 0x80 DUP6 ADD MLOAD PUSH1 0x40 MLOAD PUSH4 0x70A08231 PUSH1 0xE0 SHL DUP2 MSTORE PUSH1 0x0 SWAP2 PUSH1 0x1 PUSH1 0x1 PUSH1 0xA0 SHL SUB AND SWAP1 PUSH4 0x70A08231 SWAP1 PUSH2 0x299B SWAP1 ADDRESS SWAP1 PUSH1 0x4 ADD PUSH2 0x4818 JUMP JUMPDEST PUSH1 0x20 PUSH1 0x40 MLOAD DUP1 DUP4 SUB DUP2 DUP7 DUP1 EXTCODESIZE ISZERO DUP1 ISZERO PUSH2 0x29B3 JUMPI PUSH1 0x0 DUP1 REVERT JUMPDEST POP GAS STATICCALL ISZERO DUP1 ISZERO PUSH2 0x29C7 JUMPI RETURNDATASIZE PUSH1 0x0 DUP1 RETURNDATACOPY RETURNDATASIZE PUSH1 0x0 REVERT JUMPDEST POP POP POP POP PUSH1 0x40 MLOAD RETURNDATASIZE PUSH1 0x1F NOT PUSH1 0x1F DUP3 ADD AND DUP3 ADD DUP1 PUSH1 0x40 MSTORE POP DUP2 ADD SWAP1 PUSH2 0x29EB SWAP2 SWAP1 PUSH2 0x4789 JUMP JUMPDEST SWAP1 POP DUP1 DUP6 GT ISZERO PUSH2 0x29FA JUMPI PUSH1 0x0 DUP1 REVERT JUMPDEST PUSH2 0x2A09 DUP7 PUSH1 0x80 ADD MLOAD DUP7 DUP4 PUSH2 0x355D JUMP JUMPDEST PUSH2 0x2A13 DUP9 DUP4 PUSH2 0x1083 JUMP JUMPDEST SWAP8 POP PUSH2 0x2A24 DUP11 PUSH1 0x0 ADD MLOAD DUP6 DUP6 PUSH2 0x355D JUMP JUMPDEST POP POP PUSH1 0x1 SWAP1 SWAP5 ADD SWAP4 POP PUSH2 0x282E SWAP3 POP POP POP JUMP JUMPDEST PUSH1 0x0 DUP2 PUSH1 0x0 NOT EQ DUP1 ISZERO PUSH2 0x2A4C JUMPI POP PUSH1 0x1 PUSH1 0xFF SHL DUP4 EQ JUMPDEST ISZERO PUSH2 0x2A56 JUMPI PUSH1 0x0 DUP1 REVERT JUMPDEST DUP2 DUP4 DUP2 PUSH2 0x2A5F JUMPI INVALID JUMPDEST SDIV SWAP4 SWAP3 POP POP POP JUMP JUMPDEST PUSH1 0x0 PUSH5 0xFFFFFFFFFF DUP3 GT ISZERO PUSH2 0x10F3 JUMPI PUSH1 0x0 DUP1 REVERT JUMPDEST PUSH1 0x0 DUP1 PUSH2 0x107D PUSH1 0x1D PUSH2 0x14B1 JUMP JUMPDEST PUSH1 0x0 PUSH4 0xFFFFFFFF DUP3 GT ISZERO PUSH2 0x10F3 JUMPI PUSH1 0x0 DUP1 REVERT JUMPDEST PUSH1 0x0 DUP1 PUSH1 0x0 PUSH2 0x2AA9 DUP6 PUSH2 0x35DA JUMP JUMPDEST SWAP2 SWAP5 POP SWAP3 POP SWAP1 POP DUP1 DUP5 GT DUP1 ISZERO PUSH2 0x2ABF JUMPI POP PUSH1 0x0 DUP2 GT JUMPDEST DUP1 ISZERO PUSH2 0x2ACB JUMPI POP PUSH1 0x0 DUP4 GT JUMPDEST ISZERO PUSH2 0x2B2A JUMPI PUSH1 0x0 PUSH2 0x2ADB DUP7 PUSH2 0x3636 JUMP JUMPDEST POP POP POP SWAP2 POP POP PUSH1 0x0 PUSH2 0x2B06 PUSH2 0x2AFD PUSH4 0x5F5E100 DUP5 PUSH2 0x19B5 SWAP1 SWAP2 SWAP1 PUSH4 0xFFFFFFFF AND JUMP JUMPDEST DUP5 DUP9 SUB DUP8 PUSH2 0x36A2 JUMP JUMPDEST SWAP1 POP PUSH2 0x2B12 DUP5 DUP3 PUSH2 0x1083 JUMP JUMPDEST SWAP4 POP PUSH1 0x1 PUSH1 0x1 PUSH1 0x80 SHL SUB DUP5 LT PUSH2 0x2B27 JUMPI PUSH1 0x0 DUP1 REVERT JUMPDEST POP POP JUMPDEST SWAP3 POP SWAP3 POP SWAP3 JUMP JUMPDEST PUSH1 0x0 DUP1 PUSH2 0x107D PUSH1 0x11 PUSH2 0x14B1 JUMP JUMPDEST DUP2 DUP2 ADD DUP3 DUP2 SLT ISZERO PUSH1 0x0 DUP4 SLT ISZERO EQ PUSH2 0x107D JUMPI PUSH1 0x0 DUP1 REVERT JUMPDEST PUSH1 0x60 PUSH2 0x11B7 DUP5 DUP5 PUSH1 0x0 DUP6 PUSH2 0x36CA JUMP JUMPDEST PUSH2 0x2B6B PUSH2 0x4007 JUMP JUMPDEST PUSH1 0x0 PUSH2 0x2B75 PUSH2 0x2A7B JUMP JUMPDEST PUSH2 0xFFFF SWAP4 DUP5 AND PUSH1 0x0 SWAP1 DUP2 MSTORE PUSH1 0x20 SWAP2 DUP3 MSTORE PUSH1 0x40 SWAP1 DUP2 SWAP1 KECCAK256 DUP1 SLOAD PUSH5 0xFFFFFFFFFF DUP2 AND DUP7 MSTORE PUSH1 0x1 PUSH1 0x28 SHL DUP2 DIV PUSH1 0x1 PUSH1 0x1 PUSH1 0x58 SHL SUB SWAP1 DUP2 AND SWAP5 DUP8 ADD SWAP5 SWAP1 SWAP5 MSTORE PUSH1 0x1 DUP3 ADD SLOAD DUP5 AND SWAP3 DUP7 ADD SWAP3 SWAP1 SWAP3 MSTORE PUSH1 0x1 PUSH1 0xD8 SHL DUP3 DIV PUSH4 0xFFFFFFFF AND PUSH1 0x60 DUP7 ADD MSTORE PUSH1 0x1 PUSH1 0x80 SHL SWAP1 SWAP2 DIV SWAP1 SWAP2 AND PUSH1 0x80 DUP5 ADD MSTORE PUSH1 0x2 ADD SLOAD PUSH1 0x1 PUSH1 0x1 PUSH1 0x50 SHL SUB DUP1 DUP3 AND PUSH1 0xA0 DUP6 ADD MSTORE PUSH1 0x1 PUSH1 0x50 SHL DUP3 DIV DUP2 AND PUSH1 0xC0 DUP6 ADD MSTORE PUSH1 0x1 PUSH1 0xA0 SHL DUP3 DIV AND PUSH1 0xE0 DUP5 ADD MSTORE PUSH1 0x1 PUSH1 0xF0 SHL SWAP1 DIV PUSH1 0xFF AND PUSH2 0x12C MUL SWAP1 SWAP3 AND PUSH2 0x100 DUP3 ADD MSTORE SWAP2 SWAP1 POP JUMP JUMPDEST PUSH1 0x0 DUP1 PUSH2 0x2C37 DUP4 PUSH2 0x1040 JUMP JUMPDEST PUSH1 0x1 PUSH1 0x1 PUSH1 0xA0 SHL SUB AND PUSH4 0xEF81F216 PUSH1 0x40 MLOAD DUP2 PUSH4 0xFFFFFFFF AND PUSH1 0xE0 SHL DUP2 MSTORE PUSH1 0x4 ADD PUSH1 0x40 DUP1 MLOAD DUP1 DUP4 SUB DUP2 PUSH1 0x0 DUP8 DUP1 EXTCODESIZE ISZERO DUP1 ISZERO PUSH2 0x2C70 JUMPI PUSH1 0x0 DUP1 REVERT JUMPDEST POP GAS CALL ISZERO DUP1 ISZERO PUSH2 0x2C84 JUMPI RETURNDATASIZE PUSH1 0x0 DUP1 RETURNDATACOPY RETURNDATASIZE PUSH1 0x0 REVERT JUMPDEST POP POP POP POP PUSH1 0x40 MLOAD RETURNDATASIZE PUSH1 0x1F NOT PUSH1 0x1F DUP3 ADD AND DUP3 ADD DUP1 PUSH1 0x40 MSTORE POP DUP2 ADD SWAP1 PUSH2 0x11B7 SWAP2 SWAP1 PUSH2 0x47A1 JUMP JUMPDEST PUSH2 0x2CB0 PUSH2 0x4007 JUMP JUMPDEST PUSH1 0x0 DUP1 PUSH1 0x0 PUSH2 0x2CC0 DUP9 DUP7 DUP10 PUSH2 0x3825 JUMP JUMPDEST PUSH1 0xC0 DUP12 ADD SWAP3 SWAP1 SWAP3 MSTORE PUSH1 0xE0 DUP11 ADD SWAP3 SWAP1 SWAP3 MSTORE PUSH1 0x20 DUP10 ADD MLOAD SWAP2 SWAP4 POP SWAP2 POP PUSH2 0x2CE4 SWAP1 DUP4 PUSH2 0x1083 JUMP JUMPDEST PUSH1 0x20 DUP9 ADD MSTORE PUSH1 0x80 DUP8 ADD MLOAD PUSH1 0x0 SWAP1 ISZERO PUSH2 0x2D12 JUMPI PUSH1 0x80 DUP9 ADD MLOAD PUSH2 0x2D0F SWAP1 PUSH2 0x2D09 DUP10 DUP3 PUSH2 0x141A JUMP JUMPDEST SWAP1 PUSH2 0x3930 JUMP JUMPDEST SWAP1 POP JUMPDEST PUSH2 0x2D32 PUSH2 0x2D27 PUSH8 0xDE0B6B3A7640000 DUP4 PUSH2 0x1083 JUMP JUMPDEST PUSH1 0xA0 DUP11 ADD MLOAD SWAP1 PUSH2 0x394D JUMP JUMPDEST PUSH1 0xA0 DUP10 ADD MSTORE POP POP PUSH1 0x80 DUP7 ADD SWAP5 SWAP1 SWAP5 MSTORE POP POP DUP3 MSTORE SWAP1 SWAP3 SWAP1 SWAP2 POP JUMP JUMPDEST PUSH1 0x0 PUSH2 0x2D56 PUSH2 0x2A7B JUMP JUMPDEST PUSH1 0x0 DUP6 PUSH2 0xFFFF AND DUP2 MSTORE PUSH1 0x20 ADD SWAP1 DUP2 MSTORE PUSH1 0x20 ADD PUSH1 0x0 KECCAK256 SWAP1 POP PUSH2 0x2D7A DUP3 PUSH1 0x0 ADD MLOAD PUSH2 0x2A67 JUMP JUMPDEST DUP2 SLOAD PUSH5 0xFFFFFFFFFF NOT AND PUSH5 0xFFFFFFFFFF SWAP2 SWAP1 SWAP2 AND OR DUP2 SSTORE PUSH1 0xA0 DUP3 ADD MLOAD PUSH2 0x2D9F SWAP1 PUSH2 0x396A JUMP JUMPDEST PUSH1 0x2 DUP3 ADD DUP1 SLOAD PUSH10 0xFFFFFFFFFFFFFFFFFFFF NOT AND PUSH1 0x1 PUSH1 0x1 PUSH1 0x50 SHL SUB SWAP3 SWAP1 SWAP3 AND SWAP2 SWAP1 SWAP2 OR SWAP1 SSTORE PUSH1 0xC0 DUP3 ADD MLOAD PUSH2 0x2DD2 SWAP1 PUSH2 0x396A JUMP JUMPDEST DUP2 PUSH1 0x2 ADD PUSH1 0xA PUSH2 0x100 EXP DUP2 SLOAD DUP2 PUSH1 0x1 PUSH1 0x1 PUSH1 0x50 SHL SUB MUL NOT AND SWAP1 DUP4 PUSH1 0x1 PUSH1 0x1 PUSH1 0x50 SHL SUB AND MUL OR SWAP1 SSTORE POP PUSH2 0x2E07 DUP3 PUSH1 0xE0 ADD MLOAD PUSH2 0x396A JUMP JUMPDEST DUP2 PUSH1 0x2 ADD PUSH1 0x14 PUSH2 0x100 EXP DUP2 SLOAD DUP2 PUSH1 0x1 PUSH1 0x1 PUSH1 0x50 SHL SUB MUL NOT AND SWAP1 DUP4 PUSH1 0x1 PUSH1 0x1 PUSH1 0x50 SHL SUB AND MUL OR SWAP1 SSTORE POP PUSH2 0x2E3C DUP3 PUSH1 0x20 ADD MLOAD PUSH2 0x3980 JUMP JUMPDEST DUP2 SLOAD PUSH1 0x1 PUSH1 0x1 PUSH1 0x58 SHL SUB SWAP2 SWAP1 SWAP2 AND PUSH1 0x1 PUSH1 0x28 SHL MUL PUSH16 0xFFFFFFFFFFFFFFFFFFFFFF0000000000 NOT SWAP1 SWAP2 AND OR DUP2 SSTORE PUSH1 0x40 DUP3 ADD MLOAD PUSH2 0x2E76 SWAP1 PUSH2 0x3980 JUMP JUMPDEST PUSH1 0x1 DUP3 ADD DUP1 SLOAD PUSH11 0xFFFFFFFFFFFFFFFFFFFFFF NOT AND PUSH1 0x1 PUSH1 0x1 PUSH1 0x58 SHL SUB SWAP3 SWAP1 SWAP3 AND SWAP2 SWAP1 SWAP2 OR SWAP1 SSTORE PUSH1 0x80 DUP3 ADD MLOAD PUSH2 0x2EAA SWAP1 PUSH2 0x3980 JUMP JUMPDEST DUP2 SLOAD PUSH1 0x1 PUSH1 0x1 PUSH1 0x58 SHL SUB SWAP2 SWAP1 SWAP2 AND PUSH1 0x1 PUSH1 0x80 SHL MUL PUSH11 0xFFFFFFFFFFFFFFFFFFFFFF PUSH1 0x80 SHL NOT SWAP1 SWAP2 AND OR DUP2 SSTORE PUSH1 0x60 DUP3 ADD MLOAD PUSH2 0x2EE2 SWAP1 PUSH2 0x2A88 JUMP JUMPDEST DUP2 SLOAD PUSH4 0xFFFFFFFF SWAP2 SWAP1 SWAP2 AND PUSH1 0x1 PUSH1 0xD8 SHL MUL PUSH4 0xFFFFFFFF PUSH1 0xD8 SHL NOT SWAP1 SWAP2 AND OR DUP2 SSTORE DUP3 ISZERO PUSH2 0x2F2E JUMPI PUSH1 0x0 PUSH2 0x2F13 DUP5 PUSH2 0x10DD JUMP JUMPDEST SWAP1 POP PUSH2 0x2F1F DUP6 DUP3 PUSH2 0x3996 JUMP JUMPDEST PUSH2 0x2F2C PUSH2 0xFEE DUP7 DUP4 PUSH2 0x1554 JUMP JUMPDEST POP JUMPDEST DUP4 PUSH2 0xFFFF AND PUSH32 0xEF25641E225E493886510CA1AD6584FA7B442B9FEA820A29D1DE3CE27D270FD2 DUP4 PUSH1 0xA0 ADD MLOAD DUP5 PUSH1 0xC0 ADD MLOAD DUP6 PUSH1 0xE0 ADD MLOAD PUSH1 0x40 MLOAD PUSH2 0x4D5 SWAP4 SWAP3 SWAP2 SWAP1 PUSH2 0x4B22 JUMP JUMPDEST PUSH2 0x2F7A PUSH2 0x3FBE JUMP JUMPDEST PUSH1 0x0 PUSH2 0x2F84 PUSH2 0x39CD JUMP JUMPDEST PUSH1 0x0 DUP6 DUP2 MSTORE PUSH1 0x20 DUP3 DUP2 MSTORE PUSH1 0x40 DUP1 DUP4 KECCAK256 DUP8 ISZERO ISZERO DUP5 MSTORE DUP3 MSTORE SWAP2 DUP3 SWAP1 KECCAK256 DUP3 MLOAD PUSH1 0xA0 DUP2 ADD DUP5 MSTORE DUP2 SLOAD PUSH1 0x1 PUSH1 0x1 PUSH1 0xA0 SHL SUB DUP2 AND DUP3 MSTORE PUSH1 0xFF PUSH1 0x1 PUSH1 0xA0 SHL DUP3 DIV DUP2 AND ISZERO ISZERO SWAP5 DUP4 ADD SWAP5 SWAP1 SWAP5 MSTORE PUSH1 0x1 PUSH1 0xB0 SHL DUP2 DIV DUP5 AND PUSH1 0xA EXP SWAP5 DUP3 ADD SWAP5 SWAP1 SWAP5 MSTORE SWAP4 SWAP5 POP SWAP3 SWAP2 PUSH1 0x60 DUP4 ADD SWAP2 PUSH1 0x1 PUSH1 0xA8 SHL SWAP1 SWAP2 DIV AND PUSH1 0x5 DUP2 GT ISZERO PUSH2 0x2FF9 JUMPI INVALID JUMPDEST DUP2 MSTORE PUSH1 0x0 PUSH1 0x20 SWAP1 SWAP2 ADD MSTORE SWAP6 SWAP5 POP POP POP POP POP JUMP JUMPDEST PUSH1 0x0 DUP1 PUSH2 0x107D PUSH1 0x26 PUSH2 0x14B1 JUMP JUMPDEST PUSH1 0x0 PUSH2 0x3023 PUSH2 0x4053 JUMP JUMPDEST RETURNDATASIZE DUP1 ISZERO PUSH2 0x3037 JUMPI PUSH1 0x20 DUP2 EQ PUSH2 0x3040 JUMPI PUSH1 0x0 DUP1 REVERT JUMPDEST PUSH1 0x1 SWAP3 POP PUSH2 0x304B JUMP JUMPDEST PUSH1 0x20 PUSH1 0x0 DUP4 RETURNDATACOPY DUP2 MLOAD SWAP3 POP JUMPDEST POP DUP2 PUSH2 0x72A JUMPI PUSH1 0x40 DUP1 MLOAD PUSH3 0x461BCD PUSH1 0xE5 SHL DUP2 MSTORE PUSH1 0x20 PUSH1 0x4 DUP3 ADD MSTORE PUSH1 0x5 PUSH1 0x24 DUP3 ADD MSTORE PUSH5 0x455243323 PUSH1 0xDC SHL PUSH1 0x44 DUP3 ADD MSTORE SWAP1 MLOAD SWAP1 DUP2 SWAP1 SUB PUSH1 0x64 ADD SWAP1 REVERT JUMPDEST PUSH1 0x0 PUSH4 0x5F5E100 DUP4 PUSH1 0x40 ADD MLOAD EQ ISZERO PUSH2 0x309F JUMPI POP DUP1 PUSH2 0x107D JUMP JUMPDEST PUSH1 0x40 DUP4 ADD MLOAD PUSH2 0x1095 SWAP1 PUSH2 0x1982 DUP5 PUSH4 0x5F5E100 PUSH2 0x1D8C JUMP JUMPDEST DUP2 MLOAD PUSH1 0x0 SWAP1 PUSH2 0x1095 SWAP1 PUSH2 0x1982 DUP5 PUSH15 0xC097CE7BC90715B34B9F1000000000 PUSH2 0x1D8C JUMP JUMPDEST PUSH1 0x0 PUSH2 0x30E2 PUSH2 0x2A7B JUMP JUMPDEST PUSH2 0xFFFF DUP6 AND PUSH1 0x0 SWAP1 DUP2 MSTORE PUSH1 0x20 SWAP2 SWAP1 SWAP2 MSTORE PUSH1 0x40 SWAP1 KECCAK256 DUP1 SLOAD SWAP1 SWAP2 POP PUSH5 0xFFFFFFFFFF AND TIMESTAMP EQ PUSH2 0x310D JUMPI PUSH1 0x0 DUP1 REVERT JUMPDEST DUP1 SLOAD PUSH1 0x0 SWAP1 PUSH2 0x312C SWAP1 PUSH1 0x1 PUSH1 0x28 SHL SWAP1 DIV PUSH1 0x1 PUSH1 0x1 PUSH1 0x58 SHL SUB AND DUP6 PUSH2 0x2B3E JUMP JUMPDEST DUP3 SLOAD SWAP1 SWAP2 POP PUSH1 0x0 SWAP1 PUSH2 0x314E SWAP1 PUSH1 0x1 PUSH1 0x80 SHL SWAP1 DIV PUSH1 0x1 PUSH1 0x1 PUSH1 0x58 SHL SUB AND DUP6 PUSH2 0x2B3E JUMP JUMPDEST SWAP1 POP DUP1 PUSH3 0x4C4B40 SGT ISZERO PUSH2 0x3160 JUMPI PUSH1 0x0 DUP1 REVERT JUMPDEST PUSH2 0x3171 PUSH2 0x316C DUP3 PUSH2 0x19A6 JUMP JUMPDEST PUSH2 0x3980 JUMP JUMPDEST DUP4 SLOAD PUSH1 0x1 PUSH1 0x1 PUSH1 0x58 SHL SUB SWAP2 SWAP1 SWAP2 AND PUSH1 0x1 PUSH1 0x80 SHL MUL PUSH11 0xFFFFFFFFFFFFFFFFFFFFFF PUSH1 0x80 SHL NOT SWAP1 SWAP2 AND OR DUP4 SSTORE PUSH2 0x31A7 PUSH2 0x316C DUP4 PUSH2 0x19A6 JUMP JUMPDEST DUP4 SLOAD PUSH1 0x1 PUSH1 0x1 PUSH1 0x58 SHL SUB SWAP2 SWAP1 SWAP2 AND PUSH1 0x1 PUSH1 0x28 SHL MUL PUSH16 0xFFFFFFFFFFFFFFFFFFFFFF0000000000 NOT SWAP1 SWAP2 AND OR DUP4 SSTORE PUSH2 0x31DC DUP4 PUSH2 0x39DA JUMP JUMPDEST POP POP POP POP POP POP JUMP JUMPDEST PUSH1 0x0 PUSH2 0x31EE PUSH2 0x300C JUMP JUMPDEST PUSH1 0x1 PUSH1 0x1 PUSH1 0xA0 SHL SUB DUP5 AND PUSH1 0x0 SWAP1 DUP2 MSTORE PUSH1 0x20 DUP3 SWAP1 MSTORE PUSH1 0x40 SWAP1 KECCAK256 SLOAD SWAP1 SWAP2 POP PUSH2 0x321C PUSH2 0x3217 DUP3 DUP6 PUSH2 0x2B3E JUMP JUMPDEST PUSH2 0x19A6 JUMP JUMPDEST PUSH1 0x1 PUSH1 0x1 PUSH1 0xA0 SHL SUB SWAP1 SWAP5 AND PUSH1 0x0 SWAP1 DUP2 MSTORE PUSH1 0x20 SWAP3 SWAP1 SWAP3 MSTORE POP PUSH1 0x40 SWAP1 KECCAK256 SWAP2 SWAP1 SWAP2 SSTORE POP JUMP JUMPDEST PUSH1 0x0 PUSH1 0x3 DUP4 PUSH1 0x60 ADD MLOAD PUSH1 0x5 DUP2 GT ISZERO PUSH2 0x3252 JUMPI INVALID JUMPDEST EQ ISZERO PUSH2 0x3269 JUMPI POP PUSH1 0x1 PUSH1 0x1 PUSH1 0xA0 SHL SUB DUP2 AND BALANCE PUSH2 0x107D JUMP JUMPDEST DUP3 MLOAD PUSH1 0x40 MLOAD PUSH4 0x70A08231 PUSH1 0xE0 SHL DUP2 MSTORE PUSH1 0x1 PUSH1 0x1 PUSH1 0xA0 SHL SUB SWAP1 SWAP2 AND SWAP1 PUSH4 0x70A08231 SWAP1 PUSH2 0x3298 SWAP1 DUP6 SWAP1 PUSH1 0x4 ADD PUSH2 0x4818 JUMP JUMPDEST PUSH1 0x20 PUSH1 0x40 MLOAD DUP1 DUP4 SUB DUP2 DUP7 DUP1 EXTCODESIZE ISZERO DUP1 ISZERO PUSH2 0x32B0 JUMPI PUSH1 0x0 DUP1 REVERT JUMPDEST POP GAS STATICCALL ISZERO DUP1 ISZERO PUSH2 0x32C4 JUMPI RETURNDATASIZE PUSH1 0x0 DUP1 RETURNDATACOPY RETURNDATASIZE PUSH1 0x0 REVERT JUMPDEST POP POP POP POP PUSH1 0x40 MLOAD RETURNDATASIZE PUSH1 0x1F NOT PUSH1 0x1F DUP3 ADD AND DUP3 ADD DUP1 PUSH1 0x40 MSTORE POP DUP2 ADD SWAP1 PUSH2 0x32E8 SWAP2 SWAP1 PUSH2 0x4789 JUMP JUMPDEST SWAP1 POP PUSH2 0x107D JUMP JUMPDEST PUSH1 0x0 DUP1 PUSH1 0x0 DUP7 PUSH1 0x1 PUSH1 0x1 PUSH1 0xA0 SHL SUB AND DUP7 DUP7 PUSH1 0x40 MLOAD DUP1 DUP3 DUP1 MLOAD SWAP1 PUSH1 0x20 ADD SWAP1 DUP1 DUP4 DUP4 JUMPDEST PUSH1 0x20 DUP4 LT PUSH2 0x332F JUMPI DUP1 MLOAD DUP3 MSTORE PUSH1 0x1F NOT SWAP1 SWAP3 ADD SWAP2 PUSH1 0x20 SWAP2 DUP3 ADD SWAP2 ADD PUSH2 0x3310 JUMP JUMPDEST PUSH1 0x1 DUP4 PUSH1 0x20 SUB PUSH2 0x100 EXP SUB DUP1 NOT DUP3 MLOAD AND DUP2 DUP5 MLOAD AND DUP1 DUP3 OR DUP6 MSTORE POP POP POP POP POP POP SWAP1 POP ADD SWAP2 POP POP PUSH1 0x0 PUSH1 0x40 MLOAD DUP1 DUP4 SUB DUP2 DUP6 DUP8 GAS CALL SWAP3 POP POP POP RETURNDATASIZE DUP1 PUSH1 0x0 DUP2 EQ PUSH2 0x3391 JUMPI PUSH1 0x40 MLOAD SWAP2 POP PUSH1 0x1F NOT PUSH1 0x3F RETURNDATASIZE ADD AND DUP3 ADD PUSH1 0x40 MSTORE RETURNDATASIZE DUP3 MSTORE RETURNDATASIZE PUSH1 0x0 PUSH1 0x20 DUP5 ADD RETURNDATACOPY PUSH2 0x3396 JUMP JUMPDEST PUSH1 0x60 SWAP2 POP JUMPDEST POP SWAP2 POP SWAP2 POP DUP4 PUSH2 0x3439 JUMPI DUP2 PUSH2 0x33AA DUP3 PUSH2 0x3A9F JUMP JUMPDEST SWAP1 PUSH2 0x3433 JUMPI PUSH1 0x40 MLOAD PUSH3 0x461BCD PUSH1 0xE5 SHL DUP2 MSTORE PUSH1 0x4 ADD DUP1 DUP1 PUSH1 0x20 ADD DUP3 DUP2 SUB DUP3 MSTORE DUP4 DUP2 DUP2 MLOAD DUP2 MSTORE PUSH1 0x20 ADD SWAP2 POP DUP1 MLOAD SWAP1 PUSH1 0x20 ADD SWAP1 DUP1 DUP4 DUP4 PUSH1 0x0 JUMPDEST DUP4 DUP2 LT ISZERO PUSH2 0x33F8 JUMPI DUP2 DUP2 ADD MLOAD DUP4 DUP3 ADD MSTORE PUSH1 0x20 ADD PUSH2 0x33E0 JUMP JUMPDEST POP POP POP POP SWAP1 POP SWAP1 DUP2 ADD SWAP1 PUSH1 0x1F AND DUP1 ISZERO PUSH2 0x3425 JUMPI DUP1 DUP3 SUB DUP1 MLOAD PUSH1 0x1 DUP4 PUSH1 0x20 SUB PUSH2 0x100 EXP SUB NOT AND DUP2 MSTORE PUSH1 0x20 ADD SWAP2 POP JUMPDEST POP SWAP3 POP POP POP PUSH1 0x40 MLOAD DUP1 SWAP2 SUB SWAP1 REVERT JUMPDEST POP PUSH2 0x20C1 JUMP JUMPDEST DUP7 PUSH1 0x1 PUSH1 0x1 PUSH1 0xA0 SHL SUB AND PUSH32 0x3C7E398C5E91088CAE639370E35B25EA669D81FBDF0DEF5388E73661BC34E08E DUP8 DUP8 PUSH2 0x346F DUP6 PUSH2 0x3A9F JUMP JUMPDEST PUSH1 0x40 MLOAD DUP1 DUP5 DUP2 MSTORE PUSH1 0x20 ADD DUP1 PUSH1 0x20 ADD DUP1 PUSH1 0x20 ADD DUP4 DUP2 SUB DUP4 MSTORE DUP6 DUP2 DUP2 MLOAD DUP2 MSTORE PUSH1 0x20 ADD SWAP2 POP DUP1 MLOAD SWAP1 PUSH1 0x20 ADD SWAP1 DUP1 DUP4 DUP4 PUSH1 0x0 JUMPDEST DUP4 DUP2 LT ISZERO PUSH2 0x34B6 JUMPI DUP2 DUP2 ADD MLOAD DUP4 DUP3 ADD MSTORE PUSH1 0x20 ADD PUSH2 0x349E JUMP JUMPDEST POP POP POP POP SWAP1 POP SWAP1 DUP2 ADD SWAP1 PUSH1 0x1F AND DUP1 ISZERO PUSH2 0x34E3 JUMPI DUP1 DUP3 SUB DUP1 MLOAD PUSH1 0x1 DUP4 PUSH1 0x20 SUB PUSH2 0x100 EXP SUB NOT AND DUP2 MSTORE PUSH1 0x20 ADD SWAP2 POP JUMPDEST POP DUP4 DUP2 SUB DUP3 MSTORE DUP5 MLOAD DUP2 MSTORE DUP5 MLOAD PUSH1 0x20 SWAP2 DUP3 ADD SWAP2 DUP7 ADD SWAP1 DUP1 DUP4 DUP4 PUSH1 0x0 JUMPDEST DUP4 DUP2 LT ISZERO PUSH2 0x3516 JUMPI DUP2 DUP2 ADD MLOAD DUP4 DUP3 ADD MSTORE PUSH1 0x20 ADD PUSH2 0x34FE JUMP JUMPDEST POP POP POP POP SWAP1 POP SWAP1 DUP2 ADD SWAP1 PUSH1 0x1F AND DUP1 ISZERO PUSH2 0x3543 JUMPI DUP1 DUP3 SUB DUP1 MLOAD PUSH1 0x1 DUP4 PUSH1 0x20 SUB PUSH2 0x100 EXP SUB NOT AND DUP2 MSTORE PUSH1 0x20 ADD SWAP2 POP JUMPDEST POP SWAP6 POP POP POP POP POP POP PUSH1 0x40 MLOAD DUP1 SWAP2 SUB SWAP1 LOG2 POP SWAP6 SWAP5 POP POP POP POP POP JUMP JUMPDEST PUSH1 0x0 PUSH2 0x3567 PUSH2 0x300C JUMP JUMPDEST PUSH1 0x1 PUSH1 0x1 PUSH1 0xA0 SHL SUB DUP6 AND PUSH1 0x0 SWAP1 DUP2 MSTORE PUSH1 0x20 DUP3 SWAP1 MSTORE PUSH1 0x40 SWAP1 KECCAK256 SLOAD SWAP1 SWAP2 POP DUP4 DUP2 GT ISZERO PUSH2 0x3590 JUMPI PUSH1 0x0 DUP1 REVERT JUMPDEST PUSH1 0x0 PUSH2 0x35A7 PUSH2 0x359E DUP7 PUSH2 0x10DD JUMP JUMPDEST PUSH2 0x1955 DUP7 PUSH2 0x10DD JUMP JUMPDEST SWAP1 POP PUSH2 0x35B6 PUSH2 0x3217 DUP4 DUP4 PUSH2 0x2B3E JUMP JUMPDEST PUSH1 0x1 PUSH1 0x1 PUSH1 0xA0 SHL SUB SWAP1 SWAP7 AND PUSH1 0x0 SWAP1 DUP2 MSTORE PUSH1 0x20 SWAP4 SWAP1 SWAP4 MSTORE POP POP PUSH1 0x40 SWAP1 KECCAK256 SWAP3 SWAP1 SWAP3 SSTORE POP POP JUMP JUMPDEST PUSH1 0x0 DUP1 PUSH1 0x0 DUP1 PUSH2 0x35E8 PUSH2 0x2B31 JUMP JUMPDEST PUSH1 0x1 PUSH1 0x1 PUSH1 0xA0 SHL SUB SWAP6 SWAP1 SWAP6 AND PUSH1 0x0 SWAP1 DUP2 MSTORE PUSH1 0x20 SWAP6 SWAP1 SWAP6 MSTORE POP POP PUSH1 0x40 SWAP1 SWAP3 KECCAK256 SLOAD PUSH1 0x1 PUSH1 0x1 PUSH1 0x60 SHL SUB DUP2 AND SWAP4 PUSH1 0x1 PUSH1 0x60 SHL DUP3 DIV PUSH1 0x1 PUSH1 0x1 PUSH1 0x80 SHL SUB AND SWAP4 POP PUSH1 0x1 PUSH1 0xE0 SHL SWAP1 SWAP2 DIV PUSH4 0xFFFFFFFF AND SWAP2 POP JUMP JUMPDEST PUSH1 0x0 DUP1 PUSH1 0x0 DUP1 PUSH1 0x0 DUP1 PUSH2 0x3647 PUSH2 0x148E JUMP JUMPDEST PUSH1 0x1 PUSH1 0x1 PUSH1 0xA0 SHL SUB SWAP1 SWAP8 AND PUSH1 0x0 SWAP1 DUP2 MSTORE PUSH1 0x20 SWAP8 SWAP1 SWAP8 MSTORE POP POP PUSH1 0x40 SWAP1 SWAP5 KECCAK256 SLOAD PUSH2 0xFFFF DUP2 AND SWAP6 PUSH4 0xFFFFFFFF PUSH3 0x10000 DUP4 DIV DUP2 AND SWAP7 POP PUSH7 0x1000000000000 DUP4 DIV AND SWAP5 POP PUSH1 0xFF PUSH1 0x1 PUSH1 0x50 SHL DUP4 DIV AND SWAP4 POP PUSH1 0x1 PUSH1 0x58 SHL SWAP1 SWAP2 DIV PUSH1 0xD0 SHL SWAP2 POP JUMP JUMPDEST PUSH1 0x0 PUSH2 0x11B7 DUP3 PUSH2 0x1318 PUSH4 0x1DA9C00 DUP2 DUP9 PUSH2 0x36C4 DUP10 PUSH8 0xDE0B6B3A7640000 PUSH2 0x19B5 JUMP JUMPDEST SWAP1 PUSH2 0x19B5 JUMP JUMPDEST PUSH1 0x60 DUP3 SELFBALANCE LT ISZERO PUSH2 0x370B JUMPI PUSH1 0x40 MLOAD PUSH3 0x461BCD PUSH1 0xE5 SHL DUP2 MSTORE PUSH1 0x4 ADD DUP1 DUP1 PUSH1 0x20 ADD DUP3 DUP2 SUB DUP3 MSTORE PUSH1 0x26 DUP2 MSTORE PUSH1 0x20 ADD DUP1 PUSH2 0x4B9E PUSH1 0x26 SWAP2 CODECOPY PUSH1 0x40 ADD SWAP2 POP POP PUSH1 0x40 MLOAD DUP1 SWAP2 SUB SWAP1 REVERT JUMPDEST PUSH2 0x3714 DUP6 PUSH2 0x3BA4 JUMP JUMPDEST PUSH2 0x3765 JUMPI PUSH1 0x40 DUP1 MLOAD PUSH3 0x461BCD PUSH1 0xE5 SHL DUP2 MSTORE PUSH1 0x20 PUSH1 0x4 DUP3 ADD MSTORE PUSH1 0x1D PUSH1 0x24 DUP3 ADD MSTORE PUSH32 0x416464726573733A2063616C6C20746F206E6F6E2D636F6E7472616374000000 PUSH1 0x44 DUP3 ADD MSTORE SWAP1 MLOAD SWAP1 DUP2 SWAP1 SUB PUSH1 0x64 ADD SWAP1 REVERT JUMPDEST PUSH1 0x0 DUP1 DUP7 PUSH1 0x1 PUSH1 0x1 PUSH1 0xA0 SHL SUB AND DUP6 DUP8 PUSH1 0x40 MLOAD DUP1 DUP3 DUP1 MLOAD SWAP1 PUSH1 0x20 ADD SWAP1 DUP1 DUP4 DUP4 JUMPDEST PUSH1 0x20 DUP4 LT PUSH2 0x37A3 JUMPI DUP1 MLOAD DUP3 MSTORE PUSH1 0x1F NOT SWAP1 SWAP3 ADD SWAP2 PUSH1 0x20 SWAP2 DUP3 ADD SWAP2 ADD PUSH2 0x3784 JUMP JUMPDEST PUSH1 0x1 DUP4 PUSH1 0x20 SUB PUSH2 0x100 EXP SUB DUP1 NOT DUP3 MLOAD AND DUP2 DUP5 MLOAD AND DUP1 DUP3 OR DUP6 MSTORE POP POP POP POP POP POP SWAP1 POP ADD SWAP2 POP POP PUSH1 0x0 PUSH1 0x40 MLOAD DUP1 DUP4 SUB DUP2 DUP6 DUP8 GAS CALL SWAP3 POP POP POP RETURNDATASIZE DUP1 PUSH1 0x0 DUP2 EQ PUSH2 0x3805 JUMPI PUSH1 0x40 MLOAD SWAP2 POP PUSH1 0x1F NOT PUSH1 0x3F RETURNDATASIZE ADD AND DUP3 ADD PUSH1 0x40 MSTORE RETURNDATASIZE DUP3 MSTORE RETURNDATASIZE PUSH1 0x0 PUSH1 0x20 DUP5 ADD RETURNDATACOPY PUSH2 0x380A JUMP JUMPDEST PUSH1 0x60 SWAP2 POP JUMPDEST POP SWAP2 POP SWAP2 POP PUSH2 0x381A DUP3 DUP3 DUP7 PUSH2 0x3BAA JUMP JUMPDEST SWAP8 SWAP7 POP POP POP POP POP POP POP JUMP JUMPDEST PUSH1 0x0 DUP1 PUSH1 0x0 DUP1 PUSH1 0x0 DUP1 PUSH2 0x3838 DUP10 DUP9 PUSH2 0x3C10 JUMP JUMPDEST DUP10 MLOAD SWAP1 SWAP6 POP SWAP2 SWAP4 POP SWAP2 POP PUSH1 0x0 SWAP1 PUSH2 0x385F SWAP1 PUSH2 0x3854 SWAP1 DUP12 SWAP1 PUSH2 0x141A JUMP JUMPDEST PUSH4 0x3B9ACA00 SWAP1 PUSH2 0x19B5 JUMP JUMPDEST SWAP1 POP PUSH2 0x3899 PUSH2 0x388E PUSH4 0x1DA9C00 PUSH2 0x3876 DUP6 DUP6 PUSH2 0x19B5 JUMP JUMPDEST DUP2 PUSH2 0x387D JUMPI INVALID JUMPDEST PUSH8 0xDE0B6B3A7640000 SWAP2 SWAP1 DIV PUSH2 0x1083 JUMP JUMPDEST PUSH1 0xE0 DUP11 ADD MLOAD SWAP1 PUSH2 0x394D JUMP JUMPDEST SWAP7 POP PUSH2 0x38BB PUSH2 0x38B0 PUSH4 0x1DA9C00 PUSH2 0x3876 DUP8 DUP6 PUSH2 0x19B5 JUMP JUMPDEST PUSH1 0xC0 DUP11 ADD MLOAD SWAP1 PUSH2 0x394D JUMP JUMPDEST SWAP6 POP DUP2 DUP4 EQ ISZERO PUSH2 0x38D2 JUMPI POP PUSH1 0x0 SWAP4 POP PUSH2 0x3927 SWAP2 POP POP JUMP JUMPDEST PUSH1 0x0 PUSH2 0x38F4 PUSH2 0x38E9 PUSH4 0x1DA9C00 PUSH2 0x3876 DUP8 DUP7 PUSH2 0x19B5 JUMP JUMPDEST PUSH1 0xE0 DUP12 ADD MLOAD SWAP1 PUSH2 0x394D JUMP JUMPDEST SWAP1 POP PUSH1 0x0 PUSH2 0x3902 DUP10 DUP4 PUSH2 0x141A JUMP JUMPDEST SWAP1 POP PUSH2 0x391F DUP9 PUSH2 0x1318 DUP4 DUP14 PUSH1 0x40 ADD MLOAD PUSH2 0x19B5 SWAP1 SWAP2 SWAP1 PUSH4 0xFFFFFFFF AND JUMP JUMPDEST SWAP7 POP POP POP POP POP POP JUMPDEST SWAP4 POP SWAP4 POP SWAP4 POP SWAP4 JUMP JUMPDEST PUSH1 0x0 PUSH2 0x1095 PUSH2 0x3947 DUP5 PUSH8 0xDE0B6B3A7640000 PUSH2 0x19B5 JUMP JUMPDEST DUP4 PUSH2 0x19DC JUMP JUMPDEST PUSH1 0x0 PUSH2 0x1095 PUSH2 0x395C DUP5 DUP5 PUSH2 0x19B5 JUMP JUMPDEST PUSH8 0xDE0B6B3A7640000 PUSH2 0x19DC JUMP JUMPDEST PUSH1 0x0 PUSH1 0x1 PUSH1 0x1 PUSH1 0x50 SHL SUB DUP3 GT ISZERO PUSH2 0x10F3 JUMPI PUSH1 0x0 DUP1 REVERT JUMPDEST PUSH1 0x0 PUSH1 0x1 PUSH1 0x1 PUSH1 0x58 SHL SUB DUP3 GT ISZERO PUSH2 0x10F3 JUMPI PUSH1 0x0 DUP1 REVERT JUMPDEST PUSH1 0x0 DUP2 SLT ISZERO PUSH2 0x39A4 JUMPI PUSH1 0x0 DUP1 REVERT JUMPDEST PUSH1 0x0 PUSH2 0x39B2 PUSH2 0xFEE DUP5 PUSH2 0x10F7 JUMP JUMPDEST SWAP1 POP PUSH2 0x39BE DUP2 DUP4 PUSH2 0x2B3E JUMP JUMPDEST SWAP1 POP PUSH2 0xA3E PUSH2 0xFEE DUP5 DUP4 PUSH2 0x14CA JUMP JUMPDEST PUSH1 0x0 DUP1 PUSH2 0x107D PUSH1 0x7 PUSH2 0x14B1 JUMP JUMPDEST DUP1 SLOAD PUSH1 0x2 DUP3 ADD SLOAD PUSH1 0x0 SWAP2 PUSH2 0x3A16 SWAP2 PUSH1 0x1 PUSH1 0x28 SHL SWAP1 SWAP2 DIV PUSH1 0x1 PUSH1 0x1 PUSH1 0x58 SHL SUB AND SWAP1 PUSH2 0x197C SWAP1 PUSH1 0x1 PUSH1 0x1 PUSH1 0x50 SHL SUB PUSH1 0x1 PUSH1 0x50 SHL DUP3 DIV DUP2 AND SWAP2 AND PUSH2 0x1D8C JUMP JUMPDEST PUSH1 0x1 DUP4 ADD SLOAD PUSH1 0x2 DUP5 ADD SLOAD SWAP2 SWAP3 POP PUSH1 0x0 SWAP2 PUSH2 0x3A50 SWAP2 PUSH1 0x1 PUSH1 0x1 PUSH1 0x58 SHL SUB AND SWAP1 PUSH2 0x197C SWAP1 PUSH1 0x1 PUSH1 0x1 PUSH1 0x50 SHL SUB PUSH1 0x1 PUSH1 0xA0 SHL DUP3 DIV DUP2 AND SWAP2 AND PUSH2 0x1D8C JUMP JUMPDEST DUP4 SLOAD SWAP1 SWAP2 POP PUSH1 0x0 SWAP1 PUSH2 0x3A87 SWAP1 PUSH1 0x1 PUSH1 0x1 PUSH1 0x1 PUSH1 0x58 SHL SUB PUSH1 0x1 PUSH1 0x80 SHL SWAP1 SWAP3 DIV DUP3 AND ADD AND PUSH15 0xC097CE7BC90715B34B9F1000000000 PUSH2 0x1D8C JUMP JUMPDEST SWAP1 POP DUP1 PUSH2 0x3A94 DUP5 DUP5 PUSH2 0x153E JUMP JUMPDEST SGT ISZERO PUSH2 0x2007 JUMPI PUSH1 0x0 DUP1 REVERT JUMPDEST PUSH1 0x60 PUSH1 0x44 DUP3 MLOAD LT ISZERO PUSH2 0x3AD5 JUMPI POP PUSH1 0x40 DUP1 MLOAD DUP1 DUP3 ADD SWAP1 SWAP2 MSTORE PUSH1 0xD DUP2 MSTORE PUSH13 0x14DA5B195B9D0814995D995C9D PUSH1 0x9A SHL PUSH1 0x20 DUP3 ADD MSTORE PUSH2 0xF26 JUMP JUMPDEST PUSH1 0x4 DUP3 ADD DUP1 MLOAD SWAP1 SWAP3 PUSH1 0x24 ADD SWAP1 PUSH1 0x20 DUP2 LT ISZERO PUSH2 0x3AEF JUMPI PUSH1 0x0 DUP1 REVERT JUMPDEST DUP2 ADD SWAP1 DUP1 DUP1 MLOAD PUSH1 0x40 MLOAD SWAP4 SWAP3 SWAP2 SWAP1 DUP5 PUSH1 0x1 PUSH1 0x20 SHL DUP3 GT ISZERO PUSH2 0x3B0E JUMPI PUSH1 0x0 DUP1 REVERT JUMPDEST SWAP1 DUP4 ADD SWAP1 PUSH1 0x20 DUP3 ADD DUP6 DUP2 GT ISZERO PUSH2 0x3B23 JUMPI PUSH1 0x0 DUP1 REVERT JUMPDEST DUP3 MLOAD PUSH1 0x1 PUSH1 0x20 SHL DUP2 GT DUP3 DUP3 ADD DUP9 LT OR ISZERO PUSH2 0x3B3C JUMPI PUSH1 0x0 DUP1 REVERT JUMPDEST DUP3 MSTORE POP DUP2 MLOAD PUSH1 0x20 SWAP2 DUP3 ADD SWAP3 SWAP1 SWAP2 ADD SWAP1 DUP1 DUP4 DUP4 PUSH1 0x0 JUMPDEST DUP4 DUP2 LT ISZERO PUSH2 0x3B69 JUMPI DUP2 DUP2 ADD MLOAD DUP4 DUP3 ADD MSTORE PUSH1 0x20 ADD PUSH2 0x3B51 JUMP JUMPDEST POP POP POP POP SWAP1 POP SWAP1 DUP2 ADD SWAP1 PUSH1 0x1F AND DUP1 ISZERO PUSH2 0x3B96 JUMPI DUP1 DUP3 SUB DUP1 MLOAD PUSH1 0x1 DUP4 PUSH1 0x20 SUB PUSH2 0x100 EXP SUB NOT AND DUP2 MSTORE PUSH1 0x20 ADD SWAP2 POP JUMPDEST POP PUSH1 0x40 MSTORE POP POP POP SWAP1 POP SWAP2 SWAP1 POP JUMP JUMPDEST EXTCODESIZE ISZERO ISZERO SWAP1 JUMP JUMPDEST PUSH1 0x60 DUP4 ISZERO PUSH2 0x3BB9 JUMPI POP DUP2 PUSH2 0x1095 JUMP JUMPDEST DUP3 MLOAD ISZERO PUSH2 0x3BC9 JUMPI DUP3 MLOAD DUP1 DUP5 PUSH1 0x20 ADD REVERT JUMPDEST PUSH1 0x40 MLOAD PUSH3 0x461BCD PUSH1 0xE5 SHL DUP2 MSTORE PUSH1 0x20 PUSH1 0x4 DUP3 ADD DUP2 DUP2 MSTORE DUP5 MLOAD PUSH1 0x24 DUP5 ADD MSTORE DUP5 MLOAD DUP6 SWAP4 SWAP2 SWAP3 DUP4 SWAP3 PUSH1 0x44 ADD SWAP2 SWAP1 DUP6 ADD SWAP1 DUP1 DUP4 DUP4 PUSH1 0x0 DUP4 ISZERO PUSH2 0x33F8 JUMPI DUP2 DUP2 ADD MLOAD DUP4 DUP3 ADD MSTORE PUSH1 0x20 ADD PUSH2 0x33E0 JUMP JUMPDEST PUSH1 0x0 DUP1 PUSH1 0x0 DUP1 PUSH1 0x0 DUP6 PUSH1 0x20 ADD MLOAD GT ISZERO PUSH2 0x3C5D JUMPI PUSH2 0x3C5A PUSH2 0x3C41 DUP7 PUSH1 0xC0 ADD MLOAD DUP8 PUSH1 0x20 ADD MLOAD PUSH2 0x19B5 SWAP1 SWAP2 SWAP1 PUSH4 0xFFFFFFFF AND JUMP JUMPDEST PUSH1 0xE0 DUP8 ADD MLOAD PUSH1 0x40 DUP9 ADD MLOAD PUSH2 0x3C54 SWAP2 PUSH2 0x19B5 JUMP JUMPDEST SWAP1 PUSH2 0x3CAA JUMP JUMPDEST SWAP1 POP JUMPDEST PUSH1 0x0 PUSH2 0x3C68 DUP8 PUSH2 0x3CBD JUMP JUMPDEST SWAP1 POP PUSH2 0x3C74 DUP2 DUP4 PUSH2 0x3CF0 JUMP JUMPDEST SWAP5 POP DUP2 ISZERO PUSH2 0x3C8B JUMPI PUSH2 0x3C88 DUP2 DUP7 PUSH1 0x1 PUSH2 0x3DA9 JUMP JUMPDEST SWAP4 POP JUMPDEST PUSH1 0x20 DUP7 ADD MLOAD ISZERO PUSH2 0x2B27 JUMPI PUSH2 0x3C9F DUP6 DUP4 PUSH2 0x3E24 JUMP JUMPDEST SWAP3 POP POP POP SWAP3 POP SWAP3 POP SWAP3 JUMP JUMPDEST PUSH1 0x0 PUSH2 0x1095 PUSH2 0x3947 DUP5 PUSH4 0x3B9ACA00 PUSH2 0x19B5 JUMP JUMPDEST PUSH2 0x3CC5 PUSH2 0x4071 JUMP JUMPDEST PUSH1 0x0 PUSH2 0x3CCF PUSH2 0x3E3D JUMP JUMPDEST PUSH2 0xFFFF DUP5 AND PUSH1 0x0 SWAP1 DUP2 MSTORE PUSH1 0x20 SWAP2 SWAP1 SWAP2 MSTORE PUSH1 0x40 DUP2 KECCAK256 SLOAD SWAP2 POP PUSH2 0x1095 SWAP1 DUP3 PUSH2 0x3E4A JUMP JUMPDEST PUSH1 0x0 DUP1 DUP4 PUSH1 0x80 ADD MLOAD GT PUSH2 0x3D02 JUMPI PUSH1 0x0 DUP1 REVERT JUMPDEST PUSH4 0x3B9ACA00 DUP3 GT ISZERO PUSH2 0x3D13 JUMPI PUSH1 0x0 DUP1 REVERT JUMPDEST DUP3 MLOAD DUP3 GT PUSH2 0x3D32 JUMPI DUP3 MLOAD PUSH1 0x40 DUP5 ADD MLOAD PUSH2 0x32E8 SWAP2 SWAP1 PUSH2 0x1318 SWAP1 DUP6 SWAP1 PUSH2 0x19B5 JUMP JUMPDEST DUP3 PUSH1 0x20 ADD MLOAD DUP3 GT PUSH2 0x3D70 JUMPI PUSH1 0x40 DUP4 ADD MLOAD DUP4 MLOAD PUSH1 0x20 DUP6 ADD MLOAD PUSH1 0x60 DUP7 ADD MLOAD PUSH2 0x32E8 SWAP4 SWAP3 PUSH2 0x3D6A SWAP3 DUP2 SWAP1 SUB SWAP2 PUSH2 0x1318 SWAP2 DUP9 SUB SWAP1 DUP6 SWAP1 SUB PUSH2 0x19B5 JUMP JUMPDEST SWAP1 PUSH2 0x1083 JUMP JUMPDEST PUSH2 0x1095 DUP4 PUSH1 0x60 ADD MLOAD PUSH2 0x3D6A DUP6 PUSH1 0x20 ADD MLOAD PUSH4 0x3B9ACA00 SUB PUSH2 0x1318 DUP8 PUSH1 0x60 ADD MLOAD DUP9 PUSH1 0x80 ADD MLOAD SUB DUP9 PUSH1 0x20 ADD MLOAD DUP9 SUB PUSH2 0x19B5 SWAP1 SWAP2 SWAP1 PUSH4 0xFFFFFFFF AND JUMP JUMPDEST PUSH1 0x0 DUP1 PUSH2 0x3DC8 PUSH1 0x64 PUSH2 0x1318 DUP8 PUSH1 0xE0 ADD MLOAD DUP8 PUSH2 0x19B5 SWAP1 SWAP2 SWAP1 PUSH4 0xFFFFFFFF AND JUMP JUMPDEST SWAP1 POP DUP5 PUSH1 0xA0 ADD MLOAD DUP2 LT ISZERO PUSH2 0x3DDD JUMPI POP PUSH1 0xA0 DUP5 ADD MLOAD JUMPDEST DUP5 PUSH1 0xC0 ADD MLOAD DUP2 GT ISZERO PUSH2 0x3DF0 JUMPI POP PUSH1 0xC0 DUP5 ADD MLOAD JUMPDEST DUP3 ISZERO PUSH2 0x3E07 JUMPI PUSH2 0x3E00 DUP5 DUP3 PUSH2 0x1083 JUMP JUMPDEST SWAP2 POP PUSH2 0x3E1C JUMP JUMPDEST DUP4 DUP2 GT PUSH2 0x3E16 JUMPI DUP1 DUP5 SUB PUSH2 0x3E19 JUMP JUMPDEST PUSH1 0x0 JUMPDEST SWAP2 POP JUMPDEST POP SWAP4 SWAP3 POP POP POP JUMP JUMPDEST PUSH1 0x0 PUSH2 0x1095 PUSH2 0x3E33 DUP5 DUP5 PUSH2 0x19B5 JUMP JUMPDEST PUSH4 0x3B9ACA00 PUSH2 0x19DC JUMP JUMPDEST PUSH1 0x0 DUP1 PUSH2 0x107D PUSH1 0x1B PUSH2 0x14B1 JUMP JUMPDEST PUSH2 0x3E52 PUSH2 0x4071 JUMP JUMPDEST PUSH1 0x64 PUSH4 0x3B9ACA00 DUP4 PUSH1 0xFF DUP7 AND PUSH1 0x20 DUP2 LT PUSH2 0x3E68 JUMPI INVALID JUMPDEST BYTE MUL DUP2 PUSH2 0x3E71 JUMPI INVALID JUMPDEST DIV DUP2 MSTORE PUSH1 0x64 PUSH4 0x3B9ACA00 DUP4 PUSH1 0xFF DUP7 AND PUSH1 0x1 ADD PUSH1 0x20 DUP2 LT PUSH2 0x3E8D JUMPI INVALID JUMPDEST BYTE MUL DUP2 PUSH2 0x3E96 JUMPI INVALID JUMPDEST DIV DUP2 PUSH1 0x20 ADD DUP2 DUP2 MSTORE POP POP PUSH2 0x3EBB DUP3 PUSH1 0x2 DUP6 PUSH1 0xFF AND ADD PUSH1 0x20 DUP2 LT PUSH2 0x3EB5 JUMPI INVALID JUMPDEST BYTE PUSH2 0x3F69 JUMP JUMPDEST PUSH1 0x80 DUP3 ADD DUP2 SWAP1 MSTORE PUSH2 0x100 SWAP1 DUP4 PUSH1 0xFF DUP7 AND PUSH1 0x3 ADD PUSH1 0x20 DUP2 LT PUSH2 0x3ED8 JUMPI INVALID JUMPDEST BYTE MUL DUP2 PUSH2 0x3EE1 JUMPI INVALID JUMPDEST DIV PUSH1 0x40 DUP3 ADD MSTORE PUSH1 0x80 DUP2 ADD MLOAD PUSH2 0x100 SWAP1 DUP4 PUSH1 0xFF DUP7 AND PUSH1 0x4 ADD PUSH1 0x20 DUP2 LT PUSH2 0x3F02 JUMPI INVALID JUMPDEST BYTE MUL DUP2 PUSH2 0x3F0B JUMPI INVALID JUMPDEST DIV PUSH1 0x60 DUP3 ADD MSTORE PUSH3 0x7A120 DUP3 PUSH1 0xFF DUP6 AND PUSH1 0x5 ADD PUSH1 0x20 DUP2 LT PUSH2 0x3F27 JUMPI INVALID JUMPDEST BYTE MUL PUSH1 0xA0 DUP3 ADD MSTORE PUSH3 0x2625A0 DUP3 PUSH1 0xFF DUP6 AND PUSH1 0x6 ADD PUSH1 0x20 DUP2 LT PUSH2 0x3F44 JUMPI INVALID JUMPDEST BYTE MUL PUSH1 0xC0 DUP3 ADD MSTORE DUP2 PUSH1 0xFF DUP5 AND PUSH1 0x7 ADD PUSH1 0x20 DUP2 LT PUSH2 0x3F5D JUMPI INVALID JUMPDEST BYTE PUSH1 0xE0 DUP3 ADD MSTORE SWAP3 SWAP2 POP POP JUMP JUMPDEST PUSH1 0x0 DUP2 PUSH1 0xFF AND PUSH1 0x96 LT PUSH2 0x3F84 JUMPI PUSH1 0xFF DUP3 AND PUSH3 0x2625A0 MUL PUSH2 0x107D JUMP JUMPDEST POP PUSH1 0x95 NOT PUSH1 0xFF SWAP2 SWAP1 SWAP2 AND ADD PUSH3 0xE4E1C0 MUL PUSH4 0x165A0BC0 ADD SWAP1 JUMP JUMPDEST PUSH1 0x40 MLOAD DUP1 PUSH1 0x60 ADD PUSH1 0x40 MSTORE DUP1 PUSH1 0x0 DUP2 MSTORE PUSH1 0x20 ADD PUSH1 0x0 DUP2 MSTORE PUSH1 0x20 ADD PUSH1 0x0 DUP2 MSTORE POP SWAP1 JUMP JUMPDEST PUSH1 0x40 DUP1 MLOAD PUSH1 0xA0 DUP2 ADD DUP3 MSTORE PUSH1 0x0 DUP1 DUP3 MSTORE PUSH1 0x20 DUP3 ADD DUP2 SWAP1 MSTORE SWAP2 DUP2 ADD DUP3 SWAP1 MSTORE SWAP1 PUSH1 0x60 DUP3 ADD SWAP1 DUP2 MSTORE PUSH1 0x20 ADD PUSH1 0x0 DUP2 MSTORE POP SWAP1 JUMP JUMPDEST PUSH1 0x40 MLOAD DUP1 PUSH1 0x40 ADD PUSH1 0x40 MSTORE DUP1 PUSH1 0x60 DUP2 MSTORE PUSH1 0x20 ADD PUSH1 0x60 DUP2 MSTORE POP SWAP1 JUMP JUMPDEST PUSH1 0x40 MLOAD DUP1 PUSH2 0x120 ADD PUSH1 0x40 MSTORE DUP1 PUSH1 0x0 DUP2 MSTORE PUSH1 0x20 ADD PUSH1 0x0 DUP2 MSTORE PUSH1 0x20 ADD PUSH1 0x0 DUP2 MSTORE PUSH1 0x20 ADD PUSH1 0x0 DUP2 MSTORE PUSH1 0x20 ADD PUSH1 0x0 DUP2 MSTORE PUSH1 0x20 ADD PUSH1 0x0 DUP2 MSTORE PUSH1 0x20 ADD PUSH1 0x0 DUP2 MSTORE PUSH1 0x20 ADD PUSH1 0x0 DUP2 MSTORE PUSH1 0x20 ADD PUSH1 0x0 DUP2 MSTORE POP SWAP1 JUMP JUMPDEST PUSH1 0x40 MLOAD DUP1 PUSH1 0x20 ADD PUSH1 0x40 MSTORE DUP1 PUSH1 0x1 SWAP1 PUSH1 0x20 DUP3 MUL DUP1 CALLDATASIZE DUP4 CALLDATACOPY POP SWAP2 SWAP3 SWAP2 POP POP JUMP JUMPDEST PUSH1 0x40 MLOAD DUP1 PUSH2 0x100 ADD PUSH1 0x40 MSTORE DUP1 PUSH1 0x0 DUP2 MSTORE PUSH1 0x20 ADD PUSH1 0x0 DUP2 MSTORE PUSH1 0x20 ADD PUSH1 0x0 DUP2 MSTORE PUSH1 0x20 ADD PUSH1 0x0 DUP2 MSTORE PUSH1 0x20 ADD PUSH1 0x0 DUP2 MSTORE PUSH1 0x20 ADD PUSH1 0x0 DUP2 MSTORE PUSH1 0x20 ADD PUSH1 0x0 DUP2 MSTORE PUSH1 0x20 ADD PUSH1 0x0 DUP2 MSTORE POP SWAP1 JUMP JUMPDEST DUP1 MLOAD PUSH2 0xF26 DUP2 PUSH2 0x4B78 JUMP JUMPDEST PUSH1 0x0 DUP1 DUP4 PUSH1 0x1F DUP5 ADD SLT PUSH2 0x40D2 JUMPI DUP2 DUP3 REVERT JUMPDEST POP DUP2 CALLDATALOAD PUSH1 0x1 PUSH1 0x1 PUSH1 0x40 SHL SUB DUP2 GT ISZERO PUSH2 0x40E8 JUMPI DUP2 DUP3 REVERT JUMPDEST PUSH1 0x20 DUP4 ADD SWAP2 POP DUP4 PUSH1 0x20 DUP1 DUP4 MUL DUP6 ADD ADD GT ISZERO PUSH2 0x4102 JUMPI PUSH1 0x0 DUP1 REVERT JUMPDEST SWAP3 POP SWAP3 SWAP1 POP JUMP JUMPDEST PUSH1 0x0 DUP3 PUSH1 0x1F DUP4 ADD SLT PUSH2 0x4119 JUMPI DUP1 DUP2 REVERT JUMPDEST DUP2 MLOAD PUSH1 0x20 PUSH2 0x412E PUSH2 0x4129 DUP4 PUSH2 0x4B5B JUMP JUMPDEST PUSH2 0x4B38 JUMP JUMPDEST DUP3 DUP2 MSTORE DUP2 DUP2 ADD SWAP1 DUP6 DUP4 ADD DUP4 DUP6 MUL DUP8 ADD DUP5 ADD DUP9 LT ISZERO PUSH2 0x414A JUMPI DUP6 DUP7 REVERT JUMPDEST DUP6 JUMPDEST DUP6 DUP2 LT ISZERO PUSH2 0x4171 JUMPI DUP2 MLOAD PUSH2 0x415F DUP2 PUSH2 0x4B78 JUMP JUMPDEST DUP5 MSTORE SWAP3 DUP5 ADD SWAP3 SWAP1 DUP5 ADD SWAP1 PUSH1 0x1 ADD PUSH2 0x414C JUMP JUMPDEST POP SWAP1 SWAP8 SWAP7 POP POP POP POP POP POP POP JUMP JUMPDEST PUSH1 0x0 PUSH1 0x1F DUP4 DUP2 DUP5 ADD SLT PUSH2 0x418F JUMPI DUP2 DUP3 REVERT JUMPDEST DUP3 MLOAD PUSH1 0x20 PUSH2 0x419F PUSH2 0x4129 DUP4 PUSH2 0x4B5B JUMP JUMPDEST DUP3 DUP2 MSTORE DUP2 DUP2 ADD SWAP1 DUP7 DUP4 ADD DUP7 JUMPDEST DUP6 DUP2 LT ISZERO PUSH2 0x4243 JUMPI DUP2 MLOAD DUP10 ADD DUP11 PUSH1 0x3F DUP3 ADD SLT PUSH2 0x41C5 JUMPI DUP9 DUP10 REVERT JUMPDEST DUP6 DUP2 ADD MLOAD PUSH1 0x1 PUSH1 0x1 PUSH1 0x40 SHL SUB DUP2 GT ISZERO PUSH2 0x41DA JUMPI INVALID JUMPDEST PUSH2 0x41EB DUP2 DUP11 ADD PUSH1 0x1F NOT AND DUP9 ADD PUSH2 0x4B38 JUMP JUMPDEST DUP2 DUP2 MSTORE PUSH1 0x40 DUP14 DUP2 DUP5 DUP7 ADD ADD GT ISZERO PUSH2 0x4200 JUMPI DUP12 DUP13 REVERT JUMPDEST DUP12 JUMPDEST DUP4 DUP2 LT ISZERO PUSH2 0x421D JUMPI DUP5 DUP2 ADD DUP3 ADD MLOAD DUP4 DUP3 ADD DUP12 ADD MSTORE DUP10 ADD PUSH2 0x4202 JUMP JUMPDEST DUP4 DUP2 GT ISZERO PUSH2 0x422D JUMPI DUP13 DUP11 DUP6 DUP6 ADD ADD MSTORE JUMPDEST POP POP DUP7 MSTORE POP POP SWAP3 DUP5 ADD SWAP3 SWAP1 DUP5 ADD SWAP1 PUSH1 0x1 ADD PUSH2 0x41AB JUMP JUMPDEST POP SWAP1 SWAP9 SWAP8 POP POP POP POP POP POP POP POP JUMP JUMPDEST PUSH1 0x0 DUP3 PUSH1 0x1F DUP4 ADD SLT PUSH2 0x4261 JUMPI DUP1 DUP2 REVERT JUMPDEST DUP2 MLOAD PUSH1 0x20 PUSH2 0x4271 PUSH2 0x4129 DUP4 PUSH2 0x4B5B JUMP JUMPDEST DUP3 DUP2 MSTORE DUP2 DUP2 ADD SWAP1 DUP6 DUP4 ADD DUP4 DUP6 MUL DUP8 ADD DUP5 ADD DUP9 LT ISZERO PUSH2 0x428D JUMPI DUP6 DUP7 REVERT JUMPDEST DUP6 JUMPDEST DUP6 DUP2 LT ISZERO PUSH2 0x4171 JUMPI DUP2 MLOAD DUP5 MSTORE SWAP3 DUP5 ADD SWAP3 SWAP1 DUP5 ADD SWAP1 PUSH1 0x1 ADD PUSH2 0x428F JUMP JUMPDEST DUP1 CALLDATALOAD PUSH1 0xFF DUP2 AND DUP2 EQ PUSH2 0xF26 JUMPI PUSH1 0x0 DUP1 REVERT JUMPDEST PUSH1 0x0 PUSH1 0x20 DUP3 DUP5 SUB SLT ISZERO PUSH2 0x42CD JUMPI DUP1 DUP2 REVERT JUMPDEST DUP2 CALLDATALOAD PUSH2 0x1095 DUP2 PUSH2 0x4B78 JUMP JUMPDEST PUSH1 0x0 PUSH1 0x20 DUP3 DUP5 SUB SLT ISZERO PUSH2 0x42E9 JUMPI DUP1 DUP2 REVERT JUMPDEST DUP2 MLOAD PUSH2 0x1095 DUP2 PUSH2 0x4B78 JUMP JUMPDEST PUSH1 0x0 DUP1 PUSH1 0x20 DUP4 DUP6 SUB SLT ISZERO PUSH2 0x4306 JUMPI DUP1 DUP2 REVERT JUMPDEST DUP3 CALLDATALOAD PUSH1 0x1 PUSH1 0x1 PUSH1 0x40 SHL SUB DUP2 GT ISZERO PUSH2 0x431B JUMPI DUP2 DUP3 REVERT JUMPDEST PUSH2 0x4327 DUP6 DUP3 DUP7 ADD PUSH2 0x40C1 JUMP JUMPDEST SWAP1 SWAP7 SWAP1 SWAP6 POP SWAP4 POP POP POP POP JUMP JUMPDEST PUSH1 0x0 PUSH1 0x20 DUP3 DUP5 SUB SLT ISZERO PUSH2 0x4344 JUMPI DUP1 DUP2 REVERT JUMPDEST DUP2 MLOAD PUSH1 0x1 PUSH1 0x1 PUSH1 0x40 SHL SUB DUP2 GT ISZERO PUSH2 0x4359 JUMPI DUP2 DUP3 REVERT JUMPDEST PUSH2 0x11B7 DUP5 DUP3 DUP6 ADD PUSH2 0x4109 JUMP JUMPDEST PUSH1 0x0 PUSH1 0x20 DUP1 DUP4 DUP6 SUB SLT ISZERO PUSH2 0x4377 JUMPI DUP2 DUP3 REVERT JUMPDEST DUP3 MLOAD PUSH1 0x1 PUSH1 0x1 PUSH1 0x40 SHL SUB DUP1 DUP3 GT ISZERO PUSH2 0x438D JUMPI DUP4 DUP5 REVERT JUMPDEST DUP2 DUP6 ADD SWAP2 POP DUP6 PUSH1 0x1F DUP4 ADD SLT PUSH2 0x43A0 JUMPI DUP4 DUP5 REVERT JUMPDEST DUP2 MLOAD PUSH2 0x43AE PUSH2 0x4129 DUP3 PUSH2 0x4B5B JUMP JUMPDEST DUP2 DUP2 MSTORE DUP5 DUP2 ADD SWAP1 DUP5 DUP7 ADD DUP8 JUMPDEST DUP5 DUP2 LT ISZERO PUSH2 0x447B JUMPI DUP2 MLOAD DUP8 ADD PUSH1 0xA0 DUP1 PUSH1 0x1F NOT DUP4 DUP16 SUB ADD SLT ISZERO PUSH2 0x43DA JUMPI DUP11 DUP12 REVERT JUMPDEST PUSH2 0x43E3 DUP2 PUSH2 0x4B38 JUMP JUMPDEST DUP11 DUP4 ADD MLOAD DUP10 DUP2 GT ISZERO PUSH2 0x43F3 JUMPI DUP13 DUP14 REVERT JUMPDEST PUSH2 0x4401 DUP16 DUP14 DUP4 DUP8 ADD ADD PUSH2 0x4109 JUMP JUMPDEST DUP3 MSTORE POP PUSH1 0x40 DUP4 ADD MLOAD DUP10 DUP2 GT ISZERO PUSH2 0x4415 JUMPI DUP13 DUP14 REVERT JUMPDEST PUSH2 0x4423 DUP16 DUP14 DUP4 DUP8 ADD ADD PUSH2 0x417E JUMP JUMPDEST DUP13 DUP4 ADD MSTORE POP PUSH1 0x60 DUP4 ADD MLOAD DUP10 DUP2 GT ISZERO PUSH2 0x4439 JUMPI DUP13 DUP14 REVERT JUMPDEST PUSH2 0x4447 DUP16 DUP14 DUP4 DUP8 ADD ADD PUSH2 0x4251 JUMP JUMPDEST PUSH1 0x40 DUP4 ADD MSTORE POP PUSH1 0x80 DUP4 ADD MLOAD PUSH1 0x60 DUP3 ADD MSTORE PUSH2 0x4462 DUP3 DUP5 ADD PUSH2 0x40B6 JUMP JUMPDEST PUSH1 0x80 DUP3 ADD MSTORE DUP7 MSTORE POP POP SWAP3 DUP8 ADD SWAP3 SWAP1 DUP8 ADD SWAP1 PUSH1 0x1 ADD PUSH2 0x43BA JUMP JUMPDEST POP SWAP1 SWAP10 SWAP9 POP POP POP POP POP POP POP POP POP JUMP JUMPDEST PUSH1 0x0 PUSH1 0x20 DUP1 DUP4 DUP6 SUB SLT ISZERO PUSH2 0x449C JUMPI DUP2 DUP3 REVERT JUMPDEST DUP3 MLOAD PUSH1 0x1 PUSH1 0x1 PUSH1 0x40 SHL SUB DUP1 DUP3 GT ISZERO PUSH2 0x44B2 JUMPI DUP4 DUP5 REVERT JUMPDEST DUP2 DUP6 ADD SWAP2 POP DUP6 PUSH1 0x1F DUP4 ADD SLT PUSH2 0x44C5 JUMPI DUP4 DUP5 REVERT JUMPDEST DUP2 MLOAD PUSH2 0x44D3 PUSH2 0x4129 DUP3 PUSH2 0x4B5B JUMP JUMPDEST DUP2 DUP2 MSTORE DUP5 DUP2 ADD SWAP1 DUP5 DUP7 ADD DUP8 JUMPDEST DUP5 DUP2 LT ISZERO PUSH2 0x447B JUMPI DUP2 MLOAD DUP8 ADD PUSH1 0x80 DUP2 DUP14 SUB PUSH1 0x1F NOT ADD SLT ISZERO PUSH2 0x44FE JUMPI DUP10 DUP11 REVERT JUMPDEST PUSH1 0x40 DUP1 MLOAD PUSH1 0x80 DUP2 ADD DUP2 DUP2 LT DUP11 DUP3 GT OR ISZERO PUSH2 0x4514 JUMPI INVALID JUMPDEST DUP3 MSTORE DUP3 DUP12 ADD MLOAD DUP10 DUP2 GT ISZERO PUSH2 0x4526 JUMPI DUP13 DUP14 REVERT JUMPDEST PUSH2 0x4534 DUP16 DUP14 DUP4 DUP8 ADD ADD PUSH2 0x4109 JUMP JUMPDEST DUP3 MSTORE POP DUP2 DUP4 ADD MLOAD DUP10 DUP2 GT ISZERO PUSH2 0x4547 JUMPI DUP13 DUP14 REVERT JUMPDEST PUSH2 0x4555 DUP16 DUP14 DUP4 DUP8 ADD ADD PUSH2 0x417E JUMP JUMPDEST DUP13 DUP4 ADD MSTORE POP PUSH1 0x60 DUP4 ADD MLOAD DUP3 DUP3 ADD MSTORE PUSH2 0x456F PUSH1 0x80 DUP5 ADD PUSH2 0x40B6 JUMP JUMPDEST PUSH1 0x60 DUP3 ADD MSTORE DUP7 MSTORE POP POP SWAP3 DUP8 ADD SWAP3 SWAP1 DUP8 ADD SWAP1 PUSH1 0x1 ADD PUSH2 0x44DF JUMP JUMPDEST PUSH1 0x0 DUP1 PUSH1 0x20 DUP4 DUP6 SUB SLT ISZERO PUSH2 0x459A JUMPI DUP2 DUP3 REVERT JUMPDEST DUP3 CALLDATALOAD PUSH1 0x1 PUSH1 0x1 PUSH1 0x40 SHL SUB DUP2 GT ISZERO PUSH2 0x431B JUMPI DUP3 DUP4 REVERT JUMPDEST PUSH1 0x0 PUSH1 0x20 DUP3 DUP5 SUB SLT ISZERO PUSH2 0x45C0 JUMPI DUP1 DUP2 REVERT JUMPDEST DUP2 MLOAD PUSH1 0x1 PUSH1 0x1 PUSH1 0x40 SHL SUB DUP2 GT ISZERO PUSH2 0x45D5 JUMPI DUP2 DUP3 REVERT JUMPDEST PUSH2 0x11B7 DUP5 DUP3 DUP6 ADD PUSH2 0x4251 JUMP JUMPDEST PUSH1 0x0 PUSH1 0x20 DUP3 DUP5 SUB SLT ISZERO PUSH2 0x45F2 JUMPI DUP1 DUP2 REVERT JUMPDEST DUP2 MLOAD DUP1 ISZERO ISZERO DUP2 EQ PUSH2 0x1095 JUMPI DUP2 DUP3 REVERT JUMPDEST PUSH1 0x0 PUSH1 0x20 DUP3 DUP5 SUB SLT ISZERO PUSH2 0x4612 JUMPI DUP1 DUP2 REVERT JUMPDEST DUP2 CALLDATALOAD PUSH2 0x1095 DUP2 PUSH2 0x4B8D JUMP JUMPDEST PUSH1 0x0 PUSH1 0x20 DUP3 DUP5 SUB SLT ISZERO PUSH2 0x462E JUMPI DUP1 DUP2 REVERT JUMPDEST DUP2 MLOAD PUSH2 0x1095 DUP2 PUSH2 0x4B8D JUMP JUMPDEST PUSH1 0x0 DUP1 PUSH1 0x0 PUSH1 0x40 DUP5 DUP7 SUB SLT ISZERO PUSH2 0x464D JUMPI DUP1 DUP2 REVERT JUMPDEST DUP4 CALLDATALOAD PUSH2 0x4658 DUP2 PUSH2 0x4B8D JUMP JUMPDEST SWAP3 POP PUSH1 0x20 DUP5 ADD CALLDATALOAD PUSH1 0x1 PUSH1 0x1 PUSH1 0x40 SHL SUB DUP1 DUP3 GT ISZERO PUSH2 0x4673 JUMPI DUP3 DUP4 REVERT JUMPDEST DUP2 DUP7 ADD SWAP2 POP DUP7 PUSH1 0x1F DUP4 ADD SLT PUSH2 0x4686 JUMPI DUP3 DUP4 REVERT JUMPDEST DUP2 CALLDATALOAD DUP2 DUP2 GT ISZERO PUSH2 0x4694 JUMPI DUP4 DUP5 REVERT JUMPDEST DUP8 PUSH1 0x20 PUSH1 0x40 DUP4 MUL DUP6 ADD ADD GT ISZERO PUSH2 0x46A8 JUMPI DUP4 DUP5 REVERT JUMPDEST PUSH1 0x20 DUP4 ADD SWAP5 POP DUP1 SWAP4 POP POP POP POP SWAP3 POP SWAP3 POP SWAP3 JUMP JUMPDEST PUSH1 0x0 DUP1 PUSH1 0x40 DUP4 DUP6 SUB SLT ISZERO PUSH2 0x46CD JUMPI DUP2 DUP3 REVERT JUMPDEST DUP3 CALLDATALOAD PUSH2 0x46D8 DUP2 PUSH2 0x4B8D JUMP JUMPDEST SWAP2 POP PUSH1 0x20 DUP4 ADD CALLDATALOAD PUSH2 0x46E8 DUP2 PUSH2 0x4B78 JUMP JUMPDEST DUP1 SWAP2 POP POP SWAP3 POP SWAP3 SWAP1 POP JUMP JUMPDEST PUSH1 0x0 DUP1 PUSH1 0x40 DUP4 DUP6 SUB SLT ISZERO PUSH2 0x4705 JUMPI DUP2 DUP3 REVERT JUMPDEST DUP3 CALLDATALOAD PUSH2 0x4710 DUP2 PUSH2 0x4B8D JUMP JUMPDEST SWAP5 PUSH1 0x20 SWAP4 SWAP1 SWAP4 ADD CALLDATALOAD SWAP4 POP POP POP JUMP JUMPDEST PUSH1 0x0 DUP1 PUSH1 0x40 DUP4 DUP6 SUB SLT ISZERO PUSH2 0x4730 JUMPI DUP2 DUP3 REVERT JUMPDEST DUP3 CALLDATALOAD PUSH2 0x473B DUP2 PUSH2 0x4B8D JUMP JUMPDEST SWAP2 POP PUSH1 0x20 DUP4 ADD CALLDATALOAD PUSH4 0xFFFFFFFF DUP2 AND DUP2 EQ PUSH2 0x46E8 JUMPI DUP2 DUP3 REVERT JUMPDEST PUSH1 0x0 DUP1 PUSH1 0x40 DUP4 DUP6 SUB SLT ISZERO PUSH2 0x4765 JUMPI DUP2 DUP3 REVERT JUMPDEST DUP3 CALLDATALOAD PUSH2 0x4770 DUP2 PUSH2 0x4B8D JUMP JUMPDEST SWAP2 POP PUSH1 0x20 DUP4 ADD CALLDATALOAD PUSH5 0xFFFFFFFFFF DUP2 AND DUP2 EQ PUSH2 0x46E8 JUMPI DUP2 DUP3 REVERT JUMPDEST PUSH1 0x0 PUSH1 0x20 DUP3 DUP5 SUB SLT ISZERO PUSH2 0x479A JUMPI DUP1 DUP2 REVERT JUMPDEST POP MLOAD SWAP2 SWAP1 POP JUMP JUMPDEST PUSH1 0x0 DUP1 PUSH1 0x40 DUP4 DUP6 SUB SLT ISZERO PUSH2 0x47B3 JUMPI DUP2 DUP3 REVERT JUMPDEST POP POP DUP1 MLOAD PUSH1 0x20 SWAP1 SWAP2 ADD MLOAD SWAP1 SWAP3 SWAP1 SWAP2 POP JUMP JUMPDEST PUSH1 0x0 PUSH1 0x20 DUP3 DUP5 SUB SLT ISZERO PUSH2 0x47D5 JUMPI DUP1 DUP2 REVERT JUMPDEST PUSH2 0x1095 DUP3 PUSH2 0x42AB JUMP JUMPDEST PUSH1 0x0 DUP2 MLOAD DUP1 DUP5 MSTORE PUSH1 0x20 DUP1 DUP6 ADD SWAP5 POP DUP1 DUP5 ADD DUP4 JUMPDEST DUP4 DUP2 LT ISZERO PUSH2 0x480D JUMPI DUP2 MLOAD DUP8 MSTORE SWAP6 DUP3 ADD SWAP6 SWAP1 DUP3 ADD SWAP1 PUSH1 0x1 ADD PUSH2 0x47F1 JUMP JUMPDEST POP SWAP5 SWAP6 SWAP5 POP POP POP POP POP JUMP JUMPDEST PUSH1 0x1 PUSH1 0x1 PUSH1 0xA0 SHL SUB SWAP2 SWAP1 SWAP2 AND DUP2 MSTORE PUSH1 0x20 ADD SWAP1 JUMP JUMPDEST PUSH1 0x1 PUSH1 0x1 PUSH1 0xA0 SHL SUB SWAP4 DUP5 AND DUP2 MSTORE SWAP2 SWAP1 SWAP3 AND PUSH1 0x20 DUP3 ADD MSTORE PUSH1 0x40 DUP2 ADD SWAP2 SWAP1 SWAP2 MSTORE PUSH1 0x60 ADD SWAP1 JUMP JUMPDEST PUSH1 0x1 PUSH1 0x1 PUSH1 0xA0 SHL SUB DUP5 DUP2 AND DUP3 MSTORE PUSH1 0x40 PUSH1 0x20 DUP1 DUP5 ADD DUP3 SWAP1 MSTORE SWAP1 DUP4 ADD DUP5 SWAP1 MSTORE PUSH1 0x0 SWAP2 DUP6 SWAP2 PUSH1 0x60 DUP6 ADD DUP5 JUMPDEST DUP8 DUP2 LT ISZERO PUSH2 0x489F JUMPI DUP5 CALLDATALOAD PUSH2 0x488B DUP2 PUSH2 0x4B78 JUMP JUMPDEST DUP5 AND DUP3 MSTORE SWAP4 DUP3 ADD SWAP4 SWAP1 DUP3 ADD SWAP1 PUSH1 0x1 ADD PUSH2 0x4878 JUMP JUMPDEST POP SWAP9 SWAP8 POP POP POP POP POP POP POP POP JUMP JUMPDEST PUSH1 0x1 PUSH1 0x1 PUSH1 0xA0 SHL SUB SWAP3 SWAP1 SWAP3 AND DUP3 MSTORE PUSH1 0x20 DUP3 ADD MSTORE PUSH1 0x40 ADD SWAP1 JUMP JUMPDEST PUSH1 0x40 DUP1 DUP3 MSTORE DUP4 MLOAD SWAP1 DUP3 ADD DUP2 SWAP1 MSTORE PUSH1 0x0 SWAP1 PUSH1 0x20 SWAP1 PUSH1 0x60 DUP5 ADD SWAP1 DUP3 DUP8 ADD DUP5 JUMPDEST DUP3 DUP2 LT ISZERO PUSH2 0x4907 JUMPI DUP2 MLOAD PUSH1 0x1 PUSH1 0x1 PUSH1 0xA0 SHL SUB AND DUP5 MSTORE SWAP3 DUP5 ADD SWAP3 SWAP1 DUP5 ADD SWAP1 PUSH1 0x1 ADD PUSH2 0x48E2 JUMP JUMPDEST POP POP POP DUP4 DUP2 SUB DUP3 DUP6 ADD MSTORE PUSH2 0x491B DUP2 DUP7 PUSH2 0x47DE JUMP JUMPDEST SWAP7 SWAP6 POP POP POP POP POP POP JUMP JUMPDEST PUSH1 0x0 PUSH1 0x20 DUP3 MSTORE PUSH2 0x1095 PUSH1 0x20 DUP4 ADD DUP5 PUSH2 0x47DE JUMP JUMPDEST SWAP1 DUP2 MSTORE PUSH1 0x20 ADD SWAP1 JUMP JUMPDEST PUSH1 0x20 DUP1 DUP3 MSTORE PUSH1 0x19 SWAP1 DUP3 ADD MSTORE PUSH32 0x5472656173757279206D616E6167657220726571756972656400000000000000 PUSH1 0x40 DUP3 ADD MSTORE PUSH1 0x60 ADD SWAP1 JUMP JUMPDEST PUSH1 0x20 DUP1 DUP3 MSTORE PUSH1 0x14 SWAP1 DUP3 ADD MSTORE PUSH20 0x2932B130B630B731B4B7339031B7B7B63237BBB7 PUSH1 0x61 SHL PUSH1 0x40 DUP3 ADD MSTORE PUSH1 0x60 ADD SWAP1 JUMP JUMPDEST PUSH1 0x20 DUP1 DUP3 MSTORE DUP2 DUP2 ADD MSTORE PUSH32 0x4F776E61626C653A2063616C6C6572206973206E6F7420746865206F776E6572 PUSH1 0x40 DUP3 ADD MSTORE PUSH1 0x60 ADD SWAP1 JUMP JUMPDEST PUSH1 0x20 DUP1 DUP3 MSTORE PUSH1 0x12 SWAP1 DUP3 ADD MSTORE PUSH18 0x12511CC81B5D5CDD081899481CDBDC9D1959 PUSH1 0x72 SHL PUSH1 0x40 DUP3 ADD MSTORE PUSH1 0x60 ADD SWAP1 JUMP JUMPDEST PUSH1 0x20 DUP1 DUP3 MSTORE PUSH1 0xC SWAP1 DUP3 ADD MSTORE PUSH12 0x496E76616C69642072617465 PUSH1 0xA0 SHL PUSH1 0x40 DUP3 ADD MSTORE PUSH1 0x60 ADD SWAP1 JUMP JUMPDEST PUSH1 0x20 DUP1 DUP3 MSTORE PUSH1 0x13 SWAP1 DUP3 ADD MSTORE PUSH19 0x125B9D985B1A590818DD5C9C995B98DE481A59 PUSH1 0x6A SHL PUSH1 0x40 DUP3 ADD MSTORE PUSH1 0x60 ADD SWAP1 JUMP JUMPDEST PUSH2 0xFFFF DUP5 AND DUP2 MSTORE PUSH1 0x40 PUSH1 0x20 DUP1 DUP4 ADD DUP3 SWAP1 MSTORE DUP3 DUP3 ADD DUP5 SWAP1 MSTORE PUSH1 0x0 SWAP2 SWAP1 DUP6 SWAP1 PUSH1 0x60 DUP6 ADD DUP5 JUMPDEST DUP8 DUP2 LT ISZERO PUSH2 0x489F JUMPI DUP4 CALLDATALOAD PUSH2 0x4A90 DUP2 PUSH2 0x4B78 JUMP JUMPDEST PUSH1 0x1 PUSH1 0x1 PUSH1 0xA0 SHL SUB AND DUP3 MSTORE PUSH1 0xFF PUSH2 0x4AA8 DUP6 DUP6 ADD PUSH2 0x42AB JUMP JUMPDEST AND DUP3 DUP5 ADD MSTORE SWAP3 DUP5 ADD SWAP3 SWAP1 DUP5 ADD SWAP1 PUSH1 0x1 ADD PUSH2 0x4A7D JUMP JUMPDEST PUSH2 0xFFFF SWAP3 SWAP1 SWAP3 AND DUP3 MSTORE PUSH1 0x20 DUP3 ADD MSTORE PUSH1 0x40 ADD SWAP1 JUMP JUMPDEST PUSH2 0xFFFF SWAP4 SWAP1 SWAP4 AND DUP4 MSTORE PUSH1 0x20 DUP4 ADD SWAP2 SWAP1 SWAP2 MSTORE PUSH1 0x40 DUP3 ADD MSTORE PUSH1 0x60 ADD SWAP1 JUMP JUMPDEST PUSH2 0xFFFF SWAP3 SWAP1 SWAP3 AND DUP3 MSTORE PUSH4 0xFFFFFFFF AND PUSH1 0x20 DUP3 ADD MSTORE PUSH1 0x40 ADD SWAP1 JUMP JUMPDEST PUSH2 0xFFFF SWAP3 SWAP1 SWAP3 AND DUP3 MSTORE PUSH5 0xFFFFFFFFFF AND PUSH1 0x20 DUP3 ADD MSTORE PUSH1 0x40 ADD SWAP1 JUMP JUMPDEST SWAP3 DUP4 MSTORE PUSH1 0x20 DUP4 ADD SWAP2 SWAP1 SWAP2 MSTORE PUSH1 0x40 DUP3 ADD MSTORE PUSH1 0x60 ADD SWAP1 JUMP JUMPDEST PUSH1 0x40 MLOAD DUP2 DUP2 ADD PUSH1 0x1 PUSH1 0x1 PUSH1 0x40 SHL SUB DUP2 GT DUP3 DUP3 LT OR ISZERO PUSH2 0x4B53 JUMPI INVALID JUMPDEST PUSH1 0x40 MSTORE SWAP2 SWAP1 POP JUMP JUMPDEST PUSH1 0x0 PUSH1 0x1 PUSH1 0x1 PUSH1 0x40 SHL SUB DUP3 GT ISZERO PUSH2 0x4B6E JUMPI INVALID JUMPDEST POP PUSH1 0x20 SWAP1 DUP2 MUL ADD SWAP1 JUMP JUMPDEST PUSH1 0x1 PUSH1 0x1 PUSH1 0xA0 SHL SUB DUP2 AND DUP2 EQ PUSH2 0xEFB JUMPI PUSH1 0x0 DUP1 REVERT JUMPDEST PUSH2 0xFFFF DUP2 AND DUP2 EQ PUSH2 0xEFB JUMPI PUSH1 0x0 DUP1 REVERT INVALID COINBASE PUSH5 0x6472657373 GASPRICE KECCAK256 PUSH10 0x6E73756666696369656E PUSH21 0x2062616C616E636520666F722063616C6C53616665 GASLIMIT MSTORE NUMBER ORIGIN ADDRESS GASPRICE KECCAK256 GASLIMIT MSTORE NUMBER ORIGIN ADDRESS KECCAK256 PUSH16 0x7065726174696F6E20646964206E6F74 KECCAK256 PUSH20 0x756363656564A26469706673582212208A85ABA9 SWAP7 0xE3 PUSH21 0xA9D4E465A8B2B86E24C3540DE7D0368F79EB646CD4 0xDF BLOCKHASH CALLDATACOPY 0xF9 PUSH5 0x736F6C6343 STOP SMOD MOD STOP CALLER ","sha1":"4c334a386e646ad6bf41efb405af7c3f7eb6bb32","source":"// SPDX-License-Identifier: BSUL-1.1\npragma solidity =0.7.6;\npragma abicoder v2;\n\nimport {\n    Token,\n    PrimeRate,\n    PrimeCashFactors,\n    PrimeCashFactorsStorage,\n    RebalancingContextStorage\n} from \"../../global/Types.sol\";\nimport {StorageLayoutV2} from \"../../global/StorageLayoutV2.sol\";\nimport {LibStorage} from \"../../global/LibStorage.sol\";\nimport {Constants} from \"../../global/Constants.sol\";\nimport {SafeInt256} from \"../../math/SafeInt256.sol\";\nimport {SafeUint256} from \"../../math/SafeUint256.sol\";\n\nimport {Emitter} from \"../../internal/Emitter.sol\";\nimport {BalanceHandler} from \"../../internal/balances/BalanceHandler.sol\";\nimport {PrimeRateLib} from \"../../internal/pCash/PrimeRateLib.sol\";\nimport {TokenHandler} from \"../../internal/balances/TokenHandler.sol\";\nimport {nTokenHandler} from \"../../internal/nToken/nTokenHandler.sol\";\nimport {nTokenSupply} from \"../../internal/nToken/nTokenSupply.sol\";\nimport {PrimeCashExchangeRate, PrimeCashFactors} from \"../../internal/pCash/PrimeCashExchangeRate.sol\";\nimport {GenericToken} from \"../../internal/balances/protocols/GenericToken.sol\";\n\nimport {ActionGuards} from \"./ActionGuards.sol\";\nimport {NotionalTreasury} from \"../../../interfaces/notional/NotionalTreasury.sol\";\nimport {Comptroller} from \"../../../interfaces/compound/ComptrollerInterface.sol\";\nimport {IRewarder} from \"../../../interfaces/notional/IRewarder.sol\";\nimport {CErc20Interface} from \"../../../interfaces/compound/CErc20Interface.sol\";\nimport {IPrimeCashHoldingsOracle, DepositData, RedeemData} from \"../../../interfaces/notional/IPrimeCashHoldingsOracle.sol\";\nimport {IRebalancingStrategy, RebalancingData} from \"../../../interfaces/notional/IRebalancingStrategy.sol\";\nimport {IERC20} from \"@openzeppelin/contracts/token/ERC20/IERC20.sol\";\nimport {SafeERC20} from \"@openzeppelin/contracts/token/ERC20/SafeERC20.sol\";\nimport {Address} from \"@openzeppelin/contracts/utils/Address.sol\";\n\ncontract TreasuryAction is StorageLayoutV2, ActionGuards, NotionalTreasury {\n    using SafeUint256 for uint256;\n    using SafeInt256 for int256;\n    using SafeERC20 for IERC20;\n    using TokenHandler for Token;\n\n    IERC20 public immutable COMP;\n    Comptroller public immutable COMPTROLLER;\n\n    /// @dev Harvest methods are only callable by the authorized treasury manager contract\n    modifier onlyManagerContract() {\n        require(treasuryManagerContract == msg.sender, \"Treasury manager required\");\n        _;\n    }\n\n    constructor(Comptroller _comptroller) {\n        COMPTROLLER = _comptroller;\n        COMP = address(_comptroller) == address(0) ? IERC20(address(0)) : IERC20(_comptroller.getCompAddress());\n    }\n\n    /// @notice Sets the new treasury manager contract\n    function setTreasuryManager(address manager) external override onlyOwner {\n        emit TreasuryManagerChanged(treasuryManagerContract, manager);\n        treasuryManagerContract = manager;\n    }\n\n    /// @notice Sets the reserve buffer. This is the amount of reserve balance to keep denominated in 1e8\n    /// The reserve cannot be harvested if it's below this amount. This portion of the reserve will remain on\n    /// the contract to act as a buffer against potential insolvency.\n    /// @param currencyId refers to the currency of the reserve\n    /// @param bufferAmount reserve buffer amount to keep in internal token precision (1e8)\n    function setReserveBuffer(uint16 currencyId, uint256 bufferAmount) external override onlyOwner {\n        _checkValidCurrency(currencyId);\n        reserveBuffer[currencyId] = bufferAmount;\n        emit ReserveBufferUpdated(currencyId, bufferAmount);\n    }\n\n    /// @notice Updates the emission rate of incentives for a given currency\n    /// @dev emit:UpdateIncentiveEmissionRate\n    /// @param currencyId the currency id that the nToken references\n    /// @param newEmissionRate Target total incentives to emit for an nToken over an entire year\n    /// denominated in WHOLE TOKENS (i.e. setting this to 1 means 1e8 tokens). The rate will not be\n    /// exact due to multiplier effects and fluctuating token supply.\n    function updateIncentiveEmissionRate(uint16 currencyId, uint32 newEmissionRate)\n        external\n        override\n        onlyOwner\n    {\n        _checkValidCurrency(currencyId);\n        address nTokenAddress = nTokenHandler.nTokenAddress(currencyId);\n        require(nTokenAddress != address(0));\n        // Sanity check that emissions rate is not specified in 1e8 terms.\n        require(newEmissionRate < Constants.INTERNAL_TOKEN_PRECISION, \"Invalid rate\");\n\n        nTokenSupply.setIncentiveEmissionRate(nTokenAddress, newEmissionRate, block.timestamp);\n        emit UpdateIncentiveEmissionRate(currencyId, newEmissionRate);\n    }\n\n\n    /// @notice This is used in the case of insolvency. It allows the owner to re-align the reserve with its correct balance.\n    /// @param currencyId refers to the currency of the reserve\n    /// @param newBalance new reserve balance to set, must be less than the current balance\n    function setReserveCashBalance(uint16 currencyId, int256 newBalance)\n        external\n        override\n        onlyOwner\n    {\n        _checkValidCurrency(currencyId);\n        // newBalance cannot be negative and is checked inside BalanceHandler.setReserveCashBalance\n        BalanceHandler.setReserveCashBalance(currencyId, newBalance);\n    }\n\n    /// @notice Claims COMP incentives earned and transfers to the treasury manager contract.\n    /// @param cTokens a list of cTokens to claim incentives for\n    /// @return the balance of COMP claimed\n    function claimCOMPAndTransfer(address[] calldata cTokens)\n        external\n        override\n        onlyManagerContract\n        nonReentrant\n        returns (uint256)\n    {\n        uint256 balanceBefore = COMP.balanceOf(address(this));\n        COMPTROLLER.claimComp(address(this), cTokens);\n        uint256 balanceAfter = COMP.balanceOf(address(this));\n\n        // NOTE: the onlyManagerContract modifier prevents a transfer to address(0) here\n        uint256 netBalance = balanceAfter.sub(balanceBefore);\n        if (netBalance > 0) {\n            COMP.safeTransfer(msg.sender, netBalance);\n        }\n\n        // NOTE: TreasuryManager contract will emit a COMPHarvested event\n        return netBalance;\n    }\n\n    /// @notice redeems and transfers tokens to the treasury manager contract\n    function _redeemAndTransfer(uint16 currencyId, int256 primeCashRedeemAmount) private returns (uint256) {\n        PrimeRate memory primeRate = PrimeRateLib.buildPrimeRateStateful(currencyId);\n        Emitter.emitTransferPrimeCash(Constants.FEE_RESERVE, treasuryManagerContract, currencyId, primeCashRedeemAmount);\n\n        int256 actualTransferExternal = TokenHandler.withdrawPrimeCash(\n            treasuryManagerContract,\n            currencyId,\n            primeCashRedeemAmount.neg(),\n            primeRate,\n            true // if ETH, transfers it as WETH\n        ).neg();\n\n        require(actualTransferExternal > 0);\n        return uint256(actualTransferExternal);\n    }\n\n    /// @notice Transfers some amount of reserve assets to the treasury manager contract to be invested\n    /// into the sNOTE pool.\n    /// @param currencies an array of currencies to transfer from Notional\n    function transferReserveToTreasury(uint16[] calldata currencies)\n        external\n        override\n        onlyManagerContract\n        nonReentrant\n        returns (uint256[] memory)\n    {\n        uint256[] memory amountsTransferred = new uint256[](currencies.length);\n\n        for (uint256 i; i < currencies.length; ++i) {\n            // Prevents duplicate currency IDs\n            if (i > 0) require(currencies[i] > currencies[i - 1], \"IDs must be sorted\");\n\n            uint16 currencyId = currencies[i];\n\n            _checkValidCurrency(currencyId);\n\n            // Reserve buffer amount in INTERNAL_TOKEN_PRECISION\n            int256 bufferInternal = SafeInt256.toInt(reserveBuffer[currencyId]);\n\n            // Reserve requirement not defined\n            if (bufferInternal == 0) continue;\n\n            int256 reserveInternal = BalanceHandler.getPositiveCashBalance(Constants.FEE_RESERVE, currencyId);\n\n            // Do not withdraw anything if reserve is below or equal to reserve requirement\n            if (reserveInternal <= bufferInternal) continue;\n\n            // Actual reserve amount allowed to be redeemed and transferred\n            // NOTE: overflow not possible with the check above\n            int256 primeCashRedeemed = reserveInternal - bufferInternal;\n\n            // Redeems prime cash and transfer underlying to treasury manager contract\n            amountsTransferred[i] = _redeemAndTransfer(currencyId, primeCashRedeemed);\n\n            // Updates the reserve balance\n            BalanceHandler.harvestExcessReserveBalance(\n                currencyId,\n                reserveInternal,\n                primeCashRedeemed\n            );\n        }\n\n        // NOTE: TreasuryManager contract will emit an AssetsHarvested event\n        return amountsTransferred;\n    }\n\n    function setRebalancingTargets(uint16 currencyId, RebalancingTargetConfig[] calldata targets) external override onlyOwner {\n        IPrimeCashHoldingsOracle oracle = PrimeCashExchangeRate.getPrimeCashHoldingsOracle(currencyId);\n        address[] memory holdings = oracle.holdings();\n\n        require(targets.length == holdings.length);\n\n        mapping(address => uint8) storage rebalancingTargets = LibStorage.getRebalancingTargets()[currencyId];\n        uint256 totalPercentage;\n        for (uint256 i; i < holdings.length; ++i) {\n            RebalancingTargetConfig calldata config = targets[i];\n            address holding = holdings[i];\n\n            require(config.holding == holding);\n            totalPercentage = totalPercentage.add(config.target);\n            rebalancingTargets[holding] = config.target;\n        }\n        require(totalPercentage <= uint256(Constants.PERCENTAGE_DECIMALS));\n\n        emit RebalancingTargetsUpdated(currencyId, targets);\n    }\n\n    function setRebalancingCooldown(uint16 currencyId, uint40 cooldownTimeInSeconds) external override onlyOwner {\n        mapping(uint16 => RebalancingContextStorage) storage store = LibStorage.getRebalancingContext();\n        store[currencyId].rebalancingCooldownInSeconds = cooldownTimeInSeconds;\n        emit RebalancingCooldownUpdated(currencyId, cooldownTimeInSeconds);\n    }\n\n    function rebalance(uint16[] calldata currencyId) external override onlyManagerContract {\n        for (uint256 i; i < currencyId.length; ++i) {\n            _rebalanceCurrency(currencyId[i]);\n        }\n    }\n\n    function _rebalanceCurrency(uint16 currencyId) private {\n        RebalancingContextStorage memory context = LibStorage.getRebalancingContext()[currencyId];\n\n        require(\n            uint256(context.lastRebalanceTimestampInSeconds).add(context.rebalancingCooldownInSeconds) < block.timestamp, \n            \"Rebalancing cooldown\"\n        );\n\n        // Accrues interest up to the current block before any rebalancing is executed\n        PrimeRate memory pr = PrimeRateLib.buildPrimeRateStateful(currencyId);\n\n        _executeRebalance(currencyId);\n\n        // if previous underlying scalar at rebalance == 0, then it is the first rebalance and\n        // annualized interest rate will be left as zero. The previous underlying scalar will\n        // be set to the new factors.underlyingScalar.\n        uint256 annualizedInterestRate;\n        uint256 supplyFactor = pr.supplyFactor.toUint();\n        if (context.previousSupplyFactorAtRebalance != 0) {\n            uint256 interestRate = supplyFactor\n                .mul(Constants.SCALAR_PRECISION)\n                .div(context.previousSupplyFactorAtRebalance)\n                .sub(Constants.SCALAR_PRECISION) \n                .div(uint256(Constants.RATE_PRECISION));\n\n            annualizedInterestRate = interestRate\n                .mul(Constants.YEAR)\n                .div(block.timestamp.sub(context.lastRebalanceTimestampInSeconds));\n        }\n\n        _saveRebalancingContext(currencyId, supplyFactor.toUint128());\n        _saveOracleSupplyRate(currencyId, annualizedInterestRate);\n\n        emit CurrencyRebalanced(currencyId, supplyFactor, annualizedInterestRate);\n    }\n\n    function _saveOracleSupplyRate(uint16 currencyId, uint256 annualizedInterestRate) private {\n        mapping(uint256 => PrimeCashFactorsStorage) storage store = LibStorage.getPrimeCashFactors();\n        store[currencyId].oracleSupplyRate = annualizedInterestRate.toUint32();\n    }\n\n    function _saveRebalancingContext(uint16 currencyId, uint128 supplyFactor) private {\n        mapping(uint16 => RebalancingContextStorage) storage store = LibStorage.getRebalancingContext();\n        store[currencyId].lastRebalanceTimestampInSeconds = block.timestamp.toUint40();\n        store[currencyId].previousSupplyFactorAtRebalance = supplyFactor;\n    }\n\n    function _getRebalancingTargets(uint16 currencyId, address[] memory holdings) private view returns (uint8[] memory targets) {\n        mapping(address => uint8) storage rebalancingTargets = LibStorage.getRebalancingTargets()[currencyId];\n        targets = new uint8[](holdings.length);\n        uint256 totalPercentage;\n        for (uint256 i; i < holdings.length; ++i) {\n            uint8 target = rebalancingTargets[holdings[i]];\n            targets[i] = target;\n            totalPercentage = totalPercentage.add(target);\n        }\n        require(totalPercentage <= uint256(Constants.PERCENTAGE_DECIMALS));\n    }\n\n    function _executeRebalance(uint16 currencyId) private {\n        IPrimeCashHoldingsOracle oracle = PrimeCashExchangeRate.getPrimeCashHoldingsOracle(currencyId);\n        address[] memory holdings = oracle.holdings();\n        uint8[] memory rebalancingTargets = _getRebalancingTargets(currencyId, holdings);\n        RebalancingData memory data = _calculateRebalance(oracle, holdings, rebalancingTargets);\n\n        (uint256 totalUnderlyingValueBefore, /* */) = oracle.getTotalUnderlyingValueStateful();\n\n        // Process redemptions first\n        Token memory underlyingToken = TokenHandler.getUnderlyingToken(currencyId);\n        (bool hasFailure, /* */) = TokenHandler.executeMoneyMarketRedemptions(underlyingToken, data.redeemData);\n\n        if (!hasFailure) {\n            // Process deposits only if redemptions were successful\n            _executeDeposits(underlyingToken, data.depositData);\n        }\n\n        (uint256 totalUnderlyingValueAfter, /* */) = oracle.getTotalUnderlyingValueStateful();\n\n        int256 underlyingDelta = totalUnderlyingValueBefore.toInt().sub(totalUnderlyingValueAfter.toInt());\n        int256 percentChange = underlyingDelta.abs().mul(Constants.RATE_PRECISION)\n            .div(totalUnderlyingValueBefore.toInt());\n        require(percentChange < Constants.REBALANCING_UNDERLYING_DELTA_PERCENT);\n    }\n\n    function _executeDeposits(Token memory underlyingToken, DepositData[] memory deposits) private {\n        uint256 totalUnderlyingDepositAmount;\n        \n        for (uint256 i; i < deposits.length; i++) {\n            DepositData memory depositData = deposits[i];\n            // Measure the token balance change if the `assetToken` value is set in the\n            // current deposit data struct. \n            uint256 oldAssetBalance = IERC20(depositData.assetToken).balanceOf(address(this));\n\n            // Measure the underlying balance change before and after the call.\n            uint256 oldUnderlyingBalance = underlyingToken.balanceOf(address(this));\n\n            for (uint256 j; j < depositData.targets.length; ++j) {\n                GenericToken.executeLowLevelCall(\n                    depositData.targets[j], \n                    depositData.msgValue[j], \n                    depositData.callData[j],\n                    true // Allow low level calls to revert\n                );\n            }\n\n            // Ensure that the underlying balance change matches the deposit amount\n            uint256 newUnderlyingBalance = underlyingToken.balanceOf(address(this));\n            uint256 underlyingBalanceChange = oldUnderlyingBalance.sub(newUnderlyingBalance);\n            // If the call is not the final deposit, then underlyingDepositAmount should\n            // be set to zero.\n            require(underlyingBalanceChange <= depositData.underlyingDepositAmount);\n        \n            // Measure and update the asset token\n            uint256 newAssetBalance = IERC20(depositData.assetToken).balanceOf(address(this));\n            require(oldAssetBalance <= newAssetBalance);\n            TokenHandler.updateStoredTokenBalance(depositData.assetToken, oldAssetBalance, newAssetBalance);\n\n            // Update the total value with the net change\n            totalUnderlyingDepositAmount = totalUnderlyingDepositAmount.add(underlyingBalanceChange);\n\n            // totalUnderlyingDepositAmount needs to be subtracted from the underlying balance because\n            // we are trading underlying cash for asset cash\n            TokenHandler.updateStoredTokenBalance(underlyingToken.tokenAddress, oldUnderlyingBalance, newUnderlyingBalance);\n        }\n    }\n\n    function _calculateRebalance(\n        IPrimeCashHoldingsOracle oracle,\n        address[] memory holdings,\n        uint8[] memory rebalancingTargets\n    ) private view returns (RebalancingData memory rebalancingData) {\n        uint256[] memory values = oracle.holdingValuesInUnderlying();\n\n        (\n            uint256 totalValue,\n            /* uint256 internalPrecision */\n        ) = oracle.getTotalUnderlyingValueView();\n\n        address[] memory redeemHoldings = new address[](holdings.length);\n        uint256[] memory redeemAmounts = new uint256[](holdings.length);\n        address[] memory depositHoldings = new address[](holdings.length);\n        uint256[] memory depositAmounts = new uint256[](holdings.length);\n\n        for (uint256 i; i < holdings.length; i++) {\n            address holding = holdings[i];\n            uint256 targetAmount = totalValue.mul(rebalancingTargets[i]).div(\n                uint256(Constants.PERCENTAGE_DECIMALS)\n            );\n            uint256 currentAmount = values[i];\n\n            redeemHoldings[i] = holding;\n            depositHoldings[i] = holding;\n\n            if (targetAmount < currentAmount) {\n                redeemAmounts[i] = currentAmount - targetAmount;\n            } else if (currentAmount < targetAmount) {\n                depositAmounts[i] = targetAmount - currentAmount;\n            }\n        }\n\n        rebalancingData.redeemData = oracle.getRedemptionCalldataForRebalancing(redeemHoldings, redeemAmounts);\n        rebalancingData.depositData = oracle.getDepositCalldataForRebalancing(depositHoldings, depositAmounts);\n    }\n\n    /// @notice Sets a secondary incentive rewarder for a currency. This contract will\n    /// be called whenever an nToken balance changes and allows a secondary contract to\n    /// mint incentives to the account. This will override any previous rewarder, if set.\n    /// Will have no effect if there is no nToken corresponding to the currency id.\n    /// @dev emit:UpdateSecondaryIncentiveRewarder\n    /// @param currencyId currency id of the nToken\n    /// @param rewarder rewarder contract\n    function setSecondaryIncentiveRewarder(uint16 currencyId, IRewarder rewarder) external override onlyOwner {\n        _checkValidCurrency(currencyId);\n\n        address nTokenAddress= nTokenHandler.nTokenAddress(currencyId);\n        if (address(rewarder) != address(0)) {\n            require(currencyId == rewarder.CURRENCY_ID());\n            require(nTokenAddress == rewarder.NTOKEN_ADDRESS());\n            require(!rewarder.detached());\n        }\n\n        IRewarder currentRewarder = nTokenHandler.getSecondaryRewarder(nTokenAddress);\n        require(address(rewarder) != address(currentRewarder));\n        if (address(currentRewarder) != address(0)) {\n            currentRewarder.detach();\n        }\n        nTokenHandler.setSecondaryRewarder(currencyId, rewarder);\n        emit UpdateSecondaryIncentiveRewarder(currencyId, address(rewarder));\n    }\n}","sourcePath":"contracts/external/actions/TreasuryAction.sol","type":"contract","deployment":{"address":"0xD45Df6e08425DC619F18C7eB8De4016BC52e3569","chainid":"42161","blockHeight":164626860}}