{"abi":[{"inputs":[{"internalType":"address","name":"account","type":"address"}],"name":"getFreeCollateralView","outputs":[{"internalType":"int256","name":"","type":"int256"},{"internalType":"int256[]","name":"","type":"int256[]"}],"stateMutability":"view","type":"function"}],"bytecode":"614e49610026600b82828239805160001a60731461001957fe5b30600052607381538281f3fe730000000000000000000000000000000000000000301460806040526004361061004b5760003560e01c8063451d958f146100505780636cb65eaf146100885780636ccc642f146100a9575b600080fd5b81801561005c57600080fd5b5061007061006b366004614874565b6100cb565b60405161007f93929190614d1a565b60405180910390f35b61009b61009636600461485a565b6101c8565b60405161007f929190614b64565b8180156100b557600080fd5b506100c96100c436600461485a565b61021d565b005b6100d36144c7565b6100db6144fc565b60606100e56102a1565b6100ee86610377565b92506100f983610426565b1561018a576040516337b5fc2160e11b815273__SettleAssetsExternal__________________90636f6bf842906101379089908790600401614b47565b60c06040518083038186803b15801561014f57600080fd5b505af4158015610163573d6000803e3d6000fd5b505050506040513d601f19601f8201168201806040525081019061018791906148a6565b92505b6101938361047a565b156101ac57826060015161ffff1685146101ac57600080fd5b6101b98684428888610487565b93979096509294509192505050565b6000606060006101d784610377565b90506101e281610426565b156102085760405162461bcd60e51b81526004016101ff90614c08565b60405180910390fd5b6102138482426106e6565b9250925050915091565b6102256102a1565b600061023082610377565b905061023b81610426565b156102585760405162461bcd60e51b81526004016101ff90614c08565b60008061026684844261092c565b91509150801561027a5761027a8385610b0a565b600082121561029b5760405162461bcd60e51b81526004016101ff90614ce3565b50505050565b60008073fdb631f5ee196f0ed6faa767959853a9f217697d6001600160a01b031663feaf968c6040518163ffffffff1660e01b815260040160a06040518083038186803b1580156102f157600080fd5b505afa158015610305573d6000803e3d6000fd5b505050506040513d601f19601f82011682018060405250810190610329919061496c565b50509250925050816000146103505760405162461bcd60e51b81526004016101ff90614c8c565b804203610e10106103735760405162461bcd60e51b81526004016101ff90614c5c565b5050565b61037f6144c7565b6000610389610c27565b6001600160a01b03841660009081526020918252604090819020815160c081018352905464ffffffffff811682526001600160f81b0319600160281b820460f81b169382019390935260ff600160301b840481169282019290925261ffff600160381b84041660608201526001600160701b0319600160481b840460701b166080820152600160d81b90920416151560a08201529150505b919050565b6000426104328361047a565b156104535761044081610c3a565b835164ffffffffff161091506104219050565b825164ffffffffff16158015906104725750825164ffffffffff168110155b915050610421565b6060015161ffff16151590565b61048f6144fc565b6060610499614581565b6104a16144fc565b6001600160a01b03891681526104b68861047a565b1561058f576104c88860600151610c5b565b6060830152600080806104dd8c8b8d88610c81565b92509250925060006104f18d8c8e89610cdc565b90506000610509826105038787610d95565b90610d95565b90508660600151604001518760a0018190525060006105318e6060015161ffff16838a610dab565b90508b8e6060015161ffff161415610584576040870182905260c0870181905260a08801516101008801528a610584576060880151610120880152608087018590526001600160d01b0319841660a08801525b5050505050506105a3565b61059d898960400151610df6565b60808301525b60808801515b6001600160701b0319811615610687576060890151819060009060f083901c613fff169061ffff168114156105dd57600080fd5b89811480156105ea575088155b806105f457508881145b9150506000610606868685858f610e0a565b905060f083901c613fff16600061061e82848a610dab565b90508a82141561064a5760a0880151610120880151604001526060870183905260e0870181905261066c565b8b82141561066c576040870183905260c0870181905260a08801516101008801525b6010866001600160701b031916901b955050505050506105a9565b8251602083018190526000136106af5760405162461bcd60e51b81526004016101ff90614cb4565b604089015160ff16156106d0576106ca8a8a60400151610df6565b60808401525b5060809091015190925090509550959350505050565b600060606106f2614581565b60408051600a808252610160820190925260009182919060208201610140803683370190505090506107238761047a565b156107cb576107358760600151610ec3565b60608401526000806107498a898b88610c81565b5091509150600061075c8b8a8c89610cdc565b905061076c816105038585610d95565b84868151811061077857fe5b6020026020010181815250508560600151604001518660a001819052506107bb8a6060015161ffff168587815181106107ad57fe5b602002602001015188610dab565b5050600190930192506107df9050565b6107d9888860400151610df6565b60808401525b60808701515b6001600160701b031981161561091a576060880151819060f082901c613fff169061ffff1681141561081657600080fd5b6000610822828b610ee4565b5060a08801819052610837908d908590610fa2565b86888151811061084357fe5b6020026020010181935082815250505061085c83610fe7565b806108675750600081135b156108d25761087582610ec3565b606088015260008061088889848e610ff3565b50915091506108b781610503848a8c815181106108a157fe5b6020026020010151610d9590919063ffffffff16565b8789815181106108c357fe5b60200260200101818152505050505b6108f48261ffff168688815181106108e657fe5b602002602001015189610dab565b505050600193909301925060101b6fffffffffffffffffffffffffffffffff19166107e5565b5091519350909150505b935093915050565b600080610937614581565b60006109428661047a565b156109c9576109548660600151610c5b565b606083015260008061096889888a87610c81565b5091509150600082121561097b57600192505b60006109898a898b88610cdc565b9050600061099b826105038686610d95565b6060808801516040015160a08901528b01519091506109bf9061ffff168288610dab565b50505050506109dd565b6109d7878760400151610df6565b60808301525b60808601515b6001600160701b0319811615610ac1576060870151819060f082901c613fff169061ffff16811415610a1457600080fd5b610a1d816110a3565b8560a00181905250600080610a378c858960a00151610fa2565b915091506000821215610a4957600195505b610a5284610fe7565b80610a5d5750600081135b15610a9757610a6b83610c5b565b6060880152600080610a7e89848e610ff3565b509092509050610a92816105038685610d95565b935050505b610aa68361ffff168389610dab565b506010856001600160701b031916901b9450505050506109e3565b6020870151600160f91b908116148015610ad9575081155b15610af4576020808801805160fd60f81b1690526001908401525b5050805160209091015190969095509350505050565b6000610b14610c27565b6001600160a01b03831660008181526020838152604080832088518154938a01518a84015160608c015160808d015160a08e015164ffffffffff1990981664ffffffffff9095169490941765ff00000000001916600160281b60f89490941c939093029290921766ff0000000000001916600160301b60ff909216919091021768ffff000000000000001916600160381b61ffff90921691909102177affffffffffffffffffffffffffffffffffff0000000000000000001916600160481b60709290921c919091021760ff60d81b1916600160d81b93151593909302929092179091555192935090917f6bd4b121bca854a191536a2ca891155c42ee2fb23f307fb34e8bc65cfcb5412e9190a2505050565b600080610c3460016110b5565b92915050565b600062015180821015610c4c57600080fd5b62015180825b06909103919050565b610c636145d1565b6000610c6e836110a3565b9050610c7a83826110ce565b9392505050565b600080600080610c9e888760600151876060015160400151611111565b509195509150506000811315610ccc57610cc285606001518660c00151838a6111cb565b9093509150610cd1565b600092505b509450945094915050565b6000806000610d0787866060015161ffff16876000015164ffffffffff16898860600151600161123f565b60208701519193509150600160f81b90811614818015610d25575080155b15610d4e5760208681018051600160f81b176001600160f81b0319169052600190860152610d74565b81158015610d595750805b15610d745760208087018051607f60f91b1690526001908601525b606085015160400151610d87908461126f565b93505050505b949350505050565b81810182811215600083121514610c3457600080fd5b610db36145f0565b6000610dbe856112af565b9050610dec610de4610ddd868660a0015161141290919063ffffffff16565b839061143f565b845190610d95565b9092525092915050565b6060610e0283836114a2565b509392505050565b600060f084901c613fff16610e1e816110a3565b60a0880181905286516000918291610e37918990610fa2565b91509150610e4487610fe7565b80610e4f5750600081135b15610eb557610e5d83610c5b565b60608a015260008080610e718c858a610ff3565b91945092509050610e86826105038786610d95565b94508815610eb15760608c01516101208c01526001600160d01b0319811660a08c015260808b018290525b5050505b509150505b95945050505050565b610ecb6145d1565b6000610ed78342610ee4565b509050610c7a83826110ce565b610eec61461f565b610ef4614640565b610efd846114c3565b90508281600001511015610f2e576000610f168561158b565b9050610f2485838387611606565b509150610f3b9050565b80518314610f3b57600080fd5b6040518060600160405280610f69610f648460a001518560c001516116aa90919063ffffffff16565b6116d1565b8152602001610f8c610f648460a001518560e001516116aa90919063ffffffff16565b8152602001826060015181525091509250929050565b600080600160fe1b8481161415610fda5760f084901c613fff16600080610fca888488611111565b5091965094506109249350505050565b5060009485945092505050565b600160ff1b9081161490565b6000806000856080015151866040015110801561103e575085606001516000015161ffff16866080015187604001518151811061102c57fe5b60200260200101516000015161ffff16145b156110675761105b866080015187606001518689604001516116eb565b6040880152925061106c565b600092505b60008513156110935761108986606001518760c0015187876111cb565b909250905061109a565b5060009050805b93509350939050565b6110ab61461f565b610c348242611796565b6000620f42408260268111156110c757fe5b0192915050565b6110d66145d1565b60006110e58461ffff16611857565b6040805160808101825261ffff96909616865260ff821660208701528501939093525050606082015290565b6000806000806000611121611874565b6001600160a01b03891660009081526020828152604080832061ffff8c168452909152902080546001600160501b0381169650600160501b900463ffffffff169450909150831561118e57805461118790600160701b900466ffffffffffffff16611881565b92506111a3565b8054600160701b900466ffffffffffffff1692505b80546111be908890600160a81b9004600a90810b900b61188f565b9550505093509350935093565b835160009081906111dd9086906118bd565b85855260006111ec8685611959565b9050600061122b876040015161122560646112258b60a00151600360ff166006811061121457fe5b1a61121f8c896119a9565b906119a9565b906119f7565b60a097909701519698969750505050505050565b600080600061124e8989611a28565b905061125f89898989898987611a5d565b9250925050965096945050505050565b8151600090819061129390611225856ec097ce7bc90715b34b9f10000000006119a9565b9050600083126112a35780610d8d565b610d8d81600019611adb565b6112b76145f0565b60006112c1611af1565b60008481526020829052604081209192508060018614156112ee5750670de0b6b3a76400009050806113b1565b825460408051633fabe5a360e21b815290516001600160a01b039092169163feaf968c9160048082019260a092909190829003018186803b15801561133257600080fd5b505afa158015611346573d6000803e3d6000fd5b505050506040513d601f19601f8201168201806040525081019061136a919061496c565b5091935050600083139150611380905057600080fd5b825460ff600160a01b82048116600a0a9350600160a81b90910416156113b1576113ae8161122584806119a9565b90505b8254600160b01b900460ff1660968113156113d15760951901600a026096015b6040805160a081018252938452602084019290925290820152905460ff600160b81b820481166060840152600160c01b909104166080820152915050919050565b6000806112936ec097ce7bc90715b34b9f10000000006112258660000151866119a990919063ffffffff16565b6000806000831361145457836040015161145a565b83606001515b90506000611486856000015161122560646112258661121f8b602001518b6119a990919063ffffffff16565b9050600084126114965780610eba565b610eba81600019611adb565b6060806114af8484611afe565b91506114ba82611c20565b90509250929050565b6114cb614640565b60006114d5611de1565b61ffff93841660009081526020918252604090819020805464ffffffffff81168652600160281b81046001600160581b03908116948701949094526001820154841692860192909252600160d81b820463ffffffff166060860152600160801b9091049091166080840152600201546001600160501b0380821660a0850152600160501b8204811660c0850152600160a01b82041660e0840152600160f01b900460ff1661012c02909216610100820152919050565b60008061159783611dee565b6001600160a01b031663a77c05b86040518163ffffffff1660e01b8152600401604080518083038186803b1580156115ce57600080fd5b505afa1580156115e2573d6000803e3d6000fd5b505050506040513d601f19601f82011682018060405250810190610d8d9190614949565b61160e614640565b600080600061161e888689611e1e565b60c08b019290925260e08a0192909252602089015191935091506116429083611f2f565b602088015260808701516000901561167057608088015161166d906116678982611f41565b90611f56565b90505b611690611685670de0b6b3a764000083611f2f565b60a08a015190611f73565b60a089015250506080860194909452505082529092909150565b6000826116b957506000610c34565b828202828482816116c657fe5b0414610c7a57600080fd5b60006001600160ff1b038211156116e757600080fd5b5090565b6000808080845b885181101561176e57600089828151811061170957fe5b60200260200101519050600160ff168160400151146117285750611766565b8851815161ffff90811691161461173f575061176e565b60006117558a836060015184602001518c611f90565b90506117618482610d95565b935050505b6001016116f2565b604088015161178890611781908461126f565b8490610d95565b999098509650505050505050565b61179e61461f565b60006117a9846114c3565b905082816000015110156117e8576000806117c386612009565b90506117d186848388611606565b90935091506117e1868385612062565b50506117f5565b805183146117f557600080fd5b604051806060016040528061181e610f648460a001518560c001516116aa90919063ffffffff16565b8152602001611841610f648460a001518560e001516116aa90919063ffffffff16565b8152602001826060015181525091505092915050565b600080611862612296565b60009384526020525050604090205490565b600080610c3460066110b5565b600881901c60ff9091161b90565b600080821261189f575080610c34565b825160208401516118b691906112259085906119a9565b9050610c34565b6118ca8161ffff166122a3565b6001600160a01b031660c08301819052600090819081906118ea906122c9565b945094509450505060006119018660c00151612332565b505060808701859052604087018190526001600160d01b0319831660a088015260c08701519091506119359084600061239c565b602087015260c0860151611949908661242f565b6060909601959095525050505050565b60008061196584612488565b9050828111611975576001810392505b506000611984848460016124b2565b5090506000611993858561260f565b6060860151909150610eba906105038484610d95565b8181026000198314156119d9578115806119cb5750828282816119c857fe5b05145b6119d457600080fd5b610c34565b8215806119ee5750818382816119eb57fe5b05145b610c3457600080fd5b600081600019148015611a0d5750600160ff1b83145b15611a1757600080fd5b818381611a2057fe5b059392505050565b600080611a33612694565b6001600160a01b038516600090815260209182526040808220868352909252205491505092915050565b6000806000611a6b846126a1565b90505b8015611ace576000611a8089836126c6565b90506000611a928c8c848c8c8c612779565b9050611a9e8582610d95565b94506000811215611aae57600193505b611aba868460006127db565b9550611ac5866126a1565b92505050611a6e565b5097509795505050505050565b6000818312611aea5781610c7a565b5090919050565b600080610c3460106110b5565b606060088260ff161115611b1157600080fd5b6000611b1b612826565b6001600160a01b038516600090815260208290526040812091925060ff851667ffffffffffffffff81118015611b5057600080fd5b50604051908082528060200260200182016040528015611b8a57816020015b611b7761468c565b815260200190600190039081611b6f5790505b50905060005b8560ff16811015611c16576000838260088110611ba957fe5b0190506000838381518110611bba57fe5b602090810291909101810151835461ffff8116825264ffffffffff620100008204169282019290925260ff600160381b8304166040820152600160401b909104600a90810b900b60608201526080019190915250600101611b90565b5095945050505050565b80516060908067ffffffffffffffff81118015611c3c57600080fd5b50604051908082528060200260200182016040528015611c66578160200160208202803683370190505b50915060005b81811015611cc3576000848281518110611c8257fe5b60200260200101519050611ca3816000015182602001518360400151612833565b848381518110611caf57fe5b602090810291909101015250600101611c6c565b5060015b81811015611dda57805b600081118015611d095750838181518110611ce857fe5b6020026020010151846001830381518110611cff57fe5b6020026020010151115b15611dd157838181518110611d1a57fe5b6020026020010151846001830381518110611d3157fe5b6020026020010151856001840381518110611d4857fe5b60200260200101868481518110611d5b57fe5b6020026020010182815250828152505050848181518110611d7857fe5b6020026020010151856001830381518110611d8f57fe5b6020026020010151866001840381518110611da657fe5b60200260200101878481518110611db957fe5b60209081029190910101919091525260001901611cd1565b50600101611cc7565b5050919050565b600080610c34601d6110b5565b600080611df961285c565b61ffff939093166000908152602093909352505060409020546001600160a01b031690565b600080600080600080611e318988612869565b89519095509193509150600090611e5890611e4d908b90611f41565b633b9aca00906116aa565b9050611e92611e876301da9c00611e6f85856116aa565b81611e7657fe5b670de0b6b3a7640000919004611f2f565b60e08a015190611f73565b9650611eb4611ea96301da9c00611e6f87856116aa565b60c08a015190611f73565b955081831415611ecb575060009350611f26915050565b6000611eed611ee26301da9c00611e6f87866116aa565b60e08b015190611f73565b90506000611efb8983611f41565b9050611f1e88611f18838d604001516116aa90919063ffffffff16565b90612904565b965050505050505b93509350935093565b600082820183811015610c7a57600080fd5b600082821115611f5057600080fd5b50900390565b6000610c7a611f6d84670de0b6b3a76400006116aa565b83612904565b6000610c7a611f8284846116aa565b670de0b6b3a7640000612904565b600083611f9f57506000610d8d565b6000808513611fb857611fb3868585612923565b611fc3565b611fc386858561295f565b9050633b9aca00811315611fd657600080fd5b6000611fe286836129a0565b905060008612611ff25780611ffe565b611ffe81600019611adb565b979650505050505050565b60008061201583611dee565b6001600160a01b031663ef81f2166040518163ffffffff1660e01b81526004016040805180830381600087803b15801561204e57600080fd5b505af11580156115e2573d6000803e3d6000fd5b600061206c611de1565b60008561ffff168152602001908152602001600020905061209082600001516129b9565b815464ffffffffff191664ffffffffff9190911617815560a08201516120b5906129cd565b60028201805469ffffffffffffffffffff19166001600160501b039290921691909117905560c08201516120e8906129cd565b81600201600a6101000a8154816001600160501b0302191690836001600160501b0316021790555061211d8260e001516129cd565b8160020160146101000a8154816001600160501b0302191690836001600160501b0316021790555061215282602001516129e3565b81546001600160581b0391909116600160281b026fffffffffffffffffffffff000000000019909116178155604082015161218c906129e3565b6001820180546affffffffffffffffffffff19166001600160581b039290921691909117905560808201516121c0906129e3565b81546001600160581b0391909116600160801b026affffffffffffffffffffff60801b1990911617815560608201516121f8906129f9565b815463ffffffff91909116600160d81b0263ffffffff60d81b199091161781558215612244576000612229846116d1565b90506122358582612a0c565b612242610fee8683612a48565b505b8361ffff167fef25641e225e493886510ca1ad6584fa7b442b9fea820a29d1de3ce27d270fd28360a001518460c001518560e0015160405161228893929190614dfd565b60405180910390a250505050565b600080610c3460096110b5565b6000806122ae612ad2565b6000938452602052505060409020546001600160a01b031690565b6000806000806000806122da612adf565b6001600160a01b039097166000908152602097909752505060409094205461ffff81169563ffffffff62010000830481169650600160301b830416945060ff600160501b8304169350600160581b90910460d01b9150565b600080600080612340612aec565b6001600160a01b0395909516600090815260209590955250506040909220546bffffffffffffffffffffffff811693600160601b82046fffffffffffffffffffffffffffffffff169350600160e01b90910463ffffffff169150565b6123a46146cb565b6123ac6146cb565b60ff84166123bb579050610c7a565b6123c58585610df6565b815260ff841660608201528267ffffffffffffffff811180156123e757600080fd5b5060405190808252806020026020018201604052801561242157816020015b61240e61468c565b8152602001906001900390816124065790505b506020820152949350505050565b60008061243a611874565b6001600160a01b03851660009081526020828152604080832061ffff8816845290915281208054600160a81b9004600a90810b900b945091925083121561248057600080fd5b505092915050565b600081608001516000141561249f57506000610421565b60808201516276a700906110c790612af9565b602083015151516000906060908067ffffffffffffffff811180156124d657600080fd5b50604051908082528060200260200182016040528015612500578160200160208202803683370190505b50915061250b6146f3565b60005b8281101561260457875161252990836001808501908b612b15565b6000886020015160000151828151811061253f57fe5b602002602001015190506000806125568386612b90565b9150915061258361257c8c60c001518d600001516000015161ffff168660200151612c02565b8290610d95565b87858151811061258f57fe5b60200260200101818152505060006125e66117816125da8a88815181106125b257fe5b602002602001015187602001518f8f6125cf578b60a001516125d5565b8b60c001515b612c47565b8e51604001519061126f565b90506125f28982610d95565b9850506001909301925061250e915050565b505050935093915050565b60008061263b8460c0015185600001516000015161ffff16866080015186886000015160200151612cab565b9050801561268a57600061266d8560c0015186600001516000015161ffff168760800151878960000151600088611a5d565b50855160400151909150612681908261126f565b92505050610c34565b6000915050610c34565b600080610c34600b6110b5565b6000816126b057506000610421565b6126b982612d57565b60ff036001019050919050565b6000816126d257600080fd5b6101008211156126e157600080fd5b60006126ec84610c3a565b90506000605a84116127075750620151808302019050610c34565b6087841161272f575060591983016207e900908102908206909103016276a700019050610c34565b60c384116127585750608619830162278d00908102908206909103016301da9c00019050610c34565b5060c21983016276a70090810290820690910301630b1fa800019050610c34565b600080612787888888612c02565b90508486116127975790506127d1565b82156127b1576127a984828888611f90565b9150506127d1565b60006127be858888612df0565b90506127cc82888884612c47565b925050505b9695505050505050565b6000600183101580156127f057506101008311155b6127f957600080fd5b81156128125750600160ff1b60001983011c8317610c7a565b50600160ff1b60001983011c198316610c7a565b600080610c34600d6110b5565b67ffff000000000000603084901b1665ffffffffff00600884901b161760ff8216179392505050565b600080610c34601f6110b5565b6000806000806000856020015111156128b6576128b361289a8660c0015187602001516116aa90919063ffffffff16565b60e087015160408801516128ad916116aa565b90612ed9565b90505b60006128c187612eec565b90506128cd8183612f1f565b945081156128e4576128e181866001612fd2565b93505b6020860151156128fb576128f8858361304a565b92505b50509250925092565b600080821161291257600080fd5b81838161291b57fe5b049392505050565b600080612931858585613063565b905080156129515761294c6129468585611f41565b826130b3565b610eba565b633b9aca0095945050505050565b60008061296d858585613120565b905061297c6129468585611f41565b9150600061298986613161565b905082811215612997578092505b50509392505050565b6000610c7a6129af84846119a9565b633b9aca006119f7565b600064ffffffffff8211156116e757600080fd5b60006001600160501b038211156116e757600080fd5b60006001600160581b038211156116e757600080fd5b600063ffffffff8211156116e757600080fd5b6000811215612a1a57600080fd5b6000612a28610fee8461242f565b9050612a348183610d95565b9050612a43610fee848361317c565b505050565b6000612a526131f0565b61ffff8416600090815260209190915260409081902054905163ad1c095d60e01b81526001600160a01b039091169150819063ad1c095d90612a9a9087908690600401614b2e565b600060405180830381600087803b158015612ab457600080fd5b505af1158015612ac8573d6000803e3d6000fd5b5050505050505050565b600080610c3460036110b5565b600080610c3460026110b5565b600080610c3460116110b5565b60006276a700821015612b0b57600080fd5b6276a70082610c52565b82600111158015612b2a575084602001518311155b612b465760405162461bcd60e51b81526004016101ff90614c34565b6000612b63612b54856131fd565b612b5d84612af9565b90611f2f565b9050612b88866000015161ffff16828486612b7d8b6132a1565b8a94939291906132b5565b505050505050565b600080612ba084604001516132df565b8015612bb157506000846060015112155b612bba57600080fd5b612bdd8360800151611225866060015186606001516119a990919063ffffffff16565b91506114ba8360800151611225866060015186604001516119a990919063ffffffff16565b600080612c0d6132f5565b6001600160a01b03861660009081526020918252604080822087835283528082208683529092522054600f90810b900b9150509392505050565b600084612c5657506000610d8d565b6000612c628585611f41565b90506000612c7082856130b3565b9050633b9aca00811315612c8357600080fd5b6000612c8f88836129a0565b905060008812612c9f5780610d87565b610d8781600019611adb565b600060028211612cbd57506000610eba565b6000612cc98787611a28565b905080612cd7579050610eba565b6000612ce285612af9565b905085811415612d0c57507440008000000200200000000200000020000000002019169050610eba565b60015b848111612d4c576000612d21826131fd565b830190506000612d318983613302565b509050612d40858260006127db565b94505050600101612d0f565b508192505050610eba565b600081612d6357600080fd5b600160801b8210612d7657608091821c91015b600160401b8210612d8957604091821c91015b6401000000008210612d9d57602091821c91015b620100008210612daf57601091821c91015b6101008210612dc057600891821c91015b60108210612dd057600491821c91015b60048210612de057600291821c91015b6002821061042157600101919050565b6000806000612e048660200151868661340d565b915091506000612e13876132a1565b905081612e33578651612e2c9061ffff16878388613494565b9350612ecf565b6000612e3e86612af9565b90506000612e55612e4e866131fd565b8390611f2f565b90506000612e6d8a6000015161ffff1683868b613494565b90506000808760011415612e8b5750506040808b0151015188612eba565b612ea1612e9a60018a036131fd565b8690611f2f565b9050612eb78c6000015161ffff1682888d613494565b91505b612ec7818584868f613533565b985050505050505b5050509392505050565b6000610c7a611f6d84633b9aca006116aa565b612ef461473b565b6000612efe613591565b61ffff8416600090815260209190915260408120549150610c7a908261359e565b600080836080015111612f3157600080fd5b633b9aca00821115612f4257600080fd5b82518211612f6157825160408401516118b69190611f189085906116aa565b82602001518211612f995760408301518351602085015160608601516118b69392612b5d9281900391611f18918803908590036116aa565b610c7a8360600151612b5d8560200151633b9aca0003611f188760600151886080015103886020015188036116aa90919063ffffffff16565b600080612ff16064611f188760e00151876116aa90919063ffffffff16565b90508460a00151811015613006575060a08401515b8460c00151811115613019575060c08401515b8215613030576130298482611f2f565b9150610e02565b83811161303f57808403610eba565b506000949350505050565b6000610c7a61305984846116aa565b633b9aca00612904565b6000613070848484612df0565b9050600061307d856136bd565b9050808211613090576000915050610c7a565b808203915060006130a0866136ca565b9050828110156129975795945050505050565b6000806130d06130cb6301da9c00611f1886886116aa565b6136d7565b90506130e281621dcd6560491b6136f5565b90506130f56130f082613748565b61376a565b905061310781621dcd6560491b6137bf565b90506000613114826137f5565b60070b95945050505050565b600061312d848484612df0565b905061314261313b856137fe565b8290611f2f565b9050600061314f8561380b565b905080821015610e0257949350505050565b606001516207a12060109190911c60ff1602633b9aca000390565b600081121561318a57600080fd5b6000613194611874565b6001600160a01b03851660009081526020828152604080832061ffff8816845290915290209091506131c583613818565b8154600a9190910b6001600160581b0316600160a81b026001600160a81b0390911617905550505050565b600080610c3460216110b5565b6000816001141561321257506276a700610421565b8160021415613225575062ed4e00610421565b816003141561323957506301da9c00610421565b816004141561324d57506303b53800610421565b816005141561326157506309450c00610421565b8160061415613275575063128a1800610421565b816007141561328957506325143000610421565b60405162461bcd60e51b81526004016101ff90614be1565b6060015161012c60089190911c60ff160290565b60006276a7006132c485612af9565b0190506132d68787878787878761384a565b50505050505050565b600060028210801590610c345750506008101590565b600080610c34600c6110b5565b600080600061331085610c3a565b90506201518084061561332a576000809250925050613406565b83811061333e576000809250925050613406565b6201518081850304605a811161335b579250600191506134069050565b610168811161339a576000620151806207e900840604820160591901905060068104605a016006828161338a57fe5b0660001494509450505050613406565b61087081116133ca5760006201518062278d00840604820161016719019050601e8104608701601e828161338a57fe5b611de281116133fa576000620151806276a700840604820161086f19019050605a810460c301605a828161338a57fe5b61010060009350935050505b9250929050565b6000806000851161341d57600080fd5b600785111561342b57600080fd5b600061343684612af9565b905060015b86811161348e576000613457613450836131fd565b8490611f2f565b90508681141561346f57509250600091506109249050565b8681111561348557509250600191506109249050565b5060010161343b565b50600080fd5b60008061349f613881565b905060006276a7006134b085612af9565b6000898152602085815260408083208b84528252808320949093018083529390522080549192509063ffffffff600160a01b8204811691600160c01b8104821691600160e01b90910416816135175760405162461bcd60e51b81526004016101ff90614bb1565b6135248184848c8c61388e565b9b9a5050505050505050505050565b600081861061354157600080fd5b84821061354d57600080fd5b8383106135735761356c84612b5d888803611f188388038b88036116aa565b9050610eba565b61356c61358a878703611f188688038a87036116aa565b8590611f41565b600080610c34601b6110b5565b6135a661473b565b6064633b9aca008360ff8616602081106135bc57fe5b1a02816135c557fe5b0481526064633b9aca008360ff8616600101602081106135e157fe5b1a02816135ea57fe5b0481602001818152505061360f8260028560ff16016020811061360957fe5b1a613916565b60808201819052610100908360ff86166003016020811061362c57fe5b1a028161363557fe5b0460408201526080810151610100908360ff86166004016020811061365657fe5b1a028161365f57fe5b0460608201526207a1208260ff85166005016020811061367b57fe5b1a0260a0820152622625a08260ff85166006016020811061369857fe5b1a0260c08201528160ff8416600701602081106136b157fe5b1a60e082015292915050565b6000610c3482602061394a565b6000610c3482604861394a565b6000677fffffffffffffff8211156136ee57600080fd5b5060401b90565b600081600f0b6000141561370857600080fd5b600082600f0b604085600f0b901b8161371d57fe5b05905060016001607f1b0319811280159061373f575060016001607f1b038113155b610c7a57600080fd5b6000600f82900b60016001607f1b0319141561376357600080fd5b5060000390565b6000600160461b82600f0b1261377f57600080fd5b683fffffffffffffffff1982600f0b121561379c57506000610421565b610c34608083600f0b700171547652b82fe1777d0ffda0d23a7d1202901d61395d565b6000600f83810b9083900b0260401d60016001607f1b0319811280159061373f575060016001607f1b03811315610c7a57600080fd5b600f0b60401d90565b6000610c3482602861394a565b6000610c3482603061394a565b60006a7fffffffffffffffffffff19821280159061384157506a7fffffffffffffffffffff8213155b6116e757600080fd5b613857878787868561440d565b6138708760e001518860a001518960c00151858861388e565b60c090970196909652505050505050565b600080610c34600a6110b5565b600080831161389c57600080fd5b818611156138ab575083610eba565b60006138b78388611f41565b9050838111156138ca5785915050610eba565b60006138d68286612ed9565b905060006138e8633b9aca0083611f41565b9050613909633b9aca00611f186138ff8a856116aa565b612b5d8c876116aa565b9998505050505050505050565b60008160ff166096106139315760ff8216622625a002610c34565b5060951960ff919091160162e4e1c00263165a0bc00190565b60609091015160ff911c16622625a00290565b6000600160461b82600f0b1261397257600080fd5b683fffffffffffffffff1982600f0b121561398f57506000610421565b6001607f1b60006780000000000000008416600f0b13156139c15770016a09e667f3bcc908b2fb1366ea957d3e0260801c5b60008367400000000000000016600f0b13156139ee577001306fe0a31b7152de8d5a46305c85edec0260801c5b60008367200000000000000016600f0b1315613a1b577001172b83c7d517adcdf7c8c50eb14a791f0260801c5b60008367100000000000000016600f0b1315613a485770010b5586cf9890f6298b92b71842a983630260801c5b60008367080000000000000016600f0b1315613a75577001059b0d31585743ae7c548eb68ca417fd0260801c5b60008367040000000000000016600f0b1315613aa257700102c9a3e778060ee6f7caca4f7a29bde80260801c5b60008367020000000000000016600f0b1315613acf5770010163da9fb33356d84a66ae336dcdfa3f0260801c5b600083600160381b16600f0b1315613af857700100b1afa5abcbed6129ab13ec11dc95430260801c5b600083668000000000000016600f0b1315613b245770010058c86da1c09ea1ff19d294cf2f679b0260801c5b600083664000000000000016600f0b1315613b50577001002c605e2e8cec506d21bfc89a23a00f0260801c5b600083662000000000000016600f0b1315613b7c57700100162f3904051fa128bca9c55c31e5df0260801c5b600083661000000000000016600f0b1315613ba8577001000b175effdc76ba38e31671ca9397250260801c5b600083660800000000000016600f0b1315613bd457700100058ba01fb9f96d6cacd4b180917c3d0260801c5b600083660400000000000016600f0b1315613c005770010002c5cc37da9491d0985c348c68e7b30260801c5b600083660200000000000016600f0b1315613c2c577001000162e525ee054754457d59952920260260801c5b600083600160301b16600f0b1315613c555770010000b17255775c040618bf4a4ade83fc0260801c5b6000836580000000000016600f0b1315613c80577001000058b91b5bc9ae2eed81e9b7d4cfab0260801c5b6000836540000000000016600f0b1315613cab57700100002c5c89d5ec6ca4d7c8acc017b7c90260801c5b6000836520000000000016600f0b1315613cd65770010000162e43f4f831060e02d839a9d16d0260801c5b6000836510000000000016600f0b1315613d0157700100000b1721bcfc99d9f890ea069117630260801c5b6000836508000000000016600f0b1315613d2c5770010000058b90cf1e6d97f9ca14dbcc16280260801c5b6000836504000000000016600f0b1315613d57577001000002c5c863b73f016468f6bac5ca2b0260801c5b6000836502000000000016600f0b1315613d8257700100000162e430e5a18f6119e3c02282a50260801c5b600083600160281b16600f0b1315613dab577001000000b1721835514b86e6d96efd1bfe0260801c5b60008364800000000016600f0b1315613dd557700100000058b90c0b48c6be5df846c5b2ef0260801c5b60008364400000000016600f0b1315613dff5770010000002c5c8601cc6b9e94213c72737a0260801c5b60008364200000000016600f0b1315613e29577001000000162e42fff037df38aa2b219f060260801c5b60008364100000000016600f0b1315613e535770010000000b17217fba9c739aa5819f44f90260801c5b60008364080000000016600f0b1315613e7d577001000000058b90bfcdee5acd3c1cedc8230260801c5b60008364040000000016600f0b1315613ea757700100000002c5c85fe31f35a6a30da1be500260801c5b60008364020000000016600f0b1315613ed15770010000000162e42ff0999ce3541b9fffcf0260801c5b60008364010000000016600f0b1315613efb57700100000000b17217f80f4ef5aadda455540260801c5b600083638000000016600f0b1315613f245770010000000058b90bfbf8479bd5a81b51ad0260801c5b600083634000000016600f0b1315613f4d577001000000002c5c85fdf84bd62ae30a74cc0260801c5b600083632000000016600f0b1315613f7657700100000000162e42fefb2fed257559bdaa0260801c5b600083631000000016600f0b1315613f9f577001000000000b17217f7d5a7716bba4a9ae0260801c5b600083630800000016600f0b1315613fc857700100000000058b90bfbe9ddbac5e109cce0260801c5b600083630400000016600f0b1315613ff15770010000000002c5c85fdf4b15de6f17eb0d0260801c5b600083630200000016600f0b131561401a577001000000000162e42fefa494f1478fde050260801c5b600083630100000016600f0b13156140435770010000000000b17217f7d20cf927c8e94c0260801c5b6000836280000016600f0b131561406b577001000000000058b90bfbe8f71cb4e4b33d0260801c5b6000836240000016600f0b131561409357700100000000002c5c85fdf477b662b269450260801c5b6000836220000016600f0b13156140bb5770010000000000162e42fefa3ae53369388c0260801c5b6000836210000016600f0b13156140e357700100000000000b17217f7d1d351a389d400260801c5b6000836208000016600f0b131561410b5770010000000000058b90bfbe8e8b2d3d4ede0260801c5b6000836204000016600f0b1315614133577001000000000002c5c85fdf4741bea6e77e0260801c5b6000836202000016600f0b131561415b57700100000000000162e42fefa39fe95583c20260801c5b6000836201000016600f0b1315614183577001000000000000b17217f7d1cfb72b45e10260801c5b60008361800016600f0b13156141aa57700100000000000058b90bfbe8e7cc35c3f00260801c5b60008361400016600f0b13156141d15770010000000000002c5c85fdf473e242ea380260801c5b60008361200016600f0b13156141f8577001000000000000162e42fefa39f02b772c0260801c5b60008361100016600f0b131561421f5770010000000000000b17217f7d1cf7d83c1a0260801c5b60008361080016600f0b1315614246577001000000000000058b90bfbe8e7bdcbe2e0260801c5b60008361040016600f0b131561426d57700100000000000002c5c85fdf473dea871f0260801c5b60008361020016600f0b13156142945770010000000000000162e42fefa39ef44d910260801c5b60008361010016600f0b13156142bb57700100000000000000b17217f7d1cf79e9490260801c5b600083608016600f0b13156142e15770010000000000000058b90bfbe8e7bce5440260801c5b600083604016600f0b1315614307577001000000000000002c5c85fdf473de6eca0260801c5b600083602016600f0b131561432d57700100000000000000162e42fefa39ef366f0260801c5b600083601016600f0b1315614353577001000000000000000b17217f7d1cf79afa0260801c5b600083600816600f0b131561437957700100000000000000058b90bfbe8e7bcd6d0260801c5b600083600416600f0b131561439f5770010000000000000002c5c85fdf473de6b20260801c5b600083600216600f0b13156143c5577001000000000000000162e42fefa39ef3580260801c5b600083600116600f0b13156143eb5770010000000000000000b17217f7d1cf79ab0260801c5b600f83810b60401d603f03900b1c60016001607f1b03811115610c3457600080fd5b6000614417613881565b6000868152602082815260408083208884528252808320868452825291829020808a5290890187905280546001600160501b03808216938b0193909352600160501b810490921660608a015263ffffffff600160a01b8304811660a08b0152600160c01b8304811660c08b0152600160e01b90920490911660e08901529091508084156144b65760018201546001600160501b03166080890152612ac8565b600060808901525050505050505050565b6040805160c081018252600080825260208201819052918101829052606081018290526080810182905260a081019190915290565b60405180610160016040528060006001600160a01b031681526020016000815260200160008152602001600081526020016000815260200160006001600160d01b031916815260200161454d6145f0565b815260200161455a6145f0565b815260200161456761461f565b81526020016145746145d1565b8152600060209091015290565b6040518060e0016040528060008152602001600015158152602001600081526020016145ab6145d1565b8152602001606081526020016145bf61461f565b81526020016145cc614780565b905290565b604080516080810182526000808252602082015290810161457461461f565b6040518060a0016040528060008152602001600081526020016000815260200160008152602001600081525090565b60405180606001604052806000815260200160008152602001600081525090565b6040518061012001604052806000815260200160008152602001600081526020016000815260200160008152602001600081526020016000815260200160008152602001600081525090565b6040518060c00160405280600061ffff16815260200160008152602001600081526020016000815260200160008152602001600060038111156145cc57fe5b6040518060800160405280606081526020016060815260200160008152602001600081525090565b60405180610100016040528060008019168152602001600081526020016000815260200160008152602001600081526020016000815260200160008152602001600081525090565b60405180610100016040528060008152602001600081526020016000815260200160008152602001600081526020016000815260200160008152602001600081525090565b6040518060e001604052806147936145d1565b81526020016147a06146cb565b815260006020820181905260408201819052606082018190526080820181905260a09091015290565b80356001600160a01b038116811461042157600080fd5b8051801515811461042157600080fd5b80516001600160701b03198116811461042157600080fd5b80516001600160f81b03198116811461042157600080fd5b805161ffff8116811461042157600080fd5b80516001600160501b038116811461042157600080fd5b805160ff8116811461042157600080fd5b60006020828403121561486b578081fd5b610c7a826147c9565b600080600060608486031215614888578182fd5b614891846147c9565b95602085013595506040909401359392505050565b600060c082840312156148b7578081fd5b60405160c0810181811067ffffffffffffffff821117156148d457fe5b604052825164ffffffffff811681146148eb578283fd5b81526148f960208401614808565b602082015261490a60408401614849565b604082015261491b60608401614820565b606082015261492c608084016147f0565b608082015261493d60a084016147e0565b60a08201529392505050565b6000806040838503121561495b578182fd5b505080516020909101519092909150565b600080600080600060a08688031215614983578081fd5b61498c86614832565b94506020860151935060408601519250606086015191506149af60808701614832565b90509295509295909350565b6001600160a01b03169052565b6000815180845260208085019450808401835b83811015614a39578151805161ffff168852838101518489015260408082015190890152606080820151908901526080808201519089015260a0908101519060048210614a2457fe5b88015260c090960195908201906001016149db565b509495945050505050565b15159052565b6001600160d01b0319169052565b805164ffffffffff1682526020808201516001600160f81b0319169083015260408082015160ff169083015260608082015161ffff16908301526080808201516001600160701b0319169083015260a0908101511515910152565b61ffff8151168252602081015160208301526040810151614ad76040840182614b15565b506060015160a09190910152565b80518252602081015160208301526040810151604083015260608101516060830152608081015160808301525050565b8051825260208082015190830152604090810151910152565b6001600160a01b03929092168252602082015260400190565b6001600160a01b038316815260e08101610c7a6020830184614a58565b60006040820184835260206040818501528185518084526060860191508287019350845b81811015614ba457845183529383019391830191600101614b88565b5090979650505050505050565b60208082526016908201527513585c9ad95d081b9bdd081a5b9a5d1a585b1a5e995960521b604082015260600190565b6020808252600d908201526c092dcecc2d8d2c840d2dcc8caf609b1b604082015260600190565b602080825260129082015271105cdcd95d1cc81b9bdd081cd95d1d1b195960721b604082015260600190565b6020808252600e908201526d125b9d985b1a59081b585c9ad95d60921b604082015260600190565b60208082526016908201527514d95c5d595b98d95c8811dc9858d94814195c9a5bd960521b604082015260600190565b6020808252600e908201526d29b2b8bab2b731b2b9102237bbb760911b604082015260600190565b60208082526015908201527414dd59999a58da595b9d0818dbdb1b185d195c985b605a1b604082015260600190565b6020808252601c908201527f496e73756666696369656e74206672656520636f6c6c61746572616c00000000604082015260600190565b6000610420614d298387614a58565b614d3760c0840186516149bb565b602085015160e08401526040850151610100818186015260608701519150610120828187015260808801519250610140838188015260a08901519350614d81610160880185614a4a565b60c08901519350614d96610180880185614ae5565b60e08901519350614dab610220880185614ae5565b828901519350614dbf6102c0880185614b15565b818901519350614dd3610320880185614ab3565b8801519250614de99150506103e0850182614a44565b50806104008401526127d1818401856149c8565b928352602083019190915260408201526060019056fea2646970667358221220f194af21d2813ebcc47f861e678ce3134dc7db6687fad23f616646c30ab1b7b464736f6c63430007060033","bytecodeSha1":"c36a99f76338282fa38dc0b0c74f466c6e86d501","compiler":{"evm_version":"istanbul","optimizer":{"enabled":true,"runs":200},"version":"0.7.6+commit.7338295f"},"contractName":"FreeCollateralExternal","deployedBytecode":"730000000000000000000000000000000000000000301460806040526004361061004b5760003560e01c8063451d958f146100505780636cb65eaf146100885780636ccc642f146100a9575b600080fd5b81801561005c57600080fd5b5061007061006b366004614874565b6100cb565b60405161007f93929190614d1a565b60405180910390f35b61009b61009636600461485a565b6101c8565b60405161007f929190614b64565b8180156100b557600080fd5b506100c96100c436600461485a565b61021d565b005b6100d36144c7565b6100db6144fc565b60606100e56102a1565b6100ee86610377565b92506100f983610426565b1561018a576040516337b5fc2160e11b815273__$f6541b0d362a0c7d99a2a29cd3d373d61b$__90636f6bf842906101379089908790600401614b47565b60c06040518083038186803b15801561014f57600080fd5b505af4158015610163573d6000803e3d6000fd5b505050506040513d601f19601f8201168201806040525081019061018791906148a6565b92505b6101938361047a565b156101ac57826060015161ffff1685146101ac57600080fd5b6101b98684428888610487565b93979096509294509192505050565b6000606060006101d784610377565b90506101e281610426565b156102085760405162461bcd60e51b81526004016101ff90614c08565b60405180910390fd5b6102138482426106e6565b9250925050915091565b6102256102a1565b600061023082610377565b905061023b81610426565b156102585760405162461bcd60e51b81526004016101ff90614c08565b60008061026684844261092c565b91509150801561027a5761027a8385610b0a565b600082121561029b5760405162461bcd60e51b81526004016101ff90614ce3565b50505050565b60008073fdb631f5ee196f0ed6faa767959853a9f217697d6001600160a01b031663feaf968c6040518163ffffffff1660e01b815260040160a06040518083038186803b1580156102f157600080fd5b505afa158015610305573d6000803e3d6000fd5b505050506040513d601f19601f82011682018060405250810190610329919061496c565b50509250925050816000146103505760405162461bcd60e51b81526004016101ff90614c8c565b804203610e10106103735760405162461bcd60e51b81526004016101ff90614c5c565b5050565b61037f6144c7565b6000610389610c27565b6001600160a01b03841660009081526020918252604090819020815160c081018352905464ffffffffff811682526001600160f81b0319600160281b820460f81b169382019390935260ff600160301b840481169282019290925261ffff600160381b84041660608201526001600160701b0319600160481b840460701b166080820152600160d81b90920416151560a08201529150505b919050565b6000426104328361047a565b156104535761044081610c3a565b835164ffffffffff161091506104219050565b825164ffffffffff16158015906104725750825164ffffffffff168110155b915050610421565b6060015161ffff16151590565b61048f6144fc565b6060610499614581565b6104a16144fc565b6001600160a01b03891681526104b68861047a565b1561058f576104c88860600151610c5b565b6060830152600080806104dd8c8b8d88610c81565b92509250925060006104f18d8c8e89610cdc565b90506000610509826105038787610d95565b90610d95565b90508660600151604001518760a0018190525060006105318e6060015161ffff16838a610dab565b90508b8e6060015161ffff161415610584576040870182905260c0870181905260a08801516101008801528a610584576060880151610120880152608087018590526001600160d01b0319841660a08801525b5050505050506105a3565b61059d898960400151610df6565b60808301525b60808801515b6001600160701b0319811615610687576060890151819060009060f083901c613fff169061ffff168114156105dd57600080fd5b89811480156105ea575088155b806105f457508881145b9150506000610606868685858f610e0a565b905060f083901c613fff16600061061e82848a610dab565b90508a82141561064a5760a0880151610120880151604001526060870183905260e0870181905261066c565b8b82141561066c576040870183905260c0870181905260a08801516101008801525b6010866001600160701b031916901b955050505050506105a9565b8251602083018190526000136106af5760405162461bcd60e51b81526004016101ff90614cb4565b604089015160ff16156106d0576106ca8a8a60400151610df6565b60808401525b5060809091015190925090509550959350505050565b600060606106f2614581565b60408051600a808252610160820190925260009182919060208201610140803683370190505090506107238761047a565b156107cb576107358760600151610ec3565b60608401526000806107498a898b88610c81565b5091509150600061075c8b8a8c89610cdc565b905061076c816105038585610d95565b84868151811061077857fe5b6020026020010181815250508560600151604001518660a001819052506107bb8a6060015161ffff168587815181106107ad57fe5b602002602001015188610dab565b5050600190930192506107df9050565b6107d9888860400151610df6565b60808401525b60808701515b6001600160701b031981161561091a576060880151819060f082901c613fff169061ffff1681141561081657600080fd5b6000610822828b610ee4565b5060a08801819052610837908d908590610fa2565b86888151811061084357fe5b6020026020010181935082815250505061085c83610fe7565b806108675750600081135b156108d25761087582610ec3565b606088015260008061088889848e610ff3565b50915091506108b781610503848a8c815181106108a157fe5b6020026020010151610d9590919063ffffffff16565b8789815181106108c357fe5b60200260200101818152505050505b6108f48261ffff168688815181106108e657fe5b602002602001015189610dab565b505050600193909301925060101b6fffffffffffffffffffffffffffffffff19166107e5565b5091519350909150505b935093915050565b600080610937614581565b60006109428661047a565b156109c9576109548660600151610c5b565b606083015260008061096889888a87610c81565b5091509150600082121561097b57600192505b60006109898a898b88610cdc565b9050600061099b826105038686610d95565b6060808801516040015160a08901528b01519091506109bf9061ffff168288610dab565b50505050506109dd565b6109d7878760400151610df6565b60808301525b60808601515b6001600160701b0319811615610ac1576060870151819060f082901c613fff169061ffff16811415610a1457600080fd5b610a1d816110a3565b8560a00181905250600080610a378c858960a00151610fa2565b915091506000821215610a4957600195505b610a5284610fe7565b80610a5d5750600081135b15610a9757610a6b83610c5b565b6060880152600080610a7e89848e610ff3565b509092509050610a92816105038685610d95565b935050505b610aa68361ffff168389610dab565b506010856001600160701b031916901b9450505050506109e3565b6020870151600160f91b908116148015610ad9575081155b15610af4576020808801805160fd60f81b1690526001908401525b5050805160209091015190969095509350505050565b6000610b14610c27565b6001600160a01b03831660008181526020838152604080832088518154938a01518a84015160608c015160808d015160a08e015164ffffffffff1990981664ffffffffff9095169490941765ff00000000001916600160281b60f89490941c939093029290921766ff0000000000001916600160301b60ff909216919091021768ffff000000000000001916600160381b61ffff90921691909102177affffffffffffffffffffffffffffffffffff0000000000000000001916600160481b60709290921c919091021760ff60d81b1916600160d81b93151593909302929092179091555192935090917f6bd4b121bca854a191536a2ca891155c42ee2fb23f307fb34e8bc65cfcb5412e9190a2505050565b600080610c3460016110b5565b92915050565b600062015180821015610c4c57600080fd5b62015180825b06909103919050565b610c636145d1565b6000610c6e836110a3565b9050610c7a83826110ce565b9392505050565b600080600080610c9e888760600151876060015160400151611111565b509195509150506000811315610ccc57610cc285606001518660c00151838a6111cb565b9093509150610cd1565b600092505b509450945094915050565b6000806000610d0787866060015161ffff16876000015164ffffffffff16898860600151600161123f565b60208701519193509150600160f81b90811614818015610d25575080155b15610d4e5760208681018051600160f81b176001600160f81b0319169052600190860152610d74565b81158015610d595750805b15610d745760208087018051607f60f91b1690526001908601525b606085015160400151610d87908461126f565b93505050505b949350505050565b81810182811215600083121514610c3457600080fd5b610db36145f0565b6000610dbe856112af565b9050610dec610de4610ddd868660a0015161141290919063ffffffff16565b839061143f565b845190610d95565b9092525092915050565b6060610e0283836114a2565b509392505050565b600060f084901c613fff16610e1e816110a3565b60a0880181905286516000918291610e37918990610fa2565b91509150610e4487610fe7565b80610e4f5750600081135b15610eb557610e5d83610c5b565b60608a015260008080610e718c858a610ff3565b91945092509050610e86826105038786610d95565b94508815610eb15760608c01516101208c01526001600160d01b0319811660a08c015260808b018290525b5050505b509150505b95945050505050565b610ecb6145d1565b6000610ed78342610ee4565b509050610c7a83826110ce565b610eec61461f565b610ef4614640565b610efd846114c3565b90508281600001511015610f2e576000610f168561158b565b9050610f2485838387611606565b509150610f3b9050565b80518314610f3b57600080fd5b6040518060600160405280610f69610f648460a001518560c001516116aa90919063ffffffff16565b6116d1565b8152602001610f8c610f648460a001518560e001516116aa90919063ffffffff16565b8152602001826060015181525091509250929050565b600080600160fe1b8481161415610fda5760f084901c613fff16600080610fca888488611111565b5091965094506109249350505050565b5060009485945092505050565b600160ff1b9081161490565b6000806000856080015151866040015110801561103e575085606001516000015161ffff16866080015187604001518151811061102c57fe5b60200260200101516000015161ffff16145b156110675761105b866080015187606001518689604001516116eb565b6040880152925061106c565b600092505b60008513156110935761108986606001518760c0015187876111cb565b909250905061109a565b5060009050805b93509350939050565b6110ab61461f565b610c348242611796565b6000620f42408260268111156110c757fe5b0192915050565b6110d66145d1565b60006110e58461ffff16611857565b6040805160808101825261ffff96909616865260ff821660208701528501939093525050606082015290565b6000806000806000611121611874565b6001600160a01b03891660009081526020828152604080832061ffff8c168452909152902080546001600160501b0381169650600160501b900463ffffffff169450909150831561118e57805461118790600160701b900466ffffffffffffff16611881565b92506111a3565b8054600160701b900466ffffffffffffff1692505b80546111be908890600160a81b9004600a90810b900b61188f565b9550505093509350935093565b835160009081906111dd9086906118bd565b85855260006111ec8685611959565b9050600061122b876040015161122560646112258b60a00151600360ff166006811061121457fe5b1a61121f8c896119a9565b906119a9565b906119f7565b60a097909701519698969750505050505050565b600080600061124e8989611a28565b905061125f89898989898987611a5d565b9250925050965096945050505050565b8151600090819061129390611225856ec097ce7bc90715b34b9f10000000006119a9565b9050600083126112a35780610d8d565b610d8d81600019611adb565b6112b76145f0565b60006112c1611af1565b60008481526020829052604081209192508060018614156112ee5750670de0b6b3a76400009050806113b1565b825460408051633fabe5a360e21b815290516001600160a01b039092169163feaf968c9160048082019260a092909190829003018186803b15801561133257600080fd5b505afa158015611346573d6000803e3d6000fd5b505050506040513d601f19601f8201168201806040525081019061136a919061496c565b5091935050600083139150611380905057600080fd5b825460ff600160a01b82048116600a0a9350600160a81b90910416156113b1576113ae8161122584806119a9565b90505b8254600160b01b900460ff1660968113156113d15760951901600a026096015b6040805160a081018252938452602084019290925290820152905460ff600160b81b820481166060840152600160c01b909104166080820152915050919050565b6000806112936ec097ce7bc90715b34b9f10000000006112258660000151866119a990919063ffffffff16565b6000806000831361145457836040015161145a565b83606001515b90506000611486856000015161122560646112258661121f8b602001518b6119a990919063ffffffff16565b9050600084126114965780610eba565b610eba81600019611adb565b6060806114af8484611afe565b91506114ba82611c20565b90509250929050565b6114cb614640565b60006114d5611de1565b61ffff93841660009081526020918252604090819020805464ffffffffff81168652600160281b81046001600160581b03908116948701949094526001820154841692860192909252600160d81b820463ffffffff166060860152600160801b9091049091166080840152600201546001600160501b0380821660a0850152600160501b8204811660c0850152600160a01b82041660e0840152600160f01b900460ff1661012c02909216610100820152919050565b60008061159783611dee565b6001600160a01b031663a77c05b86040518163ffffffff1660e01b8152600401604080518083038186803b1580156115ce57600080fd5b505afa1580156115e2573d6000803e3d6000fd5b505050506040513d601f19601f82011682018060405250810190610d8d9190614949565b61160e614640565b600080600061161e888689611e1e565b60c08b019290925260e08a0192909252602089015191935091506116429083611f2f565b602088015260808701516000901561167057608088015161166d906116678982611f41565b90611f56565b90505b611690611685670de0b6b3a764000083611f2f565b60a08a015190611f73565b60a089015250506080860194909452505082529092909150565b6000826116b957506000610c34565b828202828482816116c657fe5b0414610c7a57600080fd5b60006001600160ff1b038211156116e757600080fd5b5090565b6000808080845b885181101561176e57600089828151811061170957fe5b60200260200101519050600160ff168160400151146117285750611766565b8851815161ffff90811691161461173f575061176e565b60006117558a836060015184602001518c611f90565b90506117618482610d95565b935050505b6001016116f2565b604088015161178890611781908461126f565b8490610d95565b999098509650505050505050565b61179e61461f565b60006117a9846114c3565b905082816000015110156117e8576000806117c386612009565b90506117d186848388611606565b90935091506117e1868385612062565b50506117f5565b805183146117f557600080fd5b604051806060016040528061181e610f648460a001518560c001516116aa90919063ffffffff16565b8152602001611841610f648460a001518560e001516116aa90919063ffffffff16565b8152602001826060015181525091505092915050565b600080611862612296565b60009384526020525050604090205490565b600080610c3460066110b5565b600881901c60ff9091161b90565b600080821261189f575080610c34565b825160208401516118b691906112259085906119a9565b9050610c34565b6118ca8161ffff166122a3565b6001600160a01b031660c08301819052600090819081906118ea906122c9565b945094509450505060006119018660c00151612332565b505060808701859052604087018190526001600160d01b0319831660a088015260c08701519091506119359084600061239c565b602087015260c0860151611949908661242f565b6060909601959095525050505050565b60008061196584612488565b9050828111611975576001810392505b506000611984848460016124b2565b5090506000611993858561260f565b6060860151909150610eba906105038484610d95565b8181026000198314156119d9578115806119cb5750828282816119c857fe5b05145b6119d457600080fd5b610c34565b8215806119ee5750818382816119eb57fe5b05145b610c3457600080fd5b600081600019148015611a0d5750600160ff1b83145b15611a1757600080fd5b818381611a2057fe5b059392505050565b600080611a33612694565b6001600160a01b038516600090815260209182526040808220868352909252205491505092915050565b6000806000611a6b846126a1565b90505b8015611ace576000611a8089836126c6565b90506000611a928c8c848c8c8c612779565b9050611a9e8582610d95565b94506000811215611aae57600193505b611aba868460006127db565b9550611ac5866126a1565b92505050611a6e565b5097509795505050505050565b6000818312611aea5781610c7a565b5090919050565b600080610c3460106110b5565b606060088260ff161115611b1157600080fd5b6000611b1b612826565b6001600160a01b038516600090815260208290526040812091925060ff851667ffffffffffffffff81118015611b5057600080fd5b50604051908082528060200260200182016040528015611b8a57816020015b611b7761468c565b815260200190600190039081611b6f5790505b50905060005b8560ff16811015611c16576000838260088110611ba957fe5b0190506000838381518110611bba57fe5b602090810291909101810151835461ffff8116825264ffffffffff620100008204169282019290925260ff600160381b8304166040820152600160401b909104600a90810b900b60608201526080019190915250600101611b90565b5095945050505050565b80516060908067ffffffffffffffff81118015611c3c57600080fd5b50604051908082528060200260200182016040528015611c66578160200160208202803683370190505b50915060005b81811015611cc3576000848281518110611c8257fe5b60200260200101519050611ca3816000015182602001518360400151612833565b848381518110611caf57fe5b602090810291909101015250600101611c6c565b5060015b81811015611dda57805b600081118015611d095750838181518110611ce857fe5b6020026020010151846001830381518110611cff57fe5b6020026020010151115b15611dd157838181518110611d1a57fe5b6020026020010151846001830381518110611d3157fe5b6020026020010151856001840381518110611d4857fe5b60200260200101868481518110611d5b57fe5b6020026020010182815250828152505050848181518110611d7857fe5b6020026020010151856001830381518110611d8f57fe5b6020026020010151866001840381518110611da657fe5b60200260200101878481518110611db957fe5b60209081029190910101919091525260001901611cd1565b50600101611cc7565b5050919050565b600080610c34601d6110b5565b600080611df961285c565b61ffff939093166000908152602093909352505060409020546001600160a01b031690565b600080600080600080611e318988612869565b89519095509193509150600090611e5890611e4d908b90611f41565b633b9aca00906116aa565b9050611e92611e876301da9c00611e6f85856116aa565b81611e7657fe5b670de0b6b3a7640000919004611f2f565b60e08a015190611f73565b9650611eb4611ea96301da9c00611e6f87856116aa565b60c08a015190611f73565b955081831415611ecb575060009350611f26915050565b6000611eed611ee26301da9c00611e6f87866116aa565b60e08b015190611f73565b90506000611efb8983611f41565b9050611f1e88611f18838d604001516116aa90919063ffffffff16565b90612904565b965050505050505b93509350935093565b600082820183811015610c7a57600080fd5b600082821115611f5057600080fd5b50900390565b6000610c7a611f6d84670de0b6b3a76400006116aa565b83612904565b6000610c7a611f8284846116aa565b670de0b6b3a7640000612904565b600083611f9f57506000610d8d565b6000808513611fb857611fb3868585612923565b611fc3565b611fc386858561295f565b9050633b9aca00811315611fd657600080fd5b6000611fe286836129a0565b905060008612611ff25780611ffe565b611ffe81600019611adb565b979650505050505050565b60008061201583611dee565b6001600160a01b031663ef81f2166040518163ffffffff1660e01b81526004016040805180830381600087803b15801561204e57600080fd5b505af11580156115e2573d6000803e3d6000fd5b600061206c611de1565b60008561ffff168152602001908152602001600020905061209082600001516129b9565b815464ffffffffff191664ffffffffff9190911617815560a08201516120b5906129cd565b60028201805469ffffffffffffffffffff19166001600160501b039290921691909117905560c08201516120e8906129cd565b81600201600a6101000a8154816001600160501b0302191690836001600160501b0316021790555061211d8260e001516129cd565b8160020160146101000a8154816001600160501b0302191690836001600160501b0316021790555061215282602001516129e3565b81546001600160581b0391909116600160281b026fffffffffffffffffffffff000000000019909116178155604082015161218c906129e3565b6001820180546affffffffffffffffffffff19166001600160581b039290921691909117905560808201516121c0906129e3565b81546001600160581b0391909116600160801b026affffffffffffffffffffff60801b1990911617815560608201516121f8906129f9565b815463ffffffff91909116600160d81b0263ffffffff60d81b199091161781558215612244576000612229846116d1565b90506122358582612a0c565b612242610fee8683612a48565b505b8361ffff167fef25641e225e493886510ca1ad6584fa7b442b9fea820a29d1de3ce27d270fd28360a001518460c001518560e0015160405161228893929190614dfd565b60405180910390a250505050565b600080610c3460096110b5565b6000806122ae612ad2565b6000938452602052505060409020546001600160a01b031690565b6000806000806000806122da612adf565b6001600160a01b039097166000908152602097909752505060409094205461ffff81169563ffffffff62010000830481169650600160301b830416945060ff600160501b8304169350600160581b90910460d01b9150565b600080600080612340612aec565b6001600160a01b0395909516600090815260209590955250506040909220546bffffffffffffffffffffffff811693600160601b82046fffffffffffffffffffffffffffffffff169350600160e01b90910463ffffffff169150565b6123a46146cb565b6123ac6146cb565b60ff84166123bb579050610c7a565b6123c58585610df6565b815260ff841660608201528267ffffffffffffffff811180156123e757600080fd5b5060405190808252806020026020018201604052801561242157816020015b61240e61468c565b8152602001906001900390816124065790505b506020820152949350505050565b60008061243a611874565b6001600160a01b03851660009081526020828152604080832061ffff8816845290915281208054600160a81b9004600a90810b900b945091925083121561248057600080fd5b505092915050565b600081608001516000141561249f57506000610421565b60808201516276a700906110c790612af9565b602083015151516000906060908067ffffffffffffffff811180156124d657600080fd5b50604051908082528060200260200182016040528015612500578160200160208202803683370190505b50915061250b6146f3565b60005b8281101561260457875161252990836001808501908b612b15565b6000886020015160000151828151811061253f57fe5b602002602001015190506000806125568386612b90565b9150915061258361257c8c60c001518d600001516000015161ffff168660200151612c02565b8290610d95565b87858151811061258f57fe5b60200260200101818152505060006125e66117816125da8a88815181106125b257fe5b602002602001015187602001518f8f6125cf578b60a001516125d5565b8b60c001515b612c47565b8e51604001519061126f565b90506125f28982610d95565b9850506001909301925061250e915050565b505050935093915050565b60008061263b8460c0015185600001516000015161ffff16866080015186886000015160200151612cab565b9050801561268a57600061266d8560c0015186600001516000015161ffff168760800151878960000151600088611a5d565b50855160400151909150612681908261126f565b92505050610c34565b6000915050610c34565b600080610c34600b6110b5565b6000816126b057506000610421565b6126b982612d57565b60ff036001019050919050565b6000816126d257600080fd5b6101008211156126e157600080fd5b60006126ec84610c3a565b90506000605a84116127075750620151808302019050610c34565b6087841161272f575060591983016207e900908102908206909103016276a700019050610c34565b60c384116127585750608619830162278d00908102908206909103016301da9c00019050610c34565b5060c21983016276a70090810290820690910301630b1fa800019050610c34565b600080612787888888612c02565b90508486116127975790506127d1565b82156127b1576127a984828888611f90565b9150506127d1565b60006127be858888612df0565b90506127cc82888884612c47565b925050505b9695505050505050565b6000600183101580156127f057506101008311155b6127f957600080fd5b81156128125750600160ff1b60001983011c8317610c7a565b50600160ff1b60001983011c198316610c7a565b600080610c34600d6110b5565b67ffff000000000000603084901b1665ffffffffff00600884901b161760ff8216179392505050565b600080610c34601f6110b5565b6000806000806000856020015111156128b6576128b361289a8660c0015187602001516116aa90919063ffffffff16565b60e087015160408801516128ad916116aa565b90612ed9565b90505b60006128c187612eec565b90506128cd8183612f1f565b945081156128e4576128e181866001612fd2565b93505b6020860151156128fb576128f8858361304a565b92505b50509250925092565b600080821161291257600080fd5b81838161291b57fe5b049392505050565b600080612931858585613063565b905080156129515761294c6129468585611f41565b826130b3565b610eba565b633b9aca0095945050505050565b60008061296d858585613120565b905061297c6129468585611f41565b9150600061298986613161565b905082811215612997578092505b50509392505050565b6000610c7a6129af84846119a9565b633b9aca006119f7565b600064ffffffffff8211156116e757600080fd5b60006001600160501b038211156116e757600080fd5b60006001600160581b038211156116e757600080fd5b600063ffffffff8211156116e757600080fd5b6000811215612a1a57600080fd5b6000612a28610fee8461242f565b9050612a348183610d95565b9050612a43610fee848361317c565b505050565b6000612a526131f0565b61ffff8416600090815260209190915260409081902054905163ad1c095d60e01b81526001600160a01b039091169150819063ad1c095d90612a9a9087908690600401614b2e565b600060405180830381600087803b158015612ab457600080fd5b505af1158015612ac8573d6000803e3d6000fd5b5050505050505050565b600080610c3460036110b5565b600080610c3460026110b5565b600080610c3460116110b5565b60006276a700821015612b0b57600080fd5b6276a70082610c52565b82600111158015612b2a575084602001518311155b612b465760405162461bcd60e51b81526004016101ff90614c34565b6000612b63612b54856131fd565b612b5d84612af9565b90611f2f565b9050612b88866000015161ffff16828486612b7d8b6132a1565b8a94939291906132b5565b505050505050565b600080612ba084604001516132df565b8015612bb157506000846060015112155b612bba57600080fd5b612bdd8360800151611225866060015186606001516119a990919063ffffffff16565b91506114ba8360800151611225866060015186604001516119a990919063ffffffff16565b600080612c0d6132f5565b6001600160a01b03861660009081526020918252604080822087835283528082208683529092522054600f90810b900b9150509392505050565b600084612c5657506000610d8d565b6000612c628585611f41565b90506000612c7082856130b3565b9050633b9aca00811315612c8357600080fd5b6000612c8f88836129a0565b905060008812612c9f5780610d87565b610d8781600019611adb565b600060028211612cbd57506000610eba565b6000612cc98787611a28565b905080612cd7579050610eba565b6000612ce285612af9565b905085811415612d0c57507440008000000200200000000200000020000000002019169050610eba565b60015b848111612d4c576000612d21826131fd565b830190506000612d318983613302565b509050612d40858260006127db565b94505050600101612d0f565b508192505050610eba565b600081612d6357600080fd5b600160801b8210612d7657608091821c91015b600160401b8210612d8957604091821c91015b6401000000008210612d9d57602091821c91015b620100008210612daf57601091821c91015b6101008210612dc057600891821c91015b60108210612dd057600491821c91015b60048210612de057600291821c91015b6002821061042157600101919050565b6000806000612e048660200151868661340d565b915091506000612e13876132a1565b905081612e33578651612e2c9061ffff16878388613494565b9350612ecf565b6000612e3e86612af9565b90506000612e55612e4e866131fd565b8390611f2f565b90506000612e6d8a6000015161ffff1683868b613494565b90506000808760011415612e8b5750506040808b0151015188612eba565b612ea1612e9a60018a036131fd565b8690611f2f565b9050612eb78c6000015161ffff1682888d613494565b91505b612ec7818584868f613533565b985050505050505b5050509392505050565b6000610c7a611f6d84633b9aca006116aa565b612ef461473b565b6000612efe613591565b61ffff8416600090815260209190915260408120549150610c7a908261359e565b600080836080015111612f3157600080fd5b633b9aca00821115612f4257600080fd5b82518211612f6157825160408401516118b69190611f189085906116aa565b82602001518211612f995760408301518351602085015160608601516118b69392612b5d9281900391611f18918803908590036116aa565b610c7a8360600151612b5d8560200151633b9aca0003611f188760600151886080015103886020015188036116aa90919063ffffffff16565b600080612ff16064611f188760e00151876116aa90919063ffffffff16565b90508460a00151811015613006575060a08401515b8460c00151811115613019575060c08401515b8215613030576130298482611f2f565b9150610e02565b83811161303f57808403610eba565b506000949350505050565b6000610c7a61305984846116aa565b633b9aca00612904565b6000613070848484612df0565b9050600061307d856136bd565b9050808211613090576000915050610c7a565b808203915060006130a0866136ca565b9050828110156129975795945050505050565b6000806130d06130cb6301da9c00611f1886886116aa565b6136d7565b90506130e281621dcd6560491b6136f5565b90506130f56130f082613748565b61376a565b905061310781621dcd6560491b6137bf565b90506000613114826137f5565b60070b95945050505050565b600061312d848484612df0565b905061314261313b856137fe565b8290611f2f565b9050600061314f8561380b565b905080821015610e0257949350505050565b606001516207a12060109190911c60ff1602633b9aca000390565b600081121561318a57600080fd5b6000613194611874565b6001600160a01b03851660009081526020828152604080832061ffff8816845290915290209091506131c583613818565b8154600a9190910b6001600160581b0316600160a81b026001600160a81b0390911617905550505050565b600080610c3460216110b5565b6000816001141561321257506276a700610421565b8160021415613225575062ed4e00610421565b816003141561323957506301da9c00610421565b816004141561324d57506303b53800610421565b816005141561326157506309450c00610421565b8160061415613275575063128a1800610421565b816007141561328957506325143000610421565b60405162461bcd60e51b81526004016101ff90614be1565b6060015161012c60089190911c60ff160290565b60006276a7006132c485612af9565b0190506132d68787878787878761384a565b50505050505050565b600060028210801590610c345750506008101590565b600080610c34600c6110b5565b600080600061331085610c3a565b90506201518084061561332a576000809250925050613406565b83811061333e576000809250925050613406565b6201518081850304605a811161335b579250600191506134069050565b610168811161339a576000620151806207e900840604820160591901905060068104605a016006828161338a57fe5b0660001494509450505050613406565b61087081116133ca5760006201518062278d00840604820161016719019050601e8104608701601e828161338a57fe5b611de281116133fa576000620151806276a700840604820161086f19019050605a810460c301605a828161338a57fe5b61010060009350935050505b9250929050565b6000806000851161341d57600080fd5b600785111561342b57600080fd5b600061343684612af9565b905060015b86811161348e576000613457613450836131fd565b8490611f2f565b90508681141561346f57509250600091506109249050565b8681111561348557509250600191506109249050565b5060010161343b565b50600080fd5b60008061349f613881565b905060006276a7006134b085612af9565b6000898152602085815260408083208b84528252808320949093018083529390522080549192509063ffffffff600160a01b8204811691600160c01b8104821691600160e01b90910416816135175760405162461bcd60e51b81526004016101ff90614bb1565b6135248184848c8c61388e565b9b9a5050505050505050505050565b600081861061354157600080fd5b84821061354d57600080fd5b8383106135735761356c84612b5d888803611f188388038b88036116aa565b9050610eba565b61356c61358a878703611f188688038a87036116aa565b8590611f41565b600080610c34601b6110b5565b6135a661473b565b6064633b9aca008360ff8616602081106135bc57fe5b1a02816135c557fe5b0481526064633b9aca008360ff8616600101602081106135e157fe5b1a02816135ea57fe5b0481602001818152505061360f8260028560ff16016020811061360957fe5b1a613916565b60808201819052610100908360ff86166003016020811061362c57fe5b1a028161363557fe5b0460408201526080810151610100908360ff86166004016020811061365657fe5b1a028161365f57fe5b0460608201526207a1208260ff85166005016020811061367b57fe5b1a0260a0820152622625a08260ff85166006016020811061369857fe5b1a0260c08201528160ff8416600701602081106136b157fe5b1a60e082015292915050565b6000610c3482602061394a565b6000610c3482604861394a565b6000677fffffffffffffff8211156136ee57600080fd5b5060401b90565b600081600f0b6000141561370857600080fd5b600082600f0b604085600f0b901b8161371d57fe5b05905060016001607f1b0319811280159061373f575060016001607f1b038113155b610c7a57600080fd5b6000600f82900b60016001607f1b0319141561376357600080fd5b5060000390565b6000600160461b82600f0b1261377f57600080fd5b683fffffffffffffffff1982600f0b121561379c57506000610421565b610c34608083600f0b700171547652b82fe1777d0ffda0d23a7d1202901d61395d565b6000600f83810b9083900b0260401d60016001607f1b0319811280159061373f575060016001607f1b03811315610c7a57600080fd5b600f0b60401d90565b6000610c3482602861394a565b6000610c3482603061394a565b60006a7fffffffffffffffffffff19821280159061384157506a7fffffffffffffffffffff8213155b6116e757600080fd5b613857878787868561440d565b6138708760e001518860a001518960c00151858861388e565b60c090970196909652505050505050565b600080610c34600a6110b5565b600080831161389c57600080fd5b818611156138ab575083610eba565b60006138b78388611f41565b9050838111156138ca5785915050610eba565b60006138d68286612ed9565b905060006138e8633b9aca0083611f41565b9050613909633b9aca00611f186138ff8a856116aa565b612b5d8c876116aa565b9998505050505050505050565b60008160ff166096106139315760ff8216622625a002610c34565b5060951960ff919091160162e4e1c00263165a0bc00190565b60609091015160ff911c16622625a00290565b6000600160461b82600f0b1261397257600080fd5b683fffffffffffffffff1982600f0b121561398f57506000610421565b6001607f1b60006780000000000000008416600f0b13156139c15770016a09e667f3bcc908b2fb1366ea957d3e0260801c5b60008367400000000000000016600f0b13156139ee577001306fe0a31b7152de8d5a46305c85edec0260801c5b60008367200000000000000016600f0b1315613a1b577001172b83c7d517adcdf7c8c50eb14a791f0260801c5b60008367100000000000000016600f0b1315613a485770010b5586cf9890f6298b92b71842a983630260801c5b60008367080000000000000016600f0b1315613a75577001059b0d31585743ae7c548eb68ca417fd0260801c5b60008367040000000000000016600f0b1315613aa257700102c9a3e778060ee6f7caca4f7a29bde80260801c5b60008367020000000000000016600f0b1315613acf5770010163da9fb33356d84a66ae336dcdfa3f0260801c5b600083600160381b16600f0b1315613af857700100b1afa5abcbed6129ab13ec11dc95430260801c5b600083668000000000000016600f0b1315613b245770010058c86da1c09ea1ff19d294cf2f679b0260801c5b600083664000000000000016600f0b1315613b50577001002c605e2e8cec506d21bfc89a23a00f0260801c5b600083662000000000000016600f0b1315613b7c57700100162f3904051fa128bca9c55c31e5df0260801c5b600083661000000000000016600f0b1315613ba8577001000b175effdc76ba38e31671ca9397250260801c5b600083660800000000000016600f0b1315613bd457700100058ba01fb9f96d6cacd4b180917c3d0260801c5b600083660400000000000016600f0b1315613c005770010002c5cc37da9491d0985c348c68e7b30260801c5b600083660200000000000016600f0b1315613c2c577001000162e525ee054754457d59952920260260801c5b600083600160301b16600f0b1315613c555770010000b17255775c040618bf4a4ade83fc0260801c5b6000836580000000000016600f0b1315613c80577001000058b91b5bc9ae2eed81e9b7d4cfab0260801c5b6000836540000000000016600f0b1315613cab57700100002c5c89d5ec6ca4d7c8acc017b7c90260801c5b6000836520000000000016600f0b1315613cd65770010000162e43f4f831060e02d839a9d16d0260801c5b6000836510000000000016600f0b1315613d0157700100000b1721bcfc99d9f890ea069117630260801c5b6000836508000000000016600f0b1315613d2c5770010000058b90cf1e6d97f9ca14dbcc16280260801c5b6000836504000000000016600f0b1315613d57577001000002c5c863b73f016468f6bac5ca2b0260801c5b6000836502000000000016600f0b1315613d8257700100000162e430e5a18f6119e3c02282a50260801c5b600083600160281b16600f0b1315613dab577001000000b1721835514b86e6d96efd1bfe0260801c5b60008364800000000016600f0b1315613dd557700100000058b90c0b48c6be5df846c5b2ef0260801c5b60008364400000000016600f0b1315613dff5770010000002c5c8601cc6b9e94213c72737a0260801c5b60008364200000000016600f0b1315613e29577001000000162e42fff037df38aa2b219f060260801c5b60008364100000000016600f0b1315613e535770010000000b17217fba9c739aa5819f44f90260801c5b60008364080000000016600f0b1315613e7d577001000000058b90bfcdee5acd3c1cedc8230260801c5b60008364040000000016600f0b1315613ea757700100000002c5c85fe31f35a6a30da1be500260801c5b60008364020000000016600f0b1315613ed15770010000000162e42ff0999ce3541b9fffcf0260801c5b60008364010000000016600f0b1315613efb57700100000000b17217f80f4ef5aadda455540260801c5b600083638000000016600f0b1315613f245770010000000058b90bfbf8479bd5a81b51ad0260801c5b600083634000000016600f0b1315613f4d577001000000002c5c85fdf84bd62ae30a74cc0260801c5b600083632000000016600f0b1315613f7657700100000000162e42fefb2fed257559bdaa0260801c5b600083631000000016600f0b1315613f9f577001000000000b17217f7d5a7716bba4a9ae0260801c5b600083630800000016600f0b1315613fc857700100000000058b90bfbe9ddbac5e109cce0260801c5b600083630400000016600f0b1315613ff15770010000000002c5c85fdf4b15de6f17eb0d0260801c5b600083630200000016600f0b131561401a577001000000000162e42fefa494f1478fde050260801c5b600083630100000016600f0b13156140435770010000000000b17217f7d20cf927c8e94c0260801c5b6000836280000016600f0b131561406b577001000000000058b90bfbe8f71cb4e4b33d0260801c5b6000836240000016600f0b131561409357700100000000002c5c85fdf477b662b269450260801c5b6000836220000016600f0b13156140bb5770010000000000162e42fefa3ae53369388c0260801c5b6000836210000016600f0b13156140e357700100000000000b17217f7d1d351a389d400260801c5b6000836208000016600f0b131561410b5770010000000000058b90bfbe8e8b2d3d4ede0260801c5b6000836204000016600f0b1315614133577001000000000002c5c85fdf4741bea6e77e0260801c5b6000836202000016600f0b131561415b57700100000000000162e42fefa39fe95583c20260801c5b6000836201000016600f0b1315614183577001000000000000b17217f7d1cfb72b45e10260801c5b60008361800016600f0b13156141aa57700100000000000058b90bfbe8e7cc35c3f00260801c5b60008361400016600f0b13156141d15770010000000000002c5c85fdf473e242ea380260801c5b60008361200016600f0b13156141f8577001000000000000162e42fefa39f02b772c0260801c5b60008361100016600f0b131561421f5770010000000000000b17217f7d1cf7d83c1a0260801c5b60008361080016600f0b1315614246577001000000000000058b90bfbe8e7bdcbe2e0260801c5b60008361040016600f0b131561426d57700100000000000002c5c85fdf473dea871f0260801c5b60008361020016600f0b13156142945770010000000000000162e42fefa39ef44d910260801c5b60008361010016600f0b13156142bb57700100000000000000b17217f7d1cf79e9490260801c5b600083608016600f0b13156142e15770010000000000000058b90bfbe8e7bce5440260801c5b600083604016600f0b1315614307577001000000000000002c5c85fdf473de6eca0260801c5b600083602016600f0b131561432d57700100000000000000162e42fefa39ef366f0260801c5b600083601016600f0b1315614353577001000000000000000b17217f7d1cf79afa0260801c5b600083600816600f0b131561437957700100000000000000058b90bfbe8e7bcd6d0260801c5b600083600416600f0b131561439f5770010000000000000002c5c85fdf473de6b20260801c5b600083600216600f0b13156143c5577001000000000000000162e42fefa39ef3580260801c5b600083600116600f0b13156143eb5770010000000000000000b17217f7d1cf79ab0260801c5b600f83810b60401d603f03900b1c60016001607f1b03811115610c3457600080fd5b6000614417613881565b6000868152602082815260408083208884528252808320868452825291829020808a5290890187905280546001600160501b03808216938b0193909352600160501b810490921660608a015263ffffffff600160a01b8304811660a08b0152600160c01b8304811660c08b0152600160e01b90920490911660e08901529091508084156144b65760018201546001600160501b03166080890152612ac8565b600060808901525050505050505050565b6040805160c081018252600080825260208201819052918101829052606081018290526080810182905260a081019190915290565b60405180610160016040528060006001600160a01b031681526020016000815260200160008152602001600081526020016000815260200160006001600160d01b031916815260200161454d6145f0565b815260200161455a6145f0565b815260200161456761461f565b81526020016145746145d1565b8152600060209091015290565b6040518060e0016040528060008152602001600015158152602001600081526020016145ab6145d1565b8152602001606081526020016145bf61461f565b81526020016145cc614780565b905290565b604080516080810182526000808252602082015290810161457461461f565b6040518060a0016040528060008152602001600081526020016000815260200160008152602001600081525090565b60405180606001604052806000815260200160008152602001600081525090565b6040518061012001604052806000815260200160008152602001600081526020016000815260200160008152602001600081526020016000815260200160008152602001600081525090565b6040518060c00160405280600061ffff16815260200160008152602001600081526020016000815260200160008152602001600060038111156145cc57fe5b6040518060800160405280606081526020016060815260200160008152602001600081525090565b60405180610100016040528060008019168152602001600081526020016000815260200160008152602001600081526020016000815260200160008152602001600081525090565b60405180610100016040528060008152602001600081526020016000815260200160008152602001600081526020016000815260200160008152602001600081525090565b6040518060e001604052806147936145d1565b81526020016147a06146cb565b815260006020820181905260408201819052606082018190526080820181905260a09091015290565b80356001600160a01b038116811461042157600080fd5b8051801515811461042157600080fd5b80516001600160701b03198116811461042157600080fd5b80516001600160f81b03198116811461042157600080fd5b805161ffff8116811461042157600080fd5b80516001600160501b038116811461042157600080fd5b805160ff8116811461042157600080fd5b60006020828403121561486b578081fd5b610c7a826147c9565b600080600060608486031215614888578182fd5b614891846147c9565b95602085013595506040909401359392505050565b600060c082840312156148b7578081fd5b60405160c0810181811067ffffffffffffffff821117156148d457fe5b604052825164ffffffffff811681146148eb578283fd5b81526148f960208401614808565b602082015261490a60408401614849565b604082015261491b60608401614820565b606082015261492c608084016147f0565b608082015261493d60a084016147e0565b60a08201529392505050565b6000806040838503121561495b578182fd5b505080516020909101519092909150565b600080600080600060a08688031215614983578081fd5b61498c86614832565b94506020860151935060408601519250606086015191506149af60808701614832565b90509295509295909350565b6001600160a01b03169052565b6000815180845260208085019450808401835b83811015614a39578151805161ffff168852838101518489015260408082015190890152606080820151908901526080808201519089015260a0908101519060048210614a2457fe5b88015260c090960195908201906001016149db565b509495945050505050565b15159052565b6001600160d01b0319169052565b805164ffffffffff1682526020808201516001600160f81b0319169083015260408082015160ff169083015260608082015161ffff16908301526080808201516001600160701b0319169083015260a0908101511515910152565b61ffff8151168252602081015160208301526040810151614ad76040840182614b15565b506060015160a09190910152565b80518252602081015160208301526040810151604083015260608101516060830152608081015160808301525050565b8051825260208082015190830152604090810151910152565b6001600160a01b03929092168252602082015260400190565b6001600160a01b038316815260e08101610c7a6020830184614a58565b60006040820184835260206040818501528185518084526060860191508287019350845b81811015614ba457845183529383019391830191600101614b88565b5090979650505050505050565b60208082526016908201527513585c9ad95d081b9bdd081a5b9a5d1a585b1a5e995960521b604082015260600190565b6020808252600d908201526c092dcecc2d8d2c840d2dcc8caf609b1b604082015260600190565b602080825260129082015271105cdcd95d1cc81b9bdd081cd95d1d1b195960721b604082015260600190565b6020808252600e908201526d125b9d985b1a59081b585c9ad95d60921b604082015260600190565b60208082526016908201527514d95c5d595b98d95c8811dc9858d94814195c9a5bd960521b604082015260600190565b6020808252600e908201526d29b2b8bab2b731b2b9102237bbb760911b604082015260600190565b60208082526015908201527414dd59999a58da595b9d0818dbdb1b185d195c985b605a1b604082015260600190565b6020808252601c908201527f496e73756666696369656e74206672656520636f6c6c61746572616c00000000604082015260600190565b6000610420614d298387614a58565b614d3760c0840186516149bb565b602085015160e08401526040850151610100818186015260608701519150610120828187015260808801519250610140838188015260a08901519350614d81610160880185614a4a565b60c08901519350614d96610180880185614ae5565b60e08901519350614dab610220880185614ae5565b828901519350614dbf6102c0880185614b15565b818901519350614dd3610320880185614ab3565b8801519250614de99150506103e0850182614a44565b50806104008401526127d1818401856149c8565b928352602083019190915260408201526060019056fea2646970667358221220f194af21d2813ebcc47f861e678ce3134dc7db6687fad23f616646c30ab1b7b464736f6c63430007060033","language":"Solidity","natspec":{"kind":"dev","methods":{"checkFreeCollateralAndRevert(address)":{"details":"Cannot be called directly by users, used during various actions that require an FC check. Must be called before the end of any transaction for accounts where FC can decrease.","notice":"Calculates free collateral and will revert if it falls below zero. If the account context must be updated due to changes in debt settings, will update. Cannot check free collateral if assets need to be settled first.","params":{"account":"account to calculate free collateral for"}},"getFreeCollateralView(address)":{"details":"Called via the Views.sol method to return an account's free collateral. Does not work for the nToken, the nToken does not have an account context.","notice":"Returns the ETH denominated free collateral of an account, represents the amount of debt that the account can incur before liquidation. If an account's assets need to be settled this will revert, either settle the account or use the off chain SDK to calculate free collateral.","params":{"account":"account to calculate free collateral for"},"returns":{"_0":"total free collateral in ETH w/ 8 decimal places","_1":"array of net local values in asset values ordered by currency id"}},"getLiquidationFactors(address,uint256,uint256)":{"details":"Only called internally by liquidation actions, does some initial validation of currencies. If a currency is specified that the account does not have, a asset available figure of zero will be returned. If this is the case then liquidation actions will revert.an ntoken account will return 0 FC and revert if called","notice":"Calculates liquidation factors for an account","params":{"account":"account to liquidate","collateralCurrencyId":"collateral currency to liquidate against, set to zero in the case of local currency liquidation","localCurrencyId":"currency that the debts are denominated in"},"returns":{"accountContext":"the accountContext of the liquidated account","factors":"struct of relevant factors for liquidation","portfolio":"the portfolio array of the account (bitmap accounts will return an empty array)"}}},"title":"Externally deployed library for free collateral calculations","version":1},"opcodes":"PUSH20 0x0 ADDRESS EQ PUSH1 0x80 PUSH1 0x40 MSTORE PUSH1 0x4 CALLDATASIZE LT PUSH2 0x4B JUMPI PUSH1 0x0 CALLDATALOAD PUSH1 0xE0 SHR DUP1 PUSH4 0x451D958F EQ PUSH2 0x50 JUMPI DUP1 PUSH4 0x6CB65EAF EQ PUSH2 0x88 JUMPI DUP1 PUSH4 0x6CCC642F EQ PUSH2 0xA9 JUMPI JUMPDEST PUSH1 0x0 DUP1 REVERT JUMPDEST DUP2 DUP1 ISZERO PUSH2 0x5C JUMPI PUSH1 0x0 DUP1 REVERT JUMPDEST POP PUSH2 0x70 PUSH2 0x6B CALLDATASIZE PUSH1 0x4 PUSH2 0x4874 JUMP JUMPDEST PUSH2 0xCB JUMP JUMPDEST PUSH1 0x40 MLOAD PUSH2 0x7F SWAP4 SWAP3 SWAP2 SWAP1 PUSH2 0x4D1A JUMP JUMPDEST PUSH1 0x40 MLOAD DUP1 SWAP2 SUB SWAP1 RETURN JUMPDEST PUSH2 0x9B PUSH2 0x96 CALLDATASIZE PUSH1 0x4 PUSH2 0x485A JUMP JUMPDEST PUSH2 0x1C8 JUMP JUMPDEST PUSH1 0x40 MLOAD PUSH2 0x7F SWAP3 SWAP2 SWAP1 PUSH2 0x4B64 JUMP JUMPDEST DUP2 DUP1 ISZERO PUSH2 0xB5 JUMPI PUSH1 0x0 DUP1 REVERT JUMPDEST POP PUSH2 0xC9 PUSH2 0xC4 CALLDATASIZE PUSH1 0x4 PUSH2 0x485A JUMP JUMPDEST PUSH2 0x21D JUMP JUMPDEST STOP JUMPDEST PUSH2 0xD3 PUSH2 0x44C7 JUMP JUMPDEST PUSH2 0xDB PUSH2 0x44FC JUMP JUMPDEST PUSH1 0x60 PUSH2 0xE5 PUSH2 0x2A1 JUMP JUMPDEST PUSH2 0xEE DUP7 PUSH2 0x377 JUMP JUMPDEST SWAP3 POP PUSH2 0xF9 DUP4 PUSH2 0x426 JUMP JUMPDEST ISZERO PUSH2 0x18A JUMPI PUSH1 0x40 MLOAD PUSH4 0x37B5FC21 PUSH1 0xE1 SHL DUP2 MSTORE PUSH20 0x0 SWAP1 PUSH4 0x6F6BF842 SWAP1 PUSH2 0x137 SWAP1 DUP10 SWAP1 DUP8 SWAP1 PUSH1 0x4 ADD PUSH2 0x4B47 JUMP JUMPDEST PUSH1 0xC0 PUSH1 0x40 MLOAD DUP1 DUP4 SUB DUP2 DUP7 DUP1 EXTCODESIZE ISZERO DUP1 ISZERO PUSH2 0x14F JUMPI PUSH1 0x0 DUP1 REVERT JUMPDEST POP GAS DELEGATECALL ISZERO DUP1 ISZERO PUSH2 0x163 JUMPI RETURNDATASIZE PUSH1 0x0 DUP1 RETURNDATACOPY RETURNDATASIZE PUSH1 0x0 REVERT JUMPDEST POP POP POP POP PUSH1 0x40 MLOAD RETURNDATASIZE PUSH1 0x1F NOT PUSH1 0x1F DUP3 ADD AND DUP3 ADD DUP1 PUSH1 0x40 MSTORE POP DUP2 ADD SWAP1 PUSH2 0x187 SWAP2 SWAP1 PUSH2 0x48A6 JUMP JUMPDEST SWAP3 POP JUMPDEST PUSH2 0x193 DUP4 PUSH2 0x47A JUMP JUMPDEST ISZERO PUSH2 0x1AC JUMPI DUP3 PUSH1 0x60 ADD MLOAD PUSH2 0xFFFF AND DUP6 EQ PUSH2 0x1AC JUMPI PUSH1 0x0 DUP1 REVERT JUMPDEST PUSH2 0x1B9 DUP7 DUP5 TIMESTAMP DUP9 DUP9 PUSH2 0x487 JUMP JUMPDEST SWAP4 SWAP8 SWAP1 SWAP7 POP SWAP3 SWAP5 POP SWAP2 SWAP3 POP POP POP JUMP JUMPDEST PUSH1 0x0 PUSH1 0x60 PUSH1 0x0 PUSH2 0x1D7 DUP5 PUSH2 0x377 JUMP JUMPDEST SWAP1 POP PUSH2 0x1E2 DUP2 PUSH2 0x426 JUMP JUMPDEST ISZERO PUSH2 0x208 JUMPI PUSH1 0x40 MLOAD PUSH3 0x461BCD PUSH1 0xE5 SHL DUP2 MSTORE PUSH1 0x4 ADD PUSH2 0x1FF SWAP1 PUSH2 0x4C08 JUMP JUMPDEST PUSH1 0x40 MLOAD DUP1 SWAP2 SUB SWAP1 REVERT JUMPDEST PUSH2 0x213 DUP5 DUP3 TIMESTAMP PUSH2 0x6E6 JUMP JUMPDEST SWAP3 POP SWAP3 POP POP SWAP2 POP SWAP2 JUMP JUMPDEST PUSH2 0x225 PUSH2 0x2A1 JUMP JUMPDEST PUSH1 0x0 PUSH2 0x230 DUP3 PUSH2 0x377 JUMP JUMPDEST SWAP1 POP PUSH2 0x23B DUP2 PUSH2 0x426 JUMP JUMPDEST ISZERO PUSH2 0x258 JUMPI PUSH1 0x40 MLOAD PUSH3 0x461BCD PUSH1 0xE5 SHL DUP2 MSTORE PUSH1 0x4 ADD PUSH2 0x1FF SWAP1 PUSH2 0x4C08 JUMP JUMPDEST PUSH1 0x0 DUP1 PUSH2 0x266 DUP5 DUP5 TIMESTAMP PUSH2 0x92C JUMP JUMPDEST SWAP2 POP SWAP2 POP DUP1 ISZERO PUSH2 0x27A JUMPI PUSH2 0x27A DUP4 DUP6 PUSH2 0xB0A JUMP JUMPDEST PUSH1 0x0 DUP3 SLT ISZERO PUSH2 0x29B JUMPI PUSH1 0x40 MLOAD PUSH3 0x461BCD PUSH1 0xE5 SHL DUP2 MSTORE PUSH1 0x4 ADD PUSH2 0x1FF SWAP1 PUSH2 0x4CE3 JUMP JUMPDEST POP POP POP POP JUMP JUMPDEST PUSH1 0x0 DUP1 PUSH20 0xFDB631F5EE196F0ED6FAA767959853A9F217697D PUSH1 0x1 PUSH1 0x1 PUSH1 0xA0 SHL SUB AND PUSH4 0xFEAF968C PUSH1 0x40 MLOAD DUP2 PUSH4 0xFFFFFFFF AND PUSH1 0xE0 SHL DUP2 MSTORE PUSH1 0x4 ADD PUSH1 0xA0 PUSH1 0x40 MLOAD DUP1 DUP4 SUB DUP2 DUP7 DUP1 EXTCODESIZE ISZERO DUP1 ISZERO PUSH2 0x2F1 JUMPI PUSH1 0x0 DUP1 REVERT JUMPDEST POP GAS STATICCALL ISZERO DUP1 ISZERO PUSH2 0x305 JUMPI RETURNDATASIZE PUSH1 0x0 DUP1 RETURNDATACOPY RETURNDATASIZE PUSH1 0x0 REVERT JUMPDEST POP POP POP POP PUSH1 0x40 MLOAD RETURNDATASIZE PUSH1 0x1F NOT PUSH1 0x1F DUP3 ADD AND DUP3 ADD DUP1 PUSH1 0x40 MSTORE POP DUP2 ADD SWAP1 PUSH2 0x329 SWAP2 SWAP1 PUSH2 0x496C JUMP JUMPDEST POP POP SWAP3 POP SWAP3 POP POP DUP2 PUSH1 0x0 EQ PUSH2 0x350 JUMPI PUSH1 0x40 MLOAD PUSH3 0x461BCD PUSH1 0xE5 SHL DUP2 MSTORE PUSH1 0x4 ADD PUSH2 0x1FF SWAP1 PUSH2 0x4C8C JUMP JUMPDEST DUP1 TIMESTAMP SUB PUSH2 0xE10 LT PUSH2 0x373 JUMPI PUSH1 0x40 MLOAD PUSH3 0x461BCD PUSH1 0xE5 SHL DUP2 MSTORE PUSH1 0x4 ADD PUSH2 0x1FF SWAP1 PUSH2 0x4C5C JUMP JUMPDEST POP POP JUMP JUMPDEST PUSH2 0x37F PUSH2 0x44C7 JUMP JUMPDEST PUSH1 0x0 PUSH2 0x389 PUSH2 0xC27 JUMP JUMPDEST PUSH1 0x1 PUSH1 0x1 PUSH1 0xA0 SHL SUB DUP5 AND PUSH1 0x0 SWAP1 DUP2 MSTORE PUSH1 0x20 SWAP2 DUP3 MSTORE PUSH1 0x40 SWAP1 DUP2 SWAP1 KECCAK256 DUP2 MLOAD PUSH1 0xC0 DUP2 ADD DUP4 MSTORE SWAP1 SLOAD PUSH5 0xFFFFFFFFFF DUP2 AND DUP3 MSTORE PUSH1 0x1 PUSH1 0x1 PUSH1 0xF8 SHL SUB NOT PUSH1 0x1 PUSH1 0x28 SHL DUP3 DIV PUSH1 0xF8 SHL AND SWAP4 DUP3 ADD SWAP4 SWAP1 SWAP4 MSTORE PUSH1 0xFF PUSH1 0x1 PUSH1 0x30 SHL DUP5 DIV DUP2 AND SWAP3 DUP3 ADD SWAP3 SWAP1 SWAP3 MSTORE PUSH2 0xFFFF PUSH1 0x1 PUSH1 0x38 SHL DUP5 DIV AND PUSH1 0x60 DUP3 ADD MSTORE PUSH1 0x1 PUSH1 0x1 PUSH1 0x70 SHL SUB NOT PUSH1 0x1 PUSH1 0x48 SHL DUP5 DIV PUSH1 0x70 SHL AND PUSH1 0x80 DUP3 ADD MSTORE PUSH1 0x1 PUSH1 0xD8 SHL SWAP1 SWAP3 DIV AND ISZERO ISZERO PUSH1 0xA0 DUP3 ADD MSTORE SWAP2 POP POP JUMPDEST SWAP2 SWAP1 POP JUMP JUMPDEST PUSH1 0x0 TIMESTAMP PUSH2 0x432 DUP4 PUSH2 0x47A JUMP JUMPDEST ISZERO PUSH2 0x453 JUMPI PUSH2 0x440 DUP2 PUSH2 0xC3A JUMP JUMPDEST DUP4 MLOAD PUSH5 0xFFFFFFFFFF AND LT SWAP2 POP PUSH2 0x421 SWAP1 POP JUMP JUMPDEST DUP3 MLOAD PUSH5 0xFFFFFFFFFF AND ISZERO DUP1 ISZERO SWAP1 PUSH2 0x472 JUMPI POP DUP3 MLOAD PUSH5 0xFFFFFFFFFF AND DUP2 LT ISZERO JUMPDEST SWAP2 POP POP PUSH2 0x421 JUMP JUMPDEST PUSH1 0x60 ADD MLOAD PUSH2 0xFFFF AND ISZERO ISZERO SWAP1 JUMP JUMPDEST PUSH2 0x48F PUSH2 0x44FC JUMP JUMPDEST PUSH1 0x60 PUSH2 0x499 PUSH2 0x4581 JUMP JUMPDEST PUSH2 0x4A1 PUSH2 0x44FC JUMP JUMPDEST PUSH1 0x1 PUSH1 0x1 PUSH1 0xA0 SHL SUB DUP10 AND DUP2 MSTORE PUSH2 0x4B6 DUP9 PUSH2 0x47A JUMP JUMPDEST ISZERO PUSH2 0x58F JUMPI PUSH2 0x4C8 DUP9 PUSH1 0x60 ADD MLOAD PUSH2 0xC5B JUMP JUMPDEST PUSH1 0x60 DUP4 ADD MSTORE PUSH1 0x0 DUP1 DUP1 PUSH2 0x4DD DUP13 DUP12 DUP14 DUP9 PUSH2 0xC81 JUMP JUMPDEST SWAP3 POP SWAP3 POP SWAP3 POP PUSH1 0x0 PUSH2 0x4F1 DUP14 DUP13 DUP15 DUP10 PUSH2 0xCDC JUMP JUMPDEST SWAP1 POP PUSH1 0x0 PUSH2 0x509 DUP3 PUSH2 0x503 DUP8 DUP8 PUSH2 0xD95 JUMP JUMPDEST SWAP1 PUSH2 0xD95 JUMP JUMPDEST SWAP1 POP DUP7 PUSH1 0x60 ADD MLOAD PUSH1 0x40 ADD MLOAD DUP8 PUSH1 0xA0 ADD DUP2 SWAP1 MSTORE POP PUSH1 0x0 PUSH2 0x531 DUP15 PUSH1 0x60 ADD MLOAD PUSH2 0xFFFF AND DUP4 DUP11 PUSH2 0xDAB JUMP JUMPDEST SWAP1 POP DUP12 DUP15 PUSH1 0x60 ADD MLOAD PUSH2 0xFFFF AND EQ ISZERO PUSH2 0x584 JUMPI PUSH1 0x40 DUP8 ADD DUP3 SWAP1 MSTORE PUSH1 0xC0 DUP8 ADD DUP2 SWAP1 MSTORE PUSH1 0xA0 DUP9 ADD MLOAD PUSH2 0x100 DUP9 ADD MSTORE DUP11 PUSH2 0x584 JUMPI PUSH1 0x60 DUP9 ADD MLOAD PUSH2 0x120 DUP9 ADD MSTORE PUSH1 0x80 DUP8 ADD DUP6 SWAP1 MSTORE PUSH1 0x1 PUSH1 0x1 PUSH1 0xD0 SHL SUB NOT DUP5 AND PUSH1 0xA0 DUP9 ADD MSTORE JUMPDEST POP POP POP POP POP POP PUSH2 0x5A3 JUMP JUMPDEST PUSH2 0x59D DUP10 DUP10 PUSH1 0x40 ADD MLOAD PUSH2 0xDF6 JUMP JUMPDEST PUSH1 0x80 DUP4 ADD MSTORE JUMPDEST PUSH1 0x80 DUP9 ADD MLOAD JUMPDEST PUSH1 0x1 PUSH1 0x1 PUSH1 0x70 SHL SUB NOT DUP2 AND ISZERO PUSH2 0x687 JUMPI PUSH1 0x60 DUP10 ADD MLOAD DUP2 SWAP1 PUSH1 0x0 SWAP1 PUSH1 0xF0 DUP4 SWAP1 SHR PUSH2 0x3FFF AND SWAP1 PUSH2 0xFFFF AND DUP2 EQ ISZERO PUSH2 0x5DD JUMPI PUSH1 0x0 DUP1 REVERT JUMPDEST DUP10 DUP2 EQ DUP1 ISZERO PUSH2 0x5EA JUMPI POP DUP9 ISZERO JUMPDEST DUP1 PUSH2 0x5F4 JUMPI POP DUP9 DUP2 EQ JUMPDEST SWAP2 POP POP PUSH1 0x0 PUSH2 0x606 DUP7 DUP7 DUP6 DUP6 DUP16 PUSH2 0xE0A JUMP JUMPDEST SWAP1 POP PUSH1 0xF0 DUP4 SWAP1 SHR PUSH2 0x3FFF AND PUSH1 0x0 PUSH2 0x61E DUP3 DUP5 DUP11 PUSH2 0xDAB JUMP JUMPDEST SWAP1 POP DUP11 DUP3 EQ ISZERO PUSH2 0x64A JUMPI PUSH1 0xA0 DUP9 ADD MLOAD PUSH2 0x120 DUP9 ADD MLOAD PUSH1 0x40 ADD MSTORE PUSH1 0x60 DUP8 ADD DUP4 SWAP1 MSTORE PUSH1 0xE0 DUP8 ADD DUP2 SWAP1 MSTORE PUSH2 0x66C JUMP JUMPDEST DUP12 DUP3 EQ ISZERO PUSH2 0x66C JUMPI PUSH1 0x40 DUP8 ADD DUP4 SWAP1 MSTORE PUSH1 0xC0 DUP8 ADD DUP2 SWAP1 MSTORE PUSH1 0xA0 DUP9 ADD MLOAD PUSH2 0x100 DUP9 ADD MSTORE JUMPDEST PUSH1 0x10 DUP7 PUSH1 0x1 PUSH1 0x1 PUSH1 0x70 SHL SUB NOT AND SWAP1 SHL SWAP6 POP POP POP POP POP POP PUSH2 0x5A9 JUMP JUMPDEST DUP3 MLOAD PUSH1 0x20 DUP4 ADD DUP2 SWAP1 MSTORE PUSH1 0x0 SGT PUSH2 0x6AF JUMPI PUSH1 0x40 MLOAD PUSH3 0x461BCD PUSH1 0xE5 SHL DUP2 MSTORE PUSH1 0x4 ADD PUSH2 0x1FF SWAP1 PUSH2 0x4CB4 JUMP JUMPDEST PUSH1 0x40 DUP10 ADD MLOAD PUSH1 0xFF AND ISZERO PUSH2 0x6D0 JUMPI PUSH2 0x6CA DUP11 DUP11 PUSH1 0x40 ADD MLOAD PUSH2 0xDF6 JUMP JUMPDEST PUSH1 0x80 DUP5 ADD MSTORE JUMPDEST POP PUSH1 0x80 SWAP1 SWAP2 ADD MLOAD SWAP1 SWAP3 POP SWAP1 POP SWAP6 POP SWAP6 SWAP4 POP POP POP POP JUMP JUMPDEST PUSH1 0x0 PUSH1 0x60 PUSH2 0x6F2 PUSH2 0x4581 JUMP JUMPDEST PUSH1 0x40 DUP1 MLOAD PUSH1 0xA DUP1 DUP3 MSTORE PUSH2 0x160 DUP3 ADD SWAP1 SWAP3 MSTORE PUSH1 0x0 SWAP2 DUP3 SWAP2 SWAP1 PUSH1 0x20 DUP3 ADD PUSH2 0x140 DUP1 CALLDATASIZE DUP4 CALLDATACOPY ADD SWAP1 POP POP SWAP1 POP PUSH2 0x723 DUP8 PUSH2 0x47A JUMP JUMPDEST ISZERO PUSH2 0x7CB JUMPI PUSH2 0x735 DUP8 PUSH1 0x60 ADD MLOAD PUSH2 0xEC3 JUMP JUMPDEST PUSH1 0x60 DUP5 ADD MSTORE PUSH1 0x0 DUP1 PUSH2 0x749 DUP11 DUP10 DUP12 DUP9 PUSH2 0xC81 JUMP JUMPDEST POP SWAP2 POP SWAP2 POP PUSH1 0x0 PUSH2 0x75C DUP12 DUP11 DUP13 DUP10 PUSH2 0xCDC JUMP JUMPDEST SWAP1 POP PUSH2 0x76C DUP2 PUSH2 0x503 DUP6 DUP6 PUSH2 0xD95 JUMP JUMPDEST DUP5 DUP7 DUP2 MLOAD DUP2 LT PUSH2 0x778 JUMPI INVALID JUMPDEST PUSH1 0x20 MUL PUSH1 0x20 ADD ADD DUP2 DUP2 MSTORE POP POP DUP6 PUSH1 0x60 ADD MLOAD PUSH1 0x40 ADD MLOAD DUP7 PUSH1 0xA0 ADD DUP2 SWAP1 MSTORE POP PUSH2 0x7BB DUP11 PUSH1 0x60 ADD MLOAD PUSH2 0xFFFF AND DUP6 DUP8 DUP2 MLOAD DUP2 LT PUSH2 0x7AD JUMPI INVALID JUMPDEST PUSH1 0x20 MUL PUSH1 0x20 ADD ADD MLOAD DUP9 PUSH2 0xDAB JUMP JUMPDEST POP POP PUSH1 0x1 SWAP1 SWAP4 ADD SWAP3 POP PUSH2 0x7DF SWAP1 POP JUMP JUMPDEST PUSH2 0x7D9 DUP9 DUP9 PUSH1 0x40 ADD MLOAD PUSH2 0xDF6 JUMP JUMPDEST PUSH1 0x80 DUP5 ADD MSTORE JUMPDEST PUSH1 0x80 DUP8 ADD MLOAD JUMPDEST PUSH1 0x1 PUSH1 0x1 PUSH1 0x70 SHL SUB NOT DUP2 AND ISZERO PUSH2 0x91A JUMPI PUSH1 0x60 DUP9 ADD MLOAD DUP2 SWAP1 PUSH1 0xF0 DUP3 SWAP1 SHR PUSH2 0x3FFF AND SWAP1 PUSH2 0xFFFF AND DUP2 EQ ISZERO PUSH2 0x816 JUMPI PUSH1 0x0 DUP1 REVERT JUMPDEST PUSH1 0x0 PUSH2 0x822 DUP3 DUP12 PUSH2 0xEE4 JUMP JUMPDEST POP PUSH1 0xA0 DUP9 ADD DUP2 SWAP1 MSTORE PUSH2 0x837 SWAP1 DUP14 SWAP1 DUP6 SWAP1 PUSH2 0xFA2 JUMP JUMPDEST DUP7 DUP9 DUP2 MLOAD DUP2 LT PUSH2 0x843 JUMPI INVALID JUMPDEST PUSH1 0x20 MUL PUSH1 0x20 ADD ADD DUP2 SWAP4 POP DUP3 DUP2 MSTORE POP POP POP PUSH2 0x85C DUP4 PUSH2 0xFE7 JUMP JUMPDEST DUP1 PUSH2 0x867 JUMPI POP PUSH1 0x0 DUP2 SGT JUMPDEST ISZERO PUSH2 0x8D2 JUMPI PUSH2 0x875 DUP3 PUSH2 0xEC3 JUMP JUMPDEST PUSH1 0x60 DUP9 ADD MSTORE PUSH1 0x0 DUP1 PUSH2 0x888 DUP10 DUP5 DUP15 PUSH2 0xFF3 JUMP JUMPDEST POP SWAP2 POP SWAP2 POP PUSH2 0x8B7 DUP2 PUSH2 0x503 DUP5 DUP11 DUP13 DUP2 MLOAD DUP2 LT PUSH2 0x8A1 JUMPI INVALID JUMPDEST PUSH1 0x20 MUL PUSH1 0x20 ADD ADD MLOAD PUSH2 0xD95 SWAP1 SWAP2 SWAP1 PUSH4 0xFFFFFFFF AND JUMP JUMPDEST DUP8 DUP10 DUP2 MLOAD DUP2 LT PUSH2 0x8C3 JUMPI INVALID JUMPDEST PUSH1 0x20 MUL PUSH1 0x20 ADD ADD DUP2 DUP2 MSTORE POP POP POP POP JUMPDEST PUSH2 0x8F4 DUP3 PUSH2 0xFFFF AND DUP7 DUP9 DUP2 MLOAD DUP2 LT PUSH2 0x8E6 JUMPI INVALID JUMPDEST PUSH1 0x20 MUL PUSH1 0x20 ADD ADD MLOAD DUP10 PUSH2 0xDAB JUMP JUMPDEST POP POP POP PUSH1 0x1 SWAP4 SWAP1 SWAP4 ADD SWAP3 POP PUSH1 0x10 SHL PUSH16 0xFFFFFFFFFFFFFFFFFFFFFFFFFFFFFFFF NOT AND PUSH2 0x7E5 JUMP JUMPDEST POP SWAP2 MLOAD SWAP4 POP SWAP1 SWAP2 POP POP JUMPDEST SWAP4 POP SWAP4 SWAP2 POP POP JUMP JUMPDEST PUSH1 0x0 DUP1 PUSH2 0x937 PUSH2 0x4581 JUMP JUMPDEST PUSH1 0x0 PUSH2 0x942 DUP7 PUSH2 0x47A JUMP JUMPDEST ISZERO PUSH2 0x9C9 JUMPI PUSH2 0x954 DUP7 PUSH1 0x60 ADD MLOAD PUSH2 0xC5B JUMP JUMPDEST PUSH1 0x60 DUP4 ADD MSTORE PUSH1 0x0 DUP1 PUSH2 0x968 DUP10 DUP9 DUP11 DUP8 PUSH2 0xC81 JUMP JUMPDEST POP SWAP2 POP SWAP2 POP PUSH1 0x0 DUP3 SLT ISZERO PUSH2 0x97B JUMPI PUSH1 0x1 SWAP3 POP JUMPDEST PUSH1 0x0 PUSH2 0x989 DUP11 DUP10 DUP12 DUP9 PUSH2 0xCDC JUMP JUMPDEST SWAP1 POP PUSH1 0x0 PUSH2 0x99B DUP3 PUSH2 0x503 DUP7 DUP7 PUSH2 0xD95 JUMP JUMPDEST PUSH1 0x60 DUP1 DUP9 ADD MLOAD PUSH1 0x40 ADD MLOAD PUSH1 0xA0 DUP10 ADD MSTORE DUP12 ADD MLOAD SWAP1 SWAP2 POP PUSH2 0x9BF SWAP1 PUSH2 0xFFFF AND DUP3 DUP9 PUSH2 0xDAB JUMP JUMPDEST POP POP POP POP POP PUSH2 0x9DD JUMP JUMPDEST PUSH2 0x9D7 DUP8 DUP8 PUSH1 0x40 ADD MLOAD PUSH2 0xDF6 JUMP JUMPDEST PUSH1 0x80 DUP4 ADD MSTORE JUMPDEST PUSH1 0x80 DUP7 ADD MLOAD JUMPDEST PUSH1 0x1 PUSH1 0x1 PUSH1 0x70 SHL SUB NOT DUP2 AND ISZERO PUSH2 0xAC1 JUMPI PUSH1 0x60 DUP8 ADD MLOAD DUP2 SWAP1 PUSH1 0xF0 DUP3 SWAP1 SHR PUSH2 0x3FFF AND SWAP1 PUSH2 0xFFFF AND DUP2 EQ ISZERO PUSH2 0xA14 JUMPI PUSH1 0x0 DUP1 REVERT JUMPDEST PUSH2 0xA1D DUP2 PUSH2 0x10A3 JUMP JUMPDEST DUP6 PUSH1 0xA0 ADD DUP2 SWAP1 MSTORE POP PUSH1 0x0 DUP1 PUSH2 0xA37 DUP13 DUP6 DUP10 PUSH1 0xA0 ADD MLOAD PUSH2 0xFA2 JUMP JUMPDEST SWAP2 POP SWAP2 POP PUSH1 0x0 DUP3 SLT ISZERO PUSH2 0xA49 JUMPI PUSH1 0x1 SWAP6 POP JUMPDEST PUSH2 0xA52 DUP5 PUSH2 0xFE7 JUMP JUMPDEST DUP1 PUSH2 0xA5D JUMPI POP PUSH1 0x0 DUP2 SGT JUMPDEST ISZERO PUSH2 0xA97 JUMPI PUSH2 0xA6B DUP4 PUSH2 0xC5B JUMP JUMPDEST PUSH1 0x60 DUP9 ADD MSTORE PUSH1 0x0 DUP1 PUSH2 0xA7E DUP10 DUP5 DUP15 PUSH2 0xFF3 JUMP JUMPDEST POP SWAP1 SWAP3 POP SWAP1 POP PUSH2 0xA92 DUP2 PUSH2 0x503 DUP7 DUP6 PUSH2 0xD95 JUMP JUMPDEST SWAP4 POP POP POP JUMPDEST PUSH2 0xAA6 DUP4 PUSH2 0xFFFF AND DUP4 DUP10 PUSH2 0xDAB JUMP JUMPDEST POP PUSH1 0x10 DUP6 PUSH1 0x1 PUSH1 0x1 PUSH1 0x70 SHL SUB NOT AND SWAP1 SHL SWAP5 POP POP POP POP POP PUSH2 0x9E3 JUMP JUMPDEST PUSH1 0x20 DUP8 ADD MLOAD PUSH1 0x1 PUSH1 0xF9 SHL SWAP1 DUP2 AND EQ DUP1 ISZERO PUSH2 0xAD9 JUMPI POP DUP2 ISZERO JUMPDEST ISZERO PUSH2 0xAF4 JUMPI PUSH1 0x20 DUP1 DUP9 ADD DUP1 MLOAD PUSH1 0xFD PUSH1 0xF8 SHL AND SWAP1 MSTORE PUSH1 0x1 SWAP1 DUP5 ADD MSTORE JUMPDEST POP POP DUP1 MLOAD PUSH1 0x20 SWAP1 SWAP2 ADD MLOAD SWAP1 SWAP7 SWAP1 SWAP6 POP SWAP4 POP POP POP POP JUMP JUMPDEST PUSH1 0x0 PUSH2 0xB14 PUSH2 0xC27 JUMP JUMPDEST PUSH1 0x1 PUSH1 0x1 PUSH1 0xA0 SHL SUB DUP4 AND PUSH1 0x0 DUP2 DUP2 MSTORE PUSH1 0x20 DUP4 DUP2 MSTORE PUSH1 0x40 DUP1 DUP4 KECCAK256 DUP9 MLOAD DUP2 SLOAD SWAP4 DUP11 ADD MLOAD DUP11 DUP5 ADD MLOAD PUSH1 0x60 DUP13 ADD MLOAD PUSH1 0x80 DUP14 ADD MLOAD PUSH1 0xA0 DUP15 ADD MLOAD PUSH5 0xFFFFFFFFFF NOT SWAP1 SWAP9 AND PUSH5 0xFFFFFFFFFF SWAP1 SWAP6 AND SWAP5 SWAP1 SWAP5 OR PUSH6 0xFF0000000000 NOT AND PUSH1 0x1 PUSH1 0x28 SHL PUSH1 0xF8 SWAP5 SWAP1 SWAP5 SHR SWAP4 SWAP1 SWAP4 MUL SWAP3 SWAP1 SWAP3 OR PUSH7 0xFF000000000000 NOT AND PUSH1 0x1 PUSH1 0x30 SHL PUSH1 0xFF SWAP1 SWAP3 AND SWAP2 SWAP1 SWAP2 MUL OR PUSH9 0xFFFF00000000000000 NOT AND PUSH1 0x1 PUSH1 0x38 SHL PUSH2 0xFFFF SWAP1 SWAP3 AND SWAP2 SWAP1 SWAP2 MUL OR PUSH27 0xFFFFFFFFFFFFFFFFFFFFFFFFFFFFFFFFFFFF000000000000000000 NOT AND PUSH1 0x1 PUSH1 0x48 SHL PUSH1 0x70 SWAP3 SWAP1 SWAP3 SHR SWAP2 SWAP1 SWAP2 MUL OR PUSH1 0xFF PUSH1 0xD8 SHL NOT AND PUSH1 0x1 PUSH1 0xD8 SHL SWAP4 ISZERO ISZERO SWAP4 SWAP1 SWAP4 MUL SWAP3 SWAP1 SWAP3 OR SWAP1 SWAP2 SSTORE MLOAD SWAP3 SWAP4 POP SWAP1 SWAP2 PUSH32 0x6BD4B121BCA854A191536A2CA891155C42EE2FB23F307FB34E8BC65CFCB5412E SWAP2 SWAP1 LOG2 POP POP POP JUMP JUMPDEST PUSH1 0x0 DUP1 PUSH2 0xC34 PUSH1 0x1 PUSH2 0x10B5 JUMP JUMPDEST SWAP3 SWAP2 POP POP JUMP JUMPDEST PUSH1 0x0 PUSH3 0x15180 DUP3 LT ISZERO PUSH2 0xC4C JUMPI PUSH1 0x0 DUP1 REVERT JUMPDEST PUSH3 0x15180 DUP3 JUMPDEST MOD SWAP1 SWAP2 SUB SWAP2 SWAP1 POP JUMP JUMPDEST PUSH2 0xC63 PUSH2 0x45D1 JUMP JUMPDEST PUSH1 0x0 PUSH2 0xC6E DUP4 PUSH2 0x10A3 JUMP JUMPDEST SWAP1 POP PUSH2 0xC7A DUP4 DUP3 PUSH2 0x10CE JUMP JUMPDEST SWAP4 SWAP3 POP POP POP JUMP JUMPDEST PUSH1 0x0 DUP1 PUSH1 0x0 DUP1 PUSH2 0xC9E DUP9 DUP8 PUSH1 0x60 ADD MLOAD DUP8 PUSH1 0x60 ADD MLOAD PUSH1 0x40 ADD MLOAD PUSH2 0x1111 JUMP JUMPDEST POP SWAP2 SWAP6 POP SWAP2 POP POP PUSH1 0x0 DUP2 SGT ISZERO PUSH2 0xCCC JUMPI PUSH2 0xCC2 DUP6 PUSH1 0x60 ADD MLOAD DUP7 PUSH1 0xC0 ADD MLOAD DUP4 DUP11 PUSH2 0x11CB JUMP JUMPDEST SWAP1 SWAP4 POP SWAP2 POP PUSH2 0xCD1 JUMP JUMPDEST PUSH1 0x0 SWAP3 POP JUMPDEST POP SWAP5 POP SWAP5 POP SWAP5 SWAP2 POP POP JUMP JUMPDEST PUSH1 0x0 DUP1 PUSH1 0x0 PUSH2 0xD07 DUP8 DUP7 PUSH1 0x60 ADD MLOAD PUSH2 0xFFFF AND DUP8 PUSH1 0x0 ADD MLOAD PUSH5 0xFFFFFFFFFF AND DUP10 DUP9 PUSH1 0x60 ADD MLOAD PUSH1 0x1 PUSH2 0x123F JUMP JUMPDEST PUSH1 0x20 DUP8 ADD MLOAD SWAP2 SWAP4 POP SWAP2 POP PUSH1 0x1 PUSH1 0xF8 SHL SWAP1 DUP2 AND EQ DUP2 DUP1 ISZERO PUSH2 0xD25 JUMPI POP DUP1 ISZERO JUMPDEST ISZERO PUSH2 0xD4E JUMPI PUSH1 0x20 DUP7 DUP2 ADD DUP1 MLOAD PUSH1 0x1 PUSH1 0xF8 SHL OR PUSH1 0x1 PUSH1 0x1 PUSH1 0xF8 SHL SUB NOT AND SWAP1 MSTORE PUSH1 0x1 SWAP1 DUP7 ADD MSTORE PUSH2 0xD74 JUMP JUMPDEST DUP2 ISZERO DUP1 ISZERO PUSH2 0xD59 JUMPI POP DUP1 JUMPDEST ISZERO PUSH2 0xD74 JUMPI PUSH1 0x20 DUP1 DUP8 ADD DUP1 MLOAD PUSH1 0x7F PUSH1 0xF9 SHL AND SWAP1 MSTORE PUSH1 0x1 SWAP1 DUP7 ADD MSTORE JUMPDEST PUSH1 0x60 DUP6 ADD MLOAD PUSH1 0x40 ADD MLOAD PUSH2 0xD87 SWAP1 DUP5 PUSH2 0x126F JUMP JUMPDEST SWAP4 POP POP POP POP JUMPDEST SWAP5 SWAP4 POP POP POP POP JUMP JUMPDEST DUP2 DUP2 ADD DUP3 DUP2 SLT ISZERO PUSH1 0x0 DUP4 SLT ISZERO EQ PUSH2 0xC34 JUMPI PUSH1 0x0 DUP1 REVERT JUMPDEST PUSH2 0xDB3 PUSH2 0x45F0 JUMP JUMPDEST PUSH1 0x0 PUSH2 0xDBE DUP6 PUSH2 0x12AF JUMP JUMPDEST SWAP1 POP PUSH2 0xDEC PUSH2 0xDE4 PUSH2 0xDDD DUP7 DUP7 PUSH1 0xA0 ADD MLOAD PUSH2 0x1412 SWAP1 SWAP2 SWAP1 PUSH4 0xFFFFFFFF AND JUMP JUMPDEST DUP4 SWAP1 PUSH2 0x143F JUMP JUMPDEST DUP5 MLOAD SWAP1 PUSH2 0xD95 JUMP JUMPDEST SWAP1 SWAP3 MSTORE POP SWAP3 SWAP2 POP POP JUMP JUMPDEST PUSH1 0x60 PUSH2 0xE02 DUP4 DUP4 PUSH2 0x14A2 JUMP JUMPDEST POP SWAP4 SWAP3 POP POP POP JUMP JUMPDEST PUSH1 0x0 PUSH1 0xF0 DUP5 SWAP1 SHR PUSH2 0x3FFF AND PUSH2 0xE1E DUP2 PUSH2 0x10A3 JUMP JUMPDEST PUSH1 0xA0 DUP9 ADD DUP2 SWAP1 MSTORE DUP7 MLOAD PUSH1 0x0 SWAP2 DUP3 SWAP2 PUSH2 0xE37 SWAP2 DUP10 SWAP1 PUSH2 0xFA2 JUMP JUMPDEST SWAP2 POP SWAP2 POP PUSH2 0xE44 DUP8 PUSH2 0xFE7 JUMP JUMPDEST DUP1 PUSH2 0xE4F JUMPI POP PUSH1 0x0 DUP2 SGT JUMPDEST ISZERO PUSH2 0xEB5 JUMPI PUSH2 0xE5D DUP4 PUSH2 0xC5B JUMP JUMPDEST PUSH1 0x60 DUP11 ADD MSTORE PUSH1 0x0 DUP1 DUP1 PUSH2 0xE71 DUP13 DUP6 DUP11 PUSH2 0xFF3 JUMP JUMPDEST SWAP2 SWAP5 POP SWAP3 POP SWAP1 POP PUSH2 0xE86 DUP3 PUSH2 0x503 DUP8 DUP7 PUSH2 0xD95 JUMP JUMPDEST SWAP5 POP DUP9 ISZERO PUSH2 0xEB1 JUMPI PUSH1 0x60 DUP13 ADD MLOAD PUSH2 0x120 DUP13 ADD MSTORE PUSH1 0x1 PUSH1 0x1 PUSH1 0xD0 SHL SUB NOT DUP2 AND PUSH1 0xA0 DUP13 ADD MSTORE PUSH1 0x80 DUP12 ADD DUP3 SWAP1 MSTORE JUMPDEST POP POP POP JUMPDEST POP SWAP2 POP POP JUMPDEST SWAP6 SWAP5 POP POP POP POP POP JUMP JUMPDEST PUSH2 0xECB PUSH2 0x45D1 JUMP JUMPDEST PUSH1 0x0 PUSH2 0xED7 DUP4 TIMESTAMP PUSH2 0xEE4 JUMP JUMPDEST POP SWAP1 POP PUSH2 0xC7A DUP4 DUP3 PUSH2 0x10CE JUMP JUMPDEST PUSH2 0xEEC PUSH2 0x461F JUMP JUMPDEST PUSH2 0xEF4 PUSH2 0x4640 JUMP JUMPDEST PUSH2 0xEFD DUP5 PUSH2 0x14C3 JUMP JUMPDEST SWAP1 POP DUP3 DUP2 PUSH1 0x0 ADD MLOAD LT ISZERO PUSH2 0xF2E JUMPI PUSH1 0x0 PUSH2 0xF16 DUP6 PUSH2 0x158B JUMP JUMPDEST SWAP1 POP PUSH2 0xF24 DUP6 DUP4 DUP4 DUP8 PUSH2 0x1606 JUMP JUMPDEST POP SWAP2 POP PUSH2 0xF3B SWAP1 POP JUMP JUMPDEST DUP1 MLOAD DUP4 EQ PUSH2 0xF3B JUMPI PUSH1 0x0 DUP1 REVERT JUMPDEST PUSH1 0x40 MLOAD DUP1 PUSH1 0x60 ADD PUSH1 0x40 MSTORE DUP1 PUSH2 0xF69 PUSH2 0xF64 DUP5 PUSH1 0xA0 ADD MLOAD DUP6 PUSH1 0xC0 ADD MLOAD PUSH2 0x16AA SWAP1 SWAP2 SWAP1 PUSH4 0xFFFFFFFF AND JUMP JUMPDEST PUSH2 0x16D1 JUMP JUMPDEST DUP2 MSTORE PUSH1 0x20 ADD PUSH2 0xF8C PUSH2 0xF64 DUP5 PUSH1 0xA0 ADD MLOAD DUP6 PUSH1 0xE0 ADD MLOAD PUSH2 0x16AA SWAP1 SWAP2 SWAP1 PUSH4 0xFFFFFFFF AND JUMP JUMPDEST DUP2 MSTORE PUSH1 0x20 ADD DUP3 PUSH1 0x60 ADD MLOAD DUP2 MSTORE POP SWAP2 POP SWAP3 POP SWAP3 SWAP1 POP JUMP JUMPDEST PUSH1 0x0 DUP1 PUSH1 0x1 PUSH1 0xFE SHL DUP5 DUP2 AND EQ ISZERO PUSH2 0xFDA JUMPI PUSH1 0xF0 DUP5 SWAP1 SHR PUSH2 0x3FFF AND PUSH1 0x0 DUP1 PUSH2 0xFCA DUP9 DUP5 DUP9 PUSH2 0x1111 JUMP JUMPDEST POP SWAP2 SWAP7 POP SWAP5 POP PUSH2 0x924 SWAP4 POP POP POP POP JUMP JUMPDEST POP PUSH1 0x0 SWAP5 DUP6 SWAP5 POP SWAP3 POP POP POP JUMP JUMPDEST PUSH1 0x1 PUSH1 0xFF SHL SWAP1 DUP2 AND EQ SWAP1 JUMP JUMPDEST PUSH1 0x0 DUP1 PUSH1 0x0 DUP6 PUSH1 0x80 ADD MLOAD MLOAD DUP7 PUSH1 0x40 ADD MLOAD LT DUP1 ISZERO PUSH2 0x103E JUMPI POP DUP6 PUSH1 0x60 ADD MLOAD PUSH1 0x0 ADD MLOAD PUSH2 0xFFFF AND DUP7 PUSH1 0x80 ADD MLOAD DUP8 PUSH1 0x40 ADD MLOAD DUP2 MLOAD DUP2 LT PUSH2 0x102C JUMPI INVALID JUMPDEST PUSH1 0x20 MUL PUSH1 0x20 ADD ADD MLOAD PUSH1 0x0 ADD MLOAD PUSH2 0xFFFF AND EQ JUMPDEST ISZERO PUSH2 0x1067 JUMPI PUSH2 0x105B DUP7 PUSH1 0x80 ADD MLOAD DUP8 PUSH1 0x60 ADD MLOAD DUP7 DUP10 PUSH1 0x40 ADD MLOAD PUSH2 0x16EB JUMP JUMPDEST PUSH1 0x40 DUP9 ADD MSTORE SWAP3 POP PUSH2 0x106C JUMP JUMPDEST PUSH1 0x0 SWAP3 POP JUMPDEST PUSH1 0x0 DUP6 SGT ISZERO PUSH2 0x1093 JUMPI PUSH2 0x1089 DUP7 PUSH1 0x60 ADD MLOAD DUP8 PUSH1 0xC0 ADD MLOAD DUP8 DUP8 PUSH2 0x11CB JUMP JUMPDEST SWAP1 SWAP3 POP SWAP1 POP PUSH2 0x109A JUMP JUMPDEST POP PUSH1 0x0 SWAP1 POP DUP1 JUMPDEST SWAP4 POP SWAP4 POP SWAP4 SWAP1 POP JUMP JUMPDEST PUSH2 0x10AB PUSH2 0x461F JUMP JUMPDEST PUSH2 0xC34 DUP3 TIMESTAMP PUSH2 0x1796 JUMP JUMPDEST PUSH1 0x0 PUSH3 0xF4240 DUP3 PUSH1 0x26 DUP2 GT ISZERO PUSH2 0x10C7 JUMPI INVALID JUMPDEST ADD SWAP3 SWAP2 POP POP JUMP JUMPDEST PUSH2 0x10D6 PUSH2 0x45D1 JUMP JUMPDEST PUSH1 0x0 PUSH2 0x10E5 DUP5 PUSH2 0xFFFF AND PUSH2 0x1857 JUMP JUMPDEST PUSH1 0x40 DUP1 MLOAD PUSH1 0x80 DUP2 ADD DUP3 MSTORE PUSH2 0xFFFF SWAP7 SWAP1 SWAP7 AND DUP7 MSTORE PUSH1 0xFF DUP3 AND PUSH1 0x20 DUP8 ADD MSTORE DUP6 ADD SWAP4 SWAP1 SWAP4 MSTORE POP POP PUSH1 0x60 DUP3 ADD MSTORE SWAP1 JUMP JUMPDEST PUSH1 0x0 DUP1 PUSH1 0x0 DUP1 PUSH1 0x0 PUSH2 0x1121 PUSH2 0x1874 JUMP JUMPDEST PUSH1 0x1 PUSH1 0x1 PUSH1 0xA0 SHL SUB DUP10 AND PUSH1 0x0 SWAP1 DUP2 MSTORE PUSH1 0x20 DUP3 DUP2 MSTORE PUSH1 0x40 DUP1 DUP4 KECCAK256 PUSH2 0xFFFF DUP13 AND DUP5 MSTORE SWAP1 SWAP2 MSTORE SWAP1 KECCAK256 DUP1 SLOAD PUSH1 0x1 PUSH1 0x1 PUSH1 0x50 SHL SUB DUP2 AND SWAP7 POP PUSH1 0x1 PUSH1 0x50 SHL SWAP1 DIV PUSH4 0xFFFFFFFF AND SWAP5 POP SWAP1 SWAP2 POP DUP4 ISZERO PUSH2 0x118E JUMPI DUP1 SLOAD PUSH2 0x1187 SWAP1 PUSH1 0x1 PUSH1 0x70 SHL SWAP1 DIV PUSH7 0xFFFFFFFFFFFFFF AND PUSH2 0x1881 JUMP JUMPDEST SWAP3 POP PUSH2 0x11A3 JUMP JUMPDEST DUP1 SLOAD PUSH1 0x1 PUSH1 0x70 SHL SWAP1 DIV PUSH7 0xFFFFFFFFFFFFFF AND SWAP3 POP JUMPDEST DUP1 SLOAD PUSH2 0x11BE SWAP1 DUP9 SWAP1 PUSH1 0x1 PUSH1 0xA8 SHL SWAP1 DIV PUSH1 0xA SWAP1 DUP2 SIGNEXTEND SWAP1 SIGNEXTEND PUSH2 0x188F JUMP JUMPDEST SWAP6 POP POP POP SWAP4 POP SWAP4 POP SWAP4 POP SWAP4 JUMP JUMPDEST DUP4 MLOAD PUSH1 0x0 SWAP1 DUP2 SWAP1 PUSH2 0x11DD SWAP1 DUP7 SWAP1 PUSH2 0x18BD JUMP JUMPDEST DUP6 DUP6 MSTORE PUSH1 0x0 PUSH2 0x11EC DUP7 DUP6 PUSH2 0x1959 JUMP JUMPDEST SWAP1 POP PUSH1 0x0 PUSH2 0x122B DUP8 PUSH1 0x40 ADD MLOAD PUSH2 0x1225 PUSH1 0x64 PUSH2 0x1225 DUP12 PUSH1 0xA0 ADD MLOAD PUSH1 0x3 PUSH1 0xFF AND PUSH1 0x6 DUP2 LT PUSH2 0x1214 JUMPI INVALID JUMPDEST BYTE PUSH2 0x121F DUP13 DUP10 PUSH2 0x19A9 JUMP JUMPDEST SWAP1 PUSH2 0x19A9 JUMP JUMPDEST SWAP1 PUSH2 0x19F7 JUMP JUMPDEST PUSH1 0xA0 SWAP8 SWAP1 SWAP8 ADD MLOAD SWAP7 SWAP9 SWAP7 SWAP8 POP POP POP POP POP POP POP JUMP JUMPDEST PUSH1 0x0 DUP1 PUSH1 0x0 PUSH2 0x124E DUP10 DUP10 PUSH2 0x1A28 JUMP JUMPDEST SWAP1 POP PUSH2 0x125F DUP10 DUP10 DUP10 DUP10 DUP10 DUP10 DUP8 PUSH2 0x1A5D JUMP JUMPDEST SWAP3 POP SWAP3 POP POP SWAP7 POP SWAP7 SWAP5 POP POP POP POP POP JUMP JUMPDEST DUP2 MLOAD PUSH1 0x0 SWAP1 DUP2 SWAP1 PUSH2 0x1293 SWAP1 PUSH2 0x1225 DUP6 PUSH15 0xC097CE7BC90715B34B9F1000000000 PUSH2 0x19A9 JUMP JUMPDEST SWAP1 POP PUSH1 0x0 DUP4 SLT PUSH2 0x12A3 JUMPI DUP1 PUSH2 0xD8D JUMP JUMPDEST PUSH2 0xD8D DUP2 PUSH1 0x0 NOT PUSH2 0x1ADB JUMP JUMPDEST PUSH2 0x12B7 PUSH2 0x45F0 JUMP JUMPDEST PUSH1 0x0 PUSH2 0x12C1 PUSH2 0x1AF1 JUMP JUMPDEST PUSH1 0x0 DUP5 DUP2 MSTORE PUSH1 0x20 DUP3 SWAP1 MSTORE PUSH1 0x40 DUP2 KECCAK256 SWAP2 SWAP3 POP DUP1 PUSH1 0x1 DUP7 EQ ISZERO PUSH2 0x12EE JUMPI POP PUSH8 0xDE0B6B3A7640000 SWAP1 POP DUP1 PUSH2 0x13B1 JUMP JUMPDEST DUP3 SLOAD PUSH1 0x40 DUP1 MLOAD PUSH4 0x3FABE5A3 PUSH1 0xE2 SHL DUP2 MSTORE SWAP1 MLOAD PUSH1 0x1 PUSH1 0x1 PUSH1 0xA0 SHL SUB SWAP1 SWAP3 AND SWAP2 PUSH4 0xFEAF968C SWAP2 PUSH1 0x4 DUP1 DUP3 ADD SWAP3 PUSH1 0xA0 SWAP3 SWAP1 SWAP2 SWAP1 DUP3 SWAP1 SUB ADD DUP2 DUP7 DUP1 EXTCODESIZE ISZERO DUP1 ISZERO PUSH2 0x1332 JUMPI PUSH1 0x0 DUP1 REVERT JUMPDEST POP GAS STATICCALL ISZERO DUP1 ISZERO PUSH2 0x1346 JUMPI RETURNDATASIZE PUSH1 0x0 DUP1 RETURNDATACOPY RETURNDATASIZE PUSH1 0x0 REVERT JUMPDEST POP POP POP POP PUSH1 0x40 MLOAD RETURNDATASIZE PUSH1 0x1F NOT PUSH1 0x1F DUP3 ADD AND DUP3 ADD DUP1 PUSH1 0x40 MSTORE POP DUP2 ADD SWAP1 PUSH2 0x136A SWAP2 SWAP1 PUSH2 0x496C JUMP JUMPDEST POP SWAP2 SWAP4 POP POP PUSH1 0x0 DUP4 SGT SWAP2 POP PUSH2 0x1380 SWAP1 POP JUMPI PUSH1 0x0 DUP1 REVERT JUMPDEST DUP3 SLOAD PUSH1 0xFF PUSH1 0x1 PUSH1 0xA0 SHL DUP3 DIV DUP2 AND PUSH1 0xA EXP SWAP4 POP PUSH1 0x1 PUSH1 0xA8 SHL SWAP1 SWAP2 DIV AND ISZERO PUSH2 0x13B1 JUMPI PUSH2 0x13AE DUP2 PUSH2 0x1225 DUP5 DUP1 PUSH2 0x19A9 JUMP JUMPDEST SWAP1 POP JUMPDEST DUP3 SLOAD PUSH1 0x1 PUSH1 0xB0 SHL SWAP1 DIV PUSH1 0xFF AND PUSH1 0x96 DUP2 SGT ISZERO PUSH2 0x13D1 JUMPI PUSH1 0x95 NOT ADD PUSH1 0xA MUL PUSH1 0x96 ADD JUMPDEST PUSH1 0x40 DUP1 MLOAD PUSH1 0xA0 DUP2 ADD DUP3 MSTORE SWAP4 DUP5 MSTORE PUSH1 0x20 DUP5 ADD SWAP3 SWAP1 SWAP3 MSTORE SWAP1 DUP3 ADD MSTORE SWAP1 SLOAD PUSH1 0xFF PUSH1 0x1 PUSH1 0xB8 SHL DUP3 DIV DUP2 AND PUSH1 0x60 DUP5 ADD MSTORE PUSH1 0x1 PUSH1 0xC0 SHL SWAP1 SWAP2 DIV AND PUSH1 0x80 DUP3 ADD MSTORE SWAP2 POP POP SWAP2 SWAP1 POP JUMP JUMPDEST PUSH1 0x0 DUP1 PUSH2 0x1293 PUSH15 0xC097CE7BC90715B34B9F1000000000 PUSH2 0x1225 DUP7 PUSH1 0x0 ADD MLOAD DUP7 PUSH2 0x19A9 SWAP1 SWAP2 SWAP1 PUSH4 0xFFFFFFFF AND JUMP JUMPDEST PUSH1 0x0 DUP1 PUSH1 0x0 DUP4 SGT PUSH2 0x1454 JUMPI DUP4 PUSH1 0x40 ADD MLOAD PUSH2 0x145A JUMP JUMPDEST DUP4 PUSH1 0x60 ADD MLOAD JUMPDEST SWAP1 POP PUSH1 0x0 PUSH2 0x1486 DUP6 PUSH1 0x0 ADD MLOAD PUSH2 0x1225 PUSH1 0x64 PUSH2 0x1225 DUP7 PUSH2 0x121F DUP12 PUSH1 0x20 ADD MLOAD DUP12 PUSH2 0x19A9 SWAP1 SWAP2 SWAP1 PUSH4 0xFFFFFFFF AND JUMP JUMPDEST SWAP1 POP PUSH1 0x0 DUP5 SLT PUSH2 0x1496 JUMPI DUP1 PUSH2 0xEBA JUMP JUMPDEST PUSH2 0xEBA DUP2 PUSH1 0x0 NOT PUSH2 0x1ADB JUMP JUMPDEST PUSH1 0x60 DUP1 PUSH2 0x14AF DUP5 DUP5 PUSH2 0x1AFE JUMP JUMPDEST SWAP2 POP PUSH2 0x14BA DUP3 PUSH2 0x1C20 JUMP JUMPDEST SWAP1 POP SWAP3 POP SWAP3 SWAP1 POP JUMP JUMPDEST PUSH2 0x14CB PUSH2 0x4640 JUMP JUMPDEST PUSH1 0x0 PUSH2 0x14D5 PUSH2 0x1DE1 JUMP JUMPDEST PUSH2 0xFFFF SWAP4 DUP5 AND PUSH1 0x0 SWAP1 DUP2 MSTORE PUSH1 0x20 SWAP2 DUP3 MSTORE PUSH1 0x40 SWAP1 DUP2 SWAP1 KECCAK256 DUP1 SLOAD PUSH5 0xFFFFFFFFFF DUP2 AND DUP7 MSTORE PUSH1 0x1 PUSH1 0x28 SHL DUP2 DIV PUSH1 0x1 PUSH1 0x1 PUSH1 0x58 SHL SUB SWAP1 DUP2 AND SWAP5 DUP8 ADD SWAP5 SWAP1 SWAP5 MSTORE PUSH1 0x1 DUP3 ADD SLOAD DUP5 AND SWAP3 DUP7 ADD SWAP3 SWAP1 SWAP3 MSTORE PUSH1 0x1 PUSH1 0xD8 SHL DUP3 DIV PUSH4 0xFFFFFFFF AND PUSH1 0x60 DUP7 ADD MSTORE PUSH1 0x1 PUSH1 0x80 SHL SWAP1 SWAP2 DIV SWAP1 SWAP2 AND PUSH1 0x80 DUP5 ADD MSTORE PUSH1 0x2 ADD SLOAD PUSH1 0x1 PUSH1 0x1 PUSH1 0x50 SHL SUB DUP1 DUP3 AND PUSH1 0xA0 DUP6 ADD MSTORE PUSH1 0x1 PUSH1 0x50 SHL DUP3 DIV DUP2 AND PUSH1 0xC0 DUP6 ADD MSTORE PUSH1 0x1 PUSH1 0xA0 SHL DUP3 DIV AND PUSH1 0xE0 DUP5 ADD MSTORE PUSH1 0x1 PUSH1 0xF0 SHL SWAP1 DIV PUSH1 0xFF AND PUSH2 0x12C MUL SWAP1 SWAP3 AND PUSH2 0x100 DUP3 ADD MSTORE SWAP2 SWAP1 POP JUMP JUMPDEST PUSH1 0x0 DUP1 PUSH2 0x1597 DUP4 PUSH2 0x1DEE JUMP JUMPDEST PUSH1 0x1 PUSH1 0x1 PUSH1 0xA0 SHL SUB AND PUSH4 0xA77C05B8 PUSH1 0x40 MLOAD DUP2 PUSH4 0xFFFFFFFF AND PUSH1 0xE0 SHL DUP2 MSTORE PUSH1 0x4 ADD PUSH1 0x40 DUP1 MLOAD DUP1 DUP4 SUB DUP2 DUP7 DUP1 EXTCODESIZE ISZERO DUP1 ISZERO PUSH2 0x15CE JUMPI PUSH1 0x0 DUP1 REVERT JUMPDEST POP GAS STATICCALL ISZERO DUP1 ISZERO PUSH2 0x15E2 JUMPI RETURNDATASIZE PUSH1 0x0 DUP1 RETURNDATACOPY RETURNDATASIZE PUSH1 0x0 REVERT JUMPDEST POP POP POP POP PUSH1 0x40 MLOAD RETURNDATASIZE PUSH1 0x1F NOT PUSH1 0x1F DUP3 ADD AND DUP3 ADD DUP1 PUSH1 0x40 MSTORE POP DUP2 ADD SWAP1 PUSH2 0xD8D SWAP2 SWAP1 PUSH2 0x4949 JUMP JUMPDEST PUSH2 0x160E PUSH2 0x4640 JUMP JUMPDEST PUSH1 0x0 DUP1 PUSH1 0x0 PUSH2 0x161E DUP9 DUP7 DUP10 PUSH2 0x1E1E JUMP JUMPDEST PUSH1 0xC0 DUP12 ADD SWAP3 SWAP1 SWAP3 MSTORE PUSH1 0xE0 DUP11 ADD SWAP3 SWAP1 SWAP3 MSTORE PUSH1 0x20 DUP10 ADD MLOAD SWAP2 SWAP4 POP SWAP2 POP PUSH2 0x1642 SWAP1 DUP4 PUSH2 0x1F2F JUMP JUMPDEST PUSH1 0x20 DUP9 ADD MSTORE PUSH1 0x80 DUP8 ADD MLOAD PUSH1 0x0 SWAP1 ISZERO PUSH2 0x1670 JUMPI PUSH1 0x80 DUP9 ADD MLOAD PUSH2 0x166D SWAP1 PUSH2 0x1667 DUP10 DUP3 PUSH2 0x1F41 JUMP JUMPDEST SWAP1 PUSH2 0x1F56 JUMP JUMPDEST SWAP1 POP JUMPDEST PUSH2 0x1690 PUSH2 0x1685 PUSH8 0xDE0B6B3A7640000 DUP4 PUSH2 0x1F2F JUMP JUMPDEST PUSH1 0xA0 DUP11 ADD MLOAD SWAP1 PUSH2 0x1F73 JUMP JUMPDEST PUSH1 0xA0 DUP10 ADD MSTORE POP POP PUSH1 0x80 DUP7 ADD SWAP5 SWAP1 SWAP5 MSTORE POP POP DUP3 MSTORE SWAP1 SWAP3 SWAP1 SWAP2 POP JUMP JUMPDEST PUSH1 0x0 DUP3 PUSH2 0x16B9 JUMPI POP PUSH1 0x0 PUSH2 0xC34 JUMP JUMPDEST DUP3 DUP3 MUL DUP3 DUP5 DUP3 DUP2 PUSH2 0x16C6 JUMPI INVALID JUMPDEST DIV EQ PUSH2 0xC7A JUMPI PUSH1 0x0 DUP1 REVERT JUMPDEST PUSH1 0x0 PUSH1 0x1 PUSH1 0x1 PUSH1 0xFF SHL SUB DUP3 GT ISZERO PUSH2 0x16E7 JUMPI PUSH1 0x0 DUP1 REVERT JUMPDEST POP SWAP1 JUMP JUMPDEST PUSH1 0x0 DUP1 DUP1 DUP1 DUP5 JUMPDEST DUP9 MLOAD DUP2 LT ISZERO PUSH2 0x176E JUMPI PUSH1 0x0 DUP10 DUP3 DUP2 MLOAD DUP2 LT PUSH2 0x1709 JUMPI INVALID JUMPDEST PUSH1 0x20 MUL PUSH1 0x20 ADD ADD MLOAD SWAP1 POP PUSH1 0x1 PUSH1 0xFF AND DUP2 PUSH1 0x40 ADD MLOAD EQ PUSH2 0x1728 JUMPI POP PUSH2 0x1766 JUMP JUMPDEST DUP9 MLOAD DUP2 MLOAD PUSH2 0xFFFF SWAP1 DUP2 AND SWAP2 AND EQ PUSH2 0x173F JUMPI POP PUSH2 0x176E JUMP JUMPDEST PUSH1 0x0 PUSH2 0x1755 DUP11 DUP4 PUSH1 0x60 ADD MLOAD DUP5 PUSH1 0x20 ADD MLOAD DUP13 PUSH2 0x1F90 JUMP JUMPDEST SWAP1 POP PUSH2 0x1761 DUP5 DUP3 PUSH2 0xD95 JUMP JUMPDEST SWAP4 POP POP POP JUMPDEST PUSH1 0x1 ADD PUSH2 0x16F2 JUMP JUMPDEST PUSH1 0x40 DUP9 ADD MLOAD PUSH2 0x1788 SWAP1 PUSH2 0x1781 SWAP1 DUP5 PUSH2 0x126F JUMP JUMPDEST DUP5 SWAP1 PUSH2 0xD95 JUMP JUMPDEST SWAP10 SWAP1 SWAP9 POP SWAP7 POP POP POP POP POP POP POP JUMP JUMPDEST PUSH2 0x179E PUSH2 0x461F JUMP JUMPDEST PUSH1 0x0 PUSH2 0x17A9 DUP5 PUSH2 0x14C3 JUMP JUMPDEST SWAP1 POP DUP3 DUP2 PUSH1 0x0 ADD MLOAD LT ISZERO PUSH2 0x17E8 JUMPI PUSH1 0x0 DUP1 PUSH2 0x17C3 DUP7 PUSH2 0x2009 JUMP JUMPDEST SWAP1 POP PUSH2 0x17D1 DUP7 DUP5 DUP4 DUP9 PUSH2 0x1606 JUMP JUMPDEST SWAP1 SWAP4 POP SWAP2 POP PUSH2 0x17E1 DUP7 DUP4 DUP6 PUSH2 0x2062 JUMP JUMPDEST POP POP PUSH2 0x17F5 JUMP JUMPDEST DUP1 MLOAD DUP4 EQ PUSH2 0x17F5 JUMPI PUSH1 0x0 DUP1 REVERT JUMPDEST PUSH1 0x40 MLOAD DUP1 PUSH1 0x60 ADD PUSH1 0x40 MSTORE DUP1 PUSH2 0x181E PUSH2 0xF64 DUP5 PUSH1 0xA0 ADD MLOAD DUP6 PUSH1 0xC0 ADD MLOAD PUSH2 0x16AA SWAP1 SWAP2 SWAP1 PUSH4 0xFFFFFFFF AND JUMP JUMPDEST DUP2 MSTORE PUSH1 0x20 ADD PUSH2 0x1841 PUSH2 0xF64 DUP5 PUSH1 0xA0 ADD MLOAD DUP6 PUSH1 0xE0 ADD MLOAD PUSH2 0x16AA SWAP1 SWAP2 SWAP1 PUSH4 0xFFFFFFFF AND JUMP JUMPDEST DUP2 MSTORE PUSH1 0x20 ADD DUP3 PUSH1 0x60 ADD MLOAD DUP2 MSTORE POP SWAP2 POP POP SWAP3 SWAP2 POP POP JUMP JUMPDEST PUSH1 0x0 DUP1 PUSH2 0x1862 PUSH2 0x2296 JUMP JUMPDEST PUSH1 0x0 SWAP4 DUP5 MSTORE PUSH1 0x20 MSTORE POP POP PUSH1 0x40 SWAP1 KECCAK256 SLOAD SWAP1 JUMP JUMPDEST PUSH1 0x0 DUP1 PUSH2 0xC34 PUSH1 0x6 PUSH2 0x10B5 JUMP JUMPDEST PUSH1 0x8 DUP2 SWAP1 SHR PUSH1 0xFF SWAP1 SWAP2 AND SHL SWAP1 JUMP JUMPDEST PUSH1 0x0 DUP1 DUP3 SLT PUSH2 0x189F JUMPI POP DUP1 PUSH2 0xC34 JUMP JUMPDEST DUP3 MLOAD PUSH1 0x20 DUP5 ADD MLOAD PUSH2 0x18B6 SWAP2 SWAP1 PUSH2 0x1225 SWAP1 DUP6 SWAP1 PUSH2 0x19A9 JUMP JUMPDEST SWAP1 POP PUSH2 0xC34 JUMP JUMPDEST PUSH2 0x18CA DUP2 PUSH2 0xFFFF AND PUSH2 0x22A3 JUMP JUMPDEST PUSH1 0x1 PUSH1 0x1 PUSH1 0xA0 SHL SUB AND PUSH1 0xC0 DUP4 ADD DUP2 SWAP1 MSTORE PUSH1 0x0 SWAP1 DUP2 SWAP1 DUP2 SWAP1 PUSH2 0x18EA SWAP1 PUSH2 0x22C9 JUMP JUMPDEST SWAP5 POP SWAP5 POP SWAP5 POP POP POP PUSH1 0x0 PUSH2 0x1901 DUP7 PUSH1 0xC0 ADD MLOAD PUSH2 0x2332 JUMP JUMPDEST POP POP PUSH1 0x80 DUP8 ADD DUP6 SWAP1 MSTORE PUSH1 0x40 DUP8 ADD DUP2 SWAP1 MSTORE PUSH1 0x1 PUSH1 0x1 PUSH1 0xD0 SHL SUB NOT DUP4 AND PUSH1 0xA0 DUP9 ADD MSTORE PUSH1 0xC0 DUP8 ADD MLOAD SWAP1 SWAP2 POP PUSH2 0x1935 SWAP1 DUP5 PUSH1 0x0 PUSH2 0x239C JUMP JUMPDEST PUSH1 0x20 DUP8 ADD MSTORE PUSH1 0xC0 DUP7 ADD MLOAD PUSH2 0x1949 SWAP1 DUP7 PUSH2 0x242F JUMP JUMPDEST PUSH1 0x60 SWAP1 SWAP7 ADD SWAP6 SWAP1 SWAP6 MSTORE POP POP POP POP POP JUMP JUMPDEST PUSH1 0x0 DUP1 PUSH2 0x1965 DUP5 PUSH2 0x2488 JUMP JUMPDEST SWAP1 POP DUP3 DUP2 GT PUSH2 0x1975 JUMPI PUSH1 0x1 DUP2 SUB SWAP3 POP JUMPDEST POP PUSH1 0x0 PUSH2 0x1984 DUP5 DUP5 PUSH1 0x1 PUSH2 0x24B2 JUMP JUMPDEST POP SWAP1 POP PUSH1 0x0 PUSH2 0x1993 DUP6 DUP6 PUSH2 0x260F JUMP JUMPDEST PUSH1 0x60 DUP7 ADD MLOAD SWAP1 SWAP2 POP PUSH2 0xEBA SWAP1 PUSH2 0x503 DUP5 DUP5 PUSH2 0xD95 JUMP JUMPDEST DUP2 DUP2 MUL PUSH1 0x0 NOT DUP4 EQ ISZERO PUSH2 0x19D9 JUMPI DUP2 ISZERO DUP1 PUSH2 0x19CB JUMPI POP DUP3 DUP3 DUP3 DUP2 PUSH2 0x19C8 JUMPI INVALID JUMPDEST SDIV EQ JUMPDEST PUSH2 0x19D4 JUMPI PUSH1 0x0 DUP1 REVERT JUMPDEST PUSH2 0xC34 JUMP JUMPDEST DUP3 ISZERO DUP1 PUSH2 0x19EE JUMPI POP DUP2 DUP4 DUP3 DUP2 PUSH2 0x19EB JUMPI INVALID JUMPDEST SDIV EQ JUMPDEST PUSH2 0xC34 JUMPI PUSH1 0x0 DUP1 REVERT JUMPDEST PUSH1 0x0 DUP2 PUSH1 0x0 NOT EQ DUP1 ISZERO PUSH2 0x1A0D JUMPI POP PUSH1 0x1 PUSH1 0xFF SHL DUP4 EQ JUMPDEST ISZERO PUSH2 0x1A17 JUMPI PUSH1 0x0 DUP1 REVERT JUMPDEST DUP2 DUP4 DUP2 PUSH2 0x1A20 JUMPI INVALID JUMPDEST SDIV SWAP4 SWAP3 POP POP POP JUMP JUMPDEST PUSH1 0x0 DUP1 PUSH2 0x1A33 PUSH2 0x2694 JUMP JUMPDEST PUSH1 0x1 PUSH1 0x1 PUSH1 0xA0 SHL SUB DUP6 AND PUSH1 0x0 SWAP1 DUP2 MSTORE PUSH1 0x20 SWAP2 DUP3 MSTORE PUSH1 0x40 DUP1 DUP3 KECCAK256 DUP7 DUP4 MSTORE SWAP1 SWAP3 MSTORE KECCAK256 SLOAD SWAP2 POP POP SWAP3 SWAP2 POP POP JUMP JUMPDEST PUSH1 0x0 DUP1 PUSH1 0x0 PUSH2 0x1A6B DUP5 PUSH2 0x26A1 JUMP JUMPDEST SWAP1 POP JUMPDEST DUP1 ISZERO PUSH2 0x1ACE JUMPI PUSH1 0x0 PUSH2 0x1A80 DUP10 DUP4 PUSH2 0x26C6 JUMP JUMPDEST SWAP1 POP PUSH1 0x0 PUSH2 0x1A92 DUP13 DUP13 DUP5 DUP13 DUP13 DUP13 PUSH2 0x2779 JUMP JUMPDEST SWAP1 POP PUSH2 0x1A9E DUP6 DUP3 PUSH2 0xD95 JUMP JUMPDEST SWAP5 POP PUSH1 0x0 DUP2 SLT ISZERO PUSH2 0x1AAE JUMPI PUSH1 0x1 SWAP4 POP JUMPDEST PUSH2 0x1ABA DUP7 DUP5 PUSH1 0x0 PUSH2 0x27DB JUMP JUMPDEST SWAP6 POP PUSH2 0x1AC5 DUP7 PUSH2 0x26A1 JUMP JUMPDEST SWAP3 POP POP POP PUSH2 0x1A6E JUMP JUMPDEST POP SWAP8 POP SWAP8 SWAP6 POP POP POP POP POP POP JUMP JUMPDEST PUSH1 0x0 DUP2 DUP4 SLT PUSH2 0x1AEA JUMPI DUP2 PUSH2 0xC7A JUMP JUMPDEST POP SWAP1 SWAP2 SWAP1 POP JUMP JUMPDEST PUSH1 0x0 DUP1 PUSH2 0xC34 PUSH1 0x10 PUSH2 0x10B5 JUMP JUMPDEST PUSH1 0x60 PUSH1 0x8 DUP3 PUSH1 0xFF AND GT ISZERO PUSH2 0x1B11 JUMPI PUSH1 0x0 DUP1 REVERT JUMPDEST PUSH1 0x0 PUSH2 0x1B1B PUSH2 0x2826 JUMP JUMPDEST PUSH1 0x1 PUSH1 0x1 PUSH1 0xA0 SHL SUB DUP6 AND PUSH1 0x0 SWAP1 DUP2 MSTORE PUSH1 0x20 DUP3 SWAP1 MSTORE PUSH1 0x40 DUP2 KECCAK256 SWAP2 SWAP3 POP PUSH1 0xFF DUP6 AND PUSH8 0xFFFFFFFFFFFFFFFF DUP2 GT DUP1 ISZERO PUSH2 0x1B50 JUMPI PUSH1 0x0 DUP1 REVERT JUMPDEST POP PUSH1 0x40 MLOAD SWAP1 DUP1 DUP3 MSTORE DUP1 PUSH1 0x20 MUL PUSH1 0x20 ADD DUP3 ADD PUSH1 0x40 MSTORE DUP1 ISZERO PUSH2 0x1B8A JUMPI DUP2 PUSH1 0x20 ADD JUMPDEST PUSH2 0x1B77 PUSH2 0x468C JUMP JUMPDEST DUP2 MSTORE PUSH1 0x20 ADD SWAP1 PUSH1 0x1 SWAP1 SUB SWAP1 DUP2 PUSH2 0x1B6F JUMPI SWAP1 POP JUMPDEST POP SWAP1 POP PUSH1 0x0 JUMPDEST DUP6 PUSH1 0xFF AND DUP2 LT ISZERO PUSH2 0x1C16 JUMPI PUSH1 0x0 DUP4 DUP3 PUSH1 0x8 DUP2 LT PUSH2 0x1BA9 JUMPI INVALID JUMPDEST ADD SWAP1 POP PUSH1 0x0 DUP4 DUP4 DUP2 MLOAD DUP2 LT PUSH2 0x1BBA JUMPI INVALID JUMPDEST PUSH1 0x20 SWAP1 DUP2 MUL SWAP2 SWAP1 SWAP2 ADD DUP2 ADD MLOAD DUP4 SLOAD PUSH2 0xFFFF DUP2 AND DUP3 MSTORE PUSH5 0xFFFFFFFFFF PUSH3 0x10000 DUP3 DIV AND SWAP3 DUP3 ADD SWAP3 SWAP1 SWAP3 MSTORE PUSH1 0xFF PUSH1 0x1 PUSH1 0x38 SHL DUP4 DIV AND PUSH1 0x40 DUP3 ADD MSTORE PUSH1 0x1 PUSH1 0x40 SHL SWAP1 SWAP2 DIV PUSH1 0xA SWAP1 DUP2 SIGNEXTEND SWAP1 SIGNEXTEND PUSH1 0x60 DUP3 ADD MSTORE PUSH1 0x80 ADD SWAP2 SWAP1 SWAP2 MSTORE POP PUSH1 0x1 ADD PUSH2 0x1B90 JUMP JUMPDEST POP SWAP6 SWAP5 POP POP POP POP POP JUMP JUMPDEST DUP1 MLOAD PUSH1 0x60 SWAP1 DUP1 PUSH8 0xFFFFFFFFFFFFFFFF DUP2 GT DUP1 ISZERO PUSH2 0x1C3C JUMPI PUSH1 0x0 DUP1 REVERT JUMPDEST POP PUSH1 0x40 MLOAD SWAP1 DUP1 DUP3 MSTORE DUP1 PUSH1 0x20 MUL PUSH1 0x20 ADD DUP3 ADD PUSH1 0x40 MSTORE DUP1 ISZERO PUSH2 0x1C66 JUMPI DUP2 PUSH1 0x20 ADD PUSH1 0x20 DUP3 MUL DUP1 CALLDATASIZE DUP4 CALLDATACOPY ADD SWAP1 POP JUMPDEST POP SWAP2 POP PUSH1 0x0 JUMPDEST DUP2 DUP2 LT ISZERO PUSH2 0x1CC3 JUMPI PUSH1 0x0 DUP5 DUP3 DUP2 MLOAD DUP2 LT PUSH2 0x1C82 JUMPI INVALID JUMPDEST PUSH1 0x20 MUL PUSH1 0x20 ADD ADD MLOAD SWAP1 POP PUSH2 0x1CA3 DUP2 PUSH1 0x0 ADD MLOAD DUP3 PUSH1 0x20 ADD MLOAD DUP4 PUSH1 0x40 ADD MLOAD PUSH2 0x2833 JUMP JUMPDEST DUP5 DUP4 DUP2 MLOAD DUP2 LT PUSH2 0x1CAF JUMPI INVALID JUMPDEST PUSH1 0x20 SWAP1 DUP2 MUL SWAP2 SWAP1 SWAP2 ADD ADD MSTORE POP PUSH1 0x1 ADD PUSH2 0x1C6C JUMP JUMPDEST POP PUSH1 0x1 JUMPDEST DUP2 DUP2 LT ISZERO PUSH2 0x1DDA JUMPI DUP1 JUMPDEST PUSH1 0x0 DUP2 GT DUP1 ISZERO PUSH2 0x1D09 JUMPI POP DUP4 DUP2 DUP2 MLOAD DUP2 LT PUSH2 0x1CE8 JUMPI INVALID JUMPDEST PUSH1 0x20 MUL PUSH1 0x20 ADD ADD MLOAD DUP5 PUSH1 0x1 DUP4 SUB DUP2 MLOAD DUP2 LT PUSH2 0x1CFF JUMPI INVALID JUMPDEST PUSH1 0x20 MUL PUSH1 0x20 ADD ADD MLOAD GT JUMPDEST ISZERO PUSH2 0x1DD1 JUMPI DUP4 DUP2 DUP2 MLOAD DUP2 LT PUSH2 0x1D1A JUMPI INVALID JUMPDEST PUSH1 0x20 MUL PUSH1 0x20 ADD ADD MLOAD DUP5 PUSH1 0x1 DUP4 SUB DUP2 MLOAD DUP2 LT PUSH2 0x1D31 JUMPI INVALID JUMPDEST PUSH1 0x20 MUL PUSH1 0x20 ADD ADD MLOAD DUP6 PUSH1 0x1 DUP5 SUB DUP2 MLOAD DUP2 LT PUSH2 0x1D48 JUMPI INVALID JUMPDEST PUSH1 0x20 MUL PUSH1 0x20 ADD ADD DUP7 DUP5 DUP2 MLOAD DUP2 LT PUSH2 0x1D5B JUMPI INVALID JUMPDEST PUSH1 0x20 MUL PUSH1 0x20 ADD ADD DUP3 DUP2 MSTORE POP DUP3 DUP2 MSTORE POP POP POP DUP5 DUP2 DUP2 MLOAD DUP2 LT PUSH2 0x1D78 JUMPI INVALID JUMPDEST PUSH1 0x20 MUL PUSH1 0x20 ADD ADD MLOAD DUP6 PUSH1 0x1 DUP4 SUB DUP2 MLOAD DUP2 LT PUSH2 0x1D8F JUMPI INVALID JUMPDEST PUSH1 0x20 MUL PUSH1 0x20 ADD ADD MLOAD DUP7 PUSH1 0x1 DUP5 SUB DUP2 MLOAD DUP2 LT PUSH2 0x1DA6 JUMPI INVALID JUMPDEST PUSH1 0x20 MUL PUSH1 0x20 ADD ADD DUP8 DUP5 DUP2 MLOAD DUP2 LT PUSH2 0x1DB9 JUMPI INVALID JUMPDEST PUSH1 0x20 SWAP1 DUP2 MUL SWAP2 SWAP1 SWAP2 ADD ADD SWAP2 SWAP1 SWAP2 MSTORE MSTORE PUSH1 0x0 NOT ADD PUSH2 0x1CD1 JUMP JUMPDEST POP PUSH1 0x1 ADD PUSH2 0x1CC7 JUMP JUMPDEST POP POP SWAP2 SWAP1 POP JUMP JUMPDEST PUSH1 0x0 DUP1 PUSH2 0xC34 PUSH1 0x1D PUSH2 0x10B5 JUMP JUMPDEST PUSH1 0x0 DUP1 PUSH2 0x1DF9 PUSH2 0x285C JUMP JUMPDEST PUSH2 0xFFFF SWAP4 SWAP1 SWAP4 AND PUSH1 0x0 SWAP1 DUP2 MSTORE PUSH1 0x20 SWAP4 SWAP1 SWAP4 MSTORE POP POP PUSH1 0x40 SWAP1 KECCAK256 SLOAD PUSH1 0x1 PUSH1 0x1 PUSH1 0xA0 SHL SUB AND SWAP1 JUMP JUMPDEST PUSH1 0x0 DUP1 PUSH1 0x0 DUP1 PUSH1 0x0 DUP1 PUSH2 0x1E31 DUP10 DUP9 PUSH2 0x2869 JUMP JUMPDEST DUP10 MLOAD SWAP1 SWAP6 POP SWAP2 SWAP4 POP SWAP2 POP PUSH1 0x0 SWAP1 PUSH2 0x1E58 SWAP1 PUSH2 0x1E4D SWAP1 DUP12 SWAP1 PUSH2 0x1F41 JUMP JUMPDEST PUSH4 0x3B9ACA00 SWAP1 PUSH2 0x16AA JUMP JUMPDEST SWAP1 POP PUSH2 0x1E92 PUSH2 0x1E87 PUSH4 0x1DA9C00 PUSH2 0x1E6F DUP6 DUP6 PUSH2 0x16AA JUMP JUMPDEST DUP2 PUSH2 0x1E76 JUMPI INVALID JUMPDEST PUSH8 0xDE0B6B3A7640000 SWAP2 SWAP1 DIV PUSH2 0x1F2F JUMP JUMPDEST PUSH1 0xE0 DUP11 ADD MLOAD SWAP1 PUSH2 0x1F73 JUMP JUMPDEST SWAP7 POP PUSH2 0x1EB4 PUSH2 0x1EA9 PUSH4 0x1DA9C00 PUSH2 0x1E6F DUP8 DUP6 PUSH2 0x16AA JUMP JUMPDEST PUSH1 0xC0 DUP11 ADD MLOAD SWAP1 PUSH2 0x1F73 JUMP JUMPDEST SWAP6 POP DUP2 DUP4 EQ ISZERO PUSH2 0x1ECB JUMPI POP PUSH1 0x0 SWAP4 POP PUSH2 0x1F26 SWAP2 POP POP JUMP JUMPDEST PUSH1 0x0 PUSH2 0x1EED PUSH2 0x1EE2 PUSH4 0x1DA9C00 PUSH2 0x1E6F DUP8 DUP7 PUSH2 0x16AA JUMP JUMPDEST PUSH1 0xE0 DUP12 ADD MLOAD SWAP1 PUSH2 0x1F73 JUMP JUMPDEST SWAP1 POP PUSH1 0x0 PUSH2 0x1EFB DUP10 DUP4 PUSH2 0x1F41 JUMP JUMPDEST SWAP1 POP PUSH2 0x1F1E DUP9 PUSH2 0x1F18 DUP4 DUP14 PUSH1 0x40 ADD MLOAD PUSH2 0x16AA SWAP1 SWAP2 SWAP1 PUSH4 0xFFFFFFFF AND JUMP JUMPDEST SWAP1 PUSH2 0x2904 JUMP JUMPDEST SWAP7 POP POP POP POP POP POP JUMPDEST SWAP4 POP SWAP4 POP SWAP4 POP SWAP4 JUMP JUMPDEST PUSH1 0x0 DUP3 DUP3 ADD DUP4 DUP2 LT ISZERO PUSH2 0xC7A JUMPI PUSH1 0x0 DUP1 REVERT JUMPDEST PUSH1 0x0 DUP3 DUP3 GT ISZERO PUSH2 0x1F50 JUMPI PUSH1 0x0 DUP1 REVERT JUMPDEST POP SWAP1 SUB SWAP1 JUMP JUMPDEST PUSH1 0x0 PUSH2 0xC7A PUSH2 0x1F6D DUP5 PUSH8 0xDE0B6B3A7640000 PUSH2 0x16AA JUMP JUMPDEST DUP4 PUSH2 0x2904 JUMP JUMPDEST PUSH1 0x0 PUSH2 0xC7A PUSH2 0x1F82 DUP5 DUP5 PUSH2 0x16AA JUMP JUMPDEST PUSH8 0xDE0B6B3A7640000 PUSH2 0x2904 JUMP JUMPDEST PUSH1 0x0 DUP4 PUSH2 0x1F9F JUMPI POP PUSH1 0x0 PUSH2 0xD8D JUMP JUMPDEST PUSH1 0x0 DUP1 DUP6 SGT PUSH2 0x1FB8 JUMPI PUSH2 0x1FB3 DUP7 DUP6 DUP6 PUSH2 0x2923 JUMP JUMPDEST PUSH2 0x1FC3 JUMP JUMPDEST PUSH2 0x1FC3 DUP7 DUP6 DUP6 PUSH2 0x295F JUMP JUMPDEST SWAP1 POP PUSH4 0x3B9ACA00 DUP2 SGT ISZERO PUSH2 0x1FD6 JUMPI PUSH1 0x0 DUP1 REVERT JUMPDEST PUSH1 0x0 PUSH2 0x1FE2 DUP7 DUP4 PUSH2 0x29A0 JUMP JUMPDEST SWAP1 POP PUSH1 0x0 DUP7 SLT PUSH2 0x1FF2 JUMPI DUP1 PUSH2 0x1FFE JUMP JUMPDEST PUSH2 0x1FFE DUP2 PUSH1 0x0 NOT PUSH2 0x1ADB JUMP JUMPDEST SWAP8 SWAP7 POP POP POP POP POP POP POP JUMP JUMPDEST PUSH1 0x0 DUP1 PUSH2 0x2015 DUP4 PUSH2 0x1DEE JUMP JUMPDEST PUSH1 0x1 PUSH1 0x1 PUSH1 0xA0 SHL SUB AND PUSH4 0xEF81F216 PUSH1 0x40 MLOAD DUP2 PUSH4 0xFFFFFFFF AND PUSH1 0xE0 SHL DUP2 MSTORE PUSH1 0x4 ADD PUSH1 0x40 DUP1 MLOAD DUP1 DUP4 SUB DUP2 PUSH1 0x0 DUP8 DUP1 EXTCODESIZE ISZERO DUP1 ISZERO PUSH2 0x204E JUMPI PUSH1 0x0 DUP1 REVERT JUMPDEST POP GAS CALL ISZERO DUP1 ISZERO PUSH2 0x15E2 JUMPI RETURNDATASIZE PUSH1 0x0 DUP1 RETURNDATACOPY RETURNDATASIZE PUSH1 0x0 REVERT JUMPDEST PUSH1 0x0 PUSH2 0x206C PUSH2 0x1DE1 JUMP JUMPDEST PUSH1 0x0 DUP6 PUSH2 0xFFFF AND DUP2 MSTORE PUSH1 0x20 ADD SWAP1 DUP2 MSTORE PUSH1 0x20 ADD PUSH1 0x0 KECCAK256 SWAP1 POP PUSH2 0x2090 DUP3 PUSH1 0x0 ADD MLOAD PUSH2 0x29B9 JUMP JUMPDEST DUP2 SLOAD PUSH5 0xFFFFFFFFFF NOT AND PUSH5 0xFFFFFFFFFF SWAP2 SWAP1 SWAP2 AND OR DUP2 SSTORE PUSH1 0xA0 DUP3 ADD MLOAD PUSH2 0x20B5 SWAP1 PUSH2 0x29CD JUMP JUMPDEST PUSH1 0x2 DUP3 ADD DUP1 SLOAD PUSH10 0xFFFFFFFFFFFFFFFFFFFF NOT AND PUSH1 0x1 PUSH1 0x1 PUSH1 0x50 SHL SUB SWAP3 SWAP1 SWAP3 AND SWAP2 SWAP1 SWAP2 OR SWAP1 SSTORE PUSH1 0xC0 DUP3 ADD MLOAD PUSH2 0x20E8 SWAP1 PUSH2 0x29CD JUMP JUMPDEST DUP2 PUSH1 0x2 ADD PUSH1 0xA PUSH2 0x100 EXP DUP2 SLOAD DUP2 PUSH1 0x1 PUSH1 0x1 PUSH1 0x50 SHL SUB MUL NOT AND SWAP1 DUP4 PUSH1 0x1 PUSH1 0x1 PUSH1 0x50 SHL SUB AND MUL OR SWAP1 SSTORE POP PUSH2 0x211D DUP3 PUSH1 0xE0 ADD MLOAD PUSH2 0x29CD JUMP JUMPDEST DUP2 PUSH1 0x2 ADD PUSH1 0x14 PUSH2 0x100 EXP DUP2 SLOAD DUP2 PUSH1 0x1 PUSH1 0x1 PUSH1 0x50 SHL SUB MUL NOT AND SWAP1 DUP4 PUSH1 0x1 PUSH1 0x1 PUSH1 0x50 SHL SUB AND MUL OR SWAP1 SSTORE POP PUSH2 0x2152 DUP3 PUSH1 0x20 ADD MLOAD PUSH2 0x29E3 JUMP JUMPDEST DUP2 SLOAD PUSH1 0x1 PUSH1 0x1 PUSH1 0x58 SHL SUB SWAP2 SWAP1 SWAP2 AND PUSH1 0x1 PUSH1 0x28 SHL MUL PUSH16 0xFFFFFFFFFFFFFFFFFFFFFF0000000000 NOT SWAP1 SWAP2 AND OR DUP2 SSTORE PUSH1 0x40 DUP3 ADD MLOAD PUSH2 0x218C SWAP1 PUSH2 0x29E3 JUMP JUMPDEST PUSH1 0x1 DUP3 ADD DUP1 SLOAD PUSH11 0xFFFFFFFFFFFFFFFFFFFFFF NOT AND PUSH1 0x1 PUSH1 0x1 PUSH1 0x58 SHL SUB SWAP3 SWAP1 SWAP3 AND SWAP2 SWAP1 SWAP2 OR SWAP1 SSTORE PUSH1 0x80 DUP3 ADD MLOAD PUSH2 0x21C0 SWAP1 PUSH2 0x29E3 JUMP JUMPDEST DUP2 SLOAD PUSH1 0x1 PUSH1 0x1 PUSH1 0x58 SHL SUB SWAP2 SWAP1 SWAP2 AND PUSH1 0x1 PUSH1 0x80 SHL MUL PUSH11 0xFFFFFFFFFFFFFFFFFFFFFF PUSH1 0x80 SHL NOT SWAP1 SWAP2 AND OR DUP2 SSTORE PUSH1 0x60 DUP3 ADD MLOAD PUSH2 0x21F8 SWAP1 PUSH2 0x29F9 JUMP JUMPDEST DUP2 SLOAD PUSH4 0xFFFFFFFF SWAP2 SWAP1 SWAP2 AND PUSH1 0x1 PUSH1 0xD8 SHL MUL PUSH4 0xFFFFFFFF PUSH1 0xD8 SHL NOT SWAP1 SWAP2 AND OR DUP2 SSTORE DUP3 ISZERO PUSH2 0x2244 JUMPI PUSH1 0x0 PUSH2 0x2229 DUP5 PUSH2 0x16D1 JUMP JUMPDEST SWAP1 POP PUSH2 0x2235 DUP6 DUP3 PUSH2 0x2A0C JUMP JUMPDEST PUSH2 0x2242 PUSH2 0xFEE DUP7 DUP4 PUSH2 0x2A48 JUMP JUMPDEST POP JUMPDEST DUP4 PUSH2 0xFFFF AND PUSH32 0xEF25641E225E493886510CA1AD6584FA7B442B9FEA820A29D1DE3CE27D270FD2 DUP4 PUSH1 0xA0 ADD MLOAD DUP5 PUSH1 0xC0 ADD MLOAD DUP6 PUSH1 0xE0 ADD MLOAD PUSH1 0x40 MLOAD PUSH2 0x2288 SWAP4 SWAP3 SWAP2 SWAP1 PUSH2 0x4DFD JUMP JUMPDEST PUSH1 0x40 MLOAD DUP1 SWAP2 SUB SWAP1 LOG2 POP POP POP POP JUMP JUMPDEST PUSH1 0x0 DUP1 PUSH2 0xC34 PUSH1 0x9 PUSH2 0x10B5 JUMP JUMPDEST PUSH1 0x0 DUP1 PUSH2 0x22AE PUSH2 0x2AD2 JUMP JUMPDEST PUSH1 0x0 SWAP4 DUP5 MSTORE PUSH1 0x20 MSTORE POP POP PUSH1 0x40 SWAP1 KECCAK256 SLOAD PUSH1 0x1 PUSH1 0x1 PUSH1 0xA0 SHL SUB AND SWAP1 JUMP JUMPDEST PUSH1 0x0 DUP1 PUSH1 0x0 DUP1 PUSH1 0x0 DUP1 PUSH2 0x22DA PUSH2 0x2ADF JUMP JUMPDEST PUSH1 0x1 PUSH1 0x1 PUSH1 0xA0 SHL SUB SWAP1 SWAP8 AND PUSH1 0x0 SWAP1 DUP2 MSTORE PUSH1 0x20 SWAP8 SWAP1 SWAP8 MSTORE POP POP PUSH1 0x40 SWAP1 SWAP5 KECCAK256 SLOAD PUSH2 0xFFFF DUP2 AND SWAP6 PUSH4 0xFFFFFFFF PUSH3 0x10000 DUP4 DIV DUP2 AND SWAP7 POP PUSH1 0x1 PUSH1 0x30 SHL DUP4 DIV AND SWAP5 POP PUSH1 0xFF PUSH1 0x1 PUSH1 0x50 SHL DUP4 DIV AND SWAP4 POP PUSH1 0x1 PUSH1 0x58 SHL SWAP1 SWAP2 DIV PUSH1 0xD0 SHL SWAP2 POP JUMP JUMPDEST PUSH1 0x0 DUP1 PUSH1 0x0 DUP1 PUSH2 0x2340 PUSH2 0x2AEC JUMP JUMPDEST PUSH1 0x1 PUSH1 0x1 PUSH1 0xA0 SHL SUB SWAP6 SWAP1 SWAP6 AND PUSH1 0x0 SWAP1 DUP2 MSTORE PUSH1 0x20 SWAP6 SWAP1 SWAP6 MSTORE POP POP PUSH1 0x40 SWAP1 SWAP3 KECCAK256 SLOAD PUSH12 0xFFFFFFFFFFFFFFFFFFFFFFFF DUP2 AND SWAP4 PUSH1 0x1 PUSH1 0x60 SHL DUP3 DIV PUSH16 0xFFFFFFFFFFFFFFFFFFFFFFFFFFFFFFFF AND SWAP4 POP PUSH1 0x1 PUSH1 0xE0 SHL SWAP1 SWAP2 DIV PUSH4 0xFFFFFFFF AND SWAP2 POP JUMP JUMPDEST PUSH2 0x23A4 PUSH2 0x46CB JUMP JUMPDEST PUSH2 0x23AC PUSH2 0x46CB JUMP JUMPDEST PUSH1 0xFF DUP5 AND PUSH2 0x23BB JUMPI SWAP1 POP PUSH2 0xC7A JUMP JUMPDEST PUSH2 0x23C5 DUP6 DUP6 PUSH2 0xDF6 JUMP JUMPDEST DUP2 MSTORE PUSH1 0xFF DUP5 AND PUSH1 0x60 DUP3 ADD MSTORE DUP3 PUSH8 0xFFFFFFFFFFFFFFFF DUP2 GT DUP1 ISZERO PUSH2 0x23E7 JUMPI PUSH1 0x0 DUP1 REVERT JUMPDEST POP PUSH1 0x40 MLOAD SWAP1 DUP1 DUP3 MSTORE DUP1 PUSH1 0x20 MUL PUSH1 0x20 ADD DUP3 ADD PUSH1 0x40 MSTORE DUP1 ISZERO PUSH2 0x2421 JUMPI DUP2 PUSH1 0x20 ADD JUMPDEST PUSH2 0x240E PUSH2 0x468C JUMP JUMPDEST DUP2 MSTORE PUSH1 0x20 ADD SWAP1 PUSH1 0x1 SWAP1 SUB SWAP1 DUP2 PUSH2 0x2406 JUMPI SWAP1 POP JUMPDEST POP PUSH1 0x20 DUP3 ADD MSTORE SWAP5 SWAP4 POP POP POP POP JUMP JUMPDEST PUSH1 0x0 DUP1 PUSH2 0x243A PUSH2 0x1874 JUMP JUMPDEST PUSH1 0x1 PUSH1 0x1 PUSH1 0xA0 SHL SUB DUP6 AND PUSH1 0x0 SWAP1 DUP2 MSTORE PUSH1 0x20 DUP3 DUP2 MSTORE PUSH1 0x40 DUP1 DUP4 KECCAK256 PUSH2 0xFFFF DUP9 AND DUP5 MSTORE SWAP1 SWAP2 MSTORE DUP2 KECCAK256 DUP1 SLOAD PUSH1 0x1 PUSH1 0xA8 SHL SWAP1 DIV PUSH1 0xA SWAP1 DUP2 SIGNEXTEND SWAP1 SIGNEXTEND SWAP5 POP SWAP2 SWAP3 POP DUP4 SLT ISZERO PUSH2 0x2480 JUMPI PUSH1 0x0 DUP1 REVERT JUMPDEST POP POP SWAP3 SWAP2 POP POP JUMP JUMPDEST PUSH1 0x0 DUP2 PUSH1 0x80 ADD MLOAD PUSH1 0x0 EQ ISZERO PUSH2 0x249F JUMPI POP PUSH1 0x0 PUSH2 0x421 JUMP JUMPDEST PUSH1 0x80 DUP3 ADD MLOAD PUSH3 0x76A700 SWAP1 PUSH2 0x10C7 SWAP1 PUSH2 0x2AF9 JUMP JUMPDEST PUSH1 0x20 DUP4 ADD MLOAD MLOAD MLOAD PUSH1 0x0 SWAP1 PUSH1 0x60 SWAP1 DUP1 PUSH8 0xFFFFFFFFFFFFFFFF DUP2 GT DUP1 ISZERO PUSH2 0x24D6 JUMPI PUSH1 0x0 DUP1 REVERT JUMPDEST POP PUSH1 0x40 MLOAD SWAP1 DUP1 DUP3 MSTORE DUP1 PUSH1 0x20 MUL PUSH1 0x20 ADD DUP3 ADD PUSH1 0x40 MSTORE DUP1 ISZERO PUSH2 0x2500 JUMPI DUP2 PUSH1 0x20 ADD PUSH1 0x20 DUP3 MUL DUP1 CALLDATASIZE DUP4 CALLDATACOPY ADD SWAP1 POP JUMPDEST POP SWAP2 POP PUSH2 0x250B PUSH2 0x46F3 JUMP JUMPDEST PUSH1 0x0 JUMPDEST DUP3 DUP2 LT ISZERO PUSH2 0x2604 JUMPI DUP8 MLOAD PUSH2 0x2529 SWAP1 DUP4 PUSH1 0x1 DUP1 DUP6 ADD SWAP1 DUP12 PUSH2 0x2B15 JUMP JUMPDEST PUSH1 0x0 DUP9 PUSH1 0x20 ADD MLOAD PUSH1 0x0 ADD MLOAD DUP3 DUP2 MLOAD DUP2 LT PUSH2 0x253F JUMPI INVALID JUMPDEST PUSH1 0x20 MUL PUSH1 0x20 ADD ADD MLOAD SWAP1 POP PUSH1 0x0 DUP1 PUSH2 0x2556 DUP4 DUP7 PUSH2 0x2B90 JUMP JUMPDEST SWAP2 POP SWAP2 POP PUSH2 0x2583 PUSH2 0x257C DUP13 PUSH1 0xC0 ADD MLOAD DUP14 PUSH1 0x0 ADD MLOAD PUSH1 0x0 ADD MLOAD PUSH2 0xFFFF AND DUP7 PUSH1 0x20 ADD MLOAD PUSH2 0x2C02 JUMP JUMPDEST DUP3 SWAP1 PUSH2 0xD95 JUMP JUMPDEST DUP8 DUP6 DUP2 MLOAD DUP2 LT PUSH2 0x258F JUMPI INVALID JUMPDEST PUSH1 0x20 MUL PUSH1 0x20 ADD ADD DUP2 DUP2 MSTORE POP POP PUSH1 0x0 PUSH2 0x25E6 PUSH2 0x1781 PUSH2 0x25DA DUP11 DUP9 DUP2 MLOAD DUP2 LT PUSH2 0x25B2 JUMPI INVALID JUMPDEST PUSH1 0x20 MUL PUSH1 0x20 ADD ADD MLOAD DUP8 PUSH1 0x20 ADD MLOAD DUP16 DUP16 PUSH2 0x25CF JUMPI DUP12 PUSH1 0xA0 ADD MLOAD PUSH2 0x25D5 JUMP JUMPDEST DUP12 PUSH1 0xC0 ADD MLOAD JUMPDEST PUSH2 0x2C47 JUMP JUMPDEST DUP15 MLOAD PUSH1 0x40 ADD MLOAD SWAP1 PUSH2 0x126F JUMP JUMPDEST SWAP1 POP PUSH2 0x25F2 DUP10 DUP3 PUSH2 0xD95 JUMP JUMPDEST SWAP9 POP POP PUSH1 0x1 SWAP1 SWAP4 ADD SWAP3 POP PUSH2 0x250E SWAP2 POP POP JUMP JUMPDEST POP POP POP SWAP4 POP SWAP4 SWAP2 POP POP JUMP JUMPDEST PUSH1 0x0 DUP1 PUSH2 0x263B DUP5 PUSH1 0xC0 ADD MLOAD DUP6 PUSH1 0x0 ADD MLOAD PUSH1 0x0 ADD MLOAD PUSH2 0xFFFF AND DUP7 PUSH1 0x80 ADD MLOAD DUP7 DUP9 PUSH1 0x0 ADD MLOAD PUSH1 0x20 ADD MLOAD PUSH2 0x2CAB JUMP JUMPDEST SWAP1 POP DUP1 ISZERO PUSH2 0x268A JUMPI PUSH1 0x0 PUSH2 0x266D DUP6 PUSH1 0xC0 ADD MLOAD DUP7 PUSH1 0x0 ADD MLOAD PUSH1 0x0 ADD MLOAD PUSH2 0xFFFF AND DUP8 PUSH1 0x80 ADD MLOAD DUP8 DUP10 PUSH1 0x0 ADD MLOAD PUSH1 0x0 DUP9 PUSH2 0x1A5D JUMP JUMPDEST POP DUP6 MLOAD PUSH1 0x40 ADD MLOAD SWAP1 SWAP2 POP PUSH2 0x2681 SWAP1 DUP3 PUSH2 0x126F JUMP JUMPDEST SWAP3 POP POP POP PUSH2 0xC34 JUMP JUMPDEST PUSH1 0x0 SWAP2 POP POP PUSH2 0xC34 JUMP JUMPDEST PUSH1 0x0 DUP1 PUSH2 0xC34 PUSH1 0xB PUSH2 0x10B5 JUMP JUMPDEST PUSH1 0x0 DUP2 PUSH2 0x26B0 JUMPI POP PUSH1 0x0 PUSH2 0x421 JUMP JUMPDEST PUSH2 0x26B9 DUP3 PUSH2 0x2D57 JUMP JUMPDEST PUSH1 0xFF SUB PUSH1 0x1 ADD SWAP1 POP SWAP2 SWAP1 POP JUMP JUMPDEST PUSH1 0x0 DUP2 PUSH2 0x26D2 JUMPI PUSH1 0x0 DUP1 REVERT JUMPDEST PUSH2 0x100 DUP3 GT ISZERO PUSH2 0x26E1 JUMPI PUSH1 0x0 DUP1 REVERT JUMPDEST PUSH1 0x0 PUSH2 0x26EC DUP5 PUSH2 0xC3A JUMP JUMPDEST SWAP1 POP PUSH1 0x0 PUSH1 0x5A DUP5 GT PUSH2 0x2707 JUMPI POP PUSH3 0x15180 DUP4 MUL ADD SWAP1 POP PUSH2 0xC34 JUMP JUMPDEST PUSH1 0x87 DUP5 GT PUSH2 0x272F JUMPI POP PUSH1 0x59 NOT DUP4 ADD PUSH3 0x7E900 SWAP1 DUP2 MUL SWAP1 DUP3 MOD SWAP1 SWAP2 SUB ADD PUSH3 0x76A700 ADD SWAP1 POP PUSH2 0xC34 JUMP JUMPDEST PUSH1 0xC3 DUP5 GT PUSH2 0x2758 JUMPI POP PUSH1 0x86 NOT DUP4 ADD PUSH3 0x278D00 SWAP1 DUP2 MUL SWAP1 DUP3 MOD SWAP1 SWAP2 SUB ADD PUSH4 0x1DA9C00 ADD SWAP1 POP PUSH2 0xC34 JUMP JUMPDEST POP PUSH1 0xC2 NOT DUP4 ADD PUSH3 0x76A700 SWAP1 DUP2 MUL SWAP1 DUP3 MOD SWAP1 SWAP2 SUB ADD PUSH4 0xB1FA800 ADD SWAP1 POP PUSH2 0xC34 JUMP JUMPDEST PUSH1 0x0 DUP1 PUSH2 0x2787 DUP9 DUP9 DUP9 PUSH2 0x2C02 JUMP JUMPDEST SWAP1 POP DUP5 DUP7 GT PUSH2 0x2797 JUMPI SWAP1 POP PUSH2 0x27D1 JUMP JUMPDEST DUP3 ISZERO PUSH2 0x27B1 JUMPI PUSH2 0x27A9 DUP5 DUP3 DUP9 DUP9 PUSH2 0x1F90 JUMP JUMPDEST SWAP2 POP POP PUSH2 0x27D1 JUMP JUMPDEST PUSH1 0x0 PUSH2 0x27BE DUP6 DUP9 DUP9 PUSH2 0x2DF0 JUMP JUMPDEST SWAP1 POP PUSH2 0x27CC DUP3 DUP9 DUP9 DUP5 PUSH2 0x2C47 JUMP JUMPDEST SWAP3 POP POP POP JUMPDEST SWAP7 SWAP6 POP POP POP POP POP POP JUMP JUMPDEST PUSH1 0x0 PUSH1 0x1 DUP4 LT ISZERO DUP1 ISZERO PUSH2 0x27F0 JUMPI POP PUSH2 0x100 DUP4 GT ISZERO JUMPDEST PUSH2 0x27F9 JUMPI PUSH1 0x0 DUP1 REVERT JUMPDEST DUP2 ISZERO PUSH2 0x2812 JUMPI POP PUSH1 0x1 PUSH1 0xFF SHL PUSH1 0x0 NOT DUP4 ADD SHR DUP4 OR PUSH2 0xC7A JUMP JUMPDEST POP PUSH1 0x1 PUSH1 0xFF SHL PUSH1 0x0 NOT DUP4 ADD SHR NOT DUP4 AND PUSH2 0xC7A JUMP JUMPDEST PUSH1 0x0 DUP1 PUSH2 0xC34 PUSH1 0xD PUSH2 0x10B5 JUMP JUMPDEST PUSH8 0xFFFF000000000000 PUSH1 0x30 DUP5 SWAP1 SHL AND PUSH6 0xFFFFFFFFFF00 PUSH1 0x8 DUP5 SWAP1 SHL AND OR PUSH1 0xFF DUP3 AND OR SWAP4 SWAP3 POP POP POP JUMP JUMPDEST PUSH1 0x0 DUP1 PUSH2 0xC34 PUSH1 0x1F PUSH2 0x10B5 JUMP JUMPDEST PUSH1 0x0 DUP1 PUSH1 0x0 DUP1 PUSH1 0x0 DUP6 PUSH1 0x20 ADD MLOAD GT ISZERO PUSH2 0x28B6 JUMPI PUSH2 0x28B3 PUSH2 0x289A DUP7 PUSH1 0xC0 ADD MLOAD DUP8 PUSH1 0x20 ADD MLOAD PUSH2 0x16AA SWAP1 SWAP2 SWAP1 PUSH4 0xFFFFFFFF AND JUMP JUMPDEST PUSH1 0xE0 DUP8 ADD MLOAD PUSH1 0x40 DUP9 ADD MLOAD PUSH2 0x28AD SWAP2 PUSH2 0x16AA JUMP JUMPDEST SWAP1 PUSH2 0x2ED9 JUMP JUMPDEST SWAP1 POP JUMPDEST PUSH1 0x0 PUSH2 0x28C1 DUP8 PUSH2 0x2EEC JUMP JUMPDEST SWAP1 POP PUSH2 0x28CD DUP2 DUP4 PUSH2 0x2F1F JUMP JUMPDEST SWAP5 POP DUP2 ISZERO PUSH2 0x28E4 JUMPI PUSH2 0x28E1 DUP2 DUP7 PUSH1 0x1 PUSH2 0x2FD2 JUMP JUMPDEST SWAP4 POP JUMPDEST PUSH1 0x20 DUP7 ADD MLOAD ISZERO PUSH2 0x28FB JUMPI PUSH2 0x28F8 DUP6 DUP4 PUSH2 0x304A JUMP JUMPDEST SWAP3 POP JUMPDEST POP POP SWAP3 POP SWAP3 POP SWAP3 JUMP JUMPDEST PUSH1 0x0 DUP1 DUP3 GT PUSH2 0x2912 JUMPI PUSH1 0x0 DUP1 REVERT JUMPDEST DUP2 DUP4 DUP2 PUSH2 0x291B JUMPI INVALID JUMPDEST DIV SWAP4 SWAP3 POP POP POP JUMP JUMPDEST PUSH1 0x0 DUP1 PUSH2 0x2931 DUP6 DUP6 DUP6 PUSH2 0x3063 JUMP JUMPDEST SWAP1 POP DUP1 ISZERO PUSH2 0x2951 JUMPI PUSH2 0x294C PUSH2 0x2946 DUP6 DUP6 PUSH2 0x1F41 JUMP JUMPDEST DUP3 PUSH2 0x30B3 JUMP JUMPDEST PUSH2 0xEBA JUMP JUMPDEST PUSH4 0x3B9ACA00 SWAP6 SWAP5 POP POP POP POP POP JUMP JUMPDEST PUSH1 0x0 DUP1 PUSH2 0x296D DUP6 DUP6 DUP6 PUSH2 0x3120 JUMP JUMPDEST SWAP1 POP PUSH2 0x297C PUSH2 0x2946 DUP6 DUP6 PUSH2 0x1F41 JUMP JUMPDEST SWAP2 POP PUSH1 0x0 PUSH2 0x2989 DUP7 PUSH2 0x3161 JUMP JUMPDEST SWAP1 POP DUP3 DUP2 SLT ISZERO PUSH2 0x2997 JUMPI DUP1 SWAP3 POP JUMPDEST POP POP SWAP4 SWAP3 POP POP POP JUMP JUMPDEST PUSH1 0x0 PUSH2 0xC7A PUSH2 0x29AF DUP5 DUP5 PUSH2 0x19A9 JUMP JUMPDEST PUSH4 0x3B9ACA00 PUSH2 0x19F7 JUMP JUMPDEST PUSH1 0x0 PUSH5 0xFFFFFFFFFF DUP3 GT ISZERO PUSH2 0x16E7 JUMPI PUSH1 0x0 DUP1 REVERT JUMPDEST PUSH1 0x0 PUSH1 0x1 PUSH1 0x1 PUSH1 0x50 SHL SUB DUP3 GT ISZERO PUSH2 0x16E7 JUMPI PUSH1 0x0 DUP1 REVERT JUMPDEST PUSH1 0x0 PUSH1 0x1 PUSH1 0x1 PUSH1 0x58 SHL SUB DUP3 GT ISZERO PUSH2 0x16E7 JUMPI PUSH1 0x0 DUP1 REVERT JUMPDEST PUSH1 0x0 PUSH4 0xFFFFFFFF DUP3 GT ISZERO PUSH2 0x16E7 JUMPI PUSH1 0x0 DUP1 REVERT JUMPDEST PUSH1 0x0 DUP2 SLT ISZERO PUSH2 0x2A1A JUMPI PUSH1 0x0 DUP1 REVERT JUMPDEST PUSH1 0x0 PUSH2 0x2A28 PUSH2 0xFEE DUP5 PUSH2 0x242F JUMP JUMPDEST SWAP1 POP PUSH2 0x2A34 DUP2 DUP4 PUSH2 0xD95 JUMP JUMPDEST SWAP1 POP PUSH2 0x2A43 PUSH2 0xFEE DUP5 DUP4 PUSH2 0x317C JUMP JUMPDEST POP POP POP JUMP JUMPDEST PUSH1 0x0 PUSH2 0x2A52 PUSH2 0x31F0 JUMP JUMPDEST PUSH2 0xFFFF DUP5 AND PUSH1 0x0 SWAP1 DUP2 MSTORE PUSH1 0x20 SWAP2 SWAP1 SWAP2 MSTORE PUSH1 0x40 SWAP1 DUP2 SWAP1 KECCAK256 SLOAD SWAP1 MLOAD PUSH4 0xAD1C095D PUSH1 0xE0 SHL DUP2 MSTORE PUSH1 0x1 PUSH1 0x1 PUSH1 0xA0 SHL SUB SWAP1 SWAP2 AND SWAP2 POP DUP2 SWAP1 PUSH4 0xAD1C095D SWAP1 PUSH2 0x2A9A SWAP1 DUP8 SWAP1 DUP7 SWAP1 PUSH1 0x4 ADD PUSH2 0x4B2E JUMP JUMPDEST PUSH1 0x0 PUSH1 0x40 MLOAD DUP1 DUP4 SUB DUP2 PUSH1 0x0 DUP8 DUP1 EXTCODESIZE ISZERO DUP1 ISZERO PUSH2 0x2AB4 JUMPI PUSH1 0x0 DUP1 REVERT JUMPDEST POP GAS CALL ISZERO DUP1 ISZERO PUSH2 0x2AC8 JUMPI RETURNDATASIZE PUSH1 0x0 DUP1 RETURNDATACOPY RETURNDATASIZE PUSH1 0x0 REVERT JUMPDEST POP POP POP POP POP POP POP POP JUMP JUMPDEST PUSH1 0x0 DUP1 PUSH2 0xC34 PUSH1 0x3 PUSH2 0x10B5 JUMP JUMPDEST PUSH1 0x0 DUP1 PUSH2 0xC34 PUSH1 0x2 PUSH2 0x10B5 JUMP JUMPDEST PUSH1 0x0 DUP1 PUSH2 0xC34 PUSH1 0x11 PUSH2 0x10B5 JUMP JUMPDEST PUSH1 0x0 PUSH3 0x76A700 DUP3 LT ISZERO PUSH2 0x2B0B JUMPI PUSH1 0x0 DUP1 REVERT JUMPDEST PUSH3 0x76A700 DUP3 PUSH2 0xC52 JUMP JUMPDEST DUP3 PUSH1 0x1 GT ISZERO DUP1 ISZERO PUSH2 0x2B2A JUMPI POP DUP5 PUSH1 0x20 ADD MLOAD DUP4 GT ISZERO JUMPDEST PUSH2 0x2B46 JUMPI PUSH1 0x40 MLOAD PUSH3 0x461BCD PUSH1 0xE5 SHL DUP2 MSTORE PUSH1 0x4 ADD PUSH2 0x1FF SWAP1 PUSH2 0x4C34 JUMP JUMPDEST PUSH1 0x0 PUSH2 0x2B63 PUSH2 0x2B54 DUP6 PUSH2 0x31FD JUMP JUMPDEST PUSH2 0x2B5D DUP5 PUSH2 0x2AF9 JUMP JUMPDEST SWAP1 PUSH2 0x1F2F JUMP JUMPDEST SWAP1 POP PUSH2 0x2B88 DUP7 PUSH1 0x0 ADD MLOAD PUSH2 0xFFFF AND DUP3 DUP5 DUP7 PUSH2 0x2B7D DUP12 PUSH2 0x32A1 JUMP JUMPDEST DUP11 SWAP5 SWAP4 SWAP3 SWAP2 SWAP1 PUSH2 0x32B5 JUMP JUMPDEST POP POP POP POP POP POP JUMP JUMPDEST PUSH1 0x0 DUP1 PUSH2 0x2BA0 DUP5 PUSH1 0x40 ADD MLOAD PUSH2 0x32DF JUMP JUMPDEST DUP1 ISZERO PUSH2 0x2BB1 JUMPI POP PUSH1 0x0 DUP5 PUSH1 0x60 ADD MLOAD SLT ISZERO JUMPDEST PUSH2 0x2BBA JUMPI PUSH1 0x0 DUP1 REVERT JUMPDEST PUSH2 0x2BDD DUP4 PUSH1 0x80 ADD MLOAD PUSH2 0x1225 DUP7 PUSH1 0x60 ADD MLOAD DUP7 PUSH1 0x60 ADD MLOAD PUSH2 0x19A9 SWAP1 SWAP2 SWAP1 PUSH4 0xFFFFFFFF AND JUMP JUMPDEST SWAP2 POP PUSH2 0x14BA DUP4 PUSH1 0x80 ADD MLOAD PUSH2 0x1225 DUP7 PUSH1 0x60 ADD MLOAD DUP7 PUSH1 0x40 ADD MLOAD PUSH2 0x19A9 SWAP1 SWAP2 SWAP1 PUSH4 0xFFFFFFFF AND JUMP JUMPDEST PUSH1 0x0 DUP1 PUSH2 0x2C0D PUSH2 0x32F5 JUMP JUMPDEST PUSH1 0x1 PUSH1 0x1 PUSH1 0xA0 SHL SUB DUP7 AND PUSH1 0x0 SWAP1 DUP2 MSTORE PUSH1 0x20 SWAP2 DUP3 MSTORE PUSH1 0x40 DUP1 DUP3 KECCAK256 DUP8 DUP4 MSTORE DUP4 MSTORE DUP1 DUP3 KECCAK256 DUP7 DUP4 MSTORE SWAP1 SWAP3 MSTORE KECCAK256 SLOAD PUSH1 0xF SWAP1 DUP2 SIGNEXTEND SWAP1 SIGNEXTEND SWAP2 POP POP SWAP4 SWAP3 POP POP POP JUMP JUMPDEST PUSH1 0x0 DUP5 PUSH2 0x2C56 JUMPI POP PUSH1 0x0 PUSH2 0xD8D JUMP JUMPDEST PUSH1 0x0 PUSH2 0x2C62 DUP6 DUP6 PUSH2 0x1F41 JUMP JUMPDEST SWAP1 POP PUSH1 0x0 PUSH2 0x2C70 DUP3 DUP6 PUSH2 0x30B3 JUMP JUMPDEST SWAP1 POP PUSH4 0x3B9ACA00 DUP2 SGT ISZERO PUSH2 0x2C83 JUMPI PUSH1 0x0 DUP1 REVERT JUMPDEST PUSH1 0x0 PUSH2 0x2C8F DUP9 DUP4 PUSH2 0x29A0 JUMP JUMPDEST SWAP1 POP PUSH1 0x0 DUP9 SLT PUSH2 0x2C9F JUMPI DUP1 PUSH2 0xD87 JUMP JUMPDEST PUSH2 0xD87 DUP2 PUSH1 0x0 NOT PUSH2 0x1ADB JUMP JUMPDEST PUSH1 0x0 PUSH1 0x2 DUP3 GT PUSH2 0x2CBD JUMPI POP PUSH1 0x0 PUSH2 0xEBA JUMP JUMPDEST PUSH1 0x0 PUSH2 0x2CC9 DUP8 DUP8 PUSH2 0x1A28 JUMP JUMPDEST SWAP1 POP DUP1 PUSH2 0x2CD7 JUMPI SWAP1 POP PUSH2 0xEBA JUMP JUMPDEST PUSH1 0x0 PUSH2 0x2CE2 DUP6 PUSH2 0x2AF9 JUMP JUMPDEST SWAP1 POP DUP6 DUP2 EQ ISZERO PUSH2 0x2D0C JUMPI POP PUSH21 0x400080000002002000000002000000200000000020 NOT AND SWAP1 POP PUSH2 0xEBA JUMP JUMPDEST PUSH1 0x1 JUMPDEST DUP5 DUP2 GT PUSH2 0x2D4C JUMPI PUSH1 0x0 PUSH2 0x2D21 DUP3 PUSH2 0x31FD JUMP JUMPDEST DUP4 ADD SWAP1 POP PUSH1 0x0 PUSH2 0x2D31 DUP10 DUP4 PUSH2 0x3302 JUMP JUMPDEST POP SWAP1 POP PUSH2 0x2D40 DUP6 DUP3 PUSH1 0x0 PUSH2 0x27DB JUMP JUMPDEST SWAP5 POP POP POP PUSH1 0x1 ADD PUSH2 0x2D0F JUMP JUMPDEST POP DUP2 SWAP3 POP POP POP PUSH2 0xEBA JUMP JUMPDEST PUSH1 0x0 DUP2 PUSH2 0x2D63 JUMPI PUSH1 0x0 DUP1 REVERT JUMPDEST PUSH1 0x1 PUSH1 0x80 SHL DUP3 LT PUSH2 0x2D76 JUMPI PUSH1 0x80 SWAP2 DUP3 SHR SWAP2 ADD JUMPDEST PUSH1 0x1 PUSH1 0x40 SHL DUP3 LT PUSH2 0x2D89 JUMPI PUSH1 0x40 SWAP2 DUP3 SHR SWAP2 ADD JUMPDEST PUSH5 0x100000000 DUP3 LT PUSH2 0x2D9D JUMPI PUSH1 0x20 SWAP2 DUP3 SHR SWAP2 ADD JUMPDEST PUSH3 0x10000 DUP3 LT PUSH2 0x2DAF JUMPI PUSH1 0x10 SWAP2 DUP3 SHR SWAP2 ADD JUMPDEST PUSH2 0x100 DUP3 LT PUSH2 0x2DC0 JUMPI PUSH1 0x8 SWAP2 DUP3 SHR SWAP2 ADD JUMPDEST PUSH1 0x10 DUP3 LT PUSH2 0x2DD0 JUMPI PUSH1 0x4 SWAP2 DUP3 SHR SWAP2 ADD JUMPDEST PUSH1 0x4 DUP3 LT PUSH2 0x2DE0 JUMPI PUSH1 0x2 SWAP2 DUP3 SHR SWAP2 ADD JUMPDEST PUSH1 0x2 DUP3 LT PUSH2 0x421 JUMPI PUSH1 0x1 ADD SWAP2 SWAP1 POP JUMP JUMPDEST PUSH1 0x0 DUP1 PUSH1 0x0 PUSH2 0x2E04 DUP7 PUSH1 0x20 ADD MLOAD DUP7 DUP7 PUSH2 0x340D JUMP JUMPDEST SWAP2 POP SWAP2 POP PUSH1 0x0 PUSH2 0x2E13 DUP8 PUSH2 0x32A1 JUMP JUMPDEST SWAP1 POP DUP2 PUSH2 0x2E33 JUMPI DUP7 MLOAD PUSH2 0x2E2C SWAP1 PUSH2 0xFFFF AND DUP8 DUP4 DUP9 PUSH2 0x3494 JUMP JUMPDEST SWAP4 POP PUSH2 0x2ECF JUMP JUMPDEST PUSH1 0x0 PUSH2 0x2E3E DUP7 PUSH2 0x2AF9 JUMP JUMPDEST SWAP1 POP PUSH1 0x0 PUSH2 0x2E55 PUSH2 0x2E4E DUP7 PUSH2 0x31FD JUMP JUMPDEST DUP4 SWAP1 PUSH2 0x1F2F JUMP JUMPDEST SWAP1 POP PUSH1 0x0 PUSH2 0x2E6D DUP11 PUSH1 0x0 ADD MLOAD PUSH2 0xFFFF AND DUP4 DUP7 DUP12 PUSH2 0x3494 JUMP JUMPDEST SWAP1 POP PUSH1 0x0 DUP1 DUP8 PUSH1 0x1 EQ ISZERO PUSH2 0x2E8B JUMPI POP POP PUSH1 0x40 DUP1 DUP12 ADD MLOAD ADD MLOAD DUP9 PUSH2 0x2EBA JUMP JUMPDEST PUSH2 0x2EA1 PUSH2 0x2E9A PUSH1 0x1 DUP11 SUB PUSH2 0x31FD JUMP JUMPDEST DUP7 SWAP1 PUSH2 0x1F2F JUMP JUMPDEST SWAP1 POP PUSH2 0x2EB7 DUP13 PUSH1 0x0 ADD MLOAD PUSH2 0xFFFF AND DUP3 DUP9 DUP14 PUSH2 0x3494 JUMP JUMPDEST SWAP2 POP JUMPDEST PUSH2 0x2EC7 DUP2 DUP6 DUP5 DUP7 DUP16 PUSH2 0x3533 JUMP JUMPDEST SWAP9 POP POP POP POP POP POP JUMPDEST POP POP POP SWAP4 SWAP3 POP POP POP JUMP JUMPDEST PUSH1 0x0 PUSH2 0xC7A PUSH2 0x1F6D DUP5 PUSH4 0x3B9ACA00 PUSH2 0x16AA JUMP JUMPDEST PUSH2 0x2EF4 PUSH2 0x473B JUMP JUMPDEST PUSH1 0x0 PUSH2 0x2EFE PUSH2 0x3591 JUMP JUMPDEST PUSH2 0xFFFF DUP5 AND PUSH1 0x0 SWAP1 DUP2 MSTORE PUSH1 0x20 SWAP2 SWAP1 SWAP2 MSTORE PUSH1 0x40 DUP2 KECCAK256 SLOAD SWAP2 POP PUSH2 0xC7A SWAP1 DUP3 PUSH2 0x359E JUMP JUMPDEST PUSH1 0x0 DUP1 DUP4 PUSH1 0x80 ADD MLOAD GT PUSH2 0x2F31 JUMPI PUSH1 0x0 DUP1 REVERT JUMPDEST PUSH4 0x3B9ACA00 DUP3 GT ISZERO PUSH2 0x2F42 JUMPI PUSH1 0x0 DUP1 REVERT JUMPDEST DUP3 MLOAD DUP3 GT PUSH2 0x2F61 JUMPI DUP3 MLOAD PUSH1 0x40 DUP5 ADD MLOAD PUSH2 0x18B6 SWAP2 SWAP1 PUSH2 0x1F18 SWAP1 DUP6 SWAP1 PUSH2 0x16AA JUMP JUMPDEST DUP3 PUSH1 0x20 ADD MLOAD DUP3 GT PUSH2 0x2F99 JUMPI PUSH1 0x40 DUP4 ADD MLOAD DUP4 MLOAD PUSH1 0x20 DUP6 ADD MLOAD PUSH1 0x60 DUP7 ADD MLOAD PUSH2 0x18B6 SWAP4 SWAP3 PUSH2 0x2B5D SWAP3 DUP2 SWAP1 SUB SWAP2 PUSH2 0x1F18 SWAP2 DUP9 SUB SWAP1 DUP6 SWAP1 SUB PUSH2 0x16AA JUMP JUMPDEST PUSH2 0xC7A DUP4 PUSH1 0x60 ADD MLOAD PUSH2 0x2B5D DUP6 PUSH1 0x20 ADD MLOAD PUSH4 0x3B9ACA00 SUB PUSH2 0x1F18 DUP8 PUSH1 0x60 ADD MLOAD DUP9 PUSH1 0x80 ADD MLOAD SUB DUP9 PUSH1 0x20 ADD MLOAD DUP9 SUB PUSH2 0x16AA SWAP1 SWAP2 SWAP1 PUSH4 0xFFFFFFFF AND JUMP JUMPDEST PUSH1 0x0 DUP1 PUSH2 0x2FF1 PUSH1 0x64 PUSH2 0x1F18 DUP8 PUSH1 0xE0 ADD MLOAD DUP8 PUSH2 0x16AA SWAP1 SWAP2 SWAP1 PUSH4 0xFFFFFFFF AND JUMP JUMPDEST SWAP1 POP DUP5 PUSH1 0xA0 ADD MLOAD DUP2 LT ISZERO PUSH2 0x3006 JUMPI POP PUSH1 0xA0 DUP5 ADD MLOAD JUMPDEST DUP5 PUSH1 0xC0 ADD MLOAD DUP2 GT ISZERO PUSH2 0x3019 JUMPI POP PUSH1 0xC0 DUP5 ADD MLOAD JUMPDEST DUP3 ISZERO PUSH2 0x3030 JUMPI PUSH2 0x3029 DUP5 DUP3 PUSH2 0x1F2F JUMP JUMPDEST SWAP2 POP PUSH2 0xE02 JUMP JUMPDEST DUP4 DUP2 GT PUSH2 0x303F JUMPI DUP1 DUP5 SUB PUSH2 0xEBA JUMP JUMPDEST POP PUSH1 0x0 SWAP5 SWAP4 POP POP POP POP JUMP JUMPDEST PUSH1 0x0 PUSH2 0xC7A PUSH2 0x3059 DUP5 DUP5 PUSH2 0x16AA JUMP JUMPDEST PUSH4 0x3B9ACA00 PUSH2 0x2904 JUMP JUMPDEST PUSH1 0x0 PUSH2 0x3070 DUP5 DUP5 DUP5 PUSH2 0x2DF0 JUMP JUMPDEST SWAP1 POP PUSH1 0x0 PUSH2 0x307D DUP6 PUSH2 0x36BD JUMP JUMPDEST SWAP1 POP DUP1 DUP3 GT PUSH2 0x3090 JUMPI PUSH1 0x0 SWAP2 POP POP PUSH2 0xC7A JUMP JUMPDEST DUP1 DUP3 SUB SWAP2 POP PUSH1 0x0 PUSH2 0x30A0 DUP7 PUSH2 0x36CA JUMP JUMPDEST SWAP1 POP DUP3 DUP2 LT ISZERO PUSH2 0x2997 JUMPI SWAP6 SWAP5 POP POP POP POP POP JUMP JUMPDEST PUSH1 0x0 DUP1 PUSH2 0x30D0 PUSH2 0x30CB PUSH4 0x1DA9C00 PUSH2 0x1F18 DUP7 DUP9 PUSH2 0x16AA JUMP JUMPDEST PUSH2 0x36D7 JUMP JUMPDEST SWAP1 POP PUSH2 0x30E2 DUP2 PUSH3 0x1DCD65 PUSH1 0x49 SHL PUSH2 0x36F5 JUMP JUMPDEST SWAP1 POP PUSH2 0x30F5 PUSH2 0x30F0 DUP3 PUSH2 0x3748 JUMP JUMPDEST PUSH2 0x376A JUMP JUMPDEST SWAP1 POP PUSH2 0x3107 DUP2 PUSH3 0x1DCD65 PUSH1 0x49 SHL PUSH2 0x37BF JUMP JUMPDEST SWAP1 POP PUSH1 0x0 PUSH2 0x3114 DUP3 PUSH2 0x37F5 JUMP JUMPDEST PUSH1 0x7 SIGNEXTEND SWAP6 SWAP5 POP POP POP POP POP JUMP JUMPDEST PUSH1 0x0 PUSH2 0x312D DUP5 DUP5 DUP5 PUSH2 0x2DF0 JUMP JUMPDEST SWAP1 POP PUSH2 0x3142 PUSH2 0x313B DUP6 PUSH2 0x37FE JUMP JUMPDEST DUP3 SWAP1 PUSH2 0x1F2F JUMP JUMPDEST SWAP1 POP PUSH1 0x0 PUSH2 0x314F DUP6 PUSH2 0x380B JUMP JUMPDEST SWAP1 POP DUP1 DUP3 LT ISZERO PUSH2 0xE02 JUMPI SWAP5 SWAP4 POP POP POP POP JUMP JUMPDEST PUSH1 0x60 ADD MLOAD PUSH3 0x7A120 PUSH1 0x10 SWAP2 SWAP1 SWAP2 SHR PUSH1 0xFF AND MUL PUSH4 0x3B9ACA00 SUB SWAP1 JUMP JUMPDEST PUSH1 0x0 DUP2 SLT ISZERO PUSH2 0x318A JUMPI PUSH1 0x0 DUP1 REVERT JUMPDEST PUSH1 0x0 PUSH2 0x3194 PUSH2 0x1874 JUMP JUMPDEST PUSH1 0x1 PUSH1 0x1 PUSH1 0xA0 SHL SUB DUP6 AND PUSH1 0x0 SWAP1 DUP2 MSTORE PUSH1 0x20 DUP3 DUP2 MSTORE PUSH1 0x40 DUP1 DUP4 KECCAK256 PUSH2 0xFFFF DUP9 AND DUP5 MSTORE SWAP1 SWAP2 MSTORE SWAP1 KECCAK256 SWAP1 SWAP2 POP PUSH2 0x31C5 DUP4 PUSH2 0x3818 JUMP JUMPDEST DUP2 SLOAD PUSH1 0xA SWAP2 SWAP1 SWAP2 SIGNEXTEND PUSH1 0x1 PUSH1 0x1 PUSH1 0x58 SHL SUB AND PUSH1 0x1 PUSH1 0xA8 SHL MUL PUSH1 0x1 PUSH1 0x1 PUSH1 0xA8 SHL SUB SWAP1 SWAP2 AND OR SWAP1 SSTORE POP POP POP POP JUMP JUMPDEST PUSH1 0x0 DUP1 PUSH2 0xC34 PUSH1 0x21 PUSH2 0x10B5 JUMP JUMPDEST PUSH1 0x0 DUP2 PUSH1 0x1 EQ ISZERO PUSH2 0x3212 JUMPI POP PUSH3 0x76A700 PUSH2 0x421 JUMP JUMPDEST DUP2 PUSH1 0x2 EQ ISZERO PUSH2 0x3225 JUMPI POP PUSH3 0xED4E00 PUSH2 0x421 JUMP JUMPDEST DUP2 PUSH1 0x3 EQ ISZERO PUSH2 0x3239 JUMPI POP PUSH4 0x1DA9C00 PUSH2 0x421 JUMP JUMPDEST DUP2 PUSH1 0x4 EQ ISZERO PUSH2 0x324D JUMPI POP PUSH4 0x3B53800 PUSH2 0x421 JUMP JUMPDEST DUP2 PUSH1 0x5 EQ ISZERO PUSH2 0x3261 JUMPI POP PUSH4 0x9450C00 PUSH2 0x421 JUMP JUMPDEST DUP2 PUSH1 0x6 EQ ISZERO PUSH2 0x3275 JUMPI POP PUSH4 0x128A1800 PUSH2 0x421 JUMP JUMPDEST DUP2 PUSH1 0x7 EQ ISZERO PUSH2 0x3289 JUMPI POP PUSH4 0x25143000 PUSH2 0x421 JUMP JUMPDEST PUSH1 0x40 MLOAD PUSH3 0x461BCD PUSH1 0xE5 SHL DUP2 MSTORE PUSH1 0x4 ADD PUSH2 0x1FF SWAP1 PUSH2 0x4BE1 JUMP JUMPDEST PUSH1 0x60 ADD MLOAD PUSH2 0x12C PUSH1 0x8 SWAP2 SWAP1 SWAP2 SHR PUSH1 0xFF AND MUL SWAP1 JUMP JUMPDEST PUSH1 0x0 PUSH3 0x76A700 PUSH2 0x32C4 DUP6 PUSH2 0x2AF9 JUMP JUMPDEST ADD SWAP1 POP PUSH2 0x32D6 DUP8 DUP8 DUP8 DUP8 DUP8 DUP8 DUP8 PUSH2 0x384A JUMP JUMPDEST POP POP POP POP POP POP POP JUMP JUMPDEST PUSH1 0x0 PUSH1 0x2 DUP3 LT DUP1 ISZERO SWAP1 PUSH2 0xC34 JUMPI POP POP PUSH1 0x8 LT ISZERO SWAP1 JUMP JUMPDEST PUSH1 0x0 DUP1 PUSH2 0xC34 PUSH1 0xC PUSH2 0x10B5 JUMP JUMPDEST PUSH1 0x0 DUP1 PUSH1 0x0 PUSH2 0x3310 DUP6 PUSH2 0xC3A JUMP JUMPDEST SWAP1 POP PUSH3 0x15180 DUP5 MOD ISZERO PUSH2 0x332A JUMPI PUSH1 0x0 DUP1 SWAP3 POP SWAP3 POP POP PUSH2 0x3406 JUMP JUMPDEST DUP4 DUP2 LT PUSH2 0x333E JUMPI PUSH1 0x0 DUP1 SWAP3 POP SWAP3 POP POP PUSH2 0x3406 JUMP JUMPDEST PUSH3 0x15180 DUP2 DUP6 SUB DIV PUSH1 0x5A DUP2 GT PUSH2 0x335B JUMPI SWAP3 POP PUSH1 0x1 SWAP2 POP PUSH2 0x3406 SWAP1 POP JUMP JUMPDEST PUSH2 0x168 DUP2 GT PUSH2 0x339A JUMPI PUSH1 0x0 PUSH3 0x15180 PUSH3 0x7E900 DUP5 MOD DIV DUP3 ADD PUSH1 0x59 NOT ADD SWAP1 POP PUSH1 0x6 DUP2 DIV PUSH1 0x5A ADD PUSH1 0x6 DUP3 DUP2 PUSH2 0x338A JUMPI INVALID JUMPDEST MOD PUSH1 0x0 EQ SWAP5 POP SWAP5 POP POP POP POP PUSH2 0x3406 JUMP JUMPDEST PUSH2 0x870 DUP2 GT PUSH2 0x33CA JUMPI PUSH1 0x0 PUSH3 0x15180 PUSH3 0x278D00 DUP5 MOD DIV DUP3 ADD PUSH2 0x167 NOT ADD SWAP1 POP PUSH1 0x1E DUP2 DIV PUSH1 0x87 ADD PUSH1 0x1E DUP3 DUP2 PUSH2 0x338A JUMPI INVALID JUMPDEST PUSH2 0x1DE2 DUP2 GT PUSH2 0x33FA JUMPI PUSH1 0x0 PUSH3 0x15180 PUSH3 0x76A700 DUP5 MOD DIV DUP3 ADD PUSH2 0x86F NOT ADD SWAP1 POP PUSH1 0x5A DUP2 DIV PUSH1 0xC3 ADD PUSH1 0x5A DUP3 DUP2 PUSH2 0x338A JUMPI INVALID JUMPDEST PUSH2 0x100 PUSH1 0x0 SWAP4 POP SWAP4 POP POP POP JUMPDEST SWAP3 POP SWAP3 SWAP1 POP JUMP JUMPDEST PUSH1 0x0 DUP1 PUSH1 0x0 DUP6 GT PUSH2 0x341D JUMPI PUSH1 0x0 DUP1 REVERT JUMPDEST PUSH1 0x7 DUP6 GT ISZERO PUSH2 0x342B JUMPI PUSH1 0x0 DUP1 REVERT JUMPDEST PUSH1 0x0 PUSH2 0x3436 DUP5 PUSH2 0x2AF9 JUMP JUMPDEST SWAP1 POP PUSH1 0x1 JUMPDEST DUP7 DUP2 GT PUSH2 0x348E JUMPI PUSH1 0x0 PUSH2 0x3457 PUSH2 0x3450 DUP4 PUSH2 0x31FD JUMP JUMPDEST DUP5 SWAP1 PUSH2 0x1F2F JUMP JUMPDEST SWAP1 POP DUP7 DUP2 EQ ISZERO PUSH2 0x346F JUMPI POP SWAP3 POP PUSH1 0x0 SWAP2 POP PUSH2 0x924 SWAP1 POP JUMP JUMPDEST DUP7 DUP2 GT ISZERO PUSH2 0x3485 JUMPI POP SWAP3 POP PUSH1 0x1 SWAP2 POP PUSH2 0x924 SWAP1 POP JUMP JUMPDEST POP PUSH1 0x1 ADD PUSH2 0x343B JUMP JUMPDEST POP PUSH1 0x0 DUP1 REVERT JUMPDEST PUSH1 0x0 DUP1 PUSH2 0x349F PUSH2 0x3881 JUMP JUMPDEST SWAP1 POP PUSH1 0x0 PUSH3 0x76A700 PUSH2 0x34B0 DUP6 PUSH2 0x2AF9 JUMP JUMPDEST PUSH1 0x0 DUP10 DUP2 MSTORE PUSH1 0x20 DUP6 DUP2 MSTORE PUSH1 0x40 DUP1 DUP4 KECCAK256 DUP12 DUP5 MSTORE DUP3 MSTORE DUP1 DUP4 KECCAK256 SWAP5 SWAP1 SWAP4 ADD DUP1 DUP4 MSTORE SWAP4 SWAP1 MSTORE KECCAK256 DUP1 SLOAD SWAP2 SWAP3 POP SWAP1 PUSH4 0xFFFFFFFF PUSH1 0x1 PUSH1 0xA0 SHL DUP3 DIV DUP2 AND SWAP2 PUSH1 0x1 PUSH1 0xC0 SHL DUP2 DIV DUP3 AND SWAP2 PUSH1 0x1 PUSH1 0xE0 SHL SWAP1 SWAP2 DIV AND DUP2 PUSH2 0x3517 JUMPI PUSH1 0x40 MLOAD PUSH3 0x461BCD PUSH1 0xE5 SHL DUP2 MSTORE PUSH1 0x4 ADD PUSH2 0x1FF SWAP1 PUSH2 0x4BB1 JUMP JUMPDEST PUSH2 0x3524 DUP2 DUP5 DUP5 DUP13 DUP13 PUSH2 0x388E JUMP JUMPDEST SWAP12 SWAP11 POP POP POP POP POP POP POP POP POP POP POP JUMP JUMPDEST PUSH1 0x0 DUP2 DUP7 LT PUSH2 0x3541 JUMPI PUSH1 0x0 DUP1 REVERT JUMPDEST DUP5 DUP3 LT PUSH2 0x354D JUMPI PUSH1 0x0 DUP1 REVERT JUMPDEST DUP4 DUP4 LT PUSH2 0x3573 JUMPI PUSH2 0x356C DUP5 PUSH2 0x2B5D DUP9 DUP9 SUB PUSH2 0x1F18 DUP4 DUP9 SUB DUP12 DUP9 SUB PUSH2 0x16AA JUMP JUMPDEST SWAP1 POP PUSH2 0xEBA JUMP JUMPDEST PUSH2 0x356C PUSH2 0x358A DUP8 DUP8 SUB PUSH2 0x1F18 DUP7 DUP9 SUB DUP11 DUP8 SUB PUSH2 0x16AA JUMP JUMPDEST DUP6 SWAP1 PUSH2 0x1F41 JUMP JUMPDEST PUSH1 0x0 DUP1 PUSH2 0xC34 PUSH1 0x1B PUSH2 0x10B5 JUMP JUMPDEST PUSH2 0x35A6 PUSH2 0x473B JUMP JUMPDEST PUSH1 0x64 PUSH4 0x3B9ACA00 DUP4 PUSH1 0xFF DUP7 AND PUSH1 0x20 DUP2 LT PUSH2 0x35BC JUMPI INVALID JUMPDEST BYTE MUL DUP2 PUSH2 0x35C5 JUMPI INVALID JUMPDEST DIV DUP2 MSTORE PUSH1 0x64 PUSH4 0x3B9ACA00 DUP4 PUSH1 0xFF DUP7 AND PUSH1 0x1 ADD PUSH1 0x20 DUP2 LT PUSH2 0x35E1 JUMPI INVALID JUMPDEST BYTE MUL DUP2 PUSH2 0x35EA JUMPI INVALID JUMPDEST DIV DUP2 PUSH1 0x20 ADD DUP2 DUP2 MSTORE POP POP PUSH2 0x360F DUP3 PUSH1 0x2 DUP6 PUSH1 0xFF AND ADD PUSH1 0x20 DUP2 LT PUSH2 0x3609 JUMPI INVALID JUMPDEST BYTE PUSH2 0x3916 JUMP JUMPDEST PUSH1 0x80 DUP3 ADD DUP2 SWAP1 MSTORE PUSH2 0x100 SWAP1 DUP4 PUSH1 0xFF DUP7 AND PUSH1 0x3 ADD PUSH1 0x20 DUP2 LT PUSH2 0x362C JUMPI INVALID JUMPDEST BYTE MUL DUP2 PUSH2 0x3635 JUMPI INVALID JUMPDEST DIV PUSH1 0x40 DUP3 ADD MSTORE PUSH1 0x80 DUP2 ADD MLOAD PUSH2 0x100 SWAP1 DUP4 PUSH1 0xFF DUP7 AND PUSH1 0x4 ADD PUSH1 0x20 DUP2 LT PUSH2 0x3656 JUMPI INVALID JUMPDEST BYTE MUL DUP2 PUSH2 0x365F JUMPI INVALID JUMPDEST DIV PUSH1 0x60 DUP3 ADD MSTORE PUSH3 0x7A120 DUP3 PUSH1 0xFF DUP6 AND PUSH1 0x5 ADD PUSH1 0x20 DUP2 LT PUSH2 0x367B JUMPI INVALID JUMPDEST BYTE MUL PUSH1 0xA0 DUP3 ADD MSTORE PUSH3 0x2625A0 DUP3 PUSH1 0xFF DUP6 AND PUSH1 0x6 ADD PUSH1 0x20 DUP2 LT PUSH2 0x3698 JUMPI INVALID JUMPDEST BYTE MUL PUSH1 0xC0 DUP3 ADD MSTORE DUP2 PUSH1 0xFF DUP5 AND PUSH1 0x7 ADD PUSH1 0x20 DUP2 LT PUSH2 0x36B1 JUMPI INVALID JUMPDEST BYTE PUSH1 0xE0 DUP3 ADD MSTORE SWAP3 SWAP2 POP POP JUMP JUMPDEST PUSH1 0x0 PUSH2 0xC34 DUP3 PUSH1 0x20 PUSH2 0x394A JUMP JUMPDEST PUSH1 0x0 PUSH2 0xC34 DUP3 PUSH1 0x48 PUSH2 0x394A JUMP JUMPDEST PUSH1 0x0 PUSH8 0x7FFFFFFFFFFFFFFF DUP3 GT ISZERO PUSH2 0x36EE JUMPI PUSH1 0x0 DUP1 REVERT JUMPDEST POP PUSH1 0x40 SHL SWAP1 JUMP JUMPDEST PUSH1 0x0 DUP2 PUSH1 0xF SIGNEXTEND PUSH1 0x0 EQ ISZERO PUSH2 0x3708 JUMPI PUSH1 0x0 DUP1 REVERT JUMPDEST PUSH1 0x0 DUP3 PUSH1 0xF SIGNEXTEND PUSH1 0x40 DUP6 PUSH1 0xF SIGNEXTEND SWAP1 SHL DUP2 PUSH2 0x371D JUMPI INVALID JUMPDEST SDIV SWAP1 POP PUSH1 0x1 PUSH1 0x1 PUSH1 0x7F SHL SUB NOT DUP2 SLT DUP1 ISZERO SWAP1 PUSH2 0x373F JUMPI POP PUSH1 0x1 PUSH1 0x1 PUSH1 0x7F SHL SUB DUP2 SGT ISZERO JUMPDEST PUSH2 0xC7A JUMPI PUSH1 0x0 DUP1 REVERT JUMPDEST PUSH1 0x0 PUSH1 0xF DUP3 SWAP1 SIGNEXTEND PUSH1 0x1 PUSH1 0x1 PUSH1 0x7F SHL SUB NOT EQ ISZERO PUSH2 0x3763 JUMPI PUSH1 0x0 DUP1 REVERT JUMPDEST POP PUSH1 0x0 SUB SWAP1 JUMP JUMPDEST PUSH1 0x0 PUSH1 0x1 PUSH1 0x46 SHL DUP3 PUSH1 0xF SIGNEXTEND SLT PUSH2 0x377F JUMPI PUSH1 0x0 DUP1 REVERT JUMPDEST PUSH9 0x3FFFFFFFFFFFFFFFFF NOT DUP3 PUSH1 0xF SIGNEXTEND SLT ISZERO PUSH2 0x379C JUMPI POP PUSH1 0x0 PUSH2 0x421 JUMP JUMPDEST PUSH2 0xC34 PUSH1 0x80 DUP4 PUSH1 0xF SIGNEXTEND PUSH17 0x171547652B82FE1777D0FFDA0D23A7D12 MUL SWAP1 SAR PUSH2 0x395D JUMP JUMPDEST PUSH1 0x0 PUSH1 0xF DUP4 DUP2 SIGNEXTEND SWAP1 DUP4 SWAP1 SIGNEXTEND MUL PUSH1 0x40 SAR PUSH1 0x1 PUSH1 0x1 PUSH1 0x7F SHL SUB NOT DUP2 SLT DUP1 ISZERO SWAP1 PUSH2 0x373F JUMPI POP PUSH1 0x1 PUSH1 0x1 PUSH1 0x7F SHL SUB DUP2 SGT ISZERO PUSH2 0xC7A JUMPI PUSH1 0x0 DUP1 REVERT JUMPDEST PUSH1 0xF SIGNEXTEND PUSH1 0x40 SAR SWAP1 JUMP JUMPDEST PUSH1 0x0 PUSH2 0xC34 DUP3 PUSH1 0x28 PUSH2 0x394A JUMP JUMPDEST PUSH1 0x0 PUSH2 0xC34 DUP3 PUSH1 0x30 PUSH2 0x394A JUMP JUMPDEST PUSH1 0x0 PUSH11 0x7FFFFFFFFFFFFFFFFFFFFF NOT DUP3 SLT DUP1 ISZERO SWAP1 PUSH2 0x3841 JUMPI POP PUSH11 0x7FFFFFFFFFFFFFFFFFFFFF DUP3 SGT ISZERO JUMPDEST PUSH2 0x16E7 JUMPI PUSH1 0x0 DUP1 REVERT JUMPDEST PUSH2 0x3857 DUP8 DUP8 DUP8 DUP7 DUP6 PUSH2 0x440D JUMP JUMPDEST PUSH2 0x3870 DUP8 PUSH1 0xE0 ADD MLOAD DUP9 PUSH1 0xA0 ADD MLOAD DUP10 PUSH1 0xC0 ADD MLOAD DUP6 DUP9 PUSH2 0x388E JUMP JUMPDEST PUSH1 0xC0 SWAP1 SWAP8 ADD SWAP7 SWAP1 SWAP7 MSTORE POP POP POP POP POP POP JUMP JUMPDEST PUSH1 0x0 DUP1 PUSH2 0xC34 PUSH1 0xA PUSH2 0x10B5 JUMP JUMPDEST PUSH1 0x0 DUP1 DUP4 GT PUSH2 0x389C JUMPI PUSH1 0x0 DUP1 REVERT JUMPDEST DUP2 DUP7 GT ISZERO PUSH2 0x38AB JUMPI POP DUP4 PUSH2 0xEBA JUMP JUMPDEST PUSH1 0x0 PUSH2 0x38B7 DUP4 DUP9 PUSH2 0x1F41 JUMP JUMPDEST SWAP1 POP DUP4 DUP2 GT ISZERO PUSH2 0x38CA JUMPI DUP6 SWAP2 POP POP PUSH2 0xEBA JUMP JUMPDEST PUSH1 0x0 PUSH2 0x38D6 DUP3 DUP7 PUSH2 0x2ED9 JUMP JUMPDEST SWAP1 POP PUSH1 0x0 PUSH2 0x38E8 PUSH4 0x3B9ACA00 DUP4 PUSH2 0x1F41 JUMP JUMPDEST SWAP1 POP PUSH2 0x3909 PUSH4 0x3B9ACA00 PUSH2 0x1F18 PUSH2 0x38FF DUP11 DUP6 PUSH2 0x16AA JUMP JUMPDEST PUSH2 0x2B5D DUP13 DUP8 PUSH2 0x16AA JUMP JUMPDEST SWAP10 SWAP9 POP POP POP POP POP POP POP POP POP JUMP JUMPDEST PUSH1 0x0 DUP2 PUSH1 0xFF AND PUSH1 0x96 LT PUSH2 0x3931 JUMPI PUSH1 0xFF DUP3 AND PUSH3 0x2625A0 MUL PUSH2 0xC34 JUMP JUMPDEST POP PUSH1 0x95 NOT PUSH1 0xFF SWAP2 SWAP1 SWAP2 AND ADD PUSH3 0xE4E1C0 MUL PUSH4 0x165A0BC0 ADD SWAP1 JUMP JUMPDEST PUSH1 0x60 SWAP1 SWAP2 ADD MLOAD PUSH1 0xFF SWAP2 SHR AND PUSH3 0x2625A0 MUL SWAP1 JUMP JUMPDEST PUSH1 0x0 PUSH1 0x1 PUSH1 0x46 SHL DUP3 PUSH1 0xF SIGNEXTEND SLT PUSH2 0x3972 JUMPI PUSH1 0x0 DUP1 REVERT JUMPDEST PUSH9 0x3FFFFFFFFFFFFFFFFF NOT DUP3 PUSH1 0xF SIGNEXTEND SLT ISZERO PUSH2 0x398F JUMPI POP PUSH1 0x0 PUSH2 0x421 JUMP JUMPDEST PUSH1 0x1 PUSH1 0x7F SHL PUSH1 0x0 PUSH8 0x8000000000000000 DUP5 AND PUSH1 0xF SIGNEXTEND SGT ISZERO PUSH2 0x39C1 JUMPI PUSH17 0x16A09E667F3BCC908B2FB1366EA957D3E MUL PUSH1 0x80 SHR JUMPDEST PUSH1 0x0 DUP4 PUSH8 0x4000000000000000 AND PUSH1 0xF SIGNEXTEND SGT ISZERO PUSH2 0x39EE JUMPI PUSH17 0x1306FE0A31B7152DE8D5A46305C85EDEC MUL PUSH1 0x80 SHR JUMPDEST PUSH1 0x0 DUP4 PUSH8 0x2000000000000000 AND PUSH1 0xF SIGNEXTEND SGT ISZERO PUSH2 0x3A1B JUMPI PUSH17 0x1172B83C7D517ADCDF7C8C50EB14A791F MUL PUSH1 0x80 SHR JUMPDEST PUSH1 0x0 DUP4 PUSH8 0x1000000000000000 AND PUSH1 0xF SIGNEXTEND SGT ISZERO PUSH2 0x3A48 JUMPI PUSH17 0x10B5586CF9890F6298B92B71842A98363 MUL PUSH1 0x80 SHR JUMPDEST PUSH1 0x0 DUP4 PUSH8 0x800000000000000 AND PUSH1 0xF SIGNEXTEND SGT ISZERO PUSH2 0x3A75 JUMPI PUSH17 0x1059B0D31585743AE7C548EB68CA417FD MUL PUSH1 0x80 SHR JUMPDEST PUSH1 0x0 DUP4 PUSH8 0x400000000000000 AND PUSH1 0xF SIGNEXTEND SGT ISZERO PUSH2 0x3AA2 JUMPI PUSH17 0x102C9A3E778060EE6F7CACA4F7A29BDE8 MUL PUSH1 0x80 SHR JUMPDEST PUSH1 0x0 DUP4 PUSH8 0x200000000000000 AND PUSH1 0xF SIGNEXTEND SGT ISZERO PUSH2 0x3ACF JUMPI PUSH17 0x10163DA9FB33356D84A66AE336DCDFA3F MUL PUSH1 0x80 SHR JUMPDEST PUSH1 0x0 DUP4 PUSH1 0x1 PUSH1 0x38 SHL AND PUSH1 0xF SIGNEXTEND SGT ISZERO PUSH2 0x3AF8 JUMPI PUSH17 0x100B1AFA5ABCBED6129AB13EC11DC9543 MUL PUSH1 0x80 SHR JUMPDEST PUSH1 0x0 DUP4 PUSH7 0x80000000000000 AND PUSH1 0xF SIGNEXTEND SGT ISZERO PUSH2 0x3B24 JUMPI PUSH17 0x10058C86DA1C09EA1FF19D294CF2F679B MUL PUSH1 0x80 SHR JUMPDEST PUSH1 0x0 DUP4 PUSH7 0x40000000000000 AND PUSH1 0xF SIGNEXTEND SGT ISZERO PUSH2 0x3B50 JUMPI PUSH17 0x1002C605E2E8CEC506D21BFC89A23A00F MUL PUSH1 0x80 SHR JUMPDEST PUSH1 0x0 DUP4 PUSH7 0x20000000000000 AND PUSH1 0xF SIGNEXTEND SGT ISZERO PUSH2 0x3B7C JUMPI PUSH17 0x100162F3904051FA128BCA9C55C31E5DF MUL PUSH1 0x80 SHR JUMPDEST PUSH1 0x0 DUP4 PUSH7 0x10000000000000 AND PUSH1 0xF SIGNEXTEND SGT ISZERO PUSH2 0x3BA8 JUMPI PUSH17 0x1000B175EFFDC76BA38E31671CA939725 MUL PUSH1 0x80 SHR JUMPDEST PUSH1 0x0 DUP4 PUSH7 0x8000000000000 AND PUSH1 0xF SIGNEXTEND SGT ISZERO PUSH2 0x3BD4 JUMPI PUSH17 0x100058BA01FB9F96D6CACD4B180917C3D MUL PUSH1 0x80 SHR JUMPDEST PUSH1 0x0 DUP4 PUSH7 0x4000000000000 AND PUSH1 0xF SIGNEXTEND SGT ISZERO PUSH2 0x3C00 JUMPI PUSH17 0x10002C5CC37DA9491D0985C348C68E7B3 MUL PUSH1 0x80 SHR JUMPDEST PUSH1 0x0 DUP4 PUSH7 0x2000000000000 AND PUSH1 0xF SIGNEXTEND SGT ISZERO PUSH2 0x3C2C JUMPI PUSH17 0x1000162E525EE054754457D5995292026 MUL PUSH1 0x80 SHR JUMPDEST PUSH1 0x0 DUP4 PUSH1 0x1 PUSH1 0x30 SHL AND PUSH1 0xF SIGNEXTEND SGT ISZERO PUSH2 0x3C55 JUMPI PUSH17 0x10000B17255775C040618BF4A4ADE83FC MUL PUSH1 0x80 SHR JUMPDEST PUSH1 0x0 DUP4 PUSH6 0x800000000000 AND PUSH1 0xF SIGNEXTEND SGT ISZERO PUSH2 0x3C80 JUMPI PUSH17 0x1000058B91B5BC9AE2EED81E9B7D4CFAB MUL PUSH1 0x80 SHR JUMPDEST PUSH1 0x0 DUP4 PUSH6 0x400000000000 AND PUSH1 0xF SIGNEXTEND SGT ISZERO PUSH2 0x3CAB JUMPI PUSH17 0x100002C5C89D5EC6CA4D7C8ACC017B7C9 MUL PUSH1 0x80 SHR JUMPDEST PUSH1 0x0 DUP4 PUSH6 0x200000000000 AND PUSH1 0xF SIGNEXTEND SGT ISZERO PUSH2 0x3CD6 JUMPI PUSH17 0x10000162E43F4F831060E02D839A9D16D MUL PUSH1 0x80 SHR JUMPDEST PUSH1 0x0 DUP4 PUSH6 0x100000000000 AND PUSH1 0xF SIGNEXTEND SGT ISZERO PUSH2 0x3D01 JUMPI PUSH17 0x100000B1721BCFC99D9F890EA06911763 MUL PUSH1 0x80 SHR JUMPDEST PUSH1 0x0 DUP4 PUSH6 0x80000000000 AND PUSH1 0xF SIGNEXTEND SGT ISZERO PUSH2 0x3D2C JUMPI PUSH17 0x10000058B90CF1E6D97F9CA14DBCC1628 MUL PUSH1 0x80 SHR JUMPDEST PUSH1 0x0 DUP4 PUSH6 0x40000000000 AND PUSH1 0xF SIGNEXTEND SGT ISZERO PUSH2 0x3D57 JUMPI PUSH17 0x1000002C5C863B73F016468F6BAC5CA2B MUL PUSH1 0x80 SHR JUMPDEST PUSH1 0x0 DUP4 PUSH6 0x20000000000 AND PUSH1 0xF SIGNEXTEND SGT ISZERO PUSH2 0x3D82 JUMPI PUSH17 0x100000162E430E5A18F6119E3C02282A5 MUL PUSH1 0x80 SHR JUMPDEST PUSH1 0x0 DUP4 PUSH1 0x1 PUSH1 0x28 SHL AND PUSH1 0xF SIGNEXTEND SGT ISZERO PUSH2 0x3DAB JUMPI PUSH17 0x1000000B1721835514B86E6D96EFD1BFE MUL PUSH1 0x80 SHR JUMPDEST PUSH1 0x0 DUP4 PUSH5 0x8000000000 AND PUSH1 0xF SIGNEXTEND SGT ISZERO PUSH2 0x3DD5 JUMPI PUSH17 0x100000058B90C0B48C6BE5DF846C5B2EF MUL PUSH1 0x80 SHR JUMPDEST PUSH1 0x0 DUP4 PUSH5 0x4000000000 AND PUSH1 0xF SIGNEXTEND SGT ISZERO PUSH2 0x3DFF JUMPI PUSH17 0x10000002C5C8601CC6B9E94213C72737A MUL PUSH1 0x80 SHR JUMPDEST PUSH1 0x0 DUP4 PUSH5 0x2000000000 AND PUSH1 0xF SIGNEXTEND SGT ISZERO PUSH2 0x3E29 JUMPI PUSH17 0x1000000162E42FFF037DF38AA2B219F06 MUL PUSH1 0x80 SHR JUMPDEST PUSH1 0x0 DUP4 PUSH5 0x1000000000 AND PUSH1 0xF SIGNEXTEND SGT ISZERO PUSH2 0x3E53 JUMPI PUSH17 0x10000000B17217FBA9C739AA5819F44F9 MUL PUSH1 0x80 SHR JUMPDEST PUSH1 0x0 DUP4 PUSH5 0x800000000 AND PUSH1 0xF SIGNEXTEND SGT ISZERO PUSH2 0x3E7D JUMPI PUSH17 0x1000000058B90BFCDEE5ACD3C1CEDC823 MUL PUSH1 0x80 SHR JUMPDEST PUSH1 0x0 DUP4 PUSH5 0x400000000 AND PUSH1 0xF SIGNEXTEND SGT ISZERO PUSH2 0x3EA7 JUMPI PUSH17 0x100000002C5C85FE31F35A6A30DA1BE50 MUL PUSH1 0x80 SHR JUMPDEST PUSH1 0x0 DUP4 PUSH5 0x200000000 AND PUSH1 0xF SIGNEXTEND SGT ISZERO PUSH2 0x3ED1 JUMPI PUSH17 0x10000000162E42FF0999CE3541B9FFFCF MUL PUSH1 0x80 SHR JUMPDEST PUSH1 0x0 DUP4 PUSH5 0x100000000 AND PUSH1 0xF SIGNEXTEND SGT ISZERO PUSH2 0x3EFB JUMPI PUSH17 0x100000000B17217F80F4EF5AADDA45554 MUL PUSH1 0x80 SHR JUMPDEST PUSH1 0x0 DUP4 PUSH4 0x80000000 AND PUSH1 0xF SIGNEXTEND SGT ISZERO PUSH2 0x3F24 JUMPI PUSH17 0x10000000058B90BFBF8479BD5A81B51AD MUL PUSH1 0x80 SHR JUMPDEST PUSH1 0x0 DUP4 PUSH4 0x40000000 AND PUSH1 0xF SIGNEXTEND SGT ISZERO PUSH2 0x3F4D JUMPI PUSH17 0x1000000002C5C85FDF84BD62AE30A74CC MUL PUSH1 0x80 SHR JUMPDEST PUSH1 0x0 DUP4 PUSH4 0x20000000 AND PUSH1 0xF SIGNEXTEND SGT ISZERO PUSH2 0x3F76 JUMPI PUSH17 0x100000000162E42FEFB2FED257559BDAA MUL PUSH1 0x80 SHR JUMPDEST PUSH1 0x0 DUP4 PUSH4 0x10000000 AND PUSH1 0xF SIGNEXTEND SGT ISZERO PUSH2 0x3F9F JUMPI PUSH17 0x1000000000B17217F7D5A7716BBA4A9AE MUL PUSH1 0x80 SHR JUMPDEST PUSH1 0x0 DUP4 PUSH4 0x8000000 AND PUSH1 0xF SIGNEXTEND SGT ISZERO PUSH2 0x3FC8 JUMPI PUSH17 0x100000000058B90BFBE9DDBAC5E109CCE MUL PUSH1 0x80 SHR JUMPDEST PUSH1 0x0 DUP4 PUSH4 0x4000000 AND PUSH1 0xF SIGNEXTEND SGT ISZERO PUSH2 0x3FF1 JUMPI PUSH17 0x10000000002C5C85FDF4B15DE6F17EB0D MUL PUSH1 0x80 SHR JUMPDEST PUSH1 0x0 DUP4 PUSH4 0x2000000 AND PUSH1 0xF SIGNEXTEND SGT ISZERO PUSH2 0x401A JUMPI PUSH17 0x1000000000162E42FEFA494F1478FDE05 MUL PUSH1 0x80 SHR JUMPDEST PUSH1 0x0 DUP4 PUSH4 0x1000000 AND PUSH1 0xF SIGNEXTEND SGT ISZERO PUSH2 0x4043 JUMPI PUSH17 0x10000000000B17217F7D20CF927C8E94C MUL PUSH1 0x80 SHR JUMPDEST PUSH1 0x0 DUP4 PUSH3 0x800000 AND PUSH1 0xF SIGNEXTEND SGT ISZERO PUSH2 0x406B JUMPI PUSH17 0x1000000000058B90BFBE8F71CB4E4B33D MUL PUSH1 0x80 SHR JUMPDEST PUSH1 0x0 DUP4 PUSH3 0x400000 AND PUSH1 0xF SIGNEXTEND SGT ISZERO PUSH2 0x4093 JUMPI PUSH17 0x100000000002C5C85FDF477B662B26945 MUL PUSH1 0x80 SHR JUMPDEST PUSH1 0x0 DUP4 PUSH3 0x200000 AND PUSH1 0xF SIGNEXTEND SGT ISZERO PUSH2 0x40BB JUMPI PUSH17 0x10000000000162E42FEFA3AE53369388C MUL PUSH1 0x80 SHR JUMPDEST PUSH1 0x0 DUP4 PUSH3 0x100000 AND PUSH1 0xF SIGNEXTEND SGT ISZERO PUSH2 0x40E3 JUMPI PUSH17 0x100000000000B17217F7D1D351A389D40 MUL PUSH1 0x80 SHR JUMPDEST PUSH1 0x0 DUP4 PUSH3 0x80000 AND PUSH1 0xF SIGNEXTEND SGT ISZERO PUSH2 0x410B JUMPI PUSH17 0x10000000000058B90BFBE8E8B2D3D4EDE MUL PUSH1 0x80 SHR JUMPDEST PUSH1 0x0 DUP4 PUSH3 0x40000 AND PUSH1 0xF SIGNEXTEND SGT ISZERO PUSH2 0x4133 JUMPI PUSH17 0x1000000000002C5C85FDF4741BEA6E77E MUL PUSH1 0x80 SHR JUMPDEST PUSH1 0x0 DUP4 PUSH3 0x20000 AND PUSH1 0xF SIGNEXTEND SGT ISZERO PUSH2 0x415B JUMPI PUSH17 0x100000000000162E42FEFA39FE95583C2 MUL PUSH1 0x80 SHR JUMPDEST PUSH1 0x0 DUP4 PUSH3 0x10000 AND PUSH1 0xF SIGNEXTEND SGT ISZERO PUSH2 0x4183 JUMPI PUSH17 0x1000000000000B17217F7D1CFB72B45E1 MUL PUSH1 0x80 SHR JUMPDEST PUSH1 0x0 DUP4 PUSH2 0x8000 AND PUSH1 0xF SIGNEXTEND SGT ISZERO PUSH2 0x41AA JUMPI PUSH17 0x100000000000058B90BFBE8E7CC35C3F0 MUL PUSH1 0x80 SHR JUMPDEST PUSH1 0x0 DUP4 PUSH2 0x4000 AND PUSH1 0xF SIGNEXTEND SGT ISZERO PUSH2 0x41D1 JUMPI PUSH17 0x10000000000002C5C85FDF473E242EA38 MUL PUSH1 0x80 SHR JUMPDEST PUSH1 0x0 DUP4 PUSH2 0x2000 AND PUSH1 0xF SIGNEXTEND SGT ISZERO PUSH2 0x41F8 JUMPI PUSH17 0x1000000000000162E42FEFA39F02B772C MUL PUSH1 0x80 SHR JUMPDEST PUSH1 0x0 DUP4 PUSH2 0x1000 AND PUSH1 0xF SIGNEXTEND SGT ISZERO PUSH2 0x421F JUMPI PUSH17 0x10000000000000B17217F7D1CF7D83C1A MUL PUSH1 0x80 SHR JUMPDEST PUSH1 0x0 DUP4 PUSH2 0x800 AND PUSH1 0xF SIGNEXTEND SGT ISZERO PUSH2 0x4246 JUMPI PUSH17 0x1000000000000058B90BFBE8E7BDCBE2E MUL PUSH1 0x80 SHR JUMPDEST PUSH1 0x0 DUP4 PUSH2 0x400 AND PUSH1 0xF SIGNEXTEND SGT ISZERO PUSH2 0x426D JUMPI PUSH17 0x100000000000002C5C85FDF473DEA871F MUL PUSH1 0x80 SHR JUMPDEST PUSH1 0x0 DUP4 PUSH2 0x200 AND PUSH1 0xF SIGNEXTEND SGT ISZERO PUSH2 0x4294 JUMPI PUSH17 0x10000000000000162E42FEFA39EF44D91 MUL PUSH1 0x80 SHR JUMPDEST PUSH1 0x0 DUP4 PUSH2 0x100 AND PUSH1 0xF SIGNEXTEND SGT ISZERO PUSH2 0x42BB JUMPI PUSH17 0x100000000000000B17217F7D1CF79E949 MUL PUSH1 0x80 SHR JUMPDEST PUSH1 0x0 DUP4 PUSH1 0x80 AND PUSH1 0xF SIGNEXTEND SGT ISZERO PUSH2 0x42E1 JUMPI PUSH17 0x10000000000000058B90BFBE8E7BCE544 MUL PUSH1 0x80 SHR JUMPDEST PUSH1 0x0 DUP4 PUSH1 0x40 AND PUSH1 0xF SIGNEXTEND SGT ISZERO PUSH2 0x4307 JUMPI PUSH17 0x1000000000000002C5C85FDF473DE6ECA MUL PUSH1 0x80 SHR JUMPDEST PUSH1 0x0 DUP4 PUSH1 0x20 AND PUSH1 0xF SIGNEXTEND SGT ISZERO PUSH2 0x432D JUMPI PUSH17 0x100000000000000162E42FEFA39EF366F MUL PUSH1 0x80 SHR JUMPDEST PUSH1 0x0 DUP4 PUSH1 0x10 AND PUSH1 0xF SIGNEXTEND SGT ISZERO PUSH2 0x4353 JUMPI PUSH17 0x1000000000000000B17217F7D1CF79AFA MUL PUSH1 0x80 SHR JUMPDEST PUSH1 0x0 DUP4 PUSH1 0x8 AND PUSH1 0xF SIGNEXTEND SGT ISZERO PUSH2 0x4379 JUMPI PUSH17 0x100000000000000058B90BFBE8E7BCD6D MUL PUSH1 0x80 SHR JUMPDEST PUSH1 0x0 DUP4 PUSH1 0x4 AND PUSH1 0xF SIGNEXTEND SGT ISZERO PUSH2 0x439F JUMPI PUSH17 0x10000000000000002C5C85FDF473DE6B2 MUL PUSH1 0x80 SHR JUMPDEST PUSH1 0x0 DUP4 PUSH1 0x2 AND PUSH1 0xF SIGNEXTEND SGT ISZERO PUSH2 0x43C5 JUMPI PUSH17 0x1000000000000000162E42FEFA39EF358 MUL PUSH1 0x80 SHR JUMPDEST PUSH1 0x0 DUP4 PUSH1 0x1 AND PUSH1 0xF SIGNEXTEND SGT ISZERO PUSH2 0x43EB JUMPI PUSH17 0x10000000000000000B17217F7D1CF79AB MUL PUSH1 0x80 SHR JUMPDEST PUSH1 0xF DUP4 DUP2 SIGNEXTEND PUSH1 0x40 SAR PUSH1 0x3F SUB SWAP1 SIGNEXTEND SHR PUSH1 0x1 PUSH1 0x1 PUSH1 0x7F SHL SUB DUP2 GT ISZERO PUSH2 0xC34 JUMPI PUSH1 0x0 DUP1 REVERT JUMPDEST PUSH1 0x0 PUSH2 0x4417 PUSH2 0x3881 JUMP JUMPDEST PUSH1 0x0 DUP7 DUP2 MSTORE PUSH1 0x20 DUP3 DUP2 MSTORE PUSH1 0x40 DUP1 DUP4 KECCAK256 DUP9 DUP5 MSTORE DUP3 MSTORE DUP1 DUP4 KECCAK256 DUP7 DUP5 MSTORE DUP3 MSTORE SWAP2 DUP3 SWAP1 KECCAK256 DUP1 DUP11 MSTORE SWAP1 DUP10 ADD DUP8 SWAP1 MSTORE DUP1 SLOAD PUSH1 0x1 PUSH1 0x1 PUSH1 0x50 SHL SUB DUP1 DUP3 AND SWAP4 DUP12 ADD SWAP4 SWAP1 SWAP4 MSTORE PUSH1 0x1 PUSH1 0x50 SHL DUP2 DIV SWAP1 SWAP3 AND PUSH1 0x60 DUP11 ADD MSTORE PUSH4 0xFFFFFFFF PUSH1 0x1 PUSH1 0xA0 SHL DUP4 DIV DUP2 AND PUSH1 0xA0 DUP12 ADD MSTORE PUSH1 0x1 PUSH1 0xC0 SHL DUP4 DIV DUP2 AND PUSH1 0xC0 DUP12 ADD MSTORE PUSH1 0x1 PUSH1 0xE0 SHL SWAP1 SWAP3 DIV SWAP1 SWAP2 AND PUSH1 0xE0 DUP10 ADD MSTORE SWAP1 SWAP2 POP DUP1 DUP5 ISZERO PUSH2 0x44B6 JUMPI PUSH1 0x1 DUP3 ADD SLOAD PUSH1 0x1 PUSH1 0x1 PUSH1 0x50 SHL SUB AND PUSH1 0x80 DUP10 ADD MSTORE PUSH2 0x2AC8 JUMP JUMPDEST PUSH1 0x0 PUSH1 0x80 DUP10 ADD MSTORE POP POP POP POP POP POP POP POP JUMP JUMPDEST PUSH1 0x40 DUP1 MLOAD PUSH1 0xC0 DUP2 ADD DUP3 MSTORE PUSH1 0x0 DUP1 DUP3 MSTORE PUSH1 0x20 DUP3 ADD DUP2 SWAP1 MSTORE SWAP2 DUP2 ADD DUP3 SWAP1 MSTORE PUSH1 0x60 DUP2 ADD DUP3 SWAP1 MSTORE PUSH1 0x80 DUP2 ADD DUP3 SWAP1 MSTORE PUSH1 0xA0 DUP2 ADD SWAP2 SWAP1 SWAP2 MSTORE SWAP1 JUMP JUMPDEST PUSH1 0x40 MLOAD DUP1 PUSH2 0x160 ADD PUSH1 0x40 MSTORE DUP1 PUSH1 0x0 PUSH1 0x1 PUSH1 0x1 PUSH1 0xA0 SHL SUB AND DUP2 MSTORE PUSH1 0x20 ADD PUSH1 0x0 DUP2 MSTORE PUSH1 0x20 ADD PUSH1 0x0 DUP2 MSTORE PUSH1 0x20 ADD PUSH1 0x0 DUP2 MSTORE PUSH1 0x20 ADD PUSH1 0x0 DUP2 MSTORE PUSH1 0x20 ADD PUSH1 0x0 PUSH1 0x1 PUSH1 0x1 PUSH1 0xD0 SHL SUB NOT AND DUP2 MSTORE PUSH1 0x20 ADD PUSH2 0x454D PUSH2 0x45F0 JUMP JUMPDEST DUP2 MSTORE PUSH1 0x20 ADD PUSH2 0x455A PUSH2 0x45F0 JUMP JUMPDEST DUP2 MSTORE PUSH1 0x20 ADD PUSH2 0x4567 PUSH2 0x461F JUMP JUMPDEST DUP2 MSTORE PUSH1 0x20 ADD PUSH2 0x4574 PUSH2 0x45D1 JUMP JUMPDEST DUP2 MSTORE PUSH1 0x0 PUSH1 0x20 SWAP1 SWAP2 ADD MSTORE SWAP1 JUMP JUMPDEST PUSH1 0x40 MLOAD DUP1 PUSH1 0xE0 ADD PUSH1 0x40 MSTORE DUP1 PUSH1 0x0 DUP2 MSTORE PUSH1 0x20 ADD PUSH1 0x0 ISZERO ISZERO DUP2 MSTORE PUSH1 0x20 ADD PUSH1 0x0 DUP2 MSTORE PUSH1 0x20 ADD PUSH2 0x45AB PUSH2 0x45D1 JUMP JUMPDEST DUP2 MSTORE PUSH1 0x20 ADD PUSH1 0x60 DUP2 MSTORE PUSH1 0x20 ADD PUSH2 0x45BF PUSH2 0x461F JUMP JUMPDEST DUP2 MSTORE PUSH1 0x20 ADD PUSH2 0x45CC PUSH2 0x4780 JUMP JUMPDEST SWAP1 MSTORE SWAP1 JUMP JUMPDEST PUSH1 0x40 DUP1 MLOAD PUSH1 0x80 DUP2 ADD DUP3 MSTORE PUSH1 0x0 DUP1 DUP3 MSTORE PUSH1 0x20 DUP3 ADD MSTORE SWAP1 DUP2 ADD PUSH2 0x4574 PUSH2 0x461F JUMP JUMPDEST PUSH1 0x40 MLOAD DUP1 PUSH1 0xA0 ADD PUSH1 0x40 MSTORE DUP1 PUSH1 0x0 DUP2 MSTORE PUSH1 0x20 ADD PUSH1 0x0 DUP2 MSTORE PUSH1 0x20 ADD PUSH1 0x0 DUP2 MSTORE PUSH1 0x20 ADD PUSH1 0x0 DUP2 MSTORE PUSH1 0x20 ADD PUSH1 0x0 DUP2 MSTORE POP SWAP1 JUMP JUMPDEST PUSH1 0x40 MLOAD DUP1 PUSH1 0x60 ADD PUSH1 0x40 MSTORE DUP1 PUSH1 0x0 DUP2 MSTORE PUSH1 0x20 ADD PUSH1 0x0 DUP2 MSTORE PUSH1 0x20 ADD PUSH1 0x0 DUP2 MSTORE POP SWAP1 JUMP JUMPDEST PUSH1 0x40 MLOAD DUP1 PUSH2 0x120 ADD PUSH1 0x40 MSTORE DUP1 PUSH1 0x0 DUP2 MSTORE PUSH1 0x20 ADD PUSH1 0x0 DUP2 MSTORE PUSH1 0x20 ADD PUSH1 0x0 DUP2 MSTORE PUSH1 0x20 ADD PUSH1 0x0 DUP2 MSTORE PUSH1 0x20 ADD PUSH1 0x0 DUP2 MSTORE PUSH1 0x20 ADD PUSH1 0x0 DUP2 MSTORE PUSH1 0x20 ADD PUSH1 0x0 DUP2 MSTORE PUSH1 0x20 ADD PUSH1 0x0 DUP2 MSTORE PUSH1 0x20 ADD PUSH1 0x0 DUP2 MSTORE POP SWAP1 JUMP JUMPDEST PUSH1 0x40 MLOAD DUP1 PUSH1 0xC0 ADD PUSH1 0x40 MSTORE DUP1 PUSH1 0x0 PUSH2 0xFFFF AND DUP2 MSTORE PUSH1 0x20 ADD PUSH1 0x0 DUP2 MSTORE PUSH1 0x20 ADD PUSH1 0x0 DUP2 MSTORE PUSH1 0x20 ADD PUSH1 0x0 DUP2 MSTORE PUSH1 0x20 ADD PUSH1 0x0 DUP2 MSTORE PUSH1 0x20 ADD PUSH1 0x0 PUSH1 0x3 DUP2 GT ISZERO PUSH2 0x45CC JUMPI INVALID JUMPDEST PUSH1 0x40 MLOAD DUP1 PUSH1 0x80 ADD PUSH1 0x40 MSTORE DUP1 PUSH1 0x60 DUP2 MSTORE PUSH1 0x20 ADD PUSH1 0x60 DUP2 MSTORE PUSH1 0x20 ADD PUSH1 0x0 DUP2 MSTORE PUSH1 0x20 ADD PUSH1 0x0 DUP2 MSTORE POP SWAP1 JUMP JUMPDEST PUSH1 0x40 MLOAD DUP1 PUSH2 0x100 ADD PUSH1 0x40 MSTORE DUP1 PUSH1 0x0 DUP1 NOT AND DUP2 MSTORE PUSH1 0x20 ADD PUSH1 0x0 DUP2 MSTORE PUSH1 0x20 ADD PUSH1 0x0 DUP2 MSTORE PUSH1 0x20 ADD PUSH1 0x0 DUP2 MSTORE PUSH1 0x20 ADD PUSH1 0x0 DUP2 MSTORE PUSH1 0x20 ADD PUSH1 0x0 DUP2 MSTORE PUSH1 0x20 ADD PUSH1 0x0 DUP2 MSTORE PUSH1 0x20 ADD PUSH1 0x0 DUP2 MSTORE POP SWAP1 JUMP JUMPDEST PUSH1 0x40 MLOAD DUP1 PUSH2 0x100 ADD PUSH1 0x40 MSTORE DUP1 PUSH1 0x0 DUP2 MSTORE PUSH1 0x20 ADD PUSH1 0x0 DUP2 MSTORE PUSH1 0x20 ADD PUSH1 0x0 DUP2 MSTORE PUSH1 0x20 ADD PUSH1 0x0 DUP2 MSTORE PUSH1 0x20 ADD PUSH1 0x0 DUP2 MSTORE PUSH1 0x20 ADD PUSH1 0x0 DUP2 MSTORE PUSH1 0x20 ADD PUSH1 0x0 DUP2 MSTORE PUSH1 0x20 ADD PUSH1 0x0 DUP2 MSTORE POP SWAP1 JUMP JUMPDEST PUSH1 0x40 MLOAD DUP1 PUSH1 0xE0 ADD PUSH1 0x40 MSTORE DUP1 PUSH2 0x4793 PUSH2 0x45D1 JUMP JUMPDEST DUP2 MSTORE PUSH1 0x20 ADD PUSH2 0x47A0 PUSH2 0x46CB JUMP JUMPDEST DUP2 MSTORE PUSH1 0x0 PUSH1 0x20 DUP3 ADD DUP2 SWAP1 MSTORE PUSH1 0x40 DUP3 ADD DUP2 SWAP1 MSTORE PUSH1 0x60 DUP3 ADD DUP2 SWAP1 MSTORE PUSH1 0x80 DUP3 ADD DUP2 SWAP1 MSTORE PUSH1 0xA0 SWAP1 SWAP2 ADD MSTORE SWAP1 JUMP JUMPDEST DUP1 CALLDATALOAD PUSH1 0x1 PUSH1 0x1 PUSH1 0xA0 SHL SUB DUP2 AND DUP2 EQ PUSH2 0x421 JUMPI PUSH1 0x0 DUP1 REVERT JUMPDEST DUP1 MLOAD DUP1 ISZERO ISZERO DUP2 EQ PUSH2 0x421 JUMPI PUSH1 0x0 DUP1 REVERT JUMPDEST DUP1 MLOAD PUSH1 0x1 PUSH1 0x1 PUSH1 0x70 SHL SUB NOT DUP2 AND DUP2 EQ PUSH2 0x421 JUMPI PUSH1 0x0 DUP1 REVERT JUMPDEST DUP1 MLOAD PUSH1 0x1 PUSH1 0x1 PUSH1 0xF8 SHL SUB NOT DUP2 AND DUP2 EQ PUSH2 0x421 JUMPI PUSH1 0x0 DUP1 REVERT JUMPDEST DUP1 MLOAD PUSH2 0xFFFF DUP2 AND DUP2 EQ PUSH2 0x421 JUMPI PUSH1 0x0 DUP1 REVERT JUMPDEST DUP1 MLOAD PUSH1 0x1 PUSH1 0x1 PUSH1 0x50 SHL SUB DUP2 AND DUP2 EQ PUSH2 0x421 JUMPI PUSH1 0x0 DUP1 REVERT JUMPDEST DUP1 MLOAD PUSH1 0xFF DUP2 AND DUP2 EQ PUSH2 0x421 JUMPI PUSH1 0x0 DUP1 REVERT JUMPDEST PUSH1 0x0 PUSH1 0x20 DUP3 DUP5 SUB SLT ISZERO PUSH2 0x486B JUMPI DUP1 DUP2 REVERT JUMPDEST PUSH2 0xC7A DUP3 PUSH2 0x47C9 JUMP JUMPDEST PUSH1 0x0 DUP1 PUSH1 0x0 PUSH1 0x60 DUP5 DUP7 SUB SLT ISZERO PUSH2 0x4888 JUMPI DUP2 DUP3 REVERT JUMPDEST PUSH2 0x4891 DUP5 PUSH2 0x47C9 JUMP JUMPDEST SWAP6 PUSH1 0x20 DUP6 ADD CALLDATALOAD SWAP6 POP PUSH1 0x40 SWAP1 SWAP5 ADD CALLDATALOAD SWAP4 SWAP3 POP POP POP JUMP JUMPDEST PUSH1 0x0 PUSH1 0xC0 DUP3 DUP5 SUB SLT ISZERO PUSH2 0x48B7 JUMPI DUP1 DUP2 REVERT JUMPDEST PUSH1 0x40 MLOAD PUSH1 0xC0 DUP2 ADD DUP2 DUP2 LT PUSH8 0xFFFFFFFFFFFFFFFF DUP3 GT OR ISZERO PUSH2 0x48D4 JUMPI INVALID JUMPDEST PUSH1 0x40 MSTORE DUP3 MLOAD PUSH5 0xFFFFFFFFFF DUP2 AND DUP2 EQ PUSH2 0x48EB JUMPI DUP3 DUP4 REVERT JUMPDEST DUP2 MSTORE PUSH2 0x48F9 PUSH1 0x20 DUP5 ADD PUSH2 0x4808 JUMP JUMPDEST PUSH1 0x20 DUP3 ADD MSTORE PUSH2 0x490A PUSH1 0x40 DUP5 ADD PUSH2 0x4849 JUMP JUMPDEST PUSH1 0x40 DUP3 ADD MSTORE PUSH2 0x491B PUSH1 0x60 DUP5 ADD PUSH2 0x4820 JUMP JUMPDEST PUSH1 0x60 DUP3 ADD MSTORE PUSH2 0x492C PUSH1 0x80 DUP5 ADD PUSH2 0x47F0 JUMP JUMPDEST PUSH1 0x80 DUP3 ADD MSTORE PUSH2 0x493D PUSH1 0xA0 DUP5 ADD PUSH2 0x47E0 JUMP JUMPDEST PUSH1 0xA0 DUP3 ADD MSTORE SWAP4 SWAP3 POP POP POP JUMP JUMPDEST PUSH1 0x0 DUP1 PUSH1 0x40 DUP4 DUP6 SUB SLT ISZERO PUSH2 0x495B JUMPI DUP2 DUP3 REVERT JUMPDEST POP POP DUP1 MLOAD PUSH1 0x20 SWAP1 SWAP2 ADD MLOAD SWAP1 SWAP3 SWAP1 SWAP2 POP JUMP JUMPDEST PUSH1 0x0 DUP1 PUSH1 0x0 DUP1 PUSH1 0x0 PUSH1 0xA0 DUP7 DUP9 SUB SLT ISZERO PUSH2 0x4983 JUMPI DUP1 DUP2 REVERT JUMPDEST PUSH2 0x498C DUP7 PUSH2 0x4832 JUMP JUMPDEST SWAP5 POP PUSH1 0x20 DUP7 ADD MLOAD SWAP4 POP PUSH1 0x40 DUP7 ADD MLOAD SWAP3 POP PUSH1 0x60 DUP7 ADD MLOAD SWAP2 POP PUSH2 0x49AF PUSH1 0x80 DUP8 ADD PUSH2 0x4832 JUMP JUMPDEST SWAP1 POP SWAP3 SWAP6 POP SWAP3 SWAP6 SWAP1 SWAP4 POP JUMP JUMPDEST PUSH1 0x1 PUSH1 0x1 PUSH1 0xA0 SHL SUB AND SWAP1 MSTORE JUMP JUMPDEST PUSH1 0x0 DUP2 MLOAD DUP1 DUP5 MSTORE PUSH1 0x20 DUP1 DUP6 ADD SWAP5 POP DUP1 DUP5 ADD DUP4 JUMPDEST DUP4 DUP2 LT ISZERO PUSH2 0x4A39 JUMPI DUP2 MLOAD DUP1 MLOAD PUSH2 0xFFFF AND DUP9 MSTORE DUP4 DUP2 ADD MLOAD DUP5 DUP10 ADD MSTORE PUSH1 0x40 DUP1 DUP3 ADD MLOAD SWAP1 DUP10 ADD MSTORE PUSH1 0x60 DUP1 DUP3 ADD MLOAD SWAP1 DUP10 ADD MSTORE PUSH1 0x80 DUP1 DUP3 ADD MLOAD SWAP1 DUP10 ADD MSTORE PUSH1 0xA0 SWAP1 DUP2 ADD MLOAD SWAP1 PUSH1 0x4 DUP3 LT PUSH2 0x4A24 JUMPI INVALID JUMPDEST DUP9 ADD MSTORE PUSH1 0xC0 SWAP1 SWAP7 ADD SWAP6 SWAP1 DUP3 ADD SWAP1 PUSH1 0x1 ADD PUSH2 0x49DB JUMP JUMPDEST POP SWAP5 SWAP6 SWAP5 POP POP POP POP POP JUMP JUMPDEST ISZERO ISZERO SWAP1 MSTORE JUMP JUMPDEST PUSH1 0x1 PUSH1 0x1 PUSH1 0xD0 SHL SUB NOT AND SWAP1 MSTORE JUMP JUMPDEST DUP1 MLOAD PUSH5 0xFFFFFFFFFF AND DUP3 MSTORE PUSH1 0x20 DUP1 DUP3 ADD MLOAD PUSH1 0x1 PUSH1 0x1 PUSH1 0xF8 SHL SUB NOT AND SWAP1 DUP4 ADD MSTORE PUSH1 0x40 DUP1 DUP3 ADD MLOAD PUSH1 0xFF AND SWAP1 DUP4 ADD MSTORE PUSH1 0x60 DUP1 DUP3 ADD MLOAD PUSH2 0xFFFF AND SWAP1 DUP4 ADD MSTORE PUSH1 0x80 DUP1 DUP3 ADD MLOAD PUSH1 0x1 PUSH1 0x1 PUSH1 0x70 SHL SUB NOT AND SWAP1 DUP4 ADD MSTORE PUSH1 0xA0 SWAP1 DUP2 ADD MLOAD ISZERO ISZERO SWAP2 ADD MSTORE JUMP JUMPDEST PUSH2 0xFFFF DUP2 MLOAD AND DUP3 MSTORE PUSH1 0x20 DUP2 ADD MLOAD PUSH1 0x20 DUP4 ADD MSTORE PUSH1 0x40 DUP2 ADD MLOAD PUSH2 0x4AD7 PUSH1 0x40 DUP5 ADD DUP3 PUSH2 0x4B15 JUMP JUMPDEST POP PUSH1 0x60 ADD MLOAD PUSH1 0xA0 SWAP2 SWAP1 SWAP2 ADD MSTORE JUMP JUMPDEST DUP1 MLOAD DUP3 MSTORE PUSH1 0x20 DUP2 ADD MLOAD PUSH1 0x20 DUP4 ADD MSTORE PUSH1 0x40 DUP2 ADD MLOAD PUSH1 0x40 DUP4 ADD MSTORE PUSH1 0x60 DUP2 ADD MLOAD PUSH1 0x60 DUP4 ADD MSTORE PUSH1 0x80 DUP2 ADD MLOAD PUSH1 0x80 DUP4 ADD MSTORE POP POP JUMP JUMPDEST DUP1 MLOAD DUP3 MSTORE PUSH1 0x20 DUP1 DUP3 ADD MLOAD SWAP1 DUP4 ADD MSTORE PUSH1 0x40 SWAP1 DUP2 ADD MLOAD SWAP2 ADD MSTORE JUMP JUMPDEST PUSH1 0x1 PUSH1 0x1 PUSH1 0xA0 SHL SUB SWAP3 SWAP1 SWAP3 AND DUP3 MSTORE PUSH1 0x20 DUP3 ADD MSTORE PUSH1 0x40 ADD SWAP1 JUMP JUMPDEST PUSH1 0x1 PUSH1 0x1 PUSH1 0xA0 SHL SUB DUP4 AND DUP2 MSTORE PUSH1 0xE0 DUP2 ADD PUSH2 0xC7A PUSH1 0x20 DUP4 ADD DUP5 PUSH2 0x4A58 JUMP JUMPDEST PUSH1 0x0 PUSH1 0x40 DUP3 ADD DUP5 DUP4 MSTORE PUSH1 0x20 PUSH1 0x40 DUP2 DUP6 ADD MSTORE DUP2 DUP6 MLOAD DUP1 DUP5 MSTORE PUSH1 0x60 DUP7 ADD SWAP2 POP DUP3 DUP8 ADD SWAP4 POP DUP5 JUMPDEST DUP2 DUP2 LT ISZERO PUSH2 0x4BA4 JUMPI DUP5 MLOAD DUP4 MSTORE SWAP4 DUP4 ADD SWAP4 SWAP2 DUP4 ADD SWAP2 PUSH1 0x1 ADD PUSH2 0x4B88 JUMP JUMPDEST POP SWAP1 SWAP8 SWAP7 POP POP POP POP POP POP POP JUMP JUMPDEST PUSH1 0x20 DUP1 DUP3 MSTORE PUSH1 0x16 SWAP1 DUP3 ADD MSTORE PUSH22 0x13585C9AD95D081B9BDD081A5B9A5D1A585B1A5E9959 PUSH1 0x52 SHL PUSH1 0x40 DUP3 ADD MSTORE PUSH1 0x60 ADD SWAP1 JUMP JUMPDEST PUSH1 0x20 DUP1 DUP3 MSTORE PUSH1 0xD SWAP1 DUP3 ADD MSTORE PUSH13 0x92DCECC2D8D2C840D2DCC8CAF PUSH1 0x9B SHL PUSH1 0x40 DUP3 ADD MSTORE PUSH1 0x60 ADD SWAP1 JUMP JUMPDEST PUSH1 0x20 DUP1 DUP3 MSTORE PUSH1 0x12 SWAP1 DUP3 ADD MSTORE PUSH18 0x105CDCD95D1CC81B9BDD081CD95D1D1B1959 PUSH1 0x72 SHL PUSH1 0x40 DUP3 ADD MSTORE PUSH1 0x60 ADD SWAP1 JUMP JUMPDEST PUSH1 0x20 DUP1 DUP3 MSTORE PUSH1 0xE SWAP1 DUP3 ADD MSTORE PUSH14 0x125B9D985B1A59081B585C9AD95D PUSH1 0x92 SHL PUSH1 0x40 DUP3 ADD MSTORE PUSH1 0x60 ADD SWAP1 JUMP JUMPDEST PUSH1 0x20 DUP1 DUP3 MSTORE PUSH1 0x16 SWAP1 DUP3 ADD MSTORE PUSH22 0x14D95C5D595B98D95C8811DC9858D94814195C9A5BD9 PUSH1 0x52 SHL PUSH1 0x40 DUP3 ADD MSTORE PUSH1 0x60 ADD SWAP1 JUMP JUMPDEST PUSH1 0x20 DUP1 DUP3 MSTORE PUSH1 0xE SWAP1 DUP3 ADD MSTORE PUSH14 0x29B2B8BAB2B731B2B9102237BBB7 PUSH1 0x91 SHL PUSH1 0x40 DUP3 ADD MSTORE PUSH1 0x60 ADD SWAP1 JUMP JUMPDEST PUSH1 0x20 DUP1 DUP3 MSTORE PUSH1 0x15 SWAP1 DUP3 ADD MSTORE PUSH21 0x14DD59999A58DA595B9D0818DBDB1B185D195C985B PUSH1 0x5A SHL PUSH1 0x40 DUP3 ADD MSTORE PUSH1 0x60 ADD SWAP1 JUMP JUMPDEST PUSH1 0x20 DUP1 DUP3 MSTORE PUSH1 0x1C SWAP1 DUP3 ADD MSTORE PUSH32 0x496E73756666696369656E74206672656520636F6C6C61746572616C00000000 PUSH1 0x40 DUP3 ADD MSTORE PUSH1 0x60 ADD SWAP1 JUMP JUMPDEST PUSH1 0x0 PUSH2 0x420 PUSH2 0x4D29 DUP4 DUP8 PUSH2 0x4A58 JUMP JUMPDEST PUSH2 0x4D37 PUSH1 0xC0 DUP5 ADD DUP7 MLOAD PUSH2 0x49BB JUMP JUMPDEST PUSH1 0x20 DUP6 ADD MLOAD PUSH1 0xE0 DUP5 ADD MSTORE PUSH1 0x40 DUP6 ADD MLOAD PUSH2 0x100 DUP2 DUP2 DUP7 ADD MSTORE PUSH1 0x60 DUP8 ADD MLOAD SWAP2 POP PUSH2 0x120 DUP3 DUP2 DUP8 ADD MSTORE PUSH1 0x80 DUP9 ADD MLOAD SWAP3 POP PUSH2 0x140 DUP4 DUP2 DUP9 ADD MSTORE PUSH1 0xA0 DUP10 ADD MLOAD SWAP4 POP PUSH2 0x4D81 PUSH2 0x160 DUP9 ADD DUP6 PUSH2 0x4A4A JUMP JUMPDEST PUSH1 0xC0 DUP10 ADD MLOAD SWAP4 POP PUSH2 0x4D96 PUSH2 0x180 DUP9 ADD DUP6 PUSH2 0x4AE5 JUMP JUMPDEST PUSH1 0xE0 DUP10 ADD MLOAD SWAP4 POP PUSH2 0x4DAB PUSH2 0x220 DUP9 ADD DUP6 PUSH2 0x4AE5 JUMP JUMPDEST DUP3 DUP10 ADD MLOAD SWAP4 POP PUSH2 0x4DBF PUSH2 0x2C0 DUP9 ADD DUP6 PUSH2 0x4B15 JUMP JUMPDEST DUP2 DUP10 ADD MLOAD SWAP4 POP PUSH2 0x4DD3 PUSH2 0x320 DUP9 ADD DUP6 PUSH2 0x4AB3 JUMP JUMPDEST DUP9 ADD MLOAD SWAP3 POP PUSH2 0x4DE9 SWAP2 POP POP PUSH2 0x3E0 DUP6 ADD DUP3 PUSH2 0x4A44 JUMP JUMPDEST POP DUP1 PUSH2 0x400 DUP5 ADD MSTORE PUSH2 0x27D1 DUP2 DUP5 ADD DUP6 PUSH2 0x49C8 JUMP JUMPDEST SWAP3 DUP4 MSTORE PUSH1 0x20 DUP4 ADD SWAP2 SWAP1 SWAP2 MSTORE PUSH1 0x40 DUP3 ADD MSTORE PUSH1 0x60 ADD SWAP1 JUMP INVALID LOG2 PUSH5 0x6970667358 0x22 SLT KECCAK256 CALL SWAP5 0xAF 0x21 0xD2 DUP2 RETURNDATACOPY 0xBC 0xC4 PUSH32 0x861E678CE3134DC7DB6687FAD23F616646C30AB1B7B464736F6C634300070600 CALLER ","sha1":"73bd1351e34602864319a012068fa4b796e87bc5","source":"// SPDX-License-Identifier: BSUL-1.1\npragma solidity =0.7.6;\npragma abicoder v2;\n\nimport \"../global/Deployments.sol\";\nimport \"../external/SettleAssetsExternal.sol\";\nimport \"../internal/AccountContextHandler.sol\";\nimport \"../internal/valuation/FreeCollateral.sol\";\n\n/// @title Externally deployed library for free collateral calculations\nlibrary FreeCollateralExternal {\n    using AccountContextHandler for AccountContext;\n    // Grace period after a sequencer downtime has occurred\n    uint256 internal constant SEQUENCER_UPTIME_GRACE_PERIOD = 1 hours;\n\n    function _checkSequencer() private view {\n        // See: https://docs.chain.link/data-feeds/l2-sequencer-feeds/\n        if (address(Deployments.SEQUENCER_UPTIME_ORACLE) != address(0)) {\n            (\n                /*uint80 roundID*/,\n                int256 answer,\n                uint256 startedAt,\n                /*uint256 updatedAt*/,\n                /*uint80 answeredInRound*/\n            ) = Deployments.SEQUENCER_UPTIME_ORACLE.latestRoundData();\n            require(answer == 0, \"Sequencer Down\");\n            require(SEQUENCER_UPTIME_GRACE_PERIOD < block.timestamp - startedAt, \"Sequencer Grace Period\");\n        }\n    }\n\n    /// @notice Returns the ETH denominated free collateral of an account, represents the amount of\n    /// debt that the account can incur before liquidation. If an account's assets need to be settled this\n    /// will revert, either settle the account or use the off chain SDK to calculate free collateral.\n    /// @dev Called via the Views.sol method to return an account's free collateral. Does not work\n    /// for the nToken, the nToken does not have an account context.\n    /// @param account account to calculate free collateral for\n    /// @return total free collateral in ETH w/ 8 decimal places\n    /// @return array of net local values in asset values ordered by currency id\n    function getFreeCollateralView(address account)\n        external\n        view\n        returns (int256, int256[] memory)\n    {\n        AccountContext memory accountContext = AccountContextHandler.getAccountContext(account);\n        // The internal free collateral function does not account for settled assets. The Notional SDK\n        // can calculate the free collateral off chain if required at this point.\n        require(!accountContext.mustSettleAssets(), \"Assets not settled\");\n        return FreeCollateral.getFreeCollateralView(account, accountContext, block.timestamp);\n    }\n\n    /// @notice Calculates free collateral and will revert if it falls below zero. If the account context\n    /// must be updated due to changes in debt settings, will update. Cannot check free collateral if assets\n    /// need to be settled first.\n    /// @dev Cannot be called directly by users, used during various actions that require an FC check. Must be\n    /// called before the end of any transaction for accounts where FC can decrease.\n    /// @param account account to calculate free collateral for\n    function checkFreeCollateralAndRevert(address account) external {\n        // Prevents new debt positions from being initiated if the sequencer is down, only applies to L2 environments\n        // like Arbitrum and Optimism where this is a concern. Accounts with no risk do not get a free\n        // collateral check and will bypass this check.\n        _checkSequencer();\n\n        AccountContext memory accountContext = AccountContextHandler.getAccountContext(account);\n        require(!accountContext.mustSettleAssets(), \"Assets not settled\");\n\n        (int256 ethDenominatedFC, bool updateContext) =\n            FreeCollateral.getFreeCollateralStateful(account, accountContext, block.timestamp);\n\n        if (updateContext) {\n            accountContext.setAccountContext(account);\n        }\n\n        require(ethDenominatedFC >= 0, \"Insufficient free collateral\");\n    }\n\n    /// @notice Calculates liquidation factors for an account\n    /// @dev Only called internally by liquidation actions, does some initial validation of currencies. If a currency is\n    /// specified that the account does not have, a asset available figure of zero will be returned. If this is the case then\n    /// liquidation actions will revert.\n    /// @dev an ntoken account will return 0 FC and revert if called\n    /// @param account account to liquidate\n    /// @param localCurrencyId currency that the debts are denominated in\n    /// @param collateralCurrencyId collateral currency to liquidate against, set to zero in the case of local currency liquidation\n    /// @return accountContext the accountContext of the liquidated account\n    /// @return factors struct of relevant factors for liquidation\n    /// @return portfolio the portfolio array of the account (bitmap accounts will return an empty array)\n    function getLiquidationFactors(\n        address account,\n        uint256 localCurrencyId,\n        uint256 collateralCurrencyId\n    )\n        external\n        returns (\n            AccountContext memory accountContext,\n            LiquidationFactors memory factors,\n            PortfolioAsset[] memory portfolio\n        )\n    {\n        // Prevents new liquidations from being initiated if the sequencer is down, only applies to L2 environments\n        // like Arbitrum and Optimism where this is a concern.\n        _checkSequencer();\n\n        accountContext = AccountContextHandler.getAccountContext(account);\n        if (accountContext.mustSettleAssets()) {\n            accountContext = SettleAssetsExternal.settleAccount(account, accountContext);\n        }\n\n        if (accountContext.isBitmapEnabled()) {\n            // A bitmap currency can only ever hold debt in this currency\n            require(localCurrencyId == accountContext.bitmapCurrencyId);\n        }\n\n        (factors, portfolio) = FreeCollateral.getLiquidationFactors(\n            account,\n            accountContext,\n            block.timestamp,\n            localCurrencyId,\n            collateralCurrencyId\n        );\n    }\n}\n","sourcePath":"contracts/external/FreeCollateralExternal.sol","type":"library","deployment":{"address":"0xE39707d637E5d89B62e2CE504c163a1a06d56a85","chainid":"42161","blockHeight":182813827}}