{"abi":[{"anonymous":false,"inputs":[{"indexed":true,"internalType":"address","name":"account","type":"address"},{"indexed":true,"internalType":"address","name":"operator","type":"address"},{"indexed":false,"internalType":"bool","name":"approved","type":"bool"}],"name":"ApprovalForAll","type":"event"},{"anonymous":false,"inputs":[{"indexed":true,"internalType":"address","name":"operator","type":"address"},{"indexed":true,"internalType":"address","name":"from","type":"address"},{"indexed":true,"internalType":"address","name":"to","type":"address"},{"indexed":false,"internalType":"uint256[]","name":"ids","type":"uint256[]"},{"indexed":false,"internalType":"uint256[]","name":"values","type":"uint256[]"}],"name":"TransferBatch","type":"event"},{"anonymous":false,"inputs":[{"indexed":true,"internalType":"address","name":"operator","type":"address"},{"indexed":true,"internalType":"address","name":"from","type":"address"},{"indexed":true,"internalType":"address","name":"to","type":"address"},{"indexed":false,"internalType":"uint256","name":"id","type":"uint256"},{"indexed":false,"internalType":"uint256","name":"value","type":"uint256"}],"name":"TransferSingle","type":"event"},{"anonymous":false,"inputs":[{"indexed":false,"internalType":"string","name":"value","type":"string"},{"indexed":true,"internalType":"uint256","name":"id","type":"uint256"}],"name":"URI","type":"event"},{"inputs":[{"internalType":"address","name":"account","type":"address"},{"internalType":"uint256","name":"id","type":"uint256"}],"name":"balanceOf","outputs":[{"internalType":"uint256","name":"","type":"uint256"}],"stateMutability":"view","type":"function"},{"inputs":[{"internalType":"address[]","name":"accounts","type":"address[]"},{"internalType":"uint256[]","name":"ids","type":"uint256[]"}],"name":"balanceOfBatch","outputs":[{"internalType":"uint256[]","name":"","type":"uint256[]"}],"stateMutability":"view","type":"function"},{"inputs":[{"internalType":"uint256[]","name":"ids","type":"uint256[]"},{"internalType":"uint256[]","name":"amounts","type":"uint256[]"}],"name":"decodeToAssets","outputs":[{"components":[{"internalType":"uint16","name":"currencyId","type":"uint16"},{"internalType":"uint256","name":"maturity","type":"uint256"},{"internalType":"uint256","name":"assetType","type":"uint256"},{"internalType":"int256","name":"notional","type":"int256"},{"internalType":"uint256","name":"storageSlot","type":"uint256"},{"internalType":"enum AssetStorageState","name":"storageState","type":"uint8"}],"internalType":"struct PortfolioAsset[]","name":"","type":"tuple[]"}],"stateMutability":"view","type":"function"},{"inputs":[{"internalType":"uint16","name":"currencyId","type":"uint16"},{"internalType":"uint40","name":"maturity","type":"uint40"},{"internalType":"uint8","name":"","type":"uint8"}],"name":"encodeToId","outputs":[{"internalType":"uint256","name":"","type":"uint256"}],"stateMutability":"pure","type":"function"},{"inputs":[],"name":"getLibInfo","outputs":[{"internalType":"address","name":"","type":"address"},{"internalType":"address","name":"","type":"address"}],"stateMutability":"pure","type":"function"},{"inputs":[{"internalType":"address","name":"account","type":"address"},{"internalType":"address","name":"operator","type":"address"}],"name":"isApprovedForAll","outputs":[{"internalType":"bool","name":"","type":"bool"}],"stateMutability":"view","type":"function"},{"inputs":[],"name":"owner","outputs":[{"internalType":"address","name":"","type":"address"}],"stateMutability":"view","type":"function"},{"inputs":[],"name":"pauseGuardian","outputs":[{"internalType":"address","name":"","type":"address"}],"stateMutability":"view","type":"function"},{"inputs":[],"name":"pauseRouter","outputs":[{"internalType":"address","name":"","type":"address"}],"stateMutability":"view","type":"function"},{"inputs":[{"internalType":"address","name":"from","type":"address"},{"internalType":"address","name":"to","type":"address"},{"internalType":"uint256[]","name":"ids","type":"uint256[]"},{"internalType":"uint256[]","name":"amounts","type":"uint256[]"},{"internalType":"bytes","name":"data","type":"bytes"}],"name":"safeBatchTransferFrom","outputs":[],"stateMutability":"payable","type":"function"},{"inputs":[{"internalType":"address","name":"from","type":"address"},{"internalType":"address","name":"to","type":"address"},{"internalType":"uint256","name":"id","type":"uint256"},{"internalType":"uint256","name":"amount","type":"uint256"},{"internalType":"bytes","name":"data","type":"bytes"}],"name":"safeTransferFrom","outputs":[],"stateMutability":"payable","type":"function"},{"inputs":[{"internalType":"address","name":"operator","type":"address"},{"internalType":"bool","name":"approved","type":"bool"}],"name":"setApprovalForAll","outputs":[],"stateMutability":"nonpayable","type":"function"},{"inputs":[{"internalType":"address","name":"account","type":"address"},{"internalType":"uint256","name":"id","type":"uint256"}],"name":"signedBalanceOf","outputs":[{"internalType":"int256","name":"notional","type":"int256"}],"stateMutability":"view","type":"function"},{"inputs":[{"internalType":"address[]","name":"accounts","type":"address[]"},{"internalType":"uint256[]","name":"ids","type":"uint256[]"}],"name":"signedBalanceOfBatch","outputs":[{"internalType":"int256[]","name":"","type":"int256[]"}],"stateMutability":"view","type":"function"},{"inputs":[{"internalType":"bytes4","name":"interfaceId","type":"bytes4"}],"name":"supportsInterface","outputs":[{"internalType":"bool","name":"","type":"bool"}],"stateMutability":"pure","type":"function"}],"bytecode":"608060405234801561001057600080fd5b50612caf806100206000396000f3fe6080604052600436106100e75760003560e01c8063735a1dc81161008a578063a22cb46511610059578063a22cb4651461026a578063c4c96dae1461028a578063e985e9c5146102ad578063f242432a146102cd576100e7565b8063735a1dc81461020057806381a868551461022057806382463367146102405780638da5cb5b14610255576100e7565b806324a3d622116100c657806324a3d6221461016f5780632eb2c2d6146101915780633fa6b808146101a65780634e1273f4146101d3576100e7565b8062fdd58e146100ec57806301ffc9a7146101225780630fac8f091461014f575b600080fd5b3480156100f857600080fd5b5061010c6101073660046124e5565b6102e0565b6040516101199190612a03565b60405180910390f35b34801561012e57600080fd5b5061014261013d366004612591565b610312565b60405161011991906129f8565b34801561015b57600080fd5b5061010c61016a3660046124e5565b61032c565b34801561017b57600080fd5b50610184610487565b6040516101199190612801565b6101a461019f366004612383565b610496565b005b3480156101b257600080fd5b506101c66101c1366004612510565b610603565b60405161011991906129b6565b3480156101df57600080fd5b506101f36101ee366004612510565b610620565b6040516101199190612972565b34801561020c57600080fd5b5061010c61021b3660046126a4565b6106e4565b34801561022c57600080fd5b506101f361023b366004612510565b610703565b34801561024c57600080fd5b506101846107bd565b34801561026157600080fd5b506101846107cc565b34801561027657600080fd5b506101a46102853660046124b8565b6107e3565b34801561029657600080fd5b5061029f610852565b6040516101199291906128b4565b3480156102b957600080fd5b506101426102c836600461234b565b610880565b6101a46102db36600461243e565b6108d8565b6000806102ed848461032c565b9050600081126103055761030081610a6e565b610308565b60005b9150505b92915050565b6001600160e01b03198116636cdb3d1360e11b145b919050565b6000826001600160a01b031661034d61034484610a81565b61ffff16610a87565b6001600160a01b0316141561036d576103668383610aad565b905061030c565b61037682610bc4565b1561041257600080600061038985610bd0565b925092509250600061039a87610c14565b90506103a581610cc4565b156103c5576103be87826060015161ffff168686610cd1565b94506103e0565b6103dd6103d6888360400151610d0b565b8585610d1f565b94505b811561040957600085126103f55760006103fe565b6103fe85610d98565b94505050505061030c565b5050505061030c565b6040516304a7a34160e41b81523090634a7a3410906104379086908690600401612959565b60206040518083038186803b15801561044f57600080fd5b505afa158015610463573d6000803e3d6000fd5b505050506040513d601f19601f8201168201806040525081019061036691906125c9565b6002546001600160a01b031681565b6104a08888610da6565b6000806104af88888888610e46565b9150915080156104e8576104c38933610880565b6104e85760405162461bcd60e51b81526004016104df90612a93565b60405180910390fd5b6000806104f68c8c86610fa2565b915091506105098c8c84848a8a89611082565b6105128b611360565b156105f5577fbc197c819b3e337a6f9652dd10becd7eef83032af3b9d958d3d42f66941466216001600160e01b0319168b6001600160a01b031663bc197c81338f8e8e8e8e8e8e6040518963ffffffff1660e01b815260040161057c989796959493929190612815565b602060405180830381600087803b15801561059657600080fd5b505af11580156105aa573d6000803e3d6000fd5b505050506040513d601f19601f820116820180604052508101906105ce91906125ad565b6001600160e01b031916146105f55760405162461bcd60e51b81526004016104df90612b8d565b505050505050505050505050565b6060600061061386868686610e46565b509150505b949350505050565b606083821461062e57600080fd5b60008467ffffffffffffffff8111801561064757600080fd5b50604051908082528060200260200182016040528015610671578160200160208202803683370190505b50905060005b858110156106da576106bb87878381811061068e57fe5b90506020020160208101906106a3919061232f565b8686848181106106af57fe5b905060200201356102e0565b8282815181106106c757fe5b6020908102919091010152600101610677565b5095945050505050565b60006106f9848464ffffffffff166000611366565b90505b9392505050565b606083821461071157600080fd5b60008467ffffffffffffffff8111801561072a57600080fd5b50604051908082528060200260200182016040528015610754578160200160208202803683370190505b50905060005b858110156106da5761079e87878381811061077157fe5b9050602002016020810190610786919061232f565b86868481811061079257fe5b9050602002013561032c565b8282815181106107aa57fe5b602090810291909101015260010161075a565b6001546001600160a01b031681565b60005464010000000090046001600160a01b031681565b3360008181526007602090815260408083206001600160a01b038716808552925291829020805460ff191685151517905590519091907f17307eab39ab6107e8899845ad3d59bd9653f200f220920489ca2b5937696c31906108469085906129f8565b60405180910390a35050565b73__FreeCollateralExternal________________73__SettleAssetsExternal__________________9091565b6001600160a01b03811660009081526006602052604081205460ff16156108a95750600161030c565b506001600160a01b03918216600090815260076020908152604080832093909416825291909152205460ff1690565b6108e28686610da6565b6108ea612105565b831561098157604080516001808252818301909252600091816020015b61090f61213a565b81526020019060019003908161090757905050905060008160008151811061093357fe5b6020026020010151905061094787826113af565b6109508661141b565b60608201528051602082015161096b9161ffff169042611431565b610976898984610fa2565b50925061098d915050565b61098a87610c14565b90505b610995612105565b6109a58888848488886000611082565b6109ae87611360565b15610a645760405163f23a6e6160e01b808252906001600160a01b0389169063f23a6e61906109eb9033908d908c908c908c908c90600401612879565b602060405180830381600087803b158015610a0557600080fd5b505af1158015610a19573d6000803e3d6000fd5b505050506040513d601f19601f82011682018060405250810190610a3d91906125ad565b6001600160e01b03191614610a645760405162461bcd60e51b81526004016104df90612b8d565b5050505050505050565b600080821215610a7d57600080fd5b5090565b60301c90565b600080610a92611468565b6000938452602052505060409020546001600160a01b031690565b600080600080610abc85610bd0565b925092509250600080610ad160078542611475565b915091508080610ade5750825b15610b2457610af3888661ffff168787610cd1565b95508215610b1f5760008612610b0a576000610b13565b610b1386610d98565b9550505050505061030c565b610bb9565b6000610b2f896114fc565b5093505050508060ff16831115610b4f576000965050505050505061030c565b6000610b5b8a83610d0b565b9050610b6561217e565b610b78818961ffff168942600180611565565b6080810151610b925760009850505050505050505061030c565b610bb2826001870381518110610ba457fe5b60200260200101518261158f565b9950505050505b505050505092915050565b60ff8116600114919050565b6000808060ff8416600114610bed57506000915081905080610c0d565b505050603081901c64ffffffffff600883901c16600160ff604085901c16145b9193909250565b610c1c612105565b6000610c26611610565b6001600160a01b03841660009081526020918252604090819020815160c081018352905464ffffffffff811682526001600160f81b031965010000000000820460f81b169382019390935260ff600160301b840481169282019290925261ffff600160381b84041660608201526001600160701b0319600160481b840460701b166080820152600160d81b90920416151560a0820152915050919050565b6060015161ffff16151590565b600061ffff83161580610ce85750838361ffff1614155b15610cf557506000610618565b610d04858461ffff168461161d565b9050610618565b6060610d178383611662565b509392505050565b6000805b8451811015610d8d576000858281518110610d3a57fe5b602002602001015190508461ffff16816000015161ffff16148015610d625750838160200151145b8015610d72575060408101516001145b15610d84576060015191506106fc9050565b50600101610d23565b506000949350505050565b600061030c6000198361167a565b806001600160a01b0316826001600160a01b031614158015610dd057506001600160a01b03811615155b8015610de557506001600160a01b0381163014155b610e015760405162461bcd60e51b81526004016104df90612a3f565b336001600160a01b0383161480610e1d5750610e1d8233610880565b610e395760405162461bcd60e51b81526004016104df90612a93565b610e42826116c8565b5050565b60606000848314610e5657600080fd5b6000808667ffffffffffffffff81118015610e7057600080fd5b50604051908082528060200260200182016040528015610eaa57816020015b610e9761213a565b815260200190600190039081610e8f5790505b50905060005b87811015610f95578015610f0457888860018303818110610ecd57fe5b90506020020135898983818110610ee057fe5b9050602002013511610f045760405162461bcd60e51b81526004016104df90612b34565b6000828281518110610f1257fe5b60200260200101519050610f4b8a8a84818110610f2b57fe5b90506020020135848481518110610f3e57fe5b60200260200101516113af565b610f62816000015161ffff16826020015142611431565b878783818110610f6e57fe5b602002919091013560608301819052600013159050610f8c57600193505b50600101610eb0565b5097909650945050505050565b610faa612105565b610fb2612105565b6000610fbd85610c14565b90506000610fca87610c14565b60405163ca25415360e01b815290915073__SettleAssetsExternal__________________9063ca2541539061100c908a908a90869088908c906004016128ce565b6101806040518083038186803b15801561102557600080fd5b505af4158015611039573d6000803e3d6000fd5b505050506040513d601f19601f8201168201806040525081019061105d9190612678565b9250905061106b8188611743565b6110758287611743565b925090505b935093915050565b6000806020841061109f57600061109b85870187612579565b9250505b6001600160e01b03198216636689064360e01b14806110ce57506001600160e01b03198216630541f52760e41b145b806110e957506001600160e01b03198216633735195360e11b145b8061110457506001600160e01b03198216630276b64b60e01b145b1561121457611117602460048688612bb3565b810190611124919061232f565b9050886001600160a01b0316816001600160a01b031614806111675750876001600160a01b0316816001600160a01b031614801561116757506111678833610880565b6111835760405162461bcd60e51b81526004016104df90612a68565b600080306001600160a01b03163488886040516111a19291906127f1565b60006040518083038185875af1925050503d80600081146111de576040519150601f19603f3d011682016040523d82523d6000602084013e6111e3565b606091505b5091509150816111f282611862565b906112105760405162461bcd60e51b81526004016104df9190612a0c565b5050505b886001600160a01b0316816001600160a01b031614158015611243575060208701516001600160f81b03191615155b156112b057604051636ccc642f60e01b815273__FreeCollateralExternal________________90636ccc642f9061127f908c90600401612801565b60006040518083038186803b15801561129757600080fd5b505af41580156112ab573d6000803e3d6000fd5b505050505b8280156112cf5750876001600160a01b0316816001600160a01b031614155b80156112e8575060208601516001600160f81b03191615155b1561135557604051636ccc642f60e01b815273__FreeCollateralExternal________________90636ccc642f90611324908b90600401612801565b60006040518083038186803b15801561133c57600080fd5b505af4158015611350573d6000803e3d6000fd5b505050505b505050505050505050565b3b151590565b6000613fff61ffff8516111561137b57600080fd5b64ffffffffff83111561138d57600080fd5b61139784846118c2565b905060008212156106fc57600160401b179392505050565b6113b882610bc4565b6113d45760405162461bcd60e51b81526004016104df90612b60565b60006113df83610bd0565b602085019190915261ffff90911683529050801561140f5760405162461bcd60e51b81526004016104df90612ae0565b50600160409091015250565b60006001600160ff1b03821115610a7d57600080fd5b61144761143d846118e0565b60ff1683836118f6565b6114635760405162461bcd60e51b81526004016104df90612b0a565b505050565b60008061030c6003611946565b6000806000851161148557600080fd5b600785111561149357600080fd5b600061149e8461195f565b905060015b8681116114f65760006114bf6114b883611980565b8490611a24565b9050868114156114d7575092506000915061107a9050565b868111156114ed575092506001915061107a9050565b506001016114a3565b50600080fd5b60008060008060008061150d611a36565b6001600160a01b039097166000908152602097909752505060409094205461ffff81169563ffffffff62010000830481169650600160301b830416945060ff600160501b8304169350600160581b90910460d01b9150565b60006276a7006115748561195f565b01905061158687878787878787611a43565b50505050505050565b60008061159f8460400151611a7a565b80156115b057506000846060015112155b6115b957600080fd5b6115e283608001516115dc8660600151866060015161167a90919063ffffffff16565b90611a90565b915061160783608001516115dc8660600151866040015161167a90919063ffffffff16565b90509250929050565b60008061030c6001611946565b600080611628611ac1565b6001600160a01b03861660009081526020918252604080822087835283528082208683529092522054600f90810b900b9150509392505050565b60608061166f8484611ace565b915061160782611be6565b8181026000198314156116aa5781158061169c57508282828161169957fe5b05145b6116a557600080fd5b61030c565b8215806116bf5750818382816116bc57fe5b05145b61030c57600080fd5b6001600160a01b0381166116db57600080fd5b6001600160a01b038116610fee14156116f357600080fd5b6001600160a01b0381166105e7141561170b57600080fd5b6001600160a01b03811630141561172157600080fd5b600061172c826114fc565b5050505061ffff16905080600014610e4257600080fd5b600061174d611610565b6001600160a01b03831660008181526020838152604080832088518154938a01518a84015160608c015160808d015160a08e015164ffffffffff1990981664ffffffffff9095169490941765ff000000000019166501000000000060f89490941c939093029290921766ff0000000000001916600160301b60ff909216919091021768ffff000000000000001916600160381b61ffff90921691909102177affffffffffffffffffffffffffffffffffff0000000000000000001916600160481b60709290921c919091021760ff60d81b1916600160d81b93151593909302929092179091555192935090917f6bd4b121bca854a191536a2ca891155c42ee2fb23f307fb34e8bc65cfcb5412e9190a2505050565b60606044825110156118a8575060408051808201909152601d81527f5472616e73616374696f6e2072657665727465642073696c656e746c790000006020820152610327565b6004820191508180602001905181019061030c91906125e1565b67ffff000000000000603083901b16600882901b1760011792915050565b6000806118ec83611da7565b60ff169392505050565b6000806119028361195f565b9050600061191961191287611980565b8390611a24565b90508085111561192e576000925050506106fc565b600061193a8587611dc4565b98975050505050505050565b6000620f424082602681111561195857fe5b0192915050565b60006276a70082101561197157600080fd5b6276a700825b06909103919050565b6000816001141561199557506276a700610327565b81600214156119a8575062ed4e00610327565b81600314156119bc57506301da9c00610327565b81600414156119d057506303b53800610327565b81600514156119e457506309450c00610327565b81600614156119f8575063128a1800610327565b8160071415611a0c57506325143000610327565b60405162461bcd60e51b81526004016104df90612ab9565b6000828201838110156106fc57600080fd5b60008061030c6002611946565b611a508787878685611ecf565b611a698760e001518860a001518960c001518588611f8f565b60c090970196909652505050505050565b60006002821080159061030c5750506008101590565b600081600019148015611aa65750600160ff1b83145b15611ab057600080fd5b818381611ab957fe5b059392505050565b60008061030c600c611946565b606060088260ff161115611ae157600080fd5b6000611aeb612025565b6001600160a01b038516600090815260208290526040812091925060ff851667ffffffffffffffff81118015611b2057600080fd5b50604051908082528060200260200182016040528015611b5a57816020015b611b4761213a565b815260200190600190039081611b3f5790505b50905060005b8560ff168110156106da576000838260088110611b7957fe5b0190506000838381518110611b8a57fe5b602090810291909101810151835461ffff8116825264ffffffffff620100008204169282019290925260ff600160381b8304166040820152600160401b909104600a90810b900b60608201526080019190915250600101611b60565b80516060908067ffffffffffffffff81118015611c0257600080fd5b50604051908082528060200260200182016040528015611c2c578160200160208202803683370190505b50915060005b81811015611c89576000848281518110611c4857fe5b60200260200101519050611c69816000015182602001518360400151612032565b848381518110611c7557fe5b602090810291909101015250600101611c32565b5060015b81811015611da057805b600081118015611ccf5750838181518110611cae57fe5b6020026020010151846001830381518110611cc557fe5b6020026020010151115b15611d9757838181518110611ce057fe5b6020026020010151846001830381518110611cf757fe5b6020026020010151856001840381518110611d0e57fe5b60200260200101868481518110611d2157fe5b6020026020010182815250828152505050848181518110611d3e57fe5b6020026020010151856001830381518110611d5557fe5b6020026020010151866001840381518110611d6c57fe5b60200260200101878481518110611d7f57fe5b60209081029190910101919091525260001901611c97565b50600101611c8d565b5050919050565b600080611db261205b565b60009384526020525050604090205490565b6000806000611dd285612068565b905062015180840615611dec576000809250925050611ec8565b838110611e00576000809250925050611ec8565b6201518081850304605a8111611e1d57925060019150611ec89050565b6101688111611e5c576000620151806207e900840604820160591901905060068104605a0160068281611e4c57fe5b0660001494509450505050611ec8565b6108708111611e8c5760006201518062278d00840604820161016719019050601e8104608701601e8281611e4c57fe5b611de28111611ebc576000620151806276a700840604820161086f19019050605a810460c301605a8281611e4c57fe5b61010060009350935050505b9250929050565b6000611ed9612084565b6000868152602082815260408083208884528252808320868452825291829020808a52908901879052805469ffffffffffffffffffff808216938b0193909352600160501b810490921660608a015263ffffffff600160a01b8304811660a08b0152600160c01b8304811660c08b0152600160e01b90920490911660e0890152909150808415611f7e57600182015469ffffffffffffffffffff166080890152610a64565b600060808901525050505050505050565b6000808311611f9d57600080fd5b81861115611fac57508361201c565b6000611fb88388612091565b905083811115611fcb578591505061201c565b6000611fd782866120a6565b90506000611fe9633b9aca0083612091565b9050612016633b9aca006120106120008a856120bf565b61200a8c876120bf565b90611a24565b906120e6565b93505050505b95945050505050565b60008061030c600d611946565b67ffff000000000000603084901b1665ffffffffff00600884901b161760ff8216179392505050565b60008061030c6009611946565b60006201518082101561207a57600080fd5b6201518082611977565b60008061030c600a611946565b6000828211156120a057600080fd5b50900390565b60006106fc6120b984633b9aca006120bf565b836120e6565b6000826120ce5750600061030c565b828202828482816120db57fe5b04146106fc57600080fd5b60008082116120f457600080fd5b8183816120fd57fe5b049392505050565b6040805160c081018252600080825260208201819052918101829052606081018290526080810182905260a081019190915290565b6040518060c00160405280600061ffff168152602001600081526020016000815260200160008152602001600081526020016000600381111561217957fe5b905290565b60405180610100016040528060008019168152602001600081526020016000815260200160008152602001600081526020016000815260200160008152602001600081525090565b60008083601f8401126121d7578081fd5b50813567ffffffffffffffff8111156121ee578182fd5b6020830191508360208083028501011115611ec857600080fd5b805161032781612c23565b80516001600160701b03198116811461032757600080fd5b60008083601f84011261223c578182fd5b50813567ffffffffffffffff811115612253578182fd5b602083019150836020828501011115611ec857600080fd5b600060c0828403121561227c578081fd5b60405160c0810181811067ffffffffffffffff8211171561229957fe5b806040525080915082516122ac81612c57565b815260208301516001600160f81b0319811681146122c957600080fd5b60208201526122da60408401612324565b60408201526122eb60608401612319565b60608201526122fc60808401612213565b608082015261230d60a08401612208565b60a08201525092915050565b805161032781612c47565b805161032781612c6a565b600060208284031215612340578081fd5b81356106fc81612c0b565b6000806040838503121561235d578081fd5b823561236881612c0b565b9150602083013561237881612c0b565b809150509250929050565b60008060008060008060008060a0898b03121561239e578384fd5b88356123a981612c0b565b975060208901356123b981612c0b565b9650604089013567ffffffffffffffff808211156123d5578586fd5b6123e18c838d016121c6565b909850965060608b01359150808211156123f9578586fd5b6124058c838d016121c6565b909650945060808b013591508082111561241d578384fd5b5061242a8b828c0161222b565b999c989b5096995094979396929594505050565b60008060008060008060a08789031215612456578182fd5b863561246181612c0b565b9550602087013561247181612c0b565b94506040870135935060608701359250608087013567ffffffffffffffff81111561249a578283fd5b6124a689828a0161222b565b979a9699509497509295939492505050565b600080604083850312156124ca578182fd5b82356124d581612c0b565b9150602083013561237881612c23565b600080604083850312156124f7578182fd5b823561250281612c0b565b946020939093013593505050565b60008060008060408587031215612525578182fd5b843567ffffffffffffffff8082111561253c578384fd5b612548888389016121c6565b90965094506020870135915080821115612560578384fd5b5061256d878288016121c6565b95989497509550505050565b60006020828403121561258a578081fd5b5035919050565b6000602082840312156125a2578081fd5b81356106fc81612c31565b6000602082840312156125be578081fd5b81516106fc81612c31565b6000602082840312156125da578081fd5b5051919050565b6000602082840312156125f2578081fd5b815167ffffffffffffffff80821115612609578283fd5b818401915084601f83011261261c578283fd5b81518181111561262857fe5b604051601f8201601f19168101602001838111828210171561264657fe5b60405281815283820160200187101561265d578485fd5b61266e826020830160208701612bdb565b9695505050505050565b600080610180838503121561268b578182fd5b612695848461226b565b91506116078460c0850161226b565b6000806000606084860312156126b8578081fd5b83356126c381612c47565b925060208401356126d381612c57565b915060408401356126e381612c6a565b809150509250925092565b81835260006001600160fb1b03831115612706578081fd5b6020830280836020870137939093016020019283525090919050565b60008284528282602086013780602084860101526020601f19601f85011685010190509392505050565b805164ffffffffff1682526020808201516001600160f81b0319169083015260408082015160ff169083015260608082015161ffff16908301526080808201516001600160701b0319169083015260a0908101511515910152565b61ffff81511682526020810151602083015260408101516040830152606081015160608301526080810151608083015260a0810151600481106127e657fe5b8060a0840152505050565b6000828483379101908152919050565b6001600160a01b0391909116815260200190565b6001600160a01b0389811682528816602082015260a060408201819052600090612842908301888a6126ee565b82810360608401526128558187896126ee565b9050828103608084015261286a818587612722565b9b9a5050505050505050505050565b6001600160a01b03878116825286166020820152604081018590526060810184905260a06080820181905260009061193a9083018486612722565b6001600160a01b0392831681529116602082015260400190565b60006101e080830160018060a01b03808a1685526020818a16818701526128f8604087018a61274c565b61290661010087018961274c565b6101c0860193909352508451908190526102008401918086019190845b82811015612949576129368585516127a7565b60c0949094019392810192600101612923565b50929a9950505050505050505050565b6001600160a01b03929092168252602082015260400190565b6020808252825182820181905260009190848201906040850190845b818110156129aa5783518352928401929184019160010161298e565b50909695505050505050565b6020808252825182820181905260009190848201906040850190845b818110156129aa576129e58385516127a7565b9284019260c092909201916001016129d2565b901515815260200190565b90815260200190565b6000602082528251806020840152612a2b816040850160208701612bdb565b601f01601f19169190910160400192915050565b6020808252600f908201526e496e76616c6964206164647265737360881b604082015260600190565b602080825260119082015270155b985d5d1a1bdc9a5e99590818d85b1b607a1b604082015260600190565b6020808252600c908201526b155b985d5d1a1bdc9a5e995960a21b604082015260600190565b6020808252600d908201526c092dcecc2d8d2c840d2dcc8caf609b1b604082015260600190565b60208082526010908201526f2737902232b13a102a3930b739b332b960811b604082015260600190565b60208082526010908201526f496e76616c6964206d6174757269747960801b604082015260600190565b60208082526012908201527112511cc81b5d5cdd081899481cdbdc9d195960721b604082015260600190565b60208082526013908201527227b7363c903321b0b9b4102a3930b739b332b960691b604082015260600190565b6020808252600c908201526b139bdd081858d8d95c1d195960a21b604082015260600190565b60008085851115612bc2578182fd5b83861115612bce578182fd5b5050820193919092039150565b60005b83811015612bf6578181015183820152602001612bde565b83811115612c05576000848401525b50505050565b6001600160a01b0381168114612c2057600080fd5b50565b8015158114612c2057600080fd5b6001600160e01b031981168114612c2057600080fd5b61ffff81168114612c2057600080fd5b64ffffffffff81168114612c2057600080fd5b60ff81168114612c2057600080fdfea264697066735822122082340f6ac05260114dee027caedfff3f2d538c35745a12b461b1c8bf228103d464736f6c63430007060033","bytecodeSha1":"5df0dc47b7583e27f934ed0e2c1412181d72baa3","compiler":{"evm_version":"istanbul","optimizer":{"enabled":true,"runs":200},"version":"0.7.6+commit.7338295f"},"contractName":"ERC1155Action","deployedBytecode":"6080604052600436106100e75760003560e01c8063735a1dc81161008a578063a22cb46511610059578063a22cb4651461026a578063c4c96dae1461028a578063e985e9c5146102ad578063f242432a146102cd576100e7565b8063735a1dc81461020057806381a868551461022057806382463367146102405780638da5cb5b14610255576100e7565b806324a3d622116100c657806324a3d6221461016f5780632eb2c2d6146101915780633fa6b808146101a65780634e1273f4146101d3576100e7565b8062fdd58e146100ec57806301ffc9a7146101225780630fac8f091461014f575b600080fd5b3480156100f857600080fd5b5061010c6101073660046124e5565b6102e0565b6040516101199190612a03565b60405180910390f35b34801561012e57600080fd5b5061014261013d366004612591565b610312565b60405161011991906129f8565b34801561015b57600080fd5b5061010c61016a3660046124e5565b61032c565b34801561017b57600080fd5b50610184610487565b6040516101199190612801565b6101a461019f366004612383565b610496565b005b3480156101b257600080fd5b506101c66101c1366004612510565b610603565b60405161011991906129b6565b3480156101df57600080fd5b506101f36101ee366004612510565b610620565b6040516101199190612972565b34801561020c57600080fd5b5061010c61021b3660046126a4565b6106e4565b34801561022c57600080fd5b506101f361023b366004612510565b610703565b34801561024c57600080fd5b506101846107bd565b34801561026157600080fd5b506101846107cc565b34801561027657600080fd5b506101a46102853660046124b8565b6107e3565b34801561029657600080fd5b5061029f610852565b6040516101199291906128b4565b3480156102b957600080fd5b506101426102c836600461234b565b610880565b6101a46102db36600461243e565b6108d8565b6000806102ed848461032c565b9050600081126103055761030081610a6e565b610308565b60005b9150505b92915050565b6001600160e01b03198116636cdb3d1360e11b145b919050565b6000826001600160a01b031661034d61034484610a81565b61ffff16610a87565b6001600160a01b0316141561036d576103668383610aad565b905061030c565b61037682610bc4565b1561041257600080600061038985610bd0565b925092509250600061039a87610c14565b90506103a581610cc4565b156103c5576103be87826060015161ffff168686610cd1565b94506103e0565b6103dd6103d6888360400151610d0b565b8585610d1f565b94505b811561040957600085126103f55760006103fe565b6103fe85610d98565b94505050505061030c565b5050505061030c565b6040516304a7a34160e41b81523090634a7a3410906104379086908690600401612959565b60206040518083038186803b15801561044f57600080fd5b505afa158015610463573d6000803e3d6000fd5b505050506040513d601f19601f8201168201806040525081019061036691906125c9565b6002546001600160a01b031681565b6104a08888610da6565b6000806104af88888888610e46565b9150915080156104e8576104c38933610880565b6104e85760405162461bcd60e51b81526004016104df90612a93565b60405180910390fd5b6000806104f68c8c86610fa2565b915091506105098c8c84848a8a89611082565b6105128b611360565b156105f5577fbc197c819b3e337a6f9652dd10becd7eef83032af3b9d958d3d42f66941466216001600160e01b0319168b6001600160a01b031663bc197c81338f8e8e8e8e8e8e6040518963ffffffff1660e01b815260040161057c989796959493929190612815565b602060405180830381600087803b15801561059657600080fd5b505af11580156105aa573d6000803e3d6000fd5b505050506040513d601f19601f820116820180604052508101906105ce91906125ad565b6001600160e01b031916146105f55760405162461bcd60e51b81526004016104df90612b8d565b505050505050505050505050565b6060600061061386868686610e46565b509150505b949350505050565b606083821461062e57600080fd5b60008467ffffffffffffffff8111801561064757600080fd5b50604051908082528060200260200182016040528015610671578160200160208202803683370190505b50905060005b858110156106da576106bb87878381811061068e57fe5b90506020020160208101906106a3919061232f565b8686848181106106af57fe5b905060200201356102e0565b8282815181106106c757fe5b6020908102919091010152600101610677565b5095945050505050565b60006106f9848464ffffffffff166000611366565b90505b9392505050565b606083821461071157600080fd5b60008467ffffffffffffffff8111801561072a57600080fd5b50604051908082528060200260200182016040528015610754578160200160208202803683370190505b50905060005b858110156106da5761079e87878381811061077157fe5b9050602002016020810190610786919061232f565b86868481811061079257fe5b9050602002013561032c565b8282815181106107aa57fe5b602090810291909101015260010161075a565b6001546001600160a01b031681565b60005464010000000090046001600160a01b031681565b3360008181526007602090815260408083206001600160a01b038716808552925291829020805460ff191685151517905590519091907f17307eab39ab6107e8899845ad3d59bd9653f200f220920489ca2b5937696c31906108469085906129f8565b60405180910390a35050565b73__$841fddfe32830bb6dbc3a02d7f16c53722$__73__$f6541b0d362a0c7d99a2a29cd3d373d61b$__9091565b6001600160a01b03811660009081526006602052604081205460ff16156108a95750600161030c565b506001600160a01b03918216600090815260076020908152604080832093909416825291909152205460ff1690565b6108e28686610da6565b6108ea612105565b831561098157604080516001808252818301909252600091816020015b61090f61213a565b81526020019060019003908161090757905050905060008160008151811061093357fe5b6020026020010151905061094787826113af565b6109508661141b565b60608201528051602082015161096b9161ffff169042611431565b610976898984610fa2565b50925061098d915050565b61098a87610c14565b90505b610995612105565b6109a58888848488886000611082565b6109ae87611360565b15610a645760405163f23a6e6160e01b808252906001600160a01b0389169063f23a6e61906109eb9033908d908c908c908c908c90600401612879565b602060405180830381600087803b158015610a0557600080fd5b505af1158015610a19573d6000803e3d6000fd5b505050506040513d601f19601f82011682018060405250810190610a3d91906125ad565b6001600160e01b03191614610a645760405162461bcd60e51b81526004016104df90612b8d565b5050505050505050565b600080821215610a7d57600080fd5b5090565b60301c90565b600080610a92611468565b6000938452602052505060409020546001600160a01b031690565b600080600080610abc85610bd0565b925092509250600080610ad160078542611475565b915091508080610ade5750825b15610b2457610af3888661ffff168787610cd1565b95508215610b1f5760008612610b0a576000610b13565b610b1386610d98565b9550505050505061030c565b610bb9565b6000610b2f896114fc565b5093505050508060ff16831115610b4f576000965050505050505061030c565b6000610b5b8a83610d0b565b9050610b6561217e565b610b78818961ffff168942600180611565565b6080810151610b925760009850505050505050505061030c565b610bb2826001870381518110610ba457fe5b60200260200101518261158f565b9950505050505b505050505092915050565b60ff8116600114919050565b6000808060ff8416600114610bed57506000915081905080610c0d565b505050603081901c64ffffffffff600883901c16600160ff604085901c16145b9193909250565b610c1c612105565b6000610c26611610565b6001600160a01b03841660009081526020918252604090819020815160c081018352905464ffffffffff811682526001600160f81b031965010000000000820460f81b169382019390935260ff600160301b840481169282019290925261ffff600160381b84041660608201526001600160701b0319600160481b840460701b166080820152600160d81b90920416151560a0820152915050919050565b6060015161ffff16151590565b600061ffff83161580610ce85750838361ffff1614155b15610cf557506000610618565b610d04858461ffff168461161d565b9050610618565b6060610d178383611662565b509392505050565b6000805b8451811015610d8d576000858281518110610d3a57fe5b602002602001015190508461ffff16816000015161ffff16148015610d625750838160200151145b8015610d72575060408101516001145b15610d84576060015191506106fc9050565b50600101610d23565b506000949350505050565b600061030c6000198361167a565b806001600160a01b0316826001600160a01b031614158015610dd057506001600160a01b03811615155b8015610de557506001600160a01b0381163014155b610e015760405162461bcd60e51b81526004016104df90612a3f565b336001600160a01b0383161480610e1d5750610e1d8233610880565b610e395760405162461bcd60e51b81526004016104df90612a93565b610e42826116c8565b5050565b60606000848314610e5657600080fd5b6000808667ffffffffffffffff81118015610e7057600080fd5b50604051908082528060200260200182016040528015610eaa57816020015b610e9761213a565b815260200190600190039081610e8f5790505b50905060005b87811015610f95578015610f0457888860018303818110610ecd57fe5b90506020020135898983818110610ee057fe5b9050602002013511610f045760405162461bcd60e51b81526004016104df90612b34565b6000828281518110610f1257fe5b60200260200101519050610f4b8a8a84818110610f2b57fe5b90506020020135848481518110610f3e57fe5b60200260200101516113af565b610f62816000015161ffff16826020015142611431565b878783818110610f6e57fe5b602002919091013560608301819052600013159050610f8c57600193505b50600101610eb0565b5097909650945050505050565b610faa612105565b610fb2612105565b6000610fbd85610c14565b90506000610fca87610c14565b60405163ca25415360e01b815290915073__$f6541b0d362a0c7d99a2a29cd3d373d61b$__9063ca2541539061100c908a908a90869088908c906004016128ce565b6101806040518083038186803b15801561102557600080fd5b505af4158015611039573d6000803e3d6000fd5b505050506040513d601f19601f8201168201806040525081019061105d9190612678565b9250905061106b8188611743565b6110758287611743565b925090505b935093915050565b6000806020841061109f57600061109b85870187612579565b9250505b6001600160e01b03198216636689064360e01b14806110ce57506001600160e01b03198216630541f52760e41b145b806110e957506001600160e01b03198216633735195360e11b145b8061110457506001600160e01b03198216630276b64b60e01b145b1561121457611117602460048688612bb3565b810190611124919061232f565b9050886001600160a01b0316816001600160a01b031614806111675750876001600160a01b0316816001600160a01b031614801561116757506111678833610880565b6111835760405162461bcd60e51b81526004016104df90612a68565b600080306001600160a01b03163488886040516111a19291906127f1565b60006040518083038185875af1925050503d80600081146111de576040519150601f19603f3d011682016040523d82523d6000602084013e6111e3565b606091505b5091509150816111f282611862565b906112105760405162461bcd60e51b81526004016104df9190612a0c565b5050505b886001600160a01b0316816001600160a01b031614158015611243575060208701516001600160f81b03191615155b156112b057604051636ccc642f60e01b815273__$841fddfe32830bb6dbc3a02d7f16c53722$__90636ccc642f9061127f908c90600401612801565b60006040518083038186803b15801561129757600080fd5b505af41580156112ab573d6000803e3d6000fd5b505050505b8280156112cf5750876001600160a01b0316816001600160a01b031614155b80156112e8575060208601516001600160f81b03191615155b1561135557604051636ccc642f60e01b815273__$841fddfe32830bb6dbc3a02d7f16c53722$__90636ccc642f90611324908b90600401612801565b60006040518083038186803b15801561133c57600080fd5b505af4158015611350573d6000803e3d6000fd5b505050505b505050505050505050565b3b151590565b6000613fff61ffff8516111561137b57600080fd5b64ffffffffff83111561138d57600080fd5b61139784846118c2565b905060008212156106fc57600160401b179392505050565b6113b882610bc4565b6113d45760405162461bcd60e51b81526004016104df90612b60565b60006113df83610bd0565b602085019190915261ffff90911683529050801561140f5760405162461bcd60e51b81526004016104df90612ae0565b50600160409091015250565b60006001600160ff1b03821115610a7d57600080fd5b61144761143d846118e0565b60ff1683836118f6565b6114635760405162461bcd60e51b81526004016104df90612b0a565b505050565b60008061030c6003611946565b6000806000851161148557600080fd5b600785111561149357600080fd5b600061149e8461195f565b905060015b8681116114f65760006114bf6114b883611980565b8490611a24565b9050868114156114d7575092506000915061107a9050565b868111156114ed575092506001915061107a9050565b506001016114a3565b50600080fd5b60008060008060008061150d611a36565b6001600160a01b039097166000908152602097909752505060409094205461ffff81169563ffffffff62010000830481169650600160301b830416945060ff600160501b8304169350600160581b90910460d01b9150565b60006276a7006115748561195f565b01905061158687878787878787611a43565b50505050505050565b60008061159f8460400151611a7a565b80156115b057506000846060015112155b6115b957600080fd5b6115e283608001516115dc8660600151866060015161167a90919063ffffffff16565b90611a90565b915061160783608001516115dc8660600151866040015161167a90919063ffffffff16565b90509250929050565b60008061030c6001611946565b600080611628611ac1565b6001600160a01b03861660009081526020918252604080822087835283528082208683529092522054600f90810b900b9150509392505050565b60608061166f8484611ace565b915061160782611be6565b8181026000198314156116aa5781158061169c57508282828161169957fe5b05145b6116a557600080fd5b61030c565b8215806116bf5750818382816116bc57fe5b05145b61030c57600080fd5b6001600160a01b0381166116db57600080fd5b6001600160a01b038116610fee14156116f357600080fd5b6001600160a01b0381166105e7141561170b57600080fd5b6001600160a01b03811630141561172157600080fd5b600061172c826114fc565b5050505061ffff16905080600014610e4257600080fd5b600061174d611610565b6001600160a01b03831660008181526020838152604080832088518154938a01518a84015160608c015160808d015160a08e015164ffffffffff1990981664ffffffffff9095169490941765ff000000000019166501000000000060f89490941c939093029290921766ff0000000000001916600160301b60ff909216919091021768ffff000000000000001916600160381b61ffff90921691909102177affffffffffffffffffffffffffffffffffff0000000000000000001916600160481b60709290921c919091021760ff60d81b1916600160d81b93151593909302929092179091555192935090917f6bd4b121bca854a191536a2ca891155c42ee2fb23f307fb34e8bc65cfcb5412e9190a2505050565b60606044825110156118a8575060408051808201909152601d81527f5472616e73616374696f6e2072657665727465642073696c656e746c790000006020820152610327565b6004820191508180602001905181019061030c91906125e1565b67ffff000000000000603083901b16600882901b1760011792915050565b6000806118ec83611da7565b60ff169392505050565b6000806119028361195f565b9050600061191961191287611980565b8390611a24565b90508085111561192e576000925050506106fc565b600061193a8587611dc4565b98975050505050505050565b6000620f424082602681111561195857fe5b0192915050565b60006276a70082101561197157600080fd5b6276a700825b06909103919050565b6000816001141561199557506276a700610327565b81600214156119a8575062ed4e00610327565b81600314156119bc57506301da9c00610327565b81600414156119d057506303b53800610327565b81600514156119e457506309450c00610327565b81600614156119f8575063128a1800610327565b8160071415611a0c57506325143000610327565b60405162461bcd60e51b81526004016104df90612ab9565b6000828201838110156106fc57600080fd5b60008061030c6002611946565b611a508787878685611ecf565b611a698760e001518860a001518960c001518588611f8f565b60c090970196909652505050505050565b60006002821080159061030c5750506008101590565b600081600019148015611aa65750600160ff1b83145b15611ab057600080fd5b818381611ab957fe5b059392505050565b60008061030c600c611946565b606060088260ff161115611ae157600080fd5b6000611aeb612025565b6001600160a01b038516600090815260208290526040812091925060ff851667ffffffffffffffff81118015611b2057600080fd5b50604051908082528060200260200182016040528015611b5a57816020015b611b4761213a565b815260200190600190039081611b3f5790505b50905060005b8560ff168110156106da576000838260088110611b7957fe5b0190506000838381518110611b8a57fe5b602090810291909101810151835461ffff8116825264ffffffffff620100008204169282019290925260ff600160381b8304166040820152600160401b909104600a90810b900b60608201526080019190915250600101611b60565b80516060908067ffffffffffffffff81118015611c0257600080fd5b50604051908082528060200260200182016040528015611c2c578160200160208202803683370190505b50915060005b81811015611c89576000848281518110611c4857fe5b60200260200101519050611c69816000015182602001518360400151612032565b848381518110611c7557fe5b602090810291909101015250600101611c32565b5060015b81811015611da057805b600081118015611ccf5750838181518110611cae57fe5b6020026020010151846001830381518110611cc557fe5b6020026020010151115b15611d9757838181518110611ce057fe5b6020026020010151846001830381518110611cf757fe5b6020026020010151856001840381518110611d0e57fe5b60200260200101868481518110611d2157fe5b6020026020010182815250828152505050848181518110611d3e57fe5b6020026020010151856001830381518110611d5557fe5b6020026020010151866001840381518110611d6c57fe5b60200260200101878481518110611d7f57fe5b60209081029190910101919091525260001901611c97565b50600101611c8d565b5050919050565b600080611db261205b565b60009384526020525050604090205490565b6000806000611dd285612068565b905062015180840615611dec576000809250925050611ec8565b838110611e00576000809250925050611ec8565b6201518081850304605a8111611e1d57925060019150611ec89050565b6101688111611e5c576000620151806207e900840604820160591901905060068104605a0160068281611e4c57fe5b0660001494509450505050611ec8565b6108708111611e8c5760006201518062278d00840604820161016719019050601e8104608701601e8281611e4c57fe5b611de28111611ebc576000620151806276a700840604820161086f19019050605a810460c301605a8281611e4c57fe5b61010060009350935050505b9250929050565b6000611ed9612084565b6000868152602082815260408083208884528252808320868452825291829020808a52908901879052805469ffffffffffffffffffff808216938b0193909352600160501b810490921660608a015263ffffffff600160a01b8304811660a08b0152600160c01b8304811660c08b0152600160e01b90920490911660e0890152909150808415611f7e57600182015469ffffffffffffffffffff166080890152610a64565b600060808901525050505050505050565b6000808311611f9d57600080fd5b81861115611fac57508361201c565b6000611fb88388612091565b905083811115611fcb578591505061201c565b6000611fd782866120a6565b90506000611fe9633b9aca0083612091565b9050612016633b9aca006120106120008a856120bf565b61200a8c876120bf565b90611a24565b906120e6565b93505050505b95945050505050565b60008061030c600d611946565b67ffff000000000000603084901b1665ffffffffff00600884901b161760ff8216179392505050565b60008061030c6009611946565b60006201518082101561207a57600080fd5b6201518082611977565b60008061030c600a611946565b6000828211156120a057600080fd5b50900390565b60006106fc6120b984633b9aca006120bf565b836120e6565b6000826120ce5750600061030c565b828202828482816120db57fe5b04146106fc57600080fd5b60008082116120f457600080fd5b8183816120fd57fe5b049392505050565b6040805160c081018252600080825260208201819052918101829052606081018290526080810182905260a081019190915290565b6040518060c00160405280600061ffff168152602001600081526020016000815260200160008152602001600081526020016000600381111561217957fe5b905290565b60405180610100016040528060008019168152602001600081526020016000815260200160008152602001600081526020016000815260200160008152602001600081525090565b60008083601f8401126121d7578081fd5b50813567ffffffffffffffff8111156121ee578182fd5b6020830191508360208083028501011115611ec857600080fd5b805161032781612c23565b80516001600160701b03198116811461032757600080fd5b60008083601f84011261223c578182fd5b50813567ffffffffffffffff811115612253578182fd5b602083019150836020828501011115611ec857600080fd5b600060c0828403121561227c578081fd5b60405160c0810181811067ffffffffffffffff8211171561229957fe5b806040525080915082516122ac81612c57565b815260208301516001600160f81b0319811681146122c957600080fd5b60208201526122da60408401612324565b60408201526122eb60608401612319565b60608201526122fc60808401612213565b608082015261230d60a08401612208565b60a08201525092915050565b805161032781612c47565b805161032781612c6a565b600060208284031215612340578081fd5b81356106fc81612c0b565b6000806040838503121561235d578081fd5b823561236881612c0b565b9150602083013561237881612c0b565b809150509250929050565b60008060008060008060008060a0898b03121561239e578384fd5b88356123a981612c0b565b975060208901356123b981612c0b565b9650604089013567ffffffffffffffff808211156123d5578586fd5b6123e18c838d016121c6565b909850965060608b01359150808211156123f9578586fd5b6124058c838d016121c6565b909650945060808b013591508082111561241d578384fd5b5061242a8b828c0161222b565b999c989b5096995094979396929594505050565b60008060008060008060a08789031215612456578182fd5b863561246181612c0b565b9550602087013561247181612c0b565b94506040870135935060608701359250608087013567ffffffffffffffff81111561249a578283fd5b6124a689828a0161222b565b979a9699509497509295939492505050565b600080604083850312156124ca578182fd5b82356124d581612c0b565b9150602083013561237881612c23565b600080604083850312156124f7578182fd5b823561250281612c0b565b946020939093013593505050565b60008060008060408587031215612525578182fd5b843567ffffffffffffffff8082111561253c578384fd5b612548888389016121c6565b90965094506020870135915080821115612560578384fd5b5061256d878288016121c6565b95989497509550505050565b60006020828403121561258a578081fd5b5035919050565b6000602082840312156125a2578081fd5b81356106fc81612c31565b6000602082840312156125be578081fd5b81516106fc81612c31565b6000602082840312156125da578081fd5b5051919050565b6000602082840312156125f2578081fd5b815167ffffffffffffffff80821115612609578283fd5b818401915084601f83011261261c578283fd5b81518181111561262857fe5b604051601f8201601f19168101602001838111828210171561264657fe5b60405281815283820160200187101561265d578485fd5b61266e826020830160208701612bdb565b9695505050505050565b600080610180838503121561268b578182fd5b612695848461226b565b91506116078460c0850161226b565b6000806000606084860312156126b8578081fd5b83356126c381612c47565b925060208401356126d381612c57565b915060408401356126e381612c6a565b809150509250925092565b81835260006001600160fb1b03831115612706578081fd5b6020830280836020870137939093016020019283525090919050565b60008284528282602086013780602084860101526020601f19601f85011685010190509392505050565b805164ffffffffff1682526020808201516001600160f81b0319169083015260408082015160ff169083015260608082015161ffff16908301526080808201516001600160701b0319169083015260a0908101511515910152565b61ffff81511682526020810151602083015260408101516040830152606081015160608301526080810151608083015260a0810151600481106127e657fe5b8060a0840152505050565b6000828483379101908152919050565b6001600160a01b0391909116815260200190565b6001600160a01b0389811682528816602082015260a060408201819052600090612842908301888a6126ee565b82810360608401526128558187896126ee565b9050828103608084015261286a818587612722565b9b9a5050505050505050505050565b6001600160a01b03878116825286166020820152604081018590526060810184905260a06080820181905260009061193a9083018486612722565b6001600160a01b0392831681529116602082015260400190565b60006101e080830160018060a01b03808a1685526020818a16818701526128f8604087018a61274c565b61290661010087018961274c565b6101c0860193909352508451908190526102008401918086019190845b82811015612949576129368585516127a7565b60c0949094019392810192600101612923565b50929a9950505050505050505050565b6001600160a01b03929092168252602082015260400190565b6020808252825182820181905260009190848201906040850190845b818110156129aa5783518352928401929184019160010161298e565b50909695505050505050565b6020808252825182820181905260009190848201906040850190845b818110156129aa576129e58385516127a7565b9284019260c092909201916001016129d2565b901515815260200190565b90815260200190565b6000602082528251806020840152612a2b816040850160208701612bdb565b601f01601f19169190910160400192915050565b6020808252600f908201526e496e76616c6964206164647265737360881b604082015260600190565b602080825260119082015270155b985d5d1a1bdc9a5e99590818d85b1b607a1b604082015260600190565b6020808252600c908201526b155b985d5d1a1bdc9a5e995960a21b604082015260600190565b6020808252600d908201526c092dcecc2d8d2c840d2dcc8caf609b1b604082015260600190565b60208082526010908201526f2737902232b13a102a3930b739b332b960811b604082015260600190565b60208082526010908201526f496e76616c6964206d6174757269747960801b604082015260600190565b60208082526012908201527112511cc81b5d5cdd081899481cdbdc9d195960721b604082015260600190565b60208082526013908201527227b7363c903321b0b9b4102a3930b739b332b960691b604082015260600190565b6020808252600c908201526b139bdd081858d8d95c1d195960a21b604082015260600190565b60008085851115612bc2578182fd5b83861115612bce578182fd5b5050820193919092039150565b60005b83811015612bf6578181015183820152602001612bde565b83811115612c05576000848401525b50505050565b6001600160a01b0381168114612c2057600080fd5b50565b8015158114612c2057600080fd5b6001600160e01b031981168114612c2057600080fd5b61ffff81168114612c2057600080fd5b64ffffffffff81168114612c2057600080fd5b60ff81168114612c2057600080fdfea264697066735822122082340f6ac05260114dee027caedfff3f2d538c35745a12b461b1c8bf228103d464736f6c63430007060033","language":"Solidity","natspec":{"kind":"dev","methods":{"balanceOf(address,uint256)":{"notice":"Returns the balance of an ERC1155 id on an account.","params":{"account":"account to get the id for","id":"the ERC1155 id"},"returns":{"_0":"Balance of the ERC1155 id as an unsigned integer (negative fCash balances return zero)"}},"balanceOfBatch(address[],uint256[])":{"notice":"Returns the balance of a batch of accounts and ids. WARNING: negative fCash balances are represented as zero balances in the array. ","params":{"accounts":"array of accounts to get balances for","ids":"array of ids to get balances for"},"returns":{"_0":"Returns an array of unsigned balances"}},"decodeToAssets(uint256[],uint256[])":{"notice":"Decodes ids and amounts to PortfolioAsset objects","params":{"amounts":"amounts to transfer","ids":"array of ERC1155 ids"},"returns":{"_0":"array of portfolio asset objects"}},"encodeToId(uint16,uint40,uint8)":{"notice":"Encodes parameters into an ERC1155 id, this method always returns an fCash id","params":{"currencyId":"currency id of the asset","maturity":"timestamp of the maturity"},"returns":{"_0":"ERC1155 id"}},"getLibInfo()":{"notice":"Get a list of deployed library addresses (sorted by library name)"},"isApprovedForAll(address,address)":{"notice":"Checks approval state for an account, will first check if global transfer operator is enabled before falling through to an account specific transfer operator.","params":{"account":"address of the account","operator":"address of the operator"},"returns":{"_0":"true for approved"}},"safeBatchTransferFrom(address,address,uint256[],uint256[],bytes)":{"details":"emit:TransferBatch, emit:AccountContextUpdate, emit:AccountSettled","notice":"Transfer of a batch of fCash or liquidity token assets between accounts. Allows `from` account to transfer more fCash than they have as long as they pass a subsequent free collateral check. This enables OTC trading of fCash assets.","params":{"amounts":"amounts to transfer","data":"arbitrary data passed to ERC1155Receiver (if contract) and if properly specified can be used to initiate a trading action on Notional for the `from` address","from":"account to transfer from","ids":"ERC1155 ids of the assets","to":"account to transfer to"}},"safeTransferFrom(address,address,uint256,uint256,bytes)":{"details":"emit:TransferSingle, emit:AccountContextUpdate, emit:AccountSettled","notice":"Transfer of a single fCash or liquidity token asset between accounts. Allows `from` account to transfer more fCash than they have as long as they pass a subsequent free collateral check. This enables OTC trading of fCash assets.","params":{"amount":"amount to transfer","data":"arbitrary data passed to ERC1155Receiver (if contract) and if properly specified can be used to initiate a trading action on Notional for the `from` address","from":"account to transfer from","id":"ERC1155 id of the asset","to":"account to transfer to"}},"setApprovalForAll(address,bool)":{"details":"emit:ApprovalForAll","notice":"Allows an account to set approval for an operator","params":{"approved":"state of the approval","operator":"address of the operator"}},"signedBalanceOf(address,uint256)":{"notice":"Returns the balance of an ERC1155 id on an account.","params":{"account":"account to get the id for","id":"the ERC1155 id"},"returns":{"notional":"balance of the ERC1155 id as a signed integer"}},"signedBalanceOfBatch(address[],uint256[])":{"notice":"Returns the balance of a batch of accounts and ids.","params":{"accounts":"array of accounts to get balances for","ids":"array of ids to get balances for"},"returns":{"_0":"Returns an array of signed balances"}}},"version":1},"opcodes":"PUSH1 0x80 PUSH1 0x40 MSTORE PUSH1 0x4 CALLDATASIZE LT PUSH2 0xE7 JUMPI PUSH1 0x0 CALLDATALOAD PUSH1 0xE0 SHR DUP1 PUSH4 0x735A1DC8 GT PUSH2 0x8A JUMPI DUP1 PUSH4 0xA22CB465 GT PUSH2 0x59 JUMPI DUP1 PUSH4 0xA22CB465 EQ PUSH2 0x26A JUMPI DUP1 PUSH4 0xC4C96DAE EQ PUSH2 0x28A JUMPI DUP1 PUSH4 0xE985E9C5 EQ PUSH2 0x2AD JUMPI DUP1 PUSH4 0xF242432A EQ PUSH2 0x2CD JUMPI PUSH2 0xE7 JUMP JUMPDEST DUP1 PUSH4 0x735A1DC8 EQ PUSH2 0x200 JUMPI DUP1 PUSH4 0x81A86855 EQ PUSH2 0x220 JUMPI DUP1 PUSH4 0x82463367 EQ PUSH2 0x240 JUMPI DUP1 PUSH4 0x8DA5CB5B EQ PUSH2 0x255 JUMPI PUSH2 0xE7 JUMP JUMPDEST DUP1 PUSH4 0x24A3D622 GT PUSH2 0xC6 JUMPI DUP1 PUSH4 0x24A3D622 EQ PUSH2 0x16F JUMPI DUP1 PUSH4 0x2EB2C2D6 EQ PUSH2 0x191 JUMPI DUP1 PUSH4 0x3FA6B808 EQ PUSH2 0x1A6 JUMPI DUP1 PUSH4 0x4E1273F4 EQ PUSH2 0x1D3 JUMPI PUSH2 0xE7 JUMP JUMPDEST DUP1 PUSH3 0xFDD58E EQ PUSH2 0xEC JUMPI DUP1 PUSH4 0x1FFC9A7 EQ PUSH2 0x122 JUMPI DUP1 PUSH4 0xFAC8F09 EQ PUSH2 0x14F JUMPI JUMPDEST PUSH1 0x0 DUP1 REVERT JUMPDEST CALLVALUE DUP1 ISZERO PUSH2 0xF8 JUMPI PUSH1 0x0 DUP1 REVERT JUMPDEST POP PUSH2 0x10C PUSH2 0x107 CALLDATASIZE PUSH1 0x4 PUSH2 0x24E5 JUMP JUMPDEST PUSH2 0x2E0 JUMP JUMPDEST PUSH1 0x40 MLOAD PUSH2 0x119 SWAP2 SWAP1 PUSH2 0x2A03 JUMP JUMPDEST PUSH1 0x40 MLOAD DUP1 SWAP2 SUB SWAP1 RETURN JUMPDEST CALLVALUE DUP1 ISZERO PUSH2 0x12E JUMPI PUSH1 0x0 DUP1 REVERT JUMPDEST POP PUSH2 0x142 PUSH2 0x13D CALLDATASIZE PUSH1 0x4 PUSH2 0x2591 JUMP JUMPDEST PUSH2 0x312 JUMP JUMPDEST PUSH1 0x40 MLOAD PUSH2 0x119 SWAP2 SWAP1 PUSH2 0x29F8 JUMP JUMPDEST CALLVALUE DUP1 ISZERO PUSH2 0x15B JUMPI PUSH1 0x0 DUP1 REVERT JUMPDEST POP PUSH2 0x10C PUSH2 0x16A CALLDATASIZE PUSH1 0x4 PUSH2 0x24E5 JUMP JUMPDEST PUSH2 0x32C JUMP JUMPDEST CALLVALUE DUP1 ISZERO PUSH2 0x17B JUMPI PUSH1 0x0 DUP1 REVERT JUMPDEST POP PUSH2 0x184 PUSH2 0x487 JUMP JUMPDEST PUSH1 0x40 MLOAD PUSH2 0x119 SWAP2 SWAP1 PUSH2 0x2801 JUMP JUMPDEST PUSH2 0x1A4 PUSH2 0x19F CALLDATASIZE PUSH1 0x4 PUSH2 0x2383 JUMP JUMPDEST PUSH2 0x496 JUMP JUMPDEST STOP JUMPDEST CALLVALUE DUP1 ISZERO PUSH2 0x1B2 JUMPI PUSH1 0x0 DUP1 REVERT JUMPDEST POP PUSH2 0x1C6 PUSH2 0x1C1 CALLDATASIZE PUSH1 0x4 PUSH2 0x2510 JUMP JUMPDEST PUSH2 0x603 JUMP JUMPDEST PUSH1 0x40 MLOAD PUSH2 0x119 SWAP2 SWAP1 PUSH2 0x29B6 JUMP JUMPDEST CALLVALUE DUP1 ISZERO PUSH2 0x1DF JUMPI PUSH1 0x0 DUP1 REVERT JUMPDEST POP PUSH2 0x1F3 PUSH2 0x1EE CALLDATASIZE PUSH1 0x4 PUSH2 0x2510 JUMP JUMPDEST PUSH2 0x620 JUMP JUMPDEST PUSH1 0x40 MLOAD PUSH2 0x119 SWAP2 SWAP1 PUSH2 0x2972 JUMP JUMPDEST CALLVALUE DUP1 ISZERO PUSH2 0x20C JUMPI PUSH1 0x0 DUP1 REVERT JUMPDEST POP PUSH2 0x10C PUSH2 0x21B CALLDATASIZE PUSH1 0x4 PUSH2 0x26A4 JUMP JUMPDEST PUSH2 0x6E4 JUMP JUMPDEST CALLVALUE DUP1 ISZERO PUSH2 0x22C JUMPI PUSH1 0x0 DUP1 REVERT JUMPDEST POP PUSH2 0x1F3 PUSH2 0x23B CALLDATASIZE PUSH1 0x4 PUSH2 0x2510 JUMP JUMPDEST PUSH2 0x703 JUMP JUMPDEST CALLVALUE DUP1 ISZERO PUSH2 0x24C JUMPI PUSH1 0x0 DUP1 REVERT JUMPDEST POP PUSH2 0x184 PUSH2 0x7BD JUMP JUMPDEST CALLVALUE DUP1 ISZERO PUSH2 0x261 JUMPI PUSH1 0x0 DUP1 REVERT JUMPDEST POP PUSH2 0x184 PUSH2 0x7CC JUMP JUMPDEST CALLVALUE DUP1 ISZERO PUSH2 0x276 JUMPI PUSH1 0x0 DUP1 REVERT JUMPDEST POP PUSH2 0x1A4 PUSH2 0x285 CALLDATASIZE PUSH1 0x4 PUSH2 0x24B8 JUMP JUMPDEST PUSH2 0x7E3 JUMP JUMPDEST CALLVALUE DUP1 ISZERO PUSH2 0x296 JUMPI PUSH1 0x0 DUP1 REVERT JUMPDEST POP PUSH2 0x29F PUSH2 0x852 JUMP JUMPDEST PUSH1 0x40 MLOAD PUSH2 0x119 SWAP3 SWAP2 SWAP1 PUSH2 0x28B4 JUMP JUMPDEST CALLVALUE DUP1 ISZERO PUSH2 0x2B9 JUMPI PUSH1 0x0 DUP1 REVERT JUMPDEST POP PUSH2 0x142 PUSH2 0x2C8 CALLDATASIZE PUSH1 0x4 PUSH2 0x234B JUMP JUMPDEST PUSH2 0x880 JUMP JUMPDEST PUSH2 0x1A4 PUSH2 0x2DB CALLDATASIZE PUSH1 0x4 PUSH2 0x243E JUMP JUMPDEST PUSH2 0x8D8 JUMP JUMPDEST PUSH1 0x0 DUP1 PUSH2 0x2ED DUP5 DUP5 PUSH2 0x32C JUMP JUMPDEST SWAP1 POP PUSH1 0x0 DUP2 SLT PUSH2 0x305 JUMPI PUSH2 0x300 DUP2 PUSH2 0xA6E JUMP JUMPDEST PUSH2 0x308 JUMP JUMPDEST PUSH1 0x0 JUMPDEST SWAP2 POP POP JUMPDEST SWAP3 SWAP2 POP POP JUMP JUMPDEST PUSH1 0x1 PUSH1 0x1 PUSH1 0xE0 SHL SUB NOT DUP2 AND PUSH4 0x6CDB3D13 PUSH1 0xE1 SHL EQ JUMPDEST SWAP2 SWAP1 POP JUMP JUMPDEST PUSH1 0x0 DUP3 PUSH1 0x1 PUSH1 0x1 PUSH1 0xA0 SHL SUB AND PUSH2 0x34D PUSH2 0x344 DUP5 PUSH2 0xA81 JUMP JUMPDEST PUSH2 0xFFFF AND PUSH2 0xA87 JUMP JUMPDEST PUSH1 0x1 PUSH1 0x1 PUSH1 0xA0 SHL SUB AND EQ ISZERO PUSH2 0x36D JUMPI PUSH2 0x366 DUP4 DUP4 PUSH2 0xAAD JUMP JUMPDEST SWAP1 POP PUSH2 0x30C JUMP JUMPDEST PUSH2 0x376 DUP3 PUSH2 0xBC4 JUMP JUMPDEST ISZERO PUSH2 0x412 JUMPI PUSH1 0x0 DUP1 PUSH1 0x0 PUSH2 0x389 DUP6 PUSH2 0xBD0 JUMP JUMPDEST SWAP3 POP SWAP3 POP SWAP3 POP PUSH1 0x0 PUSH2 0x39A DUP8 PUSH2 0xC14 JUMP JUMPDEST SWAP1 POP PUSH2 0x3A5 DUP2 PUSH2 0xCC4 JUMP JUMPDEST ISZERO PUSH2 0x3C5 JUMPI PUSH2 0x3BE DUP8 DUP3 PUSH1 0x60 ADD MLOAD PUSH2 0xFFFF AND DUP7 DUP7 PUSH2 0xCD1 JUMP JUMPDEST SWAP5 POP PUSH2 0x3E0 JUMP JUMPDEST PUSH2 0x3DD PUSH2 0x3D6 DUP9 DUP4 PUSH1 0x40 ADD MLOAD PUSH2 0xD0B JUMP JUMPDEST DUP6 DUP6 PUSH2 0xD1F JUMP JUMPDEST SWAP5 POP JUMPDEST DUP2 ISZERO PUSH2 0x409 JUMPI PUSH1 0x0 DUP6 SLT PUSH2 0x3F5 JUMPI PUSH1 0x0 PUSH2 0x3FE JUMP JUMPDEST PUSH2 0x3FE DUP6 PUSH2 0xD98 JUMP JUMPDEST SWAP5 POP POP POP POP POP PUSH2 0x30C JUMP JUMPDEST POP POP POP POP PUSH2 0x30C JUMP JUMPDEST PUSH1 0x40 MLOAD PUSH4 0x4A7A341 PUSH1 0xE4 SHL DUP2 MSTORE ADDRESS SWAP1 PUSH4 0x4A7A3410 SWAP1 PUSH2 0x437 SWAP1 DUP7 SWAP1 DUP7 SWAP1 PUSH1 0x4 ADD PUSH2 0x2959 JUMP JUMPDEST PUSH1 0x20 PUSH1 0x40 MLOAD DUP1 DUP4 SUB DUP2 DUP7 DUP1 EXTCODESIZE ISZERO DUP1 ISZERO PUSH2 0x44F JUMPI PUSH1 0x0 DUP1 REVERT JUMPDEST POP GAS STATICCALL ISZERO DUP1 ISZERO PUSH2 0x463 JUMPI RETURNDATASIZE PUSH1 0x0 DUP1 RETURNDATACOPY RETURNDATASIZE PUSH1 0x0 REVERT JUMPDEST POP POP POP POP PUSH1 0x40 MLOAD RETURNDATASIZE PUSH1 0x1F NOT PUSH1 0x1F DUP3 ADD AND DUP3 ADD DUP1 PUSH1 0x40 MSTORE POP DUP2 ADD SWAP1 PUSH2 0x366 SWAP2 SWAP1 PUSH2 0x25C9 JUMP JUMPDEST PUSH1 0x2 SLOAD PUSH1 0x1 PUSH1 0x1 PUSH1 0xA0 SHL SUB AND DUP2 JUMP JUMPDEST PUSH2 0x4A0 DUP9 DUP9 PUSH2 0xDA6 JUMP JUMPDEST PUSH1 0x0 DUP1 PUSH2 0x4AF DUP9 DUP9 DUP9 DUP9 PUSH2 0xE46 JUMP JUMPDEST SWAP2 POP SWAP2 POP DUP1 ISZERO PUSH2 0x4E8 JUMPI PUSH2 0x4C3 DUP10 CALLER PUSH2 0x880 JUMP JUMPDEST PUSH2 0x4E8 JUMPI PUSH1 0x40 MLOAD PUSH3 0x461BCD PUSH1 0xE5 SHL DUP2 MSTORE PUSH1 0x4 ADD PUSH2 0x4DF SWAP1 PUSH2 0x2A93 JUMP JUMPDEST PUSH1 0x40 MLOAD DUP1 SWAP2 SUB SWAP1 REVERT JUMPDEST PUSH1 0x0 DUP1 PUSH2 0x4F6 DUP13 DUP13 DUP7 PUSH2 0xFA2 JUMP JUMPDEST SWAP2 POP SWAP2 POP PUSH2 0x509 DUP13 DUP13 DUP5 DUP5 DUP11 DUP11 DUP10 PUSH2 0x1082 JUMP JUMPDEST PUSH2 0x512 DUP12 PUSH2 0x1360 JUMP JUMPDEST ISZERO PUSH2 0x5F5 JUMPI PUSH32 0xBC197C819B3E337A6F9652DD10BECD7EEF83032AF3B9D958D3D42F6694146621 PUSH1 0x1 PUSH1 0x1 PUSH1 0xE0 SHL SUB NOT AND DUP12 PUSH1 0x1 PUSH1 0x1 PUSH1 0xA0 SHL SUB AND PUSH4 0xBC197C81 CALLER DUP16 DUP15 DUP15 DUP15 DUP15 DUP15 DUP15 PUSH1 0x40 MLOAD DUP10 PUSH4 0xFFFFFFFF AND PUSH1 0xE0 SHL DUP2 MSTORE PUSH1 0x4 ADD PUSH2 0x57C SWAP9 SWAP8 SWAP7 SWAP6 SWAP5 SWAP4 SWAP3 SWAP2 SWAP1 PUSH2 0x2815 JUMP JUMPDEST PUSH1 0x20 PUSH1 0x40 MLOAD DUP1 DUP4 SUB DUP2 PUSH1 0x0 DUP8 DUP1 EXTCODESIZE ISZERO DUP1 ISZERO PUSH2 0x596 JUMPI PUSH1 0x0 DUP1 REVERT JUMPDEST POP GAS CALL ISZERO DUP1 ISZERO PUSH2 0x5AA JUMPI RETURNDATASIZE PUSH1 0x0 DUP1 RETURNDATACOPY RETURNDATASIZE PUSH1 0x0 REVERT JUMPDEST POP POP POP POP PUSH1 0x40 MLOAD RETURNDATASIZE PUSH1 0x1F NOT PUSH1 0x1F DUP3 ADD AND DUP3 ADD DUP1 PUSH1 0x40 MSTORE POP DUP2 ADD SWAP1 PUSH2 0x5CE SWAP2 SWAP1 PUSH2 0x25AD JUMP JUMPDEST PUSH1 0x1 PUSH1 0x1 PUSH1 0xE0 SHL SUB NOT AND EQ PUSH2 0x5F5 JUMPI PUSH1 0x40 MLOAD PUSH3 0x461BCD PUSH1 0xE5 SHL DUP2 MSTORE PUSH1 0x4 ADD PUSH2 0x4DF SWAP1 PUSH2 0x2B8D JUMP JUMPDEST POP POP POP POP POP POP POP POP POP POP POP POP JUMP JUMPDEST PUSH1 0x60 PUSH1 0x0 PUSH2 0x613 DUP7 DUP7 DUP7 DUP7 PUSH2 0xE46 JUMP JUMPDEST POP SWAP2 POP POP JUMPDEST SWAP5 SWAP4 POP POP POP POP JUMP JUMPDEST PUSH1 0x60 DUP4 DUP3 EQ PUSH2 0x62E JUMPI PUSH1 0x0 DUP1 REVERT JUMPDEST PUSH1 0x0 DUP5 PUSH8 0xFFFFFFFFFFFFFFFF DUP2 GT DUP1 ISZERO PUSH2 0x647 JUMPI PUSH1 0x0 DUP1 REVERT JUMPDEST POP PUSH1 0x40 MLOAD SWAP1 DUP1 DUP3 MSTORE DUP1 PUSH1 0x20 MUL PUSH1 0x20 ADD DUP3 ADD PUSH1 0x40 MSTORE DUP1 ISZERO PUSH2 0x671 JUMPI DUP2 PUSH1 0x20 ADD PUSH1 0x20 DUP3 MUL DUP1 CALLDATASIZE DUP4 CALLDATACOPY ADD SWAP1 POP JUMPDEST POP SWAP1 POP PUSH1 0x0 JUMPDEST DUP6 DUP2 LT ISZERO PUSH2 0x6DA JUMPI PUSH2 0x6BB DUP8 DUP8 DUP4 DUP2 DUP2 LT PUSH2 0x68E JUMPI INVALID JUMPDEST SWAP1 POP PUSH1 0x20 MUL ADD PUSH1 0x20 DUP2 ADD SWAP1 PUSH2 0x6A3 SWAP2 SWAP1 PUSH2 0x232F JUMP JUMPDEST DUP7 DUP7 DUP5 DUP2 DUP2 LT PUSH2 0x6AF JUMPI INVALID JUMPDEST SWAP1 POP PUSH1 0x20 MUL ADD CALLDATALOAD PUSH2 0x2E0 JUMP JUMPDEST DUP3 DUP3 DUP2 MLOAD DUP2 LT PUSH2 0x6C7 JUMPI INVALID JUMPDEST PUSH1 0x20 SWAP1 DUP2 MUL SWAP2 SWAP1 SWAP2 ADD ADD MSTORE PUSH1 0x1 ADD PUSH2 0x677 JUMP JUMPDEST POP SWAP6 SWAP5 POP POP POP POP POP JUMP JUMPDEST PUSH1 0x0 PUSH2 0x6F9 DUP5 DUP5 PUSH5 0xFFFFFFFFFF AND PUSH1 0x0 PUSH2 0x1366 JUMP JUMPDEST SWAP1 POP JUMPDEST SWAP4 SWAP3 POP POP POP JUMP JUMPDEST PUSH1 0x60 DUP4 DUP3 EQ PUSH2 0x711 JUMPI PUSH1 0x0 DUP1 REVERT JUMPDEST PUSH1 0x0 DUP5 PUSH8 0xFFFFFFFFFFFFFFFF DUP2 GT DUP1 ISZERO PUSH2 0x72A JUMPI PUSH1 0x0 DUP1 REVERT JUMPDEST POP PUSH1 0x40 MLOAD SWAP1 DUP1 DUP3 MSTORE DUP1 PUSH1 0x20 MUL PUSH1 0x20 ADD DUP3 ADD PUSH1 0x40 MSTORE DUP1 ISZERO PUSH2 0x754 JUMPI DUP2 PUSH1 0x20 ADD PUSH1 0x20 DUP3 MUL DUP1 CALLDATASIZE DUP4 CALLDATACOPY ADD SWAP1 POP JUMPDEST POP SWAP1 POP PUSH1 0x0 JUMPDEST DUP6 DUP2 LT ISZERO PUSH2 0x6DA JUMPI PUSH2 0x79E DUP8 DUP8 DUP4 DUP2 DUP2 LT PUSH2 0x771 JUMPI INVALID JUMPDEST SWAP1 POP PUSH1 0x20 MUL ADD PUSH1 0x20 DUP2 ADD SWAP1 PUSH2 0x786 SWAP2 SWAP1 PUSH2 0x232F JUMP JUMPDEST DUP7 DUP7 DUP5 DUP2 DUP2 LT PUSH2 0x792 JUMPI INVALID JUMPDEST SWAP1 POP PUSH1 0x20 MUL ADD CALLDATALOAD PUSH2 0x32C JUMP JUMPDEST DUP3 DUP3 DUP2 MLOAD DUP2 LT PUSH2 0x7AA JUMPI INVALID JUMPDEST PUSH1 0x20 SWAP1 DUP2 MUL SWAP2 SWAP1 SWAP2 ADD ADD MSTORE PUSH1 0x1 ADD PUSH2 0x75A JUMP JUMPDEST PUSH1 0x1 SLOAD PUSH1 0x1 PUSH1 0x1 PUSH1 0xA0 SHL SUB AND DUP2 JUMP JUMPDEST PUSH1 0x0 SLOAD PUSH5 0x100000000 SWAP1 DIV PUSH1 0x1 PUSH1 0x1 PUSH1 0xA0 SHL SUB AND DUP2 JUMP JUMPDEST CALLER PUSH1 0x0 DUP2 DUP2 MSTORE PUSH1 0x7 PUSH1 0x20 SWAP1 DUP2 MSTORE PUSH1 0x40 DUP1 DUP4 KECCAK256 PUSH1 0x1 PUSH1 0x1 PUSH1 0xA0 SHL SUB DUP8 AND DUP1 DUP6 MSTORE SWAP3 MSTORE SWAP2 DUP3 SWAP1 KECCAK256 DUP1 SLOAD PUSH1 0xFF NOT AND DUP6 ISZERO ISZERO OR SWAP1 SSTORE SWAP1 MLOAD SWAP1 SWAP2 SWAP1 PUSH32 0x17307EAB39AB6107E8899845AD3D59BD9653F200F220920489CA2B5937696C31 SWAP1 PUSH2 0x846 SWAP1 DUP6 SWAP1 PUSH2 0x29F8 JUMP JUMPDEST PUSH1 0x40 MLOAD DUP1 SWAP2 SUB SWAP1 LOG3 POP POP JUMP JUMPDEST PUSH20 0x0 PUSH20 0x0 SWAP1 SWAP2 JUMP JUMPDEST PUSH1 0x1 PUSH1 0x1 PUSH1 0xA0 SHL SUB DUP2 AND PUSH1 0x0 SWAP1 DUP2 MSTORE PUSH1 0x6 PUSH1 0x20 MSTORE PUSH1 0x40 DUP2 KECCAK256 SLOAD PUSH1 0xFF AND ISZERO PUSH2 0x8A9 JUMPI POP PUSH1 0x1 PUSH2 0x30C JUMP JUMPDEST POP PUSH1 0x1 PUSH1 0x1 PUSH1 0xA0 SHL SUB SWAP2 DUP3 AND PUSH1 0x0 SWAP1 DUP2 MSTORE PUSH1 0x7 PUSH1 0x20 SWAP1 DUP2 MSTORE PUSH1 0x40 DUP1 DUP4 KECCAK256 SWAP4 SWAP1 SWAP5 AND DUP3 MSTORE SWAP2 SWAP1 SWAP2 MSTORE KECCAK256 SLOAD PUSH1 0xFF AND SWAP1 JUMP JUMPDEST PUSH2 0x8E2 DUP7 DUP7 PUSH2 0xDA6 JUMP JUMPDEST PUSH2 0x8EA PUSH2 0x2105 JUMP JUMPDEST DUP4 ISZERO PUSH2 0x981 JUMPI PUSH1 0x40 DUP1 MLOAD PUSH1 0x1 DUP1 DUP3 MSTORE DUP2 DUP4 ADD SWAP1 SWAP3 MSTORE PUSH1 0x0 SWAP2 DUP2 PUSH1 0x20 ADD JUMPDEST PUSH2 0x90F PUSH2 0x213A JUMP JUMPDEST DUP2 MSTORE PUSH1 0x20 ADD SWAP1 PUSH1 0x1 SWAP1 SUB SWAP1 DUP2 PUSH2 0x907 JUMPI SWAP1 POP POP SWAP1 POP PUSH1 0x0 DUP2 PUSH1 0x0 DUP2 MLOAD DUP2 LT PUSH2 0x933 JUMPI INVALID JUMPDEST PUSH1 0x20 MUL PUSH1 0x20 ADD ADD MLOAD SWAP1 POP PUSH2 0x947 DUP8 DUP3 PUSH2 0x13AF JUMP JUMPDEST PUSH2 0x950 DUP7 PUSH2 0x141B JUMP JUMPDEST PUSH1 0x60 DUP3 ADD MSTORE DUP1 MLOAD PUSH1 0x20 DUP3 ADD MLOAD PUSH2 0x96B SWAP2 PUSH2 0xFFFF AND SWAP1 TIMESTAMP PUSH2 0x1431 JUMP JUMPDEST PUSH2 0x976 DUP10 DUP10 DUP5 PUSH2 0xFA2 JUMP JUMPDEST POP SWAP3 POP PUSH2 0x98D SWAP2 POP POP JUMP JUMPDEST PUSH2 0x98A DUP8 PUSH2 0xC14 JUMP JUMPDEST SWAP1 POP JUMPDEST PUSH2 0x995 PUSH2 0x2105 JUMP JUMPDEST PUSH2 0x9A5 DUP9 DUP9 DUP5 DUP5 DUP9 DUP9 PUSH1 0x0 PUSH2 0x1082 JUMP JUMPDEST PUSH2 0x9AE DUP8 PUSH2 0x1360 JUMP JUMPDEST ISZERO PUSH2 0xA64 JUMPI PUSH1 0x40 MLOAD PUSH4 0xF23A6E61 PUSH1 0xE0 SHL DUP1 DUP3 MSTORE SWAP1 PUSH1 0x1 PUSH1 0x1 PUSH1 0xA0 SHL SUB DUP10 AND SWAP1 PUSH4 0xF23A6E61 SWAP1 PUSH2 0x9EB SWAP1 CALLER SWAP1 DUP14 SWAP1 DUP13 SWAP1 DUP13 SWAP1 DUP13 SWAP1 DUP13 SWAP1 PUSH1 0x4 ADD PUSH2 0x2879 JUMP JUMPDEST PUSH1 0x20 PUSH1 0x40 MLOAD DUP1 DUP4 SUB DUP2 PUSH1 0x0 DUP8 DUP1 EXTCODESIZE ISZERO DUP1 ISZERO PUSH2 0xA05 JUMPI PUSH1 0x0 DUP1 REVERT JUMPDEST POP GAS CALL ISZERO DUP1 ISZERO PUSH2 0xA19 JUMPI RETURNDATASIZE PUSH1 0x0 DUP1 RETURNDATACOPY RETURNDATASIZE PUSH1 0x0 REVERT JUMPDEST POP POP POP POP PUSH1 0x40 MLOAD RETURNDATASIZE PUSH1 0x1F NOT PUSH1 0x1F DUP3 ADD AND DUP3 ADD DUP1 PUSH1 0x40 MSTORE POP DUP2 ADD SWAP1 PUSH2 0xA3D SWAP2 SWAP1 PUSH2 0x25AD JUMP JUMPDEST PUSH1 0x1 PUSH1 0x1 PUSH1 0xE0 SHL SUB NOT AND EQ PUSH2 0xA64 JUMPI PUSH1 0x40 MLOAD PUSH3 0x461BCD PUSH1 0xE5 SHL DUP2 MSTORE PUSH1 0x4 ADD PUSH2 0x4DF SWAP1 PUSH2 0x2B8D JUMP JUMPDEST POP POP POP POP POP POP POP POP JUMP JUMPDEST PUSH1 0x0 DUP1 DUP3 SLT ISZERO PUSH2 0xA7D JUMPI PUSH1 0x0 DUP1 REVERT JUMPDEST POP SWAP1 JUMP JUMPDEST PUSH1 0x30 SHR SWAP1 JUMP JUMPDEST PUSH1 0x0 DUP1 PUSH2 0xA92 PUSH2 0x1468 JUMP JUMPDEST PUSH1 0x0 SWAP4 DUP5 MSTORE PUSH1 0x20 MSTORE POP POP PUSH1 0x40 SWAP1 KECCAK256 SLOAD PUSH1 0x1 PUSH1 0x1 PUSH1 0xA0 SHL SUB AND SWAP1 JUMP JUMPDEST PUSH1 0x0 DUP1 PUSH1 0x0 DUP1 PUSH2 0xABC DUP6 PUSH2 0xBD0 JUMP JUMPDEST SWAP3 POP SWAP3 POP SWAP3 POP PUSH1 0x0 DUP1 PUSH2 0xAD1 PUSH1 0x7 DUP6 TIMESTAMP PUSH2 0x1475 JUMP JUMPDEST SWAP2 POP SWAP2 POP DUP1 DUP1 PUSH2 0xADE JUMPI POP DUP3 JUMPDEST ISZERO PUSH2 0xB24 JUMPI PUSH2 0xAF3 DUP9 DUP7 PUSH2 0xFFFF AND DUP8 DUP8 PUSH2 0xCD1 JUMP JUMPDEST SWAP6 POP DUP3 ISZERO PUSH2 0xB1F JUMPI PUSH1 0x0 DUP7 SLT PUSH2 0xB0A JUMPI PUSH1 0x0 PUSH2 0xB13 JUMP JUMPDEST PUSH2 0xB13 DUP7 PUSH2 0xD98 JUMP JUMPDEST SWAP6 POP POP POP POP POP POP PUSH2 0x30C JUMP JUMPDEST PUSH2 0xBB9 JUMP JUMPDEST PUSH1 0x0 PUSH2 0xB2F DUP10 PUSH2 0x14FC JUMP JUMPDEST POP SWAP4 POP POP POP POP DUP1 PUSH1 0xFF AND DUP4 GT ISZERO PUSH2 0xB4F JUMPI PUSH1 0x0 SWAP7 POP POP POP POP POP POP POP PUSH2 0x30C JUMP JUMPDEST PUSH1 0x0 PUSH2 0xB5B DUP11 DUP4 PUSH2 0xD0B JUMP JUMPDEST SWAP1 POP PUSH2 0xB65 PUSH2 0x217E JUMP JUMPDEST PUSH2 0xB78 DUP2 DUP10 PUSH2 0xFFFF AND DUP10 TIMESTAMP PUSH1 0x1 DUP1 PUSH2 0x1565 JUMP JUMPDEST PUSH1 0x80 DUP2 ADD MLOAD PUSH2 0xB92 JUMPI PUSH1 0x0 SWAP9 POP POP POP POP POP POP POP POP POP PUSH2 0x30C JUMP JUMPDEST PUSH2 0xBB2 DUP3 PUSH1 0x1 DUP8 SUB DUP2 MLOAD DUP2 LT PUSH2 0xBA4 JUMPI INVALID JUMPDEST PUSH1 0x20 MUL PUSH1 0x20 ADD ADD MLOAD DUP3 PUSH2 0x158F JUMP JUMPDEST SWAP10 POP POP POP POP POP JUMPDEST POP POP POP POP POP SWAP3 SWAP2 POP POP JUMP JUMPDEST PUSH1 0xFF DUP2 AND PUSH1 0x1 EQ SWAP2 SWAP1 POP JUMP JUMPDEST PUSH1 0x0 DUP1 DUP1 PUSH1 0xFF DUP5 AND PUSH1 0x1 EQ PUSH2 0xBED JUMPI POP PUSH1 0x0 SWAP2 POP DUP2 SWAP1 POP DUP1 PUSH2 0xC0D JUMP JUMPDEST POP POP POP PUSH1 0x30 DUP2 SWAP1 SHR PUSH5 0xFFFFFFFFFF PUSH1 0x8 DUP4 SWAP1 SHR AND PUSH1 0x1 PUSH1 0xFF PUSH1 0x40 DUP6 SWAP1 SHR AND EQ JUMPDEST SWAP2 SWAP4 SWAP1 SWAP3 POP JUMP JUMPDEST PUSH2 0xC1C PUSH2 0x2105 JUMP JUMPDEST PUSH1 0x0 PUSH2 0xC26 PUSH2 0x1610 JUMP JUMPDEST PUSH1 0x1 PUSH1 0x1 PUSH1 0xA0 SHL SUB DUP5 AND PUSH1 0x0 SWAP1 DUP2 MSTORE PUSH1 0x20 SWAP2 DUP3 MSTORE PUSH1 0x40 SWAP1 DUP2 SWAP1 KECCAK256 DUP2 MLOAD PUSH1 0xC0 DUP2 ADD DUP4 MSTORE SWAP1 SLOAD PUSH5 0xFFFFFFFFFF DUP2 AND DUP3 MSTORE PUSH1 0x1 PUSH1 0x1 PUSH1 0xF8 SHL SUB NOT PUSH6 0x10000000000 DUP3 DIV PUSH1 0xF8 SHL AND SWAP4 DUP3 ADD SWAP4 SWAP1 SWAP4 MSTORE PUSH1 0xFF PUSH1 0x1 PUSH1 0x30 SHL DUP5 DIV DUP2 AND SWAP3 DUP3 ADD SWAP3 SWAP1 SWAP3 MSTORE PUSH2 0xFFFF PUSH1 0x1 PUSH1 0x38 SHL DUP5 DIV AND PUSH1 0x60 DUP3 ADD MSTORE PUSH1 0x1 PUSH1 0x1 PUSH1 0x70 SHL SUB NOT PUSH1 0x1 PUSH1 0x48 SHL DUP5 DIV PUSH1 0x70 SHL AND PUSH1 0x80 DUP3 ADD MSTORE PUSH1 0x1 PUSH1 0xD8 SHL SWAP1 SWAP3 DIV AND ISZERO ISZERO PUSH1 0xA0 DUP3 ADD MSTORE SWAP2 POP POP SWAP2 SWAP1 POP JUMP JUMPDEST PUSH1 0x60 ADD MLOAD PUSH2 0xFFFF AND ISZERO ISZERO SWAP1 JUMP JUMPDEST PUSH1 0x0 PUSH2 0xFFFF DUP4 AND ISZERO DUP1 PUSH2 0xCE8 JUMPI POP DUP4 DUP4 PUSH2 0xFFFF AND EQ ISZERO JUMPDEST ISZERO PUSH2 0xCF5 JUMPI POP PUSH1 0x0 PUSH2 0x618 JUMP JUMPDEST PUSH2 0xD04 DUP6 DUP5 PUSH2 0xFFFF AND DUP5 PUSH2 0x161D JUMP JUMPDEST SWAP1 POP PUSH2 0x618 JUMP JUMPDEST PUSH1 0x60 PUSH2 0xD17 DUP4 DUP4 PUSH2 0x1662 JUMP JUMPDEST POP SWAP4 SWAP3 POP POP POP JUMP JUMPDEST PUSH1 0x0 DUP1 JUMPDEST DUP5 MLOAD DUP2 LT ISZERO PUSH2 0xD8D JUMPI PUSH1 0x0 DUP6 DUP3 DUP2 MLOAD DUP2 LT PUSH2 0xD3A JUMPI INVALID JUMPDEST PUSH1 0x20 MUL PUSH1 0x20 ADD ADD MLOAD SWAP1 POP DUP5 PUSH2 0xFFFF AND DUP2 PUSH1 0x0 ADD MLOAD PUSH2 0xFFFF AND EQ DUP1 ISZERO PUSH2 0xD62 JUMPI POP DUP4 DUP2 PUSH1 0x20 ADD MLOAD EQ JUMPDEST DUP1 ISZERO PUSH2 0xD72 JUMPI POP PUSH1 0x40 DUP2 ADD MLOAD PUSH1 0x1 EQ JUMPDEST ISZERO PUSH2 0xD84 JUMPI PUSH1 0x60 ADD MLOAD SWAP2 POP PUSH2 0x6FC SWAP1 POP JUMP JUMPDEST POP PUSH1 0x1 ADD PUSH2 0xD23 JUMP JUMPDEST POP PUSH1 0x0 SWAP5 SWAP4 POP POP POP POP JUMP JUMPDEST PUSH1 0x0 PUSH2 0x30C PUSH1 0x0 NOT DUP4 PUSH2 0x167A JUMP JUMPDEST DUP1 PUSH1 0x1 PUSH1 0x1 PUSH1 0xA0 SHL SUB AND DUP3 PUSH1 0x1 PUSH1 0x1 PUSH1 0xA0 SHL SUB AND EQ ISZERO DUP1 ISZERO PUSH2 0xDD0 JUMPI POP PUSH1 0x1 PUSH1 0x1 PUSH1 0xA0 SHL SUB DUP2 AND ISZERO ISZERO JUMPDEST DUP1 ISZERO PUSH2 0xDE5 JUMPI POP PUSH1 0x1 PUSH1 0x1 PUSH1 0xA0 SHL SUB DUP2 AND ADDRESS EQ ISZERO JUMPDEST PUSH2 0xE01 JUMPI PUSH1 0x40 MLOAD PUSH3 0x461BCD PUSH1 0xE5 SHL DUP2 MSTORE PUSH1 0x4 ADD PUSH2 0x4DF SWAP1 PUSH2 0x2A3F JUMP JUMPDEST CALLER PUSH1 0x1 PUSH1 0x1 PUSH1 0xA0 SHL SUB DUP4 AND EQ DUP1 PUSH2 0xE1D JUMPI POP PUSH2 0xE1D DUP3 CALLER PUSH2 0x880 JUMP JUMPDEST PUSH2 0xE39 JUMPI PUSH1 0x40 MLOAD PUSH3 0x461BCD PUSH1 0xE5 SHL DUP2 MSTORE PUSH1 0x4 ADD PUSH2 0x4DF SWAP1 PUSH2 0x2A93 JUMP JUMPDEST PUSH2 0xE42 DUP3 PUSH2 0x16C8 JUMP JUMPDEST POP POP JUMP JUMPDEST PUSH1 0x60 PUSH1 0x0 DUP5 DUP4 EQ PUSH2 0xE56 JUMPI PUSH1 0x0 DUP1 REVERT JUMPDEST PUSH1 0x0 DUP1 DUP7 PUSH8 0xFFFFFFFFFFFFFFFF DUP2 GT DUP1 ISZERO PUSH2 0xE70 JUMPI PUSH1 0x0 DUP1 REVERT JUMPDEST POP PUSH1 0x40 MLOAD SWAP1 DUP1 DUP3 MSTORE DUP1 PUSH1 0x20 MUL PUSH1 0x20 ADD DUP3 ADD PUSH1 0x40 MSTORE DUP1 ISZERO PUSH2 0xEAA JUMPI DUP2 PUSH1 0x20 ADD JUMPDEST PUSH2 0xE97 PUSH2 0x213A JUMP JUMPDEST DUP2 MSTORE PUSH1 0x20 ADD SWAP1 PUSH1 0x1 SWAP1 SUB SWAP1 DUP2 PUSH2 0xE8F JUMPI SWAP1 POP JUMPDEST POP SWAP1 POP PUSH1 0x0 JUMPDEST DUP8 DUP2 LT ISZERO PUSH2 0xF95 JUMPI DUP1 ISZERO PUSH2 0xF04 JUMPI DUP9 DUP9 PUSH1 0x1 DUP4 SUB DUP2 DUP2 LT PUSH2 0xECD JUMPI INVALID JUMPDEST SWAP1 POP PUSH1 0x20 MUL ADD CALLDATALOAD DUP10 DUP10 DUP4 DUP2 DUP2 LT PUSH2 0xEE0 JUMPI INVALID JUMPDEST SWAP1 POP PUSH1 0x20 MUL ADD CALLDATALOAD GT PUSH2 0xF04 JUMPI PUSH1 0x40 MLOAD PUSH3 0x461BCD PUSH1 0xE5 SHL DUP2 MSTORE PUSH1 0x4 ADD PUSH2 0x4DF SWAP1 PUSH2 0x2B34 JUMP JUMPDEST PUSH1 0x0 DUP3 DUP3 DUP2 MLOAD DUP2 LT PUSH2 0xF12 JUMPI INVALID JUMPDEST PUSH1 0x20 MUL PUSH1 0x20 ADD ADD MLOAD SWAP1 POP PUSH2 0xF4B DUP11 DUP11 DUP5 DUP2 DUP2 LT PUSH2 0xF2B JUMPI INVALID JUMPDEST SWAP1 POP PUSH1 0x20 MUL ADD CALLDATALOAD DUP5 DUP5 DUP2 MLOAD DUP2 LT PUSH2 0xF3E JUMPI INVALID JUMPDEST PUSH1 0x20 MUL PUSH1 0x20 ADD ADD MLOAD PUSH2 0x13AF JUMP JUMPDEST PUSH2 0xF62 DUP2 PUSH1 0x0 ADD MLOAD PUSH2 0xFFFF AND DUP3 PUSH1 0x20 ADD MLOAD TIMESTAMP PUSH2 0x1431 JUMP JUMPDEST DUP8 DUP8 DUP4 DUP2 DUP2 LT PUSH2 0xF6E JUMPI INVALID JUMPDEST PUSH1 0x20 MUL SWAP2 SWAP1 SWAP2 ADD CALLDATALOAD PUSH1 0x60 DUP4 ADD DUP2 SWAP1 MSTORE PUSH1 0x0 SGT ISZERO SWAP1 POP PUSH2 0xF8C JUMPI PUSH1 0x1 SWAP4 POP JUMPDEST POP PUSH1 0x1 ADD PUSH2 0xEB0 JUMP JUMPDEST POP SWAP8 SWAP1 SWAP7 POP SWAP5 POP POP POP POP POP JUMP JUMPDEST PUSH2 0xFAA PUSH2 0x2105 JUMP JUMPDEST PUSH2 0xFB2 PUSH2 0x2105 JUMP JUMPDEST PUSH1 0x0 PUSH2 0xFBD DUP6 PUSH2 0xC14 JUMP JUMPDEST SWAP1 POP PUSH1 0x0 PUSH2 0xFCA DUP8 PUSH2 0xC14 JUMP JUMPDEST PUSH1 0x40 MLOAD PUSH4 0xCA254153 PUSH1 0xE0 SHL DUP2 MSTORE SWAP1 SWAP2 POP PUSH20 0x0 SWAP1 PUSH4 0xCA254153 SWAP1 PUSH2 0x100C SWAP1 DUP11 SWAP1 DUP11 SWAP1 DUP7 SWAP1 DUP9 SWAP1 DUP13 SWAP1 PUSH1 0x4 ADD PUSH2 0x28CE JUMP JUMPDEST PUSH2 0x180 PUSH1 0x40 MLOAD DUP1 DUP4 SUB DUP2 DUP7 DUP1 EXTCODESIZE ISZERO DUP1 ISZERO PUSH2 0x1025 JUMPI PUSH1 0x0 DUP1 REVERT JUMPDEST POP GAS DELEGATECALL ISZERO DUP1 ISZERO PUSH2 0x1039 JUMPI RETURNDATASIZE PUSH1 0x0 DUP1 RETURNDATACOPY RETURNDATASIZE PUSH1 0x0 REVERT JUMPDEST POP POP POP POP PUSH1 0x40 MLOAD RETURNDATASIZE PUSH1 0x1F NOT PUSH1 0x1F DUP3 ADD AND DUP3 ADD DUP1 PUSH1 0x40 MSTORE POP DUP2 ADD SWAP1 PUSH2 0x105D SWAP2 SWAP1 PUSH2 0x2678 JUMP JUMPDEST SWAP3 POP SWAP1 POP PUSH2 0x106B DUP2 DUP9 PUSH2 0x1743 JUMP JUMPDEST PUSH2 0x1075 DUP3 DUP8 PUSH2 0x1743 JUMP JUMPDEST SWAP3 POP SWAP1 POP JUMPDEST SWAP4 POP SWAP4 SWAP2 POP POP JUMP JUMPDEST PUSH1 0x0 DUP1 PUSH1 0x20 DUP5 LT PUSH2 0x109F JUMPI PUSH1 0x0 PUSH2 0x109B DUP6 DUP8 ADD DUP8 PUSH2 0x2579 JUMP JUMPDEST SWAP3 POP POP JUMPDEST PUSH1 0x1 PUSH1 0x1 PUSH1 0xE0 SHL SUB NOT DUP3 AND PUSH4 0x66890643 PUSH1 0xE0 SHL EQ DUP1 PUSH2 0x10CE JUMPI POP PUSH1 0x1 PUSH1 0x1 PUSH1 0xE0 SHL SUB NOT DUP3 AND PUSH4 0x541F527 PUSH1 0xE4 SHL EQ JUMPDEST DUP1 PUSH2 0x10E9 JUMPI POP PUSH1 0x1 PUSH1 0x1 PUSH1 0xE0 SHL SUB NOT DUP3 AND PUSH4 0x37351953 PUSH1 0xE1 SHL EQ JUMPDEST DUP1 PUSH2 0x1104 JUMPI POP PUSH1 0x1 PUSH1 0x1 PUSH1 0xE0 SHL SUB NOT DUP3 AND PUSH4 0x276B64B PUSH1 0xE0 SHL EQ JUMPDEST ISZERO PUSH2 0x1214 JUMPI PUSH2 0x1117 PUSH1 0x24 PUSH1 0x4 DUP7 DUP9 PUSH2 0x2BB3 JUMP JUMPDEST DUP2 ADD SWAP1 PUSH2 0x1124 SWAP2 SWAP1 PUSH2 0x232F JUMP JUMPDEST SWAP1 POP DUP9 PUSH1 0x1 PUSH1 0x1 PUSH1 0xA0 SHL SUB AND DUP2 PUSH1 0x1 PUSH1 0x1 PUSH1 0xA0 SHL SUB AND EQ DUP1 PUSH2 0x1167 JUMPI POP DUP8 PUSH1 0x1 PUSH1 0x1 PUSH1 0xA0 SHL SUB AND DUP2 PUSH1 0x1 PUSH1 0x1 PUSH1 0xA0 SHL SUB AND EQ DUP1 ISZERO PUSH2 0x1167 JUMPI POP PUSH2 0x1167 DUP9 CALLER PUSH2 0x880 JUMP JUMPDEST PUSH2 0x1183 JUMPI PUSH1 0x40 MLOAD PUSH3 0x461BCD PUSH1 0xE5 SHL DUP2 MSTORE PUSH1 0x4 ADD PUSH2 0x4DF SWAP1 PUSH2 0x2A68 JUMP JUMPDEST PUSH1 0x0 DUP1 ADDRESS PUSH1 0x1 PUSH1 0x1 PUSH1 0xA0 SHL SUB AND CALLVALUE DUP9 DUP9 PUSH1 0x40 MLOAD PUSH2 0x11A1 SWAP3 SWAP2 SWAP1 PUSH2 0x27F1 JUMP JUMPDEST PUSH1 0x0 PUSH1 0x40 MLOAD DUP1 DUP4 SUB DUP2 DUP6 DUP8 GAS CALL SWAP3 POP POP POP RETURNDATASIZE DUP1 PUSH1 0x0 DUP2 EQ PUSH2 0x11DE JUMPI PUSH1 0x40 MLOAD SWAP2 POP PUSH1 0x1F NOT PUSH1 0x3F RETURNDATASIZE ADD AND DUP3 ADD PUSH1 0x40 MSTORE RETURNDATASIZE DUP3 MSTORE RETURNDATASIZE PUSH1 0x0 PUSH1 0x20 DUP5 ADD RETURNDATACOPY PUSH2 0x11E3 JUMP JUMPDEST PUSH1 0x60 SWAP2 POP JUMPDEST POP SWAP2 POP SWAP2 POP DUP2 PUSH2 0x11F2 DUP3 PUSH2 0x1862 JUMP JUMPDEST SWAP1 PUSH2 0x1210 JUMPI PUSH1 0x40 MLOAD PUSH3 0x461BCD PUSH1 0xE5 SHL DUP2 MSTORE PUSH1 0x4 ADD PUSH2 0x4DF SWAP2 SWAP1 PUSH2 0x2A0C JUMP JUMPDEST POP POP POP JUMPDEST DUP9 PUSH1 0x1 PUSH1 0x1 PUSH1 0xA0 SHL SUB AND DUP2 PUSH1 0x1 PUSH1 0x1 PUSH1 0xA0 SHL SUB AND EQ ISZERO DUP1 ISZERO PUSH2 0x1243 JUMPI POP PUSH1 0x20 DUP8 ADD MLOAD PUSH1 0x1 PUSH1 0x1 PUSH1 0xF8 SHL SUB NOT AND ISZERO ISZERO JUMPDEST ISZERO PUSH2 0x12B0 JUMPI PUSH1 0x40 MLOAD PUSH4 0x6CCC642F PUSH1 0xE0 SHL DUP2 MSTORE PUSH20 0x0 SWAP1 PUSH4 0x6CCC642F SWAP1 PUSH2 0x127F SWAP1 DUP13 SWAP1 PUSH1 0x4 ADD PUSH2 0x2801 JUMP JUMPDEST PUSH1 0x0 PUSH1 0x40 MLOAD DUP1 DUP4 SUB DUP2 DUP7 DUP1 EXTCODESIZE ISZERO DUP1 ISZERO PUSH2 0x1297 JUMPI PUSH1 0x0 DUP1 REVERT JUMPDEST POP GAS DELEGATECALL ISZERO DUP1 ISZERO PUSH2 0x12AB JUMPI RETURNDATASIZE PUSH1 0x0 DUP1 RETURNDATACOPY RETURNDATASIZE PUSH1 0x0 REVERT JUMPDEST POP POP POP POP JUMPDEST DUP3 DUP1 ISZERO PUSH2 0x12CF JUMPI POP DUP8 PUSH1 0x1 PUSH1 0x1 PUSH1 0xA0 SHL SUB AND DUP2 PUSH1 0x1 PUSH1 0x1 PUSH1 0xA0 SHL SUB AND EQ ISZERO JUMPDEST DUP1 ISZERO PUSH2 0x12E8 JUMPI POP PUSH1 0x20 DUP7 ADD MLOAD PUSH1 0x1 PUSH1 0x1 PUSH1 0xF8 SHL SUB NOT AND ISZERO ISZERO JUMPDEST ISZERO PUSH2 0x1355 JUMPI PUSH1 0x40 MLOAD PUSH4 0x6CCC642F PUSH1 0xE0 SHL DUP2 MSTORE PUSH20 0x0 SWAP1 PUSH4 0x6CCC642F SWAP1 PUSH2 0x1324 SWAP1 DUP12 SWAP1 PUSH1 0x4 ADD PUSH2 0x2801 JUMP JUMPDEST PUSH1 0x0 PUSH1 0x40 MLOAD DUP1 DUP4 SUB DUP2 DUP7 DUP1 EXTCODESIZE ISZERO DUP1 ISZERO PUSH2 0x133C JUMPI PUSH1 0x0 DUP1 REVERT JUMPDEST POP GAS DELEGATECALL ISZERO DUP1 ISZERO PUSH2 0x1350 JUMPI RETURNDATASIZE PUSH1 0x0 DUP1 RETURNDATACOPY RETURNDATASIZE PUSH1 0x0 REVERT JUMPDEST POP POP POP POP JUMPDEST POP POP POP POP POP POP POP POP POP JUMP JUMPDEST EXTCODESIZE ISZERO ISZERO SWAP1 JUMP JUMPDEST PUSH1 0x0 PUSH2 0x3FFF PUSH2 0xFFFF DUP6 AND GT ISZERO PUSH2 0x137B JUMPI PUSH1 0x0 DUP1 REVERT JUMPDEST PUSH5 0xFFFFFFFFFF DUP4 GT ISZERO PUSH2 0x138D JUMPI PUSH1 0x0 DUP1 REVERT JUMPDEST PUSH2 0x1397 DUP5 DUP5 PUSH2 0x18C2 JUMP JUMPDEST SWAP1 POP PUSH1 0x0 DUP3 SLT ISZERO PUSH2 0x6FC JUMPI PUSH1 0x1 PUSH1 0x40 SHL OR SWAP4 SWAP3 POP POP POP JUMP JUMPDEST PUSH2 0x13B8 DUP3 PUSH2 0xBC4 JUMP JUMPDEST PUSH2 0x13D4 JUMPI PUSH1 0x40 MLOAD PUSH3 0x461BCD PUSH1 0xE5 SHL DUP2 MSTORE PUSH1 0x4 ADD PUSH2 0x4DF SWAP1 PUSH2 0x2B60 JUMP JUMPDEST PUSH1 0x0 PUSH2 0x13DF DUP4 PUSH2 0xBD0 JUMP JUMPDEST PUSH1 0x20 DUP6 ADD SWAP2 SWAP1 SWAP2 MSTORE PUSH2 0xFFFF SWAP1 SWAP2 AND DUP4 MSTORE SWAP1 POP DUP1 ISZERO PUSH2 0x140F JUMPI PUSH1 0x40 MLOAD PUSH3 0x461BCD PUSH1 0xE5 SHL DUP2 MSTORE PUSH1 0x4 ADD PUSH2 0x4DF SWAP1 PUSH2 0x2AE0 JUMP JUMPDEST POP PUSH1 0x1 PUSH1 0x40 SWAP1 SWAP2 ADD MSTORE POP JUMP JUMPDEST PUSH1 0x0 PUSH1 0x1 PUSH1 0x1 PUSH1 0xFF SHL SUB DUP3 GT ISZERO PUSH2 0xA7D JUMPI PUSH1 0x0 DUP1 REVERT JUMPDEST PUSH2 0x1447 PUSH2 0x143D DUP5 PUSH2 0x18E0 JUMP JUMPDEST PUSH1 0xFF AND DUP4 DUP4 PUSH2 0x18F6 JUMP JUMPDEST PUSH2 0x1463 JUMPI PUSH1 0x40 MLOAD PUSH3 0x461BCD PUSH1 0xE5 SHL DUP2 MSTORE PUSH1 0x4 ADD PUSH2 0x4DF SWAP1 PUSH2 0x2B0A JUMP JUMPDEST POP POP POP JUMP JUMPDEST PUSH1 0x0 DUP1 PUSH2 0x30C PUSH1 0x3 PUSH2 0x1946 JUMP JUMPDEST PUSH1 0x0 DUP1 PUSH1 0x0 DUP6 GT PUSH2 0x1485 JUMPI PUSH1 0x0 DUP1 REVERT JUMPDEST PUSH1 0x7 DUP6 GT ISZERO PUSH2 0x1493 JUMPI PUSH1 0x0 DUP1 REVERT JUMPDEST PUSH1 0x0 PUSH2 0x149E DUP5 PUSH2 0x195F JUMP JUMPDEST SWAP1 POP PUSH1 0x1 JUMPDEST DUP7 DUP2 GT PUSH2 0x14F6 JUMPI PUSH1 0x0 PUSH2 0x14BF PUSH2 0x14B8 DUP4 PUSH2 0x1980 JUMP JUMPDEST DUP5 SWAP1 PUSH2 0x1A24 JUMP JUMPDEST SWAP1 POP DUP7 DUP2 EQ ISZERO PUSH2 0x14D7 JUMPI POP SWAP3 POP PUSH1 0x0 SWAP2 POP PUSH2 0x107A SWAP1 POP JUMP JUMPDEST DUP7 DUP2 GT ISZERO PUSH2 0x14ED JUMPI POP SWAP3 POP PUSH1 0x1 SWAP2 POP PUSH2 0x107A SWAP1 POP JUMP JUMPDEST POP PUSH1 0x1 ADD PUSH2 0x14A3 JUMP JUMPDEST POP PUSH1 0x0 DUP1 REVERT JUMPDEST PUSH1 0x0 DUP1 PUSH1 0x0 DUP1 PUSH1 0x0 DUP1 PUSH2 0x150D PUSH2 0x1A36 JUMP JUMPDEST PUSH1 0x1 PUSH1 0x1 PUSH1 0xA0 SHL SUB SWAP1 SWAP8 AND PUSH1 0x0 SWAP1 DUP2 MSTORE PUSH1 0x20 SWAP8 SWAP1 SWAP8 MSTORE POP POP PUSH1 0x40 SWAP1 SWAP5 KECCAK256 SLOAD PUSH2 0xFFFF DUP2 AND SWAP6 PUSH4 0xFFFFFFFF PUSH3 0x10000 DUP4 DIV DUP2 AND SWAP7 POP PUSH1 0x1 PUSH1 0x30 SHL DUP4 DIV AND SWAP5 POP PUSH1 0xFF PUSH1 0x1 PUSH1 0x50 SHL DUP4 DIV AND SWAP4 POP PUSH1 0x1 PUSH1 0x58 SHL SWAP1 SWAP2 DIV PUSH1 0xD0 SHL SWAP2 POP JUMP JUMPDEST PUSH1 0x0 PUSH3 0x76A700 PUSH2 0x1574 DUP6 PUSH2 0x195F JUMP JUMPDEST ADD SWAP1 POP PUSH2 0x1586 DUP8 DUP8 DUP8 DUP8 DUP8 DUP8 DUP8 PUSH2 0x1A43 JUMP JUMPDEST POP POP POP POP POP POP POP JUMP JUMPDEST PUSH1 0x0 DUP1 PUSH2 0x159F DUP5 PUSH1 0x40 ADD MLOAD PUSH2 0x1A7A JUMP JUMPDEST DUP1 ISZERO PUSH2 0x15B0 JUMPI POP PUSH1 0x0 DUP5 PUSH1 0x60 ADD MLOAD SLT ISZERO JUMPDEST PUSH2 0x15B9 JUMPI PUSH1 0x0 DUP1 REVERT JUMPDEST PUSH2 0x15E2 DUP4 PUSH1 0x80 ADD MLOAD PUSH2 0x15DC DUP7 PUSH1 0x60 ADD MLOAD DUP7 PUSH1 0x60 ADD MLOAD PUSH2 0x167A SWAP1 SWAP2 SWAP1 PUSH4 0xFFFFFFFF AND JUMP JUMPDEST SWAP1 PUSH2 0x1A90 JUMP JUMPDEST SWAP2 POP PUSH2 0x1607 DUP4 PUSH1 0x80 ADD MLOAD PUSH2 0x15DC DUP7 PUSH1 0x60 ADD MLOAD DUP7 PUSH1 0x40 ADD MLOAD PUSH2 0x167A SWAP1 SWAP2 SWAP1 PUSH4 0xFFFFFFFF AND JUMP JUMPDEST SWAP1 POP SWAP3 POP SWAP3 SWAP1 POP JUMP JUMPDEST PUSH1 0x0 DUP1 PUSH2 0x30C PUSH1 0x1 PUSH2 0x1946 JUMP JUMPDEST PUSH1 0x0 DUP1 PUSH2 0x1628 PUSH2 0x1AC1 JUMP JUMPDEST PUSH1 0x1 PUSH1 0x1 PUSH1 0xA0 SHL SUB DUP7 AND PUSH1 0x0 SWAP1 DUP2 MSTORE PUSH1 0x20 SWAP2 DUP3 MSTORE PUSH1 0x40 DUP1 DUP3 KECCAK256 DUP8 DUP4 MSTORE DUP4 MSTORE DUP1 DUP3 KECCAK256 DUP7 DUP4 MSTORE SWAP1 SWAP3 MSTORE KECCAK256 SLOAD PUSH1 0xF SWAP1 DUP2 SIGNEXTEND SWAP1 SIGNEXTEND SWAP2 POP POP SWAP4 SWAP3 POP POP POP JUMP JUMPDEST PUSH1 0x60 DUP1 PUSH2 0x166F DUP5 DUP5 PUSH2 0x1ACE JUMP JUMPDEST SWAP2 POP PUSH2 0x1607 DUP3 PUSH2 0x1BE6 JUMP JUMPDEST DUP2 DUP2 MUL PUSH1 0x0 NOT DUP4 EQ ISZERO PUSH2 0x16AA JUMPI DUP2 ISZERO DUP1 PUSH2 0x169C JUMPI POP DUP3 DUP3 DUP3 DUP2 PUSH2 0x1699 JUMPI INVALID JUMPDEST SDIV EQ JUMPDEST PUSH2 0x16A5 JUMPI PUSH1 0x0 DUP1 REVERT JUMPDEST PUSH2 0x30C JUMP JUMPDEST DUP3 ISZERO DUP1 PUSH2 0x16BF JUMPI POP DUP2 DUP4 DUP3 DUP2 PUSH2 0x16BC JUMPI INVALID JUMPDEST SDIV EQ JUMPDEST PUSH2 0x30C JUMPI PUSH1 0x0 DUP1 REVERT JUMPDEST PUSH1 0x1 PUSH1 0x1 PUSH1 0xA0 SHL SUB DUP2 AND PUSH2 0x16DB JUMPI PUSH1 0x0 DUP1 REVERT JUMPDEST PUSH1 0x1 PUSH1 0x1 PUSH1 0xA0 SHL SUB DUP2 AND PUSH2 0xFEE EQ ISZERO PUSH2 0x16F3 JUMPI PUSH1 0x0 DUP1 REVERT JUMPDEST PUSH1 0x1 PUSH1 0x1 PUSH1 0xA0 SHL SUB DUP2 AND PUSH2 0x5E7 EQ ISZERO PUSH2 0x170B JUMPI PUSH1 0x0 DUP1 REVERT JUMPDEST PUSH1 0x1 PUSH1 0x1 PUSH1 0xA0 SHL SUB DUP2 AND ADDRESS EQ ISZERO PUSH2 0x1721 JUMPI PUSH1 0x0 DUP1 REVERT JUMPDEST PUSH1 0x0 PUSH2 0x172C DUP3 PUSH2 0x14FC JUMP JUMPDEST POP POP POP POP PUSH2 0xFFFF AND SWAP1 POP DUP1 PUSH1 0x0 EQ PUSH2 0xE42 JUMPI PUSH1 0x0 DUP1 REVERT JUMPDEST PUSH1 0x0 PUSH2 0x174D PUSH2 0x1610 JUMP JUMPDEST PUSH1 0x1 PUSH1 0x1 PUSH1 0xA0 SHL SUB DUP4 AND PUSH1 0x0 DUP2 DUP2 MSTORE PUSH1 0x20 DUP4 DUP2 MSTORE PUSH1 0x40 DUP1 DUP4 KECCAK256 DUP9 MLOAD DUP2 SLOAD SWAP4 DUP11 ADD MLOAD DUP11 DUP5 ADD MLOAD PUSH1 0x60 DUP13 ADD MLOAD PUSH1 0x80 DUP14 ADD MLOAD PUSH1 0xA0 DUP15 ADD MLOAD PUSH5 0xFFFFFFFFFF NOT SWAP1 SWAP9 AND PUSH5 0xFFFFFFFFFF SWAP1 SWAP6 AND SWAP5 SWAP1 SWAP5 OR PUSH6 0xFF0000000000 NOT AND PUSH6 0x10000000000 PUSH1 0xF8 SWAP5 SWAP1 SWAP5 SHR SWAP4 SWAP1 SWAP4 MUL SWAP3 SWAP1 SWAP3 OR PUSH7 0xFF000000000000 NOT AND PUSH1 0x1 PUSH1 0x30 SHL PUSH1 0xFF SWAP1 SWAP3 AND SWAP2 SWAP1 SWAP2 MUL OR PUSH9 0xFFFF00000000000000 NOT AND PUSH1 0x1 PUSH1 0x38 SHL PUSH2 0xFFFF SWAP1 SWAP3 AND SWAP2 SWAP1 SWAP2 MUL OR PUSH27 0xFFFFFFFFFFFFFFFFFFFFFFFFFFFFFFFFFFFF000000000000000000 NOT AND PUSH1 0x1 PUSH1 0x48 SHL PUSH1 0x70 SWAP3 SWAP1 SWAP3 SHR SWAP2 SWAP1 SWAP2 MUL OR PUSH1 0xFF PUSH1 0xD8 SHL NOT AND PUSH1 0x1 PUSH1 0xD8 SHL SWAP4 ISZERO ISZERO SWAP4 SWAP1 SWAP4 MUL SWAP3 SWAP1 SWAP3 OR SWAP1 SWAP2 SSTORE MLOAD SWAP3 SWAP4 POP SWAP1 SWAP2 PUSH32 0x6BD4B121BCA854A191536A2CA891155C42EE2FB23F307FB34E8BC65CFCB5412E SWAP2 SWAP1 LOG2 POP POP POP JUMP JUMPDEST PUSH1 0x60 PUSH1 0x44 DUP3 MLOAD LT ISZERO PUSH2 0x18A8 JUMPI POP PUSH1 0x40 DUP1 MLOAD DUP1 DUP3 ADD SWAP1 SWAP2 MSTORE PUSH1 0x1D DUP2 MSTORE PUSH32 0x5472616E73616374696F6E2072657665727465642073696C656E746C79000000 PUSH1 0x20 DUP3 ADD MSTORE PUSH2 0x327 JUMP JUMPDEST PUSH1 0x4 DUP3 ADD SWAP2 POP DUP2 DUP1 PUSH1 0x20 ADD SWAP1 MLOAD DUP2 ADD SWAP1 PUSH2 0x30C SWAP2 SWAP1 PUSH2 0x25E1 JUMP JUMPDEST PUSH8 0xFFFF000000000000 PUSH1 0x30 DUP4 SWAP1 SHL AND PUSH1 0x8 DUP3 SWAP1 SHL OR PUSH1 0x1 OR SWAP3 SWAP2 POP POP JUMP JUMPDEST PUSH1 0x0 DUP1 PUSH2 0x18EC DUP4 PUSH2 0x1DA7 JUMP JUMPDEST PUSH1 0xFF AND SWAP4 SWAP3 POP POP POP JUMP JUMPDEST PUSH1 0x0 DUP1 PUSH2 0x1902 DUP4 PUSH2 0x195F JUMP JUMPDEST SWAP1 POP PUSH1 0x0 PUSH2 0x1919 PUSH2 0x1912 DUP8 PUSH2 0x1980 JUMP JUMPDEST DUP4 SWAP1 PUSH2 0x1A24 JUMP JUMPDEST SWAP1 POP DUP1 DUP6 GT ISZERO PUSH2 0x192E JUMPI PUSH1 0x0 SWAP3 POP POP POP PUSH2 0x6FC JUMP JUMPDEST PUSH1 0x0 PUSH2 0x193A DUP6 DUP8 PUSH2 0x1DC4 JUMP JUMPDEST SWAP9 SWAP8 POP POP POP POP POP POP POP POP JUMP JUMPDEST PUSH1 0x0 PUSH3 0xF4240 DUP3 PUSH1 0x26 DUP2 GT ISZERO PUSH2 0x1958 JUMPI INVALID JUMPDEST ADD SWAP3 SWAP2 POP POP JUMP JUMPDEST PUSH1 0x0 PUSH3 0x76A700 DUP3 LT ISZERO PUSH2 0x1971 JUMPI PUSH1 0x0 DUP1 REVERT JUMPDEST PUSH3 0x76A700 DUP3 JUMPDEST MOD SWAP1 SWAP2 SUB SWAP2 SWAP1 POP JUMP JUMPDEST PUSH1 0x0 DUP2 PUSH1 0x1 EQ ISZERO PUSH2 0x1995 JUMPI POP PUSH3 0x76A700 PUSH2 0x327 JUMP JUMPDEST DUP2 PUSH1 0x2 EQ ISZERO PUSH2 0x19A8 JUMPI POP PUSH3 0xED4E00 PUSH2 0x327 JUMP JUMPDEST DUP2 PUSH1 0x3 EQ ISZERO PUSH2 0x19BC JUMPI POP PUSH4 0x1DA9C00 PUSH2 0x327 JUMP JUMPDEST DUP2 PUSH1 0x4 EQ ISZERO PUSH2 0x19D0 JUMPI POP PUSH4 0x3B53800 PUSH2 0x327 JUMP JUMPDEST DUP2 PUSH1 0x5 EQ ISZERO PUSH2 0x19E4 JUMPI POP PUSH4 0x9450C00 PUSH2 0x327 JUMP JUMPDEST DUP2 PUSH1 0x6 EQ ISZERO PUSH2 0x19F8 JUMPI POP PUSH4 0x128A1800 PUSH2 0x327 JUMP JUMPDEST DUP2 PUSH1 0x7 EQ ISZERO PUSH2 0x1A0C JUMPI POP PUSH4 0x25143000 PUSH2 0x327 JUMP JUMPDEST PUSH1 0x40 MLOAD PUSH3 0x461BCD PUSH1 0xE5 SHL DUP2 MSTORE PUSH1 0x4 ADD PUSH2 0x4DF SWAP1 PUSH2 0x2AB9 JUMP JUMPDEST PUSH1 0x0 DUP3 DUP3 ADD DUP4 DUP2 LT ISZERO PUSH2 0x6FC JUMPI PUSH1 0x0 DUP1 REVERT JUMPDEST PUSH1 0x0 DUP1 PUSH2 0x30C PUSH1 0x2 PUSH2 0x1946 JUMP JUMPDEST PUSH2 0x1A50 DUP8 DUP8 DUP8 DUP7 DUP6 PUSH2 0x1ECF JUMP JUMPDEST PUSH2 0x1A69 DUP8 PUSH1 0xE0 ADD MLOAD DUP9 PUSH1 0xA0 ADD MLOAD DUP10 PUSH1 0xC0 ADD MLOAD DUP6 DUP9 PUSH2 0x1F8F JUMP JUMPDEST PUSH1 0xC0 SWAP1 SWAP8 ADD SWAP7 SWAP1 SWAP7 MSTORE POP POP POP POP POP POP JUMP JUMPDEST PUSH1 0x0 PUSH1 0x2 DUP3 LT DUP1 ISZERO SWAP1 PUSH2 0x30C JUMPI POP POP PUSH1 0x8 LT ISZERO SWAP1 JUMP JUMPDEST PUSH1 0x0 DUP2 PUSH1 0x0 NOT EQ DUP1 ISZERO PUSH2 0x1AA6 JUMPI POP PUSH1 0x1 PUSH1 0xFF SHL DUP4 EQ JUMPDEST ISZERO PUSH2 0x1AB0 JUMPI PUSH1 0x0 DUP1 REVERT JUMPDEST DUP2 DUP4 DUP2 PUSH2 0x1AB9 JUMPI INVALID JUMPDEST SDIV SWAP4 SWAP3 POP POP POP JUMP JUMPDEST PUSH1 0x0 DUP1 PUSH2 0x30C PUSH1 0xC PUSH2 0x1946 JUMP JUMPDEST PUSH1 0x60 PUSH1 0x8 DUP3 PUSH1 0xFF AND GT ISZERO PUSH2 0x1AE1 JUMPI PUSH1 0x0 DUP1 REVERT JUMPDEST PUSH1 0x0 PUSH2 0x1AEB PUSH2 0x2025 JUMP JUMPDEST PUSH1 0x1 PUSH1 0x1 PUSH1 0xA0 SHL SUB DUP6 AND PUSH1 0x0 SWAP1 DUP2 MSTORE PUSH1 0x20 DUP3 SWAP1 MSTORE PUSH1 0x40 DUP2 KECCAK256 SWAP2 SWAP3 POP PUSH1 0xFF DUP6 AND PUSH8 0xFFFFFFFFFFFFFFFF DUP2 GT DUP1 ISZERO PUSH2 0x1B20 JUMPI PUSH1 0x0 DUP1 REVERT JUMPDEST POP PUSH1 0x40 MLOAD SWAP1 DUP1 DUP3 MSTORE DUP1 PUSH1 0x20 MUL PUSH1 0x20 ADD DUP3 ADD PUSH1 0x40 MSTORE DUP1 ISZERO PUSH2 0x1B5A JUMPI DUP2 PUSH1 0x20 ADD JUMPDEST PUSH2 0x1B47 PUSH2 0x213A JUMP JUMPDEST DUP2 MSTORE PUSH1 0x20 ADD SWAP1 PUSH1 0x1 SWAP1 SUB SWAP1 DUP2 PUSH2 0x1B3F JUMPI SWAP1 POP JUMPDEST POP SWAP1 POP PUSH1 0x0 JUMPDEST DUP6 PUSH1 0xFF AND DUP2 LT ISZERO PUSH2 0x6DA JUMPI PUSH1 0x0 DUP4 DUP3 PUSH1 0x8 DUP2 LT PUSH2 0x1B79 JUMPI INVALID JUMPDEST ADD SWAP1 POP PUSH1 0x0 DUP4 DUP4 DUP2 MLOAD DUP2 LT PUSH2 0x1B8A JUMPI INVALID JUMPDEST PUSH1 0x20 SWAP1 DUP2 MUL SWAP2 SWAP1 SWAP2 ADD DUP2 ADD MLOAD DUP4 SLOAD PUSH2 0xFFFF DUP2 AND DUP3 MSTORE PUSH5 0xFFFFFFFFFF PUSH3 0x10000 DUP3 DIV AND SWAP3 DUP3 ADD SWAP3 SWAP1 SWAP3 MSTORE PUSH1 0xFF PUSH1 0x1 PUSH1 0x38 SHL DUP4 DIV AND PUSH1 0x40 DUP3 ADD MSTORE PUSH1 0x1 PUSH1 0x40 SHL SWAP1 SWAP2 DIV PUSH1 0xA SWAP1 DUP2 SIGNEXTEND SWAP1 SIGNEXTEND PUSH1 0x60 DUP3 ADD MSTORE PUSH1 0x80 ADD SWAP2 SWAP1 SWAP2 MSTORE POP PUSH1 0x1 ADD PUSH2 0x1B60 JUMP JUMPDEST DUP1 MLOAD PUSH1 0x60 SWAP1 DUP1 PUSH8 0xFFFFFFFFFFFFFFFF DUP2 GT DUP1 ISZERO PUSH2 0x1C02 JUMPI PUSH1 0x0 DUP1 REVERT JUMPDEST POP PUSH1 0x40 MLOAD SWAP1 DUP1 DUP3 MSTORE DUP1 PUSH1 0x20 MUL PUSH1 0x20 ADD DUP3 ADD PUSH1 0x40 MSTORE DUP1 ISZERO PUSH2 0x1C2C JUMPI DUP2 PUSH1 0x20 ADD PUSH1 0x20 DUP3 MUL DUP1 CALLDATASIZE DUP4 CALLDATACOPY ADD SWAP1 POP JUMPDEST POP SWAP2 POP PUSH1 0x0 JUMPDEST DUP2 DUP2 LT ISZERO PUSH2 0x1C89 JUMPI PUSH1 0x0 DUP5 DUP3 DUP2 MLOAD DUP2 LT PUSH2 0x1C48 JUMPI INVALID JUMPDEST PUSH1 0x20 MUL PUSH1 0x20 ADD ADD MLOAD SWAP1 POP PUSH2 0x1C69 DUP2 PUSH1 0x0 ADD MLOAD DUP3 PUSH1 0x20 ADD MLOAD DUP4 PUSH1 0x40 ADD MLOAD PUSH2 0x2032 JUMP JUMPDEST DUP5 DUP4 DUP2 MLOAD DUP2 LT PUSH2 0x1C75 JUMPI INVALID JUMPDEST PUSH1 0x20 SWAP1 DUP2 MUL SWAP2 SWAP1 SWAP2 ADD ADD MSTORE POP PUSH1 0x1 ADD PUSH2 0x1C32 JUMP JUMPDEST POP PUSH1 0x1 JUMPDEST DUP2 DUP2 LT ISZERO PUSH2 0x1DA0 JUMPI DUP1 JUMPDEST PUSH1 0x0 DUP2 GT DUP1 ISZERO PUSH2 0x1CCF JUMPI POP DUP4 DUP2 DUP2 MLOAD DUP2 LT PUSH2 0x1CAE JUMPI INVALID JUMPDEST PUSH1 0x20 MUL PUSH1 0x20 ADD ADD MLOAD DUP5 PUSH1 0x1 DUP4 SUB DUP2 MLOAD DUP2 LT PUSH2 0x1CC5 JUMPI INVALID JUMPDEST PUSH1 0x20 MUL PUSH1 0x20 ADD ADD MLOAD GT JUMPDEST ISZERO PUSH2 0x1D97 JUMPI DUP4 DUP2 DUP2 MLOAD DUP2 LT PUSH2 0x1CE0 JUMPI INVALID JUMPDEST PUSH1 0x20 MUL PUSH1 0x20 ADD ADD MLOAD DUP5 PUSH1 0x1 DUP4 SUB DUP2 MLOAD DUP2 LT PUSH2 0x1CF7 JUMPI INVALID JUMPDEST PUSH1 0x20 MUL PUSH1 0x20 ADD ADD MLOAD DUP6 PUSH1 0x1 DUP5 SUB DUP2 MLOAD DUP2 LT PUSH2 0x1D0E JUMPI INVALID JUMPDEST PUSH1 0x20 MUL PUSH1 0x20 ADD ADD DUP7 DUP5 DUP2 MLOAD DUP2 LT PUSH2 0x1D21 JUMPI INVALID JUMPDEST PUSH1 0x20 MUL PUSH1 0x20 ADD ADD DUP3 DUP2 MSTORE POP DUP3 DUP2 MSTORE POP POP POP DUP5 DUP2 DUP2 MLOAD DUP2 LT PUSH2 0x1D3E JUMPI INVALID JUMPDEST PUSH1 0x20 MUL PUSH1 0x20 ADD ADD MLOAD DUP6 PUSH1 0x1 DUP4 SUB DUP2 MLOAD DUP2 LT PUSH2 0x1D55 JUMPI INVALID JUMPDEST PUSH1 0x20 MUL PUSH1 0x20 ADD ADD MLOAD DUP7 PUSH1 0x1 DUP5 SUB DUP2 MLOAD DUP2 LT PUSH2 0x1D6C JUMPI INVALID JUMPDEST PUSH1 0x20 MUL PUSH1 0x20 ADD ADD DUP8 DUP5 DUP2 MLOAD DUP2 LT PUSH2 0x1D7F JUMPI INVALID JUMPDEST PUSH1 0x20 SWAP1 DUP2 MUL SWAP2 SWAP1 SWAP2 ADD ADD SWAP2 SWAP1 SWAP2 MSTORE MSTORE PUSH1 0x0 NOT ADD PUSH2 0x1C97 JUMP JUMPDEST POP PUSH1 0x1 ADD PUSH2 0x1C8D JUMP JUMPDEST POP POP SWAP2 SWAP1 POP JUMP JUMPDEST PUSH1 0x0 DUP1 PUSH2 0x1DB2 PUSH2 0x205B JUMP JUMPDEST PUSH1 0x0 SWAP4 DUP5 MSTORE PUSH1 0x20 MSTORE POP POP PUSH1 0x40 SWAP1 KECCAK256 SLOAD SWAP1 JUMP JUMPDEST PUSH1 0x0 DUP1 PUSH1 0x0 PUSH2 0x1DD2 DUP6 PUSH2 0x2068 JUMP JUMPDEST SWAP1 POP PUSH3 0x15180 DUP5 MOD ISZERO PUSH2 0x1DEC JUMPI PUSH1 0x0 DUP1 SWAP3 POP SWAP3 POP POP PUSH2 0x1EC8 JUMP JUMPDEST DUP4 DUP2 LT PUSH2 0x1E00 JUMPI PUSH1 0x0 DUP1 SWAP3 POP SWAP3 POP POP PUSH2 0x1EC8 JUMP JUMPDEST PUSH3 0x15180 DUP2 DUP6 SUB DIV PUSH1 0x5A DUP2 GT PUSH2 0x1E1D JUMPI SWAP3 POP PUSH1 0x1 SWAP2 POP PUSH2 0x1EC8 SWAP1 POP JUMP JUMPDEST PUSH2 0x168 DUP2 GT PUSH2 0x1E5C JUMPI PUSH1 0x0 PUSH3 0x15180 PUSH3 0x7E900 DUP5 MOD DIV DUP3 ADD PUSH1 0x59 NOT ADD SWAP1 POP PUSH1 0x6 DUP2 DIV PUSH1 0x5A ADD PUSH1 0x6 DUP3 DUP2 PUSH2 0x1E4C JUMPI INVALID JUMPDEST MOD PUSH1 0x0 EQ SWAP5 POP SWAP5 POP POP POP POP PUSH2 0x1EC8 JUMP JUMPDEST PUSH2 0x870 DUP2 GT PUSH2 0x1E8C JUMPI PUSH1 0x0 PUSH3 0x15180 PUSH3 0x278D00 DUP5 MOD DIV DUP3 ADD PUSH2 0x167 NOT ADD SWAP1 POP PUSH1 0x1E DUP2 DIV PUSH1 0x87 ADD PUSH1 0x1E DUP3 DUP2 PUSH2 0x1E4C JUMPI INVALID JUMPDEST PUSH2 0x1DE2 DUP2 GT PUSH2 0x1EBC JUMPI PUSH1 0x0 PUSH3 0x15180 PUSH3 0x76A700 DUP5 MOD DIV DUP3 ADD PUSH2 0x86F NOT ADD SWAP1 POP PUSH1 0x5A DUP2 DIV PUSH1 0xC3 ADD PUSH1 0x5A DUP3 DUP2 PUSH2 0x1E4C JUMPI INVALID JUMPDEST PUSH2 0x100 PUSH1 0x0 SWAP4 POP SWAP4 POP POP POP JUMPDEST SWAP3 POP SWAP3 SWAP1 POP JUMP JUMPDEST PUSH1 0x0 PUSH2 0x1ED9 PUSH2 0x2084 JUMP JUMPDEST PUSH1 0x0 DUP7 DUP2 MSTORE PUSH1 0x20 DUP3 DUP2 MSTORE PUSH1 0x40 DUP1 DUP4 KECCAK256 DUP9 DUP5 MSTORE DUP3 MSTORE DUP1 DUP4 KECCAK256 DUP7 DUP5 MSTORE DUP3 MSTORE SWAP2 DUP3 SWAP1 KECCAK256 DUP1 DUP11 MSTORE SWAP1 DUP10 ADD DUP8 SWAP1 MSTORE DUP1 SLOAD PUSH10 0xFFFFFFFFFFFFFFFFFFFF DUP1 DUP3 AND SWAP4 DUP12 ADD SWAP4 SWAP1 SWAP4 MSTORE PUSH1 0x1 PUSH1 0x50 SHL DUP2 DIV SWAP1 SWAP3 AND PUSH1 0x60 DUP11 ADD MSTORE PUSH4 0xFFFFFFFF PUSH1 0x1 PUSH1 0xA0 SHL DUP4 DIV DUP2 AND PUSH1 0xA0 DUP12 ADD MSTORE PUSH1 0x1 PUSH1 0xC0 SHL DUP4 DIV DUP2 AND PUSH1 0xC0 DUP12 ADD MSTORE PUSH1 0x1 PUSH1 0xE0 SHL SWAP1 SWAP3 DIV SWAP1 SWAP2 AND PUSH1 0xE0 DUP10 ADD MSTORE SWAP1 SWAP2 POP DUP1 DUP5 ISZERO PUSH2 0x1F7E JUMPI PUSH1 0x1 DUP3 ADD SLOAD PUSH10 0xFFFFFFFFFFFFFFFFFFFF AND PUSH1 0x80 DUP10 ADD MSTORE PUSH2 0xA64 JUMP JUMPDEST PUSH1 0x0 PUSH1 0x80 DUP10 ADD MSTORE POP POP POP POP POP POP POP POP JUMP JUMPDEST PUSH1 0x0 DUP1 DUP4 GT PUSH2 0x1F9D JUMPI PUSH1 0x0 DUP1 REVERT JUMPDEST DUP2 DUP7 GT ISZERO PUSH2 0x1FAC JUMPI POP DUP4 PUSH2 0x201C JUMP JUMPDEST PUSH1 0x0 PUSH2 0x1FB8 DUP4 DUP9 PUSH2 0x2091 JUMP JUMPDEST SWAP1 POP DUP4 DUP2 GT ISZERO PUSH2 0x1FCB JUMPI DUP6 SWAP2 POP POP PUSH2 0x201C JUMP JUMPDEST PUSH1 0x0 PUSH2 0x1FD7 DUP3 DUP7 PUSH2 0x20A6 JUMP JUMPDEST SWAP1 POP PUSH1 0x0 PUSH2 0x1FE9 PUSH4 0x3B9ACA00 DUP4 PUSH2 0x2091 JUMP JUMPDEST SWAP1 POP PUSH2 0x2016 PUSH4 0x3B9ACA00 PUSH2 0x2010 PUSH2 0x2000 DUP11 DUP6 PUSH2 0x20BF JUMP JUMPDEST PUSH2 0x200A DUP13 DUP8 PUSH2 0x20BF JUMP JUMPDEST SWAP1 PUSH2 0x1A24 JUMP JUMPDEST SWAP1 PUSH2 0x20E6 JUMP JUMPDEST SWAP4 POP POP POP POP JUMPDEST SWAP6 SWAP5 POP POP POP POP POP JUMP JUMPDEST PUSH1 0x0 DUP1 PUSH2 0x30C PUSH1 0xD PUSH2 0x1946 JUMP JUMPDEST PUSH8 0xFFFF000000000000 PUSH1 0x30 DUP5 SWAP1 SHL AND PUSH6 0xFFFFFFFFFF00 PUSH1 0x8 DUP5 SWAP1 SHL AND OR PUSH1 0xFF DUP3 AND OR SWAP4 SWAP3 POP POP POP JUMP JUMPDEST PUSH1 0x0 DUP1 PUSH2 0x30C PUSH1 0x9 PUSH2 0x1946 JUMP JUMPDEST PUSH1 0x0 PUSH3 0x15180 DUP3 LT ISZERO PUSH2 0x207A JUMPI PUSH1 0x0 DUP1 REVERT JUMPDEST PUSH3 0x15180 DUP3 PUSH2 0x1977 JUMP JUMPDEST PUSH1 0x0 DUP1 PUSH2 0x30C PUSH1 0xA PUSH2 0x1946 JUMP JUMPDEST PUSH1 0x0 DUP3 DUP3 GT ISZERO PUSH2 0x20A0 JUMPI PUSH1 0x0 DUP1 REVERT JUMPDEST POP SWAP1 SUB SWAP1 JUMP JUMPDEST PUSH1 0x0 PUSH2 0x6FC PUSH2 0x20B9 DUP5 PUSH4 0x3B9ACA00 PUSH2 0x20BF JUMP JUMPDEST DUP4 PUSH2 0x20E6 JUMP JUMPDEST PUSH1 0x0 DUP3 PUSH2 0x20CE JUMPI POP PUSH1 0x0 PUSH2 0x30C JUMP JUMPDEST DUP3 DUP3 MUL DUP3 DUP5 DUP3 DUP2 PUSH2 0x20DB JUMPI INVALID JUMPDEST DIV EQ PUSH2 0x6FC JUMPI PUSH1 0x0 DUP1 REVERT JUMPDEST PUSH1 0x0 DUP1 DUP3 GT PUSH2 0x20F4 JUMPI PUSH1 0x0 DUP1 REVERT JUMPDEST DUP2 DUP4 DUP2 PUSH2 0x20FD JUMPI INVALID JUMPDEST DIV SWAP4 SWAP3 POP POP POP JUMP JUMPDEST PUSH1 0x40 DUP1 MLOAD PUSH1 0xC0 DUP2 ADD DUP3 MSTORE PUSH1 0x0 DUP1 DUP3 MSTORE PUSH1 0x20 DUP3 ADD DUP2 SWAP1 MSTORE SWAP2 DUP2 ADD DUP3 SWAP1 MSTORE PUSH1 0x60 DUP2 ADD DUP3 SWAP1 MSTORE PUSH1 0x80 DUP2 ADD DUP3 SWAP1 MSTORE PUSH1 0xA0 DUP2 ADD SWAP2 SWAP1 SWAP2 MSTORE SWAP1 JUMP JUMPDEST PUSH1 0x40 MLOAD DUP1 PUSH1 0xC0 ADD PUSH1 0x40 MSTORE DUP1 PUSH1 0x0 PUSH2 0xFFFF AND DUP2 MSTORE PUSH1 0x20 ADD PUSH1 0x0 DUP2 MSTORE PUSH1 0x20 ADD PUSH1 0x0 DUP2 MSTORE PUSH1 0x20 ADD PUSH1 0x0 DUP2 MSTORE PUSH1 0x20 ADD PUSH1 0x0 DUP2 MSTORE PUSH1 0x20 ADD PUSH1 0x0 PUSH1 0x3 DUP2 GT ISZERO PUSH2 0x2179 JUMPI INVALID JUMPDEST SWAP1 MSTORE SWAP1 JUMP JUMPDEST PUSH1 0x40 MLOAD DUP1 PUSH2 0x100 ADD PUSH1 0x40 MSTORE DUP1 PUSH1 0x0 DUP1 NOT AND DUP2 MSTORE PUSH1 0x20 ADD PUSH1 0x0 DUP2 MSTORE PUSH1 0x20 ADD PUSH1 0x0 DUP2 MSTORE PUSH1 0x20 ADD PUSH1 0x0 DUP2 MSTORE PUSH1 0x20 ADD PUSH1 0x0 DUP2 MSTORE PUSH1 0x20 ADD PUSH1 0x0 DUP2 MSTORE PUSH1 0x20 ADD PUSH1 0x0 DUP2 MSTORE PUSH1 0x20 ADD PUSH1 0x0 DUP2 MSTORE POP SWAP1 JUMP JUMPDEST PUSH1 0x0 DUP1 DUP4 PUSH1 0x1F DUP5 ADD SLT PUSH2 0x21D7 JUMPI DUP1 DUP2 REVERT JUMPDEST POP DUP2 CALLDATALOAD PUSH8 0xFFFFFFFFFFFFFFFF DUP2 GT ISZERO PUSH2 0x21EE JUMPI DUP2 DUP3 REVERT JUMPDEST PUSH1 0x20 DUP4 ADD SWAP2 POP DUP4 PUSH1 0x20 DUP1 DUP4 MUL DUP6 ADD ADD GT ISZERO PUSH2 0x1EC8 JUMPI PUSH1 0x0 DUP1 REVERT JUMPDEST DUP1 MLOAD PUSH2 0x327 DUP2 PUSH2 0x2C23 JUMP JUMPDEST DUP1 MLOAD PUSH1 0x1 PUSH1 0x1 PUSH1 0x70 SHL SUB NOT DUP2 AND DUP2 EQ PUSH2 0x327 JUMPI PUSH1 0x0 DUP1 REVERT JUMPDEST PUSH1 0x0 DUP1 DUP4 PUSH1 0x1F DUP5 ADD SLT PUSH2 0x223C JUMPI DUP2 DUP3 REVERT JUMPDEST POP DUP2 CALLDATALOAD PUSH8 0xFFFFFFFFFFFFFFFF DUP2 GT ISZERO PUSH2 0x2253 JUMPI DUP2 DUP3 REVERT JUMPDEST PUSH1 0x20 DUP4 ADD SWAP2 POP DUP4 PUSH1 0x20 DUP3 DUP6 ADD ADD GT ISZERO PUSH2 0x1EC8 JUMPI PUSH1 0x0 DUP1 REVERT JUMPDEST PUSH1 0x0 PUSH1 0xC0 DUP3 DUP5 SUB SLT ISZERO PUSH2 0x227C JUMPI DUP1 DUP2 REVERT JUMPDEST PUSH1 0x40 MLOAD PUSH1 0xC0 DUP2 ADD DUP2 DUP2 LT PUSH8 0xFFFFFFFFFFFFFFFF DUP3 GT OR ISZERO PUSH2 0x2299 JUMPI INVALID JUMPDEST DUP1 PUSH1 0x40 MSTORE POP DUP1 SWAP2 POP DUP3 MLOAD PUSH2 0x22AC DUP2 PUSH2 0x2C57 JUMP JUMPDEST DUP2 MSTORE PUSH1 0x20 DUP4 ADD MLOAD PUSH1 0x1 PUSH1 0x1 PUSH1 0xF8 SHL SUB NOT DUP2 AND DUP2 EQ PUSH2 0x22C9 JUMPI PUSH1 0x0 DUP1 REVERT JUMPDEST PUSH1 0x20 DUP3 ADD MSTORE PUSH2 0x22DA PUSH1 0x40 DUP5 ADD PUSH2 0x2324 JUMP JUMPDEST PUSH1 0x40 DUP3 ADD MSTORE PUSH2 0x22EB PUSH1 0x60 DUP5 ADD PUSH2 0x2319 JUMP JUMPDEST PUSH1 0x60 DUP3 ADD MSTORE PUSH2 0x22FC PUSH1 0x80 DUP5 ADD PUSH2 0x2213 JUMP JUMPDEST PUSH1 0x80 DUP3 ADD MSTORE PUSH2 0x230D PUSH1 0xA0 DUP5 ADD PUSH2 0x2208 JUMP JUMPDEST PUSH1 0xA0 DUP3 ADD MSTORE POP SWAP3 SWAP2 POP POP JUMP JUMPDEST DUP1 MLOAD PUSH2 0x327 DUP2 PUSH2 0x2C47 JUMP JUMPDEST DUP1 MLOAD PUSH2 0x327 DUP2 PUSH2 0x2C6A JUMP JUMPDEST PUSH1 0x0 PUSH1 0x20 DUP3 DUP5 SUB SLT ISZERO PUSH2 0x2340 JUMPI DUP1 DUP2 REVERT JUMPDEST DUP2 CALLDATALOAD PUSH2 0x6FC DUP2 PUSH2 0x2C0B JUMP JUMPDEST PUSH1 0x0 DUP1 PUSH1 0x40 DUP4 DUP6 SUB SLT ISZERO PUSH2 0x235D JUMPI DUP1 DUP2 REVERT JUMPDEST DUP3 CALLDATALOAD PUSH2 0x2368 DUP2 PUSH2 0x2C0B JUMP JUMPDEST SWAP2 POP PUSH1 0x20 DUP4 ADD CALLDATALOAD PUSH2 0x2378 DUP2 PUSH2 0x2C0B JUMP JUMPDEST DUP1 SWAP2 POP POP SWAP3 POP SWAP3 SWAP1 POP JUMP JUMPDEST PUSH1 0x0 DUP1 PUSH1 0x0 DUP1 PUSH1 0x0 DUP1 PUSH1 0x0 DUP1 PUSH1 0xA0 DUP10 DUP12 SUB SLT ISZERO PUSH2 0x239E JUMPI DUP4 DUP5 REVERT JUMPDEST DUP9 CALLDATALOAD PUSH2 0x23A9 DUP2 PUSH2 0x2C0B JUMP JUMPDEST SWAP8 POP PUSH1 0x20 DUP10 ADD CALLDATALOAD PUSH2 0x23B9 DUP2 PUSH2 0x2C0B JUMP JUMPDEST SWAP7 POP PUSH1 0x40 DUP10 ADD CALLDATALOAD PUSH8 0xFFFFFFFFFFFFFFFF DUP1 DUP3 GT ISZERO PUSH2 0x23D5 JUMPI DUP6 DUP7 REVERT JUMPDEST PUSH2 0x23E1 DUP13 DUP4 DUP14 ADD PUSH2 0x21C6 JUMP JUMPDEST SWAP1 SWAP9 POP SWAP7 POP PUSH1 0x60 DUP12 ADD CALLDATALOAD SWAP2 POP DUP1 DUP3 GT ISZERO PUSH2 0x23F9 JUMPI DUP6 DUP7 REVERT JUMPDEST PUSH2 0x2405 DUP13 DUP4 DUP14 ADD PUSH2 0x21C6 JUMP JUMPDEST SWAP1 SWAP7 POP SWAP5 POP PUSH1 0x80 DUP12 ADD CALLDATALOAD SWAP2 POP DUP1 DUP3 GT ISZERO PUSH2 0x241D JUMPI DUP4 DUP5 REVERT JUMPDEST POP PUSH2 0x242A DUP12 DUP3 DUP13 ADD PUSH2 0x222B JUMP JUMPDEST SWAP10 SWAP13 SWAP9 SWAP12 POP SWAP7 SWAP10 POP SWAP5 SWAP8 SWAP4 SWAP7 SWAP3 SWAP6 SWAP5 POP POP POP JUMP JUMPDEST PUSH1 0x0 DUP1 PUSH1 0x0 DUP1 PUSH1 0x0 DUP1 PUSH1 0xA0 DUP8 DUP10 SUB SLT ISZERO PUSH2 0x2456 JUMPI DUP2 DUP3 REVERT JUMPDEST DUP7 CALLDATALOAD PUSH2 0x2461 DUP2 PUSH2 0x2C0B JUMP JUMPDEST SWAP6 POP PUSH1 0x20 DUP8 ADD CALLDATALOAD PUSH2 0x2471 DUP2 PUSH2 0x2C0B JUMP JUMPDEST SWAP5 POP PUSH1 0x40 DUP8 ADD CALLDATALOAD SWAP4 POP PUSH1 0x60 DUP8 ADD CALLDATALOAD SWAP3 POP PUSH1 0x80 DUP8 ADD CALLDATALOAD PUSH8 0xFFFFFFFFFFFFFFFF DUP2 GT ISZERO PUSH2 0x249A JUMPI DUP3 DUP4 REVERT JUMPDEST PUSH2 0x24A6 DUP10 DUP3 DUP11 ADD PUSH2 0x222B JUMP JUMPDEST SWAP8 SWAP11 SWAP7 SWAP10 POP SWAP5 SWAP8 POP SWAP3 SWAP6 SWAP4 SWAP5 SWAP3 POP POP POP JUMP JUMPDEST PUSH1 0x0 DUP1 PUSH1 0x40 DUP4 DUP6 SUB SLT ISZERO PUSH2 0x24CA JUMPI DUP2 DUP3 REVERT JUMPDEST DUP3 CALLDATALOAD PUSH2 0x24D5 DUP2 PUSH2 0x2C0B JUMP JUMPDEST SWAP2 POP PUSH1 0x20 DUP4 ADD CALLDATALOAD PUSH2 0x2378 DUP2 PUSH2 0x2C23 JUMP JUMPDEST PUSH1 0x0 DUP1 PUSH1 0x40 DUP4 DUP6 SUB SLT ISZERO PUSH2 0x24F7 JUMPI DUP2 DUP3 REVERT JUMPDEST DUP3 CALLDATALOAD PUSH2 0x2502 DUP2 PUSH2 0x2C0B JUMP JUMPDEST SWAP5 PUSH1 0x20 SWAP4 SWAP1 SWAP4 ADD CALLDATALOAD SWAP4 POP POP POP JUMP JUMPDEST PUSH1 0x0 DUP1 PUSH1 0x0 DUP1 PUSH1 0x40 DUP6 DUP8 SUB SLT ISZERO PUSH2 0x2525 JUMPI DUP2 DUP3 REVERT JUMPDEST DUP5 CALLDATALOAD PUSH8 0xFFFFFFFFFFFFFFFF DUP1 DUP3 GT ISZERO PUSH2 0x253C JUMPI DUP4 DUP5 REVERT JUMPDEST PUSH2 0x2548 DUP9 DUP4 DUP10 ADD PUSH2 0x21C6 JUMP JUMPDEST SWAP1 SWAP7 POP SWAP5 POP PUSH1 0x20 DUP8 ADD CALLDATALOAD SWAP2 POP DUP1 DUP3 GT ISZERO PUSH2 0x2560 JUMPI DUP4 DUP5 REVERT JUMPDEST POP PUSH2 0x256D DUP8 DUP3 DUP9 ADD PUSH2 0x21C6 JUMP JUMPDEST SWAP6 SWAP9 SWAP5 SWAP8 POP SWAP6 POP POP POP POP JUMP JUMPDEST PUSH1 0x0 PUSH1 0x20 DUP3 DUP5 SUB SLT ISZERO PUSH2 0x258A JUMPI DUP1 DUP2 REVERT JUMPDEST POP CALLDATALOAD SWAP2 SWAP1 POP JUMP JUMPDEST PUSH1 0x0 PUSH1 0x20 DUP3 DUP5 SUB SLT ISZERO PUSH2 0x25A2 JUMPI DUP1 DUP2 REVERT JUMPDEST DUP2 CALLDATALOAD PUSH2 0x6FC DUP2 PUSH2 0x2C31 JUMP JUMPDEST PUSH1 0x0 PUSH1 0x20 DUP3 DUP5 SUB SLT ISZERO PUSH2 0x25BE JUMPI DUP1 DUP2 REVERT JUMPDEST DUP2 MLOAD PUSH2 0x6FC DUP2 PUSH2 0x2C31 JUMP JUMPDEST PUSH1 0x0 PUSH1 0x20 DUP3 DUP5 SUB SLT ISZERO PUSH2 0x25DA JUMPI DUP1 DUP2 REVERT JUMPDEST POP MLOAD SWAP2 SWAP1 POP JUMP JUMPDEST PUSH1 0x0 PUSH1 0x20 DUP3 DUP5 SUB SLT ISZERO PUSH2 0x25F2 JUMPI DUP1 DUP2 REVERT JUMPDEST DUP2 MLOAD PUSH8 0xFFFFFFFFFFFFFFFF DUP1 DUP3 GT ISZERO PUSH2 0x2609 JUMPI DUP3 DUP4 REVERT JUMPDEST DUP2 DUP5 ADD SWAP2 POP DUP5 PUSH1 0x1F DUP4 ADD SLT PUSH2 0x261C JUMPI DUP3 DUP4 REVERT JUMPDEST DUP2 MLOAD DUP2 DUP2 GT ISZERO PUSH2 0x2628 JUMPI INVALID JUMPDEST PUSH1 0x40 MLOAD PUSH1 0x1F DUP3 ADD PUSH1 0x1F NOT AND DUP2 ADD PUSH1 0x20 ADD DUP4 DUP2 GT DUP3 DUP3 LT OR ISZERO PUSH2 0x2646 JUMPI INVALID JUMPDEST PUSH1 0x40 MSTORE DUP2 DUP2 MSTORE DUP4 DUP3 ADD PUSH1 0x20 ADD DUP8 LT ISZERO PUSH2 0x265D JUMPI DUP5 DUP6 REVERT JUMPDEST PUSH2 0x266E DUP3 PUSH1 0x20 DUP4 ADD PUSH1 0x20 DUP8 ADD PUSH2 0x2BDB JUMP JUMPDEST SWAP7 SWAP6 POP POP POP POP POP POP JUMP JUMPDEST PUSH1 0x0 DUP1 PUSH2 0x180 DUP4 DUP6 SUB SLT ISZERO PUSH2 0x268B JUMPI DUP2 DUP3 REVERT JUMPDEST PUSH2 0x2695 DUP5 DUP5 PUSH2 0x226B JUMP JUMPDEST SWAP2 POP PUSH2 0x1607 DUP5 PUSH1 0xC0 DUP6 ADD PUSH2 0x226B JUMP JUMPDEST PUSH1 0x0 DUP1 PUSH1 0x0 PUSH1 0x60 DUP5 DUP7 SUB SLT ISZERO PUSH2 0x26B8 JUMPI DUP1 DUP2 REVERT JUMPDEST DUP4 CALLDATALOAD PUSH2 0x26C3 DUP2 PUSH2 0x2C47 JUMP JUMPDEST SWAP3 POP PUSH1 0x20 DUP5 ADD CALLDATALOAD PUSH2 0x26D3 DUP2 PUSH2 0x2C57 JUMP JUMPDEST SWAP2 POP PUSH1 0x40 DUP5 ADD CALLDATALOAD PUSH2 0x26E3 DUP2 PUSH2 0x2C6A JUMP JUMPDEST DUP1 SWAP2 POP POP SWAP3 POP SWAP3 POP SWAP3 JUMP JUMPDEST DUP2 DUP4 MSTORE PUSH1 0x0 PUSH1 0x1 PUSH1 0x1 PUSH1 0xFB SHL SUB DUP4 GT ISZERO PUSH2 0x2706 JUMPI DUP1 DUP2 REVERT JUMPDEST PUSH1 0x20 DUP4 MUL DUP1 DUP4 PUSH1 0x20 DUP8 ADD CALLDATACOPY SWAP4 SWAP1 SWAP4 ADD PUSH1 0x20 ADD SWAP3 DUP4 MSTORE POP SWAP1 SWAP2 SWAP1 POP JUMP JUMPDEST PUSH1 0x0 DUP3 DUP5 MSTORE DUP3 DUP3 PUSH1 0x20 DUP7 ADD CALLDATACOPY DUP1 PUSH1 0x20 DUP5 DUP7 ADD ADD MSTORE PUSH1 0x20 PUSH1 0x1F NOT PUSH1 0x1F DUP6 ADD AND DUP6 ADD ADD SWAP1 POP SWAP4 SWAP3 POP POP POP JUMP JUMPDEST DUP1 MLOAD PUSH5 0xFFFFFFFFFF AND DUP3 MSTORE PUSH1 0x20 DUP1 DUP3 ADD MLOAD PUSH1 0x1 PUSH1 0x1 PUSH1 0xF8 SHL SUB NOT AND SWAP1 DUP4 ADD MSTORE PUSH1 0x40 DUP1 DUP3 ADD MLOAD PUSH1 0xFF AND SWAP1 DUP4 ADD MSTORE PUSH1 0x60 DUP1 DUP3 ADD MLOAD PUSH2 0xFFFF AND SWAP1 DUP4 ADD MSTORE PUSH1 0x80 DUP1 DUP3 ADD MLOAD PUSH1 0x1 PUSH1 0x1 PUSH1 0x70 SHL SUB NOT AND SWAP1 DUP4 ADD MSTORE PUSH1 0xA0 SWAP1 DUP2 ADD MLOAD ISZERO ISZERO SWAP2 ADD MSTORE JUMP JUMPDEST PUSH2 0xFFFF DUP2 MLOAD AND DUP3 MSTORE PUSH1 0x20 DUP2 ADD MLOAD PUSH1 0x20 DUP4 ADD MSTORE PUSH1 0x40 DUP2 ADD MLOAD PUSH1 0x40 DUP4 ADD MSTORE PUSH1 0x60 DUP2 ADD MLOAD PUSH1 0x60 DUP4 ADD MSTORE PUSH1 0x80 DUP2 ADD MLOAD PUSH1 0x80 DUP4 ADD MSTORE PUSH1 0xA0 DUP2 ADD MLOAD PUSH1 0x4 DUP2 LT PUSH2 0x27E6 JUMPI INVALID JUMPDEST DUP1 PUSH1 0xA0 DUP5 ADD MSTORE POP POP POP JUMP JUMPDEST PUSH1 0x0 DUP3 DUP5 DUP4 CALLDATACOPY SWAP2 ADD SWAP1 DUP2 MSTORE SWAP2 SWAP1 POP JUMP JUMPDEST PUSH1 0x1 PUSH1 0x1 PUSH1 0xA0 SHL SUB SWAP2 SWAP1 SWAP2 AND DUP2 MSTORE PUSH1 0x20 ADD SWAP1 JUMP JUMPDEST PUSH1 0x1 PUSH1 0x1 PUSH1 0xA0 SHL SUB DUP10 DUP2 AND DUP3 MSTORE DUP9 AND PUSH1 0x20 DUP3 ADD MSTORE PUSH1 0xA0 PUSH1 0x40 DUP3 ADD DUP2 SWAP1 MSTORE PUSH1 0x0 SWAP1 PUSH2 0x2842 SWAP1 DUP4 ADD DUP9 DUP11 PUSH2 0x26EE JUMP JUMPDEST DUP3 DUP2 SUB PUSH1 0x60 DUP5 ADD MSTORE PUSH2 0x2855 DUP2 DUP8 DUP10 PUSH2 0x26EE JUMP JUMPDEST SWAP1 POP DUP3 DUP2 SUB PUSH1 0x80 DUP5 ADD MSTORE PUSH2 0x286A DUP2 DUP6 DUP8 PUSH2 0x2722 JUMP JUMPDEST SWAP12 SWAP11 POP POP POP POP POP POP POP POP POP POP POP JUMP JUMPDEST PUSH1 0x1 PUSH1 0x1 PUSH1 0xA0 SHL SUB DUP8 DUP2 AND DUP3 MSTORE DUP7 AND PUSH1 0x20 DUP3 ADD MSTORE PUSH1 0x40 DUP2 ADD DUP6 SWAP1 MSTORE PUSH1 0x60 DUP2 ADD DUP5 SWAP1 MSTORE PUSH1 0xA0 PUSH1 0x80 DUP3 ADD DUP2 SWAP1 MSTORE PUSH1 0x0 SWAP1 PUSH2 0x193A SWAP1 DUP4 ADD DUP5 DUP7 PUSH2 0x2722 JUMP JUMPDEST PUSH1 0x1 PUSH1 0x1 PUSH1 0xA0 SHL SUB SWAP3 DUP4 AND DUP2 MSTORE SWAP2 AND PUSH1 0x20 DUP3 ADD MSTORE PUSH1 0x40 ADD SWAP1 JUMP JUMPDEST PUSH1 0x0 PUSH2 0x1E0 DUP1 DUP4 ADD PUSH1 0x1 DUP1 PUSH1 0xA0 SHL SUB DUP1 DUP11 AND DUP6 MSTORE PUSH1 0x20 DUP2 DUP11 AND DUP2 DUP8 ADD MSTORE PUSH2 0x28F8 PUSH1 0x40 DUP8 ADD DUP11 PUSH2 0x274C JUMP JUMPDEST PUSH2 0x2906 PUSH2 0x100 DUP8 ADD DUP10 PUSH2 0x274C JUMP JUMPDEST PUSH2 0x1C0 DUP7 ADD SWAP4 SWAP1 SWAP4 MSTORE POP DUP5 MLOAD SWAP1 DUP2 SWAP1 MSTORE PUSH2 0x200 DUP5 ADD SWAP2 DUP1 DUP7 ADD SWAP2 SWAP1 DUP5 JUMPDEST DUP3 DUP2 LT ISZERO PUSH2 0x2949 JUMPI PUSH2 0x2936 DUP6 DUP6 MLOAD PUSH2 0x27A7 JUMP JUMPDEST PUSH1 0xC0 SWAP5 SWAP1 SWAP5 ADD SWAP4 SWAP3 DUP2 ADD SWAP3 PUSH1 0x1 ADD PUSH2 0x2923 JUMP JUMPDEST POP SWAP3 SWAP11 SWAP10 POP POP POP POP POP POP POP POP POP POP JUMP JUMPDEST PUSH1 0x1 PUSH1 0x1 PUSH1 0xA0 SHL SUB SWAP3 SWAP1 SWAP3 AND DUP3 MSTORE PUSH1 0x20 DUP3 ADD MSTORE PUSH1 0x40 ADD SWAP1 JUMP JUMPDEST PUSH1 0x20 DUP1 DUP3 MSTORE DUP3 MLOAD DUP3 DUP3 ADD DUP2 SWAP1 MSTORE PUSH1 0x0 SWAP2 SWAP1 DUP5 DUP3 ADD SWAP1 PUSH1 0x40 DUP6 ADD SWAP1 DUP5 JUMPDEST DUP2 DUP2 LT ISZERO PUSH2 0x29AA JUMPI DUP4 MLOAD DUP4 MSTORE SWAP3 DUP5 ADD SWAP3 SWAP2 DUP5 ADD SWAP2 PUSH1 0x1 ADD PUSH2 0x298E JUMP JUMPDEST POP SWAP1 SWAP7 SWAP6 POP POP POP POP POP POP JUMP JUMPDEST PUSH1 0x20 DUP1 DUP3 MSTORE DUP3 MLOAD DUP3 DUP3 ADD DUP2 SWAP1 MSTORE PUSH1 0x0 SWAP2 SWAP1 DUP5 DUP3 ADD SWAP1 PUSH1 0x40 DUP6 ADD SWAP1 DUP5 JUMPDEST DUP2 DUP2 LT ISZERO PUSH2 0x29AA JUMPI PUSH2 0x29E5 DUP4 DUP6 MLOAD PUSH2 0x27A7 JUMP JUMPDEST SWAP3 DUP5 ADD SWAP3 PUSH1 0xC0 SWAP3 SWAP1 SWAP3 ADD SWAP2 PUSH1 0x1 ADD PUSH2 0x29D2 JUMP JUMPDEST SWAP1 ISZERO ISZERO DUP2 MSTORE PUSH1 0x20 ADD SWAP1 JUMP JUMPDEST SWAP1 DUP2 MSTORE PUSH1 0x20 ADD SWAP1 JUMP JUMPDEST PUSH1 0x0 PUSH1 0x20 DUP3 MSTORE DUP3 MLOAD DUP1 PUSH1 0x20 DUP5 ADD MSTORE PUSH2 0x2A2B DUP2 PUSH1 0x40 DUP6 ADD PUSH1 0x20 DUP8 ADD PUSH2 0x2BDB JUMP JUMPDEST PUSH1 0x1F ADD PUSH1 0x1F NOT AND SWAP2 SWAP1 SWAP2 ADD PUSH1 0x40 ADD SWAP3 SWAP2 POP POP JUMP JUMPDEST PUSH1 0x20 DUP1 DUP3 MSTORE PUSH1 0xF SWAP1 DUP3 ADD MSTORE PUSH15 0x496E76616C69642061646472657373 PUSH1 0x88 SHL PUSH1 0x40 DUP3 ADD MSTORE PUSH1 0x60 ADD SWAP1 JUMP JUMPDEST PUSH1 0x20 DUP1 DUP3 MSTORE PUSH1 0x11 SWAP1 DUP3 ADD MSTORE PUSH17 0x155B985D5D1A1BDC9A5E99590818D85B1B PUSH1 0x7A SHL PUSH1 0x40 DUP3 ADD MSTORE PUSH1 0x60 ADD SWAP1 JUMP JUMPDEST PUSH1 0x20 DUP1 DUP3 MSTORE PUSH1 0xC SWAP1 DUP3 ADD MSTORE PUSH12 0x155B985D5D1A1BDC9A5E9959 PUSH1 0xA2 SHL PUSH1 0x40 DUP3 ADD MSTORE PUSH1 0x60 ADD SWAP1 JUMP JUMPDEST PUSH1 0x20 DUP1 DUP3 MSTORE PUSH1 0xD SWAP1 DUP3 ADD MSTORE PUSH13 0x92DCECC2D8D2C840D2DCC8CAF PUSH1 0x9B SHL PUSH1 0x40 DUP3 ADD MSTORE PUSH1 0x60 ADD SWAP1 JUMP JUMPDEST PUSH1 0x20 DUP1 DUP3 MSTORE PUSH1 0x10 SWAP1 DUP3 ADD MSTORE PUSH16 0x2737902232B13A102A3930B739B332B9 PUSH1 0x81 SHL PUSH1 0x40 DUP3 ADD MSTORE PUSH1 0x60 ADD SWAP1 JUMP JUMPDEST PUSH1 0x20 DUP1 DUP3 MSTORE PUSH1 0x10 SWAP1 DUP3 ADD MSTORE PUSH16 0x496E76616C6964206D61747572697479 PUSH1 0x80 SHL PUSH1 0x40 DUP3 ADD MSTORE PUSH1 0x60 ADD SWAP1 JUMP JUMPDEST PUSH1 0x20 DUP1 DUP3 MSTORE PUSH1 0x12 SWAP1 DUP3 ADD MSTORE PUSH18 0x12511CC81B5D5CDD081899481CDBDC9D1959 PUSH1 0x72 SHL PUSH1 0x40 DUP3 ADD MSTORE PUSH1 0x60 ADD SWAP1 JUMP JUMPDEST PUSH1 0x20 DUP1 DUP3 MSTORE PUSH1 0x13 SWAP1 DUP3 ADD MSTORE PUSH19 0x27B7363C903321B0B9B4102A3930B739B332B9 PUSH1 0x69 SHL PUSH1 0x40 DUP3 ADD MSTORE PUSH1 0x60 ADD SWAP1 JUMP JUMPDEST PUSH1 0x20 DUP1 DUP3 MSTORE PUSH1 0xC SWAP1 DUP3 ADD MSTORE PUSH12 0x139BDD081858D8D95C1D1959 PUSH1 0xA2 SHL PUSH1 0x40 DUP3 ADD MSTORE PUSH1 0x60 ADD SWAP1 JUMP JUMPDEST PUSH1 0x0 DUP1 DUP6 DUP6 GT ISZERO PUSH2 0x2BC2 JUMPI DUP2 DUP3 REVERT JUMPDEST DUP4 DUP7 GT ISZERO PUSH2 0x2BCE JUMPI DUP2 DUP3 REVERT JUMPDEST POP POP DUP3 ADD SWAP4 SWAP2 SWAP1 SWAP3 SUB SWAP2 POP JUMP JUMPDEST PUSH1 0x0 JUMPDEST DUP4 DUP2 LT ISZERO PUSH2 0x2BF6 JUMPI DUP2 DUP2 ADD MLOAD DUP4 DUP3 ADD MSTORE PUSH1 0x20 ADD PUSH2 0x2BDE JUMP JUMPDEST DUP4 DUP2 GT ISZERO PUSH2 0x2C05 JUMPI PUSH1 0x0 DUP5 DUP5 ADD MSTORE JUMPDEST POP POP POP POP JUMP JUMPDEST PUSH1 0x1 PUSH1 0x1 PUSH1 0xA0 SHL SUB DUP2 AND DUP2 EQ PUSH2 0x2C20 JUMPI PUSH1 0x0 DUP1 REVERT JUMPDEST POP JUMP JUMPDEST DUP1 ISZERO ISZERO DUP2 EQ PUSH2 0x2C20 JUMPI PUSH1 0x0 DUP1 REVERT JUMPDEST PUSH1 0x1 PUSH1 0x1 PUSH1 0xE0 SHL SUB NOT DUP2 AND DUP2 EQ PUSH2 0x2C20 JUMPI PUSH1 0x0 DUP1 REVERT JUMPDEST PUSH2 0xFFFF DUP2 AND DUP2 EQ PUSH2 0x2C20 JUMPI PUSH1 0x0 DUP1 REVERT JUMPDEST PUSH5 0xFFFFFFFFFF DUP2 AND DUP2 EQ PUSH2 0x2C20 JUMPI PUSH1 0x0 DUP1 REVERT JUMPDEST PUSH1 0xFF DUP2 AND DUP2 EQ PUSH2 0x2C20 JUMPI PUSH1 0x0 DUP1 REVERT INVALID LOG2 PUSH5 0x6970667358 0x22 SLT KECCAK256 DUP3 CALLVALUE 0xF PUSH11 0xC05260114DEE027CAEDFFF EXTCODEHASH 0x2D MSTORE8 DUP13 CALLDATALOAD PUSH21 0x5A12B461B1C8BF228103D464736F6C634300070600 CALLER ","sha1":"5612fc8e94a58d5fc4ae2c5df7dea6c1985ceafc","source":"// SPDX-License-Identifier: BSUL-1.1\npragma solidity =0.7.6;\npragma abicoder v2;\n\nimport {\n    AccountContext,\n    PortfolioAsset,\n    MarketParameters\n} from '../../global/Types.sol';\nimport {StorageLayoutV1} from \"../../global/StorageLayoutV1.sol\";\nimport {Constants} from \"../../global/Constants.sol\";\nimport {SafeInt256} from \"../../math/SafeInt256.sol\";\n\nimport {Emitter} from \"../../internal/Emitter.sol\";\nimport {AccountContextHandler} from \"../../internal/AccountContextHandler.sol\";\nimport {DateTime} from \"../../internal/markets/DateTime.sol\";\nimport {CashGroup} from \"../../internal/markets/CashGroup.sol\";\nimport {Market} from \"../../internal/markets/Market.sol\";\nimport {nTokenHandler} from \"../../internal/nToken/nTokenHandler.sol\";\nimport {TransferAssets} from \"../../internal/portfolio/TransferAssets.sol\";\nimport {PortfolioHandler} from \"../../internal/portfolio/PortfolioHandler.sol\";\nimport {BitmapAssetsHandler} from \"../../internal/portfolio/BitmapAssetsHandler.sol\";\nimport {AssetHandler} from \"../../internal/valuation/AssetHandler.sol\";\n\nimport {FreeCollateralExternal} from \"../FreeCollateralExternal.sol\";\nimport {SettleAssetsExternal} from \"../SettleAssetsExternal.sol\";\nimport {ActionGuards} from \"./ActionGuards.sol\";\n\nimport {NotionalProxy} from \"../../../interfaces/notional/NotionalProxy.sol\";\nimport {IERC1155TokenReceiver} from \"../../../interfaces/IERC1155TokenReceiver.sol\";\nimport {nERC1155Interface} from \"../../../interfaces/notional/nERC1155Interface.sol\";\nimport {IVaultAccountHealth} from \"../../../interfaces/notional/IVaultController.sol\";\nimport \"@openzeppelin/contracts/token/ERC1155/IERC1155.sol\";\nimport \"@openzeppelin/contracts/utils/Address.sol\";\n\ncontract ERC1155Action is nERC1155Interface, ActionGuards {\n    using SafeInt256 for int256;\n    using AccountContextHandler for AccountContext;\n\n    bytes4 internal constant ERC1155_ACCEPTED = bytes4(keccak256(\"onERC1155Received(address,address,uint256,uint256,bytes)\"));\n    bytes4 internal constant ERC1155_BATCH_ACCEPTED = bytes4(keccak256(\"onERC1155BatchReceived(address,address,uint256[],uint256[],bytes)\"));\n\n    function supportsInterface(bytes4 interfaceId) external pure override returns (bool) {\n        return interfaceId == type(IERC1155).interfaceId;\n    }\n\n    /// @notice Returns the balance of an ERC1155 id on an account.\n    /// @param account account to get the id for\n    /// @param id the ERC1155 id\n    /// @return Balance of the ERC1155 id as an unsigned integer (negative fCash balances return zero)\n    function balanceOf(address account, uint256 id) public view override returns (uint256) {\n        int256 notional = signedBalanceOf(account, id);\n        return notional < 0 ? 0 : notional.toUint();\n    }\n\n    /// @notice Returns the balance of an ERC1155 id on an account.\n    /// @param account account to get the id for\n    /// @param id the ERC1155 id\n    /// @return notional balance of the ERC1155 id as a signed integer\n    function signedBalanceOf(address account, uint256 id) public view override returns (int256 notional) {\n        if (nTokenHandler.nTokenAddress(Emitter.decodeCurrencyId(id)) == account) {\n            // Special handling for nToken balances since they do not work like regular account balances.\n            return _balanceInNToken(account, id);\n        } else if (Emitter.isfCash(id)) {\n            (uint16 currencyId, uint256 maturity, bool isfCashDebt) = Emitter.decodefCashId(id);\n            AccountContext memory accountContext = AccountContextHandler.getAccountContext(account);\n\n            if (accountContext.isBitmapEnabled()) {\n                notional = _balanceInBitmap(account, accountContext.bitmapCurrencyId, currencyId, maturity);\n            } else {\n                notional = _balanceInArray(\n                    PortfolioHandler.getSortedPortfolio(account, accountContext.assetArrayLength),\n                    currencyId,\n                    maturity\n                );\n            }\n\n            // If asking for the fCash debt id, then return the positive amount or zero if it is not debt\n            if (isfCashDebt) return notional < 0 ? notional.neg() : 0;\n            return notional;\n        } else {\n            // In this case, the id is referencing a vault asset and we make a call back to retrieve the relevant\n            // data. This is pretty inefficient for on chain calls but will work fine for off chain calls\n            return IVaultAccountHealth(address(this)).signedBalanceOfVaultTokenId(account, id);\n        }\n    }\n\n    /// @notice Returns the balance of a batch of accounts and ids.\n    /// @param accounts array of accounts to get balances for\n    /// @param ids array of ids to get balances for\n    /// @return Returns an array of signed balances\n    function signedBalanceOfBatch(address[] calldata accounts, uint256[] calldata ids)\n        external\n        view\n        override\n        returns (int256[] memory)\n    {\n        require(accounts.length == ids.length);\n        int256[] memory amounts = new int256[](accounts.length);\n\n        for (uint256 i; i < accounts.length; i++) {\n            // This is pretty inefficient but gets the job done\n            amounts[i] = signedBalanceOf(accounts[i], ids[i]);\n        }\n\n        return amounts;\n    }\n\n    /// @notice Returns the balance of a batch of accounts and ids. WARNING: negative fCash balances are represented\n    /// as zero balances in the array. \n    /// @param accounts array of accounts to get balances for\n    /// @param ids array of ids to get balances for\n    /// @return Returns an array of unsigned balances\n    function balanceOfBatch(address[] calldata accounts, uint256[] calldata ids)\n        external\n        view\n        override\n        returns (uint256[] memory)\n    {\n        require(accounts.length == ids.length);\n        uint256[] memory amounts = new uint256[](accounts.length);\n\n        for (uint256 i; i < accounts.length; i++) {\n            // This is pretty inefficient but gets the job done\n            amounts[i] = balanceOf(accounts[i], ids[i]);\n        }\n\n        return amounts;\n    }\n\n    /// @dev Returns the balance from a bitmap given the id\n    function _balanceInBitmap(\n        address account,\n        uint256 bitmapCurrencyId,\n        uint16 currencyId,\n        uint256 maturity\n    ) internal view returns (int256) {\n        if (currencyId == 0 || currencyId != bitmapCurrencyId) {\n            return 0;\n        } else {\n            return BitmapAssetsHandler.getifCashNotional(account, currencyId, maturity);\n        }\n    }\n\n    /// @dev Searches an array for the matching asset\n    function _balanceInArray(\n        PortfolioAsset[] memory portfolio, uint16 currencyId, uint256 maturity\n    ) internal pure returns (int256) {\n        for (uint256 i; i < portfolio.length; i++) {\n            PortfolioAsset memory asset = portfolio[i];\n            if (\n                asset.currencyId == currencyId &&\n                asset.maturity == maturity &&\n                asset.assetType == Constants.FCASH_ASSET_TYPE\n            ) return asset.notional;\n        }\n\n        return 0;\n    }\n\n    function _balanceInNToken(address nTokenAccount, uint256 id) internal view returns (int256 balance) {\n        (uint16 currencyId, uint256 maturity, bool isfCashDebt) = Emitter.decodefCashId(id);\n        // Allow the balanceOf to search all of the max markets, if the returned market index exceeds the asset array length then,\n        // the function will return a zero balance rather than revert.\n        (uint256 marketIndex, bool isIdiosyncratic) = DateTime.getMarketIndex(Constants.MAX_TRADED_MARKET_INDEX, maturity, block.timestamp);\n\n        if (isIdiosyncratic || isfCashDebt) {\n            // If asking for an idiosyncratic market or fCash debt, then the fCash balance will only be in the bitmap\n            balance = _balanceInBitmap(nTokenAccount, currencyId, currencyId, maturity);\n\n            // Flip the sign to positive if asking for the fCash debt\n            if (isfCashDebt) return balance < 0 ? balance.neg() : 0;\n        } else {\n            // If asking for the positive fCash balance, that means we need to load the market and get the cash claims\n            (/* */, /* */, /* */, uint8 assetArrayLength, /* */) = nTokenHandler.getNTokenContext(nTokenAccount);\n\n            // Market index is beyond the maximum length of the market so return a zero balance.\n            if (marketIndex > assetArrayLength) return 0;\n\n            PortfolioAsset[] memory liquidityTokens = PortfolioHandler.getSortedPortfolio(nTokenAccount, assetArrayLength);\n            MarketParameters memory market;\n            // rateOracleTimeWindow is not used here, so it is set to 1 to save some gas. This also only loads the current settlement\n            // market, if markets are not initialized this will not return the proper balance.\n            Market.loadMarket(market, currencyId, maturity, block.timestamp, true, 1);\n            if (market.totalLiquidity == 0) return 0;\n\n            (/* int256 cashClaim */, balance) = AssetHandler.getCashClaims(liquidityTokens[marketIndex - 1], market);\n        }\n    }\n\n    /// @notice Transfer of a single fCash or liquidity token asset between accounts. Allows `from` account to transfer more fCash\n    /// than they have as long as they pass a subsequent free collateral check. This enables OTC trading of fCash assets.\n    /// @param from account to transfer from\n    /// @param to account to transfer to\n    /// @param id ERC1155 id of the asset\n    /// @param amount amount to transfer\n    /// @param data arbitrary data passed to ERC1155Receiver (if contract) and if properly specified can be used to initiate\n    /// a trading action on Notional for the `from` address\n    /// @dev emit:TransferSingle, emit:AccountContextUpdate, emit:AccountSettled\n    function safeTransferFrom(\n        address from,\n        address to,\n        uint256 id,\n        uint256 amount,\n        bytes calldata data\n    ) external payable override {\n        // NOTE: there is no re-entrancy guard on this method because that would prevent a callback in \n        // _checkPostTransferEvent. The external call to the receiver is done at the very end after all stateful\n        // updates have occurred.\n        _validateAccounts(from, to);\n\n        // When amount is set to zero this method can be used as a way to execute trades via a transfer operator\n        AccountContext memory fromContext;\n        if (amount > 0) {\n            PortfolioAsset[] memory assets = new PortfolioAsset[](1);\n            PortfolioAsset memory asset = assets[0];\n\n            // Only Positive fCash is supported in ERC1155 transfers\n            _decodeTofCashAsset(id, asset);\n\n            // This ensures that asset.notional is always a positive amount\n            asset.notional = SafeInt256.toInt(amount);\n            _requireValidMaturity(asset.currencyId, asset.maturity, block.timestamp);\n\n            // prettier-ignore\n            (fromContext, /* toContext */) = _transfer(from, to, assets);\n        } else {\n            fromContext = AccountContextHandler.getAccountContext(from);\n        }\n\n        // toContext is always empty here because we cannot have bidirectional transfers in `safeTransferFrom`\n        AccountContext memory toContext;\n        _checkPostTransferEvent(from, to, fromContext, toContext, data, false);\n\n        // Do this external call at the end to prevent re-entrancy\n        if (Address.isContract(to)) {\n            require(\n                IERC1155TokenReceiver(to).onERC1155Received(msg.sender, from, id, amount, data) ==\n                    ERC1155_ACCEPTED,\n                \"Not accepted\"\n            );\n        }\n    }\n\n    /// @notice Transfer of a batch of fCash or liquidity token assets between accounts. Allows `from` account to transfer more fCash\n    /// than they have as long as they pass a subsequent free collateral check. This enables OTC trading of fCash assets.\n    /// @param from account to transfer from\n    /// @param to account to transfer to\n    /// @param ids ERC1155 ids of the assets\n    /// @param amounts amounts to transfer\n    /// @param data arbitrary data passed to ERC1155Receiver (if contract) and if properly specified can be used to initiate\n    /// a trading action on Notional for the `from` address\n    /// @dev emit:TransferBatch, emit:AccountContextUpdate, emit:AccountSettled\n    function safeBatchTransferFrom(\n        address from,\n        address to,\n        uint256[] calldata ids,\n        uint256[] calldata amounts,\n        bytes calldata data\n    ) external payable override {\n        // NOTE: there is no re-entrancy guard on this method because that would prevent a callback in \n        // _checkPostTransferEvent. The external call to the receiver is done at the very end.\n        _validateAccounts(from, to);\n\n        (PortfolioAsset[] memory assets, bool toTransferNegative) = _decodeToAssets(ids, amounts);\n        // When doing a bidirectional transfer must ensure that the `to` account has given approval\n        // to msg.sender as well.\n        if (toTransferNegative) require(isApprovedForAll(to, msg.sender), \"Unauthorized\");\n\n        (AccountContext memory fromContext, AccountContext memory toContext) = _transfer(\n            from,\n            to,\n            assets\n        );\n\n        _checkPostTransferEvent(from, to, fromContext, toContext, data, toTransferNegative);\n\n        // Do this at the end to prevent re-entrancy\n        if (Address.isContract(to)) {\n            require(\n                IERC1155TokenReceiver(to).onERC1155BatchReceived(\n                    msg.sender,\n                    from,\n                    ids,\n                    amounts,\n                    data\n                ) == ERC1155_BATCH_ACCEPTED,\n                \"Not accepted\"\n            );\n        }\n    }\n\n    /// @dev Validates accounts on transfer\n    function _validateAccounts(address from, address to) private view {\n        // Cannot transfer to self, cannot transfer to zero address\n        require(from != to && to != address(0) && to != address(this), \"Invalid address\");\n        // Authentication is valid\n        require(msg.sender == from || isApprovedForAll(from, msg.sender), \"Unauthorized\");\n        // nTokens will not accept transfers because they do not implement the ERC1155\n        // receive method\n\n        // Defensive check to ensure that an authorized operator does not call these methods\n        // with an invalid `from` account\n        requireValidAccount(from);\n    }\n\n    /// @notice Decodes ids and amounts to PortfolioAsset objects\n    /// @param ids array of ERC1155 ids\n    /// @param amounts amounts to transfer\n    /// @return array of portfolio asset objects\n    function decodeToAssets(uint256[] calldata ids, uint256[] calldata amounts)\n        external\n        view\n        override\n        returns (PortfolioAsset[] memory)\n    {\n        // prettier-ignore\n        (PortfolioAsset[] memory assets, /* */) = _decodeToAssets(ids, amounts);\n        return assets;\n    }\n\n    function _decodeTofCashAsset(uint256 id, PortfolioAsset memory asset) private pure {\n        require(Emitter.isfCash(id), \"Only fCash Transfer\");\n        bool isfCashDebt;\n        (asset.currencyId, asset.maturity, isfCashDebt) = Emitter.decodefCashId(id);\n        // Technically debt is transferrable inside this method, but for clarity and backwards compatibility\n        // this restriction is applied here.\n        require(!isfCashDebt, \"No Debt Transfer\");\n\n        asset.assetType = Constants.FCASH_ASSET_TYPE;\n    }\n\n    function _decodeToAssets(uint256[] calldata ids, uint256[] calldata amounts)\n        private\n        view\n        returns (PortfolioAsset[] memory, bool)\n    {\n        require(ids.length == amounts.length);\n        bool toTransferNegative = false;\n        PortfolioAsset[] memory assets = new PortfolioAsset[](ids.length);\n\n        for (uint256 i; i < ids.length; i++) {\n            // Require that ids are not duplicated, there is no valid reason to have duplicate ids\n            if (i > 0) require(ids[i] > ids[i - 1], \"IDs must be sorted\");\n\n            PortfolioAsset memory asset = assets[i];\n            _decodeTofCashAsset(ids[i], assets[i]);\n\n            _requireValidMaturity(asset.currencyId, asset.maturity, block.timestamp);\n            // Although amounts is encoded as uint256 we allow it to be negative here. This will\n            // allow for bidirectional transfers of fCash. Internally fCash assets are always stored\n            // as int128 (for bitmap portfolio) or int88 (for array portfolio) so there is no potential\n            // that a uint256 value that is greater than type(int256).max would actually valid.\n            asset.notional = int256(amounts[i]);\n            // If there is a negative transfer we mark it as such, this will force us to do a free collateral\n            // check on the `to` address as well.\n            if (asset.notional < 0) toTransferNegative = true;\n        }\n\n        return (assets, toTransferNegative);\n    }\n\n    /// @notice Encodes parameters into an ERC1155 id, this method always returns an fCash id\n    /// @param currencyId currency id of the asset\n    /// @param maturity timestamp of the maturity\n    /// @return ERC1155 id\n    function encodeToId(\n        uint16 currencyId,\n        uint40 maturity,\n        uint8 /* assetType */\n    ) external pure override returns (uint256) {\n        return Emitter.encodefCashId(currencyId, maturity, 0);\n    }\n\n    /// @dev Ensures that all maturities specified are valid for the currency id (i.e. they do not\n    /// go past the max maturity date)\n    function _requireValidMaturity(\n        uint256 currencyId,\n        uint256 maturity,\n        uint256 blockTime\n    ) private view {\n        require(\n            DateTime.isValidMaturity(CashGroup.getMaxMarketIndex(currencyId), maturity, blockTime),\n            \"Invalid maturity\"\n        );\n    }\n\n    /// @dev Internal asset transfer event between accounts\n    function _transfer(\n        address from,\n        address to,\n        PortfolioAsset[] memory assets\n    ) internal returns (AccountContext memory, AccountContext memory) {\n        AccountContext memory toContext = AccountContextHandler.getAccountContext(to);\n        AccountContext memory fromContext = AccountContextHandler.getAccountContext(from);\n        \n        // NOTE: context returned are in different memory locations\n        (fromContext, toContext) = SettleAssetsExternal.transferAssets(\n            from, to, fromContext, toContext, assets\n        );\n\n        fromContext.setAccountContext(from);\n        toContext.setAccountContext(to);\n\n        return (fromContext, toContext);\n    }\n\n    /// @dev Checks post transfer events which will either be initiating one of the batch trading events or a free collateral\n    /// check if required.\n    function _checkPostTransferEvent(\n        address from,\n        address to,\n        AccountContext memory fromContext,\n        AccountContext memory toContext,\n        bytes calldata data,\n        bool toTransferNegative\n    ) internal {\n        bytes4 sig = 0;\n        address transactedAccount = address(0);\n        if (data.length >= 32) {\n            // Method signature is not abi encoded so decode to bytes32 first and take the first 4 bytes. This works\n            // because all the methods we want to call below require more than 32 bytes in the calldata\n            bytes32 tmp = abi.decode(data, (bytes32));\n            sig = bytes4(tmp);\n        }\n\n        // These are the only four methods allowed to occur in a post transfer event. These actions allow `from`\n        // accounts to take any sort of trading action as a result of their transfer. All of these actions will\n        // handle checking free collateral so no additional check is necessary here.\n        if (\n            sig == NotionalProxy.nTokenRedeem.selector ||\n            sig == NotionalProxy.batchLend.selector ||\n            sig == NotionalProxy.batchBalanceAction.selector ||\n            sig == NotionalProxy.batchBalanceAndTradeAction.selector\n        ) {\n            transactedAccount = abi.decode(data[4:36], (address));\n            // Ensure that the \"transactedAccount\" parameter of the call is set to the from address or the\n            // to address. If it is the \"to\" address then ensure that the msg.sender has approval to\n            // execute operations\n            require(\n                transactedAccount == from ||\n                    (transactedAccount == to && isApprovedForAll(to, msg.sender)),\n                \"Unauthorized call\"\n            );\n\n            // We can only call back to Notional itself at this point, account context is already\n            // stored and all three of the whitelisted methods above will check free collateral.\n            (bool status, bytes memory result) = address(this).call{value: msg.value}(data);\n            require(status, _getRevertMsg(result));\n        }\n\n        // The transacted account will have its free collateral checked above so there is\n        // no need to recheck here.\n        // If transactedAccount == 0 then will check fc\n        // If transactedAccount == to then will check fc\n        // If transactedAccount == from then will skip, prefer call above\n        if (transactedAccount != from && fromContext.hasDebt != 0x00) {\n            FreeCollateralExternal.checkFreeCollateralAndRevert(from);\n        }\n\n        // Check free collateral if the `to` account has taken on a negative fCash amount\n        // If toTransferNegative is false then will not check\n        // If transactedAccount == 0 then will check fc\n        // If transactedAccount == from then will check fc\n        // If transactedAccount == to then will skip, prefer call above\n        if (toTransferNegative && transactedAccount != to && toContext.hasDebt != 0x00) {\n            FreeCollateralExternal.checkFreeCollateralAndRevert(to);\n        }\n    }\n\n    function _getRevertMsg(bytes memory _returnData) internal pure returns (string memory) {\n        // If the _res length is less than 68, then the transaction failed silently (without a revert message)\n        if (_returnData.length < 68) return \"Transaction reverted silently\";\n\n        assembly {\n            // Slice the sighash.\n            _returnData := add(_returnData, 0x04)\n        }\n        return abi.decode(_returnData, (string)); // All that remains is the revert string\n    }\n\n    /// @notice Allows an account to set approval for an operator\n    /// @param operator address of the operator\n    /// @param approved state of the approval\n    /// @dev emit:ApprovalForAll\n    function setApprovalForAll(address operator, bool approved) external override {\n        accountAuthorizedTransferOperator[msg.sender][operator] = approved;\n        emit ApprovalForAll(msg.sender, operator, approved);\n    }\n\n    /// @notice Checks approval state for an account, will first check if global transfer operator is enabled\n    /// before falling through to an account specific transfer operator.\n    /// @param account address of the account\n    /// @param operator address of the operator\n    /// @return true for approved\n    function isApprovedForAll(address account, address operator)\n        public\n        view\n        override\n        returns (bool)\n    {\n        if (globalTransferOperator[operator]) return true;\n\n        return accountAuthorizedTransferOperator[account][operator];\n    }\n\n    /// @notice Get a list of deployed library addresses (sorted by library name)\n    function getLibInfo() external pure returns (address, address) {\n        return (address(FreeCollateralExternal), address(SettleAssetsExternal));\n    }\n}\n","sourcePath":"contracts/external/actions/ERC1155Action.sol","type":"contract","deployment":{"address":"0xe58ed9bed8211Eb6405d7288f8903084Bc6C4a57","chainid":"42161","blockHeight":164625710}}