{"abi":[{"inputs":[{"internalType":"contract NotionalProxy","name":"notional","type":"address"},{"internalType":"uint16","name":"currencyId","type":"uint16"},{"internalType":"contract IERC20","name":"incentive_token","type":"address"},{"internalType":"uint128","name":"_emissionRatePerYear","type":"uint128"},{"internalType":"uint32","name":"_endTime","type":"uint32"}],"stateMutability":"nonpayable","type":"constructor","name":"constructor"},{"anonymous":false,"inputs":[{"indexed":false,"internalType":"uint256","name":"emissionRatePerYear","type":"uint256"},{"indexed":false,"internalType":"uint256","name":"endTime","type":"uint256"}],"name":"RewardEmissionUpdate","type":"event"},{"anonymous":false,"inputs":[{"indexed":true,"internalType":"address","name":"rewardToken","type":"address"},{"indexed":true,"internalType":"address","name":"account","type":"address"},{"indexed":false,"internalType":"uint256","name":"amount","type":"uint256"}],"name":"RewardTransfer","type":"event"},{"inputs":[],"name":"CURRENCY_ID","outputs":[{"internalType":"uint16","name":"","type":"uint16"}],"stateMutability":"view","type":"function"},{"inputs":[],"name":"NOTIONAL","outputs":[{"internalType":"contract NotionalProxy","name":"","type":"address"}],"stateMutability":"view","type":"function"},{"inputs":[],"name":"NTOKEN_ADDRESS","outputs":[{"internalType":"address","name":"","type":"address"}],"stateMutability":"view","type":"function"},{"inputs":[],"name":"REWARD_TOKEN","outputs":[{"internalType":"address","name":"","type":"address"}],"stateMutability":"view","type":"function"},{"inputs":[],"name":"REWARD_TOKEN_DECIMALS","outputs":[{"internalType":"uint8","name":"","type":"uint8"}],"stateMutability":"view","type":"function"},{"inputs":[],"name":"accumulatedRewardPerNToken","outputs":[{"internalType":"uint128","name":"","type":"uint128"}],"stateMutability":"view","type":"function"},{"inputs":[{"internalType":"address","name":"account","type":"address"},{"internalType":"uint16","name":"currencyId","type":"uint16"},{"internalType":"uint256","name":"nTokenBalanceBefore","type":"uint256"},{"internalType":"uint256","name":"nTokenBalanceAfter","type":"uint256"},{"internalType":"uint256","name":"priorNTokenSupply","type":"uint256"}],"name":"claimRewards","outputs":[],"stateMutability":"nonpayable","type":"function"},{"inputs":[{"internalType":"address","name":"account","type":"address"},{"internalType":"uint256","name":"nTokenBalanceAtDetach","type":"uint256"},{"internalType":"bytes32[]","name":"proof","type":"bytes32[]"}],"name":"claimRewardsDirect","outputs":[],"stateMutability":"nonpayable","type":"function"},{"inputs":[],"name":"detach","outputs":[],"stateMutability":"nonpayable","type":"function"},{"inputs":[],"name":"detached","outputs":[{"internalType":"bool","name":"","type":"bool"}],"stateMutability":"view","type":"function"},{"inputs":[],"name":"emissionRatePerYear","outputs":[{"internalType":"uint128","name":"","type":"uint128"}],"stateMutability":"view","type":"function"},{"inputs":[],"name":"endTime","outputs":[{"internalType":"uint32","name":"","type":"uint32"}],"stateMutability":"view","type":"function"},{"inputs":[{"internalType":"address","name":"account","type":"address"},{"internalType":"uint256","name":"nTokenBalanceAtDetach","type":"uint256"},{"internalType":"bytes32[]","name":"proof","type":"bytes32[]"}],"name":"getAccountRewardClaim","outputs":[{"internalType":"uint256","name":"rewardToClaim","type":"uint256"}],"stateMutability":"view","type":"function"},{"inputs":[{"internalType":"address","name":"account","type":"address"},{"internalType":"uint32","name":"blockTime","type":"uint32"}],"name":"getAccountRewardClaim","outputs":[{"internalType":"uint256","name":"rewardToClaim","type":"uint256"}],"stateMutability":"view","type":"function"},{"inputs":[],"name":"lastAccumulatedTime","outputs":[{"internalType":"uint32","name":"","type":"uint32"}],"stateMutability":"view","type":"function"},{"inputs":[],"name":"merkleRoot","outputs":[{"internalType":"bytes32","name":"","type":"bytes32"}],"stateMutability":"view","type":"function"},{"inputs":[{"internalType":"address","name":"token","type":"address"},{"internalType":"uint256","name":"amount","type":"uint256"}],"name":"recover","outputs":[],"stateMutability":"nonpayable","type":"function"},{"inputs":[{"internalType":"address","name":"","type":"address"}],"name":"rewardDebtPerAccount","outputs":[{"internalType":"uint128","name":"","type":"uint128"}],"stateMutability":"view","type":"function"},{"inputs":[{"internalType":"uint128","name":"_emissionRatePerYear","type":"uint128"},{"internalType":"uint32","name":"_endTime","type":"uint32"}],"name":"setIncentiveEmissionRate","outputs":[],"stateMutability":"nonpayable","type":"function"},{"inputs":[{"internalType":"bytes32","name":"_merkleRoot","type":"bytes32"}],"name":"setMerkleRoot","outputs":[],"stateMutability":"nonpayable","type":"function"}],"bytecode":"6101206040523480156200001257600080fd5b5060405162001c2c38038062001c2c833981810160405260a08110156200003857600080fd5b5080516020808301516040808501516060808701516080978801519187901b6001600160601b03191690975260f084901b6001600160f01b0319166101005282516325d2c41560e21b815261ffff85166004820152925195969395919490926001600160a01b0388169263974b105492602480840193919291829003018186803b158015620000c657600080fd5b505afa158015620000db573d6000803e3d6000fd5b505050506040513d6020811015620000f257600080fd5b50516001600160601b0319606091821b811660a0529084901b1660c0526040805163313ce56760e01b815290516001600160a01b0385169163313ce567916004808301926020929190829003018186803b1580156200015057600080fd5b505afa15801562000165573d6000803e3d6000fd5b505050506040513d60208110156200017c57600080fd5b505160f81b7fff000000000000000000000000000000000000000000000000000000000000001660e052620001c66001600160801b03831662000291602090811b6200111b17901c565b6001805466ffffffffffffff60481b1916690100000000000000000066ffffffffffffff93909316929092029190911763ffffffff60281b1916650100000000004263ffffffff908116820292909217928390558382169204161062000266576040805162461bcd60e51b815260206004820152601060248201526f496e76616c696420456e642054696d6560801b604482015290519081900360640190fd5b6001805463ffffffff9092166101000264ffffffff0019909216919091179055506200037592505050565b60008065ffffffffffff831115620002bf57602f620002bb84620002ce60201b6200114a1760201c565b0390505b82811c60081b1790505b919050565b600081620002db57600080fd5b600160801b8210620002ef57608091821c91015b6801000000000000000082106200030857604091821c91015b64010000000082106200031d57602091821c91015b6201000082106200033057601091821c91015b61010082106200034257600891821c91015b601082106200035357600491821c91015b600482106200036457600291821c91015b60028210620002c957600101919050565b60805160601c60a05160601c60c05160601c60e05160f81c6101005160f01c6118276200040560003980610a595280610e3d52508061045852806114ae525080610e035280611358528061138a5250806105f25280610790528061086e5280610f90528061103b5250806104df52806107bd52806109b25280610b015280610cb55280610ddf52506118276000f3fe608060405234801561001057600080fd5b506004361061012c5760003560e01c80635705ae43116100ad5780639c07e54c116100715780639c07e54c146103705780639d4be3f514610378578063a105fc9614610397578063dacf76bd1461041c578063dadff3c41461044e5761012c565b80635705ae43146102d55780637cb64759146103015780637d43702f1461031e578063858dccb31461036057806399248ea7146103685761012c565b80632eb4a7ab116100f45780632eb4a7ab146102345780633197cbb61461024e5780633f3ef50d1461026f578063432cc1b3146102b15780634fd371e3146102cd5761012c565b80630330d663146101315780630537b3571461014f5780630e1e772f146101d65780631c92197614610208578063225435c01461022c575b600080fd5b610139610456565b6040805160ff9092168252519081900360200190f35b6101d46004803603606081101561016557600080fd5b6001600160a01b038235169160208101359181019060608101604082013564010000000081111561019557600080fd5b8201836020820111156101a757600080fd5b803590602001918460208302840111640100000000831117156101c957600080fd5b50909250905061047a565b005b6101d4600480360360408110156101ec57600080fd5b5080356001600160801b0316906020013563ffffffff166104dd565b61021061078e565b604080516001600160a01b039092168252519081900360200190f35b6101d46107b2565b61023c610990565b60408051918252519081900360200190f35b610256610996565b6040805163ffffffff9092168252519081900360200190f35b6101d4600480360360a081101561028557600080fd5b506001600160a01b038135169061ffff60208201351690604081013590606081013590608001356109a7565b6102b9610ae3565b604080519115158252519081900360200190f35b610256610aec565b6101d4600480360360408110156102eb57600080fd5b506001600160a01b038135169060200135610aff565b6101d46004803603602081101561031757600080fd5b5035610cb3565b6103446004803603602081101561033457600080fd5b50356001600160a01b0316610dc2565b604080516001600160801b039092168252519081900360200190f35b610210610ddd565b610210610e01565b610344610e25565b610380610e3b565b6040805161ffff9092168252519081900360200190f35b61023c600480360360608110156103ad57600080fd5b6001600160a01b03823516916020810135918101906060810160408201356401000000008111156103dd57600080fd5b8201836020820111156103ef57600080fd5b8035906020019184602083028401116401000000008311171561041157600080fd5b509092509050610e5f565b61023c6004803603604081101561043257600080fd5b5080356001600160a01b0316906020013563ffffffff16610eea565b6103446110f7565b7f000000000000000000000000000000000000000000000000000000000000000081565b60015460ff166104c0576040805162461bcd60e51b815260206004820152600c60248201526b139bdd0819195d1858da195960a21b604482015290519081900360640190fd5b6104cc848484846111e8565b6104d78484856112b2565b50505050565b7f00000000000000000000000000000000000000000000000000000000000000006001600160a01b0316638da5cb5b6040518163ffffffff1660e01b815260040160206040518083038186803b15801561053657600080fd5b505afa15801561054a573d6000803e3d6000fd5b505050506040513d602081101561056057600080fd5b50516001600160a01b031633146105ab576040805162461bcd60e51b815260206004820152600a60248201526927b7363c9037bbb732b960b11b604482015290519081900360640190fd5b60015460ff16156105ee576040805162461bcd60e51b815260206004820152600860248201526711195d1858da195960c21b604482015290519081900360640190fd5b60007f00000000000000000000000000000000000000000000000000000000000000006001600160a01b03166318160ddd6040518163ffffffff1660e01b815260040160206040518083038186803b15801561064957600080fd5b505afa15801561065d573d6000803e3d6000fd5b505050506040513d602081101561067357600080fd5b5051905061068142826113ef565b610693836001600160801b031661111b565b6001805466ffffffffffffff92909216600160481b0266ffffffffffffff60481b19909216919091179081905563ffffffff808416600160281b9092041610610716576040805162461bcd60e51b815260206004820152601060248201526f496e76616c696420456e642054696d6560801b604482015290519081900360640190fd5b6001805464ffffffff00191661010063ffffffff85160217908190557f5208ab6d453e25ff339785d249c1622a65a099886cb31e91ba4bce4987d3316c9061076d90600160481b900466ffffffffffffff16611471565b6040805191825263ffffffff851660208301528051918290030190a1505050565b7f000000000000000000000000000000000000000000000000000000000000000081565b336001600160a01b037f0000000000000000000000000000000000000000000000000000000000000000161461081f576040805162461bcd60e51b815260206004820152600d60248201526c13db9b1e48139bdd1a5bdb985b609a1b604482015290519081900360640190fd5b60015460ff161561086a576040805162461bcd60e51b815260206004820152601060248201526f105b1c9958591e4819195d1858da195960821b604482015290519081900360640190fd5b60007f00000000000000000000000000000000000000000000000000000000000000006001600160a01b03166318160ddd6040518163ffffffff1660e01b815260040160206040518083038186803b1580156108c557600080fd5b505afa1580156108d9573d6000803e3d6000fd5b505050506040513d60208110156108ef57600080fd5b505190506108fd42826113ef565b6001805460ff1916811766ffffffffffffff60481b191690819055610100900463ffffffff16421015610945576001805464ffffffff0019166101004263ffffffff16021790555b600154604080516000815261010090920463ffffffff16602083015280517f5208ab6d453e25ff339785d249c1622a65a099886cb31e91ba4bce4987d3316c9281900390910190a150565b60005481565b600154610100900463ffffffff1681565b336001600160a01b037f00000000000000000000000000000000000000000000000000000000000000001614610a14576040805162461bcd60e51b815260206004820152600d60248201526c13db9b1e48139bdd1a5bdb985b609a1b604482015290519081900360640190fd5b60015460ff1615610a57576040805162461bcd60e51b815260206004820152600860248201526711195d1858da195960c21b604482015290519081900360640190fd5b7f000000000000000000000000000000000000000000000000000000000000000061ffff168461ffff1614610ac7576040805162461bcd60e51b815260206004820152601160248201527015dc9bdb99c818dd5c9c995b98de481a59607a1b604482015290519081900360640190fd5b610ad142826113ef565b610adc8584846112b2565b5050505050565b60015460ff1681565b600154600160281b900463ffffffff1681565b7f00000000000000000000000000000000000000000000000000000000000000006001600160a01b0316638da5cb5b6040518163ffffffff1660e01b815260040160206040518083038186803b158015610b5857600080fd5b505afa158015610b6c573d6000803e3d6000fd5b505050506040513d6020811015610b8257600080fd5b50516001600160a01b03163314610bcd576040805162461bcd60e51b815260206004820152600a60248201526927b7363c9037bbb732b960b11b604482015290519081900360640190fd5b6001600160a01b038216610c3657604051600090339083908381818185875af1925050503d8060008114610c1d576040519150601f19603f3d011682016040523d82523d6000602084013e610c22565b606091505b5050905080610c3057600080fd5b50610caf565b6040805163a9059cbb60e01b81523360048201526024810183905290516001600160a01b0384169163a9059cbb9160448083019260209291908290030181600087803b158015610c8557600080fd5b505af1158015610c99573d6000803e3d6000fd5b505050506040513d60208110156104d757600080fd5b5050565b7f00000000000000000000000000000000000000000000000000000000000000006001600160a01b0316638da5cb5b6040518163ffffffff1660e01b815260040160206040518083038186803b158015610d0c57600080fd5b505afa158015610d20573d6000803e3d6000fd5b505050506040513d6020811015610d3657600080fd5b50516001600160a01b03163314610d81576040805162461bcd60e51b815260206004820152600a60248201526927b7363c9037bbb732b960b11b604482015290519081900360640190fd5b80610dbd576040805162461bcd60e51b8152602060048201526007602482015266125b9d985b1a5960ca1b604482015290519081900360640190fd5b600055565b6002602052600090815260409020546001600160801b031681565b7f000000000000000000000000000000000000000000000000000000000000000081565b7f000000000000000000000000000000000000000000000000000000000000000081565b600154600160801b90046001600160801b031681565b7f000000000000000000000000000000000000000000000000000000000000000081565b60015460009060ff168015610e75575060005415155b610eb5576040805162461bcd60e51b815260206004820152600c60248201526b139bdd0819195d1858da195960a21b604482015290519081900360640190fd5b610ec1858585856111e8565b610ee18585600160109054906101000a90046001600160801b031661147f565b95945050505050565b60015460009060ff1615610f30576040805162461bcd60e51b815260206004820152600860248201526711195d1858da195960c21b604482015290519081900360640190fd5b60015463ffffffff808416600160281b909204161115610f8c576040805162461bcd60e51b8152602060048201526012602482015271496e76616c696420626c6f636b2074696d6560701b604482015290519081900360640190fd5b60007f00000000000000000000000000000000000000000000000000000000000000006001600160a01b03166318160ddd6040518163ffffffff1660e01b815260040160206040518083038186803b158015610fe757600080fd5b505afa158015610ffb573d6000803e3d6000fd5b505050506040513d602081101561101157600080fd5b5051604080516370a0823160e01b81526001600160a01b03878116600483015291519293506000927f0000000000000000000000000000000000000000000000000000000000000000909216916370a0823191602480820192602092909190829003018186803b15801561108457600080fd5b505afa158015611098573d6000803e3d6000fd5b505050506040513d60208110156110ae57600080fd5b50516001549091506000906110d19063ffffffff8088169161010090041661150b565b905060006110df8285611525565b90506110ec87848361147f565b979650505050505050565b60015460009061111690600160481b900466ffffffffffffff16611471565b905090565b60008065ffffffffffff83111561113b57602f6111378461114a565b0390505b82811c60081b1790505b919050565b60008161115657600080fd5b600160801b821061116957608091821c91015b68010000000000000000821061118157604091821c91015b640100000000821061119557602091821c91015b6201000082106111a757601091821c91015b61010082106111b857600891821c91015b601082106111c857600491821c91015b600482106111d857600291821c91015b6002821061114557600101919050565b6000848460405160200180836001600160a01b031660601b815260140182815260200192505050604051602081830303815290604052805190602001209050600061126884848080602002602001604051908101604052809392919081815260200183836020028082843760009201829052505492508691506115ba9050565b9050806112aa576040805162461bcd60e51b815260206004820152600b60248201526a4e6f74496e4d65726b6c6560a81b604482015290519081900360640190fd5b505050505050565b60006112d48484600160109054906101000a90046001600160801b031661147f565b60015490915061130e90611309906305f5e10090611303908690600160801b90046001600160801b0316611663565b9061168a565b6116a9565b6001600160a01b038516600090815260026020526040902080546fffffffffffffffffffffffffffffffff19166001600160801b039290921691909117905580156104d75761137e7f000000000000000000000000000000000000000000000000000000000000000085836116c3565b836001600160a01b03167f00000000000000000000000000000000000000000000000000000000000000006001600160a01b03167fa282a314ffba449688a7c5eb4426bd8e1781944ce824ce34dfaea4691d08f146836040518082815260200191505060405180910390a350505050565b600154610100900463ffffffff1661140657600080fd5b6001546000906114249063ffffffff8086169161010090041661150b565b90506114308183611525565b6001805463ffffffff4216600160281b0268ffffffff0000000000196001600160801b03948516600160801b02949092169390931716919091179055505050565b600881901c60ff9091161b90565b6001600160a01b03831660009081526002602052604081205461150390670de0b6b3a7640000906113039060ff7f000000000000000000000000000000000000000000000000000000000000000016600a0a906114fd906001600160801b03908116906114f7906305f5e1009086908c908c16611663565b9061173f565b90611663565b949350505050565b600081831261151a578161151c565b825b90505b92915050565b600154600090819063ffffffff808616600160281b9092041610801561154b5750826000105b156115995760015463ffffffff600160281b9091048116850316611595846113036301da9c008161157a6110f7565b6001600160801b03166114fd87670de0b6b3a7640000611663565b9150505b6001546115039061130990600160801b90046001600160801b031683611754565b600081815b85518110156116585760008682815181106115d657fe5b6020026020010151905080831161161d578281604051602001808381526020018281526020019250505060405160208183030381529060405280519060200120925061164f565b808360405160200180838152602001828152602001925050506040516020818303038152906040528051906020012092505b506001016115bf565b509092149392505050565b6000826116725750600061151f565b8282028284828161167f57fe5b041461151c57600080fd5b600080821161169857600080fd5b8183816116a157fe5b049392505050565b60006001600160801b038211156116bf57600080fd5b5090565b826001600160a01b031663a9059cbb83836040518363ffffffff1660e01b815260040180836001600160a01b0316815260200182815260200192505050600060405180830381600087803b15801561171a57600080fd5b505af115801561172e573d6000803e3d6000fd5b5050505061173a611766565b505050565b60008282111561174e57600080fd5b50900390565b60008282018381101561151c57600080fd5b60006117706117d3565b3d8015611784576020811461178d57600080fd5b60019250611798565b60206000833e815192505b5081610caf576040805162461bcd60e51b8152602060048201526005602482015264045524332360dc1b604482015290519081900360640190fd5b6040518060200160405280600190602082028036833750919291505056fea26469706673582212209db36116f3aff6647fbed3aaea05b7b15b7237a673b00ee6bc8c85a98000832964736f6c63430007060033","bytecodeSha1":"296ffda5769b991c78fef54c661307a9c906c0bc","compiler":{"evm_version":"istanbul","optimizer":{"enabled":true,"runs":200},"version":"0.7.6+commit.7338295f"},"contractName":"SecondaryRewarder","language":"Solidity","natspec":{"kind":"dev","methods":{"accumulatedRewardPerNToken()":{"notice":"Aggregate tokens accumulated per nToken at `lastAccumulateTime` "},"claimRewards(address,uint16,uint256,uint256,uint256)":{"notice":"Allows claiming rewards but only from Notional system, called on each nToken balance change","params":{"account":"address to claim rewards for","currencyId":"id number of the currency","nTokenBalanceAfter":"account nToken balance after the change","nTokenBalanceBefore":"account nToken balance before the change","priorNTokenSupply":"total nToken supply before the change"}},"claimRewardsDirect(address,uint256,bytes32[])":{"notice":"Allows claiming rewards after rewarder has been detached","params":{"account":"address to claim rewards for","nTokenBalanceAtDetach":"nToken balance of account at time of detachment","proof":"merkle proof to prove account and nTokenBalanceAtDetach are in tree"}},"detach()":{"details":"Called from Notional system to detach rewarder when switching to a new rewarder or when incentive period is over, after this merkle tree of user nToken balances at detach time should be generated offline and merkle root uploaded to this contract"},"detached()":{"notice":"When true user needs to call contract directly to claim any rewards left"},"emissionRatePerYear()":{"notice":"The emission rate of REWARD_TOKEN in INTERNAL_TOKEN_PRECISION"},"endTime()":{"notice":"Marks the timestamp when incentives will end. Will always be less than block.timestamp if detached is true."},"getAccountRewardClaim(address,uint256,bytes32[])":{"notice":"Get amount of reward still left for account to claim, only called after rewarder is detached and merkle root is set","params":{"account":"address to get reward amount for","nTokenBalanceAtDetach":"nToken balance of account at time of detachment","proof":"merkle proof to prove account and nTokenBalanceAtDetach are in tree"}},"getAccountRewardClaim(address,uint32)":{"notice":"Get amount of reward account can claim at specified block time, only called before rewarder is detached","params":{"account":"address to get reward amount for","blockTime":"block time at which to get reward amount"}},"lastAccumulatedTime()":{"notice":"Last time the contract accumulated the reward"},"merkleRoot()":{"notice":"When a rewarder is detached, it converts to an airdrop contract using the this merkleRoot that is set."},"recover(address,uint256)":{"notice":"Allows owner to recover any ERC20 or ETH mistakenly sent to this contract","params":{"amount":"amount to recover","token":"address of the token to recover, in case of ETH pass address(0)"}},"rewardDebtPerAccount(address)":{"notice":"Reward debt per account stored in 18 decimals."},"setIncentiveEmissionRate(uint128,uint32)":{"notice":"Set incentive emission rate and incentive period end time, called only in case emission rate or incentive period changes since it is already set at deploy time, only can be called before rewarder is detached","params":{"_emissionRatePerYear":"emission rate per year in INTERNAL_TOKEN_PRECISION","_endTime":"time in seconds when incentive period will end"}},"setMerkleRoot(bytes32)":{"notice":"Set merkle root, only called after rewarder is detached","params":{"_merkleRoot":"merkle root of the tree that contains accounts and nToken balances at detach time"}}},"stateVariables":{"merkleRoot":{"details":"Uses a single storage slot"}},"version":1},"opcodes":"PUSH1 0x80 PUSH1 0x40 MSTORE CALLVALUE DUP1 ISZERO PUSH2 0x10 JUMPI PUSH1 0x0 DUP1 REVERT JUMPDEST POP PUSH1 0x4 CALLDATASIZE LT PUSH2 0x12C JUMPI PUSH1 0x0 CALLDATALOAD PUSH1 0xE0 SHR DUP1 PUSH4 0x5705AE43 GT PUSH2 0xAD JUMPI DUP1 PUSH4 0x9C07E54C GT PUSH2 0x71 JUMPI DUP1 PUSH4 0x9C07E54C EQ PUSH2 0x370 JUMPI DUP1 PUSH4 0x9D4BE3F5 EQ PUSH2 0x378 JUMPI DUP1 PUSH4 0xA105FC96 EQ PUSH2 0x397 JUMPI DUP1 PUSH4 0xDACF76BD EQ PUSH2 0x41C JUMPI DUP1 PUSH4 0xDADFF3C4 EQ PUSH2 0x44E JUMPI PUSH2 0x12C JUMP JUMPDEST DUP1 PUSH4 0x5705AE43 EQ PUSH2 0x2D5 JUMPI DUP1 PUSH4 0x7CB64759 EQ PUSH2 0x301 JUMPI DUP1 PUSH4 0x7D43702F EQ PUSH2 0x31E JUMPI DUP1 PUSH4 0x858DCCB3 EQ PUSH2 0x360 JUMPI DUP1 PUSH4 0x99248EA7 EQ PUSH2 0x368 JUMPI PUSH2 0x12C JUMP JUMPDEST DUP1 PUSH4 0x2EB4A7AB GT PUSH2 0xF4 JUMPI DUP1 PUSH4 0x2EB4A7AB EQ PUSH2 0x234 JUMPI DUP1 PUSH4 0x3197CBB6 EQ PUSH2 0x24E JUMPI DUP1 PUSH4 0x3F3EF50D EQ PUSH2 0x26F JUMPI DUP1 PUSH4 0x432CC1B3 EQ PUSH2 0x2B1 JUMPI DUP1 PUSH4 0x4FD371E3 EQ PUSH2 0x2CD JUMPI PUSH2 0x12C JUMP JUMPDEST DUP1 PUSH4 0x330D663 EQ PUSH2 0x131 JUMPI DUP1 PUSH4 0x537B357 EQ PUSH2 0x14F JUMPI DUP1 PUSH4 0xE1E772F EQ PUSH2 0x1D6 JUMPI DUP1 PUSH4 0x1C921976 EQ PUSH2 0x208 JUMPI DUP1 PUSH4 0x225435C0 EQ PUSH2 0x22C JUMPI JUMPDEST PUSH1 0x0 DUP1 REVERT JUMPDEST PUSH2 0x139 PUSH2 0x456 JUMP JUMPDEST PUSH1 0x40 DUP1 MLOAD PUSH1 0xFF SWAP1 SWAP3 AND DUP3 MSTORE MLOAD SWAP1 DUP2 SWAP1 SUB PUSH1 0x20 ADD SWAP1 RETURN JUMPDEST PUSH2 0x1D4 PUSH1 0x4 DUP1 CALLDATASIZE SUB PUSH1 0x60 DUP2 LT ISZERO PUSH2 0x165 JUMPI PUSH1 0x0 DUP1 REVERT JUMPDEST PUSH1 0x1 PUSH1 0x1 PUSH1 0xA0 SHL SUB DUP3 CALLDATALOAD AND SWAP2 PUSH1 0x20 DUP2 ADD CALLDATALOAD SWAP2 DUP2 ADD SWAP1 PUSH1 0x60 DUP2 ADD PUSH1 0x40 DUP3 ADD CALLDATALOAD PUSH5 0x100000000 DUP2 GT ISZERO PUSH2 0x195 JUMPI PUSH1 0x0 DUP1 REVERT JUMPDEST DUP3 ADD DUP4 PUSH1 0x20 DUP3 ADD GT ISZERO PUSH2 0x1A7 JUMPI PUSH1 0x0 DUP1 REVERT JUMPDEST DUP1 CALLDATALOAD SWAP1 PUSH1 0x20 ADD SWAP2 DUP5 PUSH1 0x20 DUP4 MUL DUP5 ADD GT PUSH5 0x100000000 DUP4 GT OR ISZERO PUSH2 0x1C9 JUMPI PUSH1 0x0 DUP1 REVERT JUMPDEST POP SWAP1 SWAP3 POP SWAP1 POP PUSH2 0x47A JUMP JUMPDEST STOP JUMPDEST PUSH2 0x1D4 PUSH1 0x4 DUP1 CALLDATASIZE SUB PUSH1 0x40 DUP2 LT ISZERO PUSH2 0x1EC JUMPI PUSH1 0x0 DUP1 REVERT JUMPDEST POP DUP1 CALLDATALOAD PUSH1 0x1 PUSH1 0x1 PUSH1 0x80 SHL SUB AND SWAP1 PUSH1 0x20 ADD CALLDATALOAD PUSH4 0xFFFFFFFF AND PUSH2 0x4DD JUMP JUMPDEST PUSH2 0x210 PUSH2 0x78E JUMP JUMPDEST PUSH1 0x40 DUP1 MLOAD PUSH1 0x1 PUSH1 0x1 PUSH1 0xA0 SHL SUB SWAP1 SWAP3 AND DUP3 MSTORE MLOAD SWAP1 DUP2 SWAP1 SUB PUSH1 0x20 ADD SWAP1 RETURN JUMPDEST PUSH2 0x1D4 PUSH2 0x7B2 JUMP JUMPDEST PUSH2 0x23C PUSH2 0x990 JUMP JUMPDEST PUSH1 0x40 DUP1 MLOAD SWAP2 DUP3 MSTORE MLOAD SWAP1 DUP2 SWAP1 SUB PUSH1 0x20 ADD SWAP1 RETURN JUMPDEST PUSH2 0x256 PUSH2 0x996 JUMP JUMPDEST PUSH1 0x40 DUP1 MLOAD PUSH4 0xFFFFFFFF SWAP1 SWAP3 AND DUP3 MSTORE MLOAD SWAP1 DUP2 SWAP1 SUB PUSH1 0x20 ADD SWAP1 RETURN JUMPDEST PUSH2 0x1D4 PUSH1 0x4 DUP1 CALLDATASIZE SUB PUSH1 0xA0 DUP2 LT ISZERO PUSH2 0x285 JUMPI PUSH1 0x0 DUP1 REVERT JUMPDEST POP PUSH1 0x1 PUSH1 0x1 PUSH1 0xA0 SHL SUB DUP2 CALLDATALOAD AND SWAP1 PUSH2 0xFFFF PUSH1 0x20 DUP3 ADD CALLDATALOAD AND SWAP1 PUSH1 0x40 DUP2 ADD CALLDATALOAD SWAP1 PUSH1 0x60 DUP2 ADD CALLDATALOAD SWAP1 PUSH1 0x80 ADD CALLDATALOAD PUSH2 0x9A7 JUMP JUMPDEST PUSH2 0x2B9 PUSH2 0xAE3 JUMP JUMPDEST PUSH1 0x40 DUP1 MLOAD SWAP2 ISZERO ISZERO DUP3 MSTORE MLOAD SWAP1 DUP2 SWAP1 SUB PUSH1 0x20 ADD SWAP1 RETURN JUMPDEST PUSH2 0x256 PUSH2 0xAEC JUMP JUMPDEST PUSH2 0x1D4 PUSH1 0x4 DUP1 CALLDATASIZE SUB PUSH1 0x40 DUP2 LT ISZERO PUSH2 0x2EB JUMPI PUSH1 0x0 DUP1 REVERT JUMPDEST POP PUSH1 0x1 PUSH1 0x1 PUSH1 0xA0 SHL SUB DUP2 CALLDATALOAD AND SWAP1 PUSH1 0x20 ADD CALLDATALOAD PUSH2 0xAFF JUMP JUMPDEST PUSH2 0x1D4 PUSH1 0x4 DUP1 CALLDATASIZE SUB PUSH1 0x20 DUP2 LT ISZERO PUSH2 0x317 JUMPI PUSH1 0x0 DUP1 REVERT JUMPDEST POP CALLDATALOAD PUSH2 0xCB3 JUMP JUMPDEST PUSH2 0x344 PUSH1 0x4 DUP1 CALLDATASIZE SUB PUSH1 0x20 DUP2 LT ISZERO PUSH2 0x334 JUMPI PUSH1 0x0 DUP1 REVERT JUMPDEST POP CALLDATALOAD PUSH1 0x1 PUSH1 0x1 PUSH1 0xA0 SHL SUB AND PUSH2 0xDC2 JUMP JUMPDEST PUSH1 0x40 DUP1 MLOAD PUSH1 0x1 PUSH1 0x1 PUSH1 0x80 SHL SUB SWAP1 SWAP3 AND DUP3 MSTORE MLOAD SWAP1 DUP2 SWAP1 SUB PUSH1 0x20 ADD SWAP1 RETURN JUMPDEST PUSH2 0x210 PUSH2 0xDDD JUMP JUMPDEST PUSH2 0x210 PUSH2 0xE01 JUMP JUMPDEST PUSH2 0x344 PUSH2 0xE25 JUMP JUMPDEST PUSH2 0x380 PUSH2 0xE3B JUMP JUMPDEST PUSH1 0x40 DUP1 MLOAD PUSH2 0xFFFF SWAP1 SWAP3 AND DUP3 MSTORE MLOAD SWAP1 DUP2 SWAP1 SUB PUSH1 0x20 ADD SWAP1 RETURN JUMPDEST PUSH2 0x23C PUSH1 0x4 DUP1 CALLDATASIZE SUB PUSH1 0x60 DUP2 LT ISZERO PUSH2 0x3AD JUMPI PUSH1 0x0 DUP1 REVERT JUMPDEST PUSH1 0x1 PUSH1 0x1 PUSH1 0xA0 SHL SUB DUP3 CALLDATALOAD AND SWAP2 PUSH1 0x20 DUP2 ADD CALLDATALOAD SWAP2 DUP2 ADD SWAP1 PUSH1 0x60 DUP2 ADD PUSH1 0x40 DUP3 ADD CALLDATALOAD PUSH5 0x100000000 DUP2 GT ISZERO PUSH2 0x3DD JUMPI PUSH1 0x0 DUP1 REVERT JUMPDEST DUP3 ADD DUP4 PUSH1 0x20 DUP3 ADD GT ISZERO PUSH2 0x3EF JUMPI PUSH1 0x0 DUP1 REVERT JUMPDEST DUP1 CALLDATALOAD SWAP1 PUSH1 0x20 ADD SWAP2 DUP5 PUSH1 0x20 DUP4 MUL DUP5 ADD GT PUSH5 0x100000000 DUP4 GT OR ISZERO PUSH2 0x411 JUMPI PUSH1 0x0 DUP1 REVERT JUMPDEST POP SWAP1 SWAP3 POP SWAP1 POP PUSH2 0xE5F JUMP JUMPDEST PUSH2 0x23C PUSH1 0x4 DUP1 CALLDATASIZE SUB PUSH1 0x40 DUP2 LT ISZERO PUSH2 0x432 JUMPI PUSH1 0x0 DUP1 REVERT JUMPDEST POP DUP1 CALLDATALOAD PUSH1 0x1 PUSH1 0x1 PUSH1 0xA0 SHL SUB AND SWAP1 PUSH1 0x20 ADD CALLDATALOAD PUSH4 0xFFFFFFFF AND PUSH2 0xEEA JUMP JUMPDEST PUSH2 0x344 PUSH2 0x10F7 JUMP JUMPDEST PUSH32 0x0 DUP2 JUMP JUMPDEST PUSH1 0x1 SLOAD PUSH1 0xFF AND PUSH2 0x4C0 JUMPI PUSH1 0x40 DUP1 MLOAD PUSH3 0x461BCD PUSH1 0xE5 SHL DUP2 MSTORE PUSH1 0x20 PUSH1 0x4 DUP3 ADD MSTORE PUSH1 0xC PUSH1 0x24 DUP3 ADD MSTORE PUSH12 0x139BDD0819195D1858DA1959 PUSH1 0xA2 SHL PUSH1 0x44 DUP3 ADD MSTORE SWAP1 MLOAD SWAP1 DUP2 SWAP1 SUB PUSH1 0x64 ADD SWAP1 REVERT JUMPDEST PUSH2 0x4CC DUP5 DUP5 DUP5 DUP5 PUSH2 0x11E8 JUMP JUMPDEST PUSH2 0x4D7 DUP5 DUP5 DUP6 PUSH2 0x12B2 JUMP JUMPDEST POP POP POP POP JUMP JUMPDEST PUSH32 0x0 PUSH1 0x1 PUSH1 0x1 PUSH1 0xA0 SHL SUB AND PUSH4 0x8DA5CB5B PUSH1 0x40 MLOAD DUP2 PUSH4 0xFFFFFFFF AND PUSH1 0xE0 SHL DUP2 MSTORE PUSH1 0x4 ADD PUSH1 0x20 PUSH1 0x40 MLOAD DUP1 DUP4 SUB DUP2 DUP7 DUP1 EXTCODESIZE ISZERO DUP1 ISZERO PUSH2 0x536 JUMPI PUSH1 0x0 DUP1 REVERT JUMPDEST POP GAS STATICCALL ISZERO DUP1 ISZERO PUSH2 0x54A JUMPI RETURNDATASIZE PUSH1 0x0 DUP1 RETURNDATACOPY RETURNDATASIZE PUSH1 0x0 REVERT JUMPDEST POP POP POP POP PUSH1 0x40 MLOAD RETURNDATASIZE PUSH1 0x20 DUP2 LT ISZERO PUSH2 0x560 JUMPI PUSH1 0x0 DUP1 REVERT JUMPDEST POP MLOAD PUSH1 0x1 PUSH1 0x1 PUSH1 0xA0 SHL SUB AND CALLER EQ PUSH2 0x5AB JUMPI PUSH1 0x40 DUP1 MLOAD PUSH3 0x461BCD PUSH1 0xE5 SHL DUP2 MSTORE PUSH1 0x20 PUSH1 0x4 DUP3 ADD MSTORE PUSH1 0xA PUSH1 0x24 DUP3 ADD MSTORE PUSH10 0x27B7363C9037BBB732B9 PUSH1 0xB1 SHL PUSH1 0x44 DUP3 ADD MSTORE SWAP1 MLOAD SWAP1 DUP2 SWAP1 SUB PUSH1 0x64 ADD SWAP1 REVERT JUMPDEST PUSH1 0x1 SLOAD PUSH1 0xFF AND ISZERO PUSH2 0x5EE JUMPI PUSH1 0x40 DUP1 MLOAD PUSH3 0x461BCD PUSH1 0xE5 SHL DUP2 MSTORE PUSH1 0x20 PUSH1 0x4 DUP3 ADD MSTORE PUSH1 0x8 PUSH1 0x24 DUP3 ADD MSTORE PUSH8 0x11195D1858DA1959 PUSH1 0xC2 SHL PUSH1 0x44 DUP3 ADD MSTORE SWAP1 MLOAD SWAP1 DUP2 SWAP1 SUB PUSH1 0x64 ADD SWAP1 REVERT JUMPDEST PUSH1 0x0 PUSH32 0x0 PUSH1 0x1 PUSH1 0x1 PUSH1 0xA0 SHL SUB AND PUSH4 0x18160DDD PUSH1 0x40 MLOAD DUP2 PUSH4 0xFFFFFFFF AND PUSH1 0xE0 SHL DUP2 MSTORE PUSH1 0x4 ADD PUSH1 0x20 PUSH1 0x40 MLOAD DUP1 DUP4 SUB DUP2 DUP7 DUP1 EXTCODESIZE ISZERO DUP1 ISZERO PUSH2 0x649 JUMPI PUSH1 0x0 DUP1 REVERT JUMPDEST POP GAS STATICCALL ISZERO DUP1 ISZERO PUSH2 0x65D JUMPI RETURNDATASIZE PUSH1 0x0 DUP1 RETURNDATACOPY RETURNDATASIZE PUSH1 0x0 REVERT JUMPDEST POP POP POP POP PUSH1 0x40 MLOAD RETURNDATASIZE PUSH1 0x20 DUP2 LT ISZERO PUSH2 0x673 JUMPI PUSH1 0x0 DUP1 REVERT JUMPDEST POP MLOAD SWAP1 POP PUSH2 0x681 TIMESTAMP DUP3 PUSH2 0x13EF JUMP JUMPDEST PUSH2 0x693 DUP4 PUSH1 0x1 PUSH1 0x1 PUSH1 0x80 SHL SUB AND PUSH2 0x111B JUMP JUMPDEST PUSH1 0x1 DUP1 SLOAD PUSH7 0xFFFFFFFFFFFFFF SWAP3 SWAP1 SWAP3 AND PUSH1 0x1 PUSH1 0x48 SHL MUL PUSH7 0xFFFFFFFFFFFFFF PUSH1 0x48 SHL NOT SWAP1 SWAP3 AND SWAP2 SWAP1 SWAP2 OR SWAP1 DUP2 SWAP1 SSTORE PUSH4 0xFFFFFFFF DUP1 DUP5 AND PUSH1 0x1 PUSH1 0x28 SHL SWAP1 SWAP3 DIV AND LT PUSH2 0x716 JUMPI PUSH1 0x40 DUP1 MLOAD PUSH3 0x461BCD PUSH1 0xE5 SHL DUP2 MSTORE PUSH1 0x20 PUSH1 0x4 DUP3 ADD MSTORE PUSH1 0x10 PUSH1 0x24 DUP3 ADD MSTORE PUSH16 0x496E76616C696420456E642054696D65 PUSH1 0x80 SHL PUSH1 0x44 DUP3 ADD MSTORE SWAP1 MLOAD SWAP1 DUP2 SWAP1 SUB PUSH1 0x64 ADD SWAP1 REVERT JUMPDEST PUSH1 0x1 DUP1 SLOAD PUSH5 0xFFFFFFFF00 NOT AND PUSH2 0x100 PUSH4 0xFFFFFFFF DUP6 AND MUL OR SWAP1 DUP2 SWAP1 SSTORE PUSH32 0x5208AB6D453E25FF339785D249C1622A65A099886CB31E91BA4BCE4987D3316C SWAP1 PUSH2 0x76D SWAP1 PUSH1 0x1 PUSH1 0x48 SHL SWAP1 DIV PUSH7 0xFFFFFFFFFFFFFF AND PUSH2 0x1471 JUMP JUMPDEST PUSH1 0x40 DUP1 MLOAD SWAP2 DUP3 MSTORE PUSH4 0xFFFFFFFF DUP6 AND PUSH1 0x20 DUP4 ADD MSTORE DUP1 MLOAD SWAP2 DUP3 SWAP1 SUB ADD SWAP1 LOG1 POP POP POP JUMP JUMPDEST PUSH32 0x0 DUP2 JUMP JUMPDEST CALLER PUSH1 0x1 PUSH1 0x1 PUSH1 0xA0 SHL SUB PUSH32 0x0 AND EQ PUSH2 0x81F JUMPI PUSH1 0x40 DUP1 MLOAD PUSH3 0x461BCD PUSH1 0xE5 SHL DUP2 MSTORE PUSH1 0x20 PUSH1 0x4 DUP3 ADD MSTORE PUSH1 0xD PUSH1 0x24 DUP3 ADD MSTORE PUSH13 0x13DB9B1E48139BDD1A5BDB985B PUSH1 0x9A SHL PUSH1 0x44 DUP3 ADD MSTORE SWAP1 MLOAD SWAP1 DUP2 SWAP1 SUB PUSH1 0x64 ADD SWAP1 REVERT JUMPDEST PUSH1 0x1 SLOAD PUSH1 0xFF AND ISZERO PUSH2 0x86A JUMPI PUSH1 0x40 DUP1 MLOAD PUSH3 0x461BCD PUSH1 0xE5 SHL DUP2 MSTORE PUSH1 0x20 PUSH1 0x4 DUP3 ADD MSTORE PUSH1 0x10 PUSH1 0x24 DUP3 ADD MSTORE PUSH16 0x105B1C9958591E4819195D1858DA1959 PUSH1 0x82 SHL PUSH1 0x44 DUP3 ADD MSTORE SWAP1 MLOAD SWAP1 DUP2 SWAP1 SUB PUSH1 0x64 ADD SWAP1 REVERT JUMPDEST PUSH1 0x0 PUSH32 0x0 PUSH1 0x1 PUSH1 0x1 PUSH1 0xA0 SHL SUB AND PUSH4 0x18160DDD PUSH1 0x40 MLOAD DUP2 PUSH4 0xFFFFFFFF AND PUSH1 0xE0 SHL DUP2 MSTORE PUSH1 0x4 ADD PUSH1 0x20 PUSH1 0x40 MLOAD DUP1 DUP4 SUB DUP2 DUP7 DUP1 EXTCODESIZE ISZERO DUP1 ISZERO PUSH2 0x8C5 JUMPI PUSH1 0x0 DUP1 REVERT JUMPDEST POP GAS STATICCALL ISZERO DUP1 ISZERO PUSH2 0x8D9 JUMPI RETURNDATASIZE PUSH1 0x0 DUP1 RETURNDATACOPY RETURNDATASIZE PUSH1 0x0 REVERT JUMPDEST POP POP POP POP PUSH1 0x40 MLOAD RETURNDATASIZE PUSH1 0x20 DUP2 LT ISZERO PUSH2 0x8EF JUMPI PUSH1 0x0 DUP1 REVERT JUMPDEST POP MLOAD SWAP1 POP PUSH2 0x8FD TIMESTAMP DUP3 PUSH2 0x13EF JUMP JUMPDEST PUSH1 0x1 DUP1 SLOAD PUSH1 0xFF NOT AND DUP2 OR PUSH7 0xFFFFFFFFFFFFFF PUSH1 0x48 SHL NOT AND SWAP1 DUP2 SWAP1 SSTORE PUSH2 0x100 SWAP1 DIV PUSH4 0xFFFFFFFF AND TIMESTAMP LT ISZERO PUSH2 0x945 JUMPI PUSH1 0x1 DUP1 SLOAD PUSH5 0xFFFFFFFF00 NOT AND PUSH2 0x100 TIMESTAMP PUSH4 0xFFFFFFFF AND MUL OR SWAP1 SSTORE JUMPDEST PUSH1 0x1 SLOAD PUSH1 0x40 DUP1 MLOAD PUSH1 0x0 DUP2 MSTORE PUSH2 0x100 SWAP1 SWAP3 DIV PUSH4 0xFFFFFFFF AND PUSH1 0x20 DUP4 ADD MSTORE DUP1 MLOAD PUSH32 0x5208AB6D453E25FF339785D249C1622A65A099886CB31E91BA4BCE4987D3316C SWAP3 DUP2 SWAP1 SUB SWAP1 SWAP2 ADD SWAP1 LOG1 POP JUMP JUMPDEST PUSH1 0x0 SLOAD DUP2 JUMP JUMPDEST PUSH1 0x1 SLOAD PUSH2 0x100 SWAP1 DIV PUSH4 0xFFFFFFFF AND DUP2 JUMP JUMPDEST CALLER PUSH1 0x1 PUSH1 0x1 PUSH1 0xA0 SHL SUB PUSH32 0x0 AND EQ PUSH2 0xA14 JUMPI PUSH1 0x40 DUP1 MLOAD PUSH3 0x461BCD PUSH1 0xE5 SHL DUP2 MSTORE PUSH1 0x20 PUSH1 0x4 DUP3 ADD MSTORE PUSH1 0xD PUSH1 0x24 DUP3 ADD MSTORE PUSH13 0x13DB9B1E48139BDD1A5BDB985B PUSH1 0x9A SHL PUSH1 0x44 DUP3 ADD MSTORE SWAP1 MLOAD SWAP1 DUP2 SWAP1 SUB PUSH1 0x64 ADD SWAP1 REVERT JUMPDEST PUSH1 0x1 SLOAD PUSH1 0xFF AND ISZERO PUSH2 0xA57 JUMPI PUSH1 0x40 DUP1 MLOAD PUSH3 0x461BCD PUSH1 0xE5 SHL DUP2 MSTORE PUSH1 0x20 PUSH1 0x4 DUP3 ADD MSTORE PUSH1 0x8 PUSH1 0x24 DUP3 ADD MSTORE PUSH8 0x11195D1858DA1959 PUSH1 0xC2 SHL PUSH1 0x44 DUP3 ADD MSTORE SWAP1 MLOAD SWAP1 DUP2 SWAP1 SUB PUSH1 0x64 ADD SWAP1 REVERT JUMPDEST PUSH32 0x0 PUSH2 0xFFFF AND DUP5 PUSH2 0xFFFF AND EQ PUSH2 0xAC7 JUMPI PUSH1 0x40 DUP1 MLOAD PUSH3 0x461BCD PUSH1 0xE5 SHL DUP2 MSTORE PUSH1 0x20 PUSH1 0x4 DUP3 ADD MSTORE PUSH1 0x11 PUSH1 0x24 DUP3 ADD MSTORE PUSH17 0x15DC9BDB99C818DD5C9C995B98DE481A59 PUSH1 0x7A SHL PUSH1 0x44 DUP3 ADD MSTORE SWAP1 MLOAD SWAP1 DUP2 SWAP1 SUB PUSH1 0x64 ADD SWAP1 REVERT JUMPDEST PUSH2 0xAD1 TIMESTAMP DUP3 PUSH2 0x13EF JUMP JUMPDEST PUSH2 0xADC DUP6 DUP5 DUP5 PUSH2 0x12B2 JUMP JUMPDEST POP POP POP POP POP JUMP JUMPDEST PUSH1 0x1 SLOAD PUSH1 0xFF AND DUP2 JUMP JUMPDEST PUSH1 0x1 SLOAD PUSH1 0x1 PUSH1 0x28 SHL SWAP1 DIV PUSH4 0xFFFFFFFF AND DUP2 JUMP JUMPDEST PUSH32 0x0 PUSH1 0x1 PUSH1 0x1 PUSH1 0xA0 SHL SUB AND PUSH4 0x8DA5CB5B PUSH1 0x40 MLOAD DUP2 PUSH4 0xFFFFFFFF AND PUSH1 0xE0 SHL DUP2 MSTORE PUSH1 0x4 ADD PUSH1 0x20 PUSH1 0x40 MLOAD DUP1 DUP4 SUB DUP2 DUP7 DUP1 EXTCODESIZE ISZERO DUP1 ISZERO PUSH2 0xB58 JUMPI PUSH1 0x0 DUP1 REVERT JUMPDEST POP GAS STATICCALL ISZERO DUP1 ISZERO PUSH2 0xB6C JUMPI RETURNDATASIZE PUSH1 0x0 DUP1 RETURNDATACOPY RETURNDATASIZE PUSH1 0x0 REVERT JUMPDEST POP POP POP POP PUSH1 0x40 MLOAD RETURNDATASIZE PUSH1 0x20 DUP2 LT ISZERO PUSH2 0xB82 JUMPI PUSH1 0x0 DUP1 REVERT JUMPDEST POP MLOAD PUSH1 0x1 PUSH1 0x1 PUSH1 0xA0 SHL SUB AND CALLER EQ PUSH2 0xBCD JUMPI PUSH1 0x40 DUP1 MLOAD PUSH3 0x461BCD PUSH1 0xE5 SHL DUP2 MSTORE PUSH1 0x20 PUSH1 0x4 DUP3 ADD MSTORE PUSH1 0xA PUSH1 0x24 DUP3 ADD MSTORE PUSH10 0x27B7363C9037BBB732B9 PUSH1 0xB1 SHL PUSH1 0x44 DUP3 ADD MSTORE SWAP1 MLOAD SWAP1 DUP2 SWAP1 SUB PUSH1 0x64 ADD SWAP1 REVERT JUMPDEST PUSH1 0x1 PUSH1 0x1 PUSH1 0xA0 SHL SUB DUP3 AND PUSH2 0xC36 JUMPI PUSH1 0x40 MLOAD PUSH1 0x0 SWAP1 CALLER SWAP1 DUP4 SWAP1 DUP4 DUP2 DUP2 DUP2 DUP6 DUP8 GAS CALL SWAP3 POP POP POP RETURNDATASIZE DUP1 PUSH1 0x0 DUP2 EQ PUSH2 0xC1D JUMPI PUSH1 0x40 MLOAD SWAP2 POP PUSH1 0x1F NOT PUSH1 0x3F RETURNDATASIZE ADD AND DUP3 ADD PUSH1 0x40 MSTORE RETURNDATASIZE DUP3 MSTORE RETURNDATASIZE PUSH1 0x0 PUSH1 0x20 DUP5 ADD RETURNDATACOPY PUSH2 0xC22 JUMP JUMPDEST PUSH1 0x60 SWAP2 POP JUMPDEST POP POP SWAP1 POP DUP1 PUSH2 0xC30 JUMPI PUSH1 0x0 DUP1 REVERT JUMPDEST POP PUSH2 0xCAF JUMP JUMPDEST PUSH1 0x40 DUP1 MLOAD PUSH4 0xA9059CBB PUSH1 0xE0 SHL DUP2 MSTORE CALLER PUSH1 0x4 DUP3 ADD MSTORE PUSH1 0x24 DUP2 ADD DUP4 SWAP1 MSTORE SWAP1 MLOAD PUSH1 0x1 PUSH1 0x1 PUSH1 0xA0 SHL SUB DUP5 AND SWAP2 PUSH4 0xA9059CBB SWAP2 PUSH1 0x44 DUP1 DUP4 ADD SWAP3 PUSH1 0x20 SWAP3 SWAP2 SWAP1 DUP3 SWAP1 SUB ADD DUP2 PUSH1 0x0 DUP8 DUP1 EXTCODESIZE ISZERO DUP1 ISZERO PUSH2 0xC85 JUMPI PUSH1 0x0 DUP1 REVERT JUMPDEST POP GAS CALL ISZERO DUP1 ISZERO PUSH2 0xC99 JUMPI RETURNDATASIZE PUSH1 0x0 DUP1 RETURNDATACOPY RETURNDATASIZE PUSH1 0x0 REVERT JUMPDEST POP POP POP POP PUSH1 0x40 MLOAD RETURNDATASIZE PUSH1 0x20 DUP2 LT ISZERO PUSH2 0x4D7 JUMPI PUSH1 0x0 DUP1 REVERT JUMPDEST POP POP JUMP JUMPDEST PUSH32 0x0 PUSH1 0x1 PUSH1 0x1 PUSH1 0xA0 SHL SUB AND PUSH4 0x8DA5CB5B PUSH1 0x40 MLOAD DUP2 PUSH4 0xFFFFFFFF AND PUSH1 0xE0 SHL DUP2 MSTORE PUSH1 0x4 ADD PUSH1 0x20 PUSH1 0x40 MLOAD DUP1 DUP4 SUB DUP2 DUP7 DUP1 EXTCODESIZE ISZERO DUP1 ISZERO PUSH2 0xD0C JUMPI PUSH1 0x0 DUP1 REVERT JUMPDEST POP GAS STATICCALL ISZERO DUP1 ISZERO PUSH2 0xD20 JUMPI RETURNDATASIZE PUSH1 0x0 DUP1 RETURNDATACOPY RETURNDATASIZE PUSH1 0x0 REVERT JUMPDEST POP POP POP POP PUSH1 0x40 MLOAD RETURNDATASIZE PUSH1 0x20 DUP2 LT ISZERO PUSH2 0xD36 JUMPI PUSH1 0x0 DUP1 REVERT JUMPDEST POP MLOAD PUSH1 0x1 PUSH1 0x1 PUSH1 0xA0 SHL SUB AND CALLER EQ PUSH2 0xD81 JUMPI PUSH1 0x40 DUP1 MLOAD PUSH3 0x461BCD PUSH1 0xE5 SHL DUP2 MSTORE PUSH1 0x20 PUSH1 0x4 DUP3 ADD MSTORE PUSH1 0xA PUSH1 0x24 DUP3 ADD MSTORE PUSH10 0x27B7363C9037BBB732B9 PUSH1 0xB1 SHL PUSH1 0x44 DUP3 ADD MSTORE SWAP1 MLOAD SWAP1 DUP2 SWAP1 SUB PUSH1 0x64 ADD SWAP1 REVERT JUMPDEST DUP1 PUSH2 0xDBD JUMPI PUSH1 0x40 DUP1 MLOAD PUSH3 0x461BCD PUSH1 0xE5 SHL DUP2 MSTORE PUSH1 0x20 PUSH1 0x4 DUP3 ADD MSTORE PUSH1 0x7 PUSH1 0x24 DUP3 ADD MSTORE PUSH7 0x125B9D985B1A59 PUSH1 0xCA SHL PUSH1 0x44 DUP3 ADD MSTORE SWAP1 MLOAD SWAP1 DUP2 SWAP1 SUB PUSH1 0x64 ADD SWAP1 REVERT JUMPDEST PUSH1 0x0 SSTORE JUMP JUMPDEST PUSH1 0x2 PUSH1 0x20 MSTORE PUSH1 0x0 SWAP1 DUP2 MSTORE PUSH1 0x40 SWAP1 KECCAK256 SLOAD PUSH1 0x1 PUSH1 0x1 PUSH1 0x80 SHL SUB AND DUP2 JUMP JUMPDEST PUSH32 0x0 DUP2 JUMP JUMPDEST PUSH32 0x0 DUP2 JUMP JUMPDEST PUSH1 0x1 SLOAD PUSH1 0x1 PUSH1 0x80 SHL SWAP1 DIV PUSH1 0x1 PUSH1 0x1 PUSH1 0x80 SHL SUB AND DUP2 JUMP JUMPDEST PUSH32 0x0 DUP2 JUMP JUMPDEST PUSH1 0x1 SLOAD PUSH1 0x0 SWAP1 PUSH1 0xFF AND DUP1 ISZERO PUSH2 0xE75 JUMPI POP PUSH1 0x0 SLOAD ISZERO ISZERO JUMPDEST PUSH2 0xEB5 JUMPI PUSH1 0x40 DUP1 MLOAD PUSH3 0x461BCD PUSH1 0xE5 SHL DUP2 MSTORE PUSH1 0x20 PUSH1 0x4 DUP3 ADD MSTORE PUSH1 0xC PUSH1 0x24 DUP3 ADD MSTORE PUSH12 0x139BDD0819195D1858DA1959 PUSH1 0xA2 SHL PUSH1 0x44 DUP3 ADD MSTORE SWAP1 MLOAD SWAP1 DUP2 SWAP1 SUB PUSH1 0x64 ADD SWAP1 REVERT JUMPDEST PUSH2 0xEC1 DUP6 DUP6 DUP6 DUP6 PUSH2 0x11E8 JUMP JUMPDEST PUSH2 0xEE1 DUP6 DUP6 PUSH1 0x1 PUSH1 0x10 SWAP1 SLOAD SWAP1 PUSH2 0x100 EXP SWAP1 DIV PUSH1 0x1 PUSH1 0x1 PUSH1 0x80 SHL SUB AND PUSH2 0x147F JUMP JUMPDEST SWAP6 SWAP5 POP POP POP POP POP JUMP JUMPDEST PUSH1 0x1 SLOAD PUSH1 0x0 SWAP1 PUSH1 0xFF AND ISZERO PUSH2 0xF30 JUMPI PUSH1 0x40 DUP1 MLOAD PUSH3 0x461BCD PUSH1 0xE5 SHL DUP2 MSTORE PUSH1 0x20 PUSH1 0x4 DUP3 ADD MSTORE PUSH1 0x8 PUSH1 0x24 DUP3 ADD MSTORE PUSH8 0x11195D1858DA1959 PUSH1 0xC2 SHL PUSH1 0x44 DUP3 ADD MSTORE SWAP1 MLOAD SWAP1 DUP2 SWAP1 SUB PUSH1 0x64 ADD SWAP1 REVERT JUMPDEST PUSH1 0x1 SLOAD PUSH4 0xFFFFFFFF DUP1 DUP5 AND PUSH1 0x1 PUSH1 0x28 SHL SWAP1 SWAP3 DIV AND GT ISZERO PUSH2 0xF8C JUMPI PUSH1 0x40 DUP1 MLOAD PUSH3 0x461BCD PUSH1 0xE5 SHL DUP2 MSTORE PUSH1 0x20 PUSH1 0x4 DUP3 ADD MSTORE PUSH1 0x12 PUSH1 0x24 DUP3 ADD MSTORE PUSH18 0x496E76616C696420626C6F636B2074696D65 PUSH1 0x70 SHL PUSH1 0x44 DUP3 ADD MSTORE SWAP1 MLOAD SWAP1 DUP2 SWAP1 SUB PUSH1 0x64 ADD SWAP1 REVERT JUMPDEST PUSH1 0x0 PUSH32 0x0 PUSH1 0x1 PUSH1 0x1 PUSH1 0xA0 SHL SUB AND PUSH4 0x18160DDD PUSH1 0x40 MLOAD DUP2 PUSH4 0xFFFFFFFF AND PUSH1 0xE0 SHL DUP2 MSTORE PUSH1 0x4 ADD PUSH1 0x20 PUSH1 0x40 MLOAD DUP1 DUP4 SUB DUP2 DUP7 DUP1 EXTCODESIZE ISZERO DUP1 ISZERO PUSH2 0xFE7 JUMPI PUSH1 0x0 DUP1 REVERT JUMPDEST POP GAS STATICCALL ISZERO DUP1 ISZERO PUSH2 0xFFB JUMPI RETURNDATASIZE PUSH1 0x0 DUP1 RETURNDATACOPY RETURNDATASIZE PUSH1 0x0 REVERT JUMPDEST POP POP POP POP PUSH1 0x40 MLOAD RETURNDATASIZE PUSH1 0x20 DUP2 LT ISZERO PUSH2 0x1011 JUMPI PUSH1 0x0 DUP1 REVERT JUMPDEST POP MLOAD PUSH1 0x40 DUP1 MLOAD PUSH4 0x70A08231 PUSH1 0xE0 SHL DUP2 MSTORE PUSH1 0x1 PUSH1 0x1 PUSH1 0xA0 SHL SUB DUP8 DUP2 AND PUSH1 0x4 DUP4 ADD MSTORE SWAP2 MLOAD SWAP3 SWAP4 POP PUSH1 0x0 SWAP3 PUSH32 0x0 SWAP1 SWAP3 AND SWAP2 PUSH4 0x70A08231 SWAP2 PUSH1 0x24 DUP1 DUP3 ADD SWAP3 PUSH1 0x20 SWAP3 SWAP1 SWAP2 SWAP1 DUP3 SWAP1 SUB ADD DUP2 DUP7 DUP1 EXTCODESIZE ISZERO DUP1 ISZERO PUSH2 0x1084 JUMPI PUSH1 0x0 DUP1 REVERT JUMPDEST POP GAS STATICCALL ISZERO DUP1 ISZERO PUSH2 0x1098 JUMPI RETURNDATASIZE PUSH1 0x0 DUP1 RETURNDATACOPY RETURNDATASIZE PUSH1 0x0 REVERT JUMPDEST POP POP POP POP PUSH1 0x40 MLOAD RETURNDATASIZE PUSH1 0x20 DUP2 LT ISZERO PUSH2 0x10AE JUMPI PUSH1 0x0 DUP1 REVERT JUMPDEST POP MLOAD PUSH1 0x1 SLOAD SWAP1 SWAP2 POP PUSH1 0x0 SWAP1 PUSH2 0x10D1 SWAP1 PUSH4 0xFFFFFFFF DUP1 DUP9 AND SWAP2 PUSH2 0x100 SWAP1 DIV AND PUSH2 0x150B JUMP JUMPDEST SWAP1 POP PUSH1 0x0 PUSH2 0x10DF DUP3 DUP6 PUSH2 0x1525 JUMP JUMPDEST SWAP1 POP PUSH2 0x10EC DUP8 DUP5 DUP4 PUSH2 0x147F JUMP JUMPDEST SWAP8 SWAP7 POP POP POP POP POP POP POP JUMP JUMPDEST PUSH1 0x1 SLOAD PUSH1 0x0 SWAP1 PUSH2 0x1116 SWAP1 PUSH1 0x1 PUSH1 0x48 SHL SWAP1 DIV PUSH7 0xFFFFFFFFFFFFFF AND PUSH2 0x1471 JUMP JUMPDEST SWAP1 POP SWAP1 JUMP JUMPDEST PUSH1 0x0 DUP1 PUSH6 0xFFFFFFFFFFFF DUP4 GT ISZERO PUSH2 0x113B JUMPI PUSH1 0x2F PUSH2 0x1137 DUP5 PUSH2 0x114A JUMP JUMPDEST SUB SWAP1 POP JUMPDEST DUP3 DUP2 SHR PUSH1 0x8 SHL OR SWAP1 POP JUMPDEST SWAP2 SWAP1 POP JUMP JUMPDEST PUSH1 0x0 DUP2 PUSH2 0x1156 JUMPI PUSH1 0x0 DUP1 REVERT JUMPDEST PUSH1 0x1 PUSH1 0x80 SHL DUP3 LT PUSH2 0x1169 JUMPI PUSH1 0x80 SWAP2 DUP3 SHR SWAP2 ADD JUMPDEST PUSH9 0x10000000000000000 DUP3 LT PUSH2 0x1181 JUMPI PUSH1 0x40 SWAP2 DUP3 SHR SWAP2 ADD JUMPDEST PUSH5 0x100000000 DUP3 LT PUSH2 0x1195 JUMPI PUSH1 0x20 SWAP2 DUP3 SHR SWAP2 ADD JUMPDEST PUSH3 0x10000 DUP3 LT PUSH2 0x11A7 JUMPI PUSH1 0x10 SWAP2 DUP3 SHR SWAP2 ADD JUMPDEST PUSH2 0x100 DUP3 LT PUSH2 0x11B8 JUMPI PUSH1 0x8 SWAP2 DUP3 SHR SWAP2 ADD JUMPDEST PUSH1 0x10 DUP3 LT PUSH2 0x11C8 JUMPI PUSH1 0x4 SWAP2 DUP3 SHR SWAP2 ADD JUMPDEST PUSH1 0x4 DUP3 LT PUSH2 0x11D8 JUMPI PUSH1 0x2 SWAP2 DUP3 SHR SWAP2 ADD JUMPDEST PUSH1 0x2 DUP3 LT PUSH2 0x1145 JUMPI PUSH1 0x1 ADD SWAP2 SWAP1 POP JUMP JUMPDEST PUSH1 0x0 DUP5 DUP5 PUSH1 0x40 MLOAD PUSH1 0x20 ADD DUP1 DUP4 PUSH1 0x1 PUSH1 0x1 PUSH1 0xA0 SHL SUB AND PUSH1 0x60 SHL DUP2 MSTORE PUSH1 0x14 ADD DUP3 DUP2 MSTORE PUSH1 0x20 ADD SWAP3 POP POP POP PUSH1 0x40 MLOAD PUSH1 0x20 DUP2 DUP4 SUB SUB DUP2 MSTORE SWAP1 PUSH1 0x40 MSTORE DUP1 MLOAD SWAP1 PUSH1 0x20 ADD KECCAK256 SWAP1 POP PUSH1 0x0 PUSH2 0x1268 DUP5 DUP5 DUP1 DUP1 PUSH1 0x20 MUL PUSH1 0x20 ADD PUSH1 0x40 MLOAD SWAP1 DUP2 ADD PUSH1 0x40 MSTORE DUP1 SWAP4 SWAP3 SWAP2 SWAP1 DUP2 DUP2 MSTORE PUSH1 0x20 ADD DUP4 DUP4 PUSH1 0x20 MUL DUP1 DUP3 DUP5 CALLDATACOPY PUSH1 0x0 SWAP3 ADD DUP3 SWAP1 MSTORE POP SLOAD SWAP3 POP DUP7 SWAP2 POP PUSH2 0x15BA SWAP1 POP JUMP JUMPDEST SWAP1 POP DUP1 PUSH2 0x12AA JUMPI PUSH1 0x40 DUP1 MLOAD PUSH3 0x461BCD PUSH1 0xE5 SHL DUP2 MSTORE PUSH1 0x20 PUSH1 0x4 DUP3 ADD MSTORE PUSH1 0xB PUSH1 0x24 DUP3 ADD MSTORE PUSH11 0x4E6F74496E4D65726B6C65 PUSH1 0xA8 SHL PUSH1 0x44 DUP3 ADD MSTORE SWAP1 MLOAD SWAP1 DUP2 SWAP1 SUB PUSH1 0x64 ADD SWAP1 REVERT JUMPDEST POP POP POP POP POP POP JUMP JUMPDEST PUSH1 0x0 PUSH2 0x12D4 DUP5 DUP5 PUSH1 0x1 PUSH1 0x10 SWAP1 SLOAD SWAP1 PUSH2 0x100 EXP SWAP1 DIV PUSH1 0x1 PUSH1 0x1 PUSH1 0x80 SHL SUB AND PUSH2 0x147F JUMP JUMPDEST PUSH1 0x1 SLOAD SWAP1 SWAP2 POP PUSH2 0x130E SWAP1 PUSH2 0x1309 SWAP1 PUSH4 0x5F5E100 SWAP1 PUSH2 0x1303 SWAP1 DUP7 SWAP1 PUSH1 0x1 PUSH1 0x80 SHL SWAP1 DIV PUSH1 0x1 PUSH1 0x1 PUSH1 0x80 SHL SUB AND PUSH2 0x1663 JUMP JUMPDEST SWAP1 PUSH2 0x168A JUMP JUMPDEST PUSH2 0x16A9 JUMP JUMPDEST PUSH1 0x1 PUSH1 0x1 PUSH1 0xA0 SHL SUB DUP6 AND PUSH1 0x0 SWAP1 DUP2 MSTORE PUSH1 0x2 PUSH1 0x20 MSTORE PUSH1 0x40 SWAP1 KECCAK256 DUP1 SLOAD PUSH16 0xFFFFFFFFFFFFFFFFFFFFFFFFFFFFFFFF NOT AND PUSH1 0x1 PUSH1 0x1 PUSH1 0x80 SHL SUB SWAP3 SWAP1 SWAP3 AND SWAP2 SWAP1 SWAP2 OR SWAP1 SSTORE DUP1 ISZERO PUSH2 0x4D7 JUMPI PUSH2 0x137E PUSH32 0x0 DUP6 DUP4 PUSH2 0x16C3 JUMP JUMPDEST DUP4 PUSH1 0x1 PUSH1 0x1 PUSH1 0xA0 SHL SUB AND PUSH32 0x0 PUSH1 0x1 PUSH1 0x1 PUSH1 0xA0 SHL SUB AND PUSH32 0xA282A314FFBA449688A7C5EB4426BD8E1781944CE824CE34DFAEA4691D08F146 DUP4 PUSH1 0x40 MLOAD DUP1 DUP3 DUP2 MSTORE PUSH1 0x20 ADD SWAP2 POP POP PUSH1 0x40 MLOAD DUP1 SWAP2 SUB SWAP1 LOG3 POP POP POP POP JUMP JUMPDEST PUSH1 0x1 SLOAD PUSH2 0x100 SWAP1 DIV PUSH4 0xFFFFFFFF AND PUSH2 0x1406 JUMPI PUSH1 0x0 DUP1 REVERT JUMPDEST PUSH1 0x1 SLOAD PUSH1 0x0 SWAP1 PUSH2 0x1424 SWAP1 PUSH4 0xFFFFFFFF DUP1 DUP7 AND SWAP2 PUSH2 0x100 SWAP1 DIV AND PUSH2 0x150B JUMP JUMPDEST SWAP1 POP PUSH2 0x1430 DUP2 DUP4 PUSH2 0x1525 JUMP JUMPDEST PUSH1 0x1 DUP1 SLOAD PUSH4 0xFFFFFFFF TIMESTAMP AND PUSH1 0x1 PUSH1 0x28 SHL MUL PUSH9 0xFFFFFFFF0000000000 NOT PUSH1 0x1 PUSH1 0x1 PUSH1 0x80 SHL SUB SWAP5 DUP6 AND PUSH1 0x1 PUSH1 0x80 SHL MUL SWAP5 SWAP1 SWAP3 AND SWAP4 SWAP1 SWAP4 OR AND SWAP2 SWAP1 SWAP2 OR SWAP1 SSTORE POP POP POP JUMP JUMPDEST PUSH1 0x8 DUP2 SWAP1 SHR PUSH1 0xFF SWAP1 SWAP2 AND SHL SWAP1 JUMP JUMPDEST PUSH1 0x1 PUSH1 0x1 PUSH1 0xA0 SHL SUB DUP4 AND PUSH1 0x0 SWAP1 DUP2 MSTORE PUSH1 0x2 PUSH1 0x20 MSTORE PUSH1 0x40 DUP2 KECCAK256 SLOAD PUSH2 0x1503 SWAP1 PUSH8 0xDE0B6B3A7640000 SWAP1 PUSH2 0x1303 SWAP1 PUSH1 0xFF PUSH32 0x0 AND PUSH1 0xA EXP SWAP1 PUSH2 0x14FD SWAP1 PUSH1 0x1 PUSH1 0x1 PUSH1 0x80 SHL SUB SWAP1 DUP2 AND SWAP1 PUSH2 0x14F7 SWAP1 PUSH4 0x5F5E100 SWAP1 DUP7 SWAP1 DUP13 SWAP1 DUP13 AND PUSH2 0x1663 JUMP JUMPDEST SWAP1 PUSH2 0x173F JUMP JUMPDEST SWAP1 PUSH2 0x1663 JUMP JUMPDEST SWAP5 SWAP4 POP POP POP POP JUMP JUMPDEST PUSH1 0x0 DUP2 DUP4 SLT PUSH2 0x151A JUMPI DUP2 PUSH2 0x151C JUMP JUMPDEST DUP3 JUMPDEST SWAP1 POP JUMPDEST SWAP3 SWAP2 POP POP JUMP JUMPDEST PUSH1 0x1 SLOAD PUSH1 0x0 SWAP1 DUP2 SWAP1 PUSH4 0xFFFFFFFF DUP1 DUP7 AND PUSH1 0x1 PUSH1 0x28 SHL SWAP1 SWAP3 DIV AND LT DUP1 ISZERO PUSH2 0x154B JUMPI POP DUP3 PUSH1 0x0 LT JUMPDEST ISZERO PUSH2 0x1599 JUMPI PUSH1 0x1 SLOAD PUSH4 0xFFFFFFFF PUSH1 0x1 PUSH1 0x28 SHL SWAP1 SWAP2 DIV DUP2 AND DUP6 SUB AND PUSH2 0x1595 DUP5 PUSH2 0x1303 PUSH4 0x1DA9C00 DUP2 PUSH2 0x157A PUSH2 0x10F7 JUMP JUMPDEST PUSH1 0x1 PUSH1 0x1 PUSH1 0x80 SHL SUB AND PUSH2 0x14FD DUP8 PUSH8 0xDE0B6B3A7640000 PUSH2 0x1663 JUMP JUMPDEST SWAP2 POP POP JUMPDEST PUSH1 0x1 SLOAD PUSH2 0x1503 SWAP1 PUSH2 0x1309 SWAP1 PUSH1 0x1 PUSH1 0x80 SHL SWAP1 DIV PUSH1 0x1 PUSH1 0x1 PUSH1 0x80 SHL SUB AND DUP4 PUSH2 0x1754 JUMP JUMPDEST PUSH1 0x0 DUP2 DUP2 JUMPDEST DUP6 MLOAD DUP2 LT ISZERO PUSH2 0x1658 JUMPI PUSH1 0x0 DUP7 DUP3 DUP2 MLOAD DUP2 LT PUSH2 0x15D6 JUMPI INVALID JUMPDEST PUSH1 0x20 MUL PUSH1 0x20 ADD ADD MLOAD SWAP1 POP DUP1 DUP4 GT PUSH2 0x161D JUMPI DUP3 DUP2 PUSH1 0x40 MLOAD PUSH1 0x20 ADD DUP1 DUP4 DUP2 MSTORE PUSH1 0x20 ADD DUP3 DUP2 MSTORE PUSH1 0x20 ADD SWAP3 POP POP POP PUSH1 0x40 MLOAD PUSH1 0x20 DUP2 DUP4 SUB SUB DUP2 MSTORE SWAP1 PUSH1 0x40 MSTORE DUP1 MLOAD SWAP1 PUSH1 0x20 ADD KECCAK256 SWAP3 POP PUSH2 0x164F JUMP JUMPDEST DUP1 DUP4 PUSH1 0x40 MLOAD PUSH1 0x20 ADD DUP1 DUP4 DUP2 MSTORE PUSH1 0x20 ADD DUP3 DUP2 MSTORE PUSH1 0x20 ADD SWAP3 POP POP POP PUSH1 0x40 MLOAD PUSH1 0x20 DUP2 DUP4 SUB SUB DUP2 MSTORE SWAP1 PUSH1 0x40 MSTORE DUP1 MLOAD SWAP1 PUSH1 0x20 ADD KECCAK256 SWAP3 POP JUMPDEST POP PUSH1 0x1 ADD PUSH2 0x15BF JUMP JUMPDEST POP SWAP1 SWAP3 EQ SWAP4 SWAP3 POP POP POP JUMP JUMPDEST PUSH1 0x0 DUP3 PUSH2 0x1672 JUMPI POP PUSH1 0x0 PUSH2 0x151F JUMP JUMPDEST DUP3 DUP3 MUL DUP3 DUP5 DUP3 DUP2 PUSH2 0x167F JUMPI INVALID JUMPDEST DIV EQ PUSH2 0x151C JUMPI PUSH1 0x0 DUP1 REVERT JUMPDEST PUSH1 0x0 DUP1 DUP3 GT PUSH2 0x1698 JUMPI PUSH1 0x0 DUP1 REVERT JUMPDEST DUP2 DUP4 DUP2 PUSH2 0x16A1 JUMPI INVALID JUMPDEST DIV SWAP4 SWAP3 POP POP POP JUMP JUMPDEST PUSH1 0x0 PUSH1 0x1 PUSH1 0x1 PUSH1 0x80 SHL SUB DUP3 GT ISZERO PUSH2 0x16BF JUMPI PUSH1 0x0 DUP1 REVERT JUMPDEST POP SWAP1 JUMP JUMPDEST DUP3 PUSH1 0x1 PUSH1 0x1 PUSH1 0xA0 SHL SUB AND PUSH4 0xA9059CBB DUP4 DUP4 PUSH1 0x40 MLOAD DUP4 PUSH4 0xFFFFFFFF AND PUSH1 0xE0 SHL DUP2 MSTORE PUSH1 0x4 ADD DUP1 DUP4 PUSH1 0x1 PUSH1 0x1 PUSH1 0xA0 SHL SUB AND DUP2 MSTORE PUSH1 0x20 ADD DUP3 DUP2 MSTORE PUSH1 0x20 ADD SWAP3 POP POP POP PUSH1 0x0 PUSH1 0x40 MLOAD DUP1 DUP4 SUB DUP2 PUSH1 0x0 DUP8 DUP1 EXTCODESIZE ISZERO DUP1 ISZERO PUSH2 0x171A JUMPI PUSH1 0x0 DUP1 REVERT JUMPDEST POP GAS CALL ISZERO DUP1 ISZERO PUSH2 0x172E JUMPI RETURNDATASIZE PUSH1 0x0 DUP1 RETURNDATACOPY RETURNDATASIZE PUSH1 0x0 REVERT JUMPDEST POP POP POP POP PUSH2 0x173A PUSH2 0x1766 JUMP JUMPDEST POP POP POP JUMP JUMPDEST PUSH1 0x0 DUP3 DUP3 GT ISZERO PUSH2 0x174E JUMPI PUSH1 0x0 DUP1 REVERT JUMPDEST POP SWAP1 SUB SWAP1 JUMP JUMPDEST PUSH1 0x0 DUP3 DUP3 ADD DUP4 DUP2 LT ISZERO PUSH2 0x151C JUMPI PUSH1 0x0 DUP1 REVERT JUMPDEST PUSH1 0x0 PUSH2 0x1770 PUSH2 0x17D3 JUMP JUMPDEST RETURNDATASIZE DUP1 ISZERO PUSH2 0x1784 JUMPI PUSH1 0x20 DUP2 EQ PUSH2 0x178D JUMPI PUSH1 0x0 DUP1 REVERT JUMPDEST PUSH1 0x1 SWAP3 POP PUSH2 0x1798 JUMP JUMPDEST PUSH1 0x20 PUSH1 0x0 DUP4 RETURNDATACOPY DUP2 MLOAD SWAP3 POP JUMPDEST POP DUP2 PUSH2 0xCAF JUMPI PUSH1 0x40 DUP1 MLOAD PUSH3 0x461BCD PUSH1 0xE5 SHL DUP2 MSTORE PUSH1 0x20 PUSH1 0x4 DUP3 ADD MSTORE PUSH1 0x5 PUSH1 0x24 DUP3 ADD MSTORE PUSH5 0x455243323 PUSH1 0xDC SHL PUSH1 0x44 DUP3 ADD MSTORE SWAP1 MLOAD SWAP1 DUP2 SWAP1 SUB PUSH1 0x64 ADD SWAP1 REVERT JUMPDEST PUSH1 0x40 MLOAD DUP1 PUSH1 0x20 ADD PUSH1 0x40 MSTORE DUP1 PUSH1 0x1 SWAP1 PUSH1 0x20 DUP3 MUL DUP1 CALLDATASIZE DUP4 CALLDATACOPY POP SWAP2 SWAP3 SWAP2 POP POP JUMP INVALID LOG2 PUSH5 0x6970667358 0x22 SLT KECCAK256 SWAP14 0xB3 PUSH2 0x16F3 0xAF 0xF6 PUSH5 0x7FBED3AAEA SDIV 0xB7 0xB1 JUMPDEST PUSH19 0x37A673B00EE6BC8C85A98000832964736F6C63 NUMBER STOP SMOD MOD STOP CALLER ","sha1":"f336f6af328535a7cdf127a8c4fdab8ae29ca26c","source":"// SPDX-License-Identifier: GPL-3.0-only\npragma solidity =0.7.6;\n\nimport {GenericToken} from \"../../internal/balances/protocols/GenericToken.sol\";\nimport {IRewarder} from \"../../../interfaces/notional/IRewarder.sol\";\nimport {NotionalProxy} from \"../../../interfaces/notional/NotionalProxy.sol\";\nimport {IERC20} from \"../../../interfaces/IERC20.sol\";\nimport {Constants} from \"../../global/Constants.sol\";\nimport {SafeInt256} from \"../../math/SafeInt256.sol\";\nimport {SafeUint256} from \"../../math/SafeUint256.sol\";\nimport {FloatingPoint} from \"../../math/FloatingPoint.sol\";\nimport {MerkleProof} from \"@openzeppelin/contracts/cryptography/MerkleProof.sol\";\n\ncontract SecondaryRewarder is IRewarder {\n    using SafeUint256 for uint256;\n    using SafeInt256 for int256;\n\n    NotionalProxy public immutable NOTIONAL;\n    address public immutable override NTOKEN_ADDRESS;\n    address public immutable REWARD_TOKEN;\n    uint8 public immutable REWARD_TOKEN_DECIMALS;\n    uint16 public immutable override CURRENCY_ID;\n\n    /// @notice When a rewarder is detached, it converts to an airdrop contract using the\n    /// this merkleRoot that is set.\n    /// @dev Uses a single storage slot\n    bytes32 public merkleRoot;\n\n    /* Rest of storage variables are packed into 256 bits */\n    /// @notice When true user needs to call contract directly to claim any rewards left\n    bool public override detached;\n\n    /// @notice Marks the timestamp when incentives will end. Will always be less than block.timestamp\n    /// if detached is true.\n    uint32 public endTime;\n\n    /// @notice Last time the contract accumulated the reward\n    uint32 public override lastAccumulatedTime;\n\n    // The emission rate of REWARD_TOKEN in INTERNAL_TOKEN_PRECISION packed to uint56\n    uint56 private packedEmissionRatePerYear;\n\n    /// @notice Aggregate tokens accumulated per nToken at `lastAccumulateTime` \n    //  in INCENTIVE_ACCUMULATION_PRECISION\n    uint128 public override accumulatedRewardPerNToken;\n\n    /// @notice Reward debt per account stored in 18 decimals.\n    mapping(address => uint128) public rewardDebtPerAccount;\n\n    modifier onlyOwner() {\n        require(msg.sender == NOTIONAL.owner(), \"Only owner\");\n        _;\n    }\n\n    modifier onlyNotional() {\n        require(msg.sender == address(NOTIONAL), \"Only Notional\");\n        _;\n    }\n\n    constructor(\n        NotionalProxy notional,\n        uint16 currencyId,\n        IERC20 incentive_token,\n        uint128 _emissionRatePerYear, // in INTERNAL_TOKEN_PRECISION\n        uint32 _endTime\n    ) {\n        NOTIONAL = notional;\n        CURRENCY_ID = currencyId;\n        NTOKEN_ADDRESS = notional.nTokenAddress(currencyId);\n        REWARD_TOKEN = address(incentive_token);\n        REWARD_TOKEN_DECIMALS = IERC20(address(incentive_token)).decimals();\n\n        packedEmissionRatePerYear = FloatingPoint.packTo56Bits(_emissionRatePerYear);\n        lastAccumulatedTime = uint32(block.timestamp);\n        require(lastAccumulatedTime < _endTime, \"Invalid End Time\");\n        endTime = _endTime;\n    }\n\n    /// @notice The emission rate of REWARD_TOKEN in INTERNAL_TOKEN_PRECISION\n    function emissionRatePerYear() public view override returns(uint128) {\n        return uint128(FloatingPoint.unpackFromBits(packedEmissionRatePerYear));\n    }\n\n    /// @notice Get amount of reward account can claim at specified block time, only called before rewarder is detached\n    /// @param account address to get reward amount for\n    /// @param blockTime block time at which to get reward amount\n    function getAccountRewardClaim(address account, uint32 blockTime)\n        external\n        view\n        override\n        returns (uint256 rewardToClaim)\n    {\n        require(!detached, \"Detached\");\n        require(lastAccumulatedTime <= blockTime, \"Invalid block time\");\n\n        uint256 totalSupply = IERC20(NTOKEN_ADDRESS).totalSupply();\n        uint256 nTokenBalance = IERC20(NTOKEN_ADDRESS).balanceOf(account);\n\n        uint32 time = uint32(SafeInt256.min(blockTime, endTime));\n        uint128 rewardsPerNToken = _getAccumulatedRewardPerToken(time, totalSupply);\n        rewardToClaim = _calculateRewardToClaim(account, nTokenBalance, rewardsPerNToken);\n    }\n\n    /// @notice Get amount of reward still left for account to claim, only called after rewarder is detached\n    /// and merkle root is set\n    /// @param account address to get reward amount for\n    /// @param nTokenBalanceAtDetach nToken balance of account at time of detachment\n    /// @param proof merkle proof to prove account and nTokenBalanceAtDetach are in tree\n    function getAccountRewardClaim(address account, uint256 nTokenBalanceAtDetach, bytes32[] calldata proof)\n        external\n        view\n        override\n        returns (uint256 rewardToClaim)\n    {\n        require(detached && merkleRoot != bytes32(0), \"Not detached\");\n\n        _checkProof(account, nTokenBalanceAtDetach, proof);\n        // no need to accumulate, it was already accumulated when rewarder was detached\n        rewardToClaim = _calculateRewardToClaim(account, nTokenBalanceAtDetach, accumulatedRewardPerNToken);\n    }\n\n    /// @notice Set incentive emission rate and incentive period end time, called only in case emission\n    /// rate or incentive period changes since it is already set at deploy time, only can be called before\n    /// rewarder is detached\n    /// @param _emissionRatePerYear emission rate per year in INTERNAL_TOKEN_PRECISION\n    /// @param _endTime time in seconds when incentive period will end\n    function setIncentiveEmissionRate(uint128 _emissionRatePerYear, uint32 _endTime) external onlyOwner {\n        require(!detached, \"Detached\");\n        uint256 totalSupply = IERC20(NTOKEN_ADDRESS).totalSupply();\n\n        _accumulateRewardPerNToken(uint32(block.timestamp), totalSupply);\n\n        packedEmissionRatePerYear = FloatingPoint.packTo56Bits(_emissionRatePerYear);\n        // lastAccumulatedTime is at block.timestamp here, ensure that the end time is always\n        // further in the future.\n        require(lastAccumulatedTime < _endTime, \"Invalid End Time\");\n        endTime = _endTime;\n\n        emit RewardEmissionUpdate(FloatingPoint.unpackFromBits(packedEmissionRatePerYear), _endTime);\n    }\n\n    /// @notice Set merkle root, only called after rewarder is detached\n    /// @param _merkleRoot merkle root of the tree that contains accounts and nToken balances at detach time\n    function setMerkleRoot(bytes32 _merkleRoot) external onlyOwner {\n        require(_merkleRoot != bytes32(0), \"Invalid\");\n        merkleRoot = _merkleRoot;\n    }\n\n    /// @notice Allows owner to recover any ERC20 or ETH mistakenly sent to this contract\n    /// @param token address of the token to recover, in case of ETH pass address(0)\n    /// @param amount amount to recover\n    function recover(address token, uint256 amount) external onlyOwner {\n        if (Constants.ETH_ADDRESS == token) {\n            (bool status,) = msg.sender.call{value: amount}(\"\");\n            require(status);\n        } else {\n            IERC20(token).transfer(msg.sender, amount);\n        }\n    }\n\n    /// @dev Called from Notional system to detach rewarder when switching to a new rewarder or when incentive\n    /// period is over, after this merkle tree of user nToken balances at detach time should be generated\n    /// offline and merkle root uploaded to this contract\n    function detach() external override onlyNotional {\n        require(!detached, \"Already detached\");\n\n        // accumulate for the last time if needed\n        uint256 totalSupply = IERC20(NTOKEN_ADDRESS).totalSupply();\n        _accumulateRewardPerNToken(uint32(block.timestamp), totalSupply);\n\n        detached = true;\n        packedEmissionRatePerYear = 0;\n\n        if (block.timestamp < endTime) {\n            endTime = uint32(block.timestamp);\n        }\n\n        emit RewardEmissionUpdate(0, endTime);\n    }\n\n    /// @notice Allows claiming rewards after rewarder has been detached\n    /// @param account address to claim rewards for\n    /// @param nTokenBalanceAtDetach nToken balance of account at time of detachment\n    /// @param proof merkle proof to prove account and nTokenBalanceAtDetach are in tree\n    function claimRewardsDirect(address account, uint256 nTokenBalanceAtDetach, bytes32[] calldata proof)\n        external\n        override\n    {\n        require(detached, \"Not detached\");\n\n        _checkProof(account, nTokenBalanceAtDetach, proof);\n\n        _claimRewards(account, nTokenBalanceAtDetach, nTokenBalanceAtDetach);\n    }\n\n    /// @notice Allows claiming rewards but only from Notional system, called on each nToken balance change\n    /// @param account address to claim rewards for\n    /// @param currencyId id number of the currency\n    /// @param nTokenBalanceBefore account nToken balance before the change\n    /// @param nTokenBalanceAfter account nToken balance after the change\n    /// @param priorNTokenSupply total nToken supply before the change\n    function claimRewards(\n        address account,\n        uint16 currencyId,\n        uint256 nTokenBalanceBefore,\n        uint256 nTokenBalanceAfter,\n        uint256 priorNTokenSupply\n    ) external override onlyNotional {\n        require(!detached, \"Detached\");\n        require(currencyId == CURRENCY_ID, \"Wrong currency id\");\n\n        _accumulateRewardPerNToken(uint32(block.timestamp), priorNTokenSupply);\n        _claimRewards(account, nTokenBalanceBefore, nTokenBalanceAfter);\n    }\n\n    function _claimRewards(address account, uint256 nTokenBalanceBefore, uint256 nTokenBalanceAfter) private {\n        uint256 rewardToClaim = _calculateRewardToClaim(account, nTokenBalanceBefore, accumulatedRewardPerNToken);\n\n        // Precision here is:\n        //  nTokenBalanceAfter (INTERNAL_TOKEN_PRECISION)\n        //  accumulatedRewardPerNToken (INCENTIVE_ACCUMULATION_PRECISION)\n        // DIVIDE BY\n        //  INTERNAL_TOKEN_PRECISION\n        //  => INCENTIVE_ACCUMULATION_PRECISION (1e18)\n        rewardDebtPerAccount[account] = nTokenBalanceAfter\n            .mul(accumulatedRewardPerNToken)\n            .div(uint256(Constants.INTERNAL_TOKEN_PRECISION))\n            .toUint128();\n\n        if (0 < rewardToClaim) {\n            GenericToken.safeTransferOut(REWARD_TOKEN, account, rewardToClaim);\n            emit RewardTransfer(REWARD_TOKEN, account, rewardToClaim);\n        }\n    }\n\n    function _getAccumulatedRewardPerToken(uint32 time, uint256 totalSupply) private view returns (uint128) {\n        uint256 additionalIncentiveAccumulatedPerNToken;\n        if (lastAccumulatedTime < time && 0 < totalSupply) {\n            // NOTE: no underflow, checked in if statement\n            uint256 timeSinceLastAccumulation = time - lastAccumulatedTime;\n            // Precision here is:\n            //  timeSinceLastAccumulation (SECONDS)\n            //  INCENTIVE_ACCUMULATION_PRECISION (1e18)\n            //  INTERNAL_TOKEN_PRECISION (1e8)\n            // DIVIDE BY\n            //  YEAR (SECONDS)\n            //  INTERNAL_TOKEN_PRECISION (1e8)\n            // => Precision = INCENTIVE_ACCUMULATION_PRECISION * INTERNAL_TOKEN_PRECISION / INTERNAL_TOKEN_PRECISION\n            // => 1e18\n            additionalIncentiveAccumulatedPerNToken = timeSinceLastAccumulation\n                .mul(Constants.INCENTIVE_ACCUMULATION_PRECISION)\n                .mul(emissionRatePerYear())\n                .div(Constants.YEAR)\n                .div(totalSupply);\n        }\n\n        return uint256(accumulatedRewardPerNToken).add(additionalIncentiveAccumulatedPerNToken).toUint128();\n    }\n\n    function _accumulateRewardPerNToken(uint32 blockTime, uint256 totalSupply) private {\n        // Ensure that end time is set to some value\n        require(0 < endTime);\n        uint32 time = uint32(SafeInt256.min(blockTime, endTime));\n\n        accumulatedRewardPerNToken = _getAccumulatedRewardPerToken(time, totalSupply);\n\n        lastAccumulatedTime = uint32(block.timestamp);\n    }\n\n    function _calculateRewardToClaim(address account, uint256 nTokenBalanceAtLastClaim, uint128 rewardsPerNToken)\n        private\n        view\n        returns (uint256)\n    {\n        // Precision here is:\n        //   nTokenBalanceAtLastClaim (INTERNAL_TOKEN_PRECISION)\n        //   mul rewardsPerNToken (INCENTIVE_ACCUMULATION_PRECISION)\n        //   div INTERNAL_TOKEN_PRECISION\n        // => INCENTIVE_ACCUMULATION_PRECISION\n        // SUB rewardDebtPerAccount (INCENTIVE_ACCUMULATION_PRECISION)\n        //\n        // - mul REWARD_TOKEN_DECIMALS\n        // - div INCENTIVE_ACCUMULATION_PRECISION\n        // => REWARD_TOKEN_DECIMALS\n        return uint256(nTokenBalanceAtLastClaim)\n            .mul(rewardsPerNToken)\n            .div(uint256(Constants.INTERNAL_TOKEN_PRECISION))\n            .sub(rewardDebtPerAccount[account])\n            .mul(10 ** REWARD_TOKEN_DECIMALS)\n            .div(Constants.INCENTIVE_ACCUMULATION_PRECISION);\n    }\n\n    /// @notice Verify merkle proof, or revert if not in tree\n    function _checkProof(address account, uint256 balance, bytes32[] calldata proof) private view {\n        // Verify merkle proof, or revert if not in tree\n        bytes32 leaf = keccak256(abi.encodePacked(account, balance));\n        bool isValidLeaf = MerkleProof.verify(proof, merkleRoot, leaf);\n        require(isValidLeaf, \"NotInMerkle\");\n    }\n}","sourcePath":"contracts/external/adapters/SecondaryRewarder.sol","type":"contract","deployment":{"address":"0xe670942CE88d0ac8E655d30E5EF0229e969de26C","chainid":"42161","blockHeight":164974503}}