{"abi":[{"inputs":[{"internalType":"address","name":"account","type":"address"},{"internalType":"uint16","name":"currencyId","type":"uint16"},{"internalType":"uint256","name":"amountExternalPrecision","type":"uint256"}],"name":"depositAssetToken","outputs":[{"internalType":"uint256","name":"","type":"uint256"}],"stateMutability":"nonpayable","type":"function"},{"inputs":[{"internalType":"address","name":"account","type":"address"},{"internalType":"uint16","name":"currencyId","type":"uint16"},{"internalType":"uint256","name":"amountExternalPrecision","type":"uint256"}],"name":"depositUnderlyingToken","outputs":[{"internalType":"uint256","name":"","type":"uint256"}],"stateMutability":"payable","type":"function"},{"inputs":[{"internalType":"uint16","name":"currencyId","type":"uint16"}],"name":"enableBitmapCurrency","outputs":[],"stateMutability":"nonpayable","type":"function"},{"inputs":[{"internalType":"bool","name":"allowPrimeBorrow","type":"bool"}],"name":"enablePrimeBorrow","outputs":[],"stateMutability":"nonpayable","type":"function"},{"inputs":[],"name":"getLibInfo","outputs":[{"internalType":"address","name":"","type":"address"},{"internalType":"address","name":"","type":"address"},{"internalType":"address","name":"","type":"address"},{"internalType":"address","name":"","type":"address"}],"stateMutability":"pure","type":"function"},{"inputs":[{"internalType":"address","name":"redeemer","type":"address"},{"internalType":"uint16","name":"currencyId","type":"uint16"},{"internalType":"uint96","name":"tokensToRedeem_","type":"uint96"},{"internalType":"bool","name":"sellTokenAssets","type":"bool"},{"internalType":"bool","name":"acceptResidualAssets","type":"bool"}],"name":"nTokenRedeem","outputs":[{"internalType":"int256","name":"","type":"int256"},{"internalType":"bool","name":"","type":"bool"}],"stateMutability":"nonpayable","type":"function"},{"inputs":[],"name":"owner","outputs":[{"internalType":"address","name":"","type":"address"}],"stateMutability":"view","type":"function"},{"inputs":[],"name":"pauseGuardian","outputs":[{"internalType":"address","name":"","type":"address"}],"stateMutability":"view","type":"function"},{"inputs":[],"name":"pauseRouter","outputs":[{"internalType":"address","name":"","type":"address"}],"stateMutability":"view","type":"function"},{"inputs":[{"internalType":"address","name":"account","type":"address"}],"name":"settleAccount","outputs":[{"internalType":"bool","name":"","type":"bool"}],"stateMutability":"nonpayable","type":"function"},{"inputs":[{"internalType":"uint16","name":"currencyId","type":"uint16"},{"internalType":"uint88","name":"amountInternalPrecision","type":"uint88"},{"internalType":"bool","name":"redeemToUnderlying","type":"bool"}],"name":"withdraw","outputs":[{"internalType":"uint256","name":"","type":"uint256"}],"stateMutability":"nonpayable","type":"function"}],"bytecode":"608060405234801561001057600080fd5b50614d09806100206000396000f3fe60806040526004361061009c5760003560e01c80638246336711610064578063824633671461015c5780638da5cb5b146101715780639c97945014610186578063b8a69455146101a6578063c4c96dae146101c6578063f667f897146101eb5761009c565b806302f332e8146100a157806324a3d622146100d75780632890fb65146100f957806361d0d61c1461010c578063668906431461012e575b600080fd5b3480156100ad57600080fd5b506100c16100bc36600461477d565b610218565b6040516100ce9190614c3c565b60405180910390f35b3480156100e357600080fd5b506100ec61039a565b6040516100ce9190614868565b6100c16101073660046143cf565b6103a9565b34801561011857600080fd5b5061012c610127366004614598565b610462565b005b34801561013a57600080fd5b5061014e61014936600461440f565b61049c565b6040516100ce929190614a2f565b34801561016857600080fd5b506100ec61073b565b34801561017d57600080fd5b506100ec61074a565b34801561019257600080fd5b5061012c6101a1366004614761565b610761565b3480156101b257600080fd5b506100c16101c13660046143cf565b6107ae565b3480156101d257600080fd5b506101db610828565b6040516100ce949392919061487c565b3480156101f757600080fd5b5061020b6102063660046143b3565b610882565b6040516100ce9190614a24565b60006002600a54141561022a57600080fd5b6002600a5561ffff841660011461026157816102615760405162461bcd60e51b815260040161025890614b2f565b60405180910390fd5b600061026c336108b6565b50905061027761406a565b6102838133888561097b565b6001600160581b0385811614156102bc5760008160200151136102a557600080fd5b6102b2816020015161099c565b60808201526102d4565b6102ce856001600160581b031661099c565b60808201525b60006102e382338588156109b0565b90506102ef83336109cb565b60208301516001600160f81b0319161561036b57604051636ccc642f60e01b815273__FreeCollateralExternal________________90636ccc642f9061033a903390600401614868565b60006040518083038186803b15801561035257600080fd5b505af4158015610366573d6000803e3d6000fd5b505050505b600081131561037957600080fd5b61038a6103858261099c565b610ae8565b6001600a55979650505050505050565b6002546001600160a01b031681565b60006002600a5414156103bb57600080fd5b6002600a55333014156103cd57600080fd5b336001600160a01b038516146103e257600080fd5b6103eb84610afb565b60006103f685610b76565b905061040061406a565b61040c8187878561097b565b60006104258761041b87610c24565b8491906000610c3a565b90506000811361043457600080fd5b61043f828885610c8c565b61044983886109cb565b6101208201516104599087610caa565b61038a81610ae8565b3330141561046f57600080fd5b61047833610afb565b6000610483336108b6565b5082151560a0820152905061049881336109cb565b5050565b6000806002600a5414156104af57600080fd5b6002600a55336001600160a01b03881614806104ca57503330145b6104e65760405162461bcd60e51b815260040161025890614ad9565b6001600160601b03851660006104fb896108b6565b50905061050661406a565b610512818b8b8561097b565b82816040015112156105365760405162461bcd60e51b815260040161025890614c0f565b61053f8361099c565b60c082015260405163b853e45760e01b8152600090819073__nTokenRedeemAction____________________9063b853e45790610588908f908f908a908f908f90600401614991565b60006040518083038186803b1580156105a057600080fd5b505af41580156105b4573d6000803e3d6000fd5b505050506040513d6000823e601f3d908101601f191682016040526105dc91908101906145b4565b6060850182905290925090506105f3838d86610c8c565b80511561069c5760006106098c61ffff16610ceb565b905073__SettleAssetsExternal__________________63c108fc268e8388866040518563ffffffff1660e01b815260040161064894939291906148a7565b60c06040518083038186803b15801561066057600080fd5b505af4158015610674573d6000803e3d6000fd5b505050506040513d601f19601f8201168201806040525081019061069891906146be565b9450505b6106a6848d6109cb565b60208401516001600160f81b0319161561072257604051636ccc642f60e01b815273__FreeCollateralExternal________________90636ccc642f906106f1908f90600401614868565b60006040518083038186803b15801561070957600080fd5b505af415801561071d573d6000803e3d6000fd5b505050505b516001600a55909b9015159a5098505050505050505050565b6001546001600160a01b031681565b60005464010000000090046001600160a01b031681565b3330141561076e57600080fd5b60005461ffff908116908216111561078557600080fd5b336000610791826108b6565b50905061079f818442610d11565b6107a981836109cb565b505050565b60006002600a5414156107c057600080fd5b6002600a55333014156107d257600080fd5b336001600160a01b038516146107e757600080fd5b6107f084610afb565b60006107fb85610b76565b905061080561406a565b6108118187878561097b565b60006104258761082087610c24565b849190610e09565b73__FreeCollateralExternal________________73__MigrateIncentives_____________________73__SettleAssetsExternal__________________73__nTokenRedeemAction____________________90919293565b600061088d82610afb565b600080610899846108b6565b9150915080156108ad576108ad82856109cb565b9150505b919050565b6108be6140c6565b6000806108ca84610b76565b90506108d581610ee5565b1561096f576040516337b5fc2160e11b815273__SettleAssetsExternal__________________90636f6bf842906109139087908590600401614974565b60c06040518083038186803b15801561092b57600080fd5b505af415801561093f573d6000803e3d6000fd5b505050506040513d601f19601f8201168201806040525081019061096391906146be565b60019250925050610976565b9150600090505b915091565b61098482610f39565b61012085015261099684848484610f4b565b50505050565b60006109aa60001983610ff3565b92915050565b60006109c0858585856001611041565b90505b949350505050565b60006109d56111f7565b6001600160a01b03831660008181526020838152604080832088518154938a01518a84015160608c015160808d015160a08e015164ffffffffff1990981664ffffffffff9095169490941765ff00000000001916600160281b60f89490941c939093029290921766ff0000000000001916600160301b60ff909216919091021768ffff000000000000001916600160381b61ffff90921691909102177affffffffffffffffffffffffffffffffffff0000000000000000001916600160481b60709290921c919091021760ff60d81b1916600160d81b93151593909302929092179091555192935090917f6bd4b121bca854a191536a2ca891155c42ee2fb23f307fb34e8bc65cfcb5412e9190a2505050565b600080821215610af757600080fd5b5090565b6001600160a01b038116610b0e57600080fd5b6001600160a01b038116610fee1415610b2657600080fd5b6001600160a01b0381166105e71415610b3e57600080fd5b6001600160a01b038116301415610b5457600080fd5b6000610b5f82611204565b5050505061ffff1690508060001461049857600080fd5b610b7e6140c6565b6000610b886111f7565b6001600160a01b03841660009081526020918252604090819020815160c081018352905464ffffffffff811682526001600160f81b0319600160281b820460f81b169382019390935260ff600160301b840481169282019290925261ffff600160381b84041660608201526001600160701b0319600160481b840460701b166080820152600160d81b90920416151560a0820152915050919050565b60006001600160ff1b03821115610af757600080fd5b600082610c49575060006109c3565b60008313610c5657600080fd5b610c6c848660000151858861012001518661126d565b6060870151909250610c7f91508261132f565b6060860152949350505050565b608083015115610c9b57600080fd5b61099683838360006001611041565b600080610cb78484611345565b915091508160001415610ccb575050610498565b818111156109965760405162461bcd60e51b815260040161025890614a3f565b600080610cf66113b1565b6000938452602052505060409020546001600160a01b031690565b610d1a836113be565b15610d375760405162461bcd60e51b815260040161025890614b66565b8161ffff166000108015610d515750613fff61ffff831611155b610d6d5760405162461bcd60e51b815260040161025890614be2565b604083015160ff1615610d925760405162461bcd60e51b815260040161025890614aad565b60208301516001600160f81b03191615610dbe5760405162461bcd60e51b815260040161025890614b94565b610dd38361ffff84166000600160fe1b6113cb565b61ffff821660608401526000610de8826115d1565b905064ffffffffff8110610dfb57600080fd5b64ffffffffff169092525050565b600081610e1857506000610ede565b60008213610e2557600080fd5b6000610e38856000015161ffff166115ef565b80519091506001600160a01b0316610e4f57600080fd5b600181606001516005811115610e6157fe5b1480610e7c5750600281606001516005811115610e7a57fe5b145b15610eb4578451610120860151610e9891839186908890611602565b6060860151909250610eaa908361132f565b6060860152610edc565b600481606001516005811115610ec657fe5b141561009c57610ed98585856000610c3a565b91505b505b9392505050565b600042610ef1836113be565b15610f1257610eff816115d1565b835164ffffffffff161091506108b19050565b825164ffffffffff1615801590610f315750825164ffffffffff168110155b9150506108b1565b610f416140fb565b6109aa8242611693565b8161ffff166000108015610f655750613fff61ffff831611155b610f6e57600080fd5b61ffff8216808552610f81908290611754565b15610fb057610f9683838661012001516117de565b61010088015260e087015260408601526020850152610fce565b6000602085018190526040850181905260e085018190526101008501525b50506000606083018190526080830181905260a0830181905260c09092019190915250565b8181026000198314156110235781158061101557508282828161101257fe5b05145b61101e57600080fd5b6109aa565b82158061103857508183828161103557fe5b05145b6109aa57600080fd5b60008061105e86886000015189608001518a610120015188611898565b9150600061107d8860800151896060015161132f90919063ffffffff16565b905083801561108c5750600081125b80156110a7575060208801516000906110a5908361132f565b125b156110cd578560a001516110cd5760405162461bcd60e51b815260040161025890614b06565b80156110ec5760208801516110e2908261132f565b6020890152600191505b60a0880151151580611101575060c088015115155b1561116a5760006111318960c0015161112b8b60a001518c6040015161132f90919063ffffffff16565b9061132f565b905060008112156111545760405162461bcd60e51b815260040161025890614bbe565b61115f898983611941565b506040890152600191505b8115611199576111998789600001518a602001518b604001518c60e001518d61010001518e6101200151611a2e565b875160208901516111c69161ffff16901515806111b9575060408a015115155b889190600160fe1b6113cb565b6000886020015112156111ec57602086018051600160f91b176001600160f81b03191690525b505095945050505050565b6000806109aa6001611b69565b600080600080600080611215611b82565b6001600160a01b039097166000908152602097909752505060409094205461ffff81169563ffffffff62010000830481169650600160301b830416945060ff600160501b8304169350600160581b90910460d81b9150565b600080600061127b86610ae8565b90508061128f576000809250925050611325565b600061129e8861ffff16611b8f565b90506003816060015160058111156112b257fe5b14156112f957348210156112d2576112cd8983340387611ba2565b6112f1565b3482146112f15760405162461bcd60e51b815260040161025890614a68565b869350611313565b61131061130b82600001518b85611c6a565b610c24565b93505b611320898986848a611df2565b925050505b9550959350505050565b818101828112156000831215146109aa57600080fd5b6000806000611352611e39565b61ffff8516600090815260209190915260409020600181015490915061138490600160581b900463ffffffff16611e46565b8154909350600160281b90046001600160581b03166113a66103858783611e54565b925050509250929050565b6000806109aa6003611b69565b6060015161ffff16151590565b8260001080156113dd5750613fff8311155b6113e657600080fd5b8180156113fa575082846060015161ffff16145b1561140457610996565b6080840151600090815b6001600160701b03198216156115865760f082901c613fff1686811480156114335750855b1561146b57506080870180516001600160f01b0319861660109093029290921c919091176001600160701b0319169052506109969050565b8681148015611478575085155b156114d4576001600160f01b03198516199290921691600360fe1b83166114b2576010836dffffffffffffffffffffffffffff1916901b92505b506001600160701b031991821660109091021c91909117166080850152610996565b86811180156114e05750855b1561153a576080888101516001600160f01b031960f08a901b88178116601086021c9690961795911b161561151457600080fd5b506001600160701b03199182166001919091016010021c91909117166080850152610996565b8681118015611547575085155b156115555750505050610996565b506001600160f01b0319821660108281029190911c93909317929190911b6001600160801b0319169060010161140e565b8461159357505050610996565b600981106115a057600080fd5b6001600160f01b031960f087901b85171660109091021c919091176001600160701b03191660808601525050505050565b6000620151808210156115e357600080fd5b50620151808106900390565b6115f761411c565b6109aa826000611e86565b600061161386600001518486611c6a565b935060006116248661ffff16611b8f565b9050600060028860600151600581111561163a57fe5b14156116545761164d61130b8988611f20565b905061167a565b60018860600151600581111561166657fe5b141561009c5761164d61130b898489611fd1565b6116878588838588611df2565b98975050505050505050565b61169b6140fb565b60006116a684612191565b905082816000015110156116e5576000806116c086612259565b90506116ce868483886122d6565b90935091506116de86838561237a565b50506116f2565b805183146116f257600080fd5b604051806060016040528061171b61130b8460a001518560c001516125ae90919063ffffffff16565b815260200161173e61130b8460a001518560e001516125ae90919063ffffffff16565b8152602001826060015181525091505092915050565b600081158015906117675750613fff8211155b61177057600080fd5b6080830151606084015161ffff1683141561178f5760019150506109aa565b6001600160701b03198116156117d45760f081901c613fff16838114156117c15750600160fe1b9081161490506109aa565b5060101b6001600160801b03191661178f565b5060009392505050565b60008060008060006117ee6125d5565b6001600160a01b03891660009081526020828152604080832061ffff8c168452909152902080546001600160501b0381169650600160501b900463ffffffff169450909150831561185b57805461185490600160701b900466ffffffffffffff16611e46565b9250611870565b8054600160701b900466ffffffffffffff1692505b805461188b908890600160a81b9004600a90810b900b6125e2565b9550505093509350935093565b6000836118a757506000611938565b600084126118b457600080fd5b60006118c38661ffff16611b8f565b90506118d8816118d38688611e54565b612610565b915060006118e58361099c565b90506118f2878383612648565b60038260600151600581111561190457fe5b141561191a57611915888286611ba2565b611927565b8151611927908983612740565b6119348888858589611df2565b5050505b95945050505050565b8251600090429082906119579061ffff16610ceb565b9050600061196a828860c00151856127b7565b90506119788783838861289a565b93506000611985836129c7565b90506001600160a01b03811615611a1357806001600160a01b0316631d684dd2888a600001516119b88c60400151610ae8565b8a8d60c001518b6040518763ffffffff1660e01b81526004016119e0969594939291906149c7565b600060405180830381600087803b1580156119fa57600080fd5b505af1158015611a0e573d6000803e3d6000fd5b505050505b8415611a2357611a238786612a39565b505050509392505050565b6000611a386125d5565b6001600160a01b03891660009081526020828152604080832061ffff8c168452909152902090915084611aa05766ffffffffffffff841115611a7957600080fd5b805466ffffffffffffff60701b1916600160701b66ffffffffffffff861602178155611aba565b8054600160501b900463ffffffff168514611aba57600080fd5b611ac385612a58565b815463ffffffff91909116600160501b0263ffffffff60501b19909116178155611af4611aef87610ae8565b612a6b565b815469ffffffffffffffffffff19166001600160501b039190911617808255611b3a90611b359085908c908c90600160a81b9004600a90810b900b8c612a81565b612aa4565b8154600a9190910b6001600160581b0316600160a81b026001600160a81b039091161790555050505050505050565b6000620f4240826026811115611b7b57fe5b0192915050565b6000806109aa6002611b69565b611b9761411c565b6109aa826001611e86565b8015611c34577304b9c40df01bdc99dd2c31ae4b232f20f4bbac5b6001600160a01b031663d0e30db0836040518263ffffffff1660e01b81526004016000604051808303818588803b158015611bf757600080fd5b505af1158015611c0b573d6000803e3d6000fd5b5050505050611c2f7304b9c40df01bdc99dd2c31ae4b232f20f4bbac5b8484612740565b6107a9565b6040516001600160a01b0384169083156108fc029084906000818181858888f19350505050158015610996573d6000803e3d6000fd5b600080846001600160a01b03166370a08231306040518263ffffffff1660e01b815260040180826001600160a01b0316815260200191505060206040518083038186803b158015611cba57600080fd5b505afa158015611cce573d6000803e3d6000fd5b505050506040513d6020811015611ce457600080fd5b5051604080516323b872dd60e01b81526001600160a01b038781166004830152306024830152604482018790529151929350908716916323b872dd9160648082019260009290919082900301818387803b158015611d4157600080fd5b505af1158015611d55573d6000803e3d6000fd5b50505050611d61612ad6565b6000856001600160a01b03166370a08231306040518263ffffffff1660e01b815260040180826001600160a01b0316815260200191505060206040518083038186803b158015611db057600080fd5b505afa158015611dc4573d6000803e3d6000fd5b505050506040513d6020811015611dda57600080fd5b50519050611de88183612b43565b9695505050505050565b600080611dff8486612b58565b9050611e0b8382612b88565b9150611e18878784612baa565b611e23868383612c2a565b8351611e2f9086612d36565b5095945050505050565b6000806109aa601d611b69565b600881901c60ff9091161b90565b6000610ede6ec097ce7bc90715b34b9f1000000000611e80856000015185610ff390919063ffffffff16565b90612d8b565b611e8e61411c565b6000611e98612dbc565b6000858152602082815260408083208715158452825291829020825160a08101845281546001600160a01b038116825260ff600160a01b82048116151594830194909452600160b01b81048416600a0a9482019490945293945092916060830191600160a81b909104166005811115611f0d57fe5b8152600060209091015295945050505050565b815160405163db006a7560e01b8152600091479183916001600160a01b03169063db006a7590611f54908790600401614c3c565b602060405180830381600087803b158015611f6e57600080fd5b505af1158015611f82573d6000803e3d6000fd5b505050506040513d601f19601f82011682018060405250810190611fa691906147d2565b90508015611fc65760405162461bcd60e51b815260040161025890614a8d565b47611de88184612b43565b60008083600001516001600160a01b03166370a08231306040518263ffffffff1660e01b81526004016120049190614868565b60206040518083038186803b15801561201c57600080fd5b505afa158015612030573d6000803e3d6000fd5b505050506040513d601f19601f8201168201806040525081019061205491906147d2565b9050600085600001516001600160a01b031663db006a75856040518263ffffffff1660e01b81526004016120889190614c3c565b602060405180830381600087803b1580156120a257600080fd5b505af11580156120b6573d6000803e3d6000fd5b505050506040513d601f19601f820116820180604052508101906120da91906147d2565b905080156120fa5760405162461bcd60e51b815260040161025890614a8d565b84516040516370a0823160e01b81526000916001600160a01b0316906370a082319061212a903090600401614868565b60206040518083038186803b15801561214257600080fd5b505afa158015612156573d6000803e3d6000fd5b505050506040513d601f19601f8201168201806040525081019061217a91906147d2565b90506121868184612b43565b979650505050505050565b61219961414b565b60006121a3611e39565b61ffff93841660009081526020918252604090819020805464ffffffffff81168652600160281b81046001600160581b03908116948701949094526001820154841692860192909252600160d81b820463ffffffff166060860152600160801b9091049091166080840152600201546001600160501b0380821660a0850152600160501b8204811660c0850152600160a01b82041660e0840152600160f01b900460ff1661012c02909216610100820152919050565b60008061226583612dc9565b6001600160a01b031663ef81f2166040518163ffffffff1660e01b81526004016040805180830381600087803b15801561229e57600080fd5b505af11580156122b2573d6000803e3d6000fd5b505050506040513d601f19601f820116820180604052508101906109c391906147ea565b6122de61414b565b60008060006122ee888689612df9565b60c08b019290925260e08a0192909252602089015191935091506123129083612f04565b602088015260808701516000901561234057608088015161233d906123378982612b43565b90612f16565b90505b612360612355670de0b6b3a764000083612f04565b60a08a015190612f33565b60a089015250506080860194909452505082529092909150565b6000612384611e39565b60008561ffff16815260200190815260200160002090506123a88260000151612f50565b815464ffffffffff191664ffffffffff9190911617815560a08201516123cd90612a6b565b60028201805469ffffffffffffffffffff19166001600160501b039290921691909117905560c082015161240090612a6b565b81600201600a6101000a8154816001600160501b0302191690836001600160501b031602179055506124358260e00151612a6b565b8160020160146101000a8154816001600160501b0302191690836001600160501b0316021790555061246a8260200151612f64565b81546001600160581b0391909116600160281b026fffffffffffffffffffffff00000000001990911617815560408201516124a490612f64565b6001820180546affffffffffffffffffffff19166001600160581b039290921691909117905560808201516124d890612f64565b81546001600160581b0391909116600160801b026affffffffffffffffffffff60801b19909116178155606082015161251090612a58565b815463ffffffff91909116600160d81b0263ffffffff60d81b19909116178155821561255c57600061254184610c24565b905061254d8582612f7a565b61255a610fee8683612baa565b505b8361ffff167fef25641e225e493886510ca1ad6584fa7b442b9fea820a29d1de3ce27d270fd28360a001518460c001518560e001516040516125a093929190614c45565b60405180910390a250505050565b6000826125bd575060006109aa565b828202828482816125ca57fe5b0414610ede57600080fd5b6000806109aa6006611b69565b60008082126125f25750806109aa565b825160208401516126099190611e80908590610ff3565b90506109aa565b60006305f5e100836040015114156126295750806109aa565b610ede6305f5e100611e80856040015185610ff390919063ffffffff16565b6000612652612fb1565b83516001600160a01b031660009081526020829052604090205490915080831161267d5750506107a9565b600061268886612dc9565b90506000816001600160a01b031663b5e4da238487036040518263ffffffff1660e01b81526004016126ba9190614c3c565b60006040518083038186803b1580156126d257600080fd5b505afa1580156126e6573d6000803e3d6000fd5b505050506040513d6000823e601f3d908101601f1916820160405261270e919081019061448a565b9050600061271c8783612fbe565b915061272a90508482612f04565b86111561273657600080fd5b5050505050505050565b826001600160a01b031663a9059cbb83836040518363ffffffff1660e01b815260040180836001600160a01b0316815260200182815260200192505050600060405180830381600087803b15801561279757600080fd5b505af11580156127ab573d6000803e3d6000fd5b505050506107a9612ad6565b60008060006127c686856131d5565b509150915060006127d561326b565b6001600160a01b03881660009081526020829052604081209192506127fa858961132f565b90508060001315801561281357506001600160601b0381105b61281c57600080fd5b81546bffffffffffffffffffffffff19166001600160601b038216176fffffffffffffffffffffffffffffffff60601b1916600160601b6001600160801b0386160217825563ffffffff871061287157600080fd5b50805463ffffffff8716600160e01b026001600160e01b03909116179055509150509392505050565b60e08401516000901561295b5773__MigrateIncentives_____________________63e0c01a72856128cf8860400151610ae8565b8860e001518961010001516040518563ffffffff1660e01b81526004016128f994939291906149fe565b60206040518083038186803b15801561291157600080fd5b505af4158015612925573d6000803e3d6000fd5b505050506040513d601f19601f8201168201806040525081019061294991906147d2565b600060e0870181905261010087015290505b61299d612996866101000151612990670de0b6b3a764000061298a886129848c60400151610ae8565b906125ae565b90613278565b90612b43565b8290612f04565b90506129b5670de0b6b3a764000061298a84866125ae565b85610100018181525050949350505050565b6000806129d2611b82565b6001600160a01b0384166000908152602082905260409020805491925090600160f81b900460ff1615612a2e57612a07613297565b6001600160a01b0380861660009081526020929092526040909120541692506108b1915050565b6000925050506108b1565b61049873c5e91b01f9b23952821410be7aa3c45b6429c6708383612740565b600063ffffffff821115610af757600080fd5b60006001600160501b03821115610af757600080fd5b6000612a8d86836132a4565b9050611938868686612a9f87866132e3565b61336a565b60006a7fffffffffffffffffffff198212801590612acd57506a7fffffffffffffffffffff8213155b610af757600080fd5b6000612ae0614197565b3d8015612af45760208114612afd57600080fd5b60019250612b08565b60206000833e815192505b5081610498576040805162461bcd60e51b8152602060048201526005602482015264045524332360dc1b604482015290519081900360640190fd5b600082821115612b5257600080fd5b50900390565b60006305f5e10083604001511415612b715750806109aa565b6040830151610ede90611e80846305f5e100610ff3565b8151600090610ede90611e80846ec097ce7bc90715b34b9f1000000000610ff3565b6000612bb461339e565b61ffff8416600090815260209190915260409081902054905163ad1c095d60e01b81526001600160a01b039091169150819063ad1c095d90612bfc908790869060040161495b565b600060405180830381600087803b158015612c1657600080fd5b505af1158015612736573d6000803e3d6000fd5b6000612c34611e39565b61ffff8516600090815260209190915260409020805490915064ffffffffff164214612c5f57600080fd5b8054600090612c7e90600160281b90046001600160581b03168561132f565b8254909150600090612ca090600160801b90046001600160581b03168561132f565b905080624c4b401315612cb257600080fd5b612cc3612cbe82610ae8565b612f64565b83546001600160581b0391909116600160801b026affffffffffffffffffffff60801b19909116178355612cf9612cbe83610ae8565b83546001600160581b0391909116600160281b026fffffffffffffffffffffff000000000019909116178355612d2e836133ab565b505050505050565b6000612d40612fb1565b6001600160a01b038416600090815260208290526040902054909150612d69610385828561132f565b6001600160a01b03909416600090815260209290925250604090209190915550565b600081600019148015612da15750600160ff1b83145b15612dab57600080fd5b818381612db457fe5b059392505050565b6000806109aa6007611b69565b600080612dd4613476565b61ffff939093166000908152602093909352505060409020546001600160a01b031690565b600080600080600080612e0c8988613483565b89519095509193509150600090612e3390612e28908b90612b43565b633b9aca00906125ae565b9050612e6d612e626301da9c00612e4a85856125ae565b81612e5157fe5b670de0b6b3a7640000919004612f04565b60e08a015190612f33565b9650612e8f612e846301da9c00612e4a87856125ae565b60c08a015190612f33565b955081831415612ea6575060009350612efb915050565b6000612ec8612ebd6301da9c00612e4a87866125ae565b60e08b015190612f33565b90506000612ed68983612b43565b9050612ef38861298a838d604001516125ae90919063ffffffff16565b965050505050505b93509350935093565b600082820183811015610ede57600080fd5b6000610ede612f2d84670de0b6b3a76400006125ae565b83613278565b6000610ede612f4284846125ae565b670de0b6b3a7640000613278565b600064ffffffffff821115610af757600080fd5b60006001600160581b03821115610af757600080fd5b6000811215612f8857600080fd5b6000612f96610fee8461351d565b9050612fa2818361132f565b90506107a9610fee8483613576565b6000806109aa6026611b69565b60008060005b83518110156131cd576000848281518110612fdb57fe5b60200260200101519050600081606001516001600160a01b03166370a08231306040518263ffffffff1660e01b81526004016130179190614868565b60206040518083038186803b15801561302f57600080fd5b505afa158015613043573d6000803e3d6000fd5b505050506040513d601f19601f8201168201806040525081019061306791906147d2565b9050600061307588306135ea565b905060005b8351518110156130d1576130c08460000151828151811061309757fe5b60200260200101516000866020015184815181106130b157fe5b60200260200101516001613694565b6130c957600196505b60010161307a565b5060006130de89306135ea565b905060006130ec8284612b43565b905080856040015111156130ff57600080fd5b60608501516040516370a0823160e01b81526000916001600160a01b0316906370a0823190613132903090600401614868565b60206040518083038186803b15801561314a57600080fd5b505afa15801561315e573d6000803e3d6000fd5b505050506040513d601f19601f8201168201806040525081019061318291906147d2565b90508481111561319157600080fd5b6131a086606001518683613902565b6131aa8883612f04565b97506131bb8b600001518585613902565b505060019094019350612fc492505050565b509250929050565b60008060006131e38561397f565b9194509250905080841180156131f95750600081115b80156132055750600083115b1561326457600061321586611204565b50505091505060006132406132376305f5e100846125ae90919063ffffffff16565b848803876139db565b905061324c8482612f04565b93506001600160801b03841061326157600080fd5b50505b9250925092565b6000806109aa6011611b69565b600080821161328657600080fd5b81838161328f57fe5b049392505050565b6000806109aa6012611b69565b6000808212156132dd576132d860016132d28560200151611e80876000015187610ff390919063ffffffff16565b906139fd565b610ede565b50919050565b600081831480613300575060008312158015613300575060008212155b1561330d575060006109aa565b6000831315801561331e5750816000125b1561332a5750816109aa565b6000821315801561333b5750826000125b15613349576126098261099c565b6000831315801561335b575060008213155b1561009c5761260983836139fd565b8015610996578351602085015160009161338991611e80908590610ff3565b905061339784848484613a13565b5050505050565b6000806109aa6021611b69565b805460028201546000916133ed91600160281b9091046001600160581b0316906133e7906001600160501b03600160501b820481169116610ff3565b90610ff3565b60018301546002840154919250600091613427916001600160581b0316906133e7906001600160501b03600160a01b820481169116610ff3565b835490915060009061345e9060016001600160581b03600160801b909204821601166ec097ce7bc90715b34b9f1000000000610ff3565b90508061346b84846139fd565b131561099657600080fd5b6000806109aa601f611b69565b6000806000806000856020015111156134d0576134cd6134b48660c0015187602001516125ae90919063ffffffff16565b60e087015160408801516134c7916125ae565b90613b59565b90505b60006134db87613b6c565b90506134e78183613b9f565b945081156134fe576134fb81866001613c58565b93505b602086015115613261576135128583613cc9565b925050509250925092565b6000806135286125d5565b6001600160a01b03851660009081526020828152604080832061ffff8816845290915281208054600160a81b9004600a90810b900b945091925083121561356e57600080fd5b505092915050565b600081121561358457600080fd5b600061358e6125d5565b6001600160a01b03851660009081526020828152604080832061ffff8816845290915290209091506135bf83612aa4565b8154600a9190910b6001600160581b0316600160a81b026001600160a81b0390911617905550505050565b60006003836060015160058111156135fe57fe5b141561361557506001600160a01b038116316109aa565b82516040516370a0823160e01b81526001600160a01b03909116906370a0823190613644908590600401614868565b60206040518083038186803b15801561365c57600080fd5b505afa158015613670573d6000803e3d6000fd5b505050506040513d601f19601f8201168201806040525081019061260991906147d2565b6000806000866001600160a01b031686866040518082805190602001908083835b602083106136d45780518252601f1990920191602091820191016136b5565b6001836020036101000a03801982511681845116808217855250505050505090500191505060006040518083038185875af1925050503d8060008114613736576040519150601f19603f3d011682016040523d82523d6000602084013e61373b565b606091505b5091509150836137de578161374f82613ce2565b906137d85760405162461bcd60e51b81526004018080602001828103825283818151815260200191508051906020019080838360005b8381101561379d578181015183820152602001613785565b50505050905090810190601f1680156137ca5780820380516001836020036101000a031916815260200191505b509250505060405180910390fd5b50611e2f565b866001600160a01b03167f3c7e398c5e91088cae639370e35b25ea669d81fbdf0def5388e73661bc34e08e878761381485613ce2565b604051808481526020018060200180602001838103835285818151815260200191508051906020019080838360005b8381101561385b578181015183820152602001613843565b50505050905090810190601f1680156138885780820380516001836020036101000a031916815260200191505b50838103825284518152845160209182019186019080838360005b838110156138bb5781810151838201526020016138a3565b50505050905090810190601f1680156138e85780820380516001836020036101000a031916815260200191505b509550505050505060405180910390a25095945050505050565b600061390c612fb1565b6001600160a01b0385166000908152602082905260409020549091508381111561393557600080fd5b600061394c61394386610c24565b6132d286610c24565b905061395b610385838361132f565b6001600160a01b039096166000908152602093909352505060409020929092555050565b60008060008061398d61326b565b6001600160a01b0395909516600090815260209590955250506040909220546001600160601b03811693600160601b82046001600160801b03169350600160e01b90910463ffffffff169150565b60006109c38261298a6301da9c00818861298489670de0b6b3a76400006125ae565b808203828113156000831215146109aa57600080fd5b6000613a1d611e39565b61ffff8516600090815260209190915260409020805490915064ffffffffff164214613a4857600080fd5b8054600160f81b900460ff16613a5d57600080fd5b6001810154600090613a78906001600160581b03168561132f565b8254909150600090613a9a90600160281b90046001600160581b03168561132f565b905081600919128015613aad5750600082125b15613ab757600091505b80600919128015613ac85750600081125b15613ad1575060005b613add612cbe83610ae8565b6001840180546affffffffffffffffffffff19166001600160581b0392909216919091179055613b0f612cbe82610ae8565b83546001600160581b0391909116600160281b026fffffffffffffffffffffff000000000019909116178355613b4787878688613de9565b613b50836133ab565b50505050505050565b6000610ede612f2d84633b9aca006125ae565b613b746141b5565b6000613b7e613efd565b61ffff84166000908152602091909152604081205491506108ad9082613f0a565b600080836080015111613bb157600080fd5b633b9aca00821115613bc257600080fd5b82518211613be15782516040840151612609919061298a9085906125ae565b82602001518211613c1f5760408301518351602085015160608601516126099392613c19928190039161298a918803908590036125ae565b90612f04565b610ede8360600151613c198560200151633b9aca000361298a8760600151886080015103886020015188036125ae90919063ffffffff16565b600080613c77606461298a8760e00151876125ae90919063ffffffff16565b90508460a00151811015613c8c575060a08401515b8460c00151811115613c9f575060c08401515b8215613caf57610ed98482612f04565b838111613cbe57808403610ed9565b600095945050505050565b6000610ede613cd884846125ae565b633b9aca00613278565b6060604482511015613d18575060408051808201909152600d81526c14da5b195b9d0814995d995c9d609a1b60208201526108b1565b6004820180519092602401906020811015613d3257600080fd5b8101908080516040519392919084640100000000821115613d5257600080fd5b908301906020820185811115613d6757600080fd5b8251640100000000811182820188101715613d8157600080fd5b82525081516020918201929091019080838360005b83811015613dae578181015183820152602001613d96565b50505050905090810190601f168015613ddb5780820380516001836020036101000a031916815260200191505b506040525050509050919050565b6000613df361339e565b61ffff8516600090815260209190915260408120546001600160a01b03169150613e1b614029565b61ffff8616600090815260209190915260409081902054905163ad1c095d60e01b81526001600160a01b039091169150819063ad1c095d90613e63908990879060040161495b565b600060405180830381600087803b158015613e7d57600080fd5b505af1158015613e91573d6000803e3d6000fd5b505060405163ad1c095d60e01b81526001600160a01b038516925063ad1c095d9150613ec3908990889060040161495b565b600060405180830381600087803b158015613edd57600080fd5b505af1158015613ef1573d6000803e3d6000fd5b50505050505050505050565b6000806109aa601b611b69565b613f126141b5565b6064633b9aca008360ff861660208110613f2857fe5b1a0281613f3157fe5b0481526064633b9aca008360ff861660010160208110613f4d57fe5b1a0281613f5657fe5b04816020018181525050613f7b8260028560ff160160208110613f7557fe5b1a614036565b60808201819052610100908360ff861660030160208110613f9857fe5b1a0281613fa157fe5b0460408201526080810151610100908360ff861660040160208110613fc257fe5b1a0281613fcb57fe5b0460608201526207a1208260ff851660050160208110613fe757fe5b1a0260a0820152622625a08260ff85166006016020811061400457fe5b1a0260c08201528160ff84166007016020811061401d57fe5b1a60e082015292915050565b6000806109aa6022611b69565b60008160ff166096106140515760ff8216622625a0026109aa565b5060951960ff919091160162e4e1c00263165a0bc00190565b604051806101400160405280600061ffff16815260200160008152602001600081526020016000815260200160008152602001600081526020016000815260200160008152602001600081526020016140c16140fb565b905290565b6040805160c081018252600080825260208201819052918101829052606081018290526080810182905260a081019190915290565b60405180606001604052806000815260200160008152602001600081525090565b6040805160a0810182526000808252602082018190529181018290529060608201908152602001600081525090565b6040518061012001604052806000815260200160008152602001600081526020016000815260200160008152602001600081526020016000815260200160008152602001600081525090565b60405180602001604052806001906020820280368337509192915050565b60405180610100016040528060008152602001600081526020016000815260200160008152602001600081526020016000815260200160008152602001600081525090565b80516108b181614c9d565b600082601f830112614215578081fd5b8151602061422a61422583614c7f565b614c5b565b8281528181019085830183850287018401881015614246578586fd5b855b8581101561426d57815161425b81614c9d565b84529284019290840190600101614248565b5090979650505050505050565b6000601f838184011261428b578182fd5b8251602061429b61422583614c7f565b82815281810190868301865b8581101561433f57815189018a603f8201126142c1578889fd5b8581015167ffffffffffffffff8111156142d757fe5b6142e8818a01601f19168801614c5b565b8181528c60408385010111156142fc578a8bfd5b8a5b8281101561431a57838101604001518282018a015288016142fe565b8281111561432a578b8984840101525b508652505092840192908401906001016142a7565b509098975050505050505050565b80516108b181614cb5565b80516001600160701b0319811681146108b157600080fd5b80516001600160f81b0319811681146108b157600080fd5b8051600481106108b157600080fd5b80516108b181614cc3565b805160ff811681146108b157600080fd5b6000602082840312156143c4578081fd5b8135610ede81614c9d565b6000806000606084860312156143e3578182fd5b83356143ee81614c9d565b925060208401356143fe81614cc3565b929592945050506040919091013590565b600080600080600060a08688031215614426578283fd5b853561443181614c9d565b9450602086013561444181614cc3565b935060408601356001600160601b038116811461445c578384fd5b9250606086013561446c81614cb5565b9150608086013561447c81614cb5565b809150509295509295909350565b6000602080838503121561449c578182fd5b825167ffffffffffffffff808211156144b3578384fd5b818501915085601f8301126144c6578384fd5b81516144d461422582614c7f565b81815284810190848601875b8481101561458957815187016080818d03601f190112156144ff57898afd5b60408051608081018181108a8211171561451557fe5b8252828b015189811115614527578c8dfd5b6145358f8d83870101614205565b8252508183015189811115614548578c8dfd5b6145568f8d8387010161427a565b8c83015250606083015182820152614570608084016141fa565b60608201528652505092870192908701906001016144e0565b50909998505050505050505050565b6000602082840312156145a9578081fd5b8135610ede81614cb5565b60008060408084860312156145c7578283fd5b8351925060208085015167ffffffffffffffff808211156145e6578485fd5b818701915087601f8301126145f9578485fd5b815161460761422582614c7f565b8181528481019084860160c0808502870188018d101561462557898afd5b8996505b848710156146ac5780828e03121561463f57898afd5b8851818101818110888211171561465257fe5b8a52825161465f81614cc3565b81528289015189820152898301518a820152606080840151908201526080808401519082015260a0614692818501614388565b908201528452600196909601959287019290810190614629565b50989b909a5098505050505050505050565b600060c082840312156146cf578081fd5b60405160c0810181811067ffffffffffffffff821117156146ec57fe5b604052825164ffffffffff81168114614703578283fd5b815261471160208401614370565b6020820152614722604084016143a2565b604082015261473360608401614397565b606082015261474460808401614358565b608082015261475560a0840161434d565b60a08201529392505050565b600060208284031215614772578081fd5b8135610ede81614cc3565b600080600060608486031215614791578081fd5b833561479c81614cc3565b925060208401356001600160581b03811681146147b7578182fd5b915060408401356147c781614cb5565b809150509250925092565b6000602082840312156147e3578081fd5b5051919050565b600080604083850312156147fc578182fd5b505080516020909101519092909150565b805164ffffffffff1682526020808201516001600160f81b0319169083015260408082015160ff169083015260608082015161ffff16908301526080808201516001600160701b0319169083015260a0908101511515910152565b6001600160a01b0391909116815260200190565b6001600160a01b03948516815292841660208401529083166040830152909116606082015260800190565b600061012080830160018060a01b038089168552602081891681870152604091506148d48287018961480d565b61010086019390935285519182905261014085019280870192855b8181101561494b578451805161ffff16875283810151848801528481015185880152606080820151908801526080808201519088015260a090810151906004821061493657fe5b87015260c090950194938201936001016148ef565b50939a9950505050505050505050565b6001600160a01b03929092168252602082015260400190565b6001600160a01b038316815260e08101610ede602083018461480d565b6001600160a01b0395909516855261ffff9390931660208501526040840191909152151560608301521515608082015260a00190565b6001600160a01b0396909616865261ffff94909416602086015260408501929092526060840152608083015260a082015260c00190565b6001600160a01b0394909416845260208401929092526040830152606082015260800190565b901515815260200190565b9182521515602082015260400190565b6020808252600f908201526e04f76657220537570706c792043617608c1b604082015260600190565b6020808252600b908201526a4554482042616c616e636560a81b604082015260600190565b60208082526006908201526552656465656d60d01b604082015260600190565b60208082526012908201527143616e6e6f7420686176652061737365747360701b604082015260600190565b6020808252601390820152722ab730baba3437b934bd32b21031b0b63632b960691b604082015260600190565b6020808252600f908201526e4e6f205072696d6520426f72726f7760881b604082015260600190565b6020808252601c908201527f446570726563617465643a2052656465656d20746f2063546f6b656e00000000604082015260600190565b602080825260149082015273043616e6e6f74206368616e6765206269746d61760641b604082015260600190565b60208082526010908201526f10d85b9b9bdd081a185d99481919589d60821b604082015260600190565b6020808252600a90820152692732b390372a37b5b2b760b11b604082015260600190565b602080825260139082015272125b9d985b1a590818dd5c9c995b98de481a59606a1b604082015260600190565b602080825260139082015272496e73756666696369656e7420746f6b656e7360681b604082015260600190565b90815260200190565b9283526020830191909152604082015260600190565b60405181810167ffffffffffffffff81118282101715614c7757fe5b604052919050565b600067ffffffffffffffff821115614c9357fe5b5060209081020190565b6001600160a01b0381168114614cb257600080fd5b50565b8015158114614cb257600080fd5b61ffff81168114614cb257600080fdfea264697066735822122087ee8695c3ed05be3eb5961f96d6433316b841cac2378aa2683cf4c1a15307fa64736f6c63430007060033","bytecodeSha1":"08b02930f35b2c2701c97f622924efcd3df7c0d0","compiler":{"evm_version":"istanbul","optimizer":{"enabled":true,"runs":200},"version":"0.7.6+commit.7338295f"},"contractName":"AccountAction","deployedBytecode":"60806040526004361061009c5760003560e01c80638246336711610064578063824633671461015c5780638da5cb5b146101715780639c97945014610186578063b8a69455146101a6578063c4c96dae146101c6578063f667f897146101eb5761009c565b806302f332e8146100a157806324a3d622146100d75780632890fb65146100f957806361d0d61c1461010c578063668906431461012e575b600080fd5b3480156100ad57600080fd5b506100c16100bc36600461477d565b610218565b6040516100ce9190614c3c565b60405180910390f35b3480156100e357600080fd5b506100ec61039a565b6040516100ce9190614868565b6100c16101073660046143cf565b6103a9565b34801561011857600080fd5b5061012c610127366004614598565b610462565b005b34801561013a57600080fd5b5061014e61014936600461440f565b61049c565b6040516100ce929190614a2f565b34801561016857600080fd5b506100ec61073b565b34801561017d57600080fd5b506100ec61074a565b34801561019257600080fd5b5061012c6101a1366004614761565b610761565b3480156101b257600080fd5b506100c16101c13660046143cf565b6107ae565b3480156101d257600080fd5b506101db610828565b6040516100ce949392919061487c565b3480156101f757600080fd5b5061020b6102063660046143b3565b610882565b6040516100ce9190614a24565b60006002600a54141561022a57600080fd5b6002600a5561ffff841660011461026157816102615760405162461bcd60e51b815260040161025890614b2f565b60405180910390fd5b600061026c336108b6565b50905061027761406a565b6102838133888561097b565b6001600160581b0385811614156102bc5760008160200151136102a557600080fd5b6102b2816020015161099c565b60808201526102d4565b6102ce856001600160581b031661099c565b60808201525b60006102e382338588156109b0565b90506102ef83336109cb565b60208301516001600160f81b0319161561036b57604051636ccc642f60e01b815273__$841fddfe32830bb6dbc3a02d7f16c53722$__90636ccc642f9061033a903390600401614868565b60006040518083038186803b15801561035257600080fd5b505af4158015610366573d6000803e3d6000fd5b505050505b600081131561037957600080fd5b61038a6103858261099c565b610ae8565b6001600a55979650505050505050565b6002546001600160a01b031681565b60006002600a5414156103bb57600080fd5b6002600a55333014156103cd57600080fd5b336001600160a01b038516146103e257600080fd5b6103eb84610afb565b60006103f685610b76565b905061040061406a565b61040c8187878561097b565b60006104258761041b87610c24565b8491906000610c3a565b90506000811361043457600080fd5b61043f828885610c8c565b61044983886109cb565b6101208201516104599087610caa565b61038a81610ae8565b3330141561046f57600080fd5b61047833610afb565b6000610483336108b6565b5082151560a0820152905061049881336109cb565b5050565b6000806002600a5414156104af57600080fd5b6002600a55336001600160a01b03881614806104ca57503330145b6104e65760405162461bcd60e51b815260040161025890614ad9565b6001600160601b03851660006104fb896108b6565b50905061050661406a565b610512818b8b8561097b565b82816040015112156105365760405162461bcd60e51b815260040161025890614c0f565b61053f8361099c565b60c082015260405163b853e45760e01b8152600090819073__$43fd92ea4ea9b72ca0014644dbfd757564$__9063b853e45790610588908f908f908a908f908f90600401614991565b60006040518083038186803b1580156105a057600080fd5b505af41580156105b4573d6000803e3d6000fd5b505050506040513d6000823e601f3d908101601f191682016040526105dc91908101906145b4565b6060850182905290925090506105f3838d86610c8c565b80511561069c5760006106098c61ffff16610ceb565b905073__$f6541b0d362a0c7d99a2a29cd3d373d61b$__63c108fc268e8388866040518563ffffffff1660e01b815260040161064894939291906148a7565b60c06040518083038186803b15801561066057600080fd5b505af4158015610674573d6000803e3d6000fd5b505050506040513d601f19601f8201168201806040525081019061069891906146be565b9450505b6106a6848d6109cb565b60208401516001600160f81b0319161561072257604051636ccc642f60e01b815273__$841fddfe32830bb6dbc3a02d7f16c53722$__90636ccc642f906106f1908f90600401614868565b60006040518083038186803b15801561070957600080fd5b505af415801561071d573d6000803e3d6000fd5b505050505b516001600a55909b9015159a5098505050505050505050565b6001546001600160a01b031681565b60005464010000000090046001600160a01b031681565b3330141561076e57600080fd5b60005461ffff908116908216111561078557600080fd5b336000610791826108b6565b50905061079f818442610d11565b6107a981836109cb565b505050565b60006002600a5414156107c057600080fd5b6002600a55333014156107d257600080fd5b336001600160a01b038516146107e757600080fd5b6107f084610afb565b60006107fb85610b76565b905061080561406a565b6108118187878561097b565b60006104258761082087610c24565b849190610e09565b73__$841fddfe32830bb6dbc3a02d7f16c53722$__73__$b21a4dc043b77aa57922ad9143a3cb040e$__73__$f6541b0d362a0c7d99a2a29cd3d373d61b$__73__$43fd92ea4ea9b72ca0014644dbfd757564$__90919293565b600061088d82610afb565b600080610899846108b6565b9150915080156108ad576108ad82856109cb565b9150505b919050565b6108be6140c6565b6000806108ca84610b76565b90506108d581610ee5565b1561096f576040516337b5fc2160e11b815273__$f6541b0d362a0c7d99a2a29cd3d373d61b$__90636f6bf842906109139087908590600401614974565b60c06040518083038186803b15801561092b57600080fd5b505af415801561093f573d6000803e3d6000fd5b505050506040513d601f19601f8201168201806040525081019061096391906146be565b60019250925050610976565b9150600090505b915091565b61098482610f39565b61012085015261099684848484610f4b565b50505050565b60006109aa60001983610ff3565b92915050565b60006109c0858585856001611041565b90505b949350505050565b60006109d56111f7565b6001600160a01b03831660008181526020838152604080832088518154938a01518a84015160608c015160808d015160a08e015164ffffffffff1990981664ffffffffff9095169490941765ff00000000001916600160281b60f89490941c939093029290921766ff0000000000001916600160301b60ff909216919091021768ffff000000000000001916600160381b61ffff90921691909102177affffffffffffffffffffffffffffffffffff0000000000000000001916600160481b60709290921c919091021760ff60d81b1916600160d81b93151593909302929092179091555192935090917f6bd4b121bca854a191536a2ca891155c42ee2fb23f307fb34e8bc65cfcb5412e9190a2505050565b600080821215610af757600080fd5b5090565b6001600160a01b038116610b0e57600080fd5b6001600160a01b038116610fee1415610b2657600080fd5b6001600160a01b0381166105e71415610b3e57600080fd5b6001600160a01b038116301415610b5457600080fd5b6000610b5f82611204565b5050505061ffff1690508060001461049857600080fd5b610b7e6140c6565b6000610b886111f7565b6001600160a01b03841660009081526020918252604090819020815160c081018352905464ffffffffff811682526001600160f81b0319600160281b820460f81b169382019390935260ff600160301b840481169282019290925261ffff600160381b84041660608201526001600160701b0319600160481b840460701b166080820152600160d81b90920416151560a0820152915050919050565b60006001600160ff1b03821115610af757600080fd5b600082610c49575060006109c3565b60008313610c5657600080fd5b610c6c848660000151858861012001518661126d565b6060870151909250610c7f91508261132f565b6060860152949350505050565b608083015115610c9b57600080fd5b61099683838360006001611041565b600080610cb78484611345565b915091508160001415610ccb575050610498565b818111156109965760405162461bcd60e51b815260040161025890614a3f565b600080610cf66113b1565b6000938452602052505060409020546001600160a01b031690565b610d1a836113be565b15610d375760405162461bcd60e51b815260040161025890614b66565b8161ffff166000108015610d515750613fff61ffff831611155b610d6d5760405162461bcd60e51b815260040161025890614be2565b604083015160ff1615610d925760405162461bcd60e51b815260040161025890614aad565b60208301516001600160f81b03191615610dbe5760405162461bcd60e51b815260040161025890614b94565b610dd38361ffff84166000600160fe1b6113cb565b61ffff821660608401526000610de8826115d1565b905064ffffffffff8110610dfb57600080fd5b64ffffffffff169092525050565b600081610e1857506000610ede565b60008213610e2557600080fd5b6000610e38856000015161ffff166115ef565b80519091506001600160a01b0316610e4f57600080fd5b600181606001516005811115610e6157fe5b1480610e7c5750600281606001516005811115610e7a57fe5b145b15610eb4578451610120860151610e9891839186908890611602565b6060860151909250610eaa908361132f565b6060860152610edc565b600481606001516005811115610ec657fe5b141561009c57610ed98585856000610c3a565b91505b505b9392505050565b600042610ef1836113be565b15610f1257610eff816115d1565b835164ffffffffff161091506108b19050565b825164ffffffffff1615801590610f315750825164ffffffffff168110155b9150506108b1565b610f416140fb565b6109aa8242611693565b8161ffff166000108015610f655750613fff61ffff831611155b610f6e57600080fd5b61ffff8216808552610f81908290611754565b15610fb057610f9683838661012001516117de565b61010088015260e087015260408601526020850152610fce565b6000602085018190526040850181905260e085018190526101008501525b50506000606083018190526080830181905260a0830181905260c09092019190915250565b8181026000198314156110235781158061101557508282828161101257fe5b05145b61101e57600080fd5b6109aa565b82158061103857508183828161103557fe5b05145b6109aa57600080fd5b60008061105e86886000015189608001518a610120015188611898565b9150600061107d8860800151896060015161132f90919063ffffffff16565b905083801561108c5750600081125b80156110a7575060208801516000906110a5908361132f565b125b156110cd578560a001516110cd5760405162461bcd60e51b815260040161025890614b06565b80156110ec5760208801516110e2908261132f565b6020890152600191505b60a0880151151580611101575060c088015115155b1561116a5760006111318960c0015161112b8b60a001518c6040015161132f90919063ffffffff16565b9061132f565b905060008112156111545760405162461bcd60e51b815260040161025890614bbe565b61115f898983611941565b506040890152600191505b8115611199576111998789600001518a602001518b604001518c60e001518d61010001518e6101200151611a2e565b875160208901516111c69161ffff16901515806111b9575060408a015115155b889190600160fe1b6113cb565b6000886020015112156111ec57602086018051600160f91b176001600160f81b03191690525b505095945050505050565b6000806109aa6001611b69565b600080600080600080611215611b82565b6001600160a01b039097166000908152602097909752505060409094205461ffff81169563ffffffff62010000830481169650600160301b830416945060ff600160501b8304169350600160581b90910460d81b9150565b600080600061127b86610ae8565b90508061128f576000809250925050611325565b600061129e8861ffff16611b8f565b90506003816060015160058111156112b257fe5b14156112f957348210156112d2576112cd8983340387611ba2565b6112f1565b3482146112f15760405162461bcd60e51b815260040161025890614a68565b869350611313565b61131061130b82600001518b85611c6a565b610c24565b93505b611320898986848a611df2565b925050505b9550959350505050565b818101828112156000831215146109aa57600080fd5b6000806000611352611e39565b61ffff8516600090815260209190915260409020600181015490915061138490600160581b900463ffffffff16611e46565b8154909350600160281b90046001600160581b03166113a66103858783611e54565b925050509250929050565b6000806109aa6003611b69565b6060015161ffff16151590565b8260001080156113dd5750613fff8311155b6113e657600080fd5b8180156113fa575082846060015161ffff16145b1561140457610996565b6080840151600090815b6001600160701b03198216156115865760f082901c613fff1686811480156114335750855b1561146b57506080870180516001600160f01b0319861660109093029290921c919091176001600160701b0319169052506109969050565b8681148015611478575085155b156114d4576001600160f01b03198516199290921691600360fe1b83166114b2576010836dffffffffffffffffffffffffffff1916901b92505b506001600160701b031991821660109091021c91909117166080850152610996565b86811180156114e05750855b1561153a576080888101516001600160f01b031960f08a901b88178116601086021c9690961795911b161561151457600080fd5b506001600160701b03199182166001919091016010021c91909117166080850152610996565b8681118015611547575085155b156115555750505050610996565b506001600160f01b0319821660108281029190911c93909317929190911b6001600160801b0319169060010161140e565b8461159357505050610996565b600981106115a057600080fd5b6001600160f01b031960f087901b85171660109091021c919091176001600160701b03191660808601525050505050565b6000620151808210156115e357600080fd5b50620151808106900390565b6115f761411c565b6109aa826000611e86565b600061161386600001518486611c6a565b935060006116248661ffff16611b8f565b9050600060028860600151600581111561163a57fe5b14156116545761164d61130b8988611f20565b905061167a565b60018860600151600581111561166657fe5b141561009c5761164d61130b898489611fd1565b6116878588838588611df2565b98975050505050505050565b61169b6140fb565b60006116a684612191565b905082816000015110156116e5576000806116c086612259565b90506116ce868483886122d6565b90935091506116de86838561237a565b50506116f2565b805183146116f257600080fd5b604051806060016040528061171b61130b8460a001518560c001516125ae90919063ffffffff16565b815260200161173e61130b8460a001518560e001516125ae90919063ffffffff16565b8152602001826060015181525091505092915050565b600081158015906117675750613fff8211155b61177057600080fd5b6080830151606084015161ffff1683141561178f5760019150506109aa565b6001600160701b03198116156117d45760f081901c613fff16838114156117c15750600160fe1b9081161490506109aa565b5060101b6001600160801b03191661178f565b5060009392505050565b60008060008060006117ee6125d5565b6001600160a01b03891660009081526020828152604080832061ffff8c168452909152902080546001600160501b0381169650600160501b900463ffffffff169450909150831561185b57805461185490600160701b900466ffffffffffffff16611e46565b9250611870565b8054600160701b900466ffffffffffffff1692505b805461188b908890600160a81b9004600a90810b900b6125e2565b9550505093509350935093565b6000836118a757506000611938565b600084126118b457600080fd5b60006118c38661ffff16611b8f565b90506118d8816118d38688611e54565b612610565b915060006118e58361099c565b90506118f2878383612648565b60038260600151600581111561190457fe5b141561191a57611915888286611ba2565b611927565b8151611927908983612740565b6119348888858589611df2565b5050505b95945050505050565b8251600090429082906119579061ffff16610ceb565b9050600061196a828860c00151856127b7565b90506119788783838861289a565b93506000611985836129c7565b90506001600160a01b03811615611a1357806001600160a01b0316631d684dd2888a600001516119b88c60400151610ae8565b8a8d60c001518b6040518763ffffffff1660e01b81526004016119e0969594939291906149c7565b600060405180830381600087803b1580156119fa57600080fd5b505af1158015611a0e573d6000803e3d6000fd5b505050505b8415611a2357611a238786612a39565b505050509392505050565b6000611a386125d5565b6001600160a01b03891660009081526020828152604080832061ffff8c168452909152902090915084611aa05766ffffffffffffff841115611a7957600080fd5b805466ffffffffffffff60701b1916600160701b66ffffffffffffff861602178155611aba565b8054600160501b900463ffffffff168514611aba57600080fd5b611ac385612a58565b815463ffffffff91909116600160501b0263ffffffff60501b19909116178155611af4611aef87610ae8565b612a6b565b815469ffffffffffffffffffff19166001600160501b039190911617808255611b3a90611b359085908c908c90600160a81b9004600a90810b900b8c612a81565b612aa4565b8154600a9190910b6001600160581b0316600160a81b026001600160a81b039091161790555050505050505050565b6000620f4240826026811115611b7b57fe5b0192915050565b6000806109aa6002611b69565b611b9761411c565b6109aa826001611e86565b8015611c34577304b9c40df01bdc99dd2c31ae4b232f20f4bbac5b6001600160a01b031663d0e30db0836040518263ffffffff1660e01b81526004016000604051808303818588803b158015611bf757600080fd5b505af1158015611c0b573d6000803e3d6000fd5b5050505050611c2f7304b9c40df01bdc99dd2c31ae4b232f20f4bbac5b8484612740565b6107a9565b6040516001600160a01b0384169083156108fc029084906000818181858888f19350505050158015610996573d6000803e3d6000fd5b600080846001600160a01b03166370a08231306040518263ffffffff1660e01b815260040180826001600160a01b0316815260200191505060206040518083038186803b158015611cba57600080fd5b505afa158015611cce573d6000803e3d6000fd5b505050506040513d6020811015611ce457600080fd5b5051604080516323b872dd60e01b81526001600160a01b038781166004830152306024830152604482018790529151929350908716916323b872dd9160648082019260009290919082900301818387803b158015611d4157600080fd5b505af1158015611d55573d6000803e3d6000fd5b50505050611d61612ad6565b6000856001600160a01b03166370a08231306040518263ffffffff1660e01b815260040180826001600160a01b0316815260200191505060206040518083038186803b158015611db057600080fd5b505afa158015611dc4573d6000803e3d6000fd5b505050506040513d6020811015611dda57600080fd5b50519050611de88183612b43565b9695505050505050565b600080611dff8486612b58565b9050611e0b8382612b88565b9150611e18878784612baa565b611e23868383612c2a565b8351611e2f9086612d36565b5095945050505050565b6000806109aa601d611b69565b600881901c60ff9091161b90565b6000610ede6ec097ce7bc90715b34b9f1000000000611e80856000015185610ff390919063ffffffff16565b90612d8b565b611e8e61411c565b6000611e98612dbc565b6000858152602082815260408083208715158452825291829020825160a08101845281546001600160a01b038116825260ff600160a01b82048116151594830194909452600160b01b81048416600a0a9482019490945293945092916060830191600160a81b909104166005811115611f0d57fe5b8152600060209091015295945050505050565b815160405163db006a7560e01b8152600091479183916001600160a01b03169063db006a7590611f54908790600401614c3c565b602060405180830381600087803b158015611f6e57600080fd5b505af1158015611f82573d6000803e3d6000fd5b505050506040513d601f19601f82011682018060405250810190611fa691906147d2565b90508015611fc65760405162461bcd60e51b815260040161025890614a8d565b47611de88184612b43565b60008083600001516001600160a01b03166370a08231306040518263ffffffff1660e01b81526004016120049190614868565b60206040518083038186803b15801561201c57600080fd5b505afa158015612030573d6000803e3d6000fd5b505050506040513d601f19601f8201168201806040525081019061205491906147d2565b9050600085600001516001600160a01b031663db006a75856040518263ffffffff1660e01b81526004016120889190614c3c565b602060405180830381600087803b1580156120a257600080fd5b505af11580156120b6573d6000803e3d6000fd5b505050506040513d601f19601f820116820180604052508101906120da91906147d2565b905080156120fa5760405162461bcd60e51b815260040161025890614a8d565b84516040516370a0823160e01b81526000916001600160a01b0316906370a082319061212a903090600401614868565b60206040518083038186803b15801561214257600080fd5b505afa158015612156573d6000803e3d6000fd5b505050506040513d601f19601f8201168201806040525081019061217a91906147d2565b90506121868184612b43565b979650505050505050565b61219961414b565b60006121a3611e39565b61ffff93841660009081526020918252604090819020805464ffffffffff81168652600160281b81046001600160581b03908116948701949094526001820154841692860192909252600160d81b820463ffffffff166060860152600160801b9091049091166080840152600201546001600160501b0380821660a0850152600160501b8204811660c0850152600160a01b82041660e0840152600160f01b900460ff1661012c02909216610100820152919050565b60008061226583612dc9565b6001600160a01b031663ef81f2166040518163ffffffff1660e01b81526004016040805180830381600087803b15801561229e57600080fd5b505af11580156122b2573d6000803e3d6000fd5b505050506040513d601f19601f820116820180604052508101906109c391906147ea565b6122de61414b565b60008060006122ee888689612df9565b60c08b019290925260e08a0192909252602089015191935091506123129083612f04565b602088015260808701516000901561234057608088015161233d906123378982612b43565b90612f16565b90505b612360612355670de0b6b3a764000083612f04565b60a08a015190612f33565b60a089015250506080860194909452505082529092909150565b6000612384611e39565b60008561ffff16815260200190815260200160002090506123a88260000151612f50565b815464ffffffffff191664ffffffffff9190911617815560a08201516123cd90612a6b565b60028201805469ffffffffffffffffffff19166001600160501b039290921691909117905560c082015161240090612a6b565b81600201600a6101000a8154816001600160501b0302191690836001600160501b031602179055506124358260e00151612a6b565b8160020160146101000a8154816001600160501b0302191690836001600160501b0316021790555061246a8260200151612f64565b81546001600160581b0391909116600160281b026fffffffffffffffffffffff00000000001990911617815560408201516124a490612f64565b6001820180546affffffffffffffffffffff19166001600160581b039290921691909117905560808201516124d890612f64565b81546001600160581b0391909116600160801b026affffffffffffffffffffff60801b19909116178155606082015161251090612a58565b815463ffffffff91909116600160d81b0263ffffffff60d81b19909116178155821561255c57600061254184610c24565b905061254d8582612f7a565b61255a610fee8683612baa565b505b8361ffff167fef25641e225e493886510ca1ad6584fa7b442b9fea820a29d1de3ce27d270fd28360a001518460c001518560e001516040516125a093929190614c45565b60405180910390a250505050565b6000826125bd575060006109aa565b828202828482816125ca57fe5b0414610ede57600080fd5b6000806109aa6006611b69565b60008082126125f25750806109aa565b825160208401516126099190611e80908590610ff3565b90506109aa565b60006305f5e100836040015114156126295750806109aa565b610ede6305f5e100611e80856040015185610ff390919063ffffffff16565b6000612652612fb1565b83516001600160a01b031660009081526020829052604090205490915080831161267d5750506107a9565b600061268886612dc9565b90506000816001600160a01b031663b5e4da238487036040518263ffffffff1660e01b81526004016126ba9190614c3c565b60006040518083038186803b1580156126d257600080fd5b505afa1580156126e6573d6000803e3d6000fd5b505050506040513d6000823e601f3d908101601f1916820160405261270e919081019061448a565b9050600061271c8783612fbe565b915061272a90508482612f04565b86111561273657600080fd5b5050505050505050565b826001600160a01b031663a9059cbb83836040518363ffffffff1660e01b815260040180836001600160a01b0316815260200182815260200192505050600060405180830381600087803b15801561279757600080fd5b505af11580156127ab573d6000803e3d6000fd5b505050506107a9612ad6565b60008060006127c686856131d5565b509150915060006127d561326b565b6001600160a01b03881660009081526020829052604081209192506127fa858961132f565b90508060001315801561281357506001600160601b0381105b61281c57600080fd5b81546bffffffffffffffffffffffff19166001600160601b038216176fffffffffffffffffffffffffffffffff60601b1916600160601b6001600160801b0386160217825563ffffffff871061287157600080fd5b50805463ffffffff8716600160e01b026001600160e01b03909116179055509150509392505050565b60e08401516000901561295b5773__$b21a4dc043b77aa57922ad9143a3cb040e$__63e0c01a72856128cf8860400151610ae8565b8860e001518961010001516040518563ffffffff1660e01b81526004016128f994939291906149fe565b60206040518083038186803b15801561291157600080fd5b505af4158015612925573d6000803e3d6000fd5b505050506040513d601f19601f8201168201806040525081019061294991906147d2565b600060e0870181905261010087015290505b61299d612996866101000151612990670de0b6b3a764000061298a886129848c60400151610ae8565b906125ae565b90613278565b90612b43565b8290612f04565b90506129b5670de0b6b3a764000061298a84866125ae565b85610100018181525050949350505050565b6000806129d2611b82565b6001600160a01b0384166000908152602082905260409020805491925090600160f81b900460ff1615612a2e57612a07613297565b6001600160a01b0380861660009081526020929092526040909120541692506108b1915050565b6000925050506108b1565b61049873c5e91b01f9b23952821410be7aa3c45b6429c6708383612740565b600063ffffffff821115610af757600080fd5b60006001600160501b03821115610af757600080fd5b6000612a8d86836132a4565b9050611938868686612a9f87866132e3565b61336a565b60006a7fffffffffffffffffffff198212801590612acd57506a7fffffffffffffffffffff8213155b610af757600080fd5b6000612ae0614197565b3d8015612af45760208114612afd57600080fd5b60019250612b08565b60206000833e815192505b5081610498576040805162461bcd60e51b8152602060048201526005602482015264045524332360dc1b604482015290519081900360640190fd5b600082821115612b5257600080fd5b50900390565b60006305f5e10083604001511415612b715750806109aa565b6040830151610ede90611e80846305f5e100610ff3565b8151600090610ede90611e80846ec097ce7bc90715b34b9f1000000000610ff3565b6000612bb461339e565b61ffff8416600090815260209190915260409081902054905163ad1c095d60e01b81526001600160a01b039091169150819063ad1c095d90612bfc908790869060040161495b565b600060405180830381600087803b158015612c1657600080fd5b505af1158015612736573d6000803e3d6000fd5b6000612c34611e39565b61ffff8516600090815260209190915260409020805490915064ffffffffff164214612c5f57600080fd5b8054600090612c7e90600160281b90046001600160581b03168561132f565b8254909150600090612ca090600160801b90046001600160581b03168561132f565b905080624c4b401315612cb257600080fd5b612cc3612cbe82610ae8565b612f64565b83546001600160581b0391909116600160801b026affffffffffffffffffffff60801b19909116178355612cf9612cbe83610ae8565b83546001600160581b0391909116600160281b026fffffffffffffffffffffff000000000019909116178355612d2e836133ab565b505050505050565b6000612d40612fb1565b6001600160a01b038416600090815260208290526040902054909150612d69610385828561132f565b6001600160a01b03909416600090815260209290925250604090209190915550565b600081600019148015612da15750600160ff1b83145b15612dab57600080fd5b818381612db457fe5b059392505050565b6000806109aa6007611b69565b600080612dd4613476565b61ffff939093166000908152602093909352505060409020546001600160a01b031690565b600080600080600080612e0c8988613483565b89519095509193509150600090612e3390612e28908b90612b43565b633b9aca00906125ae565b9050612e6d612e626301da9c00612e4a85856125ae565b81612e5157fe5b670de0b6b3a7640000919004612f04565b60e08a015190612f33565b9650612e8f612e846301da9c00612e4a87856125ae565b60c08a015190612f33565b955081831415612ea6575060009350612efb915050565b6000612ec8612ebd6301da9c00612e4a87866125ae565b60e08b015190612f33565b90506000612ed68983612b43565b9050612ef38861298a838d604001516125ae90919063ffffffff16565b965050505050505b93509350935093565b600082820183811015610ede57600080fd5b6000610ede612f2d84670de0b6b3a76400006125ae565b83613278565b6000610ede612f4284846125ae565b670de0b6b3a7640000613278565b600064ffffffffff821115610af757600080fd5b60006001600160581b03821115610af757600080fd5b6000811215612f8857600080fd5b6000612f96610fee8461351d565b9050612fa2818361132f565b90506107a9610fee8483613576565b6000806109aa6026611b69565b60008060005b83518110156131cd576000848281518110612fdb57fe5b60200260200101519050600081606001516001600160a01b03166370a08231306040518263ffffffff1660e01b81526004016130179190614868565b60206040518083038186803b15801561302f57600080fd5b505afa158015613043573d6000803e3d6000fd5b505050506040513d601f19601f8201168201806040525081019061306791906147d2565b9050600061307588306135ea565b905060005b8351518110156130d1576130c08460000151828151811061309757fe5b60200260200101516000866020015184815181106130b157fe5b60200260200101516001613694565b6130c957600196505b60010161307a565b5060006130de89306135ea565b905060006130ec8284612b43565b905080856040015111156130ff57600080fd5b60608501516040516370a0823160e01b81526000916001600160a01b0316906370a0823190613132903090600401614868565b60206040518083038186803b15801561314a57600080fd5b505afa15801561315e573d6000803e3d6000fd5b505050506040513d601f19601f8201168201806040525081019061318291906147d2565b90508481111561319157600080fd5b6131a086606001518683613902565b6131aa8883612f04565b97506131bb8b600001518585613902565b505060019094019350612fc492505050565b509250929050565b60008060006131e38561397f565b9194509250905080841180156131f95750600081115b80156132055750600083115b1561326457600061321586611204565b50505091505060006132406132376305f5e100846125ae90919063ffffffff16565b848803876139db565b905061324c8482612f04565b93506001600160801b03841061326157600080fd5b50505b9250925092565b6000806109aa6011611b69565b600080821161328657600080fd5b81838161328f57fe5b049392505050565b6000806109aa6012611b69565b6000808212156132dd576132d860016132d28560200151611e80876000015187610ff390919063ffffffff16565b906139fd565b610ede565b50919050565b600081831480613300575060008312158015613300575060008212155b1561330d575060006109aa565b6000831315801561331e5750816000125b1561332a5750816109aa565b6000821315801561333b5750826000125b15613349576126098261099c565b6000831315801561335b575060008213155b1561009c5761260983836139fd565b8015610996578351602085015160009161338991611e80908590610ff3565b905061339784848484613a13565b5050505050565b6000806109aa6021611b69565b805460028201546000916133ed91600160281b9091046001600160581b0316906133e7906001600160501b03600160501b820481169116610ff3565b90610ff3565b60018301546002840154919250600091613427916001600160581b0316906133e7906001600160501b03600160a01b820481169116610ff3565b835490915060009061345e9060016001600160581b03600160801b909204821601166ec097ce7bc90715b34b9f1000000000610ff3565b90508061346b84846139fd565b131561099657600080fd5b6000806109aa601f611b69565b6000806000806000856020015111156134d0576134cd6134b48660c0015187602001516125ae90919063ffffffff16565b60e087015160408801516134c7916125ae565b90613b59565b90505b60006134db87613b6c565b90506134e78183613b9f565b945081156134fe576134fb81866001613c58565b93505b602086015115613261576135128583613cc9565b925050509250925092565b6000806135286125d5565b6001600160a01b03851660009081526020828152604080832061ffff8816845290915281208054600160a81b9004600a90810b900b945091925083121561356e57600080fd5b505092915050565b600081121561358457600080fd5b600061358e6125d5565b6001600160a01b03851660009081526020828152604080832061ffff8816845290915290209091506135bf83612aa4565b8154600a9190910b6001600160581b0316600160a81b026001600160a81b0390911617905550505050565b60006003836060015160058111156135fe57fe5b141561361557506001600160a01b038116316109aa565b82516040516370a0823160e01b81526001600160a01b03909116906370a0823190613644908590600401614868565b60206040518083038186803b15801561365c57600080fd5b505afa158015613670573d6000803e3d6000fd5b505050506040513d601f19601f8201168201806040525081019061260991906147d2565b6000806000866001600160a01b031686866040518082805190602001908083835b602083106136d45780518252601f1990920191602091820191016136b5565b6001836020036101000a03801982511681845116808217855250505050505090500191505060006040518083038185875af1925050503d8060008114613736576040519150601f19603f3d011682016040523d82523d6000602084013e61373b565b606091505b5091509150836137de578161374f82613ce2565b906137d85760405162461bcd60e51b81526004018080602001828103825283818151815260200191508051906020019080838360005b8381101561379d578181015183820152602001613785565b50505050905090810190601f1680156137ca5780820380516001836020036101000a031916815260200191505b509250505060405180910390fd5b50611e2f565b866001600160a01b03167f3c7e398c5e91088cae639370e35b25ea669d81fbdf0def5388e73661bc34e08e878761381485613ce2565b604051808481526020018060200180602001838103835285818151815260200191508051906020019080838360005b8381101561385b578181015183820152602001613843565b50505050905090810190601f1680156138885780820380516001836020036101000a031916815260200191505b50838103825284518152845160209182019186019080838360005b838110156138bb5781810151838201526020016138a3565b50505050905090810190601f1680156138e85780820380516001836020036101000a031916815260200191505b509550505050505060405180910390a25095945050505050565b600061390c612fb1565b6001600160a01b0385166000908152602082905260409020549091508381111561393557600080fd5b600061394c61394386610c24565b6132d286610c24565b905061395b610385838361132f565b6001600160a01b039096166000908152602093909352505060409020929092555050565b60008060008061398d61326b565b6001600160a01b0395909516600090815260209590955250506040909220546001600160601b03811693600160601b82046001600160801b03169350600160e01b90910463ffffffff169150565b60006109c38261298a6301da9c00818861298489670de0b6b3a76400006125ae565b808203828113156000831215146109aa57600080fd5b6000613a1d611e39565b61ffff8516600090815260209190915260409020805490915064ffffffffff164214613a4857600080fd5b8054600160f81b900460ff16613a5d57600080fd5b6001810154600090613a78906001600160581b03168561132f565b8254909150600090613a9a90600160281b90046001600160581b03168561132f565b905081600919128015613aad5750600082125b15613ab757600091505b80600919128015613ac85750600081125b15613ad1575060005b613add612cbe83610ae8565b6001840180546affffffffffffffffffffff19166001600160581b0392909216919091179055613b0f612cbe82610ae8565b83546001600160581b0391909116600160281b026fffffffffffffffffffffff000000000019909116178355613b4787878688613de9565b613b50836133ab565b50505050505050565b6000610ede612f2d84633b9aca006125ae565b613b746141b5565b6000613b7e613efd565b61ffff84166000908152602091909152604081205491506108ad9082613f0a565b600080836080015111613bb157600080fd5b633b9aca00821115613bc257600080fd5b82518211613be15782516040840151612609919061298a9085906125ae565b82602001518211613c1f5760408301518351602085015160608601516126099392613c19928190039161298a918803908590036125ae565b90612f04565b610ede8360600151613c198560200151633b9aca000361298a8760600151886080015103886020015188036125ae90919063ffffffff16565b600080613c77606461298a8760e00151876125ae90919063ffffffff16565b90508460a00151811015613c8c575060a08401515b8460c00151811115613c9f575060c08401515b8215613caf57610ed98482612f04565b838111613cbe57808403610ed9565b600095945050505050565b6000610ede613cd884846125ae565b633b9aca00613278565b6060604482511015613d18575060408051808201909152600d81526c14da5b195b9d0814995d995c9d609a1b60208201526108b1565b6004820180519092602401906020811015613d3257600080fd5b8101908080516040519392919084640100000000821115613d5257600080fd5b908301906020820185811115613d6757600080fd5b8251640100000000811182820188101715613d8157600080fd5b82525081516020918201929091019080838360005b83811015613dae578181015183820152602001613d96565b50505050905090810190601f168015613ddb5780820380516001836020036101000a031916815260200191505b506040525050509050919050565b6000613df361339e565b61ffff8516600090815260209190915260408120546001600160a01b03169150613e1b614029565b61ffff8616600090815260209190915260409081902054905163ad1c095d60e01b81526001600160a01b039091169150819063ad1c095d90613e63908990879060040161495b565b600060405180830381600087803b158015613e7d57600080fd5b505af1158015613e91573d6000803e3d6000fd5b505060405163ad1c095d60e01b81526001600160a01b038516925063ad1c095d9150613ec3908990889060040161495b565b600060405180830381600087803b158015613edd57600080fd5b505af1158015613ef1573d6000803e3d6000fd5b50505050505050505050565b6000806109aa601b611b69565b613f126141b5565b6064633b9aca008360ff861660208110613f2857fe5b1a0281613f3157fe5b0481526064633b9aca008360ff861660010160208110613f4d57fe5b1a0281613f5657fe5b04816020018181525050613f7b8260028560ff160160208110613f7557fe5b1a614036565b60808201819052610100908360ff861660030160208110613f9857fe5b1a0281613fa157fe5b0460408201526080810151610100908360ff861660040160208110613fc257fe5b1a0281613fcb57fe5b0460608201526207a1208260ff851660050160208110613fe757fe5b1a0260a0820152622625a08260ff85166006016020811061400457fe5b1a0260c08201528160ff84166007016020811061401d57fe5b1a60e082015292915050565b6000806109aa6022611b69565b60008160ff166096106140515760ff8216622625a0026109aa565b5060951960ff919091160162e4e1c00263165a0bc00190565b604051806101400160405280600061ffff16815260200160008152602001600081526020016000815260200160008152602001600081526020016000815260200160008152602001600081526020016140c16140fb565b905290565b6040805160c081018252600080825260208201819052918101829052606081018290526080810182905260a081019190915290565b60405180606001604052806000815260200160008152602001600081525090565b6040805160a0810182526000808252602082018190529181018290529060608201908152602001600081525090565b6040518061012001604052806000815260200160008152602001600081526020016000815260200160008152602001600081526020016000815260200160008152602001600081525090565b60405180602001604052806001906020820280368337509192915050565b60405180610100016040528060008152602001600081526020016000815260200160008152602001600081526020016000815260200160008152602001600081525090565b80516108b181614c9d565b600082601f830112614215578081fd5b8151602061422a61422583614c7f565b614c5b565b8281528181019085830183850287018401881015614246578586fd5b855b8581101561426d57815161425b81614c9d565b84529284019290840190600101614248565b5090979650505050505050565b6000601f838184011261428b578182fd5b8251602061429b61422583614c7f565b82815281810190868301865b8581101561433f57815189018a603f8201126142c1578889fd5b8581015167ffffffffffffffff8111156142d757fe5b6142e8818a01601f19168801614c5b565b8181528c60408385010111156142fc578a8bfd5b8a5b8281101561431a57838101604001518282018a015288016142fe565b8281111561432a578b8984840101525b508652505092840192908401906001016142a7565b509098975050505050505050565b80516108b181614cb5565b80516001600160701b0319811681146108b157600080fd5b80516001600160f81b0319811681146108b157600080fd5b8051600481106108b157600080fd5b80516108b181614cc3565b805160ff811681146108b157600080fd5b6000602082840312156143c4578081fd5b8135610ede81614c9d565b6000806000606084860312156143e3578182fd5b83356143ee81614c9d565b925060208401356143fe81614cc3565b929592945050506040919091013590565b600080600080600060a08688031215614426578283fd5b853561443181614c9d565b9450602086013561444181614cc3565b935060408601356001600160601b038116811461445c578384fd5b9250606086013561446c81614cb5565b9150608086013561447c81614cb5565b809150509295509295909350565b6000602080838503121561449c578182fd5b825167ffffffffffffffff808211156144b3578384fd5b818501915085601f8301126144c6578384fd5b81516144d461422582614c7f565b81815284810190848601875b8481101561458957815187016080818d03601f190112156144ff57898afd5b60408051608081018181108a8211171561451557fe5b8252828b015189811115614527578c8dfd5b6145358f8d83870101614205565b8252508183015189811115614548578c8dfd5b6145568f8d8387010161427a565b8c83015250606083015182820152614570608084016141fa565b60608201528652505092870192908701906001016144e0565b50909998505050505050505050565b6000602082840312156145a9578081fd5b8135610ede81614cb5565b60008060408084860312156145c7578283fd5b8351925060208085015167ffffffffffffffff808211156145e6578485fd5b818701915087601f8301126145f9578485fd5b815161460761422582614c7f565b8181528481019084860160c0808502870188018d101561462557898afd5b8996505b848710156146ac5780828e03121561463f57898afd5b8851818101818110888211171561465257fe5b8a52825161465f81614cc3565b81528289015189820152898301518a820152606080840151908201526080808401519082015260a0614692818501614388565b908201528452600196909601959287019290810190614629565b50989b909a5098505050505050505050565b600060c082840312156146cf578081fd5b60405160c0810181811067ffffffffffffffff821117156146ec57fe5b604052825164ffffffffff81168114614703578283fd5b815261471160208401614370565b6020820152614722604084016143a2565b604082015261473360608401614397565b606082015261474460808401614358565b608082015261475560a0840161434d565b60a08201529392505050565b600060208284031215614772578081fd5b8135610ede81614cc3565b600080600060608486031215614791578081fd5b833561479c81614cc3565b925060208401356001600160581b03811681146147b7578182fd5b915060408401356147c781614cb5565b809150509250925092565b6000602082840312156147e3578081fd5b5051919050565b600080604083850312156147fc578182fd5b505080516020909101519092909150565b805164ffffffffff1682526020808201516001600160f81b0319169083015260408082015160ff169083015260608082015161ffff16908301526080808201516001600160701b0319169083015260a0908101511515910152565b6001600160a01b0391909116815260200190565b6001600160a01b03948516815292841660208401529083166040830152909116606082015260800190565b600061012080830160018060a01b038089168552602081891681870152604091506148d48287018961480d565b61010086019390935285519182905261014085019280870192855b8181101561494b578451805161ffff16875283810151848801528481015185880152606080820151908801526080808201519088015260a090810151906004821061493657fe5b87015260c090950194938201936001016148ef565b50939a9950505050505050505050565b6001600160a01b03929092168252602082015260400190565b6001600160a01b038316815260e08101610ede602083018461480d565b6001600160a01b0395909516855261ffff9390931660208501526040840191909152151560608301521515608082015260a00190565b6001600160a01b0396909616865261ffff94909416602086015260408501929092526060840152608083015260a082015260c00190565b6001600160a01b0394909416845260208401929092526040830152606082015260800190565b901515815260200190565b9182521515602082015260400190565b6020808252600f908201526e04f76657220537570706c792043617608c1b604082015260600190565b6020808252600b908201526a4554482042616c616e636560a81b604082015260600190565b60208082526006908201526552656465656d60d01b604082015260600190565b60208082526012908201527143616e6e6f7420686176652061737365747360701b604082015260600190565b6020808252601390820152722ab730baba3437b934bd32b21031b0b63632b960691b604082015260600190565b6020808252600f908201526e4e6f205072696d6520426f72726f7760881b604082015260600190565b6020808252601c908201527f446570726563617465643a2052656465656d20746f2063546f6b656e00000000604082015260600190565b602080825260149082015273043616e6e6f74206368616e6765206269746d61760641b604082015260600190565b60208082526010908201526f10d85b9b9bdd081a185d99481919589d60821b604082015260600190565b6020808252600a90820152692732b390372a37b5b2b760b11b604082015260600190565b602080825260139082015272125b9d985b1a590818dd5c9c995b98de481a59606a1b604082015260600190565b602080825260139082015272496e73756666696369656e7420746f6b656e7360681b604082015260600190565b90815260200190565b9283526020830191909152604082015260600190565b60405181810167ffffffffffffffff81118282101715614c7757fe5b604052919050565b600067ffffffffffffffff821115614c9357fe5b5060209081020190565b6001600160a01b0381168114614cb257600080fd5b50565b8015158114614cb257600080fd5b61ffff81168114614cb257600080fdfea264697066735822122087ee8695c3ed05be3eb5961f96d6433316b841cac2378aa2683cf4c1a15307fa64736f6c63430007060033","language":"Solidity","natspec":{"kind":"dev","methods":{"depositAssetToken(address,uint16,uint256)":{"details":"emit:CashBalanceChange emit:AccountContextUpdateauth:none","notice":"DEPRECATED: deposits deprecated cTokens tokens as collateral into an account that were listed prior to the migration to prime cash. Future listed tokens will not have asset tokens and will revert in this method.","params":{"account":"the account to deposit into","amountExternalPrecision":"the amount of asset tokens in its native decimal precision (i.e. 8 decimals for cTokens).","currencyId":"currency id of the asset token"},"returns":{"_0":"asset tokens minted and deposited to the account in internal decimals (8)"}},"depositUnderlyingToken(address,uint16,uint256)":{"details":"emit:CashBalanceChange emit:AccountContextUpdateauth:none","notice":"Deposits and wraps the underlying token for a particular cToken. Does not settle assets or check free collateral, idea is to be as gas efficient as possible during potential liquidation events.","params":{"account":"the account to deposit into","amountExternalPrecision":"the amount of underlying tokens in its native decimal precision (i.e. 18 decimals for DAI or 6 decimals for USDC). This will be converted to 8 decimals during transfer.","currencyId":"currency id of the asset token that wraps this underlying"},"returns":{"_0":"asset tokens minted and deposited to the account in internal decimals (8)"}},"enableBitmapCurrency(uint16)":{"details":"emit:AccountSettled emit:AccountContextUpdateauth:msg.sender","notice":"Enables a bitmap currency for msg.sender, account cannot have any assets when this call occurs. Will revert if the account already has a bitmap currency set.","params":{"currencyId":"the currency to enable the bitmap for."}},"enablePrimeBorrow(bool)":{"details":"emit:AccountSettled emit:AccountContextUpdateauth:msg.sender","notice":"A per account setting that allows it to borrow prime cash (i.e. incur negative cash) as a result of account initiated actions. Accounts can still incur negative cash as a result of fCash settlement regardless of this setting.","params":{"allowPrimeBorrow":"true if the account can borrow prime cash"}},"getLibInfo()":{"notice":"Get a list of deployed library addresses (sorted by library name)"},"nTokenRedeem(address,uint16,uint96,bool,bool)":{"details":"auth:msg.sender auth:ERC1155","notice":"Allows accounts to redeem nTokens into constituent assets and then absorb the assets into their portfolio. Due to the complexity here, it is not allowed to be called during a batch trading operation and must be done separately.","params":{"acceptResidualAssets":"if true, will place any residual fCash that could not be sold (either due to slippage or because it was idiosyncratic) into the account's portfolio","currencyId":"the currency associated the nToken","redeemer":"the address that holds the nTokens to redeem","sellTokenAssets":"attempt to sell residual fCash and convert to cash","tokensToRedeem_":"the amount of nTokens to convert to cash"},"returns":{"_0":"total amount of asset cash redeemed","_1":"true or false if there were residuals that were placed into the portfolio"}},"settleAccount(address)":{"details":"emit:AccountSettled emit:AccountContextUpdateauth:none","notice":"Method for manually settling an account, generally should not be called because other methods will check if an account needs to be settled automatically. If a bitmap account has debt and is settled via this method, the hasDebt flag will not be cleared until a free collateral check is performed on the account.","params":{"account":"the account to settle"},"returns":{"_0":"returns true if account has been settled"}},"withdraw(uint16,uint88,bool)":{"details":"emit:CashBalanceChange emit:AccountContextUpdateauth:msg.sender","notice":"Withdraws balances from Notional, may also redeem to underlying tokens on user request. Will settle and do free collateral checks if required. Can only be called by msg.sender, operators who want to withdraw for an account must do an authenticated call via ERC1155Action `safeTransferFrom` or `safeBatchTransferFrom`","params":{"amountInternalPrecision":"the amount of cash balance in internal 8 decimal precision to withdraw, this is be denominated in prime cash. If set to uint88 max, will withdraw an entire cash balance.","currencyId":"currency id of the asset token","redeemToUnderlying":"DEPRECATED except for ETH balances. Prior to the prime cash upgrade, accounts could withdraw cTokens directly. However, post prime cash migration this is no longer the case. If withdrawing ETH, setting redeemToUnderlying to false will redeem ETH as WETH."},"returns":{"_0":"the amount of tokens received by the account denominated in the destination token precision (if"}}},"version":1},"opcodes":"PUSH1 0x80 PUSH1 0x40 MSTORE PUSH1 0x4 CALLDATASIZE LT PUSH2 0x9C JUMPI PUSH1 0x0 CALLDATALOAD PUSH1 0xE0 SHR DUP1 PUSH4 0x82463367 GT PUSH2 0x64 JUMPI DUP1 PUSH4 0x82463367 EQ PUSH2 0x15C JUMPI DUP1 PUSH4 0x8DA5CB5B EQ PUSH2 0x171 JUMPI DUP1 PUSH4 0x9C979450 EQ PUSH2 0x186 JUMPI DUP1 PUSH4 0xB8A69455 EQ PUSH2 0x1A6 JUMPI DUP1 PUSH4 0xC4C96DAE EQ PUSH2 0x1C6 JUMPI DUP1 PUSH4 0xF667F897 EQ PUSH2 0x1EB JUMPI PUSH2 0x9C JUMP JUMPDEST DUP1 PUSH4 0x2F332E8 EQ PUSH2 0xA1 JUMPI DUP1 PUSH4 0x24A3D622 EQ PUSH2 0xD7 JUMPI DUP1 PUSH4 0x2890FB65 EQ PUSH2 0xF9 JUMPI DUP1 PUSH4 0x61D0D61C EQ PUSH2 0x10C JUMPI DUP1 PUSH4 0x66890643 EQ PUSH2 0x12E JUMPI JUMPDEST PUSH1 0x0 DUP1 REVERT JUMPDEST CALLVALUE DUP1 ISZERO PUSH2 0xAD JUMPI PUSH1 0x0 DUP1 REVERT JUMPDEST POP PUSH2 0xC1 PUSH2 0xBC CALLDATASIZE PUSH1 0x4 PUSH2 0x477D JUMP JUMPDEST PUSH2 0x218 JUMP JUMPDEST PUSH1 0x40 MLOAD PUSH2 0xCE SWAP2 SWAP1 PUSH2 0x4C3C JUMP JUMPDEST PUSH1 0x40 MLOAD DUP1 SWAP2 SUB SWAP1 RETURN JUMPDEST CALLVALUE DUP1 ISZERO PUSH2 0xE3 JUMPI PUSH1 0x0 DUP1 REVERT JUMPDEST POP PUSH2 0xEC PUSH2 0x39A JUMP JUMPDEST PUSH1 0x40 MLOAD PUSH2 0xCE SWAP2 SWAP1 PUSH2 0x4868 JUMP JUMPDEST PUSH2 0xC1 PUSH2 0x107 CALLDATASIZE PUSH1 0x4 PUSH2 0x43CF JUMP JUMPDEST PUSH2 0x3A9 JUMP JUMPDEST CALLVALUE DUP1 ISZERO PUSH2 0x118 JUMPI PUSH1 0x0 DUP1 REVERT JUMPDEST POP PUSH2 0x12C PUSH2 0x127 CALLDATASIZE PUSH1 0x4 PUSH2 0x4598 JUMP JUMPDEST PUSH2 0x462 JUMP JUMPDEST STOP JUMPDEST CALLVALUE DUP1 ISZERO PUSH2 0x13A JUMPI PUSH1 0x0 DUP1 REVERT JUMPDEST POP PUSH2 0x14E PUSH2 0x149 CALLDATASIZE PUSH1 0x4 PUSH2 0x440F JUMP JUMPDEST PUSH2 0x49C JUMP JUMPDEST PUSH1 0x40 MLOAD PUSH2 0xCE SWAP3 SWAP2 SWAP1 PUSH2 0x4A2F JUMP JUMPDEST CALLVALUE DUP1 ISZERO PUSH2 0x168 JUMPI PUSH1 0x0 DUP1 REVERT JUMPDEST POP PUSH2 0xEC PUSH2 0x73B JUMP JUMPDEST CALLVALUE DUP1 ISZERO PUSH2 0x17D JUMPI PUSH1 0x0 DUP1 REVERT JUMPDEST POP PUSH2 0xEC PUSH2 0x74A JUMP JUMPDEST CALLVALUE DUP1 ISZERO PUSH2 0x192 JUMPI PUSH1 0x0 DUP1 REVERT JUMPDEST POP PUSH2 0x12C PUSH2 0x1A1 CALLDATASIZE PUSH1 0x4 PUSH2 0x4761 JUMP JUMPDEST PUSH2 0x761 JUMP JUMPDEST CALLVALUE DUP1 ISZERO PUSH2 0x1B2 JUMPI PUSH1 0x0 DUP1 REVERT JUMPDEST POP PUSH2 0xC1 PUSH2 0x1C1 CALLDATASIZE PUSH1 0x4 PUSH2 0x43CF JUMP JUMPDEST PUSH2 0x7AE JUMP JUMPDEST CALLVALUE DUP1 ISZERO PUSH2 0x1D2 JUMPI PUSH1 0x0 DUP1 REVERT JUMPDEST POP PUSH2 0x1DB PUSH2 0x828 JUMP JUMPDEST PUSH1 0x40 MLOAD PUSH2 0xCE SWAP5 SWAP4 SWAP3 SWAP2 SWAP1 PUSH2 0x487C JUMP JUMPDEST CALLVALUE DUP1 ISZERO PUSH2 0x1F7 JUMPI PUSH1 0x0 DUP1 REVERT JUMPDEST POP PUSH2 0x20B PUSH2 0x206 CALLDATASIZE PUSH1 0x4 PUSH2 0x43B3 JUMP JUMPDEST PUSH2 0x882 JUMP JUMPDEST PUSH1 0x40 MLOAD PUSH2 0xCE SWAP2 SWAP1 PUSH2 0x4A24 JUMP JUMPDEST PUSH1 0x0 PUSH1 0x2 PUSH1 0xA SLOAD EQ ISZERO PUSH2 0x22A JUMPI PUSH1 0x0 DUP1 REVERT JUMPDEST PUSH1 0x2 PUSH1 0xA SSTORE PUSH2 0xFFFF DUP5 AND PUSH1 0x1 EQ PUSH2 0x261 JUMPI DUP2 PUSH2 0x261 JUMPI PUSH1 0x40 MLOAD PUSH3 0x461BCD PUSH1 0xE5 SHL DUP2 MSTORE PUSH1 0x4 ADD PUSH2 0x258 SWAP1 PUSH2 0x4B2F JUMP JUMPDEST PUSH1 0x40 MLOAD DUP1 SWAP2 SUB SWAP1 REVERT JUMPDEST PUSH1 0x0 PUSH2 0x26C CALLER PUSH2 0x8B6 JUMP JUMPDEST POP SWAP1 POP PUSH2 0x277 PUSH2 0x406A JUMP JUMPDEST PUSH2 0x283 DUP2 CALLER DUP9 DUP6 PUSH2 0x97B JUMP JUMPDEST PUSH1 0x1 PUSH1 0x1 PUSH1 0x58 SHL SUB DUP6 DUP2 AND EQ ISZERO PUSH2 0x2BC JUMPI PUSH1 0x0 DUP2 PUSH1 0x20 ADD MLOAD SGT PUSH2 0x2A5 JUMPI PUSH1 0x0 DUP1 REVERT JUMPDEST PUSH2 0x2B2 DUP2 PUSH1 0x20 ADD MLOAD PUSH2 0x99C JUMP JUMPDEST PUSH1 0x80 DUP3 ADD MSTORE PUSH2 0x2D4 JUMP JUMPDEST PUSH2 0x2CE DUP6 PUSH1 0x1 PUSH1 0x1 PUSH1 0x58 SHL SUB AND PUSH2 0x99C JUMP JUMPDEST PUSH1 0x80 DUP3 ADD MSTORE JUMPDEST PUSH1 0x0 PUSH2 0x2E3 DUP3 CALLER DUP6 DUP9 ISZERO PUSH2 0x9B0 JUMP JUMPDEST SWAP1 POP PUSH2 0x2EF DUP4 CALLER PUSH2 0x9CB JUMP JUMPDEST PUSH1 0x20 DUP4 ADD MLOAD PUSH1 0x1 PUSH1 0x1 PUSH1 0xF8 SHL SUB NOT AND ISZERO PUSH2 0x36B JUMPI PUSH1 0x40 MLOAD PUSH4 0x6CCC642F PUSH1 0xE0 SHL DUP2 MSTORE PUSH20 0x0 SWAP1 PUSH4 0x6CCC642F SWAP1 PUSH2 0x33A SWAP1 CALLER SWAP1 PUSH1 0x4 ADD PUSH2 0x4868 JUMP JUMPDEST PUSH1 0x0 PUSH1 0x40 MLOAD DUP1 DUP4 SUB DUP2 DUP7 DUP1 EXTCODESIZE ISZERO DUP1 ISZERO PUSH2 0x352 JUMPI PUSH1 0x0 DUP1 REVERT JUMPDEST POP GAS DELEGATECALL ISZERO DUP1 ISZERO PUSH2 0x366 JUMPI RETURNDATASIZE PUSH1 0x0 DUP1 RETURNDATACOPY RETURNDATASIZE PUSH1 0x0 REVERT JUMPDEST POP POP POP POP JUMPDEST PUSH1 0x0 DUP2 SGT ISZERO PUSH2 0x379 JUMPI PUSH1 0x0 DUP1 REVERT JUMPDEST PUSH2 0x38A PUSH2 0x385 DUP3 PUSH2 0x99C JUMP JUMPDEST PUSH2 0xAE8 JUMP JUMPDEST PUSH1 0x1 PUSH1 0xA SSTORE SWAP8 SWAP7 POP POP POP POP POP POP POP JUMP JUMPDEST PUSH1 0x2 SLOAD PUSH1 0x1 PUSH1 0x1 PUSH1 0xA0 SHL SUB AND DUP2 JUMP JUMPDEST PUSH1 0x0 PUSH1 0x2 PUSH1 0xA SLOAD EQ ISZERO PUSH2 0x3BB JUMPI PUSH1 0x0 DUP1 REVERT JUMPDEST PUSH1 0x2 PUSH1 0xA SSTORE CALLER ADDRESS EQ ISZERO PUSH2 0x3CD JUMPI PUSH1 0x0 DUP1 REVERT JUMPDEST CALLER PUSH1 0x1 PUSH1 0x1 PUSH1 0xA0 SHL SUB DUP6 AND EQ PUSH2 0x3E2 JUMPI PUSH1 0x0 DUP1 REVERT JUMPDEST PUSH2 0x3EB DUP5 PUSH2 0xAFB JUMP JUMPDEST PUSH1 0x0 PUSH2 0x3F6 DUP6 PUSH2 0xB76 JUMP JUMPDEST SWAP1 POP PUSH2 0x400 PUSH2 0x406A JUMP JUMPDEST PUSH2 0x40C DUP2 DUP8 DUP8 DUP6 PUSH2 0x97B JUMP JUMPDEST PUSH1 0x0 PUSH2 0x425 DUP8 PUSH2 0x41B DUP8 PUSH2 0xC24 JUMP JUMPDEST DUP5 SWAP2 SWAP1 PUSH1 0x0 PUSH2 0xC3A JUMP JUMPDEST SWAP1 POP PUSH1 0x0 DUP2 SGT PUSH2 0x434 JUMPI PUSH1 0x0 DUP1 REVERT JUMPDEST PUSH2 0x43F DUP3 DUP9 DUP6 PUSH2 0xC8C JUMP JUMPDEST PUSH2 0x449 DUP4 DUP9 PUSH2 0x9CB JUMP JUMPDEST PUSH2 0x120 DUP3 ADD MLOAD PUSH2 0x459 SWAP1 DUP8 PUSH2 0xCAA JUMP JUMPDEST PUSH2 0x38A DUP2 PUSH2 0xAE8 JUMP JUMPDEST CALLER ADDRESS EQ ISZERO PUSH2 0x46F JUMPI PUSH1 0x0 DUP1 REVERT JUMPDEST PUSH2 0x478 CALLER PUSH2 0xAFB JUMP JUMPDEST PUSH1 0x0 PUSH2 0x483 CALLER PUSH2 0x8B6 JUMP JUMPDEST POP DUP3 ISZERO ISZERO PUSH1 0xA0 DUP3 ADD MSTORE SWAP1 POP PUSH2 0x498 DUP2 CALLER PUSH2 0x9CB JUMP JUMPDEST POP POP JUMP JUMPDEST PUSH1 0x0 DUP1 PUSH1 0x2 PUSH1 0xA SLOAD EQ ISZERO PUSH2 0x4AF JUMPI PUSH1 0x0 DUP1 REVERT JUMPDEST PUSH1 0x2 PUSH1 0xA SSTORE CALLER PUSH1 0x1 PUSH1 0x1 PUSH1 0xA0 SHL SUB DUP9 AND EQ DUP1 PUSH2 0x4CA JUMPI POP CALLER ADDRESS EQ JUMPDEST PUSH2 0x4E6 JUMPI PUSH1 0x40 MLOAD PUSH3 0x461BCD PUSH1 0xE5 SHL DUP2 MSTORE PUSH1 0x4 ADD PUSH2 0x258 SWAP1 PUSH2 0x4AD9 JUMP JUMPDEST PUSH1 0x1 PUSH1 0x1 PUSH1 0x60 SHL SUB DUP6 AND PUSH1 0x0 PUSH2 0x4FB DUP10 PUSH2 0x8B6 JUMP JUMPDEST POP SWAP1 POP PUSH2 0x506 PUSH2 0x406A JUMP JUMPDEST PUSH2 0x512 DUP2 DUP12 DUP12 DUP6 PUSH2 0x97B JUMP JUMPDEST DUP3 DUP2 PUSH1 0x40 ADD MLOAD SLT ISZERO PUSH2 0x536 JUMPI PUSH1 0x40 MLOAD PUSH3 0x461BCD PUSH1 0xE5 SHL DUP2 MSTORE PUSH1 0x4 ADD PUSH2 0x258 SWAP1 PUSH2 0x4C0F JUMP JUMPDEST PUSH2 0x53F DUP4 PUSH2 0x99C JUMP JUMPDEST PUSH1 0xC0 DUP3 ADD MSTORE PUSH1 0x40 MLOAD PUSH4 0xB853E457 PUSH1 0xE0 SHL DUP2 MSTORE PUSH1 0x0 SWAP1 DUP2 SWAP1 PUSH20 0x0 SWAP1 PUSH4 0xB853E457 SWAP1 PUSH2 0x588 SWAP1 DUP16 SWAP1 DUP16 SWAP1 DUP11 SWAP1 DUP16 SWAP1 DUP16 SWAP1 PUSH1 0x4 ADD PUSH2 0x4991 JUMP JUMPDEST PUSH1 0x0 PUSH1 0x40 MLOAD DUP1 DUP4 SUB DUP2 DUP7 DUP1 EXTCODESIZE ISZERO DUP1 ISZERO PUSH2 0x5A0 JUMPI PUSH1 0x0 DUP1 REVERT JUMPDEST POP GAS DELEGATECALL ISZERO DUP1 ISZERO PUSH2 0x5B4 JUMPI RETURNDATASIZE PUSH1 0x0 DUP1 RETURNDATACOPY RETURNDATASIZE PUSH1 0x0 REVERT JUMPDEST POP POP POP POP PUSH1 0x40 MLOAD RETURNDATASIZE PUSH1 0x0 DUP3 RETURNDATACOPY PUSH1 0x1F RETURNDATASIZE SWAP1 DUP2 ADD PUSH1 0x1F NOT AND DUP3 ADD PUSH1 0x40 MSTORE PUSH2 0x5DC SWAP2 SWAP1 DUP2 ADD SWAP1 PUSH2 0x45B4 JUMP JUMPDEST PUSH1 0x60 DUP6 ADD DUP3 SWAP1 MSTORE SWAP1 SWAP3 POP SWAP1 POP PUSH2 0x5F3 DUP4 DUP14 DUP7 PUSH2 0xC8C JUMP JUMPDEST DUP1 MLOAD ISZERO PUSH2 0x69C JUMPI PUSH1 0x0 PUSH2 0x609 DUP13 PUSH2 0xFFFF AND PUSH2 0xCEB JUMP JUMPDEST SWAP1 POP PUSH20 0x0 PUSH4 0xC108FC26 DUP15 DUP4 DUP9 DUP7 PUSH1 0x40 MLOAD DUP6 PUSH4 0xFFFFFFFF AND PUSH1 0xE0 SHL DUP2 MSTORE PUSH1 0x4 ADD PUSH2 0x648 SWAP5 SWAP4 SWAP3 SWAP2 SWAP1 PUSH2 0x48A7 JUMP JUMPDEST PUSH1 0xC0 PUSH1 0x40 MLOAD DUP1 DUP4 SUB DUP2 DUP7 DUP1 EXTCODESIZE ISZERO DUP1 ISZERO PUSH2 0x660 JUMPI PUSH1 0x0 DUP1 REVERT JUMPDEST POP GAS DELEGATECALL ISZERO DUP1 ISZERO PUSH2 0x674 JUMPI RETURNDATASIZE PUSH1 0x0 DUP1 RETURNDATACOPY RETURNDATASIZE PUSH1 0x0 REVERT JUMPDEST POP POP POP POP PUSH1 0x40 MLOAD RETURNDATASIZE PUSH1 0x1F NOT PUSH1 0x1F DUP3 ADD AND DUP3 ADD DUP1 PUSH1 0x40 MSTORE POP DUP2 ADD SWAP1 PUSH2 0x698 SWAP2 SWAP1 PUSH2 0x46BE JUMP JUMPDEST SWAP5 POP POP JUMPDEST PUSH2 0x6A6 DUP5 DUP14 PUSH2 0x9CB JUMP JUMPDEST PUSH1 0x20 DUP5 ADD MLOAD PUSH1 0x1 PUSH1 0x1 PUSH1 0xF8 SHL SUB NOT AND ISZERO PUSH2 0x722 JUMPI PUSH1 0x40 MLOAD PUSH4 0x6CCC642F PUSH1 0xE0 SHL DUP2 MSTORE PUSH20 0x0 SWAP1 PUSH4 0x6CCC642F SWAP1 PUSH2 0x6F1 SWAP1 DUP16 SWAP1 PUSH1 0x4 ADD PUSH2 0x4868 JUMP JUMPDEST PUSH1 0x0 PUSH1 0x40 MLOAD DUP1 DUP4 SUB DUP2 DUP7 DUP1 EXTCODESIZE ISZERO DUP1 ISZERO PUSH2 0x709 JUMPI PUSH1 0x0 DUP1 REVERT JUMPDEST POP GAS DELEGATECALL ISZERO DUP1 ISZERO PUSH2 0x71D JUMPI RETURNDATASIZE PUSH1 0x0 DUP1 RETURNDATACOPY RETURNDATASIZE PUSH1 0x0 REVERT JUMPDEST POP POP POP POP JUMPDEST MLOAD PUSH1 0x1 PUSH1 0xA SSTORE SWAP1 SWAP12 SWAP1 ISZERO ISZERO SWAP11 POP SWAP9 POP POP POP POP POP POP POP POP POP JUMP JUMPDEST PUSH1 0x1 SLOAD PUSH1 0x1 PUSH1 0x1 PUSH1 0xA0 SHL SUB AND DUP2 JUMP JUMPDEST PUSH1 0x0 SLOAD PUSH5 0x100000000 SWAP1 DIV PUSH1 0x1 PUSH1 0x1 PUSH1 0xA0 SHL SUB AND DUP2 JUMP JUMPDEST CALLER ADDRESS EQ ISZERO PUSH2 0x76E JUMPI PUSH1 0x0 DUP1 REVERT JUMPDEST PUSH1 0x0 SLOAD PUSH2 0xFFFF SWAP1 DUP2 AND SWAP1 DUP3 AND GT ISZERO PUSH2 0x785 JUMPI PUSH1 0x0 DUP1 REVERT JUMPDEST CALLER PUSH1 0x0 PUSH2 0x791 DUP3 PUSH2 0x8B6 JUMP JUMPDEST POP SWAP1 POP PUSH2 0x79F DUP2 DUP5 TIMESTAMP PUSH2 0xD11 JUMP JUMPDEST PUSH2 0x7A9 DUP2 DUP4 PUSH2 0x9CB JUMP JUMPDEST POP POP POP JUMP JUMPDEST PUSH1 0x0 PUSH1 0x2 PUSH1 0xA SLOAD EQ ISZERO PUSH2 0x7C0 JUMPI PUSH1 0x0 DUP1 REVERT JUMPDEST PUSH1 0x2 PUSH1 0xA SSTORE CALLER ADDRESS EQ ISZERO PUSH2 0x7D2 JUMPI PUSH1 0x0 DUP1 REVERT JUMPDEST CALLER PUSH1 0x1 PUSH1 0x1 PUSH1 0xA0 SHL SUB DUP6 AND EQ PUSH2 0x7E7 JUMPI PUSH1 0x0 DUP1 REVERT JUMPDEST PUSH2 0x7F0 DUP5 PUSH2 0xAFB JUMP JUMPDEST PUSH1 0x0 PUSH2 0x7FB DUP6 PUSH2 0xB76 JUMP JUMPDEST SWAP1 POP PUSH2 0x805 PUSH2 0x406A JUMP JUMPDEST PUSH2 0x811 DUP2 DUP8 DUP8 DUP6 PUSH2 0x97B JUMP JUMPDEST PUSH1 0x0 PUSH2 0x425 DUP8 PUSH2 0x820 DUP8 PUSH2 0xC24 JUMP JUMPDEST DUP5 SWAP2 SWAP1 PUSH2 0xE09 JUMP JUMPDEST PUSH20 0x0 PUSH20 0x0 PUSH20 0x0 PUSH20 0x0 SWAP1 SWAP2 SWAP3 SWAP4 JUMP JUMPDEST PUSH1 0x0 PUSH2 0x88D DUP3 PUSH2 0xAFB JUMP JUMPDEST PUSH1 0x0 DUP1 PUSH2 0x899 DUP5 PUSH2 0x8B6 JUMP JUMPDEST SWAP2 POP SWAP2 POP DUP1 ISZERO PUSH2 0x8AD JUMPI PUSH2 0x8AD DUP3 DUP6 PUSH2 0x9CB JUMP JUMPDEST SWAP2 POP POP JUMPDEST SWAP2 SWAP1 POP JUMP JUMPDEST PUSH2 0x8BE PUSH2 0x40C6 JUMP JUMPDEST PUSH1 0x0 DUP1 PUSH2 0x8CA DUP5 PUSH2 0xB76 JUMP JUMPDEST SWAP1 POP PUSH2 0x8D5 DUP2 PUSH2 0xEE5 JUMP JUMPDEST ISZERO PUSH2 0x96F JUMPI PUSH1 0x40 MLOAD PUSH4 0x37B5FC21 PUSH1 0xE1 SHL DUP2 MSTORE PUSH20 0x0 SWAP1 PUSH4 0x6F6BF842 SWAP1 PUSH2 0x913 SWAP1 DUP8 SWAP1 DUP6 SWAP1 PUSH1 0x4 ADD PUSH2 0x4974 JUMP JUMPDEST PUSH1 0xC0 PUSH1 0x40 MLOAD DUP1 DUP4 SUB DUP2 DUP7 DUP1 EXTCODESIZE ISZERO DUP1 ISZERO PUSH2 0x92B JUMPI PUSH1 0x0 DUP1 REVERT JUMPDEST POP GAS DELEGATECALL ISZERO DUP1 ISZERO PUSH2 0x93F JUMPI RETURNDATASIZE PUSH1 0x0 DUP1 RETURNDATACOPY RETURNDATASIZE PUSH1 0x0 REVERT JUMPDEST POP POP POP POP PUSH1 0x40 MLOAD RETURNDATASIZE PUSH1 0x1F NOT PUSH1 0x1F DUP3 ADD AND DUP3 ADD DUP1 PUSH1 0x40 MSTORE POP DUP2 ADD SWAP1 PUSH2 0x963 SWAP2 SWAP1 PUSH2 0x46BE JUMP JUMPDEST PUSH1 0x1 SWAP3 POP SWAP3 POP POP PUSH2 0x976 JUMP JUMPDEST SWAP2 POP PUSH1 0x0 SWAP1 POP JUMPDEST SWAP2 POP SWAP2 JUMP JUMPDEST PUSH2 0x984 DUP3 PUSH2 0xF39 JUMP JUMPDEST PUSH2 0x120 DUP6 ADD MSTORE PUSH2 0x996 DUP5 DUP5 DUP5 DUP5 PUSH2 0xF4B JUMP JUMPDEST POP POP POP POP JUMP JUMPDEST PUSH1 0x0 PUSH2 0x9AA PUSH1 0x0 NOT DUP4 PUSH2 0xFF3 JUMP JUMPDEST SWAP3 SWAP2 POP POP JUMP JUMPDEST PUSH1 0x0 PUSH2 0x9C0 DUP6 DUP6 DUP6 DUP6 PUSH1 0x1 PUSH2 0x1041 JUMP JUMPDEST SWAP1 POP JUMPDEST SWAP5 SWAP4 POP POP POP POP JUMP JUMPDEST PUSH1 0x0 PUSH2 0x9D5 PUSH2 0x11F7 JUMP JUMPDEST PUSH1 0x1 PUSH1 0x1 PUSH1 0xA0 SHL SUB DUP4 AND PUSH1 0x0 DUP2 DUP2 MSTORE PUSH1 0x20 DUP4 DUP2 MSTORE PUSH1 0x40 DUP1 DUP4 KECCAK256 DUP9 MLOAD DUP2 SLOAD SWAP4 DUP11 ADD MLOAD DUP11 DUP5 ADD MLOAD PUSH1 0x60 DUP13 ADD MLOAD PUSH1 0x80 DUP14 ADD MLOAD PUSH1 0xA0 DUP15 ADD MLOAD PUSH5 0xFFFFFFFFFF NOT SWAP1 SWAP9 AND PUSH5 0xFFFFFFFFFF SWAP1 SWAP6 AND SWAP5 SWAP1 SWAP5 OR PUSH6 0xFF0000000000 NOT AND PUSH1 0x1 PUSH1 0x28 SHL PUSH1 0xF8 SWAP5 SWAP1 SWAP5 SHR SWAP4 SWAP1 SWAP4 MUL SWAP3 SWAP1 SWAP3 OR PUSH7 0xFF000000000000 NOT AND PUSH1 0x1 PUSH1 0x30 SHL PUSH1 0xFF SWAP1 SWAP3 AND SWAP2 SWAP1 SWAP2 MUL OR PUSH9 0xFFFF00000000000000 NOT AND PUSH1 0x1 PUSH1 0x38 SHL PUSH2 0xFFFF SWAP1 SWAP3 AND SWAP2 SWAP1 SWAP2 MUL OR PUSH27 0xFFFFFFFFFFFFFFFFFFFFFFFFFFFFFFFFFFFF000000000000000000 NOT AND PUSH1 0x1 PUSH1 0x48 SHL PUSH1 0x70 SWAP3 SWAP1 SWAP3 SHR SWAP2 SWAP1 SWAP2 MUL OR PUSH1 0xFF PUSH1 0xD8 SHL NOT AND PUSH1 0x1 PUSH1 0xD8 SHL SWAP4 ISZERO ISZERO SWAP4 SWAP1 SWAP4 MUL SWAP3 SWAP1 SWAP3 OR SWAP1 SWAP2 SSTORE MLOAD SWAP3 SWAP4 POP SWAP1 SWAP2 PUSH32 0x6BD4B121BCA854A191536A2CA891155C42EE2FB23F307FB34E8BC65CFCB5412E SWAP2 SWAP1 LOG2 POP POP POP JUMP JUMPDEST PUSH1 0x0 DUP1 DUP3 SLT ISZERO PUSH2 0xAF7 JUMPI PUSH1 0x0 DUP1 REVERT JUMPDEST POP SWAP1 JUMP JUMPDEST PUSH1 0x1 PUSH1 0x1 PUSH1 0xA0 SHL SUB DUP2 AND PUSH2 0xB0E JUMPI PUSH1 0x0 DUP1 REVERT JUMPDEST PUSH1 0x1 PUSH1 0x1 PUSH1 0xA0 SHL SUB DUP2 AND PUSH2 0xFEE EQ ISZERO PUSH2 0xB26 JUMPI PUSH1 0x0 DUP1 REVERT JUMPDEST PUSH1 0x1 PUSH1 0x1 PUSH1 0xA0 SHL SUB DUP2 AND PUSH2 0x5E7 EQ ISZERO PUSH2 0xB3E JUMPI PUSH1 0x0 DUP1 REVERT JUMPDEST PUSH1 0x1 PUSH1 0x1 PUSH1 0xA0 SHL SUB DUP2 AND ADDRESS EQ ISZERO PUSH2 0xB54 JUMPI PUSH1 0x0 DUP1 REVERT JUMPDEST PUSH1 0x0 PUSH2 0xB5F DUP3 PUSH2 0x1204 JUMP JUMPDEST POP POP POP POP PUSH2 0xFFFF AND SWAP1 POP DUP1 PUSH1 0x0 EQ PUSH2 0x498 JUMPI PUSH1 0x0 DUP1 REVERT JUMPDEST PUSH2 0xB7E PUSH2 0x40C6 JUMP JUMPDEST PUSH1 0x0 PUSH2 0xB88 PUSH2 0x11F7 JUMP JUMPDEST PUSH1 0x1 PUSH1 0x1 PUSH1 0xA0 SHL SUB DUP5 AND PUSH1 0x0 SWAP1 DUP2 MSTORE PUSH1 0x20 SWAP2 DUP3 MSTORE PUSH1 0x40 SWAP1 DUP2 SWAP1 KECCAK256 DUP2 MLOAD PUSH1 0xC0 DUP2 ADD DUP4 MSTORE SWAP1 SLOAD PUSH5 0xFFFFFFFFFF DUP2 AND DUP3 MSTORE PUSH1 0x1 PUSH1 0x1 PUSH1 0xF8 SHL SUB NOT PUSH1 0x1 PUSH1 0x28 SHL DUP3 DIV PUSH1 0xF8 SHL AND SWAP4 DUP3 ADD SWAP4 SWAP1 SWAP4 MSTORE PUSH1 0xFF PUSH1 0x1 PUSH1 0x30 SHL DUP5 DIV DUP2 AND SWAP3 DUP3 ADD SWAP3 SWAP1 SWAP3 MSTORE PUSH2 0xFFFF PUSH1 0x1 PUSH1 0x38 SHL DUP5 DIV AND PUSH1 0x60 DUP3 ADD MSTORE PUSH1 0x1 PUSH1 0x1 PUSH1 0x70 SHL SUB NOT PUSH1 0x1 PUSH1 0x48 SHL DUP5 DIV PUSH1 0x70 SHL AND PUSH1 0x80 DUP3 ADD MSTORE PUSH1 0x1 PUSH1 0xD8 SHL SWAP1 SWAP3 DIV AND ISZERO ISZERO PUSH1 0xA0 DUP3 ADD MSTORE SWAP2 POP POP SWAP2 SWAP1 POP JUMP JUMPDEST PUSH1 0x0 PUSH1 0x1 PUSH1 0x1 PUSH1 0xFF SHL SUB DUP3 GT ISZERO PUSH2 0xAF7 JUMPI PUSH1 0x0 DUP1 REVERT JUMPDEST PUSH1 0x0 DUP3 PUSH2 0xC49 JUMPI POP PUSH1 0x0 PUSH2 0x9C3 JUMP JUMPDEST PUSH1 0x0 DUP4 SGT PUSH2 0xC56 JUMPI PUSH1 0x0 DUP1 REVERT JUMPDEST PUSH2 0xC6C DUP5 DUP7 PUSH1 0x0 ADD MLOAD DUP6 DUP9 PUSH2 0x120 ADD MLOAD DUP7 PUSH2 0x126D JUMP JUMPDEST PUSH1 0x60 DUP8 ADD MLOAD SWAP1 SWAP3 POP PUSH2 0xC7F SWAP2 POP DUP3 PUSH2 0x132F JUMP JUMPDEST PUSH1 0x60 DUP7 ADD MSTORE SWAP5 SWAP4 POP POP POP POP JUMP JUMPDEST PUSH1 0x80 DUP4 ADD MLOAD ISZERO PUSH2 0xC9B JUMPI PUSH1 0x0 DUP1 REVERT JUMPDEST PUSH2 0x996 DUP4 DUP4 DUP4 PUSH1 0x0 PUSH1 0x1 PUSH2 0x1041 JUMP JUMPDEST PUSH1 0x0 DUP1 PUSH2 0xCB7 DUP5 DUP5 PUSH2 0x1345 JUMP JUMPDEST SWAP2 POP SWAP2 POP DUP2 PUSH1 0x0 EQ ISZERO PUSH2 0xCCB JUMPI POP POP PUSH2 0x498 JUMP JUMPDEST DUP2 DUP2 GT ISZERO PUSH2 0x996 JUMPI PUSH1 0x40 MLOAD PUSH3 0x461BCD PUSH1 0xE5 SHL DUP2 MSTORE PUSH1 0x4 ADD PUSH2 0x258 SWAP1 PUSH2 0x4A3F JUMP JUMPDEST PUSH1 0x0 DUP1 PUSH2 0xCF6 PUSH2 0x13B1 JUMP JUMPDEST PUSH1 0x0 SWAP4 DUP5 MSTORE PUSH1 0x20 MSTORE POP POP PUSH1 0x40 SWAP1 KECCAK256 SLOAD PUSH1 0x1 PUSH1 0x1 PUSH1 0xA0 SHL SUB AND SWAP1 JUMP JUMPDEST PUSH2 0xD1A DUP4 PUSH2 0x13BE JUMP JUMPDEST ISZERO PUSH2 0xD37 JUMPI PUSH1 0x40 MLOAD PUSH3 0x461BCD PUSH1 0xE5 SHL DUP2 MSTORE PUSH1 0x4 ADD PUSH2 0x258 SWAP1 PUSH2 0x4B66 JUMP JUMPDEST DUP2 PUSH2 0xFFFF AND PUSH1 0x0 LT DUP1 ISZERO PUSH2 0xD51 JUMPI POP PUSH2 0x3FFF PUSH2 0xFFFF DUP4 AND GT ISZERO JUMPDEST PUSH2 0xD6D JUMPI PUSH1 0x40 MLOAD PUSH3 0x461BCD PUSH1 0xE5 SHL DUP2 MSTORE PUSH1 0x4 ADD PUSH2 0x258 SWAP1 PUSH2 0x4BE2 JUMP JUMPDEST PUSH1 0x40 DUP4 ADD MLOAD PUSH1 0xFF AND ISZERO PUSH2 0xD92 JUMPI PUSH1 0x40 MLOAD PUSH3 0x461BCD PUSH1 0xE5 SHL DUP2 MSTORE PUSH1 0x4 ADD PUSH2 0x258 SWAP1 PUSH2 0x4AAD JUMP JUMPDEST PUSH1 0x20 DUP4 ADD MLOAD PUSH1 0x1 PUSH1 0x1 PUSH1 0xF8 SHL SUB NOT AND ISZERO PUSH2 0xDBE JUMPI PUSH1 0x40 MLOAD PUSH3 0x461BCD PUSH1 0xE5 SHL DUP2 MSTORE PUSH1 0x4 ADD PUSH2 0x258 SWAP1 PUSH2 0x4B94 JUMP JUMPDEST PUSH2 0xDD3 DUP4 PUSH2 0xFFFF DUP5 AND PUSH1 0x0 PUSH1 0x1 PUSH1 0xFE SHL PUSH2 0x13CB JUMP JUMPDEST PUSH2 0xFFFF DUP3 AND PUSH1 0x60 DUP5 ADD MSTORE PUSH1 0x0 PUSH2 0xDE8 DUP3 PUSH2 0x15D1 JUMP JUMPDEST SWAP1 POP PUSH5 0xFFFFFFFFFF DUP2 LT PUSH2 0xDFB JUMPI PUSH1 0x0 DUP1 REVERT JUMPDEST PUSH5 0xFFFFFFFFFF AND SWAP1 SWAP3 MSTORE POP POP JUMP JUMPDEST PUSH1 0x0 DUP2 PUSH2 0xE18 JUMPI POP PUSH1 0x0 PUSH2 0xEDE JUMP JUMPDEST PUSH1 0x0 DUP3 SGT PUSH2 0xE25 JUMPI PUSH1 0x0 DUP1 REVERT JUMPDEST PUSH1 0x0 PUSH2 0xE38 DUP6 PUSH1 0x0 ADD MLOAD PUSH2 0xFFFF AND PUSH2 0x15EF JUMP JUMPDEST DUP1 MLOAD SWAP1 SWAP2 POP PUSH1 0x1 PUSH1 0x1 PUSH1 0xA0 SHL SUB AND PUSH2 0xE4F JUMPI PUSH1 0x0 DUP1 REVERT JUMPDEST PUSH1 0x1 DUP2 PUSH1 0x60 ADD MLOAD PUSH1 0x5 DUP2 GT ISZERO PUSH2 0xE61 JUMPI INVALID JUMPDEST EQ DUP1 PUSH2 0xE7C JUMPI POP PUSH1 0x2 DUP2 PUSH1 0x60 ADD MLOAD PUSH1 0x5 DUP2 GT ISZERO PUSH2 0xE7A JUMPI INVALID JUMPDEST EQ JUMPDEST ISZERO PUSH2 0xEB4 JUMPI DUP5 MLOAD PUSH2 0x120 DUP7 ADD MLOAD PUSH2 0xE98 SWAP2 DUP4 SWAP2 DUP7 SWAP1 DUP9 SWAP1 PUSH2 0x1602 JUMP JUMPDEST PUSH1 0x60 DUP7 ADD MLOAD SWAP1 SWAP3 POP PUSH2 0xEAA SWAP1 DUP4 PUSH2 0x132F JUMP JUMPDEST PUSH1 0x60 DUP7 ADD MSTORE PUSH2 0xEDC JUMP JUMPDEST PUSH1 0x4 DUP2 PUSH1 0x60 ADD MLOAD PUSH1 0x5 DUP2 GT ISZERO PUSH2 0xEC6 JUMPI INVALID JUMPDEST EQ ISZERO PUSH2 0x9C JUMPI PUSH2 0xED9 DUP6 DUP6 DUP6 PUSH1 0x0 PUSH2 0xC3A JUMP JUMPDEST SWAP2 POP JUMPDEST POP JUMPDEST SWAP4 SWAP3 POP POP POP JUMP JUMPDEST PUSH1 0x0 TIMESTAMP PUSH2 0xEF1 DUP4 PUSH2 0x13BE JUMP JUMPDEST ISZERO PUSH2 0xF12 JUMPI PUSH2 0xEFF DUP2 PUSH2 0x15D1 JUMP JUMPDEST DUP4 MLOAD PUSH5 0xFFFFFFFFFF AND LT SWAP2 POP PUSH2 0x8B1 SWAP1 POP JUMP JUMPDEST DUP3 MLOAD PUSH5 0xFFFFFFFFFF AND ISZERO DUP1 ISZERO SWAP1 PUSH2 0xF31 JUMPI POP DUP3 MLOAD PUSH5 0xFFFFFFFFFF AND DUP2 LT ISZERO JUMPDEST SWAP2 POP POP PUSH2 0x8B1 JUMP JUMPDEST PUSH2 0xF41 PUSH2 0x40FB JUMP JUMPDEST PUSH2 0x9AA DUP3 TIMESTAMP PUSH2 0x1693 JUMP JUMPDEST DUP2 PUSH2 0xFFFF AND PUSH1 0x0 LT DUP1 ISZERO PUSH2 0xF65 JUMPI POP PUSH2 0x3FFF PUSH2 0xFFFF DUP4 AND GT ISZERO JUMPDEST PUSH2 0xF6E JUMPI PUSH1 0x0 DUP1 REVERT JUMPDEST PUSH2 0xFFFF DUP3 AND DUP1 DUP6 MSTORE PUSH2 0xF81 SWAP1 DUP3 SWAP1 PUSH2 0x1754 JUMP JUMPDEST ISZERO PUSH2 0xFB0 JUMPI PUSH2 0xF96 DUP4 DUP4 DUP7 PUSH2 0x120 ADD MLOAD PUSH2 0x17DE JUMP JUMPDEST PUSH2 0x100 DUP9 ADD MSTORE PUSH1 0xE0 DUP8 ADD MSTORE PUSH1 0x40 DUP7 ADD MSTORE PUSH1 0x20 DUP6 ADD MSTORE PUSH2 0xFCE JUMP JUMPDEST PUSH1 0x0 PUSH1 0x20 DUP6 ADD DUP2 SWAP1 MSTORE PUSH1 0x40 DUP6 ADD DUP2 SWAP1 MSTORE PUSH1 0xE0 DUP6 ADD DUP2 SWAP1 MSTORE PUSH2 0x100 DUP6 ADD MSTORE JUMPDEST POP POP PUSH1 0x0 PUSH1 0x60 DUP4 ADD DUP2 SWAP1 MSTORE PUSH1 0x80 DUP4 ADD DUP2 SWAP1 MSTORE PUSH1 0xA0 DUP4 ADD DUP2 SWAP1 MSTORE PUSH1 0xC0 SWAP1 SWAP3 ADD SWAP2 SWAP1 SWAP2 MSTORE POP JUMP JUMPDEST DUP2 DUP2 MUL PUSH1 0x0 NOT DUP4 EQ ISZERO PUSH2 0x1023 JUMPI DUP2 ISZERO DUP1 PUSH2 0x1015 JUMPI POP DUP3 DUP3 DUP3 DUP2 PUSH2 0x1012 JUMPI INVALID JUMPDEST SDIV EQ JUMPDEST PUSH2 0x101E JUMPI PUSH1 0x0 DUP1 REVERT JUMPDEST PUSH2 0x9AA JUMP JUMPDEST DUP3 ISZERO DUP1 PUSH2 0x1038 JUMPI POP DUP2 DUP4 DUP3 DUP2 PUSH2 0x1035 JUMPI INVALID JUMPDEST SDIV EQ JUMPDEST PUSH2 0x9AA JUMPI PUSH1 0x0 DUP1 REVERT JUMPDEST PUSH1 0x0 DUP1 PUSH2 0x105E DUP7 DUP9 PUSH1 0x0 ADD MLOAD DUP10 PUSH1 0x80 ADD MLOAD DUP11 PUSH2 0x120 ADD MLOAD DUP9 PUSH2 0x1898 JUMP JUMPDEST SWAP2 POP PUSH1 0x0 PUSH2 0x107D DUP9 PUSH1 0x80 ADD MLOAD DUP10 PUSH1 0x60 ADD MLOAD PUSH2 0x132F SWAP1 SWAP2 SWAP1 PUSH4 0xFFFFFFFF AND JUMP JUMPDEST SWAP1 POP DUP4 DUP1 ISZERO PUSH2 0x108C JUMPI POP PUSH1 0x0 DUP2 SLT JUMPDEST DUP1 ISZERO PUSH2 0x10A7 JUMPI POP PUSH1 0x20 DUP9 ADD MLOAD PUSH1 0x0 SWAP1 PUSH2 0x10A5 SWAP1 DUP4 PUSH2 0x132F JUMP JUMPDEST SLT JUMPDEST ISZERO PUSH2 0x10CD JUMPI DUP6 PUSH1 0xA0 ADD MLOAD PUSH2 0x10CD JUMPI PUSH1 0x40 MLOAD PUSH3 0x461BCD PUSH1 0xE5 SHL DUP2 MSTORE PUSH1 0x4 ADD PUSH2 0x258 SWAP1 PUSH2 0x4B06 JUMP JUMPDEST DUP1 ISZERO PUSH2 0x10EC JUMPI PUSH1 0x20 DUP9 ADD MLOAD PUSH2 0x10E2 SWAP1 DUP3 PUSH2 0x132F JUMP JUMPDEST PUSH1 0x20 DUP10 ADD MSTORE PUSH1 0x1 SWAP2 POP JUMPDEST PUSH1 0xA0 DUP9 ADD MLOAD ISZERO ISZERO DUP1 PUSH2 0x1101 JUMPI POP PUSH1 0xC0 DUP9 ADD MLOAD ISZERO ISZERO JUMPDEST ISZERO PUSH2 0x116A JUMPI PUSH1 0x0 PUSH2 0x1131 DUP10 PUSH1 0xC0 ADD MLOAD PUSH2 0x112B DUP12 PUSH1 0xA0 ADD MLOAD DUP13 PUSH1 0x40 ADD MLOAD PUSH2 0x132F SWAP1 SWAP2 SWAP1 PUSH4 0xFFFFFFFF AND JUMP JUMPDEST SWAP1 PUSH2 0x132F JUMP JUMPDEST SWAP1 POP PUSH1 0x0 DUP2 SLT ISZERO PUSH2 0x1154 JUMPI PUSH1 0x40 MLOAD PUSH3 0x461BCD PUSH1 0xE5 SHL DUP2 MSTORE PUSH1 0x4 ADD PUSH2 0x258 SWAP1 PUSH2 0x4BBE JUMP JUMPDEST PUSH2 0x115F DUP10 DUP10 DUP4 PUSH2 0x1941 JUMP JUMPDEST POP PUSH1 0x40 DUP10 ADD MSTORE PUSH1 0x1 SWAP2 POP JUMPDEST DUP2 ISZERO PUSH2 0x1199 JUMPI PUSH2 0x1199 DUP8 DUP10 PUSH1 0x0 ADD MLOAD DUP11 PUSH1 0x20 ADD MLOAD DUP12 PUSH1 0x40 ADD MLOAD DUP13 PUSH1 0xE0 ADD MLOAD DUP14 PUSH2 0x100 ADD MLOAD DUP15 PUSH2 0x120 ADD MLOAD PUSH2 0x1A2E JUMP JUMPDEST DUP8 MLOAD PUSH1 0x20 DUP10 ADD MLOAD PUSH2 0x11C6 SWAP2 PUSH2 0xFFFF AND SWAP1 ISZERO ISZERO DUP1 PUSH2 0x11B9 JUMPI POP PUSH1 0x40 DUP11 ADD MLOAD ISZERO ISZERO JUMPDEST DUP9 SWAP2 SWAP1 PUSH1 0x1 PUSH1 0xFE SHL PUSH2 0x13CB JUMP JUMPDEST PUSH1 0x0 DUP9 PUSH1 0x20 ADD MLOAD SLT ISZERO PUSH2 0x11EC JUMPI PUSH1 0x20 DUP7 ADD DUP1 MLOAD PUSH1 0x1 PUSH1 0xF9 SHL OR PUSH1 0x1 PUSH1 0x1 PUSH1 0xF8 SHL SUB NOT AND SWAP1 MSTORE JUMPDEST POP POP SWAP6 SWAP5 POP POP POP POP POP JUMP JUMPDEST PUSH1 0x0 DUP1 PUSH2 0x9AA PUSH1 0x1 PUSH2 0x1B69 JUMP JUMPDEST PUSH1 0x0 DUP1 PUSH1 0x0 DUP1 PUSH1 0x0 DUP1 PUSH2 0x1215 PUSH2 0x1B82 JUMP JUMPDEST PUSH1 0x1 PUSH1 0x1 PUSH1 0xA0 SHL SUB SWAP1 SWAP8 AND PUSH1 0x0 SWAP1 DUP2 MSTORE PUSH1 0x20 SWAP8 SWAP1 SWAP8 MSTORE POP POP PUSH1 0x40 SWAP1 SWAP5 KECCAK256 SLOAD PUSH2 0xFFFF DUP2 AND SWAP6 PUSH4 0xFFFFFFFF PUSH3 0x10000 DUP4 DIV DUP2 AND SWAP7 POP PUSH1 0x1 PUSH1 0x30 SHL DUP4 DIV AND SWAP5 POP PUSH1 0xFF PUSH1 0x1 PUSH1 0x50 SHL DUP4 DIV AND SWAP4 POP PUSH1 0x1 PUSH1 0x58 SHL SWAP1 SWAP2 DIV PUSH1 0xD8 SHL SWAP2 POP JUMP JUMPDEST PUSH1 0x0 DUP1 PUSH1 0x0 PUSH2 0x127B DUP7 PUSH2 0xAE8 JUMP JUMPDEST SWAP1 POP DUP1 PUSH2 0x128F JUMPI PUSH1 0x0 DUP1 SWAP3 POP SWAP3 POP POP PUSH2 0x1325 JUMP JUMPDEST PUSH1 0x0 PUSH2 0x129E DUP9 PUSH2 0xFFFF AND PUSH2 0x1B8F JUMP JUMPDEST SWAP1 POP PUSH1 0x3 DUP2 PUSH1 0x60 ADD MLOAD PUSH1 0x5 DUP2 GT ISZERO PUSH2 0x12B2 JUMPI INVALID JUMPDEST EQ ISZERO PUSH2 0x12F9 JUMPI CALLVALUE DUP3 LT ISZERO PUSH2 0x12D2 JUMPI PUSH2 0x12CD DUP10 DUP4 CALLVALUE SUB DUP8 PUSH2 0x1BA2 JUMP JUMPDEST PUSH2 0x12F1 JUMP JUMPDEST CALLVALUE DUP3 EQ PUSH2 0x12F1 JUMPI PUSH1 0x40 MLOAD PUSH3 0x461BCD PUSH1 0xE5 SHL DUP2 MSTORE PUSH1 0x4 ADD PUSH2 0x258 SWAP1 PUSH2 0x4A68 JUMP JUMPDEST DUP7 SWAP4 POP PUSH2 0x1313 JUMP JUMPDEST PUSH2 0x1310 PUSH2 0x130B DUP3 PUSH1 0x0 ADD MLOAD DUP12 DUP6 PUSH2 0x1C6A JUMP JUMPDEST PUSH2 0xC24 JUMP JUMPDEST SWAP4 POP JUMPDEST PUSH2 0x1320 DUP10 DUP10 DUP7 DUP5 DUP11 PUSH2 0x1DF2 JUMP JUMPDEST SWAP3 POP POP POP JUMPDEST SWAP6 POP SWAP6 SWAP4 POP POP POP POP JUMP JUMPDEST DUP2 DUP2 ADD DUP3 DUP2 SLT ISZERO PUSH1 0x0 DUP4 SLT ISZERO EQ PUSH2 0x9AA JUMPI PUSH1 0x0 DUP1 REVERT JUMPDEST PUSH1 0x0 DUP1 PUSH1 0x0 PUSH2 0x1352 PUSH2 0x1E39 JUMP JUMPDEST PUSH2 0xFFFF DUP6 AND PUSH1 0x0 SWAP1 DUP2 MSTORE PUSH1 0x20 SWAP2 SWAP1 SWAP2 MSTORE PUSH1 0x40 SWAP1 KECCAK256 PUSH1 0x1 DUP2 ADD SLOAD SWAP1 SWAP2 POP PUSH2 0x1384 SWAP1 PUSH1 0x1 PUSH1 0x58 SHL SWAP1 DIV PUSH4 0xFFFFFFFF AND PUSH2 0x1E46 JUMP JUMPDEST DUP2 SLOAD SWAP1 SWAP4 POP PUSH1 0x1 PUSH1 0x28 SHL SWAP1 DIV PUSH1 0x1 PUSH1 0x1 PUSH1 0x58 SHL SUB AND PUSH2 0x13A6 PUSH2 0x385 DUP8 DUP4 PUSH2 0x1E54 JUMP JUMPDEST SWAP3 POP POP POP SWAP3 POP SWAP3 SWAP1 POP JUMP JUMPDEST PUSH1 0x0 DUP1 PUSH2 0x9AA PUSH1 0x3 PUSH2 0x1B69 JUMP JUMPDEST PUSH1 0x60 ADD MLOAD PUSH2 0xFFFF AND ISZERO ISZERO SWAP1 JUMP JUMPDEST DUP3 PUSH1 0x0 LT DUP1 ISZERO PUSH2 0x13DD JUMPI POP PUSH2 0x3FFF DUP4 GT ISZERO JUMPDEST PUSH2 0x13E6 JUMPI PUSH1 0x0 DUP1 REVERT JUMPDEST DUP2 DUP1 ISZERO PUSH2 0x13FA JUMPI POP DUP3 DUP5 PUSH1 0x60 ADD MLOAD PUSH2 0xFFFF AND EQ JUMPDEST ISZERO PUSH2 0x1404 JUMPI PUSH2 0x996 JUMP JUMPDEST PUSH1 0x80 DUP5 ADD MLOAD PUSH1 0x0 SWAP1 DUP2 JUMPDEST PUSH1 0x1 PUSH1 0x1 PUSH1 0x70 SHL SUB NOT DUP3 AND ISZERO PUSH2 0x1586 JUMPI PUSH1 0xF0 DUP3 SWAP1 SHR PUSH2 0x3FFF AND DUP7 DUP2 EQ DUP1 ISZERO PUSH2 0x1433 JUMPI POP DUP6 JUMPDEST ISZERO PUSH2 0x146B JUMPI POP PUSH1 0x80 DUP8 ADD DUP1 MLOAD PUSH1 0x1 PUSH1 0x1 PUSH1 0xF0 SHL SUB NOT DUP7 AND PUSH1 0x10 SWAP1 SWAP4 MUL SWAP3 SWAP1 SWAP3 SHR SWAP2 SWAP1 SWAP2 OR PUSH1 0x1 PUSH1 0x1 PUSH1 0x70 SHL SUB NOT AND SWAP1 MSTORE POP PUSH2 0x996 SWAP1 POP JUMP JUMPDEST DUP7 DUP2 EQ DUP1 ISZERO PUSH2 0x1478 JUMPI POP DUP6 ISZERO JUMPDEST ISZERO PUSH2 0x14D4 JUMPI PUSH1 0x1 PUSH1 0x1 PUSH1 0xF0 SHL SUB NOT DUP6 AND NOT SWAP3 SWAP1 SWAP3 AND SWAP2 PUSH1 0x3 PUSH1 0xFE SHL DUP4 AND PUSH2 0x14B2 JUMPI PUSH1 0x10 DUP4 PUSH14 0xFFFFFFFFFFFFFFFFFFFFFFFFFFFF NOT AND SWAP1 SHL SWAP3 POP JUMPDEST POP PUSH1 0x1 PUSH1 0x1 PUSH1 0x70 SHL SUB NOT SWAP2 DUP3 AND PUSH1 0x10 SWAP1 SWAP2 MUL SHR SWAP2 SWAP1 SWAP2 OR AND PUSH1 0x80 DUP6 ADD MSTORE PUSH2 0x996 JUMP JUMPDEST DUP7 DUP2 GT DUP1 ISZERO PUSH2 0x14E0 JUMPI POP DUP6 JUMPDEST ISZERO PUSH2 0x153A JUMPI PUSH1 0x80 DUP9 DUP2 ADD MLOAD PUSH1 0x1 PUSH1 0x1 PUSH1 0xF0 SHL SUB NOT PUSH1 0xF0 DUP11 SWAP1 SHL DUP9 OR DUP2 AND PUSH1 0x10 DUP7 MUL SHR SWAP7 SWAP1 SWAP7 OR SWAP6 SWAP2 SHL AND ISZERO PUSH2 0x1514 JUMPI PUSH1 0x0 DUP1 REVERT JUMPDEST POP PUSH1 0x1 PUSH1 0x1 PUSH1 0x70 SHL SUB NOT SWAP2 DUP3 AND PUSH1 0x1 SWAP2 SWAP1 SWAP2 ADD PUSH1 0x10 MUL SHR SWAP2 SWAP1 SWAP2 OR AND PUSH1 0x80 DUP6 ADD MSTORE PUSH2 0x996 JUMP JUMPDEST DUP7 DUP2 GT DUP1 ISZERO PUSH2 0x1547 JUMPI POP DUP6 ISZERO JUMPDEST ISZERO PUSH2 0x1555 JUMPI POP POP POP POP PUSH2 0x996 JUMP JUMPDEST POP PUSH1 0x1 PUSH1 0x1 PUSH1 0xF0 SHL SUB NOT DUP3 AND PUSH1 0x10 DUP3 DUP2 MUL SWAP2 SWAP1 SWAP2 SHR SWAP4 SWAP1 SWAP4 OR SWAP3 SWAP2 SWAP1 SWAP2 SHL PUSH1 0x1 PUSH1 0x1 PUSH1 0x80 SHL SUB NOT AND SWAP1 PUSH1 0x1 ADD PUSH2 0x140E JUMP JUMPDEST DUP5 PUSH2 0x1593 JUMPI POP POP POP PUSH2 0x996 JUMP JUMPDEST PUSH1 0x9 DUP2 LT PUSH2 0x15A0 JUMPI PUSH1 0x0 DUP1 REVERT JUMPDEST PUSH1 0x1 PUSH1 0x1 PUSH1 0xF0 SHL SUB NOT PUSH1 0xF0 DUP8 SWAP1 SHL DUP6 OR AND PUSH1 0x10 SWAP1 SWAP2 MUL SHR SWAP2 SWAP1 SWAP2 OR PUSH1 0x1 PUSH1 0x1 PUSH1 0x70 SHL SUB NOT AND PUSH1 0x80 DUP7 ADD MSTORE POP POP POP POP POP JUMP JUMPDEST PUSH1 0x0 PUSH3 0x15180 DUP3 LT ISZERO PUSH2 0x15E3 JUMPI PUSH1 0x0 DUP1 REVERT JUMPDEST POP PUSH3 0x15180 DUP2 MOD SWAP1 SUB SWAP1 JUMP JUMPDEST PUSH2 0x15F7 PUSH2 0x411C JUMP JUMPDEST PUSH2 0x9AA DUP3 PUSH1 0x0 PUSH2 0x1E86 JUMP JUMPDEST PUSH1 0x0 PUSH2 0x1613 DUP7 PUSH1 0x0 ADD MLOAD DUP5 DUP7 PUSH2 0x1C6A JUMP JUMPDEST SWAP4 POP PUSH1 0x0 PUSH2 0x1624 DUP7 PUSH2 0xFFFF AND PUSH2 0x1B8F JUMP JUMPDEST SWAP1 POP PUSH1 0x0 PUSH1 0x2 DUP9 PUSH1 0x60 ADD MLOAD PUSH1 0x5 DUP2 GT ISZERO PUSH2 0x163A JUMPI INVALID JUMPDEST EQ ISZERO PUSH2 0x1654 JUMPI PUSH2 0x164D PUSH2 0x130B DUP10 DUP9 PUSH2 0x1F20 JUMP JUMPDEST SWAP1 POP PUSH2 0x167A JUMP JUMPDEST PUSH1 0x1 DUP9 PUSH1 0x60 ADD MLOAD PUSH1 0x5 DUP2 GT ISZERO PUSH2 0x1666 JUMPI INVALID JUMPDEST EQ ISZERO PUSH2 0x9C JUMPI PUSH2 0x164D PUSH2 0x130B DUP10 DUP5 DUP10 PUSH2 0x1FD1 JUMP JUMPDEST PUSH2 0x1687 DUP6 DUP9 DUP4 DUP6 DUP9 PUSH2 0x1DF2 JUMP JUMPDEST SWAP9 SWAP8 POP POP POP POP POP POP POP POP JUMP JUMPDEST PUSH2 0x169B PUSH2 0x40FB JUMP JUMPDEST PUSH1 0x0 PUSH2 0x16A6 DUP5 PUSH2 0x2191 JUMP JUMPDEST SWAP1 POP DUP3 DUP2 PUSH1 0x0 ADD MLOAD LT ISZERO PUSH2 0x16E5 JUMPI PUSH1 0x0 DUP1 PUSH2 0x16C0 DUP7 PUSH2 0x2259 JUMP JUMPDEST SWAP1 POP PUSH2 0x16CE DUP7 DUP5 DUP4 DUP9 PUSH2 0x22D6 JUMP JUMPDEST SWAP1 SWAP4 POP SWAP2 POP PUSH2 0x16DE DUP7 DUP4 DUP6 PUSH2 0x237A JUMP JUMPDEST POP POP PUSH2 0x16F2 JUMP JUMPDEST DUP1 MLOAD DUP4 EQ PUSH2 0x16F2 JUMPI PUSH1 0x0 DUP1 REVERT JUMPDEST PUSH1 0x40 MLOAD DUP1 PUSH1 0x60 ADD PUSH1 0x40 MSTORE DUP1 PUSH2 0x171B PUSH2 0x130B DUP5 PUSH1 0xA0 ADD MLOAD DUP6 PUSH1 0xC0 ADD MLOAD PUSH2 0x25AE SWAP1 SWAP2 SWAP1 PUSH4 0xFFFFFFFF AND JUMP JUMPDEST DUP2 MSTORE PUSH1 0x20 ADD PUSH2 0x173E PUSH2 0x130B DUP5 PUSH1 0xA0 ADD MLOAD DUP6 PUSH1 0xE0 ADD MLOAD PUSH2 0x25AE SWAP1 SWAP2 SWAP1 PUSH4 0xFFFFFFFF AND JUMP JUMPDEST DUP2 MSTORE PUSH1 0x20 ADD DUP3 PUSH1 0x60 ADD MLOAD DUP2 MSTORE POP SWAP2 POP POP SWAP3 SWAP2 POP POP JUMP JUMPDEST PUSH1 0x0 DUP2 ISZERO DUP1 ISZERO SWAP1 PUSH2 0x1767 JUMPI POP PUSH2 0x3FFF DUP3 GT ISZERO JUMPDEST PUSH2 0x1770 JUMPI PUSH1 0x0 DUP1 REVERT JUMPDEST PUSH1 0x80 DUP4 ADD MLOAD PUSH1 0x60 DUP5 ADD MLOAD PUSH2 0xFFFF AND DUP4 EQ ISZERO PUSH2 0x178F JUMPI PUSH1 0x1 SWAP2 POP POP PUSH2 0x9AA JUMP JUMPDEST PUSH1 0x1 PUSH1 0x1 PUSH1 0x70 SHL SUB NOT DUP2 AND ISZERO PUSH2 0x17D4 JUMPI PUSH1 0xF0 DUP2 SWAP1 SHR PUSH2 0x3FFF AND DUP4 DUP2 EQ ISZERO PUSH2 0x17C1 JUMPI POP PUSH1 0x1 PUSH1 0xFE SHL SWAP1 DUP2 AND EQ SWAP1 POP PUSH2 0x9AA JUMP JUMPDEST POP PUSH1 0x10 SHL PUSH1 0x1 PUSH1 0x1 PUSH1 0x80 SHL SUB NOT AND PUSH2 0x178F JUMP JUMPDEST POP PUSH1 0x0 SWAP4 SWAP3 POP POP POP JUMP JUMPDEST PUSH1 0x0 DUP1 PUSH1 0x0 DUP1 PUSH1 0x0 PUSH2 0x17EE PUSH2 0x25D5 JUMP JUMPDEST PUSH1 0x1 PUSH1 0x1 PUSH1 0xA0 SHL SUB DUP10 AND PUSH1 0x0 SWAP1 DUP2 MSTORE PUSH1 0x20 DUP3 DUP2 MSTORE PUSH1 0x40 DUP1 DUP4 KECCAK256 PUSH2 0xFFFF DUP13 AND DUP5 MSTORE SWAP1 SWAP2 MSTORE SWAP1 KECCAK256 DUP1 SLOAD PUSH1 0x1 PUSH1 0x1 PUSH1 0x50 SHL SUB DUP2 AND SWAP7 POP PUSH1 0x1 PUSH1 0x50 SHL SWAP1 DIV PUSH4 0xFFFFFFFF AND SWAP5 POP SWAP1 SWAP2 POP DUP4 ISZERO PUSH2 0x185B JUMPI DUP1 SLOAD PUSH2 0x1854 SWAP1 PUSH1 0x1 PUSH1 0x70 SHL SWAP1 DIV PUSH7 0xFFFFFFFFFFFFFF AND PUSH2 0x1E46 JUMP JUMPDEST SWAP3 POP PUSH2 0x1870 JUMP JUMPDEST DUP1 SLOAD PUSH1 0x1 PUSH1 0x70 SHL SWAP1 DIV PUSH7 0xFFFFFFFFFFFFFF AND SWAP3 POP JUMPDEST DUP1 SLOAD PUSH2 0x188B SWAP1 DUP9 SWAP1 PUSH1 0x1 PUSH1 0xA8 SHL SWAP1 DIV PUSH1 0xA SWAP1 DUP2 SIGNEXTEND SWAP1 SIGNEXTEND PUSH2 0x25E2 JUMP JUMPDEST SWAP6 POP POP POP SWAP4 POP SWAP4 POP SWAP4 POP SWAP4 JUMP JUMPDEST PUSH1 0x0 DUP4 PUSH2 0x18A7 JUMPI POP PUSH1 0x0 PUSH2 0x1938 JUMP JUMPDEST PUSH1 0x0 DUP5 SLT PUSH2 0x18B4 JUMPI PUSH1 0x0 DUP1 REVERT JUMPDEST PUSH1 0x0 PUSH2 0x18C3 DUP7 PUSH2 0xFFFF AND PUSH2 0x1B8F JUMP JUMPDEST SWAP1 POP PUSH2 0x18D8 DUP2 PUSH2 0x18D3 DUP7 DUP9 PUSH2 0x1E54 JUMP JUMPDEST PUSH2 0x2610 JUMP JUMPDEST SWAP2 POP PUSH1 0x0 PUSH2 0x18E5 DUP4 PUSH2 0x99C JUMP JUMPDEST SWAP1 POP PUSH2 0x18F2 DUP8 DUP4 DUP4 PUSH2 0x2648 JUMP JUMPDEST PUSH1 0x3 DUP3 PUSH1 0x60 ADD MLOAD PUSH1 0x5 DUP2 GT ISZERO PUSH2 0x1904 JUMPI INVALID JUMPDEST EQ ISZERO PUSH2 0x191A JUMPI PUSH2 0x1915 DUP9 DUP3 DUP7 PUSH2 0x1BA2 JUMP JUMPDEST PUSH2 0x1927 JUMP JUMPDEST DUP2 MLOAD PUSH2 0x1927 SWAP1 DUP10 DUP4 PUSH2 0x2740 JUMP JUMPDEST PUSH2 0x1934 DUP9 DUP9 DUP6 DUP6 DUP10 PUSH2 0x1DF2 JUMP JUMPDEST POP POP POP JUMPDEST SWAP6 SWAP5 POP POP POP POP POP JUMP JUMPDEST DUP3 MLOAD PUSH1 0x0 SWAP1 TIMESTAMP SWAP1 DUP3 SWAP1 PUSH2 0x1957 SWAP1 PUSH2 0xFFFF AND PUSH2 0xCEB JUMP JUMPDEST SWAP1 POP PUSH1 0x0 PUSH2 0x196A DUP3 DUP9 PUSH1 0xC0 ADD MLOAD DUP6 PUSH2 0x27B7 JUMP JUMPDEST SWAP1 POP PUSH2 0x1978 DUP8 DUP4 DUP4 DUP9 PUSH2 0x289A JUMP JUMPDEST SWAP4 POP PUSH1 0x0 PUSH2 0x1985 DUP4 PUSH2 0x29C7 JUMP JUMPDEST SWAP1 POP PUSH1 0x1 PUSH1 0x1 PUSH1 0xA0 SHL SUB DUP2 AND ISZERO PUSH2 0x1A13 JUMPI DUP1 PUSH1 0x1 PUSH1 0x1 PUSH1 0xA0 SHL SUB AND PUSH4 0x1D684DD2 DUP9 DUP11 PUSH1 0x0 ADD MLOAD PUSH2 0x19B8 DUP13 PUSH1 0x40 ADD MLOAD PUSH2 0xAE8 JUMP JUMPDEST DUP11 DUP14 PUSH1 0xC0 ADD MLOAD DUP12 PUSH1 0x40 MLOAD DUP8 PUSH4 0xFFFFFFFF AND PUSH1 0xE0 SHL DUP2 MSTORE PUSH1 0x4 ADD PUSH2 0x19E0 SWAP7 SWAP6 SWAP5 SWAP4 SWAP3 SWAP2 SWAP1 PUSH2 0x49C7 JUMP JUMPDEST PUSH1 0x0 PUSH1 0x40 MLOAD DUP1 DUP4 SUB DUP2 PUSH1 0x0 DUP8 DUP1 EXTCODESIZE ISZERO DUP1 ISZERO PUSH2 0x19FA JUMPI PUSH1 0x0 DUP1 REVERT JUMPDEST POP GAS CALL ISZERO DUP1 ISZERO PUSH2 0x1A0E JUMPI RETURNDATASIZE PUSH1 0x0 DUP1 RETURNDATACOPY RETURNDATASIZE PUSH1 0x0 REVERT JUMPDEST POP POP POP POP JUMPDEST DUP5 ISZERO PUSH2 0x1A23 JUMPI PUSH2 0x1A23 DUP8 DUP7 PUSH2 0x2A39 JUMP JUMPDEST POP POP POP POP SWAP4 SWAP3 POP POP POP JUMP JUMPDEST PUSH1 0x0 PUSH2 0x1A38 PUSH2 0x25D5 JUMP JUMPDEST PUSH1 0x1 PUSH1 0x1 PUSH1 0xA0 SHL SUB DUP10 AND PUSH1 0x0 SWAP1 DUP2 MSTORE PUSH1 0x20 DUP3 DUP2 MSTORE PUSH1 0x40 DUP1 DUP4 KECCAK256 PUSH2 0xFFFF DUP13 AND DUP5 MSTORE SWAP1 SWAP2 MSTORE SWAP1 KECCAK256 SWAP1 SWAP2 POP DUP5 PUSH2 0x1AA0 JUMPI PUSH7 0xFFFFFFFFFFFFFF DUP5 GT ISZERO PUSH2 0x1A79 JUMPI PUSH1 0x0 DUP1 REVERT JUMPDEST DUP1 SLOAD PUSH7 0xFFFFFFFFFFFFFF PUSH1 0x70 SHL NOT AND PUSH1 0x1 PUSH1 0x70 SHL PUSH7 0xFFFFFFFFFFFFFF DUP7 AND MUL OR DUP2 SSTORE PUSH2 0x1ABA JUMP JUMPDEST DUP1 SLOAD PUSH1 0x1 PUSH1 0x50 SHL SWAP1 DIV PUSH4 0xFFFFFFFF AND DUP6 EQ PUSH2 0x1ABA JUMPI PUSH1 0x0 DUP1 REVERT JUMPDEST PUSH2 0x1AC3 DUP6 PUSH2 0x2A58 JUMP JUMPDEST DUP2 SLOAD PUSH4 0xFFFFFFFF SWAP2 SWAP1 SWAP2 AND PUSH1 0x1 PUSH1 0x50 SHL MUL PUSH4 0xFFFFFFFF PUSH1 0x50 SHL NOT SWAP1 SWAP2 AND OR DUP2 SSTORE PUSH2 0x1AF4 PUSH2 0x1AEF DUP8 PUSH2 0xAE8 JUMP JUMPDEST PUSH2 0x2A6B JUMP JUMPDEST DUP2 SLOAD PUSH10 0xFFFFFFFFFFFFFFFFFFFF NOT AND PUSH1 0x1 PUSH1 0x1 PUSH1 0x50 SHL SUB SWAP2 SWAP1 SWAP2 AND OR DUP1 DUP3 SSTORE PUSH2 0x1B3A SWAP1 PUSH2 0x1B35 SWAP1 DUP6 SWAP1 DUP13 SWAP1 DUP13 SWAP1 PUSH1 0x1 PUSH1 0xA8 SHL SWAP1 DIV PUSH1 0xA SWAP1 DUP2 SIGNEXTEND SWAP1 SIGNEXTEND DUP13 PUSH2 0x2A81 JUMP JUMPDEST PUSH2 0x2AA4 JUMP JUMPDEST DUP2 SLOAD PUSH1 0xA SWAP2 SWAP1 SWAP2 SIGNEXTEND PUSH1 0x1 PUSH1 0x1 PUSH1 0x58 SHL SUB AND PUSH1 0x1 PUSH1 0xA8 SHL MUL PUSH1 0x1 PUSH1 0x1 PUSH1 0xA8 SHL SUB SWAP1 SWAP2 AND OR SWAP1 SSTORE POP POP POP POP POP POP POP POP JUMP JUMPDEST PUSH1 0x0 PUSH3 0xF4240 DUP3 PUSH1 0x26 DUP2 GT ISZERO PUSH2 0x1B7B JUMPI INVALID JUMPDEST ADD SWAP3 SWAP2 POP POP JUMP JUMPDEST PUSH1 0x0 DUP1 PUSH2 0x9AA PUSH1 0x2 PUSH2 0x1B69 JUMP JUMPDEST PUSH2 0x1B97 PUSH2 0x411C JUMP JUMPDEST PUSH2 0x9AA DUP3 PUSH1 0x1 PUSH2 0x1E86 JUMP JUMPDEST DUP1 ISZERO PUSH2 0x1C34 JUMPI PUSH20 0x4B9C40DF01BDC99DD2C31AE4B232F20F4BBAC5B PUSH1 0x1 PUSH1 0x1 PUSH1 0xA0 SHL SUB AND PUSH4 0xD0E30DB0 DUP4 PUSH1 0x40 MLOAD DUP3 PUSH4 0xFFFFFFFF AND PUSH1 0xE0 SHL DUP2 MSTORE PUSH1 0x4 ADD PUSH1 0x0 PUSH1 0x40 MLOAD DUP1 DUP4 SUB DUP2 DUP6 DUP9 DUP1 EXTCODESIZE ISZERO DUP1 ISZERO PUSH2 0x1BF7 JUMPI PUSH1 0x0 DUP1 REVERT JUMPDEST POP GAS CALL ISZERO DUP1 ISZERO PUSH2 0x1C0B JUMPI RETURNDATASIZE PUSH1 0x0 DUP1 RETURNDATACOPY RETURNDATASIZE PUSH1 0x0 REVERT JUMPDEST POP POP POP POP POP PUSH2 0x1C2F PUSH20 0x4B9C40DF01BDC99DD2C31AE4B232F20F4BBAC5B DUP5 DUP5 PUSH2 0x2740 JUMP JUMPDEST PUSH2 0x7A9 JUMP JUMPDEST PUSH1 0x40 MLOAD PUSH1 0x1 PUSH1 0x1 PUSH1 0xA0 SHL SUB DUP5 AND SWAP1 DUP4 ISZERO PUSH2 0x8FC MUL SWAP1 DUP5 SWAP1 PUSH1 0x0 DUP2 DUP2 DUP2 DUP6 DUP9 DUP9 CALL SWAP4 POP POP POP POP ISZERO DUP1 ISZERO PUSH2 0x996 JUMPI RETURNDATASIZE PUSH1 0x0 DUP1 RETURNDATACOPY RETURNDATASIZE PUSH1 0x0 REVERT JUMPDEST PUSH1 0x0 DUP1 DUP5 PUSH1 0x1 PUSH1 0x1 PUSH1 0xA0 SHL SUB AND PUSH4 0x70A08231 ADDRESS PUSH1 0x40 MLOAD DUP3 PUSH4 0xFFFFFFFF AND PUSH1 0xE0 SHL DUP2 MSTORE PUSH1 0x4 ADD DUP1 DUP3 PUSH1 0x1 PUSH1 0x1 PUSH1 0xA0 SHL SUB AND DUP2 MSTORE PUSH1 0x20 ADD SWAP2 POP POP PUSH1 0x20 PUSH1 0x40 MLOAD DUP1 DUP4 SUB DUP2 DUP7 DUP1 EXTCODESIZE ISZERO DUP1 ISZERO PUSH2 0x1CBA JUMPI PUSH1 0x0 DUP1 REVERT JUMPDEST POP GAS STATICCALL ISZERO DUP1 ISZERO PUSH2 0x1CCE JUMPI RETURNDATASIZE PUSH1 0x0 DUP1 RETURNDATACOPY RETURNDATASIZE PUSH1 0x0 REVERT JUMPDEST POP POP POP POP PUSH1 0x40 MLOAD RETURNDATASIZE PUSH1 0x20 DUP2 LT ISZERO PUSH2 0x1CE4 JUMPI PUSH1 0x0 DUP1 REVERT JUMPDEST POP MLOAD PUSH1 0x40 DUP1 MLOAD PUSH4 0x23B872DD PUSH1 0xE0 SHL DUP2 MSTORE PUSH1 0x1 PUSH1 0x1 PUSH1 0xA0 SHL SUB DUP8 DUP2 AND PUSH1 0x4 DUP4 ADD MSTORE ADDRESS PUSH1 0x24 DUP4 ADD MSTORE PUSH1 0x44 DUP3 ADD DUP8 SWAP1 MSTORE SWAP2 MLOAD SWAP3 SWAP4 POP SWAP1 DUP8 AND SWAP2 PUSH4 0x23B872DD SWAP2 PUSH1 0x64 DUP1 DUP3 ADD SWAP3 PUSH1 0x0 SWAP3 SWAP1 SWAP2 SWAP1 DUP3 SWAP1 SUB ADD DUP2 DUP4 DUP8 DUP1 EXTCODESIZE ISZERO DUP1 ISZERO PUSH2 0x1D41 JUMPI PUSH1 0x0 DUP1 REVERT JUMPDEST POP GAS CALL ISZERO DUP1 ISZERO PUSH2 0x1D55 JUMPI RETURNDATASIZE PUSH1 0x0 DUP1 RETURNDATACOPY RETURNDATASIZE PUSH1 0x0 REVERT JUMPDEST POP POP POP POP PUSH2 0x1D61 PUSH2 0x2AD6 JUMP JUMPDEST PUSH1 0x0 DUP6 PUSH1 0x1 PUSH1 0x1 PUSH1 0xA0 SHL SUB AND PUSH4 0x70A08231 ADDRESS PUSH1 0x40 MLOAD DUP3 PUSH4 0xFFFFFFFF AND PUSH1 0xE0 SHL DUP2 MSTORE PUSH1 0x4 ADD DUP1 DUP3 PUSH1 0x1 PUSH1 0x1 PUSH1 0xA0 SHL SUB AND DUP2 MSTORE PUSH1 0x20 ADD SWAP2 POP POP PUSH1 0x20 PUSH1 0x40 MLOAD DUP1 DUP4 SUB DUP2 DUP7 DUP1 EXTCODESIZE ISZERO DUP1 ISZERO PUSH2 0x1DB0 JUMPI PUSH1 0x0 DUP1 REVERT JUMPDEST POP GAS STATICCALL ISZERO DUP1 ISZERO PUSH2 0x1DC4 JUMPI RETURNDATASIZE PUSH1 0x0 DUP1 RETURNDATACOPY RETURNDATASIZE PUSH1 0x0 REVERT JUMPDEST POP POP POP POP PUSH1 0x40 MLOAD RETURNDATASIZE PUSH1 0x20 DUP2 LT ISZERO PUSH2 0x1DDA JUMPI PUSH1 0x0 DUP1 REVERT JUMPDEST POP MLOAD SWAP1 POP PUSH2 0x1DE8 DUP2 DUP4 PUSH2 0x2B43 JUMP JUMPDEST SWAP7 SWAP6 POP POP POP POP POP POP JUMP JUMPDEST PUSH1 0x0 DUP1 PUSH2 0x1DFF DUP5 DUP7 PUSH2 0x2B58 JUMP JUMPDEST SWAP1 POP PUSH2 0x1E0B DUP4 DUP3 PUSH2 0x2B88 JUMP JUMPDEST SWAP2 POP PUSH2 0x1E18 DUP8 DUP8 DUP5 PUSH2 0x2BAA JUMP JUMPDEST PUSH2 0x1E23 DUP7 DUP4 DUP4 PUSH2 0x2C2A JUMP JUMPDEST DUP4 MLOAD PUSH2 0x1E2F SWAP1 DUP7 PUSH2 0x2D36 JUMP JUMPDEST POP SWAP6 SWAP5 POP POP POP POP POP JUMP JUMPDEST PUSH1 0x0 DUP1 PUSH2 0x9AA PUSH1 0x1D PUSH2 0x1B69 JUMP JUMPDEST PUSH1 0x8 DUP2 SWAP1 SHR PUSH1 0xFF SWAP1 SWAP2 AND SHL SWAP1 JUMP JUMPDEST PUSH1 0x0 PUSH2 0xEDE PUSH15 0xC097CE7BC90715B34B9F1000000000 PUSH2 0x1E80 DUP6 PUSH1 0x0 ADD MLOAD DUP6 PUSH2 0xFF3 SWAP1 SWAP2 SWAP1 PUSH4 0xFFFFFFFF AND JUMP JUMPDEST SWAP1 PUSH2 0x2D8B JUMP JUMPDEST PUSH2 0x1E8E PUSH2 0x411C JUMP JUMPDEST PUSH1 0x0 PUSH2 0x1E98 PUSH2 0x2DBC JUMP JUMPDEST PUSH1 0x0 DUP6 DUP2 MSTORE PUSH1 0x20 DUP3 DUP2 MSTORE PUSH1 0x40 DUP1 DUP4 KECCAK256 DUP8 ISZERO ISZERO DUP5 MSTORE DUP3 MSTORE SWAP2 DUP3 SWAP1 KECCAK256 DUP3 MLOAD PUSH1 0xA0 DUP2 ADD DUP5 MSTORE DUP2 SLOAD PUSH1 0x1 PUSH1 0x1 PUSH1 0xA0 SHL SUB DUP2 AND DUP3 MSTORE PUSH1 0xFF PUSH1 0x1 PUSH1 0xA0 SHL DUP3 DIV DUP2 AND ISZERO ISZERO SWAP5 DUP4 ADD SWAP5 SWAP1 SWAP5 MSTORE PUSH1 0x1 PUSH1 0xB0 SHL DUP2 DIV DUP5 AND PUSH1 0xA EXP SWAP5 DUP3 ADD SWAP5 SWAP1 SWAP5 MSTORE SWAP4 SWAP5 POP SWAP3 SWAP2 PUSH1 0x60 DUP4 ADD SWAP2 PUSH1 0x1 PUSH1 0xA8 SHL SWAP1 SWAP2 DIV AND PUSH1 0x5 DUP2 GT ISZERO PUSH2 0x1F0D JUMPI INVALID JUMPDEST DUP2 MSTORE PUSH1 0x0 PUSH1 0x20 SWAP1 SWAP2 ADD MSTORE SWAP6 SWAP5 POP POP POP POP POP JUMP JUMPDEST DUP2 MLOAD PUSH1 0x40 MLOAD PUSH4 0xDB006A75 PUSH1 0xE0 SHL DUP2 MSTORE PUSH1 0x0 SWAP2 SELFBALANCE SWAP2 DUP4 SWAP2 PUSH1 0x1 PUSH1 0x1 PUSH1 0xA0 SHL SUB AND SWAP1 PUSH4 0xDB006A75 SWAP1 PUSH2 0x1F54 SWAP1 DUP8 SWAP1 PUSH1 0x4 ADD PUSH2 0x4C3C JUMP JUMPDEST PUSH1 0x20 PUSH1 0x40 MLOAD DUP1 DUP4 SUB DUP2 PUSH1 0x0 DUP8 DUP1 EXTCODESIZE ISZERO DUP1 ISZERO PUSH2 0x1F6E JUMPI PUSH1 0x0 DUP1 REVERT JUMPDEST POP GAS CALL ISZERO DUP1 ISZERO PUSH2 0x1F82 JUMPI RETURNDATASIZE PUSH1 0x0 DUP1 RETURNDATACOPY RETURNDATASIZE PUSH1 0x0 REVERT JUMPDEST POP POP POP POP PUSH1 0x40 MLOAD RETURNDATASIZE PUSH1 0x1F NOT PUSH1 0x1F DUP3 ADD AND DUP3 ADD DUP1 PUSH1 0x40 MSTORE POP DUP2 ADD SWAP1 PUSH2 0x1FA6 SWAP2 SWAP1 PUSH2 0x47D2 JUMP JUMPDEST SWAP1 POP DUP1 ISZERO PUSH2 0x1FC6 JUMPI PUSH1 0x40 MLOAD PUSH3 0x461BCD PUSH1 0xE5 SHL DUP2 MSTORE PUSH1 0x4 ADD PUSH2 0x258 SWAP1 PUSH2 0x4A8D JUMP JUMPDEST SELFBALANCE PUSH2 0x1DE8 DUP2 DUP5 PUSH2 0x2B43 JUMP JUMPDEST PUSH1 0x0 DUP1 DUP4 PUSH1 0x0 ADD MLOAD PUSH1 0x1 PUSH1 0x1 PUSH1 0xA0 SHL SUB AND PUSH4 0x70A08231 ADDRESS PUSH1 0x40 MLOAD DUP3 PUSH4 0xFFFFFFFF AND PUSH1 0xE0 SHL DUP2 MSTORE PUSH1 0x4 ADD PUSH2 0x2004 SWAP2 SWAP1 PUSH2 0x4868 JUMP JUMPDEST PUSH1 0x20 PUSH1 0x40 MLOAD DUP1 DUP4 SUB DUP2 DUP7 DUP1 EXTCODESIZE ISZERO DUP1 ISZERO PUSH2 0x201C JUMPI PUSH1 0x0 DUP1 REVERT JUMPDEST POP GAS STATICCALL ISZERO DUP1 ISZERO PUSH2 0x2030 JUMPI RETURNDATASIZE PUSH1 0x0 DUP1 RETURNDATACOPY RETURNDATASIZE PUSH1 0x0 REVERT JUMPDEST POP POP POP POP PUSH1 0x40 MLOAD RETURNDATASIZE PUSH1 0x1F NOT PUSH1 0x1F DUP3 ADD AND DUP3 ADD DUP1 PUSH1 0x40 MSTORE POP DUP2 ADD SWAP1 PUSH2 0x2054 SWAP2 SWAP1 PUSH2 0x47D2 JUMP JUMPDEST SWAP1 POP PUSH1 0x0 DUP6 PUSH1 0x0 ADD MLOAD PUSH1 0x1 PUSH1 0x1 PUSH1 0xA0 SHL SUB AND PUSH4 0xDB006A75 DUP6 PUSH1 0x40 MLOAD DUP3 PUSH4 0xFFFFFFFF AND PUSH1 0xE0 SHL DUP2 MSTORE PUSH1 0x4 ADD PUSH2 0x2088 SWAP2 SWAP1 PUSH2 0x4C3C JUMP JUMPDEST PUSH1 0x20 PUSH1 0x40 MLOAD DUP1 DUP4 SUB DUP2 PUSH1 0x0 DUP8 DUP1 EXTCODESIZE ISZERO DUP1 ISZERO PUSH2 0x20A2 JUMPI PUSH1 0x0 DUP1 REVERT JUMPDEST POP GAS CALL ISZERO DUP1 ISZERO PUSH2 0x20B6 JUMPI RETURNDATASIZE PUSH1 0x0 DUP1 RETURNDATACOPY RETURNDATASIZE PUSH1 0x0 REVERT JUMPDEST POP POP POP POP PUSH1 0x40 MLOAD RETURNDATASIZE PUSH1 0x1F NOT PUSH1 0x1F DUP3 ADD AND DUP3 ADD DUP1 PUSH1 0x40 MSTORE POP DUP2 ADD SWAP1 PUSH2 0x20DA SWAP2 SWAP1 PUSH2 0x47D2 JUMP JUMPDEST SWAP1 POP DUP1 ISZERO PUSH2 0x20FA JUMPI PUSH1 0x40 MLOAD PUSH3 0x461BCD PUSH1 0xE5 SHL DUP2 MSTORE PUSH1 0x4 ADD PUSH2 0x258 SWAP1 PUSH2 0x4A8D JUMP JUMPDEST DUP5 MLOAD PUSH1 0x40 MLOAD PUSH4 0x70A08231 PUSH1 0xE0 SHL DUP2 MSTORE PUSH1 0x0 SWAP2 PUSH1 0x1 PUSH1 0x1 PUSH1 0xA0 SHL SUB AND SWAP1 PUSH4 0x70A08231 SWAP1 PUSH2 0x212A SWAP1 ADDRESS SWAP1 PUSH1 0x4 ADD PUSH2 0x4868 JUMP JUMPDEST PUSH1 0x20 PUSH1 0x40 MLOAD DUP1 DUP4 SUB DUP2 DUP7 DUP1 EXTCODESIZE ISZERO DUP1 ISZERO PUSH2 0x2142 JUMPI PUSH1 0x0 DUP1 REVERT JUMPDEST POP GAS STATICCALL ISZERO DUP1 ISZERO PUSH2 0x2156 JUMPI RETURNDATASIZE PUSH1 0x0 DUP1 RETURNDATACOPY RETURNDATASIZE PUSH1 0x0 REVERT JUMPDEST POP POP POP POP PUSH1 0x40 MLOAD RETURNDATASIZE PUSH1 0x1F NOT PUSH1 0x1F DUP3 ADD AND DUP3 ADD DUP1 PUSH1 0x40 MSTORE POP DUP2 ADD SWAP1 PUSH2 0x217A SWAP2 SWAP1 PUSH2 0x47D2 JUMP JUMPDEST SWAP1 POP PUSH2 0x2186 DUP2 DUP5 PUSH2 0x2B43 JUMP JUMPDEST SWAP8 SWAP7 POP POP POP POP POP POP POP JUMP JUMPDEST PUSH2 0x2199 PUSH2 0x414B JUMP JUMPDEST PUSH1 0x0 PUSH2 0x21A3 PUSH2 0x1E39 JUMP JUMPDEST PUSH2 0xFFFF SWAP4 DUP5 AND PUSH1 0x0 SWAP1 DUP2 MSTORE PUSH1 0x20 SWAP2 DUP3 MSTORE PUSH1 0x40 SWAP1 DUP2 SWAP1 KECCAK256 DUP1 SLOAD PUSH5 0xFFFFFFFFFF DUP2 AND DUP7 MSTORE PUSH1 0x1 PUSH1 0x28 SHL DUP2 DIV PUSH1 0x1 PUSH1 0x1 PUSH1 0x58 SHL SUB SWAP1 DUP2 AND SWAP5 DUP8 ADD SWAP5 SWAP1 SWAP5 MSTORE PUSH1 0x1 DUP3 ADD SLOAD DUP5 AND SWAP3 DUP7 ADD SWAP3 SWAP1 SWAP3 MSTORE PUSH1 0x1 PUSH1 0xD8 SHL DUP3 DIV PUSH4 0xFFFFFFFF AND PUSH1 0x60 DUP7 ADD MSTORE PUSH1 0x1 PUSH1 0x80 SHL SWAP1 SWAP2 DIV SWAP1 SWAP2 AND PUSH1 0x80 DUP5 ADD MSTORE PUSH1 0x2 ADD SLOAD PUSH1 0x1 PUSH1 0x1 PUSH1 0x50 SHL SUB DUP1 DUP3 AND PUSH1 0xA0 DUP6 ADD MSTORE PUSH1 0x1 PUSH1 0x50 SHL DUP3 DIV DUP2 AND PUSH1 0xC0 DUP6 ADD MSTORE PUSH1 0x1 PUSH1 0xA0 SHL DUP3 DIV AND PUSH1 0xE0 DUP5 ADD MSTORE PUSH1 0x1 PUSH1 0xF0 SHL SWAP1 DIV PUSH1 0xFF AND PUSH2 0x12C MUL SWAP1 SWAP3 AND PUSH2 0x100 DUP3 ADD MSTORE SWAP2 SWAP1 POP JUMP JUMPDEST PUSH1 0x0 DUP1 PUSH2 0x2265 DUP4 PUSH2 0x2DC9 JUMP JUMPDEST PUSH1 0x1 PUSH1 0x1 PUSH1 0xA0 SHL SUB AND PUSH4 0xEF81F216 PUSH1 0x40 MLOAD DUP2 PUSH4 0xFFFFFFFF AND PUSH1 0xE0 SHL DUP2 MSTORE PUSH1 0x4 ADD PUSH1 0x40 DUP1 MLOAD DUP1 DUP4 SUB DUP2 PUSH1 0x0 DUP8 DUP1 EXTCODESIZE ISZERO DUP1 ISZERO PUSH2 0x229E JUMPI PUSH1 0x0 DUP1 REVERT JUMPDEST POP GAS CALL ISZERO DUP1 ISZERO PUSH2 0x22B2 JUMPI RETURNDATASIZE PUSH1 0x0 DUP1 RETURNDATACOPY RETURNDATASIZE PUSH1 0x0 REVERT JUMPDEST POP POP POP POP PUSH1 0x40 MLOAD RETURNDATASIZE PUSH1 0x1F NOT PUSH1 0x1F DUP3 ADD AND DUP3 ADD DUP1 PUSH1 0x40 MSTORE POP DUP2 ADD SWAP1 PUSH2 0x9C3 SWAP2 SWAP1 PUSH2 0x47EA JUMP JUMPDEST PUSH2 0x22DE PUSH2 0x414B JUMP JUMPDEST PUSH1 0x0 DUP1 PUSH1 0x0 PUSH2 0x22EE DUP9 DUP7 DUP10 PUSH2 0x2DF9 JUMP JUMPDEST PUSH1 0xC0 DUP12 ADD SWAP3 SWAP1 SWAP3 MSTORE PUSH1 0xE0 DUP11 ADD SWAP3 SWAP1 SWAP3 MSTORE PUSH1 0x20 DUP10 ADD MLOAD SWAP2 SWAP4 POP SWAP2 POP PUSH2 0x2312 SWAP1 DUP4 PUSH2 0x2F04 JUMP JUMPDEST PUSH1 0x20 DUP9 ADD MSTORE PUSH1 0x80 DUP8 ADD MLOAD PUSH1 0x0 SWAP1 ISZERO PUSH2 0x2340 JUMPI PUSH1 0x80 DUP9 ADD MLOAD PUSH2 0x233D SWAP1 PUSH2 0x2337 DUP10 DUP3 PUSH2 0x2B43 JUMP JUMPDEST SWAP1 PUSH2 0x2F16 JUMP JUMPDEST SWAP1 POP JUMPDEST PUSH2 0x2360 PUSH2 0x2355 PUSH8 0xDE0B6B3A7640000 DUP4 PUSH2 0x2F04 JUMP JUMPDEST PUSH1 0xA0 DUP11 ADD MLOAD SWAP1 PUSH2 0x2F33 JUMP JUMPDEST PUSH1 0xA0 DUP10 ADD MSTORE POP POP PUSH1 0x80 DUP7 ADD SWAP5 SWAP1 SWAP5 MSTORE POP POP DUP3 MSTORE SWAP1 SWAP3 SWAP1 SWAP2 POP JUMP JUMPDEST PUSH1 0x0 PUSH2 0x2384 PUSH2 0x1E39 JUMP JUMPDEST PUSH1 0x0 DUP6 PUSH2 0xFFFF AND DUP2 MSTORE PUSH1 0x20 ADD SWAP1 DUP2 MSTORE PUSH1 0x20 ADD PUSH1 0x0 KECCAK256 SWAP1 POP PUSH2 0x23A8 DUP3 PUSH1 0x0 ADD MLOAD PUSH2 0x2F50 JUMP JUMPDEST DUP2 SLOAD PUSH5 0xFFFFFFFFFF NOT AND PUSH5 0xFFFFFFFFFF SWAP2 SWAP1 SWAP2 AND OR DUP2 SSTORE PUSH1 0xA0 DUP3 ADD MLOAD PUSH2 0x23CD SWAP1 PUSH2 0x2A6B JUMP JUMPDEST PUSH1 0x2 DUP3 ADD DUP1 SLOAD PUSH10 0xFFFFFFFFFFFFFFFFFFFF NOT AND PUSH1 0x1 PUSH1 0x1 PUSH1 0x50 SHL SUB SWAP3 SWAP1 SWAP3 AND SWAP2 SWAP1 SWAP2 OR SWAP1 SSTORE PUSH1 0xC0 DUP3 ADD MLOAD PUSH2 0x2400 SWAP1 PUSH2 0x2A6B JUMP JUMPDEST DUP2 PUSH1 0x2 ADD PUSH1 0xA PUSH2 0x100 EXP DUP2 SLOAD DUP2 PUSH1 0x1 PUSH1 0x1 PUSH1 0x50 SHL SUB MUL NOT AND SWAP1 DUP4 PUSH1 0x1 PUSH1 0x1 PUSH1 0x50 SHL SUB AND MUL OR SWAP1 SSTORE POP PUSH2 0x2435 DUP3 PUSH1 0xE0 ADD MLOAD PUSH2 0x2A6B JUMP JUMPDEST DUP2 PUSH1 0x2 ADD PUSH1 0x14 PUSH2 0x100 EXP DUP2 SLOAD DUP2 PUSH1 0x1 PUSH1 0x1 PUSH1 0x50 SHL SUB MUL NOT AND SWAP1 DUP4 PUSH1 0x1 PUSH1 0x1 PUSH1 0x50 SHL SUB AND MUL OR SWAP1 SSTORE POP PUSH2 0x246A DUP3 PUSH1 0x20 ADD MLOAD PUSH2 0x2F64 JUMP JUMPDEST DUP2 SLOAD PUSH1 0x1 PUSH1 0x1 PUSH1 0x58 SHL SUB SWAP2 SWAP1 SWAP2 AND PUSH1 0x1 PUSH1 0x28 SHL MUL PUSH16 0xFFFFFFFFFFFFFFFFFFFFFF0000000000 NOT SWAP1 SWAP2 AND OR DUP2 SSTORE PUSH1 0x40 DUP3 ADD MLOAD PUSH2 0x24A4 SWAP1 PUSH2 0x2F64 JUMP JUMPDEST PUSH1 0x1 DUP3 ADD DUP1 SLOAD PUSH11 0xFFFFFFFFFFFFFFFFFFFFFF NOT AND PUSH1 0x1 PUSH1 0x1 PUSH1 0x58 SHL SUB SWAP3 SWAP1 SWAP3 AND SWAP2 SWAP1 SWAP2 OR SWAP1 SSTORE PUSH1 0x80 DUP3 ADD MLOAD PUSH2 0x24D8 SWAP1 PUSH2 0x2F64 JUMP JUMPDEST DUP2 SLOAD PUSH1 0x1 PUSH1 0x1 PUSH1 0x58 SHL SUB SWAP2 SWAP1 SWAP2 AND PUSH1 0x1 PUSH1 0x80 SHL MUL PUSH11 0xFFFFFFFFFFFFFFFFFFFFFF PUSH1 0x80 SHL NOT SWAP1 SWAP2 AND OR DUP2 SSTORE PUSH1 0x60 DUP3 ADD MLOAD PUSH2 0x2510 SWAP1 PUSH2 0x2A58 JUMP JUMPDEST DUP2 SLOAD PUSH4 0xFFFFFFFF SWAP2 SWAP1 SWAP2 AND PUSH1 0x1 PUSH1 0xD8 SHL MUL PUSH4 0xFFFFFFFF PUSH1 0xD8 SHL NOT SWAP1 SWAP2 AND OR DUP2 SSTORE DUP3 ISZERO PUSH2 0x255C JUMPI PUSH1 0x0 PUSH2 0x2541 DUP5 PUSH2 0xC24 JUMP JUMPDEST SWAP1 POP PUSH2 0x254D DUP6 DUP3 PUSH2 0x2F7A JUMP JUMPDEST PUSH2 0x255A PUSH2 0xFEE DUP7 DUP4 PUSH2 0x2BAA JUMP JUMPDEST POP JUMPDEST DUP4 PUSH2 0xFFFF AND PUSH32 0xEF25641E225E493886510CA1AD6584FA7B442B9FEA820A29D1DE3CE27D270FD2 DUP4 PUSH1 0xA0 ADD MLOAD DUP5 PUSH1 0xC0 ADD MLOAD DUP6 PUSH1 0xE0 ADD MLOAD PUSH1 0x40 MLOAD PUSH2 0x25A0 SWAP4 SWAP3 SWAP2 SWAP1 PUSH2 0x4C45 JUMP JUMPDEST PUSH1 0x40 MLOAD DUP1 SWAP2 SUB SWAP1 LOG2 POP POP POP POP JUMP JUMPDEST PUSH1 0x0 DUP3 PUSH2 0x25BD JUMPI POP PUSH1 0x0 PUSH2 0x9AA JUMP JUMPDEST DUP3 DUP3 MUL DUP3 DUP5 DUP3 DUP2 PUSH2 0x25CA JUMPI INVALID JUMPDEST DIV EQ PUSH2 0xEDE JUMPI PUSH1 0x0 DUP1 REVERT JUMPDEST PUSH1 0x0 DUP1 PUSH2 0x9AA PUSH1 0x6 PUSH2 0x1B69 JUMP JUMPDEST PUSH1 0x0 DUP1 DUP3 SLT PUSH2 0x25F2 JUMPI POP DUP1 PUSH2 0x9AA JUMP JUMPDEST DUP3 MLOAD PUSH1 0x20 DUP5 ADD MLOAD PUSH2 0x2609 SWAP2 SWAP1 PUSH2 0x1E80 SWAP1 DUP6 SWAP1 PUSH2 0xFF3 JUMP JUMPDEST SWAP1 POP PUSH2 0x9AA JUMP JUMPDEST PUSH1 0x0 PUSH4 0x5F5E100 DUP4 PUSH1 0x40 ADD MLOAD EQ ISZERO PUSH2 0x2629 JUMPI POP DUP1 PUSH2 0x9AA JUMP JUMPDEST PUSH2 0xEDE PUSH4 0x5F5E100 PUSH2 0x1E80 DUP6 PUSH1 0x40 ADD MLOAD DUP6 PUSH2 0xFF3 SWAP1 SWAP2 SWAP1 PUSH4 0xFFFFFFFF AND JUMP JUMPDEST PUSH1 0x0 PUSH2 0x2652 PUSH2 0x2FB1 JUMP JUMPDEST DUP4 MLOAD PUSH1 0x1 PUSH1 0x1 PUSH1 0xA0 SHL SUB AND PUSH1 0x0 SWAP1 DUP2 MSTORE PUSH1 0x20 DUP3 SWAP1 MSTORE PUSH1 0x40 SWAP1 KECCAK256 SLOAD SWAP1 SWAP2 POP DUP1 DUP4 GT PUSH2 0x267D JUMPI POP POP PUSH2 0x7A9 JUMP JUMPDEST PUSH1 0x0 PUSH2 0x2688 DUP7 PUSH2 0x2DC9 JUMP JUMPDEST SWAP1 POP PUSH1 0x0 DUP2 PUSH1 0x1 PUSH1 0x1 PUSH1 0xA0 SHL SUB AND PUSH4 0xB5E4DA23 DUP5 DUP8 SUB PUSH1 0x40 MLOAD DUP3 PUSH4 0xFFFFFFFF AND PUSH1 0xE0 SHL DUP2 MSTORE PUSH1 0x4 ADD PUSH2 0x26BA SWAP2 SWAP1 PUSH2 0x4C3C JUMP JUMPDEST PUSH1 0x0 PUSH1 0x40 MLOAD DUP1 DUP4 SUB DUP2 DUP7 DUP1 EXTCODESIZE ISZERO DUP1 ISZERO PUSH2 0x26D2 JUMPI PUSH1 0x0 DUP1 REVERT JUMPDEST POP GAS STATICCALL ISZERO DUP1 ISZERO PUSH2 0x26E6 JUMPI RETURNDATASIZE PUSH1 0x0 DUP1 RETURNDATACOPY RETURNDATASIZE PUSH1 0x0 REVERT JUMPDEST POP POP POP POP PUSH1 0x40 MLOAD RETURNDATASIZE PUSH1 0x0 DUP3 RETURNDATACOPY PUSH1 0x1F RETURNDATASIZE SWAP1 DUP2 ADD PUSH1 0x1F NOT AND DUP3 ADD PUSH1 0x40 MSTORE PUSH2 0x270E SWAP2 SWAP1 DUP2 ADD SWAP1 PUSH2 0x448A JUMP JUMPDEST SWAP1 POP PUSH1 0x0 PUSH2 0x271C DUP8 DUP4 PUSH2 0x2FBE JUMP JUMPDEST SWAP2 POP PUSH2 0x272A SWAP1 POP DUP5 DUP3 PUSH2 0x2F04 JUMP JUMPDEST DUP7 GT ISZERO PUSH2 0x2736 JUMPI PUSH1 0x0 DUP1 REVERT JUMPDEST POP POP POP POP POP POP POP POP JUMP JUMPDEST DUP3 PUSH1 0x1 PUSH1 0x1 PUSH1 0xA0 SHL SUB AND PUSH4 0xA9059CBB DUP4 DUP4 PUSH1 0x40 MLOAD DUP4 PUSH4 0xFFFFFFFF AND PUSH1 0xE0 SHL DUP2 MSTORE PUSH1 0x4 ADD DUP1 DUP4 PUSH1 0x1 PUSH1 0x1 PUSH1 0xA0 SHL SUB AND DUP2 MSTORE PUSH1 0x20 ADD DUP3 DUP2 MSTORE PUSH1 0x20 ADD SWAP3 POP POP POP PUSH1 0x0 PUSH1 0x40 MLOAD DUP1 DUP4 SUB DUP2 PUSH1 0x0 DUP8 DUP1 EXTCODESIZE ISZERO DUP1 ISZERO PUSH2 0x2797 JUMPI PUSH1 0x0 DUP1 REVERT JUMPDEST POP GAS CALL ISZERO DUP1 ISZERO PUSH2 0x27AB JUMPI RETURNDATASIZE PUSH1 0x0 DUP1 RETURNDATACOPY RETURNDATASIZE PUSH1 0x0 REVERT JUMPDEST POP POP POP POP PUSH2 0x7A9 PUSH2 0x2AD6 JUMP JUMPDEST PUSH1 0x0 DUP1 PUSH1 0x0 PUSH2 0x27C6 DUP7 DUP6 PUSH2 0x31D5 JUMP JUMPDEST POP SWAP2 POP SWAP2 POP PUSH1 0x0 PUSH2 0x27D5 PUSH2 0x326B JUMP JUMPDEST PUSH1 0x1 PUSH1 0x1 PUSH1 0xA0 SHL SUB DUP9 AND PUSH1 0x0 SWAP1 DUP2 MSTORE PUSH1 0x20 DUP3 SWAP1 MSTORE PUSH1 0x40 DUP2 KECCAK256 SWAP2 SWAP3 POP PUSH2 0x27FA DUP6 DUP10 PUSH2 0x132F JUMP JUMPDEST SWAP1 POP DUP1 PUSH1 0x0 SGT ISZERO DUP1 ISZERO PUSH2 0x2813 JUMPI POP PUSH1 0x1 PUSH1 0x1 PUSH1 0x60 SHL SUB DUP2 LT JUMPDEST PUSH2 0x281C JUMPI PUSH1 0x0 DUP1 REVERT JUMPDEST DUP2 SLOAD PUSH12 0xFFFFFFFFFFFFFFFFFFFFFFFF NOT AND PUSH1 0x1 PUSH1 0x1 PUSH1 0x60 SHL SUB DUP3 AND OR PUSH16 0xFFFFFFFFFFFFFFFFFFFFFFFFFFFFFFFF PUSH1 0x60 SHL NOT AND PUSH1 0x1 PUSH1 0x60 SHL PUSH1 0x1 PUSH1 0x1 PUSH1 0x80 SHL SUB DUP7 AND MUL OR DUP3 SSTORE PUSH4 0xFFFFFFFF DUP8 LT PUSH2 0x2871 JUMPI PUSH1 0x0 DUP1 REVERT JUMPDEST POP DUP1 SLOAD PUSH4 0xFFFFFFFF DUP8 AND PUSH1 0x1 PUSH1 0xE0 SHL MUL PUSH1 0x1 PUSH1 0x1 PUSH1 0xE0 SHL SUB SWAP1 SWAP2 AND OR SWAP1 SSTORE POP SWAP2 POP POP SWAP4 SWAP3 POP POP POP JUMP JUMPDEST PUSH1 0xE0 DUP5 ADD MLOAD PUSH1 0x0 SWAP1 ISZERO PUSH2 0x295B JUMPI PUSH20 0x0 PUSH4 0xE0C01A72 DUP6 PUSH2 0x28CF DUP9 PUSH1 0x40 ADD MLOAD PUSH2 0xAE8 JUMP JUMPDEST DUP9 PUSH1 0xE0 ADD MLOAD DUP10 PUSH2 0x100 ADD MLOAD PUSH1 0x40 MLOAD DUP6 PUSH4 0xFFFFFFFF AND PUSH1 0xE0 SHL DUP2 MSTORE PUSH1 0x4 ADD PUSH2 0x28F9 SWAP5 SWAP4 SWAP3 SWAP2 SWAP1 PUSH2 0x49FE JUMP JUMPDEST PUSH1 0x20 PUSH1 0x40 MLOAD DUP1 DUP4 SUB DUP2 DUP7 DUP1 EXTCODESIZE ISZERO DUP1 ISZERO PUSH2 0x2911 JUMPI PUSH1 0x0 DUP1 REVERT JUMPDEST POP GAS DELEGATECALL ISZERO DUP1 ISZERO PUSH2 0x2925 JUMPI RETURNDATASIZE PUSH1 0x0 DUP1 RETURNDATACOPY RETURNDATASIZE PUSH1 0x0 REVERT JUMPDEST POP POP POP POP PUSH1 0x40 MLOAD RETURNDATASIZE PUSH1 0x1F NOT PUSH1 0x1F DUP3 ADD AND DUP3 ADD DUP1 PUSH1 0x40 MSTORE POP DUP2 ADD SWAP1 PUSH2 0x2949 SWAP2 SWAP1 PUSH2 0x47D2 JUMP JUMPDEST PUSH1 0x0 PUSH1 0xE0 DUP8 ADD DUP2 SWAP1 MSTORE PUSH2 0x100 DUP8 ADD MSTORE SWAP1 POP JUMPDEST PUSH2 0x299D PUSH2 0x2996 DUP7 PUSH2 0x100 ADD MLOAD PUSH2 0x2990 PUSH8 0xDE0B6B3A7640000 PUSH2 0x298A DUP9 PUSH2 0x2984 DUP13 PUSH1 0x40 ADD MLOAD PUSH2 0xAE8 JUMP JUMPDEST SWAP1 PUSH2 0x25AE JUMP JUMPDEST SWAP1 PUSH2 0x3278 JUMP JUMPDEST SWAP1 PUSH2 0x2B43 JUMP JUMPDEST DUP3 SWAP1 PUSH2 0x2F04 JUMP JUMPDEST SWAP1 POP PUSH2 0x29B5 PUSH8 0xDE0B6B3A7640000 PUSH2 0x298A DUP5 DUP7 PUSH2 0x25AE JUMP JUMPDEST DUP6 PUSH2 0x100 ADD DUP2 DUP2 MSTORE POP POP SWAP5 SWAP4 POP POP POP POP JUMP JUMPDEST PUSH1 0x0 DUP1 PUSH2 0x29D2 PUSH2 0x1B82 JUMP JUMPDEST PUSH1 0x1 PUSH1 0x1 PUSH1 0xA0 SHL SUB DUP5 AND PUSH1 0x0 SWAP1 DUP2 MSTORE PUSH1 0x20 DUP3 SWAP1 MSTORE PUSH1 0x40 SWAP1 KECCAK256 DUP1 SLOAD SWAP2 SWAP3 POP SWAP1 PUSH1 0x1 PUSH1 0xF8 SHL SWAP1 DIV PUSH1 0xFF AND ISZERO PUSH2 0x2A2E JUMPI PUSH2 0x2A07 PUSH2 0x3297 JUMP JUMPDEST PUSH1 0x1 PUSH1 0x1 PUSH1 0xA0 SHL SUB DUP1 DUP7 AND PUSH1 0x0 SWAP1 DUP2 MSTORE PUSH1 0x20 SWAP3 SWAP1 SWAP3 MSTORE PUSH1 0x40 SWAP1 SWAP2 KECCAK256 SLOAD AND SWAP3 POP PUSH2 0x8B1 SWAP2 POP POP JUMP JUMPDEST PUSH1 0x0 SWAP3 POP POP POP PUSH2 0x8B1 JUMP JUMPDEST PUSH2 0x498 PUSH20 0xC5E91B01F9B23952821410BE7AA3C45B6429C670 DUP4 DUP4 PUSH2 0x2740 JUMP JUMPDEST PUSH1 0x0 PUSH4 0xFFFFFFFF DUP3 GT ISZERO PUSH2 0xAF7 JUMPI PUSH1 0x0 DUP1 REVERT JUMPDEST PUSH1 0x0 PUSH1 0x1 PUSH1 0x1 PUSH1 0x50 SHL SUB DUP3 GT ISZERO PUSH2 0xAF7 JUMPI PUSH1 0x0 DUP1 REVERT JUMPDEST PUSH1 0x0 PUSH2 0x2A8D DUP7 DUP4 PUSH2 0x32A4 JUMP JUMPDEST SWAP1 POP PUSH2 0x1938 DUP7 DUP7 DUP7 PUSH2 0x2A9F DUP8 DUP7 PUSH2 0x32E3 JUMP JUMPDEST PUSH2 0x336A JUMP JUMPDEST PUSH1 0x0 PUSH11 0x7FFFFFFFFFFFFFFFFFFFFF NOT DUP3 SLT DUP1 ISZERO SWAP1 PUSH2 0x2ACD JUMPI POP PUSH11 0x7FFFFFFFFFFFFFFFFFFFFF DUP3 SGT ISZERO JUMPDEST PUSH2 0xAF7 JUMPI PUSH1 0x0 DUP1 REVERT JUMPDEST PUSH1 0x0 PUSH2 0x2AE0 PUSH2 0x4197 JUMP JUMPDEST RETURNDATASIZE DUP1 ISZERO PUSH2 0x2AF4 JUMPI PUSH1 0x20 DUP2 EQ PUSH2 0x2AFD JUMPI PUSH1 0x0 DUP1 REVERT JUMPDEST PUSH1 0x1 SWAP3 POP PUSH2 0x2B08 JUMP JUMPDEST PUSH1 0x20 PUSH1 0x0 DUP4 RETURNDATACOPY DUP2 MLOAD SWAP3 POP JUMPDEST POP DUP2 PUSH2 0x498 JUMPI PUSH1 0x40 DUP1 MLOAD PUSH3 0x461BCD PUSH1 0xE5 SHL DUP2 MSTORE PUSH1 0x20 PUSH1 0x4 DUP3 ADD MSTORE PUSH1 0x5 PUSH1 0x24 DUP3 ADD MSTORE PUSH5 0x455243323 PUSH1 0xDC SHL PUSH1 0x44 DUP3 ADD MSTORE SWAP1 MLOAD SWAP1 DUP2 SWAP1 SUB PUSH1 0x64 ADD SWAP1 REVERT JUMPDEST PUSH1 0x0 DUP3 DUP3 GT ISZERO PUSH2 0x2B52 JUMPI PUSH1 0x0 DUP1 REVERT JUMPDEST POP SWAP1 SUB SWAP1 JUMP JUMPDEST PUSH1 0x0 PUSH4 0x5F5E100 DUP4 PUSH1 0x40 ADD MLOAD EQ ISZERO PUSH2 0x2B71 JUMPI POP DUP1 PUSH2 0x9AA JUMP JUMPDEST PUSH1 0x40 DUP4 ADD MLOAD PUSH2 0xEDE SWAP1 PUSH2 0x1E80 DUP5 PUSH4 0x5F5E100 PUSH2 0xFF3 JUMP JUMPDEST DUP2 MLOAD PUSH1 0x0 SWAP1 PUSH2 0xEDE SWAP1 PUSH2 0x1E80 DUP5 PUSH15 0xC097CE7BC90715B34B9F1000000000 PUSH2 0xFF3 JUMP JUMPDEST PUSH1 0x0 PUSH2 0x2BB4 PUSH2 0x339E JUMP JUMPDEST PUSH2 0xFFFF DUP5 AND PUSH1 0x0 SWAP1 DUP2 MSTORE PUSH1 0x20 SWAP2 SWAP1 SWAP2 MSTORE PUSH1 0x40 SWAP1 DUP2 SWAP1 KECCAK256 SLOAD SWAP1 MLOAD PUSH4 0xAD1C095D PUSH1 0xE0 SHL DUP2 MSTORE PUSH1 0x1 PUSH1 0x1 PUSH1 0xA0 SHL SUB SWAP1 SWAP2 AND SWAP2 POP DUP2 SWAP1 PUSH4 0xAD1C095D SWAP1 PUSH2 0x2BFC SWAP1 DUP8 SWAP1 DUP7 SWAP1 PUSH1 0x4 ADD PUSH2 0x495B JUMP JUMPDEST PUSH1 0x0 PUSH1 0x40 MLOAD DUP1 DUP4 SUB DUP2 PUSH1 0x0 DUP8 DUP1 EXTCODESIZE ISZERO DUP1 ISZERO PUSH2 0x2C16 JUMPI PUSH1 0x0 DUP1 REVERT JUMPDEST POP GAS CALL ISZERO DUP1 ISZERO PUSH2 0x2736 JUMPI RETURNDATASIZE PUSH1 0x0 DUP1 RETURNDATACOPY RETURNDATASIZE PUSH1 0x0 REVERT JUMPDEST PUSH1 0x0 PUSH2 0x2C34 PUSH2 0x1E39 JUMP JUMPDEST PUSH2 0xFFFF DUP6 AND PUSH1 0x0 SWAP1 DUP2 MSTORE PUSH1 0x20 SWAP2 SWAP1 SWAP2 MSTORE PUSH1 0x40 SWAP1 KECCAK256 DUP1 SLOAD SWAP1 SWAP2 POP PUSH5 0xFFFFFFFFFF AND TIMESTAMP EQ PUSH2 0x2C5F JUMPI PUSH1 0x0 DUP1 REVERT JUMPDEST DUP1 SLOAD PUSH1 0x0 SWAP1 PUSH2 0x2C7E SWAP1 PUSH1 0x1 PUSH1 0x28 SHL SWAP1 DIV PUSH1 0x1 PUSH1 0x1 PUSH1 0x58 SHL SUB AND DUP6 PUSH2 0x132F JUMP JUMPDEST DUP3 SLOAD SWAP1 SWAP2 POP PUSH1 0x0 SWAP1 PUSH2 0x2CA0 SWAP1 PUSH1 0x1 PUSH1 0x80 SHL SWAP1 DIV PUSH1 0x1 PUSH1 0x1 PUSH1 0x58 SHL SUB AND DUP6 PUSH2 0x132F JUMP JUMPDEST SWAP1 POP DUP1 PUSH3 0x4C4B40 SGT ISZERO PUSH2 0x2CB2 JUMPI PUSH1 0x0 DUP1 REVERT JUMPDEST PUSH2 0x2CC3 PUSH2 0x2CBE DUP3 PUSH2 0xAE8 JUMP JUMPDEST PUSH2 0x2F64 JUMP JUMPDEST DUP4 SLOAD PUSH1 0x1 PUSH1 0x1 PUSH1 0x58 SHL SUB SWAP2 SWAP1 SWAP2 AND PUSH1 0x1 PUSH1 0x80 SHL MUL PUSH11 0xFFFFFFFFFFFFFFFFFFFFFF PUSH1 0x80 SHL NOT SWAP1 SWAP2 AND OR DUP4 SSTORE PUSH2 0x2CF9 PUSH2 0x2CBE DUP4 PUSH2 0xAE8 JUMP JUMPDEST DUP4 SLOAD PUSH1 0x1 PUSH1 0x1 PUSH1 0x58 SHL SUB SWAP2 SWAP1 SWAP2 AND PUSH1 0x1 PUSH1 0x28 SHL MUL PUSH16 0xFFFFFFFFFFFFFFFFFFFFFF0000000000 NOT SWAP1 SWAP2 AND OR DUP4 SSTORE PUSH2 0x2D2E DUP4 PUSH2 0x33AB JUMP JUMPDEST POP POP POP POP POP POP JUMP JUMPDEST PUSH1 0x0 PUSH2 0x2D40 PUSH2 0x2FB1 JUMP JUMPDEST PUSH1 0x1 PUSH1 0x1 PUSH1 0xA0 SHL SUB DUP5 AND PUSH1 0x0 SWAP1 DUP2 MSTORE PUSH1 0x20 DUP3 SWAP1 MSTORE PUSH1 0x40 SWAP1 KECCAK256 SLOAD SWAP1 SWAP2 POP PUSH2 0x2D69 PUSH2 0x385 DUP3 DUP6 PUSH2 0x132F JUMP JUMPDEST PUSH1 0x1 PUSH1 0x1 PUSH1 0xA0 SHL SUB SWAP1 SWAP5 AND PUSH1 0x0 SWAP1 DUP2 MSTORE PUSH1 0x20 SWAP3 SWAP1 SWAP3 MSTORE POP PUSH1 0x40 SWAP1 KECCAK256 SWAP2 SWAP1 SWAP2 SSTORE POP JUMP JUMPDEST PUSH1 0x0 DUP2 PUSH1 0x0 NOT EQ DUP1 ISZERO PUSH2 0x2DA1 JUMPI POP PUSH1 0x1 PUSH1 0xFF SHL DUP4 EQ JUMPDEST ISZERO PUSH2 0x2DAB JUMPI PUSH1 0x0 DUP1 REVERT JUMPDEST DUP2 DUP4 DUP2 PUSH2 0x2DB4 JUMPI INVALID JUMPDEST SDIV SWAP4 SWAP3 POP POP POP JUMP JUMPDEST PUSH1 0x0 DUP1 PUSH2 0x9AA PUSH1 0x7 PUSH2 0x1B69 JUMP JUMPDEST PUSH1 0x0 DUP1 PUSH2 0x2DD4 PUSH2 0x3476 JUMP JUMPDEST PUSH2 0xFFFF SWAP4 SWAP1 SWAP4 AND PUSH1 0x0 SWAP1 DUP2 MSTORE PUSH1 0x20 SWAP4 SWAP1 SWAP4 MSTORE POP POP PUSH1 0x40 SWAP1 KECCAK256 SLOAD PUSH1 0x1 PUSH1 0x1 PUSH1 0xA0 SHL SUB AND SWAP1 JUMP JUMPDEST PUSH1 0x0 DUP1 PUSH1 0x0 DUP1 PUSH1 0x0 DUP1 PUSH2 0x2E0C DUP10 DUP9 PUSH2 0x3483 JUMP JUMPDEST DUP10 MLOAD SWAP1 SWAP6 POP SWAP2 SWAP4 POP SWAP2 POP PUSH1 0x0 SWAP1 PUSH2 0x2E33 SWAP1 PUSH2 0x2E28 SWAP1 DUP12 SWAP1 PUSH2 0x2B43 JUMP JUMPDEST PUSH4 0x3B9ACA00 SWAP1 PUSH2 0x25AE JUMP JUMPDEST SWAP1 POP PUSH2 0x2E6D PUSH2 0x2E62 PUSH4 0x1DA9C00 PUSH2 0x2E4A DUP6 DUP6 PUSH2 0x25AE JUMP JUMPDEST DUP2 PUSH2 0x2E51 JUMPI INVALID JUMPDEST PUSH8 0xDE0B6B3A7640000 SWAP2 SWAP1 DIV PUSH2 0x2F04 JUMP JUMPDEST PUSH1 0xE0 DUP11 ADD MLOAD SWAP1 PUSH2 0x2F33 JUMP JUMPDEST SWAP7 POP PUSH2 0x2E8F PUSH2 0x2E84 PUSH4 0x1DA9C00 PUSH2 0x2E4A DUP8 DUP6 PUSH2 0x25AE JUMP JUMPDEST PUSH1 0xC0 DUP11 ADD MLOAD SWAP1 PUSH2 0x2F33 JUMP JUMPDEST SWAP6 POP DUP2 DUP4 EQ ISZERO PUSH2 0x2EA6 JUMPI POP PUSH1 0x0 SWAP4 POP PUSH2 0x2EFB SWAP2 POP POP JUMP JUMPDEST PUSH1 0x0 PUSH2 0x2EC8 PUSH2 0x2EBD PUSH4 0x1DA9C00 PUSH2 0x2E4A DUP8 DUP7 PUSH2 0x25AE JUMP JUMPDEST PUSH1 0xE0 DUP12 ADD MLOAD SWAP1 PUSH2 0x2F33 JUMP JUMPDEST SWAP1 POP PUSH1 0x0 PUSH2 0x2ED6 DUP10 DUP4 PUSH2 0x2B43 JUMP JUMPDEST SWAP1 POP PUSH2 0x2EF3 DUP9 PUSH2 0x298A DUP4 DUP14 PUSH1 0x40 ADD MLOAD PUSH2 0x25AE SWAP1 SWAP2 SWAP1 PUSH4 0xFFFFFFFF AND JUMP JUMPDEST SWAP7 POP POP POP POP POP POP JUMPDEST SWAP4 POP SWAP4 POP SWAP4 POP SWAP4 JUMP JUMPDEST PUSH1 0x0 DUP3 DUP3 ADD DUP4 DUP2 LT ISZERO PUSH2 0xEDE JUMPI PUSH1 0x0 DUP1 REVERT JUMPDEST PUSH1 0x0 PUSH2 0xEDE PUSH2 0x2F2D DUP5 PUSH8 0xDE0B6B3A7640000 PUSH2 0x25AE JUMP JUMPDEST DUP4 PUSH2 0x3278 JUMP JUMPDEST PUSH1 0x0 PUSH2 0xEDE PUSH2 0x2F42 DUP5 DUP5 PUSH2 0x25AE JUMP JUMPDEST PUSH8 0xDE0B6B3A7640000 PUSH2 0x3278 JUMP JUMPDEST PUSH1 0x0 PUSH5 0xFFFFFFFFFF DUP3 GT ISZERO PUSH2 0xAF7 JUMPI PUSH1 0x0 DUP1 REVERT JUMPDEST PUSH1 0x0 PUSH1 0x1 PUSH1 0x1 PUSH1 0x58 SHL SUB DUP3 GT ISZERO PUSH2 0xAF7 JUMPI PUSH1 0x0 DUP1 REVERT JUMPDEST PUSH1 0x0 DUP2 SLT ISZERO PUSH2 0x2F88 JUMPI PUSH1 0x0 DUP1 REVERT JUMPDEST PUSH1 0x0 PUSH2 0x2F96 PUSH2 0xFEE DUP5 PUSH2 0x351D JUMP JUMPDEST SWAP1 POP PUSH2 0x2FA2 DUP2 DUP4 PUSH2 0x132F JUMP JUMPDEST SWAP1 POP PUSH2 0x7A9 PUSH2 0xFEE DUP5 DUP4 PUSH2 0x3576 JUMP JUMPDEST PUSH1 0x0 DUP1 PUSH2 0x9AA PUSH1 0x26 PUSH2 0x1B69 JUMP JUMPDEST PUSH1 0x0 DUP1 PUSH1 0x0 JUMPDEST DUP4 MLOAD DUP2 LT ISZERO PUSH2 0x31CD JUMPI PUSH1 0x0 DUP5 DUP3 DUP2 MLOAD DUP2 LT PUSH2 0x2FDB JUMPI INVALID JUMPDEST PUSH1 0x20 MUL PUSH1 0x20 ADD ADD MLOAD SWAP1 POP PUSH1 0x0 DUP2 PUSH1 0x60 ADD MLOAD PUSH1 0x1 PUSH1 0x1 PUSH1 0xA0 SHL SUB AND PUSH4 0x70A08231 ADDRESS PUSH1 0x40 MLOAD DUP3 PUSH4 0xFFFFFFFF AND PUSH1 0xE0 SHL DUP2 MSTORE PUSH1 0x4 ADD PUSH2 0x3017 SWAP2 SWAP1 PUSH2 0x4868 JUMP JUMPDEST PUSH1 0x20 PUSH1 0x40 MLOAD DUP1 DUP4 SUB DUP2 DUP7 DUP1 EXTCODESIZE ISZERO DUP1 ISZERO PUSH2 0x302F JUMPI PUSH1 0x0 DUP1 REVERT JUMPDEST POP GAS STATICCALL ISZERO DUP1 ISZERO PUSH2 0x3043 JUMPI RETURNDATASIZE PUSH1 0x0 DUP1 RETURNDATACOPY RETURNDATASIZE PUSH1 0x0 REVERT JUMPDEST POP POP POP POP PUSH1 0x40 MLOAD RETURNDATASIZE PUSH1 0x1F NOT PUSH1 0x1F DUP3 ADD AND DUP3 ADD DUP1 PUSH1 0x40 MSTORE POP DUP2 ADD SWAP1 PUSH2 0x3067 SWAP2 SWAP1 PUSH2 0x47D2 JUMP JUMPDEST SWAP1 POP PUSH1 0x0 PUSH2 0x3075 DUP9 ADDRESS PUSH2 0x35EA JUMP JUMPDEST SWAP1 POP PUSH1 0x0 JUMPDEST DUP4 MLOAD MLOAD DUP2 LT ISZERO PUSH2 0x30D1 JUMPI PUSH2 0x30C0 DUP5 PUSH1 0x0 ADD MLOAD DUP3 DUP2 MLOAD DUP2 LT PUSH2 0x3097 JUMPI INVALID JUMPDEST PUSH1 0x20 MUL PUSH1 0x20 ADD ADD MLOAD PUSH1 0x0 DUP7 PUSH1 0x20 ADD MLOAD DUP5 DUP2 MLOAD DUP2 LT PUSH2 0x30B1 JUMPI INVALID JUMPDEST PUSH1 0x20 MUL PUSH1 0x20 ADD ADD MLOAD PUSH1 0x1 PUSH2 0x3694 JUMP JUMPDEST PUSH2 0x30C9 JUMPI PUSH1 0x1 SWAP7 POP JUMPDEST PUSH1 0x1 ADD PUSH2 0x307A JUMP JUMPDEST POP PUSH1 0x0 PUSH2 0x30DE DUP10 ADDRESS PUSH2 0x35EA JUMP JUMPDEST SWAP1 POP PUSH1 0x0 PUSH2 0x30EC DUP3 DUP5 PUSH2 0x2B43 JUMP JUMPDEST SWAP1 POP DUP1 DUP6 PUSH1 0x40 ADD MLOAD GT ISZERO PUSH2 0x30FF JUMPI PUSH1 0x0 DUP1 REVERT JUMPDEST PUSH1 0x60 DUP6 ADD MLOAD PUSH1 0x40 MLOAD PUSH4 0x70A08231 PUSH1 0xE0 SHL DUP2 MSTORE PUSH1 0x0 SWAP2 PUSH1 0x1 PUSH1 0x1 PUSH1 0xA0 SHL SUB AND SWAP1 PUSH4 0x70A08231 SWAP1 PUSH2 0x3132 SWAP1 ADDRESS SWAP1 PUSH1 0x4 ADD PUSH2 0x4868 JUMP JUMPDEST PUSH1 0x20 PUSH1 0x40 MLOAD DUP1 DUP4 SUB DUP2 DUP7 DUP1 EXTCODESIZE ISZERO DUP1 ISZERO PUSH2 0x314A JUMPI PUSH1 0x0 DUP1 REVERT JUMPDEST POP GAS STATICCALL ISZERO DUP1 ISZERO PUSH2 0x315E JUMPI RETURNDATASIZE PUSH1 0x0 DUP1 RETURNDATACOPY RETURNDATASIZE PUSH1 0x0 REVERT JUMPDEST POP POP POP POP PUSH1 0x40 MLOAD RETURNDATASIZE PUSH1 0x1F NOT PUSH1 0x1F DUP3 ADD AND DUP3 ADD DUP1 PUSH1 0x40 MSTORE POP DUP2 ADD SWAP1 PUSH2 0x3182 SWAP2 SWAP1 PUSH2 0x47D2 JUMP JUMPDEST SWAP1 POP DUP5 DUP2 GT ISZERO PUSH2 0x3191 JUMPI PUSH1 0x0 DUP1 REVERT JUMPDEST PUSH2 0x31A0 DUP7 PUSH1 0x60 ADD MLOAD DUP7 DUP4 PUSH2 0x3902 JUMP JUMPDEST PUSH2 0x31AA DUP9 DUP4 PUSH2 0x2F04 JUMP JUMPDEST SWAP8 POP PUSH2 0x31BB DUP12 PUSH1 0x0 ADD MLOAD DUP6 DUP6 PUSH2 0x3902 JUMP JUMPDEST POP POP PUSH1 0x1 SWAP1 SWAP5 ADD SWAP4 POP PUSH2 0x2FC4 SWAP3 POP POP POP JUMP JUMPDEST POP SWAP3 POP SWAP3 SWAP1 POP JUMP JUMPDEST PUSH1 0x0 DUP1 PUSH1 0x0 PUSH2 0x31E3 DUP6 PUSH2 0x397F JUMP JUMPDEST SWAP2 SWAP5 POP SWAP3 POP SWAP1 POP DUP1 DUP5 GT DUP1 ISZERO PUSH2 0x31F9 JUMPI POP PUSH1 0x0 DUP2 GT JUMPDEST DUP1 ISZERO PUSH2 0x3205 JUMPI POP PUSH1 0x0 DUP4 GT JUMPDEST ISZERO PUSH2 0x3264 JUMPI PUSH1 0x0 PUSH2 0x3215 DUP7 PUSH2 0x1204 JUMP JUMPDEST POP POP POP SWAP2 POP POP PUSH1 0x0 PUSH2 0x3240 PUSH2 0x3237 PUSH4 0x5F5E100 DUP5 PUSH2 0x25AE SWAP1 SWAP2 SWAP1 PUSH4 0xFFFFFFFF AND JUMP JUMPDEST DUP5 DUP9 SUB DUP8 PUSH2 0x39DB JUMP JUMPDEST SWAP1 POP PUSH2 0x324C DUP5 DUP3 PUSH2 0x2F04 JUMP JUMPDEST SWAP4 POP PUSH1 0x1 PUSH1 0x1 PUSH1 0x80 SHL SUB DUP5 LT PUSH2 0x3261 JUMPI PUSH1 0x0 DUP1 REVERT JUMPDEST POP POP JUMPDEST SWAP3 POP SWAP3 POP SWAP3 JUMP JUMPDEST PUSH1 0x0 DUP1 PUSH2 0x9AA PUSH1 0x11 PUSH2 0x1B69 JUMP JUMPDEST PUSH1 0x0 DUP1 DUP3 GT PUSH2 0x3286 JUMPI PUSH1 0x0 DUP1 REVERT JUMPDEST DUP2 DUP4 DUP2 PUSH2 0x328F JUMPI INVALID JUMPDEST DIV SWAP4 SWAP3 POP POP POP JUMP JUMPDEST PUSH1 0x0 DUP1 PUSH2 0x9AA PUSH1 0x12 PUSH2 0x1B69 JUMP JUMPDEST PUSH1 0x0 DUP1 DUP3 SLT ISZERO PUSH2 0x32DD JUMPI PUSH2 0x32D8 PUSH1 0x1 PUSH2 0x32D2 DUP6 PUSH1 0x20 ADD MLOAD PUSH2 0x1E80 DUP8 PUSH1 0x0 ADD MLOAD DUP8 PUSH2 0xFF3 SWAP1 SWAP2 SWAP1 PUSH4 0xFFFFFFFF AND JUMP JUMPDEST SWAP1 PUSH2 0x39FD JUMP JUMPDEST PUSH2 0xEDE JUMP JUMPDEST POP SWAP2 SWAP1 POP JUMP JUMPDEST PUSH1 0x0 DUP2 DUP4 EQ DUP1 PUSH2 0x3300 JUMPI POP PUSH1 0x0 DUP4 SLT ISZERO DUP1 ISZERO PUSH2 0x3300 JUMPI POP PUSH1 0x0 DUP3 SLT ISZERO JUMPDEST ISZERO PUSH2 0x330D JUMPI POP PUSH1 0x0 PUSH2 0x9AA JUMP JUMPDEST PUSH1 0x0 DUP4 SGT ISZERO DUP1 ISZERO PUSH2 0x331E JUMPI POP DUP2 PUSH1 0x0 SLT JUMPDEST ISZERO PUSH2 0x332A JUMPI POP DUP2 PUSH2 0x9AA JUMP JUMPDEST PUSH1 0x0 DUP3 SGT ISZERO DUP1 ISZERO PUSH2 0x333B JUMPI POP DUP3 PUSH1 0x0 SLT JUMPDEST ISZERO PUSH2 0x3349 JUMPI PUSH2 0x2609 DUP3 PUSH2 0x99C JUMP JUMPDEST PUSH1 0x0 DUP4 SGT ISZERO DUP1 ISZERO PUSH2 0x335B JUMPI POP PUSH1 0x0 DUP3 SGT ISZERO JUMPDEST ISZERO PUSH2 0x9C JUMPI PUSH2 0x2609 DUP4 DUP4 PUSH2 0x39FD JUMP JUMPDEST DUP1 ISZERO PUSH2 0x996 JUMPI DUP4 MLOAD PUSH1 0x20 DUP6 ADD MLOAD PUSH1 0x0 SWAP2 PUSH2 0x3389 SWAP2 PUSH2 0x1E80 SWAP1 DUP6 SWAP1 PUSH2 0xFF3 JUMP JUMPDEST SWAP1 POP PUSH2 0x3397 DUP5 DUP5 DUP5 DUP5 PUSH2 0x3A13 JUMP JUMPDEST POP POP POP POP POP JUMP JUMPDEST PUSH1 0x0 DUP1 PUSH2 0x9AA PUSH1 0x21 PUSH2 0x1B69 JUMP JUMPDEST DUP1 SLOAD PUSH1 0x2 DUP3 ADD SLOAD PUSH1 0x0 SWAP2 PUSH2 0x33ED SWAP2 PUSH1 0x1 PUSH1 0x28 SHL SWAP1 SWAP2 DIV PUSH1 0x1 PUSH1 0x1 PUSH1 0x58 SHL SUB AND SWAP1 PUSH2 0x33E7 SWAP1 PUSH1 0x1 PUSH1 0x1 PUSH1 0x50 SHL SUB PUSH1 0x1 PUSH1 0x50 SHL DUP3 DIV DUP2 AND SWAP2 AND PUSH2 0xFF3 JUMP JUMPDEST SWAP1 PUSH2 0xFF3 JUMP JUMPDEST PUSH1 0x1 DUP4 ADD SLOAD PUSH1 0x2 DUP5 ADD SLOAD SWAP2 SWAP3 POP PUSH1 0x0 SWAP2 PUSH2 0x3427 SWAP2 PUSH1 0x1 PUSH1 0x1 PUSH1 0x58 SHL SUB AND SWAP1 PUSH2 0x33E7 SWAP1 PUSH1 0x1 PUSH1 0x1 PUSH1 0x50 SHL SUB PUSH1 0x1 PUSH1 0xA0 SHL DUP3 DIV DUP2 AND SWAP2 AND PUSH2 0xFF3 JUMP JUMPDEST DUP4 SLOAD SWAP1 SWAP2 POP PUSH1 0x0 SWAP1 PUSH2 0x345E SWAP1 PUSH1 0x1 PUSH1 0x1 PUSH1 0x1 PUSH1 0x58 SHL SUB PUSH1 0x1 PUSH1 0x80 SHL SWAP1 SWAP3 DIV DUP3 AND ADD AND PUSH15 0xC097CE7BC90715B34B9F1000000000 PUSH2 0xFF3 JUMP JUMPDEST SWAP1 POP DUP1 PUSH2 0x346B DUP5 DUP5 PUSH2 0x39FD JUMP JUMPDEST SGT ISZERO PUSH2 0x996 JUMPI PUSH1 0x0 DUP1 REVERT JUMPDEST PUSH1 0x0 DUP1 PUSH2 0x9AA PUSH1 0x1F PUSH2 0x1B69 JUMP JUMPDEST PUSH1 0x0 DUP1 PUSH1 0x0 DUP1 PUSH1 0x0 DUP6 PUSH1 0x20 ADD MLOAD GT ISZERO PUSH2 0x34D0 JUMPI PUSH2 0x34CD PUSH2 0x34B4 DUP7 PUSH1 0xC0 ADD MLOAD DUP8 PUSH1 0x20 ADD MLOAD PUSH2 0x25AE SWAP1 SWAP2 SWAP1 PUSH4 0xFFFFFFFF AND JUMP JUMPDEST PUSH1 0xE0 DUP8 ADD MLOAD PUSH1 0x40 DUP9 ADD MLOAD PUSH2 0x34C7 SWAP2 PUSH2 0x25AE JUMP JUMPDEST SWAP1 PUSH2 0x3B59 JUMP JUMPDEST SWAP1 POP JUMPDEST PUSH1 0x0 PUSH2 0x34DB DUP8 PUSH2 0x3B6C JUMP JUMPDEST SWAP1 POP PUSH2 0x34E7 DUP2 DUP4 PUSH2 0x3B9F JUMP JUMPDEST SWAP5 POP DUP2 ISZERO PUSH2 0x34FE JUMPI PUSH2 0x34FB DUP2 DUP7 PUSH1 0x1 PUSH2 0x3C58 JUMP JUMPDEST SWAP4 POP JUMPDEST PUSH1 0x20 DUP7 ADD MLOAD ISZERO PUSH2 0x3261 JUMPI PUSH2 0x3512 DUP6 DUP4 PUSH2 0x3CC9 JUMP JUMPDEST SWAP3 POP POP POP SWAP3 POP SWAP3 POP SWAP3 JUMP JUMPDEST PUSH1 0x0 DUP1 PUSH2 0x3528 PUSH2 0x25D5 JUMP JUMPDEST PUSH1 0x1 PUSH1 0x1 PUSH1 0xA0 SHL SUB DUP6 AND PUSH1 0x0 SWAP1 DUP2 MSTORE PUSH1 0x20 DUP3 DUP2 MSTORE PUSH1 0x40 DUP1 DUP4 KECCAK256 PUSH2 0xFFFF DUP9 AND DUP5 MSTORE SWAP1 SWAP2 MSTORE DUP2 KECCAK256 DUP1 SLOAD PUSH1 0x1 PUSH1 0xA8 SHL SWAP1 DIV PUSH1 0xA SWAP1 DUP2 SIGNEXTEND SWAP1 SIGNEXTEND SWAP5 POP SWAP2 SWAP3 POP DUP4 SLT ISZERO PUSH2 0x356E JUMPI PUSH1 0x0 DUP1 REVERT JUMPDEST POP POP SWAP3 SWAP2 POP POP JUMP JUMPDEST PUSH1 0x0 DUP2 SLT ISZERO PUSH2 0x3584 JUMPI PUSH1 0x0 DUP1 REVERT JUMPDEST PUSH1 0x0 PUSH2 0x358E PUSH2 0x25D5 JUMP JUMPDEST PUSH1 0x1 PUSH1 0x1 PUSH1 0xA0 SHL SUB DUP6 AND PUSH1 0x0 SWAP1 DUP2 MSTORE PUSH1 0x20 DUP3 DUP2 MSTORE PUSH1 0x40 DUP1 DUP4 KECCAK256 PUSH2 0xFFFF DUP9 AND DUP5 MSTORE SWAP1 SWAP2 MSTORE SWAP1 KECCAK256 SWAP1 SWAP2 POP PUSH2 0x35BF DUP4 PUSH2 0x2AA4 JUMP JUMPDEST DUP2 SLOAD PUSH1 0xA SWAP2 SWAP1 SWAP2 SIGNEXTEND PUSH1 0x1 PUSH1 0x1 PUSH1 0x58 SHL SUB AND PUSH1 0x1 PUSH1 0xA8 SHL MUL PUSH1 0x1 PUSH1 0x1 PUSH1 0xA8 SHL SUB SWAP1 SWAP2 AND OR SWAP1 SSTORE POP POP POP POP JUMP JUMPDEST PUSH1 0x0 PUSH1 0x3 DUP4 PUSH1 0x60 ADD MLOAD PUSH1 0x5 DUP2 GT ISZERO PUSH2 0x35FE JUMPI INVALID JUMPDEST EQ ISZERO PUSH2 0x3615 JUMPI POP PUSH1 0x1 PUSH1 0x1 PUSH1 0xA0 SHL SUB DUP2 AND BALANCE PUSH2 0x9AA JUMP JUMPDEST DUP3 MLOAD PUSH1 0x40 MLOAD PUSH4 0x70A08231 PUSH1 0xE0 SHL DUP2 MSTORE PUSH1 0x1 PUSH1 0x1 PUSH1 0xA0 SHL SUB SWAP1 SWAP2 AND SWAP1 PUSH4 0x70A08231 SWAP1 PUSH2 0x3644 SWAP1 DUP6 SWAP1 PUSH1 0x4 ADD PUSH2 0x4868 JUMP JUMPDEST PUSH1 0x20 PUSH1 0x40 MLOAD DUP1 DUP4 SUB DUP2 DUP7 DUP1 EXTCODESIZE ISZERO DUP1 ISZERO PUSH2 0x365C JUMPI PUSH1 0x0 DUP1 REVERT JUMPDEST POP GAS STATICCALL ISZERO DUP1 ISZERO PUSH2 0x3670 JUMPI RETURNDATASIZE PUSH1 0x0 DUP1 RETURNDATACOPY RETURNDATASIZE PUSH1 0x0 REVERT JUMPDEST POP POP POP POP PUSH1 0x40 MLOAD RETURNDATASIZE PUSH1 0x1F NOT PUSH1 0x1F DUP3 ADD AND DUP3 ADD DUP1 PUSH1 0x40 MSTORE POP DUP2 ADD SWAP1 PUSH2 0x2609 SWAP2 SWAP1 PUSH2 0x47D2 JUMP JUMPDEST PUSH1 0x0 DUP1 PUSH1 0x0 DUP7 PUSH1 0x1 PUSH1 0x1 PUSH1 0xA0 SHL SUB AND DUP7 DUP7 PUSH1 0x40 MLOAD DUP1 DUP3 DUP1 MLOAD SWAP1 PUSH1 0x20 ADD SWAP1 DUP1 DUP4 DUP4 JUMPDEST PUSH1 0x20 DUP4 LT PUSH2 0x36D4 JUMPI DUP1 MLOAD DUP3 MSTORE PUSH1 0x1F NOT SWAP1 SWAP3 ADD SWAP2 PUSH1 0x20 SWAP2 DUP3 ADD SWAP2 ADD PUSH2 0x36B5 JUMP JUMPDEST PUSH1 0x1 DUP4 PUSH1 0x20 SUB PUSH2 0x100 EXP SUB DUP1 NOT DUP3 MLOAD AND DUP2 DUP5 MLOAD AND DUP1 DUP3 OR DUP6 MSTORE POP POP POP POP POP POP SWAP1 POP ADD SWAP2 POP POP PUSH1 0x0 PUSH1 0x40 MLOAD DUP1 DUP4 SUB DUP2 DUP6 DUP8 GAS CALL SWAP3 POP POP POP RETURNDATASIZE DUP1 PUSH1 0x0 DUP2 EQ PUSH2 0x3736 JUMPI PUSH1 0x40 MLOAD SWAP2 POP PUSH1 0x1F NOT PUSH1 0x3F RETURNDATASIZE ADD AND DUP3 ADD PUSH1 0x40 MSTORE RETURNDATASIZE DUP3 MSTORE RETURNDATASIZE PUSH1 0x0 PUSH1 0x20 DUP5 ADD RETURNDATACOPY PUSH2 0x373B JUMP JUMPDEST PUSH1 0x60 SWAP2 POP JUMPDEST POP SWAP2 POP SWAP2 POP DUP4 PUSH2 0x37DE JUMPI DUP2 PUSH2 0x374F DUP3 PUSH2 0x3CE2 JUMP JUMPDEST SWAP1 PUSH2 0x37D8 JUMPI PUSH1 0x40 MLOAD PUSH3 0x461BCD PUSH1 0xE5 SHL DUP2 MSTORE PUSH1 0x4 ADD DUP1 DUP1 PUSH1 0x20 ADD DUP3 DUP2 SUB DUP3 MSTORE DUP4 DUP2 DUP2 MLOAD DUP2 MSTORE PUSH1 0x20 ADD SWAP2 POP DUP1 MLOAD SWAP1 PUSH1 0x20 ADD SWAP1 DUP1 DUP4 DUP4 PUSH1 0x0 JUMPDEST DUP4 DUP2 LT ISZERO PUSH2 0x379D JUMPI DUP2 DUP2 ADD MLOAD DUP4 DUP3 ADD MSTORE PUSH1 0x20 ADD PUSH2 0x3785 JUMP JUMPDEST POP POP POP POP SWAP1 POP SWAP1 DUP2 ADD SWAP1 PUSH1 0x1F AND DUP1 ISZERO PUSH2 0x37CA JUMPI DUP1 DUP3 SUB DUP1 MLOAD PUSH1 0x1 DUP4 PUSH1 0x20 SUB PUSH2 0x100 EXP SUB NOT AND DUP2 MSTORE PUSH1 0x20 ADD SWAP2 POP JUMPDEST POP SWAP3 POP POP POP PUSH1 0x40 MLOAD DUP1 SWAP2 SUB SWAP1 REVERT JUMPDEST POP PUSH2 0x1E2F JUMP JUMPDEST DUP7 PUSH1 0x1 PUSH1 0x1 PUSH1 0xA0 SHL SUB AND PUSH32 0x3C7E398C5E91088CAE639370E35B25EA669D81FBDF0DEF5388E73661BC34E08E DUP8 DUP8 PUSH2 0x3814 DUP6 PUSH2 0x3CE2 JUMP JUMPDEST PUSH1 0x40 MLOAD DUP1 DUP5 DUP2 MSTORE PUSH1 0x20 ADD DUP1 PUSH1 0x20 ADD DUP1 PUSH1 0x20 ADD DUP4 DUP2 SUB DUP4 MSTORE DUP6 DUP2 DUP2 MLOAD DUP2 MSTORE PUSH1 0x20 ADD SWAP2 POP DUP1 MLOAD SWAP1 PUSH1 0x20 ADD SWAP1 DUP1 DUP4 DUP4 PUSH1 0x0 JUMPDEST DUP4 DUP2 LT ISZERO PUSH2 0x385B JUMPI DUP2 DUP2 ADD MLOAD DUP4 DUP3 ADD MSTORE PUSH1 0x20 ADD PUSH2 0x3843 JUMP JUMPDEST POP POP POP POP SWAP1 POP SWAP1 DUP2 ADD SWAP1 PUSH1 0x1F AND DUP1 ISZERO PUSH2 0x3888 JUMPI DUP1 DUP3 SUB DUP1 MLOAD PUSH1 0x1 DUP4 PUSH1 0x20 SUB PUSH2 0x100 EXP SUB NOT AND DUP2 MSTORE PUSH1 0x20 ADD SWAP2 POP JUMPDEST POP DUP4 DUP2 SUB DUP3 MSTORE DUP5 MLOAD DUP2 MSTORE DUP5 MLOAD PUSH1 0x20 SWAP2 DUP3 ADD SWAP2 DUP7 ADD SWAP1 DUP1 DUP4 DUP4 PUSH1 0x0 JUMPDEST DUP4 DUP2 LT ISZERO PUSH2 0x38BB JUMPI DUP2 DUP2 ADD MLOAD DUP4 DUP3 ADD MSTORE PUSH1 0x20 ADD PUSH2 0x38A3 JUMP JUMPDEST POP POP POP POP SWAP1 POP SWAP1 DUP2 ADD SWAP1 PUSH1 0x1F AND DUP1 ISZERO PUSH2 0x38E8 JUMPI DUP1 DUP3 SUB DUP1 MLOAD PUSH1 0x1 DUP4 PUSH1 0x20 SUB PUSH2 0x100 EXP SUB NOT AND DUP2 MSTORE PUSH1 0x20 ADD SWAP2 POP JUMPDEST POP SWAP6 POP POP POP POP POP POP PUSH1 0x40 MLOAD DUP1 SWAP2 SUB SWAP1 LOG2 POP SWAP6 SWAP5 POP POP POP POP POP JUMP JUMPDEST PUSH1 0x0 PUSH2 0x390C PUSH2 0x2FB1 JUMP JUMPDEST PUSH1 0x1 PUSH1 0x1 PUSH1 0xA0 SHL SUB DUP6 AND PUSH1 0x0 SWAP1 DUP2 MSTORE PUSH1 0x20 DUP3 SWAP1 MSTORE PUSH1 0x40 SWAP1 KECCAK256 SLOAD SWAP1 SWAP2 POP DUP4 DUP2 GT ISZERO PUSH2 0x3935 JUMPI PUSH1 0x0 DUP1 REVERT JUMPDEST PUSH1 0x0 PUSH2 0x394C PUSH2 0x3943 DUP7 PUSH2 0xC24 JUMP JUMPDEST PUSH2 0x32D2 DUP7 PUSH2 0xC24 JUMP JUMPDEST SWAP1 POP PUSH2 0x395B PUSH2 0x385 DUP4 DUP4 PUSH2 0x132F JUMP JUMPDEST PUSH1 0x1 PUSH1 0x1 PUSH1 0xA0 SHL SUB SWAP1 SWAP7 AND PUSH1 0x0 SWAP1 DUP2 MSTORE PUSH1 0x20 SWAP4 SWAP1 SWAP4 MSTORE POP POP PUSH1 0x40 SWAP1 KECCAK256 SWAP3 SWAP1 SWAP3 SSTORE POP POP JUMP JUMPDEST PUSH1 0x0 DUP1 PUSH1 0x0 DUP1 PUSH2 0x398D PUSH2 0x326B JUMP JUMPDEST PUSH1 0x1 PUSH1 0x1 PUSH1 0xA0 SHL SUB SWAP6 SWAP1 SWAP6 AND PUSH1 0x0 SWAP1 DUP2 MSTORE PUSH1 0x20 SWAP6 SWAP1 SWAP6 MSTORE POP POP PUSH1 0x40 SWAP1 SWAP3 KECCAK256 SLOAD PUSH1 0x1 PUSH1 0x1 PUSH1 0x60 SHL SUB DUP2 AND SWAP4 PUSH1 0x1 PUSH1 0x60 SHL DUP3 DIV PUSH1 0x1 PUSH1 0x1 PUSH1 0x80 SHL SUB AND SWAP4 POP PUSH1 0x1 PUSH1 0xE0 SHL SWAP1 SWAP2 DIV PUSH4 0xFFFFFFFF AND SWAP2 POP JUMP JUMPDEST PUSH1 0x0 PUSH2 0x9C3 DUP3 PUSH2 0x298A PUSH4 0x1DA9C00 DUP2 DUP9 PUSH2 0x2984 DUP10 PUSH8 0xDE0B6B3A7640000 PUSH2 0x25AE JUMP JUMPDEST DUP1 DUP3 SUB DUP3 DUP2 SGT ISZERO PUSH1 0x0 DUP4 SLT ISZERO EQ PUSH2 0x9AA JUMPI PUSH1 0x0 DUP1 REVERT JUMPDEST PUSH1 0x0 PUSH2 0x3A1D PUSH2 0x1E39 JUMP JUMPDEST PUSH2 0xFFFF DUP6 AND PUSH1 0x0 SWAP1 DUP2 MSTORE PUSH1 0x20 SWAP2 SWAP1 SWAP2 MSTORE PUSH1 0x40 SWAP1 KECCAK256 DUP1 SLOAD SWAP1 SWAP2 POP PUSH5 0xFFFFFFFFFF AND TIMESTAMP EQ PUSH2 0x3A48 JUMPI PUSH1 0x0 DUP1 REVERT JUMPDEST DUP1 SLOAD PUSH1 0x1 PUSH1 0xF8 SHL SWAP1 DIV PUSH1 0xFF AND PUSH2 0x3A5D JUMPI PUSH1 0x0 DUP1 REVERT JUMPDEST PUSH1 0x1 DUP2 ADD SLOAD PUSH1 0x0 SWAP1 PUSH2 0x3A78 SWAP1 PUSH1 0x1 PUSH1 0x1 PUSH1 0x58 SHL SUB AND DUP6 PUSH2 0x132F JUMP JUMPDEST DUP3 SLOAD SWAP1 SWAP2 POP PUSH1 0x0 SWAP1 PUSH2 0x3A9A SWAP1 PUSH1 0x1 PUSH1 0x28 SHL SWAP1 DIV PUSH1 0x1 PUSH1 0x1 PUSH1 0x58 SHL SUB AND DUP6 PUSH2 0x132F JUMP JUMPDEST SWAP1 POP DUP2 PUSH1 0x9 NOT SLT DUP1 ISZERO PUSH2 0x3AAD JUMPI POP PUSH1 0x0 DUP3 SLT JUMPDEST ISZERO PUSH2 0x3AB7 JUMPI PUSH1 0x0 SWAP2 POP JUMPDEST DUP1 PUSH1 0x9 NOT SLT DUP1 ISZERO PUSH2 0x3AC8 JUMPI POP PUSH1 0x0 DUP2 SLT JUMPDEST ISZERO PUSH2 0x3AD1 JUMPI POP PUSH1 0x0 JUMPDEST PUSH2 0x3ADD PUSH2 0x2CBE DUP4 PUSH2 0xAE8 JUMP JUMPDEST PUSH1 0x1 DUP5 ADD DUP1 SLOAD PUSH11 0xFFFFFFFFFFFFFFFFFFFFFF NOT AND PUSH1 0x1 PUSH1 0x1 PUSH1 0x58 SHL SUB SWAP3 SWAP1 SWAP3 AND SWAP2 SWAP1 SWAP2 OR SWAP1 SSTORE PUSH2 0x3B0F PUSH2 0x2CBE DUP3 PUSH2 0xAE8 JUMP JUMPDEST DUP4 SLOAD PUSH1 0x1 PUSH1 0x1 PUSH1 0x58 SHL SUB SWAP2 SWAP1 SWAP2 AND PUSH1 0x1 PUSH1 0x28 SHL MUL PUSH16 0xFFFFFFFFFFFFFFFFFFFFFF0000000000 NOT SWAP1 SWAP2 AND OR DUP4 SSTORE PUSH2 0x3B47 DUP8 DUP8 DUP7 DUP9 PUSH2 0x3DE9 JUMP JUMPDEST PUSH2 0x3B50 DUP4 PUSH2 0x33AB JUMP JUMPDEST POP POP POP POP POP POP POP JUMP JUMPDEST PUSH1 0x0 PUSH2 0xEDE PUSH2 0x2F2D DUP5 PUSH4 0x3B9ACA00 PUSH2 0x25AE JUMP JUMPDEST PUSH2 0x3B74 PUSH2 0x41B5 JUMP JUMPDEST PUSH1 0x0 PUSH2 0x3B7E PUSH2 0x3EFD JUMP JUMPDEST PUSH2 0xFFFF DUP5 AND PUSH1 0x0 SWAP1 DUP2 MSTORE PUSH1 0x20 SWAP2 SWAP1 SWAP2 MSTORE PUSH1 0x40 DUP2 KECCAK256 SLOAD SWAP2 POP PUSH2 0x8AD SWAP1 DUP3 PUSH2 0x3F0A JUMP JUMPDEST PUSH1 0x0 DUP1 DUP4 PUSH1 0x80 ADD MLOAD GT PUSH2 0x3BB1 JUMPI PUSH1 0x0 DUP1 REVERT JUMPDEST PUSH4 0x3B9ACA00 DUP3 GT ISZERO PUSH2 0x3BC2 JUMPI PUSH1 0x0 DUP1 REVERT JUMPDEST DUP3 MLOAD DUP3 GT PUSH2 0x3BE1 JUMPI DUP3 MLOAD PUSH1 0x40 DUP5 ADD MLOAD PUSH2 0x2609 SWAP2 SWAP1 PUSH2 0x298A SWAP1 DUP6 SWAP1 PUSH2 0x25AE JUMP JUMPDEST DUP3 PUSH1 0x20 ADD MLOAD DUP3 GT PUSH2 0x3C1F JUMPI PUSH1 0x40 DUP4 ADD MLOAD DUP4 MLOAD PUSH1 0x20 DUP6 ADD MLOAD PUSH1 0x60 DUP7 ADD MLOAD PUSH2 0x2609 SWAP4 SWAP3 PUSH2 0x3C19 SWAP3 DUP2 SWAP1 SUB SWAP2 PUSH2 0x298A SWAP2 DUP9 SUB SWAP1 DUP6 SWAP1 SUB PUSH2 0x25AE JUMP JUMPDEST SWAP1 PUSH2 0x2F04 JUMP JUMPDEST PUSH2 0xEDE DUP4 PUSH1 0x60 ADD MLOAD PUSH2 0x3C19 DUP6 PUSH1 0x20 ADD MLOAD PUSH4 0x3B9ACA00 SUB PUSH2 0x298A DUP8 PUSH1 0x60 ADD MLOAD DUP9 PUSH1 0x80 ADD MLOAD SUB DUP9 PUSH1 0x20 ADD MLOAD DUP9 SUB PUSH2 0x25AE SWAP1 SWAP2 SWAP1 PUSH4 0xFFFFFFFF AND JUMP JUMPDEST PUSH1 0x0 DUP1 PUSH2 0x3C77 PUSH1 0x64 PUSH2 0x298A DUP8 PUSH1 0xE0 ADD MLOAD DUP8 PUSH2 0x25AE SWAP1 SWAP2 SWAP1 PUSH4 0xFFFFFFFF AND JUMP JUMPDEST SWAP1 POP DUP5 PUSH1 0xA0 ADD MLOAD DUP2 LT ISZERO PUSH2 0x3C8C JUMPI POP PUSH1 0xA0 DUP5 ADD MLOAD JUMPDEST DUP5 PUSH1 0xC0 ADD MLOAD DUP2 GT ISZERO PUSH2 0x3C9F JUMPI POP PUSH1 0xC0 DUP5 ADD MLOAD JUMPDEST DUP3 ISZERO PUSH2 0x3CAF JUMPI PUSH2 0xED9 DUP5 DUP3 PUSH2 0x2F04 JUMP JUMPDEST DUP4 DUP2 GT PUSH2 0x3CBE JUMPI DUP1 DUP5 SUB PUSH2 0xED9 JUMP JUMPDEST PUSH1 0x0 SWAP6 SWAP5 POP POP POP POP POP JUMP JUMPDEST PUSH1 0x0 PUSH2 0xEDE PUSH2 0x3CD8 DUP5 DUP5 PUSH2 0x25AE JUMP JUMPDEST PUSH4 0x3B9ACA00 PUSH2 0x3278 JUMP JUMPDEST PUSH1 0x60 PUSH1 0x44 DUP3 MLOAD LT ISZERO PUSH2 0x3D18 JUMPI POP PUSH1 0x40 DUP1 MLOAD DUP1 DUP3 ADD SWAP1 SWAP2 MSTORE PUSH1 0xD DUP2 MSTORE PUSH13 0x14DA5B195B9D0814995D995C9D PUSH1 0x9A SHL PUSH1 0x20 DUP3 ADD MSTORE PUSH2 0x8B1 JUMP JUMPDEST PUSH1 0x4 DUP3 ADD DUP1 MLOAD SWAP1 SWAP3 PUSH1 0x24 ADD SWAP1 PUSH1 0x20 DUP2 LT ISZERO PUSH2 0x3D32 JUMPI PUSH1 0x0 DUP1 REVERT JUMPDEST DUP2 ADD SWAP1 DUP1 DUP1 MLOAD PUSH1 0x40 MLOAD SWAP4 SWAP3 SWAP2 SWAP1 DUP5 PUSH5 0x100000000 DUP3 GT ISZERO PUSH2 0x3D52 JUMPI PUSH1 0x0 DUP1 REVERT JUMPDEST SWAP1 DUP4 ADD SWAP1 PUSH1 0x20 DUP3 ADD DUP6 DUP2 GT ISZERO PUSH2 0x3D67 JUMPI PUSH1 0x0 DUP1 REVERT JUMPDEST DUP3 MLOAD PUSH5 0x100000000 DUP2 GT DUP3 DUP3 ADD DUP9 LT OR ISZERO PUSH2 0x3D81 JUMPI PUSH1 0x0 DUP1 REVERT JUMPDEST DUP3 MSTORE POP DUP2 MLOAD PUSH1 0x20 SWAP2 DUP3 ADD SWAP3 SWAP1 SWAP2 ADD SWAP1 DUP1 DUP4 DUP4 PUSH1 0x0 JUMPDEST DUP4 DUP2 LT ISZERO PUSH2 0x3DAE JUMPI DUP2 DUP2 ADD MLOAD DUP4 DUP3 ADD MSTORE PUSH1 0x20 ADD PUSH2 0x3D96 JUMP JUMPDEST POP POP POP POP SWAP1 POP SWAP1 DUP2 ADD SWAP1 PUSH1 0x1F AND DUP1 ISZERO PUSH2 0x3DDB JUMPI DUP1 DUP3 SUB DUP1 MLOAD PUSH1 0x1 DUP4 PUSH1 0x20 SUB PUSH2 0x100 EXP SUB NOT AND DUP2 MSTORE PUSH1 0x20 ADD SWAP2 POP JUMPDEST POP PUSH1 0x40 MSTORE POP POP POP SWAP1 POP SWAP2 SWAP1 POP JUMP JUMPDEST PUSH1 0x0 PUSH2 0x3DF3 PUSH2 0x339E JUMP JUMPDEST PUSH2 0xFFFF DUP6 AND PUSH1 0x0 SWAP1 DUP2 MSTORE PUSH1 0x20 SWAP2 SWAP1 SWAP2 MSTORE PUSH1 0x40 DUP2 KECCAK256 SLOAD PUSH1 0x1 PUSH1 0x1 PUSH1 0xA0 SHL SUB AND SWAP2 POP PUSH2 0x3E1B PUSH2 0x4029 JUMP JUMPDEST PUSH2 0xFFFF DUP7 AND PUSH1 0x0 SWAP1 DUP2 MSTORE PUSH1 0x20 SWAP2 SWAP1 SWAP2 MSTORE PUSH1 0x40 SWAP1 DUP2 SWAP1 KECCAK256 SLOAD SWAP1 MLOAD PUSH4 0xAD1C095D PUSH1 0xE0 SHL DUP2 MSTORE PUSH1 0x1 PUSH1 0x1 PUSH1 0xA0 SHL SUB SWAP1 SWAP2 AND SWAP2 POP DUP2 SWAP1 PUSH4 0xAD1C095D SWAP1 PUSH2 0x3E63 SWAP1 DUP10 SWAP1 DUP8 SWAP1 PUSH1 0x4 ADD PUSH2 0x495B JUMP JUMPDEST PUSH1 0x0 PUSH1 0x40 MLOAD DUP1 DUP4 SUB DUP2 PUSH1 0x0 DUP8 DUP1 EXTCODESIZE ISZERO DUP1 ISZERO PUSH2 0x3E7D JUMPI PUSH1 0x0 DUP1 REVERT JUMPDEST POP GAS CALL ISZERO DUP1 ISZERO PUSH2 0x3E91 JUMPI RETURNDATASIZE PUSH1 0x0 DUP1 RETURNDATACOPY RETURNDATASIZE PUSH1 0x0 REVERT JUMPDEST POP POP PUSH1 0x40 MLOAD PUSH4 0xAD1C095D PUSH1 0xE0 SHL DUP2 MSTORE PUSH1 0x1 PUSH1 0x1 PUSH1 0xA0 SHL SUB DUP6 AND SWAP3 POP PUSH4 0xAD1C095D SWAP2 POP PUSH2 0x3EC3 SWAP1 DUP10 SWAP1 DUP9 SWAP1 PUSH1 0x4 ADD PUSH2 0x495B JUMP JUMPDEST PUSH1 0x0 PUSH1 0x40 MLOAD DUP1 DUP4 SUB DUP2 PUSH1 0x0 DUP8 DUP1 EXTCODESIZE ISZERO DUP1 ISZERO PUSH2 0x3EDD JUMPI PUSH1 0x0 DUP1 REVERT JUMPDEST POP GAS CALL ISZERO DUP1 ISZERO PUSH2 0x3EF1 JUMPI RETURNDATASIZE PUSH1 0x0 DUP1 RETURNDATACOPY RETURNDATASIZE PUSH1 0x0 REVERT JUMPDEST POP POP POP POP POP POP POP POP POP POP JUMP JUMPDEST PUSH1 0x0 DUP1 PUSH2 0x9AA PUSH1 0x1B PUSH2 0x1B69 JUMP JUMPDEST PUSH2 0x3F12 PUSH2 0x41B5 JUMP JUMPDEST PUSH1 0x64 PUSH4 0x3B9ACA00 DUP4 PUSH1 0xFF DUP7 AND PUSH1 0x20 DUP2 LT PUSH2 0x3F28 JUMPI INVALID JUMPDEST BYTE MUL DUP2 PUSH2 0x3F31 JUMPI INVALID JUMPDEST DIV DUP2 MSTORE PUSH1 0x64 PUSH4 0x3B9ACA00 DUP4 PUSH1 0xFF DUP7 AND PUSH1 0x1 ADD PUSH1 0x20 DUP2 LT PUSH2 0x3F4D JUMPI INVALID JUMPDEST BYTE MUL DUP2 PUSH2 0x3F56 JUMPI INVALID JUMPDEST DIV DUP2 PUSH1 0x20 ADD DUP2 DUP2 MSTORE POP POP PUSH2 0x3F7B DUP3 PUSH1 0x2 DUP6 PUSH1 0xFF AND ADD PUSH1 0x20 DUP2 LT PUSH2 0x3F75 JUMPI INVALID JUMPDEST BYTE PUSH2 0x4036 JUMP JUMPDEST PUSH1 0x80 DUP3 ADD DUP2 SWAP1 MSTORE PUSH2 0x100 SWAP1 DUP4 PUSH1 0xFF DUP7 AND PUSH1 0x3 ADD PUSH1 0x20 DUP2 LT PUSH2 0x3F98 JUMPI INVALID JUMPDEST BYTE MUL DUP2 PUSH2 0x3FA1 JUMPI INVALID JUMPDEST DIV PUSH1 0x40 DUP3 ADD MSTORE PUSH1 0x80 DUP2 ADD MLOAD PUSH2 0x100 SWAP1 DUP4 PUSH1 0xFF DUP7 AND PUSH1 0x4 ADD PUSH1 0x20 DUP2 LT PUSH2 0x3FC2 JUMPI INVALID JUMPDEST BYTE MUL DUP2 PUSH2 0x3FCB JUMPI INVALID JUMPDEST DIV PUSH1 0x60 DUP3 ADD MSTORE PUSH3 0x7A120 DUP3 PUSH1 0xFF DUP6 AND PUSH1 0x5 ADD PUSH1 0x20 DUP2 LT PUSH2 0x3FE7 JUMPI INVALID JUMPDEST BYTE MUL PUSH1 0xA0 DUP3 ADD MSTORE PUSH3 0x2625A0 DUP3 PUSH1 0xFF DUP6 AND PUSH1 0x6 ADD PUSH1 0x20 DUP2 LT PUSH2 0x4004 JUMPI INVALID JUMPDEST BYTE MUL PUSH1 0xC0 DUP3 ADD MSTORE DUP2 PUSH1 0xFF DUP5 AND PUSH1 0x7 ADD PUSH1 0x20 DUP2 LT PUSH2 0x401D JUMPI INVALID JUMPDEST BYTE PUSH1 0xE0 DUP3 ADD MSTORE SWAP3 SWAP2 POP POP JUMP JUMPDEST PUSH1 0x0 DUP1 PUSH2 0x9AA PUSH1 0x22 PUSH2 0x1B69 JUMP JUMPDEST PUSH1 0x0 DUP2 PUSH1 0xFF AND PUSH1 0x96 LT PUSH2 0x4051 JUMPI PUSH1 0xFF DUP3 AND PUSH3 0x2625A0 MUL PUSH2 0x9AA JUMP JUMPDEST POP PUSH1 0x95 NOT PUSH1 0xFF SWAP2 SWAP1 SWAP2 AND ADD PUSH3 0xE4E1C0 MUL PUSH4 0x165A0BC0 ADD SWAP1 JUMP JUMPDEST PUSH1 0x40 MLOAD DUP1 PUSH2 0x140 ADD PUSH1 0x40 MSTORE DUP1 PUSH1 0x0 PUSH2 0xFFFF AND DUP2 MSTORE PUSH1 0x20 ADD PUSH1 0x0 DUP2 MSTORE PUSH1 0x20 ADD PUSH1 0x0 DUP2 MSTORE PUSH1 0x20 ADD PUSH1 0x0 DUP2 MSTORE PUSH1 0x20 ADD PUSH1 0x0 DUP2 MSTORE PUSH1 0x20 ADD PUSH1 0x0 DUP2 MSTORE PUSH1 0x20 ADD PUSH1 0x0 DUP2 MSTORE PUSH1 0x20 ADD PUSH1 0x0 DUP2 MSTORE PUSH1 0x20 ADD PUSH1 0x0 DUP2 MSTORE PUSH1 0x20 ADD PUSH2 0x40C1 PUSH2 0x40FB JUMP JUMPDEST SWAP1 MSTORE SWAP1 JUMP JUMPDEST PUSH1 0x40 DUP1 MLOAD PUSH1 0xC0 DUP2 ADD DUP3 MSTORE PUSH1 0x0 DUP1 DUP3 MSTORE PUSH1 0x20 DUP3 ADD DUP2 SWAP1 MSTORE SWAP2 DUP2 ADD DUP3 SWAP1 MSTORE PUSH1 0x60 DUP2 ADD DUP3 SWAP1 MSTORE PUSH1 0x80 DUP2 ADD DUP3 SWAP1 MSTORE PUSH1 0xA0 DUP2 ADD SWAP2 SWAP1 SWAP2 MSTORE SWAP1 JUMP JUMPDEST PUSH1 0x40 MLOAD DUP1 PUSH1 0x60 ADD PUSH1 0x40 MSTORE DUP1 PUSH1 0x0 DUP2 MSTORE PUSH1 0x20 ADD PUSH1 0x0 DUP2 MSTORE PUSH1 0x20 ADD PUSH1 0x0 DUP2 MSTORE POP SWAP1 JUMP JUMPDEST PUSH1 0x40 DUP1 MLOAD PUSH1 0xA0 DUP2 ADD DUP3 MSTORE PUSH1 0x0 DUP1 DUP3 MSTORE PUSH1 0x20 DUP3 ADD DUP2 SWAP1 MSTORE SWAP2 DUP2 ADD DUP3 SWAP1 MSTORE SWAP1 PUSH1 0x60 DUP3 ADD SWAP1 DUP2 MSTORE PUSH1 0x20 ADD PUSH1 0x0 DUP2 MSTORE POP SWAP1 JUMP JUMPDEST PUSH1 0x40 MLOAD DUP1 PUSH2 0x120 ADD PUSH1 0x40 MSTORE DUP1 PUSH1 0x0 DUP2 MSTORE PUSH1 0x20 ADD PUSH1 0x0 DUP2 MSTORE PUSH1 0x20 ADD PUSH1 0x0 DUP2 MSTORE PUSH1 0x20 ADD PUSH1 0x0 DUP2 MSTORE PUSH1 0x20 ADD PUSH1 0x0 DUP2 MSTORE PUSH1 0x20 ADD PUSH1 0x0 DUP2 MSTORE PUSH1 0x20 ADD PUSH1 0x0 DUP2 MSTORE PUSH1 0x20 ADD PUSH1 0x0 DUP2 MSTORE PUSH1 0x20 ADD PUSH1 0x0 DUP2 MSTORE POP SWAP1 JUMP JUMPDEST PUSH1 0x40 MLOAD DUP1 PUSH1 0x20 ADD PUSH1 0x40 MSTORE DUP1 PUSH1 0x1 SWAP1 PUSH1 0x20 DUP3 MUL DUP1 CALLDATASIZE DUP4 CALLDATACOPY POP SWAP2 SWAP3 SWAP2 POP POP JUMP JUMPDEST PUSH1 0x40 MLOAD DUP1 PUSH2 0x100 ADD PUSH1 0x40 MSTORE DUP1 PUSH1 0x0 DUP2 MSTORE PUSH1 0x20 ADD PUSH1 0x0 DUP2 MSTORE PUSH1 0x20 ADD PUSH1 0x0 DUP2 MSTORE PUSH1 0x20 ADD PUSH1 0x0 DUP2 MSTORE PUSH1 0x20 ADD PUSH1 0x0 DUP2 MSTORE PUSH1 0x20 ADD PUSH1 0x0 DUP2 MSTORE PUSH1 0x20 ADD PUSH1 0x0 DUP2 MSTORE PUSH1 0x20 ADD PUSH1 0x0 DUP2 MSTORE POP SWAP1 JUMP JUMPDEST DUP1 MLOAD PUSH2 0x8B1 DUP2 PUSH2 0x4C9D JUMP JUMPDEST PUSH1 0x0 DUP3 PUSH1 0x1F DUP4 ADD SLT PUSH2 0x4215 JUMPI DUP1 DUP2 REVERT JUMPDEST DUP2 MLOAD PUSH1 0x20 PUSH2 0x422A PUSH2 0x4225 DUP4 PUSH2 0x4C7F JUMP JUMPDEST PUSH2 0x4C5B JUMP JUMPDEST DUP3 DUP2 MSTORE DUP2 DUP2 ADD SWAP1 DUP6 DUP4 ADD DUP4 DUP6 MUL DUP8 ADD DUP5 ADD DUP9 LT ISZERO PUSH2 0x4246 JUMPI DUP6 DUP7 REVERT JUMPDEST DUP6 JUMPDEST DUP6 DUP2 LT ISZERO PUSH2 0x426D JUMPI DUP2 MLOAD PUSH2 0x425B DUP2 PUSH2 0x4C9D JUMP JUMPDEST DUP5 MSTORE SWAP3 DUP5 ADD SWAP3 SWAP1 DUP5 ADD SWAP1 PUSH1 0x1 ADD PUSH2 0x4248 JUMP JUMPDEST POP SWAP1 SWAP8 SWAP7 POP POP POP POP POP POP POP JUMP JUMPDEST PUSH1 0x0 PUSH1 0x1F DUP4 DUP2 DUP5 ADD SLT PUSH2 0x428B JUMPI DUP2 DUP3 REVERT JUMPDEST DUP3 MLOAD PUSH1 0x20 PUSH2 0x429B PUSH2 0x4225 DUP4 PUSH2 0x4C7F JUMP JUMPDEST DUP3 DUP2 MSTORE DUP2 DUP2 ADD SWAP1 DUP7 DUP4 ADD DUP7 JUMPDEST DUP6 DUP2 LT ISZERO PUSH2 0x433F JUMPI DUP2 MLOAD DUP10 ADD DUP11 PUSH1 0x3F DUP3 ADD SLT PUSH2 0x42C1 JUMPI DUP9 DUP10 REVERT JUMPDEST DUP6 DUP2 ADD MLOAD PUSH8 0xFFFFFFFFFFFFFFFF DUP2 GT ISZERO PUSH2 0x42D7 JUMPI INVALID JUMPDEST PUSH2 0x42E8 DUP2 DUP11 ADD PUSH1 0x1F NOT AND DUP9 ADD PUSH2 0x4C5B JUMP JUMPDEST DUP2 DUP2 MSTORE DUP13 PUSH1 0x40 DUP4 DUP6 ADD ADD GT ISZERO PUSH2 0x42FC JUMPI DUP11 DUP12 REVERT JUMPDEST DUP11 JUMPDEST DUP3 DUP2 LT ISZERO PUSH2 0x431A JUMPI DUP4 DUP2 ADD PUSH1 0x40 ADD MLOAD DUP3 DUP3 ADD DUP11 ADD MSTORE DUP9 ADD PUSH2 0x42FE JUMP JUMPDEST DUP3 DUP2 GT ISZERO PUSH2 0x432A JUMPI DUP12 DUP10 DUP5 DUP5 ADD ADD MSTORE JUMPDEST POP DUP7 MSTORE POP POP SWAP3 DUP5 ADD SWAP3 SWAP1 DUP5 ADD SWAP1 PUSH1 0x1 ADD PUSH2 0x42A7 JUMP JUMPDEST POP SWAP1 SWAP9 SWAP8 POP POP POP POP POP POP POP POP JUMP JUMPDEST DUP1 MLOAD PUSH2 0x8B1 DUP2 PUSH2 0x4CB5 JUMP JUMPDEST DUP1 MLOAD PUSH1 0x1 PUSH1 0x1 PUSH1 0x70 SHL SUB NOT DUP2 AND DUP2 EQ PUSH2 0x8B1 JUMPI PUSH1 0x0 DUP1 REVERT JUMPDEST DUP1 MLOAD PUSH1 0x1 PUSH1 0x1 PUSH1 0xF8 SHL SUB NOT DUP2 AND DUP2 EQ PUSH2 0x8B1 JUMPI PUSH1 0x0 DUP1 REVERT JUMPDEST DUP1 MLOAD PUSH1 0x4 DUP2 LT PUSH2 0x8B1 JUMPI PUSH1 0x0 DUP1 REVERT JUMPDEST DUP1 MLOAD PUSH2 0x8B1 DUP2 PUSH2 0x4CC3 JUMP JUMPDEST DUP1 MLOAD PUSH1 0xFF DUP2 AND DUP2 EQ PUSH2 0x8B1 JUMPI PUSH1 0x0 DUP1 REVERT JUMPDEST PUSH1 0x0 PUSH1 0x20 DUP3 DUP5 SUB SLT ISZERO PUSH2 0x43C4 JUMPI DUP1 DUP2 REVERT JUMPDEST DUP2 CALLDATALOAD PUSH2 0xEDE DUP2 PUSH2 0x4C9D JUMP JUMPDEST PUSH1 0x0 DUP1 PUSH1 0x0 PUSH1 0x60 DUP5 DUP7 SUB SLT ISZERO PUSH2 0x43E3 JUMPI DUP2 DUP3 REVERT JUMPDEST DUP4 CALLDATALOAD PUSH2 0x43EE DUP2 PUSH2 0x4C9D JUMP JUMPDEST SWAP3 POP PUSH1 0x20 DUP5 ADD CALLDATALOAD PUSH2 0x43FE DUP2 PUSH2 0x4CC3 JUMP JUMPDEST SWAP3 SWAP6 SWAP3 SWAP5 POP POP POP PUSH1 0x40 SWAP2 SWAP1 SWAP2 ADD CALLDATALOAD SWAP1 JUMP JUMPDEST PUSH1 0x0 DUP1 PUSH1 0x0 DUP1 PUSH1 0x0 PUSH1 0xA0 DUP7 DUP9 SUB SLT ISZERO PUSH2 0x4426 JUMPI DUP3 DUP4 REVERT JUMPDEST DUP6 CALLDATALOAD PUSH2 0x4431 DUP2 PUSH2 0x4C9D JUMP JUMPDEST SWAP5 POP PUSH1 0x20 DUP7 ADD CALLDATALOAD PUSH2 0x4441 DUP2 PUSH2 0x4CC3 JUMP JUMPDEST SWAP4 POP PUSH1 0x40 DUP7 ADD CALLDATALOAD PUSH1 0x1 PUSH1 0x1 PUSH1 0x60 SHL SUB DUP2 AND DUP2 EQ PUSH2 0x445C JUMPI DUP4 DUP5 REVERT JUMPDEST SWAP3 POP PUSH1 0x60 DUP7 ADD CALLDATALOAD PUSH2 0x446C DUP2 PUSH2 0x4CB5 JUMP JUMPDEST SWAP2 POP PUSH1 0x80 DUP7 ADD CALLDATALOAD PUSH2 0x447C DUP2 PUSH2 0x4CB5 JUMP JUMPDEST DUP1 SWAP2 POP POP SWAP3 SWAP6 POP SWAP3 SWAP6 SWAP1 SWAP4 POP JUMP JUMPDEST PUSH1 0x0 PUSH1 0x20 DUP1 DUP4 DUP6 SUB SLT ISZERO PUSH2 0x449C JUMPI DUP2 DUP3 REVERT JUMPDEST DUP3 MLOAD PUSH8 0xFFFFFFFFFFFFFFFF DUP1 DUP3 GT ISZERO PUSH2 0x44B3 JUMPI DUP4 DUP5 REVERT JUMPDEST DUP2 DUP6 ADD SWAP2 POP DUP6 PUSH1 0x1F DUP4 ADD SLT PUSH2 0x44C6 JUMPI DUP4 DUP5 REVERT JUMPDEST DUP2 MLOAD PUSH2 0x44D4 PUSH2 0x4225 DUP3 PUSH2 0x4C7F JUMP JUMPDEST DUP2 DUP2 MSTORE DUP5 DUP2 ADD SWAP1 DUP5 DUP7 ADD DUP8 JUMPDEST DUP5 DUP2 LT ISZERO PUSH2 0x4589 JUMPI DUP2 MLOAD DUP8 ADD PUSH1 0x80 DUP2 DUP14 SUB PUSH1 0x1F NOT ADD SLT ISZERO PUSH2 0x44FF JUMPI DUP10 DUP11 REVERT JUMPDEST PUSH1 0x40 DUP1 MLOAD PUSH1 0x80 DUP2 ADD DUP2 DUP2 LT DUP11 DUP3 GT OR ISZERO PUSH2 0x4515 JUMPI INVALID JUMPDEST DUP3 MSTORE DUP3 DUP12 ADD MLOAD DUP10 DUP2 GT ISZERO PUSH2 0x4527 JUMPI DUP13 DUP14 REVERT JUMPDEST PUSH2 0x4535 DUP16 DUP14 DUP4 DUP8 ADD ADD PUSH2 0x4205 JUMP JUMPDEST DUP3 MSTORE POP DUP2 DUP4 ADD MLOAD DUP10 DUP2 GT ISZERO PUSH2 0x4548 JUMPI DUP13 DUP14 REVERT JUMPDEST PUSH2 0x4556 DUP16 DUP14 DUP4 DUP8 ADD ADD PUSH2 0x427A JUMP JUMPDEST DUP13 DUP4 ADD MSTORE POP PUSH1 0x60 DUP4 ADD MLOAD DUP3 DUP3 ADD MSTORE PUSH2 0x4570 PUSH1 0x80 DUP5 ADD PUSH2 0x41FA JUMP JUMPDEST PUSH1 0x60 DUP3 ADD MSTORE DUP7 MSTORE POP POP SWAP3 DUP8 ADD SWAP3 SWAP1 DUP8 ADD SWAP1 PUSH1 0x1 ADD PUSH2 0x44E0 JUMP JUMPDEST POP SWAP1 SWAP10 SWAP9 POP POP POP POP POP POP POP POP POP JUMP JUMPDEST PUSH1 0x0 PUSH1 0x20 DUP3 DUP5 SUB SLT ISZERO PUSH2 0x45A9 JUMPI DUP1 DUP2 REVERT JUMPDEST DUP2 CALLDATALOAD PUSH2 0xEDE DUP2 PUSH2 0x4CB5 JUMP JUMPDEST PUSH1 0x0 DUP1 PUSH1 0x40 DUP1 DUP5 DUP7 SUB SLT ISZERO PUSH2 0x45C7 JUMPI DUP3 DUP4 REVERT JUMPDEST DUP4 MLOAD SWAP3 POP PUSH1 0x20 DUP1 DUP6 ADD MLOAD PUSH8 0xFFFFFFFFFFFFFFFF DUP1 DUP3 GT ISZERO PUSH2 0x45E6 JUMPI DUP5 DUP6 REVERT JUMPDEST DUP2 DUP8 ADD SWAP2 POP DUP8 PUSH1 0x1F DUP4 ADD SLT PUSH2 0x45F9 JUMPI DUP5 DUP6 REVERT JUMPDEST DUP2 MLOAD PUSH2 0x4607 PUSH2 0x4225 DUP3 PUSH2 0x4C7F JUMP JUMPDEST DUP2 DUP2 MSTORE DUP5 DUP2 ADD SWAP1 DUP5 DUP7 ADD PUSH1 0xC0 DUP1 DUP6 MUL DUP8 ADD DUP9 ADD DUP14 LT ISZERO PUSH2 0x4625 JUMPI DUP10 DUP11 REVERT JUMPDEST DUP10 SWAP7 POP JUMPDEST DUP5 DUP8 LT ISZERO PUSH2 0x46AC JUMPI DUP1 DUP3 DUP15 SUB SLT ISZERO PUSH2 0x463F JUMPI DUP10 DUP11 REVERT JUMPDEST DUP9 MLOAD DUP2 DUP2 ADD DUP2 DUP2 LT DUP9 DUP3 GT OR ISZERO PUSH2 0x4652 JUMPI INVALID JUMPDEST DUP11 MSTORE DUP3 MLOAD PUSH2 0x465F DUP2 PUSH2 0x4CC3 JUMP JUMPDEST DUP2 MSTORE DUP3 DUP10 ADD MLOAD DUP10 DUP3 ADD MSTORE DUP10 DUP4 ADD MLOAD DUP11 DUP3 ADD MSTORE PUSH1 0x60 DUP1 DUP5 ADD MLOAD SWAP1 DUP3 ADD MSTORE PUSH1 0x80 DUP1 DUP5 ADD MLOAD SWAP1 DUP3 ADD MSTORE PUSH1 0xA0 PUSH2 0x4692 DUP2 DUP6 ADD PUSH2 0x4388 JUMP JUMPDEST SWAP1 DUP3 ADD MSTORE DUP5 MSTORE PUSH1 0x1 SWAP7 SWAP1 SWAP7 ADD SWAP6 SWAP3 DUP8 ADD SWAP3 SWAP1 DUP2 ADD SWAP1 PUSH2 0x4629 JUMP JUMPDEST POP SWAP9 SWAP12 SWAP1 SWAP11 POP SWAP9 POP POP POP POP POP POP POP POP POP JUMP JUMPDEST PUSH1 0x0 PUSH1 0xC0 DUP3 DUP5 SUB SLT ISZERO PUSH2 0x46CF JUMPI DUP1 DUP2 REVERT JUMPDEST PUSH1 0x40 MLOAD PUSH1 0xC0 DUP2 ADD DUP2 DUP2 LT PUSH8 0xFFFFFFFFFFFFFFFF DUP3 GT OR ISZERO PUSH2 0x46EC JUMPI INVALID JUMPDEST PUSH1 0x40 MSTORE DUP3 MLOAD PUSH5 0xFFFFFFFFFF DUP2 AND DUP2 EQ PUSH2 0x4703 JUMPI DUP3 DUP4 REVERT JUMPDEST DUP2 MSTORE PUSH2 0x4711 PUSH1 0x20 DUP5 ADD PUSH2 0x4370 JUMP JUMPDEST PUSH1 0x20 DUP3 ADD MSTORE PUSH2 0x4722 PUSH1 0x40 DUP5 ADD PUSH2 0x43A2 JUMP JUMPDEST PUSH1 0x40 DUP3 ADD MSTORE PUSH2 0x4733 PUSH1 0x60 DUP5 ADD PUSH2 0x4397 JUMP JUMPDEST PUSH1 0x60 DUP3 ADD MSTORE PUSH2 0x4744 PUSH1 0x80 DUP5 ADD PUSH2 0x4358 JUMP JUMPDEST PUSH1 0x80 DUP3 ADD MSTORE PUSH2 0x4755 PUSH1 0xA0 DUP5 ADD PUSH2 0x434D JUMP JUMPDEST PUSH1 0xA0 DUP3 ADD MSTORE SWAP4 SWAP3 POP POP POP JUMP JUMPDEST PUSH1 0x0 PUSH1 0x20 DUP3 DUP5 SUB SLT ISZERO PUSH2 0x4772 JUMPI DUP1 DUP2 REVERT JUMPDEST DUP2 CALLDATALOAD PUSH2 0xEDE DUP2 PUSH2 0x4CC3 JUMP JUMPDEST PUSH1 0x0 DUP1 PUSH1 0x0 PUSH1 0x60 DUP5 DUP7 SUB SLT ISZERO PUSH2 0x4791 JUMPI DUP1 DUP2 REVERT JUMPDEST DUP4 CALLDATALOAD PUSH2 0x479C DUP2 PUSH2 0x4CC3 JUMP JUMPDEST SWAP3 POP PUSH1 0x20 DUP5 ADD CALLDATALOAD PUSH1 0x1 PUSH1 0x1 PUSH1 0x58 SHL SUB DUP2 AND DUP2 EQ PUSH2 0x47B7 JUMPI DUP2 DUP3 REVERT JUMPDEST SWAP2 POP PUSH1 0x40 DUP5 ADD CALLDATALOAD PUSH2 0x47C7 DUP2 PUSH2 0x4CB5 JUMP JUMPDEST DUP1 SWAP2 POP POP SWAP3 POP SWAP3 POP SWAP3 JUMP JUMPDEST PUSH1 0x0 PUSH1 0x20 DUP3 DUP5 SUB SLT ISZERO PUSH2 0x47E3 JUMPI DUP1 DUP2 REVERT JUMPDEST POP MLOAD SWAP2 SWAP1 POP JUMP JUMPDEST PUSH1 0x0 DUP1 PUSH1 0x40 DUP4 DUP6 SUB SLT ISZERO PUSH2 0x47FC JUMPI DUP2 DUP3 REVERT JUMPDEST POP POP DUP1 MLOAD PUSH1 0x20 SWAP1 SWAP2 ADD MLOAD SWAP1 SWAP3 SWAP1 SWAP2 POP JUMP JUMPDEST DUP1 MLOAD PUSH5 0xFFFFFFFFFF AND DUP3 MSTORE PUSH1 0x20 DUP1 DUP3 ADD MLOAD PUSH1 0x1 PUSH1 0x1 PUSH1 0xF8 SHL SUB NOT AND SWAP1 DUP4 ADD MSTORE PUSH1 0x40 DUP1 DUP3 ADD MLOAD PUSH1 0xFF AND SWAP1 DUP4 ADD MSTORE PUSH1 0x60 DUP1 DUP3 ADD MLOAD PUSH2 0xFFFF AND SWAP1 DUP4 ADD MSTORE PUSH1 0x80 DUP1 DUP3 ADD MLOAD PUSH1 0x1 PUSH1 0x1 PUSH1 0x70 SHL SUB NOT AND SWAP1 DUP4 ADD MSTORE PUSH1 0xA0 SWAP1 DUP2 ADD MLOAD ISZERO ISZERO SWAP2 ADD MSTORE JUMP JUMPDEST PUSH1 0x1 PUSH1 0x1 PUSH1 0xA0 SHL SUB SWAP2 SWAP1 SWAP2 AND DUP2 MSTORE PUSH1 0x20 ADD SWAP1 JUMP JUMPDEST PUSH1 0x1 PUSH1 0x1 PUSH1 0xA0 SHL SUB SWAP5 DUP6 AND DUP2 MSTORE SWAP3 DUP5 AND PUSH1 0x20 DUP5 ADD MSTORE SWAP1 DUP4 AND PUSH1 0x40 DUP4 ADD MSTORE SWAP1 SWAP2 AND PUSH1 0x60 DUP3 ADD MSTORE PUSH1 0x80 ADD SWAP1 JUMP JUMPDEST PUSH1 0x0 PUSH2 0x120 DUP1 DUP4 ADD PUSH1 0x1 DUP1 PUSH1 0xA0 SHL SUB DUP1 DUP10 AND DUP6 MSTORE PUSH1 0x20 DUP2 DUP10 AND DUP2 DUP8 ADD MSTORE PUSH1 0x40 SWAP2 POP PUSH2 0x48D4 DUP3 DUP8 ADD DUP10 PUSH2 0x480D JUMP JUMPDEST PUSH2 0x100 DUP7 ADD SWAP4 SWAP1 SWAP4 MSTORE DUP6 MLOAD SWAP2 DUP3 SWAP1 MSTORE PUSH2 0x140 DUP6 ADD SWAP3 DUP1 DUP8 ADD SWAP3 DUP6 JUMPDEST DUP2 DUP2 LT ISZERO PUSH2 0x494B JUMPI DUP5 MLOAD DUP1 MLOAD PUSH2 0xFFFF AND DUP8 MSTORE DUP4 DUP2 ADD MLOAD DUP5 DUP9 ADD MSTORE DUP5 DUP2 ADD MLOAD DUP6 DUP9 ADD MSTORE PUSH1 0x60 DUP1 DUP3 ADD MLOAD SWAP1 DUP9 ADD MSTORE PUSH1 0x80 DUP1 DUP3 ADD MLOAD SWAP1 DUP9 ADD MSTORE PUSH1 0xA0 SWAP1 DUP2 ADD MLOAD SWAP1 PUSH1 0x4 DUP3 LT PUSH2 0x4936 JUMPI INVALID JUMPDEST DUP8 ADD MSTORE PUSH1 0xC0 SWAP1 SWAP6 ADD SWAP5 SWAP4 DUP3 ADD SWAP4 PUSH1 0x1 ADD PUSH2 0x48EF JUMP JUMPDEST POP SWAP4 SWAP11 SWAP10 POP POP POP POP POP POP POP POP POP POP JUMP JUMPDEST PUSH1 0x1 PUSH1 0x1 PUSH1 0xA0 SHL SUB SWAP3 SWAP1 SWAP3 AND DUP3 MSTORE PUSH1 0x20 DUP3 ADD MSTORE PUSH1 0x40 ADD SWAP1 JUMP JUMPDEST PUSH1 0x1 PUSH1 0x1 PUSH1 0xA0 SHL SUB DUP4 AND DUP2 MSTORE PUSH1 0xE0 DUP2 ADD PUSH2 0xEDE PUSH1 0x20 DUP4 ADD DUP5 PUSH2 0x480D JUMP JUMPDEST PUSH1 0x1 PUSH1 0x1 PUSH1 0xA0 SHL SUB SWAP6 SWAP1 SWAP6 AND DUP6 MSTORE PUSH2 0xFFFF SWAP4 SWAP1 SWAP4 AND PUSH1 0x20 DUP6 ADD MSTORE PUSH1 0x40 DUP5 ADD SWAP2 SWAP1 SWAP2 MSTORE ISZERO ISZERO PUSH1 0x60 DUP4 ADD MSTORE ISZERO ISZERO PUSH1 0x80 DUP3 ADD MSTORE PUSH1 0xA0 ADD SWAP1 JUMP JUMPDEST PUSH1 0x1 PUSH1 0x1 PUSH1 0xA0 SHL SUB SWAP7 SWAP1 SWAP7 AND DUP7 MSTORE PUSH2 0xFFFF SWAP5 SWAP1 SWAP5 AND PUSH1 0x20 DUP7 ADD MSTORE PUSH1 0x40 DUP6 ADD SWAP3 SWAP1 SWAP3 MSTORE PUSH1 0x60 DUP5 ADD MSTORE PUSH1 0x80 DUP4 ADD MSTORE PUSH1 0xA0 DUP3 ADD MSTORE PUSH1 0xC0 ADD SWAP1 JUMP JUMPDEST PUSH1 0x1 PUSH1 0x1 PUSH1 0xA0 SHL SUB SWAP5 SWAP1 SWAP5 AND DUP5 MSTORE PUSH1 0x20 DUP5 ADD SWAP3 SWAP1 SWAP3 MSTORE PUSH1 0x40 DUP4 ADD MSTORE PUSH1 0x60 DUP3 ADD MSTORE PUSH1 0x80 ADD SWAP1 JUMP JUMPDEST SWAP1 ISZERO ISZERO DUP2 MSTORE PUSH1 0x20 ADD SWAP1 JUMP JUMPDEST SWAP2 DUP3 MSTORE ISZERO ISZERO PUSH1 0x20 DUP3 ADD MSTORE PUSH1 0x40 ADD SWAP1 JUMP JUMPDEST PUSH1 0x20 DUP1 DUP3 MSTORE PUSH1 0xF SWAP1 DUP3 ADD MSTORE PUSH15 0x4F76657220537570706C792043617 PUSH1 0x8C SHL PUSH1 0x40 DUP3 ADD MSTORE PUSH1 0x60 ADD SWAP1 JUMP JUMPDEST PUSH1 0x20 DUP1 DUP3 MSTORE PUSH1 0xB SWAP1 DUP3 ADD MSTORE PUSH11 0x4554482042616C616E6365 PUSH1 0xA8 SHL PUSH1 0x40 DUP3 ADD MSTORE PUSH1 0x60 ADD SWAP1 JUMP JUMPDEST PUSH1 0x20 DUP1 DUP3 MSTORE PUSH1 0x6 SWAP1 DUP3 ADD MSTORE PUSH6 0x52656465656D PUSH1 0xD0 SHL PUSH1 0x40 DUP3 ADD MSTORE PUSH1 0x60 ADD SWAP1 JUMP JUMPDEST PUSH1 0x20 DUP1 DUP3 MSTORE PUSH1 0x12 SWAP1 DUP3 ADD MSTORE PUSH18 0x43616E6E6F74206861766520617373657473 PUSH1 0x70 SHL PUSH1 0x40 DUP3 ADD MSTORE PUSH1 0x60 ADD SWAP1 JUMP JUMPDEST PUSH1 0x20 DUP1 DUP3 MSTORE PUSH1 0x13 SWAP1 DUP3 ADD MSTORE PUSH19 0x2AB730BABA3437B934BD32B21031B0B63632B9 PUSH1 0x69 SHL PUSH1 0x40 DUP3 ADD MSTORE PUSH1 0x60 ADD SWAP1 JUMP JUMPDEST PUSH1 0x20 DUP1 DUP3 MSTORE PUSH1 0xF SWAP1 DUP3 ADD MSTORE PUSH15 0x4E6F205072696D6520426F72726F77 PUSH1 0x88 SHL PUSH1 0x40 DUP3 ADD MSTORE PUSH1 0x60 ADD SWAP1 JUMP JUMPDEST PUSH1 0x20 DUP1 DUP3 MSTORE PUSH1 0x1C SWAP1 DUP3 ADD MSTORE PUSH32 0x446570726563617465643A2052656465656D20746F2063546F6B656E00000000 PUSH1 0x40 DUP3 ADD MSTORE PUSH1 0x60 ADD SWAP1 JUMP JUMPDEST PUSH1 0x20 DUP1 DUP3 MSTORE PUSH1 0x14 SWAP1 DUP3 ADD MSTORE PUSH20 0x43616E6E6F74206368616E6765206269746D617 PUSH1 0x64 SHL PUSH1 0x40 DUP3 ADD MSTORE PUSH1 0x60 ADD SWAP1 JUMP JUMPDEST PUSH1 0x20 DUP1 DUP3 MSTORE PUSH1 0x10 SWAP1 DUP3 ADD MSTORE PUSH16 0x10D85B9B9BDD081A185D99481919589D PUSH1 0x82 SHL PUSH1 0x40 DUP3 ADD MSTORE PUSH1 0x60 ADD SWAP1 JUMP JUMPDEST PUSH1 0x20 DUP1 DUP3 MSTORE PUSH1 0xA SWAP1 DUP3 ADD MSTORE PUSH10 0x2732B390372A37B5B2B7 PUSH1 0xB1 SHL PUSH1 0x40 DUP3 ADD MSTORE PUSH1 0x60 ADD SWAP1 JUMP JUMPDEST PUSH1 0x20 DUP1 DUP3 MSTORE PUSH1 0x13 SWAP1 DUP3 ADD MSTORE PUSH19 0x125B9D985B1A590818DD5C9C995B98DE481A59 PUSH1 0x6A SHL PUSH1 0x40 DUP3 ADD MSTORE PUSH1 0x60 ADD SWAP1 JUMP JUMPDEST PUSH1 0x20 DUP1 DUP3 MSTORE PUSH1 0x13 SWAP1 DUP3 ADD MSTORE PUSH19 0x496E73756666696369656E7420746F6B656E73 PUSH1 0x68 SHL PUSH1 0x40 DUP3 ADD MSTORE PUSH1 0x60 ADD SWAP1 JUMP JUMPDEST SWAP1 DUP2 MSTORE PUSH1 0x20 ADD SWAP1 JUMP JUMPDEST SWAP3 DUP4 MSTORE PUSH1 0x20 DUP4 ADD SWAP2 SWAP1 SWAP2 MSTORE PUSH1 0x40 DUP3 ADD MSTORE PUSH1 0x60 ADD SWAP1 JUMP JUMPDEST PUSH1 0x40 MLOAD DUP2 DUP2 ADD PUSH8 0xFFFFFFFFFFFFFFFF DUP2 GT DUP3 DUP3 LT OR ISZERO PUSH2 0x4C77 JUMPI INVALID JUMPDEST PUSH1 0x40 MSTORE SWAP2 SWAP1 POP JUMP JUMPDEST PUSH1 0x0 PUSH8 0xFFFFFFFFFFFFFFFF DUP3 GT ISZERO PUSH2 0x4C93 JUMPI INVALID JUMPDEST POP PUSH1 0x20 SWAP1 DUP2 MUL ADD SWAP1 JUMP JUMPDEST PUSH1 0x1 PUSH1 0x1 PUSH1 0xA0 SHL SUB DUP2 AND DUP2 EQ PUSH2 0x4CB2 JUMPI PUSH1 0x0 DUP1 REVERT JUMPDEST POP JUMP JUMPDEST DUP1 ISZERO ISZERO DUP2 EQ PUSH2 0x4CB2 JUMPI PUSH1 0x0 DUP1 REVERT JUMPDEST PUSH2 0xFFFF DUP2 AND DUP2 EQ PUSH2 0x4CB2 JUMPI PUSH1 0x0 DUP1 REVERT INVALID LOG2 PUSH5 0x6970667358 0x22 SLT KECCAK256 DUP8 0xEE DUP7 SWAP6 0xC3 0xED SDIV 0xBE RETURNDATACOPY 0xB5 SWAP7 0x1F SWAP7 0xD6 NUMBER CALLER AND 0xB8 COINBASE 0xCA 0xC2 CALLDATACOPY DUP11 LOG2 PUSH9 0x3CF4C1A15307FA6473 PUSH16 0x6C634300070600330000000000000000 ","sha1":"d4eda3cfbfac9c46695ce35a4688b259f8c592e1","source":"// SPDX-License-Identifier: BSUL-1.1\npragma solidity =0.7.6;\npragma abicoder v2;\n\nimport {\n    BalanceState,\n    AccountContext,\n    PortfolioAsset,\n    PrimeRate\n} from \"../../global/Types.sol\";\nimport {Constants} from \"../../global/Constants.sol\";\nimport {SafeInt256} from \"../../math/SafeInt256.sol\";\n\nimport {Emitter} from \"../../internal/Emitter.sol\";\nimport {TransferAssets} from \"../../internal/portfolio/TransferAssets.sol\";\nimport {BalanceHandler} from \"../../internal/balances/BalanceHandler.sol\";\nimport {nTokenHandler} from \"../../internal/nToken/nTokenHandler.sol\";\nimport {PrimeRateLib} from \"../../internal/pCash/PrimeRateLib.sol\";\nimport {AccountContextHandler} from \"../../internal/AccountContextHandler.sol\";\n\nimport {ActionGuards} from \"./ActionGuards.sol\";\nimport {nTokenRedeemAction} from \"./nTokenRedeemAction.sol\";\nimport {SettleAssetsExternal} from \"../SettleAssetsExternal.sol\";\nimport {FreeCollateralExternal} from \"../FreeCollateralExternal.sol\";\nimport {MigrateIncentives} from \"../MigrateIncentives.sol\";\n\ncontract AccountAction is ActionGuards {\n    using BalanceHandler for BalanceState;\n    using AccountContextHandler for AccountContext;\n    using PrimeRateLib for PrimeRate;\n    using SafeInt256 for int256;\n\n    /// @notice A per account setting that allows it to borrow prime cash (i.e. incur negative cash)\n    /// as a result of account initiated actions. Accounts can still incur negative cash as a result of\n    /// fCash settlement regardless of this setting.\n    /// @param allowPrimeBorrow true if the account can borrow prime cash\n    /// @dev emit:AccountSettled emit:AccountContextUpdate\n    /// @dev auth:msg.sender\n    function enablePrimeBorrow(bool allowPrimeBorrow) external {\n        require(msg.sender != address(this)); // dev: no internal call\n        requireValidAccount(msg.sender);\n        (AccountContext memory accountContext, /* didSettle */) = _settleAccountIfRequired(msg.sender);\n        accountContext.allowPrimeBorrow = allowPrimeBorrow;\n        accountContext.setAccountContext(msg.sender);\n    }\n\n    /// @notice Enables a bitmap currency for msg.sender, account cannot have any assets when this call\n    /// occurs. Will revert if the account already has a bitmap currency set.\n    /// @param currencyId the currency to enable the bitmap for.\n    /// @dev emit:AccountSettled emit:AccountContextUpdate\n    /// @dev auth:msg.sender\n    function enableBitmapCurrency(uint16 currencyId) external {\n        require(msg.sender != address(this)); // dev: no internal call to enableBitmapCurrency\n        require(currencyId <= maxCurrencyId); // dev: invalid currency id\n        address account = msg.sender;\n        (AccountContext memory accountContext, /* didSettle */) = _settleAccountIfRequired(account);\n        accountContext.enableBitmapForAccount(currencyId, block.timestamp);\n        accountContext.setAccountContext(account);\n    }\n\n    /// @notice Method for manually settling an account, generally should not be called because other\n    /// methods will check if an account needs to be settled automatically. If a bitmap account has debt\n    /// and is settled via this method, the hasDebt flag will not be cleared until a free collateral check\n    /// is performed on the account.\n    /// @param account the account to settle\n    /// @dev emit:AccountSettled emit:AccountContextUpdate\n    /// @dev auth:none\n    /// @return returns true if account has been settled\n    function settleAccount(address account) external returns (bool) {\n        requireValidAccount(account);\n        (AccountContext memory accountContext, bool didSettle) = _settleAccountIfRequired(account);\n        if (didSettle) accountContext.setAccountContext(account);\n        return didSettle;\n    }\n\n    /// @notice Deposits and wraps the underlying token for a particular cToken. Does not settle assets or check free\n    /// collateral, idea is to be as gas efficient as possible during potential liquidation events.\n    /// @param account the account to deposit into\n    /// @param currencyId currency id of the asset token that wraps this underlying\n    /// @param amountExternalPrecision the amount of underlying tokens in its native decimal precision\n    /// (i.e. 18 decimals for DAI or 6 decimals for USDC). This will be converted to 8 decimals during transfer.\n    /// @return asset tokens minted and deposited to the account in internal decimals (8)\n    /// @dev emit:CashBalanceChange emit:AccountContextUpdate\n    /// @dev auth:none\n    function depositUnderlyingToken(\n        address account,\n        uint16 currencyId,\n        uint256 amountExternalPrecision\n    ) external payable nonReentrant returns (uint256) {\n        require(msg.sender != address(this)); // dev: no internal call to deposit underlying\n        // Only the account can deposit into its balance, donations are not allowed.\n        require(msg.sender == account); // dev: unauthorized\n        requireValidAccount(account);\n\n        AccountContext memory accountContext = AccountContextHandler.getAccountContext(account);\n        BalanceState memory balanceState;\n        balanceState.loadBalanceState(account, currencyId, accountContext);\n\n        // NOTE: using msg.sender here allows for a different sender to deposit tokens into\n        // the specified account. This may be useful for on-demand collateral top ups from a\n        // third party.\n        int256 primeCashReceived = balanceState.depositUnderlyingToken(\n            account,\n            SafeInt256.toInt(amountExternalPrecision),\n            false // there should never be excess ETH here by definition\n        );\n\n        require(primeCashReceived > 0); // dev: asset tokens negative or zero\n\n        balanceState.finalizeNoWithdraw(account, accountContext);\n        accountContext.setAccountContext(account);\n\n        // Check the supply cap after all balances have been finalized\n        balanceState.primeRate.checkSupplyCap(currencyId);\n\n        // NOTE: no free collateral checks required for depositing\n        return primeCashReceived.toUint();\n    }\n\n    /// @notice DEPRECATED: deposits deprecated cTokens tokens as collateral into an account that\n    /// were listed prior to the migration to prime cash. Future listed tokens will not have asset\n    /// tokens and will revert in this method.\n    /// @param account the account to deposit into\n    /// @param currencyId currency id of the asset token\n    /// @param amountExternalPrecision the amount of asset tokens in its native decimal precision\n    /// (i.e. 8 decimals for cTokens).\n    /// @return asset tokens minted and deposited to the account in internal decimals (8)\n    /// @dev emit:CashBalanceChange emit:AccountContextUpdate\n    /// @dev auth:none\n    function depositAssetToken(\n        address account,\n        uint16 currencyId,\n        uint256 amountExternalPrecision\n    ) external nonReentrant returns (uint256) {\n        require(msg.sender != address(this)); // dev: no internal call to deposit asset\n        // Only the account can deposit into its balance, donations are not allowed.\n        require(msg.sender == account); // dev: unauthorized\n        requireValidAccount(account);\n\n        AccountContext memory accountContext = AccountContextHandler.getAccountContext(account);\n        BalanceState memory balanceState;\n        balanceState.loadBalanceState(account, currencyId, accountContext);\n\n        // Int conversion overflow check done inside this method call. msg.sender\n        // is used as the account in deposit to allow for other accounts to deposit\n        // on behalf of the given account. This always does an immediate transfer\n        // and marks the net prime cash change on the balance state.\n        int256 primeCashReceived = balanceState.depositDeprecatedAssetToken(\n            account,\n            SafeInt256.toInt(amountExternalPrecision)\n        );\n\n        require(primeCashReceived > 0); // dev: asset tokens negative or zero\n\n        balanceState.finalizeNoWithdraw(account, accountContext);\n        accountContext.setAccountContext(account);\n\n        // Check the supply cap after all balances have been finalized\n        balanceState.primeRate.checkSupplyCap(currencyId);\n\n        // NOTE: no free collateral checks required for depositing\n        return primeCashReceived.toUint();\n    }\n\n    /// @notice Withdraws balances from Notional, may also redeem to underlying tokens on user request. Will settle\n    /// and do free collateral checks if required. Can only be called by msg.sender, operators who want to withdraw for\n    /// an account must do an authenticated call via ERC1155Action `safeTransferFrom` or `safeBatchTransferFrom`\n    /// @param currencyId currency id of the asset token\n    /// @param amountInternalPrecision the amount of cash balance in internal 8 decimal precision to withdraw,\n    /// this is be denominated in prime cash. If set to uint88 max, will withdraw an entire cash balance.\n    /// @param redeemToUnderlying DEPRECATED except for ETH balances. Prior to the prime cash upgrade, accounts could withdraw\n    /// cTokens directly. However, post prime cash migration this is no longer the case. If withdrawing ETH, setting redeemToUnderlying\n    /// to false will redeem ETH as WETH.\n    /// @dev emit:CashBalanceChange emit:AccountContextUpdate\n    /// @dev auth:msg.sender\n    /// @return the amount of tokens received by the account denominated in the destination token precision (if\n    // redeeming to underlying the amount will be the underlying amount received in that token's native precision)\n    function withdraw(\n        uint16 currencyId,\n        uint88 amountInternalPrecision,\n        bool redeemToUnderlying\n    ) external nonReentrant returns (uint256) {\n        if (currencyId != Constants.ETH_CURRENCY_ID) {\n            require(redeemToUnderlying, \"Deprecated: Redeem to cToken\");\n        }\n        // This happens before reading the balance state to get the most up to date cash balance\n        (AccountContext memory accountContext, /* didSettle */) = _settleAccountIfRequired(msg.sender);\n\n        BalanceState memory balanceState;\n        balanceState.loadBalanceState(msg.sender, currencyId, accountContext);\n        if (amountInternalPrecision == type(uint88).max) {\n            // if set to uint88 max, withdraw the full stored balance. This feature only\n            // works if there is a positive balance\n            require(balanceState.storedCashBalance > 0);\n            balanceState.primeCashWithdraw = balanceState.storedCashBalance.neg();\n        } else {\n            // Overflow is not possible due to uint88\n            balanceState.primeCashWithdraw = int256(amountInternalPrecision).neg();\n        }\n\n        int256 underlyingWithdrawnExternal = balanceState.finalizeWithWithdraw(\n            msg.sender, accountContext, !redeemToUnderlying\n        );\n\n        accountContext.setAccountContext(msg.sender);\n\n        if (accountContext.hasDebt != 0x00) {\n            FreeCollateralExternal.checkFreeCollateralAndRevert(msg.sender);\n        }\n\n        require(underlyingWithdrawnExternal <= 0);\n\n        // No need to check supply caps\n        return underlyingWithdrawnExternal.neg().toUint();\n    }\n\n    /// @notice Allows accounts to redeem nTokens into constituent assets and then absorb the assets\n    /// into their portfolio. Due to the complexity here, it is not allowed to be called during a batch trading\n    /// operation and must be done separately.\n    /// @param redeemer the address that holds the nTokens to redeem\n    /// @param currencyId the currency associated the nToken\n    /// @param tokensToRedeem_ the amount of nTokens to convert to cash\n    /// @param sellTokenAssets attempt to sell residual fCash and convert to cash\n    /// @param acceptResidualAssets if true, will place any residual fCash that could not be sold (either due to slippage\n    /// or because it was idiosyncratic) into the account's portfolio\n    /// @dev auth:msg.sender auth:ERC1155\n    /// @return total amount of asset cash redeemed\n    /// @return true or false if there were residuals that were placed into the portfolio\n    function nTokenRedeem(\n        address redeemer,\n        uint16 currencyId,\n        uint96 tokensToRedeem_,\n        bool sellTokenAssets,\n        bool acceptResidualAssets\n    ) external nonReentrant returns (int256, bool) {\n        // ERC1155 can call this method during a post transfer event\n        require(msg.sender == redeemer || msg.sender == address(this), \"Unauthorized caller\");\n        int256 tokensToRedeem = int256(tokensToRedeem_);\n\n        (AccountContext memory context, /* didSettle */) = _settleAccountIfRequired(redeemer);\n\n        BalanceState memory balance;\n        balance.loadBalanceState(redeemer, currencyId, context);\n\n        require(balance.storedNTokenBalance >= tokensToRedeem, \"Insufficient tokens\");\n        balance.netNTokenSupplyChange = tokensToRedeem.neg();\n\n        (int256 totalPrimeCash, PortfolioAsset[] memory assets) = nTokenRedeemAction.redeem(\n            redeemer, currencyId, tokensToRedeem, sellTokenAssets, acceptResidualAssets\n        );\n\n        // Set balances before transferring assets\n        balance.netCashChange = totalPrimeCash;\n        balance.finalizeNoWithdraw(redeemer, context);\n\n        // The hasResidual flag is only set to true if selling residuals has failed, checking\n        // if the length of assets is greater than zero will detect the presence of ifCash\n        // assets that have not been sold.\n        if (assets.length > 0) {\n            // This method will store assets and return the memory location of the new account\n            // context.\n            address nTokenAddress = nTokenHandler.nTokenAddress(currencyId);\n            context = SettleAssetsExternal.placeAssetsInAccount(redeemer, nTokenAddress, context, assets);\n        }\n\n        context.setAccountContext(redeemer);\n        if (context.hasDebt != 0x00) {\n            FreeCollateralExternal.checkFreeCollateralAndRevert(redeemer);\n        }\n\n        return (totalPrimeCash, assets.length > 0);\n    }\n\n    /// @notice Settle the account if required, returning a reference to the account context. Also\n    /// returns a boolean to indicate if it did settle.\n    function _settleAccountIfRequired(address account)\n        private\n        returns (AccountContext memory, bool)\n    {\n        AccountContext memory accountContext = AccountContextHandler.getAccountContext(account);\n        if (accountContext.mustSettleAssets()) {\n            return (SettleAssetsExternal.settleAccount(account, accountContext), true);\n        } else {\n            return (accountContext, false);\n        }\n    }\n\n    /// @notice Get a list of deployed library addresses (sorted by library name)\n    function getLibInfo() external pure returns (address, address, address, address) {\n        return (\n            address(FreeCollateralExternal),\n            address(MigrateIncentives), \n            address(SettleAssetsExternal), \n            address(nTokenRedeemAction)\n        );\n    }\n}\n","sourcePath":"contracts/external/actions/AccountAction.sol","type":"contract","deployment":{"address":"0x0092A5552162f911ccF7f456e85f473cE259707F","chainid":"5","blockHeight":10202773}}