{"abi":[{"inputs":[{"components":[{"internalType":"contract NotionalProxy","name":"notional","type":"address"},{"internalType":"address","name":"underlying","type":"address"},{"internalType":"address","name":"cToken","type":"address"},{"internalType":"address","name":"cTokenRateAdapter","type":"address"}],"internalType":"struct CompoundV2DeploymentParams","name":"params","type":"tuple"}],"stateMutability":"nonpayable","type":"constructor","name":"constructor"},{"inputs":[],"name":"decimals","outputs":[{"internalType":"uint8","name":"","type":"uint8"}],"stateMutability":"view","type":"function"},{"inputs":[{"internalType":"address[]","name":"holdings_","type":"address[]"},{"internalType":"uint256[]","name":"depositAmounts","type":"uint256[]"}],"name":"getDepositCalldataForRebalancing","outputs":[{"components":[{"internalType":"address[]","name":"targets","type":"address[]"},{"internalType":"bytes[]","name":"callData","type":"bytes[]"},{"internalType":"uint256[]","name":"msgValue","type":"uint256[]"},{"internalType":"uint256","name":"underlyingDepositAmount","type":"uint256"},{"internalType":"address","name":"assetToken","type":"address"}],"internalType":"struct DepositData[]","name":"depositData","type":"tuple[]"}],"stateMutability":"view","type":"function"},{"inputs":[{"internalType":"uint256","name":"withdrawAmount","type":"uint256"}],"name":"getRedemptionCalldata","outputs":[{"components":[{"internalType":"address[]","name":"targets","type":"address[]"},{"internalType":"bytes[]","name":"callData","type":"bytes[]"},{"internalType":"uint256","name":"expectedUnderlying","type":"uint256"},{"internalType":"address","name":"assetToken","type":"address"}],"internalType":"struct RedeemData[]","name":"redeemData","type":"tuple[]"}],"stateMutability":"view","type":"function"},{"inputs":[{"internalType":"address[]","name":"holdings_","type":"address[]"},{"internalType":"uint256[]","name":"withdrawAmounts","type":"uint256[]"}],"name":"getRedemptionCalldataForRebalancing","outputs":[{"components":[{"internalType":"address[]","name":"targets","type":"address[]"},{"internalType":"bytes[]","name":"callData","type":"bytes[]"},{"internalType":"uint256","name":"expectedUnderlying","type":"uint256"},{"internalType":"address","name":"assetToken","type":"address"}],"internalType":"struct RedeemData[]","name":"redeemData","type":"tuple[]"}],"stateMutability":"view","type":"function"},{"inputs":[],"name":"getTotalUnderlyingValueStateful","outputs":[{"internalType":"uint256","name":"nativePrecision","type":"uint256"},{"internalType":"uint256","name":"internalPrecision","type":"uint256"}],"stateMutability":"nonpayable","type":"function"},{"inputs":[],"name":"getTotalUnderlyingValueView","outputs":[{"internalType":"uint256","name":"nativePrecision","type":"uint256"},{"internalType":"uint256","name":"internalPrecision","type":"uint256"}],"stateMutability":"view","type":"function"},{"inputs":[],"name":"holdingValuesInUnderlying","outputs":[{"internalType":"uint256[]","name":"","type":"uint256[]"}],"stateMutability":"view","type":"function"},{"inputs":[],"name":"holdings","outputs":[{"internalType":"address[]","name":"","type":"address[]"}],"stateMutability":"view","type":"function"},{"inputs":[],"name":"underlying","outputs":[{"internalType":"address","name":"","type":"address"}],"stateMutability":"view","type":"function"}],"bytecode":"6101806040523480156200001257600080fd5b506040516200113438038062001134833981016040819052620000359162000171565b805160208201516001600160601b0319606083811b821660805282901b1660a0526001600160a01b0381161560f881901b61010052600081620000ed57826001600160a01b031663313ce5676040518163ffffffff1660e01b815260040160206040518083038186803b158015620000ac57600080fd5b505afa158015620000c1573d6000803e3d6000fd5b505050506040513d601f19601f82011682018060405250810190620000e79190620001f8565b620000f0565b60125b905060128160ff1611156200010457600080fd5b7fff0000000000000000000000000000000000000000000000000000000000000060f882901b1660c05260ff16600a0a60e05250505060408101516001600160601b0319606091821b81166101205291810151901b1661014052670de0b6b3a7640000610160526200023b565b60006080828403121562000183578081fd5b604051608081016001600160401b0381118282101715620001a057fe5b6040528251620001b08162000222565b81526020830151620001c28162000222565b60208201526040830151620001d78162000222565b60408201526060830151620001ec8162000222565b60608201529392505050565b6000602082840312156200020a578081fd5b815160ff811681146200021b578182fd5b9392505050565b6001600160a01b03811681146200023857600080fd5b50565b60805160601c60a05160601c60c05160f81c60e0516101005160f81c6101205160601c6101405160601c61016051610e6b620002c9600039806108925250806108b95250806102a052806103e752806104d652806106cc52806107c65280610838525050806101f452508061016852508061019b52806104885250806102f5528061052a5250610e6b6000f3fe608060405234801561001057600080fd5b50600436106100935760003560e01c8063871ade4311610066578063871ade4314610100578063a77c05b814610120578063b5e4da2314610136578063e79bf13b14610149578063ef81f2161461015e57610093565b8063313ce56714610098578063395c46ba146100b65780636f307dc3146100cb57806376cf13af146100e0575b600080fd5b6100a0610166565b6040516100ad9190610e27565b60405180910390f35b6100be61018a565b6040516100ad9190610dd9565b6100d3610199565b6040516100ad9190610c5d565b6100f36100ee366004610a1a565b6101bd565b6040516100ad9190610c8b565b61011361010e366004610a1a565b6101d4565b6040516100ad9190610d46565b6101286101e2565b6040516100ad929190610e19565b610113610144366004610b49565b61022d565b610151610240565b6040516100ad9190610c71565b61012861024a565b7f000000000000000000000000000000000000000000000000000000000000000090565b6060610194610255565b905090565b7f000000000000000000000000000000000000000000000000000000000000000090565b60606101cb858585856103b5565b95945050505050565b60606101cb858585856103d8565b6000806101ed610461565b91506102277f0000000000000000000000000000000000000000000000000000000000000000610221846305f5e1006105ea565b9061061a565b90509091565b606061023882610639565b90505b919050565b6060610194610810565b6000806101ed610881565b604080516001808252818301909252606091600091906020808301908036833750506040805160018082528183019092529293506000929150602080830190803683370190505090507f0000000000000000000000000000000000000000000000000000000000000000816000815181106102cc57fe5b6001600160a01b039283166020918202929092010152604051631794b8ef60e01b8152610397917f00000000000000000000000000000000000000000000000000000000000000001690631794b8ef9061032a908590600401610c71565b60006040518083038186803b15801561034257600080fd5b505afa158015610356573d6000803e3d6000fd5b505050506040513d6000823e601f3d908101601f1916820160405261037e9190810190610a83565b60008151811061038a57fe5b602002602001015161088b565b826000815181106103a457fe5b602090810291909101015250905090565b606060405162461bcd60e51b81526004016103cf90610dec565b60405180910390fd5b606060018414801561043c57507f00000000000000000000000000000000000000000000000000000000000000006001600160a01b03168585600081811061041c57fe5b905060200201602081019061043191906109f3565b6001600160a01b0316145b61044557600080fd5b6101cb8383600081811061045557fe5b90506020020135610639565b604080516002808252606082018352600092839291906020830190803683370190505090507f0000000000000000000000000000000000000000000000000000000000000000816000815181106104b457fe5b60200260200101906001600160a01b031690816001600160a01b0316815250507f00000000000000000000000000000000000000000000000000000000000000008160018151811061050257fe5b6001600160a01b039283166020918202929092010152604051631794b8ef60e01b81526000917f00000000000000000000000000000000000000000000000000000000000000001690631794b8ef9061055f908590600401610c71565b60006040518083038186803b15801561057757600080fd5b505afa15801561058b573d6000803e3d6000fd5b505050506040513d6000823e601f3d908101601f191682016040526105b39190810190610a83565b90506105e3816000815181106105c557fe5b60200260200101516105dd8360018151811061038a57fe5b90610954565b9250505090565b6000826105f957506000610614565b8282028284828161060657fe5b041461061157600080fd5b90505b92915050565b600080821161062857600080fd5b81838161063157fe5b049392505050565b606081610679576040805160008082526020820190925290610671565b61065e610979565b8152602001906001900390816106565790505b50905061023b565b6040805160018082528183019092526000916020808301908036833750506040805160018082528183019092529293506000929150602082015b60608152602001906001900390816106b35790505090507f0000000000000000000000000000000000000000000000000000000000000000826000815181106106f857fe5b6001600160a01b039092166020928302919091019091015260405163852a12e360e01b9061072a908690602401610e10565b604051602081830303815290604052906001600160e01b0319166020820180516001600160e01b0383818316178352505050508160008151811061076a57fe5b602090810291909101015260408051600180825281830190925290816020015b610792610979565b81526020019060019003908161078a57905050925060405180608001604052808381526020018281526020018581526020017f00000000000000000000000000000000000000000000000000000000000000006001600160a01b0316815250836000815181106107fe57fe5b60200260200101819052505050919050565b60408051600180825281830190925260609160009190602080830190803683370190505090507f00000000000000000000000000000000000000000000000000000000000000008160008151811061086457fe5b6001600160a01b0390921660209283029190910190910152905090565b6000610194610461565b60006102387f000000000000000000000000000000000000000000000000000000000000000061022161094d7f00000000000000000000000000000000000000000000000000000000000000006001600160a01b031663b2fffb046040518163ffffffff1660e01b815260040160206040518083038186803b15801561091057600080fd5b505afa158015610924573d6000803e3d6000fd5b505050506040513d601f19601f820116820180604052508101906109489190610b31565b610966565b85906105ea565b60008282018381101561061157600080fd5b60008082121561097557600080fd5b5090565b604051806080016040528060608152602001606081526020016000815260200160006001600160a01b031681525090565b60008083601f8401126109bb578081fd5b50813567ffffffffffffffff8111156109d2578182fd5b60208301915083602080830285010111156109ec57600080fd5b9250929050565b600060208284031215610a04578081fd5b81356001600160a01b0381168114610611578182fd5b60008060008060408587031215610a2f578283fd5b843567ffffffffffffffff80821115610a46578485fd5b610a52888389016109aa565b90965094506020870135915080821115610a6a578384fd5b50610a77878288016109aa565b95989497509550505050565b60006020808385031215610a95578182fd5b825167ffffffffffffffff80821115610aac578384fd5b818501915085601f830112610abf578384fd5b815181811115610acb57fe5b83810260405185828201018181108582111715610ae457fe5b604052828152858101935084860182860187018a1015610b02578788fd5b8795505b83861015610b24578051855260019590950194938601938601610b06565b5098975050505050505050565b600060208284031215610b42578081fd5b5051919050565b600060208284031215610b5a578081fd5b5035919050565b6000815180845260208085019450808401835b83811015610b995781516001600160a01b031687529582019590820190600101610b74565b509495945050505050565b6000815180845260208085018081965082840281019150828601855b85811015610c2157828403895281518051808652885b81811015610bf1578281018801518782018901528701610bd6565b81811115610c0157898883890101525b5099860199601f01601f1916949094018501935090840190600101610bc0565b5091979650505050505050565b6000815180845260208085019450808401835b83811015610b9957815187529582019590820190600101610c41565b6001600160a01b0391909116815260200190565b600060208252610c846020830184610b61565b9392505050565b60208082528251828201819052600091906040908185019080840286018301878501865b83811015610d3857603f19898403018552815160a08151818652610cd582870182610b61565b915050888201518582038a870152610ced8282610ba4565b9150508782015185820389870152610d058282610c2e565b606084810151908801526080938401516001600160a01b0316939096019290925250509386019390860190600101610caf565b509098975050505050505050565b60208082528251828201819052600091906040908185019080840286018301878501865b83811015610d3857603f19898403018552815160808151818652610d9082870182610b61565b915050888201518582038a870152610da88282610ba4565b838a0151878b01526060938401516001600160a01b0316939096019290925250509386019390860190600101610d6a565b600060208252610c846020830184610c2e565b6020808252600a908201526911195c1c9958d85d195960b21b604082015260600190565b90815260200190565b918252602082015260400190565b60ff9190911681526020019056fea2646970667358221220e24711012d17afcfa9399d290e51c67bfd60c9ccc545f55eb4088fa07a4d3ef264736f6c63430007060033","bytecodeSha1":"ba570fbf1c269762315a6c1452b75fc874053c56","compiler":{"evm_version":"istanbul","optimizer":{"enabled":true,"runs":200},"version":"0.7.6+commit.7338295f"},"contractName":"CompoundV2HoldingsOracle","language":"Solidity","natspec":{"kind":"dev","methods":{"decimals()":{"notice":"Returns the native decimal precision of the underlying token"},"getRedemptionCalldata(uint256)":{"notice":"Returns calldata for how to withdraw an amount"},"getTotalUnderlyingValueStateful()":{"notice":"Returns the total underlying held by the caller in all the listed holdings"},"holdings()":{"notice":"Returns a list of the various holdings for the prime cash currency"},"underlying()":{"notice":"Returns the underlying token that all holdings can be redeemed for."}},"version":1},"opcodes":"PUSH1 0x80 PUSH1 0x40 MSTORE CALLVALUE DUP1 ISZERO PUSH2 0x10 JUMPI PUSH1 0x0 DUP1 REVERT JUMPDEST POP PUSH1 0x4 CALLDATASIZE LT PUSH2 0x93 JUMPI PUSH1 0x0 CALLDATALOAD PUSH1 0xE0 SHR DUP1 PUSH4 0x871ADE43 GT PUSH2 0x66 JUMPI DUP1 PUSH4 0x871ADE43 EQ PUSH2 0x100 JUMPI DUP1 PUSH4 0xA77C05B8 EQ PUSH2 0x120 JUMPI DUP1 PUSH4 0xB5E4DA23 EQ PUSH2 0x136 JUMPI DUP1 PUSH4 0xE79BF13B EQ PUSH2 0x149 JUMPI DUP1 PUSH4 0xEF81F216 EQ PUSH2 0x15E JUMPI PUSH2 0x93 JUMP JUMPDEST DUP1 PUSH4 0x313CE567 EQ PUSH2 0x98 JUMPI DUP1 PUSH4 0x395C46BA EQ PUSH2 0xB6 JUMPI DUP1 PUSH4 0x6F307DC3 EQ PUSH2 0xCB JUMPI DUP1 PUSH4 0x76CF13AF EQ PUSH2 0xE0 JUMPI JUMPDEST PUSH1 0x0 DUP1 REVERT JUMPDEST PUSH2 0xA0 PUSH2 0x166 JUMP JUMPDEST PUSH1 0x40 MLOAD PUSH2 0xAD SWAP2 SWAP1 PUSH2 0xE27 JUMP JUMPDEST PUSH1 0x40 MLOAD DUP1 SWAP2 SUB SWAP1 RETURN JUMPDEST PUSH2 0xBE PUSH2 0x18A JUMP JUMPDEST PUSH1 0x40 MLOAD PUSH2 0xAD SWAP2 SWAP1 PUSH2 0xDD9 JUMP JUMPDEST PUSH2 0xD3 PUSH2 0x199 JUMP JUMPDEST PUSH1 0x40 MLOAD PUSH2 0xAD SWAP2 SWAP1 PUSH2 0xC5D JUMP JUMPDEST PUSH2 0xF3 PUSH2 0xEE CALLDATASIZE PUSH1 0x4 PUSH2 0xA1A JUMP JUMPDEST PUSH2 0x1BD JUMP JUMPDEST PUSH1 0x40 MLOAD PUSH2 0xAD SWAP2 SWAP1 PUSH2 0xC8B JUMP JUMPDEST PUSH2 0x113 PUSH2 0x10E CALLDATASIZE PUSH1 0x4 PUSH2 0xA1A JUMP JUMPDEST PUSH2 0x1D4 JUMP JUMPDEST PUSH1 0x40 MLOAD PUSH2 0xAD SWAP2 SWAP1 PUSH2 0xD46 JUMP JUMPDEST PUSH2 0x128 PUSH2 0x1E2 JUMP JUMPDEST PUSH1 0x40 MLOAD PUSH2 0xAD SWAP3 SWAP2 SWAP1 PUSH2 0xE19 JUMP JUMPDEST PUSH2 0x113 PUSH2 0x144 CALLDATASIZE PUSH1 0x4 PUSH2 0xB49 JUMP JUMPDEST PUSH2 0x22D JUMP JUMPDEST PUSH2 0x151 PUSH2 0x240 JUMP JUMPDEST PUSH1 0x40 MLOAD PUSH2 0xAD SWAP2 SWAP1 PUSH2 0xC71 JUMP JUMPDEST PUSH2 0x128 PUSH2 0x24A JUMP JUMPDEST PUSH32 0x0 SWAP1 JUMP JUMPDEST PUSH1 0x60 PUSH2 0x194 PUSH2 0x255 JUMP JUMPDEST SWAP1 POP SWAP1 JUMP JUMPDEST PUSH32 0x0 SWAP1 JUMP JUMPDEST PUSH1 0x60 PUSH2 0x1CB DUP6 DUP6 DUP6 DUP6 PUSH2 0x3B5 JUMP JUMPDEST SWAP6 SWAP5 POP POP POP POP POP JUMP JUMPDEST PUSH1 0x60 PUSH2 0x1CB DUP6 DUP6 DUP6 DUP6 PUSH2 0x3D8 JUMP JUMPDEST PUSH1 0x0 DUP1 PUSH2 0x1ED PUSH2 0x461 JUMP JUMPDEST SWAP2 POP PUSH2 0x227 PUSH32 0x0 PUSH2 0x221 DUP5 PUSH4 0x5F5E100 PUSH2 0x5EA JUMP JUMPDEST SWAP1 PUSH2 0x61A JUMP JUMPDEST SWAP1 POP SWAP1 SWAP2 JUMP JUMPDEST PUSH1 0x60 PUSH2 0x238 DUP3 PUSH2 0x639 JUMP JUMPDEST SWAP1 POP JUMPDEST SWAP2 SWAP1 POP JUMP JUMPDEST PUSH1 0x60 PUSH2 0x194 PUSH2 0x810 JUMP JUMPDEST PUSH1 0x0 DUP1 PUSH2 0x1ED PUSH2 0x881 JUMP JUMPDEST PUSH1 0x40 DUP1 MLOAD PUSH1 0x1 DUP1 DUP3 MSTORE DUP2 DUP4 ADD SWAP1 SWAP3 MSTORE PUSH1 0x60 SWAP2 PUSH1 0x0 SWAP2 SWAP1 PUSH1 0x20 DUP1 DUP4 ADD SWAP1 DUP1 CALLDATASIZE DUP4 CALLDATACOPY POP POP PUSH1 0x40 DUP1 MLOAD PUSH1 0x1 DUP1 DUP3 MSTORE DUP2 DUP4 ADD SWAP1 SWAP3 MSTORE SWAP3 SWAP4 POP PUSH1 0x0 SWAP3 SWAP2 POP PUSH1 0x20 DUP1 DUP4 ADD SWAP1 DUP1 CALLDATASIZE DUP4 CALLDATACOPY ADD SWAP1 POP POP SWAP1 POP PUSH32 0x0 DUP2 PUSH1 0x0 DUP2 MLOAD DUP2 LT PUSH2 0x2CC JUMPI INVALID JUMPDEST PUSH1 0x1 PUSH1 0x1 PUSH1 0xA0 SHL SUB SWAP3 DUP4 AND PUSH1 0x20 SWAP2 DUP3 MUL SWAP3 SWAP1 SWAP3 ADD ADD MSTORE PUSH1 0x40 MLOAD PUSH4 0x1794B8EF PUSH1 0xE0 SHL DUP2 MSTORE PUSH2 0x397 SWAP2 PUSH32 0x0 AND SWAP1 PUSH4 0x1794B8EF SWAP1 PUSH2 0x32A SWAP1 DUP6 SWAP1 PUSH1 0x4 ADD PUSH2 0xC71 JUMP JUMPDEST PUSH1 0x0 PUSH1 0x40 MLOAD DUP1 DUP4 SUB DUP2 DUP7 DUP1 EXTCODESIZE ISZERO DUP1 ISZERO PUSH2 0x342 JUMPI PUSH1 0x0 DUP1 REVERT JUMPDEST POP GAS STATICCALL ISZERO DUP1 ISZERO PUSH2 0x356 JUMPI RETURNDATASIZE PUSH1 0x0 DUP1 RETURNDATACOPY RETURNDATASIZE PUSH1 0x0 REVERT JUMPDEST POP POP POP POP PUSH1 0x40 MLOAD RETURNDATASIZE PUSH1 0x0 DUP3 RETURNDATACOPY PUSH1 0x1F RETURNDATASIZE SWAP1 DUP2 ADD PUSH1 0x1F NOT AND DUP3 ADD PUSH1 0x40 MSTORE PUSH2 0x37E SWAP2 SWAP1 DUP2 ADD SWAP1 PUSH2 0xA83 JUMP JUMPDEST PUSH1 0x0 DUP2 MLOAD DUP2 LT PUSH2 0x38A JUMPI INVALID JUMPDEST PUSH1 0x20 MUL PUSH1 0x20 ADD ADD MLOAD PUSH2 0x88B JUMP JUMPDEST DUP3 PUSH1 0x0 DUP2 MLOAD DUP2 LT PUSH2 0x3A4 JUMPI INVALID JUMPDEST PUSH1 0x20 SWAP1 DUP2 MUL SWAP2 SWAP1 SWAP2 ADD ADD MSTORE POP SWAP1 POP SWAP1 JUMP JUMPDEST PUSH1 0x60 PUSH1 0x40 MLOAD PUSH3 0x461BCD PUSH1 0xE5 SHL DUP2 MSTORE PUSH1 0x4 ADD PUSH2 0x3CF SWAP1 PUSH2 0xDEC JUMP JUMPDEST PUSH1 0x40 MLOAD DUP1 SWAP2 SUB SWAP1 REVERT JUMPDEST PUSH1 0x60 PUSH1 0x1 DUP5 EQ DUP1 ISZERO PUSH2 0x43C JUMPI POP PUSH32 0x0 PUSH1 0x1 PUSH1 0x1 PUSH1 0xA0 SHL SUB AND DUP6 DUP6 PUSH1 0x0 DUP2 DUP2 LT PUSH2 0x41C JUMPI INVALID JUMPDEST SWAP1 POP PUSH1 0x20 MUL ADD PUSH1 0x20 DUP2 ADD SWAP1 PUSH2 0x431 SWAP2 SWAP1 PUSH2 0x9F3 JUMP JUMPDEST PUSH1 0x1 PUSH1 0x1 PUSH1 0xA0 SHL SUB AND EQ JUMPDEST PUSH2 0x445 JUMPI PUSH1 0x0 DUP1 REVERT JUMPDEST PUSH2 0x1CB DUP4 DUP4 PUSH1 0x0 DUP2 DUP2 LT PUSH2 0x455 JUMPI INVALID JUMPDEST SWAP1 POP PUSH1 0x20 MUL ADD CALLDATALOAD PUSH2 0x639 JUMP JUMPDEST PUSH1 0x40 DUP1 MLOAD PUSH1 0x2 DUP1 DUP3 MSTORE PUSH1 0x60 DUP3 ADD DUP4 MSTORE PUSH1 0x0 SWAP3 DUP4 SWAP3 SWAP2 SWAP1 PUSH1 0x20 DUP4 ADD SWAP1 DUP1 CALLDATASIZE DUP4 CALLDATACOPY ADD SWAP1 POP POP SWAP1 POP PUSH32 0x0 DUP2 PUSH1 0x0 DUP2 MLOAD DUP2 LT PUSH2 0x4B4 JUMPI INVALID JUMPDEST PUSH1 0x20 MUL PUSH1 0x20 ADD ADD SWAP1 PUSH1 0x1 PUSH1 0x1 PUSH1 0xA0 SHL SUB AND SWAP1 DUP2 PUSH1 0x1 PUSH1 0x1 PUSH1 0xA0 SHL SUB AND DUP2 MSTORE POP POP PUSH32 0x0 DUP2 PUSH1 0x1 DUP2 MLOAD DUP2 LT PUSH2 0x502 JUMPI INVALID JUMPDEST PUSH1 0x1 PUSH1 0x1 PUSH1 0xA0 SHL SUB SWAP3 DUP4 AND PUSH1 0x20 SWAP2 DUP3 MUL SWAP3 SWAP1 SWAP3 ADD ADD MSTORE PUSH1 0x40 MLOAD PUSH4 0x1794B8EF PUSH1 0xE0 SHL DUP2 MSTORE PUSH1 0x0 SWAP2 PUSH32 0x0 AND SWAP1 PUSH4 0x1794B8EF SWAP1 PUSH2 0x55F SWAP1 DUP6 SWAP1 PUSH1 0x4 ADD PUSH2 0xC71 JUMP JUMPDEST PUSH1 0x0 PUSH1 0x40 MLOAD DUP1 DUP4 SUB DUP2 DUP7 DUP1 EXTCODESIZE ISZERO DUP1 ISZERO PUSH2 0x577 JUMPI PUSH1 0x0 DUP1 REVERT JUMPDEST POP GAS STATICCALL ISZERO DUP1 ISZERO PUSH2 0x58B JUMPI RETURNDATASIZE PUSH1 0x0 DUP1 RETURNDATACOPY RETURNDATASIZE PUSH1 0x0 REVERT JUMPDEST POP POP POP POP PUSH1 0x40 MLOAD RETURNDATASIZE PUSH1 0x0 DUP3 RETURNDATACOPY PUSH1 0x1F RETURNDATASIZE SWAP1 DUP2 ADD PUSH1 0x1F NOT AND DUP3 ADD PUSH1 0x40 MSTORE PUSH2 0x5B3 SWAP2 SWAP1 DUP2 ADD SWAP1 PUSH2 0xA83 JUMP JUMPDEST SWAP1 POP PUSH2 0x5E3 DUP2 PUSH1 0x0 DUP2 MLOAD DUP2 LT PUSH2 0x5C5 JUMPI INVALID JUMPDEST PUSH1 0x20 MUL PUSH1 0x20 ADD ADD MLOAD PUSH2 0x5DD DUP4 PUSH1 0x1 DUP2 MLOAD DUP2 LT PUSH2 0x38A JUMPI INVALID JUMPDEST SWAP1 PUSH2 0x954 JUMP JUMPDEST SWAP3 POP POP POP SWAP1 JUMP JUMPDEST PUSH1 0x0 DUP3 PUSH2 0x5F9 JUMPI POP PUSH1 0x0 PUSH2 0x614 JUMP JUMPDEST DUP3 DUP3 MUL DUP3 DUP5 DUP3 DUP2 PUSH2 0x606 JUMPI INVALID JUMPDEST DIV EQ PUSH2 0x611 JUMPI PUSH1 0x0 DUP1 REVERT JUMPDEST SWAP1 POP JUMPDEST SWAP3 SWAP2 POP POP JUMP JUMPDEST PUSH1 0x0 DUP1 DUP3 GT PUSH2 0x628 JUMPI PUSH1 0x0 DUP1 REVERT JUMPDEST DUP2 DUP4 DUP2 PUSH2 0x631 JUMPI INVALID JUMPDEST DIV SWAP4 SWAP3 POP POP POP JUMP JUMPDEST PUSH1 0x60 DUP2 PUSH2 0x679 JUMPI PUSH1 0x40 DUP1 MLOAD PUSH1 0x0 DUP1 DUP3 MSTORE PUSH1 0x20 DUP3 ADD SWAP1 SWAP3 MSTORE SWAP1 PUSH2 0x671 JUMP JUMPDEST PUSH2 0x65E PUSH2 0x979 JUMP JUMPDEST DUP2 MSTORE PUSH1 0x20 ADD SWAP1 PUSH1 0x1 SWAP1 SUB SWAP1 DUP2 PUSH2 0x656 JUMPI SWAP1 POP JUMPDEST POP SWAP1 POP PUSH2 0x23B JUMP JUMPDEST PUSH1 0x40 DUP1 MLOAD PUSH1 0x1 DUP1 DUP3 MSTORE DUP2 DUP4 ADD SWAP1 SWAP3 MSTORE PUSH1 0x0 SWAP2 PUSH1 0x20 DUP1 DUP4 ADD SWAP1 DUP1 CALLDATASIZE DUP4 CALLDATACOPY POP POP PUSH1 0x40 DUP1 MLOAD PUSH1 0x1 DUP1 DUP3 MSTORE DUP2 DUP4 ADD SWAP1 SWAP3 MSTORE SWAP3 SWAP4 POP PUSH1 0x0 SWAP3 SWAP2 POP PUSH1 0x20 DUP3 ADD JUMPDEST PUSH1 0x60 DUP2 MSTORE PUSH1 0x20 ADD SWAP1 PUSH1 0x1 SWAP1 SUB SWAP1 DUP2 PUSH2 0x6B3 JUMPI SWAP1 POP POP SWAP1 POP PUSH32 0x0 DUP3 PUSH1 0x0 DUP2 MLOAD DUP2 LT PUSH2 0x6F8 JUMPI INVALID JUMPDEST PUSH1 0x1 PUSH1 0x1 PUSH1 0xA0 SHL SUB SWAP1 SWAP3 AND PUSH1 0x20 SWAP3 DUP4 MUL SWAP2 SWAP1 SWAP2 ADD SWAP1 SWAP2 ADD MSTORE PUSH1 0x40 MLOAD PUSH4 0x852A12E3 PUSH1 0xE0 SHL SWAP1 PUSH2 0x72A SWAP1 DUP7 SWAP1 PUSH1 0x24 ADD PUSH2 0xE10 JUMP JUMPDEST PUSH1 0x40 MLOAD PUSH1 0x20 DUP2 DUP4 SUB SUB DUP2 MSTORE SWAP1 PUSH1 0x40 MSTORE SWAP1 PUSH1 0x1 PUSH1 0x1 PUSH1 0xE0 SHL SUB NOT AND PUSH1 0x20 DUP3 ADD DUP1 MLOAD PUSH1 0x1 PUSH1 0x1 PUSH1 0xE0 SHL SUB DUP4 DUP2 DUP4 AND OR DUP4 MSTORE POP POP POP POP DUP2 PUSH1 0x0 DUP2 MLOAD DUP2 LT PUSH2 0x76A JUMPI INVALID JUMPDEST PUSH1 0x20 SWAP1 DUP2 MUL SWAP2 SWAP1 SWAP2 ADD ADD MSTORE PUSH1 0x40 DUP1 MLOAD PUSH1 0x1 DUP1 DUP3 MSTORE DUP2 DUP4 ADD SWAP1 SWAP3 MSTORE SWAP1 DUP2 PUSH1 0x20 ADD JUMPDEST PUSH2 0x792 PUSH2 0x979 JUMP JUMPDEST DUP2 MSTORE PUSH1 0x20 ADD SWAP1 PUSH1 0x1 SWAP1 SUB SWAP1 DUP2 PUSH2 0x78A JUMPI SWAP1 POP POP SWAP3 POP PUSH1 0x40 MLOAD DUP1 PUSH1 0x80 ADD PUSH1 0x40 MSTORE DUP1 DUP4 DUP2 MSTORE PUSH1 0x20 ADD DUP3 DUP2 MSTORE PUSH1 0x20 ADD DUP6 DUP2 MSTORE PUSH1 0x20 ADD PUSH32 0x0 PUSH1 0x1 PUSH1 0x1 PUSH1 0xA0 SHL SUB AND DUP2 MSTORE POP DUP4 PUSH1 0x0 DUP2 MLOAD DUP2 LT PUSH2 0x7FE JUMPI INVALID JUMPDEST PUSH1 0x20 MUL PUSH1 0x20 ADD ADD DUP2 SWAP1 MSTORE POP POP POP SWAP2 SWAP1 POP JUMP JUMPDEST PUSH1 0x40 DUP1 MLOAD PUSH1 0x1 DUP1 DUP3 MSTORE DUP2 DUP4 ADD SWAP1 SWAP3 MSTORE PUSH1 0x60 SWAP2 PUSH1 0x0 SWAP2 SWAP1 PUSH1 0x20 DUP1 DUP4 ADD SWAP1 DUP1 CALLDATASIZE DUP4 CALLDATACOPY ADD SWAP1 POP POP SWAP1 POP PUSH32 0x0 DUP2 PUSH1 0x0 DUP2 MLOAD DUP2 LT PUSH2 0x864 JUMPI INVALID JUMPDEST PUSH1 0x1 PUSH1 0x1 PUSH1 0xA0 SHL SUB SWAP1 SWAP3 AND PUSH1 0x20 SWAP3 DUP4 MUL SWAP2 SWAP1 SWAP2 ADD SWAP1 SWAP2 ADD MSTORE SWAP1 POP SWAP1 JUMP JUMPDEST PUSH1 0x0 PUSH2 0x194 PUSH2 0x461 JUMP JUMPDEST PUSH1 0x0 PUSH2 0x238 PUSH32 0x0 PUSH2 0x221 PUSH2 0x94D PUSH32 0x0 PUSH1 0x1 PUSH1 0x1 PUSH1 0xA0 SHL SUB AND PUSH4 0xB2FFFB04 PUSH1 0x40 MLOAD DUP2 PUSH4 0xFFFFFFFF AND PUSH1 0xE0 SHL DUP2 MSTORE PUSH1 0x4 ADD PUSH1 0x20 PUSH1 0x40 MLOAD DUP1 DUP4 SUB DUP2 DUP7 DUP1 EXTCODESIZE ISZERO DUP1 ISZERO PUSH2 0x910 JUMPI PUSH1 0x0 DUP1 REVERT JUMPDEST POP GAS STATICCALL ISZERO DUP1 ISZERO PUSH2 0x924 JUMPI RETURNDATASIZE PUSH1 0x0 DUP1 RETURNDATACOPY RETURNDATASIZE PUSH1 0x0 REVERT JUMPDEST POP POP POP POP PUSH1 0x40 MLOAD RETURNDATASIZE PUSH1 0x1F NOT PUSH1 0x1F DUP3 ADD AND DUP3 ADD DUP1 PUSH1 0x40 MSTORE POP DUP2 ADD SWAP1 PUSH2 0x948 SWAP2 SWAP1 PUSH2 0xB31 JUMP JUMPDEST PUSH2 0x966 JUMP JUMPDEST DUP6 SWAP1 PUSH2 0x5EA JUMP JUMPDEST PUSH1 0x0 DUP3 DUP3 ADD DUP4 DUP2 LT ISZERO PUSH2 0x611 JUMPI PUSH1 0x0 DUP1 REVERT JUMPDEST PUSH1 0x0 DUP1 DUP3 SLT ISZERO PUSH2 0x975 JUMPI PUSH1 0x0 DUP1 REVERT JUMPDEST POP SWAP1 JUMP JUMPDEST PUSH1 0x40 MLOAD DUP1 PUSH1 0x80 ADD PUSH1 0x40 MSTORE DUP1 PUSH1 0x60 DUP2 MSTORE PUSH1 0x20 ADD PUSH1 0x60 DUP2 MSTORE PUSH1 0x20 ADD PUSH1 0x0 DUP2 MSTORE PUSH1 0x20 ADD PUSH1 0x0 PUSH1 0x1 PUSH1 0x1 PUSH1 0xA0 SHL SUB AND DUP2 MSTORE POP SWAP1 JUMP JUMPDEST PUSH1 0x0 DUP1 DUP4 PUSH1 0x1F DUP5 ADD SLT PUSH2 0x9BB JUMPI DUP1 DUP2 REVERT JUMPDEST POP DUP2 CALLDATALOAD PUSH8 0xFFFFFFFFFFFFFFFF DUP2 GT ISZERO PUSH2 0x9D2 JUMPI DUP2 DUP3 REVERT JUMPDEST PUSH1 0x20 DUP4 ADD SWAP2 POP DUP4 PUSH1 0x20 DUP1 DUP4 MUL DUP6 ADD ADD GT ISZERO PUSH2 0x9EC JUMPI PUSH1 0x0 DUP1 REVERT JUMPDEST SWAP3 POP SWAP3 SWAP1 POP JUMP JUMPDEST PUSH1 0x0 PUSH1 0x20 DUP3 DUP5 SUB SLT ISZERO PUSH2 0xA04 JUMPI DUP1 DUP2 REVERT JUMPDEST DUP2 CALLDATALOAD PUSH1 0x1 PUSH1 0x1 PUSH1 0xA0 SHL SUB DUP2 AND DUP2 EQ PUSH2 0x611 JUMPI DUP2 DUP3 REVERT JUMPDEST PUSH1 0x0 DUP1 PUSH1 0x0 DUP1 PUSH1 0x40 DUP6 DUP8 SUB SLT ISZERO PUSH2 0xA2F JUMPI DUP3 DUP4 REVERT JUMPDEST DUP5 CALLDATALOAD PUSH8 0xFFFFFFFFFFFFFFFF DUP1 DUP3 GT ISZERO PUSH2 0xA46 JUMPI DUP5 DUP6 REVERT JUMPDEST PUSH2 0xA52 DUP9 DUP4 DUP10 ADD PUSH2 0x9AA JUMP JUMPDEST SWAP1 SWAP7 POP SWAP5 POP PUSH1 0x20 DUP8 ADD CALLDATALOAD SWAP2 POP DUP1 DUP3 GT ISZERO PUSH2 0xA6A JUMPI DUP4 DUP5 REVERT JUMPDEST POP PUSH2 0xA77 DUP8 DUP3 DUP9 ADD PUSH2 0x9AA JUMP JUMPDEST SWAP6 SWAP9 SWAP5 SWAP8 POP SWAP6 POP POP POP POP JUMP JUMPDEST PUSH1 0x0 PUSH1 0x20 DUP1 DUP4 DUP6 SUB SLT ISZERO PUSH2 0xA95 JUMPI DUP2 DUP3 REVERT JUMPDEST DUP3 MLOAD PUSH8 0xFFFFFFFFFFFFFFFF DUP1 DUP3 GT ISZERO PUSH2 0xAAC JUMPI DUP4 DUP5 REVERT JUMPDEST DUP2 DUP6 ADD SWAP2 POP DUP6 PUSH1 0x1F DUP4 ADD SLT PUSH2 0xABF JUMPI DUP4 DUP5 REVERT JUMPDEST DUP2 MLOAD DUP2 DUP2 GT ISZERO PUSH2 0xACB JUMPI INVALID JUMPDEST DUP4 DUP2 MUL PUSH1 0x40 MLOAD DUP6 DUP3 DUP3 ADD ADD DUP2 DUP2 LT DUP6 DUP3 GT OR ISZERO PUSH2 0xAE4 JUMPI INVALID JUMPDEST PUSH1 0x40 MSTORE DUP3 DUP2 MSTORE DUP6 DUP2 ADD SWAP4 POP DUP5 DUP7 ADD DUP3 DUP7 ADD DUP8 ADD DUP11 LT ISZERO PUSH2 0xB02 JUMPI DUP8 DUP9 REVERT JUMPDEST DUP8 SWAP6 POP JUMPDEST DUP4 DUP7 LT ISZERO PUSH2 0xB24 JUMPI DUP1 MLOAD DUP6 MSTORE PUSH1 0x1 SWAP6 SWAP1 SWAP6 ADD SWAP5 SWAP4 DUP7 ADD SWAP4 DUP7 ADD PUSH2 0xB06 JUMP JUMPDEST POP SWAP9 SWAP8 POP POP POP POP POP POP POP POP JUMP JUMPDEST PUSH1 0x0 PUSH1 0x20 DUP3 DUP5 SUB SLT ISZERO PUSH2 0xB42 JUMPI DUP1 DUP2 REVERT JUMPDEST POP MLOAD SWAP2 SWAP1 POP JUMP JUMPDEST PUSH1 0x0 PUSH1 0x20 DUP3 DUP5 SUB SLT ISZERO PUSH2 0xB5A JUMPI DUP1 DUP2 REVERT JUMPDEST POP CALLDATALOAD SWAP2 SWAP1 POP JUMP JUMPDEST PUSH1 0x0 DUP2 MLOAD DUP1 DUP5 MSTORE PUSH1 0x20 DUP1 DUP6 ADD SWAP5 POP DUP1 DUP5 ADD DUP4 JUMPDEST DUP4 DUP2 LT ISZERO PUSH2 0xB99 JUMPI DUP2 MLOAD PUSH1 0x1 PUSH1 0x1 PUSH1 0xA0 SHL SUB AND DUP8 MSTORE SWAP6 DUP3 ADD SWAP6 SWAP1 DUP3 ADD SWAP1 PUSH1 0x1 ADD PUSH2 0xB74 JUMP JUMPDEST POP SWAP5 SWAP6 SWAP5 POP POP POP POP POP JUMP JUMPDEST PUSH1 0x0 DUP2 MLOAD DUP1 DUP5 MSTORE PUSH1 0x20 DUP1 DUP6 ADD DUP1 DUP2 SWAP7 POP DUP3 DUP5 MUL DUP2 ADD SWAP2 POP DUP3 DUP7 ADD DUP6 JUMPDEST DUP6 DUP2 LT ISZERO PUSH2 0xC21 JUMPI DUP3 DUP5 SUB DUP10 MSTORE DUP2 MLOAD DUP1 MLOAD DUP1 DUP7 MSTORE DUP9 JUMPDEST DUP2 DUP2 LT ISZERO PUSH2 0xBF1 JUMPI DUP3 DUP2 ADD DUP9 ADD MLOAD DUP8 DUP3 ADD DUP10 ADD MSTORE DUP8 ADD PUSH2 0xBD6 JUMP JUMPDEST DUP2 DUP2 GT ISZERO PUSH2 0xC01 JUMPI DUP10 DUP9 DUP4 DUP10 ADD ADD MSTORE JUMPDEST POP SWAP10 DUP7 ADD SWAP10 PUSH1 0x1F ADD PUSH1 0x1F NOT AND SWAP5 SWAP1 SWAP5 ADD DUP6 ADD SWAP4 POP SWAP1 DUP5 ADD SWAP1 PUSH1 0x1 ADD PUSH2 0xBC0 JUMP JUMPDEST POP SWAP2 SWAP8 SWAP7 POP POP POP POP POP POP POP JUMP JUMPDEST PUSH1 0x0 DUP2 MLOAD DUP1 DUP5 MSTORE PUSH1 0x20 DUP1 DUP6 ADD SWAP5 POP DUP1 DUP5 ADD DUP4 JUMPDEST DUP4 DUP2 LT ISZERO PUSH2 0xB99 JUMPI DUP2 MLOAD DUP8 MSTORE SWAP6 DUP3 ADD SWAP6 SWAP1 DUP3 ADD SWAP1 PUSH1 0x1 ADD PUSH2 0xC41 JUMP JUMPDEST PUSH1 0x1 PUSH1 0x1 PUSH1 0xA0 SHL SUB SWAP2 SWAP1 SWAP2 AND DUP2 MSTORE PUSH1 0x20 ADD SWAP1 JUMP JUMPDEST PUSH1 0x0 PUSH1 0x20 DUP3 MSTORE PUSH2 0xC84 PUSH1 0x20 DUP4 ADD DUP5 PUSH2 0xB61 JUMP JUMPDEST SWAP4 SWAP3 POP POP POP JUMP JUMPDEST PUSH1 0x20 DUP1 DUP3 MSTORE DUP3 MLOAD DUP3 DUP3 ADD DUP2 SWAP1 MSTORE PUSH1 0x0 SWAP2 SWAP1 PUSH1 0x40 SWAP1 DUP2 DUP6 ADD SWAP1 DUP1 DUP5 MUL DUP7 ADD DUP4 ADD DUP8 DUP6 ADD DUP7 JUMPDEST DUP4 DUP2 LT ISZERO PUSH2 0xD38 JUMPI PUSH1 0x3F NOT DUP10 DUP5 SUB ADD DUP6 MSTORE DUP2 MLOAD PUSH1 0xA0 DUP2 MLOAD DUP2 DUP7 MSTORE PUSH2 0xCD5 DUP3 DUP8 ADD DUP3 PUSH2 0xB61 JUMP JUMPDEST SWAP2 POP POP DUP9 DUP3 ADD MLOAD DUP6 DUP3 SUB DUP11 DUP8 ADD MSTORE PUSH2 0xCED DUP3 DUP3 PUSH2 0xBA4 JUMP JUMPDEST SWAP2 POP POP DUP8 DUP3 ADD MLOAD DUP6 DUP3 SUB DUP10 DUP8 ADD MSTORE PUSH2 0xD05 DUP3 DUP3 PUSH2 0xC2E JUMP JUMPDEST PUSH1 0x60 DUP5 DUP2 ADD MLOAD SWAP1 DUP9 ADD MSTORE PUSH1 0x80 SWAP4 DUP5 ADD MLOAD PUSH1 0x1 PUSH1 0x1 PUSH1 0xA0 SHL SUB AND SWAP4 SWAP1 SWAP7 ADD SWAP3 SWAP1 SWAP3 MSTORE POP POP SWAP4 DUP7 ADD SWAP4 SWAP1 DUP7 ADD SWAP1 PUSH1 0x1 ADD PUSH2 0xCAF JUMP JUMPDEST POP SWAP1 SWAP9 SWAP8 POP POP POP POP POP POP POP POP JUMP JUMPDEST PUSH1 0x20 DUP1 DUP3 MSTORE DUP3 MLOAD DUP3 DUP3 ADD DUP2 SWAP1 MSTORE PUSH1 0x0 SWAP2 SWAP1 PUSH1 0x40 SWAP1 DUP2 DUP6 ADD SWAP1 DUP1 DUP5 MUL DUP7 ADD DUP4 ADD DUP8 DUP6 ADD DUP7 JUMPDEST DUP4 DUP2 LT ISZERO PUSH2 0xD38 JUMPI PUSH1 0x3F NOT DUP10 DUP5 SUB ADD DUP6 MSTORE DUP2 MLOAD PUSH1 0x80 DUP2 MLOAD DUP2 DUP7 MSTORE PUSH2 0xD90 DUP3 DUP8 ADD DUP3 PUSH2 0xB61 JUMP JUMPDEST SWAP2 POP POP DUP9 DUP3 ADD MLOAD DUP6 DUP3 SUB DUP11 DUP8 ADD MSTORE PUSH2 0xDA8 DUP3 DUP3 PUSH2 0xBA4 JUMP JUMPDEST DUP4 DUP11 ADD MLOAD DUP8 DUP12 ADD MSTORE PUSH1 0x60 SWAP4 DUP5 ADD MLOAD PUSH1 0x1 PUSH1 0x1 PUSH1 0xA0 SHL SUB AND SWAP4 SWAP1 SWAP7 ADD SWAP3 SWAP1 SWAP3 MSTORE POP POP SWAP4 DUP7 ADD SWAP4 SWAP1 DUP7 ADD SWAP1 PUSH1 0x1 ADD PUSH2 0xD6A JUMP JUMPDEST PUSH1 0x0 PUSH1 0x20 DUP3 MSTORE PUSH2 0xC84 PUSH1 0x20 DUP4 ADD DUP5 PUSH2 0xC2E JUMP JUMPDEST PUSH1 0x20 DUP1 DUP3 MSTORE PUSH1 0xA SWAP1 DUP3 ADD MSTORE PUSH10 0x11195C1C9958D85D1959 PUSH1 0xB2 SHL PUSH1 0x40 DUP3 ADD MSTORE PUSH1 0x60 ADD SWAP1 JUMP JUMPDEST SWAP1 DUP2 MSTORE PUSH1 0x20 ADD SWAP1 JUMP JUMPDEST SWAP2 DUP3 MSTORE PUSH1 0x20 DUP3 ADD MSTORE PUSH1 0x40 ADD SWAP1 JUMP JUMPDEST PUSH1 0xFF SWAP2 SWAP1 SWAP2 AND DUP2 MSTORE PUSH1 0x20 ADD SWAP1 JUMP INVALID LOG2 PUSH5 0x6970667358 0x22 SLT KECCAK256 0xE2 SELFBALANCE GT ADD 0x2D OR 0xAF 0xCF 0xA9 CODECOPY SWAP14 0x29 0xE MLOAD 0xC6 PUSH28 0xFD60C9CCC545F55EB4088FA07A4D3EF264736F6C6343000706003300 ","sha1":"61c9ea3036ba31aae0a2c2d3633cd7dff7eaee55","source":"// SPDX-License-Identifier: GPL-3.0-only\npragma solidity 0.7.6;\npragma abicoder v2;\n\nimport {UnderlyingHoldingsOracle} from \"./UnderlyingHoldingsOracle.sol\";\nimport {SafeUint256} from \"../../math/SafeUint256.sol\";\nimport {SafeInt256} from \"../../math/SafeInt256.sol\";\nimport {NotionalProxy} from \"../../../interfaces/notional/NotionalProxy.sol\";\nimport {AssetRateAdapter} from \"../../../interfaces/notional/AssetRateAdapter.sol\";\nimport {DepositData, RedeemData} from \"../../../interfaces/notional/IPrimeCashHoldingsOracle.sol\";\nimport {CErc20Interface} from \"../../../interfaces/compound/CErc20Interface.sol\";\n\nstruct CompoundV2DeploymentParams {\n    NotionalProxy notional;\n    address underlying;\n    address cToken;\n    address cTokenRateAdapter;\n}\n\ncontract CompoundV2HoldingsOracle is UnderlyingHoldingsOracle {\n    using SafeUint256 for uint256;\n    using SafeInt256 for int256;\n\n    uint8 private constant NUM_ASSET_TOKENS = 1;\n    address internal immutable COMPOUND_ASSET_TOKEN;\n    address internal immutable COMPOUND_RATE_ADAPTER;\n    uint256 private immutable RATE_ADAPTER_PRECISION;\n\n    constructor(CompoundV2DeploymentParams memory params) \n        UnderlyingHoldingsOracle(params.notional, params.underlying) {\n        COMPOUND_ASSET_TOKEN = params.cToken;\n        COMPOUND_RATE_ADAPTER = params.cTokenRateAdapter;\n        RATE_ADAPTER_PRECISION = 1e18;\n    }\n\n    /// @notice Returns a list of the various holdings for the prime cash\n    /// currency\n    function _holdings() internal view virtual override returns (address[] memory) {\n        address[] memory result = new address[](NUM_ASSET_TOKENS);\n        result[0] = COMPOUND_ASSET_TOKEN;\n        return result;\n    }\n\n    function _holdingValuesInUnderlying() internal view virtual override returns (uint256[] memory) {\n        uint256[] memory result = new uint256[](NUM_ASSET_TOKENS);\n        address[] memory tokens = new address[](NUM_ASSET_TOKENS);\n        tokens[0] = COMPOUND_ASSET_TOKEN;\n        result[0] = _compUnderlyingValue(NOTIONAL.getStoredTokenBalances(tokens)[0]);\n        return result;\n    }\n\n    function _getTotalUnderlyingValueView() internal view virtual override returns (uint256) {\n        // NUM_ASSET_TOKENS + underlying\n        address[] memory tokens = new address[](NUM_ASSET_TOKENS + 1);\n        tokens[0] = UNDERLYING_TOKEN;\n        tokens[1] = COMPOUND_ASSET_TOKEN;\n\n        uint256[] memory balances = NOTIONAL.getStoredTokenBalances(tokens);\n        return _compUnderlyingValue(balances[1]).add(balances[0]);\n    }\n\n    function _compUnderlyingValue(uint256 assetBalance) internal view returns (uint256) {\n        return assetBalance\n            .mul(AssetRateAdapter(COMPOUND_RATE_ADAPTER).getExchangeRateView().toUint())\n            .div(RATE_ADAPTER_PRECISION);\n    } \n\n    /// @notice Returns calldata for how to withdraw an amount\n    function _getRedemptionCalldata(uint256 withdrawAmount) internal view virtual override returns (\n        RedeemData[] memory redeemData\n    ) {\n        if (withdrawAmount == 0) return new RedeemData[](0);\n\n        address[] memory targets = new address[](1);\n        bytes[] memory callData = new bytes[](1);\n        targets[0] = COMPOUND_ASSET_TOKEN;\n        callData[0] = abi.encodeWithSelector(CErc20Interface.redeemUnderlying.selector, withdrawAmount);\n\n        redeemData = new RedeemData[](1);\n        redeemData[0] = RedeemData(targets, callData, withdrawAmount, COMPOUND_ASSET_TOKEN);\n    }\n\n    function _getRedemptionCalldataForRebalancing(\n        address[] calldata holdings,\n        uint256[] calldata withdrawAmounts\n    ) internal view virtual override returns (RedeemData[] memory redeemData) {\n        require(holdings.length == NUM_ASSET_TOKENS && holdings[0] == COMPOUND_ASSET_TOKEN);\n        return _getRedemptionCalldata(withdrawAmounts[0]);\n    }\n\n    function _getDepositCalldataForRebalancing(\n        address[] calldata holdings, \n        uint256[] calldata depositAmounts\n    ) internal view virtual override returns (DepositData[] memory depositData) {\n        // Compound V2 is deprecated, do not allow any deposits.\n        revert(\"Deprecated\");\n    }\n}\n","sourcePath":"contracts/external/pCash/CompoundV2HoldingsOracle.sol","type":"contract","deployment":{"address":"0x123fCA954EA894305b684F56A0d043169a5aA7E4","chainid":"5","blockHeight":10202791}}