{"abi":[{"inputs":[{"internalType":"contract Comptroller","name":"_comptroller","type":"address"}],"stateMutability":"nonpayable","type":"constructor","name":"constructor"},{"anonymous":false,"inputs":[{"indexed":false,"internalType":"uint16","name":"currencyId","type":"uint16"},{"indexed":false,"internalType":"uint256","name":"supplyFactor","type":"uint256"},{"indexed":false,"internalType":"uint256","name":"annualizedInterestRate","type":"uint256"}],"name":"CurrencyRebalanced","type":"event"},{"anonymous":false,"inputs":[{"indexed":true,"internalType":"uint16","name":"currencyId","type":"uint16"},{"indexed":false,"internalType":"int256","name":"harvestAmount","type":"int256"}],"name":"ExcessReserveBalanceHarvested","type":"event"},{"anonymous":false,"inputs":[{"indexed":false,"internalType":"uint16","name":"currencyId","type":"uint16"},{"indexed":false,"internalType":"uint40","name":"cooldownTimeInSeconds","type":"uint40"}],"name":"RebalancingCooldownUpdated","type":"event"},{"anonymous":false,"inputs":[{"indexed":false,"internalType":"uint16","name":"currencyId","type":"uint16"},{"components":[{"internalType":"address","name":"holding","type":"address"},{"internalType":"uint8","name":"target","type":"uint8"}],"indexed":false,"internalType":"struct NotionalTreasury.RebalancingTargetConfig[]","name":"targets","type":"tuple[]"}],"name":"RebalancingTargetsUpdated","type":"event"},{"anonymous":false,"inputs":[{"indexed":true,"internalType":"uint16","name":"currencyId","type":"uint16"},{"indexed":false,"internalType":"int256","name":"newBalance","type":"int256"}],"name":"ReserveBalanceUpdated","type":"event"},{"anonymous":false,"inputs":[{"indexed":false,"internalType":"uint16","name":"currencyId","type":"uint16"},{"indexed":false,"internalType":"uint256","name":"bufferAmount","type":"uint256"}],"name":"ReserveBufferUpdated","type":"event"},{"anonymous":false,"inputs":[{"indexed":true,"internalType":"address","name":"previousManager","type":"address"},{"indexed":true,"internalType":"address","name":"newManager","type":"address"}],"name":"TreasuryManagerChanged","type":"event"},{"anonymous":false,"inputs":[{"indexed":false,"internalType":"uint16","name":"currencyId","type":"uint16"},{"indexed":false,"internalType":"uint32","name":"newEmissionRate","type":"uint32"}],"name":"UpdateIncentiveEmissionRate","type":"event"},{"inputs":[],"name":"COMP","outputs":[{"internalType":"contract IERC20","name":"","type":"address"}],"stateMutability":"view","type":"function"},{"inputs":[],"name":"COMPTROLLER","outputs":[{"internalType":"contract Comptroller","name":"","type":"address"}],"stateMutability":"view","type":"function"},{"inputs":[{"internalType":"address[]","name":"cTokens","type":"address[]"}],"name":"claimCOMPAndTransfer","outputs":[{"internalType":"uint256","name":"","type":"uint256"}],"stateMutability":"nonpayable","type":"function"},{"inputs":[],"name":"owner","outputs":[{"internalType":"address","name":"","type":"address"}],"stateMutability":"view","type":"function"},{"inputs":[],"name":"pauseGuardian","outputs":[{"internalType":"address","name":"","type":"address"}],"stateMutability":"view","type":"function"},{"inputs":[],"name":"pauseRouter","outputs":[{"internalType":"address","name":"","type":"address"}],"stateMutability":"view","type":"function"},{"inputs":[{"internalType":"uint16[]","name":"currencyId","type":"uint16[]"}],"name":"rebalance","outputs":[],"stateMutability":"nonpayable","type":"function"},{"inputs":[{"internalType":"uint16","name":"currencyId","type":"uint16"},{"internalType":"uint40","name":"cooldownTimeInSeconds","type":"uint40"}],"name":"setRebalancingCooldown","outputs":[],"stateMutability":"nonpayable","type":"function"},{"inputs":[{"internalType":"uint16","name":"currencyId","type":"uint16"},{"components":[{"internalType":"address","name":"holding","type":"address"},{"internalType":"uint8","name":"target","type":"uint8"}],"internalType":"struct NotionalTreasury.RebalancingTargetConfig[]","name":"targets","type":"tuple[]"}],"name":"setRebalancingTargets","outputs":[],"stateMutability":"nonpayable","type":"function"},{"inputs":[{"internalType":"uint16","name":"currencyId","type":"uint16"},{"internalType":"uint256","name":"bufferAmount","type":"uint256"}],"name":"setReserveBuffer","outputs":[],"stateMutability":"nonpayable","type":"function"},{"inputs":[{"internalType":"uint16","name":"currencyId","type":"uint16"},{"internalType":"int256","name":"newBalance","type":"int256"}],"name":"setReserveCashBalance","outputs":[],"stateMutability":"nonpayable","type":"function"},{"inputs":[{"internalType":"address","name":"manager","type":"address"}],"name":"setTreasuryManager","outputs":[],"stateMutability":"nonpayable","type":"function"},{"inputs":[{"internalType":"uint16[]","name":"currencies","type":"uint16[]"}],"name":"transferReserveToTreasury","outputs":[{"internalType":"uint256[]","name":"","type":"uint256[]"}],"stateMutability":"nonpayable","type":"function"},{"inputs":[{"internalType":"uint16","name":"currencyId","type":"uint16"},{"internalType":"uint32","name":"newEmissionRate","type":"uint32"}],"name":"updateIncentiveEmissionRate","outputs":[],"stateMutability":"nonpayable","type":"function"}],"bytecode":"60c06040523480156200001157600080fd5b50604051620048ff380380620048ff8339810160408190526200003491620000eb565b6001600160601b0319606082901b1660a0526001600160a01b03811615620000d157806001600160a01b0316639d1b5a0a6040518163ffffffff1660e01b815260040160206040518083038186803b1580156200009057600080fd5b505afa158015620000a5573d6000803e3d6000fd5b505050506040513d601f19601f82011682018060405250810190620000cb9190620000eb565b620000d4565b60005b60601b6001600160601b031916608052506200012a565b600060208284031215620000fd578081fd5b81516200010a8162000111565b9392505050565b6001600160a01b03811681146200012757600080fd5b50565b60805160601c60a05160601c614797620001686000398061045952806109ec5250806108d0528061094e5280610a705280610b1952506147976000f3fe608060405234801561001057600080fd5b50600436106100ea5760003560e01c80638e73b23c1161008c578063a9efba3211610066578063a9efba32146101a6578063b71501bc146101b9578063fadb7fee146101c1578063fe47a9f2146101e1576100ea565b80638e73b23c1461016d578063a05e125514610180578063a9d7bc5214610193576100ea565b80635f82c67e116100c85780635f82c67e146101355780636d7a00eb1461013d578063824633671461015d5780638da5cb5b14610165576100ea565b80630655d8b8146100ef57806312adc47b1461010457806324a3d62214610117575b600080fd5b6101026100fd3660046141f2565b6101f4565b005b610102610112366004614272565b610400565b61011f610448565b60405161012c919061439c565b60405180910390f35b61011f610457565b61015061014b36600461417f565b61047b565b60405161012c91906144a9565b61011f61063f565b61011f61064e565b61010261017b366004614272565b610664565b61010261018e36600461417f565b6106f2565b6101026101a136600461429b565b61075d565b6101026101b43660046142d9565b61082d565b61011f6108ce565b6101d46101cf366004613eeb565b6108f2565b60405161012c91906144bc565b6101026101ef366004613ecf565b610b4e565b600054600160201b90046001600160a01b0316331461022e5760405162461bcd60e51b81526004016102259061452a565b60405180910390fd5b600061023984610bdb565b90506000816001600160a01b031663e79bf13b6040518163ffffffff1660e01b815260040160006040518083038186803b15801561027657600080fd5b505afa15801561028a573d6000803e3d6000fd5b505050506040513d6000823e601f3d908101601f191682016040526102b29190810190613f2a565b805190915083146102c257600080fd5b60006102cc610c0d565b61ffff87166000908152602091909152604081209150805b83518110156103ad57368787838181106102fa57fe5b9050604002019050600085838151811061031057fe5b60200260200101519050806001600160a01b03168260000160208101906103379190613ecf565b6001600160a01b03161461034a57600080fd5b61036761035d6040840160208501614348565b859060ff16610c20565b93506103796040830160208401614348565b6001600160a01b03919091166000908152602086905260409020805460ff191660ff909216919091179055506001016102e4565b5060648111156103bc57600080fd5b7f173893b333beacb26403450e70f577038a6531741aaff45c341bee3b8d4b42c48787876040516103ef939291906145de565b60405180910390a150505050505050565b600054600160201b90046001600160a01b031633146104315760405162461bcd60e51b81526004016102259061452a565b61043a82610c39565b6104448282610c76565b5050565b6002546001600160a01b031681565b7f000000000000000000000000000000000000000000000000000000000000000081565b600b546060906001600160a01b031633146104a85760405162461bcd60e51b8152600401610225906144c5565b6002600a5414156104b857600080fd5b6002600a556000826001600160401b03811180156104d557600080fd5b506040519080825280602002602001820160405280156104ff578160200160208202803683370190505b50905060005b8381101561063257801561057d5784846001830381811061052257fe5b905060200201602081019061053791906141d8565b61ffff1685858381811061054757fe5b905060200201602081019061055c91906141d8565b61ffff161161057d5760405162461bcd60e51b81526004016102259061455f565b600085858381811061058b57fe5b90506020020160208101906105a091906141d8565b90506105ab81610c39565b61ffff81166000908152600c60205260408120546105c890610cb7565b9050806105d657505061062a565b60006105e4610fee84610cd1565b90508181136105f55750505061062a565b8181036106028482610d2a565b86868151811061060e57fe5b602002602001018181525050610625848383610d99565b505050505b600101610505565b506001600a559392505050565b6001546001600160a01b031681565b600054600160201b90046001600160a01b031681565b600054600160201b90046001600160a01b031633146106955760405162461bcd60e51b81526004016102259061452a565b61069e82610c39565b61ffff82166000908152600c602052604090819020829055517ffd37f6bc518c96b848c133a7d44a5a9b5acea171be7dc45e363f153347ed7641906106e69084908490614641565b60405180910390a15050565b600b546001600160a01b0316331461071c5760405162461bcd60e51b8152600401610225906144c5565b60005b818110156107585761075083838381811061073657fe5b905060200201602081019061074b91906141d8565b610df3565b60010161071f565b505050565b600054600160201b90046001600160a01b0316331461078e5760405162461bcd60e51b81526004016102259061452a565b61079782610c39565b60006107a68361ffff16610f91565b90506001600160a01b0381166107bb57600080fd5b6305f5e1008263ffffffff16126107e45760405162461bcd60e51b81526004016102259061458b565b6107ef818342610fb7565b7f713f9554d16202d36a895476ec29ce9250f47d35422e2d9409e8f644d6aab6898383604051610820929190614671565b60405180910390a1505050565b600054600160201b90046001600160a01b0316331461085e5760405162461bcd60e51b81526004016102259061452a565b600061086861100d565b61ffff841660009081526020829052604090819020805464ffffffffff60801b1916600160801b64ffffffffff871602179055519091507f16b1cf4cbff8df027f5bec1791dc85fa6b5f625fba6bc942c10482ccfe6814b290610820908590859061468b565b7f000000000000000000000000000000000000000000000000000000000000000081565b600b546000906001600160a01b0316331461091f5760405162461bcd60e51b8152600401610225906144c5565b6002600a54141561092f57600080fd5b6002600a556040516370a0823160e01b81526000906001600160a01b037f000000000000000000000000000000000000000000000000000000000000000016906370a082319061098390309060040161439c565b60206040518083038186803b15801561099b57600080fd5b505afa1580156109af573d6000803e3d6000fd5b505050506040513d601f19601f820116820180604052508101906109d3919061430d565b60405162e1ed9760e51b81529091506001600160a01b037f00000000000000000000000000000000000000000000000000000000000000001690631c3db2e090610a25903090889088906004016143d4565b600060405180830381600087803b158015610a3f57600080fd5b505af1158015610a53573d6000803e3d6000fd5b50506040516370a0823160e01b8152600092506001600160a01b037f00000000000000000000000000000000000000000000000000000000000000001691506370a0823190610aa690309060040161439c565b60206040518083038186803b158015610abe57600080fd5b505afa158015610ad2573d6000803e3d6000fd5b505050506040513d601f19601f82011682018060405250810190610af6919061430d565b90506000610b04828461101a565b90508015610b4057610b406001600160a01b037f000000000000000000000000000000000000000000000000000000000000000016338361102f565b6001600a5595945050505050565b600054600160201b90046001600160a01b03163314610b7f5760405162461bcd60e51b81526004016102259061452a565b600b546040516001600160a01b038084169216907ff92cfddd8d7ab2f6e4fd488959c76c8033aaaa6dad691a0cbd1fc68f194b3d0c90600090a3600b80546001600160a01b0319166001600160a01b0392909216919091179055565b600080610be6611081565b61ffff8416600090815260209190915260409020546001600160a01b03169150505b919050565b600080610c1a602461108a565b92915050565b600082820183811015610c3257600080fd5b9392505050565b8061ffff166000108015610c57575060005461ffff90811690821611155b610c735760405162461bcd60e51b8152600401610225906145b1565b50565b6000811215610c8457600080fd5b6000610c92610fee84610cd1565b9050610ca1610fee84846110a3565b610758610fee84610cb28585611117565b61112d565b60006001600160ff1b03821115610ccd57600080fd5b5090565b600080610cdc6111b7565b6001600160a01b03851660009081526020828152604080832061ffff8816845290915281208054600160a81b9004600a90810b900b9450919250831215610d2257600080fd5b505092915050565b600080610d36846111c4565b600b54909150610d5490610fee906001600160a01b031686866111d6565b600b54600090610d8290610d7d906001600160a01b031687610d758861127c565b86600161128a565b61127c565b905060008113610d9157600080fd5b949350505050565b610da38282611333565b9150610db2610fee84846110a3565b8261ffff167f7c5e8932dd97cea84f9ab339dad12a29a4cd81e67e7d892663aa03a3f0832b7382604051610de691906144bc565b60405180910390a2505050565b6000610dfd61100d565b61ffff831660009081526020918252604090819020815160608101835290546001600160801b038116825264ffffffffff600160801b82048116948301859052600160a81b9091041691810182905292504291610e5a9190610c20565b10610e775760405162461bcd60e51b8152600401610225906144fc565b6000610e82836111c4565b9050610e8d8361134f565b600080610e9d836000015161157f565b84519091506001600160801b031615610f33576000610efe633b9aca00610ef2670de0b6b3a7640000610ef889600001516001600160801b0316610ef2670de0b6b3a76400008961158e90919063ffffffff16565b906115b5565b9061101a565b9050610f2f610f21866040015164ffffffffff164261101a90919063ffffffff16565b610ef2836301da9c0061158e565b9250505b610f4585610f40836115d4565b6115ea565b610f4f858361165c565b7feddea56dfbd588f030ed3fcbde65761f19492023ce381012239e7f7cc8d35a7c858284604051610f8293929190614655565b60405180910390a15050505050565b600080610f9c6116ad565b6000938452602052505060409020546001600160a01b031690565b610fc3836000836116ba565b506000610fce61179b565b6001600160a01b03909416600090815260209490945250506040909120805463ffffffff909216620100000265ffffffff000019909216919091179055565b600080610c1a602561108a565b60008282111561102957600080fd5b50900390565b604080516001600160a01b038416602482015260448082018490528251808303909101815260649091019091526020810180516001600160e01b031663a9059cbb60e01b1790526107589084906117a8565b600080610c1a601f5b6000620f424082602681111561109c57fe5b0192915050565b60008112156110b157600080fd5b60006110bb6111b7565b6001600160a01b03851660009081526020828152604080832061ffff8816845290915290209091506110ec83611859565b8154600a9190910b6001600160581b0316600160a81b026001600160a81b0390911617905550505050565b80820382811315600083121514610c1a57600080fd5b600061113761188b565b61ffff8416600090815260209190915260409081902054905163ad1c095d60e01b81526001600160a01b039091169150819063ad1c095d9061117f9087908690600401614430565b600060405180830381600087803b15801561119957600080fd5b505af11580156111ad573d6000803e3d6000fd5b5050505050505050565b600080610c1a600661108a565b6111cc613b9e565b610c1a8242611898565b60006111e061188b565b61ffff8416600090815260209190915260408120546001600160a01b0316915082121561120b579293925b806001600160a01b03166323de665186866112258661195e565b6040518463ffffffff1660e01b8152600401611243939291906143b0565b600060405180830381600087803b15801561125d57600080fd5b505af1158015611271573d6000803e3d6000fd5b505050505050505050565b6000610c1a6000198361197f565b6000836112995750600061132a565b600084126112a657600080fd5b60006112b58661ffff166119cd565b90506112ca816112c586886119e0565b611a0c565b915060006112d78361127c565b90506112e4878383611a44565b6003826060015160058111156112f657fe5b141561130c57611307888286611b32565b611319565b8151611319908983611c00565b6113268888858589611c77565b5050505b95945050505050565b600061133f8383611117565b90506000811215610c1a57600080fd5b600061135a82610bdb565b90506000816001600160a01b031663e79bf13b6040518163ffffffff1660e01b815260040160006040518083038186803b15801561139757600080fd5b505afa1580156113ab573d6000803e3d6000fd5b505050506040513d6000823e601f3d908101601f191682016040526113d39190810190613f2a565b905060006113e18483611cbe565b905060006113f0848484611dbf565b90506000846001600160a01b031663ef81f2166040518163ffffffff1660e01b81526004016040805180830381600087803b15801561142e57600080fd5b505af1158015611442573d6000803e3d6000fd5b505050506040513d601f19601f820116820180604052508101906114669190614325565b50905060006114788761ffff166119cd565b9050600061148a828560000151612206565b509050806114a0576114a082856020015161241d565b6000876001600160a01b031663ef81f2166040518163ffffffff1660e01b81526004016040805180830381600087803b1580156114dc57600080fd5b505af11580156114f0573d6000803e3d6000fd5b505050506040513d601f19601f820116820180604052508101906115149190614325565b509050600061153461152583610cb7565b61152e87610cb7565b90611117565b9050600061156161154487610cb7565b61155b633b9aca006115558661195e565b9061197f565b90612629565b9050620186a0811261157257600080fd5b5050505050505050505050565b600080821215610ccd57600080fd5b60008261159d57506000610c1a565b828202828482816115aa57fe5b0414610c3257600080fd5b60008082116115c357600080fd5b8183816115cc57fe5b049392505050565b60006001600160801b03821115610ccd57600080fd5b60006115f461100d565b90506115ff4261265a565b61ffff93909316600090815260209190915260409020805464ffffffffff60a81b1916600160a81b64ffffffffff90941693909302929092176fffffffffffffffffffffffffffffffff19166001600160801b0391909116179055565b600061166661266e565b90506116718261267b565b61ffff909316600090815260209190915260409020805463ffffffff93909316600160d81b0263ffffffff60d81b199093169290921790915550565b600080610c1a600361108a565b60008060006116c9868561268e565b509150915060006116d8612724565b6001600160a01b03881660009081526020829052604081209192506116fd8589612731565b90508060001315801561171657506001600160601b0381105b61171f57600080fd5b81546bffffffffffffffffffffffff19166001600160601b038216176fffffffffffffffffffffffffffffffff60601b1916600160601b6001600160801b0386160217825563ffffffff871061177457600080fd5b5080546001600160e01b0316600160e01b63ffffffff881602179055509150509392505050565b600080610c1a600261108a565b60006117fd826040518060400160405280602081526020017f5361666545524332303a206c6f772d6c6576656c2063616c6c206661696c6564815250856001600160a01b03166127479092919063ffffffff16565b8051909150156107585780806020019051602081101561181c57600080fd5b50516107585760405162461bcd60e51b815260040180806020018281038252602a815260200180614738602a913960400191505060405180910390fd5b60006a7fffffffffffffffffffff19821280159061188257506a7fffffffffffffffffffff8213155b610ccd57600080fd5b600080610c1a602161108a565b6118a0613b9e565b60006118ab84612756565b905082816000015110156118ea576000806118c58661281e565b90506118d38684838861289b565b90935091506118e386838561293f565b50506118f7565b805183146118f757600080fd5b60405180606001604052806119256119208460a001518560c0015161158e90919063ffffffff16565b610cb7565b81526020016119486119208460a001518560e0015161158e90919063ffffffff16565b8152602001826060015181525091505092915050565b600080821215611978576119718261127c565b9050610c08565b5080610c08565b8181026000198314156119af578115806119a157508282828161199e57fe5b05145b6119aa57600080fd5b610c1a565b8215806119c45750818382816119c157fe5b05145b610c1a57600080fd5b6119d5613bbf565b610c1a826001612b73565b6000610c326ec097ce7bc90715b34b9f100000000061155b85600001518561197f90919063ffffffff16565b60006305f5e10083604001511415611a25575080610c1a565b610c326305f5e10061155b85604001518561197f90919063ffffffff16565b6000611a4e612c0d565b83516001600160a01b0316600090815260208290526040902054909150808311611a79575050610758565b6000611a8486610bdb565b90506000816001600160a01b031663b5e4da238487036040518263ffffffff1660e01b8152600401611ab691906144bc565b60006040518083038186803b158015611ace57600080fd5b505afa158015611ae2573d6000803e3d6000fd5b505050506040513d6000823e601f3d908101601f19168201604052611b0a9190810190614081565b90506000611b188783612206565b9150611b2690508482610c20565b8611156111ad57600080fd5b8015611bc4577304b9c40df01bdc99dd2c31ae4b232f20f4bbac5b6001600160a01b031663d0e30db0836040518263ffffffff1660e01b81526004016000604051808303818588803b158015611b8757600080fd5b505af1158015611b9b573d6000803e3d6000fd5b5050505050611bbf7304b9c40df01bdc99dd2c31ae4b232f20f4bbac5b8484611c00565b610758565b6040516001600160a01b0384169083156108fc029084906000818181858888f19350505050158015611bfa573d6000803e3d6000fd5b50505050565b826001600160a01b031663a9059cbb83836040518363ffffffff1660e01b815260040180836001600160a01b0316815260200182815260200192505050600060405180830381600087803b158015611c5757600080fd5b505af1158015611c6b573d6000803e3d6000fd5b50505050610758612c1a565b600080611c848486612c87565b9050611c908382612cb7565b9150611c9d87878461112d565b611ca8868383612cd9565b8351611cb49086612de5565b5095945050505050565b60606000611cca610c0d565b61ffff851660009081526020919091526040902083519091506001600160401b0381118015611cf857600080fd5b50604051908082528060200260200182016040528015611d22578160200160208202803683370190505b5091506000805b8451811015611db0576000836000878481518110611d4357fe5b60200260200101516001600160a01b03166001600160a01b0316815260200190815260200160002060009054906101000a900460ff16905080858381518110611d8857fe5b60ff9283166020918202929092010152611da59084908316610c20565b925050600101611d29565b506064811115610d2257600080fd5b611dc7613bee565b6000846001600160a01b031663395c46ba6040518163ffffffff1660e01b815260040160006040518083038186803b158015611e0257600080fd5b505afa158015611e16573d6000803e3d6000fd5b505050506040513d6000823e601f3d908101601f19168201604052611e3e91908101906141a6565b90506000856001600160a01b031663a77c05b86040518163ffffffff1660e01b8152600401604080518083038186803b158015611e7a57600080fd5b505afa158015611e8e573d6000803e3d6000fd5b505050506040513d601f19601f82011682018060405250810190611eb29190614325565b509050600085516001600160401b0381118015611ece57600080fd5b50604051908082528060200260200182016040528015611ef8578160200160208202803683370190505b509050600086516001600160401b0381118015611f1457600080fd5b50604051908082528060200260200182016040528015611f3e578160200160208202803683370190505b509050600087516001600160401b0381118015611f5a57600080fd5b50604051908082528060200260200182016040528015611f84578160200160208202803683370190505b509050600088516001600160401b0381118015611fa057600080fd5b50604051908082528060200260200182016040528015611fca578160200160208202803683370190505b50905060005b89518110156120ec5760008a8281518110611fe757fe5b6020026020010151905060006120216064610ef28d868151811061200757fe5b602002602001015160ff168b61158e90919063ffffffff16565b9050600089848151811061203157fe5b602002602001015190508288858151811061204857fe5b60200260200101906001600160a01b031690816001600160a01b0316815250508286858151811061207557fe5b60200260200101906001600160a01b031690816001600160a01b031681525050808210156120bd578181038785815181106120ac57fe5b6020026020010181815250506120e1565b818110156120e1578082038585815181106120d457fe5b6020026020010181815250505b505050600101611fd0565b5060405163871ade4360e01b81526001600160a01b038b169063871ade439061211b9087908790600401614449565b60006040518083038186803b15801561213357600080fd5b505afa158015612147573d6000803e3d6000fd5b505050506040513d6000823e601f3d908101601f1916820160405261216f9190810190614081565b87526040516376cf13af60e01b81526001600160a01b038b16906376cf13af9061219f9085908590600401614449565b60006040518083038186803b1580156121b757600080fd5b505afa1580156121cb573d6000803e3d6000fd5b505050506040513d6000823e601f3d908101601f191682016040526121f39190810190613f5c565b6020880152509498975050505050505050565b60008060005b835181101561241557600084828151811061222357fe5b60200260200101519050600081606001516001600160a01b03166370a08231306040518263ffffffff1660e01b815260040161225f919061439c565b60206040518083038186803b15801561227757600080fd5b505afa15801561228b573d6000803e3d6000fd5b505050506040513d601f19601f820116820180604052508101906122af919061430d565b905060006122bd8830612e3f565b905060005b83515181101561231957612308846000015182815181106122df57fe5b60200260200101516000866020015184815181106122f957fe5b60200260200101516001612ef0565b61231157600196505b6001016122c2565b5060006123268930612e3f565b90506000612334828461101a565b9050808560400151111561234757600080fd5b60608501516040516370a0823160e01b81526000916001600160a01b0316906370a082319061237a90309060040161439c565b60206040518083038186803b15801561239257600080fd5b505afa1580156123a6573d6000803e3d6000fd5b505050506040513d601f19601f820116820180604052508101906123ca919061430d565b9050848111156123d957600080fd5b6123e88660600151868361315e565b6123f28883610c20565b97506124038b60000151858561315e565b50506001909401935061220c92505050565b509250929050565b6000805b8251811015611bfa57600083828151811061243857fe5b60200260200101519050600081608001516001600160a01b03166370a08231306040518263ffffffff1660e01b8152600401612474919061439c565b60206040518083038186803b15801561248c57600080fd5b505afa1580156124a0573d6000803e3d6000fd5b505050506040513d601f19601f820116820180604052508101906124c4919061430d565b905060006124d28730612e3f565b905060005b83515181101561252d57612524846000015182815181106124f457fe5b60200260200101518560400151838151811061250c57fe5b6020026020010151866020015184815181106122f957fe5b506001016124d7565b50600061253a8830612e3f565b90506000612548838361101a565b9050846060015181111561255b57600080fd5b60808501516040516370a0823160e01b81526000916001600160a01b0316906370a082319061258e90309060040161439c565b60206040518083038186803b1580156125a657600080fd5b505afa1580156125ba573d6000803e3d6000fd5b505050506040513d601f19601f820116820180604052508101906125de919061430d565b9050808511156125ed57600080fd5b6125fc8660800151868361315e565b6126068883610c20565b97506126178a60000151858561315e565b50506001909401935061242192505050565b60008160001914801561263f5750600160ff1b83145b1561264957600080fd5b81838161265257fe5b059392505050565b600064ffffffffff821115610ccd57600080fd5b600080610c1a601d61108a565b600063ffffffff821115610ccd57600080fd5b600080600061269c856131db565b9194509250905080841180156126b25750600081115b80156126be5750600083115b1561271d5760006126ce86613237565b50505091505060006126f96126f06305f5e1008461158e90919063ffffffff16565b848803876132a3565b90506127058482610c20565b93506001600160801b03841061271a57600080fd5b50505b9250925092565b600080610c1a601161108a565b81810182811215600083121514610c1a57600080fd5b6060610d9184846000856132cb565b61275e613c08565b600061276861266e565b61ffff93841660009081526020918252604090819020805464ffffffffff81168652600160281b81046001600160581b03908116948701949094526001820154841692860192909252600160d81b820463ffffffff166060860152600160801b9091049091166080840152600201546001600160501b0380821660a0850152600160501b8204811660c0850152600160a01b82041660e0840152600160f01b900460ff1661012c02909216610100820152919050565b60008061282a83610bdb565b6001600160a01b031663ef81f2166040518163ffffffff1660e01b81526004016040805180830381600087803b15801561286357600080fd5b505af1158015612877573d6000803e3d6000fd5b505050506040513d601f19601f82011682018060405250810190610d919190614325565b6128a3613c08565b60008060006128b3888689613426565b60c08b019290925260e08a0192909252602089015191935091506128d79083610c20565b6020880152608087015160009015612905576080880151612902906128fc898261101a565b90613531565b90505b61292561291a670de0b6b3a764000083610c20565b60a08a01519061354e565b60a089015250506080860194909452505082529092909150565b600061294961266e565b60008561ffff168152602001908152602001600020905061296d826000015161265a565b815464ffffffffff191664ffffffffff9190911617815560a08201516129929061356b565b60028201805469ffffffffffffffffffff19166001600160501b039290921691909117905560c08201516129c59061356b565b81600201600a6101000a8154816001600160501b0302191690836001600160501b031602179055506129fa8260e0015161356b565b8160020160146101000a8154816001600160501b0302191690836001600160501b03160217905550612a2f8260200151613581565b81546001600160581b0391909116600160281b026fffffffffffffffffffffff0000000000199091161781556040820151612a6990613581565b6001820180546affffffffffffffffffffff19166001600160581b03929092169190911790556080820151612a9d90613581565b81546001600160581b0391909116600160801b026affffffffffffffffffffff60801b199091161781556060820151612ad59061267b565b815463ffffffff91909116600160d81b0263ffffffff60d81b199091161781558215612b21576000612b0684610cb7565b9050612b128582613597565b612b1f610fee868361112d565b505b8361ffff167fef25641e225e493886510ca1ad6584fa7b442b9fea820a29d1de3ce27d270fd28360a001518460c001518560e00151604051612b65939291906146a6565b60405180910390a250505050565b612b7b613bbf565b6000612b856135ce565b6000858152602082815260408083208715158452825291829020825160a08101845281546001600160a01b038116825260ff600160a01b82048116151594830194909452600160b01b81048416600a0a9482019490945293945092916060830191600160a81b909104166005811115612bfa57fe5b8152600060209091015295945050505050565b600080610c1a602661108a565b6000612c24613c54565b3d8015612c385760208114612c4157600080fd5b60019250612c4c565b60206000833e815192505b5081610444576040805162461bcd60e51b8152602060048201526005602482015264045524332360dc1b604482015290519081900360640190fd5b60006305f5e10083604001511415612ca0575080610c1a565b6040830151610c329061155b846305f5e10061197f565b8151600090610c329061155b846ec097ce7bc90715b34b9f100000000061197f565b6000612ce361266e565b61ffff8516600090815260209190915260409020805490915064ffffffffff164214612d0e57600080fd5b8054600090612d2d90600160281b90046001600160581b031685612731565b8254909150600090612d4f90600160801b90046001600160581b031685612731565b905080624c4b401315612d6157600080fd5b612d72612d6d8261157f565b613581565b83546001600160581b0391909116600160801b026affffffffffffffffffffff60801b19909116178355612da8612d6d8361157f565b83546001600160581b0391909116600160281b026fffffffffffffffffffffff000000000019909116178355612ddd836135db565b505050505050565b6000612def612c0d565b6001600160a01b038416600090815260208290526040902054909150612e1d612e188285612731565b61157f565b6001600160a01b03909416600090815260209290925250604090209190915550565b6000600383606001516005811115612e5357fe5b1415612e6a57506001600160a01b03811631610c1a565b82516040516370a0823160e01b81526001600160a01b03909116906370a0823190612e9990859060040161439c565b60206040518083038186803b158015612eb157600080fd5b505afa158015612ec5573d6000803e3d6000fd5b505050506040513d601f19601f82011682018060405250810190612ee9919061430d565b9050610c1a565b6000806000866001600160a01b031686866040518082805190602001908083835b60208310612f305780518252601f199092019160209182019101612f11565b6001836020036101000a03801982511681845116808217855250505050505090500191505060006040518083038185875af1925050503d8060008114612f92576040519150601f19603f3d011682016040523d82523d6000602084013e612f97565b606091505b50915091508361303a5781612fab826136a0565b906130345760405162461bcd60e51b81526004018080602001828103825283818151815260200191508051906020019080838360005b83811015612ff9578181015183820152602001612fe1565b50505050905090810190601f1680156130265780820380516001836020036101000a031916815260200191505b509250505060405180910390fd5b50611cb4565b866001600160a01b03167f3c7e398c5e91088cae639370e35b25ea669d81fbdf0def5388e73661bc34e08e8787613070856136a0565b604051808481526020018060200180602001838103835285818151815260200191508051906020019080838360005b838110156130b757818101518382015260200161309f565b50505050905090810190601f1680156130e45780820380516001836020036101000a031916815260200191505b50838103825284518152845160209182019186019080838360005b838110156131175781810151838201526020016130ff565b50505050905090810190601f1680156131445780820380516001836020036101000a031916815260200191505b509550505050505060405180910390a25095945050505050565b6000613168612c0d565b6001600160a01b0385166000908152602082905260409020549091508381111561319157600080fd5b60006131a861319f86610cb7565b61152e86610cb7565b90506131b7612e188383612731565b6001600160a01b039096166000908152602093909352505060409020929092555050565b6000806000806131e9612724565b6001600160a01b0395909516600090815260209590955250506040909220546001600160601b03811693600160601b82046001600160801b03169350600160e01b90910463ffffffff169150565b60008060008060008061324861179b565b6001600160a01b039097166000908152602097909752505060409094205461ffff81169563ffffffff620100008304811696506601000000000000830416945060ff600160501b8304169350600160581b90910460d81b9150565b6000610d9182610ef26301da9c0081886132c589670de0b6b3a764000061158e565b9061158e565b60608247101561330c5760405162461bcd60e51b81526004018080602001828103825260268152602001806147126026913960400191505060405180910390fd5b613315856137a5565b613366576040805162461bcd60e51b815260206004820152601d60248201527f416464726573733a2063616c6c20746f206e6f6e2d636f6e7472616374000000604482015290519081900360640190fd5b600080866001600160a01b031685876040518082805190602001908083835b602083106133a45780518252601f199092019160209182019101613385565b6001836020036101000a03801982511681845116808217855250505050505090500191505060006040518083038185875af1925050503d8060008114613406576040519150601f19603f3d011682016040523d82523d6000602084013e61340b565b606091505b509150915061341b8282866137ab565b979650505050505050565b6000806000806000806134398988613811565b8951909550919350915060009061346090613455908b9061101a565b633b9aca009061158e565b905061349a61348f6301da9c00613477858561158e565b8161347e57fe5b670de0b6b3a7640000919004610c20565b60e08a01519061354e565b96506134bc6134b16301da9c00613477878561158e565b60c08a01519061354e565b9550818314156134d3575060009350613528915050565b60006134f56134ea6301da9c00613477878661158e565b60e08b01519061354e565b90506000613503898361101a565b905061352088610ef2838d6040015161158e90919063ffffffff16565b965050505050505b93509350935093565b6000610c3261354884670de0b6b3a764000061158e565b836115b5565b6000610c3261355d848461158e565b670de0b6b3a76400006115b5565b60006001600160501b03821115610ccd57600080fd5b60006001600160581b03821115610ccd57600080fd5b60008112156135a557600080fd5b60006135b3610fee84610cd1565b90506135bf8183612731565b9050610758610fee84836110a3565b600080610c1a600761108a565b8054600282015460009161361791600160281b9091046001600160581b031690611555906001600160501b03600160501b82048116911661197f565b60018301546002840154919250600091613651916001600160581b031690611555906001600160501b03600160a01b82048116911661197f565b83549091506000906136889060016001600160581b03600160801b909204821601166ec097ce7bc90715b34b9f100000000061197f565b9050806136958484611117565b1315611bfa57600080fd5b60606044825110156136d6575060408051808201909152600d81526c14da5b195b9d0814995d995c9d609a1b6020820152610c08565b60048201805190926024019060208110156136f057600080fd5b8101908080516040519392919084600160201b82111561370f57600080fd5b90830190602082018581111561372457600080fd5b8251600160201b81118282018810171561373d57600080fd5b82525081516020918201929091019080838360005b8381101561376a578181015183820152602001613752565b50505050905090810190601f1680156137975780820380516001836020036101000a031916815260200191505b506040525050509050919050565b3b151590565b606083156137ba575081610c32565b8251156137ca5782518084602001fd5b60405162461bcd60e51b8152602060048201818152845160248401528451859391928392604401919085019080838360008315612ff9578181015183820152602001612fe1565b60008060008060008560200151111561385e5761385b6138428660c00151876020015161158e90919063ffffffff16565b60e087015160408801516138559161158e565b906138ab565b90505b6000613869876138be565b905061387581836138f1565b9450811561388c57613889818660016139aa565b93505b60208601511561271a576138a08583613a25565b925050509250925092565b6000610c3261354884633b9aca0061158e565b6138c6613c72565b60006138d0613a3e565b61ffff8416600090815260209190915260408120549150610c329082613a4b565b60008083608001511161390357600080fd5b633b9aca0082111561391457600080fd5b825182116139335782516040840151612ee99190610ef290859061158e565b82602001518211613971576040830151835160208501516060860151612ee9939261396b9281900391610ef29188039085900361158e565b90610c20565b610c32836060015161396b8560200151633b9aca0003610ef287606001518860800151038860200151880361158e90919063ffffffff16565b6000806139c96064610ef28760e001518761158e90919063ffffffff16565b90508460a001518110156139de575060a08401515b8460c001518111156139f1575060c08401515b8215613a0857613a018482610c20565b9150613a1d565b838111613a1757808403613a1a565b60005b91505b509392505050565b6000610c32613a34848461158e565b633b9aca006115b5565b600080610c1a601b61108a565b613a53613c72565b6064633b9aca008360ff861660208110613a6957fe5b1a0281613a7257fe5b0481526064633b9aca008360ff861660010160208110613a8e57fe5b1a0281613a9757fe5b04816020018181525050613abc8260028560ff160160208110613ab657fe5b1a613b6a565b60808201819052610100908360ff861660030160208110613ad957fe5b1a0281613ae257fe5b0460408201526080810151610100908360ff861660040160208110613b0357fe5b1a0281613b0c57fe5b0460608201526207a1208260ff851660050160208110613b2857fe5b1a0260a0820152622625a08260ff851660060160208110613b4557fe5b1a0260c08201528160ff841660070160208110613b5e57fe5b1a60e082015292915050565b60008160ff16609610613b855760ff8216622625a002610c1a565b5060951960ff919091160162e4e1c00263165a0bc00190565b60405180606001604052806000815260200160008152602001600081525090565b6040805160a0810182526000808252602082018190529181018290529060608201908152602001600081525090565b604051806040016040528060608152602001606081525090565b6040518061012001604052806000815260200160008152602001600081526020016000815260200160008152602001600081526020016000815260200160008152602001600081525090565b60405180602001604052806001906020820280368337509192915050565b60405180610100016040528060008152602001600081526020016000815260200160008152602001600081526020016000815260200160008152602001600081525090565b8051610c08816146fc565b60008083601f840112613cd3578182fd5b5081356001600160401b03811115613ce9578182fd5b6020830191508360208083028501011115613d0357600080fd5b9250929050565b600082601f830112613d1a578081fd5b81516020613d2f613d2a836146df565b6146bc565b8281528181019085830183850287018401881015613d4b578586fd5b855b85811015613d72578151613d60816146fc565b84529284019290840190600101613d4d565b5090979650505050505050565b6000601f8381840112613d90578182fd5b82516020613da0613d2a836146df565b82815281810190868301865b85811015613e4457815189018a603f820112613dc6578889fd5b858101516001600160401b03811115613ddb57fe5b613dec818a01601f191688016146bc565b81815260408d81848601011115613e01578b8cfd5b8b5b83811015613e1e578481018201518382018b01528901613e03565b83811115613e2e578c8a85850101525b5050865250509284019290840190600101613dac565b509098975050505050505050565b600082601f830112613e62578081fd5b81516020613e72613d2a836146df565b8281528181019085830183850287018401881015613e8e578586fd5b855b85811015613d7257815184529284019290840190600101613e90565b803561ffff81168114610c0857600080fd5b803560ff81168114610c0857600080fd5b600060208284031215613ee0578081fd5b8135610c32816146fc565b60008060208385031215613efd578081fd5b82356001600160401b03811115613f12578182fd5b613f1e85828601613cc2565b90969095509350505050565b600060208284031215613f3b578081fd5b81516001600160401b03811115613f50578182fd5b610d9184828501613d0a565b60006020808385031215613f6e578182fd5b82516001600160401b0380821115613f84578384fd5b818501915085601f830112613f97578384fd5b8151613fa5613d2a826146df565b81815284810190848601875b84811015614072578151870160a080601f19838f03011215613fd1578a8bfd5b613fda816146bc565b8a83015189811115613fea578c8dfd5b613ff88f8d83870101613d0a565b82525060408301518981111561400c578c8dfd5b61401a8f8d83870101613d7f565b8c83015250606083015189811115614030578c8dfd5b61403e8f8d83870101613e52565b60408301525060808301516060820152614059828401613cb7565b6080820152865250509287019290870190600101613fb1565b50909998505050505050505050565b60006020808385031215614093578182fd5b82516001600160401b03808211156140a9578384fd5b818501915085601f8301126140bc578384fd5b81516140ca613d2a826146df565b81815284810190848601875b8481101561407257815187016080818d03601f190112156140f557898afd5b60408051608081018181108a8211171561410b57fe5b8252828b01518981111561411d578c8dfd5b61412b8f8d83870101613d0a565b825250818301518981111561413e578c8dfd5b61414c8f8d83870101613d7f565b8c8301525060608301518282015261416660808401613cb7565b60608201528652505092870192908701906001016140d6565b60008060208385031215614191578182fd5b82356001600160401b03811115613f12578283fd5b6000602082840312156141b7578081fd5b81516001600160401b038111156141cc578182fd5b610d9184828501613e52565b6000602082840312156141e9578081fd5b610c3282613eac565b600080600060408486031215614206578081fd5b61420f84613eac565b925060208401356001600160401b038082111561422a578283fd5b818601915086601f83011261423d578283fd5b81358181111561424b578384fd5b87602060408302850101111561425f578384fd5b6020830194508093505050509250925092565b60008060408385031215614284578182fd5b61428d83613eac565b946020939093013593505050565b600080604083850312156142ad578182fd5b6142b683613eac565b9150602083013563ffffffff811681146142ce578182fd5b809150509250929050565b600080604083850312156142eb578182fd5b6142f483613eac565b9150602083013564ffffffffff811681146142ce578182fd5b60006020828403121561431e578081fd5b5051919050565b60008060408385031215614337578182fd5b505080516020909101519092909150565b600060208284031215614359578081fd5b610c3282613ebe565b6000815180845260208085019450808401835b8381101561439157815187529582019590820190600101614375565b509495945050505050565b6001600160a01b0391909116815260200190565b6001600160a01b039384168152919092166020820152604081019190915260600190565b6001600160a01b03848116825260406020808401829052908301849052600091859160608501845b8781101561442357843561440f816146fc565b8416825293820193908201906001016143fc565b5098975050505050505050565b6001600160a01b03929092168252602082015260400190565b604080825283519082018190526000906020906060840190828701845b8281101561448b5781516001600160a01b031684529284019290840190600101614466565b5050508381038285015261449f8186614362565b9695505050505050565b600060208252610c326020830184614362565b90815260200190565b60208082526019908201527f5472656173757279206d616e6167657220726571756972656400000000000000604082015260600190565b6020808252601490820152732932b130b630b731b4b7339031b7b7b63237bbb760611b604082015260600190565b6020808252818101527f4f776e61626c653a2063616c6c6572206973206e6f7420746865206f776e6572604082015260600190565b60208082526012908201527112511cc81b5d5cdd081899481cdbdc9d195960721b604082015260600190565b6020808252600c908201526b496e76616c6964207261746560a01b604082015260600190565b602080825260139082015272125b9d985b1a590818dd5c9c995b98de481a59606a1b604082015260600190565b61ffff841681526040602080830182905282820184905260009190859060608501845b87811015614423578335614614816146fc565b6001600160a01b0316825260ff61462c858501613ebe565b16828401529284019290840190600101614601565b61ffff929092168252602082015260400190565b61ffff9390931683526020830191909152604082015260600190565b61ffff92909216825263ffffffff16602082015260400190565b61ffff92909216825264ffffffffff16602082015260400190565b9283526020830191909152604082015260600190565b6040518181016001600160401b03811182821017156146d757fe5b604052919050565b60006001600160401b038211156146f257fe5b5060209081020190565b6001600160a01b0381168114610c7357600080fdfe416464726573733a20696e73756666696369656e742062616c616e636520666f722063616c6c5361666545524332303a204552433230206f7065726174696f6e20646964206e6f742073756363656564a26469706673582212200ece98161d136d51c75ceb67a76f6a1d72e2f3e5c4a8d3a53644c629e677664a64736f6c63430007060033","bytecodeSha1":"de33d01ed24e53504f430a4ad16ea86f1b3ff1ac","compiler":{"evm_version":"istanbul","optimizer":{"enabled":true,"runs":200},"version":"0.7.6+commit.7338295f"},"contractName":"TreasuryAction","language":"Solidity","natspec":{"kind":"dev","methods":{"claimCOMPAndTransfer(address[])":{"notice":"Claims COMP incentives earned and transfers to the treasury manager contract.","params":{"cTokens":"a list of cTokens to claim incentives for"},"returns":{"_0":"the balance of COMP claimed"}},"setReserveBuffer(uint16,uint256)":{"notice":"Sets the reserve buffer. This is the amount of reserve balance to keep denominated in 1e8 The reserve cannot be harvested if it's below this amount. This portion of the reserve will remain on the contract to act as a buffer against potential insolvency.","params":{"bufferAmount":"reserve buffer amount to keep in internal token precision (1e8)","currencyId":"refers to the currency of the reserve"}},"setReserveCashBalance(uint16,int256)":{"notice":"This is used in the case of insolvency. It allows the owner to re-align the reserve with its correct balance.","params":{"currencyId":"refers to the currency of the reserve","newBalance":"new reserve balance to set, must be less than the current balance"}},"setTreasuryManager(address)":{"notice":"Sets the new treasury manager contract"},"transferReserveToTreasury(uint16[])":{"notice":"Transfers some amount of reserve assets to the treasury manager contract to be invested into the sNOTE pool.","params":{"currencies":"an array of currencies to transfer from Notional"}},"updateIncentiveEmissionRate(uint16,uint32)":{"details":"emit:UpdateIncentiveEmissionRate","notice":"Updates the emission rate of incentives for a given currency","params":{"currencyId":"the currency id that the nToken references","newEmissionRate":"Target total incentives to emit for an nToken over an entire year denominated in WHOLE TOKENS (i.e. setting this to 1 means 1e8 tokens). The rate will not be exact due to multiplier effects and fluctuating token supply."}}},"version":1},"opcodes":"PUSH1 0x80 PUSH1 0x40 MSTORE CALLVALUE DUP1 ISZERO PUSH2 0x10 JUMPI PUSH1 0x0 DUP1 REVERT JUMPDEST POP PUSH1 0x4 CALLDATASIZE LT PUSH2 0xEA JUMPI PUSH1 0x0 CALLDATALOAD PUSH1 0xE0 SHR DUP1 PUSH4 0x8E73B23C GT PUSH2 0x8C JUMPI DUP1 PUSH4 0xA9EFBA32 GT PUSH2 0x66 JUMPI DUP1 PUSH4 0xA9EFBA32 EQ PUSH2 0x1A6 JUMPI DUP1 PUSH4 0xB71501BC EQ PUSH2 0x1B9 JUMPI DUP1 PUSH4 0xFADB7FEE EQ PUSH2 0x1C1 JUMPI DUP1 PUSH4 0xFE47A9F2 EQ PUSH2 0x1E1 JUMPI PUSH2 0xEA JUMP JUMPDEST DUP1 PUSH4 0x8E73B23C EQ PUSH2 0x16D JUMPI DUP1 PUSH4 0xA05E1255 EQ PUSH2 0x180 JUMPI DUP1 PUSH4 0xA9D7BC52 EQ PUSH2 0x193 JUMPI PUSH2 0xEA JUMP JUMPDEST DUP1 PUSH4 0x5F82C67E GT PUSH2 0xC8 JUMPI DUP1 PUSH4 0x5F82C67E EQ PUSH2 0x135 JUMPI DUP1 PUSH4 0x6D7A00EB EQ PUSH2 0x13D JUMPI DUP1 PUSH4 0x82463367 EQ PUSH2 0x15D JUMPI DUP1 PUSH4 0x8DA5CB5B EQ PUSH2 0x165 JUMPI PUSH2 0xEA JUMP JUMPDEST DUP1 PUSH4 0x655D8B8 EQ PUSH2 0xEF JUMPI DUP1 PUSH4 0x12ADC47B EQ PUSH2 0x104 JUMPI DUP1 PUSH4 0x24A3D622 EQ PUSH2 0x117 JUMPI JUMPDEST PUSH1 0x0 DUP1 REVERT JUMPDEST PUSH2 0x102 PUSH2 0xFD CALLDATASIZE PUSH1 0x4 PUSH2 0x41F2 JUMP JUMPDEST PUSH2 0x1F4 JUMP JUMPDEST STOP JUMPDEST PUSH2 0x102 PUSH2 0x112 CALLDATASIZE PUSH1 0x4 PUSH2 0x4272 JUMP JUMPDEST PUSH2 0x400 JUMP JUMPDEST PUSH2 0x11F PUSH2 0x448 JUMP JUMPDEST PUSH1 0x40 MLOAD PUSH2 0x12C SWAP2 SWAP1 PUSH2 0x439C JUMP JUMPDEST PUSH1 0x40 MLOAD DUP1 SWAP2 SUB SWAP1 RETURN JUMPDEST PUSH2 0x11F PUSH2 0x457 JUMP JUMPDEST PUSH2 0x150 PUSH2 0x14B CALLDATASIZE PUSH1 0x4 PUSH2 0x417F JUMP JUMPDEST PUSH2 0x47B JUMP JUMPDEST PUSH1 0x40 MLOAD PUSH2 0x12C SWAP2 SWAP1 PUSH2 0x44A9 JUMP JUMPDEST PUSH2 0x11F PUSH2 0x63F JUMP JUMPDEST PUSH2 0x11F PUSH2 0x64E JUMP JUMPDEST PUSH2 0x102 PUSH2 0x17B CALLDATASIZE PUSH1 0x4 PUSH2 0x4272 JUMP JUMPDEST PUSH2 0x664 JUMP JUMPDEST PUSH2 0x102 PUSH2 0x18E CALLDATASIZE PUSH1 0x4 PUSH2 0x417F JUMP JUMPDEST PUSH2 0x6F2 JUMP JUMPDEST PUSH2 0x102 PUSH2 0x1A1 CALLDATASIZE PUSH1 0x4 PUSH2 0x429B JUMP JUMPDEST PUSH2 0x75D JUMP JUMPDEST PUSH2 0x102 PUSH2 0x1B4 CALLDATASIZE PUSH1 0x4 PUSH2 0x42D9 JUMP JUMPDEST PUSH2 0x82D JUMP JUMPDEST PUSH2 0x11F PUSH2 0x8CE JUMP JUMPDEST PUSH2 0x1D4 PUSH2 0x1CF CALLDATASIZE PUSH1 0x4 PUSH2 0x3EEB JUMP JUMPDEST PUSH2 0x8F2 JUMP JUMPDEST PUSH1 0x40 MLOAD PUSH2 0x12C SWAP2 SWAP1 PUSH2 0x44BC JUMP JUMPDEST PUSH2 0x102 PUSH2 0x1EF CALLDATASIZE PUSH1 0x4 PUSH2 0x3ECF JUMP JUMPDEST PUSH2 0xB4E JUMP JUMPDEST PUSH1 0x0 SLOAD PUSH1 0x1 PUSH1 0x20 SHL SWAP1 DIV PUSH1 0x1 PUSH1 0x1 PUSH1 0xA0 SHL SUB AND CALLER EQ PUSH2 0x22E JUMPI PUSH1 0x40 MLOAD PUSH3 0x461BCD PUSH1 0xE5 SHL DUP2 MSTORE PUSH1 0x4 ADD PUSH2 0x225 SWAP1 PUSH2 0x452A JUMP JUMPDEST PUSH1 0x40 MLOAD DUP1 SWAP2 SUB SWAP1 REVERT JUMPDEST PUSH1 0x0 PUSH2 0x239 DUP5 PUSH2 0xBDB JUMP JUMPDEST SWAP1 POP PUSH1 0x0 DUP2 PUSH1 0x1 PUSH1 0x1 PUSH1 0xA0 SHL SUB AND PUSH4 0xE79BF13B PUSH1 0x40 MLOAD DUP2 PUSH4 0xFFFFFFFF AND PUSH1 0xE0 SHL DUP2 MSTORE PUSH1 0x4 ADD PUSH1 0x0 PUSH1 0x40 MLOAD DUP1 DUP4 SUB DUP2 DUP7 DUP1 EXTCODESIZE ISZERO DUP1 ISZERO PUSH2 0x276 JUMPI PUSH1 0x0 DUP1 REVERT JUMPDEST POP GAS STATICCALL ISZERO DUP1 ISZERO PUSH2 0x28A JUMPI RETURNDATASIZE PUSH1 0x0 DUP1 RETURNDATACOPY RETURNDATASIZE PUSH1 0x0 REVERT JUMPDEST POP POP POP POP PUSH1 0x40 MLOAD RETURNDATASIZE PUSH1 0x0 DUP3 RETURNDATACOPY PUSH1 0x1F RETURNDATASIZE SWAP1 DUP2 ADD PUSH1 0x1F NOT AND DUP3 ADD PUSH1 0x40 MSTORE PUSH2 0x2B2 SWAP2 SWAP1 DUP2 ADD SWAP1 PUSH2 0x3F2A JUMP JUMPDEST DUP1 MLOAD SWAP1 SWAP2 POP DUP4 EQ PUSH2 0x2C2 JUMPI PUSH1 0x0 DUP1 REVERT JUMPDEST PUSH1 0x0 PUSH2 0x2CC PUSH2 0xC0D JUMP JUMPDEST PUSH2 0xFFFF DUP8 AND PUSH1 0x0 SWAP1 DUP2 MSTORE PUSH1 0x20 SWAP2 SWAP1 SWAP2 MSTORE PUSH1 0x40 DUP2 KECCAK256 SWAP2 POP DUP1 JUMPDEST DUP4 MLOAD DUP2 LT ISZERO PUSH2 0x3AD JUMPI CALLDATASIZE DUP8 DUP8 DUP4 DUP2 DUP2 LT PUSH2 0x2FA JUMPI INVALID JUMPDEST SWAP1 POP PUSH1 0x40 MUL ADD SWAP1 POP PUSH1 0x0 DUP6 DUP4 DUP2 MLOAD DUP2 LT PUSH2 0x310 JUMPI INVALID JUMPDEST PUSH1 0x20 MUL PUSH1 0x20 ADD ADD MLOAD SWAP1 POP DUP1 PUSH1 0x1 PUSH1 0x1 PUSH1 0xA0 SHL SUB AND DUP3 PUSH1 0x0 ADD PUSH1 0x20 DUP2 ADD SWAP1 PUSH2 0x337 SWAP2 SWAP1 PUSH2 0x3ECF JUMP JUMPDEST PUSH1 0x1 PUSH1 0x1 PUSH1 0xA0 SHL SUB AND EQ PUSH2 0x34A JUMPI PUSH1 0x0 DUP1 REVERT JUMPDEST PUSH2 0x367 PUSH2 0x35D PUSH1 0x40 DUP5 ADD PUSH1 0x20 DUP6 ADD PUSH2 0x4348 JUMP JUMPDEST DUP6 SWAP1 PUSH1 0xFF AND PUSH2 0xC20 JUMP JUMPDEST SWAP4 POP PUSH2 0x379 PUSH1 0x40 DUP4 ADD PUSH1 0x20 DUP5 ADD PUSH2 0x4348 JUMP JUMPDEST PUSH1 0x1 PUSH1 0x1 PUSH1 0xA0 SHL SUB SWAP2 SWAP1 SWAP2 AND PUSH1 0x0 SWAP1 DUP2 MSTORE PUSH1 0x20 DUP7 SWAP1 MSTORE PUSH1 0x40 SWAP1 KECCAK256 DUP1 SLOAD PUSH1 0xFF NOT AND PUSH1 0xFF SWAP1 SWAP3 AND SWAP2 SWAP1 SWAP2 OR SWAP1 SSTORE POP PUSH1 0x1 ADD PUSH2 0x2E4 JUMP JUMPDEST POP PUSH1 0x64 DUP2 GT ISZERO PUSH2 0x3BC JUMPI PUSH1 0x0 DUP1 REVERT JUMPDEST PUSH32 0x173893B333BEACB26403450E70F577038A6531741AAFF45C341BEE3B8D4B42C4 DUP8 DUP8 DUP8 PUSH1 0x40 MLOAD PUSH2 0x3EF SWAP4 SWAP3 SWAP2 SWAP1 PUSH2 0x45DE JUMP JUMPDEST PUSH1 0x40 MLOAD DUP1 SWAP2 SUB SWAP1 LOG1 POP POP POP POP POP POP POP JUMP JUMPDEST PUSH1 0x0 SLOAD PUSH1 0x1 PUSH1 0x20 SHL SWAP1 DIV PUSH1 0x1 PUSH1 0x1 PUSH1 0xA0 SHL SUB AND CALLER EQ PUSH2 0x431 JUMPI PUSH1 0x40 MLOAD PUSH3 0x461BCD PUSH1 0xE5 SHL DUP2 MSTORE PUSH1 0x4 ADD PUSH2 0x225 SWAP1 PUSH2 0x452A JUMP JUMPDEST PUSH2 0x43A DUP3 PUSH2 0xC39 JUMP JUMPDEST PUSH2 0x444 DUP3 DUP3 PUSH2 0xC76 JUMP JUMPDEST POP POP JUMP JUMPDEST PUSH1 0x2 SLOAD PUSH1 0x1 PUSH1 0x1 PUSH1 0xA0 SHL SUB AND DUP2 JUMP JUMPDEST PUSH32 0x0 DUP2 JUMP JUMPDEST PUSH1 0xB SLOAD PUSH1 0x60 SWAP1 PUSH1 0x1 PUSH1 0x1 PUSH1 0xA0 SHL SUB AND CALLER EQ PUSH2 0x4A8 JUMPI PUSH1 0x40 MLOAD PUSH3 0x461BCD PUSH1 0xE5 SHL DUP2 MSTORE PUSH1 0x4 ADD PUSH2 0x225 SWAP1 PUSH2 0x44C5 JUMP JUMPDEST PUSH1 0x2 PUSH1 0xA SLOAD EQ ISZERO PUSH2 0x4B8 JUMPI PUSH1 0x0 DUP1 REVERT JUMPDEST PUSH1 0x2 PUSH1 0xA SSTORE PUSH1 0x0 DUP3 PUSH1 0x1 PUSH1 0x1 PUSH1 0x40 SHL SUB DUP2 GT DUP1 ISZERO PUSH2 0x4D5 JUMPI PUSH1 0x0 DUP1 REVERT JUMPDEST POP PUSH1 0x40 MLOAD SWAP1 DUP1 DUP3 MSTORE DUP1 PUSH1 0x20 MUL PUSH1 0x20 ADD DUP3 ADD PUSH1 0x40 MSTORE DUP1 ISZERO PUSH2 0x4FF JUMPI DUP2 PUSH1 0x20 ADD PUSH1 0x20 DUP3 MUL DUP1 CALLDATASIZE DUP4 CALLDATACOPY ADD SWAP1 POP JUMPDEST POP SWAP1 POP PUSH1 0x0 JUMPDEST DUP4 DUP2 LT ISZERO PUSH2 0x632 JUMPI DUP1 ISZERO PUSH2 0x57D JUMPI DUP5 DUP5 PUSH1 0x1 DUP4 SUB DUP2 DUP2 LT PUSH2 0x522 JUMPI INVALID JUMPDEST SWAP1 POP PUSH1 0x20 MUL ADD PUSH1 0x20 DUP2 ADD SWAP1 PUSH2 0x537 SWAP2 SWAP1 PUSH2 0x41D8 JUMP JUMPDEST PUSH2 0xFFFF AND DUP6 DUP6 DUP4 DUP2 DUP2 LT PUSH2 0x547 JUMPI INVALID JUMPDEST SWAP1 POP PUSH1 0x20 MUL ADD PUSH1 0x20 DUP2 ADD SWAP1 PUSH2 0x55C SWAP2 SWAP1 PUSH2 0x41D8 JUMP JUMPDEST PUSH2 0xFFFF AND GT PUSH2 0x57D JUMPI PUSH1 0x40 MLOAD PUSH3 0x461BCD PUSH1 0xE5 SHL DUP2 MSTORE PUSH1 0x4 ADD PUSH2 0x225 SWAP1 PUSH2 0x455F JUMP JUMPDEST PUSH1 0x0 DUP6 DUP6 DUP4 DUP2 DUP2 LT PUSH2 0x58B JUMPI INVALID JUMPDEST SWAP1 POP PUSH1 0x20 MUL ADD PUSH1 0x20 DUP2 ADD SWAP1 PUSH2 0x5A0 SWAP2 SWAP1 PUSH2 0x41D8 JUMP JUMPDEST SWAP1 POP PUSH2 0x5AB DUP2 PUSH2 0xC39 JUMP JUMPDEST PUSH2 0xFFFF DUP2 AND PUSH1 0x0 SWAP1 DUP2 MSTORE PUSH1 0xC PUSH1 0x20 MSTORE PUSH1 0x40 DUP2 KECCAK256 SLOAD PUSH2 0x5C8 SWAP1 PUSH2 0xCB7 JUMP JUMPDEST SWAP1 POP DUP1 PUSH2 0x5D6 JUMPI POP POP PUSH2 0x62A JUMP JUMPDEST PUSH1 0x0 PUSH2 0x5E4 PUSH2 0xFEE DUP5 PUSH2 0xCD1 JUMP JUMPDEST SWAP1 POP DUP2 DUP2 SGT PUSH2 0x5F5 JUMPI POP POP POP PUSH2 0x62A JUMP JUMPDEST DUP2 DUP2 SUB PUSH2 0x602 DUP5 DUP3 PUSH2 0xD2A JUMP JUMPDEST DUP7 DUP7 DUP2 MLOAD DUP2 LT PUSH2 0x60E JUMPI INVALID JUMPDEST PUSH1 0x20 MUL PUSH1 0x20 ADD ADD DUP2 DUP2 MSTORE POP POP PUSH2 0x625 DUP5 DUP4 DUP4 PUSH2 0xD99 JUMP JUMPDEST POP POP POP POP JUMPDEST PUSH1 0x1 ADD PUSH2 0x505 JUMP JUMPDEST POP PUSH1 0x1 PUSH1 0xA SSTORE SWAP4 SWAP3 POP POP POP JUMP JUMPDEST PUSH1 0x1 SLOAD PUSH1 0x1 PUSH1 0x1 PUSH1 0xA0 SHL SUB AND DUP2 JUMP JUMPDEST PUSH1 0x0 SLOAD PUSH1 0x1 PUSH1 0x20 SHL SWAP1 DIV PUSH1 0x1 PUSH1 0x1 PUSH1 0xA0 SHL SUB AND DUP2 JUMP JUMPDEST PUSH1 0x0 SLOAD PUSH1 0x1 PUSH1 0x20 SHL SWAP1 DIV PUSH1 0x1 PUSH1 0x1 PUSH1 0xA0 SHL SUB AND CALLER EQ PUSH2 0x695 JUMPI PUSH1 0x40 MLOAD PUSH3 0x461BCD PUSH1 0xE5 SHL DUP2 MSTORE PUSH1 0x4 ADD PUSH2 0x225 SWAP1 PUSH2 0x452A JUMP JUMPDEST PUSH2 0x69E DUP3 PUSH2 0xC39 JUMP JUMPDEST PUSH2 0xFFFF DUP3 AND PUSH1 0x0 SWAP1 DUP2 MSTORE PUSH1 0xC PUSH1 0x20 MSTORE PUSH1 0x40 SWAP1 DUP2 SWAP1 KECCAK256 DUP3 SWAP1 SSTORE MLOAD PUSH32 0xFD37F6BC518C96B848C133A7D44A5A9B5ACEA171BE7DC45E363F153347ED7641 SWAP1 PUSH2 0x6E6 SWAP1 DUP5 SWAP1 DUP5 SWAP1 PUSH2 0x4641 JUMP JUMPDEST PUSH1 0x40 MLOAD DUP1 SWAP2 SUB SWAP1 LOG1 POP POP JUMP JUMPDEST PUSH1 0xB SLOAD PUSH1 0x1 PUSH1 0x1 PUSH1 0xA0 SHL SUB AND CALLER EQ PUSH2 0x71C JUMPI PUSH1 0x40 MLOAD PUSH3 0x461BCD PUSH1 0xE5 SHL DUP2 MSTORE PUSH1 0x4 ADD PUSH2 0x225 SWAP1 PUSH2 0x44C5 JUMP JUMPDEST PUSH1 0x0 JUMPDEST DUP2 DUP2 LT ISZERO PUSH2 0x758 JUMPI PUSH2 0x750 DUP4 DUP4 DUP4 DUP2 DUP2 LT PUSH2 0x736 JUMPI INVALID JUMPDEST SWAP1 POP PUSH1 0x20 MUL ADD PUSH1 0x20 DUP2 ADD SWAP1 PUSH2 0x74B SWAP2 SWAP1 PUSH2 0x41D8 JUMP JUMPDEST PUSH2 0xDF3 JUMP JUMPDEST PUSH1 0x1 ADD PUSH2 0x71F JUMP JUMPDEST POP POP POP JUMP JUMPDEST PUSH1 0x0 SLOAD PUSH1 0x1 PUSH1 0x20 SHL SWAP1 DIV PUSH1 0x1 PUSH1 0x1 PUSH1 0xA0 SHL SUB AND CALLER EQ PUSH2 0x78E JUMPI PUSH1 0x40 MLOAD PUSH3 0x461BCD PUSH1 0xE5 SHL DUP2 MSTORE PUSH1 0x4 ADD PUSH2 0x225 SWAP1 PUSH2 0x452A JUMP JUMPDEST PUSH2 0x797 DUP3 PUSH2 0xC39 JUMP JUMPDEST PUSH1 0x0 PUSH2 0x7A6 DUP4 PUSH2 0xFFFF AND PUSH2 0xF91 JUMP JUMPDEST SWAP1 POP PUSH1 0x1 PUSH1 0x1 PUSH1 0xA0 SHL SUB DUP2 AND PUSH2 0x7BB JUMPI PUSH1 0x0 DUP1 REVERT JUMPDEST PUSH4 0x5F5E100 DUP3 PUSH4 0xFFFFFFFF AND SLT PUSH2 0x7E4 JUMPI PUSH1 0x40 MLOAD PUSH3 0x461BCD PUSH1 0xE5 SHL DUP2 MSTORE PUSH1 0x4 ADD PUSH2 0x225 SWAP1 PUSH2 0x458B JUMP JUMPDEST PUSH2 0x7EF DUP2 DUP4 TIMESTAMP PUSH2 0xFB7 JUMP JUMPDEST PUSH32 0x713F9554D16202D36A895476EC29CE9250F47D35422E2D9409E8F644D6AAB689 DUP4 DUP4 PUSH1 0x40 MLOAD PUSH2 0x820 SWAP3 SWAP2 SWAP1 PUSH2 0x4671 JUMP JUMPDEST PUSH1 0x40 MLOAD DUP1 SWAP2 SUB SWAP1 LOG1 POP POP POP JUMP JUMPDEST PUSH1 0x0 SLOAD PUSH1 0x1 PUSH1 0x20 SHL SWAP1 DIV PUSH1 0x1 PUSH1 0x1 PUSH1 0xA0 SHL SUB AND CALLER EQ PUSH2 0x85E JUMPI PUSH1 0x40 MLOAD PUSH3 0x461BCD PUSH1 0xE5 SHL DUP2 MSTORE PUSH1 0x4 ADD PUSH2 0x225 SWAP1 PUSH2 0x452A JUMP JUMPDEST PUSH1 0x0 PUSH2 0x868 PUSH2 0x100D JUMP JUMPDEST PUSH2 0xFFFF DUP5 AND PUSH1 0x0 SWAP1 DUP2 MSTORE PUSH1 0x20 DUP3 SWAP1 MSTORE PUSH1 0x40 SWAP1 DUP2 SWAP1 KECCAK256 DUP1 SLOAD PUSH5 0xFFFFFFFFFF PUSH1 0x80 SHL NOT AND PUSH1 0x1 PUSH1 0x80 SHL PUSH5 0xFFFFFFFFFF DUP8 AND MUL OR SWAP1 SSTORE MLOAD SWAP1 SWAP2 POP PUSH32 0x16B1CF4CBFF8DF027F5BEC1791DC85FA6B5F625FBA6BC942C10482CCFE6814B2 SWAP1 PUSH2 0x820 SWAP1 DUP6 SWAP1 DUP6 SWAP1 PUSH2 0x468B JUMP JUMPDEST PUSH32 0x0 DUP2 JUMP JUMPDEST PUSH1 0xB SLOAD PUSH1 0x0 SWAP1 PUSH1 0x1 PUSH1 0x1 PUSH1 0xA0 SHL SUB AND CALLER EQ PUSH2 0x91F JUMPI PUSH1 0x40 MLOAD PUSH3 0x461BCD PUSH1 0xE5 SHL DUP2 MSTORE PUSH1 0x4 ADD PUSH2 0x225 SWAP1 PUSH2 0x44C5 JUMP JUMPDEST PUSH1 0x2 PUSH1 0xA SLOAD EQ ISZERO PUSH2 0x92F JUMPI PUSH1 0x0 DUP1 REVERT JUMPDEST PUSH1 0x2 PUSH1 0xA SSTORE PUSH1 0x40 MLOAD PUSH4 0x70A08231 PUSH1 0xE0 SHL DUP2 MSTORE PUSH1 0x0 SWAP1 PUSH1 0x1 PUSH1 0x1 PUSH1 0xA0 SHL SUB PUSH32 0x0 AND SWAP1 PUSH4 0x70A08231 SWAP1 PUSH2 0x983 SWAP1 ADDRESS SWAP1 PUSH1 0x4 ADD PUSH2 0x439C JUMP JUMPDEST PUSH1 0x20 PUSH1 0x40 MLOAD DUP1 DUP4 SUB DUP2 DUP7 DUP1 EXTCODESIZE ISZERO DUP1 ISZERO PUSH2 0x99B JUMPI PUSH1 0x0 DUP1 REVERT JUMPDEST POP GAS STATICCALL ISZERO DUP1 ISZERO PUSH2 0x9AF JUMPI RETURNDATASIZE PUSH1 0x0 DUP1 RETURNDATACOPY RETURNDATASIZE PUSH1 0x0 REVERT JUMPDEST POP POP POP POP PUSH1 0x40 MLOAD RETURNDATASIZE PUSH1 0x1F NOT PUSH1 0x1F DUP3 ADD AND DUP3 ADD DUP1 PUSH1 0x40 MSTORE POP DUP2 ADD SWAP1 PUSH2 0x9D3 SWAP2 SWAP1 PUSH2 0x430D JUMP JUMPDEST PUSH1 0x40 MLOAD PUSH3 0xE1ED97 PUSH1 0xE5 SHL DUP2 MSTORE SWAP1 SWAP2 POP PUSH1 0x1 PUSH1 0x1 PUSH1 0xA0 SHL SUB PUSH32 0x0 AND SWAP1 PUSH4 0x1C3DB2E0 SWAP1 PUSH2 0xA25 SWAP1 ADDRESS SWAP1 DUP9 SWAP1 DUP9 SWAP1 PUSH1 0x4 ADD PUSH2 0x43D4 JUMP JUMPDEST PUSH1 0x0 PUSH1 0x40 MLOAD DUP1 DUP4 SUB DUP2 PUSH1 0x0 DUP8 DUP1 EXTCODESIZE ISZERO DUP1 ISZERO PUSH2 0xA3F JUMPI PUSH1 0x0 DUP1 REVERT JUMPDEST POP GAS CALL ISZERO DUP1 ISZERO PUSH2 0xA53 JUMPI RETURNDATASIZE PUSH1 0x0 DUP1 RETURNDATACOPY RETURNDATASIZE PUSH1 0x0 REVERT JUMPDEST POP POP PUSH1 0x40 MLOAD PUSH4 0x70A08231 PUSH1 0xE0 SHL DUP2 MSTORE PUSH1 0x0 SWAP3 POP PUSH1 0x1 PUSH1 0x1 PUSH1 0xA0 SHL SUB PUSH32 0x0 AND SWAP2 POP PUSH4 0x70A08231 SWAP1 PUSH2 0xAA6 SWAP1 ADDRESS SWAP1 PUSH1 0x4 ADD PUSH2 0x439C JUMP JUMPDEST PUSH1 0x20 PUSH1 0x40 MLOAD DUP1 DUP4 SUB DUP2 DUP7 DUP1 EXTCODESIZE ISZERO DUP1 ISZERO PUSH2 0xABE JUMPI PUSH1 0x0 DUP1 REVERT JUMPDEST POP GAS STATICCALL ISZERO DUP1 ISZERO PUSH2 0xAD2 JUMPI RETURNDATASIZE PUSH1 0x0 DUP1 RETURNDATACOPY RETURNDATASIZE PUSH1 0x0 REVERT JUMPDEST POP POP POP POP PUSH1 0x40 MLOAD RETURNDATASIZE PUSH1 0x1F NOT PUSH1 0x1F DUP3 ADD AND DUP3 ADD DUP1 PUSH1 0x40 MSTORE POP DUP2 ADD SWAP1 PUSH2 0xAF6 SWAP2 SWAP1 PUSH2 0x430D JUMP JUMPDEST SWAP1 POP PUSH1 0x0 PUSH2 0xB04 DUP3 DUP5 PUSH2 0x101A JUMP JUMPDEST SWAP1 POP DUP1 ISZERO PUSH2 0xB40 JUMPI PUSH2 0xB40 PUSH1 0x1 PUSH1 0x1 PUSH1 0xA0 SHL SUB PUSH32 0x0 AND CALLER DUP4 PUSH2 0x102F JUMP JUMPDEST PUSH1 0x1 PUSH1 0xA SSTORE SWAP6 SWAP5 POP POP POP POP POP JUMP JUMPDEST PUSH1 0x0 SLOAD PUSH1 0x1 PUSH1 0x20 SHL SWAP1 DIV PUSH1 0x1 PUSH1 0x1 PUSH1 0xA0 SHL SUB AND CALLER EQ PUSH2 0xB7F JUMPI PUSH1 0x40 MLOAD PUSH3 0x461BCD PUSH1 0xE5 SHL DUP2 MSTORE PUSH1 0x4 ADD PUSH2 0x225 SWAP1 PUSH2 0x452A JUMP JUMPDEST PUSH1 0xB SLOAD PUSH1 0x40 MLOAD PUSH1 0x1 PUSH1 0x1 PUSH1 0xA0 SHL SUB DUP1 DUP5 AND SWAP3 AND SWAP1 PUSH32 0xF92CFDDD8D7AB2F6E4FD488959C76C8033AAAA6DAD691A0CBD1FC68F194B3D0C SWAP1 PUSH1 0x0 SWAP1 LOG3 PUSH1 0xB DUP1 SLOAD PUSH1 0x1 PUSH1 0x1 PUSH1 0xA0 SHL SUB NOT AND PUSH1 0x1 PUSH1 0x1 PUSH1 0xA0 SHL SUB SWAP3 SWAP1 SWAP3 AND SWAP2 SWAP1 SWAP2 OR SWAP1 SSTORE JUMP JUMPDEST PUSH1 0x0 DUP1 PUSH2 0xBE6 PUSH2 0x1081 JUMP JUMPDEST PUSH2 0xFFFF DUP5 AND PUSH1 0x0 SWAP1 DUP2 MSTORE PUSH1 0x20 SWAP2 SWAP1 SWAP2 MSTORE PUSH1 0x40 SWAP1 KECCAK256 SLOAD PUSH1 0x1 PUSH1 0x1 PUSH1 0xA0 SHL SUB AND SWAP2 POP POP JUMPDEST SWAP2 SWAP1 POP JUMP JUMPDEST PUSH1 0x0 DUP1 PUSH2 0xC1A PUSH1 0x24 PUSH2 0x108A JUMP JUMPDEST SWAP3 SWAP2 POP POP JUMP JUMPDEST PUSH1 0x0 DUP3 DUP3 ADD DUP4 DUP2 LT ISZERO PUSH2 0xC32 JUMPI PUSH1 0x0 DUP1 REVERT JUMPDEST SWAP4 SWAP3 POP POP POP JUMP JUMPDEST DUP1 PUSH2 0xFFFF AND PUSH1 0x0 LT DUP1 ISZERO PUSH2 0xC57 JUMPI POP PUSH1 0x0 SLOAD PUSH2 0xFFFF SWAP1 DUP2 AND SWAP1 DUP3 AND GT ISZERO JUMPDEST PUSH2 0xC73 JUMPI PUSH1 0x40 MLOAD PUSH3 0x461BCD PUSH1 0xE5 SHL DUP2 MSTORE PUSH1 0x4 ADD PUSH2 0x225 SWAP1 PUSH2 0x45B1 JUMP JUMPDEST POP JUMP JUMPDEST PUSH1 0x0 DUP2 SLT ISZERO PUSH2 0xC84 JUMPI PUSH1 0x0 DUP1 REVERT JUMPDEST PUSH1 0x0 PUSH2 0xC92 PUSH2 0xFEE DUP5 PUSH2 0xCD1 JUMP JUMPDEST SWAP1 POP PUSH2 0xCA1 PUSH2 0xFEE DUP5 DUP5 PUSH2 0x10A3 JUMP JUMPDEST PUSH2 0x758 PUSH2 0xFEE DUP5 PUSH2 0xCB2 DUP6 DUP6 PUSH2 0x1117 JUMP JUMPDEST PUSH2 0x112D JUMP JUMPDEST PUSH1 0x0 PUSH1 0x1 PUSH1 0x1 PUSH1 0xFF SHL SUB DUP3 GT ISZERO PUSH2 0xCCD JUMPI PUSH1 0x0 DUP1 REVERT JUMPDEST POP SWAP1 JUMP JUMPDEST PUSH1 0x0 DUP1 PUSH2 0xCDC PUSH2 0x11B7 JUMP JUMPDEST PUSH1 0x1 PUSH1 0x1 PUSH1 0xA0 SHL SUB DUP6 AND PUSH1 0x0 SWAP1 DUP2 MSTORE PUSH1 0x20 DUP3 DUP2 MSTORE PUSH1 0x40 DUP1 DUP4 KECCAK256 PUSH2 0xFFFF DUP9 AND DUP5 MSTORE SWAP1 SWAP2 MSTORE DUP2 KECCAK256 DUP1 SLOAD PUSH1 0x1 PUSH1 0xA8 SHL SWAP1 DIV PUSH1 0xA SWAP1 DUP2 SIGNEXTEND SWAP1 SIGNEXTEND SWAP5 POP SWAP2 SWAP3 POP DUP4 SLT ISZERO PUSH2 0xD22 JUMPI PUSH1 0x0 DUP1 REVERT JUMPDEST POP POP SWAP3 SWAP2 POP POP JUMP JUMPDEST PUSH1 0x0 DUP1 PUSH2 0xD36 DUP5 PUSH2 0x11C4 JUMP JUMPDEST PUSH1 0xB SLOAD SWAP1 SWAP2 POP PUSH2 0xD54 SWAP1 PUSH2 0xFEE SWAP1 PUSH1 0x1 PUSH1 0x1 PUSH1 0xA0 SHL SUB AND DUP7 DUP7 PUSH2 0x11D6 JUMP JUMPDEST PUSH1 0xB SLOAD PUSH1 0x0 SWAP1 PUSH2 0xD82 SWAP1 PUSH2 0xD7D SWAP1 PUSH1 0x1 PUSH1 0x1 PUSH1 0xA0 SHL SUB AND DUP8 PUSH2 0xD75 DUP9 PUSH2 0x127C JUMP JUMPDEST DUP7 PUSH1 0x1 PUSH2 0x128A JUMP JUMPDEST PUSH2 0x127C JUMP JUMPDEST SWAP1 POP PUSH1 0x0 DUP2 SGT PUSH2 0xD91 JUMPI PUSH1 0x0 DUP1 REVERT JUMPDEST SWAP5 SWAP4 POP POP POP POP JUMP JUMPDEST PUSH2 0xDA3 DUP3 DUP3 PUSH2 0x1333 JUMP JUMPDEST SWAP2 POP PUSH2 0xDB2 PUSH2 0xFEE DUP5 DUP5 PUSH2 0x10A3 JUMP JUMPDEST DUP3 PUSH2 0xFFFF AND PUSH32 0x7C5E8932DD97CEA84F9AB339DAD12A29A4CD81E67E7D892663AA03A3F0832B73 DUP3 PUSH1 0x40 MLOAD PUSH2 0xDE6 SWAP2 SWAP1 PUSH2 0x44BC JUMP JUMPDEST PUSH1 0x40 MLOAD DUP1 SWAP2 SUB SWAP1 LOG2 POP POP POP JUMP JUMPDEST PUSH1 0x0 PUSH2 0xDFD PUSH2 0x100D JUMP JUMPDEST PUSH2 0xFFFF DUP4 AND PUSH1 0x0 SWAP1 DUP2 MSTORE PUSH1 0x20 SWAP2 DUP3 MSTORE PUSH1 0x40 SWAP1 DUP2 SWAP1 KECCAK256 DUP2 MLOAD PUSH1 0x60 DUP2 ADD DUP4 MSTORE SWAP1 SLOAD PUSH1 0x1 PUSH1 0x1 PUSH1 0x80 SHL SUB DUP2 AND DUP3 MSTORE PUSH5 0xFFFFFFFFFF PUSH1 0x1 PUSH1 0x80 SHL DUP3 DIV DUP2 AND SWAP5 DUP4 ADD DUP6 SWAP1 MSTORE PUSH1 0x1 PUSH1 0xA8 SHL SWAP1 SWAP2 DIV AND SWAP2 DUP2 ADD DUP3 SWAP1 MSTORE SWAP3 POP TIMESTAMP SWAP2 PUSH2 0xE5A SWAP2 SWAP1 PUSH2 0xC20 JUMP JUMPDEST LT PUSH2 0xE77 JUMPI PUSH1 0x40 MLOAD PUSH3 0x461BCD PUSH1 0xE5 SHL DUP2 MSTORE PUSH1 0x4 ADD PUSH2 0x225 SWAP1 PUSH2 0x44FC JUMP JUMPDEST PUSH1 0x0 PUSH2 0xE82 DUP4 PUSH2 0x11C4 JUMP JUMPDEST SWAP1 POP PUSH2 0xE8D DUP4 PUSH2 0x134F JUMP JUMPDEST PUSH1 0x0 DUP1 PUSH2 0xE9D DUP4 PUSH1 0x0 ADD MLOAD PUSH2 0x157F JUMP JUMPDEST DUP5 MLOAD SWAP1 SWAP2 POP PUSH1 0x1 PUSH1 0x1 PUSH1 0x80 SHL SUB AND ISZERO PUSH2 0xF33 JUMPI PUSH1 0x0 PUSH2 0xEFE PUSH4 0x3B9ACA00 PUSH2 0xEF2 PUSH8 0xDE0B6B3A7640000 PUSH2 0xEF8 DUP10 PUSH1 0x0 ADD MLOAD PUSH1 0x1 PUSH1 0x1 PUSH1 0x80 SHL SUB AND PUSH2 0xEF2 PUSH8 0xDE0B6B3A7640000 DUP10 PUSH2 0x158E SWAP1 SWAP2 SWAP1 PUSH4 0xFFFFFFFF AND JUMP JUMPDEST SWAP1 PUSH2 0x15B5 JUMP JUMPDEST SWAP1 PUSH2 0x101A JUMP JUMPDEST SWAP1 POP PUSH2 0xF2F PUSH2 0xF21 DUP7 PUSH1 0x40 ADD MLOAD PUSH5 0xFFFFFFFFFF AND TIMESTAMP PUSH2 0x101A SWAP1 SWAP2 SWAP1 PUSH4 0xFFFFFFFF AND JUMP JUMPDEST PUSH2 0xEF2 DUP4 PUSH4 0x1DA9C00 PUSH2 0x158E JUMP JUMPDEST SWAP3 POP POP JUMPDEST PUSH2 0xF45 DUP6 PUSH2 0xF40 DUP4 PUSH2 0x15D4 JUMP JUMPDEST PUSH2 0x15EA JUMP JUMPDEST PUSH2 0xF4F DUP6 DUP4 PUSH2 0x165C JUMP JUMPDEST PUSH32 0xEDDEA56DFBD588F030ED3FCBDE65761F19492023CE381012239E7F7CC8D35A7C DUP6 DUP3 DUP5 PUSH1 0x40 MLOAD PUSH2 0xF82 SWAP4 SWAP3 SWAP2 SWAP1 PUSH2 0x4655 JUMP JUMPDEST PUSH1 0x40 MLOAD DUP1 SWAP2 SUB SWAP1 LOG1 POP POP POP POP POP JUMP JUMPDEST PUSH1 0x0 DUP1 PUSH2 0xF9C PUSH2 0x16AD JUMP JUMPDEST PUSH1 0x0 SWAP4 DUP5 MSTORE PUSH1 0x20 MSTORE POP POP PUSH1 0x40 SWAP1 KECCAK256 SLOAD PUSH1 0x1 PUSH1 0x1 PUSH1 0xA0 SHL SUB AND SWAP1 JUMP JUMPDEST PUSH2 0xFC3 DUP4 PUSH1 0x0 DUP4 PUSH2 0x16BA JUMP JUMPDEST POP PUSH1 0x0 PUSH2 0xFCE PUSH2 0x179B JUMP JUMPDEST PUSH1 0x1 PUSH1 0x1 PUSH1 0xA0 SHL SUB SWAP1 SWAP5 AND PUSH1 0x0 SWAP1 DUP2 MSTORE PUSH1 0x20 SWAP5 SWAP1 SWAP5 MSTORE POP POP PUSH1 0x40 SWAP1 SWAP2 KECCAK256 DUP1 SLOAD PUSH4 0xFFFFFFFF SWAP1 SWAP3 AND PUSH3 0x10000 MUL PUSH6 0xFFFFFFFF0000 NOT SWAP1 SWAP3 AND SWAP2 SWAP1 SWAP2 OR SWAP1 SSTORE JUMP JUMPDEST PUSH1 0x0 DUP1 PUSH2 0xC1A PUSH1 0x25 PUSH2 0x108A JUMP JUMPDEST PUSH1 0x0 DUP3 DUP3 GT ISZERO PUSH2 0x1029 JUMPI PUSH1 0x0 DUP1 REVERT JUMPDEST POP SWAP1 SUB SWAP1 JUMP JUMPDEST PUSH1 0x40 DUP1 MLOAD PUSH1 0x1 PUSH1 0x1 PUSH1 0xA0 SHL SUB DUP5 AND PUSH1 0x24 DUP3 ADD MSTORE PUSH1 0x44 DUP1 DUP3 ADD DUP5 SWAP1 MSTORE DUP3 MLOAD DUP1 DUP4 SUB SWAP1 SWAP2 ADD DUP2 MSTORE PUSH1 0x64 SWAP1 SWAP2 ADD SWAP1 SWAP2 MSTORE PUSH1 0x20 DUP2 ADD DUP1 MLOAD PUSH1 0x1 PUSH1 0x1 PUSH1 0xE0 SHL SUB AND PUSH4 0xA9059CBB PUSH1 0xE0 SHL OR SWAP1 MSTORE PUSH2 0x758 SWAP1 DUP5 SWAP1 PUSH2 0x17A8 JUMP JUMPDEST PUSH1 0x0 DUP1 PUSH2 0xC1A PUSH1 0x1F JUMPDEST PUSH1 0x0 PUSH3 0xF4240 DUP3 PUSH1 0x26 DUP2 GT ISZERO PUSH2 0x109C JUMPI INVALID JUMPDEST ADD SWAP3 SWAP2 POP POP JUMP JUMPDEST PUSH1 0x0 DUP2 SLT ISZERO PUSH2 0x10B1 JUMPI PUSH1 0x0 DUP1 REVERT JUMPDEST PUSH1 0x0 PUSH2 0x10BB PUSH2 0x11B7 JUMP JUMPDEST PUSH1 0x1 PUSH1 0x1 PUSH1 0xA0 SHL SUB DUP6 AND PUSH1 0x0 SWAP1 DUP2 MSTORE PUSH1 0x20 DUP3 DUP2 MSTORE PUSH1 0x40 DUP1 DUP4 KECCAK256 PUSH2 0xFFFF DUP9 AND DUP5 MSTORE SWAP1 SWAP2 MSTORE SWAP1 KECCAK256 SWAP1 SWAP2 POP PUSH2 0x10EC DUP4 PUSH2 0x1859 JUMP JUMPDEST DUP2 SLOAD PUSH1 0xA SWAP2 SWAP1 SWAP2 SIGNEXTEND PUSH1 0x1 PUSH1 0x1 PUSH1 0x58 SHL SUB AND PUSH1 0x1 PUSH1 0xA8 SHL MUL PUSH1 0x1 PUSH1 0x1 PUSH1 0xA8 SHL SUB SWAP1 SWAP2 AND OR SWAP1 SSTORE POP POP POP POP JUMP JUMPDEST DUP1 DUP3 SUB DUP3 DUP2 SGT ISZERO PUSH1 0x0 DUP4 SLT ISZERO EQ PUSH2 0xC1A JUMPI PUSH1 0x0 DUP1 REVERT JUMPDEST PUSH1 0x0 PUSH2 0x1137 PUSH2 0x188B JUMP JUMPDEST PUSH2 0xFFFF DUP5 AND PUSH1 0x0 SWAP1 DUP2 MSTORE PUSH1 0x20 SWAP2 SWAP1 SWAP2 MSTORE PUSH1 0x40 SWAP1 DUP2 SWAP1 KECCAK256 SLOAD SWAP1 MLOAD PUSH4 0xAD1C095D PUSH1 0xE0 SHL DUP2 MSTORE PUSH1 0x1 PUSH1 0x1 PUSH1 0xA0 SHL SUB SWAP1 SWAP2 AND SWAP2 POP DUP2 SWAP1 PUSH4 0xAD1C095D SWAP1 PUSH2 0x117F SWAP1 DUP8 SWAP1 DUP7 SWAP1 PUSH1 0x4 ADD PUSH2 0x4430 JUMP JUMPDEST PUSH1 0x0 PUSH1 0x40 MLOAD DUP1 DUP4 SUB DUP2 PUSH1 0x0 DUP8 DUP1 EXTCODESIZE ISZERO DUP1 ISZERO PUSH2 0x1199 JUMPI PUSH1 0x0 DUP1 REVERT JUMPDEST POP GAS CALL ISZERO DUP1 ISZERO PUSH2 0x11AD JUMPI RETURNDATASIZE PUSH1 0x0 DUP1 RETURNDATACOPY RETURNDATASIZE PUSH1 0x0 REVERT JUMPDEST POP POP POP POP POP POP POP POP JUMP JUMPDEST PUSH1 0x0 DUP1 PUSH2 0xC1A PUSH1 0x6 PUSH2 0x108A JUMP JUMPDEST PUSH2 0x11CC PUSH2 0x3B9E JUMP JUMPDEST PUSH2 0xC1A DUP3 TIMESTAMP PUSH2 0x1898 JUMP JUMPDEST PUSH1 0x0 PUSH2 0x11E0 PUSH2 0x188B JUMP JUMPDEST PUSH2 0xFFFF DUP5 AND PUSH1 0x0 SWAP1 DUP2 MSTORE PUSH1 0x20 SWAP2 SWAP1 SWAP2 MSTORE PUSH1 0x40 DUP2 KECCAK256 SLOAD PUSH1 0x1 PUSH1 0x1 PUSH1 0xA0 SHL SUB AND SWAP2 POP DUP3 SLT ISZERO PUSH2 0x120B JUMPI SWAP3 SWAP4 SWAP3 JUMPDEST DUP1 PUSH1 0x1 PUSH1 0x1 PUSH1 0xA0 SHL SUB AND PUSH4 0x23DE6651 DUP7 DUP7 PUSH2 0x1225 DUP7 PUSH2 0x195E JUMP JUMPDEST PUSH1 0x40 MLOAD DUP5 PUSH4 0xFFFFFFFF AND PUSH1 0xE0 SHL DUP2 MSTORE PUSH1 0x4 ADD PUSH2 0x1243 SWAP4 SWAP3 SWAP2 SWAP1 PUSH2 0x43B0 JUMP JUMPDEST PUSH1 0x0 PUSH1 0x40 MLOAD DUP1 DUP4 SUB DUP2 PUSH1 0x0 DUP8 DUP1 EXTCODESIZE ISZERO DUP1 ISZERO PUSH2 0x125D JUMPI PUSH1 0x0 DUP1 REVERT JUMPDEST POP GAS CALL ISZERO DUP1 ISZERO PUSH2 0x1271 JUMPI RETURNDATASIZE PUSH1 0x0 DUP1 RETURNDATACOPY RETURNDATASIZE PUSH1 0x0 REVERT JUMPDEST POP POP POP POP POP POP POP POP POP JUMP JUMPDEST PUSH1 0x0 PUSH2 0xC1A PUSH1 0x0 NOT DUP4 PUSH2 0x197F JUMP JUMPDEST PUSH1 0x0 DUP4 PUSH2 0x1299 JUMPI POP PUSH1 0x0 PUSH2 0x132A JUMP JUMPDEST PUSH1 0x0 DUP5 SLT PUSH2 0x12A6 JUMPI PUSH1 0x0 DUP1 REVERT JUMPDEST PUSH1 0x0 PUSH2 0x12B5 DUP7 PUSH2 0xFFFF AND PUSH2 0x19CD JUMP JUMPDEST SWAP1 POP PUSH2 0x12CA DUP2 PUSH2 0x12C5 DUP7 DUP9 PUSH2 0x19E0 JUMP JUMPDEST PUSH2 0x1A0C JUMP JUMPDEST SWAP2 POP PUSH1 0x0 PUSH2 0x12D7 DUP4 PUSH2 0x127C JUMP JUMPDEST SWAP1 POP PUSH2 0x12E4 DUP8 DUP4 DUP4 PUSH2 0x1A44 JUMP JUMPDEST PUSH1 0x3 DUP3 PUSH1 0x60 ADD MLOAD PUSH1 0x5 DUP2 GT ISZERO PUSH2 0x12F6 JUMPI INVALID JUMPDEST EQ ISZERO PUSH2 0x130C JUMPI PUSH2 0x1307 DUP9 DUP3 DUP7 PUSH2 0x1B32 JUMP JUMPDEST PUSH2 0x1319 JUMP JUMPDEST DUP2 MLOAD PUSH2 0x1319 SWAP1 DUP10 DUP4 PUSH2 0x1C00 JUMP JUMPDEST PUSH2 0x1326 DUP9 DUP9 DUP6 DUP6 DUP10 PUSH2 0x1C77 JUMP JUMPDEST POP POP POP JUMPDEST SWAP6 SWAP5 POP POP POP POP POP JUMP JUMPDEST PUSH1 0x0 PUSH2 0x133F DUP4 DUP4 PUSH2 0x1117 JUMP JUMPDEST SWAP1 POP PUSH1 0x0 DUP2 SLT ISZERO PUSH2 0xC1A JUMPI PUSH1 0x0 DUP1 REVERT JUMPDEST PUSH1 0x0 PUSH2 0x135A DUP3 PUSH2 0xBDB JUMP JUMPDEST SWAP1 POP PUSH1 0x0 DUP2 PUSH1 0x1 PUSH1 0x1 PUSH1 0xA0 SHL SUB AND PUSH4 0xE79BF13B PUSH1 0x40 MLOAD DUP2 PUSH4 0xFFFFFFFF AND PUSH1 0xE0 SHL DUP2 MSTORE PUSH1 0x4 ADD PUSH1 0x0 PUSH1 0x40 MLOAD DUP1 DUP4 SUB DUP2 DUP7 DUP1 EXTCODESIZE ISZERO DUP1 ISZERO PUSH2 0x1397 JUMPI PUSH1 0x0 DUP1 REVERT JUMPDEST POP GAS STATICCALL ISZERO DUP1 ISZERO PUSH2 0x13AB JUMPI RETURNDATASIZE PUSH1 0x0 DUP1 RETURNDATACOPY RETURNDATASIZE PUSH1 0x0 REVERT JUMPDEST POP POP POP POP PUSH1 0x40 MLOAD RETURNDATASIZE PUSH1 0x0 DUP3 RETURNDATACOPY PUSH1 0x1F RETURNDATASIZE SWAP1 DUP2 ADD PUSH1 0x1F NOT AND DUP3 ADD PUSH1 0x40 MSTORE PUSH2 0x13D3 SWAP2 SWAP1 DUP2 ADD SWAP1 PUSH2 0x3F2A JUMP JUMPDEST SWAP1 POP PUSH1 0x0 PUSH2 0x13E1 DUP5 DUP4 PUSH2 0x1CBE JUMP JUMPDEST SWAP1 POP PUSH1 0x0 PUSH2 0x13F0 DUP5 DUP5 DUP5 PUSH2 0x1DBF JUMP JUMPDEST SWAP1 POP PUSH1 0x0 DUP5 PUSH1 0x1 PUSH1 0x1 PUSH1 0xA0 SHL SUB AND PUSH4 0xEF81F216 PUSH1 0x40 MLOAD DUP2 PUSH4 0xFFFFFFFF AND PUSH1 0xE0 SHL DUP2 MSTORE PUSH1 0x4 ADD PUSH1 0x40 DUP1 MLOAD DUP1 DUP4 SUB DUP2 PUSH1 0x0 DUP8 DUP1 EXTCODESIZE ISZERO DUP1 ISZERO PUSH2 0x142E JUMPI PUSH1 0x0 DUP1 REVERT JUMPDEST POP GAS CALL ISZERO DUP1 ISZERO PUSH2 0x1442 JUMPI RETURNDATASIZE PUSH1 0x0 DUP1 RETURNDATACOPY RETURNDATASIZE PUSH1 0x0 REVERT JUMPDEST POP POP POP POP PUSH1 0x40 MLOAD RETURNDATASIZE PUSH1 0x1F NOT PUSH1 0x1F DUP3 ADD AND DUP3 ADD DUP1 PUSH1 0x40 MSTORE POP DUP2 ADD SWAP1 PUSH2 0x1466 SWAP2 SWAP1 PUSH2 0x4325 JUMP JUMPDEST POP SWAP1 POP PUSH1 0x0 PUSH2 0x1478 DUP8 PUSH2 0xFFFF AND PUSH2 0x19CD JUMP JUMPDEST SWAP1 POP PUSH1 0x0 PUSH2 0x148A DUP3 DUP6 PUSH1 0x0 ADD MLOAD PUSH2 0x2206 JUMP JUMPDEST POP SWAP1 POP DUP1 PUSH2 0x14A0 JUMPI PUSH2 0x14A0 DUP3 DUP6 PUSH1 0x20 ADD MLOAD PUSH2 0x241D JUMP JUMPDEST PUSH1 0x0 DUP8 PUSH1 0x1 PUSH1 0x1 PUSH1 0xA0 SHL SUB AND PUSH4 0xEF81F216 PUSH1 0x40 MLOAD DUP2 PUSH4 0xFFFFFFFF AND PUSH1 0xE0 SHL DUP2 MSTORE PUSH1 0x4 ADD PUSH1 0x40 DUP1 MLOAD DUP1 DUP4 SUB DUP2 PUSH1 0x0 DUP8 DUP1 EXTCODESIZE ISZERO DUP1 ISZERO PUSH2 0x14DC JUMPI PUSH1 0x0 DUP1 REVERT JUMPDEST POP GAS CALL ISZERO DUP1 ISZERO PUSH2 0x14F0 JUMPI RETURNDATASIZE PUSH1 0x0 DUP1 RETURNDATACOPY RETURNDATASIZE PUSH1 0x0 REVERT JUMPDEST POP POP POP POP PUSH1 0x40 MLOAD RETURNDATASIZE PUSH1 0x1F NOT PUSH1 0x1F DUP3 ADD AND DUP3 ADD DUP1 PUSH1 0x40 MSTORE POP DUP2 ADD SWAP1 PUSH2 0x1514 SWAP2 SWAP1 PUSH2 0x4325 JUMP JUMPDEST POP SWAP1 POP PUSH1 0x0 PUSH2 0x1534 PUSH2 0x1525 DUP4 PUSH2 0xCB7 JUMP JUMPDEST PUSH2 0x152E DUP8 PUSH2 0xCB7 JUMP JUMPDEST SWAP1 PUSH2 0x1117 JUMP JUMPDEST SWAP1 POP PUSH1 0x0 PUSH2 0x1561 PUSH2 0x1544 DUP8 PUSH2 0xCB7 JUMP JUMPDEST PUSH2 0x155B PUSH4 0x3B9ACA00 PUSH2 0x1555 DUP7 PUSH2 0x195E JUMP JUMPDEST SWAP1 PUSH2 0x197F JUMP JUMPDEST SWAP1 PUSH2 0x2629 JUMP JUMPDEST SWAP1 POP PUSH3 0x186A0 DUP2 SLT PUSH2 0x1572 JUMPI PUSH1 0x0 DUP1 REVERT JUMPDEST POP POP POP POP POP POP POP POP POP POP POP JUMP JUMPDEST PUSH1 0x0 DUP1 DUP3 SLT ISZERO PUSH2 0xCCD JUMPI PUSH1 0x0 DUP1 REVERT JUMPDEST PUSH1 0x0 DUP3 PUSH2 0x159D JUMPI POP PUSH1 0x0 PUSH2 0xC1A JUMP JUMPDEST DUP3 DUP3 MUL DUP3 DUP5 DUP3 DUP2 PUSH2 0x15AA JUMPI INVALID JUMPDEST DIV EQ PUSH2 0xC32 JUMPI PUSH1 0x0 DUP1 REVERT JUMPDEST PUSH1 0x0 DUP1 DUP3 GT PUSH2 0x15C3 JUMPI PUSH1 0x0 DUP1 REVERT JUMPDEST DUP2 DUP4 DUP2 PUSH2 0x15CC JUMPI INVALID JUMPDEST DIV SWAP4 SWAP3 POP POP POP JUMP JUMPDEST PUSH1 0x0 PUSH1 0x1 PUSH1 0x1 PUSH1 0x80 SHL SUB DUP3 GT ISZERO PUSH2 0xCCD JUMPI PUSH1 0x0 DUP1 REVERT JUMPDEST PUSH1 0x0 PUSH2 0x15F4 PUSH2 0x100D JUMP JUMPDEST SWAP1 POP PUSH2 0x15FF TIMESTAMP PUSH2 0x265A JUMP JUMPDEST PUSH2 0xFFFF SWAP4 SWAP1 SWAP4 AND PUSH1 0x0 SWAP1 DUP2 MSTORE PUSH1 0x20 SWAP2 SWAP1 SWAP2 MSTORE PUSH1 0x40 SWAP1 KECCAK256 DUP1 SLOAD PUSH5 0xFFFFFFFFFF PUSH1 0xA8 SHL NOT AND PUSH1 0x1 PUSH1 0xA8 SHL PUSH5 0xFFFFFFFFFF SWAP1 SWAP5 AND SWAP4 SWAP1 SWAP4 MUL SWAP3 SWAP1 SWAP3 OR PUSH16 0xFFFFFFFFFFFFFFFFFFFFFFFFFFFFFFFF NOT AND PUSH1 0x1 PUSH1 0x1 PUSH1 0x80 SHL SUB SWAP2 SWAP1 SWAP2 AND OR SWAP1 SSTORE JUMP JUMPDEST PUSH1 0x0 PUSH2 0x1666 PUSH2 0x266E JUMP JUMPDEST SWAP1 POP PUSH2 0x1671 DUP3 PUSH2 0x267B JUMP JUMPDEST PUSH2 0xFFFF SWAP1 SWAP4 AND PUSH1 0x0 SWAP1 DUP2 MSTORE PUSH1 0x20 SWAP2 SWAP1 SWAP2 MSTORE PUSH1 0x40 SWAP1 KECCAK256 DUP1 SLOAD PUSH4 0xFFFFFFFF SWAP4 SWAP1 SWAP4 AND PUSH1 0x1 PUSH1 0xD8 SHL MUL PUSH4 0xFFFFFFFF PUSH1 0xD8 SHL NOT SWAP1 SWAP4 AND SWAP3 SWAP1 SWAP3 OR SWAP1 SWAP2 SSTORE POP JUMP JUMPDEST PUSH1 0x0 DUP1 PUSH2 0xC1A PUSH1 0x3 PUSH2 0x108A JUMP JUMPDEST PUSH1 0x0 DUP1 PUSH1 0x0 PUSH2 0x16C9 DUP7 DUP6 PUSH2 0x268E JUMP JUMPDEST POP SWAP2 POP SWAP2 POP PUSH1 0x0 PUSH2 0x16D8 PUSH2 0x2724 JUMP JUMPDEST PUSH1 0x1 PUSH1 0x1 PUSH1 0xA0 SHL SUB DUP9 AND PUSH1 0x0 SWAP1 DUP2 MSTORE PUSH1 0x20 DUP3 SWAP1 MSTORE PUSH1 0x40 DUP2 KECCAK256 SWAP2 SWAP3 POP PUSH2 0x16FD DUP6 DUP10 PUSH2 0x2731 JUMP JUMPDEST SWAP1 POP DUP1 PUSH1 0x0 SGT ISZERO DUP1 ISZERO PUSH2 0x1716 JUMPI POP PUSH1 0x1 PUSH1 0x1 PUSH1 0x60 SHL SUB DUP2 LT JUMPDEST PUSH2 0x171F JUMPI PUSH1 0x0 DUP1 REVERT JUMPDEST DUP2 SLOAD PUSH12 0xFFFFFFFFFFFFFFFFFFFFFFFF NOT AND PUSH1 0x1 PUSH1 0x1 PUSH1 0x60 SHL SUB DUP3 AND OR PUSH16 0xFFFFFFFFFFFFFFFFFFFFFFFFFFFFFFFF PUSH1 0x60 SHL NOT AND PUSH1 0x1 PUSH1 0x60 SHL PUSH1 0x1 PUSH1 0x1 PUSH1 0x80 SHL SUB DUP7 AND MUL OR DUP3 SSTORE PUSH4 0xFFFFFFFF DUP8 LT PUSH2 0x1774 JUMPI PUSH1 0x0 DUP1 REVERT JUMPDEST POP DUP1 SLOAD PUSH1 0x1 PUSH1 0x1 PUSH1 0xE0 SHL SUB AND PUSH1 0x1 PUSH1 0xE0 SHL PUSH4 0xFFFFFFFF DUP9 AND MUL OR SWAP1 SSTORE POP SWAP2 POP POP SWAP4 SWAP3 POP POP POP JUMP JUMPDEST PUSH1 0x0 DUP1 PUSH2 0xC1A PUSH1 0x2 PUSH2 0x108A JUMP JUMPDEST PUSH1 0x0 PUSH2 0x17FD DUP3 PUSH1 0x40 MLOAD DUP1 PUSH1 0x40 ADD PUSH1 0x40 MSTORE DUP1 PUSH1 0x20 DUP2 MSTORE PUSH1 0x20 ADD PUSH32 0x5361666545524332303A206C6F772D6C6576656C2063616C6C206661696C6564 DUP2 MSTORE POP DUP6 PUSH1 0x1 PUSH1 0x1 PUSH1 0xA0 SHL SUB AND PUSH2 0x2747 SWAP1 SWAP3 SWAP2 SWAP1 PUSH4 0xFFFFFFFF AND JUMP JUMPDEST DUP1 MLOAD SWAP1 SWAP2 POP ISZERO PUSH2 0x758 JUMPI DUP1 DUP1 PUSH1 0x20 ADD SWAP1 MLOAD PUSH1 0x20 DUP2 LT ISZERO PUSH2 0x181C JUMPI PUSH1 0x0 DUP1 REVERT JUMPDEST POP MLOAD PUSH2 0x758 JUMPI PUSH1 0x40 MLOAD PUSH3 0x461BCD PUSH1 0xE5 SHL DUP2 MSTORE PUSH1 0x4 ADD DUP1 DUP1 PUSH1 0x20 ADD DUP3 DUP2 SUB DUP3 MSTORE PUSH1 0x2A DUP2 MSTORE PUSH1 0x20 ADD DUP1 PUSH2 0x4738 PUSH1 0x2A SWAP2 CODECOPY PUSH1 0x40 ADD SWAP2 POP POP PUSH1 0x40 MLOAD DUP1 SWAP2 SUB SWAP1 REVERT JUMPDEST PUSH1 0x0 PUSH11 0x7FFFFFFFFFFFFFFFFFFFFF NOT DUP3 SLT DUP1 ISZERO SWAP1 PUSH2 0x1882 JUMPI POP PUSH11 0x7FFFFFFFFFFFFFFFFFFFFF DUP3 SGT ISZERO JUMPDEST PUSH2 0xCCD JUMPI PUSH1 0x0 DUP1 REVERT JUMPDEST PUSH1 0x0 DUP1 PUSH2 0xC1A PUSH1 0x21 PUSH2 0x108A JUMP JUMPDEST PUSH2 0x18A0 PUSH2 0x3B9E JUMP JUMPDEST PUSH1 0x0 PUSH2 0x18AB DUP5 PUSH2 0x2756 JUMP JUMPDEST SWAP1 POP DUP3 DUP2 PUSH1 0x0 ADD MLOAD LT ISZERO PUSH2 0x18EA JUMPI PUSH1 0x0 DUP1 PUSH2 0x18C5 DUP7 PUSH2 0x281E JUMP JUMPDEST SWAP1 POP PUSH2 0x18D3 DUP7 DUP5 DUP4 DUP9 PUSH2 0x289B JUMP JUMPDEST SWAP1 SWAP4 POP SWAP2 POP PUSH2 0x18E3 DUP7 DUP4 DUP6 PUSH2 0x293F JUMP JUMPDEST POP POP PUSH2 0x18F7 JUMP JUMPDEST DUP1 MLOAD DUP4 EQ PUSH2 0x18F7 JUMPI PUSH1 0x0 DUP1 REVERT JUMPDEST PUSH1 0x40 MLOAD DUP1 PUSH1 0x60 ADD PUSH1 0x40 MSTORE DUP1 PUSH2 0x1925 PUSH2 0x1920 DUP5 PUSH1 0xA0 ADD MLOAD DUP6 PUSH1 0xC0 ADD MLOAD PUSH2 0x158E SWAP1 SWAP2 SWAP1 PUSH4 0xFFFFFFFF AND JUMP JUMPDEST PUSH2 0xCB7 JUMP JUMPDEST DUP2 MSTORE PUSH1 0x20 ADD PUSH2 0x1948 PUSH2 0x1920 DUP5 PUSH1 0xA0 ADD MLOAD DUP6 PUSH1 0xE0 ADD MLOAD PUSH2 0x158E SWAP1 SWAP2 SWAP1 PUSH4 0xFFFFFFFF AND JUMP JUMPDEST DUP2 MSTORE PUSH1 0x20 ADD DUP3 PUSH1 0x60 ADD MLOAD DUP2 MSTORE POP SWAP2 POP POP SWAP3 SWAP2 POP POP JUMP JUMPDEST PUSH1 0x0 DUP1 DUP3 SLT ISZERO PUSH2 0x1978 JUMPI PUSH2 0x1971 DUP3 PUSH2 0x127C JUMP JUMPDEST SWAP1 POP PUSH2 0xC08 JUMP JUMPDEST POP DUP1 PUSH2 0xC08 JUMP JUMPDEST DUP2 DUP2 MUL PUSH1 0x0 NOT DUP4 EQ ISZERO PUSH2 0x19AF JUMPI DUP2 ISZERO DUP1 PUSH2 0x19A1 JUMPI POP DUP3 DUP3 DUP3 DUP2 PUSH2 0x199E JUMPI INVALID JUMPDEST SDIV EQ JUMPDEST PUSH2 0x19AA JUMPI PUSH1 0x0 DUP1 REVERT JUMPDEST PUSH2 0xC1A JUMP JUMPDEST DUP3 ISZERO DUP1 PUSH2 0x19C4 JUMPI POP DUP2 DUP4 DUP3 DUP2 PUSH2 0x19C1 JUMPI INVALID JUMPDEST SDIV EQ JUMPDEST PUSH2 0xC1A JUMPI PUSH1 0x0 DUP1 REVERT JUMPDEST PUSH2 0x19D5 PUSH2 0x3BBF JUMP JUMPDEST PUSH2 0xC1A DUP3 PUSH1 0x1 PUSH2 0x2B73 JUMP JUMPDEST PUSH1 0x0 PUSH2 0xC32 PUSH15 0xC097CE7BC90715B34B9F1000000000 PUSH2 0x155B DUP6 PUSH1 0x0 ADD MLOAD DUP6 PUSH2 0x197F SWAP1 SWAP2 SWAP1 PUSH4 0xFFFFFFFF AND JUMP JUMPDEST PUSH1 0x0 PUSH4 0x5F5E100 DUP4 PUSH1 0x40 ADD MLOAD EQ ISZERO PUSH2 0x1A25 JUMPI POP DUP1 PUSH2 0xC1A JUMP JUMPDEST PUSH2 0xC32 PUSH4 0x5F5E100 PUSH2 0x155B DUP6 PUSH1 0x40 ADD MLOAD DUP6 PUSH2 0x197F SWAP1 SWAP2 SWAP1 PUSH4 0xFFFFFFFF AND JUMP JUMPDEST PUSH1 0x0 PUSH2 0x1A4E PUSH2 0x2C0D JUMP JUMPDEST DUP4 MLOAD PUSH1 0x1 PUSH1 0x1 PUSH1 0xA0 SHL SUB AND PUSH1 0x0 SWAP1 DUP2 MSTORE PUSH1 0x20 DUP3 SWAP1 MSTORE PUSH1 0x40 SWAP1 KECCAK256 SLOAD SWAP1 SWAP2 POP DUP1 DUP4 GT PUSH2 0x1A79 JUMPI POP POP PUSH2 0x758 JUMP JUMPDEST PUSH1 0x0 PUSH2 0x1A84 DUP7 PUSH2 0xBDB JUMP JUMPDEST SWAP1 POP PUSH1 0x0 DUP2 PUSH1 0x1 PUSH1 0x1 PUSH1 0xA0 SHL SUB AND PUSH4 0xB5E4DA23 DUP5 DUP8 SUB PUSH1 0x40 MLOAD DUP3 PUSH4 0xFFFFFFFF AND PUSH1 0xE0 SHL DUP2 MSTORE PUSH1 0x4 ADD PUSH2 0x1AB6 SWAP2 SWAP1 PUSH2 0x44BC JUMP JUMPDEST PUSH1 0x0 PUSH1 0x40 MLOAD DUP1 DUP4 SUB DUP2 DUP7 DUP1 EXTCODESIZE ISZERO DUP1 ISZERO PUSH2 0x1ACE JUMPI PUSH1 0x0 DUP1 REVERT JUMPDEST POP GAS STATICCALL ISZERO DUP1 ISZERO PUSH2 0x1AE2 JUMPI RETURNDATASIZE PUSH1 0x0 DUP1 RETURNDATACOPY RETURNDATASIZE PUSH1 0x0 REVERT JUMPDEST POP POP POP POP PUSH1 0x40 MLOAD RETURNDATASIZE PUSH1 0x0 DUP3 RETURNDATACOPY PUSH1 0x1F RETURNDATASIZE SWAP1 DUP2 ADD PUSH1 0x1F NOT AND DUP3 ADD PUSH1 0x40 MSTORE PUSH2 0x1B0A SWAP2 SWAP1 DUP2 ADD SWAP1 PUSH2 0x4081 JUMP JUMPDEST SWAP1 POP PUSH1 0x0 PUSH2 0x1B18 DUP8 DUP4 PUSH2 0x2206 JUMP JUMPDEST SWAP2 POP PUSH2 0x1B26 SWAP1 POP DUP5 DUP3 PUSH2 0xC20 JUMP JUMPDEST DUP7 GT ISZERO PUSH2 0x11AD JUMPI PUSH1 0x0 DUP1 REVERT JUMPDEST DUP1 ISZERO PUSH2 0x1BC4 JUMPI PUSH20 0x4B9C40DF01BDC99DD2C31AE4B232F20F4BBAC5B PUSH1 0x1 PUSH1 0x1 PUSH1 0xA0 SHL SUB AND PUSH4 0xD0E30DB0 DUP4 PUSH1 0x40 MLOAD DUP3 PUSH4 0xFFFFFFFF AND PUSH1 0xE0 SHL DUP2 MSTORE PUSH1 0x4 ADD PUSH1 0x0 PUSH1 0x40 MLOAD DUP1 DUP4 SUB DUP2 DUP6 DUP9 DUP1 EXTCODESIZE ISZERO DUP1 ISZERO PUSH2 0x1B87 JUMPI PUSH1 0x0 DUP1 REVERT JUMPDEST POP GAS CALL ISZERO DUP1 ISZERO PUSH2 0x1B9B JUMPI RETURNDATASIZE PUSH1 0x0 DUP1 RETURNDATACOPY RETURNDATASIZE PUSH1 0x0 REVERT JUMPDEST POP POP POP POP POP PUSH2 0x1BBF PUSH20 0x4B9C40DF01BDC99DD2C31AE4B232F20F4BBAC5B DUP5 DUP5 PUSH2 0x1C00 JUMP JUMPDEST PUSH2 0x758 JUMP JUMPDEST PUSH1 0x40 MLOAD PUSH1 0x1 PUSH1 0x1 PUSH1 0xA0 SHL SUB DUP5 AND SWAP1 DUP4 ISZERO PUSH2 0x8FC MUL SWAP1 DUP5 SWAP1 PUSH1 0x0 DUP2 DUP2 DUP2 DUP6 DUP9 DUP9 CALL SWAP4 POP POP POP POP ISZERO DUP1 ISZERO PUSH2 0x1BFA JUMPI RETURNDATASIZE PUSH1 0x0 DUP1 RETURNDATACOPY RETURNDATASIZE PUSH1 0x0 REVERT JUMPDEST POP POP POP POP JUMP JUMPDEST DUP3 PUSH1 0x1 PUSH1 0x1 PUSH1 0xA0 SHL SUB AND PUSH4 0xA9059CBB DUP4 DUP4 PUSH1 0x40 MLOAD DUP4 PUSH4 0xFFFFFFFF AND PUSH1 0xE0 SHL DUP2 MSTORE PUSH1 0x4 ADD DUP1 DUP4 PUSH1 0x1 PUSH1 0x1 PUSH1 0xA0 SHL SUB AND DUP2 MSTORE PUSH1 0x20 ADD DUP3 DUP2 MSTORE PUSH1 0x20 ADD SWAP3 POP POP POP PUSH1 0x0 PUSH1 0x40 MLOAD DUP1 DUP4 SUB DUP2 PUSH1 0x0 DUP8 DUP1 EXTCODESIZE ISZERO DUP1 ISZERO PUSH2 0x1C57 JUMPI PUSH1 0x0 DUP1 REVERT JUMPDEST POP GAS CALL ISZERO DUP1 ISZERO PUSH2 0x1C6B JUMPI RETURNDATASIZE PUSH1 0x0 DUP1 RETURNDATACOPY RETURNDATASIZE PUSH1 0x0 REVERT JUMPDEST POP POP POP POP PUSH2 0x758 PUSH2 0x2C1A JUMP JUMPDEST PUSH1 0x0 DUP1 PUSH2 0x1C84 DUP5 DUP7 PUSH2 0x2C87 JUMP JUMPDEST SWAP1 POP PUSH2 0x1C90 DUP4 DUP3 PUSH2 0x2CB7 JUMP JUMPDEST SWAP2 POP PUSH2 0x1C9D DUP8 DUP8 DUP5 PUSH2 0x112D JUMP JUMPDEST PUSH2 0x1CA8 DUP7 DUP4 DUP4 PUSH2 0x2CD9 JUMP JUMPDEST DUP4 MLOAD PUSH2 0x1CB4 SWAP1 DUP7 PUSH2 0x2DE5 JUMP JUMPDEST POP SWAP6 SWAP5 POP POP POP POP POP JUMP JUMPDEST PUSH1 0x60 PUSH1 0x0 PUSH2 0x1CCA PUSH2 0xC0D JUMP JUMPDEST PUSH2 0xFFFF DUP6 AND PUSH1 0x0 SWAP1 DUP2 MSTORE PUSH1 0x20 SWAP2 SWAP1 SWAP2 MSTORE PUSH1 0x40 SWAP1 KECCAK256 DUP4 MLOAD SWAP1 SWAP2 POP PUSH1 0x1 PUSH1 0x1 PUSH1 0x40 SHL SUB DUP2 GT DUP1 ISZERO PUSH2 0x1CF8 JUMPI PUSH1 0x0 DUP1 REVERT JUMPDEST POP PUSH1 0x40 MLOAD SWAP1 DUP1 DUP3 MSTORE DUP1 PUSH1 0x20 MUL PUSH1 0x20 ADD DUP3 ADD PUSH1 0x40 MSTORE DUP1 ISZERO PUSH2 0x1D22 JUMPI DUP2 PUSH1 0x20 ADD PUSH1 0x20 DUP3 MUL DUP1 CALLDATASIZE DUP4 CALLDATACOPY ADD SWAP1 POP JUMPDEST POP SWAP2 POP PUSH1 0x0 DUP1 JUMPDEST DUP5 MLOAD DUP2 LT ISZERO PUSH2 0x1DB0 JUMPI PUSH1 0x0 DUP4 PUSH1 0x0 DUP8 DUP5 DUP2 MLOAD DUP2 LT PUSH2 0x1D43 JUMPI INVALID JUMPDEST PUSH1 0x20 MUL PUSH1 0x20 ADD ADD MLOAD PUSH1 0x1 PUSH1 0x1 PUSH1 0xA0 SHL SUB AND PUSH1 0x1 PUSH1 0x1 PUSH1 0xA0 SHL SUB AND DUP2 MSTORE PUSH1 0x20 ADD SWAP1 DUP2 MSTORE PUSH1 0x20 ADD PUSH1 0x0 KECCAK256 PUSH1 0x0 SWAP1 SLOAD SWAP1 PUSH2 0x100 EXP SWAP1 DIV PUSH1 0xFF AND SWAP1 POP DUP1 DUP6 DUP4 DUP2 MLOAD DUP2 LT PUSH2 0x1D88 JUMPI INVALID JUMPDEST PUSH1 0xFF SWAP3 DUP4 AND PUSH1 0x20 SWAP2 DUP3 MUL SWAP3 SWAP1 SWAP3 ADD ADD MSTORE PUSH2 0x1DA5 SWAP1 DUP5 SWAP1 DUP4 AND PUSH2 0xC20 JUMP JUMPDEST SWAP3 POP POP PUSH1 0x1 ADD PUSH2 0x1D29 JUMP JUMPDEST POP PUSH1 0x64 DUP2 GT ISZERO PUSH2 0xD22 JUMPI PUSH1 0x0 DUP1 REVERT JUMPDEST PUSH2 0x1DC7 PUSH2 0x3BEE JUMP JUMPDEST PUSH1 0x0 DUP5 PUSH1 0x1 PUSH1 0x1 PUSH1 0xA0 SHL SUB AND PUSH4 0x395C46BA PUSH1 0x40 MLOAD DUP2 PUSH4 0xFFFFFFFF AND PUSH1 0xE0 SHL DUP2 MSTORE PUSH1 0x4 ADD PUSH1 0x0 PUSH1 0x40 MLOAD DUP1 DUP4 SUB DUP2 DUP7 DUP1 EXTCODESIZE ISZERO DUP1 ISZERO PUSH2 0x1E02 JUMPI PUSH1 0x0 DUP1 REVERT JUMPDEST POP GAS STATICCALL ISZERO DUP1 ISZERO PUSH2 0x1E16 JUMPI RETURNDATASIZE PUSH1 0x0 DUP1 RETURNDATACOPY RETURNDATASIZE PUSH1 0x0 REVERT JUMPDEST POP POP POP POP PUSH1 0x40 MLOAD RETURNDATASIZE PUSH1 0x0 DUP3 RETURNDATACOPY PUSH1 0x1F RETURNDATASIZE SWAP1 DUP2 ADD PUSH1 0x1F NOT AND DUP3 ADD PUSH1 0x40 MSTORE PUSH2 0x1E3E SWAP2 SWAP1 DUP2 ADD SWAP1 PUSH2 0x41A6 JUMP JUMPDEST SWAP1 POP PUSH1 0x0 DUP6 PUSH1 0x1 PUSH1 0x1 PUSH1 0xA0 SHL SUB AND PUSH4 0xA77C05B8 PUSH1 0x40 MLOAD DUP2 PUSH4 0xFFFFFFFF AND PUSH1 0xE0 SHL DUP2 MSTORE PUSH1 0x4 ADD PUSH1 0x40 DUP1 MLOAD DUP1 DUP4 SUB DUP2 DUP7 DUP1 EXTCODESIZE ISZERO DUP1 ISZERO PUSH2 0x1E7A JUMPI PUSH1 0x0 DUP1 REVERT JUMPDEST POP GAS STATICCALL ISZERO DUP1 ISZERO PUSH2 0x1E8E JUMPI RETURNDATASIZE PUSH1 0x0 DUP1 RETURNDATACOPY RETURNDATASIZE PUSH1 0x0 REVERT JUMPDEST POP POP POP POP PUSH1 0x40 MLOAD RETURNDATASIZE PUSH1 0x1F NOT PUSH1 0x1F DUP3 ADD AND DUP3 ADD DUP1 PUSH1 0x40 MSTORE POP DUP2 ADD SWAP1 PUSH2 0x1EB2 SWAP2 SWAP1 PUSH2 0x4325 JUMP JUMPDEST POP SWAP1 POP PUSH1 0x0 DUP6 MLOAD PUSH1 0x1 PUSH1 0x1 PUSH1 0x40 SHL SUB DUP2 GT DUP1 ISZERO PUSH2 0x1ECE JUMPI PUSH1 0x0 DUP1 REVERT JUMPDEST POP PUSH1 0x40 MLOAD SWAP1 DUP1 DUP3 MSTORE DUP1 PUSH1 0x20 MUL PUSH1 0x20 ADD DUP3 ADD PUSH1 0x40 MSTORE DUP1 ISZERO PUSH2 0x1EF8 JUMPI DUP2 PUSH1 0x20 ADD PUSH1 0x20 DUP3 MUL DUP1 CALLDATASIZE DUP4 CALLDATACOPY ADD SWAP1 POP JUMPDEST POP SWAP1 POP PUSH1 0x0 DUP7 MLOAD PUSH1 0x1 PUSH1 0x1 PUSH1 0x40 SHL SUB DUP2 GT DUP1 ISZERO PUSH2 0x1F14 JUMPI PUSH1 0x0 DUP1 REVERT JUMPDEST POP PUSH1 0x40 MLOAD SWAP1 DUP1 DUP3 MSTORE DUP1 PUSH1 0x20 MUL PUSH1 0x20 ADD DUP3 ADD PUSH1 0x40 MSTORE DUP1 ISZERO PUSH2 0x1F3E JUMPI DUP2 PUSH1 0x20 ADD PUSH1 0x20 DUP3 MUL DUP1 CALLDATASIZE DUP4 CALLDATACOPY ADD SWAP1 POP JUMPDEST POP SWAP1 POP PUSH1 0x0 DUP8 MLOAD PUSH1 0x1 PUSH1 0x1 PUSH1 0x40 SHL SUB DUP2 GT DUP1 ISZERO PUSH2 0x1F5A JUMPI PUSH1 0x0 DUP1 REVERT JUMPDEST POP PUSH1 0x40 MLOAD SWAP1 DUP1 DUP3 MSTORE DUP1 PUSH1 0x20 MUL PUSH1 0x20 ADD DUP3 ADD PUSH1 0x40 MSTORE DUP1 ISZERO PUSH2 0x1F84 JUMPI DUP2 PUSH1 0x20 ADD PUSH1 0x20 DUP3 MUL DUP1 CALLDATASIZE DUP4 CALLDATACOPY ADD SWAP1 POP JUMPDEST POP SWAP1 POP PUSH1 0x0 DUP9 MLOAD PUSH1 0x1 PUSH1 0x1 PUSH1 0x40 SHL SUB DUP2 GT DUP1 ISZERO PUSH2 0x1FA0 JUMPI PUSH1 0x0 DUP1 REVERT JUMPDEST POP PUSH1 0x40 MLOAD SWAP1 DUP1 DUP3 MSTORE DUP1 PUSH1 0x20 MUL PUSH1 0x20 ADD DUP3 ADD PUSH1 0x40 MSTORE DUP1 ISZERO PUSH2 0x1FCA JUMPI DUP2 PUSH1 0x20 ADD PUSH1 0x20 DUP3 MUL DUP1 CALLDATASIZE DUP4 CALLDATACOPY ADD SWAP1 POP JUMPDEST POP SWAP1 POP PUSH1 0x0 JUMPDEST DUP10 MLOAD DUP2 LT ISZERO PUSH2 0x20EC JUMPI PUSH1 0x0 DUP11 DUP3 DUP2 MLOAD DUP2 LT PUSH2 0x1FE7 JUMPI INVALID JUMPDEST PUSH1 0x20 MUL PUSH1 0x20 ADD ADD MLOAD SWAP1 POP PUSH1 0x0 PUSH2 0x2021 PUSH1 0x64 PUSH2 0xEF2 DUP14 DUP7 DUP2 MLOAD DUP2 LT PUSH2 0x2007 JUMPI INVALID JUMPDEST PUSH1 0x20 MUL PUSH1 0x20 ADD ADD MLOAD PUSH1 0xFF AND DUP12 PUSH2 0x158E SWAP1 SWAP2 SWAP1 PUSH4 0xFFFFFFFF AND JUMP JUMPDEST SWAP1 POP PUSH1 0x0 DUP10 DUP5 DUP2 MLOAD DUP2 LT PUSH2 0x2031 JUMPI INVALID JUMPDEST PUSH1 0x20 MUL PUSH1 0x20 ADD ADD MLOAD SWAP1 POP DUP3 DUP9 DUP6 DUP2 MLOAD DUP2 LT PUSH2 0x2048 JUMPI INVALID JUMPDEST PUSH1 0x20 MUL PUSH1 0x20 ADD ADD SWAP1 PUSH1 0x1 PUSH1 0x1 PUSH1 0xA0 SHL SUB AND SWAP1 DUP2 PUSH1 0x1 PUSH1 0x1 PUSH1 0xA0 SHL SUB AND DUP2 MSTORE POP POP DUP3 DUP7 DUP6 DUP2 MLOAD DUP2 LT PUSH2 0x2075 JUMPI INVALID JUMPDEST PUSH1 0x20 MUL PUSH1 0x20 ADD ADD SWAP1 PUSH1 0x1 PUSH1 0x1 PUSH1 0xA0 SHL SUB AND SWAP1 DUP2 PUSH1 0x1 PUSH1 0x1 PUSH1 0xA0 SHL SUB AND DUP2 MSTORE POP POP DUP1 DUP3 LT ISZERO PUSH2 0x20BD JUMPI DUP2 DUP2 SUB DUP8 DUP6 DUP2 MLOAD DUP2 LT PUSH2 0x20AC JUMPI INVALID JUMPDEST PUSH1 0x20 MUL PUSH1 0x20 ADD ADD DUP2 DUP2 MSTORE POP POP PUSH2 0x20E1 JUMP JUMPDEST DUP2 DUP2 LT ISZERO PUSH2 0x20E1 JUMPI DUP1 DUP3 SUB DUP6 DUP6 DUP2 MLOAD DUP2 LT PUSH2 0x20D4 JUMPI INVALID JUMPDEST PUSH1 0x20 MUL PUSH1 0x20 ADD ADD DUP2 DUP2 MSTORE POP POP JUMPDEST POP POP POP PUSH1 0x1 ADD PUSH2 0x1FD0 JUMP JUMPDEST POP PUSH1 0x40 MLOAD PUSH4 0x871ADE43 PUSH1 0xE0 SHL DUP2 MSTORE PUSH1 0x1 PUSH1 0x1 PUSH1 0xA0 SHL SUB DUP12 AND SWAP1 PUSH4 0x871ADE43 SWAP1 PUSH2 0x211B SWAP1 DUP8 SWAP1 DUP8 SWAP1 PUSH1 0x4 ADD PUSH2 0x4449 JUMP JUMPDEST PUSH1 0x0 PUSH1 0x40 MLOAD DUP1 DUP4 SUB DUP2 DUP7 DUP1 EXTCODESIZE ISZERO DUP1 ISZERO PUSH2 0x2133 JUMPI PUSH1 0x0 DUP1 REVERT JUMPDEST POP GAS STATICCALL ISZERO DUP1 ISZERO PUSH2 0x2147 JUMPI RETURNDATASIZE PUSH1 0x0 DUP1 RETURNDATACOPY RETURNDATASIZE PUSH1 0x0 REVERT JUMPDEST POP POP POP POP PUSH1 0x40 MLOAD RETURNDATASIZE PUSH1 0x0 DUP3 RETURNDATACOPY PUSH1 0x1F RETURNDATASIZE SWAP1 DUP2 ADD PUSH1 0x1F NOT AND DUP3 ADD PUSH1 0x40 MSTORE PUSH2 0x216F SWAP2 SWAP1 DUP2 ADD SWAP1 PUSH2 0x4081 JUMP JUMPDEST DUP8 MSTORE PUSH1 0x40 MLOAD PUSH4 0x76CF13AF PUSH1 0xE0 SHL DUP2 MSTORE PUSH1 0x1 PUSH1 0x1 PUSH1 0xA0 SHL SUB DUP12 AND SWAP1 PUSH4 0x76CF13AF SWAP1 PUSH2 0x219F SWAP1 DUP6 SWAP1 DUP6 SWAP1 PUSH1 0x4 ADD PUSH2 0x4449 JUMP JUMPDEST PUSH1 0x0 PUSH1 0x40 MLOAD DUP1 DUP4 SUB DUP2 DUP7 DUP1 EXTCODESIZE ISZERO DUP1 ISZERO PUSH2 0x21B7 JUMPI PUSH1 0x0 DUP1 REVERT JUMPDEST POP GAS STATICCALL ISZERO DUP1 ISZERO PUSH2 0x21CB JUMPI RETURNDATASIZE PUSH1 0x0 DUP1 RETURNDATACOPY RETURNDATASIZE PUSH1 0x0 REVERT JUMPDEST POP POP POP POP PUSH1 0x40 MLOAD RETURNDATASIZE PUSH1 0x0 DUP3 RETURNDATACOPY PUSH1 0x1F RETURNDATASIZE SWAP1 DUP2 ADD PUSH1 0x1F NOT AND DUP3 ADD PUSH1 0x40 MSTORE PUSH2 0x21F3 SWAP2 SWAP1 DUP2 ADD SWAP1 PUSH2 0x3F5C JUMP JUMPDEST PUSH1 0x20 DUP9 ADD MSTORE POP SWAP5 SWAP9 SWAP8 POP POP POP POP POP POP POP POP JUMP JUMPDEST PUSH1 0x0 DUP1 PUSH1 0x0 JUMPDEST DUP4 MLOAD DUP2 LT ISZERO PUSH2 0x2415 JUMPI PUSH1 0x0 DUP5 DUP3 DUP2 MLOAD DUP2 LT PUSH2 0x2223 JUMPI INVALID JUMPDEST PUSH1 0x20 MUL PUSH1 0x20 ADD ADD MLOAD SWAP1 POP PUSH1 0x0 DUP2 PUSH1 0x60 ADD MLOAD PUSH1 0x1 PUSH1 0x1 PUSH1 0xA0 SHL SUB AND PUSH4 0x70A08231 ADDRESS PUSH1 0x40 MLOAD DUP3 PUSH4 0xFFFFFFFF AND PUSH1 0xE0 SHL DUP2 MSTORE PUSH1 0x4 ADD PUSH2 0x225F SWAP2 SWAP1 PUSH2 0x439C JUMP JUMPDEST PUSH1 0x20 PUSH1 0x40 MLOAD DUP1 DUP4 SUB DUP2 DUP7 DUP1 EXTCODESIZE ISZERO DUP1 ISZERO PUSH2 0x2277 JUMPI PUSH1 0x0 DUP1 REVERT JUMPDEST POP GAS STATICCALL ISZERO DUP1 ISZERO PUSH2 0x228B JUMPI RETURNDATASIZE PUSH1 0x0 DUP1 RETURNDATACOPY RETURNDATASIZE PUSH1 0x0 REVERT JUMPDEST POP POP POP POP PUSH1 0x40 MLOAD RETURNDATASIZE PUSH1 0x1F NOT PUSH1 0x1F DUP3 ADD AND DUP3 ADD DUP1 PUSH1 0x40 MSTORE POP DUP2 ADD SWAP1 PUSH2 0x22AF SWAP2 SWAP1 PUSH2 0x430D JUMP JUMPDEST SWAP1 POP PUSH1 0x0 PUSH2 0x22BD DUP9 ADDRESS PUSH2 0x2E3F JUMP JUMPDEST SWAP1 POP PUSH1 0x0 JUMPDEST DUP4 MLOAD MLOAD DUP2 LT ISZERO PUSH2 0x2319 JUMPI PUSH2 0x2308 DUP5 PUSH1 0x0 ADD MLOAD DUP3 DUP2 MLOAD DUP2 LT PUSH2 0x22DF JUMPI INVALID JUMPDEST PUSH1 0x20 MUL PUSH1 0x20 ADD ADD MLOAD PUSH1 0x0 DUP7 PUSH1 0x20 ADD MLOAD DUP5 DUP2 MLOAD DUP2 LT PUSH2 0x22F9 JUMPI INVALID JUMPDEST PUSH1 0x20 MUL PUSH1 0x20 ADD ADD MLOAD PUSH1 0x1 PUSH2 0x2EF0 JUMP JUMPDEST PUSH2 0x2311 JUMPI PUSH1 0x1 SWAP7 POP JUMPDEST PUSH1 0x1 ADD PUSH2 0x22C2 JUMP JUMPDEST POP PUSH1 0x0 PUSH2 0x2326 DUP10 ADDRESS PUSH2 0x2E3F JUMP JUMPDEST SWAP1 POP PUSH1 0x0 PUSH2 0x2334 DUP3 DUP5 PUSH2 0x101A JUMP JUMPDEST SWAP1 POP DUP1 DUP6 PUSH1 0x40 ADD MLOAD GT ISZERO PUSH2 0x2347 JUMPI PUSH1 0x0 DUP1 REVERT JUMPDEST PUSH1 0x60 DUP6 ADD MLOAD PUSH1 0x40 MLOAD PUSH4 0x70A08231 PUSH1 0xE0 SHL DUP2 MSTORE PUSH1 0x0 SWAP2 PUSH1 0x1 PUSH1 0x1 PUSH1 0xA0 SHL SUB AND SWAP1 PUSH4 0x70A08231 SWAP1 PUSH2 0x237A SWAP1 ADDRESS SWAP1 PUSH1 0x4 ADD PUSH2 0x439C JUMP JUMPDEST PUSH1 0x20 PUSH1 0x40 MLOAD DUP1 DUP4 SUB DUP2 DUP7 DUP1 EXTCODESIZE ISZERO DUP1 ISZERO PUSH2 0x2392 JUMPI PUSH1 0x0 DUP1 REVERT JUMPDEST POP GAS STATICCALL ISZERO DUP1 ISZERO PUSH2 0x23A6 JUMPI RETURNDATASIZE PUSH1 0x0 DUP1 RETURNDATACOPY RETURNDATASIZE PUSH1 0x0 REVERT JUMPDEST POP POP POP POP PUSH1 0x40 MLOAD RETURNDATASIZE PUSH1 0x1F NOT PUSH1 0x1F DUP3 ADD AND DUP3 ADD DUP1 PUSH1 0x40 MSTORE POP DUP2 ADD SWAP1 PUSH2 0x23CA SWAP2 SWAP1 PUSH2 0x430D JUMP JUMPDEST SWAP1 POP DUP5 DUP2 GT ISZERO PUSH2 0x23D9 JUMPI PUSH1 0x0 DUP1 REVERT JUMPDEST PUSH2 0x23E8 DUP7 PUSH1 0x60 ADD MLOAD DUP7 DUP4 PUSH2 0x315E JUMP JUMPDEST PUSH2 0x23F2 DUP9 DUP4 PUSH2 0xC20 JUMP JUMPDEST SWAP8 POP PUSH2 0x2403 DUP12 PUSH1 0x0 ADD MLOAD DUP6 DUP6 PUSH2 0x315E JUMP JUMPDEST POP POP PUSH1 0x1 SWAP1 SWAP5 ADD SWAP4 POP PUSH2 0x220C SWAP3 POP POP POP JUMP JUMPDEST POP SWAP3 POP SWAP3 SWAP1 POP JUMP JUMPDEST PUSH1 0x0 DUP1 JUMPDEST DUP3 MLOAD DUP2 LT ISZERO PUSH2 0x1BFA JUMPI PUSH1 0x0 DUP4 DUP3 DUP2 MLOAD DUP2 LT PUSH2 0x2438 JUMPI INVALID JUMPDEST PUSH1 0x20 MUL PUSH1 0x20 ADD ADD MLOAD SWAP1 POP PUSH1 0x0 DUP2 PUSH1 0x80 ADD MLOAD PUSH1 0x1 PUSH1 0x1 PUSH1 0xA0 SHL SUB AND PUSH4 0x70A08231 ADDRESS PUSH1 0x40 MLOAD DUP3 PUSH4 0xFFFFFFFF AND PUSH1 0xE0 SHL DUP2 MSTORE PUSH1 0x4 ADD PUSH2 0x2474 SWAP2 SWAP1 PUSH2 0x439C JUMP JUMPDEST PUSH1 0x20 PUSH1 0x40 MLOAD DUP1 DUP4 SUB DUP2 DUP7 DUP1 EXTCODESIZE ISZERO DUP1 ISZERO PUSH2 0x248C JUMPI PUSH1 0x0 DUP1 REVERT JUMPDEST POP GAS STATICCALL ISZERO DUP1 ISZERO PUSH2 0x24A0 JUMPI RETURNDATASIZE PUSH1 0x0 DUP1 RETURNDATACOPY RETURNDATASIZE PUSH1 0x0 REVERT JUMPDEST POP POP POP POP PUSH1 0x40 MLOAD RETURNDATASIZE PUSH1 0x1F NOT PUSH1 0x1F DUP3 ADD AND DUP3 ADD DUP1 PUSH1 0x40 MSTORE POP DUP2 ADD SWAP1 PUSH2 0x24C4 SWAP2 SWAP1 PUSH2 0x430D JUMP JUMPDEST SWAP1 POP PUSH1 0x0 PUSH2 0x24D2 DUP8 ADDRESS PUSH2 0x2E3F JUMP JUMPDEST SWAP1 POP PUSH1 0x0 JUMPDEST DUP4 MLOAD MLOAD DUP2 LT ISZERO PUSH2 0x252D JUMPI PUSH2 0x2524 DUP5 PUSH1 0x0 ADD MLOAD DUP3 DUP2 MLOAD DUP2 LT PUSH2 0x24F4 JUMPI INVALID JUMPDEST PUSH1 0x20 MUL PUSH1 0x20 ADD ADD MLOAD DUP6 PUSH1 0x40 ADD MLOAD DUP4 DUP2 MLOAD DUP2 LT PUSH2 0x250C JUMPI INVALID JUMPDEST PUSH1 0x20 MUL PUSH1 0x20 ADD ADD MLOAD DUP7 PUSH1 0x20 ADD MLOAD DUP5 DUP2 MLOAD DUP2 LT PUSH2 0x22F9 JUMPI INVALID JUMPDEST POP PUSH1 0x1 ADD PUSH2 0x24D7 JUMP JUMPDEST POP PUSH1 0x0 PUSH2 0x253A DUP9 ADDRESS PUSH2 0x2E3F JUMP JUMPDEST SWAP1 POP PUSH1 0x0 PUSH2 0x2548 DUP4 DUP4 PUSH2 0x101A JUMP JUMPDEST SWAP1 POP DUP5 PUSH1 0x60 ADD MLOAD DUP2 GT ISZERO PUSH2 0x255B JUMPI PUSH1 0x0 DUP1 REVERT JUMPDEST PUSH1 0x80 DUP6 ADD MLOAD PUSH1 0x40 MLOAD PUSH4 0x70A08231 PUSH1 0xE0 SHL DUP2 MSTORE PUSH1 0x0 SWAP2 PUSH1 0x1 PUSH1 0x1 PUSH1 0xA0 SHL SUB AND SWAP1 PUSH4 0x70A08231 SWAP1 PUSH2 0x258E SWAP1 ADDRESS SWAP1 PUSH1 0x4 ADD PUSH2 0x439C JUMP JUMPDEST PUSH1 0x20 PUSH1 0x40 MLOAD DUP1 DUP4 SUB DUP2 DUP7 DUP1 EXTCODESIZE ISZERO DUP1 ISZERO PUSH2 0x25A6 JUMPI PUSH1 0x0 DUP1 REVERT JUMPDEST POP GAS STATICCALL ISZERO DUP1 ISZERO PUSH2 0x25BA JUMPI RETURNDATASIZE PUSH1 0x0 DUP1 RETURNDATACOPY RETURNDATASIZE PUSH1 0x0 REVERT JUMPDEST POP POP POP POP PUSH1 0x40 MLOAD RETURNDATASIZE PUSH1 0x1F NOT PUSH1 0x1F DUP3 ADD AND DUP3 ADD DUP1 PUSH1 0x40 MSTORE POP DUP2 ADD SWAP1 PUSH2 0x25DE SWAP2 SWAP1 PUSH2 0x430D JUMP JUMPDEST SWAP1 POP DUP1 DUP6 GT ISZERO PUSH2 0x25ED JUMPI PUSH1 0x0 DUP1 REVERT JUMPDEST PUSH2 0x25FC DUP7 PUSH1 0x80 ADD MLOAD DUP7 DUP4 PUSH2 0x315E JUMP JUMPDEST PUSH2 0x2606 DUP9 DUP4 PUSH2 0xC20 JUMP JUMPDEST SWAP8 POP PUSH2 0x2617 DUP11 PUSH1 0x0 ADD MLOAD DUP6 DUP6 PUSH2 0x315E JUMP JUMPDEST POP POP PUSH1 0x1 SWAP1 SWAP5 ADD SWAP4 POP PUSH2 0x2421 SWAP3 POP POP POP JUMP JUMPDEST PUSH1 0x0 DUP2 PUSH1 0x0 NOT EQ DUP1 ISZERO PUSH2 0x263F JUMPI POP PUSH1 0x1 PUSH1 0xFF SHL DUP4 EQ JUMPDEST ISZERO PUSH2 0x2649 JUMPI PUSH1 0x0 DUP1 REVERT JUMPDEST DUP2 DUP4 DUP2 PUSH2 0x2652 JUMPI INVALID JUMPDEST SDIV SWAP4 SWAP3 POP POP POP JUMP JUMPDEST PUSH1 0x0 PUSH5 0xFFFFFFFFFF DUP3 GT ISZERO PUSH2 0xCCD JUMPI PUSH1 0x0 DUP1 REVERT JUMPDEST PUSH1 0x0 DUP1 PUSH2 0xC1A PUSH1 0x1D PUSH2 0x108A JUMP JUMPDEST PUSH1 0x0 PUSH4 0xFFFFFFFF DUP3 GT ISZERO PUSH2 0xCCD JUMPI PUSH1 0x0 DUP1 REVERT JUMPDEST PUSH1 0x0 DUP1 PUSH1 0x0 PUSH2 0x269C DUP6 PUSH2 0x31DB JUMP JUMPDEST SWAP2 SWAP5 POP SWAP3 POP SWAP1 POP DUP1 DUP5 GT DUP1 ISZERO PUSH2 0x26B2 JUMPI POP PUSH1 0x0 DUP2 GT JUMPDEST DUP1 ISZERO PUSH2 0x26BE JUMPI POP PUSH1 0x0 DUP4 GT JUMPDEST ISZERO PUSH2 0x271D JUMPI PUSH1 0x0 PUSH2 0x26CE DUP7 PUSH2 0x3237 JUMP JUMPDEST POP POP POP SWAP2 POP POP PUSH1 0x0 PUSH2 0x26F9 PUSH2 0x26F0 PUSH4 0x5F5E100 DUP5 PUSH2 0x158E SWAP1 SWAP2 SWAP1 PUSH4 0xFFFFFFFF AND JUMP JUMPDEST DUP5 DUP9 SUB DUP8 PUSH2 0x32A3 JUMP JUMPDEST SWAP1 POP PUSH2 0x2705 DUP5 DUP3 PUSH2 0xC20 JUMP JUMPDEST SWAP4 POP PUSH1 0x1 PUSH1 0x1 PUSH1 0x80 SHL SUB DUP5 LT PUSH2 0x271A JUMPI PUSH1 0x0 DUP1 REVERT JUMPDEST POP POP JUMPDEST SWAP3 POP SWAP3 POP SWAP3 JUMP JUMPDEST PUSH1 0x0 DUP1 PUSH2 0xC1A PUSH1 0x11 PUSH2 0x108A JUMP JUMPDEST DUP2 DUP2 ADD DUP3 DUP2 SLT ISZERO PUSH1 0x0 DUP4 SLT ISZERO EQ PUSH2 0xC1A JUMPI PUSH1 0x0 DUP1 REVERT JUMPDEST PUSH1 0x60 PUSH2 0xD91 DUP5 DUP5 PUSH1 0x0 DUP6 PUSH2 0x32CB JUMP JUMPDEST PUSH2 0x275E PUSH2 0x3C08 JUMP JUMPDEST PUSH1 0x0 PUSH2 0x2768 PUSH2 0x266E JUMP JUMPDEST PUSH2 0xFFFF SWAP4 DUP5 AND PUSH1 0x0 SWAP1 DUP2 MSTORE PUSH1 0x20 SWAP2 DUP3 MSTORE PUSH1 0x40 SWAP1 DUP2 SWAP1 KECCAK256 DUP1 SLOAD PUSH5 0xFFFFFFFFFF DUP2 AND DUP7 MSTORE PUSH1 0x1 PUSH1 0x28 SHL DUP2 DIV PUSH1 0x1 PUSH1 0x1 PUSH1 0x58 SHL SUB SWAP1 DUP2 AND SWAP5 DUP8 ADD SWAP5 SWAP1 SWAP5 MSTORE PUSH1 0x1 DUP3 ADD SLOAD DUP5 AND SWAP3 DUP7 ADD SWAP3 SWAP1 SWAP3 MSTORE PUSH1 0x1 PUSH1 0xD8 SHL DUP3 DIV PUSH4 0xFFFFFFFF AND PUSH1 0x60 DUP7 ADD MSTORE PUSH1 0x1 PUSH1 0x80 SHL SWAP1 SWAP2 DIV SWAP1 SWAP2 AND PUSH1 0x80 DUP5 ADD MSTORE PUSH1 0x2 ADD SLOAD PUSH1 0x1 PUSH1 0x1 PUSH1 0x50 SHL SUB DUP1 DUP3 AND PUSH1 0xA0 DUP6 ADD MSTORE PUSH1 0x1 PUSH1 0x50 SHL DUP3 DIV DUP2 AND PUSH1 0xC0 DUP6 ADD MSTORE PUSH1 0x1 PUSH1 0xA0 SHL DUP3 DIV AND PUSH1 0xE0 DUP5 ADD MSTORE PUSH1 0x1 PUSH1 0xF0 SHL SWAP1 DIV PUSH1 0xFF AND PUSH2 0x12C MUL SWAP1 SWAP3 AND PUSH2 0x100 DUP3 ADD MSTORE SWAP2 SWAP1 POP JUMP JUMPDEST PUSH1 0x0 DUP1 PUSH2 0x282A DUP4 PUSH2 0xBDB JUMP JUMPDEST PUSH1 0x1 PUSH1 0x1 PUSH1 0xA0 SHL SUB AND PUSH4 0xEF81F216 PUSH1 0x40 MLOAD DUP2 PUSH4 0xFFFFFFFF AND PUSH1 0xE0 SHL DUP2 MSTORE PUSH1 0x4 ADD PUSH1 0x40 DUP1 MLOAD DUP1 DUP4 SUB DUP2 PUSH1 0x0 DUP8 DUP1 EXTCODESIZE ISZERO DUP1 ISZERO PUSH2 0x2863 JUMPI PUSH1 0x0 DUP1 REVERT JUMPDEST POP GAS CALL ISZERO DUP1 ISZERO PUSH2 0x2877 JUMPI RETURNDATASIZE PUSH1 0x0 DUP1 RETURNDATACOPY RETURNDATASIZE PUSH1 0x0 REVERT JUMPDEST POP POP POP POP PUSH1 0x40 MLOAD RETURNDATASIZE PUSH1 0x1F NOT PUSH1 0x1F DUP3 ADD AND DUP3 ADD DUP1 PUSH1 0x40 MSTORE POP DUP2 ADD SWAP1 PUSH2 0xD91 SWAP2 SWAP1 PUSH2 0x4325 JUMP JUMPDEST PUSH2 0x28A3 PUSH2 0x3C08 JUMP JUMPDEST PUSH1 0x0 DUP1 PUSH1 0x0 PUSH2 0x28B3 DUP9 DUP7 DUP10 PUSH2 0x3426 JUMP JUMPDEST PUSH1 0xC0 DUP12 ADD SWAP3 SWAP1 SWAP3 MSTORE PUSH1 0xE0 DUP11 ADD SWAP3 SWAP1 SWAP3 MSTORE PUSH1 0x20 DUP10 ADD MLOAD SWAP2 SWAP4 POP SWAP2 POP PUSH2 0x28D7 SWAP1 DUP4 PUSH2 0xC20 JUMP JUMPDEST PUSH1 0x20 DUP9 ADD MSTORE PUSH1 0x80 DUP8 ADD MLOAD PUSH1 0x0 SWAP1 ISZERO PUSH2 0x2905 JUMPI PUSH1 0x80 DUP9 ADD MLOAD PUSH2 0x2902 SWAP1 PUSH2 0x28FC DUP10 DUP3 PUSH2 0x101A JUMP JUMPDEST SWAP1 PUSH2 0x3531 JUMP JUMPDEST SWAP1 POP JUMPDEST PUSH2 0x2925 PUSH2 0x291A PUSH8 0xDE0B6B3A7640000 DUP4 PUSH2 0xC20 JUMP JUMPDEST PUSH1 0xA0 DUP11 ADD MLOAD SWAP1 PUSH2 0x354E JUMP JUMPDEST PUSH1 0xA0 DUP10 ADD MSTORE POP POP PUSH1 0x80 DUP7 ADD SWAP5 SWAP1 SWAP5 MSTORE POP POP DUP3 MSTORE SWAP1 SWAP3 SWAP1 SWAP2 POP JUMP JUMPDEST PUSH1 0x0 PUSH2 0x2949 PUSH2 0x266E JUMP JUMPDEST PUSH1 0x0 DUP6 PUSH2 0xFFFF AND DUP2 MSTORE PUSH1 0x20 ADD SWAP1 DUP2 MSTORE PUSH1 0x20 ADD PUSH1 0x0 KECCAK256 SWAP1 POP PUSH2 0x296D DUP3 PUSH1 0x0 ADD MLOAD PUSH2 0x265A JUMP JUMPDEST DUP2 SLOAD PUSH5 0xFFFFFFFFFF NOT AND PUSH5 0xFFFFFFFFFF SWAP2 SWAP1 SWAP2 AND OR DUP2 SSTORE PUSH1 0xA0 DUP3 ADD MLOAD PUSH2 0x2992 SWAP1 PUSH2 0x356B JUMP JUMPDEST PUSH1 0x2 DUP3 ADD DUP1 SLOAD PUSH10 0xFFFFFFFFFFFFFFFFFFFF NOT AND PUSH1 0x1 PUSH1 0x1 PUSH1 0x50 SHL SUB SWAP3 SWAP1 SWAP3 AND SWAP2 SWAP1 SWAP2 OR SWAP1 SSTORE PUSH1 0xC0 DUP3 ADD MLOAD PUSH2 0x29C5 SWAP1 PUSH2 0x356B JUMP JUMPDEST DUP2 PUSH1 0x2 ADD PUSH1 0xA PUSH2 0x100 EXP DUP2 SLOAD DUP2 PUSH1 0x1 PUSH1 0x1 PUSH1 0x50 SHL SUB MUL NOT AND SWAP1 DUP4 PUSH1 0x1 PUSH1 0x1 PUSH1 0x50 SHL SUB AND MUL OR SWAP1 SSTORE POP PUSH2 0x29FA DUP3 PUSH1 0xE0 ADD MLOAD PUSH2 0x356B JUMP JUMPDEST DUP2 PUSH1 0x2 ADD PUSH1 0x14 PUSH2 0x100 EXP DUP2 SLOAD DUP2 PUSH1 0x1 PUSH1 0x1 PUSH1 0x50 SHL SUB MUL NOT AND SWAP1 DUP4 PUSH1 0x1 PUSH1 0x1 PUSH1 0x50 SHL SUB AND MUL OR SWAP1 SSTORE POP PUSH2 0x2A2F DUP3 PUSH1 0x20 ADD MLOAD PUSH2 0x3581 JUMP JUMPDEST DUP2 SLOAD PUSH1 0x1 PUSH1 0x1 PUSH1 0x58 SHL SUB SWAP2 SWAP1 SWAP2 AND PUSH1 0x1 PUSH1 0x28 SHL MUL PUSH16 0xFFFFFFFFFFFFFFFFFFFFFF0000000000 NOT SWAP1 SWAP2 AND OR DUP2 SSTORE PUSH1 0x40 DUP3 ADD MLOAD PUSH2 0x2A69 SWAP1 PUSH2 0x3581 JUMP JUMPDEST PUSH1 0x1 DUP3 ADD DUP1 SLOAD PUSH11 0xFFFFFFFFFFFFFFFFFFFFFF NOT AND PUSH1 0x1 PUSH1 0x1 PUSH1 0x58 SHL SUB SWAP3 SWAP1 SWAP3 AND SWAP2 SWAP1 SWAP2 OR SWAP1 SSTORE PUSH1 0x80 DUP3 ADD MLOAD PUSH2 0x2A9D SWAP1 PUSH2 0x3581 JUMP JUMPDEST DUP2 SLOAD PUSH1 0x1 PUSH1 0x1 PUSH1 0x58 SHL SUB SWAP2 SWAP1 SWAP2 AND PUSH1 0x1 PUSH1 0x80 SHL MUL PUSH11 0xFFFFFFFFFFFFFFFFFFFFFF PUSH1 0x80 SHL NOT SWAP1 SWAP2 AND OR DUP2 SSTORE PUSH1 0x60 DUP3 ADD MLOAD PUSH2 0x2AD5 SWAP1 PUSH2 0x267B JUMP JUMPDEST DUP2 SLOAD PUSH4 0xFFFFFFFF SWAP2 SWAP1 SWAP2 AND PUSH1 0x1 PUSH1 0xD8 SHL MUL PUSH4 0xFFFFFFFF PUSH1 0xD8 SHL NOT SWAP1 SWAP2 AND OR DUP2 SSTORE DUP3 ISZERO PUSH2 0x2B21 JUMPI PUSH1 0x0 PUSH2 0x2B06 DUP5 PUSH2 0xCB7 JUMP JUMPDEST SWAP1 POP PUSH2 0x2B12 DUP6 DUP3 PUSH2 0x3597 JUMP JUMPDEST PUSH2 0x2B1F PUSH2 0xFEE DUP7 DUP4 PUSH2 0x112D JUMP JUMPDEST POP JUMPDEST DUP4 PUSH2 0xFFFF AND PUSH32 0xEF25641E225E493886510CA1AD6584FA7B442B9FEA820A29D1DE3CE27D270FD2 DUP4 PUSH1 0xA0 ADD MLOAD DUP5 PUSH1 0xC0 ADD MLOAD DUP6 PUSH1 0xE0 ADD MLOAD PUSH1 0x40 MLOAD PUSH2 0x2B65 SWAP4 SWAP3 SWAP2 SWAP1 PUSH2 0x46A6 JUMP JUMPDEST PUSH1 0x40 MLOAD DUP1 SWAP2 SUB SWAP1 LOG2 POP POP POP POP JUMP JUMPDEST PUSH2 0x2B7B PUSH2 0x3BBF JUMP JUMPDEST PUSH1 0x0 PUSH2 0x2B85 PUSH2 0x35CE JUMP JUMPDEST PUSH1 0x0 DUP6 DUP2 MSTORE PUSH1 0x20 DUP3 DUP2 MSTORE PUSH1 0x40 DUP1 DUP4 KECCAK256 DUP8 ISZERO ISZERO DUP5 MSTORE DUP3 MSTORE SWAP2 DUP3 SWAP1 KECCAK256 DUP3 MLOAD PUSH1 0xA0 DUP2 ADD DUP5 MSTORE DUP2 SLOAD PUSH1 0x1 PUSH1 0x1 PUSH1 0xA0 SHL SUB DUP2 AND DUP3 MSTORE PUSH1 0xFF PUSH1 0x1 PUSH1 0xA0 SHL DUP3 DIV DUP2 AND ISZERO ISZERO SWAP5 DUP4 ADD SWAP5 SWAP1 SWAP5 MSTORE PUSH1 0x1 PUSH1 0xB0 SHL DUP2 DIV DUP5 AND PUSH1 0xA EXP SWAP5 DUP3 ADD SWAP5 SWAP1 SWAP5 MSTORE SWAP4 SWAP5 POP SWAP3 SWAP2 PUSH1 0x60 DUP4 ADD SWAP2 PUSH1 0x1 PUSH1 0xA8 SHL SWAP1 SWAP2 DIV AND PUSH1 0x5 DUP2 GT ISZERO PUSH2 0x2BFA JUMPI INVALID JUMPDEST DUP2 MSTORE PUSH1 0x0 PUSH1 0x20 SWAP1 SWAP2 ADD MSTORE SWAP6 SWAP5 POP POP POP POP POP JUMP JUMPDEST PUSH1 0x0 DUP1 PUSH2 0xC1A PUSH1 0x26 PUSH2 0x108A JUMP JUMPDEST PUSH1 0x0 PUSH2 0x2C24 PUSH2 0x3C54 JUMP JUMPDEST RETURNDATASIZE DUP1 ISZERO PUSH2 0x2C38 JUMPI PUSH1 0x20 DUP2 EQ PUSH2 0x2C41 JUMPI PUSH1 0x0 DUP1 REVERT JUMPDEST PUSH1 0x1 SWAP3 POP PUSH2 0x2C4C JUMP JUMPDEST PUSH1 0x20 PUSH1 0x0 DUP4 RETURNDATACOPY DUP2 MLOAD SWAP3 POP JUMPDEST POP DUP2 PUSH2 0x444 JUMPI PUSH1 0x40 DUP1 MLOAD PUSH3 0x461BCD PUSH1 0xE5 SHL DUP2 MSTORE PUSH1 0x20 PUSH1 0x4 DUP3 ADD MSTORE PUSH1 0x5 PUSH1 0x24 DUP3 ADD MSTORE PUSH5 0x455243323 PUSH1 0xDC SHL PUSH1 0x44 DUP3 ADD MSTORE SWAP1 MLOAD SWAP1 DUP2 SWAP1 SUB PUSH1 0x64 ADD SWAP1 REVERT JUMPDEST PUSH1 0x0 PUSH4 0x5F5E100 DUP4 PUSH1 0x40 ADD MLOAD EQ ISZERO PUSH2 0x2CA0 JUMPI POP DUP1 PUSH2 0xC1A JUMP JUMPDEST PUSH1 0x40 DUP4 ADD MLOAD PUSH2 0xC32 SWAP1 PUSH2 0x155B DUP5 PUSH4 0x5F5E100 PUSH2 0x197F JUMP JUMPDEST DUP2 MLOAD PUSH1 0x0 SWAP1 PUSH2 0xC32 SWAP1 PUSH2 0x155B DUP5 PUSH15 0xC097CE7BC90715B34B9F1000000000 PUSH2 0x197F JUMP JUMPDEST PUSH1 0x0 PUSH2 0x2CE3 PUSH2 0x266E JUMP JUMPDEST PUSH2 0xFFFF DUP6 AND PUSH1 0x0 SWAP1 DUP2 MSTORE PUSH1 0x20 SWAP2 SWAP1 SWAP2 MSTORE PUSH1 0x40 SWAP1 KECCAK256 DUP1 SLOAD SWAP1 SWAP2 POP PUSH5 0xFFFFFFFFFF AND TIMESTAMP EQ PUSH2 0x2D0E JUMPI PUSH1 0x0 DUP1 REVERT JUMPDEST DUP1 SLOAD PUSH1 0x0 SWAP1 PUSH2 0x2D2D SWAP1 PUSH1 0x1 PUSH1 0x28 SHL SWAP1 DIV PUSH1 0x1 PUSH1 0x1 PUSH1 0x58 SHL SUB AND DUP6 PUSH2 0x2731 JUMP JUMPDEST DUP3 SLOAD SWAP1 SWAP2 POP PUSH1 0x0 SWAP1 PUSH2 0x2D4F SWAP1 PUSH1 0x1 PUSH1 0x80 SHL SWAP1 DIV PUSH1 0x1 PUSH1 0x1 PUSH1 0x58 SHL SUB AND DUP6 PUSH2 0x2731 JUMP JUMPDEST SWAP1 POP DUP1 PUSH3 0x4C4B40 SGT ISZERO PUSH2 0x2D61 JUMPI PUSH1 0x0 DUP1 REVERT JUMPDEST PUSH2 0x2D72 PUSH2 0x2D6D DUP3 PUSH2 0x157F JUMP JUMPDEST PUSH2 0x3581 JUMP JUMPDEST DUP4 SLOAD PUSH1 0x1 PUSH1 0x1 PUSH1 0x58 SHL SUB SWAP2 SWAP1 SWAP2 AND PUSH1 0x1 PUSH1 0x80 SHL MUL PUSH11 0xFFFFFFFFFFFFFFFFFFFFFF PUSH1 0x80 SHL NOT SWAP1 SWAP2 AND OR DUP4 SSTORE PUSH2 0x2DA8 PUSH2 0x2D6D DUP4 PUSH2 0x157F JUMP JUMPDEST DUP4 SLOAD PUSH1 0x1 PUSH1 0x1 PUSH1 0x58 SHL SUB SWAP2 SWAP1 SWAP2 AND PUSH1 0x1 PUSH1 0x28 SHL MUL PUSH16 0xFFFFFFFFFFFFFFFFFFFFFF0000000000 NOT SWAP1 SWAP2 AND OR DUP4 SSTORE PUSH2 0x2DDD DUP4 PUSH2 0x35DB JUMP JUMPDEST POP POP POP POP POP POP JUMP JUMPDEST PUSH1 0x0 PUSH2 0x2DEF PUSH2 0x2C0D JUMP JUMPDEST PUSH1 0x1 PUSH1 0x1 PUSH1 0xA0 SHL SUB DUP5 AND PUSH1 0x0 SWAP1 DUP2 MSTORE PUSH1 0x20 DUP3 SWAP1 MSTORE PUSH1 0x40 SWAP1 KECCAK256 SLOAD SWAP1 SWAP2 POP PUSH2 0x2E1D PUSH2 0x2E18 DUP3 DUP6 PUSH2 0x2731 JUMP JUMPDEST PUSH2 0x157F JUMP JUMPDEST PUSH1 0x1 PUSH1 0x1 PUSH1 0xA0 SHL SUB SWAP1 SWAP5 AND PUSH1 0x0 SWAP1 DUP2 MSTORE PUSH1 0x20 SWAP3 SWAP1 SWAP3 MSTORE POP PUSH1 0x40 SWAP1 KECCAK256 SWAP2 SWAP1 SWAP2 SSTORE POP JUMP JUMPDEST PUSH1 0x0 PUSH1 0x3 DUP4 PUSH1 0x60 ADD MLOAD PUSH1 0x5 DUP2 GT ISZERO PUSH2 0x2E53 JUMPI INVALID JUMPDEST EQ ISZERO PUSH2 0x2E6A JUMPI POP PUSH1 0x1 PUSH1 0x1 PUSH1 0xA0 SHL SUB DUP2 AND BALANCE PUSH2 0xC1A JUMP JUMPDEST DUP3 MLOAD PUSH1 0x40 MLOAD PUSH4 0x70A08231 PUSH1 0xE0 SHL DUP2 MSTORE PUSH1 0x1 PUSH1 0x1 PUSH1 0xA0 SHL SUB SWAP1 SWAP2 AND SWAP1 PUSH4 0x70A08231 SWAP1 PUSH2 0x2E99 SWAP1 DUP6 SWAP1 PUSH1 0x4 ADD PUSH2 0x439C JUMP JUMPDEST PUSH1 0x20 PUSH1 0x40 MLOAD DUP1 DUP4 SUB DUP2 DUP7 DUP1 EXTCODESIZE ISZERO DUP1 ISZERO PUSH2 0x2EB1 JUMPI PUSH1 0x0 DUP1 REVERT JUMPDEST POP GAS STATICCALL ISZERO DUP1 ISZERO PUSH2 0x2EC5 JUMPI RETURNDATASIZE PUSH1 0x0 DUP1 RETURNDATACOPY RETURNDATASIZE PUSH1 0x0 REVERT JUMPDEST POP POP POP POP PUSH1 0x40 MLOAD RETURNDATASIZE PUSH1 0x1F NOT PUSH1 0x1F DUP3 ADD AND DUP3 ADD DUP1 PUSH1 0x40 MSTORE POP DUP2 ADD SWAP1 PUSH2 0x2EE9 SWAP2 SWAP1 PUSH2 0x430D JUMP JUMPDEST SWAP1 POP PUSH2 0xC1A JUMP JUMPDEST PUSH1 0x0 DUP1 PUSH1 0x0 DUP7 PUSH1 0x1 PUSH1 0x1 PUSH1 0xA0 SHL SUB AND DUP7 DUP7 PUSH1 0x40 MLOAD DUP1 DUP3 DUP1 MLOAD SWAP1 PUSH1 0x20 ADD SWAP1 DUP1 DUP4 DUP4 JUMPDEST PUSH1 0x20 DUP4 LT PUSH2 0x2F30 JUMPI DUP1 MLOAD DUP3 MSTORE PUSH1 0x1F NOT SWAP1 SWAP3 ADD SWAP2 PUSH1 0x20 SWAP2 DUP3 ADD SWAP2 ADD PUSH2 0x2F11 JUMP JUMPDEST PUSH1 0x1 DUP4 PUSH1 0x20 SUB PUSH2 0x100 EXP SUB DUP1 NOT DUP3 MLOAD AND DUP2 DUP5 MLOAD AND DUP1 DUP3 OR DUP6 MSTORE POP POP POP POP POP POP SWAP1 POP ADD SWAP2 POP POP PUSH1 0x0 PUSH1 0x40 MLOAD DUP1 DUP4 SUB DUP2 DUP6 DUP8 GAS CALL SWAP3 POP POP POP RETURNDATASIZE DUP1 PUSH1 0x0 DUP2 EQ PUSH2 0x2F92 JUMPI PUSH1 0x40 MLOAD SWAP2 POP PUSH1 0x1F NOT PUSH1 0x3F RETURNDATASIZE ADD AND DUP3 ADD PUSH1 0x40 MSTORE RETURNDATASIZE DUP3 MSTORE RETURNDATASIZE PUSH1 0x0 PUSH1 0x20 DUP5 ADD RETURNDATACOPY PUSH2 0x2F97 JUMP JUMPDEST PUSH1 0x60 SWAP2 POP JUMPDEST POP SWAP2 POP SWAP2 POP DUP4 PUSH2 0x303A JUMPI DUP2 PUSH2 0x2FAB DUP3 PUSH2 0x36A0 JUMP JUMPDEST SWAP1 PUSH2 0x3034 JUMPI PUSH1 0x40 MLOAD PUSH3 0x461BCD PUSH1 0xE5 SHL DUP2 MSTORE PUSH1 0x4 ADD DUP1 DUP1 PUSH1 0x20 ADD DUP3 DUP2 SUB DUP3 MSTORE DUP4 DUP2 DUP2 MLOAD DUP2 MSTORE PUSH1 0x20 ADD SWAP2 POP DUP1 MLOAD SWAP1 PUSH1 0x20 ADD SWAP1 DUP1 DUP4 DUP4 PUSH1 0x0 JUMPDEST DUP4 DUP2 LT ISZERO PUSH2 0x2FF9 JUMPI DUP2 DUP2 ADD MLOAD DUP4 DUP3 ADD MSTORE PUSH1 0x20 ADD PUSH2 0x2FE1 JUMP JUMPDEST POP POP POP POP SWAP1 POP SWAP1 DUP2 ADD SWAP1 PUSH1 0x1F AND DUP1 ISZERO PUSH2 0x3026 JUMPI DUP1 DUP3 SUB DUP1 MLOAD PUSH1 0x1 DUP4 PUSH1 0x20 SUB PUSH2 0x100 EXP SUB NOT AND DUP2 MSTORE PUSH1 0x20 ADD SWAP2 POP JUMPDEST POP SWAP3 POP POP POP PUSH1 0x40 MLOAD DUP1 SWAP2 SUB SWAP1 REVERT JUMPDEST POP PUSH2 0x1CB4 JUMP JUMPDEST DUP7 PUSH1 0x1 PUSH1 0x1 PUSH1 0xA0 SHL SUB AND PUSH32 0x3C7E398C5E91088CAE639370E35B25EA669D81FBDF0DEF5388E73661BC34E08E DUP8 DUP8 PUSH2 0x3070 DUP6 PUSH2 0x36A0 JUMP JUMPDEST PUSH1 0x40 MLOAD DUP1 DUP5 DUP2 MSTORE PUSH1 0x20 ADD DUP1 PUSH1 0x20 ADD DUP1 PUSH1 0x20 ADD DUP4 DUP2 SUB DUP4 MSTORE DUP6 DUP2 DUP2 MLOAD DUP2 MSTORE PUSH1 0x20 ADD SWAP2 POP DUP1 MLOAD SWAP1 PUSH1 0x20 ADD SWAP1 DUP1 DUP4 DUP4 PUSH1 0x0 JUMPDEST DUP4 DUP2 LT ISZERO PUSH2 0x30B7 JUMPI DUP2 DUP2 ADD MLOAD DUP4 DUP3 ADD MSTORE PUSH1 0x20 ADD PUSH2 0x309F JUMP JUMPDEST POP POP POP POP SWAP1 POP SWAP1 DUP2 ADD SWAP1 PUSH1 0x1F AND DUP1 ISZERO PUSH2 0x30E4 JUMPI DUP1 DUP3 SUB DUP1 MLOAD PUSH1 0x1 DUP4 PUSH1 0x20 SUB PUSH2 0x100 EXP SUB NOT AND DUP2 MSTORE PUSH1 0x20 ADD SWAP2 POP JUMPDEST POP DUP4 DUP2 SUB DUP3 MSTORE DUP5 MLOAD DUP2 MSTORE DUP5 MLOAD PUSH1 0x20 SWAP2 DUP3 ADD SWAP2 DUP7 ADD SWAP1 DUP1 DUP4 DUP4 PUSH1 0x0 JUMPDEST DUP4 DUP2 LT ISZERO PUSH2 0x3117 JUMPI DUP2 DUP2 ADD MLOAD DUP4 DUP3 ADD MSTORE PUSH1 0x20 ADD PUSH2 0x30FF JUMP JUMPDEST POP POP POP POP SWAP1 POP SWAP1 DUP2 ADD SWAP1 PUSH1 0x1F AND DUP1 ISZERO PUSH2 0x3144 JUMPI DUP1 DUP3 SUB DUP1 MLOAD PUSH1 0x1 DUP4 PUSH1 0x20 SUB PUSH2 0x100 EXP SUB NOT AND DUP2 MSTORE PUSH1 0x20 ADD SWAP2 POP JUMPDEST POP SWAP6 POP POP POP POP POP POP PUSH1 0x40 MLOAD DUP1 SWAP2 SUB SWAP1 LOG2 POP SWAP6 SWAP5 POP POP POP POP POP JUMP JUMPDEST PUSH1 0x0 PUSH2 0x3168 PUSH2 0x2C0D JUMP JUMPDEST PUSH1 0x1 PUSH1 0x1 PUSH1 0xA0 SHL SUB DUP6 AND PUSH1 0x0 SWAP1 DUP2 MSTORE PUSH1 0x20 DUP3 SWAP1 MSTORE PUSH1 0x40 SWAP1 KECCAK256 SLOAD SWAP1 SWAP2 POP DUP4 DUP2 GT ISZERO PUSH2 0x3191 JUMPI PUSH1 0x0 DUP1 REVERT JUMPDEST PUSH1 0x0 PUSH2 0x31A8 PUSH2 0x319F DUP7 PUSH2 0xCB7 JUMP JUMPDEST PUSH2 0x152E DUP7 PUSH2 0xCB7 JUMP JUMPDEST SWAP1 POP PUSH2 0x31B7 PUSH2 0x2E18 DUP4 DUP4 PUSH2 0x2731 JUMP JUMPDEST PUSH1 0x1 PUSH1 0x1 PUSH1 0xA0 SHL SUB SWAP1 SWAP7 AND PUSH1 0x0 SWAP1 DUP2 MSTORE PUSH1 0x20 SWAP4 SWAP1 SWAP4 MSTORE POP POP PUSH1 0x40 SWAP1 KECCAK256 SWAP3 SWAP1 SWAP3 SSTORE POP POP JUMP JUMPDEST PUSH1 0x0 DUP1 PUSH1 0x0 DUP1 PUSH2 0x31E9 PUSH2 0x2724 JUMP JUMPDEST PUSH1 0x1 PUSH1 0x1 PUSH1 0xA0 SHL SUB SWAP6 SWAP1 SWAP6 AND PUSH1 0x0 SWAP1 DUP2 MSTORE PUSH1 0x20 SWAP6 SWAP1 SWAP6 MSTORE POP POP PUSH1 0x40 SWAP1 SWAP3 KECCAK256 SLOAD PUSH1 0x1 PUSH1 0x1 PUSH1 0x60 SHL SUB DUP2 AND SWAP4 PUSH1 0x1 PUSH1 0x60 SHL DUP3 DIV PUSH1 0x1 PUSH1 0x1 PUSH1 0x80 SHL SUB AND SWAP4 POP PUSH1 0x1 PUSH1 0xE0 SHL SWAP1 SWAP2 DIV PUSH4 0xFFFFFFFF AND SWAP2 POP JUMP JUMPDEST PUSH1 0x0 DUP1 PUSH1 0x0 DUP1 PUSH1 0x0 DUP1 PUSH2 0x3248 PUSH2 0x179B JUMP JUMPDEST PUSH1 0x1 PUSH1 0x1 PUSH1 0xA0 SHL SUB SWAP1 SWAP8 AND PUSH1 0x0 SWAP1 DUP2 MSTORE PUSH1 0x20 SWAP8 SWAP1 SWAP8 MSTORE POP POP PUSH1 0x40 SWAP1 SWAP5 KECCAK256 SLOAD PUSH2 0xFFFF DUP2 AND SWAP6 PUSH4 0xFFFFFFFF PUSH3 0x10000 DUP4 DIV DUP2 AND SWAP7 POP PUSH7 0x1000000000000 DUP4 DIV AND SWAP5 POP PUSH1 0xFF PUSH1 0x1 PUSH1 0x50 SHL DUP4 DIV AND SWAP4 POP PUSH1 0x1 PUSH1 0x58 SHL SWAP1 SWAP2 DIV PUSH1 0xD8 SHL SWAP2 POP JUMP JUMPDEST PUSH1 0x0 PUSH2 0xD91 DUP3 PUSH2 0xEF2 PUSH4 0x1DA9C00 DUP2 DUP9 PUSH2 0x32C5 DUP10 PUSH8 0xDE0B6B3A7640000 PUSH2 0x158E JUMP JUMPDEST SWAP1 PUSH2 0x158E JUMP JUMPDEST PUSH1 0x60 DUP3 SELFBALANCE LT ISZERO PUSH2 0x330C JUMPI PUSH1 0x40 MLOAD PUSH3 0x461BCD PUSH1 0xE5 SHL DUP2 MSTORE PUSH1 0x4 ADD DUP1 DUP1 PUSH1 0x20 ADD DUP3 DUP2 SUB DUP3 MSTORE PUSH1 0x26 DUP2 MSTORE PUSH1 0x20 ADD DUP1 PUSH2 0x4712 PUSH1 0x26 SWAP2 CODECOPY PUSH1 0x40 ADD SWAP2 POP POP PUSH1 0x40 MLOAD DUP1 SWAP2 SUB SWAP1 REVERT JUMPDEST PUSH2 0x3315 DUP6 PUSH2 0x37A5 JUMP JUMPDEST PUSH2 0x3366 JUMPI PUSH1 0x40 DUP1 MLOAD PUSH3 0x461BCD PUSH1 0xE5 SHL DUP2 MSTORE PUSH1 0x20 PUSH1 0x4 DUP3 ADD MSTORE PUSH1 0x1D PUSH1 0x24 DUP3 ADD MSTORE PUSH32 0x416464726573733A2063616C6C20746F206E6F6E2D636F6E7472616374000000 PUSH1 0x44 DUP3 ADD MSTORE SWAP1 MLOAD SWAP1 DUP2 SWAP1 SUB PUSH1 0x64 ADD SWAP1 REVERT JUMPDEST PUSH1 0x0 DUP1 DUP7 PUSH1 0x1 PUSH1 0x1 PUSH1 0xA0 SHL SUB AND DUP6 DUP8 PUSH1 0x40 MLOAD DUP1 DUP3 DUP1 MLOAD SWAP1 PUSH1 0x20 ADD SWAP1 DUP1 DUP4 DUP4 JUMPDEST PUSH1 0x20 DUP4 LT PUSH2 0x33A4 JUMPI DUP1 MLOAD DUP3 MSTORE PUSH1 0x1F NOT SWAP1 SWAP3 ADD SWAP2 PUSH1 0x20 SWAP2 DUP3 ADD SWAP2 ADD PUSH2 0x3385 JUMP JUMPDEST PUSH1 0x1 DUP4 PUSH1 0x20 SUB PUSH2 0x100 EXP SUB DUP1 NOT DUP3 MLOAD AND DUP2 DUP5 MLOAD AND DUP1 DUP3 OR DUP6 MSTORE POP POP POP POP POP POP SWAP1 POP ADD SWAP2 POP POP PUSH1 0x0 PUSH1 0x40 MLOAD DUP1 DUP4 SUB DUP2 DUP6 DUP8 GAS CALL SWAP3 POP POP POP RETURNDATASIZE DUP1 PUSH1 0x0 DUP2 EQ PUSH2 0x3406 JUMPI PUSH1 0x40 MLOAD SWAP2 POP PUSH1 0x1F NOT PUSH1 0x3F RETURNDATASIZE ADD AND DUP3 ADD PUSH1 0x40 MSTORE RETURNDATASIZE DUP3 MSTORE RETURNDATASIZE PUSH1 0x0 PUSH1 0x20 DUP5 ADD RETURNDATACOPY PUSH2 0x340B JUMP JUMPDEST PUSH1 0x60 SWAP2 POP JUMPDEST POP SWAP2 POP SWAP2 POP PUSH2 0x341B DUP3 DUP3 DUP7 PUSH2 0x37AB JUMP JUMPDEST SWAP8 SWAP7 POP POP POP POP POP POP POP JUMP JUMPDEST PUSH1 0x0 DUP1 PUSH1 0x0 DUP1 PUSH1 0x0 DUP1 PUSH2 0x3439 DUP10 DUP9 PUSH2 0x3811 JUMP JUMPDEST DUP10 MLOAD SWAP1 SWAP6 POP SWAP2 SWAP4 POP SWAP2 POP PUSH1 0x0 SWAP1 PUSH2 0x3460 SWAP1 PUSH2 0x3455 SWAP1 DUP12 SWAP1 PUSH2 0x101A JUMP JUMPDEST PUSH4 0x3B9ACA00 SWAP1 PUSH2 0x158E JUMP JUMPDEST SWAP1 POP PUSH2 0x349A PUSH2 0x348F PUSH4 0x1DA9C00 PUSH2 0x3477 DUP6 DUP6 PUSH2 0x158E JUMP JUMPDEST DUP2 PUSH2 0x347E JUMPI INVALID JUMPDEST PUSH8 0xDE0B6B3A7640000 SWAP2 SWAP1 DIV PUSH2 0xC20 JUMP JUMPDEST PUSH1 0xE0 DUP11 ADD MLOAD SWAP1 PUSH2 0x354E JUMP JUMPDEST SWAP7 POP PUSH2 0x34BC PUSH2 0x34B1 PUSH4 0x1DA9C00 PUSH2 0x3477 DUP8 DUP6 PUSH2 0x158E JUMP JUMPDEST PUSH1 0xC0 DUP11 ADD MLOAD SWAP1 PUSH2 0x354E JUMP JUMPDEST SWAP6 POP DUP2 DUP4 EQ ISZERO PUSH2 0x34D3 JUMPI POP PUSH1 0x0 SWAP4 POP PUSH2 0x3528 SWAP2 POP POP JUMP JUMPDEST PUSH1 0x0 PUSH2 0x34F5 PUSH2 0x34EA PUSH4 0x1DA9C00 PUSH2 0x3477 DUP8 DUP7 PUSH2 0x158E JUMP JUMPDEST PUSH1 0xE0 DUP12 ADD MLOAD SWAP1 PUSH2 0x354E JUMP JUMPDEST SWAP1 POP PUSH1 0x0 PUSH2 0x3503 DUP10 DUP4 PUSH2 0x101A JUMP JUMPDEST SWAP1 POP PUSH2 0x3520 DUP9 PUSH2 0xEF2 DUP4 DUP14 PUSH1 0x40 ADD MLOAD PUSH2 0x158E SWAP1 SWAP2 SWAP1 PUSH4 0xFFFFFFFF AND JUMP JUMPDEST SWAP7 POP POP POP POP POP POP JUMPDEST SWAP4 POP SWAP4 POP SWAP4 POP SWAP4 JUMP JUMPDEST PUSH1 0x0 PUSH2 0xC32 PUSH2 0x3548 DUP5 PUSH8 0xDE0B6B3A7640000 PUSH2 0x158E JUMP JUMPDEST DUP4 PUSH2 0x15B5 JUMP JUMPDEST PUSH1 0x0 PUSH2 0xC32 PUSH2 0x355D DUP5 DUP5 PUSH2 0x158E JUMP JUMPDEST PUSH8 0xDE0B6B3A7640000 PUSH2 0x15B5 JUMP JUMPDEST PUSH1 0x0 PUSH1 0x1 PUSH1 0x1 PUSH1 0x50 SHL SUB DUP3 GT ISZERO PUSH2 0xCCD JUMPI PUSH1 0x0 DUP1 REVERT JUMPDEST PUSH1 0x0 PUSH1 0x1 PUSH1 0x1 PUSH1 0x58 SHL SUB DUP3 GT ISZERO PUSH2 0xCCD JUMPI PUSH1 0x0 DUP1 REVERT JUMPDEST PUSH1 0x0 DUP2 SLT ISZERO PUSH2 0x35A5 JUMPI PUSH1 0x0 DUP1 REVERT JUMPDEST PUSH1 0x0 PUSH2 0x35B3 PUSH2 0xFEE DUP5 PUSH2 0xCD1 JUMP JUMPDEST SWAP1 POP PUSH2 0x35BF DUP2 DUP4 PUSH2 0x2731 JUMP JUMPDEST SWAP1 POP PUSH2 0x758 PUSH2 0xFEE DUP5 DUP4 PUSH2 0x10A3 JUMP JUMPDEST PUSH1 0x0 DUP1 PUSH2 0xC1A PUSH1 0x7 PUSH2 0x108A JUMP JUMPDEST DUP1 SLOAD PUSH1 0x2 DUP3 ADD SLOAD PUSH1 0x0 SWAP2 PUSH2 0x3617 SWAP2 PUSH1 0x1 PUSH1 0x28 SHL SWAP1 SWAP2 DIV PUSH1 0x1 PUSH1 0x1 PUSH1 0x58 SHL SUB AND SWAP1 PUSH2 0x1555 SWAP1 PUSH1 0x1 PUSH1 0x1 PUSH1 0x50 SHL SUB PUSH1 0x1 PUSH1 0x50 SHL DUP3 DIV DUP2 AND SWAP2 AND PUSH2 0x197F JUMP JUMPDEST PUSH1 0x1 DUP4 ADD SLOAD PUSH1 0x2 DUP5 ADD SLOAD SWAP2 SWAP3 POP PUSH1 0x0 SWAP2 PUSH2 0x3651 SWAP2 PUSH1 0x1 PUSH1 0x1 PUSH1 0x58 SHL SUB AND SWAP1 PUSH2 0x1555 SWAP1 PUSH1 0x1 PUSH1 0x1 PUSH1 0x50 SHL SUB PUSH1 0x1 PUSH1 0xA0 SHL DUP3 DIV DUP2 AND SWAP2 AND PUSH2 0x197F JUMP JUMPDEST DUP4 SLOAD SWAP1 SWAP2 POP PUSH1 0x0 SWAP1 PUSH2 0x3688 SWAP1 PUSH1 0x1 PUSH1 0x1 PUSH1 0x1 PUSH1 0x58 SHL SUB PUSH1 0x1 PUSH1 0x80 SHL SWAP1 SWAP3 DIV DUP3 AND ADD AND PUSH15 0xC097CE7BC90715B34B9F1000000000 PUSH2 0x197F JUMP JUMPDEST SWAP1 POP DUP1 PUSH2 0x3695 DUP5 DUP5 PUSH2 0x1117 JUMP JUMPDEST SGT ISZERO PUSH2 0x1BFA JUMPI PUSH1 0x0 DUP1 REVERT JUMPDEST PUSH1 0x60 PUSH1 0x44 DUP3 MLOAD LT ISZERO PUSH2 0x36D6 JUMPI POP PUSH1 0x40 DUP1 MLOAD DUP1 DUP3 ADD SWAP1 SWAP2 MSTORE PUSH1 0xD DUP2 MSTORE PUSH13 0x14DA5B195B9D0814995D995C9D PUSH1 0x9A SHL PUSH1 0x20 DUP3 ADD MSTORE PUSH2 0xC08 JUMP JUMPDEST PUSH1 0x4 DUP3 ADD DUP1 MLOAD SWAP1 SWAP3 PUSH1 0x24 ADD SWAP1 PUSH1 0x20 DUP2 LT ISZERO PUSH2 0x36F0 JUMPI PUSH1 0x0 DUP1 REVERT JUMPDEST DUP2 ADD SWAP1 DUP1 DUP1 MLOAD PUSH1 0x40 MLOAD SWAP4 SWAP3 SWAP2 SWAP1 DUP5 PUSH1 0x1 PUSH1 0x20 SHL DUP3 GT ISZERO PUSH2 0x370F JUMPI PUSH1 0x0 DUP1 REVERT JUMPDEST SWAP1 DUP4 ADD SWAP1 PUSH1 0x20 DUP3 ADD DUP6 DUP2 GT ISZERO PUSH2 0x3724 JUMPI PUSH1 0x0 DUP1 REVERT JUMPDEST DUP3 MLOAD PUSH1 0x1 PUSH1 0x20 SHL DUP2 GT DUP3 DUP3 ADD DUP9 LT OR ISZERO PUSH2 0x373D JUMPI PUSH1 0x0 DUP1 REVERT JUMPDEST DUP3 MSTORE POP DUP2 MLOAD PUSH1 0x20 SWAP2 DUP3 ADD SWAP3 SWAP1 SWAP2 ADD SWAP1 DUP1 DUP4 DUP4 PUSH1 0x0 JUMPDEST DUP4 DUP2 LT ISZERO PUSH2 0x376A JUMPI DUP2 DUP2 ADD MLOAD DUP4 DUP3 ADD MSTORE PUSH1 0x20 ADD PUSH2 0x3752 JUMP JUMPDEST POP POP POP POP SWAP1 POP SWAP1 DUP2 ADD SWAP1 PUSH1 0x1F AND DUP1 ISZERO PUSH2 0x3797 JUMPI DUP1 DUP3 SUB DUP1 MLOAD PUSH1 0x1 DUP4 PUSH1 0x20 SUB PUSH2 0x100 EXP SUB NOT AND DUP2 MSTORE PUSH1 0x20 ADD SWAP2 POP JUMPDEST POP PUSH1 0x40 MSTORE POP POP POP SWAP1 POP SWAP2 SWAP1 POP JUMP JUMPDEST EXTCODESIZE ISZERO ISZERO SWAP1 JUMP JUMPDEST PUSH1 0x60 DUP4 ISZERO PUSH2 0x37BA JUMPI POP DUP2 PUSH2 0xC32 JUMP JUMPDEST DUP3 MLOAD ISZERO PUSH2 0x37CA JUMPI DUP3 MLOAD DUP1 DUP5 PUSH1 0x20 ADD REVERT JUMPDEST PUSH1 0x40 MLOAD PUSH3 0x461BCD PUSH1 0xE5 SHL DUP2 MSTORE PUSH1 0x20 PUSH1 0x4 DUP3 ADD DUP2 DUP2 MSTORE DUP5 MLOAD PUSH1 0x24 DUP5 ADD MSTORE DUP5 MLOAD DUP6 SWAP4 SWAP2 SWAP3 DUP4 SWAP3 PUSH1 0x44 ADD SWAP2 SWAP1 DUP6 ADD SWAP1 DUP1 DUP4 DUP4 PUSH1 0x0 DUP4 ISZERO PUSH2 0x2FF9 JUMPI DUP2 DUP2 ADD MLOAD DUP4 DUP3 ADD MSTORE PUSH1 0x20 ADD PUSH2 0x2FE1 JUMP JUMPDEST PUSH1 0x0 DUP1 PUSH1 0x0 DUP1 PUSH1 0x0 DUP6 PUSH1 0x20 ADD MLOAD GT ISZERO PUSH2 0x385E JUMPI PUSH2 0x385B PUSH2 0x3842 DUP7 PUSH1 0xC0 ADD MLOAD DUP8 PUSH1 0x20 ADD MLOAD PUSH2 0x158E SWAP1 SWAP2 SWAP1 PUSH4 0xFFFFFFFF AND JUMP JUMPDEST PUSH1 0xE0 DUP8 ADD MLOAD PUSH1 0x40 DUP9 ADD MLOAD PUSH2 0x3855 SWAP2 PUSH2 0x158E JUMP JUMPDEST SWAP1 PUSH2 0x38AB JUMP JUMPDEST SWAP1 POP JUMPDEST PUSH1 0x0 PUSH2 0x3869 DUP8 PUSH2 0x38BE JUMP JUMPDEST SWAP1 POP PUSH2 0x3875 DUP2 DUP4 PUSH2 0x38F1 JUMP JUMPDEST SWAP5 POP DUP2 ISZERO PUSH2 0x388C JUMPI PUSH2 0x3889 DUP2 DUP7 PUSH1 0x1 PUSH2 0x39AA JUMP JUMPDEST SWAP4 POP JUMPDEST PUSH1 0x20 DUP7 ADD MLOAD ISZERO PUSH2 0x271A JUMPI PUSH2 0x38A0 DUP6 DUP4 PUSH2 0x3A25 JUMP JUMPDEST SWAP3 POP POP POP SWAP3 POP SWAP3 POP SWAP3 JUMP JUMPDEST PUSH1 0x0 PUSH2 0xC32 PUSH2 0x3548 DUP5 PUSH4 0x3B9ACA00 PUSH2 0x158E JUMP JUMPDEST PUSH2 0x38C6 PUSH2 0x3C72 JUMP JUMPDEST PUSH1 0x0 PUSH2 0x38D0 PUSH2 0x3A3E JUMP JUMPDEST PUSH2 0xFFFF DUP5 AND PUSH1 0x0 SWAP1 DUP2 MSTORE PUSH1 0x20 SWAP2 SWAP1 SWAP2 MSTORE PUSH1 0x40 DUP2 KECCAK256 SLOAD SWAP2 POP PUSH2 0xC32 SWAP1 DUP3 PUSH2 0x3A4B JUMP JUMPDEST PUSH1 0x0 DUP1 DUP4 PUSH1 0x80 ADD MLOAD GT PUSH2 0x3903 JUMPI PUSH1 0x0 DUP1 REVERT JUMPDEST PUSH4 0x3B9ACA00 DUP3 GT ISZERO PUSH2 0x3914 JUMPI PUSH1 0x0 DUP1 REVERT JUMPDEST DUP3 MLOAD DUP3 GT PUSH2 0x3933 JUMPI DUP3 MLOAD PUSH1 0x40 DUP5 ADD MLOAD PUSH2 0x2EE9 SWAP2 SWAP1 PUSH2 0xEF2 SWAP1 DUP6 SWAP1 PUSH2 0x158E JUMP JUMPDEST DUP3 PUSH1 0x20 ADD MLOAD DUP3 GT PUSH2 0x3971 JUMPI PUSH1 0x40 DUP4 ADD MLOAD DUP4 MLOAD PUSH1 0x20 DUP6 ADD MLOAD PUSH1 0x60 DUP7 ADD MLOAD PUSH2 0x2EE9 SWAP4 SWAP3 PUSH2 0x396B SWAP3 DUP2 SWAP1 SUB SWAP2 PUSH2 0xEF2 SWAP2 DUP9 SUB SWAP1 DUP6 SWAP1 SUB PUSH2 0x158E JUMP JUMPDEST SWAP1 PUSH2 0xC20 JUMP JUMPDEST PUSH2 0xC32 DUP4 PUSH1 0x60 ADD MLOAD PUSH2 0x396B DUP6 PUSH1 0x20 ADD MLOAD PUSH4 0x3B9ACA00 SUB PUSH2 0xEF2 DUP8 PUSH1 0x60 ADD MLOAD DUP9 PUSH1 0x80 ADD MLOAD SUB DUP9 PUSH1 0x20 ADD MLOAD DUP9 SUB PUSH2 0x158E SWAP1 SWAP2 SWAP1 PUSH4 0xFFFFFFFF AND JUMP JUMPDEST PUSH1 0x0 DUP1 PUSH2 0x39C9 PUSH1 0x64 PUSH2 0xEF2 DUP8 PUSH1 0xE0 ADD MLOAD DUP8 PUSH2 0x158E SWAP1 SWAP2 SWAP1 PUSH4 0xFFFFFFFF AND JUMP JUMPDEST SWAP1 POP DUP5 PUSH1 0xA0 ADD MLOAD DUP2 LT ISZERO PUSH2 0x39DE JUMPI POP PUSH1 0xA0 DUP5 ADD MLOAD JUMPDEST DUP5 PUSH1 0xC0 ADD MLOAD DUP2 GT ISZERO PUSH2 0x39F1 JUMPI POP PUSH1 0xC0 DUP5 ADD MLOAD JUMPDEST DUP3 ISZERO PUSH2 0x3A08 JUMPI PUSH2 0x3A01 DUP5 DUP3 PUSH2 0xC20 JUMP JUMPDEST SWAP2 POP PUSH2 0x3A1D JUMP JUMPDEST DUP4 DUP2 GT PUSH2 0x3A17 JUMPI DUP1 DUP5 SUB PUSH2 0x3A1A JUMP JUMPDEST PUSH1 0x0 JUMPDEST SWAP2 POP JUMPDEST POP SWAP4 SWAP3 POP POP POP JUMP JUMPDEST PUSH1 0x0 PUSH2 0xC32 PUSH2 0x3A34 DUP5 DUP5 PUSH2 0x158E JUMP JUMPDEST PUSH4 0x3B9ACA00 PUSH2 0x15B5 JUMP JUMPDEST PUSH1 0x0 DUP1 PUSH2 0xC1A PUSH1 0x1B PUSH2 0x108A JUMP JUMPDEST PUSH2 0x3A53 PUSH2 0x3C72 JUMP JUMPDEST PUSH1 0x64 PUSH4 0x3B9ACA00 DUP4 PUSH1 0xFF DUP7 AND PUSH1 0x20 DUP2 LT PUSH2 0x3A69 JUMPI INVALID JUMPDEST BYTE MUL DUP2 PUSH2 0x3A72 JUMPI INVALID JUMPDEST DIV DUP2 MSTORE PUSH1 0x64 PUSH4 0x3B9ACA00 DUP4 PUSH1 0xFF DUP7 AND PUSH1 0x1 ADD PUSH1 0x20 DUP2 LT PUSH2 0x3A8E JUMPI INVALID JUMPDEST BYTE MUL DUP2 PUSH2 0x3A97 JUMPI INVALID JUMPDEST DIV DUP2 PUSH1 0x20 ADD DUP2 DUP2 MSTORE POP POP PUSH2 0x3ABC DUP3 PUSH1 0x2 DUP6 PUSH1 0xFF AND ADD PUSH1 0x20 DUP2 LT PUSH2 0x3AB6 JUMPI INVALID JUMPDEST BYTE PUSH2 0x3B6A JUMP JUMPDEST PUSH1 0x80 DUP3 ADD DUP2 SWAP1 MSTORE PUSH2 0x100 SWAP1 DUP4 PUSH1 0xFF DUP7 AND PUSH1 0x3 ADD PUSH1 0x20 DUP2 LT PUSH2 0x3AD9 JUMPI INVALID JUMPDEST BYTE MUL DUP2 PUSH2 0x3AE2 JUMPI INVALID JUMPDEST DIV PUSH1 0x40 DUP3 ADD MSTORE PUSH1 0x80 DUP2 ADD MLOAD PUSH2 0x100 SWAP1 DUP4 PUSH1 0xFF DUP7 AND PUSH1 0x4 ADD PUSH1 0x20 DUP2 LT PUSH2 0x3B03 JUMPI INVALID JUMPDEST BYTE MUL DUP2 PUSH2 0x3B0C JUMPI INVALID JUMPDEST DIV PUSH1 0x60 DUP3 ADD MSTORE PUSH3 0x7A120 DUP3 PUSH1 0xFF DUP6 AND PUSH1 0x5 ADD PUSH1 0x20 DUP2 LT PUSH2 0x3B28 JUMPI INVALID JUMPDEST BYTE MUL PUSH1 0xA0 DUP3 ADD MSTORE PUSH3 0x2625A0 DUP3 PUSH1 0xFF DUP6 AND PUSH1 0x6 ADD PUSH1 0x20 DUP2 LT PUSH2 0x3B45 JUMPI INVALID JUMPDEST BYTE MUL PUSH1 0xC0 DUP3 ADD MSTORE DUP2 PUSH1 0xFF DUP5 AND PUSH1 0x7 ADD PUSH1 0x20 DUP2 LT PUSH2 0x3B5E JUMPI INVALID JUMPDEST BYTE PUSH1 0xE0 DUP3 ADD MSTORE SWAP3 SWAP2 POP POP JUMP JUMPDEST PUSH1 0x0 DUP2 PUSH1 0xFF AND PUSH1 0x96 LT PUSH2 0x3B85 JUMPI PUSH1 0xFF DUP3 AND PUSH3 0x2625A0 MUL PUSH2 0xC1A JUMP JUMPDEST POP PUSH1 0x95 NOT PUSH1 0xFF SWAP2 SWAP1 SWAP2 AND ADD PUSH3 0xE4E1C0 MUL PUSH4 0x165A0BC0 ADD SWAP1 JUMP JUMPDEST PUSH1 0x40 MLOAD DUP1 PUSH1 0x60 ADD PUSH1 0x40 MSTORE DUP1 PUSH1 0x0 DUP2 MSTORE PUSH1 0x20 ADD PUSH1 0x0 DUP2 MSTORE PUSH1 0x20 ADD PUSH1 0x0 DUP2 MSTORE POP SWAP1 JUMP JUMPDEST PUSH1 0x40 DUP1 MLOAD PUSH1 0xA0 DUP2 ADD DUP3 MSTORE PUSH1 0x0 DUP1 DUP3 MSTORE PUSH1 0x20 DUP3 ADD DUP2 SWAP1 MSTORE SWAP2 DUP2 ADD DUP3 SWAP1 MSTORE SWAP1 PUSH1 0x60 DUP3 ADD SWAP1 DUP2 MSTORE PUSH1 0x20 ADD PUSH1 0x0 DUP2 MSTORE POP SWAP1 JUMP JUMPDEST PUSH1 0x40 MLOAD DUP1 PUSH1 0x40 ADD PUSH1 0x40 MSTORE DUP1 PUSH1 0x60 DUP2 MSTORE PUSH1 0x20 ADD PUSH1 0x60 DUP2 MSTORE POP SWAP1 JUMP JUMPDEST PUSH1 0x40 MLOAD DUP1 PUSH2 0x120 ADD PUSH1 0x40 MSTORE DUP1 PUSH1 0x0 DUP2 MSTORE PUSH1 0x20 ADD PUSH1 0x0 DUP2 MSTORE PUSH1 0x20 ADD PUSH1 0x0 DUP2 MSTORE PUSH1 0x20 ADD PUSH1 0x0 DUP2 MSTORE PUSH1 0x20 ADD PUSH1 0x0 DUP2 MSTORE PUSH1 0x20 ADD PUSH1 0x0 DUP2 MSTORE PUSH1 0x20 ADD PUSH1 0x0 DUP2 MSTORE PUSH1 0x20 ADD PUSH1 0x0 DUP2 MSTORE PUSH1 0x20 ADD PUSH1 0x0 DUP2 MSTORE POP SWAP1 JUMP JUMPDEST PUSH1 0x40 MLOAD DUP1 PUSH1 0x20 ADD PUSH1 0x40 MSTORE DUP1 PUSH1 0x1 SWAP1 PUSH1 0x20 DUP3 MUL DUP1 CALLDATASIZE DUP4 CALLDATACOPY POP SWAP2 SWAP3 SWAP2 POP POP JUMP JUMPDEST PUSH1 0x40 MLOAD DUP1 PUSH2 0x100 ADD PUSH1 0x40 MSTORE DUP1 PUSH1 0x0 DUP2 MSTORE PUSH1 0x20 ADD PUSH1 0x0 DUP2 MSTORE PUSH1 0x20 ADD PUSH1 0x0 DUP2 MSTORE PUSH1 0x20 ADD PUSH1 0x0 DUP2 MSTORE PUSH1 0x20 ADD PUSH1 0x0 DUP2 MSTORE PUSH1 0x20 ADD PUSH1 0x0 DUP2 MSTORE PUSH1 0x20 ADD PUSH1 0x0 DUP2 MSTORE PUSH1 0x20 ADD PUSH1 0x0 DUP2 MSTORE POP SWAP1 JUMP JUMPDEST DUP1 MLOAD PUSH2 0xC08 DUP2 PUSH2 0x46FC JUMP JUMPDEST PUSH1 0x0 DUP1 DUP4 PUSH1 0x1F DUP5 ADD SLT PUSH2 0x3CD3 JUMPI DUP2 DUP3 REVERT JUMPDEST POP DUP2 CALLDATALOAD PUSH1 0x1 PUSH1 0x1 PUSH1 0x40 SHL SUB DUP2 GT ISZERO PUSH2 0x3CE9 JUMPI DUP2 DUP3 REVERT JUMPDEST PUSH1 0x20 DUP4 ADD SWAP2 POP DUP4 PUSH1 0x20 DUP1 DUP4 MUL DUP6 ADD ADD GT ISZERO PUSH2 0x3D03 JUMPI PUSH1 0x0 DUP1 REVERT JUMPDEST SWAP3 POP SWAP3 SWAP1 POP JUMP JUMPDEST PUSH1 0x0 DUP3 PUSH1 0x1F DUP4 ADD SLT PUSH2 0x3D1A JUMPI DUP1 DUP2 REVERT JUMPDEST DUP2 MLOAD PUSH1 0x20 PUSH2 0x3D2F PUSH2 0x3D2A DUP4 PUSH2 0x46DF JUMP JUMPDEST PUSH2 0x46BC JUMP JUMPDEST DUP3 DUP2 MSTORE DUP2 DUP2 ADD SWAP1 DUP6 DUP4 ADD DUP4 DUP6 MUL DUP8 ADD DUP5 ADD DUP9 LT ISZERO PUSH2 0x3D4B JUMPI DUP6 DUP7 REVERT JUMPDEST DUP6 JUMPDEST DUP6 DUP2 LT ISZERO PUSH2 0x3D72 JUMPI DUP2 MLOAD PUSH2 0x3D60 DUP2 PUSH2 0x46FC JUMP JUMPDEST DUP5 MSTORE SWAP3 DUP5 ADD SWAP3 SWAP1 DUP5 ADD SWAP1 PUSH1 0x1 ADD PUSH2 0x3D4D JUMP JUMPDEST POP SWAP1 SWAP8 SWAP7 POP POP POP POP POP POP POP JUMP JUMPDEST PUSH1 0x0 PUSH1 0x1F DUP4 DUP2 DUP5 ADD SLT PUSH2 0x3D90 JUMPI DUP2 DUP3 REVERT JUMPDEST DUP3 MLOAD PUSH1 0x20 PUSH2 0x3DA0 PUSH2 0x3D2A DUP4 PUSH2 0x46DF JUMP JUMPDEST DUP3 DUP2 MSTORE DUP2 DUP2 ADD SWAP1 DUP7 DUP4 ADD DUP7 JUMPDEST DUP6 DUP2 LT ISZERO PUSH2 0x3E44 JUMPI DUP2 MLOAD DUP10 ADD DUP11 PUSH1 0x3F DUP3 ADD SLT PUSH2 0x3DC6 JUMPI DUP9 DUP10 REVERT JUMPDEST DUP6 DUP2 ADD MLOAD PUSH1 0x1 PUSH1 0x1 PUSH1 0x40 SHL SUB DUP2 GT ISZERO PUSH2 0x3DDB JUMPI INVALID JUMPDEST PUSH2 0x3DEC DUP2 DUP11 ADD PUSH1 0x1F NOT AND DUP9 ADD PUSH2 0x46BC JUMP JUMPDEST DUP2 DUP2 MSTORE PUSH1 0x40 DUP14 DUP2 DUP5 DUP7 ADD ADD GT ISZERO PUSH2 0x3E01 JUMPI DUP12 DUP13 REVERT JUMPDEST DUP12 JUMPDEST DUP4 DUP2 LT ISZERO PUSH2 0x3E1E JUMPI DUP5 DUP2 ADD DUP3 ADD MLOAD DUP4 DUP3 ADD DUP12 ADD MSTORE DUP10 ADD PUSH2 0x3E03 JUMP JUMPDEST DUP4 DUP2 GT ISZERO PUSH2 0x3E2E JUMPI DUP13 DUP11 DUP6 DUP6 ADD ADD MSTORE JUMPDEST POP POP DUP7 MSTORE POP POP SWAP3 DUP5 ADD SWAP3 SWAP1 DUP5 ADD SWAP1 PUSH1 0x1 ADD PUSH2 0x3DAC JUMP JUMPDEST POP SWAP1 SWAP9 SWAP8 POP POP POP POP POP POP POP POP JUMP JUMPDEST PUSH1 0x0 DUP3 PUSH1 0x1F DUP4 ADD SLT PUSH2 0x3E62 JUMPI DUP1 DUP2 REVERT JUMPDEST DUP2 MLOAD PUSH1 0x20 PUSH2 0x3E72 PUSH2 0x3D2A DUP4 PUSH2 0x46DF JUMP JUMPDEST DUP3 DUP2 MSTORE DUP2 DUP2 ADD SWAP1 DUP6 DUP4 ADD DUP4 DUP6 MUL DUP8 ADD DUP5 ADD DUP9 LT ISZERO PUSH2 0x3E8E JUMPI DUP6 DUP7 REVERT JUMPDEST DUP6 JUMPDEST DUP6 DUP2 LT ISZERO PUSH2 0x3D72 JUMPI DUP2 MLOAD DUP5 MSTORE SWAP3 DUP5 ADD SWAP3 SWAP1 DUP5 ADD SWAP1 PUSH1 0x1 ADD PUSH2 0x3E90 JUMP JUMPDEST DUP1 CALLDATALOAD PUSH2 0xFFFF DUP2 AND DUP2 EQ PUSH2 0xC08 JUMPI PUSH1 0x0 DUP1 REVERT JUMPDEST DUP1 CALLDATALOAD PUSH1 0xFF DUP2 AND DUP2 EQ PUSH2 0xC08 JUMPI PUSH1 0x0 DUP1 REVERT JUMPDEST PUSH1 0x0 PUSH1 0x20 DUP3 DUP5 SUB SLT ISZERO PUSH2 0x3EE0 JUMPI DUP1 DUP2 REVERT JUMPDEST DUP2 CALLDATALOAD PUSH2 0xC32 DUP2 PUSH2 0x46FC JUMP JUMPDEST PUSH1 0x0 DUP1 PUSH1 0x20 DUP4 DUP6 SUB SLT ISZERO PUSH2 0x3EFD JUMPI DUP1 DUP2 REVERT JUMPDEST DUP3 CALLDATALOAD PUSH1 0x1 PUSH1 0x1 PUSH1 0x40 SHL SUB DUP2 GT ISZERO PUSH2 0x3F12 JUMPI DUP2 DUP3 REVERT JUMPDEST PUSH2 0x3F1E DUP6 DUP3 DUP7 ADD PUSH2 0x3CC2 JUMP JUMPDEST SWAP1 SWAP7 SWAP1 SWAP6 POP SWAP4 POP POP POP POP JUMP JUMPDEST PUSH1 0x0 PUSH1 0x20 DUP3 DUP5 SUB SLT ISZERO PUSH2 0x3F3B JUMPI DUP1 DUP2 REVERT JUMPDEST DUP2 MLOAD PUSH1 0x1 PUSH1 0x1 PUSH1 0x40 SHL SUB DUP2 GT ISZERO PUSH2 0x3F50 JUMPI DUP2 DUP3 REVERT JUMPDEST PUSH2 0xD91 DUP5 DUP3 DUP6 ADD PUSH2 0x3D0A JUMP JUMPDEST PUSH1 0x0 PUSH1 0x20 DUP1 DUP4 DUP6 SUB SLT ISZERO PUSH2 0x3F6E JUMPI DUP2 DUP3 REVERT JUMPDEST DUP3 MLOAD PUSH1 0x1 PUSH1 0x1 PUSH1 0x40 SHL SUB DUP1 DUP3 GT ISZERO PUSH2 0x3F84 JUMPI DUP4 DUP5 REVERT JUMPDEST DUP2 DUP6 ADD SWAP2 POP DUP6 PUSH1 0x1F DUP4 ADD SLT PUSH2 0x3F97 JUMPI DUP4 DUP5 REVERT JUMPDEST DUP2 MLOAD PUSH2 0x3FA5 PUSH2 0x3D2A DUP3 PUSH2 0x46DF JUMP JUMPDEST DUP2 DUP2 MSTORE DUP5 DUP2 ADD SWAP1 DUP5 DUP7 ADD DUP8 JUMPDEST DUP5 DUP2 LT ISZERO PUSH2 0x4072 JUMPI DUP2 MLOAD DUP8 ADD PUSH1 0xA0 DUP1 PUSH1 0x1F NOT DUP4 DUP16 SUB ADD SLT ISZERO PUSH2 0x3FD1 JUMPI DUP11 DUP12 REVERT JUMPDEST PUSH2 0x3FDA DUP2 PUSH2 0x46BC JUMP JUMPDEST DUP11 DUP4 ADD MLOAD DUP10 DUP2 GT ISZERO PUSH2 0x3FEA JUMPI DUP13 DUP14 REVERT JUMPDEST PUSH2 0x3FF8 DUP16 DUP14 DUP4 DUP8 ADD ADD PUSH2 0x3D0A JUMP JUMPDEST DUP3 MSTORE POP PUSH1 0x40 DUP4 ADD MLOAD DUP10 DUP2 GT ISZERO PUSH2 0x400C JUMPI DUP13 DUP14 REVERT JUMPDEST PUSH2 0x401A DUP16 DUP14 DUP4 DUP8 ADD ADD PUSH2 0x3D7F JUMP JUMPDEST DUP13 DUP4 ADD MSTORE POP PUSH1 0x60 DUP4 ADD MLOAD DUP10 DUP2 GT ISZERO PUSH2 0x4030 JUMPI DUP13 DUP14 REVERT JUMPDEST PUSH2 0x403E DUP16 DUP14 DUP4 DUP8 ADD ADD PUSH2 0x3E52 JUMP JUMPDEST PUSH1 0x40 DUP4 ADD MSTORE POP PUSH1 0x80 DUP4 ADD MLOAD PUSH1 0x60 DUP3 ADD MSTORE PUSH2 0x4059 DUP3 DUP5 ADD PUSH2 0x3CB7 JUMP JUMPDEST PUSH1 0x80 DUP3 ADD MSTORE DUP7 MSTORE POP POP SWAP3 DUP8 ADD SWAP3 SWAP1 DUP8 ADD SWAP1 PUSH1 0x1 ADD PUSH2 0x3FB1 JUMP JUMPDEST POP SWAP1 SWAP10 SWAP9 POP POP POP POP POP POP POP POP POP JUMP JUMPDEST PUSH1 0x0 PUSH1 0x20 DUP1 DUP4 DUP6 SUB SLT ISZERO PUSH2 0x4093 JUMPI DUP2 DUP3 REVERT JUMPDEST DUP3 MLOAD PUSH1 0x1 PUSH1 0x1 PUSH1 0x40 SHL SUB DUP1 DUP3 GT ISZERO PUSH2 0x40A9 JUMPI DUP4 DUP5 REVERT JUMPDEST DUP2 DUP6 ADD SWAP2 POP DUP6 PUSH1 0x1F DUP4 ADD SLT PUSH2 0x40BC JUMPI DUP4 DUP5 REVERT JUMPDEST DUP2 MLOAD PUSH2 0x40CA PUSH2 0x3D2A DUP3 PUSH2 0x46DF JUMP JUMPDEST DUP2 DUP2 MSTORE DUP5 DUP2 ADD SWAP1 DUP5 DUP7 ADD DUP8 JUMPDEST DUP5 DUP2 LT ISZERO PUSH2 0x4072 JUMPI DUP2 MLOAD DUP8 ADD PUSH1 0x80 DUP2 DUP14 SUB PUSH1 0x1F NOT ADD SLT ISZERO PUSH2 0x40F5 JUMPI DUP10 DUP11 REVERT JUMPDEST PUSH1 0x40 DUP1 MLOAD PUSH1 0x80 DUP2 ADD DUP2 DUP2 LT DUP11 DUP3 GT OR ISZERO PUSH2 0x410B JUMPI INVALID JUMPDEST DUP3 MSTORE DUP3 DUP12 ADD MLOAD DUP10 DUP2 GT ISZERO PUSH2 0x411D JUMPI DUP13 DUP14 REVERT JUMPDEST PUSH2 0x412B DUP16 DUP14 DUP4 DUP8 ADD ADD PUSH2 0x3D0A JUMP JUMPDEST DUP3 MSTORE POP DUP2 DUP4 ADD MLOAD DUP10 DUP2 GT ISZERO PUSH2 0x413E JUMPI DUP13 DUP14 REVERT JUMPDEST PUSH2 0x414C DUP16 DUP14 DUP4 DUP8 ADD ADD PUSH2 0x3D7F JUMP JUMPDEST DUP13 DUP4 ADD MSTORE POP PUSH1 0x60 DUP4 ADD MLOAD DUP3 DUP3 ADD MSTORE PUSH2 0x4166 PUSH1 0x80 DUP5 ADD PUSH2 0x3CB7 JUMP JUMPDEST PUSH1 0x60 DUP3 ADD MSTORE DUP7 MSTORE POP POP SWAP3 DUP8 ADD SWAP3 SWAP1 DUP8 ADD SWAP1 PUSH1 0x1 ADD PUSH2 0x40D6 JUMP JUMPDEST PUSH1 0x0 DUP1 PUSH1 0x20 DUP4 DUP6 SUB SLT ISZERO PUSH2 0x4191 JUMPI DUP2 DUP3 REVERT JUMPDEST DUP3 CALLDATALOAD PUSH1 0x1 PUSH1 0x1 PUSH1 0x40 SHL SUB DUP2 GT ISZERO PUSH2 0x3F12 JUMPI DUP3 DUP4 REVERT JUMPDEST PUSH1 0x0 PUSH1 0x20 DUP3 DUP5 SUB SLT ISZERO PUSH2 0x41B7 JUMPI DUP1 DUP2 REVERT JUMPDEST DUP2 MLOAD PUSH1 0x1 PUSH1 0x1 PUSH1 0x40 SHL SUB DUP2 GT ISZERO PUSH2 0x41CC JUMPI DUP2 DUP3 REVERT JUMPDEST PUSH2 0xD91 DUP5 DUP3 DUP6 ADD PUSH2 0x3E52 JUMP JUMPDEST PUSH1 0x0 PUSH1 0x20 DUP3 DUP5 SUB SLT ISZERO PUSH2 0x41E9 JUMPI DUP1 DUP2 REVERT JUMPDEST PUSH2 0xC32 DUP3 PUSH2 0x3EAC JUMP JUMPDEST PUSH1 0x0 DUP1 PUSH1 0x0 PUSH1 0x40 DUP5 DUP7 SUB SLT ISZERO PUSH2 0x4206 JUMPI DUP1 DUP2 REVERT JUMPDEST PUSH2 0x420F DUP5 PUSH2 0x3EAC JUMP JUMPDEST SWAP3 POP PUSH1 0x20 DUP5 ADD CALLDATALOAD PUSH1 0x1 PUSH1 0x1 PUSH1 0x40 SHL SUB DUP1 DUP3 GT ISZERO PUSH2 0x422A JUMPI DUP3 DUP4 REVERT JUMPDEST DUP2 DUP7 ADD SWAP2 POP DUP7 PUSH1 0x1F DUP4 ADD SLT PUSH2 0x423D JUMPI DUP3 DUP4 REVERT JUMPDEST DUP2 CALLDATALOAD DUP2 DUP2 GT ISZERO PUSH2 0x424B JUMPI DUP4 DUP5 REVERT JUMPDEST DUP8 PUSH1 0x20 PUSH1 0x40 DUP4 MUL DUP6 ADD ADD GT ISZERO PUSH2 0x425F JUMPI DUP4 DUP5 REVERT JUMPDEST PUSH1 0x20 DUP4 ADD SWAP5 POP DUP1 SWAP4 POP POP POP POP SWAP3 POP SWAP3 POP SWAP3 JUMP JUMPDEST PUSH1 0x0 DUP1 PUSH1 0x40 DUP4 DUP6 SUB SLT ISZERO PUSH2 0x4284 JUMPI DUP2 DUP3 REVERT JUMPDEST PUSH2 0x428D DUP4 PUSH2 0x3EAC JUMP JUMPDEST SWAP5 PUSH1 0x20 SWAP4 SWAP1 SWAP4 ADD CALLDATALOAD SWAP4 POP POP POP JUMP JUMPDEST PUSH1 0x0 DUP1 PUSH1 0x40 DUP4 DUP6 SUB SLT ISZERO PUSH2 0x42AD JUMPI DUP2 DUP3 REVERT JUMPDEST PUSH2 0x42B6 DUP4 PUSH2 0x3EAC JUMP JUMPDEST SWAP2 POP PUSH1 0x20 DUP4 ADD CALLDATALOAD PUSH4 0xFFFFFFFF DUP2 AND DUP2 EQ PUSH2 0x42CE JUMPI DUP2 DUP3 REVERT JUMPDEST DUP1 SWAP2 POP POP SWAP3 POP SWAP3 SWAP1 POP JUMP JUMPDEST PUSH1 0x0 DUP1 PUSH1 0x40 DUP4 DUP6 SUB SLT ISZERO PUSH2 0x42EB JUMPI DUP2 DUP3 REVERT JUMPDEST PUSH2 0x42F4 DUP4 PUSH2 0x3EAC JUMP JUMPDEST SWAP2 POP PUSH1 0x20 DUP4 ADD CALLDATALOAD PUSH5 0xFFFFFFFFFF DUP2 AND DUP2 EQ PUSH2 0x42CE JUMPI DUP2 DUP3 REVERT JUMPDEST PUSH1 0x0 PUSH1 0x20 DUP3 DUP5 SUB SLT ISZERO PUSH2 0x431E JUMPI DUP1 DUP2 REVERT JUMPDEST POP MLOAD SWAP2 SWAP1 POP JUMP JUMPDEST PUSH1 0x0 DUP1 PUSH1 0x40 DUP4 DUP6 SUB SLT ISZERO PUSH2 0x4337 JUMPI DUP2 DUP3 REVERT JUMPDEST POP POP DUP1 MLOAD PUSH1 0x20 SWAP1 SWAP2 ADD MLOAD SWAP1 SWAP3 SWAP1 SWAP2 POP JUMP JUMPDEST PUSH1 0x0 PUSH1 0x20 DUP3 DUP5 SUB SLT ISZERO PUSH2 0x4359 JUMPI DUP1 DUP2 REVERT JUMPDEST PUSH2 0xC32 DUP3 PUSH2 0x3EBE JUMP JUMPDEST PUSH1 0x0 DUP2 MLOAD DUP1 DUP5 MSTORE PUSH1 0x20 DUP1 DUP6 ADD SWAP5 POP DUP1 DUP5 ADD DUP4 JUMPDEST DUP4 DUP2 LT ISZERO PUSH2 0x4391 JUMPI DUP2 MLOAD DUP8 MSTORE SWAP6 DUP3 ADD SWAP6 SWAP1 DUP3 ADD SWAP1 PUSH1 0x1 ADD PUSH2 0x4375 JUMP JUMPDEST POP SWAP5 SWAP6 SWAP5 POP POP POP POP POP JUMP JUMPDEST PUSH1 0x1 PUSH1 0x1 PUSH1 0xA0 SHL SUB SWAP2 SWAP1 SWAP2 AND DUP2 MSTORE PUSH1 0x20 ADD SWAP1 JUMP JUMPDEST PUSH1 0x1 PUSH1 0x1 PUSH1 0xA0 SHL SUB SWAP4 DUP5 AND DUP2 MSTORE SWAP2 SWAP1 SWAP3 AND PUSH1 0x20 DUP3 ADD MSTORE PUSH1 0x40 DUP2 ADD SWAP2 SWAP1 SWAP2 MSTORE PUSH1 0x60 ADD SWAP1 JUMP JUMPDEST PUSH1 0x1 PUSH1 0x1 PUSH1 0xA0 SHL SUB DUP5 DUP2 AND DUP3 MSTORE PUSH1 0x40 PUSH1 0x20 DUP1 DUP5 ADD DUP3 SWAP1 MSTORE SWAP1 DUP4 ADD DUP5 SWAP1 MSTORE PUSH1 0x0 SWAP2 DUP6 SWAP2 PUSH1 0x60 DUP6 ADD DUP5 JUMPDEST DUP8 DUP2 LT ISZERO PUSH2 0x4423 JUMPI DUP5 CALLDATALOAD PUSH2 0x440F DUP2 PUSH2 0x46FC JUMP JUMPDEST DUP5 AND DUP3 MSTORE SWAP4 DUP3 ADD SWAP4 SWAP1 DUP3 ADD SWAP1 PUSH1 0x1 ADD PUSH2 0x43FC JUMP JUMPDEST POP SWAP9 SWAP8 POP POP POP POP POP POP POP POP JUMP JUMPDEST PUSH1 0x1 PUSH1 0x1 PUSH1 0xA0 SHL SUB SWAP3 SWAP1 SWAP3 AND DUP3 MSTORE PUSH1 0x20 DUP3 ADD MSTORE PUSH1 0x40 ADD SWAP1 JUMP JUMPDEST PUSH1 0x40 DUP1 DUP3 MSTORE DUP4 MLOAD SWAP1 DUP3 ADD DUP2 SWAP1 MSTORE PUSH1 0x0 SWAP1 PUSH1 0x20 SWAP1 PUSH1 0x60 DUP5 ADD SWAP1 DUP3 DUP8 ADD DUP5 JUMPDEST DUP3 DUP2 LT ISZERO PUSH2 0x448B JUMPI DUP2 MLOAD PUSH1 0x1 PUSH1 0x1 PUSH1 0xA0 SHL SUB AND DUP5 MSTORE SWAP3 DUP5 ADD SWAP3 SWAP1 DUP5 ADD SWAP1 PUSH1 0x1 ADD PUSH2 0x4466 JUMP JUMPDEST POP POP POP DUP4 DUP2 SUB DUP3 DUP6 ADD MSTORE PUSH2 0x449F DUP2 DUP7 PUSH2 0x4362 JUMP JUMPDEST SWAP7 SWAP6 POP POP POP POP POP POP JUMP JUMPDEST PUSH1 0x0 PUSH1 0x20 DUP3 MSTORE PUSH2 0xC32 PUSH1 0x20 DUP4 ADD DUP5 PUSH2 0x4362 JUMP JUMPDEST SWAP1 DUP2 MSTORE PUSH1 0x20 ADD SWAP1 JUMP JUMPDEST PUSH1 0x20 DUP1 DUP3 MSTORE PUSH1 0x19 SWAP1 DUP3 ADD MSTORE PUSH32 0x5472656173757279206D616E6167657220726571756972656400000000000000 PUSH1 0x40 DUP3 ADD MSTORE PUSH1 0x60 ADD SWAP1 JUMP JUMPDEST PUSH1 0x20 DUP1 DUP3 MSTORE PUSH1 0x14 SWAP1 DUP3 ADD MSTORE PUSH20 0x2932B130B630B731B4B7339031B7B7B63237BBB7 PUSH1 0x61 SHL PUSH1 0x40 DUP3 ADD MSTORE PUSH1 0x60 ADD SWAP1 JUMP JUMPDEST PUSH1 0x20 DUP1 DUP3 MSTORE DUP2 DUP2 ADD MSTORE PUSH32 0x4F776E61626C653A2063616C6C6572206973206E6F7420746865206F776E6572 PUSH1 0x40 DUP3 ADD MSTORE PUSH1 0x60 ADD SWAP1 JUMP JUMPDEST PUSH1 0x20 DUP1 DUP3 MSTORE PUSH1 0x12 SWAP1 DUP3 ADD MSTORE PUSH18 0x12511CC81B5D5CDD081899481CDBDC9D1959 PUSH1 0x72 SHL PUSH1 0x40 DUP3 ADD MSTORE PUSH1 0x60 ADD SWAP1 JUMP JUMPDEST PUSH1 0x20 DUP1 DUP3 MSTORE PUSH1 0xC SWAP1 DUP3 ADD MSTORE PUSH12 0x496E76616C69642072617465 PUSH1 0xA0 SHL PUSH1 0x40 DUP3 ADD MSTORE PUSH1 0x60 ADD SWAP1 JUMP JUMPDEST PUSH1 0x20 DUP1 DUP3 MSTORE PUSH1 0x13 SWAP1 DUP3 ADD MSTORE PUSH19 0x125B9D985B1A590818DD5C9C995B98DE481A59 PUSH1 0x6A SHL PUSH1 0x40 DUP3 ADD MSTORE PUSH1 0x60 ADD SWAP1 JUMP JUMPDEST PUSH2 0xFFFF DUP5 AND DUP2 MSTORE PUSH1 0x40 PUSH1 0x20 DUP1 DUP4 ADD DUP3 SWAP1 MSTORE DUP3 DUP3 ADD DUP5 SWAP1 MSTORE PUSH1 0x0 SWAP2 SWAP1 DUP6 SWAP1 PUSH1 0x60 DUP6 ADD DUP5 JUMPDEST DUP8 DUP2 LT ISZERO PUSH2 0x4423 JUMPI DUP4 CALLDATALOAD PUSH2 0x4614 DUP2 PUSH2 0x46FC JUMP JUMPDEST PUSH1 0x1 PUSH1 0x1 PUSH1 0xA0 SHL SUB AND DUP3 MSTORE PUSH1 0xFF PUSH2 0x462C DUP6 DUP6 ADD PUSH2 0x3EBE JUMP JUMPDEST AND DUP3 DUP5 ADD MSTORE SWAP3 DUP5 ADD SWAP3 SWAP1 DUP5 ADD SWAP1 PUSH1 0x1 ADD PUSH2 0x4601 JUMP JUMPDEST PUSH2 0xFFFF SWAP3 SWAP1 SWAP3 AND DUP3 MSTORE PUSH1 0x20 DUP3 ADD MSTORE PUSH1 0x40 ADD SWAP1 JUMP JUMPDEST PUSH2 0xFFFF SWAP4 SWAP1 SWAP4 AND DUP4 MSTORE PUSH1 0x20 DUP4 ADD SWAP2 SWAP1 SWAP2 MSTORE PUSH1 0x40 DUP3 ADD MSTORE PUSH1 0x60 ADD SWAP1 JUMP JUMPDEST PUSH2 0xFFFF SWAP3 SWAP1 SWAP3 AND DUP3 MSTORE PUSH4 0xFFFFFFFF AND PUSH1 0x20 DUP3 ADD MSTORE PUSH1 0x40 ADD SWAP1 JUMP JUMPDEST PUSH2 0xFFFF SWAP3 SWAP1 SWAP3 AND DUP3 MSTORE PUSH5 0xFFFFFFFFFF AND PUSH1 0x20 DUP3 ADD MSTORE PUSH1 0x40 ADD SWAP1 JUMP JUMPDEST SWAP3 DUP4 MSTORE PUSH1 0x20 DUP4 ADD SWAP2 SWAP1 SWAP2 MSTORE PUSH1 0x40 DUP3 ADD MSTORE PUSH1 0x60 ADD SWAP1 JUMP JUMPDEST PUSH1 0x40 MLOAD DUP2 DUP2 ADD PUSH1 0x1 PUSH1 0x1 PUSH1 0x40 SHL SUB DUP2 GT DUP3 DUP3 LT OR ISZERO PUSH2 0x46D7 JUMPI INVALID JUMPDEST PUSH1 0x40 MSTORE SWAP2 SWAP1 POP JUMP JUMPDEST PUSH1 0x0 PUSH1 0x1 PUSH1 0x1 PUSH1 0x40 SHL SUB DUP3 GT ISZERO PUSH2 0x46F2 JUMPI INVALID JUMPDEST POP PUSH1 0x20 SWAP1 DUP2 MUL ADD SWAP1 JUMP JUMPDEST PUSH1 0x1 PUSH1 0x1 PUSH1 0xA0 SHL SUB DUP2 AND DUP2 EQ PUSH2 0xC73 JUMPI PUSH1 0x0 DUP1 REVERT INVALID COINBASE PUSH5 0x6472657373 GASPRICE KECCAK256 PUSH10 0x6E73756666696369656E PUSH21 0x2062616C616E636520666F722063616C6C53616665 GASLIMIT MSTORE NUMBER ORIGIN ADDRESS GASPRICE KECCAK256 GASLIMIT MSTORE NUMBER ORIGIN ADDRESS KECCAK256 PUSH16 0x7065726174696F6E20646964206E6F74 KECCAK256 PUSH20 0x756363656564A26469706673582212200ECE9816 SAR SGT PUSH14 0x51C75CEB67A76F6A1D72E2F3E5C4 0xA8 0xD3 0xA5 CALLDATASIZE DIFFICULTY 0xC6 0x29 0xE6 PUSH24 0x664A64736F6C634300070600330000000000000000000000 ","sha1":"7f9f88153b49b635fb5380df9802d9a4645a7956","source":"// SPDX-License-Identifier: BSUL-1.1\npragma solidity =0.7.6;\npragma abicoder v2;\n\nimport {\n    Token,\n    PrimeRate,\n    PrimeCashFactors,\n    PrimeCashFactorsStorage,\n    RebalancingContextStorage\n} from \"../../global/Types.sol\";\nimport {StorageLayoutV2} from \"../../global/StorageLayoutV2.sol\";\nimport {LibStorage} from \"../../global/LibStorage.sol\";\nimport {Constants} from \"../../global/Constants.sol\";\nimport {SafeInt256} from \"../../math/SafeInt256.sol\";\nimport {SafeUint256} from \"../../math/SafeUint256.sol\";\n\nimport {Emitter} from \"../../internal/Emitter.sol\";\nimport {BalanceHandler} from \"../../internal/balances/BalanceHandler.sol\";\nimport {PrimeRateLib} from \"../../internal/pCash/PrimeRateLib.sol\";\nimport {TokenHandler} from \"../../internal/balances/TokenHandler.sol\";\nimport {nTokenHandler} from \"../../internal/nToken/nTokenHandler.sol\";\nimport {nTokenSupply} from \"../../internal/nToken/nTokenSupply.sol\";\nimport {PrimeCashExchangeRate, PrimeCashFactors} from \"../../internal/pCash/PrimeCashExchangeRate.sol\";\nimport {GenericToken} from \"../../internal/balances/protocols/GenericToken.sol\";\n\nimport {ActionGuards} from \"./ActionGuards.sol\";\nimport {NotionalTreasury} from \"../../../interfaces/notional/NotionalTreasury.sol\";\nimport {Comptroller} from \"../../../interfaces/compound/ComptrollerInterface.sol\";\nimport {CErc20Interface} from \"../../../interfaces/compound/CErc20Interface.sol\";\nimport {IPrimeCashHoldingsOracle, DepositData, RedeemData} from \"../../../interfaces/notional/IPrimeCashHoldingsOracle.sol\";\nimport {IRebalancingStrategy, RebalancingData} from \"../../../interfaces/notional/IRebalancingStrategy.sol\";\nimport {IERC20} from \"@openzeppelin/contracts/token/ERC20/IERC20.sol\";\nimport {SafeERC20} from \"@openzeppelin/contracts/token/ERC20/SafeERC20.sol\";\n\ncontract TreasuryAction is StorageLayoutV2, ActionGuards, NotionalTreasury {\n    using SafeUint256 for uint256;\n    using SafeInt256 for int256;\n    using SafeERC20 for IERC20;\n    using TokenHandler for Token;\n\n    IERC20 public immutable COMP;\n    Comptroller public immutable COMPTROLLER;\n\n    /// @dev Harvest methods are only callable by the authorized treasury manager contract\n    modifier onlyManagerContract() {\n        require(treasuryManagerContract == msg.sender, \"Treasury manager required\");\n        _;\n    }\n\n    constructor(Comptroller _comptroller) {\n        COMPTROLLER = _comptroller;\n        COMP = address(_comptroller) == address(0) ? IERC20(address(0)) : IERC20(_comptroller.getCompAddress());\n    }\n\n    /// @notice Sets the new treasury manager contract\n    function setTreasuryManager(address manager) external override onlyOwner {\n        emit TreasuryManagerChanged(treasuryManagerContract, manager);\n        treasuryManagerContract = manager;\n    }\n\n    /// @notice Sets the reserve buffer. This is the amount of reserve balance to keep denominated in 1e8\n    /// The reserve cannot be harvested if it's below this amount. This portion of the reserve will remain on\n    /// the contract to act as a buffer against potential insolvency.\n    /// @param currencyId refers to the currency of the reserve\n    /// @param bufferAmount reserve buffer amount to keep in internal token precision (1e8)\n    function setReserveBuffer(uint16 currencyId, uint256 bufferAmount) external override onlyOwner {\n        _checkValidCurrency(currencyId);\n        reserveBuffer[currencyId] = bufferAmount;\n        emit ReserveBufferUpdated(currencyId, bufferAmount);\n    }\n\n    /// @notice Updates the emission rate of incentives for a given currency\n    /// @dev emit:UpdateIncentiveEmissionRate\n    /// @param currencyId the currency id that the nToken references\n    /// @param newEmissionRate Target total incentives to emit for an nToken over an entire year\n    /// denominated in WHOLE TOKENS (i.e. setting this to 1 means 1e8 tokens). The rate will not be\n    /// exact due to multiplier effects and fluctuating token supply.\n    function updateIncentiveEmissionRate(uint16 currencyId, uint32 newEmissionRate)\n        external\n        override\n        onlyOwner\n    {\n        _checkValidCurrency(currencyId);\n        address nTokenAddress = nTokenHandler.nTokenAddress(currencyId);\n        require(nTokenAddress != address(0));\n        // Sanity check that emissions rate is not specified in 1e8 terms.\n        require(newEmissionRate < Constants.INTERNAL_TOKEN_PRECISION, \"Invalid rate\");\n\n        nTokenSupply.setIncentiveEmissionRate(nTokenAddress, newEmissionRate, block.timestamp);\n        emit UpdateIncentiveEmissionRate(currencyId, newEmissionRate);\n    }\n\n\n    /// @notice This is used in the case of insolvency. It allows the owner to re-align the reserve with its correct balance.\n    /// @param currencyId refers to the currency of the reserve\n    /// @param newBalance new reserve balance to set, must be less than the current balance\n    function setReserveCashBalance(uint16 currencyId, int256 newBalance)\n        external\n        override\n        onlyOwner\n    {\n        _checkValidCurrency(currencyId);\n        // newBalance cannot be negative and is checked inside BalanceHandler.setReserveCashBalance\n        BalanceHandler.setReserveCashBalance(currencyId, newBalance);\n    }\n\n    /// @notice Claims COMP incentives earned and transfers to the treasury manager contract.\n    /// @param cTokens a list of cTokens to claim incentives for\n    /// @return the balance of COMP claimed\n    function claimCOMPAndTransfer(address[] calldata cTokens)\n        external\n        override\n        onlyManagerContract\n        nonReentrant\n        returns (uint256)\n    {\n        uint256 balanceBefore = COMP.balanceOf(address(this));\n        COMPTROLLER.claimComp(address(this), cTokens);\n        uint256 balanceAfter = COMP.balanceOf(address(this));\n\n        // NOTE: the onlyManagerContract modifier prevents a transfer to address(0) here\n        uint256 netBalance = balanceAfter.sub(balanceBefore);\n        if (netBalance > 0) {\n            COMP.safeTransfer(msg.sender, netBalance);\n        }\n\n        // NOTE: TreasuryManager contract will emit a COMPHarvested event\n        return netBalance;\n    }\n\n    /// @notice redeems and transfers tokens to the treasury manager contract\n    function _redeemAndTransfer(uint16 currencyId, int256 primeCashRedeemAmount) private returns (uint256) {\n        PrimeRate memory primeRate = PrimeRateLib.buildPrimeRateStateful(currencyId);\n        Emitter.emitTransferPrimeCash(Constants.FEE_RESERVE, treasuryManagerContract, currencyId, primeCashRedeemAmount);\n\n        int256 actualTransferExternal = TokenHandler.withdrawPrimeCash(\n            treasuryManagerContract,\n            currencyId,\n            primeCashRedeemAmount.neg(),\n            primeRate,\n            true // if ETH, transfers it as WETH\n        ).neg();\n\n        require(actualTransferExternal > 0);\n        return uint256(actualTransferExternal);\n    }\n\n    /// @notice Transfers some amount of reserve assets to the treasury manager contract to be invested\n    /// into the sNOTE pool.\n    /// @param currencies an array of currencies to transfer from Notional\n    function transferReserveToTreasury(uint16[] calldata currencies)\n        external\n        override\n        onlyManagerContract\n        nonReentrant\n        returns (uint256[] memory)\n    {\n        uint256[] memory amountsTransferred = new uint256[](currencies.length);\n\n        for (uint256 i; i < currencies.length; ++i) {\n            // Prevents duplicate currency IDs\n            if (i > 0) require(currencies[i] > currencies[i - 1], \"IDs must be sorted\");\n\n            uint16 currencyId = currencies[i];\n\n            _checkValidCurrency(currencyId);\n\n            // Reserve buffer amount in INTERNAL_TOKEN_PRECISION\n            int256 bufferInternal = SafeInt256.toInt(reserveBuffer[currencyId]);\n\n            // Reserve requirement not defined\n            if (bufferInternal == 0) continue;\n\n            int256 reserveInternal = BalanceHandler.getPositiveCashBalance(Constants.FEE_RESERVE, currencyId);\n\n            // Do not withdraw anything if reserve is below or equal to reserve requirement\n            if (reserveInternal <= bufferInternal) continue;\n\n            // Actual reserve amount allowed to be redeemed and transferred\n            // NOTE: overflow not possible with the check above\n            int256 primeCashRedeemed = reserveInternal - bufferInternal;\n\n            // Redeems prime cash and transfer underlying to treasury manager contract\n            amountsTransferred[i] = _redeemAndTransfer(currencyId, primeCashRedeemed);\n\n            // Updates the reserve balance\n            BalanceHandler.harvestExcessReserveBalance(\n                currencyId,\n                reserveInternal,\n                primeCashRedeemed\n            );\n        }\n\n        // NOTE: TreasuryManager contract will emit an AssetsHarvested event\n        return amountsTransferred;\n    }\n\n    function setRebalancingTargets(uint16 currencyId, RebalancingTargetConfig[] calldata targets) external override onlyOwner {\n        IPrimeCashHoldingsOracle oracle = PrimeCashExchangeRate.getPrimeCashHoldingsOracle(currencyId);\n        address[] memory holdings = oracle.holdings();\n\n        require(targets.length == holdings.length);\n\n        mapping(address => uint8) storage rebalancingTargets = LibStorage.getRebalancingTargets()[currencyId];\n        uint256 totalPercentage;\n        for (uint256 i; i < holdings.length; ++i) {\n            RebalancingTargetConfig calldata config = targets[i];\n            address holding = holdings[i];\n\n            require(config.holding == holding);\n            totalPercentage = totalPercentage.add(config.target);\n            rebalancingTargets[holding] = config.target;\n        }\n        require(totalPercentage <= uint256(Constants.PERCENTAGE_DECIMALS));\n\n        emit RebalancingTargetsUpdated(currencyId, targets);\n    }\n\n    function setRebalancingCooldown(uint16 currencyId, uint40 cooldownTimeInSeconds) external override onlyOwner {\n        mapping(uint16 => RebalancingContextStorage) storage store = LibStorage.getRebalancingContext();\n        store[currencyId].rebalancingCooldownInSeconds = cooldownTimeInSeconds;\n        emit RebalancingCooldownUpdated(currencyId, cooldownTimeInSeconds);\n    }\n\n    function rebalance(uint16[] calldata currencyId) external override onlyManagerContract {\n        for (uint256 i; i < currencyId.length; ++i) {\n            _rebalanceCurrency(currencyId[i]);\n        }\n    }\n\n    function _rebalanceCurrency(uint16 currencyId) private {\n        RebalancingContextStorage memory context = LibStorage.getRebalancingContext()[currencyId];\n\n        require(\n            uint256(context.lastRebalanceTimestampInSeconds).add(context.rebalancingCooldownInSeconds) < block.timestamp, \n            \"Rebalancing cooldown\"\n        );\n\n        // Accrues interest up to the current block before any rebalancing is executed\n        PrimeRate memory pr = PrimeRateLib.buildPrimeRateStateful(currencyId);\n\n        _executeRebalance(currencyId);\n\n        // if previous underlying scalar at rebalance == 0, then it is the first rebalance and\n        // annualized interest rate will be left as zero. The previous underlying scalar will\n        // be set to the new factors.underlyingScalar.\n        uint256 annualizedInterestRate;\n        uint256 supplyFactor = pr.supplyFactor.toUint();\n        if (context.previousSupplyFactorAtRebalance != 0) {\n            uint256 interestRate = supplyFactor\n                .mul(Constants.SCALAR_PRECISION)\n                .div(context.previousSupplyFactorAtRebalance)\n                .sub(Constants.SCALAR_PRECISION) \n                .div(uint256(Constants.RATE_PRECISION));\n\n            annualizedInterestRate = interestRate\n                .mul(Constants.YEAR)\n                .div(block.timestamp.sub(context.lastRebalanceTimestampInSeconds));\n        }\n\n        _saveRebalancingContext(currencyId, supplyFactor.toUint128());\n        _saveOracleSupplyRate(currencyId, annualizedInterestRate);\n\n        emit CurrencyRebalanced(currencyId, supplyFactor, annualizedInterestRate);\n    }\n\n    function _saveOracleSupplyRate(uint16 currencyId, uint256 annualizedInterestRate) private {\n        mapping(uint256 => PrimeCashFactorsStorage) storage store = LibStorage.getPrimeCashFactors();\n        store[currencyId].oracleSupplyRate = annualizedInterestRate.toUint32();\n    }\n\n    function _saveRebalancingContext(uint16 currencyId, uint128 supplyFactor) private {\n        mapping(uint16 => RebalancingContextStorage) storage store = LibStorage.getRebalancingContext();\n        store[currencyId].lastRebalanceTimestampInSeconds = block.timestamp.toUint40();\n        store[currencyId].previousSupplyFactorAtRebalance = supplyFactor;\n    }\n\n    function _getRebalancingTargets(uint16 currencyId, address[] memory holdings) private view returns (uint8[] memory targets) {\n        mapping(address => uint8) storage rebalancingTargets = LibStorage.getRebalancingTargets()[currencyId];\n        targets = new uint8[](holdings.length);\n        uint256 totalPercentage;\n        for (uint256 i; i < holdings.length; ++i) {\n            uint8 target = rebalancingTargets[holdings[i]];\n            targets[i] = target;\n            totalPercentage = totalPercentage.add(target);\n        }\n        require(totalPercentage <= uint256(Constants.PERCENTAGE_DECIMALS));\n    }\n\n    function _executeRebalance(uint16 currencyId) private {\n        IPrimeCashHoldingsOracle oracle = PrimeCashExchangeRate.getPrimeCashHoldingsOracle(currencyId);\n        address[] memory holdings = oracle.holdings();\n        uint8[] memory rebalancingTargets = _getRebalancingTargets(currencyId, holdings);\n        RebalancingData memory data = _calculateRebalance(oracle, holdings, rebalancingTargets);\n\n        (uint256 totalUnderlyingValueBefore, /* */) = oracle.getTotalUnderlyingValueStateful();\n\n        // Process redemptions first\n        Token memory underlyingToken = TokenHandler.getUnderlyingToken(currencyId);\n        (bool hasFailure, /* */) = TokenHandler.executeMoneyMarketRedemptions(underlyingToken, data.redeemData);\n\n        if (!hasFailure) {\n            // Process deposits only if redemptions were successful\n            _executeDeposits(underlyingToken, data.depositData);\n        }\n\n        (uint256 totalUnderlyingValueAfter, /* */) = oracle.getTotalUnderlyingValueStateful();\n\n        int256 underlyingDelta = totalUnderlyingValueBefore.toInt().sub(totalUnderlyingValueAfter.toInt());\n        int256 percentChange = underlyingDelta.abs().mul(Constants.RATE_PRECISION)\n            .div(totalUnderlyingValueBefore.toInt());\n        require(percentChange < Constants.REBALANCING_UNDERLYING_DELTA_PERCENT);\n    }\n\n    function _executeDeposits(Token memory underlyingToken, DepositData[] memory deposits) private {\n        uint256 totalUnderlyingDepositAmount;\n        \n        for (uint256 i; i < deposits.length; i++) {\n            DepositData memory depositData = deposits[i];\n            // Measure the token balance change if the `assetToken` value is set in the\n            // current deposit data struct. \n            uint256 oldAssetBalance = IERC20(depositData.assetToken).balanceOf(address(this));\n\n            // Measure the underlying balance change before and after the call.\n            uint256 oldUnderlyingBalance = underlyingToken.balanceOf(address(this));\n\n            for (uint256 j; j < depositData.targets.length; ++j) {\n                GenericToken.executeLowLevelCall(\n                    depositData.targets[j], \n                    depositData.msgValue[j], \n                    depositData.callData[j],\n                    true // Allow low level calls to revert\n                );\n            }\n\n            // Ensure that the underlying balance change matches the deposit amount\n            uint256 newUnderlyingBalance = underlyingToken.balanceOf(address(this));\n            uint256 underlyingBalanceChange = oldUnderlyingBalance.sub(newUnderlyingBalance);\n            // If the call is not the final deposit, then underlyingDepositAmount should\n            // be set to zero.\n            require(underlyingBalanceChange <= depositData.underlyingDepositAmount);\n        \n            // Measure and update the asset token\n            uint256 newAssetBalance = IERC20(depositData.assetToken).balanceOf(address(this));\n            require(oldAssetBalance <= newAssetBalance);\n            TokenHandler.updateStoredTokenBalance(depositData.assetToken, oldAssetBalance, newAssetBalance);\n\n            // Update the total value with the net change\n            totalUnderlyingDepositAmount = totalUnderlyingDepositAmount.add(underlyingBalanceChange);\n\n            // totalUnderlyingDepositAmount needs to be subtracted from the underlying balance because\n            // we are trading underlying cash for asset cash\n            TokenHandler.updateStoredTokenBalance(underlyingToken.tokenAddress, oldUnderlyingBalance, newUnderlyingBalance);\n        }\n    }\n\n    function _calculateRebalance(\n        IPrimeCashHoldingsOracle oracle,\n        address[] memory holdings,\n        uint8[] memory rebalancingTargets\n    ) private view returns (RebalancingData memory rebalancingData) {\n        uint256[] memory values = oracle.holdingValuesInUnderlying();\n\n        (\n            uint256 totalValue,\n            /* uint256 internalPrecision */\n        ) = oracle.getTotalUnderlyingValueView();\n\n        address[] memory redeemHoldings = new address[](holdings.length);\n        uint256[] memory redeemAmounts = new uint256[](holdings.length);\n        address[] memory depositHoldings = new address[](holdings.length);\n        uint256[] memory depositAmounts = new uint256[](holdings.length);\n\n        for (uint256 i; i < holdings.length; i++) {\n            address holding = holdings[i];\n            uint256 targetAmount = totalValue.mul(rebalancingTargets[i]).div(\n                uint256(Constants.PERCENTAGE_DECIMALS)\n            );\n            uint256 currentAmount = values[i];\n\n            redeemHoldings[i] = holding;\n            depositHoldings[i] = holding;\n\n            if (targetAmount < currentAmount) {\n                redeemAmounts[i] = currentAmount - targetAmount;\n            } else if (currentAmount < targetAmount) {\n                depositAmounts[i] = targetAmount - currentAmount;\n            }\n        }\n\n        rebalancingData.redeemData = oracle.getRedemptionCalldataForRebalancing(redeemHoldings, redeemAmounts);\n        rebalancingData.depositData = oracle.getDepositCalldataForRebalancing(depositHoldings, depositAmounts);\n    }\n}\n","sourcePath":"contracts/external/actions/TreasuryAction.sol","type":"contract","deployment":{"address":"0x1c510763432C0e65d86f313612d4e1E2D26E4332","chainid":"5","blockHeight":10202781}}