{"abi":[{"anonymous":false,"inputs":[{"indexed":false,"internalType":"address","name":"previousAdmin","type":"address"},{"indexed":false,"internalType":"address","name":"newAdmin","type":"address"}],"name":"AdminChanged","type":"event"},{"anonymous":false,"inputs":[{"indexed":true,"internalType":"address","name":"beacon","type":"address"}],"name":"BeaconUpgraded","type":"event"},{"anonymous":false,"inputs":[{"indexed":false,"internalType":"uint16","name":"currencyId","type":"uint16"},{"indexed":false,"internalType":"address","name":"nTokenAddress","type":"address"}],"name":"DeployNToken","type":"event"},{"anonymous":false,"inputs":[{"indexed":false,"internalType":"uint16","name":"newCurrencyId","type":"uint16"}],"name":"ListCurrency","type":"event"},{"anonymous":false,"inputs":[{"indexed":true,"internalType":"address","name":"previousOwner","type":"address"},{"indexed":true,"internalType":"address","name":"newOwner","type":"address"}],"name":"OwnershipTransferred","type":"event"},{"anonymous":false,"inputs":[{"indexed":true,"internalType":"address","name":"pauseRouter","type":"address"},{"indexed":true,"internalType":"address","name":"pauseGuardian","type":"address"}],"name":"PauseRouterAndGuardianUpdated","type":"event"},{"anonymous":false,"inputs":[{"indexed":true,"internalType":"uint16","name":"currencyId","type":"uint16"},{"indexed":false,"internalType":"address","name":"proxy","type":"address"},{"indexed":false,"internalType":"bool","name":"isCashProxy","type":"bool"}],"name":"PrimeProxyDeployed","type":"event"},{"anonymous":false,"inputs":[{"indexed":false,"internalType":"uint16","name":"currencyId","type":"uint16"}],"name":"UpdateAssetRate","type":"event"},{"anonymous":false,"inputs":[{"indexed":false,"internalType":"address","name":"operator","type":"address"},{"indexed":false,"internalType":"bool","name":"approved","type":"bool"}],"name":"UpdateAuthorizedCallbackContract","type":"event"},{"anonymous":false,"inputs":[{"indexed":false,"internalType":"uint16","name":"currencyId","type":"uint16"}],"name":"UpdateCashGroup","type":"event"},{"anonymous":false,"inputs":[{"indexed":false,"internalType":"uint16","name":"currencyId","type":"uint16"}],"name":"UpdateDepositParameters","type":"event"},{"anonymous":false,"inputs":[{"indexed":false,"internalType":"uint16","name":"currencyId","type":"uint16"}],"name":"UpdateETHRate","type":"event"},{"anonymous":false,"inputs":[{"indexed":false,"internalType":"address","name":"operator","type":"address"},{"indexed":false,"internalType":"bool","name":"approved","type":"bool"}],"name":"UpdateGlobalTransferOperator","type":"event"},{"anonymous":false,"inputs":[{"indexed":false,"internalType":"uint16","name":"currencyId","type":"uint16"}],"name":"UpdateInitializationParameters","type":"event"},{"anonymous":false,"inputs":[{"indexed":true,"internalType":"uint16","name":"currencyId","type":"uint16"},{"indexed":true,"internalType":"uint8","name":"marketIndex","type":"uint8"}],"name":"UpdateInterestRateCurve","type":"event"},{"anonymous":false,"inputs":[{"indexed":true,"internalType":"uint16","name":"currencyId","type":"uint16"},{"indexed":false,"internalType":"uint256","name":"maxUnderlyingSupply","type":"uint256"}],"name":"UpdateMaxUnderlyingSupply","type":"event"},{"anonymous":false,"inputs":[{"indexed":false,"internalType":"uint16","name":"currencyId","type":"uint16"}],"name":"UpdateTokenCollateralParameters","type":"event"},{"anonymous":false,"inputs":[{"indexed":true,"internalType":"address","name":"implementation","type":"address"}],"name":"Upgraded","type":"event"},{"inputs":[],"name":"claimOwnership","outputs":[],"stateMutability":"nonpayable","type":"function"},{"inputs":[{"internalType":"uint16","name":"currencyId","type":"uint16"},{"components":[{"internalType":"uint8","name":"maxMarketIndex","type":"uint8"},{"internalType":"uint8","name":"rateOracleTimeWindow5Min","type":"uint8"},{"internalType":"uint8","name":"maxDiscountFactor5BPS","type":"uint8"},{"internalType":"uint8","name":"reserveFeeShare","type":"uint8"},{"internalType":"uint8","name":"debtBuffer25BPS","type":"uint8"},{"internalType":"uint8","name":"fCashHaircut25BPS","type":"uint8"},{"internalType":"uint8","name":"minOracleRate25BPS","type":"uint8"},{"internalType":"uint8","name":"liquidationfCashHaircut25BPS","type":"uint8"},{"internalType":"uint8","name":"liquidationDebtBuffer25BPS","type":"uint8"},{"internalType":"uint8","name":"maxOracleRate25BPS","type":"uint8"}],"internalType":"struct CashGroupSettings","name":"cashGroup","type":"tuple"},{"internalType":"string","name":"underlyingName","type":"string"},{"internalType":"string","name":"underlyingSymbol","type":"string"}],"name":"enableCashGroup","outputs":[],"stateMutability":"nonpayable","type":"function"},{"inputs":[{"internalType":"uint16","name":"currencyId","type":"uint16"},{"internalType":"string","name":"underlyingName","type":"string"},{"internalType":"string","name":"underlyingSymbol","type":"string"}],"name":"enablePrimeDebt","outputs":[],"stateMutability":"nonpayable","type":"function"},{"inputs":[{"components":[{"internalType":"address","name":"tokenAddress","type":"address"},{"internalType":"bool","name":"hasTransferFee","type":"bool"},{"internalType":"enum TokenType","name":"tokenType","type":"uint8"},{"internalType":"uint8","name":"decimalPlaces","type":"uint8"},{"internalType":"uint72","name":"deprecated_maxCollateralBalance","type":"uint72"}],"internalType":"struct TokenStorage","name":"underlyingToken","type":"tuple"},{"components":[{"internalType":"contract AggregatorV2V3Interface","name":"rateOracle","type":"address"},{"internalType":"uint8","name":"rateDecimalPlaces","type":"uint8"},{"internalType":"bool","name":"mustInvert","type":"bool"},{"internalType":"uint8","name":"buffer","type":"uint8"},{"internalType":"uint8","name":"haircut","type":"uint8"},{"internalType":"uint8","name":"liquidationDiscount","type":"uint8"}],"internalType":"struct ETHRateStorage","name":"ethRate","type":"tuple"},{"components":[{"internalType":"uint8","name":"kinkUtilization1","type":"uint8"},{"internalType":"uint8","name":"kinkUtilization2","type":"uint8"},{"internalType":"uint8","name":"kinkRate1","type":"uint8"},{"internalType":"uint8","name":"kinkRate2","type":"uint8"},{"internalType":"uint8","name":"maxRateUnits","type":"uint8"},{"internalType":"uint8","name":"minFeeRate5BPS","type":"uint8"},{"internalType":"uint8","name":"maxFeeRate25BPS","type":"uint8"},{"internalType":"uint8","name":"feeRatePercent","type":"uint8"}],"internalType":"struct InterestRateCurveSettings","name":"primeDebtCurve","type":"tuple"},{"internalType":"contract IPrimeCashHoldingsOracle","name":"primeCashHoldingsOracle","type":"address"},{"internalType":"bool","name":"allowPrimeCashDebt","type":"bool"},{"internalType":"uint8","name":"rateOracleTimeWindow5Min","type":"uint8"},{"internalType":"string","name":"underlyingName","type":"string"},{"internalType":"string","name":"underlyingSymbol","type":"string"}],"name":"listCurrency","outputs":[{"internalType":"uint16","name":"","type":"uint16"}],"stateMutability":"nonpayable","type":"function"},{"inputs":[],"name":"owner","outputs":[{"internalType":"address","name":"","type":"address"}],"stateMutability":"view","type":"function"},{"inputs":[],"name":"pauseGuardian","outputs":[{"internalType":"address","name":"","type":"address"}],"stateMutability":"view","type":"function"},{"inputs":[],"name":"pauseRouter","outputs":[{"internalType":"address","name":"","type":"address"}],"stateMutability":"view","type":"function"},{"inputs":[],"name":"rebalancingBot","outputs":[{"internalType":"address","name":"","type":"address"}],"stateMutability":"view","type":"function"},{"inputs":[{"internalType":"uint16","name":"currencyId","type":"uint16"},{"internalType":"uint256","name":"maxUnderlyingSupply","type":"uint256"},{"internalType":"uint8","name":"maxPrimeDebtUtilization","type":"uint8"}],"name":"setMaxUnderlyingSupply","outputs":[],"stateMutability":"nonpayable","type":"function"},{"inputs":[{"internalType":"address","name":"pauseRouter_","type":"address"},{"internalType":"address","name":"pauseGuardian_","type":"address"}],"name":"setPauseRouterAndGuardian","outputs":[],"stateMutability":"nonpayable","type":"function"},{"inputs":[{"internalType":"address","name":"newOwner","type":"address"},{"internalType":"bool","name":"direct","type":"bool"}],"name":"transferOwnership","outputs":[],"stateMutability":"nonpayable","type":"function"},{"inputs":[{"internalType":"address","name":"operator","type":"address"},{"internalType":"bool","name":"approved","type":"bool"}],"name":"updateAuthorizedCallbackContract","outputs":[],"stateMutability":"nonpayable","type":"function"},{"inputs":[{"internalType":"uint16","name":"currencyId","type":"uint16"},{"components":[{"internalType":"uint8","name":"maxMarketIndex","type":"uint8"},{"internalType":"uint8","name":"rateOracleTimeWindow5Min","type":"uint8"},{"internalType":"uint8","name":"maxDiscountFactor5BPS","type":"uint8"},{"internalType":"uint8","name":"reserveFeeShare","type":"uint8"},{"internalType":"uint8","name":"debtBuffer25BPS","type":"uint8"},{"internalType":"uint8","name":"fCashHaircut25BPS","type":"uint8"},{"internalType":"uint8","name":"minOracleRate25BPS","type":"uint8"},{"internalType":"uint8","name":"liquidationfCashHaircut25BPS","type":"uint8"},{"internalType":"uint8","name":"liquidationDebtBuffer25BPS","type":"uint8"},{"internalType":"uint8","name":"maxOracleRate25BPS","type":"uint8"}],"internalType":"struct CashGroupSettings","name":"cashGroup","type":"tuple"}],"name":"updateCashGroup","outputs":[],"stateMutability":"nonpayable","type":"function"},{"inputs":[{"internalType":"uint16","name":"currencyId","type":"uint16"},{"internalType":"uint32[]","name":"depositShares","type":"uint32[]"},{"internalType":"uint32[]","name":"leverageThresholds","type":"uint32[]"}],"name":"updateDepositParameters","outputs":[],"stateMutability":"nonpayable","type":"function"},{"inputs":[{"internalType":"uint16","name":"currencyId","type":"uint16"},{"internalType":"contract AggregatorV2V3Interface","name":"rateOracle","type":"address"},{"internalType":"bool","name":"mustInvert","type":"bool"},{"internalType":"uint8","name":"buffer","type":"uint8"},{"internalType":"uint8","name":"haircut","type":"uint8"},{"internalType":"uint8","name":"liquidationDiscount","type":"uint8"}],"name":"updateETHRate","outputs":[],"stateMutability":"nonpayable","type":"function"},{"inputs":[{"internalType":"uint16","name":"currencyId","type":"uint16"},{"internalType":"uint32[]","name":"annualizedAnchorRates","type":"uint32[]"},{"internalType":"uint32[]","name":"proportions","type":"uint32[]"}],"name":"updateInitializationParameters","outputs":[],"stateMutability":"nonpayable","type":"function"},{"inputs":[{"internalType":"uint16","name":"currencyId","type":"uint16"},{"internalType":"uint8[]","name":"marketIndices","type":"uint8[]"},{"components":[{"internalType":"uint8","name":"kinkUtilization1","type":"uint8"},{"internalType":"uint8","name":"kinkUtilization2","type":"uint8"},{"internalType":"uint8","name":"kinkRate1","type":"uint8"},{"internalType":"uint8","name":"kinkRate2","type":"uint8"},{"internalType":"uint8","name":"maxRateUnits","type":"uint8"},{"internalType":"uint8","name":"minFeeRate5BPS","type":"uint8"},{"internalType":"uint8","name":"maxFeeRate25BPS","type":"uint8"},{"internalType":"uint8","name":"feeRatePercent","type":"uint8"}],"internalType":"struct InterestRateCurveSettings[]","name":"settings","type":"tuple[]"}],"name":"updateInterestRateCurve","outputs":[],"stateMutability":"nonpayable","type":"function"},{"inputs":[{"internalType":"uint16","name":"currencyId","type":"uint16"},{"components":[{"internalType":"uint8","name":"kinkUtilization1","type":"uint8"},{"internalType":"uint8","name":"kinkUtilization2","type":"uint8"},{"internalType":"uint8","name":"kinkRate1","type":"uint8"},{"internalType":"uint8","name":"kinkRate2","type":"uint8"},{"internalType":"uint8","name":"maxRateUnits","type":"uint8"},{"internalType":"uint8","name":"minFeeRate5BPS","type":"uint8"},{"internalType":"uint8","name":"maxFeeRate25BPS","type":"uint8"},{"internalType":"uint8","name":"feeRatePercent","type":"uint8"}],"internalType":"struct InterestRateCurveSettings","name":"primeDebtCurve","type":"tuple"}],"name":"updatePrimeCashCurve","outputs":[],"stateMutability":"nonpayable","type":"function"},{"inputs":[{"internalType":"uint16","name":"currencyId","type":"uint16"},{"internalType":"contract IPrimeCashHoldingsOracle","name":"primeCashHoldingsOracle","type":"address"}],"name":"updatePrimeCashHoldingsOracle","outputs":[],"stateMutability":"nonpayable","type":"function"},{"inputs":[{"internalType":"uint16","name":"currencyId","type":"uint16"},{"internalType":"uint8","name":"residualPurchaseIncentive10BPS","type":"uint8"},{"internalType":"uint8","name":"pvHaircutPercentage","type":"uint8"},{"internalType":"uint8","name":"residualPurchaseTimeBufferHours","type":"uint8"},{"internalType":"uint8","name":"cashWithholdingBuffer10BPS","type":"uint8"},{"internalType":"uint8","name":"liquidationHaircutPercentage","type":"uint8"},{"internalType":"uint8","name":"maxMintDeviation5BPS","type":"uint8"}],"name":"updateTokenCollateralParameters","outputs":[],"stateMutability":"nonpayable","type":"function"},{"inputs":[{"internalType":"enum Deployments.BeaconType","name":"proxy","type":"uint8"},{"internalType":"address","name":"newBeacon","type":"address"}],"name":"upgradeBeacon","outputs":[],"stateMutability":"nonpayable","type":"function"},{"inputs":[{"internalType":"address","name":"newImplementation","type":"address"}],"name":"upgradeTo","outputs":[],"stateMutability":"nonpayable","type":"function"},{"inputs":[{"internalType":"address","name":"newImplementation","type":"address"},{"internalType":"bytes","name":"data","type":"bytes"}],"name":"upgradeToAndCall","outputs":[],"stateMutability":"payable","type":"function"}],"bytecode":"608060405234801561001057600080fd5b50615d1a80620000216000396000f3fe6080604052600436106200015e5760003560e01c806357f0e3e811620000c7578063b739ecde1162000079578063b739ecde14620003bf578063bc74bdeb14620003e4578063c572cae414620003fc578063cfaaf4741462000421578063e1d548e71462000446578063fa17b5f1146200046b576200015e565b806357f0e3e814620002fb578063744ec0ef14620003205780638246336714620003455780638da5cb5b146200035d5780639f84960a1462000375578063b242e534146200039a576200015e565b80633659cfe611620001215780633659cfe6146200022957806339f7cd70146200024e578063413f2c5f14620002735780634e62cf3d14620002985780634e71e0c814620002cc5780634f1ef28614620002e4576200015e565b8063090b917b146200016357806311472fbd146200018a57806313eabebd14620001af57806324a3d62214620001d45780633531a0901462000204575b600080fd5b3480156200017057600080fd5b50620001886200018236600462004c11565b62000490565b005b3480156200019757600080fd5b5062000188620001a936600462004c55565b62000522565b348015620001bc57600080fd5b5062000188620001ce366004620044ba565b620005dc565b348015620001e157600080fd5b50620001ec6200073b565b604051620001fb919062004dc2565b60405180910390f35b3480156200021157600080fd5b50620001886200022336600462004a82565b6200074a565b3480156200023657600080fd5b506200018862000248366004620042ab565b6200078e565b3480156200025b57600080fd5b50620001886200026d36600462004b15565b620007b9565b3480156200028057600080fd5b506200018862000292366004620048c0565b62000804565b348015620002a557600080fd5b50620002bd620002b73660046200468d565b62000896565b604051620001fb9190620051b8565b348015620002d957600080fd5b506200018862000bd4565b62000188620002f53660046200435f565b62000c7f565b3480156200030857600080fd5b50620001886200031a36600462004aa0565b62000c98565b3480156200032d57600080fd5b50620001886200033f366004620042e9565b62000da4565b3480156200035257600080fd5b50620001ec62000e36565b3480156200036a57600080fd5b50620001ec62000e45565b3480156200038257600080fd5b50620001886200039436600462004be1565b62000e5b565b348015620003a757600080fd5b5062000188620003b936600462004326565b62000eab565b348015620003cc57600080fd5b5062000188620003de36600462004b45565b62000fab565b348015620003f157600080fd5b50620001ec62001112565b3480156200040957600080fd5b50620001886200041b366004620049f8565b62001121565b3480156200042e57600080fd5b506200018862000440366004620048c0565b620011b8565b3480156200045357600080fd5b50620001886200046536600462004946565b6200123b565b3480156200047857600080fd5b50620001886200048a36600462004326565b6200142d565b600054600160201b90046001600160a01b03163314620004cd5760405162461bcd60e51b8152600401620004c49062004ff9565b60405180910390fd5b6000620004dc848484620014da565b90508361ffff167fa1c5aef47af9497b93ec06e3639c5077ce0e79c7e47d2405854bebf2297cbcdf8260405162000514919062005237565b60405180910390a250505050565b600054600160201b90046001600160a01b03163314620005565760405162461bcd60e51b8152600401620004c49062004ff9565b620005618762001578565b6000620005728861ffff16620015b6565b90506001600160a01b0381166200058857600080fd5b6200059981888888888888620015e5565b7fe3bfb18d6259be9a43cd772d68c97fe6c61c35a17acb12e047ad8c9698e40aeb88604051620005ca9190620051b8565b60405180910390a15050505050505050565b600054600160201b90046001600160a01b03163314620006105760405162461bcd60e51b8152600401620004c49062004ff9565b6000808360038111156200062057fe5b141562000643575073c4fd259b816d081c8bdd22d6bbd3495db1573db7620006d4565b60018360038111156200065257fe5b1415620006755750731f681977af5392d9ca5572fb394bc4d12939a6a9620006d4565b60028360038111156200068457fe5b1415620006a7575073df08039c0af34e34660ac7c2705c0da953247640620006d4565b6003836003811115620006b657fe5b14156200015e575073ebe1bf1653d55d31f6ed38b1a4ccfe2a92338f665b604051631b2ce7f360e11b81526001600160a01b03821690633659cfe6906200070290859060040162004dc2565b600060405180830381600087803b1580156200071d57600080fd5b505af115801562000732573d6000803e3d6000fd5b50505050505050565b6002546001600160a01b031681565b600054600160201b90046001600160a01b031633146200077e5760405162461bcd60e51b8152600401620004c49062004ff9565b6200078a828262001734565b5050565b6200079981620017b1565b620007b68160405180602001604052806000815250600062001858565b50565b600054600160201b90046001600160a01b03163314620007ed5760405162461bcd60e51b8152600401620004c49062004ff9565b620007f88262001578565b6200078a82826200199e565b600054600160201b90046001600160a01b03163314620008385760405162461bcd60e51b8152600401620004c49062004ff9565b620008438562001578565b620008568561ffff1685858585620019ef565b7fff9528b00f1b4a49ad8a5d2c82e5602c172ee7e42bc1f5b7d505a7581b43823485604051620008879190620051b8565b60405180910390a15050505050565b60008054600160201b90046001600160a01b03163314620008cb5760405162461bcd60e51b8152600401620004c49062004ff9565b6000805461ffff80821660010190811661ffff199092168217909255613fff1015620008f657600080fd5b600960006200090960208f018f620042ab565b6001600160a01b0316815260208101919091526040016000205461ffff16156200093257600080fd5b80600960008e60000160208101906200094c9190620042ab565b6001600160a01b031681526020810191909152604001600020805461ffff191661ffff928316179055620009939082166200098d368f90038f018f62004826565b62001b31565b6200099f818c62001d25565b620009ab818a62001f35565b6000896001600160a01b031663ef81f2166040518163ffffffff1660e01b81526004016040805180830381600087803b158015620009e857600080fd5b505af1158015620009fd573d6000803e3d6000fd5b505050506040513d601f19601f8201168201806040525081019062000a23919062004d10565b91505062000a508262000a3683620021a4565b62000a47368f90038f018f620045be565b8d8d8d620021bf565b6000828e600001602081019062000a689190620042ab565b8989898960405160240162000a8396959493929190620051e4565b60408051601f198184030181529181526020820180516001600160e01b03166354c938a760e11b17905251909150600090731f681977af5392d9ca5572fb394bc4d12939a6a990839062000ad790620040ab565b62000ae492919062004df1565b604051809103906000f08015801562000b01573d6000803e3d6000fd5b50905062000b1284826001620023c5565b8a1562000b7c57600073df08039c0af34e34660ac7c2705c0da9532476408360405162000b3f90620040ab565b62000b4c92919062004df1565b604051809103906000f08015801562000b69573d6000803e3d6000fd5b50905062000b7a85826000620023c5565b505b62000b88848462002472565b7f31404ff4a0f1116f17cfc89a376d7cb9cd8dbd8415e6aa24fdcb8e14e60d71428460405162000bb99190620051b8565b60405180910390a150919d9c50505050505050505050505050565b600d546001600160a01b031633811462000c025760405162461bcd60e51b8152600401620004c4906200505c565b600080546040516001600160a01b0380851693600160201b90930416917f8be0079c531659141344cd1fd0a4f28419497f9722a3daafe3b4186f6b6457e091a3600080546001600160a01b03909216600160201b02640100000000600160c01b0319909216919091179055600d80546001600160a01b0319169055565b62000c8a82620017b1565b6200078a8282600162001858565b600054600160201b90046001600160a01b0316331462000ccc5760405162461bcd60e51b8152600401620004c49062004ff9565b62000cd785620024c1565b600062000ce88661ffff16620024f8565b805160405191925060009162000d0b9189918990899089908990602401620051e4565b60408051601f198184030181529181526020820180516001600160e01b03166354c938a760e11b1790525190915060009073df08039c0af34e34660ac7c2705c0da95324764090839062000d5f90620040ab565b62000d6c92919062004df1565b604051809103906000f08015801562000d89573d6000803e3d6000fd5b50905062000d9a88826000620023c5565b5050505050505050565b600054600160201b90046001600160a01b0316331462000dd85760405162461bcd60e51b8152600401620004c49062004ff9565b600180546001600160a01b03199081166001600160a01b03858116918217909355600280549092169284169283179091556040517f792a598a7f3fb01623bba2594035c736ba3d7ec06210f07d9d7ef036c4a22ac690600090a35050565b6001546001600160a01b031681565b600054600160201b90046001600160a01b031681565b600054600160201b90046001600160a01b0316331462000e8f5760405162461bcd60e51b8152600401620004c49062004ff9565b6200078a8262000ea536849003840184620045be565b62002515565b600054600160201b90046001600160a01b0316331462000edf5760405162461bcd60e51b8152600401620004c49062004ff9565b801562000f8a576001600160a01b03821662000f0f5760405162461bcd60e51b8152600401620004c49062004f2d565b600080546040516001600160a01b0380861693600160201b90930416917f8be0079c531659141344cd1fd0a4f28419497f9722a3daafe3b4186f6b6457e091a360008054640100000000600160c01b031916600160201b6001600160a01b03851602179055600d80546001600160a01b03191690556200078a565b600d80546001600160a01b0384166001600160a01b03199091161790555050565b600054600160201b90046001600160a01b0316331462000fdf5760405162461bcd60e51b8152600401620004c49062004ff9565b62000fea8662001578565b62000ff686866200199e565b6000620010078761ffff16620024f8565b9050620010148762002561565b6200101e57600080fd5b80516040516000916200103f918a91908990899089908990602401620051e4565b60408051601f198184030181529181526020820180516001600160e01b03166354c938a760e11b1790525190915060009073c4fd259b816d081c8bdd22d6bbd3495db1573db79083906200109390620040ab565b620010a092919062004df1565b604051809103906000f080158015620010bd573d6000803e3d6000fd5b509050620010cc898262002594565b7f6793810fdf58cb4c6e0ee40e4b03eb1075b7cbbb55c34379b918873241972aea8982604051620010ff929190620051c7565b60405180910390a1505050505050505050565b600e546001600160a01b031681565b600054600160201b90046001600160a01b03163314620011555760405162461bcd60e51b8152600401620004c49062004ff9565b620011608662001578565b620011b0866040518060c00160405280886001600160a01b03168152602001600060ff16815260200187151581526020018660ff1681526020018560ff1681526020018460ff1681525062001d25565b505050505050565b600054600160201b90046001600160a01b03163314620011ec5760405162461bcd60e51b8152600401620004c49062004ff9565b620011f78562001578565b6200120a8561ffff16858585856200266e565b7f6e2f98678675da049b2cd990d6f467aac69d623ff4ecdd26a5d42f184a69d34285604051620008879190620051b8565b600054600160201b90046001600160a01b031633146200126f5760405162461bcd60e51b8152600401620004c49062004ff9565b6200127a8562001578565b60006200128b8661ffff16620027d0565b90508382146200129a57600080fd5b60005b848110156200073257858582818110620012b357fe5b9050602002016020810190620012ca919062004d5a565b60ff16600010620012da57600080fd5b8160ff16868683818110620012eb57fe5b905060200201602081019062001302919062004d5a565b60ff1611156200131157600080fd5b801562001374578585828181106200132557fe5b90506020020160208101906200133c919062004d5a565b60ff168686600184038181106200134f57fe5b905060200201602081019062001366919062004d5a565b60ff16106200137457600080fd5b620013cc878787848181106200138657fe5b90506020020160208101906200139d919062004d5a565b60ff16868685818110620013ad57fe5b90506101000201803603810190620013c69190620045be565b620027e8565b858582818110620013d957fe5b9050602002016020810190620013f0919062004d5a565b60ff168761ffff167f3e4a0f68027373459f0bdff08dfb4c876ee3e2fb800ee3161c0670532f4ec3a460405160405180910390a36001016200129d565b600054600160201b90046001600160a01b03163314620014615760405162461bcd60e51b8152600401620004c49062004ff9565b6200146c826200286d565b6200147657600080fd5b6001600160a01b03821660009081526008602052604090819020805460ff1916831515179055517fccf663aae81733293dcfcf2a91da8c6f0e7ba8089b34eb4fd5760dd8fd605bd890620014ce908490849062004dd6565b60405180910390a15050565b600080620014e762002873565b60008661ffff1681526020019081526020016000209050620015098462002882565b60018201805463ffffffff60581b1916600160581b63ffffffff938416810291909117918290556200153e92910416620028b0565b915060648360ff1613156200155257600080fd5b600101805460ff909316600160781b0260ff60781b199093169290921790915592915050565b8061ffff16600010801562001597575060005461ffff90811690821611155b620007b65760405162461bcd60e51b8152600401620004c490620050c1565b600080620015c3620028be565b600084815260209190915260409020546001600160a01b03169150505b919050565b6000620015f1620028cd565b6001600160a01b0389166000908152602082905260409020909150606460ff85161315620016335760405162461bcd60e51b8152600401620004c49062004f04565b8360ff168760ff16106200165b5760405162461bcd60e51b8152600401620004c4906200518c565b606460ff88860316633b9aca000204612710633b9aca00056005028460ff160211156200168757600080fd5b8460ff168860ff161115620016b05760405162461bcd60e51b8152600401620004c49062004f5c565b805465ffffffffffff60581b1916600160581b60d094851b60ff60d01b1660d89a909a1b60ff60d81b1660e09990991b60ff60e01b1660e89890981b60ff60e81b1660f09790971b60ff60f01b1660f89690961b6001600160f81b031916959095179590951795909517959095179590951790941c93909302929092179091555050565b600062001740620028dc565b61ffff8416600081815260209290925260409182902080546001600160a01b0319166001600160a01b0386161781559151919250907f870041665f4908d4b05db2c67d9d8735d37ec80a0f5f9286ce37e315b460682f90620017a490859062004dc2565b60405180910390a2505050565b600054600160201b90046001600160a01b0316331480620017f557506002546001600160a01b031633148015620017f557506001546001600160a01b038281169116145b620018145760405162461bcd60e51b8152600401620004c4906200502e565b6001546001600160a01b0382811691161415620007b65762001835620028eb565b600380546001600160a01b0319166001600160a01b039290921691909117905550565b600062001864620028eb565b9050620018718462002927565b6000835111806200187f5750815b156200189357620018918484620029bc565b505b6000620018c07f4910fdfa16fed3260ed0e7147f7cc6da11a60208b5b9406d12a635614ffd9143620029eb565b805490915060ff166200199757805460ff19166001178155604080516001600160a01b0384166024808301919091528251808303909101815260449091019091526020810180516001600160e01b0316631b2ce7f360e11b17905262001928908690620029bc565b50805460ff191681556200193b620028eb565b6001600160a01b0316826001600160a01b0316146200198c5760405162461bcd60e51b815260040180806020018281038252602f81526020018062005c3c602f913960400191505060405180910390fd5b6200199785620029ee565b5050505050565b620019be61ffff8316620019b836849003840184620044dc565b62002a30565b7f8fd2367aaaca3606dee299bbef980da42d4e906e355f28c3dd3a2f4d81d6b46382604051620014ce9190620051b8565b600783111562001a135760405162461bcd60e51b8152600401620004c49062004f87565b80831462001a355760405162461bcd60e51b8152600401620004c49062004ea7565b60005b8181101562001b045784848281811062001a4e57fe5b905060200201602081019062001a65919062004d34565b63ffffffff161562001a7657600080fd5b600083838381811062001a8557fe5b905060200201602081019062001a9c919062004d34565b63ffffffff1611801562001adc5750633b9aca0083838381811062001abd57fe5b905060200201602081019062001ad4919062004d34565b63ffffffff16125b62001afb5760405162461bcd60e51b8152600401620004c4906200515c565b60010162001a38565b50600062001b1162002bea565b600087815260208290526040902090915062000732818787878762002bf9565b600062001b3d62002cd8565b905060038260400151600581111562001b5257fe5b14801562001b605750600183145b1562001ba457600083815260209182526040808220600183529092522080546001600160b01b031916600360a81b1760ff60b01b1916600960b11b1790556200078a565b81516001600160a01b031662001bb957600080fd5b600062001bc884600162002ce7565b835181519192506001600160a01b039182169116148062001bf1575080516001600160a01b0316155b62001bfb57600080fd5b826060015160ff16600010801562001c1b57506024836060015160ff1611155b62001c2557600080fd5b60038360400151600581111562001c3857fe5b141562001c4457600080fd5b60008360400151600581111562001c5757fe5b1462001c6257600080fd5b6000848152602083815260408083206001845282529182902085518154928701511515600160a01b0260ff60a01b196001600160a01b039092166001600160a01b0319909416939093171691909117808255918501518592829060ff60a81b1916600160a81b83600581111562001cd557fe5b02179055506060820151815460809093015168ffffffffffffffffff16600160b81b026001600160b81b0360ff909216600160b01b0260ff60b01b19909416939093171691909117905550505050565b60018261ffff16141562001d4457600081526012602082015262001ddb565b80516001600160a01b031662001d5957600080fd5b80600001516001600160a01b031663313ce5676040518163ffffffff1660e01b815260040160206040518083038186803b15801562001d9757600080fd5b505afa15801562001dac573d6000803e3d6000fd5b505050506040513d601f19601f8201168201806040525081019062001dd2919062004d79565b60ff1660208201525b6064816060015160ff16121562001df157600080fd5b6064816080015160ff16131562001e0757600080fd5b60648160a0015160ff161362001e1c57600080fd5b6024816020015160ff16111562001e3257600080fd5b600062001e3e62002d86565b61ffff841660009081526020828152604091829020855181549287015187850151606089015160808a015160a08b01516001600160a01b03199097166001600160a01b039095169490941760ff60a01b1916600160a01b60ff948516021760ff60a81b1916600160a81b921515929092029190911760ff60b01b1916600160b01b918316919091021760ff60b81b1916600160b81b928216929092029190911760ff60c01b1916600160c01b9190931602919091179055519091507f32df9e03d26f91a7fa4d4a9e48c2038679570cde31d5c7f979a04515e00a767d9062001f28908590620051b8565b60405180910390a1505050565b6000816001600160a01b031663e79bf13b6040518163ffffffff1660e01b815260040160006040518083038186803b15801562001f7157600080fd5b505afa15801562001f86573d6000803e3d6000fd5b505050506040513d6000823e601f3d908101601f1916820160405262001fb0919081019062004403565b90506000826001600160a01b0316636f307dc36040518163ffffffff1660e01b815260040160206040518083038186803b15801562001fee57600080fd5b505afa15801562002003573d6000803e3d6000fd5b505050506040513d601f19601f82011682018060405250810190620020299190620042ca565b9050600060018561ffff1614620020c2576040516370a0823160e01b81526001600160a01b038316906370a08231906200206890309060040162004dc2565b60206040518083038186803b1580156200208157600080fd5b505afa15801562002096573d6000803e3d6000fd5b505050506040513d601f19601f82011682018060405250810190620020bc919062004cf7565b620020c4565b475b9050620020d48260008362002d95565b60005b8351811015620011b057838181518110620020ee57fe5b60200260200101516001600160a01b03166370a08231306040518263ffffffff1660e01b815260040162002123919062004dc2565b60206040518083038186803b1580156200213c57600080fd5b505afa15801562002151573d6000803e3d6000fd5b505050506040513d601f19601f8201168201806040525081019062002177919062004cf7565b91506200219b8482815181106200218a57fe5b602002602001015160008462002d95565b600101620020d7565b60006001600160581b03821115620021bb57600080fd5b5090565b6000620021cb62002873565b60008861ffff1681526020019081526020016000209050620021ee878562001734565b805464ffffffffff16156200220257600080fd5b856001600160581b03166000106200221957600080fd5b6000620022268862002e2a565b9050806000106200223657600080fd5b620022414262002eb5565b825460028401805464ffffffffff1990921664ffffffffff93909316929092176fffffffffffffffffffffff00000000001916650100000000006001600160581b038b16908102919091176001600160f81b0316600160f81b8815150217855569ffffffffffffffffffff60501b199091166503782dace9d960621b1769ffffffffffffffffffff60a01b19166503782dace9d960b21b1760ff60f01b1916600160f01b60ff8716021790915562002306906200230090839062002eca565b62002eeb565b60028301805469ffffffffffffffffffff19166001600160501b03929092169190911790556200233681620021a4565b82546001840180546affffffffffffffffffffff1916905563ffffffff60d81b196001600160581b0392909216600160801b026affffffffffffffffffffff60801b19909116171682556200238c888762002f02565b60405161ffff8916907f10a72302a4c7c7bbb57a6fbe822ed3d9a792eb3e4aafc64e64745e3ae7bf128790600090a25050505050505050565b600081620023dd57620023d762002f6d565b620023e7565b620023e762002f7c565b61ffff85166000908152602082905260409020549091506001600160a01b0316156200241257600080fd5b61ffff84166000818152602083905260409081902080546001600160a01b0319166001600160a01b038716179055517fb492e9bf0487a94dae4dd27d50f25f59e832faa854ed4072ee0fc57d327ca4c89062000514908690869062004dd6565b60008112156200248157600080fd5b600062002491610fee8462002f8b565b9050620024a2610fee848462002fe7565b620024bc610fee84620024b6858562003060565b62003077565b505050565b6000620024cd62002873565b61ffff9092166000908152602092909252506040902080546001600160f81b0316600160f81b179055565b62002502620040b9565b6200250f82600162002ce7565b92915050565b620025218242620030fd565b506200252e828262002f02565b60405161ffff8316907f10a72302a4c7c7bbb57a6fbe822ed3d9a792eb3e4aafc64e64745e3ae7bf128790600090a25050565b6000806200256e62002873565b61ffff93909316600090815260209390935250506040902054600160f81b900460ff1690565b6000620025a0620028be565b61ffff84166000908152602082905260409020549091506001600160a01b031615620025e05760405162461bcd60e51b8152600401620004c49062005125565b6000620025ec620028cd565b6001600160a01b038416600090815260208290526040902080549192509061ffff16156200262e5760405162461bcd60e51b8152600401620004c49062004ed7565b805461ffff191661ffff959095169485179055506000928352602052604090912080546001600160a01b0319166001600160a01b03909216919091179055565b6007831115620026925760405162461bcd60e51b8152600401620004c490620050ee565b828114620026b45760405162461bcd60e51b8152600401620004c49062004e70565b6000805b848110156200277d57858582818110620026ce57fe5b9050602002016020810190620026e5919062004d34565b63ffffffff16820191506000848483818110620026fe57fe5b905060200201602081019062002715919062004d34565b63ffffffff16118015620027555750633b9aca008484838181106200273657fe5b90506020020160208101906200274d919062004d34565b63ffffffff16125b620027745760405162461bcd60e51b8152600401620004c49062004fc9565b600101620026b8565b506305f5e1008114620027a45760405162461bcd60e51b8152600401620004c49062005091565b6000620027b0620031d7565b600088815260208290526040902090915062000d9a818888888862002bf9565b600080620027de83620031e6565b60ff169392505050565b6000620027f462003205565b61ffff85166000908152602091909152604081209150620028158462003214565b60080260c00390506000600485106200283057600162002833565b60005b905062002853838260ff16600281106200284957fe5b0154838662003251565b838260ff16600281106200286357fe5b0155505050505050565b3b151590565b6000806200250f601d6200327f565b60008062ffffff831115620028a25760176200289e8462003299565b0390505b82811c60081b179050919050565b600881901c60ff9091161b90565b6000806200250f60036200327f565b6000806200250f60026200327f565b6000806200250f601f6200327f565b6000620029187f360894a13ba1a3210667c828492db98dca3e2076cc3735a920a3ca505d382bbc620029eb565b546001600160a01b0316905090565b62002932816200286d565b6200296f5760405162461bcd60e51b815260040180806020018281038252602d81526020018062005c6b602d913960400191505060405180910390fd5b806200299b7f360894a13ba1a3210667c828492db98dca3e2076cc3735a920a3ca505d382bbc620029eb565b80546001600160a01b0319166001600160a01b039290921691909117905550565b6060620029e4838360405180606001604052806027815260200162005c98602791396200333f565b9392505050565b90565b620029f98162002927565b6040516001600160a01b038216907fbc7cd75a20ee27fd9adebab32041f755214dbc6bffa90cc0225b39da2e5c2d3b90600090a250565b805160ff1660021180159062002a4e57506007816000015160ff1611155b62002a5857600080fd5b6064816060015160ff16131562002a6e57600080fd5b806040015160ff1660001062002a8357600080fd5b80610120015160ff168160c0015160ff161062002a9f57600080fd5b8060a0015160ff168160e0015160ff161062002aba57600080fd5b806080015160ff1681610100015160ff161062002ad657600080fd5b600062002ae383620027d0565b9050816000015160ff168160ff16111562002afd57600080fd5b61012082015161010083015160e084015160c085015160a0860151608087015160608801516040808a01516020808c01518c5160489b909b1b69ff000000000000000000169990931b68ff00000000000000001660389890981b60ff60381b1660309790971b66ff0000000000001660289690961b65ff00000000001694901b64ff000000001660189390931b63ff0000001660109190911b62ff00001660089290921b61ff001660ff909916989098171796909617959095179490941793909317929092179190911717600062002bd46200344b565b6000958652602052506040909320929092555050565b6000806200250f60056200327f565b6000805b84811015620007325785858281811062002c1357fe5b905060200201602081019062002c2a919062004d34565b8783600e811062002c3757fe5b600891828204019190066004026101000a81548163ffffffff021916908363ffffffff160217905550818060010192505083838281811062002c7557fe5b905060200201602081019062002c8c919062004d34565b8783600e811062002c9957fe5b600891828204019190066004026101000a81548163ffffffff021916908363ffffffff1602179055508180600101925050808060010191505062002bfd565b6000806200250f60076200327f565b62002cf1620040b9565b600062002cfd62002cd8565b6000858152602082815260408083208715158452825291829020825160a08101845281546001600160a01b038116825260ff600160a01b82048116151594830194909452600160b01b81048416600a0a9482019490945293945092916060830191600160a81b90910416600581111562002d7357fe5b8152600060209091015295945050505050565b6000806200250f60106200327f565b600062002da16200345a565b6001600160a01b0385166000908152602082905260409020549091508381111562002dcb57600080fd5b600062002dee62002ddc8662003469565b62002de78662003469565b9062003060565b905062002e0662002e00838362003480565b62003497565b6001600160a01b039096166000908152602093909352505060409020929092555050565b60008062002e3883620034a7565b6001600160a01b031663ef81f2166040518163ffffffff1660e01b81526004016040805180830381600087803b15801562002e7257600080fd5b505af115801562002e87573d6000803e3d6000fd5b505050506040513d601f19601f8201168201806040525081019062002ead919062004d10565b949350505050565b600064ffffffffff821115620021bb57600080fd5b6000620029e462002ee484670de0b6b3a7640000620034d9565b8362003504565b60006001600160501b03821115620021bb57600080fd5b600062002f0e62003525565b61ffff8416600090815260209190915260408120915062002f2e62003205565b61ffff8516600090815260209190915260408120915062002f579083905b015460c08562003251565b825562002f6681600062002f4c565b9055505050565b6000806200250f60226200327f565b6000806200250f60216200327f565b60008062002f9862003534565b6001600160a01b03851660009081526020828152604080832061ffff8816845290915281208054600160a81b9004600a90810b900b945091925083121562002fdf57600080fd5b505092915050565b600081121562002ff657600080fd5b60006200300262003534565b6001600160a01b03851660009081526020828152604080832061ffff881684529091529020909150620030358362003543565b8154600a9190910b6001600160581b0316600160a81b026001600160a81b0390911617905550505050565b808203828113156000831215146200250f57600080fd5b60006200308362002f7c565b61ffff8416600090815260209190915260409081902054905163ad1c095d60e01b81526001600160a01b039091169150819063ad1c095d90620030cd908790869060040162004e57565b600060405180830381600087803b158015620030e857600080fd5b505af115801562000d9a573d6000803e3d6000fd5b62003107620040e8565b6000620031148462003577565b905082816000015110156200315b57600080620031318662002e2a565b9050620031418684838862003645565b909350915062003153868385620036f8565b505062003169565b805183146200316957600080fd5b60405180606001604052806200319b620031958460a001518560c00151620034d990919063ffffffff16565b62003469565b8152602001620031c1620031958460a001518560e00151620034d990919063ffffffff16565b8152602001826060015181525091505092915050565b6000806200250f60046200327f565b600080620031f36200344b565b60009384526020525050604090205490565b6000806200250f601c6200327f565b6000816000106200322457600080fd5b60078211156200323357600080fd5b6004821062003246576004820362003248565b815b60080292915050565b6000806200325f836200393b565b6001600160401b0360ff861690811b19871691901b179150509392505050565b6000620f42408260268111156200329257fe5b0192915050565b600081620032a657600080fd5b600160801b8210620032ba57608091821c91015b680100000000000000008210620032d357604091821c91015b600160201b8210620032e757602091821c91015b620100008210620032fa57601091821c91015b61010082106200330c57600891821c91015b601082106200331d57600491821c91015b600482106200332e57600291821c91015b60028210620015e057600101919050565b60606200334c846200286d565b620033895760405162461bcd60e51b815260040180806020018281038252602681526020018062005cbf6026913960400191505060405180910390fd5b600080856001600160a01b0316856040518082805190602001908083835b60208310620033c85780518252601f199092019160209182019101620033a7565b6001836020036101000a038019825116818451168082178552505050505050905001915050600060405180830381855af49150503d80600081146200342a576040519150601f19603f3d011682016040523d82523d6000602084013e6200342f565b606091505b50915091506200344182828662003a61565b9695505050505050565b6000806200250f60096200327f565b6000806200250f60266200327f565b60006001600160ff1b03821115620021bb57600080fd5b818101828112156000831215146200250f57600080fd5b600080821215620021bb57600080fd5b600080620034b4620028dc565b61ffff939093166000908152602093909352505060409020546001600160a01b031690565b600082620034ea575060006200250f565b82820282848281620034f857fe5b0414620029e457600080fd5b60008082116200351357600080fd5b8183816200351d57fe5b049392505050565b6000806200250f601b6200327f565b6000806200250f60066200327f565b60006a7fffffffffffffffffffff1982128015906200356d57506a7fffffffffffffffffffff8213155b620021bb57600080fd5b6200358162004109565b60006200358d62002873565b61ffff93841660009081526020918252604090819020805464ffffffffff811686526501000000000081046001600160581b03908116948701949094526001820154841692860192909252600160d81b820463ffffffff166060860152600160801b9091049091166080840152600201546001600160501b0380821660a0850152600160501b8204811660c0850152600160a01b82041660e0840152600160f01b900460ff1661012c02909216610100820152919050565b6200364f62004109565b60008060006200366188868962003b0b565b60c08b019290925260e08a01929092526020890151919350915062003687908362003c3b565b6020880152608087015160009015620036ba576080880151620036b790620036b0898262003c4e565b9062002eca565b90505b620036de620036d2670de0b6b3a76400008362003c3b565b60a08a01519062003c64565b60a089015250506080860194909452505082529092909150565b60006200370462002873565b60008561ffff16815260200190815260200160002090506200372a826000015162002eb5565b815464ffffffffff191664ffffffffff9190911617815560a0820151620037519062002eeb565b60028201805469ffffffffffffffffffff19166001600160501b039290921691909117905560c0820151620037869062002eeb565b81600201600a6101000a8154816001600160501b0302191690836001600160501b03160217905550620037bd8260e0015162002eeb565b8160020160146101000a8154816001600160501b0302191690836001600160501b03160217905550620037f48260200151620021a4565b81546001600160581b039190911665010000000000026fffffffffffffffffffffff00000000001990911617815560408201516200383290620021a4565b6001820180546affffffffffffffffffffff19166001600160581b039290921691909117905560808201516200386890620021a4565b81546001600160581b0391909116600160801b026affffffffffffffffffffff60801b199091161781556060820151620038a29062003c85565b815463ffffffff91909116600160d81b0263ffffffff60d81b199091161781558215620038f5576000620038d68462003469565b9050620038e4858262003c99565b620038f3610fee868362003077565b505b8361ffff167fef25641e225e493886510ca1ad6584fa7b442b9fea820a29d1de3ce27d270fd28360a001518460c001518560e00151604051620005149392919062005240565b6000816020015160ff16826000015160ff16106200395857600080fd5b6064826020015160ff1611156200396e57600080fd5b816060015160ff16826040015160ff16106200398957600080fd5b60c082015160a0830151622625a060ff9283160291166207a120021115620039b057600080fd5b60648260e0015160ff1610620039c557600080fd5b5060e081015160c082015160a0830151606084015160408501516080860151602080880151975160ff90971660089690961b61ff001660109590951b62ff00001660189490941b63ff0000001692901b64ff000000001660289190911b65ff00000000001660309790971b66ff0000000000001660389690961b60ff60381b169590951795909517939093179390931791909117919091171790565b6060831562003a72575081620029e4565b82511562003a835782518084602001fd5b8160405162461bcd60e51b81526004018080602001828103825283818151815260200191508051906020019080838360005b8381101562003acf57818101518382015260200162003ab5565b50505050905090810190601f16801562003afd5780820380516001836020036101000a031916815260200191505b509250505060405180910390fd5b60008060008060008062003b20898862003cd7565b8951909550919350915060009062003b4b9062003b3f908b9062003c4e565b633b9aca0090620034d9565b905062003b8c62003b806301da9c0062003b668585620034d9565b8162003b6e57fe5b670de0b6b3a764000091900462003c3b565b60e08a01519062003c64565b965062003bb362003ba76301da9c0062003b668785620034d9565b60c08a01519062003c64565b95508183141562003bcc57506000935062003c32915050565b600062003bf362003be76301da9c0062003b668786620034d9565b60e08b01519062003c64565b9050600062003c03898362003c4e565b905062003c2a8862003c23838d60400151620034d990919063ffffffff16565b9062003504565b965050505050505b93509350935093565b600082820183811015620029e457600080fd5b60008282111562003c5e57600080fd5b50900390565b6000620029e462003c768484620034d9565b670de0b6b3a764000062003504565b600063ffffffff821115620021bb57600080fd5b600081121562003ca857600080fd5b600062003cb8610fee8462002f8b565b905062003cc6818362003480565b9050620024bc610fee848362002fe7565b60008060008060008560200151111562003d2b5762003d2862003d0c8660c001518760200151620034d990919063ffffffff16565b60e0870151604088015162003d2191620034d9565b9062003d83565b90505b600062003d388762003d99565b905062003d46818362003dd2565b9450811562003d605762003d5d8186600162003ea3565b93505b60208601511562003d7a5762003d77858362003f29565b92505b50509250925092565b6000620029e462002ee484633b9aca00620034d9565b62003da362004155565b600062003daf62003525565b61ffff8416600090815260209190915260408120549150620029e4908262003f46565b60008083608001511162003de557600080fd5b633b9aca0082111562003df757600080fd5b8251821162003e22578251604084015162003e1a919062003c23908590620034d9565b90506200250f565b8260200151821162003e6657604083015183516020850151606086015162003e1a939262003e5f928190039162003c2391880390859003620034d9565b9062003c3b565b620029e4836060015162003e5f8560200151633b9aca000362003c23876060015188608001510388602001518803620034d990919063ffffffff16565b60008062003ec5606462003c238760e0015187620034d990919063ffffffff16565b90508460a0015181101562003edb575060a08401515b8460c0015181111562003eef575060c08401515b821562003f0a5762003f02848262003c3b565b915062003f21565b83811162003f1b5780840362003f1e565b60005b91505b509392505050565b6000620029e462003f3b8484620034d9565b633b9aca0062003504565b62003f5062004155565b6064633b9aca008360ff86166020811062003f6757fe5b1a028162003f7157fe5b0481526064633b9aca008360ff86166001016020811062003f8e57fe5b1a028162003f9857fe5b0481602001818152505062003fc08260028560ff16016020811062003fb957fe5b1a62004075565b60808201819052610100908360ff86166003016020811062003fde57fe5b1a028162003fe857fe5b0460408201526080810151610100908360ff8616600401602081106200400a57fe5b1a02816200401457fe5b0460608201526207a1208260ff8516600501602081106200403157fe5b1a0260a0820152622625a08260ff8516600601602081106200404f57fe5b1a0260c08201528160ff8416600701602081106200406957fe5b1a60e082015292915050565b60008160ff16609610620040925760ff8216622625a0026200250f565b5060951960ff919091160162e4e1c00263165a0bc00190565b61099b80620052a183390190565b6040805160a0810182526000808252602082018190529181018290529060608201908152602001600081525090565b60405180606001604052806000815260200160008152602001600081525090565b6040518061012001604052806000815260200160008152602001600081526020016000815260200160008152602001600081526020016000815260200160008152602001600081525090565b60405180610100016040528060008152602001600081526020016000815260200160008152602001600081526020016000815260200160008152602001600081525090565b60008083601f840112620041ac578182fd5b5081356001600160401b03811115620041c3578182fd5b6020830191508360208083028501011115620041de57600080fd5b9250929050565b80358015158114620015e057600080fd5b8035620015e0816200527a565b60008083601f84011262004215578182fd5b5081356001600160401b038111156200422c578182fd5b602083019150836020828501011115620041de57600080fd5b6000610140828403121562004258578081fd5b50919050565b6000610100828403121562004258578081fd5b803561ffff81168114620015e057600080fd5b803568ffffffffffffffffff81168114620015e057600080fd5b8035620015e08162005290565b600060208284031215620042bd578081fd5b8135620029e4816200527a565b600060208284031215620042dc578081fd5b8151620029e4816200527a565b60008060408385031215620042fc578081fd5b823562004309816200527a565b915060208301356200431b816200527a565b809150509250929050565b6000806040838503121562004339578182fd5b823562004346816200527a565b91506200435660208401620041e5565b90509250929050565b6000806040838503121562004372578182fd5b82356200437f816200527a565b91506020838101356001600160401b03808211156200439c578384fd5b818601915086601f830112620043b0578384fd5b813581811115620043bd57fe5b620043d1601f8201601f1916850162005256565b91508082528784828501011115620043e7578485fd5b8084840185840137810190920192909252919491935090915050565b6000602080838503121562004416578182fd5b82516001600160401b03808211156200442d578384fd5b818501915085601f83011262004441578384fd5b8151818111156200444e57fe5b83810291506200446084830162005256565b8181528481019084860184860187018a10156200447b578788fd5b8795505b83861015620044ad578051945062004497856200527a565b848352600195909501949186019186016200447f565b5098975050505050505050565b60008060408385031215620044cd578182fd5b82356004811062004309578283fd5b6000610140808385031215620044f0578182fd5b620044fb8162005256565b905062004508836200429e565b815262004518602084016200429e565b60208201526200452b604084016200429e565b60408201526200453e606084016200429e565b606082015262004551608084016200429e565b60808201526200456460a084016200429e565b60a08201526200457760c084016200429e565b60c08201526200458a60e084016200429e565b60e08201526101006200459f8185016200429e565b90820152610120620045b38482016200429e565b908201529392505050565b6000610100808385031215620045d2578182fd5b604051908101906001600160401b0382118183101715620045ef57fe5b81604052620045fe846200429e565b81526200460e602085016200429e565b602082015262004621604085016200429e565b604082015262004634606085016200429e565b606082015262004647608085016200429e565b60808201526200465a60a085016200429e565b60a08201526200466d60c085016200429e565b60c08201526200468060e085016200429e565b60e0820152949350505050565b6000806000806000806000806000806103008b8d031215620046ad578586fd5b60a08b8d031215620046bd578586fd5b8a995060c08a8d03609f19011215620046d4578586fd5b6040516001600160401b038160c08301108160c08401111715620046f457fe5b60c082016040526200470a60a08e01356200527a565b60a08d013582526200472060c08e013562005290565b60c08d013560208301526200473860e08e01620041e5565b60408301526200474c6101008e016200429e565b6060830152620047606101208e016200429e565b6080830152620047746101408e016200429e565b60a0830152819a506200478c8e6101608f016200425e565b99506200479d6102608e01620041f6565b9850620047ae6102808e01620041e5565b9750620047bf6102a08e016200429e565b96506102c08d0135915080821115620047d6578586fd5b620047e48e838f0162004203565b90965094506102e08d0135915080821115620047fe578384fd5b506200480d8d828e0162004203565b915080935050809150509295989b9194979a5092959850565b600060a0828403121562004838578081fd5b60405160a081018181106001600160401b03821117156200485557fe5b604052823562004865816200527a565b81526200487560208401620041e5565b60208201526040830135600681106200488c578283fd5b60408201526060830135620048a18162005290565b6060820152620048b46080840162004284565b60808201529392505050565b600080600080600060608688031215620048d8578283fd5b620048e38662004271565b945060208601356001600160401b0380821115620048ff578485fd5b6200490d89838a016200419a565b9096509450604088013591508082111562004926578283fd5b5062004935888289016200419a565b969995985093965092949392505050565b6000806000806000606086880312156200495e578283fd5b620049698662004271565b945060208601356001600160401b038082111562004985578485fd5b6200499389838a016200419a565b90965094506040880135915080821115620049ac578283fd5b818801915088601f830112620049c0578283fd5b813581811115620049cf578384fd5b89602061010083028501011115620049e5578384fd5b9699959850939650602001949392505050565b60008060008060008060c0878903121562004a11578384fd5b62004a1c8762004271565b9550602087013562004a2e816200527a565b945062004a3e60408801620041e5565b9350606087013562004a508162005290565b9250608087013562004a628162005290565b915060a087013562004a748162005290565b809150509295509295509295565b6000806040838503121562004a95578182fd5b620043098362004271565b60008060008060006060868803121562004ab8578283fd5b62004ac38662004271565b945060208601356001600160401b038082111562004adf578485fd5b62004aed89838a0162004203565b9096509450604088013591508082111562004b06578283fd5b50620049358882890162004203565b600080610160838503121562004b29578182fd5b62004b348362004271565b915062004356846020850162004245565b6000806000806000806101a0878903121562004b5f578384fd5b62004b6a8762004271565b955062004b7b886020890162004245565b94506101608701356001600160401b038082111562004b98578586fd5b62004ba68a838b0162004203565b909650945061018089013591508082111562004bc0578384fd5b5062004bcf89828a0162004203565b979a9699509497509295939492505050565b600080610120838503121562004bf5578182fd5b62004c008362004271565b91506200435684602085016200425e565b60008060006060848603121562004c26578081fd5b62004c318462004271565b925060208401359150604084013562004c4a8162005290565b809150509250925092565b600080600080600080600060e0888a03121562004c70578081fd5b62004c7b8862004271565b9650602088013562004c8d8162005290565b9550604088013562004c9f8162005290565b9450606088013562004cb18162005290565b9350608088013562004cc38162005290565b925060a088013562004cd58162005290565b915060c088013562004ce78162005290565b8091505092959891949750929550565b60006020828403121562004d09578081fd5b5051919050565b6000806040838503121562004d23578182fd5b505080516020909101519092909150565b60006020828403121562004d46578081fd5b813563ffffffff81168114620029e4578182fd5b60006020828403121562004d6c578081fd5b8135620029e48162005290565b60006020828403121562004d8b578081fd5b8151620029e48162005290565b60008284528282602086013780602084860101526020601f19601f85011685010190509392505050565b6001600160a01b0391909116815260200190565b6001600160a01b039290921682521515602082015260400190565b600060018060a01b038416825260206040818401528351806040850152825b8181101562004e2e5785810183015185820160600152820162004e10565b8181111562004e405783606083870101525b50601f01601f191692909201606001949350505050565b6001600160a01b03929092168252602082015260400190565b60208082526019908201527f50543a206c65766572616765207368617265206c656e67746800000000000000604082015260600190565b6020808252601690820152750a0a87440e0e4dee0dee4e8d2dedce640d8cadccee8d60531b604082015260600190565b60208082526013908201527250543a2063757272656e63792065786973747360681b604082015260600190565b6020808252600f908201526e125b9d985b1a59081a185a5c98dd5d608a1b604082015260600190565b6020808252601590820152744f776e61626c653a207a65726f206164647265737360581b604082015260600190565b602080825260119082015270496e76616c696420646973636f756e747360781b604082015260600190565b60208082526022908201527f50543a20616e6e75616c697a656420616e63686f72207261746573206c656e676040820152610e8d60f31b606082015260800190565b60208082526016908201527514150e881b195d995c9859d9481d1a1c995cda1bdb1960521b604082015260600190565b6020808252818101527f4f776e61626c653a2063616c6c6572206973206e6f7420746865206f776e6572604082015260600190565b602080825260149082015273556e617574686f72697a6564207570677261646560601b604082015260600190565b6020808252818101527f4f776e61626c653a2063616c6c657220213d2070656e64696e67206f776e6572604082015260600190565b60208082526016908201527550543a206465706f736974207368617265732073756d60501b604082015260600190565b602080825260139082015272125b9d985b1a590818dd5c9c995b98de481a59606a1b604082015260600190565b60208082526018908201527f50543a206465706f736974207368617265206c656e6774680000000000000000604082015260600190565b60208082526018908201527f50543a20746f6b656e2061646472657373206578697374730000000000000000604082015260600190565b602080825260169082015275282a1d1034b73b30b634b210383937b837b93a34b7b760511b604082015260600190565b602080825260129082015271125b9d985b1a59081c1d881a185a5c98dd5d60721b604082015260600190565b61ffff91909116815260200190565b61ffff9290921682526001600160a01b0316602082015260400190565b61ffff871681526001600160a01b038616602082015260806040820181905260009062005215908301868862004d98565b82810360608401526200522a81858762004d98565b9998505050505050505050565b90815260200190565b9283526020830191909152604082015260600190565b6040518181016001600160401b03811182821017156200527257fe5b604052919050565b6001600160a01b0381168114620007b657600080fd5b60ff81168114620007b657600080fdfe608060405260405161099b38038061099b8339818101604052604081101561002657600080fd5b81516020830180516040519294929383019291908464010000000082111561004d57600080fd5b90830190602082018581111561006257600080fd5b825164010000000081118282018810171561007c57600080fd5b82525081516020918201929091019080838360005b838110156100a9578181015183820152602001610091565b50505050905090810190601f1680156100d65780820380516001836020036101000a031916815260200191505b50604052508391508290506100ed828260006100f6565b505050506104fa565b6100ff836101c5565b6040516001600160a01b038416907f1cf3b03a6cf19fa2baba4df148e9dcabedea7f8a5c07840e207e5c089be95d3e90600090a26000825111806101405750805b156101c0576101be836001600160a01b0316635c60da1b6040518163ffffffff1660e01b815260040160206040518083038186803b15801561018157600080fd5b505afa158015610195573d6000803e3d6000fd5b505050506040513d60208110156101ab57600080fd5b50518361031e602090811b6100b717901c565b505b505050565b6101d88161034a60201b6100e31760201c565b6102135760405162461bcd60e51b81526004018080602001828103825260258152602001806108f96025913960400191505060405180910390fd5b61028b816001600160a01b0316635c60da1b6040518163ffffffff1660e01b815260040160206040518083038186803b15801561024f57600080fd5b505afa158015610263573d6000803e3d6000fd5b505050506040513d602081101561027957600080fd5b505161034a602090811b6100e317901c565b6102c65760405162461bcd60e51b815260040180806020018281038252603081526020018061096b6030913960400191505060405180910390fd5b806102fd7fa3f0ad74e5423aebfd80d3ef4346578335a9a72aeaee59ff6cb3582b35133d5060001b61035060201b6100e91760201c565b80546001600160a01b0319166001600160a01b039290921691909117905550565b6060610343838360405180606001604052806027815260200161091e60279139610353565b9392505050565b3b151590565b90565b606061035e8461034a565b6103995760405162461bcd60e51b81526004018080602001828103825260268152602001806109456026913960400191505060405180910390fd5b600080856001600160a01b0316856040518082805190602001908083835b602083106103d65780518252601f1990920191602091820191016103b7565b6001836020036101000a038019825116818451168082178552505050505050905001915050600060405180830381855af49150503d8060008114610436576040519150601f19603f3d011682016040523d82523d6000602084013e61043b565b606091505b50909250905061044c828286610456565b9695505050505050565b60608315610465575081610343565b8251156104755782518084602001fd5b8160405162461bcd60e51b81526004018080602001828103825283818151815260200191508051906020019080838360005b838110156104bf5781810151838201526020016104a7565b50505050905090810190601f1680156104ec5780820380516001836020036101000a031916815260200191505b509250505060405180910390fd5b6103f0806105096000396000f3fe60806040526004361061002d5760003560e01c80632d6b3a6b1461003e578063aaf10f421461006f57610034565b3661003457005b61003c610084565b005b34801561004a57600080fd5b5061005361009e565b604080516001600160a01b039092168252519081900360200190f35b34801561007b57600080fd5b506100536100ad565b61008c61009c565b61009c6100976100ec565b61015f565b565b60006100a8610183565b905090565b60006100a86100ec565b60606100dc838360405180606001604052806027815260200161036e6027913961018d565b9392505050565b3b151590565b90565b60006100f661028f565b6001600160a01b0316635c60da1b6040518163ffffffff1660e01b815260040160206040518083038186803b15801561012e57600080fd5b505afa158015610142573d6000803e3d6000fd5b505050506040513d602081101561015857600080fd5b5051905090565b3660008037600080366000845af43d6000803e80801561017e573d6000f35b3d6000fd5b60006100a861028f565b6060610198846100e3565b6101d35760405162461bcd60e51b81526004018080602001828103825260268152602001806103956026913960400191505060405180910390fd5b600080856001600160a01b0316856040518082805190602001908083835b602083106102105780518252601f1990920191602091820191016101f1565b6001836020036101000a038019825116818451168082178552505050505050905001915050600060405180830381855af49150503d8060008114610270576040519150601f19603f3d011682016040523d82523d6000602084013e610275565b606091505b50915091506102858282866102c9565b9695505050505050565b60006102ba7fa3f0ad74e5423aebfd80d3ef4346578335a9a72aeaee59ff6cb3582b35133d506100e9565b546001600160a01b0316905090565b606083156102d85750816100dc565b8251156102e85782518084602001fd5b8160405162461bcd60e51b81526004018080602001828103825283818151815260200191508051906020019080838360005b8381101561033257818101518382015260200161031a565b50505050905090810190601f16801561035f5780820380516001836020036101000a031916815260200191505b509250505060405180910390fdfe416464726573733a206c6f772d6c6576656c2064656c65676174652063616c6c206661696c6564416464726573733a2064656c65676174652063616c6c20746f206e6f6e2d636f6e7472616374a26469706673582212209140e03fcc039e1369cdf054f1cb597ce755a741c8c8a47edc66203d357ded6764736f6c63430007060033455243313936373a206e657720626561636f6e206973206e6f74206120636f6e7472616374416464726573733a206c6f772d6c6576656c2064656c65676174652063616c6c206661696c6564416464726573733a2064656c65676174652063616c6c20746f206e6f6e2d636f6e7472616374455243313936373a20626561636f6e20696d706c656d656e746174696f6e206973206e6f74206120636f6e747261637445524331393637557067726164653a207570677261646520627265616b732066757274686572207570677261646573455243313936373a206e657720696d706c656d656e746174696f6e206973206e6f74206120636f6e7472616374416464726573733a206c6f772d6c6576656c2064656c65676174652063616c6c206661696c6564416464726573733a2064656c65676174652063616c6c20746f206e6f6e2d636f6e7472616374a2646970667358221220717e3d2c82b55a28674c5a184e997da1e0bac90890b94a0cdb16ac5fdd3ae94564736f6c63430007060033","bytecodeSha1":"4cfa3e8f7018df5757652f8397b5f3f6ab2b6bd3","compiler":{"evm_version":"istanbul","optimizer":{"enabled":true,"runs":200},"version":"0.7.6+commit.7338295f"},"contractName":"GovernanceAction","language":"Solidity","natspec":{"kind":"dev","methods":{"claimOwnership()":{"notice":"Needs to be called by `pendingOwner` to claim ownership."},"enableCashGroup(uint16,(uint8,uint8,uint8,uint8,uint8,uint8,uint8,uint8,uint8,uint8),string,string)":{"details":"emit:UpdateCashGroup emit:UpdateAssetRate emit:DeployNToken","notice":"Enables a cash group on a given currency so that it can have lend and borrow markets. Will also deploy an nToken contract so that markets can be initialized.","params":{"cashGroup":"parameters for the cash group","currencyId":"id of the currency to enable","underlyingName":"underlying token name for seeding nToken name","underlyingSymbol":"underlying token symbol for seeding nToken symbol (i.e. nDAI)"}},"listCurrency((address,bool,uint8,uint8,uint72),(address,uint8,bool,uint8,uint8,uint8),(uint8,uint8,uint8,uint8,uint8,uint8,uint8,uint8),address,bool,uint8,string,string)":{"details":"emit:ListCurrency emit:UpdateETHRate","notice":"Lists a new currency along with its exchange rate to ETH","params":{"underlyingToken":"the underlying token (if asset token is an interest bearing wrapper)"},"returns":{"_0":"the new currency id"}},"setMaxUnderlyingSupply(uint16,uint256,uint8)":{"notice":"Sets the prime cash supply and debt caps for a given currency","params":{"currencyId":"id of the currency","maxPrimeDebtUtilization":"the max utilization in PERCENTAGE_DECIMALS for prime debt. A value of zero means no cap.","maxUnderlyingSupply":"the maximum total supply of prime cash in underlying terms and 8 decimal precision. A value of zero means no cap."}},"setPauseRouterAndGuardian(address,address)":{"notice":"Sets a new pause router and guardian address."},"transferOwnership(address,bool)":{"notice":"Transfers ownership to `newOwner`. Either directly or claimable by the new pending owner. Can only be invoked by the current `owner`.","params":{"direct":"True if `newOwner` should be set immediately. False if `newOwner` needs to use `claimOwnership`.","newOwner":"Address of the new owner."}},"updateAuthorizedCallbackContract(address,bool)":{"details":"emit:UpdateAuthorizedCallbackContract","notice":"Approves contracts that can call `batchTradeActionWithCallback`. These contracts can \"flash loan\" from Notional V2 and receive a callback before the free collateral check. Flash loans via the Notional V2 liquidity pool are not very gas efficient so this is not generally available, it can be used for migrating borrows into Notional V2 from other platforms.","params":{"approved":"true if the contract is authorized","operator":"address of the contract"}},"updateCashGroup(uint16,(uint8,uint8,uint8,uint8,uint8,uint8,uint8,uint8,uint8,uint8))":{"details":"emit:UpdateCashGroup","notice":"Updates cash group parameters","params":{"cashGroup":"new parameters for the cash group","currencyId":"id of the currency to enable"}},"updateDepositParameters(uint16,uint32[],uint32[])":{"details":"emit:UpdateDepositParameters","notice":"Updates the deposit parameters for an nToken","params":{"currencyId":"the currency id that the nToken references","depositShares":"an array of values that represent the proportion of each deposit that will go to a respective market, must add up to DEPOSIT_PERCENT_BASIS. For example, 0.40e8, 0.40e8 and 0.20e8 will result in 40%, 40% and 20% deposited as liquidity into the 3 month, 6 month and 1 year markets.","leverageThresholds":"an array of values denominated in RATE_PRECISION that mark the highest proportion of fCash where the nToken will provide liquidity. Above this proportion, the nToken will lend to the market instead to reduce the leverage in the market."}},"updateETHRate(uint16,address,bool,uint8,uint8,uint8)":{"details":"emit:UpdateETHRate","notice":"Updates ETH exchange rate or related parameters","params":{"buffer":"multiplier (>= 100) for negative balances when calculating free collateral","currencyId":"id of the currency","haircut":"multiplier (<= 100) for positive balances when calculating free collateral","liquidationDiscount":"multiplier (>= 100) for exchange rate when liquidating","mustInvert":"if the rate from the oracle needs to be inverted","rateOracle":"ETH to underlying rate oracle"}},"updateInitializationParameters(uint16,uint32[],uint32[])":{"details":"emit:UpdateInitializationParameters","notice":"Updates the market initialization parameters for an nToken","params":{"annualizedAnchorRates":"is a target interest rate that will be used to calculate a  rate anchor during initialize markets. This rate anchor will set the offset from the x-axis where the liquidity curve will be initialized. This is used in combination with previous market rates to determine the initial proportion where markets will be initialized every quarter.","currencyId":"the currency id that the nToken references","proportions":"used to combination with annualizedAnchorRate set the initial proportion when a market is first initialized. This is required since there is no previous rate to reference."}},"updateInterestRateCurve(uint16,uint8[],(uint8,uint8,uint8,uint8,uint8,uint8,uint8,uint8)[])":{"details":"emit:UpdateInterestRateCurve","notice":"Updates the interest rate curve parameters that will take effect after the next market initialization.","params":{"currencyId":"the currency id to update","marketIndices":"a list of market indices to update the settings for","settings":"the settings for the interest rate curve that will be set on the next market initialization for the interest rate curve, corresponding to the marketIndices"}},"updateTokenCollateralParameters(uint16,uint8,uint8,uint8,uint8,uint8,uint8)":{"details":"emit:UpdateTokenCollateralParameters","notice":"Updates collateralization parameters for an nToken","params":{"cashWithholdingBuffer10BPS":"nToken residuals may be negative fCash (debt), in this case cash is withheld to transfer to accounts that take on the debt. This parameter denominates the discounted rate at which the cash will be withheld at for this purpose.","currencyId":"the currency id that the nToken references","liquidationHaircutPercentage":"a percentage of nToken present value (> pvHaircutPercentage and <= 100) at which liquidators will purchase nTokens during liquidation","maxMintDeviation5BPS":"a limit on the deviation from the oracle rate valuation of the nToken during minting, cannot be greater than the difference between the liquidationHaircutPercentage and the pvHaircutPercentage","pvHaircutPercentage":"a percentage (< 100) that the present value of the nToken's assets will be valued at for the purposes of free collateral, relevant when accounts hold nTokens as collateral against debts.","residualPurchaseIncentive10BPS":"nTokens will have residual amounts of fCash at the end of each quarter that are \"dead weight\" because they are at idiosyncratic maturities and do not contribute to actively providing liquidity. This parameter will incentivize market participants to purchase these residuals at a discount from the on chain oracle rate, denominated in 10 basis point increments. These residuals will be added back into nToken balances and will be used to provide liquidity upon the next market initialization.","residualPurchaseTimeBufferHours":"an arbitrage opportunity is available by pushing markets in one direction before quarterly settlement to generate large residual balances that can be purchased at a discount. The time buffer here ensures that anyone attempting such an act would have to wait some number of hours (likely a few days) before they could attempt to purchase residuals, ensuring that the market could realign to rates where the arbitrage is no longer possible."}},"upgradeBeacon(uint8,address)":{"notice":"Allows Notional governance to upgrade various Beacon proxies external to the system"},"upgradeTo(address)":{"details":"Upgrade the implementation of the proxy to `newImplementation`. Calls {_authorizeUpgrade}. Emits an {Upgraded} event."},"upgradeToAndCall(address,bytes)":{"details":"Upgrade the implementation of the proxy to `newImplementation`, and subsequently execute the function call encoded in `data`. Calls {_authorizeUpgrade}. Emits an {Upgraded} event."}},"notice":"Governance methods can only be called by the governance contract","version":1},"opcodes":"PUSH1 0x80 PUSH1 0x40 MSTORE PUSH1 0x4 CALLDATASIZE LT PUSH3 0x15E JUMPI PUSH1 0x0 CALLDATALOAD PUSH1 0xE0 SHR DUP1 PUSH4 0x57F0E3E8 GT PUSH3 0xC7 JUMPI DUP1 PUSH4 0xB739ECDE GT PUSH3 0x79 JUMPI DUP1 PUSH4 0xB739ECDE EQ PUSH3 0x3BF JUMPI DUP1 PUSH4 0xBC74BDEB EQ PUSH3 0x3E4 JUMPI DUP1 PUSH4 0xC572CAE4 EQ PUSH3 0x3FC JUMPI DUP1 PUSH4 0xCFAAF474 EQ PUSH3 0x421 JUMPI DUP1 PUSH4 0xE1D548E7 EQ PUSH3 0x446 JUMPI DUP1 PUSH4 0xFA17B5F1 EQ PUSH3 0x46B JUMPI PUSH3 0x15E JUMP JUMPDEST DUP1 PUSH4 0x57F0E3E8 EQ PUSH3 0x2FB JUMPI DUP1 PUSH4 0x744EC0EF EQ PUSH3 0x320 JUMPI DUP1 PUSH4 0x82463367 EQ PUSH3 0x345 JUMPI DUP1 PUSH4 0x8DA5CB5B EQ PUSH3 0x35D JUMPI DUP1 PUSH4 0x9F84960A EQ PUSH3 0x375 JUMPI DUP1 PUSH4 0xB242E534 EQ PUSH3 0x39A JUMPI PUSH3 0x15E JUMP JUMPDEST DUP1 PUSH4 0x3659CFE6 GT PUSH3 0x121 JUMPI DUP1 PUSH4 0x3659CFE6 EQ PUSH3 0x229 JUMPI DUP1 PUSH4 0x39F7CD70 EQ PUSH3 0x24E JUMPI DUP1 PUSH4 0x413F2C5F EQ PUSH3 0x273 JUMPI DUP1 PUSH4 0x4E62CF3D EQ PUSH3 0x298 JUMPI DUP1 PUSH4 0x4E71E0C8 EQ PUSH3 0x2CC JUMPI DUP1 PUSH4 0x4F1EF286 EQ PUSH3 0x2E4 JUMPI PUSH3 0x15E JUMP JUMPDEST DUP1 PUSH4 0x90B917B EQ PUSH3 0x163 JUMPI DUP1 PUSH4 0x11472FBD EQ PUSH3 0x18A JUMPI DUP1 PUSH4 0x13EABEBD EQ PUSH3 0x1AF JUMPI DUP1 PUSH4 0x24A3D622 EQ PUSH3 0x1D4 JUMPI DUP1 PUSH4 0x3531A090 EQ PUSH3 0x204 JUMPI JUMPDEST PUSH1 0x0 DUP1 REVERT JUMPDEST CALLVALUE DUP1 ISZERO PUSH3 0x170 JUMPI PUSH1 0x0 DUP1 REVERT JUMPDEST POP PUSH3 0x188 PUSH3 0x182 CALLDATASIZE PUSH1 0x4 PUSH3 0x4C11 JUMP JUMPDEST PUSH3 0x490 JUMP JUMPDEST STOP JUMPDEST CALLVALUE DUP1 ISZERO PUSH3 0x197 JUMPI PUSH1 0x0 DUP1 REVERT JUMPDEST POP PUSH3 0x188 PUSH3 0x1A9 CALLDATASIZE PUSH1 0x4 PUSH3 0x4C55 JUMP JUMPDEST PUSH3 0x522 JUMP JUMPDEST CALLVALUE DUP1 ISZERO PUSH3 0x1BC JUMPI PUSH1 0x0 DUP1 REVERT JUMPDEST POP PUSH3 0x188 PUSH3 0x1CE CALLDATASIZE PUSH1 0x4 PUSH3 0x44BA JUMP JUMPDEST PUSH3 0x5DC JUMP JUMPDEST CALLVALUE DUP1 ISZERO PUSH3 0x1E1 JUMPI PUSH1 0x0 DUP1 REVERT JUMPDEST POP PUSH3 0x1EC PUSH3 0x73B JUMP JUMPDEST PUSH1 0x40 MLOAD PUSH3 0x1FB SWAP2 SWAP1 PUSH3 0x4DC2 JUMP JUMPDEST PUSH1 0x40 MLOAD DUP1 SWAP2 SUB SWAP1 RETURN JUMPDEST CALLVALUE DUP1 ISZERO PUSH3 0x211 JUMPI PUSH1 0x0 DUP1 REVERT JUMPDEST POP PUSH3 0x188 PUSH3 0x223 CALLDATASIZE PUSH1 0x4 PUSH3 0x4A82 JUMP JUMPDEST PUSH3 0x74A JUMP JUMPDEST CALLVALUE DUP1 ISZERO PUSH3 0x236 JUMPI PUSH1 0x0 DUP1 REVERT JUMPDEST POP PUSH3 0x188 PUSH3 0x248 CALLDATASIZE PUSH1 0x4 PUSH3 0x42AB JUMP JUMPDEST PUSH3 0x78E JUMP JUMPDEST CALLVALUE DUP1 ISZERO PUSH3 0x25B JUMPI PUSH1 0x0 DUP1 REVERT JUMPDEST POP PUSH3 0x188 PUSH3 0x26D CALLDATASIZE PUSH1 0x4 PUSH3 0x4B15 JUMP JUMPDEST PUSH3 0x7B9 JUMP JUMPDEST CALLVALUE DUP1 ISZERO PUSH3 0x280 JUMPI PUSH1 0x0 DUP1 REVERT JUMPDEST POP PUSH3 0x188 PUSH3 0x292 CALLDATASIZE PUSH1 0x4 PUSH3 0x48C0 JUMP JUMPDEST PUSH3 0x804 JUMP JUMPDEST CALLVALUE DUP1 ISZERO PUSH3 0x2A5 JUMPI PUSH1 0x0 DUP1 REVERT JUMPDEST POP PUSH3 0x2BD PUSH3 0x2B7 CALLDATASIZE PUSH1 0x4 PUSH3 0x468D JUMP JUMPDEST PUSH3 0x896 JUMP JUMPDEST PUSH1 0x40 MLOAD PUSH3 0x1FB SWAP2 SWAP1 PUSH3 0x51B8 JUMP JUMPDEST CALLVALUE DUP1 ISZERO PUSH3 0x2D9 JUMPI PUSH1 0x0 DUP1 REVERT JUMPDEST POP PUSH3 0x188 PUSH3 0xBD4 JUMP JUMPDEST PUSH3 0x188 PUSH3 0x2F5 CALLDATASIZE PUSH1 0x4 PUSH3 0x435F JUMP JUMPDEST PUSH3 0xC7F JUMP JUMPDEST CALLVALUE DUP1 ISZERO PUSH3 0x308 JUMPI PUSH1 0x0 DUP1 REVERT JUMPDEST POP PUSH3 0x188 PUSH3 0x31A CALLDATASIZE PUSH1 0x4 PUSH3 0x4AA0 JUMP JUMPDEST PUSH3 0xC98 JUMP JUMPDEST CALLVALUE DUP1 ISZERO PUSH3 0x32D JUMPI PUSH1 0x0 DUP1 REVERT JUMPDEST POP PUSH3 0x188 PUSH3 0x33F CALLDATASIZE PUSH1 0x4 PUSH3 0x42E9 JUMP JUMPDEST PUSH3 0xDA4 JUMP JUMPDEST CALLVALUE DUP1 ISZERO PUSH3 0x352 JUMPI PUSH1 0x0 DUP1 REVERT JUMPDEST POP PUSH3 0x1EC PUSH3 0xE36 JUMP JUMPDEST CALLVALUE DUP1 ISZERO PUSH3 0x36A JUMPI PUSH1 0x0 DUP1 REVERT JUMPDEST POP PUSH3 0x1EC PUSH3 0xE45 JUMP JUMPDEST CALLVALUE DUP1 ISZERO PUSH3 0x382 JUMPI PUSH1 0x0 DUP1 REVERT JUMPDEST POP PUSH3 0x188 PUSH3 0x394 CALLDATASIZE PUSH1 0x4 PUSH3 0x4BE1 JUMP JUMPDEST PUSH3 0xE5B JUMP JUMPDEST CALLVALUE DUP1 ISZERO PUSH3 0x3A7 JUMPI PUSH1 0x0 DUP1 REVERT JUMPDEST POP PUSH3 0x188 PUSH3 0x3B9 CALLDATASIZE PUSH1 0x4 PUSH3 0x4326 JUMP JUMPDEST PUSH3 0xEAB JUMP JUMPDEST CALLVALUE DUP1 ISZERO PUSH3 0x3CC JUMPI PUSH1 0x0 DUP1 REVERT JUMPDEST POP PUSH3 0x188 PUSH3 0x3DE CALLDATASIZE PUSH1 0x4 PUSH3 0x4B45 JUMP JUMPDEST PUSH3 0xFAB JUMP JUMPDEST CALLVALUE DUP1 ISZERO PUSH3 0x3F1 JUMPI PUSH1 0x0 DUP1 REVERT JUMPDEST POP PUSH3 0x1EC PUSH3 0x1112 JUMP JUMPDEST CALLVALUE DUP1 ISZERO PUSH3 0x409 JUMPI PUSH1 0x0 DUP1 REVERT JUMPDEST POP PUSH3 0x188 PUSH3 0x41B CALLDATASIZE PUSH1 0x4 PUSH3 0x49F8 JUMP JUMPDEST PUSH3 0x1121 JUMP JUMPDEST CALLVALUE DUP1 ISZERO PUSH3 0x42E JUMPI PUSH1 0x0 DUP1 REVERT JUMPDEST POP PUSH3 0x188 PUSH3 0x440 CALLDATASIZE PUSH1 0x4 PUSH3 0x48C0 JUMP JUMPDEST PUSH3 0x11B8 JUMP JUMPDEST CALLVALUE DUP1 ISZERO PUSH3 0x453 JUMPI PUSH1 0x0 DUP1 REVERT JUMPDEST POP PUSH3 0x188 PUSH3 0x465 CALLDATASIZE PUSH1 0x4 PUSH3 0x4946 JUMP JUMPDEST PUSH3 0x123B JUMP JUMPDEST CALLVALUE DUP1 ISZERO PUSH3 0x478 JUMPI PUSH1 0x0 DUP1 REVERT JUMPDEST POP PUSH3 0x188 PUSH3 0x48A CALLDATASIZE PUSH1 0x4 PUSH3 0x4326 JUMP JUMPDEST PUSH3 0x142D JUMP JUMPDEST PUSH1 0x0 SLOAD PUSH1 0x1 PUSH1 0x20 SHL SWAP1 DIV PUSH1 0x1 PUSH1 0x1 PUSH1 0xA0 SHL SUB AND CALLER EQ PUSH3 0x4CD JUMPI PUSH1 0x40 MLOAD PUSH3 0x461BCD PUSH1 0xE5 SHL DUP2 MSTORE PUSH1 0x4 ADD PUSH3 0x4C4 SWAP1 PUSH3 0x4FF9 JUMP JUMPDEST PUSH1 0x40 MLOAD DUP1 SWAP2 SUB SWAP1 REVERT JUMPDEST PUSH1 0x0 PUSH3 0x4DC DUP5 DUP5 DUP5 PUSH3 0x14DA JUMP JUMPDEST SWAP1 POP DUP4 PUSH2 0xFFFF AND PUSH32 0xA1C5AEF47AF9497B93EC06E3639C5077CE0E79C7E47D2405854BEBF2297CBCDF DUP3 PUSH1 0x40 MLOAD PUSH3 0x514 SWAP2 SWAP1 PUSH3 0x5237 JUMP JUMPDEST PUSH1 0x40 MLOAD DUP1 SWAP2 SUB SWAP1 LOG2 POP POP POP POP JUMP JUMPDEST PUSH1 0x0 SLOAD PUSH1 0x1 PUSH1 0x20 SHL SWAP1 DIV PUSH1 0x1 PUSH1 0x1 PUSH1 0xA0 SHL SUB AND CALLER EQ PUSH3 0x556 JUMPI PUSH1 0x40 MLOAD PUSH3 0x461BCD PUSH1 0xE5 SHL DUP2 MSTORE PUSH1 0x4 ADD PUSH3 0x4C4 SWAP1 PUSH3 0x4FF9 JUMP JUMPDEST PUSH3 0x561 DUP8 PUSH3 0x1578 JUMP JUMPDEST PUSH1 0x0 PUSH3 0x572 DUP9 PUSH2 0xFFFF AND PUSH3 0x15B6 JUMP JUMPDEST SWAP1 POP PUSH1 0x1 PUSH1 0x1 PUSH1 0xA0 SHL SUB DUP2 AND PUSH3 0x588 JUMPI PUSH1 0x0 DUP1 REVERT JUMPDEST PUSH3 0x599 DUP2 DUP9 DUP9 DUP9 DUP9 DUP9 DUP9 PUSH3 0x15E5 JUMP JUMPDEST PUSH32 0xE3BFB18D6259BE9A43CD772D68C97FE6C61C35A17ACB12E047AD8C9698E40AEB DUP9 PUSH1 0x40 MLOAD PUSH3 0x5CA SWAP2 SWAP1 PUSH3 0x51B8 JUMP JUMPDEST PUSH1 0x40 MLOAD DUP1 SWAP2 SUB SWAP1 LOG1 POP POP POP POP POP POP POP POP JUMP JUMPDEST PUSH1 0x0 SLOAD PUSH1 0x1 PUSH1 0x20 SHL SWAP1 DIV PUSH1 0x1 PUSH1 0x1 PUSH1 0xA0 SHL SUB AND CALLER EQ PUSH3 0x610 JUMPI PUSH1 0x40 MLOAD PUSH3 0x461BCD PUSH1 0xE5 SHL DUP2 MSTORE PUSH1 0x4 ADD PUSH3 0x4C4 SWAP1 PUSH3 0x4FF9 JUMP JUMPDEST PUSH1 0x0 DUP1 DUP4 PUSH1 0x3 DUP2 GT ISZERO PUSH3 0x620 JUMPI INVALID JUMPDEST EQ ISZERO PUSH3 0x643 JUMPI POP PUSH20 0xC4FD259B816D081C8BDD22D6BBD3495DB1573DB7 PUSH3 0x6D4 JUMP JUMPDEST PUSH1 0x1 DUP4 PUSH1 0x3 DUP2 GT ISZERO PUSH3 0x652 JUMPI INVALID JUMPDEST EQ ISZERO PUSH3 0x675 JUMPI POP PUSH20 0x1F681977AF5392D9CA5572FB394BC4D12939A6A9 PUSH3 0x6D4 JUMP JUMPDEST PUSH1 0x2 DUP4 PUSH1 0x3 DUP2 GT ISZERO PUSH3 0x684 JUMPI INVALID JUMPDEST EQ ISZERO PUSH3 0x6A7 JUMPI POP PUSH20 0xDF08039C0AF34E34660AC7C2705C0DA953247640 PUSH3 0x6D4 JUMP JUMPDEST PUSH1 0x3 DUP4 PUSH1 0x3 DUP2 GT ISZERO PUSH3 0x6B6 JUMPI INVALID JUMPDEST EQ ISZERO PUSH3 0x15E JUMPI POP PUSH20 0xEBE1BF1653D55D31F6ED38B1A4CCFE2A92338F66 JUMPDEST PUSH1 0x40 MLOAD PUSH4 0x1B2CE7F3 PUSH1 0xE1 SHL DUP2 MSTORE PUSH1 0x1 PUSH1 0x1 PUSH1 0xA0 SHL SUB DUP3 AND SWAP1 PUSH4 0x3659CFE6 SWAP1 PUSH3 0x702 SWAP1 DUP6 SWAP1 PUSH1 0x4 ADD PUSH3 0x4DC2 JUMP JUMPDEST PUSH1 0x0 PUSH1 0x40 MLOAD DUP1 DUP4 SUB DUP2 PUSH1 0x0 DUP8 DUP1 EXTCODESIZE ISZERO DUP1 ISZERO PUSH3 0x71D JUMPI PUSH1 0x0 DUP1 REVERT JUMPDEST POP GAS CALL ISZERO DUP1 ISZERO PUSH3 0x732 JUMPI RETURNDATASIZE PUSH1 0x0 DUP1 RETURNDATACOPY RETURNDATASIZE PUSH1 0x0 REVERT JUMPDEST POP POP POP POP POP POP POP JUMP JUMPDEST PUSH1 0x2 SLOAD PUSH1 0x1 PUSH1 0x1 PUSH1 0xA0 SHL SUB AND DUP2 JUMP JUMPDEST PUSH1 0x0 SLOAD PUSH1 0x1 PUSH1 0x20 SHL SWAP1 DIV PUSH1 0x1 PUSH1 0x1 PUSH1 0xA0 SHL SUB AND CALLER EQ PUSH3 0x77E JUMPI PUSH1 0x40 MLOAD PUSH3 0x461BCD PUSH1 0xE5 SHL DUP2 MSTORE PUSH1 0x4 ADD PUSH3 0x4C4 SWAP1 PUSH3 0x4FF9 JUMP JUMPDEST PUSH3 0x78A DUP3 DUP3 PUSH3 0x1734 JUMP JUMPDEST POP POP JUMP JUMPDEST PUSH3 0x799 DUP2 PUSH3 0x17B1 JUMP JUMPDEST PUSH3 0x7B6 DUP2 PUSH1 0x40 MLOAD DUP1 PUSH1 0x20 ADD PUSH1 0x40 MSTORE DUP1 PUSH1 0x0 DUP2 MSTORE POP PUSH1 0x0 PUSH3 0x1858 JUMP JUMPDEST POP JUMP JUMPDEST PUSH1 0x0 SLOAD PUSH1 0x1 PUSH1 0x20 SHL SWAP1 DIV PUSH1 0x1 PUSH1 0x1 PUSH1 0xA0 SHL SUB AND CALLER EQ PUSH3 0x7ED JUMPI PUSH1 0x40 MLOAD PUSH3 0x461BCD PUSH1 0xE5 SHL DUP2 MSTORE PUSH1 0x4 ADD PUSH3 0x4C4 SWAP1 PUSH3 0x4FF9 JUMP JUMPDEST PUSH3 0x7F8 DUP3 PUSH3 0x1578 JUMP JUMPDEST PUSH3 0x78A DUP3 DUP3 PUSH3 0x199E JUMP JUMPDEST PUSH1 0x0 SLOAD PUSH1 0x1 PUSH1 0x20 SHL SWAP1 DIV PUSH1 0x1 PUSH1 0x1 PUSH1 0xA0 SHL SUB AND CALLER EQ PUSH3 0x838 JUMPI PUSH1 0x40 MLOAD PUSH3 0x461BCD PUSH1 0xE5 SHL DUP2 MSTORE PUSH1 0x4 ADD PUSH3 0x4C4 SWAP1 PUSH3 0x4FF9 JUMP JUMPDEST PUSH3 0x843 DUP6 PUSH3 0x1578 JUMP JUMPDEST PUSH3 0x856 DUP6 PUSH2 0xFFFF AND DUP6 DUP6 DUP6 DUP6 PUSH3 0x19EF JUMP JUMPDEST PUSH32 0xFF9528B00F1B4A49AD8A5D2C82E5602C172EE7E42BC1F5B7D505A7581B438234 DUP6 PUSH1 0x40 MLOAD PUSH3 0x887 SWAP2 SWAP1 PUSH3 0x51B8 JUMP JUMPDEST PUSH1 0x40 MLOAD DUP1 SWAP2 SUB SWAP1 LOG1 POP POP POP POP POP JUMP JUMPDEST PUSH1 0x0 DUP1 SLOAD PUSH1 0x1 PUSH1 0x20 SHL SWAP1 DIV PUSH1 0x1 PUSH1 0x1 PUSH1 0xA0 SHL SUB AND CALLER EQ PUSH3 0x8CB JUMPI PUSH1 0x40 MLOAD PUSH3 0x461BCD PUSH1 0xE5 SHL DUP2 MSTORE PUSH1 0x4 ADD PUSH3 0x4C4 SWAP1 PUSH3 0x4FF9 JUMP JUMPDEST PUSH1 0x0 DUP1 SLOAD PUSH2 0xFFFF DUP1 DUP3 AND PUSH1 0x1 ADD SWAP1 DUP2 AND PUSH2 0xFFFF NOT SWAP1 SWAP3 AND DUP3 OR SWAP1 SWAP3 SSTORE PUSH2 0x3FFF LT ISZERO PUSH3 0x8F6 JUMPI PUSH1 0x0 DUP1 REVERT JUMPDEST PUSH1 0x9 PUSH1 0x0 PUSH3 0x909 PUSH1 0x20 DUP16 ADD DUP16 PUSH3 0x42AB JUMP JUMPDEST PUSH1 0x1 PUSH1 0x1 PUSH1 0xA0 SHL SUB AND DUP2 MSTORE PUSH1 0x20 DUP2 ADD SWAP2 SWAP1 SWAP2 MSTORE PUSH1 0x40 ADD PUSH1 0x0 KECCAK256 SLOAD PUSH2 0xFFFF AND ISZERO PUSH3 0x932 JUMPI PUSH1 0x0 DUP1 REVERT JUMPDEST DUP1 PUSH1 0x9 PUSH1 0x0 DUP15 PUSH1 0x0 ADD PUSH1 0x20 DUP2 ADD SWAP1 PUSH3 0x94C SWAP2 SWAP1 PUSH3 0x42AB JUMP JUMPDEST PUSH1 0x1 PUSH1 0x1 PUSH1 0xA0 SHL SUB AND DUP2 MSTORE PUSH1 0x20 DUP2 ADD SWAP2 SWAP1 SWAP2 MSTORE PUSH1 0x40 ADD PUSH1 0x0 KECCAK256 DUP1 SLOAD PUSH2 0xFFFF NOT AND PUSH2 0xFFFF SWAP3 DUP4 AND OR SWAP1 SSTORE PUSH3 0x993 SWAP1 DUP3 AND PUSH3 0x98D CALLDATASIZE DUP16 SWAP1 SUB DUP16 ADD DUP16 PUSH3 0x4826 JUMP JUMPDEST PUSH3 0x1B31 JUMP JUMPDEST PUSH3 0x99F DUP2 DUP13 PUSH3 0x1D25 JUMP JUMPDEST PUSH3 0x9AB DUP2 DUP11 PUSH3 0x1F35 JUMP JUMPDEST PUSH1 0x0 DUP10 PUSH1 0x1 PUSH1 0x1 PUSH1 0xA0 SHL SUB AND PUSH4 0xEF81F216 PUSH1 0x40 MLOAD DUP2 PUSH4 0xFFFFFFFF AND PUSH1 0xE0 SHL DUP2 MSTORE PUSH1 0x4 ADD PUSH1 0x40 DUP1 MLOAD DUP1 DUP4 SUB DUP2 PUSH1 0x0 DUP8 DUP1 EXTCODESIZE ISZERO DUP1 ISZERO PUSH3 0x9E8 JUMPI PUSH1 0x0 DUP1 REVERT JUMPDEST POP GAS CALL ISZERO DUP1 ISZERO PUSH3 0x9FD JUMPI RETURNDATASIZE PUSH1 0x0 DUP1 RETURNDATACOPY RETURNDATASIZE PUSH1 0x0 REVERT JUMPDEST POP POP POP POP PUSH1 0x40 MLOAD RETURNDATASIZE PUSH1 0x1F NOT PUSH1 0x1F DUP3 ADD AND DUP3 ADD DUP1 PUSH1 0x40 MSTORE POP DUP2 ADD SWAP1 PUSH3 0xA23 SWAP2 SWAP1 PUSH3 0x4D10 JUMP JUMPDEST SWAP2 POP POP PUSH3 0xA50 DUP3 PUSH3 0xA36 DUP4 PUSH3 0x21A4 JUMP JUMPDEST PUSH3 0xA47 CALLDATASIZE DUP16 SWAP1 SUB DUP16 ADD DUP16 PUSH3 0x45BE JUMP JUMPDEST DUP14 DUP14 DUP14 PUSH3 0x21BF JUMP JUMPDEST PUSH1 0x0 DUP3 DUP15 PUSH1 0x0 ADD PUSH1 0x20 DUP2 ADD SWAP1 PUSH3 0xA68 SWAP2 SWAP1 PUSH3 0x42AB JUMP JUMPDEST DUP10 DUP10 DUP10 DUP10 PUSH1 0x40 MLOAD PUSH1 0x24 ADD PUSH3 0xA83 SWAP7 SWAP6 SWAP5 SWAP4 SWAP3 SWAP2 SWAP1 PUSH3 0x51E4 JUMP JUMPDEST PUSH1 0x40 DUP1 MLOAD PUSH1 0x1F NOT DUP2 DUP5 SUB ADD DUP2 MSTORE SWAP2 DUP2 MSTORE PUSH1 0x20 DUP3 ADD DUP1 MLOAD PUSH1 0x1 PUSH1 0x1 PUSH1 0xE0 SHL SUB AND PUSH4 0x54C938A7 PUSH1 0xE1 SHL OR SWAP1 MSTORE MLOAD SWAP1 SWAP2 POP PUSH1 0x0 SWAP1 PUSH20 0x1F681977AF5392D9CA5572FB394BC4D12939A6A9 SWAP1 DUP4 SWAP1 PUSH3 0xAD7 SWAP1 PUSH3 0x40AB JUMP JUMPDEST PUSH3 0xAE4 SWAP3 SWAP2 SWAP1 PUSH3 0x4DF1 JUMP JUMPDEST PUSH1 0x40 MLOAD DUP1 SWAP2 SUB SWAP1 PUSH1 0x0 CREATE DUP1 ISZERO DUP1 ISZERO PUSH3 0xB01 JUMPI RETURNDATASIZE PUSH1 0x0 DUP1 RETURNDATACOPY RETURNDATASIZE PUSH1 0x0 REVERT JUMPDEST POP SWAP1 POP PUSH3 0xB12 DUP5 DUP3 PUSH1 0x1 PUSH3 0x23C5 JUMP JUMPDEST DUP11 ISZERO PUSH3 0xB7C JUMPI PUSH1 0x0 PUSH20 0xDF08039C0AF34E34660AC7C2705C0DA953247640 DUP4 PUSH1 0x40 MLOAD PUSH3 0xB3F SWAP1 PUSH3 0x40AB JUMP JUMPDEST PUSH3 0xB4C SWAP3 SWAP2 SWAP1 PUSH3 0x4DF1 JUMP JUMPDEST PUSH1 0x40 MLOAD DUP1 SWAP2 SUB SWAP1 PUSH1 0x0 CREATE DUP1 ISZERO DUP1 ISZERO PUSH3 0xB69 JUMPI RETURNDATASIZE PUSH1 0x0 DUP1 RETURNDATACOPY RETURNDATASIZE PUSH1 0x0 REVERT JUMPDEST POP SWAP1 POP PUSH3 0xB7A DUP6 DUP3 PUSH1 0x0 PUSH3 0x23C5 JUMP JUMPDEST POP JUMPDEST PUSH3 0xB88 DUP5 DUP5 PUSH3 0x2472 JUMP JUMPDEST PUSH32 0x31404FF4A0F1116F17CFC89A376D7CB9CD8DBD8415E6AA24FDCB8E14E60D7142 DUP5 PUSH1 0x40 MLOAD PUSH3 0xBB9 SWAP2 SWAP1 PUSH3 0x51B8 JUMP JUMPDEST PUSH1 0x40 MLOAD DUP1 SWAP2 SUB SWAP1 LOG1 POP SWAP2 SWAP14 SWAP13 POP POP POP POP POP POP POP POP POP POP POP POP POP JUMP JUMPDEST PUSH1 0xD SLOAD PUSH1 0x1 PUSH1 0x1 PUSH1 0xA0 SHL SUB AND CALLER DUP2 EQ PUSH3 0xC02 JUMPI PUSH1 0x40 MLOAD PUSH3 0x461BCD PUSH1 0xE5 SHL DUP2 MSTORE PUSH1 0x4 ADD PUSH3 0x4C4 SWAP1 PUSH3 0x505C JUMP JUMPDEST PUSH1 0x0 DUP1 SLOAD PUSH1 0x40 MLOAD PUSH1 0x1 PUSH1 0x1 PUSH1 0xA0 SHL SUB DUP1 DUP6 AND SWAP4 PUSH1 0x1 PUSH1 0x20 SHL SWAP1 SWAP4 DIV AND SWAP2 PUSH32 0x8BE0079C531659141344CD1FD0A4F28419497F9722A3DAAFE3B4186F6B6457E0 SWAP2 LOG3 PUSH1 0x0 DUP1 SLOAD PUSH1 0x1 PUSH1 0x1 PUSH1 0xA0 SHL SUB SWAP1 SWAP3 AND PUSH1 0x1 PUSH1 0x20 SHL MUL PUSH5 0x100000000 PUSH1 0x1 PUSH1 0xC0 SHL SUB NOT SWAP1 SWAP3 AND SWAP2 SWAP1 SWAP2 OR SWAP1 SSTORE PUSH1 0xD DUP1 SLOAD PUSH1 0x1 PUSH1 0x1 PUSH1 0xA0 SHL SUB NOT AND SWAP1 SSTORE JUMP JUMPDEST PUSH3 0xC8A DUP3 PUSH3 0x17B1 JUMP JUMPDEST PUSH3 0x78A DUP3 DUP3 PUSH1 0x1 PUSH3 0x1858 JUMP JUMPDEST PUSH1 0x0 SLOAD PUSH1 0x1 PUSH1 0x20 SHL SWAP1 DIV PUSH1 0x1 PUSH1 0x1 PUSH1 0xA0 SHL SUB AND CALLER EQ PUSH3 0xCCC JUMPI PUSH1 0x40 MLOAD PUSH3 0x461BCD PUSH1 0xE5 SHL DUP2 MSTORE PUSH1 0x4 ADD PUSH3 0x4C4 SWAP1 PUSH3 0x4FF9 JUMP JUMPDEST PUSH3 0xCD7 DUP6 PUSH3 0x24C1 JUMP JUMPDEST PUSH1 0x0 PUSH3 0xCE8 DUP7 PUSH2 0xFFFF AND PUSH3 0x24F8 JUMP JUMPDEST DUP1 MLOAD PUSH1 0x40 MLOAD SWAP2 SWAP3 POP PUSH1 0x0 SWAP2 PUSH3 0xD0B SWAP2 DUP10 SWAP2 DUP10 SWAP1 DUP10 SWAP1 DUP10 SWAP1 DUP10 SWAP1 PUSH1 0x24 ADD PUSH3 0x51E4 JUMP JUMPDEST PUSH1 0x40 DUP1 MLOAD PUSH1 0x1F NOT DUP2 DUP5 SUB ADD DUP2 MSTORE SWAP2 DUP2 MSTORE PUSH1 0x20 DUP3 ADD DUP1 MLOAD PUSH1 0x1 PUSH1 0x1 PUSH1 0xE0 SHL SUB AND PUSH4 0x54C938A7 PUSH1 0xE1 SHL OR SWAP1 MSTORE MLOAD SWAP1 SWAP2 POP PUSH1 0x0 SWAP1 PUSH20 0xDF08039C0AF34E34660AC7C2705C0DA953247640 SWAP1 DUP4 SWAP1 PUSH3 0xD5F SWAP1 PUSH3 0x40AB JUMP JUMPDEST PUSH3 0xD6C SWAP3 SWAP2 SWAP1 PUSH3 0x4DF1 JUMP JUMPDEST PUSH1 0x40 MLOAD DUP1 SWAP2 SUB SWAP1 PUSH1 0x0 CREATE DUP1 ISZERO DUP1 ISZERO PUSH3 0xD89 JUMPI RETURNDATASIZE PUSH1 0x0 DUP1 RETURNDATACOPY RETURNDATASIZE PUSH1 0x0 REVERT JUMPDEST POP SWAP1 POP PUSH3 0xD9A DUP9 DUP3 PUSH1 0x0 PUSH3 0x23C5 JUMP JUMPDEST POP POP POP POP POP POP POP POP JUMP JUMPDEST PUSH1 0x0 SLOAD PUSH1 0x1 PUSH1 0x20 SHL SWAP1 DIV PUSH1 0x1 PUSH1 0x1 PUSH1 0xA0 SHL SUB AND CALLER EQ PUSH3 0xDD8 JUMPI PUSH1 0x40 MLOAD PUSH3 0x461BCD PUSH1 0xE5 SHL DUP2 MSTORE PUSH1 0x4 ADD PUSH3 0x4C4 SWAP1 PUSH3 0x4FF9 JUMP JUMPDEST PUSH1 0x1 DUP1 SLOAD PUSH1 0x1 PUSH1 0x1 PUSH1 0xA0 SHL SUB NOT SWAP1 DUP2 AND PUSH1 0x1 PUSH1 0x1 PUSH1 0xA0 SHL SUB DUP6 DUP2 AND SWAP2 DUP3 OR SWAP1 SWAP4 SSTORE PUSH1 0x2 DUP1 SLOAD SWAP1 SWAP3 AND SWAP3 DUP5 AND SWAP3 DUP4 OR SWAP1 SWAP2 SSTORE PUSH1 0x40 MLOAD PUSH32 0x792A598A7F3FB01623BBA2594035C736BA3D7EC06210F07D9D7EF036C4A22AC6 SWAP1 PUSH1 0x0 SWAP1 LOG3 POP POP JUMP JUMPDEST PUSH1 0x1 SLOAD PUSH1 0x1 PUSH1 0x1 PUSH1 0xA0 SHL SUB AND DUP2 JUMP JUMPDEST PUSH1 0x0 SLOAD PUSH1 0x1 PUSH1 0x20 SHL SWAP1 DIV PUSH1 0x1 PUSH1 0x1 PUSH1 0xA0 SHL SUB AND DUP2 JUMP JUMPDEST PUSH1 0x0 SLOAD PUSH1 0x1 PUSH1 0x20 SHL SWAP1 DIV PUSH1 0x1 PUSH1 0x1 PUSH1 0xA0 SHL SUB AND CALLER EQ PUSH3 0xE8F JUMPI PUSH1 0x40 MLOAD PUSH3 0x461BCD PUSH1 0xE5 SHL DUP2 MSTORE PUSH1 0x4 ADD PUSH3 0x4C4 SWAP1 PUSH3 0x4FF9 JUMP JUMPDEST PUSH3 0x78A DUP3 PUSH3 0xEA5 CALLDATASIZE DUP5 SWAP1 SUB DUP5 ADD DUP5 PUSH3 0x45BE JUMP JUMPDEST PUSH3 0x2515 JUMP JUMPDEST PUSH1 0x0 SLOAD PUSH1 0x1 PUSH1 0x20 SHL SWAP1 DIV PUSH1 0x1 PUSH1 0x1 PUSH1 0xA0 SHL SUB AND CALLER EQ PUSH3 0xEDF JUMPI PUSH1 0x40 MLOAD PUSH3 0x461BCD PUSH1 0xE5 SHL DUP2 MSTORE PUSH1 0x4 ADD PUSH3 0x4C4 SWAP1 PUSH3 0x4FF9 JUMP JUMPDEST DUP1 ISZERO PUSH3 0xF8A JUMPI PUSH1 0x1 PUSH1 0x1 PUSH1 0xA0 SHL SUB DUP3 AND PUSH3 0xF0F JUMPI PUSH1 0x40 MLOAD PUSH3 0x461BCD PUSH1 0xE5 SHL DUP2 MSTORE PUSH1 0x4 ADD PUSH3 0x4C4 SWAP1 PUSH3 0x4F2D JUMP JUMPDEST PUSH1 0x0 DUP1 SLOAD PUSH1 0x40 MLOAD PUSH1 0x1 PUSH1 0x1 PUSH1 0xA0 SHL SUB DUP1 DUP7 AND SWAP4 PUSH1 0x1 PUSH1 0x20 SHL SWAP1 SWAP4 DIV AND SWAP2 PUSH32 0x8BE0079C531659141344CD1FD0A4F28419497F9722A3DAAFE3B4186F6B6457E0 SWAP2 LOG3 PUSH1 0x0 DUP1 SLOAD PUSH5 0x100000000 PUSH1 0x1 PUSH1 0xC0 SHL SUB NOT AND PUSH1 0x1 PUSH1 0x20 SHL PUSH1 0x1 PUSH1 0x1 PUSH1 0xA0 SHL SUB DUP6 AND MUL OR SWAP1 SSTORE PUSH1 0xD DUP1 SLOAD PUSH1 0x1 PUSH1 0x1 PUSH1 0xA0 SHL SUB NOT AND SWAP1 SSTORE PUSH3 0x78A JUMP JUMPDEST PUSH1 0xD DUP1 SLOAD PUSH1 0x1 PUSH1 0x1 PUSH1 0xA0 SHL SUB DUP5 AND PUSH1 0x1 PUSH1 0x1 PUSH1 0xA0 SHL SUB NOT SWAP1 SWAP2 AND OR SWAP1 SSTORE POP POP JUMP JUMPDEST PUSH1 0x0 SLOAD PUSH1 0x1 PUSH1 0x20 SHL SWAP1 DIV PUSH1 0x1 PUSH1 0x1 PUSH1 0xA0 SHL SUB AND CALLER EQ PUSH3 0xFDF JUMPI PUSH1 0x40 MLOAD PUSH3 0x461BCD PUSH1 0xE5 SHL DUP2 MSTORE PUSH1 0x4 ADD PUSH3 0x4C4 SWAP1 PUSH3 0x4FF9 JUMP JUMPDEST PUSH3 0xFEA DUP7 PUSH3 0x1578 JUMP JUMPDEST PUSH3 0xFF6 DUP7 DUP7 PUSH3 0x199E JUMP JUMPDEST PUSH1 0x0 PUSH3 0x1007 DUP8 PUSH2 0xFFFF AND PUSH3 0x24F8 JUMP JUMPDEST SWAP1 POP PUSH3 0x1014 DUP8 PUSH3 0x2561 JUMP JUMPDEST PUSH3 0x101E JUMPI PUSH1 0x0 DUP1 REVERT JUMPDEST DUP1 MLOAD PUSH1 0x40 MLOAD PUSH1 0x0 SWAP2 PUSH3 0x103F SWAP2 DUP11 SWAP2 SWAP1 DUP10 SWAP1 DUP10 SWAP1 DUP10 SWAP1 DUP10 SWAP1 PUSH1 0x24 ADD PUSH3 0x51E4 JUMP JUMPDEST PUSH1 0x40 DUP1 MLOAD PUSH1 0x1F NOT DUP2 DUP5 SUB ADD DUP2 MSTORE SWAP2 DUP2 MSTORE PUSH1 0x20 DUP3 ADD DUP1 MLOAD PUSH1 0x1 PUSH1 0x1 PUSH1 0xE0 SHL SUB AND PUSH4 0x54C938A7 PUSH1 0xE1 SHL OR SWAP1 MSTORE MLOAD SWAP1 SWAP2 POP PUSH1 0x0 SWAP1 PUSH20 0xC4FD259B816D081C8BDD22D6BBD3495DB1573DB7 SWAP1 DUP4 SWAP1 PUSH3 0x1093 SWAP1 PUSH3 0x40AB JUMP JUMPDEST PUSH3 0x10A0 SWAP3 SWAP2 SWAP1 PUSH3 0x4DF1 JUMP JUMPDEST PUSH1 0x40 MLOAD DUP1 SWAP2 SUB SWAP1 PUSH1 0x0 CREATE DUP1 ISZERO DUP1 ISZERO PUSH3 0x10BD JUMPI RETURNDATASIZE PUSH1 0x0 DUP1 RETURNDATACOPY RETURNDATASIZE PUSH1 0x0 REVERT JUMPDEST POP SWAP1 POP PUSH3 0x10CC DUP10 DUP3 PUSH3 0x2594 JUMP JUMPDEST PUSH32 0x6793810FDF58CB4C6E0EE40E4B03EB1075B7CBBB55C34379B918873241972AEA DUP10 DUP3 PUSH1 0x40 MLOAD PUSH3 0x10FF SWAP3 SWAP2 SWAP1 PUSH3 0x51C7 JUMP JUMPDEST PUSH1 0x40 MLOAD DUP1 SWAP2 SUB SWAP1 LOG1 POP POP POP POP POP POP POP POP POP JUMP JUMPDEST PUSH1 0xE SLOAD PUSH1 0x1 PUSH1 0x1 PUSH1 0xA0 SHL SUB AND DUP2 JUMP JUMPDEST PUSH1 0x0 SLOAD PUSH1 0x1 PUSH1 0x20 SHL SWAP1 DIV PUSH1 0x1 PUSH1 0x1 PUSH1 0xA0 SHL SUB AND CALLER EQ PUSH3 0x1155 JUMPI PUSH1 0x40 MLOAD PUSH3 0x461BCD PUSH1 0xE5 SHL DUP2 MSTORE PUSH1 0x4 ADD PUSH3 0x4C4 SWAP1 PUSH3 0x4FF9 JUMP JUMPDEST PUSH3 0x1160 DUP7 PUSH3 0x1578 JUMP JUMPDEST PUSH3 0x11B0 DUP7 PUSH1 0x40 MLOAD DUP1 PUSH1 0xC0 ADD PUSH1 0x40 MSTORE DUP1 DUP9 PUSH1 0x1 PUSH1 0x1 PUSH1 0xA0 SHL SUB AND DUP2 MSTORE PUSH1 0x20 ADD PUSH1 0x0 PUSH1 0xFF AND DUP2 MSTORE PUSH1 0x20 ADD DUP8 ISZERO ISZERO DUP2 MSTORE PUSH1 0x20 ADD DUP7 PUSH1 0xFF AND DUP2 MSTORE PUSH1 0x20 ADD DUP6 PUSH1 0xFF AND DUP2 MSTORE PUSH1 0x20 ADD DUP5 PUSH1 0xFF AND DUP2 MSTORE POP PUSH3 0x1D25 JUMP JUMPDEST POP POP POP POP POP POP JUMP JUMPDEST PUSH1 0x0 SLOAD PUSH1 0x1 PUSH1 0x20 SHL SWAP1 DIV PUSH1 0x1 PUSH1 0x1 PUSH1 0xA0 SHL SUB AND CALLER EQ PUSH3 0x11EC JUMPI PUSH1 0x40 MLOAD PUSH3 0x461BCD PUSH1 0xE5 SHL DUP2 MSTORE PUSH1 0x4 ADD PUSH3 0x4C4 SWAP1 PUSH3 0x4FF9 JUMP JUMPDEST PUSH3 0x11F7 DUP6 PUSH3 0x1578 JUMP JUMPDEST PUSH3 0x120A DUP6 PUSH2 0xFFFF AND DUP6 DUP6 DUP6 DUP6 PUSH3 0x266E JUMP JUMPDEST PUSH32 0x6E2F98678675DA049B2CD990D6F467AAC69D623FF4ECDD26A5D42F184A69D342 DUP6 PUSH1 0x40 MLOAD PUSH3 0x887 SWAP2 SWAP1 PUSH3 0x51B8 JUMP JUMPDEST PUSH1 0x0 SLOAD PUSH1 0x1 PUSH1 0x20 SHL SWAP1 DIV PUSH1 0x1 PUSH1 0x1 PUSH1 0xA0 SHL SUB AND CALLER EQ PUSH3 0x126F JUMPI PUSH1 0x40 MLOAD PUSH3 0x461BCD PUSH1 0xE5 SHL DUP2 MSTORE PUSH1 0x4 ADD PUSH3 0x4C4 SWAP1 PUSH3 0x4FF9 JUMP JUMPDEST PUSH3 0x127A DUP6 PUSH3 0x1578 JUMP JUMPDEST PUSH1 0x0 PUSH3 0x128B DUP7 PUSH2 0xFFFF AND PUSH3 0x27D0 JUMP JUMPDEST SWAP1 POP DUP4 DUP3 EQ PUSH3 0x129A JUMPI PUSH1 0x0 DUP1 REVERT JUMPDEST PUSH1 0x0 JUMPDEST DUP5 DUP2 LT ISZERO PUSH3 0x732 JUMPI DUP6 DUP6 DUP3 DUP2 DUP2 LT PUSH3 0x12B3 JUMPI INVALID JUMPDEST SWAP1 POP PUSH1 0x20 MUL ADD PUSH1 0x20 DUP2 ADD SWAP1 PUSH3 0x12CA SWAP2 SWAP1 PUSH3 0x4D5A JUMP JUMPDEST PUSH1 0xFF AND PUSH1 0x0 LT PUSH3 0x12DA JUMPI PUSH1 0x0 DUP1 REVERT JUMPDEST DUP2 PUSH1 0xFF AND DUP7 DUP7 DUP4 DUP2 DUP2 LT PUSH3 0x12EB JUMPI INVALID JUMPDEST SWAP1 POP PUSH1 0x20 MUL ADD PUSH1 0x20 DUP2 ADD SWAP1 PUSH3 0x1302 SWAP2 SWAP1 PUSH3 0x4D5A JUMP JUMPDEST PUSH1 0xFF AND GT ISZERO PUSH3 0x1311 JUMPI PUSH1 0x0 DUP1 REVERT JUMPDEST DUP1 ISZERO PUSH3 0x1374 JUMPI DUP6 DUP6 DUP3 DUP2 DUP2 LT PUSH3 0x1325 JUMPI INVALID JUMPDEST SWAP1 POP PUSH1 0x20 MUL ADD PUSH1 0x20 DUP2 ADD SWAP1 PUSH3 0x133C SWAP2 SWAP1 PUSH3 0x4D5A JUMP JUMPDEST PUSH1 0xFF AND DUP7 DUP7 PUSH1 0x1 DUP5 SUB DUP2 DUP2 LT PUSH3 0x134F JUMPI INVALID JUMPDEST SWAP1 POP PUSH1 0x20 MUL ADD PUSH1 0x20 DUP2 ADD SWAP1 PUSH3 0x1366 SWAP2 SWAP1 PUSH3 0x4D5A JUMP JUMPDEST PUSH1 0xFF AND LT PUSH3 0x1374 JUMPI PUSH1 0x0 DUP1 REVERT JUMPDEST PUSH3 0x13CC DUP8 DUP8 DUP8 DUP5 DUP2 DUP2 LT PUSH3 0x1386 JUMPI INVALID JUMPDEST SWAP1 POP PUSH1 0x20 MUL ADD PUSH1 0x20 DUP2 ADD SWAP1 PUSH3 0x139D SWAP2 SWAP1 PUSH3 0x4D5A JUMP JUMPDEST PUSH1 0xFF AND DUP7 DUP7 DUP6 DUP2 DUP2 LT PUSH3 0x13AD JUMPI INVALID JUMPDEST SWAP1 POP PUSH2 0x100 MUL ADD DUP1 CALLDATASIZE SUB DUP2 ADD SWAP1 PUSH3 0x13C6 SWAP2 SWAP1 PUSH3 0x45BE JUMP JUMPDEST PUSH3 0x27E8 JUMP JUMPDEST DUP6 DUP6 DUP3 DUP2 DUP2 LT PUSH3 0x13D9 JUMPI INVALID JUMPDEST SWAP1 POP PUSH1 0x20 MUL ADD PUSH1 0x20 DUP2 ADD SWAP1 PUSH3 0x13F0 SWAP2 SWAP1 PUSH3 0x4D5A JUMP JUMPDEST PUSH1 0xFF AND DUP8 PUSH2 0xFFFF AND PUSH32 0x3E4A0F68027373459F0BDFF08DFB4C876EE3E2FB800EE3161C0670532F4EC3A4 PUSH1 0x40 MLOAD PUSH1 0x40 MLOAD DUP1 SWAP2 SUB SWAP1 LOG3 PUSH1 0x1 ADD PUSH3 0x129D JUMP JUMPDEST PUSH1 0x0 SLOAD PUSH1 0x1 PUSH1 0x20 SHL SWAP1 DIV PUSH1 0x1 PUSH1 0x1 PUSH1 0xA0 SHL SUB AND CALLER EQ PUSH3 0x1461 JUMPI PUSH1 0x40 MLOAD PUSH3 0x461BCD PUSH1 0xE5 SHL DUP2 MSTORE PUSH1 0x4 ADD PUSH3 0x4C4 SWAP1 PUSH3 0x4FF9 JUMP JUMPDEST PUSH3 0x146C DUP3 PUSH3 0x286D JUMP JUMPDEST PUSH3 0x1476 JUMPI PUSH1 0x0 DUP1 REVERT JUMPDEST PUSH1 0x1 PUSH1 0x1 PUSH1 0xA0 SHL SUB DUP3 AND PUSH1 0x0 SWAP1 DUP2 MSTORE PUSH1 0x8 PUSH1 0x20 MSTORE PUSH1 0x40 SWAP1 DUP2 SWAP1 KECCAK256 DUP1 SLOAD PUSH1 0xFF NOT AND DUP4 ISZERO ISZERO OR SWAP1 SSTORE MLOAD PUSH32 0xCCF663AAE81733293DCFCF2A91DA8C6F0E7BA8089B34EB4FD5760DD8FD605BD8 SWAP1 PUSH3 0x14CE SWAP1 DUP5 SWAP1 DUP5 SWAP1 PUSH3 0x4DD6 JUMP JUMPDEST PUSH1 0x40 MLOAD DUP1 SWAP2 SUB SWAP1 LOG1 POP POP JUMP JUMPDEST PUSH1 0x0 DUP1 PUSH3 0x14E7 PUSH3 0x2873 JUMP JUMPDEST PUSH1 0x0 DUP7 PUSH2 0xFFFF AND DUP2 MSTORE PUSH1 0x20 ADD SWAP1 DUP2 MSTORE PUSH1 0x20 ADD PUSH1 0x0 KECCAK256 SWAP1 POP PUSH3 0x1509 DUP5 PUSH3 0x2882 JUMP JUMPDEST PUSH1 0x1 DUP3 ADD DUP1 SLOAD PUSH4 0xFFFFFFFF PUSH1 0x58 SHL NOT AND PUSH1 0x1 PUSH1 0x58 SHL PUSH4 0xFFFFFFFF SWAP4 DUP5 AND DUP2 MUL SWAP2 SWAP1 SWAP2 OR SWAP2 DUP3 SWAP1 SSTORE PUSH3 0x153E SWAP3 SWAP2 DIV AND PUSH3 0x28B0 JUMP JUMPDEST SWAP2 POP PUSH1 0x64 DUP4 PUSH1 0xFF AND SGT ISZERO PUSH3 0x1552 JUMPI PUSH1 0x0 DUP1 REVERT JUMPDEST PUSH1 0x1 ADD DUP1 SLOAD PUSH1 0xFF SWAP1 SWAP4 AND PUSH1 0x1 PUSH1 0x78 SHL MUL PUSH1 0xFF PUSH1 0x78 SHL NOT SWAP1 SWAP4 AND SWAP3 SWAP1 SWAP3 OR SWAP1 SWAP2 SSTORE SWAP3 SWAP2 POP POP JUMP JUMPDEST DUP1 PUSH2 0xFFFF AND PUSH1 0x0 LT DUP1 ISZERO PUSH3 0x1597 JUMPI POP PUSH1 0x0 SLOAD PUSH2 0xFFFF SWAP1 DUP2 AND SWAP1 DUP3 AND GT ISZERO JUMPDEST PUSH3 0x7B6 JUMPI PUSH1 0x40 MLOAD PUSH3 0x461BCD PUSH1 0xE5 SHL DUP2 MSTORE PUSH1 0x4 ADD PUSH3 0x4C4 SWAP1 PUSH3 0x50C1 JUMP JUMPDEST PUSH1 0x0 DUP1 PUSH3 0x15C3 PUSH3 0x28BE JUMP JUMPDEST PUSH1 0x0 DUP5 DUP2 MSTORE PUSH1 0x20 SWAP2 SWAP1 SWAP2 MSTORE PUSH1 0x40 SWAP1 KECCAK256 SLOAD PUSH1 0x1 PUSH1 0x1 PUSH1 0xA0 SHL SUB AND SWAP2 POP POP JUMPDEST SWAP2 SWAP1 POP JUMP JUMPDEST PUSH1 0x0 PUSH3 0x15F1 PUSH3 0x28CD JUMP JUMPDEST PUSH1 0x1 PUSH1 0x1 PUSH1 0xA0 SHL SUB DUP10 AND PUSH1 0x0 SWAP1 DUP2 MSTORE PUSH1 0x20 DUP3 SWAP1 MSTORE PUSH1 0x40 SWAP1 KECCAK256 SWAP1 SWAP2 POP PUSH1 0x64 PUSH1 0xFF DUP6 AND SGT ISZERO PUSH3 0x1633 JUMPI PUSH1 0x40 MLOAD PUSH3 0x461BCD PUSH1 0xE5 SHL DUP2 MSTORE PUSH1 0x4 ADD PUSH3 0x4C4 SWAP1 PUSH3 0x4F04 JUMP JUMPDEST DUP4 PUSH1 0xFF AND DUP8 PUSH1 0xFF AND LT PUSH3 0x165B JUMPI PUSH1 0x40 MLOAD PUSH3 0x461BCD PUSH1 0xE5 SHL DUP2 MSTORE PUSH1 0x4 ADD PUSH3 0x4C4 SWAP1 PUSH3 0x518C JUMP JUMPDEST PUSH1 0x64 PUSH1 0xFF DUP9 DUP7 SUB AND PUSH4 0x3B9ACA00 MUL DIV PUSH2 0x2710 PUSH4 0x3B9ACA00 SDIV PUSH1 0x5 MUL DUP5 PUSH1 0xFF AND MUL GT ISZERO PUSH3 0x1687 JUMPI PUSH1 0x0 DUP1 REVERT JUMPDEST DUP5 PUSH1 0xFF AND DUP9 PUSH1 0xFF AND GT ISZERO PUSH3 0x16B0 JUMPI PUSH1 0x40 MLOAD PUSH3 0x461BCD PUSH1 0xE5 SHL DUP2 MSTORE PUSH1 0x4 ADD PUSH3 0x4C4 SWAP1 PUSH3 0x4F5C JUMP JUMPDEST DUP1 SLOAD PUSH6 0xFFFFFFFFFFFF PUSH1 0x58 SHL NOT AND PUSH1 0x1 PUSH1 0x58 SHL PUSH1 0xD0 SWAP5 DUP6 SHL PUSH1 0xFF PUSH1 0xD0 SHL AND PUSH1 0xD8 SWAP11 SWAP1 SWAP11 SHL PUSH1 0xFF PUSH1 0xD8 SHL AND PUSH1 0xE0 SWAP10 SWAP1 SWAP10 SHL PUSH1 0xFF PUSH1 0xE0 SHL AND PUSH1 0xE8 SWAP9 SWAP1 SWAP9 SHL PUSH1 0xFF PUSH1 0xE8 SHL AND PUSH1 0xF0 SWAP8 SWAP1 SWAP8 SHL PUSH1 0xFF PUSH1 0xF0 SHL AND PUSH1 0xF8 SWAP7 SWAP1 SWAP7 SHL PUSH1 0x1 PUSH1 0x1 PUSH1 0xF8 SHL SUB NOT AND SWAP6 SWAP1 SWAP6 OR SWAP6 SWAP1 SWAP6 OR SWAP6 SWAP1 SWAP6 OR SWAP6 SWAP1 SWAP6 OR SWAP6 SWAP1 SWAP6 OR SWAP1 SWAP5 SHR SWAP4 SWAP1 SWAP4 MUL SWAP3 SWAP1 SWAP3 OR SWAP1 SWAP2 SSTORE POP POP JUMP JUMPDEST PUSH1 0x0 PUSH3 0x1740 PUSH3 0x28DC JUMP JUMPDEST PUSH2 0xFFFF DUP5 AND PUSH1 0x0 DUP2 DUP2 MSTORE PUSH1 0x20 SWAP3 SWAP1 SWAP3 MSTORE PUSH1 0x40 SWAP2 DUP3 SWAP1 KECCAK256 DUP1 SLOAD PUSH1 0x1 PUSH1 0x1 PUSH1 0xA0 SHL SUB NOT AND PUSH1 0x1 PUSH1 0x1 PUSH1 0xA0 SHL SUB DUP7 AND OR DUP2 SSTORE SWAP2 MLOAD SWAP2 SWAP3 POP SWAP1 PUSH32 0x870041665F4908D4B05DB2C67D9D8735D37EC80A0F5F9286CE37E315B460682F SWAP1 PUSH3 0x17A4 SWAP1 DUP6 SWAP1 PUSH3 0x4DC2 JUMP JUMPDEST PUSH1 0x40 MLOAD DUP1 SWAP2 SUB SWAP1 LOG2 POP POP POP JUMP JUMPDEST PUSH1 0x0 SLOAD PUSH1 0x1 PUSH1 0x20 SHL SWAP1 DIV PUSH1 0x1 PUSH1 0x1 PUSH1 0xA0 SHL SUB AND CALLER EQ DUP1 PUSH3 0x17F5 JUMPI POP PUSH1 0x2 SLOAD PUSH1 0x1 PUSH1 0x1 PUSH1 0xA0 SHL SUB AND CALLER EQ DUP1 ISZERO PUSH3 0x17F5 JUMPI POP PUSH1 0x1 SLOAD PUSH1 0x1 PUSH1 0x1 PUSH1 0xA0 SHL SUB DUP3 DUP2 AND SWAP2 AND EQ JUMPDEST PUSH3 0x1814 JUMPI PUSH1 0x40 MLOAD PUSH3 0x461BCD PUSH1 0xE5 SHL DUP2 MSTORE PUSH1 0x4 ADD PUSH3 0x4C4 SWAP1 PUSH3 0x502E JUMP JUMPDEST PUSH1 0x1 SLOAD PUSH1 0x1 PUSH1 0x1 PUSH1 0xA0 SHL SUB DUP3 DUP2 AND SWAP2 AND EQ ISZERO PUSH3 0x7B6 JUMPI PUSH3 0x1835 PUSH3 0x28EB JUMP JUMPDEST PUSH1 0x3 DUP1 SLOAD PUSH1 0x1 PUSH1 0x1 PUSH1 0xA0 SHL SUB NOT AND PUSH1 0x1 PUSH1 0x1 PUSH1 0xA0 SHL SUB SWAP3 SWAP1 SWAP3 AND SWAP2 SWAP1 SWAP2 OR SWAP1 SSTORE POP JUMP JUMPDEST PUSH1 0x0 PUSH3 0x1864 PUSH3 0x28EB JUMP JUMPDEST SWAP1 POP PUSH3 0x1871 DUP5 PUSH3 0x2927 JUMP JUMPDEST PUSH1 0x0 DUP4 MLOAD GT DUP1 PUSH3 0x187F JUMPI POP DUP2 JUMPDEST ISZERO PUSH3 0x1893 JUMPI PUSH3 0x1891 DUP5 DUP5 PUSH3 0x29BC JUMP JUMPDEST POP JUMPDEST PUSH1 0x0 PUSH3 0x18C0 PUSH32 0x4910FDFA16FED3260ED0E7147F7CC6DA11A60208B5B9406D12A635614FFD9143 PUSH3 0x29EB JUMP JUMPDEST DUP1 SLOAD SWAP1 SWAP2 POP PUSH1 0xFF AND PUSH3 0x1997 JUMPI DUP1 SLOAD PUSH1 0xFF NOT AND PUSH1 0x1 OR DUP2 SSTORE PUSH1 0x40 DUP1 MLOAD PUSH1 0x1 PUSH1 0x1 PUSH1 0xA0 SHL SUB DUP5 AND PUSH1 0x24 DUP1 DUP4 ADD SWAP2 SWAP1 SWAP2 MSTORE DUP3 MLOAD DUP1 DUP4 SUB SWAP1 SWAP2 ADD DUP2 MSTORE PUSH1 0x44 SWAP1 SWAP2 ADD SWAP1 SWAP2 MSTORE PUSH1 0x20 DUP2 ADD DUP1 MLOAD PUSH1 0x1 PUSH1 0x1 PUSH1 0xE0 SHL SUB AND PUSH4 0x1B2CE7F3 PUSH1 0xE1 SHL OR SWAP1 MSTORE PUSH3 0x1928 SWAP1 DUP7 SWAP1 PUSH3 0x29BC JUMP JUMPDEST POP DUP1 SLOAD PUSH1 0xFF NOT AND DUP2 SSTORE PUSH3 0x193B PUSH3 0x28EB JUMP JUMPDEST PUSH1 0x1 PUSH1 0x1 PUSH1 0xA0 SHL SUB AND DUP3 PUSH1 0x1 PUSH1 0x1 PUSH1 0xA0 SHL SUB AND EQ PUSH3 0x198C JUMPI PUSH1 0x40 MLOAD PUSH3 0x461BCD PUSH1 0xE5 SHL DUP2 MSTORE PUSH1 0x4 ADD DUP1 DUP1 PUSH1 0x20 ADD DUP3 DUP2 SUB DUP3 MSTORE PUSH1 0x2F DUP2 MSTORE PUSH1 0x20 ADD DUP1 PUSH3 0x5C3C PUSH1 0x2F SWAP2 CODECOPY PUSH1 0x40 ADD SWAP2 POP POP PUSH1 0x40 MLOAD DUP1 SWAP2 SUB SWAP1 REVERT JUMPDEST PUSH3 0x1997 DUP6 PUSH3 0x29EE JUMP JUMPDEST POP POP POP POP POP JUMP JUMPDEST PUSH3 0x19BE PUSH2 0xFFFF DUP4 AND PUSH3 0x19B8 CALLDATASIZE DUP5 SWAP1 SUB DUP5 ADD DUP5 PUSH3 0x44DC JUMP JUMPDEST PUSH3 0x2A30 JUMP JUMPDEST PUSH32 0x8FD2367AAACA3606DEE299BBEF980DA42D4E906E355F28C3DD3A2F4D81D6B463 DUP3 PUSH1 0x40 MLOAD PUSH3 0x14CE SWAP2 SWAP1 PUSH3 0x51B8 JUMP JUMPDEST PUSH1 0x7 DUP4 GT ISZERO PUSH3 0x1A13 JUMPI PUSH1 0x40 MLOAD PUSH3 0x461BCD PUSH1 0xE5 SHL DUP2 MSTORE PUSH1 0x4 ADD PUSH3 0x4C4 SWAP1 PUSH3 0x4F87 JUMP JUMPDEST DUP1 DUP4 EQ PUSH3 0x1A35 JUMPI PUSH1 0x40 MLOAD PUSH3 0x461BCD PUSH1 0xE5 SHL DUP2 MSTORE PUSH1 0x4 ADD PUSH3 0x4C4 SWAP1 PUSH3 0x4EA7 JUMP JUMPDEST PUSH1 0x0 JUMPDEST DUP2 DUP2 LT ISZERO PUSH3 0x1B04 JUMPI DUP5 DUP5 DUP3 DUP2 DUP2 LT PUSH3 0x1A4E JUMPI INVALID JUMPDEST SWAP1 POP PUSH1 0x20 MUL ADD PUSH1 0x20 DUP2 ADD SWAP1 PUSH3 0x1A65 SWAP2 SWAP1 PUSH3 0x4D34 JUMP JUMPDEST PUSH4 0xFFFFFFFF AND ISZERO PUSH3 0x1A76 JUMPI PUSH1 0x0 DUP1 REVERT JUMPDEST PUSH1 0x0 DUP4 DUP4 DUP4 DUP2 DUP2 LT PUSH3 0x1A85 JUMPI INVALID JUMPDEST SWAP1 POP PUSH1 0x20 MUL ADD PUSH1 0x20 DUP2 ADD SWAP1 PUSH3 0x1A9C SWAP2 SWAP1 PUSH3 0x4D34 JUMP JUMPDEST PUSH4 0xFFFFFFFF AND GT DUP1 ISZERO PUSH3 0x1ADC JUMPI POP PUSH4 0x3B9ACA00 DUP4 DUP4 DUP4 DUP2 DUP2 LT PUSH3 0x1ABD JUMPI INVALID JUMPDEST SWAP1 POP PUSH1 0x20 MUL ADD PUSH1 0x20 DUP2 ADD SWAP1 PUSH3 0x1AD4 SWAP2 SWAP1 PUSH3 0x4D34 JUMP JUMPDEST PUSH4 0xFFFFFFFF AND SLT JUMPDEST PUSH3 0x1AFB JUMPI PUSH1 0x40 MLOAD PUSH3 0x461BCD PUSH1 0xE5 SHL DUP2 MSTORE PUSH1 0x4 ADD PUSH3 0x4C4 SWAP1 PUSH3 0x515C JUMP JUMPDEST PUSH1 0x1 ADD PUSH3 0x1A38 JUMP JUMPDEST POP PUSH1 0x0 PUSH3 0x1B11 PUSH3 0x2BEA JUMP JUMPDEST PUSH1 0x0 DUP8 DUP2 MSTORE PUSH1 0x20 DUP3 SWAP1 MSTORE PUSH1 0x40 SWAP1 KECCAK256 SWAP1 SWAP2 POP PUSH3 0x732 DUP2 DUP8 DUP8 DUP8 DUP8 PUSH3 0x2BF9 JUMP JUMPDEST PUSH1 0x0 PUSH3 0x1B3D PUSH3 0x2CD8 JUMP JUMPDEST SWAP1 POP PUSH1 0x3 DUP3 PUSH1 0x40 ADD MLOAD PUSH1 0x5 DUP2 GT ISZERO PUSH3 0x1B52 JUMPI INVALID JUMPDEST EQ DUP1 ISZERO PUSH3 0x1B60 JUMPI POP PUSH1 0x1 DUP4 EQ JUMPDEST ISZERO PUSH3 0x1BA4 JUMPI PUSH1 0x0 DUP4 DUP2 MSTORE PUSH1 0x20 SWAP2 DUP3 MSTORE PUSH1 0x40 DUP1 DUP3 KECCAK256 PUSH1 0x1 DUP4 MSTORE SWAP1 SWAP3 MSTORE KECCAK256 DUP1 SLOAD PUSH1 0x1 PUSH1 0x1 PUSH1 0xB0 SHL SUB NOT AND PUSH1 0x3 PUSH1 0xA8 SHL OR PUSH1 0xFF PUSH1 0xB0 SHL NOT AND PUSH1 0x9 PUSH1 0xB1 SHL OR SWAP1 SSTORE PUSH3 0x78A JUMP JUMPDEST DUP2 MLOAD PUSH1 0x1 PUSH1 0x1 PUSH1 0xA0 SHL SUB AND PUSH3 0x1BB9 JUMPI PUSH1 0x0 DUP1 REVERT JUMPDEST PUSH1 0x0 PUSH3 0x1BC8 DUP5 PUSH1 0x1 PUSH3 0x2CE7 JUMP JUMPDEST DUP4 MLOAD DUP2 MLOAD SWAP2 SWAP3 POP PUSH1 0x1 PUSH1 0x1 PUSH1 0xA0 SHL SUB SWAP2 DUP3 AND SWAP2 AND EQ DUP1 PUSH3 0x1BF1 JUMPI POP DUP1 MLOAD PUSH1 0x1 PUSH1 0x1 PUSH1 0xA0 SHL SUB AND ISZERO JUMPDEST PUSH3 0x1BFB JUMPI PUSH1 0x0 DUP1 REVERT JUMPDEST DUP3 PUSH1 0x60 ADD MLOAD PUSH1 0xFF AND PUSH1 0x0 LT DUP1 ISZERO PUSH3 0x1C1B JUMPI POP PUSH1 0x24 DUP4 PUSH1 0x60 ADD MLOAD PUSH1 0xFF AND GT ISZERO JUMPDEST PUSH3 0x1C25 JUMPI PUSH1 0x0 DUP1 REVERT JUMPDEST PUSH1 0x3 DUP4 PUSH1 0x40 ADD MLOAD PUSH1 0x5 DUP2 GT ISZERO PUSH3 0x1C38 JUMPI INVALID JUMPDEST EQ ISZERO PUSH3 0x1C44 JUMPI PUSH1 0x0 DUP1 REVERT JUMPDEST PUSH1 0x0 DUP4 PUSH1 0x40 ADD MLOAD PUSH1 0x5 DUP2 GT ISZERO PUSH3 0x1C57 JUMPI INVALID JUMPDEST EQ PUSH3 0x1C62 JUMPI PUSH1 0x0 DUP1 REVERT JUMPDEST PUSH1 0x0 DUP5 DUP2 MSTORE PUSH1 0x20 DUP4 DUP2 MSTORE PUSH1 0x40 DUP1 DUP4 KECCAK256 PUSH1 0x1 DUP5 MSTORE DUP3 MSTORE SWAP2 DUP3 SWAP1 KECCAK256 DUP6 MLOAD DUP2 SLOAD SWAP3 DUP8 ADD MLOAD ISZERO ISZERO PUSH1 0x1 PUSH1 0xA0 SHL MUL PUSH1 0xFF PUSH1 0xA0 SHL NOT PUSH1 0x1 PUSH1 0x1 PUSH1 0xA0 SHL SUB SWAP1 SWAP3 AND PUSH1 0x1 PUSH1 0x1 PUSH1 0xA0 SHL SUB NOT SWAP1 SWAP5 AND SWAP4 SWAP1 SWAP4 OR AND SWAP2 SWAP1 SWAP2 OR DUP1 DUP3 SSTORE SWAP2 DUP6 ADD MLOAD DUP6 SWAP3 DUP3 SWAP1 PUSH1 0xFF PUSH1 0xA8 SHL NOT AND PUSH1 0x1 PUSH1 0xA8 SHL DUP4 PUSH1 0x5 DUP2 GT ISZERO PUSH3 0x1CD5 JUMPI INVALID JUMPDEST MUL OR SWAP1 SSTORE POP PUSH1 0x60 DUP3 ADD MLOAD DUP2 SLOAD PUSH1 0x80 SWAP1 SWAP4 ADD MLOAD PUSH9 0xFFFFFFFFFFFFFFFFFF AND PUSH1 0x1 PUSH1 0xB8 SHL MUL PUSH1 0x1 PUSH1 0x1 PUSH1 0xB8 SHL SUB PUSH1 0xFF SWAP1 SWAP3 AND PUSH1 0x1 PUSH1 0xB0 SHL MUL PUSH1 0xFF PUSH1 0xB0 SHL NOT SWAP1 SWAP5 AND SWAP4 SWAP1 SWAP4 OR AND SWAP2 SWAP1 SWAP2 OR SWAP1 SSTORE POP POP POP POP JUMP JUMPDEST PUSH1 0x1 DUP3 PUSH2 0xFFFF AND EQ ISZERO PUSH3 0x1D44 JUMPI PUSH1 0x0 DUP2 MSTORE PUSH1 0x12 PUSH1 0x20 DUP3 ADD MSTORE PUSH3 0x1DDB JUMP JUMPDEST DUP1 MLOAD PUSH1 0x1 PUSH1 0x1 PUSH1 0xA0 SHL SUB AND PUSH3 0x1D59 JUMPI PUSH1 0x0 DUP1 REVERT JUMPDEST DUP1 PUSH1 0x0 ADD MLOAD PUSH1 0x1 PUSH1 0x1 PUSH1 0xA0 SHL SUB AND PUSH4 0x313CE567 PUSH1 0x40 MLOAD DUP2 PUSH4 0xFFFFFFFF AND PUSH1 0xE0 SHL DUP2 MSTORE PUSH1 0x4 ADD PUSH1 0x20 PUSH1 0x40 MLOAD DUP1 DUP4 SUB DUP2 DUP7 DUP1 EXTCODESIZE ISZERO DUP1 ISZERO PUSH3 0x1D97 JUMPI PUSH1 0x0 DUP1 REVERT JUMPDEST POP GAS STATICCALL ISZERO DUP1 ISZERO PUSH3 0x1DAC JUMPI RETURNDATASIZE PUSH1 0x0 DUP1 RETURNDATACOPY RETURNDATASIZE PUSH1 0x0 REVERT JUMPDEST POP POP POP POP PUSH1 0x40 MLOAD RETURNDATASIZE PUSH1 0x1F NOT PUSH1 0x1F DUP3 ADD AND DUP3 ADD DUP1 PUSH1 0x40 MSTORE POP DUP2 ADD SWAP1 PUSH3 0x1DD2 SWAP2 SWAP1 PUSH3 0x4D79 JUMP JUMPDEST PUSH1 0xFF AND PUSH1 0x20 DUP3 ADD MSTORE JUMPDEST PUSH1 0x64 DUP2 PUSH1 0x60 ADD MLOAD PUSH1 0xFF AND SLT ISZERO PUSH3 0x1DF1 JUMPI PUSH1 0x0 DUP1 REVERT JUMPDEST PUSH1 0x64 DUP2 PUSH1 0x80 ADD MLOAD PUSH1 0xFF AND SGT ISZERO PUSH3 0x1E07 JUMPI PUSH1 0x0 DUP1 REVERT JUMPDEST PUSH1 0x64 DUP2 PUSH1 0xA0 ADD MLOAD PUSH1 0xFF AND SGT PUSH3 0x1E1C JUMPI PUSH1 0x0 DUP1 REVERT JUMPDEST PUSH1 0x24 DUP2 PUSH1 0x20 ADD MLOAD PUSH1 0xFF AND GT ISZERO PUSH3 0x1E32 JUMPI PUSH1 0x0 DUP1 REVERT JUMPDEST PUSH1 0x0 PUSH3 0x1E3E PUSH3 0x2D86 JUMP JUMPDEST PUSH2 0xFFFF DUP5 AND PUSH1 0x0 SWAP1 DUP2 MSTORE PUSH1 0x20 DUP3 DUP2 MSTORE PUSH1 0x40 SWAP2 DUP3 SWAP1 KECCAK256 DUP6 MLOAD DUP2 SLOAD SWAP3 DUP8 ADD MLOAD DUP8 DUP6 ADD MLOAD PUSH1 0x60 DUP10 ADD MLOAD PUSH1 0x80 DUP11 ADD MLOAD PUSH1 0xA0 DUP12 ADD MLOAD PUSH1 0x1 PUSH1 0x1 PUSH1 0xA0 SHL SUB NOT SWAP1 SWAP8 AND PUSH1 0x1 PUSH1 0x1 PUSH1 0xA0 SHL SUB SWAP1 SWAP6 AND SWAP5 SWAP1 SWAP5 OR PUSH1 0xFF PUSH1 0xA0 SHL NOT AND PUSH1 0x1 PUSH1 0xA0 SHL PUSH1 0xFF SWAP5 DUP6 AND MUL OR PUSH1 0xFF PUSH1 0xA8 SHL NOT AND PUSH1 0x1 PUSH1 0xA8 SHL SWAP3 ISZERO ISZERO SWAP3 SWAP1 SWAP3 MUL SWAP2 SWAP1 SWAP2 OR PUSH1 0xFF PUSH1 0xB0 SHL NOT AND PUSH1 0x1 PUSH1 0xB0 SHL SWAP2 DUP4 AND SWAP2 SWAP1 SWAP2 MUL OR PUSH1 0xFF PUSH1 0xB8 SHL NOT AND PUSH1 0x1 PUSH1 0xB8 SHL SWAP3 DUP3 AND SWAP3 SWAP1 SWAP3 MUL SWAP2 SWAP1 SWAP2 OR PUSH1 0xFF PUSH1 0xC0 SHL NOT AND PUSH1 0x1 PUSH1 0xC0 SHL SWAP2 SWAP1 SWAP4 AND MUL SWAP2 SWAP1 SWAP2 OR SWAP1 SSTORE MLOAD SWAP1 SWAP2 POP PUSH32 0x32DF9E03D26F91A7FA4D4A9E48C2038679570CDE31D5C7F979A04515E00A767D SWAP1 PUSH3 0x1F28 SWAP1 DUP6 SWAP1 PUSH3 0x51B8 JUMP JUMPDEST PUSH1 0x40 MLOAD DUP1 SWAP2 SUB SWAP1 LOG1 POP POP POP JUMP JUMPDEST PUSH1 0x0 DUP2 PUSH1 0x1 PUSH1 0x1 PUSH1 0xA0 SHL SUB AND PUSH4 0xE79BF13B PUSH1 0x40 MLOAD DUP2 PUSH4 0xFFFFFFFF AND PUSH1 0xE0 SHL DUP2 MSTORE PUSH1 0x4 ADD PUSH1 0x0 PUSH1 0x40 MLOAD DUP1 DUP4 SUB DUP2 DUP7 DUP1 EXTCODESIZE ISZERO DUP1 ISZERO PUSH3 0x1F71 JUMPI PUSH1 0x0 DUP1 REVERT JUMPDEST POP GAS STATICCALL ISZERO DUP1 ISZERO PUSH3 0x1F86 JUMPI RETURNDATASIZE PUSH1 0x0 DUP1 RETURNDATACOPY RETURNDATASIZE PUSH1 0x0 REVERT JUMPDEST POP POP POP POP PUSH1 0x40 MLOAD RETURNDATASIZE PUSH1 0x0 DUP3 RETURNDATACOPY PUSH1 0x1F RETURNDATASIZE SWAP1 DUP2 ADD PUSH1 0x1F NOT AND DUP3 ADD PUSH1 0x40 MSTORE PUSH3 0x1FB0 SWAP2 SWAP1 DUP2 ADD SWAP1 PUSH3 0x4403 JUMP JUMPDEST SWAP1 POP PUSH1 0x0 DUP3 PUSH1 0x1 PUSH1 0x1 PUSH1 0xA0 SHL SUB AND PUSH4 0x6F307DC3 PUSH1 0x40 MLOAD DUP2 PUSH4 0xFFFFFFFF AND PUSH1 0xE0 SHL DUP2 MSTORE PUSH1 0x4 ADD PUSH1 0x20 PUSH1 0x40 MLOAD DUP1 DUP4 SUB DUP2 DUP7 DUP1 EXTCODESIZE ISZERO DUP1 ISZERO PUSH3 0x1FEE JUMPI PUSH1 0x0 DUP1 REVERT JUMPDEST POP GAS STATICCALL ISZERO DUP1 ISZERO PUSH3 0x2003 JUMPI RETURNDATASIZE PUSH1 0x0 DUP1 RETURNDATACOPY RETURNDATASIZE PUSH1 0x0 REVERT JUMPDEST POP POP POP POP PUSH1 0x40 MLOAD RETURNDATASIZE PUSH1 0x1F NOT PUSH1 0x1F DUP3 ADD AND DUP3 ADD DUP1 PUSH1 0x40 MSTORE POP DUP2 ADD SWAP1 PUSH3 0x2029 SWAP2 SWAP1 PUSH3 0x42CA JUMP JUMPDEST SWAP1 POP PUSH1 0x0 PUSH1 0x1 DUP6 PUSH2 0xFFFF AND EQ PUSH3 0x20C2 JUMPI PUSH1 0x40 MLOAD PUSH4 0x70A08231 PUSH1 0xE0 SHL DUP2 MSTORE PUSH1 0x1 PUSH1 0x1 PUSH1 0xA0 SHL SUB DUP4 AND SWAP1 PUSH4 0x70A08231 SWAP1 PUSH3 0x2068 SWAP1 ADDRESS SWAP1 PUSH1 0x4 ADD PUSH3 0x4DC2 JUMP JUMPDEST PUSH1 0x20 PUSH1 0x40 MLOAD DUP1 DUP4 SUB DUP2 DUP7 DUP1 EXTCODESIZE ISZERO DUP1 ISZERO PUSH3 0x2081 JUMPI PUSH1 0x0 DUP1 REVERT JUMPDEST POP GAS STATICCALL ISZERO DUP1 ISZERO PUSH3 0x2096 JUMPI RETURNDATASIZE PUSH1 0x0 DUP1 RETURNDATACOPY RETURNDATASIZE PUSH1 0x0 REVERT JUMPDEST POP POP POP POP PUSH1 0x40 MLOAD RETURNDATASIZE PUSH1 0x1F NOT PUSH1 0x1F DUP3 ADD AND DUP3 ADD DUP1 PUSH1 0x40 MSTORE POP DUP2 ADD SWAP1 PUSH3 0x20BC SWAP2 SWAP1 PUSH3 0x4CF7 JUMP JUMPDEST PUSH3 0x20C4 JUMP JUMPDEST SELFBALANCE JUMPDEST SWAP1 POP PUSH3 0x20D4 DUP3 PUSH1 0x0 DUP4 PUSH3 0x2D95 JUMP JUMPDEST PUSH1 0x0 JUMPDEST DUP4 MLOAD DUP2 LT ISZERO PUSH3 0x11B0 JUMPI DUP4 DUP2 DUP2 MLOAD DUP2 LT PUSH3 0x20EE JUMPI INVALID JUMPDEST PUSH1 0x20 MUL PUSH1 0x20 ADD ADD MLOAD PUSH1 0x1 PUSH1 0x1 PUSH1 0xA0 SHL SUB AND PUSH4 0x70A08231 ADDRESS PUSH1 0x40 MLOAD DUP3 PUSH4 0xFFFFFFFF AND PUSH1 0xE0 SHL DUP2 MSTORE PUSH1 0x4 ADD PUSH3 0x2123 SWAP2 SWAP1 PUSH3 0x4DC2 JUMP JUMPDEST PUSH1 0x20 PUSH1 0x40 MLOAD DUP1 DUP4 SUB DUP2 DUP7 DUP1 EXTCODESIZE ISZERO DUP1 ISZERO PUSH3 0x213C JUMPI PUSH1 0x0 DUP1 REVERT JUMPDEST POP GAS STATICCALL ISZERO DUP1 ISZERO PUSH3 0x2151 JUMPI RETURNDATASIZE PUSH1 0x0 DUP1 RETURNDATACOPY RETURNDATASIZE PUSH1 0x0 REVERT JUMPDEST POP POP POP POP PUSH1 0x40 MLOAD RETURNDATASIZE PUSH1 0x1F NOT PUSH1 0x1F DUP3 ADD AND DUP3 ADD DUP1 PUSH1 0x40 MSTORE POP DUP2 ADD SWAP1 PUSH3 0x2177 SWAP2 SWAP1 PUSH3 0x4CF7 JUMP JUMPDEST SWAP2 POP PUSH3 0x219B DUP5 DUP3 DUP2 MLOAD DUP2 LT PUSH3 0x218A JUMPI INVALID JUMPDEST PUSH1 0x20 MUL PUSH1 0x20 ADD ADD MLOAD PUSH1 0x0 DUP5 PUSH3 0x2D95 JUMP JUMPDEST PUSH1 0x1 ADD PUSH3 0x20D7 JUMP JUMPDEST PUSH1 0x0 PUSH1 0x1 PUSH1 0x1 PUSH1 0x58 SHL SUB DUP3 GT ISZERO PUSH3 0x21BB JUMPI PUSH1 0x0 DUP1 REVERT JUMPDEST POP SWAP1 JUMP JUMPDEST PUSH1 0x0 PUSH3 0x21CB PUSH3 0x2873 JUMP JUMPDEST PUSH1 0x0 DUP9 PUSH2 0xFFFF AND DUP2 MSTORE PUSH1 0x20 ADD SWAP1 DUP2 MSTORE PUSH1 0x20 ADD PUSH1 0x0 KECCAK256 SWAP1 POP PUSH3 0x21EE DUP8 DUP6 PUSH3 0x1734 JUMP JUMPDEST DUP1 SLOAD PUSH5 0xFFFFFFFFFF AND ISZERO PUSH3 0x2202 JUMPI PUSH1 0x0 DUP1 REVERT JUMPDEST DUP6 PUSH1 0x1 PUSH1 0x1 PUSH1 0x58 SHL SUB AND PUSH1 0x0 LT PUSH3 0x2219 JUMPI PUSH1 0x0 DUP1 REVERT JUMPDEST PUSH1 0x0 PUSH3 0x2226 DUP9 PUSH3 0x2E2A JUMP JUMPDEST SWAP1 POP DUP1 PUSH1 0x0 LT PUSH3 0x2236 JUMPI PUSH1 0x0 DUP1 REVERT JUMPDEST PUSH3 0x2241 TIMESTAMP PUSH3 0x2EB5 JUMP JUMPDEST DUP3 SLOAD PUSH1 0x2 DUP5 ADD DUP1 SLOAD PUSH5 0xFFFFFFFFFF NOT SWAP1 SWAP3 AND PUSH5 0xFFFFFFFFFF SWAP4 SWAP1 SWAP4 AND SWAP3 SWAP1 SWAP3 OR PUSH16 0xFFFFFFFFFFFFFFFFFFFFFF0000000000 NOT AND PUSH6 0x10000000000 PUSH1 0x1 PUSH1 0x1 PUSH1 0x58 SHL SUB DUP12 AND SWAP1 DUP2 MUL SWAP2 SWAP1 SWAP2 OR PUSH1 0x1 PUSH1 0x1 PUSH1 0xF8 SHL SUB AND PUSH1 0x1 PUSH1 0xF8 SHL DUP9 ISZERO ISZERO MUL OR DUP6 SSTORE PUSH10 0xFFFFFFFFFFFFFFFFFFFF PUSH1 0x50 SHL NOT SWAP1 SWAP2 AND PUSH6 0x3782DACE9D9 PUSH1 0x62 SHL OR PUSH10 0xFFFFFFFFFFFFFFFFFFFF PUSH1 0xA0 SHL NOT AND PUSH6 0x3782DACE9D9 PUSH1 0xB2 SHL OR PUSH1 0xFF PUSH1 0xF0 SHL NOT AND PUSH1 0x1 PUSH1 0xF0 SHL PUSH1 0xFF DUP8 AND MUL OR SWAP1 SWAP2 SSTORE PUSH3 0x2306 SWAP1 PUSH3 0x2300 SWAP1 DUP4 SWAP1 PUSH3 0x2ECA JUMP JUMPDEST PUSH3 0x2EEB JUMP JUMPDEST PUSH1 0x2 DUP4 ADD DUP1 SLOAD PUSH10 0xFFFFFFFFFFFFFFFFFFFF NOT AND PUSH1 0x1 PUSH1 0x1 PUSH1 0x50 SHL SUB SWAP3 SWAP1 SWAP3 AND SWAP2 SWAP1 SWAP2 OR SWAP1 SSTORE PUSH3 0x2336 DUP2 PUSH3 0x21A4 JUMP JUMPDEST DUP3 SLOAD PUSH1 0x1 DUP5 ADD DUP1 SLOAD PUSH11 0xFFFFFFFFFFFFFFFFFFFFFF NOT AND SWAP1 SSTORE PUSH4 0xFFFFFFFF PUSH1 0xD8 SHL NOT PUSH1 0x1 PUSH1 0x1 PUSH1 0x58 SHL SUB SWAP3 SWAP1 SWAP3 AND PUSH1 0x1 PUSH1 0x80 SHL MUL PUSH11 0xFFFFFFFFFFFFFFFFFFFFFF PUSH1 0x80 SHL NOT SWAP1 SWAP2 AND OR AND DUP3 SSTORE PUSH3 0x238C DUP9 DUP8 PUSH3 0x2F02 JUMP JUMPDEST PUSH1 0x40 MLOAD PUSH2 0xFFFF DUP10 AND SWAP1 PUSH32 0x10A72302A4C7C7BBB57A6FBE822ED3D9A792EB3E4AAFC64E64745E3AE7BF1287 SWAP1 PUSH1 0x0 SWAP1 LOG2 POP POP POP POP POP POP POP POP JUMP JUMPDEST PUSH1 0x0 DUP2 PUSH3 0x23DD JUMPI PUSH3 0x23D7 PUSH3 0x2F6D JUMP JUMPDEST PUSH3 0x23E7 JUMP JUMPDEST PUSH3 0x23E7 PUSH3 0x2F7C JUMP JUMPDEST PUSH2 0xFFFF DUP6 AND PUSH1 0x0 SWAP1 DUP2 MSTORE PUSH1 0x20 DUP3 SWAP1 MSTORE PUSH1 0x40 SWAP1 KECCAK256 SLOAD SWAP1 SWAP2 POP PUSH1 0x1 PUSH1 0x1 PUSH1 0xA0 SHL SUB AND ISZERO PUSH3 0x2412 JUMPI PUSH1 0x0 DUP1 REVERT JUMPDEST PUSH2 0xFFFF DUP5 AND PUSH1 0x0 DUP2 DUP2 MSTORE PUSH1 0x20 DUP4 SWAP1 MSTORE PUSH1 0x40 SWAP1 DUP2 SWAP1 KECCAK256 DUP1 SLOAD PUSH1 0x1 PUSH1 0x1 PUSH1 0xA0 SHL SUB NOT AND PUSH1 0x1 PUSH1 0x1 PUSH1 0xA0 SHL SUB DUP8 AND OR SWAP1 SSTORE MLOAD PUSH32 0xB492E9BF0487A94DAE4DD27D50F25F59E832FAA854ED4072EE0FC57D327CA4C8 SWAP1 PUSH3 0x514 SWAP1 DUP7 SWAP1 DUP7 SWAP1 PUSH3 0x4DD6 JUMP JUMPDEST PUSH1 0x0 DUP2 SLT ISZERO PUSH3 0x2481 JUMPI PUSH1 0x0 DUP1 REVERT JUMPDEST PUSH1 0x0 PUSH3 0x2491 PUSH2 0xFEE DUP5 PUSH3 0x2F8B JUMP JUMPDEST SWAP1 POP PUSH3 0x24A2 PUSH2 0xFEE DUP5 DUP5 PUSH3 0x2FE7 JUMP JUMPDEST PUSH3 0x24BC PUSH2 0xFEE DUP5 PUSH3 0x24B6 DUP6 DUP6 PUSH3 0x3060 JUMP JUMPDEST PUSH3 0x3077 JUMP JUMPDEST POP POP POP JUMP JUMPDEST PUSH1 0x0 PUSH3 0x24CD PUSH3 0x2873 JUMP JUMPDEST PUSH2 0xFFFF SWAP1 SWAP3 AND PUSH1 0x0 SWAP1 DUP2 MSTORE PUSH1 0x20 SWAP3 SWAP1 SWAP3 MSTORE POP PUSH1 0x40 SWAP1 KECCAK256 DUP1 SLOAD PUSH1 0x1 PUSH1 0x1 PUSH1 0xF8 SHL SUB AND PUSH1 0x1 PUSH1 0xF8 SHL OR SWAP1 SSTORE JUMP JUMPDEST PUSH3 0x2502 PUSH3 0x40B9 JUMP JUMPDEST PUSH3 0x250F DUP3 PUSH1 0x1 PUSH3 0x2CE7 JUMP JUMPDEST SWAP3 SWAP2 POP POP JUMP JUMPDEST PUSH3 0x2521 DUP3 TIMESTAMP PUSH3 0x30FD JUMP JUMPDEST POP PUSH3 0x252E DUP3 DUP3 PUSH3 0x2F02 JUMP JUMPDEST PUSH1 0x40 MLOAD PUSH2 0xFFFF DUP4 AND SWAP1 PUSH32 0x10A72302A4C7C7BBB57A6FBE822ED3D9A792EB3E4AAFC64E64745E3AE7BF1287 SWAP1 PUSH1 0x0 SWAP1 LOG2 POP POP JUMP JUMPDEST PUSH1 0x0 DUP1 PUSH3 0x256E PUSH3 0x2873 JUMP JUMPDEST PUSH2 0xFFFF SWAP4 SWAP1 SWAP4 AND PUSH1 0x0 SWAP1 DUP2 MSTORE PUSH1 0x20 SWAP4 SWAP1 SWAP4 MSTORE POP POP PUSH1 0x40 SWAP1 KECCAK256 SLOAD PUSH1 0x1 PUSH1 0xF8 SHL SWAP1 DIV PUSH1 0xFF AND SWAP1 JUMP JUMPDEST PUSH1 0x0 PUSH3 0x25A0 PUSH3 0x28BE JUMP JUMPDEST PUSH2 0xFFFF DUP5 AND PUSH1 0x0 SWAP1 DUP2 MSTORE PUSH1 0x20 DUP3 SWAP1 MSTORE PUSH1 0x40 SWAP1 KECCAK256 SLOAD SWAP1 SWAP2 POP PUSH1 0x1 PUSH1 0x1 PUSH1 0xA0 SHL SUB AND ISZERO PUSH3 0x25E0 JUMPI PUSH1 0x40 MLOAD PUSH3 0x461BCD PUSH1 0xE5 SHL DUP2 MSTORE PUSH1 0x4 ADD PUSH3 0x4C4 SWAP1 PUSH3 0x5125 JUMP JUMPDEST PUSH1 0x0 PUSH3 0x25EC PUSH3 0x28CD JUMP JUMPDEST PUSH1 0x1 PUSH1 0x1 PUSH1 0xA0 SHL SUB DUP5 AND PUSH1 0x0 SWAP1 DUP2 MSTORE PUSH1 0x20 DUP3 SWAP1 MSTORE PUSH1 0x40 SWAP1 KECCAK256 DUP1 SLOAD SWAP2 SWAP3 POP SWAP1 PUSH2 0xFFFF AND ISZERO PUSH3 0x262E JUMPI PUSH1 0x40 MLOAD PUSH3 0x461BCD PUSH1 0xE5 SHL DUP2 MSTORE PUSH1 0x4 ADD PUSH3 0x4C4 SWAP1 PUSH3 0x4ED7 JUMP JUMPDEST DUP1 SLOAD PUSH2 0xFFFF NOT AND PUSH2 0xFFFF SWAP6 SWAP1 SWAP6 AND SWAP5 DUP6 OR SWAP1 SSTORE POP PUSH1 0x0 SWAP3 DUP4 MSTORE PUSH1 0x20 MSTORE PUSH1 0x40 SWAP1 SWAP2 KECCAK256 DUP1 SLOAD PUSH1 0x1 PUSH1 0x1 PUSH1 0xA0 SHL SUB NOT AND PUSH1 0x1 PUSH1 0x1 PUSH1 0xA0 SHL SUB SWAP1 SWAP3 AND SWAP2 SWAP1 SWAP2 OR SWAP1 SSTORE JUMP JUMPDEST PUSH1 0x7 DUP4 GT ISZERO PUSH3 0x2692 JUMPI PUSH1 0x40 MLOAD PUSH3 0x461BCD PUSH1 0xE5 SHL DUP2 MSTORE PUSH1 0x4 ADD PUSH3 0x4C4 SWAP1 PUSH3 0x50EE JUMP JUMPDEST DUP3 DUP2 EQ PUSH3 0x26B4 JUMPI PUSH1 0x40 MLOAD PUSH3 0x461BCD PUSH1 0xE5 SHL DUP2 MSTORE PUSH1 0x4 ADD PUSH3 0x4C4 SWAP1 PUSH3 0x4E70 JUMP JUMPDEST PUSH1 0x0 DUP1 JUMPDEST DUP5 DUP2 LT ISZERO PUSH3 0x277D JUMPI DUP6 DUP6 DUP3 DUP2 DUP2 LT PUSH3 0x26CE JUMPI INVALID JUMPDEST SWAP1 POP PUSH1 0x20 MUL ADD PUSH1 0x20 DUP2 ADD SWAP1 PUSH3 0x26E5 SWAP2 SWAP1 PUSH3 0x4D34 JUMP JUMPDEST PUSH4 0xFFFFFFFF AND DUP3 ADD SWAP2 POP PUSH1 0x0 DUP5 DUP5 DUP4 DUP2 DUP2 LT PUSH3 0x26FE JUMPI INVALID JUMPDEST SWAP1 POP PUSH1 0x20 MUL ADD PUSH1 0x20 DUP2 ADD SWAP1 PUSH3 0x2715 SWAP2 SWAP1 PUSH3 0x4D34 JUMP JUMPDEST PUSH4 0xFFFFFFFF AND GT DUP1 ISZERO PUSH3 0x2755 JUMPI POP PUSH4 0x3B9ACA00 DUP5 DUP5 DUP4 DUP2 DUP2 LT PUSH3 0x2736 JUMPI INVALID JUMPDEST SWAP1 POP PUSH1 0x20 MUL ADD PUSH1 0x20 DUP2 ADD SWAP1 PUSH3 0x274D SWAP2 SWAP1 PUSH3 0x4D34 JUMP JUMPDEST PUSH4 0xFFFFFFFF AND SLT JUMPDEST PUSH3 0x2774 JUMPI PUSH1 0x40 MLOAD PUSH3 0x461BCD PUSH1 0xE5 SHL DUP2 MSTORE PUSH1 0x4 ADD PUSH3 0x4C4 SWAP1 PUSH3 0x4FC9 JUMP JUMPDEST PUSH1 0x1 ADD PUSH3 0x26B8 JUMP JUMPDEST POP PUSH4 0x5F5E100 DUP2 EQ PUSH3 0x27A4 JUMPI PUSH1 0x40 MLOAD PUSH3 0x461BCD PUSH1 0xE5 SHL DUP2 MSTORE PUSH1 0x4 ADD PUSH3 0x4C4 SWAP1 PUSH3 0x5091 JUMP JUMPDEST PUSH1 0x0 PUSH3 0x27B0 PUSH3 0x31D7 JUMP JUMPDEST PUSH1 0x0 DUP9 DUP2 MSTORE PUSH1 0x20 DUP3 SWAP1 MSTORE PUSH1 0x40 SWAP1 KECCAK256 SWAP1 SWAP2 POP PUSH3 0xD9A DUP2 DUP9 DUP9 DUP9 DUP9 PUSH3 0x2BF9 JUMP JUMPDEST PUSH1 0x0 DUP1 PUSH3 0x27DE DUP4 PUSH3 0x31E6 JUMP JUMPDEST PUSH1 0xFF AND SWAP4 SWAP3 POP POP POP JUMP JUMPDEST PUSH1 0x0 PUSH3 0x27F4 PUSH3 0x3205 JUMP JUMPDEST PUSH2 0xFFFF DUP6 AND PUSH1 0x0 SWAP1 DUP2 MSTORE PUSH1 0x20 SWAP2 SWAP1 SWAP2 MSTORE PUSH1 0x40 DUP2 KECCAK256 SWAP2 POP PUSH3 0x2815 DUP5 PUSH3 0x3214 JUMP JUMPDEST PUSH1 0x8 MUL PUSH1 0xC0 SUB SWAP1 POP PUSH1 0x0 PUSH1 0x4 DUP6 LT PUSH3 0x2830 JUMPI PUSH1 0x1 PUSH3 0x2833 JUMP JUMPDEST PUSH1 0x0 JUMPDEST SWAP1 POP PUSH3 0x2853 DUP4 DUP3 PUSH1 0xFF AND PUSH1 0x2 DUP2 LT PUSH3 0x2849 JUMPI INVALID JUMPDEST ADD SLOAD DUP4 DUP7 PUSH3 0x3251 JUMP JUMPDEST DUP4 DUP3 PUSH1 0xFF AND PUSH1 0x2 DUP2 LT PUSH3 0x2863 JUMPI INVALID JUMPDEST ADD SSTORE POP POP POP POP POP POP JUMP JUMPDEST EXTCODESIZE ISZERO ISZERO SWAP1 JUMP JUMPDEST PUSH1 0x0 DUP1 PUSH3 0x250F PUSH1 0x1D PUSH3 0x327F JUMP JUMPDEST PUSH1 0x0 DUP1 PUSH3 0xFFFFFF DUP4 GT ISZERO PUSH3 0x28A2 JUMPI PUSH1 0x17 PUSH3 0x289E DUP5 PUSH3 0x3299 JUMP JUMPDEST SUB SWAP1 POP JUMPDEST DUP3 DUP2 SHR PUSH1 0x8 SHL OR SWAP1 POP SWAP2 SWAP1 POP JUMP JUMPDEST PUSH1 0x8 DUP2 SWAP1 SHR PUSH1 0xFF SWAP1 SWAP2 AND SHL SWAP1 JUMP JUMPDEST PUSH1 0x0 DUP1 PUSH3 0x250F PUSH1 0x3 PUSH3 0x327F JUMP JUMPDEST PUSH1 0x0 DUP1 PUSH3 0x250F PUSH1 0x2 PUSH3 0x327F JUMP JUMPDEST PUSH1 0x0 DUP1 PUSH3 0x250F PUSH1 0x1F PUSH3 0x327F JUMP JUMPDEST PUSH1 0x0 PUSH3 0x2918 PUSH32 0x360894A13BA1A3210667C828492DB98DCA3E2076CC3735A920A3CA505D382BBC PUSH3 0x29EB JUMP JUMPDEST SLOAD PUSH1 0x1 PUSH1 0x1 PUSH1 0xA0 SHL SUB AND SWAP1 POP SWAP1 JUMP JUMPDEST PUSH3 0x2932 DUP2 PUSH3 0x286D JUMP JUMPDEST PUSH3 0x296F JUMPI PUSH1 0x40 MLOAD PUSH3 0x461BCD PUSH1 0xE5 SHL DUP2 MSTORE PUSH1 0x4 ADD DUP1 DUP1 PUSH1 0x20 ADD DUP3 DUP2 SUB DUP3 MSTORE PUSH1 0x2D DUP2 MSTORE PUSH1 0x20 ADD DUP1 PUSH3 0x5C6B PUSH1 0x2D SWAP2 CODECOPY PUSH1 0x40 ADD SWAP2 POP POP PUSH1 0x40 MLOAD DUP1 SWAP2 SUB SWAP1 REVERT JUMPDEST DUP1 PUSH3 0x299B PUSH32 0x360894A13BA1A3210667C828492DB98DCA3E2076CC3735A920A3CA505D382BBC PUSH3 0x29EB JUMP JUMPDEST DUP1 SLOAD PUSH1 0x1 PUSH1 0x1 PUSH1 0xA0 SHL SUB NOT AND PUSH1 0x1 PUSH1 0x1 PUSH1 0xA0 SHL SUB SWAP3 SWAP1 SWAP3 AND SWAP2 SWAP1 SWAP2 OR SWAP1 SSTORE POP JUMP JUMPDEST PUSH1 0x60 PUSH3 0x29E4 DUP4 DUP4 PUSH1 0x40 MLOAD DUP1 PUSH1 0x60 ADD PUSH1 0x40 MSTORE DUP1 PUSH1 0x27 DUP2 MSTORE PUSH1 0x20 ADD PUSH3 0x5C98 PUSH1 0x27 SWAP2 CODECOPY PUSH3 0x333F JUMP JUMPDEST SWAP4 SWAP3 POP POP POP JUMP JUMPDEST SWAP1 JUMP JUMPDEST PUSH3 0x29F9 DUP2 PUSH3 0x2927 JUMP JUMPDEST PUSH1 0x40 MLOAD PUSH1 0x1 PUSH1 0x1 PUSH1 0xA0 SHL SUB DUP3 AND SWAP1 PUSH32 0xBC7CD75A20EE27FD9ADEBAB32041F755214DBC6BFFA90CC0225B39DA2E5C2D3B SWAP1 PUSH1 0x0 SWAP1 LOG2 POP JUMP JUMPDEST DUP1 MLOAD PUSH1 0xFF AND PUSH1 0x2 GT DUP1 ISZERO SWAP1 PUSH3 0x2A4E JUMPI POP PUSH1 0x7 DUP2 PUSH1 0x0 ADD MLOAD PUSH1 0xFF AND GT ISZERO JUMPDEST PUSH3 0x2A58 JUMPI PUSH1 0x0 DUP1 REVERT JUMPDEST PUSH1 0x64 DUP2 PUSH1 0x60 ADD MLOAD PUSH1 0xFF AND SGT ISZERO PUSH3 0x2A6E JUMPI PUSH1 0x0 DUP1 REVERT JUMPDEST DUP1 PUSH1 0x40 ADD MLOAD PUSH1 0xFF AND PUSH1 0x0 LT PUSH3 0x2A83 JUMPI PUSH1 0x0 DUP1 REVERT JUMPDEST DUP1 PUSH2 0x120 ADD MLOAD PUSH1 0xFF AND DUP2 PUSH1 0xC0 ADD MLOAD PUSH1 0xFF AND LT PUSH3 0x2A9F JUMPI PUSH1 0x0 DUP1 REVERT JUMPDEST DUP1 PUSH1 0xA0 ADD MLOAD PUSH1 0xFF AND DUP2 PUSH1 0xE0 ADD MLOAD PUSH1 0xFF AND LT PUSH3 0x2ABA JUMPI PUSH1 0x0 DUP1 REVERT JUMPDEST DUP1 PUSH1 0x80 ADD MLOAD PUSH1 0xFF AND DUP2 PUSH2 0x100 ADD MLOAD PUSH1 0xFF AND LT PUSH3 0x2AD6 JUMPI PUSH1 0x0 DUP1 REVERT JUMPDEST PUSH1 0x0 PUSH3 0x2AE3 DUP4 PUSH3 0x27D0 JUMP JUMPDEST SWAP1 POP DUP2 PUSH1 0x0 ADD MLOAD PUSH1 0xFF AND DUP2 PUSH1 0xFF AND GT ISZERO PUSH3 0x2AFD JUMPI PUSH1 0x0 DUP1 REVERT JUMPDEST PUSH2 0x120 DUP3 ADD MLOAD PUSH2 0x100 DUP4 ADD MLOAD PUSH1 0xE0 DUP5 ADD MLOAD PUSH1 0xC0 DUP6 ADD MLOAD PUSH1 0xA0 DUP7 ADD MLOAD PUSH1 0x80 DUP8 ADD MLOAD PUSH1 0x60 DUP9 ADD MLOAD PUSH1 0x40 DUP1 DUP11 ADD MLOAD PUSH1 0x20 DUP1 DUP13 ADD MLOAD DUP13 MLOAD PUSH1 0x48 SWAP12 SWAP1 SWAP12 SHL PUSH10 0xFF000000000000000000 AND SWAP10 SWAP1 SWAP4 SHL PUSH9 0xFF0000000000000000 AND PUSH1 0x38 SWAP9 SWAP1 SWAP9 SHL PUSH1 0xFF PUSH1 0x38 SHL AND PUSH1 0x30 SWAP8 SWAP1 SWAP8 SHL PUSH7 0xFF000000000000 AND PUSH1 0x28 SWAP7 SWAP1 SWAP7 SHL PUSH6 0xFF0000000000 AND SWAP5 SWAP1 SHL PUSH5 0xFF00000000 AND PUSH1 0x18 SWAP4 SWAP1 SWAP4 SHL PUSH4 0xFF000000 AND PUSH1 0x10 SWAP2 SWAP1 SWAP2 SHL PUSH3 0xFF0000 AND PUSH1 0x8 SWAP3 SWAP1 SWAP3 SHL PUSH2 0xFF00 AND PUSH1 0xFF SWAP1 SWAP10 AND SWAP9 SWAP1 SWAP9 OR OR SWAP7 SWAP1 SWAP7 OR SWAP6 SWAP1 SWAP6 OR SWAP5 SWAP1 SWAP5 OR SWAP4 SWAP1 SWAP4 OR SWAP3 SWAP1 SWAP3 OR SWAP2 SWAP1 SWAP2 OR OR PUSH1 0x0 PUSH3 0x2BD4 PUSH3 0x344B JUMP JUMPDEST PUSH1 0x0 SWAP6 DUP7 MSTORE PUSH1 0x20 MSTORE POP PUSH1 0x40 SWAP1 SWAP4 KECCAK256 SWAP3 SWAP1 SWAP3 SSTORE POP POP JUMP JUMPDEST PUSH1 0x0 DUP1 PUSH3 0x250F PUSH1 0x5 PUSH3 0x327F JUMP JUMPDEST PUSH1 0x0 DUP1 JUMPDEST DUP5 DUP2 LT ISZERO PUSH3 0x732 JUMPI DUP6 DUP6 DUP3 DUP2 DUP2 LT PUSH3 0x2C13 JUMPI INVALID JUMPDEST SWAP1 POP PUSH1 0x20 MUL ADD PUSH1 0x20 DUP2 ADD SWAP1 PUSH3 0x2C2A SWAP2 SWAP1 PUSH3 0x4D34 JUMP JUMPDEST DUP8 DUP4 PUSH1 0xE DUP2 LT PUSH3 0x2C37 JUMPI INVALID JUMPDEST PUSH1 0x8 SWAP2 DUP3 DUP3 DIV ADD SWAP2 SWAP1 MOD PUSH1 0x4 MUL PUSH2 0x100 EXP DUP2 SLOAD DUP2 PUSH4 0xFFFFFFFF MUL NOT AND SWAP1 DUP4 PUSH4 0xFFFFFFFF AND MUL OR SWAP1 SSTORE POP DUP2 DUP1 PUSH1 0x1 ADD SWAP3 POP POP DUP4 DUP4 DUP3 DUP2 DUP2 LT PUSH3 0x2C75 JUMPI INVALID JUMPDEST SWAP1 POP PUSH1 0x20 MUL ADD PUSH1 0x20 DUP2 ADD SWAP1 PUSH3 0x2C8C SWAP2 SWAP1 PUSH3 0x4D34 JUMP JUMPDEST DUP8 DUP4 PUSH1 0xE DUP2 LT PUSH3 0x2C99 JUMPI INVALID JUMPDEST PUSH1 0x8 SWAP2 DUP3 DUP3 DIV ADD SWAP2 SWAP1 MOD PUSH1 0x4 MUL PUSH2 0x100 EXP DUP2 SLOAD DUP2 PUSH4 0xFFFFFFFF MUL NOT AND SWAP1 DUP4 PUSH4 0xFFFFFFFF AND MUL OR SWAP1 SSTORE POP DUP2 DUP1 PUSH1 0x1 ADD SWAP3 POP POP DUP1 DUP1 PUSH1 0x1 ADD SWAP2 POP POP PUSH3 0x2BFD JUMP JUMPDEST PUSH1 0x0 DUP1 PUSH3 0x250F PUSH1 0x7 PUSH3 0x327F JUMP JUMPDEST PUSH3 0x2CF1 PUSH3 0x40B9 JUMP JUMPDEST PUSH1 0x0 PUSH3 0x2CFD PUSH3 0x2CD8 JUMP JUMPDEST PUSH1 0x0 DUP6 DUP2 MSTORE PUSH1 0x20 DUP3 DUP2 MSTORE PUSH1 0x40 DUP1 DUP4 KECCAK256 DUP8 ISZERO ISZERO DUP5 MSTORE DUP3 MSTORE SWAP2 DUP3 SWAP1 KECCAK256 DUP3 MLOAD PUSH1 0xA0 DUP2 ADD DUP5 MSTORE DUP2 SLOAD PUSH1 0x1 PUSH1 0x1 PUSH1 0xA0 SHL SUB DUP2 AND DUP3 MSTORE PUSH1 0xFF PUSH1 0x1 PUSH1 0xA0 SHL DUP3 DIV DUP2 AND ISZERO ISZERO SWAP5 DUP4 ADD SWAP5 SWAP1 SWAP5 MSTORE PUSH1 0x1 PUSH1 0xB0 SHL DUP2 DIV DUP5 AND PUSH1 0xA EXP SWAP5 DUP3 ADD SWAP5 SWAP1 SWAP5 MSTORE SWAP4 SWAP5 POP SWAP3 SWAP2 PUSH1 0x60 DUP4 ADD SWAP2 PUSH1 0x1 PUSH1 0xA8 SHL SWAP1 SWAP2 DIV AND PUSH1 0x5 DUP2 GT ISZERO PUSH3 0x2D73 JUMPI INVALID JUMPDEST DUP2 MSTORE PUSH1 0x0 PUSH1 0x20 SWAP1 SWAP2 ADD MSTORE SWAP6 SWAP5 POP POP POP POP POP JUMP JUMPDEST PUSH1 0x0 DUP1 PUSH3 0x250F PUSH1 0x10 PUSH3 0x327F JUMP JUMPDEST PUSH1 0x0 PUSH3 0x2DA1 PUSH3 0x345A JUMP JUMPDEST PUSH1 0x1 PUSH1 0x1 PUSH1 0xA0 SHL SUB DUP6 AND PUSH1 0x0 SWAP1 DUP2 MSTORE PUSH1 0x20 DUP3 SWAP1 MSTORE PUSH1 0x40 SWAP1 KECCAK256 SLOAD SWAP1 SWAP2 POP DUP4 DUP2 GT ISZERO PUSH3 0x2DCB JUMPI PUSH1 0x0 DUP1 REVERT JUMPDEST PUSH1 0x0 PUSH3 0x2DEE PUSH3 0x2DDC DUP7 PUSH3 0x3469 JUMP JUMPDEST PUSH3 0x2DE7 DUP7 PUSH3 0x3469 JUMP JUMPDEST SWAP1 PUSH3 0x3060 JUMP JUMPDEST SWAP1 POP PUSH3 0x2E06 PUSH3 0x2E00 DUP4 DUP4 PUSH3 0x3480 JUMP JUMPDEST PUSH3 0x3497 JUMP JUMPDEST PUSH1 0x1 PUSH1 0x1 PUSH1 0xA0 SHL SUB SWAP1 SWAP7 AND PUSH1 0x0 SWAP1 DUP2 MSTORE PUSH1 0x20 SWAP4 SWAP1 SWAP4 MSTORE POP POP PUSH1 0x40 SWAP1 KECCAK256 SWAP3 SWAP1 SWAP3 SSTORE POP POP JUMP JUMPDEST PUSH1 0x0 DUP1 PUSH3 0x2E38 DUP4 PUSH3 0x34A7 JUMP JUMPDEST PUSH1 0x1 PUSH1 0x1 PUSH1 0xA0 SHL SUB AND PUSH4 0xEF81F216 PUSH1 0x40 MLOAD DUP2 PUSH4 0xFFFFFFFF AND PUSH1 0xE0 SHL DUP2 MSTORE PUSH1 0x4 ADD PUSH1 0x40 DUP1 MLOAD DUP1 DUP4 SUB DUP2 PUSH1 0x0 DUP8 DUP1 EXTCODESIZE ISZERO DUP1 ISZERO PUSH3 0x2E72 JUMPI PUSH1 0x0 DUP1 REVERT JUMPDEST POP GAS CALL ISZERO DUP1 ISZERO PUSH3 0x2E87 JUMPI RETURNDATASIZE PUSH1 0x0 DUP1 RETURNDATACOPY RETURNDATASIZE PUSH1 0x0 REVERT JUMPDEST POP POP POP POP PUSH1 0x40 MLOAD RETURNDATASIZE PUSH1 0x1F NOT PUSH1 0x1F DUP3 ADD AND DUP3 ADD DUP1 PUSH1 0x40 MSTORE POP DUP2 ADD SWAP1 PUSH3 0x2EAD SWAP2 SWAP1 PUSH3 0x4D10 JUMP JUMPDEST SWAP5 SWAP4 POP POP POP POP JUMP JUMPDEST PUSH1 0x0 PUSH5 0xFFFFFFFFFF DUP3 GT ISZERO PUSH3 0x21BB JUMPI PUSH1 0x0 DUP1 REVERT JUMPDEST PUSH1 0x0 PUSH3 0x29E4 PUSH3 0x2EE4 DUP5 PUSH8 0xDE0B6B3A7640000 PUSH3 0x34D9 JUMP JUMPDEST DUP4 PUSH3 0x3504 JUMP JUMPDEST PUSH1 0x0 PUSH1 0x1 PUSH1 0x1 PUSH1 0x50 SHL SUB DUP3 GT ISZERO PUSH3 0x21BB JUMPI PUSH1 0x0 DUP1 REVERT JUMPDEST PUSH1 0x0 PUSH3 0x2F0E PUSH3 0x3525 JUMP JUMPDEST PUSH2 0xFFFF DUP5 AND PUSH1 0x0 SWAP1 DUP2 MSTORE PUSH1 0x20 SWAP2 SWAP1 SWAP2 MSTORE PUSH1 0x40 DUP2 KECCAK256 SWAP2 POP PUSH3 0x2F2E PUSH3 0x3205 JUMP JUMPDEST PUSH2 0xFFFF DUP6 AND PUSH1 0x0 SWAP1 DUP2 MSTORE PUSH1 0x20 SWAP2 SWAP1 SWAP2 MSTORE PUSH1 0x40 DUP2 KECCAK256 SWAP2 POP PUSH3 0x2F57 SWAP1 DUP4 SWAP1 JUMPDEST ADD SLOAD PUSH1 0xC0 DUP6 PUSH3 0x3251 JUMP JUMPDEST DUP3 SSTORE PUSH3 0x2F66 DUP2 PUSH1 0x0 PUSH3 0x2F4C JUMP JUMPDEST SWAP1 SSTORE POP POP POP JUMP JUMPDEST PUSH1 0x0 DUP1 PUSH3 0x250F PUSH1 0x22 PUSH3 0x327F JUMP JUMPDEST PUSH1 0x0 DUP1 PUSH3 0x250F PUSH1 0x21 PUSH3 0x327F JUMP JUMPDEST PUSH1 0x0 DUP1 PUSH3 0x2F98 PUSH3 0x3534 JUMP JUMPDEST PUSH1 0x1 PUSH1 0x1 PUSH1 0xA0 SHL SUB DUP6 AND PUSH1 0x0 SWAP1 DUP2 MSTORE PUSH1 0x20 DUP3 DUP2 MSTORE PUSH1 0x40 DUP1 DUP4 KECCAK256 PUSH2 0xFFFF DUP9 AND DUP5 MSTORE SWAP1 SWAP2 MSTORE DUP2 KECCAK256 DUP1 SLOAD PUSH1 0x1 PUSH1 0xA8 SHL SWAP1 DIV PUSH1 0xA SWAP1 DUP2 SIGNEXTEND SWAP1 SIGNEXTEND SWAP5 POP SWAP2 SWAP3 POP DUP4 SLT ISZERO PUSH3 0x2FDF JUMPI PUSH1 0x0 DUP1 REVERT JUMPDEST POP POP SWAP3 SWAP2 POP POP JUMP JUMPDEST PUSH1 0x0 DUP2 SLT ISZERO PUSH3 0x2FF6 JUMPI PUSH1 0x0 DUP1 REVERT JUMPDEST PUSH1 0x0 PUSH3 0x3002 PUSH3 0x3534 JUMP JUMPDEST PUSH1 0x1 PUSH1 0x1 PUSH1 0xA0 SHL SUB DUP6 AND PUSH1 0x0 SWAP1 DUP2 MSTORE PUSH1 0x20 DUP3 DUP2 MSTORE PUSH1 0x40 DUP1 DUP4 KECCAK256 PUSH2 0xFFFF DUP9 AND DUP5 MSTORE SWAP1 SWAP2 MSTORE SWAP1 KECCAK256 SWAP1 SWAP2 POP PUSH3 0x3035 DUP4 PUSH3 0x3543 JUMP JUMPDEST DUP2 SLOAD PUSH1 0xA SWAP2 SWAP1 SWAP2 SIGNEXTEND PUSH1 0x1 PUSH1 0x1 PUSH1 0x58 SHL SUB AND PUSH1 0x1 PUSH1 0xA8 SHL MUL PUSH1 0x1 PUSH1 0x1 PUSH1 0xA8 SHL SUB SWAP1 SWAP2 AND OR SWAP1 SSTORE POP POP POP POP JUMP JUMPDEST DUP1 DUP3 SUB DUP3 DUP2 SGT ISZERO PUSH1 0x0 DUP4 SLT ISZERO EQ PUSH3 0x250F JUMPI PUSH1 0x0 DUP1 REVERT JUMPDEST PUSH1 0x0 PUSH3 0x3083 PUSH3 0x2F7C JUMP JUMPDEST PUSH2 0xFFFF DUP5 AND PUSH1 0x0 SWAP1 DUP2 MSTORE PUSH1 0x20 SWAP2 SWAP1 SWAP2 MSTORE PUSH1 0x40 SWAP1 DUP2 SWAP1 KECCAK256 SLOAD SWAP1 MLOAD PUSH4 0xAD1C095D PUSH1 0xE0 SHL DUP2 MSTORE PUSH1 0x1 PUSH1 0x1 PUSH1 0xA0 SHL SUB SWAP1 SWAP2 AND SWAP2 POP DUP2 SWAP1 PUSH4 0xAD1C095D SWAP1 PUSH3 0x30CD SWAP1 DUP8 SWAP1 DUP7 SWAP1 PUSH1 0x4 ADD PUSH3 0x4E57 JUMP JUMPDEST PUSH1 0x0 PUSH1 0x40 MLOAD DUP1 DUP4 SUB DUP2 PUSH1 0x0 DUP8 DUP1 EXTCODESIZE ISZERO DUP1 ISZERO PUSH3 0x30E8 JUMPI PUSH1 0x0 DUP1 REVERT JUMPDEST POP GAS CALL ISZERO DUP1 ISZERO PUSH3 0xD9A JUMPI RETURNDATASIZE PUSH1 0x0 DUP1 RETURNDATACOPY RETURNDATASIZE PUSH1 0x0 REVERT JUMPDEST PUSH3 0x3107 PUSH3 0x40E8 JUMP JUMPDEST PUSH1 0x0 PUSH3 0x3114 DUP5 PUSH3 0x3577 JUMP JUMPDEST SWAP1 POP DUP3 DUP2 PUSH1 0x0 ADD MLOAD LT ISZERO PUSH3 0x315B JUMPI PUSH1 0x0 DUP1 PUSH3 0x3131 DUP7 PUSH3 0x2E2A JUMP JUMPDEST SWAP1 POP PUSH3 0x3141 DUP7 DUP5 DUP4 DUP9 PUSH3 0x3645 JUMP JUMPDEST SWAP1 SWAP4 POP SWAP2 POP PUSH3 0x3153 DUP7 DUP4 DUP6 PUSH3 0x36F8 JUMP JUMPDEST POP POP PUSH3 0x3169 JUMP JUMPDEST DUP1 MLOAD DUP4 EQ PUSH3 0x3169 JUMPI PUSH1 0x0 DUP1 REVERT JUMPDEST PUSH1 0x40 MLOAD DUP1 PUSH1 0x60 ADD PUSH1 0x40 MSTORE DUP1 PUSH3 0x319B PUSH3 0x3195 DUP5 PUSH1 0xA0 ADD MLOAD DUP6 PUSH1 0xC0 ADD MLOAD PUSH3 0x34D9 SWAP1 SWAP2 SWAP1 PUSH4 0xFFFFFFFF AND JUMP JUMPDEST PUSH3 0x3469 JUMP JUMPDEST DUP2 MSTORE PUSH1 0x20 ADD PUSH3 0x31C1 PUSH3 0x3195 DUP5 PUSH1 0xA0 ADD MLOAD DUP6 PUSH1 0xE0 ADD MLOAD PUSH3 0x34D9 SWAP1 SWAP2 SWAP1 PUSH4 0xFFFFFFFF AND JUMP JUMPDEST DUP2 MSTORE PUSH1 0x20 ADD DUP3 PUSH1 0x60 ADD MLOAD DUP2 MSTORE POP SWAP2 POP POP SWAP3 SWAP2 POP POP JUMP JUMPDEST PUSH1 0x0 DUP1 PUSH3 0x250F PUSH1 0x4 PUSH3 0x327F JUMP JUMPDEST PUSH1 0x0 DUP1 PUSH3 0x31F3 PUSH3 0x344B JUMP JUMPDEST PUSH1 0x0 SWAP4 DUP5 MSTORE PUSH1 0x20 MSTORE POP POP PUSH1 0x40 SWAP1 KECCAK256 SLOAD SWAP1 JUMP JUMPDEST PUSH1 0x0 DUP1 PUSH3 0x250F PUSH1 0x1C PUSH3 0x327F JUMP JUMPDEST PUSH1 0x0 DUP2 PUSH1 0x0 LT PUSH3 0x3224 JUMPI PUSH1 0x0 DUP1 REVERT JUMPDEST PUSH1 0x7 DUP3 GT ISZERO PUSH3 0x3233 JUMPI PUSH1 0x0 DUP1 REVERT JUMPDEST PUSH1 0x4 DUP3 LT PUSH3 0x3246 JUMPI PUSH1 0x4 DUP3 SUB PUSH3 0x3248 JUMP JUMPDEST DUP2 JUMPDEST PUSH1 0x8 MUL SWAP3 SWAP2 POP POP JUMP JUMPDEST PUSH1 0x0 DUP1 PUSH3 0x325F DUP4 PUSH3 0x393B JUMP JUMPDEST PUSH1 0x1 PUSH1 0x1 PUSH1 0x40 SHL SUB PUSH1 0xFF DUP7 AND SWAP1 DUP2 SHL NOT DUP8 AND SWAP2 SWAP1 SHL OR SWAP2 POP POP SWAP4 SWAP3 POP POP POP JUMP JUMPDEST PUSH1 0x0 PUSH3 0xF4240 DUP3 PUSH1 0x26 DUP2 GT ISZERO PUSH3 0x3292 JUMPI INVALID JUMPDEST ADD SWAP3 SWAP2 POP POP JUMP JUMPDEST PUSH1 0x0 DUP2 PUSH3 0x32A6 JUMPI PUSH1 0x0 DUP1 REVERT JUMPDEST PUSH1 0x1 PUSH1 0x80 SHL DUP3 LT PUSH3 0x32BA JUMPI PUSH1 0x80 SWAP2 DUP3 SHR SWAP2 ADD JUMPDEST PUSH9 0x10000000000000000 DUP3 LT PUSH3 0x32D3 JUMPI PUSH1 0x40 SWAP2 DUP3 SHR SWAP2 ADD JUMPDEST PUSH1 0x1 PUSH1 0x20 SHL DUP3 LT PUSH3 0x32E7 JUMPI PUSH1 0x20 SWAP2 DUP3 SHR SWAP2 ADD JUMPDEST PUSH3 0x10000 DUP3 LT PUSH3 0x32FA JUMPI PUSH1 0x10 SWAP2 DUP3 SHR SWAP2 ADD JUMPDEST PUSH2 0x100 DUP3 LT PUSH3 0x330C JUMPI PUSH1 0x8 SWAP2 DUP3 SHR SWAP2 ADD JUMPDEST PUSH1 0x10 DUP3 LT PUSH3 0x331D JUMPI PUSH1 0x4 SWAP2 DUP3 SHR SWAP2 ADD JUMPDEST PUSH1 0x4 DUP3 LT PUSH3 0x332E JUMPI PUSH1 0x2 SWAP2 DUP3 SHR SWAP2 ADD JUMPDEST PUSH1 0x2 DUP3 LT PUSH3 0x15E0 JUMPI PUSH1 0x1 ADD SWAP2 SWAP1 POP JUMP JUMPDEST PUSH1 0x60 PUSH3 0x334C DUP5 PUSH3 0x286D JUMP JUMPDEST PUSH3 0x3389 JUMPI PUSH1 0x40 MLOAD PUSH3 0x461BCD PUSH1 0xE5 SHL DUP2 MSTORE PUSH1 0x4 ADD DUP1 DUP1 PUSH1 0x20 ADD DUP3 DUP2 SUB DUP3 MSTORE PUSH1 0x26 DUP2 MSTORE PUSH1 0x20 ADD DUP1 PUSH3 0x5CBF PUSH1 0x26 SWAP2 CODECOPY PUSH1 0x40 ADD SWAP2 POP POP PUSH1 0x40 MLOAD DUP1 SWAP2 SUB SWAP1 REVERT JUMPDEST PUSH1 0x0 DUP1 DUP6 PUSH1 0x1 PUSH1 0x1 PUSH1 0xA0 SHL SUB AND DUP6 PUSH1 0x40 MLOAD DUP1 DUP3 DUP1 MLOAD SWAP1 PUSH1 0x20 ADD SWAP1 DUP1 DUP4 DUP4 JUMPDEST PUSH1 0x20 DUP4 LT PUSH3 0x33C8 JUMPI DUP1 MLOAD DUP3 MSTORE PUSH1 0x1F NOT SWAP1 SWAP3 ADD SWAP2 PUSH1 0x20 SWAP2 DUP3 ADD SWAP2 ADD PUSH3 0x33A7 JUMP JUMPDEST PUSH1 0x1 DUP4 PUSH1 0x20 SUB PUSH2 0x100 EXP SUB DUP1 NOT DUP3 MLOAD AND DUP2 DUP5 MLOAD AND DUP1 DUP3 OR DUP6 MSTORE POP POP POP POP POP POP SWAP1 POP ADD SWAP2 POP POP PUSH1 0x0 PUSH1 0x40 MLOAD DUP1 DUP4 SUB DUP2 DUP6 GAS DELEGATECALL SWAP2 POP POP RETURNDATASIZE DUP1 PUSH1 0x0 DUP2 EQ PUSH3 0x342A JUMPI PUSH1 0x40 MLOAD SWAP2 POP PUSH1 0x1F NOT PUSH1 0x3F RETURNDATASIZE ADD AND DUP3 ADD PUSH1 0x40 MSTORE RETURNDATASIZE DUP3 MSTORE RETURNDATASIZE PUSH1 0x0 PUSH1 0x20 DUP5 ADD RETURNDATACOPY PUSH3 0x342F JUMP JUMPDEST PUSH1 0x60 SWAP2 POP JUMPDEST POP SWAP2 POP SWAP2 POP PUSH3 0x3441 DUP3 DUP3 DUP7 PUSH3 0x3A61 JUMP JUMPDEST SWAP7 SWAP6 POP POP POP POP POP POP JUMP JUMPDEST PUSH1 0x0 DUP1 PUSH3 0x250F PUSH1 0x9 PUSH3 0x327F JUMP JUMPDEST PUSH1 0x0 DUP1 PUSH3 0x250F PUSH1 0x26 PUSH3 0x327F JUMP JUMPDEST PUSH1 0x0 PUSH1 0x1 PUSH1 0x1 PUSH1 0xFF SHL SUB DUP3 GT ISZERO PUSH3 0x21BB JUMPI PUSH1 0x0 DUP1 REVERT JUMPDEST DUP2 DUP2 ADD DUP3 DUP2 SLT ISZERO PUSH1 0x0 DUP4 SLT ISZERO EQ PUSH3 0x250F JUMPI PUSH1 0x0 DUP1 REVERT JUMPDEST PUSH1 0x0 DUP1 DUP3 SLT ISZERO PUSH3 0x21BB JUMPI PUSH1 0x0 DUP1 REVERT JUMPDEST PUSH1 0x0 DUP1 PUSH3 0x34B4 PUSH3 0x28DC JUMP JUMPDEST PUSH2 0xFFFF SWAP4 SWAP1 SWAP4 AND PUSH1 0x0 SWAP1 DUP2 MSTORE PUSH1 0x20 SWAP4 SWAP1 SWAP4 MSTORE POP POP PUSH1 0x40 SWAP1 KECCAK256 SLOAD PUSH1 0x1 PUSH1 0x1 PUSH1 0xA0 SHL SUB AND SWAP1 JUMP JUMPDEST PUSH1 0x0 DUP3 PUSH3 0x34EA JUMPI POP PUSH1 0x0 PUSH3 0x250F JUMP JUMPDEST DUP3 DUP3 MUL DUP3 DUP5 DUP3 DUP2 PUSH3 0x34F8 JUMPI INVALID JUMPDEST DIV EQ PUSH3 0x29E4 JUMPI PUSH1 0x0 DUP1 REVERT JUMPDEST PUSH1 0x0 DUP1 DUP3 GT PUSH3 0x3513 JUMPI PUSH1 0x0 DUP1 REVERT JUMPDEST DUP2 DUP4 DUP2 PUSH3 0x351D JUMPI INVALID JUMPDEST DIV SWAP4 SWAP3 POP POP POP JUMP JUMPDEST PUSH1 0x0 DUP1 PUSH3 0x250F PUSH1 0x1B PUSH3 0x327F JUMP JUMPDEST PUSH1 0x0 DUP1 PUSH3 0x250F PUSH1 0x6 PUSH3 0x327F JUMP JUMPDEST PUSH1 0x0 PUSH11 0x7FFFFFFFFFFFFFFFFFFFFF NOT DUP3 SLT DUP1 ISZERO SWAP1 PUSH3 0x356D JUMPI POP PUSH11 0x7FFFFFFFFFFFFFFFFFFFFF DUP3 SGT ISZERO JUMPDEST PUSH3 0x21BB JUMPI PUSH1 0x0 DUP1 REVERT JUMPDEST PUSH3 0x3581 PUSH3 0x4109 JUMP JUMPDEST PUSH1 0x0 PUSH3 0x358D PUSH3 0x2873 JUMP JUMPDEST PUSH2 0xFFFF SWAP4 DUP5 AND PUSH1 0x0 SWAP1 DUP2 MSTORE PUSH1 0x20 SWAP2 DUP3 MSTORE PUSH1 0x40 SWAP1 DUP2 SWAP1 KECCAK256 DUP1 SLOAD PUSH5 0xFFFFFFFFFF DUP2 AND DUP7 MSTORE PUSH6 0x10000000000 DUP2 DIV PUSH1 0x1 PUSH1 0x1 PUSH1 0x58 SHL SUB SWAP1 DUP2 AND SWAP5 DUP8 ADD SWAP5 SWAP1 SWAP5 MSTORE PUSH1 0x1 DUP3 ADD SLOAD DUP5 AND SWAP3 DUP7 ADD SWAP3 SWAP1 SWAP3 MSTORE PUSH1 0x1 PUSH1 0xD8 SHL DUP3 DIV PUSH4 0xFFFFFFFF AND PUSH1 0x60 DUP7 ADD MSTORE PUSH1 0x1 PUSH1 0x80 SHL SWAP1 SWAP2 DIV SWAP1 SWAP2 AND PUSH1 0x80 DUP5 ADD MSTORE PUSH1 0x2 ADD SLOAD PUSH1 0x1 PUSH1 0x1 PUSH1 0x50 SHL SUB DUP1 DUP3 AND PUSH1 0xA0 DUP6 ADD MSTORE PUSH1 0x1 PUSH1 0x50 SHL DUP3 DIV DUP2 AND PUSH1 0xC0 DUP6 ADD MSTORE PUSH1 0x1 PUSH1 0xA0 SHL DUP3 DIV AND PUSH1 0xE0 DUP5 ADD MSTORE PUSH1 0x1 PUSH1 0xF0 SHL SWAP1 DIV PUSH1 0xFF AND PUSH2 0x12C MUL SWAP1 SWAP3 AND PUSH2 0x100 DUP3 ADD MSTORE SWAP2 SWAP1 POP JUMP JUMPDEST PUSH3 0x364F PUSH3 0x4109 JUMP JUMPDEST PUSH1 0x0 DUP1 PUSH1 0x0 PUSH3 0x3661 DUP9 DUP7 DUP10 PUSH3 0x3B0B JUMP JUMPDEST PUSH1 0xC0 DUP12 ADD SWAP3 SWAP1 SWAP3 MSTORE PUSH1 0xE0 DUP11 ADD SWAP3 SWAP1 SWAP3 MSTORE PUSH1 0x20 DUP10 ADD MLOAD SWAP2 SWAP4 POP SWAP2 POP PUSH3 0x3687 SWAP1 DUP4 PUSH3 0x3C3B JUMP JUMPDEST PUSH1 0x20 DUP9 ADD MSTORE PUSH1 0x80 DUP8 ADD MLOAD PUSH1 0x0 SWAP1 ISZERO PUSH3 0x36BA JUMPI PUSH1 0x80 DUP9 ADD MLOAD PUSH3 0x36B7 SWAP1 PUSH3 0x36B0 DUP10 DUP3 PUSH3 0x3C4E JUMP JUMPDEST SWAP1 PUSH3 0x2ECA JUMP JUMPDEST SWAP1 POP JUMPDEST PUSH3 0x36DE PUSH3 0x36D2 PUSH8 0xDE0B6B3A7640000 DUP4 PUSH3 0x3C3B JUMP JUMPDEST PUSH1 0xA0 DUP11 ADD MLOAD SWAP1 PUSH3 0x3C64 JUMP JUMPDEST PUSH1 0xA0 DUP10 ADD MSTORE POP POP PUSH1 0x80 DUP7 ADD SWAP5 SWAP1 SWAP5 MSTORE POP POP DUP3 MSTORE SWAP1 SWAP3 SWAP1 SWAP2 POP JUMP JUMPDEST PUSH1 0x0 PUSH3 0x3704 PUSH3 0x2873 JUMP JUMPDEST PUSH1 0x0 DUP6 PUSH2 0xFFFF AND DUP2 MSTORE PUSH1 0x20 ADD SWAP1 DUP2 MSTORE PUSH1 0x20 ADD PUSH1 0x0 KECCAK256 SWAP1 POP PUSH3 0x372A DUP3 PUSH1 0x0 ADD MLOAD PUSH3 0x2EB5 JUMP JUMPDEST DUP2 SLOAD PUSH5 0xFFFFFFFFFF NOT AND PUSH5 0xFFFFFFFFFF SWAP2 SWAP1 SWAP2 AND OR DUP2 SSTORE PUSH1 0xA0 DUP3 ADD MLOAD PUSH3 0x3751 SWAP1 PUSH3 0x2EEB JUMP JUMPDEST PUSH1 0x2 DUP3 ADD DUP1 SLOAD PUSH10 0xFFFFFFFFFFFFFFFFFFFF NOT AND PUSH1 0x1 PUSH1 0x1 PUSH1 0x50 SHL SUB SWAP3 SWAP1 SWAP3 AND SWAP2 SWAP1 SWAP2 OR SWAP1 SSTORE PUSH1 0xC0 DUP3 ADD MLOAD PUSH3 0x3786 SWAP1 PUSH3 0x2EEB JUMP JUMPDEST DUP2 PUSH1 0x2 ADD PUSH1 0xA PUSH2 0x100 EXP DUP2 SLOAD DUP2 PUSH1 0x1 PUSH1 0x1 PUSH1 0x50 SHL SUB MUL NOT AND SWAP1 DUP4 PUSH1 0x1 PUSH1 0x1 PUSH1 0x50 SHL SUB AND MUL OR SWAP1 SSTORE POP PUSH3 0x37BD DUP3 PUSH1 0xE0 ADD MLOAD PUSH3 0x2EEB JUMP JUMPDEST DUP2 PUSH1 0x2 ADD PUSH1 0x14 PUSH2 0x100 EXP DUP2 SLOAD DUP2 PUSH1 0x1 PUSH1 0x1 PUSH1 0x50 SHL SUB MUL NOT AND SWAP1 DUP4 PUSH1 0x1 PUSH1 0x1 PUSH1 0x50 SHL SUB AND MUL OR SWAP1 SSTORE POP PUSH3 0x37F4 DUP3 PUSH1 0x20 ADD MLOAD PUSH3 0x21A4 JUMP JUMPDEST DUP2 SLOAD PUSH1 0x1 PUSH1 0x1 PUSH1 0x58 SHL SUB SWAP2 SWAP1 SWAP2 AND PUSH6 0x10000000000 MUL PUSH16 0xFFFFFFFFFFFFFFFFFFFFFF0000000000 NOT SWAP1 SWAP2 AND OR DUP2 SSTORE PUSH1 0x40 DUP3 ADD MLOAD PUSH3 0x3832 SWAP1 PUSH3 0x21A4 JUMP JUMPDEST PUSH1 0x1 DUP3 ADD DUP1 SLOAD PUSH11 0xFFFFFFFFFFFFFFFFFFFFFF NOT AND PUSH1 0x1 PUSH1 0x1 PUSH1 0x58 SHL SUB SWAP3 SWAP1 SWAP3 AND SWAP2 SWAP1 SWAP2 OR SWAP1 SSTORE PUSH1 0x80 DUP3 ADD MLOAD PUSH3 0x3868 SWAP1 PUSH3 0x21A4 JUMP JUMPDEST DUP2 SLOAD PUSH1 0x1 PUSH1 0x1 PUSH1 0x58 SHL SUB SWAP2 SWAP1 SWAP2 AND PUSH1 0x1 PUSH1 0x80 SHL MUL PUSH11 0xFFFFFFFFFFFFFFFFFFFFFF PUSH1 0x80 SHL NOT SWAP1 SWAP2 AND OR DUP2 SSTORE PUSH1 0x60 DUP3 ADD MLOAD PUSH3 0x38A2 SWAP1 PUSH3 0x3C85 JUMP JUMPDEST DUP2 SLOAD PUSH4 0xFFFFFFFF SWAP2 SWAP1 SWAP2 AND PUSH1 0x1 PUSH1 0xD8 SHL MUL PUSH4 0xFFFFFFFF PUSH1 0xD8 SHL NOT SWAP1 SWAP2 AND OR DUP2 SSTORE DUP3 ISZERO PUSH3 0x38F5 JUMPI PUSH1 0x0 PUSH3 0x38D6 DUP5 PUSH3 0x3469 JUMP JUMPDEST SWAP1 POP PUSH3 0x38E4 DUP6 DUP3 PUSH3 0x3C99 JUMP JUMPDEST PUSH3 0x38F3 PUSH2 0xFEE DUP7 DUP4 PUSH3 0x3077 JUMP JUMPDEST POP JUMPDEST DUP4 PUSH2 0xFFFF AND PUSH32 0xEF25641E225E493886510CA1AD6584FA7B442B9FEA820A29D1DE3CE27D270FD2 DUP4 PUSH1 0xA0 ADD MLOAD DUP5 PUSH1 0xC0 ADD MLOAD DUP6 PUSH1 0xE0 ADD MLOAD PUSH1 0x40 MLOAD PUSH3 0x514 SWAP4 SWAP3 SWAP2 SWAP1 PUSH3 0x5240 JUMP JUMPDEST PUSH1 0x0 DUP2 PUSH1 0x20 ADD MLOAD PUSH1 0xFF AND DUP3 PUSH1 0x0 ADD MLOAD PUSH1 0xFF AND LT PUSH3 0x3958 JUMPI PUSH1 0x0 DUP1 REVERT JUMPDEST PUSH1 0x64 DUP3 PUSH1 0x20 ADD MLOAD PUSH1 0xFF AND GT ISZERO PUSH3 0x396E JUMPI PUSH1 0x0 DUP1 REVERT JUMPDEST DUP2 PUSH1 0x60 ADD MLOAD PUSH1 0xFF AND DUP3 PUSH1 0x40 ADD MLOAD PUSH1 0xFF AND LT PUSH3 0x3989 JUMPI PUSH1 0x0 DUP1 REVERT JUMPDEST PUSH1 0xC0 DUP3 ADD MLOAD PUSH1 0xA0 DUP4 ADD MLOAD PUSH3 0x2625A0 PUSH1 0xFF SWAP3 DUP4 AND MUL SWAP2 AND PUSH3 0x7A120 MUL GT ISZERO PUSH3 0x39B0 JUMPI PUSH1 0x0 DUP1 REVERT JUMPDEST PUSH1 0x64 DUP3 PUSH1 0xE0 ADD MLOAD PUSH1 0xFF AND LT PUSH3 0x39C5 JUMPI PUSH1 0x0 DUP1 REVERT JUMPDEST POP PUSH1 0xE0 DUP2 ADD MLOAD PUSH1 0xC0 DUP3 ADD MLOAD PUSH1 0xA0 DUP4 ADD MLOAD PUSH1 0x60 DUP5 ADD MLOAD PUSH1 0x40 DUP6 ADD MLOAD PUSH1 0x80 DUP7 ADD MLOAD PUSH1 0x20 DUP1 DUP9 ADD MLOAD SWAP8 MLOAD PUSH1 0xFF SWAP1 SWAP8 AND PUSH1 0x8 SWAP7 SWAP1 SWAP7 SHL PUSH2 0xFF00 AND PUSH1 0x10 SWAP6 SWAP1 SWAP6 SHL PUSH3 0xFF0000 AND PUSH1 0x18 SWAP5 SWAP1 SWAP5 SHL PUSH4 0xFF000000 AND SWAP3 SWAP1 SHL PUSH5 0xFF00000000 AND PUSH1 0x28 SWAP2 SWAP1 SWAP2 SHL PUSH6 0xFF0000000000 AND PUSH1 0x30 SWAP8 SWAP1 SWAP8 SHL PUSH7 0xFF000000000000 AND PUSH1 0x38 SWAP7 SWAP1 SWAP7 SHL PUSH1 0xFF PUSH1 0x38 SHL AND SWAP6 SWAP1 SWAP6 OR SWAP6 SWAP1 SWAP6 OR SWAP4 SWAP1 SWAP4 OR SWAP4 SWAP1 SWAP4 OR SWAP2 SWAP1 SWAP2 OR SWAP2 SWAP1 SWAP2 OR OR SWAP1 JUMP JUMPDEST PUSH1 0x60 DUP4 ISZERO PUSH3 0x3A72 JUMPI POP DUP2 PUSH3 0x29E4 JUMP JUMPDEST DUP3 MLOAD ISZERO PUSH3 0x3A83 JUMPI DUP3 MLOAD DUP1 DUP5 PUSH1 0x20 ADD REVERT JUMPDEST DUP2 PUSH1 0x40 MLOAD PUSH3 0x461BCD PUSH1 0xE5 SHL DUP2 MSTORE PUSH1 0x4 ADD DUP1 DUP1 PUSH1 0x20 ADD DUP3 DUP2 SUB DUP3 MSTORE DUP4 DUP2 DUP2 MLOAD DUP2 MSTORE PUSH1 0x20 ADD SWAP2 POP DUP1 MLOAD SWAP1 PUSH1 0x20 ADD SWAP1 DUP1 DUP4 DUP4 PUSH1 0x0 JUMPDEST DUP4 DUP2 LT ISZERO PUSH3 0x3ACF JUMPI DUP2 DUP2 ADD MLOAD DUP4 DUP3 ADD MSTORE PUSH1 0x20 ADD PUSH3 0x3AB5 JUMP JUMPDEST POP POP POP POP SWAP1 POP SWAP1 DUP2 ADD SWAP1 PUSH1 0x1F AND DUP1 ISZERO PUSH3 0x3AFD JUMPI DUP1 DUP3 SUB DUP1 MLOAD PUSH1 0x1 DUP4 PUSH1 0x20 SUB PUSH2 0x100 EXP SUB NOT AND DUP2 MSTORE PUSH1 0x20 ADD SWAP2 POP JUMPDEST POP SWAP3 POP POP POP PUSH1 0x40 MLOAD DUP1 SWAP2 SUB SWAP1 REVERT JUMPDEST PUSH1 0x0 DUP1 PUSH1 0x0 DUP1 PUSH1 0x0 DUP1 PUSH3 0x3B20 DUP10 DUP9 PUSH3 0x3CD7 JUMP JUMPDEST DUP10 MLOAD SWAP1 SWAP6 POP SWAP2 SWAP4 POP SWAP2 POP PUSH1 0x0 SWAP1 PUSH3 0x3B4B SWAP1 PUSH3 0x3B3F SWAP1 DUP12 SWAP1 PUSH3 0x3C4E JUMP JUMPDEST PUSH4 0x3B9ACA00 SWAP1 PUSH3 0x34D9 JUMP JUMPDEST SWAP1 POP PUSH3 0x3B8C PUSH3 0x3B80 PUSH4 0x1DA9C00 PUSH3 0x3B66 DUP6 DUP6 PUSH3 0x34D9 JUMP JUMPDEST DUP2 PUSH3 0x3B6E JUMPI INVALID JUMPDEST PUSH8 0xDE0B6B3A7640000 SWAP2 SWAP1 DIV PUSH3 0x3C3B JUMP JUMPDEST PUSH1 0xE0 DUP11 ADD MLOAD SWAP1 PUSH3 0x3C64 JUMP JUMPDEST SWAP7 POP PUSH3 0x3BB3 PUSH3 0x3BA7 PUSH4 0x1DA9C00 PUSH3 0x3B66 DUP8 DUP6 PUSH3 0x34D9 JUMP JUMPDEST PUSH1 0xC0 DUP11 ADD MLOAD SWAP1 PUSH3 0x3C64 JUMP JUMPDEST SWAP6 POP DUP2 DUP4 EQ ISZERO PUSH3 0x3BCC JUMPI POP PUSH1 0x0 SWAP4 POP PUSH3 0x3C32 SWAP2 POP POP JUMP JUMPDEST PUSH1 0x0 PUSH3 0x3BF3 PUSH3 0x3BE7 PUSH4 0x1DA9C00 PUSH3 0x3B66 DUP8 DUP7 PUSH3 0x34D9 JUMP JUMPDEST PUSH1 0xE0 DUP12 ADD MLOAD SWAP1 PUSH3 0x3C64 JUMP JUMPDEST SWAP1 POP PUSH1 0x0 PUSH3 0x3C03 DUP10 DUP4 PUSH3 0x3C4E JUMP JUMPDEST SWAP1 POP PUSH3 0x3C2A DUP9 PUSH3 0x3C23 DUP4 DUP14 PUSH1 0x40 ADD MLOAD PUSH3 0x34D9 SWAP1 SWAP2 SWAP1 PUSH4 0xFFFFFFFF AND JUMP JUMPDEST SWAP1 PUSH3 0x3504 JUMP JUMPDEST SWAP7 POP POP POP POP POP POP JUMPDEST SWAP4 POP SWAP4 POP SWAP4 POP SWAP4 JUMP JUMPDEST PUSH1 0x0 DUP3 DUP3 ADD DUP4 DUP2 LT ISZERO PUSH3 0x29E4 JUMPI PUSH1 0x0 DUP1 REVERT JUMPDEST PUSH1 0x0 DUP3 DUP3 GT ISZERO PUSH3 0x3C5E JUMPI PUSH1 0x0 DUP1 REVERT JUMPDEST POP SWAP1 SUB SWAP1 JUMP JUMPDEST PUSH1 0x0 PUSH3 0x29E4 PUSH3 0x3C76 DUP5 DUP5 PUSH3 0x34D9 JUMP JUMPDEST PUSH8 0xDE0B6B3A7640000 PUSH3 0x3504 JUMP JUMPDEST PUSH1 0x0 PUSH4 0xFFFFFFFF DUP3 GT ISZERO PUSH3 0x21BB JUMPI PUSH1 0x0 DUP1 REVERT JUMPDEST PUSH1 0x0 DUP2 SLT ISZERO PUSH3 0x3CA8 JUMPI PUSH1 0x0 DUP1 REVERT JUMPDEST PUSH1 0x0 PUSH3 0x3CB8 PUSH2 0xFEE DUP5 PUSH3 0x2F8B JUMP JUMPDEST SWAP1 POP PUSH3 0x3CC6 DUP2 DUP4 PUSH3 0x3480 JUMP JUMPDEST SWAP1 POP PUSH3 0x24BC PUSH2 0xFEE DUP5 DUP4 PUSH3 0x2FE7 JUMP JUMPDEST PUSH1 0x0 DUP1 PUSH1 0x0 DUP1 PUSH1 0x0 DUP6 PUSH1 0x20 ADD MLOAD GT ISZERO PUSH3 0x3D2B JUMPI PUSH3 0x3D28 PUSH3 0x3D0C DUP7 PUSH1 0xC0 ADD MLOAD DUP8 PUSH1 0x20 ADD MLOAD PUSH3 0x34D9 SWAP1 SWAP2 SWAP1 PUSH4 0xFFFFFFFF AND JUMP JUMPDEST PUSH1 0xE0 DUP8 ADD MLOAD PUSH1 0x40 DUP9 ADD MLOAD PUSH3 0x3D21 SWAP2 PUSH3 0x34D9 JUMP JUMPDEST SWAP1 PUSH3 0x3D83 JUMP JUMPDEST SWAP1 POP JUMPDEST PUSH1 0x0 PUSH3 0x3D38 DUP8 PUSH3 0x3D99 JUMP JUMPDEST SWAP1 POP PUSH3 0x3D46 DUP2 DUP4 PUSH3 0x3DD2 JUMP JUMPDEST SWAP5 POP DUP2 ISZERO PUSH3 0x3D60 JUMPI PUSH3 0x3D5D DUP2 DUP7 PUSH1 0x1 PUSH3 0x3EA3 JUMP JUMPDEST SWAP4 POP JUMPDEST PUSH1 0x20 DUP7 ADD MLOAD ISZERO PUSH3 0x3D7A JUMPI PUSH3 0x3D77 DUP6 DUP4 PUSH3 0x3F29 JUMP JUMPDEST SWAP3 POP JUMPDEST POP POP SWAP3 POP SWAP3 POP SWAP3 JUMP JUMPDEST PUSH1 0x0 PUSH3 0x29E4 PUSH3 0x2EE4 DUP5 PUSH4 0x3B9ACA00 PUSH3 0x34D9 JUMP JUMPDEST PUSH3 0x3DA3 PUSH3 0x4155 JUMP JUMPDEST PUSH1 0x0 PUSH3 0x3DAF PUSH3 0x3525 JUMP JUMPDEST PUSH2 0xFFFF DUP5 AND PUSH1 0x0 SWAP1 DUP2 MSTORE PUSH1 0x20 SWAP2 SWAP1 SWAP2 MSTORE PUSH1 0x40 DUP2 KECCAK256 SLOAD SWAP2 POP PUSH3 0x29E4 SWAP1 DUP3 PUSH3 0x3F46 JUMP JUMPDEST PUSH1 0x0 DUP1 DUP4 PUSH1 0x80 ADD MLOAD GT PUSH3 0x3DE5 JUMPI PUSH1 0x0 DUP1 REVERT JUMPDEST PUSH4 0x3B9ACA00 DUP3 GT ISZERO PUSH3 0x3DF7 JUMPI PUSH1 0x0 DUP1 REVERT JUMPDEST DUP3 MLOAD DUP3 GT PUSH3 0x3E22 JUMPI DUP3 MLOAD PUSH1 0x40 DUP5 ADD MLOAD PUSH3 0x3E1A SWAP2 SWAP1 PUSH3 0x3C23 SWAP1 DUP6 SWAP1 PUSH3 0x34D9 JUMP JUMPDEST SWAP1 POP PUSH3 0x250F JUMP JUMPDEST DUP3 PUSH1 0x20 ADD MLOAD DUP3 GT PUSH3 0x3E66 JUMPI PUSH1 0x40 DUP4 ADD MLOAD DUP4 MLOAD PUSH1 0x20 DUP6 ADD MLOAD PUSH1 0x60 DUP7 ADD MLOAD PUSH3 0x3E1A SWAP4 SWAP3 PUSH3 0x3E5F SWAP3 DUP2 SWAP1 SUB SWAP2 PUSH3 0x3C23 SWAP2 DUP9 SUB SWAP1 DUP6 SWAP1 SUB PUSH3 0x34D9 JUMP JUMPDEST SWAP1 PUSH3 0x3C3B JUMP JUMPDEST PUSH3 0x29E4 DUP4 PUSH1 0x60 ADD MLOAD PUSH3 0x3E5F DUP6 PUSH1 0x20 ADD MLOAD PUSH4 0x3B9ACA00 SUB PUSH3 0x3C23 DUP8 PUSH1 0x60 ADD MLOAD DUP9 PUSH1 0x80 ADD MLOAD SUB DUP9 PUSH1 0x20 ADD MLOAD DUP9 SUB PUSH3 0x34D9 SWAP1 SWAP2 SWAP1 PUSH4 0xFFFFFFFF AND JUMP JUMPDEST PUSH1 0x0 DUP1 PUSH3 0x3EC5 PUSH1 0x64 PUSH3 0x3C23 DUP8 PUSH1 0xE0 ADD MLOAD DUP8 PUSH3 0x34D9 SWAP1 SWAP2 SWAP1 PUSH4 0xFFFFFFFF AND JUMP JUMPDEST SWAP1 POP DUP5 PUSH1 0xA0 ADD MLOAD DUP2 LT ISZERO PUSH3 0x3EDB JUMPI POP PUSH1 0xA0 DUP5 ADD MLOAD JUMPDEST DUP5 PUSH1 0xC0 ADD MLOAD DUP2 GT ISZERO PUSH3 0x3EEF JUMPI POP PUSH1 0xC0 DUP5 ADD MLOAD JUMPDEST DUP3 ISZERO PUSH3 0x3F0A JUMPI PUSH3 0x3F02 DUP5 DUP3 PUSH3 0x3C3B JUMP JUMPDEST SWAP2 POP PUSH3 0x3F21 JUMP JUMPDEST DUP4 DUP2 GT PUSH3 0x3F1B JUMPI DUP1 DUP5 SUB PUSH3 0x3F1E JUMP JUMPDEST PUSH1 0x0 JUMPDEST SWAP2 POP JUMPDEST POP SWAP4 SWAP3 POP POP POP JUMP JUMPDEST PUSH1 0x0 PUSH3 0x29E4 PUSH3 0x3F3B DUP5 DUP5 PUSH3 0x34D9 JUMP JUMPDEST PUSH4 0x3B9ACA00 PUSH3 0x3504 JUMP JUMPDEST PUSH3 0x3F50 PUSH3 0x4155 JUMP JUMPDEST PUSH1 0x64 PUSH4 0x3B9ACA00 DUP4 PUSH1 0xFF DUP7 AND PUSH1 0x20 DUP2 LT PUSH3 0x3F67 JUMPI INVALID JUMPDEST BYTE MUL DUP2 PUSH3 0x3F71 JUMPI INVALID JUMPDEST DIV DUP2 MSTORE PUSH1 0x64 PUSH4 0x3B9ACA00 DUP4 PUSH1 0xFF DUP7 AND PUSH1 0x1 ADD PUSH1 0x20 DUP2 LT PUSH3 0x3F8E JUMPI INVALID JUMPDEST BYTE MUL DUP2 PUSH3 0x3F98 JUMPI INVALID JUMPDEST DIV DUP2 PUSH1 0x20 ADD DUP2 DUP2 MSTORE POP POP PUSH3 0x3FC0 DUP3 PUSH1 0x2 DUP6 PUSH1 0xFF AND ADD PUSH1 0x20 DUP2 LT PUSH3 0x3FB9 JUMPI INVALID JUMPDEST BYTE PUSH3 0x4075 JUMP JUMPDEST PUSH1 0x80 DUP3 ADD DUP2 SWAP1 MSTORE PUSH2 0x100 SWAP1 DUP4 PUSH1 0xFF DUP7 AND PUSH1 0x3 ADD PUSH1 0x20 DUP2 LT PUSH3 0x3FDE JUMPI INVALID JUMPDEST BYTE MUL DUP2 PUSH3 0x3FE8 JUMPI INVALID JUMPDEST DIV PUSH1 0x40 DUP3 ADD MSTORE PUSH1 0x80 DUP2 ADD MLOAD PUSH2 0x100 SWAP1 DUP4 PUSH1 0xFF DUP7 AND PUSH1 0x4 ADD PUSH1 0x20 DUP2 LT PUSH3 0x400A JUMPI INVALID JUMPDEST BYTE MUL DUP2 PUSH3 0x4014 JUMPI INVALID JUMPDEST DIV PUSH1 0x60 DUP3 ADD MSTORE PUSH3 0x7A120 DUP3 PUSH1 0xFF DUP6 AND PUSH1 0x5 ADD PUSH1 0x20 DUP2 LT PUSH3 0x4031 JUMPI INVALID JUMPDEST BYTE MUL PUSH1 0xA0 DUP3 ADD MSTORE PUSH3 0x2625A0 DUP3 PUSH1 0xFF DUP6 AND PUSH1 0x6 ADD PUSH1 0x20 DUP2 LT PUSH3 0x404F JUMPI INVALID JUMPDEST BYTE MUL PUSH1 0xC0 DUP3 ADD MSTORE DUP2 PUSH1 0xFF DUP5 AND PUSH1 0x7 ADD PUSH1 0x20 DUP2 LT PUSH3 0x4069 JUMPI INVALID JUMPDEST BYTE PUSH1 0xE0 DUP3 ADD MSTORE SWAP3 SWAP2 POP POP JUMP JUMPDEST PUSH1 0x0 DUP2 PUSH1 0xFF AND PUSH1 0x96 LT PUSH3 0x4092 JUMPI PUSH1 0xFF DUP3 AND PUSH3 0x2625A0 MUL PUSH3 0x250F JUMP JUMPDEST POP PUSH1 0x95 NOT PUSH1 0xFF SWAP2 SWAP1 SWAP2 AND ADD PUSH3 0xE4E1C0 MUL PUSH4 0x165A0BC0 ADD SWAP1 JUMP JUMPDEST PUSH2 0x99B DUP1 PUSH3 0x52A1 DUP4 CODECOPY ADD SWAP1 JUMP JUMPDEST PUSH1 0x40 DUP1 MLOAD PUSH1 0xA0 DUP2 ADD DUP3 MSTORE PUSH1 0x0 DUP1 DUP3 MSTORE PUSH1 0x20 DUP3 ADD DUP2 SWAP1 MSTORE SWAP2 DUP2 ADD DUP3 SWAP1 MSTORE SWAP1 PUSH1 0x60 DUP3 ADD SWAP1 DUP2 MSTORE PUSH1 0x20 ADD PUSH1 0x0 DUP2 MSTORE POP SWAP1 JUMP JUMPDEST PUSH1 0x40 MLOAD DUP1 PUSH1 0x60 ADD PUSH1 0x40 MSTORE DUP1 PUSH1 0x0 DUP2 MSTORE PUSH1 0x20 ADD PUSH1 0x0 DUP2 MSTORE PUSH1 0x20 ADD PUSH1 0x0 DUP2 MSTORE POP SWAP1 JUMP JUMPDEST PUSH1 0x40 MLOAD DUP1 PUSH2 0x120 ADD PUSH1 0x40 MSTORE DUP1 PUSH1 0x0 DUP2 MSTORE PUSH1 0x20 ADD PUSH1 0x0 DUP2 MSTORE PUSH1 0x20 ADD PUSH1 0x0 DUP2 MSTORE PUSH1 0x20 ADD PUSH1 0x0 DUP2 MSTORE PUSH1 0x20 ADD PUSH1 0x0 DUP2 MSTORE PUSH1 0x20 ADD PUSH1 0x0 DUP2 MSTORE PUSH1 0x20 ADD PUSH1 0x0 DUP2 MSTORE PUSH1 0x20 ADD PUSH1 0x0 DUP2 MSTORE PUSH1 0x20 ADD PUSH1 0x0 DUP2 MSTORE POP SWAP1 JUMP JUMPDEST PUSH1 0x40 MLOAD DUP1 PUSH2 0x100 ADD PUSH1 0x40 MSTORE DUP1 PUSH1 0x0 DUP2 MSTORE PUSH1 0x20 ADD PUSH1 0x0 DUP2 MSTORE PUSH1 0x20 ADD PUSH1 0x0 DUP2 MSTORE PUSH1 0x20 ADD PUSH1 0x0 DUP2 MSTORE PUSH1 0x20 ADD PUSH1 0x0 DUP2 MSTORE PUSH1 0x20 ADD PUSH1 0x0 DUP2 MSTORE PUSH1 0x20 ADD PUSH1 0x0 DUP2 MSTORE PUSH1 0x20 ADD PUSH1 0x0 DUP2 MSTORE POP SWAP1 JUMP JUMPDEST PUSH1 0x0 DUP1 DUP4 PUSH1 0x1F DUP5 ADD SLT PUSH3 0x41AC JUMPI DUP2 DUP3 REVERT JUMPDEST POP DUP2 CALLDATALOAD PUSH1 0x1 PUSH1 0x1 PUSH1 0x40 SHL SUB DUP2 GT ISZERO PUSH3 0x41C3 JUMPI DUP2 DUP3 REVERT JUMPDEST PUSH1 0x20 DUP4 ADD SWAP2 POP DUP4 PUSH1 0x20 DUP1 DUP4 MUL DUP6 ADD ADD GT ISZERO PUSH3 0x41DE JUMPI PUSH1 0x0 DUP1 REVERT JUMPDEST SWAP3 POP SWAP3 SWAP1 POP JUMP JUMPDEST DUP1 CALLDATALOAD DUP1 ISZERO ISZERO DUP2 EQ PUSH3 0x15E0 JUMPI PUSH1 0x0 DUP1 REVERT JUMPDEST DUP1 CALLDATALOAD PUSH3 0x15E0 DUP2 PUSH3 0x527A JUMP JUMPDEST PUSH1 0x0 DUP1 DUP4 PUSH1 0x1F DUP5 ADD SLT PUSH3 0x4215 JUMPI DUP2 DUP3 REVERT JUMPDEST POP DUP2 CALLDATALOAD PUSH1 0x1 PUSH1 0x1 PUSH1 0x40 SHL SUB DUP2 GT ISZERO PUSH3 0x422C JUMPI DUP2 DUP3 REVERT JUMPDEST PUSH1 0x20 DUP4 ADD SWAP2 POP DUP4 PUSH1 0x20 DUP3 DUP6 ADD ADD GT ISZERO PUSH3 0x41DE JUMPI PUSH1 0x0 DUP1 REVERT JUMPDEST PUSH1 0x0 PUSH2 0x140 DUP3 DUP5 SUB SLT ISZERO PUSH3 0x4258 JUMPI DUP1 DUP2 REVERT JUMPDEST POP SWAP2 SWAP1 POP JUMP JUMPDEST PUSH1 0x0 PUSH2 0x100 DUP3 DUP5 SUB SLT ISZERO PUSH3 0x4258 JUMPI DUP1 DUP2 REVERT JUMPDEST DUP1 CALLDATALOAD PUSH2 0xFFFF DUP2 AND DUP2 EQ PUSH3 0x15E0 JUMPI PUSH1 0x0 DUP1 REVERT JUMPDEST DUP1 CALLDATALOAD PUSH9 0xFFFFFFFFFFFFFFFFFF DUP2 AND DUP2 EQ PUSH3 0x15E0 JUMPI PUSH1 0x0 DUP1 REVERT JUMPDEST DUP1 CALLDATALOAD PUSH3 0x15E0 DUP2 PUSH3 0x5290 JUMP JUMPDEST PUSH1 0x0 PUSH1 0x20 DUP3 DUP5 SUB SLT ISZERO PUSH3 0x42BD JUMPI DUP1 DUP2 REVERT JUMPDEST DUP2 CALLDATALOAD PUSH3 0x29E4 DUP2 PUSH3 0x527A JUMP JUMPDEST PUSH1 0x0 PUSH1 0x20 DUP3 DUP5 SUB SLT ISZERO PUSH3 0x42DC JUMPI DUP1 DUP2 REVERT JUMPDEST DUP2 MLOAD PUSH3 0x29E4 DUP2 PUSH3 0x527A JUMP JUMPDEST PUSH1 0x0 DUP1 PUSH1 0x40 DUP4 DUP6 SUB SLT ISZERO PUSH3 0x42FC JUMPI DUP1 DUP2 REVERT JUMPDEST DUP3 CALLDATALOAD PUSH3 0x4309 DUP2 PUSH3 0x527A JUMP JUMPDEST SWAP2 POP PUSH1 0x20 DUP4 ADD CALLDATALOAD PUSH3 0x431B DUP2 PUSH3 0x527A JUMP JUMPDEST DUP1 SWAP2 POP POP SWAP3 POP SWAP3 SWAP1 POP JUMP JUMPDEST PUSH1 0x0 DUP1 PUSH1 0x40 DUP4 DUP6 SUB SLT ISZERO PUSH3 0x4339 JUMPI DUP2 DUP3 REVERT JUMPDEST DUP3 CALLDATALOAD PUSH3 0x4346 DUP2 PUSH3 0x527A JUMP JUMPDEST SWAP2 POP PUSH3 0x4356 PUSH1 0x20 DUP5 ADD PUSH3 0x41E5 JUMP JUMPDEST SWAP1 POP SWAP3 POP SWAP3 SWAP1 POP JUMP JUMPDEST PUSH1 0x0 DUP1 PUSH1 0x40 DUP4 DUP6 SUB SLT ISZERO PUSH3 0x4372 JUMPI DUP2 DUP3 REVERT JUMPDEST DUP3 CALLDATALOAD PUSH3 0x437F DUP2 PUSH3 0x527A JUMP JUMPDEST SWAP2 POP PUSH1 0x20 DUP4 DUP2 ADD CALLDATALOAD PUSH1 0x1 PUSH1 0x1 PUSH1 0x40 SHL SUB DUP1 DUP3 GT ISZERO PUSH3 0x439C JUMPI DUP4 DUP5 REVERT JUMPDEST DUP2 DUP7 ADD SWAP2 POP DUP7 PUSH1 0x1F DUP4 ADD SLT PUSH3 0x43B0 JUMPI DUP4 DUP5 REVERT JUMPDEST DUP2 CALLDATALOAD DUP2 DUP2 GT ISZERO PUSH3 0x43BD JUMPI INVALID JUMPDEST PUSH3 0x43D1 PUSH1 0x1F DUP3 ADD PUSH1 0x1F NOT AND DUP6 ADD PUSH3 0x5256 JUMP JUMPDEST SWAP2 POP DUP1 DUP3 MSTORE DUP8 DUP5 DUP3 DUP6 ADD ADD GT ISZERO PUSH3 0x43E7 JUMPI DUP5 DUP6 REVERT JUMPDEST DUP1 DUP5 DUP5 ADD DUP6 DUP5 ADD CALLDATACOPY DUP2 ADD SWAP1 SWAP3 ADD SWAP3 SWAP1 SWAP3 MSTORE SWAP2 SWAP5 SWAP2 SWAP4 POP SWAP1 SWAP2 POP POP JUMP JUMPDEST PUSH1 0x0 PUSH1 0x20 DUP1 DUP4 DUP6 SUB SLT ISZERO PUSH3 0x4416 JUMPI DUP2 DUP3 REVERT JUMPDEST DUP3 MLOAD PUSH1 0x1 PUSH1 0x1 PUSH1 0x40 SHL SUB DUP1 DUP3 GT ISZERO PUSH3 0x442D JUMPI DUP4 DUP5 REVERT JUMPDEST DUP2 DUP6 ADD SWAP2 POP DUP6 PUSH1 0x1F DUP4 ADD SLT PUSH3 0x4441 JUMPI DUP4 DUP5 REVERT JUMPDEST DUP2 MLOAD DUP2 DUP2 GT ISZERO PUSH3 0x444E JUMPI INVALID JUMPDEST DUP4 DUP2 MUL SWAP2 POP PUSH3 0x4460 DUP5 DUP4 ADD PUSH3 0x5256 JUMP JUMPDEST DUP2 DUP2 MSTORE DUP5 DUP2 ADD SWAP1 DUP5 DUP7 ADD DUP5 DUP7 ADD DUP8 ADD DUP11 LT ISZERO PUSH3 0x447B JUMPI DUP8 DUP9 REVERT JUMPDEST DUP8 SWAP6 POP JUMPDEST DUP4 DUP7 LT ISZERO PUSH3 0x44AD JUMPI DUP1 MLOAD SWAP5 POP PUSH3 0x4497 DUP6 PUSH3 0x527A JUMP JUMPDEST DUP5 DUP4 MSTORE PUSH1 0x1 SWAP6 SWAP1 SWAP6 ADD SWAP5 SWAP2 DUP7 ADD SWAP2 DUP7 ADD PUSH3 0x447F JUMP JUMPDEST POP SWAP9 SWAP8 POP POP POP POP POP POP POP POP JUMP JUMPDEST PUSH1 0x0 DUP1 PUSH1 0x40 DUP4 DUP6 SUB SLT ISZERO PUSH3 0x44CD JUMPI DUP2 DUP3 REVERT JUMPDEST DUP3 CALLDATALOAD PUSH1 0x4 DUP2 LT PUSH3 0x4309 JUMPI DUP3 DUP4 REVERT JUMPDEST PUSH1 0x0 PUSH2 0x140 DUP1 DUP4 DUP6 SUB SLT ISZERO PUSH3 0x44F0 JUMPI DUP2 DUP3 REVERT JUMPDEST PUSH3 0x44FB DUP2 PUSH3 0x5256 JUMP JUMPDEST SWAP1 POP PUSH3 0x4508 DUP4 PUSH3 0x429E JUMP JUMPDEST DUP2 MSTORE PUSH3 0x4518 PUSH1 0x20 DUP5 ADD PUSH3 0x429E JUMP JUMPDEST PUSH1 0x20 DUP3 ADD MSTORE PUSH3 0x452B PUSH1 0x40 DUP5 ADD PUSH3 0x429E JUMP JUMPDEST PUSH1 0x40 DUP3 ADD MSTORE PUSH3 0x453E PUSH1 0x60 DUP5 ADD PUSH3 0x429E JUMP JUMPDEST PUSH1 0x60 DUP3 ADD MSTORE PUSH3 0x4551 PUSH1 0x80 DUP5 ADD PUSH3 0x429E JUMP JUMPDEST PUSH1 0x80 DUP3 ADD MSTORE PUSH3 0x4564 PUSH1 0xA0 DUP5 ADD PUSH3 0x429E JUMP JUMPDEST PUSH1 0xA0 DUP3 ADD MSTORE PUSH3 0x4577 PUSH1 0xC0 DUP5 ADD PUSH3 0x429E JUMP JUMPDEST PUSH1 0xC0 DUP3 ADD MSTORE PUSH3 0x458A PUSH1 0xE0 DUP5 ADD PUSH3 0x429E JUMP JUMPDEST PUSH1 0xE0 DUP3 ADD MSTORE PUSH2 0x100 PUSH3 0x459F DUP2 DUP6 ADD PUSH3 0x429E JUMP JUMPDEST SWAP1 DUP3 ADD MSTORE PUSH2 0x120 PUSH3 0x45B3 DUP5 DUP3 ADD PUSH3 0x429E JUMP JUMPDEST SWAP1 DUP3 ADD MSTORE SWAP4 SWAP3 POP POP POP JUMP JUMPDEST PUSH1 0x0 PUSH2 0x100 DUP1 DUP4 DUP6 SUB SLT ISZERO PUSH3 0x45D2 JUMPI DUP2 DUP3 REVERT JUMPDEST PUSH1 0x40 MLOAD SWAP1 DUP2 ADD SWAP1 PUSH1 0x1 PUSH1 0x1 PUSH1 0x40 SHL SUB DUP3 GT DUP2 DUP4 LT OR ISZERO PUSH3 0x45EF JUMPI INVALID JUMPDEST DUP2 PUSH1 0x40 MSTORE PUSH3 0x45FE DUP5 PUSH3 0x429E JUMP JUMPDEST DUP2 MSTORE PUSH3 0x460E PUSH1 0x20 DUP6 ADD PUSH3 0x429E JUMP JUMPDEST PUSH1 0x20 DUP3 ADD MSTORE PUSH3 0x4621 PUSH1 0x40 DUP6 ADD PUSH3 0x429E JUMP JUMPDEST PUSH1 0x40 DUP3 ADD MSTORE PUSH3 0x4634 PUSH1 0x60 DUP6 ADD PUSH3 0x429E JUMP JUMPDEST PUSH1 0x60 DUP3 ADD MSTORE PUSH3 0x4647 PUSH1 0x80 DUP6 ADD PUSH3 0x429E JUMP JUMPDEST PUSH1 0x80 DUP3 ADD MSTORE PUSH3 0x465A PUSH1 0xA0 DUP6 ADD PUSH3 0x429E JUMP JUMPDEST PUSH1 0xA0 DUP3 ADD MSTORE PUSH3 0x466D PUSH1 0xC0 DUP6 ADD PUSH3 0x429E JUMP JUMPDEST PUSH1 0xC0 DUP3 ADD MSTORE PUSH3 0x4680 PUSH1 0xE0 DUP6 ADD PUSH3 0x429E JUMP JUMPDEST PUSH1 0xE0 DUP3 ADD MSTORE SWAP5 SWAP4 POP POP POP POP JUMP JUMPDEST PUSH1 0x0 DUP1 PUSH1 0x0 DUP1 PUSH1 0x0 DUP1 PUSH1 0x0 DUP1 PUSH1 0x0 DUP1 PUSH2 0x300 DUP12 DUP14 SUB SLT ISZERO PUSH3 0x46AD JUMPI DUP6 DUP7 REVERT JUMPDEST PUSH1 0xA0 DUP12 DUP14 SUB SLT ISZERO PUSH3 0x46BD JUMPI DUP6 DUP7 REVERT JUMPDEST DUP11 SWAP10 POP PUSH1 0xC0 DUP11 DUP14 SUB PUSH1 0x9F NOT ADD SLT ISZERO PUSH3 0x46D4 JUMPI DUP6 DUP7 REVERT JUMPDEST PUSH1 0x40 MLOAD PUSH1 0x1 PUSH1 0x1 PUSH1 0x40 SHL SUB DUP2 PUSH1 0xC0 DUP4 ADD LT DUP2 PUSH1 0xC0 DUP5 ADD GT OR ISZERO PUSH3 0x46F4 JUMPI INVALID JUMPDEST PUSH1 0xC0 DUP3 ADD PUSH1 0x40 MSTORE PUSH3 0x470A PUSH1 0xA0 DUP15 ADD CALLDATALOAD PUSH3 0x527A JUMP JUMPDEST PUSH1 0xA0 DUP14 ADD CALLDATALOAD DUP3 MSTORE PUSH3 0x4720 PUSH1 0xC0 DUP15 ADD CALLDATALOAD PUSH3 0x5290 JUMP JUMPDEST PUSH1 0xC0 DUP14 ADD CALLDATALOAD PUSH1 0x20 DUP4 ADD MSTORE PUSH3 0x4738 PUSH1 0xE0 DUP15 ADD PUSH3 0x41E5 JUMP JUMPDEST PUSH1 0x40 DUP4 ADD MSTORE PUSH3 0x474C PUSH2 0x100 DUP15 ADD PUSH3 0x429E JUMP JUMPDEST PUSH1 0x60 DUP4 ADD MSTORE PUSH3 0x4760 PUSH2 0x120 DUP15 ADD PUSH3 0x429E JUMP JUMPDEST PUSH1 0x80 DUP4 ADD MSTORE PUSH3 0x4774 PUSH2 0x140 DUP15 ADD PUSH3 0x429E JUMP JUMPDEST PUSH1 0xA0 DUP4 ADD MSTORE DUP2 SWAP11 POP PUSH3 0x478C DUP15 PUSH2 0x160 DUP16 ADD PUSH3 0x425E JUMP JUMPDEST SWAP10 POP PUSH3 0x479D PUSH2 0x260 DUP15 ADD PUSH3 0x41F6 JUMP JUMPDEST SWAP9 POP PUSH3 0x47AE PUSH2 0x280 DUP15 ADD PUSH3 0x41E5 JUMP JUMPDEST SWAP8 POP PUSH3 0x47BF PUSH2 0x2A0 DUP15 ADD PUSH3 0x429E JUMP JUMPDEST SWAP7 POP PUSH2 0x2C0 DUP14 ADD CALLDATALOAD SWAP2 POP DUP1 DUP3 GT ISZERO PUSH3 0x47D6 JUMPI DUP6 DUP7 REVERT JUMPDEST PUSH3 0x47E4 DUP15 DUP4 DUP16 ADD PUSH3 0x4203 JUMP JUMPDEST SWAP1 SWAP7 POP SWAP5 POP PUSH2 0x2E0 DUP14 ADD CALLDATALOAD SWAP2 POP DUP1 DUP3 GT ISZERO PUSH3 0x47FE JUMPI DUP4 DUP5 REVERT JUMPDEST POP PUSH3 0x480D DUP14 DUP3 DUP15 ADD PUSH3 0x4203 JUMP JUMPDEST SWAP2 POP DUP1 SWAP4 POP POP DUP1 SWAP2 POP POP SWAP3 SWAP6 SWAP9 SWAP12 SWAP2 SWAP5 SWAP8 SWAP11 POP SWAP3 SWAP6 SWAP9 POP JUMP JUMPDEST PUSH1 0x0 PUSH1 0xA0 DUP3 DUP5 SUB SLT ISZERO PUSH3 0x4838 JUMPI DUP1 DUP2 REVERT JUMPDEST PUSH1 0x40 MLOAD PUSH1 0xA0 DUP2 ADD DUP2 DUP2 LT PUSH1 0x1 PUSH1 0x1 PUSH1 0x40 SHL SUB DUP3 GT OR ISZERO PUSH3 0x4855 JUMPI INVALID JUMPDEST PUSH1 0x40 MSTORE DUP3 CALLDATALOAD PUSH3 0x4865 DUP2 PUSH3 0x527A JUMP JUMPDEST DUP2 MSTORE PUSH3 0x4875 PUSH1 0x20 DUP5 ADD PUSH3 0x41E5 JUMP JUMPDEST PUSH1 0x20 DUP3 ADD MSTORE PUSH1 0x40 DUP4 ADD CALLDATALOAD PUSH1 0x6 DUP2 LT PUSH3 0x488C JUMPI DUP3 DUP4 REVERT JUMPDEST PUSH1 0x40 DUP3 ADD MSTORE PUSH1 0x60 DUP4 ADD CALLDATALOAD PUSH3 0x48A1 DUP2 PUSH3 0x5290 JUMP JUMPDEST PUSH1 0x60 DUP3 ADD MSTORE PUSH3 0x48B4 PUSH1 0x80 DUP5 ADD PUSH3 0x4284 JUMP JUMPDEST PUSH1 0x80 DUP3 ADD MSTORE SWAP4 SWAP3 POP POP POP JUMP JUMPDEST PUSH1 0x0 DUP1 PUSH1 0x0 DUP1 PUSH1 0x0 PUSH1 0x60 DUP7 DUP9 SUB SLT ISZERO PUSH3 0x48D8 JUMPI DUP3 DUP4 REVERT JUMPDEST PUSH3 0x48E3 DUP7 PUSH3 0x4271 JUMP JUMPDEST SWAP5 POP PUSH1 0x20 DUP7 ADD CALLDATALOAD PUSH1 0x1 PUSH1 0x1 PUSH1 0x40 SHL SUB DUP1 DUP3 GT ISZERO PUSH3 0x48FF JUMPI DUP5 DUP6 REVERT JUMPDEST PUSH3 0x490D DUP10 DUP4 DUP11 ADD PUSH3 0x419A JUMP JUMPDEST SWAP1 SWAP7 POP SWAP5 POP PUSH1 0x40 DUP9 ADD CALLDATALOAD SWAP2 POP DUP1 DUP3 GT ISZERO PUSH3 0x4926 JUMPI DUP3 DUP4 REVERT JUMPDEST POP PUSH3 0x4935 DUP9 DUP3 DUP10 ADD PUSH3 0x419A JUMP JUMPDEST SWAP7 SWAP10 SWAP6 SWAP9 POP SWAP4 SWAP7 POP SWAP3 SWAP5 SWAP4 SWAP3 POP POP POP JUMP JUMPDEST PUSH1 0x0 DUP1 PUSH1 0x0 DUP1 PUSH1 0x0 PUSH1 0x60 DUP7 DUP9 SUB SLT ISZERO PUSH3 0x495E JUMPI DUP3 DUP4 REVERT JUMPDEST PUSH3 0x4969 DUP7 PUSH3 0x4271 JUMP JUMPDEST SWAP5 POP PUSH1 0x20 DUP7 ADD CALLDATALOAD PUSH1 0x1 PUSH1 0x1 PUSH1 0x40 SHL SUB DUP1 DUP3 GT ISZERO PUSH3 0x4985 JUMPI DUP5 DUP6 REVERT JUMPDEST PUSH3 0x4993 DUP10 DUP4 DUP11 ADD PUSH3 0x419A JUMP JUMPDEST SWAP1 SWAP7 POP SWAP5 POP PUSH1 0x40 DUP9 ADD CALLDATALOAD SWAP2 POP DUP1 DUP3 GT ISZERO PUSH3 0x49AC JUMPI DUP3 DUP4 REVERT JUMPDEST DUP2 DUP9 ADD SWAP2 POP DUP9 PUSH1 0x1F DUP4 ADD SLT PUSH3 0x49C0 JUMPI DUP3 DUP4 REVERT JUMPDEST DUP2 CALLDATALOAD DUP2 DUP2 GT ISZERO PUSH3 0x49CF JUMPI DUP4 DUP5 REVERT JUMPDEST DUP10 PUSH1 0x20 PUSH2 0x100 DUP4 MUL DUP6 ADD ADD GT ISZERO PUSH3 0x49E5 JUMPI DUP4 DUP5 REVERT JUMPDEST SWAP7 SWAP10 SWAP6 SWAP9 POP SWAP4 SWAP7 POP PUSH1 0x20 ADD SWAP5 SWAP4 SWAP3 POP POP POP JUMP JUMPDEST PUSH1 0x0 DUP1 PUSH1 0x0 DUP1 PUSH1 0x0 DUP1 PUSH1 0xC0 DUP8 DUP10 SUB SLT ISZERO PUSH3 0x4A11 JUMPI DUP4 DUP5 REVERT JUMPDEST PUSH3 0x4A1C DUP8 PUSH3 0x4271 JUMP JUMPDEST SWAP6 POP PUSH1 0x20 DUP8 ADD CALLDATALOAD PUSH3 0x4A2E DUP2 PUSH3 0x527A JUMP JUMPDEST SWAP5 POP PUSH3 0x4A3E PUSH1 0x40 DUP9 ADD PUSH3 0x41E5 JUMP JUMPDEST SWAP4 POP PUSH1 0x60 DUP8 ADD CALLDATALOAD PUSH3 0x4A50 DUP2 PUSH3 0x5290 JUMP JUMPDEST SWAP3 POP PUSH1 0x80 DUP8 ADD CALLDATALOAD PUSH3 0x4A62 DUP2 PUSH3 0x5290 JUMP JUMPDEST SWAP2 POP PUSH1 0xA0 DUP8 ADD CALLDATALOAD PUSH3 0x4A74 DUP2 PUSH3 0x5290 JUMP JUMPDEST DUP1 SWAP2 POP POP SWAP3 SWAP6 POP SWAP3 SWAP6 POP SWAP3 SWAP6 JUMP JUMPDEST PUSH1 0x0 DUP1 PUSH1 0x40 DUP4 DUP6 SUB SLT ISZERO PUSH3 0x4A95 JUMPI DUP2 DUP3 REVERT JUMPDEST PUSH3 0x4309 DUP4 PUSH3 0x4271 JUMP JUMPDEST PUSH1 0x0 DUP1 PUSH1 0x0 DUP1 PUSH1 0x0 PUSH1 0x60 DUP7 DUP9 SUB SLT ISZERO PUSH3 0x4AB8 JUMPI DUP3 DUP4 REVERT JUMPDEST PUSH3 0x4AC3 DUP7 PUSH3 0x4271 JUMP JUMPDEST SWAP5 POP PUSH1 0x20 DUP7 ADD CALLDATALOAD PUSH1 0x1 PUSH1 0x1 PUSH1 0x40 SHL SUB DUP1 DUP3 GT ISZERO PUSH3 0x4ADF JUMPI DUP5 DUP6 REVERT JUMPDEST PUSH3 0x4AED DUP10 DUP4 DUP11 ADD PUSH3 0x4203 JUMP JUMPDEST SWAP1 SWAP7 POP SWAP5 POP PUSH1 0x40 DUP9 ADD CALLDATALOAD SWAP2 POP DUP1 DUP3 GT ISZERO PUSH3 0x4B06 JUMPI DUP3 DUP4 REVERT JUMPDEST POP PUSH3 0x4935 DUP9 DUP3 DUP10 ADD PUSH3 0x4203 JUMP JUMPDEST PUSH1 0x0 DUP1 PUSH2 0x160 DUP4 DUP6 SUB SLT ISZERO PUSH3 0x4B29 JUMPI DUP2 DUP3 REVERT JUMPDEST PUSH3 0x4B34 DUP4 PUSH3 0x4271 JUMP JUMPDEST SWAP2 POP PUSH3 0x4356 DUP5 PUSH1 0x20 DUP6 ADD PUSH3 0x4245 JUMP JUMPDEST PUSH1 0x0 DUP1 PUSH1 0x0 DUP1 PUSH1 0x0 DUP1 PUSH2 0x1A0 DUP8 DUP10 SUB SLT ISZERO PUSH3 0x4B5F JUMPI DUP4 DUP5 REVERT JUMPDEST PUSH3 0x4B6A DUP8 PUSH3 0x4271 JUMP JUMPDEST SWAP6 POP PUSH3 0x4B7B DUP9 PUSH1 0x20 DUP10 ADD PUSH3 0x4245 JUMP JUMPDEST SWAP5 POP PUSH2 0x160 DUP8 ADD CALLDATALOAD PUSH1 0x1 PUSH1 0x1 PUSH1 0x40 SHL SUB DUP1 DUP3 GT ISZERO PUSH3 0x4B98 JUMPI DUP6 DUP7 REVERT JUMPDEST PUSH3 0x4BA6 DUP11 DUP4 DUP12 ADD PUSH3 0x4203 JUMP JUMPDEST SWAP1 SWAP7 POP SWAP5 POP PUSH2 0x180 DUP10 ADD CALLDATALOAD SWAP2 POP DUP1 DUP3 GT ISZERO PUSH3 0x4BC0 JUMPI DUP4 DUP5 REVERT JUMPDEST POP PUSH3 0x4BCF DUP10 DUP3 DUP11 ADD PUSH3 0x4203 JUMP JUMPDEST SWAP8 SWAP11 SWAP7 SWAP10 POP SWAP5 SWAP8 POP SWAP3 SWAP6 SWAP4 SWAP5 SWAP3 POP POP POP JUMP JUMPDEST PUSH1 0x0 DUP1 PUSH2 0x120 DUP4 DUP6 SUB SLT ISZERO PUSH3 0x4BF5 JUMPI DUP2 DUP3 REVERT JUMPDEST PUSH3 0x4C00 DUP4 PUSH3 0x4271 JUMP JUMPDEST SWAP2 POP PUSH3 0x4356 DUP5 PUSH1 0x20 DUP6 ADD PUSH3 0x425E JUMP JUMPDEST PUSH1 0x0 DUP1 PUSH1 0x0 PUSH1 0x60 DUP5 DUP7 SUB SLT ISZERO PUSH3 0x4C26 JUMPI DUP1 DUP2 REVERT JUMPDEST PUSH3 0x4C31 DUP5 PUSH3 0x4271 JUMP JUMPDEST SWAP3 POP PUSH1 0x20 DUP5 ADD CALLDATALOAD SWAP2 POP PUSH1 0x40 DUP5 ADD CALLDATALOAD PUSH3 0x4C4A DUP2 PUSH3 0x5290 JUMP JUMPDEST DUP1 SWAP2 POP POP SWAP3 POP SWAP3 POP SWAP3 JUMP JUMPDEST PUSH1 0x0 DUP1 PUSH1 0x0 DUP1 PUSH1 0x0 DUP1 PUSH1 0x0 PUSH1 0xE0 DUP9 DUP11 SUB SLT ISZERO PUSH3 0x4C70 JUMPI DUP1 DUP2 REVERT JUMPDEST PUSH3 0x4C7B DUP9 PUSH3 0x4271 JUMP JUMPDEST SWAP7 POP PUSH1 0x20 DUP9 ADD CALLDATALOAD PUSH3 0x4C8D DUP2 PUSH3 0x5290 JUMP JUMPDEST SWAP6 POP PUSH1 0x40 DUP9 ADD CALLDATALOAD PUSH3 0x4C9F DUP2 PUSH3 0x5290 JUMP JUMPDEST SWAP5 POP PUSH1 0x60 DUP9 ADD CALLDATALOAD PUSH3 0x4CB1 DUP2 PUSH3 0x5290 JUMP JUMPDEST SWAP4 POP PUSH1 0x80 DUP9 ADD CALLDATALOAD PUSH3 0x4CC3 DUP2 PUSH3 0x5290 JUMP JUMPDEST SWAP3 POP PUSH1 0xA0 DUP9 ADD CALLDATALOAD PUSH3 0x4CD5 DUP2 PUSH3 0x5290 JUMP JUMPDEST SWAP2 POP PUSH1 0xC0 DUP9 ADD CALLDATALOAD PUSH3 0x4CE7 DUP2 PUSH3 0x5290 JUMP JUMPDEST DUP1 SWAP2 POP POP SWAP3 SWAP6 SWAP9 SWAP2 SWAP5 SWAP8 POP SWAP3 SWAP6 POP JUMP JUMPDEST PUSH1 0x0 PUSH1 0x20 DUP3 DUP5 SUB SLT ISZERO PUSH3 0x4D09 JUMPI DUP1 DUP2 REVERT JUMPDEST POP MLOAD SWAP2 SWAP1 POP JUMP JUMPDEST PUSH1 0x0 DUP1 PUSH1 0x40 DUP4 DUP6 SUB SLT ISZERO PUSH3 0x4D23 JUMPI DUP2 DUP3 REVERT JUMPDEST POP POP DUP1 MLOAD PUSH1 0x20 SWAP1 SWAP2 ADD MLOAD SWAP1 SWAP3 SWAP1 SWAP2 POP JUMP JUMPDEST PUSH1 0x0 PUSH1 0x20 DUP3 DUP5 SUB SLT ISZERO PUSH3 0x4D46 JUMPI DUP1 DUP2 REVERT JUMPDEST DUP2 CALLDATALOAD PUSH4 0xFFFFFFFF DUP2 AND DUP2 EQ PUSH3 0x29E4 JUMPI DUP2 DUP3 REVERT JUMPDEST PUSH1 0x0 PUSH1 0x20 DUP3 DUP5 SUB SLT ISZERO PUSH3 0x4D6C JUMPI DUP1 DUP2 REVERT JUMPDEST DUP2 CALLDATALOAD PUSH3 0x29E4 DUP2 PUSH3 0x5290 JUMP JUMPDEST PUSH1 0x0 PUSH1 0x20 DUP3 DUP5 SUB SLT ISZERO PUSH3 0x4D8B JUMPI DUP1 DUP2 REVERT JUMPDEST DUP2 MLOAD PUSH3 0x29E4 DUP2 PUSH3 0x5290 JUMP JUMPDEST PUSH1 0x0 DUP3 DUP5 MSTORE DUP3 DUP3 PUSH1 0x20 DUP7 ADD CALLDATACOPY DUP1 PUSH1 0x20 DUP5 DUP7 ADD ADD MSTORE PUSH1 0x20 PUSH1 0x1F NOT PUSH1 0x1F DUP6 ADD AND DUP6 ADD ADD SWAP1 POP SWAP4 SWAP3 POP POP POP JUMP JUMPDEST PUSH1 0x1 PUSH1 0x1 PUSH1 0xA0 SHL SUB SWAP2 SWAP1 SWAP2 AND DUP2 MSTORE PUSH1 0x20 ADD SWAP1 JUMP JUMPDEST PUSH1 0x1 PUSH1 0x1 PUSH1 0xA0 SHL SUB SWAP3 SWAP1 SWAP3 AND DUP3 MSTORE ISZERO ISZERO PUSH1 0x20 DUP3 ADD MSTORE PUSH1 0x40 ADD SWAP1 JUMP JUMPDEST PUSH1 0x0 PUSH1 0x1 DUP1 PUSH1 0xA0 SHL SUB DUP5 AND DUP3 MSTORE PUSH1 0x20 PUSH1 0x40 DUP2 DUP5 ADD MSTORE DUP4 MLOAD DUP1 PUSH1 0x40 DUP6 ADD MSTORE DUP3 JUMPDEST DUP2 DUP2 LT ISZERO PUSH3 0x4E2E JUMPI DUP6 DUP2 ADD DUP4 ADD MLOAD DUP6 DUP3 ADD PUSH1 0x60 ADD MSTORE DUP3 ADD PUSH3 0x4E10 JUMP JUMPDEST DUP2 DUP2 GT ISZERO PUSH3 0x4E40 JUMPI DUP4 PUSH1 0x60 DUP4 DUP8 ADD ADD MSTORE JUMPDEST POP PUSH1 0x1F ADD PUSH1 0x1F NOT AND SWAP3 SWAP1 SWAP3 ADD PUSH1 0x60 ADD SWAP5 SWAP4 POP POP POP POP JUMP JUMPDEST PUSH1 0x1 PUSH1 0x1 PUSH1 0xA0 SHL SUB SWAP3 SWAP1 SWAP3 AND DUP3 MSTORE PUSH1 0x20 DUP3 ADD MSTORE PUSH1 0x40 ADD SWAP1 JUMP JUMPDEST PUSH1 0x20 DUP1 DUP3 MSTORE PUSH1 0x19 SWAP1 DUP3 ADD MSTORE PUSH32 0x50543A206C65766572616765207368617265206C656E67746800000000000000 PUSH1 0x40 DUP3 ADD MSTORE PUSH1 0x60 ADD SWAP1 JUMP JUMPDEST PUSH1 0x20 DUP1 DUP3 MSTORE PUSH1 0x16 SWAP1 DUP3 ADD MSTORE PUSH22 0xA0A87440E0E4DEE0DEE4E8D2DEDCE640D8CADCCEE8D PUSH1 0x53 SHL PUSH1 0x40 DUP3 ADD MSTORE PUSH1 0x60 ADD SWAP1 JUMP JUMPDEST PUSH1 0x20 DUP1 DUP3 MSTORE PUSH1 0x13 SWAP1 DUP3 ADD MSTORE PUSH19 0x50543A2063757272656E637920657869737473 PUSH1 0x68 SHL PUSH1 0x40 DUP3 ADD MSTORE PUSH1 0x60 ADD SWAP1 JUMP JUMPDEST PUSH1 0x20 DUP1 DUP3 MSTORE PUSH1 0xF SWAP1 DUP3 ADD MSTORE PUSH15 0x125B9D985B1A59081A185A5C98DD5D PUSH1 0x8A SHL PUSH1 0x40 DUP3 ADD MSTORE PUSH1 0x60 ADD SWAP1 JUMP JUMPDEST PUSH1 0x20 DUP1 DUP3 MSTORE PUSH1 0x15 SWAP1 DUP3 ADD MSTORE PUSH21 0x4F776E61626C653A207A65726F2061646472657373 PUSH1 0x58 SHL PUSH1 0x40 DUP3 ADD MSTORE PUSH1 0x60 ADD SWAP1 JUMP JUMPDEST PUSH1 0x20 DUP1 DUP3 MSTORE PUSH1 0x11 SWAP1 DUP3 ADD MSTORE PUSH17 0x496E76616C696420646973636F756E7473 PUSH1 0x78 SHL PUSH1 0x40 DUP3 ADD MSTORE PUSH1 0x60 ADD SWAP1 JUMP JUMPDEST PUSH1 0x20 DUP1 DUP3 MSTORE PUSH1 0x22 SWAP1 DUP3 ADD MSTORE PUSH32 0x50543A20616E6E75616C697A656420616E63686F72207261746573206C656E67 PUSH1 0x40 DUP3 ADD MSTORE PUSH2 0xE8D PUSH1 0xF3 SHL PUSH1 0x60 DUP3 ADD MSTORE PUSH1 0x80 ADD SWAP1 JUMP JUMPDEST PUSH1 0x20 DUP1 DUP3 MSTORE PUSH1 0x16 SWAP1 DUP3 ADD MSTORE PUSH22 0x14150E881B195D995C9859D9481D1A1C995CDA1BDB19 PUSH1 0x52 SHL PUSH1 0x40 DUP3 ADD MSTORE PUSH1 0x60 ADD SWAP1 JUMP JUMPDEST PUSH1 0x20 DUP1 DUP3 MSTORE DUP2 DUP2 ADD MSTORE PUSH32 0x4F776E61626C653A2063616C6C6572206973206E6F7420746865206F776E6572 PUSH1 0x40 DUP3 ADD MSTORE PUSH1 0x60 ADD SWAP1 JUMP JUMPDEST PUSH1 0x20 DUP1 DUP3 MSTORE PUSH1 0x14 SWAP1 DUP3 ADD MSTORE PUSH20 0x556E617574686F72697A65642075706772616465 PUSH1 0x60 SHL PUSH1 0x40 DUP3 ADD MSTORE PUSH1 0x60 ADD SWAP1 JUMP JUMPDEST PUSH1 0x20 DUP1 DUP3 MSTORE DUP2 DUP2 ADD MSTORE PUSH32 0x4F776E61626C653A2063616C6C657220213D2070656E64696E67206F776E6572 PUSH1 0x40 DUP3 ADD MSTORE PUSH1 0x60 ADD SWAP1 JUMP JUMPDEST PUSH1 0x20 DUP1 DUP3 MSTORE PUSH1 0x16 SWAP1 DUP3 ADD MSTORE PUSH22 0x50543A206465706F736974207368617265732073756D PUSH1 0x50 SHL PUSH1 0x40 DUP3 ADD MSTORE PUSH1 0x60 ADD SWAP1 JUMP JUMPDEST PUSH1 0x20 DUP1 DUP3 MSTORE PUSH1 0x13 SWAP1 DUP3 ADD MSTORE PUSH19 0x125B9D985B1A590818DD5C9C995B98DE481A59 PUSH1 0x6A SHL PUSH1 0x40 DUP3 ADD MSTORE PUSH1 0x60 ADD SWAP1 JUMP JUMPDEST PUSH1 0x20 DUP1 DUP3 MSTORE PUSH1 0x18 SWAP1 DUP3 ADD MSTORE PUSH32 0x50543A206465706F736974207368617265206C656E6774680000000000000000 PUSH1 0x40 DUP3 ADD MSTORE PUSH1 0x60 ADD SWAP1 JUMP JUMPDEST PUSH1 0x20 DUP1 DUP3 MSTORE PUSH1 0x18 SWAP1 DUP3 ADD MSTORE PUSH32 0x50543A20746F6B656E2061646472657373206578697374730000000000000000 PUSH1 0x40 DUP3 ADD MSTORE PUSH1 0x60 ADD SWAP1 JUMP JUMPDEST PUSH1 0x20 DUP1 DUP3 MSTORE PUSH1 0x16 SWAP1 DUP3 ADD MSTORE PUSH22 0x282A1D1034B73B30B634B210383937B837B93A34B7B7 PUSH1 0x51 SHL PUSH1 0x40 DUP3 ADD MSTORE PUSH1 0x60 ADD SWAP1 JUMP JUMPDEST PUSH1 0x20 DUP1 DUP3 MSTORE PUSH1 0x12 SWAP1 DUP3 ADD MSTORE PUSH18 0x125B9D985B1A59081C1D881A185A5C98DD5D PUSH1 0x72 SHL PUSH1 0x40 DUP3 ADD MSTORE PUSH1 0x60 ADD SWAP1 JUMP JUMPDEST PUSH2 0xFFFF SWAP2 SWAP1 SWAP2 AND DUP2 MSTORE PUSH1 0x20 ADD SWAP1 JUMP JUMPDEST PUSH2 0xFFFF SWAP3 SWAP1 SWAP3 AND DUP3 MSTORE PUSH1 0x1 PUSH1 0x1 PUSH1 0xA0 SHL SUB AND PUSH1 0x20 DUP3 ADD MSTORE PUSH1 0x40 ADD SWAP1 JUMP JUMPDEST PUSH2 0xFFFF DUP8 AND DUP2 MSTORE PUSH1 0x1 PUSH1 0x1 PUSH1 0xA0 SHL SUB DUP7 AND PUSH1 0x20 DUP3 ADD MSTORE PUSH1 0x80 PUSH1 0x40 DUP3 ADD DUP2 SWAP1 MSTORE PUSH1 0x0 SWAP1 PUSH3 0x5215 SWAP1 DUP4 ADD DUP7 DUP9 PUSH3 0x4D98 JUMP JUMPDEST DUP3 DUP2 SUB PUSH1 0x60 DUP5 ADD MSTORE PUSH3 0x522A DUP2 DUP6 DUP8 PUSH3 0x4D98 JUMP JUMPDEST SWAP10 SWAP9 POP POP POP POP POP POP POP POP POP JUMP JUMPDEST SWAP1 DUP2 MSTORE PUSH1 0x20 ADD SWAP1 JUMP JUMPDEST SWAP3 DUP4 MSTORE PUSH1 0x20 DUP4 ADD SWAP2 SWAP1 SWAP2 MSTORE PUSH1 0x40 DUP3 ADD MSTORE PUSH1 0x60 ADD SWAP1 JUMP JUMPDEST PUSH1 0x40 MLOAD DUP2 DUP2 ADD PUSH1 0x1 PUSH1 0x1 PUSH1 0x40 SHL SUB DUP2 GT DUP3 DUP3 LT OR ISZERO PUSH3 0x5272 JUMPI INVALID JUMPDEST PUSH1 0x40 MSTORE SWAP2 SWAP1 POP JUMP JUMPDEST PUSH1 0x1 PUSH1 0x1 PUSH1 0xA0 SHL SUB DUP2 AND DUP2 EQ PUSH3 0x7B6 JUMPI PUSH1 0x0 DUP1 REVERT JUMPDEST PUSH1 0xFF DUP2 AND DUP2 EQ PUSH3 0x7B6 JUMPI PUSH1 0x0 DUP1 REVERT INVALID PUSH1 0x80 PUSH1 0x40 MSTORE PUSH1 0x40 MLOAD PUSH2 0x99B CODESIZE SUB DUP1 PUSH2 0x99B DUP4 CODECOPY DUP2 DUP2 ADD PUSH1 0x40 MSTORE PUSH1 0x40 DUP2 LT ISZERO PUSH2 0x26 JUMPI PUSH1 0x0 DUP1 REVERT JUMPDEST DUP2 MLOAD PUSH1 0x20 DUP4 ADD DUP1 MLOAD PUSH1 0x40 MLOAD SWAP3 SWAP5 SWAP3 SWAP4 DUP4 ADD SWAP3 SWAP2 SWAP1 DUP5 PUSH5 0x100000000 DUP3 GT ISZERO PUSH2 0x4D JUMPI PUSH1 0x0 DUP1 REVERT JUMPDEST SWAP1 DUP4 ADD SWAP1 PUSH1 0x20 DUP3 ADD DUP6 DUP2 GT ISZERO PUSH2 0x62 JUMPI PUSH1 0x0 DUP1 REVERT JUMPDEST DUP3 MLOAD PUSH5 0x100000000 DUP2 GT DUP3 DUP3 ADD DUP9 LT OR ISZERO PUSH2 0x7C JUMPI PUSH1 0x0 DUP1 REVERT JUMPDEST DUP3 MSTORE POP DUP2 MLOAD PUSH1 0x20 SWAP2 DUP3 ADD SWAP3 SWAP1 SWAP2 ADD SWAP1 DUP1 DUP4 DUP4 PUSH1 0x0 JUMPDEST DUP4 DUP2 LT ISZERO PUSH2 0xA9 JUMPI DUP2 DUP2 ADD MLOAD DUP4 DUP3 ADD MSTORE PUSH1 0x20 ADD PUSH2 0x91 JUMP JUMPDEST POP POP POP POP SWAP1 POP SWAP1 DUP2 ADD SWAP1 PUSH1 0x1F AND DUP1 ISZERO PUSH2 0xD6 JUMPI DUP1 DUP3 SUB DUP1 MLOAD PUSH1 0x1 DUP4 PUSH1 0x20 SUB PUSH2 0x100 EXP SUB NOT AND DUP2 MSTORE PUSH1 0x20 ADD SWAP2 POP JUMPDEST POP PUSH1 0x40 MSTORE POP DUP4 SWAP2 POP DUP3 SWAP1 POP PUSH2 0xED DUP3 DUP3 PUSH1 0x0 PUSH2 0xF6 JUMP JUMPDEST POP POP POP POP PUSH2 0x4FA JUMP JUMPDEST PUSH2 0xFF DUP4 PUSH2 0x1C5 JUMP JUMPDEST PUSH1 0x40 MLOAD PUSH1 0x1 PUSH1 0x1 PUSH1 0xA0 SHL SUB DUP5 AND SWAP1 PUSH32 0x1CF3B03A6CF19FA2BABA4DF148E9DCABEDEA7F8A5C07840E207E5C089BE95D3E SWAP1 PUSH1 0x0 SWAP1 LOG2 PUSH1 0x0 DUP3 MLOAD GT DUP1 PUSH2 0x140 JUMPI POP DUP1 JUMPDEST ISZERO PUSH2 0x1C0 JUMPI PUSH2 0x1BE DUP4 PUSH1 0x1 PUSH1 0x1 PUSH1 0xA0 SHL SUB AND PUSH4 0x5C60DA1B PUSH1 0x40 MLOAD DUP2 PUSH4 0xFFFFFFFF AND PUSH1 0xE0 SHL DUP2 MSTORE PUSH1 0x4 ADD PUSH1 0x20 PUSH1 0x40 MLOAD DUP1 DUP4 SUB DUP2 DUP7 DUP1 EXTCODESIZE ISZERO DUP1 ISZERO PUSH2 0x181 JUMPI PUSH1 0x0 DUP1 REVERT JUMPDEST POP GAS STATICCALL ISZERO DUP1 ISZERO PUSH2 0x195 JUMPI RETURNDATASIZE PUSH1 0x0 DUP1 RETURNDATACOPY RETURNDATASIZE PUSH1 0x0 REVERT JUMPDEST POP POP POP POP PUSH1 0x40 MLOAD RETURNDATASIZE PUSH1 0x20 DUP2 LT ISZERO PUSH2 0x1AB JUMPI PUSH1 0x0 DUP1 REVERT JUMPDEST POP MLOAD DUP4 PUSH2 0x31E PUSH1 0x20 SWAP1 DUP2 SHL PUSH2 0xB7 OR SWAP1 SHR JUMP JUMPDEST POP JUMPDEST POP POP POP JUMP JUMPDEST PUSH2 0x1D8 DUP2 PUSH2 0x34A PUSH1 0x20 SHL PUSH2 0xE3 OR PUSH1 0x20 SHR JUMP JUMPDEST PUSH2 0x213 JUMPI PUSH1 0x40 MLOAD PUSH3 0x461BCD PUSH1 0xE5 SHL DUP2 MSTORE PUSH1 0x4 ADD DUP1 DUP1 PUSH1 0x20 ADD DUP3 DUP2 SUB DUP3 MSTORE PUSH1 0x25 DUP2 MSTORE PUSH1 0x20 ADD DUP1 PUSH2 0x8F9 PUSH1 0x25 SWAP2 CODECOPY PUSH1 0x40 ADD SWAP2 POP POP PUSH1 0x40 MLOAD DUP1 SWAP2 SUB SWAP1 REVERT JUMPDEST PUSH2 0x28B DUP2 PUSH1 0x1 PUSH1 0x1 PUSH1 0xA0 SHL SUB AND PUSH4 0x5C60DA1B PUSH1 0x40 MLOAD DUP2 PUSH4 0xFFFFFFFF AND PUSH1 0xE0 SHL DUP2 MSTORE PUSH1 0x4 ADD PUSH1 0x20 PUSH1 0x40 MLOAD DUP1 DUP4 SUB DUP2 DUP7 DUP1 EXTCODESIZE ISZERO DUP1 ISZERO PUSH2 0x24F JUMPI PUSH1 0x0 DUP1 REVERT JUMPDEST POP GAS STATICCALL ISZERO DUP1 ISZERO PUSH2 0x263 JUMPI RETURNDATASIZE PUSH1 0x0 DUP1 RETURNDATACOPY RETURNDATASIZE PUSH1 0x0 REVERT JUMPDEST POP POP POP POP PUSH1 0x40 MLOAD RETURNDATASIZE PUSH1 0x20 DUP2 LT ISZERO PUSH2 0x279 JUMPI PUSH1 0x0 DUP1 REVERT JUMPDEST POP MLOAD PUSH2 0x34A PUSH1 0x20 SWAP1 DUP2 SHL PUSH2 0xE3 OR SWAP1 SHR JUMP JUMPDEST PUSH2 0x2C6 JUMPI PUSH1 0x40 MLOAD PUSH3 0x461BCD PUSH1 0xE5 SHL DUP2 MSTORE PUSH1 0x4 ADD DUP1 DUP1 PUSH1 0x20 ADD DUP3 DUP2 SUB DUP3 MSTORE PUSH1 0x30 DUP2 MSTORE PUSH1 0x20 ADD DUP1 PUSH2 0x96B PUSH1 0x30 SWAP2 CODECOPY PUSH1 0x40 ADD SWAP2 POP POP PUSH1 0x40 MLOAD DUP1 SWAP2 SUB SWAP1 REVERT JUMPDEST DUP1 PUSH2 0x2FD PUSH32 0xA3F0AD74E5423AEBFD80D3EF4346578335A9A72AEAEE59FF6CB3582B35133D50 PUSH1 0x0 SHL PUSH2 0x350 PUSH1 0x20 SHL PUSH2 0xE9 OR PUSH1 0x20 SHR JUMP JUMPDEST DUP1 SLOAD PUSH1 0x1 PUSH1 0x1 PUSH1 0xA0 SHL SUB NOT AND PUSH1 0x1 PUSH1 0x1 PUSH1 0xA0 SHL SUB SWAP3 SWAP1 SWAP3 AND SWAP2 SWAP1 SWAP2 OR SWAP1 SSTORE POP JUMP JUMPDEST PUSH1 0x60 PUSH2 0x343 DUP4 DUP4 PUSH1 0x40 MLOAD DUP1 PUSH1 0x60 ADD PUSH1 0x40 MSTORE DUP1 PUSH1 0x27 DUP2 MSTORE PUSH1 0x20 ADD PUSH2 0x91E PUSH1 0x27 SWAP2 CODECOPY PUSH2 0x353 JUMP JUMPDEST SWAP4 SWAP3 POP POP POP JUMP JUMPDEST EXTCODESIZE ISZERO ISZERO SWAP1 JUMP JUMPDEST SWAP1 JUMP JUMPDEST PUSH1 0x60 PUSH2 0x35E DUP5 PUSH2 0x34A JUMP JUMPDEST PUSH2 0x399 JUMPI PUSH1 0x40 MLOAD PUSH3 0x461BCD PUSH1 0xE5 SHL DUP2 MSTORE PUSH1 0x4 ADD DUP1 DUP1 PUSH1 0x20 ADD DUP3 DUP2 SUB DUP3 MSTORE PUSH1 0x26 DUP2 MSTORE PUSH1 0x20 ADD DUP1 PUSH2 0x945 PUSH1 0x26 SWAP2 CODECOPY PUSH1 0x40 ADD SWAP2 POP POP PUSH1 0x40 MLOAD DUP1 SWAP2 SUB SWAP1 REVERT JUMPDEST PUSH1 0x0 DUP1 DUP6 PUSH1 0x1 PUSH1 0x1 PUSH1 0xA0 SHL SUB AND DUP6 PUSH1 0x40 MLOAD DUP1 DUP3 DUP1 MLOAD SWAP1 PUSH1 0x20 ADD SWAP1 DUP1 DUP4 DUP4 JUMPDEST PUSH1 0x20 DUP4 LT PUSH2 0x3D6 JUMPI DUP1 MLOAD DUP3 MSTORE PUSH1 0x1F NOT SWAP1 SWAP3 ADD SWAP2 PUSH1 0x20 SWAP2 DUP3 ADD SWAP2 ADD PUSH2 0x3B7 JUMP JUMPDEST PUSH1 0x1 DUP4 PUSH1 0x20 SUB PUSH2 0x100 EXP SUB DUP1 NOT DUP3 MLOAD AND DUP2 DUP5 MLOAD AND DUP1 DUP3 OR DUP6 MSTORE POP POP POP POP POP POP SWAP1 POP ADD SWAP2 POP POP PUSH1 0x0 PUSH1 0x40 MLOAD DUP1 DUP4 SUB DUP2 DUP6 GAS DELEGATECALL SWAP2 POP POP RETURNDATASIZE DUP1 PUSH1 0x0 DUP2 EQ PUSH2 0x436 JUMPI PUSH1 0x40 MLOAD SWAP2 POP PUSH1 0x1F NOT PUSH1 0x3F RETURNDATASIZE ADD AND DUP3 ADD PUSH1 0x40 MSTORE RETURNDATASIZE DUP3 MSTORE RETURNDATASIZE PUSH1 0x0 PUSH1 0x20 DUP5 ADD RETURNDATACOPY PUSH2 0x43B JUMP JUMPDEST PUSH1 0x60 SWAP2 POP JUMPDEST POP SWAP1 SWAP3 POP SWAP1 POP PUSH2 0x44C DUP3 DUP3 DUP7 PUSH2 0x456 JUMP JUMPDEST SWAP7 SWAP6 POP POP POP POP POP POP JUMP JUMPDEST PUSH1 0x60 DUP4 ISZERO PUSH2 0x465 JUMPI POP DUP2 PUSH2 0x343 JUMP JUMPDEST DUP3 MLOAD ISZERO PUSH2 0x475 JUMPI DUP3 MLOAD DUP1 DUP5 PUSH1 0x20 ADD REVERT JUMPDEST DUP2 PUSH1 0x40 MLOAD PUSH3 0x461BCD PUSH1 0xE5 SHL DUP2 MSTORE PUSH1 0x4 ADD DUP1 DUP1 PUSH1 0x20 ADD DUP3 DUP2 SUB DUP3 MSTORE DUP4 DUP2 DUP2 MLOAD DUP2 MSTORE PUSH1 0x20 ADD SWAP2 POP DUP1 MLOAD SWAP1 PUSH1 0x20 ADD SWAP1 DUP1 DUP4 DUP4 PUSH1 0x0 JUMPDEST DUP4 DUP2 LT ISZERO PUSH2 0x4BF JUMPI DUP2 DUP2 ADD MLOAD DUP4 DUP3 ADD MSTORE PUSH1 0x20 ADD PUSH2 0x4A7 JUMP JUMPDEST POP POP POP POP SWAP1 POP SWAP1 DUP2 ADD SWAP1 PUSH1 0x1F AND DUP1 ISZERO PUSH2 0x4EC JUMPI DUP1 DUP3 SUB DUP1 MLOAD PUSH1 0x1 DUP4 PUSH1 0x20 SUB PUSH2 0x100 EXP SUB NOT AND DUP2 MSTORE PUSH1 0x20 ADD SWAP2 POP JUMPDEST POP SWAP3 POP POP POP PUSH1 0x40 MLOAD DUP1 SWAP2 SUB SWAP1 REVERT JUMPDEST PUSH2 0x3F0 DUP1 PUSH2 0x509 PUSH1 0x0 CODECOPY PUSH1 0x0 RETURN INVALID PUSH1 0x80 PUSH1 0x40 MSTORE PUSH1 0x4 CALLDATASIZE LT PUSH2 0x2D JUMPI PUSH1 0x0 CALLDATALOAD PUSH1 0xE0 SHR DUP1 PUSH4 0x2D6B3A6B EQ PUSH2 0x3E JUMPI DUP1 PUSH4 0xAAF10F42 EQ PUSH2 0x6F JUMPI PUSH2 0x34 JUMP JUMPDEST CALLDATASIZE PUSH2 0x34 JUMPI STOP JUMPDEST PUSH2 0x3C PUSH2 0x84 JUMP JUMPDEST STOP JUMPDEST CALLVALUE DUP1 ISZERO PUSH2 0x4A JUMPI PUSH1 0x0 DUP1 REVERT JUMPDEST POP PUSH2 0x53 PUSH2 0x9E JUMP JUMPDEST PUSH1 0x40 DUP1 MLOAD PUSH1 0x1 PUSH1 0x1 PUSH1 0xA0 SHL SUB SWAP1 SWAP3 AND DUP3 MSTORE MLOAD SWAP1 DUP2 SWAP1 SUB PUSH1 0x20 ADD SWAP1 RETURN JUMPDEST CALLVALUE DUP1 ISZERO PUSH2 0x7B JUMPI PUSH1 0x0 DUP1 REVERT JUMPDEST POP PUSH2 0x53 PUSH2 0xAD JUMP JUMPDEST PUSH2 0x8C PUSH2 0x9C JUMP JUMPDEST PUSH2 0x9C PUSH2 0x97 PUSH2 0xEC JUMP JUMPDEST PUSH2 0x15F JUMP JUMPDEST JUMP JUMPDEST PUSH1 0x0 PUSH2 0xA8 PUSH2 0x183 JUMP JUMPDEST SWAP1 POP SWAP1 JUMP JUMPDEST PUSH1 0x0 PUSH2 0xA8 PUSH2 0xEC JUMP JUMPDEST PUSH1 0x60 PUSH2 0xDC DUP4 DUP4 PUSH1 0x40 MLOAD DUP1 PUSH1 0x60 ADD PUSH1 0x40 MSTORE DUP1 PUSH1 0x27 DUP2 MSTORE PUSH1 0x20 ADD PUSH2 0x36E PUSH1 0x27 SWAP2 CODECOPY PUSH2 0x18D JUMP JUMPDEST SWAP4 SWAP3 POP POP POP JUMP JUMPDEST EXTCODESIZE ISZERO ISZERO SWAP1 JUMP JUMPDEST SWAP1 JUMP JUMPDEST PUSH1 0x0 PUSH2 0xF6 PUSH2 0x28F JUMP JUMPDEST PUSH1 0x1 PUSH1 0x1 PUSH1 0xA0 SHL SUB AND PUSH4 0x5C60DA1B PUSH1 0x40 MLOAD DUP2 PUSH4 0xFFFFFFFF AND PUSH1 0xE0 SHL DUP2 MSTORE PUSH1 0x4 ADD PUSH1 0x20 PUSH1 0x40 MLOAD DUP1 DUP4 SUB DUP2 DUP7 DUP1 EXTCODESIZE ISZERO DUP1 ISZERO PUSH2 0x12E JUMPI PUSH1 0x0 DUP1 REVERT JUMPDEST POP GAS STATICCALL ISZERO DUP1 ISZERO PUSH2 0x142 JUMPI RETURNDATASIZE PUSH1 0x0 DUP1 RETURNDATACOPY RETURNDATASIZE PUSH1 0x0 REVERT JUMPDEST POP POP POP POP PUSH1 0x40 MLOAD RETURNDATASIZE PUSH1 0x20 DUP2 LT ISZERO PUSH2 0x158 JUMPI PUSH1 0x0 DUP1 REVERT JUMPDEST POP MLOAD SWAP1 POP SWAP1 JUMP JUMPDEST CALLDATASIZE PUSH1 0x0 DUP1 CALLDATACOPY PUSH1 0x0 DUP1 CALLDATASIZE PUSH1 0x0 DUP5 GAS DELEGATECALL RETURNDATASIZE PUSH1 0x0 DUP1 RETURNDATACOPY DUP1 DUP1 ISZERO PUSH2 0x17E JUMPI RETURNDATASIZE PUSH1 0x0 RETURN JUMPDEST RETURNDATASIZE PUSH1 0x0 REVERT JUMPDEST PUSH1 0x0 PUSH2 0xA8 PUSH2 0x28F JUMP JUMPDEST PUSH1 0x60 PUSH2 0x198 DUP5 PUSH2 0xE3 JUMP JUMPDEST PUSH2 0x1D3 JUMPI PUSH1 0x40 MLOAD PUSH3 0x461BCD PUSH1 0xE5 SHL DUP2 MSTORE PUSH1 0x4 ADD DUP1 DUP1 PUSH1 0x20 ADD DUP3 DUP2 SUB DUP3 MSTORE PUSH1 0x26 DUP2 MSTORE PUSH1 0x20 ADD DUP1 PUSH2 0x395 PUSH1 0x26 SWAP2 CODECOPY PUSH1 0x40 ADD SWAP2 POP POP PUSH1 0x40 MLOAD DUP1 SWAP2 SUB SWAP1 REVERT JUMPDEST PUSH1 0x0 DUP1 DUP6 PUSH1 0x1 PUSH1 0x1 PUSH1 0xA0 SHL SUB AND DUP6 PUSH1 0x40 MLOAD DUP1 DUP3 DUP1 MLOAD SWAP1 PUSH1 0x20 ADD SWAP1 DUP1 DUP4 DUP4 JUMPDEST PUSH1 0x20 DUP4 LT PUSH2 0x210 JUMPI DUP1 MLOAD DUP3 MSTORE PUSH1 0x1F NOT SWAP1 SWAP3 ADD SWAP2 PUSH1 0x20 SWAP2 DUP3 ADD SWAP2 ADD PUSH2 0x1F1 JUMP JUMPDEST PUSH1 0x1 DUP4 PUSH1 0x20 SUB PUSH2 0x100 EXP SUB DUP1 NOT DUP3 MLOAD AND DUP2 DUP5 MLOAD AND DUP1 DUP3 OR DUP6 MSTORE POP POP POP POP POP POP SWAP1 POP ADD SWAP2 POP POP PUSH1 0x0 PUSH1 0x40 MLOAD DUP1 DUP4 SUB DUP2 DUP6 GAS DELEGATECALL SWAP2 POP POP RETURNDATASIZE DUP1 PUSH1 0x0 DUP2 EQ PUSH2 0x270 JUMPI PUSH1 0x40 MLOAD SWAP2 POP PUSH1 0x1F NOT PUSH1 0x3F RETURNDATASIZE ADD AND DUP3 ADD PUSH1 0x40 MSTORE RETURNDATASIZE DUP3 MSTORE RETURNDATASIZE PUSH1 0x0 PUSH1 0x20 DUP5 ADD RETURNDATACOPY PUSH2 0x275 JUMP JUMPDEST PUSH1 0x60 SWAP2 POP JUMPDEST POP SWAP2 POP SWAP2 POP PUSH2 0x285 DUP3 DUP3 DUP7 PUSH2 0x2C9 JUMP JUMPDEST SWAP7 SWAP6 POP POP POP POP POP POP JUMP JUMPDEST PUSH1 0x0 PUSH2 0x2BA PUSH32 0xA3F0AD74E5423AEBFD80D3EF4346578335A9A72AEAEE59FF6CB3582B35133D50 PUSH2 0xE9 JUMP JUMPDEST SLOAD PUSH1 0x1 PUSH1 0x1 PUSH1 0xA0 SHL SUB AND SWAP1 POP SWAP1 JUMP JUMPDEST PUSH1 0x60 DUP4 ISZERO PUSH2 0x2D8 JUMPI POP DUP2 PUSH2 0xDC JUMP JUMPDEST DUP3 MLOAD ISZERO PUSH2 0x2E8 JUMPI DUP3 MLOAD DUP1 DUP5 PUSH1 0x20 ADD REVERT JUMPDEST DUP2 PUSH1 0x40 MLOAD PUSH3 0x461BCD PUSH1 0xE5 SHL DUP2 MSTORE PUSH1 0x4 ADD DUP1 DUP1 PUSH1 0x20 ADD DUP3 DUP2 SUB DUP3 MSTORE DUP4 DUP2 DUP2 MLOAD DUP2 MSTORE PUSH1 0x20 ADD SWAP2 POP DUP1 MLOAD SWAP1 PUSH1 0x20 ADD SWAP1 DUP1 DUP4 DUP4 PUSH1 0x0 JUMPDEST DUP4 DUP2 LT ISZERO PUSH2 0x332 JUMPI DUP2 DUP2 ADD MLOAD DUP4 DUP3 ADD MSTORE PUSH1 0x20 ADD PUSH2 0x31A JUMP JUMPDEST POP POP POP POP SWAP1 POP SWAP1 DUP2 ADD SWAP1 PUSH1 0x1F AND DUP1 ISZERO PUSH2 0x35F JUMPI DUP1 DUP3 SUB DUP1 MLOAD PUSH1 0x1 DUP4 PUSH1 0x20 SUB PUSH2 0x100 EXP SUB NOT AND DUP2 MSTORE PUSH1 0x20 ADD SWAP2 POP JUMPDEST POP SWAP3 POP POP POP PUSH1 0x40 MLOAD DUP1 SWAP2 SUB SWAP1 REVERT INVALID COINBASE PUSH5 0x6472657373 GASPRICE KECCAK256 PUSH13 0x6F772D6C6576656C2064656C65 PUSH8 0x6174652063616C6C KECCAK256 PUSH7 0x61696C65644164 PUSH5 0x726573733A KECCAK256 PUSH5 0x656C656761 PUSH21 0x652063616C6C20746F206E6F6E2D636F6E74726163 PUSH21 0xA26469706673582212209140E03FCC039E1369CDF0 SLOAD CALL 0xCB MSIZE PUSH29 0xE755A741C8C8A47EDC66203D357DED6764736F6C634300070600334552 NUMBER BALANCE CODECOPY CALLDATASIZE CALLDATACOPY GASPRICE KECCAK256 PUSH15 0x657720626561636F6E206973206E6F PUSH21 0x206120636F6E7472616374416464726573733A206C PUSH16 0x772D6C6576656C2064656C6567617465 KECCAK256 PUSH4 0x616C6C20 PUSH7 0x61696C65644164 PUSH5 0x726573733A KECCAK256 PUSH5 0x656C656761 PUSH21 0x652063616C6C20746F206E6F6E2D636F6E74726163 PUSH21 0x455243313936373A20626561636F6E20696D706C65 PUSH14 0x656E746174696F6E206973206E6F PUSH21 0x206120636F6E747261637445524331393637557067 PUSH19 0x6164653A207570677261646520627265616B73 KECCAK256 PUSH7 0x75727468657220 PUSH22 0x70677261646573455243313936373A206E657720696D PUSH17 0x6C656D656E746174696F6E206973206E6F PUSH21 0x206120636F6E7472616374416464726573733A206C PUSH16 0x772D6C6576656C2064656C6567617465 KECCAK256 PUSH4 0x616C6C20 PUSH7 0x61696C65644164 PUSH5 0x726573733A KECCAK256 PUSH5 0x656C656761 PUSH21 0x652063616C6C20746F206E6F6E2D636F6E74726163 PUSH21 0xA2646970667358221220717E3D2C82B55A28674C5A XOR 0x4E SWAP10 PUSH30 0xA1E0BAC90890B94A0CDB16AC5FDD3AE94564736F6C634300070600330000 ","sha1":"ad09dbb47a1c3bed82c517b7dbecbecde642b350","source":"// SPDX-License-Identifier: BSUL-1.1\npragma solidity =0.7.6;\npragma abicoder v2;\n\nimport {\n    CashGroupSettings,\n    TokenStorage,\n    ETHRateStorage,\n    InterestRateCurveSettings,\n    Token\n} from \"../../global/Types.sol\";\nimport {StorageLayoutV2} from \"../../global/StorageLayoutV2.sol\";\nimport {LibStorage} from \"../../global/LibStorage.sol\";\nimport {Constants} from \"../../global/Constants.sol\";\nimport {Deployments} from \"../../global/Deployments.sol\";\nimport {SafeUint256} from \"../../math/SafeUint256.sol\";\n\nimport {ExchangeRate} from \"../../internal/valuation/ExchangeRate.sol\";\nimport {CashGroup} from \"../../internal/markets/CashGroup.sol\";\nimport {nTokenHandler} from \"../../internal/nToken/nTokenHandler.sol\";\nimport {nTokenSupply} from \"../../internal/nToken/nTokenSupply.sol\";\nimport {TokenHandler} from \"../../internal/balances/TokenHandler.sol\";\nimport {BalanceHandler} from \"../../internal/balances/BalanceHandler.sol\";\nimport {PrimeCashExchangeRate} from \"../../internal/pCash/PrimeCashExchangeRate.sol\";\nimport {InterestRateCurve} from \"../../internal/markets/InterestRateCurve.sol\";\n\nimport \"@openzeppelin/contracts/utils/Address.sol\";\nimport {ActionGuards} from \"./ActionGuards.sol\";\n\n// Proxies\nimport {UUPSUpgradeable} from \"../../proxy/utils/UUPSUpgradeable.sol\";\nimport {nBeaconProxy} from \"../../proxy/nBeaconProxy.sol\";\nimport {IUpgradeableBeacon} from \"../../proxy/beacon/IBeacon.sol\";\n\n// Interfaces\nimport {IRewarder} from \"../../../interfaces/notional/IRewarder.sol\";\nimport {AggregatorV2V3Interface} from \"../../../interfaces/chainlink/AggregatorV2V3Interface.sol\";\nimport {NotionalGovernance} from \"../../../interfaces/notional/NotionalGovernance.sol\";\nimport {IPrimeCashHoldingsOracle} from \"../../../interfaces/notional/IPrimeCashHoldingsOracle.sol\";\n\n/// @notice Governance methods can only be called by the governance contract\ncontract GovernanceAction is StorageLayoutV2, NotionalGovernance, UUPSUpgradeable, ActionGuards {\n\n    /// @notice Transfers ownership to `newOwner`. Either directly or claimable by the new pending owner.\n    /// Can only be invoked by the current `owner`.\n    /// @param newOwner Address of the new owner.\n    /// @param direct True if `newOwner` should be set immediately. False if `newOwner` needs to use `claimOwnership`.\n    function transferOwnership(\n        address newOwner,\n        bool direct\n    ) external override onlyOwner {\n        if (direct) {\n            // Checks\n            require(newOwner != address(0), \"Ownable: zero address\");\n\n            // Effects\n            emit OwnershipTransferred(owner, newOwner);\n            owner = newOwner;\n            pendingOwner = address(0);\n        } else {\n            // Effects\n            pendingOwner = newOwner;\n        }\n    }\n\n    /// @notice Needs to be called by `pendingOwner` to claim ownership.\n    function claimOwnership() external override {\n        address _pendingOwner = pendingOwner;\n\n        // Checks\n        require(msg.sender == _pendingOwner, \"Ownable: caller != pending owner\");\n\n        // Effects\n        emit OwnershipTransferred(owner, _pendingOwner);\n        owner = _pendingOwner;\n        pendingOwner = address(0);\n    }\n\n    /// @dev Only the owner may upgrade the contract, the pauseGuardian may downgrade the contract\n    /// to a predetermined router contract that provides read only access to the system.\n    function _authorizeUpgrade(address newImplementation) internal override {\n        require(\n            owner == msg.sender ||\n            (msg.sender == pauseGuardian && newImplementation == pauseRouter),\n            \"Unauthorized upgrade\"\n        );\n\n        // This is set temporarily during a downgrade to the pauseRouter so that the upgrade\n        // will pass _authorizeUpgrade on the pauseRouter during the UUPSUpgradeable rollback check\n        if (newImplementation == pauseRouter) rollbackRouterImplementation = _getImplementation();\n    }\n\n    /// @notice Allows Notional governance to upgrade various Beacon proxies external to the system\n    function upgradeBeacon(Deployments.BeaconType proxy, address newBeacon) external override onlyOwner {\n        IUpgradeableBeacon beacon;\n        if (proxy == Deployments.BeaconType.NTOKEN) {\n            beacon = Deployments.NTOKEN_BEACON;\n        } else if (proxy == Deployments.BeaconType.PCASH) {\n            beacon = Deployments.PCASH_BEACON;\n        } else if (proxy == Deployments.BeaconType.PDEBT) {\n            beacon = Deployments.PDEBT_BEACON;\n        } else if (proxy == Deployments.BeaconType.WRAPPED_FCASH) {\n            beacon = Deployments.WRAPPED_FCASH_BEACON;\n        } else {\n            revert();\n        }\n\n        beacon.upgradeTo(newBeacon);\n    }\n\n    /// @notice Sets a new pause router and guardian address.\n    function setPauseRouterAndGuardian(\n        address pauseRouter_,\n        address pauseGuardian_\n    ) external override onlyOwner {\n        pauseRouter = pauseRouter_;\n        pauseGuardian = pauseGuardian_;\n\n        emit PauseRouterAndGuardianUpdated(pauseRouter_, pauseGuardian_);\n    }\n\n    /// @notice Lists a new currency along with its exchange rate to ETH\n    /// @dev emit:ListCurrency emit:UpdateETHRate\n    /// @param underlyingToken the underlying token (if asset token is an interest bearing wrapper)\n    /// @return the new currency id\n    function listCurrency(\n        TokenStorage calldata underlyingToken,\n        ETHRateStorage memory ethRate,\n        InterestRateCurveSettings calldata primeDebtCurve,\n        IPrimeCashHoldingsOracle primeCashHoldingsOracle,\n        bool allowPrimeCashDebt,\n        uint8 rateOracleTimeWindow5Min,\n        string calldata underlyingName,\n        string calldata underlyingSymbol\n    ) external override onlyOwner returns (uint16) {\n        uint16 currencyId = maxCurrencyId + 1;\n        // Set the new max currency id\n        maxCurrencyId = currencyId;\n        require(currencyId <= Constants.MAX_CURRENCIES);\n        require(tokenAddressToCurrencyId[underlyingToken.tokenAddress] == 0); // dev: duplicate listing\n        tokenAddressToCurrencyId[underlyingToken.tokenAddress] = currencyId;\n\n        // NOTE: set token will enforce the restriction that Ether can only be set once as the zero\n        // address. This sets the underlying token\n        TokenHandler.setToken(currencyId, underlyingToken);\n\n        // rateDecimalPlaces will be set inside this method\n        _updateETHRate(currencyId, ethRate);\n\n        // Since we use internal balance tracking to mitigate donation type exploits,\n        // the first time a prime cash curve is initialized we have to set the initial\n        // balances in order to get currentTotalUnderlying.\n        PrimeCashExchangeRate.initTokenBalanceStorage(currencyId, primeCashHoldingsOracle);\n\n        // This must return some positive amount of the given token in order to initialize\n        // the total supply value\n        (/* */, uint256 initialPrimeSupply) = primeCashHoldingsOracle\n            .getTotalUnderlyingValueStateful();\n\n        PrimeCashExchangeRate.initPrimeCashCurve(\n            currencyId,\n            SafeUint256.toUint88(initialPrimeSupply),\n            primeDebtCurve,\n            primeCashHoldingsOracle,\n            allowPrimeCashDebt,\n            rateOracleTimeWindow5Min\n        );\n\n        bytes memory initCallData = abi.encodeWithSignature(\n            \"initialize(uint16,address,string,string)\",\n            currencyId,\n            underlyingToken.tokenAddress, \n            underlyingName,\n            underlyingSymbol\n        );\n\n        // A beacon proxy gets its implementation via the UpgradeableBeacon set here.\n        nBeaconProxy cashProxy = new nBeaconProxy(address(Deployments.PCASH_BEACON), initCallData);\n        PrimeCashExchangeRate.setProxyAddress({\n            currencyId: currencyId, proxy: address(cashProxy), isCashProxy: true\n        });\n\n        if (allowPrimeCashDebt) {\n            nBeaconProxy debtProxy = new nBeaconProxy(address(Deployments.PDEBT_BEACON), initCallData);\n            PrimeCashExchangeRate.setProxyAddress({\n                currencyId: currencyId, proxy: address(debtProxy), isCashProxy: false\n            });\n        }\n\n        // Set the reserve cash balance to the initial donation, must be done after proxies are set\n        // no overflow possible due to toUint88 check above\n        BalanceHandler.setReserveCashBalance(currencyId, int256(initialPrimeSupply));\n\n        emit ListCurrency(currencyId);\n\n        return currencyId;\n    }\n\n    /// @notice Enables a cash group on a given currency so that it can have lend and borrow markets. Will\n    /// also deploy an nToken contract so that markets can be initialized.\n    /// @dev emit:UpdateCashGroup emit:UpdateAssetRate emit:DeployNToken\n    /// @param currencyId id of the currency to enable\n    /// @param cashGroup parameters for the cash group\n    /// @param underlyingName underlying token name for seeding nToken name\n    /// @param underlyingSymbol underlying token symbol for seeding nToken symbol (i.e. nDAI)\n    function enableCashGroup(\n        uint16 currencyId,\n        CashGroupSettings calldata cashGroup,\n        string calldata underlyingName,\n        string calldata underlyingSymbol\n    ) external override onlyOwner {\n        _checkValidCurrency(currencyId);\n        _updateCashGroup(currencyId, cashGroup);\n\n        Token memory underlyingToken = TokenHandler.getUnderlyingToken(currencyId);\n\n        // This must be set to true to enable cash groups.\n        require(PrimeCashExchangeRate.doesAllowPrimeDebt(currencyId));\n\n        // Creates the nToken erc20 proxy that routes back to the main contract\n        bytes memory initCallData = abi.encodeWithSignature(\n            \"initialize(uint16,address,string,string)\",\n            currencyId,\n            underlyingToken.tokenAddress,\n            underlyingName,\n            underlyingSymbol\n        );\n\n        // A beacon proxy gets its implementation via the UpgradeableBeacon set here.\n        nBeaconProxy proxy = new nBeaconProxy(address(Deployments.NTOKEN_BEACON), initCallData);\n        nTokenHandler.setNTokenAddress(currencyId, address(proxy));\n\n        emit DeployNToken(currencyId, address(proxy));\n    }\n\n    /**\n     * @notice Sets the prime cash supply and debt caps for a given currency\n     * @param currencyId id of the currency\n     * @param maxUnderlyingSupply the maximum total supply of prime cash in underlying terms\n     * and 8 decimal precision. A value of zero means no cap.\n     * @param maxPrimeDebtUtilization the max utilization in PERCENTAGE_DECIMALS for prime\n     * debt. A value of zero means no cap.\n     */\n    function setMaxUnderlyingSupply(\n        uint16 currencyId,\n        uint256 maxUnderlyingSupply,\n        uint8 maxPrimeDebtUtilization\n    ) external override onlyOwner {\n        uint256 unpackedSupply = PrimeCashExchangeRate.setMaxUnderlyingSupply(\n            currencyId,\n            maxUnderlyingSupply,\n            maxPrimeDebtUtilization\n        );\n        emit UpdateMaxUnderlyingSupply(currencyId, unpackedSupply);\n    }\n\n    function updatePrimeCashHoldingsOracle(\n        uint16 currencyId,\n        IPrimeCashHoldingsOracle primeCashHoldingsOracle\n    ) external override onlyOwner {\n        PrimeCashExchangeRate.updatePrimeCashHoldingsOracle(currencyId, primeCashHoldingsOracle);\n    }\n\n    function updatePrimeCashCurve(\n        uint16 currencyId,\n        InterestRateCurveSettings calldata primeDebtCurve\n    ) external override onlyOwner {\n        PrimeCashExchangeRate.updatePrimeCashCurve(currencyId, primeDebtCurve);\n    }\n\n    function enablePrimeDebt(\n        uint16 currencyId,\n        string calldata underlyingName,\n        string calldata underlyingSymbol\n    ) external override onlyOwner {\n        PrimeCashExchangeRate.allowPrimeDebt(currencyId);\n\n        // Deploy the prime debt proxy\n        Token memory underlyingToken = TokenHandler.getUnderlyingToken(currencyId);\n\n        bytes memory initCallData = abi.encodeWithSignature(\n            \"initialize(uint16,address,string,string)\",\n            currencyId,\n            underlyingToken.tokenAddress, \n            underlyingName,\n            underlyingSymbol\n        );\n\n        nBeaconProxy debtProxy = new nBeaconProxy(address(Deployments.PDEBT_BEACON), initCallData);\n        PrimeCashExchangeRate.setProxyAddress({\n            currencyId: currencyId, proxy: address(debtProxy), isCashProxy: false\n        });\n    }\n\n    /// @notice Updates the deposit parameters for an nToken\n    /// @dev emit:UpdateDepositParameters\n    /// @param currencyId the currency id that the nToken references\n    /// @param depositShares an array of values that represent the proportion of each deposit\n    /// that will go to a respective market, must add up to DEPOSIT_PERCENT_BASIS. For example,\n    /// 0.40e8, 0.40e8 and 0.20e8 will result in 40%, 40% and 20% deposited as liquidity into\n    /// the 3 month, 6 month and 1 year markets.\n    /// @param leverageThresholds an array of values denominated in RATE_PRECISION that mark the\n    /// highest proportion of fCash where the nToken will provide liquidity. Above this proportion,\n    /// the nToken will lend to the market instead to reduce the leverage in the market.\n    function updateDepositParameters(\n        uint16 currencyId,\n        uint32[] calldata depositShares,\n        uint32[] calldata leverageThresholds\n    ) external override onlyOwner {\n        _checkValidCurrency(currencyId);\n        nTokenHandler.setDepositParameters(currencyId, depositShares, leverageThresholds);\n        emit UpdateDepositParameters(currencyId);\n    }\n\n    /// @notice Updates the interest rate curve parameters that will take effect after the next market\n    /// initialization.\n    /// @dev emit:UpdateInterestRateCurve\n    /// @param currencyId the currency id to update\n    /// @param marketIndices a list of market indices to update the settings for\n    /// @param settings the settings for the interest rate curve that will be set on the next\n    /// market initialization for the interest rate curve, corresponding to the marketIndices\n    function updateInterestRateCurve(\n        uint16 currencyId,\n        uint8[] calldata marketIndices,\n        InterestRateCurveSettings[] calldata settings\n    ) external override onlyOwner {\n        _checkValidCurrency(currencyId);\n        uint8 maxMarketIndex = CashGroup.getMaxMarketIndex(currencyId);\n        require(marketIndices.length == settings.length);\n\n        for (uint256 i = 0; i < marketIndices.length; i++) {\n            require(0 < marketIndices[i]);\n            require(marketIndices[i] <= maxMarketIndex);\n            // Require that marketIndices are sorted so that we do not get\n            // any duplicates on accident.\n            if (i > 0) require(marketIndices[i - 1] < marketIndices[i]);\n\n            InterestRateCurve.setNextInterestRateParameters(\n                currencyId,\n                marketIndices[i],\n                settings[i]\n            );\n\n            emit UpdateInterestRateCurve(currencyId, marketIndices[i]);\n        }\n    }\n\n    /// @notice Updates the market initialization parameters for an nToken\n    /// @dev emit:UpdateInitializationParameters\n    /// @param currencyId the currency id that the nToken references\n    /// @param annualizedAnchorRates is a target interest rate that will be used to calculate a \n    /// rate anchor during initialize markets. This rate anchor will set the offset from the\n    /// x-axis where the liquidity curve will be initialized. This is used in combination with\n    /// previous market rates to determine the initial proportion where markets will be initialized\n    /// every quarter.\n    /// @param proportions used to combination with annualizedAnchorRate set the initial proportion when\n    /// a market is first initialized. This is required since there is no previous rate to reference.\n    function updateInitializationParameters(\n        uint16 currencyId,\n        uint32[] calldata annualizedAnchorRates,\n        uint32[] calldata proportions\n    ) external override onlyOwner {\n        _checkValidCurrency(currencyId);\n        nTokenHandler.setInitializationParameters(currencyId, annualizedAnchorRates, proportions);\n        emit UpdateInitializationParameters(currencyId);\n    }\n\n    /// @notice Updates collateralization parameters for an nToken\n    /// @dev emit:UpdateTokenCollateralParameters\n    /// @param currencyId the currency id that the nToken references\n    /// @param residualPurchaseIncentive10BPS nTokens will have residual amounts of fCash at the end of each\n    /// quarter that are \"dead weight\" because they are at idiosyncratic maturities and do not contribute to\n    /// actively providing liquidity. This parameter will incentivize market participants to purchase these residuals\n    /// at a discount from the on chain oracle rate, denominated in 10 basis point increments. These residuals will\n    /// be added back into nToken balances and will be used to provide liquidity upon the next market initialization.\n    /// @param pvHaircutPercentage a percentage (< 100) that the present value of the nToken's assets will be valued\n    /// at for the purposes of free collateral, relevant when accounts hold nTokens as collateral against debts.\n    /// @param residualPurchaseTimeBufferHours an arbitrage opportunity is available by pushing markets in one direction\n    /// before quarterly settlement to generate large residual balances that can be purchased at a discount. The time buffer\n    /// here ensures that anyone attempting such an act would have to wait some number of hours (likely a few days) before\n    /// they could attempt to purchase residuals, ensuring that the market could realign to rates where the arbitrage is\n    /// no longer possible.\n    /// @param cashWithholdingBuffer10BPS nToken residuals may be negative fCash (debt), in this case cash is withheld to\n    /// transfer to accounts that take on the debt. This parameter denominates the discounted rate at which the cash will\n    /// be withheld at for this purpose.\n    /// @param liquidationHaircutPercentage a percentage of nToken present value (> pvHaircutPercentage and <= 100) at which\n    /// liquidators will purchase nTokens during liquidation\n    /// @param maxMintDeviation5BPS a limit on the deviation from the oracle rate valuation of the nToken during minting,\n    /// cannot be greater than the difference between the liquidationHaircutPercentage and the pvHaircutPercentage\n    function updateTokenCollateralParameters(\n        uint16 currencyId,\n        uint8 residualPurchaseIncentive10BPS,\n        uint8 pvHaircutPercentage,\n        uint8 residualPurchaseTimeBufferHours,\n        uint8 cashWithholdingBuffer10BPS,\n        uint8 liquidationHaircutPercentage,\n        uint8 maxMintDeviation5BPS\n    ) external override onlyOwner {\n        _checkValidCurrency(currencyId);\n        address nTokenAddress = nTokenHandler.nTokenAddress(currencyId);\n        require(nTokenAddress != address(0));\n\n        nTokenHandler.setNTokenCollateralParameters(\n            nTokenAddress,\n            residualPurchaseIncentive10BPS,\n            pvHaircutPercentage,\n            residualPurchaseTimeBufferHours,\n            cashWithholdingBuffer10BPS,\n            liquidationHaircutPercentage,\n            maxMintDeviation5BPS\n        );\n        emit UpdateTokenCollateralParameters(currencyId);\n    }\n\n    /// @notice Updates cash group parameters\n    /// @dev emit:UpdateCashGroup\n    /// @param currencyId id of the currency to enable\n    /// @param cashGroup new parameters for the cash group\n    function updateCashGroup(uint16 currencyId, CashGroupSettings calldata cashGroup)\n        external\n        override\n        onlyOwner\n    {\n        _checkValidCurrency(currencyId);\n        _updateCashGroup(currencyId, cashGroup);\n    }\n\n    /// @notice Updates ETH exchange rate or related parameters\n    /// @dev emit:UpdateETHRate\n    /// @param currencyId id of the currency\n    /// @param rateOracle new rate oracle for the asset\n    /// @param rateOracle ETH to underlying rate oracle\n    /// @param mustInvert if the rate from the oracle needs to be inverted\n    /// @param buffer multiplier (>= 100) for negative balances when calculating free collateral\n    /// @param haircut multiplier (<= 100) for positive balances when calculating free collateral\n    /// @param liquidationDiscount multiplier (>= 100) for exchange rate when liquidating\n    function updateETHRate(\n        uint16 currencyId,\n        AggregatorV2V3Interface rateOracle,\n        bool mustInvert,\n        uint8 buffer,\n        uint8 haircut,\n        uint8 liquidationDiscount\n    ) external override onlyOwner {\n        _checkValidCurrency(currencyId);\n        _updateETHRate(\n            currencyId,\n            ETHRateStorage({\n                rateOracle: rateOracle,\n                mustInvert: mustInvert,\n                buffer: buffer,\n                haircut: haircut,\n                liquidationDiscount: liquidationDiscount,\n                rateDecimalPlaces: 0 // This will be set inside updateETHRate\n            })\n        );\n    }\n\n    /// @notice Approves contracts that can call `batchTradeActionWithCallback`. These contracts can\n    /// \"flash loan\" from Notional V2 and receive a callback before the free collateral check. Flash loans\n    /// via the Notional V2 liquidity pool are not very gas efficient so this is not generally available,\n    /// it can be used for migrating borrows into Notional V2 from other platforms.\n    /// @dev emit:UpdateAuthorizedCallbackContract\n    /// @param operator address of the contract\n    /// @param approved true if the contract is authorized\n    function updateAuthorizedCallbackContract(address operator, bool approved)\n        external\n        override\n        onlyOwner\n    {\n        // Sanity check to ensure that operator is a contract, not an EOA\n        require(Address.isContract(operator));\n        authorizedCallbackContract[operator] = approved;\n        emit UpdateAuthorizedCallbackContract(operator, approved);\n    }\n\n    function _updateCashGroup(uint16 currencyId, CashGroupSettings calldata cashGroup) internal {\n        CashGroup.setCashGroupStorage(currencyId, cashGroup);\n        emit UpdateCashGroup(currencyId);\n    }\n\n    function _updateETHRate(\n        uint16 currencyId,\n        ETHRateStorage memory ethRate\n    ) internal {\n        if (currencyId == Constants.ETH_CURRENCY_ID) {\n            // ETH to ETH exchange rate is fixed at 1 and has no rate oracle\n            ethRate.rateOracle = AggregatorV2V3Interface(address(0));\n            ethRate.rateDecimalPlaces = Constants.ETH_DECIMAL_PLACES;\n        } else {\n            require(address(ethRate.rateOracle) != address(0));\n            ethRate.rateDecimalPlaces = ethRate.rateOracle.decimals();\n        }\n        require(ethRate.buffer >= Constants.PERCENTAGE_DECIMALS);\n        require(ethRate.haircut <= Constants.PERCENTAGE_DECIMALS);\n        require(ethRate.liquidationDiscount > Constants.PERCENTAGE_DECIMALS);\n\n        // Perform this check to ensure that decimal calculations don't overflow\n        require(ethRate.rateDecimalPlaces <= Constants.MAX_DECIMAL_PLACES);\n        mapping(uint256 => ETHRateStorage) storage store = LibStorage.getExchangeRateStorage();\n        store[currencyId] = ethRate;\n\n        emit UpdateETHRate(currencyId);\n    }\n}\n","sourcePath":"contracts/external/actions/GovernanceAction.sol","type":"contract","deployment":{"address":"0x1EFB54fCB9D0D3A4f276ACBeA85Ed4b114D621AB","chainid":"5","blockHeight":10592167}}