{"abi":[{"inputs":[{"internalType":"address","name":"_notional","type":"address"},{"internalType":"address","name":"_manager","type":"address"}],"stateMutability":"nonpayable","type":"constructor","name":"constructor"},{"inputs":[],"name":"NOTIONAL","outputs":[{"internalType":"contract NotionalProxy","name":"","type":"address"}],"stateMutability":"view","type":"function"},{"inputs":[],"name":"NOTIONAL_MANAGER","outputs":[{"internalType":"address","name":"","type":"address"}],"stateMutability":"view","type":"function"},{"inputs":[{"internalType":"uint256","name":"currencyId","type":"uint256"}],"name":"getCurrencySettings","outputs":[{"components":[{"components":[{"internalType":"uint8","name":"kinkUtilization1","type":"uint8"},{"internalType":"uint8","name":"kinkUtilization2","type":"uint8"},{"internalType":"uint8","name":"kinkRate1","type":"uint8"},{"internalType":"uint8","name":"kinkRate2","type":"uint8"},{"internalType":"uint8","name":"maxRateUnits","type":"uint8"},{"internalType":"uint8","name":"minFeeRate5BPS","type":"uint8"},{"internalType":"uint8","name":"maxFeeRate25BPS","type":"uint8"},{"internalType":"uint8","name":"feeRatePercent","type":"uint8"}],"internalType":"struct InterestRateCurveSettings","name":"primeDebtCurve","type":"tuple"},{"internalType":"contract IPrimeCashHoldingsOracle","name":"primeCashOracle","type":"address"},{"components":[{"internalType":"uint8","name":"maxMarketIndex","type":"uint8"},{"internalType":"uint8","name":"rateOracleTimeWindow5Min","type":"uint8"},{"internalType":"uint8","name":"maxDiscountFactor5BPS","type":"uint8"},{"internalType":"uint8","name":"reserveFeeShare","type":"uint8"},{"internalType":"uint8","name":"debtBuffer25BPS","type":"uint8"},{"internalType":"uint8","name":"fCashHaircut25BPS","type":"uint8"},{"internalType":"uint8","name":"minOracleRate25BPS","type":"uint8"},{"internalType":"uint8","name":"liquidationfCashHaircut25BPS","type":"uint8"},{"internalType":"uint8","name":"liquidationDebtBuffer25BPS","type":"uint8"},{"internalType":"uint8","name":"maxOracleRate25BPS","type":"uint8"}],"internalType":"struct CashGroupSettings","name":"cashGroupSettings","type":"tuple"},{"internalType":"uint8","name":"rateOracleTimeWindow5Min","type":"uint8"},{"internalType":"bool","name":"allowPrimeDebt","type":"bool"},{"internalType":"string","name":"underlyingName","type":"string"},{"internalType":"string","name":"underlyingSymbol","type":"string"},{"components":[{"internalType":"uint8","name":"kinkUtilization1","type":"uint8"},{"internalType":"uint8","name":"kinkUtilization2","type":"uint8"},{"internalType":"uint8","name":"kinkRate1","type":"uint8"},{"internalType":"uint8","name":"kinkRate2","type":"uint8"},{"internalType":"uint8","name":"maxRateUnits","type":"uint8"},{"internalType":"uint8","name":"minFeeRate5BPS","type":"uint8"},{"internalType":"uint8","name":"maxFeeRate25BPS","type":"uint8"},{"internalType":"uint8","name":"feeRatePercent","type":"uint8"}],"internalType":"struct InterestRateCurveSettings[]","name":"fCashCurves","type":"tuple[]"},{"components":[{"internalType":"uint40","name":"maturity","type":"uint40"},{"internalType":"uint80","name":"totalfCashDebt","type":"uint80"}],"internalType":"struct TotalfCashDebt[]","name":"fCashDebts","type":"tuple[]"}],"internalType":"struct CurrencySettings","name":"","type":"tuple"}],"stateMutability":"view","type":"function"},{"inputs":[{"internalType":"uint16","name":"currencyId","type":"uint16"},{"internalType":"bool","name":"checkRateDiff","type":"bool"}],"name":"getfCashCurveUpdate","outputs":[{"components":[{"internalType":"uint8","name":"kinkUtilization1","type":"uint8"},{"internalType":"uint8","name":"kinkUtilization2","type":"uint8"},{"internalType":"uint8","name":"kinkRate1","type":"uint8"},{"internalType":"uint8","name":"kinkRate2","type":"uint8"},{"internalType":"uint8","name":"maxRateUnits","type":"uint8"},{"internalType":"uint8","name":"minFeeRate5BPS","type":"uint8"},{"internalType":"uint8","name":"maxFeeRate25BPS","type":"uint8"},{"internalType":"uint8","name":"feeRatePercent","type":"uint8"}],"internalType":"struct InterestRateCurveSettings[]","name":"finalCurves","type":"tuple[]"},{"internalType":"uint256[]","name":"finalRates","type":"uint256[]"}],"stateMutability":"view","type":"function"},{"inputs":[{"internalType":"uint256","name":"currencyId","type":"uint256"},{"components":[{"components":[{"internalType":"uint8","name":"kinkUtilization1","type":"uint8"},{"internalType":"uint8","name":"kinkUtilization2","type":"uint8"},{"internalType":"uint8","name":"kinkRate1","type":"uint8"},{"internalType":"uint8","name":"kinkRate2","type":"uint8"},{"internalType":"uint8","name":"maxRateUnits","type":"uint8"},{"internalType":"uint8","name":"minFeeRate5BPS","type":"uint8"},{"internalType":"uint8","name":"maxFeeRate25BPS","type":"uint8"},{"internalType":"uint8","name":"feeRatePercent","type":"uint8"}],"internalType":"struct InterestRateCurveSettings","name":"primeDebtCurve","type":"tuple"},{"internalType":"contract IPrimeCashHoldingsOracle","name":"primeCashOracle","type":"address"},{"components":[{"internalType":"uint8","name":"maxMarketIndex","type":"uint8"},{"internalType":"uint8","name":"rateOracleTimeWindow5Min","type":"uint8"},{"internalType":"uint8","name":"maxDiscountFactor5BPS","type":"uint8"},{"internalType":"uint8","name":"reserveFeeShare","type":"uint8"},{"internalType":"uint8","name":"debtBuffer25BPS","type":"uint8"},{"internalType":"uint8","name":"fCashHaircut25BPS","type":"uint8"},{"internalType":"uint8","name":"minOracleRate25BPS","type":"uint8"},{"internalType":"uint8","name":"liquidationfCashHaircut25BPS","type":"uint8"},{"internalType":"uint8","name":"liquidationDebtBuffer25BPS","type":"uint8"},{"internalType":"uint8","name":"maxOracleRate25BPS","type":"uint8"}],"internalType":"struct CashGroupSettings","name":"cashGroupSettings","type":"tuple"},{"internalType":"uint8","name":"rateOracleTimeWindow5Min","type":"uint8"},{"internalType":"bool","name":"allowPrimeDebt","type":"bool"},{"internalType":"string","name":"underlyingName","type":"string"},{"internalType":"string","name":"underlyingSymbol","type":"string"},{"components":[{"internalType":"uint8","name":"kinkUtilization1","type":"uint8"},{"internalType":"uint8","name":"kinkUtilization2","type":"uint8"},{"internalType":"uint8","name":"kinkRate1","type":"uint8"},{"internalType":"uint8","name":"kinkRate2","type":"uint8"},{"internalType":"uint8","name":"maxRateUnits","type":"uint8"},{"internalType":"uint8","name":"minFeeRate5BPS","type":"uint8"},{"internalType":"uint8","name":"maxFeeRate25BPS","type":"uint8"},{"internalType":"uint8","name":"feeRatePercent","type":"uint8"}],"internalType":"struct InterestRateCurveSettings[]","name":"fCashCurves","type":"tuple[]"},{"components":[{"internalType":"uint40","name":"maturity","type":"uint40"},{"internalType":"uint80","name":"totalfCashDebt","type":"uint80"}],"internalType":"struct TotalfCashDebt[]","name":"fCashDebts","type":"tuple[]"}],"internalType":"struct CurrencySettings","name":"settings","type":"tuple"}],"name":"setMigrationSettings","outputs":[],"stateMutability":"nonpayable","type":"function"},{"inputs":[{"internalType":"uint256","name":"currencyId","type":"uint256"},{"components":[{"internalType":"uint40","name":"maturity","type":"uint40"},{"internalType":"uint80","name":"totalfCashDebt","type":"uint80"}],"internalType":"struct TotalfCashDebt[]","name":"fCashDebts","type":"tuple[]"}],"name":"updateTotalfCashDebt","outputs":[],"stateMutability":"nonpayable","type":"function"}],"bytecode":"60c06040523480156200001157600080fd5b5060405162002d0b38038062002d0b833981016040819052620000349162000070565b6001600160601b0319606092831b8116608052911b1660a052620000a7565b80516001600160a01b03811681146200006b57600080fd5b919050565b6000806040838503121562000083578182fd5b6200008e8362000053565b91506200009e6020840162000053565b90509250929050565b60805160601c60a05160601c612c26620000e5600039806108465280610e265280610e7752508061064d52806106da5280610e4a5250612c266000f3fe608060405234801561001057600080fd5b50600436106100625760003560e01c80632188691d14610067578063689954e1146100915780637fb9cb12146100a6578063858dccb3146100bb578063e8d0984e146100c3578063eb8457ba146100d6575b600080fd5b61007a610075366004612514565b6100f6565b60405161008892919061291b565b60405180910390f35b6100a461009f3660046125af565b61083b565b005b6100ae610e24565b6040516100889190612907565b6100ae610e48565b6100a46100d136600461256a565b610e6c565b6100e96100e4366004612552565b610f7d565b6040516100889190612a84565b60608060008060008661ffff1681526020019081526020016000206040518061012001604052908160008201604051806101000160405290816000820160009054906101000a900460ff1660ff1660ff1681526020016000820160019054906101000a900460ff1660ff1660ff1681526020016000820160029054906101000a900460ff1660ff1660ff1681526020016000820160039054906101000a900460ff1660ff1660ff1681526020016000820160049054906101000a900460ff1660ff1660ff1681526020016000820160059054906101000a900460ff1660ff1660ff1681526020016000820160069054906101000a900460ff1660ff1660ff1681526020016000820160079054906101000a900460ff1660ff1660ff168152505081526020016001820160009054906101000a90046001600160a01b03166001600160a01b03166001600160a01b0316815260200160028201604051806101400160405290816000820160009054906101000a900460ff1660ff1660ff1681526020016000820160019054906101000a900460ff1660ff1660ff1681526020016000820160029054906101000a900460ff1660ff1660ff1681526020016000820160039054906101000a900460ff1660ff1660ff1681526020016000820160049054906101000a900460ff1660ff1660ff1681526020016000820160059054906101000a900460ff1660ff1660ff1681526020016000820160069054906101000a900460ff1660ff1660ff1681526020016000820160079054906101000a900460ff1660ff1660ff1681526020016000820160089054906101000a900460ff1660ff1660ff1681526020016000820160099054906101000a900460ff1660ff1660ff168152505081526020016003820160009054906101000a900460ff1660ff1660ff1681526020016003820160019054906101000a900460ff16151515158152602001600482018054600181600116156101000203166002900480601f0160208091040260200160405190810160405280929190818152602001828054600181600116156101000203166002900480156104515780601f1061042657610100808354040283529160200191610451565b820191906000526020600020905b81548152906001019060200180831161043457829003601f168201915b505050918352505060058201805460408051602060026001851615610100026000190190941693909304601f81018490048402820184019092528181529382019392918301828280156104e55780601f106104ba576101008083540402835291602001916104e5565b820191906000526020600020905b8154815290600101906020018083116104c857829003601f168201915b5050505050815260200160068201805480602002602001604051908101604052809291908181526020016000905b828210156105af5760008481526020908190206040805161010080820183529286015460ff80821683529381048416828601526201000081048416928201929092526301000000820483166060820152640100000000820483166080820152600160281b8204831660a082015266010000000000008204831660c0820152600160381b90910490911660e0820152825260019092019101610513565b50505050815260200160078201805480602002602001604051908101604052809291908181526020016000905b82821015610629576000848152602090819020604080518082019091529084015464ffffffffff81168252600160281b90046001600160501b0316818301528252600190920191016105dc565b505050915250506040516373a5b72760e11b81529091506000906001600160a01b037f0000000000000000000000000000000000000000000000000000000000000000169063e74b6e4e90610682908990600401612b6a565b6101006040518083038186803b15801561069b57600080fd5b505afa1580156106af573d6000803e3d6000fd5b505050506040513d601f19601f820116820180604052508101906106d39190612458565b91505060007f00000000000000000000000000000000000000000000000000000000000000006001600160a01b031663497cf7e3886040518263ffffffff1660e01b81526004016107249190612b6a565b60006040518083038186803b15801561073c57600080fd5b505afa158015610750573d6000803e3d6000fd5b505050506040513d6000823e601f3d908101601f191682016040526107789190810190612338565b6020830151835191925060ff600a91820116900a906000906001600160a01b03166107a35781610818565b83600001516001600160a01b031663b2fffb046040518163ffffffff1660e01b815260040160206040518083038186803b1580156107e057600080fd5b505afa1580156107f4573d6000803e3d6000fd5b505050506040513d601f19601f820116820180604052508101906108189190612440565b905061082b8560e00151848a85856114bf565b9650965050505050509250929050565b336001600160a01b037f0000000000000000000000000000000000000000000000000000000000000000161461087057600080fd5b6000806000848152602001908152602001600020905081600001518160000160008201518160000160006101000a81548160ff021916908360ff16021790555060208201518160000160016101000a81548160ff021916908360ff16021790555060408201518160000160026101000a81548160ff021916908360ff16021790555060608201518160000160036101000a81548160ff021916908360ff16021790555060808201518160000160046101000a81548160ff021916908360ff16021790555060a08201518160000160056101000a81548160ff021916908360ff16021790555060c08201518160000160066101000a81548160ff021916908360ff16021790555060e08201518160000160076101000a81548160ff021916908360ff16021790555090505081602001518160010160006101000a8154816001600160a01b0302191690836001600160a01b0316021790555081604001518160020160008201518160000160006101000a81548160ff021916908360ff16021790555060208201518160000160016101000a81548160ff021916908360ff16021790555060408201518160000160026101000a81548160ff021916908360ff16021790555060608201518160000160036101000a81548160ff021916908360ff16021790555060808201518160000160046101000a81548160ff021916908360ff16021790555060a08201518160000160056101000a81548160ff021916908360ff16021790555060c08201518160000160066101000a81548160ff021916908360ff16021790555060e08201518160000160076101000a81548160ff021916908360ff1602179055506101008201518160000160086101000a81548160ff021916908360ff1602179055506101208201518160000160096101000a81548160ff021916908360ff16021790555090505081608001518160030160016101000a81548160ff0219169083151502179055508160a00151816004019080519060200190610b5b929190611df1565b5060c08201518051610b77916005840191602090910190611df1565b50606082015160038201805460ff191660ff909216919091179055600681015460005b81811015610bda5782600601805480610baf57fe5b6000828152602090208101600019908101805467ffffffffffffffff19169055019055600101610b9a565b5060005b8360e0015151811015610d4357826006018460e001518281518110610bff57fe5b60200260200101519080600181540180825580915050600190039060005260206000200160009091909190915060008201518160000160006101000a81548160ff021916908360ff16021790555060208201518160000160016101000a81548160ff021916908360ff16021790555060408201518160000160026101000a81548160ff021916908360ff16021790555060608201518160000160036101000a81548160ff021916908360ff16021790555060808201518160000160046101000a81548160ff021916908360ff16021790555060a08201518160000160056101000a81548160ff021916908360ff16021790555060c08201518160000160066101000a81548160ff021916908360ff16021790555060e08201518160000160076101000a81548160ff021916908360ff16021790555050508080600101915050610bde565b5050600781015460005b81811015610d8c5782600701805480610d6257fe5b600082815260209020810160001990810180546001600160781b0319169055019055600101610d4d565b5060005b83610100015151811015610e1d57826007018461010001518281518110610db357fe5b60209081029190910181015182546001818101855560009485529383902082519101805492909301516001600160501b0316600160281b026effffffffffffffffffff00000000001964ffffffffff90921664ffffffffff19909316929092171617905501610d90565b5050505050565b7f000000000000000000000000000000000000000000000000000000000000000081565b7f000000000000000000000000000000000000000000000000000000000000000081565b336001600160a01b037f00000000000000000000000000000000000000000000000000000000000000001614610ea157600080fd5b6000828152602081905260408120600781015490915b81811015610ef65782600701805480610ecc57fe5b600082815260209020810160001990810180546001600160781b0319169055019055600101610eb7565b5060005b8351811015610e1d5782600701848281518110610f1357fe5b60209081029190910181015182546001818101855560009485529383902082519101805492909301516001600160501b0316600160281b026effffffffffffffffffff00000000001964ffffffffff90921664ffffffffff19909316929092171617905501610efa565b610f85611e79565b6000808381526020019081526020016000206040518061012001604052908160008201604051806101000160405290816000820160009054906101000a900460ff1660ff1660ff1681526020016000820160019054906101000a900460ff1660ff1660ff1681526020016000820160029054906101000a900460ff1660ff1660ff1681526020016000820160039054906101000a900460ff1660ff1660ff1681526020016000820160049054906101000a900460ff1660ff1660ff1681526020016000820160059054906101000a900460ff1660ff1660ff1681526020016000820160069054906101000a900460ff1660ff1660ff1681526020016000820160079054906101000a900460ff1660ff1660ff168152505081526020016001820160009054906101000a90046001600160a01b03166001600160a01b03166001600160a01b0316815260200160028201604051806101400160405290816000820160009054906101000a900460ff1660ff1660ff1681526020016000820160019054906101000a900460ff1660ff1660ff1681526020016000820160029054906101000a900460ff1660ff1660ff1681526020016000820160039054906101000a900460ff1660ff1660ff1681526020016000820160049054906101000a900460ff1660ff1660ff1681526020016000820160059054906101000a900460ff1660ff1660ff1681526020016000820160069054906101000a900460ff1660ff1660ff1681526020016000820160079054906101000a900460ff1660ff1660ff1681526020016000820160089054906101000a900460ff1660ff1660ff1681526020016000820160099054906101000a900460ff1660ff1660ff168152505081526020016003820160009054906101000a900460ff1660ff1660ff1681526020016003820160019054906101000a900460ff16151515158152602001600482018054600181600116156101000203166002900480601f0160208091040260200160405190810160405280929190818152602001828054600181600116156101000203166002900480156112d75780601f106112ac576101008083540402835291602001916112d7565b820191906000526020600020905b8154815290600101906020018083116112ba57829003601f168201915b505050918352505060058201805460408051602060026001851615610100026000190190941693909304601f810184900484028201840190925281815293820193929183018282801561136b5780601f106113405761010080835404028352916020019161136b565b820191906000526020600020905b81548152906001019060200180831161134e57829003601f168201915b5050505050815260200160068201805480602002602001604051908101604052809291908181526020016000905b828210156114355760008481526020908190206040805161010080820183529286015460ff80821683529381048416828601526201000081048416928201929092526301000000820483166060820152640100000000820483166080820152600160281b8204831660a082015266010000000000008204831660c0820152600160381b90910490911660e0820152825260019092019101611399565b50505050815260200160078201805480602002602001604051908101604052809291908181526020016000905b828210156114af576000848152602090819020604080518082019091529084015464ffffffffff81168252600160281b90046001600160501b031681830152825260019092019101611462565b505050508152505090505b919050565b606080865167ffffffffffffffff811180156114da57600080fd5b5060405190808252806020026020018201604052801561151457816020015b611501611ed6565b8152602001906001900390816114f95790505b509150865167ffffffffffffffff8111801561152f57600080fd5b50604051908082528060200260200182016040528015611559578160200160208202803683370190505b50905060005b8751811015611aee57600088828151811061157657fe5b60200260200101519050600088838151811061158e57fe5b6020026020010151905060006115a78360800151611af9565b905060006040518061010001604052806064633b9aca00816115c557fe5b875160ff169190050281526020016064633b9aca0005866020015160ff16028152602001610100866040015160ff168502816115fd57fe5b048152602001610100866060015160ff1685028161161757fe5b048152602001838152602001600081526020016000815260200160008152509050600061166a600085604001516116658d61165f8e8a60600151611b2e90919063ffffffff16565b90611b7c565b611bad565b9050633b9aca0081106116985760405162461bcd60e51b815260040161168f90612996565b60405180910390fd5b81608001518460a00151106116bf5760405162461bcd60e51b815260040161168f90612a13565b815160208301516002908290030481019082116117855760006116fd836116f786600001518960a00151611bf790919063ffffffff16565b90611c25565b9050836060015181106117225760405162461bcd60e51b815260040161168f906129e9565b8c1561175a57620186a060fa0261173d828660400151611c44565b1061175a5760405162461bcd60e51b815260040161168f90612a5f565b604084018190526117778561010083028161177157fe5b04611c5a565b60ff16604088015250611a63565b808210156118795760006117dd6117b76117ac866000015186611c6e90919063ffffffff16565b606087015190611c83565b855160208701516117d7916117cc9190611c6e565b60a08a015190611c83565b90611c6e565b602085015190915083900360006117f48383611c9c565b9050856060015181106118195760405162461bcd60e51b815260040161168f906129e9565b8e1561185157620186a060fa02611834828860400151611c44565b106118515760405162461bcd60e51b815260040161168f90612a3a565b604086018190526118688761010083028161177157fe5b60ff1660408a015250611a63915050565b826020015182101561197b5760006118e36118af6118a4866000015186611c6e90919063ffffffff16565b604087015190611c83565b855160208701516118dd916118c49190611c6e565b604088015160a08b01516118d791611c6e565b90611c83565b90611cb5565b8451909150830360006118f68383611c9c565b90508560800151811061191b5760405162461bcd60e51b815260040161168f90612a13565b8e1561195357620186a060fa02611936828860600151611c44565b106119535760405162461bcd60e51b815260040161168f90612a3a565b6060860181905261196a8761010083028161177157fe5b60ff1660608a015250611a63915050565b60006119c36119a561199a866020015186611c6e90919063ffffffff16565b608087015190611c83565b6117d76117cc8760200151633b9aca00611c6e90919063ffffffff16565b905060006119d5633b9aca0085611c6e565b905060006119e38383611c9c565b905085608001518110611a085760405162461bcd60e51b815260040161168f90612a13565b8e15611a4057620186a060fa02611a23828860600151611c44565b10611a405760405162461bcd60e51b815260040161168f90612971565b60608601819052611a578761010083028161177157fe5b60ff1660608a01525050505b6000611a6f8484611cc7565b90508c15611aab57612710633b9aca0005611a8e828860a00151611c44565b10611aab5760405162461bcd60e51b815260040161168f906129c0565b868a8981518110611ab857fe5b602002602001018190525080898981518110611ad057fe5b602090810291909101015250506001909501945061155f9350505050565b509550959350505050565b60008160ff16609610611b145760ff8216622625a002611b28565b63165a0bc062e4e1c060ff84166095190102015b92915050565b818102600019831415611b5e57811580611b50575082828281611b4d57fe5b05145b611b5957600080fd5b611b28565b821580611b73575081838281611b7057fe5b05145b611b2857600080fd5b600081600019148015611b925750600160ff1b83145b15611b9c57600080fd5b818381611ba557fe5b059392505050565b600080831215611bbc57600080fd5b6000821215611bca57600080fd5b611bef611bea611bda8486611d81565b611be48688611d97565b90611db3565b611dcc565b949350505050565b600082611c0657506000611b28565b82820282848281611c1357fe5b0414611c1e57600080fd5b9392505050565b6000808211611c3357600080fd5b818381611c3c57fe5b049392505050565b6000818310611c5557818303611c1e565b500390565b600060ff821115611c6a57600080fd5b5090565b600082821115611c7d57600080fd5b50900390565b6000611c1e611c928484611bf7565b633b9aca00611c25565b6000611c1e611caf84633b9aca00611bf7565b83611c25565b600082820183811015611c1e57600080fd5b600080836080015111611cd957600080fd5b633b9aca00821115611cea57600080fd5b82518211611d105782516040840151611d0991906116f7908590611bf7565b9050611b28565b82602001518211611d48576040830151835160208501516060860151611d0993926118dd92819003916116f791880390859003611bf7565b611c1e83606001516118dd8560200151633b9aca00036116f7876060015188608001510388602001518803611bf790919063ffffffff16565b81810182811215600083121514611b2857600080fd5b6000611da38383611ddb565b90506000811215611b2857600080fd5b6000611c1e611dc684633b9aca00611b2e565b83611b7c565b600080821215611c6a57600080fd5b80820382811315600083121514611b2857600080fd5b828054600181600116156101000203166002900490600052602060002090601f016020900481019282611e275760008555611e6d565b82601f10611e4057805160ff1916838001178555611e6d565b82800160010185558215611e6d579182015b82811115611e6d578251825591602001919060010190611e52565b50611c6a929150611f1a565b604051806101200160405280611e8d611ed6565b815260006020820152604001611ea1611f2f565b8152602001600060ff168152602001600015158152602001606081526020016060815260200160608152602001606081525090565b6040805161010081018252600080825260208201819052918101829052606081018290526080810182905260a0810182905260c0810182905260e081019190915290565b5b80821115611c6a5760008155600101611f1b565b6040805161014081018252600080825260208201819052918101829052606081018290526080810182905260a0810182905260c0810182905260e08101829052610100810182905261012081019190915290565b600082601f830112611f93578081fd5b81356020611fa8611fa383612b9d565b612b79565b8281528181019085830161010080860288018501891015611fc7578687fd5b865b86811015611fed57611fdb8a84612261565b85529385019391810191600101611fc9565b509198975050505050505050565b600082601f83011261200b578081fd5b8135602061201b611fa383612b9d565b82815281810190858301604080860288018501891015612039578687fd5b865b86811015611fed5781838b031215612051578788fd5b815182810181811067ffffffffffffffff8211171561206c57fe5b8352833564ffffffffff8116811461208257898afd5b8152838701356001600160501b038116811461209c57898afd5b818801528552938501939181019160010161203b565b80356114ba81612bbb565b80516114ba81612bbb565b80356114ba81612bcc565b600082601f8301126120e3578081fd5b813567ffffffffffffffff8111156120f757fe5b61210a601f8201601f1916602001612b79565b81815284602083860101111561211e578283fd5b816020850160208301379081016020019190915292915050565b600060408284031215612149578081fd5b6040516040810181811067ffffffffffffffff8211171561216657fe5b8060405250809150825161217981612bcc565b8152602083015161218981612be1565b6020919091015292915050565b60006101408083850312156121a9578182fd5b6121b281612b79565b9150506121be82612322565b81526121cc60208301612322565b60208201526121dd60408301612322565b60408201526121ee60608301612322565b60608201526121ff60808301612322565b608082015261221060a08301612322565b60a082015261222160c08301612322565b60c082015261223260e08301612322565b60e0820152610100612245818401612322565b90820152610120612257838201612322565b9082015292915050565b6000610100808385031215612274578182fd5b6040519081019067ffffffffffffffff8211818310171561229157fe5b816040528092506122a184612322565b81526122af60208501612322565b60208201526122c060408501612322565b60408201526122d160608501612322565b60608201526122e260808501612322565b60808201526122f360a08501612322565b60a082015261230460c08501612322565b60c082015261231560e08501612322565b60e0820152505092915050565b80356114ba81612be1565b80516114ba81612be1565b6000602080838503121561234a578182fd5b825167ffffffffffffffff80821115612361578384fd5b818501915085601f830112612374578384fd5b8151612382611fa382612b9d565b81815284810190848601610100808502870188018b10156123a1578889fd5b8896505b848710156124315780828c0312156123bb578889fd5b6040805182810181811089821117156123d057fe5b825283518152898401518a8201528382015191810191909152606080840151908201526080808401519082015260a0808401519082015260c0808401519082015260e0808401519082015284526001969096019592870192908101906123a5565b50909998505050505050505050565b600060208284031215612451578081fd5b5051919050565b60008082840361010081121561246c578182fd5b60c0811215612479578182fd5b5060405160c0810181811067ffffffffffffffff8211171561249757fe5b60405283516124a581612bcc565b81526124b36020850161232d565b60208201526124c4604085016120bd565b60408201526124d56060850161232d565b60608201526124e66080850161232d565b60808201526124f760a0850161232d565b60a0820152915061250b8460c08501612138565b90509250929050565b60008060408385031215612526578182fd5b823561ffff81168114612537578283fd5b9150602083013561254781612bbb565b809150509250929050565b600060208284031215612563578081fd5b5035919050565b6000806040838503121561257c578182fd5b82359150602083013567ffffffffffffffff811115612599578182fd5b6125a585828601611ffb565b9150509250929050565b600080604083850312156125c1578182fd5b82359150602083013567ffffffffffffffff808211156125df578283fd5b9084019061032082870312156125f3578283fd5b6101206125ff81612b79565b6126098885612261565b81526101006126198186016120c8565b602083015261262a89848701612196565b604083015261263c6102608601612322565b606083015261264e61028086016120b2565b60808301526102a0850135925083831115612667578586fd5b612673898487016120d3565b60a08301526102c085013592508383111561268c578586fd5b612698898487016120d3565b60c08301526102e08501359250838311156126b1578586fd5b6126bd89848701611f83565b60e08301526103008501359250838311156126d6578586fd5b6126e289848701611ffb565b90820152949794965093945050505050565b6000815180845260208085019450808401835b8381101561272e5761271a87835161289f565b610100969096019590820190600101612707565b509495945050505050565b6000815180845260208085019450808401835b8381101561272e578151805164ffffffffff1688528301516001600160501b0316838801526040909601959082019060010161274c565b15159052565b6001600160a01b03169052565b60008151808452815b818110156127bb5760208185018101518683018201520161279f565b818111156127cc5782602083870101525b50601f01601f19169290920160200192915050565b6127ec828251612900565b60208101516127fe6020840182612900565b5060408101516128116040840182612900565b5060608101516128246060840182612900565b5060808101516128376080840182612900565b5060a081015161284a60a0840182612900565b5060c081015161285d60c0840182612900565b5060e081015161287060e0840182612900565b506101008082015161288482850182612900565b50506101208082015161289982850182612900565b50505050565b60ff8082511683528060208301511660208401528060408301511660408401528060608301511660608401528060808301511660808401528060a08301511660a08401528060c08301511660c08401528060e08301511660e0840152505050565b60ff169052565b6001600160a01b0391909116815260200190565b60006040825261292e60408301856126f4565b828103602084810191909152845180835285820192820190845b8181101561296457845183529383019391830191600101612948565b5090979650505050505050565b6020808252600b908201526a4f7665722044696666203360a81b604082015260600190565b60208082526010908201526f27bb32b9102aba34b634bd30ba34b7b760811b604082015260600190565b6020808252600f908201526e27bb32b9102334b730b6102234b33360891b604082015260600190565b60208082526010908201526f27bb32b91025b4b735902930ba32901960811b604082015260600190565b6020808252600d908201526c4f766572204d6178205261746560981b604082015260600190565b6020808252600b908201526a27bb32b9102234b333101960a91b604082015260600190565b6020808252600b908201526a4f7665722044696666203160a81b604082015260600190565b600060208252612a9860208301845161289f565b6020830151612aab610120840182612789565b506040830151612abf6101408401826127e1565b506060830151612ad3610280840182612900565b506080830151612ae76102a0840182612783565b5060a0830151610320806102c0850152612b05610340850183612796565b915060c0850151601f1980868503016102e0870152612b248483612796565b935060e087015191508086850301610300870152612b4284836126f4565b9350610100870151915080868503018387015250612b608382612739565b9695505050505050565b61ffff91909116815260200190565b60405181810167ffffffffffffffff81118282101715612b9557fe5b604052919050565b600067ffffffffffffffff821115612bb157fe5b5060209081020190565b8015158114612bc957600080fd5b50565b6001600160a01b0381168114612bc957600080fd5b60ff81168114612bc957600080fdfea2646970667358221220fc163c335dca5682950b344694880f1b442c1be4b7836cc1349e0bc941a9842564736f6c63430007060033","bytecodeSha1":"eabee015390c05fb0da525602f6c7bb973871697","compiler":{"evm_version":"istanbul","optimizer":{"enabled":true,"runs":200},"version":"0.7.6+commit.7338295f"},"contractName":"MigrationSettings","language":"Solidity","natspec":{"kind":"dev","methods":{"getfCashCurveUpdate(uint16,bool)":{"notice":"Simulates the fCash curve update"},"setMigrationSettings(uint256,((uint8,uint8,uint8,uint8,uint8,uint8,uint8,uint8),address,(uint8,uint8,uint8,uint8,uint8,uint8,uint8,uint8,uint8,uint8),uint8,bool,string,string,(uint8,uint8,uint8,uint8,uint8,uint8,uint8,uint8)[],(uint40,uint80)[]))":{"notice":"Sets migration settings for the given currency id"},"updateTotalfCashDebt(uint256,(uint40,uint80)[])":{"notice":"Special method for updating the total fCash debt since this may change as we closer to the actual upgrade"}},"version":1},"opcodes":"PUSH1 0x80 PUSH1 0x40 MSTORE CALLVALUE DUP1 ISZERO PUSH2 0x10 JUMPI PUSH1 0x0 DUP1 REVERT JUMPDEST POP PUSH1 0x4 CALLDATASIZE LT PUSH2 0x62 JUMPI PUSH1 0x0 CALLDATALOAD PUSH1 0xE0 SHR DUP1 PUSH4 0x2188691D EQ PUSH2 0x67 JUMPI DUP1 PUSH4 0x689954E1 EQ PUSH2 0x91 JUMPI DUP1 PUSH4 0x7FB9CB12 EQ PUSH2 0xA6 JUMPI DUP1 PUSH4 0x858DCCB3 EQ PUSH2 0xBB JUMPI DUP1 PUSH4 0xE8D0984E EQ PUSH2 0xC3 JUMPI DUP1 PUSH4 0xEB8457BA EQ PUSH2 0xD6 JUMPI JUMPDEST PUSH1 0x0 DUP1 REVERT JUMPDEST PUSH2 0x7A PUSH2 0x75 CALLDATASIZE PUSH1 0x4 PUSH2 0x2514 JUMP JUMPDEST PUSH2 0xF6 JUMP JUMPDEST PUSH1 0x40 MLOAD PUSH2 0x88 SWAP3 SWAP2 SWAP1 PUSH2 0x291B JUMP JUMPDEST PUSH1 0x40 MLOAD DUP1 SWAP2 SUB SWAP1 RETURN JUMPDEST PUSH2 0xA4 PUSH2 0x9F CALLDATASIZE PUSH1 0x4 PUSH2 0x25AF JUMP JUMPDEST PUSH2 0x83B JUMP JUMPDEST STOP JUMPDEST PUSH2 0xAE PUSH2 0xE24 JUMP JUMPDEST PUSH1 0x40 MLOAD PUSH2 0x88 SWAP2 SWAP1 PUSH2 0x2907 JUMP JUMPDEST PUSH2 0xAE PUSH2 0xE48 JUMP JUMPDEST PUSH2 0xA4 PUSH2 0xD1 CALLDATASIZE PUSH1 0x4 PUSH2 0x256A JUMP JUMPDEST PUSH2 0xE6C JUMP JUMPDEST PUSH2 0xE9 PUSH2 0xE4 CALLDATASIZE PUSH1 0x4 PUSH2 0x2552 JUMP JUMPDEST PUSH2 0xF7D JUMP JUMPDEST PUSH1 0x40 MLOAD PUSH2 0x88 SWAP2 SWAP1 PUSH2 0x2A84 JUMP JUMPDEST PUSH1 0x60 DUP1 PUSH1 0x0 DUP1 PUSH1 0x0 DUP7 PUSH2 0xFFFF AND DUP2 MSTORE PUSH1 0x20 ADD SWAP1 DUP2 MSTORE PUSH1 0x20 ADD PUSH1 0x0 KECCAK256 PUSH1 0x40 MLOAD DUP1 PUSH2 0x120 ADD PUSH1 0x40 MSTORE SWAP1 DUP2 PUSH1 0x0 DUP3 ADD PUSH1 0x40 MLOAD DUP1 PUSH2 0x100 ADD PUSH1 0x40 MSTORE SWAP1 DUP2 PUSH1 0x0 DUP3 ADD PUSH1 0x0 SWAP1 SLOAD SWAP1 PUSH2 0x100 EXP SWAP1 DIV PUSH1 0xFF AND PUSH1 0xFF AND PUSH1 0xFF AND DUP2 MSTORE PUSH1 0x20 ADD PUSH1 0x0 DUP3 ADD PUSH1 0x1 SWAP1 SLOAD SWAP1 PUSH2 0x100 EXP SWAP1 DIV PUSH1 0xFF AND PUSH1 0xFF AND PUSH1 0xFF AND DUP2 MSTORE PUSH1 0x20 ADD PUSH1 0x0 DUP3 ADD PUSH1 0x2 SWAP1 SLOAD SWAP1 PUSH2 0x100 EXP SWAP1 DIV PUSH1 0xFF AND PUSH1 0xFF AND PUSH1 0xFF AND DUP2 MSTORE PUSH1 0x20 ADD PUSH1 0x0 DUP3 ADD PUSH1 0x3 SWAP1 SLOAD SWAP1 PUSH2 0x100 EXP SWAP1 DIV PUSH1 0xFF AND PUSH1 0xFF AND PUSH1 0xFF AND DUP2 MSTORE PUSH1 0x20 ADD PUSH1 0x0 DUP3 ADD PUSH1 0x4 SWAP1 SLOAD SWAP1 PUSH2 0x100 EXP SWAP1 DIV PUSH1 0xFF AND PUSH1 0xFF AND PUSH1 0xFF AND DUP2 MSTORE PUSH1 0x20 ADD PUSH1 0x0 DUP3 ADD PUSH1 0x5 SWAP1 SLOAD SWAP1 PUSH2 0x100 EXP SWAP1 DIV PUSH1 0xFF AND PUSH1 0xFF AND PUSH1 0xFF AND DUP2 MSTORE PUSH1 0x20 ADD PUSH1 0x0 DUP3 ADD PUSH1 0x6 SWAP1 SLOAD SWAP1 PUSH2 0x100 EXP SWAP1 DIV PUSH1 0xFF AND PUSH1 0xFF AND PUSH1 0xFF AND DUP2 MSTORE PUSH1 0x20 ADD PUSH1 0x0 DUP3 ADD PUSH1 0x7 SWAP1 SLOAD SWAP1 PUSH2 0x100 EXP SWAP1 DIV PUSH1 0xFF AND PUSH1 0xFF AND PUSH1 0xFF AND DUP2 MSTORE POP POP DUP2 MSTORE PUSH1 0x20 ADD PUSH1 0x1 DUP3 ADD PUSH1 0x0 SWAP1 SLOAD SWAP1 PUSH2 0x100 EXP SWAP1 DIV PUSH1 0x1 PUSH1 0x1 PUSH1 0xA0 SHL SUB AND PUSH1 0x1 PUSH1 0x1 PUSH1 0xA0 SHL SUB AND PUSH1 0x1 PUSH1 0x1 PUSH1 0xA0 SHL SUB AND DUP2 MSTORE PUSH1 0x20 ADD PUSH1 0x2 DUP3 ADD PUSH1 0x40 MLOAD DUP1 PUSH2 0x140 ADD PUSH1 0x40 MSTORE SWAP1 DUP2 PUSH1 0x0 DUP3 ADD PUSH1 0x0 SWAP1 SLOAD SWAP1 PUSH2 0x100 EXP SWAP1 DIV PUSH1 0xFF AND PUSH1 0xFF AND PUSH1 0xFF AND DUP2 MSTORE PUSH1 0x20 ADD PUSH1 0x0 DUP3 ADD PUSH1 0x1 SWAP1 SLOAD SWAP1 PUSH2 0x100 EXP SWAP1 DIV PUSH1 0xFF AND PUSH1 0xFF AND PUSH1 0xFF AND DUP2 MSTORE PUSH1 0x20 ADD PUSH1 0x0 DUP3 ADD PUSH1 0x2 SWAP1 SLOAD SWAP1 PUSH2 0x100 EXP SWAP1 DIV PUSH1 0xFF AND PUSH1 0xFF AND PUSH1 0xFF AND DUP2 MSTORE PUSH1 0x20 ADD PUSH1 0x0 DUP3 ADD PUSH1 0x3 SWAP1 SLOAD SWAP1 PUSH2 0x100 EXP SWAP1 DIV PUSH1 0xFF AND PUSH1 0xFF AND PUSH1 0xFF AND DUP2 MSTORE PUSH1 0x20 ADD PUSH1 0x0 DUP3 ADD PUSH1 0x4 SWAP1 SLOAD SWAP1 PUSH2 0x100 EXP SWAP1 DIV PUSH1 0xFF AND PUSH1 0xFF AND PUSH1 0xFF AND DUP2 MSTORE PUSH1 0x20 ADD PUSH1 0x0 DUP3 ADD PUSH1 0x5 SWAP1 SLOAD SWAP1 PUSH2 0x100 EXP SWAP1 DIV PUSH1 0xFF AND PUSH1 0xFF AND PUSH1 0xFF AND DUP2 MSTORE PUSH1 0x20 ADD PUSH1 0x0 DUP3 ADD PUSH1 0x6 SWAP1 SLOAD SWAP1 PUSH2 0x100 EXP SWAP1 DIV PUSH1 0xFF AND PUSH1 0xFF AND PUSH1 0xFF AND DUP2 MSTORE PUSH1 0x20 ADD PUSH1 0x0 DUP3 ADD PUSH1 0x7 SWAP1 SLOAD SWAP1 PUSH2 0x100 EXP SWAP1 DIV PUSH1 0xFF AND PUSH1 0xFF AND PUSH1 0xFF AND DUP2 MSTORE PUSH1 0x20 ADD PUSH1 0x0 DUP3 ADD PUSH1 0x8 SWAP1 SLOAD SWAP1 PUSH2 0x100 EXP SWAP1 DIV PUSH1 0xFF AND PUSH1 0xFF AND PUSH1 0xFF AND DUP2 MSTORE PUSH1 0x20 ADD PUSH1 0x0 DUP3 ADD PUSH1 0x9 SWAP1 SLOAD SWAP1 PUSH2 0x100 EXP SWAP1 DIV PUSH1 0xFF AND PUSH1 0xFF AND PUSH1 0xFF AND DUP2 MSTORE POP POP DUP2 MSTORE PUSH1 0x20 ADD PUSH1 0x3 DUP3 ADD PUSH1 0x0 SWAP1 SLOAD SWAP1 PUSH2 0x100 EXP SWAP1 DIV PUSH1 0xFF AND PUSH1 0xFF AND PUSH1 0xFF AND DUP2 MSTORE PUSH1 0x20 ADD PUSH1 0x3 DUP3 ADD PUSH1 0x1 SWAP1 SLOAD SWAP1 PUSH2 0x100 EXP SWAP1 DIV PUSH1 0xFF AND ISZERO ISZERO ISZERO ISZERO DUP2 MSTORE PUSH1 0x20 ADD PUSH1 0x4 DUP3 ADD DUP1 SLOAD PUSH1 0x1 DUP2 PUSH1 0x1 AND ISZERO PUSH2 0x100 MUL SUB AND PUSH1 0x2 SWAP1 DIV DUP1 PUSH1 0x1F ADD PUSH1 0x20 DUP1 SWAP2 DIV MUL PUSH1 0x20 ADD PUSH1 0x40 MLOAD SWAP1 DUP2 ADD PUSH1 0x40 MSTORE DUP1 SWAP3 SWAP2 SWAP1 DUP2 DUP2 MSTORE PUSH1 0x20 ADD DUP3 DUP1 SLOAD PUSH1 0x1 DUP2 PUSH1 0x1 AND ISZERO PUSH2 0x100 MUL SUB AND PUSH1 0x2 SWAP1 DIV DUP1 ISZERO PUSH2 0x451 JUMPI DUP1 PUSH1 0x1F LT PUSH2 0x426 JUMPI PUSH2 0x100 DUP1 DUP4 SLOAD DIV MUL DUP4 MSTORE SWAP2 PUSH1 0x20 ADD SWAP2 PUSH2 0x451 JUMP JUMPDEST DUP3 ADD SWAP2 SWAP1 PUSH1 0x0 MSTORE PUSH1 0x20 PUSH1 0x0 KECCAK256 SWAP1 JUMPDEST DUP2 SLOAD DUP2 MSTORE SWAP1 PUSH1 0x1 ADD SWAP1 PUSH1 0x20 ADD DUP1 DUP4 GT PUSH2 0x434 JUMPI DUP3 SWAP1 SUB PUSH1 0x1F AND DUP3 ADD SWAP2 JUMPDEST POP POP POP SWAP2 DUP4 MSTORE POP POP PUSH1 0x5 DUP3 ADD DUP1 SLOAD PUSH1 0x40 DUP1 MLOAD PUSH1 0x20 PUSH1 0x2 PUSH1 0x1 DUP6 AND ISZERO PUSH2 0x100 MUL PUSH1 0x0 NOT ADD SWAP1 SWAP5 AND SWAP4 SWAP1 SWAP4 DIV PUSH1 0x1F DUP2 ADD DUP5 SWAP1 DIV DUP5 MUL DUP3 ADD DUP5 ADD SWAP1 SWAP3 MSTORE DUP2 DUP2 MSTORE SWAP4 DUP3 ADD SWAP4 SWAP3 SWAP2 DUP4 ADD DUP3 DUP3 DUP1 ISZERO PUSH2 0x4E5 JUMPI DUP1 PUSH1 0x1F LT PUSH2 0x4BA JUMPI PUSH2 0x100 DUP1 DUP4 SLOAD DIV MUL DUP4 MSTORE SWAP2 PUSH1 0x20 ADD SWAP2 PUSH2 0x4E5 JUMP JUMPDEST DUP3 ADD SWAP2 SWAP1 PUSH1 0x0 MSTORE PUSH1 0x20 PUSH1 0x0 KECCAK256 SWAP1 JUMPDEST DUP2 SLOAD DUP2 MSTORE SWAP1 PUSH1 0x1 ADD SWAP1 PUSH1 0x20 ADD DUP1 DUP4 GT PUSH2 0x4C8 JUMPI DUP3 SWAP1 SUB PUSH1 0x1F AND DUP3 ADD SWAP2 JUMPDEST POP POP POP POP POP DUP2 MSTORE PUSH1 0x20 ADD PUSH1 0x6 DUP3 ADD DUP1 SLOAD DUP1 PUSH1 0x20 MUL PUSH1 0x20 ADD PUSH1 0x40 MLOAD SWAP1 DUP2 ADD PUSH1 0x40 MSTORE DUP1 SWAP3 SWAP2 SWAP1 DUP2 DUP2 MSTORE PUSH1 0x20 ADD PUSH1 0x0 SWAP1 JUMPDEST DUP3 DUP3 LT ISZERO PUSH2 0x5AF JUMPI PUSH1 0x0 DUP5 DUP2 MSTORE PUSH1 0x20 SWAP1 DUP2 SWAP1 KECCAK256 PUSH1 0x40 DUP1 MLOAD PUSH2 0x100 DUP1 DUP3 ADD DUP4 MSTORE SWAP3 DUP7 ADD SLOAD PUSH1 0xFF DUP1 DUP3 AND DUP4 MSTORE SWAP4 DUP2 DIV DUP5 AND DUP3 DUP7 ADD MSTORE PUSH3 0x10000 DUP2 DIV DUP5 AND SWAP3 DUP3 ADD SWAP3 SWAP1 SWAP3 MSTORE PUSH4 0x1000000 DUP3 DIV DUP4 AND PUSH1 0x60 DUP3 ADD MSTORE PUSH5 0x100000000 DUP3 DIV DUP4 AND PUSH1 0x80 DUP3 ADD MSTORE PUSH1 0x1 PUSH1 0x28 SHL DUP3 DIV DUP4 AND PUSH1 0xA0 DUP3 ADD MSTORE PUSH7 0x1000000000000 DUP3 DIV DUP4 AND PUSH1 0xC0 DUP3 ADD MSTORE PUSH1 0x1 PUSH1 0x38 SHL SWAP1 SWAP2 DIV SWAP1 SWAP2 AND PUSH1 0xE0 DUP3 ADD MSTORE DUP3 MSTORE PUSH1 0x1 SWAP1 SWAP3 ADD SWAP2 ADD PUSH2 0x513 JUMP JUMPDEST POP POP POP POP DUP2 MSTORE PUSH1 0x20 ADD PUSH1 0x7 DUP3 ADD DUP1 SLOAD DUP1 PUSH1 0x20 MUL PUSH1 0x20 ADD PUSH1 0x40 MLOAD SWAP1 DUP2 ADD PUSH1 0x40 MSTORE DUP1 SWAP3 SWAP2 SWAP1 DUP2 DUP2 MSTORE PUSH1 0x20 ADD PUSH1 0x0 SWAP1 JUMPDEST DUP3 DUP3 LT ISZERO PUSH2 0x629 JUMPI PUSH1 0x0 DUP5 DUP2 MSTORE PUSH1 0x20 SWAP1 DUP2 SWAP1 KECCAK256 PUSH1 0x40 DUP1 MLOAD DUP1 DUP3 ADD SWAP1 SWAP2 MSTORE SWAP1 DUP5 ADD SLOAD PUSH5 0xFFFFFFFFFF DUP2 AND DUP3 MSTORE PUSH1 0x1 PUSH1 0x28 SHL SWAP1 DIV PUSH1 0x1 PUSH1 0x1 PUSH1 0x50 SHL SUB AND DUP2 DUP4 ADD MSTORE DUP3 MSTORE PUSH1 0x1 SWAP1 SWAP3 ADD SWAP2 ADD PUSH2 0x5DC JUMP JUMPDEST POP POP POP SWAP2 MSTORE POP POP PUSH1 0x40 MLOAD PUSH4 0x73A5B727 PUSH1 0xE1 SHL DUP2 MSTORE SWAP1 SWAP2 POP PUSH1 0x0 SWAP1 PUSH1 0x1 PUSH1 0x1 PUSH1 0xA0 SHL SUB PUSH32 0x0 AND SWAP1 PUSH4 0xE74B6E4E SWAP1 PUSH2 0x682 SWAP1 DUP10 SWAP1 PUSH1 0x4 ADD PUSH2 0x2B6A JUMP JUMPDEST PUSH2 0x100 PUSH1 0x40 MLOAD DUP1 DUP4 SUB DUP2 DUP7 DUP1 EXTCODESIZE ISZERO DUP1 ISZERO PUSH2 0x69B JUMPI PUSH1 0x0 DUP1 REVERT JUMPDEST POP GAS STATICCALL ISZERO DUP1 ISZERO PUSH2 0x6AF JUMPI RETURNDATASIZE PUSH1 0x0 DUP1 RETURNDATACOPY RETURNDATASIZE PUSH1 0x0 REVERT JUMPDEST POP POP POP POP PUSH1 0x40 MLOAD RETURNDATASIZE PUSH1 0x1F NOT PUSH1 0x1F DUP3 ADD AND DUP3 ADD DUP1 PUSH1 0x40 MSTORE POP DUP2 ADD SWAP1 PUSH2 0x6D3 SWAP2 SWAP1 PUSH2 0x2458 JUMP JUMPDEST SWAP2 POP POP PUSH1 0x0 PUSH32 0x0 PUSH1 0x1 PUSH1 0x1 PUSH1 0xA0 SHL SUB AND PUSH4 0x497CF7E3 DUP9 PUSH1 0x40 MLOAD DUP3 PUSH4 0xFFFFFFFF AND PUSH1 0xE0 SHL DUP2 MSTORE PUSH1 0x4 ADD PUSH2 0x724 SWAP2 SWAP1 PUSH2 0x2B6A JUMP JUMPDEST PUSH1 0x0 PUSH1 0x40 MLOAD DUP1 DUP4 SUB DUP2 DUP7 DUP1 EXTCODESIZE ISZERO DUP1 ISZERO PUSH2 0x73C JUMPI PUSH1 0x0 DUP1 REVERT JUMPDEST POP GAS STATICCALL ISZERO DUP1 ISZERO PUSH2 0x750 JUMPI RETURNDATASIZE PUSH1 0x0 DUP1 RETURNDATACOPY RETURNDATASIZE PUSH1 0x0 REVERT JUMPDEST POP POP POP POP PUSH1 0x40 MLOAD RETURNDATASIZE PUSH1 0x0 DUP3 RETURNDATACOPY PUSH1 0x1F RETURNDATASIZE SWAP1 DUP2 ADD PUSH1 0x1F NOT AND DUP3 ADD PUSH1 0x40 MSTORE PUSH2 0x778 SWAP2 SWAP1 DUP2 ADD SWAP1 PUSH2 0x2338 JUMP JUMPDEST PUSH1 0x20 DUP4 ADD MLOAD DUP4 MLOAD SWAP2 SWAP3 POP PUSH1 0xFF PUSH1 0xA SWAP2 DUP3 ADD AND SWAP1 EXP SWAP1 PUSH1 0x0 SWAP1 PUSH1 0x1 PUSH1 0x1 PUSH1 0xA0 SHL SUB AND PUSH2 0x7A3 JUMPI DUP2 PUSH2 0x818 JUMP JUMPDEST DUP4 PUSH1 0x0 ADD MLOAD PUSH1 0x1 PUSH1 0x1 PUSH1 0xA0 SHL SUB AND PUSH4 0xB2FFFB04 PUSH1 0x40 MLOAD DUP2 PUSH4 0xFFFFFFFF AND PUSH1 0xE0 SHL DUP2 MSTORE PUSH1 0x4 ADD PUSH1 0x20 PUSH1 0x40 MLOAD DUP1 DUP4 SUB DUP2 DUP7 DUP1 EXTCODESIZE ISZERO DUP1 ISZERO PUSH2 0x7E0 JUMPI PUSH1 0x0 DUP1 REVERT JUMPDEST POP GAS STATICCALL ISZERO DUP1 ISZERO PUSH2 0x7F4 JUMPI RETURNDATASIZE PUSH1 0x0 DUP1 RETURNDATACOPY RETURNDATASIZE PUSH1 0x0 REVERT JUMPDEST POP POP POP POP PUSH1 0x40 MLOAD RETURNDATASIZE PUSH1 0x1F NOT PUSH1 0x1F DUP3 ADD AND DUP3 ADD DUP1 PUSH1 0x40 MSTORE POP DUP2 ADD SWAP1 PUSH2 0x818 SWAP2 SWAP1 PUSH2 0x2440 JUMP JUMPDEST SWAP1 POP PUSH2 0x82B DUP6 PUSH1 0xE0 ADD MLOAD DUP5 DUP11 DUP6 DUP6 PUSH2 0x14BF JUMP JUMPDEST SWAP7 POP SWAP7 POP POP POP POP POP POP SWAP3 POP SWAP3 SWAP1 POP JUMP JUMPDEST CALLER PUSH1 0x1 PUSH1 0x1 PUSH1 0xA0 SHL SUB PUSH32 0x0 AND EQ PUSH2 0x870 JUMPI PUSH1 0x0 DUP1 REVERT JUMPDEST PUSH1 0x0 DUP1 PUSH1 0x0 DUP5 DUP2 MSTORE PUSH1 0x20 ADD SWAP1 DUP2 MSTORE PUSH1 0x20 ADD PUSH1 0x0 KECCAK256 SWAP1 POP DUP2 PUSH1 0x0 ADD MLOAD DUP2 PUSH1 0x0 ADD PUSH1 0x0 DUP3 ADD MLOAD DUP2 PUSH1 0x0 ADD PUSH1 0x0 PUSH2 0x100 EXP DUP2 SLOAD DUP2 PUSH1 0xFF MUL NOT AND SWAP1 DUP4 PUSH1 0xFF AND MUL OR SWAP1 SSTORE POP PUSH1 0x20 DUP3 ADD MLOAD DUP2 PUSH1 0x0 ADD PUSH1 0x1 PUSH2 0x100 EXP DUP2 SLOAD DUP2 PUSH1 0xFF MUL NOT AND SWAP1 DUP4 PUSH1 0xFF AND MUL OR SWAP1 SSTORE POP PUSH1 0x40 DUP3 ADD MLOAD DUP2 PUSH1 0x0 ADD PUSH1 0x2 PUSH2 0x100 EXP DUP2 SLOAD DUP2 PUSH1 0xFF MUL NOT AND SWAP1 DUP4 PUSH1 0xFF AND MUL OR SWAP1 SSTORE POP PUSH1 0x60 DUP3 ADD MLOAD DUP2 PUSH1 0x0 ADD PUSH1 0x3 PUSH2 0x100 EXP DUP2 SLOAD DUP2 PUSH1 0xFF MUL NOT AND SWAP1 DUP4 PUSH1 0xFF AND MUL OR SWAP1 SSTORE POP PUSH1 0x80 DUP3 ADD MLOAD DUP2 PUSH1 0x0 ADD PUSH1 0x4 PUSH2 0x100 EXP DUP2 SLOAD DUP2 PUSH1 0xFF MUL NOT AND SWAP1 DUP4 PUSH1 0xFF AND MUL OR SWAP1 SSTORE POP PUSH1 0xA0 DUP3 ADD MLOAD DUP2 PUSH1 0x0 ADD PUSH1 0x5 PUSH2 0x100 EXP DUP2 SLOAD DUP2 PUSH1 0xFF MUL NOT AND SWAP1 DUP4 PUSH1 0xFF AND MUL OR SWAP1 SSTORE POP PUSH1 0xC0 DUP3 ADD MLOAD DUP2 PUSH1 0x0 ADD PUSH1 0x6 PUSH2 0x100 EXP DUP2 SLOAD DUP2 PUSH1 0xFF MUL NOT AND SWAP1 DUP4 PUSH1 0xFF AND MUL OR SWAP1 SSTORE POP PUSH1 0xE0 DUP3 ADD MLOAD DUP2 PUSH1 0x0 ADD PUSH1 0x7 PUSH2 0x100 EXP DUP2 SLOAD DUP2 PUSH1 0xFF MUL NOT AND SWAP1 DUP4 PUSH1 0xFF AND MUL OR SWAP1 SSTORE POP SWAP1 POP POP DUP2 PUSH1 0x20 ADD MLOAD DUP2 PUSH1 0x1 ADD PUSH1 0x0 PUSH2 0x100 EXP DUP2 SLOAD DUP2 PUSH1 0x1 PUSH1 0x1 PUSH1 0xA0 SHL SUB MUL NOT AND SWAP1 DUP4 PUSH1 0x1 PUSH1 0x1 PUSH1 0xA0 SHL SUB AND MUL OR SWAP1 SSTORE POP DUP2 PUSH1 0x40 ADD MLOAD DUP2 PUSH1 0x2 ADD PUSH1 0x0 DUP3 ADD MLOAD DUP2 PUSH1 0x0 ADD PUSH1 0x0 PUSH2 0x100 EXP DUP2 SLOAD DUP2 PUSH1 0xFF MUL NOT AND SWAP1 DUP4 PUSH1 0xFF AND MUL OR SWAP1 SSTORE POP PUSH1 0x20 DUP3 ADD MLOAD DUP2 PUSH1 0x0 ADD PUSH1 0x1 PUSH2 0x100 EXP DUP2 SLOAD DUP2 PUSH1 0xFF MUL NOT AND SWAP1 DUP4 PUSH1 0xFF AND MUL OR SWAP1 SSTORE POP PUSH1 0x40 DUP3 ADD MLOAD DUP2 PUSH1 0x0 ADD PUSH1 0x2 PUSH2 0x100 EXP DUP2 SLOAD DUP2 PUSH1 0xFF MUL NOT AND SWAP1 DUP4 PUSH1 0xFF AND MUL OR SWAP1 SSTORE POP PUSH1 0x60 DUP3 ADD MLOAD DUP2 PUSH1 0x0 ADD PUSH1 0x3 PUSH2 0x100 EXP DUP2 SLOAD DUP2 PUSH1 0xFF MUL NOT AND SWAP1 DUP4 PUSH1 0xFF AND MUL OR SWAP1 SSTORE POP PUSH1 0x80 DUP3 ADD MLOAD DUP2 PUSH1 0x0 ADD PUSH1 0x4 PUSH2 0x100 EXP DUP2 SLOAD DUP2 PUSH1 0xFF MUL NOT AND SWAP1 DUP4 PUSH1 0xFF AND MUL OR SWAP1 SSTORE POP PUSH1 0xA0 DUP3 ADD MLOAD DUP2 PUSH1 0x0 ADD PUSH1 0x5 PUSH2 0x100 EXP DUP2 SLOAD DUP2 PUSH1 0xFF MUL NOT AND SWAP1 DUP4 PUSH1 0xFF AND MUL OR SWAP1 SSTORE POP PUSH1 0xC0 DUP3 ADD MLOAD DUP2 PUSH1 0x0 ADD PUSH1 0x6 PUSH2 0x100 EXP DUP2 SLOAD DUP2 PUSH1 0xFF MUL NOT AND SWAP1 DUP4 PUSH1 0xFF AND MUL OR SWAP1 SSTORE POP PUSH1 0xE0 DUP3 ADD MLOAD DUP2 PUSH1 0x0 ADD PUSH1 0x7 PUSH2 0x100 EXP DUP2 SLOAD DUP2 PUSH1 0xFF MUL NOT AND SWAP1 DUP4 PUSH1 0xFF AND MUL OR SWAP1 SSTORE POP PUSH2 0x100 DUP3 ADD MLOAD DUP2 PUSH1 0x0 ADD PUSH1 0x8 PUSH2 0x100 EXP DUP2 SLOAD DUP2 PUSH1 0xFF MUL NOT AND SWAP1 DUP4 PUSH1 0xFF AND MUL OR SWAP1 SSTORE POP PUSH2 0x120 DUP3 ADD MLOAD DUP2 PUSH1 0x0 ADD PUSH1 0x9 PUSH2 0x100 EXP DUP2 SLOAD DUP2 PUSH1 0xFF MUL NOT AND SWAP1 DUP4 PUSH1 0xFF AND MUL OR SWAP1 SSTORE POP SWAP1 POP POP DUP2 PUSH1 0x80 ADD MLOAD DUP2 PUSH1 0x3 ADD PUSH1 0x1 PUSH2 0x100 EXP DUP2 SLOAD DUP2 PUSH1 0xFF MUL NOT AND SWAP1 DUP4 ISZERO ISZERO MUL OR SWAP1 SSTORE POP DUP2 PUSH1 0xA0 ADD MLOAD DUP2 PUSH1 0x4 ADD SWAP1 DUP1 MLOAD SWAP1 PUSH1 0x20 ADD SWAP1 PUSH2 0xB5B SWAP3 SWAP2 SWAP1 PUSH2 0x1DF1 JUMP JUMPDEST POP PUSH1 0xC0 DUP3 ADD MLOAD DUP1 MLOAD PUSH2 0xB77 SWAP2 PUSH1 0x5 DUP5 ADD SWAP2 PUSH1 0x20 SWAP1 SWAP2 ADD SWAP1 PUSH2 0x1DF1 JUMP JUMPDEST POP PUSH1 0x60 DUP3 ADD MLOAD PUSH1 0x3 DUP3 ADD DUP1 SLOAD PUSH1 0xFF NOT AND PUSH1 0xFF SWAP1 SWAP3 AND SWAP2 SWAP1 SWAP2 OR SWAP1 SSTORE PUSH1 0x6 DUP2 ADD SLOAD PUSH1 0x0 JUMPDEST DUP2 DUP2 LT ISZERO PUSH2 0xBDA JUMPI DUP3 PUSH1 0x6 ADD DUP1 SLOAD DUP1 PUSH2 0xBAF JUMPI INVALID JUMPDEST PUSH1 0x0 DUP3 DUP2 MSTORE PUSH1 0x20 SWAP1 KECCAK256 DUP2 ADD PUSH1 0x0 NOT SWAP1 DUP2 ADD DUP1 SLOAD PUSH8 0xFFFFFFFFFFFFFFFF NOT AND SWAP1 SSTORE ADD SWAP1 SSTORE PUSH1 0x1 ADD PUSH2 0xB9A JUMP JUMPDEST POP PUSH1 0x0 JUMPDEST DUP4 PUSH1 0xE0 ADD MLOAD MLOAD DUP2 LT ISZERO PUSH2 0xD43 JUMPI DUP3 PUSH1 0x6 ADD DUP5 PUSH1 0xE0 ADD MLOAD DUP3 DUP2 MLOAD DUP2 LT PUSH2 0xBFF JUMPI INVALID JUMPDEST PUSH1 0x20 MUL PUSH1 0x20 ADD ADD MLOAD SWAP1 DUP1 PUSH1 0x1 DUP2 SLOAD ADD DUP1 DUP3 SSTORE DUP1 SWAP2 POP POP PUSH1 0x1 SWAP1 SUB SWAP1 PUSH1 0x0 MSTORE PUSH1 0x20 PUSH1 0x0 KECCAK256 ADD PUSH1 0x0 SWAP1 SWAP2 SWAP1 SWAP2 SWAP1 SWAP2 POP PUSH1 0x0 DUP3 ADD MLOAD DUP2 PUSH1 0x0 ADD PUSH1 0x0 PUSH2 0x100 EXP DUP2 SLOAD DUP2 PUSH1 0xFF MUL NOT AND SWAP1 DUP4 PUSH1 0xFF AND MUL OR SWAP1 SSTORE POP PUSH1 0x20 DUP3 ADD MLOAD DUP2 PUSH1 0x0 ADD PUSH1 0x1 PUSH2 0x100 EXP DUP2 SLOAD DUP2 PUSH1 0xFF MUL NOT AND SWAP1 DUP4 PUSH1 0xFF AND MUL OR SWAP1 SSTORE POP PUSH1 0x40 DUP3 ADD MLOAD DUP2 PUSH1 0x0 ADD PUSH1 0x2 PUSH2 0x100 EXP DUP2 SLOAD DUP2 PUSH1 0xFF MUL NOT AND SWAP1 DUP4 PUSH1 0xFF AND MUL OR SWAP1 SSTORE POP PUSH1 0x60 DUP3 ADD MLOAD DUP2 PUSH1 0x0 ADD PUSH1 0x3 PUSH2 0x100 EXP DUP2 SLOAD DUP2 PUSH1 0xFF MUL NOT AND SWAP1 DUP4 PUSH1 0xFF AND MUL OR SWAP1 SSTORE POP PUSH1 0x80 DUP3 ADD MLOAD DUP2 PUSH1 0x0 ADD PUSH1 0x4 PUSH2 0x100 EXP DUP2 SLOAD DUP2 PUSH1 0xFF MUL NOT AND SWAP1 DUP4 PUSH1 0xFF AND MUL OR SWAP1 SSTORE POP PUSH1 0xA0 DUP3 ADD MLOAD DUP2 PUSH1 0x0 ADD PUSH1 0x5 PUSH2 0x100 EXP DUP2 SLOAD DUP2 PUSH1 0xFF MUL NOT AND SWAP1 DUP4 PUSH1 0xFF AND MUL OR SWAP1 SSTORE POP PUSH1 0xC0 DUP3 ADD MLOAD DUP2 PUSH1 0x0 ADD PUSH1 0x6 PUSH2 0x100 EXP DUP2 SLOAD DUP2 PUSH1 0xFF MUL NOT AND SWAP1 DUP4 PUSH1 0xFF AND MUL OR SWAP1 SSTORE POP PUSH1 0xE0 DUP3 ADD MLOAD DUP2 PUSH1 0x0 ADD PUSH1 0x7 PUSH2 0x100 EXP DUP2 SLOAD DUP2 PUSH1 0xFF MUL NOT AND SWAP1 DUP4 PUSH1 0xFF AND MUL OR SWAP1 SSTORE POP POP POP DUP1 DUP1 PUSH1 0x1 ADD SWAP2 POP POP PUSH2 0xBDE JUMP JUMPDEST POP POP PUSH1 0x7 DUP2 ADD SLOAD PUSH1 0x0 JUMPDEST DUP2 DUP2 LT ISZERO PUSH2 0xD8C JUMPI DUP3 PUSH1 0x7 ADD DUP1 SLOAD DUP1 PUSH2 0xD62 JUMPI INVALID JUMPDEST PUSH1 0x0 DUP3 DUP2 MSTORE PUSH1 0x20 SWAP1 KECCAK256 DUP2 ADD PUSH1 0x0 NOT SWAP1 DUP2 ADD DUP1 SLOAD PUSH1 0x1 PUSH1 0x1 PUSH1 0x78 SHL SUB NOT AND SWAP1 SSTORE ADD SWAP1 SSTORE PUSH1 0x1 ADD PUSH2 0xD4D JUMP JUMPDEST POP PUSH1 0x0 JUMPDEST DUP4 PUSH2 0x100 ADD MLOAD MLOAD DUP2 LT ISZERO PUSH2 0xE1D JUMPI DUP3 PUSH1 0x7 ADD DUP5 PUSH2 0x100 ADD MLOAD DUP3 DUP2 MLOAD DUP2 LT PUSH2 0xDB3 JUMPI INVALID JUMPDEST PUSH1 0x20 SWAP1 DUP2 MUL SWAP2 SWAP1 SWAP2 ADD DUP2 ADD MLOAD DUP3 SLOAD PUSH1 0x1 DUP2 DUP2 ADD DUP6 SSTORE PUSH1 0x0 SWAP5 DUP6 MSTORE SWAP4 DUP4 SWAP1 KECCAK256 DUP3 MLOAD SWAP2 ADD DUP1 SLOAD SWAP3 SWAP1 SWAP4 ADD MLOAD PUSH1 0x1 PUSH1 0x1 PUSH1 0x50 SHL SUB AND PUSH1 0x1 PUSH1 0x28 SHL MUL PUSH15 0xFFFFFFFFFFFFFFFFFFFF0000000000 NOT PUSH5 0xFFFFFFFFFF SWAP1 SWAP3 AND PUSH5 0xFFFFFFFFFF NOT SWAP1 SWAP4 AND SWAP3 SWAP1 SWAP3 OR AND OR SWAP1 SSTORE ADD PUSH2 0xD90 JUMP JUMPDEST POP POP POP POP POP JUMP JUMPDEST PUSH32 0x0 DUP2 JUMP JUMPDEST PUSH32 0x0 DUP2 JUMP JUMPDEST CALLER PUSH1 0x1 PUSH1 0x1 PUSH1 0xA0 SHL SUB PUSH32 0x0 AND EQ PUSH2 0xEA1 JUMPI PUSH1 0x0 DUP1 REVERT JUMPDEST PUSH1 0x0 DUP3 DUP2 MSTORE PUSH1 0x20 DUP2 SWAP1 MSTORE PUSH1 0x40 DUP2 KECCAK256 PUSH1 0x7 DUP2 ADD SLOAD SWAP1 SWAP2 JUMPDEST DUP2 DUP2 LT ISZERO PUSH2 0xEF6 JUMPI DUP3 PUSH1 0x7 ADD DUP1 SLOAD DUP1 PUSH2 0xECC JUMPI INVALID JUMPDEST PUSH1 0x0 DUP3 DUP2 MSTORE PUSH1 0x20 SWAP1 KECCAK256 DUP2 ADD PUSH1 0x0 NOT SWAP1 DUP2 ADD DUP1 SLOAD PUSH1 0x1 PUSH1 0x1 PUSH1 0x78 SHL SUB NOT AND SWAP1 SSTORE ADD SWAP1 SSTORE PUSH1 0x1 ADD PUSH2 0xEB7 JUMP JUMPDEST POP PUSH1 0x0 JUMPDEST DUP4 MLOAD DUP2 LT ISZERO PUSH2 0xE1D JUMPI DUP3 PUSH1 0x7 ADD DUP5 DUP3 DUP2 MLOAD DUP2 LT PUSH2 0xF13 JUMPI INVALID JUMPDEST PUSH1 0x20 SWAP1 DUP2 MUL SWAP2 SWAP1 SWAP2 ADD DUP2 ADD MLOAD DUP3 SLOAD PUSH1 0x1 DUP2 DUP2 ADD DUP6 SSTORE PUSH1 0x0 SWAP5 DUP6 MSTORE SWAP4 DUP4 SWAP1 KECCAK256 DUP3 MLOAD SWAP2 ADD DUP1 SLOAD SWAP3 SWAP1 SWAP4 ADD MLOAD PUSH1 0x1 PUSH1 0x1 PUSH1 0x50 SHL SUB AND PUSH1 0x1 PUSH1 0x28 SHL MUL PUSH15 0xFFFFFFFFFFFFFFFFFFFF0000000000 NOT PUSH5 0xFFFFFFFFFF SWAP1 SWAP3 AND PUSH5 0xFFFFFFFFFF NOT SWAP1 SWAP4 AND SWAP3 SWAP1 SWAP3 OR AND OR SWAP1 SSTORE ADD PUSH2 0xEFA JUMP JUMPDEST PUSH2 0xF85 PUSH2 0x1E79 JUMP JUMPDEST PUSH1 0x0 DUP1 DUP4 DUP2 MSTORE PUSH1 0x20 ADD SWAP1 DUP2 MSTORE PUSH1 0x20 ADD PUSH1 0x0 KECCAK256 PUSH1 0x40 MLOAD DUP1 PUSH2 0x120 ADD PUSH1 0x40 MSTORE SWAP1 DUP2 PUSH1 0x0 DUP3 ADD PUSH1 0x40 MLOAD DUP1 PUSH2 0x100 ADD PUSH1 0x40 MSTORE SWAP1 DUP2 PUSH1 0x0 DUP3 ADD PUSH1 0x0 SWAP1 SLOAD SWAP1 PUSH2 0x100 EXP SWAP1 DIV PUSH1 0xFF AND PUSH1 0xFF AND PUSH1 0xFF AND DUP2 MSTORE PUSH1 0x20 ADD PUSH1 0x0 DUP3 ADD PUSH1 0x1 SWAP1 SLOAD SWAP1 PUSH2 0x100 EXP SWAP1 DIV PUSH1 0xFF AND PUSH1 0xFF AND PUSH1 0xFF AND DUP2 MSTORE PUSH1 0x20 ADD PUSH1 0x0 DUP3 ADD PUSH1 0x2 SWAP1 SLOAD SWAP1 PUSH2 0x100 EXP SWAP1 DIV PUSH1 0xFF AND PUSH1 0xFF AND PUSH1 0xFF AND DUP2 MSTORE PUSH1 0x20 ADD PUSH1 0x0 DUP3 ADD PUSH1 0x3 SWAP1 SLOAD SWAP1 PUSH2 0x100 EXP SWAP1 DIV PUSH1 0xFF AND PUSH1 0xFF AND PUSH1 0xFF AND DUP2 MSTORE PUSH1 0x20 ADD PUSH1 0x0 DUP3 ADD PUSH1 0x4 SWAP1 SLOAD SWAP1 PUSH2 0x100 EXP SWAP1 DIV PUSH1 0xFF AND PUSH1 0xFF AND PUSH1 0xFF AND DUP2 MSTORE PUSH1 0x20 ADD PUSH1 0x0 DUP3 ADD PUSH1 0x5 SWAP1 SLOAD SWAP1 PUSH2 0x100 EXP SWAP1 DIV PUSH1 0xFF AND PUSH1 0xFF AND PUSH1 0xFF AND DUP2 MSTORE PUSH1 0x20 ADD PUSH1 0x0 DUP3 ADD PUSH1 0x6 SWAP1 SLOAD SWAP1 PUSH2 0x100 EXP SWAP1 DIV PUSH1 0xFF AND PUSH1 0xFF AND PUSH1 0xFF AND DUP2 MSTORE PUSH1 0x20 ADD PUSH1 0x0 DUP3 ADD PUSH1 0x7 SWAP1 SLOAD SWAP1 PUSH2 0x100 EXP SWAP1 DIV PUSH1 0xFF AND PUSH1 0xFF AND PUSH1 0xFF AND DUP2 MSTORE POP POP DUP2 MSTORE PUSH1 0x20 ADD PUSH1 0x1 DUP3 ADD PUSH1 0x0 SWAP1 SLOAD SWAP1 PUSH2 0x100 EXP SWAP1 DIV PUSH1 0x1 PUSH1 0x1 PUSH1 0xA0 SHL SUB AND PUSH1 0x1 PUSH1 0x1 PUSH1 0xA0 SHL SUB AND PUSH1 0x1 PUSH1 0x1 PUSH1 0xA0 SHL SUB AND DUP2 MSTORE PUSH1 0x20 ADD PUSH1 0x2 DUP3 ADD PUSH1 0x40 MLOAD DUP1 PUSH2 0x140 ADD PUSH1 0x40 MSTORE SWAP1 DUP2 PUSH1 0x0 DUP3 ADD PUSH1 0x0 SWAP1 SLOAD SWAP1 PUSH2 0x100 EXP SWAP1 DIV PUSH1 0xFF AND PUSH1 0xFF AND PUSH1 0xFF AND DUP2 MSTORE PUSH1 0x20 ADD PUSH1 0x0 DUP3 ADD PUSH1 0x1 SWAP1 SLOAD SWAP1 PUSH2 0x100 EXP SWAP1 DIV PUSH1 0xFF AND PUSH1 0xFF AND PUSH1 0xFF AND DUP2 MSTORE PUSH1 0x20 ADD PUSH1 0x0 DUP3 ADD PUSH1 0x2 SWAP1 SLOAD SWAP1 PUSH2 0x100 EXP SWAP1 DIV PUSH1 0xFF AND PUSH1 0xFF AND PUSH1 0xFF AND DUP2 MSTORE PUSH1 0x20 ADD PUSH1 0x0 DUP3 ADD PUSH1 0x3 SWAP1 SLOAD SWAP1 PUSH2 0x100 EXP SWAP1 DIV PUSH1 0xFF AND PUSH1 0xFF AND PUSH1 0xFF AND DUP2 MSTORE PUSH1 0x20 ADD PUSH1 0x0 DUP3 ADD PUSH1 0x4 SWAP1 SLOAD SWAP1 PUSH2 0x100 EXP SWAP1 DIV PUSH1 0xFF AND PUSH1 0xFF AND PUSH1 0xFF AND DUP2 MSTORE PUSH1 0x20 ADD PUSH1 0x0 DUP3 ADD PUSH1 0x5 SWAP1 SLOAD SWAP1 PUSH2 0x100 EXP SWAP1 DIV PUSH1 0xFF AND PUSH1 0xFF AND PUSH1 0xFF AND DUP2 MSTORE PUSH1 0x20 ADD PUSH1 0x0 DUP3 ADD PUSH1 0x6 SWAP1 SLOAD SWAP1 PUSH2 0x100 EXP SWAP1 DIV PUSH1 0xFF AND PUSH1 0xFF AND PUSH1 0xFF AND DUP2 MSTORE PUSH1 0x20 ADD PUSH1 0x0 DUP3 ADD PUSH1 0x7 SWAP1 SLOAD SWAP1 PUSH2 0x100 EXP SWAP1 DIV PUSH1 0xFF AND PUSH1 0xFF AND PUSH1 0xFF AND DUP2 MSTORE PUSH1 0x20 ADD PUSH1 0x0 DUP3 ADD PUSH1 0x8 SWAP1 SLOAD SWAP1 PUSH2 0x100 EXP SWAP1 DIV PUSH1 0xFF AND PUSH1 0xFF AND PUSH1 0xFF AND DUP2 MSTORE PUSH1 0x20 ADD PUSH1 0x0 DUP3 ADD PUSH1 0x9 SWAP1 SLOAD SWAP1 PUSH2 0x100 EXP SWAP1 DIV PUSH1 0xFF AND PUSH1 0xFF AND PUSH1 0xFF AND DUP2 MSTORE POP POP DUP2 MSTORE PUSH1 0x20 ADD PUSH1 0x3 DUP3 ADD PUSH1 0x0 SWAP1 SLOAD SWAP1 PUSH2 0x100 EXP SWAP1 DIV PUSH1 0xFF AND PUSH1 0xFF AND PUSH1 0xFF AND DUP2 MSTORE PUSH1 0x20 ADD PUSH1 0x3 DUP3 ADD PUSH1 0x1 SWAP1 SLOAD SWAP1 PUSH2 0x100 EXP SWAP1 DIV PUSH1 0xFF AND ISZERO ISZERO ISZERO ISZERO DUP2 MSTORE PUSH1 0x20 ADD PUSH1 0x4 DUP3 ADD DUP1 SLOAD PUSH1 0x1 DUP2 PUSH1 0x1 AND ISZERO PUSH2 0x100 MUL SUB AND PUSH1 0x2 SWAP1 DIV DUP1 PUSH1 0x1F ADD PUSH1 0x20 DUP1 SWAP2 DIV MUL PUSH1 0x20 ADD PUSH1 0x40 MLOAD SWAP1 DUP2 ADD PUSH1 0x40 MSTORE DUP1 SWAP3 SWAP2 SWAP1 DUP2 DUP2 MSTORE PUSH1 0x20 ADD DUP3 DUP1 SLOAD PUSH1 0x1 DUP2 PUSH1 0x1 AND ISZERO PUSH2 0x100 MUL SUB AND PUSH1 0x2 SWAP1 DIV DUP1 ISZERO PUSH2 0x12D7 JUMPI DUP1 PUSH1 0x1F LT PUSH2 0x12AC JUMPI PUSH2 0x100 DUP1 DUP4 SLOAD DIV MUL DUP4 MSTORE SWAP2 PUSH1 0x20 ADD SWAP2 PUSH2 0x12D7 JUMP JUMPDEST DUP3 ADD SWAP2 SWAP1 PUSH1 0x0 MSTORE PUSH1 0x20 PUSH1 0x0 KECCAK256 SWAP1 JUMPDEST DUP2 SLOAD DUP2 MSTORE SWAP1 PUSH1 0x1 ADD SWAP1 PUSH1 0x20 ADD DUP1 DUP4 GT PUSH2 0x12BA JUMPI DUP3 SWAP1 SUB PUSH1 0x1F AND DUP3 ADD SWAP2 JUMPDEST POP POP POP SWAP2 DUP4 MSTORE POP POP PUSH1 0x5 DUP3 ADD DUP1 SLOAD PUSH1 0x40 DUP1 MLOAD PUSH1 0x20 PUSH1 0x2 PUSH1 0x1 DUP6 AND ISZERO PUSH2 0x100 MUL PUSH1 0x0 NOT ADD SWAP1 SWAP5 AND SWAP4 SWAP1 SWAP4 DIV PUSH1 0x1F DUP2 ADD DUP5 SWAP1 DIV DUP5 MUL DUP3 ADD DUP5 ADD SWAP1 SWAP3 MSTORE DUP2 DUP2 MSTORE SWAP4 DUP3 ADD SWAP4 SWAP3 SWAP2 DUP4 ADD DUP3 DUP3 DUP1 ISZERO PUSH2 0x136B JUMPI DUP1 PUSH1 0x1F LT PUSH2 0x1340 JUMPI PUSH2 0x100 DUP1 DUP4 SLOAD DIV MUL DUP4 MSTORE SWAP2 PUSH1 0x20 ADD SWAP2 PUSH2 0x136B JUMP JUMPDEST DUP3 ADD SWAP2 SWAP1 PUSH1 0x0 MSTORE PUSH1 0x20 PUSH1 0x0 KECCAK256 SWAP1 JUMPDEST DUP2 SLOAD DUP2 MSTORE SWAP1 PUSH1 0x1 ADD SWAP1 PUSH1 0x20 ADD DUP1 DUP4 GT PUSH2 0x134E JUMPI DUP3 SWAP1 SUB PUSH1 0x1F AND DUP3 ADD SWAP2 JUMPDEST POP POP POP POP POP DUP2 MSTORE PUSH1 0x20 ADD PUSH1 0x6 DUP3 ADD DUP1 SLOAD DUP1 PUSH1 0x20 MUL PUSH1 0x20 ADD PUSH1 0x40 MLOAD SWAP1 DUP2 ADD PUSH1 0x40 MSTORE DUP1 SWAP3 SWAP2 SWAP1 DUP2 DUP2 MSTORE PUSH1 0x20 ADD PUSH1 0x0 SWAP1 JUMPDEST DUP3 DUP3 LT ISZERO PUSH2 0x1435 JUMPI PUSH1 0x0 DUP5 DUP2 MSTORE PUSH1 0x20 SWAP1 DUP2 SWAP1 KECCAK256 PUSH1 0x40 DUP1 MLOAD PUSH2 0x100 DUP1 DUP3 ADD DUP4 MSTORE SWAP3 DUP7 ADD SLOAD PUSH1 0xFF DUP1 DUP3 AND DUP4 MSTORE SWAP4 DUP2 DIV DUP5 AND DUP3 DUP7 ADD MSTORE PUSH3 0x10000 DUP2 DIV DUP5 AND SWAP3 DUP3 ADD SWAP3 SWAP1 SWAP3 MSTORE PUSH4 0x1000000 DUP3 DIV DUP4 AND PUSH1 0x60 DUP3 ADD MSTORE PUSH5 0x100000000 DUP3 DIV DUP4 AND PUSH1 0x80 DUP3 ADD MSTORE PUSH1 0x1 PUSH1 0x28 SHL DUP3 DIV DUP4 AND PUSH1 0xA0 DUP3 ADD MSTORE PUSH7 0x1000000000000 DUP3 DIV DUP4 AND PUSH1 0xC0 DUP3 ADD MSTORE PUSH1 0x1 PUSH1 0x38 SHL SWAP1 SWAP2 DIV SWAP1 SWAP2 AND PUSH1 0xE0 DUP3 ADD MSTORE DUP3 MSTORE PUSH1 0x1 SWAP1 SWAP3 ADD SWAP2 ADD PUSH2 0x1399 JUMP JUMPDEST POP POP POP POP DUP2 MSTORE PUSH1 0x20 ADD PUSH1 0x7 DUP3 ADD DUP1 SLOAD DUP1 PUSH1 0x20 MUL PUSH1 0x20 ADD PUSH1 0x40 MLOAD SWAP1 DUP2 ADD PUSH1 0x40 MSTORE DUP1 SWAP3 SWAP2 SWAP1 DUP2 DUP2 MSTORE PUSH1 0x20 ADD PUSH1 0x0 SWAP1 JUMPDEST DUP3 DUP3 LT ISZERO PUSH2 0x14AF JUMPI PUSH1 0x0 DUP5 DUP2 MSTORE PUSH1 0x20 SWAP1 DUP2 SWAP1 KECCAK256 PUSH1 0x40 DUP1 MLOAD DUP1 DUP3 ADD SWAP1 SWAP2 MSTORE SWAP1 DUP5 ADD SLOAD PUSH5 0xFFFFFFFFFF DUP2 AND DUP3 MSTORE PUSH1 0x1 PUSH1 0x28 SHL SWAP1 DIV PUSH1 0x1 PUSH1 0x1 PUSH1 0x50 SHL SUB AND DUP2 DUP4 ADD MSTORE DUP3 MSTORE PUSH1 0x1 SWAP1 SWAP3 ADD SWAP2 ADD PUSH2 0x1462 JUMP JUMPDEST POP POP POP POP DUP2 MSTORE POP POP SWAP1 POP JUMPDEST SWAP2 SWAP1 POP JUMP JUMPDEST PUSH1 0x60 DUP1 DUP7 MLOAD PUSH8 0xFFFFFFFFFFFFFFFF DUP2 GT DUP1 ISZERO PUSH2 0x14DA JUMPI PUSH1 0x0 DUP1 REVERT JUMPDEST POP PUSH1 0x40 MLOAD SWAP1 DUP1 DUP3 MSTORE DUP1 PUSH1 0x20 MUL PUSH1 0x20 ADD DUP3 ADD PUSH1 0x40 MSTORE DUP1 ISZERO PUSH2 0x1514 JUMPI DUP2 PUSH1 0x20 ADD JUMPDEST PUSH2 0x1501 PUSH2 0x1ED6 JUMP JUMPDEST DUP2 MSTORE PUSH1 0x20 ADD SWAP1 PUSH1 0x1 SWAP1 SUB SWAP1 DUP2 PUSH2 0x14F9 JUMPI SWAP1 POP JUMPDEST POP SWAP2 POP DUP7 MLOAD PUSH8 0xFFFFFFFFFFFFFFFF DUP2 GT DUP1 ISZERO PUSH2 0x152F JUMPI PUSH1 0x0 DUP1 REVERT JUMPDEST POP PUSH1 0x40 MLOAD SWAP1 DUP1 DUP3 MSTORE DUP1 PUSH1 0x20 MUL PUSH1 0x20 ADD DUP3 ADD PUSH1 0x40 MSTORE DUP1 ISZERO PUSH2 0x1559 JUMPI DUP2 PUSH1 0x20 ADD PUSH1 0x20 DUP3 MUL DUP1 CALLDATASIZE DUP4 CALLDATACOPY ADD SWAP1 POP JUMPDEST POP SWAP1 POP PUSH1 0x0 JUMPDEST DUP8 MLOAD DUP2 LT ISZERO PUSH2 0x1AEE JUMPI PUSH1 0x0 DUP9 DUP3 DUP2 MLOAD DUP2 LT PUSH2 0x1576 JUMPI INVALID JUMPDEST PUSH1 0x20 MUL PUSH1 0x20 ADD ADD MLOAD SWAP1 POP PUSH1 0x0 DUP9 DUP4 DUP2 MLOAD DUP2 LT PUSH2 0x158E JUMPI INVALID JUMPDEST PUSH1 0x20 MUL PUSH1 0x20 ADD ADD MLOAD SWAP1 POP PUSH1 0x0 PUSH2 0x15A7 DUP4 PUSH1 0x80 ADD MLOAD PUSH2 0x1AF9 JUMP JUMPDEST SWAP1 POP PUSH1 0x0 PUSH1 0x40 MLOAD DUP1 PUSH2 0x100 ADD PUSH1 0x40 MSTORE DUP1 PUSH1 0x64 PUSH4 0x3B9ACA00 DUP2 PUSH2 0x15C5 JUMPI INVALID JUMPDEST DUP8 MLOAD PUSH1 0xFF AND SWAP2 SWAP1 SDIV MUL DUP2 MSTORE PUSH1 0x20 ADD PUSH1 0x64 PUSH4 0x3B9ACA00 SDIV DUP7 PUSH1 0x20 ADD MLOAD PUSH1 0xFF AND MUL DUP2 MSTORE PUSH1 0x20 ADD PUSH2 0x100 DUP7 PUSH1 0x40 ADD MLOAD PUSH1 0xFF AND DUP6 MUL DUP2 PUSH2 0x15FD JUMPI INVALID JUMPDEST DIV DUP2 MSTORE PUSH1 0x20 ADD PUSH2 0x100 DUP7 PUSH1 0x60 ADD MLOAD PUSH1 0xFF AND DUP6 MUL DUP2 PUSH2 0x1617 JUMPI INVALID JUMPDEST DIV DUP2 MSTORE PUSH1 0x20 ADD DUP4 DUP2 MSTORE PUSH1 0x20 ADD PUSH1 0x0 DUP2 MSTORE PUSH1 0x20 ADD PUSH1 0x0 DUP2 MSTORE PUSH1 0x20 ADD PUSH1 0x0 DUP2 MSTORE POP SWAP1 POP PUSH1 0x0 PUSH2 0x166A PUSH1 0x0 DUP6 PUSH1 0x40 ADD MLOAD PUSH2 0x1665 DUP14 PUSH2 0x165F DUP15 DUP11 PUSH1 0x60 ADD MLOAD PUSH2 0x1B2E SWAP1 SWAP2 SWAP1 PUSH4 0xFFFFFFFF AND JUMP JUMPDEST SWAP1 PUSH2 0x1B7C JUMP JUMPDEST PUSH2 0x1BAD JUMP JUMPDEST SWAP1 POP PUSH4 0x3B9ACA00 DUP2 LT PUSH2 0x1698 JUMPI PUSH1 0x40 MLOAD PUSH3 0x461BCD PUSH1 0xE5 SHL DUP2 MSTORE PUSH1 0x4 ADD PUSH2 0x168F SWAP1 PUSH2 0x2996 JUMP JUMPDEST PUSH1 0x40 MLOAD DUP1 SWAP2 SUB SWAP1 REVERT JUMPDEST DUP2 PUSH1 0x80 ADD MLOAD DUP5 PUSH1 0xA0 ADD MLOAD LT PUSH2 0x16BF JUMPI PUSH1 0x40 MLOAD PUSH3 0x461BCD PUSH1 0xE5 SHL DUP2 MSTORE PUSH1 0x4 ADD PUSH2 0x168F SWAP1 PUSH2 0x2A13 JUMP JUMPDEST DUP2 MLOAD PUSH1 0x20 DUP4 ADD MLOAD PUSH1 0x2 SWAP1 DUP3 SWAP1 SUB DIV DUP2 ADD SWAP1 DUP3 GT PUSH2 0x1785 JUMPI PUSH1 0x0 PUSH2 0x16FD DUP4 PUSH2 0x16F7 DUP7 PUSH1 0x0 ADD MLOAD DUP10 PUSH1 0xA0 ADD MLOAD PUSH2 0x1BF7 SWAP1 SWAP2 SWAP1 PUSH4 0xFFFFFFFF AND JUMP JUMPDEST SWAP1 PUSH2 0x1C25 JUMP JUMPDEST SWAP1 POP DUP4 PUSH1 0x60 ADD MLOAD DUP2 LT PUSH2 0x1722 JUMPI PUSH1 0x40 MLOAD PUSH3 0x461BCD PUSH1 0xE5 SHL DUP2 MSTORE PUSH1 0x4 ADD PUSH2 0x168F SWAP1 PUSH2 0x29E9 JUMP JUMPDEST DUP13 ISZERO PUSH2 0x175A JUMPI PUSH3 0x186A0 PUSH1 0xFA MUL PUSH2 0x173D DUP3 DUP7 PUSH1 0x40 ADD MLOAD PUSH2 0x1C44 JUMP JUMPDEST LT PUSH2 0x175A JUMPI PUSH1 0x40 MLOAD PUSH3 0x461BCD PUSH1 0xE5 SHL DUP2 MSTORE PUSH1 0x4 ADD PUSH2 0x168F SWAP1 PUSH2 0x2A5F JUMP JUMPDEST PUSH1 0x40 DUP5 ADD DUP2 SWAP1 MSTORE PUSH2 0x1777 DUP6 PUSH2 0x100 DUP4 MUL DUP2 PUSH2 0x1771 JUMPI INVALID JUMPDEST DIV PUSH2 0x1C5A JUMP JUMPDEST PUSH1 0xFF AND PUSH1 0x40 DUP9 ADD MSTORE POP PUSH2 0x1A63 JUMP JUMPDEST DUP1 DUP3 LT ISZERO PUSH2 0x1879 JUMPI PUSH1 0x0 PUSH2 0x17DD PUSH2 0x17B7 PUSH2 0x17AC DUP7 PUSH1 0x0 ADD MLOAD DUP7 PUSH2 0x1C6E SWAP1 SWAP2 SWAP1 PUSH4 0xFFFFFFFF AND JUMP JUMPDEST PUSH1 0x60 DUP8 ADD MLOAD SWAP1 PUSH2 0x1C83 JUMP JUMPDEST DUP6 MLOAD PUSH1 0x20 DUP8 ADD MLOAD PUSH2 0x17D7 SWAP2 PUSH2 0x17CC SWAP2 SWAP1 PUSH2 0x1C6E JUMP JUMPDEST PUSH1 0xA0 DUP11 ADD MLOAD SWAP1 PUSH2 0x1C83 JUMP JUMPDEST SWAP1 PUSH2 0x1C6E JUMP JUMPDEST PUSH1 0x20 DUP6 ADD MLOAD SWAP1 SWAP2 POP DUP4 SWAP1 SUB PUSH1 0x0 PUSH2 0x17F4 DUP4 DUP4 PUSH2 0x1C9C JUMP JUMPDEST SWAP1 POP DUP6 PUSH1 0x60 ADD MLOAD DUP2 LT PUSH2 0x1819 JUMPI PUSH1 0x40 MLOAD PUSH3 0x461BCD PUSH1 0xE5 SHL DUP2 MSTORE PUSH1 0x4 ADD PUSH2 0x168F SWAP1 PUSH2 0x29E9 JUMP JUMPDEST DUP15 ISZERO PUSH2 0x1851 JUMPI PUSH3 0x186A0 PUSH1 0xFA MUL PUSH2 0x1834 DUP3 DUP9 PUSH1 0x40 ADD MLOAD PUSH2 0x1C44 JUMP JUMPDEST LT PUSH2 0x1851 JUMPI PUSH1 0x40 MLOAD PUSH3 0x461BCD PUSH1 0xE5 SHL DUP2 MSTORE PUSH1 0x4 ADD PUSH2 0x168F SWAP1 PUSH2 0x2A3A JUMP JUMPDEST PUSH1 0x40 DUP7 ADD DUP2 SWAP1 MSTORE PUSH2 0x1868 DUP8 PUSH2 0x100 DUP4 MUL DUP2 PUSH2 0x1771 JUMPI INVALID JUMPDEST PUSH1 0xFF AND PUSH1 0x40 DUP11 ADD MSTORE POP PUSH2 0x1A63 SWAP2 POP POP JUMP JUMPDEST DUP3 PUSH1 0x20 ADD MLOAD DUP3 LT ISZERO PUSH2 0x197B JUMPI PUSH1 0x0 PUSH2 0x18E3 PUSH2 0x18AF PUSH2 0x18A4 DUP7 PUSH1 0x0 ADD MLOAD DUP7 PUSH2 0x1C6E SWAP1 SWAP2 SWAP1 PUSH4 0xFFFFFFFF AND JUMP JUMPDEST PUSH1 0x40 DUP8 ADD MLOAD SWAP1 PUSH2 0x1C83 JUMP JUMPDEST DUP6 MLOAD PUSH1 0x20 DUP8 ADD MLOAD PUSH2 0x18DD SWAP2 PUSH2 0x18C4 SWAP2 SWAP1 PUSH2 0x1C6E JUMP JUMPDEST PUSH1 0x40 DUP9 ADD MLOAD PUSH1 0xA0 DUP12 ADD MLOAD PUSH2 0x18D7 SWAP2 PUSH2 0x1C6E JUMP JUMPDEST SWAP1 PUSH2 0x1C83 JUMP JUMPDEST SWAP1 PUSH2 0x1CB5 JUMP JUMPDEST DUP5 MLOAD SWAP1 SWAP2 POP DUP4 SUB PUSH1 0x0 PUSH2 0x18F6 DUP4 DUP4 PUSH2 0x1C9C JUMP JUMPDEST SWAP1 POP DUP6 PUSH1 0x80 ADD MLOAD DUP2 LT PUSH2 0x191B JUMPI PUSH1 0x40 MLOAD PUSH3 0x461BCD PUSH1 0xE5 SHL DUP2 MSTORE PUSH1 0x4 ADD PUSH2 0x168F SWAP1 PUSH2 0x2A13 JUMP JUMPDEST DUP15 ISZERO PUSH2 0x1953 JUMPI PUSH3 0x186A0 PUSH1 0xFA MUL PUSH2 0x1936 DUP3 DUP9 PUSH1 0x60 ADD MLOAD PUSH2 0x1C44 JUMP JUMPDEST LT PUSH2 0x1953 JUMPI PUSH1 0x40 MLOAD PUSH3 0x461BCD PUSH1 0xE5 SHL DUP2 MSTORE PUSH1 0x4 ADD PUSH2 0x168F SWAP1 PUSH2 0x2A3A JUMP JUMPDEST PUSH1 0x60 DUP7 ADD DUP2 SWAP1 MSTORE PUSH2 0x196A DUP8 PUSH2 0x100 DUP4 MUL DUP2 PUSH2 0x1771 JUMPI INVALID JUMPDEST PUSH1 0xFF AND PUSH1 0x60 DUP11 ADD MSTORE POP PUSH2 0x1A63 SWAP2 POP POP JUMP JUMPDEST PUSH1 0x0 PUSH2 0x19C3 PUSH2 0x19A5 PUSH2 0x199A DUP7 PUSH1 0x20 ADD MLOAD DUP7 PUSH2 0x1C6E SWAP1 SWAP2 SWAP1 PUSH4 0xFFFFFFFF AND JUMP JUMPDEST PUSH1 0x80 DUP8 ADD MLOAD SWAP1 PUSH2 0x1C83 JUMP JUMPDEST PUSH2 0x17D7 PUSH2 0x17CC DUP8 PUSH1 0x20 ADD MLOAD PUSH4 0x3B9ACA00 PUSH2 0x1C6E SWAP1 SWAP2 SWAP1 PUSH4 0xFFFFFFFF AND JUMP JUMPDEST SWAP1 POP PUSH1 0x0 PUSH2 0x19D5 PUSH4 0x3B9ACA00 DUP6 PUSH2 0x1C6E JUMP JUMPDEST SWAP1 POP PUSH1 0x0 PUSH2 0x19E3 DUP4 DUP4 PUSH2 0x1C9C JUMP JUMPDEST SWAP1 POP DUP6 PUSH1 0x80 ADD MLOAD DUP2 LT PUSH2 0x1A08 JUMPI PUSH1 0x40 MLOAD PUSH3 0x461BCD PUSH1 0xE5 SHL DUP2 MSTORE PUSH1 0x4 ADD PUSH2 0x168F SWAP1 PUSH2 0x2A13 JUMP JUMPDEST DUP15 ISZERO PUSH2 0x1A40 JUMPI PUSH3 0x186A0 PUSH1 0xFA MUL PUSH2 0x1A23 DUP3 DUP9 PUSH1 0x60 ADD MLOAD PUSH2 0x1C44 JUMP JUMPDEST LT PUSH2 0x1A40 JUMPI PUSH1 0x40 MLOAD PUSH3 0x461BCD PUSH1 0xE5 SHL DUP2 MSTORE PUSH1 0x4 ADD PUSH2 0x168F SWAP1 PUSH2 0x2971 JUMP JUMPDEST PUSH1 0x60 DUP7 ADD DUP2 SWAP1 MSTORE PUSH2 0x1A57 DUP8 PUSH2 0x100 DUP4 MUL DUP2 PUSH2 0x1771 JUMPI INVALID JUMPDEST PUSH1 0xFF AND PUSH1 0x60 DUP11 ADD MSTORE POP POP POP JUMPDEST PUSH1 0x0 PUSH2 0x1A6F DUP5 DUP5 PUSH2 0x1CC7 JUMP JUMPDEST SWAP1 POP DUP13 ISZERO PUSH2 0x1AAB JUMPI PUSH2 0x2710 PUSH4 0x3B9ACA00 SDIV PUSH2 0x1A8E DUP3 DUP9 PUSH1 0xA0 ADD MLOAD PUSH2 0x1C44 JUMP JUMPDEST LT PUSH2 0x1AAB JUMPI PUSH1 0x40 MLOAD PUSH3 0x461BCD PUSH1 0xE5 SHL DUP2 MSTORE PUSH1 0x4 ADD PUSH2 0x168F SWAP1 PUSH2 0x29C0 JUMP JUMPDEST DUP7 DUP11 DUP10 DUP2 MLOAD DUP2 LT PUSH2 0x1AB8 JUMPI INVALID JUMPDEST PUSH1 0x20 MUL PUSH1 0x20 ADD ADD DUP2 SWAP1 MSTORE POP DUP1 DUP10 DUP10 DUP2 MLOAD DUP2 LT PUSH2 0x1AD0 JUMPI INVALID JUMPDEST PUSH1 0x20 SWAP1 DUP2 MUL SWAP2 SWAP1 SWAP2 ADD ADD MSTORE POP POP PUSH1 0x1 SWAP1 SWAP6 ADD SWAP5 POP PUSH2 0x155F SWAP4 POP POP POP POP JUMP JUMPDEST POP SWAP6 POP SWAP6 SWAP4 POP POP POP POP JUMP JUMPDEST PUSH1 0x0 DUP2 PUSH1 0xFF AND PUSH1 0x96 LT PUSH2 0x1B14 JUMPI PUSH1 0xFF DUP3 AND PUSH3 0x2625A0 MUL PUSH2 0x1B28 JUMP JUMPDEST PUSH4 0x165A0BC0 PUSH3 0xE4E1C0 PUSH1 0xFF DUP5 AND PUSH1 0x95 NOT ADD MUL ADD JUMPDEST SWAP3 SWAP2 POP POP JUMP JUMPDEST DUP2 DUP2 MUL PUSH1 0x0 NOT DUP4 EQ ISZERO PUSH2 0x1B5E JUMPI DUP2 ISZERO DUP1 PUSH2 0x1B50 JUMPI POP DUP3 DUP3 DUP3 DUP2 PUSH2 0x1B4D JUMPI INVALID JUMPDEST SDIV EQ JUMPDEST PUSH2 0x1B59 JUMPI PUSH1 0x0 DUP1 REVERT JUMPDEST PUSH2 0x1B28 JUMP JUMPDEST DUP3 ISZERO DUP1 PUSH2 0x1B73 JUMPI POP DUP2 DUP4 DUP3 DUP2 PUSH2 0x1B70 JUMPI INVALID JUMPDEST SDIV EQ JUMPDEST PUSH2 0x1B28 JUMPI PUSH1 0x0 DUP1 REVERT JUMPDEST PUSH1 0x0 DUP2 PUSH1 0x0 NOT EQ DUP1 ISZERO PUSH2 0x1B92 JUMPI POP PUSH1 0x1 PUSH1 0xFF SHL DUP4 EQ JUMPDEST ISZERO PUSH2 0x1B9C JUMPI PUSH1 0x0 DUP1 REVERT JUMPDEST DUP2 DUP4 DUP2 PUSH2 0x1BA5 JUMPI INVALID JUMPDEST SDIV SWAP4 SWAP3 POP POP POP JUMP JUMPDEST PUSH1 0x0 DUP1 DUP4 SLT ISZERO PUSH2 0x1BBC JUMPI PUSH1 0x0 DUP1 REVERT JUMPDEST PUSH1 0x0 DUP3 SLT ISZERO PUSH2 0x1BCA JUMPI PUSH1 0x0 DUP1 REVERT JUMPDEST PUSH2 0x1BEF PUSH2 0x1BEA PUSH2 0x1BDA DUP5 DUP7 PUSH2 0x1D81 JUMP JUMPDEST PUSH2 0x1BE4 DUP7 DUP9 PUSH2 0x1D97 JUMP JUMPDEST SWAP1 PUSH2 0x1DB3 JUMP JUMPDEST PUSH2 0x1DCC JUMP JUMPDEST SWAP5 SWAP4 POP POP POP POP JUMP JUMPDEST PUSH1 0x0 DUP3 PUSH2 0x1C06 JUMPI POP PUSH1 0x0 PUSH2 0x1B28 JUMP JUMPDEST DUP3 DUP3 MUL DUP3 DUP5 DUP3 DUP2 PUSH2 0x1C13 JUMPI INVALID JUMPDEST DIV EQ PUSH2 0x1C1E JUMPI PUSH1 0x0 DUP1 REVERT JUMPDEST SWAP4 SWAP3 POP POP POP JUMP JUMPDEST PUSH1 0x0 DUP1 DUP3 GT PUSH2 0x1C33 JUMPI PUSH1 0x0 DUP1 REVERT JUMPDEST DUP2 DUP4 DUP2 PUSH2 0x1C3C JUMPI INVALID JUMPDEST DIV SWAP4 SWAP3 POP POP POP JUMP JUMPDEST PUSH1 0x0 DUP2 DUP4 LT PUSH2 0x1C55 JUMPI DUP2 DUP4 SUB PUSH2 0x1C1E JUMP JUMPDEST POP SUB SWAP1 JUMP JUMPDEST PUSH1 0x0 PUSH1 0xFF DUP3 GT ISZERO PUSH2 0x1C6A JUMPI PUSH1 0x0 DUP1 REVERT JUMPDEST POP SWAP1 JUMP JUMPDEST PUSH1 0x0 DUP3 DUP3 GT ISZERO PUSH2 0x1C7D JUMPI PUSH1 0x0 DUP1 REVERT JUMPDEST POP SWAP1 SUB SWAP1 JUMP JUMPDEST PUSH1 0x0 PUSH2 0x1C1E PUSH2 0x1C92 DUP5 DUP5 PUSH2 0x1BF7 JUMP JUMPDEST PUSH4 0x3B9ACA00 PUSH2 0x1C25 JUMP JUMPDEST PUSH1 0x0 PUSH2 0x1C1E PUSH2 0x1CAF DUP5 PUSH4 0x3B9ACA00 PUSH2 0x1BF7 JUMP JUMPDEST DUP4 PUSH2 0x1C25 JUMP JUMPDEST PUSH1 0x0 DUP3 DUP3 ADD DUP4 DUP2 LT ISZERO PUSH2 0x1C1E JUMPI PUSH1 0x0 DUP1 REVERT JUMPDEST PUSH1 0x0 DUP1 DUP4 PUSH1 0x80 ADD MLOAD GT PUSH2 0x1CD9 JUMPI PUSH1 0x0 DUP1 REVERT JUMPDEST PUSH4 0x3B9ACA00 DUP3 GT ISZERO PUSH2 0x1CEA JUMPI PUSH1 0x0 DUP1 REVERT JUMPDEST DUP3 MLOAD DUP3 GT PUSH2 0x1D10 JUMPI DUP3 MLOAD PUSH1 0x40 DUP5 ADD MLOAD PUSH2 0x1D09 SWAP2 SWAP1 PUSH2 0x16F7 SWAP1 DUP6 SWAP1 PUSH2 0x1BF7 JUMP JUMPDEST SWAP1 POP PUSH2 0x1B28 JUMP JUMPDEST DUP3 PUSH1 0x20 ADD MLOAD DUP3 GT PUSH2 0x1D48 JUMPI PUSH1 0x40 DUP4 ADD MLOAD DUP4 MLOAD PUSH1 0x20 DUP6 ADD MLOAD PUSH1 0x60 DUP7 ADD MLOAD PUSH2 0x1D09 SWAP4 SWAP3 PUSH2 0x18DD SWAP3 DUP2 SWAP1 SUB SWAP2 PUSH2 0x16F7 SWAP2 DUP9 SUB SWAP1 DUP6 SWAP1 SUB PUSH2 0x1BF7 JUMP JUMPDEST PUSH2 0x1C1E DUP4 PUSH1 0x60 ADD MLOAD PUSH2 0x18DD DUP6 PUSH1 0x20 ADD MLOAD PUSH4 0x3B9ACA00 SUB PUSH2 0x16F7 DUP8 PUSH1 0x60 ADD MLOAD DUP9 PUSH1 0x80 ADD MLOAD SUB DUP9 PUSH1 0x20 ADD MLOAD DUP9 SUB PUSH2 0x1BF7 SWAP1 SWAP2 SWAP1 PUSH4 0xFFFFFFFF AND JUMP JUMPDEST DUP2 DUP2 ADD DUP3 DUP2 SLT ISZERO PUSH1 0x0 DUP4 SLT ISZERO EQ PUSH2 0x1B28 JUMPI PUSH1 0x0 DUP1 REVERT JUMPDEST PUSH1 0x0 PUSH2 0x1DA3 DUP4 DUP4 PUSH2 0x1DDB JUMP JUMPDEST SWAP1 POP PUSH1 0x0 DUP2 SLT ISZERO PUSH2 0x1B28 JUMPI PUSH1 0x0 DUP1 REVERT JUMPDEST PUSH1 0x0 PUSH2 0x1C1E PUSH2 0x1DC6 DUP5 PUSH4 0x3B9ACA00 PUSH2 0x1B2E JUMP JUMPDEST DUP4 PUSH2 0x1B7C JUMP JUMPDEST PUSH1 0x0 DUP1 DUP3 SLT ISZERO PUSH2 0x1C6A JUMPI PUSH1 0x0 DUP1 REVERT JUMPDEST DUP1 DUP3 SUB DUP3 DUP2 SGT ISZERO PUSH1 0x0 DUP4 SLT ISZERO EQ PUSH2 0x1B28 JUMPI PUSH1 0x0 DUP1 REVERT JUMPDEST DUP3 DUP1 SLOAD PUSH1 0x1 DUP2 PUSH1 0x1 AND ISZERO PUSH2 0x100 MUL SUB AND PUSH1 0x2 SWAP1 DIV SWAP1 PUSH1 0x0 MSTORE PUSH1 0x20 PUSH1 0x0 KECCAK256 SWAP1 PUSH1 0x1F ADD PUSH1 0x20 SWAP1 DIV DUP2 ADD SWAP3 DUP3 PUSH2 0x1E27 JUMPI PUSH1 0x0 DUP6 SSTORE PUSH2 0x1E6D JUMP JUMPDEST DUP3 PUSH1 0x1F LT PUSH2 0x1E40 JUMPI DUP1 MLOAD PUSH1 0xFF NOT AND DUP4 DUP1 ADD OR DUP6 SSTORE PUSH2 0x1E6D JUMP JUMPDEST DUP3 DUP1 ADD PUSH1 0x1 ADD DUP6 SSTORE DUP3 ISZERO PUSH2 0x1E6D JUMPI SWAP2 DUP3 ADD JUMPDEST DUP3 DUP2 GT ISZERO PUSH2 0x1E6D JUMPI DUP3 MLOAD DUP3 SSTORE SWAP2 PUSH1 0x20 ADD SWAP2 SWAP1 PUSH1 0x1 ADD SWAP1 PUSH2 0x1E52 JUMP JUMPDEST POP PUSH2 0x1C6A SWAP3 SWAP2 POP PUSH2 0x1F1A JUMP JUMPDEST PUSH1 0x40 MLOAD DUP1 PUSH2 0x120 ADD PUSH1 0x40 MSTORE DUP1 PUSH2 0x1E8D PUSH2 0x1ED6 JUMP JUMPDEST DUP2 MSTORE PUSH1 0x0 PUSH1 0x20 DUP3 ADD MSTORE PUSH1 0x40 ADD PUSH2 0x1EA1 PUSH2 0x1F2F JUMP JUMPDEST DUP2 MSTORE PUSH1 0x20 ADD PUSH1 0x0 PUSH1 0xFF AND DUP2 MSTORE PUSH1 0x20 ADD PUSH1 0x0 ISZERO ISZERO DUP2 MSTORE PUSH1 0x20 ADD PUSH1 0x60 DUP2 MSTORE PUSH1 0x20 ADD PUSH1 0x60 DUP2 MSTORE PUSH1 0x20 ADD PUSH1 0x60 DUP2 MSTORE PUSH1 0x20 ADD PUSH1 0x60 DUP2 MSTORE POP SWAP1 JUMP JUMPDEST PUSH1 0x40 DUP1 MLOAD PUSH2 0x100 DUP2 ADD DUP3 MSTORE PUSH1 0x0 DUP1 DUP3 MSTORE PUSH1 0x20 DUP3 ADD DUP2 SWAP1 MSTORE SWAP2 DUP2 ADD DUP3 SWAP1 MSTORE PUSH1 0x60 DUP2 ADD DUP3 SWAP1 MSTORE PUSH1 0x80 DUP2 ADD DUP3 SWAP1 MSTORE PUSH1 0xA0 DUP2 ADD DUP3 SWAP1 MSTORE PUSH1 0xC0 DUP2 ADD DUP3 SWAP1 MSTORE PUSH1 0xE0 DUP2 ADD SWAP2 SWAP1 SWAP2 MSTORE SWAP1 JUMP JUMPDEST JUMPDEST DUP1 DUP3 GT ISZERO PUSH2 0x1C6A JUMPI PUSH1 0x0 DUP2 SSTORE PUSH1 0x1 ADD PUSH2 0x1F1B JUMP JUMPDEST PUSH1 0x40 DUP1 MLOAD PUSH2 0x140 DUP2 ADD DUP3 MSTORE PUSH1 0x0 DUP1 DUP3 MSTORE PUSH1 0x20 DUP3 ADD DUP2 SWAP1 MSTORE SWAP2 DUP2 ADD DUP3 SWAP1 MSTORE PUSH1 0x60 DUP2 ADD DUP3 SWAP1 MSTORE PUSH1 0x80 DUP2 ADD DUP3 SWAP1 MSTORE PUSH1 0xA0 DUP2 ADD DUP3 SWAP1 MSTORE PUSH1 0xC0 DUP2 ADD DUP3 SWAP1 MSTORE PUSH1 0xE0 DUP2 ADD DUP3 SWAP1 MSTORE PUSH2 0x100 DUP2 ADD DUP3 SWAP1 MSTORE PUSH2 0x120 DUP2 ADD SWAP2 SWAP1 SWAP2 MSTORE SWAP1 JUMP JUMPDEST PUSH1 0x0 DUP3 PUSH1 0x1F DUP4 ADD SLT PUSH2 0x1F93 JUMPI DUP1 DUP2 REVERT JUMPDEST DUP2 CALLDATALOAD PUSH1 0x20 PUSH2 0x1FA8 PUSH2 0x1FA3 DUP4 PUSH2 0x2B9D JUMP JUMPDEST PUSH2 0x2B79 JUMP JUMPDEST DUP3 DUP2 MSTORE DUP2 DUP2 ADD SWAP1 DUP6 DUP4 ADD PUSH2 0x100 DUP1 DUP7 MUL DUP9 ADD DUP6 ADD DUP10 LT ISZERO PUSH2 0x1FC7 JUMPI DUP7 DUP8 REVERT JUMPDEST DUP7 JUMPDEST DUP7 DUP2 LT ISZERO PUSH2 0x1FED JUMPI PUSH2 0x1FDB DUP11 DUP5 PUSH2 0x2261 JUMP JUMPDEST DUP6 MSTORE SWAP4 DUP6 ADD SWAP4 SWAP2 DUP2 ADD SWAP2 PUSH1 0x1 ADD PUSH2 0x1FC9 JUMP JUMPDEST POP SWAP2 SWAP9 SWAP8 POP POP POP POP POP POP POP POP JUMP JUMPDEST PUSH1 0x0 DUP3 PUSH1 0x1F DUP4 ADD SLT PUSH2 0x200B JUMPI DUP1 DUP2 REVERT JUMPDEST DUP2 CALLDATALOAD PUSH1 0x20 PUSH2 0x201B PUSH2 0x1FA3 DUP4 PUSH2 0x2B9D JUMP JUMPDEST DUP3 DUP2 MSTORE DUP2 DUP2 ADD SWAP1 DUP6 DUP4 ADD PUSH1 0x40 DUP1 DUP7 MUL DUP9 ADD DUP6 ADD DUP10 LT ISZERO PUSH2 0x2039 JUMPI DUP7 DUP8 REVERT JUMPDEST DUP7 JUMPDEST DUP7 DUP2 LT ISZERO PUSH2 0x1FED JUMPI DUP2 DUP4 DUP12 SUB SLT ISZERO PUSH2 0x2051 JUMPI DUP8 DUP9 REVERT JUMPDEST DUP2 MLOAD DUP3 DUP2 ADD DUP2 DUP2 LT PUSH8 0xFFFFFFFFFFFFFFFF DUP3 GT OR ISZERO PUSH2 0x206C JUMPI INVALID JUMPDEST DUP4 MSTORE DUP4 CALLDATALOAD PUSH5 0xFFFFFFFFFF DUP2 AND DUP2 EQ PUSH2 0x2082 JUMPI DUP10 DUP11 REVERT JUMPDEST DUP2 MSTORE DUP4 DUP8 ADD CALLDATALOAD PUSH1 0x1 PUSH1 0x1 PUSH1 0x50 SHL SUB DUP2 AND DUP2 EQ PUSH2 0x209C JUMPI DUP10 DUP11 REVERT JUMPDEST DUP2 DUP9 ADD MSTORE DUP6 MSTORE SWAP4 DUP6 ADD SWAP4 SWAP2 DUP2 ADD SWAP2 PUSH1 0x1 ADD PUSH2 0x203B JUMP JUMPDEST DUP1 CALLDATALOAD PUSH2 0x14BA DUP2 PUSH2 0x2BBB JUMP JUMPDEST DUP1 MLOAD PUSH2 0x14BA DUP2 PUSH2 0x2BBB JUMP JUMPDEST DUP1 CALLDATALOAD PUSH2 0x14BA DUP2 PUSH2 0x2BCC JUMP JUMPDEST PUSH1 0x0 DUP3 PUSH1 0x1F DUP4 ADD SLT PUSH2 0x20E3 JUMPI DUP1 DUP2 REVERT JUMPDEST DUP2 CALLDATALOAD PUSH8 0xFFFFFFFFFFFFFFFF DUP2 GT ISZERO PUSH2 0x20F7 JUMPI INVALID JUMPDEST PUSH2 0x210A PUSH1 0x1F DUP3 ADD PUSH1 0x1F NOT AND PUSH1 0x20 ADD PUSH2 0x2B79 JUMP JUMPDEST DUP2 DUP2 MSTORE DUP5 PUSH1 0x20 DUP4 DUP7 ADD ADD GT ISZERO PUSH2 0x211E JUMPI DUP3 DUP4 REVERT JUMPDEST DUP2 PUSH1 0x20 DUP6 ADD PUSH1 0x20 DUP4 ADD CALLDATACOPY SWAP1 DUP2 ADD PUSH1 0x20 ADD SWAP2 SWAP1 SWAP2 MSTORE SWAP3 SWAP2 POP POP JUMP JUMPDEST PUSH1 0x0 PUSH1 0x40 DUP3 DUP5 SUB SLT ISZERO PUSH2 0x2149 JUMPI DUP1 DUP2 REVERT JUMPDEST PUSH1 0x40 MLOAD PUSH1 0x40 DUP2 ADD DUP2 DUP2 LT PUSH8 0xFFFFFFFFFFFFFFFF DUP3 GT OR ISZERO PUSH2 0x2166 JUMPI INVALID JUMPDEST DUP1 PUSH1 0x40 MSTORE POP DUP1 SWAP2 POP DUP3 MLOAD PUSH2 0x2179 DUP2 PUSH2 0x2BCC JUMP JUMPDEST DUP2 MSTORE PUSH1 0x20 DUP4 ADD MLOAD PUSH2 0x2189 DUP2 PUSH2 0x2BE1 JUMP JUMPDEST PUSH1 0x20 SWAP2 SWAP1 SWAP2 ADD MSTORE SWAP3 SWAP2 POP POP JUMP JUMPDEST PUSH1 0x0 PUSH2 0x140 DUP1 DUP4 DUP6 SUB SLT ISZERO PUSH2 0x21A9 JUMPI DUP2 DUP3 REVERT JUMPDEST PUSH2 0x21B2 DUP2 PUSH2 0x2B79 JUMP JUMPDEST SWAP2 POP POP PUSH2 0x21BE DUP3 PUSH2 0x2322 JUMP JUMPDEST DUP2 MSTORE PUSH2 0x21CC PUSH1 0x20 DUP4 ADD PUSH2 0x2322 JUMP JUMPDEST PUSH1 0x20 DUP3 ADD MSTORE PUSH2 0x21DD PUSH1 0x40 DUP4 ADD PUSH2 0x2322 JUMP JUMPDEST PUSH1 0x40 DUP3 ADD MSTORE PUSH2 0x21EE PUSH1 0x60 DUP4 ADD PUSH2 0x2322 JUMP JUMPDEST PUSH1 0x60 DUP3 ADD MSTORE PUSH2 0x21FF PUSH1 0x80 DUP4 ADD PUSH2 0x2322 JUMP JUMPDEST PUSH1 0x80 DUP3 ADD MSTORE PUSH2 0x2210 PUSH1 0xA0 DUP4 ADD PUSH2 0x2322 JUMP JUMPDEST PUSH1 0xA0 DUP3 ADD MSTORE PUSH2 0x2221 PUSH1 0xC0 DUP4 ADD PUSH2 0x2322 JUMP JUMPDEST PUSH1 0xC0 DUP3 ADD MSTORE PUSH2 0x2232 PUSH1 0xE0 DUP4 ADD PUSH2 0x2322 JUMP JUMPDEST PUSH1 0xE0 DUP3 ADD MSTORE PUSH2 0x100 PUSH2 0x2245 DUP2 DUP5 ADD PUSH2 0x2322 JUMP JUMPDEST SWAP1 DUP3 ADD MSTORE PUSH2 0x120 PUSH2 0x2257 DUP4 DUP3 ADD PUSH2 0x2322 JUMP JUMPDEST SWAP1 DUP3 ADD MSTORE SWAP3 SWAP2 POP POP JUMP JUMPDEST PUSH1 0x0 PUSH2 0x100 DUP1 DUP4 DUP6 SUB SLT ISZERO PUSH2 0x2274 JUMPI DUP2 DUP3 REVERT JUMPDEST PUSH1 0x40 MLOAD SWAP1 DUP2 ADD SWAP1 PUSH8 0xFFFFFFFFFFFFFFFF DUP3 GT DUP2 DUP4 LT OR ISZERO PUSH2 0x2291 JUMPI INVALID JUMPDEST DUP2 PUSH1 0x40 MSTORE DUP1 SWAP3 POP PUSH2 0x22A1 DUP5 PUSH2 0x2322 JUMP JUMPDEST DUP2 MSTORE PUSH2 0x22AF PUSH1 0x20 DUP6 ADD PUSH2 0x2322 JUMP JUMPDEST PUSH1 0x20 DUP3 ADD MSTORE PUSH2 0x22C0 PUSH1 0x40 DUP6 ADD PUSH2 0x2322 JUMP JUMPDEST PUSH1 0x40 DUP3 ADD MSTORE PUSH2 0x22D1 PUSH1 0x60 DUP6 ADD PUSH2 0x2322 JUMP JUMPDEST PUSH1 0x60 DUP3 ADD MSTORE PUSH2 0x22E2 PUSH1 0x80 DUP6 ADD PUSH2 0x2322 JUMP JUMPDEST PUSH1 0x80 DUP3 ADD MSTORE PUSH2 0x22F3 PUSH1 0xA0 DUP6 ADD PUSH2 0x2322 JUMP JUMPDEST PUSH1 0xA0 DUP3 ADD MSTORE PUSH2 0x2304 PUSH1 0xC0 DUP6 ADD PUSH2 0x2322 JUMP JUMPDEST PUSH1 0xC0 DUP3 ADD MSTORE PUSH2 0x2315 PUSH1 0xE0 DUP6 ADD PUSH2 0x2322 JUMP JUMPDEST PUSH1 0xE0 DUP3 ADD MSTORE POP POP SWAP3 SWAP2 POP POP JUMP JUMPDEST DUP1 CALLDATALOAD PUSH2 0x14BA DUP2 PUSH2 0x2BE1 JUMP JUMPDEST DUP1 MLOAD PUSH2 0x14BA DUP2 PUSH2 0x2BE1 JUMP JUMPDEST PUSH1 0x0 PUSH1 0x20 DUP1 DUP4 DUP6 SUB SLT ISZERO PUSH2 0x234A JUMPI DUP2 DUP3 REVERT JUMPDEST DUP3 MLOAD PUSH8 0xFFFFFFFFFFFFFFFF DUP1 DUP3 GT ISZERO PUSH2 0x2361 JUMPI DUP4 DUP5 REVERT JUMPDEST DUP2 DUP6 ADD SWAP2 POP DUP6 PUSH1 0x1F DUP4 ADD SLT PUSH2 0x2374 JUMPI DUP4 DUP5 REVERT JUMPDEST DUP2 MLOAD PUSH2 0x2382 PUSH2 0x1FA3 DUP3 PUSH2 0x2B9D JUMP JUMPDEST DUP2 DUP2 MSTORE DUP5 DUP2 ADD SWAP1 DUP5 DUP7 ADD PUSH2 0x100 DUP1 DUP6 MUL DUP8 ADD DUP9 ADD DUP12 LT ISZERO PUSH2 0x23A1 JUMPI DUP9 DUP10 REVERT JUMPDEST DUP9 SWAP7 POP JUMPDEST DUP5 DUP8 LT ISZERO PUSH2 0x2431 JUMPI DUP1 DUP3 DUP13 SUB SLT ISZERO PUSH2 0x23BB JUMPI DUP9 DUP10 REVERT JUMPDEST PUSH1 0x40 DUP1 MLOAD DUP3 DUP2 ADD DUP2 DUP2 LT DUP10 DUP3 GT OR ISZERO PUSH2 0x23D0 JUMPI INVALID JUMPDEST DUP3 MSTORE DUP4 MLOAD DUP2 MSTORE DUP10 DUP5 ADD MLOAD DUP11 DUP3 ADD MSTORE DUP4 DUP3 ADD MLOAD SWAP2 DUP2 ADD SWAP2 SWAP1 SWAP2 MSTORE PUSH1 0x60 DUP1 DUP5 ADD MLOAD SWAP1 DUP3 ADD MSTORE PUSH1 0x80 DUP1 DUP5 ADD MLOAD SWAP1 DUP3 ADD MSTORE PUSH1 0xA0 DUP1 DUP5 ADD MLOAD SWAP1 DUP3 ADD MSTORE PUSH1 0xC0 DUP1 DUP5 ADD MLOAD SWAP1 DUP3 ADD MSTORE PUSH1 0xE0 DUP1 DUP5 ADD MLOAD SWAP1 DUP3 ADD MSTORE DUP5 MSTORE PUSH1 0x1 SWAP7 SWAP1 SWAP7 ADD SWAP6 SWAP3 DUP8 ADD SWAP3 SWAP1 DUP2 ADD SWAP1 PUSH2 0x23A5 JUMP JUMPDEST POP SWAP1 SWAP10 SWAP9 POP POP POP POP POP POP POP POP POP JUMP JUMPDEST PUSH1 0x0 PUSH1 0x20 DUP3 DUP5 SUB SLT ISZERO PUSH2 0x2451 JUMPI DUP1 DUP2 REVERT JUMPDEST POP MLOAD SWAP2 SWAP1 POP JUMP JUMPDEST PUSH1 0x0 DUP1 DUP3 DUP5 SUB PUSH2 0x100 DUP2 SLT ISZERO PUSH2 0x246C JUMPI DUP2 DUP3 REVERT JUMPDEST PUSH1 0xC0 DUP2 SLT ISZERO PUSH2 0x2479 JUMPI DUP2 DUP3 REVERT JUMPDEST POP PUSH1 0x40 MLOAD PUSH1 0xC0 DUP2 ADD DUP2 DUP2 LT PUSH8 0xFFFFFFFFFFFFFFFF DUP3 GT OR ISZERO PUSH2 0x2497 JUMPI INVALID JUMPDEST PUSH1 0x40 MSTORE DUP4 MLOAD PUSH2 0x24A5 DUP2 PUSH2 0x2BCC JUMP JUMPDEST DUP2 MSTORE PUSH2 0x24B3 PUSH1 0x20 DUP6 ADD PUSH2 0x232D JUMP JUMPDEST PUSH1 0x20 DUP3 ADD MSTORE PUSH2 0x24C4 PUSH1 0x40 DUP6 ADD PUSH2 0x20BD JUMP JUMPDEST PUSH1 0x40 DUP3 ADD MSTORE PUSH2 0x24D5 PUSH1 0x60 DUP6 ADD PUSH2 0x232D JUMP JUMPDEST PUSH1 0x60 DUP3 ADD MSTORE PUSH2 0x24E6 PUSH1 0x80 DUP6 ADD PUSH2 0x232D JUMP JUMPDEST PUSH1 0x80 DUP3 ADD MSTORE PUSH2 0x24F7 PUSH1 0xA0 DUP6 ADD PUSH2 0x232D JUMP JUMPDEST PUSH1 0xA0 DUP3 ADD MSTORE SWAP2 POP PUSH2 0x250B DUP5 PUSH1 0xC0 DUP6 ADD PUSH2 0x2138 JUMP JUMPDEST SWAP1 POP SWAP3 POP SWAP3 SWAP1 POP JUMP JUMPDEST PUSH1 0x0 DUP1 PUSH1 0x40 DUP4 DUP6 SUB SLT ISZERO PUSH2 0x2526 JUMPI DUP2 DUP3 REVERT JUMPDEST DUP3 CALLDATALOAD PUSH2 0xFFFF DUP2 AND DUP2 EQ PUSH2 0x2537 JUMPI DUP3 DUP4 REVERT JUMPDEST SWAP2 POP PUSH1 0x20 DUP4 ADD CALLDATALOAD PUSH2 0x2547 DUP2 PUSH2 0x2BBB JUMP JUMPDEST DUP1 SWAP2 POP POP SWAP3 POP SWAP3 SWAP1 POP JUMP JUMPDEST PUSH1 0x0 PUSH1 0x20 DUP3 DUP5 SUB SLT ISZERO PUSH2 0x2563 JUMPI DUP1 DUP2 REVERT JUMPDEST POP CALLDATALOAD SWAP2 SWAP1 POP JUMP JUMPDEST PUSH1 0x0 DUP1 PUSH1 0x40 DUP4 DUP6 SUB SLT ISZERO PUSH2 0x257C JUMPI DUP2 DUP3 REVERT JUMPDEST DUP3 CALLDATALOAD SWAP2 POP PUSH1 0x20 DUP4 ADD CALLDATALOAD PUSH8 0xFFFFFFFFFFFFFFFF DUP2 GT ISZERO PUSH2 0x2599 JUMPI DUP2 DUP3 REVERT JUMPDEST PUSH2 0x25A5 DUP6 DUP3 DUP7 ADD PUSH2 0x1FFB JUMP JUMPDEST SWAP2 POP POP SWAP3 POP SWAP3 SWAP1 POP JUMP JUMPDEST PUSH1 0x0 DUP1 PUSH1 0x40 DUP4 DUP6 SUB SLT ISZERO PUSH2 0x25C1 JUMPI DUP2 DUP3 REVERT JUMPDEST DUP3 CALLDATALOAD SWAP2 POP PUSH1 0x20 DUP4 ADD CALLDATALOAD PUSH8 0xFFFFFFFFFFFFFFFF DUP1 DUP3 GT ISZERO PUSH2 0x25DF JUMPI DUP3 DUP4 REVERT JUMPDEST SWAP1 DUP5 ADD SWAP1 PUSH2 0x320 DUP3 DUP8 SUB SLT ISZERO PUSH2 0x25F3 JUMPI DUP3 DUP4 REVERT JUMPDEST PUSH2 0x120 PUSH2 0x25FF DUP2 PUSH2 0x2B79 JUMP JUMPDEST PUSH2 0x2609 DUP9 DUP6 PUSH2 0x2261 JUMP JUMPDEST DUP2 MSTORE PUSH2 0x100 PUSH2 0x2619 DUP2 DUP7 ADD PUSH2 0x20C8 JUMP JUMPDEST PUSH1 0x20 DUP4 ADD MSTORE PUSH2 0x262A DUP10 DUP5 DUP8 ADD PUSH2 0x2196 JUMP JUMPDEST PUSH1 0x40 DUP4 ADD MSTORE PUSH2 0x263C PUSH2 0x260 DUP7 ADD PUSH2 0x2322 JUMP JUMPDEST PUSH1 0x60 DUP4 ADD MSTORE PUSH2 0x264E PUSH2 0x280 DUP7 ADD PUSH2 0x20B2 JUMP JUMPDEST PUSH1 0x80 DUP4 ADD MSTORE PUSH2 0x2A0 DUP6 ADD CALLDATALOAD SWAP3 POP DUP4 DUP4 GT ISZERO PUSH2 0x2667 JUMPI DUP6 DUP7 REVERT JUMPDEST PUSH2 0x2673 DUP10 DUP5 DUP8 ADD PUSH2 0x20D3 JUMP JUMPDEST PUSH1 0xA0 DUP4 ADD MSTORE PUSH2 0x2C0 DUP6 ADD CALLDATALOAD SWAP3 POP DUP4 DUP4 GT ISZERO PUSH2 0x268C JUMPI DUP6 DUP7 REVERT JUMPDEST PUSH2 0x2698 DUP10 DUP5 DUP8 ADD PUSH2 0x20D3 JUMP JUMPDEST PUSH1 0xC0 DUP4 ADD MSTORE PUSH2 0x2E0 DUP6 ADD CALLDATALOAD SWAP3 POP DUP4 DUP4 GT ISZERO PUSH2 0x26B1 JUMPI DUP6 DUP7 REVERT JUMPDEST PUSH2 0x26BD DUP10 DUP5 DUP8 ADD PUSH2 0x1F83 JUMP JUMPDEST PUSH1 0xE0 DUP4 ADD MSTORE PUSH2 0x300 DUP6 ADD CALLDATALOAD SWAP3 POP DUP4 DUP4 GT ISZERO PUSH2 0x26D6 JUMPI DUP6 DUP7 REVERT JUMPDEST PUSH2 0x26E2 DUP10 DUP5 DUP8 ADD PUSH2 0x1FFB JUMP JUMPDEST SWAP1 DUP3 ADD MSTORE SWAP5 SWAP8 SWAP5 SWAP7 POP SWAP4 SWAP5 POP POP POP POP POP JUMP JUMPDEST PUSH1 0x0 DUP2 MLOAD DUP1 DUP5 MSTORE PUSH1 0x20 DUP1 DUP6 ADD SWAP5 POP DUP1 DUP5 ADD DUP4 JUMPDEST DUP4 DUP2 LT ISZERO PUSH2 0x272E JUMPI PUSH2 0x271A DUP8 DUP4 MLOAD PUSH2 0x289F JUMP JUMPDEST PUSH2 0x100 SWAP7 SWAP1 SWAP7 ADD SWAP6 SWAP1 DUP3 ADD SWAP1 PUSH1 0x1 ADD PUSH2 0x2707 JUMP JUMPDEST POP SWAP5 SWAP6 SWAP5 POP POP POP POP POP JUMP JUMPDEST PUSH1 0x0 DUP2 MLOAD DUP1 DUP5 MSTORE PUSH1 0x20 DUP1 DUP6 ADD SWAP5 POP DUP1 DUP5 ADD DUP4 JUMPDEST DUP4 DUP2 LT ISZERO PUSH2 0x272E JUMPI DUP2 MLOAD DUP1 MLOAD PUSH5 0xFFFFFFFFFF AND DUP9 MSTORE DUP4 ADD MLOAD PUSH1 0x1 PUSH1 0x1 PUSH1 0x50 SHL SUB AND DUP4 DUP9 ADD MSTORE PUSH1 0x40 SWAP1 SWAP7 ADD SWAP6 SWAP1 DUP3 ADD SWAP1 PUSH1 0x1 ADD PUSH2 0x274C JUMP JUMPDEST ISZERO ISZERO SWAP1 MSTORE JUMP JUMPDEST PUSH1 0x1 PUSH1 0x1 PUSH1 0xA0 SHL SUB AND SWAP1 MSTORE JUMP JUMPDEST PUSH1 0x0 DUP2 MLOAD DUP1 DUP5 MSTORE DUP2 JUMPDEST DUP2 DUP2 LT ISZERO PUSH2 0x27BB JUMPI PUSH1 0x20 DUP2 DUP6 ADD DUP2 ADD MLOAD DUP7 DUP4 ADD DUP3 ADD MSTORE ADD PUSH2 0x279F JUMP JUMPDEST DUP2 DUP2 GT ISZERO PUSH2 0x27CC JUMPI DUP3 PUSH1 0x20 DUP4 DUP8 ADD ADD MSTORE JUMPDEST POP PUSH1 0x1F ADD PUSH1 0x1F NOT AND SWAP3 SWAP1 SWAP3 ADD PUSH1 0x20 ADD SWAP3 SWAP2 POP POP JUMP JUMPDEST PUSH2 0x27EC DUP3 DUP3 MLOAD PUSH2 0x2900 JUMP JUMPDEST PUSH1 0x20 DUP2 ADD MLOAD PUSH2 0x27FE PUSH1 0x20 DUP5 ADD DUP3 PUSH2 0x2900 JUMP JUMPDEST POP PUSH1 0x40 DUP2 ADD MLOAD PUSH2 0x2811 PUSH1 0x40 DUP5 ADD DUP3 PUSH2 0x2900 JUMP JUMPDEST POP PUSH1 0x60 DUP2 ADD MLOAD PUSH2 0x2824 PUSH1 0x60 DUP5 ADD DUP3 PUSH2 0x2900 JUMP JUMPDEST POP PUSH1 0x80 DUP2 ADD MLOAD PUSH2 0x2837 PUSH1 0x80 DUP5 ADD DUP3 PUSH2 0x2900 JUMP JUMPDEST POP PUSH1 0xA0 DUP2 ADD MLOAD PUSH2 0x284A PUSH1 0xA0 DUP5 ADD DUP3 PUSH2 0x2900 JUMP JUMPDEST POP PUSH1 0xC0 DUP2 ADD MLOAD PUSH2 0x285D PUSH1 0xC0 DUP5 ADD DUP3 PUSH2 0x2900 JUMP JUMPDEST POP PUSH1 0xE0 DUP2 ADD MLOAD PUSH2 0x2870 PUSH1 0xE0 DUP5 ADD DUP3 PUSH2 0x2900 JUMP JUMPDEST POP PUSH2 0x100 DUP1 DUP3 ADD MLOAD PUSH2 0x2884 DUP3 DUP6 ADD DUP3 PUSH2 0x2900 JUMP JUMPDEST POP POP PUSH2 0x120 DUP1 DUP3 ADD MLOAD PUSH2 0x2899 DUP3 DUP6 ADD DUP3 PUSH2 0x2900 JUMP JUMPDEST POP POP POP POP JUMP JUMPDEST PUSH1 0xFF DUP1 DUP3 MLOAD AND DUP4 MSTORE DUP1 PUSH1 0x20 DUP4 ADD MLOAD AND PUSH1 0x20 DUP5 ADD MSTORE DUP1 PUSH1 0x40 DUP4 ADD MLOAD AND PUSH1 0x40 DUP5 ADD MSTORE DUP1 PUSH1 0x60 DUP4 ADD MLOAD AND PUSH1 0x60 DUP5 ADD MSTORE DUP1 PUSH1 0x80 DUP4 ADD MLOAD AND PUSH1 0x80 DUP5 ADD MSTORE DUP1 PUSH1 0xA0 DUP4 ADD MLOAD AND PUSH1 0xA0 DUP5 ADD MSTORE DUP1 PUSH1 0xC0 DUP4 ADD MLOAD AND PUSH1 0xC0 DUP5 ADD MSTORE DUP1 PUSH1 0xE0 DUP4 ADD MLOAD AND PUSH1 0xE0 DUP5 ADD MSTORE POP POP POP JUMP JUMPDEST PUSH1 0xFF AND SWAP1 MSTORE JUMP JUMPDEST PUSH1 0x1 PUSH1 0x1 PUSH1 0xA0 SHL SUB SWAP2 SWAP1 SWAP2 AND DUP2 MSTORE PUSH1 0x20 ADD SWAP1 JUMP JUMPDEST PUSH1 0x0 PUSH1 0x40 DUP3 MSTORE PUSH2 0x292E PUSH1 0x40 DUP4 ADD DUP6 PUSH2 0x26F4 JUMP JUMPDEST DUP3 DUP2 SUB PUSH1 0x20 DUP5 DUP2 ADD SWAP2 SWAP1 SWAP2 MSTORE DUP5 MLOAD DUP1 DUP4 MSTORE DUP6 DUP3 ADD SWAP3 DUP3 ADD SWAP1 DUP5 JUMPDEST DUP2 DUP2 LT ISZERO PUSH2 0x2964 JUMPI DUP5 MLOAD DUP4 MSTORE SWAP4 DUP4 ADD SWAP4 SWAP2 DUP4 ADD SWAP2 PUSH1 0x1 ADD PUSH2 0x2948 JUMP JUMPDEST POP SWAP1 SWAP8 SWAP7 POP POP POP POP POP POP POP JUMP JUMPDEST PUSH1 0x20 DUP1 DUP3 MSTORE PUSH1 0xB SWAP1 DUP3 ADD MSTORE PUSH11 0x4F76657220446966662033 PUSH1 0xA8 SHL PUSH1 0x40 DUP3 ADD MSTORE PUSH1 0x60 ADD SWAP1 JUMP JUMPDEST PUSH1 0x20 DUP1 DUP3 MSTORE PUSH1 0x10 SWAP1 DUP3 ADD MSTORE PUSH16 0x27BB32B9102ABA34B634BD30BA34B7B7 PUSH1 0x81 SHL PUSH1 0x40 DUP3 ADD MSTORE PUSH1 0x60 ADD SWAP1 JUMP JUMPDEST PUSH1 0x20 DUP1 DUP3 MSTORE PUSH1 0xF SWAP1 DUP3 ADD MSTORE PUSH15 0x27BB32B9102334B730B6102234B333 PUSH1 0x89 SHL PUSH1 0x40 DUP3 ADD MSTORE PUSH1 0x60 ADD SWAP1 JUMP JUMPDEST PUSH1 0x20 DUP1 DUP3 MSTORE PUSH1 0x10 SWAP1 DUP3 ADD MSTORE PUSH16 0x27BB32B91025B4B735902930BA329019 PUSH1 0x81 SHL PUSH1 0x40 DUP3 ADD MSTORE PUSH1 0x60 ADD SWAP1 JUMP JUMPDEST PUSH1 0x20 DUP1 DUP3 MSTORE PUSH1 0xD SWAP1 DUP3 ADD MSTORE PUSH13 0x4F766572204D61782052617465 PUSH1 0x98 SHL PUSH1 0x40 DUP3 ADD MSTORE PUSH1 0x60 ADD SWAP1 JUMP JUMPDEST PUSH1 0x20 DUP1 DUP3 MSTORE PUSH1 0xB SWAP1 DUP3 ADD MSTORE PUSH11 0x27BB32B9102234B3331019 PUSH1 0xA9 SHL PUSH1 0x40 DUP3 ADD MSTORE PUSH1 0x60 ADD SWAP1 JUMP JUMPDEST PUSH1 0x20 DUP1 DUP3 MSTORE PUSH1 0xB SWAP1 DUP3 ADD MSTORE PUSH11 0x4F76657220446966662031 PUSH1 0xA8 SHL PUSH1 0x40 DUP3 ADD MSTORE PUSH1 0x60 ADD SWAP1 JUMP JUMPDEST PUSH1 0x0 PUSH1 0x20 DUP3 MSTORE PUSH2 0x2A98 PUSH1 0x20 DUP4 ADD DUP5 MLOAD PUSH2 0x289F JUMP JUMPDEST PUSH1 0x20 DUP4 ADD MLOAD PUSH2 0x2AAB PUSH2 0x120 DUP5 ADD DUP3 PUSH2 0x2789 JUMP JUMPDEST POP PUSH1 0x40 DUP4 ADD MLOAD PUSH2 0x2ABF PUSH2 0x140 DUP5 ADD DUP3 PUSH2 0x27E1 JUMP JUMPDEST POP PUSH1 0x60 DUP4 ADD MLOAD PUSH2 0x2AD3 PUSH2 0x280 DUP5 ADD DUP3 PUSH2 0x2900 JUMP JUMPDEST POP PUSH1 0x80 DUP4 ADD MLOAD PUSH2 0x2AE7 PUSH2 0x2A0 DUP5 ADD DUP3 PUSH2 0x2783 JUMP JUMPDEST POP PUSH1 0xA0 DUP4 ADD MLOAD PUSH2 0x320 DUP1 PUSH2 0x2C0 DUP6 ADD MSTORE PUSH2 0x2B05 PUSH2 0x340 DUP6 ADD DUP4 PUSH2 0x2796 JUMP JUMPDEST SWAP2 POP PUSH1 0xC0 DUP6 ADD MLOAD PUSH1 0x1F NOT DUP1 DUP7 DUP6 SUB ADD PUSH2 0x2E0 DUP8 ADD MSTORE PUSH2 0x2B24 DUP5 DUP4 PUSH2 0x2796 JUMP JUMPDEST SWAP4 POP PUSH1 0xE0 DUP8 ADD MLOAD SWAP2 POP DUP1 DUP7 DUP6 SUB ADD PUSH2 0x300 DUP8 ADD MSTORE PUSH2 0x2B42 DUP5 DUP4 PUSH2 0x26F4 JUMP JUMPDEST SWAP4 POP PUSH2 0x100 DUP8 ADD MLOAD SWAP2 POP DUP1 DUP7 DUP6 SUB ADD DUP4 DUP8 ADD MSTORE POP PUSH2 0x2B60 DUP4 DUP3 PUSH2 0x2739 JUMP JUMPDEST SWAP7 SWAP6 POP POP POP POP POP POP JUMP JUMPDEST PUSH2 0xFFFF SWAP2 SWAP1 SWAP2 AND DUP2 MSTORE PUSH1 0x20 ADD SWAP1 JUMP JUMPDEST PUSH1 0x40 MLOAD DUP2 DUP2 ADD PUSH8 0xFFFFFFFFFFFFFFFF DUP2 GT DUP3 DUP3 LT OR ISZERO PUSH2 0x2B95 JUMPI INVALID JUMPDEST PUSH1 0x40 MSTORE SWAP2 SWAP1 POP JUMP JUMPDEST PUSH1 0x0 PUSH8 0xFFFFFFFFFFFFFFFF DUP3 GT ISZERO PUSH2 0x2BB1 JUMPI INVALID JUMPDEST POP PUSH1 0x20 SWAP1 DUP2 MUL ADD SWAP1 JUMP JUMPDEST DUP1 ISZERO ISZERO DUP2 EQ PUSH2 0x2BC9 JUMPI PUSH1 0x0 DUP1 REVERT JUMPDEST POP JUMP JUMPDEST PUSH1 0x1 PUSH1 0x1 PUSH1 0xA0 SHL SUB DUP2 AND DUP2 EQ PUSH2 0x2BC9 JUMPI PUSH1 0x0 DUP1 REVERT JUMPDEST PUSH1 0xFF DUP2 AND DUP2 EQ PUSH2 0x2BC9 JUMPI PUSH1 0x0 DUP1 REVERT INVALID LOG2 PUSH5 0x6970667358 0x22 SLT KECCAK256 0xFC AND EXTCODECOPY CALLER 0x5D 0xCA JUMP DUP3 SWAP6 SIGNEXTEND CALLVALUE CHAINID SWAP5 DUP9 0xF SHL DIFFICULTY 0x2C SHL 0xE4 0xB7 DUP4 PUSH13 0xC1349E0BC941A9842564736F6C PUSH4 0x43000706 STOP CALLER ","sha1":"ae673c860bba16c53f907742e68a6906a9f73860","source":"// SPDX-License-Identifier: GPL-3.0-only\npragma solidity =0.7.6;\npragma abicoder v2;\n\nimport {\n    InterestRateCurveSettings,\n    InterestRateParameters,\n    CashGroupSettings,\n    MarketParameters,\n    AssetRateStorage\n} from \"../../../global/Types.sol\";\nimport {Constants} from \"../../../global/Constants.sol\";\nimport {SafeUint256} from \"../../../math/SafeUint256.sol\";\nimport {SafeInt256} from \"../../../math/SafeInt256.sol\";\n\nimport {NotionalProxy} from \"../../../../interfaces/notional/NotionalProxy.sol\";\nimport {IPrimeCashHoldingsOracle} from \"../../../../interfaces/notional/IPrimeCashHoldingsOracle.sol\";\nimport {InterestRateCurve} from \"../../../internal/markets/InterestRateCurve.sol\";\n\nstruct TotalfCashDebt {\n    uint40 maturity;\n    uint80 totalfCashDebt;\n}\n\nstruct CurrencySettings {\n    InterestRateCurveSettings primeDebtCurve;\n    IPrimeCashHoldingsOracle primeCashOracle;\n    CashGroupSettings cashGroupSettings;\n    uint8 rateOracleTimeWindow5Min;\n    bool allowPrimeDebt;\n    string underlyingName;\n    string underlyingSymbol;\n    InterestRateCurveSettings[] fCashCurves;\n    TotalfCashDebt[] fCashDebts;\n}\n\ncontract MigrationSettings {\n    using SafeUint256 for uint256;\n    using SafeInt256 for int256;\n\n    NotionalProxy public immutable NOTIONAL;\n    address public immutable NOTIONAL_MANAGER;\n\n    // @todo reduce this kink diff once we have more proper values for the tests\n    uint256 internal constant MAX_KINK_DIFF = 250 * uint256(1e9 / 10000); // 250 * Constants.BASIS_POINT\n\n    mapping(uint256 => CurrencySettings) internal currencySettings;\n\n    constructor(address _notional, address _manager) {\n        NOTIONAL = NotionalProxy(_notional);\n        NOTIONAL_MANAGER = _manager;\n    }\n\n    function getCurrencySettings(uint256 currencyId) external view returns (CurrencySettings memory) {\n        return currencySettings[currencyId];\n    }\n\n    /// @notice Sets migration settings for the given currency id\n    function setMigrationSettings(uint256 currencyId, CurrencySettings memory settings) external {\n        // Only the Notional manager can set migration settings\n        require(msg.sender == NOTIONAL_MANAGER);\n\n        CurrencySettings storage _storageSettings = currencySettings[currencyId];\n        _storageSettings.primeDebtCurve = settings.primeDebtCurve;\n        _storageSettings.primeCashOracle = settings.primeCashOracle;\n        _storageSettings.cashGroupSettings = settings.cashGroupSettings;\n        _storageSettings.allowPrimeDebt = settings.allowPrimeDebt;\n        _storageSettings.underlyingName = settings.underlyingName;\n        _storageSettings.underlyingSymbol = settings.underlyingSymbol;\n        _storageSettings.rateOracleTimeWindow5Min = settings.rateOracleTimeWindow5Min;\n\n        // Clear existing array\n        uint256 existingLength = _storageSettings.fCashCurves.length;\n        for (uint256 i; i < existingLength; i++)  _storageSettings.fCashCurves.pop();\n\n        for (uint256 i; i < settings.fCashCurves.length; i++) {\n            _storageSettings.fCashCurves.push(settings.fCashCurves[i]);\n        }\n\n        // Clear existing array\n        existingLength = _storageSettings.fCashDebts.length;\n        for (uint256 i; i < existingLength; i++)  _storageSettings.fCashDebts.pop();\n\n        for (uint256 i; i < settings.fCashDebts.length; i++) {\n            _storageSettings.fCashDebts.push(settings.fCashDebts[i]);\n        }\n    }\n\n    /// @notice Special method for updating the total fCash debt since this may change as we\n    /// closer to the actual upgrade\n    function updateTotalfCashDebt(uint256 currencyId, TotalfCashDebt[] memory fCashDebts) external {\n        // Allow the Notional Manager to set fCash debts closer to upgrade\n        require(msg.sender == NOTIONAL_MANAGER);\n        CurrencySettings storage _storageSettings = currencySettings[currencyId];\n\n        // Clear existing array\n        uint256 existingLength = _storageSettings.fCashDebts.length;\n        for (uint256 i; i < existingLength; i++)  _storageSettings.fCashDebts.pop();\n\n        for (uint256 i; i < fCashDebts.length; i++) {\n            _storageSettings.fCashDebts.push(fCashDebts[i]);\n        }\n    }\n\n    /// @notice Simulates the fCash curve update\n    function getfCashCurveUpdate(uint16 currencyId, bool checkRateDiff) external view returns (\n        InterestRateCurveSettings[] memory finalCurves,\n        uint256[] memory finalRates\n    ) {\n        CurrencySettings memory settings = currencySettings[currencyId];\n        (/* */, AssetRateStorage memory ar) = NOTIONAL.getRateStorage(currencyId);\n        MarketParameters[] memory markets = NOTIONAL.getActiveMarkets(currencyId);\n\n        // Use the original asset rates to calculate the cash to underlying exchange rates\n        int256 assetRateDecimals = int256(10 ** (10 + ar.underlyingDecimalPlaces));\n        int256 assetRate = address(ar.rateOracle) != address(0) ? \n            ar.rateOracle.getExchangeRateView() :\n            // If rateOracle is not set then use the unit rate\n            assetRateDecimals;\n\n        return _calculateInterestRateCurves(\n            settings.fCashCurves, markets, checkRateDiff, assetRateDecimals, assetRate\n        );\n    }\n\n    function _calculateInterestRateCurves(\n        InterestRateCurveSettings[] memory fCashCurves,\n        MarketParameters[] memory markets,\n        bool checkFinalRate,\n        int256 assetRateDecimals,\n        int256 assetRate\n    ) internal view returns (InterestRateCurveSettings[] memory finalCurves, uint256[] memory finalRates) {\n        // These will be the curves that are set in storage after this method exits\n        finalCurves = new InterestRateCurveSettings[](fCashCurves.length);\n        // This is just used for the external view method\n        finalRates = new uint256[](fCashCurves.length);\n\n        for (uint256 i = 0; i < fCashCurves.length; i++) {\n            InterestRateCurveSettings memory irCurve = fCashCurves[i];\n            MarketParameters memory market = markets[i];\n            \n            // Interest rate parameter object for local calculations\n            uint256 maxRate = InterestRateCurve.calculateMaxRate(irCurve.maxRateUnits);\n            InterestRateParameters memory irParams = InterestRateParameters({\n                kinkUtilization1: uint256(irCurve.kinkUtilization1) * uint256(Constants.RATE_PRECISION / Constants.PERCENTAGE_DECIMALS),\n                kinkUtilization2: uint256(irCurve.kinkUtilization2) * uint256(Constants.RATE_PRECISION / Constants.PERCENTAGE_DECIMALS),\n                maxRate: maxRate,\n                kinkRate1: maxRate * irCurve.kinkRate1 / 256,\n                kinkRate2: maxRate * irCurve.kinkRate2 / 256,\n                // Fees are not used in this method\n                minFeeRate: 0, maxFeeRate: 0, feeRatePercent: 0\n            });\n\n            // Market utilization cannot change because cash / fCash is already set in the market\n            uint256 utilization = InterestRateCurve.getfCashUtilization(\n                0, market.totalfCash, market.totalPrimeCash.mul(assetRate).div(assetRateDecimals)\n            );\n\n            require(utilization < uint256(Constants.RATE_PRECISION), \"Over Utilization\");\n            // Cannot overflow the new market's max rate\n            require(market.lastImpliedRate < irParams.maxRate, \"Over Max Rate\");\n            uint256 kinkMidpoint = (irParams.kinkUtilization2 - irParams.kinkUtilization1) / 2\n                + irParams.kinkUtilization1;\n\n            if (utilization <= irParams.kinkUtilization1) {\n                // interestRate = (utilization * kinkRate1) / kinkUtilization1\n                // kinkRate1 = (interestRate * kinkUtilization1) / utilization\n                uint256 newKinkRate1 = market.lastImpliedRate\n                    .mul(irParams.kinkUtilization1)\n                    .div(utilization);\n                require(newKinkRate1 < irParams.kinkRate2, \"Over Kink Rate 2\");\n\n                // Check that the new curve's kink rate does not excessively diverge from the intended value\n                if (checkFinalRate) {\n                    require(_absDiff(newKinkRate1, irParams.kinkRate1) < MAX_KINK_DIFF, \"Over Diff 1\");\n                }\n\n                irParams.kinkRate1 = newKinkRate1;\n                // Convert the interest rate back to the uint8 storage value\n                irCurve.kinkRate1 = (newKinkRate1 * 256 / maxRate).toUint8();\n            } else if (utilization < kinkMidpoint) { // Avoid divide by zero by using strictly less than\n                // If we are below the kinkMidpoint then modify kinkRate1 to adjust the fCash curve.\n\n                //                (utilization - kinkUtilization1) * (kinkRate2 - kinkRate1) \n                // interestRate = ---------------------------------------------------------- + kinkRate1\n                //                            (kinkUtilization2 - kinkUtilization1)\n                // ==> \n                //                interestRate * (kinkUtilization2 - kinkUtilization1) - kinkRate2 * (utilization - kinkUtilization1) \n                // kinkRate1 = ------------------------------------------------------------------------------------------------------\n                //                                                      (1 - utilization - kinkUtilization1)\n                uint256 numerator = market.lastImpliedRate\n                    .mulInRatePrecision(irParams.kinkUtilization2.sub(irParams.kinkUtilization1))\n                    .sub(irParams.kinkRate2.mulInRatePrecision(utilization.sub(irParams.kinkUtilization1)));\n                uint256 denominator = irParams.kinkUtilization2 - utilization; // no overflow checked above\n                uint256 newKinkRate1 = numerator.divInRatePrecision(denominator);\n                require(newKinkRate1 < irParams.kinkRate2, \"Over Kink Rate 2\");\n\n                if (checkFinalRate) {\n                    require(_absDiff(newKinkRate1, irParams.kinkRate1) < MAX_KINK_DIFF, \"Over Diff 2\");\n                }\n\n                irParams.kinkRate1 = newKinkRate1;\n                // Convert the interest rate back to the uint8 storage value\n                irCurve.kinkRate1 = (newKinkRate1 * 256 / maxRate).toUint8();\n            } else if (utilization < irParams.kinkUtilization2) { // Avoid divide by zero by using strictly less than\n                // If above the kinkMidpoint but below kinkUtilization2, adjust kinkRate2\n                //                (utilization - kinkUtilization1) * (kinkRate2 - kinkRate1) \n                // interestRate = ---------------------------------------------------------- + kinkRate1\n                //                            (kinkUtilization2 - kinkUtilization1)\n                // ==> \n                //                (interestRate - kinkRate1) * (kinkUtilization2 - kinkUtilization1) + kinkRate1 * (utilization - kinkUtilization1) \n                // kinkRate2 = -------------------------------------------------------------------------------------------------------------------\n                //                                                      (utilization - kinkUtilization1)\n                uint256 numerator = (market.lastImpliedRate.sub(irParams.kinkRate1))\n                    .mulInRatePrecision(irParams.kinkUtilization2.sub(irParams.kinkUtilization1))\n                    .add(irParams.kinkRate1.mulInRatePrecision(utilization.sub(irParams.kinkUtilization1)));\n                uint256 denominator = utilization - irParams.kinkUtilization1; // no overflow checked above\n                uint256 newKinkRate2 = numerator.divInRatePrecision(denominator);\n                require(newKinkRate2 < irParams.maxRate, \"Over Max Rate\");\n\n                if (checkFinalRate) {\n                    require(_absDiff(newKinkRate2, irParams.kinkRate2) < MAX_KINK_DIFF, \"Over Diff 2\");\n                }\n\n                irParams.kinkRate2 = newKinkRate2;\n                // Convert the interest rate back to the uint8 storage value\n                irCurve.kinkRate2 = (newKinkRate2 * 256 / maxRate).toUint8();\n            } else {\n                //                (utilization - kinkUtilization2) * (maxRate - kinkRate2) \n                // interestRate = ---------------------------------------------------------- + kinkRate2\n                //                                  (1 - kinkUtilization2)\n                // ==> \n                //                interestRate * (1 - kinkUtilization2) - maxRate * (utilization - kinkUtilization2) \n                // kinkRate2 = ------------------------------------------------------------------------------------\n                //                                          (1 - utilization)\n                uint256 numerator = market.lastImpliedRate\n                    .mulInRatePrecision(uint256(Constants.RATE_PRECISION).sub(irParams.kinkUtilization2))\n                    .sub(irParams.maxRate.mulInRatePrecision(utilization.sub(irParams.kinkUtilization2)));\n                uint256 denominator = uint256(Constants.RATE_PRECISION).sub(utilization);\n                uint256 newKinkRate2 = numerator.divInRatePrecision(denominator);\n                require(newKinkRate2 < irParams.maxRate, \"Over Max Rate\");\n\n                if (checkFinalRate) {\n                    require(_absDiff(newKinkRate2, irParams.kinkRate2) < MAX_KINK_DIFF, \"Over Diff 3\");\n                }\n\n                irParams.kinkRate2 = newKinkRate2;\n                irCurve.kinkRate2 = (newKinkRate2 * 256 / maxRate).toUint8();\n            }\n\n            uint256 newInterestRate = InterestRateCurve.getInterestRate(irParams, utilization);\n            if (checkFinalRate) {\n                // Check that the next interest rate is very close to the current market rate\n                require(_absDiff(newInterestRate, market.lastImpliedRate) < Constants.BASIS_POINT, \"Over Final Diff\");\n            }\n            finalCurves[i] = irCurve;\n            finalRates[i] = newInterestRate;\n        }\n    }\n\n    function _absDiff(uint256 a, uint256 b) private pure returns (uint256) {\n        return a < b ? b - a : a - b;\n    }\n}","sourcePath":"contracts/external/patchfix/migrate-v3/MigrationSettings.sol","type":"contract","deployment":{"address":"0x5fbf4539A89fBd1E5d784DB3f7Ba6c394AC450fC","chainid":"5","blockHeight":10202792}}