{"abi":[{"inputs":[{"internalType":"address","name":"account","type":"address"},{"internalType":"address","name":"vault","type":"address"},{"internalType":"uint256","name":"depositAmountExternal","type":"uint256"},{"internalType":"uint256","name":"maturity","type":"uint256"},{"internalType":"uint256","name":"borrowAmount","type":"uint256"},{"internalType":"uint32","name":"maxBorrowRate","type":"uint32"},{"internalType":"bytes","name":"vaultData","type":"bytes"}],"name":"enterVault","outputs":[{"internalType":"uint256","name":"vaultSharesAdded","type":"uint256"}],"stateMutability":"payable","type":"function"},{"inputs":[{"internalType":"address","name":"account","type":"address"},{"internalType":"address","name":"vault","type":"address"},{"internalType":"address","name":"receiver","type":"address"},{"internalType":"uint256","name":"vaultSharesToRedeem","type":"uint256"},{"internalType":"uint256","name":"lendAmount","type":"uint256"},{"internalType":"uint32","name":"minLendRate","type":"uint32"},{"internalType":"bytes","name":"exitVaultData","type":"bytes"}],"name":"exitVault","outputs":[{"internalType":"uint256","name":"underlyingToReceiver","type":"uint256"}],"stateMutability":"payable","type":"function"},{"inputs":[],"name":"getLibInfo","outputs":[{"internalType":"address","name":"","type":"address"}],"stateMutability":"pure","type":"function"},{"inputs":[],"name":"owner","outputs":[{"internalType":"address","name":"","type":"address"}],"stateMutability":"view","type":"function"},{"inputs":[],"name":"pauseGuardian","outputs":[{"internalType":"address","name":"","type":"address"}],"stateMutability":"view","type":"function"},{"inputs":[],"name":"pauseRouter","outputs":[{"internalType":"address","name":"","type":"address"}],"stateMutability":"view","type":"function"},{"inputs":[{"internalType":"address","name":"account","type":"address"},{"internalType":"address","name":"vault","type":"address"},{"internalType":"uint256","name":"newBorrowAmount","type":"uint256"},{"internalType":"uint256","name":"maturity","type":"uint256"},{"internalType":"uint256","name":"depositAmountExternal","type":"uint256"},{"internalType":"uint32","name":"minLendRate","type":"uint32"},{"internalType":"uint32","name":"maxBorrowRate","type":"uint32"},{"internalType":"bytes","name":"enterVaultData","type":"bytes"}],"name":"rollVaultPosition","outputs":[{"internalType":"uint256","name":"vaultSharesAdded","type":"uint256"}],"stateMutability":"payable","type":"function"},{"inputs":[{"internalType":"address","name":"account","type":"address"},{"internalType":"address","name":"vault","type":"address"}],"name":"settleVaultAccount","outputs":[],"stateMutability":"nonpayable","type":"function"}],"bytecode":"608060405234801561001057600080fd5b50615f9880620000216000396000f3fe60806040526004361061007b5760003560e01c80638da5cb5b1161004e5780638da5cb5b146100f357806395c1a20214610108578063c4c96dae1461011b578063eec51108146101305761007b565b806324a3d62214610080578063653b6104146100ab5780636ce48f01146100cb57806382463367146100de575b600080fd5b34801561008c57600080fd5b50610095610152565b6040516100a29190615c6b565b60405180910390f35b6100be6100b9366004615a16565b610161565b6040516100a29190615e84565b6100be6100d9366004615920565b6102fd565b3480156100ea57600080fd5b506100956104f2565b3480156100ff57600080fd5b50610095610501565b6100be6101163660046159bd565b610518565b34801561012757600080fd5b50610095610666565b34801561013c57600080fd5b5061015061014b3660046158e8565b61067e565b005b6002546001600160a01b031681565b60006002600a54141561017357600080fd5b6002600a5560006101838a610709565b9050610191818c6010610734565b61019c816080610778565b156101a7576001600a555b60006101b38c8361078f565b90506101bf818361083e565b506101cb826001610778565b6101d457600080fd5b6101df826002610778565b6101e857600080fd5b60008a116101f557600080fd5b888160200151141561020657600080fd5b88421061021257600080fd5b60006102228383602001516108a5565b60408301519450905061023781838587610930565b610254838261024985600001516109db565b859291908c426109f1565b81511561026057600080fd5b61026a8184610acc565b61027583838b610b78565b61028582848c8e8b8b8b8b610bd6565b9350306001600160a01b031663c9384f268d8f6040518363ffffffff1660e01b81526004016102b5929190615c7f565b600060405180830381600087803b1580156102cf57600080fd5b505af11580156102e3573d6000803e3d6000fd5b50506001600a5550939d9c50505050505050505050505050565b60006002600a54141561030f57600080fd5b6002600a55600061031f89610709565b905061032d818b6008610734565b610338816080610778565b15610343576001600a555b600061034f8b8361078f565b905042603c8260a0015101111561036557600080fd5b61036f818361083e565b5060006103808383602001516108a5565b602083015190915064ffffffffff14801561039c575060001988145b156103b9576103b66103b183600001516109db565b610c77565b97505b6103d283826103c78b610c8a565b859291908b426109f1565b6103de8183858c610930565b600082608001511315610424576103ff8b8b85604001518560800151610ca0565b61041a8a846040015184608001518661016001516000610d46565b6000608084015293505b61043c61043584848d8d8b8b610d79565b8590610e93565b93506104488184610acc565b815115801561045957506040820151155b1561046657600060208301525b6104738284600180610eac565b6020820151156104de57306001600160a01b031663c9384f268c8e6040518363ffffffff1660e01b81526004016104ab929190615c7f565b600060405180830381600087803b1580156104c557600080fd5b505af11580156104d9573d6000803e3d6000fd5b505050505b50506001600a555098975050505050505050565b6001546001600160a01b031681565b60005464010000000090046001600160a01b031681565b60006002600a54141561052a57600080fd5b6002600a5561053889610f3c565b876001600160a01b0316896001600160a01b0316141561055757600080fd5b600061056289610709565b9050610570818b6004610734565b61057b816080610778565b15610586576001600a555b610591816001610778565b61059a57600080fd5b8642106105a657600080fd5b60006105b28b8361078f565b90506105be818361083e565b50602081015115806105d35750878160200151145b6105dc57600080fd5b6105e782828b610b78565b6105f881838a8a8a8a8a6000610bd6565b60405163649c279360e11b8152909350309063c9384f2690610620908d908f90600401615c7f565b600060405180830381600087803b15801561063a57600080fd5b505af115801561064e573d6000803e3d6000fd5b50506001600a5550929b9a5050505050505050505050565b73__TradingAction_________________________90565b6002600a54141561068e57600080fd5b6002600a5561069c82610f3c565b806001600160a01b0316826001600160a01b031614156106bb57600080fd5b60006106c682610709565b905060006106d4848361078f565b90506106e08183610fbb565b6106e957600080fd5b6106f38183611178565b506106fe81836111f0565b50506001600a555050565b610711615522565b61071a826112c2565b905061072981604001516114b0565b610160820152919050565b61073e8382610778565b1561075e5782516001600160a01b0316331461075957600080fd5b610773565b6001600160a01b038216331461077357600080fd5b505050565b602082015161ffff80831691831616145b92915050565b6107976155bb565b60006107a16114c2565b6001600160a01b038086166000818152602084815260408083208951909516835293815290839020805464ffffffffff600160a01b8204169288018390526001600160501b03600160501b8204811695890195909552606088019390935260018101548416608088015263ffffffff600160c81b84041660a088015261016088015194955093610833939092166114cf565b835250909392505050565b600061084a8383610fbb565b9050801580156108625750602083015164ffffffffff145b156107895761089e8361088f61088a866000015186610160015161150d90919063ffffffff16565b6109db565b60208601518592919042611535565b5092915050565b6108ad6155fa565b60006108b76115fe565b84516001600160a01b031660009081526020828152604080832087845290915290819020858552805460ff600160f01b820416151560608701526001600160501b03600160a01b820481169387019390935261016088015193945090926109229290918791166114cf565b602084015250909392505050565b835160208401511461094157600080fd5b600061094b6115fe565b83516001600160a01b031660009081526020828152604080832089518452909152908190209087015191925090610982908461160b565b604080880191909152850151610998908461160b565b8560400181815250506109ae8660400151611620565b81546001600160501b0391909116600160a01b02600160a01b600160f01b03199091161790555050505050565b60006109e960001983611636565b90505b919050565b826109fb57610ac4565b8551600090610a0a9085611684565b1315610a1557600080fd5b85602001518110610a2557600080fd5b602086015160009064ffffffffff14610a5b57610a5886604001518760000151896020015187878b61010001518861169a565b90505b80610aa857610160860151610a749061088a908661150d565b602088015190915064ffffffffff14610aa857610aa8866000015187604001518960200151610aa2856109db565b886117a8565b6000811315610ab657600080fd5b610ac28786868461188c565b505b505050505050565b6000610ad66115fe565b82516001600160a01b031660009081526020828152604080832087518452909152908190209085015191925090610b0c90611620565b81546060860151801515600160f01b0260ff60f01b196001600160501b0394909416600160a01b02600160a01b600160f01b03199093169290921792909216178255610160840151604085015186516020880151610b72948694938993909290916118f7565b50505050565b6000610b9d83606001518560400151610b9085610c8a565b87610160015160006119d6565b6080850151909250610bb0915082611684565b60808401526000811315610b7257610b7283606001518560000151866040015184610ca0565b60008689602001511480610be957508851155b610bf257600080fd5b6000610bfe89896108a5565b90508615610c2457610c1f8a8a838b610c1961088a8d610c8a565b8b611aa1565b610c47565b64ffffffffff8814610c4757610c458960400151898b610100015142611b4c565b505b610c55818b8b868989611b95565b4260a08c01529150610c6a8a8a600180610eac565b5098975050505050505050565b600080821215610c8657600080fd5b5090565b60006001600160ff1b03821115610c8657600080fd5b6000610caa611c3e565b61ffff8416600090815260209190915260408120546001600160a01b03169150821215610cd5579293925b806001600160a01b03166323de66518686610cef86611c4b565b6040518463ffffffff1660e01b8152600401610d0d93929190615c99565b600060405180830381600087803b158015610d2757600080fd5b505af1158015610d3b573d6000803e3d6000fd5b505050505050505050565b600080610d5e8787610d57886109db565b8787611c6c565b9050610d6c6103b1826109db565b9150505b95945050505050565b600080600080610d908a6040015161ffff16611d14565b9050600089608001511215610dd7576000610dc061088a8b608001518d6101600151611d2790919063ffffffff16565b9050610dcf6103b18383611d53565b925050610de6565b608089015115610de657600080fd5b610dff8a828b606001518b8b8e60200151888d8d611d90565b50945092505080821015610e6f5760008282039050600080610e3a8b606001518d60400151610e2d86610c8a565b8f610160015160006119d6565b91509150610e51610e4a83610c77565b8690610e93565b9450610e6b8b606001518d600001518e6040015184610ca0565b5050505b80821015610e7c57600080fd5b600088608001818152505050509695505050505050565b600082820183811015610ea557600080fd5b9392505050565b6000610eb66114c2565b60608601516001600160a01b039081166000908152602083815260408083208951909416835292905220909150610ef08686838787611eb0565b6001810180546001600160501b03191690819055600160501b90046001600160501b0316158015610f3357506001810154600160a01b90046001600160501b0316155b610ac457600080fd5b6001600160a01b038116610f4f57600080fd5b6001600160a01b038116610fee1415610f6757600080fd5b6001600160a01b0381166105e71415610f7f57600080fd5b6001600160a01b038116301415610f9557600080fd5b6000610fa08261211e565b5050505061ffff16905080600014610fb757600080fd5b5050565b6000826020015160001480610fd35750826020015142105b15610fe057506000610789565b6000610ff08385602001516108a5565b90506000610ffc6115fe565b84516001600160a01b031660009081526020918252604080822064ffffffffff83529092522060608301519091506110635761104b81856000015186604001518560000151866020015161218a565b60006020830152600160608301526110638285610acc565b61106f828686846121f3565b61107884612305565b156110d85783516060860151604051634140f63560e11b81523092638281ec6a926110a592600401615c7f565b600060405180830381600087803b1580156110bf57600080fd5b505af11580156110d3573d6000803e3d6000fd5b505050505b60006110f3856040015187602001518860000151600061232e565b905061111485610160015183876040015188600001518a6080015186612373565b608088015260208701805160a089015264ffffffffff905261016086015190915061113f908261243c565b80875261016086015161116b91889161115c9161088a919061150d565b87919064ffffffffff42611535565b5060019695505050505050565b6111806155fa565b602083015164ffffffffff1461119557600080fd5b6111a48264ffffffffff6108a5565b90506000836080015112156111e6576111e683826111d48660800151866101600151611d2790919063ffffffff16565b6111e187608001516109db565b61188c565b6107898183610acc565b608082018051600091829052906112056114c2565b60608501516001600160a01b039081166000908152602083815260408083208851909416835292905220909150611240858583600180611eb0565b8261125c576001810180546001600160501b03191690556112bb565b82600012156112bb5761127661127184610c77565b611620565b8160010160006101000a8154816001600160501b0302191690836001600160501b031602179055506112bb85606001518560000151866040015188602001518761248d565b5050505050565b6112ca615522565b60006112d4612523565b6001600160a01b03841660008181526020838152604091829020928652825461ffff808216928801929092526201000090041690850152909150611330612710633b9aca008354600160501b900460ff16919005600502612530565b6080840152805461134f90600160401b900461ffff16620186a0612530565b60a0840152805461136e90600160701b900461ffff16620186a0612530565b610120840152600281015461138a9061ffff16620186a0612530565b610180840152805460649060ff600160581b90910416633b9aca00020560c08401528054600160601b810460ff90811660e0860152600160681b909104166101008401526040805180820191829052906001830190600290826000855b82829054906101000a900461ffff1661ffff16815260200190600201906020826001010492830192600103820291508084116113e757505050505061014085019190915250600481015460ff166101c0840152805461145390640100000000900463ffffffff16612557565b60608401526114896003820160005b600891828204019190066004029054906101000a900463ffffffff1663ffffffff16612557565b6101a08401515261149e600382016001611462565b6101a084015160200152509092915050565b6114b8615624565b6109e98242612565565b6000806107896016612626565b600064ffffffffff83146114ef57816001600160501b0316600003611505565b611505846001600160501b03841660000361243c565b949350505050565b8151600090610ea59061152f846ec097ce7bc90715b34b9f1000000000611636565b9061263f565b60006115448686868686612670565b90506000611564606461152f8960e001518561163690919063ffffffff16565b905060006115728383612706565b905061158288604001518361271c565b611590886040015182612753565b64ffffffffff8514156115c8576115c888600001518960400151856115c3878d610160015161279790919063ffffffff16565b6127d0565b6115dc8860000151896040015183856128e4565b60808701516115eb9084612706565b6080909701969096525095945050505050565b6000806107896015612626565b60008282111561161a57600080fd5b50900390565b60006001600160501b03821115610c8657600080fd5b8181026000198314156116665781158061165857508282828161165557fe5b05145b61166157600080fd5b610789565b82158061167b57508183828161167857fe5b05145b61078957600080fd5b8181018281121560008312151461078957600080fd5b6000806116a989888686611b4c565b905060006116b687611c4b565b90506001600160581b0381106116cb57600080fd5b600060788763ffffffff16901b609883901b60f085901b60f860008c136116f35760016116f6565b60005b600581111561170157fe5b60ff16901b17171760001b905073__TradingAction_________________________63715e90028c8c846040518463ffffffff1660e01b815260040161174993929190615e5f565b60206040518083038186803b15801561176157600080fd5b505af4158015611775573d6000803e3d6000fd5b505050506040513d601f19601f820116820180604052508101906117999190615bcc565b9b9a5050505050505050505050565b60006117b26129d4565b61ffff861660009081526020828152604080832088845290915290208054919250906117fb9061127190600160501b90046001600160501b03166117f586610c77565b90610e93565b815469ffffffffffffffffffff60501b1916600160501b6001600160501b03928316021780835561183b9161127191600160a01b9004166117f587610c77565b81546001600160501b0391909116600160a01b02600160a01b600160f01b031990911617815561186f876105e78887610ca0565b61187d6105e78787866129e1565b610ac26105e788888887612a59565b82516020850151146118a4578351156118a457600080fd5b60808401516118b39082611684565b608085015283516118c49083611684565b808552600012156118d457600080fd5b60208301516118e39083611684565b6020840181905260001215610b7257600080fd5b86546001600160501b0316600090810390611913888686612ac4565b90506119246112716103b1836109db565b89546001600160501b0319166001600160501b0391909116178955600061194b8383612ae2565b9050600064ffffffffff87141561197257885161196b908b908a85612b69565b50846119a9565b846119a95788516119869089898787612b96565b885161199b9089611996856109db565b612c56565b6119a6898b8a612d2c565b90505b6000821380156119b7575084155b156119c95788516119c9908983612dd2565b5050505050505050505050565b60008060006119e486610c77565b9050806119f8576000809250925050611a97565b6000611a078861ffff16611d14565b9050600381606001516005811115611a1b57fe5b1415611a6b5734821015611a3b57611a368983340387612e4e565b611a63565b348214611a635760405162461bcd60e51b8152600401611a5a90615dc9565b60405180910390fd5b869350611a85565b611a82611a7d82600001518b85612f11565b610c8a565b93505b611a92898986848a613099565b925050505b9550959350505050565b60008212611aae57600080fd5b600064ffffffffff841415611ad857610160860151611ad19061088a908561150d565b9050611b05565b611af4866040015187600001518686868b61010001514261169a565b9050611b038688838742611535565b505b60008113611b1257600080fd5b611b1e8786858461188c565b8651611b29906109db565b86606001511315610ac25760405162461bcd60e51b8152600401611a5a90615e3b565b6000806000611b5e8761ffff166130e0565b9050611b6e8160ff1687866130f6565b909350915084831115611b8057600080fd5b8115611b8b57600080fd5b5050949350505050565b60008086608001511215611ba857600080fd5b8651602087015114611bcf57604086015115611bc357600080fd5b86516020870152611be0565b8651602087015114611be057600080fd5b611bec87878787613185565b606086015160808701518851600092611c0892899288886131ed565b600060808901529050611c1d88888884613185565b611c278582610e93565b9150611c338887610acc565b509695505050505050565b6000806107896021612626565b600080821215611c6557611c5e826109db565b90506109ec565b50806109ec565b600083611c7b57506000610d70565b60008412611c8857600080fd5b6000611c978661ffff16611d14565b9050611cac81611ca78688611d27565b613295565b91506000611cb9836109db565b9050611cc68783836132cd565b600382606001516005811115611cd857fe5b1415611cee57611ce9888286612e4e565b611cfb565b8151611cfb9089836133bb565b611d088888858589613099565b50505095945050505050565b611d1c615645565b6109e9826001613432565b6000610ea56ec097ce7bc90715b34b9f100000000061152f85600001518561163690919063ffffffff16565b60006305f5e10083604001511215611d8157611d7a6001611d748585613295565b90611684565b9050610789565b610ea583611ca7846001611684565b6000808080611d9f8c306134cc565b8d5160405163089e0a2160e31b81529192506001600160a01b0316906344f0510890611ddb908e908e908e908e908e908e908e90600401615ce6565b602060405180830381600087803b158015611df557600080fd5b505af1158015611e09573d6000803e3d6000fd5b505050506040513d601f19601f82011682018060405250810190611e2d9190615bcc565b92506000611e3b8d306134cc565b9050611e47818361160b565b9450611e588d600001518383613576565b50506000611e6f611e6885610c8a565b8d906135f3565b6101608e0151909150611e82908261150d565b9150611e938d604001518383613623565b611ea08d8d8c8686613727565b5099509950999650505050505050565b608085015115611ebf57600080fd5b60608401518551611ecf906109db565b128015611ed95750815b15611f0d5784511580611ef157506001856040015111155b611f0d5760405162461bcd60e51b8152600401611a5a90615e3b565b611f1684612305565b15611fb5576000611f25613777565b60608701516001600160a01b03908116600090815260209283526040808220895190931682529183522080549188015190925064ffffffffff90911690811480611f6d575080155b611f7657600080fd5b80611fb2578154600160281b90046001600160501b0316158015611fa957508154600160781b90046001600160501b0316155b611fb257600080fd5b50505b6000611fd56103b161088a87610160015189602001518a60000151612ac4565b9050811561205e576040805160e08101825285546001600160501b038082168352600160501b80830482166020850152600160a01b80840464ffffffffff1695850195909552600160c81b90920463ffffffff16606084015260018801548082166080850152918204811660a084015292900490911660c082015261205e908790879084613784565b61206b8660400151611620565b84546001600160501b0391909116600160501b0269ffffffffffffffffffff60501b1990911617845560208601516120a290613c6a565b845464ffffffffff91909116600160a01b0264ffffffffff60a01b1990911617845560a08601516120d290613c7e565b845463ffffffff91909116600160c81b0263ffffffff60c81b199091161784556120fb81611620565b84546001600160501b0319166001600160501b0391909116179093555050505050565b60008060008060008061212f613c91565b6001600160a01b039097166000908152602097909752505060409094205461ffff81169563ffffffff620100008304811696506601000000000000830416945060ff600160501b8304169350600160581b90910460d81b9150565b60006121988484848861232e565b86549091506001600160501b031660006121b28284612706565b90506121c061127182610c77565b88546001600160501b0319166001600160501b03919091161788556121e98787611996876109db565b5050505050505050565b6000612200836040610778565b1561229a578251606085015160408087015188519151631de7e96360e21b81526001600160a01b039094169363779fa58c9361224193909291600401615d4a565b602060405180830381600087803b15801561225b57600080fd5b505af115801561226f573d6000803e3d6000fd5b505050506040513d601f19601f820116820180604052508101906122939190615bcc565b90506122a1565b5060408301515b6122b18585858760400151610930565b6040840181905281546122d89061127190600160a01b90046001600160501b031683610e93565b82546001600160501b0391909116600160a01b02600160a01b600160f01b03199091161790915550505050565b6101408101515160009061ffff161515806109e957505061014001516020015161ffff16151590565b600080600061233d8787613c9e565b915091508061234b57600080fd5b6123558286613d31565b92506001600160a01b03841615611b8b57611b8b8488888887613d8d565b8060008084131561243157600061239761239061088a8b88611d27565b8a90613d31565b90506000848212156123d1575060009250836123ca6123c361088a6123bc8585612706565b8d9061243c565b8b9061150d565b92506123e0565b50806123dd8582612706565b93505b6123ec8a888a84612b69565b88546001600160501b031660006124038284611684565b905061241161127182610c77565b8b546001600160501b0319166001600160501b0391909116178b55505050505b965096945050505050565b60006001821261244b57600080fd5b8161245857506000610789565b610ea560016124876ec097ce7bc90715b34b9f100000000061152f87602001518761163690919063ffffffff16565b90612706565b80612497576112bb565b60006124a6858585600b613e60565b905060008060008412156124bf575086905060006124c6565b5060009050865b60006124d185611c4b565b9050816001600160a01b0316836001600160a01b0316336001600160a01b0316600080516020615f438339815191528785604051612510929190615e8d565b60405180910390a4505050505050505050565b6000806107896014612626565b60008261253f57506000610789565b8282028284828161254c57fe5b0414610ea557600080fd5b600881901c60ff9091161b90565b61256d615624565b600061257884613e96565b905082816000015110156125b75760008061259286613f5e565b90506125a086848388613fdb565b90935091506125b086838561407f565b50506125c4565b805183146125c457600080fd5b60405180606001604052806125ed611a7d8460a001518560c0015161253090919063ffffffff16565b8152602001612610611a7d8460a001518560e0015161253090919063ffffffff16565b8152602001826060015181525091505092915050565b6000620f424082602681111561263857fe5b0192915050565b6000816000191480156126555750600160ff1b83145b1561265f57600080fd5b81838161266857fe5b059392505050565b60008064ffffffffff8414156126c257602086015164ffffffffff1461269a576000915050610d70565b6126b4611a7d8760a001518561160b90919063ffffffff16565b60a0870184905290506126d2565b6126cf611a7d858561160b565b90505b60808701516000906126ee906301da9c009061152f9085611636565b90506126fa86826142b0565b98975050505050505050565b8082038281131560008312151461078957600080fd5b600081121561272a57600080fd5b6000612738610fee846142c9565b90506127448183611684565b9050610773610fee8483614322565b600081121561276157600080fd5b60006127708361ffff16614396565b9050600061277e82856142c9565b905061278a8184611684565b9050610b72828583614322565b6000808212156127ca576127c56001612487856020015161152f87600001518761163690919063ffffffff16565b610ea5565b50919050565b60006127da611c3e565b61ffff8516600090815260209190915260408120546001600160a01b031691506128026143bc565b61ffff8616600090815260209190915260409081902054905163ad1c095d60e01b81526001600160a01b039091169150819063ad1c095d9061284a9089908790600401615d31565b600060405180830381600087803b15801561286457600080fd5b505af1158015612878573d6000803e3d6000fd5b505060405163ad1c095d60e01b81526001600160a01b038516925063ad1c095d91506128aa9089908890600401615d31565b600060405180830381600087803b1580156128c457600080fd5b505af11580156128d8573d6000803e3d6000fd5b50505050505050505050565b60006128ee611c3e565b61ffff8516600090815260209190915260408120546001600160a01b031691506129166143c9565b61ffff8616600090815260209190915260409020546001600160a01b03908116915082166323de665187610fee61294c87610c77565b6040518463ffffffff1660e01b815260040161296a93929190615c99565b600060405180830381600087803b15801561298457600080fd5b505af1158015612998573d6000803e3d6000fd5b50505050816001600160a01b03166323de665187836129b688610c77565b6040518463ffffffff1660e01b81526004016128aa93929190615c99565b6000806107896020612626565b6000806129ef8585856143d6565b915091506000806000851215612a0757879150612a0a565b50865b806001600160a01b0316826001600160a01b0316336001600160a01b0316600080516020615f238339815191528787604051612a47929190615da4565b60405180910390a45050505050505050565b80612a63576112bb565b6000612a6f84846144bb565b90506000821215612a7e579394935b6001600160a01b0380861690871633600080516020615f4383398151915284612aa687611c4b565b604051612ab4929190615e8d565b60405180910390a4505050505050565b600064ffffffffff8314612ad85781611505565b6115058483613d31565b600081831480612aff575060008312158015612aff575060008212155b15612b0c57506000610789565b60008313158015612b1d5750816000125b15612b29575081610789565b60008213158015612b3a5750826000125b15612b4857611d7a826109db565b60008313158015612b5a575060008213155b1561007b57611d7a8383612706565b8015610b725783516020850151600091612b889161152f908590611636565b90506112bb848484846144d9565b6000612ba28383612ae2565b905080612baf57506112bb565b6000612bb96129d4565b61ffff87166000908152602082815260408083208984529091528120549192506001600160501b03909116810390612bf18285612706565b90506000811315612c0157600080fd5b612c106112716103b1836109db565b61ffff89166000908152602085815260408083208b8452909152902080546001600160501b0319166001600160501b0392909216919091179055610d3b898989876129e1565b6000612c60614616565b6001600160a01b03851660009081526020918252604080822061ffff871683529092529081208054909250612ca590600160501b90046001600160501b031684612706565b9050612cb361127182610c77565b82546001600160501b0391909116600160501b0269ffffffffffffffffffff60501b1990911617825560405161ffff8516906001600160a01b038716907f20478ef460e49d010960d4f3fff35d8dae385443abfac09035d6a2ccbcd834c490612d1d908590615e84565b60405180910390a35050505050565b600080846040015161ffff168361ffff161415612d7857612d4b6115fe565b85516001600160a01b031660009081526020918252604080822064ffffffffff8352909252209050612db5565b612d80614623565b85516001600160a01b031660009081526020918252604080822064ffffffffff8352835280822061ffff871683529092522090505b8054610d7090859064ffffffffff906001600160501b03166114cf565b6000612ddc614616565b6001600160a01b03851660009081526020918252604080822061ffff871683529092529081208054909250612e2190600160501b90046001600160501b031684612706565b82549091506001600160501b03168113156112bb5760405162461bcd60e51b8152600401611a5a90615e15565b8015612edb577304b9c40df01bdc99dd2c31ae4b232f20f4bbac5b6001600160a01b031663d0e30db0836040518263ffffffff1660e01b81526004016000604051808303818588803b158015612ea357600080fd5b505af1158015612eb7573d6000803e3d6000fd5b50505050506107597304b9c40df01bdc99dd2c31ae4b232f20f4bbac5b84846133bb565b6040516001600160a01b0384169083156108fc029084906000818181858888f19350505050158015610b72573d6000803e3d6000fd5b600080846001600160a01b03166370a08231306040518263ffffffff1660e01b815260040180826001600160a01b0316815260200191505060206040518083038186803b158015612f6157600080fd5b505afa158015612f75573d6000803e3d6000fd5b505050506040513d6020811015612f8b57600080fd5b5051604080516323b872dd60e01b81526001600160a01b038781166004830152306024830152604482018790529151929350908716916323b872dd9160648082019260009290919082900301818387803b158015612fe857600080fd5b505af1158015612ffc573d6000803e3d6000fd5b50505050613008614630565b6000856001600160a01b03166370a08231306040518263ffffffff1660e01b815260040180826001600160a01b0316815260200191505060206040518083038186803b15801561305757600080fd5b505afa15801561306b573d6000803e3d6000fd5b505050506040513d602081101561308157600080fd5b5051905061308f818361160b565b9695505050505050565b6000806130a684866135f3565b90506130b2838261150d565b91506130bf87878461469d565b6130ca868383613623565b83516130d6908661471d565b5095945050505050565b6000806130ec83614772565b60ff169392505050565b6000806000851161310657600080fd5b600785111561311457600080fd5b600061311f8461478f565b905060015b868111613177576000613140613139836147ad565b8490610e93565b905086811415613158575092506000915061317d9050565b8681111561316e575092506001915061317d9050565b50600101613124565b50600080fd5b935093915050565b835160208401511461319657600080fd5b60006131a06115fe565b83516001600160a01b0316600090815260208281526040808320895184529091529081902090870151919250906131d79084610e93565b6040808801919091528501516109989084610e93565b60008061320b88600001518960400151888b61016001516000610d46565b885160405163dc6679c560e01b81529192506001600160a01b03169063dc6679c590613243908a9085908a908a908a90600401615d6b565b602060405180830381600087803b15801561325d57600080fd5b505af1158015613271573d6000803e3d6000fd5b505050506040513d601f19601f820116820180604052508101906126fa9190615bcc565b60006305f5e100836040015114156132ae575080610789565b610ea56305f5e10061152f85604001518561163690919063ffffffff16565b60006132d7614851565b83516001600160a01b0316600090815260208290526040902054909150808311613302575050610773565b600061330d8661485e565b90506000816001600160a01b031663b5e4da238487036040518263ffffffff1660e01b815260040161333f9190615e84565b60006040518083038186803b15801561335757600080fd5b505afa15801561336b573d6000803e3d6000fd5b505050506040513d6000823e601f3d908101601f191682016040526133939190810190615abe565b905060006133a1878361488e565b91506133af90508482610e93565b8611156121e957600080fd5b826001600160a01b031663a9059cbb83836040518363ffffffff1660e01b815260040180836001600160a01b0316815260200182815260200192505050600060405180830381600087803b15801561341257600080fd5b505af1158015613426573d6000803e3d6000fd5b50505050610773614630565b61343a615645565b6000613444614aa5565b6000858152602082815260408083208715158452825291829020825160a08101845281546001600160a01b038116825260ff600160a01b82048116151594830194909452600160b01b81048416600a0a9482019490945293945092916060830191600160a81b9091041660058111156134b957fe5b8152600060209091015295945050505050565b60006003836060015160058111156134e057fe5b14156134f757506001600160a01b03811631610789565b82516040516370a0823160e01b81526001600160a01b03909116906370a0823190613526908590600401615c6b565b60206040518083038186803b15801561353e57600080fd5b505afa158015613552573d6000803e3d6000fd5b505050506040513d601f19601f82011682018060405250810190611d7a9190615bcc565b6000613580614851565b6001600160a01b038516600090815260208290526040902054909150838111156135a957600080fd5b60006135c06135b786610c8a565b61248786610c8a565b90506135cf6103b18383611684565b6001600160a01b039096166000908152602093909352505060409020929092555050565b60006305f5e1008360400151141561360c575080610789565b6040830151610ea59061152f846305f5e100611636565b600061362d614ab2565b61ffff8516600090815260209190915260409020805490915064ffffffffff16421461365857600080fd5b805460009061367790600160281b90046001600160581b031685611684565b825490915060009061369990600160801b90046001600160581b031685611684565b905080624c4b4013156136ab57600080fd5b6136bc6136b782610c77565b614abf565b83546001600160581b0391909116600160801b026affffffffffffffffffffff60801b199091161783556136f26136b783610c77565b83546001600160581b0391909116600160281b026fffffffffffffffffffffff000000000019909116178355610ac483614ad5565b81156112bb5760006137546103b161374861374186610c8a565b88906135f3565b6101608901519061150d565b9050610ac48660000151858860400151613771856117f588610c77565b85614ba0565b600080610789601a612626565b60408051600280825260608201835260009260208301908036833750506040805160028082526060820183529394506000939092509060208301908036833701905050905060006137eb86600001518760400151876040015164ffffffffff166000613e60565b9050600a60ff1681178360008151811061380157fe5b602002602001018181525050600960ff1681178360018151811061382157fe5b6020026020010181815250508660200151600014806138645750604085015164ffffffffff161580159061386457508660200151856040015164ffffffffff1614155b156139065784600001516001600160501b03168260008151811061388457fe5b60200260200101818152505084602001516001600160501b0316826001815181106138ab57fe5b60200260200101818152505060006001600160a01b031687606001516001600160a01b0316336001600160a01b0316600080516020615f2383398151915286866040516138f9929190615da4565b60405180910390a4613b03565b846040015164ffffffffff1687602001511415613b035784516000906001600160501b0316851080613948575085602001516001600160501b03168860400151105b90508015613a185785516001600160501b03168510613968576000613977565b85516001600160501b03168590035b8360008151811061398457fe5b6020026020010181815250506139b4886040015187602001516001600160501b031661160b90919063ffffffff16565b836001815181106139c157fe5b60200260200101818152505060006001600160a01b031688606001516001600160a01b0316336001600160a01b0316600080516020615f238339815191528787604051613a0f929190615da4565b60405180910390a45b801580613a2e575085516001600160501b031685115b15613b01578551613a499086906001600160501b031661160b565b83600081518110613a5657fe5b602002602001018181525050876040015186602001516001600160501b031610613a81576000613a9d565b60208601516040890151613a9d916001600160501b031661160b565b83600181518110613aaa57fe5b60200260200101818152505087606001516001600160a01b031660006001600160a01b0316336001600160a01b0316600080516020615f238339815191528787604051613af8929190615da4565b60405180910390a45b505b602087015115801590613b2557508660200151856040015164ffffffffff1614155b15613c0b576000613b45876000015188604001518a602001516000613e60565b9050600a60ff16811784600081518110613b5b57fe5b602002602001018181525050600960ff16811784600181518110613b7b57fe5b6020026020010181815250508483600081518110613b9557fe5b602002602001018181525050876040015183600181518110613bb357fe5b60200260200101818152505087606001516001600160a01b031660006001600160a01b0316336001600160a01b0316600080516020615f238339815191528787604051613c01929190615da4565b60405180910390a4505b60808501516001600160501b031615610ac257606087015160808601516040516000926001600160a01b0316913391600080516020615f4383398151915291613c5991600b88179190615eb1565b60405180910390a450505050505050565b600064ffffffffff821115610c8657600080fd5b600063ffffffff821115610c8657600080fd5b6000806107896002612626565b613ca6615624565b600080613cb1614bf6565b61ffff861660009081526020828152604080832088845290915290208054600160f01b900460ff1693509091508215613d285780546001600160501b03600160a01b8204811691613d03911682612530565b85528154613d2190600160501b90046001600160501b031682612530565b6020860152505b50509250929050565b600081600013158015613d445750600a82125b15613d5157506000610789565b60008212613d5e57600080fd5b610ea56001612487856020015161152f6ec097ce7bc90715b34b9f10000000008761163690919063ffffffff16565b6000613d9985856144bb565b90506000831215613dab57600160401b175b60006001600160a01b03871633600080516020615f4383398151915284613dd188611c4b565b604051613ddf929190615e8d565b60405180910390a46000613df66000841287614c03565b9050806001600160a01b03166323de66516105e789613e1487611c4b565b6040518463ffffffff1660e01b8152600401613e3293929190615c99565b600060405180830381600087803b158015613e4c57600080fd5b505af11580156119c9573d6000803e3d6000fd5b68010000000000000000600160e01b03604085901b1667ffff000000000000603085901b1617600883901b178117949350505050565b613e9e61566c565b6000613ea8614ab2565b61ffff93841660009081526020918252604090819020805464ffffffffff81168652600160281b81046001600160581b03908116948701949094526001820154841692860192909252600160d81b820463ffffffff166060860152600160801b9091049091166080840152600201546001600160501b0380821660a0850152600160501b8204811660c0850152600160a01b82041660e0840152600160f01b900460ff1661012c02909216610100820152919050565b600080613f6a8361485e565b6001600160a01b031663ef81f2166040518163ffffffff1660e01b81526004016040805180830381600087803b158015613fa357600080fd5b505af1158015613fb7573d6000803e3d6000fd5b505050506040513d601f19601f820116820180604052508101906115059190615be4565b613fe361566c565b6000806000613ff3888689614c63565b60c08b019290925260e08a0192909252602089015191935091506140179083610e93565b60208801526080870151600090156140455760808801516140429061403c898261160b565b90614d74565b90505b61406561405a670de0b6b3a764000083610e93565b60a08a015190614d91565b60a089015250506080860194909452505082529092909150565b6000614089614ab2565b60008561ffff16815260200190815260200160002090506140ad8260000151613c6a565b815464ffffffffff191664ffffffffff9190911617815560a08201516140d290611620565b6002820180546001600160501b0319166001600160501b039290921691909117905560c082015161410290611620565b81600201600a6101000a8154816001600160501b0302191690836001600160501b031602179055506141378260e00151611620565b8160020160146101000a8154816001600160501b0302191690836001600160501b0316021790555061416c8260200151614abf565b81546001600160581b0391909116600160281b026fffffffffffffffffffffff00000000001990911617815560408201516141a690614abf565b6001820180546affffffffffffffffffffff19166001600160581b039290921691909117905560808201516141da90614abf565b81546001600160581b0391909116600160801b026affffffffffffffffffffff60801b19909116178155606082015161421290613c7e565b815463ffffffff91909116600160d81b0263ffffffff60d81b19909116178155821561425e57600061424384610c8a565b905061424f858261271c565b61425c610fee868361469d565b505b8361ffff167fef25641e225e493886510ca1ad6584fa7b442b9fea820a29d1de3ce27d270fd28360a001518460c001518560e001516040516142a293929190615e9b565b60405180910390a250505050565b6000610ea56142bf8484611636565b633b9aca0061263f565b6000806142d4614dae565b6001600160a01b03851660009081526020828152604080832061ffff8816845290915281208054600160a81b9004600a90810b900b945091925083121561431a57600080fd5b505092915050565b600081121561433057600080fd5b600061433a614dae565b6001600160a01b03851660009081526020828152604080832061ffff88168452909152902090915061436b83614dbb565b8154600a9190910b6001600160581b0316600160a81b026001600160a81b0390911617905550505050565b6000806143a16143c9565b6000938452602052505060409020546001600160a01b031690565b6000806107896022612626565b6000806107896003612626565b60408051600280825260608281019093528291600091816020016020820280368337019050509050600061440a87876144bb565b9050808260008151811061441a57fe5b602002602001018181525050600160401b81178260018151811061443a57fe5b60209081029190910101526040805160028082526060820190925260009181602001602082028036833701905050905061447386611c4b565b8160008151811061448057fe5b60200260200101818152505061449586611c4b565b816001815181106144a257fe5b6020908102919091010152919791965090945050505050565b67ffff000000000000603083901b16600882901b1760011792915050565b60006144e3614ab2565b61ffff8516600090815260209190915260409020805490915064ffffffffff16421461450e57600080fd5b8054600160f81b900460ff1661452357600080fd5b600181015460009061453e906001600160581b031685611684565b825490915060009061456090600160281b90046001600160581b031685611684565b9050816009191280156145735750600082125b1561457d57600091505b8060091912801561458e5750600081125b15614597575060005b6145a36136b783610c77565b6001840180546affffffffffffffffffffff19166001600160581b03929092169190911790556145d56136b782610c77565b83546001600160581b0391909116600160281b026fffffffffffffffffffffff00000000001990911617835561460d878786886127d0565b610ac283614ad5565b6000806107896017612626565b6000806107896018612626565b600061463a6156b8565b3d801561464e576020811461465757600080fd5b60019250614662565b60206000833e815192505b5081610fb7576040805162461bcd60e51b8152602060048201526005602482015264045524332360dc1b604482015290519081900360640190fd5b60006146a7611c3e565b61ffff8416600090815260209190915260409081902054905163ad1c095d60e01b81526001600160a01b039091169150819063ad1c095d906146ef9087908690600401615d31565b600060405180830381600087803b15801561470957600080fd5b505af11580156121e9573d6000803e3d6000fd5b6000614727614851565b6001600160a01b0384166000908152602082905260409020549091506147506103b18285611684565b6001600160a01b03909416600090815260209290925250604090209190915550565b60008061477d614ded565b60009384526020525050604090205490565b60006276a7008210156147a157600080fd5b506276a7008106900390565b600081600114156147c257506276a7006109ec565b81600214156147d5575062ed4e006109ec565b81600314156147e957506301da9c006109ec565b81600414156147fd57506303b538006109ec565b816005141561481157506309450c006109ec565b8160061415614825575063128a18006109ec565b8160071415614839575063251430006109ec565b60405162461bcd60e51b8152600401611a5a90615dee565b6000806107896026612626565b600080614869614dfa565b61ffff939093166000908152602093909352505060409020546001600160a01b031690565b60008060005b8351811015614a9d5760008482815181106148ab57fe5b60200260200101519050600081606001516001600160a01b03166370a08231306040518263ffffffff1660e01b81526004016148e79190615c6b565b60206040518083038186803b1580156148ff57600080fd5b505afa158015614913573d6000803e3d6000fd5b505050506040513d601f19601f820116820180604052508101906149379190615bcc565b9050600061494588306134cc565b905060005b8351518110156149a1576149908460000151828151811061496757fe5b602002602001015160008660200151848151811061498157fe5b60200260200101516001614e07565b61499957600196505b60010161494a565b5060006149ae89306134cc565b905060006149bc828461160b565b905080856040015111156149cf57600080fd5b60608501516040516370a0823160e01b81526000916001600160a01b0316906370a0823190614a02903090600401615c6b565b60206040518083038186803b158015614a1a57600080fd5b505afa158015614a2e573d6000803e3d6000fd5b505050506040513d601f19601f82011682018060405250810190614a529190615bcc565b905084811115614a6157600080fd5b614a7086606001518683613576565b614a7a8883610e93565b9750614a8b8b600001518585613576565b50506001909401935061489492505050565b509250929050565b6000806107896007612626565b600080610789601d612626565b60006001600160581b03821115610c8657600080fd5b80546002820154600091614b1791600160281b9091046001600160581b031690614b11906001600160501b03600160501b820481169116611636565b90611636565b60018301546002840154919250600091614b51916001600160581b031690614b11906001600160501b03600160a01b820481169116611636565b8354909150600090614b889060016001600160581b03600160801b909204821601166ec097ce7bc90715b34b9f1000000000611636565b905080614b958484612706565b1315610b7257600080fd5b6000614baa611c3e565b61ffff85166000908152602091909152604090819020549051631cef4ba360e11b81526001600160a01b03909116915081906339de9746906128aa908990899088908890600401615cbd565b600080610789601e612626565b600082614c3557614c12611c3e565b61ffff8316600090815260209190915260409020546001600160a01b0316610ea5565b614c3d6143bc565b61ffff8316600090815260209190915260409020546001600160a01b0316905092915050565b600080600080600080614c768988615075565b89519095509193509150600090614c9d90614c92908b9061160b565b633b9aca0090612530565b9050614cd7614ccc6301da9c00614cb48585612530565b81614cbb57fe5b670de0b6b3a7640000919004610e93565b60e08a015190614d91565b9650614cf9614cee6301da9c00614cb48785612530565b60c08a015190614d91565b955081831415614d10575060009350614d6b915050565b6000614d32614d276301da9c00614cb48786612530565b60e08b015190614d91565b90506000614d40898361160b565b9050614d6388614d5d838d6040015161253090919063ffffffff16565b90615110565b965050505050505b93509350935093565b6000610ea5614d8b84670de0b6b3a7640000612530565b83615110565b6000610ea5614da08484612530565b670de0b6b3a7640000615110565b6000806107896006612626565b60006a7fffffffffffffffffffff198212801590614de457506a7fffffffffffffffffffff8213155b610c8657600080fd5b6000806107896009612626565b600080610789601f612626565b6000806000866001600160a01b031686866040518082805190602001908083835b60208310614e475780518252601f199092019160209182019101614e28565b6001836020036101000a03801982511681845116808217855250505050505090500191505060006040518083038185875af1925050503d8060008114614ea9576040519150601f19603f3d011682016040523d82523d6000602084013e614eae565b606091505b509150915083614f515781614ec28261512f565b90614f4b5760405162461bcd60e51b81526004018080602001828103825283818151815260200191508051906020019080838360005b83811015614f10578181015183820152602001614ef8565b50505050905090810190601f168015614f3d5780820380516001836020036101000a031916815260200191505b509250505060405180910390fd5b506130d6565b866001600160a01b03167f3c7e398c5e91088cae639370e35b25ea669d81fbdf0def5388e73661bc34e08e8787614f878561512f565b604051808481526020018060200180602001838103835285818151815260200191508051906020019080838360005b83811015614fce578181015183820152602001614fb6565b50505050905090810190601f168015614ffb5780820380516001836020036101000a031916815260200191505b50838103825284518152845160209182019186019080838360005b8381101561502e578181015183820152602001615016565b50505050905090810190601f16801561505b5780820380516001836020036101000a031916815260200191505b509550505050505060405180910390a25095945050505050565b6000806000806000856020015111156150c2576150bf6150a68660c00151876020015161253090919063ffffffff16565b60e087015160408801516150b991612530565b90615236565b90505b60006150cd87615249565b90506150d9818361527c565b945081156150f0576150ed8186600161532f565b93505b6020860151156151075761510485836153a9565b92505b50509250925092565b600080821161511e57600080fd5b81838161512757fe5b049392505050565b6060604482511015615165575060408051808201909152600d81526c14da5b195b9d0814995d995c9d609a1b60208201526109ec565b600482018051909260240190602081101561517f57600080fd5b810190808051604051939291908464010000000082111561519f57600080fd5b9083019060208201858111156151b457600080fd5b82516401000000008111828201881017156151ce57600080fd5b82525081516020918201929091019080838360005b838110156151fb5781810151838201526020016151e3565b50505050905090810190601f1680156152285780820380516001836020036101000a031916815260200191505b506040525050509050919050565b6000610ea5614d8b84633b9aca00612530565b6152516156d6565b600061525b6153c2565b61ffff8416600090815260209190915260408120549150610ea590826153cf565b60008083608001511161528e57600080fd5b633b9aca0082111561529f57600080fd5b825182116152be5782516040840151611d7a9190614d5d908590612530565b826020015182116152f6576040830151835160208501516060860151611d7a93926117f59281900391614d5d91880390859003612530565b610ea583606001516117f58560200151633b9aca0003614d5d87606001518860800151038860200151880361253090919063ffffffff16565b60008061534e6064614d5d8760e001518761253090919063ffffffff16565b90508460a00151811015615363575060a08401515b8460c00151811115615376575060c08401515b821561538d576153868482610e93565b91506153a1565b83811161539c57808403610d70565b600091505b509392505050565b6000610ea56153b88484612530565b633b9aca00615110565b600080610789601b612626565b6153d76156d6565b6064633b9aca008360ff8616602081106153ed57fe5b1a02816153f657fe5b0481526064633b9aca008360ff86166001016020811061541257fe5b1a028161541b57fe5b048160200181815250506154408260028560ff16016020811061543a57fe5b1a6154ee565b60808201819052610100908360ff86166003016020811061545d57fe5b1a028161546657fe5b0460408201526080810151610100908360ff86166004016020811061548757fe5b1a028161549057fe5b0460608201526207a1208260ff8516600501602081106154ac57fe5b1a0260a0820152622625a08260ff8516600601602081106154c957fe5b1a0260c08201528160ff8416600701602081106154e257fe5b1a60e082015292915050565b60008160ff166096106155095760ff8216622625a0026109e9565b5060951960ff919091160162e4e1c00263165a0bc00190565b604051806101e0016040528060006001600160a01b03168152602001600061ffff168152602001600061ffff1681526020016000815260200160008152602001600081526020016000815260200160008152602001600081526020016000815260200161558d61571b565b815260200161559a615624565b8152602001600081526020016155ae61571b565b8152602001600081525090565b6040518060c0016040528060008152602001600081526020016000815260200160006001600160a01b0316815260200160008152602001600081525090565b60405180608001604052806000815260200160008152602001600081526020016000151581525090565b60405180606001604052806000815260200160008152602001600081525090565b6040805160a0810182526000808252602082018190529181018290529060608201906155ae565b6040518061012001604052806000815260200160008152602001600081526020016000815260200160008152602001600081526020016000815260200160008152602001600081525090565b60405180602001604052806001906020820280368337509192915050565b60405180610100016040528060008152602001600081526020016000815260200160008152602001600081526020016000815260200160008152602001600081525090565b60405180604001604052806002906020820280368337509192915050565b80516109ec81615f0a565b600082601f830112615754578081fd5b8151602061576961576483615eec565b615ec8565b8281528181019085830183850287018401881015615785578586fd5b855b858110156157ac57815161579a81615f0a565b84529284019290840190600101615787565b5090979650505050505050565b6000601f83818401126157ca578182fd5b825160206157da61576483615eec565b82815281810190868301865b8581101561587f57815189018a603f820112615800578889fd5b8581015167ffffffffffffffff81111561581657fe5b615827818a01601f19168801615ec8565b81815260408d8184860101111561583c578b8cfd5b8b5b83811015615859578481018201518382018b0152890161583e565b83811115615869578c8a85850101525b50508652505092840192908401906001016157e6565b509098975050505050505050565b60008083601f84011261589e578182fd5b50813567ffffffffffffffff8111156158b5578182fd5b6020830191508360208285010111156158cd57600080fd5b9250929050565b803563ffffffff811681146109ec57600080fd5b600080604083850312156158fa578182fd5b823561590581615f0a565b9150602083013561591581615f0a565b809150509250929050565b60008060008060008060008060e0898b03121561593b578384fd5b883561594681615f0a565b9750602089013561595681615f0a565b9650604089013561596681615f0a565b9550606089013594506080890135935061598260a08a016158d4565b925060c089013567ffffffffffffffff81111561599d578283fd5b6159a98b828c0161588d565b999c989b5096995094979396929594505050565b60008060008060008060008060e0898b0312156159d8578384fd5b88356159e381615f0a565b975060208901356159f381615f0a565b965060408901359550606089013594506080890135935061598260a08a016158d4565b60008060008060008060008060006101008a8c031215615a34578283fd5b8935615a3f81615f0a565b985060208a0135615a4f81615f0a565b975060408a0135965060608a0135955060808a01359450615a7260a08b016158d4565b9350615a8060c08b016158d4565b925060e08a013567ffffffffffffffff811115615a9b578182fd5b615aa78c828d0161588d565b915080935050809150509295985092959850929598565b60006020808385031215615ad0578182fd5b825167ffffffffffffffff80821115615ae7578384fd5b818501915085601f830112615afa578384fd5b8151615b0861576482615eec565b81815284810190848601875b84811015615bbd57815187016080818d03601f19011215615b3357898afd5b60408051608081018181108a82111715615b4957fe5b8252828b015189811115615b5b578c8dfd5b615b698f8d83870101615744565b8252508183015189811115615b7c578c8dfd5b615b8a8f8d838701016157b9565b8c83015250606083015182820152615ba460808401615739565b6060820152865250509287019290870190600101615b14565b50909998505050505050505050565b600060208284031215615bdd578081fd5b5051919050565b60008060408385031215615bf6578182fd5b505080516020909101519092909150565b6000815180845260208085019450808401835b83811015615c3657815187529582019590820190600101615c1a565b509495945050505050565b60008284528282602086013780602084860101526020601f19601f85011685010190509392505050565b6001600160a01b0391909116815260200190565b6001600160a01b0392831681529116602082015260400190565b6001600160a01b039384168152919092166020820152604081019190915260600190565b6001600160a01b0394851681529290931660208301526040820152606081019190915260800190565b600060018060a01b03808a16835280891660208401525086604083015285606083015284608083015260c060a0830152615d2460c083018486615c41565b9998505050505050505050565b6001600160a01b03929092168252602082015260400190565b6001600160a01b039390931683526020830191909152604082015260600190565b600060018060a01b038716825285602083015284604083015260806060830152615d99608083018486615c41565b979650505050505050565b600060408252615db76040830185615c07565b8281036020840152610d708185615c07565b6020808252600b908201526a4554482042616c616e636560a81b604082015260600190565b6020808252600d908201526c092dcecc2d8d2c840d2dcc8caf609b1b604082015260600190565b6020808252600c908201526b4d617820436170616369747960a01b604082015260600190565b6020808252600a90820152694d696e20426f72726f7760b01b604082015260600190565b61ffff9390931683526001600160a01b03919091166020830152604082015260600190565b90815260200190565b918252602082015260400190565b9283526020830191909152604082015260600190565b9182526001600160501b0316602082015260400190565b60405181810167ffffffffffffffff81118282101715615ee457fe5b604052919050565b600067ffffffffffffffff821115615f0057fe5b5060209081020190565b6001600160a01b0381168114615f1f57600080fd5b5056fe4a39dc06d4c0dbc64b70af90fd698a233a518aa5d07e595d983b8c0526c8f7fbc3d58168c5ae7397731d063d5bbf3d657854427343f4c083240f7aacaa2d0f62a2646970667358221220c5251d7210e2ba924c1ca5a1c4fd7a01195d92bc9846a7fac09a5c08ffeb5e7d64736f6c63430007060033","bytecodeSha1":"f86c82099c2186367290ffdc49a921942a201a85","compiler":{"evm_version":"istanbul","optimizer":{"enabled":true,"runs":200},"version":"0.7.6+commit.7338295f"},"contractName":"VaultAccountAction","deployedBytecode":"60806040526004361061007b5760003560e01c80638da5cb5b1161004e5780638da5cb5b146100f357806395c1a20214610108578063c4c96dae1461011b578063eec51108146101305761007b565b806324a3d62214610080578063653b6104146100ab5780636ce48f01146100cb57806382463367146100de575b600080fd5b34801561008c57600080fd5b50610095610152565b6040516100a29190615c6b565b60405180910390f35b6100be6100b9366004615a16565b610161565b6040516100a29190615e84565b6100be6100d9366004615920565b6102fd565b3480156100ea57600080fd5b506100956104f2565b3480156100ff57600080fd5b50610095610501565b6100be6101163660046159bd565b610518565b34801561012757600080fd5b50610095610666565b34801561013c57600080fd5b5061015061014b3660046158e8565b61067e565b005b6002546001600160a01b031681565b60006002600a54141561017357600080fd5b6002600a5560006101838a610709565b9050610191818c6010610734565b61019c816080610778565b156101a7576001600a555b60006101b38c8361078f565b90506101bf818361083e565b506101cb826001610778565b6101d457600080fd5b6101df826002610778565b6101e857600080fd5b60008a116101f557600080fd5b888160200151141561020657600080fd5b88421061021257600080fd5b60006102228383602001516108a5565b60408301519450905061023781838587610930565b610254838261024985600001516109db565b859291908c426109f1565b81511561026057600080fd5b61026a8184610acc565b61027583838b610b78565b61028582848c8e8b8b8b8b610bd6565b9350306001600160a01b031663c9384f268d8f6040518363ffffffff1660e01b81526004016102b5929190615c7f565b600060405180830381600087803b1580156102cf57600080fd5b505af11580156102e3573d6000803e3d6000fd5b50506001600a5550939d9c50505050505050505050505050565b60006002600a54141561030f57600080fd5b6002600a55600061031f89610709565b905061032d818b6008610734565b610338816080610778565b15610343576001600a555b600061034f8b8361078f565b905042603c8260a0015101111561036557600080fd5b61036f818361083e565b5060006103808383602001516108a5565b602083015190915064ffffffffff14801561039c575060001988145b156103b9576103b66103b183600001516109db565b610c77565b97505b6103d283826103c78b610c8a565b859291908b426109f1565b6103de8183858c610930565b600082608001511315610424576103ff8b8b85604001518560800151610ca0565b61041a8a846040015184608001518661016001516000610d46565b6000608084015293505b61043c61043584848d8d8b8b610d79565b8590610e93565b93506104488184610acc565b815115801561045957506040820151155b1561046657600060208301525b6104738284600180610eac565b6020820151156104de57306001600160a01b031663c9384f268c8e6040518363ffffffff1660e01b81526004016104ab929190615c7f565b600060405180830381600087803b1580156104c557600080fd5b505af11580156104d9573d6000803e3d6000fd5b505050505b50506001600a555098975050505050505050565b6001546001600160a01b031681565b60005464010000000090046001600160a01b031681565b60006002600a54141561052a57600080fd5b6002600a5561053889610f3c565b876001600160a01b0316896001600160a01b0316141561055757600080fd5b600061056289610709565b9050610570818b6004610734565b61057b816080610778565b15610586576001600a555b610591816001610778565b61059a57600080fd5b8642106105a657600080fd5b60006105b28b8361078f565b90506105be818361083e565b50602081015115806105d35750878160200151145b6105dc57600080fd5b6105e782828b610b78565b6105f881838a8a8a8a8a6000610bd6565b60405163649c279360e11b8152909350309063c9384f2690610620908d908f90600401615c7f565b600060405180830381600087803b15801561063a57600080fd5b505af115801561064e573d6000803e3d6000fd5b50506001600a5550929b9a5050505050505050505050565b73__$7ac922d04bd7a1b42c7f6e5f1dd89a70af$__90565b6002600a54141561068e57600080fd5b6002600a5561069c82610f3c565b806001600160a01b0316826001600160a01b031614156106bb57600080fd5b60006106c682610709565b905060006106d4848361078f565b90506106e08183610fbb565b6106e957600080fd5b6106f38183611178565b506106fe81836111f0565b50506001600a555050565b610711615522565b61071a826112c2565b905061072981604001516114b0565b610160820152919050565b61073e8382610778565b1561075e5782516001600160a01b0316331461075957600080fd5b610773565b6001600160a01b038216331461077357600080fd5b505050565b602082015161ffff80831691831616145b92915050565b6107976155bb565b60006107a16114c2565b6001600160a01b038086166000818152602084815260408083208951909516835293815290839020805464ffffffffff600160a01b8204169288018390526001600160501b03600160501b8204811695890195909552606088019390935260018101548416608088015263ffffffff600160c81b84041660a088015261016088015194955093610833939092166114cf565b835250909392505050565b600061084a8383610fbb565b9050801580156108625750602083015164ffffffffff145b156107895761089e8361088f61088a866000015186610160015161150d90919063ffffffff16565b6109db565b60208601518592919042611535565b5092915050565b6108ad6155fa565b60006108b76115fe565b84516001600160a01b031660009081526020828152604080832087845290915290819020858552805460ff600160f01b820416151560608701526001600160501b03600160a01b820481169387019390935261016088015193945090926109229290918791166114cf565b602084015250909392505050565b835160208401511461094157600080fd5b600061094b6115fe565b83516001600160a01b031660009081526020828152604080832089518452909152908190209087015191925090610982908461160b565b604080880191909152850151610998908461160b565b8560400181815250506109ae8660400151611620565b81546001600160501b0391909116600160a01b02600160a01b600160f01b03199091161790555050505050565b60006109e960001983611636565b90505b919050565b826109fb57610ac4565b8551600090610a0a9085611684565b1315610a1557600080fd5b85602001518110610a2557600080fd5b602086015160009064ffffffffff14610a5b57610a5886604001518760000151896020015187878b61010001518861169a565b90505b80610aa857610160860151610a749061088a908661150d565b602088015190915064ffffffffff14610aa857610aa8866000015187604001518960200151610aa2856109db565b886117a8565b6000811315610ab657600080fd5b610ac28786868461188c565b505b505050505050565b6000610ad66115fe565b82516001600160a01b031660009081526020828152604080832087518452909152908190209085015191925090610b0c90611620565b81546060860151801515600160f01b0260ff60f01b196001600160501b0394909416600160a01b02600160a01b600160f01b03199093169290921792909216178255610160840151604085015186516020880151610b72948694938993909290916118f7565b50505050565b6000610b9d83606001518560400151610b9085610c8a565b87610160015160006119d6565b6080850151909250610bb0915082611684565b60808401526000811315610b7257610b7283606001518560000151866040015184610ca0565b60008689602001511480610be957508851155b610bf257600080fd5b6000610bfe89896108a5565b90508615610c2457610c1f8a8a838b610c1961088a8d610c8a565b8b611aa1565b610c47565b64ffffffffff8814610c4757610c458960400151898b610100015142611b4c565b505b610c55818b8b868989611b95565b4260a08c01529150610c6a8a8a600180610eac565b5098975050505050505050565b600080821215610c8657600080fd5b5090565b60006001600160ff1b03821115610c8657600080fd5b6000610caa611c3e565b61ffff8416600090815260209190915260408120546001600160a01b03169150821215610cd5579293925b806001600160a01b03166323de66518686610cef86611c4b565b6040518463ffffffff1660e01b8152600401610d0d93929190615c99565b600060405180830381600087803b158015610d2757600080fd5b505af1158015610d3b573d6000803e3d6000fd5b505050505050505050565b600080610d5e8787610d57886109db565b8787611c6c565b9050610d6c6103b1826109db565b9150505b95945050505050565b600080600080610d908a6040015161ffff16611d14565b9050600089608001511215610dd7576000610dc061088a8b608001518d6101600151611d2790919063ffffffff16565b9050610dcf6103b18383611d53565b925050610de6565b608089015115610de657600080fd5b610dff8a828b606001518b8b8e60200151888d8d611d90565b50945092505080821015610e6f5760008282039050600080610e3a8b606001518d60400151610e2d86610c8a565b8f610160015160006119d6565b91509150610e51610e4a83610c77565b8690610e93565b9450610e6b8b606001518d600001518e6040015184610ca0565b5050505b80821015610e7c57600080fd5b600088608001818152505050509695505050505050565b600082820183811015610ea557600080fd5b9392505050565b6000610eb66114c2565b60608601516001600160a01b039081166000908152602083815260408083208951909416835292905220909150610ef08686838787611eb0565b6001810180546001600160501b03191690819055600160501b90046001600160501b0316158015610f3357506001810154600160a01b90046001600160501b0316155b610ac457600080fd5b6001600160a01b038116610f4f57600080fd5b6001600160a01b038116610fee1415610f6757600080fd5b6001600160a01b0381166105e71415610f7f57600080fd5b6001600160a01b038116301415610f9557600080fd5b6000610fa08261211e565b5050505061ffff16905080600014610fb757600080fd5b5050565b6000826020015160001480610fd35750826020015142105b15610fe057506000610789565b6000610ff08385602001516108a5565b90506000610ffc6115fe565b84516001600160a01b031660009081526020918252604080822064ffffffffff83529092522060608301519091506110635761104b81856000015186604001518560000151866020015161218a565b60006020830152600160608301526110638285610acc565b61106f828686846121f3565b61107884612305565b156110d85783516060860151604051634140f63560e11b81523092638281ec6a926110a592600401615c7f565b600060405180830381600087803b1580156110bf57600080fd5b505af11580156110d3573d6000803e3d6000fd5b505050505b60006110f3856040015187602001518860000151600061232e565b905061111485610160015183876040015188600001518a6080015186612373565b608088015260208701805160a089015264ffffffffff905261016086015190915061113f908261243c565b80875261016086015161116b91889161115c9161088a919061150d565b87919064ffffffffff42611535565b5060019695505050505050565b6111806155fa565b602083015164ffffffffff1461119557600080fd5b6111a48264ffffffffff6108a5565b90506000836080015112156111e6576111e683826111d48660800151866101600151611d2790919063ffffffff16565b6111e187608001516109db565b61188c565b6107898183610acc565b608082018051600091829052906112056114c2565b60608501516001600160a01b039081166000908152602083815260408083208851909416835292905220909150611240858583600180611eb0565b8261125c576001810180546001600160501b03191690556112bb565b82600012156112bb5761127661127184610c77565b611620565b8160010160006101000a8154816001600160501b0302191690836001600160501b031602179055506112bb85606001518560000151866040015188602001518761248d565b5050505050565b6112ca615522565b60006112d4612523565b6001600160a01b03841660008181526020838152604091829020928652825461ffff808216928801929092526201000090041690850152909150611330612710633b9aca008354600160501b900460ff16919005600502612530565b6080840152805461134f90600160401b900461ffff16620186a0612530565b60a0840152805461136e90600160701b900461ffff16620186a0612530565b610120840152600281015461138a9061ffff16620186a0612530565b610180840152805460649060ff600160581b90910416633b9aca00020560c08401528054600160601b810460ff90811660e0860152600160681b909104166101008401526040805180820191829052906001830190600290826000855b82829054906101000a900461ffff1661ffff16815260200190600201906020826001010492830192600103820291508084116113e757505050505061014085019190915250600481015460ff166101c0840152805461145390640100000000900463ffffffff16612557565b60608401526114896003820160005b600891828204019190066004029054906101000a900463ffffffff1663ffffffff16612557565b6101a08401515261149e600382016001611462565b6101a084015160200152509092915050565b6114b8615624565b6109e98242612565565b6000806107896016612626565b600064ffffffffff83146114ef57816001600160501b0316600003611505565b611505846001600160501b03841660000361243c565b949350505050565b8151600090610ea59061152f846ec097ce7bc90715b34b9f1000000000611636565b9061263f565b60006115448686868686612670565b90506000611564606461152f8960e001518561163690919063ffffffff16565b905060006115728383612706565b905061158288604001518361271c565b611590886040015182612753565b64ffffffffff8514156115c8576115c888600001518960400151856115c3878d610160015161279790919063ffffffff16565b6127d0565b6115dc8860000151896040015183856128e4565b60808701516115eb9084612706565b6080909701969096525095945050505050565b6000806107896015612626565b60008282111561161a57600080fd5b50900390565b60006001600160501b03821115610c8657600080fd5b8181026000198314156116665781158061165857508282828161165557fe5b05145b61166157600080fd5b610789565b82158061167b57508183828161167857fe5b05145b61078957600080fd5b8181018281121560008312151461078957600080fd5b6000806116a989888686611b4c565b905060006116b687611c4b565b90506001600160581b0381106116cb57600080fd5b600060788763ffffffff16901b609883901b60f085901b60f860008c136116f35760016116f6565b60005b600581111561170157fe5b60ff16901b17171760001b905073__$7ac922d04bd7a1b42c7f6e5f1dd89a70af$__63715e90028c8c846040518463ffffffff1660e01b815260040161174993929190615e5f565b60206040518083038186803b15801561176157600080fd5b505af4158015611775573d6000803e3d6000fd5b505050506040513d601f19601f820116820180604052508101906117999190615bcc565b9b9a5050505050505050505050565b60006117b26129d4565b61ffff861660009081526020828152604080832088845290915290208054919250906117fb9061127190600160501b90046001600160501b03166117f586610c77565b90610e93565b815469ffffffffffffffffffff60501b1916600160501b6001600160501b03928316021780835561183b9161127191600160a01b9004166117f587610c77565b81546001600160501b0391909116600160a01b02600160a01b600160f01b031990911617815561186f876105e78887610ca0565b61187d6105e78787866129e1565b610ac26105e788888887612a59565b82516020850151146118a4578351156118a457600080fd5b60808401516118b39082611684565b608085015283516118c49083611684565b808552600012156118d457600080fd5b60208301516118e39083611684565b6020840181905260001215610b7257600080fd5b86546001600160501b0316600090810390611913888686612ac4565b90506119246112716103b1836109db565b89546001600160501b0319166001600160501b0391909116178955600061194b8383612ae2565b9050600064ffffffffff87141561197257885161196b908b908a85612b69565b50846119a9565b846119a95788516119869089898787612b96565b885161199b9089611996856109db565b612c56565b6119a6898b8a612d2c565b90505b6000821380156119b7575084155b156119c95788516119c9908983612dd2565b5050505050505050505050565b60008060006119e486610c77565b9050806119f8576000809250925050611a97565b6000611a078861ffff16611d14565b9050600381606001516005811115611a1b57fe5b1415611a6b5734821015611a3b57611a368983340387612e4e565b611a63565b348214611a635760405162461bcd60e51b8152600401611a5a90615dc9565b60405180910390fd5b869350611a85565b611a82611a7d82600001518b85612f11565b610c8a565b93505b611a92898986848a613099565b925050505b9550959350505050565b60008212611aae57600080fd5b600064ffffffffff841415611ad857610160860151611ad19061088a908561150d565b9050611b05565b611af4866040015187600001518686868b61010001514261169a565b9050611b038688838742611535565b505b60008113611b1257600080fd5b611b1e8786858461188c565b8651611b29906109db565b86606001511315610ac25760405162461bcd60e51b8152600401611a5a90615e3b565b6000806000611b5e8761ffff166130e0565b9050611b6e8160ff1687866130f6565b909350915084831115611b8057600080fd5b8115611b8b57600080fd5b5050949350505050565b60008086608001511215611ba857600080fd5b8651602087015114611bcf57604086015115611bc357600080fd5b86516020870152611be0565b8651602087015114611be057600080fd5b611bec87878787613185565b606086015160808701518851600092611c0892899288886131ed565b600060808901529050611c1d88888884613185565b611c278582610e93565b9150611c338887610acc565b509695505050505050565b6000806107896021612626565b600080821215611c6557611c5e826109db565b90506109ec565b50806109ec565b600083611c7b57506000610d70565b60008412611c8857600080fd5b6000611c978661ffff16611d14565b9050611cac81611ca78688611d27565b613295565b91506000611cb9836109db565b9050611cc68783836132cd565b600382606001516005811115611cd857fe5b1415611cee57611ce9888286612e4e565b611cfb565b8151611cfb9089836133bb565b611d088888858589613099565b50505095945050505050565b611d1c615645565b6109e9826001613432565b6000610ea56ec097ce7bc90715b34b9f100000000061152f85600001518561163690919063ffffffff16565b60006305f5e10083604001511215611d8157611d7a6001611d748585613295565b90611684565b9050610789565b610ea583611ca7846001611684565b6000808080611d9f8c306134cc565b8d5160405163089e0a2160e31b81529192506001600160a01b0316906344f0510890611ddb908e908e908e908e908e908e908e90600401615ce6565b602060405180830381600087803b158015611df557600080fd5b505af1158015611e09573d6000803e3d6000fd5b505050506040513d601f19601f82011682018060405250810190611e2d9190615bcc565b92506000611e3b8d306134cc565b9050611e47818361160b565b9450611e588d600001518383613576565b50506000611e6f611e6885610c8a565b8d906135f3565b6101608e0151909150611e82908261150d565b9150611e938d604001518383613623565b611ea08d8d8c8686613727565b5099509950999650505050505050565b608085015115611ebf57600080fd5b60608401518551611ecf906109db565b128015611ed95750815b15611f0d5784511580611ef157506001856040015111155b611f0d5760405162461bcd60e51b8152600401611a5a90615e3b565b611f1684612305565b15611fb5576000611f25613777565b60608701516001600160a01b03908116600090815260209283526040808220895190931682529183522080549188015190925064ffffffffff90911690811480611f6d575080155b611f7657600080fd5b80611fb2578154600160281b90046001600160501b0316158015611fa957508154600160781b90046001600160501b0316155b611fb257600080fd5b50505b6000611fd56103b161088a87610160015189602001518a60000151612ac4565b9050811561205e576040805160e08101825285546001600160501b038082168352600160501b80830482166020850152600160a01b80840464ffffffffff1695850195909552600160c81b90920463ffffffff16606084015260018801548082166080850152918204811660a084015292900490911660c082015261205e908790879084613784565b61206b8660400151611620565b84546001600160501b0391909116600160501b0269ffffffffffffffffffff60501b1990911617845560208601516120a290613c6a565b845464ffffffffff91909116600160a01b0264ffffffffff60a01b1990911617845560a08601516120d290613c7e565b845463ffffffff91909116600160c81b0263ffffffff60c81b199091161784556120fb81611620565b84546001600160501b0319166001600160501b0391909116179093555050505050565b60008060008060008061212f613c91565b6001600160a01b039097166000908152602097909752505060409094205461ffff81169563ffffffff620100008304811696506601000000000000830416945060ff600160501b8304169350600160581b90910460d81b9150565b60006121988484848861232e565b86549091506001600160501b031660006121b28284612706565b90506121c061127182610c77565b88546001600160501b0319166001600160501b03919091161788556121e98787611996876109db565b5050505050505050565b6000612200836040610778565b1561229a578251606085015160408087015188519151631de7e96360e21b81526001600160a01b039094169363779fa58c9361224193909291600401615d4a565b602060405180830381600087803b15801561225b57600080fd5b505af115801561226f573d6000803e3d6000fd5b505050506040513d601f19601f820116820180604052508101906122939190615bcc565b90506122a1565b5060408301515b6122b18585858760400151610930565b6040840181905281546122d89061127190600160a01b90046001600160501b031683610e93565b82546001600160501b0391909116600160a01b02600160a01b600160f01b03199091161790915550505050565b6101408101515160009061ffff161515806109e957505061014001516020015161ffff16151590565b600080600061233d8787613c9e565b915091508061234b57600080fd5b6123558286613d31565b92506001600160a01b03841615611b8b57611b8b8488888887613d8d565b8060008084131561243157600061239761239061088a8b88611d27565b8a90613d31565b90506000848212156123d1575060009250836123ca6123c361088a6123bc8585612706565b8d9061243c565b8b9061150d565b92506123e0565b50806123dd8582612706565b93505b6123ec8a888a84612b69565b88546001600160501b031660006124038284611684565b905061241161127182610c77565b8b546001600160501b0319166001600160501b0391909116178b55505050505b965096945050505050565b60006001821261244b57600080fd5b8161245857506000610789565b610ea560016124876ec097ce7bc90715b34b9f100000000061152f87602001518761163690919063ffffffff16565b90612706565b80612497576112bb565b60006124a6858585600b613e60565b905060008060008412156124bf575086905060006124c6565b5060009050865b60006124d185611c4b565b9050816001600160a01b0316836001600160a01b0316336001600160a01b0316600080516020615f438339815191528785604051612510929190615e8d565b60405180910390a4505050505050505050565b6000806107896014612626565b60008261253f57506000610789565b8282028284828161254c57fe5b0414610ea557600080fd5b600881901c60ff9091161b90565b61256d615624565b600061257884613e96565b905082816000015110156125b75760008061259286613f5e565b90506125a086848388613fdb565b90935091506125b086838561407f565b50506125c4565b805183146125c457600080fd5b60405180606001604052806125ed611a7d8460a001518560c0015161253090919063ffffffff16565b8152602001612610611a7d8460a001518560e0015161253090919063ffffffff16565b8152602001826060015181525091505092915050565b6000620f424082602681111561263857fe5b0192915050565b6000816000191480156126555750600160ff1b83145b1561265f57600080fd5b81838161266857fe5b059392505050565b60008064ffffffffff8414156126c257602086015164ffffffffff1461269a576000915050610d70565b6126b4611a7d8760a001518561160b90919063ffffffff16565b60a0870184905290506126d2565b6126cf611a7d858561160b565b90505b60808701516000906126ee906301da9c009061152f9085611636565b90506126fa86826142b0565b98975050505050505050565b8082038281131560008312151461078957600080fd5b600081121561272a57600080fd5b6000612738610fee846142c9565b90506127448183611684565b9050610773610fee8483614322565b600081121561276157600080fd5b60006127708361ffff16614396565b9050600061277e82856142c9565b905061278a8184611684565b9050610b72828583614322565b6000808212156127ca576127c56001612487856020015161152f87600001518761163690919063ffffffff16565b610ea5565b50919050565b60006127da611c3e565b61ffff8516600090815260209190915260408120546001600160a01b031691506128026143bc565b61ffff8616600090815260209190915260409081902054905163ad1c095d60e01b81526001600160a01b039091169150819063ad1c095d9061284a9089908790600401615d31565b600060405180830381600087803b15801561286457600080fd5b505af1158015612878573d6000803e3d6000fd5b505060405163ad1c095d60e01b81526001600160a01b038516925063ad1c095d91506128aa9089908890600401615d31565b600060405180830381600087803b1580156128c457600080fd5b505af11580156128d8573d6000803e3d6000fd5b50505050505050505050565b60006128ee611c3e565b61ffff8516600090815260209190915260408120546001600160a01b031691506129166143c9565b61ffff8616600090815260209190915260409020546001600160a01b03908116915082166323de665187610fee61294c87610c77565b6040518463ffffffff1660e01b815260040161296a93929190615c99565b600060405180830381600087803b15801561298457600080fd5b505af1158015612998573d6000803e3d6000fd5b50505050816001600160a01b03166323de665187836129b688610c77565b6040518463ffffffff1660e01b81526004016128aa93929190615c99565b6000806107896020612626565b6000806129ef8585856143d6565b915091506000806000851215612a0757879150612a0a565b50865b806001600160a01b0316826001600160a01b0316336001600160a01b0316600080516020615f238339815191528787604051612a47929190615da4565b60405180910390a45050505050505050565b80612a63576112bb565b6000612a6f84846144bb565b90506000821215612a7e579394935b6001600160a01b0380861690871633600080516020615f4383398151915284612aa687611c4b565b604051612ab4929190615e8d565b60405180910390a4505050505050565b600064ffffffffff8314612ad85781611505565b6115058483613d31565b600081831480612aff575060008312158015612aff575060008212155b15612b0c57506000610789565b60008313158015612b1d5750816000125b15612b29575081610789565b60008213158015612b3a5750826000125b15612b4857611d7a826109db565b60008313158015612b5a575060008213155b1561007b57611d7a8383612706565b8015610b725783516020850151600091612b889161152f908590611636565b90506112bb848484846144d9565b6000612ba28383612ae2565b905080612baf57506112bb565b6000612bb96129d4565b61ffff87166000908152602082815260408083208984529091528120549192506001600160501b03909116810390612bf18285612706565b90506000811315612c0157600080fd5b612c106112716103b1836109db565b61ffff89166000908152602085815260408083208b8452909152902080546001600160501b0319166001600160501b0392909216919091179055610d3b898989876129e1565b6000612c60614616565b6001600160a01b03851660009081526020918252604080822061ffff871683529092529081208054909250612ca590600160501b90046001600160501b031684612706565b9050612cb361127182610c77565b82546001600160501b0391909116600160501b0269ffffffffffffffffffff60501b1990911617825560405161ffff8516906001600160a01b038716907f20478ef460e49d010960d4f3fff35d8dae385443abfac09035d6a2ccbcd834c490612d1d908590615e84565b60405180910390a35050505050565b600080846040015161ffff168361ffff161415612d7857612d4b6115fe565b85516001600160a01b031660009081526020918252604080822064ffffffffff8352909252209050612db5565b612d80614623565b85516001600160a01b031660009081526020918252604080822064ffffffffff8352835280822061ffff871683529092522090505b8054610d7090859064ffffffffff906001600160501b03166114cf565b6000612ddc614616565b6001600160a01b03851660009081526020918252604080822061ffff871683529092529081208054909250612e2190600160501b90046001600160501b031684612706565b82549091506001600160501b03168113156112bb5760405162461bcd60e51b8152600401611a5a90615e15565b8015612edb577304b9c40df01bdc99dd2c31ae4b232f20f4bbac5b6001600160a01b031663d0e30db0836040518263ffffffff1660e01b81526004016000604051808303818588803b158015612ea357600080fd5b505af1158015612eb7573d6000803e3d6000fd5b50505050506107597304b9c40df01bdc99dd2c31ae4b232f20f4bbac5b84846133bb565b6040516001600160a01b0384169083156108fc029084906000818181858888f19350505050158015610b72573d6000803e3d6000fd5b600080846001600160a01b03166370a08231306040518263ffffffff1660e01b815260040180826001600160a01b0316815260200191505060206040518083038186803b158015612f6157600080fd5b505afa158015612f75573d6000803e3d6000fd5b505050506040513d6020811015612f8b57600080fd5b5051604080516323b872dd60e01b81526001600160a01b038781166004830152306024830152604482018790529151929350908716916323b872dd9160648082019260009290919082900301818387803b158015612fe857600080fd5b505af1158015612ffc573d6000803e3d6000fd5b50505050613008614630565b6000856001600160a01b03166370a08231306040518263ffffffff1660e01b815260040180826001600160a01b0316815260200191505060206040518083038186803b15801561305757600080fd5b505afa15801561306b573d6000803e3d6000fd5b505050506040513d602081101561308157600080fd5b5051905061308f818361160b565b9695505050505050565b6000806130a684866135f3565b90506130b2838261150d565b91506130bf87878461469d565b6130ca868383613623565b83516130d6908661471d565b5095945050505050565b6000806130ec83614772565b60ff169392505050565b6000806000851161310657600080fd5b600785111561311457600080fd5b600061311f8461478f565b905060015b868111613177576000613140613139836147ad565b8490610e93565b905086811415613158575092506000915061317d9050565b8681111561316e575092506001915061317d9050565b50600101613124565b50600080fd5b935093915050565b835160208401511461319657600080fd5b60006131a06115fe565b83516001600160a01b0316600090815260208281526040808320895184529091529081902090870151919250906131d79084610e93565b6040808801919091528501516109989084610e93565b60008061320b88600001518960400151888b61016001516000610d46565b885160405163dc6679c560e01b81529192506001600160a01b03169063dc6679c590613243908a9085908a908a908a90600401615d6b565b602060405180830381600087803b15801561325d57600080fd5b505af1158015613271573d6000803e3d6000fd5b505050506040513d601f19601f820116820180604052508101906126fa9190615bcc565b60006305f5e100836040015114156132ae575080610789565b610ea56305f5e10061152f85604001518561163690919063ffffffff16565b60006132d7614851565b83516001600160a01b0316600090815260208290526040902054909150808311613302575050610773565b600061330d8661485e565b90506000816001600160a01b031663b5e4da238487036040518263ffffffff1660e01b815260040161333f9190615e84565b60006040518083038186803b15801561335757600080fd5b505afa15801561336b573d6000803e3d6000fd5b505050506040513d6000823e601f3d908101601f191682016040526133939190810190615abe565b905060006133a1878361488e565b91506133af90508482610e93565b8611156121e957600080fd5b826001600160a01b031663a9059cbb83836040518363ffffffff1660e01b815260040180836001600160a01b0316815260200182815260200192505050600060405180830381600087803b15801561341257600080fd5b505af1158015613426573d6000803e3d6000fd5b50505050610773614630565b61343a615645565b6000613444614aa5565b6000858152602082815260408083208715158452825291829020825160a08101845281546001600160a01b038116825260ff600160a01b82048116151594830194909452600160b01b81048416600a0a9482019490945293945092916060830191600160a81b9091041660058111156134b957fe5b8152600060209091015295945050505050565b60006003836060015160058111156134e057fe5b14156134f757506001600160a01b03811631610789565b82516040516370a0823160e01b81526001600160a01b03909116906370a0823190613526908590600401615c6b565b60206040518083038186803b15801561353e57600080fd5b505afa158015613552573d6000803e3d6000fd5b505050506040513d601f19601f82011682018060405250810190611d7a9190615bcc565b6000613580614851565b6001600160a01b038516600090815260208290526040902054909150838111156135a957600080fd5b60006135c06135b786610c8a565b61248786610c8a565b90506135cf6103b18383611684565b6001600160a01b039096166000908152602093909352505060409020929092555050565b60006305f5e1008360400151141561360c575080610789565b6040830151610ea59061152f846305f5e100611636565b600061362d614ab2565b61ffff8516600090815260209190915260409020805490915064ffffffffff16421461365857600080fd5b805460009061367790600160281b90046001600160581b031685611684565b825490915060009061369990600160801b90046001600160581b031685611684565b905080624c4b4013156136ab57600080fd5b6136bc6136b782610c77565b614abf565b83546001600160581b0391909116600160801b026affffffffffffffffffffff60801b199091161783556136f26136b783610c77565b83546001600160581b0391909116600160281b026fffffffffffffffffffffff000000000019909116178355610ac483614ad5565b81156112bb5760006137546103b161374861374186610c8a565b88906135f3565b6101608901519061150d565b9050610ac48660000151858860400151613771856117f588610c77565b85614ba0565b600080610789601a612626565b60408051600280825260608201835260009260208301908036833750506040805160028082526060820183529394506000939092509060208301908036833701905050905060006137eb86600001518760400151876040015164ffffffffff166000613e60565b9050600a60ff1681178360008151811061380157fe5b602002602001018181525050600960ff1681178360018151811061382157fe5b6020026020010181815250508660200151600014806138645750604085015164ffffffffff161580159061386457508660200151856040015164ffffffffff1614155b156139065784600001516001600160501b03168260008151811061388457fe5b60200260200101818152505084602001516001600160501b0316826001815181106138ab57fe5b60200260200101818152505060006001600160a01b031687606001516001600160a01b0316336001600160a01b0316600080516020615f2383398151915286866040516138f9929190615da4565b60405180910390a4613b03565b846040015164ffffffffff1687602001511415613b035784516000906001600160501b0316851080613948575085602001516001600160501b03168860400151105b90508015613a185785516001600160501b03168510613968576000613977565b85516001600160501b03168590035b8360008151811061398457fe5b6020026020010181815250506139b4886040015187602001516001600160501b031661160b90919063ffffffff16565b836001815181106139c157fe5b60200260200101818152505060006001600160a01b031688606001516001600160a01b0316336001600160a01b0316600080516020615f238339815191528787604051613a0f929190615da4565b60405180910390a45b801580613a2e575085516001600160501b031685115b15613b01578551613a499086906001600160501b031661160b565b83600081518110613a5657fe5b602002602001018181525050876040015186602001516001600160501b031610613a81576000613a9d565b60208601516040890151613a9d916001600160501b031661160b565b83600181518110613aaa57fe5b60200260200101818152505087606001516001600160a01b031660006001600160a01b0316336001600160a01b0316600080516020615f238339815191528787604051613af8929190615da4565b60405180910390a45b505b602087015115801590613b2557508660200151856040015164ffffffffff1614155b15613c0b576000613b45876000015188604001518a602001516000613e60565b9050600a60ff16811784600081518110613b5b57fe5b602002602001018181525050600960ff16811784600181518110613b7b57fe5b6020026020010181815250508483600081518110613b9557fe5b602002602001018181525050876040015183600181518110613bb357fe5b60200260200101818152505087606001516001600160a01b031660006001600160a01b0316336001600160a01b0316600080516020615f238339815191528787604051613c01929190615da4565b60405180910390a4505b60808501516001600160501b031615610ac257606087015160808601516040516000926001600160a01b0316913391600080516020615f4383398151915291613c5991600b88179190615eb1565b60405180910390a450505050505050565b600064ffffffffff821115610c8657600080fd5b600063ffffffff821115610c8657600080fd5b6000806107896002612626565b613ca6615624565b600080613cb1614bf6565b61ffff861660009081526020828152604080832088845290915290208054600160f01b900460ff1693509091508215613d285780546001600160501b03600160a01b8204811691613d03911682612530565b85528154613d2190600160501b90046001600160501b031682612530565b6020860152505b50509250929050565b600081600013158015613d445750600a82125b15613d5157506000610789565b60008212613d5e57600080fd5b610ea56001612487856020015161152f6ec097ce7bc90715b34b9f10000000008761163690919063ffffffff16565b6000613d9985856144bb565b90506000831215613dab57600160401b175b60006001600160a01b03871633600080516020615f4383398151915284613dd188611c4b565b604051613ddf929190615e8d565b60405180910390a46000613df66000841287614c03565b9050806001600160a01b03166323de66516105e789613e1487611c4b565b6040518463ffffffff1660e01b8152600401613e3293929190615c99565b600060405180830381600087803b158015613e4c57600080fd5b505af11580156119c9573d6000803e3d6000fd5b68010000000000000000600160e01b03604085901b1667ffff000000000000603085901b1617600883901b178117949350505050565b613e9e61566c565b6000613ea8614ab2565b61ffff93841660009081526020918252604090819020805464ffffffffff81168652600160281b81046001600160581b03908116948701949094526001820154841692860192909252600160d81b820463ffffffff166060860152600160801b9091049091166080840152600201546001600160501b0380821660a0850152600160501b8204811660c0850152600160a01b82041660e0840152600160f01b900460ff1661012c02909216610100820152919050565b600080613f6a8361485e565b6001600160a01b031663ef81f2166040518163ffffffff1660e01b81526004016040805180830381600087803b158015613fa357600080fd5b505af1158015613fb7573d6000803e3d6000fd5b505050506040513d601f19601f820116820180604052508101906115059190615be4565b613fe361566c565b6000806000613ff3888689614c63565b60c08b019290925260e08a0192909252602089015191935091506140179083610e93565b60208801526080870151600090156140455760808801516140429061403c898261160b565b90614d74565b90505b61406561405a670de0b6b3a764000083610e93565b60a08a015190614d91565b60a089015250506080860194909452505082529092909150565b6000614089614ab2565b60008561ffff16815260200190815260200160002090506140ad8260000151613c6a565b815464ffffffffff191664ffffffffff9190911617815560a08201516140d290611620565b6002820180546001600160501b0319166001600160501b039290921691909117905560c082015161410290611620565b81600201600a6101000a8154816001600160501b0302191690836001600160501b031602179055506141378260e00151611620565b8160020160146101000a8154816001600160501b0302191690836001600160501b0316021790555061416c8260200151614abf565b81546001600160581b0391909116600160281b026fffffffffffffffffffffff00000000001990911617815560408201516141a690614abf565b6001820180546affffffffffffffffffffff19166001600160581b039290921691909117905560808201516141da90614abf565b81546001600160581b0391909116600160801b026affffffffffffffffffffff60801b19909116178155606082015161421290613c7e565b815463ffffffff91909116600160d81b0263ffffffff60d81b19909116178155821561425e57600061424384610c8a565b905061424f858261271c565b61425c610fee868361469d565b505b8361ffff167fef25641e225e493886510ca1ad6584fa7b442b9fea820a29d1de3ce27d270fd28360a001518460c001518560e001516040516142a293929190615e9b565b60405180910390a250505050565b6000610ea56142bf8484611636565b633b9aca0061263f565b6000806142d4614dae565b6001600160a01b03851660009081526020828152604080832061ffff8816845290915281208054600160a81b9004600a90810b900b945091925083121561431a57600080fd5b505092915050565b600081121561433057600080fd5b600061433a614dae565b6001600160a01b03851660009081526020828152604080832061ffff88168452909152902090915061436b83614dbb565b8154600a9190910b6001600160581b0316600160a81b026001600160a81b0390911617905550505050565b6000806143a16143c9565b6000938452602052505060409020546001600160a01b031690565b6000806107896022612626565b6000806107896003612626565b60408051600280825260608281019093528291600091816020016020820280368337019050509050600061440a87876144bb565b9050808260008151811061441a57fe5b602002602001018181525050600160401b81178260018151811061443a57fe5b60209081029190910101526040805160028082526060820190925260009181602001602082028036833701905050905061447386611c4b565b8160008151811061448057fe5b60200260200101818152505061449586611c4b565b816001815181106144a257fe5b6020908102919091010152919791965090945050505050565b67ffff000000000000603083901b16600882901b1760011792915050565b60006144e3614ab2565b61ffff8516600090815260209190915260409020805490915064ffffffffff16421461450e57600080fd5b8054600160f81b900460ff1661452357600080fd5b600181015460009061453e906001600160581b031685611684565b825490915060009061456090600160281b90046001600160581b031685611684565b9050816009191280156145735750600082125b1561457d57600091505b8060091912801561458e5750600081125b15614597575060005b6145a36136b783610c77565b6001840180546affffffffffffffffffffff19166001600160581b03929092169190911790556145d56136b782610c77565b83546001600160581b0391909116600160281b026fffffffffffffffffffffff00000000001990911617835561460d878786886127d0565b610ac283614ad5565b6000806107896017612626565b6000806107896018612626565b600061463a6156b8565b3d801561464e576020811461465757600080fd5b60019250614662565b60206000833e815192505b5081610fb7576040805162461bcd60e51b8152602060048201526005602482015264045524332360dc1b604482015290519081900360640190fd5b60006146a7611c3e565b61ffff8416600090815260209190915260409081902054905163ad1c095d60e01b81526001600160a01b039091169150819063ad1c095d906146ef9087908690600401615d31565b600060405180830381600087803b15801561470957600080fd5b505af11580156121e9573d6000803e3d6000fd5b6000614727614851565b6001600160a01b0384166000908152602082905260409020549091506147506103b18285611684565b6001600160a01b03909416600090815260209290925250604090209190915550565b60008061477d614ded565b60009384526020525050604090205490565b60006276a7008210156147a157600080fd5b506276a7008106900390565b600081600114156147c257506276a7006109ec565b81600214156147d5575062ed4e006109ec565b81600314156147e957506301da9c006109ec565b81600414156147fd57506303b538006109ec565b816005141561481157506309450c006109ec565b8160061415614825575063128a18006109ec565b8160071415614839575063251430006109ec565b60405162461bcd60e51b8152600401611a5a90615dee565b6000806107896026612626565b600080614869614dfa565b61ffff939093166000908152602093909352505060409020546001600160a01b031690565b60008060005b8351811015614a9d5760008482815181106148ab57fe5b60200260200101519050600081606001516001600160a01b03166370a08231306040518263ffffffff1660e01b81526004016148e79190615c6b565b60206040518083038186803b1580156148ff57600080fd5b505afa158015614913573d6000803e3d6000fd5b505050506040513d601f19601f820116820180604052508101906149379190615bcc565b9050600061494588306134cc565b905060005b8351518110156149a1576149908460000151828151811061496757fe5b602002602001015160008660200151848151811061498157fe5b60200260200101516001614e07565b61499957600196505b60010161494a565b5060006149ae89306134cc565b905060006149bc828461160b565b905080856040015111156149cf57600080fd5b60608501516040516370a0823160e01b81526000916001600160a01b0316906370a0823190614a02903090600401615c6b565b60206040518083038186803b158015614a1a57600080fd5b505afa158015614a2e573d6000803e3d6000fd5b505050506040513d601f19601f82011682018060405250810190614a529190615bcc565b905084811115614a6157600080fd5b614a7086606001518683613576565b614a7a8883610e93565b9750614a8b8b600001518585613576565b50506001909401935061489492505050565b509250929050565b6000806107896007612626565b600080610789601d612626565b60006001600160581b03821115610c8657600080fd5b80546002820154600091614b1791600160281b9091046001600160581b031690614b11906001600160501b03600160501b820481169116611636565b90611636565b60018301546002840154919250600091614b51916001600160581b031690614b11906001600160501b03600160a01b820481169116611636565b8354909150600090614b889060016001600160581b03600160801b909204821601166ec097ce7bc90715b34b9f1000000000611636565b905080614b958484612706565b1315610b7257600080fd5b6000614baa611c3e565b61ffff85166000908152602091909152604090819020549051631cef4ba360e11b81526001600160a01b03909116915081906339de9746906128aa908990899088908890600401615cbd565b600080610789601e612626565b600082614c3557614c12611c3e565b61ffff8316600090815260209190915260409020546001600160a01b0316610ea5565b614c3d6143bc565b61ffff8316600090815260209190915260409020546001600160a01b0316905092915050565b600080600080600080614c768988615075565b89519095509193509150600090614c9d90614c92908b9061160b565b633b9aca0090612530565b9050614cd7614ccc6301da9c00614cb48585612530565b81614cbb57fe5b670de0b6b3a7640000919004610e93565b60e08a015190614d91565b9650614cf9614cee6301da9c00614cb48785612530565b60c08a015190614d91565b955081831415614d10575060009350614d6b915050565b6000614d32614d276301da9c00614cb48786612530565b60e08b015190614d91565b90506000614d40898361160b565b9050614d6388614d5d838d6040015161253090919063ffffffff16565b90615110565b965050505050505b93509350935093565b6000610ea5614d8b84670de0b6b3a7640000612530565b83615110565b6000610ea5614da08484612530565b670de0b6b3a7640000615110565b6000806107896006612626565b60006a7fffffffffffffffffffff198212801590614de457506a7fffffffffffffffffffff8213155b610c8657600080fd5b6000806107896009612626565b600080610789601f612626565b6000806000866001600160a01b031686866040518082805190602001908083835b60208310614e475780518252601f199092019160209182019101614e28565b6001836020036101000a03801982511681845116808217855250505050505090500191505060006040518083038185875af1925050503d8060008114614ea9576040519150601f19603f3d011682016040523d82523d6000602084013e614eae565b606091505b509150915083614f515781614ec28261512f565b90614f4b5760405162461bcd60e51b81526004018080602001828103825283818151815260200191508051906020019080838360005b83811015614f10578181015183820152602001614ef8565b50505050905090810190601f168015614f3d5780820380516001836020036101000a031916815260200191505b509250505060405180910390fd5b506130d6565b866001600160a01b03167f3c7e398c5e91088cae639370e35b25ea669d81fbdf0def5388e73661bc34e08e8787614f878561512f565b604051808481526020018060200180602001838103835285818151815260200191508051906020019080838360005b83811015614fce578181015183820152602001614fb6565b50505050905090810190601f168015614ffb5780820380516001836020036101000a031916815260200191505b50838103825284518152845160209182019186019080838360005b8381101561502e578181015183820152602001615016565b50505050905090810190601f16801561505b5780820380516001836020036101000a031916815260200191505b509550505050505060405180910390a25095945050505050565b6000806000806000856020015111156150c2576150bf6150a68660c00151876020015161253090919063ffffffff16565b60e087015160408801516150b991612530565b90615236565b90505b60006150cd87615249565b90506150d9818361527c565b945081156150f0576150ed8186600161532f565b93505b6020860151156151075761510485836153a9565b92505b50509250925092565b600080821161511e57600080fd5b81838161512757fe5b049392505050565b6060604482511015615165575060408051808201909152600d81526c14da5b195b9d0814995d995c9d609a1b60208201526109ec565b600482018051909260240190602081101561517f57600080fd5b810190808051604051939291908464010000000082111561519f57600080fd5b9083019060208201858111156151b457600080fd5b82516401000000008111828201881017156151ce57600080fd5b82525081516020918201929091019080838360005b838110156151fb5781810151838201526020016151e3565b50505050905090810190601f1680156152285780820380516001836020036101000a031916815260200191505b506040525050509050919050565b6000610ea5614d8b84633b9aca00612530565b6152516156d6565b600061525b6153c2565b61ffff8416600090815260209190915260408120549150610ea590826153cf565b60008083608001511161528e57600080fd5b633b9aca0082111561529f57600080fd5b825182116152be5782516040840151611d7a9190614d5d908590612530565b826020015182116152f6576040830151835160208501516060860151611d7a93926117f59281900391614d5d91880390859003612530565b610ea583606001516117f58560200151633b9aca0003614d5d87606001518860800151038860200151880361253090919063ffffffff16565b60008061534e6064614d5d8760e001518761253090919063ffffffff16565b90508460a00151811015615363575060a08401515b8460c00151811115615376575060c08401515b821561538d576153868482610e93565b91506153a1565b83811161539c57808403610d70565b600091505b509392505050565b6000610ea56153b88484612530565b633b9aca00615110565b600080610789601b612626565b6153d76156d6565b6064633b9aca008360ff8616602081106153ed57fe5b1a02816153f657fe5b0481526064633b9aca008360ff86166001016020811061541257fe5b1a028161541b57fe5b048160200181815250506154408260028560ff16016020811061543a57fe5b1a6154ee565b60808201819052610100908360ff86166003016020811061545d57fe5b1a028161546657fe5b0460408201526080810151610100908360ff86166004016020811061548757fe5b1a028161549057fe5b0460608201526207a1208260ff8516600501602081106154ac57fe5b1a0260a0820152622625a08260ff8516600601602081106154c957fe5b1a0260c08201528160ff8416600701602081106154e257fe5b1a60e082015292915050565b60008160ff166096106155095760ff8216622625a0026109e9565b5060951960ff919091160162e4e1c00263165a0bc00190565b604051806101e0016040528060006001600160a01b03168152602001600061ffff168152602001600061ffff1681526020016000815260200160008152602001600081526020016000815260200160008152602001600081526020016000815260200161558d61571b565b815260200161559a615624565b8152602001600081526020016155ae61571b565b8152602001600081525090565b6040518060c0016040528060008152602001600081526020016000815260200160006001600160a01b0316815260200160008152602001600081525090565b60405180608001604052806000815260200160008152602001600081526020016000151581525090565b60405180606001604052806000815260200160008152602001600081525090565b6040805160a0810182526000808252602082018190529181018290529060608201906155ae565b6040518061012001604052806000815260200160008152602001600081526020016000815260200160008152602001600081526020016000815260200160008152602001600081525090565b60405180602001604052806001906020820280368337509192915050565b60405180610100016040528060008152602001600081526020016000815260200160008152602001600081526020016000815260200160008152602001600081525090565b60405180604001604052806002906020820280368337509192915050565b80516109ec81615f0a565b600082601f830112615754578081fd5b8151602061576961576483615eec565b615ec8565b8281528181019085830183850287018401881015615785578586fd5b855b858110156157ac57815161579a81615f0a565b84529284019290840190600101615787565b5090979650505050505050565b6000601f83818401126157ca578182fd5b825160206157da61576483615eec565b82815281810190868301865b8581101561587f57815189018a603f820112615800578889fd5b8581015167ffffffffffffffff81111561581657fe5b615827818a01601f19168801615ec8565b81815260408d8184860101111561583c578b8cfd5b8b5b83811015615859578481018201518382018b0152890161583e565b83811115615869578c8a85850101525b50508652505092840192908401906001016157e6565b509098975050505050505050565b60008083601f84011261589e578182fd5b50813567ffffffffffffffff8111156158b5578182fd5b6020830191508360208285010111156158cd57600080fd5b9250929050565b803563ffffffff811681146109ec57600080fd5b600080604083850312156158fa578182fd5b823561590581615f0a565b9150602083013561591581615f0a565b809150509250929050565b60008060008060008060008060e0898b03121561593b578384fd5b883561594681615f0a565b9750602089013561595681615f0a565b9650604089013561596681615f0a565b9550606089013594506080890135935061598260a08a016158d4565b925060c089013567ffffffffffffffff81111561599d578283fd5b6159a98b828c0161588d565b999c989b5096995094979396929594505050565b60008060008060008060008060e0898b0312156159d8578384fd5b88356159e381615f0a565b975060208901356159f381615f0a565b965060408901359550606089013594506080890135935061598260a08a016158d4565b60008060008060008060008060006101008a8c031215615a34578283fd5b8935615a3f81615f0a565b985060208a0135615a4f81615f0a565b975060408a0135965060608a0135955060808a01359450615a7260a08b016158d4565b9350615a8060c08b016158d4565b925060e08a013567ffffffffffffffff811115615a9b578182fd5b615aa78c828d0161588d565b915080935050809150509295985092959850929598565b60006020808385031215615ad0578182fd5b825167ffffffffffffffff80821115615ae7578384fd5b818501915085601f830112615afa578384fd5b8151615b0861576482615eec565b81815284810190848601875b84811015615bbd57815187016080818d03601f19011215615b3357898afd5b60408051608081018181108a82111715615b4957fe5b8252828b015189811115615b5b578c8dfd5b615b698f8d83870101615744565b8252508183015189811115615b7c578c8dfd5b615b8a8f8d838701016157b9565b8c83015250606083015182820152615ba460808401615739565b6060820152865250509287019290870190600101615b14565b50909998505050505050505050565b600060208284031215615bdd578081fd5b5051919050565b60008060408385031215615bf6578182fd5b505080516020909101519092909150565b6000815180845260208085019450808401835b83811015615c3657815187529582019590820190600101615c1a565b509495945050505050565b60008284528282602086013780602084860101526020601f19601f85011685010190509392505050565b6001600160a01b0391909116815260200190565b6001600160a01b0392831681529116602082015260400190565b6001600160a01b039384168152919092166020820152604081019190915260600190565b6001600160a01b0394851681529290931660208301526040820152606081019190915260800190565b600060018060a01b03808a16835280891660208401525086604083015285606083015284608083015260c060a0830152615d2460c083018486615c41565b9998505050505050505050565b6001600160a01b03929092168252602082015260400190565b6001600160a01b039390931683526020830191909152604082015260600190565b600060018060a01b038716825285602083015284604083015260806060830152615d99608083018486615c41565b979650505050505050565b600060408252615db76040830185615c07565b8281036020840152610d708185615c07565b6020808252600b908201526a4554482042616c616e636560a81b604082015260600190565b6020808252600d908201526c092dcecc2d8d2c840d2dcc8caf609b1b604082015260600190565b6020808252600c908201526b4d617820436170616369747960a01b604082015260600190565b6020808252600a90820152694d696e20426f72726f7760b01b604082015260600190565b61ffff9390931683526001600160a01b03919091166020830152604082015260600190565b90815260200190565b918252602082015260400190565b9283526020830191909152604082015260600190565b9182526001600160501b0316602082015260400190565b60405181810167ffffffffffffffff81118282101715615ee457fe5b604052919050565b600067ffffffffffffffff821115615f0057fe5b5060209081020190565b6001600160a01b0381168114615f1f57600080fd5b5056fe4a39dc06d4c0dbc64b70af90fd698a233a518aa5d07e595d983b8c0526c8f7fbc3d58168c5ae7397731d063d5bbf3d657854427343f4c083240f7aacaa2d0f62a2646970667358221220c5251d7210e2ba924c1ca5a1c4fd7a01195d92bc9846a7fac09a5c08ffeb5e7d64736f6c63430007060033","language":"Solidity","natspec":{"kind":"dev","methods":{"enterVault(address,address,uint256,uint256,uint256,uint32,bytes)":{"notice":"Borrows a specified amount of fCash in the vault's borrow currency and deposits it all plus the depositAmountExternal into the vault to mint strategy tokens.","params":{"account":"the address that will enter the vault","borrowAmount":"amount to borrow, for fCash maturities this is the fCash amount. For pCash maturities this is the underlying borrowed.","depositAmountExternal":"some amount of additional collateral in the borrowed currency to be transferred to vault","maturity":"the maturity to borrow at","maxBorrowRate":"maximum interest rate to borrow at, only applies as a slippage limit for fCash maturities","vault":"the vault to enter","vaultData":"additional data to pass to the vault contract"},"returns":{"vaultSharesAdded":"the total vault shares tokens added to the maturity. Allows enterVault to be used by off-chain methods to get an accurate simulation of the strategy tokens minted."}},"exitVault(address,address,address,uint256,uint256,uint32,bytes)":{"notice":"Allows an account to withdraw their position from the vault at any time. Will redeem some number of vault shares to the borrow currency and close the borrow position by lending. Any shortfall in cash from lending will be transferred from the account, any excess profits will be transferred to the account.","params":{"account":"the address that will exit the vault","exitVaultData":"passed to the vault during exit","lendAmount":"amount of fCash to lend if fixed, amount of underlying to lend if in pCash","minLendRate":"the minimum rate to lend at","receiver":"the address that will receive profits","vault":"the vault to enter","vaultSharesToRedeem":"amount of vault tokens to exit, only relevant when exiting pre-maturity"},"returns":{"underlyingToReceiver":"amount of underlying tokens returned to the receiver on exit"}},"rollVaultPosition(address,address,uint256,uint256,uint256,uint32,uint32,bytes)":{"notice":"Re-enters the vault at a different maturity. The account's existing borrow position will be closed and a new borrow position at the specified maturity will be opened. Strategy token holdings will transfer to the new maturity. Accounts can roll to longer or shorter dated maturities.","params":{"account":"the address that will reenter the vault","depositAmountExternal":"amount to deposit into the new maturity","maturity":"new maturity to borrow at","maxBorrowRate":"slippage protection for new borrow position","minLendRate":"slippage protection for repaying debts","newBorrowAmount":"amount of fCash to borrow in the next maturity","vault":"the vault to reenter"},"returns":{"vaultSharesAdded":"the total strategy tokens added to the maturity, including any tokens rolled from the previous maturity. Allows rollVaultPosition to be used by off-chain methods to get an accurate simulation of the strategy tokens minted."}},"settleVaultAccount(address,address)":{"notice":"Settles a matured vault account by transforming it from an fCash maturity into a prime cash account. This method is not authenticated, anyone can settle a vault account without permission. Generally speaking, this action is economically equivalent no matter when it is called. In some edge conditions when the vault is holding prime cash, it is advantageous for the vault account to have this called sooner. All vault account actions will first settle the vault account before taking any further actions.","params":{"account":"the address to settle","vault":"the vault the account is in"}}},"version":1},"opcodes":"PUSH1 0x80 PUSH1 0x40 MSTORE PUSH1 0x4 CALLDATASIZE LT PUSH2 0x7B JUMPI PUSH1 0x0 CALLDATALOAD PUSH1 0xE0 SHR DUP1 PUSH4 0x8DA5CB5B GT PUSH2 0x4E JUMPI DUP1 PUSH4 0x8DA5CB5B EQ PUSH2 0xF3 JUMPI DUP1 PUSH4 0x95C1A202 EQ PUSH2 0x108 JUMPI DUP1 PUSH4 0xC4C96DAE EQ PUSH2 0x11B JUMPI DUP1 PUSH4 0xEEC51108 EQ PUSH2 0x130 JUMPI PUSH2 0x7B JUMP JUMPDEST DUP1 PUSH4 0x24A3D622 EQ PUSH2 0x80 JUMPI DUP1 PUSH4 0x653B6104 EQ PUSH2 0xAB JUMPI DUP1 PUSH4 0x6CE48F01 EQ PUSH2 0xCB JUMPI DUP1 PUSH4 0x82463367 EQ PUSH2 0xDE JUMPI JUMPDEST PUSH1 0x0 DUP1 REVERT JUMPDEST CALLVALUE DUP1 ISZERO PUSH2 0x8C JUMPI PUSH1 0x0 DUP1 REVERT JUMPDEST POP PUSH2 0x95 PUSH2 0x152 JUMP JUMPDEST PUSH1 0x40 MLOAD PUSH2 0xA2 SWAP2 SWAP1 PUSH2 0x5C6B JUMP JUMPDEST PUSH1 0x40 MLOAD DUP1 SWAP2 SUB SWAP1 RETURN JUMPDEST PUSH2 0xBE PUSH2 0xB9 CALLDATASIZE PUSH1 0x4 PUSH2 0x5A16 JUMP JUMPDEST PUSH2 0x161 JUMP JUMPDEST PUSH1 0x40 MLOAD PUSH2 0xA2 SWAP2 SWAP1 PUSH2 0x5E84 JUMP JUMPDEST PUSH2 0xBE PUSH2 0xD9 CALLDATASIZE PUSH1 0x4 PUSH2 0x5920 JUMP JUMPDEST PUSH2 0x2FD JUMP JUMPDEST CALLVALUE DUP1 ISZERO PUSH2 0xEA JUMPI PUSH1 0x0 DUP1 REVERT JUMPDEST POP PUSH2 0x95 PUSH2 0x4F2 JUMP JUMPDEST CALLVALUE DUP1 ISZERO PUSH2 0xFF JUMPI PUSH1 0x0 DUP1 REVERT JUMPDEST POP PUSH2 0x95 PUSH2 0x501 JUMP JUMPDEST PUSH2 0xBE PUSH2 0x116 CALLDATASIZE PUSH1 0x4 PUSH2 0x59BD JUMP JUMPDEST PUSH2 0x518 JUMP JUMPDEST CALLVALUE DUP1 ISZERO PUSH2 0x127 JUMPI PUSH1 0x0 DUP1 REVERT JUMPDEST POP PUSH2 0x95 PUSH2 0x666 JUMP JUMPDEST CALLVALUE DUP1 ISZERO PUSH2 0x13C JUMPI PUSH1 0x0 DUP1 REVERT JUMPDEST POP PUSH2 0x150 PUSH2 0x14B CALLDATASIZE PUSH1 0x4 PUSH2 0x58E8 JUMP JUMPDEST PUSH2 0x67E JUMP JUMPDEST STOP JUMPDEST PUSH1 0x2 SLOAD PUSH1 0x1 PUSH1 0x1 PUSH1 0xA0 SHL SUB AND DUP2 JUMP JUMPDEST PUSH1 0x0 PUSH1 0x2 PUSH1 0xA SLOAD EQ ISZERO PUSH2 0x173 JUMPI PUSH1 0x0 DUP1 REVERT JUMPDEST PUSH1 0x2 PUSH1 0xA SSTORE PUSH1 0x0 PUSH2 0x183 DUP11 PUSH2 0x709 JUMP JUMPDEST SWAP1 POP PUSH2 0x191 DUP2 DUP13 PUSH1 0x10 PUSH2 0x734 JUMP JUMPDEST PUSH2 0x19C DUP2 PUSH1 0x80 PUSH2 0x778 JUMP JUMPDEST ISZERO PUSH2 0x1A7 JUMPI PUSH1 0x1 PUSH1 0xA SSTORE JUMPDEST PUSH1 0x0 PUSH2 0x1B3 DUP13 DUP4 PUSH2 0x78F JUMP JUMPDEST SWAP1 POP PUSH2 0x1BF DUP2 DUP4 PUSH2 0x83E JUMP JUMPDEST POP PUSH2 0x1CB DUP3 PUSH1 0x1 PUSH2 0x778 JUMP JUMPDEST PUSH2 0x1D4 JUMPI PUSH1 0x0 DUP1 REVERT JUMPDEST PUSH2 0x1DF DUP3 PUSH1 0x2 PUSH2 0x778 JUMP JUMPDEST PUSH2 0x1E8 JUMPI PUSH1 0x0 DUP1 REVERT JUMPDEST PUSH1 0x0 DUP11 GT PUSH2 0x1F5 JUMPI PUSH1 0x0 DUP1 REVERT JUMPDEST DUP9 DUP2 PUSH1 0x20 ADD MLOAD EQ ISZERO PUSH2 0x206 JUMPI PUSH1 0x0 DUP1 REVERT JUMPDEST DUP9 TIMESTAMP LT PUSH2 0x212 JUMPI PUSH1 0x0 DUP1 REVERT JUMPDEST PUSH1 0x0 PUSH2 0x222 DUP4 DUP4 PUSH1 0x20 ADD MLOAD PUSH2 0x8A5 JUMP JUMPDEST PUSH1 0x40 DUP4 ADD MLOAD SWAP5 POP SWAP1 POP PUSH2 0x237 DUP2 DUP4 DUP6 DUP8 PUSH2 0x930 JUMP JUMPDEST PUSH2 0x254 DUP4 DUP3 PUSH2 0x249 DUP6 PUSH1 0x0 ADD MLOAD PUSH2 0x9DB JUMP JUMPDEST DUP6 SWAP3 SWAP2 SWAP1 DUP13 TIMESTAMP PUSH2 0x9F1 JUMP JUMPDEST DUP2 MLOAD ISZERO PUSH2 0x260 JUMPI PUSH1 0x0 DUP1 REVERT JUMPDEST PUSH2 0x26A DUP2 DUP5 PUSH2 0xACC JUMP JUMPDEST PUSH2 0x275 DUP4 DUP4 DUP12 PUSH2 0xB78 JUMP JUMPDEST PUSH2 0x285 DUP3 DUP5 DUP13 DUP15 DUP12 DUP12 DUP12 DUP12 PUSH2 0xBD6 JUMP JUMPDEST SWAP4 POP ADDRESS PUSH1 0x1 PUSH1 0x1 PUSH1 0xA0 SHL SUB AND PUSH4 0xC9384F26 DUP14 DUP16 PUSH1 0x40 MLOAD DUP4 PUSH4 0xFFFFFFFF AND PUSH1 0xE0 SHL DUP2 MSTORE PUSH1 0x4 ADD PUSH2 0x2B5 SWAP3 SWAP2 SWAP1 PUSH2 0x5C7F JUMP JUMPDEST PUSH1 0x0 PUSH1 0x40 MLOAD DUP1 DUP4 SUB DUP2 PUSH1 0x0 DUP8 DUP1 EXTCODESIZE ISZERO DUP1 ISZERO PUSH2 0x2CF JUMPI PUSH1 0x0 DUP1 REVERT JUMPDEST POP GAS CALL ISZERO DUP1 ISZERO PUSH2 0x2E3 JUMPI RETURNDATASIZE PUSH1 0x0 DUP1 RETURNDATACOPY RETURNDATASIZE PUSH1 0x0 REVERT JUMPDEST POP POP PUSH1 0x1 PUSH1 0xA SSTORE POP SWAP4 SWAP14 SWAP13 POP POP POP POP POP POP POP POP POP POP POP POP POP JUMP JUMPDEST PUSH1 0x0 PUSH1 0x2 PUSH1 0xA SLOAD EQ ISZERO PUSH2 0x30F JUMPI PUSH1 0x0 DUP1 REVERT JUMPDEST PUSH1 0x2 PUSH1 0xA SSTORE PUSH1 0x0 PUSH2 0x31F DUP10 PUSH2 0x709 JUMP JUMPDEST SWAP1 POP PUSH2 0x32D DUP2 DUP12 PUSH1 0x8 PUSH2 0x734 JUMP JUMPDEST PUSH2 0x338 DUP2 PUSH1 0x80 PUSH2 0x778 JUMP JUMPDEST ISZERO PUSH2 0x343 JUMPI PUSH1 0x1 PUSH1 0xA SSTORE JUMPDEST PUSH1 0x0 PUSH2 0x34F DUP12 DUP4 PUSH2 0x78F JUMP JUMPDEST SWAP1 POP TIMESTAMP PUSH1 0x3C DUP3 PUSH1 0xA0 ADD MLOAD ADD GT ISZERO PUSH2 0x365 JUMPI PUSH1 0x0 DUP1 REVERT JUMPDEST PUSH2 0x36F DUP2 DUP4 PUSH2 0x83E JUMP JUMPDEST POP PUSH1 0x0 PUSH2 0x380 DUP4 DUP4 PUSH1 0x20 ADD MLOAD PUSH2 0x8A5 JUMP JUMPDEST PUSH1 0x20 DUP4 ADD MLOAD SWAP1 SWAP2 POP PUSH5 0xFFFFFFFFFF EQ DUP1 ISZERO PUSH2 0x39C JUMPI POP PUSH1 0x0 NOT DUP9 EQ JUMPDEST ISZERO PUSH2 0x3B9 JUMPI PUSH2 0x3B6 PUSH2 0x3B1 DUP4 PUSH1 0x0 ADD MLOAD PUSH2 0x9DB JUMP JUMPDEST PUSH2 0xC77 JUMP JUMPDEST SWAP8 POP JUMPDEST PUSH2 0x3D2 DUP4 DUP3 PUSH2 0x3C7 DUP12 PUSH2 0xC8A JUMP JUMPDEST DUP6 SWAP3 SWAP2 SWAP1 DUP12 TIMESTAMP PUSH2 0x9F1 JUMP JUMPDEST PUSH2 0x3DE DUP2 DUP4 DUP6 DUP13 PUSH2 0x930 JUMP JUMPDEST PUSH1 0x0 DUP3 PUSH1 0x80 ADD MLOAD SGT ISZERO PUSH2 0x424 JUMPI PUSH2 0x3FF DUP12 DUP12 DUP6 PUSH1 0x40 ADD MLOAD DUP6 PUSH1 0x80 ADD MLOAD PUSH2 0xCA0 JUMP JUMPDEST PUSH2 0x41A DUP11 DUP5 PUSH1 0x40 ADD MLOAD DUP5 PUSH1 0x80 ADD MLOAD DUP7 PUSH2 0x160 ADD MLOAD PUSH1 0x0 PUSH2 0xD46 JUMP JUMPDEST PUSH1 0x0 PUSH1 0x80 DUP5 ADD MSTORE SWAP4 POP JUMPDEST PUSH2 0x43C PUSH2 0x435 DUP5 DUP5 DUP14 DUP14 DUP12 DUP12 PUSH2 0xD79 JUMP JUMPDEST DUP6 SWAP1 PUSH2 0xE93 JUMP JUMPDEST SWAP4 POP PUSH2 0x448 DUP2 DUP5 PUSH2 0xACC JUMP JUMPDEST DUP2 MLOAD ISZERO DUP1 ISZERO PUSH2 0x459 JUMPI POP PUSH1 0x40 DUP3 ADD MLOAD ISZERO JUMPDEST ISZERO PUSH2 0x466 JUMPI PUSH1 0x0 PUSH1 0x20 DUP4 ADD MSTORE JUMPDEST PUSH2 0x473 DUP3 DUP5 PUSH1 0x1 DUP1 PUSH2 0xEAC JUMP JUMPDEST PUSH1 0x20 DUP3 ADD MLOAD ISZERO PUSH2 0x4DE JUMPI ADDRESS PUSH1 0x1 PUSH1 0x1 PUSH1 0xA0 SHL SUB AND PUSH4 0xC9384F26 DUP13 DUP15 PUSH1 0x40 MLOAD DUP4 PUSH4 0xFFFFFFFF AND PUSH1 0xE0 SHL DUP2 MSTORE PUSH1 0x4 ADD PUSH2 0x4AB SWAP3 SWAP2 SWAP1 PUSH2 0x5C7F JUMP JUMPDEST PUSH1 0x0 PUSH1 0x40 MLOAD DUP1 DUP4 SUB DUP2 PUSH1 0x0 DUP8 DUP1 EXTCODESIZE ISZERO DUP1 ISZERO PUSH2 0x4C5 JUMPI PUSH1 0x0 DUP1 REVERT JUMPDEST POP GAS CALL ISZERO DUP1 ISZERO PUSH2 0x4D9 JUMPI RETURNDATASIZE PUSH1 0x0 DUP1 RETURNDATACOPY RETURNDATASIZE PUSH1 0x0 REVERT JUMPDEST POP POP POP POP JUMPDEST POP POP PUSH1 0x1 PUSH1 0xA SSTORE POP SWAP9 SWAP8 POP POP POP POP POP POP POP POP JUMP JUMPDEST PUSH1 0x1 SLOAD PUSH1 0x1 PUSH1 0x1 PUSH1 0xA0 SHL SUB AND DUP2 JUMP JUMPDEST PUSH1 0x0 SLOAD PUSH5 0x100000000 SWAP1 DIV PUSH1 0x1 PUSH1 0x1 PUSH1 0xA0 SHL SUB AND DUP2 JUMP JUMPDEST PUSH1 0x0 PUSH1 0x2 PUSH1 0xA SLOAD EQ ISZERO PUSH2 0x52A JUMPI PUSH1 0x0 DUP1 REVERT JUMPDEST PUSH1 0x2 PUSH1 0xA SSTORE PUSH2 0x538 DUP10 PUSH2 0xF3C JUMP JUMPDEST DUP8 PUSH1 0x1 PUSH1 0x1 PUSH1 0xA0 SHL SUB AND DUP10 PUSH1 0x1 PUSH1 0x1 PUSH1 0xA0 SHL SUB AND EQ ISZERO PUSH2 0x557 JUMPI PUSH1 0x0 DUP1 REVERT JUMPDEST PUSH1 0x0 PUSH2 0x562 DUP10 PUSH2 0x709 JUMP JUMPDEST SWAP1 POP PUSH2 0x570 DUP2 DUP12 PUSH1 0x4 PUSH2 0x734 JUMP JUMPDEST PUSH2 0x57B DUP2 PUSH1 0x80 PUSH2 0x778 JUMP JUMPDEST ISZERO PUSH2 0x586 JUMPI PUSH1 0x1 PUSH1 0xA SSTORE JUMPDEST PUSH2 0x591 DUP2 PUSH1 0x1 PUSH2 0x778 JUMP JUMPDEST PUSH2 0x59A JUMPI PUSH1 0x0 DUP1 REVERT JUMPDEST DUP7 TIMESTAMP LT PUSH2 0x5A6 JUMPI PUSH1 0x0 DUP1 REVERT JUMPDEST PUSH1 0x0 PUSH2 0x5B2 DUP12 DUP4 PUSH2 0x78F JUMP JUMPDEST SWAP1 POP PUSH2 0x5BE DUP2 DUP4 PUSH2 0x83E JUMP JUMPDEST POP PUSH1 0x20 DUP2 ADD MLOAD ISZERO DUP1 PUSH2 0x5D3 JUMPI POP DUP8 DUP2 PUSH1 0x20 ADD MLOAD EQ JUMPDEST PUSH2 0x5DC JUMPI PUSH1 0x0 DUP1 REVERT JUMPDEST PUSH2 0x5E7 DUP3 DUP3 DUP12 PUSH2 0xB78 JUMP JUMPDEST PUSH2 0x5F8 DUP2 DUP4 DUP11 DUP11 DUP11 DUP11 DUP11 PUSH1 0x0 PUSH2 0xBD6 JUMP JUMPDEST PUSH1 0x40 MLOAD PUSH4 0x649C2793 PUSH1 0xE1 SHL DUP2 MSTORE SWAP1 SWAP4 POP ADDRESS SWAP1 PUSH4 0xC9384F26 SWAP1 PUSH2 0x620 SWAP1 DUP14 SWAP1 DUP16 SWAP1 PUSH1 0x4 ADD PUSH2 0x5C7F JUMP JUMPDEST PUSH1 0x0 PUSH1 0x40 MLOAD DUP1 DUP4 SUB DUP2 PUSH1 0x0 DUP8 DUP1 EXTCODESIZE ISZERO DUP1 ISZERO PUSH2 0x63A JUMPI PUSH1 0x0 DUP1 REVERT JUMPDEST POP GAS CALL ISZERO DUP1 ISZERO PUSH2 0x64E JUMPI RETURNDATASIZE PUSH1 0x0 DUP1 RETURNDATACOPY RETURNDATASIZE PUSH1 0x0 REVERT JUMPDEST POP POP PUSH1 0x1 PUSH1 0xA SSTORE POP SWAP3 SWAP12 SWAP11 POP POP POP POP POP POP POP POP POP POP POP JUMP JUMPDEST PUSH20 0x0 SWAP1 JUMP JUMPDEST PUSH1 0x2 PUSH1 0xA SLOAD EQ ISZERO PUSH2 0x68E JUMPI PUSH1 0x0 DUP1 REVERT JUMPDEST PUSH1 0x2 PUSH1 0xA SSTORE PUSH2 0x69C DUP3 PUSH2 0xF3C JUMP JUMPDEST DUP1 PUSH1 0x1 PUSH1 0x1 PUSH1 0xA0 SHL SUB AND DUP3 PUSH1 0x1 PUSH1 0x1 PUSH1 0xA0 SHL SUB AND EQ ISZERO PUSH2 0x6BB JUMPI PUSH1 0x0 DUP1 REVERT JUMPDEST PUSH1 0x0 PUSH2 0x6C6 DUP3 PUSH2 0x709 JUMP JUMPDEST SWAP1 POP PUSH1 0x0 PUSH2 0x6D4 DUP5 DUP4 PUSH2 0x78F JUMP JUMPDEST SWAP1 POP PUSH2 0x6E0 DUP2 DUP4 PUSH2 0xFBB JUMP JUMPDEST PUSH2 0x6E9 JUMPI PUSH1 0x0 DUP1 REVERT JUMPDEST PUSH2 0x6F3 DUP2 DUP4 PUSH2 0x1178 JUMP JUMPDEST POP PUSH2 0x6FE DUP2 DUP4 PUSH2 0x11F0 JUMP JUMPDEST POP POP PUSH1 0x1 PUSH1 0xA SSTORE POP POP JUMP JUMPDEST PUSH2 0x711 PUSH2 0x5522 JUMP JUMPDEST PUSH2 0x71A DUP3 PUSH2 0x12C2 JUMP JUMPDEST SWAP1 POP PUSH2 0x729 DUP2 PUSH1 0x40 ADD MLOAD PUSH2 0x14B0 JUMP JUMPDEST PUSH2 0x160 DUP3 ADD MSTORE SWAP2 SWAP1 POP JUMP JUMPDEST PUSH2 0x73E DUP4 DUP3 PUSH2 0x778 JUMP JUMPDEST ISZERO PUSH2 0x75E JUMPI DUP3 MLOAD PUSH1 0x1 PUSH1 0x1 PUSH1 0xA0 SHL SUB AND CALLER EQ PUSH2 0x759 JUMPI PUSH1 0x0 DUP1 REVERT JUMPDEST PUSH2 0x773 JUMP JUMPDEST PUSH1 0x1 PUSH1 0x1 PUSH1 0xA0 SHL SUB DUP3 AND CALLER EQ PUSH2 0x773 JUMPI PUSH1 0x0 DUP1 REVERT JUMPDEST POP POP POP JUMP JUMPDEST PUSH1 0x20 DUP3 ADD MLOAD PUSH2 0xFFFF DUP1 DUP4 AND SWAP2 DUP4 AND AND EQ JUMPDEST SWAP3 SWAP2 POP POP JUMP JUMPDEST PUSH2 0x797 PUSH2 0x55BB JUMP JUMPDEST PUSH1 0x0 PUSH2 0x7A1 PUSH2 0x14C2 JUMP JUMPDEST PUSH1 0x1 PUSH1 0x1 PUSH1 0xA0 SHL SUB DUP1 DUP7 AND PUSH1 0x0 DUP2 DUP2 MSTORE PUSH1 0x20 DUP5 DUP2 MSTORE PUSH1 0x40 DUP1 DUP4 KECCAK256 DUP10 MLOAD SWAP1 SWAP6 AND DUP4 MSTORE SWAP4 DUP2 MSTORE SWAP1 DUP4 SWAP1 KECCAK256 DUP1 SLOAD PUSH5 0xFFFFFFFFFF PUSH1 0x1 PUSH1 0xA0 SHL DUP3 DIV AND SWAP3 DUP9 ADD DUP4 SWAP1 MSTORE PUSH1 0x1 PUSH1 0x1 PUSH1 0x50 SHL SUB PUSH1 0x1 PUSH1 0x50 SHL DUP3 DIV DUP2 AND SWAP6 DUP10 ADD SWAP6 SWAP1 SWAP6 MSTORE PUSH1 0x60 DUP9 ADD SWAP4 SWAP1 SWAP4 MSTORE PUSH1 0x1 DUP2 ADD SLOAD DUP5 AND PUSH1 0x80 DUP9 ADD MSTORE PUSH4 0xFFFFFFFF PUSH1 0x1 PUSH1 0xC8 SHL DUP5 DIV AND PUSH1 0xA0 DUP9 ADD MSTORE PUSH2 0x160 DUP9 ADD MLOAD SWAP5 SWAP6 POP SWAP4 PUSH2 0x833 SWAP4 SWAP1 SWAP3 AND PUSH2 0x14CF JUMP JUMPDEST DUP4 MSTORE POP SWAP1 SWAP4 SWAP3 POP POP POP JUMP JUMPDEST PUSH1 0x0 PUSH2 0x84A DUP4 DUP4 PUSH2 0xFBB JUMP JUMPDEST SWAP1 POP DUP1 ISZERO DUP1 ISZERO PUSH2 0x862 JUMPI POP PUSH1 0x20 DUP4 ADD MLOAD PUSH5 0xFFFFFFFFFF EQ JUMPDEST ISZERO PUSH2 0x789 JUMPI PUSH2 0x89E DUP4 PUSH2 0x88F PUSH2 0x88A DUP7 PUSH1 0x0 ADD MLOAD DUP7 PUSH2 0x160 ADD MLOAD PUSH2 0x150D SWAP1 SWAP2 SWAP1 PUSH4 0xFFFFFFFF AND JUMP JUMPDEST PUSH2 0x9DB JUMP JUMPDEST PUSH1 0x20 DUP7 ADD MLOAD DUP6 SWAP3 SWAP2 SWAP1 TIMESTAMP PUSH2 0x1535 JUMP JUMPDEST POP SWAP3 SWAP2 POP POP JUMP JUMPDEST PUSH2 0x8AD PUSH2 0x55FA JUMP JUMPDEST PUSH1 0x0 PUSH2 0x8B7 PUSH2 0x15FE JUMP JUMPDEST DUP5 MLOAD PUSH1 0x1 PUSH1 0x1 PUSH1 0xA0 SHL SUB AND PUSH1 0x0 SWAP1 DUP2 MSTORE PUSH1 0x20 DUP3 DUP2 MSTORE PUSH1 0x40 DUP1 DUP4 KECCAK256 DUP8 DUP5 MSTORE SWAP1 SWAP2 MSTORE SWAP1 DUP2 SWAP1 KECCAK256 DUP6 DUP6 MSTORE DUP1 SLOAD PUSH1 0xFF PUSH1 0x1 PUSH1 0xF0 SHL DUP3 DIV AND ISZERO ISZERO PUSH1 0x60 DUP8 ADD MSTORE PUSH1 0x1 PUSH1 0x1 PUSH1 0x50 SHL SUB PUSH1 0x1 PUSH1 0xA0 SHL DUP3 DIV DUP2 AND SWAP4 DUP8 ADD SWAP4 SWAP1 SWAP4 MSTORE PUSH2 0x160 DUP9 ADD MLOAD SWAP4 SWAP5 POP SWAP1 SWAP3 PUSH2 0x922 SWAP3 SWAP1 SWAP2 DUP8 SWAP2 AND PUSH2 0x14CF JUMP JUMPDEST PUSH1 0x20 DUP5 ADD MSTORE POP SWAP1 SWAP4 SWAP3 POP POP POP JUMP JUMPDEST DUP4 MLOAD PUSH1 0x20 DUP5 ADD MLOAD EQ PUSH2 0x941 JUMPI PUSH1 0x0 DUP1 REVERT JUMPDEST PUSH1 0x0 PUSH2 0x94B PUSH2 0x15FE JUMP JUMPDEST DUP4 MLOAD PUSH1 0x1 PUSH1 0x1 PUSH1 0xA0 SHL SUB AND PUSH1 0x0 SWAP1 DUP2 MSTORE PUSH1 0x20 DUP3 DUP2 MSTORE PUSH1 0x40 DUP1 DUP4 KECCAK256 DUP10 MLOAD DUP5 MSTORE SWAP1 SWAP2 MSTORE SWAP1 DUP2 SWAP1 KECCAK256 SWAP1 DUP8 ADD MLOAD SWAP2 SWAP3 POP SWAP1 PUSH2 0x982 SWAP1 DUP5 PUSH2 0x160B JUMP JUMPDEST PUSH1 0x40 DUP1 DUP9 ADD SWAP2 SWAP1 SWAP2 MSTORE DUP6 ADD MLOAD PUSH2 0x998 SWAP1 DUP5 PUSH2 0x160B JUMP JUMPDEST DUP6 PUSH1 0x40 ADD DUP2 DUP2 MSTORE POP POP PUSH2 0x9AE DUP7 PUSH1 0x40 ADD MLOAD PUSH2 0x1620 JUMP JUMPDEST DUP2 SLOAD PUSH1 0x1 PUSH1 0x1 PUSH1 0x50 SHL SUB SWAP2 SWAP1 SWAP2 AND PUSH1 0x1 PUSH1 0xA0 SHL MUL PUSH1 0x1 PUSH1 0xA0 SHL PUSH1 0x1 PUSH1 0xF0 SHL SUB NOT SWAP1 SWAP2 AND OR SWAP1 SSTORE POP POP POP POP POP JUMP JUMPDEST PUSH1 0x0 PUSH2 0x9E9 PUSH1 0x0 NOT DUP4 PUSH2 0x1636 JUMP JUMPDEST SWAP1 POP JUMPDEST SWAP2 SWAP1 POP JUMP JUMPDEST DUP3 PUSH2 0x9FB JUMPI PUSH2 0xAC4 JUMP JUMPDEST DUP6 MLOAD PUSH1 0x0 SWAP1 PUSH2 0xA0A SWAP1 DUP6 PUSH2 0x1684 JUMP JUMPDEST SGT ISZERO PUSH2 0xA15 JUMPI PUSH1 0x0 DUP1 REVERT JUMPDEST DUP6 PUSH1 0x20 ADD MLOAD DUP2 LT PUSH2 0xA25 JUMPI PUSH1 0x0 DUP1 REVERT JUMPDEST PUSH1 0x20 DUP7 ADD MLOAD PUSH1 0x0 SWAP1 PUSH5 0xFFFFFFFFFF EQ PUSH2 0xA5B JUMPI PUSH2 0xA58 DUP7 PUSH1 0x40 ADD MLOAD DUP8 PUSH1 0x0 ADD MLOAD DUP10 PUSH1 0x20 ADD MLOAD DUP8 DUP8 DUP12 PUSH2 0x100 ADD MLOAD DUP9 PUSH2 0x169A JUMP JUMPDEST SWAP1 POP JUMPDEST DUP1 PUSH2 0xAA8 JUMPI PUSH2 0x160 DUP7 ADD MLOAD PUSH2 0xA74 SWAP1 PUSH2 0x88A SWAP1 DUP7 PUSH2 0x150D JUMP JUMPDEST PUSH1 0x20 DUP9 ADD MLOAD SWAP1 SWAP2 POP PUSH5 0xFFFFFFFFFF EQ PUSH2 0xAA8 JUMPI PUSH2 0xAA8 DUP7 PUSH1 0x0 ADD MLOAD DUP8 PUSH1 0x40 ADD MLOAD DUP10 PUSH1 0x20 ADD MLOAD PUSH2 0xAA2 DUP6 PUSH2 0x9DB JUMP JUMPDEST DUP9 PUSH2 0x17A8 JUMP JUMPDEST PUSH1 0x0 DUP2 SGT ISZERO PUSH2 0xAB6 JUMPI PUSH1 0x0 DUP1 REVERT JUMPDEST PUSH2 0xAC2 DUP8 DUP7 DUP7 DUP5 PUSH2 0x188C JUMP JUMPDEST POP JUMPDEST POP POP POP POP POP POP JUMP JUMPDEST PUSH1 0x0 PUSH2 0xAD6 PUSH2 0x15FE JUMP JUMPDEST DUP3 MLOAD PUSH1 0x1 PUSH1 0x1 PUSH1 0xA0 SHL SUB AND PUSH1 0x0 SWAP1 DUP2 MSTORE PUSH1 0x20 DUP3 DUP2 MSTORE PUSH1 0x40 DUP1 DUP4 KECCAK256 DUP8 MLOAD DUP5 MSTORE SWAP1 SWAP2 MSTORE SWAP1 DUP2 SWAP1 KECCAK256 SWAP1 DUP6 ADD MLOAD SWAP2 SWAP3 POP SWAP1 PUSH2 0xB0C SWAP1 PUSH2 0x1620 JUMP JUMPDEST DUP2 SLOAD PUSH1 0x60 DUP7 ADD MLOAD DUP1 ISZERO ISZERO PUSH1 0x1 PUSH1 0xF0 SHL MUL PUSH1 0xFF PUSH1 0xF0 SHL NOT PUSH1 0x1 PUSH1 0x1 PUSH1 0x50 SHL SUB SWAP5 SWAP1 SWAP5 AND PUSH1 0x1 PUSH1 0xA0 SHL MUL PUSH1 0x1 PUSH1 0xA0 SHL PUSH1 0x1 PUSH1 0xF0 SHL SUB NOT SWAP1 SWAP4 AND SWAP3 SWAP1 SWAP3 OR SWAP3 SWAP1 SWAP3 AND OR DUP3 SSTORE PUSH2 0x160 DUP5 ADD MLOAD PUSH1 0x40 DUP6 ADD MLOAD DUP7 MLOAD PUSH1 0x20 DUP9 ADD MLOAD PUSH2 0xB72 SWAP5 DUP7 SWAP5 SWAP4 DUP10 SWAP4 SWAP1 SWAP3 SWAP1 SWAP2 PUSH2 0x18F7 JUMP JUMPDEST POP POP POP POP JUMP JUMPDEST PUSH1 0x0 PUSH2 0xB9D DUP4 PUSH1 0x60 ADD MLOAD DUP6 PUSH1 0x40 ADD MLOAD PUSH2 0xB90 DUP6 PUSH2 0xC8A JUMP JUMPDEST DUP8 PUSH2 0x160 ADD MLOAD PUSH1 0x0 PUSH2 0x19D6 JUMP JUMPDEST PUSH1 0x80 DUP6 ADD MLOAD SWAP1 SWAP3 POP PUSH2 0xBB0 SWAP2 POP DUP3 PUSH2 0x1684 JUMP JUMPDEST PUSH1 0x80 DUP5 ADD MSTORE PUSH1 0x0 DUP2 SGT ISZERO PUSH2 0xB72 JUMPI PUSH2 0xB72 DUP4 PUSH1 0x60 ADD MLOAD DUP6 PUSH1 0x0 ADD MLOAD DUP7 PUSH1 0x40 ADD MLOAD DUP5 PUSH2 0xCA0 JUMP JUMPDEST PUSH1 0x0 DUP7 DUP10 PUSH1 0x20 ADD MLOAD EQ DUP1 PUSH2 0xBE9 JUMPI POP DUP9 MLOAD ISZERO JUMPDEST PUSH2 0xBF2 JUMPI PUSH1 0x0 DUP1 REVERT JUMPDEST PUSH1 0x0 PUSH2 0xBFE DUP10 DUP10 PUSH2 0x8A5 JUMP JUMPDEST SWAP1 POP DUP7 ISZERO PUSH2 0xC24 JUMPI PUSH2 0xC1F DUP11 DUP11 DUP4 DUP12 PUSH2 0xC19 PUSH2 0x88A DUP14 PUSH2 0xC8A JUMP JUMPDEST DUP12 PUSH2 0x1AA1 JUMP JUMPDEST PUSH2 0xC47 JUMP JUMPDEST PUSH5 0xFFFFFFFFFF DUP9 EQ PUSH2 0xC47 JUMPI PUSH2 0xC45 DUP10 PUSH1 0x40 ADD MLOAD DUP10 DUP12 PUSH2 0x100 ADD MLOAD TIMESTAMP PUSH2 0x1B4C JUMP JUMPDEST POP JUMPDEST PUSH2 0xC55 DUP2 DUP12 DUP12 DUP7 DUP10 DUP10 PUSH2 0x1B95 JUMP JUMPDEST TIMESTAMP PUSH1 0xA0 DUP13 ADD MSTORE SWAP2 POP PUSH2 0xC6A DUP11 DUP11 PUSH1 0x1 DUP1 PUSH2 0xEAC JUMP JUMPDEST POP SWAP9 SWAP8 POP POP POP POP POP POP POP POP JUMP JUMPDEST PUSH1 0x0 DUP1 DUP3 SLT ISZERO PUSH2 0xC86 JUMPI PUSH1 0x0 DUP1 REVERT JUMPDEST POP SWAP1 JUMP JUMPDEST PUSH1 0x0 PUSH1 0x1 PUSH1 0x1 PUSH1 0xFF SHL SUB DUP3 GT ISZERO PUSH2 0xC86 JUMPI PUSH1 0x0 DUP1 REVERT JUMPDEST PUSH1 0x0 PUSH2 0xCAA PUSH2 0x1C3E JUMP JUMPDEST PUSH2 0xFFFF DUP5 AND PUSH1 0x0 SWAP1 DUP2 MSTORE PUSH1 0x20 SWAP2 SWAP1 SWAP2 MSTORE PUSH1 0x40 DUP2 KECCAK256 SLOAD PUSH1 0x1 PUSH1 0x1 PUSH1 0xA0 SHL SUB AND SWAP2 POP DUP3 SLT ISZERO PUSH2 0xCD5 JUMPI SWAP3 SWAP4 SWAP3 JUMPDEST DUP1 PUSH1 0x1 PUSH1 0x1 PUSH1 0xA0 SHL SUB AND PUSH4 0x23DE6651 DUP7 DUP7 PUSH2 0xCEF DUP7 PUSH2 0x1C4B JUMP JUMPDEST PUSH1 0x40 MLOAD DUP5 PUSH4 0xFFFFFFFF AND PUSH1 0xE0 SHL DUP2 MSTORE PUSH1 0x4 ADD PUSH2 0xD0D SWAP4 SWAP3 SWAP2 SWAP1 PUSH2 0x5C99 JUMP JUMPDEST PUSH1 0x0 PUSH1 0x40 MLOAD DUP1 DUP4 SUB DUP2 PUSH1 0x0 DUP8 DUP1 EXTCODESIZE ISZERO DUP1 ISZERO PUSH2 0xD27 JUMPI PUSH1 0x0 DUP1 REVERT JUMPDEST POP GAS CALL ISZERO DUP1 ISZERO PUSH2 0xD3B JUMPI RETURNDATASIZE PUSH1 0x0 DUP1 RETURNDATACOPY RETURNDATASIZE PUSH1 0x0 REVERT JUMPDEST POP POP POP POP POP POP POP POP POP JUMP JUMPDEST PUSH1 0x0 DUP1 PUSH2 0xD5E DUP8 DUP8 PUSH2 0xD57 DUP9 PUSH2 0x9DB JUMP JUMPDEST DUP8 DUP8 PUSH2 0x1C6C JUMP JUMPDEST SWAP1 POP PUSH2 0xD6C PUSH2 0x3B1 DUP3 PUSH2 0x9DB JUMP JUMPDEST SWAP2 POP POP JUMPDEST SWAP6 SWAP5 POP POP POP POP POP JUMP JUMPDEST PUSH1 0x0 DUP1 PUSH1 0x0 DUP1 PUSH2 0xD90 DUP11 PUSH1 0x40 ADD MLOAD PUSH2 0xFFFF AND PUSH2 0x1D14 JUMP JUMPDEST SWAP1 POP PUSH1 0x0 DUP10 PUSH1 0x80 ADD MLOAD SLT ISZERO PUSH2 0xDD7 JUMPI PUSH1 0x0 PUSH2 0xDC0 PUSH2 0x88A DUP12 PUSH1 0x80 ADD MLOAD DUP14 PUSH2 0x160 ADD MLOAD PUSH2 0x1D27 SWAP1 SWAP2 SWAP1 PUSH4 0xFFFFFFFF AND JUMP JUMPDEST SWAP1 POP PUSH2 0xDCF PUSH2 0x3B1 DUP4 DUP4 PUSH2 0x1D53 JUMP JUMPDEST SWAP3 POP POP PUSH2 0xDE6 JUMP JUMPDEST PUSH1 0x80 DUP10 ADD MLOAD ISZERO PUSH2 0xDE6 JUMPI PUSH1 0x0 DUP1 REVERT JUMPDEST PUSH2 0xDFF DUP11 DUP3 DUP12 PUSH1 0x60 ADD MLOAD DUP12 DUP12 DUP15 PUSH1 0x20 ADD MLOAD DUP9 DUP14 DUP14 PUSH2 0x1D90 JUMP JUMPDEST POP SWAP5 POP SWAP3 POP POP DUP1 DUP3 LT ISZERO PUSH2 0xE6F JUMPI PUSH1 0x0 DUP3 DUP3 SUB SWAP1 POP PUSH1 0x0 DUP1 PUSH2 0xE3A DUP12 PUSH1 0x60 ADD MLOAD DUP14 PUSH1 0x40 ADD MLOAD PUSH2 0xE2D DUP7 PUSH2 0xC8A JUMP JUMPDEST DUP16 PUSH2 0x160 ADD MLOAD PUSH1 0x0 PUSH2 0x19D6 JUMP JUMPDEST SWAP2 POP SWAP2 POP PUSH2 0xE51 PUSH2 0xE4A DUP4 PUSH2 0xC77 JUMP JUMPDEST DUP7 SWAP1 PUSH2 0xE93 JUMP JUMPDEST SWAP5 POP PUSH2 0xE6B DUP12 PUSH1 0x60 ADD MLOAD DUP14 PUSH1 0x0 ADD MLOAD DUP15 PUSH1 0x40 ADD MLOAD DUP5 PUSH2 0xCA0 JUMP JUMPDEST POP POP POP JUMPDEST DUP1 DUP3 LT ISZERO PUSH2 0xE7C JUMPI PUSH1 0x0 DUP1 REVERT JUMPDEST PUSH1 0x0 DUP9 PUSH1 0x80 ADD DUP2 DUP2 MSTORE POP POP POP POP SWAP7 SWAP6 POP POP POP POP POP POP JUMP JUMPDEST PUSH1 0x0 DUP3 DUP3 ADD DUP4 DUP2 LT ISZERO PUSH2 0xEA5 JUMPI PUSH1 0x0 DUP1 REVERT JUMPDEST SWAP4 SWAP3 POP POP POP JUMP JUMPDEST PUSH1 0x0 PUSH2 0xEB6 PUSH2 0x14C2 JUMP JUMPDEST PUSH1 0x60 DUP7 ADD MLOAD PUSH1 0x1 PUSH1 0x1 PUSH1 0xA0 SHL SUB SWAP1 DUP2 AND PUSH1 0x0 SWAP1 DUP2 MSTORE PUSH1 0x20 DUP4 DUP2 MSTORE PUSH1 0x40 DUP1 DUP4 KECCAK256 DUP10 MLOAD SWAP1 SWAP5 AND DUP4 MSTORE SWAP3 SWAP1 MSTORE KECCAK256 SWAP1 SWAP2 POP PUSH2 0xEF0 DUP7 DUP7 DUP4 DUP8 DUP8 PUSH2 0x1EB0 JUMP JUMPDEST PUSH1 0x1 DUP2 ADD DUP1 SLOAD PUSH1 0x1 PUSH1 0x1 PUSH1 0x50 SHL SUB NOT AND SWAP1 DUP2 SWAP1 SSTORE PUSH1 0x1 PUSH1 0x50 SHL SWAP1 DIV PUSH1 0x1 PUSH1 0x1 PUSH1 0x50 SHL SUB AND ISZERO DUP1 ISZERO PUSH2 0xF33 JUMPI POP PUSH1 0x1 DUP2 ADD SLOAD PUSH1 0x1 PUSH1 0xA0 SHL SWAP1 DIV PUSH1 0x1 PUSH1 0x1 PUSH1 0x50 SHL SUB AND ISZERO JUMPDEST PUSH2 0xAC4 JUMPI PUSH1 0x0 DUP1 REVERT JUMPDEST PUSH1 0x1 PUSH1 0x1 PUSH1 0xA0 SHL SUB DUP2 AND PUSH2 0xF4F JUMPI PUSH1 0x0 DUP1 REVERT JUMPDEST PUSH1 0x1 PUSH1 0x1 PUSH1 0xA0 SHL SUB DUP2 AND PUSH2 0xFEE EQ ISZERO PUSH2 0xF67 JUMPI PUSH1 0x0 DUP1 REVERT JUMPDEST PUSH1 0x1 PUSH1 0x1 PUSH1 0xA0 SHL SUB DUP2 AND PUSH2 0x5E7 EQ ISZERO PUSH2 0xF7F JUMPI PUSH1 0x0 DUP1 REVERT JUMPDEST PUSH1 0x1 PUSH1 0x1 PUSH1 0xA0 SHL SUB DUP2 AND ADDRESS EQ ISZERO PUSH2 0xF95 JUMPI PUSH1 0x0 DUP1 REVERT JUMPDEST PUSH1 0x0 PUSH2 0xFA0 DUP3 PUSH2 0x211E JUMP JUMPDEST POP POP POP POP PUSH2 0xFFFF AND SWAP1 POP DUP1 PUSH1 0x0 EQ PUSH2 0xFB7 JUMPI PUSH1 0x0 DUP1 REVERT JUMPDEST POP POP JUMP JUMPDEST PUSH1 0x0 DUP3 PUSH1 0x20 ADD MLOAD PUSH1 0x0 EQ DUP1 PUSH2 0xFD3 JUMPI POP DUP3 PUSH1 0x20 ADD MLOAD TIMESTAMP LT JUMPDEST ISZERO PUSH2 0xFE0 JUMPI POP PUSH1 0x0 PUSH2 0x789 JUMP JUMPDEST PUSH1 0x0 PUSH2 0xFF0 DUP4 DUP6 PUSH1 0x20 ADD MLOAD PUSH2 0x8A5 JUMP JUMPDEST SWAP1 POP PUSH1 0x0 PUSH2 0xFFC PUSH2 0x15FE JUMP JUMPDEST DUP5 MLOAD PUSH1 0x1 PUSH1 0x1 PUSH1 0xA0 SHL SUB AND PUSH1 0x0 SWAP1 DUP2 MSTORE PUSH1 0x20 SWAP2 DUP3 MSTORE PUSH1 0x40 DUP1 DUP3 KECCAK256 PUSH5 0xFFFFFFFFFF DUP4 MSTORE SWAP1 SWAP3 MSTORE KECCAK256 PUSH1 0x60 DUP4 ADD MLOAD SWAP1 SWAP2 POP PUSH2 0x1063 JUMPI PUSH2 0x104B DUP2 DUP6 PUSH1 0x0 ADD MLOAD DUP7 PUSH1 0x40 ADD MLOAD DUP6 PUSH1 0x0 ADD MLOAD DUP7 PUSH1 0x20 ADD MLOAD PUSH2 0x218A JUMP JUMPDEST PUSH1 0x0 PUSH1 0x20 DUP4 ADD MSTORE PUSH1 0x1 PUSH1 0x60 DUP4 ADD MSTORE PUSH2 0x1063 DUP3 DUP6 PUSH2 0xACC JUMP JUMPDEST PUSH2 0x106F DUP3 DUP7 DUP7 DUP5 PUSH2 0x21F3 JUMP JUMPDEST PUSH2 0x1078 DUP5 PUSH2 0x2305 JUMP JUMPDEST ISZERO PUSH2 0x10D8 JUMPI DUP4 MLOAD PUSH1 0x60 DUP7 ADD MLOAD PUSH1 0x40 MLOAD PUSH4 0x4140F635 PUSH1 0xE1 SHL DUP2 MSTORE ADDRESS SWAP3 PUSH4 0x8281EC6A SWAP3 PUSH2 0x10A5 SWAP3 PUSH1 0x4 ADD PUSH2 0x5C7F JUMP JUMPDEST PUSH1 0x0 PUSH1 0x40 MLOAD DUP1 DUP4 SUB DUP2 PUSH1 0x0 DUP8 DUP1 EXTCODESIZE ISZERO DUP1 ISZERO PUSH2 0x10BF JUMPI PUSH1 0x0 DUP1 REVERT JUMPDEST POP GAS CALL ISZERO DUP1 ISZERO PUSH2 0x10D3 JUMPI RETURNDATASIZE PUSH1 0x0 DUP1 RETURNDATACOPY RETURNDATASIZE PUSH1 0x0 REVERT JUMPDEST POP POP POP POP JUMPDEST PUSH1 0x0 PUSH2 0x10F3 DUP6 PUSH1 0x40 ADD MLOAD DUP8 PUSH1 0x20 ADD MLOAD DUP9 PUSH1 0x0 ADD MLOAD PUSH1 0x0 PUSH2 0x232E JUMP JUMPDEST SWAP1 POP PUSH2 0x1114 DUP6 PUSH2 0x160 ADD MLOAD DUP4 DUP8 PUSH1 0x40 ADD MLOAD DUP9 PUSH1 0x0 ADD MLOAD DUP11 PUSH1 0x80 ADD MLOAD DUP7 PUSH2 0x2373 JUMP JUMPDEST PUSH1 0x80 DUP9 ADD MSTORE PUSH1 0x20 DUP8 ADD DUP1 MLOAD PUSH1 0xA0 DUP10 ADD MSTORE PUSH5 0xFFFFFFFFFF SWAP1 MSTORE PUSH2 0x160 DUP7 ADD MLOAD SWAP1 SWAP2 POP PUSH2 0x113F SWAP1 DUP3 PUSH2 0x243C JUMP JUMPDEST DUP1 DUP8 MSTORE PUSH2 0x160 DUP7 ADD MLOAD PUSH2 0x116B SWAP2 DUP9 SWAP2 PUSH2 0x115C SWAP2 PUSH2 0x88A SWAP2 SWAP1 PUSH2 0x150D JUMP JUMPDEST DUP8 SWAP2 SWAP1 PUSH5 0xFFFFFFFFFF TIMESTAMP PUSH2 0x1535 JUMP JUMPDEST POP PUSH1 0x1 SWAP7 SWAP6 POP POP POP POP POP POP JUMP JUMPDEST PUSH2 0x1180 PUSH2 0x55FA JUMP JUMPDEST PUSH1 0x20 DUP4 ADD MLOAD PUSH5 0xFFFFFFFFFF EQ PUSH2 0x1195 JUMPI PUSH1 0x0 DUP1 REVERT JUMPDEST PUSH2 0x11A4 DUP3 PUSH5 0xFFFFFFFFFF PUSH2 0x8A5 JUMP JUMPDEST SWAP1 POP PUSH1 0x0 DUP4 PUSH1 0x80 ADD MLOAD SLT ISZERO PUSH2 0x11E6 JUMPI PUSH2 0x11E6 DUP4 DUP3 PUSH2 0x11D4 DUP7 PUSH1 0x80 ADD MLOAD DUP7 PUSH2 0x160 ADD MLOAD PUSH2 0x1D27 SWAP1 SWAP2 SWAP1 PUSH4 0xFFFFFFFF AND JUMP JUMPDEST PUSH2 0x11E1 DUP8 PUSH1 0x80 ADD MLOAD PUSH2 0x9DB JUMP JUMPDEST PUSH2 0x188C JUMP JUMPDEST PUSH2 0x789 DUP2 DUP4 PUSH2 0xACC JUMP JUMPDEST PUSH1 0x80 DUP3 ADD DUP1 MLOAD PUSH1 0x0 SWAP2 DUP3 SWAP1 MSTORE SWAP1 PUSH2 0x1205 PUSH2 0x14C2 JUMP JUMPDEST PUSH1 0x60 DUP6 ADD MLOAD PUSH1 0x1 PUSH1 0x1 PUSH1 0xA0 SHL SUB SWAP1 DUP2 AND PUSH1 0x0 SWAP1 DUP2 MSTORE PUSH1 0x20 DUP4 DUP2 MSTORE PUSH1 0x40 DUP1 DUP4 KECCAK256 DUP9 MLOAD SWAP1 SWAP5 AND DUP4 MSTORE SWAP3 SWAP1 MSTORE KECCAK256 SWAP1 SWAP2 POP PUSH2 0x1240 DUP6 DUP6 DUP4 PUSH1 0x1 DUP1 PUSH2 0x1EB0 JUMP JUMPDEST DUP3 PUSH2 0x125C JUMPI PUSH1 0x1 DUP2 ADD DUP1 SLOAD PUSH1 0x1 PUSH1 0x1 PUSH1 0x50 SHL SUB NOT AND SWAP1 SSTORE PUSH2 0x12BB JUMP JUMPDEST DUP3 PUSH1 0x0 SLT ISZERO PUSH2 0x12BB JUMPI PUSH2 0x1276 PUSH2 0x1271 DUP5 PUSH2 0xC77 JUMP JUMPDEST PUSH2 0x1620 JUMP JUMPDEST DUP2 PUSH1 0x1 ADD PUSH1 0x0 PUSH2 0x100 EXP DUP2 SLOAD DUP2 PUSH1 0x1 PUSH1 0x1 PUSH1 0x50 SHL SUB MUL NOT AND SWAP1 DUP4 PUSH1 0x1 PUSH1 0x1 PUSH1 0x50 SHL SUB AND MUL OR SWAP1 SSTORE POP PUSH2 0x12BB DUP6 PUSH1 0x60 ADD MLOAD DUP6 PUSH1 0x0 ADD MLOAD DUP7 PUSH1 0x40 ADD MLOAD DUP9 PUSH1 0x20 ADD MLOAD DUP8 PUSH2 0x248D JUMP JUMPDEST POP POP POP POP POP JUMP JUMPDEST PUSH2 0x12CA PUSH2 0x5522 JUMP JUMPDEST PUSH1 0x0 PUSH2 0x12D4 PUSH2 0x2523 JUMP JUMPDEST PUSH1 0x1 PUSH1 0x1 PUSH1 0xA0 SHL SUB DUP5 AND PUSH1 0x0 DUP2 DUP2 MSTORE PUSH1 0x20 DUP4 DUP2 MSTORE PUSH1 0x40 SWAP2 DUP3 SWAP1 KECCAK256 SWAP3 DUP7 MSTORE DUP3 SLOAD PUSH2 0xFFFF DUP1 DUP3 AND SWAP3 DUP9 ADD SWAP3 SWAP1 SWAP3 MSTORE PUSH3 0x10000 SWAP1 DIV AND SWAP1 DUP6 ADD MSTORE SWAP1 SWAP2 POP PUSH2 0x1330 PUSH2 0x2710 PUSH4 0x3B9ACA00 DUP4 SLOAD PUSH1 0x1 PUSH1 0x50 SHL SWAP1 DIV PUSH1 0xFF AND SWAP2 SWAP1 SDIV PUSH1 0x5 MUL PUSH2 0x2530 JUMP JUMPDEST PUSH1 0x80 DUP5 ADD MSTORE DUP1 SLOAD PUSH2 0x134F SWAP1 PUSH1 0x1 PUSH1 0x40 SHL SWAP1 DIV PUSH2 0xFFFF AND PUSH3 0x186A0 PUSH2 0x2530 JUMP JUMPDEST PUSH1 0xA0 DUP5 ADD MSTORE DUP1 SLOAD PUSH2 0x136E SWAP1 PUSH1 0x1 PUSH1 0x70 SHL SWAP1 DIV PUSH2 0xFFFF AND PUSH3 0x186A0 PUSH2 0x2530 JUMP JUMPDEST PUSH2 0x120 DUP5 ADD MSTORE PUSH1 0x2 DUP2 ADD SLOAD PUSH2 0x138A SWAP1 PUSH2 0xFFFF AND PUSH3 0x186A0 PUSH2 0x2530 JUMP JUMPDEST PUSH2 0x180 DUP5 ADD MSTORE DUP1 SLOAD PUSH1 0x64 SWAP1 PUSH1 0xFF PUSH1 0x1 PUSH1 0x58 SHL SWAP1 SWAP2 DIV AND PUSH4 0x3B9ACA00 MUL SDIV PUSH1 0xC0 DUP5 ADD MSTORE DUP1 SLOAD PUSH1 0x1 PUSH1 0x60 SHL DUP2 DIV PUSH1 0xFF SWAP1 DUP2 AND PUSH1 0xE0 DUP7 ADD MSTORE PUSH1 0x1 PUSH1 0x68 SHL SWAP1 SWAP2 DIV AND PUSH2 0x100 DUP5 ADD MSTORE PUSH1 0x40 DUP1 MLOAD DUP1 DUP3 ADD SWAP2 DUP3 SWAP1 MSTORE SWAP1 PUSH1 0x1 DUP4 ADD SWAP1 PUSH1 0x2 SWAP1 DUP3 PUSH1 0x0 DUP6 JUMPDEST DUP3 DUP3 SWAP1 SLOAD SWAP1 PUSH2 0x100 EXP SWAP1 DIV PUSH2 0xFFFF AND PUSH2 0xFFFF AND DUP2 MSTORE PUSH1 0x20 ADD SWAP1 PUSH1 0x2 ADD SWAP1 PUSH1 0x20 DUP3 PUSH1 0x1 ADD DIV SWAP3 DUP4 ADD SWAP3 PUSH1 0x1 SUB DUP3 MUL SWAP2 POP DUP1 DUP5 GT PUSH2 0x13E7 JUMPI POP POP POP POP POP PUSH2 0x140 DUP6 ADD SWAP2 SWAP1 SWAP2 MSTORE POP PUSH1 0x4 DUP2 ADD SLOAD PUSH1 0xFF AND PUSH2 0x1C0 DUP5 ADD MSTORE DUP1 SLOAD PUSH2 0x1453 SWAP1 PUSH5 0x100000000 SWAP1 DIV PUSH4 0xFFFFFFFF AND PUSH2 0x2557 JUMP JUMPDEST PUSH1 0x60 DUP5 ADD MSTORE PUSH2 0x1489 PUSH1 0x3 DUP3 ADD PUSH1 0x0 JUMPDEST PUSH1 0x8 SWAP2 DUP3 DUP3 DIV ADD SWAP2 SWAP1 MOD PUSH1 0x4 MUL SWAP1 SLOAD SWAP1 PUSH2 0x100 EXP SWAP1 DIV PUSH4 0xFFFFFFFF AND PUSH4 0xFFFFFFFF AND PUSH2 0x2557 JUMP JUMPDEST PUSH2 0x1A0 DUP5 ADD MLOAD MSTORE PUSH2 0x149E PUSH1 0x3 DUP3 ADD PUSH1 0x1 PUSH2 0x1462 JUMP JUMPDEST PUSH2 0x1A0 DUP5 ADD MLOAD PUSH1 0x20 ADD MSTORE POP SWAP1 SWAP3 SWAP2 POP POP JUMP JUMPDEST PUSH2 0x14B8 PUSH2 0x5624 JUMP JUMPDEST PUSH2 0x9E9 DUP3 TIMESTAMP PUSH2 0x2565 JUMP JUMPDEST PUSH1 0x0 DUP1 PUSH2 0x789 PUSH1 0x16 PUSH2 0x2626 JUMP JUMPDEST PUSH1 0x0 PUSH5 0xFFFFFFFFFF DUP4 EQ PUSH2 0x14EF JUMPI DUP2 PUSH1 0x1 PUSH1 0x1 PUSH1 0x50 SHL SUB AND PUSH1 0x0 SUB PUSH2 0x1505 JUMP JUMPDEST PUSH2 0x1505 DUP5 PUSH1 0x1 PUSH1 0x1 PUSH1 0x50 SHL SUB DUP5 AND PUSH1 0x0 SUB PUSH2 0x243C JUMP JUMPDEST SWAP5 SWAP4 POP POP POP POP JUMP JUMPDEST DUP2 MLOAD PUSH1 0x0 SWAP1 PUSH2 0xEA5 SWAP1 PUSH2 0x152F DUP5 PUSH15 0xC097CE7BC90715B34B9F1000000000 PUSH2 0x1636 JUMP JUMPDEST SWAP1 PUSH2 0x263F JUMP JUMPDEST PUSH1 0x0 PUSH2 0x1544 DUP7 DUP7 DUP7 DUP7 DUP7 PUSH2 0x2670 JUMP JUMPDEST SWAP1 POP PUSH1 0x0 PUSH2 0x1564 PUSH1 0x64 PUSH2 0x152F DUP10 PUSH1 0xE0 ADD MLOAD DUP6 PUSH2 0x1636 SWAP1 SWAP2 SWAP1 PUSH4 0xFFFFFFFF AND JUMP JUMPDEST SWAP1 POP PUSH1 0x0 PUSH2 0x1572 DUP4 DUP4 PUSH2 0x2706 JUMP JUMPDEST SWAP1 POP PUSH2 0x1582 DUP9 PUSH1 0x40 ADD MLOAD DUP4 PUSH2 0x271C JUMP JUMPDEST PUSH2 0x1590 DUP9 PUSH1 0x40 ADD MLOAD DUP3 PUSH2 0x2753 JUMP JUMPDEST PUSH5 0xFFFFFFFFFF DUP6 EQ ISZERO PUSH2 0x15C8 JUMPI PUSH2 0x15C8 DUP9 PUSH1 0x0 ADD MLOAD DUP10 PUSH1 0x40 ADD MLOAD DUP6 PUSH2 0x15C3 DUP8 DUP14 PUSH2 0x160 ADD MLOAD PUSH2 0x2797 SWAP1 SWAP2 SWAP1 PUSH4 0xFFFFFFFF AND JUMP JUMPDEST PUSH2 0x27D0 JUMP JUMPDEST PUSH2 0x15DC DUP9 PUSH1 0x0 ADD MLOAD DUP10 PUSH1 0x40 ADD MLOAD DUP4 DUP6 PUSH2 0x28E4 JUMP JUMPDEST PUSH1 0x80 DUP8 ADD MLOAD PUSH2 0x15EB SWAP1 DUP5 PUSH2 0x2706 JUMP JUMPDEST PUSH1 0x80 SWAP1 SWAP8 ADD SWAP7 SWAP1 SWAP7 MSTORE POP SWAP6 SWAP5 POP POP POP POP POP JUMP JUMPDEST PUSH1 0x0 DUP1 PUSH2 0x789 PUSH1 0x15 PUSH2 0x2626 JUMP JUMPDEST PUSH1 0x0 DUP3 DUP3 GT ISZERO PUSH2 0x161A JUMPI PUSH1 0x0 DUP1 REVERT JUMPDEST POP SWAP1 SUB SWAP1 JUMP JUMPDEST PUSH1 0x0 PUSH1 0x1 PUSH1 0x1 PUSH1 0x50 SHL SUB DUP3 GT ISZERO PUSH2 0xC86 JUMPI PUSH1 0x0 DUP1 REVERT JUMPDEST DUP2 DUP2 MUL PUSH1 0x0 NOT DUP4 EQ ISZERO PUSH2 0x1666 JUMPI DUP2 ISZERO DUP1 PUSH2 0x1658 JUMPI POP DUP3 DUP3 DUP3 DUP2 PUSH2 0x1655 JUMPI INVALID JUMPDEST SDIV EQ JUMPDEST PUSH2 0x1661 JUMPI PUSH1 0x0 DUP1 REVERT JUMPDEST PUSH2 0x789 JUMP JUMPDEST DUP3 ISZERO DUP1 PUSH2 0x167B JUMPI POP DUP2 DUP4 DUP3 DUP2 PUSH2 0x1678 JUMPI INVALID JUMPDEST SDIV EQ JUMPDEST PUSH2 0x789 JUMPI PUSH1 0x0 DUP1 REVERT JUMPDEST DUP2 DUP2 ADD DUP3 DUP2 SLT ISZERO PUSH1 0x0 DUP4 SLT ISZERO EQ PUSH2 0x789 JUMPI PUSH1 0x0 DUP1 REVERT JUMPDEST PUSH1 0x0 DUP1 PUSH2 0x16A9 DUP10 DUP9 DUP7 DUP7 PUSH2 0x1B4C JUMP JUMPDEST SWAP1 POP PUSH1 0x0 PUSH2 0x16B6 DUP8 PUSH2 0x1C4B JUMP JUMPDEST SWAP1 POP PUSH1 0x1 PUSH1 0x1 PUSH1 0x58 SHL SUB DUP2 LT PUSH2 0x16CB JUMPI PUSH1 0x0 DUP1 REVERT JUMPDEST PUSH1 0x0 PUSH1 0x78 DUP8 PUSH4 0xFFFFFFFF AND SWAP1 SHL PUSH1 0x98 DUP4 SWAP1 SHL PUSH1 0xF0 DUP6 SWAP1 SHL PUSH1 0xF8 PUSH1 0x0 DUP13 SGT PUSH2 0x16F3 JUMPI PUSH1 0x1 PUSH2 0x16F6 JUMP JUMPDEST PUSH1 0x0 JUMPDEST PUSH1 0x5 DUP2 GT ISZERO PUSH2 0x1701 JUMPI INVALID JUMPDEST PUSH1 0xFF AND SWAP1 SHL OR OR OR PUSH1 0x0 SHL SWAP1 POP PUSH20 0x0 PUSH4 0x715E9002 DUP13 DUP13 DUP5 PUSH1 0x40 MLOAD DUP5 PUSH4 0xFFFFFFFF AND PUSH1 0xE0 SHL DUP2 MSTORE PUSH1 0x4 ADD PUSH2 0x1749 SWAP4 SWAP3 SWAP2 SWAP1 PUSH2 0x5E5F JUMP JUMPDEST PUSH1 0x20 PUSH1 0x40 MLOAD DUP1 DUP4 SUB DUP2 DUP7 DUP1 EXTCODESIZE ISZERO DUP1 ISZERO PUSH2 0x1761 JUMPI PUSH1 0x0 DUP1 REVERT JUMPDEST POP GAS DELEGATECALL ISZERO DUP1 ISZERO PUSH2 0x1775 JUMPI RETURNDATASIZE PUSH1 0x0 DUP1 RETURNDATACOPY RETURNDATASIZE PUSH1 0x0 REVERT JUMPDEST POP POP POP POP PUSH1 0x40 MLOAD RETURNDATASIZE PUSH1 0x1F NOT PUSH1 0x1F DUP3 ADD AND DUP3 ADD DUP1 PUSH1 0x40 MSTORE POP DUP2 ADD SWAP1 PUSH2 0x1799 SWAP2 SWAP1 PUSH2 0x5BCC JUMP JUMPDEST SWAP12 SWAP11 POP POP POP POP POP POP POP POP POP POP POP JUMP JUMPDEST PUSH1 0x0 PUSH2 0x17B2 PUSH2 0x29D4 JUMP JUMPDEST PUSH2 0xFFFF DUP7 AND PUSH1 0x0 SWAP1 DUP2 MSTORE PUSH1 0x20 DUP3 DUP2 MSTORE PUSH1 0x40 DUP1 DUP4 KECCAK256 DUP9 DUP5 MSTORE SWAP1 SWAP2 MSTORE SWAP1 KECCAK256 DUP1 SLOAD SWAP2 SWAP3 POP SWAP1 PUSH2 0x17FB SWAP1 PUSH2 0x1271 SWAP1 PUSH1 0x1 PUSH1 0x50 SHL SWAP1 DIV PUSH1 0x1 PUSH1 0x1 PUSH1 0x50 SHL SUB AND PUSH2 0x17F5 DUP7 PUSH2 0xC77 JUMP JUMPDEST SWAP1 PUSH2 0xE93 JUMP JUMPDEST DUP2 SLOAD PUSH10 0xFFFFFFFFFFFFFFFFFFFF PUSH1 0x50 SHL NOT AND PUSH1 0x1 PUSH1 0x50 SHL PUSH1 0x1 PUSH1 0x1 PUSH1 0x50 SHL SUB SWAP3 DUP4 AND MUL OR DUP1 DUP4 SSTORE PUSH2 0x183B SWAP2 PUSH2 0x1271 SWAP2 PUSH1 0x1 PUSH1 0xA0 SHL SWAP1 DIV AND PUSH2 0x17F5 DUP8 PUSH2 0xC77 JUMP JUMPDEST DUP2 SLOAD PUSH1 0x1 PUSH1 0x1 PUSH1 0x50 SHL SUB SWAP2 SWAP1 SWAP2 AND PUSH1 0x1 PUSH1 0xA0 SHL MUL PUSH1 0x1 PUSH1 0xA0 SHL PUSH1 0x1 PUSH1 0xF0 SHL SUB NOT SWAP1 SWAP2 AND OR DUP2 SSTORE PUSH2 0x186F DUP8 PUSH2 0x5E7 DUP9 DUP8 PUSH2 0xCA0 JUMP JUMPDEST PUSH2 0x187D PUSH2 0x5E7 DUP8 DUP8 DUP7 PUSH2 0x29E1 JUMP JUMPDEST PUSH2 0xAC2 PUSH2 0x5E7 DUP9 DUP9 DUP9 DUP8 PUSH2 0x2A59 JUMP JUMPDEST DUP3 MLOAD PUSH1 0x20 DUP6 ADD MLOAD EQ PUSH2 0x18A4 JUMPI DUP4 MLOAD ISZERO PUSH2 0x18A4 JUMPI PUSH1 0x0 DUP1 REVERT JUMPDEST PUSH1 0x80 DUP5 ADD MLOAD PUSH2 0x18B3 SWAP1 DUP3 PUSH2 0x1684 JUMP JUMPDEST PUSH1 0x80 DUP6 ADD MSTORE DUP4 MLOAD PUSH2 0x18C4 SWAP1 DUP4 PUSH2 0x1684 JUMP JUMPDEST DUP1 DUP6 MSTORE PUSH1 0x0 SLT ISZERO PUSH2 0x18D4 JUMPI PUSH1 0x0 DUP1 REVERT JUMPDEST PUSH1 0x20 DUP4 ADD MLOAD PUSH2 0x18E3 SWAP1 DUP4 PUSH2 0x1684 JUMP JUMPDEST PUSH1 0x20 DUP5 ADD DUP2 SWAP1 MSTORE PUSH1 0x0 SLT ISZERO PUSH2 0xB72 JUMPI PUSH1 0x0 DUP1 REVERT JUMPDEST DUP7 SLOAD PUSH1 0x1 PUSH1 0x1 PUSH1 0x50 SHL SUB AND PUSH1 0x0 SWAP1 DUP2 SUB SWAP1 PUSH2 0x1913 DUP9 DUP7 DUP7 PUSH2 0x2AC4 JUMP JUMPDEST SWAP1 POP PUSH2 0x1924 PUSH2 0x1271 PUSH2 0x3B1 DUP4 PUSH2 0x9DB JUMP JUMPDEST DUP10 SLOAD PUSH1 0x1 PUSH1 0x1 PUSH1 0x50 SHL SUB NOT AND PUSH1 0x1 PUSH1 0x1 PUSH1 0x50 SHL SUB SWAP2 SWAP1 SWAP2 AND OR DUP10 SSTORE PUSH1 0x0 PUSH2 0x194B DUP4 DUP4 PUSH2 0x2AE2 JUMP JUMPDEST SWAP1 POP PUSH1 0x0 PUSH5 0xFFFFFFFFFF DUP8 EQ ISZERO PUSH2 0x1972 JUMPI DUP9 MLOAD PUSH2 0x196B SWAP1 DUP12 SWAP1 DUP11 DUP6 PUSH2 0x2B69 JUMP JUMPDEST POP DUP5 PUSH2 0x19A9 JUMP JUMPDEST DUP5 PUSH2 0x19A9 JUMPI DUP9 MLOAD PUSH2 0x1986 SWAP1 DUP10 DUP10 DUP8 DUP8 PUSH2 0x2B96 JUMP JUMPDEST DUP9 MLOAD PUSH2 0x199B SWAP1 DUP10 PUSH2 0x1996 DUP6 PUSH2 0x9DB JUMP JUMPDEST PUSH2 0x2C56 JUMP JUMPDEST PUSH2 0x19A6 DUP10 DUP12 DUP11 PUSH2 0x2D2C JUMP JUMPDEST SWAP1 POP JUMPDEST PUSH1 0x0 DUP3 SGT DUP1 ISZERO PUSH2 0x19B7 JUMPI POP DUP5 ISZERO JUMPDEST ISZERO PUSH2 0x19C9 JUMPI DUP9 MLOAD PUSH2 0x19C9 SWAP1 DUP10 DUP4 PUSH2 0x2DD2 JUMP JUMPDEST POP POP POP POP POP POP POP POP POP POP POP JUMP JUMPDEST PUSH1 0x0 DUP1 PUSH1 0x0 PUSH2 0x19E4 DUP7 PUSH2 0xC77 JUMP JUMPDEST SWAP1 POP DUP1 PUSH2 0x19F8 JUMPI PUSH1 0x0 DUP1 SWAP3 POP SWAP3 POP POP PUSH2 0x1A97 JUMP JUMPDEST PUSH1 0x0 PUSH2 0x1A07 DUP9 PUSH2 0xFFFF AND PUSH2 0x1D14 JUMP JUMPDEST SWAP1 POP PUSH1 0x3 DUP2 PUSH1 0x60 ADD MLOAD PUSH1 0x5 DUP2 GT ISZERO PUSH2 0x1A1B JUMPI INVALID JUMPDEST EQ ISZERO PUSH2 0x1A6B JUMPI CALLVALUE DUP3 LT ISZERO PUSH2 0x1A3B JUMPI PUSH2 0x1A36 DUP10 DUP4 CALLVALUE SUB DUP8 PUSH2 0x2E4E JUMP JUMPDEST PUSH2 0x1A63 JUMP JUMPDEST CALLVALUE DUP3 EQ PUSH2 0x1A63 JUMPI PUSH1 0x40 MLOAD PUSH3 0x461BCD PUSH1 0xE5 SHL DUP2 MSTORE PUSH1 0x4 ADD PUSH2 0x1A5A SWAP1 PUSH2 0x5DC9 JUMP JUMPDEST PUSH1 0x40 MLOAD DUP1 SWAP2 SUB SWAP1 REVERT JUMPDEST DUP7 SWAP4 POP PUSH2 0x1A85 JUMP JUMPDEST PUSH2 0x1A82 PUSH2 0x1A7D DUP3 PUSH1 0x0 ADD MLOAD DUP12 DUP6 PUSH2 0x2F11 JUMP JUMPDEST PUSH2 0xC8A JUMP JUMPDEST SWAP4 POP JUMPDEST PUSH2 0x1A92 DUP10 DUP10 DUP7 DUP5 DUP11 PUSH2 0x3099 JUMP JUMPDEST SWAP3 POP POP POP JUMPDEST SWAP6 POP SWAP6 SWAP4 POP POP POP POP JUMP JUMPDEST PUSH1 0x0 DUP3 SLT PUSH2 0x1AAE JUMPI PUSH1 0x0 DUP1 REVERT JUMPDEST PUSH1 0x0 PUSH5 0xFFFFFFFFFF DUP5 EQ ISZERO PUSH2 0x1AD8 JUMPI PUSH2 0x160 DUP7 ADD MLOAD PUSH2 0x1AD1 SWAP1 PUSH2 0x88A SWAP1 DUP6 PUSH2 0x150D JUMP JUMPDEST SWAP1 POP PUSH2 0x1B05 JUMP JUMPDEST PUSH2 0x1AF4 DUP7 PUSH1 0x40 ADD MLOAD DUP8 PUSH1 0x0 ADD MLOAD DUP7 DUP7 DUP7 DUP12 PUSH2 0x100 ADD MLOAD TIMESTAMP PUSH2 0x169A JUMP JUMPDEST SWAP1 POP PUSH2 0x1B03 DUP7 DUP9 DUP4 DUP8 TIMESTAMP PUSH2 0x1535 JUMP JUMPDEST POP JUMPDEST PUSH1 0x0 DUP2 SGT PUSH2 0x1B12 JUMPI PUSH1 0x0 DUP1 REVERT JUMPDEST PUSH2 0x1B1E DUP8 DUP7 DUP6 DUP5 PUSH2 0x188C JUMP JUMPDEST DUP7 MLOAD PUSH2 0x1B29 SWAP1 PUSH2 0x9DB JUMP JUMPDEST DUP7 PUSH1 0x60 ADD MLOAD SGT ISZERO PUSH2 0xAC2 JUMPI PUSH1 0x40 MLOAD PUSH3 0x461BCD PUSH1 0xE5 SHL DUP2 MSTORE PUSH1 0x4 ADD PUSH2 0x1A5A SWAP1 PUSH2 0x5E3B JUMP JUMPDEST PUSH1 0x0 DUP1 PUSH1 0x0 PUSH2 0x1B5E DUP8 PUSH2 0xFFFF AND PUSH2 0x30E0 JUMP JUMPDEST SWAP1 POP PUSH2 0x1B6E DUP2 PUSH1 0xFF AND DUP8 DUP7 PUSH2 0x30F6 JUMP JUMPDEST SWAP1 SWAP4 POP SWAP2 POP DUP5 DUP4 GT ISZERO PUSH2 0x1B80 JUMPI PUSH1 0x0 DUP1 REVERT JUMPDEST DUP2 ISZERO PUSH2 0x1B8B JUMPI PUSH1 0x0 DUP1 REVERT JUMPDEST POP POP SWAP5 SWAP4 POP POP POP POP JUMP JUMPDEST PUSH1 0x0 DUP1 DUP7 PUSH1 0x80 ADD MLOAD SLT ISZERO PUSH2 0x1BA8 JUMPI PUSH1 0x0 DUP1 REVERT JUMPDEST DUP7 MLOAD PUSH1 0x20 DUP8 ADD MLOAD EQ PUSH2 0x1BCF JUMPI PUSH1 0x40 DUP7 ADD MLOAD ISZERO PUSH2 0x1BC3 JUMPI PUSH1 0x0 DUP1 REVERT JUMPDEST DUP7 MLOAD PUSH1 0x20 DUP8 ADD MSTORE PUSH2 0x1BE0 JUMP JUMPDEST DUP7 MLOAD PUSH1 0x20 DUP8 ADD MLOAD EQ PUSH2 0x1BE0 JUMPI PUSH1 0x0 DUP1 REVERT JUMPDEST PUSH2 0x1BEC DUP8 DUP8 DUP8 DUP8 PUSH2 0x3185 JUMP JUMPDEST PUSH1 0x60 DUP7 ADD MLOAD PUSH1 0x80 DUP8 ADD MLOAD DUP9 MLOAD PUSH1 0x0 SWAP3 PUSH2 0x1C08 SWAP3 DUP10 SWAP3 DUP9 DUP9 PUSH2 0x31ED JUMP JUMPDEST PUSH1 0x0 PUSH1 0x80 DUP10 ADD MSTORE SWAP1 POP PUSH2 0x1C1D DUP9 DUP9 DUP9 DUP5 PUSH2 0x3185 JUMP JUMPDEST PUSH2 0x1C27 DUP6 DUP3 PUSH2 0xE93 JUMP JUMPDEST SWAP2 POP PUSH2 0x1C33 DUP9 DUP8 PUSH2 0xACC JUMP JUMPDEST POP SWAP7 SWAP6 POP POP POP POP POP POP JUMP JUMPDEST PUSH1 0x0 DUP1 PUSH2 0x789 PUSH1 0x21 PUSH2 0x2626 JUMP JUMPDEST PUSH1 0x0 DUP1 DUP3 SLT ISZERO PUSH2 0x1C65 JUMPI PUSH2 0x1C5E DUP3 PUSH2 0x9DB JUMP JUMPDEST SWAP1 POP PUSH2 0x9EC JUMP JUMPDEST POP DUP1 PUSH2 0x9EC JUMP JUMPDEST PUSH1 0x0 DUP4 PUSH2 0x1C7B JUMPI POP PUSH1 0x0 PUSH2 0xD70 JUMP JUMPDEST PUSH1 0x0 DUP5 SLT PUSH2 0x1C88 JUMPI PUSH1 0x0 DUP1 REVERT JUMPDEST PUSH1 0x0 PUSH2 0x1C97 DUP7 PUSH2 0xFFFF AND PUSH2 0x1D14 JUMP JUMPDEST SWAP1 POP PUSH2 0x1CAC DUP2 PUSH2 0x1CA7 DUP7 DUP9 PUSH2 0x1D27 JUMP JUMPDEST PUSH2 0x3295 JUMP JUMPDEST SWAP2 POP PUSH1 0x0 PUSH2 0x1CB9 DUP4 PUSH2 0x9DB JUMP JUMPDEST SWAP1 POP PUSH2 0x1CC6 DUP8 DUP4 DUP4 PUSH2 0x32CD JUMP JUMPDEST PUSH1 0x3 DUP3 PUSH1 0x60 ADD MLOAD PUSH1 0x5 DUP2 GT ISZERO PUSH2 0x1CD8 JUMPI INVALID JUMPDEST EQ ISZERO PUSH2 0x1CEE JUMPI PUSH2 0x1CE9 DUP9 DUP3 DUP7 PUSH2 0x2E4E JUMP JUMPDEST PUSH2 0x1CFB JUMP JUMPDEST DUP2 MLOAD PUSH2 0x1CFB SWAP1 DUP10 DUP4 PUSH2 0x33BB JUMP JUMPDEST PUSH2 0x1D08 DUP9 DUP9 DUP6 DUP6 DUP10 PUSH2 0x3099 JUMP JUMPDEST POP POP POP SWAP6 SWAP5 POP POP POP POP POP JUMP JUMPDEST PUSH2 0x1D1C PUSH2 0x5645 JUMP JUMPDEST PUSH2 0x9E9 DUP3 PUSH1 0x1 PUSH2 0x3432 JUMP JUMPDEST PUSH1 0x0 PUSH2 0xEA5 PUSH15 0xC097CE7BC90715B34B9F1000000000 PUSH2 0x152F DUP6 PUSH1 0x0 ADD MLOAD DUP6 PUSH2 0x1636 SWAP1 SWAP2 SWAP1 PUSH4 0xFFFFFFFF AND JUMP JUMPDEST PUSH1 0x0 PUSH4 0x5F5E100 DUP4 PUSH1 0x40 ADD MLOAD SLT ISZERO PUSH2 0x1D81 JUMPI PUSH2 0x1D7A PUSH1 0x1 PUSH2 0x1D74 DUP6 DUP6 PUSH2 0x3295 JUMP JUMPDEST SWAP1 PUSH2 0x1684 JUMP JUMPDEST SWAP1 POP PUSH2 0x789 JUMP JUMPDEST PUSH2 0xEA5 DUP4 PUSH2 0x1CA7 DUP5 PUSH1 0x1 PUSH2 0x1684 JUMP JUMPDEST PUSH1 0x0 DUP1 DUP1 DUP1 PUSH2 0x1D9F DUP13 ADDRESS PUSH2 0x34CC JUMP JUMPDEST DUP14 MLOAD PUSH1 0x40 MLOAD PUSH4 0x89E0A21 PUSH1 0xE3 SHL DUP2 MSTORE SWAP2 SWAP3 POP PUSH1 0x1 PUSH1 0x1 PUSH1 0xA0 SHL SUB AND SWAP1 PUSH4 0x44F05108 SWAP1 PUSH2 0x1DDB SWAP1 DUP15 SWAP1 DUP15 SWAP1 DUP15 SWAP1 DUP15 SWAP1 DUP15 SWAP1 DUP15 SWAP1 DUP15 SWAP1 PUSH1 0x4 ADD PUSH2 0x5CE6 JUMP JUMPDEST PUSH1 0x20 PUSH1 0x40 MLOAD DUP1 DUP4 SUB DUP2 PUSH1 0x0 DUP8 DUP1 EXTCODESIZE ISZERO DUP1 ISZERO PUSH2 0x1DF5 JUMPI PUSH1 0x0 DUP1 REVERT JUMPDEST POP GAS CALL ISZERO DUP1 ISZERO PUSH2 0x1E09 JUMPI RETURNDATASIZE PUSH1 0x0 DUP1 RETURNDATACOPY RETURNDATASIZE PUSH1 0x0 REVERT JUMPDEST POP POP POP POP PUSH1 0x40 MLOAD RETURNDATASIZE PUSH1 0x1F NOT PUSH1 0x1F DUP3 ADD AND DUP3 ADD DUP1 PUSH1 0x40 MSTORE POP DUP2 ADD SWAP1 PUSH2 0x1E2D SWAP2 SWAP1 PUSH2 0x5BCC JUMP JUMPDEST SWAP3 POP PUSH1 0x0 PUSH2 0x1E3B DUP14 ADDRESS PUSH2 0x34CC JUMP JUMPDEST SWAP1 POP PUSH2 0x1E47 DUP2 DUP4 PUSH2 0x160B JUMP JUMPDEST SWAP5 POP PUSH2 0x1E58 DUP14 PUSH1 0x0 ADD MLOAD DUP4 DUP4 PUSH2 0x3576 JUMP JUMPDEST POP POP PUSH1 0x0 PUSH2 0x1E6F PUSH2 0x1E68 DUP6 PUSH2 0xC8A JUMP JUMPDEST DUP14 SWAP1 PUSH2 0x35F3 JUMP JUMPDEST PUSH2 0x160 DUP15 ADD MLOAD SWAP1 SWAP2 POP PUSH2 0x1E82 SWAP1 DUP3 PUSH2 0x150D JUMP JUMPDEST SWAP2 POP PUSH2 0x1E93 DUP14 PUSH1 0x40 ADD MLOAD DUP4 DUP4 PUSH2 0x3623 JUMP JUMPDEST PUSH2 0x1EA0 DUP14 DUP14 DUP13 DUP7 DUP7 PUSH2 0x3727 JUMP JUMPDEST POP SWAP10 POP SWAP10 POP SWAP10 SWAP7 POP POP POP POP POP POP POP JUMP JUMPDEST PUSH1 0x80 DUP6 ADD MLOAD ISZERO PUSH2 0x1EBF JUMPI PUSH1 0x0 DUP1 REVERT JUMPDEST PUSH1 0x60 DUP5 ADD MLOAD DUP6 MLOAD PUSH2 0x1ECF SWAP1 PUSH2 0x9DB JUMP JUMPDEST SLT DUP1 ISZERO PUSH2 0x1ED9 JUMPI POP DUP2 JUMPDEST ISZERO PUSH2 0x1F0D JUMPI DUP5 MLOAD ISZERO DUP1 PUSH2 0x1EF1 JUMPI POP PUSH1 0x1 DUP6 PUSH1 0x40 ADD MLOAD GT ISZERO JUMPDEST PUSH2 0x1F0D JUMPI PUSH1 0x40 MLOAD PUSH3 0x461BCD PUSH1 0xE5 SHL DUP2 MSTORE PUSH1 0x4 ADD PUSH2 0x1A5A SWAP1 PUSH2 0x5E3B JUMP JUMPDEST PUSH2 0x1F16 DUP5 PUSH2 0x2305 JUMP JUMPDEST ISZERO PUSH2 0x1FB5 JUMPI PUSH1 0x0 PUSH2 0x1F25 PUSH2 0x3777 JUMP JUMPDEST PUSH1 0x60 DUP8 ADD MLOAD PUSH1 0x1 PUSH1 0x1 PUSH1 0xA0 SHL SUB SWAP1 DUP2 AND PUSH1 0x0 SWAP1 DUP2 MSTORE PUSH1 0x20 SWAP3 DUP4 MSTORE PUSH1 0x40 DUP1 DUP3 KECCAK256 DUP10 MLOAD SWAP1 SWAP4 AND DUP3 MSTORE SWAP2 DUP4 MSTORE KECCAK256 DUP1 SLOAD SWAP2 DUP9 ADD MLOAD SWAP1 SWAP3 POP PUSH5 0xFFFFFFFFFF SWAP1 SWAP2 AND SWAP1 DUP2 EQ DUP1 PUSH2 0x1F6D JUMPI POP DUP1 ISZERO JUMPDEST PUSH2 0x1F76 JUMPI PUSH1 0x0 DUP1 REVERT JUMPDEST DUP1 PUSH2 0x1FB2 JUMPI DUP2 SLOAD PUSH1 0x1 PUSH1 0x28 SHL SWAP1 DIV PUSH1 0x1 PUSH1 0x1 PUSH1 0x50 SHL SUB AND ISZERO DUP1 ISZERO PUSH2 0x1FA9 JUMPI POP DUP2 SLOAD PUSH1 0x1 PUSH1 0x78 SHL SWAP1 DIV PUSH1 0x1 PUSH1 0x1 PUSH1 0x50 SHL SUB AND ISZERO JUMPDEST PUSH2 0x1FB2 JUMPI PUSH1 0x0 DUP1 REVERT JUMPDEST POP POP JUMPDEST PUSH1 0x0 PUSH2 0x1FD5 PUSH2 0x3B1 PUSH2 0x88A DUP8 PUSH2 0x160 ADD MLOAD DUP10 PUSH1 0x20 ADD MLOAD DUP11 PUSH1 0x0 ADD MLOAD PUSH2 0x2AC4 JUMP JUMPDEST SWAP1 POP DUP2 ISZERO PUSH2 0x205E JUMPI PUSH1 0x40 DUP1 MLOAD PUSH1 0xE0 DUP2 ADD DUP3 MSTORE DUP6 SLOAD PUSH1 0x1 PUSH1 0x1 PUSH1 0x50 SHL SUB DUP1 DUP3 AND DUP4 MSTORE PUSH1 0x1 PUSH1 0x50 SHL DUP1 DUP4 DIV DUP3 AND PUSH1 0x20 DUP6 ADD MSTORE PUSH1 0x1 PUSH1 0xA0 SHL DUP1 DUP5 DIV PUSH5 0xFFFFFFFFFF AND SWAP6 DUP6 ADD SWAP6 SWAP1 SWAP6 MSTORE PUSH1 0x1 PUSH1 0xC8 SHL SWAP1 SWAP3 DIV PUSH4 0xFFFFFFFF AND PUSH1 0x60 DUP5 ADD MSTORE PUSH1 0x1 DUP9 ADD SLOAD DUP1 DUP3 AND PUSH1 0x80 DUP6 ADD MSTORE SWAP2 DUP3 DIV DUP2 AND PUSH1 0xA0 DUP5 ADD MSTORE SWAP3 SWAP1 DIV SWAP1 SWAP2 AND PUSH1 0xC0 DUP3 ADD MSTORE PUSH2 0x205E SWAP1 DUP8 SWAP1 DUP8 SWAP1 DUP5 PUSH2 0x3784 JUMP JUMPDEST PUSH2 0x206B DUP7 PUSH1 0x40 ADD MLOAD PUSH2 0x1620 JUMP JUMPDEST DUP5 SLOAD PUSH1 0x1 PUSH1 0x1 PUSH1 0x50 SHL SUB SWAP2 SWAP1 SWAP2 AND PUSH1 0x1 PUSH1 0x50 SHL MUL PUSH10 0xFFFFFFFFFFFFFFFFFFFF PUSH1 0x50 SHL NOT SWAP1 SWAP2 AND OR DUP5 SSTORE PUSH1 0x20 DUP7 ADD MLOAD PUSH2 0x20A2 SWAP1 PUSH2 0x3C6A JUMP JUMPDEST DUP5 SLOAD PUSH5 0xFFFFFFFFFF SWAP2 SWAP1 SWAP2 AND PUSH1 0x1 PUSH1 0xA0 SHL MUL PUSH5 0xFFFFFFFFFF PUSH1 0xA0 SHL NOT SWAP1 SWAP2 AND OR DUP5 SSTORE PUSH1 0xA0 DUP7 ADD MLOAD PUSH2 0x20D2 SWAP1 PUSH2 0x3C7E JUMP JUMPDEST DUP5 SLOAD PUSH4 0xFFFFFFFF SWAP2 SWAP1 SWAP2 AND PUSH1 0x1 PUSH1 0xC8 SHL MUL PUSH4 0xFFFFFFFF PUSH1 0xC8 SHL NOT SWAP1 SWAP2 AND OR DUP5 SSTORE PUSH2 0x20FB DUP2 PUSH2 0x1620 JUMP JUMPDEST DUP5 SLOAD PUSH1 0x1 PUSH1 0x1 PUSH1 0x50 SHL SUB NOT AND PUSH1 0x1 PUSH1 0x1 PUSH1 0x50 SHL SUB SWAP2 SWAP1 SWAP2 AND OR SWAP1 SWAP4 SSTORE POP POP POP POP POP JUMP JUMPDEST PUSH1 0x0 DUP1 PUSH1 0x0 DUP1 PUSH1 0x0 DUP1 PUSH2 0x212F PUSH2 0x3C91 JUMP JUMPDEST PUSH1 0x1 PUSH1 0x1 PUSH1 0xA0 SHL SUB SWAP1 SWAP8 AND PUSH1 0x0 SWAP1 DUP2 MSTORE PUSH1 0x20 SWAP8 SWAP1 SWAP8 MSTORE POP POP PUSH1 0x40 SWAP1 SWAP5 KECCAK256 SLOAD PUSH2 0xFFFF DUP2 AND SWAP6 PUSH4 0xFFFFFFFF PUSH3 0x10000 DUP4 DIV DUP2 AND SWAP7 POP PUSH7 0x1000000000000 DUP4 DIV AND SWAP5 POP PUSH1 0xFF PUSH1 0x1 PUSH1 0x50 SHL DUP4 DIV AND SWAP4 POP PUSH1 0x1 PUSH1 0x58 SHL SWAP1 SWAP2 DIV PUSH1 0xD8 SHL SWAP2 POP JUMP JUMPDEST PUSH1 0x0 PUSH2 0x2198 DUP5 DUP5 DUP5 DUP9 PUSH2 0x232E JUMP JUMPDEST DUP7 SLOAD SWAP1 SWAP2 POP PUSH1 0x1 PUSH1 0x1 PUSH1 0x50 SHL SUB AND PUSH1 0x0 PUSH2 0x21B2 DUP3 DUP5 PUSH2 0x2706 JUMP JUMPDEST SWAP1 POP PUSH2 0x21C0 PUSH2 0x1271 DUP3 PUSH2 0xC77 JUMP JUMPDEST DUP9 SLOAD PUSH1 0x1 PUSH1 0x1 PUSH1 0x50 SHL SUB NOT AND PUSH1 0x1 PUSH1 0x1 PUSH1 0x50 SHL SUB SWAP2 SWAP1 SWAP2 AND OR DUP9 SSTORE PUSH2 0x21E9 DUP8 DUP8 PUSH2 0x1996 DUP8 PUSH2 0x9DB JUMP JUMPDEST POP POP POP POP POP POP POP POP JUMP JUMPDEST PUSH1 0x0 PUSH2 0x2200 DUP4 PUSH1 0x40 PUSH2 0x778 JUMP JUMPDEST ISZERO PUSH2 0x229A JUMPI DUP3 MLOAD PUSH1 0x60 DUP6 ADD MLOAD PUSH1 0x40 DUP1 DUP8 ADD MLOAD DUP9 MLOAD SWAP2 MLOAD PUSH4 0x1DE7E963 PUSH1 0xE2 SHL DUP2 MSTORE PUSH1 0x1 PUSH1 0x1 PUSH1 0xA0 SHL SUB SWAP1 SWAP5 AND SWAP4 PUSH4 0x779FA58C SWAP4 PUSH2 0x2241 SWAP4 SWAP1 SWAP3 SWAP2 PUSH1 0x4 ADD PUSH2 0x5D4A JUMP JUMPDEST PUSH1 0x20 PUSH1 0x40 MLOAD DUP1 DUP4 SUB DUP2 PUSH1 0x0 DUP8 DUP1 EXTCODESIZE ISZERO DUP1 ISZERO PUSH2 0x225B JUMPI PUSH1 0x0 DUP1 REVERT JUMPDEST POP GAS CALL ISZERO DUP1 ISZERO PUSH2 0x226F JUMPI RETURNDATASIZE PUSH1 0x0 DUP1 RETURNDATACOPY RETURNDATASIZE PUSH1 0x0 REVERT JUMPDEST POP POP POP POP PUSH1 0x40 MLOAD RETURNDATASIZE PUSH1 0x1F NOT PUSH1 0x1F DUP3 ADD AND DUP3 ADD DUP1 PUSH1 0x40 MSTORE POP DUP2 ADD SWAP1 PUSH2 0x2293 SWAP2 SWAP1 PUSH2 0x5BCC JUMP JUMPDEST SWAP1 POP PUSH2 0x22A1 JUMP JUMPDEST POP PUSH1 0x40 DUP4 ADD MLOAD JUMPDEST PUSH2 0x22B1 DUP6 DUP6 DUP6 DUP8 PUSH1 0x40 ADD MLOAD PUSH2 0x930 JUMP JUMPDEST PUSH1 0x40 DUP5 ADD DUP2 SWAP1 MSTORE DUP2 SLOAD PUSH2 0x22D8 SWAP1 PUSH2 0x1271 SWAP1 PUSH1 0x1 PUSH1 0xA0 SHL SWAP1 DIV PUSH1 0x1 PUSH1 0x1 PUSH1 0x50 SHL SUB AND DUP4 PUSH2 0xE93 JUMP JUMPDEST DUP3 SLOAD PUSH1 0x1 PUSH1 0x1 PUSH1 0x50 SHL SUB SWAP2 SWAP1 SWAP2 AND PUSH1 0x1 PUSH1 0xA0 SHL MUL PUSH1 0x1 PUSH1 0xA0 SHL PUSH1 0x1 PUSH1 0xF0 SHL SUB NOT SWAP1 SWAP2 AND OR SWAP1 SWAP2 SSTORE POP POP POP POP JUMP JUMPDEST PUSH2 0x140 DUP2 ADD MLOAD MLOAD PUSH1 0x0 SWAP1 PUSH2 0xFFFF AND ISZERO ISZERO DUP1 PUSH2 0x9E9 JUMPI POP POP PUSH2 0x140 ADD MLOAD PUSH1 0x20 ADD MLOAD PUSH2 0xFFFF AND ISZERO ISZERO SWAP1 JUMP JUMPDEST PUSH1 0x0 DUP1 PUSH1 0x0 PUSH2 0x233D DUP8 DUP8 PUSH2 0x3C9E JUMP JUMPDEST SWAP2 POP SWAP2 POP DUP1 PUSH2 0x234B JUMPI PUSH1 0x0 DUP1 REVERT JUMPDEST PUSH2 0x2355 DUP3 DUP7 PUSH2 0x3D31 JUMP JUMPDEST SWAP3 POP PUSH1 0x1 PUSH1 0x1 PUSH1 0xA0 SHL SUB DUP5 AND ISZERO PUSH2 0x1B8B JUMPI PUSH2 0x1B8B DUP5 DUP9 DUP9 DUP9 DUP8 PUSH2 0x3D8D JUMP JUMPDEST DUP1 PUSH1 0x0 DUP1 DUP5 SGT ISZERO PUSH2 0x2431 JUMPI PUSH1 0x0 PUSH2 0x2397 PUSH2 0x2390 PUSH2 0x88A DUP12 DUP9 PUSH2 0x1D27 JUMP JUMPDEST DUP11 SWAP1 PUSH2 0x3D31 JUMP JUMPDEST SWAP1 POP PUSH1 0x0 DUP5 DUP3 SLT ISZERO PUSH2 0x23D1 JUMPI POP PUSH1 0x0 SWAP3 POP DUP4 PUSH2 0x23CA PUSH2 0x23C3 PUSH2 0x88A PUSH2 0x23BC DUP6 DUP6 PUSH2 0x2706 JUMP JUMPDEST DUP14 SWAP1 PUSH2 0x243C JUMP JUMPDEST DUP12 SWAP1 PUSH2 0x150D JUMP JUMPDEST SWAP3 POP PUSH2 0x23E0 JUMP JUMPDEST POP DUP1 PUSH2 0x23DD DUP6 DUP3 PUSH2 0x2706 JUMP JUMPDEST SWAP4 POP JUMPDEST PUSH2 0x23EC DUP11 DUP9 DUP11 DUP5 PUSH2 0x2B69 JUMP JUMPDEST DUP9 SLOAD PUSH1 0x1 PUSH1 0x1 PUSH1 0x50 SHL SUB AND PUSH1 0x0 PUSH2 0x2403 DUP3 DUP5 PUSH2 0x1684 JUMP JUMPDEST SWAP1 POP PUSH2 0x2411 PUSH2 0x1271 DUP3 PUSH2 0xC77 JUMP JUMPDEST DUP12 SLOAD PUSH1 0x1 PUSH1 0x1 PUSH1 0x50 SHL SUB NOT AND PUSH1 0x1 PUSH1 0x1 PUSH1 0x50 SHL SUB SWAP2 SWAP1 SWAP2 AND OR DUP12 SSTORE POP POP POP POP JUMPDEST SWAP7 POP SWAP7 SWAP5 POP POP POP POP POP JUMP JUMPDEST PUSH1 0x0 PUSH1 0x1 DUP3 SLT PUSH2 0x244B JUMPI PUSH1 0x0 DUP1 REVERT JUMPDEST DUP2 PUSH2 0x2458 JUMPI POP PUSH1 0x0 PUSH2 0x789 JUMP JUMPDEST PUSH2 0xEA5 PUSH1 0x1 PUSH2 0x2487 PUSH15 0xC097CE7BC90715B34B9F1000000000 PUSH2 0x152F DUP8 PUSH1 0x20 ADD MLOAD DUP8 PUSH2 0x1636 SWAP1 SWAP2 SWAP1 PUSH4 0xFFFFFFFF AND JUMP JUMPDEST SWAP1 PUSH2 0x2706 JUMP JUMPDEST DUP1 PUSH2 0x2497 JUMPI PUSH2 0x12BB JUMP JUMPDEST PUSH1 0x0 PUSH2 0x24A6 DUP6 DUP6 DUP6 PUSH1 0xB PUSH2 0x3E60 JUMP JUMPDEST SWAP1 POP PUSH1 0x0 DUP1 PUSH1 0x0 DUP5 SLT ISZERO PUSH2 0x24BF JUMPI POP DUP7 SWAP1 POP PUSH1 0x0 PUSH2 0x24C6 JUMP JUMPDEST POP PUSH1 0x0 SWAP1 POP DUP7 JUMPDEST PUSH1 0x0 PUSH2 0x24D1 DUP6 PUSH2 0x1C4B JUMP JUMPDEST SWAP1 POP DUP2 PUSH1 0x1 PUSH1 0x1 PUSH1 0xA0 SHL SUB AND DUP4 PUSH1 0x1 PUSH1 0x1 PUSH1 0xA0 SHL SUB AND CALLER PUSH1 0x1 PUSH1 0x1 PUSH1 0xA0 SHL SUB AND PUSH1 0x0 DUP1 MLOAD PUSH1 0x20 PUSH2 0x5F43 DUP4 CODECOPY DUP2 MLOAD SWAP2 MSTORE DUP8 DUP6 PUSH1 0x40 MLOAD PUSH2 0x2510 SWAP3 SWAP2 SWAP1 PUSH2 0x5E8D JUMP JUMPDEST PUSH1 0x40 MLOAD DUP1 SWAP2 SUB SWAP1 LOG4 POP POP POP POP POP POP POP POP POP JUMP JUMPDEST PUSH1 0x0 DUP1 PUSH2 0x789 PUSH1 0x14 PUSH2 0x2626 JUMP JUMPDEST PUSH1 0x0 DUP3 PUSH2 0x253F JUMPI POP PUSH1 0x0 PUSH2 0x789 JUMP JUMPDEST DUP3 DUP3 MUL DUP3 DUP5 DUP3 DUP2 PUSH2 0x254C JUMPI INVALID JUMPDEST DIV EQ PUSH2 0xEA5 JUMPI PUSH1 0x0 DUP1 REVERT JUMPDEST PUSH1 0x8 DUP2 SWAP1 SHR PUSH1 0xFF SWAP1 SWAP2 AND SHL SWAP1 JUMP JUMPDEST PUSH2 0x256D PUSH2 0x5624 JUMP JUMPDEST PUSH1 0x0 PUSH2 0x2578 DUP5 PUSH2 0x3E96 JUMP JUMPDEST SWAP1 POP DUP3 DUP2 PUSH1 0x0 ADD MLOAD LT ISZERO PUSH2 0x25B7 JUMPI PUSH1 0x0 DUP1 PUSH2 0x2592 DUP7 PUSH2 0x3F5E JUMP JUMPDEST SWAP1 POP PUSH2 0x25A0 DUP7 DUP5 DUP4 DUP9 PUSH2 0x3FDB JUMP JUMPDEST SWAP1 SWAP4 POP SWAP2 POP PUSH2 0x25B0 DUP7 DUP4 DUP6 PUSH2 0x407F JUMP JUMPDEST POP POP PUSH2 0x25C4 JUMP JUMPDEST DUP1 MLOAD DUP4 EQ PUSH2 0x25C4 JUMPI PUSH1 0x0 DUP1 REVERT JUMPDEST PUSH1 0x40 MLOAD DUP1 PUSH1 0x60 ADD PUSH1 0x40 MSTORE DUP1 PUSH2 0x25ED PUSH2 0x1A7D DUP5 PUSH1 0xA0 ADD MLOAD DUP6 PUSH1 0xC0 ADD MLOAD PUSH2 0x2530 SWAP1 SWAP2 SWAP1 PUSH4 0xFFFFFFFF AND JUMP JUMPDEST DUP2 MSTORE PUSH1 0x20 ADD PUSH2 0x2610 PUSH2 0x1A7D DUP5 PUSH1 0xA0 ADD MLOAD DUP6 PUSH1 0xE0 ADD MLOAD PUSH2 0x2530 SWAP1 SWAP2 SWAP1 PUSH4 0xFFFFFFFF AND JUMP JUMPDEST DUP2 MSTORE PUSH1 0x20 ADD DUP3 PUSH1 0x60 ADD MLOAD DUP2 MSTORE POP SWAP2 POP POP SWAP3 SWAP2 POP POP JUMP JUMPDEST PUSH1 0x0 PUSH3 0xF4240 DUP3 PUSH1 0x26 DUP2 GT ISZERO PUSH2 0x2638 JUMPI INVALID JUMPDEST ADD SWAP3 SWAP2 POP POP JUMP JUMPDEST PUSH1 0x0 DUP2 PUSH1 0x0 NOT EQ DUP1 ISZERO PUSH2 0x2655 JUMPI POP PUSH1 0x1 PUSH1 0xFF SHL DUP4 EQ JUMPDEST ISZERO PUSH2 0x265F JUMPI PUSH1 0x0 DUP1 REVERT JUMPDEST DUP2 DUP4 DUP2 PUSH2 0x2668 JUMPI INVALID JUMPDEST SDIV SWAP4 SWAP3 POP POP POP JUMP JUMPDEST PUSH1 0x0 DUP1 PUSH5 0xFFFFFFFFFF DUP5 EQ ISZERO PUSH2 0x26C2 JUMPI PUSH1 0x20 DUP7 ADD MLOAD PUSH5 0xFFFFFFFFFF EQ PUSH2 0x269A JUMPI PUSH1 0x0 SWAP2 POP POP PUSH2 0xD70 JUMP JUMPDEST PUSH2 0x26B4 PUSH2 0x1A7D DUP8 PUSH1 0xA0 ADD MLOAD DUP6 PUSH2 0x160B SWAP1 SWAP2 SWAP1 PUSH4 0xFFFFFFFF AND JUMP JUMPDEST PUSH1 0xA0 DUP8 ADD DUP5 SWAP1 MSTORE SWAP1 POP PUSH2 0x26D2 JUMP JUMPDEST PUSH2 0x26CF PUSH2 0x1A7D DUP6 DUP6 PUSH2 0x160B JUMP JUMPDEST SWAP1 POP JUMPDEST PUSH1 0x80 DUP8 ADD MLOAD PUSH1 0x0 SWAP1 PUSH2 0x26EE SWAP1 PUSH4 0x1DA9C00 SWAP1 PUSH2 0x152F SWAP1 DUP6 PUSH2 0x1636 JUMP JUMPDEST SWAP1 POP PUSH2 0x26FA DUP7 DUP3 PUSH2 0x42B0 JUMP JUMPDEST SWAP9 SWAP8 POP POP POP POP POP POP POP POP JUMP JUMPDEST DUP1 DUP3 SUB DUP3 DUP2 SGT ISZERO PUSH1 0x0 DUP4 SLT ISZERO EQ PUSH2 0x789 JUMPI PUSH1 0x0 DUP1 REVERT JUMPDEST PUSH1 0x0 DUP2 SLT ISZERO PUSH2 0x272A JUMPI PUSH1 0x0 DUP1 REVERT JUMPDEST PUSH1 0x0 PUSH2 0x2738 PUSH2 0xFEE DUP5 PUSH2 0x42C9 JUMP JUMPDEST SWAP1 POP PUSH2 0x2744 DUP2 DUP4 PUSH2 0x1684 JUMP JUMPDEST SWAP1 POP PUSH2 0x773 PUSH2 0xFEE DUP5 DUP4 PUSH2 0x4322 JUMP JUMPDEST PUSH1 0x0 DUP2 SLT ISZERO PUSH2 0x2761 JUMPI PUSH1 0x0 DUP1 REVERT JUMPDEST PUSH1 0x0 PUSH2 0x2770 DUP4 PUSH2 0xFFFF AND PUSH2 0x4396 JUMP JUMPDEST SWAP1 POP PUSH1 0x0 PUSH2 0x277E DUP3 DUP6 PUSH2 0x42C9 JUMP JUMPDEST SWAP1 POP PUSH2 0x278A DUP2 DUP5 PUSH2 0x1684 JUMP JUMPDEST SWAP1 POP PUSH2 0xB72 DUP3 DUP6 DUP4 PUSH2 0x4322 JUMP JUMPDEST PUSH1 0x0 DUP1 DUP3 SLT ISZERO PUSH2 0x27CA JUMPI PUSH2 0x27C5 PUSH1 0x1 PUSH2 0x2487 DUP6 PUSH1 0x20 ADD MLOAD PUSH2 0x152F DUP8 PUSH1 0x0 ADD MLOAD DUP8 PUSH2 0x1636 SWAP1 SWAP2 SWAP1 PUSH4 0xFFFFFFFF AND JUMP JUMPDEST PUSH2 0xEA5 JUMP JUMPDEST POP SWAP2 SWAP1 POP JUMP JUMPDEST PUSH1 0x0 PUSH2 0x27DA PUSH2 0x1C3E JUMP JUMPDEST PUSH2 0xFFFF DUP6 AND PUSH1 0x0 SWAP1 DUP2 MSTORE PUSH1 0x20 SWAP2 SWAP1 SWAP2 MSTORE PUSH1 0x40 DUP2 KECCAK256 SLOAD PUSH1 0x1 PUSH1 0x1 PUSH1 0xA0 SHL SUB AND SWAP2 POP PUSH2 0x2802 PUSH2 0x43BC JUMP JUMPDEST PUSH2 0xFFFF DUP7 AND PUSH1 0x0 SWAP1 DUP2 MSTORE PUSH1 0x20 SWAP2 SWAP1 SWAP2 MSTORE PUSH1 0x40 SWAP1 DUP2 SWAP1 KECCAK256 SLOAD SWAP1 MLOAD PUSH4 0xAD1C095D PUSH1 0xE0 SHL DUP2 MSTORE PUSH1 0x1 PUSH1 0x1 PUSH1 0xA0 SHL SUB SWAP1 SWAP2 AND SWAP2 POP DUP2 SWAP1 PUSH4 0xAD1C095D SWAP1 PUSH2 0x284A SWAP1 DUP10 SWAP1 DUP8 SWAP1 PUSH1 0x4 ADD PUSH2 0x5D31 JUMP JUMPDEST PUSH1 0x0 PUSH1 0x40 MLOAD DUP1 DUP4 SUB DUP2 PUSH1 0x0 DUP8 DUP1 EXTCODESIZE ISZERO DUP1 ISZERO PUSH2 0x2864 JUMPI PUSH1 0x0 DUP1 REVERT JUMPDEST POP GAS CALL ISZERO DUP1 ISZERO PUSH2 0x2878 JUMPI RETURNDATASIZE PUSH1 0x0 DUP1 RETURNDATACOPY RETURNDATASIZE PUSH1 0x0 REVERT JUMPDEST POP POP PUSH1 0x40 MLOAD PUSH4 0xAD1C095D PUSH1 0xE0 SHL DUP2 MSTORE PUSH1 0x1 PUSH1 0x1 PUSH1 0xA0 SHL SUB DUP6 AND SWAP3 POP PUSH4 0xAD1C095D SWAP2 POP PUSH2 0x28AA SWAP1 DUP10 SWAP1 DUP9 SWAP1 PUSH1 0x4 ADD PUSH2 0x5D31 JUMP JUMPDEST PUSH1 0x0 PUSH1 0x40 MLOAD DUP1 DUP4 SUB DUP2 PUSH1 0x0 DUP8 DUP1 EXTCODESIZE ISZERO DUP1 ISZERO PUSH2 0x28C4 JUMPI PUSH1 0x0 DUP1 REVERT JUMPDEST POP GAS CALL ISZERO DUP1 ISZERO PUSH2 0x28D8 JUMPI RETURNDATASIZE PUSH1 0x0 DUP1 RETURNDATACOPY RETURNDATASIZE PUSH1 0x0 REVERT JUMPDEST POP POP POP POP POP POP POP POP POP POP JUMP JUMPDEST PUSH1 0x0 PUSH2 0x28EE PUSH2 0x1C3E JUMP JUMPDEST PUSH2 0xFFFF DUP6 AND PUSH1 0x0 SWAP1 DUP2 MSTORE PUSH1 0x20 SWAP2 SWAP1 SWAP2 MSTORE PUSH1 0x40 DUP2 KECCAK256 SLOAD PUSH1 0x1 PUSH1 0x1 PUSH1 0xA0 SHL SUB AND SWAP2 POP PUSH2 0x2916 PUSH2 0x43C9 JUMP JUMPDEST PUSH2 0xFFFF DUP7 AND PUSH1 0x0 SWAP1 DUP2 MSTORE PUSH1 0x20 SWAP2 SWAP1 SWAP2 MSTORE PUSH1 0x40 SWAP1 KECCAK256 SLOAD PUSH1 0x1 PUSH1 0x1 PUSH1 0xA0 SHL SUB SWAP1 DUP2 AND SWAP2 POP DUP3 AND PUSH4 0x23DE6651 DUP8 PUSH2 0xFEE PUSH2 0x294C DUP8 PUSH2 0xC77 JUMP JUMPDEST PUSH1 0x40 MLOAD DUP5 PUSH4 0xFFFFFFFF AND PUSH1 0xE0 SHL DUP2 MSTORE PUSH1 0x4 ADD PUSH2 0x296A SWAP4 SWAP3 SWAP2 SWAP1 PUSH2 0x5C99 JUMP JUMPDEST PUSH1 0x0 PUSH1 0x40 MLOAD DUP1 DUP4 SUB DUP2 PUSH1 0x0 DUP8 DUP1 EXTCODESIZE ISZERO DUP1 ISZERO PUSH2 0x2984 JUMPI PUSH1 0x0 DUP1 REVERT JUMPDEST POP GAS CALL ISZERO DUP1 ISZERO PUSH2 0x2998 JUMPI RETURNDATASIZE PUSH1 0x0 DUP1 RETURNDATACOPY RETURNDATASIZE PUSH1 0x0 REVERT JUMPDEST POP POP POP POP DUP2 PUSH1 0x1 PUSH1 0x1 PUSH1 0xA0 SHL SUB AND PUSH4 0x23DE6651 DUP8 DUP4 PUSH2 0x29B6 DUP9 PUSH2 0xC77 JUMP JUMPDEST PUSH1 0x40 MLOAD DUP5 PUSH4 0xFFFFFFFF AND PUSH1 0xE0 SHL DUP2 MSTORE PUSH1 0x4 ADD PUSH2 0x28AA SWAP4 SWAP3 SWAP2 SWAP1 PUSH2 0x5C99 JUMP JUMPDEST PUSH1 0x0 DUP1 PUSH2 0x789 PUSH1 0x20 PUSH2 0x2626 JUMP JUMPDEST PUSH1 0x0 DUP1 PUSH2 0x29EF DUP6 DUP6 DUP6 PUSH2 0x43D6 JUMP JUMPDEST SWAP2 POP SWAP2 POP PUSH1 0x0 DUP1 PUSH1 0x0 DUP6 SLT ISZERO PUSH2 0x2A07 JUMPI DUP8 SWAP2 POP PUSH2 0x2A0A JUMP JUMPDEST POP DUP7 JUMPDEST DUP1 PUSH1 0x1 PUSH1 0x1 PUSH1 0xA0 SHL SUB AND DUP3 PUSH1 0x1 PUSH1 0x1 PUSH1 0xA0 SHL SUB AND CALLER PUSH1 0x1 PUSH1 0x1 PUSH1 0xA0 SHL SUB AND PUSH1 0x0 DUP1 MLOAD PUSH1 0x20 PUSH2 0x5F23 DUP4 CODECOPY DUP2 MLOAD SWAP2 MSTORE DUP8 DUP8 PUSH1 0x40 MLOAD PUSH2 0x2A47 SWAP3 SWAP2 SWAP1 PUSH2 0x5DA4 JUMP JUMPDEST PUSH1 0x40 MLOAD DUP1 SWAP2 SUB SWAP1 LOG4 POP POP POP POP POP POP POP POP JUMP JUMPDEST DUP1 PUSH2 0x2A63 JUMPI PUSH2 0x12BB JUMP JUMPDEST PUSH1 0x0 PUSH2 0x2A6F DUP5 DUP5 PUSH2 0x44BB JUMP JUMPDEST SWAP1 POP PUSH1 0x0 DUP3 SLT ISZERO PUSH2 0x2A7E JUMPI SWAP4 SWAP5 SWAP4 JUMPDEST PUSH1 0x1 PUSH1 0x1 PUSH1 0xA0 SHL SUB DUP1 DUP7 AND SWAP1 DUP8 AND CALLER PUSH1 0x0 DUP1 MLOAD PUSH1 0x20 PUSH2 0x5F43 DUP4 CODECOPY DUP2 MLOAD SWAP2 MSTORE DUP5 PUSH2 0x2AA6 DUP8 PUSH2 0x1C4B JUMP JUMPDEST PUSH1 0x40 MLOAD PUSH2 0x2AB4 SWAP3 SWAP2 SWAP1 PUSH2 0x5E8D JUMP JUMPDEST PUSH1 0x40 MLOAD DUP1 SWAP2 SUB SWAP1 LOG4 POP POP POP POP POP POP JUMP JUMPDEST PUSH1 0x0 PUSH5 0xFFFFFFFFFF DUP4 EQ PUSH2 0x2AD8 JUMPI DUP2 PUSH2 0x1505 JUMP JUMPDEST PUSH2 0x1505 DUP5 DUP4 PUSH2 0x3D31 JUMP JUMPDEST PUSH1 0x0 DUP2 DUP4 EQ DUP1 PUSH2 0x2AFF JUMPI POP PUSH1 0x0 DUP4 SLT ISZERO DUP1 ISZERO PUSH2 0x2AFF JUMPI POP PUSH1 0x0 DUP3 SLT ISZERO JUMPDEST ISZERO PUSH2 0x2B0C JUMPI POP PUSH1 0x0 PUSH2 0x789 JUMP JUMPDEST PUSH1 0x0 DUP4 SGT ISZERO DUP1 ISZERO PUSH2 0x2B1D JUMPI POP DUP2 PUSH1 0x0 SLT JUMPDEST ISZERO PUSH2 0x2B29 JUMPI POP DUP2 PUSH2 0x789 JUMP JUMPDEST PUSH1 0x0 DUP3 SGT ISZERO DUP1 ISZERO PUSH2 0x2B3A JUMPI POP DUP3 PUSH1 0x0 SLT JUMPDEST ISZERO PUSH2 0x2B48 JUMPI PUSH2 0x1D7A DUP3 PUSH2 0x9DB JUMP JUMPDEST PUSH1 0x0 DUP4 SGT ISZERO DUP1 ISZERO PUSH2 0x2B5A JUMPI POP PUSH1 0x0 DUP3 SGT ISZERO JUMPDEST ISZERO PUSH2 0x7B JUMPI PUSH2 0x1D7A DUP4 DUP4 PUSH2 0x2706 JUMP JUMPDEST DUP1 ISZERO PUSH2 0xB72 JUMPI DUP4 MLOAD PUSH1 0x20 DUP6 ADD MLOAD PUSH1 0x0 SWAP2 PUSH2 0x2B88 SWAP2 PUSH2 0x152F SWAP1 DUP6 SWAP1 PUSH2 0x1636 JUMP JUMPDEST SWAP1 POP PUSH2 0x12BB DUP5 DUP5 DUP5 DUP5 PUSH2 0x44D9 JUMP JUMPDEST PUSH1 0x0 PUSH2 0x2BA2 DUP4 DUP4 PUSH2 0x2AE2 JUMP JUMPDEST SWAP1 POP DUP1 PUSH2 0x2BAF JUMPI POP PUSH2 0x12BB JUMP JUMPDEST PUSH1 0x0 PUSH2 0x2BB9 PUSH2 0x29D4 JUMP JUMPDEST PUSH2 0xFFFF DUP8 AND PUSH1 0x0 SWAP1 DUP2 MSTORE PUSH1 0x20 DUP3 DUP2 MSTORE PUSH1 0x40 DUP1 DUP4 KECCAK256 DUP10 DUP5 MSTORE SWAP1 SWAP2 MSTORE DUP2 KECCAK256 SLOAD SWAP2 SWAP3 POP PUSH1 0x1 PUSH1 0x1 PUSH1 0x50 SHL SUB SWAP1 SWAP2 AND DUP2 SUB SWAP1 PUSH2 0x2BF1 DUP3 DUP6 PUSH2 0x2706 JUMP JUMPDEST SWAP1 POP PUSH1 0x0 DUP2 SGT ISZERO PUSH2 0x2C01 JUMPI PUSH1 0x0 DUP1 REVERT JUMPDEST PUSH2 0x2C10 PUSH2 0x1271 PUSH2 0x3B1 DUP4 PUSH2 0x9DB JUMP JUMPDEST PUSH2 0xFFFF DUP10 AND PUSH1 0x0 SWAP1 DUP2 MSTORE PUSH1 0x20 DUP6 DUP2 MSTORE PUSH1 0x40 DUP1 DUP4 KECCAK256 DUP12 DUP5 MSTORE SWAP1 SWAP2 MSTORE SWAP1 KECCAK256 DUP1 SLOAD PUSH1 0x1 PUSH1 0x1 PUSH1 0x50 SHL SUB NOT AND PUSH1 0x1 PUSH1 0x1 PUSH1 0x50 SHL SUB SWAP3 SWAP1 SWAP3 AND SWAP2 SWAP1 SWAP2 OR SWAP1 SSTORE PUSH2 0xD3B DUP10 DUP10 DUP10 DUP8 PUSH2 0x29E1 JUMP JUMPDEST PUSH1 0x0 PUSH2 0x2C60 PUSH2 0x4616 JUMP JUMPDEST PUSH1 0x1 PUSH1 0x1 PUSH1 0xA0 SHL SUB DUP6 AND PUSH1 0x0 SWAP1 DUP2 MSTORE PUSH1 0x20 SWAP2 DUP3 MSTORE PUSH1 0x40 DUP1 DUP3 KECCAK256 PUSH2 0xFFFF DUP8 AND DUP4 MSTORE SWAP1 SWAP3 MSTORE SWAP1 DUP2 KECCAK256 DUP1 SLOAD SWAP1 SWAP3 POP PUSH2 0x2CA5 SWAP1 PUSH1 0x1 PUSH1 0x50 SHL SWAP1 DIV PUSH1 0x1 PUSH1 0x1 PUSH1 0x50 SHL SUB AND DUP5 PUSH2 0x2706 JUMP JUMPDEST SWAP1 POP PUSH2 0x2CB3 PUSH2 0x1271 DUP3 PUSH2 0xC77 JUMP JUMPDEST DUP3 SLOAD PUSH1 0x1 PUSH1 0x1 PUSH1 0x50 SHL SUB SWAP2 SWAP1 SWAP2 AND PUSH1 0x1 PUSH1 0x50 SHL MUL PUSH10 0xFFFFFFFFFFFFFFFFFFFF PUSH1 0x50 SHL NOT SWAP1 SWAP2 AND OR DUP3 SSTORE PUSH1 0x40 MLOAD PUSH2 0xFFFF DUP6 AND SWAP1 PUSH1 0x1 PUSH1 0x1 PUSH1 0xA0 SHL SUB DUP8 AND SWAP1 PUSH32 0x20478EF460E49D010960D4F3FFF35D8DAE385443ABFAC09035D6A2CCBCD834C4 SWAP1 PUSH2 0x2D1D SWAP1 DUP6 SWAP1 PUSH2 0x5E84 JUMP JUMPDEST PUSH1 0x40 MLOAD DUP1 SWAP2 SUB SWAP1 LOG3 POP POP POP POP POP JUMP JUMPDEST PUSH1 0x0 DUP1 DUP5 PUSH1 0x40 ADD MLOAD PUSH2 0xFFFF AND DUP4 PUSH2 0xFFFF AND EQ ISZERO PUSH2 0x2D78 JUMPI PUSH2 0x2D4B PUSH2 0x15FE JUMP JUMPDEST DUP6 MLOAD PUSH1 0x1 PUSH1 0x1 PUSH1 0xA0 SHL SUB AND PUSH1 0x0 SWAP1 DUP2 MSTORE PUSH1 0x20 SWAP2 DUP3 MSTORE PUSH1 0x40 DUP1 DUP3 KECCAK256 PUSH5 0xFFFFFFFFFF DUP4 MSTORE SWAP1 SWAP3 MSTORE KECCAK256 SWAP1 POP PUSH2 0x2DB5 JUMP JUMPDEST PUSH2 0x2D80 PUSH2 0x4623 JUMP JUMPDEST DUP6 MLOAD PUSH1 0x1 PUSH1 0x1 PUSH1 0xA0 SHL SUB AND PUSH1 0x0 SWAP1 DUP2 MSTORE PUSH1 0x20 SWAP2 DUP3 MSTORE PUSH1 0x40 DUP1 DUP3 KECCAK256 PUSH5 0xFFFFFFFFFF DUP4 MSTORE DUP4 MSTORE DUP1 DUP3 KECCAK256 PUSH2 0xFFFF DUP8 AND DUP4 MSTORE SWAP1 SWAP3 MSTORE KECCAK256 SWAP1 POP JUMPDEST DUP1 SLOAD PUSH2 0xD70 SWAP1 DUP6 SWAP1 PUSH5 0xFFFFFFFFFF SWAP1 PUSH1 0x1 PUSH1 0x1 PUSH1 0x50 SHL SUB AND PUSH2 0x14CF JUMP JUMPDEST PUSH1 0x0 PUSH2 0x2DDC PUSH2 0x4616 JUMP JUMPDEST PUSH1 0x1 PUSH1 0x1 PUSH1 0xA0 SHL SUB DUP6 AND PUSH1 0x0 SWAP1 DUP2 MSTORE PUSH1 0x20 SWAP2 DUP3 MSTORE PUSH1 0x40 DUP1 DUP3 KECCAK256 PUSH2 0xFFFF DUP8 AND DUP4 MSTORE SWAP1 SWAP3 MSTORE SWAP1 DUP2 KECCAK256 DUP1 SLOAD SWAP1 SWAP3 POP PUSH2 0x2E21 SWAP1 PUSH1 0x1 PUSH1 0x50 SHL SWAP1 DIV PUSH1 0x1 PUSH1 0x1 PUSH1 0x50 SHL SUB AND DUP5 PUSH2 0x2706 JUMP JUMPDEST DUP3 SLOAD SWAP1 SWAP2 POP PUSH1 0x1 PUSH1 0x1 PUSH1 0x50 SHL SUB AND DUP2 SGT ISZERO PUSH2 0x12BB JUMPI PUSH1 0x40 MLOAD PUSH3 0x461BCD PUSH1 0xE5 SHL DUP2 MSTORE PUSH1 0x4 ADD PUSH2 0x1A5A SWAP1 PUSH2 0x5E15 JUMP JUMPDEST DUP1 ISZERO PUSH2 0x2EDB JUMPI PUSH20 0x4B9C40DF01BDC99DD2C31AE4B232F20F4BBAC5B PUSH1 0x1 PUSH1 0x1 PUSH1 0xA0 SHL SUB AND PUSH4 0xD0E30DB0 DUP4 PUSH1 0x40 MLOAD DUP3 PUSH4 0xFFFFFFFF AND PUSH1 0xE0 SHL DUP2 MSTORE PUSH1 0x4 ADD PUSH1 0x0 PUSH1 0x40 MLOAD DUP1 DUP4 SUB DUP2 DUP6 DUP9 DUP1 EXTCODESIZE ISZERO DUP1 ISZERO PUSH2 0x2EA3 JUMPI PUSH1 0x0 DUP1 REVERT JUMPDEST POP GAS CALL ISZERO DUP1 ISZERO PUSH2 0x2EB7 JUMPI RETURNDATASIZE PUSH1 0x0 DUP1 RETURNDATACOPY RETURNDATASIZE PUSH1 0x0 REVERT JUMPDEST POP POP POP POP POP PUSH2 0x759 PUSH20 0x4B9C40DF01BDC99DD2C31AE4B232F20F4BBAC5B DUP5 DUP5 PUSH2 0x33BB JUMP JUMPDEST PUSH1 0x40 MLOAD PUSH1 0x1 PUSH1 0x1 PUSH1 0xA0 SHL SUB DUP5 AND SWAP1 DUP4 ISZERO PUSH2 0x8FC MUL SWAP1 DUP5 SWAP1 PUSH1 0x0 DUP2 DUP2 DUP2 DUP6 DUP9 DUP9 CALL SWAP4 POP POP POP POP ISZERO DUP1 ISZERO PUSH2 0xB72 JUMPI RETURNDATASIZE PUSH1 0x0 DUP1 RETURNDATACOPY RETURNDATASIZE PUSH1 0x0 REVERT JUMPDEST PUSH1 0x0 DUP1 DUP5 PUSH1 0x1 PUSH1 0x1 PUSH1 0xA0 SHL SUB AND PUSH4 0x70A08231 ADDRESS PUSH1 0x40 MLOAD DUP3 PUSH4 0xFFFFFFFF AND PUSH1 0xE0 SHL DUP2 MSTORE PUSH1 0x4 ADD DUP1 DUP3 PUSH1 0x1 PUSH1 0x1 PUSH1 0xA0 SHL SUB AND DUP2 MSTORE PUSH1 0x20 ADD SWAP2 POP POP PUSH1 0x20 PUSH1 0x40 MLOAD DUP1 DUP4 SUB DUP2 DUP7 DUP1 EXTCODESIZE ISZERO DUP1 ISZERO PUSH2 0x2F61 JUMPI PUSH1 0x0 DUP1 REVERT JUMPDEST POP GAS STATICCALL ISZERO DUP1 ISZERO PUSH2 0x2F75 JUMPI RETURNDATASIZE PUSH1 0x0 DUP1 RETURNDATACOPY RETURNDATASIZE PUSH1 0x0 REVERT JUMPDEST POP POP POP POP PUSH1 0x40 MLOAD RETURNDATASIZE PUSH1 0x20 DUP2 LT ISZERO PUSH2 0x2F8B JUMPI PUSH1 0x0 DUP1 REVERT JUMPDEST POP MLOAD PUSH1 0x40 DUP1 MLOAD PUSH4 0x23B872DD PUSH1 0xE0 SHL DUP2 MSTORE PUSH1 0x1 PUSH1 0x1 PUSH1 0xA0 SHL SUB DUP8 DUP2 AND PUSH1 0x4 DUP4 ADD MSTORE ADDRESS PUSH1 0x24 DUP4 ADD MSTORE PUSH1 0x44 DUP3 ADD DUP8 SWAP1 MSTORE SWAP2 MLOAD SWAP3 SWAP4 POP SWAP1 DUP8 AND SWAP2 PUSH4 0x23B872DD SWAP2 PUSH1 0x64 DUP1 DUP3 ADD SWAP3 PUSH1 0x0 SWAP3 SWAP1 SWAP2 SWAP1 DUP3 SWAP1 SUB ADD DUP2 DUP4 DUP8 DUP1 EXTCODESIZE ISZERO DUP1 ISZERO PUSH2 0x2FE8 JUMPI PUSH1 0x0 DUP1 REVERT JUMPDEST POP GAS CALL ISZERO DUP1 ISZERO PUSH2 0x2FFC JUMPI RETURNDATASIZE PUSH1 0x0 DUP1 RETURNDATACOPY RETURNDATASIZE PUSH1 0x0 REVERT JUMPDEST POP POP POP POP PUSH2 0x3008 PUSH2 0x4630 JUMP JUMPDEST PUSH1 0x0 DUP6 PUSH1 0x1 PUSH1 0x1 PUSH1 0xA0 SHL SUB AND PUSH4 0x70A08231 ADDRESS PUSH1 0x40 MLOAD DUP3 PUSH4 0xFFFFFFFF AND PUSH1 0xE0 SHL DUP2 MSTORE PUSH1 0x4 ADD DUP1 DUP3 PUSH1 0x1 PUSH1 0x1 PUSH1 0xA0 SHL SUB AND DUP2 MSTORE PUSH1 0x20 ADD SWAP2 POP POP PUSH1 0x20 PUSH1 0x40 MLOAD DUP1 DUP4 SUB DUP2 DUP7 DUP1 EXTCODESIZE ISZERO DUP1 ISZERO PUSH2 0x3057 JUMPI PUSH1 0x0 DUP1 REVERT JUMPDEST POP GAS STATICCALL ISZERO DUP1 ISZERO PUSH2 0x306B JUMPI RETURNDATASIZE PUSH1 0x0 DUP1 RETURNDATACOPY RETURNDATASIZE PUSH1 0x0 REVERT JUMPDEST POP POP POP POP PUSH1 0x40 MLOAD RETURNDATASIZE PUSH1 0x20 DUP2 LT ISZERO PUSH2 0x3081 JUMPI PUSH1 0x0 DUP1 REVERT JUMPDEST POP MLOAD SWAP1 POP PUSH2 0x308F DUP2 DUP4 PUSH2 0x160B JUMP JUMPDEST SWAP7 SWAP6 POP POP POP POP POP POP JUMP JUMPDEST PUSH1 0x0 DUP1 PUSH2 0x30A6 DUP5 DUP7 PUSH2 0x35F3 JUMP JUMPDEST SWAP1 POP PUSH2 0x30B2 DUP4 DUP3 PUSH2 0x150D JUMP JUMPDEST SWAP2 POP PUSH2 0x30BF DUP8 DUP8 DUP5 PUSH2 0x469D JUMP JUMPDEST PUSH2 0x30CA DUP7 DUP4 DUP4 PUSH2 0x3623 JUMP JUMPDEST DUP4 MLOAD PUSH2 0x30D6 SWAP1 DUP7 PUSH2 0x471D JUMP JUMPDEST POP SWAP6 SWAP5 POP POP POP POP POP JUMP JUMPDEST PUSH1 0x0 DUP1 PUSH2 0x30EC DUP4 PUSH2 0x4772 JUMP JUMPDEST PUSH1 0xFF AND SWAP4 SWAP3 POP POP POP JUMP JUMPDEST PUSH1 0x0 DUP1 PUSH1 0x0 DUP6 GT PUSH2 0x3106 JUMPI PUSH1 0x0 DUP1 REVERT JUMPDEST PUSH1 0x7 DUP6 GT ISZERO PUSH2 0x3114 JUMPI PUSH1 0x0 DUP1 REVERT JUMPDEST PUSH1 0x0 PUSH2 0x311F DUP5 PUSH2 0x478F JUMP JUMPDEST SWAP1 POP PUSH1 0x1 JUMPDEST DUP7 DUP2 GT PUSH2 0x3177 JUMPI PUSH1 0x0 PUSH2 0x3140 PUSH2 0x3139 DUP4 PUSH2 0x47AD JUMP JUMPDEST DUP5 SWAP1 PUSH2 0xE93 JUMP JUMPDEST SWAP1 POP DUP7 DUP2 EQ ISZERO PUSH2 0x3158 JUMPI POP SWAP3 POP PUSH1 0x0 SWAP2 POP PUSH2 0x317D SWAP1 POP JUMP JUMPDEST DUP7 DUP2 GT ISZERO PUSH2 0x316E JUMPI POP SWAP3 POP PUSH1 0x1 SWAP2 POP PUSH2 0x317D SWAP1 POP JUMP JUMPDEST POP PUSH1 0x1 ADD PUSH2 0x3124 JUMP JUMPDEST POP PUSH1 0x0 DUP1 REVERT JUMPDEST SWAP4 POP SWAP4 SWAP2 POP POP JUMP JUMPDEST DUP4 MLOAD PUSH1 0x20 DUP5 ADD MLOAD EQ PUSH2 0x3196 JUMPI PUSH1 0x0 DUP1 REVERT JUMPDEST PUSH1 0x0 PUSH2 0x31A0 PUSH2 0x15FE JUMP JUMPDEST DUP4 MLOAD PUSH1 0x1 PUSH1 0x1 PUSH1 0xA0 SHL SUB AND PUSH1 0x0 SWAP1 DUP2 MSTORE PUSH1 0x20 DUP3 DUP2 MSTORE PUSH1 0x40 DUP1 DUP4 KECCAK256 DUP10 MLOAD DUP5 MSTORE SWAP1 SWAP2 MSTORE SWAP1 DUP2 SWAP1 KECCAK256 SWAP1 DUP8 ADD MLOAD SWAP2 SWAP3 POP SWAP1 PUSH2 0x31D7 SWAP1 DUP5 PUSH2 0xE93 JUMP JUMPDEST PUSH1 0x40 DUP1 DUP9 ADD SWAP2 SWAP1 SWAP2 MSTORE DUP6 ADD MLOAD PUSH2 0x998 SWAP1 DUP5 PUSH2 0xE93 JUMP JUMPDEST PUSH1 0x0 DUP1 PUSH2 0x320B DUP9 PUSH1 0x0 ADD MLOAD DUP10 PUSH1 0x40 ADD MLOAD DUP9 DUP12 PUSH2 0x160 ADD MLOAD PUSH1 0x0 PUSH2 0xD46 JUMP JUMPDEST DUP9 MLOAD PUSH1 0x40 MLOAD PUSH4 0xDC6679C5 PUSH1 0xE0 SHL DUP2 MSTORE SWAP2 SWAP3 POP PUSH1 0x1 PUSH1 0x1 PUSH1 0xA0 SHL SUB AND SWAP1 PUSH4 0xDC6679C5 SWAP1 PUSH2 0x3243 SWAP1 DUP11 SWAP1 DUP6 SWAP1 DUP11 SWAP1 DUP11 SWAP1 DUP11 SWAP1 PUSH1 0x4 ADD PUSH2 0x5D6B JUMP JUMPDEST PUSH1 0x20 PUSH1 0x40 MLOAD DUP1 DUP4 SUB DUP2 PUSH1 0x0 DUP8 DUP1 EXTCODESIZE ISZERO DUP1 ISZERO PUSH2 0x325D JUMPI PUSH1 0x0 DUP1 REVERT JUMPDEST POP GAS CALL ISZERO DUP1 ISZERO PUSH2 0x3271 JUMPI RETURNDATASIZE PUSH1 0x0 DUP1 RETURNDATACOPY RETURNDATASIZE PUSH1 0x0 REVERT JUMPDEST POP POP POP POP PUSH1 0x40 MLOAD RETURNDATASIZE PUSH1 0x1F NOT PUSH1 0x1F DUP3 ADD AND DUP3 ADD DUP1 PUSH1 0x40 MSTORE POP DUP2 ADD SWAP1 PUSH2 0x26FA SWAP2 SWAP1 PUSH2 0x5BCC JUMP JUMPDEST PUSH1 0x0 PUSH4 0x5F5E100 DUP4 PUSH1 0x40 ADD MLOAD EQ ISZERO PUSH2 0x32AE JUMPI POP DUP1 PUSH2 0x789 JUMP JUMPDEST PUSH2 0xEA5 PUSH4 0x5F5E100 PUSH2 0x152F DUP6 PUSH1 0x40 ADD MLOAD DUP6 PUSH2 0x1636 SWAP1 SWAP2 SWAP1 PUSH4 0xFFFFFFFF AND JUMP JUMPDEST PUSH1 0x0 PUSH2 0x32D7 PUSH2 0x4851 JUMP JUMPDEST DUP4 MLOAD PUSH1 0x1 PUSH1 0x1 PUSH1 0xA0 SHL SUB AND PUSH1 0x0 SWAP1 DUP2 MSTORE PUSH1 0x20 DUP3 SWAP1 MSTORE PUSH1 0x40 SWAP1 KECCAK256 SLOAD SWAP1 SWAP2 POP DUP1 DUP4 GT PUSH2 0x3302 JUMPI POP POP PUSH2 0x773 JUMP JUMPDEST PUSH1 0x0 PUSH2 0x330D DUP7 PUSH2 0x485E JUMP JUMPDEST SWAP1 POP PUSH1 0x0 DUP2 PUSH1 0x1 PUSH1 0x1 PUSH1 0xA0 SHL SUB AND PUSH4 0xB5E4DA23 DUP5 DUP8 SUB PUSH1 0x40 MLOAD DUP3 PUSH4 0xFFFFFFFF AND PUSH1 0xE0 SHL DUP2 MSTORE PUSH1 0x4 ADD PUSH2 0x333F SWAP2 SWAP1 PUSH2 0x5E84 JUMP JUMPDEST PUSH1 0x0 PUSH1 0x40 MLOAD DUP1 DUP4 SUB DUP2 DUP7 DUP1 EXTCODESIZE ISZERO DUP1 ISZERO PUSH2 0x3357 JUMPI PUSH1 0x0 DUP1 REVERT JUMPDEST POP GAS STATICCALL ISZERO DUP1 ISZERO PUSH2 0x336B JUMPI RETURNDATASIZE PUSH1 0x0 DUP1 RETURNDATACOPY RETURNDATASIZE PUSH1 0x0 REVERT JUMPDEST POP POP POP POP PUSH1 0x40 MLOAD RETURNDATASIZE PUSH1 0x0 DUP3 RETURNDATACOPY PUSH1 0x1F RETURNDATASIZE SWAP1 DUP2 ADD PUSH1 0x1F NOT AND DUP3 ADD PUSH1 0x40 MSTORE PUSH2 0x3393 SWAP2 SWAP1 DUP2 ADD SWAP1 PUSH2 0x5ABE JUMP JUMPDEST SWAP1 POP PUSH1 0x0 PUSH2 0x33A1 DUP8 DUP4 PUSH2 0x488E JUMP JUMPDEST SWAP2 POP PUSH2 0x33AF SWAP1 POP DUP5 DUP3 PUSH2 0xE93 JUMP JUMPDEST DUP7 GT ISZERO PUSH2 0x21E9 JUMPI PUSH1 0x0 DUP1 REVERT JUMPDEST DUP3 PUSH1 0x1 PUSH1 0x1 PUSH1 0xA0 SHL SUB AND PUSH4 0xA9059CBB DUP4 DUP4 PUSH1 0x40 MLOAD DUP4 PUSH4 0xFFFFFFFF AND PUSH1 0xE0 SHL DUP2 MSTORE PUSH1 0x4 ADD DUP1 DUP4 PUSH1 0x1 PUSH1 0x1 PUSH1 0xA0 SHL SUB AND DUP2 MSTORE PUSH1 0x20 ADD DUP3 DUP2 MSTORE PUSH1 0x20 ADD SWAP3 POP POP POP PUSH1 0x0 PUSH1 0x40 MLOAD DUP1 DUP4 SUB DUP2 PUSH1 0x0 DUP8 DUP1 EXTCODESIZE ISZERO DUP1 ISZERO PUSH2 0x3412 JUMPI PUSH1 0x0 DUP1 REVERT JUMPDEST POP GAS CALL ISZERO DUP1 ISZERO PUSH2 0x3426 JUMPI RETURNDATASIZE PUSH1 0x0 DUP1 RETURNDATACOPY RETURNDATASIZE PUSH1 0x0 REVERT JUMPDEST POP POP POP POP PUSH2 0x773 PUSH2 0x4630 JUMP JUMPDEST PUSH2 0x343A PUSH2 0x5645 JUMP JUMPDEST PUSH1 0x0 PUSH2 0x3444 PUSH2 0x4AA5 JUMP JUMPDEST PUSH1 0x0 DUP6 DUP2 MSTORE PUSH1 0x20 DUP3 DUP2 MSTORE PUSH1 0x40 DUP1 DUP4 KECCAK256 DUP8 ISZERO ISZERO DUP5 MSTORE DUP3 MSTORE SWAP2 DUP3 SWAP1 KECCAK256 DUP3 MLOAD PUSH1 0xA0 DUP2 ADD DUP5 MSTORE DUP2 SLOAD PUSH1 0x1 PUSH1 0x1 PUSH1 0xA0 SHL SUB DUP2 AND DUP3 MSTORE PUSH1 0xFF PUSH1 0x1 PUSH1 0xA0 SHL DUP3 DIV DUP2 AND ISZERO ISZERO SWAP5 DUP4 ADD SWAP5 SWAP1 SWAP5 MSTORE PUSH1 0x1 PUSH1 0xB0 SHL DUP2 DIV DUP5 AND PUSH1 0xA EXP SWAP5 DUP3 ADD SWAP5 SWAP1 SWAP5 MSTORE SWAP4 SWAP5 POP SWAP3 SWAP2 PUSH1 0x60 DUP4 ADD SWAP2 PUSH1 0x1 PUSH1 0xA8 SHL SWAP1 SWAP2 DIV AND PUSH1 0x5 DUP2 GT ISZERO PUSH2 0x34B9 JUMPI INVALID JUMPDEST DUP2 MSTORE PUSH1 0x0 PUSH1 0x20 SWAP1 SWAP2 ADD MSTORE SWAP6 SWAP5 POP POP POP POP POP JUMP JUMPDEST PUSH1 0x0 PUSH1 0x3 DUP4 PUSH1 0x60 ADD MLOAD PUSH1 0x5 DUP2 GT ISZERO PUSH2 0x34E0 JUMPI INVALID JUMPDEST EQ ISZERO PUSH2 0x34F7 JUMPI POP PUSH1 0x1 PUSH1 0x1 PUSH1 0xA0 SHL SUB DUP2 AND BALANCE PUSH2 0x789 JUMP JUMPDEST DUP3 MLOAD PUSH1 0x40 MLOAD PUSH4 0x70A08231 PUSH1 0xE0 SHL DUP2 MSTORE PUSH1 0x1 PUSH1 0x1 PUSH1 0xA0 SHL SUB SWAP1 SWAP2 AND SWAP1 PUSH4 0x70A08231 SWAP1 PUSH2 0x3526 SWAP1 DUP6 SWAP1 PUSH1 0x4 ADD PUSH2 0x5C6B JUMP JUMPDEST PUSH1 0x20 PUSH1 0x40 MLOAD DUP1 DUP4 SUB DUP2 DUP7 DUP1 EXTCODESIZE ISZERO DUP1 ISZERO PUSH2 0x353E JUMPI PUSH1 0x0 DUP1 REVERT JUMPDEST POP GAS STATICCALL ISZERO DUP1 ISZERO PUSH2 0x3552 JUMPI RETURNDATASIZE PUSH1 0x0 DUP1 RETURNDATACOPY RETURNDATASIZE PUSH1 0x0 REVERT JUMPDEST POP POP POP POP PUSH1 0x40 MLOAD RETURNDATASIZE PUSH1 0x1F NOT PUSH1 0x1F DUP3 ADD AND DUP3 ADD DUP1 PUSH1 0x40 MSTORE POP DUP2 ADD SWAP1 PUSH2 0x1D7A SWAP2 SWAP1 PUSH2 0x5BCC JUMP JUMPDEST PUSH1 0x0 PUSH2 0x3580 PUSH2 0x4851 JUMP JUMPDEST PUSH1 0x1 PUSH1 0x1 PUSH1 0xA0 SHL SUB DUP6 AND PUSH1 0x0 SWAP1 DUP2 MSTORE PUSH1 0x20 DUP3 SWAP1 MSTORE PUSH1 0x40 SWAP1 KECCAK256 SLOAD SWAP1 SWAP2 POP DUP4 DUP2 GT ISZERO PUSH2 0x35A9 JUMPI PUSH1 0x0 DUP1 REVERT JUMPDEST PUSH1 0x0 PUSH2 0x35C0 PUSH2 0x35B7 DUP7 PUSH2 0xC8A JUMP JUMPDEST PUSH2 0x2487 DUP7 PUSH2 0xC8A JUMP JUMPDEST SWAP1 POP PUSH2 0x35CF PUSH2 0x3B1 DUP4 DUP4 PUSH2 0x1684 JUMP JUMPDEST PUSH1 0x1 PUSH1 0x1 PUSH1 0xA0 SHL SUB SWAP1 SWAP7 AND PUSH1 0x0 SWAP1 DUP2 MSTORE PUSH1 0x20 SWAP4 SWAP1 SWAP4 MSTORE POP POP PUSH1 0x40 SWAP1 KECCAK256 SWAP3 SWAP1 SWAP3 SSTORE POP POP JUMP JUMPDEST PUSH1 0x0 PUSH4 0x5F5E100 DUP4 PUSH1 0x40 ADD MLOAD EQ ISZERO PUSH2 0x360C JUMPI POP DUP1 PUSH2 0x789 JUMP JUMPDEST PUSH1 0x40 DUP4 ADD MLOAD PUSH2 0xEA5 SWAP1 PUSH2 0x152F DUP5 PUSH4 0x5F5E100 PUSH2 0x1636 JUMP JUMPDEST PUSH1 0x0 PUSH2 0x362D PUSH2 0x4AB2 JUMP JUMPDEST PUSH2 0xFFFF DUP6 AND PUSH1 0x0 SWAP1 DUP2 MSTORE PUSH1 0x20 SWAP2 SWAP1 SWAP2 MSTORE PUSH1 0x40 SWAP1 KECCAK256 DUP1 SLOAD SWAP1 SWAP2 POP PUSH5 0xFFFFFFFFFF AND TIMESTAMP EQ PUSH2 0x3658 JUMPI PUSH1 0x0 DUP1 REVERT JUMPDEST DUP1 SLOAD PUSH1 0x0 SWAP1 PUSH2 0x3677 SWAP1 PUSH1 0x1 PUSH1 0x28 SHL SWAP1 DIV PUSH1 0x1 PUSH1 0x1 PUSH1 0x58 SHL SUB AND DUP6 PUSH2 0x1684 JUMP JUMPDEST DUP3 SLOAD SWAP1 SWAP2 POP PUSH1 0x0 SWAP1 PUSH2 0x3699 SWAP1 PUSH1 0x1 PUSH1 0x80 SHL SWAP1 DIV PUSH1 0x1 PUSH1 0x1 PUSH1 0x58 SHL SUB AND DUP6 PUSH2 0x1684 JUMP JUMPDEST SWAP1 POP DUP1 PUSH3 0x4C4B40 SGT ISZERO PUSH2 0x36AB JUMPI PUSH1 0x0 DUP1 REVERT JUMPDEST PUSH2 0x36BC PUSH2 0x36B7 DUP3 PUSH2 0xC77 JUMP JUMPDEST PUSH2 0x4ABF JUMP JUMPDEST DUP4 SLOAD PUSH1 0x1 PUSH1 0x1 PUSH1 0x58 SHL SUB SWAP2 SWAP1 SWAP2 AND PUSH1 0x1 PUSH1 0x80 SHL MUL PUSH11 0xFFFFFFFFFFFFFFFFFFFFFF PUSH1 0x80 SHL NOT SWAP1 SWAP2 AND OR DUP4 SSTORE PUSH2 0x36F2 PUSH2 0x36B7 DUP4 PUSH2 0xC77 JUMP JUMPDEST DUP4 SLOAD PUSH1 0x1 PUSH1 0x1 PUSH1 0x58 SHL SUB SWAP2 SWAP1 SWAP2 AND PUSH1 0x1 PUSH1 0x28 SHL MUL PUSH16 0xFFFFFFFFFFFFFFFFFFFFFF0000000000 NOT SWAP1 SWAP2 AND OR DUP4 SSTORE PUSH2 0xAC4 DUP4 PUSH2 0x4AD5 JUMP JUMPDEST DUP2 ISZERO PUSH2 0x12BB JUMPI PUSH1 0x0 PUSH2 0x3754 PUSH2 0x3B1 PUSH2 0x3748 PUSH2 0x3741 DUP7 PUSH2 0xC8A JUMP JUMPDEST DUP9 SWAP1 PUSH2 0x35F3 JUMP JUMPDEST PUSH2 0x160 DUP10 ADD MLOAD SWAP1 PUSH2 0x150D JUMP JUMPDEST SWAP1 POP PUSH2 0xAC4 DUP7 PUSH1 0x0 ADD MLOAD DUP6 DUP9 PUSH1 0x40 ADD MLOAD PUSH2 0x3771 DUP6 PUSH2 0x17F5 DUP9 PUSH2 0xC77 JUMP JUMPDEST DUP6 PUSH2 0x4BA0 JUMP JUMPDEST PUSH1 0x0 DUP1 PUSH2 0x789 PUSH1 0x1A PUSH2 0x2626 JUMP JUMPDEST PUSH1 0x40 DUP1 MLOAD PUSH1 0x2 DUP1 DUP3 MSTORE PUSH1 0x60 DUP3 ADD DUP4 MSTORE PUSH1 0x0 SWAP3 PUSH1 0x20 DUP4 ADD SWAP1 DUP1 CALLDATASIZE DUP4 CALLDATACOPY POP POP PUSH1 0x40 DUP1 MLOAD PUSH1 0x2 DUP1 DUP3 MSTORE PUSH1 0x60 DUP3 ADD DUP4 MSTORE SWAP4 SWAP5 POP PUSH1 0x0 SWAP4 SWAP1 SWAP3 POP SWAP1 PUSH1 0x20 DUP4 ADD SWAP1 DUP1 CALLDATASIZE DUP4 CALLDATACOPY ADD SWAP1 POP POP SWAP1 POP PUSH1 0x0 PUSH2 0x37EB DUP7 PUSH1 0x0 ADD MLOAD DUP8 PUSH1 0x40 ADD MLOAD DUP8 PUSH1 0x40 ADD MLOAD PUSH5 0xFFFFFFFFFF AND PUSH1 0x0 PUSH2 0x3E60 JUMP JUMPDEST SWAP1 POP PUSH1 0xA PUSH1 0xFF AND DUP2 OR DUP4 PUSH1 0x0 DUP2 MLOAD DUP2 LT PUSH2 0x3801 JUMPI INVALID JUMPDEST PUSH1 0x20 MUL PUSH1 0x20 ADD ADD DUP2 DUP2 MSTORE POP POP PUSH1 0x9 PUSH1 0xFF AND DUP2 OR DUP4 PUSH1 0x1 DUP2 MLOAD DUP2 LT PUSH2 0x3821 JUMPI INVALID JUMPDEST PUSH1 0x20 MUL PUSH1 0x20 ADD ADD DUP2 DUP2 MSTORE POP POP DUP7 PUSH1 0x20 ADD MLOAD PUSH1 0x0 EQ DUP1 PUSH2 0x3864 JUMPI POP PUSH1 0x40 DUP6 ADD MLOAD PUSH5 0xFFFFFFFFFF AND ISZERO DUP1 ISZERO SWAP1 PUSH2 0x3864 JUMPI POP DUP7 PUSH1 0x20 ADD MLOAD DUP6 PUSH1 0x40 ADD MLOAD PUSH5 0xFFFFFFFFFF AND EQ ISZERO JUMPDEST ISZERO PUSH2 0x3906 JUMPI DUP5 PUSH1 0x0 ADD MLOAD PUSH1 0x1 PUSH1 0x1 PUSH1 0x50 SHL SUB AND DUP3 PUSH1 0x0 DUP2 MLOAD DUP2 LT PUSH2 0x3884 JUMPI INVALID JUMPDEST PUSH1 0x20 MUL PUSH1 0x20 ADD ADD DUP2 DUP2 MSTORE POP POP DUP5 PUSH1 0x20 ADD MLOAD PUSH1 0x1 PUSH1 0x1 PUSH1 0x50 SHL SUB AND DUP3 PUSH1 0x1 DUP2 MLOAD DUP2 LT PUSH2 0x38AB JUMPI INVALID JUMPDEST PUSH1 0x20 MUL PUSH1 0x20 ADD ADD DUP2 DUP2 MSTORE POP POP PUSH1 0x0 PUSH1 0x1 PUSH1 0x1 PUSH1 0xA0 SHL SUB AND DUP8 PUSH1 0x60 ADD MLOAD PUSH1 0x1 PUSH1 0x1 PUSH1 0xA0 SHL SUB AND CALLER PUSH1 0x1 PUSH1 0x1 PUSH1 0xA0 SHL SUB AND PUSH1 0x0 DUP1 MLOAD PUSH1 0x20 PUSH2 0x5F23 DUP4 CODECOPY DUP2 MLOAD SWAP2 MSTORE DUP7 DUP7 PUSH1 0x40 MLOAD PUSH2 0x38F9 SWAP3 SWAP2 SWAP1 PUSH2 0x5DA4 JUMP JUMPDEST PUSH1 0x40 MLOAD DUP1 SWAP2 SUB SWAP1 LOG4 PUSH2 0x3B03 JUMP JUMPDEST DUP5 PUSH1 0x40 ADD MLOAD PUSH5 0xFFFFFFFFFF AND DUP8 PUSH1 0x20 ADD MLOAD EQ ISZERO PUSH2 0x3B03 JUMPI DUP5 MLOAD PUSH1 0x0 SWAP1 PUSH1 0x1 PUSH1 0x1 PUSH1 0x50 SHL SUB AND DUP6 LT DUP1 PUSH2 0x3948 JUMPI POP DUP6 PUSH1 0x20 ADD MLOAD PUSH1 0x1 PUSH1 0x1 PUSH1 0x50 SHL SUB AND DUP9 PUSH1 0x40 ADD MLOAD LT JUMPDEST SWAP1 POP DUP1 ISZERO PUSH2 0x3A18 JUMPI DUP6 MLOAD PUSH1 0x1 PUSH1 0x1 PUSH1 0x50 SHL SUB AND DUP6 LT PUSH2 0x3968 JUMPI PUSH1 0x0 PUSH2 0x3977 JUMP JUMPDEST DUP6 MLOAD PUSH1 0x1 PUSH1 0x1 PUSH1 0x50 SHL SUB AND DUP6 SWAP1 SUB JUMPDEST DUP4 PUSH1 0x0 DUP2 MLOAD DUP2 LT PUSH2 0x3984 JUMPI INVALID JUMPDEST PUSH1 0x20 MUL PUSH1 0x20 ADD ADD DUP2 DUP2 MSTORE POP POP PUSH2 0x39B4 DUP9 PUSH1 0x40 ADD MLOAD DUP8 PUSH1 0x20 ADD MLOAD PUSH1 0x1 PUSH1 0x1 PUSH1 0x50 SHL SUB AND PUSH2 0x160B SWAP1 SWAP2 SWAP1 PUSH4 0xFFFFFFFF AND JUMP JUMPDEST DUP4 PUSH1 0x1 DUP2 MLOAD DUP2 LT PUSH2 0x39C1 JUMPI INVALID JUMPDEST PUSH1 0x20 MUL PUSH1 0x20 ADD ADD DUP2 DUP2 MSTORE POP POP PUSH1 0x0 PUSH1 0x1 PUSH1 0x1 PUSH1 0xA0 SHL SUB AND DUP9 PUSH1 0x60 ADD MLOAD PUSH1 0x1 PUSH1 0x1 PUSH1 0xA0 SHL SUB AND CALLER PUSH1 0x1 PUSH1 0x1 PUSH1 0xA0 SHL SUB AND PUSH1 0x0 DUP1 MLOAD PUSH1 0x20 PUSH2 0x5F23 DUP4 CODECOPY DUP2 MLOAD SWAP2 MSTORE DUP8 DUP8 PUSH1 0x40 MLOAD PUSH2 0x3A0F SWAP3 SWAP2 SWAP1 PUSH2 0x5DA4 JUMP JUMPDEST PUSH1 0x40 MLOAD DUP1 SWAP2 SUB SWAP1 LOG4 JUMPDEST DUP1 ISZERO DUP1 PUSH2 0x3A2E JUMPI POP DUP6 MLOAD PUSH1 0x1 PUSH1 0x1 PUSH1 0x50 SHL SUB AND DUP6 GT JUMPDEST ISZERO PUSH2 0x3B01 JUMPI DUP6 MLOAD PUSH2 0x3A49 SWAP1 DUP7 SWAP1 PUSH1 0x1 PUSH1 0x1 PUSH1 0x50 SHL SUB AND PUSH2 0x160B JUMP JUMPDEST DUP4 PUSH1 0x0 DUP2 MLOAD DUP2 LT PUSH2 0x3A56 JUMPI INVALID JUMPDEST PUSH1 0x20 MUL PUSH1 0x20 ADD ADD DUP2 DUP2 MSTORE POP POP DUP8 PUSH1 0x40 ADD MLOAD DUP7 PUSH1 0x20 ADD MLOAD PUSH1 0x1 PUSH1 0x1 PUSH1 0x50 SHL SUB AND LT PUSH2 0x3A81 JUMPI PUSH1 0x0 PUSH2 0x3A9D JUMP JUMPDEST PUSH1 0x20 DUP7 ADD MLOAD PUSH1 0x40 DUP10 ADD MLOAD PUSH2 0x3A9D SWAP2 PUSH1 0x1 PUSH1 0x1 PUSH1 0x50 SHL SUB AND PUSH2 0x160B JUMP JUMPDEST DUP4 PUSH1 0x1 DUP2 MLOAD DUP2 LT PUSH2 0x3AAA JUMPI INVALID JUMPDEST PUSH1 0x20 MUL PUSH1 0x20 ADD ADD DUP2 DUP2 MSTORE POP POP DUP8 PUSH1 0x60 ADD MLOAD PUSH1 0x1 PUSH1 0x1 PUSH1 0xA0 SHL SUB AND PUSH1 0x0 PUSH1 0x1 PUSH1 0x1 PUSH1 0xA0 SHL SUB AND CALLER PUSH1 0x1 PUSH1 0x1 PUSH1 0xA0 SHL SUB AND PUSH1 0x0 DUP1 MLOAD PUSH1 0x20 PUSH2 0x5F23 DUP4 CODECOPY DUP2 MLOAD SWAP2 MSTORE DUP8 DUP8 PUSH1 0x40 MLOAD PUSH2 0x3AF8 SWAP3 SWAP2 SWAP1 PUSH2 0x5DA4 JUMP JUMPDEST PUSH1 0x40 MLOAD DUP1 SWAP2 SUB SWAP1 LOG4 JUMPDEST POP JUMPDEST PUSH1 0x20 DUP8 ADD MLOAD ISZERO DUP1 ISZERO SWAP1 PUSH2 0x3B25 JUMPI POP DUP7 PUSH1 0x20 ADD MLOAD DUP6 PUSH1 0x40 ADD MLOAD PUSH5 0xFFFFFFFFFF AND EQ ISZERO JUMPDEST ISZERO PUSH2 0x3C0B JUMPI PUSH1 0x0 PUSH2 0x3B45 DUP8 PUSH1 0x0 ADD MLOAD DUP9 PUSH1 0x40 ADD MLOAD DUP11 PUSH1 0x20 ADD MLOAD PUSH1 0x0 PUSH2 0x3E60 JUMP JUMPDEST SWAP1 POP PUSH1 0xA PUSH1 0xFF AND DUP2 OR DUP5 PUSH1 0x0 DUP2 MLOAD DUP2 LT PUSH2 0x3B5B JUMPI INVALID JUMPDEST PUSH1 0x20 MUL PUSH1 0x20 ADD ADD DUP2 DUP2 MSTORE POP POP PUSH1 0x9 PUSH1 0xFF AND DUP2 OR DUP5 PUSH1 0x1 DUP2 MLOAD DUP2 LT PUSH2 0x3B7B JUMPI INVALID JUMPDEST PUSH1 0x20 MUL PUSH1 0x20 ADD ADD DUP2 DUP2 MSTORE POP POP DUP5 DUP4 PUSH1 0x0 DUP2 MLOAD DUP2 LT PUSH2 0x3B95 JUMPI INVALID JUMPDEST PUSH1 0x20 MUL PUSH1 0x20 ADD ADD DUP2 DUP2 MSTORE POP POP DUP8 PUSH1 0x40 ADD MLOAD DUP4 PUSH1 0x1 DUP2 MLOAD DUP2 LT PUSH2 0x3BB3 JUMPI INVALID JUMPDEST PUSH1 0x20 MUL PUSH1 0x20 ADD ADD DUP2 DUP2 MSTORE POP POP DUP8 PUSH1 0x60 ADD MLOAD PUSH1 0x1 PUSH1 0x1 PUSH1 0xA0 SHL SUB AND PUSH1 0x0 PUSH1 0x1 PUSH1 0x1 PUSH1 0xA0 SHL SUB AND CALLER PUSH1 0x1 PUSH1 0x1 PUSH1 0xA0 SHL SUB AND PUSH1 0x0 DUP1 MLOAD PUSH1 0x20 PUSH2 0x5F23 DUP4 CODECOPY DUP2 MLOAD SWAP2 MSTORE DUP8 DUP8 PUSH1 0x40 MLOAD PUSH2 0x3C01 SWAP3 SWAP2 SWAP1 PUSH2 0x5DA4 JUMP JUMPDEST PUSH1 0x40 MLOAD DUP1 SWAP2 SUB SWAP1 LOG4 POP JUMPDEST PUSH1 0x80 DUP6 ADD MLOAD PUSH1 0x1 PUSH1 0x1 PUSH1 0x50 SHL SUB AND ISZERO PUSH2 0xAC2 JUMPI PUSH1 0x60 DUP8 ADD MLOAD PUSH1 0x80 DUP7 ADD MLOAD PUSH1 0x40 MLOAD PUSH1 0x0 SWAP3 PUSH1 0x1 PUSH1 0x1 PUSH1 0xA0 SHL SUB AND SWAP2 CALLER SWAP2 PUSH1 0x0 DUP1 MLOAD PUSH1 0x20 PUSH2 0x5F43 DUP4 CODECOPY DUP2 MLOAD SWAP2 MSTORE SWAP2 PUSH2 0x3C59 SWAP2 PUSH1 0xB DUP9 OR SWAP2 SWAP1 PUSH2 0x5EB1 JUMP JUMPDEST PUSH1 0x40 MLOAD DUP1 SWAP2 SUB SWAP1 LOG4 POP POP POP POP POP POP POP JUMP JUMPDEST PUSH1 0x0 PUSH5 0xFFFFFFFFFF DUP3 GT ISZERO PUSH2 0xC86 JUMPI PUSH1 0x0 DUP1 REVERT JUMPDEST PUSH1 0x0 PUSH4 0xFFFFFFFF DUP3 GT ISZERO PUSH2 0xC86 JUMPI PUSH1 0x0 DUP1 REVERT JUMPDEST PUSH1 0x0 DUP1 PUSH2 0x789 PUSH1 0x2 PUSH2 0x2626 JUMP JUMPDEST PUSH2 0x3CA6 PUSH2 0x5624 JUMP JUMPDEST PUSH1 0x0 DUP1 PUSH2 0x3CB1 PUSH2 0x4BF6 JUMP JUMPDEST PUSH2 0xFFFF DUP7 AND PUSH1 0x0 SWAP1 DUP2 MSTORE PUSH1 0x20 DUP3 DUP2 MSTORE PUSH1 0x40 DUP1 DUP4 KECCAK256 DUP9 DUP5 MSTORE SWAP1 SWAP2 MSTORE SWAP1 KECCAK256 DUP1 SLOAD PUSH1 0x1 PUSH1 0xF0 SHL SWAP1 DIV PUSH1 0xFF AND SWAP4 POP SWAP1 SWAP2 POP DUP3 ISZERO PUSH2 0x3D28 JUMPI DUP1 SLOAD PUSH1 0x1 PUSH1 0x1 PUSH1 0x50 SHL SUB PUSH1 0x1 PUSH1 0xA0 SHL DUP3 DIV DUP2 AND SWAP2 PUSH2 0x3D03 SWAP2 AND DUP3 PUSH2 0x2530 JUMP JUMPDEST DUP6 MSTORE DUP2 SLOAD PUSH2 0x3D21 SWAP1 PUSH1 0x1 PUSH1 0x50 SHL SWAP1 DIV PUSH1 0x1 PUSH1 0x1 PUSH1 0x50 SHL SUB AND DUP3 PUSH2 0x2530 JUMP JUMPDEST PUSH1 0x20 DUP7 ADD MSTORE POP JUMPDEST POP POP SWAP3 POP SWAP3 SWAP1 POP JUMP JUMPDEST PUSH1 0x0 DUP2 PUSH1 0x0 SGT ISZERO DUP1 ISZERO PUSH2 0x3D44 JUMPI POP PUSH1 0xA DUP3 SLT JUMPDEST ISZERO PUSH2 0x3D51 JUMPI POP PUSH1 0x0 PUSH2 0x789 JUMP JUMPDEST PUSH1 0x0 DUP3 SLT PUSH2 0x3D5E JUMPI PUSH1 0x0 DUP1 REVERT JUMPDEST PUSH2 0xEA5 PUSH1 0x1 PUSH2 0x2487 DUP6 PUSH1 0x20 ADD MLOAD PUSH2 0x152F PUSH15 0xC097CE7BC90715B34B9F1000000000 DUP8 PUSH2 0x1636 SWAP1 SWAP2 SWAP1 PUSH4 0xFFFFFFFF AND JUMP JUMPDEST PUSH1 0x0 PUSH2 0x3D99 DUP6 DUP6 PUSH2 0x44BB JUMP JUMPDEST SWAP1 POP PUSH1 0x0 DUP4 SLT ISZERO PUSH2 0x3DAB JUMPI PUSH1 0x1 PUSH1 0x40 SHL OR JUMPDEST PUSH1 0x0 PUSH1 0x1 PUSH1 0x1 PUSH1 0xA0 SHL SUB DUP8 AND CALLER PUSH1 0x0 DUP1 MLOAD PUSH1 0x20 PUSH2 0x5F43 DUP4 CODECOPY DUP2 MLOAD SWAP2 MSTORE DUP5 PUSH2 0x3DD1 DUP9 PUSH2 0x1C4B JUMP JUMPDEST PUSH1 0x40 MLOAD PUSH2 0x3DDF SWAP3 SWAP2 SWAP1 PUSH2 0x5E8D JUMP JUMPDEST PUSH1 0x40 MLOAD DUP1 SWAP2 SUB SWAP1 LOG4 PUSH1 0x0 PUSH2 0x3DF6 PUSH1 0x0 DUP5 SLT DUP8 PUSH2 0x4C03 JUMP JUMPDEST SWAP1 POP DUP1 PUSH1 0x1 PUSH1 0x1 PUSH1 0xA0 SHL SUB AND PUSH4 0x23DE6651 PUSH2 0x5E7 DUP10 PUSH2 0x3E14 DUP8 PUSH2 0x1C4B JUMP JUMPDEST PUSH1 0x40 MLOAD DUP5 PUSH4 0xFFFFFFFF AND PUSH1 0xE0 SHL DUP2 MSTORE PUSH1 0x4 ADD PUSH2 0x3E32 SWAP4 SWAP3 SWAP2 SWAP1 PUSH2 0x5C99 JUMP JUMPDEST PUSH1 0x0 PUSH1 0x40 MLOAD DUP1 DUP4 SUB DUP2 PUSH1 0x0 DUP8 DUP1 EXTCODESIZE ISZERO DUP1 ISZERO PUSH2 0x3E4C JUMPI PUSH1 0x0 DUP1 REVERT JUMPDEST POP GAS CALL ISZERO DUP1 ISZERO PUSH2 0x19C9 JUMPI RETURNDATASIZE PUSH1 0x0 DUP1 RETURNDATACOPY RETURNDATASIZE PUSH1 0x0 REVERT JUMPDEST PUSH9 0x10000000000000000 PUSH1 0x1 PUSH1 0xE0 SHL SUB PUSH1 0x40 DUP6 SWAP1 SHL AND PUSH8 0xFFFF000000000000 PUSH1 0x30 DUP6 SWAP1 SHL AND OR PUSH1 0x8 DUP4 SWAP1 SHL OR DUP2 OR SWAP5 SWAP4 POP POP POP POP JUMP JUMPDEST PUSH2 0x3E9E PUSH2 0x566C JUMP JUMPDEST PUSH1 0x0 PUSH2 0x3EA8 PUSH2 0x4AB2 JUMP JUMPDEST PUSH2 0xFFFF SWAP4 DUP5 AND PUSH1 0x0 SWAP1 DUP2 MSTORE PUSH1 0x20 SWAP2 DUP3 MSTORE PUSH1 0x40 SWAP1 DUP2 SWAP1 KECCAK256 DUP1 SLOAD PUSH5 0xFFFFFFFFFF DUP2 AND DUP7 MSTORE PUSH1 0x1 PUSH1 0x28 SHL DUP2 DIV PUSH1 0x1 PUSH1 0x1 PUSH1 0x58 SHL SUB SWAP1 DUP2 AND SWAP5 DUP8 ADD SWAP5 SWAP1 SWAP5 MSTORE PUSH1 0x1 DUP3 ADD SLOAD DUP5 AND SWAP3 DUP7 ADD SWAP3 SWAP1 SWAP3 MSTORE PUSH1 0x1 PUSH1 0xD8 SHL DUP3 DIV PUSH4 0xFFFFFFFF AND PUSH1 0x60 DUP7 ADD MSTORE PUSH1 0x1 PUSH1 0x80 SHL SWAP1 SWAP2 DIV SWAP1 SWAP2 AND PUSH1 0x80 DUP5 ADD MSTORE PUSH1 0x2 ADD SLOAD PUSH1 0x1 PUSH1 0x1 PUSH1 0x50 SHL SUB DUP1 DUP3 AND PUSH1 0xA0 DUP6 ADD MSTORE PUSH1 0x1 PUSH1 0x50 SHL DUP3 DIV DUP2 AND PUSH1 0xC0 DUP6 ADD MSTORE PUSH1 0x1 PUSH1 0xA0 SHL DUP3 DIV AND PUSH1 0xE0 DUP5 ADD MSTORE PUSH1 0x1 PUSH1 0xF0 SHL SWAP1 DIV PUSH1 0xFF AND PUSH2 0x12C MUL SWAP1 SWAP3 AND PUSH2 0x100 DUP3 ADD MSTORE SWAP2 SWAP1 POP JUMP JUMPDEST PUSH1 0x0 DUP1 PUSH2 0x3F6A DUP4 PUSH2 0x485E JUMP JUMPDEST PUSH1 0x1 PUSH1 0x1 PUSH1 0xA0 SHL SUB AND PUSH4 0xEF81F216 PUSH1 0x40 MLOAD DUP2 PUSH4 0xFFFFFFFF AND PUSH1 0xE0 SHL DUP2 MSTORE PUSH1 0x4 ADD PUSH1 0x40 DUP1 MLOAD DUP1 DUP4 SUB DUP2 PUSH1 0x0 DUP8 DUP1 EXTCODESIZE ISZERO DUP1 ISZERO PUSH2 0x3FA3 JUMPI PUSH1 0x0 DUP1 REVERT JUMPDEST POP GAS CALL ISZERO DUP1 ISZERO PUSH2 0x3FB7 JUMPI RETURNDATASIZE PUSH1 0x0 DUP1 RETURNDATACOPY RETURNDATASIZE PUSH1 0x0 REVERT JUMPDEST POP POP POP POP PUSH1 0x40 MLOAD RETURNDATASIZE PUSH1 0x1F NOT PUSH1 0x1F DUP3 ADD AND DUP3 ADD DUP1 PUSH1 0x40 MSTORE POP DUP2 ADD SWAP1 PUSH2 0x1505 SWAP2 SWAP1 PUSH2 0x5BE4 JUMP JUMPDEST PUSH2 0x3FE3 PUSH2 0x566C JUMP JUMPDEST PUSH1 0x0 DUP1 PUSH1 0x0 PUSH2 0x3FF3 DUP9 DUP7 DUP10 PUSH2 0x4C63 JUMP JUMPDEST PUSH1 0xC0 DUP12 ADD SWAP3 SWAP1 SWAP3 MSTORE PUSH1 0xE0 DUP11 ADD SWAP3 SWAP1 SWAP3 MSTORE PUSH1 0x20 DUP10 ADD MLOAD SWAP2 SWAP4 POP SWAP2 POP PUSH2 0x4017 SWAP1 DUP4 PUSH2 0xE93 JUMP JUMPDEST PUSH1 0x20 DUP9 ADD MSTORE PUSH1 0x80 DUP8 ADD MLOAD PUSH1 0x0 SWAP1 ISZERO PUSH2 0x4045 JUMPI PUSH1 0x80 DUP9 ADD MLOAD PUSH2 0x4042 SWAP1 PUSH2 0x403C DUP10 DUP3 PUSH2 0x160B JUMP JUMPDEST SWAP1 PUSH2 0x4D74 JUMP JUMPDEST SWAP1 POP JUMPDEST PUSH2 0x4065 PUSH2 0x405A PUSH8 0xDE0B6B3A7640000 DUP4 PUSH2 0xE93 JUMP JUMPDEST PUSH1 0xA0 DUP11 ADD MLOAD SWAP1 PUSH2 0x4D91 JUMP JUMPDEST PUSH1 0xA0 DUP10 ADD MSTORE POP POP PUSH1 0x80 DUP7 ADD SWAP5 SWAP1 SWAP5 MSTORE POP POP DUP3 MSTORE SWAP1 SWAP3 SWAP1 SWAP2 POP JUMP JUMPDEST PUSH1 0x0 PUSH2 0x4089 PUSH2 0x4AB2 JUMP JUMPDEST PUSH1 0x0 DUP6 PUSH2 0xFFFF AND DUP2 MSTORE PUSH1 0x20 ADD SWAP1 DUP2 MSTORE PUSH1 0x20 ADD PUSH1 0x0 KECCAK256 SWAP1 POP PUSH2 0x40AD DUP3 PUSH1 0x0 ADD MLOAD PUSH2 0x3C6A JUMP JUMPDEST DUP2 SLOAD PUSH5 0xFFFFFFFFFF NOT AND PUSH5 0xFFFFFFFFFF SWAP2 SWAP1 SWAP2 AND OR DUP2 SSTORE PUSH1 0xA0 DUP3 ADD MLOAD PUSH2 0x40D2 SWAP1 PUSH2 0x1620 JUMP JUMPDEST PUSH1 0x2 DUP3 ADD DUP1 SLOAD PUSH1 0x1 PUSH1 0x1 PUSH1 0x50 SHL SUB NOT AND PUSH1 0x1 PUSH1 0x1 PUSH1 0x50 SHL SUB SWAP3 SWAP1 SWAP3 AND SWAP2 SWAP1 SWAP2 OR SWAP1 SSTORE PUSH1 0xC0 DUP3 ADD MLOAD PUSH2 0x4102 SWAP1 PUSH2 0x1620 JUMP JUMPDEST DUP2 PUSH1 0x2 ADD PUSH1 0xA PUSH2 0x100 EXP DUP2 SLOAD DUP2 PUSH1 0x1 PUSH1 0x1 PUSH1 0x50 SHL SUB MUL NOT AND SWAP1 DUP4 PUSH1 0x1 PUSH1 0x1 PUSH1 0x50 SHL SUB AND MUL OR SWAP1 SSTORE POP PUSH2 0x4137 DUP3 PUSH1 0xE0 ADD MLOAD PUSH2 0x1620 JUMP JUMPDEST DUP2 PUSH1 0x2 ADD PUSH1 0x14 PUSH2 0x100 EXP DUP2 SLOAD DUP2 PUSH1 0x1 PUSH1 0x1 PUSH1 0x50 SHL SUB MUL NOT AND SWAP1 DUP4 PUSH1 0x1 PUSH1 0x1 PUSH1 0x50 SHL SUB AND MUL OR SWAP1 SSTORE POP PUSH2 0x416C DUP3 PUSH1 0x20 ADD MLOAD PUSH2 0x4ABF JUMP JUMPDEST DUP2 SLOAD PUSH1 0x1 PUSH1 0x1 PUSH1 0x58 SHL SUB SWAP2 SWAP1 SWAP2 AND PUSH1 0x1 PUSH1 0x28 SHL MUL PUSH16 0xFFFFFFFFFFFFFFFFFFFFFF0000000000 NOT SWAP1 SWAP2 AND OR DUP2 SSTORE PUSH1 0x40 DUP3 ADD MLOAD PUSH2 0x41A6 SWAP1 PUSH2 0x4ABF JUMP JUMPDEST PUSH1 0x1 DUP3 ADD DUP1 SLOAD PUSH11 0xFFFFFFFFFFFFFFFFFFFFFF NOT AND PUSH1 0x1 PUSH1 0x1 PUSH1 0x58 SHL SUB SWAP3 SWAP1 SWAP3 AND SWAP2 SWAP1 SWAP2 OR SWAP1 SSTORE PUSH1 0x80 DUP3 ADD MLOAD PUSH2 0x41DA SWAP1 PUSH2 0x4ABF JUMP JUMPDEST DUP2 SLOAD PUSH1 0x1 PUSH1 0x1 PUSH1 0x58 SHL SUB SWAP2 SWAP1 SWAP2 AND PUSH1 0x1 PUSH1 0x80 SHL MUL PUSH11 0xFFFFFFFFFFFFFFFFFFFFFF PUSH1 0x80 SHL NOT SWAP1 SWAP2 AND OR DUP2 SSTORE PUSH1 0x60 DUP3 ADD MLOAD PUSH2 0x4212 SWAP1 PUSH2 0x3C7E JUMP JUMPDEST DUP2 SLOAD PUSH4 0xFFFFFFFF SWAP2 SWAP1 SWAP2 AND PUSH1 0x1 PUSH1 0xD8 SHL MUL PUSH4 0xFFFFFFFF PUSH1 0xD8 SHL NOT SWAP1 SWAP2 AND OR DUP2 SSTORE DUP3 ISZERO PUSH2 0x425E JUMPI PUSH1 0x0 PUSH2 0x4243 DUP5 PUSH2 0xC8A JUMP JUMPDEST SWAP1 POP PUSH2 0x424F DUP6 DUP3 PUSH2 0x271C JUMP JUMPDEST PUSH2 0x425C PUSH2 0xFEE DUP7 DUP4 PUSH2 0x469D JUMP JUMPDEST POP JUMPDEST DUP4 PUSH2 0xFFFF AND PUSH32 0xEF25641E225E493886510CA1AD6584FA7B442B9FEA820A29D1DE3CE27D270FD2 DUP4 PUSH1 0xA0 ADD MLOAD DUP5 PUSH1 0xC0 ADD MLOAD DUP6 PUSH1 0xE0 ADD MLOAD PUSH1 0x40 MLOAD PUSH2 0x42A2 SWAP4 SWAP3 SWAP2 SWAP1 PUSH2 0x5E9B JUMP JUMPDEST PUSH1 0x40 MLOAD DUP1 SWAP2 SUB SWAP1 LOG2 POP POP POP POP JUMP JUMPDEST PUSH1 0x0 PUSH2 0xEA5 PUSH2 0x42BF DUP5 DUP5 PUSH2 0x1636 JUMP JUMPDEST PUSH4 0x3B9ACA00 PUSH2 0x263F JUMP JUMPDEST PUSH1 0x0 DUP1 PUSH2 0x42D4 PUSH2 0x4DAE JUMP JUMPDEST PUSH1 0x1 PUSH1 0x1 PUSH1 0xA0 SHL SUB DUP6 AND PUSH1 0x0 SWAP1 DUP2 MSTORE PUSH1 0x20 DUP3 DUP2 MSTORE PUSH1 0x40 DUP1 DUP4 KECCAK256 PUSH2 0xFFFF DUP9 AND DUP5 MSTORE SWAP1 SWAP2 MSTORE DUP2 KECCAK256 DUP1 SLOAD PUSH1 0x1 PUSH1 0xA8 SHL SWAP1 DIV PUSH1 0xA SWAP1 DUP2 SIGNEXTEND SWAP1 SIGNEXTEND SWAP5 POP SWAP2 SWAP3 POP DUP4 SLT ISZERO PUSH2 0x431A JUMPI PUSH1 0x0 DUP1 REVERT JUMPDEST POP POP SWAP3 SWAP2 POP POP JUMP JUMPDEST PUSH1 0x0 DUP2 SLT ISZERO PUSH2 0x4330 JUMPI PUSH1 0x0 DUP1 REVERT JUMPDEST PUSH1 0x0 PUSH2 0x433A PUSH2 0x4DAE JUMP JUMPDEST PUSH1 0x1 PUSH1 0x1 PUSH1 0xA0 SHL SUB DUP6 AND PUSH1 0x0 SWAP1 DUP2 MSTORE PUSH1 0x20 DUP3 DUP2 MSTORE PUSH1 0x40 DUP1 DUP4 KECCAK256 PUSH2 0xFFFF DUP9 AND DUP5 MSTORE SWAP1 SWAP2 MSTORE SWAP1 KECCAK256 SWAP1 SWAP2 POP PUSH2 0x436B DUP4 PUSH2 0x4DBB JUMP JUMPDEST DUP2 SLOAD PUSH1 0xA SWAP2 SWAP1 SWAP2 SIGNEXTEND PUSH1 0x1 PUSH1 0x1 PUSH1 0x58 SHL SUB AND PUSH1 0x1 PUSH1 0xA8 SHL MUL PUSH1 0x1 PUSH1 0x1 PUSH1 0xA8 SHL SUB SWAP1 SWAP2 AND OR SWAP1 SSTORE POP POP POP POP JUMP JUMPDEST PUSH1 0x0 DUP1 PUSH2 0x43A1 PUSH2 0x43C9 JUMP JUMPDEST PUSH1 0x0 SWAP4 DUP5 MSTORE PUSH1 0x20 MSTORE POP POP PUSH1 0x40 SWAP1 KECCAK256 SLOAD PUSH1 0x1 PUSH1 0x1 PUSH1 0xA0 SHL SUB AND SWAP1 JUMP JUMPDEST PUSH1 0x0 DUP1 PUSH2 0x789 PUSH1 0x22 PUSH2 0x2626 JUMP JUMPDEST PUSH1 0x0 DUP1 PUSH2 0x789 PUSH1 0x3 PUSH2 0x2626 JUMP JUMPDEST PUSH1 0x40 DUP1 MLOAD PUSH1 0x2 DUP1 DUP3 MSTORE PUSH1 0x60 DUP3 DUP2 ADD SWAP1 SWAP4 MSTORE DUP3 SWAP2 PUSH1 0x0 SWAP2 DUP2 PUSH1 0x20 ADD PUSH1 0x20 DUP3 MUL DUP1 CALLDATASIZE DUP4 CALLDATACOPY ADD SWAP1 POP POP SWAP1 POP PUSH1 0x0 PUSH2 0x440A DUP8 DUP8 PUSH2 0x44BB JUMP JUMPDEST SWAP1 POP DUP1 DUP3 PUSH1 0x0 DUP2 MLOAD DUP2 LT PUSH2 0x441A JUMPI INVALID JUMPDEST PUSH1 0x20 MUL PUSH1 0x20 ADD ADD DUP2 DUP2 MSTORE POP POP PUSH1 0x1 PUSH1 0x40 SHL DUP2 OR DUP3 PUSH1 0x1 DUP2 MLOAD DUP2 LT PUSH2 0x443A JUMPI INVALID JUMPDEST PUSH1 0x20 SWAP1 DUP2 MUL SWAP2 SWAP1 SWAP2 ADD ADD MSTORE PUSH1 0x40 DUP1 MLOAD PUSH1 0x2 DUP1 DUP3 MSTORE PUSH1 0x60 DUP3 ADD SWAP1 SWAP3 MSTORE PUSH1 0x0 SWAP2 DUP2 PUSH1 0x20 ADD PUSH1 0x20 DUP3 MUL DUP1 CALLDATASIZE DUP4 CALLDATACOPY ADD SWAP1 POP POP SWAP1 POP PUSH2 0x4473 DUP7 PUSH2 0x1C4B JUMP JUMPDEST DUP2 PUSH1 0x0 DUP2 MLOAD DUP2 LT PUSH2 0x4480 JUMPI INVALID JUMPDEST PUSH1 0x20 MUL PUSH1 0x20 ADD ADD DUP2 DUP2 MSTORE POP POP PUSH2 0x4495 DUP7 PUSH2 0x1C4B JUMP JUMPDEST DUP2 PUSH1 0x1 DUP2 MLOAD DUP2 LT PUSH2 0x44A2 JUMPI INVALID JUMPDEST PUSH1 0x20 SWAP1 DUP2 MUL SWAP2 SWAP1 SWAP2 ADD ADD MSTORE SWAP2 SWAP8 SWAP2 SWAP7 POP SWAP1 SWAP5 POP POP POP POP POP JUMP JUMPDEST PUSH8 0xFFFF000000000000 PUSH1 0x30 DUP4 SWAP1 SHL AND PUSH1 0x8 DUP3 SWAP1 SHL OR PUSH1 0x1 OR SWAP3 SWAP2 POP POP JUMP JUMPDEST PUSH1 0x0 PUSH2 0x44E3 PUSH2 0x4AB2 JUMP JUMPDEST PUSH2 0xFFFF DUP6 AND PUSH1 0x0 SWAP1 DUP2 MSTORE PUSH1 0x20 SWAP2 SWAP1 SWAP2 MSTORE PUSH1 0x40 SWAP1 KECCAK256 DUP1 SLOAD SWAP1 SWAP2 POP PUSH5 0xFFFFFFFFFF AND TIMESTAMP EQ PUSH2 0x450E JUMPI PUSH1 0x0 DUP1 REVERT JUMPDEST DUP1 SLOAD PUSH1 0x1 PUSH1 0xF8 SHL SWAP1 DIV PUSH1 0xFF AND PUSH2 0x4523 JUMPI PUSH1 0x0 DUP1 REVERT JUMPDEST PUSH1 0x1 DUP2 ADD SLOAD PUSH1 0x0 SWAP1 PUSH2 0x453E SWAP1 PUSH1 0x1 PUSH1 0x1 PUSH1 0x58 SHL SUB AND DUP6 PUSH2 0x1684 JUMP JUMPDEST DUP3 SLOAD SWAP1 SWAP2 POP PUSH1 0x0 SWAP1 PUSH2 0x4560 SWAP1 PUSH1 0x1 PUSH1 0x28 SHL SWAP1 DIV PUSH1 0x1 PUSH1 0x1 PUSH1 0x58 SHL SUB AND DUP6 PUSH2 0x1684 JUMP JUMPDEST SWAP1 POP DUP2 PUSH1 0x9 NOT SLT DUP1 ISZERO PUSH2 0x4573 JUMPI POP PUSH1 0x0 DUP3 SLT JUMPDEST ISZERO PUSH2 0x457D JUMPI PUSH1 0x0 SWAP2 POP JUMPDEST DUP1 PUSH1 0x9 NOT SLT DUP1 ISZERO PUSH2 0x458E JUMPI POP PUSH1 0x0 DUP2 SLT JUMPDEST ISZERO PUSH2 0x4597 JUMPI POP PUSH1 0x0 JUMPDEST PUSH2 0x45A3 PUSH2 0x36B7 DUP4 PUSH2 0xC77 JUMP JUMPDEST PUSH1 0x1 DUP5 ADD DUP1 SLOAD PUSH11 0xFFFFFFFFFFFFFFFFFFFFFF NOT AND PUSH1 0x1 PUSH1 0x1 PUSH1 0x58 SHL SUB SWAP3 SWAP1 SWAP3 AND SWAP2 SWAP1 SWAP2 OR SWAP1 SSTORE PUSH2 0x45D5 PUSH2 0x36B7 DUP3 PUSH2 0xC77 JUMP JUMPDEST DUP4 SLOAD PUSH1 0x1 PUSH1 0x1 PUSH1 0x58 SHL SUB SWAP2 SWAP1 SWAP2 AND PUSH1 0x1 PUSH1 0x28 SHL MUL PUSH16 0xFFFFFFFFFFFFFFFFFFFFFF0000000000 NOT SWAP1 SWAP2 AND OR DUP4 SSTORE PUSH2 0x460D DUP8 DUP8 DUP7 DUP9 PUSH2 0x27D0 JUMP JUMPDEST PUSH2 0xAC2 DUP4 PUSH2 0x4AD5 JUMP JUMPDEST PUSH1 0x0 DUP1 PUSH2 0x789 PUSH1 0x17 PUSH2 0x2626 JUMP JUMPDEST PUSH1 0x0 DUP1 PUSH2 0x789 PUSH1 0x18 PUSH2 0x2626 JUMP JUMPDEST PUSH1 0x0 PUSH2 0x463A PUSH2 0x56B8 JUMP JUMPDEST RETURNDATASIZE DUP1 ISZERO PUSH2 0x464E JUMPI PUSH1 0x20 DUP2 EQ PUSH2 0x4657 JUMPI PUSH1 0x0 DUP1 REVERT JUMPDEST PUSH1 0x1 SWAP3 POP PUSH2 0x4662 JUMP JUMPDEST PUSH1 0x20 PUSH1 0x0 DUP4 RETURNDATACOPY DUP2 MLOAD SWAP3 POP JUMPDEST POP DUP2 PUSH2 0xFB7 JUMPI PUSH1 0x40 DUP1 MLOAD PUSH3 0x461BCD PUSH1 0xE5 SHL DUP2 MSTORE PUSH1 0x20 PUSH1 0x4 DUP3 ADD MSTORE PUSH1 0x5 PUSH1 0x24 DUP3 ADD MSTORE PUSH5 0x455243323 PUSH1 0xDC SHL PUSH1 0x44 DUP3 ADD MSTORE SWAP1 MLOAD SWAP1 DUP2 SWAP1 SUB PUSH1 0x64 ADD SWAP1 REVERT JUMPDEST PUSH1 0x0 PUSH2 0x46A7 PUSH2 0x1C3E JUMP JUMPDEST PUSH2 0xFFFF DUP5 AND PUSH1 0x0 SWAP1 DUP2 MSTORE PUSH1 0x20 SWAP2 SWAP1 SWAP2 MSTORE PUSH1 0x40 SWAP1 DUP2 SWAP1 KECCAK256 SLOAD SWAP1 MLOAD PUSH4 0xAD1C095D PUSH1 0xE0 SHL DUP2 MSTORE PUSH1 0x1 PUSH1 0x1 PUSH1 0xA0 SHL SUB SWAP1 SWAP2 AND SWAP2 POP DUP2 SWAP1 PUSH4 0xAD1C095D SWAP1 PUSH2 0x46EF SWAP1 DUP8 SWAP1 DUP7 SWAP1 PUSH1 0x4 ADD PUSH2 0x5D31 JUMP JUMPDEST PUSH1 0x0 PUSH1 0x40 MLOAD DUP1 DUP4 SUB DUP2 PUSH1 0x0 DUP8 DUP1 EXTCODESIZE ISZERO DUP1 ISZERO PUSH2 0x4709 JUMPI PUSH1 0x0 DUP1 REVERT JUMPDEST POP GAS CALL ISZERO DUP1 ISZERO PUSH2 0x21E9 JUMPI RETURNDATASIZE PUSH1 0x0 DUP1 RETURNDATACOPY RETURNDATASIZE PUSH1 0x0 REVERT JUMPDEST PUSH1 0x0 PUSH2 0x4727 PUSH2 0x4851 JUMP JUMPDEST PUSH1 0x1 PUSH1 0x1 PUSH1 0xA0 SHL SUB DUP5 AND PUSH1 0x0 SWAP1 DUP2 MSTORE PUSH1 0x20 DUP3 SWAP1 MSTORE PUSH1 0x40 SWAP1 KECCAK256 SLOAD SWAP1 SWAP2 POP PUSH2 0x4750 PUSH2 0x3B1 DUP3 DUP6 PUSH2 0x1684 JUMP JUMPDEST PUSH1 0x1 PUSH1 0x1 PUSH1 0xA0 SHL SUB SWAP1 SWAP5 AND PUSH1 0x0 SWAP1 DUP2 MSTORE PUSH1 0x20 SWAP3 SWAP1 SWAP3 MSTORE POP PUSH1 0x40 SWAP1 KECCAK256 SWAP2 SWAP1 SWAP2 SSTORE POP JUMP JUMPDEST PUSH1 0x0 DUP1 PUSH2 0x477D PUSH2 0x4DED JUMP JUMPDEST PUSH1 0x0 SWAP4 DUP5 MSTORE PUSH1 0x20 MSTORE POP POP PUSH1 0x40 SWAP1 KECCAK256 SLOAD SWAP1 JUMP JUMPDEST PUSH1 0x0 PUSH3 0x76A700 DUP3 LT ISZERO PUSH2 0x47A1 JUMPI PUSH1 0x0 DUP1 REVERT JUMPDEST POP PUSH3 0x76A700 DUP2 MOD SWAP1 SUB SWAP1 JUMP JUMPDEST PUSH1 0x0 DUP2 PUSH1 0x1 EQ ISZERO PUSH2 0x47C2 JUMPI POP PUSH3 0x76A700 PUSH2 0x9EC JUMP JUMPDEST DUP2 PUSH1 0x2 EQ ISZERO PUSH2 0x47D5 JUMPI POP PUSH3 0xED4E00 PUSH2 0x9EC JUMP JUMPDEST DUP2 PUSH1 0x3 EQ ISZERO PUSH2 0x47E9 JUMPI POP PUSH4 0x1DA9C00 PUSH2 0x9EC JUMP JUMPDEST DUP2 PUSH1 0x4 EQ ISZERO PUSH2 0x47FD JUMPI POP PUSH4 0x3B53800 PUSH2 0x9EC JUMP JUMPDEST DUP2 PUSH1 0x5 EQ ISZERO PUSH2 0x4811 JUMPI POP PUSH4 0x9450C00 PUSH2 0x9EC JUMP JUMPDEST DUP2 PUSH1 0x6 EQ ISZERO PUSH2 0x4825 JUMPI POP PUSH4 0x128A1800 PUSH2 0x9EC JUMP JUMPDEST DUP2 PUSH1 0x7 EQ ISZERO PUSH2 0x4839 JUMPI POP PUSH4 0x25143000 PUSH2 0x9EC JUMP JUMPDEST PUSH1 0x40 MLOAD PUSH3 0x461BCD PUSH1 0xE5 SHL DUP2 MSTORE PUSH1 0x4 ADD PUSH2 0x1A5A SWAP1 PUSH2 0x5DEE JUMP JUMPDEST PUSH1 0x0 DUP1 PUSH2 0x789 PUSH1 0x26 PUSH2 0x2626 JUMP JUMPDEST PUSH1 0x0 DUP1 PUSH2 0x4869 PUSH2 0x4DFA JUMP JUMPDEST PUSH2 0xFFFF SWAP4 SWAP1 SWAP4 AND PUSH1 0x0 SWAP1 DUP2 MSTORE PUSH1 0x20 SWAP4 SWAP1 SWAP4 MSTORE POP POP PUSH1 0x40 SWAP1 KECCAK256 SLOAD PUSH1 0x1 PUSH1 0x1 PUSH1 0xA0 SHL SUB AND SWAP1 JUMP JUMPDEST PUSH1 0x0 DUP1 PUSH1 0x0 JUMPDEST DUP4 MLOAD DUP2 LT ISZERO PUSH2 0x4A9D JUMPI PUSH1 0x0 DUP5 DUP3 DUP2 MLOAD DUP2 LT PUSH2 0x48AB JUMPI INVALID JUMPDEST PUSH1 0x20 MUL PUSH1 0x20 ADD ADD MLOAD SWAP1 POP PUSH1 0x0 DUP2 PUSH1 0x60 ADD MLOAD PUSH1 0x1 PUSH1 0x1 PUSH1 0xA0 SHL SUB AND PUSH4 0x70A08231 ADDRESS PUSH1 0x40 MLOAD DUP3 PUSH4 0xFFFFFFFF AND PUSH1 0xE0 SHL DUP2 MSTORE PUSH1 0x4 ADD PUSH2 0x48E7 SWAP2 SWAP1 PUSH2 0x5C6B JUMP JUMPDEST PUSH1 0x20 PUSH1 0x40 MLOAD DUP1 DUP4 SUB DUP2 DUP7 DUP1 EXTCODESIZE ISZERO DUP1 ISZERO PUSH2 0x48FF JUMPI PUSH1 0x0 DUP1 REVERT JUMPDEST POP GAS STATICCALL ISZERO DUP1 ISZERO PUSH2 0x4913 JUMPI RETURNDATASIZE PUSH1 0x0 DUP1 RETURNDATACOPY RETURNDATASIZE PUSH1 0x0 REVERT JUMPDEST POP POP POP POP PUSH1 0x40 MLOAD RETURNDATASIZE PUSH1 0x1F NOT PUSH1 0x1F DUP3 ADD AND DUP3 ADD DUP1 PUSH1 0x40 MSTORE POP DUP2 ADD SWAP1 PUSH2 0x4937 SWAP2 SWAP1 PUSH2 0x5BCC JUMP JUMPDEST SWAP1 POP PUSH1 0x0 PUSH2 0x4945 DUP9 ADDRESS PUSH2 0x34CC JUMP JUMPDEST SWAP1 POP PUSH1 0x0 JUMPDEST DUP4 MLOAD MLOAD DUP2 LT ISZERO PUSH2 0x49A1 JUMPI PUSH2 0x4990 DUP5 PUSH1 0x0 ADD MLOAD DUP3 DUP2 MLOAD DUP2 LT PUSH2 0x4967 JUMPI INVALID JUMPDEST PUSH1 0x20 MUL PUSH1 0x20 ADD ADD MLOAD PUSH1 0x0 DUP7 PUSH1 0x20 ADD MLOAD DUP5 DUP2 MLOAD DUP2 LT PUSH2 0x4981 JUMPI INVALID JUMPDEST PUSH1 0x20 MUL PUSH1 0x20 ADD ADD MLOAD PUSH1 0x1 PUSH2 0x4E07 JUMP JUMPDEST PUSH2 0x4999 JUMPI PUSH1 0x1 SWAP7 POP JUMPDEST PUSH1 0x1 ADD PUSH2 0x494A JUMP JUMPDEST POP PUSH1 0x0 PUSH2 0x49AE DUP10 ADDRESS PUSH2 0x34CC JUMP JUMPDEST SWAP1 POP PUSH1 0x0 PUSH2 0x49BC DUP3 DUP5 PUSH2 0x160B JUMP JUMPDEST SWAP1 POP DUP1 DUP6 PUSH1 0x40 ADD MLOAD GT ISZERO PUSH2 0x49CF JUMPI PUSH1 0x0 DUP1 REVERT JUMPDEST PUSH1 0x60 DUP6 ADD MLOAD PUSH1 0x40 MLOAD PUSH4 0x70A08231 PUSH1 0xE0 SHL DUP2 MSTORE PUSH1 0x0 SWAP2 PUSH1 0x1 PUSH1 0x1 PUSH1 0xA0 SHL SUB AND SWAP1 PUSH4 0x70A08231 SWAP1 PUSH2 0x4A02 SWAP1 ADDRESS SWAP1 PUSH1 0x4 ADD PUSH2 0x5C6B JUMP JUMPDEST PUSH1 0x20 PUSH1 0x40 MLOAD DUP1 DUP4 SUB DUP2 DUP7 DUP1 EXTCODESIZE ISZERO DUP1 ISZERO PUSH2 0x4A1A JUMPI PUSH1 0x0 DUP1 REVERT JUMPDEST POP GAS STATICCALL ISZERO DUP1 ISZERO PUSH2 0x4A2E JUMPI RETURNDATASIZE PUSH1 0x0 DUP1 RETURNDATACOPY RETURNDATASIZE PUSH1 0x0 REVERT JUMPDEST POP POP POP POP PUSH1 0x40 MLOAD RETURNDATASIZE PUSH1 0x1F NOT PUSH1 0x1F DUP3 ADD AND DUP3 ADD DUP1 PUSH1 0x40 MSTORE POP DUP2 ADD SWAP1 PUSH2 0x4A52 SWAP2 SWAP1 PUSH2 0x5BCC JUMP JUMPDEST SWAP1 POP DUP5 DUP2 GT ISZERO PUSH2 0x4A61 JUMPI PUSH1 0x0 DUP1 REVERT JUMPDEST PUSH2 0x4A70 DUP7 PUSH1 0x60 ADD MLOAD DUP7 DUP4 PUSH2 0x3576 JUMP JUMPDEST PUSH2 0x4A7A DUP9 DUP4 PUSH2 0xE93 JUMP JUMPDEST SWAP8 POP PUSH2 0x4A8B DUP12 PUSH1 0x0 ADD MLOAD DUP6 DUP6 PUSH2 0x3576 JUMP JUMPDEST POP POP PUSH1 0x1 SWAP1 SWAP5 ADD SWAP4 POP PUSH2 0x4894 SWAP3 POP POP POP JUMP JUMPDEST POP SWAP3 POP SWAP3 SWAP1 POP JUMP JUMPDEST PUSH1 0x0 DUP1 PUSH2 0x789 PUSH1 0x7 PUSH2 0x2626 JUMP JUMPDEST PUSH1 0x0 DUP1 PUSH2 0x789 PUSH1 0x1D PUSH2 0x2626 JUMP JUMPDEST PUSH1 0x0 PUSH1 0x1 PUSH1 0x1 PUSH1 0x58 SHL SUB DUP3 GT ISZERO PUSH2 0xC86 JUMPI PUSH1 0x0 DUP1 REVERT JUMPDEST DUP1 SLOAD PUSH1 0x2 DUP3 ADD SLOAD PUSH1 0x0 SWAP2 PUSH2 0x4B17 SWAP2 PUSH1 0x1 PUSH1 0x28 SHL SWAP1 SWAP2 DIV PUSH1 0x1 PUSH1 0x1 PUSH1 0x58 SHL SUB AND SWAP1 PUSH2 0x4B11 SWAP1 PUSH1 0x1 PUSH1 0x1 PUSH1 0x50 SHL SUB PUSH1 0x1 PUSH1 0x50 SHL DUP3 DIV DUP2 AND SWAP2 AND PUSH2 0x1636 JUMP JUMPDEST SWAP1 PUSH2 0x1636 JUMP JUMPDEST PUSH1 0x1 DUP4 ADD SLOAD PUSH1 0x2 DUP5 ADD SLOAD SWAP2 SWAP3 POP PUSH1 0x0 SWAP2 PUSH2 0x4B51 SWAP2 PUSH1 0x1 PUSH1 0x1 PUSH1 0x58 SHL SUB AND SWAP1 PUSH2 0x4B11 SWAP1 PUSH1 0x1 PUSH1 0x1 PUSH1 0x50 SHL SUB PUSH1 0x1 PUSH1 0xA0 SHL DUP3 DIV DUP2 AND SWAP2 AND PUSH2 0x1636 JUMP JUMPDEST DUP4 SLOAD SWAP1 SWAP2 POP PUSH1 0x0 SWAP1 PUSH2 0x4B88 SWAP1 PUSH1 0x1 PUSH1 0x1 PUSH1 0x1 PUSH1 0x58 SHL SUB PUSH1 0x1 PUSH1 0x80 SHL SWAP1 SWAP3 DIV DUP3 AND ADD AND PUSH15 0xC097CE7BC90715B34B9F1000000000 PUSH2 0x1636 JUMP JUMPDEST SWAP1 POP DUP1 PUSH2 0x4B95 DUP5 DUP5 PUSH2 0x2706 JUMP JUMPDEST SGT ISZERO PUSH2 0xB72 JUMPI PUSH1 0x0 DUP1 REVERT JUMPDEST PUSH1 0x0 PUSH2 0x4BAA PUSH2 0x1C3E JUMP JUMPDEST PUSH2 0xFFFF DUP6 AND PUSH1 0x0 SWAP1 DUP2 MSTORE PUSH1 0x20 SWAP2 SWAP1 SWAP2 MSTORE PUSH1 0x40 SWAP1 DUP2 SWAP1 KECCAK256 SLOAD SWAP1 MLOAD PUSH4 0x1CEF4BA3 PUSH1 0xE1 SHL DUP2 MSTORE PUSH1 0x1 PUSH1 0x1 PUSH1 0xA0 SHL SUB SWAP1 SWAP2 AND SWAP2 POP DUP2 SWAP1 PUSH4 0x39DE9746 SWAP1 PUSH2 0x28AA SWAP1 DUP10 SWAP1 DUP10 SWAP1 DUP9 SWAP1 DUP9 SWAP1 PUSH1 0x4 ADD PUSH2 0x5CBD JUMP JUMPDEST PUSH1 0x0 DUP1 PUSH2 0x789 PUSH1 0x1E PUSH2 0x2626 JUMP JUMPDEST PUSH1 0x0 DUP3 PUSH2 0x4C35 JUMPI PUSH2 0x4C12 PUSH2 0x1C3E JUMP JUMPDEST PUSH2 0xFFFF DUP4 AND PUSH1 0x0 SWAP1 DUP2 MSTORE PUSH1 0x20 SWAP2 SWAP1 SWAP2 MSTORE PUSH1 0x40 SWAP1 KECCAK256 SLOAD PUSH1 0x1 PUSH1 0x1 PUSH1 0xA0 SHL SUB AND PUSH2 0xEA5 JUMP JUMPDEST PUSH2 0x4C3D PUSH2 0x43BC JUMP JUMPDEST PUSH2 0xFFFF DUP4 AND PUSH1 0x0 SWAP1 DUP2 MSTORE PUSH1 0x20 SWAP2 SWAP1 SWAP2 MSTORE PUSH1 0x40 SWAP1 KECCAK256 SLOAD PUSH1 0x1 PUSH1 0x1 PUSH1 0xA0 SHL SUB AND SWAP1 POP SWAP3 SWAP2 POP POP JUMP JUMPDEST PUSH1 0x0 DUP1 PUSH1 0x0 DUP1 PUSH1 0x0 DUP1 PUSH2 0x4C76 DUP10 DUP9 PUSH2 0x5075 JUMP JUMPDEST DUP10 MLOAD SWAP1 SWAP6 POP SWAP2 SWAP4 POP SWAP2 POP PUSH1 0x0 SWAP1 PUSH2 0x4C9D SWAP1 PUSH2 0x4C92 SWAP1 DUP12 SWAP1 PUSH2 0x160B JUMP JUMPDEST PUSH4 0x3B9ACA00 SWAP1 PUSH2 0x2530 JUMP JUMPDEST SWAP1 POP PUSH2 0x4CD7 PUSH2 0x4CCC PUSH4 0x1DA9C00 PUSH2 0x4CB4 DUP6 DUP6 PUSH2 0x2530 JUMP JUMPDEST DUP2 PUSH2 0x4CBB JUMPI INVALID JUMPDEST PUSH8 0xDE0B6B3A7640000 SWAP2 SWAP1 DIV PUSH2 0xE93 JUMP JUMPDEST PUSH1 0xE0 DUP11 ADD MLOAD SWAP1 PUSH2 0x4D91 JUMP JUMPDEST SWAP7 POP PUSH2 0x4CF9 PUSH2 0x4CEE PUSH4 0x1DA9C00 PUSH2 0x4CB4 DUP8 DUP6 PUSH2 0x2530 JUMP JUMPDEST PUSH1 0xC0 DUP11 ADD MLOAD SWAP1 PUSH2 0x4D91 JUMP JUMPDEST SWAP6 POP DUP2 DUP4 EQ ISZERO PUSH2 0x4D10 JUMPI POP PUSH1 0x0 SWAP4 POP PUSH2 0x4D6B SWAP2 POP POP JUMP JUMPDEST PUSH1 0x0 PUSH2 0x4D32 PUSH2 0x4D27 PUSH4 0x1DA9C00 PUSH2 0x4CB4 DUP8 DUP7 PUSH2 0x2530 JUMP JUMPDEST PUSH1 0xE0 DUP12 ADD MLOAD SWAP1 PUSH2 0x4D91 JUMP JUMPDEST SWAP1 POP PUSH1 0x0 PUSH2 0x4D40 DUP10 DUP4 PUSH2 0x160B JUMP JUMPDEST SWAP1 POP PUSH2 0x4D63 DUP9 PUSH2 0x4D5D DUP4 DUP14 PUSH1 0x40 ADD MLOAD PUSH2 0x2530 SWAP1 SWAP2 SWAP1 PUSH4 0xFFFFFFFF AND JUMP JUMPDEST SWAP1 PUSH2 0x5110 JUMP JUMPDEST SWAP7 POP POP POP POP POP POP JUMPDEST SWAP4 POP SWAP4 POP SWAP4 POP SWAP4 JUMP JUMPDEST PUSH1 0x0 PUSH2 0xEA5 PUSH2 0x4D8B DUP5 PUSH8 0xDE0B6B3A7640000 PUSH2 0x2530 JUMP JUMPDEST DUP4 PUSH2 0x5110 JUMP JUMPDEST PUSH1 0x0 PUSH2 0xEA5 PUSH2 0x4DA0 DUP5 DUP5 PUSH2 0x2530 JUMP JUMPDEST PUSH8 0xDE0B6B3A7640000 PUSH2 0x5110 JUMP JUMPDEST PUSH1 0x0 DUP1 PUSH2 0x789 PUSH1 0x6 PUSH2 0x2626 JUMP JUMPDEST PUSH1 0x0 PUSH11 0x7FFFFFFFFFFFFFFFFFFFFF NOT DUP3 SLT DUP1 ISZERO SWAP1 PUSH2 0x4DE4 JUMPI POP PUSH11 0x7FFFFFFFFFFFFFFFFFFFFF DUP3 SGT ISZERO JUMPDEST PUSH2 0xC86 JUMPI PUSH1 0x0 DUP1 REVERT JUMPDEST PUSH1 0x0 DUP1 PUSH2 0x789 PUSH1 0x9 PUSH2 0x2626 JUMP JUMPDEST PUSH1 0x0 DUP1 PUSH2 0x789 PUSH1 0x1F PUSH2 0x2626 JUMP JUMPDEST PUSH1 0x0 DUP1 PUSH1 0x0 DUP7 PUSH1 0x1 PUSH1 0x1 PUSH1 0xA0 SHL SUB AND DUP7 DUP7 PUSH1 0x40 MLOAD DUP1 DUP3 DUP1 MLOAD SWAP1 PUSH1 0x20 ADD SWAP1 DUP1 DUP4 DUP4 JUMPDEST PUSH1 0x20 DUP4 LT PUSH2 0x4E47 JUMPI DUP1 MLOAD DUP3 MSTORE PUSH1 0x1F NOT SWAP1 SWAP3 ADD SWAP2 PUSH1 0x20 SWAP2 DUP3 ADD SWAP2 ADD PUSH2 0x4E28 JUMP JUMPDEST PUSH1 0x1 DUP4 PUSH1 0x20 SUB PUSH2 0x100 EXP SUB DUP1 NOT DUP3 MLOAD AND DUP2 DUP5 MLOAD AND DUP1 DUP3 OR DUP6 MSTORE POP POP POP POP POP POP SWAP1 POP ADD SWAP2 POP POP PUSH1 0x0 PUSH1 0x40 MLOAD DUP1 DUP4 SUB DUP2 DUP6 DUP8 GAS CALL SWAP3 POP POP POP RETURNDATASIZE DUP1 PUSH1 0x0 DUP2 EQ PUSH2 0x4EA9 JUMPI PUSH1 0x40 MLOAD SWAP2 POP PUSH1 0x1F NOT PUSH1 0x3F RETURNDATASIZE ADD AND DUP3 ADD PUSH1 0x40 MSTORE RETURNDATASIZE DUP3 MSTORE RETURNDATASIZE PUSH1 0x0 PUSH1 0x20 DUP5 ADD RETURNDATACOPY PUSH2 0x4EAE JUMP JUMPDEST PUSH1 0x60 SWAP2 POP JUMPDEST POP SWAP2 POP SWAP2 POP DUP4 PUSH2 0x4F51 JUMPI DUP2 PUSH2 0x4EC2 DUP3 PUSH2 0x512F JUMP JUMPDEST SWAP1 PUSH2 0x4F4B JUMPI PUSH1 0x40 MLOAD PUSH3 0x461BCD PUSH1 0xE5 SHL DUP2 MSTORE PUSH1 0x4 ADD DUP1 DUP1 PUSH1 0x20 ADD DUP3 DUP2 SUB DUP3 MSTORE DUP4 DUP2 DUP2 MLOAD DUP2 MSTORE PUSH1 0x20 ADD SWAP2 POP DUP1 MLOAD SWAP1 PUSH1 0x20 ADD SWAP1 DUP1 DUP4 DUP4 PUSH1 0x0 JUMPDEST DUP4 DUP2 LT ISZERO PUSH2 0x4F10 JUMPI DUP2 DUP2 ADD MLOAD DUP4 DUP3 ADD MSTORE PUSH1 0x20 ADD PUSH2 0x4EF8 JUMP JUMPDEST POP POP POP POP SWAP1 POP SWAP1 DUP2 ADD SWAP1 PUSH1 0x1F AND DUP1 ISZERO PUSH2 0x4F3D JUMPI DUP1 DUP3 SUB DUP1 MLOAD PUSH1 0x1 DUP4 PUSH1 0x20 SUB PUSH2 0x100 EXP SUB NOT AND DUP2 MSTORE PUSH1 0x20 ADD SWAP2 POP JUMPDEST POP SWAP3 POP POP POP PUSH1 0x40 MLOAD DUP1 SWAP2 SUB SWAP1 REVERT JUMPDEST POP PUSH2 0x30D6 JUMP JUMPDEST DUP7 PUSH1 0x1 PUSH1 0x1 PUSH1 0xA0 SHL SUB AND PUSH32 0x3C7E398C5E91088CAE639370E35B25EA669D81FBDF0DEF5388E73661BC34E08E DUP8 DUP8 PUSH2 0x4F87 DUP6 PUSH2 0x512F JUMP JUMPDEST PUSH1 0x40 MLOAD DUP1 DUP5 DUP2 MSTORE PUSH1 0x20 ADD DUP1 PUSH1 0x20 ADD DUP1 PUSH1 0x20 ADD DUP4 DUP2 SUB DUP4 MSTORE DUP6 DUP2 DUP2 MLOAD DUP2 MSTORE PUSH1 0x20 ADD SWAP2 POP DUP1 MLOAD SWAP1 PUSH1 0x20 ADD SWAP1 DUP1 DUP4 DUP4 PUSH1 0x0 JUMPDEST DUP4 DUP2 LT ISZERO PUSH2 0x4FCE JUMPI DUP2 DUP2 ADD MLOAD DUP4 DUP3 ADD MSTORE PUSH1 0x20 ADD PUSH2 0x4FB6 JUMP JUMPDEST POP POP POP POP SWAP1 POP SWAP1 DUP2 ADD SWAP1 PUSH1 0x1F AND DUP1 ISZERO PUSH2 0x4FFB JUMPI DUP1 DUP3 SUB DUP1 MLOAD PUSH1 0x1 DUP4 PUSH1 0x20 SUB PUSH2 0x100 EXP SUB NOT AND DUP2 MSTORE PUSH1 0x20 ADD SWAP2 POP JUMPDEST POP DUP4 DUP2 SUB DUP3 MSTORE DUP5 MLOAD DUP2 MSTORE DUP5 MLOAD PUSH1 0x20 SWAP2 DUP3 ADD SWAP2 DUP7 ADD SWAP1 DUP1 DUP4 DUP4 PUSH1 0x0 JUMPDEST DUP4 DUP2 LT ISZERO PUSH2 0x502E JUMPI DUP2 DUP2 ADD MLOAD DUP4 DUP3 ADD MSTORE PUSH1 0x20 ADD PUSH2 0x5016 JUMP JUMPDEST POP POP POP POP SWAP1 POP SWAP1 DUP2 ADD SWAP1 PUSH1 0x1F AND DUP1 ISZERO PUSH2 0x505B JUMPI DUP1 DUP3 SUB DUP1 MLOAD PUSH1 0x1 DUP4 PUSH1 0x20 SUB PUSH2 0x100 EXP SUB NOT AND DUP2 MSTORE PUSH1 0x20 ADD SWAP2 POP JUMPDEST POP SWAP6 POP POP POP POP POP POP PUSH1 0x40 MLOAD DUP1 SWAP2 SUB SWAP1 LOG2 POP SWAP6 SWAP5 POP POP POP POP POP JUMP JUMPDEST PUSH1 0x0 DUP1 PUSH1 0x0 DUP1 PUSH1 0x0 DUP6 PUSH1 0x20 ADD MLOAD GT ISZERO PUSH2 0x50C2 JUMPI PUSH2 0x50BF PUSH2 0x50A6 DUP7 PUSH1 0xC0 ADD MLOAD DUP8 PUSH1 0x20 ADD MLOAD PUSH2 0x2530 SWAP1 SWAP2 SWAP1 PUSH4 0xFFFFFFFF AND JUMP JUMPDEST PUSH1 0xE0 DUP8 ADD MLOAD PUSH1 0x40 DUP9 ADD MLOAD PUSH2 0x50B9 SWAP2 PUSH2 0x2530 JUMP JUMPDEST SWAP1 PUSH2 0x5236 JUMP JUMPDEST SWAP1 POP JUMPDEST PUSH1 0x0 PUSH2 0x50CD DUP8 PUSH2 0x5249 JUMP JUMPDEST SWAP1 POP PUSH2 0x50D9 DUP2 DUP4 PUSH2 0x527C JUMP JUMPDEST SWAP5 POP DUP2 ISZERO PUSH2 0x50F0 JUMPI PUSH2 0x50ED DUP2 DUP7 PUSH1 0x1 PUSH2 0x532F JUMP JUMPDEST SWAP4 POP JUMPDEST PUSH1 0x20 DUP7 ADD MLOAD ISZERO PUSH2 0x5107 JUMPI PUSH2 0x5104 DUP6 DUP4 PUSH2 0x53A9 JUMP JUMPDEST SWAP3 POP JUMPDEST POP POP SWAP3 POP SWAP3 POP SWAP3 JUMP JUMPDEST PUSH1 0x0 DUP1 DUP3 GT PUSH2 0x511E JUMPI PUSH1 0x0 DUP1 REVERT JUMPDEST DUP2 DUP4 DUP2 PUSH2 0x5127 JUMPI INVALID JUMPDEST DIV SWAP4 SWAP3 POP POP POP JUMP JUMPDEST PUSH1 0x60 PUSH1 0x44 DUP3 MLOAD LT ISZERO PUSH2 0x5165 JUMPI POP PUSH1 0x40 DUP1 MLOAD DUP1 DUP3 ADD SWAP1 SWAP2 MSTORE PUSH1 0xD DUP2 MSTORE PUSH13 0x14DA5B195B9D0814995D995C9D PUSH1 0x9A SHL PUSH1 0x20 DUP3 ADD MSTORE PUSH2 0x9EC JUMP JUMPDEST PUSH1 0x4 DUP3 ADD DUP1 MLOAD SWAP1 SWAP3 PUSH1 0x24 ADD SWAP1 PUSH1 0x20 DUP2 LT ISZERO PUSH2 0x517F JUMPI PUSH1 0x0 DUP1 REVERT JUMPDEST DUP2 ADD SWAP1 DUP1 DUP1 MLOAD PUSH1 0x40 MLOAD SWAP4 SWAP3 SWAP2 SWAP1 DUP5 PUSH5 0x100000000 DUP3 GT ISZERO PUSH2 0x519F JUMPI PUSH1 0x0 DUP1 REVERT JUMPDEST SWAP1 DUP4 ADD SWAP1 PUSH1 0x20 DUP3 ADD DUP6 DUP2 GT ISZERO PUSH2 0x51B4 JUMPI PUSH1 0x0 DUP1 REVERT JUMPDEST DUP3 MLOAD PUSH5 0x100000000 DUP2 GT DUP3 DUP3 ADD DUP9 LT OR ISZERO PUSH2 0x51CE JUMPI PUSH1 0x0 DUP1 REVERT JUMPDEST DUP3 MSTORE POP DUP2 MLOAD PUSH1 0x20 SWAP2 DUP3 ADD SWAP3 SWAP1 SWAP2 ADD SWAP1 DUP1 DUP4 DUP4 PUSH1 0x0 JUMPDEST DUP4 DUP2 LT ISZERO PUSH2 0x51FB JUMPI DUP2 DUP2 ADD MLOAD DUP4 DUP3 ADD MSTORE PUSH1 0x20 ADD PUSH2 0x51E3 JUMP JUMPDEST POP POP POP POP SWAP1 POP SWAP1 DUP2 ADD SWAP1 PUSH1 0x1F AND DUP1 ISZERO PUSH2 0x5228 JUMPI DUP1 DUP3 SUB DUP1 MLOAD PUSH1 0x1 DUP4 PUSH1 0x20 SUB PUSH2 0x100 EXP SUB NOT AND DUP2 MSTORE PUSH1 0x20 ADD SWAP2 POP JUMPDEST POP PUSH1 0x40 MSTORE POP POP POP SWAP1 POP SWAP2 SWAP1 POP JUMP JUMPDEST PUSH1 0x0 PUSH2 0xEA5 PUSH2 0x4D8B DUP5 PUSH4 0x3B9ACA00 PUSH2 0x2530 JUMP JUMPDEST PUSH2 0x5251 PUSH2 0x56D6 JUMP JUMPDEST PUSH1 0x0 PUSH2 0x525B PUSH2 0x53C2 JUMP JUMPDEST PUSH2 0xFFFF DUP5 AND PUSH1 0x0 SWAP1 DUP2 MSTORE PUSH1 0x20 SWAP2 SWAP1 SWAP2 MSTORE PUSH1 0x40 DUP2 KECCAK256 SLOAD SWAP2 POP PUSH2 0xEA5 SWAP1 DUP3 PUSH2 0x53CF JUMP JUMPDEST PUSH1 0x0 DUP1 DUP4 PUSH1 0x80 ADD MLOAD GT PUSH2 0x528E JUMPI PUSH1 0x0 DUP1 REVERT JUMPDEST PUSH4 0x3B9ACA00 DUP3 GT ISZERO PUSH2 0x529F JUMPI PUSH1 0x0 DUP1 REVERT JUMPDEST DUP3 MLOAD DUP3 GT PUSH2 0x52BE JUMPI DUP3 MLOAD PUSH1 0x40 DUP5 ADD MLOAD PUSH2 0x1D7A SWAP2 SWAP1 PUSH2 0x4D5D SWAP1 DUP6 SWAP1 PUSH2 0x2530 JUMP JUMPDEST DUP3 PUSH1 0x20 ADD MLOAD DUP3 GT PUSH2 0x52F6 JUMPI PUSH1 0x40 DUP4 ADD MLOAD DUP4 MLOAD PUSH1 0x20 DUP6 ADD MLOAD PUSH1 0x60 DUP7 ADD MLOAD PUSH2 0x1D7A SWAP4 SWAP3 PUSH2 0x17F5 SWAP3 DUP2 SWAP1 SUB SWAP2 PUSH2 0x4D5D SWAP2 DUP9 SUB SWAP1 DUP6 SWAP1 SUB PUSH2 0x2530 JUMP JUMPDEST PUSH2 0xEA5 DUP4 PUSH1 0x60 ADD MLOAD PUSH2 0x17F5 DUP6 PUSH1 0x20 ADD MLOAD PUSH4 0x3B9ACA00 SUB PUSH2 0x4D5D DUP8 PUSH1 0x60 ADD MLOAD DUP9 PUSH1 0x80 ADD MLOAD SUB DUP9 PUSH1 0x20 ADD MLOAD DUP9 SUB PUSH2 0x2530 SWAP1 SWAP2 SWAP1 PUSH4 0xFFFFFFFF AND JUMP JUMPDEST PUSH1 0x0 DUP1 PUSH2 0x534E PUSH1 0x64 PUSH2 0x4D5D DUP8 PUSH1 0xE0 ADD MLOAD DUP8 PUSH2 0x2530 SWAP1 SWAP2 SWAP1 PUSH4 0xFFFFFFFF AND JUMP JUMPDEST SWAP1 POP DUP5 PUSH1 0xA0 ADD MLOAD DUP2 LT ISZERO PUSH2 0x5363 JUMPI POP PUSH1 0xA0 DUP5 ADD MLOAD JUMPDEST DUP5 PUSH1 0xC0 ADD MLOAD DUP2 GT ISZERO PUSH2 0x5376 JUMPI POP PUSH1 0xC0 DUP5 ADD MLOAD JUMPDEST DUP3 ISZERO PUSH2 0x538D JUMPI PUSH2 0x5386 DUP5 DUP3 PUSH2 0xE93 JUMP JUMPDEST SWAP2 POP PUSH2 0x53A1 JUMP JUMPDEST DUP4 DUP2 GT PUSH2 0x539C JUMPI DUP1 DUP5 SUB PUSH2 0xD70 JUMP JUMPDEST PUSH1 0x0 SWAP2 POP JUMPDEST POP SWAP4 SWAP3 POP POP POP JUMP JUMPDEST PUSH1 0x0 PUSH2 0xEA5 PUSH2 0x53B8 DUP5 DUP5 PUSH2 0x2530 JUMP JUMPDEST PUSH4 0x3B9ACA00 PUSH2 0x5110 JUMP JUMPDEST PUSH1 0x0 DUP1 PUSH2 0x789 PUSH1 0x1B PUSH2 0x2626 JUMP JUMPDEST PUSH2 0x53D7 PUSH2 0x56D6 JUMP JUMPDEST PUSH1 0x64 PUSH4 0x3B9ACA00 DUP4 PUSH1 0xFF DUP7 AND PUSH1 0x20 DUP2 LT PUSH2 0x53ED JUMPI INVALID JUMPDEST BYTE MUL DUP2 PUSH2 0x53F6 JUMPI INVALID JUMPDEST DIV DUP2 MSTORE PUSH1 0x64 PUSH4 0x3B9ACA00 DUP4 PUSH1 0xFF DUP7 AND PUSH1 0x1 ADD PUSH1 0x20 DUP2 LT PUSH2 0x5412 JUMPI INVALID JUMPDEST BYTE MUL DUP2 PUSH2 0x541B JUMPI INVALID JUMPDEST DIV DUP2 PUSH1 0x20 ADD DUP2 DUP2 MSTORE POP POP PUSH2 0x5440 DUP3 PUSH1 0x2 DUP6 PUSH1 0xFF AND ADD PUSH1 0x20 DUP2 LT PUSH2 0x543A JUMPI INVALID JUMPDEST BYTE PUSH2 0x54EE JUMP JUMPDEST PUSH1 0x80 DUP3 ADD DUP2 SWAP1 MSTORE PUSH2 0x100 SWAP1 DUP4 PUSH1 0xFF DUP7 AND PUSH1 0x3 ADD PUSH1 0x20 DUP2 LT PUSH2 0x545D JUMPI INVALID JUMPDEST BYTE MUL DUP2 PUSH2 0x5466 JUMPI INVALID JUMPDEST DIV PUSH1 0x40 DUP3 ADD MSTORE PUSH1 0x80 DUP2 ADD MLOAD PUSH2 0x100 SWAP1 DUP4 PUSH1 0xFF DUP7 AND PUSH1 0x4 ADD PUSH1 0x20 DUP2 LT PUSH2 0x5487 JUMPI INVALID JUMPDEST BYTE MUL DUP2 PUSH2 0x5490 JUMPI INVALID JUMPDEST DIV PUSH1 0x60 DUP3 ADD MSTORE PUSH3 0x7A120 DUP3 PUSH1 0xFF DUP6 AND PUSH1 0x5 ADD PUSH1 0x20 DUP2 LT PUSH2 0x54AC JUMPI INVALID JUMPDEST BYTE MUL PUSH1 0xA0 DUP3 ADD MSTORE PUSH3 0x2625A0 DUP3 PUSH1 0xFF DUP6 AND PUSH1 0x6 ADD PUSH1 0x20 DUP2 LT PUSH2 0x54C9 JUMPI INVALID JUMPDEST BYTE MUL PUSH1 0xC0 DUP3 ADD MSTORE DUP2 PUSH1 0xFF DUP5 AND PUSH1 0x7 ADD PUSH1 0x20 DUP2 LT PUSH2 0x54E2 JUMPI INVALID JUMPDEST BYTE PUSH1 0xE0 DUP3 ADD MSTORE SWAP3 SWAP2 POP POP JUMP JUMPDEST PUSH1 0x0 DUP2 PUSH1 0xFF AND PUSH1 0x96 LT PUSH2 0x5509 JUMPI PUSH1 0xFF DUP3 AND PUSH3 0x2625A0 MUL PUSH2 0x9E9 JUMP JUMPDEST POP PUSH1 0x95 NOT PUSH1 0xFF SWAP2 SWAP1 SWAP2 AND ADD PUSH3 0xE4E1C0 MUL PUSH4 0x165A0BC0 ADD SWAP1 JUMP JUMPDEST PUSH1 0x40 MLOAD DUP1 PUSH2 0x1E0 ADD PUSH1 0x40 MSTORE DUP1 PUSH1 0x0 PUSH1 0x1 PUSH1 0x1 PUSH1 0xA0 SHL SUB AND DUP2 MSTORE PUSH1 0x20 ADD PUSH1 0x0 PUSH2 0xFFFF AND DUP2 MSTORE PUSH1 0x20 ADD PUSH1 0x0 PUSH2 0xFFFF AND DUP2 MSTORE PUSH1 0x20 ADD PUSH1 0x0 DUP2 MSTORE PUSH1 0x20 ADD PUSH1 0x0 DUP2 MSTORE PUSH1 0x20 ADD PUSH1 0x0 DUP2 MSTORE PUSH1 0x20 ADD PUSH1 0x0 DUP2 MSTORE PUSH1 0x20 ADD PUSH1 0x0 DUP2 MSTORE PUSH1 0x20 ADD PUSH1 0x0 DUP2 MSTORE PUSH1 0x20 ADD PUSH1 0x0 DUP2 MSTORE PUSH1 0x20 ADD PUSH2 0x558D PUSH2 0x571B JUMP JUMPDEST DUP2 MSTORE PUSH1 0x20 ADD PUSH2 0x559A PUSH2 0x5624 JUMP JUMPDEST DUP2 MSTORE PUSH1 0x20 ADD PUSH1 0x0 DUP2 MSTORE PUSH1 0x20 ADD PUSH2 0x55AE PUSH2 0x571B JUMP JUMPDEST DUP2 MSTORE PUSH1 0x20 ADD PUSH1 0x0 DUP2 MSTORE POP SWAP1 JUMP JUMPDEST PUSH1 0x40 MLOAD DUP1 PUSH1 0xC0 ADD PUSH1 0x40 MSTORE DUP1 PUSH1 0x0 DUP2 MSTORE PUSH1 0x20 ADD PUSH1 0x0 DUP2 MSTORE PUSH1 0x20 ADD PUSH1 0x0 DUP2 MSTORE PUSH1 0x20 ADD PUSH1 0x0 PUSH1 0x1 PUSH1 0x1 PUSH1 0xA0 SHL SUB AND DUP2 MSTORE PUSH1 0x20 ADD PUSH1 0x0 DUP2 MSTORE PUSH1 0x20 ADD PUSH1 0x0 DUP2 MSTORE POP SWAP1 JUMP JUMPDEST PUSH1 0x40 MLOAD DUP1 PUSH1 0x80 ADD PUSH1 0x40 MSTORE DUP1 PUSH1 0x0 DUP2 MSTORE PUSH1 0x20 ADD PUSH1 0x0 DUP2 MSTORE PUSH1 0x20 ADD PUSH1 0x0 DUP2 MSTORE PUSH1 0x20 ADD PUSH1 0x0 ISZERO ISZERO DUP2 MSTORE POP SWAP1 JUMP JUMPDEST PUSH1 0x40 MLOAD DUP1 PUSH1 0x60 ADD PUSH1 0x40 MSTORE DUP1 PUSH1 0x0 DUP2 MSTORE PUSH1 0x20 ADD PUSH1 0x0 DUP2 MSTORE PUSH1 0x20 ADD PUSH1 0x0 DUP2 MSTORE POP SWAP1 JUMP JUMPDEST PUSH1 0x40 DUP1 MLOAD PUSH1 0xA0 DUP2 ADD DUP3 MSTORE PUSH1 0x0 DUP1 DUP3 MSTORE PUSH1 0x20 DUP3 ADD DUP2 SWAP1 MSTORE SWAP2 DUP2 ADD DUP3 SWAP1 MSTORE SWAP1 PUSH1 0x60 DUP3 ADD SWAP1 PUSH2 0x55AE JUMP JUMPDEST PUSH1 0x40 MLOAD DUP1 PUSH2 0x120 ADD PUSH1 0x40 MSTORE DUP1 PUSH1 0x0 DUP2 MSTORE PUSH1 0x20 ADD PUSH1 0x0 DUP2 MSTORE PUSH1 0x20 ADD PUSH1 0x0 DUP2 MSTORE PUSH1 0x20 ADD PUSH1 0x0 DUP2 MSTORE PUSH1 0x20 ADD PUSH1 0x0 DUP2 MSTORE PUSH1 0x20 ADD PUSH1 0x0 DUP2 MSTORE PUSH1 0x20 ADD PUSH1 0x0 DUP2 MSTORE PUSH1 0x20 ADD PUSH1 0x0 DUP2 MSTORE PUSH1 0x20 ADD PUSH1 0x0 DUP2 MSTORE POP SWAP1 JUMP JUMPDEST PUSH1 0x40 MLOAD DUP1 PUSH1 0x20 ADD PUSH1 0x40 MSTORE DUP1 PUSH1 0x1 SWAP1 PUSH1 0x20 DUP3 MUL DUP1 CALLDATASIZE DUP4 CALLDATACOPY POP SWAP2 SWAP3 SWAP2 POP POP JUMP JUMPDEST PUSH1 0x40 MLOAD DUP1 PUSH2 0x100 ADD PUSH1 0x40 MSTORE DUP1 PUSH1 0x0 DUP2 MSTORE PUSH1 0x20 ADD PUSH1 0x0 DUP2 MSTORE PUSH1 0x20 ADD PUSH1 0x0 DUP2 MSTORE PUSH1 0x20 ADD PUSH1 0x0 DUP2 MSTORE PUSH1 0x20 ADD PUSH1 0x0 DUP2 MSTORE PUSH1 0x20 ADD PUSH1 0x0 DUP2 MSTORE PUSH1 0x20 ADD PUSH1 0x0 DUP2 MSTORE PUSH1 0x20 ADD PUSH1 0x0 DUP2 MSTORE POP SWAP1 JUMP JUMPDEST PUSH1 0x40 MLOAD DUP1 PUSH1 0x40 ADD PUSH1 0x40 MSTORE DUP1 PUSH1 0x2 SWAP1 PUSH1 0x20 DUP3 MUL DUP1 CALLDATASIZE DUP4 CALLDATACOPY POP SWAP2 SWAP3 SWAP2 POP POP JUMP JUMPDEST DUP1 MLOAD PUSH2 0x9EC DUP2 PUSH2 0x5F0A JUMP JUMPDEST PUSH1 0x0 DUP3 PUSH1 0x1F DUP4 ADD SLT PUSH2 0x5754 JUMPI DUP1 DUP2 REVERT JUMPDEST DUP2 MLOAD PUSH1 0x20 PUSH2 0x5769 PUSH2 0x5764 DUP4 PUSH2 0x5EEC JUMP JUMPDEST PUSH2 0x5EC8 JUMP JUMPDEST DUP3 DUP2 MSTORE DUP2 DUP2 ADD SWAP1 DUP6 DUP4 ADD DUP4 DUP6 MUL DUP8 ADD DUP5 ADD DUP9 LT ISZERO PUSH2 0x5785 JUMPI DUP6 DUP7 REVERT JUMPDEST DUP6 JUMPDEST DUP6 DUP2 LT ISZERO PUSH2 0x57AC JUMPI DUP2 MLOAD PUSH2 0x579A DUP2 PUSH2 0x5F0A JUMP JUMPDEST DUP5 MSTORE SWAP3 DUP5 ADD SWAP3 SWAP1 DUP5 ADD SWAP1 PUSH1 0x1 ADD PUSH2 0x5787 JUMP JUMPDEST POP SWAP1 SWAP8 SWAP7 POP POP POP POP POP POP POP JUMP JUMPDEST PUSH1 0x0 PUSH1 0x1F DUP4 DUP2 DUP5 ADD SLT PUSH2 0x57CA JUMPI DUP2 DUP3 REVERT JUMPDEST DUP3 MLOAD PUSH1 0x20 PUSH2 0x57DA PUSH2 0x5764 DUP4 PUSH2 0x5EEC JUMP JUMPDEST DUP3 DUP2 MSTORE DUP2 DUP2 ADD SWAP1 DUP7 DUP4 ADD DUP7 JUMPDEST DUP6 DUP2 LT ISZERO PUSH2 0x587F JUMPI DUP2 MLOAD DUP10 ADD DUP11 PUSH1 0x3F DUP3 ADD SLT PUSH2 0x5800 JUMPI DUP9 DUP10 REVERT JUMPDEST DUP6 DUP2 ADD MLOAD PUSH8 0xFFFFFFFFFFFFFFFF DUP2 GT ISZERO PUSH2 0x5816 JUMPI INVALID JUMPDEST PUSH2 0x5827 DUP2 DUP11 ADD PUSH1 0x1F NOT AND DUP9 ADD PUSH2 0x5EC8 JUMP JUMPDEST DUP2 DUP2 MSTORE PUSH1 0x40 DUP14 DUP2 DUP5 DUP7 ADD ADD GT ISZERO PUSH2 0x583C JUMPI DUP12 DUP13 REVERT JUMPDEST DUP12 JUMPDEST DUP4 DUP2 LT ISZERO PUSH2 0x5859 JUMPI DUP5 DUP2 ADD DUP3 ADD MLOAD DUP4 DUP3 ADD DUP12 ADD MSTORE DUP10 ADD PUSH2 0x583E JUMP JUMPDEST DUP4 DUP2 GT ISZERO PUSH2 0x5869 JUMPI DUP13 DUP11 DUP6 DUP6 ADD ADD MSTORE JUMPDEST POP POP DUP7 MSTORE POP POP SWAP3 DUP5 ADD SWAP3 SWAP1 DUP5 ADD SWAP1 PUSH1 0x1 ADD PUSH2 0x57E6 JUMP JUMPDEST POP SWAP1 SWAP9 SWAP8 POP POP POP POP POP POP POP POP JUMP JUMPDEST PUSH1 0x0 DUP1 DUP4 PUSH1 0x1F DUP5 ADD SLT PUSH2 0x589E JUMPI DUP2 DUP3 REVERT JUMPDEST POP DUP2 CALLDATALOAD PUSH8 0xFFFFFFFFFFFFFFFF DUP2 GT ISZERO PUSH2 0x58B5 JUMPI DUP2 DUP3 REVERT JUMPDEST PUSH1 0x20 DUP4 ADD SWAP2 POP DUP4 PUSH1 0x20 DUP3 DUP6 ADD ADD GT ISZERO PUSH2 0x58CD JUMPI PUSH1 0x0 DUP1 REVERT JUMPDEST SWAP3 POP SWAP3 SWAP1 POP JUMP JUMPDEST DUP1 CALLDATALOAD PUSH4 0xFFFFFFFF DUP2 AND DUP2 EQ PUSH2 0x9EC JUMPI PUSH1 0x0 DUP1 REVERT JUMPDEST PUSH1 0x0 DUP1 PUSH1 0x40 DUP4 DUP6 SUB SLT ISZERO PUSH2 0x58FA JUMPI DUP2 DUP3 REVERT JUMPDEST DUP3 CALLDATALOAD PUSH2 0x5905 DUP2 PUSH2 0x5F0A JUMP JUMPDEST SWAP2 POP PUSH1 0x20 DUP4 ADD CALLDATALOAD PUSH2 0x5915 DUP2 PUSH2 0x5F0A JUMP JUMPDEST DUP1 SWAP2 POP POP SWAP3 POP SWAP3 SWAP1 POP JUMP JUMPDEST PUSH1 0x0 DUP1 PUSH1 0x0 DUP1 PUSH1 0x0 DUP1 PUSH1 0x0 DUP1 PUSH1 0xE0 DUP10 DUP12 SUB SLT ISZERO PUSH2 0x593B JUMPI DUP4 DUP5 REVERT JUMPDEST DUP9 CALLDATALOAD PUSH2 0x5946 DUP2 PUSH2 0x5F0A JUMP JUMPDEST SWAP8 POP PUSH1 0x20 DUP10 ADD CALLDATALOAD PUSH2 0x5956 DUP2 PUSH2 0x5F0A JUMP JUMPDEST SWAP7 POP PUSH1 0x40 DUP10 ADD CALLDATALOAD PUSH2 0x5966 DUP2 PUSH2 0x5F0A JUMP JUMPDEST SWAP6 POP PUSH1 0x60 DUP10 ADD CALLDATALOAD SWAP5 POP PUSH1 0x80 DUP10 ADD CALLDATALOAD SWAP4 POP PUSH2 0x5982 PUSH1 0xA0 DUP11 ADD PUSH2 0x58D4 JUMP JUMPDEST SWAP3 POP PUSH1 0xC0 DUP10 ADD CALLDATALOAD PUSH8 0xFFFFFFFFFFFFFFFF DUP2 GT ISZERO PUSH2 0x599D JUMPI DUP3 DUP4 REVERT JUMPDEST PUSH2 0x59A9 DUP12 DUP3 DUP13 ADD PUSH2 0x588D JUMP JUMPDEST SWAP10 SWAP13 SWAP9 SWAP12 POP SWAP7 SWAP10 POP SWAP5 SWAP8 SWAP4 SWAP7 SWAP3 SWAP6 SWAP5 POP POP POP JUMP JUMPDEST PUSH1 0x0 DUP1 PUSH1 0x0 DUP1 PUSH1 0x0 DUP1 PUSH1 0x0 DUP1 PUSH1 0xE0 DUP10 DUP12 SUB SLT ISZERO PUSH2 0x59D8 JUMPI DUP4 DUP5 REVERT JUMPDEST DUP9 CALLDATALOAD PUSH2 0x59E3 DUP2 PUSH2 0x5F0A JUMP JUMPDEST SWAP8 POP PUSH1 0x20 DUP10 ADD CALLDATALOAD PUSH2 0x59F3 DUP2 PUSH2 0x5F0A JUMP JUMPDEST SWAP7 POP PUSH1 0x40 DUP10 ADD CALLDATALOAD SWAP6 POP PUSH1 0x60 DUP10 ADD CALLDATALOAD SWAP5 POP PUSH1 0x80 DUP10 ADD CALLDATALOAD SWAP4 POP PUSH2 0x5982 PUSH1 0xA0 DUP11 ADD PUSH2 0x58D4 JUMP JUMPDEST PUSH1 0x0 DUP1 PUSH1 0x0 DUP1 PUSH1 0x0 DUP1 PUSH1 0x0 DUP1 PUSH1 0x0 PUSH2 0x100 DUP11 DUP13 SUB SLT ISZERO PUSH2 0x5A34 JUMPI DUP3 DUP4 REVERT JUMPDEST DUP10 CALLDATALOAD PUSH2 0x5A3F DUP2 PUSH2 0x5F0A JUMP JUMPDEST SWAP9 POP PUSH1 0x20 DUP11 ADD CALLDATALOAD PUSH2 0x5A4F DUP2 PUSH2 0x5F0A JUMP JUMPDEST SWAP8 POP PUSH1 0x40 DUP11 ADD CALLDATALOAD SWAP7 POP PUSH1 0x60 DUP11 ADD CALLDATALOAD SWAP6 POP PUSH1 0x80 DUP11 ADD CALLDATALOAD SWAP5 POP PUSH2 0x5A72 PUSH1 0xA0 DUP12 ADD PUSH2 0x58D4 JUMP JUMPDEST SWAP4 POP PUSH2 0x5A80 PUSH1 0xC0 DUP12 ADD PUSH2 0x58D4 JUMP JUMPDEST SWAP3 POP PUSH1 0xE0 DUP11 ADD CALLDATALOAD PUSH8 0xFFFFFFFFFFFFFFFF DUP2 GT ISZERO PUSH2 0x5A9B JUMPI DUP2 DUP3 REVERT JUMPDEST PUSH2 0x5AA7 DUP13 DUP3 DUP14 ADD PUSH2 0x588D JUMP JUMPDEST SWAP2 POP DUP1 SWAP4 POP POP DUP1 SWAP2 POP POP SWAP3 SWAP6 SWAP9 POP SWAP3 SWAP6 SWAP9 POP SWAP3 SWAP6 SWAP9 JUMP JUMPDEST PUSH1 0x0 PUSH1 0x20 DUP1 DUP4 DUP6 SUB SLT ISZERO PUSH2 0x5AD0 JUMPI DUP2 DUP3 REVERT JUMPDEST DUP3 MLOAD PUSH8 0xFFFFFFFFFFFFFFFF DUP1 DUP3 GT ISZERO PUSH2 0x5AE7 JUMPI DUP4 DUP5 REVERT JUMPDEST DUP2 DUP6 ADD SWAP2 POP DUP6 PUSH1 0x1F DUP4 ADD SLT PUSH2 0x5AFA JUMPI DUP4 DUP5 REVERT JUMPDEST DUP2 MLOAD PUSH2 0x5B08 PUSH2 0x5764 DUP3 PUSH2 0x5EEC JUMP JUMPDEST DUP2 DUP2 MSTORE DUP5 DUP2 ADD SWAP1 DUP5 DUP7 ADD DUP8 JUMPDEST DUP5 DUP2 LT ISZERO PUSH2 0x5BBD JUMPI DUP2 MLOAD DUP8 ADD PUSH1 0x80 DUP2 DUP14 SUB PUSH1 0x1F NOT ADD SLT ISZERO PUSH2 0x5B33 JUMPI DUP10 DUP11 REVERT JUMPDEST PUSH1 0x40 DUP1 MLOAD PUSH1 0x80 DUP2 ADD DUP2 DUP2 LT DUP11 DUP3 GT OR ISZERO PUSH2 0x5B49 JUMPI INVALID JUMPDEST DUP3 MSTORE DUP3 DUP12 ADD MLOAD DUP10 DUP2 GT ISZERO PUSH2 0x5B5B JUMPI DUP13 DUP14 REVERT JUMPDEST PUSH2 0x5B69 DUP16 DUP14 DUP4 DUP8 ADD ADD PUSH2 0x5744 JUMP JUMPDEST DUP3 MSTORE POP DUP2 DUP4 ADD MLOAD DUP10 DUP2 GT ISZERO PUSH2 0x5B7C JUMPI DUP13 DUP14 REVERT JUMPDEST PUSH2 0x5B8A DUP16 DUP14 DUP4 DUP8 ADD ADD PUSH2 0x57B9 JUMP JUMPDEST DUP13 DUP4 ADD MSTORE POP PUSH1 0x60 DUP4 ADD MLOAD DUP3 DUP3 ADD MSTORE PUSH2 0x5BA4 PUSH1 0x80 DUP5 ADD PUSH2 0x5739 JUMP JUMPDEST PUSH1 0x60 DUP3 ADD MSTORE DUP7 MSTORE POP POP SWAP3 DUP8 ADD SWAP3 SWAP1 DUP8 ADD SWAP1 PUSH1 0x1 ADD PUSH2 0x5B14 JUMP JUMPDEST POP SWAP1 SWAP10 SWAP9 POP POP POP POP POP POP POP POP POP JUMP JUMPDEST PUSH1 0x0 PUSH1 0x20 DUP3 DUP5 SUB SLT ISZERO PUSH2 0x5BDD JUMPI DUP1 DUP2 REVERT JUMPDEST POP MLOAD SWAP2 SWAP1 POP JUMP JUMPDEST PUSH1 0x0 DUP1 PUSH1 0x40 DUP4 DUP6 SUB SLT ISZERO PUSH2 0x5BF6 JUMPI DUP2 DUP3 REVERT JUMPDEST POP POP DUP1 MLOAD PUSH1 0x20 SWAP1 SWAP2 ADD MLOAD SWAP1 SWAP3 SWAP1 SWAP2 POP JUMP JUMPDEST PUSH1 0x0 DUP2 MLOAD DUP1 DUP5 MSTORE PUSH1 0x20 DUP1 DUP6 ADD SWAP5 POP DUP1 DUP5 ADD DUP4 JUMPDEST DUP4 DUP2 LT ISZERO PUSH2 0x5C36 JUMPI DUP2 MLOAD DUP8 MSTORE SWAP6 DUP3 ADD SWAP6 SWAP1 DUP3 ADD SWAP1 PUSH1 0x1 ADD PUSH2 0x5C1A JUMP JUMPDEST POP SWAP5 SWAP6 SWAP5 POP POP POP POP POP JUMP JUMPDEST PUSH1 0x0 DUP3 DUP5 MSTORE DUP3 DUP3 PUSH1 0x20 DUP7 ADD CALLDATACOPY DUP1 PUSH1 0x20 DUP5 DUP7 ADD ADD MSTORE PUSH1 0x20 PUSH1 0x1F NOT PUSH1 0x1F DUP6 ADD AND DUP6 ADD ADD SWAP1 POP SWAP4 SWAP3 POP POP POP JUMP JUMPDEST PUSH1 0x1 PUSH1 0x1 PUSH1 0xA0 SHL SUB SWAP2 SWAP1 SWAP2 AND DUP2 MSTORE PUSH1 0x20 ADD SWAP1 JUMP JUMPDEST PUSH1 0x1 PUSH1 0x1 PUSH1 0xA0 SHL SUB SWAP3 DUP4 AND DUP2 MSTORE SWAP2 AND PUSH1 0x20 DUP3 ADD MSTORE PUSH1 0x40 ADD SWAP1 JUMP JUMPDEST PUSH1 0x1 PUSH1 0x1 PUSH1 0xA0 SHL SUB SWAP4 DUP5 AND DUP2 MSTORE SWAP2 SWAP1 SWAP3 AND PUSH1 0x20 DUP3 ADD MSTORE PUSH1 0x40 DUP2 ADD SWAP2 SWAP1 SWAP2 MSTORE PUSH1 0x60 ADD SWAP1 JUMP JUMPDEST PUSH1 0x1 PUSH1 0x1 PUSH1 0xA0 SHL SUB SWAP5 DUP6 AND DUP2 MSTORE SWAP3 SWAP1 SWAP4 AND PUSH1 0x20 DUP4 ADD MSTORE PUSH1 0x40 DUP3 ADD MSTORE PUSH1 0x60 DUP2 ADD SWAP2 SWAP1 SWAP2 MSTORE PUSH1 0x80 ADD SWAP1 JUMP JUMPDEST PUSH1 0x0 PUSH1 0x1 DUP1 PUSH1 0xA0 SHL SUB DUP1 DUP11 AND DUP4 MSTORE DUP1 DUP10 AND PUSH1 0x20 DUP5 ADD MSTORE POP DUP7 PUSH1 0x40 DUP4 ADD MSTORE DUP6 PUSH1 0x60 DUP4 ADD MSTORE DUP5 PUSH1 0x80 DUP4 ADD MSTORE PUSH1 0xC0 PUSH1 0xA0 DUP4 ADD MSTORE PUSH2 0x5D24 PUSH1 0xC0 DUP4 ADD DUP5 DUP7 PUSH2 0x5C41 JUMP JUMPDEST SWAP10 SWAP9 POP POP POP POP POP POP POP POP POP JUMP JUMPDEST PUSH1 0x1 PUSH1 0x1 PUSH1 0xA0 SHL SUB SWAP3 SWAP1 SWAP3 AND DUP3 MSTORE PUSH1 0x20 DUP3 ADD MSTORE PUSH1 0x40 ADD SWAP1 JUMP JUMPDEST PUSH1 0x1 PUSH1 0x1 PUSH1 0xA0 SHL SUB SWAP4 SWAP1 SWAP4 AND DUP4 MSTORE PUSH1 0x20 DUP4 ADD SWAP2 SWAP1 SWAP2 MSTORE PUSH1 0x40 DUP3 ADD MSTORE PUSH1 0x60 ADD SWAP1 JUMP JUMPDEST PUSH1 0x0 PUSH1 0x1 DUP1 PUSH1 0xA0 SHL SUB DUP8 AND DUP3 MSTORE DUP6 PUSH1 0x20 DUP4 ADD MSTORE DUP5 PUSH1 0x40 DUP4 ADD MSTORE PUSH1 0x80 PUSH1 0x60 DUP4 ADD MSTORE PUSH2 0x5D99 PUSH1 0x80 DUP4 ADD DUP5 DUP7 PUSH2 0x5C41 JUMP JUMPDEST SWAP8 SWAP7 POP POP POP POP POP POP POP JUMP JUMPDEST PUSH1 0x0 PUSH1 0x40 DUP3 MSTORE PUSH2 0x5DB7 PUSH1 0x40 DUP4 ADD DUP6 PUSH2 0x5C07 JUMP JUMPDEST DUP3 DUP2 SUB PUSH1 0x20 DUP5 ADD MSTORE PUSH2 0xD70 DUP2 DUP6 PUSH2 0x5C07 JUMP JUMPDEST PUSH1 0x20 DUP1 DUP3 MSTORE PUSH1 0xB SWAP1 DUP3 ADD MSTORE PUSH11 0x4554482042616C616E6365 PUSH1 0xA8 SHL PUSH1 0x40 DUP3 ADD MSTORE PUSH1 0x60 ADD SWAP1 JUMP JUMPDEST PUSH1 0x20 DUP1 DUP3 MSTORE PUSH1 0xD SWAP1 DUP3 ADD MSTORE PUSH13 0x92DCECC2D8D2C840D2DCC8CAF PUSH1 0x9B SHL PUSH1 0x40 DUP3 ADD MSTORE PUSH1 0x60 ADD SWAP1 JUMP JUMPDEST PUSH1 0x20 DUP1 DUP3 MSTORE PUSH1 0xC SWAP1 DUP3 ADD MSTORE PUSH12 0x4D6178204361706163697479 PUSH1 0xA0 SHL PUSH1 0x40 DUP3 ADD MSTORE PUSH1 0x60 ADD SWAP1 JUMP JUMPDEST PUSH1 0x20 DUP1 DUP3 MSTORE PUSH1 0xA SWAP1 DUP3 ADD MSTORE PUSH10 0x4D696E20426F72726F77 PUSH1 0xB0 SHL PUSH1 0x40 DUP3 ADD MSTORE PUSH1 0x60 ADD SWAP1 JUMP JUMPDEST PUSH2 0xFFFF SWAP4 SWAP1 SWAP4 AND DUP4 MSTORE PUSH1 0x1 PUSH1 0x1 PUSH1 0xA0 SHL SUB SWAP2 SWAP1 SWAP2 AND PUSH1 0x20 DUP4 ADD MSTORE PUSH1 0x40 DUP3 ADD MSTORE PUSH1 0x60 ADD SWAP1 JUMP JUMPDEST SWAP1 DUP2 MSTORE PUSH1 0x20 ADD SWAP1 JUMP JUMPDEST SWAP2 DUP3 MSTORE PUSH1 0x20 DUP3 ADD MSTORE PUSH1 0x40 ADD SWAP1 JUMP JUMPDEST SWAP3 DUP4 MSTORE PUSH1 0x20 DUP4 ADD SWAP2 SWAP1 SWAP2 MSTORE PUSH1 0x40 DUP3 ADD MSTORE PUSH1 0x60 ADD SWAP1 JUMP JUMPDEST SWAP2 DUP3 MSTORE PUSH1 0x1 PUSH1 0x1 PUSH1 0x50 SHL SUB AND PUSH1 0x20 DUP3 ADD MSTORE PUSH1 0x40 ADD SWAP1 JUMP JUMPDEST PUSH1 0x40 MLOAD DUP2 DUP2 ADD PUSH8 0xFFFFFFFFFFFFFFFF DUP2 GT DUP3 DUP3 LT OR ISZERO PUSH2 0x5EE4 JUMPI INVALID JUMPDEST PUSH1 0x40 MSTORE SWAP2 SWAP1 POP JUMP JUMPDEST PUSH1 0x0 PUSH8 0xFFFFFFFFFFFFFFFF DUP3 GT ISZERO PUSH2 0x5F00 JUMPI INVALID JUMPDEST POP PUSH1 0x20 SWAP1 DUP2 MUL ADD SWAP1 JUMP JUMPDEST PUSH1 0x1 PUSH1 0x1 PUSH1 0xA0 SHL SUB DUP2 AND DUP2 EQ PUSH2 0x5F1F JUMPI PUSH1 0x0 DUP1 REVERT JUMPDEST POP JUMP INVALID 0x4A CODECOPY 0xDC MOD 0xD4 0xC0 0xDB 0xC6 0x4B PUSH17 0xAF90FD698A233A518AA5D07E595D983B8C SDIV 0x26 0xC8 0xF7 0xFB 0xC3 0xD5 DUP2 PUSH9 0xC5AE7397731D063D5B 0xBF RETURNDATASIZE PUSH6 0x7854427343F4 0xC0 DUP4 0x24 0xF PUSH27 0xACAA2D0F62A2646970667358221220C5251D7210E2BA924C1CA5A1 0xC4 REVERT PUSH27 0x1195D92BC9846A7FAC09A5C08FFEB5E7D64736F6C634300070600 CALLER ","sha1":"6845d5950a2c9d008244af4426428414cf87f235","source":"// SPDX-License-Identifier: BSUL-1.1\npragma solidity =0.7.6;\npragma abicoder v2;\n\nimport {\n    VaultAccount,\n    VaultState,\n    PrimeRate,\n    VaultConfig\n} from \"../../global/Types.sol\";\nimport {Constants} from \"../../global/Constants.sol\";\nimport {SafeUint256} from \"../../math/SafeUint256.sol\";\nimport {SafeInt256} from \"../../math/SafeInt256.sol\";\n\nimport {Emitter} from \"../../internal/Emitter.sol\";\nimport {PrimeRateLib} from \"../../internal/pCash/PrimeRateLib.sol\";\nimport {VaultConfiguration} from \"../../internal/vaults/VaultConfiguration.sol\";\nimport {VaultAccountLib} from \"../../internal/vaults/VaultAccount.sol\";\nimport {VaultValuation} from \"../../internal/vaults/VaultValuation.sol\";\nimport {VaultStateLib, VaultState} from \"../../internal/vaults/VaultState.sol\";\n\nimport {ActionGuards} from \"./ActionGuards.sol\";\nimport {TradingAction} from \"./TradingAction.sol\";\nimport {IVaultAccountAction, IVaultAccountHealth} from \"../../../interfaces/notional/IVaultController.sol\";\n\ncontract VaultAccountAction is ActionGuards, IVaultAccountAction {\n    using VaultConfiguration for VaultConfig;\n    using VaultAccountLib for VaultAccount;\n    using VaultStateLib for VaultState;\n    using PrimeRateLib for PrimeRate;\n    using SafeInt256 for int256;\n    using SafeUint256 for uint256;\n\n    /// @notice Settles a matured vault account by transforming it from an fCash maturity into\n    /// a prime cash account. This method is not authenticated, anyone can settle a vault account\n    /// without permission. Generally speaking, this action is economically equivalent no matter\n    /// when it is called. In some edge conditions when the vault is holding prime cash, it is\n    /// advantageous for the vault account to have this called sooner. All vault account actions\n    /// will first settle the vault account before taking any further actions.\n    /// @param account the address to settle\n    /// @param vault the vault the account is in\n    function settleVaultAccount(address account, address vault) external override nonReentrant {\n        requireValidAccount(account);\n        require(account != vault);\n\n        VaultConfig memory vaultConfig = VaultConfiguration.getVaultConfigStateful(vault);\n        VaultAccount memory vaultAccount = VaultAccountLib.getVaultAccount(account, vaultConfig);\n        \n        // Require that the account settled, otherwise we may leave the account in an unintended\n        // state in this method because we allow it to skip the min borrow check in the next line.\n        require(vaultAccount.settleVaultAccount(vaultConfig));\n\n        vaultAccount.accruePrimeCashFeesToDebt(vaultConfig);\n        vaultAccount.setVaultAccountInSettlement(vaultConfig);\n    }\n\n    /// @notice Borrows a specified amount of fCash in the vault's borrow currency and deposits it\n    /// all plus the depositAmountExternal into the vault to mint strategy tokens.\n    /// @param account the address that will enter the vault\n    /// @param vault the vault to enter\n    /// @param depositAmountExternal some amount of additional collateral in the borrowed currency\n    /// to be transferred to vault\n    /// @param maturity the maturity to borrow at\n    /// @param borrowAmount amount to borrow, for fCash maturities this is the fCash amount. For pCash\n    /// maturities this is the underlying borrowed.\n    /// @param maxBorrowRate maximum interest rate to borrow at, only applies as a slippage limit for\n    /// fCash maturities\n    /// @param vaultData additional data to pass to the vault contract\n    /// @return vaultSharesAdded the total vault shares tokens added to the maturity. Allows enterVault\n    /// to be used by off-chain methods to get an accurate simulation of the strategy tokens minted.\n    function enterVault(\n        address account,\n        address vault,\n        uint256 depositAmountExternal,\n        uint256 maturity,\n        uint256 borrowAmount,\n        uint32 maxBorrowRate,\n        bytes calldata vaultData\n    ) external payable override nonReentrant returns (uint256 vaultSharesAdded) { \n        // Ensure that system level accounts cannot enter vaults\n        requireValidAccount(account);\n        require(account != vault);\n\n        VaultConfig memory vaultConfig = VaultConfiguration.getVaultConfigStateful(vault);\n        vaultConfig.authorizeCaller(account, VaultConfiguration.ONLY_VAULT_ENTRY);\n\n        // If the vault allows further re-entrancy then set the status back to the default\n        if (vaultConfig.getFlag(VaultConfiguration.ALLOW_REENTRANCY)) {\n            reentrancyStatus = _NOT_ENTERED;\n        }\n\n        // Vaults cannot be entered if they are paused or matured\n        require(vaultConfig.getFlag(VaultConfiguration.ENABLED));\n        require(block.timestamp < maturity);\n\n        VaultAccount memory vaultAccount = VaultAccountLib.getVaultAccount(account, vaultConfig);\n        vaultAccount.settleAccountOrAccruePrimeCashFees(vaultConfig);\n\n        // Accounts can only call enter vault when establishing a new account or increasing an existing\n        // position. Accounts that have matured fCash positions can increase their prime cash position.\n        require(vaultAccount.maturity == 0 || vaultAccount.maturity == maturity); // dev: cannot enter with matured position\n\n        // Deposits some amount of tokens into as margin for the vault. The tokens are first transferred into Notional\n        // and then withdrawn as prime cash when entering the vault\n        vaultConfig.depositMarginForVault(vaultAccount, depositAmountExternal);\n\n        vaultSharesAdded = vaultAccount.borrowAndEnterVault(\n            vaultConfig, maturity, borrowAmount, maxBorrowRate, vaultData, 0\n        );\n\n        IVaultAccountHealth(address(this)).checkVaultAccountCollateralRatio(vault, account);\n    }\n\n    /// @notice Re-enters the vault at a different maturity. The account's existing borrow position will be closed\n    /// and a new borrow position at the specified maturity will be opened. Strategy token holdings will transfer\n    /// to the new maturity. Accounts can roll to longer or shorter dated maturities.\n    /// @param account the address that will reenter the vault\n    /// @param vault the vault to reenter\n    /// @param newBorrowAmount amount of fCash to borrow in the next maturity\n    /// @param maturity new maturity to borrow at\n    /// @param depositAmountExternal amount to deposit into the new maturity\n    /// @param minLendRate slippage protection for repaying debts\n    /// @param maxBorrowRate slippage protection for new borrow position\n    /// @return vaultSharesAdded the total strategy tokens added to the maturity, including any tokens\n    /// rolled from the previous maturity. Allows rollVaultPosition to be used by off-chain methods to get\n    /// an accurate simulation of the strategy tokens minted.\n    function rollVaultPosition(\n        address account,\n        address vault,\n        uint256 newBorrowAmount,\n        uint256 maturity,\n        uint256 depositAmountExternal,\n        uint32 minLendRate,\n        uint32 maxBorrowRate,\n        bytes calldata enterVaultData\n    ) external payable override nonReentrant returns (uint256 vaultSharesAdded) {\n        VaultConfig memory vaultConfig = VaultConfiguration.getVaultConfigStateful(vault);\n        vaultConfig.authorizeCaller(account, VaultConfiguration.ONLY_VAULT_ROLL);\n\n        // If the vault allows further re-entrancy then set the status back to the default\n        if (vaultConfig.getFlag(VaultConfiguration.ALLOW_REENTRANCY)) {\n            reentrancyStatus = _NOT_ENTERED;\n        }\n\n        // If the vault account has matured, this will return a vault account in the prime cash\n        // maturity. The vault account may have some temporary cash balance that will be applied\n        // to lending or borrowing.\n        VaultAccount memory vaultAccount = VaultAccountLib.getVaultAccount(account, vaultConfig);\n        vaultAccount.settleAccountOrAccruePrimeCashFees(vaultConfig);\n\n        // Cannot roll unless all of these requirements are met\n        require(vaultConfig.getFlag(VaultConfiguration.ENABLED));\n        require(vaultConfig.getFlag(VaultConfiguration.ALLOW_ROLL_POSITION));\n        // Must borrow into the new maturity, otherwise account should exit\n        require(newBorrowAmount > 0);\n        // Cannot roll into the existing maturity, after settlement this will be the prime cash maturity\n        require(vaultAccount.maturity != maturity);\n        require(block.timestamp < maturity); // dev: cannot roll to matured\n\n        // VaultState must be loaded after settleAccountOrAccruePrimeCashFees\n        VaultState memory vaultState = VaultStateLib.getVaultState(vaultConfig, vaultAccount.maturity);\n        // Exit the maturity pool by removing all the vault shares.\n        vaultSharesAdded = vaultAccount.vaultShares;\n        vaultState.exitMaturity(vaultAccount, vaultConfig, vaultAccount.vaultShares);\n\n        // Exit the vault first and debit the temporary cash balance with the cost to exit\n        vaultAccount.lendToExitVault(\n            vaultConfig,\n            vaultState,\n            vaultAccount.accountDebtUnderlying.neg(), // must fully exit the fCash position\n            minLendRate,\n            block.timestamp\n        );\n\n        // This should never be the case for a healthy vault account due to the mechanics of exiting the vault\n        // above but we check it for safety here.\n        require(vaultAccount.accountDebtUnderlying == 0);\n        vaultState.setVaultState(vaultConfig);\n\n        // Takes a deposit from the user as repayment for the lending, allows an account to roll their position\n        // even if they are close to the max borrow capacity.\n        vaultConfig.depositMarginForVault(vaultAccount, depositAmountExternal);\n\n        // Enters the vault at the longer dated maturity. The account is required to borrow at this\n        // point due  to the requirement earlier in this method, they cannot enter the maturity\n        // with below minAccountBorrowSize\n        vaultSharesAdded = vaultAccount.borrowAndEnterVault(\n            vaultConfig,\n            maturity, // This is the new maturity to enter\n            newBorrowAmount,\n            maxBorrowRate,\n            enterVaultData,\n            vaultSharesAdded\n        );\n\n        // emit VaultRollPosition(vault, account, maturity, newBorrowAmount);\n        IVaultAccountHealth(address(this)).checkVaultAccountCollateralRatio(vault, account);\n    }\n\n    /// @notice Allows an account to withdraw their position from the vault at any time. Will\n    /// redeem some number of vault shares to the borrow currency and close the borrow position by\n    /// lending. Any shortfall in cash from lending will be transferred from the account, any excess\n    /// profits will be transferred to the account.\n    /// @param account the address that will exit the vault\n    /// @param vault the vault to enter\n    /// @param receiver the address that will receive profits\n    /// @param vaultSharesToRedeem amount of vault tokens to exit, only relevant when exiting pre-maturity\n    /// @param lendAmount amount of fCash to lend if fixed, amount of underlying to lend if in pCash\n    /// @param minLendRate the minimum rate to lend at\n    /// @param exitVaultData passed to the vault during exit\n    /// @return underlyingToReceiver amount of underlying tokens returned to the receiver on exit\n    function exitVault(\n        address account,\n        address vault,\n        address receiver,\n        uint256 vaultSharesToRedeem,\n        uint256 lendAmount,\n        uint32 minLendRate,\n        bytes calldata exitVaultData\n    ) external payable override nonReentrant returns (uint256 underlyingToReceiver) {\n        VaultConfig memory vaultConfig = VaultConfiguration.getVaultConfigStateful(vault);\n        vaultConfig.authorizeCaller(account, VaultConfiguration.ONLY_VAULT_EXIT);\n\n        // If the vault allows further re-entrancy then set the status back to the default\n        if (vaultConfig.getFlag(VaultConfiguration.ALLOW_REENTRANCY)) {\n            reentrancyStatus = _NOT_ENTERED;\n        }\n\n        VaultAccount memory vaultAccount = VaultAccountLib.getVaultAccount(account, vaultConfig);\n        require(vaultAccount.lastUpdateBlockTime + Constants.VAULT_ACCOUNT_MIN_TIME <= block.timestamp);\n\n        // Do this after the check above to ensure that the lastUpdateBlockTime is enforced\n        vaultAccount.settleAccountOrAccruePrimeCashFees(vaultConfig);\n\n        // Vault state must be loaded after settleAccountOrAccruePrimeCashFees\n        VaultState memory vaultState = VaultStateLib.getVaultState(vaultConfig, vaultAccount.maturity);\n        if (vaultAccount.maturity == Constants.PRIME_CASH_VAULT_MATURITY && lendAmount == type(uint256).max) {\n            // Since prime cash values are rebasing it is difficult to calculate a full repayment off chain. If\n            // the vault account is in the prime cash maturity the uint256 max value signifies a full repayment\n            lendAmount = vaultAccount.accountDebtUnderlying.neg().toUint();\n        }\n\n        // Puts a negative cash balance on the vault's temporary cash balance\n        vaultAccount.lendToExitVault(\n            vaultConfig, vaultState, lendAmount.toInt(), minLendRate, block.timestamp\n        );\n        vaultState.exitMaturity(vaultAccount, vaultConfig, vaultSharesToRedeem);\n\n        if (vaultAccount.tempCashBalance > 0) {\n            Emitter.emitTransferPrimeCash(\n                vault, receiver, vaultConfig.borrowCurrencyId, vaultAccount.tempCashBalance\n            );\n\n            underlyingToReceiver = VaultConfiguration.transferFromNotional(\n                receiver, vaultConfig.borrowCurrencyId, vaultAccount.tempCashBalance, vaultConfig.primeRate, false\n            );\n\n            vaultAccount.tempCashBalance = 0;\n        }\n\n        // If insufficient strategy tokens are redeemed (or if it is set to zero), then\n        // redeem with debt repayment will recover the repayment from the account's wallet\n        // directly.\n        underlyingToReceiver = underlyingToReceiver.add(vaultConfig.redeemWithDebtRepayment(\n            vaultAccount, receiver, vaultSharesToRedeem, exitVaultData\n        ));\n\n        // Set the vault state after redemption completes\n        vaultState.setVaultState(vaultConfig);\n\n        if (vaultAccount.accountDebtUnderlying == 0 && vaultAccount.vaultShares == 0) {\n            // If the account has no position in the vault at this point, set the maturity to zero as well\n            vaultAccount.maturity = 0;\n        }\n        vaultAccount.setVaultAccount({vaultConfig: vaultConfig, checkMinBorrow: true, emitEvents: true});\n\n        // It's possible that the user redeems more vault shares than they lend (it is not always the case\n        // that they will be increasing their collateral ratio here, so we check that this is the case). No\n        // need to check if the account has exited in full (maturity == 0).\n        if (vaultAccount.maturity != 0) {\n            IVaultAccountHealth(address(this)).checkVaultAccountCollateralRatio(vault, account);\n        }\n    }\n\n    function getLibInfo() external pure returns (address) {\n        return address(TradingAction);\n    }\n}\n","sourcePath":"contracts/external/actions/VaultAccountAction.sol","type":"contract","deployment":{"address":"0x63757F772B8aab66F4dE09617e8F257249EFcb93","chainid":"5","blockHeight":10202784}}