{"abi":[{"inputs":[{"internalType":"address","name":"account","type":"address"},{"components":[{"internalType":"enum DepositActionType","name":"actionType","type":"uint8"},{"internalType":"uint16","name":"currencyId","type":"uint16"},{"internalType":"uint256","name":"depositActionAmount","type":"uint256"},{"internalType":"uint256","name":"withdrawAmountInternalPrecision","type":"uint256"},{"internalType":"bool","name":"withdrawEntireCashBalance","type":"bool"},{"internalType":"bool","name":"redeemToUnderlying","type":"bool"}],"internalType":"struct BalanceAction[]","name":"actions","type":"tuple[]"}],"name":"batchBalanceAction","outputs":[],"stateMutability":"payable","type":"function"},{"inputs":[{"internalType":"address","name":"account","type":"address"},{"components":[{"internalType":"enum DepositActionType","name":"actionType","type":"uint8"},{"internalType":"uint16","name":"currencyId","type":"uint16"},{"internalType":"uint256","name":"depositActionAmount","type":"uint256"},{"internalType":"uint256","name":"withdrawAmountInternalPrecision","type":"uint256"},{"internalType":"bool","name":"withdrawEntireCashBalance","type":"bool"},{"internalType":"bool","name":"redeemToUnderlying","type":"bool"},{"internalType":"bytes32[]","name":"trades","type":"bytes32[]"}],"internalType":"struct BalanceActionWithTrades[]","name":"actions","type":"tuple[]"}],"name":"batchBalanceAndTradeAction","outputs":[],"stateMutability":"payable","type":"function"},{"inputs":[{"internalType":"address","name":"account","type":"address"},{"components":[{"internalType":"enum DepositActionType","name":"actionType","type":"uint8"},{"internalType":"uint16","name":"currencyId","type":"uint16"},{"internalType":"uint256","name":"depositActionAmount","type":"uint256"},{"internalType":"uint256","name":"withdrawAmountInternalPrecision","type":"uint256"},{"internalType":"bool","name":"withdrawEntireCashBalance","type":"bool"},{"internalType":"bool","name":"redeemToUnderlying","type":"bool"},{"internalType":"bytes32[]","name":"trades","type":"bytes32[]"}],"internalType":"struct BalanceActionWithTrades[]","name":"actions","type":"tuple[]"},{"internalType":"bytes","name":"callbackData","type":"bytes"}],"name":"batchBalanceAndTradeActionWithCallback","outputs":[],"stateMutability":"payable","type":"function"},{"inputs":[{"internalType":"address","name":"account","type":"address"},{"components":[{"internalType":"uint16","name":"currencyId","type":"uint16"},{"internalType":"bool","name":"depositUnderlying","type":"bool"},{"internalType":"bytes32[]","name":"trades","type":"bytes32[]"}],"internalType":"struct BatchLend[]","name":"actions","type":"tuple[]"}],"name":"batchLend","outputs":[],"stateMutability":"nonpayable","type":"function"},{"inputs":[],"name":"getLibInfo","outputs":[{"internalType":"address","name":"","type":"address"},{"internalType":"address","name":"","type":"address"},{"internalType":"address","name":"","type":"address"},{"internalType":"address","name":"","type":"address"},{"internalType":"address","name":"","type":"address"},{"internalType":"address","name":"","type":"address"}],"stateMutability":"pure","type":"function"},{"inputs":[],"name":"owner","outputs":[{"internalType":"address","name":"","type":"address"}],"stateMutability":"view","type":"function"},{"inputs":[],"name":"pauseGuardian","outputs":[{"internalType":"address","name":"","type":"address"}],"stateMutability":"view","type":"function"},{"inputs":[],"name":"pauseRouter","outputs":[{"internalType":"address","name":"","type":"address"}],"stateMutability":"view","type":"function"}],"bytecode":"608060405234801561001057600080fd5b50615c3b80620000216000396000f3fe60806040526004361061007b5760003560e01c80636e6a32a61161004e5780636e6a32a6146100f357806382463367146101065780638da5cb5b1461011b578063c4c96dae146101305761007b565b80630276b64b1461008057806324a3d62214610095578063541f5270146100c05780635950d8e9146100e0575b600080fd5b61009361008e3660046150e6565b610157565b005b3480156100a157600080fd5b506100aa6101d4565b6040516100b7919061571e565b60405180910390f35b3480156100cc57600080fd5b506100936100db366004615260565b6101e3565b6100936100ee366004615138565b61056f565b6100936101013660046151de565b61069f565b34801561011257600080fd5b506100aa610812565b34801561012757600080fd5b506100aa610821565b34801561013c57600080fd5b50610145610838565b6040516100b79695949392919061577b565b6002600a54141561016757600080fd5b6002600a556001600160a01b03831633148061018257503330145b6101a75760405162461bcd60e51b815260040161019e90615943565b60405180910390fd5b6101b0836108be565b60006101bd84848461093d565b90506101c98482610b60565b50506001600a555050565b6002546001600160a01b031681565b6002600a5414156101f357600080fd5b6002600a556001600160a01b03831633148061020e57503330145b61022a5760405162461bcd60e51b815260040161019e90615943565b610233836108be565b600061023e84610be1565b905060006102528583604001516000610c9d565b905061025c614c11565b60005b848110156104bc573686868381811061027457fe5b90506020028101906102869190615b7a565b905081156102ef5786866001840381811061029d57fe5b90506020028101906102af9190615b7a565b6102bd906020810190615585565b61ffff166102ce6020830183615585565b61ffff16116102ef5760405162461bcd60e51b815260040161019e906159d7565b60006102fe6040830183615b15565b9150508061030b57600080fd5b60005b8181101561034e5760006103256040850185615b15565b8381811061032f57fe5b9050602002013560f81c60ff161461034657600080fd5b60010161030e565b50610369896103606020850185615585565b86919089610d2f565b61038e8961037a6020850185615585565b6103876040860186615b15565b8a8a610d50565b606086018290529550600012156103a457600080fd5b60006103c96103c486606001518760200151610ef690919063ffffffff16565b610f12565b90506000811315610495576000806103f06103e76020870187615585565b61ffff16610f20565b9050600061041661040f858a6101200151610f3390919063ffffffff16565b8390610f65565b905061042860408701602088016153a6565b156104415761043a888e836000610fa1565b9250610471565b61046e8d610466600161046061045a60208c018c615585565b86610ff4565b90610ef6565b8a91906110aa565b92505b838312156104915760405162461bcd60e51b815260040161019e90615ac8565b5050505b6104a0858b89611185565b84516101208601516104b1916111a3565b50505060010161025f565b506104c6836111e4565b61055857604051635c5763b360e01b815273__SettleAssetsExternal__________________90635c5763b390610505908990879087906004016157eb565b60c06040518083038186803b15801561051d57600080fd5b505af4158015610531573d6000803e3d6000fd5b505050506040513d601f19601f820116820180604052508101906105559190615428565b92505b6105628684610b60565b50506001600a5550505050565b3360009081526008602052604090205460ff1661059e5760405162461bcd60e51b815260040161019e90615943565b6105a7856108be565b60006105b486868661093d565b90506105c081876111f1565b60405163550d065760e11b8152339063aa1a0cae906105e99083908a9088908890600401615732565b600060405180830381600087803b15801561060357600080fd5b505af1158015610617573d6000803e3d6000fd5b5050505060208101516001600160f81b0319161561069757604051636ccc642f60e01b815273__FreeCollateralExternal________________90636ccc642f9061066690899060040161571e565b60006040518083038186803b15801561067e57600080fd5b505af4158015610692573d6000803e3d6000fd5b505050505b505050505050565b6002600a5414156106af57600080fd5b6002600a556001600160a01b0383163314806106ca57503330145b6106e65760405162461bcd60e51b815260040161019e90615943565b6106ef836108be565b60006106fa84610be1565b9050610704614c11565b60005b838110156107fb573685858381811061071c57fe5b905060c00201905060008211156107895785856001840381811061073c57fe5b905060c0020160200160208101906107549190615585565b61ffff166107686040830160208401615585565b61ffff16116107895760405162461bcd60e51b815260040161019e906159d7565b6107a68761079d6040840160208501615585565b85919087610d2f565b6107c287846107b860208501856153c2565b846040013561130e565b6107f287858560608501356107dd60a08701608088016153a6565b6107ed60c0880160a089016153a6565b6113dc565b50600101610707565b506108068583610b60565b50506001600a55505050565b6001546001600160a01b031681565b60005464010000000090046001600160a01b031681565b73__FreeCollateralExternal________________73__MigrateIncentives_____________________73__SettleAssetsExternal__________________73__TradingAction_________________________73__nTokenMintAction______________________73__nTokenRedeemAction____________________909192939495565b6001600160a01b0381166108d157600080fd5b6001600160a01b038116610fee14156108e957600080fd5b6001600160a01b0381166105e7141561090157600080fd5b6001600160a01b03811630141561091757600080fd5b60006109228261147f565b5050505061ffff1690508060001461093957600080fd5b5050565b610945614c6d565b600061095085610be1565b905061095a614c11565b600061096c8784604001516000610c9d565b905060005b85811015610ab7573687878381811061098657fe5b90506020028101906109989190615b5b565b90508115610a07578787600184038181106109af57fe5b90506020028101906109c19190615b5b565b6109d2906040810190602001615585565b61ffff166109e66040830160208401615585565b61ffff1611610a075760405162461bcd60e51b815260040161019e906159d7565b610a2489610a1b6040840160208501615585565b86919088610d2f565b610a3689856107b860208501856153c2565b6000610a4560c0830183615b15565b90501115610a93576000610a778a610a636040850160208601615585565b610a7060c0860186615b15565b8a89610d50565b6060870151909550909150610a8c9082610ef6565b6060860152505b610aae89868660608501356107dd60a08701608088016153a6565b50600101610971565b50610ac1836111e4565b610b5357604051635c5763b360e01b815273__SettleAssetsExternal__________________90635c5763b390610b00908a90879086906004016157eb565b60c06040518083038186803b158015610b1857600080fd5b505af4158015610b2c573d6000803e3d6000fd5b505050506040513d601f19601f82011682018060405250810190610b509190615428565b92505b50909150505b9392505050565b610b6a81836111f1565b60208101516001600160f81b0319161561093957604051636ccc642f60e01b815273__FreeCollateralExternal________________90636ccc642f90610bb590859060040161571e565b60006040518083038186803b158015610bcd57600080fd5b505af4158015610697573d6000803e3d6000fd5b610be9614c6d565b6000610bf4836114e8565b9050610bff81611596565b15610c95576040516337b5fc2160e11b815273__SettleAssetsExternal__________________90636f6bf84290610c3d90869085906004016157ce565b60c06040518083038186803b158015610c5557600080fd5b505af4158015610c69573d6000803e3d6000fd5b505050506040513d601f19601f82011682018060405250810190610c8d9190615428565b915050610c98565b90505b919050565b610ca5614ca2565b610cad614ca2565b60ff8416610cbc579050610b59565b610cc685856115e7565b815260ff84166060820152826001600160401b0381118015610ce757600080fd5b50604051908082528060200260200182016040528015610d2157816020015b610d0e614cca565b815260200190600190039081610d065790505b506020820152949350505050565b610d38826115f3565b610120850152610d4a84848484611605565b50505050565b6000610d5a614ca2565b610d63846111e4565b15610e53578661ffff16846060015161ffff1614610d935760405162461bcd60e51b815260040161019e90615a6d565b60608401518451604051633643f39b60e01b815260009273__TradingAction_________________________92633643f39b92610dda928e9290918d908d906004016158b8565b604080518083038186803b158015610df157600080fd5b505af4158015610e05573d6000803e3d6000fd5b505050506040513d601f19601f82011682018060405250810190610e2991906153f9565b90935090508015610e4d57602085018051600160f81b176001600160f81b03191690525b50610eeb565b60405163b58f83ed60e01b815273__TradingAction_________________________9063b58f83ed90610e92908b908b9088908c908c90600401615840565b60006040518083038186803b158015610eaa57600080fd5b505af4158015610ebe573d6000803e3d6000fd5b505050506040513d6000823e601f3d908101601f19168201604052610ee691908101906154ca565b925090505b965096945050505050565b81810182811215600083121514610f0c57600080fd5b92915050565b6000610c95600019836116ad565b610f28614d09565b610c958260016116fb565b6000610b596ec097ce7bc90715b34b9f1000000000610f5f8560000151856116ad90919063ffffffff16565b90611795565b60006305f5e10083604001511215610f8d57610f86600161046085856117c6565b9050610f0c565b610b5983610f9c846001610ef6565b6117c6565b600082610fb057506000610fec565b60008313610fbd57600080fd5b610fd384866000015185886101200151866117fe565b6060870151909250610fe6915082610ef6565b60608601525b949350505050565b6000806110048461ffff166118c0565b5090506000816001600160a01b0316631ee108336040518163ffffffff1660e01b8152600401602060405180830381600087803b15801561104457600080fd5b505af1158015611058573d6000803e3d6000fd5b505050506040513d601f19601f8201168201806040525081019061107c91906153e1565b90506000811361108b57600080fd5b6110a181610f5f86670de0b6b3a76400006116ad565b95945050505050565b6000816110b957506000610b59565b600082136110c657600080fd5b60006110d9856000015161ffff166118f7565b80519091506001600160a01b03166110f057600080fd5b60018160600151600581111561110257fe5b148061111d575060028160600151600581111561111b57fe5b145b156111555784516101208601516111399183918690889061190a565b606086015190925061114b9083610ef6565b606086015261117d565b60048160600151600581111561116757fe5b141561007b5761117a8585856000610fa1565b91505b509392505050565b60808301511561119457600080fd5b610d4a8383836000600161199b565b6000806111b08484611b4b565b9150915081600014156111c4575050610939565b81811115610d4a5760405162461bcd60e51b815260040161019e9061591a565b6060015161ffff16151590565b60006111fb611bbc565b6001600160a01b03831660008181526020838152604080832088518154938a01518a84015160608c015160808d015160a08e015164ffffffffff1990981664ffffffffff9095169490941765ff00000000001916600160281b60f89490941c939093029290921766ff0000000000001916600160301b60ff909216919091021768ffff000000000000001916600160381b61ffff90921691909102177affffffffffffffffffffffffffffffffffff0000000000000000001916600160481b60709290921c919091021760ff60d81b1916600160d81b93151593909302929092179091555192935090917f6bd4b121bca854a191536a2ca891155c42ee2fb23f307fb34e8bc65cfcb5412e9190a2505050565b600061131982611bc9565b905060008082121561132a57600080fd5b600084600681111561133857fe5b1415611345575050610d4a565b600184600681111561135357fe5b148061136a5750600384600681111561136857fe5b145b156113815761137a8587846110aa565b90506113cf565b600284600681111561138f57fe5b14806113a6575060048460068111156113a457fe5b145b156113b85761137a8587846000610fa1565b60068460068111156113c657fe5b14156113cf5750805b6106978686868585611be3565b60006113e784611bc9565b905060008112156113f757600080fd5b845161ffff1660011461142157816114215760405162461bcd60e51b815260040161019e90615a01565b8215611449576060850151602086015161143a91610ef6565b90506000811215611449575060005b61145281610f12565b60808601526114648588888515611dfc565b508451610120860151611476916111a3565b50505050505050565b600080600080600080611490611e0c565b6001600160a01b039097166000908152602097909752505060409094205461ffff81169563ffffffff62010000830481169650600160301b830416945060ff600160501b8304169350600160581b90910460d81b9150565b6114f0614c6d565b60006114fa611bbc565b6001600160a01b03841660009081526020918252604090819020815160c081018352905464ffffffffff811682526001600160f81b0319600160281b820460f81b169382019390935260ff600160301b840481169282019290925261ffff600160381b84041660608201526001600160701b0319600160481b840460701b166080820152600160d81b90920416151560a0820152915050919050565b6000426115a2836111e4565b156115c3576115b081611e19565b835164ffffffffff16109150610c989050565b825164ffffffffff1615801590610c8d5750825164ffffffffff1611159050610c98565b606061117d8383611e37565b6115fb614d38565b610c958242611e58565b8161ffff16600010801561161f5750613fff61ffff831611155b61162857600080fd5b61ffff821680855261163b908290611f19565b1561166a576116508383866101200151611fa3565b61010088015260e087015260408601526020850152611688565b6000602085018190526040850181905260e085018190526101008501525b50506000606083018190526080830181905260a0830181905260c09092019190915250565b8181026000198314156116dd578115806116cf5750828282816116cc57fe5b05145b6116d857600080fd5b610f0c565b8215806116f25750818382816116ef57fe5b05145b610f0c57600080fd5b611703614d09565b600061170d61205d565b6000858152602082815260408083208715158452825291829020825160a08101845281546001600160a01b038116825260ff600160a01b82048116151594830194909452600160b01b81048416600a0a9482019490945293945092916060830191600160a81b90910416600581111561178257fe5b8152600060209091015295945050505050565b6000816000191480156117ab5750600160ff1b83145b156117b557600080fd5b8183816117be57fe5b059392505050565b60006305f5e100836040015114156117df575080610f0c565b610b596305f5e100610f5f8560400151856116ad90919063ffffffff16565b600080600061180c8661206a565b9050806118205760008092509250506118b6565b600061182f8861ffff16610f20565b905060038160600151600581111561184357fe5b141561188a57348210156118635761185e8983340387612079565b611882565b3482146118825760405162461bcd60e51b815260040161019e90615969565b8693506118a4565b6118a161189c82600001518b85612146565b611bc9565b93505b6118b1898986848a6122ce565b925050505b9550959350505050565b60008060006118cd612315565b600094855260205250506040909120546001600160a01b03811692600160a01b90910460ff169150565b6118ff614d09565b610c958260006116fb565b600061191b86600001518486612146565b9350600061192c8661ffff16610f20565b9050600060028860600151600581111561194257fe5b141561195c5761195561189c8988612322565b9050611982565b60018860600151600581111561196e57fe5b141561007b5761195561189c8984896123d3565b61198f85888385886122ce565b98975050505050505050565b6000806119b886886000015189608001518a610120015188612593565b915060006119d788608001518960600151610ef690919063ffffffff16565b90508380156119e65750600081125b8015611a01575060208801516000906119ff9083610ef6565b125b15611a27578560a00151611a275760405162461bcd60e51b815260040161019e906159ae565b8015611a46576020880151611a3c9082610ef6565b6020890152600191505b60a0880151151580611a5b575060c088015115155b15611abe576000611a858960c001516104608b60a001518c60400151610ef690919063ffffffff16565b90506000811215611aa85760405162461bcd60e51b815260040161019e90615aa4565b611ab3898983612636565b506040890152600191505b8115611aed57611aed8789600001518a602001518b604001518c60e001518d61010001518e6101200151612723565b87516020890151611b1a9161ffff1690151580611b0d575060408a015115155b889190600160fe1b61285e565b600088602001511215611b4057602086018051600160f91b176001600160f81b03191690525b505095945050505050565b6000806000611b58612a64565b61ffff85166000908152602091909152604090206001810154909150611b8a90600160581b900463ffffffff16612a71565b8154909350600160281b90046001600160581b0316611bb1611bac8783610f33565b61206a565b925050509250929050565b600080610f0c6001612a7f565b60006001600160ff1b03821115611bdf57600080fd5b5090565b6003836006811115611bf157fe5b1480611c0857506004836006811115611c0657fe5b145b80611c1e57506006836006811115611c1c57fe5b145b15611ce3576060840151611c329082612a98565b6060850152835160405163698ac6fd60e11b815260009173__nTokenMintAction______________________9163d3158dfa91611c76918a9190879060040161581b565b60206040518083038186803b158015611c8e57600080fd5b505af4158015611ca2573d6000803e3d6000fd5b505050506040513d601f19601f82011682018060405250810190611cc691906153e1565b60c0860151909150611cd89082610ef6565b60c086015250611df5565b6005836006811115611cf157fe5b1415611df55781611d1b8560c001516104608760a001518860400151610ef690919063ffffffff16565b1215611d395760405162461bcd60e51b815260040161019e90615a36565b60c0840151611d489083612a98565b60c08501528351604051630e22aaa360e01b815260009173__nTokenRedeemAction____________________91630e22aaa391611d8c918a9190889060040161581b565b60206040518083038186803b158015611da457600080fd5b505af4158015611db8573d6000803e3d6000fd5b505050506040513d601f19601f82011682018060405250810190611ddc91906153e1565b6060860151909150611dee9082610ef6565b6060860152505b5050505050565b60006110a185858585600161199b565b600080610f0c6002612a7f565b600062015180821015611e2b57600080fd5b50620151808106900390565b606080611e448484612aae565b9150611e4f82612bca565b90509250929050565b611e60614d38565b6000611e6b84612d8a565b90508281600001511015611eaa57600080611e8586612e52565b9050611e9386848388612ecf565b9093509150611ea3868385612f73565b5050611eb7565b80518314611eb757600080fd5b6040518060600160405280611ee061189c8460a001518560c001516131a790919063ffffffff16565b8152602001611f0361189c8460a001518560e001516131a790919063ffffffff16565b8152602001826060015181525091505092915050565b60008115801590611f2c5750613fff8211155b611f3557600080fd5b6080830151606084015161ffff16831415611f54576001915050610f0c565b6001600160701b0319811615611f995760f081901c613fff1683811415611f865750600160fe1b908116149050610f0c565b5060101b6001600160801b031916611f54565b5060009392505050565b6000806000806000611fb36131ce565b6001600160a01b03891660009081526020828152604080832061ffff8c168452909152902080546001600160501b0381169650600160501b900463ffffffff169450909150831561202057805461201990600160701b900466ffffffffffffff16612a71565b9250612035565b8054600160701b900466ffffffffffffff1692505b8054612050908890600160a81b9004600a90810b900b6131db565b9550505093509350935093565b600080610f0c6007612a7f565b600080821215611bdf57600080fd5b801561210b577304b9c40df01bdc99dd2c31ae4b232f20f4bbac5b6001600160a01b031663d0e30db0836040518263ffffffff1660e01b81526004016000604051808303818588803b1580156120ce57600080fd5b505af11580156120e2573d6000803e3d6000fd5b50505050506121067304b9c40df01bdc99dd2c31ae4b232f20f4bbac5b8484613202565b612141565b6040516001600160a01b0384169083156108fc029084906000818181858888f19350505050158015610d4a573d6000803e3d6000fd5b505050565b600080846001600160a01b03166370a08231306040518263ffffffff1660e01b815260040180826001600160a01b0316815260200191505060206040518083038186803b15801561219657600080fd5b505afa1580156121aa573d6000803e3d6000fd5b505050506040513d60208110156121c057600080fd5b5051604080516323b872dd60e01b81526001600160a01b038781166004830152306024830152604482018790529151929350908716916323b872dd9160648082019260009290919082900301818387803b15801561221d57600080fd5b505af1158015612231573d6000803e3d6000fd5b5050505061223d613275565b6000856001600160a01b03166370a08231306040518263ffffffff1660e01b815260040180826001600160a01b0316815260200191505060206040518083038186803b15801561228c57600080fd5b505afa1580156122a0573d6000803e3d6000fd5b505050506040513d60208110156122b657600080fd5b505190506122c481836132e2565b9695505050505050565b6000806122db84866132f7565b90506122e78382613327565b91506122f4878784613349565b6122ff8683836133d3565b835161230b90866134d7565b5095945050505050565b600080610f0c600f612a7f565b815160405163db006a7560e01b8152600091479183916001600160a01b03169063db006a7590612356908790600401615af6565b602060405180830381600087803b15801561237057600080fd5b505af1158015612384573d6000803e3d6000fd5b505050506040513d601f19601f820116820180604052508101906123a891906153e1565b905080156123c85760405162461bcd60e51b815260040161019e9061598e565b476122c481846132e2565b60008083600001516001600160a01b03166370a08231306040518263ffffffff1660e01b8152600401612406919061571e565b60206040518083038186803b15801561241e57600080fd5b505afa158015612432573d6000803e3d6000fd5b505050506040513d601f19601f8201168201806040525081019061245691906153e1565b9050600085600001516001600160a01b031663db006a75856040518263ffffffff1660e01b815260040161248a9190615af6565b602060405180830381600087803b1580156124a457600080fd5b505af11580156124b8573d6000803e3d6000fd5b505050506040513d601f19601f820116820180604052508101906124dc91906153e1565b905080156124fc5760405162461bcd60e51b815260040161019e9061598e565b84516040516370a0823160e01b81526000916001600160a01b0316906370a082319061252c90309060040161571e565b60206040518083038186803b15801561254457600080fd5b505afa158015612558573d6000803e3d6000fd5b505050506040513d601f19601f8201168201806040525081019061257c91906153e1565b905061258881846132e2565b979650505050505050565b6000836125a2575060006110a1565b600084126125af57600080fd5b60006125be8661ffff16610f20565b90506125ce81610f9c8688610f33565b915060006125db83610f12565b90506125e887838361352c565b6003826060015160058111156125fa57fe5b14156126105761260b888286612079565b61261d565b815161261d908983613202565b61262a88888585896122ce565b50505095945050505050565b82516000904290829061264c9061ffff1661361a565b9050600061265f828860c0015185613640565b905061266d87838388613723565b9350600061267a83613850565b90506001600160a01b0381161561270857806001600160a01b0316631d684dd2888a600001516126ad8c6040015161206a565b8a8d60c001518b6040518763ffffffff1660e01b81526004016126d596959493929190615881565b600060405180830381600087803b1580156126ef57600080fd5b505af1158015612703573d6000803e3d6000fd5b505050505b84156127185761271887866138c2565b505050509392505050565b600061272d6131ce565b6001600160a01b03891660009081526020828152604080832061ffff8c1684529091529020909150846127955766ffffffffffffff84111561276e57600080fd5b805466ffffffffffffff60701b1916600160701b66ffffffffffffff8616021781556127af565b8054600160501b900463ffffffff1685146127af57600080fd5b6127b8856138e1565b815463ffffffff91909116600160501b0263ffffffff60501b199091161781556127e96127e48761206a565b6138f4565b815469ffffffffffffffffffff19166001600160501b03919091161780825561282f9061282a9085908c908c90600160a81b9004600a90810b900b8c61390a565b61392d565b8154600a9190910b6001600160581b0316600160a81b026001600160a81b039091161790555050505050505050565b8260001080156128705750613fff8311155b61287957600080fd5b81801561288d575082846060015161ffff16145b1561289757610d4a565b6080840151600090815b6001600160701b0319821615612a195760f082901c613fff1686811480156128c65750855b156128fe57506080870180516001600160f01b0319861660109093029290921c919091176001600160701b031916905250610d4a9050565b868114801561290b575085155b15612967576001600160f01b03198516199290921691600360fe1b8316612945576010836dffffffffffffffffffffffffffff1916901b92505b506001600160701b031991821660109091021c91909117166080850152610d4a565b86811180156129735750855b156129cd576080888101516001600160f01b031960f08a901b88178116601086021c9690961795911b16156129a757600080fd5b506001600160701b03199182166001919091016010021c91909117166080850152610d4a565b86811180156129da575085155b156129e85750505050610d4a565b506001600160f01b0319821660108281029190911c93909317929190911b6001600160801b031916906001016128a1565b84612a2657505050610d4a565b60098110612a3357600080fd5b6001600160f01b031960f087901b85171660109091021c919091176001600160701b03191660808601525050505050565b600080610f0c601d612a7f565b600881901c60ff9091161b90565b6000620f4240826026811115612a9157fe5b0192915050565b80820382811315600083121514610f0c57600080fd5b606060088260ff161115612ac157600080fd5b6000612acb61395f565b6001600160a01b038516600090815260208290526040812091925060ff85166001600160401b0381118015612aff57600080fd5b50604051908082528060200260200182016040528015612b3957816020015b612b26614cca565b815260200190600190039081612b1e5790505b50905060005b8560ff1681101561230b576000838260088110612b5857fe5b0190506000838381518110612b6957fe5b602090810291909101810151835461ffff8116825264ffffffffff620100008204169282019290925260ff600160381b830416604082015268010000000000000000909104600a90810b900b60608201526080019190915250600101612b3f565b8051606090806001600160401b0381118015612be557600080fd5b50604051908082528060200260200182016040528015612c0f578160200160208202803683370190505b50915060005b81811015612c6c576000848281518110612c2b57fe5b60200260200101519050612c4c81600001518260200151836040015161396c565b848381518110612c5857fe5b602090810291909101015250600101612c15565b5060015b81811015612d8357805b600081118015612cb25750838181518110612c9157fe5b6020026020010151846001830381518110612ca857fe5b6020026020010151115b15612d7a57838181518110612cc357fe5b6020026020010151846001830381518110612cda57fe5b6020026020010151856001840381518110612cf157fe5b60200260200101868481518110612d0457fe5b6020026020010182815250828152505050848181518110612d2157fe5b6020026020010151856001830381518110612d3857fe5b6020026020010151866001840381518110612d4f57fe5b60200260200101878481518110612d6257fe5b60209081029190910101919091525260001901612c7a565b50600101612c70565b5050919050565b612d92614d59565b6000612d9c612a64565b61ffff93841660009081526020918252604090819020805464ffffffffff81168652600160281b81046001600160581b03908116948701949094526001820154841692860192909252600160d81b820463ffffffff166060860152600160801b9091049091166080840152600201546001600160501b0380821660a0850152600160501b8204811660c0850152600160a01b82041660e0840152600160f01b900460ff1661012c02909216610100820152919050565b600080612e5e83613995565b6001600160a01b031663ef81f2166040518163ffffffff1660e01b81526004016040805180830381600087803b158015612e9757600080fd5b505af1158015612eab573d6000803e3d6000fd5b505050506040513d601f19601f82011682018060405250810190610fec91906155a1565b612ed7614d59565b6000806000612ee78886896139c5565b60c08b019290925260e08a019290925260208901519193509150612f0b9083613ad0565b6020880152608087015160009015612f39576080880151612f3690612f3089826132e2565b90613ae2565b90505b612f59612f4e670de0b6b3a764000083613ad0565b60a08a015190613aff565b60a089015250506080860194909452505082529092909150565b6000612f7d612a64565b60008561ffff1681526020019081526020016000209050612fa18260000151613b1c565b815464ffffffffff191664ffffffffff9190911617815560a0820151612fc6906138f4565b60028201805469ffffffffffffffffffff19166001600160501b039290921691909117905560c0820151612ff9906138f4565b81600201600a6101000a8154816001600160501b0302191690836001600160501b0316021790555061302e8260e001516138f4565b8160020160146101000a8154816001600160501b0302191690836001600160501b031602179055506130638260200151613b30565b81546001600160581b0391909116600160281b026fffffffffffffffffffffff000000000019909116178155604082015161309d90613b30565b6001820180546affffffffffffffffffffff19166001600160581b039290921691909117905560808201516130d190613b30565b81546001600160581b0391909116600160801b026affffffffffffffffffffff60801b199091161781556060820151613109906138e1565b815463ffffffff91909116600160d81b0263ffffffff60d81b19909116178155821561315557600061313a84611bc9565b90506131468582613b46565b613153610fee8683613349565b505b8361ffff167fef25641e225e493886510ca1ad6584fa7b442b9fea820a29d1de3ce27d270fd28360a001518460c001518560e0015160405161319993929190615aff565b60405180910390a250505050565b6000826131b657506000610f0c565b828202828482816131c357fe5b0414610b5957600080fd5b600080610f0c6006612a7f565b60008082126131eb575080610f0c565b82516020840151610f869190610f5f9085906116ad565b826001600160a01b031663a9059cbb83836040518363ffffffff1660e01b815260040180836001600160a01b0316815260200182815260200192505050600060405180830381600087803b15801561325957600080fd5b505af115801561326d573d6000803e3d6000fd5b505050506121415b600061327f614da5565b3d8015613293576020811461329c57600080fd5b600192506132a7565b60206000833e815192505b5081610939576040805162461bcd60e51b8152602060048201526005602482015264045524332360dc1b604482015290519081900360640190fd5b6000828211156132f157600080fd5b50900390565b60006305f5e10083604001511415613310575080610f0c565b6040830151610b5990610f5f846305f5e1006116ad565b8151600090610b5990610f5f846ec097ce7bc90715b34b9f10000000006116ad565b6000613353613b7d565b61ffff8416600090815260209190915260409081902054905163ad1c095d60e01b81526001600160a01b039091169150819063ad1c095d9061339b90879086906004016157b5565b600060405180830381600087803b1580156133b557600080fd5b505af11580156133c9573d6000803e3d6000fd5b5050505050505050565b60006133dd612a64565b61ffff8516600090815260209190915260409020805490915064ffffffffff16421461340857600080fd5b805460009061342790600160281b90046001600160581b031685610ef6565b825490915060009061344990600160801b90046001600160581b031685610ef6565b905080624c4b40131561345b57600080fd5b61346c6134678261206a565b613b30565b83546001600160581b0391909116600160801b026affffffffffffffffffffff60801b199091161783556134a26134678361206a565b83546001600160581b0391909116600160281b026fffffffffffffffffffffff00000000001990911617835561069783613b8a565b60006134e1613c55565b6001600160a01b03841660009081526020829052604090205490915061350a611bac8285610ef6565b6001600160a01b03909416600090815260209290925250604090209190915550565b6000613536613c55565b83516001600160a01b0316600090815260208290526040902054909150808311613561575050612141565b600061356c86613995565b90506000816001600160a01b031663b5e4da238487036040518263ffffffff1660e01b815260040161359e9190615af6565b60006040518083038186803b1580156135b657600080fd5b505afa1580156135ca573d6000803e3d6000fd5b505050506040513d6000823e601f3d908101601f191682016040526135f29190810190615299565b905060006136008783613c62565b915061360e90508482613ad0565b8611156133c957600080fd5b600080613625613e79565b6000938452602052505060409020546001600160a01b031690565b600080600061364f8685613e86565b5091509150600061365e613f1c565b6001600160a01b03881660009081526020829052604081209192506136838589610ef6565b90508060001315801561369c57506001600160601b0381105b6136a557600080fd5b81546bffffffffffffffffffffffff19166001600160601b038216176fffffffffffffffffffffffffffffffff60601b1916600160601b6001600160801b0386160217825563ffffffff87106136fa57600080fd5b50805463ffffffff8716600160e01b026001600160e01b03909116179055509150509392505050565b60e0840151600090156137e45773__MigrateIncentives_____________________63e0c01a7285613758886040015161206a565b8860e001518961010001516040518563ffffffff1660e01b815260040161378294939291906158f4565b60206040518083038186803b15801561379a57600080fd5b505af41580156137ae573d6000803e3d6000fd5b505050506040513d601f19601f820116820180604052508101906137d291906153e1565b600060e0870181905261010087015290505b61382661381f866101000151613819670de0b6b3a76400006138138861380d8c6040015161206a565b906131a7565b90613f29565b906132e2565b8290613ad0565b905061383e670de0b6b3a764000061381384866131a7565b85610100018181525050949350505050565b60008061385b611e0c565b6001600160a01b0384166000908152602082905260409020805491925090600160f81b900460ff16156138b757613890613f48565b6001600160a01b038086166000908152602092909252604090912054169250610c98915050565b600092505050610c98565b61093973c5e91b01f9b23952821410be7aa3c45b6429c6708383613202565b600063ffffffff821115611bdf57600080fd5b60006001600160501b03821115611bdf57600080fd5b60006139168683613f55565b90506110a18686866139288786613f94565b61401b565b60006a7fffffffffffffffffffff19821280159061395657506a7fffffffffffffffffffff8213155b611bdf57600080fd5b600080610f0c600d612a7f565b67ffff000000000000603084901b1665ffffffffff00600884901b161760ff8216179392505050565b6000806139a0614048565b61ffff939093166000908152602093909352505060409020546001600160a01b031690565b6000806000806000806139d88988614055565b895190955091935091506000906139ff906139f4908b906132e2565b633b9aca00906131a7565b9050613a39613a2e6301da9c00613a1685856131a7565b81613a1d57fe5b670de0b6b3a7640000919004613ad0565b60e08a015190613aff565b9650613a5b613a506301da9c00613a1687856131a7565b60c08a015190613aff565b955081831415613a72575060009350613ac7915050565b6000613a94613a896301da9c00613a1687866131a7565b60e08b015190613aff565b90506000613aa289836132e2565b9050613abf88613813838d604001516131a790919063ffffffff16565b965050505050505b93509350935093565b600082820183811015610b5957600080fd5b6000610b59613af984670de0b6b3a76400006131a7565b83613f29565b6000610b59613b0e84846131a7565b670de0b6b3a7640000613f29565b600064ffffffffff821115611bdf57600080fd5b60006001600160581b03821115611bdf57600080fd5b6000811215613b5457600080fd5b6000613b62610fee846140ef565b9050613b6e8183610ef6565b9050612141610fee8483614148565b600080610f0c6021612a7f565b80546002820154600091613bcc91600160281b9091046001600160581b031690613bc6906001600160501b03600160501b8204811691166116ad565b906116ad565b60018301546002840154919250600091613c06916001600160581b031690613bc6906001600160501b03600160a01b8204811691166116ad565b8354909150600090613c3d9060016001600160581b03600160801b909204821601166ec097ce7bc90715b34b9f10000000006116ad565b905080613c4a8484612a98565b1315610d4a57600080fd5b600080610f0c6026612a7f565b60008060005b8351811015613e71576000848281518110613c7f57fe5b60200260200101519050600081606001516001600160a01b03166370a08231306040518263ffffffff1660e01b8152600401613cbb919061571e565b60206040518083038186803b158015613cd357600080fd5b505afa158015613ce7573d6000803e3d6000fd5b505050506040513d601f19601f82011682018060405250810190613d0b91906153e1565b90506000613d1988306141bc565b905060005b835151811015613d7557613d6484600001518281518110613d3b57fe5b6020026020010151600086602001518481518110613d5557fe5b60200260200101516001614266565b613d6d57600196505b600101613d1e565b506000613d8289306141bc565b90506000613d9082846132e2565b90508085604001511115613da357600080fd5b60608501516040516370a0823160e01b81526000916001600160a01b0316906370a0823190613dd690309060040161571e565b60206040518083038186803b158015613dee57600080fd5b505afa158015613e02573d6000803e3d6000fd5b505050506040513d601f19601f82011682018060405250810190613e2691906153e1565b905084811115613e3557600080fd5b613e44866060015186836144d4565b613e4e8883613ad0565b9750613e5f8b6000015185856144d4565b505060019094019350613c6892505050565b509250929050565b600080610f0c6003612a7f565b6000806000613e9485614551565b919450925090508084118015613eaa5750600081115b8015613eb65750600083115b15613f15576000613ec68661147f565b5050509150506000613ef1613ee86305f5e100846131a790919063ffffffff16565b848803876145ad565b9050613efd8482613ad0565b93506001600160801b038410613f1257600080fd5b50505b9250925092565b600080610f0c6011612a7f565b6000808211613f3757600080fd5b818381613f4057fe5b049392505050565b600080610f0c6012612a7f565b600080821215613f8e57613f896001613f838560200151610f5f8760000151876116ad90919063ffffffff16565b90612a98565b610b59565b50919050565b600081831480613fb1575060008312158015613fb1575060008212155b15613fbe57506000610f0c565b60008313158015613fcf5750816000125b15613fdb575081610f0c565b60008213158015613fec5750826000125b15613ffa57610f8682610f12565b6000831315801561400c575060008213155b1561007b57610f868383612a98565b8015610d4a578351602085015160009161403a91610f5f9085906116ad565b9050611df5848484846145cf565b600080610f0c601f612a7f565b6000806000806000856020015111156140a25761409f6140868660c0015187602001516131a790919063ffffffff16565b60e08701516040880151614099916131a7565b9061470c565b90505b60006140ad8761471f565b90506140b98183614752565b945081156140d0576140cd8186600161480b565b93505b602086015115613f12576140e4858361487c565b925050509250925092565b6000806140fa6131ce565b6001600160a01b03851660009081526020828152604080832061ffff8816845290915281208054600160a81b9004600a90810b900b945091925083121561414057600080fd5b505092915050565b600081121561415657600080fd5b60006141606131ce565b6001600160a01b03851660009081526020828152604080832061ffff8816845290915290209091506141918361392d565b8154600a9190910b6001600160581b0316600160a81b026001600160a81b0390911617905550505050565b60006003836060015160058111156141d057fe5b14156141e757506001600160a01b03811631610f0c565b82516040516370a0823160e01b81526001600160a01b03909116906370a082319061421690859060040161571e565b60206040518083038186803b15801561422e57600080fd5b505afa158015614242573d6000803e3d6000fd5b505050506040513d601f19601f82011682018060405250810190610f8691906153e1565b6000806000866001600160a01b031686866040518082805190602001908083835b602083106142a65780518252601f199092019160209182019101614287565b6001836020036101000a03801982511681845116808217855250505050505090500191505060006040518083038185875af1925050503d8060008114614308576040519150601f19603f3d011682016040523d82523d6000602084013e61430d565b606091505b5091509150836143b0578161432182614895565b906143aa5760405162461bcd60e51b81526004018080602001828103825283818151815260200191508051906020019080838360005b8381101561436f578181015183820152602001614357565b50505050905090810190601f16801561439c5780820380516001836020036101000a031916815260200191505b509250505060405180910390fd5b5061230b565b866001600160a01b03167f3c7e398c5e91088cae639370e35b25ea669d81fbdf0def5388e73661bc34e08e87876143e685614895565b604051808481526020018060200180602001838103835285818151815260200191508051906020019080838360005b8381101561442d578181015183820152602001614415565b50505050905090810190601f16801561445a5780820380516001836020036101000a031916815260200191505b50838103825284518152845160209182019186019080838360005b8381101561448d578181015183820152602001614475565b50505050905090810190601f1680156144ba5780820380516001836020036101000a031916815260200191505b509550505050505060405180910390a25095945050505050565b60006144de613c55565b6001600160a01b0385166000908152602082905260409020549091508381111561450757600080fd5b600061451e61451586611bc9565b613f8386611bc9565b905061452d611bac8383610ef6565b6001600160a01b039096166000908152602093909352505060409020929092555050565b60008060008061455f613f1c565b6001600160a01b0395909516600090815260209590955250506040909220546001600160601b03811693600160601b82046001600160801b03169350600160e01b90910463ffffffff169150565b6000610fec826138136301da9c00818861380d89670de0b6b3a76400006131a7565b60006145d9612a64565b61ffff8516600090815260209190915260409020805490915064ffffffffff16421461460457600080fd5b8054600160f81b900460ff1661461957600080fd5b6001810154600090614634906001600160581b031685610ef6565b825490915060009061465690600160281b90046001600160581b031685610ef6565b9050816009191280156146695750600082125b1561467357600091505b806009191280156146845750600081125b1561468d575060005b6146996134678361206a565b6001840180546affffffffffffffffffffff19166001600160581b03929092169190911790556146cb6134678261206a565b83546001600160581b0391909116600160281b026fffffffffffffffffffffff0000000000199091161783556147038787868861499c565b61147683613b8a565b6000610b59613af984633b9aca006131a7565b614727614dc3565b6000614731614aa4565b61ffff8416600090815260209190915260408120549150610b599082614ab1565b60008083608001511161476457600080fd5b633b9aca0082111561477557600080fd5b825182116147945782516040840151610f8691906138139085906131a7565b826020015182116147d2576040830151835160208501516060860151610f8693926147cc9281900391613813918803908590036131a7565b90613ad0565b610b5983606001516147cc8560200151633b9aca00036138138760600151886080015103886020015188036131a790919063ffffffff16565b60008061482a60646138138760e00151876131a790919063ffffffff16565b90508460a0015181101561483f575060a08401515b8460c00151811115614852575060c08401515b82156148625761117a8482613ad0565b8381116148715780840361117a565b600095945050505050565b6000610b5961488b84846131a7565b633b9aca00613f29565b60606044825110156148cb575060408051808201909152600d81526c14da5b195b9d0814995d995c9d609a1b6020820152610c98565b60048201805190926024019060208110156148e557600080fd5b810190808051604051939291908464010000000082111561490557600080fd5b90830190602082018581111561491a57600080fd5b825164010000000081118282018810171561493457600080fd5b82525081516020918201929091019080838360005b83811015614961578181015183820152602001614949565b50505050905090810190601f16801561498e5780820380516001836020036101000a031916815260200191505b506040525050509050919050565b60006149a6613b7d565b61ffff8516600090815260209190915260408120546001600160a01b031691506149ce614bd0565b61ffff8616600090815260209190915260409081902054905163ad1c095d60e01b81526001600160a01b039091169150819063ad1c095d90614a1690899087906004016157b5565b600060405180830381600087803b158015614a3057600080fd5b505af1158015614a44573d6000803e3d6000fd5b505060405163ad1c095d60e01b81526001600160a01b038516925063ad1c095d9150614a7690899088906004016157b5565b600060405180830381600087803b158015614a9057600080fd5b505af1158015610692573d6000803e3d6000fd5b600080610f0c601b612a7f565b614ab9614dc3565b6064633b9aca008360ff861660208110614acf57fe5b1a0281614ad857fe5b0481526064633b9aca008360ff861660010160208110614af457fe5b1a0281614afd57fe5b04816020018181525050614b228260028560ff160160208110614b1c57fe5b1a614bdd565b60808201819052610100908360ff861660030160208110614b3f57fe5b1a0281614b4857fe5b0460408201526080810151610100908360ff861660040160208110614b6957fe5b1a0281614b7257fe5b0460608201526207a1208260ff851660050160208110614b8e57fe5b1a0260a0820152622625a08260ff851660060160208110614bab57fe5b1a0260c08201528160ff841660070160208110614bc457fe5b1a60e082015292915050565b600080610f0c6022612a7f565b60008160ff16609610614bf85760ff8216622625a002610c95565b5060951960ff919091160162e4e1c00263165a0bc00190565b604051806101400160405280600061ffff1681526020016000815260200160008152602001600081526020016000815260200160008152602001600081526020016000815260200160008152602001614c68614d38565b905290565b6040805160c081018252600080825260208201819052918101829052606081018290526080810182905260a081019190915290565b6040518060800160405280606081526020016060815260200160008152602001600081525090565b6040518060c00160405280600061ffff1681526020016000815260200160008152602001600081526020016000815260200160006003811115614c6857fe5b6040805160a0810182526000808252602082018190529181018290529060608201908152602001600081525090565b60405180606001604052806000815260200160008152602001600081525090565b6040518061012001604052806000815260200160008152602001600081526020016000815260200160008152602001600081526020016000815260200160008152602001600081525090565b60405180602001604052806001906020820280368337509192915050565b60405180610100016040528060008152602001600081526020016000815260200160008152602001600081526020016000815260200160008152602001600081525090565b8051610c9881615bcf565b600082601f830112614e23578081fd5b81516020614e38614e3383615bb2565b615b8f565b8281528181019085830183850287018401881015614e54578586fd5b855b85811015614e7b578151614e6981615bcf565b84529284019290840190600101614e56565b5090979650505050505050565b6000601f8381840112614e99578182fd5b82516020614ea9614e3383615bb2565b82815281810190868301865b85811015614f4d57815189018a603f820112614ecf578889fd5b858101516001600160401b03811115614ee457fe5b614ef5818a01601f19168801615b8f565b81815260408d81848601011115614f0a578b8cfd5b8b5b83811015614f27578481018201518382018b01528901614f0c565b83811115614f37578c8a85850101525b5050865250509284019290840190600101614eb5565b509098975050505050505050565b60008083601f840112614f6c578182fd5b5081356001600160401b03811115614f82578182fd5b6020830191508360208083028501011115614f9c57600080fd5b9250929050565b600082601f830112614fb3578081fd5b81516020614fc3614e3383615bb2565b8281528181019085830160c080860288018501891015614fe1578687fd5b865b868110156150725781838b031215614ff9578788fd5b604080518381018181106001600160401b038211171561501557fe5b8252845161502281615bf5565b815284880151888201528185015191810191909152606080850151908201526080808501519082015260a0906150598286016150bb565b9181019190915285529385019391810191600101614fe3565b509198975050505050505050565b8051610c9881615be7565b80516001600160701b031981168114610c9857600080fd5b80516001600160f81b031981168114610c9857600080fd5b805160048110610c9857600080fd5b8051610c9881615bf5565b805160ff81168114610c9857600080fd5b6000806000604084860312156150fa578283fd5b833561510581615bcf565b925060208401356001600160401b0381111561511f578283fd5b61512b86828701614f5b565b9497909650939450505050565b60008060008060006060868803121561514f578283fd5b853561515a81615bcf565b945060208601356001600160401b0380821115615175578485fd5b61518189838a01614f5b565b90965094506040880135915080821115615199578283fd5b818801915088601f8301126151ac578283fd5b8135818111156151ba578384fd5b8960208285010111156151cb578384fd5b9699959850939650602001949392505050565b6000806000604084860312156151f2578081fd5b83356151fd81615bcf565b925060208401356001600160401b0380821115615218578283fd5b818601915086601f83011261522b578283fd5b813581811115615239578384fd5b87602060c08302850101111561524d578384fd5b6020830194508093505050509250925092565b600080600060408486031215615274578081fd5b833561527f81615bcf565b925060208401356001600160401b0381111561511f578182fd5b600060208083850312156152ab578182fd5b82516001600160401b03808211156152c1578384fd5b818501915085601f8301126152d4578384fd5b81516152e2614e3382615bb2565b81815284810190848601875b8481101561539757815187016080818d03601f1901121561530d57898afd5b60408051608081018181108a8211171561532357fe5b8252828b015189811115615335578c8dfd5b6153438f8d83870101614e13565b8252508183015189811115615356578c8dfd5b6153648f8d83870101614e88565b8c8301525060608301518282015261537e60808401614e08565b60608201528652505092870192908701906001016152ee565b50909998505050505050505050565b6000602082840312156153b7578081fd5b8135610b5981615be7565b6000602082840312156153d3578081fd5b813560078110610b59578182fd5b6000602082840312156153f2578081fd5b5051919050565b6000806040838503121561540b578182fd5b82519150602083015161541d81615be7565b809150509250929050565b600060c08284031215615439578081fd5b60405160c081018181106001600160401b038211171561545557fe5b604052825164ffffffffff8116811461546c578283fd5b815261547a602084016150a3565b602082015261548b604084016150d5565b604082015261549c606084016150ca565b60608201526154ad6080840161508b565b60808201526154be60a08401615080565b60a08201529392505050565b600080604083850312156154dc578182fd5b82516001600160401b03808211156154f2578384fd5b9084019060808287031215615505578384fd5b60405160808101818110838211171561551a57fe5b60405282518281111561552b578586fd5b61553788828601614fa3565b82525060208301518281111561554b578586fd5b61555788828601614fa3565b6020830152506040830151604082015260608301516060820152809450505050602083015190509250929050565b600060208284031215615596578081fd5b8135610b5981615bf5565b600080604083850312156155b3578182fd5b505080516020909101519092909150565b81835260006001600160fb1b038311156155dc578081fd5b6020830280836020870137939093016020019283525090919050565b6000815180845260208085019450808401835b83811015615669578151805161ffff168852838101518489015260408082015190890152606080820151908901526080808201519089015260a090810151906004821061565457fe5b88015260c0909601959082019060010161560b565b509495945050505050565b805164ffffffffff1682526020808201516001600160f81b0319169083015260408082015160ff169083015260608082015161ffff16908301526080808201516001600160701b0319169083015260a0908101511515910152565b60008151608084526156e460808501826155f8565b9050602083015184820360208601526156fd82826155f8565b91505060408301516040850152606083015160608501528091505092915050565b6001600160a01b0391909116815260200190565b6001600160a01b038581168252841660208201526060604082018190528101829052600082846080840137818301608090810191909152601f909201601f191601019392505050565b6001600160a01b0396871681529486166020860152928516604085015290841660608401528316608083015290911660a082015260c00190565b6001600160a01b03929092168252602082015260400190565b6001600160a01b038316815260e08101610b596020830184615674565b6001600160a01b038416815260006101006158096020840186615674565b8060e08401526122c4818401856156cf565b6001600160a01b0393909316835261ffff919091166020830152604082015260600190565b6001600160a01b038616815261ffff8516602082015260806040820181905260009061586e908301866156cf565b828103606084015261198f8185876155c4565b6001600160a01b0396909616865261ffff94909416602086015260408501929092526060840152608083015260a082015260c00190565b6001600160a01b038616815261ffff8516602082015264ffffffffff8416604082015260806060820181905260009061258890830184866155c4565b6001600160a01b0394909416845260208401929092526040830152606082015260800190565b6020808252600f908201526e04f76657220537570706c792043617608c1b604082015260600190565b6020808252600c908201526b155b985d5d1a1bdc9a5e995960a21b604082015260600190565b6020808252600b908201526a4554482042616c616e636560a81b604082015260600190565b60208082526006908201526552656465656d60d01b604082015260600190565b6020808252600f908201526e4e6f205072696d6520426f72726f7760881b604082015260600190565b60208082526010908201526f556e736f7274656420616374696f6e7360801b604082015260600190565b6020808252818101527f446570726563617465643a20526564656d7074696f6e20746f2063546f6b656e604082015260600190565b6020808252601a908201527f496e73756666696369656e7420746f6b656e2062616c616e6365000000000000604082015260600190565b6020808252601a908201527f496e76616c69642074726164657320666f72206163636f756e74000000000000604082015260600190565b6020808252600a90820152692732b390372a37b5b2b760b11b604082015260600190565b602080825260149082015273125b9cdd59999a58da595b9d0819195c1bdcda5d60621b604082015260600190565b90815260200190565b9283526020830191909152604082015260600190565b6000808335601e19843603018112615b2b578283fd5b8301803591506001600160401b03821115615b44578283fd5b6020908101925081023603821315614f9c57600080fd5b6000823560de19833603018112615b70578182fd5b9190910192915050565b60008235605e19833603018112615b70578182fd5b6040518181016001600160401b0381118282101715615baa57fe5b604052919050565b60006001600160401b03821115615bc557fe5b5060209081020190565b6001600160a01b0381168114615be457600080fd5b50565b8015158114615be457600080fd5b61ffff81168114615be457600080fdfea26469706673582212200cf39a66a799dc50bcbdebd1ad264383237b0c80ab64bf49e313015945d1344864736f6c63430007060033","bytecodeSha1":"31044f90b5e71e0c9d02c23a0264497e288c7416","compiler":{"evm_version":"istanbul","optimizer":{"enabled":true,"runs":200},"version":"0.7.6+commit.7338295f"},"contractName":"BatchAction","deployedBytecode":"60806040526004361061007b5760003560e01c80636e6a32a61161004e5780636e6a32a6146100f357806382463367146101065780638da5cb5b1461011b578063c4c96dae146101305761007b565b80630276b64b1461008057806324a3d62214610095578063541f5270146100c05780635950d8e9146100e0575b600080fd5b61009361008e3660046150e6565b610157565b005b3480156100a157600080fd5b506100aa6101d4565b6040516100b7919061571e565b60405180910390f35b3480156100cc57600080fd5b506100936100db366004615260565b6101e3565b6100936100ee366004615138565b61056f565b6100936101013660046151de565b61069f565b34801561011257600080fd5b506100aa610812565b34801561012757600080fd5b506100aa610821565b34801561013c57600080fd5b50610145610838565b6040516100b79695949392919061577b565b6002600a54141561016757600080fd5b6002600a556001600160a01b03831633148061018257503330145b6101a75760405162461bcd60e51b815260040161019e90615943565b60405180910390fd5b6101b0836108be565b60006101bd84848461093d565b90506101c98482610b60565b50506001600a555050565b6002546001600160a01b031681565b6002600a5414156101f357600080fd5b6002600a556001600160a01b03831633148061020e57503330145b61022a5760405162461bcd60e51b815260040161019e90615943565b610233836108be565b600061023e84610be1565b905060006102528583604001516000610c9d565b905061025c614c11565b60005b848110156104bc573686868381811061027457fe5b90506020028101906102869190615b7a565b905081156102ef5786866001840381811061029d57fe5b90506020028101906102af9190615b7a565b6102bd906020810190615585565b61ffff166102ce6020830183615585565b61ffff16116102ef5760405162461bcd60e51b815260040161019e906159d7565b60006102fe6040830183615b15565b9150508061030b57600080fd5b60005b8181101561034e5760006103256040850185615b15565b8381811061032f57fe5b9050602002013560f81c60ff161461034657600080fd5b60010161030e565b50610369896103606020850185615585565b86919089610d2f565b61038e8961037a6020850185615585565b6103876040860186615b15565b8a8a610d50565b606086018290529550600012156103a457600080fd5b60006103c96103c486606001518760200151610ef690919063ffffffff16565b610f12565b90506000811315610495576000806103f06103e76020870187615585565b61ffff16610f20565b9050600061041661040f858a6101200151610f3390919063ffffffff16565b8390610f65565b905061042860408701602088016153a6565b156104415761043a888e836000610fa1565b9250610471565b61046e8d610466600161046061045a60208c018c615585565b86610ff4565b90610ef6565b8a91906110aa565b92505b838312156104915760405162461bcd60e51b815260040161019e90615ac8565b5050505b6104a0858b89611185565b84516101208601516104b1916111a3565b50505060010161025f565b506104c6836111e4565b61055857604051635c5763b360e01b815273__$f6541b0d362a0c7d99a2a29cd3d373d61b$__90635c5763b390610505908990879087906004016157eb565b60c06040518083038186803b15801561051d57600080fd5b505af4158015610531573d6000803e3d6000fd5b505050506040513d601f19601f820116820180604052508101906105559190615428565b92505b6105628684610b60565b50506001600a5550505050565b3360009081526008602052604090205460ff1661059e5760405162461bcd60e51b815260040161019e90615943565b6105a7856108be565b60006105b486868661093d565b90506105c081876111f1565b60405163550d065760e11b8152339063aa1a0cae906105e99083908a9088908890600401615732565b600060405180830381600087803b15801561060357600080fd5b505af1158015610617573d6000803e3d6000fd5b5050505060208101516001600160f81b0319161561069757604051636ccc642f60e01b815273__$841fddfe32830bb6dbc3a02d7f16c53722$__90636ccc642f9061066690899060040161571e565b60006040518083038186803b15801561067e57600080fd5b505af4158015610692573d6000803e3d6000fd5b505050505b505050505050565b6002600a5414156106af57600080fd5b6002600a556001600160a01b0383163314806106ca57503330145b6106e65760405162461bcd60e51b815260040161019e90615943565b6106ef836108be565b60006106fa84610be1565b9050610704614c11565b60005b838110156107fb573685858381811061071c57fe5b905060c00201905060008211156107895785856001840381811061073c57fe5b905060c0020160200160208101906107549190615585565b61ffff166107686040830160208401615585565b61ffff16116107895760405162461bcd60e51b815260040161019e906159d7565b6107a68761079d6040840160208501615585565b85919087610d2f565b6107c287846107b860208501856153c2565b846040013561130e565b6107f287858560608501356107dd60a08701608088016153a6565b6107ed60c0880160a089016153a6565b6113dc565b50600101610707565b506108068583610b60565b50506001600a55505050565b6001546001600160a01b031681565b60005464010000000090046001600160a01b031681565b73__$841fddfe32830bb6dbc3a02d7f16c53722$__73__$b21a4dc043b77aa57922ad9143a3cb040e$__73__$f6541b0d362a0c7d99a2a29cd3d373d61b$__73__$7ac922d04bd7a1b42c7f6e5f1dd89a70af$__73__$892f367d396be2b92d3b049e6e62920984$__73__$43fd92ea4ea9b72ca0014644dbfd757564$__909192939495565b6001600160a01b0381166108d157600080fd5b6001600160a01b038116610fee14156108e957600080fd5b6001600160a01b0381166105e7141561090157600080fd5b6001600160a01b03811630141561091757600080fd5b60006109228261147f565b5050505061ffff1690508060001461093957600080fd5b5050565b610945614c6d565b600061095085610be1565b905061095a614c11565b600061096c8784604001516000610c9d565b905060005b85811015610ab7573687878381811061098657fe5b90506020028101906109989190615b5b565b90508115610a07578787600184038181106109af57fe5b90506020028101906109c19190615b5b565b6109d2906040810190602001615585565b61ffff166109e66040830160208401615585565b61ffff1611610a075760405162461bcd60e51b815260040161019e906159d7565b610a2489610a1b6040840160208501615585565b86919088610d2f565b610a3689856107b860208501856153c2565b6000610a4560c0830183615b15565b90501115610a93576000610a778a610a636040850160208601615585565b610a7060c0860186615b15565b8a89610d50565b6060870151909550909150610a8c9082610ef6565b6060860152505b610aae89868660608501356107dd60a08701608088016153a6565b50600101610971565b50610ac1836111e4565b610b5357604051635c5763b360e01b815273__$f6541b0d362a0c7d99a2a29cd3d373d61b$__90635c5763b390610b00908a90879086906004016157eb565b60c06040518083038186803b158015610b1857600080fd5b505af4158015610b2c573d6000803e3d6000fd5b505050506040513d601f19601f82011682018060405250810190610b509190615428565b92505b50909150505b9392505050565b610b6a81836111f1565b60208101516001600160f81b0319161561093957604051636ccc642f60e01b815273__$841fddfe32830bb6dbc3a02d7f16c53722$__90636ccc642f90610bb590859060040161571e565b60006040518083038186803b158015610bcd57600080fd5b505af4158015610697573d6000803e3d6000fd5b610be9614c6d565b6000610bf4836114e8565b9050610bff81611596565b15610c95576040516337b5fc2160e11b815273__$f6541b0d362a0c7d99a2a29cd3d373d61b$__90636f6bf84290610c3d90869085906004016157ce565b60c06040518083038186803b158015610c5557600080fd5b505af4158015610c69573d6000803e3d6000fd5b505050506040513d601f19601f82011682018060405250810190610c8d9190615428565b915050610c98565b90505b919050565b610ca5614ca2565b610cad614ca2565b60ff8416610cbc579050610b59565b610cc685856115e7565b815260ff84166060820152826001600160401b0381118015610ce757600080fd5b50604051908082528060200260200182016040528015610d2157816020015b610d0e614cca565b815260200190600190039081610d065790505b506020820152949350505050565b610d38826115f3565b610120850152610d4a84848484611605565b50505050565b6000610d5a614ca2565b610d63846111e4565b15610e53578661ffff16846060015161ffff1614610d935760405162461bcd60e51b815260040161019e90615a6d565b60608401518451604051633643f39b60e01b815260009273__$7ac922d04bd7a1b42c7f6e5f1dd89a70af$__92633643f39b92610dda928e9290918d908d906004016158b8565b604080518083038186803b158015610df157600080fd5b505af4158015610e05573d6000803e3d6000fd5b505050506040513d601f19601f82011682018060405250810190610e2991906153f9565b90935090508015610e4d57602085018051600160f81b176001600160f81b03191690525b50610eeb565b60405163b58f83ed60e01b815273__$7ac922d04bd7a1b42c7f6e5f1dd89a70af$__9063b58f83ed90610e92908b908b9088908c908c90600401615840565b60006040518083038186803b158015610eaa57600080fd5b505af4158015610ebe573d6000803e3d6000fd5b505050506040513d6000823e601f3d908101601f19168201604052610ee691908101906154ca565b925090505b965096945050505050565b81810182811215600083121514610f0c57600080fd5b92915050565b6000610c95600019836116ad565b610f28614d09565b610c958260016116fb565b6000610b596ec097ce7bc90715b34b9f1000000000610f5f8560000151856116ad90919063ffffffff16565b90611795565b60006305f5e10083604001511215610f8d57610f86600161046085856117c6565b9050610f0c565b610b5983610f9c846001610ef6565b6117c6565b600082610fb057506000610fec565b60008313610fbd57600080fd5b610fd384866000015185886101200151866117fe565b6060870151909250610fe6915082610ef6565b60608601525b949350505050565b6000806110048461ffff166118c0565b5090506000816001600160a01b0316631ee108336040518163ffffffff1660e01b8152600401602060405180830381600087803b15801561104457600080fd5b505af1158015611058573d6000803e3d6000fd5b505050506040513d601f19601f8201168201806040525081019061107c91906153e1565b90506000811361108b57600080fd5b6110a181610f5f86670de0b6b3a76400006116ad565b95945050505050565b6000816110b957506000610b59565b600082136110c657600080fd5b60006110d9856000015161ffff166118f7565b80519091506001600160a01b03166110f057600080fd5b60018160600151600581111561110257fe5b148061111d575060028160600151600581111561111b57fe5b145b156111555784516101208601516111399183918690889061190a565b606086015190925061114b9083610ef6565b606086015261117d565b60048160600151600581111561116757fe5b141561007b5761117a8585856000610fa1565b91505b509392505050565b60808301511561119457600080fd5b610d4a8383836000600161199b565b6000806111b08484611b4b565b9150915081600014156111c4575050610939565b81811115610d4a5760405162461bcd60e51b815260040161019e9061591a565b6060015161ffff16151590565b60006111fb611bbc565b6001600160a01b03831660008181526020838152604080832088518154938a01518a84015160608c015160808d015160a08e015164ffffffffff1990981664ffffffffff9095169490941765ff00000000001916600160281b60f89490941c939093029290921766ff0000000000001916600160301b60ff909216919091021768ffff000000000000001916600160381b61ffff90921691909102177affffffffffffffffffffffffffffffffffff0000000000000000001916600160481b60709290921c919091021760ff60d81b1916600160d81b93151593909302929092179091555192935090917f6bd4b121bca854a191536a2ca891155c42ee2fb23f307fb34e8bc65cfcb5412e9190a2505050565b600061131982611bc9565b905060008082121561132a57600080fd5b600084600681111561133857fe5b1415611345575050610d4a565b600184600681111561135357fe5b148061136a5750600384600681111561136857fe5b145b156113815761137a8587846110aa565b90506113cf565b600284600681111561138f57fe5b14806113a6575060048460068111156113a457fe5b145b156113b85761137a8587846000610fa1565b60068460068111156113c657fe5b14156113cf5750805b6106978686868585611be3565b60006113e784611bc9565b905060008112156113f757600080fd5b845161ffff1660011461142157816114215760405162461bcd60e51b815260040161019e90615a01565b8215611449576060850151602086015161143a91610ef6565b90506000811215611449575060005b61145281610f12565b60808601526114648588888515611dfc565b508451610120860151611476916111a3565b50505050505050565b600080600080600080611490611e0c565b6001600160a01b039097166000908152602097909752505060409094205461ffff81169563ffffffff62010000830481169650600160301b830416945060ff600160501b8304169350600160581b90910460d81b9150565b6114f0614c6d565b60006114fa611bbc565b6001600160a01b03841660009081526020918252604090819020815160c081018352905464ffffffffff811682526001600160f81b0319600160281b820460f81b169382019390935260ff600160301b840481169282019290925261ffff600160381b84041660608201526001600160701b0319600160481b840460701b166080820152600160d81b90920416151560a0820152915050919050565b6000426115a2836111e4565b156115c3576115b081611e19565b835164ffffffffff16109150610c989050565b825164ffffffffff1615801590610c8d5750825164ffffffffff1611159050610c98565b606061117d8383611e37565b6115fb614d38565b610c958242611e58565b8161ffff16600010801561161f5750613fff61ffff831611155b61162857600080fd5b61ffff821680855261163b908290611f19565b1561166a576116508383866101200151611fa3565b61010088015260e087015260408601526020850152611688565b6000602085018190526040850181905260e085018190526101008501525b50506000606083018190526080830181905260a0830181905260c09092019190915250565b8181026000198314156116dd578115806116cf5750828282816116cc57fe5b05145b6116d857600080fd5b610f0c565b8215806116f25750818382816116ef57fe5b05145b610f0c57600080fd5b611703614d09565b600061170d61205d565b6000858152602082815260408083208715158452825291829020825160a08101845281546001600160a01b038116825260ff600160a01b82048116151594830194909452600160b01b81048416600a0a9482019490945293945092916060830191600160a81b90910416600581111561178257fe5b8152600060209091015295945050505050565b6000816000191480156117ab5750600160ff1b83145b156117b557600080fd5b8183816117be57fe5b059392505050565b60006305f5e100836040015114156117df575080610f0c565b610b596305f5e100610f5f8560400151856116ad90919063ffffffff16565b600080600061180c8661206a565b9050806118205760008092509250506118b6565b600061182f8861ffff16610f20565b905060038160600151600581111561184357fe5b141561188a57348210156118635761185e8983340387612079565b611882565b3482146118825760405162461bcd60e51b815260040161019e90615969565b8693506118a4565b6118a161189c82600001518b85612146565b611bc9565b93505b6118b1898986848a6122ce565b925050505b9550959350505050565b60008060006118cd612315565b600094855260205250506040909120546001600160a01b03811692600160a01b90910460ff169150565b6118ff614d09565b610c958260006116fb565b600061191b86600001518486612146565b9350600061192c8661ffff16610f20565b9050600060028860600151600581111561194257fe5b141561195c5761195561189c8988612322565b9050611982565b60018860600151600581111561196e57fe5b141561007b5761195561189c8984896123d3565b61198f85888385886122ce565b98975050505050505050565b6000806119b886886000015189608001518a610120015188612593565b915060006119d788608001518960600151610ef690919063ffffffff16565b90508380156119e65750600081125b8015611a01575060208801516000906119ff9083610ef6565b125b15611a27578560a00151611a275760405162461bcd60e51b815260040161019e906159ae565b8015611a46576020880151611a3c9082610ef6565b6020890152600191505b60a0880151151580611a5b575060c088015115155b15611abe576000611a858960c001516104608b60a001518c60400151610ef690919063ffffffff16565b90506000811215611aa85760405162461bcd60e51b815260040161019e90615aa4565b611ab3898983612636565b506040890152600191505b8115611aed57611aed8789600001518a602001518b604001518c60e001518d61010001518e6101200151612723565b87516020890151611b1a9161ffff1690151580611b0d575060408a015115155b889190600160fe1b61285e565b600088602001511215611b4057602086018051600160f91b176001600160f81b03191690525b505095945050505050565b6000806000611b58612a64565b61ffff85166000908152602091909152604090206001810154909150611b8a90600160581b900463ffffffff16612a71565b8154909350600160281b90046001600160581b0316611bb1611bac8783610f33565b61206a565b925050509250929050565b600080610f0c6001612a7f565b60006001600160ff1b03821115611bdf57600080fd5b5090565b6003836006811115611bf157fe5b1480611c0857506004836006811115611c0657fe5b145b80611c1e57506006836006811115611c1c57fe5b145b15611ce3576060840151611c329082612a98565b6060850152835160405163698ac6fd60e11b815260009173__$892f367d396be2b92d3b049e6e62920984$__9163d3158dfa91611c76918a9190879060040161581b565b60206040518083038186803b158015611c8e57600080fd5b505af4158015611ca2573d6000803e3d6000fd5b505050506040513d601f19601f82011682018060405250810190611cc691906153e1565b60c0860151909150611cd89082610ef6565b60c086015250611df5565b6005836006811115611cf157fe5b1415611df55781611d1b8560c001516104608760a001518860400151610ef690919063ffffffff16565b1215611d395760405162461bcd60e51b815260040161019e90615a36565b60c0840151611d489083612a98565b60c08501528351604051630e22aaa360e01b815260009173__$43fd92ea4ea9b72ca0014644dbfd757564$__91630e22aaa391611d8c918a9190889060040161581b565b60206040518083038186803b158015611da457600080fd5b505af4158015611db8573d6000803e3d6000fd5b505050506040513d601f19601f82011682018060405250810190611ddc91906153e1565b6060860151909150611dee9082610ef6565b6060860152505b5050505050565b60006110a185858585600161199b565b600080610f0c6002612a7f565b600062015180821015611e2b57600080fd5b50620151808106900390565b606080611e448484612aae565b9150611e4f82612bca565b90509250929050565b611e60614d38565b6000611e6b84612d8a565b90508281600001511015611eaa57600080611e8586612e52565b9050611e9386848388612ecf565b9093509150611ea3868385612f73565b5050611eb7565b80518314611eb757600080fd5b6040518060600160405280611ee061189c8460a001518560c001516131a790919063ffffffff16565b8152602001611f0361189c8460a001518560e001516131a790919063ffffffff16565b8152602001826060015181525091505092915050565b60008115801590611f2c5750613fff8211155b611f3557600080fd5b6080830151606084015161ffff16831415611f54576001915050610f0c565b6001600160701b0319811615611f995760f081901c613fff1683811415611f865750600160fe1b908116149050610f0c565b5060101b6001600160801b031916611f54565b5060009392505050565b6000806000806000611fb36131ce565b6001600160a01b03891660009081526020828152604080832061ffff8c168452909152902080546001600160501b0381169650600160501b900463ffffffff169450909150831561202057805461201990600160701b900466ffffffffffffff16612a71565b9250612035565b8054600160701b900466ffffffffffffff1692505b8054612050908890600160a81b9004600a90810b900b6131db565b9550505093509350935093565b600080610f0c6007612a7f565b600080821215611bdf57600080fd5b801561210b577304b9c40df01bdc99dd2c31ae4b232f20f4bbac5b6001600160a01b031663d0e30db0836040518263ffffffff1660e01b81526004016000604051808303818588803b1580156120ce57600080fd5b505af11580156120e2573d6000803e3d6000fd5b50505050506121067304b9c40df01bdc99dd2c31ae4b232f20f4bbac5b8484613202565b612141565b6040516001600160a01b0384169083156108fc029084906000818181858888f19350505050158015610d4a573d6000803e3d6000fd5b505050565b600080846001600160a01b03166370a08231306040518263ffffffff1660e01b815260040180826001600160a01b0316815260200191505060206040518083038186803b15801561219657600080fd5b505afa1580156121aa573d6000803e3d6000fd5b505050506040513d60208110156121c057600080fd5b5051604080516323b872dd60e01b81526001600160a01b038781166004830152306024830152604482018790529151929350908716916323b872dd9160648082019260009290919082900301818387803b15801561221d57600080fd5b505af1158015612231573d6000803e3d6000fd5b5050505061223d613275565b6000856001600160a01b03166370a08231306040518263ffffffff1660e01b815260040180826001600160a01b0316815260200191505060206040518083038186803b15801561228c57600080fd5b505afa1580156122a0573d6000803e3d6000fd5b505050506040513d60208110156122b657600080fd5b505190506122c481836132e2565b9695505050505050565b6000806122db84866132f7565b90506122e78382613327565b91506122f4878784613349565b6122ff8683836133d3565b835161230b90866134d7565b5095945050505050565b600080610f0c600f612a7f565b815160405163db006a7560e01b8152600091479183916001600160a01b03169063db006a7590612356908790600401615af6565b602060405180830381600087803b15801561237057600080fd5b505af1158015612384573d6000803e3d6000fd5b505050506040513d601f19601f820116820180604052508101906123a891906153e1565b905080156123c85760405162461bcd60e51b815260040161019e9061598e565b476122c481846132e2565b60008083600001516001600160a01b03166370a08231306040518263ffffffff1660e01b8152600401612406919061571e565b60206040518083038186803b15801561241e57600080fd5b505afa158015612432573d6000803e3d6000fd5b505050506040513d601f19601f8201168201806040525081019061245691906153e1565b9050600085600001516001600160a01b031663db006a75856040518263ffffffff1660e01b815260040161248a9190615af6565b602060405180830381600087803b1580156124a457600080fd5b505af11580156124b8573d6000803e3d6000fd5b505050506040513d601f19601f820116820180604052508101906124dc91906153e1565b905080156124fc5760405162461bcd60e51b815260040161019e9061598e565b84516040516370a0823160e01b81526000916001600160a01b0316906370a082319061252c90309060040161571e565b60206040518083038186803b15801561254457600080fd5b505afa158015612558573d6000803e3d6000fd5b505050506040513d601f19601f8201168201806040525081019061257c91906153e1565b905061258881846132e2565b979650505050505050565b6000836125a2575060006110a1565b600084126125af57600080fd5b60006125be8661ffff16610f20565b90506125ce81610f9c8688610f33565b915060006125db83610f12565b90506125e887838361352c565b6003826060015160058111156125fa57fe5b14156126105761260b888286612079565b61261d565b815161261d908983613202565b61262a88888585896122ce565b50505095945050505050565b82516000904290829061264c9061ffff1661361a565b9050600061265f828860c0015185613640565b905061266d87838388613723565b9350600061267a83613850565b90506001600160a01b0381161561270857806001600160a01b0316631d684dd2888a600001516126ad8c6040015161206a565b8a8d60c001518b6040518763ffffffff1660e01b81526004016126d596959493929190615881565b600060405180830381600087803b1580156126ef57600080fd5b505af1158015612703573d6000803e3d6000fd5b505050505b84156127185761271887866138c2565b505050509392505050565b600061272d6131ce565b6001600160a01b03891660009081526020828152604080832061ffff8c1684529091529020909150846127955766ffffffffffffff84111561276e57600080fd5b805466ffffffffffffff60701b1916600160701b66ffffffffffffff8616021781556127af565b8054600160501b900463ffffffff1685146127af57600080fd5b6127b8856138e1565b815463ffffffff91909116600160501b0263ffffffff60501b199091161781556127e96127e48761206a565b6138f4565b815469ffffffffffffffffffff19166001600160501b03919091161780825561282f9061282a9085908c908c90600160a81b9004600a90810b900b8c61390a565b61392d565b8154600a9190910b6001600160581b0316600160a81b026001600160a81b039091161790555050505050505050565b8260001080156128705750613fff8311155b61287957600080fd5b81801561288d575082846060015161ffff16145b1561289757610d4a565b6080840151600090815b6001600160701b0319821615612a195760f082901c613fff1686811480156128c65750855b156128fe57506080870180516001600160f01b0319861660109093029290921c919091176001600160701b031916905250610d4a9050565b868114801561290b575085155b15612967576001600160f01b03198516199290921691600360fe1b8316612945576010836dffffffffffffffffffffffffffff1916901b92505b506001600160701b031991821660109091021c91909117166080850152610d4a565b86811180156129735750855b156129cd576080888101516001600160f01b031960f08a901b88178116601086021c9690961795911b16156129a757600080fd5b506001600160701b03199182166001919091016010021c91909117166080850152610d4a565b86811180156129da575085155b156129e85750505050610d4a565b506001600160f01b0319821660108281029190911c93909317929190911b6001600160801b031916906001016128a1565b84612a2657505050610d4a565b60098110612a3357600080fd5b6001600160f01b031960f087901b85171660109091021c919091176001600160701b03191660808601525050505050565b600080610f0c601d612a7f565b600881901c60ff9091161b90565b6000620f4240826026811115612a9157fe5b0192915050565b80820382811315600083121514610f0c57600080fd5b606060088260ff161115612ac157600080fd5b6000612acb61395f565b6001600160a01b038516600090815260208290526040812091925060ff85166001600160401b0381118015612aff57600080fd5b50604051908082528060200260200182016040528015612b3957816020015b612b26614cca565b815260200190600190039081612b1e5790505b50905060005b8560ff1681101561230b576000838260088110612b5857fe5b0190506000838381518110612b6957fe5b602090810291909101810151835461ffff8116825264ffffffffff620100008204169282019290925260ff600160381b830416604082015268010000000000000000909104600a90810b900b60608201526080019190915250600101612b3f565b8051606090806001600160401b0381118015612be557600080fd5b50604051908082528060200260200182016040528015612c0f578160200160208202803683370190505b50915060005b81811015612c6c576000848281518110612c2b57fe5b60200260200101519050612c4c81600001518260200151836040015161396c565b848381518110612c5857fe5b602090810291909101015250600101612c15565b5060015b81811015612d8357805b600081118015612cb25750838181518110612c9157fe5b6020026020010151846001830381518110612ca857fe5b6020026020010151115b15612d7a57838181518110612cc357fe5b6020026020010151846001830381518110612cda57fe5b6020026020010151856001840381518110612cf157fe5b60200260200101868481518110612d0457fe5b6020026020010182815250828152505050848181518110612d2157fe5b6020026020010151856001830381518110612d3857fe5b6020026020010151866001840381518110612d4f57fe5b60200260200101878481518110612d6257fe5b60209081029190910101919091525260001901612c7a565b50600101612c70565b5050919050565b612d92614d59565b6000612d9c612a64565b61ffff93841660009081526020918252604090819020805464ffffffffff81168652600160281b81046001600160581b03908116948701949094526001820154841692860192909252600160d81b820463ffffffff166060860152600160801b9091049091166080840152600201546001600160501b0380821660a0850152600160501b8204811660c0850152600160a01b82041660e0840152600160f01b900460ff1661012c02909216610100820152919050565b600080612e5e83613995565b6001600160a01b031663ef81f2166040518163ffffffff1660e01b81526004016040805180830381600087803b158015612e9757600080fd5b505af1158015612eab573d6000803e3d6000fd5b505050506040513d601f19601f82011682018060405250810190610fec91906155a1565b612ed7614d59565b6000806000612ee78886896139c5565b60c08b019290925260e08a019290925260208901519193509150612f0b9083613ad0565b6020880152608087015160009015612f39576080880151612f3690612f3089826132e2565b90613ae2565b90505b612f59612f4e670de0b6b3a764000083613ad0565b60a08a015190613aff565b60a089015250506080860194909452505082529092909150565b6000612f7d612a64565b60008561ffff1681526020019081526020016000209050612fa18260000151613b1c565b815464ffffffffff191664ffffffffff9190911617815560a0820151612fc6906138f4565b60028201805469ffffffffffffffffffff19166001600160501b039290921691909117905560c0820151612ff9906138f4565b81600201600a6101000a8154816001600160501b0302191690836001600160501b0316021790555061302e8260e001516138f4565b8160020160146101000a8154816001600160501b0302191690836001600160501b031602179055506130638260200151613b30565b81546001600160581b0391909116600160281b026fffffffffffffffffffffff000000000019909116178155604082015161309d90613b30565b6001820180546affffffffffffffffffffff19166001600160581b039290921691909117905560808201516130d190613b30565b81546001600160581b0391909116600160801b026affffffffffffffffffffff60801b199091161781556060820151613109906138e1565b815463ffffffff91909116600160d81b0263ffffffff60d81b19909116178155821561315557600061313a84611bc9565b90506131468582613b46565b613153610fee8683613349565b505b8361ffff167fef25641e225e493886510ca1ad6584fa7b442b9fea820a29d1de3ce27d270fd28360a001518460c001518560e0015160405161319993929190615aff565b60405180910390a250505050565b6000826131b657506000610f0c565b828202828482816131c357fe5b0414610b5957600080fd5b600080610f0c6006612a7f565b60008082126131eb575080610f0c565b82516020840151610f869190610f5f9085906116ad565b826001600160a01b031663a9059cbb83836040518363ffffffff1660e01b815260040180836001600160a01b0316815260200182815260200192505050600060405180830381600087803b15801561325957600080fd5b505af115801561326d573d6000803e3d6000fd5b505050506121415b600061327f614da5565b3d8015613293576020811461329c57600080fd5b600192506132a7565b60206000833e815192505b5081610939576040805162461bcd60e51b8152602060048201526005602482015264045524332360dc1b604482015290519081900360640190fd5b6000828211156132f157600080fd5b50900390565b60006305f5e10083604001511415613310575080610f0c565b6040830151610b5990610f5f846305f5e1006116ad565b8151600090610b5990610f5f846ec097ce7bc90715b34b9f10000000006116ad565b6000613353613b7d565b61ffff8416600090815260209190915260409081902054905163ad1c095d60e01b81526001600160a01b039091169150819063ad1c095d9061339b90879086906004016157b5565b600060405180830381600087803b1580156133b557600080fd5b505af11580156133c9573d6000803e3d6000fd5b5050505050505050565b60006133dd612a64565b61ffff8516600090815260209190915260409020805490915064ffffffffff16421461340857600080fd5b805460009061342790600160281b90046001600160581b031685610ef6565b825490915060009061344990600160801b90046001600160581b031685610ef6565b905080624c4b40131561345b57600080fd5b61346c6134678261206a565b613b30565b83546001600160581b0391909116600160801b026affffffffffffffffffffff60801b199091161783556134a26134678361206a565b83546001600160581b0391909116600160281b026fffffffffffffffffffffff00000000001990911617835561069783613b8a565b60006134e1613c55565b6001600160a01b03841660009081526020829052604090205490915061350a611bac8285610ef6565b6001600160a01b03909416600090815260209290925250604090209190915550565b6000613536613c55565b83516001600160a01b0316600090815260208290526040902054909150808311613561575050612141565b600061356c86613995565b90506000816001600160a01b031663b5e4da238487036040518263ffffffff1660e01b815260040161359e9190615af6565b60006040518083038186803b1580156135b657600080fd5b505afa1580156135ca573d6000803e3d6000fd5b505050506040513d6000823e601f3d908101601f191682016040526135f29190810190615299565b905060006136008783613c62565b915061360e90508482613ad0565b8611156133c957600080fd5b600080613625613e79565b6000938452602052505060409020546001600160a01b031690565b600080600061364f8685613e86565b5091509150600061365e613f1c565b6001600160a01b03881660009081526020829052604081209192506136838589610ef6565b90508060001315801561369c57506001600160601b0381105b6136a557600080fd5b81546bffffffffffffffffffffffff19166001600160601b038216176fffffffffffffffffffffffffffffffff60601b1916600160601b6001600160801b0386160217825563ffffffff87106136fa57600080fd5b50805463ffffffff8716600160e01b026001600160e01b03909116179055509150509392505050565b60e0840151600090156137e45773__$b21a4dc043b77aa57922ad9143a3cb040e$__63e0c01a7285613758886040015161206a565b8860e001518961010001516040518563ffffffff1660e01b815260040161378294939291906158f4565b60206040518083038186803b15801561379a57600080fd5b505af41580156137ae573d6000803e3d6000fd5b505050506040513d601f19601f820116820180604052508101906137d291906153e1565b600060e0870181905261010087015290505b61382661381f866101000151613819670de0b6b3a76400006138138861380d8c6040015161206a565b906131a7565b90613f29565b906132e2565b8290613ad0565b905061383e670de0b6b3a764000061381384866131a7565b85610100018181525050949350505050565b60008061385b611e0c565b6001600160a01b0384166000908152602082905260409020805491925090600160f81b900460ff16156138b757613890613f48565b6001600160a01b038086166000908152602092909252604090912054169250610c98915050565b600092505050610c98565b61093973c5e91b01f9b23952821410be7aa3c45b6429c6708383613202565b600063ffffffff821115611bdf57600080fd5b60006001600160501b03821115611bdf57600080fd5b60006139168683613f55565b90506110a18686866139288786613f94565b61401b565b60006a7fffffffffffffffffffff19821280159061395657506a7fffffffffffffffffffff8213155b611bdf57600080fd5b600080610f0c600d612a7f565b67ffff000000000000603084901b1665ffffffffff00600884901b161760ff8216179392505050565b6000806139a0614048565b61ffff939093166000908152602093909352505060409020546001600160a01b031690565b6000806000806000806139d88988614055565b895190955091935091506000906139ff906139f4908b906132e2565b633b9aca00906131a7565b9050613a39613a2e6301da9c00613a1685856131a7565b81613a1d57fe5b670de0b6b3a7640000919004613ad0565b60e08a015190613aff565b9650613a5b613a506301da9c00613a1687856131a7565b60c08a015190613aff565b955081831415613a72575060009350613ac7915050565b6000613a94613a896301da9c00613a1687866131a7565b60e08b015190613aff565b90506000613aa289836132e2565b9050613abf88613813838d604001516131a790919063ffffffff16565b965050505050505b93509350935093565b600082820183811015610b5957600080fd5b6000610b59613af984670de0b6b3a76400006131a7565b83613f29565b6000610b59613b0e84846131a7565b670de0b6b3a7640000613f29565b600064ffffffffff821115611bdf57600080fd5b60006001600160581b03821115611bdf57600080fd5b6000811215613b5457600080fd5b6000613b62610fee846140ef565b9050613b6e8183610ef6565b9050612141610fee8483614148565b600080610f0c6021612a7f565b80546002820154600091613bcc91600160281b9091046001600160581b031690613bc6906001600160501b03600160501b8204811691166116ad565b906116ad565b60018301546002840154919250600091613c06916001600160581b031690613bc6906001600160501b03600160a01b8204811691166116ad565b8354909150600090613c3d9060016001600160581b03600160801b909204821601166ec097ce7bc90715b34b9f10000000006116ad565b905080613c4a8484612a98565b1315610d4a57600080fd5b600080610f0c6026612a7f565b60008060005b8351811015613e71576000848281518110613c7f57fe5b60200260200101519050600081606001516001600160a01b03166370a08231306040518263ffffffff1660e01b8152600401613cbb919061571e565b60206040518083038186803b158015613cd357600080fd5b505afa158015613ce7573d6000803e3d6000fd5b505050506040513d601f19601f82011682018060405250810190613d0b91906153e1565b90506000613d1988306141bc565b905060005b835151811015613d7557613d6484600001518281518110613d3b57fe5b6020026020010151600086602001518481518110613d5557fe5b60200260200101516001614266565b613d6d57600196505b600101613d1e565b506000613d8289306141bc565b90506000613d9082846132e2565b90508085604001511115613da357600080fd5b60608501516040516370a0823160e01b81526000916001600160a01b0316906370a0823190613dd690309060040161571e565b60206040518083038186803b158015613dee57600080fd5b505afa158015613e02573d6000803e3d6000fd5b505050506040513d601f19601f82011682018060405250810190613e2691906153e1565b905084811115613e3557600080fd5b613e44866060015186836144d4565b613e4e8883613ad0565b9750613e5f8b6000015185856144d4565b505060019094019350613c6892505050565b509250929050565b600080610f0c6003612a7f565b6000806000613e9485614551565b919450925090508084118015613eaa5750600081115b8015613eb65750600083115b15613f15576000613ec68661147f565b5050509150506000613ef1613ee86305f5e100846131a790919063ffffffff16565b848803876145ad565b9050613efd8482613ad0565b93506001600160801b038410613f1257600080fd5b50505b9250925092565b600080610f0c6011612a7f565b6000808211613f3757600080fd5b818381613f4057fe5b049392505050565b600080610f0c6012612a7f565b600080821215613f8e57613f896001613f838560200151610f5f8760000151876116ad90919063ffffffff16565b90612a98565b610b59565b50919050565b600081831480613fb1575060008312158015613fb1575060008212155b15613fbe57506000610f0c565b60008313158015613fcf5750816000125b15613fdb575081610f0c565b60008213158015613fec5750826000125b15613ffa57610f8682610f12565b6000831315801561400c575060008213155b1561007b57610f868383612a98565b8015610d4a578351602085015160009161403a91610f5f9085906116ad565b9050611df5848484846145cf565b600080610f0c601f612a7f565b6000806000806000856020015111156140a25761409f6140868660c0015187602001516131a790919063ffffffff16565b60e08701516040880151614099916131a7565b9061470c565b90505b60006140ad8761471f565b90506140b98183614752565b945081156140d0576140cd8186600161480b565b93505b602086015115613f12576140e4858361487c565b925050509250925092565b6000806140fa6131ce565b6001600160a01b03851660009081526020828152604080832061ffff8816845290915281208054600160a81b9004600a90810b900b945091925083121561414057600080fd5b505092915050565b600081121561415657600080fd5b60006141606131ce565b6001600160a01b03851660009081526020828152604080832061ffff8816845290915290209091506141918361392d565b8154600a9190910b6001600160581b0316600160a81b026001600160a81b0390911617905550505050565b60006003836060015160058111156141d057fe5b14156141e757506001600160a01b03811631610f0c565b82516040516370a0823160e01b81526001600160a01b03909116906370a082319061421690859060040161571e565b60206040518083038186803b15801561422e57600080fd5b505afa158015614242573d6000803e3d6000fd5b505050506040513d601f19601f82011682018060405250810190610f8691906153e1565b6000806000866001600160a01b031686866040518082805190602001908083835b602083106142a65780518252601f199092019160209182019101614287565b6001836020036101000a03801982511681845116808217855250505050505090500191505060006040518083038185875af1925050503d8060008114614308576040519150601f19603f3d011682016040523d82523d6000602084013e61430d565b606091505b5091509150836143b0578161432182614895565b906143aa5760405162461bcd60e51b81526004018080602001828103825283818151815260200191508051906020019080838360005b8381101561436f578181015183820152602001614357565b50505050905090810190601f16801561439c5780820380516001836020036101000a031916815260200191505b509250505060405180910390fd5b5061230b565b866001600160a01b03167f3c7e398c5e91088cae639370e35b25ea669d81fbdf0def5388e73661bc34e08e87876143e685614895565b604051808481526020018060200180602001838103835285818151815260200191508051906020019080838360005b8381101561442d578181015183820152602001614415565b50505050905090810190601f16801561445a5780820380516001836020036101000a031916815260200191505b50838103825284518152845160209182019186019080838360005b8381101561448d578181015183820152602001614475565b50505050905090810190601f1680156144ba5780820380516001836020036101000a031916815260200191505b509550505050505060405180910390a25095945050505050565b60006144de613c55565b6001600160a01b0385166000908152602082905260409020549091508381111561450757600080fd5b600061451e61451586611bc9565b613f8386611bc9565b905061452d611bac8383610ef6565b6001600160a01b039096166000908152602093909352505060409020929092555050565b60008060008061455f613f1c565b6001600160a01b0395909516600090815260209590955250506040909220546001600160601b03811693600160601b82046001600160801b03169350600160e01b90910463ffffffff169150565b6000610fec826138136301da9c00818861380d89670de0b6b3a76400006131a7565b60006145d9612a64565b61ffff8516600090815260209190915260409020805490915064ffffffffff16421461460457600080fd5b8054600160f81b900460ff1661461957600080fd5b6001810154600090614634906001600160581b031685610ef6565b825490915060009061465690600160281b90046001600160581b031685610ef6565b9050816009191280156146695750600082125b1561467357600091505b806009191280156146845750600081125b1561468d575060005b6146996134678361206a565b6001840180546affffffffffffffffffffff19166001600160581b03929092169190911790556146cb6134678261206a565b83546001600160581b0391909116600160281b026fffffffffffffffffffffff0000000000199091161783556147038787868861499c565b61147683613b8a565b6000610b59613af984633b9aca006131a7565b614727614dc3565b6000614731614aa4565b61ffff8416600090815260209190915260408120549150610b599082614ab1565b60008083608001511161476457600080fd5b633b9aca0082111561477557600080fd5b825182116147945782516040840151610f8691906138139085906131a7565b826020015182116147d2576040830151835160208501516060860151610f8693926147cc9281900391613813918803908590036131a7565b90613ad0565b610b5983606001516147cc8560200151633b9aca00036138138760600151886080015103886020015188036131a790919063ffffffff16565b60008061482a60646138138760e00151876131a790919063ffffffff16565b90508460a0015181101561483f575060a08401515b8460c00151811115614852575060c08401515b82156148625761117a8482613ad0565b8381116148715780840361117a565b600095945050505050565b6000610b5961488b84846131a7565b633b9aca00613f29565b60606044825110156148cb575060408051808201909152600d81526c14da5b195b9d0814995d995c9d609a1b6020820152610c98565b60048201805190926024019060208110156148e557600080fd5b810190808051604051939291908464010000000082111561490557600080fd5b90830190602082018581111561491a57600080fd5b825164010000000081118282018810171561493457600080fd5b82525081516020918201929091019080838360005b83811015614961578181015183820152602001614949565b50505050905090810190601f16801561498e5780820380516001836020036101000a031916815260200191505b506040525050509050919050565b60006149a6613b7d565b61ffff8516600090815260209190915260408120546001600160a01b031691506149ce614bd0565b61ffff8616600090815260209190915260409081902054905163ad1c095d60e01b81526001600160a01b039091169150819063ad1c095d90614a1690899087906004016157b5565b600060405180830381600087803b158015614a3057600080fd5b505af1158015614a44573d6000803e3d6000fd5b505060405163ad1c095d60e01b81526001600160a01b038516925063ad1c095d9150614a7690899088906004016157b5565b600060405180830381600087803b158015614a9057600080fd5b505af1158015610692573d6000803e3d6000fd5b600080610f0c601b612a7f565b614ab9614dc3565b6064633b9aca008360ff861660208110614acf57fe5b1a0281614ad857fe5b0481526064633b9aca008360ff861660010160208110614af457fe5b1a0281614afd57fe5b04816020018181525050614b228260028560ff160160208110614b1c57fe5b1a614bdd565b60808201819052610100908360ff861660030160208110614b3f57fe5b1a0281614b4857fe5b0460408201526080810151610100908360ff861660040160208110614b6957fe5b1a0281614b7257fe5b0460608201526207a1208260ff851660050160208110614b8e57fe5b1a0260a0820152622625a08260ff851660060160208110614bab57fe5b1a0260c08201528160ff841660070160208110614bc457fe5b1a60e082015292915050565b600080610f0c6022612a7f565b60008160ff16609610614bf85760ff8216622625a002610c95565b5060951960ff919091160162e4e1c00263165a0bc00190565b604051806101400160405280600061ffff1681526020016000815260200160008152602001600081526020016000815260200160008152602001600081526020016000815260200160008152602001614c68614d38565b905290565b6040805160c081018252600080825260208201819052918101829052606081018290526080810182905260a081019190915290565b6040518060800160405280606081526020016060815260200160008152602001600081525090565b6040518060c00160405280600061ffff1681526020016000815260200160008152602001600081526020016000815260200160006003811115614c6857fe5b6040805160a0810182526000808252602082018190529181018290529060608201908152602001600081525090565b60405180606001604052806000815260200160008152602001600081525090565b6040518061012001604052806000815260200160008152602001600081526020016000815260200160008152602001600081526020016000815260200160008152602001600081525090565b60405180602001604052806001906020820280368337509192915050565b60405180610100016040528060008152602001600081526020016000815260200160008152602001600081526020016000815260200160008152602001600081525090565b8051610c9881615bcf565b600082601f830112614e23578081fd5b81516020614e38614e3383615bb2565b615b8f565b8281528181019085830183850287018401881015614e54578586fd5b855b85811015614e7b578151614e6981615bcf565b84529284019290840190600101614e56565b5090979650505050505050565b6000601f8381840112614e99578182fd5b82516020614ea9614e3383615bb2565b82815281810190868301865b85811015614f4d57815189018a603f820112614ecf578889fd5b858101516001600160401b03811115614ee457fe5b614ef5818a01601f19168801615b8f565b81815260408d81848601011115614f0a578b8cfd5b8b5b83811015614f27578481018201518382018b01528901614f0c565b83811115614f37578c8a85850101525b5050865250509284019290840190600101614eb5565b509098975050505050505050565b60008083601f840112614f6c578182fd5b5081356001600160401b03811115614f82578182fd5b6020830191508360208083028501011115614f9c57600080fd5b9250929050565b600082601f830112614fb3578081fd5b81516020614fc3614e3383615bb2565b8281528181019085830160c080860288018501891015614fe1578687fd5b865b868110156150725781838b031215614ff9578788fd5b604080518381018181106001600160401b038211171561501557fe5b8252845161502281615bf5565b815284880151888201528185015191810191909152606080850151908201526080808501519082015260a0906150598286016150bb565b9181019190915285529385019391810191600101614fe3565b509198975050505050505050565b8051610c9881615be7565b80516001600160701b031981168114610c9857600080fd5b80516001600160f81b031981168114610c9857600080fd5b805160048110610c9857600080fd5b8051610c9881615bf5565b805160ff81168114610c9857600080fd5b6000806000604084860312156150fa578283fd5b833561510581615bcf565b925060208401356001600160401b0381111561511f578283fd5b61512b86828701614f5b565b9497909650939450505050565b60008060008060006060868803121561514f578283fd5b853561515a81615bcf565b945060208601356001600160401b0380821115615175578485fd5b61518189838a01614f5b565b90965094506040880135915080821115615199578283fd5b818801915088601f8301126151ac578283fd5b8135818111156151ba578384fd5b8960208285010111156151cb578384fd5b9699959850939650602001949392505050565b6000806000604084860312156151f2578081fd5b83356151fd81615bcf565b925060208401356001600160401b0380821115615218578283fd5b818601915086601f83011261522b578283fd5b813581811115615239578384fd5b87602060c08302850101111561524d578384fd5b6020830194508093505050509250925092565b600080600060408486031215615274578081fd5b833561527f81615bcf565b925060208401356001600160401b0381111561511f578182fd5b600060208083850312156152ab578182fd5b82516001600160401b03808211156152c1578384fd5b818501915085601f8301126152d4578384fd5b81516152e2614e3382615bb2565b81815284810190848601875b8481101561539757815187016080818d03601f1901121561530d57898afd5b60408051608081018181108a8211171561532357fe5b8252828b015189811115615335578c8dfd5b6153438f8d83870101614e13565b8252508183015189811115615356578c8dfd5b6153648f8d83870101614e88565b8c8301525060608301518282015261537e60808401614e08565b60608201528652505092870192908701906001016152ee565b50909998505050505050505050565b6000602082840312156153b7578081fd5b8135610b5981615be7565b6000602082840312156153d3578081fd5b813560078110610b59578182fd5b6000602082840312156153f2578081fd5b5051919050565b6000806040838503121561540b578182fd5b82519150602083015161541d81615be7565b809150509250929050565b600060c08284031215615439578081fd5b60405160c081018181106001600160401b038211171561545557fe5b604052825164ffffffffff8116811461546c578283fd5b815261547a602084016150a3565b602082015261548b604084016150d5565b604082015261549c606084016150ca565b60608201526154ad6080840161508b565b60808201526154be60a08401615080565b60a08201529392505050565b600080604083850312156154dc578182fd5b82516001600160401b03808211156154f2578384fd5b9084019060808287031215615505578384fd5b60405160808101818110838211171561551a57fe5b60405282518281111561552b578586fd5b61553788828601614fa3565b82525060208301518281111561554b578586fd5b61555788828601614fa3565b6020830152506040830151604082015260608301516060820152809450505050602083015190509250929050565b600060208284031215615596578081fd5b8135610b5981615bf5565b600080604083850312156155b3578182fd5b505080516020909101519092909150565b81835260006001600160fb1b038311156155dc578081fd5b6020830280836020870137939093016020019283525090919050565b6000815180845260208085019450808401835b83811015615669578151805161ffff168852838101518489015260408082015190890152606080820151908901526080808201519089015260a090810151906004821061565457fe5b88015260c0909601959082019060010161560b565b509495945050505050565b805164ffffffffff1682526020808201516001600160f81b0319169083015260408082015160ff169083015260608082015161ffff16908301526080808201516001600160701b0319169083015260a0908101511515910152565b60008151608084526156e460808501826155f8565b9050602083015184820360208601526156fd82826155f8565b91505060408301516040850152606083015160608501528091505092915050565b6001600160a01b0391909116815260200190565b6001600160a01b038581168252841660208201526060604082018190528101829052600082846080840137818301608090810191909152601f909201601f191601019392505050565b6001600160a01b0396871681529486166020860152928516604085015290841660608401528316608083015290911660a082015260c00190565b6001600160a01b03929092168252602082015260400190565b6001600160a01b038316815260e08101610b596020830184615674565b6001600160a01b038416815260006101006158096020840186615674565b8060e08401526122c4818401856156cf565b6001600160a01b0393909316835261ffff919091166020830152604082015260600190565b6001600160a01b038616815261ffff8516602082015260806040820181905260009061586e908301866156cf565b828103606084015261198f8185876155c4565b6001600160a01b0396909616865261ffff94909416602086015260408501929092526060840152608083015260a082015260c00190565b6001600160a01b038616815261ffff8516602082015264ffffffffff8416604082015260806060820181905260009061258890830184866155c4565b6001600160a01b0394909416845260208401929092526040830152606082015260800190565b6020808252600f908201526e04f76657220537570706c792043617608c1b604082015260600190565b6020808252600c908201526b155b985d5d1a1bdc9a5e995960a21b604082015260600190565b6020808252600b908201526a4554482042616c616e636560a81b604082015260600190565b60208082526006908201526552656465656d60d01b604082015260600190565b6020808252600f908201526e4e6f205072696d6520426f72726f7760881b604082015260600190565b60208082526010908201526f556e736f7274656420616374696f6e7360801b604082015260600190565b6020808252818101527f446570726563617465643a20526564656d7074696f6e20746f2063546f6b656e604082015260600190565b6020808252601a908201527f496e73756666696369656e7420746f6b656e2062616c616e6365000000000000604082015260600190565b6020808252601a908201527f496e76616c69642074726164657320666f72206163636f756e74000000000000604082015260600190565b6020808252600a90820152692732b390372a37b5b2b760b11b604082015260600190565b602080825260149082015273125b9cdd59999a58da595b9d0819195c1bdcda5d60621b604082015260600190565b90815260200190565b9283526020830191909152604082015260600190565b6000808335601e19843603018112615b2b578283fd5b8301803591506001600160401b03821115615b44578283fd5b6020908101925081023603821315614f9c57600080fd5b6000823560de19833603018112615b70578182fd5b9190910192915050565b60008235605e19833603018112615b70578182fd5b6040518181016001600160401b0381118282101715615baa57fe5b604052919050565b60006001600160401b03821115615bc557fe5b5060209081020190565b6001600160a01b0381168114615be457600080fd5b50565b8015158114615be457600080fd5b61ffff81168114615be457600080fdfea26469706673582212200cf39a66a799dc50bcbdebd1ad264383237b0c80ab64bf49e313015945d1344864736f6c63430007060033","language":"Solidity","natspec":{"kind":"dev","methods":{"batchBalanceAction(address,(uint8,uint16,uint256,uint256,bool,bool)[])":{"details":"emit:CashBalanceChange, emit:nTokenSupplyChangeauth:msg.sender auth:ERC1155","notice":"Executes a batch of balance transfers including minting and redeeming nTokens.","params":{"account":"the account for the action","actions":"array of balance actions to take, must be sorted by currency id"}},"batchBalanceAndTradeAction(address,(uint8,uint16,uint256,uint256,bool,bool,bytes32[])[])":{"details":"auth:msg.sender auth:ERC1155","notice":"Executes a batch of balance transfers and trading actions","params":{"account":"the account for the action","actions":"array of balance actions with trades to take, must be sorted by currency id"}},"batchBalanceAndTradeActionWithCallback(address,(uint8,uint16,uint256,uint256,bool,bool,bytes32[])[],bytes)":{"details":"auth:authorizedCallbackContract","notice":"Executes a batch of balance transfers and trading actions via an authorized callback contract. This can be used as a \"flash loan\" facility for special contracts that migrate assets between protocols or perform other actions on behalf of the user. Contracts can borrow from Notional and receive a callback prior to an FC check, this can be useful if the contract needs to perform a trade or repay a debt on a different protocol before depositing collateral. Since Notional's AMM will never be as capital efficient or gas efficient as other flash loan facilities, this method requires whitelisting and will mainly be used for contracts that make migrating assets a better user experience.","params":{"account":"the account that will take all the actions","actions":"array of balance actions with trades to take, must be sorted by currency id","callbackData":"arbitrary bytes to be passed backed to the caller in the callback"}},"batchLend(address,(uint16,bool,bytes32[])[])":{"details":"Note that this method does not work with native ETH because it requires the ability to pull payment from an ERC20 token. Therefore, this method is marked as nonpayable. It will still work with cETH or aETH.auth:msg.sender auth:ERC1155","notice":"Executes a batch of lending actions. This is different from batchBalanceAndTrade because it always pulls the required amount of tokens to get an account to a cash balance of zero. It reduces the gas costs for lending because there is no second token transfer where residual balances are sent back to the account.","params":{"account":"the account for the action","actions":"array of batch lending actions"}},"getLibInfo()":{"notice":"Get a list of deployed library addresses (sorted by library name)"}},"version":1},"opcodes":"PUSH1 0x80 PUSH1 0x40 MSTORE PUSH1 0x4 CALLDATASIZE LT PUSH2 0x7B JUMPI PUSH1 0x0 CALLDATALOAD PUSH1 0xE0 SHR DUP1 PUSH4 0x6E6A32A6 GT PUSH2 0x4E JUMPI DUP1 PUSH4 0x6E6A32A6 EQ PUSH2 0xF3 JUMPI DUP1 PUSH4 0x82463367 EQ PUSH2 0x106 JUMPI DUP1 PUSH4 0x8DA5CB5B EQ PUSH2 0x11B JUMPI DUP1 PUSH4 0xC4C96DAE EQ PUSH2 0x130 JUMPI PUSH2 0x7B JUMP JUMPDEST DUP1 PUSH4 0x276B64B EQ PUSH2 0x80 JUMPI DUP1 PUSH4 0x24A3D622 EQ PUSH2 0x95 JUMPI DUP1 PUSH4 0x541F5270 EQ PUSH2 0xC0 JUMPI DUP1 PUSH4 0x5950D8E9 EQ PUSH2 0xE0 JUMPI JUMPDEST PUSH1 0x0 DUP1 REVERT JUMPDEST PUSH2 0x93 PUSH2 0x8E CALLDATASIZE PUSH1 0x4 PUSH2 0x50E6 JUMP JUMPDEST PUSH2 0x157 JUMP JUMPDEST STOP JUMPDEST CALLVALUE DUP1 ISZERO PUSH2 0xA1 JUMPI PUSH1 0x0 DUP1 REVERT JUMPDEST POP PUSH2 0xAA PUSH2 0x1D4 JUMP JUMPDEST PUSH1 0x40 MLOAD PUSH2 0xB7 SWAP2 SWAP1 PUSH2 0x571E JUMP JUMPDEST PUSH1 0x40 MLOAD DUP1 SWAP2 SUB SWAP1 RETURN JUMPDEST CALLVALUE DUP1 ISZERO PUSH2 0xCC JUMPI PUSH1 0x0 DUP1 REVERT JUMPDEST POP PUSH2 0x93 PUSH2 0xDB CALLDATASIZE PUSH1 0x4 PUSH2 0x5260 JUMP JUMPDEST PUSH2 0x1E3 JUMP JUMPDEST PUSH2 0x93 PUSH2 0xEE CALLDATASIZE PUSH1 0x4 PUSH2 0x5138 JUMP JUMPDEST PUSH2 0x56F JUMP JUMPDEST PUSH2 0x93 PUSH2 0x101 CALLDATASIZE PUSH1 0x4 PUSH2 0x51DE JUMP JUMPDEST PUSH2 0x69F JUMP JUMPDEST CALLVALUE DUP1 ISZERO PUSH2 0x112 JUMPI PUSH1 0x0 DUP1 REVERT JUMPDEST POP PUSH2 0xAA PUSH2 0x812 JUMP JUMPDEST CALLVALUE DUP1 ISZERO PUSH2 0x127 JUMPI PUSH1 0x0 DUP1 REVERT JUMPDEST POP PUSH2 0xAA PUSH2 0x821 JUMP JUMPDEST CALLVALUE DUP1 ISZERO PUSH2 0x13C JUMPI PUSH1 0x0 DUP1 REVERT JUMPDEST POP PUSH2 0x145 PUSH2 0x838 JUMP JUMPDEST PUSH1 0x40 MLOAD PUSH2 0xB7 SWAP7 SWAP6 SWAP5 SWAP4 SWAP3 SWAP2 SWAP1 PUSH2 0x577B JUMP JUMPDEST PUSH1 0x2 PUSH1 0xA SLOAD EQ ISZERO PUSH2 0x167 JUMPI PUSH1 0x0 DUP1 REVERT JUMPDEST PUSH1 0x2 PUSH1 0xA SSTORE PUSH1 0x1 PUSH1 0x1 PUSH1 0xA0 SHL SUB DUP4 AND CALLER EQ DUP1 PUSH2 0x182 JUMPI POP CALLER ADDRESS EQ JUMPDEST PUSH2 0x1A7 JUMPI PUSH1 0x40 MLOAD PUSH3 0x461BCD PUSH1 0xE5 SHL DUP2 MSTORE PUSH1 0x4 ADD PUSH2 0x19E SWAP1 PUSH2 0x5943 JUMP JUMPDEST PUSH1 0x40 MLOAD DUP1 SWAP2 SUB SWAP1 REVERT JUMPDEST PUSH2 0x1B0 DUP4 PUSH2 0x8BE JUMP JUMPDEST PUSH1 0x0 PUSH2 0x1BD DUP5 DUP5 DUP5 PUSH2 0x93D JUMP JUMPDEST SWAP1 POP PUSH2 0x1C9 DUP5 DUP3 PUSH2 0xB60 JUMP JUMPDEST POP POP PUSH1 0x1 PUSH1 0xA SSTORE POP POP JUMP JUMPDEST PUSH1 0x2 SLOAD PUSH1 0x1 PUSH1 0x1 PUSH1 0xA0 SHL SUB AND DUP2 JUMP JUMPDEST PUSH1 0x2 PUSH1 0xA SLOAD EQ ISZERO PUSH2 0x1F3 JUMPI PUSH1 0x0 DUP1 REVERT JUMPDEST PUSH1 0x2 PUSH1 0xA SSTORE PUSH1 0x1 PUSH1 0x1 PUSH1 0xA0 SHL SUB DUP4 AND CALLER EQ DUP1 PUSH2 0x20E JUMPI POP CALLER ADDRESS EQ JUMPDEST PUSH2 0x22A JUMPI PUSH1 0x40 MLOAD PUSH3 0x461BCD PUSH1 0xE5 SHL DUP2 MSTORE PUSH1 0x4 ADD PUSH2 0x19E SWAP1 PUSH2 0x5943 JUMP JUMPDEST PUSH2 0x233 DUP4 PUSH2 0x8BE JUMP JUMPDEST PUSH1 0x0 PUSH2 0x23E DUP5 PUSH2 0xBE1 JUMP JUMPDEST SWAP1 POP PUSH1 0x0 PUSH2 0x252 DUP6 DUP4 PUSH1 0x40 ADD MLOAD PUSH1 0x0 PUSH2 0xC9D JUMP JUMPDEST SWAP1 POP PUSH2 0x25C PUSH2 0x4C11 JUMP JUMPDEST PUSH1 0x0 JUMPDEST DUP5 DUP2 LT ISZERO PUSH2 0x4BC JUMPI CALLDATASIZE DUP7 DUP7 DUP4 DUP2 DUP2 LT PUSH2 0x274 JUMPI INVALID JUMPDEST SWAP1 POP PUSH1 0x20 MUL DUP2 ADD SWAP1 PUSH2 0x286 SWAP2 SWAP1 PUSH2 0x5B7A JUMP JUMPDEST SWAP1 POP DUP2 ISZERO PUSH2 0x2EF JUMPI DUP7 DUP7 PUSH1 0x1 DUP5 SUB DUP2 DUP2 LT PUSH2 0x29D JUMPI INVALID JUMPDEST SWAP1 POP PUSH1 0x20 MUL DUP2 ADD SWAP1 PUSH2 0x2AF SWAP2 SWAP1 PUSH2 0x5B7A JUMP JUMPDEST PUSH2 0x2BD SWAP1 PUSH1 0x20 DUP2 ADD SWAP1 PUSH2 0x5585 JUMP JUMPDEST PUSH2 0xFFFF AND PUSH2 0x2CE PUSH1 0x20 DUP4 ADD DUP4 PUSH2 0x5585 JUMP JUMPDEST PUSH2 0xFFFF AND GT PUSH2 0x2EF JUMPI PUSH1 0x40 MLOAD PUSH3 0x461BCD PUSH1 0xE5 SHL DUP2 MSTORE PUSH1 0x4 ADD PUSH2 0x19E SWAP1 PUSH2 0x59D7 JUMP JUMPDEST PUSH1 0x0 PUSH2 0x2FE PUSH1 0x40 DUP4 ADD DUP4 PUSH2 0x5B15 JUMP JUMPDEST SWAP2 POP POP DUP1 PUSH2 0x30B JUMPI PUSH1 0x0 DUP1 REVERT JUMPDEST PUSH1 0x0 JUMPDEST DUP2 DUP2 LT ISZERO PUSH2 0x34E JUMPI PUSH1 0x0 PUSH2 0x325 PUSH1 0x40 DUP6 ADD DUP6 PUSH2 0x5B15 JUMP JUMPDEST DUP4 DUP2 DUP2 LT PUSH2 0x32F JUMPI INVALID JUMPDEST SWAP1 POP PUSH1 0x20 MUL ADD CALLDATALOAD PUSH1 0xF8 SHR PUSH1 0xFF AND EQ PUSH2 0x346 JUMPI PUSH1 0x0 DUP1 REVERT JUMPDEST PUSH1 0x1 ADD PUSH2 0x30E JUMP JUMPDEST POP PUSH2 0x369 DUP10 PUSH2 0x360 PUSH1 0x20 DUP6 ADD DUP6 PUSH2 0x5585 JUMP JUMPDEST DUP7 SWAP2 SWAP1 DUP10 PUSH2 0xD2F JUMP JUMPDEST PUSH2 0x38E DUP10 PUSH2 0x37A PUSH1 0x20 DUP6 ADD DUP6 PUSH2 0x5585 JUMP JUMPDEST PUSH2 0x387 PUSH1 0x40 DUP7 ADD DUP7 PUSH2 0x5B15 JUMP JUMPDEST DUP11 DUP11 PUSH2 0xD50 JUMP JUMPDEST PUSH1 0x60 DUP7 ADD DUP3 SWAP1 MSTORE SWAP6 POP PUSH1 0x0 SLT ISZERO PUSH2 0x3A4 JUMPI PUSH1 0x0 DUP1 REVERT JUMPDEST PUSH1 0x0 PUSH2 0x3C9 PUSH2 0x3C4 DUP7 PUSH1 0x60 ADD MLOAD DUP8 PUSH1 0x20 ADD MLOAD PUSH2 0xEF6 SWAP1 SWAP2 SWAP1 PUSH4 0xFFFFFFFF AND JUMP JUMPDEST PUSH2 0xF12 JUMP JUMPDEST SWAP1 POP PUSH1 0x0 DUP2 SGT ISZERO PUSH2 0x495 JUMPI PUSH1 0x0 DUP1 PUSH2 0x3F0 PUSH2 0x3E7 PUSH1 0x20 DUP8 ADD DUP8 PUSH2 0x5585 JUMP JUMPDEST PUSH2 0xFFFF AND PUSH2 0xF20 JUMP JUMPDEST SWAP1 POP PUSH1 0x0 PUSH2 0x416 PUSH2 0x40F DUP6 DUP11 PUSH2 0x120 ADD MLOAD PUSH2 0xF33 SWAP1 SWAP2 SWAP1 PUSH4 0xFFFFFFFF AND JUMP JUMPDEST DUP4 SWAP1 PUSH2 0xF65 JUMP JUMPDEST SWAP1 POP PUSH2 0x428 PUSH1 0x40 DUP8 ADD PUSH1 0x20 DUP9 ADD PUSH2 0x53A6 JUMP JUMPDEST ISZERO PUSH2 0x441 JUMPI PUSH2 0x43A DUP9 DUP15 DUP4 PUSH1 0x0 PUSH2 0xFA1 JUMP JUMPDEST SWAP3 POP PUSH2 0x471 JUMP JUMPDEST PUSH2 0x46E DUP14 PUSH2 0x466 PUSH1 0x1 PUSH2 0x460 PUSH2 0x45A PUSH1 0x20 DUP13 ADD DUP13 PUSH2 0x5585 JUMP JUMPDEST DUP7 PUSH2 0xFF4 JUMP JUMPDEST SWAP1 PUSH2 0xEF6 JUMP JUMPDEST DUP11 SWAP2 SWAP1 PUSH2 0x10AA JUMP JUMPDEST SWAP3 POP JUMPDEST DUP4 DUP4 SLT ISZERO PUSH2 0x491 JUMPI PUSH1 0x40 MLOAD PUSH3 0x461BCD PUSH1 0xE5 SHL DUP2 MSTORE PUSH1 0x4 ADD PUSH2 0x19E SWAP1 PUSH2 0x5AC8 JUMP JUMPDEST POP POP POP JUMPDEST PUSH2 0x4A0 DUP6 DUP12 DUP10 PUSH2 0x1185 JUMP JUMPDEST DUP5 MLOAD PUSH2 0x120 DUP7 ADD MLOAD PUSH2 0x4B1 SWAP2 PUSH2 0x11A3 JUMP JUMPDEST POP POP POP PUSH1 0x1 ADD PUSH2 0x25F JUMP JUMPDEST POP PUSH2 0x4C6 DUP4 PUSH2 0x11E4 JUMP JUMPDEST PUSH2 0x558 JUMPI PUSH1 0x40 MLOAD PUSH4 0x5C5763B3 PUSH1 0xE0 SHL DUP2 MSTORE PUSH20 0x0 SWAP1 PUSH4 0x5C5763B3 SWAP1 PUSH2 0x505 SWAP1 DUP10 SWAP1 DUP8 SWAP1 DUP8 SWAP1 PUSH1 0x4 ADD PUSH2 0x57EB JUMP JUMPDEST PUSH1 0xC0 PUSH1 0x40 MLOAD DUP1 DUP4 SUB DUP2 DUP7 DUP1 EXTCODESIZE ISZERO DUP1 ISZERO PUSH2 0x51D JUMPI PUSH1 0x0 DUP1 REVERT JUMPDEST POP GAS DELEGATECALL ISZERO DUP1 ISZERO PUSH2 0x531 JUMPI RETURNDATASIZE PUSH1 0x0 DUP1 RETURNDATACOPY RETURNDATASIZE PUSH1 0x0 REVERT JUMPDEST POP POP POP POP PUSH1 0x40 MLOAD RETURNDATASIZE PUSH1 0x1F NOT PUSH1 0x1F DUP3 ADD AND DUP3 ADD DUP1 PUSH1 0x40 MSTORE POP DUP2 ADD SWAP1 PUSH2 0x555 SWAP2 SWAP1 PUSH2 0x5428 JUMP JUMPDEST SWAP3 POP JUMPDEST PUSH2 0x562 DUP7 DUP5 PUSH2 0xB60 JUMP JUMPDEST POP POP PUSH1 0x1 PUSH1 0xA SSTORE POP POP POP POP JUMP JUMPDEST CALLER PUSH1 0x0 SWAP1 DUP2 MSTORE PUSH1 0x8 PUSH1 0x20 MSTORE PUSH1 0x40 SWAP1 KECCAK256 SLOAD PUSH1 0xFF AND PUSH2 0x59E JUMPI PUSH1 0x40 MLOAD PUSH3 0x461BCD PUSH1 0xE5 SHL DUP2 MSTORE PUSH1 0x4 ADD PUSH2 0x19E SWAP1 PUSH2 0x5943 JUMP JUMPDEST PUSH2 0x5A7 DUP6 PUSH2 0x8BE JUMP JUMPDEST PUSH1 0x0 PUSH2 0x5B4 DUP7 DUP7 DUP7 PUSH2 0x93D JUMP JUMPDEST SWAP1 POP PUSH2 0x5C0 DUP2 DUP8 PUSH2 0x11F1 JUMP JUMPDEST PUSH1 0x40 MLOAD PUSH4 0x550D0657 PUSH1 0xE1 SHL DUP2 MSTORE CALLER SWAP1 PUSH4 0xAA1A0CAE SWAP1 PUSH2 0x5E9 SWAP1 DUP4 SWAP1 DUP11 SWAP1 DUP9 SWAP1 DUP9 SWAP1 PUSH1 0x4 ADD PUSH2 0x5732 JUMP JUMPDEST PUSH1 0x0 PUSH1 0x40 MLOAD DUP1 DUP4 SUB DUP2 PUSH1 0x0 DUP8 DUP1 EXTCODESIZE ISZERO DUP1 ISZERO PUSH2 0x603 JUMPI PUSH1 0x0 DUP1 REVERT JUMPDEST POP GAS CALL ISZERO DUP1 ISZERO PUSH2 0x617 JUMPI RETURNDATASIZE PUSH1 0x0 DUP1 RETURNDATACOPY RETURNDATASIZE PUSH1 0x0 REVERT JUMPDEST POP POP POP POP PUSH1 0x20 DUP2 ADD MLOAD PUSH1 0x1 PUSH1 0x1 PUSH1 0xF8 SHL SUB NOT AND ISZERO PUSH2 0x697 JUMPI PUSH1 0x40 MLOAD PUSH4 0x6CCC642F PUSH1 0xE0 SHL DUP2 MSTORE PUSH20 0x0 SWAP1 PUSH4 0x6CCC642F SWAP1 PUSH2 0x666 SWAP1 DUP10 SWAP1 PUSH1 0x4 ADD PUSH2 0x571E JUMP JUMPDEST PUSH1 0x0 PUSH1 0x40 MLOAD DUP1 DUP4 SUB DUP2 DUP7 DUP1 EXTCODESIZE ISZERO DUP1 ISZERO PUSH2 0x67E JUMPI PUSH1 0x0 DUP1 REVERT JUMPDEST POP GAS DELEGATECALL ISZERO DUP1 ISZERO PUSH2 0x692 JUMPI RETURNDATASIZE PUSH1 0x0 DUP1 RETURNDATACOPY RETURNDATASIZE PUSH1 0x0 REVERT JUMPDEST POP POP POP POP JUMPDEST POP POP POP POP POP POP JUMP JUMPDEST PUSH1 0x2 PUSH1 0xA SLOAD EQ ISZERO PUSH2 0x6AF JUMPI PUSH1 0x0 DUP1 REVERT JUMPDEST PUSH1 0x2 PUSH1 0xA SSTORE PUSH1 0x1 PUSH1 0x1 PUSH1 0xA0 SHL SUB DUP4 AND CALLER EQ DUP1 PUSH2 0x6CA JUMPI POP CALLER ADDRESS EQ JUMPDEST PUSH2 0x6E6 JUMPI PUSH1 0x40 MLOAD PUSH3 0x461BCD PUSH1 0xE5 SHL DUP2 MSTORE PUSH1 0x4 ADD PUSH2 0x19E SWAP1 PUSH2 0x5943 JUMP JUMPDEST PUSH2 0x6EF DUP4 PUSH2 0x8BE JUMP JUMPDEST PUSH1 0x0 PUSH2 0x6FA DUP5 PUSH2 0xBE1 JUMP JUMPDEST SWAP1 POP PUSH2 0x704 PUSH2 0x4C11 JUMP JUMPDEST PUSH1 0x0 JUMPDEST DUP4 DUP2 LT ISZERO PUSH2 0x7FB JUMPI CALLDATASIZE DUP6 DUP6 DUP4 DUP2 DUP2 LT PUSH2 0x71C JUMPI INVALID JUMPDEST SWAP1 POP PUSH1 0xC0 MUL ADD SWAP1 POP PUSH1 0x0 DUP3 GT ISZERO PUSH2 0x789 JUMPI DUP6 DUP6 PUSH1 0x1 DUP5 SUB DUP2 DUP2 LT PUSH2 0x73C JUMPI INVALID JUMPDEST SWAP1 POP PUSH1 0xC0 MUL ADD PUSH1 0x20 ADD PUSH1 0x20 DUP2 ADD SWAP1 PUSH2 0x754 SWAP2 SWAP1 PUSH2 0x5585 JUMP JUMPDEST PUSH2 0xFFFF AND PUSH2 0x768 PUSH1 0x40 DUP4 ADD PUSH1 0x20 DUP5 ADD PUSH2 0x5585 JUMP JUMPDEST PUSH2 0xFFFF AND GT PUSH2 0x789 JUMPI PUSH1 0x40 MLOAD PUSH3 0x461BCD PUSH1 0xE5 SHL DUP2 MSTORE PUSH1 0x4 ADD PUSH2 0x19E SWAP1 PUSH2 0x59D7 JUMP JUMPDEST PUSH2 0x7A6 DUP8 PUSH2 0x79D PUSH1 0x40 DUP5 ADD PUSH1 0x20 DUP6 ADD PUSH2 0x5585 JUMP JUMPDEST DUP6 SWAP2 SWAP1 DUP8 PUSH2 0xD2F JUMP JUMPDEST PUSH2 0x7C2 DUP8 DUP5 PUSH2 0x7B8 PUSH1 0x20 DUP6 ADD DUP6 PUSH2 0x53C2 JUMP JUMPDEST DUP5 PUSH1 0x40 ADD CALLDATALOAD PUSH2 0x130E JUMP JUMPDEST PUSH2 0x7F2 DUP8 DUP6 DUP6 PUSH1 0x60 DUP6 ADD CALLDATALOAD PUSH2 0x7DD PUSH1 0xA0 DUP8 ADD PUSH1 0x80 DUP9 ADD PUSH2 0x53A6 JUMP JUMPDEST PUSH2 0x7ED PUSH1 0xC0 DUP9 ADD PUSH1 0xA0 DUP10 ADD PUSH2 0x53A6 JUMP JUMPDEST PUSH2 0x13DC JUMP JUMPDEST POP PUSH1 0x1 ADD PUSH2 0x707 JUMP JUMPDEST POP PUSH2 0x806 DUP6 DUP4 PUSH2 0xB60 JUMP JUMPDEST POP POP PUSH1 0x1 PUSH1 0xA SSTORE POP POP POP JUMP JUMPDEST PUSH1 0x1 SLOAD PUSH1 0x1 PUSH1 0x1 PUSH1 0xA0 SHL SUB AND DUP2 JUMP JUMPDEST PUSH1 0x0 SLOAD PUSH5 0x100000000 SWAP1 DIV PUSH1 0x1 PUSH1 0x1 PUSH1 0xA0 SHL SUB AND DUP2 JUMP JUMPDEST PUSH20 0x0 PUSH20 0x0 PUSH20 0x0 PUSH20 0x0 PUSH20 0x0 PUSH20 0x0 SWAP1 SWAP2 SWAP3 SWAP4 SWAP5 SWAP6 JUMP JUMPDEST PUSH1 0x1 PUSH1 0x1 PUSH1 0xA0 SHL SUB DUP2 AND PUSH2 0x8D1 JUMPI PUSH1 0x0 DUP1 REVERT JUMPDEST PUSH1 0x1 PUSH1 0x1 PUSH1 0xA0 SHL SUB DUP2 AND PUSH2 0xFEE EQ ISZERO PUSH2 0x8E9 JUMPI PUSH1 0x0 DUP1 REVERT JUMPDEST PUSH1 0x1 PUSH1 0x1 PUSH1 0xA0 SHL SUB DUP2 AND PUSH2 0x5E7 EQ ISZERO PUSH2 0x901 JUMPI PUSH1 0x0 DUP1 REVERT JUMPDEST PUSH1 0x1 PUSH1 0x1 PUSH1 0xA0 SHL SUB DUP2 AND ADDRESS EQ ISZERO PUSH2 0x917 JUMPI PUSH1 0x0 DUP1 REVERT JUMPDEST PUSH1 0x0 PUSH2 0x922 DUP3 PUSH2 0x147F JUMP JUMPDEST POP POP POP POP PUSH2 0xFFFF AND SWAP1 POP DUP1 PUSH1 0x0 EQ PUSH2 0x939 JUMPI PUSH1 0x0 DUP1 REVERT JUMPDEST POP POP JUMP JUMPDEST PUSH2 0x945 PUSH2 0x4C6D JUMP JUMPDEST PUSH1 0x0 PUSH2 0x950 DUP6 PUSH2 0xBE1 JUMP JUMPDEST SWAP1 POP PUSH2 0x95A PUSH2 0x4C11 JUMP JUMPDEST PUSH1 0x0 PUSH2 0x96C DUP8 DUP5 PUSH1 0x40 ADD MLOAD PUSH1 0x0 PUSH2 0xC9D JUMP JUMPDEST SWAP1 POP PUSH1 0x0 JUMPDEST DUP6 DUP2 LT ISZERO PUSH2 0xAB7 JUMPI CALLDATASIZE DUP8 DUP8 DUP4 DUP2 DUP2 LT PUSH2 0x986 JUMPI INVALID JUMPDEST SWAP1 POP PUSH1 0x20 MUL DUP2 ADD SWAP1 PUSH2 0x998 SWAP2 SWAP1 PUSH2 0x5B5B JUMP JUMPDEST SWAP1 POP DUP2 ISZERO PUSH2 0xA07 JUMPI DUP8 DUP8 PUSH1 0x1 DUP5 SUB DUP2 DUP2 LT PUSH2 0x9AF JUMPI INVALID JUMPDEST SWAP1 POP PUSH1 0x20 MUL DUP2 ADD SWAP1 PUSH2 0x9C1 SWAP2 SWAP1 PUSH2 0x5B5B JUMP JUMPDEST PUSH2 0x9D2 SWAP1 PUSH1 0x40 DUP2 ADD SWAP1 PUSH1 0x20 ADD PUSH2 0x5585 JUMP JUMPDEST PUSH2 0xFFFF AND PUSH2 0x9E6 PUSH1 0x40 DUP4 ADD PUSH1 0x20 DUP5 ADD PUSH2 0x5585 JUMP JUMPDEST PUSH2 0xFFFF AND GT PUSH2 0xA07 JUMPI PUSH1 0x40 MLOAD PUSH3 0x461BCD PUSH1 0xE5 SHL DUP2 MSTORE PUSH1 0x4 ADD PUSH2 0x19E SWAP1 PUSH2 0x59D7 JUMP JUMPDEST PUSH2 0xA24 DUP10 PUSH2 0xA1B PUSH1 0x40 DUP5 ADD PUSH1 0x20 DUP6 ADD PUSH2 0x5585 JUMP JUMPDEST DUP7 SWAP2 SWAP1 DUP9 PUSH2 0xD2F JUMP JUMPDEST PUSH2 0xA36 DUP10 DUP6 PUSH2 0x7B8 PUSH1 0x20 DUP6 ADD DUP6 PUSH2 0x53C2 JUMP JUMPDEST PUSH1 0x0 PUSH2 0xA45 PUSH1 0xC0 DUP4 ADD DUP4 PUSH2 0x5B15 JUMP JUMPDEST SWAP1 POP GT ISZERO PUSH2 0xA93 JUMPI PUSH1 0x0 PUSH2 0xA77 DUP11 PUSH2 0xA63 PUSH1 0x40 DUP6 ADD PUSH1 0x20 DUP7 ADD PUSH2 0x5585 JUMP JUMPDEST PUSH2 0xA70 PUSH1 0xC0 DUP7 ADD DUP7 PUSH2 0x5B15 JUMP JUMPDEST DUP11 DUP10 PUSH2 0xD50 JUMP JUMPDEST PUSH1 0x60 DUP8 ADD MLOAD SWAP1 SWAP6 POP SWAP1 SWAP2 POP PUSH2 0xA8C SWAP1 DUP3 PUSH2 0xEF6 JUMP JUMPDEST PUSH1 0x60 DUP7 ADD MSTORE POP JUMPDEST PUSH2 0xAAE DUP10 DUP7 DUP7 PUSH1 0x60 DUP6 ADD CALLDATALOAD PUSH2 0x7DD PUSH1 0xA0 DUP8 ADD PUSH1 0x80 DUP9 ADD PUSH2 0x53A6 JUMP JUMPDEST POP PUSH1 0x1 ADD PUSH2 0x971 JUMP JUMPDEST POP PUSH2 0xAC1 DUP4 PUSH2 0x11E4 JUMP JUMPDEST PUSH2 0xB53 JUMPI PUSH1 0x40 MLOAD PUSH4 0x5C5763B3 PUSH1 0xE0 SHL DUP2 MSTORE PUSH20 0x0 SWAP1 PUSH4 0x5C5763B3 SWAP1 PUSH2 0xB00 SWAP1 DUP11 SWAP1 DUP8 SWAP1 DUP7 SWAP1 PUSH1 0x4 ADD PUSH2 0x57EB JUMP JUMPDEST PUSH1 0xC0 PUSH1 0x40 MLOAD DUP1 DUP4 SUB DUP2 DUP7 DUP1 EXTCODESIZE ISZERO DUP1 ISZERO PUSH2 0xB18 JUMPI PUSH1 0x0 DUP1 REVERT JUMPDEST POP GAS DELEGATECALL ISZERO DUP1 ISZERO PUSH2 0xB2C JUMPI RETURNDATASIZE PUSH1 0x0 DUP1 RETURNDATACOPY RETURNDATASIZE PUSH1 0x0 REVERT JUMPDEST POP POP POP POP PUSH1 0x40 MLOAD RETURNDATASIZE PUSH1 0x1F NOT PUSH1 0x1F DUP3 ADD AND DUP3 ADD DUP1 PUSH1 0x40 MSTORE POP DUP2 ADD SWAP1 PUSH2 0xB50 SWAP2 SWAP1 PUSH2 0x5428 JUMP JUMPDEST SWAP3 POP JUMPDEST POP SWAP1 SWAP2 POP POP JUMPDEST SWAP4 SWAP3 POP POP POP JUMP JUMPDEST PUSH2 0xB6A DUP2 DUP4 PUSH2 0x11F1 JUMP JUMPDEST PUSH1 0x20 DUP2 ADD MLOAD PUSH1 0x1 PUSH1 0x1 PUSH1 0xF8 SHL SUB NOT AND ISZERO PUSH2 0x939 JUMPI PUSH1 0x40 MLOAD PUSH4 0x6CCC642F PUSH1 0xE0 SHL DUP2 MSTORE PUSH20 0x0 SWAP1 PUSH4 0x6CCC642F SWAP1 PUSH2 0xBB5 SWAP1 DUP6 SWAP1 PUSH1 0x4 ADD PUSH2 0x571E JUMP JUMPDEST PUSH1 0x0 PUSH1 0x40 MLOAD DUP1 DUP4 SUB DUP2 DUP7 DUP1 EXTCODESIZE ISZERO DUP1 ISZERO PUSH2 0xBCD JUMPI PUSH1 0x0 DUP1 REVERT JUMPDEST POP GAS DELEGATECALL ISZERO DUP1 ISZERO PUSH2 0x697 JUMPI RETURNDATASIZE PUSH1 0x0 DUP1 RETURNDATACOPY RETURNDATASIZE PUSH1 0x0 REVERT JUMPDEST PUSH2 0xBE9 PUSH2 0x4C6D JUMP JUMPDEST PUSH1 0x0 PUSH2 0xBF4 DUP4 PUSH2 0x14E8 JUMP JUMPDEST SWAP1 POP PUSH2 0xBFF DUP2 PUSH2 0x1596 JUMP JUMPDEST ISZERO PUSH2 0xC95 JUMPI PUSH1 0x40 MLOAD PUSH4 0x37B5FC21 PUSH1 0xE1 SHL DUP2 MSTORE PUSH20 0x0 SWAP1 PUSH4 0x6F6BF842 SWAP1 PUSH2 0xC3D SWAP1 DUP7 SWAP1 DUP6 SWAP1 PUSH1 0x4 ADD PUSH2 0x57CE JUMP JUMPDEST PUSH1 0xC0 PUSH1 0x40 MLOAD DUP1 DUP4 SUB DUP2 DUP7 DUP1 EXTCODESIZE ISZERO DUP1 ISZERO PUSH2 0xC55 JUMPI PUSH1 0x0 DUP1 REVERT JUMPDEST POP GAS DELEGATECALL ISZERO DUP1 ISZERO PUSH2 0xC69 JUMPI RETURNDATASIZE PUSH1 0x0 DUP1 RETURNDATACOPY RETURNDATASIZE PUSH1 0x0 REVERT JUMPDEST POP POP POP POP PUSH1 0x40 MLOAD RETURNDATASIZE PUSH1 0x1F NOT PUSH1 0x1F DUP3 ADD AND DUP3 ADD DUP1 PUSH1 0x40 MSTORE POP DUP2 ADD SWAP1 PUSH2 0xC8D SWAP2 SWAP1 PUSH2 0x5428 JUMP JUMPDEST SWAP2 POP POP PUSH2 0xC98 JUMP JUMPDEST SWAP1 POP JUMPDEST SWAP2 SWAP1 POP JUMP JUMPDEST PUSH2 0xCA5 PUSH2 0x4CA2 JUMP JUMPDEST PUSH2 0xCAD PUSH2 0x4CA2 JUMP JUMPDEST PUSH1 0xFF DUP5 AND PUSH2 0xCBC JUMPI SWAP1 POP PUSH2 0xB59 JUMP JUMPDEST PUSH2 0xCC6 DUP6 DUP6 PUSH2 0x15E7 JUMP JUMPDEST DUP2 MSTORE PUSH1 0xFF DUP5 AND PUSH1 0x60 DUP3 ADD MSTORE DUP3 PUSH1 0x1 PUSH1 0x1 PUSH1 0x40 SHL SUB DUP2 GT DUP1 ISZERO PUSH2 0xCE7 JUMPI PUSH1 0x0 DUP1 REVERT JUMPDEST POP PUSH1 0x40 MLOAD SWAP1 DUP1 DUP3 MSTORE DUP1 PUSH1 0x20 MUL PUSH1 0x20 ADD DUP3 ADD PUSH1 0x40 MSTORE DUP1 ISZERO PUSH2 0xD21 JUMPI DUP2 PUSH1 0x20 ADD JUMPDEST PUSH2 0xD0E PUSH2 0x4CCA JUMP JUMPDEST DUP2 MSTORE PUSH1 0x20 ADD SWAP1 PUSH1 0x1 SWAP1 SUB SWAP1 DUP2 PUSH2 0xD06 JUMPI SWAP1 POP JUMPDEST POP PUSH1 0x20 DUP3 ADD MSTORE SWAP5 SWAP4 POP POP POP POP JUMP JUMPDEST PUSH2 0xD38 DUP3 PUSH2 0x15F3 JUMP JUMPDEST PUSH2 0x120 DUP6 ADD MSTORE PUSH2 0xD4A DUP5 DUP5 DUP5 DUP5 PUSH2 0x1605 JUMP JUMPDEST POP POP POP POP JUMP JUMPDEST PUSH1 0x0 PUSH2 0xD5A PUSH2 0x4CA2 JUMP JUMPDEST PUSH2 0xD63 DUP5 PUSH2 0x11E4 JUMP JUMPDEST ISZERO PUSH2 0xE53 JUMPI DUP7 PUSH2 0xFFFF AND DUP5 PUSH1 0x60 ADD MLOAD PUSH2 0xFFFF AND EQ PUSH2 0xD93 JUMPI PUSH1 0x40 MLOAD PUSH3 0x461BCD PUSH1 0xE5 SHL DUP2 MSTORE PUSH1 0x4 ADD PUSH2 0x19E SWAP1 PUSH2 0x5A6D JUMP JUMPDEST PUSH1 0x60 DUP5 ADD MLOAD DUP5 MLOAD PUSH1 0x40 MLOAD PUSH4 0x3643F39B PUSH1 0xE0 SHL DUP2 MSTORE PUSH1 0x0 SWAP3 PUSH20 0x0 SWAP3 PUSH4 0x3643F39B SWAP3 PUSH2 0xDDA SWAP3 DUP15 SWAP3 SWAP1 SWAP2 DUP14 SWAP1 DUP14 SWAP1 PUSH1 0x4 ADD PUSH2 0x58B8 JUMP JUMPDEST PUSH1 0x40 DUP1 MLOAD DUP1 DUP4 SUB DUP2 DUP7 DUP1 EXTCODESIZE ISZERO DUP1 ISZERO PUSH2 0xDF1 JUMPI PUSH1 0x0 DUP1 REVERT JUMPDEST POP GAS DELEGATECALL ISZERO DUP1 ISZERO PUSH2 0xE05 JUMPI RETURNDATASIZE PUSH1 0x0 DUP1 RETURNDATACOPY RETURNDATASIZE PUSH1 0x0 REVERT JUMPDEST POP POP POP POP PUSH1 0x40 MLOAD RETURNDATASIZE PUSH1 0x1F NOT PUSH1 0x1F DUP3 ADD AND DUP3 ADD DUP1 PUSH1 0x40 MSTORE POP DUP2 ADD SWAP1 PUSH2 0xE29 SWAP2 SWAP1 PUSH2 0x53F9 JUMP JUMPDEST SWAP1 SWAP4 POP SWAP1 POP DUP1 ISZERO PUSH2 0xE4D JUMPI PUSH1 0x20 DUP6 ADD DUP1 MLOAD PUSH1 0x1 PUSH1 0xF8 SHL OR PUSH1 0x1 PUSH1 0x1 PUSH1 0xF8 SHL SUB NOT AND SWAP1 MSTORE JUMPDEST POP PUSH2 0xEEB JUMP JUMPDEST PUSH1 0x40 MLOAD PUSH4 0xB58F83ED PUSH1 0xE0 SHL DUP2 MSTORE PUSH20 0x0 SWAP1 PUSH4 0xB58F83ED SWAP1 PUSH2 0xE92 SWAP1 DUP12 SWAP1 DUP12 SWAP1 DUP9 SWAP1 DUP13 SWAP1 DUP13 SWAP1 PUSH1 0x4 ADD PUSH2 0x5840 JUMP JUMPDEST PUSH1 0x0 PUSH1 0x40 MLOAD DUP1 DUP4 SUB DUP2 DUP7 DUP1 EXTCODESIZE ISZERO DUP1 ISZERO PUSH2 0xEAA JUMPI PUSH1 0x0 DUP1 REVERT JUMPDEST POP GAS DELEGATECALL ISZERO DUP1 ISZERO PUSH2 0xEBE JUMPI RETURNDATASIZE PUSH1 0x0 DUP1 RETURNDATACOPY RETURNDATASIZE PUSH1 0x0 REVERT JUMPDEST POP POP POP POP PUSH1 0x40 MLOAD RETURNDATASIZE PUSH1 0x0 DUP3 RETURNDATACOPY PUSH1 0x1F RETURNDATASIZE SWAP1 DUP2 ADD PUSH1 0x1F NOT AND DUP3 ADD PUSH1 0x40 MSTORE PUSH2 0xEE6 SWAP2 SWAP1 DUP2 ADD SWAP1 PUSH2 0x54CA JUMP JUMPDEST SWAP3 POP SWAP1 POP JUMPDEST SWAP7 POP SWAP7 SWAP5 POP POP POP POP POP JUMP JUMPDEST DUP2 DUP2 ADD DUP3 DUP2 SLT ISZERO PUSH1 0x0 DUP4 SLT ISZERO EQ PUSH2 0xF0C JUMPI PUSH1 0x0 DUP1 REVERT JUMPDEST SWAP3 SWAP2 POP POP JUMP JUMPDEST PUSH1 0x0 PUSH2 0xC95 PUSH1 0x0 NOT DUP4 PUSH2 0x16AD JUMP JUMPDEST PUSH2 0xF28 PUSH2 0x4D09 JUMP JUMPDEST PUSH2 0xC95 DUP3 PUSH1 0x1 PUSH2 0x16FB JUMP JUMPDEST PUSH1 0x0 PUSH2 0xB59 PUSH15 0xC097CE7BC90715B34B9F1000000000 PUSH2 0xF5F DUP6 PUSH1 0x0 ADD MLOAD DUP6 PUSH2 0x16AD SWAP1 SWAP2 SWAP1 PUSH4 0xFFFFFFFF AND JUMP JUMPDEST SWAP1 PUSH2 0x1795 JUMP JUMPDEST PUSH1 0x0 PUSH4 0x5F5E100 DUP4 PUSH1 0x40 ADD MLOAD SLT ISZERO PUSH2 0xF8D JUMPI PUSH2 0xF86 PUSH1 0x1 PUSH2 0x460 DUP6 DUP6 PUSH2 0x17C6 JUMP JUMPDEST SWAP1 POP PUSH2 0xF0C JUMP JUMPDEST PUSH2 0xB59 DUP4 PUSH2 0xF9C DUP5 PUSH1 0x1 PUSH2 0xEF6 JUMP JUMPDEST PUSH2 0x17C6 JUMP JUMPDEST PUSH1 0x0 DUP3 PUSH2 0xFB0 JUMPI POP PUSH1 0x0 PUSH2 0xFEC JUMP JUMPDEST PUSH1 0x0 DUP4 SGT PUSH2 0xFBD JUMPI PUSH1 0x0 DUP1 REVERT JUMPDEST PUSH2 0xFD3 DUP5 DUP7 PUSH1 0x0 ADD MLOAD DUP6 DUP9 PUSH2 0x120 ADD MLOAD DUP7 PUSH2 0x17FE JUMP JUMPDEST PUSH1 0x60 DUP8 ADD MLOAD SWAP1 SWAP3 POP PUSH2 0xFE6 SWAP2 POP DUP3 PUSH2 0xEF6 JUMP JUMPDEST PUSH1 0x60 DUP7 ADD MSTORE JUMPDEST SWAP5 SWAP4 POP POP POP POP JUMP JUMPDEST PUSH1 0x0 DUP1 PUSH2 0x1004 DUP5 PUSH2 0xFFFF AND PUSH2 0x18C0 JUMP JUMPDEST POP SWAP1 POP PUSH1 0x0 DUP2 PUSH1 0x1 PUSH1 0x1 PUSH1 0xA0 SHL SUB AND PUSH4 0x1EE10833 PUSH1 0x40 MLOAD DUP2 PUSH4 0xFFFFFFFF AND PUSH1 0xE0 SHL DUP2 MSTORE PUSH1 0x4 ADD PUSH1 0x20 PUSH1 0x40 MLOAD DUP1 DUP4 SUB DUP2 PUSH1 0x0 DUP8 DUP1 EXTCODESIZE ISZERO DUP1 ISZERO PUSH2 0x1044 JUMPI PUSH1 0x0 DUP1 REVERT JUMPDEST POP GAS CALL ISZERO DUP1 ISZERO PUSH2 0x1058 JUMPI RETURNDATASIZE PUSH1 0x0 DUP1 RETURNDATACOPY RETURNDATASIZE PUSH1 0x0 REVERT JUMPDEST POP POP POP POP PUSH1 0x40 MLOAD RETURNDATASIZE PUSH1 0x1F NOT PUSH1 0x1F DUP3 ADD AND DUP3 ADD DUP1 PUSH1 0x40 MSTORE POP DUP2 ADD SWAP1 PUSH2 0x107C SWAP2 SWAP1 PUSH2 0x53E1 JUMP JUMPDEST SWAP1 POP PUSH1 0x0 DUP2 SGT PUSH2 0x108B JUMPI PUSH1 0x0 DUP1 REVERT JUMPDEST PUSH2 0x10A1 DUP2 PUSH2 0xF5F DUP7 PUSH8 0xDE0B6B3A7640000 PUSH2 0x16AD JUMP JUMPDEST SWAP6 SWAP5 POP POP POP POP POP JUMP JUMPDEST PUSH1 0x0 DUP2 PUSH2 0x10B9 JUMPI POP PUSH1 0x0 PUSH2 0xB59 JUMP JUMPDEST PUSH1 0x0 DUP3 SGT PUSH2 0x10C6 JUMPI PUSH1 0x0 DUP1 REVERT JUMPDEST PUSH1 0x0 PUSH2 0x10D9 DUP6 PUSH1 0x0 ADD MLOAD PUSH2 0xFFFF AND PUSH2 0x18F7 JUMP JUMPDEST DUP1 MLOAD SWAP1 SWAP2 POP PUSH1 0x1 PUSH1 0x1 PUSH1 0xA0 SHL SUB AND PUSH2 0x10F0 JUMPI PUSH1 0x0 DUP1 REVERT JUMPDEST PUSH1 0x1 DUP2 PUSH1 0x60 ADD MLOAD PUSH1 0x5 DUP2 GT ISZERO PUSH2 0x1102 JUMPI INVALID JUMPDEST EQ DUP1 PUSH2 0x111D JUMPI POP PUSH1 0x2 DUP2 PUSH1 0x60 ADD MLOAD PUSH1 0x5 DUP2 GT ISZERO PUSH2 0x111B JUMPI INVALID JUMPDEST EQ JUMPDEST ISZERO PUSH2 0x1155 JUMPI DUP5 MLOAD PUSH2 0x120 DUP7 ADD MLOAD PUSH2 0x1139 SWAP2 DUP4 SWAP2 DUP7 SWAP1 DUP9 SWAP1 PUSH2 0x190A JUMP JUMPDEST PUSH1 0x60 DUP7 ADD MLOAD SWAP1 SWAP3 POP PUSH2 0x114B SWAP1 DUP4 PUSH2 0xEF6 JUMP JUMPDEST PUSH1 0x60 DUP7 ADD MSTORE PUSH2 0x117D JUMP JUMPDEST PUSH1 0x4 DUP2 PUSH1 0x60 ADD MLOAD PUSH1 0x5 DUP2 GT ISZERO PUSH2 0x1167 JUMPI INVALID JUMPDEST EQ ISZERO PUSH2 0x7B JUMPI PUSH2 0x117A DUP6 DUP6 DUP6 PUSH1 0x0 PUSH2 0xFA1 JUMP JUMPDEST SWAP2 POP JUMPDEST POP SWAP4 SWAP3 POP POP POP JUMP JUMPDEST PUSH1 0x80 DUP4 ADD MLOAD ISZERO PUSH2 0x1194 JUMPI PUSH1 0x0 DUP1 REVERT JUMPDEST PUSH2 0xD4A DUP4 DUP4 DUP4 PUSH1 0x0 PUSH1 0x1 PUSH2 0x199B JUMP JUMPDEST PUSH1 0x0 DUP1 PUSH2 0x11B0 DUP5 DUP5 PUSH2 0x1B4B JUMP JUMPDEST SWAP2 POP SWAP2 POP DUP2 PUSH1 0x0 EQ ISZERO PUSH2 0x11C4 JUMPI POP POP PUSH2 0x939 JUMP JUMPDEST DUP2 DUP2 GT ISZERO PUSH2 0xD4A JUMPI PUSH1 0x40 MLOAD PUSH3 0x461BCD PUSH1 0xE5 SHL DUP2 MSTORE PUSH1 0x4 ADD PUSH2 0x19E SWAP1 PUSH2 0x591A JUMP JUMPDEST PUSH1 0x60 ADD MLOAD PUSH2 0xFFFF AND ISZERO ISZERO SWAP1 JUMP JUMPDEST PUSH1 0x0 PUSH2 0x11FB PUSH2 0x1BBC JUMP JUMPDEST PUSH1 0x1 PUSH1 0x1 PUSH1 0xA0 SHL SUB DUP4 AND PUSH1 0x0 DUP2 DUP2 MSTORE PUSH1 0x20 DUP4 DUP2 MSTORE PUSH1 0x40 DUP1 DUP4 KECCAK256 DUP9 MLOAD DUP2 SLOAD SWAP4 DUP11 ADD MLOAD DUP11 DUP5 ADD MLOAD PUSH1 0x60 DUP13 ADD MLOAD PUSH1 0x80 DUP14 ADD MLOAD PUSH1 0xA0 DUP15 ADD MLOAD PUSH5 0xFFFFFFFFFF NOT SWAP1 SWAP9 AND PUSH5 0xFFFFFFFFFF SWAP1 SWAP6 AND SWAP5 SWAP1 SWAP5 OR PUSH6 0xFF0000000000 NOT AND PUSH1 0x1 PUSH1 0x28 SHL PUSH1 0xF8 SWAP5 SWAP1 SWAP5 SHR SWAP4 SWAP1 SWAP4 MUL SWAP3 SWAP1 SWAP3 OR PUSH7 0xFF000000000000 NOT AND PUSH1 0x1 PUSH1 0x30 SHL PUSH1 0xFF SWAP1 SWAP3 AND SWAP2 SWAP1 SWAP2 MUL OR PUSH9 0xFFFF00000000000000 NOT AND PUSH1 0x1 PUSH1 0x38 SHL PUSH2 0xFFFF SWAP1 SWAP3 AND SWAP2 SWAP1 SWAP2 MUL OR PUSH27 0xFFFFFFFFFFFFFFFFFFFFFFFFFFFFFFFFFFFF000000000000000000 NOT AND PUSH1 0x1 PUSH1 0x48 SHL PUSH1 0x70 SWAP3 SWAP1 SWAP3 SHR SWAP2 SWAP1 SWAP2 MUL OR PUSH1 0xFF PUSH1 0xD8 SHL NOT AND PUSH1 0x1 PUSH1 0xD8 SHL SWAP4 ISZERO ISZERO SWAP4 SWAP1 SWAP4 MUL SWAP3 SWAP1 SWAP3 OR SWAP1 SWAP2 SSTORE MLOAD SWAP3 SWAP4 POP SWAP1 SWAP2 PUSH32 0x6BD4B121BCA854A191536A2CA891155C42EE2FB23F307FB34E8BC65CFCB5412E SWAP2 SWAP1 LOG2 POP POP POP JUMP JUMPDEST PUSH1 0x0 PUSH2 0x1319 DUP3 PUSH2 0x1BC9 JUMP JUMPDEST SWAP1 POP PUSH1 0x0 DUP1 DUP3 SLT ISZERO PUSH2 0x132A JUMPI PUSH1 0x0 DUP1 REVERT JUMPDEST PUSH1 0x0 DUP5 PUSH1 0x6 DUP2 GT ISZERO PUSH2 0x1338 JUMPI INVALID JUMPDEST EQ ISZERO PUSH2 0x1345 JUMPI POP POP PUSH2 0xD4A JUMP JUMPDEST PUSH1 0x1 DUP5 PUSH1 0x6 DUP2 GT ISZERO PUSH2 0x1353 JUMPI INVALID JUMPDEST EQ DUP1 PUSH2 0x136A JUMPI POP PUSH1 0x3 DUP5 PUSH1 0x6 DUP2 GT ISZERO PUSH2 0x1368 JUMPI INVALID JUMPDEST EQ JUMPDEST ISZERO PUSH2 0x1381 JUMPI PUSH2 0x137A DUP6 DUP8 DUP5 PUSH2 0x10AA JUMP JUMPDEST SWAP1 POP PUSH2 0x13CF JUMP JUMPDEST PUSH1 0x2 DUP5 PUSH1 0x6 DUP2 GT ISZERO PUSH2 0x138F JUMPI INVALID JUMPDEST EQ DUP1 PUSH2 0x13A6 JUMPI POP PUSH1 0x4 DUP5 PUSH1 0x6 DUP2 GT ISZERO PUSH2 0x13A4 JUMPI INVALID JUMPDEST EQ JUMPDEST ISZERO PUSH2 0x13B8 JUMPI PUSH2 0x137A DUP6 DUP8 DUP5 PUSH1 0x0 PUSH2 0xFA1 JUMP JUMPDEST PUSH1 0x6 DUP5 PUSH1 0x6 DUP2 GT ISZERO PUSH2 0x13C6 JUMPI INVALID JUMPDEST EQ ISZERO PUSH2 0x13CF JUMPI POP DUP1 JUMPDEST PUSH2 0x697 DUP7 DUP7 DUP7 DUP6 DUP6 PUSH2 0x1BE3 JUMP JUMPDEST PUSH1 0x0 PUSH2 0x13E7 DUP5 PUSH2 0x1BC9 JUMP JUMPDEST SWAP1 POP PUSH1 0x0 DUP2 SLT ISZERO PUSH2 0x13F7 JUMPI PUSH1 0x0 DUP1 REVERT JUMPDEST DUP5 MLOAD PUSH2 0xFFFF AND PUSH1 0x1 EQ PUSH2 0x1421 JUMPI DUP2 PUSH2 0x1421 JUMPI PUSH1 0x40 MLOAD PUSH3 0x461BCD PUSH1 0xE5 SHL DUP2 MSTORE PUSH1 0x4 ADD PUSH2 0x19E SWAP1 PUSH2 0x5A01 JUMP JUMPDEST DUP3 ISZERO PUSH2 0x1449 JUMPI PUSH1 0x60 DUP6 ADD MLOAD PUSH1 0x20 DUP7 ADD MLOAD PUSH2 0x143A SWAP2 PUSH2 0xEF6 JUMP JUMPDEST SWAP1 POP PUSH1 0x0 DUP2 SLT ISZERO PUSH2 0x1449 JUMPI POP PUSH1 0x0 JUMPDEST PUSH2 0x1452 DUP2 PUSH2 0xF12 JUMP JUMPDEST PUSH1 0x80 DUP7 ADD MSTORE PUSH2 0x1464 DUP6 DUP9 DUP9 DUP6 ISZERO PUSH2 0x1DFC JUMP JUMPDEST POP DUP5 MLOAD PUSH2 0x120 DUP7 ADD MLOAD PUSH2 0x1476 SWAP2 PUSH2 0x11A3 JUMP JUMPDEST POP POP POP POP POP POP POP JUMP JUMPDEST PUSH1 0x0 DUP1 PUSH1 0x0 DUP1 PUSH1 0x0 DUP1 PUSH2 0x1490 PUSH2 0x1E0C JUMP JUMPDEST PUSH1 0x1 PUSH1 0x1 PUSH1 0xA0 SHL SUB SWAP1 SWAP8 AND PUSH1 0x0 SWAP1 DUP2 MSTORE PUSH1 0x20 SWAP8 SWAP1 SWAP8 MSTORE POP POP PUSH1 0x40 SWAP1 SWAP5 KECCAK256 SLOAD PUSH2 0xFFFF DUP2 AND SWAP6 PUSH4 0xFFFFFFFF PUSH3 0x10000 DUP4 DIV DUP2 AND SWAP7 POP PUSH1 0x1 PUSH1 0x30 SHL DUP4 DIV AND SWAP5 POP PUSH1 0xFF PUSH1 0x1 PUSH1 0x50 SHL DUP4 DIV AND SWAP4 POP PUSH1 0x1 PUSH1 0x58 SHL SWAP1 SWAP2 DIV PUSH1 0xD8 SHL SWAP2 POP JUMP JUMPDEST PUSH2 0x14F0 PUSH2 0x4C6D JUMP JUMPDEST PUSH1 0x0 PUSH2 0x14FA PUSH2 0x1BBC JUMP JUMPDEST PUSH1 0x1 PUSH1 0x1 PUSH1 0xA0 SHL SUB DUP5 AND PUSH1 0x0 SWAP1 DUP2 MSTORE PUSH1 0x20 SWAP2 DUP3 MSTORE PUSH1 0x40 SWAP1 DUP2 SWAP1 KECCAK256 DUP2 MLOAD PUSH1 0xC0 DUP2 ADD DUP4 MSTORE SWAP1 SLOAD PUSH5 0xFFFFFFFFFF DUP2 AND DUP3 MSTORE PUSH1 0x1 PUSH1 0x1 PUSH1 0xF8 SHL SUB NOT PUSH1 0x1 PUSH1 0x28 SHL DUP3 DIV PUSH1 0xF8 SHL AND SWAP4 DUP3 ADD SWAP4 SWAP1 SWAP4 MSTORE PUSH1 0xFF PUSH1 0x1 PUSH1 0x30 SHL DUP5 DIV DUP2 AND SWAP3 DUP3 ADD SWAP3 SWAP1 SWAP3 MSTORE PUSH2 0xFFFF PUSH1 0x1 PUSH1 0x38 SHL DUP5 DIV AND PUSH1 0x60 DUP3 ADD MSTORE PUSH1 0x1 PUSH1 0x1 PUSH1 0x70 SHL SUB NOT PUSH1 0x1 PUSH1 0x48 SHL DUP5 DIV PUSH1 0x70 SHL AND PUSH1 0x80 DUP3 ADD MSTORE PUSH1 0x1 PUSH1 0xD8 SHL SWAP1 SWAP3 DIV AND ISZERO ISZERO PUSH1 0xA0 DUP3 ADD MSTORE SWAP2 POP POP SWAP2 SWAP1 POP JUMP JUMPDEST PUSH1 0x0 TIMESTAMP PUSH2 0x15A2 DUP4 PUSH2 0x11E4 JUMP JUMPDEST ISZERO PUSH2 0x15C3 JUMPI PUSH2 0x15B0 DUP2 PUSH2 0x1E19 JUMP JUMPDEST DUP4 MLOAD PUSH5 0xFFFFFFFFFF AND LT SWAP2 POP PUSH2 0xC98 SWAP1 POP JUMP JUMPDEST DUP3 MLOAD PUSH5 0xFFFFFFFFFF AND ISZERO DUP1 ISZERO SWAP1 PUSH2 0xC8D JUMPI POP DUP3 MLOAD PUSH5 0xFFFFFFFFFF AND GT ISZERO SWAP1 POP PUSH2 0xC98 JUMP JUMPDEST PUSH1 0x60 PUSH2 0x117D DUP4 DUP4 PUSH2 0x1E37 JUMP JUMPDEST PUSH2 0x15FB PUSH2 0x4D38 JUMP JUMPDEST PUSH2 0xC95 DUP3 TIMESTAMP PUSH2 0x1E58 JUMP JUMPDEST DUP2 PUSH2 0xFFFF AND PUSH1 0x0 LT DUP1 ISZERO PUSH2 0x161F JUMPI POP PUSH2 0x3FFF PUSH2 0xFFFF DUP4 AND GT ISZERO JUMPDEST PUSH2 0x1628 JUMPI PUSH1 0x0 DUP1 REVERT JUMPDEST PUSH2 0xFFFF DUP3 AND DUP1 DUP6 MSTORE PUSH2 0x163B SWAP1 DUP3 SWAP1 PUSH2 0x1F19 JUMP JUMPDEST ISZERO PUSH2 0x166A JUMPI PUSH2 0x1650 DUP4 DUP4 DUP7 PUSH2 0x120 ADD MLOAD PUSH2 0x1FA3 JUMP JUMPDEST PUSH2 0x100 DUP9 ADD MSTORE PUSH1 0xE0 DUP8 ADD MSTORE PUSH1 0x40 DUP7 ADD MSTORE PUSH1 0x20 DUP6 ADD MSTORE PUSH2 0x1688 JUMP JUMPDEST PUSH1 0x0 PUSH1 0x20 DUP6 ADD DUP2 SWAP1 MSTORE PUSH1 0x40 DUP6 ADD DUP2 SWAP1 MSTORE PUSH1 0xE0 DUP6 ADD DUP2 SWAP1 MSTORE PUSH2 0x100 DUP6 ADD MSTORE JUMPDEST POP POP PUSH1 0x0 PUSH1 0x60 DUP4 ADD DUP2 SWAP1 MSTORE PUSH1 0x80 DUP4 ADD DUP2 SWAP1 MSTORE PUSH1 0xA0 DUP4 ADD DUP2 SWAP1 MSTORE PUSH1 0xC0 SWAP1 SWAP3 ADD SWAP2 SWAP1 SWAP2 MSTORE POP JUMP JUMPDEST DUP2 DUP2 MUL PUSH1 0x0 NOT DUP4 EQ ISZERO PUSH2 0x16DD JUMPI DUP2 ISZERO DUP1 PUSH2 0x16CF JUMPI POP DUP3 DUP3 DUP3 DUP2 PUSH2 0x16CC JUMPI INVALID JUMPDEST SDIV EQ JUMPDEST PUSH2 0x16D8 JUMPI PUSH1 0x0 DUP1 REVERT JUMPDEST PUSH2 0xF0C JUMP JUMPDEST DUP3 ISZERO DUP1 PUSH2 0x16F2 JUMPI POP DUP2 DUP4 DUP3 DUP2 PUSH2 0x16EF JUMPI INVALID JUMPDEST SDIV EQ JUMPDEST PUSH2 0xF0C JUMPI PUSH1 0x0 DUP1 REVERT JUMPDEST PUSH2 0x1703 PUSH2 0x4D09 JUMP JUMPDEST PUSH1 0x0 PUSH2 0x170D PUSH2 0x205D JUMP JUMPDEST PUSH1 0x0 DUP6 DUP2 MSTORE PUSH1 0x20 DUP3 DUP2 MSTORE PUSH1 0x40 DUP1 DUP4 KECCAK256 DUP8 ISZERO ISZERO DUP5 MSTORE DUP3 MSTORE SWAP2 DUP3 SWAP1 KECCAK256 DUP3 MLOAD PUSH1 0xA0 DUP2 ADD DUP5 MSTORE DUP2 SLOAD PUSH1 0x1 PUSH1 0x1 PUSH1 0xA0 SHL SUB DUP2 AND DUP3 MSTORE PUSH1 0xFF PUSH1 0x1 PUSH1 0xA0 SHL DUP3 DIV DUP2 AND ISZERO ISZERO SWAP5 DUP4 ADD SWAP5 SWAP1 SWAP5 MSTORE PUSH1 0x1 PUSH1 0xB0 SHL DUP2 DIV DUP5 AND PUSH1 0xA EXP SWAP5 DUP3 ADD SWAP5 SWAP1 SWAP5 MSTORE SWAP4 SWAP5 POP SWAP3 SWAP2 PUSH1 0x60 DUP4 ADD SWAP2 PUSH1 0x1 PUSH1 0xA8 SHL SWAP1 SWAP2 DIV AND PUSH1 0x5 DUP2 GT ISZERO PUSH2 0x1782 JUMPI INVALID JUMPDEST DUP2 MSTORE PUSH1 0x0 PUSH1 0x20 SWAP1 SWAP2 ADD MSTORE SWAP6 SWAP5 POP POP POP POP POP JUMP JUMPDEST PUSH1 0x0 DUP2 PUSH1 0x0 NOT EQ DUP1 ISZERO PUSH2 0x17AB JUMPI POP PUSH1 0x1 PUSH1 0xFF SHL DUP4 EQ JUMPDEST ISZERO PUSH2 0x17B5 JUMPI PUSH1 0x0 DUP1 REVERT JUMPDEST DUP2 DUP4 DUP2 PUSH2 0x17BE JUMPI INVALID JUMPDEST SDIV SWAP4 SWAP3 POP POP POP JUMP JUMPDEST PUSH1 0x0 PUSH4 0x5F5E100 DUP4 PUSH1 0x40 ADD MLOAD EQ ISZERO PUSH2 0x17DF JUMPI POP DUP1 PUSH2 0xF0C JUMP JUMPDEST PUSH2 0xB59 PUSH4 0x5F5E100 PUSH2 0xF5F DUP6 PUSH1 0x40 ADD MLOAD DUP6 PUSH2 0x16AD SWAP1 SWAP2 SWAP1 PUSH4 0xFFFFFFFF AND JUMP JUMPDEST PUSH1 0x0 DUP1 PUSH1 0x0 PUSH2 0x180C DUP7 PUSH2 0x206A JUMP JUMPDEST SWAP1 POP DUP1 PUSH2 0x1820 JUMPI PUSH1 0x0 DUP1 SWAP3 POP SWAP3 POP POP PUSH2 0x18B6 JUMP JUMPDEST PUSH1 0x0 PUSH2 0x182F DUP9 PUSH2 0xFFFF AND PUSH2 0xF20 JUMP JUMPDEST SWAP1 POP PUSH1 0x3 DUP2 PUSH1 0x60 ADD MLOAD PUSH1 0x5 DUP2 GT ISZERO PUSH2 0x1843 JUMPI INVALID JUMPDEST EQ ISZERO PUSH2 0x188A JUMPI CALLVALUE DUP3 LT ISZERO PUSH2 0x1863 JUMPI PUSH2 0x185E DUP10 DUP4 CALLVALUE SUB DUP8 PUSH2 0x2079 JUMP JUMPDEST PUSH2 0x1882 JUMP JUMPDEST CALLVALUE DUP3 EQ PUSH2 0x1882 JUMPI PUSH1 0x40 MLOAD PUSH3 0x461BCD PUSH1 0xE5 SHL DUP2 MSTORE PUSH1 0x4 ADD PUSH2 0x19E SWAP1 PUSH2 0x5969 JUMP JUMPDEST DUP7 SWAP4 POP PUSH2 0x18A4 JUMP JUMPDEST PUSH2 0x18A1 PUSH2 0x189C DUP3 PUSH1 0x0 ADD MLOAD DUP12 DUP6 PUSH2 0x2146 JUMP JUMPDEST PUSH2 0x1BC9 JUMP JUMPDEST SWAP4 POP JUMPDEST PUSH2 0x18B1 DUP10 DUP10 DUP7 DUP5 DUP11 PUSH2 0x22CE JUMP JUMPDEST SWAP3 POP POP POP JUMPDEST SWAP6 POP SWAP6 SWAP4 POP POP POP POP JUMP JUMPDEST PUSH1 0x0 DUP1 PUSH1 0x0 PUSH2 0x18CD PUSH2 0x2315 JUMP JUMPDEST PUSH1 0x0 SWAP5 DUP6 MSTORE PUSH1 0x20 MSTORE POP POP PUSH1 0x40 SWAP1 SWAP2 KECCAK256 SLOAD PUSH1 0x1 PUSH1 0x1 PUSH1 0xA0 SHL SUB DUP2 AND SWAP3 PUSH1 0x1 PUSH1 0xA0 SHL SWAP1 SWAP2 DIV PUSH1 0xFF AND SWAP2 POP JUMP JUMPDEST PUSH2 0x18FF PUSH2 0x4D09 JUMP JUMPDEST PUSH2 0xC95 DUP3 PUSH1 0x0 PUSH2 0x16FB JUMP JUMPDEST PUSH1 0x0 PUSH2 0x191B DUP7 PUSH1 0x0 ADD MLOAD DUP5 DUP7 PUSH2 0x2146 JUMP JUMPDEST SWAP4 POP PUSH1 0x0 PUSH2 0x192C DUP7 PUSH2 0xFFFF AND PUSH2 0xF20 JUMP JUMPDEST SWAP1 POP PUSH1 0x0 PUSH1 0x2 DUP9 PUSH1 0x60 ADD MLOAD PUSH1 0x5 DUP2 GT ISZERO PUSH2 0x1942 JUMPI INVALID JUMPDEST EQ ISZERO PUSH2 0x195C JUMPI PUSH2 0x1955 PUSH2 0x189C DUP10 DUP9 PUSH2 0x2322 JUMP JUMPDEST SWAP1 POP PUSH2 0x1982 JUMP JUMPDEST PUSH1 0x1 DUP9 PUSH1 0x60 ADD MLOAD PUSH1 0x5 DUP2 GT ISZERO PUSH2 0x196E JUMPI INVALID JUMPDEST EQ ISZERO PUSH2 0x7B JUMPI PUSH2 0x1955 PUSH2 0x189C DUP10 DUP5 DUP10 PUSH2 0x23D3 JUMP JUMPDEST PUSH2 0x198F DUP6 DUP9 DUP4 DUP6 DUP9 PUSH2 0x22CE JUMP JUMPDEST SWAP9 SWAP8 POP POP POP POP POP POP POP POP JUMP JUMPDEST PUSH1 0x0 DUP1 PUSH2 0x19B8 DUP7 DUP9 PUSH1 0x0 ADD MLOAD DUP10 PUSH1 0x80 ADD MLOAD DUP11 PUSH2 0x120 ADD MLOAD DUP9 PUSH2 0x2593 JUMP JUMPDEST SWAP2 POP PUSH1 0x0 PUSH2 0x19D7 DUP9 PUSH1 0x80 ADD MLOAD DUP10 PUSH1 0x60 ADD MLOAD PUSH2 0xEF6 SWAP1 SWAP2 SWAP1 PUSH4 0xFFFFFFFF AND JUMP JUMPDEST SWAP1 POP DUP4 DUP1 ISZERO PUSH2 0x19E6 JUMPI POP PUSH1 0x0 DUP2 SLT JUMPDEST DUP1 ISZERO PUSH2 0x1A01 JUMPI POP PUSH1 0x20 DUP9 ADD MLOAD PUSH1 0x0 SWAP1 PUSH2 0x19FF SWAP1 DUP4 PUSH2 0xEF6 JUMP JUMPDEST SLT JUMPDEST ISZERO PUSH2 0x1A27 JUMPI DUP6 PUSH1 0xA0 ADD MLOAD PUSH2 0x1A27 JUMPI PUSH1 0x40 MLOAD PUSH3 0x461BCD PUSH1 0xE5 SHL DUP2 MSTORE PUSH1 0x4 ADD PUSH2 0x19E SWAP1 PUSH2 0x59AE JUMP JUMPDEST DUP1 ISZERO PUSH2 0x1A46 JUMPI PUSH1 0x20 DUP9 ADD MLOAD PUSH2 0x1A3C SWAP1 DUP3 PUSH2 0xEF6 JUMP JUMPDEST PUSH1 0x20 DUP10 ADD MSTORE PUSH1 0x1 SWAP2 POP JUMPDEST PUSH1 0xA0 DUP9 ADD MLOAD ISZERO ISZERO DUP1 PUSH2 0x1A5B JUMPI POP PUSH1 0xC0 DUP9 ADD MLOAD ISZERO ISZERO JUMPDEST ISZERO PUSH2 0x1ABE JUMPI PUSH1 0x0 PUSH2 0x1A85 DUP10 PUSH1 0xC0 ADD MLOAD PUSH2 0x460 DUP12 PUSH1 0xA0 ADD MLOAD DUP13 PUSH1 0x40 ADD MLOAD PUSH2 0xEF6 SWAP1 SWAP2 SWAP1 PUSH4 0xFFFFFFFF AND JUMP JUMPDEST SWAP1 POP PUSH1 0x0 DUP2 SLT ISZERO PUSH2 0x1AA8 JUMPI PUSH1 0x40 MLOAD PUSH3 0x461BCD PUSH1 0xE5 SHL DUP2 MSTORE PUSH1 0x4 ADD PUSH2 0x19E SWAP1 PUSH2 0x5AA4 JUMP JUMPDEST PUSH2 0x1AB3 DUP10 DUP10 DUP4 PUSH2 0x2636 JUMP JUMPDEST POP PUSH1 0x40 DUP10 ADD MSTORE PUSH1 0x1 SWAP2 POP JUMPDEST DUP2 ISZERO PUSH2 0x1AED JUMPI PUSH2 0x1AED DUP8 DUP10 PUSH1 0x0 ADD MLOAD DUP11 PUSH1 0x20 ADD MLOAD DUP12 PUSH1 0x40 ADD MLOAD DUP13 PUSH1 0xE0 ADD MLOAD DUP14 PUSH2 0x100 ADD MLOAD DUP15 PUSH2 0x120 ADD MLOAD PUSH2 0x2723 JUMP JUMPDEST DUP8 MLOAD PUSH1 0x20 DUP10 ADD MLOAD PUSH2 0x1B1A SWAP2 PUSH2 0xFFFF AND SWAP1 ISZERO ISZERO DUP1 PUSH2 0x1B0D JUMPI POP PUSH1 0x40 DUP11 ADD MLOAD ISZERO ISZERO JUMPDEST DUP9 SWAP2 SWAP1 PUSH1 0x1 PUSH1 0xFE SHL PUSH2 0x285E JUMP JUMPDEST PUSH1 0x0 DUP9 PUSH1 0x20 ADD MLOAD SLT ISZERO PUSH2 0x1B40 JUMPI PUSH1 0x20 DUP7 ADD DUP1 MLOAD PUSH1 0x1 PUSH1 0xF9 SHL OR PUSH1 0x1 PUSH1 0x1 PUSH1 0xF8 SHL SUB NOT AND SWAP1 MSTORE JUMPDEST POP POP SWAP6 SWAP5 POP POP POP POP POP JUMP JUMPDEST PUSH1 0x0 DUP1 PUSH1 0x0 PUSH2 0x1B58 PUSH2 0x2A64 JUMP JUMPDEST PUSH2 0xFFFF DUP6 AND PUSH1 0x0 SWAP1 DUP2 MSTORE PUSH1 0x20 SWAP2 SWAP1 SWAP2 MSTORE PUSH1 0x40 SWAP1 KECCAK256 PUSH1 0x1 DUP2 ADD SLOAD SWAP1 SWAP2 POP PUSH2 0x1B8A SWAP1 PUSH1 0x1 PUSH1 0x58 SHL SWAP1 DIV PUSH4 0xFFFFFFFF AND PUSH2 0x2A71 JUMP JUMPDEST DUP2 SLOAD SWAP1 SWAP4 POP PUSH1 0x1 PUSH1 0x28 SHL SWAP1 DIV PUSH1 0x1 PUSH1 0x1 PUSH1 0x58 SHL SUB AND PUSH2 0x1BB1 PUSH2 0x1BAC DUP8 DUP4 PUSH2 0xF33 JUMP JUMPDEST PUSH2 0x206A JUMP JUMPDEST SWAP3 POP POP POP SWAP3 POP SWAP3 SWAP1 POP JUMP JUMPDEST PUSH1 0x0 DUP1 PUSH2 0xF0C PUSH1 0x1 PUSH2 0x2A7F JUMP JUMPDEST PUSH1 0x0 PUSH1 0x1 PUSH1 0x1 PUSH1 0xFF SHL SUB DUP3 GT ISZERO PUSH2 0x1BDF JUMPI PUSH1 0x0 DUP1 REVERT JUMPDEST POP SWAP1 JUMP JUMPDEST PUSH1 0x3 DUP4 PUSH1 0x6 DUP2 GT ISZERO PUSH2 0x1BF1 JUMPI INVALID JUMPDEST EQ DUP1 PUSH2 0x1C08 JUMPI POP PUSH1 0x4 DUP4 PUSH1 0x6 DUP2 GT ISZERO PUSH2 0x1C06 JUMPI INVALID JUMPDEST EQ JUMPDEST DUP1 PUSH2 0x1C1E JUMPI POP PUSH1 0x6 DUP4 PUSH1 0x6 DUP2 GT ISZERO PUSH2 0x1C1C JUMPI INVALID JUMPDEST EQ JUMPDEST ISZERO PUSH2 0x1CE3 JUMPI PUSH1 0x60 DUP5 ADD MLOAD PUSH2 0x1C32 SWAP1 DUP3 PUSH2 0x2A98 JUMP JUMPDEST PUSH1 0x60 DUP6 ADD MSTORE DUP4 MLOAD PUSH1 0x40 MLOAD PUSH4 0x698AC6FD PUSH1 0xE1 SHL DUP2 MSTORE PUSH1 0x0 SWAP2 PUSH20 0x0 SWAP2 PUSH4 0xD3158DFA SWAP2 PUSH2 0x1C76 SWAP2 DUP11 SWAP2 SWAP1 DUP8 SWAP1 PUSH1 0x4 ADD PUSH2 0x581B JUMP JUMPDEST PUSH1 0x20 PUSH1 0x40 MLOAD DUP1 DUP4 SUB DUP2 DUP7 DUP1 EXTCODESIZE ISZERO DUP1 ISZERO PUSH2 0x1C8E JUMPI PUSH1 0x0 DUP1 REVERT JUMPDEST POP GAS DELEGATECALL ISZERO DUP1 ISZERO PUSH2 0x1CA2 JUMPI RETURNDATASIZE PUSH1 0x0 DUP1 RETURNDATACOPY RETURNDATASIZE PUSH1 0x0 REVERT JUMPDEST POP POP POP POP PUSH1 0x40 MLOAD RETURNDATASIZE PUSH1 0x1F NOT PUSH1 0x1F DUP3 ADD AND DUP3 ADD DUP1 PUSH1 0x40 MSTORE POP DUP2 ADD SWAP1 PUSH2 0x1CC6 SWAP2 SWAP1 PUSH2 0x53E1 JUMP JUMPDEST PUSH1 0xC0 DUP7 ADD MLOAD SWAP1 SWAP2 POP PUSH2 0x1CD8 SWAP1 DUP3 PUSH2 0xEF6 JUMP JUMPDEST PUSH1 0xC0 DUP7 ADD MSTORE POP PUSH2 0x1DF5 JUMP JUMPDEST PUSH1 0x5 DUP4 PUSH1 0x6 DUP2 GT ISZERO PUSH2 0x1CF1 JUMPI INVALID JUMPDEST EQ ISZERO PUSH2 0x1DF5 JUMPI DUP2 PUSH2 0x1D1B DUP6 PUSH1 0xC0 ADD MLOAD PUSH2 0x460 DUP8 PUSH1 0xA0 ADD MLOAD DUP9 PUSH1 0x40 ADD MLOAD PUSH2 0xEF6 SWAP1 SWAP2 SWAP1 PUSH4 0xFFFFFFFF AND JUMP JUMPDEST SLT ISZERO PUSH2 0x1D39 JUMPI PUSH1 0x40 MLOAD PUSH3 0x461BCD PUSH1 0xE5 SHL DUP2 MSTORE PUSH1 0x4 ADD PUSH2 0x19E SWAP1 PUSH2 0x5A36 JUMP JUMPDEST PUSH1 0xC0 DUP5 ADD MLOAD PUSH2 0x1D48 SWAP1 DUP4 PUSH2 0x2A98 JUMP JUMPDEST PUSH1 0xC0 DUP6 ADD MSTORE DUP4 MLOAD PUSH1 0x40 MLOAD PUSH4 0xE22AAA3 PUSH1 0xE0 SHL DUP2 MSTORE PUSH1 0x0 SWAP2 PUSH20 0x0 SWAP2 PUSH4 0xE22AAA3 SWAP2 PUSH2 0x1D8C SWAP2 DUP11 SWAP2 SWAP1 DUP9 SWAP1 PUSH1 0x4 ADD PUSH2 0x581B JUMP JUMPDEST PUSH1 0x20 PUSH1 0x40 MLOAD DUP1 DUP4 SUB DUP2 DUP7 DUP1 EXTCODESIZE ISZERO DUP1 ISZERO PUSH2 0x1DA4 JUMPI PUSH1 0x0 DUP1 REVERT JUMPDEST POP GAS DELEGATECALL ISZERO DUP1 ISZERO PUSH2 0x1DB8 JUMPI RETURNDATASIZE PUSH1 0x0 DUP1 RETURNDATACOPY RETURNDATASIZE PUSH1 0x0 REVERT JUMPDEST POP POP POP POP PUSH1 0x40 MLOAD RETURNDATASIZE PUSH1 0x1F NOT PUSH1 0x1F DUP3 ADD AND DUP3 ADD DUP1 PUSH1 0x40 MSTORE POP DUP2 ADD SWAP1 PUSH2 0x1DDC SWAP2 SWAP1 PUSH2 0x53E1 JUMP JUMPDEST PUSH1 0x60 DUP7 ADD MLOAD SWAP1 SWAP2 POP PUSH2 0x1DEE SWAP1 DUP3 PUSH2 0xEF6 JUMP JUMPDEST PUSH1 0x60 DUP7 ADD MSTORE POP JUMPDEST POP POP POP POP POP JUMP JUMPDEST PUSH1 0x0 PUSH2 0x10A1 DUP6 DUP6 DUP6 DUP6 PUSH1 0x1 PUSH2 0x199B JUMP JUMPDEST PUSH1 0x0 DUP1 PUSH2 0xF0C PUSH1 0x2 PUSH2 0x2A7F JUMP JUMPDEST PUSH1 0x0 PUSH3 0x15180 DUP3 LT ISZERO PUSH2 0x1E2B JUMPI PUSH1 0x0 DUP1 REVERT JUMPDEST POP PUSH3 0x15180 DUP2 MOD SWAP1 SUB SWAP1 JUMP JUMPDEST PUSH1 0x60 DUP1 PUSH2 0x1E44 DUP5 DUP5 PUSH2 0x2AAE JUMP JUMPDEST SWAP2 POP PUSH2 0x1E4F DUP3 PUSH2 0x2BCA JUMP JUMPDEST SWAP1 POP SWAP3 POP SWAP3 SWAP1 POP JUMP JUMPDEST PUSH2 0x1E60 PUSH2 0x4D38 JUMP JUMPDEST PUSH1 0x0 PUSH2 0x1E6B DUP5 PUSH2 0x2D8A JUMP JUMPDEST SWAP1 POP DUP3 DUP2 PUSH1 0x0 ADD MLOAD LT ISZERO PUSH2 0x1EAA JUMPI PUSH1 0x0 DUP1 PUSH2 0x1E85 DUP7 PUSH2 0x2E52 JUMP JUMPDEST SWAP1 POP PUSH2 0x1E93 DUP7 DUP5 DUP4 DUP9 PUSH2 0x2ECF JUMP JUMPDEST SWAP1 SWAP4 POP SWAP2 POP PUSH2 0x1EA3 DUP7 DUP4 DUP6 PUSH2 0x2F73 JUMP JUMPDEST POP POP PUSH2 0x1EB7 JUMP JUMPDEST DUP1 MLOAD DUP4 EQ PUSH2 0x1EB7 JUMPI PUSH1 0x0 DUP1 REVERT JUMPDEST PUSH1 0x40 MLOAD DUP1 PUSH1 0x60 ADD PUSH1 0x40 MSTORE DUP1 PUSH2 0x1EE0 PUSH2 0x189C DUP5 PUSH1 0xA0 ADD MLOAD DUP6 PUSH1 0xC0 ADD MLOAD PUSH2 0x31A7 SWAP1 SWAP2 SWAP1 PUSH4 0xFFFFFFFF AND JUMP JUMPDEST DUP2 MSTORE PUSH1 0x20 ADD PUSH2 0x1F03 PUSH2 0x189C DUP5 PUSH1 0xA0 ADD MLOAD DUP6 PUSH1 0xE0 ADD MLOAD PUSH2 0x31A7 SWAP1 SWAP2 SWAP1 PUSH4 0xFFFFFFFF AND JUMP JUMPDEST DUP2 MSTORE PUSH1 0x20 ADD DUP3 PUSH1 0x60 ADD MLOAD DUP2 MSTORE POP SWAP2 POP POP SWAP3 SWAP2 POP POP JUMP JUMPDEST PUSH1 0x0 DUP2 ISZERO DUP1 ISZERO SWAP1 PUSH2 0x1F2C JUMPI POP PUSH2 0x3FFF DUP3 GT ISZERO JUMPDEST PUSH2 0x1F35 JUMPI PUSH1 0x0 DUP1 REVERT JUMPDEST PUSH1 0x80 DUP4 ADD MLOAD PUSH1 0x60 DUP5 ADD MLOAD PUSH2 0xFFFF AND DUP4 EQ ISZERO PUSH2 0x1F54 JUMPI PUSH1 0x1 SWAP2 POP POP PUSH2 0xF0C JUMP JUMPDEST PUSH1 0x1 PUSH1 0x1 PUSH1 0x70 SHL SUB NOT DUP2 AND ISZERO PUSH2 0x1F99 JUMPI PUSH1 0xF0 DUP2 SWAP1 SHR PUSH2 0x3FFF AND DUP4 DUP2 EQ ISZERO PUSH2 0x1F86 JUMPI POP PUSH1 0x1 PUSH1 0xFE SHL SWAP1 DUP2 AND EQ SWAP1 POP PUSH2 0xF0C JUMP JUMPDEST POP PUSH1 0x10 SHL PUSH1 0x1 PUSH1 0x1 PUSH1 0x80 SHL SUB NOT AND PUSH2 0x1F54 JUMP JUMPDEST POP PUSH1 0x0 SWAP4 SWAP3 POP POP POP JUMP JUMPDEST PUSH1 0x0 DUP1 PUSH1 0x0 DUP1 PUSH1 0x0 PUSH2 0x1FB3 PUSH2 0x31CE JUMP JUMPDEST PUSH1 0x1 PUSH1 0x1 PUSH1 0xA0 SHL SUB DUP10 AND PUSH1 0x0 SWAP1 DUP2 MSTORE PUSH1 0x20 DUP3 DUP2 MSTORE PUSH1 0x40 DUP1 DUP4 KECCAK256 PUSH2 0xFFFF DUP13 AND DUP5 MSTORE SWAP1 SWAP2 MSTORE SWAP1 KECCAK256 DUP1 SLOAD PUSH1 0x1 PUSH1 0x1 PUSH1 0x50 SHL SUB DUP2 AND SWAP7 POP PUSH1 0x1 PUSH1 0x50 SHL SWAP1 DIV PUSH4 0xFFFFFFFF AND SWAP5 POP SWAP1 SWAP2 POP DUP4 ISZERO PUSH2 0x2020 JUMPI DUP1 SLOAD PUSH2 0x2019 SWAP1 PUSH1 0x1 PUSH1 0x70 SHL SWAP1 DIV PUSH7 0xFFFFFFFFFFFFFF AND PUSH2 0x2A71 JUMP JUMPDEST SWAP3 POP PUSH2 0x2035 JUMP JUMPDEST DUP1 SLOAD PUSH1 0x1 PUSH1 0x70 SHL SWAP1 DIV PUSH7 0xFFFFFFFFFFFFFF AND SWAP3 POP JUMPDEST DUP1 SLOAD PUSH2 0x2050 SWAP1 DUP9 SWAP1 PUSH1 0x1 PUSH1 0xA8 SHL SWAP1 DIV PUSH1 0xA SWAP1 DUP2 SIGNEXTEND SWAP1 SIGNEXTEND PUSH2 0x31DB JUMP JUMPDEST SWAP6 POP POP POP SWAP4 POP SWAP4 POP SWAP4 POP SWAP4 JUMP JUMPDEST PUSH1 0x0 DUP1 PUSH2 0xF0C PUSH1 0x7 PUSH2 0x2A7F JUMP JUMPDEST PUSH1 0x0 DUP1 DUP3 SLT ISZERO PUSH2 0x1BDF JUMPI PUSH1 0x0 DUP1 REVERT JUMPDEST DUP1 ISZERO PUSH2 0x210B JUMPI PUSH20 0x4B9C40DF01BDC99DD2C31AE4B232F20F4BBAC5B PUSH1 0x1 PUSH1 0x1 PUSH1 0xA0 SHL SUB AND PUSH4 0xD0E30DB0 DUP4 PUSH1 0x40 MLOAD DUP3 PUSH4 0xFFFFFFFF AND PUSH1 0xE0 SHL DUP2 MSTORE PUSH1 0x4 ADD PUSH1 0x0 PUSH1 0x40 MLOAD DUP1 DUP4 SUB DUP2 DUP6 DUP9 DUP1 EXTCODESIZE ISZERO DUP1 ISZERO PUSH2 0x20CE JUMPI PUSH1 0x0 DUP1 REVERT JUMPDEST POP GAS CALL ISZERO DUP1 ISZERO PUSH2 0x20E2 JUMPI RETURNDATASIZE PUSH1 0x0 DUP1 RETURNDATACOPY RETURNDATASIZE PUSH1 0x0 REVERT JUMPDEST POP POP POP POP POP PUSH2 0x2106 PUSH20 0x4B9C40DF01BDC99DD2C31AE4B232F20F4BBAC5B DUP5 DUP5 PUSH2 0x3202 JUMP JUMPDEST PUSH2 0x2141 JUMP JUMPDEST PUSH1 0x40 MLOAD PUSH1 0x1 PUSH1 0x1 PUSH1 0xA0 SHL SUB DUP5 AND SWAP1 DUP4 ISZERO PUSH2 0x8FC MUL SWAP1 DUP5 SWAP1 PUSH1 0x0 DUP2 DUP2 DUP2 DUP6 DUP9 DUP9 CALL SWAP4 POP POP POP POP ISZERO DUP1 ISZERO PUSH2 0xD4A JUMPI RETURNDATASIZE PUSH1 0x0 DUP1 RETURNDATACOPY RETURNDATASIZE PUSH1 0x0 REVERT JUMPDEST POP POP POP JUMP JUMPDEST PUSH1 0x0 DUP1 DUP5 PUSH1 0x1 PUSH1 0x1 PUSH1 0xA0 SHL SUB AND PUSH4 0x70A08231 ADDRESS PUSH1 0x40 MLOAD DUP3 PUSH4 0xFFFFFFFF AND PUSH1 0xE0 SHL DUP2 MSTORE PUSH1 0x4 ADD DUP1 DUP3 PUSH1 0x1 PUSH1 0x1 PUSH1 0xA0 SHL SUB AND DUP2 MSTORE PUSH1 0x20 ADD SWAP2 POP POP PUSH1 0x20 PUSH1 0x40 MLOAD DUP1 DUP4 SUB DUP2 DUP7 DUP1 EXTCODESIZE ISZERO DUP1 ISZERO PUSH2 0x2196 JUMPI PUSH1 0x0 DUP1 REVERT JUMPDEST POP GAS STATICCALL ISZERO DUP1 ISZERO PUSH2 0x21AA JUMPI RETURNDATASIZE PUSH1 0x0 DUP1 RETURNDATACOPY RETURNDATASIZE PUSH1 0x0 REVERT JUMPDEST POP POP POP POP PUSH1 0x40 MLOAD RETURNDATASIZE PUSH1 0x20 DUP2 LT ISZERO PUSH2 0x21C0 JUMPI PUSH1 0x0 DUP1 REVERT JUMPDEST POP MLOAD PUSH1 0x40 DUP1 MLOAD PUSH4 0x23B872DD PUSH1 0xE0 SHL DUP2 MSTORE PUSH1 0x1 PUSH1 0x1 PUSH1 0xA0 SHL SUB DUP8 DUP2 AND PUSH1 0x4 DUP4 ADD MSTORE ADDRESS PUSH1 0x24 DUP4 ADD MSTORE PUSH1 0x44 DUP3 ADD DUP8 SWAP1 MSTORE SWAP2 MLOAD SWAP3 SWAP4 POP SWAP1 DUP8 AND SWAP2 PUSH4 0x23B872DD SWAP2 PUSH1 0x64 DUP1 DUP3 ADD SWAP3 PUSH1 0x0 SWAP3 SWAP1 SWAP2 SWAP1 DUP3 SWAP1 SUB ADD DUP2 DUP4 DUP8 DUP1 EXTCODESIZE ISZERO DUP1 ISZERO PUSH2 0x221D JUMPI PUSH1 0x0 DUP1 REVERT JUMPDEST POP GAS CALL ISZERO DUP1 ISZERO PUSH2 0x2231 JUMPI RETURNDATASIZE PUSH1 0x0 DUP1 RETURNDATACOPY RETURNDATASIZE PUSH1 0x0 REVERT JUMPDEST POP POP POP POP PUSH2 0x223D PUSH2 0x3275 JUMP JUMPDEST PUSH1 0x0 DUP6 PUSH1 0x1 PUSH1 0x1 PUSH1 0xA0 SHL SUB AND PUSH4 0x70A08231 ADDRESS PUSH1 0x40 MLOAD DUP3 PUSH4 0xFFFFFFFF AND PUSH1 0xE0 SHL DUP2 MSTORE PUSH1 0x4 ADD DUP1 DUP3 PUSH1 0x1 PUSH1 0x1 PUSH1 0xA0 SHL SUB AND DUP2 MSTORE PUSH1 0x20 ADD SWAP2 POP POP PUSH1 0x20 PUSH1 0x40 MLOAD DUP1 DUP4 SUB DUP2 DUP7 DUP1 EXTCODESIZE ISZERO DUP1 ISZERO PUSH2 0x228C JUMPI PUSH1 0x0 DUP1 REVERT JUMPDEST POP GAS STATICCALL ISZERO DUP1 ISZERO PUSH2 0x22A0 JUMPI RETURNDATASIZE PUSH1 0x0 DUP1 RETURNDATACOPY RETURNDATASIZE PUSH1 0x0 REVERT JUMPDEST POP POP POP POP PUSH1 0x40 MLOAD RETURNDATASIZE PUSH1 0x20 DUP2 LT ISZERO PUSH2 0x22B6 JUMPI PUSH1 0x0 DUP1 REVERT JUMPDEST POP MLOAD SWAP1 POP PUSH2 0x22C4 DUP2 DUP4 PUSH2 0x32E2 JUMP JUMPDEST SWAP7 SWAP6 POP POP POP POP POP POP JUMP JUMPDEST PUSH1 0x0 DUP1 PUSH2 0x22DB DUP5 DUP7 PUSH2 0x32F7 JUMP JUMPDEST SWAP1 POP PUSH2 0x22E7 DUP4 DUP3 PUSH2 0x3327 JUMP JUMPDEST SWAP2 POP PUSH2 0x22F4 DUP8 DUP8 DUP5 PUSH2 0x3349 JUMP JUMPDEST PUSH2 0x22FF DUP7 DUP4 DUP4 PUSH2 0x33D3 JUMP JUMPDEST DUP4 MLOAD PUSH2 0x230B SWAP1 DUP7 PUSH2 0x34D7 JUMP JUMPDEST POP SWAP6 SWAP5 POP POP POP POP POP JUMP JUMPDEST PUSH1 0x0 DUP1 PUSH2 0xF0C PUSH1 0xF PUSH2 0x2A7F JUMP JUMPDEST DUP2 MLOAD PUSH1 0x40 MLOAD PUSH4 0xDB006A75 PUSH1 0xE0 SHL DUP2 MSTORE PUSH1 0x0 SWAP2 SELFBALANCE SWAP2 DUP4 SWAP2 PUSH1 0x1 PUSH1 0x1 PUSH1 0xA0 SHL SUB AND SWAP1 PUSH4 0xDB006A75 SWAP1 PUSH2 0x2356 SWAP1 DUP8 SWAP1 PUSH1 0x4 ADD PUSH2 0x5AF6 JUMP JUMPDEST PUSH1 0x20 PUSH1 0x40 MLOAD DUP1 DUP4 SUB DUP2 PUSH1 0x0 DUP8 DUP1 EXTCODESIZE ISZERO DUP1 ISZERO PUSH2 0x2370 JUMPI PUSH1 0x0 DUP1 REVERT JUMPDEST POP GAS CALL ISZERO DUP1 ISZERO PUSH2 0x2384 JUMPI RETURNDATASIZE PUSH1 0x0 DUP1 RETURNDATACOPY RETURNDATASIZE PUSH1 0x0 REVERT JUMPDEST POP POP POP POP PUSH1 0x40 MLOAD RETURNDATASIZE PUSH1 0x1F NOT PUSH1 0x1F DUP3 ADD AND DUP3 ADD DUP1 PUSH1 0x40 MSTORE POP DUP2 ADD SWAP1 PUSH2 0x23A8 SWAP2 SWAP1 PUSH2 0x53E1 JUMP JUMPDEST SWAP1 POP DUP1 ISZERO PUSH2 0x23C8 JUMPI PUSH1 0x40 MLOAD PUSH3 0x461BCD PUSH1 0xE5 SHL DUP2 MSTORE PUSH1 0x4 ADD PUSH2 0x19E SWAP1 PUSH2 0x598E JUMP JUMPDEST SELFBALANCE PUSH2 0x22C4 DUP2 DUP5 PUSH2 0x32E2 JUMP JUMPDEST PUSH1 0x0 DUP1 DUP4 PUSH1 0x0 ADD MLOAD PUSH1 0x1 PUSH1 0x1 PUSH1 0xA0 SHL SUB AND PUSH4 0x70A08231 ADDRESS PUSH1 0x40 MLOAD DUP3 PUSH4 0xFFFFFFFF AND PUSH1 0xE0 SHL DUP2 MSTORE PUSH1 0x4 ADD PUSH2 0x2406 SWAP2 SWAP1 PUSH2 0x571E JUMP JUMPDEST PUSH1 0x20 PUSH1 0x40 MLOAD DUP1 DUP4 SUB DUP2 DUP7 DUP1 EXTCODESIZE ISZERO DUP1 ISZERO PUSH2 0x241E JUMPI PUSH1 0x0 DUP1 REVERT JUMPDEST POP GAS STATICCALL ISZERO DUP1 ISZERO PUSH2 0x2432 JUMPI RETURNDATASIZE PUSH1 0x0 DUP1 RETURNDATACOPY RETURNDATASIZE PUSH1 0x0 REVERT JUMPDEST POP POP POP POP PUSH1 0x40 MLOAD RETURNDATASIZE PUSH1 0x1F NOT PUSH1 0x1F DUP3 ADD AND DUP3 ADD DUP1 PUSH1 0x40 MSTORE POP DUP2 ADD SWAP1 PUSH2 0x2456 SWAP2 SWAP1 PUSH2 0x53E1 JUMP JUMPDEST SWAP1 POP PUSH1 0x0 DUP6 PUSH1 0x0 ADD MLOAD PUSH1 0x1 PUSH1 0x1 PUSH1 0xA0 SHL SUB AND PUSH4 0xDB006A75 DUP6 PUSH1 0x40 MLOAD DUP3 PUSH4 0xFFFFFFFF AND PUSH1 0xE0 SHL DUP2 MSTORE PUSH1 0x4 ADD PUSH2 0x248A SWAP2 SWAP1 PUSH2 0x5AF6 JUMP JUMPDEST PUSH1 0x20 PUSH1 0x40 MLOAD DUP1 DUP4 SUB DUP2 PUSH1 0x0 DUP8 DUP1 EXTCODESIZE ISZERO DUP1 ISZERO PUSH2 0x24A4 JUMPI PUSH1 0x0 DUP1 REVERT JUMPDEST POP GAS CALL ISZERO DUP1 ISZERO PUSH2 0x24B8 JUMPI RETURNDATASIZE PUSH1 0x0 DUP1 RETURNDATACOPY RETURNDATASIZE PUSH1 0x0 REVERT JUMPDEST POP POP POP POP PUSH1 0x40 MLOAD RETURNDATASIZE PUSH1 0x1F NOT PUSH1 0x1F DUP3 ADD AND DUP3 ADD DUP1 PUSH1 0x40 MSTORE POP DUP2 ADD SWAP1 PUSH2 0x24DC SWAP2 SWAP1 PUSH2 0x53E1 JUMP JUMPDEST SWAP1 POP DUP1 ISZERO PUSH2 0x24FC JUMPI PUSH1 0x40 MLOAD PUSH3 0x461BCD PUSH1 0xE5 SHL DUP2 MSTORE PUSH1 0x4 ADD PUSH2 0x19E SWAP1 PUSH2 0x598E JUMP JUMPDEST DUP5 MLOAD PUSH1 0x40 MLOAD PUSH4 0x70A08231 PUSH1 0xE0 SHL DUP2 MSTORE PUSH1 0x0 SWAP2 PUSH1 0x1 PUSH1 0x1 PUSH1 0xA0 SHL SUB AND SWAP1 PUSH4 0x70A08231 SWAP1 PUSH2 0x252C SWAP1 ADDRESS SWAP1 PUSH1 0x4 ADD PUSH2 0x571E JUMP JUMPDEST PUSH1 0x20 PUSH1 0x40 MLOAD DUP1 DUP4 SUB DUP2 DUP7 DUP1 EXTCODESIZE ISZERO DUP1 ISZERO PUSH2 0x2544 JUMPI PUSH1 0x0 DUP1 REVERT JUMPDEST POP GAS STATICCALL ISZERO DUP1 ISZERO PUSH2 0x2558 JUMPI RETURNDATASIZE PUSH1 0x0 DUP1 RETURNDATACOPY RETURNDATASIZE PUSH1 0x0 REVERT JUMPDEST POP POP POP POP PUSH1 0x40 MLOAD RETURNDATASIZE PUSH1 0x1F NOT PUSH1 0x1F DUP3 ADD AND DUP3 ADD DUP1 PUSH1 0x40 MSTORE POP DUP2 ADD SWAP1 PUSH2 0x257C SWAP2 SWAP1 PUSH2 0x53E1 JUMP JUMPDEST SWAP1 POP PUSH2 0x2588 DUP2 DUP5 PUSH2 0x32E2 JUMP JUMPDEST SWAP8 SWAP7 POP POP POP POP POP POP POP JUMP JUMPDEST PUSH1 0x0 DUP4 PUSH2 0x25A2 JUMPI POP PUSH1 0x0 PUSH2 0x10A1 JUMP JUMPDEST PUSH1 0x0 DUP5 SLT PUSH2 0x25AF JUMPI PUSH1 0x0 DUP1 REVERT JUMPDEST PUSH1 0x0 PUSH2 0x25BE DUP7 PUSH2 0xFFFF AND PUSH2 0xF20 JUMP JUMPDEST SWAP1 POP PUSH2 0x25CE DUP2 PUSH2 0xF9C DUP7 DUP9 PUSH2 0xF33 JUMP JUMPDEST SWAP2 POP PUSH1 0x0 PUSH2 0x25DB DUP4 PUSH2 0xF12 JUMP JUMPDEST SWAP1 POP PUSH2 0x25E8 DUP8 DUP4 DUP4 PUSH2 0x352C JUMP JUMPDEST PUSH1 0x3 DUP3 PUSH1 0x60 ADD MLOAD PUSH1 0x5 DUP2 GT ISZERO PUSH2 0x25FA JUMPI INVALID JUMPDEST EQ ISZERO PUSH2 0x2610 JUMPI PUSH2 0x260B DUP9 DUP3 DUP7 PUSH2 0x2079 JUMP JUMPDEST PUSH2 0x261D JUMP JUMPDEST DUP2 MLOAD PUSH2 0x261D SWAP1 DUP10 DUP4 PUSH2 0x3202 JUMP JUMPDEST PUSH2 0x262A DUP9 DUP9 DUP6 DUP6 DUP10 PUSH2 0x22CE JUMP JUMPDEST POP POP POP SWAP6 SWAP5 POP POP POP POP POP JUMP JUMPDEST DUP3 MLOAD PUSH1 0x0 SWAP1 TIMESTAMP SWAP1 DUP3 SWAP1 PUSH2 0x264C SWAP1 PUSH2 0xFFFF AND PUSH2 0x361A JUMP JUMPDEST SWAP1 POP PUSH1 0x0 PUSH2 0x265F DUP3 DUP9 PUSH1 0xC0 ADD MLOAD DUP6 PUSH2 0x3640 JUMP JUMPDEST SWAP1 POP PUSH2 0x266D DUP8 DUP4 DUP4 DUP9 PUSH2 0x3723 JUMP JUMPDEST SWAP4 POP PUSH1 0x0 PUSH2 0x267A DUP4 PUSH2 0x3850 JUMP JUMPDEST SWAP1 POP PUSH1 0x1 PUSH1 0x1 PUSH1 0xA0 SHL SUB DUP2 AND ISZERO PUSH2 0x2708 JUMPI DUP1 PUSH1 0x1 PUSH1 0x1 PUSH1 0xA0 SHL SUB AND PUSH4 0x1D684DD2 DUP9 DUP11 PUSH1 0x0 ADD MLOAD PUSH2 0x26AD DUP13 PUSH1 0x40 ADD MLOAD PUSH2 0x206A JUMP JUMPDEST DUP11 DUP14 PUSH1 0xC0 ADD MLOAD DUP12 PUSH1 0x40 MLOAD DUP8 PUSH4 0xFFFFFFFF AND PUSH1 0xE0 SHL DUP2 MSTORE PUSH1 0x4 ADD PUSH2 0x26D5 SWAP7 SWAP6 SWAP5 SWAP4 SWAP3 SWAP2 SWAP1 PUSH2 0x5881 JUMP JUMPDEST PUSH1 0x0 PUSH1 0x40 MLOAD DUP1 DUP4 SUB DUP2 PUSH1 0x0 DUP8 DUP1 EXTCODESIZE ISZERO DUP1 ISZERO PUSH2 0x26EF JUMPI PUSH1 0x0 DUP1 REVERT JUMPDEST POP GAS CALL ISZERO DUP1 ISZERO PUSH2 0x2703 JUMPI RETURNDATASIZE PUSH1 0x0 DUP1 RETURNDATACOPY RETURNDATASIZE PUSH1 0x0 REVERT JUMPDEST POP POP POP POP JUMPDEST DUP5 ISZERO PUSH2 0x2718 JUMPI PUSH2 0x2718 DUP8 DUP7 PUSH2 0x38C2 JUMP JUMPDEST POP POP POP POP SWAP4 SWAP3 POP POP POP JUMP JUMPDEST PUSH1 0x0 PUSH2 0x272D PUSH2 0x31CE JUMP JUMPDEST PUSH1 0x1 PUSH1 0x1 PUSH1 0xA0 SHL SUB DUP10 AND PUSH1 0x0 SWAP1 DUP2 MSTORE PUSH1 0x20 DUP3 DUP2 MSTORE PUSH1 0x40 DUP1 DUP4 KECCAK256 PUSH2 0xFFFF DUP13 AND DUP5 MSTORE SWAP1 SWAP2 MSTORE SWAP1 KECCAK256 SWAP1 SWAP2 POP DUP5 PUSH2 0x2795 JUMPI PUSH7 0xFFFFFFFFFFFFFF DUP5 GT ISZERO PUSH2 0x276E JUMPI PUSH1 0x0 DUP1 REVERT JUMPDEST DUP1 SLOAD PUSH7 0xFFFFFFFFFFFFFF PUSH1 0x70 SHL NOT AND PUSH1 0x1 PUSH1 0x70 SHL PUSH7 0xFFFFFFFFFFFFFF DUP7 AND MUL OR DUP2 SSTORE PUSH2 0x27AF JUMP JUMPDEST DUP1 SLOAD PUSH1 0x1 PUSH1 0x50 SHL SWAP1 DIV PUSH4 0xFFFFFFFF AND DUP6 EQ PUSH2 0x27AF JUMPI PUSH1 0x0 DUP1 REVERT JUMPDEST PUSH2 0x27B8 DUP6 PUSH2 0x38E1 JUMP JUMPDEST DUP2 SLOAD PUSH4 0xFFFFFFFF SWAP2 SWAP1 SWAP2 AND PUSH1 0x1 PUSH1 0x50 SHL MUL PUSH4 0xFFFFFFFF PUSH1 0x50 SHL NOT SWAP1 SWAP2 AND OR DUP2 SSTORE PUSH2 0x27E9 PUSH2 0x27E4 DUP8 PUSH2 0x206A JUMP JUMPDEST PUSH2 0x38F4 JUMP JUMPDEST DUP2 SLOAD PUSH10 0xFFFFFFFFFFFFFFFFFFFF NOT AND PUSH1 0x1 PUSH1 0x1 PUSH1 0x50 SHL SUB SWAP2 SWAP1 SWAP2 AND OR DUP1 DUP3 SSTORE PUSH2 0x282F SWAP1 PUSH2 0x282A SWAP1 DUP6 SWAP1 DUP13 SWAP1 DUP13 SWAP1 PUSH1 0x1 PUSH1 0xA8 SHL SWAP1 DIV PUSH1 0xA SWAP1 DUP2 SIGNEXTEND SWAP1 SIGNEXTEND DUP13 PUSH2 0x390A JUMP JUMPDEST PUSH2 0x392D JUMP JUMPDEST DUP2 SLOAD PUSH1 0xA SWAP2 SWAP1 SWAP2 SIGNEXTEND PUSH1 0x1 PUSH1 0x1 PUSH1 0x58 SHL SUB AND PUSH1 0x1 PUSH1 0xA8 SHL MUL PUSH1 0x1 PUSH1 0x1 PUSH1 0xA8 SHL SUB SWAP1 SWAP2 AND OR SWAP1 SSTORE POP POP POP POP POP POP POP POP JUMP JUMPDEST DUP3 PUSH1 0x0 LT DUP1 ISZERO PUSH2 0x2870 JUMPI POP PUSH2 0x3FFF DUP4 GT ISZERO JUMPDEST PUSH2 0x2879 JUMPI PUSH1 0x0 DUP1 REVERT JUMPDEST DUP2 DUP1 ISZERO PUSH2 0x288D JUMPI POP DUP3 DUP5 PUSH1 0x60 ADD MLOAD PUSH2 0xFFFF AND EQ JUMPDEST ISZERO PUSH2 0x2897 JUMPI PUSH2 0xD4A JUMP JUMPDEST PUSH1 0x80 DUP5 ADD MLOAD PUSH1 0x0 SWAP1 DUP2 JUMPDEST PUSH1 0x1 PUSH1 0x1 PUSH1 0x70 SHL SUB NOT DUP3 AND ISZERO PUSH2 0x2A19 JUMPI PUSH1 0xF0 DUP3 SWAP1 SHR PUSH2 0x3FFF AND DUP7 DUP2 EQ DUP1 ISZERO PUSH2 0x28C6 JUMPI POP DUP6 JUMPDEST ISZERO PUSH2 0x28FE JUMPI POP PUSH1 0x80 DUP8 ADD DUP1 MLOAD PUSH1 0x1 PUSH1 0x1 PUSH1 0xF0 SHL SUB NOT DUP7 AND PUSH1 0x10 SWAP1 SWAP4 MUL SWAP3 SWAP1 SWAP3 SHR SWAP2 SWAP1 SWAP2 OR PUSH1 0x1 PUSH1 0x1 PUSH1 0x70 SHL SUB NOT AND SWAP1 MSTORE POP PUSH2 0xD4A SWAP1 POP JUMP JUMPDEST DUP7 DUP2 EQ DUP1 ISZERO PUSH2 0x290B JUMPI POP DUP6 ISZERO JUMPDEST ISZERO PUSH2 0x2967 JUMPI PUSH1 0x1 PUSH1 0x1 PUSH1 0xF0 SHL SUB NOT DUP6 AND NOT SWAP3 SWAP1 SWAP3 AND SWAP2 PUSH1 0x3 PUSH1 0xFE SHL DUP4 AND PUSH2 0x2945 JUMPI PUSH1 0x10 DUP4 PUSH14 0xFFFFFFFFFFFFFFFFFFFFFFFFFFFF NOT AND SWAP1 SHL SWAP3 POP JUMPDEST POP PUSH1 0x1 PUSH1 0x1 PUSH1 0x70 SHL SUB NOT SWAP2 DUP3 AND PUSH1 0x10 SWAP1 SWAP2 MUL SHR SWAP2 SWAP1 SWAP2 OR AND PUSH1 0x80 DUP6 ADD MSTORE PUSH2 0xD4A JUMP JUMPDEST DUP7 DUP2 GT DUP1 ISZERO PUSH2 0x2973 JUMPI POP DUP6 JUMPDEST ISZERO PUSH2 0x29CD JUMPI PUSH1 0x80 DUP9 DUP2 ADD MLOAD PUSH1 0x1 PUSH1 0x1 PUSH1 0xF0 SHL SUB NOT PUSH1 0xF0 DUP11 SWAP1 SHL DUP9 OR DUP2 AND PUSH1 0x10 DUP7 MUL SHR SWAP7 SWAP1 SWAP7 OR SWAP6 SWAP2 SHL AND ISZERO PUSH2 0x29A7 JUMPI PUSH1 0x0 DUP1 REVERT JUMPDEST POP PUSH1 0x1 PUSH1 0x1 PUSH1 0x70 SHL SUB NOT SWAP2 DUP3 AND PUSH1 0x1 SWAP2 SWAP1 SWAP2 ADD PUSH1 0x10 MUL SHR SWAP2 SWAP1 SWAP2 OR AND PUSH1 0x80 DUP6 ADD MSTORE PUSH2 0xD4A JUMP JUMPDEST DUP7 DUP2 GT DUP1 ISZERO PUSH2 0x29DA JUMPI POP DUP6 ISZERO JUMPDEST ISZERO PUSH2 0x29E8 JUMPI POP POP POP POP PUSH2 0xD4A JUMP JUMPDEST POP PUSH1 0x1 PUSH1 0x1 PUSH1 0xF0 SHL SUB NOT DUP3 AND PUSH1 0x10 DUP3 DUP2 MUL SWAP2 SWAP1 SWAP2 SHR SWAP4 SWAP1 SWAP4 OR SWAP3 SWAP2 SWAP1 SWAP2 SHL PUSH1 0x1 PUSH1 0x1 PUSH1 0x80 SHL SUB NOT AND SWAP1 PUSH1 0x1 ADD PUSH2 0x28A1 JUMP JUMPDEST DUP5 PUSH2 0x2A26 JUMPI POP POP POP PUSH2 0xD4A JUMP JUMPDEST PUSH1 0x9 DUP2 LT PUSH2 0x2A33 JUMPI PUSH1 0x0 DUP1 REVERT JUMPDEST PUSH1 0x1 PUSH1 0x1 PUSH1 0xF0 SHL SUB NOT PUSH1 0xF0 DUP8 SWAP1 SHL DUP6 OR AND PUSH1 0x10 SWAP1 SWAP2 MUL SHR SWAP2 SWAP1 SWAP2 OR PUSH1 0x1 PUSH1 0x1 PUSH1 0x70 SHL SUB NOT AND PUSH1 0x80 DUP7 ADD MSTORE POP POP POP POP POP JUMP JUMPDEST PUSH1 0x0 DUP1 PUSH2 0xF0C PUSH1 0x1D PUSH2 0x2A7F JUMP JUMPDEST PUSH1 0x8 DUP2 SWAP1 SHR PUSH1 0xFF SWAP1 SWAP2 AND SHL SWAP1 JUMP JUMPDEST PUSH1 0x0 PUSH3 0xF4240 DUP3 PUSH1 0x26 DUP2 GT ISZERO PUSH2 0x2A91 JUMPI INVALID JUMPDEST ADD SWAP3 SWAP2 POP POP JUMP JUMPDEST DUP1 DUP3 SUB DUP3 DUP2 SGT ISZERO PUSH1 0x0 DUP4 SLT ISZERO EQ PUSH2 0xF0C JUMPI PUSH1 0x0 DUP1 REVERT JUMPDEST PUSH1 0x60 PUSH1 0x8 DUP3 PUSH1 0xFF AND GT ISZERO PUSH2 0x2AC1 JUMPI PUSH1 0x0 DUP1 REVERT JUMPDEST PUSH1 0x0 PUSH2 0x2ACB PUSH2 0x395F JUMP JUMPDEST PUSH1 0x1 PUSH1 0x1 PUSH1 0xA0 SHL SUB DUP6 AND PUSH1 0x0 SWAP1 DUP2 MSTORE PUSH1 0x20 DUP3 SWAP1 MSTORE PUSH1 0x40 DUP2 KECCAK256 SWAP2 SWAP3 POP PUSH1 0xFF DUP6 AND PUSH1 0x1 PUSH1 0x1 PUSH1 0x40 SHL SUB DUP2 GT DUP1 ISZERO PUSH2 0x2AFF JUMPI PUSH1 0x0 DUP1 REVERT JUMPDEST POP PUSH1 0x40 MLOAD SWAP1 DUP1 DUP3 MSTORE DUP1 PUSH1 0x20 MUL PUSH1 0x20 ADD DUP3 ADD PUSH1 0x40 MSTORE DUP1 ISZERO PUSH2 0x2B39 JUMPI DUP2 PUSH1 0x20 ADD JUMPDEST PUSH2 0x2B26 PUSH2 0x4CCA JUMP JUMPDEST DUP2 MSTORE PUSH1 0x20 ADD SWAP1 PUSH1 0x1 SWAP1 SUB SWAP1 DUP2 PUSH2 0x2B1E JUMPI SWAP1 POP JUMPDEST POP SWAP1 POP PUSH1 0x0 JUMPDEST DUP6 PUSH1 0xFF AND DUP2 LT ISZERO PUSH2 0x230B JUMPI PUSH1 0x0 DUP4 DUP3 PUSH1 0x8 DUP2 LT PUSH2 0x2B58 JUMPI INVALID JUMPDEST ADD SWAP1 POP PUSH1 0x0 DUP4 DUP4 DUP2 MLOAD DUP2 LT PUSH2 0x2B69 JUMPI INVALID JUMPDEST PUSH1 0x20 SWAP1 DUP2 MUL SWAP2 SWAP1 SWAP2 ADD DUP2 ADD MLOAD DUP4 SLOAD PUSH2 0xFFFF DUP2 AND DUP3 MSTORE PUSH5 0xFFFFFFFFFF PUSH3 0x10000 DUP3 DIV AND SWAP3 DUP3 ADD SWAP3 SWAP1 SWAP3 MSTORE PUSH1 0xFF PUSH1 0x1 PUSH1 0x38 SHL DUP4 DIV AND PUSH1 0x40 DUP3 ADD MSTORE PUSH9 0x10000000000000000 SWAP1 SWAP2 DIV PUSH1 0xA SWAP1 DUP2 SIGNEXTEND SWAP1 SIGNEXTEND PUSH1 0x60 DUP3 ADD MSTORE PUSH1 0x80 ADD SWAP2 SWAP1 SWAP2 MSTORE POP PUSH1 0x1 ADD PUSH2 0x2B3F JUMP JUMPDEST DUP1 MLOAD PUSH1 0x60 SWAP1 DUP1 PUSH1 0x1 PUSH1 0x1 PUSH1 0x40 SHL SUB DUP2 GT DUP1 ISZERO PUSH2 0x2BE5 JUMPI PUSH1 0x0 DUP1 REVERT JUMPDEST POP PUSH1 0x40 MLOAD SWAP1 DUP1 DUP3 MSTORE DUP1 PUSH1 0x20 MUL PUSH1 0x20 ADD DUP3 ADD PUSH1 0x40 MSTORE DUP1 ISZERO PUSH2 0x2C0F JUMPI DUP2 PUSH1 0x20 ADD PUSH1 0x20 DUP3 MUL DUP1 CALLDATASIZE DUP4 CALLDATACOPY ADD SWAP1 POP JUMPDEST POP SWAP2 POP PUSH1 0x0 JUMPDEST DUP2 DUP2 LT ISZERO PUSH2 0x2C6C JUMPI PUSH1 0x0 DUP5 DUP3 DUP2 MLOAD DUP2 LT PUSH2 0x2C2B JUMPI INVALID JUMPDEST PUSH1 0x20 MUL PUSH1 0x20 ADD ADD MLOAD SWAP1 POP PUSH2 0x2C4C DUP2 PUSH1 0x0 ADD MLOAD DUP3 PUSH1 0x20 ADD MLOAD DUP4 PUSH1 0x40 ADD MLOAD PUSH2 0x396C JUMP JUMPDEST DUP5 DUP4 DUP2 MLOAD DUP2 LT PUSH2 0x2C58 JUMPI INVALID JUMPDEST PUSH1 0x20 SWAP1 DUP2 MUL SWAP2 SWAP1 SWAP2 ADD ADD MSTORE POP PUSH1 0x1 ADD PUSH2 0x2C15 JUMP JUMPDEST POP PUSH1 0x1 JUMPDEST DUP2 DUP2 LT ISZERO PUSH2 0x2D83 JUMPI DUP1 JUMPDEST PUSH1 0x0 DUP2 GT DUP1 ISZERO PUSH2 0x2CB2 JUMPI POP DUP4 DUP2 DUP2 MLOAD DUP2 LT PUSH2 0x2C91 JUMPI INVALID JUMPDEST PUSH1 0x20 MUL PUSH1 0x20 ADD ADD MLOAD DUP5 PUSH1 0x1 DUP4 SUB DUP2 MLOAD DUP2 LT PUSH2 0x2CA8 JUMPI INVALID JUMPDEST PUSH1 0x20 MUL PUSH1 0x20 ADD ADD MLOAD GT JUMPDEST ISZERO PUSH2 0x2D7A JUMPI DUP4 DUP2 DUP2 MLOAD DUP2 LT PUSH2 0x2CC3 JUMPI INVALID JUMPDEST PUSH1 0x20 MUL PUSH1 0x20 ADD ADD MLOAD DUP5 PUSH1 0x1 DUP4 SUB DUP2 MLOAD DUP2 LT PUSH2 0x2CDA JUMPI INVALID JUMPDEST PUSH1 0x20 MUL PUSH1 0x20 ADD ADD MLOAD DUP6 PUSH1 0x1 DUP5 SUB DUP2 MLOAD DUP2 LT PUSH2 0x2CF1 JUMPI INVALID JUMPDEST PUSH1 0x20 MUL PUSH1 0x20 ADD ADD DUP7 DUP5 DUP2 MLOAD DUP2 LT PUSH2 0x2D04 JUMPI INVALID JUMPDEST PUSH1 0x20 MUL PUSH1 0x20 ADD ADD DUP3 DUP2 MSTORE POP DUP3 DUP2 MSTORE POP POP POP DUP5 DUP2 DUP2 MLOAD DUP2 LT PUSH2 0x2D21 JUMPI INVALID JUMPDEST PUSH1 0x20 MUL PUSH1 0x20 ADD ADD MLOAD DUP6 PUSH1 0x1 DUP4 SUB DUP2 MLOAD DUP2 LT PUSH2 0x2D38 JUMPI INVALID JUMPDEST PUSH1 0x20 MUL PUSH1 0x20 ADD ADD MLOAD DUP7 PUSH1 0x1 DUP5 SUB DUP2 MLOAD DUP2 LT PUSH2 0x2D4F JUMPI INVALID JUMPDEST PUSH1 0x20 MUL PUSH1 0x20 ADD ADD DUP8 DUP5 DUP2 MLOAD DUP2 LT PUSH2 0x2D62 JUMPI INVALID JUMPDEST PUSH1 0x20 SWAP1 DUP2 MUL SWAP2 SWAP1 SWAP2 ADD ADD SWAP2 SWAP1 SWAP2 MSTORE MSTORE PUSH1 0x0 NOT ADD PUSH2 0x2C7A JUMP JUMPDEST POP PUSH1 0x1 ADD PUSH2 0x2C70 JUMP JUMPDEST POP POP SWAP2 SWAP1 POP JUMP JUMPDEST PUSH2 0x2D92 PUSH2 0x4D59 JUMP JUMPDEST PUSH1 0x0 PUSH2 0x2D9C PUSH2 0x2A64 JUMP JUMPDEST PUSH2 0xFFFF SWAP4 DUP5 AND PUSH1 0x0 SWAP1 DUP2 MSTORE PUSH1 0x20 SWAP2 DUP3 MSTORE PUSH1 0x40 SWAP1 DUP2 SWAP1 KECCAK256 DUP1 SLOAD PUSH5 0xFFFFFFFFFF DUP2 AND DUP7 MSTORE PUSH1 0x1 PUSH1 0x28 SHL DUP2 DIV PUSH1 0x1 PUSH1 0x1 PUSH1 0x58 SHL SUB SWAP1 DUP2 AND SWAP5 DUP8 ADD SWAP5 SWAP1 SWAP5 MSTORE PUSH1 0x1 DUP3 ADD SLOAD DUP5 AND SWAP3 DUP7 ADD SWAP3 SWAP1 SWAP3 MSTORE PUSH1 0x1 PUSH1 0xD8 SHL DUP3 DIV PUSH4 0xFFFFFFFF AND PUSH1 0x60 DUP7 ADD MSTORE PUSH1 0x1 PUSH1 0x80 SHL SWAP1 SWAP2 DIV SWAP1 SWAP2 AND PUSH1 0x80 DUP5 ADD MSTORE PUSH1 0x2 ADD SLOAD PUSH1 0x1 PUSH1 0x1 PUSH1 0x50 SHL SUB DUP1 DUP3 AND PUSH1 0xA0 DUP6 ADD MSTORE PUSH1 0x1 PUSH1 0x50 SHL DUP3 DIV DUP2 AND PUSH1 0xC0 DUP6 ADD MSTORE PUSH1 0x1 PUSH1 0xA0 SHL DUP3 DIV AND PUSH1 0xE0 DUP5 ADD MSTORE PUSH1 0x1 PUSH1 0xF0 SHL SWAP1 DIV PUSH1 0xFF AND PUSH2 0x12C MUL SWAP1 SWAP3 AND PUSH2 0x100 DUP3 ADD MSTORE SWAP2 SWAP1 POP JUMP JUMPDEST PUSH1 0x0 DUP1 PUSH2 0x2E5E DUP4 PUSH2 0x3995 JUMP JUMPDEST PUSH1 0x1 PUSH1 0x1 PUSH1 0xA0 SHL SUB AND PUSH4 0xEF81F216 PUSH1 0x40 MLOAD DUP2 PUSH4 0xFFFFFFFF AND PUSH1 0xE0 SHL DUP2 MSTORE PUSH1 0x4 ADD PUSH1 0x40 DUP1 MLOAD DUP1 DUP4 SUB DUP2 PUSH1 0x0 DUP8 DUP1 EXTCODESIZE ISZERO DUP1 ISZERO PUSH2 0x2E97 JUMPI PUSH1 0x0 DUP1 REVERT JUMPDEST POP GAS CALL ISZERO DUP1 ISZERO PUSH2 0x2EAB JUMPI RETURNDATASIZE PUSH1 0x0 DUP1 RETURNDATACOPY RETURNDATASIZE PUSH1 0x0 REVERT JUMPDEST POP POP POP POP PUSH1 0x40 MLOAD RETURNDATASIZE PUSH1 0x1F NOT PUSH1 0x1F DUP3 ADD AND DUP3 ADD DUP1 PUSH1 0x40 MSTORE POP DUP2 ADD SWAP1 PUSH2 0xFEC SWAP2 SWAP1 PUSH2 0x55A1 JUMP JUMPDEST PUSH2 0x2ED7 PUSH2 0x4D59 JUMP JUMPDEST PUSH1 0x0 DUP1 PUSH1 0x0 PUSH2 0x2EE7 DUP9 DUP7 DUP10 PUSH2 0x39C5 JUMP JUMPDEST PUSH1 0xC0 DUP12 ADD SWAP3 SWAP1 SWAP3 MSTORE PUSH1 0xE0 DUP11 ADD SWAP3 SWAP1 SWAP3 MSTORE PUSH1 0x20 DUP10 ADD MLOAD SWAP2 SWAP4 POP SWAP2 POP PUSH2 0x2F0B SWAP1 DUP4 PUSH2 0x3AD0 JUMP JUMPDEST PUSH1 0x20 DUP9 ADD MSTORE PUSH1 0x80 DUP8 ADD MLOAD PUSH1 0x0 SWAP1 ISZERO PUSH2 0x2F39 JUMPI PUSH1 0x80 DUP9 ADD MLOAD PUSH2 0x2F36 SWAP1 PUSH2 0x2F30 DUP10 DUP3 PUSH2 0x32E2 JUMP JUMPDEST SWAP1 PUSH2 0x3AE2 JUMP JUMPDEST SWAP1 POP JUMPDEST PUSH2 0x2F59 PUSH2 0x2F4E PUSH8 0xDE0B6B3A7640000 DUP4 PUSH2 0x3AD0 JUMP JUMPDEST PUSH1 0xA0 DUP11 ADD MLOAD SWAP1 PUSH2 0x3AFF JUMP JUMPDEST PUSH1 0xA0 DUP10 ADD MSTORE POP POP PUSH1 0x80 DUP7 ADD SWAP5 SWAP1 SWAP5 MSTORE POP POP DUP3 MSTORE SWAP1 SWAP3 SWAP1 SWAP2 POP JUMP JUMPDEST PUSH1 0x0 PUSH2 0x2F7D PUSH2 0x2A64 JUMP JUMPDEST PUSH1 0x0 DUP6 PUSH2 0xFFFF AND DUP2 MSTORE PUSH1 0x20 ADD SWAP1 DUP2 MSTORE PUSH1 0x20 ADD PUSH1 0x0 KECCAK256 SWAP1 POP PUSH2 0x2FA1 DUP3 PUSH1 0x0 ADD MLOAD PUSH2 0x3B1C JUMP JUMPDEST DUP2 SLOAD PUSH5 0xFFFFFFFFFF NOT AND PUSH5 0xFFFFFFFFFF SWAP2 SWAP1 SWAP2 AND OR DUP2 SSTORE PUSH1 0xA0 DUP3 ADD MLOAD PUSH2 0x2FC6 SWAP1 PUSH2 0x38F4 JUMP JUMPDEST PUSH1 0x2 DUP3 ADD DUP1 SLOAD PUSH10 0xFFFFFFFFFFFFFFFFFFFF NOT AND PUSH1 0x1 PUSH1 0x1 PUSH1 0x50 SHL SUB SWAP3 SWAP1 SWAP3 AND SWAP2 SWAP1 SWAP2 OR SWAP1 SSTORE PUSH1 0xC0 DUP3 ADD MLOAD PUSH2 0x2FF9 SWAP1 PUSH2 0x38F4 JUMP JUMPDEST DUP2 PUSH1 0x2 ADD PUSH1 0xA PUSH2 0x100 EXP DUP2 SLOAD DUP2 PUSH1 0x1 PUSH1 0x1 PUSH1 0x50 SHL SUB MUL NOT AND SWAP1 DUP4 PUSH1 0x1 PUSH1 0x1 PUSH1 0x50 SHL SUB AND MUL OR SWAP1 SSTORE POP PUSH2 0x302E DUP3 PUSH1 0xE0 ADD MLOAD PUSH2 0x38F4 JUMP JUMPDEST DUP2 PUSH1 0x2 ADD PUSH1 0x14 PUSH2 0x100 EXP DUP2 SLOAD DUP2 PUSH1 0x1 PUSH1 0x1 PUSH1 0x50 SHL SUB MUL NOT AND SWAP1 DUP4 PUSH1 0x1 PUSH1 0x1 PUSH1 0x50 SHL SUB AND MUL OR SWAP1 SSTORE POP PUSH2 0x3063 DUP3 PUSH1 0x20 ADD MLOAD PUSH2 0x3B30 JUMP JUMPDEST DUP2 SLOAD PUSH1 0x1 PUSH1 0x1 PUSH1 0x58 SHL SUB SWAP2 SWAP1 SWAP2 AND PUSH1 0x1 PUSH1 0x28 SHL MUL PUSH16 0xFFFFFFFFFFFFFFFFFFFFFF0000000000 NOT SWAP1 SWAP2 AND OR DUP2 SSTORE PUSH1 0x40 DUP3 ADD MLOAD PUSH2 0x309D SWAP1 PUSH2 0x3B30 JUMP JUMPDEST PUSH1 0x1 DUP3 ADD DUP1 SLOAD PUSH11 0xFFFFFFFFFFFFFFFFFFFFFF NOT AND PUSH1 0x1 PUSH1 0x1 PUSH1 0x58 SHL SUB SWAP3 SWAP1 SWAP3 AND SWAP2 SWAP1 SWAP2 OR SWAP1 SSTORE PUSH1 0x80 DUP3 ADD MLOAD PUSH2 0x30D1 SWAP1 PUSH2 0x3B30 JUMP JUMPDEST DUP2 SLOAD PUSH1 0x1 PUSH1 0x1 PUSH1 0x58 SHL SUB SWAP2 SWAP1 SWAP2 AND PUSH1 0x1 PUSH1 0x80 SHL MUL PUSH11 0xFFFFFFFFFFFFFFFFFFFFFF PUSH1 0x80 SHL NOT SWAP1 SWAP2 AND OR DUP2 SSTORE PUSH1 0x60 DUP3 ADD MLOAD PUSH2 0x3109 SWAP1 PUSH2 0x38E1 JUMP JUMPDEST DUP2 SLOAD PUSH4 0xFFFFFFFF SWAP2 SWAP1 SWAP2 AND PUSH1 0x1 PUSH1 0xD8 SHL MUL PUSH4 0xFFFFFFFF PUSH1 0xD8 SHL NOT SWAP1 SWAP2 AND OR DUP2 SSTORE DUP3 ISZERO PUSH2 0x3155 JUMPI PUSH1 0x0 PUSH2 0x313A DUP5 PUSH2 0x1BC9 JUMP JUMPDEST SWAP1 POP PUSH2 0x3146 DUP6 DUP3 PUSH2 0x3B46 JUMP JUMPDEST PUSH2 0x3153 PUSH2 0xFEE DUP7 DUP4 PUSH2 0x3349 JUMP JUMPDEST POP JUMPDEST DUP4 PUSH2 0xFFFF AND PUSH32 0xEF25641E225E493886510CA1AD6584FA7B442B9FEA820A29D1DE3CE27D270FD2 DUP4 PUSH1 0xA0 ADD MLOAD DUP5 PUSH1 0xC0 ADD MLOAD DUP6 PUSH1 0xE0 ADD MLOAD PUSH1 0x40 MLOAD PUSH2 0x3199 SWAP4 SWAP3 SWAP2 SWAP1 PUSH2 0x5AFF JUMP JUMPDEST PUSH1 0x40 MLOAD DUP1 SWAP2 SUB SWAP1 LOG2 POP POP POP POP JUMP JUMPDEST PUSH1 0x0 DUP3 PUSH2 0x31B6 JUMPI POP PUSH1 0x0 PUSH2 0xF0C JUMP JUMPDEST DUP3 DUP3 MUL DUP3 DUP5 DUP3 DUP2 PUSH2 0x31C3 JUMPI INVALID JUMPDEST DIV EQ PUSH2 0xB59 JUMPI PUSH1 0x0 DUP1 REVERT JUMPDEST PUSH1 0x0 DUP1 PUSH2 0xF0C PUSH1 0x6 PUSH2 0x2A7F JUMP JUMPDEST PUSH1 0x0 DUP1 DUP3 SLT PUSH2 0x31EB JUMPI POP DUP1 PUSH2 0xF0C JUMP JUMPDEST DUP3 MLOAD PUSH1 0x20 DUP5 ADD MLOAD PUSH2 0xF86 SWAP2 SWAP1 PUSH2 0xF5F SWAP1 DUP6 SWAP1 PUSH2 0x16AD JUMP JUMPDEST DUP3 PUSH1 0x1 PUSH1 0x1 PUSH1 0xA0 SHL SUB AND PUSH4 0xA9059CBB DUP4 DUP4 PUSH1 0x40 MLOAD DUP4 PUSH4 0xFFFFFFFF AND PUSH1 0xE0 SHL DUP2 MSTORE PUSH1 0x4 ADD DUP1 DUP4 PUSH1 0x1 PUSH1 0x1 PUSH1 0xA0 SHL SUB AND DUP2 MSTORE PUSH1 0x20 ADD DUP3 DUP2 MSTORE PUSH1 0x20 ADD SWAP3 POP POP POP PUSH1 0x0 PUSH1 0x40 MLOAD DUP1 DUP4 SUB DUP2 PUSH1 0x0 DUP8 DUP1 EXTCODESIZE ISZERO DUP1 ISZERO PUSH2 0x3259 JUMPI PUSH1 0x0 DUP1 REVERT JUMPDEST POP GAS CALL ISZERO DUP1 ISZERO PUSH2 0x326D JUMPI RETURNDATASIZE PUSH1 0x0 DUP1 RETURNDATACOPY RETURNDATASIZE PUSH1 0x0 REVERT JUMPDEST POP POP POP POP PUSH2 0x2141 JUMPDEST PUSH1 0x0 PUSH2 0x327F PUSH2 0x4DA5 JUMP JUMPDEST RETURNDATASIZE DUP1 ISZERO PUSH2 0x3293 JUMPI PUSH1 0x20 DUP2 EQ PUSH2 0x329C JUMPI PUSH1 0x0 DUP1 REVERT JUMPDEST PUSH1 0x1 SWAP3 POP PUSH2 0x32A7 JUMP JUMPDEST PUSH1 0x20 PUSH1 0x0 DUP4 RETURNDATACOPY DUP2 MLOAD SWAP3 POP JUMPDEST POP DUP2 PUSH2 0x939 JUMPI PUSH1 0x40 DUP1 MLOAD PUSH3 0x461BCD PUSH1 0xE5 SHL DUP2 MSTORE PUSH1 0x20 PUSH1 0x4 DUP3 ADD MSTORE PUSH1 0x5 PUSH1 0x24 DUP3 ADD MSTORE PUSH5 0x455243323 PUSH1 0xDC SHL PUSH1 0x44 DUP3 ADD MSTORE SWAP1 MLOAD SWAP1 DUP2 SWAP1 SUB PUSH1 0x64 ADD SWAP1 REVERT JUMPDEST PUSH1 0x0 DUP3 DUP3 GT ISZERO PUSH2 0x32F1 JUMPI PUSH1 0x0 DUP1 REVERT JUMPDEST POP SWAP1 SUB SWAP1 JUMP JUMPDEST PUSH1 0x0 PUSH4 0x5F5E100 DUP4 PUSH1 0x40 ADD MLOAD EQ ISZERO PUSH2 0x3310 JUMPI POP DUP1 PUSH2 0xF0C JUMP JUMPDEST PUSH1 0x40 DUP4 ADD MLOAD PUSH2 0xB59 SWAP1 PUSH2 0xF5F DUP5 PUSH4 0x5F5E100 PUSH2 0x16AD JUMP JUMPDEST DUP2 MLOAD PUSH1 0x0 SWAP1 PUSH2 0xB59 SWAP1 PUSH2 0xF5F DUP5 PUSH15 0xC097CE7BC90715B34B9F1000000000 PUSH2 0x16AD JUMP JUMPDEST PUSH1 0x0 PUSH2 0x3353 PUSH2 0x3B7D JUMP JUMPDEST PUSH2 0xFFFF DUP5 AND PUSH1 0x0 SWAP1 DUP2 MSTORE PUSH1 0x20 SWAP2 SWAP1 SWAP2 MSTORE PUSH1 0x40 SWAP1 DUP2 SWAP1 KECCAK256 SLOAD SWAP1 MLOAD PUSH4 0xAD1C095D PUSH1 0xE0 SHL DUP2 MSTORE PUSH1 0x1 PUSH1 0x1 PUSH1 0xA0 SHL SUB SWAP1 SWAP2 AND SWAP2 POP DUP2 SWAP1 PUSH4 0xAD1C095D SWAP1 PUSH2 0x339B SWAP1 DUP8 SWAP1 DUP7 SWAP1 PUSH1 0x4 ADD PUSH2 0x57B5 JUMP JUMPDEST PUSH1 0x0 PUSH1 0x40 MLOAD DUP1 DUP4 SUB DUP2 PUSH1 0x0 DUP8 DUP1 EXTCODESIZE ISZERO DUP1 ISZERO PUSH2 0x33B5 JUMPI PUSH1 0x0 DUP1 REVERT JUMPDEST POP GAS CALL ISZERO DUP1 ISZERO PUSH2 0x33C9 JUMPI RETURNDATASIZE PUSH1 0x0 DUP1 RETURNDATACOPY RETURNDATASIZE PUSH1 0x0 REVERT JUMPDEST POP POP POP POP POP POP POP POP JUMP JUMPDEST PUSH1 0x0 PUSH2 0x33DD PUSH2 0x2A64 JUMP JUMPDEST PUSH2 0xFFFF DUP6 AND PUSH1 0x0 SWAP1 DUP2 MSTORE PUSH1 0x20 SWAP2 SWAP1 SWAP2 MSTORE PUSH1 0x40 SWAP1 KECCAK256 DUP1 SLOAD SWAP1 SWAP2 POP PUSH5 0xFFFFFFFFFF AND TIMESTAMP EQ PUSH2 0x3408 JUMPI PUSH1 0x0 DUP1 REVERT JUMPDEST DUP1 SLOAD PUSH1 0x0 SWAP1 PUSH2 0x3427 SWAP1 PUSH1 0x1 PUSH1 0x28 SHL SWAP1 DIV PUSH1 0x1 PUSH1 0x1 PUSH1 0x58 SHL SUB AND DUP6 PUSH2 0xEF6 JUMP JUMPDEST DUP3 SLOAD SWAP1 SWAP2 POP PUSH1 0x0 SWAP1 PUSH2 0x3449 SWAP1 PUSH1 0x1 PUSH1 0x80 SHL SWAP1 DIV PUSH1 0x1 PUSH1 0x1 PUSH1 0x58 SHL SUB AND DUP6 PUSH2 0xEF6 JUMP JUMPDEST SWAP1 POP DUP1 PUSH3 0x4C4B40 SGT ISZERO PUSH2 0x345B JUMPI PUSH1 0x0 DUP1 REVERT JUMPDEST PUSH2 0x346C PUSH2 0x3467 DUP3 PUSH2 0x206A JUMP JUMPDEST PUSH2 0x3B30 JUMP JUMPDEST DUP4 SLOAD PUSH1 0x1 PUSH1 0x1 PUSH1 0x58 SHL SUB SWAP2 SWAP1 SWAP2 AND PUSH1 0x1 PUSH1 0x80 SHL MUL PUSH11 0xFFFFFFFFFFFFFFFFFFFFFF PUSH1 0x80 SHL NOT SWAP1 SWAP2 AND OR DUP4 SSTORE PUSH2 0x34A2 PUSH2 0x3467 DUP4 PUSH2 0x206A JUMP JUMPDEST DUP4 SLOAD PUSH1 0x1 PUSH1 0x1 PUSH1 0x58 SHL SUB SWAP2 SWAP1 SWAP2 AND PUSH1 0x1 PUSH1 0x28 SHL MUL PUSH16 0xFFFFFFFFFFFFFFFFFFFFFF0000000000 NOT SWAP1 SWAP2 AND OR DUP4 SSTORE PUSH2 0x697 DUP4 PUSH2 0x3B8A JUMP JUMPDEST PUSH1 0x0 PUSH2 0x34E1 PUSH2 0x3C55 JUMP JUMPDEST PUSH1 0x1 PUSH1 0x1 PUSH1 0xA0 SHL SUB DUP5 AND PUSH1 0x0 SWAP1 DUP2 MSTORE PUSH1 0x20 DUP3 SWAP1 MSTORE PUSH1 0x40 SWAP1 KECCAK256 SLOAD SWAP1 SWAP2 POP PUSH2 0x350A PUSH2 0x1BAC DUP3 DUP6 PUSH2 0xEF6 JUMP JUMPDEST PUSH1 0x1 PUSH1 0x1 PUSH1 0xA0 SHL SUB SWAP1 SWAP5 AND PUSH1 0x0 SWAP1 DUP2 MSTORE PUSH1 0x20 SWAP3 SWAP1 SWAP3 MSTORE POP PUSH1 0x40 SWAP1 KECCAK256 SWAP2 SWAP1 SWAP2 SSTORE POP JUMP JUMPDEST PUSH1 0x0 PUSH2 0x3536 PUSH2 0x3C55 JUMP JUMPDEST DUP4 MLOAD PUSH1 0x1 PUSH1 0x1 PUSH1 0xA0 SHL SUB AND PUSH1 0x0 SWAP1 DUP2 MSTORE PUSH1 0x20 DUP3 SWAP1 MSTORE PUSH1 0x40 SWAP1 KECCAK256 SLOAD SWAP1 SWAP2 POP DUP1 DUP4 GT PUSH2 0x3561 JUMPI POP POP PUSH2 0x2141 JUMP JUMPDEST PUSH1 0x0 PUSH2 0x356C DUP7 PUSH2 0x3995 JUMP JUMPDEST SWAP1 POP PUSH1 0x0 DUP2 PUSH1 0x1 PUSH1 0x1 PUSH1 0xA0 SHL SUB AND PUSH4 0xB5E4DA23 DUP5 DUP8 SUB PUSH1 0x40 MLOAD DUP3 PUSH4 0xFFFFFFFF AND PUSH1 0xE0 SHL DUP2 MSTORE PUSH1 0x4 ADD PUSH2 0x359E SWAP2 SWAP1 PUSH2 0x5AF6 JUMP JUMPDEST PUSH1 0x0 PUSH1 0x40 MLOAD DUP1 DUP4 SUB DUP2 DUP7 DUP1 EXTCODESIZE ISZERO DUP1 ISZERO PUSH2 0x35B6 JUMPI PUSH1 0x0 DUP1 REVERT JUMPDEST POP GAS STATICCALL ISZERO DUP1 ISZERO PUSH2 0x35CA JUMPI RETURNDATASIZE PUSH1 0x0 DUP1 RETURNDATACOPY RETURNDATASIZE PUSH1 0x0 REVERT JUMPDEST POP POP POP POP PUSH1 0x40 MLOAD RETURNDATASIZE PUSH1 0x0 DUP3 RETURNDATACOPY PUSH1 0x1F RETURNDATASIZE SWAP1 DUP2 ADD PUSH1 0x1F NOT AND DUP3 ADD PUSH1 0x40 MSTORE PUSH2 0x35F2 SWAP2 SWAP1 DUP2 ADD SWAP1 PUSH2 0x5299 JUMP JUMPDEST SWAP1 POP PUSH1 0x0 PUSH2 0x3600 DUP8 DUP4 PUSH2 0x3C62 JUMP JUMPDEST SWAP2 POP PUSH2 0x360E SWAP1 POP DUP5 DUP3 PUSH2 0x3AD0 JUMP JUMPDEST DUP7 GT ISZERO PUSH2 0x33C9 JUMPI PUSH1 0x0 DUP1 REVERT JUMPDEST PUSH1 0x0 DUP1 PUSH2 0x3625 PUSH2 0x3E79 JUMP JUMPDEST PUSH1 0x0 SWAP4 DUP5 MSTORE PUSH1 0x20 MSTORE POP POP PUSH1 0x40 SWAP1 KECCAK256 SLOAD PUSH1 0x1 PUSH1 0x1 PUSH1 0xA0 SHL SUB AND SWAP1 JUMP JUMPDEST PUSH1 0x0 DUP1 PUSH1 0x0 PUSH2 0x364F DUP7 DUP6 PUSH2 0x3E86 JUMP JUMPDEST POP SWAP2 POP SWAP2 POP PUSH1 0x0 PUSH2 0x365E PUSH2 0x3F1C JUMP JUMPDEST PUSH1 0x1 PUSH1 0x1 PUSH1 0xA0 SHL SUB DUP9 AND PUSH1 0x0 SWAP1 DUP2 MSTORE PUSH1 0x20 DUP3 SWAP1 MSTORE PUSH1 0x40 DUP2 KECCAK256 SWAP2 SWAP3 POP PUSH2 0x3683 DUP6 DUP10 PUSH2 0xEF6 JUMP JUMPDEST SWAP1 POP DUP1 PUSH1 0x0 SGT ISZERO DUP1 ISZERO PUSH2 0x369C JUMPI POP PUSH1 0x1 PUSH1 0x1 PUSH1 0x60 SHL SUB DUP2 LT JUMPDEST PUSH2 0x36A5 JUMPI PUSH1 0x0 DUP1 REVERT JUMPDEST DUP2 SLOAD PUSH12 0xFFFFFFFFFFFFFFFFFFFFFFFF NOT AND PUSH1 0x1 PUSH1 0x1 PUSH1 0x60 SHL SUB DUP3 AND OR PUSH16 0xFFFFFFFFFFFFFFFFFFFFFFFFFFFFFFFF PUSH1 0x60 SHL NOT AND PUSH1 0x1 PUSH1 0x60 SHL PUSH1 0x1 PUSH1 0x1 PUSH1 0x80 SHL SUB DUP7 AND MUL OR DUP3 SSTORE PUSH4 0xFFFFFFFF DUP8 LT PUSH2 0x36FA JUMPI PUSH1 0x0 DUP1 REVERT JUMPDEST POP DUP1 SLOAD PUSH4 0xFFFFFFFF DUP8 AND PUSH1 0x1 PUSH1 0xE0 SHL MUL PUSH1 0x1 PUSH1 0x1 PUSH1 0xE0 SHL SUB SWAP1 SWAP2 AND OR SWAP1 SSTORE POP SWAP2 POP POP SWAP4 SWAP3 POP POP POP JUMP JUMPDEST PUSH1 0xE0 DUP5 ADD MLOAD PUSH1 0x0 SWAP1 ISZERO PUSH2 0x37E4 JUMPI PUSH20 0x0 PUSH4 0xE0C01A72 DUP6 PUSH2 0x3758 DUP9 PUSH1 0x40 ADD MLOAD PUSH2 0x206A JUMP JUMPDEST DUP9 PUSH1 0xE0 ADD MLOAD DUP10 PUSH2 0x100 ADD MLOAD PUSH1 0x40 MLOAD DUP6 PUSH4 0xFFFFFFFF AND PUSH1 0xE0 SHL DUP2 MSTORE PUSH1 0x4 ADD PUSH2 0x3782 SWAP5 SWAP4 SWAP3 SWAP2 SWAP1 PUSH2 0x58F4 JUMP JUMPDEST PUSH1 0x20 PUSH1 0x40 MLOAD DUP1 DUP4 SUB DUP2 DUP7 DUP1 EXTCODESIZE ISZERO DUP1 ISZERO PUSH2 0x379A JUMPI PUSH1 0x0 DUP1 REVERT JUMPDEST POP GAS DELEGATECALL ISZERO DUP1 ISZERO PUSH2 0x37AE JUMPI RETURNDATASIZE PUSH1 0x0 DUP1 RETURNDATACOPY RETURNDATASIZE PUSH1 0x0 REVERT JUMPDEST POP POP POP POP PUSH1 0x40 MLOAD RETURNDATASIZE PUSH1 0x1F NOT PUSH1 0x1F DUP3 ADD AND DUP3 ADD DUP1 PUSH1 0x40 MSTORE POP DUP2 ADD SWAP1 PUSH2 0x37D2 SWAP2 SWAP1 PUSH2 0x53E1 JUMP JUMPDEST PUSH1 0x0 PUSH1 0xE0 DUP8 ADD DUP2 SWAP1 MSTORE PUSH2 0x100 DUP8 ADD MSTORE SWAP1 POP JUMPDEST PUSH2 0x3826 PUSH2 0x381F DUP7 PUSH2 0x100 ADD MLOAD PUSH2 0x3819 PUSH8 0xDE0B6B3A7640000 PUSH2 0x3813 DUP9 PUSH2 0x380D DUP13 PUSH1 0x40 ADD MLOAD PUSH2 0x206A JUMP JUMPDEST SWAP1 PUSH2 0x31A7 JUMP JUMPDEST SWAP1 PUSH2 0x3F29 JUMP JUMPDEST SWAP1 PUSH2 0x32E2 JUMP JUMPDEST DUP3 SWAP1 PUSH2 0x3AD0 JUMP JUMPDEST SWAP1 POP PUSH2 0x383E PUSH8 0xDE0B6B3A7640000 PUSH2 0x3813 DUP5 DUP7 PUSH2 0x31A7 JUMP JUMPDEST DUP6 PUSH2 0x100 ADD DUP2 DUP2 MSTORE POP POP SWAP5 SWAP4 POP POP POP POP JUMP JUMPDEST PUSH1 0x0 DUP1 PUSH2 0x385B PUSH2 0x1E0C JUMP JUMPDEST PUSH1 0x1 PUSH1 0x1 PUSH1 0xA0 SHL SUB DUP5 AND PUSH1 0x0 SWAP1 DUP2 MSTORE PUSH1 0x20 DUP3 SWAP1 MSTORE PUSH1 0x40 SWAP1 KECCAK256 DUP1 SLOAD SWAP2 SWAP3 POP SWAP1 PUSH1 0x1 PUSH1 0xF8 SHL SWAP1 DIV PUSH1 0xFF AND ISZERO PUSH2 0x38B7 JUMPI PUSH2 0x3890 PUSH2 0x3F48 JUMP JUMPDEST PUSH1 0x1 PUSH1 0x1 PUSH1 0xA0 SHL SUB DUP1 DUP7 AND PUSH1 0x0 SWAP1 DUP2 MSTORE PUSH1 0x20 SWAP3 SWAP1 SWAP3 MSTORE PUSH1 0x40 SWAP1 SWAP2 KECCAK256 SLOAD AND SWAP3 POP PUSH2 0xC98 SWAP2 POP POP JUMP JUMPDEST PUSH1 0x0 SWAP3 POP POP POP PUSH2 0xC98 JUMP JUMPDEST PUSH2 0x939 PUSH20 0xC5E91B01F9B23952821410BE7AA3C45B6429C670 DUP4 DUP4 PUSH2 0x3202 JUMP JUMPDEST PUSH1 0x0 PUSH4 0xFFFFFFFF DUP3 GT ISZERO PUSH2 0x1BDF JUMPI PUSH1 0x0 DUP1 REVERT JUMPDEST PUSH1 0x0 PUSH1 0x1 PUSH1 0x1 PUSH1 0x50 SHL SUB DUP3 GT ISZERO PUSH2 0x1BDF JUMPI PUSH1 0x0 DUP1 REVERT JUMPDEST PUSH1 0x0 PUSH2 0x3916 DUP7 DUP4 PUSH2 0x3F55 JUMP JUMPDEST SWAP1 POP PUSH2 0x10A1 DUP7 DUP7 DUP7 PUSH2 0x3928 DUP8 DUP7 PUSH2 0x3F94 JUMP JUMPDEST PUSH2 0x401B JUMP JUMPDEST PUSH1 0x0 PUSH11 0x7FFFFFFFFFFFFFFFFFFFFF NOT DUP3 SLT DUP1 ISZERO SWAP1 PUSH2 0x3956 JUMPI POP PUSH11 0x7FFFFFFFFFFFFFFFFFFFFF DUP3 SGT ISZERO JUMPDEST PUSH2 0x1BDF JUMPI PUSH1 0x0 DUP1 REVERT JUMPDEST PUSH1 0x0 DUP1 PUSH2 0xF0C PUSH1 0xD PUSH2 0x2A7F JUMP JUMPDEST PUSH8 0xFFFF000000000000 PUSH1 0x30 DUP5 SWAP1 SHL AND PUSH6 0xFFFFFFFFFF00 PUSH1 0x8 DUP5 SWAP1 SHL AND OR PUSH1 0xFF DUP3 AND OR SWAP4 SWAP3 POP POP POP JUMP JUMPDEST PUSH1 0x0 DUP1 PUSH2 0x39A0 PUSH2 0x4048 JUMP JUMPDEST PUSH2 0xFFFF SWAP4 SWAP1 SWAP4 AND PUSH1 0x0 SWAP1 DUP2 MSTORE PUSH1 0x20 SWAP4 SWAP1 SWAP4 MSTORE POP POP PUSH1 0x40 SWAP1 KECCAK256 SLOAD PUSH1 0x1 PUSH1 0x1 PUSH1 0xA0 SHL SUB AND SWAP1 JUMP JUMPDEST PUSH1 0x0 DUP1 PUSH1 0x0 DUP1 PUSH1 0x0 DUP1 PUSH2 0x39D8 DUP10 DUP9 PUSH2 0x4055 JUMP JUMPDEST DUP10 MLOAD SWAP1 SWAP6 POP SWAP2 SWAP4 POP SWAP2 POP PUSH1 0x0 SWAP1 PUSH2 0x39FF SWAP1 PUSH2 0x39F4 SWAP1 DUP12 SWAP1 PUSH2 0x32E2 JUMP JUMPDEST PUSH4 0x3B9ACA00 SWAP1 PUSH2 0x31A7 JUMP JUMPDEST SWAP1 POP PUSH2 0x3A39 PUSH2 0x3A2E PUSH4 0x1DA9C00 PUSH2 0x3A16 DUP6 DUP6 PUSH2 0x31A7 JUMP JUMPDEST DUP2 PUSH2 0x3A1D JUMPI INVALID JUMPDEST PUSH8 0xDE0B6B3A7640000 SWAP2 SWAP1 DIV PUSH2 0x3AD0 JUMP JUMPDEST PUSH1 0xE0 DUP11 ADD MLOAD SWAP1 PUSH2 0x3AFF JUMP JUMPDEST SWAP7 POP PUSH2 0x3A5B PUSH2 0x3A50 PUSH4 0x1DA9C00 PUSH2 0x3A16 DUP8 DUP6 PUSH2 0x31A7 JUMP JUMPDEST PUSH1 0xC0 DUP11 ADD MLOAD SWAP1 PUSH2 0x3AFF JUMP JUMPDEST SWAP6 POP DUP2 DUP4 EQ ISZERO PUSH2 0x3A72 JUMPI POP PUSH1 0x0 SWAP4 POP PUSH2 0x3AC7 SWAP2 POP POP JUMP JUMPDEST PUSH1 0x0 PUSH2 0x3A94 PUSH2 0x3A89 PUSH4 0x1DA9C00 PUSH2 0x3A16 DUP8 DUP7 PUSH2 0x31A7 JUMP JUMPDEST PUSH1 0xE0 DUP12 ADD MLOAD SWAP1 PUSH2 0x3AFF JUMP JUMPDEST SWAP1 POP PUSH1 0x0 PUSH2 0x3AA2 DUP10 DUP4 PUSH2 0x32E2 JUMP JUMPDEST SWAP1 POP PUSH2 0x3ABF DUP9 PUSH2 0x3813 DUP4 DUP14 PUSH1 0x40 ADD MLOAD PUSH2 0x31A7 SWAP1 SWAP2 SWAP1 PUSH4 0xFFFFFFFF AND JUMP JUMPDEST SWAP7 POP POP POP POP POP POP JUMPDEST SWAP4 POP SWAP4 POP SWAP4 POP SWAP4 JUMP JUMPDEST PUSH1 0x0 DUP3 DUP3 ADD DUP4 DUP2 LT ISZERO PUSH2 0xB59 JUMPI PUSH1 0x0 DUP1 REVERT JUMPDEST PUSH1 0x0 PUSH2 0xB59 PUSH2 0x3AF9 DUP5 PUSH8 0xDE0B6B3A7640000 PUSH2 0x31A7 JUMP JUMPDEST DUP4 PUSH2 0x3F29 JUMP JUMPDEST PUSH1 0x0 PUSH2 0xB59 PUSH2 0x3B0E DUP5 DUP5 PUSH2 0x31A7 JUMP JUMPDEST PUSH8 0xDE0B6B3A7640000 PUSH2 0x3F29 JUMP JUMPDEST PUSH1 0x0 PUSH5 0xFFFFFFFFFF DUP3 GT ISZERO PUSH2 0x1BDF JUMPI PUSH1 0x0 DUP1 REVERT JUMPDEST PUSH1 0x0 PUSH1 0x1 PUSH1 0x1 PUSH1 0x58 SHL SUB DUP3 GT ISZERO PUSH2 0x1BDF JUMPI PUSH1 0x0 DUP1 REVERT JUMPDEST PUSH1 0x0 DUP2 SLT ISZERO PUSH2 0x3B54 JUMPI PUSH1 0x0 DUP1 REVERT JUMPDEST PUSH1 0x0 PUSH2 0x3B62 PUSH2 0xFEE DUP5 PUSH2 0x40EF JUMP JUMPDEST SWAP1 POP PUSH2 0x3B6E DUP2 DUP4 PUSH2 0xEF6 JUMP JUMPDEST SWAP1 POP PUSH2 0x2141 PUSH2 0xFEE DUP5 DUP4 PUSH2 0x4148 JUMP JUMPDEST PUSH1 0x0 DUP1 PUSH2 0xF0C PUSH1 0x21 PUSH2 0x2A7F JUMP JUMPDEST DUP1 SLOAD PUSH1 0x2 DUP3 ADD SLOAD PUSH1 0x0 SWAP2 PUSH2 0x3BCC SWAP2 PUSH1 0x1 PUSH1 0x28 SHL SWAP1 SWAP2 DIV PUSH1 0x1 PUSH1 0x1 PUSH1 0x58 SHL SUB AND SWAP1 PUSH2 0x3BC6 SWAP1 PUSH1 0x1 PUSH1 0x1 PUSH1 0x50 SHL SUB PUSH1 0x1 PUSH1 0x50 SHL DUP3 DIV DUP2 AND SWAP2 AND PUSH2 0x16AD JUMP JUMPDEST SWAP1 PUSH2 0x16AD JUMP JUMPDEST PUSH1 0x1 DUP4 ADD SLOAD PUSH1 0x2 DUP5 ADD SLOAD SWAP2 SWAP3 POP PUSH1 0x0 SWAP2 PUSH2 0x3C06 SWAP2 PUSH1 0x1 PUSH1 0x1 PUSH1 0x58 SHL SUB AND SWAP1 PUSH2 0x3BC6 SWAP1 PUSH1 0x1 PUSH1 0x1 PUSH1 0x50 SHL SUB PUSH1 0x1 PUSH1 0xA0 SHL DUP3 DIV DUP2 AND SWAP2 AND PUSH2 0x16AD JUMP JUMPDEST DUP4 SLOAD SWAP1 SWAP2 POP PUSH1 0x0 SWAP1 PUSH2 0x3C3D SWAP1 PUSH1 0x1 PUSH1 0x1 PUSH1 0x1 PUSH1 0x58 SHL SUB PUSH1 0x1 PUSH1 0x80 SHL SWAP1 SWAP3 DIV DUP3 AND ADD AND PUSH15 0xC097CE7BC90715B34B9F1000000000 PUSH2 0x16AD JUMP JUMPDEST SWAP1 POP DUP1 PUSH2 0x3C4A DUP5 DUP5 PUSH2 0x2A98 JUMP JUMPDEST SGT ISZERO PUSH2 0xD4A JUMPI PUSH1 0x0 DUP1 REVERT JUMPDEST PUSH1 0x0 DUP1 PUSH2 0xF0C PUSH1 0x26 PUSH2 0x2A7F JUMP JUMPDEST PUSH1 0x0 DUP1 PUSH1 0x0 JUMPDEST DUP4 MLOAD DUP2 LT ISZERO PUSH2 0x3E71 JUMPI PUSH1 0x0 DUP5 DUP3 DUP2 MLOAD DUP2 LT PUSH2 0x3C7F JUMPI INVALID JUMPDEST PUSH1 0x20 MUL PUSH1 0x20 ADD ADD MLOAD SWAP1 POP PUSH1 0x0 DUP2 PUSH1 0x60 ADD MLOAD PUSH1 0x1 PUSH1 0x1 PUSH1 0xA0 SHL SUB AND PUSH4 0x70A08231 ADDRESS PUSH1 0x40 MLOAD DUP3 PUSH4 0xFFFFFFFF AND PUSH1 0xE0 SHL DUP2 MSTORE PUSH1 0x4 ADD PUSH2 0x3CBB SWAP2 SWAP1 PUSH2 0x571E JUMP JUMPDEST PUSH1 0x20 PUSH1 0x40 MLOAD DUP1 DUP4 SUB DUP2 DUP7 DUP1 EXTCODESIZE ISZERO DUP1 ISZERO PUSH2 0x3CD3 JUMPI PUSH1 0x0 DUP1 REVERT JUMPDEST POP GAS STATICCALL ISZERO DUP1 ISZERO PUSH2 0x3CE7 JUMPI RETURNDATASIZE PUSH1 0x0 DUP1 RETURNDATACOPY RETURNDATASIZE PUSH1 0x0 REVERT JUMPDEST POP POP POP POP PUSH1 0x40 MLOAD RETURNDATASIZE PUSH1 0x1F NOT PUSH1 0x1F DUP3 ADD AND DUP3 ADD DUP1 PUSH1 0x40 MSTORE POP DUP2 ADD SWAP1 PUSH2 0x3D0B SWAP2 SWAP1 PUSH2 0x53E1 JUMP JUMPDEST SWAP1 POP PUSH1 0x0 PUSH2 0x3D19 DUP9 ADDRESS PUSH2 0x41BC JUMP JUMPDEST SWAP1 POP PUSH1 0x0 JUMPDEST DUP4 MLOAD MLOAD DUP2 LT ISZERO PUSH2 0x3D75 JUMPI PUSH2 0x3D64 DUP5 PUSH1 0x0 ADD MLOAD DUP3 DUP2 MLOAD DUP2 LT PUSH2 0x3D3B JUMPI INVALID JUMPDEST PUSH1 0x20 MUL PUSH1 0x20 ADD ADD MLOAD PUSH1 0x0 DUP7 PUSH1 0x20 ADD MLOAD DUP5 DUP2 MLOAD DUP2 LT PUSH2 0x3D55 JUMPI INVALID JUMPDEST PUSH1 0x20 MUL PUSH1 0x20 ADD ADD MLOAD PUSH1 0x1 PUSH2 0x4266 JUMP JUMPDEST PUSH2 0x3D6D JUMPI PUSH1 0x1 SWAP7 POP JUMPDEST PUSH1 0x1 ADD PUSH2 0x3D1E JUMP JUMPDEST POP PUSH1 0x0 PUSH2 0x3D82 DUP10 ADDRESS PUSH2 0x41BC JUMP JUMPDEST SWAP1 POP PUSH1 0x0 PUSH2 0x3D90 DUP3 DUP5 PUSH2 0x32E2 JUMP JUMPDEST SWAP1 POP DUP1 DUP6 PUSH1 0x40 ADD MLOAD GT ISZERO PUSH2 0x3DA3 JUMPI PUSH1 0x0 DUP1 REVERT JUMPDEST PUSH1 0x60 DUP6 ADD MLOAD PUSH1 0x40 MLOAD PUSH4 0x70A08231 PUSH1 0xE0 SHL DUP2 MSTORE PUSH1 0x0 SWAP2 PUSH1 0x1 PUSH1 0x1 PUSH1 0xA0 SHL SUB AND SWAP1 PUSH4 0x70A08231 SWAP1 PUSH2 0x3DD6 SWAP1 ADDRESS SWAP1 PUSH1 0x4 ADD PUSH2 0x571E JUMP JUMPDEST PUSH1 0x20 PUSH1 0x40 MLOAD DUP1 DUP4 SUB DUP2 DUP7 DUP1 EXTCODESIZE ISZERO DUP1 ISZERO PUSH2 0x3DEE JUMPI PUSH1 0x0 DUP1 REVERT JUMPDEST POP GAS STATICCALL ISZERO DUP1 ISZERO PUSH2 0x3E02 JUMPI RETURNDATASIZE PUSH1 0x0 DUP1 RETURNDATACOPY RETURNDATASIZE PUSH1 0x0 REVERT JUMPDEST POP POP POP POP PUSH1 0x40 MLOAD RETURNDATASIZE PUSH1 0x1F NOT PUSH1 0x1F DUP3 ADD AND DUP3 ADD DUP1 PUSH1 0x40 MSTORE POP DUP2 ADD SWAP1 PUSH2 0x3E26 SWAP2 SWAP1 PUSH2 0x53E1 JUMP JUMPDEST SWAP1 POP DUP5 DUP2 GT ISZERO PUSH2 0x3E35 JUMPI PUSH1 0x0 DUP1 REVERT JUMPDEST PUSH2 0x3E44 DUP7 PUSH1 0x60 ADD MLOAD DUP7 DUP4 PUSH2 0x44D4 JUMP JUMPDEST PUSH2 0x3E4E DUP9 DUP4 PUSH2 0x3AD0 JUMP JUMPDEST SWAP8 POP PUSH2 0x3E5F DUP12 PUSH1 0x0 ADD MLOAD DUP6 DUP6 PUSH2 0x44D4 JUMP JUMPDEST POP POP PUSH1 0x1 SWAP1 SWAP5 ADD SWAP4 POP PUSH2 0x3C68 SWAP3 POP POP POP JUMP JUMPDEST POP SWAP3 POP SWAP3 SWAP1 POP JUMP JUMPDEST PUSH1 0x0 DUP1 PUSH2 0xF0C PUSH1 0x3 PUSH2 0x2A7F JUMP JUMPDEST PUSH1 0x0 DUP1 PUSH1 0x0 PUSH2 0x3E94 DUP6 PUSH2 0x4551 JUMP JUMPDEST SWAP2 SWAP5 POP SWAP3 POP SWAP1 POP DUP1 DUP5 GT DUP1 ISZERO PUSH2 0x3EAA JUMPI POP PUSH1 0x0 DUP2 GT JUMPDEST DUP1 ISZERO PUSH2 0x3EB6 JUMPI POP PUSH1 0x0 DUP4 GT JUMPDEST ISZERO PUSH2 0x3F15 JUMPI PUSH1 0x0 PUSH2 0x3EC6 DUP7 PUSH2 0x147F JUMP JUMPDEST POP POP POP SWAP2 POP POP PUSH1 0x0 PUSH2 0x3EF1 PUSH2 0x3EE8 PUSH4 0x5F5E100 DUP5 PUSH2 0x31A7 SWAP1 SWAP2 SWAP1 PUSH4 0xFFFFFFFF AND JUMP JUMPDEST DUP5 DUP9 SUB DUP8 PUSH2 0x45AD JUMP JUMPDEST SWAP1 POP PUSH2 0x3EFD DUP5 DUP3 PUSH2 0x3AD0 JUMP JUMPDEST SWAP4 POP PUSH1 0x1 PUSH1 0x1 PUSH1 0x80 SHL SUB DUP5 LT PUSH2 0x3F12 JUMPI PUSH1 0x0 DUP1 REVERT JUMPDEST POP POP JUMPDEST SWAP3 POP SWAP3 POP SWAP3 JUMP JUMPDEST PUSH1 0x0 DUP1 PUSH2 0xF0C PUSH1 0x11 PUSH2 0x2A7F JUMP JUMPDEST PUSH1 0x0 DUP1 DUP3 GT PUSH2 0x3F37 JUMPI PUSH1 0x0 DUP1 REVERT JUMPDEST DUP2 DUP4 DUP2 PUSH2 0x3F40 JUMPI INVALID JUMPDEST DIV SWAP4 SWAP3 POP POP POP JUMP JUMPDEST PUSH1 0x0 DUP1 PUSH2 0xF0C PUSH1 0x12 PUSH2 0x2A7F JUMP JUMPDEST PUSH1 0x0 DUP1 DUP3 SLT ISZERO PUSH2 0x3F8E JUMPI PUSH2 0x3F89 PUSH1 0x1 PUSH2 0x3F83 DUP6 PUSH1 0x20 ADD MLOAD PUSH2 0xF5F DUP8 PUSH1 0x0 ADD MLOAD DUP8 PUSH2 0x16AD SWAP1 SWAP2 SWAP1 PUSH4 0xFFFFFFFF AND JUMP JUMPDEST SWAP1 PUSH2 0x2A98 JUMP JUMPDEST PUSH2 0xB59 JUMP JUMPDEST POP SWAP2 SWAP1 POP JUMP JUMPDEST PUSH1 0x0 DUP2 DUP4 EQ DUP1 PUSH2 0x3FB1 JUMPI POP PUSH1 0x0 DUP4 SLT ISZERO DUP1 ISZERO PUSH2 0x3FB1 JUMPI POP PUSH1 0x0 DUP3 SLT ISZERO JUMPDEST ISZERO PUSH2 0x3FBE JUMPI POP PUSH1 0x0 PUSH2 0xF0C JUMP JUMPDEST PUSH1 0x0 DUP4 SGT ISZERO DUP1 ISZERO PUSH2 0x3FCF JUMPI POP DUP2 PUSH1 0x0 SLT JUMPDEST ISZERO PUSH2 0x3FDB JUMPI POP DUP2 PUSH2 0xF0C JUMP JUMPDEST PUSH1 0x0 DUP3 SGT ISZERO DUP1 ISZERO PUSH2 0x3FEC JUMPI POP DUP3 PUSH1 0x0 SLT JUMPDEST ISZERO PUSH2 0x3FFA JUMPI PUSH2 0xF86 DUP3 PUSH2 0xF12 JUMP JUMPDEST PUSH1 0x0 DUP4 SGT ISZERO DUP1 ISZERO PUSH2 0x400C JUMPI POP PUSH1 0x0 DUP3 SGT ISZERO JUMPDEST ISZERO PUSH2 0x7B JUMPI PUSH2 0xF86 DUP4 DUP4 PUSH2 0x2A98 JUMP JUMPDEST DUP1 ISZERO PUSH2 0xD4A JUMPI DUP4 MLOAD PUSH1 0x20 DUP6 ADD MLOAD PUSH1 0x0 SWAP2 PUSH2 0x403A SWAP2 PUSH2 0xF5F SWAP1 DUP6 SWAP1 PUSH2 0x16AD JUMP JUMPDEST SWAP1 POP PUSH2 0x1DF5 DUP5 DUP5 DUP5 DUP5 PUSH2 0x45CF JUMP JUMPDEST PUSH1 0x0 DUP1 PUSH2 0xF0C PUSH1 0x1F PUSH2 0x2A7F JUMP JUMPDEST PUSH1 0x0 DUP1 PUSH1 0x0 DUP1 PUSH1 0x0 DUP6 PUSH1 0x20 ADD MLOAD GT ISZERO PUSH2 0x40A2 JUMPI PUSH2 0x409F PUSH2 0x4086 DUP7 PUSH1 0xC0 ADD MLOAD DUP8 PUSH1 0x20 ADD MLOAD PUSH2 0x31A7 SWAP1 SWAP2 SWAP1 PUSH4 0xFFFFFFFF AND JUMP JUMPDEST PUSH1 0xE0 DUP8 ADD MLOAD PUSH1 0x40 DUP9 ADD MLOAD PUSH2 0x4099 SWAP2 PUSH2 0x31A7 JUMP JUMPDEST SWAP1 PUSH2 0x470C JUMP JUMPDEST SWAP1 POP JUMPDEST PUSH1 0x0 PUSH2 0x40AD DUP8 PUSH2 0x471F JUMP JUMPDEST SWAP1 POP PUSH2 0x40B9 DUP2 DUP4 PUSH2 0x4752 JUMP JUMPDEST SWAP5 POP DUP2 ISZERO PUSH2 0x40D0 JUMPI PUSH2 0x40CD DUP2 DUP7 PUSH1 0x1 PUSH2 0x480B JUMP JUMPDEST SWAP4 POP JUMPDEST PUSH1 0x20 DUP7 ADD MLOAD ISZERO PUSH2 0x3F12 JUMPI PUSH2 0x40E4 DUP6 DUP4 PUSH2 0x487C JUMP JUMPDEST SWAP3 POP POP POP SWAP3 POP SWAP3 POP SWAP3 JUMP JUMPDEST PUSH1 0x0 DUP1 PUSH2 0x40FA PUSH2 0x31CE JUMP JUMPDEST PUSH1 0x1 PUSH1 0x1 PUSH1 0xA0 SHL SUB DUP6 AND PUSH1 0x0 SWAP1 DUP2 MSTORE PUSH1 0x20 DUP3 DUP2 MSTORE PUSH1 0x40 DUP1 DUP4 KECCAK256 PUSH2 0xFFFF DUP9 AND DUP5 MSTORE SWAP1 SWAP2 MSTORE DUP2 KECCAK256 DUP1 SLOAD PUSH1 0x1 PUSH1 0xA8 SHL SWAP1 DIV PUSH1 0xA SWAP1 DUP2 SIGNEXTEND SWAP1 SIGNEXTEND SWAP5 POP SWAP2 SWAP3 POP DUP4 SLT ISZERO PUSH2 0x4140 JUMPI PUSH1 0x0 DUP1 REVERT JUMPDEST POP POP SWAP3 SWAP2 POP POP JUMP JUMPDEST PUSH1 0x0 DUP2 SLT ISZERO PUSH2 0x4156 JUMPI PUSH1 0x0 DUP1 REVERT JUMPDEST PUSH1 0x0 PUSH2 0x4160 PUSH2 0x31CE JUMP JUMPDEST PUSH1 0x1 PUSH1 0x1 PUSH1 0xA0 SHL SUB DUP6 AND PUSH1 0x0 SWAP1 DUP2 MSTORE PUSH1 0x20 DUP3 DUP2 MSTORE PUSH1 0x40 DUP1 DUP4 KECCAK256 PUSH2 0xFFFF DUP9 AND DUP5 MSTORE SWAP1 SWAP2 MSTORE SWAP1 KECCAK256 SWAP1 SWAP2 POP PUSH2 0x4191 DUP4 PUSH2 0x392D JUMP JUMPDEST DUP2 SLOAD PUSH1 0xA SWAP2 SWAP1 SWAP2 SIGNEXTEND PUSH1 0x1 PUSH1 0x1 PUSH1 0x58 SHL SUB AND PUSH1 0x1 PUSH1 0xA8 SHL MUL PUSH1 0x1 PUSH1 0x1 PUSH1 0xA8 SHL SUB SWAP1 SWAP2 AND OR SWAP1 SSTORE POP POP POP POP JUMP JUMPDEST PUSH1 0x0 PUSH1 0x3 DUP4 PUSH1 0x60 ADD MLOAD PUSH1 0x5 DUP2 GT ISZERO PUSH2 0x41D0 JUMPI INVALID JUMPDEST EQ ISZERO PUSH2 0x41E7 JUMPI POP PUSH1 0x1 PUSH1 0x1 PUSH1 0xA0 SHL SUB DUP2 AND BALANCE PUSH2 0xF0C JUMP JUMPDEST DUP3 MLOAD PUSH1 0x40 MLOAD PUSH4 0x70A08231 PUSH1 0xE0 SHL DUP2 MSTORE PUSH1 0x1 PUSH1 0x1 PUSH1 0xA0 SHL SUB SWAP1 SWAP2 AND SWAP1 PUSH4 0x70A08231 SWAP1 PUSH2 0x4216 SWAP1 DUP6 SWAP1 PUSH1 0x4 ADD PUSH2 0x571E JUMP JUMPDEST PUSH1 0x20 PUSH1 0x40 MLOAD DUP1 DUP4 SUB DUP2 DUP7 DUP1 EXTCODESIZE ISZERO DUP1 ISZERO PUSH2 0x422E JUMPI PUSH1 0x0 DUP1 REVERT JUMPDEST POP GAS STATICCALL ISZERO DUP1 ISZERO PUSH2 0x4242 JUMPI RETURNDATASIZE PUSH1 0x0 DUP1 RETURNDATACOPY RETURNDATASIZE PUSH1 0x0 REVERT JUMPDEST POP POP POP POP PUSH1 0x40 MLOAD RETURNDATASIZE PUSH1 0x1F NOT PUSH1 0x1F DUP3 ADD AND DUP3 ADD DUP1 PUSH1 0x40 MSTORE POP DUP2 ADD SWAP1 PUSH2 0xF86 SWAP2 SWAP1 PUSH2 0x53E1 JUMP JUMPDEST PUSH1 0x0 DUP1 PUSH1 0x0 DUP7 PUSH1 0x1 PUSH1 0x1 PUSH1 0xA0 SHL SUB AND DUP7 DUP7 PUSH1 0x40 MLOAD DUP1 DUP3 DUP1 MLOAD SWAP1 PUSH1 0x20 ADD SWAP1 DUP1 DUP4 DUP4 JUMPDEST PUSH1 0x20 DUP4 LT PUSH2 0x42A6 JUMPI DUP1 MLOAD DUP3 MSTORE PUSH1 0x1F NOT SWAP1 SWAP3 ADD SWAP2 PUSH1 0x20 SWAP2 DUP3 ADD SWAP2 ADD PUSH2 0x4287 JUMP JUMPDEST PUSH1 0x1 DUP4 PUSH1 0x20 SUB PUSH2 0x100 EXP SUB DUP1 NOT DUP3 MLOAD AND DUP2 DUP5 MLOAD AND DUP1 DUP3 OR DUP6 MSTORE POP POP POP POP POP POP SWAP1 POP ADD SWAP2 POP POP PUSH1 0x0 PUSH1 0x40 MLOAD DUP1 DUP4 SUB DUP2 DUP6 DUP8 GAS CALL SWAP3 POP POP POP RETURNDATASIZE DUP1 PUSH1 0x0 DUP2 EQ PUSH2 0x4308 JUMPI PUSH1 0x40 MLOAD SWAP2 POP PUSH1 0x1F NOT PUSH1 0x3F RETURNDATASIZE ADD AND DUP3 ADD PUSH1 0x40 MSTORE RETURNDATASIZE DUP3 MSTORE RETURNDATASIZE PUSH1 0x0 PUSH1 0x20 DUP5 ADD RETURNDATACOPY PUSH2 0x430D JUMP JUMPDEST PUSH1 0x60 SWAP2 POP JUMPDEST POP SWAP2 POP SWAP2 POP DUP4 PUSH2 0x43B0 JUMPI DUP2 PUSH2 0x4321 DUP3 PUSH2 0x4895 JUMP JUMPDEST SWAP1 PUSH2 0x43AA JUMPI PUSH1 0x40 MLOAD PUSH3 0x461BCD PUSH1 0xE5 SHL DUP2 MSTORE PUSH1 0x4 ADD DUP1 DUP1 PUSH1 0x20 ADD DUP3 DUP2 SUB DUP3 MSTORE DUP4 DUP2 DUP2 MLOAD DUP2 MSTORE PUSH1 0x20 ADD SWAP2 POP DUP1 MLOAD SWAP1 PUSH1 0x20 ADD SWAP1 DUP1 DUP4 DUP4 PUSH1 0x0 JUMPDEST DUP4 DUP2 LT ISZERO PUSH2 0x436F JUMPI DUP2 DUP2 ADD MLOAD DUP4 DUP3 ADD MSTORE PUSH1 0x20 ADD PUSH2 0x4357 JUMP JUMPDEST POP POP POP POP SWAP1 POP SWAP1 DUP2 ADD SWAP1 PUSH1 0x1F AND DUP1 ISZERO PUSH2 0x439C JUMPI DUP1 DUP3 SUB DUP1 MLOAD PUSH1 0x1 DUP4 PUSH1 0x20 SUB PUSH2 0x100 EXP SUB NOT AND DUP2 MSTORE PUSH1 0x20 ADD SWAP2 POP JUMPDEST POP SWAP3 POP POP POP PUSH1 0x40 MLOAD DUP1 SWAP2 SUB SWAP1 REVERT JUMPDEST POP PUSH2 0x230B JUMP JUMPDEST DUP7 PUSH1 0x1 PUSH1 0x1 PUSH1 0xA0 SHL SUB AND PUSH32 0x3C7E398C5E91088CAE639370E35B25EA669D81FBDF0DEF5388E73661BC34E08E DUP8 DUP8 PUSH2 0x43E6 DUP6 PUSH2 0x4895 JUMP JUMPDEST PUSH1 0x40 MLOAD DUP1 DUP5 DUP2 MSTORE PUSH1 0x20 ADD DUP1 PUSH1 0x20 ADD DUP1 PUSH1 0x20 ADD DUP4 DUP2 SUB DUP4 MSTORE DUP6 DUP2 DUP2 MLOAD DUP2 MSTORE PUSH1 0x20 ADD SWAP2 POP DUP1 MLOAD SWAP1 PUSH1 0x20 ADD SWAP1 DUP1 DUP4 DUP4 PUSH1 0x0 JUMPDEST DUP4 DUP2 LT ISZERO PUSH2 0x442D JUMPI DUP2 DUP2 ADD MLOAD DUP4 DUP3 ADD MSTORE PUSH1 0x20 ADD PUSH2 0x4415 JUMP JUMPDEST POP POP POP POP SWAP1 POP SWAP1 DUP2 ADD SWAP1 PUSH1 0x1F AND DUP1 ISZERO PUSH2 0x445A JUMPI DUP1 DUP3 SUB DUP1 MLOAD PUSH1 0x1 DUP4 PUSH1 0x20 SUB PUSH2 0x100 EXP SUB NOT AND DUP2 MSTORE PUSH1 0x20 ADD SWAP2 POP JUMPDEST POP DUP4 DUP2 SUB DUP3 MSTORE DUP5 MLOAD DUP2 MSTORE DUP5 MLOAD PUSH1 0x20 SWAP2 DUP3 ADD SWAP2 DUP7 ADD SWAP1 DUP1 DUP4 DUP4 PUSH1 0x0 JUMPDEST DUP4 DUP2 LT ISZERO PUSH2 0x448D JUMPI DUP2 DUP2 ADD MLOAD DUP4 DUP3 ADD MSTORE PUSH1 0x20 ADD PUSH2 0x4475 JUMP JUMPDEST POP POP POP POP SWAP1 POP SWAP1 DUP2 ADD SWAP1 PUSH1 0x1F AND DUP1 ISZERO PUSH2 0x44BA JUMPI DUP1 DUP3 SUB DUP1 MLOAD PUSH1 0x1 DUP4 PUSH1 0x20 SUB PUSH2 0x100 EXP SUB NOT AND DUP2 MSTORE PUSH1 0x20 ADD SWAP2 POP JUMPDEST POP SWAP6 POP POP POP POP POP POP PUSH1 0x40 MLOAD DUP1 SWAP2 SUB SWAP1 LOG2 POP SWAP6 SWAP5 POP POP POP POP POP JUMP JUMPDEST PUSH1 0x0 PUSH2 0x44DE PUSH2 0x3C55 JUMP JUMPDEST PUSH1 0x1 PUSH1 0x1 PUSH1 0xA0 SHL SUB DUP6 AND PUSH1 0x0 SWAP1 DUP2 MSTORE PUSH1 0x20 DUP3 SWAP1 MSTORE PUSH1 0x40 SWAP1 KECCAK256 SLOAD SWAP1 SWAP2 POP DUP4 DUP2 GT ISZERO PUSH2 0x4507 JUMPI PUSH1 0x0 DUP1 REVERT JUMPDEST PUSH1 0x0 PUSH2 0x451E PUSH2 0x4515 DUP7 PUSH2 0x1BC9 JUMP JUMPDEST PUSH2 0x3F83 DUP7 PUSH2 0x1BC9 JUMP JUMPDEST SWAP1 POP PUSH2 0x452D PUSH2 0x1BAC DUP4 DUP4 PUSH2 0xEF6 JUMP JUMPDEST PUSH1 0x1 PUSH1 0x1 PUSH1 0xA0 SHL SUB SWAP1 SWAP7 AND PUSH1 0x0 SWAP1 DUP2 MSTORE PUSH1 0x20 SWAP4 SWAP1 SWAP4 MSTORE POP POP PUSH1 0x40 SWAP1 KECCAK256 SWAP3 SWAP1 SWAP3 SSTORE POP POP JUMP JUMPDEST PUSH1 0x0 DUP1 PUSH1 0x0 DUP1 PUSH2 0x455F PUSH2 0x3F1C JUMP JUMPDEST PUSH1 0x1 PUSH1 0x1 PUSH1 0xA0 SHL SUB SWAP6 SWAP1 SWAP6 AND PUSH1 0x0 SWAP1 DUP2 MSTORE PUSH1 0x20 SWAP6 SWAP1 SWAP6 MSTORE POP POP PUSH1 0x40 SWAP1 SWAP3 KECCAK256 SLOAD PUSH1 0x1 PUSH1 0x1 PUSH1 0x60 SHL SUB DUP2 AND SWAP4 PUSH1 0x1 PUSH1 0x60 SHL DUP3 DIV PUSH1 0x1 PUSH1 0x1 PUSH1 0x80 SHL SUB AND SWAP4 POP PUSH1 0x1 PUSH1 0xE0 SHL SWAP1 SWAP2 DIV PUSH4 0xFFFFFFFF AND SWAP2 POP JUMP JUMPDEST PUSH1 0x0 PUSH2 0xFEC DUP3 PUSH2 0x3813 PUSH4 0x1DA9C00 DUP2 DUP9 PUSH2 0x380D DUP10 PUSH8 0xDE0B6B3A7640000 PUSH2 0x31A7 JUMP JUMPDEST PUSH1 0x0 PUSH2 0x45D9 PUSH2 0x2A64 JUMP JUMPDEST PUSH2 0xFFFF DUP6 AND PUSH1 0x0 SWAP1 DUP2 MSTORE PUSH1 0x20 SWAP2 SWAP1 SWAP2 MSTORE PUSH1 0x40 SWAP1 KECCAK256 DUP1 SLOAD SWAP1 SWAP2 POP PUSH5 0xFFFFFFFFFF AND TIMESTAMP EQ PUSH2 0x4604 JUMPI PUSH1 0x0 DUP1 REVERT JUMPDEST DUP1 SLOAD PUSH1 0x1 PUSH1 0xF8 SHL SWAP1 DIV PUSH1 0xFF AND PUSH2 0x4619 JUMPI PUSH1 0x0 DUP1 REVERT JUMPDEST PUSH1 0x1 DUP2 ADD SLOAD PUSH1 0x0 SWAP1 PUSH2 0x4634 SWAP1 PUSH1 0x1 PUSH1 0x1 PUSH1 0x58 SHL SUB AND DUP6 PUSH2 0xEF6 JUMP JUMPDEST DUP3 SLOAD SWAP1 SWAP2 POP PUSH1 0x0 SWAP1 PUSH2 0x4656 SWAP1 PUSH1 0x1 PUSH1 0x28 SHL SWAP1 DIV PUSH1 0x1 PUSH1 0x1 PUSH1 0x58 SHL SUB AND DUP6 PUSH2 0xEF6 JUMP JUMPDEST SWAP1 POP DUP2 PUSH1 0x9 NOT SLT DUP1 ISZERO PUSH2 0x4669 JUMPI POP PUSH1 0x0 DUP3 SLT JUMPDEST ISZERO PUSH2 0x4673 JUMPI PUSH1 0x0 SWAP2 POP JUMPDEST DUP1 PUSH1 0x9 NOT SLT DUP1 ISZERO PUSH2 0x4684 JUMPI POP PUSH1 0x0 DUP2 SLT JUMPDEST ISZERO PUSH2 0x468D JUMPI POP PUSH1 0x0 JUMPDEST PUSH2 0x4699 PUSH2 0x3467 DUP4 PUSH2 0x206A JUMP JUMPDEST PUSH1 0x1 DUP5 ADD DUP1 SLOAD PUSH11 0xFFFFFFFFFFFFFFFFFFFFFF NOT AND PUSH1 0x1 PUSH1 0x1 PUSH1 0x58 SHL SUB SWAP3 SWAP1 SWAP3 AND SWAP2 SWAP1 SWAP2 OR SWAP1 SSTORE PUSH2 0x46CB PUSH2 0x3467 DUP3 PUSH2 0x206A JUMP JUMPDEST DUP4 SLOAD PUSH1 0x1 PUSH1 0x1 PUSH1 0x58 SHL SUB SWAP2 SWAP1 SWAP2 AND PUSH1 0x1 PUSH1 0x28 SHL MUL PUSH16 0xFFFFFFFFFFFFFFFFFFFFFF0000000000 NOT SWAP1 SWAP2 AND OR DUP4 SSTORE PUSH2 0x4703 DUP8 DUP8 DUP7 DUP9 PUSH2 0x499C JUMP JUMPDEST PUSH2 0x1476 DUP4 PUSH2 0x3B8A JUMP JUMPDEST PUSH1 0x0 PUSH2 0xB59 PUSH2 0x3AF9 DUP5 PUSH4 0x3B9ACA00 PUSH2 0x31A7 JUMP JUMPDEST PUSH2 0x4727 PUSH2 0x4DC3 JUMP JUMPDEST PUSH1 0x0 PUSH2 0x4731 PUSH2 0x4AA4 JUMP JUMPDEST PUSH2 0xFFFF DUP5 AND PUSH1 0x0 SWAP1 DUP2 MSTORE PUSH1 0x20 SWAP2 SWAP1 SWAP2 MSTORE PUSH1 0x40 DUP2 KECCAK256 SLOAD SWAP2 POP PUSH2 0xB59 SWAP1 DUP3 PUSH2 0x4AB1 JUMP JUMPDEST PUSH1 0x0 DUP1 DUP4 PUSH1 0x80 ADD MLOAD GT PUSH2 0x4764 JUMPI PUSH1 0x0 DUP1 REVERT JUMPDEST PUSH4 0x3B9ACA00 DUP3 GT ISZERO PUSH2 0x4775 JUMPI PUSH1 0x0 DUP1 REVERT JUMPDEST DUP3 MLOAD DUP3 GT PUSH2 0x4794 JUMPI DUP3 MLOAD PUSH1 0x40 DUP5 ADD MLOAD PUSH2 0xF86 SWAP2 SWAP1 PUSH2 0x3813 SWAP1 DUP6 SWAP1 PUSH2 0x31A7 JUMP JUMPDEST DUP3 PUSH1 0x20 ADD MLOAD DUP3 GT PUSH2 0x47D2 JUMPI PUSH1 0x40 DUP4 ADD MLOAD DUP4 MLOAD PUSH1 0x20 DUP6 ADD MLOAD PUSH1 0x60 DUP7 ADD MLOAD PUSH2 0xF86 SWAP4 SWAP3 PUSH2 0x47CC SWAP3 DUP2 SWAP1 SUB SWAP2 PUSH2 0x3813 SWAP2 DUP9 SUB SWAP1 DUP6 SWAP1 SUB PUSH2 0x31A7 JUMP JUMPDEST SWAP1 PUSH2 0x3AD0 JUMP JUMPDEST PUSH2 0xB59 DUP4 PUSH1 0x60 ADD MLOAD PUSH2 0x47CC DUP6 PUSH1 0x20 ADD MLOAD PUSH4 0x3B9ACA00 SUB PUSH2 0x3813 DUP8 PUSH1 0x60 ADD MLOAD DUP9 PUSH1 0x80 ADD MLOAD SUB DUP9 PUSH1 0x20 ADD MLOAD DUP9 SUB PUSH2 0x31A7 SWAP1 SWAP2 SWAP1 PUSH4 0xFFFFFFFF AND JUMP JUMPDEST PUSH1 0x0 DUP1 PUSH2 0x482A PUSH1 0x64 PUSH2 0x3813 DUP8 PUSH1 0xE0 ADD MLOAD DUP8 PUSH2 0x31A7 SWAP1 SWAP2 SWAP1 PUSH4 0xFFFFFFFF AND JUMP JUMPDEST SWAP1 POP DUP5 PUSH1 0xA0 ADD MLOAD DUP2 LT ISZERO PUSH2 0x483F JUMPI POP PUSH1 0xA0 DUP5 ADD MLOAD JUMPDEST DUP5 PUSH1 0xC0 ADD MLOAD DUP2 GT ISZERO PUSH2 0x4852 JUMPI POP PUSH1 0xC0 DUP5 ADD MLOAD JUMPDEST DUP3 ISZERO PUSH2 0x4862 JUMPI PUSH2 0x117A DUP5 DUP3 PUSH2 0x3AD0 JUMP JUMPDEST DUP4 DUP2 GT PUSH2 0x4871 JUMPI DUP1 DUP5 SUB PUSH2 0x117A JUMP JUMPDEST PUSH1 0x0 SWAP6 SWAP5 POP POP POP POP POP JUMP JUMPDEST PUSH1 0x0 PUSH2 0xB59 PUSH2 0x488B DUP5 DUP5 PUSH2 0x31A7 JUMP JUMPDEST PUSH4 0x3B9ACA00 PUSH2 0x3F29 JUMP JUMPDEST PUSH1 0x60 PUSH1 0x44 DUP3 MLOAD LT ISZERO PUSH2 0x48CB JUMPI POP PUSH1 0x40 DUP1 MLOAD DUP1 DUP3 ADD SWAP1 SWAP2 MSTORE PUSH1 0xD DUP2 MSTORE PUSH13 0x14DA5B195B9D0814995D995C9D PUSH1 0x9A SHL PUSH1 0x20 DUP3 ADD MSTORE PUSH2 0xC98 JUMP JUMPDEST PUSH1 0x4 DUP3 ADD DUP1 MLOAD SWAP1 SWAP3 PUSH1 0x24 ADD SWAP1 PUSH1 0x20 DUP2 LT ISZERO PUSH2 0x48E5 JUMPI PUSH1 0x0 DUP1 REVERT JUMPDEST DUP2 ADD SWAP1 DUP1 DUP1 MLOAD PUSH1 0x40 MLOAD SWAP4 SWAP3 SWAP2 SWAP1 DUP5 PUSH5 0x100000000 DUP3 GT ISZERO PUSH2 0x4905 JUMPI PUSH1 0x0 DUP1 REVERT JUMPDEST SWAP1 DUP4 ADD SWAP1 PUSH1 0x20 DUP3 ADD DUP6 DUP2 GT ISZERO PUSH2 0x491A JUMPI PUSH1 0x0 DUP1 REVERT JUMPDEST DUP3 MLOAD PUSH5 0x100000000 DUP2 GT DUP3 DUP3 ADD DUP9 LT OR ISZERO PUSH2 0x4934 JUMPI PUSH1 0x0 DUP1 REVERT JUMPDEST DUP3 MSTORE POP DUP2 MLOAD PUSH1 0x20 SWAP2 DUP3 ADD SWAP3 SWAP1 SWAP2 ADD SWAP1 DUP1 DUP4 DUP4 PUSH1 0x0 JUMPDEST DUP4 DUP2 LT ISZERO PUSH2 0x4961 JUMPI DUP2 DUP2 ADD MLOAD DUP4 DUP3 ADD MSTORE PUSH1 0x20 ADD PUSH2 0x4949 JUMP JUMPDEST POP POP POP POP SWAP1 POP SWAP1 DUP2 ADD SWAP1 PUSH1 0x1F AND DUP1 ISZERO PUSH2 0x498E JUMPI DUP1 DUP3 SUB DUP1 MLOAD PUSH1 0x1 DUP4 PUSH1 0x20 SUB PUSH2 0x100 EXP SUB NOT AND DUP2 MSTORE PUSH1 0x20 ADD SWAP2 POP JUMPDEST POP PUSH1 0x40 MSTORE POP POP POP SWAP1 POP SWAP2 SWAP1 POP JUMP JUMPDEST PUSH1 0x0 PUSH2 0x49A6 PUSH2 0x3B7D JUMP JUMPDEST PUSH2 0xFFFF DUP6 AND PUSH1 0x0 SWAP1 DUP2 MSTORE PUSH1 0x20 SWAP2 SWAP1 SWAP2 MSTORE PUSH1 0x40 DUP2 KECCAK256 SLOAD PUSH1 0x1 PUSH1 0x1 PUSH1 0xA0 SHL SUB AND SWAP2 POP PUSH2 0x49CE PUSH2 0x4BD0 JUMP JUMPDEST PUSH2 0xFFFF DUP7 AND PUSH1 0x0 SWAP1 DUP2 MSTORE PUSH1 0x20 SWAP2 SWAP1 SWAP2 MSTORE PUSH1 0x40 SWAP1 DUP2 SWAP1 KECCAK256 SLOAD SWAP1 MLOAD PUSH4 0xAD1C095D PUSH1 0xE0 SHL DUP2 MSTORE PUSH1 0x1 PUSH1 0x1 PUSH1 0xA0 SHL SUB SWAP1 SWAP2 AND SWAP2 POP DUP2 SWAP1 PUSH4 0xAD1C095D SWAP1 PUSH2 0x4A16 SWAP1 DUP10 SWAP1 DUP8 SWAP1 PUSH1 0x4 ADD PUSH2 0x57B5 JUMP JUMPDEST PUSH1 0x0 PUSH1 0x40 MLOAD DUP1 DUP4 SUB DUP2 PUSH1 0x0 DUP8 DUP1 EXTCODESIZE ISZERO DUP1 ISZERO PUSH2 0x4A30 JUMPI PUSH1 0x0 DUP1 REVERT JUMPDEST POP GAS CALL ISZERO DUP1 ISZERO PUSH2 0x4A44 JUMPI RETURNDATASIZE PUSH1 0x0 DUP1 RETURNDATACOPY RETURNDATASIZE PUSH1 0x0 REVERT JUMPDEST POP POP PUSH1 0x40 MLOAD PUSH4 0xAD1C095D PUSH1 0xE0 SHL DUP2 MSTORE PUSH1 0x1 PUSH1 0x1 PUSH1 0xA0 SHL SUB DUP6 AND SWAP3 POP PUSH4 0xAD1C095D SWAP2 POP PUSH2 0x4A76 SWAP1 DUP10 SWAP1 DUP9 SWAP1 PUSH1 0x4 ADD PUSH2 0x57B5 JUMP JUMPDEST PUSH1 0x0 PUSH1 0x40 MLOAD DUP1 DUP4 SUB DUP2 PUSH1 0x0 DUP8 DUP1 EXTCODESIZE ISZERO DUP1 ISZERO PUSH2 0x4A90 JUMPI PUSH1 0x0 DUP1 REVERT JUMPDEST POP GAS CALL ISZERO DUP1 ISZERO PUSH2 0x692 JUMPI RETURNDATASIZE PUSH1 0x0 DUP1 RETURNDATACOPY RETURNDATASIZE PUSH1 0x0 REVERT JUMPDEST PUSH1 0x0 DUP1 PUSH2 0xF0C PUSH1 0x1B PUSH2 0x2A7F JUMP JUMPDEST PUSH2 0x4AB9 PUSH2 0x4DC3 JUMP JUMPDEST PUSH1 0x64 PUSH4 0x3B9ACA00 DUP4 PUSH1 0xFF DUP7 AND PUSH1 0x20 DUP2 LT PUSH2 0x4ACF JUMPI INVALID JUMPDEST BYTE MUL DUP2 PUSH2 0x4AD8 JUMPI INVALID JUMPDEST DIV DUP2 MSTORE PUSH1 0x64 PUSH4 0x3B9ACA00 DUP4 PUSH1 0xFF DUP7 AND PUSH1 0x1 ADD PUSH1 0x20 DUP2 LT PUSH2 0x4AF4 JUMPI INVALID JUMPDEST BYTE MUL DUP2 PUSH2 0x4AFD JUMPI INVALID JUMPDEST DIV DUP2 PUSH1 0x20 ADD DUP2 DUP2 MSTORE POP POP PUSH2 0x4B22 DUP3 PUSH1 0x2 DUP6 PUSH1 0xFF AND ADD PUSH1 0x20 DUP2 LT PUSH2 0x4B1C JUMPI INVALID JUMPDEST BYTE PUSH2 0x4BDD JUMP JUMPDEST PUSH1 0x80 DUP3 ADD DUP2 SWAP1 MSTORE PUSH2 0x100 SWAP1 DUP4 PUSH1 0xFF DUP7 AND PUSH1 0x3 ADD PUSH1 0x20 DUP2 LT PUSH2 0x4B3F JUMPI INVALID JUMPDEST BYTE MUL DUP2 PUSH2 0x4B48 JUMPI INVALID JUMPDEST DIV PUSH1 0x40 DUP3 ADD MSTORE PUSH1 0x80 DUP2 ADD MLOAD PUSH2 0x100 SWAP1 DUP4 PUSH1 0xFF DUP7 AND PUSH1 0x4 ADD PUSH1 0x20 DUP2 LT PUSH2 0x4B69 JUMPI INVALID JUMPDEST BYTE MUL DUP2 PUSH2 0x4B72 JUMPI INVALID JUMPDEST DIV PUSH1 0x60 DUP3 ADD MSTORE PUSH3 0x7A120 DUP3 PUSH1 0xFF DUP6 AND PUSH1 0x5 ADD PUSH1 0x20 DUP2 LT PUSH2 0x4B8E JUMPI INVALID JUMPDEST BYTE MUL PUSH1 0xA0 DUP3 ADD MSTORE PUSH3 0x2625A0 DUP3 PUSH1 0xFF DUP6 AND PUSH1 0x6 ADD PUSH1 0x20 DUP2 LT PUSH2 0x4BAB JUMPI INVALID JUMPDEST BYTE MUL PUSH1 0xC0 DUP3 ADD MSTORE DUP2 PUSH1 0xFF DUP5 AND PUSH1 0x7 ADD PUSH1 0x20 DUP2 LT PUSH2 0x4BC4 JUMPI INVALID JUMPDEST BYTE PUSH1 0xE0 DUP3 ADD MSTORE SWAP3 SWAP2 POP POP JUMP JUMPDEST PUSH1 0x0 DUP1 PUSH2 0xF0C PUSH1 0x22 PUSH2 0x2A7F JUMP JUMPDEST PUSH1 0x0 DUP2 PUSH1 0xFF AND PUSH1 0x96 LT PUSH2 0x4BF8 JUMPI PUSH1 0xFF DUP3 AND PUSH3 0x2625A0 MUL PUSH2 0xC95 JUMP JUMPDEST POP PUSH1 0x95 NOT PUSH1 0xFF SWAP2 SWAP1 SWAP2 AND ADD PUSH3 0xE4E1C0 MUL PUSH4 0x165A0BC0 ADD SWAP1 JUMP JUMPDEST PUSH1 0x40 MLOAD DUP1 PUSH2 0x140 ADD PUSH1 0x40 MSTORE DUP1 PUSH1 0x0 PUSH2 0xFFFF AND DUP2 MSTORE PUSH1 0x20 ADD PUSH1 0x0 DUP2 MSTORE PUSH1 0x20 ADD PUSH1 0x0 DUP2 MSTORE PUSH1 0x20 ADD PUSH1 0x0 DUP2 MSTORE PUSH1 0x20 ADD PUSH1 0x0 DUP2 MSTORE PUSH1 0x20 ADD PUSH1 0x0 DUP2 MSTORE PUSH1 0x20 ADD PUSH1 0x0 DUP2 MSTORE PUSH1 0x20 ADD PUSH1 0x0 DUP2 MSTORE PUSH1 0x20 ADD PUSH1 0x0 DUP2 MSTORE PUSH1 0x20 ADD PUSH2 0x4C68 PUSH2 0x4D38 JUMP JUMPDEST SWAP1 MSTORE SWAP1 JUMP JUMPDEST PUSH1 0x40 DUP1 MLOAD PUSH1 0xC0 DUP2 ADD DUP3 MSTORE PUSH1 0x0 DUP1 DUP3 MSTORE PUSH1 0x20 DUP3 ADD DUP2 SWAP1 MSTORE SWAP2 DUP2 ADD DUP3 SWAP1 MSTORE PUSH1 0x60 DUP2 ADD DUP3 SWAP1 MSTORE PUSH1 0x80 DUP2 ADD DUP3 SWAP1 MSTORE PUSH1 0xA0 DUP2 ADD SWAP2 SWAP1 SWAP2 MSTORE SWAP1 JUMP JUMPDEST PUSH1 0x40 MLOAD DUP1 PUSH1 0x80 ADD PUSH1 0x40 MSTORE DUP1 PUSH1 0x60 DUP2 MSTORE PUSH1 0x20 ADD PUSH1 0x60 DUP2 MSTORE PUSH1 0x20 ADD PUSH1 0x0 DUP2 MSTORE PUSH1 0x20 ADD PUSH1 0x0 DUP2 MSTORE POP SWAP1 JUMP JUMPDEST PUSH1 0x40 MLOAD DUP1 PUSH1 0xC0 ADD PUSH1 0x40 MSTORE DUP1 PUSH1 0x0 PUSH2 0xFFFF AND DUP2 MSTORE PUSH1 0x20 ADD PUSH1 0x0 DUP2 MSTORE PUSH1 0x20 ADD PUSH1 0x0 DUP2 MSTORE PUSH1 0x20 ADD PUSH1 0x0 DUP2 MSTORE PUSH1 0x20 ADD PUSH1 0x0 DUP2 MSTORE PUSH1 0x20 ADD PUSH1 0x0 PUSH1 0x3 DUP2 GT ISZERO PUSH2 0x4C68 JUMPI INVALID JUMPDEST PUSH1 0x40 DUP1 MLOAD PUSH1 0xA0 DUP2 ADD DUP3 MSTORE PUSH1 0x0 DUP1 DUP3 MSTORE PUSH1 0x20 DUP3 ADD DUP2 SWAP1 MSTORE SWAP2 DUP2 ADD DUP3 SWAP1 MSTORE SWAP1 PUSH1 0x60 DUP3 ADD SWAP1 DUP2 MSTORE PUSH1 0x20 ADD PUSH1 0x0 DUP2 MSTORE POP SWAP1 JUMP JUMPDEST PUSH1 0x40 MLOAD DUP1 PUSH1 0x60 ADD PUSH1 0x40 MSTORE DUP1 PUSH1 0x0 DUP2 MSTORE PUSH1 0x20 ADD PUSH1 0x0 DUP2 MSTORE PUSH1 0x20 ADD PUSH1 0x0 DUP2 MSTORE POP SWAP1 JUMP JUMPDEST PUSH1 0x40 MLOAD DUP1 PUSH2 0x120 ADD PUSH1 0x40 MSTORE DUP1 PUSH1 0x0 DUP2 MSTORE PUSH1 0x20 ADD PUSH1 0x0 DUP2 MSTORE PUSH1 0x20 ADD PUSH1 0x0 DUP2 MSTORE PUSH1 0x20 ADD PUSH1 0x0 DUP2 MSTORE PUSH1 0x20 ADD PUSH1 0x0 DUP2 MSTORE PUSH1 0x20 ADD PUSH1 0x0 DUP2 MSTORE PUSH1 0x20 ADD PUSH1 0x0 DUP2 MSTORE PUSH1 0x20 ADD PUSH1 0x0 DUP2 MSTORE PUSH1 0x20 ADD PUSH1 0x0 DUP2 MSTORE POP SWAP1 JUMP JUMPDEST PUSH1 0x40 MLOAD DUP1 PUSH1 0x20 ADD PUSH1 0x40 MSTORE DUP1 PUSH1 0x1 SWAP1 PUSH1 0x20 DUP3 MUL DUP1 CALLDATASIZE DUP4 CALLDATACOPY POP SWAP2 SWAP3 SWAP2 POP POP JUMP JUMPDEST PUSH1 0x40 MLOAD DUP1 PUSH2 0x100 ADD PUSH1 0x40 MSTORE DUP1 PUSH1 0x0 DUP2 MSTORE PUSH1 0x20 ADD PUSH1 0x0 DUP2 MSTORE PUSH1 0x20 ADD PUSH1 0x0 DUP2 MSTORE PUSH1 0x20 ADD PUSH1 0x0 DUP2 MSTORE PUSH1 0x20 ADD PUSH1 0x0 DUP2 MSTORE PUSH1 0x20 ADD PUSH1 0x0 DUP2 MSTORE PUSH1 0x20 ADD PUSH1 0x0 DUP2 MSTORE PUSH1 0x20 ADD PUSH1 0x0 DUP2 MSTORE POP SWAP1 JUMP JUMPDEST DUP1 MLOAD PUSH2 0xC98 DUP2 PUSH2 0x5BCF JUMP JUMPDEST PUSH1 0x0 DUP3 PUSH1 0x1F DUP4 ADD SLT PUSH2 0x4E23 JUMPI DUP1 DUP2 REVERT JUMPDEST DUP2 MLOAD PUSH1 0x20 PUSH2 0x4E38 PUSH2 0x4E33 DUP4 PUSH2 0x5BB2 JUMP JUMPDEST PUSH2 0x5B8F JUMP JUMPDEST DUP3 DUP2 MSTORE DUP2 DUP2 ADD SWAP1 DUP6 DUP4 ADD DUP4 DUP6 MUL DUP8 ADD DUP5 ADD DUP9 LT ISZERO PUSH2 0x4E54 JUMPI DUP6 DUP7 REVERT JUMPDEST DUP6 JUMPDEST DUP6 DUP2 LT ISZERO PUSH2 0x4E7B JUMPI DUP2 MLOAD PUSH2 0x4E69 DUP2 PUSH2 0x5BCF JUMP JUMPDEST DUP5 MSTORE SWAP3 DUP5 ADD SWAP3 SWAP1 DUP5 ADD SWAP1 PUSH1 0x1 ADD PUSH2 0x4E56 JUMP JUMPDEST POP SWAP1 SWAP8 SWAP7 POP POP POP POP POP POP POP JUMP JUMPDEST PUSH1 0x0 PUSH1 0x1F DUP4 DUP2 DUP5 ADD SLT PUSH2 0x4E99 JUMPI DUP2 DUP3 REVERT JUMPDEST DUP3 MLOAD PUSH1 0x20 PUSH2 0x4EA9 PUSH2 0x4E33 DUP4 PUSH2 0x5BB2 JUMP JUMPDEST DUP3 DUP2 MSTORE DUP2 DUP2 ADD SWAP1 DUP7 DUP4 ADD DUP7 JUMPDEST DUP6 DUP2 LT ISZERO PUSH2 0x4F4D JUMPI DUP2 MLOAD DUP10 ADD DUP11 PUSH1 0x3F DUP3 ADD SLT PUSH2 0x4ECF JUMPI DUP9 DUP10 REVERT JUMPDEST DUP6 DUP2 ADD MLOAD PUSH1 0x1 PUSH1 0x1 PUSH1 0x40 SHL SUB DUP2 GT ISZERO PUSH2 0x4EE4 JUMPI INVALID JUMPDEST PUSH2 0x4EF5 DUP2 DUP11 ADD PUSH1 0x1F NOT AND DUP9 ADD PUSH2 0x5B8F JUMP JUMPDEST DUP2 DUP2 MSTORE PUSH1 0x40 DUP14 DUP2 DUP5 DUP7 ADD ADD GT ISZERO PUSH2 0x4F0A JUMPI DUP12 DUP13 REVERT JUMPDEST DUP12 JUMPDEST DUP4 DUP2 LT ISZERO PUSH2 0x4F27 JUMPI DUP5 DUP2 ADD DUP3 ADD MLOAD DUP4 DUP3 ADD DUP12 ADD MSTORE DUP10 ADD PUSH2 0x4F0C JUMP JUMPDEST DUP4 DUP2 GT ISZERO PUSH2 0x4F37 JUMPI DUP13 DUP11 DUP6 DUP6 ADD ADD MSTORE JUMPDEST POP POP DUP7 MSTORE POP POP SWAP3 DUP5 ADD SWAP3 SWAP1 DUP5 ADD SWAP1 PUSH1 0x1 ADD PUSH2 0x4EB5 JUMP JUMPDEST POP SWAP1 SWAP9 SWAP8 POP POP POP POP POP POP POP POP JUMP JUMPDEST PUSH1 0x0 DUP1 DUP4 PUSH1 0x1F DUP5 ADD SLT PUSH2 0x4F6C JUMPI DUP2 DUP3 REVERT JUMPDEST POP DUP2 CALLDATALOAD PUSH1 0x1 PUSH1 0x1 PUSH1 0x40 SHL SUB DUP2 GT ISZERO PUSH2 0x4F82 JUMPI DUP2 DUP3 REVERT JUMPDEST PUSH1 0x20 DUP4 ADD SWAP2 POP DUP4 PUSH1 0x20 DUP1 DUP4 MUL DUP6 ADD ADD GT ISZERO PUSH2 0x4F9C JUMPI PUSH1 0x0 DUP1 REVERT JUMPDEST SWAP3 POP SWAP3 SWAP1 POP JUMP JUMPDEST PUSH1 0x0 DUP3 PUSH1 0x1F DUP4 ADD SLT PUSH2 0x4FB3 JUMPI DUP1 DUP2 REVERT JUMPDEST DUP2 MLOAD PUSH1 0x20 PUSH2 0x4FC3 PUSH2 0x4E33 DUP4 PUSH2 0x5BB2 JUMP JUMPDEST DUP3 DUP2 MSTORE DUP2 DUP2 ADD SWAP1 DUP6 DUP4 ADD PUSH1 0xC0 DUP1 DUP7 MUL DUP9 ADD DUP6 ADD DUP10 LT ISZERO PUSH2 0x4FE1 JUMPI DUP7 DUP8 REVERT JUMPDEST DUP7 JUMPDEST DUP7 DUP2 LT ISZERO PUSH2 0x5072 JUMPI DUP2 DUP4 DUP12 SUB SLT ISZERO PUSH2 0x4FF9 JUMPI DUP8 DUP9 REVERT JUMPDEST PUSH1 0x40 DUP1 MLOAD DUP4 DUP2 ADD DUP2 DUP2 LT PUSH1 0x1 PUSH1 0x1 PUSH1 0x40 SHL SUB DUP3 GT OR ISZERO PUSH2 0x5015 JUMPI INVALID JUMPDEST DUP3 MSTORE DUP5 MLOAD PUSH2 0x5022 DUP2 PUSH2 0x5BF5 JUMP JUMPDEST DUP2 MSTORE DUP5 DUP9 ADD MLOAD DUP9 DUP3 ADD MSTORE DUP2 DUP6 ADD MLOAD SWAP2 DUP2 ADD SWAP2 SWAP1 SWAP2 MSTORE PUSH1 0x60 DUP1 DUP6 ADD MLOAD SWAP1 DUP3 ADD MSTORE PUSH1 0x80 DUP1 DUP6 ADD MLOAD SWAP1 DUP3 ADD MSTORE PUSH1 0xA0 SWAP1 PUSH2 0x5059 DUP3 DUP7 ADD PUSH2 0x50BB JUMP JUMPDEST SWAP2 DUP2 ADD SWAP2 SWAP1 SWAP2 MSTORE DUP6 MSTORE SWAP4 DUP6 ADD SWAP4 SWAP2 DUP2 ADD SWAP2 PUSH1 0x1 ADD PUSH2 0x4FE3 JUMP JUMPDEST POP SWAP2 SWAP9 SWAP8 POP POP POP POP POP POP POP POP JUMP JUMPDEST DUP1 MLOAD PUSH2 0xC98 DUP2 PUSH2 0x5BE7 JUMP JUMPDEST DUP1 MLOAD PUSH1 0x1 PUSH1 0x1 PUSH1 0x70 SHL SUB NOT DUP2 AND DUP2 EQ PUSH2 0xC98 JUMPI PUSH1 0x0 DUP1 REVERT JUMPDEST DUP1 MLOAD PUSH1 0x1 PUSH1 0x1 PUSH1 0xF8 SHL SUB NOT DUP2 AND DUP2 EQ PUSH2 0xC98 JUMPI PUSH1 0x0 DUP1 REVERT JUMPDEST DUP1 MLOAD PUSH1 0x4 DUP2 LT PUSH2 0xC98 JUMPI PUSH1 0x0 DUP1 REVERT JUMPDEST DUP1 MLOAD PUSH2 0xC98 DUP2 PUSH2 0x5BF5 JUMP JUMPDEST DUP1 MLOAD PUSH1 0xFF DUP2 AND DUP2 EQ PUSH2 0xC98 JUMPI PUSH1 0x0 DUP1 REVERT JUMPDEST PUSH1 0x0 DUP1 PUSH1 0x0 PUSH1 0x40 DUP5 DUP7 SUB SLT ISZERO PUSH2 0x50FA JUMPI DUP3 DUP4 REVERT JUMPDEST DUP4 CALLDATALOAD PUSH2 0x5105 DUP2 PUSH2 0x5BCF JUMP JUMPDEST SWAP3 POP PUSH1 0x20 DUP5 ADD CALLDATALOAD PUSH1 0x1 PUSH1 0x1 PUSH1 0x40 SHL SUB DUP2 GT ISZERO PUSH2 0x511F JUMPI DUP3 DUP4 REVERT JUMPDEST PUSH2 0x512B DUP7 DUP3 DUP8 ADD PUSH2 0x4F5B JUMP JUMPDEST SWAP5 SWAP8 SWAP1 SWAP7 POP SWAP4 SWAP5 POP POP POP POP JUMP JUMPDEST PUSH1 0x0 DUP1 PUSH1 0x0 DUP1 PUSH1 0x0 PUSH1 0x60 DUP7 DUP9 SUB SLT ISZERO PUSH2 0x514F JUMPI DUP3 DUP4 REVERT JUMPDEST DUP6 CALLDATALOAD PUSH2 0x515A DUP2 PUSH2 0x5BCF JUMP JUMPDEST SWAP5 POP PUSH1 0x20 DUP7 ADD CALLDATALOAD PUSH1 0x1 PUSH1 0x1 PUSH1 0x40 SHL SUB DUP1 DUP3 GT ISZERO PUSH2 0x5175 JUMPI DUP5 DUP6 REVERT JUMPDEST PUSH2 0x5181 DUP10 DUP4 DUP11 ADD PUSH2 0x4F5B JUMP JUMPDEST SWAP1 SWAP7 POP SWAP5 POP PUSH1 0x40 DUP9 ADD CALLDATALOAD SWAP2 POP DUP1 DUP3 GT ISZERO PUSH2 0x5199 JUMPI DUP3 DUP4 REVERT JUMPDEST DUP2 DUP9 ADD SWAP2 POP DUP9 PUSH1 0x1F DUP4 ADD SLT PUSH2 0x51AC JUMPI DUP3 DUP4 REVERT JUMPDEST DUP2 CALLDATALOAD DUP2 DUP2 GT ISZERO PUSH2 0x51BA JUMPI DUP4 DUP5 REVERT JUMPDEST DUP10 PUSH1 0x20 DUP3 DUP6 ADD ADD GT ISZERO PUSH2 0x51CB JUMPI DUP4 DUP5 REVERT JUMPDEST SWAP7 SWAP10 SWAP6 SWAP9 POP SWAP4 SWAP7 POP PUSH1 0x20 ADD SWAP5 SWAP4 SWAP3 POP POP POP JUMP JUMPDEST PUSH1 0x0 DUP1 PUSH1 0x0 PUSH1 0x40 DUP5 DUP7 SUB SLT ISZERO PUSH2 0x51F2 JUMPI DUP1 DUP2 REVERT JUMPDEST DUP4 CALLDATALOAD PUSH2 0x51FD DUP2 PUSH2 0x5BCF JUMP JUMPDEST SWAP3 POP PUSH1 0x20 DUP5 ADD CALLDATALOAD PUSH1 0x1 PUSH1 0x1 PUSH1 0x40 SHL SUB DUP1 DUP3 GT ISZERO PUSH2 0x5218 JUMPI DUP3 DUP4 REVERT JUMPDEST DUP2 DUP7 ADD SWAP2 POP DUP7 PUSH1 0x1F DUP4 ADD SLT PUSH2 0x522B JUMPI DUP3 DUP4 REVERT JUMPDEST DUP2 CALLDATALOAD DUP2 DUP2 GT ISZERO PUSH2 0x5239 JUMPI DUP4 DUP5 REVERT JUMPDEST DUP8 PUSH1 0x20 PUSH1 0xC0 DUP4 MUL DUP6 ADD ADD GT ISZERO PUSH2 0x524D JUMPI DUP4 DUP5 REVERT JUMPDEST PUSH1 0x20 DUP4 ADD SWAP5 POP DUP1 SWAP4 POP POP POP POP SWAP3 POP SWAP3 POP SWAP3 JUMP JUMPDEST PUSH1 0x0 DUP1 PUSH1 0x0 PUSH1 0x40 DUP5 DUP7 SUB SLT ISZERO PUSH2 0x5274 JUMPI DUP1 DUP2 REVERT JUMPDEST DUP4 CALLDATALOAD PUSH2 0x527F DUP2 PUSH2 0x5BCF JUMP JUMPDEST SWAP3 POP PUSH1 0x20 DUP5 ADD CALLDATALOAD PUSH1 0x1 PUSH1 0x1 PUSH1 0x40 SHL SUB DUP2 GT ISZERO PUSH2 0x511F JUMPI DUP2 DUP3 REVERT JUMPDEST PUSH1 0x0 PUSH1 0x20 DUP1 DUP4 DUP6 SUB SLT ISZERO PUSH2 0x52AB JUMPI DUP2 DUP3 REVERT JUMPDEST DUP3 MLOAD PUSH1 0x1 PUSH1 0x1 PUSH1 0x40 SHL SUB DUP1 DUP3 GT ISZERO PUSH2 0x52C1 JUMPI DUP4 DUP5 REVERT JUMPDEST DUP2 DUP6 ADD SWAP2 POP DUP6 PUSH1 0x1F DUP4 ADD SLT PUSH2 0x52D4 JUMPI DUP4 DUP5 REVERT JUMPDEST DUP2 MLOAD PUSH2 0x52E2 PUSH2 0x4E33 DUP3 PUSH2 0x5BB2 JUMP JUMPDEST DUP2 DUP2 MSTORE DUP5 DUP2 ADD SWAP1 DUP5 DUP7 ADD DUP8 JUMPDEST DUP5 DUP2 LT ISZERO PUSH2 0x5397 JUMPI DUP2 MLOAD DUP8 ADD PUSH1 0x80 DUP2 DUP14 SUB PUSH1 0x1F NOT ADD SLT ISZERO PUSH2 0x530D JUMPI DUP10 DUP11 REVERT JUMPDEST PUSH1 0x40 DUP1 MLOAD PUSH1 0x80 DUP2 ADD DUP2 DUP2 LT DUP11 DUP3 GT OR ISZERO PUSH2 0x5323 JUMPI INVALID JUMPDEST DUP3 MSTORE DUP3 DUP12 ADD MLOAD DUP10 DUP2 GT ISZERO PUSH2 0x5335 JUMPI DUP13 DUP14 REVERT JUMPDEST PUSH2 0x5343 DUP16 DUP14 DUP4 DUP8 ADD ADD PUSH2 0x4E13 JUMP JUMPDEST DUP3 MSTORE POP DUP2 DUP4 ADD MLOAD DUP10 DUP2 GT ISZERO PUSH2 0x5356 JUMPI DUP13 DUP14 REVERT JUMPDEST PUSH2 0x5364 DUP16 DUP14 DUP4 DUP8 ADD ADD PUSH2 0x4E88 JUMP JUMPDEST DUP13 DUP4 ADD MSTORE POP PUSH1 0x60 DUP4 ADD MLOAD DUP3 DUP3 ADD MSTORE PUSH2 0x537E PUSH1 0x80 DUP5 ADD PUSH2 0x4E08 JUMP JUMPDEST PUSH1 0x60 DUP3 ADD MSTORE DUP7 MSTORE POP POP SWAP3 DUP8 ADD SWAP3 SWAP1 DUP8 ADD SWAP1 PUSH1 0x1 ADD PUSH2 0x52EE JUMP JUMPDEST POP SWAP1 SWAP10 SWAP9 POP POP POP POP POP POP POP POP POP JUMP JUMPDEST PUSH1 0x0 PUSH1 0x20 DUP3 DUP5 SUB SLT ISZERO PUSH2 0x53B7 JUMPI DUP1 DUP2 REVERT JUMPDEST DUP2 CALLDATALOAD PUSH2 0xB59 DUP2 PUSH2 0x5BE7 JUMP JUMPDEST PUSH1 0x0 PUSH1 0x20 DUP3 DUP5 SUB SLT ISZERO PUSH2 0x53D3 JUMPI DUP1 DUP2 REVERT JUMPDEST DUP2 CALLDATALOAD PUSH1 0x7 DUP2 LT PUSH2 0xB59 JUMPI DUP2 DUP3 REVERT JUMPDEST PUSH1 0x0 PUSH1 0x20 DUP3 DUP5 SUB SLT ISZERO PUSH2 0x53F2 JUMPI DUP1 DUP2 REVERT JUMPDEST POP MLOAD SWAP2 SWAP1 POP JUMP JUMPDEST PUSH1 0x0 DUP1 PUSH1 0x40 DUP4 DUP6 SUB SLT ISZERO PUSH2 0x540B JUMPI DUP2 DUP3 REVERT JUMPDEST DUP3 MLOAD SWAP2 POP PUSH1 0x20 DUP4 ADD MLOAD PUSH2 0x541D DUP2 PUSH2 0x5BE7 JUMP JUMPDEST DUP1 SWAP2 POP POP SWAP3 POP SWAP3 SWAP1 POP JUMP JUMPDEST PUSH1 0x0 PUSH1 0xC0 DUP3 DUP5 SUB SLT ISZERO PUSH2 0x5439 JUMPI DUP1 DUP2 REVERT JUMPDEST PUSH1 0x40 MLOAD PUSH1 0xC0 DUP2 ADD DUP2 DUP2 LT PUSH1 0x1 PUSH1 0x1 PUSH1 0x40 SHL SUB DUP3 GT OR ISZERO PUSH2 0x5455 JUMPI INVALID JUMPDEST PUSH1 0x40 MSTORE DUP3 MLOAD PUSH5 0xFFFFFFFFFF DUP2 AND DUP2 EQ PUSH2 0x546C JUMPI DUP3 DUP4 REVERT JUMPDEST DUP2 MSTORE PUSH2 0x547A PUSH1 0x20 DUP5 ADD PUSH2 0x50A3 JUMP JUMPDEST PUSH1 0x20 DUP3 ADD MSTORE PUSH2 0x548B PUSH1 0x40 DUP5 ADD PUSH2 0x50D5 JUMP JUMPDEST PUSH1 0x40 DUP3 ADD MSTORE PUSH2 0x549C PUSH1 0x60 DUP5 ADD PUSH2 0x50CA JUMP JUMPDEST PUSH1 0x60 DUP3 ADD MSTORE PUSH2 0x54AD PUSH1 0x80 DUP5 ADD PUSH2 0x508B JUMP JUMPDEST PUSH1 0x80 DUP3 ADD MSTORE PUSH2 0x54BE PUSH1 0xA0 DUP5 ADD PUSH2 0x5080 JUMP JUMPDEST PUSH1 0xA0 DUP3 ADD MSTORE SWAP4 SWAP3 POP POP POP JUMP JUMPDEST PUSH1 0x0 DUP1 PUSH1 0x40 DUP4 DUP6 SUB SLT ISZERO PUSH2 0x54DC JUMPI DUP2 DUP3 REVERT JUMPDEST DUP3 MLOAD PUSH1 0x1 PUSH1 0x1 PUSH1 0x40 SHL SUB DUP1 DUP3 GT ISZERO PUSH2 0x54F2 JUMPI DUP4 DUP5 REVERT JUMPDEST SWAP1 DUP5 ADD SWAP1 PUSH1 0x80 DUP3 DUP8 SUB SLT ISZERO PUSH2 0x5505 JUMPI DUP4 DUP5 REVERT JUMPDEST PUSH1 0x40 MLOAD PUSH1 0x80 DUP2 ADD DUP2 DUP2 LT DUP4 DUP3 GT OR ISZERO PUSH2 0x551A JUMPI INVALID JUMPDEST PUSH1 0x40 MSTORE DUP3 MLOAD DUP3 DUP2 GT ISZERO PUSH2 0x552B JUMPI DUP6 DUP7 REVERT JUMPDEST PUSH2 0x5537 DUP9 DUP3 DUP7 ADD PUSH2 0x4FA3 JUMP JUMPDEST DUP3 MSTORE POP PUSH1 0x20 DUP4 ADD MLOAD DUP3 DUP2 GT ISZERO PUSH2 0x554B JUMPI DUP6 DUP7 REVERT JUMPDEST PUSH2 0x5557 DUP9 DUP3 DUP7 ADD PUSH2 0x4FA3 JUMP JUMPDEST PUSH1 0x20 DUP4 ADD MSTORE POP PUSH1 0x40 DUP4 ADD MLOAD PUSH1 0x40 DUP3 ADD MSTORE PUSH1 0x60 DUP4 ADD MLOAD PUSH1 0x60 DUP3 ADD MSTORE DUP1 SWAP5 POP POP POP POP PUSH1 0x20 DUP4 ADD MLOAD SWAP1 POP SWAP3 POP SWAP3 SWAP1 POP JUMP JUMPDEST PUSH1 0x0 PUSH1 0x20 DUP3 DUP5 SUB SLT ISZERO PUSH2 0x5596 JUMPI DUP1 DUP2 REVERT JUMPDEST DUP2 CALLDATALOAD PUSH2 0xB59 DUP2 PUSH2 0x5BF5 JUMP JUMPDEST PUSH1 0x0 DUP1 PUSH1 0x40 DUP4 DUP6 SUB SLT ISZERO PUSH2 0x55B3 JUMPI DUP2 DUP3 REVERT JUMPDEST POP POP DUP1 MLOAD PUSH1 0x20 SWAP1 SWAP2 ADD MLOAD SWAP1 SWAP3 SWAP1 SWAP2 POP JUMP JUMPDEST DUP2 DUP4 MSTORE PUSH1 0x0 PUSH1 0x1 PUSH1 0x1 PUSH1 0xFB SHL SUB DUP4 GT ISZERO PUSH2 0x55DC JUMPI DUP1 DUP2 REVERT JUMPDEST PUSH1 0x20 DUP4 MUL DUP1 DUP4 PUSH1 0x20 DUP8 ADD CALLDATACOPY SWAP4 SWAP1 SWAP4 ADD PUSH1 0x20 ADD SWAP3 DUP4 MSTORE POP SWAP1 SWAP2 SWAP1 POP JUMP JUMPDEST PUSH1 0x0 DUP2 MLOAD DUP1 DUP5 MSTORE PUSH1 0x20 DUP1 DUP6 ADD SWAP5 POP DUP1 DUP5 ADD DUP4 JUMPDEST DUP4 DUP2 LT ISZERO PUSH2 0x5669 JUMPI DUP2 MLOAD DUP1 MLOAD PUSH2 0xFFFF AND DUP9 MSTORE DUP4 DUP2 ADD MLOAD DUP5 DUP10 ADD MSTORE PUSH1 0x40 DUP1 DUP3 ADD MLOAD SWAP1 DUP10 ADD MSTORE PUSH1 0x60 DUP1 DUP3 ADD MLOAD SWAP1 DUP10 ADD MSTORE PUSH1 0x80 DUP1 DUP3 ADD MLOAD SWAP1 DUP10 ADD MSTORE PUSH1 0xA0 SWAP1 DUP2 ADD MLOAD SWAP1 PUSH1 0x4 DUP3 LT PUSH2 0x5654 JUMPI INVALID JUMPDEST DUP9 ADD MSTORE PUSH1 0xC0 SWAP1 SWAP7 ADD SWAP6 SWAP1 DUP3 ADD SWAP1 PUSH1 0x1 ADD PUSH2 0x560B JUMP JUMPDEST POP SWAP5 SWAP6 SWAP5 POP POP POP POP POP JUMP JUMPDEST DUP1 MLOAD PUSH5 0xFFFFFFFFFF AND DUP3 MSTORE PUSH1 0x20 DUP1 DUP3 ADD MLOAD PUSH1 0x1 PUSH1 0x1 PUSH1 0xF8 SHL SUB NOT AND SWAP1 DUP4 ADD MSTORE PUSH1 0x40 DUP1 DUP3 ADD MLOAD PUSH1 0xFF AND SWAP1 DUP4 ADD MSTORE PUSH1 0x60 DUP1 DUP3 ADD MLOAD PUSH2 0xFFFF AND SWAP1 DUP4 ADD MSTORE PUSH1 0x80 DUP1 DUP3 ADD MLOAD PUSH1 0x1 PUSH1 0x1 PUSH1 0x70 SHL SUB NOT AND SWAP1 DUP4 ADD MSTORE PUSH1 0xA0 SWAP1 DUP2 ADD MLOAD ISZERO ISZERO SWAP2 ADD MSTORE JUMP JUMPDEST PUSH1 0x0 DUP2 MLOAD PUSH1 0x80 DUP5 MSTORE PUSH2 0x56E4 PUSH1 0x80 DUP6 ADD DUP3 PUSH2 0x55F8 JUMP JUMPDEST SWAP1 POP PUSH1 0x20 DUP4 ADD MLOAD DUP5 DUP3 SUB PUSH1 0x20 DUP7 ADD MSTORE PUSH2 0x56FD DUP3 DUP3 PUSH2 0x55F8 JUMP JUMPDEST SWAP2 POP POP PUSH1 0x40 DUP4 ADD MLOAD PUSH1 0x40 DUP6 ADD MSTORE PUSH1 0x60 DUP4 ADD MLOAD PUSH1 0x60 DUP6 ADD MSTORE DUP1 SWAP2 POP POP SWAP3 SWAP2 POP POP JUMP JUMPDEST PUSH1 0x1 PUSH1 0x1 PUSH1 0xA0 SHL SUB SWAP2 SWAP1 SWAP2 AND DUP2 MSTORE PUSH1 0x20 ADD SWAP1 JUMP JUMPDEST PUSH1 0x1 PUSH1 0x1 PUSH1 0xA0 SHL SUB DUP6 DUP2 AND DUP3 MSTORE DUP5 AND PUSH1 0x20 DUP3 ADD MSTORE PUSH1 0x60 PUSH1 0x40 DUP3 ADD DUP2 SWAP1 MSTORE DUP2 ADD DUP3 SWAP1 MSTORE PUSH1 0x0 DUP3 DUP5 PUSH1 0x80 DUP5 ADD CALLDATACOPY DUP2 DUP4 ADD PUSH1 0x80 SWAP1 DUP2 ADD SWAP2 SWAP1 SWAP2 MSTORE PUSH1 0x1F SWAP1 SWAP3 ADD PUSH1 0x1F NOT AND ADD ADD SWAP4 SWAP3 POP POP POP JUMP JUMPDEST PUSH1 0x1 PUSH1 0x1 PUSH1 0xA0 SHL SUB SWAP7 DUP8 AND DUP2 MSTORE SWAP5 DUP7 AND PUSH1 0x20 DUP7 ADD MSTORE SWAP3 DUP6 AND PUSH1 0x40 DUP6 ADD MSTORE SWAP1 DUP5 AND PUSH1 0x60 DUP5 ADD MSTORE DUP4 AND PUSH1 0x80 DUP4 ADD MSTORE SWAP1 SWAP2 AND PUSH1 0xA0 DUP3 ADD MSTORE PUSH1 0xC0 ADD SWAP1 JUMP JUMPDEST PUSH1 0x1 PUSH1 0x1 PUSH1 0xA0 SHL SUB SWAP3 SWAP1 SWAP3 AND DUP3 MSTORE PUSH1 0x20 DUP3 ADD MSTORE PUSH1 0x40 ADD SWAP1 JUMP JUMPDEST PUSH1 0x1 PUSH1 0x1 PUSH1 0xA0 SHL SUB DUP4 AND DUP2 MSTORE PUSH1 0xE0 DUP2 ADD PUSH2 0xB59 PUSH1 0x20 DUP4 ADD DUP5 PUSH2 0x5674 JUMP JUMPDEST PUSH1 0x1 PUSH1 0x1 PUSH1 0xA0 SHL SUB DUP5 AND DUP2 MSTORE PUSH1 0x0 PUSH2 0x100 PUSH2 0x5809 PUSH1 0x20 DUP5 ADD DUP7 PUSH2 0x5674 JUMP JUMPDEST DUP1 PUSH1 0xE0 DUP5 ADD MSTORE PUSH2 0x22C4 DUP2 DUP5 ADD DUP6 PUSH2 0x56CF JUMP JUMPDEST PUSH1 0x1 PUSH1 0x1 PUSH1 0xA0 SHL SUB SWAP4 SWAP1 SWAP4 AND DUP4 MSTORE PUSH2 0xFFFF SWAP2 SWAP1 SWAP2 AND PUSH1 0x20 DUP4 ADD MSTORE PUSH1 0x40 DUP3 ADD MSTORE PUSH1 0x60 ADD SWAP1 JUMP JUMPDEST PUSH1 0x1 PUSH1 0x1 PUSH1 0xA0 SHL SUB DUP7 AND DUP2 MSTORE PUSH2 0xFFFF DUP6 AND PUSH1 0x20 DUP3 ADD MSTORE PUSH1 0x80 PUSH1 0x40 DUP3 ADD DUP2 SWAP1 MSTORE PUSH1 0x0 SWAP1 PUSH2 0x586E SWAP1 DUP4 ADD DUP7 PUSH2 0x56CF JUMP JUMPDEST DUP3 DUP2 SUB PUSH1 0x60 DUP5 ADD MSTORE PUSH2 0x198F DUP2 DUP6 DUP8 PUSH2 0x55C4 JUMP JUMPDEST PUSH1 0x1 PUSH1 0x1 PUSH1 0xA0 SHL SUB SWAP7 SWAP1 SWAP7 AND DUP7 MSTORE PUSH2 0xFFFF SWAP5 SWAP1 SWAP5 AND PUSH1 0x20 DUP7 ADD MSTORE PUSH1 0x40 DUP6 ADD SWAP3 SWAP1 SWAP3 MSTORE PUSH1 0x60 DUP5 ADD MSTORE PUSH1 0x80 DUP4 ADD MSTORE PUSH1 0xA0 DUP3 ADD MSTORE PUSH1 0xC0 ADD SWAP1 JUMP JUMPDEST PUSH1 0x1 PUSH1 0x1 PUSH1 0xA0 SHL SUB DUP7 AND DUP2 MSTORE PUSH2 0xFFFF DUP6 AND PUSH1 0x20 DUP3 ADD MSTORE PUSH5 0xFFFFFFFFFF DUP5 AND PUSH1 0x40 DUP3 ADD MSTORE PUSH1 0x80 PUSH1 0x60 DUP3 ADD DUP2 SWAP1 MSTORE PUSH1 0x0 SWAP1 PUSH2 0x2588 SWAP1 DUP4 ADD DUP5 DUP7 PUSH2 0x55C4 JUMP JUMPDEST PUSH1 0x1 PUSH1 0x1 PUSH1 0xA0 SHL SUB SWAP5 SWAP1 SWAP5 AND DUP5 MSTORE PUSH1 0x20 DUP5 ADD SWAP3 SWAP1 SWAP3 MSTORE PUSH1 0x40 DUP4 ADD MSTORE PUSH1 0x60 DUP3 ADD MSTORE PUSH1 0x80 ADD SWAP1 JUMP JUMPDEST PUSH1 0x20 DUP1 DUP3 MSTORE PUSH1 0xF SWAP1 DUP3 ADD MSTORE PUSH15 0x4F76657220537570706C792043617 PUSH1 0x8C SHL PUSH1 0x40 DUP3 ADD MSTORE PUSH1 0x60 ADD SWAP1 JUMP JUMPDEST PUSH1 0x20 DUP1 DUP3 MSTORE PUSH1 0xC SWAP1 DUP3 ADD MSTORE PUSH12 0x155B985D5D1A1BDC9A5E9959 PUSH1 0xA2 SHL PUSH1 0x40 DUP3 ADD MSTORE PUSH1 0x60 ADD SWAP1 JUMP JUMPDEST PUSH1 0x20 DUP1 DUP3 MSTORE PUSH1 0xB SWAP1 DUP3 ADD MSTORE PUSH11 0x4554482042616C616E6365 PUSH1 0xA8 SHL PUSH1 0x40 DUP3 ADD MSTORE PUSH1 0x60 ADD SWAP1 JUMP JUMPDEST PUSH1 0x20 DUP1 DUP3 MSTORE PUSH1 0x6 SWAP1 DUP3 ADD MSTORE PUSH6 0x52656465656D PUSH1 0xD0 SHL PUSH1 0x40 DUP3 ADD MSTORE PUSH1 0x60 ADD SWAP1 JUMP JUMPDEST PUSH1 0x20 DUP1 DUP3 MSTORE PUSH1 0xF SWAP1 DUP3 ADD MSTORE PUSH15 0x4E6F205072696D6520426F72726F77 PUSH1 0x88 SHL PUSH1 0x40 DUP3 ADD MSTORE PUSH1 0x60 ADD SWAP1 JUMP JUMPDEST PUSH1 0x20 DUP1 DUP3 MSTORE PUSH1 0x10 SWAP1 DUP3 ADD MSTORE PUSH16 0x556E736F7274656420616374696F6E73 PUSH1 0x80 SHL PUSH1 0x40 DUP3 ADD MSTORE PUSH1 0x60 ADD SWAP1 JUMP JUMPDEST PUSH1 0x20 DUP1 DUP3 MSTORE DUP2 DUP2 ADD MSTORE PUSH32 0x446570726563617465643A20526564656D7074696F6E20746F2063546F6B656E PUSH1 0x40 DUP3 ADD MSTORE PUSH1 0x60 ADD SWAP1 JUMP JUMPDEST PUSH1 0x20 DUP1 DUP3 MSTORE PUSH1 0x1A SWAP1 DUP3 ADD MSTORE PUSH32 0x496E73756666696369656E7420746F6B656E2062616C616E6365000000000000 PUSH1 0x40 DUP3 ADD MSTORE PUSH1 0x60 ADD SWAP1 JUMP JUMPDEST PUSH1 0x20 DUP1 DUP3 MSTORE PUSH1 0x1A SWAP1 DUP3 ADD MSTORE PUSH32 0x496E76616C69642074726164657320666F72206163636F756E74000000000000 PUSH1 0x40 DUP3 ADD MSTORE PUSH1 0x60 ADD SWAP1 JUMP JUMPDEST PUSH1 0x20 DUP1 DUP3 MSTORE PUSH1 0xA SWAP1 DUP3 ADD MSTORE PUSH10 0x2732B390372A37B5B2B7 PUSH1 0xB1 SHL PUSH1 0x40 DUP3 ADD MSTORE PUSH1 0x60 ADD SWAP1 JUMP JUMPDEST PUSH1 0x20 DUP1 DUP3 MSTORE PUSH1 0x14 SWAP1 DUP3 ADD MSTORE PUSH20 0x125B9CDD59999A58DA595B9D0819195C1BDCDA5D PUSH1 0x62 SHL PUSH1 0x40 DUP3 ADD MSTORE PUSH1 0x60 ADD SWAP1 JUMP JUMPDEST SWAP1 DUP2 MSTORE PUSH1 0x20 ADD SWAP1 JUMP JUMPDEST SWAP3 DUP4 MSTORE PUSH1 0x20 DUP4 ADD SWAP2 SWAP1 SWAP2 MSTORE PUSH1 0x40 DUP3 ADD MSTORE PUSH1 0x60 ADD SWAP1 JUMP JUMPDEST PUSH1 0x0 DUP1 DUP4 CALLDATALOAD PUSH1 0x1E NOT DUP5 CALLDATASIZE SUB ADD DUP2 SLT PUSH2 0x5B2B JUMPI DUP3 DUP4 REVERT JUMPDEST DUP4 ADD DUP1 CALLDATALOAD SWAP2 POP PUSH1 0x1 PUSH1 0x1 PUSH1 0x40 SHL SUB DUP3 GT ISZERO PUSH2 0x5B44 JUMPI DUP3 DUP4 REVERT JUMPDEST PUSH1 0x20 SWAP1 DUP2 ADD SWAP3 POP DUP2 MUL CALLDATASIZE SUB DUP3 SGT ISZERO PUSH2 0x4F9C JUMPI PUSH1 0x0 DUP1 REVERT JUMPDEST PUSH1 0x0 DUP3 CALLDATALOAD PUSH1 0xDE NOT DUP4 CALLDATASIZE SUB ADD DUP2 SLT PUSH2 0x5B70 JUMPI DUP2 DUP3 REVERT JUMPDEST SWAP2 SWAP1 SWAP2 ADD SWAP3 SWAP2 POP POP JUMP JUMPDEST PUSH1 0x0 DUP3 CALLDATALOAD PUSH1 0x5E NOT DUP4 CALLDATASIZE SUB ADD DUP2 SLT PUSH2 0x5B70 JUMPI DUP2 DUP3 REVERT JUMPDEST PUSH1 0x40 MLOAD DUP2 DUP2 ADD PUSH1 0x1 PUSH1 0x1 PUSH1 0x40 SHL SUB DUP2 GT DUP3 DUP3 LT OR ISZERO PUSH2 0x5BAA JUMPI INVALID JUMPDEST PUSH1 0x40 MSTORE SWAP2 SWAP1 POP JUMP JUMPDEST PUSH1 0x0 PUSH1 0x1 PUSH1 0x1 PUSH1 0x40 SHL SUB DUP3 GT ISZERO PUSH2 0x5BC5 JUMPI INVALID JUMPDEST POP PUSH1 0x20 SWAP1 DUP2 MUL ADD SWAP1 JUMP JUMPDEST PUSH1 0x1 PUSH1 0x1 PUSH1 0xA0 SHL SUB DUP2 AND DUP2 EQ PUSH2 0x5BE4 JUMPI PUSH1 0x0 DUP1 REVERT JUMPDEST POP JUMP JUMPDEST DUP1 ISZERO ISZERO DUP2 EQ PUSH2 0x5BE4 JUMPI PUSH1 0x0 DUP1 REVERT JUMPDEST PUSH2 0xFFFF DUP2 AND DUP2 EQ PUSH2 0x5BE4 JUMPI PUSH1 0x0 DUP1 REVERT INVALID LOG2 PUSH5 0x6970667358 0x22 SLT KECCAK256 0xC RETURN SWAP11 PUSH7 0xA799DC50BCBDEB 0xD1 0xAD 0x26 NUMBER DUP4 0x23 PUSH28 0xC80AB64BF49E313015945D1344864736F6C63430007060033000000 ","sha1":"29757a9d1d1a445dce799ce1905fe039657dd05f","source":"// SPDX-License-Identifier: BSUL-1.1\npragma solidity =0.7.6;\npragma abicoder v2;\n\nimport {\n    BalanceState,\n    PortfolioState,\n    AccountContext,\n    PrimeRate,\n    BatchLend,\n    BalanceAction,\n    BalanceActionWithTrades,\n    DepositActionType,\n    TradeActionType,\n    Token\n} from \"../../global/Types.sol\";\nimport {Constants} from \"../../global/Constants.sol\";\nimport {SafeInt256} from \"../../math/SafeInt256.sol\";\nimport {StorageLayoutV1} from \"../../global/StorageLayoutV1.sol\";\n\nimport {BalanceHandler} from \"../../internal/balances/BalanceHandler.sol\";\nimport {TokenHandler} from \"../../internal/balances/TokenHandler.sol\";\nimport {PortfolioHandler} from \"../../internal/portfolio/PortfolioHandler.sol\";\nimport {PrimeRateLib} from \"../../internal/pCash/PrimeRateLib.sol\";\nimport {AccountContextHandler} from \"../../internal/AccountContextHandler.sol\";\nimport {NotionalCallback} from \"../../../interfaces/notional/NotionalCallback.sol\";\nimport {DeprecatedAssetRate} from \"../../internal/markets/DeprecatedAssetRate.sol\";\n\nimport {MigrateIncentives} from \"../MigrateIncentives.sol\";\nimport {TradingAction} from \"./TradingAction.sol\";\nimport {ActionGuards} from \"./ActionGuards.sol\";\nimport {nTokenMintAction} from \"./nTokenMintAction.sol\";\nimport {nTokenRedeemAction} from \"./nTokenRedeemAction.sol\";\nimport {SettleAssetsExternal} from \"../SettleAssetsExternal.sol\";\nimport {FreeCollateralExternal} from \"../FreeCollateralExternal.sol\";\n\ncontract BatchAction is StorageLayoutV1, ActionGuards {\n    using BalanceHandler for BalanceState;\n    using PortfolioHandler for PortfolioState;\n    using AccountContextHandler for AccountContext;\n    using PrimeRateLib for PrimeRate;\n    using TokenHandler for Token;\n    using SafeInt256 for int256;\n\n    /// @notice Executes a batch of balance transfers including minting and redeeming nTokens.\n    /// @param account the account for the action\n    /// @param actions array of balance actions to take, must be sorted by currency id\n    /// @dev emit:CashBalanceChange, emit:nTokenSupplyChange\n    /// @dev auth:msg.sender auth:ERC1155\n    function batchBalanceAction(address account, BalanceAction[] calldata actions)\n        external\n        payable\n        nonReentrant\n    {\n        require(account == msg.sender || msg.sender == address(this), \"Unauthorized\");\n        requireValidAccount(account);\n\n        AccountContext memory accountContext = _settleAccountIfRequired(account);\n        BalanceState memory balanceState;\n\n        for (uint256 i = 0; i < actions.length; i++) {\n            BalanceAction calldata action = actions[i];\n            // msg.value will only be used when currency id == 1, referencing ETH. The requirement\n            // to sort actions by increasing id enforces that msg.value will only be used once.\n            if (i > 0) {\n                require(action.currencyId > actions[i - 1].currencyId, \"Unsorted actions\");\n            }\n            // Loads the currencyId into balance state\n            balanceState.loadBalanceState(account, action.currencyId, accountContext);\n\n            _executeDepositAction(\n                account,\n                balanceState,\n                action.actionType,\n                action.depositActionAmount\n            );\n\n            _calculateWithdrawActionAndFinalize(\n                account,\n                accountContext,\n                balanceState,\n                action.withdrawAmountInternalPrecision,\n                action.withdrawEntireCashBalance,\n                action.redeemToUnderlying\n            );\n        }\n\n        _finalizeAccountContext(account, accountContext);\n    }\n\n    /// @notice Executes a batch of balance transfers and trading actions\n    /// @param account the account for the action\n    /// @param actions array of balance actions with trades to take, must be sorted by currency id\n    /// @dev auth:msg.sender auth:ERC1155\n    function batchBalanceAndTradeAction(address account, BalanceActionWithTrades[] calldata actions)\n        external\n        payable\n        nonReentrant\n    {\n        require(account == msg.sender || msg.sender == address(this), \"Unauthorized\");\n        requireValidAccount(account);\n        AccountContext memory accountContext = _batchBalanceAndTradeAction(account, actions);\n        _finalizeAccountContext(account, accountContext);\n    }\n\n    /// @notice Executes a batch of lending actions. This is different from batchBalanceAndTrade because\n    /// it always pulls the required amount of tokens to get an account to a cash balance of zero. It reduces\n    /// the gas costs for lending because there is no second token transfer where residual balances are sent\n    /// back to the account.\n    /// @dev Note that this method does not work with native ETH because it requires the ability to pull payment\n    /// from an ERC20 token. Therefore, this method is marked as nonpayable. It will still work with cETH or aETH.\n    /// @param account the account for the action\n    /// @param actions array of batch lending actions\n    /// @dev auth:msg.sender auth:ERC1155\n    function batchLend(address account, BatchLend[] calldata actions)\n        external\n        nonReentrant\n    {\n        require(account == msg.sender || msg.sender == address(this), \"Unauthorized\");\n        requireValidAccount(account);\n\n        AccountContext memory accountContext = _settleAccountIfRequired(account);\n        // NOTE: loading the portfolio state must happen after settle account to get the\n        // correct portfolio, it will have changed if the account is settled.\n        PortfolioState memory portfolioState = PortfolioHandler.buildPortfolioState(\n            account,\n            accountContext.assetArrayLength,\n            0\n        );\n        BalanceState memory balanceState;\n\n        for (uint256 i = 0; i < actions.length; i++) {\n            BatchLend calldata action = actions[i];\n            // msg.value will never be used in this method because it is non-payable\n            if (i > 0) {\n                require(action.currencyId > actions[i - 1].currencyId, \"Unsorted actions\");\n            }\n\n            // Require that each action have at least 1 trade and all trades are lending trades\n            uint256 numTrades = action.trades.length;\n            require(numTrades > 0); // dev: no actions\n            for (uint256 j = 0; j < numTrades; j++) {\n                require(uint8(bytes1(action.trades[j])) == uint8(TradeActionType.Lend)); // dev: only lend trades\n            }\n\n            // Loads the currencyId into balance state\n            balanceState.loadBalanceState(account, action.currencyId, accountContext);\n            (balanceState.netCashChange, portfolioState) = _executeTrades(\n                account,\n                action.currencyId,\n                action.trades,\n                accountContext,\n                portfolioState\n            );\n            // This must be negative as a result of requiring only lending\n            require(balanceState.netCashChange <= 0);\n\n            // Deposit sufficient cash to get the balance up to zero. If required cash is negative (i.e. there\n            // is sufficient cash) then we don't need to do anything. The account's cash balance will be net off\n            // and there will be no token transfer.\n            // NOTE: it is possible that free collateral decreases as a result of lending a cash balance, will\n            // check FC at the end of the method.\n            int256 requiredCash = balanceState.storedCashBalance.add(balanceState.netCashChange).neg();\n            if (requiredCash > 0) {\n                int256 primeCashDeposited;\n                Token memory underlyingToken = TokenHandler.getUnderlyingToken(action.currencyId);\n                int256 underlyingExternalAmount = underlyingToken.convertToUnderlyingExternalWithAdjustment(\n                    balanceState.primeRate.convertToUnderlying(requiredCash)\n                );\n\n                if (action.depositUnderlying) {\n                    // If depositing underlying, get the current asset rate and convert the required cash\n                    // back to underlying.\n                    primeCashDeposited = balanceState.depositUnderlyingToken(\n                        account,\n                        underlyingExternalAmount,\n                        false // ETH is never used here since the method is non-payable\n                    );\n                } else {\n                    // This code remains to support deprecated asset tokens. AssetRate is no longer used within\n                    // Notional, however, it is used here to calculate the proper amount of asset (cTokens) to\n                    // deposit in this lending scenario.\n                    primeCashDeposited = balanceState.depositDeprecatedAssetToken(\n                        account,\n                        DeprecatedAssetRate.convertUnderlyingExternalToAsset(\n                            action.currencyId,\n                            underlyingExternalAmount\n                        ).add(1)\n                    );\n                }\n\n                // Batch lending requires that the balance state does not go below zero, i.e. it does not allow users\n                // to borrow variable to lend fixed. That can be accomplished via batchActionWithTrades.\n                require(primeCashDeposited >= requiredCash, \"Insufficient deposit\");\n            }\n\n            balanceState.finalizeNoWithdraw(account, accountContext);\n\n            // Check the supply cap after balances have been finalized\n            balanceState.primeRate.checkSupplyCap(balanceState.currencyId);\n        }\n\n        // Update the portfolio state if bitmap is not enabled. If bitmap is already enabled\n        // then all the assets have already been updated in in storage.\n        if (!accountContext.isBitmapEnabled()) {\n            // NOTE: a new account context memory location is returned here\n            accountContext = SettleAssetsExternal.storeAssetsInPortfolioState(\n                account, accountContext, portfolioState\n            );\n        }\n\n        // This will save the account context and check free collateral\n        _finalizeAccountContext(account, accountContext);\n    }\n\n    /// @notice Executes a batch of balance transfers and trading actions via an authorized callback contract. This\n    /// can be used as a \"flash loan\" facility for special contracts that migrate assets between protocols or perform\n    /// other actions on behalf of the user.\n    /// Contracts can borrow from Notional and receive a callback prior to an FC check, this can be useful if the contract\n    /// needs to perform a trade or repay a debt on a different protocol before depositing collateral. Since Notional's AMM\n    /// will never be as capital efficient or gas efficient as other flash loan facilities, this method requires whitelisting\n    /// and will mainly be used for contracts that make migrating assets a better user experience.\n    /// @param account the account that will take all the actions\n    /// @param actions array of balance actions with trades to take, must be sorted by currency id\n    /// @param callbackData arbitrary bytes to be passed backed to the caller in the callback\n    /// @dev auth:authorizedCallbackContract\n    function batchBalanceAndTradeActionWithCallback(\n        address account,\n        BalanceActionWithTrades[] calldata actions,\n        bytes calldata callbackData\n    ) external payable {\n        // NOTE: Re-entrancy is allowed for authorized callback functions.\n        require(authorizedCallbackContract[msg.sender], \"Unauthorized\");\n        requireValidAccount(account);\n\n        AccountContext memory accountContext = _batchBalanceAndTradeAction(account, actions);\n        accountContext.setAccountContext(account);\n\n        // Be sure to set the account context before initiating the callback, all stateful updates\n        // have been finalized at this point so we are safe to issue a callback. This callback may\n        // re-enter Notional safely to deposit or take other actions.\n        NotionalCallback(msg.sender).notionalCallback(msg.sender, account, callbackData);\n\n        if (accountContext.hasDebt != 0x00) {\n            // NOTE: this method may update the account context to turn off the hasDebt flag, this\n            // is ok because the worst case would be causing an extra free collateral check when it\n            // is not required. This check will be entered if the account hasDebt prior to the callback\n            // being triggered above, so it will happen regardless of what the callback function does.\n            FreeCollateralExternal.checkFreeCollateralAndRevert(account);\n        }\n    }\n\n    function _batchBalanceAndTradeAction(\n        address account,\n        BalanceActionWithTrades[] calldata actions\n    ) internal returns (AccountContext memory) {\n        AccountContext memory accountContext = _settleAccountIfRequired(account);\n        BalanceState memory balanceState;\n        // NOTE: loading the portfolio state must happen after settle account to get the\n        // correct portfolio, it will have changed if the account is settled.\n        PortfolioState memory portfolioState = PortfolioHandler.buildPortfolioState(\n            account,\n            accountContext.assetArrayLength,\n            0\n        );\n\n        for (uint256 i = 0; i < actions.length; i++) {\n            BalanceActionWithTrades calldata action = actions[i];\n            // msg.value will only be used when currency id == 1, referencing ETH. The requirement\n            // to sort actions by increasing id enforces that msg.value will only be used once.\n            if (i > 0) {\n                require(action.currencyId > actions[i - 1].currencyId, \"Unsorted actions\");\n            }\n            // Loads the currencyId into balance state\n            balanceState.loadBalanceState(account, action.currencyId, accountContext);\n\n            // Does not revert on invalid action types here, they also have no effect.\n            _executeDepositAction(\n                account,\n                balanceState,\n                action.actionType,\n                action.depositActionAmount\n            );\n\n            if (action.trades.length > 0) {\n                int256 netCash;\n                (netCash, portfolioState) = _executeTrades(\n                    account,\n                    action.currencyId,\n                    action.trades,\n                    accountContext,\n                    portfolioState\n                );\n\n                // If the account owes cash after trading, ensure that it has enough\n                balanceState.netCashChange = balanceState.netCashChange.add(netCash);\n            }\n\n            _calculateWithdrawActionAndFinalize(\n                account,\n                accountContext,\n                balanceState,\n                action.withdrawAmountInternalPrecision,\n                action.withdrawEntireCashBalance,\n                action.redeemToUnderlying\n            );\n        }\n\n        // Update the portfolio state if bitmap is not enabled. If bitmap is already enabled\n        // then all the assets have already been updated in in storage.\n        if (!accountContext.isBitmapEnabled()) {\n            // NOTE: a new account context memory location is returned here\n            accountContext = SettleAssetsExternal.storeAssetsInPortfolioState(\n                account, accountContext, portfolioState\n            );\n        }\n\n        // NOTE: free collateral and account context will be set outside of this method call.\n        return accountContext;\n    }\n\n    /// @dev Executes deposits\n    function _executeDepositAction(\n        address account,\n        BalanceState memory balanceState,\n        DepositActionType depositType,\n        uint256 depositActionAmount_\n    ) private {\n        int256 depositActionAmount = SafeInt256.toInt(depositActionAmount_);\n        int256 primeCashDeposited;\n        require(depositActionAmount >= 0);\n\n        if (depositType == DepositActionType.None) {\n            return;\n        } else if (\n            depositType == DepositActionType.DepositAsset ||\n            depositType == DepositActionType.DepositAssetAndMintNToken\n        ) {\n            // This transfer will happen immediately.\n            primeCashDeposited = balanceState.depositDeprecatedAssetToken(\n                account,\n                depositActionAmount\n            );\n        } else if (\n            depositType == DepositActionType.DepositUnderlying ||\n            depositType == DepositActionType.DepositUnderlyingAndMintNToken\n        ) {\n            // This transfer will be deferred until balanceState.finalize\n            primeCashDeposited = balanceState.depositUnderlyingToken(\n                account,\n                depositActionAmount,\n                false // No excess ETH by definition\n            );\n        } else if (depositType == DepositActionType.ConvertCashToNToken) {\n            // _executeNTokenAction will check if the account has sufficient cash\n            primeCashDeposited = depositActionAmount;\n        }\n\n        _executeNTokenAction(\n            account, balanceState, depositType, depositActionAmount, primeCashDeposited\n        );\n    }\n\n    /// @dev Executes nToken actions\n    function _executeNTokenAction(\n        address account,\n        BalanceState memory balanceState,\n        DepositActionType depositType,\n        int256 depositActionAmount,\n        int256 primeCashDeposited\n    ) private {\n        // After deposits have occurred, check if we are minting nTokens\n        if (\n            depositType == DepositActionType.DepositAssetAndMintNToken ||\n            depositType == DepositActionType.DepositUnderlyingAndMintNToken ||\n            depositType == DepositActionType.ConvertCashToNToken\n        ) {\n            balanceState.netCashChange = balanceState.netCashChange.sub(primeCashDeposited);\n\n            // Converts a given amount of cash (denominated in internal precision) into nTokens\n            int256 tokensMinted = nTokenMintAction.nTokenMint(\n                account, balanceState.currencyId, primeCashDeposited\n            );\n\n            balanceState.netNTokenSupplyChange = balanceState.netNTokenSupplyChange.add(\n                tokensMinted\n            );\n        } else if (depositType == DepositActionType.RedeemNToken) {\n            require(\n                // prettier-ignore\n                balanceState\n                    .storedNTokenBalance\n                    .add(balanceState.netNTokenTransfer) // transfers would not occur at this point\n                    .add(balanceState.netNTokenSupplyChange) >= depositActionAmount,\n                \"Insufficient token balance\"\n            );\n\n            balanceState.netNTokenSupplyChange = balanceState.netNTokenSupplyChange.sub(\n                depositActionAmount\n            );\n\n            int256 primeCash = nTokenRedeemAction.nTokenRedeemViaBatch(\n                account, balanceState.currencyId, depositActionAmount\n            );\n\n            balanceState.netCashChange = balanceState.netCashChange.add(primeCash);\n        }\n    }\n\n    /// @dev Calculations any withdraws and finalizes balances\n    function _calculateWithdrawActionAndFinalize(\n        address account,\n        AccountContext memory accountContext,\n        BalanceState memory balanceState,\n        uint256 withdrawAmountInternalPrecision,\n        bool withdrawEntireCashBalance,\n        bool redeemToUnderlying\n    ) private {\n        int256 withdrawAmount = SafeInt256.toInt(withdrawAmountInternalPrecision);\n        require(withdrawAmount >= 0); // dev: withdraw action overflow\n        // Prior to the prime cash migration, accounts could withdraw cash as cTokens. This is no longer\n        // possible. In the case of ETH, if redeemToUnderlying == false then ETH will be redeemed as WETH.\n        if (balanceState.currencyId != Constants.ETH_CURRENCY_ID) {\n            require(redeemToUnderlying, \"Deprecated: Redemption to cToken\");\n        }\n\n        // NOTE: if withdrawEntireCashBalance is set it will override the withdrawAmountInternalPrecision input\n        if (withdrawEntireCashBalance) {\n            // This option is here so that accounts do not end up with dust after lending since we generally\n            // cannot calculate exact cash amounts from the liquidity curve.\n            withdrawAmount = balanceState.storedCashBalance.add(balanceState.netCashChange);\n\n            // If the account has a negative cash balance then cannot withdraw\n            if (withdrawAmount < 0) withdrawAmount = 0;\n        }\n\n        balanceState.primeCashWithdraw = withdrawAmount.neg();\n        balanceState.finalizeWithWithdraw(account, accountContext, !redeemToUnderlying);\n\n        // Check the supply cap after all balances have been finalized.\n        // NOTE: there is an edge condition when attempting to redeem nTokens while the supply cap has\n        // been breached that will cause this to revert. Accounts should be able to redeem their nTokens\n        // regardless of the supply cap situation. In order to work around this, accounts can call\n        // AccountAction#nTokenRedeem and then AccountAction#withdraw, neither of which check supply caps.\n        balanceState.primeRate.checkSupplyCap(balanceState.currencyId);\n    }\n\n    function _finalizeAccountContext(address account, AccountContext memory accountContext)\n        private\n    {\n        // At this point all balances, market states and portfolio states should be finalized. Just need to check free\n        // collateral if required.\n        accountContext.setAccountContext(account);\n        if (accountContext.hasDebt != 0x00) {\n            FreeCollateralExternal.checkFreeCollateralAndRevert(account);\n        }\n    }\n\n    function _executeTrades(\n        address account,\n        uint16 currencyId,\n        bytes32[] calldata trades,\n        AccountContext memory accountContext,\n        PortfolioState memory portfolioState\n    ) private returns (int256 netCash, PortfolioState memory postTradeState) {\n        if (accountContext.isBitmapEnabled()) {\n            require(\n                accountContext.bitmapCurrencyId == currencyId,\n                \"Invalid trades for account\"\n            );\n            bool didIncurDebt;\n            (netCash, didIncurDebt) = TradingAction.executeTradesBitmapBatch(\n                account,\n                accountContext.bitmapCurrencyId,\n                accountContext.nextSettleTime,\n                trades\n            );\n            if (didIncurDebt) {\n                accountContext.hasDebt = Constants.HAS_ASSET_DEBT | accountContext.hasDebt;\n            }\n        } else {\n            // NOTE: we return portfolio state here instead of setting it inside executeTradesArrayBatch\n            // because we want to only write to storage once after all trades are completed\n            (postTradeState, netCash) = TradingAction.executeTradesArrayBatch(\n                account,\n                currencyId,\n                portfolioState,\n                trades\n            );\n        }\n    }\n\n    function _settleAccountIfRequired(address account)\n        private\n        returns (AccountContext memory)\n    {\n        AccountContext memory accountContext = AccountContextHandler.getAccountContext(account);\n        if (accountContext.mustSettleAssets()) {\n            // Returns a new memory reference to account context\n            return SettleAssetsExternal.settleAccount(account, accountContext);\n        } else {\n            return accountContext;\n        }\n    }\n\n    /// @notice Get a list of deployed library addresses (sorted by library name)\n    function getLibInfo() external pure returns (address, address, address, address, address, address) {\n        return (\n            address(FreeCollateralExternal), \n            address(MigrateIncentives), \n            address(SettleAssetsExternal), \n            address(TradingAction),\n            address(nTokenMintAction), \n            address(nTokenRedeemAction)\n        );\n    }\n}","sourcePath":"contracts/external/actions/BatchAction.sol","type":"contract","deployment":{"address":"0x662F1be7f07C90031F7B5264f71Bd1AC0E975526","chainid":"5","blockHeight":10202772}}