{"abi":[{"inputs":[{"internalType":"contract MigrationSettings","name":"settings","type":"address"},{"internalType":"address","name":"finalRouter","type":"address"},{"internalType":"address","name":"_pauseRouter","type":"address"},{"internalType":"address","name":"_manager","type":"address"}],"stateMutability":"nonpayable","type":"constructor","name":"constructor"},{"anonymous":false,"inputs":[{"indexed":false,"internalType":"address","name":"previousAdmin","type":"address"},{"indexed":false,"internalType":"address","name":"newAdmin","type":"address"}],"name":"AdminChanged","type":"event"},{"anonymous":false,"inputs":[{"indexed":true,"internalType":"address","name":"beacon","type":"address"}],"name":"BeaconUpgraded","type":"event"},{"anonymous":false,"inputs":[],"name":"EndV3AccountEvents","type":"event"},{"anonymous":false,"inputs":[],"name":"MigratedToV3","type":"event"},{"anonymous":false,"inputs":[],"name":"StartV3AccountEvents","type":"event"},{"anonymous":false,"inputs":[{"indexed":false,"internalType":"uint16","name":"currencyId","type":"uint16"}],"name":"UpdateCashGroup","type":"event"},{"anonymous":false,"inputs":[{"indexed":true,"internalType":"address","name":"implementation","type":"address"}],"name":"Upgraded","type":"event"},{"stateMutability":"nonpayable","type":"fallback"},{"inputs":[],"name":"FINAL_ROUTER","outputs":[{"internalType":"address","name":"","type":"address"}],"stateMutability":"view","type":"function"},{"inputs":[],"name":"MIGRATION_SETTINGS","outputs":[{"internalType":"contract MigrationSettings","name":"","type":"address"}],"stateMutability":"view","type":"function"},{"inputs":[],"name":"NOTIONAL_MANAGER","outputs":[{"internalType":"address","name":"","type":"address"}],"stateMutability":"view","type":"function"},{"inputs":[],"name":"PAUSE_ROUTER","outputs":[{"internalType":"address","name":"","type":"address"}],"stateMutability":"view","type":"function"},{"inputs":[{"internalType":"uint256[]","name":"accounts","type":"uint256[]"}],"name":"emitAccountEvents","outputs":[],"stateMutability":"nonpayable","type":"function"},{"inputs":[],"name":"migratePrimeCash","outputs":[],"stateMutability":"nonpayable","type":"function"},{"inputs":[],"name":"owner","outputs":[{"internalType":"address","name":"","type":"address"}],"stateMutability":"view","type":"function"},{"inputs":[],"name":"pauseGuardian","outputs":[{"internalType":"address","name":"","type":"address"}],"stateMutability":"view","type":"function"},{"inputs":[],"name":"pauseRouter","outputs":[{"internalType":"address","name":"","type":"address"}],"stateMutability":"view","type":"function"},{"inputs":[],"name":"upgradeToRouter","outputs":[],"stateMutability":"nonpayable","type":"function"}],"bytecode":"6101006040523480156200001257600080fd5b5060405162003b7438038062003b74833981016040819052620000359162000065565b6001600160601b0319606094851b811660805292841b831660a05290831b821660c05290911b1660e052620000e5565b600080600080608085870312156200007b578384fd5b84516200008881620000cc565b60208601519094506200009b81620000cc565b6040860151909350620000ae81620000cc565b6060860151909250620000c181620000cc565b939692955090935050565b6001600160a01b0381168114620000e257600080fd5b50565b60805160601c60a05160601c60c05160601c60e05160601c613a266200014e6000398061019752806102515280610358528061054052508060b252806101f152806103bd5250806101c85280610224525080610446528061058a5280610b7d5250613a266000f3fe60806040523480156200001157600080fd5b5060043610620000ac5760003560e01c80636456a464116200006f5780636456a46414620001305780637fb9cb12146200013a5780638246336714620001445780638da5cb5b146200014e578063a32f8d5e146200015857620000ac565b80630ada1e5d14620000d95780632289612014620000e357806324a3d622146200010557806343dc9bb2146200010f57806358b787eb1462000119575b620000d77f000000000000000000000000000000000000000000000000000000000000000062000162565b005b620000d76200018c565b620000ed620001ef565b604051620000fc919062002df6565b60405180910390f35b620000ed62000213565b620000ed62000222565b620000d76200012a36600462002ba6565b62000246565b620000d76200034d565b620000ed6200053e565b620000ed62000562565b620000ed62000571565b620000ed62000588565b3660008037600080366000845af43d6000803e80801562000182573d6000f35b3d6000fd5b505050565b336001600160a01b037f00000000000000000000000000000000000000000000000000000000000000001614620001c257600080fd5b620001ed7f0000000000000000000000000000000000000000000000000000000000000000620005ac565b565b7f000000000000000000000000000000000000000000000000000000000000000081565b6002546001600160a01b031681565b7f000000000000000000000000000000000000000000000000000000000000000081565b336001600160a01b037f000000000000000000000000000000000000000000000000000000000000000016146200027c57600080fd5b6040517fba209bbcf165eec38d9f29dce187130c68b755e024158258f6df847beb8743a290600090a18060005b818110156200031e576000848483818110620002c157fe5b9050602002013590506000819050620002dd81600184620005ee565b620002eb81600284620005ee565b620002f981600384620005ee565b6200030781600484620005ee565b6200031381836200069d565b5050600101620002a9565b506040517f84b50b77ffcf488ca2647653283c1aaef2e38026f66bcb49783bdf7fd1776a6d90600090a1505050565b336001600160a01b037f000000000000000000000000000000000000000000000000000000000000000016146200038357600080fd5b6000546301000000900460ff16156200039b57600080fd5b6000805463ff0000001916630100000017808255600180546001600160a01b037f0000000000000000000000000000000000000000000000000000000000000000166001600160a01b031990911617905560405161ffff909116917f4847247098579ed275cde492f5b66ee93b2a8402c33de324056aa02e42ec887491a160015b8161ffff168161ffff16116200053a576040516375c22bdd60e11b81526000906001600160a01b037f0000000000000000000000000000000000000000000000000000000000000000169063eb8457ba906200047d90859060040162002f1a565b60006040518083038186803b1580156200049657600080fd5b505afa158015620004ab573d6000803e3d6000fd5b505050506040513d6000823e601f3d908101601f19168201604052620004d5919081019062002c1a565b9050600080620004e584620007a1565b91509150620004f78483838662000907565b6200050784846040015162000b16565b620005128462000b63565b620005238484610100015162000c58565b6200052e8462000d2f565b5050506001016200041c565b5050565b7f000000000000000000000000000000000000000000000000000000000000000081565b6001546001600160a01b031681565b60005464010000000090046001600160a01b031681565b7f000000000000000000000000000000000000000000000000000000000000000081565b620005b78162000e0d565b6040516001600160a01b038216907fbc7cd75a20ee27fd9adebab32041f755214dbc6bffa90cc0225b39da2e5c2d3b90600090a250565b600160f81b6001600160f81b0319821660ff84161c168062000611575062000187565b60006200061d62000ea2565b6001600160a01b03861660009081526020828152604080832060ff8916845290915290208054919250906001600160501b031680156200066957620006696000888860ff168462000eb7565b8154600160a81b9004600a90810b900b6000811315620006935762000693888860ff168362000fd8565b5050505050505050565b60ff60f082901c1680620006b257506200053a565b6000620006c084836200105e565b905060005b81518110156200079a576000828281518110620006de57fe5b60200260200101516000015190506000838381518110620006fb57fe5b602002602001015160200151905060008484815181106200071857fe5b602002602001015160600151905060006200073584848462001074565b90506001600160a01b0389166000337fc3d58168c5ae7397731d063d5bbf3d657854427343f4c083240f7aacaa2d0f62846200077187620010c3565b6040516200078192919062002f8e565b60405180910390a4505060019092019150620006c59050565b5050505050565b620007ab62002610565b620007b562002610565b620007c48361ffff16620010e9565b9150600482606001516005811115620007d957fe5b1415620008a4576040805160a08101825283516001600160a01b03168152602080850151151590820152620008a49161ffff8616919081016000815260200185600001516001600160a01b031663313ce5676040518163ffffffff1660e01b815260040160206040518083038186803b1580156200085657600080fd5b505afa1580156200086b573d6000803e3d6000fd5b505050506040513d601f19601f8201168201806040525081019062000891919062002dab565b60ff168152600060209091015262001100565b81516001600160a01b03166000908152600960205260409020805461ffff19169055620008d561ffff84166200133c565b80516001600160a01b03166000908152600960205260409020805461ffff191661ffff95909516949094179093555091565b6200091784826020015162001353565b6000620009c9620009c3620009bd620009b587600001516001600160a01b03166370a08231306040518263ffffffff1660e01b81526004016200095b919062002df6565b60206040518083038186803b1580156200097457600080fd5b505afa15801562000989573d6000803e3d6000fd5b505050506040513d601f19601f82011682018060405250810190620009af919062002d6e565b620015c2565b8790620015d9565b62001615565b62001625565b9050620009eb858284600001518560200151866080015187606001516200163c565b60008584600001518460a001518560c0015160405160240162000a12949392919062002f29565b60408051601f198184030181529181526020820180516001600160e01b03166354c938a760e11b17905251909150600090731f681977af5392d9ca5572fb394bc4d12939a6a990839062000a66906200263f565b62000a7392919062002e49565b604051809103906000f08015801562000a90573d6000803e3d6000fd5b50905062000aa18782600162001842565b83608001511562000b0d57600073df08039c0af34e34660ac7c2705c0da9532476408360405162000ad2906200263f565b62000adf92919062002e49565b604051809103906000f08015801562000afc573d6000803e3d6000fd5b509050620006938882600062001842565b50505050505050565b62000b268261ffff1682620018fd565b7f8fd2367aaaca3606dee299bbef980da42d4e906e355f28c3dd3a2f4d81d6b4638260405162000b57919062002f1a565b60405180910390a15050565b604051632188691d60e01b81526000906001600160a01b037f00000000000000000000000000000000000000000000000000000000000000001690632188691d9062000bb790859060019060040162002f78565b60006040518083038186803b15801562000bd057600080fd5b505afa15801562000be5573d6000803e3d6000fd5b505050506040513d6000823e601f3d908101601f1916820160405262000c0f919081019062002ae1565b50905060005b815181101562000c4c5762000c43838260010184848151811062000c3557fe5b602002602001015162001ab7565b60010162000c15565b506200053a8262001b3c565b600062000c6462001b8f565b905060005b825181101562000d295782818151811062000c8057fe5b60200260200101516000015164ffffffffff16421062000c9f57600080fd5b82818151811062000cac57fe5b6020026020010151602001518260008661ffff168152602001908152602001600020600085848151811062000cdd57fe5b6020908102919091018101515164ffffffffff168252810191909152604001600020805469ffffffffffffffffffff19166001600160501b039290921691909117905560010162000c69565b50505050565b600062000d3b62000ea2565b60008080526020828152604080832061ffff909616808452868352818420610fee855294835281842081855283529083208454815469ffffffffffffffffffff19166001600160501b0390911617808255855463ffffffff600160501b91829004160263ffffffff60501b1990911617808255855466ffffffffffffff600160701b91829004160266ffffffffffffff60701b19909116178082558554600160a81b90819004600a90810b900b6001600160581b0316026001600160a81b039091161790558252939093529190915550565b62000e188162001b9e565b62000e555760405162461bcd60e51b815260040180806020018281038252602d815260200180620039c4602d913960400191505060405180910390fd5b8062000e817f360894a13ba1a3210667c828492db98dca3e2076cc3735a920a3ca505d382bbc62001ba4565b80546001600160a01b0319166001600160a01b039290921691909117905550565b60008062000eb1600662001ba7565b92915050565b600062000ec362001bc1565b61ffff8416600090815260209190915260408120546001600160a01b0316915082121562000eef579293925b600062000efc83620010c3565b905062000f098462001bd0565b1562000f69576001600160a01b03808616908716337fc3d58168c5ae7397731d063d5bbf3d657854427343f4c083240f7aacaa2d0f6262000f4a8862001bfa565b8560405162000f5b92919062002f8e565b60405180910390a462000fd0565b6040516323de665160e01b81526001600160a01b038316906323de66519062000f9b9089908990869060040162002e0a565b600060405180830381600087803b15801562000fb657600080fd5b505af115801562000fcb573d6000803e3d6000fd5b505050505b505050505050565b600062000fe462001c0d565b61ffff8416600090815260209190915260409081902054905163ad1c095d60e01b81526001600160a01b039091169150819063ad1c095d906200102e908790869060040162002e6f565b600060405180830381600087803b1580156200104957600080fd5b505af115801562000693573d6000803e3d6000fd5b60606200106c838362001c1c565b509392505050565b6000613fff61ffff851611156200108a57600080fd5b64ffffffffff8311156200109d57600080fd5b620010a9848462001c41565b90506000821215620010bc57600160401b175b9392505050565b600080821215620010e157620010d98262001c5c565b9050620010e4565b50805b919050565b620010f362002610565b62000eb182600062001c6c565b60006200110c62001d0b565b90506003826040015160058111156200112157fe5b1480156200112f5750600183145b156200117357600083815260209182526040808220600183529092522080546001600160b01b031916600360a81b1760ff60b01b1916600960b11b1790556200053a565b81516001600160a01b0316620011a65760405162461bcd60e51b81526004016200119d9062002e88565b60405180910390fd5b6000620011b584600162001c6c565b835181519192506001600160a01b0391821691161480620011de575080516001600160a01b0316155b620011fd5760405162461bcd60e51b81526004016200119d9062002ee3565b826060015160ff1660001080156200121d57506024836060015160ff1611155b6200123c5760405162461bcd60e51b81526004016200119d9062002eb5565b6003836040015160058111156200124f57fe5b14156200125b57600080fd5b6000836040015160058111156200126e57fe5b146200127957600080fd5b6000848152602083815260408083206001845282529182902085518154928701511515600160a01b0260ff60a01b196001600160a01b039092166001600160a01b0319909416939093171691909117808255918501518592829060ff60a81b1916600160a81b836005811115620012ec57fe5b02179055506060820151815460809093015168ffffffffffffffffff16600160b81b026001600160b81b0360ff909216600160b01b0260ff60b01b19909416939093171691909117905550505050565b6200134662002610565b62000eb182600162001c6c565b6000816001600160a01b031663e79bf13b6040518163ffffffff1660e01b815260040160006040518083038186803b1580156200138f57600080fd5b505afa158015620013a4573d6000803e3d6000fd5b505050506040513d6000823e601f3d908101601f19168201604052620013ce919081019062002a3d565b90506000826001600160a01b0316636f307dc36040518163ffffffff1660e01b815260040160206040518083038186803b1580156200140c57600080fd5b505afa15801562001421573d6000803e3d6000fd5b505050506040513d601f19601f8201168201806040525081019062001447919062002a1e565b9050600060018561ffff1614620014e0576040516370a0823160e01b81526001600160a01b038316906370a08231906200148690309060040162002df6565b60206040518083038186803b1580156200149f57600080fd5b505afa158015620014b4573d6000803e3d6000fd5b505050506040513d601f19601f82011682018060405250810190620014da919062002d6e565b620014e2565b475b9050620014f28260008362001d1a565b60005b835181101562000fd0578381815181106200150c57fe5b60200260200101516001600160a01b03166370a08231306040518263ffffffff1660e01b815260040162001541919062002df6565b60206040518083038186803b1580156200155a57600080fd5b505afa1580156200156f573d6000803e3d6000fd5b505050506040513d601f19601f8201168201806040525081019062001595919062002d6e565b9150620015b9848281518110620015a857fe5b602002602001015160008462001d1a565b600101620014f5565b60006001600160ff1b03821115620010e157600080fd5b60006305f5e10083604001511415620015f457508062000eb1565b6040830151620010bc906200160e846305f5e10062001da9565b9062001dff565b600080821215620010e157600080fd5b60006001600160581b03821115620010e157600080fd5b60006200164862001e33565b60008861ffff16815260200190815260200160002090506200166b878562001e42565b805464ffffffffff16156200167f57600080fd5b856001600160581b03166000106200169657600080fd5b6000620016a38862001ebf565b905080600010620016b357600080fd5b620016be4262001f4a565b825460028401805464ffffffffff1990921664ffffffffff93909316929092176fffffffffffffffffffffff00000000001916650100000000006001600160581b038b16908102919091176001600160f81b0316600160f81b8815150217855569ffffffffffffffffffff60501b199091166503782dace9d960621b1769ffffffffffffffffffff60a01b19166503782dace9d960b21b1760ff60f01b1916600160f01b60ff8716021790915562001783906200177d90839062001f5f565b62001f80565b60028301805469ffffffffffffffffffff19166001600160501b0392909216919091179055620017b38162001625565b82546001840180546affffffffffffffffffffff1916905563ffffffff60d81b196001600160581b0392909216600160801b026affffffffffffffffffffff60801b199091161716825562001809888762001f97565b60405161ffff8916907f10a72302a4c7c7bbb57a6fbe822ed3d9a792eb3e4aafc64e64745e3ae7bf128790600090a25050505050505050565b6000816200185a576200185462002002565b62001864565b6200186462001c0d565b61ffff85166000908152602082905260409020549091506001600160a01b0316156200188f57600080fd5b61ffff84166000818152602083905260409081902080546001600160a01b0319166001600160a01b038716179055517fb492e9bf0487a94dae4dd27d50f25f59e832faa854ed4072ee0fc57d327ca4c890620018ef908690869062002e2e565b60405180910390a250505050565b805160ff166002118015906200191b57506007816000015160ff1611155b6200192557600080fd5b6064816060015160ff1613156200193b57600080fd5b806040015160ff166000106200195057600080fd5b80610120015160ff168160c0015160ff16106200196c57600080fd5b8060a0015160ff168160e0015160ff16106200198757600080fd5b806080015160ff1681610100015160ff1610620019a357600080fd5b6000620019b08362002011565b9050816000015160ff168160ff161115620019ca57600080fd5b61012082015161010083015160e084015160c085015160a0860151608087015160608801516040808a01516020808c01518c5160489b909b1b69ff000000000000000000169990931b68ff00000000000000001660389890981b60ff60381b1660309790971b66ff0000000000001660289690961b65ff00000000001694901b64ff000000001660189390931b63ff0000001660109190911b62ff00001660089290921b61ff001660ff909916989098171796909617959095179490941793909317929092179190911717600062001aa162002029565b6000958652602052506040909320929092555050565b600062001ac362002038565b61ffff8516600090815260209190915260408120915062001ae48462002047565b60080260c003905060006004851062001aff57600162001b02565b60005b905062001b22838260ff166002811062001b1857fe5b0154838662002084565b838260ff166002811062001b3257fe5b0155505050505050565b600062001b4862002038565b61ffff8316600090815260209190915260408120915062001b68620020b3565b61ffff93909316600090815260209390935250604090912081548155600191820154910155565b60008062000eb1602062001ba7565b3b151590565b90565b6000620f424082602681111562001bba57fe5b0192915050565b60008062000eb1600362001ba7565b600046600181148062001be35750806005145b8015620010bc57505050600461ffff909116111590565b600c60309190911b61ffff60301b161790565b60008062000eb1602162001ba7565b60608062001c2b8484620020c2565b915062001c3882620021f4565b90509250929050565b61ffff60301b603083901b16600882901b1760011792915050565b600062000eb16000198362001da9565b62001c7662002610565b600062001c8262001d0b565b6000858152602082815260408083208715158452825291829020825160a08101845281546001600160a01b038116825260ff600160a01b82048116151594830194909452600160b01b81048416600a0a9482019490945293945092916060830191600160a81b90910416600581111562001cf857fe5b8152600060209091015295945050505050565b60008062000eb1600762001ba7565b600062001d26620023cc565b6001600160a01b0385166000908152602082905260409020549091508381111562001d5057600080fd5b600062001d7362001d6186620015c2565b62001d6c86620015c2565b90620023db565b905062001d85620009bd8383620023f2565b6001600160a01b039096166000908152602093909352505060409020929092555050565b81810260001983141562001dde5781158062001dce57508282828162001dcb57fe5b05145b62001dd857600080fd5b62000eb1565b82158062001df557508183828162001df257fe5b05145b62000eb157600080fd5b60008160001914801562001e165750600160ff1b83145b1562001e2157600080fd5b81838162001e2b57fe5b059392505050565b60008062000eb1601d62001ba7565b600062001e4e62002409565b61ffff8416600081815260209290925260409182902080546001600160a01b0319166001600160a01b0386161781559151919250907f870041665f4908d4b05db2c67d9d8735d37ec80a0f5f9286ce37e315b460682f9062001eb290859062002df6565b60405180910390a2505050565b60008062001ecd8362002418565b6001600160a01b031663ef81f2166040518163ffffffff1660e01b81526004016040805180830381600087803b15801562001f0757600080fd5b505af115801562001f1c573d6000803e3d6000fd5b505050506040513d601f19601f8201168201806040525081019062001f42919062002d87565b949350505050565b600064ffffffffff821115620010e157600080fd5b6000620010bc62001f7984670de0b6b3a76400006200244a565b8362002475565b60006001600160501b03821115620010e157600080fd5b600062001fa3620020b3565b61ffff8416600090815260209190915260408120915062001fc362002038565b61ffff8516600090815260209190915260408120915062001fec9083905b015460c08562002084565b825562001ffb81600062001fe1565b9055505050565b60008062000eb1602262001ba7565b6000806200201f8362002496565b60ff169392505050565b60008062000eb1600962001ba7565b60008062000eb1601c62001ba7565b6000816000106200205757600080fd5b60078211156200206657600080fd5b600482106200207957600482036200207b565b815b60080292915050565b6000806200209283620024b5565b67ffffffffffffffff60ff861690811b19871691901b179150509392505050565b60008062000eb1601b62001ba7565b606060088260ff161115620020d657600080fd5b6000620020e2620025db565b6001600160a01b038516600090815260208290526040812091925060ff851667ffffffffffffffff811180156200211857600080fd5b506040519080825280602002602001820160405280156200215657816020015b620021426200264d565b815260200190600190039081620021385790505b50905060005b8560ff16811015620021ea5760008382600881106200217757fe5b01905060008383815181106200218957fe5b602090810291909101810151835461ffff8116825264ffffffffff620100008204169282019290925260ff6701000000000000008304166040820152600160401b909104600a90810b900b606082015260800191909152506001016200215c565b5095945050505050565b80516060908067ffffffffffffffff811180156200221157600080fd5b506040519080825280602002602001820160405280156200223c578160200160208202803683370190505b50915060005b818110156200229f5760008482815181106200225a57fe5b602002602001015190506200227d816000015182602001518360400151620025ea565b8483815181106200228a57fe5b60209081029190910101525060010162002242565b5060015b81811015620023c557805b600081118015620022e95750838181518110620022c757fe5b6020026020010151846001830381518110620022df57fe5b6020026020010151115b15620023bb57838181518110620022fc57fe5b60200260200101518460018303815181106200231457fe5b60200260200101518560018403815181106200232c57fe5b602002602001018684815181106200234057fe5b60200260200101828152508281525050508481815181106200235e57fe5b60200260200101518560018303815181106200237657fe5b60200260200101518660018403815181106200238e57fe5b60200260200101878481518110620023a257fe5b60209081029190910101919091525260001901620022ae565b50600101620022a3565b5050919050565b60008062000eb1602662001ba7565b8082038281131560008312151462000eb157600080fd5b8181018281121560008312151462000eb157600080fd5b60008062000eb1601f62001ba7565b6000806200242562002409565b61ffff939093166000908152602093909352505060409020546001600160a01b031690565b6000826200245b5750600062000eb1565b828202828482816200246957fe5b0414620010bc57600080fd5b60008082116200248457600080fd5b8183816200248e57fe5b049392505050565b600080620024a362002029565b60009384526020525050604090205490565b6000816020015160ff16826000015160ff1610620024d257600080fd5b6064826020015160ff161115620024e857600080fd5b816060015160ff16826040015160ff16106200250357600080fd5b60c082015160a0830151622625a060ff9283160291166207a1200211156200252a57600080fd5b60648260e0015160ff16106200253f57600080fd5b5060e081015160c082015160a0830151606084015160408501516080860151602080880151975160ff90971660089690961b61ff001660109590951b62ff00001660189490941b63ff0000001692901b64ff000000001660289190911b65ff00000000001660309790971b66ff0000000000001660389690961b60ff60381b169590951795909517939093179390931791909117919091171790565b60008062000eb1600d62001ba7565b61ffff60301b603084901b1665ffffffffff00600884901b161760ff8216179392505050565b6040805160a0810182526000808252602082018190529181018290529060608201908152602001600081525090565b61099b806200302983390190565b6040518060c00160405280600061ffff16815260200160008152602001600081526020016000815260200160008152602001600060038111156200268d57fe5b905290565b600082601f830112620026a3578081fd5b81516020620026bc620026b68362002fc1565b62002f9c565b8281528181019085830161010080860288018501891015620026dc578687fd5b865b868110156200270657620026f38a8462002939565b85529385019391810191600101620026de565b509198975050505050505050565b600082601f83011262002725578081fd5b8151602062002738620026b68362002fc1565b8281528181019085830160408086028801850189101562002757578687fd5b865b86811015620027065781838b03121562002771578788fd5b815182810181811067ffffffffffffffff821117156200278d57fe5b8352835164ffffffffff81168114620027a457898afd5b8152838701516001600160501b0381168114620027bf57898afd5b818801528552938501939181019160010162002759565b80518015158114620010e457600080fd5b8051620010e4816200300f565b600082601f83011262002805578081fd5b815167ffffffffffffffff8111156200281a57fe5b6200282f601f8201601f191660200162002f9c565b81815284602083860101111562002844578283fd5b62001f4282602083016020870162002fe0565b60006101408083850312156200286b578182fd5b620028768162002f9c565b915050620028848262002a0c565b8152620028946020830162002a0c565b6020820152620028a76040830162002a0c565b6040820152620028ba6060830162002a0c565b6060820152620028cd6080830162002a0c565b6080820152620028e060a0830162002a0c565b60a0820152620028f360c0830162002a0c565b60c08201526200290660e0830162002a0c565b60e08201526101006200291b81840162002a0c565b908201526101206200292f83820162002a0c565b9082015292915050565b60006101008083850312156200294d578182fd5b6040519081019067ffffffffffffffff821181831017156200296b57fe5b816040528092506200297d8462002a0c565b81526200298d6020850162002a0c565b6020820152620029a06040850162002a0c565b6040820152620029b36060850162002a0c565b6060820152620029c66080850162002a0c565b6080820152620029d960a0850162002a0c565b60a0820152620029ec60c0850162002a0c565b60c0820152620029ff60e0850162002a0c565b60e0820152505092915050565b805160ff81168114620010e457600080fd5b60006020828403121562002a30578081fd5b8151620010bc816200300f565b6000602080838503121562002a50578182fd5b825167ffffffffffffffff81111562002a67578283fd5b8301601f8101851362002a78578283fd5b805162002a89620026b68262002fc1565b818152838101908385018584028501860189101562002aa6578687fd5b8694505b8385101562002ad557805162002ac0816200300f565b83526001949094019391850191850162002aaa565b50979650505050505050565b6000806040838503121562002af4578081fd5b825167ffffffffffffffff8082111562002b0c578283fd5b62002b1a8683870162002692565b935060209150818501518181111562002b31578384fd5b85019050601f8101861362002b44578283fd5b805162002b55620026b68262002fc1565b81815283810190838501858402850186018a101562002b72578687fd5b8694505b8385101562002b9657805183526001949094019391850191850162002b76565b5080955050505050509250929050565b6000806020838503121562002bb9578182fd5b823567ffffffffffffffff8082111562002bd1578384fd5b818501915085601f83011262002be5578384fd5b81358181111562002bf4578485fd5b866020808302850101111562002c08578485fd5b60209290920196919550909350505050565b60006020828403121562002c2c578081fd5b815167ffffffffffffffff8082111562002c44578283fd5b90830190610320828603121562002c59578283fd5b61012062002c678162002f9c565b62002c73878562002939565b815261010062002c85818601620027e7565b602083015262002c988884870162002857565b604083015262002cac610260860162002a0c565b606083015262002cc06102808601620027d6565b60808301526102a085015192508383111562002cda578586fd5b62002ce888848701620027f4565b60a08301526102c085015192508383111562002d02578586fd5b62002d1088848701620027f4565b60c08301526102e085015192508383111562002d2a578586fd5b62002d388884870162002692565b60e083015261030085015192508383111562002d52578586fd5b62002d608884870162002714565b908201529695505050505050565b60006020828403121562002d80578081fd5b5051919050565b6000806040838503121562002d9a578182fd5b505080516020909101519092909150565b60006020828403121562002dbd578081fd5b620010bc8262002a0c565b6000815180845262002de281602086016020860162002fe0565b601f01601f19169290920160200192915050565b6001600160a01b0391909116815260200190565b6001600160a01b039384168152919092166020820152604081019190915260600190565b6001600160a01b039290921682521515602082015260400190565b6001600160a01b038316815260406020820181905260009062001f429083018462002dc8565b6001600160a01b03929092168252602082015260400190565b60208082526013908201527254483a2061646472657373206973207a65726f60681b604082015260600190565b60208082526014908201527354483a20696e76616c696420646563696d616c7360601b604082015260600190565b60208082526019908201527f54483a20746f6b656e2063616e6e6f7420626520726573657400000000000000604082015260600190565b61ffff91909116815260200190565b61ffff851681526001600160a01b038416602082015260806040820181905260009062002f599083018562002dc8565b828103606084015262002f6d818562002dc8565b979650505050505050565b61ffff9290921682521515602082015260400190565b918252602082015260400190565b60405181810167ffffffffffffffff8111828210171562002fb957fe5b604052919050565b600067ffffffffffffffff82111562002fd657fe5b5060209081020190565b60005b8381101562002ffd57818101518382015260200162002fe3565b8381111562000d295750506000910152565b6001600160a01b03811681146200302557600080fd5b5056fe608060405260405161099b38038061099b8339818101604052604081101561002657600080fd5b81516020830180516040519294929383019291908464010000000082111561004d57600080fd5b90830190602082018581111561006257600080fd5b825164010000000081118282018810171561007c57600080fd5b82525081516020918201929091019080838360005b838110156100a9578181015183820152602001610091565b50505050905090810190601f1680156100d65780820380516001836020036101000a031916815260200191505b50604052508391508290506100ed828260006100f6565b505050506104fa565b6100ff836101c5565b6040516001600160a01b038416907f1cf3b03a6cf19fa2baba4df148e9dcabedea7f8a5c07840e207e5c089be95d3e90600090a26000825111806101405750805b156101c0576101be836001600160a01b0316635c60da1b6040518163ffffffff1660e01b815260040160206040518083038186803b15801561018157600080fd5b505afa158015610195573d6000803e3d6000fd5b505050506040513d60208110156101ab57600080fd5b50518361031e602090811b6100b717901c565b505b505050565b6101d88161034a60201b6100e31760201c565b6102135760405162461bcd60e51b81526004018080602001828103825260258152602001806108f96025913960400191505060405180910390fd5b61028b816001600160a01b0316635c60da1b6040518163ffffffff1660e01b815260040160206040518083038186803b15801561024f57600080fd5b505afa158015610263573d6000803e3d6000fd5b505050506040513d602081101561027957600080fd5b505161034a602090811b6100e317901c565b6102c65760405162461bcd60e51b815260040180806020018281038252603081526020018061096b6030913960400191505060405180910390fd5b806102fd7fa3f0ad74e5423aebfd80d3ef4346578335a9a72aeaee59ff6cb3582b35133d5060001b61035060201b6100e91760201c565b80546001600160a01b0319166001600160a01b039290921691909117905550565b6060610343838360405180606001604052806027815260200161091e60279139610353565b9392505050565b3b151590565b90565b606061035e8461034a565b6103995760405162461bcd60e51b81526004018080602001828103825260268152602001806109456026913960400191505060405180910390fd5b600080856001600160a01b0316856040518082805190602001908083835b602083106103d65780518252601f1990920191602091820191016103b7565b6001836020036101000a038019825116818451168082178552505050505050905001915050600060405180830381855af49150503d8060008114610436576040519150601f19603f3d011682016040523d82523d6000602084013e61043b565b606091505b50909250905061044c828286610456565b9695505050505050565b60608315610465575081610343565b8251156104755782518084602001fd5b8160405162461bcd60e51b81526004018080602001828103825283818151815260200191508051906020019080838360005b838110156104bf5781810151838201526020016104a7565b50505050905090810190601f1680156104ec5780820380516001836020036101000a031916815260200191505b509250505060405180910390fd5b6103f0806105096000396000f3fe60806040526004361061002d5760003560e01c80632d6b3a6b1461003e578063aaf10f421461006f57610034565b3661003457005b61003c610084565b005b34801561004a57600080fd5b5061005361009e565b604080516001600160a01b039092168252519081900360200190f35b34801561007b57600080fd5b506100536100ad565b61008c61009c565b61009c6100976100ec565b61015f565b565b60006100a8610183565b905090565b60006100a86100ec565b60606100dc838360405180606001604052806027815260200161036e6027913961018d565b9392505050565b3b151590565b90565b60006100f661028f565b6001600160a01b0316635c60da1b6040518163ffffffff1660e01b815260040160206040518083038186803b15801561012e57600080fd5b505afa158015610142573d6000803e3d6000fd5b505050506040513d602081101561015857600080fd5b5051905090565b3660008037600080366000845af43d6000803e80801561017e573d6000f35b3d6000fd5b60006100a861028f565b6060610198846100e3565b6101d35760405162461bcd60e51b81526004018080602001828103825260268152602001806103956026913960400191505060405180910390fd5b600080856001600160a01b0316856040518082805190602001908083835b602083106102105780518252601f1990920191602091820191016101f1565b6001836020036101000a038019825116818451168082178552505050505050905001915050600060405180830381855af49150503d8060008114610270576040519150601f19603f3d011682016040523d82523d6000602084013e610275565b606091505b50915091506102858282866102c9565b9695505050505050565b60006102ba7fa3f0ad74e5423aebfd80d3ef4346578335a9a72aeaee59ff6cb3582b35133d506100e9565b546001600160a01b0316905090565b606083156102d85750816100dc565b8251156102e85782518084602001fd5b8160405162461bcd60e51b81526004018080602001828103825283818151815260200191508051906020019080838360005b8381101561033257818101518382015260200161031a565b50505050905090810190601f16801561035f5780820380516001836020036101000a031916815260200191505b509250505060405180910390fdfe416464726573733a206c6f772d6c6576656c2064656c65676174652063616c6c206661696c6564416464726573733a2064656c65676174652063616c6c20746f206e6f6e2d636f6e7472616374a26469706673582212209140e03fcc039e1369cdf054f1cb597ce755a741c8c8a47edc66203d357ded6764736f6c63430007060033455243313936373a206e657720626561636f6e206973206e6f74206120636f6e7472616374416464726573733a206c6f772d6c6576656c2064656c65676174652063616c6c206661696c6564416464726573733a2064656c65676174652063616c6c20746f206e6f6e2d636f6e7472616374455243313936373a20626561636f6e20696d706c656d656e746174696f6e206973206e6f74206120636f6e7472616374455243313936373a206e657720696d706c656d656e746174696f6e206973206e6f74206120636f6e7472616374a2646970667358221220cbd7f9c37936b5336c8db09482e16199bb6b7a46d96f3e0f0b8acab0e868566264736f6c63430007060033","bytecodeSha1":"69476bdd600fb0cc7894fae2304b3d1997cd4dbf","compiler":{"evm_version":"istanbul","optimizer":{"enabled":true,"runs":200},"version":"0.7.6+commit.7338295f"},"contractName":"MigratePrimeCash","language":"Solidity","natspec":{"kind":"dev","methods":{"migratePrimeCash()":{"notice":"Executes the prime cash migration but does not upgradeTo the final router"}},"version":1},"opcodes":"PUSH1 0x80 PUSH1 0x40 MSTORE CALLVALUE DUP1 ISZERO PUSH3 0x11 JUMPI PUSH1 0x0 DUP1 REVERT JUMPDEST POP PUSH1 0x4 CALLDATASIZE LT PUSH3 0xAC JUMPI PUSH1 0x0 CALLDATALOAD PUSH1 0xE0 SHR DUP1 PUSH4 0x6456A464 GT PUSH3 0x6F JUMPI DUP1 PUSH4 0x6456A464 EQ PUSH3 0x130 JUMPI DUP1 PUSH4 0x7FB9CB12 EQ PUSH3 0x13A JUMPI DUP1 PUSH4 0x82463367 EQ PUSH3 0x144 JUMPI DUP1 PUSH4 0x8DA5CB5B EQ PUSH3 0x14E JUMPI DUP1 PUSH4 0xA32F8D5E EQ PUSH3 0x158 JUMPI PUSH3 0xAC JUMP JUMPDEST DUP1 PUSH4 0xADA1E5D EQ PUSH3 0xD9 JUMPI DUP1 PUSH4 0x22896120 EQ PUSH3 0xE3 JUMPI DUP1 PUSH4 0x24A3D622 EQ PUSH3 0x105 JUMPI DUP1 PUSH4 0x43DC9BB2 EQ PUSH3 0x10F JUMPI DUP1 PUSH4 0x58B787EB EQ PUSH3 0x119 JUMPI JUMPDEST PUSH3 0xD7 PUSH32 0x0 PUSH3 0x162 JUMP JUMPDEST STOP JUMPDEST PUSH3 0xD7 PUSH3 0x18C JUMP JUMPDEST PUSH3 0xED PUSH3 0x1EF JUMP JUMPDEST PUSH1 0x40 MLOAD PUSH3 0xFC SWAP2 SWAP1 PUSH3 0x2DF6 JUMP JUMPDEST PUSH1 0x40 MLOAD DUP1 SWAP2 SUB SWAP1 RETURN JUMPDEST PUSH3 0xED PUSH3 0x213 JUMP JUMPDEST PUSH3 0xED PUSH3 0x222 JUMP JUMPDEST PUSH3 0xD7 PUSH3 0x12A CALLDATASIZE PUSH1 0x4 PUSH3 0x2BA6 JUMP JUMPDEST PUSH3 0x246 JUMP JUMPDEST PUSH3 0xD7 PUSH3 0x34D JUMP JUMPDEST PUSH3 0xED PUSH3 0x53E JUMP JUMPDEST PUSH3 0xED PUSH3 0x562 JUMP JUMPDEST PUSH3 0xED PUSH3 0x571 JUMP JUMPDEST PUSH3 0xED PUSH3 0x588 JUMP JUMPDEST CALLDATASIZE PUSH1 0x0 DUP1 CALLDATACOPY PUSH1 0x0 DUP1 CALLDATASIZE PUSH1 0x0 DUP5 GAS DELEGATECALL RETURNDATASIZE PUSH1 0x0 DUP1 RETURNDATACOPY DUP1 DUP1 ISZERO PUSH3 0x182 JUMPI RETURNDATASIZE PUSH1 0x0 RETURN JUMPDEST RETURNDATASIZE PUSH1 0x0 REVERT JUMPDEST POP POP POP JUMP JUMPDEST CALLER PUSH1 0x1 PUSH1 0x1 PUSH1 0xA0 SHL SUB PUSH32 0x0 AND EQ PUSH3 0x1C2 JUMPI PUSH1 0x0 DUP1 REVERT JUMPDEST PUSH3 0x1ED PUSH32 0x0 PUSH3 0x5AC JUMP JUMPDEST JUMP JUMPDEST PUSH32 0x0 DUP2 JUMP JUMPDEST PUSH1 0x2 SLOAD PUSH1 0x1 PUSH1 0x1 PUSH1 0xA0 SHL SUB AND DUP2 JUMP JUMPDEST PUSH32 0x0 DUP2 JUMP JUMPDEST CALLER PUSH1 0x1 PUSH1 0x1 PUSH1 0xA0 SHL SUB PUSH32 0x0 AND EQ PUSH3 0x27C JUMPI PUSH1 0x0 DUP1 REVERT JUMPDEST PUSH1 0x40 MLOAD PUSH32 0xBA209BBCF165EEC38D9F29DCE187130C68B755E024158258F6DF847BEB8743A2 SWAP1 PUSH1 0x0 SWAP1 LOG1 DUP1 PUSH1 0x0 JUMPDEST DUP2 DUP2 LT ISZERO PUSH3 0x31E JUMPI PUSH1 0x0 DUP5 DUP5 DUP4 DUP2 DUP2 LT PUSH3 0x2C1 JUMPI INVALID JUMPDEST SWAP1 POP PUSH1 0x20 MUL ADD CALLDATALOAD SWAP1 POP PUSH1 0x0 DUP2 SWAP1 POP PUSH3 0x2DD DUP2 PUSH1 0x1 DUP5 PUSH3 0x5EE JUMP JUMPDEST PUSH3 0x2EB DUP2 PUSH1 0x2 DUP5 PUSH3 0x5EE JUMP JUMPDEST PUSH3 0x2F9 DUP2 PUSH1 0x3 DUP5 PUSH3 0x5EE JUMP JUMPDEST PUSH3 0x307 DUP2 PUSH1 0x4 DUP5 PUSH3 0x5EE JUMP JUMPDEST PUSH3 0x313 DUP2 DUP4 PUSH3 0x69D JUMP JUMPDEST POP POP PUSH1 0x1 ADD PUSH3 0x2A9 JUMP JUMPDEST POP PUSH1 0x40 MLOAD PUSH32 0x84B50B77FFCF488CA2647653283C1AAEF2E38026F66BCB49783BDF7FD1776A6D SWAP1 PUSH1 0x0 SWAP1 LOG1 POP POP POP JUMP JUMPDEST CALLER PUSH1 0x1 PUSH1 0x1 PUSH1 0xA0 SHL SUB PUSH32 0x0 AND EQ PUSH3 0x383 JUMPI PUSH1 0x0 DUP1 REVERT JUMPDEST PUSH1 0x0 SLOAD PUSH4 0x1000000 SWAP1 DIV PUSH1 0xFF AND ISZERO PUSH3 0x39B JUMPI PUSH1 0x0 DUP1 REVERT JUMPDEST PUSH1 0x0 DUP1 SLOAD PUSH4 0xFF000000 NOT AND PUSH4 0x1000000 OR DUP1 DUP3 SSTORE PUSH1 0x1 DUP1 SLOAD PUSH1 0x1 PUSH1 0x1 PUSH1 0xA0 SHL SUB PUSH32 0x0 AND PUSH1 0x1 PUSH1 0x1 PUSH1 0xA0 SHL SUB NOT SWAP1 SWAP2 AND OR SWAP1 SSTORE PUSH1 0x40 MLOAD PUSH2 0xFFFF SWAP1 SWAP2 AND SWAP2 PUSH32 0x4847247098579ED275CDE492F5B66EE93B2A8402C33DE324056AA02E42EC8874 SWAP2 LOG1 PUSH1 0x1 JUMPDEST DUP2 PUSH2 0xFFFF AND DUP2 PUSH2 0xFFFF AND GT PUSH3 0x53A JUMPI PUSH1 0x40 MLOAD PUSH4 0x75C22BDD PUSH1 0xE1 SHL DUP2 MSTORE PUSH1 0x0 SWAP1 PUSH1 0x1 PUSH1 0x1 PUSH1 0xA0 SHL SUB PUSH32 0x0 AND SWAP1 PUSH4 0xEB8457BA SWAP1 PUSH3 0x47D SWAP1 DUP6 SWAP1 PUSH1 0x4 ADD PUSH3 0x2F1A JUMP JUMPDEST PUSH1 0x0 PUSH1 0x40 MLOAD DUP1 DUP4 SUB DUP2 DUP7 DUP1 EXTCODESIZE ISZERO DUP1 ISZERO PUSH3 0x496 JUMPI PUSH1 0x0 DUP1 REVERT JUMPDEST POP GAS STATICCALL ISZERO DUP1 ISZERO PUSH3 0x4AB JUMPI RETURNDATASIZE PUSH1 0x0 DUP1 RETURNDATACOPY RETURNDATASIZE PUSH1 0x0 REVERT JUMPDEST POP POP POP POP PUSH1 0x40 MLOAD RETURNDATASIZE PUSH1 0x0 DUP3 RETURNDATACOPY PUSH1 0x1F RETURNDATASIZE SWAP1 DUP2 ADD PUSH1 0x1F NOT AND DUP3 ADD PUSH1 0x40 MSTORE PUSH3 0x4D5 SWAP2 SWAP1 DUP2 ADD SWAP1 PUSH3 0x2C1A JUMP JUMPDEST SWAP1 POP PUSH1 0x0 DUP1 PUSH3 0x4E5 DUP5 PUSH3 0x7A1 JUMP JUMPDEST SWAP2 POP SWAP2 POP PUSH3 0x4F7 DUP5 DUP4 DUP4 DUP7 PUSH3 0x907 JUMP JUMPDEST PUSH3 0x507 DUP5 DUP5 PUSH1 0x40 ADD MLOAD PUSH3 0xB16 JUMP JUMPDEST PUSH3 0x512 DUP5 PUSH3 0xB63 JUMP JUMPDEST PUSH3 0x523 DUP5 DUP5 PUSH2 0x100 ADD MLOAD PUSH3 0xC58 JUMP JUMPDEST PUSH3 0x52E DUP5 PUSH3 0xD2F JUMP JUMPDEST POP POP POP PUSH1 0x1 ADD PUSH3 0x41C JUMP JUMPDEST POP POP JUMP JUMPDEST PUSH32 0x0 DUP2 JUMP JUMPDEST PUSH1 0x1 SLOAD PUSH1 0x1 PUSH1 0x1 PUSH1 0xA0 SHL SUB AND DUP2 JUMP JUMPDEST PUSH1 0x0 SLOAD PUSH5 0x100000000 SWAP1 DIV PUSH1 0x1 PUSH1 0x1 PUSH1 0xA0 SHL SUB AND DUP2 JUMP JUMPDEST PUSH32 0x0 DUP2 JUMP JUMPDEST PUSH3 0x5B7 DUP2 PUSH3 0xE0D JUMP JUMPDEST PUSH1 0x40 MLOAD PUSH1 0x1 PUSH1 0x1 PUSH1 0xA0 SHL SUB DUP3 AND SWAP1 PUSH32 0xBC7CD75A20EE27FD9ADEBAB32041F755214DBC6BFFA90CC0225B39DA2E5C2D3B SWAP1 PUSH1 0x0 SWAP1 LOG2 POP JUMP JUMPDEST PUSH1 0x1 PUSH1 0xF8 SHL PUSH1 0x1 PUSH1 0x1 PUSH1 0xF8 SHL SUB NOT DUP3 AND PUSH1 0xFF DUP5 AND SHR AND DUP1 PUSH3 0x611 JUMPI POP PUSH3 0x187 JUMP JUMPDEST PUSH1 0x0 PUSH3 0x61D PUSH3 0xEA2 JUMP JUMPDEST PUSH1 0x1 PUSH1 0x1 PUSH1 0xA0 SHL SUB DUP7 AND PUSH1 0x0 SWAP1 DUP2 MSTORE PUSH1 0x20 DUP3 DUP2 MSTORE PUSH1 0x40 DUP1 DUP4 KECCAK256 PUSH1 0xFF DUP10 AND DUP5 MSTORE SWAP1 SWAP2 MSTORE SWAP1 KECCAK256 DUP1 SLOAD SWAP2 SWAP3 POP SWAP1 PUSH1 0x1 PUSH1 0x1 PUSH1 0x50 SHL SUB AND DUP1 ISZERO PUSH3 0x669 JUMPI PUSH3 0x669 PUSH1 0x0 DUP9 DUP9 PUSH1 0xFF AND DUP5 PUSH3 0xEB7 JUMP JUMPDEST DUP2 SLOAD PUSH1 0x1 PUSH1 0xA8 SHL SWAP1 DIV PUSH1 0xA SWAP1 DUP2 SIGNEXTEND SWAP1 SIGNEXTEND PUSH1 0x0 DUP2 SGT ISZERO PUSH3 0x693 JUMPI PUSH3 0x693 DUP9 DUP9 PUSH1 0xFF AND DUP4 PUSH3 0xFD8 JUMP JUMPDEST POP POP POP POP POP POP POP POP JUMP JUMPDEST PUSH1 0xFF PUSH1 0xF0 DUP3 SWAP1 SHR AND DUP1 PUSH3 0x6B2 JUMPI POP PUSH3 0x53A JUMP JUMPDEST PUSH1 0x0 PUSH3 0x6C0 DUP5 DUP4 PUSH3 0x105E JUMP JUMPDEST SWAP1 POP PUSH1 0x0 JUMPDEST DUP2 MLOAD DUP2 LT ISZERO PUSH3 0x79A JUMPI PUSH1 0x0 DUP3 DUP3 DUP2 MLOAD DUP2 LT PUSH3 0x6DE JUMPI INVALID JUMPDEST PUSH1 0x20 MUL PUSH1 0x20 ADD ADD MLOAD PUSH1 0x0 ADD MLOAD SWAP1 POP PUSH1 0x0 DUP4 DUP4 DUP2 MLOAD DUP2 LT PUSH3 0x6FB JUMPI INVALID JUMPDEST PUSH1 0x20 MUL PUSH1 0x20 ADD ADD MLOAD PUSH1 0x20 ADD MLOAD SWAP1 POP PUSH1 0x0 DUP5 DUP5 DUP2 MLOAD DUP2 LT PUSH3 0x718 JUMPI INVALID JUMPDEST PUSH1 0x20 MUL PUSH1 0x20 ADD ADD MLOAD PUSH1 0x60 ADD MLOAD SWAP1 POP PUSH1 0x0 PUSH3 0x735 DUP5 DUP5 DUP5 PUSH3 0x1074 JUMP JUMPDEST SWAP1 POP PUSH1 0x1 PUSH1 0x1 PUSH1 0xA0 SHL SUB DUP10 AND PUSH1 0x0 CALLER PUSH32 0xC3D58168C5AE7397731D063D5BBF3D657854427343F4C083240F7AACAA2D0F62 DUP5 PUSH3 0x771 DUP8 PUSH3 0x10C3 JUMP JUMPDEST PUSH1 0x40 MLOAD PUSH3 0x781 SWAP3 SWAP2 SWAP1 PUSH3 0x2F8E JUMP JUMPDEST PUSH1 0x40 MLOAD DUP1 SWAP2 SUB SWAP1 LOG4 POP POP PUSH1 0x1 SWAP1 SWAP3 ADD SWAP2 POP PUSH3 0x6C5 SWAP1 POP JUMP JUMPDEST POP POP POP POP POP JUMP JUMPDEST PUSH3 0x7AB PUSH3 0x2610 JUMP JUMPDEST PUSH3 0x7B5 PUSH3 0x2610 JUMP JUMPDEST PUSH3 0x7C4 DUP4 PUSH2 0xFFFF AND PUSH3 0x10E9 JUMP JUMPDEST SWAP2 POP PUSH1 0x4 DUP3 PUSH1 0x60 ADD MLOAD PUSH1 0x5 DUP2 GT ISZERO PUSH3 0x7D9 JUMPI INVALID JUMPDEST EQ ISZERO PUSH3 0x8A4 JUMPI PUSH1 0x40 DUP1 MLOAD PUSH1 0xA0 DUP2 ADD DUP3 MSTORE DUP4 MLOAD PUSH1 0x1 PUSH1 0x1 PUSH1 0xA0 SHL SUB AND DUP2 MSTORE PUSH1 0x20 DUP1 DUP6 ADD MLOAD ISZERO ISZERO SWAP1 DUP3 ADD MSTORE PUSH3 0x8A4 SWAP2 PUSH2 0xFFFF DUP7 AND SWAP2 SWAP1 DUP2 ADD PUSH1 0x0 DUP2 MSTORE PUSH1 0x20 ADD DUP6 PUSH1 0x0 ADD MLOAD PUSH1 0x1 PUSH1 0x1 PUSH1 0xA0 SHL SUB AND PUSH4 0x313CE567 PUSH1 0x40 MLOAD DUP2 PUSH4 0xFFFFFFFF AND PUSH1 0xE0 SHL DUP2 MSTORE PUSH1 0x4 ADD PUSH1 0x20 PUSH1 0x40 MLOAD DUP1 DUP4 SUB DUP2 DUP7 DUP1 EXTCODESIZE ISZERO DUP1 ISZERO PUSH3 0x856 JUMPI PUSH1 0x0 DUP1 REVERT JUMPDEST POP GAS STATICCALL ISZERO DUP1 ISZERO PUSH3 0x86B JUMPI RETURNDATASIZE PUSH1 0x0 DUP1 RETURNDATACOPY RETURNDATASIZE PUSH1 0x0 REVERT JUMPDEST POP POP POP POP PUSH1 0x40 MLOAD RETURNDATASIZE PUSH1 0x1F NOT PUSH1 0x1F DUP3 ADD AND DUP3 ADD DUP1 PUSH1 0x40 MSTORE POP DUP2 ADD SWAP1 PUSH3 0x891 SWAP2 SWAP1 PUSH3 0x2DAB JUMP JUMPDEST PUSH1 0xFF AND DUP2 MSTORE PUSH1 0x0 PUSH1 0x20 SWAP1 SWAP2 ADD MSTORE PUSH3 0x1100 JUMP JUMPDEST DUP2 MLOAD PUSH1 0x1 PUSH1 0x1 PUSH1 0xA0 SHL SUB AND PUSH1 0x0 SWAP1 DUP2 MSTORE PUSH1 0x9 PUSH1 0x20 MSTORE PUSH1 0x40 SWAP1 KECCAK256 DUP1 SLOAD PUSH2 0xFFFF NOT AND SWAP1 SSTORE PUSH3 0x8D5 PUSH2 0xFFFF DUP5 AND PUSH3 0x133C JUMP JUMPDEST DUP1 MLOAD PUSH1 0x1 PUSH1 0x1 PUSH1 0xA0 SHL SUB AND PUSH1 0x0 SWAP1 DUP2 MSTORE PUSH1 0x9 PUSH1 0x20 MSTORE PUSH1 0x40 SWAP1 KECCAK256 DUP1 SLOAD PUSH2 0xFFFF NOT AND PUSH2 0xFFFF SWAP6 SWAP1 SWAP6 AND SWAP5 SWAP1 SWAP5 OR SWAP1 SWAP4 SSTORE POP SWAP2 JUMP JUMPDEST PUSH3 0x917 DUP5 DUP3 PUSH1 0x20 ADD MLOAD PUSH3 0x1353 JUMP JUMPDEST PUSH1 0x0 PUSH3 0x9C9 PUSH3 0x9C3 PUSH3 0x9BD PUSH3 0x9B5 DUP8 PUSH1 0x0 ADD MLOAD PUSH1 0x1 PUSH1 0x1 PUSH1 0xA0 SHL SUB AND PUSH4 0x70A08231 ADDRESS PUSH1 0x40 MLOAD DUP3 PUSH4 0xFFFFFFFF AND PUSH1 0xE0 SHL DUP2 MSTORE PUSH1 0x4 ADD PUSH3 0x95B SWAP2 SWAP1 PUSH3 0x2DF6 JUMP JUMPDEST PUSH1 0x20 PUSH1 0x40 MLOAD DUP1 DUP4 SUB DUP2 DUP7 DUP1 EXTCODESIZE ISZERO DUP1 ISZERO PUSH3 0x974 JUMPI PUSH1 0x0 DUP1 REVERT JUMPDEST POP GAS STATICCALL ISZERO DUP1 ISZERO PUSH3 0x989 JUMPI RETURNDATASIZE PUSH1 0x0 DUP1 RETURNDATACOPY RETURNDATASIZE PUSH1 0x0 REVERT JUMPDEST POP POP POP POP PUSH1 0x40 MLOAD RETURNDATASIZE PUSH1 0x1F NOT PUSH1 0x1F DUP3 ADD AND DUP3 ADD DUP1 PUSH1 0x40 MSTORE POP DUP2 ADD SWAP1 PUSH3 0x9AF SWAP2 SWAP1 PUSH3 0x2D6E JUMP JUMPDEST PUSH3 0x15C2 JUMP JUMPDEST DUP8 SWAP1 PUSH3 0x15D9 JUMP JUMPDEST PUSH3 0x1615 JUMP JUMPDEST PUSH3 0x1625 JUMP JUMPDEST SWAP1 POP PUSH3 0x9EB DUP6 DUP3 DUP5 PUSH1 0x0 ADD MLOAD DUP6 PUSH1 0x20 ADD MLOAD DUP7 PUSH1 0x80 ADD MLOAD DUP8 PUSH1 0x60 ADD MLOAD PUSH3 0x163C JUMP JUMPDEST PUSH1 0x0 DUP6 DUP5 PUSH1 0x0 ADD MLOAD DUP5 PUSH1 0xA0 ADD MLOAD DUP6 PUSH1 0xC0 ADD MLOAD PUSH1 0x40 MLOAD PUSH1 0x24 ADD PUSH3 0xA12 SWAP5 SWAP4 SWAP3 SWAP2 SWAP1 PUSH3 0x2F29 JUMP JUMPDEST PUSH1 0x40 DUP1 MLOAD PUSH1 0x1F NOT DUP2 DUP5 SUB ADD DUP2 MSTORE SWAP2 DUP2 MSTORE PUSH1 0x20 DUP3 ADD DUP1 MLOAD PUSH1 0x1 PUSH1 0x1 PUSH1 0xE0 SHL SUB AND PUSH4 0x54C938A7 PUSH1 0xE1 SHL OR SWAP1 MSTORE MLOAD SWAP1 SWAP2 POP PUSH1 0x0 SWAP1 PUSH20 0x1F681977AF5392D9CA5572FB394BC4D12939A6A9 SWAP1 DUP4 SWAP1 PUSH3 0xA66 SWAP1 PUSH3 0x263F JUMP JUMPDEST PUSH3 0xA73 SWAP3 SWAP2 SWAP1 PUSH3 0x2E49 JUMP JUMPDEST PUSH1 0x40 MLOAD DUP1 SWAP2 SUB SWAP1 PUSH1 0x0 CREATE DUP1 ISZERO DUP1 ISZERO PUSH3 0xA90 JUMPI RETURNDATASIZE PUSH1 0x0 DUP1 RETURNDATACOPY RETURNDATASIZE PUSH1 0x0 REVERT JUMPDEST POP SWAP1 POP PUSH3 0xAA1 DUP8 DUP3 PUSH1 0x1 PUSH3 0x1842 JUMP JUMPDEST DUP4 PUSH1 0x80 ADD MLOAD ISZERO PUSH3 0xB0D JUMPI PUSH1 0x0 PUSH20 0xDF08039C0AF34E34660AC7C2705C0DA953247640 DUP4 PUSH1 0x40 MLOAD PUSH3 0xAD2 SWAP1 PUSH3 0x263F JUMP JUMPDEST PUSH3 0xADF SWAP3 SWAP2 SWAP1 PUSH3 0x2E49 JUMP JUMPDEST PUSH1 0x40 MLOAD DUP1 SWAP2 SUB SWAP1 PUSH1 0x0 CREATE DUP1 ISZERO DUP1 ISZERO PUSH3 0xAFC JUMPI RETURNDATASIZE PUSH1 0x0 DUP1 RETURNDATACOPY RETURNDATASIZE PUSH1 0x0 REVERT JUMPDEST POP SWAP1 POP PUSH3 0x693 DUP9 DUP3 PUSH1 0x0 PUSH3 0x1842 JUMP JUMPDEST POP POP POP POP POP POP POP JUMP JUMPDEST PUSH3 0xB26 DUP3 PUSH2 0xFFFF AND DUP3 PUSH3 0x18FD JUMP JUMPDEST PUSH32 0x8FD2367AAACA3606DEE299BBEF980DA42D4E906E355F28C3DD3A2F4D81D6B463 DUP3 PUSH1 0x40 MLOAD PUSH3 0xB57 SWAP2 SWAP1 PUSH3 0x2F1A JUMP JUMPDEST PUSH1 0x40 MLOAD DUP1 SWAP2 SUB SWAP1 LOG1 POP POP JUMP JUMPDEST PUSH1 0x40 MLOAD PUSH4 0x2188691D PUSH1 0xE0 SHL DUP2 MSTORE PUSH1 0x0 SWAP1 PUSH1 0x1 PUSH1 0x1 PUSH1 0xA0 SHL SUB PUSH32 0x0 AND SWAP1 PUSH4 0x2188691D SWAP1 PUSH3 0xBB7 SWAP1 DUP6 SWAP1 PUSH1 0x1 SWAP1 PUSH1 0x4 ADD PUSH3 0x2F78 JUMP JUMPDEST PUSH1 0x0 PUSH1 0x40 MLOAD DUP1 DUP4 SUB DUP2 DUP7 DUP1 EXTCODESIZE ISZERO DUP1 ISZERO PUSH3 0xBD0 JUMPI PUSH1 0x0 DUP1 REVERT JUMPDEST POP GAS STATICCALL ISZERO DUP1 ISZERO PUSH3 0xBE5 JUMPI RETURNDATASIZE PUSH1 0x0 DUP1 RETURNDATACOPY RETURNDATASIZE PUSH1 0x0 REVERT JUMPDEST POP POP POP POP PUSH1 0x40 MLOAD RETURNDATASIZE PUSH1 0x0 DUP3 RETURNDATACOPY PUSH1 0x1F RETURNDATASIZE SWAP1 DUP2 ADD PUSH1 0x1F NOT AND DUP3 ADD PUSH1 0x40 MSTORE PUSH3 0xC0F SWAP2 SWAP1 DUP2 ADD SWAP1 PUSH3 0x2AE1 JUMP JUMPDEST POP SWAP1 POP PUSH1 0x0 JUMPDEST DUP2 MLOAD DUP2 LT ISZERO PUSH3 0xC4C JUMPI PUSH3 0xC43 DUP4 DUP3 PUSH1 0x1 ADD DUP5 DUP5 DUP2 MLOAD DUP2 LT PUSH3 0xC35 JUMPI INVALID JUMPDEST PUSH1 0x20 MUL PUSH1 0x20 ADD ADD MLOAD PUSH3 0x1AB7 JUMP JUMPDEST PUSH1 0x1 ADD PUSH3 0xC15 JUMP JUMPDEST POP PUSH3 0x53A DUP3 PUSH3 0x1B3C JUMP JUMPDEST PUSH1 0x0 PUSH3 0xC64 PUSH3 0x1B8F JUMP JUMPDEST SWAP1 POP PUSH1 0x0 JUMPDEST DUP3 MLOAD DUP2 LT ISZERO PUSH3 0xD29 JUMPI DUP3 DUP2 DUP2 MLOAD DUP2 LT PUSH3 0xC80 JUMPI INVALID JUMPDEST PUSH1 0x20 MUL PUSH1 0x20 ADD ADD MLOAD PUSH1 0x0 ADD MLOAD PUSH5 0xFFFFFFFFFF AND TIMESTAMP LT PUSH3 0xC9F JUMPI PUSH1 0x0 DUP1 REVERT JUMPDEST DUP3 DUP2 DUP2 MLOAD DUP2 LT PUSH3 0xCAC JUMPI INVALID JUMPDEST PUSH1 0x20 MUL PUSH1 0x20 ADD ADD MLOAD PUSH1 0x20 ADD MLOAD DUP3 PUSH1 0x0 DUP7 PUSH2 0xFFFF AND DUP2 MSTORE PUSH1 0x20 ADD SWAP1 DUP2 MSTORE PUSH1 0x20 ADD PUSH1 0x0 KECCAK256 PUSH1 0x0 DUP6 DUP5 DUP2 MLOAD DUP2 LT PUSH3 0xCDD JUMPI INVALID JUMPDEST PUSH1 0x20 SWAP1 DUP2 MUL SWAP2 SWAP1 SWAP2 ADD DUP2 ADD MLOAD MLOAD PUSH5 0xFFFFFFFFFF AND DUP3 MSTORE DUP2 ADD SWAP2 SWAP1 SWAP2 MSTORE PUSH1 0x40 ADD PUSH1 0x0 KECCAK256 DUP1 SLOAD PUSH10 0xFFFFFFFFFFFFFFFFFFFF NOT AND PUSH1 0x1 PUSH1 0x1 PUSH1 0x50 SHL SUB SWAP3 SWAP1 SWAP3 AND SWAP2 SWAP1 SWAP2 OR SWAP1 SSTORE PUSH1 0x1 ADD PUSH3 0xC69 JUMP JUMPDEST POP POP POP POP JUMP JUMPDEST PUSH1 0x0 PUSH3 0xD3B PUSH3 0xEA2 JUMP JUMPDEST PUSH1 0x0 DUP1 DUP1 MSTORE PUSH1 0x20 DUP3 DUP2 MSTORE PUSH1 0x40 DUP1 DUP4 KECCAK256 PUSH2 0xFFFF SWAP1 SWAP7 AND DUP1 DUP5 MSTORE DUP7 DUP4 MSTORE DUP2 DUP5 KECCAK256 PUSH2 0xFEE DUP6 MSTORE SWAP5 DUP4 MSTORE DUP2 DUP5 KECCAK256 DUP2 DUP6 MSTORE DUP4 MSTORE SWAP1 DUP4 KECCAK256 DUP5 SLOAD DUP2 SLOAD PUSH10 0xFFFFFFFFFFFFFFFFFFFF NOT AND PUSH1 0x1 PUSH1 0x1 PUSH1 0x50 SHL SUB SWAP1 SWAP2 AND OR DUP1 DUP3 SSTORE DUP6 SLOAD PUSH4 0xFFFFFFFF PUSH1 0x1 PUSH1 0x50 SHL SWAP2 DUP3 SWAP1 DIV AND MUL PUSH4 0xFFFFFFFF PUSH1 0x50 SHL NOT SWAP1 SWAP2 AND OR DUP1 DUP3 SSTORE DUP6 SLOAD PUSH7 0xFFFFFFFFFFFFFF PUSH1 0x1 PUSH1 0x70 SHL SWAP2 DUP3 SWAP1 DIV AND MUL PUSH7 0xFFFFFFFFFFFFFF PUSH1 0x70 SHL NOT SWAP1 SWAP2 AND OR DUP1 DUP3 SSTORE DUP6 SLOAD PUSH1 0x1 PUSH1 0xA8 SHL SWAP1 DUP2 SWAP1 DIV PUSH1 0xA SWAP1 DUP2 SIGNEXTEND SWAP1 SIGNEXTEND PUSH1 0x1 PUSH1 0x1 PUSH1 0x58 SHL SUB AND MUL PUSH1 0x1 PUSH1 0x1 PUSH1 0xA8 SHL SUB SWAP1 SWAP2 AND OR SWAP1 SSTORE DUP3 MSTORE SWAP4 SWAP1 SWAP4 MSTORE SWAP2 SWAP1 SWAP2 SSTORE POP JUMP JUMPDEST PUSH3 0xE18 DUP2 PUSH3 0x1B9E JUMP JUMPDEST PUSH3 0xE55 JUMPI PUSH1 0x40 MLOAD PUSH3 0x461BCD PUSH1 0xE5 SHL DUP2 MSTORE PUSH1 0x4 ADD DUP1 DUP1 PUSH1 0x20 ADD DUP3 DUP2 SUB DUP3 MSTORE PUSH1 0x2D DUP2 MSTORE PUSH1 0x20 ADD DUP1 PUSH3 0x39C4 PUSH1 0x2D SWAP2 CODECOPY PUSH1 0x40 ADD SWAP2 POP POP PUSH1 0x40 MLOAD DUP1 SWAP2 SUB SWAP1 REVERT JUMPDEST DUP1 PUSH3 0xE81 PUSH32 0x360894A13BA1A3210667C828492DB98DCA3E2076CC3735A920A3CA505D382BBC PUSH3 0x1BA4 JUMP JUMPDEST DUP1 SLOAD PUSH1 0x1 PUSH1 0x1 PUSH1 0xA0 SHL SUB NOT AND PUSH1 0x1 PUSH1 0x1 PUSH1 0xA0 SHL SUB SWAP3 SWAP1 SWAP3 AND SWAP2 SWAP1 SWAP2 OR SWAP1 SSTORE POP JUMP JUMPDEST PUSH1 0x0 DUP1 PUSH3 0xEB1 PUSH1 0x6 PUSH3 0x1BA7 JUMP JUMPDEST SWAP3 SWAP2 POP POP JUMP JUMPDEST PUSH1 0x0 PUSH3 0xEC3 PUSH3 0x1BC1 JUMP JUMPDEST PUSH2 0xFFFF DUP5 AND PUSH1 0x0 SWAP1 DUP2 MSTORE PUSH1 0x20 SWAP2 SWAP1 SWAP2 MSTORE PUSH1 0x40 DUP2 KECCAK256 SLOAD PUSH1 0x1 PUSH1 0x1 PUSH1 0xA0 SHL SUB AND SWAP2 POP DUP3 SLT ISZERO PUSH3 0xEEF JUMPI SWAP3 SWAP4 SWAP3 JUMPDEST PUSH1 0x0 PUSH3 0xEFC DUP4 PUSH3 0x10C3 JUMP JUMPDEST SWAP1 POP PUSH3 0xF09 DUP5 PUSH3 0x1BD0 JUMP JUMPDEST ISZERO PUSH3 0xF69 JUMPI PUSH1 0x1 PUSH1 0x1 PUSH1 0xA0 SHL SUB DUP1 DUP7 AND SWAP1 DUP8 AND CALLER PUSH32 0xC3D58168C5AE7397731D063D5BBF3D657854427343F4C083240F7AACAA2D0F62 PUSH3 0xF4A DUP9 PUSH3 0x1BFA JUMP JUMPDEST DUP6 PUSH1 0x40 MLOAD PUSH3 0xF5B SWAP3 SWAP2 SWAP1 PUSH3 0x2F8E JUMP JUMPDEST PUSH1 0x40 MLOAD DUP1 SWAP2 SUB SWAP1 LOG4 PUSH3 0xFD0 JUMP JUMPDEST PUSH1 0x40 MLOAD PUSH4 0x23DE6651 PUSH1 0xE0 SHL DUP2 MSTORE PUSH1 0x1 PUSH1 0x1 PUSH1 0xA0 SHL SUB DUP4 AND SWAP1 PUSH4 0x23DE6651 SWAP1 PUSH3 0xF9B SWAP1 DUP10 SWAP1 DUP10 SWAP1 DUP7 SWAP1 PUSH1 0x4 ADD PUSH3 0x2E0A JUMP JUMPDEST PUSH1 0x0 PUSH1 0x40 MLOAD DUP1 DUP4 SUB DUP2 PUSH1 0x0 DUP8 DUP1 EXTCODESIZE ISZERO DUP1 ISZERO PUSH3 0xFB6 JUMPI PUSH1 0x0 DUP1 REVERT JUMPDEST POP GAS CALL ISZERO DUP1 ISZERO PUSH3 0xFCB JUMPI RETURNDATASIZE PUSH1 0x0 DUP1 RETURNDATACOPY RETURNDATASIZE PUSH1 0x0 REVERT JUMPDEST POP POP POP POP JUMPDEST POP POP POP POP POP POP JUMP JUMPDEST PUSH1 0x0 PUSH3 0xFE4 PUSH3 0x1C0D JUMP JUMPDEST PUSH2 0xFFFF DUP5 AND PUSH1 0x0 SWAP1 DUP2 MSTORE PUSH1 0x20 SWAP2 SWAP1 SWAP2 MSTORE PUSH1 0x40 SWAP1 DUP2 SWAP1 KECCAK256 SLOAD SWAP1 MLOAD PUSH4 0xAD1C095D PUSH1 0xE0 SHL DUP2 MSTORE PUSH1 0x1 PUSH1 0x1 PUSH1 0xA0 SHL SUB SWAP1 SWAP2 AND SWAP2 POP DUP2 SWAP1 PUSH4 0xAD1C095D SWAP1 PUSH3 0x102E SWAP1 DUP8 SWAP1 DUP7 SWAP1 PUSH1 0x4 ADD PUSH3 0x2E6F JUMP JUMPDEST PUSH1 0x0 PUSH1 0x40 MLOAD DUP1 DUP4 SUB DUP2 PUSH1 0x0 DUP8 DUP1 EXTCODESIZE ISZERO DUP1 ISZERO PUSH3 0x1049 JUMPI PUSH1 0x0 DUP1 REVERT JUMPDEST POP GAS CALL ISZERO DUP1 ISZERO PUSH3 0x693 JUMPI RETURNDATASIZE PUSH1 0x0 DUP1 RETURNDATACOPY RETURNDATASIZE PUSH1 0x0 REVERT JUMPDEST PUSH1 0x60 PUSH3 0x106C DUP4 DUP4 PUSH3 0x1C1C JUMP JUMPDEST POP SWAP4 SWAP3 POP POP POP JUMP JUMPDEST PUSH1 0x0 PUSH2 0x3FFF PUSH2 0xFFFF DUP6 AND GT ISZERO PUSH3 0x108A JUMPI PUSH1 0x0 DUP1 REVERT JUMPDEST PUSH5 0xFFFFFFFFFF DUP4 GT ISZERO PUSH3 0x109D JUMPI PUSH1 0x0 DUP1 REVERT JUMPDEST PUSH3 0x10A9 DUP5 DUP5 PUSH3 0x1C41 JUMP JUMPDEST SWAP1 POP PUSH1 0x0 DUP3 SLT ISZERO PUSH3 0x10BC JUMPI PUSH1 0x1 PUSH1 0x40 SHL OR JUMPDEST SWAP4 SWAP3 POP POP POP JUMP JUMPDEST PUSH1 0x0 DUP1 DUP3 SLT ISZERO PUSH3 0x10E1 JUMPI PUSH3 0x10D9 DUP3 PUSH3 0x1C5C JUMP JUMPDEST SWAP1 POP PUSH3 0x10E4 JUMP JUMPDEST POP DUP1 JUMPDEST SWAP2 SWAP1 POP JUMP JUMPDEST PUSH3 0x10F3 PUSH3 0x2610 JUMP JUMPDEST PUSH3 0xEB1 DUP3 PUSH1 0x0 PUSH3 0x1C6C JUMP JUMPDEST PUSH1 0x0 PUSH3 0x110C PUSH3 0x1D0B JUMP JUMPDEST SWAP1 POP PUSH1 0x3 DUP3 PUSH1 0x40 ADD MLOAD PUSH1 0x5 DUP2 GT ISZERO PUSH3 0x1121 JUMPI INVALID JUMPDEST EQ DUP1 ISZERO PUSH3 0x112F JUMPI POP PUSH1 0x1 DUP4 EQ JUMPDEST ISZERO PUSH3 0x1173 JUMPI PUSH1 0x0 DUP4 DUP2 MSTORE PUSH1 0x20 SWAP2 DUP3 MSTORE PUSH1 0x40 DUP1 DUP3 KECCAK256 PUSH1 0x1 DUP4 MSTORE SWAP1 SWAP3 MSTORE KECCAK256 DUP1 SLOAD PUSH1 0x1 PUSH1 0x1 PUSH1 0xB0 SHL SUB NOT AND PUSH1 0x3 PUSH1 0xA8 SHL OR PUSH1 0xFF PUSH1 0xB0 SHL NOT AND PUSH1 0x9 PUSH1 0xB1 SHL OR SWAP1 SSTORE PUSH3 0x53A JUMP JUMPDEST DUP2 MLOAD PUSH1 0x1 PUSH1 0x1 PUSH1 0xA0 SHL SUB AND PUSH3 0x11A6 JUMPI PUSH1 0x40 MLOAD PUSH3 0x461BCD PUSH1 0xE5 SHL DUP2 MSTORE PUSH1 0x4 ADD PUSH3 0x119D SWAP1 PUSH3 0x2E88 JUMP JUMPDEST PUSH1 0x40 MLOAD DUP1 SWAP2 SUB SWAP1 REVERT JUMPDEST PUSH1 0x0 PUSH3 0x11B5 DUP5 PUSH1 0x1 PUSH3 0x1C6C JUMP JUMPDEST DUP4 MLOAD DUP2 MLOAD SWAP2 SWAP3 POP PUSH1 0x1 PUSH1 0x1 PUSH1 0xA0 SHL SUB SWAP2 DUP3 AND SWAP2 AND EQ DUP1 PUSH3 0x11DE JUMPI POP DUP1 MLOAD PUSH1 0x1 PUSH1 0x1 PUSH1 0xA0 SHL SUB AND ISZERO JUMPDEST PUSH3 0x11FD JUMPI PUSH1 0x40 MLOAD PUSH3 0x461BCD PUSH1 0xE5 SHL DUP2 MSTORE PUSH1 0x4 ADD PUSH3 0x119D SWAP1 PUSH3 0x2EE3 JUMP JUMPDEST DUP3 PUSH1 0x60 ADD MLOAD PUSH1 0xFF AND PUSH1 0x0 LT DUP1 ISZERO PUSH3 0x121D JUMPI POP PUSH1 0x24 DUP4 PUSH1 0x60 ADD MLOAD PUSH1 0xFF AND GT ISZERO JUMPDEST PUSH3 0x123C JUMPI PUSH1 0x40 MLOAD PUSH3 0x461BCD PUSH1 0xE5 SHL DUP2 MSTORE PUSH1 0x4 ADD PUSH3 0x119D SWAP1 PUSH3 0x2EB5 JUMP JUMPDEST PUSH1 0x3 DUP4 PUSH1 0x40 ADD MLOAD PUSH1 0x5 DUP2 GT ISZERO PUSH3 0x124F JUMPI INVALID JUMPDEST EQ ISZERO PUSH3 0x125B JUMPI PUSH1 0x0 DUP1 REVERT JUMPDEST PUSH1 0x0 DUP4 PUSH1 0x40 ADD MLOAD PUSH1 0x5 DUP2 GT ISZERO PUSH3 0x126E JUMPI INVALID JUMPDEST EQ PUSH3 0x1279 JUMPI PUSH1 0x0 DUP1 REVERT JUMPDEST PUSH1 0x0 DUP5 DUP2 MSTORE PUSH1 0x20 DUP4 DUP2 MSTORE PUSH1 0x40 DUP1 DUP4 KECCAK256 PUSH1 0x1 DUP5 MSTORE DUP3 MSTORE SWAP2 DUP3 SWAP1 KECCAK256 DUP6 MLOAD DUP2 SLOAD SWAP3 DUP8 ADD MLOAD ISZERO ISZERO PUSH1 0x1 PUSH1 0xA0 SHL MUL PUSH1 0xFF PUSH1 0xA0 SHL NOT PUSH1 0x1 PUSH1 0x1 PUSH1 0xA0 SHL SUB SWAP1 SWAP3 AND PUSH1 0x1 PUSH1 0x1 PUSH1 0xA0 SHL SUB NOT SWAP1 SWAP5 AND SWAP4 SWAP1 SWAP4 OR AND SWAP2 SWAP1 SWAP2 OR DUP1 DUP3 SSTORE SWAP2 DUP6 ADD MLOAD DUP6 SWAP3 DUP3 SWAP1 PUSH1 0xFF PUSH1 0xA8 SHL NOT AND PUSH1 0x1 PUSH1 0xA8 SHL DUP4 PUSH1 0x5 DUP2 GT ISZERO PUSH3 0x12EC JUMPI INVALID JUMPDEST MUL OR SWAP1 SSTORE POP PUSH1 0x60 DUP3 ADD MLOAD DUP2 SLOAD PUSH1 0x80 SWAP1 SWAP4 ADD MLOAD PUSH9 0xFFFFFFFFFFFFFFFFFF AND PUSH1 0x1 PUSH1 0xB8 SHL MUL PUSH1 0x1 PUSH1 0x1 PUSH1 0xB8 SHL SUB PUSH1 0xFF SWAP1 SWAP3 AND PUSH1 0x1 PUSH1 0xB0 SHL MUL PUSH1 0xFF PUSH1 0xB0 SHL NOT SWAP1 SWAP5 AND SWAP4 SWAP1 SWAP4 OR AND SWAP2 SWAP1 SWAP2 OR SWAP1 SSTORE POP POP POP POP JUMP JUMPDEST PUSH3 0x1346 PUSH3 0x2610 JUMP JUMPDEST PUSH3 0xEB1 DUP3 PUSH1 0x1 PUSH3 0x1C6C JUMP JUMPDEST PUSH1 0x0 DUP2 PUSH1 0x1 PUSH1 0x1 PUSH1 0xA0 SHL SUB AND PUSH4 0xE79BF13B PUSH1 0x40 MLOAD DUP2 PUSH4 0xFFFFFFFF AND PUSH1 0xE0 SHL DUP2 MSTORE PUSH1 0x4 ADD PUSH1 0x0 PUSH1 0x40 MLOAD DUP1 DUP4 SUB DUP2 DUP7 DUP1 EXTCODESIZE ISZERO DUP1 ISZERO PUSH3 0x138F JUMPI PUSH1 0x0 DUP1 REVERT JUMPDEST POP GAS STATICCALL ISZERO DUP1 ISZERO PUSH3 0x13A4 JUMPI RETURNDATASIZE PUSH1 0x0 DUP1 RETURNDATACOPY RETURNDATASIZE PUSH1 0x0 REVERT JUMPDEST POP POP POP POP PUSH1 0x40 MLOAD RETURNDATASIZE PUSH1 0x0 DUP3 RETURNDATACOPY PUSH1 0x1F RETURNDATASIZE SWAP1 DUP2 ADD PUSH1 0x1F NOT AND DUP3 ADD PUSH1 0x40 MSTORE PUSH3 0x13CE SWAP2 SWAP1 DUP2 ADD SWAP1 PUSH3 0x2A3D JUMP JUMPDEST SWAP1 POP PUSH1 0x0 DUP3 PUSH1 0x1 PUSH1 0x1 PUSH1 0xA0 SHL SUB AND PUSH4 0x6F307DC3 PUSH1 0x40 MLOAD DUP2 PUSH4 0xFFFFFFFF AND PUSH1 0xE0 SHL DUP2 MSTORE PUSH1 0x4 ADD PUSH1 0x20 PUSH1 0x40 MLOAD DUP1 DUP4 SUB DUP2 DUP7 DUP1 EXTCODESIZE ISZERO DUP1 ISZERO PUSH3 0x140C JUMPI PUSH1 0x0 DUP1 REVERT JUMPDEST POP GAS STATICCALL ISZERO DUP1 ISZERO PUSH3 0x1421 JUMPI RETURNDATASIZE PUSH1 0x0 DUP1 RETURNDATACOPY RETURNDATASIZE PUSH1 0x0 REVERT JUMPDEST POP POP POP POP PUSH1 0x40 MLOAD RETURNDATASIZE PUSH1 0x1F NOT PUSH1 0x1F DUP3 ADD AND DUP3 ADD DUP1 PUSH1 0x40 MSTORE POP DUP2 ADD SWAP1 PUSH3 0x1447 SWAP2 SWAP1 PUSH3 0x2A1E JUMP JUMPDEST SWAP1 POP PUSH1 0x0 PUSH1 0x1 DUP6 PUSH2 0xFFFF AND EQ PUSH3 0x14E0 JUMPI PUSH1 0x40 MLOAD PUSH4 0x70A08231 PUSH1 0xE0 SHL DUP2 MSTORE PUSH1 0x1 PUSH1 0x1 PUSH1 0xA0 SHL SUB DUP4 AND SWAP1 PUSH4 0x70A08231 SWAP1 PUSH3 0x1486 SWAP1 ADDRESS SWAP1 PUSH1 0x4 ADD PUSH3 0x2DF6 JUMP JUMPDEST PUSH1 0x20 PUSH1 0x40 MLOAD DUP1 DUP4 SUB DUP2 DUP7 DUP1 EXTCODESIZE ISZERO DUP1 ISZERO PUSH3 0x149F JUMPI PUSH1 0x0 DUP1 REVERT JUMPDEST POP GAS STATICCALL ISZERO DUP1 ISZERO PUSH3 0x14B4 JUMPI RETURNDATASIZE PUSH1 0x0 DUP1 RETURNDATACOPY RETURNDATASIZE PUSH1 0x0 REVERT JUMPDEST POP POP POP POP PUSH1 0x40 MLOAD RETURNDATASIZE PUSH1 0x1F NOT PUSH1 0x1F DUP3 ADD AND DUP3 ADD DUP1 PUSH1 0x40 MSTORE POP DUP2 ADD SWAP1 PUSH3 0x14DA SWAP2 SWAP1 PUSH3 0x2D6E JUMP JUMPDEST PUSH3 0x14E2 JUMP JUMPDEST SELFBALANCE JUMPDEST SWAP1 POP PUSH3 0x14F2 DUP3 PUSH1 0x0 DUP4 PUSH3 0x1D1A JUMP JUMPDEST PUSH1 0x0 JUMPDEST DUP4 MLOAD DUP2 LT ISZERO PUSH3 0xFD0 JUMPI DUP4 DUP2 DUP2 MLOAD DUP2 LT PUSH3 0x150C JUMPI INVALID JUMPDEST PUSH1 0x20 MUL PUSH1 0x20 ADD ADD MLOAD PUSH1 0x1 PUSH1 0x1 PUSH1 0xA0 SHL SUB AND PUSH4 0x70A08231 ADDRESS PUSH1 0x40 MLOAD DUP3 PUSH4 0xFFFFFFFF AND PUSH1 0xE0 SHL DUP2 MSTORE PUSH1 0x4 ADD PUSH3 0x1541 SWAP2 SWAP1 PUSH3 0x2DF6 JUMP JUMPDEST PUSH1 0x20 PUSH1 0x40 MLOAD DUP1 DUP4 SUB DUP2 DUP7 DUP1 EXTCODESIZE ISZERO DUP1 ISZERO PUSH3 0x155A JUMPI PUSH1 0x0 DUP1 REVERT JUMPDEST POP GAS STATICCALL ISZERO DUP1 ISZERO PUSH3 0x156F JUMPI RETURNDATASIZE PUSH1 0x0 DUP1 RETURNDATACOPY RETURNDATASIZE PUSH1 0x0 REVERT JUMPDEST POP POP POP POP PUSH1 0x40 MLOAD RETURNDATASIZE PUSH1 0x1F NOT PUSH1 0x1F DUP3 ADD AND DUP3 ADD DUP1 PUSH1 0x40 MSTORE POP DUP2 ADD SWAP1 PUSH3 0x1595 SWAP2 SWAP1 PUSH3 0x2D6E JUMP JUMPDEST SWAP2 POP PUSH3 0x15B9 DUP5 DUP3 DUP2 MLOAD DUP2 LT PUSH3 0x15A8 JUMPI INVALID JUMPDEST PUSH1 0x20 MUL PUSH1 0x20 ADD ADD MLOAD PUSH1 0x0 DUP5 PUSH3 0x1D1A JUMP JUMPDEST PUSH1 0x1 ADD PUSH3 0x14F5 JUMP JUMPDEST PUSH1 0x0 PUSH1 0x1 PUSH1 0x1 PUSH1 0xFF SHL SUB DUP3 GT ISZERO PUSH3 0x10E1 JUMPI PUSH1 0x0 DUP1 REVERT JUMPDEST PUSH1 0x0 PUSH4 0x5F5E100 DUP4 PUSH1 0x40 ADD MLOAD EQ ISZERO PUSH3 0x15F4 JUMPI POP DUP1 PUSH3 0xEB1 JUMP JUMPDEST PUSH1 0x40 DUP4 ADD MLOAD PUSH3 0x10BC SWAP1 PUSH3 0x160E DUP5 PUSH4 0x5F5E100 PUSH3 0x1DA9 JUMP JUMPDEST SWAP1 PUSH3 0x1DFF JUMP JUMPDEST PUSH1 0x0 DUP1 DUP3 SLT ISZERO PUSH3 0x10E1 JUMPI PUSH1 0x0 DUP1 REVERT JUMPDEST PUSH1 0x0 PUSH1 0x1 PUSH1 0x1 PUSH1 0x58 SHL SUB DUP3 GT ISZERO PUSH3 0x10E1 JUMPI PUSH1 0x0 DUP1 REVERT JUMPDEST PUSH1 0x0 PUSH3 0x1648 PUSH3 0x1E33 JUMP JUMPDEST PUSH1 0x0 DUP9 PUSH2 0xFFFF AND DUP2 MSTORE PUSH1 0x20 ADD SWAP1 DUP2 MSTORE PUSH1 0x20 ADD PUSH1 0x0 KECCAK256 SWAP1 POP PUSH3 0x166B DUP8 DUP6 PUSH3 0x1E42 JUMP JUMPDEST DUP1 SLOAD PUSH5 0xFFFFFFFFFF AND ISZERO PUSH3 0x167F JUMPI PUSH1 0x0 DUP1 REVERT JUMPDEST DUP6 PUSH1 0x1 PUSH1 0x1 PUSH1 0x58 SHL SUB AND PUSH1 0x0 LT PUSH3 0x1696 JUMPI PUSH1 0x0 DUP1 REVERT JUMPDEST PUSH1 0x0 PUSH3 0x16A3 DUP9 PUSH3 0x1EBF JUMP JUMPDEST SWAP1 POP DUP1 PUSH1 0x0 LT PUSH3 0x16B3 JUMPI PUSH1 0x0 DUP1 REVERT JUMPDEST PUSH3 0x16BE TIMESTAMP PUSH3 0x1F4A JUMP JUMPDEST DUP3 SLOAD PUSH1 0x2 DUP5 ADD DUP1 SLOAD PUSH5 0xFFFFFFFFFF NOT SWAP1 SWAP3 AND PUSH5 0xFFFFFFFFFF SWAP4 SWAP1 SWAP4 AND SWAP3 SWAP1 SWAP3 OR PUSH16 0xFFFFFFFFFFFFFFFFFFFFFF0000000000 NOT AND PUSH6 0x10000000000 PUSH1 0x1 PUSH1 0x1 PUSH1 0x58 SHL SUB DUP12 AND SWAP1 DUP2 MUL SWAP2 SWAP1 SWAP2 OR PUSH1 0x1 PUSH1 0x1 PUSH1 0xF8 SHL SUB AND PUSH1 0x1 PUSH1 0xF8 SHL DUP9 ISZERO ISZERO MUL OR DUP6 SSTORE PUSH10 0xFFFFFFFFFFFFFFFFFFFF PUSH1 0x50 SHL NOT SWAP1 SWAP2 AND PUSH6 0x3782DACE9D9 PUSH1 0x62 SHL OR PUSH10 0xFFFFFFFFFFFFFFFFFFFF PUSH1 0xA0 SHL NOT AND PUSH6 0x3782DACE9D9 PUSH1 0xB2 SHL OR PUSH1 0xFF PUSH1 0xF0 SHL NOT AND PUSH1 0x1 PUSH1 0xF0 SHL PUSH1 0xFF DUP8 AND MUL OR SWAP1 SWAP2 SSTORE PUSH3 0x1783 SWAP1 PUSH3 0x177D SWAP1 DUP4 SWAP1 PUSH3 0x1F5F JUMP JUMPDEST PUSH3 0x1F80 JUMP JUMPDEST PUSH1 0x2 DUP4 ADD DUP1 SLOAD PUSH10 0xFFFFFFFFFFFFFFFFFFFF NOT AND PUSH1 0x1 PUSH1 0x1 PUSH1 0x50 SHL SUB SWAP3 SWAP1 SWAP3 AND SWAP2 SWAP1 SWAP2 OR SWAP1 SSTORE PUSH3 0x17B3 DUP2 PUSH3 0x1625 JUMP JUMPDEST DUP3 SLOAD PUSH1 0x1 DUP5 ADD DUP1 SLOAD PUSH11 0xFFFFFFFFFFFFFFFFFFFFFF NOT AND SWAP1 SSTORE PUSH4 0xFFFFFFFF PUSH1 0xD8 SHL NOT PUSH1 0x1 PUSH1 0x1 PUSH1 0x58 SHL SUB SWAP3 SWAP1 SWAP3 AND PUSH1 0x1 PUSH1 0x80 SHL MUL PUSH11 0xFFFFFFFFFFFFFFFFFFFFFF PUSH1 0x80 SHL NOT SWAP1 SWAP2 AND OR AND DUP3 SSTORE PUSH3 0x1809 DUP9 DUP8 PUSH3 0x1F97 JUMP JUMPDEST PUSH1 0x40 MLOAD PUSH2 0xFFFF DUP10 AND SWAP1 PUSH32 0x10A72302A4C7C7BBB57A6FBE822ED3D9A792EB3E4AAFC64E64745E3AE7BF1287 SWAP1 PUSH1 0x0 SWAP1 LOG2 POP POP POP POP POP POP POP POP JUMP JUMPDEST PUSH1 0x0 DUP2 PUSH3 0x185A JUMPI PUSH3 0x1854 PUSH3 0x2002 JUMP JUMPDEST PUSH3 0x1864 JUMP JUMPDEST PUSH3 0x1864 PUSH3 0x1C0D JUMP JUMPDEST PUSH2 0xFFFF DUP6 AND PUSH1 0x0 SWAP1 DUP2 MSTORE PUSH1 0x20 DUP3 SWAP1 MSTORE PUSH1 0x40 SWAP1 KECCAK256 SLOAD SWAP1 SWAP2 POP PUSH1 0x1 PUSH1 0x1 PUSH1 0xA0 SHL SUB AND ISZERO PUSH3 0x188F JUMPI PUSH1 0x0 DUP1 REVERT JUMPDEST PUSH2 0xFFFF DUP5 AND PUSH1 0x0 DUP2 DUP2 MSTORE PUSH1 0x20 DUP4 SWAP1 MSTORE PUSH1 0x40 SWAP1 DUP2 SWAP1 KECCAK256 DUP1 SLOAD PUSH1 0x1 PUSH1 0x1 PUSH1 0xA0 SHL SUB NOT AND PUSH1 0x1 PUSH1 0x1 PUSH1 0xA0 SHL SUB DUP8 AND OR SWAP1 SSTORE MLOAD PUSH32 0xB492E9BF0487A94DAE4DD27D50F25F59E832FAA854ED4072EE0FC57D327CA4C8 SWAP1 PUSH3 0x18EF SWAP1 DUP7 SWAP1 DUP7 SWAP1 PUSH3 0x2E2E JUMP JUMPDEST PUSH1 0x40 MLOAD DUP1 SWAP2 SUB SWAP1 LOG2 POP POP POP POP JUMP JUMPDEST DUP1 MLOAD PUSH1 0xFF AND PUSH1 0x2 GT DUP1 ISZERO SWAP1 PUSH3 0x191B JUMPI POP PUSH1 0x7 DUP2 PUSH1 0x0 ADD MLOAD PUSH1 0xFF AND GT ISZERO JUMPDEST PUSH3 0x1925 JUMPI PUSH1 0x0 DUP1 REVERT JUMPDEST PUSH1 0x64 DUP2 PUSH1 0x60 ADD MLOAD PUSH1 0xFF AND SGT ISZERO PUSH3 0x193B JUMPI PUSH1 0x0 DUP1 REVERT JUMPDEST DUP1 PUSH1 0x40 ADD MLOAD PUSH1 0xFF AND PUSH1 0x0 LT PUSH3 0x1950 JUMPI PUSH1 0x0 DUP1 REVERT JUMPDEST DUP1 PUSH2 0x120 ADD MLOAD PUSH1 0xFF AND DUP2 PUSH1 0xC0 ADD MLOAD PUSH1 0xFF AND LT PUSH3 0x196C JUMPI PUSH1 0x0 DUP1 REVERT JUMPDEST DUP1 PUSH1 0xA0 ADD MLOAD PUSH1 0xFF AND DUP2 PUSH1 0xE0 ADD MLOAD PUSH1 0xFF AND LT PUSH3 0x1987 JUMPI PUSH1 0x0 DUP1 REVERT JUMPDEST DUP1 PUSH1 0x80 ADD MLOAD PUSH1 0xFF AND DUP2 PUSH2 0x100 ADD MLOAD PUSH1 0xFF AND LT PUSH3 0x19A3 JUMPI PUSH1 0x0 DUP1 REVERT JUMPDEST PUSH1 0x0 PUSH3 0x19B0 DUP4 PUSH3 0x2011 JUMP JUMPDEST SWAP1 POP DUP2 PUSH1 0x0 ADD MLOAD PUSH1 0xFF AND DUP2 PUSH1 0xFF AND GT ISZERO PUSH3 0x19CA JUMPI PUSH1 0x0 DUP1 REVERT JUMPDEST PUSH2 0x120 DUP3 ADD MLOAD PUSH2 0x100 DUP4 ADD MLOAD PUSH1 0xE0 DUP5 ADD MLOAD PUSH1 0xC0 DUP6 ADD MLOAD PUSH1 0xA0 DUP7 ADD MLOAD PUSH1 0x80 DUP8 ADD MLOAD PUSH1 0x60 DUP9 ADD MLOAD PUSH1 0x40 DUP1 DUP11 ADD MLOAD PUSH1 0x20 DUP1 DUP13 ADD MLOAD DUP13 MLOAD PUSH1 0x48 SWAP12 SWAP1 SWAP12 SHL PUSH10 0xFF000000000000000000 AND SWAP10 SWAP1 SWAP4 SHL PUSH9 0xFF0000000000000000 AND PUSH1 0x38 SWAP9 SWAP1 SWAP9 SHL PUSH1 0xFF PUSH1 0x38 SHL AND PUSH1 0x30 SWAP8 SWAP1 SWAP8 SHL PUSH7 0xFF000000000000 AND PUSH1 0x28 SWAP7 SWAP1 SWAP7 SHL PUSH6 0xFF0000000000 AND SWAP5 SWAP1 SHL PUSH5 0xFF00000000 AND PUSH1 0x18 SWAP4 SWAP1 SWAP4 SHL PUSH4 0xFF000000 AND PUSH1 0x10 SWAP2 SWAP1 SWAP2 SHL PUSH3 0xFF0000 AND PUSH1 0x8 SWAP3 SWAP1 SWAP3 SHL PUSH2 0xFF00 AND PUSH1 0xFF SWAP1 SWAP10 AND SWAP9 SWAP1 SWAP9 OR OR SWAP7 SWAP1 SWAP7 OR SWAP6 SWAP1 SWAP6 OR SWAP5 SWAP1 SWAP5 OR SWAP4 SWAP1 SWAP4 OR SWAP3 SWAP1 SWAP3 OR SWAP2 SWAP1 SWAP2 OR OR PUSH1 0x0 PUSH3 0x1AA1 PUSH3 0x2029 JUMP JUMPDEST PUSH1 0x0 SWAP6 DUP7 MSTORE PUSH1 0x20 MSTORE POP PUSH1 0x40 SWAP1 SWAP4 KECCAK256 SWAP3 SWAP1 SWAP3 SSTORE POP POP JUMP JUMPDEST PUSH1 0x0 PUSH3 0x1AC3 PUSH3 0x2038 JUMP JUMPDEST PUSH2 0xFFFF DUP6 AND PUSH1 0x0 SWAP1 DUP2 MSTORE PUSH1 0x20 SWAP2 SWAP1 SWAP2 MSTORE PUSH1 0x40 DUP2 KECCAK256 SWAP2 POP PUSH3 0x1AE4 DUP5 PUSH3 0x2047 JUMP JUMPDEST PUSH1 0x8 MUL PUSH1 0xC0 SUB SWAP1 POP PUSH1 0x0 PUSH1 0x4 DUP6 LT PUSH3 0x1AFF JUMPI PUSH1 0x1 PUSH3 0x1B02 JUMP JUMPDEST PUSH1 0x0 JUMPDEST SWAP1 POP PUSH3 0x1B22 DUP4 DUP3 PUSH1 0xFF AND PUSH1 0x2 DUP2 LT PUSH3 0x1B18 JUMPI INVALID JUMPDEST ADD SLOAD DUP4 DUP7 PUSH3 0x2084 JUMP JUMPDEST DUP4 DUP3 PUSH1 0xFF AND PUSH1 0x2 DUP2 LT PUSH3 0x1B32 JUMPI INVALID JUMPDEST ADD SSTORE POP POP POP POP POP POP JUMP JUMPDEST PUSH1 0x0 PUSH3 0x1B48 PUSH3 0x2038 JUMP JUMPDEST PUSH2 0xFFFF DUP4 AND PUSH1 0x0 SWAP1 DUP2 MSTORE PUSH1 0x20 SWAP2 SWAP1 SWAP2 MSTORE PUSH1 0x40 DUP2 KECCAK256 SWAP2 POP PUSH3 0x1B68 PUSH3 0x20B3 JUMP JUMPDEST PUSH2 0xFFFF SWAP4 SWAP1 SWAP4 AND PUSH1 0x0 SWAP1 DUP2 MSTORE PUSH1 0x20 SWAP4 SWAP1 SWAP4 MSTORE POP PUSH1 0x40 SWAP1 SWAP2 KECCAK256 DUP2 SLOAD DUP2 SSTORE PUSH1 0x1 SWAP2 DUP3 ADD SLOAD SWAP2 ADD SSTORE JUMP JUMPDEST PUSH1 0x0 DUP1 PUSH3 0xEB1 PUSH1 0x20 PUSH3 0x1BA7 JUMP JUMPDEST EXTCODESIZE ISZERO ISZERO SWAP1 JUMP JUMPDEST SWAP1 JUMP JUMPDEST PUSH1 0x0 PUSH3 0xF4240 DUP3 PUSH1 0x26 DUP2 GT ISZERO PUSH3 0x1BBA JUMPI INVALID JUMPDEST ADD SWAP3 SWAP2 POP POP JUMP JUMPDEST PUSH1 0x0 DUP1 PUSH3 0xEB1 PUSH1 0x3 PUSH3 0x1BA7 JUMP JUMPDEST PUSH1 0x0 CHAINID PUSH1 0x1 DUP2 EQ DUP1 PUSH3 0x1BE3 JUMPI POP DUP1 PUSH1 0x5 EQ JUMPDEST DUP1 ISZERO PUSH3 0x10BC JUMPI POP POP POP PUSH1 0x4 PUSH2 0xFFFF SWAP1 SWAP2 AND GT ISZERO SWAP1 JUMP JUMPDEST PUSH1 0xC PUSH1 0x30 SWAP2 SWAP1 SWAP2 SHL PUSH2 0xFFFF PUSH1 0x30 SHL AND OR SWAP1 JUMP JUMPDEST PUSH1 0x0 DUP1 PUSH3 0xEB1 PUSH1 0x21 PUSH3 0x1BA7 JUMP JUMPDEST PUSH1 0x60 DUP1 PUSH3 0x1C2B DUP5 DUP5 PUSH3 0x20C2 JUMP JUMPDEST SWAP2 POP PUSH3 0x1C38 DUP3 PUSH3 0x21F4 JUMP JUMPDEST SWAP1 POP SWAP3 POP SWAP3 SWAP1 POP JUMP JUMPDEST PUSH2 0xFFFF PUSH1 0x30 SHL PUSH1 0x30 DUP4 SWAP1 SHL AND PUSH1 0x8 DUP3 SWAP1 SHL OR PUSH1 0x1 OR SWAP3 SWAP2 POP POP JUMP JUMPDEST PUSH1 0x0 PUSH3 0xEB1 PUSH1 0x0 NOT DUP4 PUSH3 0x1DA9 JUMP JUMPDEST PUSH3 0x1C76 PUSH3 0x2610 JUMP JUMPDEST PUSH1 0x0 PUSH3 0x1C82 PUSH3 0x1D0B JUMP JUMPDEST PUSH1 0x0 DUP6 DUP2 MSTORE PUSH1 0x20 DUP3 DUP2 MSTORE PUSH1 0x40 DUP1 DUP4 KECCAK256 DUP8 ISZERO ISZERO DUP5 MSTORE DUP3 MSTORE SWAP2 DUP3 SWAP1 KECCAK256 DUP3 MLOAD PUSH1 0xA0 DUP2 ADD DUP5 MSTORE DUP2 SLOAD PUSH1 0x1 PUSH1 0x1 PUSH1 0xA0 SHL SUB DUP2 AND DUP3 MSTORE PUSH1 0xFF PUSH1 0x1 PUSH1 0xA0 SHL DUP3 DIV DUP2 AND ISZERO ISZERO SWAP5 DUP4 ADD SWAP5 SWAP1 SWAP5 MSTORE PUSH1 0x1 PUSH1 0xB0 SHL DUP2 DIV DUP5 AND PUSH1 0xA EXP SWAP5 DUP3 ADD SWAP5 SWAP1 SWAP5 MSTORE SWAP4 SWAP5 POP SWAP3 SWAP2 PUSH1 0x60 DUP4 ADD SWAP2 PUSH1 0x1 PUSH1 0xA8 SHL SWAP1 SWAP2 DIV AND PUSH1 0x5 DUP2 GT ISZERO PUSH3 0x1CF8 JUMPI INVALID JUMPDEST DUP2 MSTORE PUSH1 0x0 PUSH1 0x20 SWAP1 SWAP2 ADD MSTORE SWAP6 SWAP5 POP POP POP POP POP JUMP JUMPDEST PUSH1 0x0 DUP1 PUSH3 0xEB1 PUSH1 0x7 PUSH3 0x1BA7 JUMP JUMPDEST PUSH1 0x0 PUSH3 0x1D26 PUSH3 0x23CC JUMP JUMPDEST PUSH1 0x1 PUSH1 0x1 PUSH1 0xA0 SHL SUB DUP6 AND PUSH1 0x0 SWAP1 DUP2 MSTORE PUSH1 0x20 DUP3 SWAP1 MSTORE PUSH1 0x40 SWAP1 KECCAK256 SLOAD SWAP1 SWAP2 POP DUP4 DUP2 GT ISZERO PUSH3 0x1D50 JUMPI PUSH1 0x0 DUP1 REVERT JUMPDEST PUSH1 0x0 PUSH3 0x1D73 PUSH3 0x1D61 DUP7 PUSH3 0x15C2 JUMP JUMPDEST PUSH3 0x1D6C DUP7 PUSH3 0x15C2 JUMP JUMPDEST SWAP1 PUSH3 0x23DB JUMP JUMPDEST SWAP1 POP PUSH3 0x1D85 PUSH3 0x9BD DUP4 DUP4 PUSH3 0x23F2 JUMP JUMPDEST PUSH1 0x1 PUSH1 0x1 PUSH1 0xA0 SHL SUB SWAP1 SWAP7 AND PUSH1 0x0 SWAP1 DUP2 MSTORE PUSH1 0x20 SWAP4 SWAP1 SWAP4 MSTORE POP POP PUSH1 0x40 SWAP1 KECCAK256 SWAP3 SWAP1 SWAP3 SSTORE POP POP JUMP JUMPDEST DUP2 DUP2 MUL PUSH1 0x0 NOT DUP4 EQ ISZERO PUSH3 0x1DDE JUMPI DUP2 ISZERO DUP1 PUSH3 0x1DCE JUMPI POP DUP3 DUP3 DUP3 DUP2 PUSH3 0x1DCB JUMPI INVALID JUMPDEST SDIV EQ JUMPDEST PUSH3 0x1DD8 JUMPI PUSH1 0x0 DUP1 REVERT JUMPDEST PUSH3 0xEB1 JUMP JUMPDEST DUP3 ISZERO DUP1 PUSH3 0x1DF5 JUMPI POP DUP2 DUP4 DUP3 DUP2 PUSH3 0x1DF2 JUMPI INVALID JUMPDEST SDIV EQ JUMPDEST PUSH3 0xEB1 JUMPI PUSH1 0x0 DUP1 REVERT JUMPDEST PUSH1 0x0 DUP2 PUSH1 0x0 NOT EQ DUP1 ISZERO PUSH3 0x1E16 JUMPI POP PUSH1 0x1 PUSH1 0xFF SHL DUP4 EQ JUMPDEST ISZERO PUSH3 0x1E21 JUMPI PUSH1 0x0 DUP1 REVERT JUMPDEST DUP2 DUP4 DUP2 PUSH3 0x1E2B JUMPI INVALID JUMPDEST SDIV SWAP4 SWAP3 POP POP POP JUMP JUMPDEST PUSH1 0x0 DUP1 PUSH3 0xEB1 PUSH1 0x1D PUSH3 0x1BA7 JUMP JUMPDEST PUSH1 0x0 PUSH3 0x1E4E PUSH3 0x2409 JUMP JUMPDEST PUSH2 0xFFFF DUP5 AND PUSH1 0x0 DUP2 DUP2 MSTORE PUSH1 0x20 SWAP3 SWAP1 SWAP3 MSTORE PUSH1 0x40 SWAP2 DUP3 SWAP1 KECCAK256 DUP1 SLOAD PUSH1 0x1 PUSH1 0x1 PUSH1 0xA0 SHL SUB NOT AND PUSH1 0x1 PUSH1 0x1 PUSH1 0xA0 SHL SUB DUP7 AND OR DUP2 SSTORE SWAP2 MLOAD SWAP2 SWAP3 POP SWAP1 PUSH32 0x870041665F4908D4B05DB2C67D9D8735D37EC80A0F5F9286CE37E315B460682F SWAP1 PUSH3 0x1EB2 SWAP1 DUP6 SWAP1 PUSH3 0x2DF6 JUMP JUMPDEST PUSH1 0x40 MLOAD DUP1 SWAP2 SUB SWAP1 LOG2 POP POP POP JUMP JUMPDEST PUSH1 0x0 DUP1 PUSH3 0x1ECD DUP4 PUSH3 0x2418 JUMP JUMPDEST PUSH1 0x1 PUSH1 0x1 PUSH1 0xA0 SHL SUB AND PUSH4 0xEF81F216 PUSH1 0x40 MLOAD DUP2 PUSH4 0xFFFFFFFF AND PUSH1 0xE0 SHL DUP2 MSTORE PUSH1 0x4 ADD PUSH1 0x40 DUP1 MLOAD DUP1 DUP4 SUB DUP2 PUSH1 0x0 DUP8 DUP1 EXTCODESIZE ISZERO DUP1 ISZERO PUSH3 0x1F07 JUMPI PUSH1 0x0 DUP1 REVERT JUMPDEST POP GAS CALL ISZERO DUP1 ISZERO PUSH3 0x1F1C JUMPI RETURNDATASIZE PUSH1 0x0 DUP1 RETURNDATACOPY RETURNDATASIZE PUSH1 0x0 REVERT JUMPDEST POP POP POP POP PUSH1 0x40 MLOAD RETURNDATASIZE PUSH1 0x1F NOT PUSH1 0x1F DUP3 ADD AND DUP3 ADD DUP1 PUSH1 0x40 MSTORE POP DUP2 ADD SWAP1 PUSH3 0x1F42 SWAP2 SWAP1 PUSH3 0x2D87 JUMP JUMPDEST SWAP5 SWAP4 POP POP POP POP JUMP JUMPDEST PUSH1 0x0 PUSH5 0xFFFFFFFFFF DUP3 GT ISZERO PUSH3 0x10E1 JUMPI PUSH1 0x0 DUP1 REVERT JUMPDEST PUSH1 0x0 PUSH3 0x10BC PUSH3 0x1F79 DUP5 PUSH8 0xDE0B6B3A7640000 PUSH3 0x244A JUMP JUMPDEST DUP4 PUSH3 0x2475 JUMP JUMPDEST PUSH1 0x0 PUSH1 0x1 PUSH1 0x1 PUSH1 0x50 SHL SUB DUP3 GT ISZERO PUSH3 0x10E1 JUMPI PUSH1 0x0 DUP1 REVERT JUMPDEST PUSH1 0x0 PUSH3 0x1FA3 PUSH3 0x20B3 JUMP JUMPDEST PUSH2 0xFFFF DUP5 AND PUSH1 0x0 SWAP1 DUP2 MSTORE PUSH1 0x20 SWAP2 SWAP1 SWAP2 MSTORE PUSH1 0x40 DUP2 KECCAK256 SWAP2 POP PUSH3 0x1FC3 PUSH3 0x2038 JUMP JUMPDEST PUSH2 0xFFFF DUP6 AND PUSH1 0x0 SWAP1 DUP2 MSTORE PUSH1 0x20 SWAP2 SWAP1 SWAP2 MSTORE PUSH1 0x40 DUP2 KECCAK256 SWAP2 POP PUSH3 0x1FEC SWAP1 DUP4 SWAP1 JUMPDEST ADD SLOAD PUSH1 0xC0 DUP6 PUSH3 0x2084 JUMP JUMPDEST DUP3 SSTORE PUSH3 0x1FFB DUP2 PUSH1 0x0 PUSH3 0x1FE1 JUMP JUMPDEST SWAP1 SSTORE POP POP POP JUMP JUMPDEST PUSH1 0x0 DUP1 PUSH3 0xEB1 PUSH1 0x22 PUSH3 0x1BA7 JUMP JUMPDEST PUSH1 0x0 DUP1 PUSH3 0x201F DUP4 PUSH3 0x2496 JUMP JUMPDEST PUSH1 0xFF AND SWAP4 SWAP3 POP POP POP JUMP JUMPDEST PUSH1 0x0 DUP1 PUSH3 0xEB1 PUSH1 0x9 PUSH3 0x1BA7 JUMP JUMPDEST PUSH1 0x0 DUP1 PUSH3 0xEB1 PUSH1 0x1C PUSH3 0x1BA7 JUMP JUMPDEST PUSH1 0x0 DUP2 PUSH1 0x0 LT PUSH3 0x2057 JUMPI PUSH1 0x0 DUP1 REVERT JUMPDEST PUSH1 0x7 DUP3 GT ISZERO PUSH3 0x2066 JUMPI PUSH1 0x0 DUP1 REVERT JUMPDEST PUSH1 0x4 DUP3 LT PUSH3 0x2079 JUMPI PUSH1 0x4 DUP3 SUB PUSH3 0x207B JUMP JUMPDEST DUP2 JUMPDEST PUSH1 0x8 MUL SWAP3 SWAP2 POP POP JUMP JUMPDEST PUSH1 0x0 DUP1 PUSH3 0x2092 DUP4 PUSH3 0x24B5 JUMP JUMPDEST PUSH8 0xFFFFFFFFFFFFFFFF PUSH1 0xFF DUP7 AND SWAP1 DUP2 SHL NOT DUP8 AND SWAP2 SWAP1 SHL OR SWAP2 POP POP SWAP4 SWAP3 POP POP POP JUMP JUMPDEST PUSH1 0x0 DUP1 PUSH3 0xEB1 PUSH1 0x1B PUSH3 0x1BA7 JUMP JUMPDEST PUSH1 0x60 PUSH1 0x8 DUP3 PUSH1 0xFF AND GT ISZERO PUSH3 0x20D6 JUMPI PUSH1 0x0 DUP1 REVERT JUMPDEST PUSH1 0x0 PUSH3 0x20E2 PUSH3 0x25DB JUMP JUMPDEST PUSH1 0x1 PUSH1 0x1 PUSH1 0xA0 SHL SUB DUP6 AND PUSH1 0x0 SWAP1 DUP2 MSTORE PUSH1 0x20 DUP3 SWAP1 MSTORE PUSH1 0x40 DUP2 KECCAK256 SWAP2 SWAP3 POP PUSH1 0xFF DUP6 AND PUSH8 0xFFFFFFFFFFFFFFFF DUP2 GT DUP1 ISZERO PUSH3 0x2118 JUMPI PUSH1 0x0 DUP1 REVERT JUMPDEST POP PUSH1 0x40 MLOAD SWAP1 DUP1 DUP3 MSTORE DUP1 PUSH1 0x20 MUL PUSH1 0x20 ADD DUP3 ADD PUSH1 0x40 MSTORE DUP1 ISZERO PUSH3 0x2156 JUMPI DUP2 PUSH1 0x20 ADD JUMPDEST PUSH3 0x2142 PUSH3 0x264D JUMP JUMPDEST DUP2 MSTORE PUSH1 0x20 ADD SWAP1 PUSH1 0x1 SWAP1 SUB SWAP1 DUP2 PUSH3 0x2138 JUMPI SWAP1 POP JUMPDEST POP SWAP1 POP PUSH1 0x0 JUMPDEST DUP6 PUSH1 0xFF AND DUP2 LT ISZERO PUSH3 0x21EA JUMPI PUSH1 0x0 DUP4 DUP3 PUSH1 0x8 DUP2 LT PUSH3 0x2177 JUMPI INVALID JUMPDEST ADD SWAP1 POP PUSH1 0x0 DUP4 DUP4 DUP2 MLOAD DUP2 LT PUSH3 0x2189 JUMPI INVALID JUMPDEST PUSH1 0x20 SWAP1 DUP2 MUL SWAP2 SWAP1 SWAP2 ADD DUP2 ADD MLOAD DUP4 SLOAD PUSH2 0xFFFF DUP2 AND DUP3 MSTORE PUSH5 0xFFFFFFFFFF PUSH3 0x10000 DUP3 DIV AND SWAP3 DUP3 ADD SWAP3 SWAP1 SWAP3 MSTORE PUSH1 0xFF PUSH8 0x100000000000000 DUP4 DIV AND PUSH1 0x40 DUP3 ADD MSTORE PUSH1 0x1 PUSH1 0x40 SHL SWAP1 SWAP2 DIV PUSH1 0xA SWAP1 DUP2 SIGNEXTEND SWAP1 SIGNEXTEND PUSH1 0x60 DUP3 ADD MSTORE PUSH1 0x80 ADD SWAP2 SWAP1 SWAP2 MSTORE POP PUSH1 0x1 ADD PUSH3 0x215C JUMP JUMPDEST POP SWAP6 SWAP5 POP POP POP POP POP JUMP JUMPDEST DUP1 MLOAD PUSH1 0x60 SWAP1 DUP1 PUSH8 0xFFFFFFFFFFFFFFFF DUP2 GT DUP1 ISZERO PUSH3 0x2211 JUMPI PUSH1 0x0 DUP1 REVERT JUMPDEST POP PUSH1 0x40 MLOAD SWAP1 DUP1 DUP3 MSTORE DUP1 PUSH1 0x20 MUL PUSH1 0x20 ADD DUP3 ADD PUSH1 0x40 MSTORE DUP1 ISZERO PUSH3 0x223C JUMPI DUP2 PUSH1 0x20 ADD PUSH1 0x20 DUP3 MUL DUP1 CALLDATASIZE DUP4 CALLDATACOPY ADD SWAP1 POP JUMPDEST POP SWAP2 POP PUSH1 0x0 JUMPDEST DUP2 DUP2 LT ISZERO PUSH3 0x229F JUMPI PUSH1 0x0 DUP5 DUP3 DUP2 MLOAD DUP2 LT PUSH3 0x225A JUMPI INVALID JUMPDEST PUSH1 0x20 MUL PUSH1 0x20 ADD ADD MLOAD SWAP1 POP PUSH3 0x227D DUP2 PUSH1 0x0 ADD MLOAD DUP3 PUSH1 0x20 ADD MLOAD DUP4 PUSH1 0x40 ADD MLOAD PUSH3 0x25EA JUMP JUMPDEST DUP5 DUP4 DUP2 MLOAD DUP2 LT PUSH3 0x228A JUMPI INVALID JUMPDEST PUSH1 0x20 SWAP1 DUP2 MUL SWAP2 SWAP1 SWAP2 ADD ADD MSTORE POP PUSH1 0x1 ADD PUSH3 0x2242 JUMP JUMPDEST POP PUSH1 0x1 JUMPDEST DUP2 DUP2 LT ISZERO PUSH3 0x23C5 JUMPI DUP1 JUMPDEST PUSH1 0x0 DUP2 GT DUP1 ISZERO PUSH3 0x22E9 JUMPI POP DUP4 DUP2 DUP2 MLOAD DUP2 LT PUSH3 0x22C7 JUMPI INVALID JUMPDEST PUSH1 0x20 MUL PUSH1 0x20 ADD ADD MLOAD DUP5 PUSH1 0x1 DUP4 SUB DUP2 MLOAD DUP2 LT PUSH3 0x22DF JUMPI INVALID JUMPDEST PUSH1 0x20 MUL PUSH1 0x20 ADD ADD MLOAD GT JUMPDEST ISZERO PUSH3 0x23BB JUMPI DUP4 DUP2 DUP2 MLOAD DUP2 LT PUSH3 0x22FC JUMPI INVALID JUMPDEST PUSH1 0x20 MUL PUSH1 0x20 ADD ADD MLOAD DUP5 PUSH1 0x1 DUP4 SUB DUP2 MLOAD DUP2 LT PUSH3 0x2314 JUMPI INVALID JUMPDEST PUSH1 0x20 MUL PUSH1 0x20 ADD ADD MLOAD DUP6 PUSH1 0x1 DUP5 SUB DUP2 MLOAD DUP2 LT PUSH3 0x232C JUMPI INVALID JUMPDEST PUSH1 0x20 MUL PUSH1 0x20 ADD ADD DUP7 DUP5 DUP2 MLOAD DUP2 LT PUSH3 0x2340 JUMPI INVALID JUMPDEST PUSH1 0x20 MUL PUSH1 0x20 ADD ADD DUP3 DUP2 MSTORE POP DUP3 DUP2 MSTORE POP POP POP DUP5 DUP2 DUP2 MLOAD DUP2 LT PUSH3 0x235E JUMPI INVALID JUMPDEST PUSH1 0x20 MUL PUSH1 0x20 ADD ADD MLOAD DUP6 PUSH1 0x1 DUP4 SUB DUP2 MLOAD DUP2 LT PUSH3 0x2376 JUMPI INVALID JUMPDEST PUSH1 0x20 MUL PUSH1 0x20 ADD ADD MLOAD DUP7 PUSH1 0x1 DUP5 SUB DUP2 MLOAD DUP2 LT PUSH3 0x238E JUMPI INVALID JUMPDEST PUSH1 0x20 MUL PUSH1 0x20 ADD ADD DUP8 DUP5 DUP2 MLOAD DUP2 LT PUSH3 0x23A2 JUMPI INVALID JUMPDEST PUSH1 0x20 SWAP1 DUP2 MUL SWAP2 SWAP1 SWAP2 ADD ADD SWAP2 SWAP1 SWAP2 MSTORE MSTORE PUSH1 0x0 NOT ADD PUSH3 0x22AE JUMP JUMPDEST POP PUSH1 0x1 ADD PUSH3 0x22A3 JUMP JUMPDEST POP POP SWAP2 SWAP1 POP JUMP JUMPDEST PUSH1 0x0 DUP1 PUSH3 0xEB1 PUSH1 0x26 PUSH3 0x1BA7 JUMP JUMPDEST DUP1 DUP3 SUB DUP3 DUP2 SGT ISZERO PUSH1 0x0 DUP4 SLT ISZERO EQ PUSH3 0xEB1 JUMPI PUSH1 0x0 DUP1 REVERT JUMPDEST DUP2 DUP2 ADD DUP3 DUP2 SLT ISZERO PUSH1 0x0 DUP4 SLT ISZERO EQ PUSH3 0xEB1 JUMPI PUSH1 0x0 DUP1 REVERT JUMPDEST PUSH1 0x0 DUP1 PUSH3 0xEB1 PUSH1 0x1F PUSH3 0x1BA7 JUMP JUMPDEST PUSH1 0x0 DUP1 PUSH3 0x2425 PUSH3 0x2409 JUMP JUMPDEST PUSH2 0xFFFF SWAP4 SWAP1 SWAP4 AND PUSH1 0x0 SWAP1 DUP2 MSTORE PUSH1 0x20 SWAP4 SWAP1 SWAP4 MSTORE POP POP PUSH1 0x40 SWAP1 KECCAK256 SLOAD PUSH1 0x1 PUSH1 0x1 PUSH1 0xA0 SHL SUB AND SWAP1 JUMP JUMPDEST PUSH1 0x0 DUP3 PUSH3 0x245B JUMPI POP PUSH1 0x0 PUSH3 0xEB1 JUMP JUMPDEST DUP3 DUP3 MUL DUP3 DUP5 DUP3 DUP2 PUSH3 0x2469 JUMPI INVALID JUMPDEST DIV EQ PUSH3 0x10BC JUMPI PUSH1 0x0 DUP1 REVERT JUMPDEST PUSH1 0x0 DUP1 DUP3 GT PUSH3 0x2484 JUMPI PUSH1 0x0 DUP1 REVERT JUMPDEST DUP2 DUP4 DUP2 PUSH3 0x248E JUMPI INVALID JUMPDEST DIV SWAP4 SWAP3 POP POP POP JUMP JUMPDEST PUSH1 0x0 DUP1 PUSH3 0x24A3 PUSH3 0x2029 JUMP JUMPDEST PUSH1 0x0 SWAP4 DUP5 MSTORE PUSH1 0x20 MSTORE POP POP PUSH1 0x40 SWAP1 KECCAK256 SLOAD SWAP1 JUMP JUMPDEST PUSH1 0x0 DUP2 PUSH1 0x20 ADD MLOAD PUSH1 0xFF AND DUP3 PUSH1 0x0 ADD MLOAD PUSH1 0xFF AND LT PUSH3 0x24D2 JUMPI PUSH1 0x0 DUP1 REVERT JUMPDEST PUSH1 0x64 DUP3 PUSH1 0x20 ADD MLOAD PUSH1 0xFF AND GT ISZERO PUSH3 0x24E8 JUMPI PUSH1 0x0 DUP1 REVERT JUMPDEST DUP2 PUSH1 0x60 ADD MLOAD PUSH1 0xFF AND DUP3 PUSH1 0x40 ADD MLOAD PUSH1 0xFF AND LT PUSH3 0x2503 JUMPI PUSH1 0x0 DUP1 REVERT JUMPDEST PUSH1 0xC0 DUP3 ADD MLOAD PUSH1 0xA0 DUP4 ADD MLOAD PUSH3 0x2625A0 PUSH1 0xFF SWAP3 DUP4 AND MUL SWAP2 AND PUSH3 0x7A120 MUL GT ISZERO PUSH3 0x252A JUMPI PUSH1 0x0 DUP1 REVERT JUMPDEST PUSH1 0x64 DUP3 PUSH1 0xE0 ADD MLOAD PUSH1 0xFF AND LT PUSH3 0x253F JUMPI PUSH1 0x0 DUP1 REVERT JUMPDEST POP PUSH1 0xE0 DUP2 ADD MLOAD PUSH1 0xC0 DUP3 ADD MLOAD PUSH1 0xA0 DUP4 ADD MLOAD PUSH1 0x60 DUP5 ADD MLOAD PUSH1 0x40 DUP6 ADD MLOAD PUSH1 0x80 DUP7 ADD MLOAD PUSH1 0x20 DUP1 DUP9 ADD MLOAD SWAP8 MLOAD PUSH1 0xFF SWAP1 SWAP8 AND PUSH1 0x8 SWAP7 SWAP1 SWAP7 SHL PUSH2 0xFF00 AND PUSH1 0x10 SWAP6 SWAP1 SWAP6 SHL PUSH3 0xFF0000 AND PUSH1 0x18 SWAP5 SWAP1 SWAP5 SHL PUSH4 0xFF000000 AND SWAP3 SWAP1 SHL PUSH5 0xFF00000000 AND PUSH1 0x28 SWAP2 SWAP1 SWAP2 SHL PUSH6 0xFF0000000000 AND PUSH1 0x30 SWAP8 SWAP1 SWAP8 SHL PUSH7 0xFF000000000000 AND PUSH1 0x38 SWAP7 SWAP1 SWAP7 SHL PUSH1 0xFF PUSH1 0x38 SHL AND SWAP6 SWAP1 SWAP6 OR SWAP6 SWAP1 SWAP6 OR SWAP4 SWAP1 SWAP4 OR SWAP4 SWAP1 SWAP4 OR SWAP2 SWAP1 SWAP2 OR SWAP2 SWAP1 SWAP2 OR OR SWAP1 JUMP JUMPDEST PUSH1 0x0 DUP1 PUSH3 0xEB1 PUSH1 0xD PUSH3 0x1BA7 JUMP JUMPDEST PUSH2 0xFFFF PUSH1 0x30 SHL PUSH1 0x30 DUP5 SWAP1 SHL AND PUSH6 0xFFFFFFFFFF00 PUSH1 0x8 DUP5 SWAP1 SHL AND OR PUSH1 0xFF DUP3 AND OR SWAP4 SWAP3 POP POP POP JUMP JUMPDEST PUSH1 0x40 DUP1 MLOAD PUSH1 0xA0 DUP2 ADD DUP3 MSTORE PUSH1 0x0 DUP1 DUP3 MSTORE PUSH1 0x20 DUP3 ADD DUP2 SWAP1 MSTORE SWAP2 DUP2 ADD DUP3 SWAP1 MSTORE SWAP1 PUSH1 0x60 DUP3 ADD SWAP1 DUP2 MSTORE PUSH1 0x20 ADD PUSH1 0x0 DUP2 MSTORE POP SWAP1 JUMP JUMPDEST PUSH2 0x99B DUP1 PUSH3 0x3029 DUP4 CODECOPY ADD SWAP1 JUMP JUMPDEST PUSH1 0x40 MLOAD DUP1 PUSH1 0xC0 ADD PUSH1 0x40 MSTORE DUP1 PUSH1 0x0 PUSH2 0xFFFF AND DUP2 MSTORE PUSH1 0x20 ADD PUSH1 0x0 DUP2 MSTORE PUSH1 0x20 ADD PUSH1 0x0 DUP2 MSTORE PUSH1 0x20 ADD PUSH1 0x0 DUP2 MSTORE PUSH1 0x20 ADD PUSH1 0x0 DUP2 MSTORE PUSH1 0x20 ADD PUSH1 0x0 PUSH1 0x3 DUP2 GT ISZERO PUSH3 0x268D JUMPI INVALID JUMPDEST SWAP1 MSTORE SWAP1 JUMP JUMPDEST PUSH1 0x0 DUP3 PUSH1 0x1F DUP4 ADD SLT PUSH3 0x26A3 JUMPI DUP1 DUP2 REVERT JUMPDEST DUP2 MLOAD PUSH1 0x20 PUSH3 0x26BC PUSH3 0x26B6 DUP4 PUSH3 0x2FC1 JUMP JUMPDEST PUSH3 0x2F9C JUMP JUMPDEST DUP3 DUP2 MSTORE DUP2 DUP2 ADD SWAP1 DUP6 DUP4 ADD PUSH2 0x100 DUP1 DUP7 MUL DUP9 ADD DUP6 ADD DUP10 LT ISZERO PUSH3 0x26DC JUMPI DUP7 DUP8 REVERT JUMPDEST DUP7 JUMPDEST DUP7 DUP2 LT ISZERO PUSH3 0x2706 JUMPI PUSH3 0x26F3 DUP11 DUP5 PUSH3 0x2939 JUMP JUMPDEST DUP6 MSTORE SWAP4 DUP6 ADD SWAP4 SWAP2 DUP2 ADD SWAP2 PUSH1 0x1 ADD PUSH3 0x26DE JUMP JUMPDEST POP SWAP2 SWAP9 SWAP8 POP POP POP POP POP POP POP POP JUMP JUMPDEST PUSH1 0x0 DUP3 PUSH1 0x1F DUP4 ADD SLT PUSH3 0x2725 JUMPI DUP1 DUP2 REVERT JUMPDEST DUP2 MLOAD PUSH1 0x20 PUSH3 0x2738 PUSH3 0x26B6 DUP4 PUSH3 0x2FC1 JUMP JUMPDEST DUP3 DUP2 MSTORE DUP2 DUP2 ADD SWAP1 DUP6 DUP4 ADD PUSH1 0x40 DUP1 DUP7 MUL DUP9 ADD DUP6 ADD DUP10 LT ISZERO PUSH3 0x2757 JUMPI DUP7 DUP8 REVERT JUMPDEST DUP7 JUMPDEST DUP7 DUP2 LT ISZERO PUSH3 0x2706 JUMPI DUP2 DUP4 DUP12 SUB SLT ISZERO PUSH3 0x2771 JUMPI DUP8 DUP9 REVERT JUMPDEST DUP2 MLOAD DUP3 DUP2 ADD DUP2 DUP2 LT PUSH8 0xFFFFFFFFFFFFFFFF DUP3 GT OR ISZERO PUSH3 0x278D JUMPI INVALID JUMPDEST DUP4 MSTORE DUP4 MLOAD PUSH5 0xFFFFFFFFFF DUP2 AND DUP2 EQ PUSH3 0x27A4 JUMPI DUP10 DUP11 REVERT JUMPDEST DUP2 MSTORE DUP4 DUP8 ADD MLOAD PUSH1 0x1 PUSH1 0x1 PUSH1 0x50 SHL SUB DUP2 AND DUP2 EQ PUSH3 0x27BF JUMPI DUP10 DUP11 REVERT JUMPDEST DUP2 DUP9 ADD MSTORE DUP6 MSTORE SWAP4 DUP6 ADD SWAP4 SWAP2 DUP2 ADD SWAP2 PUSH1 0x1 ADD PUSH3 0x2759 JUMP JUMPDEST DUP1 MLOAD DUP1 ISZERO ISZERO DUP2 EQ PUSH3 0x10E4 JUMPI PUSH1 0x0 DUP1 REVERT JUMPDEST DUP1 MLOAD PUSH3 0x10E4 DUP2 PUSH3 0x300F JUMP JUMPDEST PUSH1 0x0 DUP3 PUSH1 0x1F DUP4 ADD SLT PUSH3 0x2805 JUMPI DUP1 DUP2 REVERT JUMPDEST DUP2 MLOAD PUSH8 0xFFFFFFFFFFFFFFFF DUP2 GT ISZERO PUSH3 0x281A JUMPI INVALID JUMPDEST PUSH3 0x282F PUSH1 0x1F DUP3 ADD PUSH1 0x1F NOT AND PUSH1 0x20 ADD PUSH3 0x2F9C JUMP JUMPDEST DUP2 DUP2 MSTORE DUP5 PUSH1 0x20 DUP4 DUP7 ADD ADD GT ISZERO PUSH3 0x2844 JUMPI DUP3 DUP4 REVERT JUMPDEST PUSH3 0x1F42 DUP3 PUSH1 0x20 DUP4 ADD PUSH1 0x20 DUP8 ADD PUSH3 0x2FE0 JUMP JUMPDEST PUSH1 0x0 PUSH2 0x140 DUP1 DUP4 DUP6 SUB SLT ISZERO PUSH3 0x286B JUMPI DUP2 DUP3 REVERT JUMPDEST PUSH3 0x2876 DUP2 PUSH3 0x2F9C JUMP JUMPDEST SWAP2 POP POP PUSH3 0x2884 DUP3 PUSH3 0x2A0C JUMP JUMPDEST DUP2 MSTORE PUSH3 0x2894 PUSH1 0x20 DUP4 ADD PUSH3 0x2A0C JUMP JUMPDEST PUSH1 0x20 DUP3 ADD MSTORE PUSH3 0x28A7 PUSH1 0x40 DUP4 ADD PUSH3 0x2A0C JUMP JUMPDEST PUSH1 0x40 DUP3 ADD MSTORE PUSH3 0x28BA PUSH1 0x60 DUP4 ADD PUSH3 0x2A0C JUMP JUMPDEST PUSH1 0x60 DUP3 ADD MSTORE PUSH3 0x28CD PUSH1 0x80 DUP4 ADD PUSH3 0x2A0C JUMP JUMPDEST PUSH1 0x80 DUP3 ADD MSTORE PUSH3 0x28E0 PUSH1 0xA0 DUP4 ADD PUSH3 0x2A0C JUMP JUMPDEST PUSH1 0xA0 DUP3 ADD MSTORE PUSH3 0x28F3 PUSH1 0xC0 DUP4 ADD PUSH3 0x2A0C JUMP JUMPDEST PUSH1 0xC0 DUP3 ADD MSTORE PUSH3 0x2906 PUSH1 0xE0 DUP4 ADD PUSH3 0x2A0C JUMP JUMPDEST PUSH1 0xE0 DUP3 ADD MSTORE PUSH2 0x100 PUSH3 0x291B DUP2 DUP5 ADD PUSH3 0x2A0C JUMP JUMPDEST SWAP1 DUP3 ADD MSTORE PUSH2 0x120 PUSH3 0x292F DUP4 DUP3 ADD PUSH3 0x2A0C JUMP JUMPDEST SWAP1 DUP3 ADD MSTORE SWAP3 SWAP2 POP POP JUMP JUMPDEST PUSH1 0x0 PUSH2 0x100 DUP1 DUP4 DUP6 SUB SLT ISZERO PUSH3 0x294D JUMPI DUP2 DUP3 REVERT JUMPDEST PUSH1 0x40 MLOAD SWAP1 DUP2 ADD SWAP1 PUSH8 0xFFFFFFFFFFFFFFFF DUP3 GT DUP2 DUP4 LT OR ISZERO PUSH3 0x296B JUMPI INVALID JUMPDEST DUP2 PUSH1 0x40 MSTORE DUP1 SWAP3 POP PUSH3 0x297D DUP5 PUSH3 0x2A0C JUMP JUMPDEST DUP2 MSTORE PUSH3 0x298D PUSH1 0x20 DUP6 ADD PUSH3 0x2A0C JUMP JUMPDEST PUSH1 0x20 DUP3 ADD MSTORE PUSH3 0x29A0 PUSH1 0x40 DUP6 ADD PUSH3 0x2A0C JUMP JUMPDEST PUSH1 0x40 DUP3 ADD MSTORE PUSH3 0x29B3 PUSH1 0x60 DUP6 ADD PUSH3 0x2A0C JUMP JUMPDEST PUSH1 0x60 DUP3 ADD MSTORE PUSH3 0x29C6 PUSH1 0x80 DUP6 ADD PUSH3 0x2A0C JUMP JUMPDEST PUSH1 0x80 DUP3 ADD MSTORE PUSH3 0x29D9 PUSH1 0xA0 DUP6 ADD PUSH3 0x2A0C JUMP JUMPDEST PUSH1 0xA0 DUP3 ADD MSTORE PUSH3 0x29EC PUSH1 0xC0 DUP6 ADD PUSH3 0x2A0C JUMP JUMPDEST PUSH1 0xC0 DUP3 ADD MSTORE PUSH3 0x29FF PUSH1 0xE0 DUP6 ADD PUSH3 0x2A0C JUMP JUMPDEST PUSH1 0xE0 DUP3 ADD MSTORE POP POP SWAP3 SWAP2 POP POP JUMP JUMPDEST DUP1 MLOAD PUSH1 0xFF DUP2 AND DUP2 EQ PUSH3 0x10E4 JUMPI PUSH1 0x0 DUP1 REVERT JUMPDEST PUSH1 0x0 PUSH1 0x20 DUP3 DUP5 SUB SLT ISZERO PUSH3 0x2A30 JUMPI DUP1 DUP2 REVERT JUMPDEST DUP2 MLOAD PUSH3 0x10BC DUP2 PUSH3 0x300F JUMP JUMPDEST PUSH1 0x0 PUSH1 0x20 DUP1 DUP4 DUP6 SUB SLT ISZERO PUSH3 0x2A50 JUMPI DUP2 DUP3 REVERT JUMPDEST DUP3 MLOAD PUSH8 0xFFFFFFFFFFFFFFFF DUP2 GT ISZERO PUSH3 0x2A67 JUMPI DUP3 DUP4 REVERT JUMPDEST DUP4 ADD PUSH1 0x1F DUP2 ADD DUP6 SGT PUSH3 0x2A78 JUMPI DUP3 DUP4 REVERT JUMPDEST DUP1 MLOAD PUSH3 0x2A89 PUSH3 0x26B6 DUP3 PUSH3 0x2FC1 JUMP JUMPDEST DUP2 DUP2 MSTORE DUP4 DUP2 ADD SWAP1 DUP4 DUP6 ADD DUP6 DUP5 MUL DUP6 ADD DUP7 ADD DUP10 LT ISZERO PUSH3 0x2AA6 JUMPI DUP7 DUP8 REVERT JUMPDEST DUP7 SWAP5 POP JUMPDEST DUP4 DUP6 LT ISZERO PUSH3 0x2AD5 JUMPI DUP1 MLOAD PUSH3 0x2AC0 DUP2 PUSH3 0x300F JUMP JUMPDEST DUP4 MSTORE PUSH1 0x1 SWAP5 SWAP1 SWAP5 ADD SWAP4 SWAP2 DUP6 ADD SWAP2 DUP6 ADD PUSH3 0x2AAA JUMP JUMPDEST POP SWAP8 SWAP7 POP POP POP POP POP POP POP JUMP JUMPDEST PUSH1 0x0 DUP1 PUSH1 0x40 DUP4 DUP6 SUB SLT ISZERO PUSH3 0x2AF4 JUMPI DUP1 DUP2 REVERT JUMPDEST DUP3 MLOAD PUSH8 0xFFFFFFFFFFFFFFFF DUP1 DUP3 GT ISZERO PUSH3 0x2B0C JUMPI DUP3 DUP4 REVERT JUMPDEST PUSH3 0x2B1A DUP7 DUP4 DUP8 ADD PUSH3 0x2692 JUMP JUMPDEST SWAP4 POP PUSH1 0x20 SWAP2 POP DUP2 DUP6 ADD MLOAD DUP2 DUP2 GT ISZERO PUSH3 0x2B31 JUMPI DUP4 DUP5 REVERT JUMPDEST DUP6 ADD SWAP1 POP PUSH1 0x1F DUP2 ADD DUP7 SGT PUSH3 0x2B44 JUMPI DUP3 DUP4 REVERT JUMPDEST DUP1 MLOAD PUSH3 0x2B55 PUSH3 0x26B6 DUP3 PUSH3 0x2FC1 JUMP JUMPDEST DUP2 DUP2 MSTORE DUP4 DUP2 ADD SWAP1 DUP4 DUP6 ADD DUP6 DUP5 MUL DUP6 ADD DUP7 ADD DUP11 LT ISZERO PUSH3 0x2B72 JUMPI DUP7 DUP8 REVERT JUMPDEST DUP7 SWAP5 POP JUMPDEST DUP4 DUP6 LT ISZERO PUSH3 0x2B96 JUMPI DUP1 MLOAD DUP4 MSTORE PUSH1 0x1 SWAP5 SWAP1 SWAP5 ADD SWAP4 SWAP2 DUP6 ADD SWAP2 DUP6 ADD PUSH3 0x2B76 JUMP JUMPDEST POP DUP1 SWAP6 POP POP POP POP POP POP SWAP3 POP SWAP3 SWAP1 POP JUMP JUMPDEST PUSH1 0x0 DUP1 PUSH1 0x20 DUP4 DUP6 SUB SLT ISZERO PUSH3 0x2BB9 JUMPI DUP2 DUP3 REVERT JUMPDEST DUP3 CALLDATALOAD PUSH8 0xFFFFFFFFFFFFFFFF DUP1 DUP3 GT ISZERO PUSH3 0x2BD1 JUMPI DUP4 DUP5 REVERT JUMPDEST DUP2 DUP6 ADD SWAP2 POP DUP6 PUSH1 0x1F DUP4 ADD SLT PUSH3 0x2BE5 JUMPI DUP4 DUP5 REVERT JUMPDEST DUP2 CALLDATALOAD DUP2 DUP2 GT ISZERO PUSH3 0x2BF4 JUMPI DUP5 DUP6 REVERT JUMPDEST DUP7 PUSH1 0x20 DUP1 DUP4 MUL DUP6 ADD ADD GT ISZERO PUSH3 0x2C08 JUMPI DUP5 DUP6 REVERT JUMPDEST PUSH1 0x20 SWAP3 SWAP1 SWAP3 ADD SWAP7 SWAP2 SWAP6 POP SWAP1 SWAP4 POP POP POP POP JUMP JUMPDEST PUSH1 0x0 PUSH1 0x20 DUP3 DUP5 SUB SLT ISZERO PUSH3 0x2C2C JUMPI DUP1 DUP2 REVERT JUMPDEST DUP2 MLOAD PUSH8 0xFFFFFFFFFFFFFFFF DUP1 DUP3 GT ISZERO PUSH3 0x2C44 JUMPI DUP3 DUP4 REVERT JUMPDEST SWAP1 DUP4 ADD SWAP1 PUSH2 0x320 DUP3 DUP7 SUB SLT ISZERO PUSH3 0x2C59 JUMPI DUP3 DUP4 REVERT JUMPDEST PUSH2 0x120 PUSH3 0x2C67 DUP2 PUSH3 0x2F9C JUMP JUMPDEST PUSH3 0x2C73 DUP8 DUP6 PUSH3 0x2939 JUMP JUMPDEST DUP2 MSTORE PUSH2 0x100 PUSH3 0x2C85 DUP2 DUP7 ADD PUSH3 0x27E7 JUMP JUMPDEST PUSH1 0x20 DUP4 ADD MSTORE PUSH3 0x2C98 DUP9 DUP5 DUP8 ADD PUSH3 0x2857 JUMP JUMPDEST PUSH1 0x40 DUP4 ADD MSTORE PUSH3 0x2CAC PUSH2 0x260 DUP7 ADD PUSH3 0x2A0C JUMP JUMPDEST PUSH1 0x60 DUP4 ADD MSTORE PUSH3 0x2CC0 PUSH2 0x280 DUP7 ADD PUSH3 0x27D6 JUMP JUMPDEST PUSH1 0x80 DUP4 ADD MSTORE PUSH2 0x2A0 DUP6 ADD MLOAD SWAP3 POP DUP4 DUP4 GT ISZERO PUSH3 0x2CDA JUMPI DUP6 DUP7 REVERT JUMPDEST PUSH3 0x2CE8 DUP9 DUP5 DUP8 ADD PUSH3 0x27F4 JUMP JUMPDEST PUSH1 0xA0 DUP4 ADD MSTORE PUSH2 0x2C0 DUP6 ADD MLOAD SWAP3 POP DUP4 DUP4 GT ISZERO PUSH3 0x2D02 JUMPI DUP6 DUP7 REVERT JUMPDEST PUSH3 0x2D10 DUP9 DUP5 DUP8 ADD PUSH3 0x27F4 JUMP JUMPDEST PUSH1 0xC0 DUP4 ADD MSTORE PUSH2 0x2E0 DUP6 ADD MLOAD SWAP3 POP DUP4 DUP4 GT ISZERO PUSH3 0x2D2A JUMPI DUP6 DUP7 REVERT JUMPDEST PUSH3 0x2D38 DUP9 DUP5 DUP8 ADD PUSH3 0x2692 JUMP JUMPDEST PUSH1 0xE0 DUP4 ADD MSTORE PUSH2 0x300 DUP6 ADD MLOAD SWAP3 POP DUP4 DUP4 GT ISZERO PUSH3 0x2D52 JUMPI DUP6 DUP7 REVERT JUMPDEST PUSH3 0x2D60 DUP9 DUP5 DUP8 ADD PUSH3 0x2714 JUMP JUMPDEST SWAP1 DUP3 ADD MSTORE SWAP7 SWAP6 POP POP POP POP POP POP JUMP JUMPDEST PUSH1 0x0 PUSH1 0x20 DUP3 DUP5 SUB SLT ISZERO PUSH3 0x2D80 JUMPI DUP1 DUP2 REVERT JUMPDEST POP MLOAD SWAP2 SWAP1 POP JUMP JUMPDEST PUSH1 0x0 DUP1 PUSH1 0x40 DUP4 DUP6 SUB SLT ISZERO PUSH3 0x2D9A JUMPI DUP2 DUP3 REVERT JUMPDEST POP POP DUP1 MLOAD PUSH1 0x20 SWAP1 SWAP2 ADD MLOAD SWAP1 SWAP3 SWAP1 SWAP2 POP JUMP JUMPDEST PUSH1 0x0 PUSH1 0x20 DUP3 DUP5 SUB SLT ISZERO PUSH3 0x2DBD JUMPI DUP1 DUP2 REVERT JUMPDEST PUSH3 0x10BC DUP3 PUSH3 0x2A0C JUMP JUMPDEST PUSH1 0x0 DUP2 MLOAD DUP1 DUP5 MSTORE PUSH3 0x2DE2 DUP2 PUSH1 0x20 DUP7 ADD PUSH1 0x20 DUP7 ADD PUSH3 0x2FE0 JUMP JUMPDEST PUSH1 0x1F ADD PUSH1 0x1F NOT AND SWAP3 SWAP1 SWAP3 ADD PUSH1 0x20 ADD SWAP3 SWAP2 POP POP JUMP JUMPDEST PUSH1 0x1 PUSH1 0x1 PUSH1 0xA0 SHL SUB SWAP2 SWAP1 SWAP2 AND DUP2 MSTORE PUSH1 0x20 ADD SWAP1 JUMP JUMPDEST PUSH1 0x1 PUSH1 0x1 PUSH1 0xA0 SHL SUB SWAP4 DUP5 AND DUP2 MSTORE SWAP2 SWAP1 SWAP3 AND PUSH1 0x20 DUP3 ADD MSTORE PUSH1 0x40 DUP2 ADD SWAP2 SWAP1 SWAP2 MSTORE PUSH1 0x60 ADD SWAP1 JUMP JUMPDEST PUSH1 0x1 PUSH1 0x1 PUSH1 0xA0 SHL SUB SWAP3 SWAP1 SWAP3 AND DUP3 MSTORE ISZERO ISZERO PUSH1 0x20 DUP3 ADD MSTORE PUSH1 0x40 ADD SWAP1 JUMP JUMPDEST PUSH1 0x1 PUSH1 0x1 PUSH1 0xA0 SHL SUB DUP4 AND DUP2 MSTORE PUSH1 0x40 PUSH1 0x20 DUP3 ADD DUP2 SWAP1 MSTORE PUSH1 0x0 SWAP1 PUSH3 0x1F42 SWAP1 DUP4 ADD DUP5 PUSH3 0x2DC8 JUMP JUMPDEST PUSH1 0x1 PUSH1 0x1 PUSH1 0xA0 SHL SUB SWAP3 SWAP1 SWAP3 AND DUP3 MSTORE PUSH1 0x20 DUP3 ADD MSTORE PUSH1 0x40 ADD SWAP1 JUMP JUMPDEST PUSH1 0x20 DUP1 DUP3 MSTORE PUSH1 0x13 SWAP1 DUP3 ADD MSTORE PUSH19 0x54483A2061646472657373206973207A65726F PUSH1 0x68 SHL PUSH1 0x40 DUP3 ADD MSTORE PUSH1 0x60 ADD SWAP1 JUMP JUMPDEST PUSH1 0x20 DUP1 DUP3 MSTORE PUSH1 0x14 SWAP1 DUP3 ADD MSTORE PUSH20 0x54483A20696E76616C696420646563696D616C73 PUSH1 0x60 SHL PUSH1 0x40 DUP3 ADD MSTORE PUSH1 0x60 ADD SWAP1 JUMP JUMPDEST PUSH1 0x20 DUP1 DUP3 MSTORE PUSH1 0x19 SWAP1 DUP3 ADD MSTORE PUSH32 0x54483A20746F6B656E2063616E6E6F7420626520726573657400000000000000 PUSH1 0x40 DUP3 ADD MSTORE PUSH1 0x60 ADD SWAP1 JUMP JUMPDEST PUSH2 0xFFFF SWAP2 SWAP1 SWAP2 AND DUP2 MSTORE PUSH1 0x20 ADD SWAP1 JUMP JUMPDEST PUSH2 0xFFFF DUP6 AND DUP2 MSTORE PUSH1 0x1 PUSH1 0x1 PUSH1 0xA0 SHL SUB DUP5 AND PUSH1 0x20 DUP3 ADD MSTORE PUSH1 0x80 PUSH1 0x40 DUP3 ADD DUP2 SWAP1 MSTORE PUSH1 0x0 SWAP1 PUSH3 0x2F59 SWAP1 DUP4 ADD DUP6 PUSH3 0x2DC8 JUMP JUMPDEST DUP3 DUP2 SUB PUSH1 0x60 DUP5 ADD MSTORE PUSH3 0x2F6D DUP2 DUP6 PUSH3 0x2DC8 JUMP JUMPDEST SWAP8 SWAP7 POP POP POP POP POP POP POP JUMP JUMPDEST PUSH2 0xFFFF SWAP3 SWAP1 SWAP3 AND DUP3 MSTORE ISZERO ISZERO PUSH1 0x20 DUP3 ADD MSTORE PUSH1 0x40 ADD SWAP1 JUMP JUMPDEST SWAP2 DUP3 MSTORE PUSH1 0x20 DUP3 ADD MSTORE PUSH1 0x40 ADD SWAP1 JUMP JUMPDEST PUSH1 0x40 MLOAD DUP2 DUP2 ADD PUSH8 0xFFFFFFFFFFFFFFFF DUP2 GT DUP3 DUP3 LT OR ISZERO PUSH3 0x2FB9 JUMPI INVALID JUMPDEST PUSH1 0x40 MSTORE SWAP2 SWAP1 POP JUMP JUMPDEST PUSH1 0x0 PUSH8 0xFFFFFFFFFFFFFFFF DUP3 GT ISZERO PUSH3 0x2FD6 JUMPI INVALID JUMPDEST POP PUSH1 0x20 SWAP1 DUP2 MUL ADD SWAP1 JUMP JUMPDEST PUSH1 0x0 JUMPDEST DUP4 DUP2 LT ISZERO PUSH3 0x2FFD JUMPI DUP2 DUP2 ADD MLOAD DUP4 DUP3 ADD MSTORE PUSH1 0x20 ADD PUSH3 0x2FE3 JUMP JUMPDEST DUP4 DUP2 GT ISZERO PUSH3 0xD29 JUMPI POP POP PUSH1 0x0 SWAP2 ADD MSTORE JUMP JUMPDEST PUSH1 0x1 PUSH1 0x1 PUSH1 0xA0 SHL SUB DUP2 AND DUP2 EQ PUSH3 0x3025 JUMPI PUSH1 0x0 DUP1 REVERT JUMPDEST POP JUMP INVALID PUSH1 0x80 PUSH1 0x40 MSTORE PUSH1 0x40 MLOAD PUSH2 0x99B CODESIZE SUB DUP1 PUSH2 0x99B DUP4 CODECOPY DUP2 DUP2 ADD PUSH1 0x40 MSTORE PUSH1 0x40 DUP2 LT ISZERO PUSH2 0x26 JUMPI PUSH1 0x0 DUP1 REVERT JUMPDEST DUP2 MLOAD PUSH1 0x20 DUP4 ADD DUP1 MLOAD PUSH1 0x40 MLOAD SWAP3 SWAP5 SWAP3 SWAP4 DUP4 ADD SWAP3 SWAP2 SWAP1 DUP5 PUSH5 0x100000000 DUP3 GT ISZERO PUSH2 0x4D JUMPI PUSH1 0x0 DUP1 REVERT JUMPDEST SWAP1 DUP4 ADD SWAP1 PUSH1 0x20 DUP3 ADD DUP6 DUP2 GT ISZERO PUSH2 0x62 JUMPI PUSH1 0x0 DUP1 REVERT JUMPDEST DUP3 MLOAD PUSH5 0x100000000 DUP2 GT DUP3 DUP3 ADD DUP9 LT OR ISZERO PUSH2 0x7C JUMPI PUSH1 0x0 DUP1 REVERT JUMPDEST DUP3 MSTORE POP DUP2 MLOAD PUSH1 0x20 SWAP2 DUP3 ADD SWAP3 SWAP1 SWAP2 ADD SWAP1 DUP1 DUP4 DUP4 PUSH1 0x0 JUMPDEST DUP4 DUP2 LT ISZERO PUSH2 0xA9 JUMPI DUP2 DUP2 ADD MLOAD DUP4 DUP3 ADD MSTORE PUSH1 0x20 ADD PUSH2 0x91 JUMP JUMPDEST POP POP POP POP SWAP1 POP SWAP1 DUP2 ADD SWAP1 PUSH1 0x1F AND DUP1 ISZERO PUSH2 0xD6 JUMPI DUP1 DUP3 SUB DUP1 MLOAD PUSH1 0x1 DUP4 PUSH1 0x20 SUB PUSH2 0x100 EXP SUB NOT AND DUP2 MSTORE PUSH1 0x20 ADD SWAP2 POP JUMPDEST POP PUSH1 0x40 MSTORE POP DUP4 SWAP2 POP DUP3 SWAP1 POP PUSH2 0xED DUP3 DUP3 PUSH1 0x0 PUSH2 0xF6 JUMP JUMPDEST POP POP POP POP PUSH2 0x4FA JUMP JUMPDEST PUSH2 0xFF DUP4 PUSH2 0x1C5 JUMP JUMPDEST PUSH1 0x40 MLOAD PUSH1 0x1 PUSH1 0x1 PUSH1 0xA0 SHL SUB DUP5 AND SWAP1 PUSH32 0x1CF3B03A6CF19FA2BABA4DF148E9DCABEDEA7F8A5C07840E207E5C089BE95D3E SWAP1 PUSH1 0x0 SWAP1 LOG2 PUSH1 0x0 DUP3 MLOAD GT DUP1 PUSH2 0x140 JUMPI POP DUP1 JUMPDEST ISZERO PUSH2 0x1C0 JUMPI PUSH2 0x1BE DUP4 PUSH1 0x1 PUSH1 0x1 PUSH1 0xA0 SHL SUB AND PUSH4 0x5C60DA1B PUSH1 0x40 MLOAD DUP2 PUSH4 0xFFFFFFFF AND PUSH1 0xE0 SHL DUP2 MSTORE PUSH1 0x4 ADD PUSH1 0x20 PUSH1 0x40 MLOAD DUP1 DUP4 SUB DUP2 DUP7 DUP1 EXTCODESIZE ISZERO DUP1 ISZERO PUSH2 0x181 JUMPI PUSH1 0x0 DUP1 REVERT JUMPDEST POP GAS STATICCALL ISZERO DUP1 ISZERO PUSH2 0x195 JUMPI RETURNDATASIZE PUSH1 0x0 DUP1 RETURNDATACOPY RETURNDATASIZE PUSH1 0x0 REVERT JUMPDEST POP POP POP POP PUSH1 0x40 MLOAD RETURNDATASIZE PUSH1 0x20 DUP2 LT ISZERO PUSH2 0x1AB JUMPI PUSH1 0x0 DUP1 REVERT JUMPDEST POP MLOAD DUP4 PUSH2 0x31E PUSH1 0x20 SWAP1 DUP2 SHL PUSH2 0xB7 OR SWAP1 SHR JUMP JUMPDEST POP JUMPDEST POP POP POP JUMP JUMPDEST PUSH2 0x1D8 DUP2 PUSH2 0x34A PUSH1 0x20 SHL PUSH2 0xE3 OR PUSH1 0x20 SHR JUMP JUMPDEST PUSH2 0x213 JUMPI PUSH1 0x40 MLOAD PUSH3 0x461BCD PUSH1 0xE5 SHL DUP2 MSTORE PUSH1 0x4 ADD DUP1 DUP1 PUSH1 0x20 ADD DUP3 DUP2 SUB DUP3 MSTORE PUSH1 0x25 DUP2 MSTORE PUSH1 0x20 ADD DUP1 PUSH2 0x8F9 PUSH1 0x25 SWAP2 CODECOPY PUSH1 0x40 ADD SWAP2 POP POP PUSH1 0x40 MLOAD DUP1 SWAP2 SUB SWAP1 REVERT JUMPDEST PUSH2 0x28B DUP2 PUSH1 0x1 PUSH1 0x1 PUSH1 0xA0 SHL SUB AND PUSH4 0x5C60DA1B PUSH1 0x40 MLOAD DUP2 PUSH4 0xFFFFFFFF AND PUSH1 0xE0 SHL DUP2 MSTORE PUSH1 0x4 ADD PUSH1 0x20 PUSH1 0x40 MLOAD DUP1 DUP4 SUB DUP2 DUP7 DUP1 EXTCODESIZE ISZERO DUP1 ISZERO PUSH2 0x24F JUMPI PUSH1 0x0 DUP1 REVERT JUMPDEST POP GAS STATICCALL ISZERO DUP1 ISZERO PUSH2 0x263 JUMPI RETURNDATASIZE PUSH1 0x0 DUP1 RETURNDATACOPY RETURNDATASIZE PUSH1 0x0 REVERT JUMPDEST POP POP POP POP PUSH1 0x40 MLOAD RETURNDATASIZE PUSH1 0x20 DUP2 LT ISZERO PUSH2 0x279 JUMPI PUSH1 0x0 DUP1 REVERT JUMPDEST POP MLOAD PUSH2 0x34A PUSH1 0x20 SWAP1 DUP2 SHL PUSH2 0xE3 OR SWAP1 SHR JUMP JUMPDEST PUSH2 0x2C6 JUMPI PUSH1 0x40 MLOAD PUSH3 0x461BCD PUSH1 0xE5 SHL DUP2 MSTORE PUSH1 0x4 ADD DUP1 DUP1 PUSH1 0x20 ADD DUP3 DUP2 SUB DUP3 MSTORE PUSH1 0x30 DUP2 MSTORE PUSH1 0x20 ADD DUP1 PUSH2 0x96B PUSH1 0x30 SWAP2 CODECOPY PUSH1 0x40 ADD SWAP2 POP POP PUSH1 0x40 MLOAD DUP1 SWAP2 SUB SWAP1 REVERT JUMPDEST DUP1 PUSH2 0x2FD PUSH32 0xA3F0AD74E5423AEBFD80D3EF4346578335A9A72AEAEE59FF6CB3582B35133D50 PUSH1 0x0 SHL PUSH2 0x350 PUSH1 0x20 SHL PUSH2 0xE9 OR PUSH1 0x20 SHR JUMP JUMPDEST DUP1 SLOAD PUSH1 0x1 PUSH1 0x1 PUSH1 0xA0 SHL SUB NOT AND PUSH1 0x1 PUSH1 0x1 PUSH1 0xA0 SHL SUB SWAP3 SWAP1 SWAP3 AND SWAP2 SWAP1 SWAP2 OR SWAP1 SSTORE POP JUMP JUMPDEST PUSH1 0x60 PUSH2 0x343 DUP4 DUP4 PUSH1 0x40 MLOAD DUP1 PUSH1 0x60 ADD PUSH1 0x40 MSTORE DUP1 PUSH1 0x27 DUP2 MSTORE PUSH1 0x20 ADD PUSH2 0x91E PUSH1 0x27 SWAP2 CODECOPY PUSH2 0x353 JUMP JUMPDEST SWAP4 SWAP3 POP POP POP JUMP JUMPDEST EXTCODESIZE ISZERO ISZERO SWAP1 JUMP JUMPDEST SWAP1 JUMP JUMPDEST PUSH1 0x60 PUSH2 0x35E DUP5 PUSH2 0x34A JUMP JUMPDEST PUSH2 0x399 JUMPI PUSH1 0x40 MLOAD PUSH3 0x461BCD PUSH1 0xE5 SHL DUP2 MSTORE PUSH1 0x4 ADD DUP1 DUP1 PUSH1 0x20 ADD DUP3 DUP2 SUB DUP3 MSTORE PUSH1 0x26 DUP2 MSTORE PUSH1 0x20 ADD DUP1 PUSH2 0x945 PUSH1 0x26 SWAP2 CODECOPY PUSH1 0x40 ADD SWAP2 POP POP PUSH1 0x40 MLOAD DUP1 SWAP2 SUB SWAP1 REVERT JUMPDEST PUSH1 0x0 DUP1 DUP6 PUSH1 0x1 PUSH1 0x1 PUSH1 0xA0 SHL SUB AND DUP6 PUSH1 0x40 MLOAD DUP1 DUP3 DUP1 MLOAD SWAP1 PUSH1 0x20 ADD SWAP1 DUP1 DUP4 DUP4 JUMPDEST PUSH1 0x20 DUP4 LT PUSH2 0x3D6 JUMPI DUP1 MLOAD DUP3 MSTORE PUSH1 0x1F NOT SWAP1 SWAP3 ADD SWAP2 PUSH1 0x20 SWAP2 DUP3 ADD SWAP2 ADD PUSH2 0x3B7 JUMP JUMPDEST PUSH1 0x1 DUP4 PUSH1 0x20 SUB PUSH2 0x100 EXP SUB DUP1 NOT DUP3 MLOAD AND DUP2 DUP5 MLOAD AND DUP1 DUP3 OR DUP6 MSTORE POP POP POP POP POP POP SWAP1 POP ADD SWAP2 POP POP PUSH1 0x0 PUSH1 0x40 MLOAD DUP1 DUP4 SUB DUP2 DUP6 GAS DELEGATECALL SWAP2 POP POP RETURNDATASIZE DUP1 PUSH1 0x0 DUP2 EQ PUSH2 0x436 JUMPI PUSH1 0x40 MLOAD SWAP2 POP PUSH1 0x1F NOT PUSH1 0x3F RETURNDATASIZE ADD AND DUP3 ADD PUSH1 0x40 MSTORE RETURNDATASIZE DUP3 MSTORE RETURNDATASIZE PUSH1 0x0 PUSH1 0x20 DUP5 ADD RETURNDATACOPY PUSH2 0x43B JUMP JUMPDEST PUSH1 0x60 SWAP2 POP JUMPDEST POP SWAP1 SWAP3 POP SWAP1 POP PUSH2 0x44C DUP3 DUP3 DUP7 PUSH2 0x456 JUMP JUMPDEST SWAP7 SWAP6 POP POP POP POP POP POP JUMP JUMPDEST PUSH1 0x60 DUP4 ISZERO PUSH2 0x465 JUMPI POP DUP2 PUSH2 0x343 JUMP JUMPDEST DUP3 MLOAD ISZERO PUSH2 0x475 JUMPI DUP3 MLOAD DUP1 DUP5 PUSH1 0x20 ADD REVERT JUMPDEST DUP2 PUSH1 0x40 MLOAD PUSH3 0x461BCD PUSH1 0xE5 SHL DUP2 MSTORE PUSH1 0x4 ADD DUP1 DUP1 PUSH1 0x20 ADD DUP3 DUP2 SUB DUP3 MSTORE DUP4 DUP2 DUP2 MLOAD DUP2 MSTORE PUSH1 0x20 ADD SWAP2 POP DUP1 MLOAD SWAP1 PUSH1 0x20 ADD SWAP1 DUP1 DUP4 DUP4 PUSH1 0x0 JUMPDEST DUP4 DUP2 LT ISZERO PUSH2 0x4BF JUMPI DUP2 DUP2 ADD MLOAD DUP4 DUP3 ADD MSTORE PUSH1 0x20 ADD PUSH2 0x4A7 JUMP JUMPDEST POP POP POP POP SWAP1 POP SWAP1 DUP2 ADD SWAP1 PUSH1 0x1F AND DUP1 ISZERO PUSH2 0x4EC JUMPI DUP1 DUP3 SUB DUP1 MLOAD PUSH1 0x1 DUP4 PUSH1 0x20 SUB PUSH2 0x100 EXP SUB NOT AND DUP2 MSTORE PUSH1 0x20 ADD SWAP2 POP JUMPDEST POP SWAP3 POP POP POP PUSH1 0x40 MLOAD DUP1 SWAP2 SUB SWAP1 REVERT JUMPDEST PUSH2 0x3F0 DUP1 PUSH2 0x509 PUSH1 0x0 CODECOPY PUSH1 0x0 RETURN INVALID PUSH1 0x80 PUSH1 0x40 MSTORE PUSH1 0x4 CALLDATASIZE LT PUSH2 0x2D JUMPI PUSH1 0x0 CALLDATALOAD PUSH1 0xE0 SHR DUP1 PUSH4 0x2D6B3A6B EQ PUSH2 0x3E JUMPI DUP1 PUSH4 0xAAF10F42 EQ PUSH2 0x6F JUMPI PUSH2 0x34 JUMP JUMPDEST CALLDATASIZE PUSH2 0x34 JUMPI STOP JUMPDEST PUSH2 0x3C PUSH2 0x84 JUMP JUMPDEST STOP JUMPDEST CALLVALUE DUP1 ISZERO PUSH2 0x4A JUMPI PUSH1 0x0 DUP1 REVERT JUMPDEST POP PUSH2 0x53 PUSH2 0x9E JUMP JUMPDEST PUSH1 0x40 DUP1 MLOAD PUSH1 0x1 PUSH1 0x1 PUSH1 0xA0 SHL SUB SWAP1 SWAP3 AND DUP3 MSTORE MLOAD SWAP1 DUP2 SWAP1 SUB PUSH1 0x20 ADD SWAP1 RETURN JUMPDEST CALLVALUE DUP1 ISZERO PUSH2 0x7B JUMPI PUSH1 0x0 DUP1 REVERT JUMPDEST POP PUSH2 0x53 PUSH2 0xAD JUMP JUMPDEST PUSH2 0x8C PUSH2 0x9C JUMP JUMPDEST PUSH2 0x9C PUSH2 0x97 PUSH2 0xEC JUMP JUMPDEST PUSH2 0x15F JUMP JUMPDEST JUMP JUMPDEST PUSH1 0x0 PUSH2 0xA8 PUSH2 0x183 JUMP JUMPDEST SWAP1 POP SWAP1 JUMP JUMPDEST PUSH1 0x0 PUSH2 0xA8 PUSH2 0xEC JUMP JUMPDEST PUSH1 0x60 PUSH2 0xDC DUP4 DUP4 PUSH1 0x40 MLOAD DUP1 PUSH1 0x60 ADD PUSH1 0x40 MSTORE DUP1 PUSH1 0x27 DUP2 MSTORE PUSH1 0x20 ADD PUSH2 0x36E PUSH1 0x27 SWAP2 CODECOPY PUSH2 0x18D JUMP JUMPDEST SWAP4 SWAP3 POP POP POP JUMP JUMPDEST EXTCODESIZE ISZERO ISZERO SWAP1 JUMP JUMPDEST SWAP1 JUMP JUMPDEST PUSH1 0x0 PUSH2 0xF6 PUSH2 0x28F JUMP JUMPDEST PUSH1 0x1 PUSH1 0x1 PUSH1 0xA0 SHL SUB AND PUSH4 0x5C60DA1B PUSH1 0x40 MLOAD DUP2 PUSH4 0xFFFFFFFF AND PUSH1 0xE0 SHL DUP2 MSTORE PUSH1 0x4 ADD PUSH1 0x20 PUSH1 0x40 MLOAD DUP1 DUP4 SUB DUP2 DUP7 DUP1 EXTCODESIZE ISZERO DUP1 ISZERO PUSH2 0x12E JUMPI PUSH1 0x0 DUP1 REVERT JUMPDEST POP GAS STATICCALL ISZERO DUP1 ISZERO PUSH2 0x142 JUMPI RETURNDATASIZE PUSH1 0x0 DUP1 RETURNDATACOPY RETURNDATASIZE PUSH1 0x0 REVERT JUMPDEST POP POP POP POP PUSH1 0x40 MLOAD RETURNDATASIZE PUSH1 0x20 DUP2 LT ISZERO PUSH2 0x158 JUMPI PUSH1 0x0 DUP1 REVERT JUMPDEST POP MLOAD SWAP1 POP SWAP1 JUMP JUMPDEST CALLDATASIZE PUSH1 0x0 DUP1 CALLDATACOPY PUSH1 0x0 DUP1 CALLDATASIZE PUSH1 0x0 DUP5 GAS DELEGATECALL RETURNDATASIZE PUSH1 0x0 DUP1 RETURNDATACOPY DUP1 DUP1 ISZERO PUSH2 0x17E JUMPI RETURNDATASIZE PUSH1 0x0 RETURN JUMPDEST RETURNDATASIZE PUSH1 0x0 REVERT JUMPDEST PUSH1 0x0 PUSH2 0xA8 PUSH2 0x28F JUMP JUMPDEST PUSH1 0x60 PUSH2 0x198 DUP5 PUSH2 0xE3 JUMP JUMPDEST PUSH2 0x1D3 JUMPI PUSH1 0x40 MLOAD PUSH3 0x461BCD PUSH1 0xE5 SHL DUP2 MSTORE PUSH1 0x4 ADD DUP1 DUP1 PUSH1 0x20 ADD DUP3 DUP2 SUB DUP3 MSTORE PUSH1 0x26 DUP2 MSTORE PUSH1 0x20 ADD DUP1 PUSH2 0x395 PUSH1 0x26 SWAP2 CODECOPY PUSH1 0x40 ADD SWAP2 POP POP PUSH1 0x40 MLOAD DUP1 SWAP2 SUB SWAP1 REVERT JUMPDEST PUSH1 0x0 DUP1 DUP6 PUSH1 0x1 PUSH1 0x1 PUSH1 0xA0 SHL SUB AND DUP6 PUSH1 0x40 MLOAD DUP1 DUP3 DUP1 MLOAD SWAP1 PUSH1 0x20 ADD SWAP1 DUP1 DUP4 DUP4 JUMPDEST PUSH1 0x20 DUP4 LT PUSH2 0x210 JUMPI DUP1 MLOAD DUP3 MSTORE PUSH1 0x1F NOT SWAP1 SWAP3 ADD SWAP2 PUSH1 0x20 SWAP2 DUP3 ADD SWAP2 ADD PUSH2 0x1F1 JUMP JUMPDEST PUSH1 0x1 DUP4 PUSH1 0x20 SUB PUSH2 0x100 EXP SUB DUP1 NOT DUP3 MLOAD AND DUP2 DUP5 MLOAD AND DUP1 DUP3 OR DUP6 MSTORE POP POP POP POP POP POP SWAP1 POP ADD SWAP2 POP POP PUSH1 0x0 PUSH1 0x40 MLOAD DUP1 DUP4 SUB DUP2 DUP6 GAS DELEGATECALL SWAP2 POP POP RETURNDATASIZE DUP1 PUSH1 0x0 DUP2 EQ PUSH2 0x270 JUMPI PUSH1 0x40 MLOAD SWAP2 POP PUSH1 0x1F NOT PUSH1 0x3F RETURNDATASIZE ADD AND DUP3 ADD PUSH1 0x40 MSTORE RETURNDATASIZE DUP3 MSTORE RETURNDATASIZE PUSH1 0x0 PUSH1 0x20 DUP5 ADD RETURNDATACOPY PUSH2 0x275 JUMP JUMPDEST PUSH1 0x60 SWAP2 POP JUMPDEST POP SWAP2 POP SWAP2 POP PUSH2 0x285 DUP3 DUP3 DUP7 PUSH2 0x2C9 JUMP JUMPDEST SWAP7 SWAP6 POP POP POP POP POP POP JUMP JUMPDEST PUSH1 0x0 PUSH2 0x2BA PUSH32 0xA3F0AD74E5423AEBFD80D3EF4346578335A9A72AEAEE59FF6CB3582B35133D50 PUSH2 0xE9 JUMP JUMPDEST SLOAD PUSH1 0x1 PUSH1 0x1 PUSH1 0xA0 SHL SUB AND SWAP1 POP SWAP1 JUMP JUMPDEST PUSH1 0x60 DUP4 ISZERO PUSH2 0x2D8 JUMPI POP DUP2 PUSH2 0xDC JUMP JUMPDEST DUP3 MLOAD ISZERO PUSH2 0x2E8 JUMPI DUP3 MLOAD DUP1 DUP5 PUSH1 0x20 ADD REVERT JUMPDEST DUP2 PUSH1 0x40 MLOAD PUSH3 0x461BCD PUSH1 0xE5 SHL DUP2 MSTORE PUSH1 0x4 ADD DUP1 DUP1 PUSH1 0x20 ADD DUP3 DUP2 SUB DUP3 MSTORE DUP4 DUP2 DUP2 MLOAD DUP2 MSTORE PUSH1 0x20 ADD SWAP2 POP DUP1 MLOAD SWAP1 PUSH1 0x20 ADD SWAP1 DUP1 DUP4 DUP4 PUSH1 0x0 JUMPDEST DUP4 DUP2 LT ISZERO PUSH2 0x332 JUMPI DUP2 DUP2 ADD MLOAD DUP4 DUP3 ADD MSTORE PUSH1 0x20 ADD PUSH2 0x31A JUMP JUMPDEST POP POP POP POP SWAP1 POP SWAP1 DUP2 ADD SWAP1 PUSH1 0x1F AND DUP1 ISZERO PUSH2 0x35F JUMPI DUP1 DUP3 SUB DUP1 MLOAD PUSH1 0x1 DUP4 PUSH1 0x20 SUB PUSH2 0x100 EXP SUB NOT AND DUP2 MSTORE PUSH1 0x20 ADD SWAP2 POP JUMPDEST POP SWAP3 POP POP POP PUSH1 0x40 MLOAD DUP1 SWAP2 SUB SWAP1 REVERT INVALID COINBASE PUSH5 0x6472657373 GASPRICE KECCAK256 PUSH13 0x6F772D6C6576656C2064656C65 PUSH8 0x6174652063616C6C KECCAK256 PUSH7 0x61696C65644164 PUSH5 0x726573733A KECCAK256 PUSH5 0x656C656761 PUSH21 0x652063616C6C20746F206E6F6E2D636F6E74726163 PUSH21 0xA26469706673582212209140E03FCC039E1369CDF0 SLOAD CALL 0xCB MSIZE PUSH29 0xE755A741C8C8A47EDC66203D357DED6764736F6C634300070600334552 NUMBER BALANCE CODECOPY CALLDATASIZE CALLDATACOPY GASPRICE KECCAK256 PUSH15 0x657720626561636F6E206973206E6F PUSH21 0x206120636F6E7472616374416464726573733A206C PUSH16 0x772D6C6576656C2064656C6567617465 KECCAK256 PUSH4 0x616C6C20 PUSH7 0x61696C65644164 PUSH5 0x726573733A KECCAK256 PUSH5 0x656C656761 PUSH21 0x652063616C6C20746F206E6F6E2D636F6E74726163 PUSH21 0x455243313936373A20626561636F6E20696D706C65 PUSH14 0x656E746174696F6E206973206E6F PUSH21 0x206120636F6E7472616374455243313936373A206E PUSH6 0x7720696D706C PUSH6 0x6D656E746174 PUSH10 0x6F6E206973206E6F7420 PUSH2 0x2063 PUSH16 0x6E7472616374A2646970667358221220 0xCB 0xD7 0xF9 0xC3 PUSH26 0x36B5336C8DB09482E16199BB6B7A46D96F3E0F0B8ACAB0E86856 PUSH3 0x64736F PUSH13 0x63430007060033000000000000 ","sha1":"1b241a5d8a78d0a4e502f245cc6a039a81a91462","source":"// SPDX-License-Identifier: BSUL-1.1\npragma solidity =0.7.6;\npragma abicoder v2;\n\nimport {\n    InterestRateCurveSettings,\n    InterestRateParameters,\n    CashGroupSettings,\n    Token,\n    TokenType,\n    TokenStorage,\n    MarketParameters,\n    AssetRateStorage,\n    TotalfCashDebtStorage,\n    BalanceStorage,\n    PortfolioAsset\n} from \"../../global/Types.sol\";\nimport {StorageLayoutV2} from \"../../global/StorageLayoutV2.sol\";\nimport {Constants} from \"../../global/Constants.sol\";\nimport {Deployments} from \"../../global/Deployments.sol\";\nimport {LibStorage} from \"../../global/LibStorage.sol\";\nimport {SafeUint256} from \"../../math/SafeUint256.sol\";\nimport {SafeInt256} from \"../../math/SafeInt256.sol\";\n\nimport {PrimeCashExchangeRate} from \"../../internal/pCash/PrimeCashExchangeRate.sol\";\nimport {InterestRateCurve} from \"../../internal/markets/InterestRateCurve.sol\";\nimport {TokenHandler} from \"../../internal/balances/TokenHandler.sol\";\nimport {PortfolioHandler} from \"../../internal/portfolio/PortfolioHandler.sol\";\nimport {CashGroup} from \"../../internal/markets/CashGroup.sol\";\nimport {Market} from \"../../internal/markets/Market.sol\";\nimport {DateTime} from \"../../internal/markets/DateTime.sol\";\nimport {DeprecatedAssetRate} from \"../../internal/markets/DeprecatedAssetRate.sol\";\nimport {Emitter} from \"../../internal/Emitter.sol\";\n\nimport {ERC1967Upgrade} from \"../../proxy/ERC1967/ERC1967Upgrade.sol\";\nimport {nBeaconProxy} from \"../../proxy/nBeaconProxy.sol\";\nimport {UpgradeableBeacon} from \"../../proxy/beacon/UpgradeableBeacon.sol\";\n\nimport {IERC20} from \"../../../interfaces/IERC20.sol\";\nimport {IPrimeCashHoldingsOracle} from \"../../../interfaces/notional/IPrimeCashHoldingsOracle.sol\";\nimport {AssetRateAdapter} from \"../../../interfaces/notional/AssetRateAdapter.sol\";\n\nimport {MigrationSettings, CurrencySettings, TotalfCashDebt} from \"./migrate-v3/MigrationSettings.sol\";\n\ncontract MigratePrimeCash is StorageLayoutV2, ERC1967Upgrade {\n    using SafeUint256 for uint256;\n    using SafeInt256 for int256;\n    using Market for MarketParameters;\n    using TokenHandler for Token;\n\n    uint256 private constant MAX_PORTFOLIO_ASSETS = 8;\n\n    MigrationSettings public immutable MIGRATION_SETTINGS;\n    address public immutable FINAL_ROUTER;\n    address public immutable PAUSE_ROUTER;\n    address public immutable NOTIONAL_MANAGER;\n\n    event UpdateCashGroup(uint16 currencyId);\n    event MigratedToV3();\n    event StartV3AccountEvents();\n    event EndV3AccountEvents();\n\n    constructor(\n        MigrationSettings settings,\n        address finalRouter,\n        address _pauseRouter,\n        address _manager\n    ) {\n        MIGRATION_SETTINGS = settings;\n        FINAL_ROUTER = finalRouter;\n        PAUSE_ROUTER = _pauseRouter;\n        NOTIONAL_MANAGER = _manager;\n    }\n\n    fallback() external { _delegate(PAUSE_ROUTER); }\n\n    function upgradeToRouter() external {\n        require(msg.sender == NOTIONAL_MANAGER);\n        _upgradeTo(FINAL_ROUTER);\n    }\n\n    function _emitCurrencyEvent(address account, uint8 currencyId, uint256 data) private {\n        bytes1 mask = (bytes1(bytes32(data)) >> currencyId) & 0x01;\n        if (mask == 0x00) return;\n\n        mapping(address => mapping(uint256 => BalanceStorage)) storage store = LibStorage.getBalanceStorage();\n        BalanceStorage storage balanceStorage = store[account][currencyId];\n        uint256 nTokenBalance = balanceStorage.nTokenBalance;\n        if (nTokenBalance > 0) {\n            Emitter.emitTransferNToken(address(0), account, currencyId, int256(nTokenBalance));\n        }\n\n        int256 cashBalance = balanceStorage.cashBalance;\n        if (cashBalance > 0) {\n            Emitter.emitMintOrBurnPrimeCash(account, currencyId, cashBalance);\n        }\n    }\n\n    function _emitFCashEvents(address account, uint256 data) private {\n        uint8 length = uint8(bytes1(bytes32(data) << 8));\n        if (length == 0) return;\n\n        PortfolioAsset[] memory assets = PortfolioHandler.getSortedPortfolio(account, length);\n\n        for (uint256 i; i < assets.length; i++) {\n            uint16 currencyId = assets[i].currencyId;\n            uint256 maturity = assets[i].maturity;\n            int256 notional = assets[i].notional;\n\n            // Only emit fCash mint events here\n            uint256 fCashId = Emitter.encodefCashId(currencyId, maturity, notional);\n            emit Emitter.TransferSingle(msg.sender, address(0), account, fCashId, uint256(notional.abs()));\n        }\n    }\n\n    function emitAccountEvents(uint256[] calldata accounts) external {\n        require(msg.sender == NOTIONAL_MANAGER);\n\n        // If the subgraph is inside the start and end events, it will only\n        // log the prime cash events as a burn of asset cash and a mint of\n        // prime cash, that is because nToken and fCash are not changing from\n        // V2 to V3\n        emit StartV3AccountEvents();\n\n        uint256 len = accounts.length;\n        for (uint256 i; i < len; i++) {\n            uint256 b = accounts[i];\n            address account = address(uint160(b));\n            _emitCurrencyEvent(account, 1, b);\n            _emitCurrencyEvent(account, 2, b);\n            _emitCurrencyEvent(account, 3, b);\n            _emitCurrencyEvent(account, 4, b);\n\n            _emitFCashEvents(account, b);\n        }\n\n        // When the subgraph sees this event, it will resume normal processing of V3\n        // transfer events.\n        emit EndV3AccountEvents();\n    }\n\n    /// @notice Executes the prime cash migration but does not upgradeTo the final router\n    function migratePrimeCash() external {\n        require(msg.sender == NOTIONAL_MANAGER);\n        require(hasInitialized == false);\n        // Fixes a bug in the original router where hasInitialized was never set to true,\n        // is not exploitable but this will clean it up.\n        hasInitialized = true;\n\n        // Set the new pause router in the proxy storage tree\n        pauseRouter = PAUSE_ROUTER;\n\n        // Loop through all all currencies and init the prime cash curve. `maxCurrencyId` is read\n        // from the NotionalProxy storage tree.\n        uint16 _maxCurrencies = maxCurrencyId;\n\n        // Emit this first to let the subgraph know that the transition to V3 has occurred\n        // for updating view function calls.\n        emit MigratedToV3();\n\n        for (uint16 currencyId = 1; currencyId <= _maxCurrencies; currencyId++) {\n            CurrencySettings memory settings = MIGRATION_SETTINGS.getCurrencySettings(currencyId);\n\n            // Remaps token addresses to the underlying token\n            (Token memory assetToken, Token memory underlyingToken) = _remapTokenAddress(currencyId);\n\n            // Initialize the prime cash curve\n            _initializePrimeCash(currencyId, assetToken, underlyingToken, settings);\n\n            // Cash group settings have changed and must be set on migration\n            _setCashGroup(currencyId, settings.cashGroupSettings);\n\n            // Initialize the new fCash interest rate curves\n            _setfCashInterestRateCurves(currencyId);\n\n            // Set the total fCash debt outstanding\n            _setTotalfCashDebt(currencyId, settings.fCashDebts);\n\n            // The address for the \"fee reserve\" has changed in v3, migrate the balance\n            // from one storage slot to the other\n            _setFeeReserveCashBalance(currencyId);\n        }\n    }\n\n    function _remapTokenAddress(uint16 currencyId) private returns (\n        Token memory assetToken,\n        Token memory underlyingToken\n    ) {\n        // If is Non-Mintable, set the underlying token address\n        assetToken = TokenHandler.getDeprecatedAssetToken(currencyId);\n\n        if (assetToken.tokenType == TokenType.NonMintable) {\n            // Set the underlying token with the same values as the deprecated\n            // asset token\n            TokenHandler.setToken(currencyId, TokenStorage({\n                tokenAddress: assetToken.tokenAddress,\n                hasTransferFee: assetToken.hasTransferFee,\n                decimalPlaces: IERC20(assetToken.tokenAddress).decimals(),\n                tokenType: TokenType.UnderlyingToken,\n                deprecated_maxCollateralBalance: 0\n            }));\n        }\n\n        // Remap the token address to currency id information\n        delete tokenAddressToCurrencyId[assetToken.tokenAddress];\n        underlyingToken = TokenHandler.getUnderlyingToken(currencyId);\n\n        tokenAddressToCurrencyId[underlyingToken.tokenAddress] = currencyId;\n    }\n\n    function _initializePrimeCash(\n        uint16 currencyId,\n        Token memory assetToken,\n        Token memory underlyingToken,\n        CurrencySettings memory settings\n    ) private {\n        // Will set the initial token balance storage to whatever is on the contract at the time\n        // of migration.\n        PrimeCashExchangeRate.initTokenBalanceStorage(currencyId, settings.primeCashOracle);\n\n        // Any dust underlying token balances will be donated to the prime supply and aggregated into\n        // the underlying scalar value. There is currently some dust ETH balance on Notional that will\n        // get donated to all prime cash holders.\n        uint88 currentAssetTokenBalance = assetToken.convertToInternal(\n            IERC20(assetToken.tokenAddress).balanceOf(address(this)).toInt()\n        ).toUint().toUint88();\n\n        // NOTE: at time of upgrade there cannot be any negative cash balances. This can be\n        // guaranteed by ensuring that all accounts and negative cash balances are settled\n        // before the upgrade is executed. There is no way for the contract to verify that\n        // this is the case, must rely on governance to ensure that this occurs.\n        PrimeCashExchangeRate.initPrimeCashCurve({\n            currencyId: currencyId,\n            // The initial prime supply will be set by the current balance of the asset tokens\n            // in internal precision. currentAssetTokenBalance / currentTotalUnderlying (both in\n            // 8 decimal precision) will set the initial basis for the underlyingScalar. This\n            // ensures that all existing cash balances remain in the correct precision.\n            totalPrimeSupply: currentAssetTokenBalance,\n            // These settings must be set on the implementation storage prior to the upgrade.\n            debtCurve: settings.primeDebtCurve,\n            oracle: settings.primeCashOracle,\n            allowDebt: settings.allowPrimeDebt,\n            rateOracleTimeWindow5Min: settings.rateOracleTimeWindow5Min\n        });\n\n        bytes memory initCallData = abi.encodeWithSignature(\n            \"initialize(uint16,address,string,string)\",\n            currencyId,\n            underlyingToken.tokenAddress,\n            settings.underlyingName,\n            settings.underlyingSymbol\n        );\n\n        // A beacon proxy gets its implementation via the UpgradeableBeacon set here.\n        nBeaconProxy cashProxy = new nBeaconProxy(address(Deployments.PCASH_BEACON), initCallData);\n        PrimeCashExchangeRate.setProxyAddress({\n            currencyId: currencyId, proxy: address(cashProxy), isCashProxy: true\n        });\n\n        if (settings.allowPrimeDebt) {\n            nBeaconProxy debtProxy = new nBeaconProxy(address(Deployments.PDEBT_BEACON), initCallData);\n            PrimeCashExchangeRate.setProxyAddress({\n                currencyId: currencyId, proxy: address(debtProxy), isCashProxy: false\n            });\n        }\n    }\n\n    function _setCashGroup(uint16 currencyId, CashGroupSettings memory cashGroupSettings) private {\n        CashGroup.setCashGroupStorage(currencyId, cashGroupSettings);\n        emit UpdateCashGroup(currencyId);\n    }\n\n    function _setfCashInterestRateCurves(uint16 currencyId) private {\n        (InterestRateCurveSettings[] memory finalCurves, /* */) = MIGRATION_SETTINGS.getfCashCurveUpdate(\n            currencyId,\n            true // check interest rate divergence\n        );\n\n        for (uint256 i; i < finalCurves.length; i++) {\n            InterestRateCurve.setNextInterestRateParameters(currencyId, i + 1, finalCurves[i]);\n        }\n\n        // Copies the \"next interest rate parameters\" into the \"active\" storage slot\n        InterestRateCurve.setActiveInterestRateParameters(currencyId);\n    }\n\n    /// @notice Sets the total fCash debt outstanding figure which will be used at settlement to\n    /// determine the prime cash exchange rate. Prior to the upgrade, Notional will be paused so\n    /// that total fCash debt cannot change until this upgrade is completed.\n    function _setTotalfCashDebt(uint16 currencyId, TotalfCashDebt[] memory fCashDebts) private {\n        mapping(uint256 => mapping(uint256 => TotalfCashDebtStorage)) storage store = LibStorage.getTotalfCashDebtOutstanding();\n\n        for (uint256 i; i < fCashDebts.length; i++) {\n            // Only future dated fcash debt should be set\n            require(block.timestamp < fCashDebts[i].maturity);\n            // Setting the initial fCash amount will not emit any events.\n            store[currencyId][fCashDebts[i].maturity].totalfCashDebt = fCashDebts[i].totalfCashDebt;\n        }\n    }\n\n    function _setFeeReserveCashBalance(uint16 currencyId) internal {\n        mapping(address => mapping(uint256 => BalanceStorage)) storage store = LibStorage.getBalanceStorage();\n        // Notional V2 reserve constant is set at address(0), copy the value to the new reserve constant\n        store[Constants.FEE_RESERVE][currencyId] = store[address(0)][currencyId];\n        delete store[address(0)][currencyId];\n    }\n\n    /// @dev Delegates the current call to `implementation`.\n    /// This function does not return to its internal call site, it will return directly to the external caller.\n    function _delegate(address implementation) private {\n        // solhint-disable-next-line no-inline-assembly\n        assembly {\n            // Copy msg.data. We take full control of memory in this inline assembly\n            // block because it will not return to Solidity code. We overwrite the\n            // Solidity scratch pad at memory position 0.\n            calldatacopy(0, 0, calldatasize())\n\n            // Call the implementation.\n            // out and outsize are 0 because we don't know the size yet.\n            let result := delegatecall(gas(), implementation, 0, calldatasize(), 0, 0)\n\n            // Copy the returned data.\n            returndatacopy(0, 0, returndatasize())\n\n            switch result\n                // delegatecall returns 0 on error.\n                case 0 {\n                    revert(0, returndatasize())\n                }\n                default {\n                    return(0, returndatasize())\n                }\n        }\n    }\n\n}","sourcePath":"contracts/external/patchfix/MigratePrimeCash.sol","type":"contract","deployment":{"address":"0x6F4C6dC0340051EBFc1583Ca6A0c3ef5b94c50e0","chainid":"5","blockHeight":10202794}}