{"abi":[{"inputs":[{"internalType":"address","name":"account","type":"address"}],"name":"getFreeCollateralView","outputs":[{"internalType":"int256","name":"","type":"int256"},{"internalType":"int256[]","name":"","type":"int256[]"}],"stateMutability":"view","type":"function"}],"bytecode":"614c55610026600b82828239805160001a60731461001957fe5b30600052607381538281f3fe730000000000000000000000000000000000000000301460806040526004361061004b5760003560e01c8063451d958f146100505780636cb65eaf146100885780636ccc642f146100a9575b600080fd5b81801561005c57600080fd5b5061007061006b3660046146d8565b6100cb565b60405161007f93929190614b26565b60405180910390f35b61009b6100963660046146be565b6101c8565b60405161007f9291906149c8565b8180156100b557600080fd5b506100c96100c43660046146be565b61021d565b005b6100d361432b565b6100db614360565b60606100e56102a1565b6100ee866102a3565b92506100f983610352565b1561018a576040516337b5fc2160e11b815273__SettleAssetsExternal__________________90636f6bf8429061013790899087906004016149ab565b60c06040518083038186803b15801561014f57600080fd5b505af4158015610163573d6000803e3d6000fd5b505050506040513d601f19601f82011682018060405250810190610187919061470a565b92505b610193836103a6565b156101ac57826060015161ffff1685146101ac57600080fd5b6101b986844288886103b3565b93979096509294509192505050565b6000606060006101d7846102a3565b90506101e281610352565b156102085760405162461bcd60e51b81526004016101ff90614a6c565b60405180910390fd5b610213848242610612565b9250925050915091565b6102256102a1565b6000610230826102a3565b905061023b81610352565b156102585760405162461bcd60e51b81526004016101ff90614a6c565b600080610266848442610858565b91509150801561027a5761027a8385610a36565b600082121561029b5760405162461bcd60e51b81526004016101ff90614aef565b50505050565b565b6102ab61432b565b60006102b5610b53565b6001600160a01b03841660009081526020918252604090819020815160c081018352905464ffffffffff811682526001600160f81b0319600160281b820460f81b169382019390935260ff600160301b840481169282019290925261ffff600160381b84041660608201526001600160701b0319600160481b840460701b166080820152600160d81b90920416151560a08201529150505b919050565b60004261035e836103a6565b1561037f5761036c81610b66565b835164ffffffffff1610915061034d9050565b825164ffffffffff161580159061039e5750825164ffffffffff168110155b91505061034d565b6060015161ffff16151590565b6103bb614360565b60606103c56143e5565b6103cd614360565b6001600160a01b03891681526103e2886103a6565b156104bb576103f48860600151610b87565b6060830152600080806104098c8b8d88610bad565b925092509250600061041d8d8c8e89610c08565b905060006104358261042f8787610cc1565b90610cc1565b90508660600151604001518760a00181905250600061045d8e6060015161ffff16838a610cd7565b90508b8e6060015161ffff1614156104b0576040870182905260c0870181905260a08801516101008801528a6104b0576060880151610120880152608087018590526001600160d01b0319841660a08801525b5050505050506104cf565b6104c9898960400151610d22565b60808301525b60808801515b6001600160701b03198116156105b3576060890151819060009060f083901c613fff169061ffff1681141561050957600080fd5b8981148015610516575088155b8061052057508881145b9150506000610532868685858f610d36565b905060f083901c613fff16600061054a82848a610cd7565b90508a8214156105765760a0880151610120880151604001526060870183905260e08701819052610598565b8b821415610598576040870183905260c0870181905260a08801516101008801525b6010866001600160701b031916901b955050505050506104d5565b8251602083018190526000136105db5760405162461bcd60e51b81526004016101ff90614ac0565b604089015160ff16156105fc576105f68a8a60400151610d22565b60808401525b5060809091015190925090509550959350505050565b6000606061061e6143e5565b60408051600a8082526101608201909252600091829190602082016101408036833701905050905061064f876103a6565b156106f7576106618760600151610def565b60608401526000806106758a898b88610bad565b509150915060006106888b8a8c89610c08565b90506106988161042f8585610cc1565b8486815181106106a457fe5b6020026020010181815250508560600151604001518660a001819052506106e78a6060015161ffff168587815181106106d957fe5b602002602001015188610cd7565b50506001909301925061070b9050565b610705888860400151610d22565b60808401525b60808701515b6001600160701b0319811615610846576060880151819060f082901c613fff169061ffff1681141561074257600080fd5b600061074e828b610e10565b5060a08801819052610763908d908590610ece565b86888151811061076f57fe5b6020026020010181935082815250505061078883610f13565b806107935750600081135b156107fe576107a182610def565b60608801526000806107b489848e610f1f565b50915091506107e38161042f848a8c815181106107cd57fe5b6020026020010151610cc190919063ffffffff16565b8789815181106107ef57fe5b60200260200101818152505050505b6108208261ffff1686888151811061081257fe5b602002602001015189610cd7565b505050600193909301925060101b6fffffffffffffffffffffffffffffffff1916610711565b5091519350909150505b935093915050565b6000806108636143e5565b600061086e866103a6565b156108f5576108808660600151610b87565b606083015260008061089489888a87610bad565b509150915060008212156108a757600192505b60006108b58a898b88610c08565b905060006108c78261042f8686610cc1565b6060808801516040015160a08901528b01519091506108eb9061ffff168288610cd7565b5050505050610909565b610903878760400151610d22565b60808301525b60808601515b6001600160701b03198116156109ed576060870151819060f082901c613fff169061ffff1681141561094057600080fd5b61094981610fcf565b8560a001819052506000806109638c858960a00151610ece565b91509150600082121561097557600195505b61097e84610f13565b806109895750600081135b156109c35761099783610b87565b60608801526000806109aa89848e610f1f565b5090925090506109be8161042f8685610cc1565b935050505b6109d28361ffff168389610cd7565b506010856001600160701b031916901b94505050505061090f565b6020870151600160f91b908116148015610a05575081155b15610a20576020808801805160fd60f81b1690526001908401525b5050805160209091015190969095509350505050565b6000610a40610b53565b6001600160a01b03831660008181526020838152604080832088518154938a01518a84015160608c015160808d015160a08e015164ffffffffff1990981664ffffffffff9095169490941765ff00000000001916600160281b60f89490941c939093029290921766ff0000000000001916600160301b60ff909216919091021768ffff000000000000001916600160381b61ffff90921691909102177affffffffffffffffffffffffffffffffffff0000000000000000001916600160481b60709290921c919091021760ff60d81b1916600160d81b93151593909302929092179091555192935090917f6bd4b121bca854a191536a2ca891155c42ee2fb23f307fb34e8bc65cfcb5412e9190a2505050565b600080610b606001610fe1565b92915050565b600062015180821015610b7857600080fd5b62015180825b06909103919050565b610b8f614435565b6000610b9a83610fcf565b9050610ba68382610ffa565b9392505050565b600080600080610bca88876060015187606001516040015161103d565b509195509150506000811315610bf857610bee85606001518660c00151838a6110f7565b9093509150610bfd565b600092505b509450945094915050565b6000806000610c3387866060015161ffff16876000015164ffffffffff16898860600151600161116b565b60208701519193509150600160f81b90811614818015610c51575080155b15610c7a5760208681018051600160f81b176001600160f81b0319169052600190860152610ca0565b81158015610c855750805b15610ca05760208087018051607f60f91b1690526001908601525b606085015160400151610cb3908461119b565b93505050505b949350505050565b81810182811215600083121514610b6057600080fd5b610cdf614454565b6000610cea856111bd565b9050610d18610d10610d09868660a0015161132090919063ffffffff16565b839061134c565b845190610cc1565b9092525092915050565b6060610d2e8383611393565b509392505050565b600060f084901c613fff16610d4a81610fcf565b60a0880181905286516000918291610d63918990610ece565b91509150610d7087610f13565b80610d7b5750600081135b15610de157610d8983610b87565b60608a015260008080610d9d8c858a610f1f565b91945092509050610db28261042f8786610cc1565b94508815610ddd5760608c01516101208c01526001600160d01b0319811660a08c015260808b018290525b5050505b509150505b95945050505050565b610df7614435565b6000610e038342610e10565b509050610ba68382610ffa565b610e18614483565b610e206144a4565b610e29846113b4565b90508281600001511015610e5a576000610e428561147c565b9050610e50858383876114f7565b509150610e679050565b80518314610e6757600080fd5b6040518060600160405280610e95610e908460a001518560c0015161159b90919063ffffffff16565b6115c2565b8152602001610eb8610e908460a001518560e0015161159b90919063ffffffff16565b8152602001826060015181525091509250929050565b600080600160fe1b8481161415610f065760f084901c613fff16600080610ef688848861103d565b5091965094506108509350505050565b5060009485945092505050565b600160ff1b9081161490565b60008060008560800151518660400151108015610f6a575085606001516000015161ffff168660800151876040015181518110610f5857fe5b60200260200101516000015161ffff16145b15610f9357610f87866080015187606001518689604001516115dc565b60408801529250610f98565b600092505b6000851315610fbf57610fb586606001518760c0015187876110f7565b9092509050610fc6565b5060009050805b93509350939050565b610fd7614483565b610b608242611687565b6000620f4240826026811115610ff357fe5b0192915050565b611002614435565b60006110118461ffff16611748565b6040805160808101825261ffff96909616865260ff821660208701528501939093525050606082015290565b600080600080600061104d611765565b6001600160a01b03891660009081526020828152604080832061ffff8c168452909152902080546001600160501b0381169650600160501b900463ffffffff16945090915083156110ba5780546110b390600160701b900466ffffffffffffff16611772565b92506110cf565b8054600160701b900466ffffffffffffff1692505b80546110ea908890600160a81b9004600a90810b900b611780565b9550505093509350935093565b835160009081906111099086906117ae565b8585526000611118868561184a565b90506000611157876040015161115160646111518b60a00151600360ff166006811061114057fe5b1a61114b8c89611902565b90611902565b90611950565b60a097909701519698969750505050505050565b600080600061117a8989611981565b905061118b898989898989876119b6565b9250925050965096945050505050565b8151600090610ba690611151846ec097ce7bc90715b34b9f1000000000611902565b6111c5614454565b60006111cf611a34565b60008481526020829052604081209192508060018614156111fc5750670de0b6b3a76400009050806112bf565b825460408051633fabe5a360e21b815290516001600160a01b039092169163feaf968c9160048082019260a092909190829003018186803b15801561124057600080fd5b505afa158015611254573d6000803e3d6000fd5b505050506040513d601f19601f8201168201806040525081019061127891906147d0565b509193505060008313915061128e905057600080fd5b825460ff600160a01b82048116600a0a9350600160a81b90910416156112bf576112bc816111518480611902565b90505b8254600160b01b900460ff1660968113156112df5760951901600a026096015b6040805160a081018252938452602084019290925290820152905460ff600160b81b820481166060840152600160c01b909104166080820152915050919050565b6000610ba66ec097ce7bc90715b34b9f100000000061115185600001518561190290919063ffffffff16565b60008060008313611361578360400151611367565b83606001515b90506000610de6856000015161115160646111518661114b8b602001518b61190290919063ffffffff16565b6060806113a08484611a41565b91506113ab82611b63565b90509250929050565b6113bc6144a4565b60006113c6611d24565b61ffff93841660009081526020918252604090819020805464ffffffffff81168652600160281b81046001600160581b03908116948701949094526001820154841692860192909252600160d81b820463ffffffff166060860152600160801b9091049091166080840152600201546001600160501b0380821660a0850152600160501b8204811660c0850152600160a01b82041660e0840152600160f01b900460ff1661012c02909216610100820152919050565b60008061148883611d31565b6001600160a01b031663a77c05b86040518163ffffffff1660e01b8152600401604080518083038186803b1580156114bf57600080fd5b505afa1580156114d3573d6000803e3d6000fd5b505050506040513d601f19601f82011682018060405250810190610cb991906147ad565b6114ff6144a4565b600080600061150f888689611d61565b60c08b019290925260e08a0192909252602089015191935091506115339083611e72565b602088015260808701516000901561156157608088015161155e906115588982611e84565b90611e99565b90505b611581611576670de0b6b3a764000083611e72565b60a08a015190611eb6565b60a089015250506080860194909452505082529092909150565b6000826115aa57506000610b60565b828202828482816115b757fe5b0414610ba657600080fd5b60006001600160ff1b038211156115d857600080fd5b5090565b6000808080845b885181101561165f5760008982815181106115fa57fe5b60200260200101519050600160ff168160400151146116195750611657565b8851815161ffff908116911614611630575061165f565b60006116468a836060015184602001518c611ed3565b90506116528482610cc1565b935050505b6001016115e3565b604088015161167990611672908461119b565b8490610cc1565b999098509650505050505050565b61168f614483565b600061169a846113b4565b905082816000015110156116d9576000806116b486611f23565b90506116c2868483886114f7565b90935091506116d2868385611f7c565b50506116e6565b805183146116e657600080fd5b604051806060016040528061170f610e908460a001518560c0015161159b90919063ffffffff16565b8152602001611732610e908460a001518560e0015161159b90919063ffffffff16565b8152602001826060015181525091505092915050565b6000806117536121b0565b60009384526020525050604090205490565b600080610b606006610fe1565b600881901c60ff9091161b90565b6000808212611790575080610b60565b825160208401516117a79190611151908590611902565b9050610b60565b6117bb8161ffff166121bd565b6001600160a01b031660c08301819052600090819081906117db906121e3565b945094509450505060006117f28660c0015161224c565b505060808701859052604087018190526001600160d81b0319831660a088015260c0870151909150611826908460006122b6565b602087015260c086015161183a9086612349565b6060909601959095525050505050565b600080611856846123a2565b9050828111611866576001810392505b50600061187384846123cc565b50905060006118a18560c0015186600001516000015161ffff1687608001518789600001516020015161251a565b9050600081156118d35760c08601518651805160808901516118cf939261ffff9092169189906000886119b6565b5090505b60608601518651604001516118f8919061042f906118f1908561119b565b8690610cc1565b9695505050505050565b8181026000198314156119325781158061192457508282828161192157fe5b05145b61192d57600080fd5b610b60565b82158061194757508183828161194457fe5b05145b610b6057600080fd5b6000816000191480156119665750600160ff1b83145b1561197057600080fd5b81838161197957fe5b059392505050565b60008061198c6125c6565b6001600160a01b038516600090815260209182526040808220868352909252205491505092915050565b60008060006119c4846125d3565b90505b8015611a275760006119d989836125f8565b905060006119eb8c8c848c8c8c6126ab565b90506119f78582610cc1565b94506000811215611a0757600193505b611a138684600061270b565b9550611a1e866125d3565b925050506119c7565b5097509795505050505050565b600080610b606010610fe1565b606060088260ff161115611a5457600080fd5b6000611a5e612756565b6001600160a01b038516600090815260208290526040812091925060ff851667ffffffffffffffff81118015611a9357600080fd5b50604051908082528060200260200182016040528015611acd57816020015b611aba6144f0565b815260200190600190039081611ab25790505b50905060005b8560ff16811015611b59576000838260088110611aec57fe5b0190506000838381518110611afd57fe5b602090810291909101810151835461ffff8116825264ffffffffff620100008204169282019290925260ff600160381b8304166040820152600160401b909104600a90810b900b60608201526080019190915250600101611ad3565b5095945050505050565b80516060908067ffffffffffffffff81118015611b7f57600080fd5b50604051908082528060200260200182016040528015611ba9578160200160208202803683370190505b50915060005b81811015611c06576000848281518110611bc557fe5b60200260200101519050611be6816000015182602001518360400151612763565b848381518110611bf257fe5b602090810291909101015250600101611baf565b5060015b81811015611d1d57805b600081118015611c4c5750838181518110611c2b57fe5b6020026020010151846001830381518110611c4257fe5b6020026020010151115b15611d1457838181518110611c5d57fe5b6020026020010151846001830381518110611c7457fe5b6020026020010151856001840381518110611c8b57fe5b60200260200101868481518110611c9e57fe5b6020026020010182815250828152505050848181518110611cbb57fe5b6020026020010151856001830381518110611cd257fe5b6020026020010151866001840381518110611ce957fe5b60200260200101878481518110611cfc57fe5b60209081029190910101919091525260001901611c14565b50600101611c0a565b5050919050565b600080610b60601d610fe1565b600080611d3c61278c565b61ffff939093166000908152602093909352505060409020546001600160a01b031690565b600080600080600080611d748988612799565b89519095509193509150600090611d9b90611d90908b90611e84565b633b9aca009061159b565b9050611dd5611dca6301da9c00611db2858561159b565b81611db957fe5b670de0b6b3a7640000919004611e72565b60e08a015190611eb6565b9650611df7611dec6301da9c00611db2878561159b565b60c08a015190611eb6565b955081831415611e0e575060009350611e69915050565b6000611e30611e256301da9c00611db2878661159b565b60e08b015190611eb6565b90506000611e3e8983611e84565b9050611e6188611e5b838d6040015161159b90919063ffffffff16565b90612834565b965050505050505b93509350935093565b600082820183811015610ba657600080fd5b600082821115611e9357600080fd5b50900390565b6000610ba6611eb084670de0b6b3a764000061159b565b83612834565b6000610ba6611ec5848461159b565b670de0b6b3a7640000612834565b600083611ee257506000610cb9565b6000808513611efb57611ef6868585612853565b611f06565b611f0686858561288f565b9050633b9aca00811315611f1957600080fd5b6118f885826128d0565b600080611f2f83611d31565b6001600160a01b031663ef81f2166040518163ffffffff1660e01b81526004016040805180830381600087803b158015611f6857600080fd5b505af11580156114d3573d6000803e3d6000fd5b6000611f86611d24565b60008561ffff1681526020019081526020016000209050611faa82600001516128e9565b815464ffffffffff191664ffffffffff9190911617815560a0820151611fcf906128fd565b60028201805469ffffffffffffffffffff19166001600160501b039290921691909117905560c0820151612002906128fd565b81600201600a6101000a8154816001600160501b0302191690836001600160501b031602179055506120378260e001516128fd565b8160020160146101000a8154816001600160501b0302191690836001600160501b0316021790555061206c8260200151612913565b81546001600160581b0391909116600160281b026fffffffffffffffffffffff00000000001990911617815560408201516120a690612913565b6001820180546affffffffffffffffffffff19166001600160581b039290921691909117905560808201516120da90612913565b81546001600160581b0391909116600160801b026affffffffffffffffffffff60801b19909116178155606082015161211290612929565b815463ffffffff91909116600160d81b0263ffffffff60d81b19909116178155821561215e576000612143846115c2565b905061214f858261293c565b61215c610fee8683612978565b505b8361ffff167fef25641e225e493886510ca1ad6584fa7b442b9fea820a29d1de3ce27d270fd28360a001518460c001518560e001516040516121a293929190614c09565b60405180910390a250505050565b600080610b606009610fe1565b6000806121c8612a02565b6000938452602052505060409020546001600160a01b031690565b6000806000806000806121f4612a0f565b6001600160a01b039097166000908152602097909752505060409094205461ffff81169563ffffffff62010000830481169650600160301b830416945060ff600160501b8304169350600160581b90910460d81b9150565b60008060008061225a612a1c565b6001600160a01b0395909516600090815260209590955250506040909220546bffffffffffffffffffffffff811693600160601b82046fffffffffffffffffffffffffffffffff169350600160e01b90910463ffffffff169150565b6122be61452f565b6122c661452f565b60ff84166122d5579050610ba6565b6122df8585610d22565b815260ff841660608201528267ffffffffffffffff8111801561230157600080fd5b5060405190808252806020026020018201604052801561233b57816020015b6123286144f0565b8152602001906001900390816123205790505b506020820152949350505050565b600080612354611765565b6001600160a01b03851660009081526020828152604080832061ffff8816845290915281208054600160a81b9004600a90810b900b945091925083121561239a57600080fd5b505092915050565b60008160800151600014156123b95750600061034d565b60808201516276a70090610ff390612a29565b602082015151516000906060908067ffffffffffffffff811180156123f057600080fd5b5060405190808252806020026020018201604052801561241a578160200160208202803683370190505b509150612425614557565b60005b8281101561251057865161244390836001808501908a612a45565b6000876020015160000151828151811061245957fe5b602002602001015190506000816020015190506000806124798487612ac0565b915091506124a261249b8c60c001518d600001516000015161ffff1686612b32565b8290610cc1565b8886815181106124ae57fe5b60200260200101818152505060006124f16116726124e58b89815181106124d157fe5b6020026020010151878f8c60c00151612b77565b8e51604001519061119b565b90506124fd8a82610cc1565b9950506001909401935061242892505050565b5050509250929050565b60006002821161252c57506000610de6565b60006125388787611981565b905080612546579050610de6565b600061255185612a29565b90508581141561257b57507440008000000200200000000200000020000000002019169050610de6565b60015b8481116125bb57600061259082612bc8565b8301905060006125a08983612c6c565b5090506125af8582600061270b565b9450505060010161257e565b508192505050610de6565b600080610b60600b610fe1565b6000816125e25750600061034d565b6125eb82612d77565b60ff036001019050919050565b60008161260457600080fd5b61010082111561261357600080fd5b600061261e84610b66565b90506000605a84116126395750620151808302019050610b60565b60878411612661575060591983016207e900908102908206909103016276a700019050610b60565b60c3841161268a5750608619830162278d00908102908206909103016301da9c00019050610b60565b5060c21983016276a70090810290820690910301630b1fa800019050610b60565b6000806126b9888888612b32565b90508486116126c95790506118f8565b82156126e3576126db84828888611ed3565b9150506118f8565b60006126f0858888612e10565b90506126fe82888884612b77565b9998505050505050505050565b60006001831015801561272057506101008311155b61272957600080fd5b81156127425750600160ff1b60001983011c8317610ba6565b50600160ff1b60001983011c198316610ba6565b600080610b60600d610fe1565b67ffff000000000000603084901b1665ffffffffff00600884901b161760ff8216179392505050565b600080610b60601f610fe1565b6000806000806000856020015111156127e6576127e36127ca8660c00151876020015161159b90919063ffffffff16565b60e087015160408801516127dd9161159b565b90612ef9565b90505b60006127f187612f0c565b90506127fd8183612f3f565b945081156128145761281181866001612ff2565b93505b60208601511561282b57612828858361306a565b92505b50509250925092565b600080821161284257600080fd5b81838161284b57fe5b049392505050565b600080612861858585613083565b905080156128815761287c6128768585611e84565b826130d3565b610de6565b633b9aca0095945050505050565b60008061289d858585613140565b90506128ac6128768585611e84565b915060006128b986613181565b9050828112156128c7578092505b50509392505050565b6000610ba66128df8484611902565b633b9aca00611950565b600064ffffffffff8211156115d857600080fd5b60006001600160501b038211156115d857600080fd5b60006001600160581b038211156115d857600080fd5b600063ffffffff8211156115d857600080fd5b600081121561294a57600080fd5b6000612958610fee84612349565b90506129648183610cc1565b9050612973610fee848361319c565b505050565b6000612982613210565b61ffff8416600090815260209190915260409081902054905163ad1c095d60e01b81526001600160a01b039091169150819063ad1c095d906129ca9087908690600401614992565b600060405180830381600087803b1580156129e457600080fd5b505af11580156129f8573d6000803e3d6000fd5b5050505050505050565b600080610b606003610fe1565b600080610b606002610fe1565b600080610b606011610fe1565b60006276a700821015612a3b57600080fd5b6276a70082610b7e565b82600111158015612a5a575084602001518311155b612a765760405162461bcd60e51b81526004016101ff90614a98565b6000612a93612a8485612bc8565b612a8d84612a29565b90611e72565b9050612ab8866000015161ffff16828486612aad8b61321d565b8a9493929190613231565b505050505050565b600080612ad0846040015161325b565b8015612ae157506000846060015112155b612aea57600080fd5b612b0d83608001516111518660600151866060015161190290919063ffffffff16565b91506113ab83608001516111518660600151866040015161190290919063ffffffff16565b600080612b3d613271565b6001600160a01b03861660009081526020918252604080822087835283528082208683529092522054600f90810b900b9150509392505050565b600084612b8657506000610cb9565b6000612b928585611e84565b90506000612ba082856130d3565b9050633b9aca00811315612bb357600080fd5b612bbd87826128d0565b979650505050505050565b60008160011415612bdd57506276a70061034d565b8160021415612bf0575062ed4e0061034d565b8160031415612c0457506301da9c0061034d565b8160041415612c1857506303b5380061034d565b8160051415612c2c57506309450c0061034d565b8160061415612c40575063128a180061034d565b8160071415612c545750632514300061034d565b60405162461bcd60e51b81526004016101ff90614a45565b6000806000612c7a85610b66565b905062015180840615612c94576000809250925050612d70565b838110612ca8576000809250925050612d70565b6201518081850304605a8111612cc557925060019150612d709050565b6101688111612d04576000620151806207e900840604820160591901905060068104605a0160068281612cf457fe5b0660001494509450505050612d70565b6108708111612d345760006201518062278d00840604820161016719019050601e8104608701601e8281612cf457fe5b611de28111612d64576000620151806276a700840604820161086f19019050605a810460c301605a8281612cf457fe5b61010060009350935050505b9250929050565b600081612d8357600080fd5b600160801b8210612d9657608091821c91015b600160401b8210612da957604091821c91015b6401000000008210612dbd57602091821c91015b620100008210612dcf57601091821c91015b6101008210612de057600891821c91015b60108210612df057600491821c91015b60048210612e0057600291821c91015b6002821061034d57600101919050565b6000806000612e248660200151868661327e565b915091506000612e338761321d565b905081612e53578651612e4c9061ffff16878388613305565b9350612eef565b6000612e5e86612a29565b90506000612e75612e6e86612bc8565b8390611e72565b90506000612e8d8a6000015161ffff1683868b613305565b90506000808760011415612eab5750506040808b0151015188612eda565b612ec1612eba60018a03612bc8565b8690611e72565b9050612ed78c6000015161ffff1682888d613305565b91505b612ee7818584868f6133a4565b985050505050505b5050509392505050565b6000610ba6611eb084633b9aca0061159b565b612f1461459f565b6000612f1e613402565b61ffff8416600090815260209190915260408120549150610ba6908261340f565b600080836080015111612f5157600080fd5b633b9aca00821115612f6257600080fd5b82518211612f8157825160408401516117a79190611e5b90859061159b565b82602001518211612fb95760408301518351602085015160608601516117a79392612a8d9281900391611e5b9188039085900361159b565b610ba68360600151612a8d8560200151633b9aca0003611e5b87606001518860800151038860200151880361159b90919063ffffffff16565b6000806130116064611e5b8760e001518761159b90919063ffffffff16565b90508460a00151811015613026575060a08401515b8460c00151811115613039575060c08401515b8215613050576130498482611e72565b9150610d2e565b83811161305f57808403610de6565b506000949350505050565b6000610ba6613079848461159b565b633b9aca00612834565b6000613090848484612e10565b9050600061309d8561352e565b90508082116130b0576000915050610ba6565b808203915060006130c08661353b565b9050828110156128c75795945050505050565b6000806130f06130eb6301da9c00611e5b868861159b565b613548565b905061310281621dcd6560491b613566565b9050613115613110826135b9565b6135db565b905061312781621dcd6560491b613630565b9050600061313482613666565b60070b95945050505050565b600061314d848484612e10565b905061316261315b8561366f565b8290611e72565b9050600061316f8561367c565b905080821015610d2e57949350505050565b606001516207a12060109190911c60ff1602633b9aca000390565b60008112156131aa57600080fd5b60006131b4611765565b6001600160a01b03851660009081526020828152604080832061ffff8816845290915290209091506131e583613689565b8154600a9190910b6001600160581b0316600160a81b026001600160a81b0390911617905550505050565b600080610b606021610fe1565b6060015161012c60089190911c60ff160290565b60006276a70061324085612a29565b019050613252878787878787876136bb565b50505050505050565b600060028210801590610b605750506008101590565b600080610b60600c610fe1565b6000806000851161328e57600080fd5b600785111561329c57600080fd5b60006132a784612a29565b905060015b8681116132ff5760006132c86132c183612bc8565b8490611e72565b9050868114156132e057509250600091506108509050565b868111156132f657509250600191506108509050565b506001016132ac565b50600080fd5b6000806133106136f2565b905060006276a70061332185612a29565b6000898152602085815260408083208b84528252808320949093018083529390522080549192509063ffffffff600160a01b8204811691600160c01b8104821691600160e01b90910416816133885760405162461bcd60e51b81526004016101ff90614a15565b6133958184848c8c6136ff565b9b9a5050505050505050505050565b60008186106133b257600080fd5b8482106133be57600080fd5b8383106133e4576133dd84612a8d888803611e5b8388038b880361159b565b9050610de6565b6133dd6133fb878703611e5b8688038a870361159b565b8590611e84565b600080610b60601b610fe1565b61341761459f565b6064633b9aca008360ff86166020811061342d57fe5b1a028161343657fe5b0481526064633b9aca008360ff86166001016020811061345257fe5b1a028161345b57fe5b048160200181815250506134808260028560ff16016020811061347a57fe5b1a61377a565b60808201819052610100908360ff86166003016020811061349d57fe5b1a02816134a657fe5b0460408201526080810151610100908360ff8616600401602081106134c757fe5b1a02816134d057fe5b0460608201526207a1208260ff8516600501602081106134ec57fe5b1a0260a0820152622625a08260ff85166006016020811061350957fe5b1a0260c08201528160ff84166007016020811061352257fe5b1a60e082015292915050565b6000610b608260206137ae565b6000610b608260486137ae565b6000677fffffffffffffff82111561355f57600080fd5b5060401b90565b600081600f0b6000141561357957600080fd5b600082600f0b604085600f0b901b8161358e57fe5b05905060016001607f1b031981128015906135b0575060016001607f1b038113155b610ba657600080fd5b6000600f82900b60016001607f1b031914156135d457600080fd5b5060000390565b6000600160461b82600f0b126135f057600080fd5b683fffffffffffffffff1982600f0b121561360d5750600061034d565b610b60608083600f0b700171547652b82fe1777d0ffda0d23a7d1202901d6137c1565b6000600f83810b9083900b0260401d60016001607f1b031981128015906135b0575060016001607f1b03811315610ba657600080fd5b600f0b60401d90565b6000610b608260286137ae565b6000610b608260306137ae565b60006a7fffffffffffffffffffff1982128015906136b257506a7fffffffffffffffffffff8213155b6115d857600080fd5b6136c88787878685614271565b6136e18760e001518860a001518960c0015185886136ff565b60c090970196909652505050505050565b600080610b60600a610fe1565b600080831161370d57600080fd5b8186111561371c575083610de6565b60006137288388611e84565b90508381111561373b5785915050610de6565b60006137478286612ef9565b90506000613759633b9aca0083611e84565b90506126fe633b9aca00611e5b6137708a8561159b565b612a8d8c8761159b565b60008160ff166096106137955760ff8216622625a002610b60565b5060951960ff919091160162e4e1c00263165a0bc00190565b60609091015160ff911c16622625a00290565b6000600160461b82600f0b126137d657600080fd5b683fffffffffffffffff1982600f0b12156137f35750600061034d565b6001607f1b60006780000000000000008416600f0b13156138255770016a09e667f3bcc908b2fb1366ea957d3e0260801c5b60008367400000000000000016600f0b1315613852577001306fe0a31b7152de8d5a46305c85edec0260801c5b60008367200000000000000016600f0b131561387f577001172b83c7d517adcdf7c8c50eb14a791f0260801c5b60008367100000000000000016600f0b13156138ac5770010b5586cf9890f6298b92b71842a983630260801c5b60008367080000000000000016600f0b13156138d9577001059b0d31585743ae7c548eb68ca417fd0260801c5b60008367040000000000000016600f0b131561390657700102c9a3e778060ee6f7caca4f7a29bde80260801c5b60008367020000000000000016600f0b13156139335770010163da9fb33356d84a66ae336dcdfa3f0260801c5b600083600160381b16600f0b131561395c57700100b1afa5abcbed6129ab13ec11dc95430260801c5b600083668000000000000016600f0b13156139885770010058c86da1c09ea1ff19d294cf2f679b0260801c5b600083664000000000000016600f0b13156139b4577001002c605e2e8cec506d21bfc89a23a00f0260801c5b600083662000000000000016600f0b13156139e057700100162f3904051fa128bca9c55c31e5df0260801c5b600083661000000000000016600f0b1315613a0c577001000b175effdc76ba38e31671ca9397250260801c5b600083660800000000000016600f0b1315613a3857700100058ba01fb9f96d6cacd4b180917c3d0260801c5b600083660400000000000016600f0b1315613a645770010002c5cc37da9491d0985c348c68e7b30260801c5b600083660200000000000016600f0b1315613a90577001000162e525ee054754457d59952920260260801c5b600083600160301b16600f0b1315613ab95770010000b17255775c040618bf4a4ade83fc0260801c5b6000836580000000000016600f0b1315613ae4577001000058b91b5bc9ae2eed81e9b7d4cfab0260801c5b6000836540000000000016600f0b1315613b0f57700100002c5c89d5ec6ca4d7c8acc017b7c90260801c5b6000836520000000000016600f0b1315613b3a5770010000162e43f4f831060e02d839a9d16d0260801c5b6000836510000000000016600f0b1315613b6557700100000b1721bcfc99d9f890ea069117630260801c5b6000836508000000000016600f0b1315613b905770010000058b90cf1e6d97f9ca14dbcc16280260801c5b6000836504000000000016600f0b1315613bbb577001000002c5c863b73f016468f6bac5ca2b0260801c5b6000836502000000000016600f0b1315613be657700100000162e430e5a18f6119e3c02282a50260801c5b600083600160281b16600f0b1315613c0f577001000000b1721835514b86e6d96efd1bfe0260801c5b60008364800000000016600f0b1315613c3957700100000058b90c0b48c6be5df846c5b2ef0260801c5b60008364400000000016600f0b1315613c635770010000002c5c8601cc6b9e94213c72737a0260801c5b60008364200000000016600f0b1315613c8d577001000000162e42fff037df38aa2b219f060260801c5b60008364100000000016600f0b1315613cb75770010000000b17217fba9c739aa5819f44f90260801c5b60008364080000000016600f0b1315613ce1577001000000058b90bfcdee5acd3c1cedc8230260801c5b60008364040000000016600f0b1315613d0b57700100000002c5c85fe31f35a6a30da1be500260801c5b60008364020000000016600f0b1315613d355770010000000162e42ff0999ce3541b9fffcf0260801c5b60008364010000000016600f0b1315613d5f57700100000000b17217f80f4ef5aadda455540260801c5b600083638000000016600f0b1315613d885770010000000058b90bfbf8479bd5a81b51ad0260801c5b600083634000000016600f0b1315613db1577001000000002c5c85fdf84bd62ae30a74cc0260801c5b600083632000000016600f0b1315613dda57700100000000162e42fefb2fed257559bdaa0260801c5b600083631000000016600f0b1315613e03577001000000000b17217f7d5a7716bba4a9ae0260801c5b600083630800000016600f0b1315613e2c57700100000000058b90bfbe9ddbac5e109cce0260801c5b600083630400000016600f0b1315613e555770010000000002c5c85fdf4b15de6f17eb0d0260801c5b600083630200000016600f0b1315613e7e577001000000000162e42fefa494f1478fde050260801c5b600083630100000016600f0b1315613ea75770010000000000b17217f7d20cf927c8e94c0260801c5b6000836280000016600f0b1315613ecf577001000000000058b90bfbe8f71cb4e4b33d0260801c5b6000836240000016600f0b1315613ef757700100000000002c5c85fdf477b662b269450260801c5b6000836220000016600f0b1315613f1f5770010000000000162e42fefa3ae53369388c0260801c5b6000836210000016600f0b1315613f4757700100000000000b17217f7d1d351a389d400260801c5b6000836208000016600f0b1315613f6f5770010000000000058b90bfbe8e8b2d3d4ede0260801c5b6000836204000016600f0b1315613f97577001000000000002c5c85fdf4741bea6e77e0260801c5b6000836202000016600f0b1315613fbf57700100000000000162e42fefa39fe95583c20260801c5b6000836201000016600f0b1315613fe7577001000000000000b17217f7d1cfb72b45e10260801c5b60008361800016600f0b131561400e57700100000000000058b90bfbe8e7cc35c3f00260801c5b60008361400016600f0b13156140355770010000000000002c5c85fdf473e242ea380260801c5b60008361200016600f0b131561405c577001000000000000162e42fefa39f02b772c0260801c5b60008361100016600f0b13156140835770010000000000000b17217f7d1cf7d83c1a0260801c5b60008361080016600f0b13156140aa577001000000000000058b90bfbe8e7bdcbe2e0260801c5b60008361040016600f0b13156140d157700100000000000002c5c85fdf473dea871f0260801c5b60008361020016600f0b13156140f85770010000000000000162e42fefa39ef44d910260801c5b60008361010016600f0b131561411f57700100000000000000b17217f7d1cf79e9490260801c5b600083608016600f0b13156141455770010000000000000058b90bfbe8e7bce5440260801c5b600083604016600f0b131561416b577001000000000000002c5c85fdf473de6eca0260801c5b600083602016600f0b131561419157700100000000000000162e42fefa39ef366f0260801c5b600083601016600f0b13156141b7577001000000000000000b17217f7d1cf79afa0260801c5b600083600816600f0b13156141dd57700100000000000000058b90bfbe8e7bcd6d0260801c5b600083600416600f0b13156142035770010000000000000002c5c85fdf473de6b20260801c5b600083600216600f0b1315614229577001000000000000000162e42fefa39ef3580260801c5b600083600116600f0b131561424f5770010000000000000000b17217f7d1cf79ab0260801c5b600f83810b60401d603f03900b1c60016001607f1b03811115610b6057600080fd5b600061427b6136f2565b6000868152602082815260408083208884528252808320868452825291829020808a5290890187905280546001600160501b03808216938b0193909352600160501b810490921660608a015263ffffffff600160a01b8304811660a08b0152600160c01b8304811660c08b0152600160e01b90920490911660e089015290915080841561431a5760018201546001600160501b031660808901526129f8565b600060808901525050505050505050565b6040805160c081018252600080825260208201819052918101829052606081018290526080810182905260a081019190915290565b60405180610160016040528060006001600160a01b031681526020016000815260200160008152602001600081526020016000815260200160006001600160d01b03191681526020016143b1614454565b81526020016143be614454565b81526020016143cb614483565b81526020016143d8614435565b8152600060209091015290565b6040518060e00160405280600081526020016000151581526020016000815260200161440f614435565b815260200160608152602001614423614483565b81526020016144306145e4565b905290565b60408051608081018252600080825260208201529081016143d8614483565b6040518060a0016040528060008152602001600081526020016000815260200160008152602001600081525090565b60405180606001604052806000815260200160008152602001600081525090565b6040518061012001604052806000815260200160008152602001600081526020016000815260200160008152602001600081526020016000815260200160008152602001600081525090565b6040518060c00160405280600061ffff168152602001600081526020016000815260200160008152602001600081526020016000600381111561443057fe5b6040518060800160405280606081526020016060815260200160008152602001600081525090565b60405180610100016040528060008019168152602001600081526020016000815260200160008152602001600081526020016000815260200160008152602001600081525090565b60405180610100016040528060008152602001600081526020016000815260200160008152602001600081526020016000815260200160008152602001600081525090565b6040518060e001604052806145f7614435565b815260200161460461452f565b815260006020820181905260408201819052606082018190526080820181905260a09091015290565b80356001600160a01b038116811461034d57600080fd5b8051801515811461034d57600080fd5b80516001600160701b03198116811461034d57600080fd5b80516001600160f81b03198116811461034d57600080fd5b805161ffff8116811461034d57600080fd5b80516001600160501b038116811461034d57600080fd5b805160ff8116811461034d57600080fd5b6000602082840312156146cf578081fd5b610ba68261462d565b6000806000606084860312156146ec578182fd5b6146f58461462d565b95602085013595506040909401359392505050565b600060c0828403121561471b578081fd5b60405160c0810181811067ffffffffffffffff8211171561473857fe5b604052825164ffffffffff8116811461474f578283fd5b815261475d6020840161466c565b602082015261476e604084016146ad565b604082015261477f60608401614684565b606082015261479060808401614654565b60808201526147a160a08401614644565b60a08201529392505050565b600080604083850312156147bf578182fd5b505080516020909101519092909150565b600080600080600060a086880312156147e7578081fd5b6147f086614696565b945060208601519350604086015192506060860151915061481360808701614696565b90509295509295909350565b6001600160a01b03169052565b6000815180845260208085019450808401835b8381101561489d578151805161ffff168852838101518489015260408082015190890152606080820151908901526080808201519089015260a090810151906004821061488857fe5b88015260c0909601959082019060010161483f565b509495945050505050565b15159052565b6001600160d01b0319169052565b805164ffffffffff1682526020808201516001600160f81b0319169083015260408082015160ff169083015260608082015161ffff16908301526080808201516001600160701b0319169083015260a0908101511515910152565b61ffff815116825260208101516020830152604081015161493b6040840182614979565b506060015160a09190910152565b80518252602081015160208301526040810151604083015260608101516060830152608081015160808301525050565b8051825260208082015190830152604090810151910152565b6001600160a01b03929092168252602082015260400190565b6001600160a01b038316815260e08101610ba660208301846148bc565b60006040820184835260206040818501528185518084526060860191508287019350845b81811015614a08578451835293830193918301916001016149ec565b5090979650505050505050565b60208082526016908201527513585c9ad95d081b9bdd081a5b9a5d1a585b1a5e995960521b604082015260600190565b6020808252600d908201526c092dcecc2d8d2c840d2dcc8caf609b1b604082015260600190565b602080825260129082015271105cdcd95d1cc81b9bdd081cd95d1d1b195960721b604082015260600190565b6020808252600e908201526d125b9d985b1a59081b585c9ad95d60921b604082015260600190565b60208082526015908201527414dd59999a58da595b9d0818dbdb1b185d195c985b605a1b604082015260600190565b6020808252601c908201527f496e73756666696369656e74206672656520636f6c6c61746572616c00000000604082015260600190565b6000610420614b3583876148bc565b614b4360c08401865161481f565b602085015160e08401526040850151610100818186015260608701519150610120828187015260808801519250610140838188015260a08901519350614b8d6101608801856148ae565b60c08901519350614ba2610180880185614949565b60e08901519350614bb7610220880185614949565b828901519350614bcb6102c0880185614979565b818901519350614bdf610320880185614917565b8801519250614bf59150506103e08501826148a8565b50806104008401526118f88184018561482c565b928352602083019190915260408201526060019056fea2646970667358221220047dd372806522c53b7a5b9fcfc5daaa9d51c980bbe50a5c7223f0b63b9964d464736f6c63430007060033","bytecodeSha1":"92043967969b0fec10642de09b0c29892b363c30","compiler":{"evm_version":"istanbul","optimizer":{"enabled":true,"runs":200},"version":"0.7.6+commit.7338295f"},"contractName":"FreeCollateralExternal","deployedBytecode":"730000000000000000000000000000000000000000301460806040526004361061004b5760003560e01c8063451d958f146100505780636cb65eaf146100885780636ccc642f146100a9575b600080fd5b81801561005c57600080fd5b5061007061006b3660046146d8565b6100cb565b60405161007f93929190614b26565b60405180910390f35b61009b6100963660046146be565b6101c8565b60405161007f9291906149c8565b8180156100b557600080fd5b506100c96100c43660046146be565b61021d565b005b6100d361432b565b6100db614360565b60606100e56102a1565b6100ee866102a3565b92506100f983610352565b1561018a576040516337b5fc2160e11b815273__$f6541b0d362a0c7d99a2a29cd3d373d61b$__90636f6bf8429061013790899087906004016149ab565b60c06040518083038186803b15801561014f57600080fd5b505af4158015610163573d6000803e3d6000fd5b505050506040513d601f19601f82011682018060405250810190610187919061470a565b92505b610193836103a6565b156101ac57826060015161ffff1685146101ac57600080fd5b6101b986844288886103b3565b93979096509294509192505050565b6000606060006101d7846102a3565b90506101e281610352565b156102085760405162461bcd60e51b81526004016101ff90614a6c565b60405180910390fd5b610213848242610612565b9250925050915091565b6102256102a1565b6000610230826102a3565b905061023b81610352565b156102585760405162461bcd60e51b81526004016101ff90614a6c565b600080610266848442610858565b91509150801561027a5761027a8385610a36565b600082121561029b5760405162461bcd60e51b81526004016101ff90614aef565b50505050565b565b6102ab61432b565b60006102b5610b53565b6001600160a01b03841660009081526020918252604090819020815160c081018352905464ffffffffff811682526001600160f81b0319600160281b820460f81b169382019390935260ff600160301b840481169282019290925261ffff600160381b84041660608201526001600160701b0319600160481b840460701b166080820152600160d81b90920416151560a08201529150505b919050565b60004261035e836103a6565b1561037f5761036c81610b66565b835164ffffffffff1610915061034d9050565b825164ffffffffff161580159061039e5750825164ffffffffff168110155b91505061034d565b6060015161ffff16151590565b6103bb614360565b60606103c56143e5565b6103cd614360565b6001600160a01b03891681526103e2886103a6565b156104bb576103f48860600151610b87565b6060830152600080806104098c8b8d88610bad565b925092509250600061041d8d8c8e89610c08565b905060006104358261042f8787610cc1565b90610cc1565b90508660600151604001518760a00181905250600061045d8e6060015161ffff16838a610cd7565b90508b8e6060015161ffff1614156104b0576040870182905260c0870181905260a08801516101008801528a6104b0576060880151610120880152608087018590526001600160d01b0319841660a08801525b5050505050506104cf565b6104c9898960400151610d22565b60808301525b60808801515b6001600160701b03198116156105b3576060890151819060009060f083901c613fff169061ffff1681141561050957600080fd5b8981148015610516575088155b8061052057508881145b9150506000610532868685858f610d36565b905060f083901c613fff16600061054a82848a610cd7565b90508a8214156105765760a0880151610120880151604001526060870183905260e08701819052610598565b8b821415610598576040870183905260c0870181905260a08801516101008801525b6010866001600160701b031916901b955050505050506104d5565b8251602083018190526000136105db5760405162461bcd60e51b81526004016101ff90614ac0565b604089015160ff16156105fc576105f68a8a60400151610d22565b60808401525b5060809091015190925090509550959350505050565b6000606061061e6143e5565b60408051600a8082526101608201909252600091829190602082016101408036833701905050905061064f876103a6565b156106f7576106618760600151610def565b60608401526000806106758a898b88610bad565b509150915060006106888b8a8c89610c08565b90506106988161042f8585610cc1565b8486815181106106a457fe5b6020026020010181815250508560600151604001518660a001819052506106e78a6060015161ffff168587815181106106d957fe5b602002602001015188610cd7565b50506001909301925061070b9050565b610705888860400151610d22565b60808401525b60808701515b6001600160701b0319811615610846576060880151819060f082901c613fff169061ffff1681141561074257600080fd5b600061074e828b610e10565b5060a08801819052610763908d908590610ece565b86888151811061076f57fe5b6020026020010181935082815250505061078883610f13565b806107935750600081135b156107fe576107a182610def565b60608801526000806107b489848e610f1f565b50915091506107e38161042f848a8c815181106107cd57fe5b6020026020010151610cc190919063ffffffff16565b8789815181106107ef57fe5b60200260200101818152505050505b6108208261ffff1686888151811061081257fe5b602002602001015189610cd7565b505050600193909301925060101b6fffffffffffffffffffffffffffffffff1916610711565b5091519350909150505b935093915050565b6000806108636143e5565b600061086e866103a6565b156108f5576108808660600151610b87565b606083015260008061089489888a87610bad565b509150915060008212156108a757600192505b60006108b58a898b88610c08565b905060006108c78261042f8686610cc1565b6060808801516040015160a08901528b01519091506108eb9061ffff168288610cd7565b5050505050610909565b610903878760400151610d22565b60808301525b60808601515b6001600160701b03198116156109ed576060870151819060f082901c613fff169061ffff1681141561094057600080fd5b61094981610fcf565b8560a001819052506000806109638c858960a00151610ece565b91509150600082121561097557600195505b61097e84610f13565b806109895750600081135b156109c35761099783610b87565b60608801526000806109aa89848e610f1f565b5090925090506109be8161042f8685610cc1565b935050505b6109d28361ffff168389610cd7565b506010856001600160701b031916901b94505050505061090f565b6020870151600160f91b908116148015610a05575081155b15610a20576020808801805160fd60f81b1690526001908401525b5050805160209091015190969095509350505050565b6000610a40610b53565b6001600160a01b03831660008181526020838152604080832088518154938a01518a84015160608c015160808d015160a08e015164ffffffffff1990981664ffffffffff9095169490941765ff00000000001916600160281b60f89490941c939093029290921766ff0000000000001916600160301b60ff909216919091021768ffff000000000000001916600160381b61ffff90921691909102177affffffffffffffffffffffffffffffffffff0000000000000000001916600160481b60709290921c919091021760ff60d81b1916600160d81b93151593909302929092179091555192935090917f6bd4b121bca854a191536a2ca891155c42ee2fb23f307fb34e8bc65cfcb5412e9190a2505050565b600080610b606001610fe1565b92915050565b600062015180821015610b7857600080fd5b62015180825b06909103919050565b610b8f614435565b6000610b9a83610fcf565b9050610ba68382610ffa565b9392505050565b600080600080610bca88876060015187606001516040015161103d565b509195509150506000811315610bf857610bee85606001518660c00151838a6110f7565b9093509150610bfd565b600092505b509450945094915050565b6000806000610c3387866060015161ffff16876000015164ffffffffff16898860600151600161116b565b60208701519193509150600160f81b90811614818015610c51575080155b15610c7a5760208681018051600160f81b176001600160f81b0319169052600190860152610ca0565b81158015610c855750805b15610ca05760208087018051607f60f91b1690526001908601525b606085015160400151610cb3908461119b565b93505050505b949350505050565b81810182811215600083121514610b6057600080fd5b610cdf614454565b6000610cea856111bd565b9050610d18610d10610d09868660a0015161132090919063ffffffff16565b839061134c565b845190610cc1565b9092525092915050565b6060610d2e8383611393565b509392505050565b600060f084901c613fff16610d4a81610fcf565b60a0880181905286516000918291610d63918990610ece565b91509150610d7087610f13565b80610d7b5750600081135b15610de157610d8983610b87565b60608a015260008080610d9d8c858a610f1f565b91945092509050610db28261042f8786610cc1565b94508815610ddd5760608c01516101208c01526001600160d01b0319811660a08c015260808b018290525b5050505b509150505b95945050505050565b610df7614435565b6000610e038342610e10565b509050610ba68382610ffa565b610e18614483565b610e206144a4565b610e29846113b4565b90508281600001511015610e5a576000610e428561147c565b9050610e50858383876114f7565b509150610e679050565b80518314610e6757600080fd5b6040518060600160405280610e95610e908460a001518560c0015161159b90919063ffffffff16565b6115c2565b8152602001610eb8610e908460a001518560e0015161159b90919063ffffffff16565b8152602001826060015181525091509250929050565b600080600160fe1b8481161415610f065760f084901c613fff16600080610ef688848861103d565b5091965094506108509350505050565b5060009485945092505050565b600160ff1b9081161490565b60008060008560800151518660400151108015610f6a575085606001516000015161ffff168660800151876040015181518110610f5857fe5b60200260200101516000015161ffff16145b15610f9357610f87866080015187606001518689604001516115dc565b60408801529250610f98565b600092505b6000851315610fbf57610fb586606001518760c0015187876110f7565b9092509050610fc6565b5060009050805b93509350939050565b610fd7614483565b610b608242611687565b6000620f4240826026811115610ff357fe5b0192915050565b611002614435565b60006110118461ffff16611748565b6040805160808101825261ffff96909616865260ff821660208701528501939093525050606082015290565b600080600080600061104d611765565b6001600160a01b03891660009081526020828152604080832061ffff8c168452909152902080546001600160501b0381169650600160501b900463ffffffff16945090915083156110ba5780546110b390600160701b900466ffffffffffffff16611772565b92506110cf565b8054600160701b900466ffffffffffffff1692505b80546110ea908890600160a81b9004600a90810b900b611780565b9550505093509350935093565b835160009081906111099086906117ae565b8585526000611118868561184a565b90506000611157876040015161115160646111518b60a00151600360ff166006811061114057fe5b1a61114b8c89611902565b90611902565b90611950565b60a097909701519698969750505050505050565b600080600061117a8989611981565b905061118b898989898989876119b6565b9250925050965096945050505050565b8151600090610ba690611151846ec097ce7bc90715b34b9f1000000000611902565b6111c5614454565b60006111cf611a34565b60008481526020829052604081209192508060018614156111fc5750670de0b6b3a76400009050806112bf565b825460408051633fabe5a360e21b815290516001600160a01b039092169163feaf968c9160048082019260a092909190829003018186803b15801561124057600080fd5b505afa158015611254573d6000803e3d6000fd5b505050506040513d601f19601f8201168201806040525081019061127891906147d0565b509193505060008313915061128e905057600080fd5b825460ff600160a01b82048116600a0a9350600160a81b90910416156112bf576112bc816111518480611902565b90505b8254600160b01b900460ff1660968113156112df5760951901600a026096015b6040805160a081018252938452602084019290925290820152905460ff600160b81b820481166060840152600160c01b909104166080820152915050919050565b6000610ba66ec097ce7bc90715b34b9f100000000061115185600001518561190290919063ffffffff16565b60008060008313611361578360400151611367565b83606001515b90506000610de6856000015161115160646111518661114b8b602001518b61190290919063ffffffff16565b6060806113a08484611a41565b91506113ab82611b63565b90509250929050565b6113bc6144a4565b60006113c6611d24565b61ffff93841660009081526020918252604090819020805464ffffffffff81168652600160281b81046001600160581b03908116948701949094526001820154841692860192909252600160d81b820463ffffffff166060860152600160801b9091049091166080840152600201546001600160501b0380821660a0850152600160501b8204811660c0850152600160a01b82041660e0840152600160f01b900460ff1661012c02909216610100820152919050565b60008061148883611d31565b6001600160a01b031663a77c05b86040518163ffffffff1660e01b8152600401604080518083038186803b1580156114bf57600080fd5b505afa1580156114d3573d6000803e3d6000fd5b505050506040513d601f19601f82011682018060405250810190610cb991906147ad565b6114ff6144a4565b600080600061150f888689611d61565b60c08b019290925260e08a0192909252602089015191935091506115339083611e72565b602088015260808701516000901561156157608088015161155e906115588982611e84565b90611e99565b90505b611581611576670de0b6b3a764000083611e72565b60a08a015190611eb6565b60a089015250506080860194909452505082529092909150565b6000826115aa57506000610b60565b828202828482816115b757fe5b0414610ba657600080fd5b60006001600160ff1b038211156115d857600080fd5b5090565b6000808080845b885181101561165f5760008982815181106115fa57fe5b60200260200101519050600160ff168160400151146116195750611657565b8851815161ffff908116911614611630575061165f565b60006116468a836060015184602001518c611ed3565b90506116528482610cc1565b935050505b6001016115e3565b604088015161167990611672908461119b565b8490610cc1565b999098509650505050505050565b61168f614483565b600061169a846113b4565b905082816000015110156116d9576000806116b486611f23565b90506116c2868483886114f7565b90935091506116d2868385611f7c565b50506116e6565b805183146116e657600080fd5b604051806060016040528061170f610e908460a001518560c0015161159b90919063ffffffff16565b8152602001611732610e908460a001518560e0015161159b90919063ffffffff16565b8152602001826060015181525091505092915050565b6000806117536121b0565b60009384526020525050604090205490565b600080610b606006610fe1565b600881901c60ff9091161b90565b6000808212611790575080610b60565b825160208401516117a79190611151908590611902565b9050610b60565b6117bb8161ffff166121bd565b6001600160a01b031660c08301819052600090819081906117db906121e3565b945094509450505060006117f28660c0015161224c565b505060808701859052604087018190526001600160d81b0319831660a088015260c0870151909150611826908460006122b6565b602087015260c086015161183a9086612349565b6060909601959095525050505050565b600080611856846123a2565b9050828111611866576001810392505b50600061187384846123cc565b50905060006118a18560c0015186600001516000015161ffff1687608001518789600001516020015161251a565b9050600081156118d35760c08601518651805160808901516118cf939261ffff9092169189906000886119b6565b5090505b60608601518651604001516118f8919061042f906118f1908561119b565b8690610cc1565b9695505050505050565b8181026000198314156119325781158061192457508282828161192157fe5b05145b61192d57600080fd5b610b60565b82158061194757508183828161194457fe5b05145b610b6057600080fd5b6000816000191480156119665750600160ff1b83145b1561197057600080fd5b81838161197957fe5b059392505050565b60008061198c6125c6565b6001600160a01b038516600090815260209182526040808220868352909252205491505092915050565b60008060006119c4846125d3565b90505b8015611a275760006119d989836125f8565b905060006119eb8c8c848c8c8c6126ab565b90506119f78582610cc1565b94506000811215611a0757600193505b611a138684600061270b565b9550611a1e866125d3565b925050506119c7565b5097509795505050505050565b600080610b606010610fe1565b606060088260ff161115611a5457600080fd5b6000611a5e612756565b6001600160a01b038516600090815260208290526040812091925060ff851667ffffffffffffffff81118015611a9357600080fd5b50604051908082528060200260200182016040528015611acd57816020015b611aba6144f0565b815260200190600190039081611ab25790505b50905060005b8560ff16811015611b59576000838260088110611aec57fe5b0190506000838381518110611afd57fe5b602090810291909101810151835461ffff8116825264ffffffffff620100008204169282019290925260ff600160381b8304166040820152600160401b909104600a90810b900b60608201526080019190915250600101611ad3565b5095945050505050565b80516060908067ffffffffffffffff81118015611b7f57600080fd5b50604051908082528060200260200182016040528015611ba9578160200160208202803683370190505b50915060005b81811015611c06576000848281518110611bc557fe5b60200260200101519050611be6816000015182602001518360400151612763565b848381518110611bf257fe5b602090810291909101015250600101611baf565b5060015b81811015611d1d57805b600081118015611c4c5750838181518110611c2b57fe5b6020026020010151846001830381518110611c4257fe5b6020026020010151115b15611d1457838181518110611c5d57fe5b6020026020010151846001830381518110611c7457fe5b6020026020010151856001840381518110611c8b57fe5b60200260200101868481518110611c9e57fe5b6020026020010182815250828152505050848181518110611cbb57fe5b6020026020010151856001830381518110611cd257fe5b6020026020010151866001840381518110611ce957fe5b60200260200101878481518110611cfc57fe5b60209081029190910101919091525260001901611c14565b50600101611c0a565b5050919050565b600080610b60601d610fe1565b600080611d3c61278c565b61ffff939093166000908152602093909352505060409020546001600160a01b031690565b600080600080600080611d748988612799565b89519095509193509150600090611d9b90611d90908b90611e84565b633b9aca009061159b565b9050611dd5611dca6301da9c00611db2858561159b565b81611db957fe5b670de0b6b3a7640000919004611e72565b60e08a015190611eb6565b9650611df7611dec6301da9c00611db2878561159b565b60c08a015190611eb6565b955081831415611e0e575060009350611e69915050565b6000611e30611e256301da9c00611db2878661159b565b60e08b015190611eb6565b90506000611e3e8983611e84565b9050611e6188611e5b838d6040015161159b90919063ffffffff16565b90612834565b965050505050505b93509350935093565b600082820183811015610ba657600080fd5b600082821115611e9357600080fd5b50900390565b6000610ba6611eb084670de0b6b3a764000061159b565b83612834565b6000610ba6611ec5848461159b565b670de0b6b3a7640000612834565b600083611ee257506000610cb9565b6000808513611efb57611ef6868585612853565b611f06565b611f0686858561288f565b9050633b9aca00811315611f1957600080fd5b6118f885826128d0565b600080611f2f83611d31565b6001600160a01b031663ef81f2166040518163ffffffff1660e01b81526004016040805180830381600087803b158015611f6857600080fd5b505af11580156114d3573d6000803e3d6000fd5b6000611f86611d24565b60008561ffff1681526020019081526020016000209050611faa82600001516128e9565b815464ffffffffff191664ffffffffff9190911617815560a0820151611fcf906128fd565b60028201805469ffffffffffffffffffff19166001600160501b039290921691909117905560c0820151612002906128fd565b81600201600a6101000a8154816001600160501b0302191690836001600160501b031602179055506120378260e001516128fd565b8160020160146101000a8154816001600160501b0302191690836001600160501b0316021790555061206c8260200151612913565b81546001600160581b0391909116600160281b026fffffffffffffffffffffff00000000001990911617815560408201516120a690612913565b6001820180546affffffffffffffffffffff19166001600160581b039290921691909117905560808201516120da90612913565b81546001600160581b0391909116600160801b026affffffffffffffffffffff60801b19909116178155606082015161211290612929565b815463ffffffff91909116600160d81b0263ffffffff60d81b19909116178155821561215e576000612143846115c2565b905061214f858261293c565b61215c610fee8683612978565b505b8361ffff167fef25641e225e493886510ca1ad6584fa7b442b9fea820a29d1de3ce27d270fd28360a001518460c001518560e001516040516121a293929190614c09565b60405180910390a250505050565b600080610b606009610fe1565b6000806121c8612a02565b6000938452602052505060409020546001600160a01b031690565b6000806000806000806121f4612a0f565b6001600160a01b039097166000908152602097909752505060409094205461ffff81169563ffffffff62010000830481169650600160301b830416945060ff600160501b8304169350600160581b90910460d81b9150565b60008060008061225a612a1c565b6001600160a01b0395909516600090815260209590955250506040909220546bffffffffffffffffffffffff811693600160601b82046fffffffffffffffffffffffffffffffff169350600160e01b90910463ffffffff169150565b6122be61452f565b6122c661452f565b60ff84166122d5579050610ba6565b6122df8585610d22565b815260ff841660608201528267ffffffffffffffff8111801561230157600080fd5b5060405190808252806020026020018201604052801561233b57816020015b6123286144f0565b8152602001906001900390816123205790505b506020820152949350505050565b600080612354611765565b6001600160a01b03851660009081526020828152604080832061ffff8816845290915281208054600160a81b9004600a90810b900b945091925083121561239a57600080fd5b505092915050565b60008160800151600014156123b95750600061034d565b60808201516276a70090610ff390612a29565b602082015151516000906060908067ffffffffffffffff811180156123f057600080fd5b5060405190808252806020026020018201604052801561241a578160200160208202803683370190505b509150612425614557565b60005b8281101561251057865161244390836001808501908a612a45565b6000876020015160000151828151811061245957fe5b602002602001015190506000816020015190506000806124798487612ac0565b915091506124a261249b8c60c001518d600001516000015161ffff1686612b32565b8290610cc1565b8886815181106124ae57fe5b60200260200101818152505060006124f16116726124e58b89815181106124d157fe5b6020026020010151878f8c60c00151612b77565b8e51604001519061119b565b90506124fd8a82610cc1565b9950506001909401935061242892505050565b5050509250929050565b60006002821161252c57506000610de6565b60006125388787611981565b905080612546579050610de6565b600061255185612a29565b90508581141561257b57507440008000000200200000000200000020000000002019169050610de6565b60015b8481116125bb57600061259082612bc8565b8301905060006125a08983612c6c565b5090506125af8582600061270b565b9450505060010161257e565b508192505050610de6565b600080610b60600b610fe1565b6000816125e25750600061034d565b6125eb82612d77565b60ff036001019050919050565b60008161260457600080fd5b61010082111561261357600080fd5b600061261e84610b66565b90506000605a84116126395750620151808302019050610b60565b60878411612661575060591983016207e900908102908206909103016276a700019050610b60565b60c3841161268a5750608619830162278d00908102908206909103016301da9c00019050610b60565b5060c21983016276a70090810290820690910301630b1fa800019050610b60565b6000806126b9888888612b32565b90508486116126c95790506118f8565b82156126e3576126db84828888611ed3565b9150506118f8565b60006126f0858888612e10565b90506126fe82888884612b77565b9998505050505050505050565b60006001831015801561272057506101008311155b61272957600080fd5b81156127425750600160ff1b60001983011c8317610ba6565b50600160ff1b60001983011c198316610ba6565b600080610b60600d610fe1565b67ffff000000000000603084901b1665ffffffffff00600884901b161760ff8216179392505050565b600080610b60601f610fe1565b6000806000806000856020015111156127e6576127e36127ca8660c00151876020015161159b90919063ffffffff16565b60e087015160408801516127dd9161159b565b90612ef9565b90505b60006127f187612f0c565b90506127fd8183612f3f565b945081156128145761281181866001612ff2565b93505b60208601511561282b57612828858361306a565b92505b50509250925092565b600080821161284257600080fd5b81838161284b57fe5b049392505050565b600080612861858585613083565b905080156128815761287c6128768585611e84565b826130d3565b610de6565b633b9aca0095945050505050565b60008061289d858585613140565b90506128ac6128768585611e84565b915060006128b986613181565b9050828112156128c7578092505b50509392505050565b6000610ba66128df8484611902565b633b9aca00611950565b600064ffffffffff8211156115d857600080fd5b60006001600160501b038211156115d857600080fd5b60006001600160581b038211156115d857600080fd5b600063ffffffff8211156115d857600080fd5b600081121561294a57600080fd5b6000612958610fee84612349565b90506129648183610cc1565b9050612973610fee848361319c565b505050565b6000612982613210565b61ffff8416600090815260209190915260409081902054905163ad1c095d60e01b81526001600160a01b039091169150819063ad1c095d906129ca9087908690600401614992565b600060405180830381600087803b1580156129e457600080fd5b505af11580156129f8573d6000803e3d6000fd5b5050505050505050565b600080610b606003610fe1565b600080610b606002610fe1565b600080610b606011610fe1565b60006276a700821015612a3b57600080fd5b6276a70082610b7e565b82600111158015612a5a575084602001518311155b612a765760405162461bcd60e51b81526004016101ff90614a98565b6000612a93612a8485612bc8565b612a8d84612a29565b90611e72565b9050612ab8866000015161ffff16828486612aad8b61321d565b8a9493929190613231565b505050505050565b600080612ad0846040015161325b565b8015612ae157506000846060015112155b612aea57600080fd5b612b0d83608001516111518660600151866060015161190290919063ffffffff16565b91506113ab83608001516111518660600151866040015161190290919063ffffffff16565b600080612b3d613271565b6001600160a01b03861660009081526020918252604080822087835283528082208683529092522054600f90810b900b9150509392505050565b600084612b8657506000610cb9565b6000612b928585611e84565b90506000612ba082856130d3565b9050633b9aca00811315612bb357600080fd5b612bbd87826128d0565b979650505050505050565b60008160011415612bdd57506276a70061034d565b8160021415612bf0575062ed4e0061034d565b8160031415612c0457506301da9c0061034d565b8160041415612c1857506303b5380061034d565b8160051415612c2c57506309450c0061034d565b8160061415612c40575063128a180061034d565b8160071415612c545750632514300061034d565b60405162461bcd60e51b81526004016101ff90614a45565b6000806000612c7a85610b66565b905062015180840615612c94576000809250925050612d70565b838110612ca8576000809250925050612d70565b6201518081850304605a8111612cc557925060019150612d709050565b6101688111612d04576000620151806207e900840604820160591901905060068104605a0160068281612cf457fe5b0660001494509450505050612d70565b6108708111612d345760006201518062278d00840604820161016719019050601e8104608701601e8281612cf457fe5b611de28111612d64576000620151806276a700840604820161086f19019050605a810460c301605a8281612cf457fe5b61010060009350935050505b9250929050565b600081612d8357600080fd5b600160801b8210612d9657608091821c91015b600160401b8210612da957604091821c91015b6401000000008210612dbd57602091821c91015b620100008210612dcf57601091821c91015b6101008210612de057600891821c91015b60108210612df057600491821c91015b60048210612e0057600291821c91015b6002821061034d57600101919050565b6000806000612e248660200151868661327e565b915091506000612e338761321d565b905081612e53578651612e4c9061ffff16878388613305565b9350612eef565b6000612e5e86612a29565b90506000612e75612e6e86612bc8565b8390611e72565b90506000612e8d8a6000015161ffff1683868b613305565b90506000808760011415612eab5750506040808b0151015188612eda565b612ec1612eba60018a03612bc8565b8690611e72565b9050612ed78c6000015161ffff1682888d613305565b91505b612ee7818584868f6133a4565b985050505050505b5050509392505050565b6000610ba6611eb084633b9aca0061159b565b612f1461459f565b6000612f1e613402565b61ffff8416600090815260209190915260408120549150610ba6908261340f565b600080836080015111612f5157600080fd5b633b9aca00821115612f6257600080fd5b82518211612f8157825160408401516117a79190611e5b90859061159b565b82602001518211612fb95760408301518351602085015160608601516117a79392612a8d9281900391611e5b9188039085900361159b565b610ba68360600151612a8d8560200151633b9aca0003611e5b87606001518860800151038860200151880361159b90919063ffffffff16565b6000806130116064611e5b8760e001518761159b90919063ffffffff16565b90508460a00151811015613026575060a08401515b8460c00151811115613039575060c08401515b8215613050576130498482611e72565b9150610d2e565b83811161305f57808403610de6565b506000949350505050565b6000610ba6613079848461159b565b633b9aca00612834565b6000613090848484612e10565b9050600061309d8561352e565b90508082116130b0576000915050610ba6565b808203915060006130c08661353b565b9050828110156128c75795945050505050565b6000806130f06130eb6301da9c00611e5b868861159b565b613548565b905061310281621dcd6560491b613566565b9050613115613110826135b9565b6135db565b905061312781621dcd6560491b613630565b9050600061313482613666565b60070b95945050505050565b600061314d848484612e10565b905061316261315b8561366f565b8290611e72565b9050600061316f8561367c565b905080821015610d2e57949350505050565b606001516207a12060109190911c60ff1602633b9aca000390565b60008112156131aa57600080fd5b60006131b4611765565b6001600160a01b03851660009081526020828152604080832061ffff8816845290915290209091506131e583613689565b8154600a9190910b6001600160581b0316600160a81b026001600160a81b0390911617905550505050565b600080610b606021610fe1565b6060015161012c60089190911c60ff160290565b60006276a70061324085612a29565b019050613252878787878787876136bb565b50505050505050565b600060028210801590610b605750506008101590565b600080610b60600c610fe1565b6000806000851161328e57600080fd5b600785111561329c57600080fd5b60006132a784612a29565b905060015b8681116132ff5760006132c86132c183612bc8565b8490611e72565b9050868114156132e057509250600091506108509050565b868111156132f657509250600191506108509050565b506001016132ac565b50600080fd5b6000806133106136f2565b905060006276a70061332185612a29565b6000898152602085815260408083208b84528252808320949093018083529390522080549192509063ffffffff600160a01b8204811691600160c01b8104821691600160e01b90910416816133885760405162461bcd60e51b81526004016101ff90614a15565b6133958184848c8c6136ff565b9b9a5050505050505050505050565b60008186106133b257600080fd5b8482106133be57600080fd5b8383106133e4576133dd84612a8d888803611e5b8388038b880361159b565b9050610de6565b6133dd6133fb878703611e5b8688038a870361159b565b8590611e84565b600080610b60601b610fe1565b61341761459f565b6064633b9aca008360ff86166020811061342d57fe5b1a028161343657fe5b0481526064633b9aca008360ff86166001016020811061345257fe5b1a028161345b57fe5b048160200181815250506134808260028560ff16016020811061347a57fe5b1a61377a565b60808201819052610100908360ff86166003016020811061349d57fe5b1a02816134a657fe5b0460408201526080810151610100908360ff8616600401602081106134c757fe5b1a02816134d057fe5b0460608201526207a1208260ff8516600501602081106134ec57fe5b1a0260a0820152622625a08260ff85166006016020811061350957fe5b1a0260c08201528160ff84166007016020811061352257fe5b1a60e082015292915050565b6000610b608260206137ae565b6000610b608260486137ae565b6000677fffffffffffffff82111561355f57600080fd5b5060401b90565b600081600f0b6000141561357957600080fd5b600082600f0b604085600f0b901b8161358e57fe5b05905060016001607f1b031981128015906135b0575060016001607f1b038113155b610ba657600080fd5b6000600f82900b60016001607f1b031914156135d457600080fd5b5060000390565b6000600160461b82600f0b126135f057600080fd5b683fffffffffffffffff1982600f0b121561360d5750600061034d565b610b60608083600f0b700171547652b82fe1777d0ffda0d23a7d1202901d6137c1565b6000600f83810b9083900b0260401d60016001607f1b031981128015906135b0575060016001607f1b03811315610ba657600080fd5b600f0b60401d90565b6000610b608260286137ae565b6000610b608260306137ae565b60006a7fffffffffffffffffffff1982128015906136b257506a7fffffffffffffffffffff8213155b6115d857600080fd5b6136c88787878685614271565b6136e18760e001518860a001518960c0015185886136ff565b60c090970196909652505050505050565b600080610b60600a610fe1565b600080831161370d57600080fd5b8186111561371c575083610de6565b60006137288388611e84565b90508381111561373b5785915050610de6565b60006137478286612ef9565b90506000613759633b9aca0083611e84565b90506126fe633b9aca00611e5b6137708a8561159b565b612a8d8c8761159b565b60008160ff166096106137955760ff8216622625a002610b60565b5060951960ff919091160162e4e1c00263165a0bc00190565b60609091015160ff911c16622625a00290565b6000600160461b82600f0b126137d657600080fd5b683fffffffffffffffff1982600f0b12156137f35750600061034d565b6001607f1b60006780000000000000008416600f0b13156138255770016a09e667f3bcc908b2fb1366ea957d3e0260801c5b60008367400000000000000016600f0b1315613852577001306fe0a31b7152de8d5a46305c85edec0260801c5b60008367200000000000000016600f0b131561387f577001172b83c7d517adcdf7c8c50eb14a791f0260801c5b60008367100000000000000016600f0b13156138ac5770010b5586cf9890f6298b92b71842a983630260801c5b60008367080000000000000016600f0b13156138d9577001059b0d31585743ae7c548eb68ca417fd0260801c5b60008367040000000000000016600f0b131561390657700102c9a3e778060ee6f7caca4f7a29bde80260801c5b60008367020000000000000016600f0b13156139335770010163da9fb33356d84a66ae336dcdfa3f0260801c5b600083600160381b16600f0b131561395c57700100b1afa5abcbed6129ab13ec11dc95430260801c5b600083668000000000000016600f0b13156139885770010058c86da1c09ea1ff19d294cf2f679b0260801c5b600083664000000000000016600f0b13156139b4577001002c605e2e8cec506d21bfc89a23a00f0260801c5b600083662000000000000016600f0b13156139e057700100162f3904051fa128bca9c55c31e5df0260801c5b600083661000000000000016600f0b1315613a0c577001000b175effdc76ba38e31671ca9397250260801c5b600083660800000000000016600f0b1315613a3857700100058ba01fb9f96d6cacd4b180917c3d0260801c5b600083660400000000000016600f0b1315613a645770010002c5cc37da9491d0985c348c68e7b30260801c5b600083660200000000000016600f0b1315613a90577001000162e525ee054754457d59952920260260801c5b600083600160301b16600f0b1315613ab95770010000b17255775c040618bf4a4ade83fc0260801c5b6000836580000000000016600f0b1315613ae4577001000058b91b5bc9ae2eed81e9b7d4cfab0260801c5b6000836540000000000016600f0b1315613b0f57700100002c5c89d5ec6ca4d7c8acc017b7c90260801c5b6000836520000000000016600f0b1315613b3a5770010000162e43f4f831060e02d839a9d16d0260801c5b6000836510000000000016600f0b1315613b6557700100000b1721bcfc99d9f890ea069117630260801c5b6000836508000000000016600f0b1315613b905770010000058b90cf1e6d97f9ca14dbcc16280260801c5b6000836504000000000016600f0b1315613bbb577001000002c5c863b73f016468f6bac5ca2b0260801c5b6000836502000000000016600f0b1315613be657700100000162e430e5a18f6119e3c02282a50260801c5b600083600160281b16600f0b1315613c0f577001000000b1721835514b86e6d96efd1bfe0260801c5b60008364800000000016600f0b1315613c3957700100000058b90c0b48c6be5df846c5b2ef0260801c5b60008364400000000016600f0b1315613c635770010000002c5c8601cc6b9e94213c72737a0260801c5b60008364200000000016600f0b1315613c8d577001000000162e42fff037df38aa2b219f060260801c5b60008364100000000016600f0b1315613cb75770010000000b17217fba9c739aa5819f44f90260801c5b60008364080000000016600f0b1315613ce1577001000000058b90bfcdee5acd3c1cedc8230260801c5b60008364040000000016600f0b1315613d0b57700100000002c5c85fe31f35a6a30da1be500260801c5b60008364020000000016600f0b1315613d355770010000000162e42ff0999ce3541b9fffcf0260801c5b60008364010000000016600f0b1315613d5f57700100000000b17217f80f4ef5aadda455540260801c5b600083638000000016600f0b1315613d885770010000000058b90bfbf8479bd5a81b51ad0260801c5b600083634000000016600f0b1315613db1577001000000002c5c85fdf84bd62ae30a74cc0260801c5b600083632000000016600f0b1315613dda57700100000000162e42fefb2fed257559bdaa0260801c5b600083631000000016600f0b1315613e03577001000000000b17217f7d5a7716bba4a9ae0260801c5b600083630800000016600f0b1315613e2c57700100000000058b90bfbe9ddbac5e109cce0260801c5b600083630400000016600f0b1315613e555770010000000002c5c85fdf4b15de6f17eb0d0260801c5b600083630200000016600f0b1315613e7e577001000000000162e42fefa494f1478fde050260801c5b600083630100000016600f0b1315613ea75770010000000000b17217f7d20cf927c8e94c0260801c5b6000836280000016600f0b1315613ecf577001000000000058b90bfbe8f71cb4e4b33d0260801c5b6000836240000016600f0b1315613ef757700100000000002c5c85fdf477b662b269450260801c5b6000836220000016600f0b1315613f1f5770010000000000162e42fefa3ae53369388c0260801c5b6000836210000016600f0b1315613f4757700100000000000b17217f7d1d351a389d400260801c5b6000836208000016600f0b1315613f6f5770010000000000058b90bfbe8e8b2d3d4ede0260801c5b6000836204000016600f0b1315613f97577001000000000002c5c85fdf4741bea6e77e0260801c5b6000836202000016600f0b1315613fbf57700100000000000162e42fefa39fe95583c20260801c5b6000836201000016600f0b1315613fe7577001000000000000b17217f7d1cfb72b45e10260801c5b60008361800016600f0b131561400e57700100000000000058b90bfbe8e7cc35c3f00260801c5b60008361400016600f0b13156140355770010000000000002c5c85fdf473e242ea380260801c5b60008361200016600f0b131561405c577001000000000000162e42fefa39f02b772c0260801c5b60008361100016600f0b13156140835770010000000000000b17217f7d1cf7d83c1a0260801c5b60008361080016600f0b13156140aa577001000000000000058b90bfbe8e7bdcbe2e0260801c5b60008361040016600f0b13156140d157700100000000000002c5c85fdf473dea871f0260801c5b60008361020016600f0b13156140f85770010000000000000162e42fefa39ef44d910260801c5b60008361010016600f0b131561411f57700100000000000000b17217f7d1cf79e9490260801c5b600083608016600f0b13156141455770010000000000000058b90bfbe8e7bce5440260801c5b600083604016600f0b131561416b577001000000000000002c5c85fdf473de6eca0260801c5b600083602016600f0b131561419157700100000000000000162e42fefa39ef366f0260801c5b600083601016600f0b13156141b7577001000000000000000b17217f7d1cf79afa0260801c5b600083600816600f0b13156141dd57700100000000000000058b90bfbe8e7bcd6d0260801c5b600083600416600f0b13156142035770010000000000000002c5c85fdf473de6b20260801c5b600083600216600f0b1315614229577001000000000000000162e42fefa39ef3580260801c5b600083600116600f0b131561424f5770010000000000000000b17217f7d1cf79ab0260801c5b600f83810b60401d603f03900b1c60016001607f1b03811115610b6057600080fd5b600061427b6136f2565b6000868152602082815260408083208884528252808320868452825291829020808a5290890187905280546001600160501b03808216938b0193909352600160501b810490921660608a015263ffffffff600160a01b8304811660a08b0152600160c01b8304811660c08b0152600160e01b90920490911660e089015290915080841561431a5760018201546001600160501b031660808901526129f8565b600060808901525050505050505050565b6040805160c081018252600080825260208201819052918101829052606081018290526080810182905260a081019190915290565b60405180610160016040528060006001600160a01b031681526020016000815260200160008152602001600081526020016000815260200160006001600160d01b03191681526020016143b1614454565b81526020016143be614454565b81526020016143cb614483565b81526020016143d8614435565b8152600060209091015290565b6040518060e00160405280600081526020016000151581526020016000815260200161440f614435565b815260200160608152602001614423614483565b81526020016144306145e4565b905290565b60408051608081018252600080825260208201529081016143d8614483565b6040518060a0016040528060008152602001600081526020016000815260200160008152602001600081525090565b60405180606001604052806000815260200160008152602001600081525090565b6040518061012001604052806000815260200160008152602001600081526020016000815260200160008152602001600081526020016000815260200160008152602001600081525090565b6040518060c00160405280600061ffff168152602001600081526020016000815260200160008152602001600081526020016000600381111561443057fe5b6040518060800160405280606081526020016060815260200160008152602001600081525090565b60405180610100016040528060008019168152602001600081526020016000815260200160008152602001600081526020016000815260200160008152602001600081525090565b60405180610100016040528060008152602001600081526020016000815260200160008152602001600081526020016000815260200160008152602001600081525090565b6040518060e001604052806145f7614435565b815260200161460461452f565b815260006020820181905260408201819052606082018190526080820181905260a09091015290565b80356001600160a01b038116811461034d57600080fd5b8051801515811461034d57600080fd5b80516001600160701b03198116811461034d57600080fd5b80516001600160f81b03198116811461034d57600080fd5b805161ffff8116811461034d57600080fd5b80516001600160501b038116811461034d57600080fd5b805160ff8116811461034d57600080fd5b6000602082840312156146cf578081fd5b610ba68261462d565b6000806000606084860312156146ec578182fd5b6146f58461462d565b95602085013595506040909401359392505050565b600060c0828403121561471b578081fd5b60405160c0810181811067ffffffffffffffff8211171561473857fe5b604052825164ffffffffff8116811461474f578283fd5b815261475d6020840161466c565b602082015261476e604084016146ad565b604082015261477f60608401614684565b606082015261479060808401614654565b60808201526147a160a08401614644565b60a08201529392505050565b600080604083850312156147bf578182fd5b505080516020909101519092909150565b600080600080600060a086880312156147e7578081fd5b6147f086614696565b945060208601519350604086015192506060860151915061481360808701614696565b90509295509295909350565b6001600160a01b03169052565b6000815180845260208085019450808401835b8381101561489d578151805161ffff168852838101518489015260408082015190890152606080820151908901526080808201519089015260a090810151906004821061488857fe5b88015260c0909601959082019060010161483f565b509495945050505050565b15159052565b6001600160d01b0319169052565b805164ffffffffff1682526020808201516001600160f81b0319169083015260408082015160ff169083015260608082015161ffff16908301526080808201516001600160701b0319169083015260a0908101511515910152565b61ffff815116825260208101516020830152604081015161493b6040840182614979565b506060015160a09190910152565b80518252602081015160208301526040810151604083015260608101516060830152608081015160808301525050565b8051825260208082015190830152604090810151910152565b6001600160a01b03929092168252602082015260400190565b6001600160a01b038316815260e08101610ba660208301846148bc565b60006040820184835260206040818501528185518084526060860191508287019350845b81811015614a08578451835293830193918301916001016149ec565b5090979650505050505050565b60208082526016908201527513585c9ad95d081b9bdd081a5b9a5d1a585b1a5e995960521b604082015260600190565b6020808252600d908201526c092dcecc2d8d2c840d2dcc8caf609b1b604082015260600190565b602080825260129082015271105cdcd95d1cc81b9bdd081cd95d1d1b195960721b604082015260600190565b6020808252600e908201526d125b9d985b1a59081b585c9ad95d60921b604082015260600190565b60208082526015908201527414dd59999a58da595b9d0818dbdb1b185d195c985b605a1b604082015260600190565b6020808252601c908201527f496e73756666696369656e74206672656520636f6c6c61746572616c00000000604082015260600190565b6000610420614b3583876148bc565b614b4360c08401865161481f565b602085015160e08401526040850151610100818186015260608701519150610120828187015260808801519250610140838188015260a08901519350614b8d6101608801856148ae565b60c08901519350614ba2610180880185614949565b60e08901519350614bb7610220880185614949565b828901519350614bcb6102c0880185614979565b818901519350614bdf610320880185614917565b8801519250614bf59150506103e08501826148a8565b50806104008401526118f88184018561482c565b928352602083019190915260408201526060019056fea2646970667358221220047dd372806522c53b7a5b9fcfc5daaa9d51c980bbe50a5c7223f0b63b9964d464736f6c63430007060033","language":"Solidity","natspec":{"kind":"dev","methods":{"checkFreeCollateralAndRevert(address)":{"details":"Cannot be called directly by users, used during various actions that require an FC check. Must be called before the end of any transaction for accounts where FC can decrease.","notice":"Calculates free collateral and will revert if it falls below zero. If the account context must be updated due to changes in debt settings, will update. Cannot check free collateral if assets need to be settled first.","params":{"account":"account to calculate free collateral for"}},"getFreeCollateralView(address)":{"details":"Called via the Views.sol method to return an account's free collateral. Does not work for the nToken, the nToken does not have an account context.","notice":"Returns the ETH denominated free collateral of an account, represents the amount of debt that the account can incur before liquidation. If an account's assets need to be settled this will revert, either settle the account or use the off chain SDK to calculate free collateral.","params":{"account":"account to calculate free collateral for"},"returns":{"_0":"total free collateral in ETH w/ 8 decimal places","_1":"array of net local values in asset values ordered by currency id"}},"getLiquidationFactors(address,uint256,uint256)":{"details":"Only called internally by liquidation actions, does some initial validation of currencies. If a currency is specified that the account does not have, a asset available figure of zero will be returned. If this is the case then liquidation actions will revert.an ntoken account will return 0 FC and revert if called","notice":"Calculates liquidation factors for an account","params":{"account":"account to liquidate","collateralCurrencyId":"collateral currency to liquidate against, set to zero in the case of local currency liquidation","localCurrencyId":"currency that the debts are denominated in"},"returns":{"accountContext":"the accountContext of the liquidated account","factors":"struct of relevant factors for liquidation","portfolio":"the portfolio array of the account (bitmap accounts will return an empty array)"}}},"title":"Externally deployed library for free collateral calculations","version":1},"opcodes":"PUSH20 0x0 ADDRESS EQ PUSH1 0x80 PUSH1 0x40 MSTORE PUSH1 0x4 CALLDATASIZE LT PUSH2 0x4B JUMPI PUSH1 0x0 CALLDATALOAD PUSH1 0xE0 SHR DUP1 PUSH4 0x451D958F EQ PUSH2 0x50 JUMPI DUP1 PUSH4 0x6CB65EAF EQ PUSH2 0x88 JUMPI DUP1 PUSH4 0x6CCC642F EQ PUSH2 0xA9 JUMPI JUMPDEST PUSH1 0x0 DUP1 REVERT JUMPDEST DUP2 DUP1 ISZERO PUSH2 0x5C JUMPI PUSH1 0x0 DUP1 REVERT JUMPDEST POP PUSH2 0x70 PUSH2 0x6B CALLDATASIZE PUSH1 0x4 PUSH2 0x46D8 JUMP JUMPDEST PUSH2 0xCB JUMP JUMPDEST PUSH1 0x40 MLOAD PUSH2 0x7F SWAP4 SWAP3 SWAP2 SWAP1 PUSH2 0x4B26 JUMP JUMPDEST PUSH1 0x40 MLOAD DUP1 SWAP2 SUB SWAP1 RETURN JUMPDEST PUSH2 0x9B PUSH2 0x96 CALLDATASIZE PUSH1 0x4 PUSH2 0x46BE JUMP JUMPDEST PUSH2 0x1C8 JUMP JUMPDEST PUSH1 0x40 MLOAD PUSH2 0x7F SWAP3 SWAP2 SWAP1 PUSH2 0x49C8 JUMP JUMPDEST DUP2 DUP1 ISZERO PUSH2 0xB5 JUMPI PUSH1 0x0 DUP1 REVERT JUMPDEST POP PUSH2 0xC9 PUSH2 0xC4 CALLDATASIZE PUSH1 0x4 PUSH2 0x46BE JUMP JUMPDEST PUSH2 0x21D JUMP JUMPDEST STOP JUMPDEST PUSH2 0xD3 PUSH2 0x432B JUMP JUMPDEST PUSH2 0xDB PUSH2 0x4360 JUMP JUMPDEST PUSH1 0x60 PUSH2 0xE5 PUSH2 0x2A1 JUMP JUMPDEST PUSH2 0xEE DUP7 PUSH2 0x2A3 JUMP JUMPDEST SWAP3 POP PUSH2 0xF9 DUP4 PUSH2 0x352 JUMP JUMPDEST ISZERO PUSH2 0x18A JUMPI PUSH1 0x40 MLOAD PUSH4 0x37B5FC21 PUSH1 0xE1 SHL DUP2 MSTORE PUSH20 0x0 SWAP1 PUSH4 0x6F6BF842 SWAP1 PUSH2 0x137 SWAP1 DUP10 SWAP1 DUP8 SWAP1 PUSH1 0x4 ADD PUSH2 0x49AB JUMP JUMPDEST PUSH1 0xC0 PUSH1 0x40 MLOAD DUP1 DUP4 SUB DUP2 DUP7 DUP1 EXTCODESIZE ISZERO DUP1 ISZERO PUSH2 0x14F JUMPI PUSH1 0x0 DUP1 REVERT JUMPDEST POP GAS DELEGATECALL ISZERO DUP1 ISZERO PUSH2 0x163 JUMPI RETURNDATASIZE PUSH1 0x0 DUP1 RETURNDATACOPY RETURNDATASIZE PUSH1 0x0 REVERT JUMPDEST POP POP POP POP PUSH1 0x40 MLOAD RETURNDATASIZE PUSH1 0x1F NOT PUSH1 0x1F DUP3 ADD AND DUP3 ADD DUP1 PUSH1 0x40 MSTORE POP DUP2 ADD SWAP1 PUSH2 0x187 SWAP2 SWAP1 PUSH2 0x470A JUMP JUMPDEST SWAP3 POP JUMPDEST PUSH2 0x193 DUP4 PUSH2 0x3A6 JUMP JUMPDEST ISZERO PUSH2 0x1AC JUMPI DUP3 PUSH1 0x60 ADD MLOAD PUSH2 0xFFFF AND DUP6 EQ PUSH2 0x1AC JUMPI PUSH1 0x0 DUP1 REVERT JUMPDEST PUSH2 0x1B9 DUP7 DUP5 TIMESTAMP DUP9 DUP9 PUSH2 0x3B3 JUMP JUMPDEST SWAP4 SWAP8 SWAP1 SWAP7 POP SWAP3 SWAP5 POP SWAP2 SWAP3 POP POP POP JUMP JUMPDEST PUSH1 0x0 PUSH1 0x60 PUSH1 0x0 PUSH2 0x1D7 DUP5 PUSH2 0x2A3 JUMP JUMPDEST SWAP1 POP PUSH2 0x1E2 DUP2 PUSH2 0x352 JUMP JUMPDEST ISZERO PUSH2 0x208 JUMPI PUSH1 0x40 MLOAD PUSH3 0x461BCD PUSH1 0xE5 SHL DUP2 MSTORE PUSH1 0x4 ADD PUSH2 0x1FF SWAP1 PUSH2 0x4A6C JUMP JUMPDEST PUSH1 0x40 MLOAD DUP1 SWAP2 SUB SWAP1 REVERT JUMPDEST PUSH2 0x213 DUP5 DUP3 TIMESTAMP PUSH2 0x612 JUMP JUMPDEST SWAP3 POP SWAP3 POP POP SWAP2 POP SWAP2 JUMP JUMPDEST PUSH2 0x225 PUSH2 0x2A1 JUMP JUMPDEST PUSH1 0x0 PUSH2 0x230 DUP3 PUSH2 0x2A3 JUMP JUMPDEST SWAP1 POP PUSH2 0x23B DUP2 PUSH2 0x352 JUMP JUMPDEST ISZERO PUSH2 0x258 JUMPI PUSH1 0x40 MLOAD PUSH3 0x461BCD PUSH1 0xE5 SHL DUP2 MSTORE PUSH1 0x4 ADD PUSH2 0x1FF SWAP1 PUSH2 0x4A6C JUMP JUMPDEST PUSH1 0x0 DUP1 PUSH2 0x266 DUP5 DUP5 TIMESTAMP PUSH2 0x858 JUMP JUMPDEST SWAP2 POP SWAP2 POP DUP1 ISZERO PUSH2 0x27A JUMPI PUSH2 0x27A DUP4 DUP6 PUSH2 0xA36 JUMP JUMPDEST PUSH1 0x0 DUP3 SLT ISZERO PUSH2 0x29B JUMPI PUSH1 0x40 MLOAD PUSH3 0x461BCD PUSH1 0xE5 SHL DUP2 MSTORE PUSH1 0x4 ADD PUSH2 0x1FF SWAP1 PUSH2 0x4AEF JUMP JUMPDEST POP POP POP POP JUMP JUMPDEST JUMP JUMPDEST PUSH2 0x2AB PUSH2 0x432B JUMP JUMPDEST PUSH1 0x0 PUSH2 0x2B5 PUSH2 0xB53 JUMP JUMPDEST PUSH1 0x1 PUSH1 0x1 PUSH1 0xA0 SHL SUB DUP5 AND PUSH1 0x0 SWAP1 DUP2 MSTORE PUSH1 0x20 SWAP2 DUP3 MSTORE PUSH1 0x40 SWAP1 DUP2 SWAP1 KECCAK256 DUP2 MLOAD PUSH1 0xC0 DUP2 ADD DUP4 MSTORE SWAP1 SLOAD PUSH5 0xFFFFFFFFFF DUP2 AND DUP3 MSTORE PUSH1 0x1 PUSH1 0x1 PUSH1 0xF8 SHL SUB NOT PUSH1 0x1 PUSH1 0x28 SHL DUP3 DIV PUSH1 0xF8 SHL AND SWAP4 DUP3 ADD SWAP4 SWAP1 SWAP4 MSTORE PUSH1 0xFF PUSH1 0x1 PUSH1 0x30 SHL DUP5 DIV DUP2 AND SWAP3 DUP3 ADD SWAP3 SWAP1 SWAP3 MSTORE PUSH2 0xFFFF PUSH1 0x1 PUSH1 0x38 SHL DUP5 DIV AND PUSH1 0x60 DUP3 ADD MSTORE PUSH1 0x1 PUSH1 0x1 PUSH1 0x70 SHL SUB NOT PUSH1 0x1 PUSH1 0x48 SHL DUP5 DIV PUSH1 0x70 SHL AND PUSH1 0x80 DUP3 ADD MSTORE PUSH1 0x1 PUSH1 0xD8 SHL SWAP1 SWAP3 DIV AND ISZERO ISZERO PUSH1 0xA0 DUP3 ADD MSTORE SWAP2 POP POP JUMPDEST SWAP2 SWAP1 POP JUMP JUMPDEST PUSH1 0x0 TIMESTAMP PUSH2 0x35E DUP4 PUSH2 0x3A6 JUMP JUMPDEST ISZERO PUSH2 0x37F JUMPI PUSH2 0x36C DUP2 PUSH2 0xB66 JUMP JUMPDEST DUP4 MLOAD PUSH5 0xFFFFFFFFFF AND LT SWAP2 POP PUSH2 0x34D SWAP1 POP JUMP JUMPDEST DUP3 MLOAD PUSH5 0xFFFFFFFFFF AND ISZERO DUP1 ISZERO SWAP1 PUSH2 0x39E JUMPI POP DUP3 MLOAD PUSH5 0xFFFFFFFFFF AND DUP2 LT ISZERO JUMPDEST SWAP2 POP POP PUSH2 0x34D JUMP JUMPDEST PUSH1 0x60 ADD MLOAD PUSH2 0xFFFF AND ISZERO ISZERO SWAP1 JUMP JUMPDEST PUSH2 0x3BB PUSH2 0x4360 JUMP JUMPDEST PUSH1 0x60 PUSH2 0x3C5 PUSH2 0x43E5 JUMP JUMPDEST PUSH2 0x3CD PUSH2 0x4360 JUMP JUMPDEST PUSH1 0x1 PUSH1 0x1 PUSH1 0xA0 SHL SUB DUP10 AND DUP2 MSTORE PUSH2 0x3E2 DUP9 PUSH2 0x3A6 JUMP JUMPDEST ISZERO PUSH2 0x4BB JUMPI PUSH2 0x3F4 DUP9 PUSH1 0x60 ADD MLOAD PUSH2 0xB87 JUMP JUMPDEST PUSH1 0x60 DUP4 ADD MSTORE PUSH1 0x0 DUP1 DUP1 PUSH2 0x409 DUP13 DUP12 DUP14 DUP9 PUSH2 0xBAD JUMP JUMPDEST SWAP3 POP SWAP3 POP SWAP3 POP PUSH1 0x0 PUSH2 0x41D DUP14 DUP13 DUP15 DUP10 PUSH2 0xC08 JUMP JUMPDEST SWAP1 POP PUSH1 0x0 PUSH2 0x435 DUP3 PUSH2 0x42F DUP8 DUP8 PUSH2 0xCC1 JUMP JUMPDEST SWAP1 PUSH2 0xCC1 JUMP JUMPDEST SWAP1 POP DUP7 PUSH1 0x60 ADD MLOAD PUSH1 0x40 ADD MLOAD DUP8 PUSH1 0xA0 ADD DUP2 SWAP1 MSTORE POP PUSH1 0x0 PUSH2 0x45D DUP15 PUSH1 0x60 ADD MLOAD PUSH2 0xFFFF AND DUP4 DUP11 PUSH2 0xCD7 JUMP JUMPDEST SWAP1 POP DUP12 DUP15 PUSH1 0x60 ADD MLOAD PUSH2 0xFFFF AND EQ ISZERO PUSH2 0x4B0 JUMPI PUSH1 0x40 DUP8 ADD DUP3 SWAP1 MSTORE PUSH1 0xC0 DUP8 ADD DUP2 SWAP1 MSTORE PUSH1 0xA0 DUP9 ADD MLOAD PUSH2 0x100 DUP9 ADD MSTORE DUP11 PUSH2 0x4B0 JUMPI PUSH1 0x60 DUP9 ADD MLOAD PUSH2 0x120 DUP9 ADD MSTORE PUSH1 0x80 DUP8 ADD DUP6 SWAP1 MSTORE PUSH1 0x1 PUSH1 0x1 PUSH1 0xD0 SHL SUB NOT DUP5 AND PUSH1 0xA0 DUP9 ADD MSTORE JUMPDEST POP POP POP POP POP POP PUSH2 0x4CF JUMP JUMPDEST PUSH2 0x4C9 DUP10 DUP10 PUSH1 0x40 ADD MLOAD PUSH2 0xD22 JUMP JUMPDEST PUSH1 0x80 DUP4 ADD MSTORE JUMPDEST PUSH1 0x80 DUP9 ADD MLOAD JUMPDEST PUSH1 0x1 PUSH1 0x1 PUSH1 0x70 SHL SUB NOT DUP2 AND ISZERO PUSH2 0x5B3 JUMPI PUSH1 0x60 DUP10 ADD MLOAD DUP2 SWAP1 PUSH1 0x0 SWAP1 PUSH1 0xF0 DUP4 SWAP1 SHR PUSH2 0x3FFF AND SWAP1 PUSH2 0xFFFF AND DUP2 EQ ISZERO PUSH2 0x509 JUMPI PUSH1 0x0 DUP1 REVERT JUMPDEST DUP10 DUP2 EQ DUP1 ISZERO PUSH2 0x516 JUMPI POP DUP9 ISZERO JUMPDEST DUP1 PUSH2 0x520 JUMPI POP DUP9 DUP2 EQ JUMPDEST SWAP2 POP POP PUSH1 0x0 PUSH2 0x532 DUP7 DUP7 DUP6 DUP6 DUP16 PUSH2 0xD36 JUMP JUMPDEST SWAP1 POP PUSH1 0xF0 DUP4 SWAP1 SHR PUSH2 0x3FFF AND PUSH1 0x0 PUSH2 0x54A DUP3 DUP5 DUP11 PUSH2 0xCD7 JUMP JUMPDEST SWAP1 POP DUP11 DUP3 EQ ISZERO PUSH2 0x576 JUMPI PUSH1 0xA0 DUP9 ADD MLOAD PUSH2 0x120 DUP9 ADD MLOAD PUSH1 0x40 ADD MSTORE PUSH1 0x60 DUP8 ADD DUP4 SWAP1 MSTORE PUSH1 0xE0 DUP8 ADD DUP2 SWAP1 MSTORE PUSH2 0x598 JUMP JUMPDEST DUP12 DUP3 EQ ISZERO PUSH2 0x598 JUMPI PUSH1 0x40 DUP8 ADD DUP4 SWAP1 MSTORE PUSH1 0xC0 DUP8 ADD DUP2 SWAP1 MSTORE PUSH1 0xA0 DUP9 ADD MLOAD PUSH2 0x100 DUP9 ADD MSTORE JUMPDEST PUSH1 0x10 DUP7 PUSH1 0x1 PUSH1 0x1 PUSH1 0x70 SHL SUB NOT AND SWAP1 SHL SWAP6 POP POP POP POP POP POP PUSH2 0x4D5 JUMP JUMPDEST DUP3 MLOAD PUSH1 0x20 DUP4 ADD DUP2 SWAP1 MSTORE PUSH1 0x0 SGT PUSH2 0x5DB JUMPI PUSH1 0x40 MLOAD PUSH3 0x461BCD PUSH1 0xE5 SHL DUP2 MSTORE PUSH1 0x4 ADD PUSH2 0x1FF SWAP1 PUSH2 0x4AC0 JUMP JUMPDEST PUSH1 0x40 DUP10 ADD MLOAD PUSH1 0xFF AND ISZERO PUSH2 0x5FC JUMPI PUSH2 0x5F6 DUP11 DUP11 PUSH1 0x40 ADD MLOAD PUSH2 0xD22 JUMP JUMPDEST PUSH1 0x80 DUP5 ADD MSTORE JUMPDEST POP PUSH1 0x80 SWAP1 SWAP2 ADD MLOAD SWAP1 SWAP3 POP SWAP1 POP SWAP6 POP SWAP6 SWAP4 POP POP POP POP JUMP JUMPDEST PUSH1 0x0 PUSH1 0x60 PUSH2 0x61E PUSH2 0x43E5 JUMP JUMPDEST PUSH1 0x40 DUP1 MLOAD PUSH1 0xA DUP1 DUP3 MSTORE PUSH2 0x160 DUP3 ADD SWAP1 SWAP3 MSTORE PUSH1 0x0 SWAP2 DUP3 SWAP2 SWAP1 PUSH1 0x20 DUP3 ADD PUSH2 0x140 DUP1 CALLDATASIZE DUP4 CALLDATACOPY ADD SWAP1 POP POP SWAP1 POP PUSH2 0x64F DUP8 PUSH2 0x3A6 JUMP JUMPDEST ISZERO PUSH2 0x6F7 JUMPI PUSH2 0x661 DUP8 PUSH1 0x60 ADD MLOAD PUSH2 0xDEF JUMP JUMPDEST PUSH1 0x60 DUP5 ADD MSTORE PUSH1 0x0 DUP1 PUSH2 0x675 DUP11 DUP10 DUP12 DUP9 PUSH2 0xBAD JUMP JUMPDEST POP SWAP2 POP SWAP2 POP PUSH1 0x0 PUSH2 0x688 DUP12 DUP11 DUP13 DUP10 PUSH2 0xC08 JUMP JUMPDEST SWAP1 POP PUSH2 0x698 DUP2 PUSH2 0x42F DUP6 DUP6 PUSH2 0xCC1 JUMP JUMPDEST DUP5 DUP7 DUP2 MLOAD DUP2 LT PUSH2 0x6A4 JUMPI INVALID JUMPDEST PUSH1 0x20 MUL PUSH1 0x20 ADD ADD DUP2 DUP2 MSTORE POP POP DUP6 PUSH1 0x60 ADD MLOAD PUSH1 0x40 ADD MLOAD DUP7 PUSH1 0xA0 ADD DUP2 SWAP1 MSTORE POP PUSH2 0x6E7 DUP11 PUSH1 0x60 ADD MLOAD PUSH2 0xFFFF AND DUP6 DUP8 DUP2 MLOAD DUP2 LT PUSH2 0x6D9 JUMPI INVALID JUMPDEST PUSH1 0x20 MUL PUSH1 0x20 ADD ADD MLOAD DUP9 PUSH2 0xCD7 JUMP JUMPDEST POP POP PUSH1 0x1 SWAP1 SWAP4 ADD SWAP3 POP PUSH2 0x70B SWAP1 POP JUMP JUMPDEST PUSH2 0x705 DUP9 DUP9 PUSH1 0x40 ADD MLOAD PUSH2 0xD22 JUMP JUMPDEST PUSH1 0x80 DUP5 ADD MSTORE JUMPDEST PUSH1 0x80 DUP8 ADD MLOAD JUMPDEST PUSH1 0x1 PUSH1 0x1 PUSH1 0x70 SHL SUB NOT DUP2 AND ISZERO PUSH2 0x846 JUMPI PUSH1 0x60 DUP9 ADD MLOAD DUP2 SWAP1 PUSH1 0xF0 DUP3 SWAP1 SHR PUSH2 0x3FFF AND SWAP1 PUSH2 0xFFFF AND DUP2 EQ ISZERO PUSH2 0x742 JUMPI PUSH1 0x0 DUP1 REVERT JUMPDEST PUSH1 0x0 PUSH2 0x74E DUP3 DUP12 PUSH2 0xE10 JUMP JUMPDEST POP PUSH1 0xA0 DUP9 ADD DUP2 SWAP1 MSTORE PUSH2 0x763 SWAP1 DUP14 SWAP1 DUP6 SWAP1 PUSH2 0xECE JUMP JUMPDEST DUP7 DUP9 DUP2 MLOAD DUP2 LT PUSH2 0x76F JUMPI INVALID JUMPDEST PUSH1 0x20 MUL PUSH1 0x20 ADD ADD DUP2 SWAP4 POP DUP3 DUP2 MSTORE POP POP POP PUSH2 0x788 DUP4 PUSH2 0xF13 JUMP JUMPDEST DUP1 PUSH2 0x793 JUMPI POP PUSH1 0x0 DUP2 SGT JUMPDEST ISZERO PUSH2 0x7FE JUMPI PUSH2 0x7A1 DUP3 PUSH2 0xDEF JUMP JUMPDEST PUSH1 0x60 DUP9 ADD MSTORE PUSH1 0x0 DUP1 PUSH2 0x7B4 DUP10 DUP5 DUP15 PUSH2 0xF1F JUMP JUMPDEST POP SWAP2 POP SWAP2 POP PUSH2 0x7E3 DUP2 PUSH2 0x42F DUP5 DUP11 DUP13 DUP2 MLOAD DUP2 LT PUSH2 0x7CD JUMPI INVALID JUMPDEST PUSH1 0x20 MUL PUSH1 0x20 ADD ADD MLOAD PUSH2 0xCC1 SWAP1 SWAP2 SWAP1 PUSH4 0xFFFFFFFF AND JUMP JUMPDEST DUP8 DUP10 DUP2 MLOAD DUP2 LT PUSH2 0x7EF JUMPI INVALID JUMPDEST PUSH1 0x20 MUL PUSH1 0x20 ADD ADD DUP2 DUP2 MSTORE POP POP POP POP JUMPDEST PUSH2 0x820 DUP3 PUSH2 0xFFFF AND DUP7 DUP9 DUP2 MLOAD DUP2 LT PUSH2 0x812 JUMPI INVALID JUMPDEST PUSH1 0x20 MUL PUSH1 0x20 ADD ADD MLOAD DUP10 PUSH2 0xCD7 JUMP JUMPDEST POP POP POP PUSH1 0x1 SWAP4 SWAP1 SWAP4 ADD SWAP3 POP PUSH1 0x10 SHL PUSH16 0xFFFFFFFFFFFFFFFFFFFFFFFFFFFFFFFF NOT AND PUSH2 0x711 JUMP JUMPDEST POP SWAP2 MLOAD SWAP4 POP SWAP1 SWAP2 POP POP JUMPDEST SWAP4 POP SWAP4 SWAP2 POP POP JUMP JUMPDEST PUSH1 0x0 DUP1 PUSH2 0x863 PUSH2 0x43E5 JUMP JUMPDEST PUSH1 0x0 PUSH2 0x86E DUP7 PUSH2 0x3A6 JUMP JUMPDEST ISZERO PUSH2 0x8F5 JUMPI PUSH2 0x880 DUP7 PUSH1 0x60 ADD MLOAD PUSH2 0xB87 JUMP JUMPDEST PUSH1 0x60 DUP4 ADD MSTORE PUSH1 0x0 DUP1 PUSH2 0x894 DUP10 DUP9 DUP11 DUP8 PUSH2 0xBAD JUMP JUMPDEST POP SWAP2 POP SWAP2 POP PUSH1 0x0 DUP3 SLT ISZERO PUSH2 0x8A7 JUMPI PUSH1 0x1 SWAP3 POP JUMPDEST PUSH1 0x0 PUSH2 0x8B5 DUP11 DUP10 DUP12 DUP9 PUSH2 0xC08 JUMP JUMPDEST SWAP1 POP PUSH1 0x0 PUSH2 0x8C7 DUP3 PUSH2 0x42F DUP7 DUP7 PUSH2 0xCC1 JUMP JUMPDEST PUSH1 0x60 DUP1 DUP9 ADD MLOAD PUSH1 0x40 ADD MLOAD PUSH1 0xA0 DUP10 ADD MSTORE DUP12 ADD MLOAD SWAP1 SWAP2 POP PUSH2 0x8EB SWAP1 PUSH2 0xFFFF AND DUP3 DUP9 PUSH2 0xCD7 JUMP JUMPDEST POP POP POP POP POP PUSH2 0x909 JUMP JUMPDEST PUSH2 0x903 DUP8 DUP8 PUSH1 0x40 ADD MLOAD PUSH2 0xD22 JUMP JUMPDEST PUSH1 0x80 DUP4 ADD MSTORE JUMPDEST PUSH1 0x80 DUP7 ADD MLOAD JUMPDEST PUSH1 0x1 PUSH1 0x1 PUSH1 0x70 SHL SUB NOT DUP2 AND ISZERO PUSH2 0x9ED JUMPI PUSH1 0x60 DUP8 ADD MLOAD DUP2 SWAP1 PUSH1 0xF0 DUP3 SWAP1 SHR PUSH2 0x3FFF AND SWAP1 PUSH2 0xFFFF AND DUP2 EQ ISZERO PUSH2 0x940 JUMPI PUSH1 0x0 DUP1 REVERT JUMPDEST PUSH2 0x949 DUP2 PUSH2 0xFCF JUMP JUMPDEST DUP6 PUSH1 0xA0 ADD DUP2 SWAP1 MSTORE POP PUSH1 0x0 DUP1 PUSH2 0x963 DUP13 DUP6 DUP10 PUSH1 0xA0 ADD MLOAD PUSH2 0xECE JUMP JUMPDEST SWAP2 POP SWAP2 POP PUSH1 0x0 DUP3 SLT ISZERO PUSH2 0x975 JUMPI PUSH1 0x1 SWAP6 POP JUMPDEST PUSH2 0x97E DUP5 PUSH2 0xF13 JUMP JUMPDEST DUP1 PUSH2 0x989 JUMPI POP PUSH1 0x0 DUP2 SGT JUMPDEST ISZERO PUSH2 0x9C3 JUMPI PUSH2 0x997 DUP4 PUSH2 0xB87 JUMP JUMPDEST PUSH1 0x60 DUP9 ADD MSTORE PUSH1 0x0 DUP1 PUSH2 0x9AA DUP10 DUP5 DUP15 PUSH2 0xF1F JUMP JUMPDEST POP SWAP1 SWAP3 POP SWAP1 POP PUSH2 0x9BE DUP2 PUSH2 0x42F DUP7 DUP6 PUSH2 0xCC1 JUMP JUMPDEST SWAP4 POP POP POP JUMPDEST PUSH2 0x9D2 DUP4 PUSH2 0xFFFF AND DUP4 DUP10 PUSH2 0xCD7 JUMP JUMPDEST POP PUSH1 0x10 DUP6 PUSH1 0x1 PUSH1 0x1 PUSH1 0x70 SHL SUB NOT AND SWAP1 SHL SWAP5 POP POP POP POP POP PUSH2 0x90F JUMP JUMPDEST PUSH1 0x20 DUP8 ADD MLOAD PUSH1 0x1 PUSH1 0xF9 SHL SWAP1 DUP2 AND EQ DUP1 ISZERO PUSH2 0xA05 JUMPI POP DUP2 ISZERO JUMPDEST ISZERO PUSH2 0xA20 JUMPI PUSH1 0x20 DUP1 DUP9 ADD DUP1 MLOAD PUSH1 0xFD PUSH1 0xF8 SHL AND SWAP1 MSTORE PUSH1 0x1 SWAP1 DUP5 ADD MSTORE JUMPDEST POP POP DUP1 MLOAD PUSH1 0x20 SWAP1 SWAP2 ADD MLOAD SWAP1 SWAP7 SWAP1 SWAP6 POP SWAP4 POP POP POP POP JUMP JUMPDEST PUSH1 0x0 PUSH2 0xA40 PUSH2 0xB53 JUMP JUMPDEST PUSH1 0x1 PUSH1 0x1 PUSH1 0xA0 SHL SUB DUP4 AND PUSH1 0x0 DUP2 DUP2 MSTORE PUSH1 0x20 DUP4 DUP2 MSTORE PUSH1 0x40 DUP1 DUP4 KECCAK256 DUP9 MLOAD DUP2 SLOAD SWAP4 DUP11 ADD MLOAD DUP11 DUP5 ADD MLOAD PUSH1 0x60 DUP13 ADD MLOAD PUSH1 0x80 DUP14 ADD MLOAD PUSH1 0xA0 DUP15 ADD MLOAD PUSH5 0xFFFFFFFFFF NOT SWAP1 SWAP9 AND PUSH5 0xFFFFFFFFFF SWAP1 SWAP6 AND SWAP5 SWAP1 SWAP5 OR PUSH6 0xFF0000000000 NOT AND PUSH1 0x1 PUSH1 0x28 SHL PUSH1 0xF8 SWAP5 SWAP1 SWAP5 SHR SWAP4 SWAP1 SWAP4 MUL SWAP3 SWAP1 SWAP3 OR PUSH7 0xFF000000000000 NOT AND PUSH1 0x1 PUSH1 0x30 SHL PUSH1 0xFF SWAP1 SWAP3 AND SWAP2 SWAP1 SWAP2 MUL OR PUSH9 0xFFFF00000000000000 NOT AND PUSH1 0x1 PUSH1 0x38 SHL PUSH2 0xFFFF SWAP1 SWAP3 AND SWAP2 SWAP1 SWAP2 MUL OR PUSH27 0xFFFFFFFFFFFFFFFFFFFFFFFFFFFFFFFFFFFF000000000000000000 NOT AND PUSH1 0x1 PUSH1 0x48 SHL PUSH1 0x70 SWAP3 SWAP1 SWAP3 SHR SWAP2 SWAP1 SWAP2 MUL OR PUSH1 0xFF PUSH1 0xD8 SHL NOT AND PUSH1 0x1 PUSH1 0xD8 SHL SWAP4 ISZERO ISZERO SWAP4 SWAP1 SWAP4 MUL SWAP3 SWAP1 SWAP3 OR SWAP1 SWAP2 SSTORE MLOAD SWAP3 SWAP4 POP SWAP1 SWAP2 PUSH32 0x6BD4B121BCA854A191536A2CA891155C42EE2FB23F307FB34E8BC65CFCB5412E SWAP2 SWAP1 LOG2 POP POP POP JUMP JUMPDEST PUSH1 0x0 DUP1 PUSH2 0xB60 PUSH1 0x1 PUSH2 0xFE1 JUMP JUMPDEST SWAP3 SWAP2 POP POP JUMP JUMPDEST PUSH1 0x0 PUSH3 0x15180 DUP3 LT ISZERO PUSH2 0xB78 JUMPI PUSH1 0x0 DUP1 REVERT JUMPDEST PUSH3 0x15180 DUP3 JUMPDEST MOD SWAP1 SWAP2 SUB SWAP2 SWAP1 POP JUMP JUMPDEST PUSH2 0xB8F PUSH2 0x4435 JUMP JUMPDEST PUSH1 0x0 PUSH2 0xB9A DUP4 PUSH2 0xFCF JUMP JUMPDEST SWAP1 POP PUSH2 0xBA6 DUP4 DUP3 PUSH2 0xFFA JUMP JUMPDEST SWAP4 SWAP3 POP POP POP JUMP JUMPDEST PUSH1 0x0 DUP1 PUSH1 0x0 DUP1 PUSH2 0xBCA DUP9 DUP8 PUSH1 0x60 ADD MLOAD DUP8 PUSH1 0x60 ADD MLOAD PUSH1 0x40 ADD MLOAD PUSH2 0x103D JUMP JUMPDEST POP SWAP2 SWAP6 POP SWAP2 POP POP PUSH1 0x0 DUP2 SGT ISZERO PUSH2 0xBF8 JUMPI PUSH2 0xBEE DUP6 PUSH1 0x60 ADD MLOAD DUP7 PUSH1 0xC0 ADD MLOAD DUP4 DUP11 PUSH2 0x10F7 JUMP JUMPDEST SWAP1 SWAP4 POP SWAP2 POP PUSH2 0xBFD JUMP JUMPDEST PUSH1 0x0 SWAP3 POP JUMPDEST POP SWAP5 POP SWAP5 POP SWAP5 SWAP2 POP POP JUMP JUMPDEST PUSH1 0x0 DUP1 PUSH1 0x0 PUSH2 0xC33 DUP8 DUP7 PUSH1 0x60 ADD MLOAD PUSH2 0xFFFF AND DUP8 PUSH1 0x0 ADD MLOAD PUSH5 0xFFFFFFFFFF AND DUP10 DUP9 PUSH1 0x60 ADD MLOAD PUSH1 0x1 PUSH2 0x116B JUMP JUMPDEST PUSH1 0x20 DUP8 ADD MLOAD SWAP2 SWAP4 POP SWAP2 POP PUSH1 0x1 PUSH1 0xF8 SHL SWAP1 DUP2 AND EQ DUP2 DUP1 ISZERO PUSH2 0xC51 JUMPI POP DUP1 ISZERO JUMPDEST ISZERO PUSH2 0xC7A JUMPI PUSH1 0x20 DUP7 DUP2 ADD DUP1 MLOAD PUSH1 0x1 PUSH1 0xF8 SHL OR PUSH1 0x1 PUSH1 0x1 PUSH1 0xF8 SHL SUB NOT AND SWAP1 MSTORE PUSH1 0x1 SWAP1 DUP7 ADD MSTORE PUSH2 0xCA0 JUMP JUMPDEST DUP2 ISZERO DUP1 ISZERO PUSH2 0xC85 JUMPI POP DUP1 JUMPDEST ISZERO PUSH2 0xCA0 JUMPI PUSH1 0x20 DUP1 DUP8 ADD DUP1 MLOAD PUSH1 0x7F PUSH1 0xF9 SHL AND SWAP1 MSTORE PUSH1 0x1 SWAP1 DUP7 ADD MSTORE JUMPDEST PUSH1 0x60 DUP6 ADD MLOAD PUSH1 0x40 ADD MLOAD PUSH2 0xCB3 SWAP1 DUP5 PUSH2 0x119B JUMP JUMPDEST SWAP4 POP POP POP POP JUMPDEST SWAP5 SWAP4 POP POP POP POP JUMP JUMPDEST DUP2 DUP2 ADD DUP3 DUP2 SLT ISZERO PUSH1 0x0 DUP4 SLT ISZERO EQ PUSH2 0xB60 JUMPI PUSH1 0x0 DUP1 REVERT JUMPDEST PUSH2 0xCDF PUSH2 0x4454 JUMP JUMPDEST PUSH1 0x0 PUSH2 0xCEA DUP6 PUSH2 0x11BD JUMP JUMPDEST SWAP1 POP PUSH2 0xD18 PUSH2 0xD10 PUSH2 0xD09 DUP7 DUP7 PUSH1 0xA0 ADD MLOAD PUSH2 0x1320 SWAP1 SWAP2 SWAP1 PUSH4 0xFFFFFFFF AND JUMP JUMPDEST DUP4 SWAP1 PUSH2 0x134C JUMP JUMPDEST DUP5 MLOAD SWAP1 PUSH2 0xCC1 JUMP JUMPDEST SWAP1 SWAP3 MSTORE POP SWAP3 SWAP2 POP POP JUMP JUMPDEST PUSH1 0x60 PUSH2 0xD2E DUP4 DUP4 PUSH2 0x1393 JUMP JUMPDEST POP SWAP4 SWAP3 POP POP POP JUMP JUMPDEST PUSH1 0x0 PUSH1 0xF0 DUP5 SWAP1 SHR PUSH2 0x3FFF AND PUSH2 0xD4A DUP2 PUSH2 0xFCF JUMP JUMPDEST PUSH1 0xA0 DUP9 ADD DUP2 SWAP1 MSTORE DUP7 MLOAD PUSH1 0x0 SWAP2 DUP3 SWAP2 PUSH2 0xD63 SWAP2 DUP10 SWAP1 PUSH2 0xECE JUMP JUMPDEST SWAP2 POP SWAP2 POP PUSH2 0xD70 DUP8 PUSH2 0xF13 JUMP JUMPDEST DUP1 PUSH2 0xD7B JUMPI POP PUSH1 0x0 DUP2 SGT JUMPDEST ISZERO PUSH2 0xDE1 JUMPI PUSH2 0xD89 DUP4 PUSH2 0xB87 JUMP JUMPDEST PUSH1 0x60 DUP11 ADD MSTORE PUSH1 0x0 DUP1 DUP1 PUSH2 0xD9D DUP13 DUP6 DUP11 PUSH2 0xF1F JUMP JUMPDEST SWAP2 SWAP5 POP SWAP3 POP SWAP1 POP PUSH2 0xDB2 DUP3 PUSH2 0x42F DUP8 DUP7 PUSH2 0xCC1 JUMP JUMPDEST SWAP5 POP DUP9 ISZERO PUSH2 0xDDD JUMPI PUSH1 0x60 DUP13 ADD MLOAD PUSH2 0x120 DUP13 ADD MSTORE PUSH1 0x1 PUSH1 0x1 PUSH1 0xD0 SHL SUB NOT DUP2 AND PUSH1 0xA0 DUP13 ADD MSTORE PUSH1 0x80 DUP12 ADD DUP3 SWAP1 MSTORE JUMPDEST POP POP POP JUMPDEST POP SWAP2 POP POP JUMPDEST SWAP6 SWAP5 POP POP POP POP POP JUMP JUMPDEST PUSH2 0xDF7 PUSH2 0x4435 JUMP JUMPDEST PUSH1 0x0 PUSH2 0xE03 DUP4 TIMESTAMP PUSH2 0xE10 JUMP JUMPDEST POP SWAP1 POP PUSH2 0xBA6 DUP4 DUP3 PUSH2 0xFFA JUMP JUMPDEST PUSH2 0xE18 PUSH2 0x4483 JUMP JUMPDEST PUSH2 0xE20 PUSH2 0x44A4 JUMP JUMPDEST PUSH2 0xE29 DUP5 PUSH2 0x13B4 JUMP JUMPDEST SWAP1 POP DUP3 DUP2 PUSH1 0x0 ADD MLOAD LT ISZERO PUSH2 0xE5A JUMPI PUSH1 0x0 PUSH2 0xE42 DUP6 PUSH2 0x147C JUMP JUMPDEST SWAP1 POP PUSH2 0xE50 DUP6 DUP4 DUP4 DUP8 PUSH2 0x14F7 JUMP JUMPDEST POP SWAP2 POP PUSH2 0xE67 SWAP1 POP JUMP JUMPDEST DUP1 MLOAD DUP4 EQ PUSH2 0xE67 JUMPI PUSH1 0x0 DUP1 REVERT JUMPDEST PUSH1 0x40 MLOAD DUP1 PUSH1 0x60 ADD PUSH1 0x40 MSTORE DUP1 PUSH2 0xE95 PUSH2 0xE90 DUP5 PUSH1 0xA0 ADD MLOAD DUP6 PUSH1 0xC0 ADD MLOAD PUSH2 0x159B SWAP1 SWAP2 SWAP1 PUSH4 0xFFFFFFFF AND JUMP JUMPDEST PUSH2 0x15C2 JUMP JUMPDEST DUP2 MSTORE PUSH1 0x20 ADD PUSH2 0xEB8 PUSH2 0xE90 DUP5 PUSH1 0xA0 ADD MLOAD DUP6 PUSH1 0xE0 ADD MLOAD PUSH2 0x159B SWAP1 SWAP2 SWAP1 PUSH4 0xFFFFFFFF AND JUMP JUMPDEST DUP2 MSTORE PUSH1 0x20 ADD DUP3 PUSH1 0x60 ADD MLOAD DUP2 MSTORE POP SWAP2 POP SWAP3 POP SWAP3 SWAP1 POP JUMP JUMPDEST PUSH1 0x0 DUP1 PUSH1 0x1 PUSH1 0xFE SHL DUP5 DUP2 AND EQ ISZERO PUSH2 0xF06 JUMPI PUSH1 0xF0 DUP5 SWAP1 SHR PUSH2 0x3FFF AND PUSH1 0x0 DUP1 PUSH2 0xEF6 DUP9 DUP5 DUP9 PUSH2 0x103D JUMP JUMPDEST POP SWAP2 SWAP7 POP SWAP5 POP PUSH2 0x850 SWAP4 POP POP POP POP JUMP JUMPDEST POP PUSH1 0x0 SWAP5 DUP6 SWAP5 POP SWAP3 POP POP POP JUMP JUMPDEST PUSH1 0x1 PUSH1 0xFF SHL SWAP1 DUP2 AND EQ SWAP1 JUMP JUMPDEST PUSH1 0x0 DUP1 PUSH1 0x0 DUP6 PUSH1 0x80 ADD MLOAD MLOAD DUP7 PUSH1 0x40 ADD MLOAD LT DUP1 ISZERO PUSH2 0xF6A JUMPI POP DUP6 PUSH1 0x60 ADD MLOAD PUSH1 0x0 ADD MLOAD PUSH2 0xFFFF AND DUP7 PUSH1 0x80 ADD MLOAD DUP8 PUSH1 0x40 ADD MLOAD DUP2 MLOAD DUP2 LT PUSH2 0xF58 JUMPI INVALID JUMPDEST PUSH1 0x20 MUL PUSH1 0x20 ADD ADD MLOAD PUSH1 0x0 ADD MLOAD PUSH2 0xFFFF AND EQ JUMPDEST ISZERO PUSH2 0xF93 JUMPI PUSH2 0xF87 DUP7 PUSH1 0x80 ADD MLOAD DUP8 PUSH1 0x60 ADD MLOAD DUP7 DUP10 PUSH1 0x40 ADD MLOAD PUSH2 0x15DC JUMP JUMPDEST PUSH1 0x40 DUP9 ADD MSTORE SWAP3 POP PUSH2 0xF98 JUMP JUMPDEST PUSH1 0x0 SWAP3 POP JUMPDEST PUSH1 0x0 DUP6 SGT ISZERO PUSH2 0xFBF JUMPI PUSH2 0xFB5 DUP7 PUSH1 0x60 ADD MLOAD DUP8 PUSH1 0xC0 ADD MLOAD DUP8 DUP8 PUSH2 0x10F7 JUMP JUMPDEST SWAP1 SWAP3 POP SWAP1 POP PUSH2 0xFC6 JUMP JUMPDEST POP PUSH1 0x0 SWAP1 POP DUP1 JUMPDEST SWAP4 POP SWAP4 POP SWAP4 SWAP1 POP JUMP JUMPDEST PUSH2 0xFD7 PUSH2 0x4483 JUMP JUMPDEST PUSH2 0xB60 DUP3 TIMESTAMP PUSH2 0x1687 JUMP JUMPDEST PUSH1 0x0 PUSH3 0xF4240 DUP3 PUSH1 0x26 DUP2 GT ISZERO PUSH2 0xFF3 JUMPI INVALID JUMPDEST ADD SWAP3 SWAP2 POP POP JUMP JUMPDEST PUSH2 0x1002 PUSH2 0x4435 JUMP JUMPDEST PUSH1 0x0 PUSH2 0x1011 DUP5 PUSH2 0xFFFF AND PUSH2 0x1748 JUMP JUMPDEST PUSH1 0x40 DUP1 MLOAD PUSH1 0x80 DUP2 ADD DUP3 MSTORE PUSH2 0xFFFF SWAP7 SWAP1 SWAP7 AND DUP7 MSTORE PUSH1 0xFF DUP3 AND PUSH1 0x20 DUP8 ADD MSTORE DUP6 ADD SWAP4 SWAP1 SWAP4 MSTORE POP POP PUSH1 0x60 DUP3 ADD MSTORE SWAP1 JUMP JUMPDEST PUSH1 0x0 DUP1 PUSH1 0x0 DUP1 PUSH1 0x0 PUSH2 0x104D PUSH2 0x1765 JUMP JUMPDEST PUSH1 0x1 PUSH1 0x1 PUSH1 0xA0 SHL SUB DUP10 AND PUSH1 0x0 SWAP1 DUP2 MSTORE PUSH1 0x20 DUP3 DUP2 MSTORE PUSH1 0x40 DUP1 DUP4 KECCAK256 PUSH2 0xFFFF DUP13 AND DUP5 MSTORE SWAP1 SWAP2 MSTORE SWAP1 KECCAK256 DUP1 SLOAD PUSH1 0x1 PUSH1 0x1 PUSH1 0x50 SHL SUB DUP2 AND SWAP7 POP PUSH1 0x1 PUSH1 0x50 SHL SWAP1 DIV PUSH4 0xFFFFFFFF AND SWAP5 POP SWAP1 SWAP2 POP DUP4 ISZERO PUSH2 0x10BA JUMPI DUP1 SLOAD PUSH2 0x10B3 SWAP1 PUSH1 0x1 PUSH1 0x70 SHL SWAP1 DIV PUSH7 0xFFFFFFFFFFFFFF AND PUSH2 0x1772 JUMP JUMPDEST SWAP3 POP PUSH2 0x10CF JUMP JUMPDEST DUP1 SLOAD PUSH1 0x1 PUSH1 0x70 SHL SWAP1 DIV PUSH7 0xFFFFFFFFFFFFFF AND SWAP3 POP JUMPDEST DUP1 SLOAD PUSH2 0x10EA SWAP1 DUP9 SWAP1 PUSH1 0x1 PUSH1 0xA8 SHL SWAP1 DIV PUSH1 0xA SWAP1 DUP2 SIGNEXTEND SWAP1 SIGNEXTEND PUSH2 0x1780 JUMP JUMPDEST SWAP6 POP POP POP SWAP4 POP SWAP4 POP SWAP4 POP SWAP4 JUMP JUMPDEST DUP4 MLOAD PUSH1 0x0 SWAP1 DUP2 SWAP1 PUSH2 0x1109 SWAP1 DUP7 SWAP1 PUSH2 0x17AE JUMP JUMPDEST DUP6 DUP6 MSTORE PUSH1 0x0 PUSH2 0x1118 DUP7 DUP6 PUSH2 0x184A JUMP JUMPDEST SWAP1 POP PUSH1 0x0 PUSH2 0x1157 DUP8 PUSH1 0x40 ADD MLOAD PUSH2 0x1151 PUSH1 0x64 PUSH2 0x1151 DUP12 PUSH1 0xA0 ADD MLOAD PUSH1 0x3 PUSH1 0xFF AND PUSH1 0x6 DUP2 LT PUSH2 0x1140 JUMPI INVALID JUMPDEST BYTE PUSH2 0x114B DUP13 DUP10 PUSH2 0x1902 JUMP JUMPDEST SWAP1 PUSH2 0x1902 JUMP JUMPDEST SWAP1 PUSH2 0x1950 JUMP JUMPDEST PUSH1 0xA0 SWAP8 SWAP1 SWAP8 ADD MLOAD SWAP7 SWAP9 SWAP7 SWAP8 POP POP POP POP POP POP POP JUMP JUMPDEST PUSH1 0x0 DUP1 PUSH1 0x0 PUSH2 0x117A DUP10 DUP10 PUSH2 0x1981 JUMP JUMPDEST SWAP1 POP PUSH2 0x118B DUP10 DUP10 DUP10 DUP10 DUP10 DUP10 DUP8 PUSH2 0x19B6 JUMP JUMPDEST SWAP3 POP SWAP3 POP POP SWAP7 POP SWAP7 SWAP5 POP POP POP POP POP JUMP JUMPDEST DUP2 MLOAD PUSH1 0x0 SWAP1 PUSH2 0xBA6 SWAP1 PUSH2 0x1151 DUP5 PUSH15 0xC097CE7BC90715B34B9F1000000000 PUSH2 0x1902 JUMP JUMPDEST PUSH2 0x11C5 PUSH2 0x4454 JUMP JUMPDEST PUSH1 0x0 PUSH2 0x11CF PUSH2 0x1A34 JUMP JUMPDEST PUSH1 0x0 DUP5 DUP2 MSTORE PUSH1 0x20 DUP3 SWAP1 MSTORE PUSH1 0x40 DUP2 KECCAK256 SWAP2 SWAP3 POP DUP1 PUSH1 0x1 DUP7 EQ ISZERO PUSH2 0x11FC JUMPI POP PUSH8 0xDE0B6B3A7640000 SWAP1 POP DUP1 PUSH2 0x12BF JUMP JUMPDEST DUP3 SLOAD PUSH1 0x40 DUP1 MLOAD PUSH4 0x3FABE5A3 PUSH1 0xE2 SHL DUP2 MSTORE SWAP1 MLOAD PUSH1 0x1 PUSH1 0x1 PUSH1 0xA0 SHL SUB SWAP1 SWAP3 AND SWAP2 PUSH4 0xFEAF968C SWAP2 PUSH1 0x4 DUP1 DUP3 ADD SWAP3 PUSH1 0xA0 SWAP3 SWAP1 SWAP2 SWAP1 DUP3 SWAP1 SUB ADD DUP2 DUP7 DUP1 EXTCODESIZE ISZERO DUP1 ISZERO PUSH2 0x1240 JUMPI PUSH1 0x0 DUP1 REVERT JUMPDEST POP GAS STATICCALL ISZERO DUP1 ISZERO PUSH2 0x1254 JUMPI RETURNDATASIZE PUSH1 0x0 DUP1 RETURNDATACOPY RETURNDATASIZE PUSH1 0x0 REVERT JUMPDEST POP POP POP POP PUSH1 0x40 MLOAD RETURNDATASIZE PUSH1 0x1F NOT PUSH1 0x1F DUP3 ADD AND DUP3 ADD DUP1 PUSH1 0x40 MSTORE POP DUP2 ADD SWAP1 PUSH2 0x1278 SWAP2 SWAP1 PUSH2 0x47D0 JUMP JUMPDEST POP SWAP2 SWAP4 POP POP PUSH1 0x0 DUP4 SGT SWAP2 POP PUSH2 0x128E SWAP1 POP JUMPI PUSH1 0x0 DUP1 REVERT JUMPDEST DUP3 SLOAD PUSH1 0xFF PUSH1 0x1 PUSH1 0xA0 SHL DUP3 DIV DUP2 AND PUSH1 0xA EXP SWAP4 POP PUSH1 0x1 PUSH1 0xA8 SHL SWAP1 SWAP2 DIV AND ISZERO PUSH2 0x12BF JUMPI PUSH2 0x12BC DUP2 PUSH2 0x1151 DUP5 DUP1 PUSH2 0x1902 JUMP JUMPDEST SWAP1 POP JUMPDEST DUP3 SLOAD PUSH1 0x1 PUSH1 0xB0 SHL SWAP1 DIV PUSH1 0xFF AND PUSH1 0x96 DUP2 SGT ISZERO PUSH2 0x12DF JUMPI PUSH1 0x95 NOT ADD PUSH1 0xA MUL PUSH1 0x96 ADD JUMPDEST PUSH1 0x40 DUP1 MLOAD PUSH1 0xA0 DUP2 ADD DUP3 MSTORE SWAP4 DUP5 MSTORE PUSH1 0x20 DUP5 ADD SWAP3 SWAP1 SWAP3 MSTORE SWAP1 DUP3 ADD MSTORE SWAP1 SLOAD PUSH1 0xFF PUSH1 0x1 PUSH1 0xB8 SHL DUP3 DIV DUP2 AND PUSH1 0x60 DUP5 ADD MSTORE PUSH1 0x1 PUSH1 0xC0 SHL SWAP1 SWAP2 DIV AND PUSH1 0x80 DUP3 ADD MSTORE SWAP2 POP POP SWAP2 SWAP1 POP JUMP JUMPDEST PUSH1 0x0 PUSH2 0xBA6 PUSH15 0xC097CE7BC90715B34B9F1000000000 PUSH2 0x1151 DUP6 PUSH1 0x0 ADD MLOAD DUP6 PUSH2 0x1902 SWAP1 SWAP2 SWAP1 PUSH4 0xFFFFFFFF AND JUMP JUMPDEST PUSH1 0x0 DUP1 PUSH1 0x0 DUP4 SGT PUSH2 0x1361 JUMPI DUP4 PUSH1 0x40 ADD MLOAD PUSH2 0x1367 JUMP JUMPDEST DUP4 PUSH1 0x60 ADD MLOAD JUMPDEST SWAP1 POP PUSH1 0x0 PUSH2 0xDE6 DUP6 PUSH1 0x0 ADD MLOAD PUSH2 0x1151 PUSH1 0x64 PUSH2 0x1151 DUP7 PUSH2 0x114B DUP12 PUSH1 0x20 ADD MLOAD DUP12 PUSH2 0x1902 SWAP1 SWAP2 SWAP1 PUSH4 0xFFFFFFFF AND JUMP JUMPDEST PUSH1 0x60 DUP1 PUSH2 0x13A0 DUP5 DUP5 PUSH2 0x1A41 JUMP JUMPDEST SWAP2 POP PUSH2 0x13AB DUP3 PUSH2 0x1B63 JUMP JUMPDEST SWAP1 POP SWAP3 POP SWAP3 SWAP1 POP JUMP JUMPDEST PUSH2 0x13BC PUSH2 0x44A4 JUMP JUMPDEST PUSH1 0x0 PUSH2 0x13C6 PUSH2 0x1D24 JUMP JUMPDEST PUSH2 0xFFFF SWAP4 DUP5 AND PUSH1 0x0 SWAP1 DUP2 MSTORE PUSH1 0x20 SWAP2 DUP3 MSTORE PUSH1 0x40 SWAP1 DUP2 SWAP1 KECCAK256 DUP1 SLOAD PUSH5 0xFFFFFFFFFF DUP2 AND DUP7 MSTORE PUSH1 0x1 PUSH1 0x28 SHL DUP2 DIV PUSH1 0x1 PUSH1 0x1 PUSH1 0x58 SHL SUB SWAP1 DUP2 AND SWAP5 DUP8 ADD SWAP5 SWAP1 SWAP5 MSTORE PUSH1 0x1 DUP3 ADD SLOAD DUP5 AND SWAP3 DUP7 ADD SWAP3 SWAP1 SWAP3 MSTORE PUSH1 0x1 PUSH1 0xD8 SHL DUP3 DIV PUSH4 0xFFFFFFFF AND PUSH1 0x60 DUP7 ADD MSTORE PUSH1 0x1 PUSH1 0x80 SHL SWAP1 SWAP2 DIV SWAP1 SWAP2 AND PUSH1 0x80 DUP5 ADD MSTORE PUSH1 0x2 ADD SLOAD PUSH1 0x1 PUSH1 0x1 PUSH1 0x50 SHL SUB DUP1 DUP3 AND PUSH1 0xA0 DUP6 ADD MSTORE PUSH1 0x1 PUSH1 0x50 SHL DUP3 DIV DUP2 AND PUSH1 0xC0 DUP6 ADD MSTORE PUSH1 0x1 PUSH1 0xA0 SHL DUP3 DIV AND PUSH1 0xE0 DUP5 ADD MSTORE PUSH1 0x1 PUSH1 0xF0 SHL SWAP1 DIV PUSH1 0xFF AND PUSH2 0x12C MUL SWAP1 SWAP3 AND PUSH2 0x100 DUP3 ADD MSTORE SWAP2 SWAP1 POP JUMP JUMPDEST PUSH1 0x0 DUP1 PUSH2 0x1488 DUP4 PUSH2 0x1D31 JUMP JUMPDEST PUSH1 0x1 PUSH1 0x1 PUSH1 0xA0 SHL SUB AND PUSH4 0xA77C05B8 PUSH1 0x40 MLOAD DUP2 PUSH4 0xFFFFFFFF AND PUSH1 0xE0 SHL DUP2 MSTORE PUSH1 0x4 ADD PUSH1 0x40 DUP1 MLOAD DUP1 DUP4 SUB DUP2 DUP7 DUP1 EXTCODESIZE ISZERO DUP1 ISZERO PUSH2 0x14BF JUMPI PUSH1 0x0 DUP1 REVERT JUMPDEST POP GAS STATICCALL ISZERO DUP1 ISZERO PUSH2 0x14D3 JUMPI RETURNDATASIZE PUSH1 0x0 DUP1 RETURNDATACOPY RETURNDATASIZE PUSH1 0x0 REVERT JUMPDEST POP POP POP POP PUSH1 0x40 MLOAD RETURNDATASIZE PUSH1 0x1F NOT PUSH1 0x1F DUP3 ADD AND DUP3 ADD DUP1 PUSH1 0x40 MSTORE POP DUP2 ADD SWAP1 PUSH2 0xCB9 SWAP2 SWAP1 PUSH2 0x47AD JUMP JUMPDEST PUSH2 0x14FF PUSH2 0x44A4 JUMP JUMPDEST PUSH1 0x0 DUP1 PUSH1 0x0 PUSH2 0x150F DUP9 DUP7 DUP10 PUSH2 0x1D61 JUMP JUMPDEST PUSH1 0xC0 DUP12 ADD SWAP3 SWAP1 SWAP3 MSTORE PUSH1 0xE0 DUP11 ADD SWAP3 SWAP1 SWAP3 MSTORE PUSH1 0x20 DUP10 ADD MLOAD SWAP2 SWAP4 POP SWAP2 POP PUSH2 0x1533 SWAP1 DUP4 PUSH2 0x1E72 JUMP JUMPDEST PUSH1 0x20 DUP9 ADD MSTORE PUSH1 0x80 DUP8 ADD MLOAD PUSH1 0x0 SWAP1 ISZERO PUSH2 0x1561 JUMPI PUSH1 0x80 DUP9 ADD MLOAD PUSH2 0x155E SWAP1 PUSH2 0x1558 DUP10 DUP3 PUSH2 0x1E84 JUMP JUMPDEST SWAP1 PUSH2 0x1E99 JUMP JUMPDEST SWAP1 POP JUMPDEST PUSH2 0x1581 PUSH2 0x1576 PUSH8 0xDE0B6B3A7640000 DUP4 PUSH2 0x1E72 JUMP JUMPDEST PUSH1 0xA0 DUP11 ADD MLOAD SWAP1 PUSH2 0x1EB6 JUMP JUMPDEST PUSH1 0xA0 DUP10 ADD MSTORE POP POP PUSH1 0x80 DUP7 ADD SWAP5 SWAP1 SWAP5 MSTORE POP POP DUP3 MSTORE SWAP1 SWAP3 SWAP1 SWAP2 POP JUMP JUMPDEST PUSH1 0x0 DUP3 PUSH2 0x15AA JUMPI POP PUSH1 0x0 PUSH2 0xB60 JUMP JUMPDEST DUP3 DUP3 MUL DUP3 DUP5 DUP3 DUP2 PUSH2 0x15B7 JUMPI INVALID JUMPDEST DIV EQ PUSH2 0xBA6 JUMPI PUSH1 0x0 DUP1 REVERT JUMPDEST PUSH1 0x0 PUSH1 0x1 PUSH1 0x1 PUSH1 0xFF SHL SUB DUP3 GT ISZERO PUSH2 0x15D8 JUMPI PUSH1 0x0 DUP1 REVERT JUMPDEST POP SWAP1 JUMP JUMPDEST PUSH1 0x0 DUP1 DUP1 DUP1 DUP5 JUMPDEST DUP9 MLOAD DUP2 LT ISZERO PUSH2 0x165F JUMPI PUSH1 0x0 DUP10 DUP3 DUP2 MLOAD DUP2 LT PUSH2 0x15FA JUMPI INVALID JUMPDEST PUSH1 0x20 MUL PUSH1 0x20 ADD ADD MLOAD SWAP1 POP PUSH1 0x1 PUSH1 0xFF AND DUP2 PUSH1 0x40 ADD MLOAD EQ PUSH2 0x1619 JUMPI POP PUSH2 0x1657 JUMP JUMPDEST DUP9 MLOAD DUP2 MLOAD PUSH2 0xFFFF SWAP1 DUP2 AND SWAP2 AND EQ PUSH2 0x1630 JUMPI POP PUSH2 0x165F JUMP JUMPDEST PUSH1 0x0 PUSH2 0x1646 DUP11 DUP4 PUSH1 0x60 ADD MLOAD DUP5 PUSH1 0x20 ADD MLOAD DUP13 PUSH2 0x1ED3 JUMP JUMPDEST SWAP1 POP PUSH2 0x1652 DUP5 DUP3 PUSH2 0xCC1 JUMP JUMPDEST SWAP4 POP POP POP JUMPDEST PUSH1 0x1 ADD PUSH2 0x15E3 JUMP JUMPDEST PUSH1 0x40 DUP9 ADD MLOAD PUSH2 0x1679 SWAP1 PUSH2 0x1672 SWAP1 DUP5 PUSH2 0x119B JUMP JUMPDEST DUP5 SWAP1 PUSH2 0xCC1 JUMP JUMPDEST SWAP10 SWAP1 SWAP9 POP SWAP7 POP POP POP POP POP POP POP JUMP JUMPDEST PUSH2 0x168F PUSH2 0x4483 JUMP JUMPDEST PUSH1 0x0 PUSH2 0x169A DUP5 PUSH2 0x13B4 JUMP JUMPDEST SWAP1 POP DUP3 DUP2 PUSH1 0x0 ADD MLOAD LT ISZERO PUSH2 0x16D9 JUMPI PUSH1 0x0 DUP1 PUSH2 0x16B4 DUP7 PUSH2 0x1F23 JUMP JUMPDEST SWAP1 POP PUSH2 0x16C2 DUP7 DUP5 DUP4 DUP9 PUSH2 0x14F7 JUMP JUMPDEST SWAP1 SWAP4 POP SWAP2 POP PUSH2 0x16D2 DUP7 DUP4 DUP6 PUSH2 0x1F7C JUMP JUMPDEST POP POP PUSH2 0x16E6 JUMP JUMPDEST DUP1 MLOAD DUP4 EQ PUSH2 0x16E6 JUMPI PUSH1 0x0 DUP1 REVERT JUMPDEST PUSH1 0x40 MLOAD DUP1 PUSH1 0x60 ADD PUSH1 0x40 MSTORE DUP1 PUSH2 0x170F PUSH2 0xE90 DUP5 PUSH1 0xA0 ADD MLOAD DUP6 PUSH1 0xC0 ADD MLOAD PUSH2 0x159B SWAP1 SWAP2 SWAP1 PUSH4 0xFFFFFFFF AND JUMP JUMPDEST DUP2 MSTORE PUSH1 0x20 ADD PUSH2 0x1732 PUSH2 0xE90 DUP5 PUSH1 0xA0 ADD MLOAD DUP6 PUSH1 0xE0 ADD MLOAD PUSH2 0x159B SWAP1 SWAP2 SWAP1 PUSH4 0xFFFFFFFF AND JUMP JUMPDEST DUP2 MSTORE PUSH1 0x20 ADD DUP3 PUSH1 0x60 ADD MLOAD DUP2 MSTORE POP SWAP2 POP POP SWAP3 SWAP2 POP POP JUMP JUMPDEST PUSH1 0x0 DUP1 PUSH2 0x1753 PUSH2 0x21B0 JUMP JUMPDEST PUSH1 0x0 SWAP4 DUP5 MSTORE PUSH1 0x20 MSTORE POP POP PUSH1 0x40 SWAP1 KECCAK256 SLOAD SWAP1 JUMP JUMPDEST PUSH1 0x0 DUP1 PUSH2 0xB60 PUSH1 0x6 PUSH2 0xFE1 JUMP JUMPDEST PUSH1 0x8 DUP2 SWAP1 SHR PUSH1 0xFF SWAP1 SWAP2 AND SHL SWAP1 JUMP JUMPDEST PUSH1 0x0 DUP1 DUP3 SLT PUSH2 0x1790 JUMPI POP DUP1 PUSH2 0xB60 JUMP JUMPDEST DUP3 MLOAD PUSH1 0x20 DUP5 ADD MLOAD PUSH2 0x17A7 SWAP2 SWAP1 PUSH2 0x1151 SWAP1 DUP6 SWAP1 PUSH2 0x1902 JUMP JUMPDEST SWAP1 POP PUSH2 0xB60 JUMP JUMPDEST PUSH2 0x17BB DUP2 PUSH2 0xFFFF AND PUSH2 0x21BD JUMP JUMPDEST PUSH1 0x1 PUSH1 0x1 PUSH1 0xA0 SHL SUB AND PUSH1 0xC0 DUP4 ADD DUP2 SWAP1 MSTORE PUSH1 0x0 SWAP1 DUP2 SWAP1 DUP2 SWAP1 PUSH2 0x17DB SWAP1 PUSH2 0x21E3 JUMP JUMPDEST SWAP5 POP SWAP5 POP SWAP5 POP POP POP PUSH1 0x0 PUSH2 0x17F2 DUP7 PUSH1 0xC0 ADD MLOAD PUSH2 0x224C JUMP JUMPDEST POP POP PUSH1 0x80 DUP8 ADD DUP6 SWAP1 MSTORE PUSH1 0x40 DUP8 ADD DUP2 SWAP1 MSTORE PUSH1 0x1 PUSH1 0x1 PUSH1 0xD8 SHL SUB NOT DUP4 AND PUSH1 0xA0 DUP9 ADD MSTORE PUSH1 0xC0 DUP8 ADD MLOAD SWAP1 SWAP2 POP PUSH2 0x1826 SWAP1 DUP5 PUSH1 0x0 PUSH2 0x22B6 JUMP JUMPDEST PUSH1 0x20 DUP8 ADD MSTORE PUSH1 0xC0 DUP7 ADD MLOAD PUSH2 0x183A SWAP1 DUP7 PUSH2 0x2349 JUMP JUMPDEST PUSH1 0x60 SWAP1 SWAP7 ADD SWAP6 SWAP1 SWAP6 MSTORE POP POP POP POP POP JUMP JUMPDEST PUSH1 0x0 DUP1 PUSH2 0x1856 DUP5 PUSH2 0x23A2 JUMP JUMPDEST SWAP1 POP DUP3 DUP2 GT PUSH2 0x1866 JUMPI PUSH1 0x1 DUP2 SUB SWAP3 POP JUMPDEST POP PUSH1 0x0 PUSH2 0x1873 DUP5 DUP5 PUSH2 0x23CC JUMP JUMPDEST POP SWAP1 POP PUSH1 0x0 PUSH2 0x18A1 DUP6 PUSH1 0xC0 ADD MLOAD DUP7 PUSH1 0x0 ADD MLOAD PUSH1 0x0 ADD MLOAD PUSH2 0xFFFF AND DUP8 PUSH1 0x80 ADD MLOAD DUP8 DUP10 PUSH1 0x0 ADD MLOAD PUSH1 0x20 ADD MLOAD PUSH2 0x251A JUMP JUMPDEST SWAP1 POP PUSH1 0x0 DUP2 ISZERO PUSH2 0x18D3 JUMPI PUSH1 0xC0 DUP7 ADD MLOAD DUP7 MLOAD DUP1 MLOAD PUSH1 0x80 DUP10 ADD MLOAD PUSH2 0x18CF SWAP4 SWAP3 PUSH2 0xFFFF SWAP1 SWAP3 AND SWAP2 DUP10 SWAP1 PUSH1 0x0 DUP9 PUSH2 0x19B6 JUMP JUMPDEST POP SWAP1 POP JUMPDEST PUSH1 0x60 DUP7 ADD MLOAD DUP7 MLOAD PUSH1 0x40 ADD MLOAD PUSH2 0x18F8 SWAP2 SWAP1 PUSH2 0x42F SWAP1 PUSH2 0x18F1 SWAP1 DUP6 PUSH2 0x119B JUMP JUMPDEST DUP7 SWAP1 PUSH2 0xCC1 JUMP JUMPDEST SWAP7 SWAP6 POP POP POP POP POP POP JUMP JUMPDEST DUP2 DUP2 MUL PUSH1 0x0 NOT DUP4 EQ ISZERO PUSH2 0x1932 JUMPI DUP2 ISZERO DUP1 PUSH2 0x1924 JUMPI POP DUP3 DUP3 DUP3 DUP2 PUSH2 0x1921 JUMPI INVALID JUMPDEST SDIV EQ JUMPDEST PUSH2 0x192D JUMPI PUSH1 0x0 DUP1 REVERT JUMPDEST PUSH2 0xB60 JUMP JUMPDEST DUP3 ISZERO DUP1 PUSH2 0x1947 JUMPI POP DUP2 DUP4 DUP3 DUP2 PUSH2 0x1944 JUMPI INVALID JUMPDEST SDIV EQ JUMPDEST PUSH2 0xB60 JUMPI PUSH1 0x0 DUP1 REVERT JUMPDEST PUSH1 0x0 DUP2 PUSH1 0x0 NOT EQ DUP1 ISZERO PUSH2 0x1966 JUMPI POP PUSH1 0x1 PUSH1 0xFF SHL DUP4 EQ JUMPDEST ISZERO PUSH2 0x1970 JUMPI PUSH1 0x0 DUP1 REVERT JUMPDEST DUP2 DUP4 DUP2 PUSH2 0x1979 JUMPI INVALID JUMPDEST SDIV SWAP4 SWAP3 POP POP POP JUMP JUMPDEST PUSH1 0x0 DUP1 PUSH2 0x198C PUSH2 0x25C6 JUMP JUMPDEST PUSH1 0x1 PUSH1 0x1 PUSH1 0xA0 SHL SUB DUP6 AND PUSH1 0x0 SWAP1 DUP2 MSTORE PUSH1 0x20 SWAP2 DUP3 MSTORE PUSH1 0x40 DUP1 DUP3 KECCAK256 DUP7 DUP4 MSTORE SWAP1 SWAP3 MSTORE KECCAK256 SLOAD SWAP2 POP POP SWAP3 SWAP2 POP POP JUMP JUMPDEST PUSH1 0x0 DUP1 PUSH1 0x0 PUSH2 0x19C4 DUP5 PUSH2 0x25D3 JUMP JUMPDEST SWAP1 POP JUMPDEST DUP1 ISZERO PUSH2 0x1A27 JUMPI PUSH1 0x0 PUSH2 0x19D9 DUP10 DUP4 PUSH2 0x25F8 JUMP JUMPDEST SWAP1 POP PUSH1 0x0 PUSH2 0x19EB DUP13 DUP13 DUP5 DUP13 DUP13 DUP13 PUSH2 0x26AB JUMP JUMPDEST SWAP1 POP PUSH2 0x19F7 DUP6 DUP3 PUSH2 0xCC1 JUMP JUMPDEST SWAP5 POP PUSH1 0x0 DUP2 SLT ISZERO PUSH2 0x1A07 JUMPI PUSH1 0x1 SWAP4 POP JUMPDEST PUSH2 0x1A13 DUP7 DUP5 PUSH1 0x0 PUSH2 0x270B JUMP JUMPDEST SWAP6 POP PUSH2 0x1A1E DUP7 PUSH2 0x25D3 JUMP JUMPDEST SWAP3 POP POP POP PUSH2 0x19C7 JUMP JUMPDEST POP SWAP8 POP SWAP8 SWAP6 POP POP POP POP POP POP JUMP JUMPDEST PUSH1 0x0 DUP1 PUSH2 0xB60 PUSH1 0x10 PUSH2 0xFE1 JUMP JUMPDEST PUSH1 0x60 PUSH1 0x8 DUP3 PUSH1 0xFF AND GT ISZERO PUSH2 0x1A54 JUMPI PUSH1 0x0 DUP1 REVERT JUMPDEST PUSH1 0x0 PUSH2 0x1A5E PUSH2 0x2756 JUMP JUMPDEST PUSH1 0x1 PUSH1 0x1 PUSH1 0xA0 SHL SUB DUP6 AND PUSH1 0x0 SWAP1 DUP2 MSTORE PUSH1 0x20 DUP3 SWAP1 MSTORE PUSH1 0x40 DUP2 KECCAK256 SWAP2 SWAP3 POP PUSH1 0xFF DUP6 AND PUSH8 0xFFFFFFFFFFFFFFFF DUP2 GT DUP1 ISZERO PUSH2 0x1A93 JUMPI PUSH1 0x0 DUP1 REVERT JUMPDEST POP PUSH1 0x40 MLOAD SWAP1 DUP1 DUP3 MSTORE DUP1 PUSH1 0x20 MUL PUSH1 0x20 ADD DUP3 ADD PUSH1 0x40 MSTORE DUP1 ISZERO PUSH2 0x1ACD JUMPI DUP2 PUSH1 0x20 ADD JUMPDEST PUSH2 0x1ABA PUSH2 0x44F0 JUMP JUMPDEST DUP2 MSTORE PUSH1 0x20 ADD SWAP1 PUSH1 0x1 SWAP1 SUB SWAP1 DUP2 PUSH2 0x1AB2 JUMPI SWAP1 POP JUMPDEST POP SWAP1 POP PUSH1 0x0 JUMPDEST DUP6 PUSH1 0xFF AND DUP2 LT ISZERO PUSH2 0x1B59 JUMPI PUSH1 0x0 DUP4 DUP3 PUSH1 0x8 DUP2 LT PUSH2 0x1AEC JUMPI INVALID JUMPDEST ADD SWAP1 POP PUSH1 0x0 DUP4 DUP4 DUP2 MLOAD DUP2 LT PUSH2 0x1AFD JUMPI INVALID JUMPDEST PUSH1 0x20 SWAP1 DUP2 MUL SWAP2 SWAP1 SWAP2 ADD DUP2 ADD MLOAD DUP4 SLOAD PUSH2 0xFFFF DUP2 AND DUP3 MSTORE PUSH5 0xFFFFFFFFFF PUSH3 0x10000 DUP3 DIV AND SWAP3 DUP3 ADD SWAP3 SWAP1 SWAP3 MSTORE PUSH1 0xFF PUSH1 0x1 PUSH1 0x38 SHL DUP4 DIV AND PUSH1 0x40 DUP3 ADD MSTORE PUSH1 0x1 PUSH1 0x40 SHL SWAP1 SWAP2 DIV PUSH1 0xA SWAP1 DUP2 SIGNEXTEND SWAP1 SIGNEXTEND PUSH1 0x60 DUP3 ADD MSTORE PUSH1 0x80 ADD SWAP2 SWAP1 SWAP2 MSTORE POP PUSH1 0x1 ADD PUSH2 0x1AD3 JUMP JUMPDEST POP SWAP6 SWAP5 POP POP POP POP POP JUMP JUMPDEST DUP1 MLOAD PUSH1 0x60 SWAP1 DUP1 PUSH8 0xFFFFFFFFFFFFFFFF DUP2 GT DUP1 ISZERO PUSH2 0x1B7F JUMPI PUSH1 0x0 DUP1 REVERT JUMPDEST POP PUSH1 0x40 MLOAD SWAP1 DUP1 DUP3 MSTORE DUP1 PUSH1 0x20 MUL PUSH1 0x20 ADD DUP3 ADD PUSH1 0x40 MSTORE DUP1 ISZERO PUSH2 0x1BA9 JUMPI DUP2 PUSH1 0x20 ADD PUSH1 0x20 DUP3 MUL DUP1 CALLDATASIZE DUP4 CALLDATACOPY ADD SWAP1 POP JUMPDEST POP SWAP2 POP PUSH1 0x0 JUMPDEST DUP2 DUP2 LT ISZERO PUSH2 0x1C06 JUMPI PUSH1 0x0 DUP5 DUP3 DUP2 MLOAD DUP2 LT PUSH2 0x1BC5 JUMPI INVALID JUMPDEST PUSH1 0x20 MUL PUSH1 0x20 ADD ADD MLOAD SWAP1 POP PUSH2 0x1BE6 DUP2 PUSH1 0x0 ADD MLOAD DUP3 PUSH1 0x20 ADD MLOAD DUP4 PUSH1 0x40 ADD MLOAD PUSH2 0x2763 JUMP JUMPDEST DUP5 DUP4 DUP2 MLOAD DUP2 LT PUSH2 0x1BF2 JUMPI INVALID JUMPDEST PUSH1 0x20 SWAP1 DUP2 MUL SWAP2 SWAP1 SWAP2 ADD ADD MSTORE POP PUSH1 0x1 ADD PUSH2 0x1BAF JUMP JUMPDEST POP PUSH1 0x1 JUMPDEST DUP2 DUP2 LT ISZERO PUSH2 0x1D1D JUMPI DUP1 JUMPDEST PUSH1 0x0 DUP2 GT DUP1 ISZERO PUSH2 0x1C4C JUMPI POP DUP4 DUP2 DUP2 MLOAD DUP2 LT PUSH2 0x1C2B JUMPI INVALID JUMPDEST PUSH1 0x20 MUL PUSH1 0x20 ADD ADD MLOAD DUP5 PUSH1 0x1 DUP4 SUB DUP2 MLOAD DUP2 LT PUSH2 0x1C42 JUMPI INVALID JUMPDEST PUSH1 0x20 MUL PUSH1 0x20 ADD ADD MLOAD GT JUMPDEST ISZERO PUSH2 0x1D14 JUMPI DUP4 DUP2 DUP2 MLOAD DUP2 LT PUSH2 0x1C5D JUMPI INVALID JUMPDEST PUSH1 0x20 MUL PUSH1 0x20 ADD ADD MLOAD DUP5 PUSH1 0x1 DUP4 SUB DUP2 MLOAD DUP2 LT PUSH2 0x1C74 JUMPI INVALID JUMPDEST PUSH1 0x20 MUL PUSH1 0x20 ADD ADD MLOAD DUP6 PUSH1 0x1 DUP5 SUB DUP2 MLOAD DUP2 LT PUSH2 0x1C8B JUMPI INVALID JUMPDEST PUSH1 0x20 MUL PUSH1 0x20 ADD ADD DUP7 DUP5 DUP2 MLOAD DUP2 LT PUSH2 0x1C9E JUMPI INVALID JUMPDEST PUSH1 0x20 MUL PUSH1 0x20 ADD ADD DUP3 DUP2 MSTORE POP DUP3 DUP2 MSTORE POP POP POP DUP5 DUP2 DUP2 MLOAD DUP2 LT PUSH2 0x1CBB JUMPI INVALID JUMPDEST PUSH1 0x20 MUL PUSH1 0x20 ADD ADD MLOAD DUP6 PUSH1 0x1 DUP4 SUB DUP2 MLOAD DUP2 LT PUSH2 0x1CD2 JUMPI INVALID JUMPDEST PUSH1 0x20 MUL PUSH1 0x20 ADD ADD MLOAD DUP7 PUSH1 0x1 DUP5 SUB DUP2 MLOAD DUP2 LT PUSH2 0x1CE9 JUMPI INVALID JUMPDEST PUSH1 0x20 MUL PUSH1 0x20 ADD ADD DUP8 DUP5 DUP2 MLOAD DUP2 LT PUSH2 0x1CFC JUMPI INVALID JUMPDEST PUSH1 0x20 SWAP1 DUP2 MUL SWAP2 SWAP1 SWAP2 ADD ADD SWAP2 SWAP1 SWAP2 MSTORE MSTORE PUSH1 0x0 NOT ADD PUSH2 0x1C14 JUMP JUMPDEST POP PUSH1 0x1 ADD PUSH2 0x1C0A JUMP JUMPDEST POP POP SWAP2 SWAP1 POP JUMP JUMPDEST PUSH1 0x0 DUP1 PUSH2 0xB60 PUSH1 0x1D PUSH2 0xFE1 JUMP JUMPDEST PUSH1 0x0 DUP1 PUSH2 0x1D3C PUSH2 0x278C JUMP JUMPDEST PUSH2 0xFFFF SWAP4 SWAP1 SWAP4 AND PUSH1 0x0 SWAP1 DUP2 MSTORE PUSH1 0x20 SWAP4 SWAP1 SWAP4 MSTORE POP POP PUSH1 0x40 SWAP1 KECCAK256 SLOAD PUSH1 0x1 PUSH1 0x1 PUSH1 0xA0 SHL SUB AND SWAP1 JUMP JUMPDEST PUSH1 0x0 DUP1 PUSH1 0x0 DUP1 PUSH1 0x0 DUP1 PUSH2 0x1D74 DUP10 DUP9 PUSH2 0x2799 JUMP JUMPDEST DUP10 MLOAD SWAP1 SWAP6 POP SWAP2 SWAP4 POP SWAP2 POP PUSH1 0x0 SWAP1 PUSH2 0x1D9B SWAP1 PUSH2 0x1D90 SWAP1 DUP12 SWAP1 PUSH2 0x1E84 JUMP JUMPDEST PUSH4 0x3B9ACA00 SWAP1 PUSH2 0x159B JUMP JUMPDEST SWAP1 POP PUSH2 0x1DD5 PUSH2 0x1DCA PUSH4 0x1DA9C00 PUSH2 0x1DB2 DUP6 DUP6 PUSH2 0x159B JUMP JUMPDEST DUP2 PUSH2 0x1DB9 JUMPI INVALID JUMPDEST PUSH8 0xDE0B6B3A7640000 SWAP2 SWAP1 DIV PUSH2 0x1E72 JUMP JUMPDEST PUSH1 0xE0 DUP11 ADD MLOAD SWAP1 PUSH2 0x1EB6 JUMP JUMPDEST SWAP7 POP PUSH2 0x1DF7 PUSH2 0x1DEC PUSH4 0x1DA9C00 PUSH2 0x1DB2 DUP8 DUP6 PUSH2 0x159B JUMP JUMPDEST PUSH1 0xC0 DUP11 ADD MLOAD SWAP1 PUSH2 0x1EB6 JUMP JUMPDEST SWAP6 POP DUP2 DUP4 EQ ISZERO PUSH2 0x1E0E JUMPI POP PUSH1 0x0 SWAP4 POP PUSH2 0x1E69 SWAP2 POP POP JUMP JUMPDEST PUSH1 0x0 PUSH2 0x1E30 PUSH2 0x1E25 PUSH4 0x1DA9C00 PUSH2 0x1DB2 DUP8 DUP7 PUSH2 0x159B JUMP JUMPDEST PUSH1 0xE0 DUP12 ADD MLOAD SWAP1 PUSH2 0x1EB6 JUMP JUMPDEST SWAP1 POP PUSH1 0x0 PUSH2 0x1E3E DUP10 DUP4 PUSH2 0x1E84 JUMP JUMPDEST SWAP1 POP PUSH2 0x1E61 DUP9 PUSH2 0x1E5B DUP4 DUP14 PUSH1 0x40 ADD MLOAD PUSH2 0x159B SWAP1 SWAP2 SWAP1 PUSH4 0xFFFFFFFF AND JUMP JUMPDEST SWAP1 PUSH2 0x2834 JUMP JUMPDEST SWAP7 POP POP POP POP POP POP JUMPDEST SWAP4 POP SWAP4 POP SWAP4 POP SWAP4 JUMP JUMPDEST PUSH1 0x0 DUP3 DUP3 ADD DUP4 DUP2 LT ISZERO PUSH2 0xBA6 JUMPI PUSH1 0x0 DUP1 REVERT JUMPDEST PUSH1 0x0 DUP3 DUP3 GT ISZERO PUSH2 0x1E93 JUMPI PUSH1 0x0 DUP1 REVERT JUMPDEST POP SWAP1 SUB SWAP1 JUMP JUMPDEST PUSH1 0x0 PUSH2 0xBA6 PUSH2 0x1EB0 DUP5 PUSH8 0xDE0B6B3A7640000 PUSH2 0x159B JUMP JUMPDEST DUP4 PUSH2 0x2834 JUMP JUMPDEST PUSH1 0x0 PUSH2 0xBA6 PUSH2 0x1EC5 DUP5 DUP5 PUSH2 0x159B JUMP JUMPDEST PUSH8 0xDE0B6B3A7640000 PUSH2 0x2834 JUMP JUMPDEST PUSH1 0x0 DUP4 PUSH2 0x1EE2 JUMPI POP PUSH1 0x0 PUSH2 0xCB9 JUMP JUMPDEST PUSH1 0x0 DUP1 DUP6 SGT PUSH2 0x1EFB JUMPI PUSH2 0x1EF6 DUP7 DUP6 DUP6 PUSH2 0x2853 JUMP JUMPDEST PUSH2 0x1F06 JUMP JUMPDEST PUSH2 0x1F06 DUP7 DUP6 DUP6 PUSH2 0x288F JUMP JUMPDEST SWAP1 POP PUSH4 0x3B9ACA00 DUP2 SGT ISZERO PUSH2 0x1F19 JUMPI PUSH1 0x0 DUP1 REVERT JUMPDEST PUSH2 0x18F8 DUP6 DUP3 PUSH2 0x28D0 JUMP JUMPDEST PUSH1 0x0 DUP1 PUSH2 0x1F2F DUP4 PUSH2 0x1D31 JUMP JUMPDEST PUSH1 0x1 PUSH1 0x1 PUSH1 0xA0 SHL SUB AND PUSH4 0xEF81F216 PUSH1 0x40 MLOAD DUP2 PUSH4 0xFFFFFFFF AND PUSH1 0xE0 SHL DUP2 MSTORE PUSH1 0x4 ADD PUSH1 0x40 DUP1 MLOAD DUP1 DUP4 SUB DUP2 PUSH1 0x0 DUP8 DUP1 EXTCODESIZE ISZERO DUP1 ISZERO PUSH2 0x1F68 JUMPI PUSH1 0x0 DUP1 REVERT JUMPDEST POP GAS CALL ISZERO DUP1 ISZERO PUSH2 0x14D3 JUMPI RETURNDATASIZE PUSH1 0x0 DUP1 RETURNDATACOPY RETURNDATASIZE PUSH1 0x0 REVERT JUMPDEST PUSH1 0x0 PUSH2 0x1F86 PUSH2 0x1D24 JUMP JUMPDEST PUSH1 0x0 DUP6 PUSH2 0xFFFF AND DUP2 MSTORE PUSH1 0x20 ADD SWAP1 DUP2 MSTORE PUSH1 0x20 ADD PUSH1 0x0 KECCAK256 SWAP1 POP PUSH2 0x1FAA DUP3 PUSH1 0x0 ADD MLOAD PUSH2 0x28E9 JUMP JUMPDEST DUP2 SLOAD PUSH5 0xFFFFFFFFFF NOT AND PUSH5 0xFFFFFFFFFF SWAP2 SWAP1 SWAP2 AND OR DUP2 SSTORE PUSH1 0xA0 DUP3 ADD MLOAD PUSH2 0x1FCF SWAP1 PUSH2 0x28FD JUMP JUMPDEST PUSH1 0x2 DUP3 ADD DUP1 SLOAD PUSH10 0xFFFFFFFFFFFFFFFFFFFF NOT AND PUSH1 0x1 PUSH1 0x1 PUSH1 0x50 SHL SUB SWAP3 SWAP1 SWAP3 AND SWAP2 SWAP1 SWAP2 OR SWAP1 SSTORE PUSH1 0xC0 DUP3 ADD MLOAD PUSH2 0x2002 SWAP1 PUSH2 0x28FD JUMP JUMPDEST DUP2 PUSH1 0x2 ADD PUSH1 0xA PUSH2 0x100 EXP DUP2 SLOAD DUP2 PUSH1 0x1 PUSH1 0x1 PUSH1 0x50 SHL SUB MUL NOT AND SWAP1 DUP4 PUSH1 0x1 PUSH1 0x1 PUSH1 0x50 SHL SUB AND MUL OR SWAP1 SSTORE POP PUSH2 0x2037 DUP3 PUSH1 0xE0 ADD MLOAD PUSH2 0x28FD JUMP JUMPDEST DUP2 PUSH1 0x2 ADD PUSH1 0x14 PUSH2 0x100 EXP DUP2 SLOAD DUP2 PUSH1 0x1 PUSH1 0x1 PUSH1 0x50 SHL SUB MUL NOT AND SWAP1 DUP4 PUSH1 0x1 PUSH1 0x1 PUSH1 0x50 SHL SUB AND MUL OR SWAP1 SSTORE POP PUSH2 0x206C DUP3 PUSH1 0x20 ADD MLOAD PUSH2 0x2913 JUMP JUMPDEST DUP2 SLOAD PUSH1 0x1 PUSH1 0x1 PUSH1 0x58 SHL SUB SWAP2 SWAP1 SWAP2 AND PUSH1 0x1 PUSH1 0x28 SHL MUL PUSH16 0xFFFFFFFFFFFFFFFFFFFFFF0000000000 NOT SWAP1 SWAP2 AND OR DUP2 SSTORE PUSH1 0x40 DUP3 ADD MLOAD PUSH2 0x20A6 SWAP1 PUSH2 0x2913 JUMP JUMPDEST PUSH1 0x1 DUP3 ADD DUP1 SLOAD PUSH11 0xFFFFFFFFFFFFFFFFFFFFFF NOT AND PUSH1 0x1 PUSH1 0x1 PUSH1 0x58 SHL SUB SWAP3 SWAP1 SWAP3 AND SWAP2 SWAP1 SWAP2 OR SWAP1 SSTORE PUSH1 0x80 DUP3 ADD MLOAD PUSH2 0x20DA SWAP1 PUSH2 0x2913 JUMP JUMPDEST DUP2 SLOAD PUSH1 0x1 PUSH1 0x1 PUSH1 0x58 SHL SUB SWAP2 SWAP1 SWAP2 AND PUSH1 0x1 PUSH1 0x80 SHL MUL PUSH11 0xFFFFFFFFFFFFFFFFFFFFFF PUSH1 0x80 SHL NOT SWAP1 SWAP2 AND OR DUP2 SSTORE PUSH1 0x60 DUP3 ADD MLOAD PUSH2 0x2112 SWAP1 PUSH2 0x2929 JUMP JUMPDEST DUP2 SLOAD PUSH4 0xFFFFFFFF SWAP2 SWAP1 SWAP2 AND PUSH1 0x1 PUSH1 0xD8 SHL MUL PUSH4 0xFFFFFFFF PUSH1 0xD8 SHL NOT SWAP1 SWAP2 AND OR DUP2 SSTORE DUP3 ISZERO PUSH2 0x215E JUMPI PUSH1 0x0 PUSH2 0x2143 DUP5 PUSH2 0x15C2 JUMP JUMPDEST SWAP1 POP PUSH2 0x214F DUP6 DUP3 PUSH2 0x293C JUMP JUMPDEST PUSH2 0x215C PUSH2 0xFEE DUP7 DUP4 PUSH2 0x2978 JUMP JUMPDEST POP JUMPDEST DUP4 PUSH2 0xFFFF AND PUSH32 0xEF25641E225E493886510CA1AD6584FA7B442B9FEA820A29D1DE3CE27D270FD2 DUP4 PUSH1 0xA0 ADD MLOAD DUP5 PUSH1 0xC0 ADD MLOAD DUP6 PUSH1 0xE0 ADD MLOAD PUSH1 0x40 MLOAD PUSH2 0x21A2 SWAP4 SWAP3 SWAP2 SWAP1 PUSH2 0x4C09 JUMP JUMPDEST PUSH1 0x40 MLOAD DUP1 SWAP2 SUB SWAP1 LOG2 POP POP POP POP JUMP JUMPDEST PUSH1 0x0 DUP1 PUSH2 0xB60 PUSH1 0x9 PUSH2 0xFE1 JUMP JUMPDEST PUSH1 0x0 DUP1 PUSH2 0x21C8 PUSH2 0x2A02 JUMP JUMPDEST PUSH1 0x0 SWAP4 DUP5 MSTORE PUSH1 0x20 MSTORE POP POP PUSH1 0x40 SWAP1 KECCAK256 SLOAD PUSH1 0x1 PUSH1 0x1 PUSH1 0xA0 SHL SUB AND SWAP1 JUMP JUMPDEST PUSH1 0x0 DUP1 PUSH1 0x0 DUP1 PUSH1 0x0 DUP1 PUSH2 0x21F4 PUSH2 0x2A0F JUMP JUMPDEST PUSH1 0x1 PUSH1 0x1 PUSH1 0xA0 SHL SUB SWAP1 SWAP8 AND PUSH1 0x0 SWAP1 DUP2 MSTORE PUSH1 0x20 SWAP8 SWAP1 SWAP8 MSTORE POP POP PUSH1 0x40 SWAP1 SWAP5 KECCAK256 SLOAD PUSH2 0xFFFF DUP2 AND SWAP6 PUSH4 0xFFFFFFFF PUSH3 0x10000 DUP4 DIV DUP2 AND SWAP7 POP PUSH1 0x1 PUSH1 0x30 SHL DUP4 DIV AND SWAP5 POP PUSH1 0xFF PUSH1 0x1 PUSH1 0x50 SHL DUP4 DIV AND SWAP4 POP PUSH1 0x1 PUSH1 0x58 SHL SWAP1 SWAP2 DIV PUSH1 0xD8 SHL SWAP2 POP JUMP JUMPDEST PUSH1 0x0 DUP1 PUSH1 0x0 DUP1 PUSH2 0x225A PUSH2 0x2A1C JUMP JUMPDEST PUSH1 0x1 PUSH1 0x1 PUSH1 0xA0 SHL SUB SWAP6 SWAP1 SWAP6 AND PUSH1 0x0 SWAP1 DUP2 MSTORE PUSH1 0x20 SWAP6 SWAP1 SWAP6 MSTORE POP POP PUSH1 0x40 SWAP1 SWAP3 KECCAK256 SLOAD PUSH12 0xFFFFFFFFFFFFFFFFFFFFFFFF DUP2 AND SWAP4 PUSH1 0x1 PUSH1 0x60 SHL DUP3 DIV PUSH16 0xFFFFFFFFFFFFFFFFFFFFFFFFFFFFFFFF AND SWAP4 POP PUSH1 0x1 PUSH1 0xE0 SHL SWAP1 SWAP2 DIV PUSH4 0xFFFFFFFF AND SWAP2 POP JUMP JUMPDEST PUSH2 0x22BE PUSH2 0x452F JUMP JUMPDEST PUSH2 0x22C6 PUSH2 0x452F JUMP JUMPDEST PUSH1 0xFF DUP5 AND PUSH2 0x22D5 JUMPI SWAP1 POP PUSH2 0xBA6 JUMP JUMPDEST PUSH2 0x22DF DUP6 DUP6 PUSH2 0xD22 JUMP JUMPDEST DUP2 MSTORE PUSH1 0xFF DUP5 AND PUSH1 0x60 DUP3 ADD MSTORE DUP3 PUSH8 0xFFFFFFFFFFFFFFFF DUP2 GT DUP1 ISZERO PUSH2 0x2301 JUMPI PUSH1 0x0 DUP1 REVERT JUMPDEST POP PUSH1 0x40 MLOAD SWAP1 DUP1 DUP3 MSTORE DUP1 PUSH1 0x20 MUL PUSH1 0x20 ADD DUP3 ADD PUSH1 0x40 MSTORE DUP1 ISZERO PUSH2 0x233B JUMPI DUP2 PUSH1 0x20 ADD JUMPDEST PUSH2 0x2328 PUSH2 0x44F0 JUMP JUMPDEST DUP2 MSTORE PUSH1 0x20 ADD SWAP1 PUSH1 0x1 SWAP1 SUB SWAP1 DUP2 PUSH2 0x2320 JUMPI SWAP1 POP JUMPDEST POP PUSH1 0x20 DUP3 ADD MSTORE SWAP5 SWAP4 POP POP POP POP JUMP JUMPDEST PUSH1 0x0 DUP1 PUSH2 0x2354 PUSH2 0x1765 JUMP JUMPDEST PUSH1 0x1 PUSH1 0x1 PUSH1 0xA0 SHL SUB DUP6 AND PUSH1 0x0 SWAP1 DUP2 MSTORE PUSH1 0x20 DUP3 DUP2 MSTORE PUSH1 0x40 DUP1 DUP4 KECCAK256 PUSH2 0xFFFF DUP9 AND DUP5 MSTORE SWAP1 SWAP2 MSTORE DUP2 KECCAK256 DUP1 SLOAD PUSH1 0x1 PUSH1 0xA8 SHL SWAP1 DIV PUSH1 0xA SWAP1 DUP2 SIGNEXTEND SWAP1 SIGNEXTEND SWAP5 POP SWAP2 SWAP3 POP DUP4 SLT ISZERO PUSH2 0x239A JUMPI PUSH1 0x0 DUP1 REVERT JUMPDEST POP POP SWAP3 SWAP2 POP POP JUMP JUMPDEST PUSH1 0x0 DUP2 PUSH1 0x80 ADD MLOAD PUSH1 0x0 EQ ISZERO PUSH2 0x23B9 JUMPI POP PUSH1 0x0 PUSH2 0x34D JUMP JUMPDEST PUSH1 0x80 DUP3 ADD MLOAD PUSH3 0x76A700 SWAP1 PUSH2 0xFF3 SWAP1 PUSH2 0x2A29 JUMP JUMPDEST PUSH1 0x20 DUP3 ADD MLOAD MLOAD MLOAD PUSH1 0x0 SWAP1 PUSH1 0x60 SWAP1 DUP1 PUSH8 0xFFFFFFFFFFFFFFFF DUP2 GT DUP1 ISZERO PUSH2 0x23F0 JUMPI PUSH1 0x0 DUP1 REVERT JUMPDEST POP PUSH1 0x40 MLOAD SWAP1 DUP1 DUP3 MSTORE DUP1 PUSH1 0x20 MUL PUSH1 0x20 ADD DUP3 ADD PUSH1 0x40 MSTORE DUP1 ISZERO PUSH2 0x241A JUMPI DUP2 PUSH1 0x20 ADD PUSH1 0x20 DUP3 MUL DUP1 CALLDATASIZE DUP4 CALLDATACOPY ADD SWAP1 POP JUMPDEST POP SWAP2 POP PUSH2 0x2425 PUSH2 0x4557 JUMP JUMPDEST PUSH1 0x0 JUMPDEST DUP3 DUP2 LT ISZERO PUSH2 0x2510 JUMPI DUP7 MLOAD PUSH2 0x2443 SWAP1 DUP4 PUSH1 0x1 DUP1 DUP6 ADD SWAP1 DUP11 PUSH2 0x2A45 JUMP JUMPDEST PUSH1 0x0 DUP8 PUSH1 0x20 ADD MLOAD PUSH1 0x0 ADD MLOAD DUP3 DUP2 MLOAD DUP2 LT PUSH2 0x2459 JUMPI INVALID JUMPDEST PUSH1 0x20 MUL PUSH1 0x20 ADD ADD MLOAD SWAP1 POP PUSH1 0x0 DUP2 PUSH1 0x20 ADD MLOAD SWAP1 POP PUSH1 0x0 DUP1 PUSH2 0x2479 DUP5 DUP8 PUSH2 0x2AC0 JUMP JUMPDEST SWAP2 POP SWAP2 POP PUSH2 0x24A2 PUSH2 0x249B DUP13 PUSH1 0xC0 ADD MLOAD DUP14 PUSH1 0x0 ADD MLOAD PUSH1 0x0 ADD MLOAD PUSH2 0xFFFF AND DUP7 PUSH2 0x2B32 JUMP JUMPDEST DUP3 SWAP1 PUSH2 0xCC1 JUMP JUMPDEST DUP9 DUP7 DUP2 MLOAD DUP2 LT PUSH2 0x24AE JUMPI INVALID JUMPDEST PUSH1 0x20 MUL PUSH1 0x20 ADD ADD DUP2 DUP2 MSTORE POP POP PUSH1 0x0 PUSH2 0x24F1 PUSH2 0x1672 PUSH2 0x24E5 DUP12 DUP10 DUP2 MLOAD DUP2 LT PUSH2 0x24D1 JUMPI INVALID JUMPDEST PUSH1 0x20 MUL PUSH1 0x20 ADD ADD MLOAD DUP8 DUP16 DUP13 PUSH1 0xC0 ADD MLOAD PUSH2 0x2B77 JUMP JUMPDEST DUP15 MLOAD PUSH1 0x40 ADD MLOAD SWAP1 PUSH2 0x119B JUMP JUMPDEST SWAP1 POP PUSH2 0x24FD DUP11 DUP3 PUSH2 0xCC1 JUMP JUMPDEST SWAP10 POP POP PUSH1 0x1 SWAP1 SWAP5 ADD SWAP4 POP PUSH2 0x2428 SWAP3 POP POP POP JUMP JUMPDEST POP POP POP SWAP3 POP SWAP3 SWAP1 POP JUMP JUMPDEST PUSH1 0x0 PUSH1 0x2 DUP3 GT PUSH2 0x252C JUMPI POP PUSH1 0x0 PUSH2 0xDE6 JUMP JUMPDEST PUSH1 0x0 PUSH2 0x2538 DUP8 DUP8 PUSH2 0x1981 JUMP JUMPDEST SWAP1 POP DUP1 PUSH2 0x2546 JUMPI SWAP1 POP PUSH2 0xDE6 JUMP JUMPDEST PUSH1 0x0 PUSH2 0x2551 DUP6 PUSH2 0x2A29 JUMP JUMPDEST SWAP1 POP DUP6 DUP2 EQ ISZERO PUSH2 0x257B JUMPI POP PUSH21 0x400080000002002000000002000000200000000020 NOT AND SWAP1 POP PUSH2 0xDE6 JUMP JUMPDEST PUSH1 0x1 JUMPDEST DUP5 DUP2 GT PUSH2 0x25BB JUMPI PUSH1 0x0 PUSH2 0x2590 DUP3 PUSH2 0x2BC8 JUMP JUMPDEST DUP4 ADD SWAP1 POP PUSH1 0x0 PUSH2 0x25A0 DUP10 DUP4 PUSH2 0x2C6C JUMP JUMPDEST POP SWAP1 POP PUSH2 0x25AF DUP6 DUP3 PUSH1 0x0 PUSH2 0x270B JUMP JUMPDEST SWAP5 POP POP POP PUSH1 0x1 ADD PUSH2 0x257E JUMP JUMPDEST POP DUP2 SWAP3 POP POP POP PUSH2 0xDE6 JUMP JUMPDEST PUSH1 0x0 DUP1 PUSH2 0xB60 PUSH1 0xB PUSH2 0xFE1 JUMP JUMPDEST PUSH1 0x0 DUP2 PUSH2 0x25E2 JUMPI POP PUSH1 0x0 PUSH2 0x34D JUMP JUMPDEST PUSH2 0x25EB DUP3 PUSH2 0x2D77 JUMP JUMPDEST PUSH1 0xFF SUB PUSH1 0x1 ADD SWAP1 POP SWAP2 SWAP1 POP JUMP JUMPDEST PUSH1 0x0 DUP2 PUSH2 0x2604 JUMPI PUSH1 0x0 DUP1 REVERT JUMPDEST PUSH2 0x100 DUP3 GT ISZERO PUSH2 0x2613 JUMPI PUSH1 0x0 DUP1 REVERT JUMPDEST PUSH1 0x0 PUSH2 0x261E DUP5 PUSH2 0xB66 JUMP JUMPDEST SWAP1 POP PUSH1 0x0 PUSH1 0x5A DUP5 GT PUSH2 0x2639 JUMPI POP PUSH3 0x15180 DUP4 MUL ADD SWAP1 POP PUSH2 0xB60 JUMP JUMPDEST PUSH1 0x87 DUP5 GT PUSH2 0x2661 JUMPI POP PUSH1 0x59 NOT DUP4 ADD PUSH3 0x7E900 SWAP1 DUP2 MUL SWAP1 DUP3 MOD SWAP1 SWAP2 SUB ADD PUSH3 0x76A700 ADD SWAP1 POP PUSH2 0xB60 JUMP JUMPDEST PUSH1 0xC3 DUP5 GT PUSH2 0x268A JUMPI POP PUSH1 0x86 NOT DUP4 ADD PUSH3 0x278D00 SWAP1 DUP2 MUL SWAP1 DUP3 MOD SWAP1 SWAP2 SUB ADD PUSH4 0x1DA9C00 ADD SWAP1 POP PUSH2 0xB60 JUMP JUMPDEST POP PUSH1 0xC2 NOT DUP4 ADD PUSH3 0x76A700 SWAP1 DUP2 MUL SWAP1 DUP3 MOD SWAP1 SWAP2 SUB ADD PUSH4 0xB1FA800 ADD SWAP1 POP PUSH2 0xB60 JUMP JUMPDEST PUSH1 0x0 DUP1 PUSH2 0x26B9 DUP9 DUP9 DUP9 PUSH2 0x2B32 JUMP JUMPDEST SWAP1 POP DUP5 DUP7 GT PUSH2 0x26C9 JUMPI SWAP1 POP PUSH2 0x18F8 JUMP JUMPDEST DUP3 ISZERO PUSH2 0x26E3 JUMPI PUSH2 0x26DB DUP5 DUP3 DUP9 DUP9 PUSH2 0x1ED3 JUMP JUMPDEST SWAP2 POP POP PUSH2 0x18F8 JUMP JUMPDEST PUSH1 0x0 PUSH2 0x26F0 DUP6 DUP9 DUP9 PUSH2 0x2E10 JUMP JUMPDEST SWAP1 POP PUSH2 0x26FE DUP3 DUP9 DUP9 DUP5 PUSH2 0x2B77 JUMP JUMPDEST SWAP10 SWAP9 POP POP POP POP POP POP POP POP POP JUMP JUMPDEST PUSH1 0x0 PUSH1 0x1 DUP4 LT ISZERO DUP1 ISZERO PUSH2 0x2720 JUMPI POP PUSH2 0x100 DUP4 GT ISZERO JUMPDEST PUSH2 0x2729 JUMPI PUSH1 0x0 DUP1 REVERT JUMPDEST DUP2 ISZERO PUSH2 0x2742 JUMPI POP PUSH1 0x1 PUSH1 0xFF SHL PUSH1 0x0 NOT DUP4 ADD SHR DUP4 OR PUSH2 0xBA6 JUMP JUMPDEST POP PUSH1 0x1 PUSH1 0xFF SHL PUSH1 0x0 NOT DUP4 ADD SHR NOT DUP4 AND PUSH2 0xBA6 JUMP JUMPDEST PUSH1 0x0 DUP1 PUSH2 0xB60 PUSH1 0xD PUSH2 0xFE1 JUMP JUMPDEST PUSH8 0xFFFF000000000000 PUSH1 0x30 DUP5 SWAP1 SHL AND PUSH6 0xFFFFFFFFFF00 PUSH1 0x8 DUP5 SWAP1 SHL AND OR PUSH1 0xFF DUP3 AND OR SWAP4 SWAP3 POP POP POP JUMP JUMPDEST PUSH1 0x0 DUP1 PUSH2 0xB60 PUSH1 0x1F PUSH2 0xFE1 JUMP JUMPDEST PUSH1 0x0 DUP1 PUSH1 0x0 DUP1 PUSH1 0x0 DUP6 PUSH1 0x20 ADD MLOAD GT ISZERO PUSH2 0x27E6 JUMPI PUSH2 0x27E3 PUSH2 0x27CA DUP7 PUSH1 0xC0 ADD MLOAD DUP8 PUSH1 0x20 ADD MLOAD PUSH2 0x159B SWAP1 SWAP2 SWAP1 PUSH4 0xFFFFFFFF AND JUMP JUMPDEST PUSH1 0xE0 DUP8 ADD MLOAD PUSH1 0x40 DUP9 ADD MLOAD PUSH2 0x27DD SWAP2 PUSH2 0x159B JUMP JUMPDEST SWAP1 PUSH2 0x2EF9 JUMP JUMPDEST SWAP1 POP JUMPDEST PUSH1 0x0 PUSH2 0x27F1 DUP8 PUSH2 0x2F0C JUMP JUMPDEST SWAP1 POP PUSH2 0x27FD DUP2 DUP4 PUSH2 0x2F3F JUMP JUMPDEST SWAP5 POP DUP2 ISZERO PUSH2 0x2814 JUMPI PUSH2 0x2811 DUP2 DUP7 PUSH1 0x1 PUSH2 0x2FF2 JUMP JUMPDEST SWAP4 POP JUMPDEST PUSH1 0x20 DUP7 ADD MLOAD ISZERO PUSH2 0x282B JUMPI PUSH2 0x2828 DUP6 DUP4 PUSH2 0x306A JUMP JUMPDEST SWAP3 POP JUMPDEST POP POP SWAP3 POP SWAP3 POP SWAP3 JUMP JUMPDEST PUSH1 0x0 DUP1 DUP3 GT PUSH2 0x2842 JUMPI PUSH1 0x0 DUP1 REVERT JUMPDEST DUP2 DUP4 DUP2 PUSH2 0x284B JUMPI INVALID JUMPDEST DIV SWAP4 SWAP3 POP POP POP JUMP JUMPDEST PUSH1 0x0 DUP1 PUSH2 0x2861 DUP6 DUP6 DUP6 PUSH2 0x3083 JUMP JUMPDEST SWAP1 POP DUP1 ISZERO PUSH2 0x2881 JUMPI PUSH2 0x287C PUSH2 0x2876 DUP6 DUP6 PUSH2 0x1E84 JUMP JUMPDEST DUP3 PUSH2 0x30D3 JUMP JUMPDEST PUSH2 0xDE6 JUMP JUMPDEST PUSH4 0x3B9ACA00 SWAP6 SWAP5 POP POP POP POP POP JUMP JUMPDEST PUSH1 0x0 DUP1 PUSH2 0x289D DUP6 DUP6 DUP6 PUSH2 0x3140 JUMP JUMPDEST SWAP1 POP PUSH2 0x28AC PUSH2 0x2876 DUP6 DUP6 PUSH2 0x1E84 JUMP JUMPDEST SWAP2 POP PUSH1 0x0 PUSH2 0x28B9 DUP7 PUSH2 0x3181 JUMP JUMPDEST SWAP1 POP DUP3 DUP2 SLT ISZERO PUSH2 0x28C7 JUMPI DUP1 SWAP3 POP JUMPDEST POP POP SWAP4 SWAP3 POP POP POP JUMP JUMPDEST PUSH1 0x0 PUSH2 0xBA6 PUSH2 0x28DF DUP5 DUP5 PUSH2 0x1902 JUMP JUMPDEST PUSH4 0x3B9ACA00 PUSH2 0x1950 JUMP JUMPDEST PUSH1 0x0 PUSH5 0xFFFFFFFFFF DUP3 GT ISZERO PUSH2 0x15D8 JUMPI PUSH1 0x0 DUP1 REVERT JUMPDEST PUSH1 0x0 PUSH1 0x1 PUSH1 0x1 PUSH1 0x50 SHL SUB DUP3 GT ISZERO PUSH2 0x15D8 JUMPI PUSH1 0x0 DUP1 REVERT JUMPDEST PUSH1 0x0 PUSH1 0x1 PUSH1 0x1 PUSH1 0x58 SHL SUB DUP3 GT ISZERO PUSH2 0x15D8 JUMPI PUSH1 0x0 DUP1 REVERT JUMPDEST PUSH1 0x0 PUSH4 0xFFFFFFFF DUP3 GT ISZERO PUSH2 0x15D8 JUMPI PUSH1 0x0 DUP1 REVERT JUMPDEST PUSH1 0x0 DUP2 SLT ISZERO PUSH2 0x294A JUMPI PUSH1 0x0 DUP1 REVERT JUMPDEST PUSH1 0x0 PUSH2 0x2958 PUSH2 0xFEE DUP5 PUSH2 0x2349 JUMP JUMPDEST SWAP1 POP PUSH2 0x2964 DUP2 DUP4 PUSH2 0xCC1 JUMP JUMPDEST SWAP1 POP PUSH2 0x2973 PUSH2 0xFEE DUP5 DUP4 PUSH2 0x319C JUMP JUMPDEST POP POP POP JUMP JUMPDEST PUSH1 0x0 PUSH2 0x2982 PUSH2 0x3210 JUMP JUMPDEST PUSH2 0xFFFF DUP5 AND PUSH1 0x0 SWAP1 DUP2 MSTORE PUSH1 0x20 SWAP2 SWAP1 SWAP2 MSTORE PUSH1 0x40 SWAP1 DUP2 SWAP1 KECCAK256 SLOAD SWAP1 MLOAD PUSH4 0xAD1C095D PUSH1 0xE0 SHL DUP2 MSTORE PUSH1 0x1 PUSH1 0x1 PUSH1 0xA0 SHL SUB SWAP1 SWAP2 AND SWAP2 POP DUP2 SWAP1 PUSH4 0xAD1C095D SWAP1 PUSH2 0x29CA SWAP1 DUP8 SWAP1 DUP7 SWAP1 PUSH1 0x4 ADD PUSH2 0x4992 JUMP JUMPDEST PUSH1 0x0 PUSH1 0x40 MLOAD DUP1 DUP4 SUB DUP2 PUSH1 0x0 DUP8 DUP1 EXTCODESIZE ISZERO DUP1 ISZERO PUSH2 0x29E4 JUMPI PUSH1 0x0 DUP1 REVERT JUMPDEST POP GAS CALL ISZERO DUP1 ISZERO PUSH2 0x29F8 JUMPI RETURNDATASIZE PUSH1 0x0 DUP1 RETURNDATACOPY RETURNDATASIZE PUSH1 0x0 REVERT JUMPDEST POP POP POP POP POP POP POP POP JUMP JUMPDEST PUSH1 0x0 DUP1 PUSH2 0xB60 PUSH1 0x3 PUSH2 0xFE1 JUMP JUMPDEST PUSH1 0x0 DUP1 PUSH2 0xB60 PUSH1 0x2 PUSH2 0xFE1 JUMP JUMPDEST PUSH1 0x0 DUP1 PUSH2 0xB60 PUSH1 0x11 PUSH2 0xFE1 JUMP JUMPDEST PUSH1 0x0 PUSH3 0x76A700 DUP3 LT ISZERO PUSH2 0x2A3B JUMPI PUSH1 0x0 DUP1 REVERT JUMPDEST PUSH3 0x76A700 DUP3 PUSH2 0xB7E JUMP JUMPDEST DUP3 PUSH1 0x1 GT ISZERO DUP1 ISZERO PUSH2 0x2A5A JUMPI POP DUP5 PUSH1 0x20 ADD MLOAD DUP4 GT ISZERO JUMPDEST PUSH2 0x2A76 JUMPI PUSH1 0x40 MLOAD PUSH3 0x461BCD PUSH1 0xE5 SHL DUP2 MSTORE PUSH1 0x4 ADD PUSH2 0x1FF SWAP1 PUSH2 0x4A98 JUMP JUMPDEST PUSH1 0x0 PUSH2 0x2A93 PUSH2 0x2A84 DUP6 PUSH2 0x2BC8 JUMP JUMPDEST PUSH2 0x2A8D DUP5 PUSH2 0x2A29 JUMP JUMPDEST SWAP1 PUSH2 0x1E72 JUMP JUMPDEST SWAP1 POP PUSH2 0x2AB8 DUP7 PUSH1 0x0 ADD MLOAD PUSH2 0xFFFF AND DUP3 DUP5 DUP7 PUSH2 0x2AAD DUP12 PUSH2 0x321D JUMP JUMPDEST DUP11 SWAP5 SWAP4 SWAP3 SWAP2 SWAP1 PUSH2 0x3231 JUMP JUMPDEST POP POP POP POP POP POP JUMP JUMPDEST PUSH1 0x0 DUP1 PUSH2 0x2AD0 DUP5 PUSH1 0x40 ADD MLOAD PUSH2 0x325B JUMP JUMPDEST DUP1 ISZERO PUSH2 0x2AE1 JUMPI POP PUSH1 0x0 DUP5 PUSH1 0x60 ADD MLOAD SLT ISZERO JUMPDEST PUSH2 0x2AEA JUMPI PUSH1 0x0 DUP1 REVERT JUMPDEST PUSH2 0x2B0D DUP4 PUSH1 0x80 ADD MLOAD PUSH2 0x1151 DUP7 PUSH1 0x60 ADD MLOAD DUP7 PUSH1 0x60 ADD MLOAD PUSH2 0x1902 SWAP1 SWAP2 SWAP1 PUSH4 0xFFFFFFFF AND JUMP JUMPDEST SWAP2 POP PUSH2 0x13AB DUP4 PUSH1 0x80 ADD MLOAD PUSH2 0x1151 DUP7 PUSH1 0x60 ADD MLOAD DUP7 PUSH1 0x40 ADD MLOAD PUSH2 0x1902 SWAP1 SWAP2 SWAP1 PUSH4 0xFFFFFFFF AND JUMP JUMPDEST PUSH1 0x0 DUP1 PUSH2 0x2B3D PUSH2 0x3271 JUMP JUMPDEST PUSH1 0x1 PUSH1 0x1 PUSH1 0xA0 SHL SUB DUP7 AND PUSH1 0x0 SWAP1 DUP2 MSTORE PUSH1 0x20 SWAP2 DUP3 MSTORE PUSH1 0x40 DUP1 DUP3 KECCAK256 DUP8 DUP4 MSTORE DUP4 MSTORE DUP1 DUP3 KECCAK256 DUP7 DUP4 MSTORE SWAP1 SWAP3 MSTORE KECCAK256 SLOAD PUSH1 0xF SWAP1 DUP2 SIGNEXTEND SWAP1 SIGNEXTEND SWAP2 POP POP SWAP4 SWAP3 POP POP POP JUMP JUMPDEST PUSH1 0x0 DUP5 PUSH2 0x2B86 JUMPI POP PUSH1 0x0 PUSH2 0xCB9 JUMP JUMPDEST PUSH1 0x0 PUSH2 0x2B92 DUP6 DUP6 PUSH2 0x1E84 JUMP JUMPDEST SWAP1 POP PUSH1 0x0 PUSH2 0x2BA0 DUP3 DUP6 PUSH2 0x30D3 JUMP JUMPDEST SWAP1 POP PUSH4 0x3B9ACA00 DUP2 SGT ISZERO PUSH2 0x2BB3 JUMPI PUSH1 0x0 DUP1 REVERT JUMPDEST PUSH2 0x2BBD DUP8 DUP3 PUSH2 0x28D0 JUMP JUMPDEST SWAP8 SWAP7 POP POP POP POP POP POP POP JUMP JUMPDEST PUSH1 0x0 DUP2 PUSH1 0x1 EQ ISZERO PUSH2 0x2BDD JUMPI POP PUSH3 0x76A700 PUSH2 0x34D JUMP JUMPDEST DUP2 PUSH1 0x2 EQ ISZERO PUSH2 0x2BF0 JUMPI POP PUSH3 0xED4E00 PUSH2 0x34D JUMP JUMPDEST DUP2 PUSH1 0x3 EQ ISZERO PUSH2 0x2C04 JUMPI POP PUSH4 0x1DA9C00 PUSH2 0x34D JUMP JUMPDEST DUP2 PUSH1 0x4 EQ ISZERO PUSH2 0x2C18 JUMPI POP PUSH4 0x3B53800 PUSH2 0x34D JUMP JUMPDEST DUP2 PUSH1 0x5 EQ ISZERO PUSH2 0x2C2C JUMPI POP PUSH4 0x9450C00 PUSH2 0x34D JUMP JUMPDEST DUP2 PUSH1 0x6 EQ ISZERO PUSH2 0x2C40 JUMPI POP PUSH4 0x128A1800 PUSH2 0x34D JUMP JUMPDEST DUP2 PUSH1 0x7 EQ ISZERO PUSH2 0x2C54 JUMPI POP PUSH4 0x25143000 PUSH2 0x34D JUMP JUMPDEST PUSH1 0x40 MLOAD PUSH3 0x461BCD PUSH1 0xE5 SHL DUP2 MSTORE PUSH1 0x4 ADD PUSH2 0x1FF SWAP1 PUSH2 0x4A45 JUMP JUMPDEST PUSH1 0x0 DUP1 PUSH1 0x0 PUSH2 0x2C7A DUP6 PUSH2 0xB66 JUMP JUMPDEST SWAP1 POP PUSH3 0x15180 DUP5 MOD ISZERO PUSH2 0x2C94 JUMPI PUSH1 0x0 DUP1 SWAP3 POP SWAP3 POP POP PUSH2 0x2D70 JUMP JUMPDEST DUP4 DUP2 LT PUSH2 0x2CA8 JUMPI PUSH1 0x0 DUP1 SWAP3 POP SWAP3 POP POP PUSH2 0x2D70 JUMP JUMPDEST PUSH3 0x15180 DUP2 DUP6 SUB DIV PUSH1 0x5A DUP2 GT PUSH2 0x2CC5 JUMPI SWAP3 POP PUSH1 0x1 SWAP2 POP PUSH2 0x2D70 SWAP1 POP JUMP JUMPDEST PUSH2 0x168 DUP2 GT PUSH2 0x2D04 JUMPI PUSH1 0x0 PUSH3 0x15180 PUSH3 0x7E900 DUP5 MOD DIV DUP3 ADD PUSH1 0x59 NOT ADD SWAP1 POP PUSH1 0x6 DUP2 DIV PUSH1 0x5A ADD PUSH1 0x6 DUP3 DUP2 PUSH2 0x2CF4 JUMPI INVALID JUMPDEST MOD PUSH1 0x0 EQ SWAP5 POP SWAP5 POP POP POP POP PUSH2 0x2D70 JUMP JUMPDEST PUSH2 0x870 DUP2 GT PUSH2 0x2D34 JUMPI PUSH1 0x0 PUSH3 0x15180 PUSH3 0x278D00 DUP5 MOD DIV DUP3 ADD PUSH2 0x167 NOT ADD SWAP1 POP PUSH1 0x1E DUP2 DIV PUSH1 0x87 ADD PUSH1 0x1E DUP3 DUP2 PUSH2 0x2CF4 JUMPI INVALID JUMPDEST PUSH2 0x1DE2 DUP2 GT PUSH2 0x2D64 JUMPI PUSH1 0x0 PUSH3 0x15180 PUSH3 0x76A700 DUP5 MOD DIV DUP3 ADD PUSH2 0x86F NOT ADD SWAP1 POP PUSH1 0x5A DUP2 DIV PUSH1 0xC3 ADD PUSH1 0x5A DUP3 DUP2 PUSH2 0x2CF4 JUMPI INVALID JUMPDEST PUSH2 0x100 PUSH1 0x0 SWAP4 POP SWAP4 POP POP POP JUMPDEST SWAP3 POP SWAP3 SWAP1 POP JUMP JUMPDEST PUSH1 0x0 DUP2 PUSH2 0x2D83 JUMPI PUSH1 0x0 DUP1 REVERT JUMPDEST PUSH1 0x1 PUSH1 0x80 SHL DUP3 LT PUSH2 0x2D96 JUMPI PUSH1 0x80 SWAP2 DUP3 SHR SWAP2 ADD JUMPDEST PUSH1 0x1 PUSH1 0x40 SHL DUP3 LT PUSH2 0x2DA9 JUMPI PUSH1 0x40 SWAP2 DUP3 SHR SWAP2 ADD JUMPDEST PUSH5 0x100000000 DUP3 LT PUSH2 0x2DBD JUMPI PUSH1 0x20 SWAP2 DUP3 SHR SWAP2 ADD JUMPDEST PUSH3 0x10000 DUP3 LT PUSH2 0x2DCF JUMPI PUSH1 0x10 SWAP2 DUP3 SHR SWAP2 ADD JUMPDEST PUSH2 0x100 DUP3 LT PUSH2 0x2DE0 JUMPI PUSH1 0x8 SWAP2 DUP3 SHR SWAP2 ADD JUMPDEST PUSH1 0x10 DUP3 LT PUSH2 0x2DF0 JUMPI PUSH1 0x4 SWAP2 DUP3 SHR SWAP2 ADD JUMPDEST PUSH1 0x4 DUP3 LT PUSH2 0x2E00 JUMPI PUSH1 0x2 SWAP2 DUP3 SHR SWAP2 ADD JUMPDEST PUSH1 0x2 DUP3 LT PUSH2 0x34D JUMPI PUSH1 0x1 ADD SWAP2 SWAP1 POP JUMP JUMPDEST PUSH1 0x0 DUP1 PUSH1 0x0 PUSH2 0x2E24 DUP7 PUSH1 0x20 ADD MLOAD DUP7 DUP7 PUSH2 0x327E JUMP JUMPDEST SWAP2 POP SWAP2 POP PUSH1 0x0 PUSH2 0x2E33 DUP8 PUSH2 0x321D JUMP JUMPDEST SWAP1 POP DUP2 PUSH2 0x2E53 JUMPI DUP7 MLOAD PUSH2 0x2E4C SWAP1 PUSH2 0xFFFF AND DUP8 DUP4 DUP9 PUSH2 0x3305 JUMP JUMPDEST SWAP4 POP PUSH2 0x2EEF JUMP JUMPDEST PUSH1 0x0 PUSH2 0x2E5E DUP7 PUSH2 0x2A29 JUMP JUMPDEST SWAP1 POP PUSH1 0x0 PUSH2 0x2E75 PUSH2 0x2E6E DUP7 PUSH2 0x2BC8 JUMP JUMPDEST DUP4 SWAP1 PUSH2 0x1E72 JUMP JUMPDEST SWAP1 POP PUSH1 0x0 PUSH2 0x2E8D DUP11 PUSH1 0x0 ADD MLOAD PUSH2 0xFFFF AND DUP4 DUP7 DUP12 PUSH2 0x3305 JUMP JUMPDEST SWAP1 POP PUSH1 0x0 DUP1 DUP8 PUSH1 0x1 EQ ISZERO PUSH2 0x2EAB JUMPI POP POP PUSH1 0x40 DUP1 DUP12 ADD MLOAD ADD MLOAD DUP9 PUSH2 0x2EDA JUMP JUMPDEST PUSH2 0x2EC1 PUSH2 0x2EBA PUSH1 0x1 DUP11 SUB PUSH2 0x2BC8 JUMP JUMPDEST DUP7 SWAP1 PUSH2 0x1E72 JUMP JUMPDEST SWAP1 POP PUSH2 0x2ED7 DUP13 PUSH1 0x0 ADD MLOAD PUSH2 0xFFFF AND DUP3 DUP9 DUP14 PUSH2 0x3305 JUMP JUMPDEST SWAP2 POP JUMPDEST PUSH2 0x2EE7 DUP2 DUP6 DUP5 DUP7 DUP16 PUSH2 0x33A4 JUMP JUMPDEST SWAP9 POP POP POP POP POP POP JUMPDEST POP POP POP SWAP4 SWAP3 POP POP POP JUMP JUMPDEST PUSH1 0x0 PUSH2 0xBA6 PUSH2 0x1EB0 DUP5 PUSH4 0x3B9ACA00 PUSH2 0x159B JUMP JUMPDEST PUSH2 0x2F14 PUSH2 0x459F JUMP JUMPDEST PUSH1 0x0 PUSH2 0x2F1E PUSH2 0x3402 JUMP JUMPDEST PUSH2 0xFFFF DUP5 AND PUSH1 0x0 SWAP1 DUP2 MSTORE PUSH1 0x20 SWAP2 SWAP1 SWAP2 MSTORE PUSH1 0x40 DUP2 KECCAK256 SLOAD SWAP2 POP PUSH2 0xBA6 SWAP1 DUP3 PUSH2 0x340F JUMP JUMPDEST PUSH1 0x0 DUP1 DUP4 PUSH1 0x80 ADD MLOAD GT PUSH2 0x2F51 JUMPI PUSH1 0x0 DUP1 REVERT JUMPDEST PUSH4 0x3B9ACA00 DUP3 GT ISZERO PUSH2 0x2F62 JUMPI PUSH1 0x0 DUP1 REVERT JUMPDEST DUP3 MLOAD DUP3 GT PUSH2 0x2F81 JUMPI DUP3 MLOAD PUSH1 0x40 DUP5 ADD MLOAD PUSH2 0x17A7 SWAP2 SWAP1 PUSH2 0x1E5B SWAP1 DUP6 SWAP1 PUSH2 0x159B JUMP JUMPDEST DUP3 PUSH1 0x20 ADD MLOAD DUP3 GT PUSH2 0x2FB9 JUMPI PUSH1 0x40 DUP4 ADD MLOAD DUP4 MLOAD PUSH1 0x20 DUP6 ADD MLOAD PUSH1 0x60 DUP7 ADD MLOAD PUSH2 0x17A7 SWAP4 SWAP3 PUSH2 0x2A8D SWAP3 DUP2 SWAP1 SUB SWAP2 PUSH2 0x1E5B SWAP2 DUP9 SUB SWAP1 DUP6 SWAP1 SUB PUSH2 0x159B JUMP JUMPDEST PUSH2 0xBA6 DUP4 PUSH1 0x60 ADD MLOAD PUSH2 0x2A8D DUP6 PUSH1 0x20 ADD MLOAD PUSH4 0x3B9ACA00 SUB PUSH2 0x1E5B DUP8 PUSH1 0x60 ADD MLOAD DUP9 PUSH1 0x80 ADD MLOAD SUB DUP9 PUSH1 0x20 ADD MLOAD DUP9 SUB PUSH2 0x159B SWAP1 SWAP2 SWAP1 PUSH4 0xFFFFFFFF AND JUMP JUMPDEST PUSH1 0x0 DUP1 PUSH2 0x3011 PUSH1 0x64 PUSH2 0x1E5B DUP8 PUSH1 0xE0 ADD MLOAD DUP8 PUSH2 0x159B SWAP1 SWAP2 SWAP1 PUSH4 0xFFFFFFFF AND JUMP JUMPDEST SWAP1 POP DUP5 PUSH1 0xA0 ADD MLOAD DUP2 LT ISZERO PUSH2 0x3026 JUMPI POP PUSH1 0xA0 DUP5 ADD MLOAD JUMPDEST DUP5 PUSH1 0xC0 ADD MLOAD DUP2 GT ISZERO PUSH2 0x3039 JUMPI POP PUSH1 0xC0 DUP5 ADD MLOAD JUMPDEST DUP3 ISZERO PUSH2 0x3050 JUMPI PUSH2 0x3049 DUP5 DUP3 PUSH2 0x1E72 JUMP JUMPDEST SWAP2 POP PUSH2 0xD2E JUMP JUMPDEST DUP4 DUP2 GT PUSH2 0x305F JUMPI DUP1 DUP5 SUB PUSH2 0xDE6 JUMP JUMPDEST POP PUSH1 0x0 SWAP5 SWAP4 POP POP POP POP JUMP JUMPDEST PUSH1 0x0 PUSH2 0xBA6 PUSH2 0x3079 DUP5 DUP5 PUSH2 0x159B JUMP JUMPDEST PUSH4 0x3B9ACA00 PUSH2 0x2834 JUMP JUMPDEST PUSH1 0x0 PUSH2 0x3090 DUP5 DUP5 DUP5 PUSH2 0x2E10 JUMP JUMPDEST SWAP1 POP PUSH1 0x0 PUSH2 0x309D DUP6 PUSH2 0x352E JUMP JUMPDEST SWAP1 POP DUP1 DUP3 GT PUSH2 0x30B0 JUMPI PUSH1 0x0 SWAP2 POP POP PUSH2 0xBA6 JUMP JUMPDEST DUP1 DUP3 SUB SWAP2 POP PUSH1 0x0 PUSH2 0x30C0 DUP7 PUSH2 0x353B JUMP JUMPDEST SWAP1 POP DUP3 DUP2 LT ISZERO PUSH2 0x28C7 JUMPI SWAP6 SWAP5 POP POP POP POP POP JUMP JUMPDEST PUSH1 0x0 DUP1 PUSH2 0x30F0 PUSH2 0x30EB PUSH4 0x1DA9C00 PUSH2 0x1E5B DUP7 DUP9 PUSH2 0x159B JUMP JUMPDEST PUSH2 0x3548 JUMP JUMPDEST SWAP1 POP PUSH2 0x3102 DUP2 PUSH3 0x1DCD65 PUSH1 0x49 SHL PUSH2 0x3566 JUMP JUMPDEST SWAP1 POP PUSH2 0x3115 PUSH2 0x3110 DUP3 PUSH2 0x35B9 JUMP JUMPDEST PUSH2 0x35DB JUMP JUMPDEST SWAP1 POP PUSH2 0x3127 DUP2 PUSH3 0x1DCD65 PUSH1 0x49 SHL PUSH2 0x3630 JUMP JUMPDEST SWAP1 POP PUSH1 0x0 PUSH2 0x3134 DUP3 PUSH2 0x3666 JUMP JUMPDEST PUSH1 0x7 SIGNEXTEND SWAP6 SWAP5 POP POP POP POP POP JUMP JUMPDEST PUSH1 0x0 PUSH2 0x314D DUP5 DUP5 DUP5 PUSH2 0x2E10 JUMP JUMPDEST SWAP1 POP PUSH2 0x3162 PUSH2 0x315B DUP6 PUSH2 0x366F JUMP JUMPDEST DUP3 SWAP1 PUSH2 0x1E72 JUMP JUMPDEST SWAP1 POP PUSH1 0x0 PUSH2 0x316F DUP6 PUSH2 0x367C JUMP JUMPDEST SWAP1 POP DUP1 DUP3 LT ISZERO PUSH2 0xD2E JUMPI SWAP5 SWAP4 POP POP POP POP JUMP JUMPDEST PUSH1 0x60 ADD MLOAD PUSH3 0x7A120 PUSH1 0x10 SWAP2 SWAP1 SWAP2 SHR PUSH1 0xFF AND MUL PUSH4 0x3B9ACA00 SUB SWAP1 JUMP JUMPDEST PUSH1 0x0 DUP2 SLT ISZERO PUSH2 0x31AA JUMPI PUSH1 0x0 DUP1 REVERT JUMPDEST PUSH1 0x0 PUSH2 0x31B4 PUSH2 0x1765 JUMP JUMPDEST PUSH1 0x1 PUSH1 0x1 PUSH1 0xA0 SHL SUB DUP6 AND PUSH1 0x0 SWAP1 DUP2 MSTORE PUSH1 0x20 DUP3 DUP2 MSTORE PUSH1 0x40 DUP1 DUP4 KECCAK256 PUSH2 0xFFFF DUP9 AND DUP5 MSTORE SWAP1 SWAP2 MSTORE SWAP1 KECCAK256 SWAP1 SWAP2 POP PUSH2 0x31E5 DUP4 PUSH2 0x3689 JUMP JUMPDEST DUP2 SLOAD PUSH1 0xA SWAP2 SWAP1 SWAP2 SIGNEXTEND PUSH1 0x1 PUSH1 0x1 PUSH1 0x58 SHL SUB AND PUSH1 0x1 PUSH1 0xA8 SHL MUL PUSH1 0x1 PUSH1 0x1 PUSH1 0xA8 SHL SUB SWAP1 SWAP2 AND OR SWAP1 SSTORE POP POP POP POP JUMP JUMPDEST PUSH1 0x0 DUP1 PUSH2 0xB60 PUSH1 0x21 PUSH2 0xFE1 JUMP JUMPDEST PUSH1 0x60 ADD MLOAD PUSH2 0x12C PUSH1 0x8 SWAP2 SWAP1 SWAP2 SHR PUSH1 0xFF AND MUL SWAP1 JUMP JUMPDEST PUSH1 0x0 PUSH3 0x76A700 PUSH2 0x3240 DUP6 PUSH2 0x2A29 JUMP JUMPDEST ADD SWAP1 POP PUSH2 0x3252 DUP8 DUP8 DUP8 DUP8 DUP8 DUP8 DUP8 PUSH2 0x36BB JUMP JUMPDEST POP POP POP POP POP POP POP JUMP JUMPDEST PUSH1 0x0 PUSH1 0x2 DUP3 LT DUP1 ISZERO SWAP1 PUSH2 0xB60 JUMPI POP POP PUSH1 0x8 LT ISZERO SWAP1 JUMP JUMPDEST PUSH1 0x0 DUP1 PUSH2 0xB60 PUSH1 0xC PUSH2 0xFE1 JUMP JUMPDEST PUSH1 0x0 DUP1 PUSH1 0x0 DUP6 GT PUSH2 0x328E JUMPI PUSH1 0x0 DUP1 REVERT JUMPDEST PUSH1 0x7 DUP6 GT ISZERO PUSH2 0x329C JUMPI PUSH1 0x0 DUP1 REVERT JUMPDEST PUSH1 0x0 PUSH2 0x32A7 DUP5 PUSH2 0x2A29 JUMP JUMPDEST SWAP1 POP PUSH1 0x1 JUMPDEST DUP7 DUP2 GT PUSH2 0x32FF JUMPI PUSH1 0x0 PUSH2 0x32C8 PUSH2 0x32C1 DUP4 PUSH2 0x2BC8 JUMP JUMPDEST DUP5 SWAP1 PUSH2 0x1E72 JUMP JUMPDEST SWAP1 POP DUP7 DUP2 EQ ISZERO PUSH2 0x32E0 JUMPI POP SWAP3 POP PUSH1 0x0 SWAP2 POP PUSH2 0x850 SWAP1 POP JUMP JUMPDEST DUP7 DUP2 GT ISZERO PUSH2 0x32F6 JUMPI POP SWAP3 POP PUSH1 0x1 SWAP2 POP PUSH2 0x850 SWAP1 POP JUMP JUMPDEST POP PUSH1 0x1 ADD PUSH2 0x32AC JUMP JUMPDEST POP PUSH1 0x0 DUP1 REVERT JUMPDEST PUSH1 0x0 DUP1 PUSH2 0x3310 PUSH2 0x36F2 JUMP JUMPDEST SWAP1 POP PUSH1 0x0 PUSH3 0x76A700 PUSH2 0x3321 DUP6 PUSH2 0x2A29 JUMP JUMPDEST PUSH1 0x0 DUP10 DUP2 MSTORE PUSH1 0x20 DUP6 DUP2 MSTORE PUSH1 0x40 DUP1 DUP4 KECCAK256 DUP12 DUP5 MSTORE DUP3 MSTORE DUP1 DUP4 KECCAK256 SWAP5 SWAP1 SWAP4 ADD DUP1 DUP4 MSTORE SWAP4 SWAP1 MSTORE KECCAK256 DUP1 SLOAD SWAP2 SWAP3 POP SWAP1 PUSH4 0xFFFFFFFF PUSH1 0x1 PUSH1 0xA0 SHL DUP3 DIV DUP2 AND SWAP2 PUSH1 0x1 PUSH1 0xC0 SHL DUP2 DIV DUP3 AND SWAP2 PUSH1 0x1 PUSH1 0xE0 SHL SWAP1 SWAP2 DIV AND DUP2 PUSH2 0x3388 JUMPI PUSH1 0x40 MLOAD PUSH3 0x461BCD PUSH1 0xE5 SHL DUP2 MSTORE PUSH1 0x4 ADD PUSH2 0x1FF SWAP1 PUSH2 0x4A15 JUMP JUMPDEST PUSH2 0x3395 DUP2 DUP5 DUP5 DUP13 DUP13 PUSH2 0x36FF JUMP JUMPDEST SWAP12 SWAP11 POP POP POP POP POP POP POP POP POP POP POP JUMP JUMPDEST PUSH1 0x0 DUP2 DUP7 LT PUSH2 0x33B2 JUMPI PUSH1 0x0 DUP1 REVERT JUMPDEST DUP5 DUP3 LT PUSH2 0x33BE JUMPI PUSH1 0x0 DUP1 REVERT JUMPDEST DUP4 DUP4 LT PUSH2 0x33E4 JUMPI PUSH2 0x33DD DUP5 PUSH2 0x2A8D DUP9 DUP9 SUB PUSH2 0x1E5B DUP4 DUP9 SUB DUP12 DUP9 SUB PUSH2 0x159B JUMP JUMPDEST SWAP1 POP PUSH2 0xDE6 JUMP JUMPDEST PUSH2 0x33DD PUSH2 0x33FB DUP8 DUP8 SUB PUSH2 0x1E5B DUP7 DUP9 SUB DUP11 DUP8 SUB PUSH2 0x159B JUMP JUMPDEST DUP6 SWAP1 PUSH2 0x1E84 JUMP JUMPDEST PUSH1 0x0 DUP1 PUSH2 0xB60 PUSH1 0x1B PUSH2 0xFE1 JUMP JUMPDEST PUSH2 0x3417 PUSH2 0x459F JUMP JUMPDEST PUSH1 0x64 PUSH4 0x3B9ACA00 DUP4 PUSH1 0xFF DUP7 AND PUSH1 0x20 DUP2 LT PUSH2 0x342D JUMPI INVALID JUMPDEST BYTE MUL DUP2 PUSH2 0x3436 JUMPI INVALID JUMPDEST DIV DUP2 MSTORE PUSH1 0x64 PUSH4 0x3B9ACA00 DUP4 PUSH1 0xFF DUP7 AND PUSH1 0x1 ADD PUSH1 0x20 DUP2 LT PUSH2 0x3452 JUMPI INVALID JUMPDEST BYTE MUL DUP2 PUSH2 0x345B JUMPI INVALID JUMPDEST DIV DUP2 PUSH1 0x20 ADD DUP2 DUP2 MSTORE POP POP PUSH2 0x3480 DUP3 PUSH1 0x2 DUP6 PUSH1 0xFF AND ADD PUSH1 0x20 DUP2 LT PUSH2 0x347A JUMPI INVALID JUMPDEST BYTE PUSH2 0x377A JUMP JUMPDEST PUSH1 0x80 DUP3 ADD DUP2 SWAP1 MSTORE PUSH2 0x100 SWAP1 DUP4 PUSH1 0xFF DUP7 AND PUSH1 0x3 ADD PUSH1 0x20 DUP2 LT PUSH2 0x349D JUMPI INVALID JUMPDEST BYTE MUL DUP2 PUSH2 0x34A6 JUMPI INVALID JUMPDEST DIV PUSH1 0x40 DUP3 ADD MSTORE PUSH1 0x80 DUP2 ADD MLOAD PUSH2 0x100 SWAP1 DUP4 PUSH1 0xFF DUP7 AND PUSH1 0x4 ADD PUSH1 0x20 DUP2 LT PUSH2 0x34C7 JUMPI INVALID JUMPDEST BYTE MUL DUP2 PUSH2 0x34D0 JUMPI INVALID JUMPDEST DIV PUSH1 0x60 DUP3 ADD MSTORE PUSH3 0x7A120 DUP3 PUSH1 0xFF DUP6 AND PUSH1 0x5 ADD PUSH1 0x20 DUP2 LT PUSH2 0x34EC JUMPI INVALID JUMPDEST BYTE MUL PUSH1 0xA0 DUP3 ADD MSTORE PUSH3 0x2625A0 DUP3 PUSH1 0xFF DUP6 AND PUSH1 0x6 ADD PUSH1 0x20 DUP2 LT PUSH2 0x3509 JUMPI INVALID JUMPDEST BYTE MUL PUSH1 0xC0 DUP3 ADD MSTORE DUP2 PUSH1 0xFF DUP5 AND PUSH1 0x7 ADD PUSH1 0x20 DUP2 LT PUSH2 0x3522 JUMPI INVALID JUMPDEST BYTE PUSH1 0xE0 DUP3 ADD MSTORE SWAP3 SWAP2 POP POP JUMP JUMPDEST PUSH1 0x0 PUSH2 0xB60 DUP3 PUSH1 0x20 PUSH2 0x37AE JUMP JUMPDEST PUSH1 0x0 PUSH2 0xB60 DUP3 PUSH1 0x48 PUSH2 0x37AE JUMP JUMPDEST PUSH1 0x0 PUSH8 0x7FFFFFFFFFFFFFFF DUP3 GT ISZERO PUSH2 0x355F JUMPI PUSH1 0x0 DUP1 REVERT JUMPDEST POP PUSH1 0x40 SHL SWAP1 JUMP JUMPDEST PUSH1 0x0 DUP2 PUSH1 0xF SIGNEXTEND PUSH1 0x0 EQ ISZERO PUSH2 0x3579 JUMPI PUSH1 0x0 DUP1 REVERT JUMPDEST PUSH1 0x0 DUP3 PUSH1 0xF SIGNEXTEND PUSH1 0x40 DUP6 PUSH1 0xF SIGNEXTEND SWAP1 SHL DUP2 PUSH2 0x358E JUMPI INVALID JUMPDEST SDIV SWAP1 POP PUSH1 0x1 PUSH1 0x1 PUSH1 0x7F SHL SUB NOT DUP2 SLT DUP1 ISZERO SWAP1 PUSH2 0x35B0 JUMPI POP PUSH1 0x1 PUSH1 0x1 PUSH1 0x7F SHL SUB DUP2 SGT ISZERO JUMPDEST PUSH2 0xBA6 JUMPI PUSH1 0x0 DUP1 REVERT JUMPDEST PUSH1 0x0 PUSH1 0xF DUP3 SWAP1 SIGNEXTEND PUSH1 0x1 PUSH1 0x1 PUSH1 0x7F SHL SUB NOT EQ ISZERO PUSH2 0x35D4 JUMPI PUSH1 0x0 DUP1 REVERT JUMPDEST POP PUSH1 0x0 SUB SWAP1 JUMP JUMPDEST PUSH1 0x0 PUSH1 0x1 PUSH1 0x46 SHL DUP3 PUSH1 0xF SIGNEXTEND SLT PUSH2 0x35F0 JUMPI PUSH1 0x0 DUP1 REVERT JUMPDEST PUSH9 0x3FFFFFFFFFFFFFFFFF NOT DUP3 PUSH1 0xF SIGNEXTEND SLT ISZERO PUSH2 0x360D JUMPI POP PUSH1 0x0 PUSH2 0x34D JUMP JUMPDEST PUSH2 0xB60 PUSH1 0x80 DUP4 PUSH1 0xF SIGNEXTEND PUSH17 0x171547652B82FE1777D0FFDA0D23A7D12 MUL SWAP1 SAR PUSH2 0x37C1 JUMP JUMPDEST PUSH1 0x0 PUSH1 0xF DUP4 DUP2 SIGNEXTEND SWAP1 DUP4 SWAP1 SIGNEXTEND MUL PUSH1 0x40 SAR PUSH1 0x1 PUSH1 0x1 PUSH1 0x7F SHL SUB NOT DUP2 SLT DUP1 ISZERO SWAP1 PUSH2 0x35B0 JUMPI POP PUSH1 0x1 PUSH1 0x1 PUSH1 0x7F SHL SUB DUP2 SGT ISZERO PUSH2 0xBA6 JUMPI PUSH1 0x0 DUP1 REVERT JUMPDEST PUSH1 0xF SIGNEXTEND PUSH1 0x40 SAR SWAP1 JUMP JUMPDEST PUSH1 0x0 PUSH2 0xB60 DUP3 PUSH1 0x28 PUSH2 0x37AE JUMP JUMPDEST PUSH1 0x0 PUSH2 0xB60 DUP3 PUSH1 0x30 PUSH2 0x37AE JUMP JUMPDEST PUSH1 0x0 PUSH11 0x7FFFFFFFFFFFFFFFFFFFFF NOT DUP3 SLT DUP1 ISZERO SWAP1 PUSH2 0x36B2 JUMPI POP PUSH11 0x7FFFFFFFFFFFFFFFFFFFFF DUP3 SGT ISZERO JUMPDEST PUSH2 0x15D8 JUMPI PUSH1 0x0 DUP1 REVERT JUMPDEST PUSH2 0x36C8 DUP8 DUP8 DUP8 DUP7 DUP6 PUSH2 0x4271 JUMP JUMPDEST PUSH2 0x36E1 DUP8 PUSH1 0xE0 ADD MLOAD DUP9 PUSH1 0xA0 ADD MLOAD DUP10 PUSH1 0xC0 ADD MLOAD DUP6 DUP9 PUSH2 0x36FF JUMP JUMPDEST PUSH1 0xC0 SWAP1 SWAP8 ADD SWAP7 SWAP1 SWAP7 MSTORE POP POP POP POP POP POP JUMP JUMPDEST PUSH1 0x0 DUP1 PUSH2 0xB60 PUSH1 0xA PUSH2 0xFE1 JUMP JUMPDEST PUSH1 0x0 DUP1 DUP4 GT PUSH2 0x370D JUMPI PUSH1 0x0 DUP1 REVERT JUMPDEST DUP2 DUP7 GT ISZERO PUSH2 0x371C JUMPI POP DUP4 PUSH2 0xDE6 JUMP JUMPDEST PUSH1 0x0 PUSH2 0x3728 DUP4 DUP9 PUSH2 0x1E84 JUMP JUMPDEST SWAP1 POP DUP4 DUP2 GT ISZERO PUSH2 0x373B JUMPI DUP6 SWAP2 POP POP PUSH2 0xDE6 JUMP JUMPDEST PUSH1 0x0 PUSH2 0x3747 DUP3 DUP7 PUSH2 0x2EF9 JUMP JUMPDEST SWAP1 POP PUSH1 0x0 PUSH2 0x3759 PUSH4 0x3B9ACA00 DUP4 PUSH2 0x1E84 JUMP JUMPDEST SWAP1 POP PUSH2 0x26FE PUSH4 0x3B9ACA00 PUSH2 0x1E5B PUSH2 0x3770 DUP11 DUP6 PUSH2 0x159B JUMP JUMPDEST PUSH2 0x2A8D DUP13 DUP8 PUSH2 0x159B JUMP JUMPDEST PUSH1 0x0 DUP2 PUSH1 0xFF AND PUSH1 0x96 LT PUSH2 0x3795 JUMPI PUSH1 0xFF DUP3 AND PUSH3 0x2625A0 MUL PUSH2 0xB60 JUMP JUMPDEST POP PUSH1 0x95 NOT PUSH1 0xFF SWAP2 SWAP1 SWAP2 AND ADD PUSH3 0xE4E1C0 MUL PUSH4 0x165A0BC0 ADD SWAP1 JUMP JUMPDEST PUSH1 0x60 SWAP1 SWAP2 ADD MLOAD PUSH1 0xFF SWAP2 SHR AND PUSH3 0x2625A0 MUL SWAP1 JUMP JUMPDEST PUSH1 0x0 PUSH1 0x1 PUSH1 0x46 SHL DUP3 PUSH1 0xF SIGNEXTEND SLT PUSH2 0x37D6 JUMPI PUSH1 0x0 DUP1 REVERT JUMPDEST PUSH9 0x3FFFFFFFFFFFFFFFFF NOT DUP3 PUSH1 0xF SIGNEXTEND SLT ISZERO PUSH2 0x37F3 JUMPI POP PUSH1 0x0 PUSH2 0x34D JUMP JUMPDEST PUSH1 0x1 PUSH1 0x7F SHL PUSH1 0x0 PUSH8 0x8000000000000000 DUP5 AND PUSH1 0xF SIGNEXTEND SGT ISZERO PUSH2 0x3825 JUMPI PUSH17 0x16A09E667F3BCC908B2FB1366EA957D3E MUL PUSH1 0x80 SHR JUMPDEST PUSH1 0x0 DUP4 PUSH8 0x4000000000000000 AND PUSH1 0xF SIGNEXTEND SGT ISZERO PUSH2 0x3852 JUMPI PUSH17 0x1306FE0A31B7152DE8D5A46305C85EDEC MUL PUSH1 0x80 SHR JUMPDEST PUSH1 0x0 DUP4 PUSH8 0x2000000000000000 AND PUSH1 0xF SIGNEXTEND SGT ISZERO PUSH2 0x387F JUMPI PUSH17 0x1172B83C7D517ADCDF7C8C50EB14A791F MUL PUSH1 0x80 SHR JUMPDEST PUSH1 0x0 DUP4 PUSH8 0x1000000000000000 AND PUSH1 0xF SIGNEXTEND SGT ISZERO PUSH2 0x38AC JUMPI PUSH17 0x10B5586CF9890F6298B92B71842A98363 MUL PUSH1 0x80 SHR JUMPDEST PUSH1 0x0 DUP4 PUSH8 0x800000000000000 AND PUSH1 0xF SIGNEXTEND SGT ISZERO PUSH2 0x38D9 JUMPI PUSH17 0x1059B0D31585743AE7C548EB68CA417FD MUL PUSH1 0x80 SHR JUMPDEST PUSH1 0x0 DUP4 PUSH8 0x400000000000000 AND PUSH1 0xF SIGNEXTEND SGT ISZERO PUSH2 0x3906 JUMPI PUSH17 0x102C9A3E778060EE6F7CACA4F7A29BDE8 MUL PUSH1 0x80 SHR JUMPDEST PUSH1 0x0 DUP4 PUSH8 0x200000000000000 AND PUSH1 0xF SIGNEXTEND SGT ISZERO PUSH2 0x3933 JUMPI PUSH17 0x10163DA9FB33356D84A66AE336DCDFA3F MUL PUSH1 0x80 SHR JUMPDEST PUSH1 0x0 DUP4 PUSH1 0x1 PUSH1 0x38 SHL AND PUSH1 0xF SIGNEXTEND SGT ISZERO PUSH2 0x395C JUMPI PUSH17 0x100B1AFA5ABCBED6129AB13EC11DC9543 MUL PUSH1 0x80 SHR JUMPDEST PUSH1 0x0 DUP4 PUSH7 0x80000000000000 AND PUSH1 0xF SIGNEXTEND SGT ISZERO PUSH2 0x3988 JUMPI PUSH17 0x10058C86DA1C09EA1FF19D294CF2F679B MUL PUSH1 0x80 SHR JUMPDEST PUSH1 0x0 DUP4 PUSH7 0x40000000000000 AND PUSH1 0xF SIGNEXTEND SGT ISZERO PUSH2 0x39B4 JUMPI PUSH17 0x1002C605E2E8CEC506D21BFC89A23A00F MUL PUSH1 0x80 SHR JUMPDEST PUSH1 0x0 DUP4 PUSH7 0x20000000000000 AND PUSH1 0xF SIGNEXTEND SGT ISZERO PUSH2 0x39E0 JUMPI PUSH17 0x100162F3904051FA128BCA9C55C31E5DF MUL PUSH1 0x80 SHR JUMPDEST PUSH1 0x0 DUP4 PUSH7 0x10000000000000 AND PUSH1 0xF SIGNEXTEND SGT ISZERO PUSH2 0x3A0C JUMPI PUSH17 0x1000B175EFFDC76BA38E31671CA939725 MUL PUSH1 0x80 SHR JUMPDEST PUSH1 0x0 DUP4 PUSH7 0x8000000000000 AND PUSH1 0xF SIGNEXTEND SGT ISZERO PUSH2 0x3A38 JUMPI PUSH17 0x100058BA01FB9F96D6CACD4B180917C3D MUL PUSH1 0x80 SHR JUMPDEST PUSH1 0x0 DUP4 PUSH7 0x4000000000000 AND PUSH1 0xF SIGNEXTEND SGT ISZERO PUSH2 0x3A64 JUMPI PUSH17 0x10002C5CC37DA9491D0985C348C68E7B3 MUL PUSH1 0x80 SHR JUMPDEST PUSH1 0x0 DUP4 PUSH7 0x2000000000000 AND PUSH1 0xF SIGNEXTEND SGT ISZERO PUSH2 0x3A90 JUMPI PUSH17 0x1000162E525EE054754457D5995292026 MUL PUSH1 0x80 SHR JUMPDEST PUSH1 0x0 DUP4 PUSH1 0x1 PUSH1 0x30 SHL AND PUSH1 0xF SIGNEXTEND SGT ISZERO PUSH2 0x3AB9 JUMPI PUSH17 0x10000B17255775C040618BF4A4ADE83FC MUL PUSH1 0x80 SHR JUMPDEST PUSH1 0x0 DUP4 PUSH6 0x800000000000 AND PUSH1 0xF SIGNEXTEND SGT ISZERO PUSH2 0x3AE4 JUMPI PUSH17 0x1000058B91B5BC9AE2EED81E9B7D4CFAB MUL PUSH1 0x80 SHR JUMPDEST PUSH1 0x0 DUP4 PUSH6 0x400000000000 AND PUSH1 0xF SIGNEXTEND SGT ISZERO PUSH2 0x3B0F JUMPI PUSH17 0x100002C5C89D5EC6CA4D7C8ACC017B7C9 MUL PUSH1 0x80 SHR JUMPDEST PUSH1 0x0 DUP4 PUSH6 0x200000000000 AND PUSH1 0xF SIGNEXTEND SGT ISZERO PUSH2 0x3B3A JUMPI PUSH17 0x10000162E43F4F831060E02D839A9D16D MUL PUSH1 0x80 SHR JUMPDEST PUSH1 0x0 DUP4 PUSH6 0x100000000000 AND PUSH1 0xF SIGNEXTEND SGT ISZERO PUSH2 0x3B65 JUMPI PUSH17 0x100000B1721BCFC99D9F890EA06911763 MUL PUSH1 0x80 SHR JUMPDEST PUSH1 0x0 DUP4 PUSH6 0x80000000000 AND PUSH1 0xF SIGNEXTEND SGT ISZERO PUSH2 0x3B90 JUMPI PUSH17 0x10000058B90CF1E6D97F9CA14DBCC1628 MUL PUSH1 0x80 SHR JUMPDEST PUSH1 0x0 DUP4 PUSH6 0x40000000000 AND PUSH1 0xF SIGNEXTEND SGT ISZERO PUSH2 0x3BBB JUMPI PUSH17 0x1000002C5C863B73F016468F6BAC5CA2B MUL PUSH1 0x80 SHR JUMPDEST PUSH1 0x0 DUP4 PUSH6 0x20000000000 AND PUSH1 0xF SIGNEXTEND SGT ISZERO PUSH2 0x3BE6 JUMPI PUSH17 0x100000162E430E5A18F6119E3C02282A5 MUL PUSH1 0x80 SHR JUMPDEST PUSH1 0x0 DUP4 PUSH1 0x1 PUSH1 0x28 SHL AND PUSH1 0xF SIGNEXTEND SGT ISZERO PUSH2 0x3C0F JUMPI PUSH17 0x1000000B1721835514B86E6D96EFD1BFE MUL PUSH1 0x80 SHR JUMPDEST PUSH1 0x0 DUP4 PUSH5 0x8000000000 AND PUSH1 0xF SIGNEXTEND SGT ISZERO PUSH2 0x3C39 JUMPI PUSH17 0x100000058B90C0B48C6BE5DF846C5B2EF MUL PUSH1 0x80 SHR JUMPDEST PUSH1 0x0 DUP4 PUSH5 0x4000000000 AND PUSH1 0xF SIGNEXTEND SGT ISZERO PUSH2 0x3C63 JUMPI PUSH17 0x10000002C5C8601CC6B9E94213C72737A MUL PUSH1 0x80 SHR JUMPDEST PUSH1 0x0 DUP4 PUSH5 0x2000000000 AND PUSH1 0xF SIGNEXTEND SGT ISZERO PUSH2 0x3C8D JUMPI PUSH17 0x1000000162E42FFF037DF38AA2B219F06 MUL PUSH1 0x80 SHR JUMPDEST PUSH1 0x0 DUP4 PUSH5 0x1000000000 AND PUSH1 0xF SIGNEXTEND SGT ISZERO PUSH2 0x3CB7 JUMPI PUSH17 0x10000000B17217FBA9C739AA5819F44F9 MUL PUSH1 0x80 SHR JUMPDEST PUSH1 0x0 DUP4 PUSH5 0x800000000 AND PUSH1 0xF SIGNEXTEND SGT ISZERO PUSH2 0x3CE1 JUMPI PUSH17 0x1000000058B90BFCDEE5ACD3C1CEDC823 MUL PUSH1 0x80 SHR JUMPDEST PUSH1 0x0 DUP4 PUSH5 0x400000000 AND PUSH1 0xF SIGNEXTEND SGT ISZERO PUSH2 0x3D0B JUMPI PUSH17 0x100000002C5C85FE31F35A6A30DA1BE50 MUL PUSH1 0x80 SHR JUMPDEST PUSH1 0x0 DUP4 PUSH5 0x200000000 AND PUSH1 0xF SIGNEXTEND SGT ISZERO PUSH2 0x3D35 JUMPI PUSH17 0x10000000162E42FF0999CE3541B9FFFCF MUL PUSH1 0x80 SHR JUMPDEST PUSH1 0x0 DUP4 PUSH5 0x100000000 AND PUSH1 0xF SIGNEXTEND SGT ISZERO PUSH2 0x3D5F JUMPI PUSH17 0x100000000B17217F80F4EF5AADDA45554 MUL PUSH1 0x80 SHR JUMPDEST PUSH1 0x0 DUP4 PUSH4 0x80000000 AND PUSH1 0xF SIGNEXTEND SGT ISZERO PUSH2 0x3D88 JUMPI PUSH17 0x10000000058B90BFBF8479BD5A81B51AD MUL PUSH1 0x80 SHR JUMPDEST PUSH1 0x0 DUP4 PUSH4 0x40000000 AND PUSH1 0xF SIGNEXTEND SGT ISZERO PUSH2 0x3DB1 JUMPI PUSH17 0x1000000002C5C85FDF84BD62AE30A74CC MUL PUSH1 0x80 SHR JUMPDEST PUSH1 0x0 DUP4 PUSH4 0x20000000 AND PUSH1 0xF SIGNEXTEND SGT ISZERO PUSH2 0x3DDA JUMPI PUSH17 0x100000000162E42FEFB2FED257559BDAA MUL PUSH1 0x80 SHR JUMPDEST PUSH1 0x0 DUP4 PUSH4 0x10000000 AND PUSH1 0xF SIGNEXTEND SGT ISZERO PUSH2 0x3E03 JUMPI PUSH17 0x1000000000B17217F7D5A7716BBA4A9AE MUL PUSH1 0x80 SHR JUMPDEST PUSH1 0x0 DUP4 PUSH4 0x8000000 AND PUSH1 0xF SIGNEXTEND SGT ISZERO PUSH2 0x3E2C JUMPI PUSH17 0x100000000058B90BFBE9DDBAC5E109CCE MUL PUSH1 0x80 SHR JUMPDEST PUSH1 0x0 DUP4 PUSH4 0x4000000 AND PUSH1 0xF SIGNEXTEND SGT ISZERO PUSH2 0x3E55 JUMPI PUSH17 0x10000000002C5C85FDF4B15DE6F17EB0D MUL PUSH1 0x80 SHR JUMPDEST PUSH1 0x0 DUP4 PUSH4 0x2000000 AND PUSH1 0xF SIGNEXTEND SGT ISZERO PUSH2 0x3E7E JUMPI PUSH17 0x1000000000162E42FEFA494F1478FDE05 MUL PUSH1 0x80 SHR JUMPDEST PUSH1 0x0 DUP4 PUSH4 0x1000000 AND PUSH1 0xF SIGNEXTEND SGT ISZERO PUSH2 0x3EA7 JUMPI PUSH17 0x10000000000B17217F7D20CF927C8E94C MUL PUSH1 0x80 SHR JUMPDEST PUSH1 0x0 DUP4 PUSH3 0x800000 AND PUSH1 0xF SIGNEXTEND SGT ISZERO PUSH2 0x3ECF JUMPI PUSH17 0x1000000000058B90BFBE8F71CB4E4B33D MUL PUSH1 0x80 SHR JUMPDEST PUSH1 0x0 DUP4 PUSH3 0x400000 AND PUSH1 0xF SIGNEXTEND SGT ISZERO PUSH2 0x3EF7 JUMPI PUSH17 0x100000000002C5C85FDF477B662B26945 MUL PUSH1 0x80 SHR JUMPDEST PUSH1 0x0 DUP4 PUSH3 0x200000 AND PUSH1 0xF SIGNEXTEND SGT ISZERO PUSH2 0x3F1F JUMPI PUSH17 0x10000000000162E42FEFA3AE53369388C MUL PUSH1 0x80 SHR JUMPDEST PUSH1 0x0 DUP4 PUSH3 0x100000 AND PUSH1 0xF SIGNEXTEND SGT ISZERO PUSH2 0x3F47 JUMPI PUSH17 0x100000000000B17217F7D1D351A389D40 MUL PUSH1 0x80 SHR JUMPDEST PUSH1 0x0 DUP4 PUSH3 0x80000 AND PUSH1 0xF SIGNEXTEND SGT ISZERO PUSH2 0x3F6F JUMPI PUSH17 0x10000000000058B90BFBE8E8B2D3D4EDE MUL PUSH1 0x80 SHR JUMPDEST PUSH1 0x0 DUP4 PUSH3 0x40000 AND PUSH1 0xF SIGNEXTEND SGT ISZERO PUSH2 0x3F97 JUMPI PUSH17 0x1000000000002C5C85FDF4741BEA6E77E MUL PUSH1 0x80 SHR JUMPDEST PUSH1 0x0 DUP4 PUSH3 0x20000 AND PUSH1 0xF SIGNEXTEND SGT ISZERO PUSH2 0x3FBF JUMPI PUSH17 0x100000000000162E42FEFA39FE95583C2 MUL PUSH1 0x80 SHR JUMPDEST PUSH1 0x0 DUP4 PUSH3 0x10000 AND PUSH1 0xF SIGNEXTEND SGT ISZERO PUSH2 0x3FE7 JUMPI PUSH17 0x1000000000000B17217F7D1CFB72B45E1 MUL PUSH1 0x80 SHR JUMPDEST PUSH1 0x0 DUP4 PUSH2 0x8000 AND PUSH1 0xF SIGNEXTEND SGT ISZERO PUSH2 0x400E JUMPI PUSH17 0x100000000000058B90BFBE8E7CC35C3F0 MUL PUSH1 0x80 SHR JUMPDEST PUSH1 0x0 DUP4 PUSH2 0x4000 AND PUSH1 0xF SIGNEXTEND SGT ISZERO PUSH2 0x4035 JUMPI PUSH17 0x10000000000002C5C85FDF473E242EA38 MUL PUSH1 0x80 SHR JUMPDEST PUSH1 0x0 DUP4 PUSH2 0x2000 AND PUSH1 0xF SIGNEXTEND SGT ISZERO PUSH2 0x405C JUMPI PUSH17 0x1000000000000162E42FEFA39F02B772C MUL PUSH1 0x80 SHR JUMPDEST PUSH1 0x0 DUP4 PUSH2 0x1000 AND PUSH1 0xF SIGNEXTEND SGT ISZERO PUSH2 0x4083 JUMPI PUSH17 0x10000000000000B17217F7D1CF7D83C1A MUL PUSH1 0x80 SHR JUMPDEST PUSH1 0x0 DUP4 PUSH2 0x800 AND PUSH1 0xF SIGNEXTEND SGT ISZERO PUSH2 0x40AA JUMPI PUSH17 0x1000000000000058B90BFBE8E7BDCBE2E MUL PUSH1 0x80 SHR JUMPDEST PUSH1 0x0 DUP4 PUSH2 0x400 AND PUSH1 0xF SIGNEXTEND SGT ISZERO PUSH2 0x40D1 JUMPI PUSH17 0x100000000000002C5C85FDF473DEA871F MUL PUSH1 0x80 SHR JUMPDEST PUSH1 0x0 DUP4 PUSH2 0x200 AND PUSH1 0xF SIGNEXTEND SGT ISZERO PUSH2 0x40F8 JUMPI PUSH17 0x10000000000000162E42FEFA39EF44D91 MUL PUSH1 0x80 SHR JUMPDEST PUSH1 0x0 DUP4 PUSH2 0x100 AND PUSH1 0xF SIGNEXTEND SGT ISZERO PUSH2 0x411F JUMPI PUSH17 0x100000000000000B17217F7D1CF79E949 MUL PUSH1 0x80 SHR JUMPDEST PUSH1 0x0 DUP4 PUSH1 0x80 AND PUSH1 0xF SIGNEXTEND SGT ISZERO PUSH2 0x4145 JUMPI PUSH17 0x10000000000000058B90BFBE8E7BCE544 MUL PUSH1 0x80 SHR JUMPDEST PUSH1 0x0 DUP4 PUSH1 0x40 AND PUSH1 0xF SIGNEXTEND SGT ISZERO PUSH2 0x416B JUMPI PUSH17 0x1000000000000002C5C85FDF473DE6ECA MUL PUSH1 0x80 SHR JUMPDEST PUSH1 0x0 DUP4 PUSH1 0x20 AND PUSH1 0xF SIGNEXTEND SGT ISZERO PUSH2 0x4191 JUMPI PUSH17 0x100000000000000162E42FEFA39EF366F MUL PUSH1 0x80 SHR JUMPDEST PUSH1 0x0 DUP4 PUSH1 0x10 AND PUSH1 0xF SIGNEXTEND SGT ISZERO PUSH2 0x41B7 JUMPI PUSH17 0x1000000000000000B17217F7D1CF79AFA MUL PUSH1 0x80 SHR JUMPDEST PUSH1 0x0 DUP4 PUSH1 0x8 AND PUSH1 0xF SIGNEXTEND SGT ISZERO PUSH2 0x41DD JUMPI PUSH17 0x100000000000000058B90BFBE8E7BCD6D MUL PUSH1 0x80 SHR JUMPDEST PUSH1 0x0 DUP4 PUSH1 0x4 AND PUSH1 0xF SIGNEXTEND SGT ISZERO PUSH2 0x4203 JUMPI PUSH17 0x10000000000000002C5C85FDF473DE6B2 MUL PUSH1 0x80 SHR JUMPDEST PUSH1 0x0 DUP4 PUSH1 0x2 AND PUSH1 0xF SIGNEXTEND SGT ISZERO PUSH2 0x4229 JUMPI PUSH17 0x1000000000000000162E42FEFA39EF358 MUL PUSH1 0x80 SHR JUMPDEST PUSH1 0x0 DUP4 PUSH1 0x1 AND PUSH1 0xF SIGNEXTEND SGT ISZERO PUSH2 0x424F JUMPI PUSH17 0x10000000000000000B17217F7D1CF79AB MUL PUSH1 0x80 SHR JUMPDEST PUSH1 0xF DUP4 DUP2 SIGNEXTEND PUSH1 0x40 SAR PUSH1 0x3F SUB SWAP1 SIGNEXTEND SHR PUSH1 0x1 PUSH1 0x1 PUSH1 0x7F SHL SUB DUP2 GT ISZERO PUSH2 0xB60 JUMPI PUSH1 0x0 DUP1 REVERT JUMPDEST PUSH1 0x0 PUSH2 0x427B PUSH2 0x36F2 JUMP JUMPDEST PUSH1 0x0 DUP7 DUP2 MSTORE PUSH1 0x20 DUP3 DUP2 MSTORE PUSH1 0x40 DUP1 DUP4 KECCAK256 DUP9 DUP5 MSTORE DUP3 MSTORE DUP1 DUP4 KECCAK256 DUP7 DUP5 MSTORE DUP3 MSTORE SWAP2 DUP3 SWAP1 KECCAK256 DUP1 DUP11 MSTORE SWAP1 DUP10 ADD DUP8 SWAP1 MSTORE DUP1 SLOAD PUSH1 0x1 PUSH1 0x1 PUSH1 0x50 SHL SUB DUP1 DUP3 AND SWAP4 DUP12 ADD SWAP4 SWAP1 SWAP4 MSTORE PUSH1 0x1 PUSH1 0x50 SHL DUP2 DIV SWAP1 SWAP3 AND PUSH1 0x60 DUP11 ADD MSTORE PUSH4 0xFFFFFFFF PUSH1 0x1 PUSH1 0xA0 SHL DUP4 DIV DUP2 AND PUSH1 0xA0 DUP12 ADD MSTORE PUSH1 0x1 PUSH1 0xC0 SHL DUP4 DIV DUP2 AND PUSH1 0xC0 DUP12 ADD MSTORE PUSH1 0x1 PUSH1 0xE0 SHL SWAP1 SWAP3 DIV SWAP1 SWAP2 AND PUSH1 0xE0 DUP10 ADD MSTORE SWAP1 SWAP2 POP DUP1 DUP5 ISZERO PUSH2 0x431A JUMPI PUSH1 0x1 DUP3 ADD SLOAD PUSH1 0x1 PUSH1 0x1 PUSH1 0x50 SHL SUB AND PUSH1 0x80 DUP10 ADD MSTORE PUSH2 0x29F8 JUMP JUMPDEST PUSH1 0x0 PUSH1 0x80 DUP10 ADD MSTORE POP POP POP POP POP POP POP POP JUMP JUMPDEST PUSH1 0x40 DUP1 MLOAD PUSH1 0xC0 DUP2 ADD DUP3 MSTORE PUSH1 0x0 DUP1 DUP3 MSTORE PUSH1 0x20 DUP3 ADD DUP2 SWAP1 MSTORE SWAP2 DUP2 ADD DUP3 SWAP1 MSTORE PUSH1 0x60 DUP2 ADD DUP3 SWAP1 MSTORE PUSH1 0x80 DUP2 ADD DUP3 SWAP1 MSTORE PUSH1 0xA0 DUP2 ADD SWAP2 SWAP1 SWAP2 MSTORE SWAP1 JUMP JUMPDEST PUSH1 0x40 MLOAD DUP1 PUSH2 0x160 ADD PUSH1 0x40 MSTORE DUP1 PUSH1 0x0 PUSH1 0x1 PUSH1 0x1 PUSH1 0xA0 SHL SUB AND DUP2 MSTORE PUSH1 0x20 ADD PUSH1 0x0 DUP2 MSTORE PUSH1 0x20 ADD PUSH1 0x0 DUP2 MSTORE PUSH1 0x20 ADD PUSH1 0x0 DUP2 MSTORE PUSH1 0x20 ADD PUSH1 0x0 DUP2 MSTORE PUSH1 0x20 ADD PUSH1 0x0 PUSH1 0x1 PUSH1 0x1 PUSH1 0xD0 SHL SUB NOT AND DUP2 MSTORE PUSH1 0x20 ADD PUSH2 0x43B1 PUSH2 0x4454 JUMP JUMPDEST DUP2 MSTORE PUSH1 0x20 ADD PUSH2 0x43BE PUSH2 0x4454 JUMP JUMPDEST DUP2 MSTORE PUSH1 0x20 ADD PUSH2 0x43CB PUSH2 0x4483 JUMP JUMPDEST DUP2 MSTORE PUSH1 0x20 ADD PUSH2 0x43D8 PUSH2 0x4435 JUMP JUMPDEST DUP2 MSTORE PUSH1 0x0 PUSH1 0x20 SWAP1 SWAP2 ADD MSTORE SWAP1 JUMP JUMPDEST PUSH1 0x40 MLOAD DUP1 PUSH1 0xE0 ADD PUSH1 0x40 MSTORE DUP1 PUSH1 0x0 DUP2 MSTORE PUSH1 0x20 ADD PUSH1 0x0 ISZERO ISZERO DUP2 MSTORE PUSH1 0x20 ADD PUSH1 0x0 DUP2 MSTORE PUSH1 0x20 ADD PUSH2 0x440F PUSH2 0x4435 JUMP JUMPDEST DUP2 MSTORE PUSH1 0x20 ADD PUSH1 0x60 DUP2 MSTORE PUSH1 0x20 ADD PUSH2 0x4423 PUSH2 0x4483 JUMP JUMPDEST DUP2 MSTORE PUSH1 0x20 ADD PUSH2 0x4430 PUSH2 0x45E4 JUMP JUMPDEST SWAP1 MSTORE SWAP1 JUMP JUMPDEST PUSH1 0x40 DUP1 MLOAD PUSH1 0x80 DUP2 ADD DUP3 MSTORE PUSH1 0x0 DUP1 DUP3 MSTORE PUSH1 0x20 DUP3 ADD MSTORE SWAP1 DUP2 ADD PUSH2 0x43D8 PUSH2 0x4483 JUMP JUMPDEST PUSH1 0x40 MLOAD DUP1 PUSH1 0xA0 ADD PUSH1 0x40 MSTORE DUP1 PUSH1 0x0 DUP2 MSTORE PUSH1 0x20 ADD PUSH1 0x0 DUP2 MSTORE PUSH1 0x20 ADD PUSH1 0x0 DUP2 MSTORE PUSH1 0x20 ADD PUSH1 0x0 DUP2 MSTORE PUSH1 0x20 ADD PUSH1 0x0 DUP2 MSTORE POP SWAP1 JUMP JUMPDEST PUSH1 0x40 MLOAD DUP1 PUSH1 0x60 ADD PUSH1 0x40 MSTORE DUP1 PUSH1 0x0 DUP2 MSTORE PUSH1 0x20 ADD PUSH1 0x0 DUP2 MSTORE PUSH1 0x20 ADD PUSH1 0x0 DUP2 MSTORE POP SWAP1 JUMP JUMPDEST PUSH1 0x40 MLOAD DUP1 PUSH2 0x120 ADD PUSH1 0x40 MSTORE DUP1 PUSH1 0x0 DUP2 MSTORE PUSH1 0x20 ADD PUSH1 0x0 DUP2 MSTORE PUSH1 0x20 ADD PUSH1 0x0 DUP2 MSTORE PUSH1 0x20 ADD PUSH1 0x0 DUP2 MSTORE PUSH1 0x20 ADD PUSH1 0x0 DUP2 MSTORE PUSH1 0x20 ADD PUSH1 0x0 DUP2 MSTORE PUSH1 0x20 ADD PUSH1 0x0 DUP2 MSTORE PUSH1 0x20 ADD PUSH1 0x0 DUP2 MSTORE PUSH1 0x20 ADD PUSH1 0x0 DUP2 MSTORE POP SWAP1 JUMP JUMPDEST PUSH1 0x40 MLOAD DUP1 PUSH1 0xC0 ADD PUSH1 0x40 MSTORE DUP1 PUSH1 0x0 PUSH2 0xFFFF AND DUP2 MSTORE PUSH1 0x20 ADD PUSH1 0x0 DUP2 MSTORE PUSH1 0x20 ADD PUSH1 0x0 DUP2 MSTORE PUSH1 0x20 ADD PUSH1 0x0 DUP2 MSTORE PUSH1 0x20 ADD PUSH1 0x0 DUP2 MSTORE PUSH1 0x20 ADD PUSH1 0x0 PUSH1 0x3 DUP2 GT ISZERO PUSH2 0x4430 JUMPI INVALID JUMPDEST PUSH1 0x40 MLOAD DUP1 PUSH1 0x80 ADD PUSH1 0x40 MSTORE DUP1 PUSH1 0x60 DUP2 MSTORE PUSH1 0x20 ADD PUSH1 0x60 DUP2 MSTORE PUSH1 0x20 ADD PUSH1 0x0 DUP2 MSTORE PUSH1 0x20 ADD PUSH1 0x0 DUP2 MSTORE POP SWAP1 JUMP JUMPDEST PUSH1 0x40 MLOAD DUP1 PUSH2 0x100 ADD PUSH1 0x40 MSTORE DUP1 PUSH1 0x0 DUP1 NOT AND DUP2 MSTORE PUSH1 0x20 ADD PUSH1 0x0 DUP2 MSTORE PUSH1 0x20 ADD PUSH1 0x0 DUP2 MSTORE PUSH1 0x20 ADD PUSH1 0x0 DUP2 MSTORE PUSH1 0x20 ADD PUSH1 0x0 DUP2 MSTORE PUSH1 0x20 ADD PUSH1 0x0 DUP2 MSTORE PUSH1 0x20 ADD PUSH1 0x0 DUP2 MSTORE PUSH1 0x20 ADD PUSH1 0x0 DUP2 MSTORE POP SWAP1 JUMP JUMPDEST PUSH1 0x40 MLOAD DUP1 PUSH2 0x100 ADD PUSH1 0x40 MSTORE DUP1 PUSH1 0x0 DUP2 MSTORE PUSH1 0x20 ADD PUSH1 0x0 DUP2 MSTORE PUSH1 0x20 ADD PUSH1 0x0 DUP2 MSTORE PUSH1 0x20 ADD PUSH1 0x0 DUP2 MSTORE PUSH1 0x20 ADD PUSH1 0x0 DUP2 MSTORE PUSH1 0x20 ADD PUSH1 0x0 DUP2 MSTORE PUSH1 0x20 ADD PUSH1 0x0 DUP2 MSTORE PUSH1 0x20 ADD PUSH1 0x0 DUP2 MSTORE POP SWAP1 JUMP JUMPDEST PUSH1 0x40 MLOAD DUP1 PUSH1 0xE0 ADD PUSH1 0x40 MSTORE DUP1 PUSH2 0x45F7 PUSH2 0x4435 JUMP JUMPDEST DUP2 MSTORE PUSH1 0x20 ADD PUSH2 0x4604 PUSH2 0x452F JUMP JUMPDEST DUP2 MSTORE PUSH1 0x0 PUSH1 0x20 DUP3 ADD DUP2 SWAP1 MSTORE PUSH1 0x40 DUP3 ADD DUP2 SWAP1 MSTORE PUSH1 0x60 DUP3 ADD DUP2 SWAP1 MSTORE PUSH1 0x80 DUP3 ADD DUP2 SWAP1 MSTORE PUSH1 0xA0 SWAP1 SWAP2 ADD MSTORE SWAP1 JUMP JUMPDEST DUP1 CALLDATALOAD PUSH1 0x1 PUSH1 0x1 PUSH1 0xA0 SHL SUB DUP2 AND DUP2 EQ PUSH2 0x34D JUMPI PUSH1 0x0 DUP1 REVERT JUMPDEST DUP1 MLOAD DUP1 ISZERO ISZERO DUP2 EQ PUSH2 0x34D JUMPI PUSH1 0x0 DUP1 REVERT JUMPDEST DUP1 MLOAD PUSH1 0x1 PUSH1 0x1 PUSH1 0x70 SHL SUB NOT DUP2 AND DUP2 EQ PUSH2 0x34D JUMPI PUSH1 0x0 DUP1 REVERT JUMPDEST DUP1 MLOAD PUSH1 0x1 PUSH1 0x1 PUSH1 0xF8 SHL SUB NOT DUP2 AND DUP2 EQ PUSH2 0x34D JUMPI PUSH1 0x0 DUP1 REVERT JUMPDEST DUP1 MLOAD PUSH2 0xFFFF DUP2 AND DUP2 EQ PUSH2 0x34D JUMPI PUSH1 0x0 DUP1 REVERT JUMPDEST DUP1 MLOAD PUSH1 0x1 PUSH1 0x1 PUSH1 0x50 SHL SUB DUP2 AND DUP2 EQ PUSH2 0x34D JUMPI PUSH1 0x0 DUP1 REVERT JUMPDEST DUP1 MLOAD PUSH1 0xFF DUP2 AND DUP2 EQ PUSH2 0x34D JUMPI PUSH1 0x0 DUP1 REVERT JUMPDEST PUSH1 0x0 PUSH1 0x20 DUP3 DUP5 SUB SLT ISZERO PUSH2 0x46CF JUMPI DUP1 DUP2 REVERT JUMPDEST PUSH2 0xBA6 DUP3 PUSH2 0x462D JUMP JUMPDEST PUSH1 0x0 DUP1 PUSH1 0x0 PUSH1 0x60 DUP5 DUP7 SUB SLT ISZERO PUSH2 0x46EC JUMPI DUP2 DUP3 REVERT JUMPDEST PUSH2 0x46F5 DUP5 PUSH2 0x462D JUMP JUMPDEST SWAP6 PUSH1 0x20 DUP6 ADD CALLDATALOAD SWAP6 POP PUSH1 0x40 SWAP1 SWAP5 ADD CALLDATALOAD SWAP4 SWAP3 POP POP POP JUMP JUMPDEST PUSH1 0x0 PUSH1 0xC0 DUP3 DUP5 SUB SLT ISZERO PUSH2 0x471B JUMPI DUP1 DUP2 REVERT JUMPDEST PUSH1 0x40 MLOAD PUSH1 0xC0 DUP2 ADD DUP2 DUP2 LT PUSH8 0xFFFFFFFFFFFFFFFF DUP3 GT OR ISZERO PUSH2 0x4738 JUMPI INVALID JUMPDEST PUSH1 0x40 MSTORE DUP3 MLOAD PUSH5 0xFFFFFFFFFF DUP2 AND DUP2 EQ PUSH2 0x474F JUMPI DUP3 DUP4 REVERT JUMPDEST DUP2 MSTORE PUSH2 0x475D PUSH1 0x20 DUP5 ADD PUSH2 0x466C JUMP JUMPDEST PUSH1 0x20 DUP3 ADD MSTORE PUSH2 0x476E PUSH1 0x40 DUP5 ADD PUSH2 0x46AD JUMP JUMPDEST PUSH1 0x40 DUP3 ADD MSTORE PUSH2 0x477F PUSH1 0x60 DUP5 ADD PUSH2 0x4684 JUMP JUMPDEST PUSH1 0x60 DUP3 ADD MSTORE PUSH2 0x4790 PUSH1 0x80 DUP5 ADD PUSH2 0x4654 JUMP JUMPDEST PUSH1 0x80 DUP3 ADD MSTORE PUSH2 0x47A1 PUSH1 0xA0 DUP5 ADD PUSH2 0x4644 JUMP JUMPDEST PUSH1 0xA0 DUP3 ADD MSTORE SWAP4 SWAP3 POP POP POP JUMP JUMPDEST PUSH1 0x0 DUP1 PUSH1 0x40 DUP4 DUP6 SUB SLT ISZERO PUSH2 0x47BF JUMPI DUP2 DUP3 REVERT JUMPDEST POP POP DUP1 MLOAD PUSH1 0x20 SWAP1 SWAP2 ADD MLOAD SWAP1 SWAP3 SWAP1 SWAP2 POP JUMP JUMPDEST PUSH1 0x0 DUP1 PUSH1 0x0 DUP1 PUSH1 0x0 PUSH1 0xA0 DUP7 DUP9 SUB SLT ISZERO PUSH2 0x47E7 JUMPI DUP1 DUP2 REVERT JUMPDEST PUSH2 0x47F0 DUP7 PUSH2 0x4696 JUMP JUMPDEST SWAP5 POP PUSH1 0x20 DUP7 ADD MLOAD SWAP4 POP PUSH1 0x40 DUP7 ADD MLOAD SWAP3 POP PUSH1 0x60 DUP7 ADD MLOAD SWAP2 POP PUSH2 0x4813 PUSH1 0x80 DUP8 ADD PUSH2 0x4696 JUMP JUMPDEST SWAP1 POP SWAP3 SWAP6 POP SWAP3 SWAP6 SWAP1 SWAP4 POP JUMP JUMPDEST PUSH1 0x1 PUSH1 0x1 PUSH1 0xA0 SHL SUB AND SWAP1 MSTORE JUMP JUMPDEST PUSH1 0x0 DUP2 MLOAD DUP1 DUP5 MSTORE PUSH1 0x20 DUP1 DUP6 ADD SWAP5 POP DUP1 DUP5 ADD DUP4 JUMPDEST DUP4 DUP2 LT ISZERO PUSH2 0x489D JUMPI DUP2 MLOAD DUP1 MLOAD PUSH2 0xFFFF AND DUP9 MSTORE DUP4 DUP2 ADD MLOAD DUP5 DUP10 ADD MSTORE PUSH1 0x40 DUP1 DUP3 ADD MLOAD SWAP1 DUP10 ADD MSTORE PUSH1 0x60 DUP1 DUP3 ADD MLOAD SWAP1 DUP10 ADD MSTORE PUSH1 0x80 DUP1 DUP3 ADD MLOAD SWAP1 DUP10 ADD MSTORE PUSH1 0xA0 SWAP1 DUP2 ADD MLOAD SWAP1 PUSH1 0x4 DUP3 LT PUSH2 0x4888 JUMPI INVALID JUMPDEST DUP9 ADD MSTORE PUSH1 0xC0 SWAP1 SWAP7 ADD SWAP6 SWAP1 DUP3 ADD SWAP1 PUSH1 0x1 ADD PUSH2 0x483F JUMP JUMPDEST POP SWAP5 SWAP6 SWAP5 POP POP POP POP POP JUMP JUMPDEST ISZERO ISZERO SWAP1 MSTORE JUMP JUMPDEST PUSH1 0x1 PUSH1 0x1 PUSH1 0xD0 SHL SUB NOT AND SWAP1 MSTORE JUMP JUMPDEST DUP1 MLOAD PUSH5 0xFFFFFFFFFF AND DUP3 MSTORE PUSH1 0x20 DUP1 DUP3 ADD MLOAD PUSH1 0x1 PUSH1 0x1 PUSH1 0xF8 SHL SUB NOT AND SWAP1 DUP4 ADD MSTORE PUSH1 0x40 DUP1 DUP3 ADD MLOAD PUSH1 0xFF AND SWAP1 DUP4 ADD MSTORE PUSH1 0x60 DUP1 DUP3 ADD MLOAD PUSH2 0xFFFF AND SWAP1 DUP4 ADD MSTORE PUSH1 0x80 DUP1 DUP3 ADD MLOAD PUSH1 0x1 PUSH1 0x1 PUSH1 0x70 SHL SUB NOT AND SWAP1 DUP4 ADD MSTORE PUSH1 0xA0 SWAP1 DUP2 ADD MLOAD ISZERO ISZERO SWAP2 ADD MSTORE JUMP JUMPDEST PUSH2 0xFFFF DUP2 MLOAD AND DUP3 MSTORE PUSH1 0x20 DUP2 ADD MLOAD PUSH1 0x20 DUP4 ADD MSTORE PUSH1 0x40 DUP2 ADD MLOAD PUSH2 0x493B PUSH1 0x40 DUP5 ADD DUP3 PUSH2 0x4979 JUMP JUMPDEST POP PUSH1 0x60 ADD MLOAD PUSH1 0xA0 SWAP2 SWAP1 SWAP2 ADD MSTORE JUMP JUMPDEST DUP1 MLOAD DUP3 MSTORE PUSH1 0x20 DUP2 ADD MLOAD PUSH1 0x20 DUP4 ADD MSTORE PUSH1 0x40 DUP2 ADD MLOAD PUSH1 0x40 DUP4 ADD MSTORE PUSH1 0x60 DUP2 ADD MLOAD PUSH1 0x60 DUP4 ADD MSTORE PUSH1 0x80 DUP2 ADD MLOAD PUSH1 0x80 DUP4 ADD MSTORE POP POP JUMP JUMPDEST DUP1 MLOAD DUP3 MSTORE PUSH1 0x20 DUP1 DUP3 ADD MLOAD SWAP1 DUP4 ADD MSTORE PUSH1 0x40 SWAP1 DUP2 ADD MLOAD SWAP2 ADD MSTORE JUMP JUMPDEST PUSH1 0x1 PUSH1 0x1 PUSH1 0xA0 SHL SUB SWAP3 SWAP1 SWAP3 AND DUP3 MSTORE PUSH1 0x20 DUP3 ADD MSTORE PUSH1 0x40 ADD SWAP1 JUMP JUMPDEST PUSH1 0x1 PUSH1 0x1 PUSH1 0xA0 SHL SUB DUP4 AND DUP2 MSTORE PUSH1 0xE0 DUP2 ADD PUSH2 0xBA6 PUSH1 0x20 DUP4 ADD DUP5 PUSH2 0x48BC JUMP JUMPDEST PUSH1 0x0 PUSH1 0x40 DUP3 ADD DUP5 DUP4 MSTORE PUSH1 0x20 PUSH1 0x40 DUP2 DUP6 ADD MSTORE DUP2 DUP6 MLOAD DUP1 DUP5 MSTORE PUSH1 0x60 DUP7 ADD SWAP2 POP DUP3 DUP8 ADD SWAP4 POP DUP5 JUMPDEST DUP2 DUP2 LT ISZERO PUSH2 0x4A08 JUMPI DUP5 MLOAD DUP4 MSTORE SWAP4 DUP4 ADD SWAP4 SWAP2 DUP4 ADD SWAP2 PUSH1 0x1 ADD PUSH2 0x49EC JUMP JUMPDEST POP SWAP1 SWAP8 SWAP7 POP POP POP POP POP POP POP JUMP JUMPDEST PUSH1 0x20 DUP1 DUP3 MSTORE PUSH1 0x16 SWAP1 DUP3 ADD MSTORE PUSH22 0x13585C9AD95D081B9BDD081A5B9A5D1A585B1A5E9959 PUSH1 0x52 SHL PUSH1 0x40 DUP3 ADD MSTORE PUSH1 0x60 ADD SWAP1 JUMP JUMPDEST PUSH1 0x20 DUP1 DUP3 MSTORE PUSH1 0xD SWAP1 DUP3 ADD MSTORE PUSH13 0x92DCECC2D8D2C840D2DCC8CAF PUSH1 0x9B SHL PUSH1 0x40 DUP3 ADD MSTORE PUSH1 0x60 ADD SWAP1 JUMP JUMPDEST PUSH1 0x20 DUP1 DUP3 MSTORE PUSH1 0x12 SWAP1 DUP3 ADD MSTORE PUSH18 0x105CDCD95D1CC81B9BDD081CD95D1D1B1959 PUSH1 0x72 SHL PUSH1 0x40 DUP3 ADD MSTORE PUSH1 0x60 ADD SWAP1 JUMP JUMPDEST PUSH1 0x20 DUP1 DUP3 MSTORE PUSH1 0xE SWAP1 DUP3 ADD MSTORE PUSH14 0x125B9D985B1A59081B585C9AD95D PUSH1 0x92 SHL PUSH1 0x40 DUP3 ADD MSTORE PUSH1 0x60 ADD SWAP1 JUMP JUMPDEST PUSH1 0x20 DUP1 DUP3 MSTORE PUSH1 0x15 SWAP1 DUP3 ADD MSTORE PUSH21 0x14DD59999A58DA595B9D0818DBDB1B185D195C985B PUSH1 0x5A SHL PUSH1 0x40 DUP3 ADD MSTORE PUSH1 0x60 ADD SWAP1 JUMP JUMPDEST PUSH1 0x20 DUP1 DUP3 MSTORE PUSH1 0x1C SWAP1 DUP3 ADD MSTORE PUSH32 0x496E73756666696369656E74206672656520636F6C6C61746572616C00000000 PUSH1 0x40 DUP3 ADD MSTORE PUSH1 0x60 ADD SWAP1 JUMP JUMPDEST PUSH1 0x0 PUSH2 0x420 PUSH2 0x4B35 DUP4 DUP8 PUSH2 0x48BC JUMP JUMPDEST PUSH2 0x4B43 PUSH1 0xC0 DUP5 ADD DUP7 MLOAD PUSH2 0x481F JUMP JUMPDEST PUSH1 0x20 DUP6 ADD MLOAD PUSH1 0xE0 DUP5 ADD MSTORE PUSH1 0x40 DUP6 ADD MLOAD PUSH2 0x100 DUP2 DUP2 DUP7 ADD MSTORE PUSH1 0x60 DUP8 ADD MLOAD SWAP2 POP PUSH2 0x120 DUP3 DUP2 DUP8 ADD MSTORE PUSH1 0x80 DUP9 ADD MLOAD SWAP3 POP PUSH2 0x140 DUP4 DUP2 DUP9 ADD MSTORE PUSH1 0xA0 DUP10 ADD MLOAD SWAP4 POP PUSH2 0x4B8D PUSH2 0x160 DUP9 ADD DUP6 PUSH2 0x48AE JUMP JUMPDEST PUSH1 0xC0 DUP10 ADD MLOAD SWAP4 POP PUSH2 0x4BA2 PUSH2 0x180 DUP9 ADD DUP6 PUSH2 0x4949 JUMP JUMPDEST PUSH1 0xE0 DUP10 ADD MLOAD SWAP4 POP PUSH2 0x4BB7 PUSH2 0x220 DUP9 ADD DUP6 PUSH2 0x4949 JUMP JUMPDEST DUP3 DUP10 ADD MLOAD SWAP4 POP PUSH2 0x4BCB PUSH2 0x2C0 DUP9 ADD DUP6 PUSH2 0x4979 JUMP JUMPDEST DUP2 DUP10 ADD MLOAD SWAP4 POP PUSH2 0x4BDF PUSH2 0x320 DUP9 ADD DUP6 PUSH2 0x4917 JUMP JUMPDEST DUP9 ADD MLOAD SWAP3 POP PUSH2 0x4BF5 SWAP2 POP POP PUSH2 0x3E0 DUP6 ADD DUP3 PUSH2 0x48A8 JUMP JUMPDEST POP DUP1 PUSH2 0x400 DUP5 ADD MSTORE PUSH2 0x18F8 DUP2 DUP5 ADD DUP6 PUSH2 0x482C JUMP JUMPDEST SWAP3 DUP4 MSTORE PUSH1 0x20 DUP4 ADD SWAP2 SWAP1 SWAP2 MSTORE PUSH1 0x40 DUP3 ADD MSTORE PUSH1 0x60 ADD SWAP1 JUMP INVALID LOG2 PUSH5 0x6970667358 0x22 SLT KECCAK256 DIV PUSH30 0xD372806522C53B7A5B9FCFC5DAAA9D51C980BBE50A5C7223F0B63B9964D4 PUSH5 0x736F6C6343 STOP SMOD MOD STOP CALLER ","sha1":"73bd1351e34602864319a012068fa4b796e87bc5","source":"// SPDX-License-Identifier: BSUL-1.1\npragma solidity =0.7.6;\npragma abicoder v2;\n\nimport \"../global/Deployments.sol\";\nimport \"../external/SettleAssetsExternal.sol\";\nimport \"../internal/AccountContextHandler.sol\";\nimport \"../internal/valuation/FreeCollateral.sol\";\n\n/// @title Externally deployed library for free collateral calculations\nlibrary FreeCollateralExternal {\n    using AccountContextHandler for AccountContext;\n    // Grace period after a sequencer downtime has occurred\n    uint256 internal constant SEQUENCER_UPTIME_GRACE_PERIOD = 1 hours;\n\n    function _checkSequencer() private view {\n        // See: https://docs.chain.link/data-feeds/l2-sequencer-feeds/\n        if (address(Deployments.SEQUENCER_UPTIME_ORACLE) != address(0)) {\n            (\n                /*uint80 roundID*/,\n                int256 answer,\n                uint256 startedAt,\n                /*uint256 updatedAt*/,\n                /*uint80 answeredInRound*/\n            ) = Deployments.SEQUENCER_UPTIME_ORACLE.latestRoundData();\n            require(answer == 0, \"Sequencer Down\");\n            require(SEQUENCER_UPTIME_GRACE_PERIOD < block.timestamp - startedAt, \"Sequencer Grace Period\");\n        }\n    }\n\n    /// @notice Returns the ETH denominated free collateral of an account, represents the amount of\n    /// debt that the account can incur before liquidation. If an account's assets need to be settled this\n    /// will revert, either settle the account or use the off chain SDK to calculate free collateral.\n    /// @dev Called via the Views.sol method to return an account's free collateral. Does not work\n    /// for the nToken, the nToken does not have an account context.\n    /// @param account account to calculate free collateral for\n    /// @return total free collateral in ETH w/ 8 decimal places\n    /// @return array of net local values in asset values ordered by currency id\n    function getFreeCollateralView(address account)\n        external\n        view\n        returns (int256, int256[] memory)\n    {\n        AccountContext memory accountContext = AccountContextHandler.getAccountContext(account);\n        // The internal free collateral function does not account for settled assets. The Notional SDK\n        // can calculate the free collateral off chain if required at this point.\n        require(!accountContext.mustSettleAssets(), \"Assets not settled\");\n        return FreeCollateral.getFreeCollateralView(account, accountContext, block.timestamp);\n    }\n\n    /// @notice Calculates free collateral and will revert if it falls below zero. If the account context\n    /// must be updated due to changes in debt settings, will update. Cannot check free collateral if assets\n    /// need to be settled first.\n    /// @dev Cannot be called directly by users, used during various actions that require an FC check. Must be\n    /// called before the end of any transaction for accounts where FC can decrease.\n    /// @param account account to calculate free collateral for\n    function checkFreeCollateralAndRevert(address account) external {\n        // Prevents new debt positions from being initiated if the sequencer is down, only applies to L2 environments\n        // like Arbitrum and Optimism where this is a concern. Accounts with no risk do not get a free\n        // collateral check and will bypass this check.\n        _checkSequencer();\n\n        AccountContext memory accountContext = AccountContextHandler.getAccountContext(account);\n        require(!accountContext.mustSettleAssets(), \"Assets not settled\");\n\n        (int256 ethDenominatedFC, bool updateContext) =\n            FreeCollateral.getFreeCollateralStateful(account, accountContext, block.timestamp);\n\n        if (updateContext) {\n            accountContext.setAccountContext(account);\n        }\n\n        require(ethDenominatedFC >= 0, \"Insufficient free collateral\");\n    }\n\n    /// @notice Calculates liquidation factors for an account\n    /// @dev Only called internally by liquidation actions, does some initial validation of currencies. If a currency is\n    /// specified that the account does not have, a asset available figure of zero will be returned. If this is the case then\n    /// liquidation actions will revert.\n    /// @dev an ntoken account will return 0 FC and revert if called\n    /// @param account account to liquidate\n    /// @param localCurrencyId currency that the debts are denominated in\n    /// @param collateralCurrencyId collateral currency to liquidate against, set to zero in the case of local currency liquidation\n    /// @return accountContext the accountContext of the liquidated account\n    /// @return factors struct of relevant factors for liquidation\n    /// @return portfolio the portfolio array of the account (bitmap accounts will return an empty array)\n    function getLiquidationFactors(\n        address account,\n        uint256 localCurrencyId,\n        uint256 collateralCurrencyId\n    )\n        external\n        returns (\n            AccountContext memory accountContext,\n            LiquidationFactors memory factors,\n            PortfolioAsset[] memory portfolio\n        )\n    {\n        // Prevents new liquidations from being initiated if the sequencer is down, only applies to L2 environments\n        // like Arbitrum and Optimism where this is a concern.\n        _checkSequencer();\n\n        accountContext = AccountContextHandler.getAccountContext(account);\n        if (accountContext.mustSettleAssets()) {\n            accountContext = SettleAssetsExternal.settleAccount(account, accountContext);\n        }\n\n        if (accountContext.isBitmapEnabled()) {\n            // A bitmap currency can only ever hold debt in this currency\n            require(localCurrencyId == accountContext.bitmapCurrencyId);\n        }\n\n        (factors, portfolio) = FreeCollateral.getLiquidationFactors(\n            account,\n            accountContext,\n            block.timestamp,\n            localCurrencyId,\n            collateralCurrencyId\n        );\n    }\n}\n","sourcePath":"contracts/external/FreeCollateralExternal.sol","type":"library","deployment":{"address":"0x72Ec9dE3eFD22552b6dc17142EAd505A48940D4E","chainid":"5","blockHeight":10202761}}