{"abi":[{"anonymous":false,"inputs":[{"indexed":false,"internalType":"uint16","name":"currencyId","type":"uint16"}],"name":"MarketsInitialized","type":"event"},{"inputs":[],"name":"getLibInfo","outputs":[{"internalType":"address","name":"","type":"address"}],"stateMutability":"pure","type":"function"},{"inputs":[{"internalType":"uint16","name":"currencyId","type":"uint16"},{"internalType":"bool","name":"isFirstInit","type":"bool"}],"name":"initializeMarkets","outputs":[],"stateMutability":"nonpayable","type":"function"},{"inputs":[{"internalType":"uint16","name":"currencyId","type":"uint16"}],"name":"sweepCashIntoMarkets","outputs":[],"stateMutability":"nonpayable","type":"function"}],"bytecode":"608060405234801561001057600080fd5b50615eb480620000216000396000f3fe608060405234801561001057600080fd5b50600436106100415760003560e01c8063bb6dd58e14610046578063c4c96dae1461005b578063d0e064c014610079575b600080fd5b610059610054366004615bb5565b61008c565b005b6100636100f6565b6040516100709190615c66565b60405180910390f35b610059610087366004615bcf565b61010e565b604051635db6eac760e11b815273__nTokenMintAction______________________9063bb6dd58e906100c3908490600401615e59565b60006040518083038186803b1580156100db57600080fd5b505af41580156100ef573d6000803e3d6000fd5b5050505050565b73__nTokenMintAction______________________90565b426101176159a0565b61012181856105b3565b80516020015160009067ffffffffffffffff8111801561014057600080fd5b5060405190808252806020026020018201604052801561017a57816020015b6101676159e9565b81526020019060019003908161015f5790505b5082516020015190915061018d57600080fd5b83156101a45760208201515151156101a457600080fd5b60006101b383838689896105cc565b905060006101c987856000015160200151610648565b90506101d36159e9565b6000805b865160200151811015610527576102026101f3826001016107ac565b6101fc8a610855565b90610876565b602084015283518051600091610235918891908590811061021f57fe5b602002602001015184600260ff1601878c61088f565b9050898061024f575081600114801561024f575086516002145b806102605750602088015151518210155b8061028e575081600114801561028e57508660028151811061027e57fe5b602002602001015160c001516000145b156103355760006102b682876040015185815181106102a957fe5b60200260200101516108f0565b905080856040018181525050610303866040015184815181106102d557fe5b6020026020010151876060015185815181106102ed57fe5b602002602001015161092590919063ffffffff16565b60c0860181905261032f5760405162461bcd60e51b815260040161032690615e22565b60405180910390fd5b50610509565b8161035a578660018151811061034757fe5b602002602001015160c00151925061043b565b81600114156103be57610375876103708b610855565b6109e5565b92508460600151828151811061038757fe5b6020026020010151604001518310156103b957846060015182815181106103aa57fe5b60200260200101516040015192505b61043b565b60006103d56103cc846107ac565b6101fc8c610855565b90506103f581858a86815181106103e857fe5b6020026020010151610a6b565b93508560600151838151811061040757fe5b602002602001015160400151841015610439578560600151838151811061042a57fe5b60200260200101516040015193505b505b6000610467848760600151858151811061045157fe5b6020026020010151610af390919063ffffffff16565b90506104898660200151848151811061047c57fe5b6020026020010151610b8e565b8111156104d8576104a38660200151848151811061047c57fe5b90506104b981876060015185815181106102ed57fe5b9350836104d85760405162461bcd60e51b815260040161032690615d1a565b6104e282826108f0565b60408601819052600113156104f957600160408601525b5060c0840183905260e084018990525b60c084015160a085015261051e848c8a610ba1565b506001016101d7565b5060006105458760c001518860200151610be790919063ffffffff16565b509250505061055d8760c001518b8960600151610e27565b6105708760c00151828960800151610e37565b7fcffeff9accc9171f01fec36e09a1a06f0160ce50a8c4c0a2adff9cec562adf088a60405161059f9190615e59565b60405180910390a150505050505050505050565b6105bd8282610eaa565b6105c681610f46565b90915250565b60008082156105ef576105de85610f65565b64ffffffffff166080880152610617565b6105f98786610f81565b6106098461ffff16868989611056565b6106148787876110e6565b90505b60608701516106269082611221565b6060880182905291506103e8821361063d57600080fd5b505b95945050505050565b610650615a31565b610658615a31565b6106668461ffff168461123d565b60208301528152600061067d61ffff861685611272565b9050805167ffffffffffffffff8111801561069757600080fd5b506040519080825280602002602001820160405280156106c1578160200160208202803683370190505b50604083015260005b8151811015610705576106e282828151811061047c57fe5b836040015182815181106106f257fe5b60209081029190910101526001016106ca565b5061070f856112a3565b8367ffffffffffffffff8111801561072657600080fd5b5060405190808252806020026020018201604052801561076057816020015b61074d615a59565b8152602001906001900390816107455790505b50606083015260015b8481116107a05761077a86826112f2565b8360600151600183038151811061078d57fe5b6020908102919091010152600101610769565b50909150505b92915050565b600081600114156107c157506276a700610850565b81600214156107d4575062ed4e00610850565b81600314156107e857506301da9c00610850565b81600414156107fc57506303b53800610850565b816005141561081057506309450c00610850565b8160061415610824575063128a1800610850565b816007141561083857506325143000610850565b60405162461bcd60e51b815260040161032690615d77565b919050565b60006276a70082101561086757600080fd5b6276a700825b06909103919050565b60008282018381101561088857600080fd5b9392505050565b6000806108aa6305f5e1006108a4898961130c565b9061135a565b6060850181905260808501819052835151602080870151908601519293506108d5929190888561138b565b8251604001516108e5908261148e565b979650505050505050565b6000633b9aca00821061090257600080fd5b81633b9aca00819003610915858361130c565b8161091c57fe5b05949350505050565b60008083608001511161093757600080fd5b633b9aca0082111561094857600080fd5b82518211610974578251604084015161096d91906109679085906114ba565b906114e1565b90506107a6565b826020015182116109ac57604083015183516020850151606086015161096d93926101fc9281900391610967918803908590036114ba565b61088883606001516101fc8560200151633b9aca00036109678760600151886080015103886020015188036114ba90919063ffffffff16565b60006003835110156109f657600080fd5b61088883600181518110610a0657fe5b60200260200101516020015184600281518110610a1f57fe5b60200260200101516020015185600181518110610a3857fe5b602002602001015160c0015186600281518110610a5157fe5b602090810291909101015160c0015162ed4e008701611500565b602081015160c0820151600091906276a7008201828710610a8b57600080fd5b858210610ab457610aaa866101fc8986036109678387038c87036114ba565b9350505050610888565b6000610aca888503610967858a038b86036114ba565b9050808711610ada576001610ade565b8087035b945050505050610888565b5050509392505050565b600080836080015111610b0557600080fd5b82604001518211610b27576040830151835161096d91906109679085906114ba565b82606001518211610b5f57825160408401516060850151602086015161096d93926101fc9281900391610967918803908590036114ba565b60208301516060840151608085015161088892916101fc9181900390610967908703633b9aca008590036114ba565b600080821215610b9d57600080fd5b5090565b60006276a700610bb042610855565b019050610bc28461ffff85168361155e565b6100ef8260c001518486602001518560800151610be289604001516115c5565b6115d3565b6000808080808080805b895151811015610c785760008a600001518281518110610c0d57fe5b60200260200101519050600380811115610c2357fe5b8160a001516003811115610c3357fe5b1415610c3e57600080fd5b60028160a001516003811115610c5057fe5b14158015610c6057506060810151155b15610c6f57610c6f8b8361172f565b50600101610bf1565b5060005b895151811015610d1b5760008a600001518281518110610c9857fe5b6020026020010151905060026003811115610caf57fe5b8160a001516003811115610cbf57fe5b1415610cd357608081015160009055610d12565b60018160a001516003811115610ce557fe5b1415610cfe57608081015180610cfb838261187f565b50505b610d0a818686866119ae565b919650945092505b50600101610c7c565b5060608901516000610d2b611a1c565b6001600160a01b038b1660009081526020829052604081209192505b8c6020015151811015610df55760008d602001518281518110610d6657fe5b60200260200101519050806060015160001415610d835750610ded565b60028160a001516003811115610d9557fe5b14158015610db3575060038160a001516003811115610db057fe5b14155b610dbc57600080fd5b610dc8818989896119ae565b91995097509550610de581848760088110610ddf57fe5b0161187f565b600185019450505b600101610d47565b506010831115610e0457600080fd5b64ffffffffff841115610e1657600080fd5b50939a929950975095509350505050565b610e32838383611a29565b505050565b63ffffffff8110610e4757600080fd5b6000610e51611a9d565b6001600160a01b039094166000908152602094909452506040909220805460ff909216600160501b0260ff60501b1963ffffffff909416600160301b0269ffffffff000000000000199093169290921792909216179055565b610eb78161ffff16611aaa565b6001600160a01b031660c0830181905260009081908190610ed790611ad0565b94509450945050506000610eee8660c00151611b39565b505060808701859052604087018190526001600160d81b0319831660a088015260c0870151909150610f2290846000611b9a565b602087015260c0860151610f369086611c2d565b6060909601959095525050505050565b610f4e615a9e565b6000610f5983611c86565b90506108888382611c98565b600062015180821015610f7757600080fd5b620151808261086d565b6000610f8c82610855565b905080836080015110610f9e57600080fd5b600080610fab8585611cdb565b915091506000806000610fd98860c001518960000151600001518a608001518a8c6000015160400151611e0a565b91945092509050610fea8385611f62565b6060890151909350610ffc9086611f62565b6060890181905260c08901518951805160409091015161102193909291908787611f78565b6060890181905260001261103457600080fd5b61103d81612043565b64ffffffffff1660809098019790975250505050505050565b60006110658360000151612057565b9050600061107285610855565b905060015b602085015151518110156110dd576110d587866020015160000151838151811061109d57fe5b60200260200101516020015188600087878a88815181106110ba57fe5b602002602001015161206b909695949392919063ffffffff16565b600101611077565b50505050505050565b6000806111038560c0015186600001516000015161ffff166120a2565b60a0860151855191925060011a620f42400290600090156111305761112b856276a7006120d7565b611132565b845b9050600061113f846120ec565b90505b8015611205576000611158896080015183612111565b9050600061116f8a6000015160200151838a6121c4565b9050806111e55760c08a01518a515160009161118f9161ffff1685612269565b905060008112156111e3578a516000906111aa9085886122ae565b9050808711156111bc575060006111c9565b6111c681886120d7565b90505b6111df6111d883868d8561238e565b8a906123e1565b9850505b505b6111f1868460006123f7565b95506111fc866120ec565b92505050611142565b8751604001516112159086612442565b98975050505050505050565b600061122d83836123e1565b905060008112156107a657600080fd5b606080600061124a612464565b60008681526020829052604090209091506112658186612471565b9097909650945050505050565b6060600061127e6125b7565b60008581526020829052604090209091506112998185612471565b9695505050505050565b60006112ad6125c4565b61ffff831660009081526020919091526040812091506112cb6125d1565b61ffff93909316600090815260209390935250604090912081548155600191820154910155565b6112fa615a59565b61088883836113076125d1565b6125de565b81810260001983141561133c5781158061132e57508282828161132b57fe5b05145b61133757600080fd5b6107a6565b82158061135157508183828161134e57fe5b05145b6107a657600080fd5b6000816000191480156113705750600160ff1b83145b1561137a57600080fd5b81838161138357fe5b059392505050565b845161139a9085858585612635565b156113a4576100ef565b6040850151156113d15760006113c1866020015186868686612635565b905080156113cf57506100ef565b505b6113da82612751565b156113ed5760008112156113ed57600080fd5b6001600160571b0319811280159061140c57506001600160571b038113155b61141557600080fd5b84602001515185604001511415611439576114338560200151612767565b60208601525b6000856020015186604001518151811061144f57fe5b60209081029190910181015161ffff9690961686528501939093526040808501929092526060840152600060a090930192909252500180516001019052565b60006108886ec097ce7bc90715b34b9f10000000006108a485600001518561130c90919063ffffffff16565b6000826114c9575060006107a6565b828202828482816114d657fe5b041461088857600080fd5b60008082116114ef57600080fd5b8183816114f857fe5b049392505050565b600081861061150e57600080fd5b84821061151a57600080fd5b83831061154057611539846101fc8888036109678388038b88036114ba565b905061063f565b6115396115578787036109678688038a87036114ba565b85906120d7565b6000611568612820565b60008481526020828152604080832088830151845282528083208684529091529081902090860151606087015160a088015160c089015160e08a015195965093946115b794869493929161282d565b6100ef81866080015161293e565b60006107a66000198361130c565b6000806115e4878761ffff166120a2565b905060006115f0612984565b6001600160a01b03891660009081526020828152604080832061ffff8c16845282528083208a845290915281209192508061162b888a612991565b915091508061163957600080fd5b6116438583612a99565b156116c6578254600f90810b900b600061165d8983611f62565b905061166881612ac9565b8554600f9190910b6001600160801b03166001600160801b03199091161785556116958d8d8d8585612af3565b806116a9576116a6878560006123f7565b96505b6116b88d8d61ffff1689612bc8565b965061063f95505050505050565b8615611720576116d587612ac9565b8354600f9190910b6001600160801b03166001600160801b03199091161783556117038b8b8b60008b612af3565b61170f858360016123f7565b94506117208b8b61ffff1687612bc8565b50949998505050505050505050565b815151811061173d57600080fd5b600082606001511161174e57600080fd5b60008260000151828151811061176057fe5b602002602001015190506002600381111561177757fe5b8160a00151600381111561178757fe5b141580156117a5575060038160a0015160038111156117a257fe5b14155b6117ae57600080fd5b606083018051600019019052600080805b855151811015611821576000866000015182815181106117db57fe5b60200260200101519050828160800151118015611808575060028160a00151600381111561180557fe5b14155b1561181857806080015192508193505b506001016117bf565b508184141561183a575050600260a0919091015261187b565b60008560000151838151811061184c57fe5b602090810291909101015160808581018051918301805190915252600160a09182015260029401939093525050505b5050565b815161ffff161580159061189c57508151613fff61ffff90911611155b6118a557600080fd5b816020015160001080156118c25750602082015164ffffffffff10155b6118cb57600080fd5b816040015160001080156118e457506040820151600810155b6118ed57600080fd5b60608201516001600160571b031913801590611914575060608201516001600160571b0312155b61191d57600080fd5b8151815460208401516040850151606090950151600a0b6001600160581b0316600160401b0272ffffffffffffffffffffff00000000000000001960ff909616600160381b0267ff000000000000001964ffffffffff909316620100000266ffffffffff00001961ffff90961661ffff19909516949094179490941692909217169190911792909216919091179055565b6000806000806119bd88612c22565b90508415806119cb57508085115b156119d4578094505b86806119e4575060008860600151125b965061ffff8616156119f557600080fd5b50509451939560f09490941b6001600160f01b03191660109390931c929092179350919050565b6000806107a6600d612c89565b6000811215611a3757600080fd5b6000611a41612ca2565b6001600160a01b03851660009081526020828152604080832061ffff881684529091529020909150611a7283612caf565b8154600a9190910b6001600160581b0316600160a81b026001600160a81b0390911617905550505050565b6000806107a66002612c89565b600080611ab5612cd8565b6000938452602052505060409020546001600160a01b031690565b600080600080600080611ae1611a9d565b6001600160a01b039097166000908152602097909752505060409094205461ffff81169563ffffffff62010000830481169650600160301b830416945060ff600160501b8304169350600160581b90910460d81b9150565b600080600080611b47612ce5565b6001600160a01b0395909516600090815260209590955250506040909220546bffffffffffffffffffffffff811693600160601b82046001600160801b03169350600160e01b90910463ffffffff169150565b611ba2615aca565b611baa615aca565b60ff8416611bb9579050610888565b611bc38585612cf2565b815260ff841660608201528267ffffffffffffffff81118015611be557600080fd5b50604051908082528060200260200182016040528015611c1f57816020015b611c0c615af2565b815260200190600190039081611c045790505b506020820152949350505050565b600080611c38612ca2565b6001600160a01b03851660009081526020828152604080832061ffff8816845290915281208054600160a81b9004600a90810b900b9450919250831215611c7e57600080fd5b505092915050565b611c8e615b36565b6107a68242612cfe565b611ca0615a9e565b6000611caf8461ffff16612dc4565b6040805160808101825261ffff96909616865260ff821660208701528501939093525050606082015290565b600080611ce66159e9565b60208501515160005b8151811015611e00576000828281518110611d0657fe5b60200260200101519050611d1d8160400151612751565b611d2657600080fd5b6000611d3182612c22565b905087811115611d4057600080fd5b611d5885836000015161ffff16846020015184612de1565b50600080611d73836060015187612df590919063ffffffff16565b92509050611d818882611f62565b97505087826020015111611dc85760c0890151825160208401518b5160400151600093611db4939192909190868e612e9d565b9050611dc08782611f62565b965050611de7565b611de58960c00151836000015184602001518c60800151856115d3565b505b6020890151611df6908461172f565b5050600101611cef565b5050509250929050565b600080600080611e1e898961ffff166120a2565b9050611e2986610f65565b915086821015611e3857600080fd5b6000611e448884612991565b50905080611e5a57600080945094505050611f57565b6000611e65836120ec565b90505b8015801590611e775750818111155b15611ee2576000611e888a83612111565b90506000611e998d8d848d8d612edb565b90506000811315611eb557611eae8882611f62565b9750611ec2565b611ebf8782611f62565b96505b611ece858460006123f7565b9450611ed9856120ec565b92505050611e68565b60005b8115611f43576000611ef78b84612111565b9050600080611f068884612991565b9150915080611f1457600080fd5b611f20848360016123f7565b9350611f2e878660006123f7565b9650611f39876120ec565b9450505050611ee5565b611f528c8c61ffff1683612bc8565b505050505b955095509592505050565b818101828112156000831215146107a657600080fd5b600080611f8f83611f898787611f62565b90611f62565b9050611f9b8882612f73565b91508360001315611fab57600080fd5b6000831315611fb957600080fd5b8460001215611fd357611fcc8585611f62565b9350611fe0565b611fdd8584611f62565b92505b600084611fec856115c5565b1215611ff9575082612005565b612002856115c5565b90505b60008112156120375760208901518951600091612027916108a490859061130c565b905061203589898385612fb2565b505b50509695505050505050565b600064ffffffffff821115610b9d57600080fd5b6060015161012c60089190911c60ff160290565b61207887878786856130f4565b6120918760e001518860a001518960c0015185886131af565b60c090970196909652505050505050565b6000806120ad613237565b6001600160a01b038516600090815260209182526040808220868352909252205491505092915050565b6000828211156120e657600080fd5b50900390565b6000816120fb57506000610850565b61210482613244565b60ff036001019050919050565b60008161211d57600080fd5b61010082111561212c57600080fd5b600061213784610f65565b90506000605a841161215257506201518083020190506107a6565b6087841161217a575060591983016207e900908102908206909103016276a7000190506107a6565b60c384116121a35750608619830162278d00908102908206909103016301da9c000190506107a6565b5060c21983016276a70090810290820690910301630b1fa8000190506107a6565b60008084116121e55760405162461bcd60e51b815260040161032690615d48565b60078411156122065760405162461bcd60e51b815260040161032690615dc7565b6276a70083061561221957506000610888565b600061222483610855565b905060015b85811161225d5761224361223c826107ac565b8390610876565b85141561225557600192505050610888565b600101612229565b50600095945050505050565b600080612274612984565b6001600160a01b03861660009081526020918252604080822087835283528082208683529092522054600f90810b900b9150509392505050565b60008060006122c2866020015186866132dd565b9150915060006122d187612057565b9050816122f15786516122ea9061ffff1687838861336c565b9350610ae9565b60006122fc86610855565b9050600061230c61223c866107ac565b905060006123248a6000015161ffff1683868b61336c565b905060008087600114156123425750506040808b0151015188612371565b61235861235160018a036107ac565b8690610876565b905061236e8c6000015161ffff1682888d61336c565b91505b61237e818584868f611500565b9c9b505050505050505050505050565b60008461239d575060006123d9565b60006123a985856120d7565b905060006123b7828561340b565b9050633b9aca008113156123ca57600080fd5b6123d48782613478565b925050505b949350505050565b808203828113156000831215146107a657600080fd5b60006001831015801561240c57506101008311155b61241557600080fd5b811561242e5750600160ff1b60001983011c8317610888565b50600160ff1b60001983011c198316610888565b8151600090610888906108a4846ec097ce7bc90715b34b9f100000000061130c565b6000806107a66004612c89565b6060806000808467ffffffffffffffff8111801561248e57600080fd5b506040519080825280602002602001820160405280156124b8578160200160208202803683370190505b50905060008567ffffffffffffffff811180156124d457600080fd5b506040519080825280602002602001820160405280156124fe578160200160208202803683370190505b50905060005b868110156125a8578784600e811061251857fe5b600891828204019190066004029054906101000a900463ffffffff1663ffffffff1683828151811061254657fe5b60209081029190910101526001909301928784600e811061256357fe5b600891828204019190066004029054906101000a900463ffffffff1663ffffffff1682828151811061259157fe5b602090810291909101015260019384019301612504565b509093509150505b9250929050565b6000806107a66005612c89565b6000806107a6601c612c89565b6000806107a6601b612c89565b6125e6615a59565b60006125f184613491565b61ffff86166000908152602085905260408120919250906004861061261757600161261a565b60005b60ff166002811061262757fe5b0154905061129982826134ca565b6000805b865181101561274457600087828151811061265057fe5b6020026020010151905084816040015114158061267957508661ffff16816000015161ffff1614155b80612688575085816020015114155b15612693575061273c565b60028160a0015160038111156126a557fe5b141580156126c3575060038160a0015160038111156126c057fe5b14155b6126cc57600080fd5b60608101516000906126de9086611f62565b90506126e986612751565b156126fc5760008112156126fc57600080fd5b6001600160571b0319811280159061271b57506001600160571b038113155b61272457600080fd5b6060820152600160a0909101819052915061063f9050565b600101612639565b5060009695505050505050565b6000600282108015906107a65750506008101590565b60606000825160001461277e578251600202612781565b60015b905060008167ffffffffffffffff8111801561279c57600080fd5b506040519080825280602002602001820160405280156127d657816020015b6127c3615af2565b8152602001906001900390816127bb5790505b50905060005b8451811015612818578481815181106127f157fe5b602002602001015182828151811061280557fe5b60209081029190910101526001016127dc565b509392505050565b6000806107a6600a612c89565b6000851215801561284557506001600160501b038513155b61284e57600080fd5b6000841215801561286657506001600160501b038413155b61286f57600080fd5b826000108015612883575063ffffffff8311155b61288c57600080fd5b8160001080156128a0575063ffffffff8211155b6128a957600080fd5b63ffffffff8111156128ba57600080fd5b85546001600160501b0319166001600160501b039586161769ffffffffffffffffffff60501b1916600160501b94909516939093029390931763ffffffff60a01b1916600160a01b63ffffffff928316021763ffffffff60c01b1916600160c01b93821693909302929092176001600160e01b0316600160e01b9190921602179055565b6000811215801561295657506001600160501b038113155b61295f57600080fd5b60019190910180546001600160501b0319166001600160501b03909216919091179055565b6000806107a6600c612c89565b600080600061299f85610f65565b9050620151808406156129b95760008092509250506125b0565b8381106129cd5760008092509250506125b0565b6201518081850304605a81116129ea579250600191506125b09050565b6101688111612a29576000620151806207e900840604820160591901905060068104605a0160068281612a1957fe5b06600014945094505050506125b0565b6108708111612a595760006201518062278d00840604820161016719019050601e8104608701601e8281612a1957fe5b611de28111612a89576000620151806276a700840604820161086f19019050605a810460c301605a8281612a1957fe5b5061010095600095509350505050565b600060018210158015612aae57506101008211155b612ab757600080fd5b50600019011b600160ff1b9081161490565b600060016001607f1b03198212801590612aea575060016001607f1b038213155b610b9d57600080fd5b6000612aff83836135e9565b905080612b0c57506100ef565b6000612b16613670565b61ffff87166000908152602082815260408083208984529091528120549192506001600160501b03909116810390612b4e82856123e1565b90506000811315612b5e57600080fd5b612b77612b72612b6d836115c5565b610b8e565b61367d565b61ffff89166000908152602085815260408083208b8452909152902080546001600160501b0319166001600160501b0392909216919091179055612bbd89898987613693565b505050505050505050565b6014612bd38261371d565b1115612bf15760405162461bcd60e51b815260040161032690615d9e565b6000612bfb613237565b6001600160a01b039094166000908152602094855260408082209482529390945250912055565b6000808260400151118015612c3c57506040820151600810155b612c4557600080fd5b6040820151600210612c5c57506020810151610850565b6000612c6e60018460400151036107ac565b6020840151909150610888906276a700906101fc90846120d7565b6000620f4240826026811115612c9b57fe5b0192915050565b6000806107a66006612c89565b60006001600160571b03198212801590612aea57506001600160571b03821315610b9d57600080fd5b6000806107a66003612c89565b6000806107a66011612c89565b606061281883836137ed565b612d06615b36565b6000612d118461380e565b90508281600001511015612d5057600080612d2b866138d6565b9050612d3986848388613953565b9093509150612d498683856139f7565b5050612d5d565b80518314612d5d57600080fd5b6040518060600160405280612d8b612d868460a001518560c001516114ba90919063ffffffff16565b613c28565b8152602001612dae612d868460a001518560e001516114ba90919063ffffffff16565b8152602001826060015181525091505092915050565b600080612dcf613c3e565b60009384526020525050604090205490565b612def8484846001856130f4565b50505050565b60008082612e08575060009050806125b0565b60008313612e1557600080fd5b612e3484608001516108a485876060015161130c90919063ffffffff16565b9150612e5584608001516108a485876040015161130c90919063ffffffff16565b6080850151909150612e679084611221565b60808501526040840151612e7b9082611221565b60408501526060840151612e8f9083611221565b60608501526125b084613c4b565b600080612eab868685613ca3565b90506000612eba898387613ccc565b90935090506001600160a01b03881615612037576120378888888885613d34565b600080612ee6612984565b6001600160a01b03881660009081526020828152604080832061ffff8b1684528252808320898452909152902054909150600f90810b900b612f2c84898989858a612e9d565b6001600160a01b0390981660009081526020928352604080822061ffff90991682529783528781209681529590915250505091902080546001600160801b03191690555090565b600080821215612fac57612fa76001612fa185602001516108a487600001518761130c90919063ffffffff16565b906123e1565b610888565b50919050565b6000612fbc613e26565b61ffff8516600090815260209190915260409020805490915064ffffffffff164214612fe757600080fd5b8054600160f81b900460ff16612ffc57600080fd5b6001810154600090613017906001600160581b031685611f62565b825490915060009061303990600160281b90046001600160581b031685611f62565b90508160091912801561304c5750600082125b1561305657600091505b806009191280156130675750600081125b15613070575060005b61308161307c83610b8e565b613e33565b6001840180546affffffffffffffffffffff19166001600160581b03929092169190911790556130b361307c82610b8e565b83546001600160581b0391909116600160281b026fffffffffffffffffffffff0000000000199091161783556130eb87878688613e49565b6110dd83613f5d565b60006130fe612820565b6000868152602082815260408083208884528252808320868452825291829020808a5290890187905280546001600160501b03808216938b0193909352600160501b810490921660608a015263ffffffff600160a01b8304811660a08b0152600160c01b8304811660c08b0152600160e01b90920490911660e089015290915080841561319d5760018201546001600160501b031660808901526131a5565b600060808901525b5050505050505050565b60008083116131bd57600080fd5b818611156131cc57508361063f565b60006131d883886120d7565b9050838111156131eb578591505061063f565b60006131f78286614022565b90506000613209633b9aca00836120d7565b905061322a633b9aca006109676132208a856114ba565b6101fc8c876114ba565b9998505050505050505050565b6000806107a6600b612c89565b60008161325057600080fd5b600160801b821061326357608091821c91015b600160401b821061327657604091821c91015b640100000000821061328a57602091821c91015b62010000821061329c57601091821c91015b61010082106132ad57600891821c91015b601082106132bd57600491821c91015b600482106132cd57600291821c91015b6002821061085057600101919050565b600080600085116132ed57600080fd5b60078511156132fb57600080fd5b600061330684610855565b905060015b86811161335e576000613327613320836107ac565b8490610876565b90508681141561333f57509250600091506133649050565b8681111561335557509250600191506133649050565b5060010161330b565b50600080fd5b935093915050565b600080613377612820565b905060006276a70061338885610855565b6000898152602085815260408083208b84528252808320949093018083529390522080549192509063ffffffff600160a01b8204811691600160c01b8104821691600160e01b90910416816133ef5760405162461bcd60e51b815260040161032690615cea565b6133fc8184848c8c6131af565b9b9a5050505050505050505050565b6000806134286134236301da9c0061096786886114ba565b61403b565b905061343a81621dcd6560491b614059565b905061344d613448826140ac565b6140ce565b905061345f81621dcd6560491b614123565b9050600061346c82614159565b60070b95945050505050565b6000610888613487848461130c565b633b9aca0061135a565b6000816000106134a057600080fd5b60078211156134ae57600080fd5b600482106134bf57600482036134c1565b815b60080292915050565b6134d2615a59565b6064633b9aca008360ff8616602081106134e857fe5b1a02816134f157fe5b0481526064633b9aca008360ff86166001016020811061350d57fe5b1a028161351657fe5b0481602001818152505061353b8260028560ff16016020811061353557fe5b1a614162565b60808201819052610100908360ff86166003016020811061355857fe5b1a028161356157fe5b0460408201526080810151610100908360ff86166004016020811061358257fe5b1a028161358b57fe5b0460608201526207a1208260ff8516600501602081106135a757fe5b1a0260a0820152622625a08260ff8516600601602081106135c457fe5b1a0260c08201528160ff8416600701602081106135dd57fe5b1a60e082015292915050565b600081831480613606575060008312158015613606575060008212155b15613613575060006107a6565b600083131580156136245750816000125b156136305750816107a6565b600082131580156136415750826000125b1561364f5761096d826115c5565b60008313158015613661575060008213155b156100415761096d83836123e1565b6000806107a66020612c89565b60006001600160501b03821115610b9d57600080fd5b6000806136a1858585614196565b9150915060008060008512156136b9578791506136bc565b50865b806001600160a01b0316826001600160a01b0316336001600160a01b03167f4a39dc06d4c0dbc64b70af90fd698a233a518aa5d07e595d983b8c0526c8f7fb878760405161370b929190615cb7565b60405180910390a45050505050505050565b600181901c7f5555555555555555555555555555555555555555555555555555555555555555908116911601600281901c7f3333333333333333333333333333333333333333333333333333333333333333908116911601600481901c7f07070707070707070707070707070707070707070707070707070707070707079190911601600881901c7e0f000f000f000f000f000f000f000f000f000f000f000f000f000f000f000f908116911601601081901c01602081901c01604081901c01608081901c60ff90811691160190565b6060806137fa848461427b565b915061380582614393565b90509250929050565b613816615b57565b6000613820613e26565b61ffff93841660009081526020918252604090819020805464ffffffffff81168652600160281b81046001600160581b03908116948701949094526001820154841692860192909252600160d81b820463ffffffff166060860152600160801b9091049091166080840152600201546001600160501b0380821660a0850152600160501b8204811660c0850152600160a01b82041660e0840152600160f01b900460ff1661012c02909216610100820152919050565b6000806138e283614554565b6001600160a01b031663ef81f2166040518163ffffffff1660e01b81526004016040805180830381600087803b15801561391b57600080fd5b505af115801561392f573d6000803e3d6000fd5b505050506040513d601f19601f820116820180604052508101906123d99190615c09565b61395b615b57565b600080600061396b888689614584565b60c08b019290925260e08a01929092526020890151919350915061398f9083610876565b60208801526080870151600090156139bd5760808801516139ba906139b489826120d7565b9061468f565b90505b6139dd6139d2670de0b6b3a764000083610876565b60a08a0151906146a6565b60a089015250506080860194909452505082529092909150565b6000613a01613e26565b60008561ffff1681526020019081526020016000209050613a258260000151612043565b815464ffffffffff191664ffffffffff9190911617815560a0820151613a4a9061367d565b6002820180546001600160501b0319166001600160501b039290921691909117905560c0820151613a7a9061367d565b81600201600a6101000a8154816001600160501b0302191690836001600160501b03160217905550613aaf8260e0015161367d565b8160020160146101000a8154816001600160501b0302191690836001600160501b03160217905550613ae48260200151613e33565b81546001600160581b0391909116600160281b026fffffffffffffffffffffff0000000000199091161781556040820151613b1e90613e33565b6001820180546affffffffffffffffffffff19166001600160581b03929092169190911790556080820151613b5290613e33565b81546001600160581b0391909116600160801b026affffffffffffffffffffff60801b199091161781556060820151613b8a906146c3565b815463ffffffff91909116600160d81b0263ffffffff60d81b199091161781558215613bd6576000613bbb84613c28565b9050613bc785826146d6565b613bd4610fee868361470d565b505b8361ffff167fef25641e225e493886510ca1ad6584fa7b442b9fea820a29d1de3ce27d270fd28360a001518460c001518560e00151604051613c1a93929190615e68565b60405180910390a250505050565b60006001600160ff1b03821115610b9d57600080fd5b6000806107a66009612c89565b6000613c568261478d565b905060008160000160189054906101000a900463ffffffff169050613c9582846040015185606001518660a001518563ffffffff168860e0015161282d565b610e3282846080015161293e565b613cab615b36565b6000613cb78585614791565b9092509050806128185761063f858585614824565b600080613cd98484612442565b9150613ce58483612f73565b9050600082121561336457613d2a6001612fa187600001516108a48960200151613d248a602001516108a48c600001518b61130c90919063ffffffff16565b9061130c565b9150935093915050565b6000613d4085856149bd565b90506000831215613d5257600160401b175b60006001600160a01b038716337fc3d58168c5ae7397731d063d5bbf3d657854427343f4c083240f7aacaa2d0f6284613d8a886149db565b604051613d98929190615cdc565b60405180910390a46000613daf60008412876149fc565b9050806001600160a01b03166323de66516105e789613dcd876149db565b6040518463ffffffff1660e01b8152600401613deb93929190615c7a565b600060405180830381600087803b158015613e0557600080fd5b505af1158015613e19573d6000803e3d6000fd5b5050505050505050505050565b6000806107a6601d612c89565b60006001600160581b03821115610b9d57600080fd5b6000613e53614a5c565b61ffff8516600090815260209190915260408120546001600160a01b03169150613e7b614a69565b61ffff8616600090815260209190915260409081902054905163ad1c095d60e01b81526001600160a01b039091169150819063ad1c095d90613ec39089908790600401615c9e565b600060405180830381600087803b158015613edd57600080fd5b505af1158015613ef1573d6000803e3d6000fd5b505060405163ad1c095d60e01b81526001600160a01b038516925063ad1c095d9150613f239089908890600401615c9e565b600060405180830381600087803b158015613f3d57600080fd5b505af1158015613f51573d6000803e3d6000fd5b50505050505050505050565b80546002820154600091613f9991600160281b9091046001600160581b031690613d24906001600160501b03600160501b82048116911661130c565b60018301546002840154919250600091613fd3916001600160581b031690613d24906001600160501b03600160a01b82048116911661130c565b835490915060009061400a9060016001600160581b03600160801b909204821601166ec097ce7bc90715b34b9f100000000061130c565b90508061401784846123e1565b1315612def57600080fd5b600061088861403584633b9aca006114ba565b836114e1565b6000677fffffffffffffff82111561405257600080fd5b5060401b90565b600081600f0b6000141561406c57600080fd5b600082600f0b604085600f0b901b8161408157fe5b05905060016001607f1b031981128015906140a3575060016001607f1b038113155b61088857600080fd5b6000600f82900b60016001607f1b031914156140c757600080fd5b5060000390565b6000600160461b82600f0b126140e357600080fd5b683fffffffffffffffff1982600f0b121561410057506000610850565b6107a6608083600f0b700171547652b82fe1777d0ffda0d23a7d1202901d614a76565b6000600f83810b9083900b0260401d60016001607f1b031981128015906140a3575060016001607f1b0381131561088857600080fd5b600f0b60401d90565b60008160ff1660961061417d5760ff8216622625a0026107a6565b5060951960ff919091160162e4e1c00263165a0bc00190565b6040805160028082526060828101909352829160009181602001602082028036833701905050905060006141ca87876149bd565b905080826000815181106141da57fe5b602002602001018181525050600160401b8117826001815181106141fa57fe5b602090810291909101015260408051600280825260608201909252600091816020016020820280368337019050509050614233866149db565b8160008151811061424057fe5b602002602001018181525050614255866149db565b8160018151811061426257fe5b6020908102919091010152919791965090945050505050565b606060088260ff16111561428e57600080fd5b6000614298611a1c565b6001600160a01b038516600090815260208290526040812091925060ff851667ffffffffffffffff811180156142cd57600080fd5b5060405190808252806020026020018201604052801561430757816020015b6142f4615af2565b8152602001906001900390816142ec5790505b50905060005b8560ff1681101561063d57600083826008811061432657fe5b019050600083838151811061433757fe5b602090810291909101810151835461ffff8116825264ffffffffff620100008204169282019290925260ff600160381b8304166040820152600160401b909104600a90810b900b6060820152608001919091525060010161430d565b80516060908067ffffffffffffffff811180156143af57600080fd5b506040519080825280602002602001820160405280156143d9578160200160208202803683370190505b50915060005b818110156144365760008482815181106143f557fe5b60200260200101519050614416816000015182602001518360400151615526565b84838151811061442257fe5b6020908102919091010152506001016143df565b5060015b8181101561454d57805b60008111801561447c575083818151811061445b57fe5b602002602001015184600183038151811061447257fe5b6020026020010151115b156145445783818151811061448d57fe5b60200260200101518460018303815181106144a457fe5b60200260200101518560018403815181106144bb57fe5b602002602001018684815181106144ce57fe5b60200260200101828152508281525050508481815181106144eb57fe5b602002602001015185600183038151811061450257fe5b602002602001015186600184038151811061451957fe5b6020026020010187848151811061452c57fe5b60209081029190910101919091525260001901614444565b5060010161443a565b5050919050565b60008061455f61554f565b61ffff939093166000908152602093909352505060409020546001600160a01b031690565b600080600080600080614597898861555c565b895190955091935091506000906145be906145b3908b906120d7565b633b9aca00906114ba565b90506145f86145ed6301da9c006145d585856114ba565b816145dc57fe5b670de0b6b3a7640000919004610876565b60e08a0151906146a6565b965061461a61460f6301da9c006145d587856114ba565b60c08a0151906146a6565b955081831415614631575060009350614686915050565b60006146536146486301da9c006145d587866114ba565b60e08b0151906146a6565b9050600061466189836120d7565b905061467e88610967838d604001516114ba90919063ffffffff16565b965050505050505b93509350935093565b600061088861403584670de0b6b3a76400006114ba565b60006108886146b584846114ba565b670de0b6b3a76400006114e1565b600063ffffffff821115610b9d57600080fd5b60008112156146e457600080fd5b60006146f2610fee84611c2d565b90506146fe8183611f62565b9050610e32610fee8483611a29565b6000614717614a5c565b61ffff8416600090815260209190915260409081902054905163ad1c095d60e01b81526001600160a01b039091169150819063ad1c095d9061475f9087908690600401615c9e565b600060405180830381600087803b15801561477957600080fd5b505af11580156131a5573d6000803e3d6000fd5b5190565b614799615b36565b6000806147a46155f7565b61ffff861660009081526020828152604080832088845290915290208054600160f01b900460ff169350909150821561481b5780546001600160501b03600160a01b82048116916147f69116826114ba565b8552815461481490600160501b90046001600160501b0316826114ba565b6020860152505b50509250929050565b61482c615b36565b6148368483612cfe565b905060006148438561380e565b9050600061484f6155f7565b61ffff871660009081526020828152604080832089845290915290209091508561487857600080fd5b8251851461488557600080fd5b8460001061489257600080fd5b8486111561489f57600080fd5b83516000126148ad57600080fd5b83602001516000126148be57600080fd5b6148cb8360a0015161367d565b81546001600160501b0391909116600160a01b0269ffffffffffffffffffff60a01b1990911617815560c08301516149029061367d565b81546001600160501b0319166001600160501b039190911617815560e083015161492b9061367d565b815460ff60f01b196001600160501b0392909216600160501b0269ffffffffffffffffffff60501b199091161716600160f01b17815561496c878786615604565b858761ffff167f29fd83c1093c9721d6046038c76b6bddf0dc0c5dac3ecbfa23f8eb994ec61613866000015187602001516040516149ab929190615cdc565b60405180910390a35050509392505050565b67ffff000000000000603083901b16600882901b1760011792915050565b6000808212156149f5576149ee826115c5565b9050610850565b5080610850565b600082614a2e57614a0b614a5c565b61ffff8316600090815260209190915260409020546001600160a01b0316610888565b614a36614a69565b61ffff8316600090815260209190915260409020546001600160a01b0316905092915050565b6000806107a66021612c89565b6000806107a66022612c89565b6000600160461b82600f0b12614a8b57600080fd5b683fffffffffffffffff1982600f0b1215614aa857506000610850565b6001607f1b60006780000000000000008416600f0b1315614ada5770016a09e667f3bcc908b2fb1366ea957d3e0260801c5b60008367400000000000000016600f0b1315614b07577001306fe0a31b7152de8d5a46305c85edec0260801c5b60008367200000000000000016600f0b1315614b34577001172b83c7d517adcdf7c8c50eb14a791f0260801c5b60008367100000000000000016600f0b1315614b615770010b5586cf9890f6298b92b71842a983630260801c5b60008367080000000000000016600f0b1315614b8e577001059b0d31585743ae7c548eb68ca417fd0260801c5b60008367040000000000000016600f0b1315614bbb57700102c9a3e778060ee6f7caca4f7a29bde80260801c5b60008367020000000000000016600f0b1315614be85770010163da9fb33356d84a66ae336dcdfa3f0260801c5b600083600160381b16600f0b1315614c1157700100b1afa5abcbed6129ab13ec11dc95430260801c5b600083668000000000000016600f0b1315614c3d5770010058c86da1c09ea1ff19d294cf2f679b0260801c5b600083664000000000000016600f0b1315614c69577001002c605e2e8cec506d21bfc89a23a00f0260801c5b600083662000000000000016600f0b1315614c9557700100162f3904051fa128bca9c55c31e5df0260801c5b600083661000000000000016600f0b1315614cc1577001000b175effdc76ba38e31671ca9397250260801c5b600083660800000000000016600f0b1315614ced57700100058ba01fb9f96d6cacd4b180917c3d0260801c5b600083660400000000000016600f0b1315614d195770010002c5cc37da9491d0985c348c68e7b30260801c5b600083660200000000000016600f0b1315614d45577001000162e525ee054754457d59952920260260801c5b600083600160301b16600f0b1315614d6e5770010000b17255775c040618bf4a4ade83fc0260801c5b6000836580000000000016600f0b1315614d99577001000058b91b5bc9ae2eed81e9b7d4cfab0260801c5b6000836540000000000016600f0b1315614dc457700100002c5c89d5ec6ca4d7c8acc017b7c90260801c5b6000836520000000000016600f0b1315614def5770010000162e43f4f831060e02d839a9d16d0260801c5b6000836510000000000016600f0b1315614e1a57700100000b1721bcfc99d9f890ea069117630260801c5b6000836508000000000016600f0b1315614e455770010000058b90cf1e6d97f9ca14dbcc16280260801c5b6000836504000000000016600f0b1315614e70577001000002c5c863b73f016468f6bac5ca2b0260801c5b6000836502000000000016600f0b1315614e9b57700100000162e430e5a18f6119e3c02282a50260801c5b600083600160281b16600f0b1315614ec4577001000000b1721835514b86e6d96efd1bfe0260801c5b60008364800000000016600f0b1315614eee57700100000058b90c0b48c6be5df846c5b2ef0260801c5b60008364400000000016600f0b1315614f185770010000002c5c8601cc6b9e94213c72737a0260801c5b60008364200000000016600f0b1315614f42577001000000162e42fff037df38aa2b219f060260801c5b60008364100000000016600f0b1315614f6c5770010000000b17217fba9c739aa5819f44f90260801c5b60008364080000000016600f0b1315614f96577001000000058b90bfcdee5acd3c1cedc8230260801c5b60008364040000000016600f0b1315614fc057700100000002c5c85fe31f35a6a30da1be500260801c5b60008364020000000016600f0b1315614fea5770010000000162e42ff0999ce3541b9fffcf0260801c5b60008364010000000016600f0b131561501457700100000000b17217f80f4ef5aadda455540260801c5b600083638000000016600f0b131561503d5770010000000058b90bfbf8479bd5a81b51ad0260801c5b600083634000000016600f0b1315615066577001000000002c5c85fdf84bd62ae30a74cc0260801c5b600083632000000016600f0b131561508f57700100000000162e42fefb2fed257559bdaa0260801c5b600083631000000016600f0b13156150b8577001000000000b17217f7d5a7716bba4a9ae0260801c5b600083630800000016600f0b13156150e157700100000000058b90bfbe9ddbac5e109cce0260801c5b600083630400000016600f0b131561510a5770010000000002c5c85fdf4b15de6f17eb0d0260801c5b600083630200000016600f0b1315615133577001000000000162e42fefa494f1478fde050260801c5b600083630100000016600f0b131561515c5770010000000000b17217f7d20cf927c8e94c0260801c5b6000836280000016600f0b1315615184577001000000000058b90bfbe8f71cb4e4b33d0260801c5b6000836240000016600f0b13156151ac57700100000000002c5c85fdf477b662b269450260801c5b6000836220000016600f0b13156151d45770010000000000162e42fefa3ae53369388c0260801c5b6000836210000016600f0b13156151fc57700100000000000b17217f7d1d351a389d400260801c5b6000836208000016600f0b13156152245770010000000000058b90bfbe8e8b2d3d4ede0260801c5b6000836204000016600f0b131561524c577001000000000002c5c85fdf4741bea6e77e0260801c5b6000836202000016600f0b131561527457700100000000000162e42fefa39fe95583c20260801c5b6000836201000016600f0b131561529c577001000000000000b17217f7d1cfb72b45e10260801c5b60008361800016600f0b13156152c357700100000000000058b90bfbe8e7cc35c3f00260801c5b60008361400016600f0b13156152ea5770010000000000002c5c85fdf473e242ea380260801c5b60008361200016600f0b1315615311577001000000000000162e42fefa39f02b772c0260801c5b60008361100016600f0b13156153385770010000000000000b17217f7d1cf7d83c1a0260801c5b60008361080016600f0b131561535f577001000000000000058b90bfbe8e7bdcbe2e0260801c5b60008361040016600f0b131561538657700100000000000002c5c85fdf473dea871f0260801c5b60008361020016600f0b13156153ad5770010000000000000162e42fefa39ef44d910260801c5b60008361010016600f0b13156153d457700100000000000000b17217f7d1cf79e9490260801c5b600083608016600f0b13156153fa5770010000000000000058b90bfbe8e7bce5440260801c5b600083604016600f0b1315615420577001000000000000002c5c85fdf473de6eca0260801c5b600083602016600f0b131561544657700100000000000000162e42fefa39ef366f0260801c5b600083601016600f0b131561546c577001000000000000000b17217f7d1cf79afa0260801c5b600083600816600f0b131561549257700100000000000000058b90bfbe8e7bcd6d0260801c5b600083600416600f0b13156154b85770010000000000000002c5c85fdf473de6b20260801c5b600083600216600f0b13156154de577001000000000000000162e42fefa39ef3580260801c5b600083600116600f0b13156155045770010000000000000000b17217f7d1cf79ab0260801c5b600f83810b60401d603f03900b1c60016001607f1b038111156107a657600080fd5b67ffff000000000000603084901b1665ffffffffff00600884901b161760ff8216179392505050565b6000806107a6601f612c89565b6000806000806000856020015111156155a9576155a661558d8660c0015187602001516114ba90919063ffffffff16565b60e087015160408801516155a0916114ba565b90614022565b90505b60006155b48761575c565b90506155c08183610925565b945081156155d7576155d48186600161578f565b93505b6020860151156155ee576155eb8583615807565b92505b50509250925092565b6000806107a6601e612c89565b600061560e613670565b61ffff851660009081526020828152604080832087845290915281208054929350916001600160501b031690036156436159e9565b6156538161ffff89168880612de1565b6080810151156156755760405162461bcd60e51b815260040161032690615df7565b600061568986615684856115c5565b612442565b9050600061569f61569a8886615820565b6115c5565b90506156af6105e78a8385612fb2565b84546001600160501b03600160501b82048116600090810392600160a01b9004909116908212806156e05750806000125b156157245760006156f18a84612442565b905060006156ff8383611f62565b90508060001215615714576157148d826146d6565b6157218d8d86858561587c565b50505b50505061ffff909716600090815260209485526040808220978252969094525050509190912080546001600160f01b03191690555050565b615764615a59565b600061576e6125d1565b61ffff841660009081526020919091526040812054915061088890826134ca565b6000806157ae60646109678760e00151876114ba90919063ffffffff16565b90508460a001518110156157c3575060a08401515b8460c001518111156157d6575060c08401515b82156157ed576157e68482610876565b9150612818565b8381116157fc5780840361063f565b506000949350505050565b600061088861581684846114ba565b633b9aca006114e1565b6000816000131580156158335750600a82125b15615840575060006107a6565b6000821261584d57600080fd5b6108886001612fa185602001516108a46ec097ce7bc90715b34b9f10000000008761130c90919063ffffffff16565b6000600160401b61588d87876149bd565b17905060006105e7337fc3d58168c5ae7397731d063d5bbf3d657854427343f4c083240f7aacaa2d0f62846158c1896149db565b6040516158cf929190615cdc565b60405180910390a46158e46105e7878561470d565b60008213156158fd576158fd6105e7610fee8885615905565b505050505050565b600061590f614a5c565b61ffff8416600090815260209190915260408120546001600160a01b0316915082121561593a579293925b806001600160a01b03166323de66518686615954866149db565b6040518463ffffffff1660e01b815260040161597293929190615c7a565b600060405180830381600087803b15801561598c57600080fd5b505af1158015612bbd573d6000803e3d6000fd5b6040518060e001604052806159b3615a9e565b81526020016159c0615aca565b815260006020820181905260408201819052606082018190526080820181905260a09091015290565b60405180610100016040528060008019168152602001600081526020016000815260200160008152602001600081526020016000815260200160008152602001600081525090565b6040518060800160405280606081526020016060815260200160608152602001606081525090565b60405180610100016040528060008152602001600081526020016000815260200160008152602001600081526020016000815260200160008152602001600081525090565b6040805160808101825260008082526020820152908101615abd615b36565b8152600060209091015290565b6040518060800160405280606081526020016060815260200160008152602001600081525090565b6040518060c00160405280600061ffff1681526020016000815260200160008152602001600081526020016000815260200160006003811115615b3157fe5b905290565b60405180606001604052806000815260200160008152602001600081525090565b6040518061012001604052806000815260200160008152602001600081526020016000815260200160008152602001600081526020016000815260200160008152602001600081525090565b803561ffff8116811461085057600080fd5b600060208284031215615bc6578081fd5b61088882615ba3565b60008060408385031215615be1578081fd5b615bea83615ba3565b915060208301358015158114615bfe578182fd5b809150509250929050565b60008060408385031215615c1b578182fd5b505080516020909101519092909150565b6000815180845260208085019450808401835b83811015615c5b57815187529582019590820190600101615c3f565b509495945050505050565b6001600160a01b0391909116815260200190565b6001600160a01b039384168152919092166020820152604081019190915260600190565b6001600160a01b03929092168252602082015260400190565b600060408252615cca6040830185615c2c565b828103602084015261063f8185615c2c565b918252602082015260400190565b60208082526016908201527513585c9ad95d081b9bdd081a5b9a5d1a585b1a5e995960521b604082015260600190565b6020808252601490820152734f7261636c652072617465206f766572666c6f7760601b604082015260600190565b60208082526015908201527410d1ce881b9bc81b585c9ad95d1cc81b1a5cdd1959605a1b604082015260600190565b6020808252600d908201526c092dcecc2d8d2c840d2dcc8caf609b1b604082015260600190565b6020808252600f908201526e4f766572206d61782061737365747360881b604082015260600190565b60208082526016908201527510d1ce881b585c9ad95d081a5b99195e08189bdd5b9960521b604082015260600190565b6020808252601190820152704d75737420696e6974206d61726b65747360781b604082015260600190565b60208082526017908201527f494d3a20696d706c6965642072617465206661696c6564000000000000000000604082015260600190565b61ffff91909116815260200190565b928352602083019190915260408201526060019056fea2646970667358221220922864142ee0448b571b41d60962619d3b85112edc1718b80f1e8f694caf854464736f6c63430007060033","bytecodeSha1":"99d8974780c80b0a54a7c3ea71995e5bd3fab7e6","compiler":{"evm_version":"istanbul","optimizer":{"enabled":true,"runs":200},"version":"0.7.6+commit.7338295f"},"contractName":"InitializeMarketsAction","deployedBytecode":"608060405234801561001057600080fd5b50600436106100415760003560e01c8063bb6dd58e14610046578063c4c96dae1461005b578063d0e064c014610079575b600080fd5b610059610054366004615bb5565b61008c565b005b6100636100f6565b6040516100709190615c66565b60405180910390f35b610059610087366004615bcf565b61010e565b604051635db6eac760e11b815273__$892f367d396be2b92d3b049e6e62920984$__9063bb6dd58e906100c3908490600401615e59565b60006040518083038186803b1580156100db57600080fd5b505af41580156100ef573d6000803e3d6000fd5b5050505050565b73__$892f367d396be2b92d3b049e6e62920984$__90565b426101176159a0565b61012181856105b3565b80516020015160009067ffffffffffffffff8111801561014057600080fd5b5060405190808252806020026020018201604052801561017a57816020015b6101676159e9565b81526020019060019003908161015f5790505b5082516020015190915061018d57600080fd5b83156101a45760208201515151156101a457600080fd5b60006101b383838689896105cc565b905060006101c987856000015160200151610648565b90506101d36159e9565b6000805b865160200151811015610527576102026101f3826001016107ac565b6101fc8a610855565b90610876565b602084015283518051600091610235918891908590811061021f57fe5b602002602001015184600260ff1601878c61088f565b9050898061024f575081600114801561024f575086516002145b806102605750602088015151518210155b8061028e575081600114801561028e57508660028151811061027e57fe5b602002602001015160c001516000145b156103355760006102b682876040015185815181106102a957fe5b60200260200101516108f0565b905080856040018181525050610303866040015184815181106102d557fe5b6020026020010151876060015185815181106102ed57fe5b602002602001015161092590919063ffffffff16565b60c0860181905261032f5760405162461bcd60e51b815260040161032690615e22565b60405180910390fd5b50610509565b8161035a578660018151811061034757fe5b602002602001015160c00151925061043b565b81600114156103be57610375876103708b610855565b6109e5565b92508460600151828151811061038757fe5b6020026020010151604001518310156103b957846060015182815181106103aa57fe5b60200260200101516040015192505b61043b565b60006103d56103cc846107ac565b6101fc8c610855565b90506103f581858a86815181106103e857fe5b6020026020010151610a6b565b93508560600151838151811061040757fe5b602002602001015160400151841015610439578560600151838151811061042a57fe5b60200260200101516040015193505b505b6000610467848760600151858151811061045157fe5b6020026020010151610af390919063ffffffff16565b90506104898660200151848151811061047c57fe5b6020026020010151610b8e565b8111156104d8576104a38660200151848151811061047c57fe5b90506104b981876060015185815181106102ed57fe5b9350836104d85760405162461bcd60e51b815260040161032690615d1a565b6104e282826108f0565b60408601819052600113156104f957600160408601525b5060c0840183905260e084018990525b60c084015160a085015261051e848c8a610ba1565b506001016101d7565b5060006105458760c001518860200151610be790919063ffffffff16565b509250505061055d8760c001518b8960600151610e27565b6105708760c00151828960800151610e37565b7fcffeff9accc9171f01fec36e09a1a06f0160ce50a8c4c0a2adff9cec562adf088a60405161059f9190615e59565b60405180910390a150505050505050505050565b6105bd8282610eaa565b6105c681610f46565b90915250565b60008082156105ef576105de85610f65565b64ffffffffff166080880152610617565b6105f98786610f81565b6106098461ffff16868989611056565b6106148787876110e6565b90505b60608701516106269082611221565b6060880182905291506103e8821361063d57600080fd5b505b95945050505050565b610650615a31565b610658615a31565b6106668461ffff168461123d565b60208301528152600061067d61ffff861685611272565b9050805167ffffffffffffffff8111801561069757600080fd5b506040519080825280602002602001820160405280156106c1578160200160208202803683370190505b50604083015260005b8151811015610705576106e282828151811061047c57fe5b836040015182815181106106f257fe5b60209081029190910101526001016106ca565b5061070f856112a3565b8367ffffffffffffffff8111801561072657600080fd5b5060405190808252806020026020018201604052801561076057816020015b61074d615a59565b8152602001906001900390816107455790505b50606083015260015b8481116107a05761077a86826112f2565b8360600151600183038151811061078d57fe5b6020908102919091010152600101610769565b50909150505b92915050565b600081600114156107c157506276a700610850565b81600214156107d4575062ed4e00610850565b81600314156107e857506301da9c00610850565b81600414156107fc57506303b53800610850565b816005141561081057506309450c00610850565b8160061415610824575063128a1800610850565b816007141561083857506325143000610850565b60405162461bcd60e51b815260040161032690615d77565b919050565b60006276a70082101561086757600080fd5b6276a700825b06909103919050565b60008282018381101561088857600080fd5b9392505050565b6000806108aa6305f5e1006108a4898961130c565b9061135a565b6060850181905260808501819052835151602080870151908601519293506108d5929190888561138b565b8251604001516108e5908261148e565b979650505050505050565b6000633b9aca00821061090257600080fd5b81633b9aca00819003610915858361130c565b8161091c57fe5b05949350505050565b60008083608001511161093757600080fd5b633b9aca0082111561094857600080fd5b82518211610974578251604084015161096d91906109679085906114ba565b906114e1565b90506107a6565b826020015182116109ac57604083015183516020850151606086015161096d93926101fc9281900391610967918803908590036114ba565b61088883606001516101fc8560200151633b9aca00036109678760600151886080015103886020015188036114ba90919063ffffffff16565b60006003835110156109f657600080fd5b61088883600181518110610a0657fe5b60200260200101516020015184600281518110610a1f57fe5b60200260200101516020015185600181518110610a3857fe5b602002602001015160c0015186600281518110610a5157fe5b602090810291909101015160c0015162ed4e008701611500565b602081015160c0820151600091906276a7008201828710610a8b57600080fd5b858210610ab457610aaa866101fc8986036109678387038c87036114ba565b9350505050610888565b6000610aca888503610967858a038b86036114ba565b9050808711610ada576001610ade565b8087035b945050505050610888565b5050509392505050565b600080836080015111610b0557600080fd5b82604001518211610b27576040830151835161096d91906109679085906114ba565b82606001518211610b5f57825160408401516060850151602086015161096d93926101fc9281900391610967918803908590036114ba565b60208301516060840151608085015161088892916101fc9181900390610967908703633b9aca008590036114ba565b600080821215610b9d57600080fd5b5090565b60006276a700610bb042610855565b019050610bc28461ffff85168361155e565b6100ef8260c001518486602001518560800151610be289604001516115c5565b6115d3565b6000808080808080805b895151811015610c785760008a600001518281518110610c0d57fe5b60200260200101519050600380811115610c2357fe5b8160a001516003811115610c3357fe5b1415610c3e57600080fd5b60028160a001516003811115610c5057fe5b14158015610c6057506060810151155b15610c6f57610c6f8b8361172f565b50600101610bf1565b5060005b895151811015610d1b5760008a600001518281518110610c9857fe5b6020026020010151905060026003811115610caf57fe5b8160a001516003811115610cbf57fe5b1415610cd357608081015160009055610d12565b60018160a001516003811115610ce557fe5b1415610cfe57608081015180610cfb838261187f565b50505b610d0a818686866119ae565b919650945092505b50600101610c7c565b5060608901516000610d2b611a1c565b6001600160a01b038b1660009081526020829052604081209192505b8c6020015151811015610df55760008d602001518281518110610d6657fe5b60200260200101519050806060015160001415610d835750610ded565b60028160a001516003811115610d9557fe5b14158015610db3575060038160a001516003811115610db057fe5b14155b610dbc57600080fd5b610dc8818989896119ae565b91995097509550610de581848760088110610ddf57fe5b0161187f565b600185019450505b600101610d47565b506010831115610e0457600080fd5b64ffffffffff841115610e1657600080fd5b50939a929950975095509350505050565b610e32838383611a29565b505050565b63ffffffff8110610e4757600080fd5b6000610e51611a9d565b6001600160a01b039094166000908152602094909452506040909220805460ff909216600160501b0260ff60501b1963ffffffff909416600160301b0269ffffffff000000000000199093169290921792909216179055565b610eb78161ffff16611aaa565b6001600160a01b031660c0830181905260009081908190610ed790611ad0565b94509450945050506000610eee8660c00151611b39565b505060808701859052604087018190526001600160d81b0319831660a088015260c0870151909150610f2290846000611b9a565b602087015260c0860151610f369086611c2d565b6060909601959095525050505050565b610f4e615a9e565b6000610f5983611c86565b90506108888382611c98565b600062015180821015610f7757600080fd5b620151808261086d565b6000610f8c82610855565b905080836080015110610f9e57600080fd5b600080610fab8585611cdb565b915091506000806000610fd98860c001518960000151600001518a608001518a8c6000015160400151611e0a565b91945092509050610fea8385611f62565b6060890151909350610ffc9086611f62565b6060890181905260c08901518951805160409091015161102193909291908787611f78565b6060890181905260001261103457600080fd5b61103d81612043565b64ffffffffff1660809098019790975250505050505050565b60006110658360000151612057565b9050600061107285610855565b905060015b602085015151518110156110dd576110d587866020015160000151838151811061109d57fe5b60200260200101516020015188600087878a88815181106110ba57fe5b602002602001015161206b909695949392919063ffffffff16565b600101611077565b50505050505050565b6000806111038560c0015186600001516000015161ffff166120a2565b60a0860151855191925060011a620f42400290600090156111305761112b856276a7006120d7565b611132565b845b9050600061113f846120ec565b90505b8015611205576000611158896080015183612111565b9050600061116f8a6000015160200151838a6121c4565b9050806111e55760c08a01518a515160009161118f9161ffff1685612269565b905060008112156111e3578a516000906111aa9085886122ae565b9050808711156111bc575060006111c9565b6111c681886120d7565b90505b6111df6111d883868d8561238e565b8a906123e1565b9850505b505b6111f1868460006123f7565b95506111fc866120ec565b92505050611142565b8751604001516112159086612442565b98975050505050505050565b600061122d83836123e1565b905060008112156107a657600080fd5b606080600061124a612464565b60008681526020829052604090209091506112658186612471565b9097909650945050505050565b6060600061127e6125b7565b60008581526020829052604090209091506112998185612471565b9695505050505050565b60006112ad6125c4565b61ffff831660009081526020919091526040812091506112cb6125d1565b61ffff93909316600090815260209390935250604090912081548155600191820154910155565b6112fa615a59565b61088883836113076125d1565b6125de565b81810260001983141561133c5781158061132e57508282828161132b57fe5b05145b61133757600080fd5b6107a6565b82158061135157508183828161134e57fe5b05145b6107a657600080fd5b6000816000191480156113705750600160ff1b83145b1561137a57600080fd5b81838161138357fe5b059392505050565b845161139a9085858585612635565b156113a4576100ef565b6040850151156113d15760006113c1866020015186868686612635565b905080156113cf57506100ef565b505b6113da82612751565b156113ed5760008112156113ed57600080fd5b6001600160571b0319811280159061140c57506001600160571b038113155b61141557600080fd5b84602001515185604001511415611439576114338560200151612767565b60208601525b6000856020015186604001518151811061144f57fe5b60209081029190910181015161ffff9690961686528501939093526040808501929092526060840152600060a090930192909252500180516001019052565b60006108886ec097ce7bc90715b34b9f10000000006108a485600001518561130c90919063ffffffff16565b6000826114c9575060006107a6565b828202828482816114d657fe5b041461088857600080fd5b60008082116114ef57600080fd5b8183816114f857fe5b049392505050565b600081861061150e57600080fd5b84821061151a57600080fd5b83831061154057611539846101fc8888036109678388038b88036114ba565b905061063f565b6115396115578787036109678688038a87036114ba565b85906120d7565b6000611568612820565b60008481526020828152604080832088830151845282528083208684529091529081902090860151606087015160a088015160c089015160e08a015195965093946115b794869493929161282d565b6100ef81866080015161293e565b60006107a66000198361130c565b6000806115e4878761ffff166120a2565b905060006115f0612984565b6001600160a01b03891660009081526020828152604080832061ffff8c16845282528083208a845290915281209192508061162b888a612991565b915091508061163957600080fd5b6116438583612a99565b156116c6578254600f90810b900b600061165d8983611f62565b905061166881612ac9565b8554600f9190910b6001600160801b03166001600160801b03199091161785556116958d8d8d8585612af3565b806116a9576116a6878560006123f7565b96505b6116b88d8d61ffff1689612bc8565b965061063f95505050505050565b8615611720576116d587612ac9565b8354600f9190910b6001600160801b03166001600160801b03199091161783556117038b8b8b60008b612af3565b61170f858360016123f7565b94506117208b8b61ffff1687612bc8565b50949998505050505050505050565b815151811061173d57600080fd5b600082606001511161174e57600080fd5b60008260000151828151811061176057fe5b602002602001015190506002600381111561177757fe5b8160a00151600381111561178757fe5b141580156117a5575060038160a0015160038111156117a257fe5b14155b6117ae57600080fd5b606083018051600019019052600080805b855151811015611821576000866000015182815181106117db57fe5b60200260200101519050828160800151118015611808575060028160a00151600381111561180557fe5b14155b1561181857806080015192508193505b506001016117bf565b508184141561183a575050600260a0919091015261187b565b60008560000151838151811061184c57fe5b602090810291909101015160808581018051918301805190915252600160a09182015260029401939093525050505b5050565b815161ffff161580159061189c57508151613fff61ffff90911611155b6118a557600080fd5b816020015160001080156118c25750602082015164ffffffffff10155b6118cb57600080fd5b816040015160001080156118e457506040820151600810155b6118ed57600080fd5b60608201516001600160571b031913801590611914575060608201516001600160571b0312155b61191d57600080fd5b8151815460208401516040850151606090950151600a0b6001600160581b0316600160401b0272ffffffffffffffffffffff00000000000000001960ff909616600160381b0267ff000000000000001964ffffffffff909316620100000266ffffffffff00001961ffff90961661ffff19909516949094179490941692909217169190911792909216919091179055565b6000806000806119bd88612c22565b90508415806119cb57508085115b156119d4578094505b86806119e4575060008860600151125b965061ffff8616156119f557600080fd5b50509451939560f09490941b6001600160f01b03191660109390931c929092179350919050565b6000806107a6600d612c89565b6000811215611a3757600080fd5b6000611a41612ca2565b6001600160a01b03851660009081526020828152604080832061ffff881684529091529020909150611a7283612caf565b8154600a9190910b6001600160581b0316600160a81b026001600160a81b0390911617905550505050565b6000806107a66002612c89565b600080611ab5612cd8565b6000938452602052505060409020546001600160a01b031690565b600080600080600080611ae1611a9d565b6001600160a01b039097166000908152602097909752505060409094205461ffff81169563ffffffff62010000830481169650600160301b830416945060ff600160501b8304169350600160581b90910460d81b9150565b600080600080611b47612ce5565b6001600160a01b0395909516600090815260209590955250506040909220546bffffffffffffffffffffffff811693600160601b82046001600160801b03169350600160e01b90910463ffffffff169150565b611ba2615aca565b611baa615aca565b60ff8416611bb9579050610888565b611bc38585612cf2565b815260ff841660608201528267ffffffffffffffff81118015611be557600080fd5b50604051908082528060200260200182016040528015611c1f57816020015b611c0c615af2565b815260200190600190039081611c045790505b506020820152949350505050565b600080611c38612ca2565b6001600160a01b03851660009081526020828152604080832061ffff8816845290915281208054600160a81b9004600a90810b900b9450919250831215611c7e57600080fd5b505092915050565b611c8e615b36565b6107a68242612cfe565b611ca0615a9e565b6000611caf8461ffff16612dc4565b6040805160808101825261ffff96909616865260ff821660208701528501939093525050606082015290565b600080611ce66159e9565b60208501515160005b8151811015611e00576000828281518110611d0657fe5b60200260200101519050611d1d8160400151612751565b611d2657600080fd5b6000611d3182612c22565b905087811115611d4057600080fd5b611d5885836000015161ffff16846020015184612de1565b50600080611d73836060015187612df590919063ffffffff16565b92509050611d818882611f62565b97505087826020015111611dc85760c0890151825160208401518b5160400151600093611db4939192909190868e612e9d565b9050611dc08782611f62565b965050611de7565b611de58960c00151836000015184602001518c60800151856115d3565b505b6020890151611df6908461172f565b5050600101611cef565b5050509250929050565b600080600080611e1e898961ffff166120a2565b9050611e2986610f65565b915086821015611e3857600080fd5b6000611e448884612991565b50905080611e5a57600080945094505050611f57565b6000611e65836120ec565b90505b8015801590611e775750818111155b15611ee2576000611e888a83612111565b90506000611e998d8d848d8d612edb565b90506000811315611eb557611eae8882611f62565b9750611ec2565b611ebf8782611f62565b96505b611ece858460006123f7565b9450611ed9856120ec565b92505050611e68565b60005b8115611f43576000611ef78b84612111565b9050600080611f068884612991565b9150915080611f1457600080fd5b611f20848360016123f7565b9350611f2e878660006123f7565b9650611f39876120ec565b9450505050611ee5565b611f528c8c61ffff1683612bc8565b505050505b955095509592505050565b818101828112156000831215146107a657600080fd5b600080611f8f83611f898787611f62565b90611f62565b9050611f9b8882612f73565b91508360001315611fab57600080fd5b6000831315611fb957600080fd5b8460001215611fd357611fcc8585611f62565b9350611fe0565b611fdd8584611f62565b92505b600084611fec856115c5565b1215611ff9575082612005565b612002856115c5565b90505b60008112156120375760208901518951600091612027916108a490859061130c565b905061203589898385612fb2565b505b50509695505050505050565b600064ffffffffff821115610b9d57600080fd5b6060015161012c60089190911c60ff160290565b61207887878786856130f4565b6120918760e001518860a001518960c0015185886131af565b60c090970196909652505050505050565b6000806120ad613237565b6001600160a01b038516600090815260209182526040808220868352909252205491505092915050565b6000828211156120e657600080fd5b50900390565b6000816120fb57506000610850565b61210482613244565b60ff036001019050919050565b60008161211d57600080fd5b61010082111561212c57600080fd5b600061213784610f65565b90506000605a841161215257506201518083020190506107a6565b6087841161217a575060591983016207e900908102908206909103016276a7000190506107a6565b60c384116121a35750608619830162278d00908102908206909103016301da9c000190506107a6565b5060c21983016276a70090810290820690910301630b1fa8000190506107a6565b60008084116121e55760405162461bcd60e51b815260040161032690615d48565b60078411156122065760405162461bcd60e51b815260040161032690615dc7565b6276a70083061561221957506000610888565b600061222483610855565b905060015b85811161225d5761224361223c826107ac565b8390610876565b85141561225557600192505050610888565b600101612229565b50600095945050505050565b600080612274612984565b6001600160a01b03861660009081526020918252604080822087835283528082208683529092522054600f90810b900b9150509392505050565b60008060006122c2866020015186866132dd565b9150915060006122d187612057565b9050816122f15786516122ea9061ffff1687838861336c565b9350610ae9565b60006122fc86610855565b9050600061230c61223c866107ac565b905060006123248a6000015161ffff1683868b61336c565b905060008087600114156123425750506040808b0151015188612371565b61235861235160018a036107ac565b8690610876565b905061236e8c6000015161ffff1682888d61336c565b91505b61237e818584868f611500565b9c9b505050505050505050505050565b60008461239d575060006123d9565b60006123a985856120d7565b905060006123b7828561340b565b9050633b9aca008113156123ca57600080fd5b6123d48782613478565b925050505b949350505050565b808203828113156000831215146107a657600080fd5b60006001831015801561240c57506101008311155b61241557600080fd5b811561242e5750600160ff1b60001983011c8317610888565b50600160ff1b60001983011c198316610888565b8151600090610888906108a4846ec097ce7bc90715b34b9f100000000061130c565b6000806107a66004612c89565b6060806000808467ffffffffffffffff8111801561248e57600080fd5b506040519080825280602002602001820160405280156124b8578160200160208202803683370190505b50905060008567ffffffffffffffff811180156124d457600080fd5b506040519080825280602002602001820160405280156124fe578160200160208202803683370190505b50905060005b868110156125a8578784600e811061251857fe5b600891828204019190066004029054906101000a900463ffffffff1663ffffffff1683828151811061254657fe5b60209081029190910101526001909301928784600e811061256357fe5b600891828204019190066004029054906101000a900463ffffffff1663ffffffff1682828151811061259157fe5b602090810291909101015260019384019301612504565b509093509150505b9250929050565b6000806107a66005612c89565b6000806107a6601c612c89565b6000806107a6601b612c89565b6125e6615a59565b60006125f184613491565b61ffff86166000908152602085905260408120919250906004861061261757600161261a565b60005b60ff166002811061262757fe5b0154905061129982826134ca565b6000805b865181101561274457600087828151811061265057fe5b6020026020010151905084816040015114158061267957508661ffff16816000015161ffff1614155b80612688575085816020015114155b15612693575061273c565b60028160a0015160038111156126a557fe5b141580156126c3575060038160a0015160038111156126c057fe5b14155b6126cc57600080fd5b60608101516000906126de9086611f62565b90506126e986612751565b156126fc5760008112156126fc57600080fd5b6001600160571b0319811280159061271b57506001600160571b038113155b61272457600080fd5b6060820152600160a0909101819052915061063f9050565b600101612639565b5060009695505050505050565b6000600282108015906107a65750506008101590565b60606000825160001461277e578251600202612781565b60015b905060008167ffffffffffffffff8111801561279c57600080fd5b506040519080825280602002602001820160405280156127d657816020015b6127c3615af2565b8152602001906001900390816127bb5790505b50905060005b8451811015612818578481815181106127f157fe5b602002602001015182828151811061280557fe5b60209081029190910101526001016127dc565b509392505050565b6000806107a6600a612c89565b6000851215801561284557506001600160501b038513155b61284e57600080fd5b6000841215801561286657506001600160501b038413155b61286f57600080fd5b826000108015612883575063ffffffff8311155b61288c57600080fd5b8160001080156128a0575063ffffffff8211155b6128a957600080fd5b63ffffffff8111156128ba57600080fd5b85546001600160501b0319166001600160501b039586161769ffffffffffffffffffff60501b1916600160501b94909516939093029390931763ffffffff60a01b1916600160a01b63ffffffff928316021763ffffffff60c01b1916600160c01b93821693909302929092176001600160e01b0316600160e01b9190921602179055565b6000811215801561295657506001600160501b038113155b61295f57600080fd5b60019190910180546001600160501b0319166001600160501b03909216919091179055565b6000806107a6600c612c89565b600080600061299f85610f65565b9050620151808406156129b95760008092509250506125b0565b8381106129cd5760008092509250506125b0565b6201518081850304605a81116129ea579250600191506125b09050565b6101688111612a29576000620151806207e900840604820160591901905060068104605a0160068281612a1957fe5b06600014945094505050506125b0565b6108708111612a595760006201518062278d00840604820161016719019050601e8104608701601e8281612a1957fe5b611de28111612a89576000620151806276a700840604820161086f19019050605a810460c301605a8281612a1957fe5b5061010095600095509350505050565b600060018210158015612aae57506101008211155b612ab757600080fd5b50600019011b600160ff1b9081161490565b600060016001607f1b03198212801590612aea575060016001607f1b038213155b610b9d57600080fd5b6000612aff83836135e9565b905080612b0c57506100ef565b6000612b16613670565b61ffff87166000908152602082815260408083208984529091528120549192506001600160501b03909116810390612b4e82856123e1565b90506000811315612b5e57600080fd5b612b77612b72612b6d836115c5565b610b8e565b61367d565b61ffff89166000908152602085815260408083208b8452909152902080546001600160501b0319166001600160501b0392909216919091179055612bbd89898987613693565b505050505050505050565b6014612bd38261371d565b1115612bf15760405162461bcd60e51b815260040161032690615d9e565b6000612bfb613237565b6001600160a01b039094166000908152602094855260408082209482529390945250912055565b6000808260400151118015612c3c57506040820151600810155b612c4557600080fd5b6040820151600210612c5c57506020810151610850565b6000612c6e60018460400151036107ac565b6020840151909150610888906276a700906101fc90846120d7565b6000620f4240826026811115612c9b57fe5b0192915050565b6000806107a66006612c89565b60006001600160571b03198212801590612aea57506001600160571b03821315610b9d57600080fd5b6000806107a66003612c89565b6000806107a66011612c89565b606061281883836137ed565b612d06615b36565b6000612d118461380e565b90508281600001511015612d5057600080612d2b866138d6565b9050612d3986848388613953565b9093509150612d498683856139f7565b5050612d5d565b80518314612d5d57600080fd5b6040518060600160405280612d8b612d868460a001518560c001516114ba90919063ffffffff16565b613c28565b8152602001612dae612d868460a001518560e001516114ba90919063ffffffff16565b8152602001826060015181525091505092915050565b600080612dcf613c3e565b60009384526020525050604090205490565b612def8484846001856130f4565b50505050565b60008082612e08575060009050806125b0565b60008313612e1557600080fd5b612e3484608001516108a485876060015161130c90919063ffffffff16565b9150612e5584608001516108a485876040015161130c90919063ffffffff16565b6080850151909150612e679084611221565b60808501526040840151612e7b9082611221565b60408501526060840151612e8f9083611221565b60608501526125b084613c4b565b600080612eab868685613ca3565b90506000612eba898387613ccc565b90935090506001600160a01b03881615612037576120378888888885613d34565b600080612ee6612984565b6001600160a01b03881660009081526020828152604080832061ffff8b1684528252808320898452909152902054909150600f90810b900b612f2c84898989858a612e9d565b6001600160a01b0390981660009081526020928352604080822061ffff90991682529783528781209681529590915250505091902080546001600160801b03191690555090565b600080821215612fac57612fa76001612fa185602001516108a487600001518761130c90919063ffffffff16565b906123e1565b610888565b50919050565b6000612fbc613e26565b61ffff8516600090815260209190915260409020805490915064ffffffffff164214612fe757600080fd5b8054600160f81b900460ff16612ffc57600080fd5b6001810154600090613017906001600160581b031685611f62565b825490915060009061303990600160281b90046001600160581b031685611f62565b90508160091912801561304c5750600082125b1561305657600091505b806009191280156130675750600081125b15613070575060005b61308161307c83610b8e565b613e33565b6001840180546affffffffffffffffffffff19166001600160581b03929092169190911790556130b361307c82610b8e565b83546001600160581b0391909116600160281b026fffffffffffffffffffffff0000000000199091161783556130eb87878688613e49565b6110dd83613f5d565b60006130fe612820565b6000868152602082815260408083208884528252808320868452825291829020808a5290890187905280546001600160501b03808216938b0193909352600160501b810490921660608a015263ffffffff600160a01b8304811660a08b0152600160c01b8304811660c08b0152600160e01b90920490911660e089015290915080841561319d5760018201546001600160501b031660808901526131a5565b600060808901525b5050505050505050565b60008083116131bd57600080fd5b818611156131cc57508361063f565b60006131d883886120d7565b9050838111156131eb578591505061063f565b60006131f78286614022565b90506000613209633b9aca00836120d7565b905061322a633b9aca006109676132208a856114ba565b6101fc8c876114ba565b9998505050505050505050565b6000806107a6600b612c89565b60008161325057600080fd5b600160801b821061326357608091821c91015b600160401b821061327657604091821c91015b640100000000821061328a57602091821c91015b62010000821061329c57601091821c91015b61010082106132ad57600891821c91015b601082106132bd57600491821c91015b600482106132cd57600291821c91015b6002821061085057600101919050565b600080600085116132ed57600080fd5b60078511156132fb57600080fd5b600061330684610855565b905060015b86811161335e576000613327613320836107ac565b8490610876565b90508681141561333f57509250600091506133649050565b8681111561335557509250600191506133649050565b5060010161330b565b50600080fd5b935093915050565b600080613377612820565b905060006276a70061338885610855565b6000898152602085815260408083208b84528252808320949093018083529390522080549192509063ffffffff600160a01b8204811691600160c01b8104821691600160e01b90910416816133ef5760405162461bcd60e51b815260040161032690615cea565b6133fc8184848c8c6131af565b9b9a5050505050505050505050565b6000806134286134236301da9c0061096786886114ba565b61403b565b905061343a81621dcd6560491b614059565b905061344d613448826140ac565b6140ce565b905061345f81621dcd6560491b614123565b9050600061346c82614159565b60070b95945050505050565b6000610888613487848461130c565b633b9aca0061135a565b6000816000106134a057600080fd5b60078211156134ae57600080fd5b600482106134bf57600482036134c1565b815b60080292915050565b6134d2615a59565b6064633b9aca008360ff8616602081106134e857fe5b1a02816134f157fe5b0481526064633b9aca008360ff86166001016020811061350d57fe5b1a028161351657fe5b0481602001818152505061353b8260028560ff16016020811061353557fe5b1a614162565b60808201819052610100908360ff86166003016020811061355857fe5b1a028161356157fe5b0460408201526080810151610100908360ff86166004016020811061358257fe5b1a028161358b57fe5b0460608201526207a1208260ff8516600501602081106135a757fe5b1a0260a0820152622625a08260ff8516600601602081106135c457fe5b1a0260c08201528160ff8416600701602081106135dd57fe5b1a60e082015292915050565b600081831480613606575060008312158015613606575060008212155b15613613575060006107a6565b600083131580156136245750816000125b156136305750816107a6565b600082131580156136415750826000125b1561364f5761096d826115c5565b60008313158015613661575060008213155b156100415761096d83836123e1565b6000806107a66020612c89565b60006001600160501b03821115610b9d57600080fd5b6000806136a1858585614196565b9150915060008060008512156136b9578791506136bc565b50865b806001600160a01b0316826001600160a01b0316336001600160a01b03167f4a39dc06d4c0dbc64b70af90fd698a233a518aa5d07e595d983b8c0526c8f7fb878760405161370b929190615cb7565b60405180910390a45050505050505050565b600181901c7f5555555555555555555555555555555555555555555555555555555555555555908116911601600281901c7f3333333333333333333333333333333333333333333333333333333333333333908116911601600481901c7f07070707070707070707070707070707070707070707070707070707070707079190911601600881901c7e0f000f000f000f000f000f000f000f000f000f000f000f000f000f000f000f908116911601601081901c01602081901c01604081901c01608081901c60ff90811691160190565b6060806137fa848461427b565b915061380582614393565b90509250929050565b613816615b57565b6000613820613e26565b61ffff93841660009081526020918252604090819020805464ffffffffff81168652600160281b81046001600160581b03908116948701949094526001820154841692860192909252600160d81b820463ffffffff166060860152600160801b9091049091166080840152600201546001600160501b0380821660a0850152600160501b8204811660c0850152600160a01b82041660e0840152600160f01b900460ff1661012c02909216610100820152919050565b6000806138e283614554565b6001600160a01b031663ef81f2166040518163ffffffff1660e01b81526004016040805180830381600087803b15801561391b57600080fd5b505af115801561392f573d6000803e3d6000fd5b505050506040513d601f19601f820116820180604052508101906123d99190615c09565b61395b615b57565b600080600061396b888689614584565b60c08b019290925260e08a01929092526020890151919350915061398f9083610876565b60208801526080870151600090156139bd5760808801516139ba906139b489826120d7565b9061468f565b90505b6139dd6139d2670de0b6b3a764000083610876565b60a08a0151906146a6565b60a089015250506080860194909452505082529092909150565b6000613a01613e26565b60008561ffff1681526020019081526020016000209050613a258260000151612043565b815464ffffffffff191664ffffffffff9190911617815560a0820151613a4a9061367d565b6002820180546001600160501b0319166001600160501b039290921691909117905560c0820151613a7a9061367d565b81600201600a6101000a8154816001600160501b0302191690836001600160501b03160217905550613aaf8260e0015161367d565b8160020160146101000a8154816001600160501b0302191690836001600160501b03160217905550613ae48260200151613e33565b81546001600160581b0391909116600160281b026fffffffffffffffffffffff0000000000199091161781556040820151613b1e90613e33565b6001820180546affffffffffffffffffffff19166001600160581b03929092169190911790556080820151613b5290613e33565b81546001600160581b0391909116600160801b026affffffffffffffffffffff60801b199091161781556060820151613b8a906146c3565b815463ffffffff91909116600160d81b0263ffffffff60d81b199091161781558215613bd6576000613bbb84613c28565b9050613bc785826146d6565b613bd4610fee868361470d565b505b8361ffff167fef25641e225e493886510ca1ad6584fa7b442b9fea820a29d1de3ce27d270fd28360a001518460c001518560e00151604051613c1a93929190615e68565b60405180910390a250505050565b60006001600160ff1b03821115610b9d57600080fd5b6000806107a66009612c89565b6000613c568261478d565b905060008160000160189054906101000a900463ffffffff169050613c9582846040015185606001518660a001518563ffffffff168860e0015161282d565b610e3282846080015161293e565b613cab615b36565b6000613cb78585614791565b9092509050806128185761063f858585614824565b600080613cd98484612442565b9150613ce58483612f73565b9050600082121561336457613d2a6001612fa187600001516108a48960200151613d248a602001516108a48c600001518b61130c90919063ffffffff16565b9061130c565b9150935093915050565b6000613d4085856149bd565b90506000831215613d5257600160401b175b60006001600160a01b038716337fc3d58168c5ae7397731d063d5bbf3d657854427343f4c083240f7aacaa2d0f6284613d8a886149db565b604051613d98929190615cdc565b60405180910390a46000613daf60008412876149fc565b9050806001600160a01b03166323de66516105e789613dcd876149db565b6040518463ffffffff1660e01b8152600401613deb93929190615c7a565b600060405180830381600087803b158015613e0557600080fd5b505af1158015613e19573d6000803e3d6000fd5b5050505050505050505050565b6000806107a6601d612c89565b60006001600160581b03821115610b9d57600080fd5b6000613e53614a5c565b61ffff8516600090815260209190915260408120546001600160a01b03169150613e7b614a69565b61ffff8616600090815260209190915260409081902054905163ad1c095d60e01b81526001600160a01b039091169150819063ad1c095d90613ec39089908790600401615c9e565b600060405180830381600087803b158015613edd57600080fd5b505af1158015613ef1573d6000803e3d6000fd5b505060405163ad1c095d60e01b81526001600160a01b038516925063ad1c095d9150613f239089908890600401615c9e565b600060405180830381600087803b158015613f3d57600080fd5b505af1158015613f51573d6000803e3d6000fd5b50505050505050505050565b80546002820154600091613f9991600160281b9091046001600160581b031690613d24906001600160501b03600160501b82048116911661130c565b60018301546002840154919250600091613fd3916001600160581b031690613d24906001600160501b03600160a01b82048116911661130c565b835490915060009061400a9060016001600160581b03600160801b909204821601166ec097ce7bc90715b34b9f100000000061130c565b90508061401784846123e1565b1315612def57600080fd5b600061088861403584633b9aca006114ba565b836114e1565b6000677fffffffffffffff82111561405257600080fd5b5060401b90565b600081600f0b6000141561406c57600080fd5b600082600f0b604085600f0b901b8161408157fe5b05905060016001607f1b031981128015906140a3575060016001607f1b038113155b61088857600080fd5b6000600f82900b60016001607f1b031914156140c757600080fd5b5060000390565b6000600160461b82600f0b126140e357600080fd5b683fffffffffffffffff1982600f0b121561410057506000610850565b6107a6608083600f0b700171547652b82fe1777d0ffda0d23a7d1202901d614a76565b6000600f83810b9083900b0260401d60016001607f1b031981128015906140a3575060016001607f1b0381131561088857600080fd5b600f0b60401d90565b60008160ff1660961061417d5760ff8216622625a0026107a6565b5060951960ff919091160162e4e1c00263165a0bc00190565b6040805160028082526060828101909352829160009181602001602082028036833701905050905060006141ca87876149bd565b905080826000815181106141da57fe5b602002602001018181525050600160401b8117826001815181106141fa57fe5b602090810291909101015260408051600280825260608201909252600091816020016020820280368337019050509050614233866149db565b8160008151811061424057fe5b602002602001018181525050614255866149db565b8160018151811061426257fe5b6020908102919091010152919791965090945050505050565b606060088260ff16111561428e57600080fd5b6000614298611a1c565b6001600160a01b038516600090815260208290526040812091925060ff851667ffffffffffffffff811180156142cd57600080fd5b5060405190808252806020026020018201604052801561430757816020015b6142f4615af2565b8152602001906001900390816142ec5790505b50905060005b8560ff1681101561063d57600083826008811061432657fe5b019050600083838151811061433757fe5b602090810291909101810151835461ffff8116825264ffffffffff620100008204169282019290925260ff600160381b8304166040820152600160401b909104600a90810b900b6060820152608001919091525060010161430d565b80516060908067ffffffffffffffff811180156143af57600080fd5b506040519080825280602002602001820160405280156143d9578160200160208202803683370190505b50915060005b818110156144365760008482815181106143f557fe5b60200260200101519050614416816000015182602001518360400151615526565b84838151811061442257fe5b6020908102919091010152506001016143df565b5060015b8181101561454d57805b60008111801561447c575083818151811061445b57fe5b602002602001015184600183038151811061447257fe5b6020026020010151115b156145445783818151811061448d57fe5b60200260200101518460018303815181106144a457fe5b60200260200101518560018403815181106144bb57fe5b602002602001018684815181106144ce57fe5b60200260200101828152508281525050508481815181106144eb57fe5b602002602001015185600183038151811061450257fe5b602002602001015186600184038151811061451957fe5b6020026020010187848151811061452c57fe5b60209081029190910101919091525260001901614444565b5060010161443a565b5050919050565b60008061455f61554f565b61ffff939093166000908152602093909352505060409020546001600160a01b031690565b600080600080600080614597898861555c565b895190955091935091506000906145be906145b3908b906120d7565b633b9aca00906114ba565b90506145f86145ed6301da9c006145d585856114ba565b816145dc57fe5b670de0b6b3a7640000919004610876565b60e08a0151906146a6565b965061461a61460f6301da9c006145d587856114ba565b60c08a0151906146a6565b955081831415614631575060009350614686915050565b60006146536146486301da9c006145d587866114ba565b60e08b0151906146a6565b9050600061466189836120d7565b905061467e88610967838d604001516114ba90919063ffffffff16565b965050505050505b93509350935093565b600061088861403584670de0b6b3a76400006114ba565b60006108886146b584846114ba565b670de0b6b3a76400006114e1565b600063ffffffff821115610b9d57600080fd5b60008112156146e457600080fd5b60006146f2610fee84611c2d565b90506146fe8183611f62565b9050610e32610fee8483611a29565b6000614717614a5c565b61ffff8416600090815260209190915260409081902054905163ad1c095d60e01b81526001600160a01b039091169150819063ad1c095d9061475f9087908690600401615c9e565b600060405180830381600087803b15801561477957600080fd5b505af11580156131a5573d6000803e3d6000fd5b5190565b614799615b36565b6000806147a46155f7565b61ffff861660009081526020828152604080832088845290915290208054600160f01b900460ff169350909150821561481b5780546001600160501b03600160a01b82048116916147f69116826114ba565b8552815461481490600160501b90046001600160501b0316826114ba565b6020860152505b50509250929050565b61482c615b36565b6148368483612cfe565b905060006148438561380e565b9050600061484f6155f7565b61ffff871660009081526020828152604080832089845290915290209091508561487857600080fd5b8251851461488557600080fd5b8460001061489257600080fd5b8486111561489f57600080fd5b83516000126148ad57600080fd5b83602001516000126148be57600080fd5b6148cb8360a0015161367d565b81546001600160501b0391909116600160a01b0269ffffffffffffffffffff60a01b1990911617815560c08301516149029061367d565b81546001600160501b0319166001600160501b039190911617815560e083015161492b9061367d565b815460ff60f01b196001600160501b0392909216600160501b0269ffffffffffffffffffff60501b199091161716600160f01b17815561496c878786615604565b858761ffff167f29fd83c1093c9721d6046038c76b6bddf0dc0c5dac3ecbfa23f8eb994ec61613866000015187602001516040516149ab929190615cdc565b60405180910390a35050509392505050565b67ffff000000000000603083901b16600882901b1760011792915050565b6000808212156149f5576149ee826115c5565b9050610850565b5080610850565b600082614a2e57614a0b614a5c565b61ffff8316600090815260209190915260409020546001600160a01b0316610888565b614a36614a69565b61ffff8316600090815260209190915260409020546001600160a01b0316905092915050565b6000806107a66021612c89565b6000806107a66022612c89565b6000600160461b82600f0b12614a8b57600080fd5b683fffffffffffffffff1982600f0b1215614aa857506000610850565b6001607f1b60006780000000000000008416600f0b1315614ada5770016a09e667f3bcc908b2fb1366ea957d3e0260801c5b60008367400000000000000016600f0b1315614b07577001306fe0a31b7152de8d5a46305c85edec0260801c5b60008367200000000000000016600f0b1315614b34577001172b83c7d517adcdf7c8c50eb14a791f0260801c5b60008367100000000000000016600f0b1315614b615770010b5586cf9890f6298b92b71842a983630260801c5b60008367080000000000000016600f0b1315614b8e577001059b0d31585743ae7c548eb68ca417fd0260801c5b60008367040000000000000016600f0b1315614bbb57700102c9a3e778060ee6f7caca4f7a29bde80260801c5b60008367020000000000000016600f0b1315614be85770010163da9fb33356d84a66ae336dcdfa3f0260801c5b600083600160381b16600f0b1315614c1157700100b1afa5abcbed6129ab13ec11dc95430260801c5b600083668000000000000016600f0b1315614c3d5770010058c86da1c09ea1ff19d294cf2f679b0260801c5b600083664000000000000016600f0b1315614c69577001002c605e2e8cec506d21bfc89a23a00f0260801c5b600083662000000000000016600f0b1315614c9557700100162f3904051fa128bca9c55c31e5df0260801c5b600083661000000000000016600f0b1315614cc1577001000b175effdc76ba38e31671ca9397250260801c5b600083660800000000000016600f0b1315614ced57700100058ba01fb9f96d6cacd4b180917c3d0260801c5b600083660400000000000016600f0b1315614d195770010002c5cc37da9491d0985c348c68e7b30260801c5b600083660200000000000016600f0b1315614d45577001000162e525ee054754457d59952920260260801c5b600083600160301b16600f0b1315614d6e5770010000b17255775c040618bf4a4ade83fc0260801c5b6000836580000000000016600f0b1315614d99577001000058b91b5bc9ae2eed81e9b7d4cfab0260801c5b6000836540000000000016600f0b1315614dc457700100002c5c89d5ec6ca4d7c8acc017b7c90260801c5b6000836520000000000016600f0b1315614def5770010000162e43f4f831060e02d839a9d16d0260801c5b6000836510000000000016600f0b1315614e1a57700100000b1721bcfc99d9f890ea069117630260801c5b6000836508000000000016600f0b1315614e455770010000058b90cf1e6d97f9ca14dbcc16280260801c5b6000836504000000000016600f0b1315614e70577001000002c5c863b73f016468f6bac5ca2b0260801c5b6000836502000000000016600f0b1315614e9b57700100000162e430e5a18f6119e3c02282a50260801c5b600083600160281b16600f0b1315614ec4577001000000b1721835514b86e6d96efd1bfe0260801c5b60008364800000000016600f0b1315614eee57700100000058b90c0b48c6be5df846c5b2ef0260801c5b60008364400000000016600f0b1315614f185770010000002c5c8601cc6b9e94213c72737a0260801c5b60008364200000000016600f0b1315614f42577001000000162e42fff037df38aa2b219f060260801c5b60008364100000000016600f0b1315614f6c5770010000000b17217fba9c739aa5819f44f90260801c5b60008364080000000016600f0b1315614f96577001000000058b90bfcdee5acd3c1cedc8230260801c5b60008364040000000016600f0b1315614fc057700100000002c5c85fe31f35a6a30da1be500260801c5b60008364020000000016600f0b1315614fea5770010000000162e42ff0999ce3541b9fffcf0260801c5b60008364010000000016600f0b131561501457700100000000b17217f80f4ef5aadda455540260801c5b600083638000000016600f0b131561503d5770010000000058b90bfbf8479bd5a81b51ad0260801c5b600083634000000016600f0b1315615066577001000000002c5c85fdf84bd62ae30a74cc0260801c5b600083632000000016600f0b131561508f57700100000000162e42fefb2fed257559bdaa0260801c5b600083631000000016600f0b13156150b8577001000000000b17217f7d5a7716bba4a9ae0260801c5b600083630800000016600f0b13156150e157700100000000058b90bfbe9ddbac5e109cce0260801c5b600083630400000016600f0b131561510a5770010000000002c5c85fdf4b15de6f17eb0d0260801c5b600083630200000016600f0b1315615133577001000000000162e42fefa494f1478fde050260801c5b600083630100000016600f0b131561515c5770010000000000b17217f7d20cf927c8e94c0260801c5b6000836280000016600f0b1315615184577001000000000058b90bfbe8f71cb4e4b33d0260801c5b6000836240000016600f0b13156151ac57700100000000002c5c85fdf477b662b269450260801c5b6000836220000016600f0b13156151d45770010000000000162e42fefa3ae53369388c0260801c5b6000836210000016600f0b13156151fc57700100000000000b17217f7d1d351a389d400260801c5b6000836208000016600f0b13156152245770010000000000058b90bfbe8e8b2d3d4ede0260801c5b6000836204000016600f0b131561524c577001000000000002c5c85fdf4741bea6e77e0260801c5b6000836202000016600f0b131561527457700100000000000162e42fefa39fe95583c20260801c5b6000836201000016600f0b131561529c577001000000000000b17217f7d1cfb72b45e10260801c5b60008361800016600f0b13156152c357700100000000000058b90bfbe8e7cc35c3f00260801c5b60008361400016600f0b13156152ea5770010000000000002c5c85fdf473e242ea380260801c5b60008361200016600f0b1315615311577001000000000000162e42fefa39f02b772c0260801c5b60008361100016600f0b13156153385770010000000000000b17217f7d1cf7d83c1a0260801c5b60008361080016600f0b131561535f577001000000000000058b90bfbe8e7bdcbe2e0260801c5b60008361040016600f0b131561538657700100000000000002c5c85fdf473dea871f0260801c5b60008361020016600f0b13156153ad5770010000000000000162e42fefa39ef44d910260801c5b60008361010016600f0b13156153d457700100000000000000b17217f7d1cf79e9490260801c5b600083608016600f0b13156153fa5770010000000000000058b90bfbe8e7bce5440260801c5b600083604016600f0b1315615420577001000000000000002c5c85fdf473de6eca0260801c5b600083602016600f0b131561544657700100000000000000162e42fefa39ef366f0260801c5b600083601016600f0b131561546c577001000000000000000b17217f7d1cf79afa0260801c5b600083600816600f0b131561549257700100000000000000058b90bfbe8e7bcd6d0260801c5b600083600416600f0b13156154b85770010000000000000002c5c85fdf473de6b20260801c5b600083600216600f0b13156154de577001000000000000000162e42fefa39ef3580260801c5b600083600116600f0b13156155045770010000000000000000b17217f7d1cf79ab0260801c5b600f83810b60401d603f03900b1c60016001607f1b038111156107a657600080fd5b67ffff000000000000603084901b1665ffffffffff00600884901b161760ff8216179392505050565b6000806107a6601f612c89565b6000806000806000856020015111156155a9576155a661558d8660c0015187602001516114ba90919063ffffffff16565b60e087015160408801516155a0916114ba565b90614022565b90505b60006155b48761575c565b90506155c08183610925565b945081156155d7576155d48186600161578f565b93505b6020860151156155ee576155eb8583615807565b92505b50509250925092565b6000806107a6601e612c89565b600061560e613670565b61ffff851660009081526020828152604080832087845290915281208054929350916001600160501b031690036156436159e9565b6156538161ffff89168880612de1565b6080810151156156755760405162461bcd60e51b815260040161032690615df7565b600061568986615684856115c5565b612442565b9050600061569f61569a8886615820565b6115c5565b90506156af6105e78a8385612fb2565b84546001600160501b03600160501b82048116600090810392600160a01b9004909116908212806156e05750806000125b156157245760006156f18a84612442565b905060006156ff8383611f62565b90508060001215615714576157148d826146d6565b6157218d8d86858561587c565b50505b50505061ffff909716600090815260209485526040808220978252969094525050509190912080546001600160f01b03191690555050565b615764615a59565b600061576e6125d1565b61ffff841660009081526020919091526040812054915061088890826134ca565b6000806157ae60646109678760e00151876114ba90919063ffffffff16565b90508460a001518110156157c3575060a08401515b8460c001518111156157d6575060c08401515b82156157ed576157e68482610876565b9150612818565b8381116157fc5780840361063f565b506000949350505050565b600061088861581684846114ba565b633b9aca006114e1565b6000816000131580156158335750600a82125b15615840575060006107a6565b6000821261584d57600080fd5b6108886001612fa185602001516108a46ec097ce7bc90715b34b9f10000000008761130c90919063ffffffff16565b6000600160401b61588d87876149bd565b17905060006105e7337fc3d58168c5ae7397731d063d5bbf3d657854427343f4c083240f7aacaa2d0f62846158c1896149db565b6040516158cf929190615cdc565b60405180910390a46158e46105e7878561470d565b60008213156158fd576158fd6105e7610fee8885615905565b505050505050565b600061590f614a5c565b61ffff8416600090815260209190915260408120546001600160a01b0316915082121561593a579293925b806001600160a01b03166323de66518686615954866149db565b6040518463ffffffff1660e01b815260040161597293929190615c7a565b600060405180830381600087803b15801561598c57600080fd5b505af1158015612bbd573d6000803e3d6000fd5b6040518060e001604052806159b3615a9e565b81526020016159c0615aca565b815260006020820181905260408201819052606082018190526080820181905260a09091015290565b60405180610100016040528060008019168152602001600081526020016000815260200160008152602001600081526020016000815260200160008152602001600081525090565b6040518060800160405280606081526020016060815260200160608152602001606081525090565b60405180610100016040528060008152602001600081526020016000815260200160008152602001600081526020016000815260200160008152602001600081525090565b6040805160808101825260008082526020820152908101615abd615b36565b8152600060209091015290565b6040518060800160405280606081526020016060815260200160008152602001600081525090565b6040518060c00160405280600061ffff1681526020016000815260200160008152602001600081526020016000815260200160006003811115615b3157fe5b905290565b60405180606001604052806000815260200160008152602001600081525090565b6040518061012001604052806000815260200160008152602001600081526020016000815260200160008152602001600081526020016000815260200160008152602001600081525090565b803561ffff8116811461085057600080fd5b600060208284031215615bc6578081fd5b61088882615ba3565b60008060408385031215615be1578081fd5b615bea83615ba3565b915060208301358015158114615bfe578182fd5b809150509250929050565b60008060408385031215615c1b578182fd5b505080516020909101519092909150565b6000815180845260208085019450808401835b83811015615c5b57815187529582019590820190600101615c3f565b509495945050505050565b6001600160a01b0391909116815260200190565b6001600160a01b039384168152919092166020820152604081019190915260600190565b6001600160a01b03929092168252602082015260400190565b600060408252615cca6040830185615c2c565b828103602084015261063f8185615c2c565b918252602082015260400190565b60208082526016908201527513585c9ad95d081b9bdd081a5b9a5d1a585b1a5e995960521b604082015260600190565b6020808252601490820152734f7261636c652072617465206f766572666c6f7760601b604082015260600190565b60208082526015908201527410d1ce881b9bc81b585c9ad95d1cc81b1a5cdd1959605a1b604082015260600190565b6020808252600d908201526c092dcecc2d8d2c840d2dcc8caf609b1b604082015260600190565b6020808252600f908201526e4f766572206d61782061737365747360881b604082015260600190565b60208082526016908201527510d1ce881b585c9ad95d081a5b99195e08189bdd5b9960521b604082015260600190565b6020808252601190820152704d75737420696e6974206d61726b65747360781b604082015260600190565b60208082526017908201527f494d3a20696d706c6965642072617465206661696c6564000000000000000000604082015260600190565b61ffff91909116815260200190565b928352602083019190915260408201526060019056fea2646970667358221220922864142ee0448b571b41d60962619d3b85112edc1718b80f1e8f694caf854464736f6c63430007060033","language":"Solidity","natspec":{"kind":"dev","methods":{"getLibInfo()":{"notice":"Get a list of deployed library addresses (sorted by library name)"},"initializeMarkets(uint16,bool)":{"details":"emit:MarketsInitializedauth:none","notice":"Initialize the market for a given currency id, done once a quarter","params":{"currencyId":"currency of markets to initialize","isFirstInit":"true if this is the first time the markets have been initialized"}},"sweepCashIntoMarkets(uint16)":{"details":"emit:CashSweepIntoMarketsauth:none","notice":"Sweeps nToken cash balance into markets after accounting for cash withholding. Can be done after fCash residuals are purchased to ensure that markets have maximum liquidity.","params":{"currencyId":"currency of markets to initialize"}}},"notice":"Initialize markets is called once every quarter to setup the new markets. Only the nToken account can initialize markets, and this method will be called on behalf of that account. In this action the following will occur:  - nToken Liquidity Tokens will be settled  - Any ifCash assets will be settled  - If nToken liquidity tokens are settled with negative net ifCash, enough cash will be withheld at the PV    to purchase offsetting positions  - fCash positions are written to storage  - For each market, calculate the proportion of fCash to cash given:     - previous oracle rates     - rate anchor set by governance     - percent of cash to deposit into the market set by governance  - Set new markets and add liquidity tokens to portfolio","version":1},"opcodes":"PUSH1 0x80 PUSH1 0x40 MSTORE CALLVALUE DUP1 ISZERO PUSH2 0x10 JUMPI PUSH1 0x0 DUP1 REVERT JUMPDEST POP PUSH1 0x4 CALLDATASIZE LT PUSH2 0x41 JUMPI PUSH1 0x0 CALLDATALOAD PUSH1 0xE0 SHR DUP1 PUSH4 0xBB6DD58E EQ PUSH2 0x46 JUMPI DUP1 PUSH4 0xC4C96DAE EQ PUSH2 0x5B JUMPI DUP1 PUSH4 0xD0E064C0 EQ PUSH2 0x79 JUMPI JUMPDEST PUSH1 0x0 DUP1 REVERT JUMPDEST PUSH2 0x59 PUSH2 0x54 CALLDATASIZE PUSH1 0x4 PUSH2 0x5BB5 JUMP JUMPDEST PUSH2 0x8C JUMP JUMPDEST STOP JUMPDEST PUSH2 0x63 PUSH2 0xF6 JUMP JUMPDEST PUSH1 0x40 MLOAD PUSH2 0x70 SWAP2 SWAP1 PUSH2 0x5C66 JUMP JUMPDEST PUSH1 0x40 MLOAD DUP1 SWAP2 SUB SWAP1 RETURN JUMPDEST PUSH2 0x59 PUSH2 0x87 CALLDATASIZE PUSH1 0x4 PUSH2 0x5BCF JUMP JUMPDEST PUSH2 0x10E JUMP JUMPDEST PUSH1 0x40 MLOAD PUSH4 0x5DB6EAC7 PUSH1 0xE1 SHL DUP2 MSTORE PUSH20 0x0 SWAP1 PUSH4 0xBB6DD58E SWAP1 PUSH2 0xC3 SWAP1 DUP5 SWAP1 PUSH1 0x4 ADD PUSH2 0x5E59 JUMP JUMPDEST PUSH1 0x0 PUSH1 0x40 MLOAD DUP1 DUP4 SUB DUP2 DUP7 DUP1 EXTCODESIZE ISZERO DUP1 ISZERO PUSH2 0xDB JUMPI PUSH1 0x0 DUP1 REVERT JUMPDEST POP GAS DELEGATECALL ISZERO DUP1 ISZERO PUSH2 0xEF JUMPI RETURNDATASIZE PUSH1 0x0 DUP1 RETURNDATACOPY RETURNDATASIZE PUSH1 0x0 REVERT JUMPDEST POP POP POP POP POP JUMP JUMPDEST PUSH20 0x0 SWAP1 JUMP JUMPDEST TIMESTAMP PUSH2 0x117 PUSH2 0x59A0 JUMP JUMPDEST PUSH2 0x121 DUP2 DUP6 PUSH2 0x5B3 JUMP JUMPDEST DUP1 MLOAD PUSH1 0x20 ADD MLOAD PUSH1 0x0 SWAP1 PUSH8 0xFFFFFFFFFFFFFFFF DUP2 GT DUP1 ISZERO PUSH2 0x140 JUMPI PUSH1 0x0 DUP1 REVERT JUMPDEST POP PUSH1 0x40 MLOAD SWAP1 DUP1 DUP3 MSTORE DUP1 PUSH1 0x20 MUL PUSH1 0x20 ADD DUP3 ADD PUSH1 0x40 MSTORE DUP1 ISZERO PUSH2 0x17A JUMPI DUP2 PUSH1 0x20 ADD JUMPDEST PUSH2 0x167 PUSH2 0x59E9 JUMP JUMPDEST DUP2 MSTORE PUSH1 0x20 ADD SWAP1 PUSH1 0x1 SWAP1 SUB SWAP1 DUP2 PUSH2 0x15F JUMPI SWAP1 POP JUMPDEST POP DUP3 MLOAD PUSH1 0x20 ADD MLOAD SWAP1 SWAP2 POP PUSH2 0x18D JUMPI PUSH1 0x0 DUP1 REVERT JUMPDEST DUP4 ISZERO PUSH2 0x1A4 JUMPI PUSH1 0x20 DUP3 ADD MLOAD MLOAD MLOAD ISZERO PUSH2 0x1A4 JUMPI PUSH1 0x0 DUP1 REVERT JUMPDEST PUSH1 0x0 PUSH2 0x1B3 DUP4 DUP4 DUP7 DUP10 DUP10 PUSH2 0x5CC JUMP JUMPDEST SWAP1 POP PUSH1 0x0 PUSH2 0x1C9 DUP8 DUP6 PUSH1 0x0 ADD MLOAD PUSH1 0x20 ADD MLOAD PUSH2 0x648 JUMP JUMPDEST SWAP1 POP PUSH2 0x1D3 PUSH2 0x59E9 JUMP JUMPDEST PUSH1 0x0 DUP1 JUMPDEST DUP7 MLOAD PUSH1 0x20 ADD MLOAD DUP2 LT ISZERO PUSH2 0x527 JUMPI PUSH2 0x202 PUSH2 0x1F3 DUP3 PUSH1 0x1 ADD PUSH2 0x7AC JUMP JUMPDEST PUSH2 0x1FC DUP11 PUSH2 0x855 JUMP JUMPDEST SWAP1 PUSH2 0x876 JUMP JUMPDEST PUSH1 0x20 DUP5 ADD MSTORE DUP4 MLOAD DUP1 MLOAD PUSH1 0x0 SWAP2 PUSH2 0x235 SWAP2 DUP9 SWAP2 SWAP1 DUP6 SWAP1 DUP2 LT PUSH2 0x21F JUMPI INVALID JUMPDEST PUSH1 0x20 MUL PUSH1 0x20 ADD ADD MLOAD DUP5 PUSH1 0x2 PUSH1 0xFF AND ADD DUP8 DUP13 PUSH2 0x88F JUMP JUMPDEST SWAP1 POP DUP10 DUP1 PUSH2 0x24F JUMPI POP DUP2 PUSH1 0x1 EQ DUP1 ISZERO PUSH2 0x24F JUMPI POP DUP7 MLOAD PUSH1 0x2 EQ JUMPDEST DUP1 PUSH2 0x260 JUMPI POP PUSH1 0x20 DUP9 ADD MLOAD MLOAD MLOAD DUP3 LT ISZERO JUMPDEST DUP1 PUSH2 0x28E JUMPI POP DUP2 PUSH1 0x1 EQ DUP1 ISZERO PUSH2 0x28E JUMPI POP DUP7 PUSH1 0x2 DUP2 MLOAD DUP2 LT PUSH2 0x27E JUMPI INVALID JUMPDEST PUSH1 0x20 MUL PUSH1 0x20 ADD ADD MLOAD PUSH1 0xC0 ADD MLOAD PUSH1 0x0 EQ JUMPDEST ISZERO PUSH2 0x335 JUMPI PUSH1 0x0 PUSH2 0x2B6 DUP3 DUP8 PUSH1 0x40 ADD MLOAD DUP6 DUP2 MLOAD DUP2 LT PUSH2 0x2A9 JUMPI INVALID JUMPDEST PUSH1 0x20 MUL PUSH1 0x20 ADD ADD MLOAD PUSH2 0x8F0 JUMP JUMPDEST SWAP1 POP DUP1 DUP6 PUSH1 0x40 ADD DUP2 DUP2 MSTORE POP POP PUSH2 0x303 DUP7 PUSH1 0x40 ADD MLOAD DUP5 DUP2 MLOAD DUP2 LT PUSH2 0x2D5 JUMPI INVALID JUMPDEST PUSH1 0x20 MUL PUSH1 0x20 ADD ADD MLOAD DUP8 PUSH1 0x60 ADD MLOAD DUP6 DUP2 MLOAD DUP2 LT PUSH2 0x2ED JUMPI INVALID JUMPDEST PUSH1 0x20 MUL PUSH1 0x20 ADD ADD MLOAD PUSH2 0x925 SWAP1 SWAP2 SWAP1 PUSH4 0xFFFFFFFF AND JUMP JUMPDEST PUSH1 0xC0 DUP7 ADD DUP2 SWAP1 MSTORE PUSH2 0x32F JUMPI PUSH1 0x40 MLOAD PUSH3 0x461BCD PUSH1 0xE5 SHL DUP2 MSTORE PUSH1 0x4 ADD PUSH2 0x326 SWAP1 PUSH2 0x5E22 JUMP JUMPDEST PUSH1 0x40 MLOAD DUP1 SWAP2 SUB SWAP1 REVERT JUMPDEST POP PUSH2 0x509 JUMP JUMPDEST DUP2 PUSH2 0x35A JUMPI DUP7 PUSH1 0x1 DUP2 MLOAD DUP2 LT PUSH2 0x347 JUMPI INVALID JUMPDEST PUSH1 0x20 MUL PUSH1 0x20 ADD ADD MLOAD PUSH1 0xC0 ADD MLOAD SWAP3 POP PUSH2 0x43B JUMP JUMPDEST DUP2 PUSH1 0x1 EQ ISZERO PUSH2 0x3BE JUMPI PUSH2 0x375 DUP8 PUSH2 0x370 DUP12 PUSH2 0x855 JUMP JUMPDEST PUSH2 0x9E5 JUMP JUMPDEST SWAP3 POP DUP5 PUSH1 0x60 ADD MLOAD DUP3 DUP2 MLOAD DUP2 LT PUSH2 0x387 JUMPI INVALID JUMPDEST PUSH1 0x20 MUL PUSH1 0x20 ADD ADD MLOAD PUSH1 0x40 ADD MLOAD DUP4 LT ISZERO PUSH2 0x3B9 JUMPI DUP5 PUSH1 0x60 ADD MLOAD DUP3 DUP2 MLOAD DUP2 LT PUSH2 0x3AA JUMPI INVALID JUMPDEST PUSH1 0x20 MUL PUSH1 0x20 ADD ADD MLOAD PUSH1 0x40 ADD MLOAD SWAP3 POP JUMPDEST PUSH2 0x43B JUMP JUMPDEST PUSH1 0x0 PUSH2 0x3D5 PUSH2 0x3CC DUP5 PUSH2 0x7AC JUMP JUMPDEST PUSH2 0x1FC DUP13 PUSH2 0x855 JUMP JUMPDEST SWAP1 POP PUSH2 0x3F5 DUP2 DUP6 DUP11 DUP7 DUP2 MLOAD DUP2 LT PUSH2 0x3E8 JUMPI INVALID JUMPDEST PUSH1 0x20 MUL PUSH1 0x20 ADD ADD MLOAD PUSH2 0xA6B JUMP JUMPDEST SWAP4 POP DUP6 PUSH1 0x60 ADD MLOAD DUP4 DUP2 MLOAD DUP2 LT PUSH2 0x407 JUMPI INVALID JUMPDEST PUSH1 0x20 MUL PUSH1 0x20 ADD ADD MLOAD PUSH1 0x40 ADD MLOAD DUP5 LT ISZERO PUSH2 0x439 JUMPI DUP6 PUSH1 0x60 ADD MLOAD DUP4 DUP2 MLOAD DUP2 LT PUSH2 0x42A JUMPI INVALID JUMPDEST PUSH1 0x20 MUL PUSH1 0x20 ADD ADD MLOAD PUSH1 0x40 ADD MLOAD SWAP4 POP JUMPDEST POP JUMPDEST PUSH1 0x0 PUSH2 0x467 DUP5 DUP8 PUSH1 0x60 ADD MLOAD DUP6 DUP2 MLOAD DUP2 LT PUSH2 0x451 JUMPI INVALID JUMPDEST PUSH1 0x20 MUL PUSH1 0x20 ADD ADD MLOAD PUSH2 0xAF3 SWAP1 SWAP2 SWAP1 PUSH4 0xFFFFFFFF AND JUMP JUMPDEST SWAP1 POP PUSH2 0x489 DUP7 PUSH1 0x20 ADD MLOAD DUP5 DUP2 MLOAD DUP2 LT PUSH2 0x47C JUMPI INVALID JUMPDEST PUSH1 0x20 MUL PUSH1 0x20 ADD ADD MLOAD PUSH2 0xB8E JUMP JUMPDEST DUP2 GT ISZERO PUSH2 0x4D8 JUMPI PUSH2 0x4A3 DUP7 PUSH1 0x20 ADD MLOAD DUP5 DUP2 MLOAD DUP2 LT PUSH2 0x47C JUMPI INVALID JUMPDEST SWAP1 POP PUSH2 0x4B9 DUP2 DUP8 PUSH1 0x60 ADD MLOAD DUP6 DUP2 MLOAD DUP2 LT PUSH2 0x2ED JUMPI INVALID JUMPDEST SWAP4 POP DUP4 PUSH2 0x4D8 JUMPI PUSH1 0x40 MLOAD PUSH3 0x461BCD PUSH1 0xE5 SHL DUP2 MSTORE PUSH1 0x4 ADD PUSH2 0x326 SWAP1 PUSH2 0x5D1A JUMP JUMPDEST PUSH2 0x4E2 DUP3 DUP3 PUSH2 0x8F0 JUMP JUMPDEST PUSH1 0x40 DUP7 ADD DUP2 SWAP1 MSTORE PUSH1 0x1 SGT ISZERO PUSH2 0x4F9 JUMPI PUSH1 0x1 PUSH1 0x40 DUP7 ADD MSTORE JUMPDEST POP PUSH1 0xC0 DUP5 ADD DUP4 SWAP1 MSTORE PUSH1 0xE0 DUP5 ADD DUP10 SWAP1 MSTORE JUMPDEST PUSH1 0xC0 DUP5 ADD MLOAD PUSH1 0xA0 DUP6 ADD MSTORE PUSH2 0x51E DUP5 DUP13 DUP11 PUSH2 0xBA1 JUMP JUMPDEST POP PUSH1 0x1 ADD PUSH2 0x1D7 JUMP JUMPDEST POP PUSH1 0x0 PUSH2 0x545 DUP8 PUSH1 0xC0 ADD MLOAD DUP9 PUSH1 0x20 ADD MLOAD PUSH2 0xBE7 SWAP1 SWAP2 SWAP1 PUSH4 0xFFFFFFFF AND JUMP JUMPDEST POP SWAP3 POP POP POP PUSH2 0x55D DUP8 PUSH1 0xC0 ADD MLOAD DUP12 DUP10 PUSH1 0x60 ADD MLOAD PUSH2 0xE27 JUMP JUMPDEST PUSH2 0x570 DUP8 PUSH1 0xC0 ADD MLOAD DUP3 DUP10 PUSH1 0x80 ADD MLOAD PUSH2 0xE37 JUMP JUMPDEST PUSH32 0xCFFEFF9ACCC9171F01FEC36E09A1A06F0160CE50A8C4C0A2ADFF9CEC562ADF08 DUP11 PUSH1 0x40 MLOAD PUSH2 0x59F SWAP2 SWAP1 PUSH2 0x5E59 JUMP JUMPDEST PUSH1 0x40 MLOAD DUP1 SWAP2 SUB SWAP1 LOG1 POP POP POP POP POP POP POP POP POP POP JUMP JUMPDEST PUSH2 0x5BD DUP3 DUP3 PUSH2 0xEAA JUMP JUMPDEST PUSH2 0x5C6 DUP2 PUSH2 0xF46 JUMP JUMPDEST SWAP1 SWAP2 MSTORE POP JUMP JUMPDEST PUSH1 0x0 DUP1 DUP3 ISZERO PUSH2 0x5EF JUMPI PUSH2 0x5DE DUP6 PUSH2 0xF65 JUMP JUMPDEST PUSH5 0xFFFFFFFFFF AND PUSH1 0x80 DUP9 ADD MSTORE PUSH2 0x617 JUMP JUMPDEST PUSH2 0x5F9 DUP8 DUP7 PUSH2 0xF81 JUMP JUMPDEST PUSH2 0x609 DUP5 PUSH2 0xFFFF AND DUP7 DUP10 DUP10 PUSH2 0x1056 JUMP JUMPDEST PUSH2 0x614 DUP8 DUP8 DUP8 PUSH2 0x10E6 JUMP JUMPDEST SWAP1 POP JUMPDEST PUSH1 0x60 DUP8 ADD MLOAD PUSH2 0x626 SWAP1 DUP3 PUSH2 0x1221 JUMP JUMPDEST PUSH1 0x60 DUP9 ADD DUP3 SWAP1 MSTORE SWAP2 POP PUSH2 0x3E8 DUP3 SGT PUSH2 0x63D JUMPI PUSH1 0x0 DUP1 REVERT JUMPDEST POP JUMPDEST SWAP6 SWAP5 POP POP POP POP POP JUMP JUMPDEST PUSH2 0x650 PUSH2 0x5A31 JUMP JUMPDEST PUSH2 0x658 PUSH2 0x5A31 JUMP JUMPDEST PUSH2 0x666 DUP5 PUSH2 0xFFFF AND DUP5 PUSH2 0x123D JUMP JUMPDEST PUSH1 0x20 DUP4 ADD MSTORE DUP2 MSTORE PUSH1 0x0 PUSH2 0x67D PUSH2 0xFFFF DUP7 AND DUP6 PUSH2 0x1272 JUMP JUMPDEST SWAP1 POP DUP1 MLOAD PUSH8 0xFFFFFFFFFFFFFFFF DUP2 GT DUP1 ISZERO PUSH2 0x697 JUMPI PUSH1 0x0 DUP1 REVERT JUMPDEST POP PUSH1 0x40 MLOAD SWAP1 DUP1 DUP3 MSTORE DUP1 PUSH1 0x20 MUL PUSH1 0x20 ADD DUP3 ADD PUSH1 0x40 MSTORE DUP1 ISZERO PUSH2 0x6C1 JUMPI DUP2 PUSH1 0x20 ADD PUSH1 0x20 DUP3 MUL DUP1 CALLDATASIZE DUP4 CALLDATACOPY ADD SWAP1 POP JUMPDEST POP PUSH1 0x40 DUP4 ADD MSTORE PUSH1 0x0 JUMPDEST DUP2 MLOAD DUP2 LT ISZERO PUSH2 0x705 JUMPI PUSH2 0x6E2 DUP3 DUP3 DUP2 MLOAD DUP2 LT PUSH2 0x47C JUMPI INVALID JUMPDEST DUP4 PUSH1 0x40 ADD MLOAD DUP3 DUP2 MLOAD DUP2 LT PUSH2 0x6F2 JUMPI INVALID JUMPDEST PUSH1 0x20 SWAP1 DUP2 MUL SWAP2 SWAP1 SWAP2 ADD ADD MSTORE PUSH1 0x1 ADD PUSH2 0x6CA JUMP JUMPDEST POP PUSH2 0x70F DUP6 PUSH2 0x12A3 JUMP JUMPDEST DUP4 PUSH8 0xFFFFFFFFFFFFFFFF DUP2 GT DUP1 ISZERO PUSH2 0x726 JUMPI PUSH1 0x0 DUP1 REVERT JUMPDEST POP PUSH1 0x40 MLOAD SWAP1 DUP1 DUP3 MSTORE DUP1 PUSH1 0x20 MUL PUSH1 0x20 ADD DUP3 ADD PUSH1 0x40 MSTORE DUP1 ISZERO PUSH2 0x760 JUMPI DUP2 PUSH1 0x20 ADD JUMPDEST PUSH2 0x74D PUSH2 0x5A59 JUMP JUMPDEST DUP2 MSTORE PUSH1 0x20 ADD SWAP1 PUSH1 0x1 SWAP1 SUB SWAP1 DUP2 PUSH2 0x745 JUMPI SWAP1 POP JUMPDEST POP PUSH1 0x60 DUP4 ADD MSTORE PUSH1 0x1 JUMPDEST DUP5 DUP2 GT PUSH2 0x7A0 JUMPI PUSH2 0x77A DUP7 DUP3 PUSH2 0x12F2 JUMP JUMPDEST DUP4 PUSH1 0x60 ADD MLOAD PUSH1 0x1 DUP4 SUB DUP2 MLOAD DUP2 LT PUSH2 0x78D JUMPI INVALID JUMPDEST PUSH1 0x20 SWAP1 DUP2 MUL SWAP2 SWAP1 SWAP2 ADD ADD MSTORE PUSH1 0x1 ADD PUSH2 0x769 JUMP JUMPDEST POP SWAP1 SWAP2 POP POP JUMPDEST SWAP3 SWAP2 POP POP JUMP JUMPDEST PUSH1 0x0 DUP2 PUSH1 0x1 EQ ISZERO PUSH2 0x7C1 JUMPI POP PUSH3 0x76A700 PUSH2 0x850 JUMP JUMPDEST DUP2 PUSH1 0x2 EQ ISZERO PUSH2 0x7D4 JUMPI POP PUSH3 0xED4E00 PUSH2 0x850 JUMP JUMPDEST DUP2 PUSH1 0x3 EQ ISZERO PUSH2 0x7E8 JUMPI POP PUSH4 0x1DA9C00 PUSH2 0x850 JUMP JUMPDEST DUP2 PUSH1 0x4 EQ ISZERO PUSH2 0x7FC JUMPI POP PUSH4 0x3B53800 PUSH2 0x850 JUMP JUMPDEST DUP2 PUSH1 0x5 EQ ISZERO PUSH2 0x810 JUMPI POP PUSH4 0x9450C00 PUSH2 0x850 JUMP JUMPDEST DUP2 PUSH1 0x6 EQ ISZERO PUSH2 0x824 JUMPI POP PUSH4 0x128A1800 PUSH2 0x850 JUMP JUMPDEST DUP2 PUSH1 0x7 EQ ISZERO PUSH2 0x838 JUMPI POP PUSH4 0x25143000 PUSH2 0x850 JUMP JUMPDEST PUSH1 0x40 MLOAD PUSH3 0x461BCD PUSH1 0xE5 SHL DUP2 MSTORE PUSH1 0x4 ADD PUSH2 0x326 SWAP1 PUSH2 0x5D77 JUMP JUMPDEST SWAP2 SWAP1 POP JUMP JUMPDEST PUSH1 0x0 PUSH3 0x76A700 DUP3 LT ISZERO PUSH2 0x867 JUMPI PUSH1 0x0 DUP1 REVERT JUMPDEST PUSH3 0x76A700 DUP3 JUMPDEST MOD SWAP1 SWAP2 SUB SWAP2 SWAP1 POP JUMP JUMPDEST PUSH1 0x0 DUP3 DUP3 ADD DUP4 DUP2 LT ISZERO PUSH2 0x888 JUMPI PUSH1 0x0 DUP1 REVERT JUMPDEST SWAP4 SWAP3 POP POP POP JUMP JUMPDEST PUSH1 0x0 DUP1 PUSH2 0x8AA PUSH4 0x5F5E100 PUSH2 0x8A4 DUP10 DUP10 PUSH2 0x130C JUMP JUMPDEST SWAP1 PUSH2 0x135A JUMP JUMPDEST PUSH1 0x60 DUP6 ADD DUP2 SWAP1 MSTORE PUSH1 0x80 DUP6 ADD DUP2 SWAP1 MSTORE DUP4 MLOAD MLOAD PUSH1 0x20 DUP1 DUP8 ADD MLOAD SWAP1 DUP7 ADD MLOAD SWAP3 SWAP4 POP PUSH2 0x8D5 SWAP3 SWAP2 SWAP1 DUP9 DUP6 PUSH2 0x138B JUMP JUMPDEST DUP3 MLOAD PUSH1 0x40 ADD MLOAD PUSH2 0x8E5 SWAP1 DUP3 PUSH2 0x148E JUMP JUMPDEST SWAP8 SWAP7 POP POP POP POP POP POP POP JUMP JUMPDEST PUSH1 0x0 PUSH4 0x3B9ACA00 DUP3 LT PUSH2 0x902 JUMPI PUSH1 0x0 DUP1 REVERT JUMPDEST DUP2 PUSH4 0x3B9ACA00 DUP2 SWAP1 SUB PUSH2 0x915 DUP6 DUP4 PUSH2 0x130C JUMP JUMPDEST DUP2 PUSH2 0x91C JUMPI INVALID JUMPDEST SDIV SWAP5 SWAP4 POP POP POP POP JUMP JUMPDEST PUSH1 0x0 DUP1 DUP4 PUSH1 0x80 ADD MLOAD GT PUSH2 0x937 JUMPI PUSH1 0x0 DUP1 REVERT JUMPDEST PUSH4 0x3B9ACA00 DUP3 GT ISZERO PUSH2 0x948 JUMPI PUSH1 0x0 DUP1 REVERT JUMPDEST DUP3 MLOAD DUP3 GT PUSH2 0x974 JUMPI DUP3 MLOAD PUSH1 0x40 DUP5 ADD MLOAD PUSH2 0x96D SWAP2 SWAP1 PUSH2 0x967 SWAP1 DUP6 SWAP1 PUSH2 0x14BA JUMP JUMPDEST SWAP1 PUSH2 0x14E1 JUMP JUMPDEST SWAP1 POP PUSH2 0x7A6 JUMP JUMPDEST DUP3 PUSH1 0x20 ADD MLOAD DUP3 GT PUSH2 0x9AC JUMPI PUSH1 0x40 DUP4 ADD MLOAD DUP4 MLOAD PUSH1 0x20 DUP6 ADD MLOAD PUSH1 0x60 DUP7 ADD MLOAD PUSH2 0x96D SWAP4 SWAP3 PUSH2 0x1FC SWAP3 DUP2 SWAP1 SUB SWAP2 PUSH2 0x967 SWAP2 DUP9 SUB SWAP1 DUP6 SWAP1 SUB PUSH2 0x14BA JUMP JUMPDEST PUSH2 0x888 DUP4 PUSH1 0x60 ADD MLOAD PUSH2 0x1FC DUP6 PUSH1 0x20 ADD MLOAD PUSH4 0x3B9ACA00 SUB PUSH2 0x967 DUP8 PUSH1 0x60 ADD MLOAD DUP9 PUSH1 0x80 ADD MLOAD SUB DUP9 PUSH1 0x20 ADD MLOAD DUP9 SUB PUSH2 0x14BA SWAP1 SWAP2 SWAP1 PUSH4 0xFFFFFFFF AND JUMP JUMPDEST PUSH1 0x0 PUSH1 0x3 DUP4 MLOAD LT ISZERO PUSH2 0x9F6 JUMPI PUSH1 0x0 DUP1 REVERT JUMPDEST PUSH2 0x888 DUP4 PUSH1 0x1 DUP2 MLOAD DUP2 LT PUSH2 0xA06 JUMPI INVALID JUMPDEST PUSH1 0x20 MUL PUSH1 0x20 ADD ADD MLOAD PUSH1 0x20 ADD MLOAD DUP5 PUSH1 0x2 DUP2 MLOAD DUP2 LT PUSH2 0xA1F JUMPI INVALID JUMPDEST PUSH1 0x20 MUL PUSH1 0x20 ADD ADD MLOAD PUSH1 0x20 ADD MLOAD DUP6 PUSH1 0x1 DUP2 MLOAD DUP2 LT PUSH2 0xA38 JUMPI INVALID JUMPDEST PUSH1 0x20 MUL PUSH1 0x20 ADD ADD MLOAD PUSH1 0xC0 ADD MLOAD DUP7 PUSH1 0x2 DUP2 MLOAD DUP2 LT PUSH2 0xA51 JUMPI INVALID JUMPDEST PUSH1 0x20 SWAP1 DUP2 MUL SWAP2 SWAP1 SWAP2 ADD ADD MLOAD PUSH1 0xC0 ADD MLOAD PUSH3 0xED4E00 DUP8 ADD PUSH2 0x1500 JUMP JUMPDEST PUSH1 0x20 DUP2 ADD MLOAD PUSH1 0xC0 DUP3 ADD MLOAD PUSH1 0x0 SWAP2 SWAP1 PUSH3 0x76A700 DUP3 ADD DUP3 DUP8 LT PUSH2 0xA8B JUMPI PUSH1 0x0 DUP1 REVERT JUMPDEST DUP6 DUP3 LT PUSH2 0xAB4 JUMPI PUSH2 0xAAA DUP7 PUSH2 0x1FC DUP10 DUP7 SUB PUSH2 0x967 DUP4 DUP8 SUB DUP13 DUP8 SUB PUSH2 0x14BA JUMP JUMPDEST SWAP4 POP POP POP POP PUSH2 0x888 JUMP JUMPDEST PUSH1 0x0 PUSH2 0xACA DUP9 DUP6 SUB PUSH2 0x967 DUP6 DUP11 SUB DUP12 DUP7 SUB PUSH2 0x14BA JUMP JUMPDEST SWAP1 POP DUP1 DUP8 GT PUSH2 0xADA JUMPI PUSH1 0x1 PUSH2 0xADE JUMP JUMPDEST DUP1 DUP8 SUB JUMPDEST SWAP5 POP POP POP POP POP PUSH2 0x888 JUMP JUMPDEST POP POP POP SWAP4 SWAP3 POP POP POP JUMP JUMPDEST PUSH1 0x0 DUP1 DUP4 PUSH1 0x80 ADD MLOAD GT PUSH2 0xB05 JUMPI PUSH1 0x0 DUP1 REVERT JUMPDEST DUP3 PUSH1 0x40 ADD MLOAD DUP3 GT PUSH2 0xB27 JUMPI PUSH1 0x40 DUP4 ADD MLOAD DUP4 MLOAD PUSH2 0x96D SWAP2 SWAP1 PUSH2 0x967 SWAP1 DUP6 SWAP1 PUSH2 0x14BA JUMP JUMPDEST DUP3 PUSH1 0x60 ADD MLOAD DUP3 GT PUSH2 0xB5F JUMPI DUP3 MLOAD PUSH1 0x40 DUP5 ADD MLOAD PUSH1 0x60 DUP6 ADD MLOAD PUSH1 0x20 DUP7 ADD MLOAD PUSH2 0x96D SWAP4 SWAP3 PUSH2 0x1FC SWAP3 DUP2 SWAP1 SUB SWAP2 PUSH2 0x967 SWAP2 DUP9 SUB SWAP1 DUP6 SWAP1 SUB PUSH2 0x14BA JUMP JUMPDEST PUSH1 0x20 DUP4 ADD MLOAD PUSH1 0x60 DUP5 ADD MLOAD PUSH1 0x80 DUP6 ADD MLOAD PUSH2 0x888 SWAP3 SWAP2 PUSH2 0x1FC SWAP2 DUP2 SWAP1 SUB SWAP1 PUSH2 0x967 SWAP1 DUP8 SUB PUSH4 0x3B9ACA00 DUP6 SWAP1 SUB PUSH2 0x14BA JUMP JUMPDEST PUSH1 0x0 DUP1 DUP3 SLT ISZERO PUSH2 0xB9D JUMPI PUSH1 0x0 DUP1 REVERT JUMPDEST POP SWAP1 JUMP JUMPDEST PUSH1 0x0 PUSH3 0x76A700 PUSH2 0xBB0 TIMESTAMP PUSH2 0x855 JUMP JUMPDEST ADD SWAP1 POP PUSH2 0xBC2 DUP5 PUSH2 0xFFFF DUP6 AND DUP4 PUSH2 0x155E JUMP JUMPDEST PUSH2 0xEF DUP3 PUSH1 0xC0 ADD MLOAD DUP5 DUP7 PUSH1 0x20 ADD MLOAD DUP6 PUSH1 0x80 ADD MLOAD PUSH2 0xBE2 DUP10 PUSH1 0x40 ADD MLOAD PUSH2 0x15C5 JUMP JUMPDEST PUSH2 0x15D3 JUMP JUMPDEST PUSH1 0x0 DUP1 DUP1 DUP1 DUP1 DUP1 DUP1 DUP1 JUMPDEST DUP10 MLOAD MLOAD DUP2 LT ISZERO PUSH2 0xC78 JUMPI PUSH1 0x0 DUP11 PUSH1 0x0 ADD MLOAD DUP3 DUP2 MLOAD DUP2 LT PUSH2 0xC0D JUMPI INVALID JUMPDEST PUSH1 0x20 MUL PUSH1 0x20 ADD ADD MLOAD SWAP1 POP PUSH1 0x3 DUP1 DUP2 GT ISZERO PUSH2 0xC23 JUMPI INVALID JUMPDEST DUP2 PUSH1 0xA0 ADD MLOAD PUSH1 0x3 DUP2 GT ISZERO PUSH2 0xC33 JUMPI INVALID JUMPDEST EQ ISZERO PUSH2 0xC3E JUMPI PUSH1 0x0 DUP1 REVERT JUMPDEST PUSH1 0x2 DUP2 PUSH1 0xA0 ADD MLOAD PUSH1 0x3 DUP2 GT ISZERO PUSH2 0xC50 JUMPI INVALID JUMPDEST EQ ISZERO DUP1 ISZERO PUSH2 0xC60 JUMPI POP PUSH1 0x60 DUP2 ADD MLOAD ISZERO JUMPDEST ISZERO PUSH2 0xC6F JUMPI PUSH2 0xC6F DUP12 DUP4 PUSH2 0x172F JUMP JUMPDEST POP PUSH1 0x1 ADD PUSH2 0xBF1 JUMP JUMPDEST POP PUSH1 0x0 JUMPDEST DUP10 MLOAD MLOAD DUP2 LT ISZERO PUSH2 0xD1B JUMPI PUSH1 0x0 DUP11 PUSH1 0x0 ADD MLOAD DUP3 DUP2 MLOAD DUP2 LT PUSH2 0xC98 JUMPI INVALID JUMPDEST PUSH1 0x20 MUL PUSH1 0x20 ADD ADD MLOAD SWAP1 POP PUSH1 0x2 PUSH1 0x3 DUP2 GT ISZERO PUSH2 0xCAF JUMPI INVALID JUMPDEST DUP2 PUSH1 0xA0 ADD MLOAD PUSH1 0x3 DUP2 GT ISZERO PUSH2 0xCBF JUMPI INVALID JUMPDEST EQ ISZERO PUSH2 0xCD3 JUMPI PUSH1 0x80 DUP2 ADD MLOAD PUSH1 0x0 SWAP1 SSTORE PUSH2 0xD12 JUMP JUMPDEST PUSH1 0x1 DUP2 PUSH1 0xA0 ADD MLOAD PUSH1 0x3 DUP2 GT ISZERO PUSH2 0xCE5 JUMPI INVALID JUMPDEST EQ ISZERO PUSH2 0xCFE JUMPI PUSH1 0x80 DUP2 ADD MLOAD DUP1 PUSH2 0xCFB DUP4 DUP3 PUSH2 0x187F JUMP JUMPDEST POP POP JUMPDEST PUSH2 0xD0A DUP2 DUP7 DUP7 DUP7 PUSH2 0x19AE JUMP JUMPDEST SWAP2 SWAP7 POP SWAP5 POP SWAP3 POP JUMPDEST POP PUSH1 0x1 ADD PUSH2 0xC7C JUMP JUMPDEST POP PUSH1 0x60 DUP10 ADD MLOAD PUSH1 0x0 PUSH2 0xD2B PUSH2 0x1A1C JUMP JUMPDEST PUSH1 0x1 PUSH1 0x1 PUSH1 0xA0 SHL SUB DUP12 AND PUSH1 0x0 SWAP1 DUP2 MSTORE PUSH1 0x20 DUP3 SWAP1 MSTORE PUSH1 0x40 DUP2 KECCAK256 SWAP2 SWAP3 POP JUMPDEST DUP13 PUSH1 0x20 ADD MLOAD MLOAD DUP2 LT ISZERO PUSH2 0xDF5 JUMPI PUSH1 0x0 DUP14 PUSH1 0x20 ADD MLOAD DUP3 DUP2 MLOAD DUP2 LT PUSH2 0xD66 JUMPI INVALID JUMPDEST PUSH1 0x20 MUL PUSH1 0x20 ADD ADD MLOAD SWAP1 POP DUP1 PUSH1 0x60 ADD MLOAD PUSH1 0x0 EQ ISZERO PUSH2 0xD83 JUMPI POP PUSH2 0xDED JUMP JUMPDEST PUSH1 0x2 DUP2 PUSH1 0xA0 ADD MLOAD PUSH1 0x3 DUP2 GT ISZERO PUSH2 0xD95 JUMPI INVALID JUMPDEST EQ ISZERO DUP1 ISZERO PUSH2 0xDB3 JUMPI POP PUSH1 0x3 DUP2 PUSH1 0xA0 ADD MLOAD PUSH1 0x3 DUP2 GT ISZERO PUSH2 0xDB0 JUMPI INVALID JUMPDEST EQ ISZERO JUMPDEST PUSH2 0xDBC JUMPI PUSH1 0x0 DUP1 REVERT JUMPDEST PUSH2 0xDC8 DUP2 DUP10 DUP10 DUP10 PUSH2 0x19AE JUMP JUMPDEST SWAP2 SWAP10 POP SWAP8 POP SWAP6 POP PUSH2 0xDE5 DUP2 DUP5 DUP8 PUSH1 0x8 DUP2 LT PUSH2 0xDDF JUMPI INVALID JUMPDEST ADD PUSH2 0x187F JUMP JUMPDEST PUSH1 0x1 DUP6 ADD SWAP5 POP POP JUMPDEST PUSH1 0x1 ADD PUSH2 0xD47 JUMP JUMPDEST POP PUSH1 0x10 DUP4 GT ISZERO PUSH2 0xE04 JUMPI PUSH1 0x0 DUP1 REVERT JUMPDEST PUSH5 0xFFFFFFFFFF DUP5 GT ISZERO PUSH2 0xE16 JUMPI PUSH1 0x0 DUP1 REVERT JUMPDEST POP SWAP4 SWAP11 SWAP3 SWAP10 POP SWAP8 POP SWAP6 POP SWAP4 POP POP POP POP JUMP JUMPDEST PUSH2 0xE32 DUP4 DUP4 DUP4 PUSH2 0x1A29 JUMP JUMPDEST POP POP POP JUMP JUMPDEST PUSH4 0xFFFFFFFF DUP2 LT PUSH2 0xE47 JUMPI PUSH1 0x0 DUP1 REVERT JUMPDEST PUSH1 0x0 PUSH2 0xE51 PUSH2 0x1A9D JUMP JUMPDEST PUSH1 0x1 PUSH1 0x1 PUSH1 0xA0 SHL SUB SWAP1 SWAP5 AND PUSH1 0x0 SWAP1 DUP2 MSTORE PUSH1 0x20 SWAP5 SWAP1 SWAP5 MSTORE POP PUSH1 0x40 SWAP1 SWAP3 KECCAK256 DUP1 SLOAD PUSH1 0xFF SWAP1 SWAP3 AND PUSH1 0x1 PUSH1 0x50 SHL MUL PUSH1 0xFF PUSH1 0x50 SHL NOT PUSH4 0xFFFFFFFF SWAP1 SWAP5 AND PUSH1 0x1 PUSH1 0x30 SHL MUL PUSH10 0xFFFFFFFF000000000000 NOT SWAP1 SWAP4 AND SWAP3 SWAP1 SWAP3 OR SWAP3 SWAP1 SWAP3 AND OR SWAP1 SSTORE JUMP JUMPDEST PUSH2 0xEB7 DUP2 PUSH2 0xFFFF AND PUSH2 0x1AAA JUMP JUMPDEST PUSH1 0x1 PUSH1 0x1 PUSH1 0xA0 SHL SUB AND PUSH1 0xC0 DUP4 ADD DUP2 SWAP1 MSTORE PUSH1 0x0 SWAP1 DUP2 SWAP1 DUP2 SWAP1 PUSH2 0xED7 SWAP1 PUSH2 0x1AD0 JUMP JUMPDEST SWAP5 POP SWAP5 POP SWAP5 POP POP POP PUSH1 0x0 PUSH2 0xEEE DUP7 PUSH1 0xC0 ADD MLOAD PUSH2 0x1B39 JUMP JUMPDEST POP POP PUSH1 0x80 DUP8 ADD DUP6 SWAP1 MSTORE PUSH1 0x40 DUP8 ADD DUP2 SWAP1 MSTORE PUSH1 0x1 PUSH1 0x1 PUSH1 0xD8 SHL SUB NOT DUP4 AND PUSH1 0xA0 DUP9 ADD MSTORE PUSH1 0xC0 DUP8 ADD MLOAD SWAP1 SWAP2 POP PUSH2 0xF22 SWAP1 DUP5 PUSH1 0x0 PUSH2 0x1B9A JUMP JUMPDEST PUSH1 0x20 DUP8 ADD MSTORE PUSH1 0xC0 DUP7 ADD MLOAD PUSH2 0xF36 SWAP1 DUP7 PUSH2 0x1C2D JUMP JUMPDEST PUSH1 0x60 SWAP1 SWAP7 ADD SWAP6 SWAP1 SWAP6 MSTORE POP POP POP POP POP JUMP JUMPDEST PUSH2 0xF4E PUSH2 0x5A9E JUMP JUMPDEST PUSH1 0x0 PUSH2 0xF59 DUP4 PUSH2 0x1C86 JUMP JUMPDEST SWAP1 POP PUSH2 0x888 DUP4 DUP3 PUSH2 0x1C98 JUMP JUMPDEST PUSH1 0x0 PUSH3 0x15180 DUP3 LT ISZERO PUSH2 0xF77 JUMPI PUSH1 0x0 DUP1 REVERT JUMPDEST PUSH3 0x15180 DUP3 PUSH2 0x86D JUMP JUMPDEST PUSH1 0x0 PUSH2 0xF8C DUP3 PUSH2 0x855 JUMP JUMPDEST SWAP1 POP DUP1 DUP4 PUSH1 0x80 ADD MLOAD LT PUSH2 0xF9E JUMPI PUSH1 0x0 DUP1 REVERT JUMPDEST PUSH1 0x0 DUP1 PUSH2 0xFAB DUP6 DUP6 PUSH2 0x1CDB JUMP JUMPDEST SWAP2 POP SWAP2 POP PUSH1 0x0 DUP1 PUSH1 0x0 PUSH2 0xFD9 DUP9 PUSH1 0xC0 ADD MLOAD DUP10 PUSH1 0x0 ADD MLOAD PUSH1 0x0 ADD MLOAD DUP11 PUSH1 0x80 ADD MLOAD DUP11 DUP13 PUSH1 0x0 ADD MLOAD PUSH1 0x40 ADD MLOAD PUSH2 0x1E0A JUMP JUMPDEST SWAP2 SWAP5 POP SWAP3 POP SWAP1 POP PUSH2 0xFEA DUP4 DUP6 PUSH2 0x1F62 JUMP JUMPDEST PUSH1 0x60 DUP10 ADD MLOAD SWAP1 SWAP4 POP PUSH2 0xFFC SWAP1 DUP7 PUSH2 0x1F62 JUMP JUMPDEST PUSH1 0x60 DUP10 ADD DUP2 SWAP1 MSTORE PUSH1 0xC0 DUP10 ADD MLOAD DUP10 MLOAD DUP1 MLOAD PUSH1 0x40 SWAP1 SWAP2 ADD MLOAD PUSH2 0x1021 SWAP4 SWAP1 SWAP3 SWAP2 SWAP1 DUP8 DUP8 PUSH2 0x1F78 JUMP JUMPDEST PUSH1 0x60 DUP10 ADD DUP2 SWAP1 MSTORE PUSH1 0x0 SLT PUSH2 0x1034 JUMPI PUSH1 0x0 DUP1 REVERT JUMPDEST PUSH2 0x103D DUP2 PUSH2 0x2043 JUMP JUMPDEST PUSH5 0xFFFFFFFFFF AND PUSH1 0x80 SWAP1 SWAP9 ADD SWAP8 SWAP1 SWAP8 MSTORE POP POP POP POP POP POP POP JUMP JUMPDEST PUSH1 0x0 PUSH2 0x1065 DUP4 PUSH1 0x0 ADD MLOAD PUSH2 0x2057 JUMP JUMPDEST SWAP1 POP PUSH1 0x0 PUSH2 0x1072 DUP6 PUSH2 0x855 JUMP JUMPDEST SWAP1 POP PUSH1 0x1 JUMPDEST PUSH1 0x20 DUP6 ADD MLOAD MLOAD MLOAD DUP2 LT ISZERO PUSH2 0x10DD JUMPI PUSH2 0x10D5 DUP8 DUP7 PUSH1 0x20 ADD MLOAD PUSH1 0x0 ADD MLOAD DUP4 DUP2 MLOAD DUP2 LT PUSH2 0x109D JUMPI INVALID JUMPDEST PUSH1 0x20 MUL PUSH1 0x20 ADD ADD MLOAD PUSH1 0x20 ADD MLOAD DUP9 PUSH1 0x0 DUP8 DUP8 DUP11 DUP9 DUP2 MLOAD DUP2 LT PUSH2 0x10BA JUMPI INVALID JUMPDEST PUSH1 0x20 MUL PUSH1 0x20 ADD ADD MLOAD PUSH2 0x206B SWAP1 SWAP7 SWAP6 SWAP5 SWAP4 SWAP3 SWAP2 SWAP1 PUSH4 0xFFFFFFFF AND JUMP JUMPDEST PUSH1 0x1 ADD PUSH2 0x1077 JUMP JUMPDEST POP POP POP POP POP POP POP JUMP JUMPDEST PUSH1 0x0 DUP1 PUSH2 0x1103 DUP6 PUSH1 0xC0 ADD MLOAD DUP7 PUSH1 0x0 ADD MLOAD PUSH1 0x0 ADD MLOAD PUSH2 0xFFFF AND PUSH2 0x20A2 JUMP JUMPDEST PUSH1 0xA0 DUP7 ADD MLOAD DUP6 MLOAD SWAP2 SWAP3 POP PUSH1 0x1 BYTE PUSH3 0xF4240 MUL SWAP1 PUSH1 0x0 SWAP1 ISZERO PUSH2 0x1130 JUMPI PUSH2 0x112B DUP6 PUSH3 0x76A700 PUSH2 0x20D7 JUMP JUMPDEST PUSH2 0x1132 JUMP JUMPDEST DUP5 JUMPDEST SWAP1 POP PUSH1 0x0 PUSH2 0x113F DUP5 PUSH2 0x20EC JUMP JUMPDEST SWAP1 POP JUMPDEST DUP1 ISZERO PUSH2 0x1205 JUMPI PUSH1 0x0 PUSH2 0x1158 DUP10 PUSH1 0x80 ADD MLOAD DUP4 PUSH2 0x2111 JUMP JUMPDEST SWAP1 POP PUSH1 0x0 PUSH2 0x116F DUP11 PUSH1 0x0 ADD MLOAD PUSH1 0x20 ADD MLOAD DUP4 DUP11 PUSH2 0x21C4 JUMP JUMPDEST SWAP1 POP DUP1 PUSH2 0x11E5 JUMPI PUSH1 0xC0 DUP11 ADD MLOAD DUP11 MLOAD MLOAD PUSH1 0x0 SWAP2 PUSH2 0x118F SWAP2 PUSH2 0xFFFF AND DUP6 PUSH2 0x2269 JUMP JUMPDEST SWAP1 POP PUSH1 0x0 DUP2 SLT ISZERO PUSH2 0x11E3 JUMPI DUP11 MLOAD PUSH1 0x0 SWAP1 PUSH2 0x11AA SWAP1 DUP6 DUP9 PUSH2 0x22AE JUMP JUMPDEST SWAP1 POP DUP1 DUP8 GT ISZERO PUSH2 0x11BC JUMPI POP PUSH1 0x0 PUSH2 0x11C9 JUMP JUMPDEST PUSH2 0x11C6 DUP2 DUP9 PUSH2 0x20D7 JUMP JUMPDEST SWAP1 POP JUMPDEST PUSH2 0x11DF PUSH2 0x11D8 DUP4 DUP7 DUP14 DUP6 PUSH2 0x238E JUMP JUMPDEST DUP11 SWAP1 PUSH2 0x23E1 JUMP JUMPDEST SWAP9 POP POP JUMPDEST POP JUMPDEST PUSH2 0x11F1 DUP7 DUP5 PUSH1 0x0 PUSH2 0x23F7 JUMP JUMPDEST SWAP6 POP PUSH2 0x11FC DUP7 PUSH2 0x20EC JUMP JUMPDEST SWAP3 POP POP POP PUSH2 0x1142 JUMP JUMPDEST DUP8 MLOAD PUSH1 0x40 ADD MLOAD PUSH2 0x1215 SWAP1 DUP7 PUSH2 0x2442 JUMP JUMPDEST SWAP9 SWAP8 POP POP POP POP POP POP POP POP JUMP JUMPDEST PUSH1 0x0 PUSH2 0x122D DUP4 DUP4 PUSH2 0x23E1 JUMP JUMPDEST SWAP1 POP PUSH1 0x0 DUP2 SLT ISZERO PUSH2 0x7A6 JUMPI PUSH1 0x0 DUP1 REVERT JUMPDEST PUSH1 0x60 DUP1 PUSH1 0x0 PUSH2 0x124A PUSH2 0x2464 JUMP JUMPDEST PUSH1 0x0 DUP7 DUP2 MSTORE PUSH1 0x20 DUP3 SWAP1 MSTORE PUSH1 0x40 SWAP1 KECCAK256 SWAP1 SWAP2 POP PUSH2 0x1265 DUP2 DUP7 PUSH2 0x2471 JUMP JUMPDEST SWAP1 SWAP8 SWAP1 SWAP7 POP SWAP5 POP POP POP POP POP JUMP JUMPDEST PUSH1 0x60 PUSH1 0x0 PUSH2 0x127E PUSH2 0x25B7 JUMP JUMPDEST PUSH1 0x0 DUP6 DUP2 MSTORE PUSH1 0x20 DUP3 SWAP1 MSTORE PUSH1 0x40 SWAP1 KECCAK256 SWAP1 SWAP2 POP PUSH2 0x1299 DUP2 DUP6 PUSH2 0x2471 JUMP JUMPDEST SWAP7 SWAP6 POP POP POP POP POP POP JUMP JUMPDEST PUSH1 0x0 PUSH2 0x12AD PUSH2 0x25C4 JUMP JUMPDEST PUSH2 0xFFFF DUP4 AND PUSH1 0x0 SWAP1 DUP2 MSTORE PUSH1 0x20 SWAP2 SWAP1 SWAP2 MSTORE PUSH1 0x40 DUP2 KECCAK256 SWAP2 POP PUSH2 0x12CB PUSH2 0x25D1 JUMP JUMPDEST PUSH2 0xFFFF SWAP4 SWAP1 SWAP4 AND PUSH1 0x0 SWAP1 DUP2 MSTORE PUSH1 0x20 SWAP4 SWAP1 SWAP4 MSTORE POP PUSH1 0x40 SWAP1 SWAP2 KECCAK256 DUP2 SLOAD DUP2 SSTORE PUSH1 0x1 SWAP2 DUP3 ADD SLOAD SWAP2 ADD SSTORE JUMP JUMPDEST PUSH2 0x12FA PUSH2 0x5A59 JUMP JUMPDEST PUSH2 0x888 DUP4 DUP4 PUSH2 0x1307 PUSH2 0x25D1 JUMP JUMPDEST PUSH2 0x25DE JUMP JUMPDEST DUP2 DUP2 MUL PUSH1 0x0 NOT DUP4 EQ ISZERO PUSH2 0x133C JUMPI DUP2 ISZERO DUP1 PUSH2 0x132E JUMPI POP DUP3 DUP3 DUP3 DUP2 PUSH2 0x132B JUMPI INVALID JUMPDEST SDIV EQ JUMPDEST PUSH2 0x1337 JUMPI PUSH1 0x0 DUP1 REVERT JUMPDEST PUSH2 0x7A6 JUMP JUMPDEST DUP3 ISZERO DUP1 PUSH2 0x1351 JUMPI POP DUP2 DUP4 DUP3 DUP2 PUSH2 0x134E JUMPI INVALID JUMPDEST SDIV EQ JUMPDEST PUSH2 0x7A6 JUMPI PUSH1 0x0 DUP1 REVERT JUMPDEST PUSH1 0x0 DUP2 PUSH1 0x0 NOT EQ DUP1 ISZERO PUSH2 0x1370 JUMPI POP PUSH1 0x1 PUSH1 0xFF SHL DUP4 EQ JUMPDEST ISZERO PUSH2 0x137A JUMPI PUSH1 0x0 DUP1 REVERT JUMPDEST DUP2 DUP4 DUP2 PUSH2 0x1383 JUMPI INVALID JUMPDEST SDIV SWAP4 SWAP3 POP POP POP JUMP JUMPDEST DUP5 MLOAD PUSH2 0x139A SWAP1 DUP6 DUP6 DUP6 DUP6 PUSH2 0x2635 JUMP JUMPDEST ISZERO PUSH2 0x13A4 JUMPI PUSH2 0xEF JUMP JUMPDEST PUSH1 0x40 DUP6 ADD MLOAD ISZERO PUSH2 0x13D1 JUMPI PUSH1 0x0 PUSH2 0x13C1 DUP7 PUSH1 0x20 ADD MLOAD DUP7 DUP7 DUP7 DUP7 PUSH2 0x2635 JUMP JUMPDEST SWAP1 POP DUP1 ISZERO PUSH2 0x13CF JUMPI POP PUSH2 0xEF JUMP JUMPDEST POP JUMPDEST PUSH2 0x13DA DUP3 PUSH2 0x2751 JUMP JUMPDEST ISZERO PUSH2 0x13ED JUMPI PUSH1 0x0 DUP2 SLT ISZERO PUSH2 0x13ED JUMPI PUSH1 0x0 DUP1 REVERT JUMPDEST PUSH1 0x1 PUSH1 0x1 PUSH1 0x57 SHL SUB NOT DUP2 SLT DUP1 ISZERO SWAP1 PUSH2 0x140C JUMPI POP PUSH1 0x1 PUSH1 0x1 PUSH1 0x57 SHL SUB DUP2 SGT ISZERO JUMPDEST PUSH2 0x1415 JUMPI PUSH1 0x0 DUP1 REVERT JUMPDEST DUP5 PUSH1 0x20 ADD MLOAD MLOAD DUP6 PUSH1 0x40 ADD MLOAD EQ ISZERO PUSH2 0x1439 JUMPI PUSH2 0x1433 DUP6 PUSH1 0x20 ADD MLOAD PUSH2 0x2767 JUMP JUMPDEST PUSH1 0x20 DUP7 ADD MSTORE JUMPDEST PUSH1 0x0 DUP6 PUSH1 0x20 ADD MLOAD DUP7 PUSH1 0x40 ADD MLOAD DUP2 MLOAD DUP2 LT PUSH2 0x144F JUMPI INVALID JUMPDEST PUSH1 0x20 SWAP1 DUP2 MUL SWAP2 SWAP1 SWAP2 ADD DUP2 ADD MLOAD PUSH2 0xFFFF SWAP7 SWAP1 SWAP7 AND DUP7 MSTORE DUP6 ADD SWAP4 SWAP1 SWAP4 MSTORE PUSH1 0x40 DUP1 DUP6 ADD SWAP3 SWAP1 SWAP3 MSTORE PUSH1 0x60 DUP5 ADD MSTORE PUSH1 0x0 PUSH1 0xA0 SWAP1 SWAP4 ADD SWAP3 SWAP1 SWAP3 MSTORE POP ADD DUP1 MLOAD PUSH1 0x1 ADD SWAP1 MSTORE JUMP JUMPDEST PUSH1 0x0 PUSH2 0x888 PUSH15 0xC097CE7BC90715B34B9F1000000000 PUSH2 0x8A4 DUP6 PUSH1 0x0 ADD MLOAD DUP6 PUSH2 0x130C SWAP1 SWAP2 SWAP1 PUSH4 0xFFFFFFFF AND JUMP JUMPDEST PUSH1 0x0 DUP3 PUSH2 0x14C9 JUMPI POP PUSH1 0x0 PUSH2 0x7A6 JUMP JUMPDEST DUP3 DUP3 MUL DUP3 DUP5 DUP3 DUP2 PUSH2 0x14D6 JUMPI INVALID JUMPDEST DIV EQ PUSH2 0x888 JUMPI PUSH1 0x0 DUP1 REVERT JUMPDEST PUSH1 0x0 DUP1 DUP3 GT PUSH2 0x14EF JUMPI PUSH1 0x0 DUP1 REVERT JUMPDEST DUP2 DUP4 DUP2 PUSH2 0x14F8 JUMPI INVALID JUMPDEST DIV SWAP4 SWAP3 POP POP POP JUMP JUMPDEST PUSH1 0x0 DUP2 DUP7 LT PUSH2 0x150E JUMPI PUSH1 0x0 DUP1 REVERT JUMPDEST DUP5 DUP3 LT PUSH2 0x151A JUMPI PUSH1 0x0 DUP1 REVERT JUMPDEST DUP4 DUP4 LT PUSH2 0x1540 JUMPI PUSH2 0x1539 DUP5 PUSH2 0x1FC DUP9 DUP9 SUB PUSH2 0x967 DUP4 DUP9 SUB DUP12 DUP9 SUB PUSH2 0x14BA JUMP JUMPDEST SWAP1 POP PUSH2 0x63F JUMP JUMPDEST PUSH2 0x1539 PUSH2 0x1557 DUP8 DUP8 SUB PUSH2 0x967 DUP7 DUP9 SUB DUP11 DUP8 SUB PUSH2 0x14BA JUMP JUMPDEST DUP6 SWAP1 PUSH2 0x20D7 JUMP JUMPDEST PUSH1 0x0 PUSH2 0x1568 PUSH2 0x2820 JUMP JUMPDEST PUSH1 0x0 DUP5 DUP2 MSTORE PUSH1 0x20 DUP3 DUP2 MSTORE PUSH1 0x40 DUP1 DUP4 KECCAK256 DUP9 DUP4 ADD MLOAD DUP5 MSTORE DUP3 MSTORE DUP1 DUP4 KECCAK256 DUP7 DUP5 MSTORE SWAP1 SWAP2 MSTORE SWAP1 DUP2 SWAP1 KECCAK256 SWAP1 DUP7 ADD MLOAD PUSH1 0x60 DUP8 ADD MLOAD PUSH1 0xA0 DUP9 ADD MLOAD PUSH1 0xC0 DUP10 ADD MLOAD PUSH1 0xE0 DUP11 ADD MLOAD SWAP6 SWAP7 POP SWAP4 SWAP5 PUSH2 0x15B7 SWAP5 DUP7 SWAP5 SWAP4 SWAP3 SWAP2 PUSH2 0x282D JUMP JUMPDEST PUSH2 0xEF DUP2 DUP7 PUSH1 0x80 ADD MLOAD PUSH2 0x293E JUMP JUMPDEST PUSH1 0x0 PUSH2 0x7A6 PUSH1 0x0 NOT DUP4 PUSH2 0x130C JUMP JUMPDEST PUSH1 0x0 DUP1 PUSH2 0x15E4 DUP8 DUP8 PUSH2 0xFFFF AND PUSH2 0x20A2 JUMP JUMPDEST SWAP1 POP PUSH1 0x0 PUSH2 0x15F0 PUSH2 0x2984 JUMP JUMPDEST PUSH1 0x1 PUSH1 0x1 PUSH1 0xA0 SHL SUB DUP10 AND PUSH1 0x0 SWAP1 DUP2 MSTORE PUSH1 0x20 DUP3 DUP2 MSTORE PUSH1 0x40 DUP1 DUP4 KECCAK256 PUSH2 0xFFFF DUP13 AND DUP5 MSTORE DUP3 MSTORE DUP1 DUP4 KECCAK256 DUP11 DUP5 MSTORE SWAP1 SWAP2 MSTORE DUP2 KECCAK256 SWAP2 SWAP3 POP DUP1 PUSH2 0x162B DUP9 DUP11 PUSH2 0x2991 JUMP JUMPDEST SWAP2 POP SWAP2 POP DUP1 PUSH2 0x1639 JUMPI PUSH1 0x0 DUP1 REVERT JUMPDEST PUSH2 0x1643 DUP6 DUP4 PUSH2 0x2A99 JUMP JUMPDEST ISZERO PUSH2 0x16C6 JUMPI DUP3 SLOAD PUSH1 0xF SWAP1 DUP2 SIGNEXTEND SWAP1 SIGNEXTEND PUSH1 0x0 PUSH2 0x165D DUP10 DUP4 PUSH2 0x1F62 JUMP JUMPDEST SWAP1 POP PUSH2 0x1668 DUP2 PUSH2 0x2AC9 JUMP JUMPDEST DUP6 SLOAD PUSH1 0xF SWAP2 SWAP1 SWAP2 SIGNEXTEND PUSH1 0x1 PUSH1 0x1 PUSH1 0x80 SHL SUB AND PUSH1 0x1 PUSH1 0x1 PUSH1 0x80 SHL SUB NOT SWAP1 SWAP2 AND OR DUP6 SSTORE PUSH2 0x1695 DUP14 DUP14 DUP14 DUP6 DUP6 PUSH2 0x2AF3 JUMP JUMPDEST DUP1 PUSH2 0x16A9 JUMPI PUSH2 0x16A6 DUP8 DUP6 PUSH1 0x0 PUSH2 0x23F7 JUMP JUMPDEST SWAP7 POP JUMPDEST PUSH2 0x16B8 DUP14 DUP14 PUSH2 0xFFFF AND DUP10 PUSH2 0x2BC8 JUMP JUMPDEST SWAP7 POP PUSH2 0x63F SWAP6 POP POP POP POP POP POP JUMP JUMPDEST DUP7 ISZERO PUSH2 0x1720 JUMPI PUSH2 0x16D5 DUP8 PUSH2 0x2AC9 JUMP JUMPDEST DUP4 SLOAD PUSH1 0xF SWAP2 SWAP1 SWAP2 SIGNEXTEND PUSH1 0x1 PUSH1 0x1 PUSH1 0x80 SHL SUB AND PUSH1 0x1 PUSH1 0x1 PUSH1 0x80 SHL SUB NOT SWAP1 SWAP2 AND OR DUP4 SSTORE PUSH2 0x1703 DUP12 DUP12 DUP12 PUSH1 0x0 DUP12 PUSH2 0x2AF3 JUMP JUMPDEST PUSH2 0x170F DUP6 DUP4 PUSH1 0x1 PUSH2 0x23F7 JUMP JUMPDEST SWAP5 POP PUSH2 0x1720 DUP12 DUP12 PUSH2 0xFFFF AND DUP8 PUSH2 0x2BC8 JUMP JUMPDEST POP SWAP5 SWAP10 SWAP9 POP POP POP POP POP POP POP POP POP JUMP JUMPDEST DUP2 MLOAD MLOAD DUP2 LT PUSH2 0x173D JUMPI PUSH1 0x0 DUP1 REVERT JUMPDEST PUSH1 0x0 DUP3 PUSH1 0x60 ADD MLOAD GT PUSH2 0x174E JUMPI PUSH1 0x0 DUP1 REVERT JUMPDEST PUSH1 0x0 DUP3 PUSH1 0x0 ADD MLOAD DUP3 DUP2 MLOAD DUP2 LT PUSH2 0x1760 JUMPI INVALID JUMPDEST PUSH1 0x20 MUL PUSH1 0x20 ADD ADD MLOAD SWAP1 POP PUSH1 0x2 PUSH1 0x3 DUP2 GT ISZERO PUSH2 0x1777 JUMPI INVALID JUMPDEST DUP2 PUSH1 0xA0 ADD MLOAD PUSH1 0x3 DUP2 GT ISZERO PUSH2 0x1787 JUMPI INVALID JUMPDEST EQ ISZERO DUP1 ISZERO PUSH2 0x17A5 JUMPI POP PUSH1 0x3 DUP2 PUSH1 0xA0 ADD MLOAD PUSH1 0x3 DUP2 GT ISZERO PUSH2 0x17A2 JUMPI INVALID JUMPDEST EQ ISZERO JUMPDEST PUSH2 0x17AE JUMPI PUSH1 0x0 DUP1 REVERT JUMPDEST PUSH1 0x60 DUP4 ADD DUP1 MLOAD PUSH1 0x0 NOT ADD SWAP1 MSTORE PUSH1 0x0 DUP1 DUP1 JUMPDEST DUP6 MLOAD MLOAD DUP2 LT ISZERO PUSH2 0x1821 JUMPI PUSH1 0x0 DUP7 PUSH1 0x0 ADD MLOAD DUP3 DUP2 MLOAD DUP2 LT PUSH2 0x17DB JUMPI INVALID JUMPDEST PUSH1 0x20 MUL PUSH1 0x20 ADD ADD MLOAD SWAP1 POP DUP3 DUP2 PUSH1 0x80 ADD MLOAD GT DUP1 ISZERO PUSH2 0x1808 JUMPI POP PUSH1 0x2 DUP2 PUSH1 0xA0 ADD MLOAD PUSH1 0x3 DUP2 GT ISZERO PUSH2 0x1805 JUMPI INVALID JUMPDEST EQ ISZERO JUMPDEST ISZERO PUSH2 0x1818 JUMPI DUP1 PUSH1 0x80 ADD MLOAD SWAP3 POP DUP2 SWAP4 POP JUMPDEST POP PUSH1 0x1 ADD PUSH2 0x17BF JUMP JUMPDEST POP DUP2 DUP5 EQ ISZERO PUSH2 0x183A JUMPI POP POP PUSH1 0x2 PUSH1 0xA0 SWAP2 SWAP1 SWAP2 ADD MSTORE PUSH2 0x187B JUMP JUMPDEST PUSH1 0x0 DUP6 PUSH1 0x0 ADD MLOAD DUP4 DUP2 MLOAD DUP2 LT PUSH2 0x184C JUMPI INVALID JUMPDEST PUSH1 0x20 SWAP1 DUP2 MUL SWAP2 SWAP1 SWAP2 ADD ADD MLOAD PUSH1 0x80 DUP6 DUP2 ADD DUP1 MLOAD SWAP2 DUP4 ADD DUP1 MLOAD SWAP1 SWAP2 MSTORE MSTORE PUSH1 0x1 PUSH1 0xA0 SWAP2 DUP3 ADD MSTORE PUSH1 0x2 SWAP5 ADD SWAP4 SWAP1 SWAP4 MSTORE POP POP POP JUMPDEST POP POP JUMP JUMPDEST DUP2 MLOAD PUSH2 0xFFFF AND ISZERO DUP1 ISZERO SWAP1 PUSH2 0x189C JUMPI POP DUP2 MLOAD PUSH2 0x3FFF PUSH2 0xFFFF SWAP1 SWAP2 AND GT ISZERO JUMPDEST PUSH2 0x18A5 JUMPI PUSH1 0x0 DUP1 REVERT JUMPDEST DUP2 PUSH1 0x20 ADD MLOAD PUSH1 0x0 LT DUP1 ISZERO PUSH2 0x18C2 JUMPI POP PUSH1 0x20 DUP3 ADD MLOAD PUSH5 0xFFFFFFFFFF LT ISZERO JUMPDEST PUSH2 0x18CB JUMPI PUSH1 0x0 DUP1 REVERT JUMPDEST DUP2 PUSH1 0x40 ADD MLOAD PUSH1 0x0 LT DUP1 ISZERO PUSH2 0x18E4 JUMPI POP PUSH1 0x40 DUP3 ADD MLOAD PUSH1 0x8 LT ISZERO JUMPDEST PUSH2 0x18ED JUMPI PUSH1 0x0 DUP1 REVERT JUMPDEST PUSH1 0x60 DUP3 ADD MLOAD PUSH1 0x1 PUSH1 0x1 PUSH1 0x57 SHL SUB NOT SGT DUP1 ISZERO SWAP1 PUSH2 0x1914 JUMPI POP PUSH1 0x60 DUP3 ADD MLOAD PUSH1 0x1 PUSH1 0x1 PUSH1 0x57 SHL SUB SLT ISZERO JUMPDEST PUSH2 0x191D JUMPI PUSH1 0x0 DUP1 REVERT JUMPDEST DUP2 MLOAD DUP2 SLOAD PUSH1 0x20 DUP5 ADD MLOAD PUSH1 0x40 DUP6 ADD MLOAD PUSH1 0x60 SWAP1 SWAP6 ADD MLOAD PUSH1 0xA SIGNEXTEND PUSH1 0x1 PUSH1 0x1 PUSH1 0x58 SHL SUB AND PUSH1 0x1 PUSH1 0x40 SHL MUL PUSH19 0xFFFFFFFFFFFFFFFFFFFFFF0000000000000000 NOT PUSH1 0xFF SWAP1 SWAP7 AND PUSH1 0x1 PUSH1 0x38 SHL MUL PUSH8 0xFF00000000000000 NOT PUSH5 0xFFFFFFFFFF SWAP1 SWAP4 AND PUSH3 0x10000 MUL PUSH7 0xFFFFFFFFFF0000 NOT PUSH2 0xFFFF SWAP1 SWAP7 AND PUSH2 0xFFFF NOT SWAP1 SWAP6 AND SWAP5 SWAP1 SWAP5 OR SWAP5 SWAP1 SWAP5 AND SWAP3 SWAP1 SWAP3 OR AND SWAP2 SWAP1 SWAP2 OR SWAP3 SWAP1 SWAP3 AND SWAP2 SWAP1 SWAP2 OR SWAP1 SSTORE JUMP JUMPDEST PUSH1 0x0 DUP1 PUSH1 0x0 DUP1 PUSH2 0x19BD DUP9 PUSH2 0x2C22 JUMP JUMPDEST SWAP1 POP DUP5 ISZERO DUP1 PUSH2 0x19CB JUMPI POP DUP1 DUP6 GT JUMPDEST ISZERO PUSH2 0x19D4 JUMPI DUP1 SWAP5 POP JUMPDEST DUP7 DUP1 PUSH2 0x19E4 JUMPI POP PUSH1 0x0 DUP9 PUSH1 0x60 ADD MLOAD SLT JUMPDEST SWAP7 POP PUSH2 0xFFFF DUP7 AND ISZERO PUSH2 0x19F5 JUMPI PUSH1 0x0 DUP1 REVERT JUMPDEST POP POP SWAP5 MLOAD SWAP4 SWAP6 PUSH1 0xF0 SWAP5 SWAP1 SWAP5 SHL PUSH1 0x1 PUSH1 0x1 PUSH1 0xF0 SHL SUB NOT AND PUSH1 0x10 SWAP4 SWAP1 SWAP4 SHR SWAP3 SWAP1 SWAP3 OR SWAP4 POP SWAP2 SWAP1 POP JUMP JUMPDEST PUSH1 0x0 DUP1 PUSH2 0x7A6 PUSH1 0xD PUSH2 0x2C89 JUMP JUMPDEST PUSH1 0x0 DUP2 SLT ISZERO PUSH2 0x1A37 JUMPI PUSH1 0x0 DUP1 REVERT JUMPDEST PUSH1 0x0 PUSH2 0x1A41 PUSH2 0x2CA2 JUMP JUMPDEST PUSH1 0x1 PUSH1 0x1 PUSH1 0xA0 SHL SUB DUP6 AND PUSH1 0x0 SWAP1 DUP2 MSTORE PUSH1 0x20 DUP3 DUP2 MSTORE PUSH1 0x40 DUP1 DUP4 KECCAK256 PUSH2 0xFFFF DUP9 AND DUP5 MSTORE SWAP1 SWAP2 MSTORE SWAP1 KECCAK256 SWAP1 SWAP2 POP PUSH2 0x1A72 DUP4 PUSH2 0x2CAF JUMP JUMPDEST DUP2 SLOAD PUSH1 0xA SWAP2 SWAP1 SWAP2 SIGNEXTEND PUSH1 0x1 PUSH1 0x1 PUSH1 0x58 SHL SUB AND PUSH1 0x1 PUSH1 0xA8 SHL MUL PUSH1 0x1 PUSH1 0x1 PUSH1 0xA8 SHL SUB SWAP1 SWAP2 AND OR SWAP1 SSTORE POP POP POP POP JUMP JUMPDEST PUSH1 0x0 DUP1 PUSH2 0x7A6 PUSH1 0x2 PUSH2 0x2C89 JUMP JUMPDEST PUSH1 0x0 DUP1 PUSH2 0x1AB5 PUSH2 0x2CD8 JUMP JUMPDEST PUSH1 0x0 SWAP4 DUP5 MSTORE PUSH1 0x20 MSTORE POP POP PUSH1 0x40 SWAP1 KECCAK256 SLOAD PUSH1 0x1 PUSH1 0x1 PUSH1 0xA0 SHL SUB AND SWAP1 JUMP JUMPDEST PUSH1 0x0 DUP1 PUSH1 0x0 DUP1 PUSH1 0x0 DUP1 PUSH2 0x1AE1 PUSH2 0x1A9D JUMP JUMPDEST PUSH1 0x1 PUSH1 0x1 PUSH1 0xA0 SHL SUB SWAP1 SWAP8 AND PUSH1 0x0 SWAP1 DUP2 MSTORE PUSH1 0x20 SWAP8 SWAP1 SWAP8 MSTORE POP POP PUSH1 0x40 SWAP1 SWAP5 KECCAK256 SLOAD PUSH2 0xFFFF DUP2 AND SWAP6 PUSH4 0xFFFFFFFF PUSH3 0x10000 DUP4 DIV DUP2 AND SWAP7 POP PUSH1 0x1 PUSH1 0x30 SHL DUP4 DIV AND SWAP5 POP PUSH1 0xFF PUSH1 0x1 PUSH1 0x50 SHL DUP4 DIV AND SWAP4 POP PUSH1 0x1 PUSH1 0x58 SHL SWAP1 SWAP2 DIV PUSH1 0xD8 SHL SWAP2 POP JUMP JUMPDEST PUSH1 0x0 DUP1 PUSH1 0x0 DUP1 PUSH2 0x1B47 PUSH2 0x2CE5 JUMP JUMPDEST PUSH1 0x1 PUSH1 0x1 PUSH1 0xA0 SHL SUB SWAP6 SWAP1 SWAP6 AND PUSH1 0x0 SWAP1 DUP2 MSTORE PUSH1 0x20 SWAP6 SWAP1 SWAP6 MSTORE POP POP PUSH1 0x40 SWAP1 SWAP3 KECCAK256 SLOAD PUSH12 0xFFFFFFFFFFFFFFFFFFFFFFFF DUP2 AND SWAP4 PUSH1 0x1 PUSH1 0x60 SHL DUP3 DIV PUSH1 0x1 PUSH1 0x1 PUSH1 0x80 SHL SUB AND SWAP4 POP PUSH1 0x1 PUSH1 0xE0 SHL SWAP1 SWAP2 DIV PUSH4 0xFFFFFFFF AND SWAP2 POP JUMP JUMPDEST PUSH2 0x1BA2 PUSH2 0x5ACA JUMP JUMPDEST PUSH2 0x1BAA PUSH2 0x5ACA JUMP JUMPDEST PUSH1 0xFF DUP5 AND PUSH2 0x1BB9 JUMPI SWAP1 POP PUSH2 0x888 JUMP JUMPDEST PUSH2 0x1BC3 DUP6 DUP6 PUSH2 0x2CF2 JUMP JUMPDEST DUP2 MSTORE PUSH1 0xFF DUP5 AND PUSH1 0x60 DUP3 ADD MSTORE DUP3 PUSH8 0xFFFFFFFFFFFFFFFF DUP2 GT DUP1 ISZERO PUSH2 0x1BE5 JUMPI PUSH1 0x0 DUP1 REVERT JUMPDEST POP PUSH1 0x40 MLOAD SWAP1 DUP1 DUP3 MSTORE DUP1 PUSH1 0x20 MUL PUSH1 0x20 ADD DUP3 ADD PUSH1 0x40 MSTORE DUP1 ISZERO PUSH2 0x1C1F JUMPI DUP2 PUSH1 0x20 ADD JUMPDEST PUSH2 0x1C0C PUSH2 0x5AF2 JUMP JUMPDEST DUP2 MSTORE PUSH1 0x20 ADD SWAP1 PUSH1 0x1 SWAP1 SUB SWAP1 DUP2 PUSH2 0x1C04 JUMPI SWAP1 POP JUMPDEST POP PUSH1 0x20 DUP3 ADD MSTORE SWAP5 SWAP4 POP POP POP POP JUMP JUMPDEST PUSH1 0x0 DUP1 PUSH2 0x1C38 PUSH2 0x2CA2 JUMP JUMPDEST PUSH1 0x1 PUSH1 0x1 PUSH1 0xA0 SHL SUB DUP6 AND PUSH1 0x0 SWAP1 DUP2 MSTORE PUSH1 0x20 DUP3 DUP2 MSTORE PUSH1 0x40 DUP1 DUP4 KECCAK256 PUSH2 0xFFFF DUP9 AND DUP5 MSTORE SWAP1 SWAP2 MSTORE DUP2 KECCAK256 DUP1 SLOAD PUSH1 0x1 PUSH1 0xA8 SHL SWAP1 DIV PUSH1 0xA SWAP1 DUP2 SIGNEXTEND SWAP1 SIGNEXTEND SWAP5 POP SWAP2 SWAP3 POP DUP4 SLT ISZERO PUSH2 0x1C7E JUMPI PUSH1 0x0 DUP1 REVERT JUMPDEST POP POP SWAP3 SWAP2 POP POP JUMP JUMPDEST PUSH2 0x1C8E PUSH2 0x5B36 JUMP JUMPDEST PUSH2 0x7A6 DUP3 TIMESTAMP PUSH2 0x2CFE JUMP JUMPDEST PUSH2 0x1CA0 PUSH2 0x5A9E JUMP JUMPDEST PUSH1 0x0 PUSH2 0x1CAF DUP5 PUSH2 0xFFFF AND PUSH2 0x2DC4 JUMP JUMPDEST PUSH1 0x40 DUP1 MLOAD PUSH1 0x80 DUP2 ADD DUP3 MSTORE PUSH2 0xFFFF SWAP7 SWAP1 SWAP7 AND DUP7 MSTORE PUSH1 0xFF DUP3 AND PUSH1 0x20 DUP8 ADD MSTORE DUP6 ADD SWAP4 SWAP1 SWAP4 MSTORE POP POP PUSH1 0x60 DUP3 ADD MSTORE SWAP1 JUMP JUMPDEST PUSH1 0x0 DUP1 PUSH2 0x1CE6 PUSH2 0x59E9 JUMP JUMPDEST PUSH1 0x20 DUP6 ADD MLOAD MLOAD PUSH1 0x0 JUMPDEST DUP2 MLOAD DUP2 LT ISZERO PUSH2 0x1E00 JUMPI PUSH1 0x0 DUP3 DUP3 DUP2 MLOAD DUP2 LT PUSH2 0x1D06 JUMPI INVALID JUMPDEST PUSH1 0x20 MUL PUSH1 0x20 ADD ADD MLOAD SWAP1 POP PUSH2 0x1D1D DUP2 PUSH1 0x40 ADD MLOAD PUSH2 0x2751 JUMP JUMPDEST PUSH2 0x1D26 JUMPI PUSH1 0x0 DUP1 REVERT JUMPDEST PUSH1 0x0 PUSH2 0x1D31 DUP3 PUSH2 0x2C22 JUMP JUMPDEST SWAP1 POP DUP8 DUP2 GT ISZERO PUSH2 0x1D40 JUMPI PUSH1 0x0 DUP1 REVERT JUMPDEST PUSH2 0x1D58 DUP6 DUP4 PUSH1 0x0 ADD MLOAD PUSH2 0xFFFF AND DUP5 PUSH1 0x20 ADD MLOAD DUP5 PUSH2 0x2DE1 JUMP JUMPDEST POP PUSH1 0x0 DUP1 PUSH2 0x1D73 DUP4 PUSH1 0x60 ADD MLOAD DUP8 PUSH2 0x2DF5 SWAP1 SWAP2 SWAP1 PUSH4 0xFFFFFFFF AND JUMP JUMPDEST SWAP3 POP SWAP1 POP PUSH2 0x1D81 DUP9 DUP3 PUSH2 0x1F62 JUMP JUMPDEST SWAP8 POP POP DUP8 DUP3 PUSH1 0x20 ADD MLOAD GT PUSH2 0x1DC8 JUMPI PUSH1 0xC0 DUP10 ADD MLOAD DUP3 MLOAD PUSH1 0x20 DUP5 ADD MLOAD DUP12 MLOAD PUSH1 0x40 ADD MLOAD PUSH1 0x0 SWAP4 PUSH2 0x1DB4 SWAP4 SWAP2 SWAP3 SWAP1 SWAP2 SWAP1 DUP7 DUP15 PUSH2 0x2E9D JUMP JUMPDEST SWAP1 POP PUSH2 0x1DC0 DUP8 DUP3 PUSH2 0x1F62 JUMP JUMPDEST SWAP7 POP POP PUSH2 0x1DE7 JUMP JUMPDEST PUSH2 0x1DE5 DUP10 PUSH1 0xC0 ADD MLOAD DUP4 PUSH1 0x0 ADD MLOAD DUP5 PUSH1 0x20 ADD MLOAD DUP13 PUSH1 0x80 ADD MLOAD DUP6 PUSH2 0x15D3 JUMP JUMPDEST POP JUMPDEST PUSH1 0x20 DUP10 ADD MLOAD PUSH2 0x1DF6 SWAP1 DUP5 PUSH2 0x172F JUMP JUMPDEST POP POP PUSH1 0x1 ADD PUSH2 0x1CEF JUMP JUMPDEST POP POP POP SWAP3 POP SWAP3 SWAP1 POP JUMP JUMPDEST PUSH1 0x0 DUP1 PUSH1 0x0 DUP1 PUSH2 0x1E1E DUP10 DUP10 PUSH2 0xFFFF AND PUSH2 0x20A2 JUMP JUMPDEST SWAP1 POP PUSH2 0x1E29 DUP7 PUSH2 0xF65 JUMP JUMPDEST SWAP2 POP DUP7 DUP3 LT ISZERO PUSH2 0x1E38 JUMPI PUSH1 0x0 DUP1 REVERT JUMPDEST PUSH1 0x0 PUSH2 0x1E44 DUP9 DUP5 PUSH2 0x2991 JUMP JUMPDEST POP SWAP1 POP DUP1 PUSH2 0x1E5A JUMPI PUSH1 0x0 DUP1 SWAP5 POP SWAP5 POP POP POP PUSH2 0x1F57 JUMP JUMPDEST PUSH1 0x0 PUSH2 0x1E65 DUP4 PUSH2 0x20EC JUMP JUMPDEST SWAP1 POP JUMPDEST DUP1 ISZERO DUP1 ISZERO SWAP1 PUSH2 0x1E77 JUMPI POP DUP2 DUP2 GT ISZERO JUMPDEST ISZERO PUSH2 0x1EE2 JUMPI PUSH1 0x0 PUSH2 0x1E88 DUP11 DUP4 PUSH2 0x2111 JUMP JUMPDEST SWAP1 POP PUSH1 0x0 PUSH2 0x1E99 DUP14 DUP14 DUP5 DUP14 DUP14 PUSH2 0x2EDB JUMP JUMPDEST SWAP1 POP PUSH1 0x0 DUP2 SGT ISZERO PUSH2 0x1EB5 JUMPI PUSH2 0x1EAE DUP9 DUP3 PUSH2 0x1F62 JUMP JUMPDEST SWAP8 POP PUSH2 0x1EC2 JUMP JUMPDEST PUSH2 0x1EBF DUP8 DUP3 PUSH2 0x1F62 JUMP JUMPDEST SWAP7 POP JUMPDEST PUSH2 0x1ECE DUP6 DUP5 PUSH1 0x0 PUSH2 0x23F7 JUMP JUMPDEST SWAP5 POP PUSH2 0x1ED9 DUP6 PUSH2 0x20EC JUMP JUMPDEST SWAP3 POP POP POP PUSH2 0x1E68 JUMP JUMPDEST PUSH1 0x0 JUMPDEST DUP2 ISZERO PUSH2 0x1F43 JUMPI PUSH1 0x0 PUSH2 0x1EF7 DUP12 DUP5 PUSH2 0x2111 JUMP JUMPDEST SWAP1 POP PUSH1 0x0 DUP1 PUSH2 0x1F06 DUP9 DUP5 PUSH2 0x2991 JUMP JUMPDEST SWAP2 POP SWAP2 POP DUP1 PUSH2 0x1F14 JUMPI PUSH1 0x0 DUP1 REVERT JUMPDEST PUSH2 0x1F20 DUP5 DUP4 PUSH1 0x1 PUSH2 0x23F7 JUMP JUMPDEST SWAP4 POP PUSH2 0x1F2E DUP8 DUP7 PUSH1 0x0 PUSH2 0x23F7 JUMP JUMPDEST SWAP7 POP PUSH2 0x1F39 DUP8 PUSH2 0x20EC JUMP JUMPDEST SWAP5 POP POP POP POP PUSH2 0x1EE5 JUMP JUMPDEST PUSH2 0x1F52 DUP13 DUP13 PUSH2 0xFFFF AND DUP4 PUSH2 0x2BC8 JUMP JUMPDEST POP POP POP POP JUMPDEST SWAP6 POP SWAP6 POP SWAP6 SWAP3 POP POP POP JUMP JUMPDEST DUP2 DUP2 ADD DUP3 DUP2 SLT ISZERO PUSH1 0x0 DUP4 SLT ISZERO EQ PUSH2 0x7A6 JUMPI PUSH1 0x0 DUP1 REVERT JUMPDEST PUSH1 0x0 DUP1 PUSH2 0x1F8F DUP4 PUSH2 0x1F89 DUP8 DUP8 PUSH2 0x1F62 JUMP JUMPDEST SWAP1 PUSH2 0x1F62 JUMP JUMPDEST SWAP1 POP PUSH2 0x1F9B DUP9 DUP3 PUSH2 0x2F73 JUMP JUMPDEST SWAP2 POP DUP4 PUSH1 0x0 SGT ISZERO PUSH2 0x1FAB JUMPI PUSH1 0x0 DUP1 REVERT JUMPDEST PUSH1 0x0 DUP4 SGT ISZERO PUSH2 0x1FB9 JUMPI PUSH1 0x0 DUP1 REVERT JUMPDEST DUP5 PUSH1 0x0 SLT ISZERO PUSH2 0x1FD3 JUMPI PUSH2 0x1FCC DUP6 DUP6 PUSH2 0x1F62 JUMP JUMPDEST SWAP4 POP PUSH2 0x1FE0 JUMP JUMPDEST PUSH2 0x1FDD DUP6 DUP5 PUSH2 0x1F62 JUMP JUMPDEST SWAP3 POP JUMPDEST PUSH1 0x0 DUP5 PUSH2 0x1FEC DUP6 PUSH2 0x15C5 JUMP JUMPDEST SLT ISZERO PUSH2 0x1FF9 JUMPI POP DUP3 PUSH2 0x2005 JUMP JUMPDEST PUSH2 0x2002 DUP6 PUSH2 0x15C5 JUMP JUMPDEST SWAP1 POP JUMPDEST PUSH1 0x0 DUP2 SLT ISZERO PUSH2 0x2037 JUMPI PUSH1 0x20 DUP10 ADD MLOAD DUP10 MLOAD PUSH1 0x0 SWAP2 PUSH2 0x2027 SWAP2 PUSH2 0x8A4 SWAP1 DUP6 SWAP1 PUSH2 0x130C JUMP JUMPDEST SWAP1 POP PUSH2 0x2035 DUP10 DUP10 DUP4 DUP6 PUSH2 0x2FB2 JUMP JUMPDEST POP JUMPDEST POP POP SWAP7 SWAP6 POP POP POP POP POP POP JUMP JUMPDEST PUSH1 0x0 PUSH5 0xFFFFFFFFFF DUP3 GT ISZERO PUSH2 0xB9D JUMPI PUSH1 0x0 DUP1 REVERT JUMPDEST PUSH1 0x60 ADD MLOAD PUSH2 0x12C PUSH1 0x8 SWAP2 SWAP1 SWAP2 SHR PUSH1 0xFF AND MUL SWAP1 JUMP JUMPDEST PUSH2 0x2078 DUP8 DUP8 DUP8 DUP7 DUP6 PUSH2 0x30F4 JUMP JUMPDEST PUSH2 0x2091 DUP8 PUSH1 0xE0 ADD MLOAD DUP9 PUSH1 0xA0 ADD MLOAD DUP10 PUSH1 0xC0 ADD MLOAD DUP6 DUP9 PUSH2 0x31AF JUMP JUMPDEST PUSH1 0xC0 SWAP1 SWAP8 ADD SWAP7 SWAP1 SWAP7 MSTORE POP POP POP POP POP POP JUMP JUMPDEST PUSH1 0x0 DUP1 PUSH2 0x20AD PUSH2 0x3237 JUMP JUMPDEST PUSH1 0x1 PUSH1 0x1 PUSH1 0xA0 SHL SUB DUP6 AND PUSH1 0x0 SWAP1 DUP2 MSTORE PUSH1 0x20 SWAP2 DUP3 MSTORE PUSH1 0x40 DUP1 DUP3 KECCAK256 DUP7 DUP4 MSTORE SWAP1 SWAP3 MSTORE KECCAK256 SLOAD SWAP2 POP POP SWAP3 SWAP2 POP POP JUMP JUMPDEST PUSH1 0x0 DUP3 DUP3 GT ISZERO PUSH2 0x20E6 JUMPI PUSH1 0x0 DUP1 REVERT JUMPDEST POP SWAP1 SUB SWAP1 JUMP JUMPDEST PUSH1 0x0 DUP2 PUSH2 0x20FB JUMPI POP PUSH1 0x0 PUSH2 0x850 JUMP JUMPDEST PUSH2 0x2104 DUP3 PUSH2 0x3244 JUMP JUMPDEST PUSH1 0xFF SUB PUSH1 0x1 ADD SWAP1 POP SWAP2 SWAP1 POP JUMP JUMPDEST PUSH1 0x0 DUP2 PUSH2 0x211D JUMPI PUSH1 0x0 DUP1 REVERT JUMPDEST PUSH2 0x100 DUP3 GT ISZERO PUSH2 0x212C JUMPI PUSH1 0x0 DUP1 REVERT JUMPDEST PUSH1 0x0 PUSH2 0x2137 DUP5 PUSH2 0xF65 JUMP JUMPDEST SWAP1 POP PUSH1 0x0 PUSH1 0x5A DUP5 GT PUSH2 0x2152 JUMPI POP PUSH3 0x15180 DUP4 MUL ADD SWAP1 POP PUSH2 0x7A6 JUMP JUMPDEST PUSH1 0x87 DUP5 GT PUSH2 0x217A JUMPI POP PUSH1 0x59 NOT DUP4 ADD PUSH3 0x7E900 SWAP1 DUP2 MUL SWAP1 DUP3 MOD SWAP1 SWAP2 SUB ADD PUSH3 0x76A700 ADD SWAP1 POP PUSH2 0x7A6 JUMP JUMPDEST PUSH1 0xC3 DUP5 GT PUSH2 0x21A3 JUMPI POP PUSH1 0x86 NOT DUP4 ADD PUSH3 0x278D00 SWAP1 DUP2 MUL SWAP1 DUP3 MOD SWAP1 SWAP2 SUB ADD PUSH4 0x1DA9C00 ADD SWAP1 POP PUSH2 0x7A6 JUMP JUMPDEST POP PUSH1 0xC2 NOT DUP4 ADD PUSH3 0x76A700 SWAP1 DUP2 MUL SWAP1 DUP3 MOD SWAP1 SWAP2 SUB ADD PUSH4 0xB1FA800 ADD SWAP1 POP PUSH2 0x7A6 JUMP JUMPDEST PUSH1 0x0 DUP1 DUP5 GT PUSH2 0x21E5 JUMPI PUSH1 0x40 MLOAD PUSH3 0x461BCD PUSH1 0xE5 SHL DUP2 MSTORE PUSH1 0x4 ADD PUSH2 0x326 SWAP1 PUSH2 0x5D48 JUMP JUMPDEST PUSH1 0x7 DUP5 GT ISZERO PUSH2 0x2206 JUMPI PUSH1 0x40 MLOAD PUSH3 0x461BCD PUSH1 0xE5 SHL DUP2 MSTORE PUSH1 0x4 ADD PUSH2 0x326 SWAP1 PUSH2 0x5DC7 JUMP JUMPDEST PUSH3 0x76A700 DUP4 MOD ISZERO PUSH2 0x2219 JUMPI POP PUSH1 0x0 PUSH2 0x888 JUMP JUMPDEST PUSH1 0x0 PUSH2 0x2224 DUP4 PUSH2 0x855 JUMP JUMPDEST SWAP1 POP PUSH1 0x1 JUMPDEST DUP6 DUP2 GT PUSH2 0x225D JUMPI PUSH2 0x2243 PUSH2 0x223C DUP3 PUSH2 0x7AC JUMP JUMPDEST DUP4 SWAP1 PUSH2 0x876 JUMP JUMPDEST DUP6 EQ ISZERO PUSH2 0x2255 JUMPI PUSH1 0x1 SWAP3 POP POP POP PUSH2 0x888 JUMP JUMPDEST PUSH1 0x1 ADD PUSH2 0x2229 JUMP JUMPDEST POP PUSH1 0x0 SWAP6 SWAP5 POP POP POP POP POP JUMP JUMPDEST PUSH1 0x0 DUP1 PUSH2 0x2274 PUSH2 0x2984 JUMP JUMPDEST PUSH1 0x1 PUSH1 0x1 PUSH1 0xA0 SHL SUB DUP7 AND PUSH1 0x0 SWAP1 DUP2 MSTORE PUSH1 0x20 SWAP2 DUP3 MSTORE PUSH1 0x40 DUP1 DUP3 KECCAK256 DUP8 DUP4 MSTORE DUP4 MSTORE DUP1 DUP3 KECCAK256 DUP7 DUP4 MSTORE SWAP1 SWAP3 MSTORE KECCAK256 SLOAD PUSH1 0xF SWAP1 DUP2 SIGNEXTEND SWAP1 SIGNEXTEND SWAP2 POP POP SWAP4 SWAP3 POP POP POP JUMP JUMPDEST PUSH1 0x0 DUP1 PUSH1 0x0 PUSH2 0x22C2 DUP7 PUSH1 0x20 ADD MLOAD DUP7 DUP7 PUSH2 0x32DD JUMP JUMPDEST SWAP2 POP SWAP2 POP PUSH1 0x0 PUSH2 0x22D1 DUP8 PUSH2 0x2057 JUMP JUMPDEST SWAP1 POP DUP2 PUSH2 0x22F1 JUMPI DUP7 MLOAD PUSH2 0x22EA SWAP1 PUSH2 0xFFFF AND DUP8 DUP4 DUP9 PUSH2 0x336C JUMP JUMPDEST SWAP4 POP PUSH2 0xAE9 JUMP JUMPDEST PUSH1 0x0 PUSH2 0x22FC DUP7 PUSH2 0x855 JUMP JUMPDEST SWAP1 POP PUSH1 0x0 PUSH2 0x230C PUSH2 0x223C DUP7 PUSH2 0x7AC JUMP JUMPDEST SWAP1 POP PUSH1 0x0 PUSH2 0x2324 DUP11 PUSH1 0x0 ADD MLOAD PUSH2 0xFFFF AND DUP4 DUP7 DUP12 PUSH2 0x336C JUMP JUMPDEST SWAP1 POP PUSH1 0x0 DUP1 DUP8 PUSH1 0x1 EQ ISZERO PUSH2 0x2342 JUMPI POP POP PUSH1 0x40 DUP1 DUP12 ADD MLOAD ADD MLOAD DUP9 PUSH2 0x2371 JUMP JUMPDEST PUSH2 0x2358 PUSH2 0x2351 PUSH1 0x1 DUP11 SUB PUSH2 0x7AC JUMP JUMPDEST DUP7 SWAP1 PUSH2 0x876 JUMP JUMPDEST SWAP1 POP PUSH2 0x236E DUP13 PUSH1 0x0 ADD MLOAD PUSH2 0xFFFF AND DUP3 DUP9 DUP14 PUSH2 0x336C JUMP JUMPDEST SWAP2 POP JUMPDEST PUSH2 0x237E DUP2 DUP6 DUP5 DUP7 DUP16 PUSH2 0x1500 JUMP JUMPDEST SWAP13 SWAP12 POP POP POP POP POP POP POP POP POP POP POP POP JUMP JUMPDEST PUSH1 0x0 DUP5 PUSH2 0x239D JUMPI POP PUSH1 0x0 PUSH2 0x23D9 JUMP JUMPDEST PUSH1 0x0 PUSH2 0x23A9 DUP6 DUP6 PUSH2 0x20D7 JUMP JUMPDEST SWAP1 POP PUSH1 0x0 PUSH2 0x23B7 DUP3 DUP6 PUSH2 0x340B JUMP JUMPDEST SWAP1 POP PUSH4 0x3B9ACA00 DUP2 SGT ISZERO PUSH2 0x23CA JUMPI PUSH1 0x0 DUP1 REVERT JUMPDEST PUSH2 0x23D4 DUP8 DUP3 PUSH2 0x3478 JUMP JUMPDEST SWAP3 POP POP POP JUMPDEST SWAP5 SWAP4 POP POP POP POP JUMP JUMPDEST DUP1 DUP3 SUB DUP3 DUP2 SGT ISZERO PUSH1 0x0 DUP4 SLT ISZERO EQ PUSH2 0x7A6 JUMPI PUSH1 0x0 DUP1 REVERT JUMPDEST PUSH1 0x0 PUSH1 0x1 DUP4 LT ISZERO DUP1 ISZERO PUSH2 0x240C JUMPI POP PUSH2 0x100 DUP4 GT ISZERO JUMPDEST PUSH2 0x2415 JUMPI PUSH1 0x0 DUP1 REVERT JUMPDEST DUP2 ISZERO PUSH2 0x242E JUMPI POP PUSH1 0x1 PUSH1 0xFF SHL PUSH1 0x0 NOT DUP4 ADD SHR DUP4 OR PUSH2 0x888 JUMP JUMPDEST POP PUSH1 0x1 PUSH1 0xFF SHL PUSH1 0x0 NOT DUP4 ADD SHR NOT DUP4 AND PUSH2 0x888 JUMP JUMPDEST DUP2 MLOAD PUSH1 0x0 SWAP1 PUSH2 0x888 SWAP1 PUSH2 0x8A4 DUP5 PUSH15 0xC097CE7BC90715B34B9F1000000000 PUSH2 0x130C JUMP JUMPDEST PUSH1 0x0 DUP1 PUSH2 0x7A6 PUSH1 0x4 PUSH2 0x2C89 JUMP JUMPDEST PUSH1 0x60 DUP1 PUSH1 0x0 DUP1 DUP5 PUSH8 0xFFFFFFFFFFFFFFFF DUP2 GT DUP1 ISZERO PUSH2 0x248E JUMPI PUSH1 0x0 DUP1 REVERT JUMPDEST POP PUSH1 0x40 MLOAD SWAP1 DUP1 DUP3 MSTORE DUP1 PUSH1 0x20 MUL PUSH1 0x20 ADD DUP3 ADD PUSH1 0x40 MSTORE DUP1 ISZERO PUSH2 0x24B8 JUMPI DUP2 PUSH1 0x20 ADD PUSH1 0x20 DUP3 MUL DUP1 CALLDATASIZE DUP4 CALLDATACOPY ADD SWAP1 POP JUMPDEST POP SWAP1 POP PUSH1 0x0 DUP6 PUSH8 0xFFFFFFFFFFFFFFFF DUP2 GT DUP1 ISZERO PUSH2 0x24D4 JUMPI PUSH1 0x0 DUP1 REVERT JUMPDEST POP PUSH1 0x40 MLOAD SWAP1 DUP1 DUP3 MSTORE DUP1 PUSH1 0x20 MUL PUSH1 0x20 ADD DUP3 ADD PUSH1 0x40 MSTORE DUP1 ISZERO PUSH2 0x24FE JUMPI DUP2 PUSH1 0x20 ADD PUSH1 0x20 DUP3 MUL DUP1 CALLDATASIZE DUP4 CALLDATACOPY ADD SWAP1 POP JUMPDEST POP SWAP1 POP PUSH1 0x0 JUMPDEST DUP7 DUP2 LT ISZERO PUSH2 0x25A8 JUMPI DUP8 DUP5 PUSH1 0xE DUP2 LT PUSH2 0x2518 JUMPI INVALID JUMPDEST PUSH1 0x8 SWAP2 DUP3 DUP3 DIV ADD SWAP2 SWAP1 MOD PUSH1 0x4 MUL SWAP1 SLOAD SWAP1 PUSH2 0x100 EXP SWAP1 DIV PUSH4 0xFFFFFFFF AND PUSH4 0xFFFFFFFF AND DUP4 DUP3 DUP2 MLOAD DUP2 LT PUSH2 0x2546 JUMPI INVALID JUMPDEST PUSH1 0x20 SWAP1 DUP2 MUL SWAP2 SWAP1 SWAP2 ADD ADD MSTORE PUSH1 0x1 SWAP1 SWAP4 ADD SWAP3 DUP8 DUP5 PUSH1 0xE DUP2 LT PUSH2 0x2563 JUMPI INVALID JUMPDEST PUSH1 0x8 SWAP2 DUP3 DUP3 DIV ADD SWAP2 SWAP1 MOD PUSH1 0x4 MUL SWAP1 SLOAD SWAP1 PUSH2 0x100 EXP SWAP1 DIV PUSH4 0xFFFFFFFF AND PUSH4 0xFFFFFFFF AND DUP3 DUP3 DUP2 MLOAD DUP2 LT PUSH2 0x2591 JUMPI INVALID JUMPDEST PUSH1 0x20 SWAP1 DUP2 MUL SWAP2 SWAP1 SWAP2 ADD ADD MSTORE PUSH1 0x1 SWAP4 DUP5 ADD SWAP4 ADD PUSH2 0x2504 JUMP JUMPDEST POP SWAP1 SWAP4 POP SWAP2 POP POP JUMPDEST SWAP3 POP SWAP3 SWAP1 POP JUMP JUMPDEST PUSH1 0x0 DUP1 PUSH2 0x7A6 PUSH1 0x5 PUSH2 0x2C89 JUMP JUMPDEST PUSH1 0x0 DUP1 PUSH2 0x7A6 PUSH1 0x1C PUSH2 0x2C89 JUMP JUMPDEST PUSH1 0x0 DUP1 PUSH2 0x7A6 PUSH1 0x1B PUSH2 0x2C89 JUMP JUMPDEST PUSH2 0x25E6 PUSH2 0x5A59 JUMP JUMPDEST PUSH1 0x0 PUSH2 0x25F1 DUP5 PUSH2 0x3491 JUMP JUMPDEST PUSH2 0xFFFF DUP7 AND PUSH1 0x0 SWAP1 DUP2 MSTORE PUSH1 0x20 DUP6 SWAP1 MSTORE PUSH1 0x40 DUP2 KECCAK256 SWAP2 SWAP3 POP SWAP1 PUSH1 0x4 DUP7 LT PUSH2 0x2617 JUMPI PUSH1 0x1 PUSH2 0x261A JUMP JUMPDEST PUSH1 0x0 JUMPDEST PUSH1 0xFF AND PUSH1 0x2 DUP2 LT PUSH2 0x2627 JUMPI INVALID JUMPDEST ADD SLOAD SWAP1 POP PUSH2 0x1299 DUP3 DUP3 PUSH2 0x34CA JUMP JUMPDEST PUSH1 0x0 DUP1 JUMPDEST DUP7 MLOAD DUP2 LT ISZERO PUSH2 0x2744 JUMPI PUSH1 0x0 DUP8 DUP3 DUP2 MLOAD DUP2 LT PUSH2 0x2650 JUMPI INVALID JUMPDEST PUSH1 0x20 MUL PUSH1 0x20 ADD ADD MLOAD SWAP1 POP DUP5 DUP2 PUSH1 0x40 ADD MLOAD EQ ISZERO DUP1 PUSH2 0x2679 JUMPI POP DUP7 PUSH2 0xFFFF AND DUP2 PUSH1 0x0 ADD MLOAD PUSH2 0xFFFF AND EQ ISZERO JUMPDEST DUP1 PUSH2 0x2688 JUMPI POP DUP6 DUP2 PUSH1 0x20 ADD MLOAD EQ ISZERO JUMPDEST ISZERO PUSH2 0x2693 JUMPI POP PUSH2 0x273C JUMP JUMPDEST PUSH1 0x2 DUP2 PUSH1 0xA0 ADD MLOAD PUSH1 0x3 DUP2 GT ISZERO PUSH2 0x26A5 JUMPI INVALID JUMPDEST EQ ISZERO DUP1 ISZERO PUSH2 0x26C3 JUMPI POP PUSH1 0x3 DUP2 PUSH1 0xA0 ADD MLOAD PUSH1 0x3 DUP2 GT ISZERO PUSH2 0x26C0 JUMPI INVALID JUMPDEST EQ ISZERO JUMPDEST PUSH2 0x26CC JUMPI PUSH1 0x0 DUP1 REVERT JUMPDEST PUSH1 0x60 DUP2 ADD MLOAD PUSH1 0x0 SWAP1 PUSH2 0x26DE SWAP1 DUP7 PUSH2 0x1F62 JUMP JUMPDEST SWAP1 POP PUSH2 0x26E9 DUP7 PUSH2 0x2751 JUMP JUMPDEST ISZERO PUSH2 0x26FC JUMPI PUSH1 0x0 DUP2 SLT ISZERO PUSH2 0x26FC JUMPI PUSH1 0x0 DUP1 REVERT JUMPDEST PUSH1 0x1 PUSH1 0x1 PUSH1 0x57 SHL SUB NOT DUP2 SLT DUP1 ISZERO SWAP1 PUSH2 0x271B JUMPI POP PUSH1 0x1 PUSH1 0x1 PUSH1 0x57 SHL SUB DUP2 SGT ISZERO JUMPDEST PUSH2 0x2724 JUMPI PUSH1 0x0 DUP1 REVERT JUMPDEST PUSH1 0x60 DUP3 ADD MSTORE PUSH1 0x1 PUSH1 0xA0 SWAP1 SWAP2 ADD DUP2 SWAP1 MSTORE SWAP2 POP PUSH2 0x63F SWAP1 POP JUMP JUMPDEST PUSH1 0x1 ADD PUSH2 0x2639 JUMP JUMPDEST POP PUSH1 0x0 SWAP7 SWAP6 POP POP POP POP POP POP JUMP JUMPDEST PUSH1 0x0 PUSH1 0x2 DUP3 LT DUP1 ISZERO SWAP1 PUSH2 0x7A6 JUMPI POP POP PUSH1 0x8 LT ISZERO SWAP1 JUMP JUMPDEST PUSH1 0x60 PUSH1 0x0 DUP3 MLOAD PUSH1 0x0 EQ PUSH2 0x277E JUMPI DUP3 MLOAD PUSH1 0x2 MUL PUSH2 0x2781 JUMP JUMPDEST PUSH1 0x1 JUMPDEST SWAP1 POP PUSH1 0x0 DUP2 PUSH8 0xFFFFFFFFFFFFFFFF DUP2 GT DUP1 ISZERO PUSH2 0x279C JUMPI PUSH1 0x0 DUP1 REVERT JUMPDEST POP PUSH1 0x40 MLOAD SWAP1 DUP1 DUP3 MSTORE DUP1 PUSH1 0x20 MUL PUSH1 0x20 ADD DUP3 ADD PUSH1 0x40 MSTORE DUP1 ISZERO PUSH2 0x27D6 JUMPI DUP2 PUSH1 0x20 ADD JUMPDEST PUSH2 0x27C3 PUSH2 0x5AF2 JUMP JUMPDEST DUP2 MSTORE PUSH1 0x20 ADD SWAP1 PUSH1 0x1 SWAP1 SUB SWAP1 DUP2 PUSH2 0x27BB JUMPI SWAP1 POP JUMPDEST POP SWAP1 POP PUSH1 0x0 JUMPDEST DUP5 MLOAD DUP2 LT ISZERO PUSH2 0x2818 JUMPI DUP5 DUP2 DUP2 MLOAD DUP2 LT PUSH2 0x27F1 JUMPI INVALID JUMPDEST PUSH1 0x20 MUL PUSH1 0x20 ADD ADD MLOAD DUP3 DUP3 DUP2 MLOAD DUP2 LT PUSH2 0x2805 JUMPI INVALID JUMPDEST PUSH1 0x20 SWAP1 DUP2 MUL SWAP2 SWAP1 SWAP2 ADD ADD MSTORE PUSH1 0x1 ADD PUSH2 0x27DC JUMP JUMPDEST POP SWAP4 SWAP3 POP POP POP JUMP JUMPDEST PUSH1 0x0 DUP1 PUSH2 0x7A6 PUSH1 0xA PUSH2 0x2C89 JUMP JUMPDEST PUSH1 0x0 DUP6 SLT ISZERO DUP1 ISZERO PUSH2 0x2845 JUMPI POP PUSH1 0x1 PUSH1 0x1 PUSH1 0x50 SHL SUB DUP6 SGT ISZERO JUMPDEST PUSH2 0x284E JUMPI PUSH1 0x0 DUP1 REVERT JUMPDEST PUSH1 0x0 DUP5 SLT ISZERO DUP1 ISZERO PUSH2 0x2866 JUMPI POP PUSH1 0x1 PUSH1 0x1 PUSH1 0x50 SHL SUB DUP5 SGT ISZERO JUMPDEST PUSH2 0x286F JUMPI PUSH1 0x0 DUP1 REVERT JUMPDEST DUP3 PUSH1 0x0 LT DUP1 ISZERO PUSH2 0x2883 JUMPI POP PUSH4 0xFFFFFFFF DUP4 GT ISZERO JUMPDEST PUSH2 0x288C JUMPI PUSH1 0x0 DUP1 REVERT JUMPDEST DUP2 PUSH1 0x0 LT DUP1 ISZERO PUSH2 0x28A0 JUMPI POP PUSH4 0xFFFFFFFF DUP3 GT ISZERO JUMPDEST PUSH2 0x28A9 JUMPI PUSH1 0x0 DUP1 REVERT JUMPDEST PUSH4 0xFFFFFFFF DUP2 GT ISZERO PUSH2 0x28BA JUMPI PUSH1 0x0 DUP1 REVERT JUMPDEST DUP6 SLOAD PUSH1 0x1 PUSH1 0x1 PUSH1 0x50 SHL SUB NOT AND PUSH1 0x1 PUSH1 0x1 PUSH1 0x50 SHL SUB SWAP6 DUP7 AND OR PUSH10 0xFFFFFFFFFFFFFFFFFFFF PUSH1 0x50 SHL NOT AND PUSH1 0x1 PUSH1 0x50 SHL SWAP5 SWAP1 SWAP6 AND SWAP4 SWAP1 SWAP4 MUL SWAP4 SWAP1 SWAP4 OR PUSH4 0xFFFFFFFF PUSH1 0xA0 SHL NOT AND PUSH1 0x1 PUSH1 0xA0 SHL PUSH4 0xFFFFFFFF SWAP3 DUP4 AND MUL OR PUSH4 0xFFFFFFFF PUSH1 0xC0 SHL NOT AND PUSH1 0x1 PUSH1 0xC0 SHL SWAP4 DUP3 AND SWAP4 SWAP1 SWAP4 MUL SWAP3 SWAP1 SWAP3 OR PUSH1 0x1 PUSH1 0x1 PUSH1 0xE0 SHL SUB AND PUSH1 0x1 PUSH1 0xE0 SHL SWAP2 SWAP1 SWAP3 AND MUL OR SWAP1 SSTORE JUMP JUMPDEST PUSH1 0x0 DUP2 SLT ISZERO DUP1 ISZERO PUSH2 0x2956 JUMPI POP PUSH1 0x1 PUSH1 0x1 PUSH1 0x50 SHL SUB DUP2 SGT ISZERO JUMPDEST PUSH2 0x295F JUMPI PUSH1 0x0 DUP1 REVERT JUMPDEST PUSH1 0x1 SWAP2 SWAP1 SWAP2 ADD DUP1 SLOAD PUSH1 0x1 PUSH1 0x1 PUSH1 0x50 SHL SUB NOT AND PUSH1 0x1 PUSH1 0x1 PUSH1 0x50 SHL SUB SWAP1 SWAP3 AND SWAP2 SWAP1 SWAP2 OR SWAP1 SSTORE JUMP JUMPDEST PUSH1 0x0 DUP1 PUSH2 0x7A6 PUSH1 0xC PUSH2 0x2C89 JUMP JUMPDEST PUSH1 0x0 DUP1 PUSH1 0x0 PUSH2 0x299F DUP6 PUSH2 0xF65 JUMP JUMPDEST SWAP1 POP PUSH3 0x15180 DUP5 MOD ISZERO PUSH2 0x29B9 JUMPI PUSH1 0x0 DUP1 SWAP3 POP SWAP3 POP POP PUSH2 0x25B0 JUMP JUMPDEST DUP4 DUP2 LT PUSH2 0x29CD JUMPI PUSH1 0x0 DUP1 SWAP3 POP SWAP3 POP POP PUSH2 0x25B0 JUMP JUMPDEST PUSH3 0x15180 DUP2 DUP6 SUB DIV PUSH1 0x5A DUP2 GT PUSH2 0x29EA JUMPI SWAP3 POP PUSH1 0x1 SWAP2 POP PUSH2 0x25B0 SWAP1 POP JUMP JUMPDEST PUSH2 0x168 DUP2 GT PUSH2 0x2A29 JUMPI PUSH1 0x0 PUSH3 0x15180 PUSH3 0x7E900 DUP5 MOD DIV DUP3 ADD PUSH1 0x59 NOT ADD SWAP1 POP PUSH1 0x6 DUP2 DIV PUSH1 0x5A ADD PUSH1 0x6 DUP3 DUP2 PUSH2 0x2A19 JUMPI INVALID JUMPDEST MOD PUSH1 0x0 EQ SWAP5 POP SWAP5 POP POP POP POP PUSH2 0x25B0 JUMP JUMPDEST PUSH2 0x870 DUP2 GT PUSH2 0x2A59 JUMPI PUSH1 0x0 PUSH3 0x15180 PUSH3 0x278D00 DUP5 MOD DIV DUP3 ADD PUSH2 0x167 NOT ADD SWAP1 POP PUSH1 0x1E DUP2 DIV PUSH1 0x87 ADD PUSH1 0x1E DUP3 DUP2 PUSH2 0x2A19 JUMPI INVALID JUMPDEST PUSH2 0x1DE2 DUP2 GT PUSH2 0x2A89 JUMPI PUSH1 0x0 PUSH3 0x15180 PUSH3 0x76A700 DUP5 MOD DIV DUP3 ADD PUSH2 0x86F NOT ADD SWAP1 POP PUSH1 0x5A DUP2 DIV PUSH1 0xC3 ADD PUSH1 0x5A DUP3 DUP2 PUSH2 0x2A19 JUMPI INVALID JUMPDEST POP PUSH2 0x100 SWAP6 PUSH1 0x0 SWAP6 POP SWAP4 POP POP POP POP JUMP JUMPDEST PUSH1 0x0 PUSH1 0x1 DUP3 LT ISZERO DUP1 ISZERO PUSH2 0x2AAE JUMPI POP PUSH2 0x100 DUP3 GT ISZERO JUMPDEST PUSH2 0x2AB7 JUMPI PUSH1 0x0 DUP1 REVERT JUMPDEST POP PUSH1 0x0 NOT ADD SHL PUSH1 0x1 PUSH1 0xFF SHL SWAP1 DUP2 AND EQ SWAP1 JUMP JUMPDEST PUSH1 0x0 PUSH1 0x1 PUSH1 0x1 PUSH1 0x7F SHL SUB NOT DUP3 SLT DUP1 ISZERO SWAP1 PUSH2 0x2AEA JUMPI POP PUSH1 0x1 PUSH1 0x1 PUSH1 0x7F SHL SUB DUP3 SGT ISZERO JUMPDEST PUSH2 0xB9D JUMPI PUSH1 0x0 DUP1 REVERT JUMPDEST PUSH1 0x0 PUSH2 0x2AFF DUP4 DUP4 PUSH2 0x35E9 JUMP JUMPDEST SWAP1 POP DUP1 PUSH2 0x2B0C JUMPI POP PUSH2 0xEF JUMP JUMPDEST PUSH1 0x0 PUSH2 0x2B16 PUSH2 0x3670 JUMP JUMPDEST PUSH2 0xFFFF DUP8 AND PUSH1 0x0 SWAP1 DUP2 MSTORE PUSH1 0x20 DUP3 DUP2 MSTORE PUSH1 0x40 DUP1 DUP4 KECCAK256 DUP10 DUP5 MSTORE SWAP1 SWAP2 MSTORE DUP2 KECCAK256 SLOAD SWAP2 SWAP3 POP PUSH1 0x1 PUSH1 0x1 PUSH1 0x50 SHL SUB SWAP1 SWAP2 AND DUP2 SUB SWAP1 PUSH2 0x2B4E DUP3 DUP6 PUSH2 0x23E1 JUMP JUMPDEST SWAP1 POP PUSH1 0x0 DUP2 SGT ISZERO PUSH2 0x2B5E JUMPI PUSH1 0x0 DUP1 REVERT JUMPDEST PUSH2 0x2B77 PUSH2 0x2B72 PUSH2 0x2B6D DUP4 PUSH2 0x15C5 JUMP JUMPDEST PUSH2 0xB8E JUMP JUMPDEST PUSH2 0x367D JUMP JUMPDEST PUSH2 0xFFFF DUP10 AND PUSH1 0x0 SWAP1 DUP2 MSTORE PUSH1 0x20 DUP6 DUP2 MSTORE PUSH1 0x40 DUP1 DUP4 KECCAK256 DUP12 DUP5 MSTORE SWAP1 SWAP2 MSTORE SWAP1 KECCAK256 DUP1 SLOAD PUSH1 0x1 PUSH1 0x1 PUSH1 0x50 SHL SUB NOT AND PUSH1 0x1 PUSH1 0x1 PUSH1 0x50 SHL SUB SWAP3 SWAP1 SWAP3 AND SWAP2 SWAP1 SWAP2 OR SWAP1 SSTORE PUSH2 0x2BBD DUP10 DUP10 DUP10 DUP8 PUSH2 0x3693 JUMP JUMPDEST POP POP POP POP POP POP POP POP POP JUMP JUMPDEST PUSH1 0x14 PUSH2 0x2BD3 DUP3 PUSH2 0x371D JUMP JUMPDEST GT ISZERO PUSH2 0x2BF1 JUMPI PUSH1 0x40 MLOAD PUSH3 0x461BCD PUSH1 0xE5 SHL DUP2 MSTORE PUSH1 0x4 ADD PUSH2 0x326 SWAP1 PUSH2 0x5D9E JUMP JUMPDEST PUSH1 0x0 PUSH2 0x2BFB PUSH2 0x3237 JUMP JUMPDEST PUSH1 0x1 PUSH1 0x1 PUSH1 0xA0 SHL SUB SWAP1 SWAP5 AND PUSH1 0x0 SWAP1 DUP2 MSTORE PUSH1 0x20 SWAP5 DUP6 MSTORE PUSH1 0x40 DUP1 DUP3 KECCAK256 SWAP5 DUP3 MSTORE SWAP4 SWAP1 SWAP5 MSTORE POP SWAP2 KECCAK256 SSTORE JUMP JUMPDEST PUSH1 0x0 DUP1 DUP3 PUSH1 0x40 ADD MLOAD GT DUP1 ISZERO PUSH2 0x2C3C JUMPI POP PUSH1 0x40 DUP3 ADD MLOAD PUSH1 0x8 LT ISZERO JUMPDEST PUSH2 0x2C45 JUMPI PUSH1 0x0 DUP1 REVERT JUMPDEST PUSH1 0x40 DUP3 ADD MLOAD PUSH1 0x2 LT PUSH2 0x2C5C JUMPI POP PUSH1 0x20 DUP2 ADD MLOAD PUSH2 0x850 JUMP JUMPDEST PUSH1 0x0 PUSH2 0x2C6E PUSH1 0x1 DUP5 PUSH1 0x40 ADD MLOAD SUB PUSH2 0x7AC JUMP JUMPDEST PUSH1 0x20 DUP5 ADD MLOAD SWAP1 SWAP2 POP PUSH2 0x888 SWAP1 PUSH3 0x76A700 SWAP1 PUSH2 0x1FC SWAP1 DUP5 PUSH2 0x20D7 JUMP JUMPDEST PUSH1 0x0 PUSH3 0xF4240 DUP3 PUSH1 0x26 DUP2 GT ISZERO PUSH2 0x2C9B JUMPI INVALID JUMPDEST ADD SWAP3 SWAP2 POP POP JUMP JUMPDEST PUSH1 0x0 DUP1 PUSH2 0x7A6 PUSH1 0x6 PUSH2 0x2C89 JUMP JUMPDEST PUSH1 0x0 PUSH1 0x1 PUSH1 0x1 PUSH1 0x57 SHL SUB NOT DUP3 SLT DUP1 ISZERO SWAP1 PUSH2 0x2AEA JUMPI POP PUSH1 0x1 PUSH1 0x1 PUSH1 0x57 SHL SUB DUP3 SGT ISZERO PUSH2 0xB9D JUMPI PUSH1 0x0 DUP1 REVERT JUMPDEST PUSH1 0x0 DUP1 PUSH2 0x7A6 PUSH1 0x3 PUSH2 0x2C89 JUMP JUMPDEST PUSH1 0x0 DUP1 PUSH2 0x7A6 PUSH1 0x11 PUSH2 0x2C89 JUMP JUMPDEST PUSH1 0x60 PUSH2 0x2818 DUP4 DUP4 PUSH2 0x37ED JUMP JUMPDEST PUSH2 0x2D06 PUSH2 0x5B36 JUMP JUMPDEST PUSH1 0x0 PUSH2 0x2D11 DUP5 PUSH2 0x380E JUMP JUMPDEST SWAP1 POP DUP3 DUP2 PUSH1 0x0 ADD MLOAD LT ISZERO PUSH2 0x2D50 JUMPI PUSH1 0x0 DUP1 PUSH2 0x2D2B DUP7 PUSH2 0x38D6 JUMP JUMPDEST SWAP1 POP PUSH2 0x2D39 DUP7 DUP5 DUP4 DUP9 PUSH2 0x3953 JUMP JUMPDEST SWAP1 SWAP4 POP SWAP2 POP PUSH2 0x2D49 DUP7 DUP4 DUP6 PUSH2 0x39F7 JUMP JUMPDEST POP POP PUSH2 0x2D5D JUMP JUMPDEST DUP1 MLOAD DUP4 EQ PUSH2 0x2D5D JUMPI PUSH1 0x0 DUP1 REVERT JUMPDEST PUSH1 0x40 MLOAD DUP1 PUSH1 0x60 ADD PUSH1 0x40 MSTORE DUP1 PUSH2 0x2D8B PUSH2 0x2D86 DUP5 PUSH1 0xA0 ADD MLOAD DUP6 PUSH1 0xC0 ADD MLOAD PUSH2 0x14BA SWAP1 SWAP2 SWAP1 PUSH4 0xFFFFFFFF AND JUMP JUMPDEST PUSH2 0x3C28 JUMP JUMPDEST DUP2 MSTORE PUSH1 0x20 ADD PUSH2 0x2DAE PUSH2 0x2D86 DUP5 PUSH1 0xA0 ADD MLOAD DUP6 PUSH1 0xE0 ADD MLOAD PUSH2 0x14BA SWAP1 SWAP2 SWAP1 PUSH4 0xFFFFFFFF AND JUMP JUMPDEST DUP2 MSTORE PUSH1 0x20 ADD DUP3 PUSH1 0x60 ADD MLOAD DUP2 MSTORE POP SWAP2 POP POP SWAP3 SWAP2 POP POP JUMP JUMPDEST PUSH1 0x0 DUP1 PUSH2 0x2DCF PUSH2 0x3C3E JUMP JUMPDEST PUSH1 0x0 SWAP4 DUP5 MSTORE PUSH1 0x20 MSTORE POP POP PUSH1 0x40 SWAP1 KECCAK256 SLOAD SWAP1 JUMP JUMPDEST PUSH2 0x2DEF DUP5 DUP5 DUP5 PUSH1 0x1 DUP6 PUSH2 0x30F4 JUMP JUMPDEST POP POP POP POP JUMP JUMPDEST PUSH1 0x0 DUP1 DUP3 PUSH2 0x2E08 JUMPI POP PUSH1 0x0 SWAP1 POP DUP1 PUSH2 0x25B0 JUMP JUMPDEST PUSH1 0x0 DUP4 SGT PUSH2 0x2E15 JUMPI PUSH1 0x0 DUP1 REVERT JUMPDEST PUSH2 0x2E34 DUP5 PUSH1 0x80 ADD MLOAD PUSH2 0x8A4 DUP6 DUP8 PUSH1 0x60 ADD MLOAD PUSH2 0x130C SWAP1 SWAP2 SWAP1 PUSH4 0xFFFFFFFF AND JUMP JUMPDEST SWAP2 POP PUSH2 0x2E55 DUP5 PUSH1 0x80 ADD MLOAD PUSH2 0x8A4 DUP6 DUP8 PUSH1 0x40 ADD MLOAD PUSH2 0x130C SWAP1 SWAP2 SWAP1 PUSH4 0xFFFFFFFF AND JUMP JUMPDEST PUSH1 0x80 DUP6 ADD MLOAD SWAP1 SWAP2 POP PUSH2 0x2E67 SWAP1 DUP5 PUSH2 0x1221 JUMP JUMPDEST PUSH1 0x80 DUP6 ADD MSTORE PUSH1 0x40 DUP5 ADD MLOAD PUSH2 0x2E7B SWAP1 DUP3 PUSH2 0x1221 JUMP JUMPDEST PUSH1 0x40 DUP6 ADD MSTORE PUSH1 0x60 DUP5 ADD MLOAD PUSH2 0x2E8F SWAP1 DUP4 PUSH2 0x1221 JUMP JUMPDEST PUSH1 0x60 DUP6 ADD MSTORE PUSH2 0x25B0 DUP5 PUSH2 0x3C4B JUMP JUMPDEST PUSH1 0x0 DUP1 PUSH2 0x2EAB DUP7 DUP7 DUP6 PUSH2 0x3CA3 JUMP JUMPDEST SWAP1 POP PUSH1 0x0 PUSH2 0x2EBA DUP10 DUP4 DUP8 PUSH2 0x3CCC JUMP JUMPDEST SWAP1 SWAP4 POP SWAP1 POP PUSH1 0x1 PUSH1 0x1 PUSH1 0xA0 SHL SUB DUP9 AND ISZERO PUSH2 0x2037 JUMPI PUSH2 0x2037 DUP9 DUP9 DUP9 DUP9 DUP6 PUSH2 0x3D34 JUMP JUMPDEST PUSH1 0x0 DUP1 PUSH2 0x2EE6 PUSH2 0x2984 JUMP JUMPDEST PUSH1 0x1 PUSH1 0x1 PUSH1 0xA0 SHL SUB DUP9 AND PUSH1 0x0 SWAP1 DUP2 MSTORE PUSH1 0x20 DUP3 DUP2 MSTORE PUSH1 0x40 DUP1 DUP4 KECCAK256 PUSH2 0xFFFF DUP12 AND DUP5 MSTORE DUP3 MSTORE DUP1 DUP4 KECCAK256 DUP10 DUP5 MSTORE SWAP1 SWAP2 MSTORE SWAP1 KECCAK256 SLOAD SWAP1 SWAP2 POP PUSH1 0xF SWAP1 DUP2 SIGNEXTEND SWAP1 SIGNEXTEND PUSH2 0x2F2C DUP5 DUP10 DUP10 DUP10 DUP6 DUP11 PUSH2 0x2E9D JUMP JUMPDEST PUSH1 0x1 PUSH1 0x1 PUSH1 0xA0 SHL SUB SWAP1 SWAP9 AND PUSH1 0x0 SWAP1 DUP2 MSTORE PUSH1 0x20 SWAP3 DUP4 MSTORE PUSH1 0x40 DUP1 DUP3 KECCAK256 PUSH2 0xFFFF SWAP1 SWAP10 AND DUP3 MSTORE SWAP8 DUP4 MSTORE DUP8 DUP2 KECCAK256 SWAP7 DUP2 MSTORE SWAP6 SWAP1 SWAP2 MSTORE POP POP POP SWAP2 SWAP1 KECCAK256 DUP1 SLOAD PUSH1 0x1 PUSH1 0x1 PUSH1 0x80 SHL SUB NOT AND SWAP1 SSTORE POP SWAP1 JUMP JUMPDEST PUSH1 0x0 DUP1 DUP3 SLT ISZERO PUSH2 0x2FAC JUMPI PUSH2 0x2FA7 PUSH1 0x1 PUSH2 0x2FA1 DUP6 PUSH1 0x20 ADD MLOAD PUSH2 0x8A4 DUP8 PUSH1 0x0 ADD MLOAD DUP8 PUSH2 0x130C SWAP1 SWAP2 SWAP1 PUSH4 0xFFFFFFFF AND JUMP JUMPDEST SWAP1 PUSH2 0x23E1 JUMP JUMPDEST PUSH2 0x888 JUMP JUMPDEST POP SWAP2 SWAP1 POP JUMP JUMPDEST PUSH1 0x0 PUSH2 0x2FBC PUSH2 0x3E26 JUMP JUMPDEST PUSH2 0xFFFF DUP6 AND PUSH1 0x0 SWAP1 DUP2 MSTORE PUSH1 0x20 SWAP2 SWAP1 SWAP2 MSTORE PUSH1 0x40 SWAP1 KECCAK256 DUP1 SLOAD SWAP1 SWAP2 POP PUSH5 0xFFFFFFFFFF AND TIMESTAMP EQ PUSH2 0x2FE7 JUMPI PUSH1 0x0 DUP1 REVERT JUMPDEST DUP1 SLOAD PUSH1 0x1 PUSH1 0xF8 SHL SWAP1 DIV PUSH1 0xFF AND PUSH2 0x2FFC JUMPI PUSH1 0x0 DUP1 REVERT JUMPDEST PUSH1 0x1 DUP2 ADD SLOAD PUSH1 0x0 SWAP1 PUSH2 0x3017 SWAP1 PUSH1 0x1 PUSH1 0x1 PUSH1 0x58 SHL SUB AND DUP6 PUSH2 0x1F62 JUMP JUMPDEST DUP3 SLOAD SWAP1 SWAP2 POP PUSH1 0x0 SWAP1 PUSH2 0x3039 SWAP1 PUSH1 0x1 PUSH1 0x28 SHL SWAP1 DIV PUSH1 0x1 PUSH1 0x1 PUSH1 0x58 SHL SUB AND DUP6 PUSH2 0x1F62 JUMP JUMPDEST SWAP1 POP DUP2 PUSH1 0x9 NOT SLT DUP1 ISZERO PUSH2 0x304C JUMPI POP PUSH1 0x0 DUP3 SLT JUMPDEST ISZERO PUSH2 0x3056 JUMPI PUSH1 0x0 SWAP2 POP JUMPDEST DUP1 PUSH1 0x9 NOT SLT DUP1 ISZERO PUSH2 0x3067 JUMPI POP PUSH1 0x0 DUP2 SLT JUMPDEST ISZERO PUSH2 0x3070 JUMPI POP PUSH1 0x0 JUMPDEST PUSH2 0x3081 PUSH2 0x307C DUP4 PUSH2 0xB8E JUMP JUMPDEST PUSH2 0x3E33 JUMP JUMPDEST PUSH1 0x1 DUP5 ADD DUP1 SLOAD PUSH11 0xFFFFFFFFFFFFFFFFFFFFFF NOT AND PUSH1 0x1 PUSH1 0x1 PUSH1 0x58 SHL SUB SWAP3 SWAP1 SWAP3 AND SWAP2 SWAP1 SWAP2 OR SWAP1 SSTORE PUSH2 0x30B3 PUSH2 0x307C DUP3 PUSH2 0xB8E JUMP JUMPDEST DUP4 SLOAD PUSH1 0x1 PUSH1 0x1 PUSH1 0x58 SHL SUB SWAP2 SWAP1 SWAP2 AND PUSH1 0x1 PUSH1 0x28 SHL MUL PUSH16 0xFFFFFFFFFFFFFFFFFFFFFF0000000000 NOT SWAP1 SWAP2 AND OR DUP4 SSTORE PUSH2 0x30EB DUP8 DUP8 DUP7 DUP9 PUSH2 0x3E49 JUMP JUMPDEST PUSH2 0x10DD DUP4 PUSH2 0x3F5D JUMP JUMPDEST PUSH1 0x0 PUSH2 0x30FE PUSH2 0x2820 JUMP JUMPDEST PUSH1 0x0 DUP7 DUP2 MSTORE PUSH1 0x20 DUP3 DUP2 MSTORE PUSH1 0x40 DUP1 DUP4 KECCAK256 DUP9 DUP5 MSTORE DUP3 MSTORE DUP1 DUP4 KECCAK256 DUP7 DUP5 MSTORE DUP3 MSTORE SWAP2 DUP3 SWAP1 KECCAK256 DUP1 DUP11 MSTORE SWAP1 DUP10 ADD DUP8 SWAP1 MSTORE DUP1 SLOAD PUSH1 0x1 PUSH1 0x1 PUSH1 0x50 SHL SUB DUP1 DUP3 AND SWAP4 DUP12 ADD SWAP4 SWAP1 SWAP4 MSTORE PUSH1 0x1 PUSH1 0x50 SHL DUP2 DIV SWAP1 SWAP3 AND PUSH1 0x60 DUP11 ADD MSTORE PUSH4 0xFFFFFFFF PUSH1 0x1 PUSH1 0xA0 SHL DUP4 DIV DUP2 AND PUSH1 0xA0 DUP12 ADD MSTORE PUSH1 0x1 PUSH1 0xC0 SHL DUP4 DIV DUP2 AND PUSH1 0xC0 DUP12 ADD MSTORE PUSH1 0x1 PUSH1 0xE0 SHL SWAP1 SWAP3 DIV SWAP1 SWAP2 AND PUSH1 0xE0 DUP10 ADD MSTORE SWAP1 SWAP2 POP DUP1 DUP5 ISZERO PUSH2 0x319D JUMPI PUSH1 0x1 DUP3 ADD SLOAD PUSH1 0x1 PUSH1 0x1 PUSH1 0x50 SHL SUB AND PUSH1 0x80 DUP10 ADD MSTORE PUSH2 0x31A5 JUMP JUMPDEST PUSH1 0x0 PUSH1 0x80 DUP10 ADD MSTORE JUMPDEST POP POP POP POP POP POP POP POP JUMP JUMPDEST PUSH1 0x0 DUP1 DUP4 GT PUSH2 0x31BD JUMPI PUSH1 0x0 DUP1 REVERT JUMPDEST DUP2 DUP7 GT ISZERO PUSH2 0x31CC JUMPI POP DUP4 PUSH2 0x63F JUMP JUMPDEST PUSH1 0x0 PUSH2 0x31D8 DUP4 DUP9 PUSH2 0x20D7 JUMP JUMPDEST SWAP1 POP DUP4 DUP2 GT ISZERO PUSH2 0x31EB JUMPI DUP6 SWAP2 POP POP PUSH2 0x63F JUMP JUMPDEST PUSH1 0x0 PUSH2 0x31F7 DUP3 DUP7 PUSH2 0x4022 JUMP JUMPDEST SWAP1 POP PUSH1 0x0 PUSH2 0x3209 PUSH4 0x3B9ACA00 DUP4 PUSH2 0x20D7 JUMP JUMPDEST SWAP1 POP PUSH2 0x322A PUSH4 0x3B9ACA00 PUSH2 0x967 PUSH2 0x3220 DUP11 DUP6 PUSH2 0x14BA JUMP JUMPDEST PUSH2 0x1FC DUP13 DUP8 PUSH2 0x14BA JUMP JUMPDEST SWAP10 SWAP9 POP POP POP POP POP POP POP POP POP JUMP JUMPDEST PUSH1 0x0 DUP1 PUSH2 0x7A6 PUSH1 0xB PUSH2 0x2C89 JUMP JUMPDEST PUSH1 0x0 DUP2 PUSH2 0x3250 JUMPI PUSH1 0x0 DUP1 REVERT JUMPDEST PUSH1 0x1 PUSH1 0x80 SHL DUP3 LT PUSH2 0x3263 JUMPI PUSH1 0x80 SWAP2 DUP3 SHR SWAP2 ADD JUMPDEST PUSH1 0x1 PUSH1 0x40 SHL DUP3 LT PUSH2 0x3276 JUMPI PUSH1 0x40 SWAP2 DUP3 SHR SWAP2 ADD JUMPDEST PUSH5 0x100000000 DUP3 LT PUSH2 0x328A JUMPI PUSH1 0x20 SWAP2 DUP3 SHR SWAP2 ADD JUMPDEST PUSH3 0x10000 DUP3 LT PUSH2 0x329C JUMPI PUSH1 0x10 SWAP2 DUP3 SHR SWAP2 ADD JUMPDEST PUSH2 0x100 DUP3 LT PUSH2 0x32AD JUMPI PUSH1 0x8 SWAP2 DUP3 SHR SWAP2 ADD JUMPDEST PUSH1 0x10 DUP3 LT PUSH2 0x32BD JUMPI PUSH1 0x4 SWAP2 DUP3 SHR SWAP2 ADD JUMPDEST PUSH1 0x4 DUP3 LT PUSH2 0x32CD JUMPI PUSH1 0x2 SWAP2 DUP3 SHR SWAP2 ADD JUMPDEST PUSH1 0x2 DUP3 LT PUSH2 0x850 JUMPI PUSH1 0x1 ADD SWAP2 SWAP1 POP JUMP JUMPDEST PUSH1 0x0 DUP1 PUSH1 0x0 DUP6 GT PUSH2 0x32ED JUMPI PUSH1 0x0 DUP1 REVERT JUMPDEST PUSH1 0x7 DUP6 GT ISZERO PUSH2 0x32FB JUMPI PUSH1 0x0 DUP1 REVERT JUMPDEST PUSH1 0x0 PUSH2 0x3306 DUP5 PUSH2 0x855 JUMP JUMPDEST SWAP1 POP PUSH1 0x1 JUMPDEST DUP7 DUP2 GT PUSH2 0x335E JUMPI PUSH1 0x0 PUSH2 0x3327 PUSH2 0x3320 DUP4 PUSH2 0x7AC JUMP JUMPDEST DUP5 SWAP1 PUSH2 0x876 JUMP JUMPDEST SWAP1 POP DUP7 DUP2 EQ ISZERO PUSH2 0x333F JUMPI POP SWAP3 POP PUSH1 0x0 SWAP2 POP PUSH2 0x3364 SWAP1 POP JUMP JUMPDEST DUP7 DUP2 GT ISZERO PUSH2 0x3355 JUMPI POP SWAP3 POP PUSH1 0x1 SWAP2 POP PUSH2 0x3364 SWAP1 POP JUMP JUMPDEST POP PUSH1 0x1 ADD PUSH2 0x330B JUMP JUMPDEST POP PUSH1 0x0 DUP1 REVERT JUMPDEST SWAP4 POP SWAP4 SWAP2 POP POP JUMP JUMPDEST PUSH1 0x0 DUP1 PUSH2 0x3377 PUSH2 0x2820 JUMP JUMPDEST SWAP1 POP PUSH1 0x0 PUSH3 0x76A700 PUSH2 0x3388 DUP6 PUSH2 0x855 JUMP JUMPDEST PUSH1 0x0 DUP10 DUP2 MSTORE PUSH1 0x20 DUP6 DUP2 MSTORE PUSH1 0x40 DUP1 DUP4 KECCAK256 DUP12 DUP5 MSTORE DUP3 MSTORE DUP1 DUP4 KECCAK256 SWAP5 SWAP1 SWAP4 ADD DUP1 DUP4 MSTORE SWAP4 SWAP1 MSTORE KECCAK256 DUP1 SLOAD SWAP2 SWAP3 POP SWAP1 PUSH4 0xFFFFFFFF PUSH1 0x1 PUSH1 0xA0 SHL DUP3 DIV DUP2 AND SWAP2 PUSH1 0x1 PUSH1 0xC0 SHL DUP2 DIV DUP3 AND SWAP2 PUSH1 0x1 PUSH1 0xE0 SHL SWAP1 SWAP2 DIV AND DUP2 PUSH2 0x33EF JUMPI PUSH1 0x40 MLOAD PUSH3 0x461BCD PUSH1 0xE5 SHL DUP2 MSTORE PUSH1 0x4 ADD PUSH2 0x326 SWAP1 PUSH2 0x5CEA JUMP JUMPDEST PUSH2 0x33FC DUP2 DUP5 DUP5 DUP13 DUP13 PUSH2 0x31AF JUMP JUMPDEST SWAP12 SWAP11 POP POP POP POP POP POP POP POP POP POP POP JUMP JUMPDEST PUSH1 0x0 DUP1 PUSH2 0x3428 PUSH2 0x3423 PUSH4 0x1DA9C00 PUSH2 0x967 DUP7 DUP9 PUSH2 0x14BA JUMP JUMPDEST PUSH2 0x403B JUMP JUMPDEST SWAP1 POP PUSH2 0x343A DUP2 PUSH3 0x1DCD65 PUSH1 0x49 SHL PUSH2 0x4059 JUMP JUMPDEST SWAP1 POP PUSH2 0x344D PUSH2 0x3448 DUP3 PUSH2 0x40AC JUMP JUMPDEST PUSH2 0x40CE JUMP JUMPDEST SWAP1 POP PUSH2 0x345F DUP2 PUSH3 0x1DCD65 PUSH1 0x49 SHL PUSH2 0x4123 JUMP JUMPDEST SWAP1 POP PUSH1 0x0 PUSH2 0x346C DUP3 PUSH2 0x4159 JUMP JUMPDEST PUSH1 0x7 SIGNEXTEND SWAP6 SWAP5 POP POP POP POP POP JUMP JUMPDEST PUSH1 0x0 PUSH2 0x888 PUSH2 0x3487 DUP5 DUP5 PUSH2 0x130C JUMP JUMPDEST PUSH4 0x3B9ACA00 PUSH2 0x135A JUMP JUMPDEST PUSH1 0x0 DUP2 PUSH1 0x0 LT PUSH2 0x34A0 JUMPI PUSH1 0x0 DUP1 REVERT JUMPDEST PUSH1 0x7 DUP3 GT ISZERO PUSH2 0x34AE JUMPI PUSH1 0x0 DUP1 REVERT JUMPDEST PUSH1 0x4 DUP3 LT PUSH2 0x34BF JUMPI PUSH1 0x4 DUP3 SUB PUSH2 0x34C1 JUMP JUMPDEST DUP2 JUMPDEST PUSH1 0x8 MUL SWAP3 SWAP2 POP POP JUMP JUMPDEST PUSH2 0x34D2 PUSH2 0x5A59 JUMP JUMPDEST PUSH1 0x64 PUSH4 0x3B9ACA00 DUP4 PUSH1 0xFF DUP7 AND PUSH1 0x20 DUP2 LT PUSH2 0x34E8 JUMPI INVALID JUMPDEST BYTE MUL DUP2 PUSH2 0x34F1 JUMPI INVALID JUMPDEST DIV DUP2 MSTORE PUSH1 0x64 PUSH4 0x3B9ACA00 DUP4 PUSH1 0xFF DUP7 AND PUSH1 0x1 ADD PUSH1 0x20 DUP2 LT PUSH2 0x350D JUMPI INVALID JUMPDEST BYTE MUL DUP2 PUSH2 0x3516 JUMPI INVALID JUMPDEST DIV DUP2 PUSH1 0x20 ADD DUP2 DUP2 MSTORE POP POP PUSH2 0x353B DUP3 PUSH1 0x2 DUP6 PUSH1 0xFF AND ADD PUSH1 0x20 DUP2 LT PUSH2 0x3535 JUMPI INVALID JUMPDEST BYTE PUSH2 0x4162 JUMP JUMPDEST PUSH1 0x80 DUP3 ADD DUP2 SWAP1 MSTORE PUSH2 0x100 SWAP1 DUP4 PUSH1 0xFF DUP7 AND PUSH1 0x3 ADD PUSH1 0x20 DUP2 LT PUSH2 0x3558 JUMPI INVALID JUMPDEST BYTE MUL DUP2 PUSH2 0x3561 JUMPI INVALID JUMPDEST DIV PUSH1 0x40 DUP3 ADD MSTORE PUSH1 0x80 DUP2 ADD MLOAD PUSH2 0x100 SWAP1 DUP4 PUSH1 0xFF DUP7 AND PUSH1 0x4 ADD PUSH1 0x20 DUP2 LT PUSH2 0x3582 JUMPI INVALID JUMPDEST BYTE MUL DUP2 PUSH2 0x358B JUMPI INVALID JUMPDEST DIV PUSH1 0x60 DUP3 ADD MSTORE PUSH3 0x7A120 DUP3 PUSH1 0xFF DUP6 AND PUSH1 0x5 ADD PUSH1 0x20 DUP2 LT PUSH2 0x35A7 JUMPI INVALID JUMPDEST BYTE MUL PUSH1 0xA0 DUP3 ADD MSTORE PUSH3 0x2625A0 DUP3 PUSH1 0xFF DUP6 AND PUSH1 0x6 ADD PUSH1 0x20 DUP2 LT PUSH2 0x35C4 JUMPI INVALID JUMPDEST BYTE MUL PUSH1 0xC0 DUP3 ADD MSTORE DUP2 PUSH1 0xFF DUP5 AND PUSH1 0x7 ADD PUSH1 0x20 DUP2 LT PUSH2 0x35DD JUMPI INVALID JUMPDEST BYTE PUSH1 0xE0 DUP3 ADD MSTORE SWAP3 SWAP2 POP POP JUMP JUMPDEST PUSH1 0x0 DUP2 DUP4 EQ DUP1 PUSH2 0x3606 JUMPI POP PUSH1 0x0 DUP4 SLT ISZERO DUP1 ISZERO PUSH2 0x3606 JUMPI POP PUSH1 0x0 DUP3 SLT ISZERO JUMPDEST ISZERO PUSH2 0x3613 JUMPI POP PUSH1 0x0 PUSH2 0x7A6 JUMP JUMPDEST PUSH1 0x0 DUP4 SGT ISZERO DUP1 ISZERO PUSH2 0x3624 JUMPI POP DUP2 PUSH1 0x0 SLT JUMPDEST ISZERO PUSH2 0x3630 JUMPI POP DUP2 PUSH2 0x7A6 JUMP JUMPDEST PUSH1 0x0 DUP3 SGT ISZERO DUP1 ISZERO PUSH2 0x3641 JUMPI POP DUP3 PUSH1 0x0 SLT JUMPDEST ISZERO PUSH2 0x364F JUMPI PUSH2 0x96D DUP3 PUSH2 0x15C5 JUMP JUMPDEST PUSH1 0x0 DUP4 SGT ISZERO DUP1 ISZERO PUSH2 0x3661 JUMPI POP PUSH1 0x0 DUP3 SGT ISZERO JUMPDEST ISZERO PUSH2 0x41 JUMPI PUSH2 0x96D DUP4 DUP4 PUSH2 0x23E1 JUMP JUMPDEST PUSH1 0x0 DUP1 PUSH2 0x7A6 PUSH1 0x20 PUSH2 0x2C89 JUMP JUMPDEST PUSH1 0x0 PUSH1 0x1 PUSH1 0x1 PUSH1 0x50 SHL SUB DUP3 GT ISZERO PUSH2 0xB9D JUMPI PUSH1 0x0 DUP1 REVERT JUMPDEST PUSH1 0x0 DUP1 PUSH2 0x36A1 DUP6 DUP6 DUP6 PUSH2 0x4196 JUMP JUMPDEST SWAP2 POP SWAP2 POP PUSH1 0x0 DUP1 PUSH1 0x0 DUP6 SLT ISZERO PUSH2 0x36B9 JUMPI DUP8 SWAP2 POP PUSH2 0x36BC JUMP JUMPDEST POP DUP7 JUMPDEST DUP1 PUSH1 0x1 PUSH1 0x1 PUSH1 0xA0 SHL SUB AND DUP3 PUSH1 0x1 PUSH1 0x1 PUSH1 0xA0 SHL SUB AND CALLER PUSH1 0x1 PUSH1 0x1 PUSH1 0xA0 SHL SUB AND PUSH32 0x4A39DC06D4C0DBC64B70AF90FD698A233A518AA5D07E595D983B8C0526C8F7FB DUP8 DUP8 PUSH1 0x40 MLOAD PUSH2 0x370B SWAP3 SWAP2 SWAP1 PUSH2 0x5CB7 JUMP JUMPDEST PUSH1 0x40 MLOAD DUP1 SWAP2 SUB SWAP1 LOG4 POP POP POP POP POP POP POP POP JUMP JUMPDEST PUSH1 0x1 DUP2 SWAP1 SHR PUSH32 0x5555555555555555555555555555555555555555555555555555555555555555 SWAP1 DUP2 AND SWAP2 AND ADD PUSH1 0x2 DUP2 SWAP1 SHR PUSH32 0x3333333333333333333333333333333333333333333333333333333333333333 SWAP1 DUP2 AND SWAP2 AND ADD PUSH1 0x4 DUP2 SWAP1 SHR PUSH32 0x707070707070707070707070707070707070707070707070707070707070707 SWAP2 SWAP1 SWAP2 AND ADD PUSH1 0x8 DUP2 SWAP1 SHR PUSH31 0xF000F000F000F000F000F000F000F000F000F000F000F000F000F000F000F SWAP1 DUP2 AND SWAP2 AND ADD PUSH1 0x10 DUP2 SWAP1 SHR ADD PUSH1 0x20 DUP2 SWAP1 SHR ADD PUSH1 0x40 DUP2 SWAP1 SHR ADD PUSH1 0x80 DUP2 SWAP1 SHR PUSH1 0xFF SWAP1 DUP2 AND SWAP2 AND ADD SWAP1 JUMP JUMPDEST PUSH1 0x60 DUP1 PUSH2 0x37FA DUP5 DUP5 PUSH2 0x427B JUMP JUMPDEST SWAP2 POP PUSH2 0x3805 DUP3 PUSH2 0x4393 JUMP JUMPDEST SWAP1 POP SWAP3 POP SWAP3 SWAP1 POP JUMP JUMPDEST PUSH2 0x3816 PUSH2 0x5B57 JUMP JUMPDEST PUSH1 0x0 PUSH2 0x3820 PUSH2 0x3E26 JUMP JUMPDEST PUSH2 0xFFFF SWAP4 DUP5 AND PUSH1 0x0 SWAP1 DUP2 MSTORE PUSH1 0x20 SWAP2 DUP3 MSTORE PUSH1 0x40 SWAP1 DUP2 SWAP1 KECCAK256 DUP1 SLOAD PUSH5 0xFFFFFFFFFF DUP2 AND DUP7 MSTORE PUSH1 0x1 PUSH1 0x28 SHL DUP2 DIV PUSH1 0x1 PUSH1 0x1 PUSH1 0x58 SHL SUB SWAP1 DUP2 AND SWAP5 DUP8 ADD SWAP5 SWAP1 SWAP5 MSTORE PUSH1 0x1 DUP3 ADD SLOAD DUP5 AND SWAP3 DUP7 ADD SWAP3 SWAP1 SWAP3 MSTORE PUSH1 0x1 PUSH1 0xD8 SHL DUP3 DIV PUSH4 0xFFFFFFFF AND PUSH1 0x60 DUP7 ADD MSTORE PUSH1 0x1 PUSH1 0x80 SHL SWAP1 SWAP2 DIV SWAP1 SWAP2 AND PUSH1 0x80 DUP5 ADD MSTORE PUSH1 0x2 ADD SLOAD PUSH1 0x1 PUSH1 0x1 PUSH1 0x50 SHL SUB DUP1 DUP3 AND PUSH1 0xA0 DUP6 ADD MSTORE PUSH1 0x1 PUSH1 0x50 SHL DUP3 DIV DUP2 AND PUSH1 0xC0 DUP6 ADD MSTORE PUSH1 0x1 PUSH1 0xA0 SHL DUP3 DIV AND PUSH1 0xE0 DUP5 ADD MSTORE PUSH1 0x1 PUSH1 0xF0 SHL SWAP1 DIV PUSH1 0xFF AND PUSH2 0x12C MUL SWAP1 SWAP3 AND PUSH2 0x100 DUP3 ADD MSTORE SWAP2 SWAP1 POP JUMP JUMPDEST PUSH1 0x0 DUP1 PUSH2 0x38E2 DUP4 PUSH2 0x4554 JUMP JUMPDEST PUSH1 0x1 PUSH1 0x1 PUSH1 0xA0 SHL SUB AND PUSH4 0xEF81F216 PUSH1 0x40 MLOAD DUP2 PUSH4 0xFFFFFFFF AND PUSH1 0xE0 SHL DUP2 MSTORE PUSH1 0x4 ADD PUSH1 0x40 DUP1 MLOAD DUP1 DUP4 SUB DUP2 PUSH1 0x0 DUP8 DUP1 EXTCODESIZE ISZERO DUP1 ISZERO PUSH2 0x391B JUMPI PUSH1 0x0 DUP1 REVERT JUMPDEST POP GAS CALL ISZERO DUP1 ISZERO PUSH2 0x392F JUMPI RETURNDATASIZE PUSH1 0x0 DUP1 RETURNDATACOPY RETURNDATASIZE PUSH1 0x0 REVERT JUMPDEST POP POP POP POP PUSH1 0x40 MLOAD RETURNDATASIZE PUSH1 0x1F NOT PUSH1 0x1F DUP3 ADD AND DUP3 ADD DUP1 PUSH1 0x40 MSTORE POP DUP2 ADD SWAP1 PUSH2 0x23D9 SWAP2 SWAP1 PUSH2 0x5C09 JUMP JUMPDEST PUSH2 0x395B PUSH2 0x5B57 JUMP JUMPDEST PUSH1 0x0 DUP1 PUSH1 0x0 PUSH2 0x396B DUP9 DUP7 DUP10 PUSH2 0x4584 JUMP JUMPDEST PUSH1 0xC0 DUP12 ADD SWAP3 SWAP1 SWAP3 MSTORE PUSH1 0xE0 DUP11 ADD SWAP3 SWAP1 SWAP3 MSTORE PUSH1 0x20 DUP10 ADD MLOAD SWAP2 SWAP4 POP SWAP2 POP PUSH2 0x398F SWAP1 DUP4 PUSH2 0x876 JUMP JUMPDEST PUSH1 0x20 DUP9 ADD MSTORE PUSH1 0x80 DUP8 ADD MLOAD PUSH1 0x0 SWAP1 ISZERO PUSH2 0x39BD JUMPI PUSH1 0x80 DUP9 ADD MLOAD PUSH2 0x39BA SWAP1 PUSH2 0x39B4 DUP10 DUP3 PUSH2 0x20D7 JUMP JUMPDEST SWAP1 PUSH2 0x468F JUMP JUMPDEST SWAP1 POP JUMPDEST PUSH2 0x39DD PUSH2 0x39D2 PUSH8 0xDE0B6B3A7640000 DUP4 PUSH2 0x876 JUMP JUMPDEST PUSH1 0xA0 DUP11 ADD MLOAD SWAP1 PUSH2 0x46A6 JUMP JUMPDEST PUSH1 0xA0 DUP10 ADD MSTORE POP POP PUSH1 0x80 DUP7 ADD SWAP5 SWAP1 SWAP5 MSTORE POP POP DUP3 MSTORE SWAP1 SWAP3 SWAP1 SWAP2 POP JUMP JUMPDEST PUSH1 0x0 PUSH2 0x3A01 PUSH2 0x3E26 JUMP JUMPDEST PUSH1 0x0 DUP6 PUSH2 0xFFFF AND DUP2 MSTORE PUSH1 0x20 ADD SWAP1 DUP2 MSTORE PUSH1 0x20 ADD PUSH1 0x0 KECCAK256 SWAP1 POP PUSH2 0x3A25 DUP3 PUSH1 0x0 ADD MLOAD PUSH2 0x2043 JUMP JUMPDEST DUP2 SLOAD PUSH5 0xFFFFFFFFFF NOT AND PUSH5 0xFFFFFFFFFF SWAP2 SWAP1 SWAP2 AND OR DUP2 SSTORE PUSH1 0xA0 DUP3 ADD MLOAD PUSH2 0x3A4A SWAP1 PUSH2 0x367D JUMP JUMPDEST PUSH1 0x2 DUP3 ADD DUP1 SLOAD PUSH1 0x1 PUSH1 0x1 PUSH1 0x50 SHL SUB NOT AND PUSH1 0x1 PUSH1 0x1 PUSH1 0x50 SHL SUB SWAP3 SWAP1 SWAP3 AND SWAP2 SWAP1 SWAP2 OR SWAP1 SSTORE PUSH1 0xC0 DUP3 ADD MLOAD PUSH2 0x3A7A SWAP1 PUSH2 0x367D JUMP JUMPDEST DUP2 PUSH1 0x2 ADD PUSH1 0xA PUSH2 0x100 EXP DUP2 SLOAD DUP2 PUSH1 0x1 PUSH1 0x1 PUSH1 0x50 SHL SUB MUL NOT AND SWAP1 DUP4 PUSH1 0x1 PUSH1 0x1 PUSH1 0x50 SHL SUB AND MUL OR SWAP1 SSTORE POP PUSH2 0x3AAF DUP3 PUSH1 0xE0 ADD MLOAD PUSH2 0x367D JUMP JUMPDEST DUP2 PUSH1 0x2 ADD PUSH1 0x14 PUSH2 0x100 EXP DUP2 SLOAD DUP2 PUSH1 0x1 PUSH1 0x1 PUSH1 0x50 SHL SUB MUL NOT AND SWAP1 DUP4 PUSH1 0x1 PUSH1 0x1 PUSH1 0x50 SHL SUB AND MUL OR SWAP1 SSTORE POP PUSH2 0x3AE4 DUP3 PUSH1 0x20 ADD MLOAD PUSH2 0x3E33 JUMP JUMPDEST DUP2 SLOAD PUSH1 0x1 PUSH1 0x1 PUSH1 0x58 SHL SUB SWAP2 SWAP1 SWAP2 AND PUSH1 0x1 PUSH1 0x28 SHL MUL PUSH16 0xFFFFFFFFFFFFFFFFFFFFFF0000000000 NOT SWAP1 SWAP2 AND OR DUP2 SSTORE PUSH1 0x40 DUP3 ADD MLOAD PUSH2 0x3B1E SWAP1 PUSH2 0x3E33 JUMP JUMPDEST PUSH1 0x1 DUP3 ADD DUP1 SLOAD PUSH11 0xFFFFFFFFFFFFFFFFFFFFFF NOT AND PUSH1 0x1 PUSH1 0x1 PUSH1 0x58 SHL SUB SWAP3 SWAP1 SWAP3 AND SWAP2 SWAP1 SWAP2 OR SWAP1 SSTORE PUSH1 0x80 DUP3 ADD MLOAD PUSH2 0x3B52 SWAP1 PUSH2 0x3E33 JUMP JUMPDEST DUP2 SLOAD PUSH1 0x1 PUSH1 0x1 PUSH1 0x58 SHL SUB SWAP2 SWAP1 SWAP2 AND PUSH1 0x1 PUSH1 0x80 SHL MUL PUSH11 0xFFFFFFFFFFFFFFFFFFFFFF PUSH1 0x80 SHL NOT SWAP1 SWAP2 AND OR DUP2 SSTORE PUSH1 0x60 DUP3 ADD MLOAD PUSH2 0x3B8A SWAP1 PUSH2 0x46C3 JUMP JUMPDEST DUP2 SLOAD PUSH4 0xFFFFFFFF SWAP2 SWAP1 SWAP2 AND PUSH1 0x1 PUSH1 0xD8 SHL MUL PUSH4 0xFFFFFFFF PUSH1 0xD8 SHL NOT SWAP1 SWAP2 AND OR DUP2 SSTORE DUP3 ISZERO PUSH2 0x3BD6 JUMPI PUSH1 0x0 PUSH2 0x3BBB DUP5 PUSH2 0x3C28 JUMP JUMPDEST SWAP1 POP PUSH2 0x3BC7 DUP6 DUP3 PUSH2 0x46D6 JUMP JUMPDEST PUSH2 0x3BD4 PUSH2 0xFEE DUP7 DUP4 PUSH2 0x470D JUMP JUMPDEST POP JUMPDEST DUP4 PUSH2 0xFFFF AND PUSH32 0xEF25641E225E493886510CA1AD6584FA7B442B9FEA820A29D1DE3CE27D270FD2 DUP4 PUSH1 0xA0 ADD MLOAD DUP5 PUSH1 0xC0 ADD MLOAD DUP6 PUSH1 0xE0 ADD MLOAD PUSH1 0x40 MLOAD PUSH2 0x3C1A SWAP4 SWAP3 SWAP2 SWAP1 PUSH2 0x5E68 JUMP JUMPDEST PUSH1 0x40 MLOAD DUP1 SWAP2 SUB SWAP1 LOG2 POP POP POP POP JUMP JUMPDEST PUSH1 0x0 PUSH1 0x1 PUSH1 0x1 PUSH1 0xFF SHL SUB DUP3 GT ISZERO PUSH2 0xB9D JUMPI PUSH1 0x0 DUP1 REVERT JUMPDEST PUSH1 0x0 DUP1 PUSH2 0x7A6 PUSH1 0x9 PUSH2 0x2C89 JUMP JUMPDEST PUSH1 0x0 PUSH2 0x3C56 DUP3 PUSH2 0x478D JUMP JUMPDEST SWAP1 POP PUSH1 0x0 DUP2 PUSH1 0x0 ADD PUSH1 0x18 SWAP1 SLOAD SWAP1 PUSH2 0x100 EXP SWAP1 DIV PUSH4 0xFFFFFFFF AND SWAP1 POP PUSH2 0x3C95 DUP3 DUP5 PUSH1 0x40 ADD MLOAD DUP6 PUSH1 0x60 ADD MLOAD DUP7 PUSH1 0xA0 ADD MLOAD DUP6 PUSH4 0xFFFFFFFF AND DUP9 PUSH1 0xE0 ADD MLOAD PUSH2 0x282D JUMP JUMPDEST PUSH2 0xE32 DUP3 DUP5 PUSH1 0x80 ADD MLOAD PUSH2 0x293E JUMP JUMPDEST PUSH2 0x3CAB PUSH2 0x5B36 JUMP JUMPDEST PUSH1 0x0 PUSH2 0x3CB7 DUP6 DUP6 PUSH2 0x4791 JUMP JUMPDEST SWAP1 SWAP3 POP SWAP1 POP DUP1 PUSH2 0x2818 JUMPI PUSH2 0x63F DUP6 DUP6 DUP6 PUSH2 0x4824 JUMP JUMPDEST PUSH1 0x0 DUP1 PUSH2 0x3CD9 DUP5 DUP5 PUSH2 0x2442 JUMP JUMPDEST SWAP2 POP PUSH2 0x3CE5 DUP5 DUP4 PUSH2 0x2F73 JUMP JUMPDEST SWAP1 POP PUSH1 0x0 DUP3 SLT ISZERO PUSH2 0x3364 JUMPI PUSH2 0x3D2A PUSH1 0x1 PUSH2 0x2FA1 DUP8 PUSH1 0x0 ADD MLOAD PUSH2 0x8A4 DUP10 PUSH1 0x20 ADD MLOAD PUSH2 0x3D24 DUP11 PUSH1 0x20 ADD MLOAD PUSH2 0x8A4 DUP13 PUSH1 0x0 ADD MLOAD DUP12 PUSH2 0x130C SWAP1 SWAP2 SWAP1 PUSH4 0xFFFFFFFF AND JUMP JUMPDEST SWAP1 PUSH2 0x130C JUMP JUMPDEST SWAP2 POP SWAP4 POP SWAP4 SWAP2 POP POP JUMP JUMPDEST PUSH1 0x0 PUSH2 0x3D40 DUP6 DUP6 PUSH2 0x49BD JUMP JUMPDEST SWAP1 POP PUSH1 0x0 DUP4 SLT ISZERO PUSH2 0x3D52 JUMPI PUSH1 0x1 PUSH1 0x40 SHL OR JUMPDEST PUSH1 0x0 PUSH1 0x1 PUSH1 0x1 PUSH1 0xA0 SHL SUB DUP8 AND CALLER PUSH32 0xC3D58168C5AE7397731D063D5BBF3D657854427343F4C083240F7AACAA2D0F62 DUP5 PUSH2 0x3D8A DUP9 PUSH2 0x49DB JUMP JUMPDEST PUSH1 0x40 MLOAD PUSH2 0x3D98 SWAP3 SWAP2 SWAP1 PUSH2 0x5CDC JUMP JUMPDEST PUSH1 0x40 MLOAD DUP1 SWAP2 SUB SWAP1 LOG4 PUSH1 0x0 PUSH2 0x3DAF PUSH1 0x0 DUP5 SLT DUP8 PUSH2 0x49FC JUMP JUMPDEST SWAP1 POP DUP1 PUSH1 0x1 PUSH1 0x1 PUSH1 0xA0 SHL SUB AND PUSH4 0x23DE6651 PUSH2 0x5E7 DUP10 PUSH2 0x3DCD DUP8 PUSH2 0x49DB JUMP JUMPDEST PUSH1 0x40 MLOAD DUP5 PUSH4 0xFFFFFFFF AND PUSH1 0xE0 SHL DUP2 MSTORE PUSH1 0x4 ADD PUSH2 0x3DEB SWAP4 SWAP3 SWAP2 SWAP1 PUSH2 0x5C7A JUMP JUMPDEST PUSH1 0x0 PUSH1 0x40 MLOAD DUP1 DUP4 SUB DUP2 PUSH1 0x0 DUP8 DUP1 EXTCODESIZE ISZERO DUP1 ISZERO PUSH2 0x3E05 JUMPI PUSH1 0x0 DUP1 REVERT JUMPDEST POP GAS CALL ISZERO DUP1 ISZERO PUSH2 0x3E19 JUMPI RETURNDATASIZE PUSH1 0x0 DUP1 RETURNDATACOPY RETURNDATASIZE PUSH1 0x0 REVERT JUMPDEST POP POP POP POP POP POP POP POP POP POP POP JUMP JUMPDEST PUSH1 0x0 DUP1 PUSH2 0x7A6 PUSH1 0x1D PUSH2 0x2C89 JUMP JUMPDEST PUSH1 0x0 PUSH1 0x1 PUSH1 0x1 PUSH1 0x58 SHL SUB DUP3 GT ISZERO PUSH2 0xB9D JUMPI PUSH1 0x0 DUP1 REVERT JUMPDEST PUSH1 0x0 PUSH2 0x3E53 PUSH2 0x4A5C JUMP JUMPDEST PUSH2 0xFFFF DUP6 AND PUSH1 0x0 SWAP1 DUP2 MSTORE PUSH1 0x20 SWAP2 SWAP1 SWAP2 MSTORE PUSH1 0x40 DUP2 KECCAK256 SLOAD PUSH1 0x1 PUSH1 0x1 PUSH1 0xA0 SHL SUB AND SWAP2 POP PUSH2 0x3E7B PUSH2 0x4A69 JUMP JUMPDEST PUSH2 0xFFFF DUP7 AND PUSH1 0x0 SWAP1 DUP2 MSTORE PUSH1 0x20 SWAP2 SWAP1 SWAP2 MSTORE PUSH1 0x40 SWAP1 DUP2 SWAP1 KECCAK256 SLOAD SWAP1 MLOAD PUSH4 0xAD1C095D PUSH1 0xE0 SHL DUP2 MSTORE PUSH1 0x1 PUSH1 0x1 PUSH1 0xA0 SHL SUB SWAP1 SWAP2 AND SWAP2 POP DUP2 SWAP1 PUSH4 0xAD1C095D SWAP1 PUSH2 0x3EC3 SWAP1 DUP10 SWAP1 DUP8 SWAP1 PUSH1 0x4 ADD PUSH2 0x5C9E JUMP JUMPDEST PUSH1 0x0 PUSH1 0x40 MLOAD DUP1 DUP4 SUB DUP2 PUSH1 0x0 DUP8 DUP1 EXTCODESIZE ISZERO DUP1 ISZERO PUSH2 0x3EDD JUMPI PUSH1 0x0 DUP1 REVERT JUMPDEST POP GAS CALL ISZERO DUP1 ISZERO PUSH2 0x3EF1 JUMPI RETURNDATASIZE PUSH1 0x0 DUP1 RETURNDATACOPY RETURNDATASIZE PUSH1 0x0 REVERT JUMPDEST POP POP PUSH1 0x40 MLOAD PUSH4 0xAD1C095D PUSH1 0xE0 SHL DUP2 MSTORE PUSH1 0x1 PUSH1 0x1 PUSH1 0xA0 SHL SUB DUP6 AND SWAP3 POP PUSH4 0xAD1C095D SWAP2 POP PUSH2 0x3F23 SWAP1 DUP10 SWAP1 DUP9 SWAP1 PUSH1 0x4 ADD PUSH2 0x5C9E JUMP JUMPDEST PUSH1 0x0 PUSH1 0x40 MLOAD DUP1 DUP4 SUB DUP2 PUSH1 0x0 DUP8 DUP1 EXTCODESIZE ISZERO DUP1 ISZERO PUSH2 0x3F3D JUMPI PUSH1 0x0 DUP1 REVERT JUMPDEST POP GAS CALL ISZERO DUP1 ISZERO PUSH2 0x3F51 JUMPI RETURNDATASIZE PUSH1 0x0 DUP1 RETURNDATACOPY RETURNDATASIZE PUSH1 0x0 REVERT JUMPDEST POP POP POP POP POP POP POP POP POP POP JUMP JUMPDEST DUP1 SLOAD PUSH1 0x2 DUP3 ADD SLOAD PUSH1 0x0 SWAP2 PUSH2 0x3F99 SWAP2 PUSH1 0x1 PUSH1 0x28 SHL SWAP1 SWAP2 DIV PUSH1 0x1 PUSH1 0x1 PUSH1 0x58 SHL SUB AND SWAP1 PUSH2 0x3D24 SWAP1 PUSH1 0x1 PUSH1 0x1 PUSH1 0x50 SHL SUB PUSH1 0x1 PUSH1 0x50 SHL DUP3 DIV DUP2 AND SWAP2 AND PUSH2 0x130C JUMP JUMPDEST PUSH1 0x1 DUP4 ADD SLOAD PUSH1 0x2 DUP5 ADD SLOAD SWAP2 SWAP3 POP PUSH1 0x0 SWAP2 PUSH2 0x3FD3 SWAP2 PUSH1 0x1 PUSH1 0x1 PUSH1 0x58 SHL SUB AND SWAP1 PUSH2 0x3D24 SWAP1 PUSH1 0x1 PUSH1 0x1 PUSH1 0x50 SHL SUB PUSH1 0x1 PUSH1 0xA0 SHL DUP3 DIV DUP2 AND SWAP2 AND PUSH2 0x130C JUMP JUMPDEST DUP4 SLOAD SWAP1 SWAP2 POP PUSH1 0x0 SWAP1 PUSH2 0x400A SWAP1 PUSH1 0x1 PUSH1 0x1 PUSH1 0x1 PUSH1 0x58 SHL SUB PUSH1 0x1 PUSH1 0x80 SHL SWAP1 SWAP3 DIV DUP3 AND ADD AND PUSH15 0xC097CE7BC90715B34B9F1000000000 PUSH2 0x130C JUMP JUMPDEST SWAP1 POP DUP1 PUSH2 0x4017 DUP5 DUP5 PUSH2 0x23E1 JUMP JUMPDEST SGT ISZERO PUSH2 0x2DEF JUMPI PUSH1 0x0 DUP1 REVERT JUMPDEST PUSH1 0x0 PUSH2 0x888 PUSH2 0x4035 DUP5 PUSH4 0x3B9ACA00 PUSH2 0x14BA JUMP JUMPDEST DUP4 PUSH2 0x14E1 JUMP JUMPDEST PUSH1 0x0 PUSH8 0x7FFFFFFFFFFFFFFF DUP3 GT ISZERO PUSH2 0x4052 JUMPI PUSH1 0x0 DUP1 REVERT JUMPDEST POP PUSH1 0x40 SHL SWAP1 JUMP JUMPDEST PUSH1 0x0 DUP2 PUSH1 0xF SIGNEXTEND PUSH1 0x0 EQ ISZERO PUSH2 0x406C JUMPI PUSH1 0x0 DUP1 REVERT JUMPDEST PUSH1 0x0 DUP3 PUSH1 0xF SIGNEXTEND PUSH1 0x40 DUP6 PUSH1 0xF SIGNEXTEND SWAP1 SHL DUP2 PUSH2 0x4081 JUMPI INVALID JUMPDEST SDIV SWAP1 POP PUSH1 0x1 PUSH1 0x1 PUSH1 0x7F SHL SUB NOT DUP2 SLT DUP1 ISZERO SWAP1 PUSH2 0x40A3 JUMPI POP PUSH1 0x1 PUSH1 0x1 PUSH1 0x7F SHL SUB DUP2 SGT ISZERO JUMPDEST PUSH2 0x888 JUMPI PUSH1 0x0 DUP1 REVERT JUMPDEST PUSH1 0x0 PUSH1 0xF DUP3 SWAP1 SIGNEXTEND PUSH1 0x1 PUSH1 0x1 PUSH1 0x7F SHL SUB NOT EQ ISZERO PUSH2 0x40C7 JUMPI PUSH1 0x0 DUP1 REVERT JUMPDEST POP PUSH1 0x0 SUB SWAP1 JUMP JUMPDEST PUSH1 0x0 PUSH1 0x1 PUSH1 0x46 SHL DUP3 PUSH1 0xF SIGNEXTEND SLT PUSH2 0x40E3 JUMPI PUSH1 0x0 DUP1 REVERT JUMPDEST PUSH9 0x3FFFFFFFFFFFFFFFFF NOT DUP3 PUSH1 0xF SIGNEXTEND SLT ISZERO PUSH2 0x4100 JUMPI POP PUSH1 0x0 PUSH2 0x850 JUMP JUMPDEST PUSH2 0x7A6 PUSH1 0x80 DUP4 PUSH1 0xF SIGNEXTEND PUSH17 0x171547652B82FE1777D0FFDA0D23A7D12 MUL SWAP1 SAR PUSH2 0x4A76 JUMP JUMPDEST PUSH1 0x0 PUSH1 0xF DUP4 DUP2 SIGNEXTEND SWAP1 DUP4 SWAP1 SIGNEXTEND MUL PUSH1 0x40 SAR PUSH1 0x1 PUSH1 0x1 PUSH1 0x7F SHL SUB NOT DUP2 SLT DUP1 ISZERO SWAP1 PUSH2 0x40A3 JUMPI POP PUSH1 0x1 PUSH1 0x1 PUSH1 0x7F SHL SUB DUP2 SGT ISZERO PUSH2 0x888 JUMPI PUSH1 0x0 DUP1 REVERT JUMPDEST PUSH1 0xF SIGNEXTEND PUSH1 0x40 SAR SWAP1 JUMP JUMPDEST PUSH1 0x0 DUP2 PUSH1 0xFF AND PUSH1 0x96 LT PUSH2 0x417D JUMPI PUSH1 0xFF DUP3 AND PUSH3 0x2625A0 MUL PUSH2 0x7A6 JUMP JUMPDEST POP PUSH1 0x95 NOT PUSH1 0xFF SWAP2 SWAP1 SWAP2 AND ADD PUSH3 0xE4E1C0 MUL PUSH4 0x165A0BC0 ADD SWAP1 JUMP JUMPDEST PUSH1 0x40 DUP1 MLOAD PUSH1 0x2 DUP1 DUP3 MSTORE PUSH1 0x60 DUP3 DUP2 ADD SWAP1 SWAP4 MSTORE DUP3 SWAP2 PUSH1 0x0 SWAP2 DUP2 PUSH1 0x20 ADD PUSH1 0x20 DUP3 MUL DUP1 CALLDATASIZE DUP4 CALLDATACOPY ADD SWAP1 POP POP SWAP1 POP PUSH1 0x0 PUSH2 0x41CA DUP8 DUP8 PUSH2 0x49BD JUMP JUMPDEST SWAP1 POP DUP1 DUP3 PUSH1 0x0 DUP2 MLOAD DUP2 LT PUSH2 0x41DA JUMPI INVALID JUMPDEST PUSH1 0x20 MUL PUSH1 0x20 ADD ADD DUP2 DUP2 MSTORE POP POP PUSH1 0x1 PUSH1 0x40 SHL DUP2 OR DUP3 PUSH1 0x1 DUP2 MLOAD DUP2 LT PUSH2 0x41FA JUMPI INVALID JUMPDEST PUSH1 0x20 SWAP1 DUP2 MUL SWAP2 SWAP1 SWAP2 ADD ADD MSTORE PUSH1 0x40 DUP1 MLOAD PUSH1 0x2 DUP1 DUP3 MSTORE PUSH1 0x60 DUP3 ADD SWAP1 SWAP3 MSTORE PUSH1 0x0 SWAP2 DUP2 PUSH1 0x20 ADD PUSH1 0x20 DUP3 MUL DUP1 CALLDATASIZE DUP4 CALLDATACOPY ADD SWAP1 POP POP SWAP1 POP PUSH2 0x4233 DUP7 PUSH2 0x49DB JUMP JUMPDEST DUP2 PUSH1 0x0 DUP2 MLOAD DUP2 LT PUSH2 0x4240 JUMPI INVALID JUMPDEST PUSH1 0x20 MUL PUSH1 0x20 ADD ADD DUP2 DUP2 MSTORE POP POP PUSH2 0x4255 DUP7 PUSH2 0x49DB JUMP JUMPDEST DUP2 PUSH1 0x1 DUP2 MLOAD DUP2 LT PUSH2 0x4262 JUMPI INVALID JUMPDEST PUSH1 0x20 SWAP1 DUP2 MUL SWAP2 SWAP1 SWAP2 ADD ADD MSTORE SWAP2 SWAP8 SWAP2 SWAP7 POP SWAP1 SWAP5 POP POP POP POP POP JUMP JUMPDEST PUSH1 0x60 PUSH1 0x8 DUP3 PUSH1 0xFF AND GT ISZERO PUSH2 0x428E JUMPI PUSH1 0x0 DUP1 REVERT JUMPDEST PUSH1 0x0 PUSH2 0x4298 PUSH2 0x1A1C JUMP JUMPDEST PUSH1 0x1 PUSH1 0x1 PUSH1 0xA0 SHL SUB DUP6 AND PUSH1 0x0 SWAP1 DUP2 MSTORE PUSH1 0x20 DUP3 SWAP1 MSTORE PUSH1 0x40 DUP2 KECCAK256 SWAP2 SWAP3 POP PUSH1 0xFF DUP6 AND PUSH8 0xFFFFFFFFFFFFFFFF DUP2 GT DUP1 ISZERO PUSH2 0x42CD JUMPI PUSH1 0x0 DUP1 REVERT JUMPDEST POP PUSH1 0x40 MLOAD SWAP1 DUP1 DUP3 MSTORE DUP1 PUSH1 0x20 MUL PUSH1 0x20 ADD DUP3 ADD PUSH1 0x40 MSTORE DUP1 ISZERO PUSH2 0x4307 JUMPI DUP2 PUSH1 0x20 ADD JUMPDEST PUSH2 0x42F4 PUSH2 0x5AF2 JUMP JUMPDEST DUP2 MSTORE PUSH1 0x20 ADD SWAP1 PUSH1 0x1 SWAP1 SUB SWAP1 DUP2 PUSH2 0x42EC JUMPI SWAP1 POP JUMPDEST POP SWAP1 POP PUSH1 0x0 JUMPDEST DUP6 PUSH1 0xFF AND DUP2 LT ISZERO PUSH2 0x63D JUMPI PUSH1 0x0 DUP4 DUP3 PUSH1 0x8 DUP2 LT PUSH2 0x4326 JUMPI INVALID JUMPDEST ADD SWAP1 POP PUSH1 0x0 DUP4 DUP4 DUP2 MLOAD DUP2 LT PUSH2 0x4337 JUMPI INVALID JUMPDEST PUSH1 0x20 SWAP1 DUP2 MUL SWAP2 SWAP1 SWAP2 ADD DUP2 ADD MLOAD DUP4 SLOAD PUSH2 0xFFFF DUP2 AND DUP3 MSTORE PUSH5 0xFFFFFFFFFF PUSH3 0x10000 DUP3 DIV AND SWAP3 DUP3 ADD SWAP3 SWAP1 SWAP3 MSTORE PUSH1 0xFF PUSH1 0x1 PUSH1 0x38 SHL DUP4 DIV AND PUSH1 0x40 DUP3 ADD MSTORE PUSH1 0x1 PUSH1 0x40 SHL SWAP1 SWAP2 DIV PUSH1 0xA SWAP1 DUP2 SIGNEXTEND SWAP1 SIGNEXTEND PUSH1 0x60 DUP3 ADD MSTORE PUSH1 0x80 ADD SWAP2 SWAP1 SWAP2 MSTORE POP PUSH1 0x1 ADD PUSH2 0x430D JUMP JUMPDEST DUP1 MLOAD PUSH1 0x60 SWAP1 DUP1 PUSH8 0xFFFFFFFFFFFFFFFF DUP2 GT DUP1 ISZERO PUSH2 0x43AF JUMPI PUSH1 0x0 DUP1 REVERT JUMPDEST POP PUSH1 0x40 MLOAD SWAP1 DUP1 DUP3 MSTORE DUP1 PUSH1 0x20 MUL PUSH1 0x20 ADD DUP3 ADD PUSH1 0x40 MSTORE DUP1 ISZERO PUSH2 0x43D9 JUMPI DUP2 PUSH1 0x20 ADD PUSH1 0x20 DUP3 MUL DUP1 CALLDATASIZE DUP4 CALLDATACOPY ADD SWAP1 POP JUMPDEST POP SWAP2 POP PUSH1 0x0 JUMPDEST DUP2 DUP2 LT ISZERO PUSH2 0x4436 JUMPI PUSH1 0x0 DUP5 DUP3 DUP2 MLOAD DUP2 LT PUSH2 0x43F5 JUMPI INVALID JUMPDEST PUSH1 0x20 MUL PUSH1 0x20 ADD ADD MLOAD SWAP1 POP PUSH2 0x4416 DUP2 PUSH1 0x0 ADD MLOAD DUP3 PUSH1 0x20 ADD MLOAD DUP4 PUSH1 0x40 ADD MLOAD PUSH2 0x5526 JUMP JUMPDEST DUP5 DUP4 DUP2 MLOAD DUP2 LT PUSH2 0x4422 JUMPI INVALID JUMPDEST PUSH1 0x20 SWAP1 DUP2 MUL SWAP2 SWAP1 SWAP2 ADD ADD MSTORE POP PUSH1 0x1 ADD PUSH2 0x43DF JUMP JUMPDEST POP PUSH1 0x1 JUMPDEST DUP2 DUP2 LT ISZERO PUSH2 0x454D JUMPI DUP1 JUMPDEST PUSH1 0x0 DUP2 GT DUP1 ISZERO PUSH2 0x447C JUMPI POP DUP4 DUP2 DUP2 MLOAD DUP2 LT PUSH2 0x445B JUMPI INVALID JUMPDEST PUSH1 0x20 MUL PUSH1 0x20 ADD ADD MLOAD DUP5 PUSH1 0x1 DUP4 SUB DUP2 MLOAD DUP2 LT PUSH2 0x4472 JUMPI INVALID JUMPDEST PUSH1 0x20 MUL PUSH1 0x20 ADD ADD MLOAD GT JUMPDEST ISZERO PUSH2 0x4544 JUMPI DUP4 DUP2 DUP2 MLOAD DUP2 LT PUSH2 0x448D JUMPI INVALID JUMPDEST PUSH1 0x20 MUL PUSH1 0x20 ADD ADD MLOAD DUP5 PUSH1 0x1 DUP4 SUB DUP2 MLOAD DUP2 LT PUSH2 0x44A4 JUMPI INVALID JUMPDEST PUSH1 0x20 MUL PUSH1 0x20 ADD ADD MLOAD DUP6 PUSH1 0x1 DUP5 SUB DUP2 MLOAD DUP2 LT PUSH2 0x44BB JUMPI INVALID JUMPDEST PUSH1 0x20 MUL PUSH1 0x20 ADD ADD DUP7 DUP5 DUP2 MLOAD DUP2 LT PUSH2 0x44CE JUMPI INVALID JUMPDEST PUSH1 0x20 MUL PUSH1 0x20 ADD ADD DUP3 DUP2 MSTORE POP DUP3 DUP2 MSTORE POP POP POP DUP5 DUP2 DUP2 MLOAD DUP2 LT PUSH2 0x44EB JUMPI INVALID JUMPDEST PUSH1 0x20 MUL PUSH1 0x20 ADD ADD MLOAD DUP6 PUSH1 0x1 DUP4 SUB DUP2 MLOAD DUP2 LT PUSH2 0x4502 JUMPI INVALID JUMPDEST PUSH1 0x20 MUL PUSH1 0x20 ADD ADD MLOAD DUP7 PUSH1 0x1 DUP5 SUB DUP2 MLOAD DUP2 LT PUSH2 0x4519 JUMPI INVALID JUMPDEST PUSH1 0x20 MUL PUSH1 0x20 ADD ADD DUP8 DUP5 DUP2 MLOAD DUP2 LT PUSH2 0x452C JUMPI INVALID JUMPDEST PUSH1 0x20 SWAP1 DUP2 MUL SWAP2 SWAP1 SWAP2 ADD ADD SWAP2 SWAP1 SWAP2 MSTORE MSTORE PUSH1 0x0 NOT ADD PUSH2 0x4444 JUMP JUMPDEST POP PUSH1 0x1 ADD PUSH2 0x443A JUMP JUMPDEST POP POP SWAP2 SWAP1 POP JUMP JUMPDEST PUSH1 0x0 DUP1 PUSH2 0x455F PUSH2 0x554F JUMP JUMPDEST PUSH2 0xFFFF SWAP4 SWAP1 SWAP4 AND PUSH1 0x0 SWAP1 DUP2 MSTORE PUSH1 0x20 SWAP4 SWAP1 SWAP4 MSTORE POP POP PUSH1 0x40 SWAP1 KECCAK256 SLOAD PUSH1 0x1 PUSH1 0x1 PUSH1 0xA0 SHL SUB AND SWAP1 JUMP JUMPDEST PUSH1 0x0 DUP1 PUSH1 0x0 DUP1 PUSH1 0x0 DUP1 PUSH2 0x4597 DUP10 DUP9 PUSH2 0x555C JUMP JUMPDEST DUP10 MLOAD SWAP1 SWAP6 POP SWAP2 SWAP4 POP SWAP2 POP PUSH1 0x0 SWAP1 PUSH2 0x45BE SWAP1 PUSH2 0x45B3 SWAP1 DUP12 SWAP1 PUSH2 0x20D7 JUMP JUMPDEST PUSH4 0x3B9ACA00 SWAP1 PUSH2 0x14BA JUMP JUMPDEST SWAP1 POP PUSH2 0x45F8 PUSH2 0x45ED PUSH4 0x1DA9C00 PUSH2 0x45D5 DUP6 DUP6 PUSH2 0x14BA JUMP JUMPDEST DUP2 PUSH2 0x45DC JUMPI INVALID JUMPDEST PUSH8 0xDE0B6B3A7640000 SWAP2 SWAP1 DIV PUSH2 0x876 JUMP JUMPDEST PUSH1 0xE0 DUP11 ADD MLOAD SWAP1 PUSH2 0x46A6 JUMP JUMPDEST SWAP7 POP PUSH2 0x461A PUSH2 0x460F PUSH4 0x1DA9C00 PUSH2 0x45D5 DUP8 DUP6 PUSH2 0x14BA JUMP JUMPDEST PUSH1 0xC0 DUP11 ADD MLOAD SWAP1 PUSH2 0x46A6 JUMP JUMPDEST SWAP6 POP DUP2 DUP4 EQ ISZERO PUSH2 0x4631 JUMPI POP PUSH1 0x0 SWAP4 POP PUSH2 0x4686 SWAP2 POP POP JUMP JUMPDEST PUSH1 0x0 PUSH2 0x4653 PUSH2 0x4648 PUSH4 0x1DA9C00 PUSH2 0x45D5 DUP8 DUP7 PUSH2 0x14BA JUMP JUMPDEST PUSH1 0xE0 DUP12 ADD MLOAD SWAP1 PUSH2 0x46A6 JUMP JUMPDEST SWAP1 POP PUSH1 0x0 PUSH2 0x4661 DUP10 DUP4 PUSH2 0x20D7 JUMP JUMPDEST SWAP1 POP PUSH2 0x467E DUP9 PUSH2 0x967 DUP4 DUP14 PUSH1 0x40 ADD MLOAD PUSH2 0x14BA SWAP1 SWAP2 SWAP1 PUSH4 0xFFFFFFFF AND JUMP JUMPDEST SWAP7 POP POP POP POP POP POP JUMPDEST SWAP4 POP SWAP4 POP SWAP4 POP SWAP4 JUMP JUMPDEST PUSH1 0x0 PUSH2 0x888 PUSH2 0x4035 DUP5 PUSH8 0xDE0B6B3A7640000 PUSH2 0x14BA JUMP JUMPDEST PUSH1 0x0 PUSH2 0x888 PUSH2 0x46B5 DUP5 DUP5 PUSH2 0x14BA JUMP JUMPDEST PUSH8 0xDE0B6B3A7640000 PUSH2 0x14E1 JUMP JUMPDEST PUSH1 0x0 PUSH4 0xFFFFFFFF DUP3 GT ISZERO PUSH2 0xB9D JUMPI PUSH1 0x0 DUP1 REVERT JUMPDEST PUSH1 0x0 DUP2 SLT ISZERO PUSH2 0x46E4 JUMPI PUSH1 0x0 DUP1 REVERT JUMPDEST PUSH1 0x0 PUSH2 0x46F2 PUSH2 0xFEE DUP5 PUSH2 0x1C2D JUMP JUMPDEST SWAP1 POP PUSH2 0x46FE DUP2 DUP4 PUSH2 0x1F62 JUMP JUMPDEST SWAP1 POP PUSH2 0xE32 PUSH2 0xFEE DUP5 DUP4 PUSH2 0x1A29 JUMP JUMPDEST PUSH1 0x0 PUSH2 0x4717 PUSH2 0x4A5C JUMP JUMPDEST PUSH2 0xFFFF DUP5 AND PUSH1 0x0 SWAP1 DUP2 MSTORE PUSH1 0x20 SWAP2 SWAP1 SWAP2 MSTORE PUSH1 0x40 SWAP1 DUP2 SWAP1 KECCAK256 SLOAD SWAP1 MLOAD PUSH4 0xAD1C095D PUSH1 0xE0 SHL DUP2 MSTORE PUSH1 0x1 PUSH1 0x1 PUSH1 0xA0 SHL SUB SWAP1 SWAP2 AND SWAP2 POP DUP2 SWAP1 PUSH4 0xAD1C095D SWAP1 PUSH2 0x475F SWAP1 DUP8 SWAP1 DUP7 SWAP1 PUSH1 0x4 ADD PUSH2 0x5C9E JUMP JUMPDEST PUSH1 0x0 PUSH1 0x40 MLOAD DUP1 DUP4 SUB DUP2 PUSH1 0x0 DUP8 DUP1 EXTCODESIZE ISZERO DUP1 ISZERO PUSH2 0x4779 JUMPI PUSH1 0x0 DUP1 REVERT JUMPDEST POP GAS CALL ISZERO DUP1 ISZERO PUSH2 0x31A5 JUMPI RETURNDATASIZE PUSH1 0x0 DUP1 RETURNDATACOPY RETURNDATASIZE PUSH1 0x0 REVERT JUMPDEST MLOAD SWAP1 JUMP JUMPDEST PUSH2 0x4799 PUSH2 0x5B36 JUMP JUMPDEST PUSH1 0x0 DUP1 PUSH2 0x47A4 PUSH2 0x55F7 JUMP JUMPDEST PUSH2 0xFFFF DUP7 AND PUSH1 0x0 SWAP1 DUP2 MSTORE PUSH1 0x20 DUP3 DUP2 MSTORE PUSH1 0x40 DUP1 DUP4 KECCAK256 DUP9 DUP5 MSTORE SWAP1 SWAP2 MSTORE SWAP1 KECCAK256 DUP1 SLOAD PUSH1 0x1 PUSH1 0xF0 SHL SWAP1 DIV PUSH1 0xFF AND SWAP4 POP SWAP1 SWAP2 POP DUP3 ISZERO PUSH2 0x481B JUMPI DUP1 SLOAD PUSH1 0x1 PUSH1 0x1 PUSH1 0x50 SHL SUB PUSH1 0x1 PUSH1 0xA0 SHL DUP3 DIV DUP2 AND SWAP2 PUSH2 0x47F6 SWAP2 AND DUP3 PUSH2 0x14BA JUMP JUMPDEST DUP6 MSTORE DUP2 SLOAD PUSH2 0x4814 SWAP1 PUSH1 0x1 PUSH1 0x50 SHL SWAP1 DIV PUSH1 0x1 PUSH1 0x1 PUSH1 0x50 SHL SUB AND DUP3 PUSH2 0x14BA JUMP JUMPDEST PUSH1 0x20 DUP7 ADD MSTORE POP JUMPDEST POP POP SWAP3 POP SWAP3 SWAP1 POP JUMP JUMPDEST PUSH2 0x482C PUSH2 0x5B36 JUMP JUMPDEST PUSH2 0x4836 DUP5 DUP4 PUSH2 0x2CFE JUMP JUMPDEST SWAP1 POP PUSH1 0x0 PUSH2 0x4843 DUP6 PUSH2 0x380E JUMP JUMPDEST SWAP1 POP PUSH1 0x0 PUSH2 0x484F PUSH2 0x55F7 JUMP JUMPDEST PUSH2 0xFFFF DUP8 AND PUSH1 0x0 SWAP1 DUP2 MSTORE PUSH1 0x20 DUP3 DUP2 MSTORE PUSH1 0x40 DUP1 DUP4 KECCAK256 DUP10 DUP5 MSTORE SWAP1 SWAP2 MSTORE SWAP1 KECCAK256 SWAP1 SWAP2 POP DUP6 PUSH2 0x4878 JUMPI PUSH1 0x0 DUP1 REVERT JUMPDEST DUP3 MLOAD DUP6 EQ PUSH2 0x4885 JUMPI PUSH1 0x0 DUP1 REVERT JUMPDEST DUP5 PUSH1 0x0 LT PUSH2 0x4892 JUMPI PUSH1 0x0 DUP1 REVERT JUMPDEST DUP5 DUP7 GT ISZERO PUSH2 0x489F JUMPI PUSH1 0x0 DUP1 REVERT JUMPDEST DUP4 MLOAD PUSH1 0x0 SLT PUSH2 0x48AD JUMPI PUSH1 0x0 DUP1 REVERT JUMPDEST DUP4 PUSH1 0x20 ADD MLOAD PUSH1 0x0 SLT PUSH2 0x48BE JUMPI PUSH1 0x0 DUP1 REVERT JUMPDEST PUSH2 0x48CB DUP4 PUSH1 0xA0 ADD MLOAD PUSH2 0x367D JUMP JUMPDEST DUP2 SLOAD PUSH1 0x1 PUSH1 0x1 PUSH1 0x50 SHL SUB SWAP2 SWAP1 SWAP2 AND PUSH1 0x1 PUSH1 0xA0 SHL MUL PUSH10 0xFFFFFFFFFFFFFFFFFFFF PUSH1 0xA0 SHL NOT SWAP1 SWAP2 AND OR DUP2 SSTORE PUSH1 0xC0 DUP4 ADD MLOAD PUSH2 0x4902 SWAP1 PUSH2 0x367D JUMP JUMPDEST DUP2 SLOAD PUSH1 0x1 PUSH1 0x1 PUSH1 0x50 SHL SUB NOT AND PUSH1 0x1 PUSH1 0x1 PUSH1 0x50 SHL SUB SWAP2 SWAP1 SWAP2 AND OR DUP2 SSTORE PUSH1 0xE0 DUP4 ADD MLOAD PUSH2 0x492B SWAP1 PUSH2 0x367D JUMP JUMPDEST DUP2 SLOAD PUSH1 0xFF PUSH1 0xF0 SHL NOT PUSH1 0x1 PUSH1 0x1 PUSH1 0x50 SHL SUB SWAP3 SWAP1 SWAP3 AND PUSH1 0x1 PUSH1 0x50 SHL MUL PUSH10 0xFFFFFFFFFFFFFFFFFFFF PUSH1 0x50 SHL NOT SWAP1 SWAP2 AND OR AND PUSH1 0x1 PUSH1 0xF0 SHL OR DUP2 SSTORE PUSH2 0x496C DUP8 DUP8 DUP7 PUSH2 0x5604 JUMP JUMPDEST DUP6 DUP8 PUSH2 0xFFFF AND PUSH32 0x29FD83C1093C9721D6046038C76B6BDDF0DC0C5DAC3ECBFA23F8EB994EC61613 DUP7 PUSH1 0x0 ADD MLOAD DUP8 PUSH1 0x20 ADD MLOAD PUSH1 0x40 MLOAD PUSH2 0x49AB SWAP3 SWAP2 SWAP1 PUSH2 0x5CDC JUMP JUMPDEST PUSH1 0x40 MLOAD DUP1 SWAP2 SUB SWAP1 LOG3 POP POP POP SWAP4 SWAP3 POP POP POP JUMP JUMPDEST PUSH8 0xFFFF000000000000 PUSH1 0x30 DUP4 SWAP1 SHL AND PUSH1 0x8 DUP3 SWAP1 SHL OR PUSH1 0x1 OR SWAP3 SWAP2 POP POP JUMP JUMPDEST PUSH1 0x0 DUP1 DUP3 SLT ISZERO PUSH2 0x49F5 JUMPI PUSH2 0x49EE DUP3 PUSH2 0x15C5 JUMP JUMPDEST SWAP1 POP PUSH2 0x850 JUMP JUMPDEST POP DUP1 PUSH2 0x850 JUMP JUMPDEST PUSH1 0x0 DUP3 PUSH2 0x4A2E JUMPI PUSH2 0x4A0B PUSH2 0x4A5C JUMP JUMPDEST PUSH2 0xFFFF DUP4 AND PUSH1 0x0 SWAP1 DUP2 MSTORE PUSH1 0x20 SWAP2 SWAP1 SWAP2 MSTORE PUSH1 0x40 SWAP1 KECCAK256 SLOAD PUSH1 0x1 PUSH1 0x1 PUSH1 0xA0 SHL SUB AND PUSH2 0x888 JUMP JUMPDEST PUSH2 0x4A36 PUSH2 0x4A69 JUMP JUMPDEST PUSH2 0xFFFF DUP4 AND PUSH1 0x0 SWAP1 DUP2 MSTORE PUSH1 0x20 SWAP2 SWAP1 SWAP2 MSTORE PUSH1 0x40 SWAP1 KECCAK256 SLOAD PUSH1 0x1 PUSH1 0x1 PUSH1 0xA0 SHL SUB AND SWAP1 POP SWAP3 SWAP2 POP POP JUMP JUMPDEST PUSH1 0x0 DUP1 PUSH2 0x7A6 PUSH1 0x21 PUSH2 0x2C89 JUMP JUMPDEST PUSH1 0x0 DUP1 PUSH2 0x7A6 PUSH1 0x22 PUSH2 0x2C89 JUMP JUMPDEST PUSH1 0x0 PUSH1 0x1 PUSH1 0x46 SHL DUP3 PUSH1 0xF SIGNEXTEND SLT PUSH2 0x4A8B JUMPI PUSH1 0x0 DUP1 REVERT JUMPDEST PUSH9 0x3FFFFFFFFFFFFFFFFF NOT DUP3 PUSH1 0xF SIGNEXTEND SLT ISZERO PUSH2 0x4AA8 JUMPI POP PUSH1 0x0 PUSH2 0x850 JUMP JUMPDEST PUSH1 0x1 PUSH1 0x7F SHL PUSH1 0x0 PUSH8 0x8000000000000000 DUP5 AND PUSH1 0xF SIGNEXTEND SGT ISZERO PUSH2 0x4ADA JUMPI PUSH17 0x16A09E667F3BCC908B2FB1366EA957D3E MUL PUSH1 0x80 SHR JUMPDEST PUSH1 0x0 DUP4 PUSH8 0x4000000000000000 AND PUSH1 0xF SIGNEXTEND SGT ISZERO PUSH2 0x4B07 JUMPI PUSH17 0x1306FE0A31B7152DE8D5A46305C85EDEC MUL PUSH1 0x80 SHR JUMPDEST PUSH1 0x0 DUP4 PUSH8 0x2000000000000000 AND PUSH1 0xF SIGNEXTEND SGT ISZERO PUSH2 0x4B34 JUMPI PUSH17 0x1172B83C7D517ADCDF7C8C50EB14A791F MUL PUSH1 0x80 SHR JUMPDEST PUSH1 0x0 DUP4 PUSH8 0x1000000000000000 AND PUSH1 0xF SIGNEXTEND SGT ISZERO PUSH2 0x4B61 JUMPI PUSH17 0x10B5586CF9890F6298B92B71842A98363 MUL PUSH1 0x80 SHR JUMPDEST PUSH1 0x0 DUP4 PUSH8 0x800000000000000 AND PUSH1 0xF SIGNEXTEND SGT ISZERO PUSH2 0x4B8E JUMPI PUSH17 0x1059B0D31585743AE7C548EB68CA417FD MUL PUSH1 0x80 SHR JUMPDEST PUSH1 0x0 DUP4 PUSH8 0x400000000000000 AND PUSH1 0xF SIGNEXTEND SGT ISZERO PUSH2 0x4BBB JUMPI PUSH17 0x102C9A3E778060EE6F7CACA4F7A29BDE8 MUL PUSH1 0x80 SHR JUMPDEST PUSH1 0x0 DUP4 PUSH8 0x200000000000000 AND PUSH1 0xF SIGNEXTEND SGT ISZERO PUSH2 0x4BE8 JUMPI PUSH17 0x10163DA9FB33356D84A66AE336DCDFA3F MUL PUSH1 0x80 SHR JUMPDEST PUSH1 0x0 DUP4 PUSH1 0x1 PUSH1 0x38 SHL AND PUSH1 0xF SIGNEXTEND SGT ISZERO PUSH2 0x4C11 JUMPI PUSH17 0x100B1AFA5ABCBED6129AB13EC11DC9543 MUL PUSH1 0x80 SHR JUMPDEST PUSH1 0x0 DUP4 PUSH7 0x80000000000000 AND PUSH1 0xF SIGNEXTEND SGT ISZERO PUSH2 0x4C3D JUMPI PUSH17 0x10058C86DA1C09EA1FF19D294CF2F679B MUL PUSH1 0x80 SHR JUMPDEST PUSH1 0x0 DUP4 PUSH7 0x40000000000000 AND PUSH1 0xF SIGNEXTEND SGT ISZERO PUSH2 0x4C69 JUMPI PUSH17 0x1002C605E2E8CEC506D21BFC89A23A00F MUL PUSH1 0x80 SHR JUMPDEST PUSH1 0x0 DUP4 PUSH7 0x20000000000000 AND PUSH1 0xF SIGNEXTEND SGT ISZERO PUSH2 0x4C95 JUMPI PUSH17 0x100162F3904051FA128BCA9C55C31E5DF MUL PUSH1 0x80 SHR JUMPDEST PUSH1 0x0 DUP4 PUSH7 0x10000000000000 AND PUSH1 0xF SIGNEXTEND SGT ISZERO PUSH2 0x4CC1 JUMPI PUSH17 0x1000B175EFFDC76BA38E31671CA939725 MUL PUSH1 0x80 SHR JUMPDEST PUSH1 0x0 DUP4 PUSH7 0x8000000000000 AND PUSH1 0xF SIGNEXTEND SGT ISZERO PUSH2 0x4CED JUMPI PUSH17 0x100058BA01FB9F96D6CACD4B180917C3D MUL PUSH1 0x80 SHR JUMPDEST PUSH1 0x0 DUP4 PUSH7 0x4000000000000 AND PUSH1 0xF SIGNEXTEND SGT ISZERO PUSH2 0x4D19 JUMPI PUSH17 0x10002C5CC37DA9491D0985C348C68E7B3 MUL PUSH1 0x80 SHR JUMPDEST PUSH1 0x0 DUP4 PUSH7 0x2000000000000 AND PUSH1 0xF SIGNEXTEND SGT ISZERO PUSH2 0x4D45 JUMPI PUSH17 0x1000162E525EE054754457D5995292026 MUL PUSH1 0x80 SHR JUMPDEST PUSH1 0x0 DUP4 PUSH1 0x1 PUSH1 0x30 SHL AND PUSH1 0xF SIGNEXTEND SGT ISZERO PUSH2 0x4D6E JUMPI PUSH17 0x10000B17255775C040618BF4A4ADE83FC MUL PUSH1 0x80 SHR JUMPDEST PUSH1 0x0 DUP4 PUSH6 0x800000000000 AND PUSH1 0xF SIGNEXTEND SGT ISZERO PUSH2 0x4D99 JUMPI PUSH17 0x1000058B91B5BC9AE2EED81E9B7D4CFAB MUL PUSH1 0x80 SHR JUMPDEST PUSH1 0x0 DUP4 PUSH6 0x400000000000 AND PUSH1 0xF SIGNEXTEND SGT ISZERO PUSH2 0x4DC4 JUMPI PUSH17 0x100002C5C89D5EC6CA4D7C8ACC017B7C9 MUL PUSH1 0x80 SHR JUMPDEST PUSH1 0x0 DUP4 PUSH6 0x200000000000 AND PUSH1 0xF SIGNEXTEND SGT ISZERO PUSH2 0x4DEF JUMPI PUSH17 0x10000162E43F4F831060E02D839A9D16D MUL PUSH1 0x80 SHR JUMPDEST PUSH1 0x0 DUP4 PUSH6 0x100000000000 AND PUSH1 0xF SIGNEXTEND SGT ISZERO PUSH2 0x4E1A JUMPI PUSH17 0x100000B1721BCFC99D9F890EA06911763 MUL PUSH1 0x80 SHR JUMPDEST PUSH1 0x0 DUP4 PUSH6 0x80000000000 AND PUSH1 0xF SIGNEXTEND SGT ISZERO PUSH2 0x4E45 JUMPI PUSH17 0x10000058B90CF1E6D97F9CA14DBCC1628 MUL PUSH1 0x80 SHR JUMPDEST PUSH1 0x0 DUP4 PUSH6 0x40000000000 AND PUSH1 0xF SIGNEXTEND SGT ISZERO PUSH2 0x4E70 JUMPI PUSH17 0x1000002C5C863B73F016468F6BAC5CA2B MUL PUSH1 0x80 SHR JUMPDEST PUSH1 0x0 DUP4 PUSH6 0x20000000000 AND PUSH1 0xF SIGNEXTEND SGT ISZERO PUSH2 0x4E9B JUMPI PUSH17 0x100000162E430E5A18F6119E3C02282A5 MUL PUSH1 0x80 SHR JUMPDEST PUSH1 0x0 DUP4 PUSH1 0x1 PUSH1 0x28 SHL AND PUSH1 0xF SIGNEXTEND SGT ISZERO PUSH2 0x4EC4 JUMPI PUSH17 0x1000000B1721835514B86E6D96EFD1BFE MUL PUSH1 0x80 SHR JUMPDEST PUSH1 0x0 DUP4 PUSH5 0x8000000000 AND PUSH1 0xF SIGNEXTEND SGT ISZERO PUSH2 0x4EEE JUMPI PUSH17 0x100000058B90C0B48C6BE5DF846C5B2EF MUL PUSH1 0x80 SHR JUMPDEST PUSH1 0x0 DUP4 PUSH5 0x4000000000 AND PUSH1 0xF SIGNEXTEND SGT ISZERO PUSH2 0x4F18 JUMPI PUSH17 0x10000002C5C8601CC6B9E94213C72737A MUL PUSH1 0x80 SHR JUMPDEST PUSH1 0x0 DUP4 PUSH5 0x2000000000 AND PUSH1 0xF SIGNEXTEND SGT ISZERO PUSH2 0x4F42 JUMPI PUSH17 0x1000000162E42FFF037DF38AA2B219F06 MUL PUSH1 0x80 SHR JUMPDEST PUSH1 0x0 DUP4 PUSH5 0x1000000000 AND PUSH1 0xF SIGNEXTEND SGT ISZERO PUSH2 0x4F6C JUMPI PUSH17 0x10000000B17217FBA9C739AA5819F44F9 MUL PUSH1 0x80 SHR JUMPDEST PUSH1 0x0 DUP4 PUSH5 0x800000000 AND PUSH1 0xF SIGNEXTEND SGT ISZERO PUSH2 0x4F96 JUMPI PUSH17 0x1000000058B90BFCDEE5ACD3C1CEDC823 MUL PUSH1 0x80 SHR JUMPDEST PUSH1 0x0 DUP4 PUSH5 0x400000000 AND PUSH1 0xF SIGNEXTEND SGT ISZERO PUSH2 0x4FC0 JUMPI PUSH17 0x100000002C5C85FE31F35A6A30DA1BE50 MUL PUSH1 0x80 SHR JUMPDEST PUSH1 0x0 DUP4 PUSH5 0x200000000 AND PUSH1 0xF SIGNEXTEND SGT ISZERO PUSH2 0x4FEA JUMPI PUSH17 0x10000000162E42FF0999CE3541B9FFFCF MUL PUSH1 0x80 SHR JUMPDEST PUSH1 0x0 DUP4 PUSH5 0x100000000 AND PUSH1 0xF SIGNEXTEND SGT ISZERO PUSH2 0x5014 JUMPI PUSH17 0x100000000B17217F80F4EF5AADDA45554 MUL PUSH1 0x80 SHR JUMPDEST PUSH1 0x0 DUP4 PUSH4 0x80000000 AND PUSH1 0xF SIGNEXTEND SGT ISZERO PUSH2 0x503D JUMPI PUSH17 0x10000000058B90BFBF8479BD5A81B51AD MUL PUSH1 0x80 SHR JUMPDEST PUSH1 0x0 DUP4 PUSH4 0x40000000 AND PUSH1 0xF SIGNEXTEND SGT ISZERO PUSH2 0x5066 JUMPI PUSH17 0x1000000002C5C85FDF84BD62AE30A74CC MUL PUSH1 0x80 SHR JUMPDEST PUSH1 0x0 DUP4 PUSH4 0x20000000 AND PUSH1 0xF SIGNEXTEND SGT ISZERO PUSH2 0x508F JUMPI PUSH17 0x100000000162E42FEFB2FED257559BDAA MUL PUSH1 0x80 SHR JUMPDEST PUSH1 0x0 DUP4 PUSH4 0x10000000 AND PUSH1 0xF SIGNEXTEND SGT ISZERO PUSH2 0x50B8 JUMPI PUSH17 0x1000000000B17217F7D5A7716BBA4A9AE MUL PUSH1 0x80 SHR JUMPDEST PUSH1 0x0 DUP4 PUSH4 0x8000000 AND PUSH1 0xF SIGNEXTEND SGT ISZERO PUSH2 0x50E1 JUMPI PUSH17 0x100000000058B90BFBE9DDBAC5E109CCE MUL PUSH1 0x80 SHR JUMPDEST PUSH1 0x0 DUP4 PUSH4 0x4000000 AND PUSH1 0xF SIGNEXTEND SGT ISZERO PUSH2 0x510A JUMPI PUSH17 0x10000000002C5C85FDF4B15DE6F17EB0D MUL PUSH1 0x80 SHR JUMPDEST PUSH1 0x0 DUP4 PUSH4 0x2000000 AND PUSH1 0xF SIGNEXTEND SGT ISZERO PUSH2 0x5133 JUMPI PUSH17 0x1000000000162E42FEFA494F1478FDE05 MUL PUSH1 0x80 SHR JUMPDEST PUSH1 0x0 DUP4 PUSH4 0x1000000 AND PUSH1 0xF SIGNEXTEND SGT ISZERO PUSH2 0x515C JUMPI PUSH17 0x10000000000B17217F7D20CF927C8E94C MUL PUSH1 0x80 SHR JUMPDEST PUSH1 0x0 DUP4 PUSH3 0x800000 AND PUSH1 0xF SIGNEXTEND SGT ISZERO PUSH2 0x5184 JUMPI PUSH17 0x1000000000058B90BFBE8F71CB4E4B33D MUL PUSH1 0x80 SHR JUMPDEST PUSH1 0x0 DUP4 PUSH3 0x400000 AND PUSH1 0xF SIGNEXTEND SGT ISZERO PUSH2 0x51AC JUMPI PUSH17 0x100000000002C5C85FDF477B662B26945 MUL PUSH1 0x80 SHR JUMPDEST PUSH1 0x0 DUP4 PUSH3 0x200000 AND PUSH1 0xF SIGNEXTEND SGT ISZERO PUSH2 0x51D4 JUMPI PUSH17 0x10000000000162E42FEFA3AE53369388C MUL PUSH1 0x80 SHR JUMPDEST PUSH1 0x0 DUP4 PUSH3 0x100000 AND PUSH1 0xF SIGNEXTEND SGT ISZERO PUSH2 0x51FC JUMPI PUSH17 0x100000000000B17217F7D1D351A389D40 MUL PUSH1 0x80 SHR JUMPDEST PUSH1 0x0 DUP4 PUSH3 0x80000 AND PUSH1 0xF SIGNEXTEND SGT ISZERO PUSH2 0x5224 JUMPI PUSH17 0x10000000000058B90BFBE8E8B2D3D4EDE MUL PUSH1 0x80 SHR JUMPDEST PUSH1 0x0 DUP4 PUSH3 0x40000 AND PUSH1 0xF SIGNEXTEND SGT ISZERO PUSH2 0x524C JUMPI PUSH17 0x1000000000002C5C85FDF4741BEA6E77E MUL PUSH1 0x80 SHR JUMPDEST PUSH1 0x0 DUP4 PUSH3 0x20000 AND PUSH1 0xF SIGNEXTEND SGT ISZERO PUSH2 0x5274 JUMPI PUSH17 0x100000000000162E42FEFA39FE95583C2 MUL PUSH1 0x80 SHR JUMPDEST PUSH1 0x0 DUP4 PUSH3 0x10000 AND PUSH1 0xF SIGNEXTEND SGT ISZERO PUSH2 0x529C JUMPI PUSH17 0x1000000000000B17217F7D1CFB72B45E1 MUL PUSH1 0x80 SHR JUMPDEST PUSH1 0x0 DUP4 PUSH2 0x8000 AND PUSH1 0xF SIGNEXTEND SGT ISZERO PUSH2 0x52C3 JUMPI PUSH17 0x100000000000058B90BFBE8E7CC35C3F0 MUL PUSH1 0x80 SHR JUMPDEST PUSH1 0x0 DUP4 PUSH2 0x4000 AND PUSH1 0xF SIGNEXTEND SGT ISZERO PUSH2 0x52EA JUMPI PUSH17 0x10000000000002C5C85FDF473E242EA38 MUL PUSH1 0x80 SHR JUMPDEST PUSH1 0x0 DUP4 PUSH2 0x2000 AND PUSH1 0xF SIGNEXTEND SGT ISZERO PUSH2 0x5311 JUMPI PUSH17 0x1000000000000162E42FEFA39F02B772C MUL PUSH1 0x80 SHR JUMPDEST PUSH1 0x0 DUP4 PUSH2 0x1000 AND PUSH1 0xF SIGNEXTEND SGT ISZERO PUSH2 0x5338 JUMPI PUSH17 0x10000000000000B17217F7D1CF7D83C1A MUL PUSH1 0x80 SHR JUMPDEST PUSH1 0x0 DUP4 PUSH2 0x800 AND PUSH1 0xF SIGNEXTEND SGT ISZERO PUSH2 0x535F JUMPI PUSH17 0x1000000000000058B90BFBE8E7BDCBE2E MUL PUSH1 0x80 SHR JUMPDEST PUSH1 0x0 DUP4 PUSH2 0x400 AND PUSH1 0xF SIGNEXTEND SGT ISZERO PUSH2 0x5386 JUMPI PUSH17 0x100000000000002C5C85FDF473DEA871F MUL PUSH1 0x80 SHR JUMPDEST PUSH1 0x0 DUP4 PUSH2 0x200 AND PUSH1 0xF SIGNEXTEND SGT ISZERO PUSH2 0x53AD JUMPI PUSH17 0x10000000000000162E42FEFA39EF44D91 MUL PUSH1 0x80 SHR JUMPDEST PUSH1 0x0 DUP4 PUSH2 0x100 AND PUSH1 0xF SIGNEXTEND SGT ISZERO PUSH2 0x53D4 JUMPI PUSH17 0x100000000000000B17217F7D1CF79E949 MUL PUSH1 0x80 SHR JUMPDEST PUSH1 0x0 DUP4 PUSH1 0x80 AND PUSH1 0xF SIGNEXTEND SGT ISZERO PUSH2 0x53FA JUMPI PUSH17 0x10000000000000058B90BFBE8E7BCE544 MUL PUSH1 0x80 SHR JUMPDEST PUSH1 0x0 DUP4 PUSH1 0x40 AND PUSH1 0xF SIGNEXTEND SGT ISZERO PUSH2 0x5420 JUMPI PUSH17 0x1000000000000002C5C85FDF473DE6ECA MUL PUSH1 0x80 SHR JUMPDEST PUSH1 0x0 DUP4 PUSH1 0x20 AND PUSH1 0xF SIGNEXTEND SGT ISZERO PUSH2 0x5446 JUMPI PUSH17 0x100000000000000162E42FEFA39EF366F MUL PUSH1 0x80 SHR JUMPDEST PUSH1 0x0 DUP4 PUSH1 0x10 AND PUSH1 0xF SIGNEXTEND SGT ISZERO PUSH2 0x546C JUMPI PUSH17 0x1000000000000000B17217F7D1CF79AFA MUL PUSH1 0x80 SHR JUMPDEST PUSH1 0x0 DUP4 PUSH1 0x8 AND PUSH1 0xF SIGNEXTEND SGT ISZERO PUSH2 0x5492 JUMPI PUSH17 0x100000000000000058B90BFBE8E7BCD6D MUL PUSH1 0x80 SHR JUMPDEST PUSH1 0x0 DUP4 PUSH1 0x4 AND PUSH1 0xF SIGNEXTEND SGT ISZERO PUSH2 0x54B8 JUMPI PUSH17 0x10000000000000002C5C85FDF473DE6B2 MUL PUSH1 0x80 SHR JUMPDEST PUSH1 0x0 DUP4 PUSH1 0x2 AND PUSH1 0xF SIGNEXTEND SGT ISZERO PUSH2 0x54DE JUMPI PUSH17 0x1000000000000000162E42FEFA39EF358 MUL PUSH1 0x80 SHR JUMPDEST PUSH1 0x0 DUP4 PUSH1 0x1 AND PUSH1 0xF SIGNEXTEND SGT ISZERO PUSH2 0x5504 JUMPI PUSH17 0x10000000000000000B17217F7D1CF79AB MUL PUSH1 0x80 SHR JUMPDEST PUSH1 0xF DUP4 DUP2 SIGNEXTEND PUSH1 0x40 SAR PUSH1 0x3F SUB SWAP1 SIGNEXTEND SHR PUSH1 0x1 PUSH1 0x1 PUSH1 0x7F SHL SUB DUP2 GT ISZERO PUSH2 0x7A6 JUMPI PUSH1 0x0 DUP1 REVERT JUMPDEST PUSH8 0xFFFF000000000000 PUSH1 0x30 DUP5 SWAP1 SHL AND PUSH6 0xFFFFFFFFFF00 PUSH1 0x8 DUP5 SWAP1 SHL AND OR PUSH1 0xFF DUP3 AND OR SWAP4 SWAP3 POP POP POP JUMP JUMPDEST PUSH1 0x0 DUP1 PUSH2 0x7A6 PUSH1 0x1F PUSH2 0x2C89 JUMP JUMPDEST PUSH1 0x0 DUP1 PUSH1 0x0 DUP1 PUSH1 0x0 DUP6 PUSH1 0x20 ADD MLOAD GT ISZERO PUSH2 0x55A9 JUMPI PUSH2 0x55A6 PUSH2 0x558D DUP7 PUSH1 0xC0 ADD MLOAD DUP8 PUSH1 0x20 ADD MLOAD PUSH2 0x14BA SWAP1 SWAP2 SWAP1 PUSH4 0xFFFFFFFF AND JUMP JUMPDEST PUSH1 0xE0 DUP8 ADD MLOAD PUSH1 0x40 DUP9 ADD MLOAD PUSH2 0x55A0 SWAP2 PUSH2 0x14BA JUMP JUMPDEST SWAP1 PUSH2 0x4022 JUMP JUMPDEST SWAP1 POP JUMPDEST PUSH1 0x0 PUSH2 0x55B4 DUP8 PUSH2 0x575C JUMP JUMPDEST SWAP1 POP PUSH2 0x55C0 DUP2 DUP4 PUSH2 0x925 JUMP JUMPDEST SWAP5 POP DUP2 ISZERO PUSH2 0x55D7 JUMPI PUSH2 0x55D4 DUP2 DUP7 PUSH1 0x1 PUSH2 0x578F JUMP JUMPDEST SWAP4 POP JUMPDEST PUSH1 0x20 DUP7 ADD MLOAD ISZERO PUSH2 0x55EE JUMPI PUSH2 0x55EB DUP6 DUP4 PUSH2 0x5807 JUMP JUMPDEST SWAP3 POP JUMPDEST POP POP SWAP3 POP SWAP3 POP SWAP3 JUMP JUMPDEST PUSH1 0x0 DUP1 PUSH2 0x7A6 PUSH1 0x1E PUSH2 0x2C89 JUMP JUMPDEST PUSH1 0x0 PUSH2 0x560E PUSH2 0x3670 JUMP JUMPDEST PUSH2 0xFFFF DUP6 AND PUSH1 0x0 SWAP1 DUP2 MSTORE PUSH1 0x20 DUP3 DUP2 MSTORE PUSH1 0x40 DUP1 DUP4 KECCAK256 DUP8 DUP5 MSTORE SWAP1 SWAP2 MSTORE DUP2 KECCAK256 DUP1 SLOAD SWAP3 SWAP4 POP SWAP2 PUSH1 0x1 PUSH1 0x1 PUSH1 0x50 SHL SUB AND SWAP1 SUB PUSH2 0x5643 PUSH2 0x59E9 JUMP JUMPDEST PUSH2 0x5653 DUP2 PUSH2 0xFFFF DUP10 AND DUP9 DUP1 PUSH2 0x2DE1 JUMP JUMPDEST PUSH1 0x80 DUP2 ADD MLOAD ISZERO PUSH2 0x5675 JUMPI PUSH1 0x40 MLOAD PUSH3 0x461BCD PUSH1 0xE5 SHL DUP2 MSTORE PUSH1 0x4 ADD PUSH2 0x326 SWAP1 PUSH2 0x5DF7 JUMP JUMPDEST PUSH1 0x0 PUSH2 0x5689 DUP7 PUSH2 0x5684 DUP6 PUSH2 0x15C5 JUMP JUMPDEST PUSH2 0x2442 JUMP JUMPDEST SWAP1 POP PUSH1 0x0 PUSH2 0x569F PUSH2 0x569A DUP9 DUP7 PUSH2 0x5820 JUMP JUMPDEST PUSH2 0x15C5 JUMP JUMPDEST SWAP1 POP PUSH2 0x56AF PUSH2 0x5E7 DUP11 DUP4 DUP6 PUSH2 0x2FB2 JUMP JUMPDEST DUP5 SLOAD PUSH1 0x1 PUSH1 0x1 PUSH1 0x50 SHL SUB PUSH1 0x1 PUSH1 0x50 SHL DUP3 DIV DUP2 AND PUSH1 0x0 SWAP1 DUP2 SUB SWAP3 PUSH1 0x1 PUSH1 0xA0 SHL SWAP1 DIV SWAP1 SWAP2 AND SWAP1 DUP3 SLT DUP1 PUSH2 0x56E0 JUMPI POP DUP1 PUSH1 0x0 SLT JUMPDEST ISZERO PUSH2 0x5724 JUMPI PUSH1 0x0 PUSH2 0x56F1 DUP11 DUP5 PUSH2 0x2442 JUMP JUMPDEST SWAP1 POP PUSH1 0x0 PUSH2 0x56FF DUP4 DUP4 PUSH2 0x1F62 JUMP JUMPDEST SWAP1 POP DUP1 PUSH1 0x0 SLT ISZERO PUSH2 0x5714 JUMPI PUSH2 0x5714 DUP14 DUP3 PUSH2 0x46D6 JUMP JUMPDEST PUSH2 0x5721 DUP14 DUP14 DUP7 DUP6 DUP6 PUSH2 0x587C JUMP JUMPDEST POP POP JUMPDEST POP POP POP PUSH2 0xFFFF SWAP1 SWAP8 AND PUSH1 0x0 SWAP1 DUP2 MSTORE PUSH1 0x20 SWAP5 DUP6 MSTORE PUSH1 0x40 DUP1 DUP3 KECCAK256 SWAP8 DUP3 MSTORE SWAP7 SWAP1 SWAP5 MSTORE POP POP POP SWAP2 SWAP1 SWAP2 KECCAK256 DUP1 SLOAD PUSH1 0x1 PUSH1 0x1 PUSH1 0xF0 SHL SUB NOT AND SWAP1 SSTORE POP POP JUMP JUMPDEST PUSH2 0x5764 PUSH2 0x5A59 JUMP JUMPDEST PUSH1 0x0 PUSH2 0x576E PUSH2 0x25D1 JUMP JUMPDEST PUSH2 0xFFFF DUP5 AND PUSH1 0x0 SWAP1 DUP2 MSTORE PUSH1 0x20 SWAP2 SWAP1 SWAP2 MSTORE PUSH1 0x40 DUP2 KECCAK256 SLOAD SWAP2 POP PUSH2 0x888 SWAP1 DUP3 PUSH2 0x34CA JUMP JUMPDEST PUSH1 0x0 DUP1 PUSH2 0x57AE PUSH1 0x64 PUSH2 0x967 DUP8 PUSH1 0xE0 ADD MLOAD DUP8 PUSH2 0x14BA SWAP1 SWAP2 SWAP1 PUSH4 0xFFFFFFFF AND JUMP JUMPDEST SWAP1 POP DUP5 PUSH1 0xA0 ADD MLOAD DUP2 LT ISZERO PUSH2 0x57C3 JUMPI POP PUSH1 0xA0 DUP5 ADD MLOAD JUMPDEST DUP5 PUSH1 0xC0 ADD MLOAD DUP2 GT ISZERO PUSH2 0x57D6 JUMPI POP PUSH1 0xC0 DUP5 ADD MLOAD JUMPDEST DUP3 ISZERO PUSH2 0x57ED JUMPI PUSH2 0x57E6 DUP5 DUP3 PUSH2 0x876 JUMP JUMPDEST SWAP2 POP PUSH2 0x2818 JUMP JUMPDEST DUP4 DUP2 GT PUSH2 0x57FC JUMPI DUP1 DUP5 SUB PUSH2 0x63F JUMP JUMPDEST POP PUSH1 0x0 SWAP5 SWAP4 POP POP POP POP JUMP JUMPDEST PUSH1 0x0 PUSH2 0x888 PUSH2 0x5816 DUP5 DUP5 PUSH2 0x14BA JUMP JUMPDEST PUSH4 0x3B9ACA00 PUSH2 0x14E1 JUMP JUMPDEST PUSH1 0x0 DUP2 PUSH1 0x0 SGT ISZERO DUP1 ISZERO PUSH2 0x5833 JUMPI POP PUSH1 0xA DUP3 SLT JUMPDEST ISZERO PUSH2 0x5840 JUMPI POP PUSH1 0x0 PUSH2 0x7A6 JUMP JUMPDEST PUSH1 0x0 DUP3 SLT PUSH2 0x584D JUMPI PUSH1 0x0 DUP1 REVERT JUMPDEST PUSH2 0x888 PUSH1 0x1 PUSH2 0x2FA1 DUP6 PUSH1 0x20 ADD MLOAD PUSH2 0x8A4 PUSH15 0xC097CE7BC90715B34B9F1000000000 DUP8 PUSH2 0x130C SWAP1 SWAP2 SWAP1 PUSH4 0xFFFFFFFF AND JUMP JUMPDEST PUSH1 0x0 PUSH1 0x1 PUSH1 0x40 SHL PUSH2 0x588D DUP8 DUP8 PUSH2 0x49BD JUMP JUMPDEST OR SWAP1 POP PUSH1 0x0 PUSH2 0x5E7 CALLER PUSH32 0xC3D58168C5AE7397731D063D5BBF3D657854427343F4C083240F7AACAA2D0F62 DUP5 PUSH2 0x58C1 DUP10 PUSH2 0x49DB JUMP JUMPDEST PUSH1 0x40 MLOAD PUSH2 0x58CF SWAP3 SWAP2 SWAP1 PUSH2 0x5CDC JUMP JUMPDEST PUSH1 0x40 MLOAD DUP1 SWAP2 SUB SWAP1 LOG4 PUSH2 0x58E4 PUSH2 0x5E7 DUP8 DUP6 PUSH2 0x470D JUMP JUMPDEST PUSH1 0x0 DUP3 SGT ISZERO PUSH2 0x58FD JUMPI PUSH2 0x58FD PUSH2 0x5E7 PUSH2 0xFEE DUP9 DUP6 PUSH2 0x5905 JUMP JUMPDEST POP POP POP POP POP POP JUMP JUMPDEST PUSH1 0x0 PUSH2 0x590F PUSH2 0x4A5C JUMP JUMPDEST PUSH2 0xFFFF DUP5 AND PUSH1 0x0 SWAP1 DUP2 MSTORE PUSH1 0x20 SWAP2 SWAP1 SWAP2 MSTORE PUSH1 0x40 DUP2 KECCAK256 SLOAD PUSH1 0x1 PUSH1 0x1 PUSH1 0xA0 SHL SUB AND SWAP2 POP DUP3 SLT ISZERO PUSH2 0x593A JUMPI SWAP3 SWAP4 SWAP3 JUMPDEST DUP1 PUSH1 0x1 PUSH1 0x1 PUSH1 0xA0 SHL SUB AND PUSH4 0x23DE6651 DUP7 DUP7 PUSH2 0x5954 DUP7 PUSH2 0x49DB JUMP JUMPDEST PUSH1 0x40 MLOAD DUP5 PUSH4 0xFFFFFFFF AND PUSH1 0xE0 SHL DUP2 MSTORE PUSH1 0x4 ADD PUSH2 0x5972 SWAP4 SWAP3 SWAP2 SWAP1 PUSH2 0x5C7A JUMP JUMPDEST PUSH1 0x0 PUSH1 0x40 MLOAD DUP1 DUP4 SUB DUP2 PUSH1 0x0 DUP8 DUP1 EXTCODESIZE ISZERO DUP1 ISZERO PUSH2 0x598C JUMPI PUSH1 0x0 DUP1 REVERT JUMPDEST POP GAS CALL ISZERO DUP1 ISZERO PUSH2 0x2BBD JUMPI RETURNDATASIZE PUSH1 0x0 DUP1 RETURNDATACOPY RETURNDATASIZE PUSH1 0x0 REVERT JUMPDEST PUSH1 0x40 MLOAD DUP1 PUSH1 0xE0 ADD PUSH1 0x40 MSTORE DUP1 PUSH2 0x59B3 PUSH2 0x5A9E JUMP JUMPDEST DUP2 MSTORE PUSH1 0x20 ADD PUSH2 0x59C0 PUSH2 0x5ACA JUMP JUMPDEST DUP2 MSTORE PUSH1 0x0 PUSH1 0x20 DUP3 ADD DUP2 SWAP1 MSTORE PUSH1 0x40 DUP3 ADD DUP2 SWAP1 MSTORE PUSH1 0x60 DUP3 ADD DUP2 SWAP1 MSTORE PUSH1 0x80 DUP3 ADD DUP2 SWAP1 MSTORE PUSH1 0xA0 SWAP1 SWAP2 ADD MSTORE SWAP1 JUMP JUMPDEST PUSH1 0x40 MLOAD DUP1 PUSH2 0x100 ADD PUSH1 0x40 MSTORE DUP1 PUSH1 0x0 DUP1 NOT AND DUP2 MSTORE PUSH1 0x20 ADD PUSH1 0x0 DUP2 MSTORE PUSH1 0x20 ADD PUSH1 0x0 DUP2 MSTORE PUSH1 0x20 ADD PUSH1 0x0 DUP2 MSTORE PUSH1 0x20 ADD PUSH1 0x0 DUP2 MSTORE PUSH1 0x20 ADD PUSH1 0x0 DUP2 MSTORE PUSH1 0x20 ADD PUSH1 0x0 DUP2 MSTORE PUSH1 0x20 ADD PUSH1 0x0 DUP2 MSTORE POP SWAP1 JUMP JUMPDEST PUSH1 0x40 MLOAD DUP1 PUSH1 0x80 ADD PUSH1 0x40 MSTORE DUP1 PUSH1 0x60 DUP2 MSTORE PUSH1 0x20 ADD PUSH1 0x60 DUP2 MSTORE PUSH1 0x20 ADD PUSH1 0x60 DUP2 MSTORE PUSH1 0x20 ADD PUSH1 0x60 DUP2 MSTORE POP SWAP1 JUMP JUMPDEST PUSH1 0x40 MLOAD DUP1 PUSH2 0x100 ADD PUSH1 0x40 MSTORE DUP1 PUSH1 0x0 DUP2 MSTORE PUSH1 0x20 ADD PUSH1 0x0 DUP2 MSTORE PUSH1 0x20 ADD PUSH1 0x0 DUP2 MSTORE PUSH1 0x20 ADD PUSH1 0x0 DUP2 MSTORE PUSH1 0x20 ADD PUSH1 0x0 DUP2 MSTORE PUSH1 0x20 ADD PUSH1 0x0 DUP2 MSTORE PUSH1 0x20 ADD PUSH1 0x0 DUP2 MSTORE PUSH1 0x20 ADD PUSH1 0x0 DUP2 MSTORE POP SWAP1 JUMP JUMPDEST PUSH1 0x40 DUP1 MLOAD PUSH1 0x80 DUP2 ADD DUP3 MSTORE PUSH1 0x0 DUP1 DUP3 MSTORE PUSH1 0x20 DUP3 ADD MSTORE SWAP1 DUP2 ADD PUSH2 0x5ABD PUSH2 0x5B36 JUMP JUMPDEST DUP2 MSTORE PUSH1 0x0 PUSH1 0x20 SWAP1 SWAP2 ADD MSTORE SWAP1 JUMP JUMPDEST PUSH1 0x40 MLOAD DUP1 PUSH1 0x80 ADD PUSH1 0x40 MSTORE DUP1 PUSH1 0x60 DUP2 MSTORE PUSH1 0x20 ADD PUSH1 0x60 DUP2 MSTORE PUSH1 0x20 ADD PUSH1 0x0 DUP2 MSTORE PUSH1 0x20 ADD PUSH1 0x0 DUP2 MSTORE POP SWAP1 JUMP JUMPDEST PUSH1 0x40 MLOAD DUP1 PUSH1 0xC0 ADD PUSH1 0x40 MSTORE DUP1 PUSH1 0x0 PUSH2 0xFFFF AND DUP2 MSTORE PUSH1 0x20 ADD PUSH1 0x0 DUP2 MSTORE PUSH1 0x20 ADD PUSH1 0x0 DUP2 MSTORE PUSH1 0x20 ADD PUSH1 0x0 DUP2 MSTORE PUSH1 0x20 ADD PUSH1 0x0 DUP2 MSTORE PUSH1 0x20 ADD PUSH1 0x0 PUSH1 0x3 DUP2 GT ISZERO PUSH2 0x5B31 JUMPI INVALID JUMPDEST SWAP1 MSTORE SWAP1 JUMP JUMPDEST PUSH1 0x40 MLOAD DUP1 PUSH1 0x60 ADD PUSH1 0x40 MSTORE DUP1 PUSH1 0x0 DUP2 MSTORE PUSH1 0x20 ADD PUSH1 0x0 DUP2 MSTORE PUSH1 0x20 ADD PUSH1 0x0 DUP2 MSTORE POP SWAP1 JUMP JUMPDEST PUSH1 0x40 MLOAD DUP1 PUSH2 0x120 ADD PUSH1 0x40 MSTORE DUP1 PUSH1 0x0 DUP2 MSTORE PUSH1 0x20 ADD PUSH1 0x0 DUP2 MSTORE PUSH1 0x20 ADD PUSH1 0x0 DUP2 MSTORE PUSH1 0x20 ADD PUSH1 0x0 DUP2 MSTORE PUSH1 0x20 ADD PUSH1 0x0 DUP2 MSTORE PUSH1 0x20 ADD PUSH1 0x0 DUP2 MSTORE PUSH1 0x20 ADD PUSH1 0x0 DUP2 MSTORE PUSH1 0x20 ADD PUSH1 0x0 DUP2 MSTORE PUSH1 0x20 ADD PUSH1 0x0 DUP2 MSTORE POP SWAP1 JUMP JUMPDEST DUP1 CALLDATALOAD PUSH2 0xFFFF DUP2 AND DUP2 EQ PUSH2 0x850 JUMPI PUSH1 0x0 DUP1 REVERT JUMPDEST PUSH1 0x0 PUSH1 0x20 DUP3 DUP5 SUB SLT ISZERO PUSH2 0x5BC6 JUMPI DUP1 DUP2 REVERT JUMPDEST PUSH2 0x888 DUP3 PUSH2 0x5BA3 JUMP JUMPDEST PUSH1 0x0 DUP1 PUSH1 0x40 DUP4 DUP6 SUB SLT ISZERO PUSH2 0x5BE1 JUMPI DUP1 DUP2 REVERT JUMPDEST PUSH2 0x5BEA DUP4 PUSH2 0x5BA3 JUMP JUMPDEST SWAP2 POP PUSH1 0x20 DUP4 ADD CALLDATALOAD DUP1 ISZERO ISZERO DUP2 EQ PUSH2 0x5BFE JUMPI DUP2 DUP3 REVERT JUMPDEST DUP1 SWAP2 POP POP SWAP3 POP SWAP3 SWAP1 POP JUMP JUMPDEST PUSH1 0x0 DUP1 PUSH1 0x40 DUP4 DUP6 SUB SLT ISZERO PUSH2 0x5C1B JUMPI DUP2 DUP3 REVERT JUMPDEST POP POP DUP1 MLOAD PUSH1 0x20 SWAP1 SWAP2 ADD MLOAD SWAP1 SWAP3 SWAP1 SWAP2 POP JUMP JUMPDEST PUSH1 0x0 DUP2 MLOAD DUP1 DUP5 MSTORE PUSH1 0x20 DUP1 DUP6 ADD SWAP5 POP DUP1 DUP5 ADD DUP4 JUMPDEST DUP4 DUP2 LT ISZERO PUSH2 0x5C5B JUMPI DUP2 MLOAD DUP8 MSTORE SWAP6 DUP3 ADD SWAP6 SWAP1 DUP3 ADD SWAP1 PUSH1 0x1 ADD PUSH2 0x5C3F JUMP JUMPDEST POP SWAP5 SWAP6 SWAP5 POP POP POP POP POP JUMP JUMPDEST PUSH1 0x1 PUSH1 0x1 PUSH1 0xA0 SHL SUB SWAP2 SWAP1 SWAP2 AND DUP2 MSTORE PUSH1 0x20 ADD SWAP1 JUMP JUMPDEST PUSH1 0x1 PUSH1 0x1 PUSH1 0xA0 SHL SUB SWAP4 DUP5 AND DUP2 MSTORE SWAP2 SWAP1 SWAP3 AND PUSH1 0x20 DUP3 ADD MSTORE PUSH1 0x40 DUP2 ADD SWAP2 SWAP1 SWAP2 MSTORE PUSH1 0x60 ADD SWAP1 JUMP JUMPDEST PUSH1 0x1 PUSH1 0x1 PUSH1 0xA0 SHL SUB SWAP3 SWAP1 SWAP3 AND DUP3 MSTORE PUSH1 0x20 DUP3 ADD MSTORE PUSH1 0x40 ADD SWAP1 JUMP JUMPDEST PUSH1 0x0 PUSH1 0x40 DUP3 MSTORE PUSH2 0x5CCA PUSH1 0x40 DUP4 ADD DUP6 PUSH2 0x5C2C JUMP JUMPDEST DUP3 DUP2 SUB PUSH1 0x20 DUP5 ADD MSTORE PUSH2 0x63F DUP2 DUP6 PUSH2 0x5C2C JUMP JUMPDEST SWAP2 DUP3 MSTORE PUSH1 0x20 DUP3 ADD MSTORE PUSH1 0x40 ADD SWAP1 JUMP JUMPDEST PUSH1 0x20 DUP1 DUP3 MSTORE PUSH1 0x16 SWAP1 DUP3 ADD MSTORE PUSH22 0x13585C9AD95D081B9BDD081A5B9A5D1A585B1A5E9959 PUSH1 0x52 SHL PUSH1 0x40 DUP3 ADD MSTORE PUSH1 0x60 ADD SWAP1 JUMP JUMPDEST PUSH1 0x20 DUP1 DUP3 MSTORE PUSH1 0x14 SWAP1 DUP3 ADD MSTORE PUSH20 0x4F7261636C652072617465206F766572666C6F77 PUSH1 0x60 SHL PUSH1 0x40 DUP3 ADD MSTORE PUSH1 0x60 ADD SWAP1 JUMP JUMPDEST PUSH1 0x20 DUP1 DUP3 MSTORE PUSH1 0x15 SWAP1 DUP3 ADD MSTORE PUSH21 0x10D1CE881B9BC81B585C9AD95D1CC81B1A5CDD1959 PUSH1 0x5A SHL PUSH1 0x40 DUP3 ADD MSTORE PUSH1 0x60 ADD SWAP1 JUMP JUMPDEST PUSH1 0x20 DUP1 DUP3 MSTORE PUSH1 0xD SWAP1 DUP3 ADD MSTORE PUSH13 0x92DCECC2D8D2C840D2DCC8CAF PUSH1 0x9B SHL PUSH1 0x40 DUP3 ADD MSTORE PUSH1 0x60 ADD SWAP1 JUMP JUMPDEST PUSH1 0x20 DUP1 DUP3 MSTORE PUSH1 0xF SWAP1 DUP3 ADD MSTORE PUSH15 0x4F766572206D617820617373657473 PUSH1 0x88 SHL PUSH1 0x40 DUP3 ADD MSTORE PUSH1 0x60 ADD SWAP1 JUMP JUMPDEST PUSH1 0x20 DUP1 DUP3 MSTORE PUSH1 0x16 SWAP1 DUP3 ADD MSTORE PUSH22 0x10D1CE881B585C9AD95D081A5B99195E08189BDD5B99 PUSH1 0x52 SHL PUSH1 0x40 DUP3 ADD MSTORE PUSH1 0x60 ADD SWAP1 JUMP JUMPDEST PUSH1 0x20 DUP1 DUP3 MSTORE PUSH1 0x11 SWAP1 DUP3 ADD MSTORE PUSH17 0x4D75737420696E6974206D61726B657473 PUSH1 0x78 SHL PUSH1 0x40 DUP3 ADD MSTORE PUSH1 0x60 ADD SWAP1 JUMP JUMPDEST PUSH1 0x20 DUP1 DUP3 MSTORE PUSH1 0x17 SWAP1 DUP3 ADD MSTORE PUSH32 0x494D3A20696D706C6965642072617465206661696C6564000000000000000000 PUSH1 0x40 DUP3 ADD MSTORE PUSH1 0x60 ADD SWAP1 JUMP JUMPDEST PUSH2 0xFFFF SWAP2 SWAP1 SWAP2 AND DUP2 MSTORE PUSH1 0x20 ADD SWAP1 JUMP JUMPDEST SWAP3 DUP4 MSTORE PUSH1 0x20 DUP4 ADD SWAP2 SWAP1 SWAP2 MSTORE PUSH1 0x40 DUP3 ADD MSTORE PUSH1 0x60 ADD SWAP1 JUMP INVALID LOG2 PUSH5 0x6970667358 0x22 SLT KECCAK256 SWAP3 0x28 PUSH5 0x142EE0448B JUMPI SHL COINBASE 0xD6 MULMOD PUSH3 0x619D3B DUP6 GT 0x2E 0xDC OR XOR 0xB8 0xF 0x1E DUP16 PUSH10 0x4CAF854464736F6C6343 STOP SMOD MOD STOP CALLER ","sha1":"757bfe32b7e7a83d0aa39d6c4d1ba5d84cbbf268","source":"// SPDX-License-Identifier: BSUL-1.1\npragma solidity =0.7.6;\npragma abicoder v2;\n\nimport {\n    PrimeRate,\n    PortfolioState,\n    MarketParameters,\n    BalanceState,\n    CashGroupParameters,\n    nTokenPortfolio,\n    InterestRateParameters,\n    PortfolioAsset\n} from \"../../global/Types.sol\";\nimport {Constants} from \"../../global/Constants.sol\";\nimport {SafeInt256} from \"../../math/SafeInt256.sol\";\nimport {SafeUint256} from \"../../math/SafeUint256.sol\";\nimport {Bitmap} from \"../../math/Bitmap.sol\";\n\nimport {Market} from \"../../internal/markets/Market.sol\";\nimport {DateTime} from \"../../internal/markets/DateTime.sol\";\nimport {CashGroup} from \"../../internal/markets/CashGroup.sol\";\nimport {InterestRateCurve} from \"../../internal/markets/InterestRateCurve.sol\";\nimport {PrimeRateLib} from \"../../internal/pCash/PrimeRateLib.sol\";\nimport {BalanceHandler} from \"../../internal/balances/BalanceHandler.sol\";\nimport {PortfolioHandler} from \"../../internal/portfolio/PortfolioHandler.sol\";\nimport {BitmapAssetsHandler} from \"../../internal/portfolio/BitmapAssetsHandler.sol\";\nimport {SettleBitmapAssets} from \"../../internal/settlement/SettleBitmapAssets.sol\";\nimport {nTokenHandler} from \"../../internal/nToken/nTokenHandler.sol\";\nimport {AssetHandler} from \"../../internal/valuation/AssetHandler.sol\";\n\nimport {nTokenMintAction} from \"./nTokenMintAction.sol\";\n\n/// @notice Initialize markets is called once every quarter to setup the new markets. Only the nToken account\n/// can initialize markets, and this method will be called on behalf of that account. In this action\n/// the following will occur:\n///  - nToken Liquidity Tokens will be settled\n///  - Any ifCash assets will be settled\n///  - If nToken liquidity tokens are settled with negative net ifCash, enough cash will be withheld at the PV\n///    to purchase offsetting positions\n///  - fCash positions are written to storage\n///  - For each market, calculate the proportion of fCash to cash given:\n///     - previous oracle rates\n///     - rate anchor set by governance\n///     - percent of cash to deposit into the market set by governance\n///  - Set new markets and add liquidity tokens to portfolio\ncontract InitializeMarketsAction {\n    using Bitmap for bytes32;\n    using SafeUint256 for uint256;\n    using SafeInt256 for int256;\n    using PortfolioHandler for PortfolioState;\n    using Market for MarketParameters;\n    using BalanceHandler for BalanceState;\n    using CashGroup for CashGroupParameters;\n    using PrimeRateLib for PrimeRate;\n    using nTokenHandler for nTokenPortfolio;\n    using InterestRateCurve for InterestRateParameters;\n\n    // Cash balances are always in 8 decimal precision so some minimum amount\n    // of cash is required before we can initialize markets.\n    int256 private constant MIN_CASH_REQUIRED = 1_000;\n\n    event MarketsInitialized(uint16 currencyId);\n\n    struct GovernanceParameters {\n        int256[] depositShares;\n        int256[] leverageThresholds;\n        uint256[] proportions;\n        InterestRateParameters[] interestRateParams;\n    }\n\n    function _getGovernanceParameters(uint16 currencyId, uint256 maxMarketIndex)\n        private\n        returns (GovernanceParameters memory)\n    {\n        GovernanceParameters memory params;\n        (params.depositShares, params.leverageThresholds) = nTokenHandler.getDepositParameters(\n            currencyId,\n            maxMarketIndex\n        );\n\n        int256[] memory _proportions = nTokenHandler.getInitializationParameters(currencyId, maxMarketIndex);\n        // NOTE: this conversion from int256 => uint256 is done for legacy reasons\n        params.proportions = new uint256[](_proportions.length);\n        for (uint256 i = 0; i < _proportions.length; i++) {\n            params.proportions[i] = _proportions[i].toUint();\n        }\n\n        // Copies the next interest rate parameters set by governance into the\n        // \"active\" interest rate parameters for the current quarter.\n        InterestRateCurve.setActiveInterestRateParameters(currencyId);\n        params.interestRateParams = new InterestRateParameters[](maxMarketIndex);\n        // maxMarketIndex is 1-indexed\n        for (uint256 i = 1; i <= maxMarketIndex; i++) {\n            params.interestRateParams[i - 1] = InterestRateCurve.getActiveInterestRateParameters(\n                currencyId,\n                i\n            );\n        }\n\n        return params;\n    }\n\n    function _settleNTokenLiquidityTokens(\n        nTokenPortfolio memory nToken,\n        uint256 blockTime\n    ) internal returns (int256 withdrawnCash, int256 settledCashFromfCash) {\n        MarketParameters memory market;\n        PortfolioAsset[] memory storedAssets = nToken.portfolioState.storedAssets;\n\n        // The nToken portfolio only ever has liquidity tokens sorted in ascending order\n        for (uint256 i; i < storedAssets.length; i++) {\n            PortfolioAsset memory asset = storedAssets[i];\n            // Must be liquidity token type\n            require(AssetHandler.isLiquidityToken(asset.assetType));\n            {\n                uint256 settleDate = AssetHandler.getSettlementDate(asset);\n                // Settlement date is on block time exactly\n                require(settleDate <= blockTime);\n                Market.loadSettlementMarket(market, asset.currencyId, asset.maturity, settleDate);\n            }\n\n            int256 fCash;\n            {\n                int256 primeCash;\n                (primeCash, fCash) = market.removeLiquidity(asset.notional);\n                withdrawnCash = withdrawnCash.add(primeCash);\n            }\n\n            // If the fCash has matured (as it will for the 3 month market), then convert it\n            // to a settled prime cash (positive) balance and return it. We do not net it off\n            // against the portfolio because that would cause an improper totalDebtSupply update\n            if (asset.maturity <= blockTime) {\n                // NOTE: convertSettledfCash will set the prime settlement rate\n                int256 settledPrimeCash = nToken.cashGroup.primeRate.convertSettledfCash(\n                    nToken.tokenAddress, asset.currencyId, asset.maturity, fCash, blockTime\n                );\n                settledCashFromfCash = settledCashFromfCash.add(settledPrimeCash);\n            } else {\n                BitmapAssetsHandler.addifCashAsset(\n                    nToken.tokenAddress,\n                    asset.currencyId,\n                    asset.maturity,\n                    nToken.lastInitializedTime,\n                    fCash\n                );\n            }\n\n            nToken.portfolioState.deleteAsset(i);\n        }\n    }\n\n    function _settleNTokenPortfolio(nTokenPortfolio memory nToken, uint256 blockTime) private {\n        // nToken never has idiosyncratic cash between 90 day intervals but since it also has a\n        // bitmap fCash assets. We don't set the pointer to the settlement date of the liquidity\n        // tokens (1 quarter away), instead we set it to the current block time. This is a bit\n        // esoteric but will ensure that ifCash is never improperly settled.\n\n        // If lastInitializedTime == reference time then this will fail, that is the correct\n        // behavior since initialization begins at lastInitializedTime. That means that markets\n        // cannot be re-initialized during a single block (this is the correct behavior). If\n        // lastInitializedTime >= reference time then the markets have already been initialized\n        // for the quarter.\n        uint256 referenceTime = DateTime.getReferenceTime(blockTime);\n        require(nToken.lastInitializedTime < referenceTime);\n\n        // All liquidity tokens are removed during initialize markets, the nToken will receive\n        // cash and fCash positions as a result. The three month fCash position will settle and\n        // the value from that will be in settledCashFromfCash.\n        (int256 withdrawnCash, int256 settledCashFromfCash) = _settleNTokenLiquidityTokens(nToken, blockTime);\n\n        // Settles any fCash positions in the nToken. Generally speaking, this will result in the\n        // nToken's negative 3 month fCash position being settled.\n        (int256 settledPositiveCash, int256 settledNegativeCash, uint256 blockTimeUTC0) =\n            SettleBitmapAssets.settleBitmappedCashGroup(\n                nToken.tokenAddress,\n                nToken.cashGroup.currencyId,\n                nToken.lastInitializedTime,\n                blockTime,\n                nToken.cashGroup.primeRate\n            );\n\n        // Both of these will be greater than or equal to zero\n        settledPositiveCash = settledPositiveCash.add(settledCashFromfCash);\n\n        // Add all the cash withdrawn from the market first\n        nToken.cashBalance = nToken.cashBalance.add(withdrawnCash);\n\n        // convertToStorageInSettlement will return the final stored balance after all the\n        // settled balances are applied.\n        nToken.cashBalance = nToken.cashGroup.primeRate.convertToStorageInSettlement(\n            nToken.tokenAddress,\n            nToken.cashGroup.currencyId,\n            nToken.cashBalance, // previous cash balance\n            settledPositiveCash,\n            settledNegativeCash\n        );\n\n        // The nToken must always have a strictly positive cash balance\n        require(nToken.cashBalance > 0);\n\n        // The ifCashBitmap has been updated to reference this new settlement time\n        nToken.lastInitializedTime = blockTimeUTC0.toUint40();\n    }\n\n    /// @notice Special method to get previous markets, normal usage would not reference previous markets\n    /// in this way\n    function _getPreviousMarkets(\n        uint256 currencyId,\n        uint256 blockTime,\n        nTokenPortfolio memory nToken,\n        MarketParameters[] memory previousMarkets\n    ) private view {\n        uint256 rateOracleTimeWindow = nToken.cashGroup.getRateOracleTimeWindow();\n        // This will reference the previous settlement date to get the previous markets\n        uint256 settlementDate = DateTime.getReferenceTime(blockTime);\n\n        // Assume that assets are stored in order and include all assets of the previous market\n        // set. This will account for the potential that markets.length is greater than the previous\n        // markets when the maxMarketIndex is increased (increasing the overall number of markets).\n        // We don't fetch the 3 month market (i = 0) because it has settled and will not be used for\n        // the subsequent calculations. Since nTokens never allow liquidity to go to zero then we know\n        // there is always a matching token for each market.\n        for (uint256 i = 1; i < nToken.portfolioState.storedAssets.length; i++) {\n            previousMarkets[i].loadMarketWithSettlementDate(\n                currencyId,\n                // These assets will reference the previous liquidity tokens\n                nToken.portfolioState.storedAssets[i].maturity,\n                blockTime,\n                // No liquidity tokens required for this process\n                false,\n                rateOracleTimeWindow,\n                settlementDate\n            );\n        }\n    }\n\n    function _calculateNetPrimeCashAvailable(\n        nTokenPortfolio memory nToken,\n        MarketParameters[] memory previousMarkets,\n        uint256 blockTime,\n        uint16 currencyId,\n        bool isFirstInit\n    ) private returns (int256 netPrimeCashAvailable) {\n        int256 primeCashWithholding;\n\n        if (isFirstInit) {\n            nToken.lastInitializedTime = uint40(DateTime.getTimeUTC0(blockTime));\n        } else {\n            _settleNTokenPortfolio(nToken, blockTime);\n            _getPreviousMarkets(currencyId, blockTime, nToken, previousMarkets);\n            // NOTE: getNTokenNegativefCashWithholding is compiled as an internal method\n            primeCashWithholding = nTokenMintAction.getNTokenNegativefCashWithholding(nToken, previousMarkets, blockTime);\n        }\n\n        // Deduct the amount of withholding required from the cash balance (at this point includes all settled cash)\n        netPrimeCashAvailable = nToken.cashBalance.subNoNeg(primeCashWithholding);\n\n        // This is the new balance to store\n        nToken.cashBalance = primeCashWithholding;\n\n        // We can't have less net asset cash than our percent basis or some markets will end up not\n        // initialized\n        require(netPrimeCashAvailable > MIN_CASH_REQUIRED); // dev: insufficient cash\n\n        return netPrimeCashAvailable;\n    }\n\n    /// @notice The six month implied rate is zero if there have never been any markets initialized\n    /// otherwise the market will be the interpolation between the old 6 month and 1 year markets\n    /// which are now sitting at 3 month and 9 month time to maturity\n    function _getSixMonthImpliedRate(\n        MarketParameters[] memory previousMarkets,\n        uint256 referenceTime\n    ) private pure returns (uint256) {\n        // Cannot interpolate six month rate without a 1 year market\n        require(previousMarkets.length >= 3);\n\n        return\n            CashGroup.interpolateOracleRate(\n                previousMarkets[1].maturity,\n                previousMarkets[2].maturity,\n                previousMarkets[1].oracleRate,\n                previousMarkets[2].oracleRate,\n                // Maturity date == 6 months from reference time\n                referenceTime + 2 * Constants.QUARTER\n            );\n    }\n\n    /// @notice Returns the linear interpolation between two market rates. The formula is\n    /// slope = (longMarket.oracleRate - shortMarket.oracleRate) / (longMarket.maturity - shortMarket.maturity)\n    /// interpolatedRate = slope * (assetMaturity - shortMarket.maturity) + shortMarket.oracleRate\n    function _interpolateFutureRate(\n        uint256 shortMaturity,\n        uint256 shortRate,\n        MarketParameters memory longMarket\n    ) private pure returns (uint256) {\n        uint256 longMaturity = longMarket.maturity;\n        uint256 longRate = longMarket.oracleRate;\n        // the next market maturity is always a quarter away\n        uint256 newMaturity = longMarket.maturity + Constants.QUARTER;\n        require(shortMaturity < longMaturity);\n\n        // It's possible that the rates are inverted where the short market rate > long market rate and\n        // we will get an underflow here so we check for that\n        if (longRate >= shortRate) {\n            return\n                (longRate - shortRate)\n                    .mul(newMaturity - shortMaturity)\n                // No underflow here, checked above\n                    .div(longMaturity - shortMaturity)\n                    .add(shortRate);\n        } else {\n            // In this case the slope is negative so:\n            // interpolatedRate = shortMarket.oracleRate - slope * (assetMaturity - shortMarket.maturity)\n            uint256 diff =\n                (shortRate - longRate)\n                    .mul(newMaturity - shortMaturity)\n                // No underflow here, checked above\n                    .div(longMaturity - shortMaturity);\n\n            // This interpolation may go below zero so we bottom out interpolated rates at (practically)\n            // zero. Storing a zero for oracleRates means that the markets are not initialized so using\n            // a minimum value here to handle that case\n            return shortRate > diff ? shortRate - diff : 1;\n        }\n    }\n\n    /// @dev This is here to clear the stack\n    function _setLiquidityAmount(\n        int256 netPrimeCashAvailable,\n        int256 depositShare,\n        uint256 assetType,\n        MarketParameters memory newMarket,\n        nTokenPortfolio memory nToken\n    ) private pure returns (int256) {\n        // The portion of the cash available that will be deposited into the market\n        int256 primeCashToMarket =\n            netPrimeCashAvailable.mul(depositShare).div(Constants.DEPOSIT_PERCENT_BASIS);\n        newMarket.totalPrimeCash = primeCashToMarket;\n        newMarket.totalLiquidity = primeCashToMarket;\n\n        // Add a new liquidity token, this will end up in the new asset array\n        nToken.portfolioState.addAsset(\n            nToken.cashGroup.currencyId,\n            newMarket.maturity,\n            assetType, // This is liquidity token asset type\n            primeCashToMarket\n        );\n\n        // fCashAmount is calculated using the underlying amount\n        return nToken.cashGroup.primeRate.convertToUnderlying(primeCashToMarket);\n    }\n\n    /// @notice Calculates the fCash amount given the cash and utilization:\n    // utilization = totalfCash / (totalfCash + totalCashUnderlying)\n    // utilization * (totalfCash + totalCashUnderlying) = totalfCash\n    // utilization * totalCashUnderlying + utilization * totalfCash = totalfCash\n    // utilization * totalCashUnderlying = totalfCash * (1 - utilization)\n    // totalfCash = utilization * totalCashUnderlying / (1 - utilization)\n    function _calculatefCashAmountFromUtilization(\n        int256 underlyingCashToMarket,\n        uint256 utilization \n    ) private pure returns (int256) {\n        require(utilization < uint256(Constants.RATE_PRECISION));\n        int256 _utilization = int256(utilization);\n        // NOTE: sub underflow checked above, no div by zero possible\n        return (underlyingCashToMarket.mul(_utilization) / (Constants.RATE_PRECISION - _utilization));\n    }\n\n    /// @notice Sweeps nToken cash balance into markets after accounting for cash withholding. Can be\n    /// done after fCash residuals are purchased to ensure that markets have maximum liquidity.\n    /// @param currencyId currency of markets to initialize\n    /// @dev emit:CashSweepIntoMarkets\n    /// @dev auth:none\n    function sweepCashIntoMarkets(uint16 currencyId) external {\n        nTokenMintAction.sweepCashIntoMarkets(currencyId);\n    }\n\n    /// @notice Initialize the market for a given currency id, done once a quarter\n    /// @param currencyId currency of markets to initialize\n    /// @param isFirstInit true if this is the first time the markets have been initialized\n    /// @dev emit:MarketsInitialized\n    /// @dev auth:none\n    function initializeMarkets(uint16 currencyId, bool isFirstInit) external {\n        uint256 blockTime = block.timestamp;\n        nTokenPortfolio memory nToken;\n        nToken.loadNTokenPortfolioStateful(currencyId);\n        MarketParameters[] memory previousMarkets =\n            new MarketParameters[](nToken.cashGroup.maxMarketIndex);\n\n        // This should be sufficient to validate that the currency id is valid\n        require(nToken.cashGroup.maxMarketIndex != 0);\n        // If the nToken has any assets then this is not the first initialization\n        if (isFirstInit) {\n            require(nToken.portfolioState.storedAssets.length == 0);\n        }\n\n        int256 netPrimeCashAvailable = _calculateNetPrimeCashAvailable(\n            nToken,\n            previousMarkets,\n            blockTime,\n            currencyId,\n            isFirstInit\n        );\n\n        GovernanceParameters memory parameters =\n            _getGovernanceParameters(currencyId, nToken.cashGroup.maxMarketIndex);\n\n        MarketParameters memory newMarket;\n        // Oracle rate is carried over between loops\n        uint256 oracleRate;\n        for (uint256 i = 0; i < nToken.cashGroup.maxMarketIndex; i++) {\n            // Traded markets are 1-indexed\n            newMarket.maturity = DateTime.getReferenceTime(blockTime).add(\n                DateTime.getTradedMarket(i + 1)\n            );\n\n            int256 underlyingCashToMarket =\n                _setLiquidityAmount(\n                    netPrimeCashAvailable,\n                    parameters.depositShares[i],\n                    Constants.MIN_LIQUIDITY_TOKEN_INDEX + i, // liquidity token asset type\n                    newMarket,\n                    nToken\n                );\n\n            // Governance will prevent previousMarkets.length from being equal to 1, meaning that we will\n            // either have 0 markets (on first init), exactly 2 markets, or 2+ markets. In the case that there\n            // are exactly two markets then the 6 month market must be initialized via this method (there is no\n            // 9 month market to interpolate a rate against). In the case of 2+ markets then we will only enter this\n            // first branch when the number of markets is increased\n            if (\n                isFirstInit ||\n                // This is the six month market when there are only 3 and 6 month markets\n                (i == 1 && previousMarkets.length == 2) ||\n                // At this point, these are new markets and they must be initialized\n                (i >= nToken.portfolioState.storedAssets.length) ||\n                // When extending from the 6 month to 1 year market we must initialize both 6 and 1 year as new\n                (i == 1 && previousMarkets[2].oracleRate == 0)\n            ) {\n                // Any newly added markets cannot have their implied rates interpolated via the previous\n                // markets. In this case we initialize the markets using the rate anchor and proportion.\n                int256 fCashAmount = _calculatefCashAmountFromUtilization(underlyingCashToMarket, parameters.proportions[i]);\n\n                newMarket.totalfCash = fCashAmount;\n                newMarket.oracleRate = parameters.interestRateParams[i].getInterestRate(parameters.proportions[i]);\n\n                // If this fails it is because the rate anchor and proportion are not set properly by\n                // governance.\n                require(newMarket.oracleRate > 0, \"IM: implied rate failed\");\n            } else {\n                // Two special cases for the 3 month and 6 month market when interpolating implied rates. The 3 month market\n                // inherits the implied rate from the previous 6 month market (they are now at the same maturity).\n                if (i == 0) {\n                    // We should never get an array out of bounds error here because of the inequality check in the first branch\n                    // of the outer if statement.\n                    oracleRate = previousMarkets[1].oracleRate;\n                } else if (i == 1) {\n                    // The six month market is the interpolation between the 3 month and the 1 year market (now at 9 months). This\n                    // interpolation is different since the rate is between 3 and 9 months, for all the other interpolations we interpolate\n                    // forward in time (i.e. use a 3 and 6 month rate to interpolate a 1 year rate). The first branch of this if statement\n                    // will capture the case when the 1 year rate has not been set.\n                    oracleRate = _getSixMonthImpliedRate(\n                        previousMarkets,\n                        DateTime.getReferenceTime(blockTime)\n                    );\n\n                    // Floor an interpolated interest rate at kink rate 1\n                    if (oracleRate < parameters.interestRateParams[i].kinkRate1) {\n                        oracleRate = parameters.interestRateParams[i].kinkRate1;\n                    }\n                } else {\n                    // Any other market has the interpolation between the new implied rate from the newly initialized market previous\n                    // to this market interpolated with the previous version of this market. For example, the newly initialized 1 year\n                    // market will have its implied rate set to the interpolation between the newly initialized 6 month market (done in\n                    // previous iteration of this loop) and the previous 1 year market (which has now rolled down to 9 months). Similarly,\n                    // a 2 year market will be interpolated from the newly initialized 1 year and the previous 2 year market.\n\n                    // This is the previous market maturity, traded markets are 1-indexed\n                    uint256 shortMarketMaturity =\n                        DateTime.getReferenceTime(blockTime).add(DateTime.getTradedMarket(i));\n                    oracleRate = _interpolateFutureRate(\n                        shortMarketMaturity,\n                        // This is the oracle rate from the previous iteration in the loop,\n                        // refers to the new oracle rate set on the newly initialized market\n                        // that is adjacent to the market currently being initialized.\n                        oracleRate,\n                        // This is the previous version of the current market\n                        previousMarkets[i]\n                    );\n\n                    // Floor an interpolated interest rate at kink rate 1\n                    if (oracleRate < parameters.interestRateParams[i].kinkRate1) {\n                        oracleRate = parameters.interestRateParams[i].kinkRate1;\n                    }\n                }\n\n                // When initializing new markets we need to ensure that the new implied oracle rates align\n                // with the current yield curve or valuations for ifCash will spike. This should reference the\n                // previously calculated implied rate and the current market.\n                uint256 utilization = parameters.interestRateParams[i].getUtilizationFromInterestRate(oracleRate);\n\n                // If the calculated utilization is greater than the leverage threshold then we cannot\n                // provide liquidity without risk of liquidation. In this case, set the leverage threshold\n                // as the new utilization and calculate the oracle rate from it. This will result in fCash valuations\n                // changing on chain, however, adding liquidity via nTokens would also end up with this\n                // result as well.\n                if (utilization > parameters.leverageThresholds[i].toUint()) {\n                    utilization = parameters.leverageThresholds[i].toUint();\n                    oracleRate = parameters.interestRateParams[i].getInterestRate(utilization);\n                    require(oracleRate != 0, \"Oracle rate overflow\");\n                }\n\n                newMarket.totalfCash = _calculatefCashAmountFromUtilization(underlyingCashToMarket, utilization);\n\n                // It's possible that totalfCash is zero from rounding errors above, we want to set this to a minimum value\n                // so that we don't have divide by zero errors.\n                if (newMarket.totalfCash < 1) newMarket.totalfCash = 1;\n\n                newMarket.oracleRate = oracleRate;\n                // The oracle rate has been changed so we set the previous trade time to current\n                newMarket.previousTradeTime = blockTime;\n            }\n\n            // Implied rate will always be set to oracle rate\n            newMarket.lastImpliedRate = newMarket.oracleRate;\n            finalizeMarket(newMarket, currencyId, nToken);\n        }\n\n        // prettier-ignore\n        (\n            /* hasDebt */,\n            /* activeCurrencies */,\n            uint8 assetArrayLength,\n            /* nextSettleTime */\n        ) = nToken.portfolioState.storeAssets(nToken.tokenAddress);\n        BalanceHandler.setBalanceStorageForNToken(\n            nToken.tokenAddress,\n            currencyId,\n            nToken.cashBalance\n        );\n        nTokenHandler.setArrayLengthAndInitializedTime(\n            nToken.tokenAddress,\n            assetArrayLength,\n            nToken.lastInitializedTime\n        );\n\n        emit MarketsInitialized(uint16(currencyId));\n    }\n\n    function finalizeMarket(\n        MarketParameters memory market,\n        uint16 currencyId,\n        nTokenPortfolio memory nToken\n    ) internal {\n        // Always reference the current settlement date\n        uint256 settlementDate = DateTime.getReferenceTime(block.timestamp) + Constants.QUARTER;\n        market.setMarketStorageForInitialize(currencyId, settlementDate);\n\n        BitmapAssetsHandler.addifCashAsset(\n            nToken.tokenAddress,\n            currencyId,\n            market.maturity,\n            nToken.lastInitializedTime,\n            market.totalfCash.neg()\n        );\n    }\n\n    /// @notice Get a list of deployed library addresses (sorted by library name)\n    function getLibInfo() external pure returns (address) {\n        return address(nTokenMintAction);\n    }\n}\n","sourcePath":"contracts/external/actions/InitializeMarketsAction.sol","type":"contract","deployment":{"address":"0xb15167FfF26202Aa3d20Ecfd7f46a34Fa4126e49","chainid":"5","blockHeight":10202768}}