{"abi":[{"inputs":[{"internalType":"uint16","name":"currencyId","type":"uint16"}],"name":"accruePrimeInterest","outputs":[{"components":[{"internalType":"int256","name":"supplyFactor","type":"int256"},{"internalType":"int256","name":"debtFactor","type":"int256"},{"internalType":"uint256","name":"oracleSupplyRate","type":"uint256"}],"internalType":"struct PrimeRate","name":"pr","type":"tuple"},{"components":[{"internalType":"uint256","name":"lastAccrueTime","type":"uint256"},{"internalType":"uint256","name":"totalPrimeSupply","type":"uint256"},{"internalType":"uint256","name":"totalPrimeDebt","type":"uint256"},{"internalType":"uint256","name":"oracleSupplyRate","type":"uint256"},{"internalType":"uint256","name":"lastTotalUnderlyingValue","type":"uint256"},{"internalType":"uint256","name":"underlyingScalar","type":"uint256"},{"internalType":"uint256","name":"supplyScalar","type":"uint256"},{"internalType":"uint256","name":"debtScalar","type":"uint256"},{"internalType":"uint256","name":"rateOracleTimeWindow","type":"uint256"}],"internalType":"struct PrimeCashFactors","name":"factors","type":"tuple"}],"stateMutability":"nonpayable","type":"function"},{"inputs":[{"internalType":"uint16","name":"currencyId","type":"uint16"},{"internalType":"uint88","name":"amountToDepositExternalPrecision","type":"uint88"}],"name":"calculateNTokensToMint","outputs":[{"internalType":"uint256","name":"","type":"uint256"}],"stateMutability":"view","type":"function"},{"inputs":[{"internalType":"uint16","name":"currencyId","type":"uint16"},{"internalType":"int256","name":"primeCashBalance","type":"int256"},{"internalType":"bool","name":"convertToUnderlying","type":"bool"}],"name":"convertCashBalanceToExternal","outputs":[{"internalType":"int256","name":"","type":"int256"}],"stateMutability":"view","type":"function"},{"inputs":[{"internalType":"uint16","name":"currencyId","type":"uint16"},{"internalType":"int256","name":"nTokenBalance","type":"int256"}],"name":"convertNTokenToUnderlying","outputs":[{"internalType":"int256","name":"","type":"int256"}],"stateMutability":"view","type":"function"},{"inputs":[{"internalType":"uint16","name":"currencyId","type":"uint16"},{"internalType":"uint256","name":"maturity","type":"uint256"},{"internalType":"int256","name":"fCashBalance","type":"int256"},{"internalType":"uint256","name":"blockTime","type":"uint256"}],"name":"convertSettledfCash","outputs":[{"internalType":"int256","name":"signedPrimeSupplyValue","type":"int256"}],"stateMutability":"view","type":"function"},{"inputs":[{"internalType":"uint16","name":"currencyId","type":"uint16"},{"internalType":"int256","name":"underlyingExternal","type":"int256"}],"name":"convertUnderlyingToPrimeCash","outputs":[{"internalType":"int256","name":"","type":"int256"}],"stateMutability":"view","type":"function"},{"inputs":[{"internalType":"uint16","name":"currencyId","type":"uint16"},{"internalType":"int88","name":"fCashAmount","type":"int88"},{"internalType":"uint256","name":"marketIndex","type":"uint256"},{"internalType":"uint256","name":"blockTime","type":"uint256"}],"name":"getCashAmountGivenfCashAmount","outputs":[{"internalType":"int256","name":"","type":"int256"},{"internalType":"int256","name":"","type":"int256"}],"stateMutability":"view","type":"function"},{"inputs":[{"internalType":"uint16","name":"currencyId","type":"uint16"},{"internalType":"uint256","name":"fCashAmount","type":"uint256"},{"internalType":"uint256","name":"maturity","type":"uint256"},{"internalType":"uint32","name":"minLendRate","type":"uint32"},{"internalType":"uint256","name":"blockTime","type":"uint256"}],"name":"getDepositFromfCashLend","outputs":[{"internalType":"uint256","name":"depositAmountUnderlying","type":"uint256"},{"internalType":"uint256","name":"depositAmountPrimeCash","type":"uint256"},{"internalType":"uint8","name":"marketIndex","type":"uint8"},{"internalType":"bytes32","name":"encodedTrade","type":"bytes32"}],"stateMutability":"view","type":"function"},{"inputs":[],"name":"getLibInfo","outputs":[{"internalType":"address","name":"","type":"address"}],"stateMutability":"pure","type":"function"},{"inputs":[{"internalType":"uint256","name":"maturity","type":"uint256"},{"internalType":"uint256","name":"blockTime","type":"uint256"}],"name":"getMarketIndex","outputs":[{"internalType":"uint8","name":"marketIndex","type":"uint8"}],"stateMutability":"pure","type":"function"},{"inputs":[{"internalType":"uint16","name":"currencyId","type":"uint16"},{"internalType":"uint256","name":"maturity","type":"uint256"},{"internalType":"int256","name":"notional","type":"int256"},{"internalType":"uint256","name":"blockTime","type":"uint256"},{"internalType":"bool","name":"riskAdjusted","type":"bool"}],"name":"getPresentfCashValue","outputs":[{"internalType":"int256","name":"presentValue","type":"int256"}],"stateMutability":"view","type":"function"},{"inputs":[{"internalType":"uint16","name":"currencyId","type":"uint16"},{"internalType":"uint256","name":"fCashBorrow","type":"uint256"},{"internalType":"uint256","name":"maturity","type":"uint256"},{"internalType":"uint32","name":"maxBorrowRate","type":"uint32"},{"internalType":"uint256","name":"blockTime","type":"uint256"}],"name":"getPrincipalFromfCashBorrow","outputs":[{"internalType":"uint256","name":"borrowAmountUnderlying","type":"uint256"},{"internalType":"uint256","name":"borrowAmountPrimeCash","type":"uint256"},{"internalType":"uint8","name":"marketIndex","type":"uint8"},{"internalType":"bytes32","name":"encodedTrade","type":"bytes32"}],"stateMutability":"view","type":"function"},{"inputs":[{"internalType":"uint16","name":"currencyId","type":"uint16"},{"internalType":"int88","name":"netCashToAccount","type":"int88"},{"internalType":"uint256","name":"marketIndex","type":"uint256"},{"internalType":"uint256","name":"blockTime","type":"uint256"}],"name":"getfCashAmountGivenCashAmount","outputs":[{"internalType":"int256","name":"","type":"int256"}],"stateMutability":"view","type":"function"},{"inputs":[{"internalType":"uint16","name":"currencyId","type":"uint16"},{"internalType":"uint256","name":"borrowedAmountExternal","type":"uint256"},{"internalType":"uint256","name":"maturity","type":"uint256"},{"internalType":"uint32","name":"maxBorrowRate","type":"uint32"},{"internalType":"uint256","name":"blockTime","type":"uint256"},{"internalType":"bool","name":"useUnderlying","type":"bool"}],"name":"getfCashBorrowFromPrincipal","outputs":[{"internalType":"uint88","name":"fCashDebt","type":"uint88"},{"internalType":"uint8","name":"marketIndex","type":"uint8"},{"internalType":"bytes32","name":"encodedTrade","type":"bytes32"}],"stateMutability":"view","type":"function"},{"inputs":[{"internalType":"uint16","name":"currencyId","type":"uint16"},{"internalType":"uint256","name":"depositAmountExternal","type":"uint256"},{"internalType":"uint256","name":"maturity","type":"uint256"},{"internalType":"uint32","name":"minLendRate","type":"uint32"},{"internalType":"uint256","name":"blockTime","type":"uint256"},{"internalType":"bool","name":"useUnderlying","type":"bool"}],"name":"getfCashLendFromDeposit","outputs":[{"internalType":"uint88","name":"fCashAmount","type":"uint88"},{"internalType":"uint8","name":"marketIndex","type":"uint8"},{"internalType":"bytes32","name":"encodedTrade","type":"bytes32"}],"stateMutability":"view","type":"function"},{"inputs":[{"internalType":"address","name":"account","type":"address"},{"internalType":"uint256","name":"blockTime","type":"uint256"}],"name":"nTokenGetClaimableIncentives","outputs":[{"internalType":"uint256","name":"","type":"uint256"}],"stateMutability":"view","type":"function"},{"inputs":[{"internalType":"uint16","name":"currencyId","type":"uint16"}],"name":"nTokenPresentValueAssetDenominated","outputs":[{"internalType":"int256","name":"","type":"int256"}],"stateMutability":"view","type":"function"},{"inputs":[{"internalType":"uint16","name":"currencyId","type":"uint16"}],"name":"nTokenPresentValueUnderlyingDenominated","outputs":[{"internalType":"int256","name":"","type":"int256"}],"stateMutability":"view","type":"function"},{"inputs":[],"name":"owner","outputs":[{"internalType":"address","name":"","type":"address"}],"stateMutability":"view","type":"function"},{"inputs":[],"name":"pauseGuardian","outputs":[{"internalType":"address","name":"","type":"address"}],"stateMutability":"view","type":"function"},{"inputs":[],"name":"pauseRouter","outputs":[{"internalType":"address","name":"","type":"address"}],"stateMutability":"view","type":"function"}],"bytecode":"608060405234801561001057600080fd5b5061541f806100206000396000f3fe608060405234801561001057600080fd5b50600436106101375760003560e01c806382463367116100b8578063bac9e8b11161007c578063bac9e8b114610286578063c4c96dae146102a8578063c50a6134146102b0578063c52c43e1146102d1578063f11ff573146102e4578063f83a8608146102f757610137565b8063824633671461023d5780638355e895146102455780638da5cb5b1461025857806397d6db2e14610260578063aaae47b51461027357610137565b8063416a1587116100ff578063416a1587146101c15780635953c77b146101e45780636a09a2a3146102045780636d48c794146102175780636ebbf1741461022a57610137565b8063094614df1461013c5780630eb49480146101665780631a05bce11461018657806324a3d622146101995780633b2987b3146101ae575b600080fd5b61014f61014a366004614ef4565b61030a565b60405161015d929190615167565b60405180910390f35b610179610174366004614f3c565b610328565b60405161015d919061515e565b610179610194366004614e84565b61035f565b6101a1610375565b60405161015d919061510b565b6101796101bc366004614e84565b610384565b6101d46101cf366004614fc3565b6103a7565b60405161015d9493929190615399565b6101f76101f23660046150c7565b61044d565b60405161015d91906153db565b61017961021236600461506e565b610479565b610179610225366004614e9e565b6104f5565b610179610238366004614eb9565b61055c565b6101a16105bf565b610179610253366004614ef4565b6105ce565b6101a16105f2565b61017961026e366004614e4e565b610609565b6101d4610281366004614fc3565b610741565b610299610294366004615010565b6107d3565b60405161015d939291906153b7565b6101a161084e565b6102c36102be366004614e84565b610866565b60405161015d9291906152fd565b6101796102df366004614f74565b610891565b6101796102f2366004614e9e565b6108d9565b610299610305366004615010565b61091c565b60008061031b868686866000610981565b9150915094509492505050565b60008184111561033757600080fd5b60006103438684610a7a565b5090506103538187878787610b33565b9150505b949350505050565b60008061036b83610b5a565b509150505b919050565b6002546001600160a01b031681565b600080600061039284610b5a565b80516040015191935091506103579083610b8f565b6000806000806103b7878661044d565b915060008260ff16116103c957600080fd5b6a7fffffffffffffffffffff88106103e057600080fd5b60006103f36103ee8a610bbb565b610bd5565b905060008061040e8c848760ff168b8d63ffffffff16610981565b9150915061041c8c82610be3565b965061042782610c2f565b955061043960018685600a0b8c610c3e565b508094505050505095509550955095915050565b600080600061045e60078686610c9c565b915091508061046d5781610470565b60005b95945050505050565b600061048483610d2b565b60006104938461ffff16610d68565b905060006104aa826001600160581b038616610d7b565b90506104b4614b82565b6104be8187610dab565b8051604001516000906104dd9083906104d79086610dc4565b42610de6565b90506104e881610c2f565b9450505050505b92915050565b600080600061050385610b5a565b91509150600061052a82604001516105248588610e9390919063ffffffff16565b90610ee1565b8251604001519091506000906105409083610b8f565b90506104e86105578861055284610f12565b610be3565b610bbb565b60008161056a5750816105b8565b60006105768542610a7a565b50905060006105858286610b8f565b905060006105996105578861055285610f12565b9050600082126105a957806105b2565b6105b281610bd5565b93505050505b9392505050565b6001546001600160a01b031681565b60006105d985610d2b565b60006105e486610f33565b905061035385858584610f54565b60005464010000000090046001600160a01b031681565b60008061061584610fe6565b905061061f614bcb565b600061062a8361109a565b156106a05760608301516106429083908890866110a7565b6000826040015113156106a0576000610662836000015161ffff166110ca565b9050600061067082886110f0565b50915050600061068e8584846106898960400151610c2f565b611186565b905061069a84826112b3565b93505050505b60808301515b6001600160701b03198116156107375760f081901c613fff166106cb848983886110a7565b6000846040015113156107245760006106eb856000015161ffff166110ca565b905060006106f9828a6110f0565b5091505060006107128784846106898b60400151610c2f565b905061071e86826112b3565b95505050505b5060101b6001600160801b0319166106a6565b5095945050505050565b600080600080610751878661044d565b915060008260ff161161076357600080fd5b6a7fffffffffffffffffffff881061077a57600080fd5b600061078589610bbb565b90506000806107a08c848760ff168b8d63ffffffff16610981565b915091506107ae8c82610be3565b96506107c16107bc83610bd5565b610c2f565b955061043960008685600a0b8c610c3e565b60008060006107e2878661044d565b915060008260ff16116107f457600080fd5b6000806108028b8b886112c5565b91509150600061081f6108148461132b565b8660ff168a85610f54565b90506000811261082e57600080fd5b61083b600186838c610c3e565b9d959c509a509398505050505050505050565b73__MigrateIncentives_____________________90565b61086e614c27565b610876614c48565b61087f8361135d565b915061088a8361136f565b9050915091565b60008061089d87610f33565b905082156108b8576108b181868887611437565b9150610737565b6108ce8587866108c9858383611487565b611570565b979650505050505050565b6000806108e68442610a7a565b50905060006108f88561ffff16610d68565b905060006109068286610d7b565b90506109128382610dc4565b9695505050505050565b600080600061092b878661044d565b915060008260ff161161093d57600080fd5b60008061094b8b8b886112c5565b91509150600061096561081461096085610bd5565b61132b565b90508060001261097457600080fd5b61083b600086838c610c3e565b60008061098d87610d2b565b600061099888610f33565b90506109a2614c94565b6109b082828960008a6115b6565b858160200151116109dc5760405162461bcd60e51b81526004016109d390615279565b60405180910390fd5b60208101518690036000806109f88486600a8e900b868e611631565b925050915087600014610a565760008b600a0b1215610a365787811115610a315760405162461bcd60e51b81526004016109d390615249565b610a56565b87811015610a565760405162461bcd60e51b81526004016109d390615249565b60408501518290610a679082610b8f565b9650965050505050509550959350505050565b610a82614c27565b610a8a614c48565b610a938461136f565b90508281600001511015610ac4576000610aac85611771565b9050610aba858383876117ec565b509150610ad19050565b80518314610ad157600080fd5b6040518060600160405280610afa6105578460a001518560c0015161189090919063ffffffff16565b8152602001610b1d6105578460a001518560e0015161189090919063ffffffff16565b8152602001826060015181525091509250929050565b600080610b418686856118b7565b9050610b4e8782866118df565b50979650505050505050565b6000610b64614b82565b42610b6d614b82565b610b778186610dab565b6000610b83828461194d565b94509092505050915091565b60006105b86ec097ce7bc90715b34b9f1000000000610524856000015185610e9390919063ffffffff16565b60006001600160ff1b03821115610bd157600080fd5b5090565b60006104ef60001983610e93565b600080610bf38461ffff16610d68565b90506000808412610c1557610c10610c0b8386611a01565b610f12565b610c28565b610c28610c2185610bd5565b8390611a39565b9050610470815b600080821215610bd157600080fd5b6000806000610c4c85610f12565b90506001600160581b03811115610c6257600080fd5b60788463ffffffff16901b609882901b60f08860ff16901b60f88a6005811115610c8857fe5b60ff16901b17171797909650945050505050565b60008060008511610cac57600080fd5b6007851115610cba57600080fd5b6000610cc584611a75565b905060015b868111610d1d576000610ce6610cdf83611a96565b84906112b3565b905086811415610cfe5750925060009150610d239050565b86811115610d145750925060019150610d239050565b50600101610cca565b50600080fd5b935093915050565b8061ffff166000108015610d49575060005461ffff90811690821611155b610d655760405162461bcd60e51b81526004016109d3906152a5565b50565b610d70614cdc565b6104ef826001611b3a565b60006305f5e10083604001511415610d945750806104ef565b60408301516105b890610524846305f5e100610e93565b610db58282611bd4565b610dbe81610f33565b90915250565b81516000906105b890610524846ec097ce7bc90715b34b9f1000000000610e93565b600080831215610df557600080fd5b82610e02575060006105b8565b608084015115610e3a576000610e1785611c70565b9050828111610e385760405162461bcd60e51b81526004016109d3906151a5565b505b6000610e46858461194d565b90506000811215610e5657600080fd5b6040850151610e6857839150506105b8565b610e8381610524876040015187610e9390919063ffffffff16565b9150506105b8565b509392505050565b818102600019831415610ec357811580610eb5575082828281610eb257fe5b05145b610ebe57600080fd5b6104ef565b821580610ed8575081838281610ed557fe5b05145b6104ef57600080fd5b600081600019148015610ef75750600160ff1b83145b15610f0157600080fd5b818381610f0a57fe5b059392505050565b600080821215610f2c57610f2582610bd5565b9050610370565b5080610370565b610f3b614d0b565b6000610f478342610a7a565b5090506105b88382611ca1565b6000610f5e614c94565b610f6c8382876000886115b6565b83816020015111610f8f5760405162461bcd60e51b81526004016109d390615279565b60008482602001510390506000610faa856000015188611ce4565b9050610fda8184604001518a600a0b610fd487606001518a60400151610b8f90919063ffffffff16565b86611cfe565b98975050505050505050565b610fee614d37565b6000610ff8611e3a565b6001600160a01b03841660009081526020918252604090819020815160c081018352905464ffffffffff811682526001600160f81b0319600160281b820460f81b169382019390935260ff600160301b840481169282019290925261ffff600160381b84041660608201526001600160701b03196901000000000000000000840460701b166080820152600160d81b90920416151560a0820152915050919050565b6060015161ffff16151590565b6110b18242610a7a565b506101208501526110c484848484611e47565b50505050565b6000806110d5611eef565b6000938452602052505060409020546001600160a01b031690565b60008060006110fe85611efc565b9194509250905080841180156111145750600081115b80156111205750600083115b1561117f57600061113086611f5d565b505050915050600061115b6111526305f5e1008461189090919063ffffffff16565b84880387611fc6565b905061116784826112b3565b93506001600160801b03841061117c57600080fd5b50505b9250925092565b60e0840151600090156112475773__MigrateIncentives_____________________63e0c01a72856111bb8860400151610c2f565b8860e001518961010001516040518563ffffffff1660e01b81526004016111e59493929190615138565b60206040518083038186803b1580156111fd57600080fd5b505af4158015611211573d6000803e3d6000fd5b505050506040513d601f19601f8201168201806040525081019061123591906150af565b600060e0870181905261010087015290505b61128961128286610100015161127c670de0b6b3a7640000611276886112708c60400151610c2f565b90611890565b90611fe8565b90612007565b82906112b3565b90506112a1670de0b6b3a76400006112768486611890565b85610100018181525050949350505050565b6000828201838110156105b857600080fd5b60006112cf614d0b565b60006112da85610bbb565b90506112e586610f33565b915083156113105760006112fc8761ffff16610d68565b90506113088183610d7b565b935050611322565b604082015161131f9082610b8f565b92505b50935093915050565b60006a7fffffffffffffffffffff19821280159061135457506a7fffffffffffffffffffff8213155b610bd157600080fd5b611365614c27565b6104ef824261201c565b611377614c48565b60006113816120dd565b61ffff93841660009081526020918252604090819020805464ffffffffff81168652600160281b81046001600160581b03908116948701949094526001820154841692860192909252600160d81b820463ffffffff166060860152600160801b9091049091166080840152600201546001600160501b0380821660a0850152600160501b8204811660c0850152600160a01b82041660e0840152600160f01b900460ff1661012c02909216610100820152919050565b60008361144657506000610357565b600080851361145f5761145a8685856120ea565b61146a565b61146a868585612126565b9050633b9aca0081131561147d57600080fd5b6103538582612167565b600080600061149b86602001518686610c9c565b9150915060006114aa87612180565b9050816114ca5786516114c39061ffff16878388612194565b9350611566565b60006114d586611a75565b905060006114ec6114e586611a96565b83906112b3565b905060006115048a6000015161ffff1683868b612194565b905060008087600114156115225750506040808b0151015188611551565b61153861153160018a03611a96565b86906112b3565b905061154e8c6000015161ffff1682888d612194565b91505b61155e818584868f612233565b985050505050505b5050509392505050565b60008461157f57506000610357565b600061158b8585612007565b905060006115998285612291565b9050633b9aca008113156115ac57600080fd5b6108ce8782612167565b826001111580156115cb575084602001518311155b6115e75760405162461bcd60e51b81526004016109d390615221565b60006116046115f585611a96565b6115fe84611a75565b906112b3565b9050611629866000015161ffff1682848661161e8b612180565b8a94939291906122fe565b505050505050565b600080600080841161164257600080fd5b8588604001511361165b57506000915081905080611766565b600061166b886000015186611ce4565b9050600061168a8a606001518a60400151610b8f90919063ffffffff16565b9050600080600061169f858e8e878f8f612328565b985091945092509050826116c25760008060009750975097505050505050611766565b60408d01516116d1908c612402565b60408e01526116e0848361241e565b935060006116f460008f6040015187612434565b9050633b9aca00811115611718576000806000985098509850505050505050611766565b60006117248783612471565b90508061174257600080600099509950995050505050505050611766565b60a08f01525060408c015161175b908e90858585612524565b909850965050505050505b955095509592505050565b60008061177d83612579565b6001600160a01b031663a77c05b86040518163ffffffff1660e01b8152600401604080518083038186803b1580156117b457600080fd5b505afa1580156117c8573d6000803e3d6000fd5b505050506040513d601f19601f8201168201806040525081019061035791906150e8565b6117f4614c48565b60008060006118048886896125a9565b60c08b019290925260e08a01929092526020890151919350915061182890836112b3565b60208801526080870151600090156118565760808801516118539061184d8982612007565b906126b4565b90505b61187661186b670de0b6b3a7640000836112b3565b60a08a0151906126d1565b60a089015250506080860194909452505082529092909150565b60008261189f575060006104ef565b828202828482816118ac57fe5b04146105b857600080fd5b6118bf614c27565b60006118cb85856126ee565b909250905080610e8b576107378584610a7a565b6000806118ec8484610dc4565b91506118f88483612781565b90506000821215610d2357611943600161193d876000015161052489602001516119378a602001516105248c600001518b610e9390919063ffffffff16565b90610e93565b906127ba565b9150935093915050565b60008061195984611c70565b9050828111611969576001810392505b50600061197684846127d0565b50905060006119a48560c0015186600001516000015161ffff16876080015187896000015160200151612925565b9050600081156119d65760c08601518651805160808901516119d2939261ffff9092169189906000886129d1565b5090505b606086015186516040015161091291906119fb906119f49085610dc4565b869061241e565b9061241e565b60006305f5e10083604001511415611a1a5750806104ef565b6105b86305f5e100610524856040015185610e9390919063ffffffff16565b60006305f5e10083604001511215611a6157611a5a60016119fb8585611a01565b90506104ef565b6105b883611a7084600161241e565b611a01565b60006276a700821015611a8757600080fd5b6276a700825b06909103919050565b60008160011415611aab57506276a700610370565b8160021415611abe575062ed4e00610370565b8160031415611ad257506301da9c00610370565b8160041415611ae657506303b53800610370565b8160051415611afa57506309450c00610370565b8160061415611b0e575063128a1800610370565b8160071415611b2257506325143000610370565b60405162461bcd60e51b81526004016109d3906151fa565b611b42614cdc565b6000611b4c612a4f565b6000858152602082815260408083208715158452825291829020825160a08101845281546001600160a01b038116825260ff600160a01b82048116151594830194909452600160b01b81048416600a0a9482019490945293945092916060830191600160a81b909104166005811115611bc157fe5b8152600060209091015295945050505050565b611be18161ffff166110ca565b6001600160a01b031660c0830181905260009081908190611c0190611f5d565b94509450945050506000611c188660c00151611efc565b505060808701859052604087018190526001600160d81b0319831660a088015260c0870151909150611c4c90846000612a5c565b602087015260c0860151611c609086612aef565b6060909601959095525050505050565b6000816080015160001415611c8757506000610370565b60808201516276a70090611c9a90611a75565b0192915050565b611ca9614d0b565b6000611cb88461ffff16612b48565b6040805160808101825261ffff96909616865260ff821660208701528501939093525050606082015290565b611cec614d6c565b6105b88383611cf9612b65565b612b72565b600083611d0a57600080fd5b82841315611d2a5760405162461bcd60e51b81526004016109d3906152d2565b6000806000611d4e8989888860008c13611d45576001611d49565b6000195b612bc9565b90506000871215611d7857611d6287610bd5565b9250611d716103ee8883612167565b9150611da5565b611d856103ee8883612167565b9250611da26103ee611d9b8b6080015188612bfa565b8990612167565b91505b506000611db689898886898c612c60565b905060005b60fa8160ff161015611e215783830380611ddc578395505050505050610470565b6000611dec8c8c8b888c8f612c60565b90506000611e11611e0a611e0084886127ba565b6105248587610e93565b87906127ba565b9596509093505050600101611dbb565b5060405162461bcd60e51b81526004016109d3906151d2565b6000806104ef6001612c7f565b8161ffff166000108015611e615750613fff61ffff831611155b611e6a57600080fd5b61ffff8216808552611e7d908290612c91565b15611eac57611e928383866101200151612d1b565b61010088015260e087015260408601526020850152611eca565b6000602085018190526040850181905260e085018190526101008501525b50506000606083018190526080830181905260a0830181905260c09092019190915250565b6000806104ef6003612c7f565b600080600080611f0a612dd5565b6001600160a01b0395909516600090815260209590955250506040909220546bffffffffffffffffffffffff811693600160601b82046001600160801b03169350600160e01b90910463ffffffff169150565b600080600080600080611f6e612de2565b6001600160a01b039097166000908152602097909752505060409094205461ffff81169563ffffffff62010000830481169650600160301b830416945060ff600160501b8304169350600160581b90910460d81b9150565b6000610357826112766301da9c00818861127089670de0b6b3a7640000611890565b6000808211611ff657600080fd5b818381611fff57fe5b049392505050565b60008282111561201657600080fd5b50900390565b612024614c27565b600061202f8461136f565b9050828160000151101561206e5760008061204986612def565b9050612057868483886117ec565b9093509150612067868385612e48565b505061207b565b8051831461207b57600080fd5b60405180606001604052806120a46105578460a001518560c0015161189090919063ffffffff16565b81526020016120c76105578460a001518560e0015161189090919063ffffffff16565b8152602001826060015181525091505092915050565b6000806104ef601d612c7f565b6000806120f885858561307c565b905080156121185761211361210d8585612007565b82612291565b610470565b633b9aca0095945050505050565b6000806121348585856130cc565b905061214361210d8585612007565b9150600061215086613106565b90508281121561215e578092505b50509392505050565b60006105b86121768484610e93565b633b9aca00610ee1565b6060015161012c60089190911c60ff160290565b60008061219f613121565b905060006276a7006121b085611a75565b6000898152602085815260408083208b84528252808320949093018083529390522080549192509063ffffffff600160a01b8204811691600160c01b8104821691600160e01b90910416816122175760405162461bcd60e51b81526004016109d390615175565b6122248184848c8c61312e565b9b9a5050505050505050505050565b600081861061224157600080fd5b84821061224d57600080fd5b8383106122735761226c846115fe8888036112768388038b8803611890565b9050610470565b61226c61228a8787036112768688038a8703611890565b8590612007565b6000806122ae6122a96301da9c006112768688611890565b6131b6565b90506122c081621dcd6560491b6131d4565b90506122d36122ce82613227565b613249565b90506122e581621dcd6560491b61329e565b905060006122f2826132d4565b60070b95945050505050565b60006276a70061230d85611a75565b01905061231f878787878787876132dd565b50505050505050565b600080600080600061233f878b604001518a612434565b9050633b9aca00811115612361576000806000809450945094509450506123f5565b600061236d8c83612471565b905060006123886103ee612381848b612bfa565b8b90613314565b90506123988d8360008c1261332d565b93506123aa6103ee612381868b612bfa565b9650808713156123b957600080fd5b60006123c582896127ba565b90506123df60646105246123d88f6133a5565b8490610e93565b95506123ee6103ee898861241e565b9650505050505b9650965096509692505050565b600061240e83836127ba565b905060008112156104ef57600080fd5b818101828112156000831215146104ef57600080fd5b60008083121561244357600080fd5b600082121561245157600080fd5b6103576107bc612461848661241e565b61246b8688612402565b90613314565b60008083608001511161248357600080fd5b633b9aca0082111561249457600080fd5b825182116124b35782516040840151611a5a9190611276908590611890565b826020015182116124eb576040830151835160208501516060860151611a5a93926115fe928190039161127691880390859003611890565b6105b883606001516115fe8560200151633b9aca000361127687606001518860800151038860200151880361189090919063ffffffff16565b600080806125328786610dc4565b6060890151909150612544908261241e565b60608901524260e0890152600061255b8886610dc4565b905060006125698989610dc4565b9a91995090975050505050505050565b6000806125846133b2565b61ffff939093166000908152602093909352505060409020546001600160a01b031690565b6000806000806000806125bc89886133bf565b895190955091935091506000906125e3906125d8908b90612007565b633b9aca0090611890565b905061261d6126126301da9c006125fa8585611890565b8161260157fe5b670de0b6b3a76400009190046112b3565b60e08a0151906126d1565b965061263f6126346301da9c006125fa8785611890565b60c08a0151906126d1565b9550818314156126565750600093506126ab915050565b600061267861266d6301da9c006125fa8786611890565b60e08b0151906126d1565b905060006126868983612007565b90506126a388611276838d6040015161189090919063ffffffff16565b965050505050505b93509350935093565b60006105b86126cb84670de0b6b3a7640000611890565b83611fe8565b60006105b86126e08484611890565b670de0b6b3a7640000611fe8565b6126f6614c27565b600080612701613459565b61ffff861660009081526020828152604080832088845290915290208054600160f01b900460ff16935090915082156127785780546001600160501b03600160a01b8204811691612753911682611890565b8552815461277190600160501b90046001600160501b031682611890565b6020860152505b50509250929050565b6000808212156127b4576127af600161193d8560200151610524876000015187610e9390919063ffffffff16565b6105b8565b50919050565b808203828113156000831215146104ef57600080fd5b602082015151516000906060908067ffffffffffffffff811180156127f457600080fd5b5060405190808252806020026020018201604052801561281e578160200160208202803683370190505b509150612829614c94565b60005b8281101561291b57865161284790836001808501908a6115b6565b6000876020015160000151828151811061285d57fe5b6020026020010151905060008160200151905060008061287d8487613466565b915091506128a661289f8c60c001518d600001516000015161ffff16866134e1565b829061241e565b8886815181106128b257fe5b60200260200101818152505060006128fc6128f56128e98b89815181106128d557fe5b6020026020010151878f8c60c00151611570565b8e516040015190610dc4565b849061241e565b90506129088a8261241e565b9950506001909401935061282c92505050565b5050509250929050565b60006002821161293757506000610470565b60006129438787613526565b905080612951579050610470565b600061295c85611a75565b90508581141561298657507440008000000200200000000200000020000000002019169050610470565b60015b8481116129c657600061299b82611a96565b8301905060006129ab898361355b565b5090506129ba85826000613666565b94505050600101612989565b508192505050610470565b60008060006129df846136b1565b90505b8015612a425760006129f489836136d6565b90506000612a068c8c848c8c8c613789565b9050612a12858261241e565b94506000811215612a2257600193505b612a2e86846000613666565b9550612a39866136b1565b925050506129e2565b5097509795505050505050565b6000806104ef6007612c7f565b612a64614db1565b612a6c614db1565b60ff8416612a7b5790506105b8565b612a8585856137e5565b815260ff841660608201528267ffffffffffffffff81118015612aa757600080fd5b50604051908082528060200260200182016040528015612ae157816020015b612ace614dd9565b815260200190600190039081612ac65790505b506020820152949350505050565b600080612afa6137f1565b6001600160a01b03851660009081526020828152604080832061ffff8816845290915281208054600160a81b9004600a90810b900b9450919250831215612b4057600080fd5b505092915050565b600080612b536137fe565b60009384526020525050604090205490565b6000806104ef601b612c7f565b612b7a614d6c565b6000612b858461380b565b61ffff861660009081526020859052604081209192509060048610612bab576001612bae565b60005b60ff1660028110612bbb57fe5b015490506109128282613844565b600080612be087612bdb858989612434565b612471565b90506000612bf288836000871261332d565b9050610fda81865b600080612c126122a96301da9c006112768787611890565b90506000612c2682621dcd6560491b6131d4565b90506000612c3382613249565b90506000612c4782621dcd6560491b61329e565b9050612c52816132d4565b60070b979650505050505050565b600080612c708888888789612bc9565b9050610fda6119f48483612167565b6000620f4240826026811115611c9a57fe5b60008115801590612ca45750613fff8211155b612cad57600080fd5b6080830151606084015161ffff16831415612ccc5760019150506104ef565b6001600160701b0319811615612d115760f081901c613fff1683811415612cfe5750600160fe1b9081161490506104ef565b5060101b6001600160801b031916612ccc565b5060009392505050565b6000806000806000612d2b6137f1565b6001600160a01b03891660009081526020828152604080832061ffff8c168452909152902080546001600160501b0381169650600160501b900463ffffffff1694509091508315612d98578054612d9190600160701b900466ffffffffffffff16613963565b9250612dad565b8054600160701b900466ffffffffffffff1692505b8054612dc8908890600160a81b9004600a90810b900b613971565b9550505093509350935093565b6000806104ef6011612c7f565b6000806104ef6002612c7f565b600080612dfb83612579565b6001600160a01b031663ef81f2166040518163ffffffff1660e01b81526004016040805180830381600087803b158015612e3457600080fd5b505af11580156117c8573d6000803e3d6000fd5b6000612e526120dd565b60008561ffff1681526020019081526020016000209050612e768260000151613998565b815464ffffffffff191664ffffffffff9190911617815560a0820151612e9b906139ac565b60028201805469ffffffffffffffffffff19166001600160501b039290921691909117905560c0820151612ece906139ac565b81600201600a6101000a8154816001600160501b0302191690836001600160501b03160217905550612f038260e001516139ac565b8160020160146101000a8154816001600160501b0302191690836001600160501b03160217905550612f3882602001516139c2565b81546001600160581b0391909116600160281b026fffffffffffffffffffffff0000000000199091161781556040820151612f72906139c2565b6001820180546affffffffffffffffffffff19166001600160581b03929092169190911790556080820151612fa6906139c2565b81546001600160581b0391909116600160801b026affffffffffffffffffffff60801b199091161781556060820151612fde906139d8565b815463ffffffff91909116600160d81b0263ffffffff60d81b19909116178155821561302a57600061300f84610bbb565b905061301b85826139eb565b613028610fee8683613a27565b505b8361ffff167fef25641e225e493886510ca1ad6584fa7b442b9fea820a29d1de3ce27d270fd28360a001518460c001518560e0015160405161306e93929190615383565b60405180910390a250505050565b6000613089848484611487565b9050600061309685613ab1565b90508082116130a95760009150506105b8565b808203915060006130b986613abe565b90508281101561215e5795945050505050565b60006130d9848484611487565b90506130e761128285613acb565b905060006130f485613ad8565b905080821015610e8b57949350505050565b606001516207a12060109190911c60ff1602633b9aca000390565b6000806104ef600a612c7f565b600080831161313c57600080fd5b8186111561314b575083610470565b60006131578388612007565b90508381111561316a5785915050610470565b60006131768286613ae5565b90506000613188633b9aca0083612007565b90506131a9633b9aca0061127661319f8a85611890565b6115fe8c87611890565b9998505050505050505050565b6000677fffffffffffffff8211156131cd57600080fd5b5060401b90565b600081600f0b600014156131e757600080fd5b600082600f0b604085600f0b901b816131fc57fe5b05905060016001607f1b0319811280159061321e575060016001607f1b038113155b6105b857600080fd5b6000600f82900b60016001607f1b0319141561324257600080fd5b5060000390565b6000600160461b82600f0b1261325e57600080fd5b683fffffffffffffffff1982600f0b121561327b57506000610370565b6104ef608083600f0b700171547652b82fe1777d0ffda0d23a7d1202901d613af8565b6000600f83810b9083900b0260401d60016001607f1b0319811280159061321e575060016001607f1b038113156105b857600080fd5b600f0b60401d90565b6132ea87878786856145a8565b6133038760e001518860a001518960c00151858861312e565b60c090970196909652505050505050565b60006105b861332784633b9aca00610e93565b83610ee1565b60008061334c60646112768760e001518761189090919063ffffffff16565b90508460a00151811015613361575060a08401515b8460c00151811115613374575060c08401515b821561338b5761338484826112b3565b9150610e8b565b83811161339a57808403610470565b506000949350505050565b6060015160181c60ff1690565b6000806104ef601f612c7f565b60008060008060008560200151111561340c576134096133f08660c00151876020015161189090919063ffffffff16565b60e0870151604088015161340391611890565b90613ae5565b90505b600061341787614662565b90506134238183612471565b9450811561343a576134378186600161332d565b93505b60208601511561117c5761344e8583614695565b925050509250925092565b6000806104ef601e612c7f565b60008061347684604001516146ae565b801561348757506000846060015112155b61349057600080fd5b6134b3836080015161052486606001518660600151610e9390919063ffffffff16565b91506134d8836080015161052486606001518660400151610e9390919063ffffffff16565b90509250929050565b6000806134ec6146c4565b6001600160a01b03861660009081526020918252604080822087835283528082208683529092522054600f90810b900b9150509392505050565b6000806135316146d1565b6001600160a01b038516600090815260209182526040808220868352909252205491505092915050565b6000806000613569856146de565b90506201518084061561358357600080925092505061365f565b83811061359757600080925092505061365f565b6201518081850304605a81116135b45792506001915061365f9050565b61016881116135f3576000620151806207e900840604820160591901905060068104605a01600682816135e357fe5b066000149450945050505061365f565b61087081116136235760006201518062278d00840604820161016719019050601e8104608701601e82816135e357fe5b611de28111613653576000620151806276a700840604820161086f19019050605a810460c301605a82816135e357fe5b61010060009350935050505b9250929050565b60006001831015801561367b57506101008311155b61368457600080fd5b811561369d5750600160ff1b60001983011c83176105b8565b50600160ff1b60001983011c1983166105b8565b6000816136c057506000610370565b6136c9826146fa565b60ff036001019050919050565b6000816136e257600080fd5b6101008211156136f157600080fd5b60006136fc846146de565b90506000605a841161371757506201518083020190506104ef565b6087841161373f575060591983016207e900908102908206909103016276a7000190506104ef565b60c384116137685750608619830162278d00908102908206909103016301da9c000190506104ef565b5060c21983016276a70090810290820690910301630b1fa8000190506104ef565b6000806137978888886134e1565b90508486116137a7579050610912565b82156137c1576137b984828888611437565b915050610912565b60006137ce858888611487565b90506137dc82888884611570565b92505050610912565b6060610e8b8383614793565b6000806104ef6006612c7f565b6000806104ef6009612c7f565b60008160001061381a57600080fd5b600782111561382857600080fd5b60048210613839576004820361383b565b815b60080292915050565b61384c614d6c565b6064633b9aca008360ff86166020811061386257fe5b1a028161386b57fe5b0481526064633b9aca008360ff86166001016020811061388757fe5b1a028161389057fe5b048160200181815250506138b58260028560ff1601602081106138af57fe5b1a6147ab565b60808201819052610100908360ff8616600301602081106138d257fe5b1a02816138db57fe5b0460408201526080810151610100908360ff8616600401602081106138fc57fe5b1a028161390557fe5b0460608201526207a1208260ff85166005016020811061392157fe5b1a0260a0820152622625a08260ff85166006016020811061393e57fe5b1a0260c08201528160ff84166007016020811061395757fe5b1a60e082015292915050565b600881901c60ff9091161b90565b60008082126139815750806104ef565b82516020840151611a5a9190610524908590610e93565b600064ffffffffff821115610bd157600080fd5b60006001600160501b03821115610bd157600080fd5b60006001600160581b03821115610bd157600080fd5b600063ffffffff821115610bd157600080fd5b60008112156139f957600080fd5b6000613a07610fee84612aef565b9050613a13818361241e565b9050613a22610fee84836147df565b505050565b6000613a31614853565b61ffff8416600090815260209190915260409081902054905163ad1c095d60e01b81526001600160a01b039091169150819063ad1c095d90613a79908790869060040161511f565b600060405180830381600087803b158015613a9357600080fd5b505af1158015613aa7573d6000803e3d6000fd5b5050505050505050565b60006104ef826020614860565b60006104ef826048614860565b60006104ef826028614860565b60006104ef826030614860565b60006105b86126cb84633b9aca00611890565b6000600160461b82600f0b12613b0d57600080fd5b683fffffffffffffffff1982600f0b1215613b2a57506000610370565b6001607f1b60006780000000000000008416600f0b1315613b5c5770016a09e667f3bcc908b2fb1366ea957d3e0260801c5b60008367400000000000000016600f0b1315613b89577001306fe0a31b7152de8d5a46305c85edec0260801c5b60008367200000000000000016600f0b1315613bb6577001172b83c7d517adcdf7c8c50eb14a791f0260801c5b60008367100000000000000016600f0b1315613be35770010b5586cf9890f6298b92b71842a983630260801c5b60008367080000000000000016600f0b1315613c10577001059b0d31585743ae7c548eb68ca417fd0260801c5b60008367040000000000000016600f0b1315613c3d57700102c9a3e778060ee6f7caca4f7a29bde80260801c5b60008367020000000000000016600f0b1315613c6a5770010163da9fb33356d84a66ae336dcdfa3f0260801c5b600083600160381b16600f0b1315613c9357700100b1afa5abcbed6129ab13ec11dc95430260801c5b600083668000000000000016600f0b1315613cbf5770010058c86da1c09ea1ff19d294cf2f679b0260801c5b600083664000000000000016600f0b1315613ceb577001002c605e2e8cec506d21bfc89a23a00f0260801c5b600083662000000000000016600f0b1315613d1757700100162f3904051fa128bca9c55c31e5df0260801c5b600083661000000000000016600f0b1315613d43577001000b175effdc76ba38e31671ca9397250260801c5b600083660800000000000016600f0b1315613d6f57700100058ba01fb9f96d6cacd4b180917c3d0260801c5b600083660400000000000016600f0b1315613d9b5770010002c5cc37da9491d0985c348c68e7b30260801c5b600083660200000000000016600f0b1315613dc7577001000162e525ee054754457d59952920260260801c5b600083600160301b16600f0b1315613df05770010000b17255775c040618bf4a4ade83fc0260801c5b6000836580000000000016600f0b1315613e1b577001000058b91b5bc9ae2eed81e9b7d4cfab0260801c5b6000836540000000000016600f0b1315613e4657700100002c5c89d5ec6ca4d7c8acc017b7c90260801c5b6000836520000000000016600f0b1315613e715770010000162e43f4f831060e02d839a9d16d0260801c5b6000836510000000000016600f0b1315613e9c57700100000b1721bcfc99d9f890ea069117630260801c5b6000836508000000000016600f0b1315613ec75770010000058b90cf1e6d97f9ca14dbcc16280260801c5b6000836504000000000016600f0b1315613ef2577001000002c5c863b73f016468f6bac5ca2b0260801c5b6000836502000000000016600f0b1315613f1d57700100000162e430e5a18f6119e3c02282a50260801c5b600083600160281b16600f0b1315613f46577001000000b1721835514b86e6d96efd1bfe0260801c5b60008364800000000016600f0b1315613f7057700100000058b90c0b48c6be5df846c5b2ef0260801c5b60008364400000000016600f0b1315613f9a5770010000002c5c8601cc6b9e94213c72737a0260801c5b60008364200000000016600f0b1315613fc4577001000000162e42fff037df38aa2b219f060260801c5b60008364100000000016600f0b1315613fee5770010000000b17217fba9c739aa5819f44f90260801c5b60008364080000000016600f0b1315614018577001000000058b90bfcdee5acd3c1cedc8230260801c5b60008364040000000016600f0b131561404257700100000002c5c85fe31f35a6a30da1be500260801c5b60008364020000000016600f0b131561406c5770010000000162e42ff0999ce3541b9fffcf0260801c5b60008364010000000016600f0b131561409657700100000000b17217f80f4ef5aadda455540260801c5b600083638000000016600f0b13156140bf5770010000000058b90bfbf8479bd5a81b51ad0260801c5b600083634000000016600f0b13156140e8577001000000002c5c85fdf84bd62ae30a74cc0260801c5b600083632000000016600f0b131561411157700100000000162e42fefb2fed257559bdaa0260801c5b600083631000000016600f0b131561413a577001000000000b17217f7d5a7716bba4a9ae0260801c5b600083630800000016600f0b131561416357700100000000058b90bfbe9ddbac5e109cce0260801c5b600083630400000016600f0b131561418c5770010000000002c5c85fdf4b15de6f17eb0d0260801c5b600083630200000016600f0b13156141b5577001000000000162e42fefa494f1478fde050260801c5b600083630100000016600f0b13156141de5770010000000000b17217f7d20cf927c8e94c0260801c5b6000836280000016600f0b1315614206577001000000000058b90bfbe8f71cb4e4b33d0260801c5b6000836240000016600f0b131561422e57700100000000002c5c85fdf477b662b269450260801c5b6000836220000016600f0b13156142565770010000000000162e42fefa3ae53369388c0260801c5b6000836210000016600f0b131561427e57700100000000000b17217f7d1d351a389d400260801c5b6000836208000016600f0b13156142a65770010000000000058b90bfbe8e8b2d3d4ede0260801c5b6000836204000016600f0b13156142ce577001000000000002c5c85fdf4741bea6e77e0260801c5b6000836202000016600f0b13156142f657700100000000000162e42fefa39fe95583c20260801c5b6000836201000016600f0b131561431e577001000000000000b17217f7d1cfb72b45e10260801c5b60008361800016600f0b131561434557700100000000000058b90bfbe8e7cc35c3f00260801c5b60008361400016600f0b131561436c5770010000000000002c5c85fdf473e242ea380260801c5b60008361200016600f0b1315614393577001000000000000162e42fefa39f02b772c0260801c5b60008361100016600f0b13156143ba5770010000000000000b17217f7d1cf7d83c1a0260801c5b60008361080016600f0b13156143e1577001000000000000058b90bfbe8e7bdcbe2e0260801c5b60008361040016600f0b131561440857700100000000000002c5c85fdf473dea871f0260801c5b60008361020016600f0b131561442f5770010000000000000162e42fefa39ef44d910260801c5b60008361010016600f0b131561445657700100000000000000b17217f7d1cf79e9490260801c5b600083608016600f0b131561447c5770010000000000000058b90bfbe8e7bce5440260801c5b600083604016600f0b13156144a2577001000000000000002c5c85fdf473de6eca0260801c5b600083602016600f0b13156144c857700100000000000000162e42fefa39ef366f0260801c5b600083601016600f0b13156144ee577001000000000000000b17217f7d1cf79afa0260801c5b600083600816600f0b131561451457700100000000000000058b90bfbe8e7bcd6d0260801c5b600083600416600f0b131561453a5770010000000000000002c5c85fdf473de6b20260801c5b600083600216600f0b1315614560577001000000000000000162e42fefa39ef3580260801c5b600083600116600f0b13156145865770010000000000000000b17217f7d1cf79ab0260801c5b600f83810b60401d603f03900b1c60016001607f1b038111156104ef57600080fd5b60006145b2613121565b6000868152602082815260408083208884528252808320868452825291829020808a5290890187905280546001600160501b03808216938b0193909352600160501b810490921660608a015263ffffffff600160a01b8304811660a08b0152600160c01b8304811660c08b0152600160e01b90920490911660e08901529091508084156146515760018201546001600160501b03166080890152613aa7565b600060808901525050505050505050565b61466a614d6c565b6000614674612b65565b61ffff84166000908152602091909152604081205491506105b89082613844565b60006105b86146a48484611890565b633b9aca00611fe8565b6000600282108015906104ef5750506008101590565b6000806104ef600c612c7f565b6000806104ef600b612c7f565b6000620151808210156146f057600080fd5b6201518082611a8d565b60008161470657600080fd5b600160801b821061471957608091821c91015b600160401b821061472c57604091821c91015b640100000000821061474057602091821c91015b62010000821061475257601091821c91015b610100821061476357600891821c91015b6010821061477357600491821c91015b6004821061478357600291821c91015b6002821061037057600101919050565b6060806147a08484614873565b91506134d88261498b565b60008160ff166096106147c65760ff8216622625a0026104ef565b5060951960ff919091160162e4e1c00263165a0bc00190565b60008112156147ed57600080fd5b60006147f76137f1565b6001600160a01b03851660009081526020828152604080832061ffff8816845290915290209091506148288361132b565b8154600a9190910b6001600160581b0316600160a81b026001600160a81b0390911617905550505050565b6000806104ef6021612c7f565b60609091015160ff911c16622625a00290565b606060088260ff16111561488657600080fd5b6000614890614b4c565b6001600160a01b038516600090815260208290526040812091925060ff851667ffffffffffffffff811180156148c557600080fd5b506040519080825280602002602001820160405280156148ff57816020015b6148ec614dd9565b8152602001906001900390816148e45790505b50905060005b8560ff1681101561073757600083826008811061491e57fe5b019050600083838151811061492f57fe5b602090810291909101810151835461ffff8116825264ffffffffff620100008204169282019290925260ff600160381b8304166040820152600160401b909104600a90810b900b60608201526080019190915250600101614905565b80516060908067ffffffffffffffff811180156149a757600080fd5b506040519080825280602002602001820160405280156149d1578160200160208202803683370190505b50915060005b81811015614a2e5760008482815181106149ed57fe5b60200260200101519050614a0e816000015182602001518360400151614b59565b848381518110614a1a57fe5b6020908102919091010152506001016149d7565b5060015b81811015614b4557805b600081118015614a745750838181518110614a5357fe5b6020026020010151846001830381518110614a6a57fe5b6020026020010151115b15614b3c57838181518110614a8557fe5b6020026020010151846001830381518110614a9c57fe5b6020026020010151856001840381518110614ab357fe5b60200260200101868481518110614ac657fe5b6020026020010182815250828152505050848181518110614ae357fe5b6020026020010151856001830381518110614afa57fe5b6020026020010151866001840381518110614b1157fe5b60200260200101878481518110614b2457fe5b60209081029190910101919091525260001901614a3c565b50600101614a32565b5050919050565b6000806104ef600d612c7f565b67ffff000000000000603084901b1665ffffffffff00600884901b161760ff8216179392505050565b6040518060e00160405280614b95614d0b565b8152602001614ba2614db1565b815260006020820181905260408201819052606082018190526080820181905260a09091015290565b604051806101400160405280600061ffff1681526020016000815260200160008152602001600081526020016000815260200160008152602001600081526020016000815260200160008152602001614c22614c27565b905290565b60405180606001604052806000815260200160008152602001600081525090565b6040518061012001604052806000815260200160008152602001600081526020016000815260200160008152602001600081526020016000815260200160008152602001600081525090565b60405180610100016040528060008019168152602001600081526020016000815260200160008152602001600081526020016000815260200160008152602001600081525090565b6040805160a0810182526000808252602082018190529181018290529060608201908152602001600081525090565b6040805160808101825260008082526020820152908101614d2a614c27565b8152600060209091015290565b6040805160c081018252600080825260208201819052918101829052606081018290526080810182905260a081019190915290565b60405180610100016040528060008152602001600081526020016000815260200160008152602001600081526020016000815260200160008152602001600081525090565b6040518060800160405280606081526020016060815260200160008152602001600081525090565b6040518060c00160405280600061ffff1681526020016000815260200160008152602001600081526020016000815260200160006003811115614c2257fe5b8035801515811461037057600080fd5b803561ffff8116811461037057600080fd5b803563ffffffff8116811461037057600080fd5b60008060408385031215614e60578182fd5b82356001600160a01b0381168114614e76578283fd5b946020939093013593505050565b600060208284031215614e95578081fd5b6105b882614e28565b60008060408385031215614eb0578182fd5b614e7683614e28565b600080600060608486031215614ecd578081fd5b614ed684614e28565b925060208401359150614eeb60408501614e18565b90509250925092565b60008060008060808587031215614f09578081fd5b614f1285614e28565b9350602085013580600a0b8114614f27578182fd5b93969395505050506040820135916060013590565b60008060008060808587031215614f51578384fd5b614f5a85614e28565b966020860135965060408601359560600135945092505050565b600080600080600060a08688031215614f8b578081fd5b614f9486614e28565b9450602086013593506040860135925060608601359150614fb760808701614e18565b90509295509295909350565b600080600080600060a08688031215614fda578081fd5b614fe386614e28565b94506020860135935060408601359250614fff60608701614e3a565b949793965091946080013592915050565b60008060008060008060c08789031215615028578081fd5b61503187614e28565b9550602087013594506040870135935061504d60608801614e3a565b92506080870135915061506260a08801614e18565b90509295509295509295565b60008060408385031215615080578182fd5b61508983614e28565b915060208301356001600160581b03811681146150a4578182fd5b809150509250929050565b6000602082840312156150c0578081fd5b5051919050565b600080604083850312156150d9578182fd5b50508035926020909101359150565b600080604083850312156150fa578182fd5b505080516020909101519092909150565b6001600160a01b0391909116815260200190565b6001600160a01b03929092168252602082015260400190565b6001600160a01b0394909416845260208401929092526040830152606082015260800190565b90815260200190565b918252602082015260400190565b60208082526016908201527513585c9ad95d081b9bdd081a5b9a5d1a585b1a5e995960521b604082015260600190565b60208082526013908201527214995c5d5a5c995cc81cd95d1d1b195b595b9d606a1b604082015260600190565b6020808252600e908201526d4e6f20636f6e76657267656e636560901b604082015260600190565b6020808252600d908201526c092dcecc2d8d2c840d2dcc8caf609b1b604082015260600190565b6020808252600e908201526d125b9d985b1a59081b585c9ad95d60921b604082015260600190565b6020808252601690820152755472616465206661696c65642c20736c69707061676560501b604082015260600190565b602080825260129082015271496e76616c696420626c6f636b2074696d6560701b604082015260600190565b602080825260139082015272125b9d985b1a590818dd5c9c995b98de481a59606a1b604082015260600190565b60208082526011908201527013dd995c8813585c9ad95d08131a5b5a5d607a1b604082015260600190565b6000610180820190508351825260208401516020830152604084015160408301528251606083015260208301516080830152604083015160a0830152606083015160c0830152608083015160e083015260a0830151610100818185015260c085015161012085015260e08501516101408501528085015161016085015250509392505050565b9283526020830191909152604082015260600190565b938452602084019290925260ff166040830152606082015260800190565b6001600160581b0393909316835260ff919091166020830152604082015260600190565b60ff9190911681526020019056fea2646970667358221220877a244dab69b9d81c00847c74c8aec6288db93fdab2450e3516369bb6aa07f564736f6c63430007060033","bytecodeSha1":"394fc034b190e8b590b38105a2862a94b7d12c8b","compiler":{"evm_version":"istanbul","optimizer":{"enabled":true,"runs":200},"version":"0.7.6+commit.7338295f"},"contractName":"CalculationViews","deployedBytecode":"608060405234801561001057600080fd5b50600436106101375760003560e01c806382463367116100b8578063bac9e8b11161007c578063bac9e8b114610286578063c4c96dae146102a8578063c50a6134146102b0578063c52c43e1146102d1578063f11ff573146102e4578063f83a8608146102f757610137565b8063824633671461023d5780638355e895146102455780638da5cb5b1461025857806397d6db2e14610260578063aaae47b51461027357610137565b8063416a1587116100ff578063416a1587146101c15780635953c77b146101e45780636a09a2a3146102045780636d48c794146102175780636ebbf1741461022a57610137565b8063094614df1461013c5780630eb49480146101665780631a05bce11461018657806324a3d622146101995780633b2987b3146101ae575b600080fd5b61014f61014a366004614ef4565b61030a565b60405161015d929190615167565b60405180910390f35b610179610174366004614f3c565b610328565b60405161015d919061515e565b610179610194366004614e84565b61035f565b6101a1610375565b60405161015d919061510b565b6101796101bc366004614e84565b610384565b6101d46101cf366004614fc3565b6103a7565b60405161015d9493929190615399565b6101f76101f23660046150c7565b61044d565b60405161015d91906153db565b61017961021236600461506e565b610479565b610179610225366004614e9e565b6104f5565b610179610238366004614eb9565b61055c565b6101a16105bf565b610179610253366004614ef4565b6105ce565b6101a16105f2565b61017961026e366004614e4e565b610609565b6101d4610281366004614fc3565b610741565b610299610294366004615010565b6107d3565b60405161015d939291906153b7565b6101a161084e565b6102c36102be366004614e84565b610866565b60405161015d9291906152fd565b6101796102df366004614f74565b610891565b6101796102f2366004614e9e565b6108d9565b610299610305366004615010565b61091c565b60008061031b868686866000610981565b9150915094509492505050565b60008184111561033757600080fd5b60006103438684610a7a565b5090506103538187878787610b33565b9150505b949350505050565b60008061036b83610b5a565b509150505b919050565b6002546001600160a01b031681565b600080600061039284610b5a565b80516040015191935091506103579083610b8f565b6000806000806103b7878661044d565b915060008260ff16116103c957600080fd5b6a7fffffffffffffffffffff88106103e057600080fd5b60006103f36103ee8a610bbb565b610bd5565b905060008061040e8c848760ff168b8d63ffffffff16610981565b9150915061041c8c82610be3565b965061042782610c2f565b955061043960018685600a0b8c610c3e565b508094505050505095509550955095915050565b600080600061045e60078686610c9c565b915091508061046d5781610470565b60005b95945050505050565b600061048483610d2b565b60006104938461ffff16610d68565b905060006104aa826001600160581b038616610d7b565b90506104b4614b82565b6104be8187610dab565b8051604001516000906104dd9083906104d79086610dc4565b42610de6565b90506104e881610c2f565b9450505050505b92915050565b600080600061050385610b5a565b91509150600061052a82604001516105248588610e9390919063ffffffff16565b90610ee1565b8251604001519091506000906105409083610b8f565b90506104e86105578861055284610f12565b610be3565b610bbb565b60008161056a5750816105b8565b60006105768542610a7a565b50905060006105858286610b8f565b905060006105996105578861055285610f12565b9050600082126105a957806105b2565b6105b281610bd5565b93505050505b9392505050565b6001546001600160a01b031681565b60006105d985610d2b565b60006105e486610f33565b905061035385858584610f54565b60005464010000000090046001600160a01b031681565b60008061061584610fe6565b905061061f614bcb565b600061062a8361109a565b156106a05760608301516106429083908890866110a7565b6000826040015113156106a0576000610662836000015161ffff166110ca565b9050600061067082886110f0565b50915050600061068e8584846106898960400151610c2f565b611186565b905061069a84826112b3565b93505050505b60808301515b6001600160701b03198116156107375760f081901c613fff166106cb848983886110a7565b6000846040015113156107245760006106eb856000015161ffff166110ca565b905060006106f9828a6110f0565b5091505060006107128784846106898b60400151610c2f565b905061071e86826112b3565b95505050505b5060101b6001600160801b0319166106a6565b5095945050505050565b600080600080610751878661044d565b915060008260ff161161076357600080fd5b6a7fffffffffffffffffffff881061077a57600080fd5b600061078589610bbb565b90506000806107a08c848760ff168b8d63ffffffff16610981565b915091506107ae8c82610be3565b96506107c16107bc83610bd5565b610c2f565b955061043960008685600a0b8c610c3e565b60008060006107e2878661044d565b915060008260ff16116107f457600080fd5b6000806108028b8b886112c5565b91509150600061081f6108148461132b565b8660ff168a85610f54565b90506000811261082e57600080fd5b61083b600186838c610c3e565b9d959c509a509398505050505050505050565b73__$b21a4dc043b77aa57922ad9143a3cb040e$__90565b61086e614c27565b610876614c48565b61087f8361135d565b915061088a8361136f565b9050915091565b60008061089d87610f33565b905082156108b8576108b181868887611437565b9150610737565b6108ce8587866108c9858383611487565b611570565b979650505050505050565b6000806108e68442610a7a565b50905060006108f88561ffff16610d68565b905060006109068286610d7b565b90506109128382610dc4565b9695505050505050565b600080600061092b878661044d565b915060008260ff161161093d57600080fd5b60008061094b8b8b886112c5565b91509150600061096561081461096085610bd5565b61132b565b90508060001261097457600080fd5b61083b600086838c610c3e565b60008061098d87610d2b565b600061099888610f33565b90506109a2614c94565b6109b082828960008a6115b6565b858160200151116109dc5760405162461bcd60e51b81526004016109d390615279565b60405180910390fd5b60208101518690036000806109f88486600a8e900b868e611631565b925050915087600014610a565760008b600a0b1215610a365787811115610a315760405162461bcd60e51b81526004016109d390615249565b610a56565b87811015610a565760405162461bcd60e51b81526004016109d390615249565b60408501518290610a679082610b8f565b9650965050505050509550959350505050565b610a82614c27565b610a8a614c48565b610a938461136f565b90508281600001511015610ac4576000610aac85611771565b9050610aba858383876117ec565b509150610ad19050565b80518314610ad157600080fd5b6040518060600160405280610afa6105578460a001518560c0015161189090919063ffffffff16565b8152602001610b1d6105578460a001518560e0015161189090919063ffffffff16565b8152602001826060015181525091509250929050565b600080610b418686856118b7565b9050610b4e8782866118df565b50979650505050505050565b6000610b64614b82565b42610b6d614b82565b610b778186610dab565b6000610b83828461194d565b94509092505050915091565b60006105b86ec097ce7bc90715b34b9f1000000000610524856000015185610e9390919063ffffffff16565b60006001600160ff1b03821115610bd157600080fd5b5090565b60006104ef60001983610e93565b600080610bf38461ffff16610d68565b90506000808412610c1557610c10610c0b8386611a01565b610f12565b610c28565b610c28610c2185610bd5565b8390611a39565b9050610470815b600080821215610bd157600080fd5b6000806000610c4c85610f12565b90506001600160581b03811115610c6257600080fd5b60788463ffffffff16901b609882901b60f08860ff16901b60f88a6005811115610c8857fe5b60ff16901b17171797909650945050505050565b60008060008511610cac57600080fd5b6007851115610cba57600080fd5b6000610cc584611a75565b905060015b868111610d1d576000610ce6610cdf83611a96565b84906112b3565b905086811415610cfe5750925060009150610d239050565b86811115610d145750925060019150610d239050565b50600101610cca565b50600080fd5b935093915050565b8061ffff166000108015610d49575060005461ffff90811690821611155b610d655760405162461bcd60e51b81526004016109d3906152a5565b50565b610d70614cdc565b6104ef826001611b3a565b60006305f5e10083604001511415610d945750806104ef565b60408301516105b890610524846305f5e100610e93565b610db58282611bd4565b610dbe81610f33565b90915250565b81516000906105b890610524846ec097ce7bc90715b34b9f1000000000610e93565b600080831215610df557600080fd5b82610e02575060006105b8565b608084015115610e3a576000610e1785611c70565b9050828111610e385760405162461bcd60e51b81526004016109d3906151a5565b505b6000610e46858461194d565b90506000811215610e5657600080fd5b6040850151610e6857839150506105b8565b610e8381610524876040015187610e9390919063ffffffff16565b9150506105b8565b509392505050565b818102600019831415610ec357811580610eb5575082828281610eb257fe5b05145b610ebe57600080fd5b6104ef565b821580610ed8575081838281610ed557fe5b05145b6104ef57600080fd5b600081600019148015610ef75750600160ff1b83145b15610f0157600080fd5b818381610f0a57fe5b059392505050565b600080821215610f2c57610f2582610bd5565b9050610370565b5080610370565b610f3b614d0b565b6000610f478342610a7a565b5090506105b88382611ca1565b6000610f5e614c94565b610f6c8382876000886115b6565b83816020015111610f8f5760405162461bcd60e51b81526004016109d390615279565b60008482602001510390506000610faa856000015188611ce4565b9050610fda8184604001518a600a0b610fd487606001518a60400151610b8f90919063ffffffff16565b86611cfe565b98975050505050505050565b610fee614d37565b6000610ff8611e3a565b6001600160a01b03841660009081526020918252604090819020815160c081018352905464ffffffffff811682526001600160f81b0319600160281b820460f81b169382019390935260ff600160301b840481169282019290925261ffff600160381b84041660608201526001600160701b03196901000000000000000000840460701b166080820152600160d81b90920416151560a0820152915050919050565b6060015161ffff16151590565b6110b18242610a7a565b506101208501526110c484848484611e47565b50505050565b6000806110d5611eef565b6000938452602052505060409020546001600160a01b031690565b60008060006110fe85611efc565b9194509250905080841180156111145750600081115b80156111205750600083115b1561117f57600061113086611f5d565b505050915050600061115b6111526305f5e1008461189090919063ffffffff16565b84880387611fc6565b905061116784826112b3565b93506001600160801b03841061117c57600080fd5b50505b9250925092565b60e0840151600090156112475773__$b21a4dc043b77aa57922ad9143a3cb040e$__63e0c01a72856111bb8860400151610c2f565b8860e001518961010001516040518563ffffffff1660e01b81526004016111e59493929190615138565b60206040518083038186803b1580156111fd57600080fd5b505af4158015611211573d6000803e3d6000fd5b505050506040513d601f19601f8201168201806040525081019061123591906150af565b600060e0870181905261010087015290505b61128961128286610100015161127c670de0b6b3a7640000611276886112708c60400151610c2f565b90611890565b90611fe8565b90612007565b82906112b3565b90506112a1670de0b6b3a76400006112768486611890565b85610100018181525050949350505050565b6000828201838110156105b857600080fd5b60006112cf614d0b565b60006112da85610bbb565b90506112e586610f33565b915083156113105760006112fc8761ffff16610d68565b90506113088183610d7b565b935050611322565b604082015161131f9082610b8f565b92505b50935093915050565b60006a7fffffffffffffffffffff19821280159061135457506a7fffffffffffffffffffff8213155b610bd157600080fd5b611365614c27565b6104ef824261201c565b611377614c48565b60006113816120dd565b61ffff93841660009081526020918252604090819020805464ffffffffff81168652600160281b81046001600160581b03908116948701949094526001820154841692860192909252600160d81b820463ffffffff166060860152600160801b9091049091166080840152600201546001600160501b0380821660a0850152600160501b8204811660c0850152600160a01b82041660e0840152600160f01b900460ff1661012c02909216610100820152919050565b60008361144657506000610357565b600080851361145f5761145a8685856120ea565b61146a565b61146a868585612126565b9050633b9aca0081131561147d57600080fd5b6103538582612167565b600080600061149b86602001518686610c9c565b9150915060006114aa87612180565b9050816114ca5786516114c39061ffff16878388612194565b9350611566565b60006114d586611a75565b905060006114ec6114e586611a96565b83906112b3565b905060006115048a6000015161ffff1683868b612194565b905060008087600114156115225750506040808b0151015188611551565b61153861153160018a03611a96565b86906112b3565b905061154e8c6000015161ffff1682888d612194565b91505b61155e818584868f612233565b985050505050505b5050509392505050565b60008461157f57506000610357565b600061158b8585612007565b905060006115998285612291565b9050633b9aca008113156115ac57600080fd5b6108ce8782612167565b826001111580156115cb575084602001518311155b6115e75760405162461bcd60e51b81526004016109d390615221565b60006116046115f585611a96565b6115fe84611a75565b906112b3565b9050611629866000015161ffff1682848661161e8b612180565b8a94939291906122fe565b505050505050565b600080600080841161164257600080fd5b8588604001511361165b57506000915081905080611766565b600061166b886000015186611ce4565b9050600061168a8a606001518a60400151610b8f90919063ffffffff16565b9050600080600061169f858e8e878f8f612328565b985091945092509050826116c25760008060009750975097505050505050611766565b60408d01516116d1908c612402565b60408e01526116e0848361241e565b935060006116f460008f6040015187612434565b9050633b9aca00811115611718576000806000985098509850505050505050611766565b60006117248783612471565b90508061174257600080600099509950995050505050505050611766565b60a08f01525060408c015161175b908e90858585612524565b909850965050505050505b955095509592505050565b60008061177d83612579565b6001600160a01b031663a77c05b86040518163ffffffff1660e01b8152600401604080518083038186803b1580156117b457600080fd5b505afa1580156117c8573d6000803e3d6000fd5b505050506040513d601f19601f8201168201806040525081019061035791906150e8565b6117f4614c48565b60008060006118048886896125a9565b60c08b019290925260e08a01929092526020890151919350915061182890836112b3565b60208801526080870151600090156118565760808801516118539061184d8982612007565b906126b4565b90505b61187661186b670de0b6b3a7640000836112b3565b60a08a0151906126d1565b60a089015250506080860194909452505082529092909150565b60008261189f575060006104ef565b828202828482816118ac57fe5b04146105b857600080fd5b6118bf614c27565b60006118cb85856126ee565b909250905080610e8b576107378584610a7a565b6000806118ec8484610dc4565b91506118f88483612781565b90506000821215610d2357611943600161193d876000015161052489602001516119378a602001516105248c600001518b610e9390919063ffffffff16565b90610e93565b906127ba565b9150935093915050565b60008061195984611c70565b9050828111611969576001810392505b50600061197684846127d0565b50905060006119a48560c0015186600001516000015161ffff16876080015187896000015160200151612925565b9050600081156119d65760c08601518651805160808901516119d2939261ffff9092169189906000886129d1565b5090505b606086015186516040015161091291906119fb906119f49085610dc4565b869061241e565b9061241e565b60006305f5e10083604001511415611a1a5750806104ef565b6105b86305f5e100610524856040015185610e9390919063ffffffff16565b60006305f5e10083604001511215611a6157611a5a60016119fb8585611a01565b90506104ef565b6105b883611a7084600161241e565b611a01565b60006276a700821015611a8757600080fd5b6276a700825b06909103919050565b60008160011415611aab57506276a700610370565b8160021415611abe575062ed4e00610370565b8160031415611ad257506301da9c00610370565b8160041415611ae657506303b53800610370565b8160051415611afa57506309450c00610370565b8160061415611b0e575063128a1800610370565b8160071415611b2257506325143000610370565b60405162461bcd60e51b81526004016109d3906151fa565b611b42614cdc565b6000611b4c612a4f565b6000858152602082815260408083208715158452825291829020825160a08101845281546001600160a01b038116825260ff600160a01b82048116151594830194909452600160b01b81048416600a0a9482019490945293945092916060830191600160a81b909104166005811115611bc157fe5b8152600060209091015295945050505050565b611be18161ffff166110ca565b6001600160a01b031660c0830181905260009081908190611c0190611f5d565b94509450945050506000611c188660c00151611efc565b505060808701859052604087018190526001600160d81b0319831660a088015260c0870151909150611c4c90846000612a5c565b602087015260c0860151611c609086612aef565b6060909601959095525050505050565b6000816080015160001415611c8757506000610370565b60808201516276a70090611c9a90611a75565b0192915050565b611ca9614d0b565b6000611cb88461ffff16612b48565b6040805160808101825261ffff96909616865260ff821660208701528501939093525050606082015290565b611cec614d6c565b6105b88383611cf9612b65565b612b72565b600083611d0a57600080fd5b82841315611d2a5760405162461bcd60e51b81526004016109d3906152d2565b6000806000611d4e8989888860008c13611d45576001611d49565b6000195b612bc9565b90506000871215611d7857611d6287610bd5565b9250611d716103ee8883612167565b9150611da5565b611d856103ee8883612167565b9250611da26103ee611d9b8b6080015188612bfa565b8990612167565b91505b506000611db689898886898c612c60565b905060005b60fa8160ff161015611e215783830380611ddc578395505050505050610470565b6000611dec8c8c8b888c8f612c60565b90506000611e11611e0a611e0084886127ba565b6105248587610e93565b87906127ba565b9596509093505050600101611dbb565b5060405162461bcd60e51b81526004016109d3906151d2565b6000806104ef6001612c7f565b8161ffff166000108015611e615750613fff61ffff831611155b611e6a57600080fd5b61ffff8216808552611e7d908290612c91565b15611eac57611e928383866101200151612d1b565b61010088015260e087015260408601526020850152611eca565b6000602085018190526040850181905260e085018190526101008501525b50506000606083018190526080830181905260a0830181905260c09092019190915250565b6000806104ef6003612c7f565b600080600080611f0a612dd5565b6001600160a01b0395909516600090815260209590955250506040909220546bffffffffffffffffffffffff811693600160601b82046001600160801b03169350600160e01b90910463ffffffff169150565b600080600080600080611f6e612de2565b6001600160a01b039097166000908152602097909752505060409094205461ffff81169563ffffffff62010000830481169650600160301b830416945060ff600160501b8304169350600160581b90910460d81b9150565b6000610357826112766301da9c00818861127089670de0b6b3a7640000611890565b6000808211611ff657600080fd5b818381611fff57fe5b049392505050565b60008282111561201657600080fd5b50900390565b612024614c27565b600061202f8461136f565b9050828160000151101561206e5760008061204986612def565b9050612057868483886117ec565b9093509150612067868385612e48565b505061207b565b8051831461207b57600080fd5b60405180606001604052806120a46105578460a001518560c0015161189090919063ffffffff16565b81526020016120c76105578460a001518560e0015161189090919063ffffffff16565b8152602001826060015181525091505092915050565b6000806104ef601d612c7f565b6000806120f885858561307c565b905080156121185761211361210d8585612007565b82612291565b610470565b633b9aca0095945050505050565b6000806121348585856130cc565b905061214361210d8585612007565b9150600061215086613106565b90508281121561215e578092505b50509392505050565b60006105b86121768484610e93565b633b9aca00610ee1565b6060015161012c60089190911c60ff160290565b60008061219f613121565b905060006276a7006121b085611a75565b6000898152602085815260408083208b84528252808320949093018083529390522080549192509063ffffffff600160a01b8204811691600160c01b8104821691600160e01b90910416816122175760405162461bcd60e51b81526004016109d390615175565b6122248184848c8c61312e565b9b9a5050505050505050505050565b600081861061224157600080fd5b84821061224d57600080fd5b8383106122735761226c846115fe8888036112768388038b8803611890565b9050610470565b61226c61228a8787036112768688038a8703611890565b8590612007565b6000806122ae6122a96301da9c006112768688611890565b6131b6565b90506122c081621dcd6560491b6131d4565b90506122d36122ce82613227565b613249565b90506122e581621dcd6560491b61329e565b905060006122f2826132d4565b60070b95945050505050565b60006276a70061230d85611a75565b01905061231f878787878787876132dd565b50505050505050565b600080600080600061233f878b604001518a612434565b9050633b9aca00811115612361576000806000809450945094509450506123f5565b600061236d8c83612471565b905060006123886103ee612381848b612bfa565b8b90613314565b90506123988d8360008c1261332d565b93506123aa6103ee612381868b612bfa565b9650808713156123b957600080fd5b60006123c582896127ba565b90506123df60646105246123d88f6133a5565b8490610e93565b95506123ee6103ee898861241e565b9650505050505b9650965096509692505050565b600061240e83836127ba565b905060008112156104ef57600080fd5b818101828112156000831215146104ef57600080fd5b60008083121561244357600080fd5b600082121561245157600080fd5b6103576107bc612461848661241e565b61246b8688612402565b90613314565b60008083608001511161248357600080fd5b633b9aca0082111561249457600080fd5b825182116124b35782516040840151611a5a9190611276908590611890565b826020015182116124eb576040830151835160208501516060860151611a5a93926115fe928190039161127691880390859003611890565b6105b883606001516115fe8560200151633b9aca000361127687606001518860800151038860200151880361189090919063ffffffff16565b600080806125328786610dc4565b6060890151909150612544908261241e565b60608901524260e0890152600061255b8886610dc4565b905060006125698989610dc4565b9a91995090975050505050505050565b6000806125846133b2565b61ffff939093166000908152602093909352505060409020546001600160a01b031690565b6000806000806000806125bc89886133bf565b895190955091935091506000906125e3906125d8908b90612007565b633b9aca0090611890565b905061261d6126126301da9c006125fa8585611890565b8161260157fe5b670de0b6b3a76400009190046112b3565b60e08a0151906126d1565b965061263f6126346301da9c006125fa8785611890565b60c08a0151906126d1565b9550818314156126565750600093506126ab915050565b600061267861266d6301da9c006125fa8786611890565b60e08b0151906126d1565b905060006126868983612007565b90506126a388611276838d6040015161189090919063ffffffff16565b965050505050505b93509350935093565b60006105b86126cb84670de0b6b3a7640000611890565b83611fe8565b60006105b86126e08484611890565b670de0b6b3a7640000611fe8565b6126f6614c27565b600080612701613459565b61ffff861660009081526020828152604080832088845290915290208054600160f01b900460ff16935090915082156127785780546001600160501b03600160a01b8204811691612753911682611890565b8552815461277190600160501b90046001600160501b031682611890565b6020860152505b50509250929050565b6000808212156127b4576127af600161193d8560200151610524876000015187610e9390919063ffffffff16565b6105b8565b50919050565b808203828113156000831215146104ef57600080fd5b602082015151516000906060908067ffffffffffffffff811180156127f457600080fd5b5060405190808252806020026020018201604052801561281e578160200160208202803683370190505b509150612829614c94565b60005b8281101561291b57865161284790836001808501908a6115b6565b6000876020015160000151828151811061285d57fe5b6020026020010151905060008160200151905060008061287d8487613466565b915091506128a661289f8c60c001518d600001516000015161ffff16866134e1565b829061241e565b8886815181106128b257fe5b60200260200101818152505060006128fc6128f56128e98b89815181106128d557fe5b6020026020010151878f8c60c00151611570565b8e516040015190610dc4565b849061241e565b90506129088a8261241e565b9950506001909401935061282c92505050565b5050509250929050565b60006002821161293757506000610470565b60006129438787613526565b905080612951579050610470565b600061295c85611a75565b90508581141561298657507440008000000200200000000200000020000000002019169050610470565b60015b8481116129c657600061299b82611a96565b8301905060006129ab898361355b565b5090506129ba85826000613666565b94505050600101612989565b508192505050610470565b60008060006129df846136b1565b90505b8015612a425760006129f489836136d6565b90506000612a068c8c848c8c8c613789565b9050612a12858261241e565b94506000811215612a2257600193505b612a2e86846000613666565b9550612a39866136b1565b925050506129e2565b5097509795505050505050565b6000806104ef6007612c7f565b612a64614db1565b612a6c614db1565b60ff8416612a7b5790506105b8565b612a8585856137e5565b815260ff841660608201528267ffffffffffffffff81118015612aa757600080fd5b50604051908082528060200260200182016040528015612ae157816020015b612ace614dd9565b815260200190600190039081612ac65790505b506020820152949350505050565b600080612afa6137f1565b6001600160a01b03851660009081526020828152604080832061ffff8816845290915281208054600160a81b9004600a90810b900b9450919250831215612b4057600080fd5b505092915050565b600080612b536137fe565b60009384526020525050604090205490565b6000806104ef601b612c7f565b612b7a614d6c565b6000612b858461380b565b61ffff861660009081526020859052604081209192509060048610612bab576001612bae565b60005b60ff1660028110612bbb57fe5b015490506109128282613844565b600080612be087612bdb858989612434565b612471565b90506000612bf288836000871261332d565b9050610fda81865b600080612c126122a96301da9c006112768787611890565b90506000612c2682621dcd6560491b6131d4565b90506000612c3382613249565b90506000612c4782621dcd6560491b61329e565b9050612c52816132d4565b60070b979650505050505050565b600080612c708888888789612bc9565b9050610fda6119f48483612167565b6000620f4240826026811115611c9a57fe5b60008115801590612ca45750613fff8211155b612cad57600080fd5b6080830151606084015161ffff16831415612ccc5760019150506104ef565b6001600160701b0319811615612d115760f081901c613fff1683811415612cfe5750600160fe1b9081161490506104ef565b5060101b6001600160801b031916612ccc565b5060009392505050565b6000806000806000612d2b6137f1565b6001600160a01b03891660009081526020828152604080832061ffff8c168452909152902080546001600160501b0381169650600160501b900463ffffffff1694509091508315612d98578054612d9190600160701b900466ffffffffffffff16613963565b9250612dad565b8054600160701b900466ffffffffffffff1692505b8054612dc8908890600160a81b9004600a90810b900b613971565b9550505093509350935093565b6000806104ef6011612c7f565b6000806104ef6002612c7f565b600080612dfb83612579565b6001600160a01b031663ef81f2166040518163ffffffff1660e01b81526004016040805180830381600087803b158015612e3457600080fd5b505af11580156117c8573d6000803e3d6000fd5b6000612e526120dd565b60008561ffff1681526020019081526020016000209050612e768260000151613998565b815464ffffffffff191664ffffffffff9190911617815560a0820151612e9b906139ac565b60028201805469ffffffffffffffffffff19166001600160501b039290921691909117905560c0820151612ece906139ac565b81600201600a6101000a8154816001600160501b0302191690836001600160501b03160217905550612f038260e001516139ac565b8160020160146101000a8154816001600160501b0302191690836001600160501b03160217905550612f3882602001516139c2565b81546001600160581b0391909116600160281b026fffffffffffffffffffffff0000000000199091161781556040820151612f72906139c2565b6001820180546affffffffffffffffffffff19166001600160581b03929092169190911790556080820151612fa6906139c2565b81546001600160581b0391909116600160801b026affffffffffffffffffffff60801b199091161781556060820151612fde906139d8565b815463ffffffff91909116600160d81b0263ffffffff60d81b19909116178155821561302a57600061300f84610bbb565b905061301b85826139eb565b613028610fee8683613a27565b505b8361ffff167fef25641e225e493886510ca1ad6584fa7b442b9fea820a29d1de3ce27d270fd28360a001518460c001518560e0015160405161306e93929190615383565b60405180910390a250505050565b6000613089848484611487565b9050600061309685613ab1565b90508082116130a95760009150506105b8565b808203915060006130b986613abe565b90508281101561215e5795945050505050565b60006130d9848484611487565b90506130e761128285613acb565b905060006130f485613ad8565b905080821015610e8b57949350505050565b606001516207a12060109190911c60ff1602633b9aca000390565b6000806104ef600a612c7f565b600080831161313c57600080fd5b8186111561314b575083610470565b60006131578388612007565b90508381111561316a5785915050610470565b60006131768286613ae5565b90506000613188633b9aca0083612007565b90506131a9633b9aca0061127661319f8a85611890565b6115fe8c87611890565b9998505050505050505050565b6000677fffffffffffffff8211156131cd57600080fd5b5060401b90565b600081600f0b600014156131e757600080fd5b600082600f0b604085600f0b901b816131fc57fe5b05905060016001607f1b0319811280159061321e575060016001607f1b038113155b6105b857600080fd5b6000600f82900b60016001607f1b0319141561324257600080fd5b5060000390565b6000600160461b82600f0b1261325e57600080fd5b683fffffffffffffffff1982600f0b121561327b57506000610370565b6104ef608083600f0b700171547652b82fe1777d0ffda0d23a7d1202901d613af8565b6000600f83810b9083900b0260401d60016001607f1b0319811280159061321e575060016001607f1b038113156105b857600080fd5b600f0b60401d90565b6132ea87878786856145a8565b6133038760e001518860a001518960c00151858861312e565b60c090970196909652505050505050565b60006105b861332784633b9aca00610e93565b83610ee1565b60008061334c60646112768760e001518761189090919063ffffffff16565b90508460a00151811015613361575060a08401515b8460c00151811115613374575060c08401515b821561338b5761338484826112b3565b9150610e8b565b83811161339a57808403610470565b506000949350505050565b6060015160181c60ff1690565b6000806104ef601f612c7f565b60008060008060008560200151111561340c576134096133f08660c00151876020015161189090919063ffffffff16565b60e0870151604088015161340391611890565b90613ae5565b90505b600061341787614662565b90506134238183612471565b9450811561343a576134378186600161332d565b93505b60208601511561117c5761344e8583614695565b925050509250925092565b6000806104ef601e612c7f565b60008061347684604001516146ae565b801561348757506000846060015112155b61349057600080fd5b6134b3836080015161052486606001518660600151610e9390919063ffffffff16565b91506134d8836080015161052486606001518660400151610e9390919063ffffffff16565b90509250929050565b6000806134ec6146c4565b6001600160a01b03861660009081526020918252604080822087835283528082208683529092522054600f90810b900b9150509392505050565b6000806135316146d1565b6001600160a01b038516600090815260209182526040808220868352909252205491505092915050565b6000806000613569856146de565b90506201518084061561358357600080925092505061365f565b83811061359757600080925092505061365f565b6201518081850304605a81116135b45792506001915061365f9050565b61016881116135f3576000620151806207e900840604820160591901905060068104605a01600682816135e357fe5b066000149450945050505061365f565b61087081116136235760006201518062278d00840604820161016719019050601e8104608701601e82816135e357fe5b611de28111613653576000620151806276a700840604820161086f19019050605a810460c301605a82816135e357fe5b61010060009350935050505b9250929050565b60006001831015801561367b57506101008311155b61368457600080fd5b811561369d5750600160ff1b60001983011c83176105b8565b50600160ff1b60001983011c1983166105b8565b6000816136c057506000610370565b6136c9826146fa565b60ff036001019050919050565b6000816136e257600080fd5b6101008211156136f157600080fd5b60006136fc846146de565b90506000605a841161371757506201518083020190506104ef565b6087841161373f575060591983016207e900908102908206909103016276a7000190506104ef565b60c384116137685750608619830162278d00908102908206909103016301da9c000190506104ef565b5060c21983016276a70090810290820690910301630b1fa8000190506104ef565b6000806137978888886134e1565b90508486116137a7579050610912565b82156137c1576137b984828888611437565b915050610912565b60006137ce858888611487565b90506137dc82888884611570565b92505050610912565b6060610e8b8383614793565b6000806104ef6006612c7f565b6000806104ef6009612c7f565b60008160001061381a57600080fd5b600782111561382857600080fd5b60048210613839576004820361383b565b815b60080292915050565b61384c614d6c565b6064633b9aca008360ff86166020811061386257fe5b1a028161386b57fe5b0481526064633b9aca008360ff86166001016020811061388757fe5b1a028161389057fe5b048160200181815250506138b58260028560ff1601602081106138af57fe5b1a6147ab565b60808201819052610100908360ff8616600301602081106138d257fe5b1a02816138db57fe5b0460408201526080810151610100908360ff8616600401602081106138fc57fe5b1a028161390557fe5b0460608201526207a1208260ff85166005016020811061392157fe5b1a0260a0820152622625a08260ff85166006016020811061393e57fe5b1a0260c08201528160ff84166007016020811061395757fe5b1a60e082015292915050565b600881901c60ff9091161b90565b60008082126139815750806104ef565b82516020840151611a5a9190610524908590610e93565b600064ffffffffff821115610bd157600080fd5b60006001600160501b03821115610bd157600080fd5b60006001600160581b03821115610bd157600080fd5b600063ffffffff821115610bd157600080fd5b60008112156139f957600080fd5b6000613a07610fee84612aef565b9050613a13818361241e565b9050613a22610fee84836147df565b505050565b6000613a31614853565b61ffff8416600090815260209190915260409081902054905163ad1c095d60e01b81526001600160a01b039091169150819063ad1c095d90613a79908790869060040161511f565b600060405180830381600087803b158015613a9357600080fd5b505af1158015613aa7573d6000803e3d6000fd5b5050505050505050565b60006104ef826020614860565b60006104ef826048614860565b60006104ef826028614860565b60006104ef826030614860565b60006105b86126cb84633b9aca00611890565b6000600160461b82600f0b12613b0d57600080fd5b683fffffffffffffffff1982600f0b1215613b2a57506000610370565b6001607f1b60006780000000000000008416600f0b1315613b5c5770016a09e667f3bcc908b2fb1366ea957d3e0260801c5b60008367400000000000000016600f0b1315613b89577001306fe0a31b7152de8d5a46305c85edec0260801c5b60008367200000000000000016600f0b1315613bb6577001172b83c7d517adcdf7c8c50eb14a791f0260801c5b60008367100000000000000016600f0b1315613be35770010b5586cf9890f6298b92b71842a983630260801c5b60008367080000000000000016600f0b1315613c10577001059b0d31585743ae7c548eb68ca417fd0260801c5b60008367040000000000000016600f0b1315613c3d57700102c9a3e778060ee6f7caca4f7a29bde80260801c5b60008367020000000000000016600f0b1315613c6a5770010163da9fb33356d84a66ae336dcdfa3f0260801c5b600083600160381b16600f0b1315613c9357700100b1afa5abcbed6129ab13ec11dc95430260801c5b600083668000000000000016600f0b1315613cbf5770010058c86da1c09ea1ff19d294cf2f679b0260801c5b600083664000000000000016600f0b1315613ceb577001002c605e2e8cec506d21bfc89a23a00f0260801c5b600083662000000000000016600f0b1315613d1757700100162f3904051fa128bca9c55c31e5df0260801c5b600083661000000000000016600f0b1315613d43577001000b175effdc76ba38e31671ca9397250260801c5b600083660800000000000016600f0b1315613d6f57700100058ba01fb9f96d6cacd4b180917c3d0260801c5b600083660400000000000016600f0b1315613d9b5770010002c5cc37da9491d0985c348c68e7b30260801c5b600083660200000000000016600f0b1315613dc7577001000162e525ee054754457d59952920260260801c5b600083600160301b16600f0b1315613df05770010000b17255775c040618bf4a4ade83fc0260801c5b6000836580000000000016600f0b1315613e1b577001000058b91b5bc9ae2eed81e9b7d4cfab0260801c5b6000836540000000000016600f0b1315613e4657700100002c5c89d5ec6ca4d7c8acc017b7c90260801c5b6000836520000000000016600f0b1315613e715770010000162e43f4f831060e02d839a9d16d0260801c5b6000836510000000000016600f0b1315613e9c57700100000b1721bcfc99d9f890ea069117630260801c5b6000836508000000000016600f0b1315613ec75770010000058b90cf1e6d97f9ca14dbcc16280260801c5b6000836504000000000016600f0b1315613ef2577001000002c5c863b73f016468f6bac5ca2b0260801c5b6000836502000000000016600f0b1315613f1d57700100000162e430e5a18f6119e3c02282a50260801c5b600083600160281b16600f0b1315613f46577001000000b1721835514b86e6d96efd1bfe0260801c5b60008364800000000016600f0b1315613f7057700100000058b90c0b48c6be5df846c5b2ef0260801c5b60008364400000000016600f0b1315613f9a5770010000002c5c8601cc6b9e94213c72737a0260801c5b60008364200000000016600f0b1315613fc4577001000000162e42fff037df38aa2b219f060260801c5b60008364100000000016600f0b1315613fee5770010000000b17217fba9c739aa5819f44f90260801c5b60008364080000000016600f0b1315614018577001000000058b90bfcdee5acd3c1cedc8230260801c5b60008364040000000016600f0b131561404257700100000002c5c85fe31f35a6a30da1be500260801c5b60008364020000000016600f0b131561406c5770010000000162e42ff0999ce3541b9fffcf0260801c5b60008364010000000016600f0b131561409657700100000000b17217f80f4ef5aadda455540260801c5b600083638000000016600f0b13156140bf5770010000000058b90bfbf8479bd5a81b51ad0260801c5b600083634000000016600f0b13156140e8577001000000002c5c85fdf84bd62ae30a74cc0260801c5b600083632000000016600f0b131561411157700100000000162e42fefb2fed257559bdaa0260801c5b600083631000000016600f0b131561413a577001000000000b17217f7d5a7716bba4a9ae0260801c5b600083630800000016600f0b131561416357700100000000058b90bfbe9ddbac5e109cce0260801c5b600083630400000016600f0b131561418c5770010000000002c5c85fdf4b15de6f17eb0d0260801c5b600083630200000016600f0b13156141b5577001000000000162e42fefa494f1478fde050260801c5b600083630100000016600f0b13156141de5770010000000000b17217f7d20cf927c8e94c0260801c5b6000836280000016600f0b1315614206577001000000000058b90bfbe8f71cb4e4b33d0260801c5b6000836240000016600f0b131561422e57700100000000002c5c85fdf477b662b269450260801c5b6000836220000016600f0b13156142565770010000000000162e42fefa3ae53369388c0260801c5b6000836210000016600f0b131561427e57700100000000000b17217f7d1d351a389d400260801c5b6000836208000016600f0b13156142a65770010000000000058b90bfbe8e8b2d3d4ede0260801c5b6000836204000016600f0b13156142ce577001000000000002c5c85fdf4741bea6e77e0260801c5b6000836202000016600f0b13156142f657700100000000000162e42fefa39fe95583c20260801c5b6000836201000016600f0b131561431e577001000000000000b17217f7d1cfb72b45e10260801c5b60008361800016600f0b131561434557700100000000000058b90bfbe8e7cc35c3f00260801c5b60008361400016600f0b131561436c5770010000000000002c5c85fdf473e242ea380260801c5b60008361200016600f0b1315614393577001000000000000162e42fefa39f02b772c0260801c5b60008361100016600f0b13156143ba5770010000000000000b17217f7d1cf7d83c1a0260801c5b60008361080016600f0b13156143e1577001000000000000058b90bfbe8e7bdcbe2e0260801c5b60008361040016600f0b131561440857700100000000000002c5c85fdf473dea871f0260801c5b60008361020016600f0b131561442f5770010000000000000162e42fefa39ef44d910260801c5b60008361010016600f0b131561445657700100000000000000b17217f7d1cf79e9490260801c5b600083608016600f0b131561447c5770010000000000000058b90bfbe8e7bce5440260801c5b600083604016600f0b13156144a2577001000000000000002c5c85fdf473de6eca0260801c5b600083602016600f0b13156144c857700100000000000000162e42fefa39ef366f0260801c5b600083601016600f0b13156144ee577001000000000000000b17217f7d1cf79afa0260801c5b600083600816600f0b131561451457700100000000000000058b90bfbe8e7bcd6d0260801c5b600083600416600f0b131561453a5770010000000000000002c5c85fdf473de6b20260801c5b600083600216600f0b1315614560577001000000000000000162e42fefa39ef3580260801c5b600083600116600f0b13156145865770010000000000000000b17217f7d1cf79ab0260801c5b600f83810b60401d603f03900b1c60016001607f1b038111156104ef57600080fd5b60006145b2613121565b6000868152602082815260408083208884528252808320868452825291829020808a5290890187905280546001600160501b03808216938b0193909352600160501b810490921660608a015263ffffffff600160a01b8304811660a08b0152600160c01b8304811660c08b0152600160e01b90920490911660e08901529091508084156146515760018201546001600160501b03166080890152613aa7565b600060808901525050505050505050565b61466a614d6c565b6000614674612b65565b61ffff84166000908152602091909152604081205491506105b89082613844565b60006105b86146a48484611890565b633b9aca00611fe8565b6000600282108015906104ef5750506008101590565b6000806104ef600c612c7f565b6000806104ef600b612c7f565b6000620151808210156146f057600080fd5b6201518082611a8d565b60008161470657600080fd5b600160801b821061471957608091821c91015b600160401b821061472c57604091821c91015b640100000000821061474057602091821c91015b62010000821061475257601091821c91015b610100821061476357600891821c91015b6010821061477357600491821c91015b6004821061478357600291821c91015b6002821061037057600101919050565b6060806147a08484614873565b91506134d88261498b565b60008160ff166096106147c65760ff8216622625a0026104ef565b5060951960ff919091160162e4e1c00263165a0bc00190565b60008112156147ed57600080fd5b60006147f76137f1565b6001600160a01b03851660009081526020828152604080832061ffff8816845290915290209091506148288361132b565b8154600a9190910b6001600160581b0316600160a81b026001600160a81b0390911617905550505050565b6000806104ef6021612c7f565b60609091015160ff911c16622625a00290565b606060088260ff16111561488657600080fd5b6000614890614b4c565b6001600160a01b038516600090815260208290526040812091925060ff851667ffffffffffffffff811180156148c557600080fd5b506040519080825280602002602001820160405280156148ff57816020015b6148ec614dd9565b8152602001906001900390816148e45790505b50905060005b8560ff1681101561073757600083826008811061491e57fe5b019050600083838151811061492f57fe5b602090810291909101810151835461ffff8116825264ffffffffff620100008204169282019290925260ff600160381b8304166040820152600160401b909104600a90810b900b60608201526080019190915250600101614905565b80516060908067ffffffffffffffff811180156149a757600080fd5b506040519080825280602002602001820160405280156149d1578160200160208202803683370190505b50915060005b81811015614a2e5760008482815181106149ed57fe5b60200260200101519050614a0e816000015182602001518360400151614b59565b848381518110614a1a57fe5b6020908102919091010152506001016149d7565b5060015b81811015614b4557805b600081118015614a745750838181518110614a5357fe5b6020026020010151846001830381518110614a6a57fe5b6020026020010151115b15614b3c57838181518110614a8557fe5b6020026020010151846001830381518110614a9c57fe5b6020026020010151856001840381518110614ab357fe5b60200260200101868481518110614ac657fe5b6020026020010182815250828152505050848181518110614ae357fe5b6020026020010151856001830381518110614afa57fe5b6020026020010151866001840381518110614b1157fe5b60200260200101878481518110614b2457fe5b60209081029190910101919091525260001901614a3c565b50600101614a32565b5050919050565b6000806104ef600d612c7f565b67ffff000000000000603084901b1665ffffffffff00600884901b161760ff8216179392505050565b6040518060e00160405280614b95614d0b565b8152602001614ba2614db1565b815260006020820181905260408201819052606082018190526080820181905260a09091015290565b604051806101400160405280600061ffff1681526020016000815260200160008152602001600081526020016000815260200160008152602001600081526020016000815260200160008152602001614c22614c27565b905290565b60405180606001604052806000815260200160008152602001600081525090565b6040518061012001604052806000815260200160008152602001600081526020016000815260200160008152602001600081526020016000815260200160008152602001600081525090565b60405180610100016040528060008019168152602001600081526020016000815260200160008152602001600081526020016000815260200160008152602001600081525090565b6040805160a0810182526000808252602082018190529181018290529060608201908152602001600081525090565b6040805160808101825260008082526020820152908101614d2a614c27565b8152600060209091015290565b6040805160c081018252600080825260208201819052918101829052606081018290526080810182905260a081019190915290565b60405180610100016040528060008152602001600081526020016000815260200160008152602001600081526020016000815260200160008152602001600081525090565b6040518060800160405280606081526020016060815260200160008152602001600081525090565b6040518060c00160405280600061ffff1681526020016000815260200160008152602001600081526020016000815260200160006003811115614c2257fe5b8035801515811461037057600080fd5b803561ffff8116811461037057600080fd5b803563ffffffff8116811461037057600080fd5b60008060408385031215614e60578182fd5b82356001600160a01b0381168114614e76578283fd5b946020939093013593505050565b600060208284031215614e95578081fd5b6105b882614e28565b60008060408385031215614eb0578182fd5b614e7683614e28565b600080600060608486031215614ecd578081fd5b614ed684614e28565b925060208401359150614eeb60408501614e18565b90509250925092565b60008060008060808587031215614f09578081fd5b614f1285614e28565b9350602085013580600a0b8114614f27578182fd5b93969395505050506040820135916060013590565b60008060008060808587031215614f51578384fd5b614f5a85614e28565b966020860135965060408601359560600135945092505050565b600080600080600060a08688031215614f8b578081fd5b614f9486614e28565b9450602086013593506040860135925060608601359150614fb760808701614e18565b90509295509295909350565b600080600080600060a08688031215614fda578081fd5b614fe386614e28565b94506020860135935060408601359250614fff60608701614e3a565b949793965091946080013592915050565b60008060008060008060c08789031215615028578081fd5b61503187614e28565b9550602087013594506040870135935061504d60608801614e3a565b92506080870135915061506260a08801614e18565b90509295509295509295565b60008060408385031215615080578182fd5b61508983614e28565b915060208301356001600160581b03811681146150a4578182fd5b809150509250929050565b6000602082840312156150c0578081fd5b5051919050565b600080604083850312156150d9578182fd5b50508035926020909101359150565b600080604083850312156150fa578182fd5b505080516020909101519092909150565b6001600160a01b0391909116815260200190565b6001600160a01b03929092168252602082015260400190565b6001600160a01b0394909416845260208401929092526040830152606082015260800190565b90815260200190565b918252602082015260400190565b60208082526016908201527513585c9ad95d081b9bdd081a5b9a5d1a585b1a5e995960521b604082015260600190565b60208082526013908201527214995c5d5a5c995cc81cd95d1d1b195b595b9d606a1b604082015260600190565b6020808252600e908201526d4e6f20636f6e76657267656e636560901b604082015260600190565b6020808252600d908201526c092dcecc2d8d2c840d2dcc8caf609b1b604082015260600190565b6020808252600e908201526d125b9d985b1a59081b585c9ad95d60921b604082015260600190565b6020808252601690820152755472616465206661696c65642c20736c69707061676560501b604082015260600190565b602080825260129082015271496e76616c696420626c6f636b2074696d6560701b604082015260600190565b602080825260139082015272125b9d985b1a590818dd5c9c995b98de481a59606a1b604082015260600190565b60208082526011908201527013dd995c8813585c9ad95d08131a5b5a5d607a1b604082015260600190565b6000610180820190508351825260208401516020830152604084015160408301528251606083015260208301516080830152604083015160a0830152606083015160c0830152608083015160e083015260a0830151610100818185015260c085015161012085015260e08501516101408501528085015161016085015250509392505050565b9283526020830191909152604082015260600190565b938452602084019290925260ff166040830152606082015260800190565b6001600160581b0393909316835260ff919091166020830152604082015260600190565b60ff9190911681526020019056fea2646970667358221220877a244dab69b9d81c00847c74c8aec6288db93fdab2450e3516369bb6aa07f564736f6c63430007060033","language":"Solidity","natspec":{"kind":"dev","methods":{"accruePrimeInterest(uint16)":{"notice":"Accrues prime interest and updates state up to the current block"},"calculateNTokensToMint(uint16,uint88)":{"notice":"Returns the nTokens that will be minted when some amount of asset tokens are deposited","params":{"amountToDepositExternalPrecision":"amount of underlying tokens in native precision","currencyId":"id number of the currency"},"returns":{"_0":"the amount of nTokens that will be minted"}},"convertCashBalanceToExternal(uint16,int256,bool)":{"notice":"Converts an prime cash balance to an external token denomination","params":{"convertToUnderlying":"true if the value should be converted to underlying","currencyId":"the currency id of the cash balance","primeCashBalance":"the signed cash balance that is stored in Notional"},"returns":{"_0":"the cash balance converted to the external token denomination"}},"convertSettledfCash(uint16,uint256,int256,uint256)":{"notice":"Converts fCash to its settled prime cash value at the specified block time","params":{"blockTime":"block time to convert to settled prime value, must be greater than maturity","currencyId":"the currency id of the fCash asset","fCashBalance":"signed balance of fcash","maturity":"the timestamp when the fCash asset matures"},"returns":{"signedPrimeSupplyValue":"amount of prime cash to be received or owed to the protocol"}},"convertUnderlyingToPrimeCash(uint16,int256)":{"notice":"Converts an underlying balance to prime cash","params":{"currencyId":"the currency id of the cash balance","underlyingExternal":"the underlying external token balance"},"returns":{"_0":"the underlying balance converted to prime cash"}},"getCashAmountGivenfCashAmount(uint16,int88,uint256,uint256)":{"notice":"Returns the cash amount that will be traded given an fCash amount, be sure to buffer these amounts slightly because the liquidity curve is sensitive to changes in block time","params":{"blockTime":"the block time for when the trade will be calculated","currencyId":"id number of the currency","fCashAmount":"amount of fCash to trade, negative for borrowing, positive for lending","marketIndex":"market index of the fCash market"},"returns":{"_0":"net asset cash amount (positive for borrowing, negative for lending) in 8 decimal precision","_1":"underlying cash amount (positive for borrowing, negative for lending) in 8 decimal precision"}},"getDepositFromfCashLend(uint16,uint256,uint256,uint32,uint256)":{"notice":"Returns the amount of underlying cash and asset cash required to lend fCash. When specifying a trade, deposit either underlying or asset tokens (not both). Asset tokens tend to be more gas efficient.","params":{"blockTime":"the block time for when the trade will be calculated","currencyId":"id number of the currency","fCashAmount":"amount of fCash (in underlying) that will be received at maturity. Always 8 decimal precision.","maturity":"the maturity of the fCash to lend","minLendRate":"the minimum lending rate (slippage protection)"},"returns":{"depositAmountPrimeCash":"the amount of prime cash tokens the lender must deposit or mint","depositAmountUnderlying":"the amount of underlying tokens the lender must deposit","encodedTrade":"the encoded bytes32 object to pass to batch trade","marketIndex":"the corresponding market index for the lending"}},"getLibInfo()":{"notice":"Get a list of deployed library addresses (sorted by library name)"},"getMarketIndex(uint256,uint256)":{"notice":"Returns a market index value for a given maturity","params":{"blockTime":"the block time for when the trade will be calculated","maturity":"an fCash maturity"},"returns":{"marketIndex":"a value between 1 and 7 that represents the marketIndex (tenor) that corresponds to the maturity. Returns 0 if there is no corresponding marketIndex"}},"getPresentfCashValue(uint16,uint256,int256,uint256,bool)":{"notice":"Returns the present value of the given fCash amount using Notional internal oracle rates","params":{"blockTime":"the block time for when the trade will be calculated","currencyId":"id number of the currency","maturity":"timestamp of the fCash maturity","notional":"amount of fCash notional","riskAdjusted":"true if haircuts and buffers should be applied to the oracle rate"},"returns":{"presentValue":"of fCash in 8 decimal precision and underlying denomination"}},"getPrincipalFromfCashBorrow(uint16,uint256,uint256,uint32,uint256)":{"notice":"Returns the amount of underlying cash and asset cash required to borrow fCash. When specifying a trade, choose to receive either underlying or asset tokens (not both). Asset tokens tend to be more gas efficient.","params":{"blockTime":"the block time for when the trade will be calculated","currencyId":"id number of the currency","fCashBorrow":"amount of fCash (in underlying) that will be received at maturity. Always 8 decimal precision.","maturity":"the maturity of the fCash to lend","maxBorrowRate":"the maximum borrow rate (slippage protection)"},"returns":{"borrowAmountPrimeCash":"the amount of prime cash tokens the borrower will receive","borrowAmountUnderlying":"the amount of underlying tokens the borrower will receive","encodedTrade":"the encoded bytes32 object to pass to batch trade","marketIndex":"the corresponding market index for the lending"}},"getfCashAmountGivenCashAmount(uint16,int88,uint256,uint256)":{"params":{"blockTime":"the block time for when the trade will be calculated","marketIndex":"market index of the fCash market"},"returns":{"_0":"the fCash amount from the trade, positive when lending, negative when borrowing. Always in 8 decimals."}},"getfCashBorrowFromPrincipal(uint16,uint256,uint256,uint32,uint256,bool)":{"notice":"Returns the amount of fCash that would received if lending deposit amount.","params":{"blockTime":"the block time for when the trade will be calculated","borrowedAmountExternal":"amount to borrow in the token's native precision.","currencyId":"id number of the currency","maturity":"the maturity of the fCash to lend","maxBorrowRate":"the maximum borrow rate (slippage protection). If zero then no slippage will be applied","useUnderlying":"true if specifying the underlying token, false if specifying prime cash"},"returns":{"encodedTrade":"the encoded bytes32 object to pass to batch trade","fCashDebt":"the amount of fCash that the borrower will owe, this will be stored as a negative balance in Notional","marketIndex":"the corresponding market index for the lending"}},"getfCashLendFromDeposit(uint16,uint256,uint256,uint32,uint256,bool)":{"notice":"Returns the amount of fCash that would received if lending deposit amount.","params":{"blockTime":"the block time for when the trade will be calculated","currencyId":"id number of the currency","depositAmountExternal":"amount to deposit in the token's native precision. For aTokens use what is returned by the balanceOf selector (not scaledBalanceOf).","maturity":"the maturity of the fCash to lend","minLendRate":"the minimum lending rate (slippage protection)","useUnderlying":"true if specifying the underlying token, false if specifying prime cash"},"returns":{"encodedTrade":"the encoded bytes32 object to pass to batch trade","fCashAmount":"the amount of fCash that the lender will receive","marketIndex":"the corresponding market index for the lending"}},"nTokenGetClaimableIncentives(address,uint256)":{"notice":"Returns the claimable incentives for all nToken balances","params":{"account":"The address of the account which holds the tokens","blockTime":"The block time when incentives will be minted"},"returns":{"_0":"Incentives an account is eligible to claim"}},"nTokenPresentValueAssetDenominated(uint16)":{"notice":"Returns the present value of the nToken's assets denominated in asset tokens"},"nTokenPresentValueUnderlyingDenominated(uint16)":{"notice":"Returns the present value of the nToken's assets denominated in underlying"}},"version":1},"opcodes":"PUSH1 0x80 PUSH1 0x40 MSTORE CALLVALUE DUP1 ISZERO PUSH2 0x10 JUMPI PUSH1 0x0 DUP1 REVERT JUMPDEST POP PUSH1 0x4 CALLDATASIZE LT PUSH2 0x137 JUMPI PUSH1 0x0 CALLDATALOAD PUSH1 0xE0 SHR DUP1 PUSH4 0x82463367 GT PUSH2 0xB8 JUMPI DUP1 PUSH4 0xBAC9E8B1 GT PUSH2 0x7C JUMPI DUP1 PUSH4 0xBAC9E8B1 EQ PUSH2 0x286 JUMPI DUP1 PUSH4 0xC4C96DAE EQ PUSH2 0x2A8 JUMPI DUP1 PUSH4 0xC50A6134 EQ PUSH2 0x2B0 JUMPI DUP1 PUSH4 0xC52C43E1 EQ PUSH2 0x2D1 JUMPI DUP1 PUSH4 0xF11FF573 EQ PUSH2 0x2E4 JUMPI DUP1 PUSH4 0xF83A8608 EQ PUSH2 0x2F7 JUMPI PUSH2 0x137 JUMP JUMPDEST DUP1 PUSH4 0x82463367 EQ PUSH2 0x23D JUMPI DUP1 PUSH4 0x8355E895 EQ PUSH2 0x245 JUMPI DUP1 PUSH4 0x8DA5CB5B EQ PUSH2 0x258 JUMPI DUP1 PUSH4 0x97D6DB2E EQ PUSH2 0x260 JUMPI DUP1 PUSH4 0xAAAE47B5 EQ PUSH2 0x273 JUMPI PUSH2 0x137 JUMP JUMPDEST DUP1 PUSH4 0x416A1587 GT PUSH2 0xFF JUMPI DUP1 PUSH4 0x416A1587 EQ PUSH2 0x1C1 JUMPI DUP1 PUSH4 0x5953C77B EQ PUSH2 0x1E4 JUMPI DUP1 PUSH4 0x6A09A2A3 EQ PUSH2 0x204 JUMPI DUP1 PUSH4 0x6D48C794 EQ PUSH2 0x217 JUMPI DUP1 PUSH4 0x6EBBF174 EQ PUSH2 0x22A JUMPI PUSH2 0x137 JUMP JUMPDEST DUP1 PUSH4 0x94614DF EQ PUSH2 0x13C JUMPI DUP1 PUSH4 0xEB49480 EQ PUSH2 0x166 JUMPI DUP1 PUSH4 0x1A05BCE1 EQ PUSH2 0x186 JUMPI DUP1 PUSH4 0x24A3D622 EQ PUSH2 0x199 JUMPI DUP1 PUSH4 0x3B2987B3 EQ PUSH2 0x1AE JUMPI JUMPDEST PUSH1 0x0 DUP1 REVERT JUMPDEST PUSH2 0x14F PUSH2 0x14A CALLDATASIZE PUSH1 0x4 PUSH2 0x4EF4 JUMP JUMPDEST PUSH2 0x30A JUMP JUMPDEST PUSH1 0x40 MLOAD PUSH2 0x15D SWAP3 SWAP2 SWAP1 PUSH2 0x5167 JUMP JUMPDEST PUSH1 0x40 MLOAD DUP1 SWAP2 SUB SWAP1 RETURN JUMPDEST PUSH2 0x179 PUSH2 0x174 CALLDATASIZE PUSH1 0x4 PUSH2 0x4F3C JUMP JUMPDEST PUSH2 0x328 JUMP JUMPDEST PUSH1 0x40 MLOAD PUSH2 0x15D SWAP2 SWAP1 PUSH2 0x515E JUMP JUMPDEST PUSH2 0x179 PUSH2 0x194 CALLDATASIZE PUSH1 0x4 PUSH2 0x4E84 JUMP JUMPDEST PUSH2 0x35F JUMP JUMPDEST PUSH2 0x1A1 PUSH2 0x375 JUMP JUMPDEST PUSH1 0x40 MLOAD PUSH2 0x15D SWAP2 SWAP1 PUSH2 0x510B JUMP JUMPDEST PUSH2 0x179 PUSH2 0x1BC CALLDATASIZE PUSH1 0x4 PUSH2 0x4E84 JUMP JUMPDEST PUSH2 0x384 JUMP JUMPDEST PUSH2 0x1D4 PUSH2 0x1CF CALLDATASIZE PUSH1 0x4 PUSH2 0x4FC3 JUMP JUMPDEST PUSH2 0x3A7 JUMP JUMPDEST PUSH1 0x40 MLOAD PUSH2 0x15D SWAP5 SWAP4 SWAP3 SWAP2 SWAP1 PUSH2 0x5399 JUMP JUMPDEST PUSH2 0x1F7 PUSH2 0x1F2 CALLDATASIZE PUSH1 0x4 PUSH2 0x50C7 JUMP JUMPDEST PUSH2 0x44D JUMP JUMPDEST PUSH1 0x40 MLOAD PUSH2 0x15D SWAP2 SWAP1 PUSH2 0x53DB JUMP JUMPDEST PUSH2 0x179 PUSH2 0x212 CALLDATASIZE PUSH1 0x4 PUSH2 0x506E JUMP JUMPDEST PUSH2 0x479 JUMP JUMPDEST PUSH2 0x179 PUSH2 0x225 CALLDATASIZE PUSH1 0x4 PUSH2 0x4E9E JUMP JUMPDEST PUSH2 0x4F5 JUMP JUMPDEST PUSH2 0x179 PUSH2 0x238 CALLDATASIZE PUSH1 0x4 PUSH2 0x4EB9 JUMP JUMPDEST PUSH2 0x55C JUMP JUMPDEST PUSH2 0x1A1 PUSH2 0x5BF JUMP JUMPDEST PUSH2 0x179 PUSH2 0x253 CALLDATASIZE PUSH1 0x4 PUSH2 0x4EF4 JUMP JUMPDEST PUSH2 0x5CE JUMP JUMPDEST PUSH2 0x1A1 PUSH2 0x5F2 JUMP JUMPDEST PUSH2 0x179 PUSH2 0x26E CALLDATASIZE PUSH1 0x4 PUSH2 0x4E4E JUMP JUMPDEST PUSH2 0x609 JUMP JUMPDEST PUSH2 0x1D4 PUSH2 0x281 CALLDATASIZE PUSH1 0x4 PUSH2 0x4FC3 JUMP JUMPDEST PUSH2 0x741 JUMP JUMPDEST PUSH2 0x299 PUSH2 0x294 CALLDATASIZE PUSH1 0x4 PUSH2 0x5010 JUMP JUMPDEST PUSH2 0x7D3 JUMP JUMPDEST PUSH1 0x40 MLOAD PUSH2 0x15D SWAP4 SWAP3 SWAP2 SWAP1 PUSH2 0x53B7 JUMP JUMPDEST PUSH2 0x1A1 PUSH2 0x84E JUMP JUMPDEST PUSH2 0x2C3 PUSH2 0x2BE CALLDATASIZE PUSH1 0x4 PUSH2 0x4E84 JUMP JUMPDEST PUSH2 0x866 JUMP JUMPDEST PUSH1 0x40 MLOAD PUSH2 0x15D SWAP3 SWAP2 SWAP1 PUSH2 0x52FD JUMP JUMPDEST PUSH2 0x179 PUSH2 0x2DF CALLDATASIZE PUSH1 0x4 PUSH2 0x4F74 JUMP JUMPDEST PUSH2 0x891 JUMP JUMPDEST PUSH2 0x179 PUSH2 0x2F2 CALLDATASIZE PUSH1 0x4 PUSH2 0x4E9E JUMP JUMPDEST PUSH2 0x8D9 JUMP JUMPDEST PUSH2 0x299 PUSH2 0x305 CALLDATASIZE PUSH1 0x4 PUSH2 0x5010 JUMP JUMPDEST PUSH2 0x91C JUMP JUMPDEST PUSH1 0x0 DUP1 PUSH2 0x31B DUP7 DUP7 DUP7 DUP7 PUSH1 0x0 PUSH2 0x981 JUMP JUMPDEST SWAP2 POP SWAP2 POP SWAP5 POP SWAP5 SWAP3 POP POP POP JUMP JUMPDEST PUSH1 0x0 DUP2 DUP5 GT ISZERO PUSH2 0x337 JUMPI PUSH1 0x0 DUP1 REVERT JUMPDEST PUSH1 0x0 PUSH2 0x343 DUP7 DUP5 PUSH2 0xA7A JUMP JUMPDEST POP SWAP1 POP PUSH2 0x353 DUP2 DUP8 DUP8 DUP8 DUP8 PUSH2 0xB33 JUMP JUMPDEST SWAP2 POP POP JUMPDEST SWAP5 SWAP4 POP POP POP POP JUMP JUMPDEST PUSH1 0x0 DUP1 PUSH2 0x36B DUP4 PUSH2 0xB5A JUMP JUMPDEST POP SWAP2 POP POP JUMPDEST SWAP2 SWAP1 POP JUMP JUMPDEST PUSH1 0x2 SLOAD PUSH1 0x1 PUSH1 0x1 PUSH1 0xA0 SHL SUB AND DUP2 JUMP JUMPDEST PUSH1 0x0 DUP1 PUSH1 0x0 PUSH2 0x392 DUP5 PUSH2 0xB5A JUMP JUMPDEST DUP1 MLOAD PUSH1 0x40 ADD MLOAD SWAP2 SWAP4 POP SWAP2 POP PUSH2 0x357 SWAP1 DUP4 PUSH2 0xB8F JUMP JUMPDEST PUSH1 0x0 DUP1 PUSH1 0x0 DUP1 PUSH2 0x3B7 DUP8 DUP7 PUSH2 0x44D JUMP JUMPDEST SWAP2 POP PUSH1 0x0 DUP3 PUSH1 0xFF AND GT PUSH2 0x3C9 JUMPI PUSH1 0x0 DUP1 REVERT JUMPDEST PUSH11 0x7FFFFFFFFFFFFFFFFFFFFF DUP9 LT PUSH2 0x3E0 JUMPI PUSH1 0x0 DUP1 REVERT JUMPDEST PUSH1 0x0 PUSH2 0x3F3 PUSH2 0x3EE DUP11 PUSH2 0xBBB JUMP JUMPDEST PUSH2 0xBD5 JUMP JUMPDEST SWAP1 POP PUSH1 0x0 DUP1 PUSH2 0x40E DUP13 DUP5 DUP8 PUSH1 0xFF AND DUP12 DUP14 PUSH4 0xFFFFFFFF AND PUSH2 0x981 JUMP JUMPDEST SWAP2 POP SWAP2 POP PUSH2 0x41C DUP13 DUP3 PUSH2 0xBE3 JUMP JUMPDEST SWAP7 POP PUSH2 0x427 DUP3 PUSH2 0xC2F JUMP JUMPDEST SWAP6 POP PUSH2 0x439 PUSH1 0x1 DUP7 DUP6 PUSH1 0xA SIGNEXTEND DUP13 PUSH2 0xC3E JUMP JUMPDEST POP DUP1 SWAP5 POP POP POP POP POP SWAP6 POP SWAP6 POP SWAP6 POP SWAP6 SWAP2 POP POP JUMP JUMPDEST PUSH1 0x0 DUP1 PUSH1 0x0 PUSH2 0x45E PUSH1 0x7 DUP7 DUP7 PUSH2 0xC9C JUMP JUMPDEST SWAP2 POP SWAP2 POP DUP1 PUSH2 0x46D JUMPI DUP2 PUSH2 0x470 JUMP JUMPDEST PUSH1 0x0 JUMPDEST SWAP6 SWAP5 POP POP POP POP POP JUMP JUMPDEST PUSH1 0x0 PUSH2 0x484 DUP4 PUSH2 0xD2B JUMP JUMPDEST PUSH1 0x0 PUSH2 0x493 DUP5 PUSH2 0xFFFF AND PUSH2 0xD68 JUMP JUMPDEST SWAP1 POP PUSH1 0x0 PUSH2 0x4AA DUP3 PUSH1 0x1 PUSH1 0x1 PUSH1 0x58 SHL SUB DUP7 AND PUSH2 0xD7B JUMP JUMPDEST SWAP1 POP PUSH2 0x4B4 PUSH2 0x4B82 JUMP JUMPDEST PUSH2 0x4BE DUP2 DUP8 PUSH2 0xDAB JUMP JUMPDEST DUP1 MLOAD PUSH1 0x40 ADD MLOAD PUSH1 0x0 SWAP1 PUSH2 0x4DD SWAP1 DUP4 SWAP1 PUSH2 0x4D7 SWAP1 DUP7 PUSH2 0xDC4 JUMP JUMPDEST TIMESTAMP PUSH2 0xDE6 JUMP JUMPDEST SWAP1 POP PUSH2 0x4E8 DUP2 PUSH2 0xC2F JUMP JUMPDEST SWAP5 POP POP POP POP POP JUMPDEST SWAP3 SWAP2 POP POP JUMP JUMPDEST PUSH1 0x0 DUP1 PUSH1 0x0 PUSH2 0x503 DUP6 PUSH2 0xB5A JUMP JUMPDEST SWAP2 POP SWAP2 POP PUSH1 0x0 PUSH2 0x52A DUP3 PUSH1 0x40 ADD MLOAD PUSH2 0x524 DUP6 DUP9 PUSH2 0xE93 SWAP1 SWAP2 SWAP1 PUSH4 0xFFFFFFFF AND JUMP JUMPDEST SWAP1 PUSH2 0xEE1 JUMP JUMPDEST DUP3 MLOAD PUSH1 0x40 ADD MLOAD SWAP1 SWAP2 POP PUSH1 0x0 SWAP1 PUSH2 0x540 SWAP1 DUP4 PUSH2 0xB8F JUMP JUMPDEST SWAP1 POP PUSH2 0x4E8 PUSH2 0x557 DUP9 PUSH2 0x552 DUP5 PUSH2 0xF12 JUMP JUMPDEST PUSH2 0xBE3 JUMP JUMPDEST PUSH2 0xBBB JUMP JUMPDEST PUSH1 0x0 DUP2 PUSH2 0x56A JUMPI POP DUP2 PUSH2 0x5B8 JUMP JUMPDEST PUSH1 0x0 PUSH2 0x576 DUP6 TIMESTAMP PUSH2 0xA7A JUMP JUMPDEST POP SWAP1 POP PUSH1 0x0 PUSH2 0x585 DUP3 DUP7 PUSH2 0xB8F JUMP JUMPDEST SWAP1 POP PUSH1 0x0 PUSH2 0x599 PUSH2 0x557 DUP9 PUSH2 0x552 DUP6 PUSH2 0xF12 JUMP JUMPDEST SWAP1 POP PUSH1 0x0 DUP3 SLT PUSH2 0x5A9 JUMPI DUP1 PUSH2 0x5B2 JUMP JUMPDEST PUSH2 0x5B2 DUP2 PUSH2 0xBD5 JUMP JUMPDEST SWAP4 POP POP POP POP JUMPDEST SWAP4 SWAP3 POP POP POP JUMP JUMPDEST PUSH1 0x1 SLOAD PUSH1 0x1 PUSH1 0x1 PUSH1 0xA0 SHL SUB AND DUP2 JUMP JUMPDEST PUSH1 0x0 PUSH2 0x5D9 DUP6 PUSH2 0xD2B JUMP JUMPDEST PUSH1 0x0 PUSH2 0x5E4 DUP7 PUSH2 0xF33 JUMP JUMPDEST SWAP1 POP PUSH2 0x353 DUP6 DUP6 DUP6 DUP5 PUSH2 0xF54 JUMP JUMPDEST PUSH1 0x0 SLOAD PUSH5 0x100000000 SWAP1 DIV PUSH1 0x1 PUSH1 0x1 PUSH1 0xA0 SHL SUB AND DUP2 JUMP JUMPDEST PUSH1 0x0 DUP1 PUSH2 0x615 DUP5 PUSH2 0xFE6 JUMP JUMPDEST SWAP1 POP PUSH2 0x61F PUSH2 0x4BCB JUMP JUMPDEST PUSH1 0x0 PUSH2 0x62A DUP4 PUSH2 0x109A JUMP JUMPDEST ISZERO PUSH2 0x6A0 JUMPI PUSH1 0x60 DUP4 ADD MLOAD PUSH2 0x642 SWAP1 DUP4 SWAP1 DUP9 SWAP1 DUP7 PUSH2 0x10A7 JUMP JUMPDEST PUSH1 0x0 DUP3 PUSH1 0x40 ADD MLOAD SGT ISZERO PUSH2 0x6A0 JUMPI PUSH1 0x0 PUSH2 0x662 DUP4 PUSH1 0x0 ADD MLOAD PUSH2 0xFFFF AND PUSH2 0x10CA JUMP JUMPDEST SWAP1 POP PUSH1 0x0 PUSH2 0x670 DUP3 DUP9 PUSH2 0x10F0 JUMP JUMPDEST POP SWAP2 POP POP PUSH1 0x0 PUSH2 0x68E DUP6 DUP5 DUP5 PUSH2 0x689 DUP10 PUSH1 0x40 ADD MLOAD PUSH2 0xC2F JUMP JUMPDEST PUSH2 0x1186 JUMP JUMPDEST SWAP1 POP PUSH2 0x69A DUP5 DUP3 PUSH2 0x12B3 JUMP JUMPDEST SWAP4 POP POP POP POP JUMPDEST PUSH1 0x80 DUP4 ADD MLOAD JUMPDEST PUSH1 0x1 PUSH1 0x1 PUSH1 0x70 SHL SUB NOT DUP2 AND ISZERO PUSH2 0x737 JUMPI PUSH1 0xF0 DUP2 SWAP1 SHR PUSH2 0x3FFF AND PUSH2 0x6CB DUP5 DUP10 DUP4 DUP9 PUSH2 0x10A7 JUMP JUMPDEST PUSH1 0x0 DUP5 PUSH1 0x40 ADD MLOAD SGT ISZERO PUSH2 0x724 JUMPI PUSH1 0x0 PUSH2 0x6EB DUP6 PUSH1 0x0 ADD MLOAD PUSH2 0xFFFF AND PUSH2 0x10CA JUMP JUMPDEST SWAP1 POP PUSH1 0x0 PUSH2 0x6F9 DUP3 DUP11 PUSH2 0x10F0 JUMP JUMPDEST POP SWAP2 POP POP PUSH1 0x0 PUSH2 0x712 DUP8 DUP5 DUP5 PUSH2 0x689 DUP12 PUSH1 0x40 ADD MLOAD PUSH2 0xC2F JUMP JUMPDEST SWAP1 POP PUSH2 0x71E DUP7 DUP3 PUSH2 0x12B3 JUMP JUMPDEST SWAP6 POP POP POP POP JUMPDEST POP PUSH1 0x10 SHL PUSH1 0x1 PUSH1 0x1 PUSH1 0x80 SHL SUB NOT AND PUSH2 0x6A6 JUMP JUMPDEST POP SWAP6 SWAP5 POP POP POP POP POP JUMP JUMPDEST PUSH1 0x0 DUP1 PUSH1 0x0 DUP1 PUSH2 0x751 DUP8 DUP7 PUSH2 0x44D JUMP JUMPDEST SWAP2 POP PUSH1 0x0 DUP3 PUSH1 0xFF AND GT PUSH2 0x763 JUMPI PUSH1 0x0 DUP1 REVERT JUMPDEST PUSH11 0x7FFFFFFFFFFFFFFFFFFFFF DUP9 LT PUSH2 0x77A JUMPI PUSH1 0x0 DUP1 REVERT JUMPDEST PUSH1 0x0 PUSH2 0x785 DUP10 PUSH2 0xBBB JUMP JUMPDEST SWAP1 POP PUSH1 0x0 DUP1 PUSH2 0x7A0 DUP13 DUP5 DUP8 PUSH1 0xFF AND DUP12 DUP14 PUSH4 0xFFFFFFFF AND PUSH2 0x981 JUMP JUMPDEST SWAP2 POP SWAP2 POP PUSH2 0x7AE DUP13 DUP3 PUSH2 0xBE3 JUMP JUMPDEST SWAP7 POP PUSH2 0x7C1 PUSH2 0x7BC DUP4 PUSH2 0xBD5 JUMP JUMPDEST PUSH2 0xC2F JUMP JUMPDEST SWAP6 POP PUSH2 0x439 PUSH1 0x0 DUP7 DUP6 PUSH1 0xA SIGNEXTEND DUP13 PUSH2 0xC3E JUMP JUMPDEST PUSH1 0x0 DUP1 PUSH1 0x0 PUSH2 0x7E2 DUP8 DUP7 PUSH2 0x44D JUMP JUMPDEST SWAP2 POP PUSH1 0x0 DUP3 PUSH1 0xFF AND GT PUSH2 0x7F4 JUMPI PUSH1 0x0 DUP1 REVERT JUMPDEST PUSH1 0x0 DUP1 PUSH2 0x802 DUP12 DUP12 DUP9 PUSH2 0x12C5 JUMP JUMPDEST SWAP2 POP SWAP2 POP PUSH1 0x0 PUSH2 0x81F PUSH2 0x814 DUP5 PUSH2 0x132B JUMP JUMPDEST DUP7 PUSH1 0xFF AND DUP11 DUP6 PUSH2 0xF54 JUMP JUMPDEST SWAP1 POP PUSH1 0x0 DUP2 SLT PUSH2 0x82E JUMPI PUSH1 0x0 DUP1 REVERT JUMPDEST PUSH2 0x83B PUSH1 0x1 DUP7 DUP4 DUP13 PUSH2 0xC3E JUMP JUMPDEST SWAP14 SWAP6 SWAP13 POP SWAP11 POP SWAP4 SWAP9 POP POP POP POP POP POP POP POP POP JUMP JUMPDEST PUSH20 0x0 SWAP1 JUMP JUMPDEST PUSH2 0x86E PUSH2 0x4C27 JUMP JUMPDEST PUSH2 0x876 PUSH2 0x4C48 JUMP JUMPDEST PUSH2 0x87F DUP4 PUSH2 0x135D JUMP JUMPDEST SWAP2 POP PUSH2 0x88A DUP4 PUSH2 0x136F JUMP JUMPDEST SWAP1 POP SWAP2 POP SWAP2 JUMP JUMPDEST PUSH1 0x0 DUP1 PUSH2 0x89D DUP8 PUSH2 0xF33 JUMP JUMPDEST SWAP1 POP DUP3 ISZERO PUSH2 0x8B8 JUMPI PUSH2 0x8B1 DUP2 DUP7 DUP9 DUP8 PUSH2 0x1437 JUMP JUMPDEST SWAP2 POP PUSH2 0x737 JUMP JUMPDEST PUSH2 0x8CE DUP6 DUP8 DUP7 PUSH2 0x8C9 DUP6 DUP4 DUP4 PUSH2 0x1487 JUMP JUMPDEST PUSH2 0x1570 JUMP JUMPDEST SWAP8 SWAP7 POP POP POP POP POP POP POP JUMP JUMPDEST PUSH1 0x0 DUP1 PUSH2 0x8E6 DUP5 TIMESTAMP PUSH2 0xA7A JUMP JUMPDEST POP SWAP1 POP PUSH1 0x0 PUSH2 0x8F8 DUP6 PUSH2 0xFFFF AND PUSH2 0xD68 JUMP JUMPDEST SWAP1 POP PUSH1 0x0 PUSH2 0x906 DUP3 DUP7 PUSH2 0xD7B JUMP JUMPDEST SWAP1 POP PUSH2 0x912 DUP4 DUP3 PUSH2 0xDC4 JUMP JUMPDEST SWAP7 SWAP6 POP POP POP POP POP POP JUMP JUMPDEST PUSH1 0x0 DUP1 PUSH1 0x0 PUSH2 0x92B DUP8 DUP7 PUSH2 0x44D JUMP JUMPDEST SWAP2 POP PUSH1 0x0 DUP3 PUSH1 0xFF AND GT PUSH2 0x93D JUMPI PUSH1 0x0 DUP1 REVERT JUMPDEST PUSH1 0x0 DUP1 PUSH2 0x94B DUP12 DUP12 DUP9 PUSH2 0x12C5 JUMP JUMPDEST SWAP2 POP SWAP2 POP PUSH1 0x0 PUSH2 0x965 PUSH2 0x814 PUSH2 0x960 DUP6 PUSH2 0xBD5 JUMP JUMPDEST PUSH2 0x132B JUMP JUMPDEST SWAP1 POP DUP1 PUSH1 0x0 SLT PUSH2 0x974 JUMPI PUSH1 0x0 DUP1 REVERT JUMPDEST PUSH2 0x83B PUSH1 0x0 DUP7 DUP4 DUP13 PUSH2 0xC3E JUMP JUMPDEST PUSH1 0x0 DUP1 PUSH2 0x98D DUP8 PUSH2 0xD2B JUMP JUMPDEST PUSH1 0x0 PUSH2 0x998 DUP9 PUSH2 0xF33 JUMP JUMPDEST SWAP1 POP PUSH2 0x9A2 PUSH2 0x4C94 JUMP JUMPDEST PUSH2 0x9B0 DUP3 DUP3 DUP10 PUSH1 0x0 DUP11 PUSH2 0x15B6 JUMP JUMPDEST DUP6 DUP2 PUSH1 0x20 ADD MLOAD GT PUSH2 0x9DC JUMPI PUSH1 0x40 MLOAD PUSH3 0x461BCD PUSH1 0xE5 SHL DUP2 MSTORE PUSH1 0x4 ADD PUSH2 0x9D3 SWAP1 PUSH2 0x5279 JUMP JUMPDEST PUSH1 0x40 MLOAD DUP1 SWAP2 SUB SWAP1 REVERT JUMPDEST PUSH1 0x20 DUP2 ADD MLOAD DUP7 SWAP1 SUB PUSH1 0x0 DUP1 PUSH2 0x9F8 DUP5 DUP7 PUSH1 0xA DUP15 SWAP1 SIGNEXTEND DUP7 DUP15 PUSH2 0x1631 JUMP JUMPDEST SWAP3 POP POP SWAP2 POP DUP8 PUSH1 0x0 EQ PUSH2 0xA56 JUMPI PUSH1 0x0 DUP12 PUSH1 0xA SIGNEXTEND SLT ISZERO PUSH2 0xA36 JUMPI DUP8 DUP2 GT ISZERO PUSH2 0xA31 JUMPI PUSH1 0x40 MLOAD PUSH3 0x461BCD PUSH1 0xE5 SHL DUP2 MSTORE PUSH1 0x4 ADD PUSH2 0x9D3 SWAP1 PUSH2 0x5249 JUMP JUMPDEST PUSH2 0xA56 JUMP JUMPDEST DUP8 DUP2 LT ISZERO PUSH2 0xA56 JUMPI PUSH1 0x40 MLOAD PUSH3 0x461BCD PUSH1 0xE5 SHL DUP2 MSTORE PUSH1 0x4 ADD PUSH2 0x9D3 SWAP1 PUSH2 0x5249 JUMP JUMPDEST PUSH1 0x40 DUP6 ADD MLOAD DUP3 SWAP1 PUSH2 0xA67 SWAP1 DUP3 PUSH2 0xB8F JUMP JUMPDEST SWAP7 POP SWAP7 POP POP POP POP POP POP SWAP6 POP SWAP6 SWAP4 POP POP POP POP JUMP JUMPDEST PUSH2 0xA82 PUSH2 0x4C27 JUMP JUMPDEST PUSH2 0xA8A PUSH2 0x4C48 JUMP JUMPDEST PUSH2 0xA93 DUP5 PUSH2 0x136F JUMP JUMPDEST SWAP1 POP DUP3 DUP2 PUSH1 0x0 ADD MLOAD LT ISZERO PUSH2 0xAC4 JUMPI PUSH1 0x0 PUSH2 0xAAC DUP6 PUSH2 0x1771 JUMP JUMPDEST SWAP1 POP PUSH2 0xABA DUP6 DUP4 DUP4 DUP8 PUSH2 0x17EC JUMP JUMPDEST POP SWAP2 POP PUSH2 0xAD1 SWAP1 POP JUMP JUMPDEST DUP1 MLOAD DUP4 EQ PUSH2 0xAD1 JUMPI PUSH1 0x0 DUP1 REVERT JUMPDEST PUSH1 0x40 MLOAD DUP1 PUSH1 0x60 ADD PUSH1 0x40 MSTORE DUP1 PUSH2 0xAFA PUSH2 0x557 DUP5 PUSH1 0xA0 ADD MLOAD DUP6 PUSH1 0xC0 ADD MLOAD PUSH2 0x1890 SWAP1 SWAP2 SWAP1 PUSH4 0xFFFFFFFF AND JUMP JUMPDEST DUP2 MSTORE PUSH1 0x20 ADD PUSH2 0xB1D PUSH2 0x557 DUP5 PUSH1 0xA0 ADD MLOAD DUP6 PUSH1 0xE0 ADD MLOAD PUSH2 0x1890 SWAP1 SWAP2 SWAP1 PUSH4 0xFFFFFFFF AND JUMP JUMPDEST DUP2 MSTORE PUSH1 0x20 ADD DUP3 PUSH1 0x60 ADD MLOAD DUP2 MSTORE POP SWAP2 POP SWAP3 POP SWAP3 SWAP1 POP JUMP JUMPDEST PUSH1 0x0 DUP1 PUSH2 0xB41 DUP7 DUP7 DUP6 PUSH2 0x18B7 JUMP JUMPDEST SWAP1 POP PUSH2 0xB4E DUP8 DUP3 DUP7 PUSH2 0x18DF JUMP JUMPDEST POP SWAP8 SWAP7 POP POP POP POP POP POP POP JUMP JUMPDEST PUSH1 0x0 PUSH2 0xB64 PUSH2 0x4B82 JUMP JUMPDEST TIMESTAMP PUSH2 0xB6D PUSH2 0x4B82 JUMP JUMPDEST PUSH2 0xB77 DUP2 DUP7 PUSH2 0xDAB JUMP JUMPDEST PUSH1 0x0 PUSH2 0xB83 DUP3 DUP5 PUSH2 0x194D JUMP JUMPDEST SWAP5 POP SWAP1 SWAP3 POP POP POP SWAP2 POP SWAP2 JUMP JUMPDEST PUSH1 0x0 PUSH2 0x5B8 PUSH15 0xC097CE7BC90715B34B9F1000000000 PUSH2 0x524 DUP6 PUSH1 0x0 ADD MLOAD DUP6 PUSH2 0xE93 SWAP1 SWAP2 SWAP1 PUSH4 0xFFFFFFFF AND JUMP JUMPDEST PUSH1 0x0 PUSH1 0x1 PUSH1 0x1 PUSH1 0xFF SHL SUB DUP3 GT ISZERO PUSH2 0xBD1 JUMPI PUSH1 0x0 DUP1 REVERT JUMPDEST POP SWAP1 JUMP JUMPDEST PUSH1 0x0 PUSH2 0x4EF PUSH1 0x0 NOT DUP4 PUSH2 0xE93 JUMP JUMPDEST PUSH1 0x0 DUP1 PUSH2 0xBF3 DUP5 PUSH2 0xFFFF AND PUSH2 0xD68 JUMP JUMPDEST SWAP1 POP PUSH1 0x0 DUP1 DUP5 SLT PUSH2 0xC15 JUMPI PUSH2 0xC10 PUSH2 0xC0B DUP4 DUP7 PUSH2 0x1A01 JUMP JUMPDEST PUSH2 0xF12 JUMP JUMPDEST PUSH2 0xC28 JUMP JUMPDEST PUSH2 0xC28 PUSH2 0xC21 DUP6 PUSH2 0xBD5 JUMP JUMPDEST DUP4 SWAP1 PUSH2 0x1A39 JUMP JUMPDEST SWAP1 POP PUSH2 0x470 DUP2 JUMPDEST PUSH1 0x0 DUP1 DUP3 SLT ISZERO PUSH2 0xBD1 JUMPI PUSH1 0x0 DUP1 REVERT JUMPDEST PUSH1 0x0 DUP1 PUSH1 0x0 PUSH2 0xC4C DUP6 PUSH2 0xF12 JUMP JUMPDEST SWAP1 POP PUSH1 0x1 PUSH1 0x1 PUSH1 0x58 SHL SUB DUP2 GT ISZERO PUSH2 0xC62 JUMPI PUSH1 0x0 DUP1 REVERT JUMPDEST PUSH1 0x78 DUP5 PUSH4 0xFFFFFFFF AND SWAP1 SHL PUSH1 0x98 DUP3 SWAP1 SHL PUSH1 0xF0 DUP9 PUSH1 0xFF AND SWAP1 SHL PUSH1 0xF8 DUP11 PUSH1 0x5 DUP2 GT ISZERO PUSH2 0xC88 JUMPI INVALID JUMPDEST PUSH1 0xFF AND SWAP1 SHL OR OR OR SWAP8 SWAP1 SWAP7 POP SWAP5 POP POP POP POP POP JUMP JUMPDEST PUSH1 0x0 DUP1 PUSH1 0x0 DUP6 GT PUSH2 0xCAC JUMPI PUSH1 0x0 DUP1 REVERT JUMPDEST PUSH1 0x7 DUP6 GT ISZERO PUSH2 0xCBA JUMPI PUSH1 0x0 DUP1 REVERT JUMPDEST PUSH1 0x0 PUSH2 0xCC5 DUP5 PUSH2 0x1A75 JUMP JUMPDEST SWAP1 POP PUSH1 0x1 JUMPDEST DUP7 DUP2 GT PUSH2 0xD1D JUMPI PUSH1 0x0 PUSH2 0xCE6 PUSH2 0xCDF DUP4 PUSH2 0x1A96 JUMP JUMPDEST DUP5 SWAP1 PUSH2 0x12B3 JUMP JUMPDEST SWAP1 POP DUP7 DUP2 EQ ISZERO PUSH2 0xCFE JUMPI POP SWAP3 POP PUSH1 0x0 SWAP2 POP PUSH2 0xD23 SWAP1 POP JUMP JUMPDEST DUP7 DUP2 GT ISZERO PUSH2 0xD14 JUMPI POP SWAP3 POP PUSH1 0x1 SWAP2 POP PUSH2 0xD23 SWAP1 POP JUMP JUMPDEST POP PUSH1 0x1 ADD PUSH2 0xCCA JUMP JUMPDEST POP PUSH1 0x0 DUP1 REVERT JUMPDEST SWAP4 POP SWAP4 SWAP2 POP POP JUMP JUMPDEST DUP1 PUSH2 0xFFFF AND PUSH1 0x0 LT DUP1 ISZERO PUSH2 0xD49 JUMPI POP PUSH1 0x0 SLOAD PUSH2 0xFFFF SWAP1 DUP2 AND SWAP1 DUP3 AND GT ISZERO JUMPDEST PUSH2 0xD65 JUMPI PUSH1 0x40 MLOAD PUSH3 0x461BCD PUSH1 0xE5 SHL DUP2 MSTORE PUSH1 0x4 ADD PUSH2 0x9D3 SWAP1 PUSH2 0x52A5 JUMP JUMPDEST POP JUMP JUMPDEST PUSH2 0xD70 PUSH2 0x4CDC JUMP JUMPDEST PUSH2 0x4EF DUP3 PUSH1 0x1 PUSH2 0x1B3A JUMP JUMPDEST PUSH1 0x0 PUSH4 0x5F5E100 DUP4 PUSH1 0x40 ADD MLOAD EQ ISZERO PUSH2 0xD94 JUMPI POP DUP1 PUSH2 0x4EF JUMP JUMPDEST PUSH1 0x40 DUP4 ADD MLOAD PUSH2 0x5B8 SWAP1 PUSH2 0x524 DUP5 PUSH4 0x5F5E100 PUSH2 0xE93 JUMP JUMPDEST PUSH2 0xDB5 DUP3 DUP3 PUSH2 0x1BD4 JUMP JUMPDEST PUSH2 0xDBE DUP2 PUSH2 0xF33 JUMP JUMPDEST SWAP1 SWAP2 MSTORE POP JUMP JUMPDEST DUP2 MLOAD PUSH1 0x0 SWAP1 PUSH2 0x5B8 SWAP1 PUSH2 0x524 DUP5 PUSH15 0xC097CE7BC90715B34B9F1000000000 PUSH2 0xE93 JUMP JUMPDEST PUSH1 0x0 DUP1 DUP4 SLT ISZERO PUSH2 0xDF5 JUMPI PUSH1 0x0 DUP1 REVERT JUMPDEST DUP3 PUSH2 0xE02 JUMPI POP PUSH1 0x0 PUSH2 0x5B8 JUMP JUMPDEST PUSH1 0x80 DUP5 ADD MLOAD ISZERO PUSH2 0xE3A JUMPI PUSH1 0x0 PUSH2 0xE17 DUP6 PUSH2 0x1C70 JUMP JUMPDEST SWAP1 POP DUP3 DUP2 GT PUSH2 0xE38 JUMPI PUSH1 0x40 MLOAD PUSH3 0x461BCD PUSH1 0xE5 SHL DUP2 MSTORE PUSH1 0x4 ADD PUSH2 0x9D3 SWAP1 PUSH2 0x51A5 JUMP JUMPDEST POP JUMPDEST PUSH1 0x0 PUSH2 0xE46 DUP6 DUP5 PUSH2 0x194D JUMP JUMPDEST SWAP1 POP PUSH1 0x0 DUP2 SLT ISZERO PUSH2 0xE56 JUMPI PUSH1 0x0 DUP1 REVERT JUMPDEST PUSH1 0x40 DUP6 ADD MLOAD PUSH2 0xE68 JUMPI DUP4 SWAP2 POP POP PUSH2 0x5B8 JUMP JUMPDEST PUSH2 0xE83 DUP2 PUSH2 0x524 DUP8 PUSH1 0x40 ADD MLOAD DUP8 PUSH2 0xE93 SWAP1 SWAP2 SWAP1 PUSH4 0xFFFFFFFF AND JUMP JUMPDEST SWAP2 POP POP PUSH2 0x5B8 JUMP JUMPDEST POP SWAP4 SWAP3 POP POP POP JUMP JUMPDEST DUP2 DUP2 MUL PUSH1 0x0 NOT DUP4 EQ ISZERO PUSH2 0xEC3 JUMPI DUP2 ISZERO DUP1 PUSH2 0xEB5 JUMPI POP DUP3 DUP3 DUP3 DUP2 PUSH2 0xEB2 JUMPI INVALID JUMPDEST SDIV EQ JUMPDEST PUSH2 0xEBE JUMPI PUSH1 0x0 DUP1 REVERT JUMPDEST PUSH2 0x4EF JUMP JUMPDEST DUP3 ISZERO DUP1 PUSH2 0xED8 JUMPI POP DUP2 DUP4 DUP3 DUP2 PUSH2 0xED5 JUMPI INVALID JUMPDEST SDIV EQ JUMPDEST PUSH2 0x4EF JUMPI PUSH1 0x0 DUP1 REVERT JUMPDEST PUSH1 0x0 DUP2 PUSH1 0x0 NOT EQ DUP1 ISZERO PUSH2 0xEF7 JUMPI POP PUSH1 0x1 PUSH1 0xFF SHL DUP4 EQ JUMPDEST ISZERO PUSH2 0xF01 JUMPI PUSH1 0x0 DUP1 REVERT JUMPDEST DUP2 DUP4 DUP2 PUSH2 0xF0A JUMPI INVALID JUMPDEST SDIV SWAP4 SWAP3 POP POP POP JUMP JUMPDEST PUSH1 0x0 DUP1 DUP3 SLT ISZERO PUSH2 0xF2C JUMPI PUSH2 0xF25 DUP3 PUSH2 0xBD5 JUMP JUMPDEST SWAP1 POP PUSH2 0x370 JUMP JUMPDEST POP DUP1 PUSH2 0x370 JUMP JUMPDEST PUSH2 0xF3B PUSH2 0x4D0B JUMP JUMPDEST PUSH1 0x0 PUSH2 0xF47 DUP4 TIMESTAMP PUSH2 0xA7A JUMP JUMPDEST POP SWAP1 POP PUSH2 0x5B8 DUP4 DUP3 PUSH2 0x1CA1 JUMP JUMPDEST PUSH1 0x0 PUSH2 0xF5E PUSH2 0x4C94 JUMP JUMPDEST PUSH2 0xF6C DUP4 DUP3 DUP8 PUSH1 0x0 DUP9 PUSH2 0x15B6 JUMP JUMPDEST DUP4 DUP2 PUSH1 0x20 ADD MLOAD GT PUSH2 0xF8F JUMPI PUSH1 0x40 MLOAD PUSH3 0x461BCD PUSH1 0xE5 SHL DUP2 MSTORE PUSH1 0x4 ADD PUSH2 0x9D3 SWAP1 PUSH2 0x5279 JUMP JUMPDEST PUSH1 0x0 DUP5 DUP3 PUSH1 0x20 ADD MLOAD SUB SWAP1 POP PUSH1 0x0 PUSH2 0xFAA DUP6 PUSH1 0x0 ADD MLOAD DUP9 PUSH2 0x1CE4 JUMP JUMPDEST SWAP1 POP PUSH2 0xFDA DUP2 DUP5 PUSH1 0x40 ADD MLOAD DUP11 PUSH1 0xA SIGNEXTEND PUSH2 0xFD4 DUP8 PUSH1 0x60 ADD MLOAD DUP11 PUSH1 0x40 ADD MLOAD PUSH2 0xB8F SWAP1 SWAP2 SWAP1 PUSH4 0xFFFFFFFF AND JUMP JUMPDEST DUP7 PUSH2 0x1CFE JUMP JUMPDEST SWAP9 SWAP8 POP POP POP POP POP POP POP POP JUMP JUMPDEST PUSH2 0xFEE PUSH2 0x4D37 JUMP JUMPDEST PUSH1 0x0 PUSH2 0xFF8 PUSH2 0x1E3A JUMP JUMPDEST PUSH1 0x1 PUSH1 0x1 PUSH1 0xA0 SHL SUB DUP5 AND PUSH1 0x0 SWAP1 DUP2 MSTORE PUSH1 0x20 SWAP2 DUP3 MSTORE PUSH1 0x40 SWAP1 DUP2 SWAP1 KECCAK256 DUP2 MLOAD PUSH1 0xC0 DUP2 ADD DUP4 MSTORE SWAP1 SLOAD PUSH5 0xFFFFFFFFFF DUP2 AND DUP3 MSTORE PUSH1 0x1 PUSH1 0x1 PUSH1 0xF8 SHL SUB NOT PUSH1 0x1 PUSH1 0x28 SHL DUP3 DIV PUSH1 0xF8 SHL AND SWAP4 DUP3 ADD SWAP4 SWAP1 SWAP4 MSTORE PUSH1 0xFF PUSH1 0x1 PUSH1 0x30 SHL DUP5 DIV DUP2 AND SWAP3 DUP3 ADD SWAP3 SWAP1 SWAP3 MSTORE PUSH2 0xFFFF PUSH1 0x1 PUSH1 0x38 SHL DUP5 DIV AND PUSH1 0x60 DUP3 ADD MSTORE PUSH1 0x1 PUSH1 0x1 PUSH1 0x70 SHL SUB NOT PUSH10 0x1000000000000000000 DUP5 DIV PUSH1 0x70 SHL AND PUSH1 0x80 DUP3 ADD MSTORE PUSH1 0x1 PUSH1 0xD8 SHL SWAP1 SWAP3 DIV AND ISZERO ISZERO PUSH1 0xA0 DUP3 ADD MSTORE SWAP2 POP POP SWAP2 SWAP1 POP JUMP JUMPDEST PUSH1 0x60 ADD MLOAD PUSH2 0xFFFF AND ISZERO ISZERO SWAP1 JUMP JUMPDEST PUSH2 0x10B1 DUP3 TIMESTAMP PUSH2 0xA7A JUMP JUMPDEST POP PUSH2 0x120 DUP6 ADD MSTORE PUSH2 0x10C4 DUP5 DUP5 DUP5 DUP5 PUSH2 0x1E47 JUMP JUMPDEST POP POP POP POP JUMP JUMPDEST PUSH1 0x0 DUP1 PUSH2 0x10D5 PUSH2 0x1EEF JUMP JUMPDEST PUSH1 0x0 SWAP4 DUP5 MSTORE PUSH1 0x20 MSTORE POP POP PUSH1 0x40 SWAP1 KECCAK256 SLOAD PUSH1 0x1 PUSH1 0x1 PUSH1 0xA0 SHL SUB AND SWAP1 JUMP JUMPDEST PUSH1 0x0 DUP1 PUSH1 0x0 PUSH2 0x10FE DUP6 PUSH2 0x1EFC JUMP JUMPDEST SWAP2 SWAP5 POP SWAP3 POP SWAP1 POP DUP1 DUP5 GT DUP1 ISZERO PUSH2 0x1114 JUMPI POP PUSH1 0x0 DUP2 GT JUMPDEST DUP1 ISZERO PUSH2 0x1120 JUMPI POP PUSH1 0x0 DUP4 GT JUMPDEST ISZERO PUSH2 0x117F JUMPI PUSH1 0x0 PUSH2 0x1130 DUP7 PUSH2 0x1F5D JUMP JUMPDEST POP POP POP SWAP2 POP POP PUSH1 0x0 PUSH2 0x115B PUSH2 0x1152 PUSH4 0x5F5E100 DUP5 PUSH2 0x1890 SWAP1 SWAP2 SWAP1 PUSH4 0xFFFFFFFF AND JUMP JUMPDEST DUP5 DUP9 SUB DUP8 PUSH2 0x1FC6 JUMP JUMPDEST SWAP1 POP PUSH2 0x1167 DUP5 DUP3 PUSH2 0x12B3 JUMP JUMPDEST SWAP4 POP PUSH1 0x1 PUSH1 0x1 PUSH1 0x80 SHL SUB DUP5 LT PUSH2 0x117C JUMPI PUSH1 0x0 DUP1 REVERT JUMPDEST POP POP JUMPDEST SWAP3 POP SWAP3 POP SWAP3 JUMP JUMPDEST PUSH1 0xE0 DUP5 ADD MLOAD PUSH1 0x0 SWAP1 ISZERO PUSH2 0x1247 JUMPI PUSH20 0x0 PUSH4 0xE0C01A72 DUP6 PUSH2 0x11BB DUP9 PUSH1 0x40 ADD MLOAD PUSH2 0xC2F JUMP JUMPDEST DUP9 PUSH1 0xE0 ADD MLOAD DUP10 PUSH2 0x100 ADD MLOAD PUSH1 0x40 MLOAD DUP6 PUSH4 0xFFFFFFFF AND PUSH1 0xE0 SHL DUP2 MSTORE PUSH1 0x4 ADD PUSH2 0x11E5 SWAP5 SWAP4 SWAP3 SWAP2 SWAP1 PUSH2 0x5138 JUMP JUMPDEST PUSH1 0x20 PUSH1 0x40 MLOAD DUP1 DUP4 SUB DUP2 DUP7 DUP1 EXTCODESIZE ISZERO DUP1 ISZERO PUSH2 0x11FD JUMPI PUSH1 0x0 DUP1 REVERT JUMPDEST POP GAS DELEGATECALL ISZERO DUP1 ISZERO PUSH2 0x1211 JUMPI RETURNDATASIZE PUSH1 0x0 DUP1 RETURNDATACOPY RETURNDATASIZE PUSH1 0x0 REVERT JUMPDEST POP POP POP POP PUSH1 0x40 MLOAD RETURNDATASIZE PUSH1 0x1F NOT PUSH1 0x1F DUP3 ADD AND DUP3 ADD DUP1 PUSH1 0x40 MSTORE POP DUP2 ADD SWAP1 PUSH2 0x1235 SWAP2 SWAP1 PUSH2 0x50AF JUMP JUMPDEST PUSH1 0x0 PUSH1 0xE0 DUP8 ADD DUP2 SWAP1 MSTORE PUSH2 0x100 DUP8 ADD MSTORE SWAP1 POP JUMPDEST PUSH2 0x1289 PUSH2 0x1282 DUP7 PUSH2 0x100 ADD MLOAD PUSH2 0x127C PUSH8 0xDE0B6B3A7640000 PUSH2 0x1276 DUP9 PUSH2 0x1270 DUP13 PUSH1 0x40 ADD MLOAD PUSH2 0xC2F JUMP JUMPDEST SWAP1 PUSH2 0x1890 JUMP JUMPDEST SWAP1 PUSH2 0x1FE8 JUMP JUMPDEST SWAP1 PUSH2 0x2007 JUMP JUMPDEST DUP3 SWAP1 PUSH2 0x12B3 JUMP JUMPDEST SWAP1 POP PUSH2 0x12A1 PUSH8 0xDE0B6B3A7640000 PUSH2 0x1276 DUP5 DUP7 PUSH2 0x1890 JUMP JUMPDEST DUP6 PUSH2 0x100 ADD DUP2 DUP2 MSTORE POP POP SWAP5 SWAP4 POP POP POP POP JUMP JUMPDEST PUSH1 0x0 DUP3 DUP3 ADD DUP4 DUP2 LT ISZERO PUSH2 0x5B8 JUMPI PUSH1 0x0 DUP1 REVERT JUMPDEST PUSH1 0x0 PUSH2 0x12CF PUSH2 0x4D0B JUMP JUMPDEST PUSH1 0x0 PUSH2 0x12DA DUP6 PUSH2 0xBBB JUMP JUMPDEST SWAP1 POP PUSH2 0x12E5 DUP7 PUSH2 0xF33 JUMP JUMPDEST SWAP2 POP DUP4 ISZERO PUSH2 0x1310 JUMPI PUSH1 0x0 PUSH2 0x12FC DUP8 PUSH2 0xFFFF AND PUSH2 0xD68 JUMP JUMPDEST SWAP1 POP PUSH2 0x1308 DUP2 DUP4 PUSH2 0xD7B JUMP JUMPDEST SWAP4 POP POP PUSH2 0x1322 JUMP JUMPDEST PUSH1 0x40 DUP3 ADD MLOAD PUSH2 0x131F SWAP1 DUP3 PUSH2 0xB8F JUMP JUMPDEST SWAP3 POP JUMPDEST POP SWAP4 POP SWAP4 SWAP2 POP POP JUMP JUMPDEST PUSH1 0x0 PUSH11 0x7FFFFFFFFFFFFFFFFFFFFF NOT DUP3 SLT DUP1 ISZERO SWAP1 PUSH2 0x1354 JUMPI POP PUSH11 0x7FFFFFFFFFFFFFFFFFFFFF DUP3 SGT ISZERO JUMPDEST PUSH2 0xBD1 JUMPI PUSH1 0x0 DUP1 REVERT JUMPDEST PUSH2 0x1365 PUSH2 0x4C27 JUMP JUMPDEST PUSH2 0x4EF DUP3 TIMESTAMP PUSH2 0x201C JUMP JUMPDEST PUSH2 0x1377 PUSH2 0x4C48 JUMP JUMPDEST PUSH1 0x0 PUSH2 0x1381 PUSH2 0x20DD JUMP JUMPDEST PUSH2 0xFFFF SWAP4 DUP5 AND PUSH1 0x0 SWAP1 DUP2 MSTORE PUSH1 0x20 SWAP2 DUP3 MSTORE PUSH1 0x40 SWAP1 DUP2 SWAP1 KECCAK256 DUP1 SLOAD PUSH5 0xFFFFFFFFFF DUP2 AND DUP7 MSTORE PUSH1 0x1 PUSH1 0x28 SHL DUP2 DIV PUSH1 0x1 PUSH1 0x1 PUSH1 0x58 SHL SUB SWAP1 DUP2 AND SWAP5 DUP8 ADD SWAP5 SWAP1 SWAP5 MSTORE PUSH1 0x1 DUP3 ADD SLOAD DUP5 AND SWAP3 DUP7 ADD SWAP3 SWAP1 SWAP3 MSTORE PUSH1 0x1 PUSH1 0xD8 SHL DUP3 DIV PUSH4 0xFFFFFFFF AND PUSH1 0x60 DUP7 ADD MSTORE PUSH1 0x1 PUSH1 0x80 SHL SWAP1 SWAP2 DIV SWAP1 SWAP2 AND PUSH1 0x80 DUP5 ADD MSTORE PUSH1 0x2 ADD SLOAD PUSH1 0x1 PUSH1 0x1 PUSH1 0x50 SHL SUB DUP1 DUP3 AND PUSH1 0xA0 DUP6 ADD MSTORE PUSH1 0x1 PUSH1 0x50 SHL DUP3 DIV DUP2 AND PUSH1 0xC0 DUP6 ADD MSTORE PUSH1 0x1 PUSH1 0xA0 SHL DUP3 DIV AND PUSH1 0xE0 DUP5 ADD MSTORE PUSH1 0x1 PUSH1 0xF0 SHL SWAP1 DIV PUSH1 0xFF AND PUSH2 0x12C MUL SWAP1 SWAP3 AND PUSH2 0x100 DUP3 ADD MSTORE SWAP2 SWAP1 POP JUMP JUMPDEST PUSH1 0x0 DUP4 PUSH2 0x1446 JUMPI POP PUSH1 0x0 PUSH2 0x357 JUMP JUMPDEST PUSH1 0x0 DUP1 DUP6 SGT PUSH2 0x145F JUMPI PUSH2 0x145A DUP7 DUP6 DUP6 PUSH2 0x20EA JUMP JUMPDEST PUSH2 0x146A JUMP JUMPDEST PUSH2 0x146A DUP7 DUP6 DUP6 PUSH2 0x2126 JUMP JUMPDEST SWAP1 POP PUSH4 0x3B9ACA00 DUP2 SGT ISZERO PUSH2 0x147D JUMPI PUSH1 0x0 DUP1 REVERT JUMPDEST PUSH2 0x353 DUP6 DUP3 PUSH2 0x2167 JUMP JUMPDEST PUSH1 0x0 DUP1 PUSH1 0x0 PUSH2 0x149B DUP7 PUSH1 0x20 ADD MLOAD DUP7 DUP7 PUSH2 0xC9C JUMP JUMPDEST SWAP2 POP SWAP2 POP PUSH1 0x0 PUSH2 0x14AA DUP8 PUSH2 0x2180 JUMP JUMPDEST SWAP1 POP DUP2 PUSH2 0x14CA JUMPI DUP7 MLOAD PUSH2 0x14C3 SWAP1 PUSH2 0xFFFF AND DUP8 DUP4 DUP9 PUSH2 0x2194 JUMP JUMPDEST SWAP4 POP PUSH2 0x1566 JUMP JUMPDEST PUSH1 0x0 PUSH2 0x14D5 DUP7 PUSH2 0x1A75 JUMP JUMPDEST SWAP1 POP PUSH1 0x0 PUSH2 0x14EC PUSH2 0x14E5 DUP7 PUSH2 0x1A96 JUMP JUMPDEST DUP4 SWAP1 PUSH2 0x12B3 JUMP JUMPDEST SWAP1 POP PUSH1 0x0 PUSH2 0x1504 DUP11 PUSH1 0x0 ADD MLOAD PUSH2 0xFFFF AND DUP4 DUP7 DUP12 PUSH2 0x2194 JUMP JUMPDEST SWAP1 POP PUSH1 0x0 DUP1 DUP8 PUSH1 0x1 EQ ISZERO PUSH2 0x1522 JUMPI POP POP PUSH1 0x40 DUP1 DUP12 ADD MLOAD ADD MLOAD DUP9 PUSH2 0x1551 JUMP JUMPDEST PUSH2 0x1538 PUSH2 0x1531 PUSH1 0x1 DUP11 SUB PUSH2 0x1A96 JUMP JUMPDEST DUP7 SWAP1 PUSH2 0x12B3 JUMP JUMPDEST SWAP1 POP PUSH2 0x154E DUP13 PUSH1 0x0 ADD MLOAD PUSH2 0xFFFF AND DUP3 DUP9 DUP14 PUSH2 0x2194 JUMP JUMPDEST SWAP2 POP JUMPDEST PUSH2 0x155E DUP2 DUP6 DUP5 DUP7 DUP16 PUSH2 0x2233 JUMP JUMPDEST SWAP9 POP POP POP POP POP POP JUMPDEST POP POP POP SWAP4 SWAP3 POP POP POP JUMP JUMPDEST PUSH1 0x0 DUP5 PUSH2 0x157F JUMPI POP PUSH1 0x0 PUSH2 0x357 JUMP JUMPDEST PUSH1 0x0 PUSH2 0x158B DUP6 DUP6 PUSH2 0x2007 JUMP JUMPDEST SWAP1 POP PUSH1 0x0 PUSH2 0x1599 DUP3 DUP6 PUSH2 0x2291 JUMP JUMPDEST SWAP1 POP PUSH4 0x3B9ACA00 DUP2 SGT ISZERO PUSH2 0x15AC JUMPI PUSH1 0x0 DUP1 REVERT JUMPDEST PUSH2 0x8CE DUP8 DUP3 PUSH2 0x2167 JUMP JUMPDEST DUP3 PUSH1 0x1 GT ISZERO DUP1 ISZERO PUSH2 0x15CB JUMPI POP DUP5 PUSH1 0x20 ADD MLOAD DUP4 GT ISZERO JUMPDEST PUSH2 0x15E7 JUMPI PUSH1 0x40 MLOAD PUSH3 0x461BCD PUSH1 0xE5 SHL DUP2 MSTORE PUSH1 0x4 ADD PUSH2 0x9D3 SWAP1 PUSH2 0x5221 JUMP JUMPDEST PUSH1 0x0 PUSH2 0x1604 PUSH2 0x15F5 DUP6 PUSH2 0x1A96 JUMP JUMPDEST PUSH2 0x15FE DUP5 PUSH2 0x1A75 JUMP JUMPDEST SWAP1 PUSH2 0x12B3 JUMP JUMPDEST SWAP1 POP PUSH2 0x1629 DUP7 PUSH1 0x0 ADD MLOAD PUSH2 0xFFFF AND DUP3 DUP5 DUP7 PUSH2 0x161E DUP12 PUSH2 0x2180 JUMP JUMPDEST DUP11 SWAP5 SWAP4 SWAP3 SWAP2 SWAP1 PUSH2 0x22FE JUMP JUMPDEST POP POP POP POP POP POP JUMP JUMPDEST PUSH1 0x0 DUP1 PUSH1 0x0 DUP1 DUP5 GT PUSH2 0x1642 JUMPI PUSH1 0x0 DUP1 REVERT JUMPDEST DUP6 DUP9 PUSH1 0x40 ADD MLOAD SGT PUSH2 0x165B JUMPI POP PUSH1 0x0 SWAP2 POP DUP2 SWAP1 POP DUP1 PUSH2 0x1766 JUMP JUMPDEST PUSH1 0x0 PUSH2 0x166B DUP9 PUSH1 0x0 ADD MLOAD DUP7 PUSH2 0x1CE4 JUMP JUMPDEST SWAP1 POP PUSH1 0x0 PUSH2 0x168A DUP11 PUSH1 0x60 ADD MLOAD DUP11 PUSH1 0x40 ADD MLOAD PUSH2 0xB8F SWAP1 SWAP2 SWAP1 PUSH4 0xFFFFFFFF AND JUMP JUMPDEST SWAP1 POP PUSH1 0x0 DUP1 PUSH1 0x0 PUSH2 0x169F DUP6 DUP15 DUP15 DUP8 DUP16 DUP16 PUSH2 0x2328 JUMP JUMPDEST SWAP9 POP SWAP2 SWAP5 POP SWAP3 POP SWAP1 POP DUP3 PUSH2 0x16C2 JUMPI PUSH1 0x0 DUP1 PUSH1 0x0 SWAP8 POP SWAP8 POP SWAP8 POP POP POP POP POP POP PUSH2 0x1766 JUMP JUMPDEST PUSH1 0x40 DUP14 ADD MLOAD PUSH2 0x16D1 SWAP1 DUP13 PUSH2 0x2402 JUMP JUMPDEST PUSH1 0x40 DUP15 ADD MSTORE PUSH2 0x16E0 DUP5 DUP4 PUSH2 0x241E JUMP JUMPDEST SWAP4 POP PUSH1 0x0 PUSH2 0x16F4 PUSH1 0x0 DUP16 PUSH1 0x40 ADD MLOAD DUP8 PUSH2 0x2434 JUMP JUMPDEST SWAP1 POP PUSH4 0x3B9ACA00 DUP2 GT ISZERO PUSH2 0x1718 JUMPI PUSH1 0x0 DUP1 PUSH1 0x0 SWAP9 POP SWAP9 POP SWAP9 POP POP POP POP POP POP POP PUSH2 0x1766 JUMP JUMPDEST PUSH1 0x0 PUSH2 0x1724 DUP8 DUP4 PUSH2 0x2471 JUMP JUMPDEST SWAP1 POP DUP1 PUSH2 0x1742 JUMPI PUSH1 0x0 DUP1 PUSH1 0x0 SWAP10 POP SWAP10 POP SWAP10 POP POP POP POP POP POP POP POP PUSH2 0x1766 JUMP JUMPDEST PUSH1 0xA0 DUP16 ADD MSTORE POP PUSH1 0x40 DUP13 ADD MLOAD PUSH2 0x175B SWAP1 DUP15 SWAP1 DUP6 DUP6 DUP6 PUSH2 0x2524 JUMP JUMPDEST SWAP1 SWAP9 POP SWAP7 POP POP POP POP POP POP JUMPDEST SWAP6 POP SWAP6 POP SWAP6 SWAP3 POP POP POP JUMP JUMPDEST PUSH1 0x0 DUP1 PUSH2 0x177D DUP4 PUSH2 0x2579 JUMP JUMPDEST PUSH1 0x1 PUSH1 0x1 PUSH1 0xA0 SHL SUB AND PUSH4 0xA77C05B8 PUSH1 0x40 MLOAD DUP2 PUSH4 0xFFFFFFFF AND PUSH1 0xE0 SHL DUP2 MSTORE PUSH1 0x4 ADD PUSH1 0x40 DUP1 MLOAD DUP1 DUP4 SUB DUP2 DUP7 DUP1 EXTCODESIZE ISZERO DUP1 ISZERO PUSH2 0x17B4 JUMPI PUSH1 0x0 DUP1 REVERT JUMPDEST POP GAS STATICCALL ISZERO DUP1 ISZERO PUSH2 0x17C8 JUMPI RETURNDATASIZE PUSH1 0x0 DUP1 RETURNDATACOPY RETURNDATASIZE PUSH1 0x0 REVERT JUMPDEST POP POP POP POP PUSH1 0x40 MLOAD RETURNDATASIZE PUSH1 0x1F NOT PUSH1 0x1F DUP3 ADD AND DUP3 ADD DUP1 PUSH1 0x40 MSTORE POP DUP2 ADD SWAP1 PUSH2 0x357 SWAP2 SWAP1 PUSH2 0x50E8 JUMP JUMPDEST PUSH2 0x17F4 PUSH2 0x4C48 JUMP JUMPDEST PUSH1 0x0 DUP1 PUSH1 0x0 PUSH2 0x1804 DUP9 DUP7 DUP10 PUSH2 0x25A9 JUMP JUMPDEST PUSH1 0xC0 DUP12 ADD SWAP3 SWAP1 SWAP3 MSTORE PUSH1 0xE0 DUP11 ADD SWAP3 SWAP1 SWAP3 MSTORE PUSH1 0x20 DUP10 ADD MLOAD SWAP2 SWAP4 POP SWAP2 POP PUSH2 0x1828 SWAP1 DUP4 PUSH2 0x12B3 JUMP JUMPDEST PUSH1 0x20 DUP9 ADD MSTORE PUSH1 0x80 DUP8 ADD MLOAD PUSH1 0x0 SWAP1 ISZERO PUSH2 0x1856 JUMPI PUSH1 0x80 DUP9 ADD MLOAD PUSH2 0x1853 SWAP1 PUSH2 0x184D DUP10 DUP3 PUSH2 0x2007 JUMP JUMPDEST SWAP1 PUSH2 0x26B4 JUMP JUMPDEST SWAP1 POP JUMPDEST PUSH2 0x1876 PUSH2 0x186B PUSH8 0xDE0B6B3A7640000 DUP4 PUSH2 0x12B3 JUMP JUMPDEST PUSH1 0xA0 DUP11 ADD MLOAD SWAP1 PUSH2 0x26D1 JUMP JUMPDEST PUSH1 0xA0 DUP10 ADD MSTORE POP POP PUSH1 0x80 DUP7 ADD SWAP5 SWAP1 SWAP5 MSTORE POP POP DUP3 MSTORE SWAP1 SWAP3 SWAP1 SWAP2 POP JUMP JUMPDEST PUSH1 0x0 DUP3 PUSH2 0x189F JUMPI POP PUSH1 0x0 PUSH2 0x4EF JUMP JUMPDEST DUP3 DUP3 MUL DUP3 DUP5 DUP3 DUP2 PUSH2 0x18AC JUMPI INVALID JUMPDEST DIV EQ PUSH2 0x5B8 JUMPI PUSH1 0x0 DUP1 REVERT JUMPDEST PUSH2 0x18BF PUSH2 0x4C27 JUMP JUMPDEST PUSH1 0x0 PUSH2 0x18CB DUP6 DUP6 PUSH2 0x26EE JUMP JUMPDEST SWAP1 SWAP3 POP SWAP1 POP DUP1 PUSH2 0xE8B JUMPI PUSH2 0x737 DUP6 DUP5 PUSH2 0xA7A JUMP JUMPDEST PUSH1 0x0 DUP1 PUSH2 0x18EC DUP5 DUP5 PUSH2 0xDC4 JUMP JUMPDEST SWAP2 POP PUSH2 0x18F8 DUP5 DUP4 PUSH2 0x2781 JUMP JUMPDEST SWAP1 POP PUSH1 0x0 DUP3 SLT ISZERO PUSH2 0xD23 JUMPI PUSH2 0x1943 PUSH1 0x1 PUSH2 0x193D DUP8 PUSH1 0x0 ADD MLOAD PUSH2 0x524 DUP10 PUSH1 0x20 ADD MLOAD PUSH2 0x1937 DUP11 PUSH1 0x20 ADD MLOAD PUSH2 0x524 DUP13 PUSH1 0x0 ADD MLOAD DUP12 PUSH2 0xE93 SWAP1 SWAP2 SWAP1 PUSH4 0xFFFFFFFF AND JUMP JUMPDEST SWAP1 PUSH2 0xE93 JUMP JUMPDEST SWAP1 PUSH2 0x27BA JUMP JUMPDEST SWAP2 POP SWAP4 POP SWAP4 SWAP2 POP POP JUMP JUMPDEST PUSH1 0x0 DUP1 PUSH2 0x1959 DUP5 PUSH2 0x1C70 JUMP JUMPDEST SWAP1 POP DUP3 DUP2 GT PUSH2 0x1969 JUMPI PUSH1 0x1 DUP2 SUB SWAP3 POP JUMPDEST POP PUSH1 0x0 PUSH2 0x1976 DUP5 DUP5 PUSH2 0x27D0 JUMP JUMPDEST POP SWAP1 POP PUSH1 0x0 PUSH2 0x19A4 DUP6 PUSH1 0xC0 ADD MLOAD DUP7 PUSH1 0x0 ADD MLOAD PUSH1 0x0 ADD MLOAD PUSH2 0xFFFF AND DUP8 PUSH1 0x80 ADD MLOAD DUP8 DUP10 PUSH1 0x0 ADD MLOAD PUSH1 0x20 ADD MLOAD PUSH2 0x2925 JUMP JUMPDEST SWAP1 POP PUSH1 0x0 DUP2 ISZERO PUSH2 0x19D6 JUMPI PUSH1 0xC0 DUP7 ADD MLOAD DUP7 MLOAD DUP1 MLOAD PUSH1 0x80 DUP10 ADD MLOAD PUSH2 0x19D2 SWAP4 SWAP3 PUSH2 0xFFFF SWAP1 SWAP3 AND SWAP2 DUP10 SWAP1 PUSH1 0x0 DUP9 PUSH2 0x29D1 JUMP JUMPDEST POP SWAP1 POP JUMPDEST PUSH1 0x60 DUP7 ADD MLOAD DUP7 MLOAD PUSH1 0x40 ADD MLOAD PUSH2 0x912 SWAP2 SWAP1 PUSH2 0x19FB SWAP1 PUSH2 0x19F4 SWAP1 DUP6 PUSH2 0xDC4 JUMP JUMPDEST DUP7 SWAP1 PUSH2 0x241E JUMP JUMPDEST SWAP1 PUSH2 0x241E JUMP JUMPDEST PUSH1 0x0 PUSH4 0x5F5E100 DUP4 PUSH1 0x40 ADD MLOAD EQ ISZERO PUSH2 0x1A1A JUMPI POP DUP1 PUSH2 0x4EF JUMP JUMPDEST PUSH2 0x5B8 PUSH4 0x5F5E100 PUSH2 0x524 DUP6 PUSH1 0x40 ADD MLOAD DUP6 PUSH2 0xE93 SWAP1 SWAP2 SWAP1 PUSH4 0xFFFFFFFF AND JUMP JUMPDEST PUSH1 0x0 PUSH4 0x5F5E100 DUP4 PUSH1 0x40 ADD MLOAD SLT ISZERO PUSH2 0x1A61 JUMPI PUSH2 0x1A5A PUSH1 0x1 PUSH2 0x19FB DUP6 DUP6 PUSH2 0x1A01 JUMP JUMPDEST SWAP1 POP PUSH2 0x4EF JUMP JUMPDEST PUSH2 0x5B8 DUP4 PUSH2 0x1A70 DUP5 PUSH1 0x1 PUSH2 0x241E JUMP JUMPDEST PUSH2 0x1A01 JUMP JUMPDEST PUSH1 0x0 PUSH3 0x76A700 DUP3 LT ISZERO PUSH2 0x1A87 JUMPI PUSH1 0x0 DUP1 REVERT JUMPDEST PUSH3 0x76A700 DUP3 JUMPDEST MOD SWAP1 SWAP2 SUB SWAP2 SWAP1 POP JUMP JUMPDEST PUSH1 0x0 DUP2 PUSH1 0x1 EQ ISZERO PUSH2 0x1AAB JUMPI POP PUSH3 0x76A700 PUSH2 0x370 JUMP JUMPDEST DUP2 PUSH1 0x2 EQ ISZERO PUSH2 0x1ABE JUMPI POP PUSH3 0xED4E00 PUSH2 0x370 JUMP JUMPDEST DUP2 PUSH1 0x3 EQ ISZERO PUSH2 0x1AD2 JUMPI POP PUSH4 0x1DA9C00 PUSH2 0x370 JUMP JUMPDEST DUP2 PUSH1 0x4 EQ ISZERO PUSH2 0x1AE6 JUMPI POP PUSH4 0x3B53800 PUSH2 0x370 JUMP JUMPDEST DUP2 PUSH1 0x5 EQ ISZERO PUSH2 0x1AFA JUMPI POP PUSH4 0x9450C00 PUSH2 0x370 JUMP JUMPDEST DUP2 PUSH1 0x6 EQ ISZERO PUSH2 0x1B0E JUMPI POP PUSH4 0x128A1800 PUSH2 0x370 JUMP JUMPDEST DUP2 PUSH1 0x7 EQ ISZERO PUSH2 0x1B22 JUMPI POP PUSH4 0x25143000 PUSH2 0x370 JUMP JUMPDEST PUSH1 0x40 MLOAD PUSH3 0x461BCD PUSH1 0xE5 SHL DUP2 MSTORE PUSH1 0x4 ADD PUSH2 0x9D3 SWAP1 PUSH2 0x51FA JUMP JUMPDEST PUSH2 0x1B42 PUSH2 0x4CDC JUMP JUMPDEST PUSH1 0x0 PUSH2 0x1B4C PUSH2 0x2A4F JUMP JUMPDEST PUSH1 0x0 DUP6 DUP2 MSTORE PUSH1 0x20 DUP3 DUP2 MSTORE PUSH1 0x40 DUP1 DUP4 KECCAK256 DUP8 ISZERO ISZERO DUP5 MSTORE DUP3 MSTORE SWAP2 DUP3 SWAP1 KECCAK256 DUP3 MLOAD PUSH1 0xA0 DUP2 ADD DUP5 MSTORE DUP2 SLOAD PUSH1 0x1 PUSH1 0x1 PUSH1 0xA0 SHL SUB DUP2 AND DUP3 MSTORE PUSH1 0xFF PUSH1 0x1 PUSH1 0xA0 SHL DUP3 DIV DUP2 AND ISZERO ISZERO SWAP5 DUP4 ADD SWAP5 SWAP1 SWAP5 MSTORE PUSH1 0x1 PUSH1 0xB0 SHL DUP2 DIV DUP5 AND PUSH1 0xA EXP SWAP5 DUP3 ADD SWAP5 SWAP1 SWAP5 MSTORE SWAP4 SWAP5 POP SWAP3 SWAP2 PUSH1 0x60 DUP4 ADD SWAP2 PUSH1 0x1 PUSH1 0xA8 SHL SWAP1 SWAP2 DIV AND PUSH1 0x5 DUP2 GT ISZERO PUSH2 0x1BC1 JUMPI INVALID JUMPDEST DUP2 MSTORE PUSH1 0x0 PUSH1 0x20 SWAP1 SWAP2 ADD MSTORE SWAP6 SWAP5 POP POP POP POP POP JUMP JUMPDEST PUSH2 0x1BE1 DUP2 PUSH2 0xFFFF AND PUSH2 0x10CA JUMP JUMPDEST PUSH1 0x1 PUSH1 0x1 PUSH1 0xA0 SHL SUB AND PUSH1 0xC0 DUP4 ADD DUP2 SWAP1 MSTORE PUSH1 0x0 SWAP1 DUP2 SWAP1 DUP2 SWAP1 PUSH2 0x1C01 SWAP1 PUSH2 0x1F5D JUMP JUMPDEST SWAP5 POP SWAP5 POP SWAP5 POP POP POP PUSH1 0x0 PUSH2 0x1C18 DUP7 PUSH1 0xC0 ADD MLOAD PUSH2 0x1EFC JUMP JUMPDEST POP POP PUSH1 0x80 DUP8 ADD DUP6 SWAP1 MSTORE PUSH1 0x40 DUP8 ADD DUP2 SWAP1 MSTORE PUSH1 0x1 PUSH1 0x1 PUSH1 0xD8 SHL SUB NOT DUP4 AND PUSH1 0xA0 DUP9 ADD MSTORE PUSH1 0xC0 DUP8 ADD MLOAD SWAP1 SWAP2 POP PUSH2 0x1C4C SWAP1 DUP5 PUSH1 0x0 PUSH2 0x2A5C JUMP JUMPDEST PUSH1 0x20 DUP8 ADD MSTORE PUSH1 0xC0 DUP7 ADD MLOAD PUSH2 0x1C60 SWAP1 DUP7 PUSH2 0x2AEF JUMP JUMPDEST PUSH1 0x60 SWAP1 SWAP7 ADD SWAP6 SWAP1 SWAP6 MSTORE POP POP POP POP POP JUMP JUMPDEST PUSH1 0x0 DUP2 PUSH1 0x80 ADD MLOAD PUSH1 0x0 EQ ISZERO PUSH2 0x1C87 JUMPI POP PUSH1 0x0 PUSH2 0x370 JUMP JUMPDEST PUSH1 0x80 DUP3 ADD MLOAD PUSH3 0x76A700 SWAP1 PUSH2 0x1C9A SWAP1 PUSH2 0x1A75 JUMP JUMPDEST ADD SWAP3 SWAP2 POP POP JUMP JUMPDEST PUSH2 0x1CA9 PUSH2 0x4D0B JUMP JUMPDEST PUSH1 0x0 PUSH2 0x1CB8 DUP5 PUSH2 0xFFFF AND PUSH2 0x2B48 JUMP JUMPDEST PUSH1 0x40 DUP1 MLOAD PUSH1 0x80 DUP2 ADD DUP3 MSTORE PUSH2 0xFFFF SWAP7 SWAP1 SWAP7 AND DUP7 MSTORE PUSH1 0xFF DUP3 AND PUSH1 0x20 DUP8 ADD MSTORE DUP6 ADD SWAP4 SWAP1 SWAP4 MSTORE POP POP PUSH1 0x60 DUP3 ADD MSTORE SWAP1 JUMP JUMPDEST PUSH2 0x1CEC PUSH2 0x4D6C JUMP JUMPDEST PUSH2 0x5B8 DUP4 DUP4 PUSH2 0x1CF9 PUSH2 0x2B65 JUMP JUMPDEST PUSH2 0x2B72 JUMP JUMPDEST PUSH1 0x0 DUP4 PUSH2 0x1D0A JUMPI PUSH1 0x0 DUP1 REVERT JUMPDEST DUP3 DUP5 SGT ISZERO PUSH2 0x1D2A JUMPI PUSH1 0x40 MLOAD PUSH3 0x461BCD PUSH1 0xE5 SHL DUP2 MSTORE PUSH1 0x4 ADD PUSH2 0x9D3 SWAP1 PUSH2 0x52D2 JUMP JUMPDEST PUSH1 0x0 DUP1 PUSH1 0x0 PUSH2 0x1D4E DUP10 DUP10 DUP9 DUP9 PUSH1 0x0 DUP13 SGT PUSH2 0x1D45 JUMPI PUSH1 0x1 PUSH2 0x1D49 JUMP JUMPDEST PUSH1 0x0 NOT JUMPDEST PUSH2 0x2BC9 JUMP JUMPDEST SWAP1 POP PUSH1 0x0 DUP8 SLT ISZERO PUSH2 0x1D78 JUMPI PUSH2 0x1D62 DUP8 PUSH2 0xBD5 JUMP JUMPDEST SWAP3 POP PUSH2 0x1D71 PUSH2 0x3EE DUP9 DUP4 PUSH2 0x2167 JUMP JUMPDEST SWAP2 POP PUSH2 0x1DA5 JUMP JUMPDEST PUSH2 0x1D85 PUSH2 0x3EE DUP9 DUP4 PUSH2 0x2167 JUMP JUMPDEST SWAP3 POP PUSH2 0x1DA2 PUSH2 0x3EE PUSH2 0x1D9B DUP12 PUSH1 0x80 ADD MLOAD DUP9 PUSH2 0x2BFA JUMP JUMPDEST DUP10 SWAP1 PUSH2 0x2167 JUMP JUMPDEST SWAP2 POP JUMPDEST POP PUSH1 0x0 PUSH2 0x1DB6 DUP10 DUP10 DUP9 DUP7 DUP10 DUP13 PUSH2 0x2C60 JUMP JUMPDEST SWAP1 POP PUSH1 0x0 JUMPDEST PUSH1 0xFA DUP2 PUSH1 0xFF AND LT ISZERO PUSH2 0x1E21 JUMPI DUP4 DUP4 SUB DUP1 PUSH2 0x1DDC JUMPI DUP4 SWAP6 POP POP POP POP POP POP PUSH2 0x470 JUMP JUMPDEST PUSH1 0x0 PUSH2 0x1DEC DUP13 DUP13 DUP12 DUP9 DUP13 DUP16 PUSH2 0x2C60 JUMP JUMPDEST SWAP1 POP PUSH1 0x0 PUSH2 0x1E11 PUSH2 0x1E0A PUSH2 0x1E00 DUP5 DUP9 PUSH2 0x27BA JUMP JUMPDEST PUSH2 0x524 DUP6 DUP8 PUSH2 0xE93 JUMP JUMPDEST DUP8 SWAP1 PUSH2 0x27BA JUMP JUMPDEST SWAP6 SWAP7 POP SWAP1 SWAP4 POP POP POP PUSH1 0x1 ADD PUSH2 0x1DBB JUMP JUMPDEST POP PUSH1 0x40 MLOAD PUSH3 0x461BCD PUSH1 0xE5 SHL DUP2 MSTORE PUSH1 0x4 ADD PUSH2 0x9D3 SWAP1 PUSH2 0x51D2 JUMP JUMPDEST PUSH1 0x0 DUP1 PUSH2 0x4EF PUSH1 0x1 PUSH2 0x2C7F JUMP JUMPDEST DUP2 PUSH2 0xFFFF AND PUSH1 0x0 LT DUP1 ISZERO PUSH2 0x1E61 JUMPI POP PUSH2 0x3FFF PUSH2 0xFFFF DUP4 AND GT ISZERO JUMPDEST PUSH2 0x1E6A JUMPI PUSH1 0x0 DUP1 REVERT JUMPDEST PUSH2 0xFFFF DUP3 AND DUP1 DUP6 MSTORE PUSH2 0x1E7D SWAP1 DUP3 SWAP1 PUSH2 0x2C91 JUMP JUMPDEST ISZERO PUSH2 0x1EAC JUMPI PUSH2 0x1E92 DUP4 DUP4 DUP7 PUSH2 0x120 ADD MLOAD PUSH2 0x2D1B JUMP JUMPDEST PUSH2 0x100 DUP9 ADD MSTORE PUSH1 0xE0 DUP8 ADD MSTORE PUSH1 0x40 DUP7 ADD MSTORE PUSH1 0x20 DUP6 ADD MSTORE PUSH2 0x1ECA JUMP JUMPDEST PUSH1 0x0 PUSH1 0x20 DUP6 ADD DUP2 SWAP1 MSTORE PUSH1 0x40 DUP6 ADD DUP2 SWAP1 MSTORE PUSH1 0xE0 DUP6 ADD DUP2 SWAP1 MSTORE PUSH2 0x100 DUP6 ADD MSTORE JUMPDEST POP POP PUSH1 0x0 PUSH1 0x60 DUP4 ADD DUP2 SWAP1 MSTORE PUSH1 0x80 DUP4 ADD DUP2 SWAP1 MSTORE PUSH1 0xA0 DUP4 ADD DUP2 SWAP1 MSTORE PUSH1 0xC0 SWAP1 SWAP3 ADD SWAP2 SWAP1 SWAP2 MSTORE POP JUMP JUMPDEST PUSH1 0x0 DUP1 PUSH2 0x4EF PUSH1 0x3 PUSH2 0x2C7F JUMP JUMPDEST PUSH1 0x0 DUP1 PUSH1 0x0 DUP1 PUSH2 0x1F0A PUSH2 0x2DD5 JUMP JUMPDEST PUSH1 0x1 PUSH1 0x1 PUSH1 0xA0 SHL SUB SWAP6 SWAP1 SWAP6 AND PUSH1 0x0 SWAP1 DUP2 MSTORE PUSH1 0x20 SWAP6 SWAP1 SWAP6 MSTORE POP POP PUSH1 0x40 SWAP1 SWAP3 KECCAK256 SLOAD PUSH12 0xFFFFFFFFFFFFFFFFFFFFFFFF DUP2 AND SWAP4 PUSH1 0x1 PUSH1 0x60 SHL DUP3 DIV PUSH1 0x1 PUSH1 0x1 PUSH1 0x80 SHL SUB AND SWAP4 POP PUSH1 0x1 PUSH1 0xE0 SHL SWAP1 SWAP2 DIV PUSH4 0xFFFFFFFF AND SWAP2 POP JUMP JUMPDEST PUSH1 0x0 DUP1 PUSH1 0x0 DUP1 PUSH1 0x0 DUP1 PUSH2 0x1F6E PUSH2 0x2DE2 JUMP JUMPDEST PUSH1 0x1 PUSH1 0x1 PUSH1 0xA0 SHL SUB SWAP1 SWAP8 AND PUSH1 0x0 SWAP1 DUP2 MSTORE PUSH1 0x20 SWAP8 SWAP1 SWAP8 MSTORE POP POP PUSH1 0x40 SWAP1 SWAP5 KECCAK256 SLOAD PUSH2 0xFFFF DUP2 AND SWAP6 PUSH4 0xFFFFFFFF PUSH3 0x10000 DUP4 DIV DUP2 AND SWAP7 POP PUSH1 0x1 PUSH1 0x30 SHL DUP4 DIV AND SWAP5 POP PUSH1 0xFF PUSH1 0x1 PUSH1 0x50 SHL DUP4 DIV AND SWAP4 POP PUSH1 0x1 PUSH1 0x58 SHL SWAP1 SWAP2 DIV PUSH1 0xD8 SHL SWAP2 POP JUMP JUMPDEST PUSH1 0x0 PUSH2 0x357 DUP3 PUSH2 0x1276 PUSH4 0x1DA9C00 DUP2 DUP9 PUSH2 0x1270 DUP10 PUSH8 0xDE0B6B3A7640000 PUSH2 0x1890 JUMP JUMPDEST PUSH1 0x0 DUP1 DUP3 GT PUSH2 0x1FF6 JUMPI PUSH1 0x0 DUP1 REVERT JUMPDEST DUP2 DUP4 DUP2 PUSH2 0x1FFF JUMPI INVALID JUMPDEST DIV SWAP4 SWAP3 POP POP POP JUMP JUMPDEST PUSH1 0x0 DUP3 DUP3 GT ISZERO PUSH2 0x2016 JUMPI PUSH1 0x0 DUP1 REVERT JUMPDEST POP SWAP1 SUB SWAP1 JUMP JUMPDEST PUSH2 0x2024 PUSH2 0x4C27 JUMP JUMPDEST PUSH1 0x0 PUSH2 0x202F DUP5 PUSH2 0x136F JUMP JUMPDEST SWAP1 POP DUP3 DUP2 PUSH1 0x0 ADD MLOAD LT ISZERO PUSH2 0x206E JUMPI PUSH1 0x0 DUP1 PUSH2 0x2049 DUP7 PUSH2 0x2DEF JUMP JUMPDEST SWAP1 POP PUSH2 0x2057 DUP7 DUP5 DUP4 DUP9 PUSH2 0x17EC JUMP JUMPDEST SWAP1 SWAP4 POP SWAP2 POP PUSH2 0x2067 DUP7 DUP4 DUP6 PUSH2 0x2E48 JUMP JUMPDEST POP POP PUSH2 0x207B JUMP JUMPDEST DUP1 MLOAD DUP4 EQ PUSH2 0x207B JUMPI PUSH1 0x0 DUP1 REVERT JUMPDEST PUSH1 0x40 MLOAD DUP1 PUSH1 0x60 ADD PUSH1 0x40 MSTORE DUP1 PUSH2 0x20A4 PUSH2 0x557 DUP5 PUSH1 0xA0 ADD MLOAD DUP6 PUSH1 0xC0 ADD MLOAD PUSH2 0x1890 SWAP1 SWAP2 SWAP1 PUSH4 0xFFFFFFFF AND JUMP JUMPDEST DUP2 MSTORE PUSH1 0x20 ADD PUSH2 0x20C7 PUSH2 0x557 DUP5 PUSH1 0xA0 ADD MLOAD DUP6 PUSH1 0xE0 ADD MLOAD PUSH2 0x1890 SWAP1 SWAP2 SWAP1 PUSH4 0xFFFFFFFF AND JUMP JUMPDEST DUP2 MSTORE PUSH1 0x20 ADD DUP3 PUSH1 0x60 ADD MLOAD DUP2 MSTORE POP SWAP2 POP POP SWAP3 SWAP2 POP POP JUMP JUMPDEST PUSH1 0x0 DUP1 PUSH2 0x4EF PUSH1 0x1D PUSH2 0x2C7F JUMP JUMPDEST PUSH1 0x0 DUP1 PUSH2 0x20F8 DUP6 DUP6 DUP6 PUSH2 0x307C JUMP JUMPDEST SWAP1 POP DUP1 ISZERO PUSH2 0x2118 JUMPI PUSH2 0x2113 PUSH2 0x210D DUP6 DUP6 PUSH2 0x2007 JUMP JUMPDEST DUP3 PUSH2 0x2291 JUMP JUMPDEST PUSH2 0x470 JUMP JUMPDEST PUSH4 0x3B9ACA00 SWAP6 SWAP5 POP POP POP POP POP JUMP JUMPDEST PUSH1 0x0 DUP1 PUSH2 0x2134 DUP6 DUP6 DUP6 PUSH2 0x30CC JUMP JUMPDEST SWAP1 POP PUSH2 0x2143 PUSH2 0x210D DUP6 DUP6 PUSH2 0x2007 JUMP JUMPDEST SWAP2 POP PUSH1 0x0 PUSH2 0x2150 DUP7 PUSH2 0x3106 JUMP JUMPDEST SWAP1 POP DUP3 DUP2 SLT ISZERO PUSH2 0x215E JUMPI DUP1 SWAP3 POP JUMPDEST POP POP SWAP4 SWAP3 POP POP POP JUMP JUMPDEST PUSH1 0x0 PUSH2 0x5B8 PUSH2 0x2176 DUP5 DUP5 PUSH2 0xE93 JUMP JUMPDEST PUSH4 0x3B9ACA00 PUSH2 0xEE1 JUMP JUMPDEST PUSH1 0x60 ADD MLOAD PUSH2 0x12C PUSH1 0x8 SWAP2 SWAP1 SWAP2 SHR PUSH1 0xFF AND MUL SWAP1 JUMP JUMPDEST PUSH1 0x0 DUP1 PUSH2 0x219F PUSH2 0x3121 JUMP JUMPDEST SWAP1 POP PUSH1 0x0 PUSH3 0x76A700 PUSH2 0x21B0 DUP6 PUSH2 0x1A75 JUMP JUMPDEST PUSH1 0x0 DUP10 DUP2 MSTORE PUSH1 0x20 DUP6 DUP2 MSTORE PUSH1 0x40 DUP1 DUP4 KECCAK256 DUP12 DUP5 MSTORE DUP3 MSTORE DUP1 DUP4 KECCAK256 SWAP5 SWAP1 SWAP4 ADD DUP1 DUP4 MSTORE SWAP4 SWAP1 MSTORE KECCAK256 DUP1 SLOAD SWAP2 SWAP3 POP SWAP1 PUSH4 0xFFFFFFFF PUSH1 0x1 PUSH1 0xA0 SHL DUP3 DIV DUP2 AND SWAP2 PUSH1 0x1 PUSH1 0xC0 SHL DUP2 DIV DUP3 AND SWAP2 PUSH1 0x1 PUSH1 0xE0 SHL SWAP1 SWAP2 DIV AND DUP2 PUSH2 0x2217 JUMPI PUSH1 0x40 MLOAD PUSH3 0x461BCD PUSH1 0xE5 SHL DUP2 MSTORE PUSH1 0x4 ADD PUSH2 0x9D3 SWAP1 PUSH2 0x5175 JUMP JUMPDEST PUSH2 0x2224 DUP2 DUP5 DUP5 DUP13 DUP13 PUSH2 0x312E JUMP JUMPDEST SWAP12 SWAP11 POP POP POP POP POP POP POP POP POP POP POP JUMP JUMPDEST PUSH1 0x0 DUP2 DUP7 LT PUSH2 0x2241 JUMPI PUSH1 0x0 DUP1 REVERT JUMPDEST DUP5 DUP3 LT PUSH2 0x224D JUMPI PUSH1 0x0 DUP1 REVERT JUMPDEST DUP4 DUP4 LT PUSH2 0x2273 JUMPI PUSH2 0x226C DUP5 PUSH2 0x15FE DUP9 DUP9 SUB PUSH2 0x1276 DUP4 DUP9 SUB DUP12 DUP9 SUB PUSH2 0x1890 JUMP JUMPDEST SWAP1 POP PUSH2 0x470 JUMP JUMPDEST PUSH2 0x226C PUSH2 0x228A DUP8 DUP8 SUB PUSH2 0x1276 DUP7 DUP9 SUB DUP11 DUP8 SUB PUSH2 0x1890 JUMP JUMPDEST DUP6 SWAP1 PUSH2 0x2007 JUMP JUMPDEST PUSH1 0x0 DUP1 PUSH2 0x22AE PUSH2 0x22A9 PUSH4 0x1DA9C00 PUSH2 0x1276 DUP7 DUP9 PUSH2 0x1890 JUMP JUMPDEST PUSH2 0x31B6 JUMP JUMPDEST SWAP1 POP PUSH2 0x22C0 DUP2 PUSH3 0x1DCD65 PUSH1 0x49 SHL PUSH2 0x31D4 JUMP JUMPDEST SWAP1 POP PUSH2 0x22D3 PUSH2 0x22CE DUP3 PUSH2 0x3227 JUMP JUMPDEST PUSH2 0x3249 JUMP JUMPDEST SWAP1 POP PUSH2 0x22E5 DUP2 PUSH3 0x1DCD65 PUSH1 0x49 SHL PUSH2 0x329E JUMP JUMPDEST SWAP1 POP PUSH1 0x0 PUSH2 0x22F2 DUP3 PUSH2 0x32D4 JUMP JUMPDEST PUSH1 0x7 SIGNEXTEND SWAP6 SWAP5 POP POP POP POP POP JUMP JUMPDEST PUSH1 0x0 PUSH3 0x76A700 PUSH2 0x230D DUP6 PUSH2 0x1A75 JUMP JUMPDEST ADD SWAP1 POP PUSH2 0x231F DUP8 DUP8 DUP8 DUP8 DUP8 DUP8 DUP8 PUSH2 0x32DD JUMP JUMPDEST POP POP POP POP POP POP POP JUMP JUMPDEST PUSH1 0x0 DUP1 PUSH1 0x0 DUP1 PUSH1 0x0 PUSH2 0x233F DUP8 DUP12 PUSH1 0x40 ADD MLOAD DUP11 PUSH2 0x2434 JUMP JUMPDEST SWAP1 POP PUSH4 0x3B9ACA00 DUP2 GT ISZERO PUSH2 0x2361 JUMPI PUSH1 0x0 DUP1 PUSH1 0x0 DUP1 SWAP5 POP SWAP5 POP SWAP5 POP SWAP5 POP POP PUSH2 0x23F5 JUMP JUMPDEST PUSH1 0x0 PUSH2 0x236D DUP13 DUP4 PUSH2 0x2471 JUMP JUMPDEST SWAP1 POP PUSH1 0x0 PUSH2 0x2388 PUSH2 0x3EE PUSH2 0x2381 DUP5 DUP12 PUSH2 0x2BFA JUMP JUMPDEST DUP12 SWAP1 PUSH2 0x3314 JUMP JUMPDEST SWAP1 POP PUSH2 0x2398 DUP14 DUP4 PUSH1 0x0 DUP13 SLT PUSH2 0x332D JUMP JUMPDEST SWAP4 POP PUSH2 0x23AA PUSH2 0x3EE PUSH2 0x2381 DUP7 DUP12 PUSH2 0x2BFA JUMP JUMPDEST SWAP7 POP DUP1 DUP8 SGT ISZERO PUSH2 0x23B9 JUMPI PUSH1 0x0 DUP1 REVERT JUMPDEST PUSH1 0x0 PUSH2 0x23C5 DUP3 DUP10 PUSH2 0x27BA JUMP JUMPDEST SWAP1 POP PUSH2 0x23DF PUSH1 0x64 PUSH2 0x524 PUSH2 0x23D8 DUP16 PUSH2 0x33A5 JUMP JUMPDEST DUP5 SWAP1 PUSH2 0xE93 JUMP JUMPDEST SWAP6 POP PUSH2 0x23EE PUSH2 0x3EE DUP10 DUP9 PUSH2 0x241E JUMP JUMPDEST SWAP7 POP POP POP POP POP JUMPDEST SWAP7 POP SWAP7 POP SWAP7 POP SWAP7 SWAP3 POP POP POP JUMP JUMPDEST PUSH1 0x0 PUSH2 0x240E DUP4 DUP4 PUSH2 0x27BA JUMP JUMPDEST SWAP1 POP PUSH1 0x0 DUP2 SLT ISZERO PUSH2 0x4EF JUMPI PUSH1 0x0 DUP1 REVERT JUMPDEST DUP2 DUP2 ADD DUP3 DUP2 SLT ISZERO PUSH1 0x0 DUP4 SLT ISZERO EQ PUSH2 0x4EF JUMPI PUSH1 0x0 DUP1 REVERT JUMPDEST PUSH1 0x0 DUP1 DUP4 SLT ISZERO PUSH2 0x2443 JUMPI PUSH1 0x0 DUP1 REVERT JUMPDEST PUSH1 0x0 DUP3 SLT ISZERO PUSH2 0x2451 JUMPI PUSH1 0x0 DUP1 REVERT JUMPDEST PUSH2 0x357 PUSH2 0x7BC PUSH2 0x2461 DUP5 DUP7 PUSH2 0x241E JUMP JUMPDEST PUSH2 0x246B DUP7 DUP9 PUSH2 0x2402 JUMP JUMPDEST SWAP1 PUSH2 0x3314 JUMP JUMPDEST PUSH1 0x0 DUP1 DUP4 PUSH1 0x80 ADD MLOAD GT PUSH2 0x2483 JUMPI PUSH1 0x0 DUP1 REVERT JUMPDEST PUSH4 0x3B9ACA00 DUP3 GT ISZERO PUSH2 0x2494 JUMPI PUSH1 0x0 DUP1 REVERT JUMPDEST DUP3 MLOAD DUP3 GT PUSH2 0x24B3 JUMPI DUP3 MLOAD PUSH1 0x40 DUP5 ADD MLOAD PUSH2 0x1A5A SWAP2 SWAP1 PUSH2 0x1276 SWAP1 DUP6 SWAP1 PUSH2 0x1890 JUMP JUMPDEST DUP3 PUSH1 0x20 ADD MLOAD DUP3 GT PUSH2 0x24EB JUMPI PUSH1 0x40 DUP4 ADD MLOAD DUP4 MLOAD PUSH1 0x20 DUP6 ADD MLOAD PUSH1 0x60 DUP7 ADD MLOAD PUSH2 0x1A5A SWAP4 SWAP3 PUSH2 0x15FE SWAP3 DUP2 SWAP1 SUB SWAP2 PUSH2 0x1276 SWAP2 DUP9 SUB SWAP1 DUP6 SWAP1 SUB PUSH2 0x1890 JUMP JUMPDEST PUSH2 0x5B8 DUP4 PUSH1 0x60 ADD MLOAD PUSH2 0x15FE DUP6 PUSH1 0x20 ADD MLOAD PUSH4 0x3B9ACA00 SUB PUSH2 0x1276 DUP8 PUSH1 0x60 ADD MLOAD DUP9 PUSH1 0x80 ADD MLOAD SUB DUP9 PUSH1 0x20 ADD MLOAD DUP9 SUB PUSH2 0x1890 SWAP1 SWAP2 SWAP1 PUSH4 0xFFFFFFFF AND JUMP JUMPDEST PUSH1 0x0 DUP1 DUP1 PUSH2 0x2532 DUP8 DUP7 PUSH2 0xDC4 JUMP JUMPDEST PUSH1 0x60 DUP10 ADD MLOAD SWAP1 SWAP2 POP PUSH2 0x2544 SWAP1 DUP3 PUSH2 0x241E JUMP JUMPDEST PUSH1 0x60 DUP10 ADD MSTORE TIMESTAMP PUSH1 0xE0 DUP10 ADD MSTORE PUSH1 0x0 PUSH2 0x255B DUP9 DUP7 PUSH2 0xDC4 JUMP JUMPDEST SWAP1 POP PUSH1 0x0 PUSH2 0x2569 DUP10 DUP10 PUSH2 0xDC4 JUMP JUMPDEST SWAP11 SWAP2 SWAP10 POP SWAP1 SWAP8 POP POP POP POP POP POP POP POP JUMP JUMPDEST PUSH1 0x0 DUP1 PUSH2 0x2584 PUSH2 0x33B2 JUMP JUMPDEST PUSH2 0xFFFF SWAP4 SWAP1 SWAP4 AND PUSH1 0x0 SWAP1 DUP2 MSTORE PUSH1 0x20 SWAP4 SWAP1 SWAP4 MSTORE POP POP PUSH1 0x40 SWAP1 KECCAK256 SLOAD PUSH1 0x1 PUSH1 0x1 PUSH1 0xA0 SHL SUB AND SWAP1 JUMP JUMPDEST PUSH1 0x0 DUP1 PUSH1 0x0 DUP1 PUSH1 0x0 DUP1 PUSH2 0x25BC DUP10 DUP9 PUSH2 0x33BF JUMP JUMPDEST DUP10 MLOAD SWAP1 SWAP6 POP SWAP2 SWAP4 POP SWAP2 POP PUSH1 0x0 SWAP1 PUSH2 0x25E3 SWAP1 PUSH2 0x25D8 SWAP1 DUP12 SWAP1 PUSH2 0x2007 JUMP JUMPDEST PUSH4 0x3B9ACA00 SWAP1 PUSH2 0x1890 JUMP JUMPDEST SWAP1 POP PUSH2 0x261D PUSH2 0x2612 PUSH4 0x1DA9C00 PUSH2 0x25FA DUP6 DUP6 PUSH2 0x1890 JUMP JUMPDEST DUP2 PUSH2 0x2601 JUMPI INVALID JUMPDEST PUSH8 0xDE0B6B3A7640000 SWAP2 SWAP1 DIV PUSH2 0x12B3 JUMP JUMPDEST PUSH1 0xE0 DUP11 ADD MLOAD SWAP1 PUSH2 0x26D1 JUMP JUMPDEST SWAP7 POP PUSH2 0x263F PUSH2 0x2634 PUSH4 0x1DA9C00 PUSH2 0x25FA DUP8 DUP6 PUSH2 0x1890 JUMP JUMPDEST PUSH1 0xC0 DUP11 ADD MLOAD SWAP1 PUSH2 0x26D1 JUMP JUMPDEST SWAP6 POP DUP2 DUP4 EQ ISZERO PUSH2 0x2656 JUMPI POP PUSH1 0x0 SWAP4 POP PUSH2 0x26AB SWAP2 POP POP JUMP JUMPDEST PUSH1 0x0 PUSH2 0x2678 PUSH2 0x266D PUSH4 0x1DA9C00 PUSH2 0x25FA DUP8 DUP7 PUSH2 0x1890 JUMP JUMPDEST PUSH1 0xE0 DUP12 ADD MLOAD SWAP1 PUSH2 0x26D1 JUMP JUMPDEST SWAP1 POP PUSH1 0x0 PUSH2 0x2686 DUP10 DUP4 PUSH2 0x2007 JUMP JUMPDEST SWAP1 POP PUSH2 0x26A3 DUP9 PUSH2 0x1276 DUP4 DUP14 PUSH1 0x40 ADD MLOAD PUSH2 0x1890 SWAP1 SWAP2 SWAP1 PUSH4 0xFFFFFFFF AND JUMP JUMPDEST SWAP7 POP POP POP POP POP POP JUMPDEST SWAP4 POP SWAP4 POP SWAP4 POP SWAP4 JUMP JUMPDEST PUSH1 0x0 PUSH2 0x5B8 PUSH2 0x26CB DUP5 PUSH8 0xDE0B6B3A7640000 PUSH2 0x1890 JUMP JUMPDEST DUP4 PUSH2 0x1FE8 JUMP JUMPDEST PUSH1 0x0 PUSH2 0x5B8 PUSH2 0x26E0 DUP5 DUP5 PUSH2 0x1890 JUMP JUMPDEST PUSH8 0xDE0B6B3A7640000 PUSH2 0x1FE8 JUMP JUMPDEST PUSH2 0x26F6 PUSH2 0x4C27 JUMP JUMPDEST PUSH1 0x0 DUP1 PUSH2 0x2701 PUSH2 0x3459 JUMP JUMPDEST PUSH2 0xFFFF DUP7 AND PUSH1 0x0 SWAP1 DUP2 MSTORE PUSH1 0x20 DUP3 DUP2 MSTORE PUSH1 0x40 DUP1 DUP4 KECCAK256 DUP9 DUP5 MSTORE SWAP1 SWAP2 MSTORE SWAP1 KECCAK256 DUP1 SLOAD PUSH1 0x1 PUSH1 0xF0 SHL SWAP1 DIV PUSH1 0xFF AND SWAP4 POP SWAP1 SWAP2 POP DUP3 ISZERO PUSH2 0x2778 JUMPI DUP1 SLOAD PUSH1 0x1 PUSH1 0x1 PUSH1 0x50 SHL SUB PUSH1 0x1 PUSH1 0xA0 SHL DUP3 DIV DUP2 AND SWAP2 PUSH2 0x2753 SWAP2 AND DUP3 PUSH2 0x1890 JUMP JUMPDEST DUP6 MSTORE DUP2 SLOAD PUSH2 0x2771 SWAP1 PUSH1 0x1 PUSH1 0x50 SHL SWAP1 DIV PUSH1 0x1 PUSH1 0x1 PUSH1 0x50 SHL SUB AND DUP3 PUSH2 0x1890 JUMP JUMPDEST PUSH1 0x20 DUP7 ADD MSTORE POP JUMPDEST POP POP SWAP3 POP SWAP3 SWAP1 POP JUMP JUMPDEST PUSH1 0x0 DUP1 DUP3 SLT ISZERO PUSH2 0x27B4 JUMPI PUSH2 0x27AF PUSH1 0x1 PUSH2 0x193D DUP6 PUSH1 0x20 ADD MLOAD PUSH2 0x524 DUP8 PUSH1 0x0 ADD MLOAD DUP8 PUSH2 0xE93 SWAP1 SWAP2 SWAP1 PUSH4 0xFFFFFFFF AND JUMP JUMPDEST PUSH2 0x5B8 JUMP JUMPDEST POP SWAP2 SWAP1 POP JUMP JUMPDEST DUP1 DUP3 SUB DUP3 DUP2 SGT ISZERO PUSH1 0x0 DUP4 SLT ISZERO EQ PUSH2 0x4EF JUMPI PUSH1 0x0 DUP1 REVERT JUMPDEST PUSH1 0x20 DUP3 ADD MLOAD MLOAD MLOAD PUSH1 0x0 SWAP1 PUSH1 0x60 SWAP1 DUP1 PUSH8 0xFFFFFFFFFFFFFFFF DUP2 GT DUP1 ISZERO PUSH2 0x27F4 JUMPI PUSH1 0x0 DUP1 REVERT JUMPDEST POP PUSH1 0x40 MLOAD SWAP1 DUP1 DUP3 MSTORE DUP1 PUSH1 0x20 MUL PUSH1 0x20 ADD DUP3 ADD PUSH1 0x40 MSTORE DUP1 ISZERO PUSH2 0x281E JUMPI DUP2 PUSH1 0x20 ADD PUSH1 0x20 DUP3 MUL DUP1 CALLDATASIZE DUP4 CALLDATACOPY ADD SWAP1 POP JUMPDEST POP SWAP2 POP PUSH2 0x2829 PUSH2 0x4C94 JUMP JUMPDEST PUSH1 0x0 JUMPDEST DUP3 DUP2 LT ISZERO PUSH2 0x291B JUMPI DUP7 MLOAD PUSH2 0x2847 SWAP1 DUP4 PUSH1 0x1 DUP1 DUP6 ADD SWAP1 DUP11 PUSH2 0x15B6 JUMP JUMPDEST PUSH1 0x0 DUP8 PUSH1 0x20 ADD MLOAD PUSH1 0x0 ADD MLOAD DUP3 DUP2 MLOAD DUP2 LT PUSH2 0x285D JUMPI INVALID JUMPDEST PUSH1 0x20 MUL PUSH1 0x20 ADD ADD MLOAD SWAP1 POP PUSH1 0x0 DUP2 PUSH1 0x20 ADD MLOAD SWAP1 POP PUSH1 0x0 DUP1 PUSH2 0x287D DUP5 DUP8 PUSH2 0x3466 JUMP JUMPDEST SWAP2 POP SWAP2 POP PUSH2 0x28A6 PUSH2 0x289F DUP13 PUSH1 0xC0 ADD MLOAD DUP14 PUSH1 0x0 ADD MLOAD PUSH1 0x0 ADD MLOAD PUSH2 0xFFFF AND DUP7 PUSH2 0x34E1 JUMP JUMPDEST DUP3 SWAP1 PUSH2 0x241E JUMP JUMPDEST DUP9 DUP7 DUP2 MLOAD DUP2 LT PUSH2 0x28B2 JUMPI INVALID JUMPDEST PUSH1 0x20 MUL PUSH1 0x20 ADD ADD DUP2 DUP2 MSTORE POP POP PUSH1 0x0 PUSH2 0x28FC PUSH2 0x28F5 PUSH2 0x28E9 DUP12 DUP10 DUP2 MLOAD DUP2 LT PUSH2 0x28D5 JUMPI INVALID JUMPDEST PUSH1 0x20 MUL PUSH1 0x20 ADD ADD MLOAD DUP8 DUP16 DUP13 PUSH1 0xC0 ADD MLOAD PUSH2 0x1570 JUMP JUMPDEST DUP15 MLOAD PUSH1 0x40 ADD MLOAD SWAP1 PUSH2 0xDC4 JUMP JUMPDEST DUP5 SWAP1 PUSH2 0x241E JUMP JUMPDEST SWAP1 POP PUSH2 0x2908 DUP11 DUP3 PUSH2 0x241E JUMP JUMPDEST SWAP10 POP POP PUSH1 0x1 SWAP1 SWAP5 ADD SWAP4 POP PUSH2 0x282C SWAP3 POP POP POP JUMP JUMPDEST POP POP POP SWAP3 POP SWAP3 SWAP1 POP JUMP JUMPDEST PUSH1 0x0 PUSH1 0x2 DUP3 GT PUSH2 0x2937 JUMPI POP PUSH1 0x0 PUSH2 0x470 JUMP JUMPDEST PUSH1 0x0 PUSH2 0x2943 DUP8 DUP8 PUSH2 0x3526 JUMP JUMPDEST SWAP1 POP DUP1 PUSH2 0x2951 JUMPI SWAP1 POP PUSH2 0x470 JUMP JUMPDEST PUSH1 0x0 PUSH2 0x295C DUP6 PUSH2 0x1A75 JUMP JUMPDEST SWAP1 POP DUP6 DUP2 EQ ISZERO PUSH2 0x2986 JUMPI POP PUSH21 0x400080000002002000000002000000200000000020 NOT AND SWAP1 POP PUSH2 0x470 JUMP JUMPDEST PUSH1 0x1 JUMPDEST DUP5 DUP2 GT PUSH2 0x29C6 JUMPI PUSH1 0x0 PUSH2 0x299B DUP3 PUSH2 0x1A96 JUMP JUMPDEST DUP4 ADD SWAP1 POP PUSH1 0x0 PUSH2 0x29AB DUP10 DUP4 PUSH2 0x355B JUMP JUMPDEST POP SWAP1 POP PUSH2 0x29BA DUP6 DUP3 PUSH1 0x0 PUSH2 0x3666 JUMP JUMPDEST SWAP5 POP POP POP PUSH1 0x1 ADD PUSH2 0x2989 JUMP JUMPDEST POP DUP2 SWAP3 POP POP POP PUSH2 0x470 JUMP JUMPDEST PUSH1 0x0 DUP1 PUSH1 0x0 PUSH2 0x29DF DUP5 PUSH2 0x36B1 JUMP JUMPDEST SWAP1 POP JUMPDEST DUP1 ISZERO PUSH2 0x2A42 JUMPI PUSH1 0x0 PUSH2 0x29F4 DUP10 DUP4 PUSH2 0x36D6 JUMP JUMPDEST SWAP1 POP PUSH1 0x0 PUSH2 0x2A06 DUP13 DUP13 DUP5 DUP13 DUP13 DUP13 PUSH2 0x3789 JUMP JUMPDEST SWAP1 POP PUSH2 0x2A12 DUP6 DUP3 PUSH2 0x241E JUMP JUMPDEST SWAP5 POP PUSH1 0x0 DUP2 SLT ISZERO PUSH2 0x2A22 JUMPI PUSH1 0x1 SWAP4 POP JUMPDEST PUSH2 0x2A2E DUP7 DUP5 PUSH1 0x0 PUSH2 0x3666 JUMP JUMPDEST SWAP6 POP PUSH2 0x2A39 DUP7 PUSH2 0x36B1 JUMP JUMPDEST SWAP3 POP POP POP PUSH2 0x29E2 JUMP JUMPDEST POP SWAP8 POP SWAP8 SWAP6 POP POP POP POP POP POP JUMP JUMPDEST PUSH1 0x0 DUP1 PUSH2 0x4EF PUSH1 0x7 PUSH2 0x2C7F JUMP JUMPDEST PUSH2 0x2A64 PUSH2 0x4DB1 JUMP JUMPDEST PUSH2 0x2A6C PUSH2 0x4DB1 JUMP JUMPDEST PUSH1 0xFF DUP5 AND PUSH2 0x2A7B JUMPI SWAP1 POP PUSH2 0x5B8 JUMP JUMPDEST PUSH2 0x2A85 DUP6 DUP6 PUSH2 0x37E5 JUMP JUMPDEST DUP2 MSTORE PUSH1 0xFF DUP5 AND PUSH1 0x60 DUP3 ADD MSTORE DUP3 PUSH8 0xFFFFFFFFFFFFFFFF DUP2 GT DUP1 ISZERO PUSH2 0x2AA7 JUMPI PUSH1 0x0 DUP1 REVERT JUMPDEST POP PUSH1 0x40 MLOAD SWAP1 DUP1 DUP3 MSTORE DUP1 PUSH1 0x20 MUL PUSH1 0x20 ADD DUP3 ADD PUSH1 0x40 MSTORE DUP1 ISZERO PUSH2 0x2AE1 JUMPI DUP2 PUSH1 0x20 ADD JUMPDEST PUSH2 0x2ACE PUSH2 0x4DD9 JUMP JUMPDEST DUP2 MSTORE PUSH1 0x20 ADD SWAP1 PUSH1 0x1 SWAP1 SUB SWAP1 DUP2 PUSH2 0x2AC6 JUMPI SWAP1 POP JUMPDEST POP PUSH1 0x20 DUP3 ADD MSTORE SWAP5 SWAP4 POP POP POP POP JUMP JUMPDEST PUSH1 0x0 DUP1 PUSH2 0x2AFA PUSH2 0x37F1 JUMP JUMPDEST PUSH1 0x1 PUSH1 0x1 PUSH1 0xA0 SHL SUB DUP6 AND PUSH1 0x0 SWAP1 DUP2 MSTORE PUSH1 0x20 DUP3 DUP2 MSTORE PUSH1 0x40 DUP1 DUP4 KECCAK256 PUSH2 0xFFFF DUP9 AND DUP5 MSTORE SWAP1 SWAP2 MSTORE DUP2 KECCAK256 DUP1 SLOAD PUSH1 0x1 PUSH1 0xA8 SHL SWAP1 DIV PUSH1 0xA SWAP1 DUP2 SIGNEXTEND SWAP1 SIGNEXTEND SWAP5 POP SWAP2 SWAP3 POP DUP4 SLT ISZERO PUSH2 0x2B40 JUMPI PUSH1 0x0 DUP1 REVERT JUMPDEST POP POP SWAP3 SWAP2 POP POP JUMP JUMPDEST PUSH1 0x0 DUP1 PUSH2 0x2B53 PUSH2 0x37FE JUMP JUMPDEST PUSH1 0x0 SWAP4 DUP5 MSTORE PUSH1 0x20 MSTORE POP POP PUSH1 0x40 SWAP1 KECCAK256 SLOAD SWAP1 JUMP JUMPDEST PUSH1 0x0 DUP1 PUSH2 0x4EF PUSH1 0x1B PUSH2 0x2C7F JUMP JUMPDEST PUSH2 0x2B7A PUSH2 0x4D6C JUMP JUMPDEST PUSH1 0x0 PUSH2 0x2B85 DUP5 PUSH2 0x380B JUMP JUMPDEST PUSH2 0xFFFF DUP7 AND PUSH1 0x0 SWAP1 DUP2 MSTORE PUSH1 0x20 DUP6 SWAP1 MSTORE PUSH1 0x40 DUP2 KECCAK256 SWAP2 SWAP3 POP SWAP1 PUSH1 0x4 DUP7 LT PUSH2 0x2BAB JUMPI PUSH1 0x1 PUSH2 0x2BAE JUMP JUMPDEST PUSH1 0x0 JUMPDEST PUSH1 0xFF AND PUSH1 0x2 DUP2 LT PUSH2 0x2BBB JUMPI INVALID JUMPDEST ADD SLOAD SWAP1 POP PUSH2 0x912 DUP3 DUP3 PUSH2 0x3844 JUMP JUMPDEST PUSH1 0x0 DUP1 PUSH2 0x2BE0 DUP8 PUSH2 0x2BDB DUP6 DUP10 DUP10 PUSH2 0x2434 JUMP JUMPDEST PUSH2 0x2471 JUMP JUMPDEST SWAP1 POP PUSH1 0x0 PUSH2 0x2BF2 DUP9 DUP4 PUSH1 0x0 DUP8 SLT PUSH2 0x332D JUMP JUMPDEST SWAP1 POP PUSH2 0xFDA DUP2 DUP7 JUMPDEST PUSH1 0x0 DUP1 PUSH2 0x2C12 PUSH2 0x22A9 PUSH4 0x1DA9C00 PUSH2 0x1276 DUP8 DUP8 PUSH2 0x1890 JUMP JUMPDEST SWAP1 POP PUSH1 0x0 PUSH2 0x2C26 DUP3 PUSH3 0x1DCD65 PUSH1 0x49 SHL PUSH2 0x31D4 JUMP JUMPDEST SWAP1 POP PUSH1 0x0 PUSH2 0x2C33 DUP3 PUSH2 0x3249 JUMP JUMPDEST SWAP1 POP PUSH1 0x0 PUSH2 0x2C47 DUP3 PUSH3 0x1DCD65 PUSH1 0x49 SHL PUSH2 0x329E JUMP JUMPDEST SWAP1 POP PUSH2 0x2C52 DUP2 PUSH2 0x32D4 JUMP JUMPDEST PUSH1 0x7 SIGNEXTEND SWAP8 SWAP7 POP POP POP POP POP POP POP JUMP JUMPDEST PUSH1 0x0 DUP1 PUSH2 0x2C70 DUP9 DUP9 DUP9 DUP8 DUP10 PUSH2 0x2BC9 JUMP JUMPDEST SWAP1 POP PUSH2 0xFDA PUSH2 0x19F4 DUP5 DUP4 PUSH2 0x2167 JUMP JUMPDEST PUSH1 0x0 PUSH3 0xF4240 DUP3 PUSH1 0x26 DUP2 GT ISZERO PUSH2 0x1C9A JUMPI INVALID JUMPDEST PUSH1 0x0 DUP2 ISZERO DUP1 ISZERO SWAP1 PUSH2 0x2CA4 JUMPI POP PUSH2 0x3FFF DUP3 GT ISZERO JUMPDEST PUSH2 0x2CAD JUMPI PUSH1 0x0 DUP1 REVERT JUMPDEST PUSH1 0x80 DUP4 ADD MLOAD PUSH1 0x60 DUP5 ADD MLOAD PUSH2 0xFFFF AND DUP4 EQ ISZERO PUSH2 0x2CCC JUMPI PUSH1 0x1 SWAP2 POP POP PUSH2 0x4EF JUMP JUMPDEST PUSH1 0x1 PUSH1 0x1 PUSH1 0x70 SHL SUB NOT DUP2 AND ISZERO PUSH2 0x2D11 JUMPI PUSH1 0xF0 DUP2 SWAP1 SHR PUSH2 0x3FFF AND DUP4 DUP2 EQ ISZERO PUSH2 0x2CFE JUMPI POP PUSH1 0x1 PUSH1 0xFE SHL SWAP1 DUP2 AND EQ SWAP1 POP PUSH2 0x4EF JUMP JUMPDEST POP PUSH1 0x10 SHL PUSH1 0x1 PUSH1 0x1 PUSH1 0x80 SHL SUB NOT AND PUSH2 0x2CCC JUMP JUMPDEST POP PUSH1 0x0 SWAP4 SWAP3 POP POP POP JUMP JUMPDEST PUSH1 0x0 DUP1 PUSH1 0x0 DUP1 PUSH1 0x0 PUSH2 0x2D2B PUSH2 0x37F1 JUMP JUMPDEST PUSH1 0x1 PUSH1 0x1 PUSH1 0xA0 SHL SUB DUP10 AND PUSH1 0x0 SWAP1 DUP2 MSTORE PUSH1 0x20 DUP3 DUP2 MSTORE PUSH1 0x40 DUP1 DUP4 KECCAK256 PUSH2 0xFFFF DUP13 AND DUP5 MSTORE SWAP1 SWAP2 MSTORE SWAP1 KECCAK256 DUP1 SLOAD PUSH1 0x1 PUSH1 0x1 PUSH1 0x50 SHL SUB DUP2 AND SWAP7 POP PUSH1 0x1 PUSH1 0x50 SHL SWAP1 DIV PUSH4 0xFFFFFFFF AND SWAP5 POP SWAP1 SWAP2 POP DUP4 ISZERO PUSH2 0x2D98 JUMPI DUP1 SLOAD PUSH2 0x2D91 SWAP1 PUSH1 0x1 PUSH1 0x70 SHL SWAP1 DIV PUSH7 0xFFFFFFFFFFFFFF AND PUSH2 0x3963 JUMP JUMPDEST SWAP3 POP PUSH2 0x2DAD JUMP JUMPDEST DUP1 SLOAD PUSH1 0x1 PUSH1 0x70 SHL SWAP1 DIV PUSH7 0xFFFFFFFFFFFFFF AND SWAP3 POP JUMPDEST DUP1 SLOAD PUSH2 0x2DC8 SWAP1 DUP9 SWAP1 PUSH1 0x1 PUSH1 0xA8 SHL SWAP1 DIV PUSH1 0xA SWAP1 DUP2 SIGNEXTEND SWAP1 SIGNEXTEND PUSH2 0x3971 JUMP JUMPDEST SWAP6 POP POP POP SWAP4 POP SWAP4 POP SWAP4 POP SWAP4 JUMP JUMPDEST PUSH1 0x0 DUP1 PUSH2 0x4EF PUSH1 0x11 PUSH2 0x2C7F JUMP JUMPDEST PUSH1 0x0 DUP1 PUSH2 0x4EF PUSH1 0x2 PUSH2 0x2C7F JUMP JUMPDEST PUSH1 0x0 DUP1 PUSH2 0x2DFB DUP4 PUSH2 0x2579 JUMP JUMPDEST PUSH1 0x1 PUSH1 0x1 PUSH1 0xA0 SHL SUB AND PUSH4 0xEF81F216 PUSH1 0x40 MLOAD DUP2 PUSH4 0xFFFFFFFF AND PUSH1 0xE0 SHL DUP2 MSTORE PUSH1 0x4 ADD PUSH1 0x40 DUP1 MLOAD DUP1 DUP4 SUB DUP2 PUSH1 0x0 DUP8 DUP1 EXTCODESIZE ISZERO DUP1 ISZERO PUSH2 0x2E34 JUMPI PUSH1 0x0 DUP1 REVERT JUMPDEST POP GAS CALL ISZERO DUP1 ISZERO PUSH2 0x17C8 JUMPI RETURNDATASIZE PUSH1 0x0 DUP1 RETURNDATACOPY RETURNDATASIZE PUSH1 0x0 REVERT JUMPDEST PUSH1 0x0 PUSH2 0x2E52 PUSH2 0x20DD JUMP JUMPDEST PUSH1 0x0 DUP6 PUSH2 0xFFFF AND DUP2 MSTORE PUSH1 0x20 ADD SWAP1 DUP2 MSTORE PUSH1 0x20 ADD PUSH1 0x0 KECCAK256 SWAP1 POP PUSH2 0x2E76 DUP3 PUSH1 0x0 ADD MLOAD PUSH2 0x3998 JUMP JUMPDEST DUP2 SLOAD PUSH5 0xFFFFFFFFFF NOT AND PUSH5 0xFFFFFFFFFF SWAP2 SWAP1 SWAP2 AND OR DUP2 SSTORE PUSH1 0xA0 DUP3 ADD MLOAD PUSH2 0x2E9B SWAP1 PUSH2 0x39AC JUMP JUMPDEST PUSH1 0x2 DUP3 ADD DUP1 SLOAD PUSH10 0xFFFFFFFFFFFFFFFFFFFF NOT AND PUSH1 0x1 PUSH1 0x1 PUSH1 0x50 SHL SUB SWAP3 SWAP1 SWAP3 AND SWAP2 SWAP1 SWAP2 OR SWAP1 SSTORE PUSH1 0xC0 DUP3 ADD MLOAD PUSH2 0x2ECE SWAP1 PUSH2 0x39AC JUMP JUMPDEST DUP2 PUSH1 0x2 ADD PUSH1 0xA PUSH2 0x100 EXP DUP2 SLOAD DUP2 PUSH1 0x1 PUSH1 0x1 PUSH1 0x50 SHL SUB MUL NOT AND SWAP1 DUP4 PUSH1 0x1 PUSH1 0x1 PUSH1 0x50 SHL SUB AND MUL OR SWAP1 SSTORE POP PUSH2 0x2F03 DUP3 PUSH1 0xE0 ADD MLOAD PUSH2 0x39AC JUMP JUMPDEST DUP2 PUSH1 0x2 ADD PUSH1 0x14 PUSH2 0x100 EXP DUP2 SLOAD DUP2 PUSH1 0x1 PUSH1 0x1 PUSH1 0x50 SHL SUB MUL NOT AND SWAP1 DUP4 PUSH1 0x1 PUSH1 0x1 PUSH1 0x50 SHL SUB AND MUL OR SWAP1 SSTORE POP PUSH2 0x2F38 DUP3 PUSH1 0x20 ADD MLOAD PUSH2 0x39C2 JUMP JUMPDEST DUP2 SLOAD PUSH1 0x1 PUSH1 0x1 PUSH1 0x58 SHL SUB SWAP2 SWAP1 SWAP2 AND PUSH1 0x1 PUSH1 0x28 SHL MUL PUSH16 0xFFFFFFFFFFFFFFFFFFFFFF0000000000 NOT SWAP1 SWAP2 AND OR DUP2 SSTORE PUSH1 0x40 DUP3 ADD MLOAD PUSH2 0x2F72 SWAP1 PUSH2 0x39C2 JUMP JUMPDEST PUSH1 0x1 DUP3 ADD DUP1 SLOAD PUSH11 0xFFFFFFFFFFFFFFFFFFFFFF NOT AND PUSH1 0x1 PUSH1 0x1 PUSH1 0x58 SHL SUB SWAP3 SWAP1 SWAP3 AND SWAP2 SWAP1 SWAP2 OR SWAP1 SSTORE PUSH1 0x80 DUP3 ADD MLOAD PUSH2 0x2FA6 SWAP1 PUSH2 0x39C2 JUMP JUMPDEST DUP2 SLOAD PUSH1 0x1 PUSH1 0x1 PUSH1 0x58 SHL SUB SWAP2 SWAP1 SWAP2 AND PUSH1 0x1 PUSH1 0x80 SHL MUL PUSH11 0xFFFFFFFFFFFFFFFFFFFFFF PUSH1 0x80 SHL NOT SWAP1 SWAP2 AND OR DUP2 SSTORE PUSH1 0x60 DUP3 ADD MLOAD PUSH2 0x2FDE SWAP1 PUSH2 0x39D8 JUMP JUMPDEST DUP2 SLOAD PUSH4 0xFFFFFFFF SWAP2 SWAP1 SWAP2 AND PUSH1 0x1 PUSH1 0xD8 SHL MUL PUSH4 0xFFFFFFFF PUSH1 0xD8 SHL NOT SWAP1 SWAP2 AND OR DUP2 SSTORE DUP3 ISZERO PUSH2 0x302A JUMPI PUSH1 0x0 PUSH2 0x300F DUP5 PUSH2 0xBBB JUMP JUMPDEST SWAP1 POP PUSH2 0x301B DUP6 DUP3 PUSH2 0x39EB JUMP JUMPDEST PUSH2 0x3028 PUSH2 0xFEE DUP7 DUP4 PUSH2 0x3A27 JUMP JUMPDEST POP JUMPDEST DUP4 PUSH2 0xFFFF AND PUSH32 0xEF25641E225E493886510CA1AD6584FA7B442B9FEA820A29D1DE3CE27D270FD2 DUP4 PUSH1 0xA0 ADD MLOAD DUP5 PUSH1 0xC0 ADD MLOAD DUP6 PUSH1 0xE0 ADD MLOAD PUSH1 0x40 MLOAD PUSH2 0x306E SWAP4 SWAP3 SWAP2 SWAP1 PUSH2 0x5383 JUMP JUMPDEST PUSH1 0x40 MLOAD DUP1 SWAP2 SUB SWAP1 LOG2 POP POP POP POP JUMP JUMPDEST PUSH1 0x0 PUSH2 0x3089 DUP5 DUP5 DUP5 PUSH2 0x1487 JUMP JUMPDEST SWAP1 POP PUSH1 0x0 PUSH2 0x3096 DUP6 PUSH2 0x3AB1 JUMP JUMPDEST SWAP1 POP DUP1 DUP3 GT PUSH2 0x30A9 JUMPI PUSH1 0x0 SWAP2 POP POP PUSH2 0x5B8 JUMP JUMPDEST DUP1 DUP3 SUB SWAP2 POP PUSH1 0x0 PUSH2 0x30B9 DUP7 PUSH2 0x3ABE JUMP JUMPDEST SWAP1 POP DUP3 DUP2 LT ISZERO PUSH2 0x215E JUMPI SWAP6 SWAP5 POP POP POP POP POP JUMP JUMPDEST PUSH1 0x0 PUSH2 0x30D9 DUP5 DUP5 DUP5 PUSH2 0x1487 JUMP JUMPDEST SWAP1 POP PUSH2 0x30E7 PUSH2 0x1282 DUP6 PUSH2 0x3ACB JUMP JUMPDEST SWAP1 POP PUSH1 0x0 PUSH2 0x30F4 DUP6 PUSH2 0x3AD8 JUMP JUMPDEST SWAP1 POP DUP1 DUP3 LT ISZERO PUSH2 0xE8B JUMPI SWAP5 SWAP4 POP POP POP POP JUMP JUMPDEST PUSH1 0x60 ADD MLOAD PUSH3 0x7A120 PUSH1 0x10 SWAP2 SWAP1 SWAP2 SHR PUSH1 0xFF AND MUL PUSH4 0x3B9ACA00 SUB SWAP1 JUMP JUMPDEST PUSH1 0x0 DUP1 PUSH2 0x4EF PUSH1 0xA PUSH2 0x2C7F JUMP JUMPDEST PUSH1 0x0 DUP1 DUP4 GT PUSH2 0x313C JUMPI PUSH1 0x0 DUP1 REVERT JUMPDEST DUP2 DUP7 GT ISZERO PUSH2 0x314B JUMPI POP DUP4 PUSH2 0x470 JUMP JUMPDEST PUSH1 0x0 PUSH2 0x3157 DUP4 DUP9 PUSH2 0x2007 JUMP JUMPDEST SWAP1 POP DUP4 DUP2 GT ISZERO PUSH2 0x316A JUMPI DUP6 SWAP2 POP POP PUSH2 0x470 JUMP JUMPDEST PUSH1 0x0 PUSH2 0x3176 DUP3 DUP7 PUSH2 0x3AE5 JUMP JUMPDEST SWAP1 POP PUSH1 0x0 PUSH2 0x3188 PUSH4 0x3B9ACA00 DUP4 PUSH2 0x2007 JUMP JUMPDEST SWAP1 POP PUSH2 0x31A9 PUSH4 0x3B9ACA00 PUSH2 0x1276 PUSH2 0x319F DUP11 DUP6 PUSH2 0x1890 JUMP JUMPDEST PUSH2 0x15FE DUP13 DUP8 PUSH2 0x1890 JUMP JUMPDEST SWAP10 SWAP9 POP POP POP POP POP POP POP POP POP JUMP JUMPDEST PUSH1 0x0 PUSH8 0x7FFFFFFFFFFFFFFF DUP3 GT ISZERO PUSH2 0x31CD JUMPI PUSH1 0x0 DUP1 REVERT JUMPDEST POP PUSH1 0x40 SHL SWAP1 JUMP JUMPDEST PUSH1 0x0 DUP2 PUSH1 0xF SIGNEXTEND PUSH1 0x0 EQ ISZERO PUSH2 0x31E7 JUMPI PUSH1 0x0 DUP1 REVERT JUMPDEST PUSH1 0x0 DUP3 PUSH1 0xF SIGNEXTEND PUSH1 0x40 DUP6 PUSH1 0xF SIGNEXTEND SWAP1 SHL DUP2 PUSH2 0x31FC JUMPI INVALID JUMPDEST SDIV SWAP1 POP PUSH1 0x1 PUSH1 0x1 PUSH1 0x7F SHL SUB NOT DUP2 SLT DUP1 ISZERO SWAP1 PUSH2 0x321E JUMPI POP PUSH1 0x1 PUSH1 0x1 PUSH1 0x7F SHL SUB DUP2 SGT ISZERO JUMPDEST PUSH2 0x5B8 JUMPI PUSH1 0x0 DUP1 REVERT JUMPDEST PUSH1 0x0 PUSH1 0xF DUP3 SWAP1 SIGNEXTEND PUSH1 0x1 PUSH1 0x1 PUSH1 0x7F SHL SUB NOT EQ ISZERO PUSH2 0x3242 JUMPI PUSH1 0x0 DUP1 REVERT JUMPDEST POP PUSH1 0x0 SUB SWAP1 JUMP JUMPDEST PUSH1 0x0 PUSH1 0x1 PUSH1 0x46 SHL DUP3 PUSH1 0xF SIGNEXTEND SLT PUSH2 0x325E JUMPI PUSH1 0x0 DUP1 REVERT JUMPDEST PUSH9 0x3FFFFFFFFFFFFFFFFF NOT DUP3 PUSH1 0xF SIGNEXTEND SLT ISZERO PUSH2 0x327B JUMPI POP PUSH1 0x0 PUSH2 0x370 JUMP JUMPDEST PUSH2 0x4EF PUSH1 0x80 DUP4 PUSH1 0xF SIGNEXTEND PUSH17 0x171547652B82FE1777D0FFDA0D23A7D12 MUL SWAP1 SAR PUSH2 0x3AF8 JUMP JUMPDEST PUSH1 0x0 PUSH1 0xF DUP4 DUP2 SIGNEXTEND SWAP1 DUP4 SWAP1 SIGNEXTEND MUL PUSH1 0x40 SAR PUSH1 0x1 PUSH1 0x1 PUSH1 0x7F SHL SUB NOT DUP2 SLT DUP1 ISZERO SWAP1 PUSH2 0x321E JUMPI POP PUSH1 0x1 PUSH1 0x1 PUSH1 0x7F SHL SUB DUP2 SGT ISZERO PUSH2 0x5B8 JUMPI PUSH1 0x0 DUP1 REVERT JUMPDEST PUSH1 0xF SIGNEXTEND PUSH1 0x40 SAR SWAP1 JUMP JUMPDEST PUSH2 0x32EA DUP8 DUP8 DUP8 DUP7 DUP6 PUSH2 0x45A8 JUMP JUMPDEST PUSH2 0x3303 DUP8 PUSH1 0xE0 ADD MLOAD DUP9 PUSH1 0xA0 ADD MLOAD DUP10 PUSH1 0xC0 ADD MLOAD DUP6 DUP9 PUSH2 0x312E JUMP JUMPDEST PUSH1 0xC0 SWAP1 SWAP8 ADD SWAP7 SWAP1 SWAP7 MSTORE POP POP POP POP POP POP JUMP JUMPDEST PUSH1 0x0 PUSH2 0x5B8 PUSH2 0x3327 DUP5 PUSH4 0x3B9ACA00 PUSH2 0xE93 JUMP JUMPDEST DUP4 PUSH2 0xEE1 JUMP JUMPDEST PUSH1 0x0 DUP1 PUSH2 0x334C PUSH1 0x64 PUSH2 0x1276 DUP8 PUSH1 0xE0 ADD MLOAD DUP8 PUSH2 0x1890 SWAP1 SWAP2 SWAP1 PUSH4 0xFFFFFFFF AND JUMP JUMPDEST SWAP1 POP DUP5 PUSH1 0xA0 ADD MLOAD DUP2 LT ISZERO PUSH2 0x3361 JUMPI POP PUSH1 0xA0 DUP5 ADD MLOAD JUMPDEST DUP5 PUSH1 0xC0 ADD MLOAD DUP2 GT ISZERO PUSH2 0x3374 JUMPI POP PUSH1 0xC0 DUP5 ADD MLOAD JUMPDEST DUP3 ISZERO PUSH2 0x338B JUMPI PUSH2 0x3384 DUP5 DUP3 PUSH2 0x12B3 JUMP JUMPDEST SWAP2 POP PUSH2 0xE8B JUMP JUMPDEST DUP4 DUP2 GT PUSH2 0x339A JUMPI DUP1 DUP5 SUB PUSH2 0x470 JUMP JUMPDEST POP PUSH1 0x0 SWAP5 SWAP4 POP POP POP POP JUMP JUMPDEST PUSH1 0x60 ADD MLOAD PUSH1 0x18 SHR PUSH1 0xFF AND SWAP1 JUMP JUMPDEST PUSH1 0x0 DUP1 PUSH2 0x4EF PUSH1 0x1F PUSH2 0x2C7F JUMP JUMPDEST PUSH1 0x0 DUP1 PUSH1 0x0 DUP1 PUSH1 0x0 DUP6 PUSH1 0x20 ADD MLOAD GT ISZERO PUSH2 0x340C JUMPI PUSH2 0x3409 PUSH2 0x33F0 DUP7 PUSH1 0xC0 ADD MLOAD DUP8 PUSH1 0x20 ADD MLOAD PUSH2 0x1890 SWAP1 SWAP2 SWAP1 PUSH4 0xFFFFFFFF AND JUMP JUMPDEST PUSH1 0xE0 DUP8 ADD MLOAD PUSH1 0x40 DUP9 ADD MLOAD PUSH2 0x3403 SWAP2 PUSH2 0x1890 JUMP JUMPDEST SWAP1 PUSH2 0x3AE5 JUMP JUMPDEST SWAP1 POP JUMPDEST PUSH1 0x0 PUSH2 0x3417 DUP8 PUSH2 0x4662 JUMP JUMPDEST SWAP1 POP PUSH2 0x3423 DUP2 DUP4 PUSH2 0x2471 JUMP JUMPDEST SWAP5 POP DUP2 ISZERO PUSH2 0x343A JUMPI PUSH2 0x3437 DUP2 DUP7 PUSH1 0x1 PUSH2 0x332D JUMP JUMPDEST SWAP4 POP JUMPDEST PUSH1 0x20 DUP7 ADD MLOAD ISZERO PUSH2 0x117C JUMPI PUSH2 0x344E DUP6 DUP4 PUSH2 0x4695 JUMP JUMPDEST SWAP3 POP POP POP SWAP3 POP SWAP3 POP SWAP3 JUMP JUMPDEST PUSH1 0x0 DUP1 PUSH2 0x4EF PUSH1 0x1E PUSH2 0x2C7F JUMP JUMPDEST PUSH1 0x0 DUP1 PUSH2 0x3476 DUP5 PUSH1 0x40 ADD MLOAD PUSH2 0x46AE JUMP JUMPDEST DUP1 ISZERO PUSH2 0x3487 JUMPI POP PUSH1 0x0 DUP5 PUSH1 0x60 ADD MLOAD SLT ISZERO JUMPDEST PUSH2 0x3490 JUMPI PUSH1 0x0 DUP1 REVERT JUMPDEST PUSH2 0x34B3 DUP4 PUSH1 0x80 ADD MLOAD PUSH2 0x524 DUP7 PUSH1 0x60 ADD MLOAD DUP7 PUSH1 0x60 ADD MLOAD PUSH2 0xE93 SWAP1 SWAP2 SWAP1 PUSH4 0xFFFFFFFF AND JUMP JUMPDEST SWAP2 POP PUSH2 0x34D8 DUP4 PUSH1 0x80 ADD MLOAD PUSH2 0x524 DUP7 PUSH1 0x60 ADD MLOAD DUP7 PUSH1 0x40 ADD MLOAD PUSH2 0xE93 SWAP1 SWAP2 SWAP1 PUSH4 0xFFFFFFFF AND JUMP JUMPDEST SWAP1 POP SWAP3 POP SWAP3 SWAP1 POP JUMP JUMPDEST PUSH1 0x0 DUP1 PUSH2 0x34EC PUSH2 0x46C4 JUMP JUMPDEST PUSH1 0x1 PUSH1 0x1 PUSH1 0xA0 SHL SUB DUP7 AND PUSH1 0x0 SWAP1 DUP2 MSTORE PUSH1 0x20 SWAP2 DUP3 MSTORE PUSH1 0x40 DUP1 DUP3 KECCAK256 DUP8 DUP4 MSTORE DUP4 MSTORE DUP1 DUP3 KECCAK256 DUP7 DUP4 MSTORE SWAP1 SWAP3 MSTORE KECCAK256 SLOAD PUSH1 0xF SWAP1 DUP2 SIGNEXTEND SWAP1 SIGNEXTEND SWAP2 POP POP SWAP4 SWAP3 POP POP POP JUMP JUMPDEST PUSH1 0x0 DUP1 PUSH2 0x3531 PUSH2 0x46D1 JUMP JUMPDEST PUSH1 0x1 PUSH1 0x1 PUSH1 0xA0 SHL SUB DUP6 AND PUSH1 0x0 SWAP1 DUP2 MSTORE PUSH1 0x20 SWAP2 DUP3 MSTORE PUSH1 0x40 DUP1 DUP3 KECCAK256 DUP7 DUP4 MSTORE SWAP1 SWAP3 MSTORE KECCAK256 SLOAD SWAP2 POP POP SWAP3 SWAP2 POP POP JUMP JUMPDEST PUSH1 0x0 DUP1 PUSH1 0x0 PUSH2 0x3569 DUP6 PUSH2 0x46DE JUMP JUMPDEST SWAP1 POP PUSH3 0x15180 DUP5 MOD ISZERO PUSH2 0x3583 JUMPI PUSH1 0x0 DUP1 SWAP3 POP SWAP3 POP POP PUSH2 0x365F JUMP JUMPDEST DUP4 DUP2 LT PUSH2 0x3597 JUMPI PUSH1 0x0 DUP1 SWAP3 POP SWAP3 POP POP PUSH2 0x365F JUMP JUMPDEST PUSH3 0x15180 DUP2 DUP6 SUB DIV PUSH1 0x5A DUP2 GT PUSH2 0x35B4 JUMPI SWAP3 POP PUSH1 0x1 SWAP2 POP PUSH2 0x365F SWAP1 POP JUMP JUMPDEST PUSH2 0x168 DUP2 GT PUSH2 0x35F3 JUMPI PUSH1 0x0 PUSH3 0x15180 PUSH3 0x7E900 DUP5 MOD DIV DUP3 ADD PUSH1 0x59 NOT ADD SWAP1 POP PUSH1 0x6 DUP2 DIV PUSH1 0x5A ADD PUSH1 0x6 DUP3 DUP2 PUSH2 0x35E3 JUMPI INVALID JUMPDEST MOD PUSH1 0x0 EQ SWAP5 POP SWAP5 POP POP POP POP PUSH2 0x365F JUMP JUMPDEST PUSH2 0x870 DUP2 GT PUSH2 0x3623 JUMPI PUSH1 0x0 PUSH3 0x15180 PUSH3 0x278D00 DUP5 MOD DIV DUP3 ADD PUSH2 0x167 NOT ADD SWAP1 POP PUSH1 0x1E DUP2 DIV PUSH1 0x87 ADD PUSH1 0x1E DUP3 DUP2 PUSH2 0x35E3 JUMPI INVALID JUMPDEST PUSH2 0x1DE2 DUP2 GT PUSH2 0x3653 JUMPI PUSH1 0x0 PUSH3 0x15180 PUSH3 0x76A700 DUP5 MOD DIV DUP3 ADD PUSH2 0x86F NOT ADD SWAP1 POP PUSH1 0x5A DUP2 DIV PUSH1 0xC3 ADD PUSH1 0x5A DUP3 DUP2 PUSH2 0x35E3 JUMPI INVALID JUMPDEST PUSH2 0x100 PUSH1 0x0 SWAP4 POP SWAP4 POP POP POP JUMPDEST SWAP3 POP SWAP3 SWAP1 POP JUMP JUMPDEST PUSH1 0x0 PUSH1 0x1 DUP4 LT ISZERO DUP1 ISZERO PUSH2 0x367B JUMPI POP PUSH2 0x100 DUP4 GT ISZERO JUMPDEST PUSH2 0x3684 JUMPI PUSH1 0x0 DUP1 REVERT JUMPDEST DUP2 ISZERO PUSH2 0x369D JUMPI POP PUSH1 0x1 PUSH1 0xFF SHL PUSH1 0x0 NOT DUP4 ADD SHR DUP4 OR PUSH2 0x5B8 JUMP JUMPDEST POP PUSH1 0x1 PUSH1 0xFF SHL PUSH1 0x0 NOT DUP4 ADD SHR NOT DUP4 AND PUSH2 0x5B8 JUMP JUMPDEST PUSH1 0x0 DUP2 PUSH2 0x36C0 JUMPI POP PUSH1 0x0 PUSH2 0x370 JUMP JUMPDEST PUSH2 0x36C9 DUP3 PUSH2 0x46FA JUMP JUMPDEST PUSH1 0xFF SUB PUSH1 0x1 ADD SWAP1 POP SWAP2 SWAP1 POP JUMP JUMPDEST PUSH1 0x0 DUP2 PUSH2 0x36E2 JUMPI PUSH1 0x0 DUP1 REVERT JUMPDEST PUSH2 0x100 DUP3 GT ISZERO PUSH2 0x36F1 JUMPI PUSH1 0x0 DUP1 REVERT JUMPDEST PUSH1 0x0 PUSH2 0x36FC DUP5 PUSH2 0x46DE JUMP JUMPDEST SWAP1 POP PUSH1 0x0 PUSH1 0x5A DUP5 GT PUSH2 0x3717 JUMPI POP PUSH3 0x15180 DUP4 MUL ADD SWAP1 POP PUSH2 0x4EF JUMP JUMPDEST PUSH1 0x87 DUP5 GT PUSH2 0x373F JUMPI POP PUSH1 0x59 NOT DUP4 ADD PUSH3 0x7E900 SWAP1 DUP2 MUL SWAP1 DUP3 MOD SWAP1 SWAP2 SUB ADD PUSH3 0x76A700 ADD SWAP1 POP PUSH2 0x4EF JUMP JUMPDEST PUSH1 0xC3 DUP5 GT PUSH2 0x3768 JUMPI POP PUSH1 0x86 NOT DUP4 ADD PUSH3 0x278D00 SWAP1 DUP2 MUL SWAP1 DUP3 MOD SWAP1 SWAP2 SUB ADD PUSH4 0x1DA9C00 ADD SWAP1 POP PUSH2 0x4EF JUMP JUMPDEST POP PUSH1 0xC2 NOT DUP4 ADD PUSH3 0x76A700 SWAP1 DUP2 MUL SWAP1 DUP3 MOD SWAP1 SWAP2 SUB ADD PUSH4 0xB1FA800 ADD SWAP1 POP PUSH2 0x4EF JUMP JUMPDEST PUSH1 0x0 DUP1 PUSH2 0x3797 DUP9 DUP9 DUP9 PUSH2 0x34E1 JUMP JUMPDEST SWAP1 POP DUP5 DUP7 GT PUSH2 0x37A7 JUMPI SWAP1 POP PUSH2 0x912 JUMP JUMPDEST DUP3 ISZERO PUSH2 0x37C1 JUMPI PUSH2 0x37B9 DUP5 DUP3 DUP9 DUP9 PUSH2 0x1437 JUMP JUMPDEST SWAP2 POP POP PUSH2 0x912 JUMP JUMPDEST PUSH1 0x0 PUSH2 0x37CE DUP6 DUP9 DUP9 PUSH2 0x1487 JUMP JUMPDEST SWAP1 POP PUSH2 0x37DC DUP3 DUP9 DUP9 DUP5 PUSH2 0x1570 JUMP JUMPDEST SWAP3 POP POP POP PUSH2 0x912 JUMP JUMPDEST PUSH1 0x60 PUSH2 0xE8B DUP4 DUP4 PUSH2 0x4793 JUMP JUMPDEST PUSH1 0x0 DUP1 PUSH2 0x4EF PUSH1 0x6 PUSH2 0x2C7F JUMP JUMPDEST PUSH1 0x0 DUP1 PUSH2 0x4EF PUSH1 0x9 PUSH2 0x2C7F JUMP JUMPDEST PUSH1 0x0 DUP2 PUSH1 0x0 LT PUSH2 0x381A JUMPI PUSH1 0x0 DUP1 REVERT JUMPDEST PUSH1 0x7 DUP3 GT ISZERO PUSH2 0x3828 JUMPI PUSH1 0x0 DUP1 REVERT JUMPDEST PUSH1 0x4 DUP3 LT PUSH2 0x3839 JUMPI PUSH1 0x4 DUP3 SUB PUSH2 0x383B JUMP JUMPDEST DUP2 JUMPDEST PUSH1 0x8 MUL SWAP3 SWAP2 POP POP JUMP JUMPDEST PUSH2 0x384C PUSH2 0x4D6C JUMP JUMPDEST PUSH1 0x64 PUSH4 0x3B9ACA00 DUP4 PUSH1 0xFF DUP7 AND PUSH1 0x20 DUP2 LT PUSH2 0x3862 JUMPI INVALID JUMPDEST BYTE MUL DUP2 PUSH2 0x386B JUMPI INVALID JUMPDEST DIV DUP2 MSTORE PUSH1 0x64 PUSH4 0x3B9ACA00 DUP4 PUSH1 0xFF DUP7 AND PUSH1 0x1 ADD PUSH1 0x20 DUP2 LT PUSH2 0x3887 JUMPI INVALID JUMPDEST BYTE MUL DUP2 PUSH2 0x3890 JUMPI INVALID JUMPDEST DIV DUP2 PUSH1 0x20 ADD DUP2 DUP2 MSTORE POP POP PUSH2 0x38B5 DUP3 PUSH1 0x2 DUP6 PUSH1 0xFF AND ADD PUSH1 0x20 DUP2 LT PUSH2 0x38AF JUMPI INVALID JUMPDEST BYTE PUSH2 0x47AB JUMP JUMPDEST PUSH1 0x80 DUP3 ADD DUP2 SWAP1 MSTORE PUSH2 0x100 SWAP1 DUP4 PUSH1 0xFF DUP7 AND PUSH1 0x3 ADD PUSH1 0x20 DUP2 LT PUSH2 0x38D2 JUMPI INVALID JUMPDEST BYTE MUL DUP2 PUSH2 0x38DB JUMPI INVALID JUMPDEST DIV PUSH1 0x40 DUP3 ADD MSTORE PUSH1 0x80 DUP2 ADD MLOAD PUSH2 0x100 SWAP1 DUP4 PUSH1 0xFF DUP7 AND PUSH1 0x4 ADD PUSH1 0x20 DUP2 LT PUSH2 0x38FC JUMPI INVALID JUMPDEST BYTE MUL DUP2 PUSH2 0x3905 JUMPI INVALID JUMPDEST DIV PUSH1 0x60 DUP3 ADD MSTORE PUSH3 0x7A120 DUP3 PUSH1 0xFF DUP6 AND PUSH1 0x5 ADD PUSH1 0x20 DUP2 LT PUSH2 0x3921 JUMPI INVALID JUMPDEST BYTE MUL PUSH1 0xA0 DUP3 ADD MSTORE PUSH3 0x2625A0 DUP3 PUSH1 0xFF DUP6 AND PUSH1 0x6 ADD PUSH1 0x20 DUP2 LT PUSH2 0x393E JUMPI INVALID JUMPDEST BYTE MUL PUSH1 0xC0 DUP3 ADD MSTORE DUP2 PUSH1 0xFF DUP5 AND PUSH1 0x7 ADD PUSH1 0x20 DUP2 LT PUSH2 0x3957 JUMPI INVALID JUMPDEST BYTE PUSH1 0xE0 DUP3 ADD MSTORE SWAP3 SWAP2 POP POP JUMP JUMPDEST PUSH1 0x8 DUP2 SWAP1 SHR PUSH1 0xFF SWAP1 SWAP2 AND SHL SWAP1 JUMP JUMPDEST PUSH1 0x0 DUP1 DUP3 SLT PUSH2 0x3981 JUMPI POP DUP1 PUSH2 0x4EF JUMP JUMPDEST DUP3 MLOAD PUSH1 0x20 DUP5 ADD MLOAD PUSH2 0x1A5A SWAP2 SWAP1 PUSH2 0x524 SWAP1 DUP6 SWAP1 PUSH2 0xE93 JUMP JUMPDEST PUSH1 0x0 PUSH5 0xFFFFFFFFFF DUP3 GT ISZERO PUSH2 0xBD1 JUMPI PUSH1 0x0 DUP1 REVERT JUMPDEST PUSH1 0x0 PUSH1 0x1 PUSH1 0x1 PUSH1 0x50 SHL SUB DUP3 GT ISZERO PUSH2 0xBD1 JUMPI PUSH1 0x0 DUP1 REVERT JUMPDEST PUSH1 0x0 PUSH1 0x1 PUSH1 0x1 PUSH1 0x58 SHL SUB DUP3 GT ISZERO PUSH2 0xBD1 JUMPI PUSH1 0x0 DUP1 REVERT JUMPDEST PUSH1 0x0 PUSH4 0xFFFFFFFF DUP3 GT ISZERO PUSH2 0xBD1 JUMPI PUSH1 0x0 DUP1 REVERT JUMPDEST PUSH1 0x0 DUP2 SLT ISZERO PUSH2 0x39F9 JUMPI PUSH1 0x0 DUP1 REVERT JUMPDEST PUSH1 0x0 PUSH2 0x3A07 PUSH2 0xFEE DUP5 PUSH2 0x2AEF JUMP JUMPDEST SWAP1 POP PUSH2 0x3A13 DUP2 DUP4 PUSH2 0x241E JUMP JUMPDEST SWAP1 POP PUSH2 0x3A22 PUSH2 0xFEE DUP5 DUP4 PUSH2 0x47DF JUMP JUMPDEST POP POP POP JUMP JUMPDEST PUSH1 0x0 PUSH2 0x3A31 PUSH2 0x4853 JUMP JUMPDEST PUSH2 0xFFFF DUP5 AND PUSH1 0x0 SWAP1 DUP2 MSTORE PUSH1 0x20 SWAP2 SWAP1 SWAP2 MSTORE PUSH1 0x40 SWAP1 DUP2 SWAP1 KECCAK256 SLOAD SWAP1 MLOAD PUSH4 0xAD1C095D PUSH1 0xE0 SHL DUP2 MSTORE PUSH1 0x1 PUSH1 0x1 PUSH1 0xA0 SHL SUB SWAP1 SWAP2 AND SWAP2 POP DUP2 SWAP1 PUSH4 0xAD1C095D SWAP1 PUSH2 0x3A79 SWAP1 DUP8 SWAP1 DUP7 SWAP1 PUSH1 0x4 ADD PUSH2 0x511F JUMP JUMPDEST PUSH1 0x0 PUSH1 0x40 MLOAD DUP1 DUP4 SUB DUP2 PUSH1 0x0 DUP8 DUP1 EXTCODESIZE ISZERO DUP1 ISZERO PUSH2 0x3A93 JUMPI PUSH1 0x0 DUP1 REVERT JUMPDEST POP GAS CALL ISZERO DUP1 ISZERO PUSH2 0x3AA7 JUMPI RETURNDATASIZE PUSH1 0x0 DUP1 RETURNDATACOPY RETURNDATASIZE PUSH1 0x0 REVERT JUMPDEST POP POP POP POP POP POP POP POP JUMP JUMPDEST PUSH1 0x0 PUSH2 0x4EF DUP3 PUSH1 0x20 PUSH2 0x4860 JUMP JUMPDEST PUSH1 0x0 PUSH2 0x4EF DUP3 PUSH1 0x48 PUSH2 0x4860 JUMP JUMPDEST PUSH1 0x0 PUSH2 0x4EF DUP3 PUSH1 0x28 PUSH2 0x4860 JUMP JUMPDEST PUSH1 0x0 PUSH2 0x4EF DUP3 PUSH1 0x30 PUSH2 0x4860 JUMP JUMPDEST PUSH1 0x0 PUSH2 0x5B8 PUSH2 0x26CB DUP5 PUSH4 0x3B9ACA00 PUSH2 0x1890 JUMP JUMPDEST PUSH1 0x0 PUSH1 0x1 PUSH1 0x46 SHL DUP3 PUSH1 0xF SIGNEXTEND SLT PUSH2 0x3B0D JUMPI PUSH1 0x0 DUP1 REVERT JUMPDEST PUSH9 0x3FFFFFFFFFFFFFFFFF NOT DUP3 PUSH1 0xF SIGNEXTEND SLT ISZERO PUSH2 0x3B2A JUMPI POP PUSH1 0x0 PUSH2 0x370 JUMP JUMPDEST PUSH1 0x1 PUSH1 0x7F SHL PUSH1 0x0 PUSH8 0x8000000000000000 DUP5 AND PUSH1 0xF SIGNEXTEND SGT ISZERO PUSH2 0x3B5C JUMPI PUSH17 0x16A09E667F3BCC908B2FB1366EA957D3E MUL PUSH1 0x80 SHR JUMPDEST PUSH1 0x0 DUP4 PUSH8 0x4000000000000000 AND PUSH1 0xF SIGNEXTEND SGT ISZERO PUSH2 0x3B89 JUMPI PUSH17 0x1306FE0A31B7152DE8D5A46305C85EDEC MUL PUSH1 0x80 SHR JUMPDEST PUSH1 0x0 DUP4 PUSH8 0x2000000000000000 AND PUSH1 0xF SIGNEXTEND SGT ISZERO PUSH2 0x3BB6 JUMPI PUSH17 0x1172B83C7D517ADCDF7C8C50EB14A791F MUL PUSH1 0x80 SHR JUMPDEST PUSH1 0x0 DUP4 PUSH8 0x1000000000000000 AND PUSH1 0xF SIGNEXTEND SGT ISZERO PUSH2 0x3BE3 JUMPI PUSH17 0x10B5586CF9890F6298B92B71842A98363 MUL PUSH1 0x80 SHR JUMPDEST PUSH1 0x0 DUP4 PUSH8 0x800000000000000 AND PUSH1 0xF SIGNEXTEND SGT ISZERO PUSH2 0x3C10 JUMPI PUSH17 0x1059B0D31585743AE7C548EB68CA417FD MUL PUSH1 0x80 SHR JUMPDEST PUSH1 0x0 DUP4 PUSH8 0x400000000000000 AND PUSH1 0xF SIGNEXTEND SGT ISZERO PUSH2 0x3C3D JUMPI PUSH17 0x102C9A3E778060EE6F7CACA4F7A29BDE8 MUL PUSH1 0x80 SHR JUMPDEST PUSH1 0x0 DUP4 PUSH8 0x200000000000000 AND PUSH1 0xF SIGNEXTEND SGT ISZERO PUSH2 0x3C6A JUMPI PUSH17 0x10163DA9FB33356D84A66AE336DCDFA3F MUL PUSH1 0x80 SHR JUMPDEST PUSH1 0x0 DUP4 PUSH1 0x1 PUSH1 0x38 SHL AND PUSH1 0xF SIGNEXTEND SGT ISZERO PUSH2 0x3C93 JUMPI PUSH17 0x100B1AFA5ABCBED6129AB13EC11DC9543 MUL PUSH1 0x80 SHR JUMPDEST PUSH1 0x0 DUP4 PUSH7 0x80000000000000 AND PUSH1 0xF SIGNEXTEND SGT ISZERO PUSH2 0x3CBF JUMPI PUSH17 0x10058C86DA1C09EA1FF19D294CF2F679B MUL PUSH1 0x80 SHR JUMPDEST PUSH1 0x0 DUP4 PUSH7 0x40000000000000 AND PUSH1 0xF SIGNEXTEND SGT ISZERO PUSH2 0x3CEB JUMPI PUSH17 0x1002C605E2E8CEC506D21BFC89A23A00F MUL PUSH1 0x80 SHR JUMPDEST PUSH1 0x0 DUP4 PUSH7 0x20000000000000 AND PUSH1 0xF SIGNEXTEND SGT ISZERO PUSH2 0x3D17 JUMPI PUSH17 0x100162F3904051FA128BCA9C55C31E5DF MUL PUSH1 0x80 SHR JUMPDEST PUSH1 0x0 DUP4 PUSH7 0x10000000000000 AND PUSH1 0xF SIGNEXTEND SGT ISZERO PUSH2 0x3D43 JUMPI PUSH17 0x1000B175EFFDC76BA38E31671CA939725 MUL PUSH1 0x80 SHR JUMPDEST PUSH1 0x0 DUP4 PUSH7 0x8000000000000 AND PUSH1 0xF SIGNEXTEND SGT ISZERO PUSH2 0x3D6F JUMPI PUSH17 0x100058BA01FB9F96D6CACD4B180917C3D MUL PUSH1 0x80 SHR JUMPDEST PUSH1 0x0 DUP4 PUSH7 0x4000000000000 AND PUSH1 0xF SIGNEXTEND SGT ISZERO PUSH2 0x3D9B JUMPI PUSH17 0x10002C5CC37DA9491D0985C348C68E7B3 MUL PUSH1 0x80 SHR JUMPDEST PUSH1 0x0 DUP4 PUSH7 0x2000000000000 AND PUSH1 0xF SIGNEXTEND SGT ISZERO PUSH2 0x3DC7 JUMPI PUSH17 0x1000162E525EE054754457D5995292026 MUL PUSH1 0x80 SHR JUMPDEST PUSH1 0x0 DUP4 PUSH1 0x1 PUSH1 0x30 SHL AND PUSH1 0xF SIGNEXTEND SGT ISZERO PUSH2 0x3DF0 JUMPI PUSH17 0x10000B17255775C040618BF4A4ADE83FC MUL PUSH1 0x80 SHR JUMPDEST PUSH1 0x0 DUP4 PUSH6 0x800000000000 AND PUSH1 0xF SIGNEXTEND SGT ISZERO PUSH2 0x3E1B JUMPI PUSH17 0x1000058B91B5BC9AE2EED81E9B7D4CFAB MUL PUSH1 0x80 SHR JUMPDEST PUSH1 0x0 DUP4 PUSH6 0x400000000000 AND PUSH1 0xF SIGNEXTEND SGT ISZERO PUSH2 0x3E46 JUMPI PUSH17 0x100002C5C89D5EC6CA4D7C8ACC017B7C9 MUL PUSH1 0x80 SHR JUMPDEST PUSH1 0x0 DUP4 PUSH6 0x200000000000 AND PUSH1 0xF SIGNEXTEND SGT ISZERO PUSH2 0x3E71 JUMPI PUSH17 0x10000162E43F4F831060E02D839A9D16D MUL PUSH1 0x80 SHR JUMPDEST PUSH1 0x0 DUP4 PUSH6 0x100000000000 AND PUSH1 0xF SIGNEXTEND SGT ISZERO PUSH2 0x3E9C JUMPI PUSH17 0x100000B1721BCFC99D9F890EA06911763 MUL PUSH1 0x80 SHR JUMPDEST PUSH1 0x0 DUP4 PUSH6 0x80000000000 AND PUSH1 0xF SIGNEXTEND SGT ISZERO PUSH2 0x3EC7 JUMPI PUSH17 0x10000058B90CF1E6D97F9CA14DBCC1628 MUL PUSH1 0x80 SHR JUMPDEST PUSH1 0x0 DUP4 PUSH6 0x40000000000 AND PUSH1 0xF SIGNEXTEND SGT ISZERO PUSH2 0x3EF2 JUMPI PUSH17 0x1000002C5C863B73F016468F6BAC5CA2B MUL PUSH1 0x80 SHR JUMPDEST PUSH1 0x0 DUP4 PUSH6 0x20000000000 AND PUSH1 0xF SIGNEXTEND SGT ISZERO PUSH2 0x3F1D JUMPI PUSH17 0x100000162E430E5A18F6119E3C02282A5 MUL PUSH1 0x80 SHR JUMPDEST PUSH1 0x0 DUP4 PUSH1 0x1 PUSH1 0x28 SHL AND PUSH1 0xF SIGNEXTEND SGT ISZERO PUSH2 0x3F46 JUMPI PUSH17 0x1000000B1721835514B86E6D96EFD1BFE MUL PUSH1 0x80 SHR JUMPDEST PUSH1 0x0 DUP4 PUSH5 0x8000000000 AND PUSH1 0xF SIGNEXTEND SGT ISZERO PUSH2 0x3F70 JUMPI PUSH17 0x100000058B90C0B48C6BE5DF846C5B2EF MUL PUSH1 0x80 SHR JUMPDEST PUSH1 0x0 DUP4 PUSH5 0x4000000000 AND PUSH1 0xF SIGNEXTEND SGT ISZERO PUSH2 0x3F9A JUMPI PUSH17 0x10000002C5C8601CC6B9E94213C72737A MUL PUSH1 0x80 SHR JUMPDEST PUSH1 0x0 DUP4 PUSH5 0x2000000000 AND PUSH1 0xF SIGNEXTEND SGT ISZERO PUSH2 0x3FC4 JUMPI PUSH17 0x1000000162E42FFF037DF38AA2B219F06 MUL PUSH1 0x80 SHR JUMPDEST PUSH1 0x0 DUP4 PUSH5 0x1000000000 AND PUSH1 0xF SIGNEXTEND SGT ISZERO PUSH2 0x3FEE JUMPI PUSH17 0x10000000B17217FBA9C739AA5819F44F9 MUL PUSH1 0x80 SHR JUMPDEST PUSH1 0x0 DUP4 PUSH5 0x800000000 AND PUSH1 0xF SIGNEXTEND SGT ISZERO PUSH2 0x4018 JUMPI PUSH17 0x1000000058B90BFCDEE5ACD3C1CEDC823 MUL PUSH1 0x80 SHR JUMPDEST PUSH1 0x0 DUP4 PUSH5 0x400000000 AND PUSH1 0xF SIGNEXTEND SGT ISZERO PUSH2 0x4042 JUMPI PUSH17 0x100000002C5C85FE31F35A6A30DA1BE50 MUL PUSH1 0x80 SHR JUMPDEST PUSH1 0x0 DUP4 PUSH5 0x200000000 AND PUSH1 0xF SIGNEXTEND SGT ISZERO PUSH2 0x406C JUMPI PUSH17 0x10000000162E42FF0999CE3541B9FFFCF MUL PUSH1 0x80 SHR JUMPDEST PUSH1 0x0 DUP4 PUSH5 0x100000000 AND PUSH1 0xF SIGNEXTEND SGT ISZERO PUSH2 0x4096 JUMPI PUSH17 0x100000000B17217F80F4EF5AADDA45554 MUL PUSH1 0x80 SHR JUMPDEST PUSH1 0x0 DUP4 PUSH4 0x80000000 AND PUSH1 0xF SIGNEXTEND SGT ISZERO PUSH2 0x40BF JUMPI PUSH17 0x10000000058B90BFBF8479BD5A81B51AD MUL PUSH1 0x80 SHR JUMPDEST PUSH1 0x0 DUP4 PUSH4 0x40000000 AND PUSH1 0xF SIGNEXTEND SGT ISZERO PUSH2 0x40E8 JUMPI PUSH17 0x1000000002C5C85FDF84BD62AE30A74CC MUL PUSH1 0x80 SHR JUMPDEST PUSH1 0x0 DUP4 PUSH4 0x20000000 AND PUSH1 0xF SIGNEXTEND SGT ISZERO PUSH2 0x4111 JUMPI PUSH17 0x100000000162E42FEFB2FED257559BDAA MUL PUSH1 0x80 SHR JUMPDEST PUSH1 0x0 DUP4 PUSH4 0x10000000 AND PUSH1 0xF SIGNEXTEND SGT ISZERO PUSH2 0x413A JUMPI PUSH17 0x1000000000B17217F7D5A7716BBA4A9AE MUL PUSH1 0x80 SHR JUMPDEST PUSH1 0x0 DUP4 PUSH4 0x8000000 AND PUSH1 0xF SIGNEXTEND SGT ISZERO PUSH2 0x4163 JUMPI PUSH17 0x100000000058B90BFBE9DDBAC5E109CCE MUL PUSH1 0x80 SHR JUMPDEST PUSH1 0x0 DUP4 PUSH4 0x4000000 AND PUSH1 0xF SIGNEXTEND SGT ISZERO PUSH2 0x418C JUMPI PUSH17 0x10000000002C5C85FDF4B15DE6F17EB0D MUL PUSH1 0x80 SHR JUMPDEST PUSH1 0x0 DUP4 PUSH4 0x2000000 AND PUSH1 0xF SIGNEXTEND SGT ISZERO PUSH2 0x41B5 JUMPI PUSH17 0x1000000000162E42FEFA494F1478FDE05 MUL PUSH1 0x80 SHR JUMPDEST PUSH1 0x0 DUP4 PUSH4 0x1000000 AND PUSH1 0xF SIGNEXTEND SGT ISZERO PUSH2 0x41DE JUMPI PUSH17 0x10000000000B17217F7D20CF927C8E94C MUL PUSH1 0x80 SHR JUMPDEST PUSH1 0x0 DUP4 PUSH3 0x800000 AND PUSH1 0xF SIGNEXTEND SGT ISZERO PUSH2 0x4206 JUMPI PUSH17 0x1000000000058B90BFBE8F71CB4E4B33D MUL PUSH1 0x80 SHR JUMPDEST PUSH1 0x0 DUP4 PUSH3 0x400000 AND PUSH1 0xF SIGNEXTEND SGT ISZERO PUSH2 0x422E JUMPI PUSH17 0x100000000002C5C85FDF477B662B26945 MUL PUSH1 0x80 SHR JUMPDEST PUSH1 0x0 DUP4 PUSH3 0x200000 AND PUSH1 0xF SIGNEXTEND SGT ISZERO PUSH2 0x4256 JUMPI PUSH17 0x10000000000162E42FEFA3AE53369388C MUL PUSH1 0x80 SHR JUMPDEST PUSH1 0x0 DUP4 PUSH3 0x100000 AND PUSH1 0xF SIGNEXTEND SGT ISZERO PUSH2 0x427E JUMPI PUSH17 0x100000000000B17217F7D1D351A389D40 MUL PUSH1 0x80 SHR JUMPDEST PUSH1 0x0 DUP4 PUSH3 0x80000 AND PUSH1 0xF SIGNEXTEND SGT ISZERO PUSH2 0x42A6 JUMPI PUSH17 0x10000000000058B90BFBE8E8B2D3D4EDE MUL PUSH1 0x80 SHR JUMPDEST PUSH1 0x0 DUP4 PUSH3 0x40000 AND PUSH1 0xF SIGNEXTEND SGT ISZERO PUSH2 0x42CE JUMPI PUSH17 0x1000000000002C5C85FDF4741BEA6E77E MUL PUSH1 0x80 SHR JUMPDEST PUSH1 0x0 DUP4 PUSH3 0x20000 AND PUSH1 0xF SIGNEXTEND SGT ISZERO PUSH2 0x42F6 JUMPI PUSH17 0x100000000000162E42FEFA39FE95583C2 MUL PUSH1 0x80 SHR JUMPDEST PUSH1 0x0 DUP4 PUSH3 0x10000 AND PUSH1 0xF SIGNEXTEND SGT ISZERO PUSH2 0x431E JUMPI PUSH17 0x1000000000000B17217F7D1CFB72B45E1 MUL PUSH1 0x80 SHR JUMPDEST PUSH1 0x0 DUP4 PUSH2 0x8000 AND PUSH1 0xF SIGNEXTEND SGT ISZERO PUSH2 0x4345 JUMPI PUSH17 0x100000000000058B90BFBE8E7CC35C3F0 MUL PUSH1 0x80 SHR JUMPDEST PUSH1 0x0 DUP4 PUSH2 0x4000 AND PUSH1 0xF SIGNEXTEND SGT ISZERO PUSH2 0x436C JUMPI PUSH17 0x10000000000002C5C85FDF473E242EA38 MUL PUSH1 0x80 SHR JUMPDEST PUSH1 0x0 DUP4 PUSH2 0x2000 AND PUSH1 0xF SIGNEXTEND SGT ISZERO PUSH2 0x4393 JUMPI PUSH17 0x1000000000000162E42FEFA39F02B772C MUL PUSH1 0x80 SHR JUMPDEST PUSH1 0x0 DUP4 PUSH2 0x1000 AND PUSH1 0xF SIGNEXTEND SGT ISZERO PUSH2 0x43BA JUMPI PUSH17 0x10000000000000B17217F7D1CF7D83C1A MUL PUSH1 0x80 SHR JUMPDEST PUSH1 0x0 DUP4 PUSH2 0x800 AND PUSH1 0xF SIGNEXTEND SGT ISZERO PUSH2 0x43E1 JUMPI PUSH17 0x1000000000000058B90BFBE8E7BDCBE2E MUL PUSH1 0x80 SHR JUMPDEST PUSH1 0x0 DUP4 PUSH2 0x400 AND PUSH1 0xF SIGNEXTEND SGT ISZERO PUSH2 0x4408 JUMPI PUSH17 0x100000000000002C5C85FDF473DEA871F MUL PUSH1 0x80 SHR JUMPDEST PUSH1 0x0 DUP4 PUSH2 0x200 AND PUSH1 0xF SIGNEXTEND SGT ISZERO PUSH2 0x442F JUMPI PUSH17 0x10000000000000162E42FEFA39EF44D91 MUL PUSH1 0x80 SHR JUMPDEST PUSH1 0x0 DUP4 PUSH2 0x100 AND PUSH1 0xF SIGNEXTEND SGT ISZERO PUSH2 0x4456 JUMPI PUSH17 0x100000000000000B17217F7D1CF79E949 MUL PUSH1 0x80 SHR JUMPDEST PUSH1 0x0 DUP4 PUSH1 0x80 AND PUSH1 0xF SIGNEXTEND SGT ISZERO PUSH2 0x447C JUMPI PUSH17 0x10000000000000058B90BFBE8E7BCE544 MUL PUSH1 0x80 SHR JUMPDEST PUSH1 0x0 DUP4 PUSH1 0x40 AND PUSH1 0xF SIGNEXTEND SGT ISZERO PUSH2 0x44A2 JUMPI PUSH17 0x1000000000000002C5C85FDF473DE6ECA MUL PUSH1 0x80 SHR JUMPDEST PUSH1 0x0 DUP4 PUSH1 0x20 AND PUSH1 0xF SIGNEXTEND SGT ISZERO PUSH2 0x44C8 JUMPI PUSH17 0x100000000000000162E42FEFA39EF366F MUL PUSH1 0x80 SHR JUMPDEST PUSH1 0x0 DUP4 PUSH1 0x10 AND PUSH1 0xF SIGNEXTEND SGT ISZERO PUSH2 0x44EE JUMPI PUSH17 0x1000000000000000B17217F7D1CF79AFA MUL PUSH1 0x80 SHR JUMPDEST PUSH1 0x0 DUP4 PUSH1 0x8 AND PUSH1 0xF SIGNEXTEND SGT ISZERO PUSH2 0x4514 JUMPI PUSH17 0x100000000000000058B90BFBE8E7BCD6D MUL PUSH1 0x80 SHR JUMPDEST PUSH1 0x0 DUP4 PUSH1 0x4 AND PUSH1 0xF SIGNEXTEND SGT ISZERO PUSH2 0x453A JUMPI PUSH17 0x10000000000000002C5C85FDF473DE6B2 MUL PUSH1 0x80 SHR JUMPDEST PUSH1 0x0 DUP4 PUSH1 0x2 AND PUSH1 0xF SIGNEXTEND SGT ISZERO PUSH2 0x4560 JUMPI PUSH17 0x1000000000000000162E42FEFA39EF358 MUL PUSH1 0x80 SHR JUMPDEST PUSH1 0x0 DUP4 PUSH1 0x1 AND PUSH1 0xF SIGNEXTEND SGT ISZERO PUSH2 0x4586 JUMPI PUSH17 0x10000000000000000B17217F7D1CF79AB MUL PUSH1 0x80 SHR JUMPDEST PUSH1 0xF DUP4 DUP2 SIGNEXTEND PUSH1 0x40 SAR PUSH1 0x3F SUB SWAP1 SIGNEXTEND SHR PUSH1 0x1 PUSH1 0x1 PUSH1 0x7F SHL SUB DUP2 GT ISZERO PUSH2 0x4EF JUMPI PUSH1 0x0 DUP1 REVERT JUMPDEST PUSH1 0x0 PUSH2 0x45B2 PUSH2 0x3121 JUMP JUMPDEST PUSH1 0x0 DUP7 DUP2 MSTORE PUSH1 0x20 DUP3 DUP2 MSTORE PUSH1 0x40 DUP1 DUP4 KECCAK256 DUP9 DUP5 MSTORE DUP3 MSTORE DUP1 DUP4 KECCAK256 DUP7 DUP5 MSTORE DUP3 MSTORE SWAP2 DUP3 SWAP1 KECCAK256 DUP1 DUP11 MSTORE SWAP1 DUP10 ADD DUP8 SWAP1 MSTORE DUP1 SLOAD PUSH1 0x1 PUSH1 0x1 PUSH1 0x50 SHL SUB DUP1 DUP3 AND SWAP4 DUP12 ADD SWAP4 SWAP1 SWAP4 MSTORE PUSH1 0x1 PUSH1 0x50 SHL DUP2 DIV SWAP1 SWAP3 AND PUSH1 0x60 DUP11 ADD MSTORE PUSH4 0xFFFFFFFF PUSH1 0x1 PUSH1 0xA0 SHL DUP4 DIV DUP2 AND PUSH1 0xA0 DUP12 ADD MSTORE PUSH1 0x1 PUSH1 0xC0 SHL DUP4 DIV DUP2 AND PUSH1 0xC0 DUP12 ADD MSTORE PUSH1 0x1 PUSH1 0xE0 SHL SWAP1 SWAP3 DIV SWAP1 SWAP2 AND PUSH1 0xE0 DUP10 ADD MSTORE SWAP1 SWAP2 POP DUP1 DUP5 ISZERO PUSH2 0x4651 JUMPI PUSH1 0x1 DUP3 ADD SLOAD PUSH1 0x1 PUSH1 0x1 PUSH1 0x50 SHL SUB AND PUSH1 0x80 DUP10 ADD MSTORE PUSH2 0x3AA7 JUMP JUMPDEST PUSH1 0x0 PUSH1 0x80 DUP10 ADD MSTORE POP POP POP POP POP POP POP POP JUMP JUMPDEST PUSH2 0x466A PUSH2 0x4D6C JUMP JUMPDEST PUSH1 0x0 PUSH2 0x4674 PUSH2 0x2B65 JUMP JUMPDEST PUSH2 0xFFFF DUP5 AND PUSH1 0x0 SWAP1 DUP2 MSTORE PUSH1 0x20 SWAP2 SWAP1 SWAP2 MSTORE PUSH1 0x40 DUP2 KECCAK256 SLOAD SWAP2 POP PUSH2 0x5B8 SWAP1 DUP3 PUSH2 0x3844 JUMP JUMPDEST PUSH1 0x0 PUSH2 0x5B8 PUSH2 0x46A4 DUP5 DUP5 PUSH2 0x1890 JUMP JUMPDEST PUSH4 0x3B9ACA00 PUSH2 0x1FE8 JUMP JUMPDEST PUSH1 0x0 PUSH1 0x2 DUP3 LT DUP1 ISZERO SWAP1 PUSH2 0x4EF JUMPI POP POP PUSH1 0x8 LT ISZERO SWAP1 JUMP JUMPDEST PUSH1 0x0 DUP1 PUSH2 0x4EF PUSH1 0xC PUSH2 0x2C7F JUMP JUMPDEST PUSH1 0x0 DUP1 PUSH2 0x4EF PUSH1 0xB PUSH2 0x2C7F JUMP JUMPDEST PUSH1 0x0 PUSH3 0x15180 DUP3 LT ISZERO PUSH2 0x46F0 JUMPI PUSH1 0x0 DUP1 REVERT JUMPDEST PUSH3 0x15180 DUP3 PUSH2 0x1A8D JUMP JUMPDEST PUSH1 0x0 DUP2 PUSH2 0x4706 JUMPI PUSH1 0x0 DUP1 REVERT JUMPDEST PUSH1 0x1 PUSH1 0x80 SHL DUP3 LT PUSH2 0x4719 JUMPI PUSH1 0x80 SWAP2 DUP3 SHR SWAP2 ADD JUMPDEST PUSH1 0x1 PUSH1 0x40 SHL DUP3 LT PUSH2 0x472C JUMPI PUSH1 0x40 SWAP2 DUP3 SHR SWAP2 ADD JUMPDEST PUSH5 0x100000000 DUP3 LT PUSH2 0x4740 JUMPI PUSH1 0x20 SWAP2 DUP3 SHR SWAP2 ADD JUMPDEST PUSH3 0x10000 DUP3 LT PUSH2 0x4752 JUMPI PUSH1 0x10 SWAP2 DUP3 SHR SWAP2 ADD JUMPDEST PUSH2 0x100 DUP3 LT PUSH2 0x4763 JUMPI PUSH1 0x8 SWAP2 DUP3 SHR SWAP2 ADD JUMPDEST PUSH1 0x10 DUP3 LT PUSH2 0x4773 JUMPI PUSH1 0x4 SWAP2 DUP3 SHR SWAP2 ADD JUMPDEST PUSH1 0x4 DUP3 LT PUSH2 0x4783 JUMPI PUSH1 0x2 SWAP2 DUP3 SHR SWAP2 ADD JUMPDEST PUSH1 0x2 DUP3 LT PUSH2 0x370 JUMPI PUSH1 0x1 ADD SWAP2 SWAP1 POP JUMP JUMPDEST PUSH1 0x60 DUP1 PUSH2 0x47A0 DUP5 DUP5 PUSH2 0x4873 JUMP JUMPDEST SWAP2 POP PUSH2 0x34D8 DUP3 PUSH2 0x498B JUMP JUMPDEST PUSH1 0x0 DUP2 PUSH1 0xFF AND PUSH1 0x96 LT PUSH2 0x47C6 JUMPI PUSH1 0xFF DUP3 AND PUSH3 0x2625A0 MUL PUSH2 0x4EF JUMP JUMPDEST POP PUSH1 0x95 NOT PUSH1 0xFF SWAP2 SWAP1 SWAP2 AND ADD PUSH3 0xE4E1C0 MUL PUSH4 0x165A0BC0 ADD SWAP1 JUMP JUMPDEST PUSH1 0x0 DUP2 SLT ISZERO PUSH2 0x47ED JUMPI PUSH1 0x0 DUP1 REVERT JUMPDEST PUSH1 0x0 PUSH2 0x47F7 PUSH2 0x37F1 JUMP JUMPDEST PUSH1 0x1 PUSH1 0x1 PUSH1 0xA0 SHL SUB DUP6 AND PUSH1 0x0 SWAP1 DUP2 MSTORE PUSH1 0x20 DUP3 DUP2 MSTORE PUSH1 0x40 DUP1 DUP4 KECCAK256 PUSH2 0xFFFF DUP9 AND DUP5 MSTORE SWAP1 SWAP2 MSTORE SWAP1 KECCAK256 SWAP1 SWAP2 POP PUSH2 0x4828 DUP4 PUSH2 0x132B JUMP JUMPDEST DUP2 SLOAD PUSH1 0xA SWAP2 SWAP1 SWAP2 SIGNEXTEND PUSH1 0x1 PUSH1 0x1 PUSH1 0x58 SHL SUB AND PUSH1 0x1 PUSH1 0xA8 SHL MUL PUSH1 0x1 PUSH1 0x1 PUSH1 0xA8 SHL SUB SWAP1 SWAP2 AND OR SWAP1 SSTORE POP POP POP POP JUMP JUMPDEST PUSH1 0x0 DUP1 PUSH2 0x4EF PUSH1 0x21 PUSH2 0x2C7F JUMP JUMPDEST PUSH1 0x60 SWAP1 SWAP2 ADD MLOAD PUSH1 0xFF SWAP2 SHR AND PUSH3 0x2625A0 MUL SWAP1 JUMP JUMPDEST PUSH1 0x60 PUSH1 0x8 DUP3 PUSH1 0xFF AND GT ISZERO PUSH2 0x4886 JUMPI PUSH1 0x0 DUP1 REVERT JUMPDEST PUSH1 0x0 PUSH2 0x4890 PUSH2 0x4B4C JUMP JUMPDEST PUSH1 0x1 PUSH1 0x1 PUSH1 0xA0 SHL SUB DUP6 AND PUSH1 0x0 SWAP1 DUP2 MSTORE PUSH1 0x20 DUP3 SWAP1 MSTORE PUSH1 0x40 DUP2 KECCAK256 SWAP2 SWAP3 POP PUSH1 0xFF DUP6 AND PUSH8 0xFFFFFFFFFFFFFFFF DUP2 GT DUP1 ISZERO PUSH2 0x48C5 JUMPI PUSH1 0x0 DUP1 REVERT JUMPDEST POP PUSH1 0x40 MLOAD SWAP1 DUP1 DUP3 MSTORE DUP1 PUSH1 0x20 MUL PUSH1 0x20 ADD DUP3 ADD PUSH1 0x40 MSTORE DUP1 ISZERO PUSH2 0x48FF JUMPI DUP2 PUSH1 0x20 ADD JUMPDEST PUSH2 0x48EC PUSH2 0x4DD9 JUMP JUMPDEST DUP2 MSTORE PUSH1 0x20 ADD SWAP1 PUSH1 0x1 SWAP1 SUB SWAP1 DUP2 PUSH2 0x48E4 JUMPI SWAP1 POP JUMPDEST POP SWAP1 POP PUSH1 0x0 JUMPDEST DUP6 PUSH1 0xFF AND DUP2 LT ISZERO PUSH2 0x737 JUMPI PUSH1 0x0 DUP4 DUP3 PUSH1 0x8 DUP2 LT PUSH2 0x491E JUMPI INVALID JUMPDEST ADD SWAP1 POP PUSH1 0x0 DUP4 DUP4 DUP2 MLOAD DUP2 LT PUSH2 0x492F JUMPI INVALID JUMPDEST PUSH1 0x20 SWAP1 DUP2 MUL SWAP2 SWAP1 SWAP2 ADD DUP2 ADD MLOAD DUP4 SLOAD PUSH2 0xFFFF DUP2 AND DUP3 MSTORE PUSH5 0xFFFFFFFFFF PUSH3 0x10000 DUP3 DIV AND SWAP3 DUP3 ADD SWAP3 SWAP1 SWAP3 MSTORE PUSH1 0xFF PUSH1 0x1 PUSH1 0x38 SHL DUP4 DIV AND PUSH1 0x40 DUP3 ADD MSTORE PUSH1 0x1 PUSH1 0x40 SHL SWAP1 SWAP2 DIV PUSH1 0xA SWAP1 DUP2 SIGNEXTEND SWAP1 SIGNEXTEND PUSH1 0x60 DUP3 ADD MSTORE PUSH1 0x80 ADD SWAP2 SWAP1 SWAP2 MSTORE POP PUSH1 0x1 ADD PUSH2 0x4905 JUMP JUMPDEST DUP1 MLOAD PUSH1 0x60 SWAP1 DUP1 PUSH8 0xFFFFFFFFFFFFFFFF DUP2 GT DUP1 ISZERO PUSH2 0x49A7 JUMPI PUSH1 0x0 DUP1 REVERT JUMPDEST POP PUSH1 0x40 MLOAD SWAP1 DUP1 DUP3 MSTORE DUP1 PUSH1 0x20 MUL PUSH1 0x20 ADD DUP3 ADD PUSH1 0x40 MSTORE DUP1 ISZERO PUSH2 0x49D1 JUMPI DUP2 PUSH1 0x20 ADD PUSH1 0x20 DUP3 MUL DUP1 CALLDATASIZE DUP4 CALLDATACOPY ADD SWAP1 POP JUMPDEST POP SWAP2 POP PUSH1 0x0 JUMPDEST DUP2 DUP2 LT ISZERO PUSH2 0x4A2E JUMPI PUSH1 0x0 DUP5 DUP3 DUP2 MLOAD DUP2 LT PUSH2 0x49ED JUMPI INVALID JUMPDEST PUSH1 0x20 MUL PUSH1 0x20 ADD ADD MLOAD SWAP1 POP PUSH2 0x4A0E DUP2 PUSH1 0x0 ADD MLOAD DUP3 PUSH1 0x20 ADD MLOAD DUP4 PUSH1 0x40 ADD MLOAD PUSH2 0x4B59 JUMP JUMPDEST DUP5 DUP4 DUP2 MLOAD DUP2 LT PUSH2 0x4A1A JUMPI INVALID JUMPDEST PUSH1 0x20 SWAP1 DUP2 MUL SWAP2 SWAP1 SWAP2 ADD ADD MSTORE POP PUSH1 0x1 ADD PUSH2 0x49D7 JUMP JUMPDEST POP PUSH1 0x1 JUMPDEST DUP2 DUP2 LT ISZERO PUSH2 0x4B45 JUMPI DUP1 JUMPDEST PUSH1 0x0 DUP2 GT DUP1 ISZERO PUSH2 0x4A74 JUMPI POP DUP4 DUP2 DUP2 MLOAD DUP2 LT PUSH2 0x4A53 JUMPI INVALID JUMPDEST PUSH1 0x20 MUL PUSH1 0x20 ADD ADD MLOAD DUP5 PUSH1 0x1 DUP4 SUB DUP2 MLOAD DUP2 LT PUSH2 0x4A6A JUMPI INVALID JUMPDEST PUSH1 0x20 MUL PUSH1 0x20 ADD ADD MLOAD GT JUMPDEST ISZERO PUSH2 0x4B3C JUMPI DUP4 DUP2 DUP2 MLOAD DUP2 LT PUSH2 0x4A85 JUMPI INVALID JUMPDEST PUSH1 0x20 MUL PUSH1 0x20 ADD ADD MLOAD DUP5 PUSH1 0x1 DUP4 SUB DUP2 MLOAD DUP2 LT PUSH2 0x4A9C JUMPI INVALID JUMPDEST PUSH1 0x20 MUL PUSH1 0x20 ADD ADD MLOAD DUP6 PUSH1 0x1 DUP5 SUB DUP2 MLOAD DUP2 LT PUSH2 0x4AB3 JUMPI INVALID JUMPDEST PUSH1 0x20 MUL PUSH1 0x20 ADD ADD DUP7 DUP5 DUP2 MLOAD DUP2 LT PUSH2 0x4AC6 JUMPI INVALID JUMPDEST PUSH1 0x20 MUL PUSH1 0x20 ADD ADD DUP3 DUP2 MSTORE POP DUP3 DUP2 MSTORE POP POP POP DUP5 DUP2 DUP2 MLOAD DUP2 LT PUSH2 0x4AE3 JUMPI INVALID JUMPDEST PUSH1 0x20 MUL PUSH1 0x20 ADD ADD MLOAD DUP6 PUSH1 0x1 DUP4 SUB DUP2 MLOAD DUP2 LT PUSH2 0x4AFA JUMPI INVALID JUMPDEST PUSH1 0x20 MUL PUSH1 0x20 ADD ADD MLOAD DUP7 PUSH1 0x1 DUP5 SUB DUP2 MLOAD DUP2 LT PUSH2 0x4B11 JUMPI INVALID JUMPDEST PUSH1 0x20 MUL PUSH1 0x20 ADD ADD DUP8 DUP5 DUP2 MLOAD DUP2 LT PUSH2 0x4B24 JUMPI INVALID JUMPDEST PUSH1 0x20 SWAP1 DUP2 MUL SWAP2 SWAP1 SWAP2 ADD ADD SWAP2 SWAP1 SWAP2 MSTORE MSTORE PUSH1 0x0 NOT ADD PUSH2 0x4A3C JUMP JUMPDEST POP PUSH1 0x1 ADD PUSH2 0x4A32 JUMP JUMPDEST POP POP SWAP2 SWAP1 POP JUMP JUMPDEST PUSH1 0x0 DUP1 PUSH2 0x4EF PUSH1 0xD PUSH2 0x2C7F JUMP JUMPDEST PUSH8 0xFFFF000000000000 PUSH1 0x30 DUP5 SWAP1 SHL AND PUSH6 0xFFFFFFFFFF00 PUSH1 0x8 DUP5 SWAP1 SHL AND OR PUSH1 0xFF DUP3 AND OR SWAP4 SWAP3 POP POP POP JUMP JUMPDEST PUSH1 0x40 MLOAD DUP1 PUSH1 0xE0 ADD PUSH1 0x40 MSTORE DUP1 PUSH2 0x4B95 PUSH2 0x4D0B JUMP JUMPDEST DUP2 MSTORE PUSH1 0x20 ADD PUSH2 0x4BA2 PUSH2 0x4DB1 JUMP JUMPDEST DUP2 MSTORE PUSH1 0x0 PUSH1 0x20 DUP3 ADD DUP2 SWAP1 MSTORE PUSH1 0x40 DUP3 ADD DUP2 SWAP1 MSTORE PUSH1 0x60 DUP3 ADD DUP2 SWAP1 MSTORE PUSH1 0x80 DUP3 ADD DUP2 SWAP1 MSTORE PUSH1 0xA0 SWAP1 SWAP2 ADD MSTORE SWAP1 JUMP JUMPDEST PUSH1 0x40 MLOAD DUP1 PUSH2 0x140 ADD PUSH1 0x40 MSTORE DUP1 PUSH1 0x0 PUSH2 0xFFFF AND DUP2 MSTORE PUSH1 0x20 ADD PUSH1 0x0 DUP2 MSTORE PUSH1 0x20 ADD PUSH1 0x0 DUP2 MSTORE PUSH1 0x20 ADD PUSH1 0x0 DUP2 MSTORE PUSH1 0x20 ADD PUSH1 0x0 DUP2 MSTORE PUSH1 0x20 ADD PUSH1 0x0 DUP2 MSTORE PUSH1 0x20 ADD PUSH1 0x0 DUP2 MSTORE PUSH1 0x20 ADD PUSH1 0x0 DUP2 MSTORE PUSH1 0x20 ADD PUSH1 0x0 DUP2 MSTORE PUSH1 0x20 ADD PUSH2 0x4C22 PUSH2 0x4C27 JUMP JUMPDEST SWAP1 MSTORE SWAP1 JUMP JUMPDEST PUSH1 0x40 MLOAD DUP1 PUSH1 0x60 ADD PUSH1 0x40 MSTORE DUP1 PUSH1 0x0 DUP2 MSTORE PUSH1 0x20 ADD PUSH1 0x0 DUP2 MSTORE PUSH1 0x20 ADD PUSH1 0x0 DUP2 MSTORE POP SWAP1 JUMP JUMPDEST PUSH1 0x40 MLOAD DUP1 PUSH2 0x120 ADD PUSH1 0x40 MSTORE DUP1 PUSH1 0x0 DUP2 MSTORE PUSH1 0x20 ADD PUSH1 0x0 DUP2 MSTORE PUSH1 0x20 ADD PUSH1 0x0 DUP2 MSTORE PUSH1 0x20 ADD PUSH1 0x0 DUP2 MSTORE PUSH1 0x20 ADD PUSH1 0x0 DUP2 MSTORE PUSH1 0x20 ADD PUSH1 0x0 DUP2 MSTORE PUSH1 0x20 ADD PUSH1 0x0 DUP2 MSTORE PUSH1 0x20 ADD PUSH1 0x0 DUP2 MSTORE PUSH1 0x20 ADD PUSH1 0x0 DUP2 MSTORE POP SWAP1 JUMP JUMPDEST PUSH1 0x40 MLOAD DUP1 PUSH2 0x100 ADD PUSH1 0x40 MSTORE DUP1 PUSH1 0x0 DUP1 NOT AND DUP2 MSTORE PUSH1 0x20 ADD PUSH1 0x0 DUP2 MSTORE PUSH1 0x20 ADD PUSH1 0x0 DUP2 MSTORE PUSH1 0x20 ADD PUSH1 0x0 DUP2 MSTORE PUSH1 0x20 ADD PUSH1 0x0 DUP2 MSTORE PUSH1 0x20 ADD PUSH1 0x0 DUP2 MSTORE PUSH1 0x20 ADD PUSH1 0x0 DUP2 MSTORE PUSH1 0x20 ADD PUSH1 0x0 DUP2 MSTORE POP SWAP1 JUMP JUMPDEST PUSH1 0x40 DUP1 MLOAD PUSH1 0xA0 DUP2 ADD DUP3 MSTORE PUSH1 0x0 DUP1 DUP3 MSTORE PUSH1 0x20 DUP3 ADD DUP2 SWAP1 MSTORE SWAP2 DUP2 ADD DUP3 SWAP1 MSTORE SWAP1 PUSH1 0x60 DUP3 ADD SWAP1 DUP2 MSTORE PUSH1 0x20 ADD PUSH1 0x0 DUP2 MSTORE POP SWAP1 JUMP JUMPDEST PUSH1 0x40 DUP1 MLOAD PUSH1 0x80 DUP2 ADD DUP3 MSTORE PUSH1 0x0 DUP1 DUP3 MSTORE PUSH1 0x20 DUP3 ADD MSTORE SWAP1 DUP2 ADD PUSH2 0x4D2A PUSH2 0x4C27 JUMP JUMPDEST DUP2 MSTORE PUSH1 0x0 PUSH1 0x20 SWAP1 SWAP2 ADD MSTORE SWAP1 JUMP JUMPDEST PUSH1 0x40 DUP1 MLOAD PUSH1 0xC0 DUP2 ADD DUP3 MSTORE PUSH1 0x0 DUP1 DUP3 MSTORE PUSH1 0x20 DUP3 ADD DUP2 SWAP1 MSTORE SWAP2 DUP2 ADD DUP3 SWAP1 MSTORE PUSH1 0x60 DUP2 ADD DUP3 SWAP1 MSTORE PUSH1 0x80 DUP2 ADD DUP3 SWAP1 MSTORE PUSH1 0xA0 DUP2 ADD SWAP2 SWAP1 SWAP2 MSTORE SWAP1 JUMP JUMPDEST PUSH1 0x40 MLOAD DUP1 PUSH2 0x100 ADD PUSH1 0x40 MSTORE DUP1 PUSH1 0x0 DUP2 MSTORE PUSH1 0x20 ADD PUSH1 0x0 DUP2 MSTORE PUSH1 0x20 ADD PUSH1 0x0 DUP2 MSTORE PUSH1 0x20 ADD PUSH1 0x0 DUP2 MSTORE PUSH1 0x20 ADD PUSH1 0x0 DUP2 MSTORE PUSH1 0x20 ADD PUSH1 0x0 DUP2 MSTORE PUSH1 0x20 ADD PUSH1 0x0 DUP2 MSTORE PUSH1 0x20 ADD PUSH1 0x0 DUP2 MSTORE POP SWAP1 JUMP JUMPDEST PUSH1 0x40 MLOAD DUP1 PUSH1 0x80 ADD PUSH1 0x40 MSTORE DUP1 PUSH1 0x60 DUP2 MSTORE PUSH1 0x20 ADD PUSH1 0x60 DUP2 MSTORE PUSH1 0x20 ADD PUSH1 0x0 DUP2 MSTORE PUSH1 0x20 ADD PUSH1 0x0 DUP2 MSTORE POP SWAP1 JUMP JUMPDEST PUSH1 0x40 MLOAD DUP1 PUSH1 0xC0 ADD PUSH1 0x40 MSTORE DUP1 PUSH1 0x0 PUSH2 0xFFFF AND DUP2 MSTORE PUSH1 0x20 ADD PUSH1 0x0 DUP2 MSTORE PUSH1 0x20 ADD PUSH1 0x0 DUP2 MSTORE PUSH1 0x20 ADD PUSH1 0x0 DUP2 MSTORE PUSH1 0x20 ADD PUSH1 0x0 DUP2 MSTORE PUSH1 0x20 ADD PUSH1 0x0 PUSH1 0x3 DUP2 GT ISZERO PUSH2 0x4C22 JUMPI INVALID JUMPDEST DUP1 CALLDATALOAD DUP1 ISZERO ISZERO DUP2 EQ PUSH2 0x370 JUMPI PUSH1 0x0 DUP1 REVERT JUMPDEST DUP1 CALLDATALOAD PUSH2 0xFFFF DUP2 AND DUP2 EQ PUSH2 0x370 JUMPI PUSH1 0x0 DUP1 REVERT JUMPDEST DUP1 CALLDATALOAD PUSH4 0xFFFFFFFF DUP2 AND DUP2 EQ PUSH2 0x370 JUMPI PUSH1 0x0 DUP1 REVERT JUMPDEST PUSH1 0x0 DUP1 PUSH1 0x40 DUP4 DUP6 SUB SLT ISZERO PUSH2 0x4E60 JUMPI DUP2 DUP3 REVERT JUMPDEST DUP3 CALLDATALOAD PUSH1 0x1 PUSH1 0x1 PUSH1 0xA0 SHL SUB DUP2 AND DUP2 EQ PUSH2 0x4E76 JUMPI DUP3 DUP4 REVERT JUMPDEST SWAP5 PUSH1 0x20 SWAP4 SWAP1 SWAP4 ADD CALLDATALOAD SWAP4 POP POP POP JUMP JUMPDEST PUSH1 0x0 PUSH1 0x20 DUP3 DUP5 SUB SLT ISZERO PUSH2 0x4E95 JUMPI DUP1 DUP2 REVERT JUMPDEST PUSH2 0x5B8 DUP3 PUSH2 0x4E28 JUMP JUMPDEST PUSH1 0x0 DUP1 PUSH1 0x40 DUP4 DUP6 SUB SLT ISZERO PUSH2 0x4EB0 JUMPI DUP2 DUP3 REVERT JUMPDEST PUSH2 0x4E76 DUP4 PUSH2 0x4E28 JUMP JUMPDEST PUSH1 0x0 DUP1 PUSH1 0x0 PUSH1 0x60 DUP5 DUP7 SUB SLT ISZERO PUSH2 0x4ECD JUMPI DUP1 DUP2 REVERT JUMPDEST PUSH2 0x4ED6 DUP5 PUSH2 0x4E28 JUMP JUMPDEST SWAP3 POP PUSH1 0x20 DUP5 ADD CALLDATALOAD SWAP2 POP PUSH2 0x4EEB PUSH1 0x40 DUP6 ADD PUSH2 0x4E18 JUMP JUMPDEST SWAP1 POP SWAP3 POP SWAP3 POP SWAP3 JUMP JUMPDEST PUSH1 0x0 DUP1 PUSH1 0x0 DUP1 PUSH1 0x80 DUP6 DUP8 SUB SLT ISZERO PUSH2 0x4F09 JUMPI DUP1 DUP2 REVERT JUMPDEST PUSH2 0x4F12 DUP6 PUSH2 0x4E28 JUMP JUMPDEST SWAP4 POP PUSH1 0x20 DUP6 ADD CALLDATALOAD DUP1 PUSH1 0xA SIGNEXTEND DUP2 EQ PUSH2 0x4F27 JUMPI DUP2 DUP3 REVERT JUMPDEST SWAP4 SWAP7 SWAP4 SWAP6 POP POP POP POP PUSH1 0x40 DUP3 ADD CALLDATALOAD SWAP2 PUSH1 0x60 ADD CALLDATALOAD SWAP1 JUMP JUMPDEST PUSH1 0x0 DUP1 PUSH1 0x0 DUP1 PUSH1 0x80 DUP6 DUP8 SUB SLT ISZERO PUSH2 0x4F51 JUMPI DUP4 DUP5 REVERT JUMPDEST PUSH2 0x4F5A DUP6 PUSH2 0x4E28 JUMP JUMPDEST SWAP7 PUSH1 0x20 DUP7 ADD CALLDATALOAD SWAP7 POP PUSH1 0x40 DUP7 ADD CALLDATALOAD SWAP6 PUSH1 0x60 ADD CALLDATALOAD SWAP5 POP SWAP3 POP POP POP JUMP JUMPDEST PUSH1 0x0 DUP1 PUSH1 0x0 DUP1 PUSH1 0x0 PUSH1 0xA0 DUP7 DUP9 SUB SLT ISZERO PUSH2 0x4F8B JUMPI DUP1 DUP2 REVERT JUMPDEST PUSH2 0x4F94 DUP7 PUSH2 0x4E28 JUMP JUMPDEST SWAP5 POP PUSH1 0x20 DUP7 ADD CALLDATALOAD SWAP4 POP PUSH1 0x40 DUP7 ADD CALLDATALOAD SWAP3 POP PUSH1 0x60 DUP7 ADD CALLDATALOAD SWAP2 POP PUSH2 0x4FB7 PUSH1 0x80 DUP8 ADD PUSH2 0x4E18 JUMP JUMPDEST SWAP1 POP SWAP3 SWAP6 POP SWAP3 SWAP6 SWAP1 SWAP4 POP JUMP JUMPDEST PUSH1 0x0 DUP1 PUSH1 0x0 DUP1 PUSH1 0x0 PUSH1 0xA0 DUP7 DUP9 SUB SLT ISZERO PUSH2 0x4FDA JUMPI DUP1 DUP2 REVERT JUMPDEST PUSH2 0x4FE3 DUP7 PUSH2 0x4E28 JUMP JUMPDEST SWAP5 POP PUSH1 0x20 DUP7 ADD CALLDATALOAD SWAP4 POP PUSH1 0x40 DUP7 ADD CALLDATALOAD SWAP3 POP PUSH2 0x4FFF PUSH1 0x60 DUP8 ADD PUSH2 0x4E3A JUMP JUMPDEST SWAP5 SWAP8 SWAP4 SWAP7 POP SWAP2 SWAP5 PUSH1 0x80 ADD CALLDATALOAD SWAP3 SWAP2 POP POP JUMP JUMPDEST PUSH1 0x0 DUP1 PUSH1 0x0 DUP1 PUSH1 0x0 DUP1 PUSH1 0xC0 DUP8 DUP10 SUB SLT ISZERO PUSH2 0x5028 JUMPI DUP1 DUP2 REVERT JUMPDEST PUSH2 0x5031 DUP8 PUSH2 0x4E28 JUMP JUMPDEST SWAP6 POP PUSH1 0x20 DUP8 ADD CALLDATALOAD SWAP5 POP PUSH1 0x40 DUP8 ADD CALLDATALOAD SWAP4 POP PUSH2 0x504D PUSH1 0x60 DUP9 ADD PUSH2 0x4E3A JUMP JUMPDEST SWAP3 POP PUSH1 0x80 DUP8 ADD CALLDATALOAD SWAP2 POP PUSH2 0x5062 PUSH1 0xA0 DUP9 ADD PUSH2 0x4E18 JUMP JUMPDEST SWAP1 POP SWAP3 SWAP6 POP SWAP3 SWAP6 POP SWAP3 SWAP6 JUMP JUMPDEST PUSH1 0x0 DUP1 PUSH1 0x40 DUP4 DUP6 SUB SLT ISZERO PUSH2 0x5080 JUMPI DUP2 DUP3 REVERT JUMPDEST PUSH2 0x5089 DUP4 PUSH2 0x4E28 JUMP JUMPDEST SWAP2 POP PUSH1 0x20 DUP4 ADD CALLDATALOAD PUSH1 0x1 PUSH1 0x1 PUSH1 0x58 SHL SUB DUP2 AND DUP2 EQ PUSH2 0x50A4 JUMPI DUP2 DUP3 REVERT JUMPDEST DUP1 SWAP2 POP POP SWAP3 POP SWAP3 SWAP1 POP JUMP JUMPDEST PUSH1 0x0 PUSH1 0x20 DUP3 DUP5 SUB SLT ISZERO PUSH2 0x50C0 JUMPI DUP1 DUP2 REVERT JUMPDEST POP MLOAD SWAP2 SWAP1 POP JUMP JUMPDEST PUSH1 0x0 DUP1 PUSH1 0x40 DUP4 DUP6 SUB SLT ISZERO PUSH2 0x50D9 JUMPI DUP2 DUP3 REVERT JUMPDEST POP POP DUP1 CALLDATALOAD SWAP3 PUSH1 0x20 SWAP1 SWAP2 ADD CALLDATALOAD SWAP2 POP JUMP JUMPDEST PUSH1 0x0 DUP1 PUSH1 0x40 DUP4 DUP6 SUB SLT ISZERO PUSH2 0x50FA JUMPI DUP2 DUP3 REVERT JUMPDEST POP POP DUP1 MLOAD PUSH1 0x20 SWAP1 SWAP2 ADD MLOAD SWAP1 SWAP3 SWAP1 SWAP2 POP JUMP JUMPDEST PUSH1 0x1 PUSH1 0x1 PUSH1 0xA0 SHL SUB SWAP2 SWAP1 SWAP2 AND DUP2 MSTORE PUSH1 0x20 ADD SWAP1 JUMP JUMPDEST PUSH1 0x1 PUSH1 0x1 PUSH1 0xA0 SHL SUB SWAP3 SWAP1 SWAP3 AND DUP3 MSTORE PUSH1 0x20 DUP3 ADD MSTORE PUSH1 0x40 ADD SWAP1 JUMP JUMPDEST PUSH1 0x1 PUSH1 0x1 PUSH1 0xA0 SHL SUB SWAP5 SWAP1 SWAP5 AND DUP5 MSTORE PUSH1 0x20 DUP5 ADD SWAP3 SWAP1 SWAP3 MSTORE PUSH1 0x40 DUP4 ADD MSTORE PUSH1 0x60 DUP3 ADD MSTORE PUSH1 0x80 ADD SWAP1 JUMP JUMPDEST SWAP1 DUP2 MSTORE PUSH1 0x20 ADD SWAP1 JUMP JUMPDEST SWAP2 DUP3 MSTORE PUSH1 0x20 DUP3 ADD MSTORE PUSH1 0x40 ADD SWAP1 JUMP JUMPDEST PUSH1 0x20 DUP1 DUP3 MSTORE PUSH1 0x16 SWAP1 DUP3 ADD MSTORE PUSH22 0x13585C9AD95D081B9BDD081A5B9A5D1A585B1A5E9959 PUSH1 0x52 SHL PUSH1 0x40 DUP3 ADD MSTORE PUSH1 0x60 ADD SWAP1 JUMP JUMPDEST PUSH1 0x20 DUP1 DUP3 MSTORE PUSH1 0x13 SWAP1 DUP3 ADD MSTORE PUSH19 0x14995C5D5A5C995CC81CD95D1D1B195B595B9D PUSH1 0x6A SHL PUSH1 0x40 DUP3 ADD MSTORE PUSH1 0x60 ADD SWAP1 JUMP JUMPDEST PUSH1 0x20 DUP1 DUP3 MSTORE PUSH1 0xE SWAP1 DUP3 ADD MSTORE PUSH14 0x4E6F20636F6E76657267656E6365 PUSH1 0x90 SHL PUSH1 0x40 DUP3 ADD MSTORE PUSH1 0x60 ADD SWAP1 JUMP JUMPDEST PUSH1 0x20 DUP1 DUP3 MSTORE PUSH1 0xD SWAP1 DUP3 ADD MSTORE PUSH13 0x92DCECC2D8D2C840D2DCC8CAF PUSH1 0x9B SHL PUSH1 0x40 DUP3 ADD MSTORE PUSH1 0x60 ADD SWAP1 JUMP JUMPDEST PUSH1 0x20 DUP1 DUP3 MSTORE PUSH1 0xE SWAP1 DUP3 ADD MSTORE PUSH14 0x125B9D985B1A59081B585C9AD95D PUSH1 0x92 SHL PUSH1 0x40 DUP3 ADD MSTORE PUSH1 0x60 ADD SWAP1 JUMP JUMPDEST PUSH1 0x20 DUP1 DUP3 MSTORE PUSH1 0x16 SWAP1 DUP3 ADD MSTORE PUSH22 0x5472616465206661696C65642C20736C697070616765 PUSH1 0x50 SHL PUSH1 0x40 DUP3 ADD MSTORE PUSH1 0x60 ADD SWAP1 JUMP JUMPDEST PUSH1 0x20 DUP1 DUP3 MSTORE PUSH1 0x12 SWAP1 DUP3 ADD MSTORE PUSH18 0x496E76616C696420626C6F636B2074696D65 PUSH1 0x70 SHL PUSH1 0x40 DUP3 ADD MSTORE PUSH1 0x60 ADD SWAP1 JUMP JUMPDEST PUSH1 0x20 DUP1 DUP3 MSTORE PUSH1 0x13 SWAP1 DUP3 ADD MSTORE PUSH19 0x125B9D985B1A590818DD5C9C995B98DE481A59 PUSH1 0x6A SHL PUSH1 0x40 DUP3 ADD MSTORE PUSH1 0x60 ADD SWAP1 JUMP JUMPDEST PUSH1 0x20 DUP1 DUP3 MSTORE PUSH1 0x11 SWAP1 DUP3 ADD MSTORE PUSH17 0x13DD995C8813585C9AD95D08131A5B5A5D PUSH1 0x7A SHL PUSH1 0x40 DUP3 ADD MSTORE PUSH1 0x60 ADD SWAP1 JUMP JUMPDEST PUSH1 0x0 PUSH2 0x180 DUP3 ADD SWAP1 POP DUP4 MLOAD DUP3 MSTORE PUSH1 0x20 DUP5 ADD MLOAD PUSH1 0x20 DUP4 ADD MSTORE PUSH1 0x40 DUP5 ADD MLOAD PUSH1 0x40 DUP4 ADD MSTORE DUP3 MLOAD PUSH1 0x60 DUP4 ADD MSTORE PUSH1 0x20 DUP4 ADD MLOAD PUSH1 0x80 DUP4 ADD MSTORE PUSH1 0x40 DUP4 ADD MLOAD PUSH1 0xA0 DUP4 ADD MSTORE PUSH1 0x60 DUP4 ADD MLOAD PUSH1 0xC0 DUP4 ADD MSTORE PUSH1 0x80 DUP4 ADD MLOAD PUSH1 0xE0 DUP4 ADD MSTORE PUSH1 0xA0 DUP4 ADD MLOAD PUSH2 0x100 DUP2 DUP2 DUP6 ADD MSTORE PUSH1 0xC0 DUP6 ADD MLOAD PUSH2 0x120 DUP6 ADD MSTORE PUSH1 0xE0 DUP6 ADD MLOAD PUSH2 0x140 DUP6 ADD MSTORE DUP1 DUP6 ADD MLOAD PUSH2 0x160 DUP6 ADD MSTORE POP POP SWAP4 SWAP3 POP POP POP JUMP JUMPDEST SWAP3 DUP4 MSTORE PUSH1 0x20 DUP4 ADD SWAP2 SWAP1 SWAP2 MSTORE PUSH1 0x40 DUP3 ADD MSTORE PUSH1 0x60 ADD SWAP1 JUMP JUMPDEST SWAP4 DUP5 MSTORE PUSH1 0x20 DUP5 ADD SWAP3 SWAP1 SWAP3 MSTORE PUSH1 0xFF AND PUSH1 0x40 DUP4 ADD MSTORE PUSH1 0x60 DUP3 ADD MSTORE PUSH1 0x80 ADD SWAP1 JUMP JUMPDEST PUSH1 0x1 PUSH1 0x1 PUSH1 0x58 SHL SUB SWAP4 SWAP1 SWAP4 AND DUP4 MSTORE PUSH1 0xFF SWAP2 SWAP1 SWAP2 AND PUSH1 0x20 DUP4 ADD MSTORE PUSH1 0x40 DUP3 ADD MSTORE PUSH1 0x60 ADD SWAP1 JUMP JUMPDEST PUSH1 0xFF SWAP2 SWAP1 SWAP2 AND DUP2 MSTORE PUSH1 0x20 ADD SWAP1 JUMP INVALID LOG2 PUSH5 0x6970667358 0x22 SLT KECCAK256 DUP8 PUSH27 0x244DAB69B9D81C00847C74C8AEC6288DB93FDAB2450E3516369BB6 0xAA SMOD CREATE2 PUSH5 0x736F6C6343 STOP SMOD MOD STOP CALLER ","sha1":"d5b54a5544a98c17df1ac00c5a1b01145149fdcf","source":"// SPDX-License-Identifier: BSUL-1.1\npragma solidity =0.7.6;\npragma abicoder v2;\n\nimport {\n    PrimeRate,\n    MarketParameters,\n    Token,\n    CashGroupParameters,\n    nTokenPortfolio,\n    AccountContext,\n    BalanceState,\n    TradeActionType,\n    InterestRateParameters,\n    PrimeCashFactors\n} from \"../global/Types.sol\";\nimport {StorageLayoutV1} from \"../global/StorageLayoutV1.sol\";\nimport {Constants} from \"../global/Constants.sol\";\nimport {SafeInt256} from \"../math/SafeInt256.sol\";\nimport {SafeUint256} from \"../math/SafeUint256.sol\";\n\nimport {AccountContextHandler} from \"../internal/AccountContextHandler.sol\";\nimport {BalanceHandler} from \"../internal/balances/BalanceHandler.sol\";\nimport {TokenHandler} from \"../internal/balances/TokenHandler.sol\";\nimport {Incentives} from \"../internal/balances/Incentives.sol\";\nimport {Market} from \"../internal/markets/Market.sol\";\nimport {CashGroup} from \"../internal/markets/CashGroup.sol\";\nimport {DateTime} from \"../internal/markets/DateTime.sol\";\nimport {InterestRateCurve} from \"../internal/markets/InterestRateCurve.sol\";\nimport {PrimeRateLib} from \"../internal/pCash/PrimeRateLib.sol\";\nimport {PrimeCashExchangeRate} from \"../internal/pCash/PrimeCashExchangeRate.sol\";\nimport {nTokenSupply} from \"../internal/nToken/nTokenSupply.sol\";\nimport {nTokenHandler} from \"../internal/nToken/nTokenHandler.sol\";\nimport {nTokenCalculations} from \"../internal/nToken/nTokenCalculations.sol\";\nimport {AssetHandler} from \"../internal/valuation/AssetHandler.sol\";\n\nimport {MigrateIncentives} from \"./MigrateIncentives.sol\";\nimport {nTokenMintAction} from \"./actions/nTokenMintAction.sol\";\nimport {NotionalCalculations} from \"../../interfaces/notional/NotionalCalculations.sol\";\n\ncontract CalculationViews is StorageLayoutV1, NotionalCalculations {\n    using TokenHandler for Token;\n    using Market for MarketParameters;\n    using PrimeRateLib for PrimeRate;\n    using CashGroup for CashGroupParameters;\n    using nTokenHandler for nTokenPortfolio;\n    using AccountContextHandler for AccountContext;\n    using BalanceHandler for BalanceState;\n    using SafeInt256 for int256;\n    using SafeUint256 for uint256;\n\n    function _checkValidCurrency(uint16 currencyId) internal view {\n        require(0 < currencyId && currencyId <= maxCurrencyId, \"Invalid currency id\");\n    }\n\n    /** General Calculation View Methods **/\n\n    /// @notice Returns the nTokens that will be minted when some amount of asset tokens are deposited\n    /// @param currencyId id number of the currency\n    /// @param amountToDepositExternalPrecision amount of underlying tokens in native precision\n    /// @return the amount of nTokens that will be minted\n    function calculateNTokensToMint(uint16 currencyId, uint88 amountToDepositExternalPrecision)\n        external\n        view\n        override\n        returns (uint256)\n    {\n        _checkValidCurrency(currencyId);\n        Token memory token = TokenHandler.getUnderlyingToken(currencyId);\n        int256 amountToDepositInternal = token.convertToInternal(int256(amountToDepositExternalPrecision));\n        nTokenPortfolio memory nToken;\n        nToken.loadNTokenPortfolioView(currencyId);\n\n        int256 tokensToMint = nTokenMintAction.calculateTokensToMint(\n            nToken,\n            nToken.cashGroup.primeRate.convertFromUnderlying(amountToDepositInternal),\n            block.timestamp\n        );\n\n        return tokensToMint.toUint();\n    }\n\n    function convertNTokenToUnderlying(uint16 currencyId, int256 nTokenBalance) external view override returns (int256) {\n        (int256 totalPrimePV, nTokenPortfolio memory nToken) = _getNTokenPV(currencyId);\n        int256 valueInPrimeCash = nTokenBalance.mul(totalPrimePV).div(nToken.totalSupply);\n        int256 valueInUnderlying = nToken.cashGroup.primeRate.convertToUnderlying(valueInPrimeCash);\n        return _convertToAmountExternal(currencyId, valueInUnderlying.abs()).toInt();\n    }\n\n    /// @notice Returns the present value of the nToken's assets denominated in asset tokens\n    function nTokenPresentValueAssetDenominated(uint16 currencyId) external view override returns (int256) {\n        (int256 totalPrimePV, /* */) = _getNTokenPV(currencyId);\n        return totalPrimePV;\n    }\n\n    /// @notice Returns the present value of the nToken's assets denominated in underlying\n    function nTokenPresentValueUnderlyingDenominated(uint16 currencyId) external view override returns (int256) {\n        (int256 totalPrimePV, nTokenPortfolio memory nToken) = _getNTokenPV(currencyId);\n        return nToken.cashGroup.primeRate.convertToUnderlying(totalPrimePV);\n    }\n\n    function _getNTokenPV(uint16 currencyId) private view returns (int256, nTokenPortfolio memory) {\n        uint256 blockTime = block.timestamp;\n        nTokenPortfolio memory nToken;\n        nToken.loadNTokenPortfolioView(currencyId);\n\n        int256 totalPrimePV = nTokenCalculations.getNTokenPrimePV(nToken, blockTime);\n        return (totalPrimePV, nToken);\n    }\n\n    /// @notice Returns the fCash amount to send when given a cash amount, be sure to buffer these amounts\n    /// slightly because the liquidity curve is sensitive to changes in block time\n    /// @param currencyId id number of the currency\n    /// @param netCashToAccount denominated in underlying terms in 1e8 decimal precision,\n    //// positive for borrowing, negative for lending\n    /// @param marketIndex market index of the fCash market\n    /// @param blockTime the block time for when the trade will be calculated\n    /// @return the fCash amount from the trade, positive when lending, negative when borrowing. Always in 8 decimals.\n    function getfCashAmountGivenCashAmount(\n        uint16 currencyId,\n        int88 netCashToAccount,\n        uint256 marketIndex,\n        uint256 blockTime\n    ) external view override returns (int256) {\n        _checkValidCurrency(currencyId);\n        CashGroupParameters memory cashGroup = CashGroup.buildCashGroupView(currencyId);\n        return _getfCashAmountGivenCashAmount(netCashToAccount, marketIndex, blockTime, cashGroup);\n    }\n        \n    function _getfCashAmountGivenCashAmount(\n        int88 netUnderlyingToAccount,\n        uint256 marketIndex,\n        uint256 blockTime,\n        CashGroupParameters memory cashGroup\n    ) internal view returns (int256) {\n        MarketParameters memory market;\n        cashGroup.loadMarket(market, marketIndex, false, blockTime);\n\n        require(market.maturity > blockTime, \"Invalid block time\");\n        uint256 timeToMaturity = market.maturity - blockTime;\n        InterestRateParameters memory irParams = InterestRateCurve.getActiveInterestRateParameters(\n            cashGroup.currencyId, marketIndex\n        );\n\n        return InterestRateCurve.getfCashGivenCashAmount(\n            irParams,\n            market.totalfCash,\n            netUnderlyingToAccount,\n            cashGroup.primeRate.convertToUnderlying(market.totalPrimeCash),\n            timeToMaturity\n        );\n    }\n\n    /// @notice Returns the cash amount that will be traded given an fCash amount, be sure to buffer these amounts\n    /// slightly because the liquidity curve is sensitive to changes in block time\n    /// @param currencyId id number of the currency\n    /// @param fCashAmount amount of fCash to trade, negative for borrowing, positive for lending\n    /// @param marketIndex market index of the fCash market\n    /// @param blockTime the block time for when the trade will be calculated\n    /// @return net asset cash amount (positive for borrowing, negative for lending) in 8 decimal precision\n    /// @return underlying cash amount (positive for borrowing, negative for lending) in 8 decimal precision\n    function getCashAmountGivenfCashAmount(\n        uint16 currencyId,\n        int88 fCashAmount,\n        uint256 marketIndex,\n        uint256 blockTime\n    ) external view override returns (int256, int256) {\n        return _getCashAmountGivenfCashAmount(currencyId, fCashAmount, marketIndex, blockTime, 0);\n    }\n\n    function _getCashAmountGivenfCashAmount(\n        uint16 currencyId,\n        int88 fCashAmount,\n        uint256 marketIndex,\n        uint256 blockTime, \n        uint256 rateLimit\n    ) internal view returns (int256, int256) {\n        _checkValidCurrency(currencyId);\n        CashGroupParameters memory cashGroup = CashGroup.buildCashGroupView(currencyId);\n        MarketParameters memory market;\n        cashGroup.loadMarket(market, marketIndex, false, blockTime);\n\n        require(market.maturity > blockTime, \"Invalid block time\");\n        uint256 timeToMaturity = market.maturity - blockTime;\n\n        // prettier-ignore\n        (int256 primeCash, /* int fee */, uint256 postFeeInterestRate) =\n            InterestRateCurve.calculatefCashTrade(market, cashGroup, fCashAmount, timeToMaturity, marketIndex);\n\n        // Check the slippage here and revert\n        if (rateLimit != 0) {\n            if (fCashAmount < 0) {\n                // Do not allow borrows over the rate limit\n                require(postFeeInterestRate <= rateLimit, \"Trade failed, slippage\");\n            } else {\n                // Do not allow lends under the rate limit\n                require(postFeeInterestRate >= rateLimit, \"Trade failed, slippage\");\n            }\n        }\n\n        return (primeCash, cashGroup.primeRate.convertToUnderlying(primeCash));\n    }\n\n    /// @notice Returns the claimable incentives for all nToken balances\n    /// @param account The address of the account which holds the tokens\n    /// @param blockTime The block time when incentives will be minted\n    /// @return Incentives an account is eligible to claim\n    function nTokenGetClaimableIncentives(address account, uint256 blockTime)\n        external\n        view\n        override\n        returns (uint256)\n    {\n        AccountContext memory accountContext = AccountContextHandler.getAccountContext(account);\n        BalanceState memory balanceState;\n        uint256 totalIncentivesClaimable;\n\n        if (accountContext.isBitmapEnabled()) {\n            balanceState.loadBalanceStateView(account, accountContext.bitmapCurrencyId, accountContext);\n            if (balanceState.storedNTokenBalance > 0) {\n                address tokenAddress = nTokenHandler.nTokenAddress(balanceState.currencyId);\n                (\n                    /* uint256 totalSupply */,\n                    uint256 accumulatedNOTEPerNToken,\n                    /* uint256 lastAccumulatedTime */\n                ) = nTokenSupply.getUpdatedAccumulatedNOTEPerNToken(tokenAddress, blockTime);\n\n                uint256 incentivesToClaim = Incentives.calculateIncentivesToClaim(\n                    balanceState,\n                    tokenAddress,\n                    accumulatedNOTEPerNToken,\n                    balanceState.storedNTokenBalance.toUint()\n                );\n                totalIncentivesClaimable = totalIncentivesClaimable.add(incentivesToClaim);\n            }\n        }\n\n        bytes18 currencies = accountContext.activeCurrencies;\n        while (currencies != 0) {\n            uint16 currencyId = uint16(bytes2(currencies) & Constants.UNMASK_FLAGS);\n            balanceState.loadBalanceStateView(account, currencyId, accountContext);\n\n            if (balanceState.storedNTokenBalance > 0) {\n                address tokenAddress = nTokenHandler.nTokenAddress(balanceState.currencyId);\n                (\n                    /* uint256 totalSupply */,\n                    uint256 accumulatedNOTEPerNToken,\n                    /* uint256 lastAccumulatedTime */\n                ) = nTokenSupply.getUpdatedAccumulatedNOTEPerNToken(tokenAddress, blockTime);\n\n                uint256 incentivesToClaim = Incentives.calculateIncentivesToClaim(\n                    balanceState,\n                    tokenAddress,\n                    accumulatedNOTEPerNToken,\n                    balanceState.storedNTokenBalance.toUint()\n                );\n                totalIncentivesClaimable = totalIncentivesClaimable.add(incentivesToClaim);\n            }\n\n            currencies = currencies << 16;\n        }\n\n        return totalIncentivesClaimable;\n    }\n\n    /// @notice Returns the present value of the given fCash amount using Notional internal oracle rates\n    /// @param currencyId id number of the currency\n    /// @param maturity timestamp of the fCash maturity\n    /// @param notional amount of fCash notional\n    /// @param blockTime the block time for when the trade will be calculated\n    /// @param riskAdjusted true if haircuts and buffers should be applied to the oracle rate\n    /// @return presentValue of fCash in 8 decimal precision and underlying denomination\n    function getPresentfCashValue(\n        uint16 currencyId,\n        uint256 maturity,\n        int256 notional,\n        uint256 blockTime,\n        bool riskAdjusted\n    ) external view override returns (int256 presentValue) {\n        CashGroupParameters memory cg = CashGroup.buildCashGroupView(currencyId);\n        if (riskAdjusted) {\n            presentValue = AssetHandler.getRiskAdjustedPresentfCashValue(\n                cg, notional, maturity, blockTime\n            );\n        } else {\n            presentValue = AssetHandler.getPresentfCashValue(\n                notional,\n                maturity,\n                blockTime,\n                cg.calculateOracleRate(maturity, blockTime)\n            );\n        }\n    }\n\n    /// @notice Returns a market index value for a given maturity\n    /// @param maturity an fCash maturity\n    /// @param blockTime the block time for when the trade will be calculated\n    /// @return marketIndex a value between 1 and 7 that represents the marketIndex (tenor)\n    /// that corresponds to the maturity. Returns 0 if there is no corresponding marketIndex\n    function getMarketIndex(\n        uint256 maturity,\n        uint256 blockTime\n    ) public pure override returns (uint8 marketIndex) {\n        (\n            uint256 _marketIndex,\n            bool isIdiosyncratic\n        ) = DateTime.getMarketIndex(Constants.MAX_TRADED_MARKET_INDEX, maturity, blockTime);\n\n        // Market Index cannot be greater than 7 by construction\n        marketIndex = isIdiosyncratic ? 0 : uint8(_marketIndex);\n    }\n\n    /// @notice Returns the amount of fCash that would received if lending deposit amount.\n    /// @param currencyId id number of the currency\n    /// @param depositAmountExternal amount to deposit in the token's native precision. For aTokens use\n    /// what is returned by the balanceOf selector (not scaledBalanceOf).\n    /// @param maturity the maturity of the fCash to lend\n    /// @param minLendRate the minimum lending rate (slippage protection)\n    /// @param blockTime the block time for when the trade will be calculated\n    /// @param useUnderlying true if specifying the underlying token, false if specifying prime cash\n    /// @return fCashAmount the amount of fCash that the lender will receive\n    /// @return marketIndex the corresponding market index for the lending\n    /// @return encodedTrade the encoded bytes32 object to pass to batch trade\n    function getfCashLendFromDeposit(\n        uint16 currencyId,\n        uint256 depositAmountExternal,\n        uint256 maturity,\n        uint32 minLendRate,\n        uint256 blockTime,\n        bool useUnderlying\n    ) external view override returns (\n        uint88 fCashAmount,\n        uint8 marketIndex,\n        bytes32 encodedTrade\n    ) {\n        marketIndex = getMarketIndex(maturity, blockTime);\n        require(marketIndex > 0);\n\n        (\n            int256 underlyingInternal,\n            CashGroupParameters memory cashGroup\n        ) = _convertDepositAmountToUnderlyingInternal(currencyId, depositAmountExternal, useUnderlying);\n        int256 fCash = _getfCashAmountGivenCashAmount(underlyingInternal.neg().toInt88(), marketIndex, blockTime, cashGroup);\n        require(0 < fCash);\n\n        (\n            encodedTrade,\n            fCashAmount\n        ) = _encodeLendBorrowTrade(TradeActionType.Lend, marketIndex, fCash, minLendRate);\n    }\n\n    /// @notice Returns the amount of fCash that would received if lending deposit amount.\n    /// @param currencyId id number of the currency\n    /// @param borrowedAmountExternal amount to borrow in the token's native precision.\n    /// @param maturity the maturity of the fCash to lend\n    /// @param maxBorrowRate the maximum borrow rate (slippage protection). If zero then no slippage will be applied\n    /// @param blockTime the block time for when the trade will be calculated\n    /// @param useUnderlying true if specifying the underlying token, false if specifying prime cash\n    /// @return fCashDebt the amount of fCash that the borrower will owe, this will be stored as a negative\n    /// balance in Notional\n    /// @return marketIndex the corresponding market index for the lending\n    /// @return encodedTrade the encoded bytes32 object to pass to batch trade\n    function getfCashBorrowFromPrincipal(\n        uint16 currencyId,\n        uint256 borrowedAmountExternal,\n        uint256 maturity,\n        uint32 maxBorrowRate,\n        uint256 blockTime,\n        bool useUnderlying\n    ) external view override returns (\n        uint88 fCashDebt,\n        uint8 marketIndex,\n        bytes32 encodedTrade\n    ) {\n        marketIndex = getMarketIndex(maturity, blockTime);\n        require(marketIndex > 0);\n\n        (\n            int256 underlyingInternal,\n            CashGroupParameters memory cashGroup\n        ) = _convertDepositAmountToUnderlyingInternal(currencyId, borrowedAmountExternal, useUnderlying);\n        int256 fCash = _getfCashAmountGivenCashAmount(underlyingInternal.toInt88(), marketIndex, blockTime, cashGroup);\n        require(fCash < 0);\n\n        (\n            encodedTrade,\n            fCashDebt\n        ) = _encodeLendBorrowTrade(TradeActionType.Borrow, marketIndex, fCash, maxBorrowRate);\n    }\n\n    /// @notice Returns the amount of underlying cash and asset cash required to lend fCash. When specifying a\n    /// trade, deposit either underlying or asset tokens (not both). Asset tokens tend to be more gas efficient.\n    /// @param currencyId id number of the currency\n    /// @param fCashAmount amount of fCash (in underlying) that will be received at maturity. Always 8 decimal precision.\n    /// @param maturity the maturity of the fCash to lend\n    /// @param minLendRate the minimum lending rate (slippage protection)\n    /// @param blockTime the block time for when the trade will be calculated\n    /// @return depositAmountUnderlying the amount of underlying tokens the lender must deposit\n    /// @return depositAmountPrimeCash the amount of prime cash tokens the lender must deposit or mint\n    /// @return marketIndex the corresponding market index for the lending\n    /// @return encodedTrade the encoded bytes32 object to pass to batch trade\n    function getDepositFromfCashLend(\n        uint16 currencyId,\n        uint256 fCashAmount,\n        uint256 maturity,\n        uint32 minLendRate,\n        uint256 blockTime\n    ) external view override returns (\n        uint256 depositAmountUnderlying,\n        uint256 depositAmountPrimeCash,\n        uint8 marketIndex,\n        bytes32 encodedTrade\n    ) {\n        marketIndex = getMarketIndex(maturity, blockTime);\n        require(marketIndex > 0);\n        require(fCashAmount < uint256(int256(type(int88).max)));\n\n        int88 fCash = int88(SafeInt256.toInt(fCashAmount));\n        (\n            int256 primeCash,\n            int256 underlyingCashInternal\n        ) = _getCashAmountGivenfCashAmount(currencyId, fCash, marketIndex, blockTime, minLendRate);\n\n        depositAmountUnderlying = _convertToAmountExternal(currencyId, underlyingCashInternal);\n        depositAmountPrimeCash = primeCash.neg().toUint();\n        (encodedTrade, /* */) = _encodeLendBorrowTrade(TradeActionType.Lend, marketIndex, fCash, minLendRate);\n    }\n\n    /// @notice Returns the amount of underlying cash and asset cash required to borrow fCash. When specifying a\n    /// trade, choose to receive either underlying or asset tokens (not both). Asset tokens tend to be more gas efficient.\n    /// @param currencyId id number of the currency\n    /// @param fCashBorrow amount of fCash (in underlying) that will be received at maturity. Always 8 decimal precision.\n    /// @param maturity the maturity of the fCash to lend\n    /// @param maxBorrowRate the maximum borrow rate (slippage protection)\n    /// @param blockTime the block time for when the trade will be calculated\n    /// @return borrowAmountUnderlying the amount of underlying tokens the borrower will receive\n    /// @return borrowAmountPrimeCash the amount of prime cash tokens the borrower will receive\n    /// @return marketIndex the corresponding market index for the lending\n    /// @return encodedTrade the encoded bytes32 object to pass to batch trade\n    function getPrincipalFromfCashBorrow(\n        uint16 currencyId,\n        uint256 fCashBorrow,\n        uint256 maturity,\n        uint32 maxBorrowRate,\n        uint256 blockTime\n    ) external view override returns (\n        uint256 borrowAmountUnderlying,\n        uint256 borrowAmountPrimeCash,\n        uint8 marketIndex,\n        bytes32 encodedTrade\n    ) {\n        marketIndex = getMarketIndex(maturity, blockTime);\n        require(marketIndex > 0);\n        require(fCashBorrow < uint256(int256(type(int88).max)));\n\n        int88 fCash = int88(SafeInt256.toInt(fCashBorrow).neg());\n        (\n            int256 primeCash,\n            int256 underlyingCashInternal\n        ) = _getCashAmountGivenfCashAmount(currencyId, fCash, marketIndex, blockTime, maxBorrowRate);\n\n        borrowAmountUnderlying = _convertToAmountExternal(currencyId, underlyingCashInternal);\n        borrowAmountPrimeCash = primeCash.toUint();\n        (encodedTrade, /* */) = _encodeLendBorrowTrade(TradeActionType.Borrow, marketIndex, fCash, maxBorrowRate);\n    }\n\n    /// @notice Converts an prime cash balance to an external token denomination\n    /// @param currencyId the currency id of the cash balance\n    /// @param primeCashBalance the signed cash balance that is stored in Notional\n    /// @param convertToUnderlying true if the value should be converted to underlying\n    /// @return the cash balance converted to the external token denomination\n    function convertCashBalanceToExternal(\n        uint16 currencyId,\n        int256 primeCashBalance,\n        bool convertToUnderlying\n    ) external view override returns (int256) {\n        // Prime cash is just 1-1 with itself, no external conversion\n        if (!convertToUnderlying) return primeCashBalance;\n\n        (PrimeRate memory pr, /* */) = PrimeCashExchangeRate\n            .getPrimeCashRateView(currencyId, block.timestamp);\n\n        int256 underlyingBalance = pr.convertToUnderlying(primeCashBalance);\n        int256 externalAmount = _convertToAmountExternal(currencyId, underlyingBalance.abs()).toInt();\n        return underlyingBalance < 0 ? externalAmount.neg() : externalAmount;\n    }\n\n    /// @notice Converts an underlying balance to prime cash\n    /// @param currencyId the currency id of the cash balance\n    /// @param underlyingExternal the underlying external token balance\n    /// @return the underlying balance converted to prime cash\n    function convertUnderlyingToPrimeCash(\n        uint16 currencyId,\n        int256 underlyingExternal\n    ) external view override returns (int256) {\n        (PrimeRate memory pr, /* */) = PrimeCashExchangeRate.getPrimeCashRateView(currencyId, block.timestamp);\n        Token memory token = TokenHandler.getUnderlyingToken(currencyId);\n        int256 underlyingInternal = token.convertToInternal(underlyingExternal);\n        return pr.convertFromUnderlying(underlyingInternal);\n    }\n\n    /// @notice Converts fCash to its settled prime cash value at the specified block time\n    /// @param currencyId the currency id of the fCash asset\n    /// @param maturity the timestamp when the fCash asset matures\n    /// @param fCashBalance signed balance of fcash\n    /// @param blockTime block time to convert to settled prime value, must be greater than maturity\n    /// @return signedPrimeSupplyValue amount of prime cash to be received or owed to the protocol\n    function convertSettledfCash(\n        uint16 currencyId,\n        uint256 maturity,\n        int256 fCashBalance,\n        uint256 blockTime\n    ) external view override returns (int256 signedPrimeSupplyValue) {\n        require(maturity <= blockTime);\n        (PrimeRate memory pr, /* */) = PrimeCashExchangeRate.getPrimeCashRateView(currencyId, blockTime);\n        return pr.convertSettledfCashView(currencyId, maturity, fCashBalance, blockTime);\n    }\n\n    /// @notice Accrues prime interest and updates state up to the current block\n    function accruePrimeInterest(\n        uint16 currencyId\n    ) external override returns (PrimeRate memory pr, PrimeCashFactors memory factors) {\n        pr = PrimeRateLib.buildPrimeRateStateful(currencyId);\n        factors = PrimeCashExchangeRate.getPrimeCashFactors(currencyId);\n    }\n\n    function _convertToAmountExternal(uint16 currencyId, int256 depositAmountInternal) private view returns (uint256) {\n        Token memory token = TokenHandler.getUnderlyingToken(currencyId);\n        int256 amountExternal = depositAmountInternal < 0 ?\n            // We have to do a special rounding adjustment for underlying internal deposits from lending.\n            token.convertToUnderlyingExternalWithAdjustment(depositAmountInternal.neg()) :\n            token.convertToExternal(depositAmountInternal).abs();\n\n        return SafeInt256.toUint(amountExternal);\n    }\n\n    /// @notice Converts an external deposit amount to an internal deposit amount\n    function _convertDepositAmountToUnderlyingInternal(\n        uint16 currencyId,\n        uint256 depositAmountExternal,\n        bool useUnderlying\n    ) private view returns (int256 underlyingInternal, CashGroupParameters memory cashGroup) {\n        int256 depositAmount = depositAmountExternal.toInt();\n        cashGroup = CashGroup.buildCashGroupView(currencyId);\n\n        if (useUnderlying) {\n            Token memory token = TokenHandler.getUnderlyingToken(currencyId);\n            underlyingInternal = token.convertToInternal(depositAmount);\n        } else {\n            // In this case, depositAmount is prime cash denominated\n            underlyingInternal = cashGroup.primeRate.convertToUnderlying(depositAmount);\n        }\n    }\n\n    function _encodeLendBorrowTrade(\n        TradeActionType actionType,\n        uint8 marketIndex,\n        int256 fCash,\n        uint32 slippage\n    ) private pure returns (bytes32 encodedTrade, uint88 fCashAmount) {\n        uint256 absfCash = uint256(fCash.abs());\n        require(absfCash <= uint256(type(uint88).max));\n\n        encodedTrade = bytes32(\n            (uint256(uint8(actionType)) << 248) |\n            (uint256(marketIndex) << 240) |\n            (uint256(absfCash) << 152) |\n            (uint256(slippage) << 120)\n        );\n\n        fCashAmount = uint88(absfCash);\n    }\n\n    /// @notice Get a list of deployed library addresses (sorted by library name)\n    function getLibInfo() external pure returns (address) {\n        return (address(MigrateIncentives));\n    }\n}","sourcePath":"contracts/external/CalculationViews.sol","type":"contract","deployment":{"address":"0xdfb618098fC858F43fe0E5Fb906AdFE96786832f","chainid":"5","blockHeight":10202777}}