{"abi":[{"inputs":[{"internalType":"contract NotionalProxy","name":"notional_","type":"address"}],"stateMutability":"nonpayable","type":"constructor","name":"constructor"},{"anonymous":false,"inputs":[{"indexed":true,"internalType":"address","name":"owner","type":"address"},{"indexed":true,"internalType":"address","name":"spender","type":"address"},{"indexed":false,"internalType":"uint256","name":"value","type":"uint256"}],"name":"Approval","type":"event"},{"anonymous":false,"inputs":[{"indexed":true,"internalType":"address","name":"caller","type":"address"},{"indexed":true,"internalType":"address","name":"owner","type":"address"},{"indexed":false,"internalType":"uint256","name":"assets","type":"uint256"},{"indexed":false,"internalType":"uint256","name":"shares","type":"uint256"}],"name":"Deposit","type":"event"},{"anonymous":false,"inputs":[],"name":"ProxyRenamed","type":"event"},{"anonymous":false,"inputs":[{"indexed":true,"internalType":"address","name":"from","type":"address"},{"indexed":true,"internalType":"address","name":"to","type":"address"},{"indexed":false,"internalType":"uint256","name":"value","type":"uint256"}],"name":"Transfer","type":"event"},{"anonymous":false,"inputs":[{"indexed":true,"internalType":"address","name":"caller","type":"address"},{"indexed":true,"internalType":"address","name":"receiver","type":"address"},{"indexed":true,"internalType":"address","name":"owner","type":"address"},{"indexed":false,"internalType":"uint256","name":"assets","type":"uint256"},{"indexed":false,"internalType":"uint256","name":"shares","type":"uint256"}],"name":"Withdraw","type":"event"},{"inputs":[],"name":"EXCHANGE_RATE_PRECISION","outputs":[{"internalType":"uint256","name":"","type":"uint256"}],"stateMutability":"view","type":"function"},{"inputs":[],"name":"NOTIONAL","outputs":[{"internalType":"contract NotionalProxy","name":"","type":"address"}],"stateMutability":"view","type":"function"},{"inputs":[{"internalType":"address","name":"account","type":"address"},{"internalType":"address","name":"spender","type":"address"}],"name":"allowance","outputs":[{"internalType":"uint256","name":"","type":"uint256"}],"stateMutability":"view","type":"function"},{"inputs":[{"internalType":"address","name":"spender","type":"address"},{"internalType":"uint256","name":"amount","type":"uint256"}],"name":"approve","outputs":[{"internalType":"bool","name":"ret","type":"bool"}],"stateMutability":"nonpayable","type":"function"},{"inputs":[],"name":"asset","outputs":[{"internalType":"address","name":"","type":"address"}],"stateMutability":"view","type":"function"},{"inputs":[{"internalType":"address","name":"account","type":"address"}],"name":"balanceOf","outputs":[{"internalType":"uint256","name":"","type":"uint256"}],"stateMutability":"view","type":"function"},{"inputs":[{"internalType":"uint256","name":"shares","type":"uint256"}],"name":"convertToAssets","outputs":[{"internalType":"uint256","name":"assets","type":"uint256"}],"stateMutability":"view","type":"function"},{"inputs":[{"internalType":"uint256","name":"assets","type":"uint256"}],"name":"convertToShares","outputs":[{"internalType":"uint256","name":"shares","type":"uint256"}],"stateMutability":"view","type":"function"},{"inputs":[],"name":"currencyId","outputs":[{"internalType":"uint16","name":"","type":"uint16"}],"stateMutability":"view","type":"function"},{"inputs":[],"name":"decimals","outputs":[{"internalType":"uint8","name":"","type":"uint8"}],"stateMutability":"view","type":"function"},{"inputs":[{"internalType":"uint256","name":"assets","type":"uint256"},{"internalType":"address","name":"receiver","type":"address"}],"name":"deposit","outputs":[{"internalType":"uint256","name":"shares","type":"uint256"}],"stateMutability":"nonpayable","type":"function"},{"inputs":[{"internalType":"address","name":"account","type":"address"},{"internalType":"int256","name":"netBalance","type":"int256"}],"name":"emitMintOrBurn","outputs":[],"stateMutability":"nonpayable","type":"function"},{"inputs":[{"internalType":"address","name":"minter","type":"address"},{"internalType":"address","name":"burner","type":"address"},{"internalType":"uint256","name":"mintAmount","type":"uint256"},{"internalType":"uint256","name":"transferAndBurnAmount","type":"uint256"}],"name":"emitMintTransferBurn","outputs":[],"stateMutability":"nonpayable","type":"function"},{"inputs":[{"internalType":"address","name":"from","type":"address"},{"internalType":"address","name":"to","type":"address"},{"internalType":"uint256","name":"amount","type":"uint256"}],"name":"emitTransfer","outputs":[],"stateMutability":"nonpayable","type":"function"},{"inputs":[{"internalType":"address","name":"account","type":"address"},{"internalType":"address","name":"nToken","type":"address"},{"internalType":"int256","name":"accountToNToken","type":"int256"},{"internalType":"uint256","name":"cashToReserve","type":"uint256"}],"name":"emitfCashTradeTransfers","outputs":[],"stateMutability":"nonpayable","type":"function"},{"inputs":[],"name":"exchangeRate","outputs":[{"internalType":"uint256","name":"rate","type":"uint256"}],"stateMutability":"view","type":"function"},{"inputs":[],"name":"getPresentValueAssetDenominated","outputs":[{"internalType":"int256","name":"","type":"int256"}],"stateMutability":"view","type":"function"},{"inputs":[],"name":"getPresentValueUnderlyingDenominated","outputs":[{"internalType":"int256","name":"","type":"int256"}],"stateMutability":"view","type":"function"},{"inputs":[{"internalType":"uint16","name":"currencyId_","type":"uint16"},{"internalType":"address","name":"underlying_","type":"address"},{"internalType":"string","name":"underlyingName_","type":"string"},{"internalType":"string","name":"underlyingSymbol_","type":"string"}],"name":"initialize","outputs":[],"stateMutability":"nonpayable","type":"function"},{"inputs":[{"internalType":"address","name":"","type":"address"}],"name":"maxDeposit","outputs":[{"internalType":"uint256","name":"maxAssets","type":"uint256"}],"stateMutability":"view","type":"function"},{"inputs":[{"internalType":"address","name":"","type":"address"}],"name":"maxMint","outputs":[{"internalType":"uint256","name":"maxShares","type":"uint256"}],"stateMutability":"view","type":"function"},{"inputs":[{"internalType":"address","name":"owner","type":"address"}],"name":"maxRedeem","outputs":[{"internalType":"uint256","name":"maxShares","type":"uint256"}],"stateMutability":"view","type":"function"},{"inputs":[{"internalType":"address","name":"owner","type":"address"}],"name":"maxWithdraw","outputs":[{"internalType":"uint256","name":"maxAssets","type":"uint256"}],"stateMutability":"view","type":"function"},{"inputs":[{"internalType":"uint256","name":"shares","type":"uint256"},{"internalType":"address","name":"receiver","type":"address"}],"name":"mint","outputs":[{"internalType":"uint256","name":"assets","type":"uint256"}],"stateMutability":"nonpayable","type":"function"},{"inputs":[],"name":"name","outputs":[{"internalType":"string","name":"","type":"string"}],"stateMutability":"view","type":"function"},{"inputs":[],"name":"nativeDecimals","outputs":[{"internalType":"uint8","name":"","type":"uint8"}],"stateMutability":"view","type":"function"},{"inputs":[{"internalType":"uint256","name":"assets","type":"uint256"}],"name":"previewDeposit","outputs":[{"internalType":"uint256","name":"shares","type":"uint256"}],"stateMutability":"view","type":"function"},{"inputs":[{"internalType":"uint256","name":"shares","type":"uint256"}],"name":"previewMint","outputs":[{"internalType":"uint256","name":"assets","type":"uint256"}],"stateMutability":"view","type":"function"},{"inputs":[{"internalType":"uint256","name":"shares","type":"uint256"}],"name":"previewRedeem","outputs":[{"internalType":"uint256","name":"assets","type":"uint256"}],"stateMutability":"view","type":"function"},{"inputs":[{"internalType":"uint256","name":"assets","type":"uint256"}],"name":"previewWithdraw","outputs":[{"internalType":"uint256","name":"shares","type":"uint256"}],"stateMutability":"view","type":"function"},{"inputs":[{"internalType":"uint256","name":"shares","type":"uint256"},{"internalType":"address","name":"receiver","type":"address"},{"internalType":"address","name":"owner","type":"address"}],"name":"redeem","outputs":[{"internalType":"uint256","name":"assets","type":"uint256"}],"stateMutability":"nonpayable","type":"function"},{"inputs":[{"internalType":"string","name":"underlyingName_","type":"string"},{"internalType":"string","name":"underlyingSymbol_","type":"string"}],"name":"rename","outputs":[],"stateMutability":"nonpayable","type":"function"},{"inputs":[],"name":"symbol","outputs":[{"internalType":"string","name":"","type":"string"}],"stateMutability":"view","type":"function"},{"inputs":[],"name":"totalAssets","outputs":[{"internalType":"uint256","name":"totalManagedAssets","type":"uint256"}],"stateMutability":"view","type":"function"},{"inputs":[],"name":"totalSupply","outputs":[{"internalType":"uint256","name":"","type":"uint256"}],"stateMutability":"view","type":"function"},{"inputs":[{"internalType":"address","name":"to","type":"address"},{"internalType":"uint256","name":"amount","type":"uint256"}],"name":"transfer","outputs":[{"internalType":"bool","name":"ret","type":"bool"}],"stateMutability":"nonpayable","type":"function"},{"inputs":[{"internalType":"address","name":"from","type":"address"},{"internalType":"address","name":"to","type":"address"},{"internalType":"uint256","name":"amount","type":"uint256"}],"name":"transferFrom","outputs":[{"internalType":"bool","name":"ret","type":"bool"}],"stateMutability":"nonpayable","type":"function"},{"inputs":[],"name":"underlying","outputs":[{"internalType":"address","name":"","type":"address"}],"stateMutability":"view","type":"function"},{"inputs":[{"internalType":"uint256","name":"assets","type":"uint256"},{"internalType":"address","name":"receiver","type":"address"},{"internalType":"address","name":"owner","type":"address"}],"name":"withdraw","outputs":[{"internalType":"uint256","name":"shares","type":"uint256"}],"stateMutability":"nonpayable","type":"function"}],"bytecode":"60a06040523480156200001157600080fd5b5060405162002a5238038062002a5283398101604081905262000034916200011c565b6000548190610100900460ff168062000052575062000052620000f8565b8062000061575060005460ff16155b6200009e5760405162461bcd60e51b815260040180806020018281038252602e81526020018062002a24602e913960400191505060405180910390fd5b600054610100900460ff16158015620000ca576000805460ff1961ff0019909116610100171660011790555b6001600160601b0319606083901b166080528015620000ef576000805461ff00191690555b5050506200014c565b600062000110306200011660201b6200148e1760201c565b15905090565b3b151590565b6000602082840312156200012e578081fd5b81516001600160a01b038116811462000145578182fd5b9392505050565b60805160601c612865620001bf60003980610660528061070a528061085d5280610a2f5280610a6e5280610b155280610c635280610e205280610ff152806110f1528061137b52806114b352806115da528061168652806116d8528061197b5280611a605280611c1552506128656000f3fe608060405234801561001057600080fd5b506004361061023d5760003560e01c8063768ea56a1161013b578063b3d7f6b9116100b8578063ccb2d5ed1161007c578063ccb2d5ed14610474578063ce96cb7714610487578063d905777e1461038e578063dd62ed3e1461049a578063ef8b30f7146102a85761023d565b8063b3d7f6b914610360578063b460af9414610428578063ba0876521461043b578063c63d75b61461044e578063c6e6f592146104615761023d565b806395d89b41116100ff57806395d89b41146103d45780639c7c722b146103dc578063a9059cbb146103ef578063a992714e14610402578063ad1c095d146104155761023d565b8063768ea56a146103a1578063858dccb3146103a957806390ab60a7146103b157806391cf16a8146103b957806394bf804d146103c15761023d565b8063313ce567116101c9578063402d267d1161018d578063402d267d1461034d5780634cdad506146103605780636e553f65146103735780636f307dc31461038657806370a082311461038e5761023d565b8063313ce5671461030057806338d52e0f1461031557806339de97461461032a5780633a01b9641461033d5780633ba0b9a9146103455761023d565b80630a28a477116102105780630a28a477146102a857806318160ddd146102bb5780631feeece2146102c357806323b872dd146102d857806323de6651146102eb5761023d565b806301e1d1141461024257806306fdde031461026057806307a2d13a14610275578063095ea7b314610288575b600080fd5b61024a6104ad565b60405161025791906125ae565b60405180910390f35b6102686104bc565b60405161025791906125b7565b61024a61028336600461246f565b610549565b61029b61029636600461222b565b610577565b60405161025791906125a3565b61024a6102b636600461246f565b6105dd565b61024a6105e8565b6102cb6105f2565b6040516102579190612639565b61029b6102e63660046121d6565b6105fc565b6102fe6102f93660046121d6565b610655565b005b6103086106e4565b604051610257919061270b565b61031d6106e9565b604051610257919061258f565b6102fe610338366004612216565b6106ff565b61024a6107fa565b61024a610806565b61024a61035b366004612121565b61083c565b61024a61036e36600461246f565b610946565b61024a610381366004612487565b610951565b61031d6109fd565b61024a61039c366004612121565b610a13565b610308610a1e565b61031d610a2d565b61024a610a51565b61024a610af8565b61024a6103cf366004612487565b610b4f565b610268610c09565b6102fe6103ea36600461228e565b610c61565b61029b6103fd36600461222b565b610dc4565b6102fe6104103660046123e3565b610e15565b6102fe61042336600461222b565b6110e6565b61024a6104363660046124ab565b6111b4565b61024a6104493660046124ab565b611283565b61024a61045c366004612121565b61132c565b61024a61046f36600461246f565b611351565b6102fe610482366004612191565b611370565b61024a610495366004612121565b611474565b61024a6104a8366004612159565b611482565b60006104b7611494565b905090565b60018054604080516020600284861615610100026000190190941693909304601f810184900484028201840190925281815292918301828280156105415780601f1061051657610100808354040283529160200191610541565b820191906000526020600020905b81548152906001019060200180831161052457829003601f168201915b505050505081565b600061056f670de0b6b3a764000061056984610563610806565b90611577565b9061159e565b90505b919050565b600061058383836115bd565b905080156105d757826001600160a01b0316336001600160a01b03167f8c5be1e5ebec7d5bd14f71427d1e84f3dd0314c0f7b2291e5b200ac8c7c3b925846040516105ce91906125ae565b60405180910390a35b92915050565b600061056f82611351565b60006104b761166c565b60035461ffff1681565b6000826001600160a01b0316846001600160a01b03166000805160206127b08339815191528460405161062f91906125ae565b60405180910390a36106428484846116bb565b90508061064e57600080fd5b9392505050565b336001600160a01b037f000000000000000000000000000000000000000000000000000000000000000016146106a65760405162461bcd60e51b815260040161069d90612613565b60405180910390fd5b816001600160a01b0316836001600160a01b03166000805160206127b0833981519152836040516106d791906125ae565b60405180910390a3505050565b600881565b600354630100000090046001600160a01b031690565b336001600160a01b037f000000000000000000000000000000000000000000000000000000000000000016146107475760405162461bcd60e51b815260040161069d90612613565b836001600160a01b031660006001600160a01b03166000805160206127b08339815191528460405161077991906125ae565b60405180910390a3826001600160a01b0316846001600160a01b03166000805160206127b0833981519152836040516107b291906125ae565b60405180910390a360006001600160a01b0316836001600160a01b03166000805160206127b0833981519152836040516107ec91906125ae565b60405180910390a350505050565b670de0b6b3a764000081565b600080610811611494565b9050600061081d61166c565b90506108358161056984670de0b6b3a7640000611577565b9250505090565b60035460405163206f279960e01b8152600091829182916001600160a01b037f0000000000000000000000000000000000000000000000000000000000000000169163206f2799916108999161ffff9091169042906004016126e9565b6101c06040518083038186803b1580156108b257600080fd5b505afa1580156108c6573d6000803e3d6000fd5b505050506040513d601f19601f820116820180604052508101906108ea91906122ef565b93509350505081600014156109055760001992505050610572565b80821161091757600092505050610572565b60035461093d906305f5e10090610569908486039062010000900460ff16600a0a611577565b92505050610572565b600061056f82610549565b60008061095d84611774565b909450905061096d848285611944565b9150826001600160a01b031660006001600160a01b03166000805160206127b0833981519152846040516109a191906125ae565b60405180910390a3826001600160a01b0316336001600160a01b03167fdcbc1c05240f31ff3ad067ef1ee35ce4997762752e3a095284754544f4c709d786856040516109ee9291906126fd565b60405180910390a35092915050565b600354630100000090046001600160a01b031681565b600061056f8261195e565b60035462010000900460ff1681565b7f000000000000000000000000000000000000000000000000000000000000000081565b600354604051631a05bce160e01b81526000916001600160a01b037f00000000000000000000000000000000000000000000000000000000000000001691631a05bce191610aa89161ffff90911690600401612639565b60206040518083038186803b158015610ac057600080fd5b505afa158015610ad4573d6000803e3d6000fd5b505050506040513d601f19601f820116820180604052508101906104b79190612276565b600354604051633b2987b360e01b81526000916001600160a01b037f00000000000000000000000000000000000000000000000000000000000000001691633b2987b391610aa89161ffff90911690600401612639565b600080610b5b84610946565b9150610b6682611774565b90925090506000610b78838386611944565b9050836001600160a01b031660006001600160a01b03166000805160206127b083398151915283604051610bac91906125ae565b60405180910390a3836001600160a01b0316336001600160a01b03167fdcbc1c05240f31ff3ad067ef1ee35ce4997762752e3a095284754544f4c709d78584604051610bf99291906126fd565b60405180910390a3505092915050565b6002805460408051602060018416156101000260001901909316849004601f810184900484028201840190925281815292918301828280156105415780601f1061051657610100808354040283529160200191610541565b7f00000000000000000000000000000000000000000000000000000000000000006001600160a01b0316638da5cb5b6040518163ffffffff1660e01b815260040160206040518083038186803b158015610cba57600080fd5b505afa158015610cce573d6000803e3d6000fd5b505050506040513d601f19601f82011682018060405250810190610cf2919061213d565b6001600160a01b0316336001600160a01b031614610d0f57600080fd5b6000806000610d1c611a07565b925092509250828583604051602001610d379392919061253c565b60405160208183030381529060405260019080519060200190610d5b929190612024565b508084604051602001610d6f92919061250d565b60405160208183030381529060405260029080519060200190610d93929190612024565b506040517f8d4bc6886f1b5887a0c7da5cf5dbdf35c7bcced78089e0e522b49be05817699990600090a15050505050565b6000826001600160a01b0316336001600160a01b03166000805160206127b083398151915284604051610df791906125ae565b60405180910390a3610e098383611a43565b9050806105d757600080fd5b336001600160a01b037f00000000000000000000000000000000000000000000000000000000000000001614610e5d5760405162461bcd60e51b815260040161069d90612613565b600054610100900460ff1680610e765750610e76611aa0565b80610e84575060005460ff16155b610ebf5760405162461bcd60e51b815260040180806020018281038252602e815260200180612782602e913960400191505060405180910390fd5b600054610100900460ff16158015610eea576000805460ff1961ff0019909116610100171660011790555b6003805461ffff191661ffff871617905560008080610f07611a07565b925092509250828683604051602001610f229392919061253c565b60405160208183030381529060405260019080519060200190610f46929190612024565b508085604051602001610f5a92919061250d565b60405160208183030381529060405260029080519060200190610f7e929190612024565b506001600160a01b038716610fbe57600380546301000000600160b81b0319167604b9c40df01bdc99dd2c31ae4b232f20f4bbac5b000000179055611018565b600380546301000000600160b81b03191663010000006001600160a01b038a8116820292909217928390556110189204167f0000000000000000000000000000000000000000000000000000000000000000600019611ab1565b60038054906101000a90046001600160a01b03166001600160a01b031663313ce5676040518163ffffffff1660e01b815260040160206040518083038186803b15801561106457600080fd5b505afa158015611078573d6000803e3d6000fd5b505050506040513d601f19601f8201168201806040525081019061109c91906124ec565b6003805462ff000019166201000060ff9384168102919091179182905560249104909116106110ca57600080fd5b50505080156110df576000805461ff00191690555b5050505050565b336001600160a01b037f0000000000000000000000000000000000000000000000000000000000000000161461112e5760405162461bcd60e51b815260040161069d90612613565b60008112156111755760006001600160a01b0383166000805160206127b083398151915261115b84611bc9565b60405161116891906125ae565b60405180910390a36111b0565b816001600160a01b031660006001600160a01b03166000805160206127b0833981519152836040516111a791906125ae565b60405180910390a35b5050565b60006111bf846105dd565b905060006111cc8361195e565b9050808211156111da578091505b60006111e7838686611944565b905060006001600160a01b0316846001600160a01b03166000805160206127b08339815191528560405161121b91906125ae565b60405180910390a3836001600160a01b0316856001600160a01b0316336001600160a01b03167ffbde797d201c681b91056529119e0b02407c7bb96a4a2c75c01fc9667232c8db84876040516112729291906126fd565b60405180910390a450509392505050565b600080611291858585611944565b905060006001600160a01b0316836001600160a01b03166000805160206127b0833981519152876040516112c591906125ae565b60405180910390a3826001600160a01b0316846001600160a01b0316336001600160a01b03167ffbde797d201c681b91056529119e0b02407c7bb96a4a2c75c01fc9667232c8db848960405161131c9291906126fd565b60405180910390a4949350505050565b600080611339600061083c565b905060001981141561134c579050610572565b61064e815b600061056f61135e610806565b61056984670de0b6b3a7640000611577565b336001600160a01b037f000000000000000000000000000000000000000000000000000000000000000016146113b85760405162461bcd60e51b815260040161069d90612613565b600082121561140757826001600160a01b0316846001600160a01b03166000805160206127b08339815191526113ed85611bd7565b6040516113fa91906125ae565b60405180910390a3611441565b836001600160a01b0316836001600160a01b03166000805160206127b08339815191528460405161143891906125ae565b60405180910390a35b610fee6001600160a01b0316846001600160a01b03166000805160206127b0833981519152836040516107ec91906125ae565b600061056f6102838361195e565b600061064e8383611bf8565b3b151590565b600354604051633b2987b360e01b815260009182916001600160a01b037f00000000000000000000000000000000000000000000000000000000000000001691633b2987b3916114eb9161ffff1690600401612639565b60206040518083038186803b15801561150357600080fd5b505afa158015611517573d6000803e3d6000fd5b505050506040513d601f19601f8201168201806040525081019061153b9190612276565b6003549091506115719061156c906305f5e1009061156690859062010000900460ff16600a0a611ca3565b90611cf1565b611d22565b91505090565b600082611586575060006105d7565b8282028284828161159357fe5b041461064e57600080fd5b60008082116115ac57600080fd5b8183816115b557fe5b049392505050565b60035460405163184e005360e11b81526000916001600160a01b037f0000000000000000000000000000000000000000000000000000000000000000169163309c00a69161161a9161ffff90911690339088908890600401612699565b602060405180830381600087803b15801561163457600080fd5b505af1158015611648573d6000803e3d6000fd5b505050506040513d601f19601f8201168201806040525081019061064e9190612256565b604051636a96e86f60e01b81526000906001600160a01b037f00000000000000000000000000000000000000000000000000000000000000001690636a96e86f90610aa890309060040161258f565b600354604051634425384960e11b81526000916001600160a01b037f0000000000000000000000000000000000000000000000000000000000000000169163884a70929161171a9161ffff909116903390899089908990600401612665565b602060405180830381600087803b15801561173457600080fd5b505af1158015611748573d6000803e3d6000fd5b505050506040513d601f19601f8201168201806040525081019061176c9190612256565b949350505050565b6003546040516370a0823160e01b815260009182918291630100000090046001600160a01b0316906370a08231906117b090309060040161258f565b60206040518083038186803b1580156117c857600080fd5b505afa1580156117dc573d6000803e3d6000fd5b505050506040513d601f19601f820116820180604052508101906118009190612276565b905061182160038054906101000a90046001600160a01b0316333087611d35565b6003546040516370a0823160e01b8152600091630100000090046001600160a01b0316906370a082319061185990309060040161258f565b60206040518083038186803b15801561187157600080fd5b505afa158015611885573d6000803e3d6000fd5b505050506040513d601f19601f820116820180604052508101906118a99190612276565b90506118b58183611d95565b60035490945061ffff166001141561193857604051632e1a7d4d60e01b81527304b9c40df01bdc99dd2c31ae4b232f20f4bbac5b90632e1a7d4d906118fe9087906004016125ae565b600060405180830381600087803b15801561191857600080fd5b505af115801561192c573d6000803e3d6000fd5b5050505083925061193d565b600092505b5050915091565b600060405162461bcd60e51b815260040161069d906125ea565b60035460405163a78dbfff60e01b81526000916001600160a01b037f0000000000000000000000000000000000000000000000000000000000000000169163a78dbfff916119b79161ffff909116908690600401612648565b60206040518083038186803b1580156119cf57600080fd5b505afa1580156119e3573d6000803e3d6000fd5b505050506040513d601f19601f8201168201806040525081019061056f9190612276565b6040805180820182526006815265372a37b5b2b760d11b602080830191909152825180840190935260018352603760f91b908301529160609190565b6003546040516318ae40d760e01b81526000916001600160a01b037f000000000000000000000000000000000000000000000000000000000000000016916318ae40d79161161a9161ffff90911690339088908890600401612699565b6000611aab3061148e565b15905090565b801580611b37575060408051636eb1769f60e11b81523060048201526001600160a01b03848116602483015291519185169163dd62ed3e91604480820192602092909190829003018186803b158015611b0957600080fd5b505afa158015611b1d573d6000803e3d6000fd5b505050506040513d6020811015611b3357600080fd5b5051155b611b725760405162461bcd60e51b81526004018080602001828103825260368152602001806127fa6036913960400191505060405180910390fd5b604080516001600160a01b038416602482015260448082018490528251808303909101815260649091019091526020810180516001600160e01b031663095ea7b360e01b179052611bc4908490611daa565b505050565b600061056f60001983611ca3565b600080821215611bf157611bea82611bc9565b9050610572565b5080610572565b600354604051637db31ab960e01b81526000916001600160a01b037f00000000000000000000000000000000000000000000000000000000000000001691637db31ab991611c539161ffff90911690879087906004016126c4565b60206040518083038186803b158015611c6b57600080fd5b505afa158015611c7f573d6000803e3d6000fd5b505050506040513d601f19601f8201168201806040525081019061064e9190612276565b818102600019831415611cd357811580611cc5575082828281611cc257fe5b05145b611cce57600080fd5b6105d7565b821580611ce8575081838281611ce557fe5b05145b6105d757600080fd5b600081600019148015611d075750600160ff1b83145b15611d1157600080fd5b818381611d1a57fe5b059392505050565b600080821215611d3157600080fd5b5090565b604080516001600160a01b0380861660248301528416604482015260648082018490528251808303909101815260849091019091526020810180516001600160e01b03166323b872dd60e01b179052611d8f908590611daa565b50505050565b600082821115611da457600080fd5b50900390565b6000611dff826040518060400160405280602081526020017f5361666545524332303a206c6f772d6c6576656c2063616c6c206661696c6564815250856001600160a01b0316611e5b9092919063ffffffff16565b805190915015611bc457808060200190516020811015611e1e57600080fd5b5051611bc45760405162461bcd60e51b815260040180806020018281038252602a8152602001806127d0602a913960400191505060405180910390fd5b606061176c848460008585611e6f8561148e565b611ec0576040805162461bcd60e51b815260206004820152601d60248201527f416464726573733a2063616c6c20746f206e6f6e2d636f6e7472616374000000604482015290519081900360640190fd5b600080866001600160a01b031685876040518082805190602001908083835b60208310611efe5780518252601f199092019160209182019101611edf565b6001836020036101000a03801982511681845116808217855250505050505090500191505060006040518083038185875af1925050503d8060008114611f60576040519150601f19603f3d011682016040523d82523d6000602084013e611f65565b606091505b5091509150611f75828286611f80565b979650505050505050565b60608315611f8f57508161064e565b825115611f9f5782518084602001fd5b8160405162461bcd60e51b81526004018080602001828103825283818151815260200191508051906020019080838360005b83811015611fe9578181015183820152602001611fd1565b50505050905090810190601f1680156120165780820380516001836020036101000a031916815260200191505b509250505060405180910390fd5b828054600181600116156101000203166002900490600052602060002090601f01602090048101928261205a57600085556120a0565b82601f1061207357805160ff19168380011785556120a0565b828001600101855582156120a0579182015b828111156120a0578251825591602001919060010190612085565b50611d319291505b80821115611d3157600081556001016120a8565b600082601f8301126120cc578081fd5b813567ffffffffffffffff8111156120e057fe5b6120f3601f8201601f1916602001612719565b818152846020838601011115612107578283fd5b816020850160208301379081016020019190915292915050565b600060208284031215612132578081fd5b813561064e81612769565b60006020828403121561214e578081fd5b815161064e81612769565b6000806040838503121561216b578081fd5b823561217681612769565b9150602083013561218681612769565b809150509250929050565b600080600080608085870312156121a6578182fd5b84356121b181612769565b935060208501356121c181612769565b93969395505050506040820135916060013590565b6000806000606084860312156121ea578283fd5b83356121f581612769565b9250602084013561220581612769565b929592945050506040919091013590565b600080600080608085870312156121a6578384fd5b6000806040838503121561223d578182fd5b823561224881612769565b946020939093013593505050565b600060208284031215612267578081fd5b8151801515811461064e578182fd5b600060208284031215612287578081fd5b5051919050565b600080604083850312156122a0578182fd5b823567ffffffffffffffff808211156122b7578384fd5b6122c3868387016120bc565b935060208501359150808211156122d8578283fd5b506122e5858286016120bc565b9150509250929050565b6000806000808486036101c0811215612306578283fd5b6060811215612313578283fd5b6040516060810181811067ffffffffffffffff8211171561233057fe5b6040908152875182526020808901519083015287810151908201529450610120605f198201811315612360578384fd5b61236981612719565b9150606087015182526080870151602083015260a0870151604083015260c0870151606083015260e087015160808301526101008088015160a08401528188015160c084015261014088015160e08401526101608801518184015250508093505061018085015191506101a0850151905092959194509250565b600080600080608085870312156123f8578182fd5b843561ffff81168114612409578283fd5b9350602085013561241981612769565b9250604085013567ffffffffffffffff80821115612435578384fd5b612441888389016120bc565b93506060870135915080821115612456578283fd5b50612463878288016120bc565b91505092959194509250565b600060208284031215612480578081fd5b5035919050565b60008060408385031215612499578182fd5b82359150602083013561218681612769565b6000806000606084860312156124bf578081fd5b8335925060208401356124d181612769565b915060408401356124e181612769565b809150509250925092565b6000602082840312156124fd578081fd5b815160ff8116811461064e578182fd5b6000835161251f81846020880161273d565b83519083019061253381836020880161273d565b01949350505050565b6000845161254e81846020890161273d565b600160fd1b908301908152845161256c81600184016020890161273d565b845191019061258281600184016020880161273d565b0160010195945050505050565b6001600160a01b0391909116815260200190565b901515815260200190565b90815260200190565b60006020825282518060208401526125d681604085016020870161273d565b601f01601f19169190910160400192915050565b6020808252600f908201526e139bdd08125b5c1b195b595b9d1959608a1b604082015260600190565b6020808252600c908201526b155b985d5d1a1bdc9a5e995960a21b604082015260600190565b61ffff91909116815260200190565b61ffff9290921682526001600160a01b0316602082015260400190565b61ffff9590951685526001600160a01b03938416602086015291831660408501529091166060830152608082015260a00190565b61ffff9490941684526001600160a01b03928316602085015291166040830152606082015260800190565b61ffff9390931683526001600160a01b03918216602084015216604082015260600190565b61ffff929092168252602082015260400190565b918252602082015260400190565b60ff91909116815260200190565b60405181810167ffffffffffffffff8111828210171561273557fe5b604052919050565b60005b83811015612758578181015183820152602001612740565b83811115611d8f5750506000910152565b6001600160a01b038116811461277e57600080fd5b5056fe496e697469616c697a61626c653a20636f6e747261637420697320616c726561647920696e697469616c697a6564ddf252ad1be2c89b69c2b068fc378daa952ba7f163c4a11628f55a4df523b3ef5361666545524332303a204552433230206f7065726174696f6e20646964206e6f7420737563636565645361666545524332303a20617070726f76652066726f6d206e6f6e2d7a65726f20746f206e6f6e2d7a65726f20616c6c6f77616e6365a2646970667358221220c2f7588ef8752396aac43b5843c0ecf48f2a2014c928fb7866a41dec43db186f64736f6c63430007060033496e697469616c697a61626c653a20636f6e747261637420697320616c726561647920696e697469616c697a6564","bytecodeSha1":"da39a3ee5e6b4b0d3255bfef95601890afd80709","compiler":{"evm_version":"istanbul","optimizer":{"enabled":true,"runs":200},"version":"0.7.6+commit.7338295f"},"contractName":"nTokenERC20Proxy","language":"Solidity","natspec":{"kind":"dev","methods":{"EXCHANGE_RATE_PRECISION()":{"notice":"Precision for exchangeRate()"},"NOTIONAL()":{"notice":"Address of the notional proxy, proxies only have access to a subset of the methods"},"approve(address,uint256)":{"details":"Sets `amount` as the allowance of `spender` over the caller's tokens. Returns a boolean value indicating whether the operation succeeded. IMPORTANT: Beware that changing an allowance with this method brings the risk that someone may use both the old and the new allowance by unfortunate transaction ordering. One possible solution to mitigate this race condition is to first reduce the spender's allowance to 0 and set the desired value afterwards: https://github.com/ethereum/EIPs/issues/20#issuecomment-263524729 Emits an {Approval} event."},"asset()":{"notice":"Returns the asset token reference by IERC4626, uses the underlying token as the asset for ERC4626 so that it is compatible with more use cases."},"balanceOf(address)":{"notice":"Required ERC20 Methods "},"convertToAssets(uint256)":{"notice":"Converts nToken denomination to underlying denomination"},"convertToShares(uint256)":{"notice":"Converts an underlying token to an nToken denomination"},"currencyId()":{"notice":"Currency id that this nToken refers to"},"decimals()":{"notice":"Inherits from Constants.INTERNAL_TOKEN_PRECISION"},"deposit(uint256,address)":{"notice":"Deposits assets into nToken for the receiver's account. Requires that the ERC4626 token has approval to transfer assets from the msg.sender directly to Notional."},"emitMintOrBurn(address,int256)":{"notice":"Convenience method for minting and burning"},"emitMintTransferBurn(address,address,uint256,uint256)":{"notice":"Convenience method for mint, transfer and burn. Used in vaults to record margin deposits and withdraws."},"emitTransfer(address,address,uint256)":{"notice":"Allows ERC20 transfer events to be emitted from the proper address so that wallet tools can properly track balances."},"emitfCashTradeTransfers(address,address,int256,uint256)":{"notice":"Only used on pCash when fCash is traded."},"getPresentValueAssetDenominated()":{"notice":"Returns the present value of the nToken's assets denominated in asset tokens"},"getPresentValueUnderlyingDenominated()":{"notice":"Returns the present value of the nToken's assets denominated in underlying"},"maxDeposit(address)":{"notice":"Gets the max underlying supply"},"maxMint(address)":{"notice":"Gets the max underlying supply and converts it to shares"},"maxRedeem(address)":{"details":"Returns the maximum amount of Vault shares that can be redeemed from the owner balance in the Vault, through a redeem call. - MUST return a limited value if owner is subject to some withdrawal limit or timelock. - MUST return balanceOf(owner) if owner is not subject to any withdrawal limit or timelock. - MUST NOT revert."},"maxWithdraw(address)":{"details":"Returns the maximum amount of the underlying asset that can be withdrawn from the owner balance in the Vault, through a withdraw call. - MUST return a limited value if owner is subject to some withdrawal limit or timelock. - MUST NOT revert."},"mint(uint256,address)":{"notice":"Deposits assets into nToken for the receiver's account. Requires that the ERC4626 token has approval to transfer assets from the msg.sender directly to Notional."},"name()":{"notice":"Will be \"[Staked] nToken {Underlying Token}.name()\", therefore \"USD Coin\" will be \"nToken USD Coin\" for the regular nToken and \"Staked nToken USD Coin\" for the staked version."},"nativeDecimals()":{"notice":"Native underlying decimal places"},"previewDeposit(uint256)":{"notice":"Deposits are based on the conversion rate assets to shares"},"previewMint(uint256)":{"notice":"Mints are based on the conversion rate from shares to assets"},"previewRedeem(uint256)":{"details":"Redemptions of nToken shares to underlying assets will experience slippage which is not easily calculated. In some situations, slippage may be so great that the shares are not able to be redeemed purely via the ERC4626 method and would require the account to call nTokenRedeem on AccountAction and take on illiquid fCash residuals.","notice":"Return value is an over-estimation of the assets that the user will receive via redemptions, this method does not account for slippage and potential illiquid residuals. This method is not completely ERC4626 compliant in that sense."},"previewWithdraw(uint256)":{"notice":"Return value is an under-estimation of the shares that the user will need to redeem to raise assets, this method does not account for slippage and potential illiquid residuals. This method is not completely ERC4626 compliant in that sense."},"redeem(uint256,address,address)":{"notice":"Redeems the specified amount of nTokens (shares) for some amount of assets."},"symbol()":{"notice":"Will be \"[s]n{Underlying Token}.symbol()\", therefore \"USDC\" will be \"nUSDC\""},"totalAssets()":{"notice":"Returns the total present value of the nTokens held in native underlying token precision"},"totalSupply()":{"details":"Returns the amount of tokens in existence."},"underlying()":{"notice":"ERC20 underlying token referred to as the \"asset\" in IERC4626"},"withdraw(uint256,address,address)":{"notice":"Redeems assets from the owner and sends them to the receiver. WARNING: the assets provided as a value here will not be what the method actually redeems due to estimation issues."}},"notice":"ERC20 proxy for nToken contracts that forwards calls to the Router, all nToken balances and allowances are stored in at single address for gas efficiency. This contract is used simply for ERC20 compliance.","version":1},"opcodes":"PUSH1 0x80 PUSH1 0x40 MSTORE CALLVALUE DUP1 ISZERO PUSH2 0x10 JUMPI PUSH1 0x0 DUP1 REVERT JUMPDEST POP PUSH1 0x4 CALLDATASIZE LT PUSH2 0x23D JUMPI PUSH1 0x0 CALLDATALOAD PUSH1 0xE0 SHR DUP1 PUSH4 0x768EA56A GT PUSH2 0x13B JUMPI DUP1 PUSH4 0xB3D7F6B9 GT PUSH2 0xB8 JUMPI DUP1 PUSH4 0xCCB2D5ED GT PUSH2 0x7C JUMPI DUP1 PUSH4 0xCCB2D5ED EQ PUSH2 0x474 JUMPI DUP1 PUSH4 0xCE96CB77 EQ PUSH2 0x487 JUMPI DUP1 PUSH4 0xD905777E EQ PUSH2 0x38E JUMPI DUP1 PUSH4 0xDD62ED3E EQ PUSH2 0x49A JUMPI DUP1 PUSH4 0xEF8B30F7 EQ PUSH2 0x2A8 JUMPI PUSH2 0x23D JUMP JUMPDEST DUP1 PUSH4 0xB3D7F6B9 EQ PUSH2 0x360 JUMPI DUP1 PUSH4 0xB460AF94 EQ PUSH2 0x428 JUMPI DUP1 PUSH4 0xBA087652 EQ PUSH2 0x43B JUMPI DUP1 PUSH4 0xC63D75B6 EQ PUSH2 0x44E JUMPI DUP1 PUSH4 0xC6E6F592 EQ PUSH2 0x461 JUMPI PUSH2 0x23D JUMP JUMPDEST DUP1 PUSH4 0x95D89B41 GT PUSH2 0xFF JUMPI DUP1 PUSH4 0x95D89B41 EQ PUSH2 0x3D4 JUMPI DUP1 PUSH4 0x9C7C722B EQ PUSH2 0x3DC JUMPI DUP1 PUSH4 0xA9059CBB EQ PUSH2 0x3EF JUMPI DUP1 PUSH4 0xA992714E EQ PUSH2 0x402 JUMPI DUP1 PUSH4 0xAD1C095D EQ PUSH2 0x415 JUMPI PUSH2 0x23D JUMP JUMPDEST DUP1 PUSH4 0x768EA56A EQ PUSH2 0x3A1 JUMPI DUP1 PUSH4 0x858DCCB3 EQ PUSH2 0x3A9 JUMPI DUP1 PUSH4 0x90AB60A7 EQ PUSH2 0x3B1 JUMPI DUP1 PUSH4 0x91CF16A8 EQ PUSH2 0x3B9 JUMPI DUP1 PUSH4 0x94BF804D EQ PUSH2 0x3C1 JUMPI PUSH2 0x23D JUMP JUMPDEST DUP1 PUSH4 0x313CE567 GT PUSH2 0x1C9 JUMPI DUP1 PUSH4 0x402D267D GT PUSH2 0x18D JUMPI DUP1 PUSH4 0x402D267D EQ PUSH2 0x34D JUMPI DUP1 PUSH4 0x4CDAD506 EQ PUSH2 0x360 JUMPI DUP1 PUSH4 0x6E553F65 EQ PUSH2 0x373 JUMPI DUP1 PUSH4 0x6F307DC3 EQ PUSH2 0x386 JUMPI DUP1 PUSH4 0x70A08231 EQ PUSH2 0x38E JUMPI PUSH2 0x23D JUMP JUMPDEST DUP1 PUSH4 0x313CE567 EQ PUSH2 0x300 JUMPI DUP1 PUSH4 0x38D52E0F EQ PUSH2 0x315 JUMPI DUP1 PUSH4 0x39DE9746 EQ PUSH2 0x32A JUMPI DUP1 PUSH4 0x3A01B964 EQ PUSH2 0x33D JUMPI DUP1 PUSH4 0x3BA0B9A9 EQ PUSH2 0x345 JUMPI PUSH2 0x23D JUMP JUMPDEST DUP1 PUSH4 0xA28A477 GT PUSH2 0x210 JUMPI DUP1 PUSH4 0xA28A477 EQ PUSH2 0x2A8 JUMPI DUP1 PUSH4 0x18160DDD EQ PUSH2 0x2BB JUMPI DUP1 PUSH4 0x1FEEECE2 EQ PUSH2 0x2C3 JUMPI DUP1 PUSH4 0x23B872DD EQ PUSH2 0x2D8 JUMPI DUP1 PUSH4 0x23DE6651 EQ PUSH2 0x2EB JUMPI PUSH2 0x23D JUMP JUMPDEST DUP1 PUSH4 0x1E1D114 EQ PUSH2 0x242 JUMPI DUP1 PUSH4 0x6FDDE03 EQ PUSH2 0x260 JUMPI DUP1 PUSH4 0x7A2D13A EQ PUSH2 0x275 JUMPI DUP1 PUSH4 0x95EA7B3 EQ PUSH2 0x288 JUMPI JUMPDEST PUSH1 0x0 DUP1 REVERT JUMPDEST PUSH2 0x24A PUSH2 0x4AD JUMP JUMPDEST PUSH1 0x40 MLOAD PUSH2 0x257 SWAP2 SWAP1 PUSH2 0x25AE JUMP JUMPDEST PUSH1 0x40 MLOAD DUP1 SWAP2 SUB SWAP1 RETURN JUMPDEST PUSH2 0x268 PUSH2 0x4BC JUMP JUMPDEST PUSH1 0x40 MLOAD PUSH2 0x257 SWAP2 SWAP1 PUSH2 0x25B7 JUMP JUMPDEST PUSH2 0x24A PUSH2 0x283 CALLDATASIZE PUSH1 0x4 PUSH2 0x246F JUMP JUMPDEST PUSH2 0x549 JUMP JUMPDEST PUSH2 0x29B PUSH2 0x296 CALLDATASIZE PUSH1 0x4 PUSH2 0x222B JUMP JUMPDEST PUSH2 0x577 JUMP JUMPDEST PUSH1 0x40 MLOAD PUSH2 0x257 SWAP2 SWAP1 PUSH2 0x25A3 JUMP JUMPDEST PUSH2 0x24A PUSH2 0x2B6 CALLDATASIZE PUSH1 0x4 PUSH2 0x246F JUMP JUMPDEST PUSH2 0x5DD JUMP JUMPDEST PUSH2 0x24A PUSH2 0x5E8 JUMP JUMPDEST PUSH2 0x2CB PUSH2 0x5F2 JUMP JUMPDEST PUSH1 0x40 MLOAD PUSH2 0x257 SWAP2 SWAP1 PUSH2 0x2639 JUMP JUMPDEST PUSH2 0x29B PUSH2 0x2E6 CALLDATASIZE PUSH1 0x4 PUSH2 0x21D6 JUMP JUMPDEST PUSH2 0x5FC JUMP JUMPDEST PUSH2 0x2FE PUSH2 0x2F9 CALLDATASIZE PUSH1 0x4 PUSH2 0x21D6 JUMP JUMPDEST PUSH2 0x655 JUMP JUMPDEST STOP JUMPDEST PUSH2 0x308 PUSH2 0x6E4 JUMP JUMPDEST PUSH1 0x40 MLOAD PUSH2 0x257 SWAP2 SWAP1 PUSH2 0x270B JUMP JUMPDEST PUSH2 0x31D PUSH2 0x6E9 JUMP JUMPDEST PUSH1 0x40 MLOAD PUSH2 0x257 SWAP2 SWAP1 PUSH2 0x258F JUMP JUMPDEST PUSH2 0x2FE PUSH2 0x338 CALLDATASIZE PUSH1 0x4 PUSH2 0x2216 JUMP JUMPDEST PUSH2 0x6FF JUMP JUMPDEST PUSH2 0x24A PUSH2 0x7FA JUMP JUMPDEST PUSH2 0x24A PUSH2 0x806 JUMP JUMPDEST PUSH2 0x24A PUSH2 0x35B CALLDATASIZE PUSH1 0x4 PUSH2 0x2121 JUMP JUMPDEST PUSH2 0x83C JUMP JUMPDEST PUSH2 0x24A PUSH2 0x36E CALLDATASIZE PUSH1 0x4 PUSH2 0x246F JUMP JUMPDEST PUSH2 0x946 JUMP JUMPDEST PUSH2 0x24A PUSH2 0x381 CALLDATASIZE PUSH1 0x4 PUSH2 0x2487 JUMP JUMPDEST PUSH2 0x951 JUMP JUMPDEST PUSH2 0x31D PUSH2 0x9FD JUMP JUMPDEST PUSH2 0x24A PUSH2 0x39C CALLDATASIZE PUSH1 0x4 PUSH2 0x2121 JUMP JUMPDEST PUSH2 0xA13 JUMP JUMPDEST PUSH2 0x308 PUSH2 0xA1E JUMP JUMPDEST PUSH2 0x31D PUSH2 0xA2D JUMP JUMPDEST PUSH2 0x24A PUSH2 0xA51 JUMP JUMPDEST PUSH2 0x24A PUSH2 0xAF8 JUMP JUMPDEST PUSH2 0x24A PUSH2 0x3CF CALLDATASIZE PUSH1 0x4 PUSH2 0x2487 JUMP JUMPDEST PUSH2 0xB4F JUMP JUMPDEST PUSH2 0x268 PUSH2 0xC09 JUMP JUMPDEST PUSH2 0x2FE PUSH2 0x3EA CALLDATASIZE PUSH1 0x4 PUSH2 0x228E JUMP JUMPDEST PUSH2 0xC61 JUMP JUMPDEST PUSH2 0x29B PUSH2 0x3FD CALLDATASIZE PUSH1 0x4 PUSH2 0x222B JUMP JUMPDEST PUSH2 0xDC4 JUMP JUMPDEST PUSH2 0x2FE PUSH2 0x410 CALLDATASIZE PUSH1 0x4 PUSH2 0x23E3 JUMP JUMPDEST PUSH2 0xE15 JUMP JUMPDEST PUSH2 0x2FE PUSH2 0x423 CALLDATASIZE PUSH1 0x4 PUSH2 0x222B JUMP JUMPDEST PUSH2 0x10E6 JUMP JUMPDEST PUSH2 0x24A PUSH2 0x436 CALLDATASIZE PUSH1 0x4 PUSH2 0x24AB JUMP JUMPDEST PUSH2 0x11B4 JUMP JUMPDEST PUSH2 0x24A PUSH2 0x449 CALLDATASIZE PUSH1 0x4 PUSH2 0x24AB JUMP JUMPDEST PUSH2 0x1283 JUMP JUMPDEST PUSH2 0x24A PUSH2 0x45C CALLDATASIZE PUSH1 0x4 PUSH2 0x2121 JUMP JUMPDEST PUSH2 0x132C JUMP JUMPDEST PUSH2 0x24A PUSH2 0x46F CALLDATASIZE PUSH1 0x4 PUSH2 0x246F JUMP JUMPDEST PUSH2 0x1351 JUMP JUMPDEST PUSH2 0x2FE PUSH2 0x482 CALLDATASIZE PUSH1 0x4 PUSH2 0x2191 JUMP JUMPDEST PUSH2 0x1370 JUMP JUMPDEST PUSH2 0x24A PUSH2 0x495 CALLDATASIZE PUSH1 0x4 PUSH2 0x2121 JUMP JUMPDEST PUSH2 0x1474 JUMP JUMPDEST PUSH2 0x24A PUSH2 0x4A8 CALLDATASIZE PUSH1 0x4 PUSH2 0x2159 JUMP JUMPDEST PUSH2 0x1482 JUMP JUMPDEST PUSH1 0x0 PUSH2 0x4B7 PUSH2 0x1494 JUMP JUMPDEST SWAP1 POP SWAP1 JUMP JUMPDEST PUSH1 0x1 DUP1 SLOAD PUSH1 0x40 DUP1 MLOAD PUSH1 0x20 PUSH1 0x2 DUP5 DUP7 AND ISZERO PUSH2 0x100 MUL PUSH1 0x0 NOT ADD SWAP1 SWAP5 AND SWAP4 SWAP1 SWAP4 DIV PUSH1 0x1F DUP2 ADD DUP5 SWAP1 DIV DUP5 MUL DUP3 ADD DUP5 ADD SWAP1 SWAP3 MSTORE DUP2 DUP2 MSTORE SWAP3 SWAP2 DUP4 ADD DUP3 DUP3 DUP1 ISZERO PUSH2 0x541 JUMPI DUP1 PUSH1 0x1F LT PUSH2 0x516 JUMPI PUSH2 0x100 DUP1 DUP4 SLOAD DIV MUL DUP4 MSTORE SWAP2 PUSH1 0x20 ADD SWAP2 PUSH2 0x541 JUMP JUMPDEST DUP3 ADD SWAP2 SWAP1 PUSH1 0x0 MSTORE PUSH1 0x20 PUSH1 0x0 KECCAK256 SWAP1 JUMPDEST DUP2 SLOAD DUP2 MSTORE SWAP1 PUSH1 0x1 ADD SWAP1 PUSH1 0x20 ADD DUP1 DUP4 GT PUSH2 0x524 JUMPI DUP3 SWAP1 SUB PUSH1 0x1F AND DUP3 ADD SWAP2 JUMPDEST POP POP POP POP POP DUP2 JUMP JUMPDEST PUSH1 0x0 PUSH2 0x56F PUSH8 0xDE0B6B3A7640000 PUSH2 0x569 DUP5 PUSH2 0x563 PUSH2 0x806 JUMP JUMPDEST SWAP1 PUSH2 0x1577 JUMP JUMPDEST SWAP1 PUSH2 0x159E JUMP JUMPDEST SWAP1 POP JUMPDEST SWAP2 SWAP1 POP JUMP JUMPDEST PUSH1 0x0 PUSH2 0x583 DUP4 DUP4 PUSH2 0x15BD JUMP JUMPDEST SWAP1 POP DUP1 ISZERO PUSH2 0x5D7 JUMPI DUP3 PUSH1 0x1 PUSH1 0x1 PUSH1 0xA0 SHL SUB AND CALLER PUSH1 0x1 PUSH1 0x1 PUSH1 0xA0 SHL SUB AND PUSH32 0x8C5BE1E5EBEC7D5BD14F71427D1E84F3DD0314C0F7B2291E5B200AC8C7C3B925 DUP5 PUSH1 0x40 MLOAD PUSH2 0x5CE SWAP2 SWAP1 PUSH2 0x25AE JUMP JUMPDEST PUSH1 0x40 MLOAD DUP1 SWAP2 SUB SWAP1 LOG3 JUMPDEST SWAP3 SWAP2 POP POP JUMP JUMPDEST PUSH1 0x0 PUSH2 0x56F DUP3 PUSH2 0x1351 JUMP JUMPDEST PUSH1 0x0 PUSH2 0x4B7 PUSH2 0x166C JUMP JUMPDEST PUSH1 0x3 SLOAD PUSH2 0xFFFF AND DUP2 JUMP JUMPDEST PUSH1 0x0 DUP3 PUSH1 0x1 PUSH1 0x1 PUSH1 0xA0 SHL SUB AND DUP5 PUSH1 0x1 PUSH1 0x1 PUSH1 0xA0 SHL SUB AND PUSH1 0x0 DUP1 MLOAD PUSH1 0x20 PUSH2 0x27B0 DUP4 CODECOPY DUP2 MLOAD SWAP2 MSTORE DUP5 PUSH1 0x40 MLOAD PUSH2 0x62F SWAP2 SWAP1 PUSH2 0x25AE JUMP JUMPDEST PUSH1 0x40 MLOAD DUP1 SWAP2 SUB SWAP1 LOG3 PUSH2 0x642 DUP5 DUP5 DUP5 PUSH2 0x16BB JUMP JUMPDEST SWAP1 POP DUP1 PUSH2 0x64E JUMPI PUSH1 0x0 DUP1 REVERT JUMPDEST SWAP4 SWAP3 POP POP POP JUMP JUMPDEST CALLER PUSH1 0x1 PUSH1 0x1 PUSH1 0xA0 SHL SUB PUSH32 0x0 AND EQ PUSH2 0x6A6 JUMPI PUSH1 0x40 MLOAD PUSH3 0x461BCD PUSH1 0xE5 SHL DUP2 MSTORE PUSH1 0x4 ADD PUSH2 0x69D SWAP1 PUSH2 0x2613 JUMP JUMPDEST PUSH1 0x40 MLOAD DUP1 SWAP2 SUB SWAP1 REVERT JUMPDEST DUP2 PUSH1 0x1 PUSH1 0x1 PUSH1 0xA0 SHL SUB AND DUP4 PUSH1 0x1 PUSH1 0x1 PUSH1 0xA0 SHL SUB AND PUSH1 0x0 DUP1 MLOAD PUSH1 0x20 PUSH2 0x27B0 DUP4 CODECOPY DUP2 MLOAD SWAP2 MSTORE DUP4 PUSH1 0x40 MLOAD PUSH2 0x6D7 SWAP2 SWAP1 PUSH2 0x25AE JUMP JUMPDEST PUSH1 0x40 MLOAD DUP1 SWAP2 SUB SWAP1 LOG3 POP POP POP JUMP JUMPDEST PUSH1 0x8 DUP2 JUMP JUMPDEST PUSH1 0x3 SLOAD PUSH4 0x1000000 SWAP1 DIV PUSH1 0x1 PUSH1 0x1 PUSH1 0xA0 SHL SUB AND SWAP1 JUMP JUMPDEST CALLER PUSH1 0x1 PUSH1 0x1 PUSH1 0xA0 SHL SUB PUSH32 0x0 AND EQ PUSH2 0x747 JUMPI PUSH1 0x40 MLOAD PUSH3 0x461BCD PUSH1 0xE5 SHL DUP2 MSTORE PUSH1 0x4 ADD PUSH2 0x69D SWAP1 PUSH2 0x2613 JUMP JUMPDEST DUP4 PUSH1 0x1 PUSH1 0x1 PUSH1 0xA0 SHL SUB AND PUSH1 0x0 PUSH1 0x1 PUSH1 0x1 PUSH1 0xA0 SHL SUB AND PUSH1 0x0 DUP1 MLOAD PUSH1 0x20 PUSH2 0x27B0 DUP4 CODECOPY DUP2 MLOAD SWAP2 MSTORE DUP5 PUSH1 0x40 MLOAD PUSH2 0x779 SWAP2 SWAP1 PUSH2 0x25AE JUMP JUMPDEST PUSH1 0x40 MLOAD DUP1 SWAP2 SUB SWAP1 LOG3 DUP3 PUSH1 0x1 PUSH1 0x1 PUSH1 0xA0 SHL SUB AND DUP5 PUSH1 0x1 PUSH1 0x1 PUSH1 0xA0 SHL SUB AND PUSH1 0x0 DUP1 MLOAD PUSH1 0x20 PUSH2 0x27B0 DUP4 CODECOPY DUP2 MLOAD SWAP2 MSTORE DUP4 PUSH1 0x40 MLOAD PUSH2 0x7B2 SWAP2 SWAP1 PUSH2 0x25AE JUMP JUMPDEST PUSH1 0x40 MLOAD DUP1 SWAP2 SUB SWAP1 LOG3 PUSH1 0x0 PUSH1 0x1 PUSH1 0x1 PUSH1 0xA0 SHL SUB AND DUP4 PUSH1 0x1 PUSH1 0x1 PUSH1 0xA0 SHL SUB AND PUSH1 0x0 DUP1 MLOAD PUSH1 0x20 PUSH2 0x27B0 DUP4 CODECOPY DUP2 MLOAD SWAP2 MSTORE DUP4 PUSH1 0x40 MLOAD PUSH2 0x7EC SWAP2 SWAP1 PUSH2 0x25AE JUMP JUMPDEST PUSH1 0x40 MLOAD DUP1 SWAP2 SUB SWAP1 LOG3 POP POP POP POP JUMP JUMPDEST PUSH8 0xDE0B6B3A7640000 DUP2 JUMP JUMPDEST PUSH1 0x0 DUP1 PUSH2 0x811 PUSH2 0x1494 JUMP JUMPDEST SWAP1 POP PUSH1 0x0 PUSH2 0x81D PUSH2 0x166C JUMP JUMPDEST SWAP1 POP PUSH2 0x835 DUP2 PUSH2 0x569 DUP5 PUSH8 0xDE0B6B3A7640000 PUSH2 0x1577 JUMP JUMPDEST SWAP3 POP POP POP SWAP1 JUMP JUMPDEST PUSH1 0x3 SLOAD PUSH1 0x40 MLOAD PUSH4 0x206F2799 PUSH1 0xE0 SHL DUP2 MSTORE PUSH1 0x0 SWAP2 DUP3 SWAP2 DUP3 SWAP2 PUSH1 0x1 PUSH1 0x1 PUSH1 0xA0 SHL SUB PUSH32 0x0 AND SWAP2 PUSH4 0x206F2799 SWAP2 PUSH2 0x899 SWAP2 PUSH2 0xFFFF SWAP1 SWAP2 AND SWAP1 TIMESTAMP SWAP1 PUSH1 0x4 ADD PUSH2 0x26E9 JUMP JUMPDEST PUSH2 0x1C0 PUSH1 0x40 MLOAD DUP1 DUP4 SUB DUP2 DUP7 DUP1 EXTCODESIZE ISZERO DUP1 ISZERO PUSH2 0x8B2 JUMPI PUSH1 0x0 DUP1 REVERT JUMPDEST POP GAS STATICCALL ISZERO DUP1 ISZERO PUSH2 0x8C6 JUMPI RETURNDATASIZE PUSH1 0x0 DUP1 RETURNDATACOPY RETURNDATASIZE PUSH1 0x0 REVERT JUMPDEST POP POP POP POP PUSH1 0x40 MLOAD RETURNDATASIZE PUSH1 0x1F NOT PUSH1 0x1F DUP3 ADD AND DUP3 ADD DUP1 PUSH1 0x40 MSTORE POP DUP2 ADD SWAP1 PUSH2 0x8EA SWAP2 SWAP1 PUSH2 0x22EF JUMP JUMPDEST SWAP4 POP SWAP4 POP POP POP DUP2 PUSH1 0x0 EQ ISZERO PUSH2 0x905 JUMPI PUSH1 0x0 NOT SWAP3 POP POP POP PUSH2 0x572 JUMP JUMPDEST DUP1 DUP3 GT PUSH2 0x917 JUMPI PUSH1 0x0 SWAP3 POP POP POP PUSH2 0x572 JUMP JUMPDEST PUSH1 0x3 SLOAD PUSH2 0x93D SWAP1 PUSH4 0x5F5E100 SWAP1 PUSH2 0x569 SWAP1 DUP5 DUP7 SUB SWAP1 PUSH3 0x10000 SWAP1 DIV PUSH1 0xFF AND PUSH1 0xA EXP PUSH2 0x1577 JUMP JUMPDEST SWAP3 POP POP POP PUSH2 0x572 JUMP JUMPDEST PUSH1 0x0 PUSH2 0x56F DUP3 PUSH2 0x549 JUMP JUMPDEST PUSH1 0x0 DUP1 PUSH2 0x95D DUP5 PUSH2 0x1774 JUMP JUMPDEST SWAP1 SWAP5 POP SWAP1 POP PUSH2 0x96D DUP5 DUP3 DUP6 PUSH2 0x1944 JUMP JUMPDEST SWAP2 POP DUP3 PUSH1 0x1 PUSH1 0x1 PUSH1 0xA0 SHL SUB AND PUSH1 0x0 PUSH1 0x1 PUSH1 0x1 PUSH1 0xA0 SHL SUB AND PUSH1 0x0 DUP1 MLOAD PUSH1 0x20 PUSH2 0x27B0 DUP4 CODECOPY DUP2 MLOAD SWAP2 MSTORE DUP5 PUSH1 0x40 MLOAD PUSH2 0x9A1 SWAP2 SWAP1 PUSH2 0x25AE JUMP JUMPDEST PUSH1 0x40 MLOAD DUP1 SWAP2 SUB SWAP1 LOG3 DUP3 PUSH1 0x1 PUSH1 0x1 PUSH1 0xA0 SHL SUB AND CALLER PUSH1 0x1 PUSH1 0x1 PUSH1 0xA0 SHL SUB AND PUSH32 0xDCBC1C05240F31FF3AD067EF1EE35CE4997762752E3A095284754544F4C709D7 DUP7 DUP6 PUSH1 0x40 MLOAD PUSH2 0x9EE SWAP3 SWAP2 SWAP1 PUSH2 0x26FD JUMP JUMPDEST PUSH1 0x40 MLOAD DUP1 SWAP2 SUB SWAP1 LOG3 POP SWAP3 SWAP2 POP POP JUMP JUMPDEST PUSH1 0x3 SLOAD PUSH4 0x1000000 SWAP1 DIV PUSH1 0x1 PUSH1 0x1 PUSH1 0xA0 SHL SUB AND DUP2 JUMP JUMPDEST PUSH1 0x0 PUSH2 0x56F DUP3 PUSH2 0x195E JUMP JUMPDEST PUSH1 0x3 SLOAD PUSH3 0x10000 SWAP1 DIV PUSH1 0xFF AND DUP2 JUMP JUMPDEST PUSH32 0x0 DUP2 JUMP JUMPDEST PUSH1 0x3 SLOAD PUSH1 0x40 MLOAD PUSH4 0x1A05BCE1 PUSH1 0xE0 SHL DUP2 MSTORE PUSH1 0x0 SWAP2 PUSH1 0x1 PUSH1 0x1 PUSH1 0xA0 SHL SUB PUSH32 0x0 AND SWAP2 PUSH4 0x1A05BCE1 SWAP2 PUSH2 0xAA8 SWAP2 PUSH2 0xFFFF SWAP1 SWAP2 AND SWAP1 PUSH1 0x4 ADD PUSH2 0x2639 JUMP JUMPDEST PUSH1 0x20 PUSH1 0x40 MLOAD DUP1 DUP4 SUB DUP2 DUP7 DUP1 EXTCODESIZE ISZERO DUP1 ISZERO PUSH2 0xAC0 JUMPI PUSH1 0x0 DUP1 REVERT JUMPDEST POP GAS STATICCALL ISZERO DUP1 ISZERO PUSH2 0xAD4 JUMPI RETURNDATASIZE PUSH1 0x0 DUP1 RETURNDATACOPY RETURNDATASIZE PUSH1 0x0 REVERT JUMPDEST POP POP POP POP PUSH1 0x40 MLOAD RETURNDATASIZE PUSH1 0x1F NOT PUSH1 0x1F DUP3 ADD AND DUP3 ADD DUP1 PUSH1 0x40 MSTORE POP DUP2 ADD SWAP1 PUSH2 0x4B7 SWAP2 SWAP1 PUSH2 0x2276 JUMP JUMPDEST PUSH1 0x3 SLOAD PUSH1 0x40 MLOAD PUSH4 0x3B2987B3 PUSH1 0xE0 SHL DUP2 MSTORE PUSH1 0x0 SWAP2 PUSH1 0x1 PUSH1 0x1 PUSH1 0xA0 SHL SUB PUSH32 0x0 AND SWAP2 PUSH4 0x3B2987B3 SWAP2 PUSH2 0xAA8 SWAP2 PUSH2 0xFFFF SWAP1 SWAP2 AND SWAP1 PUSH1 0x4 ADD PUSH2 0x2639 JUMP JUMPDEST PUSH1 0x0 DUP1 PUSH2 0xB5B DUP5 PUSH2 0x946 JUMP JUMPDEST SWAP2 POP PUSH2 0xB66 DUP3 PUSH2 0x1774 JUMP JUMPDEST SWAP1 SWAP3 POP SWAP1 POP PUSH1 0x0 PUSH2 0xB78 DUP4 DUP4 DUP7 PUSH2 0x1944 JUMP JUMPDEST SWAP1 POP DUP4 PUSH1 0x1 PUSH1 0x1 PUSH1 0xA0 SHL SUB AND PUSH1 0x0 PUSH1 0x1 PUSH1 0x1 PUSH1 0xA0 SHL SUB AND PUSH1 0x0 DUP1 MLOAD PUSH1 0x20 PUSH2 0x27B0 DUP4 CODECOPY DUP2 MLOAD SWAP2 MSTORE DUP4 PUSH1 0x40 MLOAD PUSH2 0xBAC SWAP2 SWAP1 PUSH2 0x25AE JUMP JUMPDEST PUSH1 0x40 MLOAD DUP1 SWAP2 SUB SWAP1 LOG3 DUP4 PUSH1 0x1 PUSH1 0x1 PUSH1 0xA0 SHL SUB AND CALLER PUSH1 0x1 PUSH1 0x1 PUSH1 0xA0 SHL SUB AND PUSH32 0xDCBC1C05240F31FF3AD067EF1EE35CE4997762752E3A095284754544F4C709D7 DUP6 DUP5 PUSH1 0x40 MLOAD PUSH2 0xBF9 SWAP3 SWAP2 SWAP1 PUSH2 0x26FD JUMP JUMPDEST PUSH1 0x40 MLOAD DUP1 SWAP2 SUB SWAP1 LOG3 POP POP SWAP3 SWAP2 POP POP JUMP JUMPDEST PUSH1 0x2 DUP1 SLOAD PUSH1 0x40 DUP1 MLOAD PUSH1 0x20 PUSH1 0x1 DUP5 AND ISZERO PUSH2 0x100 MUL PUSH1 0x0 NOT ADD SWAP1 SWAP4 AND DUP5 SWAP1 DIV PUSH1 0x1F DUP2 ADD DUP5 SWAP1 DIV DUP5 MUL DUP3 ADD DUP5 ADD SWAP1 SWAP3 MSTORE DUP2 DUP2 MSTORE SWAP3 SWAP2 DUP4 ADD DUP3 DUP3 DUP1 ISZERO PUSH2 0x541 JUMPI DUP1 PUSH1 0x1F LT PUSH2 0x516 JUMPI PUSH2 0x100 DUP1 DUP4 SLOAD DIV MUL DUP4 MSTORE SWAP2 PUSH1 0x20 ADD SWAP2 PUSH2 0x541 JUMP JUMPDEST PUSH32 0x0 PUSH1 0x1 PUSH1 0x1 PUSH1 0xA0 SHL SUB AND PUSH4 0x8DA5CB5B PUSH1 0x40 MLOAD DUP2 PUSH4 0xFFFFFFFF AND PUSH1 0xE0 SHL DUP2 MSTORE PUSH1 0x4 ADD PUSH1 0x20 PUSH1 0x40 MLOAD DUP1 DUP4 SUB DUP2 DUP7 DUP1 EXTCODESIZE ISZERO DUP1 ISZERO PUSH2 0xCBA JUMPI PUSH1 0x0 DUP1 REVERT JUMPDEST POP GAS STATICCALL ISZERO DUP1 ISZERO PUSH2 0xCCE JUMPI RETURNDATASIZE PUSH1 0x0 DUP1 RETURNDATACOPY RETURNDATASIZE PUSH1 0x0 REVERT JUMPDEST POP POP POP POP PUSH1 0x40 MLOAD RETURNDATASIZE PUSH1 0x1F NOT PUSH1 0x1F DUP3 ADD AND DUP3 ADD DUP1 PUSH1 0x40 MSTORE POP DUP2 ADD SWAP1 PUSH2 0xCF2 SWAP2 SWAP1 PUSH2 0x213D JUMP JUMPDEST PUSH1 0x1 PUSH1 0x1 PUSH1 0xA0 SHL SUB AND CALLER PUSH1 0x1 PUSH1 0x1 PUSH1 0xA0 SHL SUB AND EQ PUSH2 0xD0F JUMPI PUSH1 0x0 DUP1 REVERT JUMPDEST PUSH1 0x0 DUP1 PUSH1 0x0 PUSH2 0xD1C PUSH2 0x1A07 JUMP JUMPDEST SWAP3 POP SWAP3 POP SWAP3 POP DUP3 DUP6 DUP4 PUSH1 0x40 MLOAD PUSH1 0x20 ADD PUSH2 0xD37 SWAP4 SWAP3 SWAP2 SWAP1 PUSH2 0x253C JUMP JUMPDEST PUSH1 0x40 MLOAD PUSH1 0x20 DUP2 DUP4 SUB SUB DUP2 MSTORE SWAP1 PUSH1 0x40 MSTORE PUSH1 0x1 SWAP1 DUP1 MLOAD SWAP1 PUSH1 0x20 ADD SWAP1 PUSH2 0xD5B SWAP3 SWAP2 SWAP1 PUSH2 0x2024 JUMP JUMPDEST POP DUP1 DUP5 PUSH1 0x40 MLOAD PUSH1 0x20 ADD PUSH2 0xD6F SWAP3 SWAP2 SWAP1 PUSH2 0x250D JUMP JUMPDEST PUSH1 0x40 MLOAD PUSH1 0x20 DUP2 DUP4 SUB SUB DUP2 MSTORE SWAP1 PUSH1 0x40 MSTORE PUSH1 0x2 SWAP1 DUP1 MLOAD SWAP1 PUSH1 0x20 ADD SWAP1 PUSH2 0xD93 SWAP3 SWAP2 SWAP1 PUSH2 0x2024 JUMP JUMPDEST POP PUSH1 0x40 MLOAD PUSH32 0x8D4BC6886F1B5887A0C7DA5CF5DBDF35C7BCCED78089E0E522B49BE058176999 SWAP1 PUSH1 0x0 SWAP1 LOG1 POP POP POP POP POP JUMP JUMPDEST PUSH1 0x0 DUP3 PUSH1 0x1 PUSH1 0x1 PUSH1 0xA0 SHL SUB AND CALLER PUSH1 0x1 PUSH1 0x1 PUSH1 0xA0 SHL SUB AND PUSH1 0x0 DUP1 MLOAD PUSH1 0x20 PUSH2 0x27B0 DUP4 CODECOPY DUP2 MLOAD SWAP2 MSTORE DUP5 PUSH1 0x40 MLOAD PUSH2 0xDF7 SWAP2 SWAP1 PUSH2 0x25AE JUMP JUMPDEST PUSH1 0x40 MLOAD DUP1 SWAP2 SUB SWAP1 LOG3 PUSH2 0xE09 DUP4 DUP4 PUSH2 0x1A43 JUMP JUMPDEST SWAP1 POP DUP1 PUSH2 0x5D7 JUMPI PUSH1 0x0 DUP1 REVERT JUMPDEST CALLER PUSH1 0x1 PUSH1 0x1 PUSH1 0xA0 SHL SUB PUSH32 0x0 AND EQ PUSH2 0xE5D JUMPI PUSH1 0x40 MLOAD PUSH3 0x461BCD PUSH1 0xE5 SHL DUP2 MSTORE PUSH1 0x4 ADD PUSH2 0x69D SWAP1 PUSH2 0x2613 JUMP JUMPDEST PUSH1 0x0 SLOAD PUSH2 0x100 SWAP1 DIV PUSH1 0xFF AND DUP1 PUSH2 0xE76 JUMPI POP PUSH2 0xE76 PUSH2 0x1AA0 JUMP JUMPDEST DUP1 PUSH2 0xE84 JUMPI POP PUSH1 0x0 SLOAD PUSH1 0xFF AND ISZERO JUMPDEST PUSH2 0xEBF JUMPI PUSH1 0x40 MLOAD PUSH3 0x461BCD PUSH1 0xE5 SHL DUP2 MSTORE PUSH1 0x4 ADD DUP1 DUP1 PUSH1 0x20 ADD DUP3 DUP2 SUB DUP3 MSTORE PUSH1 0x2E DUP2 MSTORE PUSH1 0x20 ADD DUP1 PUSH2 0x2782 PUSH1 0x2E SWAP2 CODECOPY PUSH1 0x40 ADD SWAP2 POP POP PUSH1 0x40 MLOAD DUP1 SWAP2 SUB SWAP1 REVERT JUMPDEST PUSH1 0x0 SLOAD PUSH2 0x100 SWAP1 DIV PUSH1 0xFF AND ISZERO DUP1 ISZERO PUSH2 0xEEA JUMPI PUSH1 0x0 DUP1 SLOAD PUSH1 0xFF NOT PUSH2 0xFF00 NOT SWAP1 SWAP2 AND PUSH2 0x100 OR AND PUSH1 0x1 OR SWAP1 SSTORE JUMPDEST PUSH1 0x3 DUP1 SLOAD PUSH2 0xFFFF NOT AND PUSH2 0xFFFF DUP8 AND OR SWAP1 SSTORE PUSH1 0x0 DUP1 DUP1 PUSH2 0xF07 PUSH2 0x1A07 JUMP JUMPDEST SWAP3 POP SWAP3 POP SWAP3 POP DUP3 DUP7 DUP4 PUSH1 0x40 MLOAD PUSH1 0x20 ADD PUSH2 0xF22 SWAP4 SWAP3 SWAP2 SWAP1 PUSH2 0x253C JUMP JUMPDEST PUSH1 0x40 MLOAD PUSH1 0x20 DUP2 DUP4 SUB SUB DUP2 MSTORE SWAP1 PUSH1 0x40 MSTORE PUSH1 0x1 SWAP1 DUP1 MLOAD SWAP1 PUSH1 0x20 ADD SWAP1 PUSH2 0xF46 SWAP3 SWAP2 SWAP1 PUSH2 0x2024 JUMP JUMPDEST POP DUP1 DUP6 PUSH1 0x40 MLOAD PUSH1 0x20 ADD PUSH2 0xF5A SWAP3 SWAP2 SWAP1 PUSH2 0x250D JUMP JUMPDEST PUSH1 0x40 MLOAD PUSH1 0x20 DUP2 DUP4 SUB SUB DUP2 MSTORE SWAP1 PUSH1 0x40 MSTORE PUSH1 0x2 SWAP1 DUP1 MLOAD SWAP1 PUSH1 0x20 ADD SWAP1 PUSH2 0xF7E SWAP3 SWAP2 SWAP1 PUSH2 0x2024 JUMP JUMPDEST POP PUSH1 0x1 PUSH1 0x1 PUSH1 0xA0 SHL SUB DUP8 AND PUSH2 0xFBE JUMPI PUSH1 0x3 DUP1 SLOAD PUSH4 0x1000000 PUSH1 0x1 PUSH1 0xB8 SHL SUB NOT AND PUSH23 0x4B9C40DF01BDC99DD2C31AE4B232F20F4BBAC5B000000 OR SWAP1 SSTORE PUSH2 0x1018 JUMP JUMPDEST PUSH1 0x3 DUP1 SLOAD PUSH4 0x1000000 PUSH1 0x1 PUSH1 0xB8 SHL SUB NOT AND PUSH4 0x1000000 PUSH1 0x1 PUSH1 0x1 PUSH1 0xA0 SHL SUB DUP11 DUP2 AND DUP3 MUL SWAP3 SWAP1 SWAP3 OR SWAP3 DUP4 SWAP1 SSTORE PUSH2 0x1018 SWAP3 DIV AND PUSH32 0x0 PUSH1 0x0 NOT PUSH2 0x1AB1 JUMP JUMPDEST PUSH1 0x3 DUP1 SLOAD SWAP1 PUSH2 0x100 EXP SWAP1 DIV PUSH1 0x1 PUSH1 0x1 PUSH1 0xA0 SHL SUB AND PUSH1 0x1 PUSH1 0x1 PUSH1 0xA0 SHL SUB AND PUSH4 0x313CE567 PUSH1 0x40 MLOAD DUP2 PUSH4 0xFFFFFFFF AND PUSH1 0xE0 SHL DUP2 MSTORE PUSH1 0x4 ADD PUSH1 0x20 PUSH1 0x40 MLOAD DUP1 DUP4 SUB DUP2 DUP7 DUP1 EXTCODESIZE ISZERO DUP1 ISZERO PUSH2 0x1064 JUMPI PUSH1 0x0 DUP1 REVERT JUMPDEST POP GAS STATICCALL ISZERO DUP1 ISZERO PUSH2 0x1078 JUMPI RETURNDATASIZE PUSH1 0x0 DUP1 RETURNDATACOPY RETURNDATASIZE PUSH1 0x0 REVERT JUMPDEST POP POP POP POP PUSH1 0x40 MLOAD RETURNDATASIZE PUSH1 0x1F NOT PUSH1 0x1F DUP3 ADD AND DUP3 ADD DUP1 PUSH1 0x40 MSTORE POP DUP2 ADD SWAP1 PUSH2 0x109C SWAP2 SWAP1 PUSH2 0x24EC JUMP JUMPDEST PUSH1 0x3 DUP1 SLOAD PUSH3 0xFF0000 NOT AND PUSH3 0x10000 PUSH1 0xFF SWAP4 DUP5 AND DUP2 MUL SWAP2 SWAP1 SWAP2 OR SWAP2 DUP3 SWAP1 SSTORE PUSH1 0x24 SWAP2 DIV SWAP1 SWAP2 AND LT PUSH2 0x10CA JUMPI PUSH1 0x0 DUP1 REVERT JUMPDEST POP POP POP DUP1 ISZERO PUSH2 0x10DF JUMPI PUSH1 0x0 DUP1 SLOAD PUSH2 0xFF00 NOT AND SWAP1 SSTORE JUMPDEST POP POP POP POP POP JUMP JUMPDEST CALLER PUSH1 0x1 PUSH1 0x1 PUSH1 0xA0 SHL SUB PUSH32 0x0 AND EQ PUSH2 0x112E JUMPI PUSH1 0x40 MLOAD PUSH3 0x461BCD PUSH1 0xE5 SHL DUP2 MSTORE PUSH1 0x4 ADD PUSH2 0x69D SWAP1 PUSH2 0x2613 JUMP JUMPDEST PUSH1 0x0 DUP2 SLT ISZERO PUSH2 0x1175 JUMPI PUSH1 0x0 PUSH1 0x1 PUSH1 0x1 PUSH1 0xA0 SHL SUB DUP4 AND PUSH1 0x0 DUP1 MLOAD PUSH1 0x20 PUSH2 0x27B0 DUP4 CODECOPY DUP2 MLOAD SWAP2 MSTORE PUSH2 0x115B DUP5 PUSH2 0x1BC9 JUMP JUMPDEST PUSH1 0x40 MLOAD PUSH2 0x1168 SWAP2 SWAP1 PUSH2 0x25AE JUMP JUMPDEST PUSH1 0x40 MLOAD DUP1 SWAP2 SUB SWAP1 LOG3 PUSH2 0x11B0 JUMP JUMPDEST DUP2 PUSH1 0x1 PUSH1 0x1 PUSH1 0xA0 SHL SUB AND PUSH1 0x0 PUSH1 0x1 PUSH1 0x1 PUSH1 0xA0 SHL SUB AND PUSH1 0x0 DUP1 MLOAD PUSH1 0x20 PUSH2 0x27B0 DUP4 CODECOPY DUP2 MLOAD SWAP2 MSTORE DUP4 PUSH1 0x40 MLOAD PUSH2 0x11A7 SWAP2 SWAP1 PUSH2 0x25AE JUMP JUMPDEST PUSH1 0x40 MLOAD DUP1 SWAP2 SUB SWAP1 LOG3 JUMPDEST POP POP JUMP JUMPDEST PUSH1 0x0 PUSH2 0x11BF DUP5 PUSH2 0x5DD JUMP JUMPDEST SWAP1 POP PUSH1 0x0 PUSH2 0x11CC DUP4 PUSH2 0x195E JUMP JUMPDEST SWAP1 POP DUP1 DUP3 GT ISZERO PUSH2 0x11DA JUMPI DUP1 SWAP2 POP JUMPDEST PUSH1 0x0 PUSH2 0x11E7 DUP4 DUP7 DUP7 PUSH2 0x1944 JUMP JUMPDEST SWAP1 POP PUSH1 0x0 PUSH1 0x1 PUSH1 0x1 PUSH1 0xA0 SHL SUB AND DUP5 PUSH1 0x1 PUSH1 0x1 PUSH1 0xA0 SHL SUB AND PUSH1 0x0 DUP1 MLOAD PUSH1 0x20 PUSH2 0x27B0 DUP4 CODECOPY DUP2 MLOAD SWAP2 MSTORE DUP6 PUSH1 0x40 MLOAD PUSH2 0x121B SWAP2 SWAP1 PUSH2 0x25AE JUMP JUMPDEST PUSH1 0x40 MLOAD DUP1 SWAP2 SUB SWAP1 LOG3 DUP4 PUSH1 0x1 PUSH1 0x1 PUSH1 0xA0 SHL SUB AND DUP6 PUSH1 0x1 PUSH1 0x1 PUSH1 0xA0 SHL SUB AND CALLER PUSH1 0x1 PUSH1 0x1 PUSH1 0xA0 SHL SUB AND PUSH32 0xFBDE797D201C681B91056529119E0B02407C7BB96A4A2C75C01FC9667232C8DB DUP5 DUP8 PUSH1 0x40 MLOAD PUSH2 0x1272 SWAP3 SWAP2 SWAP1 PUSH2 0x26FD JUMP JUMPDEST PUSH1 0x40 MLOAD DUP1 SWAP2 SUB SWAP1 LOG4 POP POP SWAP4 SWAP3 POP POP POP JUMP JUMPDEST PUSH1 0x0 DUP1 PUSH2 0x1291 DUP6 DUP6 DUP6 PUSH2 0x1944 JUMP JUMPDEST SWAP1 POP PUSH1 0x0 PUSH1 0x1 PUSH1 0x1 PUSH1 0xA0 SHL SUB AND DUP4 PUSH1 0x1 PUSH1 0x1 PUSH1 0xA0 SHL SUB AND PUSH1 0x0 DUP1 MLOAD PUSH1 0x20 PUSH2 0x27B0 DUP4 CODECOPY DUP2 MLOAD SWAP2 MSTORE DUP8 PUSH1 0x40 MLOAD PUSH2 0x12C5 SWAP2 SWAP1 PUSH2 0x25AE JUMP JUMPDEST PUSH1 0x40 MLOAD DUP1 SWAP2 SUB SWAP1 LOG3 DUP3 PUSH1 0x1 PUSH1 0x1 PUSH1 0xA0 SHL SUB AND DUP5 PUSH1 0x1 PUSH1 0x1 PUSH1 0xA0 SHL SUB AND CALLER PUSH1 0x1 PUSH1 0x1 PUSH1 0xA0 SHL SUB AND PUSH32 0xFBDE797D201C681B91056529119E0B02407C7BB96A4A2C75C01FC9667232C8DB DUP5 DUP10 PUSH1 0x40 MLOAD PUSH2 0x131C SWAP3 SWAP2 SWAP1 PUSH2 0x26FD JUMP JUMPDEST PUSH1 0x40 MLOAD DUP1 SWAP2 SUB SWAP1 LOG4 SWAP5 SWAP4 POP POP POP POP JUMP JUMPDEST PUSH1 0x0 DUP1 PUSH2 0x1339 PUSH1 0x0 PUSH2 0x83C JUMP JUMPDEST SWAP1 POP PUSH1 0x0 NOT DUP2 EQ ISZERO PUSH2 0x134C JUMPI SWAP1 POP PUSH2 0x572 JUMP JUMPDEST PUSH2 0x64E DUP2 JUMPDEST PUSH1 0x0 PUSH2 0x56F PUSH2 0x135E PUSH2 0x806 JUMP JUMPDEST PUSH2 0x569 DUP5 PUSH8 0xDE0B6B3A7640000 PUSH2 0x1577 JUMP JUMPDEST CALLER PUSH1 0x1 PUSH1 0x1 PUSH1 0xA0 SHL SUB PUSH32 0x0 AND EQ PUSH2 0x13B8 JUMPI PUSH1 0x40 MLOAD PUSH3 0x461BCD PUSH1 0xE5 SHL DUP2 MSTORE PUSH1 0x4 ADD PUSH2 0x69D SWAP1 PUSH2 0x2613 JUMP JUMPDEST PUSH1 0x0 DUP3 SLT ISZERO PUSH2 0x1407 JUMPI DUP3 PUSH1 0x1 PUSH1 0x1 PUSH1 0xA0 SHL SUB AND DUP5 PUSH1 0x1 PUSH1 0x1 PUSH1 0xA0 SHL SUB AND PUSH1 0x0 DUP1 MLOAD PUSH1 0x20 PUSH2 0x27B0 DUP4 CODECOPY DUP2 MLOAD SWAP2 MSTORE PUSH2 0x13ED DUP6 PUSH2 0x1BD7 JUMP JUMPDEST PUSH1 0x40 MLOAD PUSH2 0x13FA SWAP2 SWAP1 PUSH2 0x25AE JUMP JUMPDEST PUSH1 0x40 MLOAD DUP1 SWAP2 SUB SWAP1 LOG3 PUSH2 0x1441 JUMP JUMPDEST DUP4 PUSH1 0x1 PUSH1 0x1 PUSH1 0xA0 SHL SUB AND DUP4 PUSH1 0x1 PUSH1 0x1 PUSH1 0xA0 SHL SUB AND PUSH1 0x0 DUP1 MLOAD PUSH1 0x20 PUSH2 0x27B0 DUP4 CODECOPY DUP2 MLOAD SWAP2 MSTORE DUP5 PUSH1 0x40 MLOAD PUSH2 0x1438 SWAP2 SWAP1 PUSH2 0x25AE JUMP JUMPDEST PUSH1 0x40 MLOAD DUP1 SWAP2 SUB SWAP1 LOG3 JUMPDEST PUSH2 0xFEE PUSH1 0x1 PUSH1 0x1 PUSH1 0xA0 SHL SUB AND DUP5 PUSH1 0x1 PUSH1 0x1 PUSH1 0xA0 SHL SUB AND PUSH1 0x0 DUP1 MLOAD PUSH1 0x20 PUSH2 0x27B0 DUP4 CODECOPY DUP2 MLOAD SWAP2 MSTORE DUP4 PUSH1 0x40 MLOAD PUSH2 0x7EC SWAP2 SWAP1 PUSH2 0x25AE JUMP JUMPDEST PUSH1 0x0 PUSH2 0x56F PUSH2 0x283 DUP4 PUSH2 0x195E JUMP JUMPDEST PUSH1 0x0 PUSH2 0x64E DUP4 DUP4 PUSH2 0x1BF8 JUMP JUMPDEST EXTCODESIZE ISZERO ISZERO SWAP1 JUMP JUMPDEST PUSH1 0x3 SLOAD PUSH1 0x40 MLOAD PUSH4 0x3B2987B3 PUSH1 0xE0 SHL DUP2 MSTORE PUSH1 0x0 SWAP2 DUP3 SWAP2 PUSH1 0x1 PUSH1 0x1 PUSH1 0xA0 SHL SUB PUSH32 0x0 AND SWAP2 PUSH4 0x3B2987B3 SWAP2 PUSH2 0x14EB SWAP2 PUSH2 0xFFFF AND SWAP1 PUSH1 0x4 ADD PUSH2 0x2639 JUMP JUMPDEST PUSH1 0x20 PUSH1 0x40 MLOAD DUP1 DUP4 SUB DUP2 DUP7 DUP1 EXTCODESIZE ISZERO DUP1 ISZERO PUSH2 0x1503 JUMPI PUSH1 0x0 DUP1 REVERT JUMPDEST POP GAS STATICCALL ISZERO DUP1 ISZERO PUSH2 0x1517 JUMPI RETURNDATASIZE PUSH1 0x0 DUP1 RETURNDATACOPY RETURNDATASIZE PUSH1 0x0 REVERT JUMPDEST POP POP POP POP PUSH1 0x40 MLOAD RETURNDATASIZE PUSH1 0x1F NOT PUSH1 0x1F DUP3 ADD AND DUP3 ADD DUP1 PUSH1 0x40 MSTORE POP DUP2 ADD SWAP1 PUSH2 0x153B SWAP2 SWAP1 PUSH2 0x2276 JUMP JUMPDEST PUSH1 0x3 SLOAD SWAP1 SWAP2 POP PUSH2 0x1571 SWAP1 PUSH2 0x156C SWAP1 PUSH4 0x5F5E100 SWAP1 PUSH2 0x1566 SWAP1 DUP6 SWAP1 PUSH3 0x10000 SWAP1 DIV PUSH1 0xFF AND PUSH1 0xA EXP PUSH2 0x1CA3 JUMP JUMPDEST SWAP1 PUSH2 0x1CF1 JUMP JUMPDEST PUSH2 0x1D22 JUMP JUMPDEST SWAP2 POP POP SWAP1 JUMP JUMPDEST PUSH1 0x0 DUP3 PUSH2 0x1586 JUMPI POP PUSH1 0x0 PUSH2 0x5D7 JUMP JUMPDEST DUP3 DUP3 MUL DUP3 DUP5 DUP3 DUP2 PUSH2 0x1593 JUMPI INVALID JUMPDEST DIV EQ PUSH2 0x64E JUMPI PUSH1 0x0 DUP1 REVERT JUMPDEST PUSH1 0x0 DUP1 DUP3 GT PUSH2 0x15AC JUMPI PUSH1 0x0 DUP1 REVERT JUMPDEST DUP2 DUP4 DUP2 PUSH2 0x15B5 JUMPI INVALID JUMPDEST DIV SWAP4 SWAP3 POP POP POP JUMP JUMPDEST PUSH1 0x3 SLOAD PUSH1 0x40 MLOAD PUSH4 0x184E0053 PUSH1 0xE1 SHL DUP2 MSTORE PUSH1 0x0 SWAP2 PUSH1 0x1 PUSH1 0x1 PUSH1 0xA0 SHL SUB PUSH32 0x0 AND SWAP2 PUSH4 0x309C00A6 SWAP2 PUSH2 0x161A SWAP2 PUSH2 0xFFFF SWAP1 SWAP2 AND SWAP1 CALLER SWAP1 DUP9 SWAP1 DUP9 SWAP1 PUSH1 0x4 ADD PUSH2 0x2699 JUMP JUMPDEST PUSH1 0x20 PUSH1 0x40 MLOAD DUP1 DUP4 SUB DUP2 PUSH1 0x0 DUP8 DUP1 EXTCODESIZE ISZERO DUP1 ISZERO PUSH2 0x1634 JUMPI PUSH1 0x0 DUP1 REVERT JUMPDEST POP GAS CALL ISZERO DUP1 ISZERO PUSH2 0x1648 JUMPI RETURNDATASIZE PUSH1 0x0 DUP1 RETURNDATACOPY RETURNDATASIZE PUSH1 0x0 REVERT JUMPDEST POP POP POP POP PUSH1 0x40 MLOAD RETURNDATASIZE PUSH1 0x1F NOT PUSH1 0x1F DUP3 ADD AND DUP3 ADD DUP1 PUSH1 0x40 MSTORE POP DUP2 ADD SWAP1 PUSH2 0x64E SWAP2 SWAP1 PUSH2 0x2256 JUMP JUMPDEST PUSH1 0x40 MLOAD PUSH4 0x6A96E86F PUSH1 0xE0 SHL DUP2 MSTORE PUSH1 0x0 SWAP1 PUSH1 0x1 PUSH1 0x1 PUSH1 0xA0 SHL SUB PUSH32 0x0 AND SWAP1 PUSH4 0x6A96E86F SWAP1 PUSH2 0xAA8 SWAP1 ADDRESS SWAP1 PUSH1 0x4 ADD PUSH2 0x258F JUMP JUMPDEST PUSH1 0x3 SLOAD PUSH1 0x40 MLOAD PUSH4 0x44253849 PUSH1 0xE1 SHL DUP2 MSTORE PUSH1 0x0 SWAP2 PUSH1 0x1 PUSH1 0x1 PUSH1 0xA0 SHL SUB PUSH32 0x0 AND SWAP2 PUSH4 0x884A7092 SWAP2 PUSH2 0x171A SWAP2 PUSH2 0xFFFF SWAP1 SWAP2 AND SWAP1 CALLER SWAP1 DUP10 SWAP1 DUP10 SWAP1 DUP10 SWAP1 PUSH1 0x4 ADD PUSH2 0x2665 JUMP JUMPDEST PUSH1 0x20 PUSH1 0x40 MLOAD DUP1 DUP4 SUB DUP2 PUSH1 0x0 DUP8 DUP1 EXTCODESIZE ISZERO DUP1 ISZERO PUSH2 0x1734 JUMPI PUSH1 0x0 DUP1 REVERT JUMPDEST POP GAS CALL ISZERO DUP1 ISZERO PUSH2 0x1748 JUMPI RETURNDATASIZE PUSH1 0x0 DUP1 RETURNDATACOPY RETURNDATASIZE PUSH1 0x0 REVERT JUMPDEST POP POP POP POP PUSH1 0x40 MLOAD RETURNDATASIZE PUSH1 0x1F NOT PUSH1 0x1F DUP3 ADD AND DUP3 ADD DUP1 PUSH1 0x40 MSTORE POP DUP2 ADD SWAP1 PUSH2 0x176C SWAP2 SWAP1 PUSH2 0x2256 JUMP JUMPDEST SWAP5 SWAP4 POP POP POP POP JUMP JUMPDEST PUSH1 0x3 SLOAD PUSH1 0x40 MLOAD PUSH4 0x70A08231 PUSH1 0xE0 SHL DUP2 MSTORE PUSH1 0x0 SWAP2 DUP3 SWAP2 DUP3 SWAP2 PUSH4 0x1000000 SWAP1 DIV PUSH1 0x1 PUSH1 0x1 PUSH1 0xA0 SHL SUB AND SWAP1 PUSH4 0x70A08231 SWAP1 PUSH2 0x17B0 SWAP1 ADDRESS SWAP1 PUSH1 0x4 ADD PUSH2 0x258F JUMP JUMPDEST PUSH1 0x20 PUSH1 0x40 MLOAD DUP1 DUP4 SUB DUP2 DUP7 DUP1 EXTCODESIZE ISZERO DUP1 ISZERO PUSH2 0x17C8 JUMPI PUSH1 0x0 DUP1 REVERT JUMPDEST POP GAS STATICCALL ISZERO DUP1 ISZERO PUSH2 0x17DC JUMPI RETURNDATASIZE PUSH1 0x0 DUP1 RETURNDATACOPY RETURNDATASIZE PUSH1 0x0 REVERT JUMPDEST POP POP POP POP PUSH1 0x40 MLOAD RETURNDATASIZE PUSH1 0x1F NOT PUSH1 0x1F DUP3 ADD AND DUP3 ADD DUP1 PUSH1 0x40 MSTORE POP DUP2 ADD SWAP1 PUSH2 0x1800 SWAP2 SWAP1 PUSH2 0x2276 JUMP JUMPDEST SWAP1 POP PUSH2 0x1821 PUSH1 0x3 DUP1 SLOAD SWAP1 PUSH2 0x100 EXP SWAP1 DIV PUSH1 0x1 PUSH1 0x1 PUSH1 0xA0 SHL SUB AND CALLER ADDRESS DUP8 PUSH2 0x1D35 JUMP JUMPDEST PUSH1 0x3 SLOAD PUSH1 0x40 MLOAD PUSH4 0x70A08231 PUSH1 0xE0 SHL DUP2 MSTORE PUSH1 0x0 SWAP2 PUSH4 0x1000000 SWAP1 DIV PUSH1 0x1 PUSH1 0x1 PUSH1 0xA0 SHL SUB AND SWAP1 PUSH4 0x70A08231 SWAP1 PUSH2 0x1859 SWAP1 ADDRESS SWAP1 PUSH1 0x4 ADD PUSH2 0x258F JUMP JUMPDEST PUSH1 0x20 PUSH1 0x40 MLOAD DUP1 DUP4 SUB DUP2 DUP7 DUP1 EXTCODESIZE ISZERO DUP1 ISZERO PUSH2 0x1871 JUMPI PUSH1 0x0 DUP1 REVERT JUMPDEST POP GAS STATICCALL ISZERO DUP1 ISZERO PUSH2 0x1885 JUMPI RETURNDATASIZE PUSH1 0x0 DUP1 RETURNDATACOPY RETURNDATASIZE PUSH1 0x0 REVERT JUMPDEST POP POP POP POP PUSH1 0x40 MLOAD RETURNDATASIZE PUSH1 0x1F NOT PUSH1 0x1F DUP3 ADD AND DUP3 ADD DUP1 PUSH1 0x40 MSTORE POP DUP2 ADD SWAP1 PUSH2 0x18A9 SWAP2 SWAP1 PUSH2 0x2276 JUMP JUMPDEST SWAP1 POP PUSH2 0x18B5 DUP2 DUP4 PUSH2 0x1D95 JUMP JUMPDEST PUSH1 0x3 SLOAD SWAP1 SWAP5 POP PUSH2 0xFFFF AND PUSH1 0x1 EQ ISZERO PUSH2 0x1938 JUMPI PUSH1 0x40 MLOAD PUSH4 0x2E1A7D4D PUSH1 0xE0 SHL DUP2 MSTORE PUSH20 0x4B9C40DF01BDC99DD2C31AE4B232F20F4BBAC5B SWAP1 PUSH4 0x2E1A7D4D SWAP1 PUSH2 0x18FE SWAP1 DUP8 SWAP1 PUSH1 0x4 ADD PUSH2 0x25AE JUMP JUMPDEST PUSH1 0x0 PUSH1 0x40 MLOAD DUP1 DUP4 SUB DUP2 PUSH1 0x0 DUP8 DUP1 EXTCODESIZE ISZERO DUP1 ISZERO PUSH2 0x1918 JUMPI PUSH1 0x0 DUP1 REVERT JUMPDEST POP GAS CALL ISZERO DUP1 ISZERO PUSH2 0x192C JUMPI RETURNDATASIZE PUSH1 0x0 DUP1 RETURNDATACOPY RETURNDATASIZE PUSH1 0x0 REVERT JUMPDEST POP POP POP POP DUP4 SWAP3 POP PUSH2 0x193D JUMP JUMPDEST PUSH1 0x0 SWAP3 POP JUMPDEST POP POP SWAP2 POP SWAP2 JUMP JUMPDEST PUSH1 0x0 PUSH1 0x40 MLOAD PUSH3 0x461BCD PUSH1 0xE5 SHL DUP2 MSTORE PUSH1 0x4 ADD PUSH2 0x69D SWAP1 PUSH2 0x25EA JUMP JUMPDEST PUSH1 0x3 SLOAD PUSH1 0x40 MLOAD PUSH4 0xA78DBFFF PUSH1 0xE0 SHL DUP2 MSTORE PUSH1 0x0 SWAP2 PUSH1 0x1 PUSH1 0x1 PUSH1 0xA0 SHL SUB PUSH32 0x0 AND SWAP2 PUSH4 0xA78DBFFF SWAP2 PUSH2 0x19B7 SWAP2 PUSH2 0xFFFF SWAP1 SWAP2 AND SWAP1 DUP7 SWAP1 PUSH1 0x4 ADD PUSH2 0x2648 JUMP JUMPDEST PUSH1 0x20 PUSH1 0x40 MLOAD DUP1 DUP4 SUB DUP2 DUP7 DUP1 EXTCODESIZE ISZERO DUP1 ISZERO PUSH2 0x19CF JUMPI PUSH1 0x0 DUP1 REVERT JUMPDEST POP GAS STATICCALL ISZERO DUP1 ISZERO PUSH2 0x19E3 JUMPI RETURNDATASIZE PUSH1 0x0 DUP1 RETURNDATACOPY RETURNDATASIZE PUSH1 0x0 REVERT JUMPDEST POP POP POP POP PUSH1 0x40 MLOAD RETURNDATASIZE PUSH1 0x1F NOT PUSH1 0x1F DUP3 ADD AND DUP3 ADD DUP1 PUSH1 0x40 MSTORE POP DUP2 ADD SWAP1 PUSH2 0x56F SWAP2 SWAP1 PUSH2 0x2276 JUMP JUMPDEST PUSH1 0x40 DUP1 MLOAD DUP1 DUP3 ADD DUP3 MSTORE PUSH1 0x6 DUP2 MSTORE PUSH6 0x372A37B5B2B7 PUSH1 0xD1 SHL PUSH1 0x20 DUP1 DUP4 ADD SWAP2 SWAP1 SWAP2 MSTORE DUP3 MLOAD DUP1 DUP5 ADD SWAP1 SWAP4 MSTORE PUSH1 0x1 DUP4 MSTORE PUSH1 0x37 PUSH1 0xF9 SHL SWAP1 DUP4 ADD MSTORE SWAP2 PUSH1 0x60 SWAP2 SWAP1 JUMP JUMPDEST PUSH1 0x3 SLOAD PUSH1 0x40 MLOAD PUSH4 0x18AE40D7 PUSH1 0xE0 SHL DUP2 MSTORE PUSH1 0x0 SWAP2 PUSH1 0x1 PUSH1 0x1 PUSH1 0xA0 SHL SUB PUSH32 0x0 AND SWAP2 PUSH4 0x18AE40D7 SWAP2 PUSH2 0x161A SWAP2 PUSH2 0xFFFF SWAP1 SWAP2 AND SWAP1 CALLER SWAP1 DUP9 SWAP1 DUP9 SWAP1 PUSH1 0x4 ADD PUSH2 0x2699 JUMP JUMPDEST PUSH1 0x0 PUSH2 0x1AAB ADDRESS PUSH2 0x148E JUMP JUMPDEST ISZERO SWAP1 POP SWAP1 JUMP JUMPDEST DUP1 ISZERO DUP1 PUSH2 0x1B37 JUMPI POP PUSH1 0x40 DUP1 MLOAD PUSH4 0x6EB1769F PUSH1 0xE1 SHL DUP2 MSTORE ADDRESS PUSH1 0x4 DUP3 ADD MSTORE PUSH1 0x1 PUSH1 0x1 PUSH1 0xA0 SHL SUB DUP5 DUP2 AND PUSH1 0x24 DUP4 ADD MSTORE SWAP2 MLOAD SWAP2 DUP6 AND SWAP2 PUSH4 0xDD62ED3E SWAP2 PUSH1 0x44 DUP1 DUP3 ADD SWAP3 PUSH1 0x20 SWAP3 SWAP1 SWAP2 SWAP1 DUP3 SWAP1 SUB ADD DUP2 DUP7 DUP1 EXTCODESIZE ISZERO DUP1 ISZERO PUSH2 0x1B09 JUMPI PUSH1 0x0 DUP1 REVERT JUMPDEST POP GAS STATICCALL ISZERO DUP1 ISZERO PUSH2 0x1B1D JUMPI RETURNDATASIZE PUSH1 0x0 DUP1 RETURNDATACOPY RETURNDATASIZE PUSH1 0x0 REVERT JUMPDEST POP POP POP POP PUSH1 0x40 MLOAD RETURNDATASIZE PUSH1 0x20 DUP2 LT ISZERO PUSH2 0x1B33 JUMPI PUSH1 0x0 DUP1 REVERT JUMPDEST POP MLOAD ISZERO JUMPDEST PUSH2 0x1B72 JUMPI PUSH1 0x40 MLOAD PUSH3 0x461BCD PUSH1 0xE5 SHL DUP2 MSTORE PUSH1 0x4 ADD DUP1 DUP1 PUSH1 0x20 ADD DUP3 DUP2 SUB DUP3 MSTORE PUSH1 0x36 DUP2 MSTORE PUSH1 0x20 ADD DUP1 PUSH2 0x27FA PUSH1 0x36 SWAP2 CODECOPY PUSH1 0x40 ADD SWAP2 POP POP PUSH1 0x40 MLOAD DUP1 SWAP2 SUB SWAP1 REVERT JUMPDEST PUSH1 0x40 DUP1 MLOAD PUSH1 0x1 PUSH1 0x1 PUSH1 0xA0 SHL SUB DUP5 AND PUSH1 0x24 DUP3 ADD MSTORE PUSH1 0x44 DUP1 DUP3 ADD DUP5 SWAP1 MSTORE DUP3 MLOAD DUP1 DUP4 SUB SWAP1 SWAP2 ADD DUP2 MSTORE PUSH1 0x64 SWAP1 SWAP2 ADD SWAP1 SWAP2 MSTORE PUSH1 0x20 DUP2 ADD DUP1 MLOAD PUSH1 0x1 PUSH1 0x1 PUSH1 0xE0 SHL SUB AND PUSH4 0x95EA7B3 PUSH1 0xE0 SHL OR SWAP1 MSTORE PUSH2 0x1BC4 SWAP1 DUP5 SWAP1 PUSH2 0x1DAA JUMP JUMPDEST POP POP POP JUMP JUMPDEST PUSH1 0x0 PUSH2 0x56F PUSH1 0x0 NOT DUP4 PUSH2 0x1CA3 JUMP JUMPDEST PUSH1 0x0 DUP1 DUP3 SLT ISZERO PUSH2 0x1BF1 JUMPI PUSH2 0x1BEA DUP3 PUSH2 0x1BC9 JUMP JUMPDEST SWAP1 POP PUSH2 0x572 JUMP JUMPDEST POP DUP1 PUSH2 0x572 JUMP JUMPDEST PUSH1 0x3 SLOAD PUSH1 0x40 MLOAD PUSH4 0x7DB31AB9 PUSH1 0xE0 SHL DUP2 MSTORE PUSH1 0x0 SWAP2 PUSH1 0x1 PUSH1 0x1 PUSH1 0xA0 SHL SUB PUSH32 0x0 AND SWAP2 PUSH4 0x7DB31AB9 SWAP2 PUSH2 0x1C53 SWAP2 PUSH2 0xFFFF SWAP1 SWAP2 AND SWAP1 DUP8 SWAP1 DUP8 SWAP1 PUSH1 0x4 ADD PUSH2 0x26C4 JUMP JUMPDEST PUSH1 0x20 PUSH1 0x40 MLOAD DUP1 DUP4 SUB DUP2 DUP7 DUP1 EXTCODESIZE ISZERO DUP1 ISZERO PUSH2 0x1C6B JUMPI PUSH1 0x0 DUP1 REVERT JUMPDEST POP GAS STATICCALL ISZERO DUP1 ISZERO PUSH2 0x1C7F JUMPI RETURNDATASIZE PUSH1 0x0 DUP1 RETURNDATACOPY RETURNDATASIZE PUSH1 0x0 REVERT JUMPDEST POP POP POP POP PUSH1 0x40 MLOAD RETURNDATASIZE PUSH1 0x1F NOT PUSH1 0x1F DUP3 ADD AND DUP3 ADD DUP1 PUSH1 0x40 MSTORE POP DUP2 ADD SWAP1 PUSH2 0x64E SWAP2 SWAP1 PUSH2 0x2276 JUMP JUMPDEST DUP2 DUP2 MUL PUSH1 0x0 NOT DUP4 EQ ISZERO PUSH2 0x1CD3 JUMPI DUP2 ISZERO DUP1 PUSH2 0x1CC5 JUMPI POP DUP3 DUP3 DUP3 DUP2 PUSH2 0x1CC2 JUMPI INVALID JUMPDEST SDIV EQ JUMPDEST PUSH2 0x1CCE JUMPI PUSH1 0x0 DUP1 REVERT JUMPDEST PUSH2 0x5D7 JUMP JUMPDEST DUP3 ISZERO DUP1 PUSH2 0x1CE8 JUMPI POP DUP2 DUP4 DUP3 DUP2 PUSH2 0x1CE5 JUMPI INVALID JUMPDEST SDIV EQ JUMPDEST PUSH2 0x5D7 JUMPI PUSH1 0x0 DUP1 REVERT JUMPDEST PUSH1 0x0 DUP2 PUSH1 0x0 NOT EQ DUP1 ISZERO PUSH2 0x1D07 JUMPI POP PUSH1 0x1 PUSH1 0xFF SHL DUP4 EQ JUMPDEST ISZERO PUSH2 0x1D11 JUMPI PUSH1 0x0 DUP1 REVERT JUMPDEST DUP2 DUP4 DUP2 PUSH2 0x1D1A JUMPI INVALID JUMPDEST SDIV SWAP4 SWAP3 POP POP POP JUMP JUMPDEST PUSH1 0x0 DUP1 DUP3 SLT ISZERO PUSH2 0x1D31 JUMPI PUSH1 0x0 DUP1 REVERT JUMPDEST POP SWAP1 JUMP JUMPDEST PUSH1 0x40 DUP1 MLOAD PUSH1 0x1 PUSH1 0x1 PUSH1 0xA0 SHL SUB DUP1 DUP7 AND PUSH1 0x24 DUP4 ADD MSTORE DUP5 AND PUSH1 0x44 DUP3 ADD MSTORE PUSH1 0x64 DUP1 DUP3 ADD DUP5 SWAP1 MSTORE DUP3 MLOAD DUP1 DUP4 SUB SWAP1 SWAP2 ADD DUP2 MSTORE PUSH1 0x84 SWAP1 SWAP2 ADD SWAP1 SWAP2 MSTORE PUSH1 0x20 DUP2 ADD DUP1 MLOAD PUSH1 0x1 PUSH1 0x1 PUSH1 0xE0 SHL SUB AND PUSH4 0x23B872DD PUSH1 0xE0 SHL OR SWAP1 MSTORE PUSH2 0x1D8F SWAP1 DUP6 SWAP1 PUSH2 0x1DAA JUMP JUMPDEST POP POP POP POP JUMP JUMPDEST PUSH1 0x0 DUP3 DUP3 GT ISZERO PUSH2 0x1DA4 JUMPI PUSH1 0x0 DUP1 REVERT JUMPDEST POP SWAP1 SUB SWAP1 JUMP JUMPDEST PUSH1 0x0 PUSH2 0x1DFF DUP3 PUSH1 0x40 MLOAD DUP1 PUSH1 0x40 ADD PUSH1 0x40 MSTORE DUP1 PUSH1 0x20 DUP2 MSTORE PUSH1 0x20 ADD PUSH32 0x5361666545524332303A206C6F772D6C6576656C2063616C6C206661696C6564 DUP2 MSTORE POP DUP6 PUSH1 0x1 PUSH1 0x1 PUSH1 0xA0 SHL SUB AND PUSH2 0x1E5B SWAP1 SWAP3 SWAP2 SWAP1 PUSH4 0xFFFFFFFF AND JUMP JUMPDEST DUP1 MLOAD SWAP1 SWAP2 POP ISZERO PUSH2 0x1BC4 JUMPI DUP1 DUP1 PUSH1 0x20 ADD SWAP1 MLOAD PUSH1 0x20 DUP2 LT ISZERO PUSH2 0x1E1E JUMPI PUSH1 0x0 DUP1 REVERT JUMPDEST POP MLOAD PUSH2 0x1BC4 JUMPI PUSH1 0x40 MLOAD PUSH3 0x461BCD PUSH1 0xE5 SHL DUP2 MSTORE PUSH1 0x4 ADD DUP1 DUP1 PUSH1 0x20 ADD DUP3 DUP2 SUB DUP3 MSTORE PUSH1 0x2A DUP2 MSTORE PUSH1 0x20 ADD DUP1 PUSH2 0x27D0 PUSH1 0x2A SWAP2 CODECOPY PUSH1 0x40 ADD SWAP2 POP POP PUSH1 0x40 MLOAD DUP1 SWAP2 SUB SWAP1 REVERT JUMPDEST PUSH1 0x60 PUSH2 0x176C DUP5 DUP5 PUSH1 0x0 DUP6 DUP6 PUSH2 0x1E6F DUP6 PUSH2 0x148E JUMP JUMPDEST PUSH2 0x1EC0 JUMPI PUSH1 0x40 DUP1 MLOAD PUSH3 0x461BCD PUSH1 0xE5 SHL DUP2 MSTORE PUSH1 0x20 PUSH1 0x4 DUP3 ADD MSTORE PUSH1 0x1D PUSH1 0x24 DUP3 ADD MSTORE PUSH32 0x416464726573733A2063616C6C20746F206E6F6E2D636F6E7472616374000000 PUSH1 0x44 DUP3 ADD MSTORE SWAP1 MLOAD SWAP1 DUP2 SWAP1 SUB PUSH1 0x64 ADD SWAP1 REVERT JUMPDEST PUSH1 0x0 DUP1 DUP7 PUSH1 0x1 PUSH1 0x1 PUSH1 0xA0 SHL SUB AND DUP6 DUP8 PUSH1 0x40 MLOAD DUP1 DUP3 DUP1 MLOAD SWAP1 PUSH1 0x20 ADD SWAP1 DUP1 DUP4 DUP4 JUMPDEST PUSH1 0x20 DUP4 LT PUSH2 0x1EFE JUMPI DUP1 MLOAD DUP3 MSTORE PUSH1 0x1F NOT SWAP1 SWAP3 ADD SWAP2 PUSH1 0x20 SWAP2 DUP3 ADD SWAP2 ADD PUSH2 0x1EDF JUMP JUMPDEST PUSH1 0x1 DUP4 PUSH1 0x20 SUB PUSH2 0x100 EXP SUB DUP1 NOT DUP3 MLOAD AND DUP2 DUP5 MLOAD AND DUP1 DUP3 OR DUP6 MSTORE POP POP POP POP POP POP SWAP1 POP ADD SWAP2 POP POP PUSH1 0x0 PUSH1 0x40 MLOAD DUP1 DUP4 SUB DUP2 DUP6 DUP8 GAS CALL SWAP3 POP POP POP RETURNDATASIZE DUP1 PUSH1 0x0 DUP2 EQ PUSH2 0x1F60 JUMPI PUSH1 0x40 MLOAD SWAP2 POP PUSH1 0x1F NOT PUSH1 0x3F RETURNDATASIZE ADD AND DUP3 ADD PUSH1 0x40 MSTORE RETURNDATASIZE DUP3 MSTORE RETURNDATASIZE PUSH1 0x0 PUSH1 0x20 DUP5 ADD RETURNDATACOPY PUSH2 0x1F65 JUMP JUMPDEST PUSH1 0x60 SWAP2 POP JUMPDEST POP SWAP2 POP SWAP2 POP PUSH2 0x1F75 DUP3 DUP3 DUP7 PUSH2 0x1F80 JUMP JUMPDEST SWAP8 SWAP7 POP POP POP POP POP POP POP JUMP JUMPDEST PUSH1 0x60 DUP4 ISZERO PUSH2 0x1F8F JUMPI POP DUP2 PUSH2 0x64E JUMP JUMPDEST DUP3 MLOAD ISZERO PUSH2 0x1F9F JUMPI DUP3 MLOAD DUP1 DUP5 PUSH1 0x20 ADD REVERT JUMPDEST DUP2 PUSH1 0x40 MLOAD PUSH3 0x461BCD PUSH1 0xE5 SHL DUP2 MSTORE PUSH1 0x4 ADD DUP1 DUP1 PUSH1 0x20 ADD DUP3 DUP2 SUB DUP3 MSTORE DUP4 DUP2 DUP2 MLOAD DUP2 MSTORE PUSH1 0x20 ADD SWAP2 POP DUP1 MLOAD SWAP1 PUSH1 0x20 ADD SWAP1 DUP1 DUP4 DUP4 PUSH1 0x0 JUMPDEST DUP4 DUP2 LT ISZERO PUSH2 0x1FE9 JUMPI DUP2 DUP2 ADD MLOAD DUP4 DUP3 ADD MSTORE PUSH1 0x20 ADD PUSH2 0x1FD1 JUMP JUMPDEST POP POP POP POP SWAP1 POP SWAP1 DUP2 ADD SWAP1 PUSH1 0x1F AND DUP1 ISZERO PUSH2 0x2016 JUMPI DUP1 DUP3 SUB DUP1 MLOAD PUSH1 0x1 DUP4 PUSH1 0x20 SUB PUSH2 0x100 EXP SUB NOT AND DUP2 MSTORE PUSH1 0x20 ADD SWAP2 POP JUMPDEST POP SWAP3 POP POP POP PUSH1 0x40 MLOAD DUP1 SWAP2 SUB SWAP1 REVERT JUMPDEST DUP3 DUP1 SLOAD PUSH1 0x1 DUP2 PUSH1 0x1 AND ISZERO PUSH2 0x100 MUL SUB AND PUSH1 0x2 SWAP1 DIV SWAP1 PUSH1 0x0 MSTORE PUSH1 0x20 PUSH1 0x0 KECCAK256 SWAP1 PUSH1 0x1F ADD PUSH1 0x20 SWAP1 DIV DUP2 ADD SWAP3 DUP3 PUSH2 0x205A JUMPI PUSH1 0x0 DUP6 SSTORE PUSH2 0x20A0 JUMP JUMPDEST DUP3 PUSH1 0x1F LT PUSH2 0x2073 JUMPI DUP1 MLOAD PUSH1 0xFF NOT AND DUP4 DUP1 ADD OR DUP6 SSTORE PUSH2 0x20A0 JUMP JUMPDEST DUP3 DUP1 ADD PUSH1 0x1 ADD DUP6 SSTORE DUP3 ISZERO PUSH2 0x20A0 JUMPI SWAP2 DUP3 ADD JUMPDEST DUP3 DUP2 GT ISZERO PUSH2 0x20A0 JUMPI DUP3 MLOAD DUP3 SSTORE SWAP2 PUSH1 0x20 ADD SWAP2 SWAP1 PUSH1 0x1 ADD SWAP1 PUSH2 0x2085 JUMP JUMPDEST POP PUSH2 0x1D31 SWAP3 SWAP2 POP JUMPDEST DUP1 DUP3 GT ISZERO PUSH2 0x1D31 JUMPI PUSH1 0x0 DUP2 SSTORE PUSH1 0x1 ADD PUSH2 0x20A8 JUMP JUMPDEST PUSH1 0x0 DUP3 PUSH1 0x1F DUP4 ADD SLT PUSH2 0x20CC JUMPI DUP1 DUP2 REVERT JUMPDEST DUP2 CALLDATALOAD PUSH8 0xFFFFFFFFFFFFFFFF DUP2 GT ISZERO PUSH2 0x20E0 JUMPI INVALID JUMPDEST PUSH2 0x20F3 PUSH1 0x1F DUP3 ADD PUSH1 0x1F NOT AND PUSH1 0x20 ADD PUSH2 0x2719 JUMP JUMPDEST DUP2 DUP2 MSTORE DUP5 PUSH1 0x20 DUP4 DUP7 ADD ADD GT ISZERO PUSH2 0x2107 JUMPI DUP3 DUP4 REVERT JUMPDEST DUP2 PUSH1 0x20 DUP6 ADD PUSH1 0x20 DUP4 ADD CALLDATACOPY SWAP1 DUP2 ADD PUSH1 0x20 ADD SWAP2 SWAP1 SWAP2 MSTORE SWAP3 SWAP2 POP POP JUMP JUMPDEST PUSH1 0x0 PUSH1 0x20 DUP3 DUP5 SUB SLT ISZERO PUSH2 0x2132 JUMPI DUP1 DUP2 REVERT JUMPDEST DUP2 CALLDATALOAD PUSH2 0x64E DUP2 PUSH2 0x2769 JUMP JUMPDEST PUSH1 0x0 PUSH1 0x20 DUP3 DUP5 SUB SLT ISZERO PUSH2 0x214E JUMPI DUP1 DUP2 REVERT JUMPDEST DUP2 MLOAD PUSH2 0x64E DUP2 PUSH2 0x2769 JUMP JUMPDEST PUSH1 0x0 DUP1 PUSH1 0x40 DUP4 DUP6 SUB SLT ISZERO PUSH2 0x216B JUMPI DUP1 DUP2 REVERT JUMPDEST DUP3 CALLDATALOAD PUSH2 0x2176 DUP2 PUSH2 0x2769 JUMP JUMPDEST SWAP2 POP PUSH1 0x20 DUP4 ADD CALLDATALOAD PUSH2 0x2186 DUP2 PUSH2 0x2769 JUMP JUMPDEST DUP1 SWAP2 POP POP SWAP3 POP SWAP3 SWAP1 POP JUMP JUMPDEST PUSH1 0x0 DUP1 PUSH1 0x0 DUP1 PUSH1 0x80 DUP6 DUP8 SUB SLT ISZERO PUSH2 0x21A6 JUMPI DUP2 DUP3 REVERT JUMPDEST DUP5 CALLDATALOAD PUSH2 0x21B1 DUP2 PUSH2 0x2769 JUMP JUMPDEST SWAP4 POP PUSH1 0x20 DUP6 ADD CALLDATALOAD PUSH2 0x21C1 DUP2 PUSH2 0x2769 JUMP JUMPDEST SWAP4 SWAP7 SWAP4 SWAP6 POP POP POP POP PUSH1 0x40 DUP3 ADD CALLDATALOAD SWAP2 PUSH1 0x60 ADD CALLDATALOAD SWAP1 JUMP JUMPDEST PUSH1 0x0 DUP1 PUSH1 0x0 PUSH1 0x60 DUP5 DUP7 SUB SLT ISZERO PUSH2 0x21EA JUMPI DUP3 DUP4 REVERT JUMPDEST DUP4 CALLDATALOAD PUSH2 0x21F5 DUP2 PUSH2 0x2769 JUMP JUMPDEST SWAP3 POP PUSH1 0x20 DUP5 ADD CALLDATALOAD PUSH2 0x2205 DUP2 PUSH2 0x2769 JUMP JUMPDEST SWAP3 SWAP6 SWAP3 SWAP5 POP POP POP PUSH1 0x40 SWAP2 SWAP1 SWAP2 ADD CALLDATALOAD SWAP1 JUMP JUMPDEST PUSH1 0x0 DUP1 PUSH1 0x0 DUP1 PUSH1 0x80 DUP6 DUP8 SUB SLT ISZERO PUSH2 0x21A6 JUMPI DUP4 DUP5 REVERT JUMPDEST PUSH1 0x0 DUP1 PUSH1 0x40 DUP4 DUP6 SUB SLT ISZERO PUSH2 0x223D JUMPI DUP2 DUP3 REVERT JUMPDEST DUP3 CALLDATALOAD PUSH2 0x2248 DUP2 PUSH2 0x2769 JUMP JUMPDEST SWAP5 PUSH1 0x20 SWAP4 SWAP1 SWAP4 ADD CALLDATALOAD SWAP4 POP POP POP JUMP JUMPDEST PUSH1 0x0 PUSH1 0x20 DUP3 DUP5 SUB SLT ISZERO PUSH2 0x2267 JUMPI DUP1 DUP2 REVERT JUMPDEST DUP2 MLOAD DUP1 ISZERO ISZERO DUP2 EQ PUSH2 0x64E JUMPI DUP2 DUP3 REVERT JUMPDEST PUSH1 0x0 PUSH1 0x20 DUP3 DUP5 SUB SLT ISZERO PUSH2 0x2287 JUMPI DUP1 DUP2 REVERT JUMPDEST POP MLOAD SWAP2 SWAP1 POP JUMP JUMPDEST PUSH1 0x0 DUP1 PUSH1 0x40 DUP4 DUP6 SUB SLT ISZERO PUSH2 0x22A0 JUMPI DUP2 DUP3 REVERT JUMPDEST DUP3 CALLDATALOAD PUSH8 0xFFFFFFFFFFFFFFFF DUP1 DUP3 GT ISZERO PUSH2 0x22B7 JUMPI DUP4 DUP5 REVERT JUMPDEST PUSH2 0x22C3 DUP7 DUP4 DUP8 ADD PUSH2 0x20BC JUMP JUMPDEST SWAP4 POP PUSH1 0x20 DUP6 ADD CALLDATALOAD SWAP2 POP DUP1 DUP3 GT ISZERO PUSH2 0x22D8 JUMPI DUP3 DUP4 REVERT JUMPDEST POP PUSH2 0x22E5 DUP6 DUP3 DUP7 ADD PUSH2 0x20BC JUMP JUMPDEST SWAP2 POP POP SWAP3 POP SWAP3 SWAP1 POP JUMP JUMPDEST PUSH1 0x0 DUP1 PUSH1 0x0 DUP1 DUP5 DUP7 SUB PUSH2 0x1C0 DUP2 SLT ISZERO PUSH2 0x2306 JUMPI DUP3 DUP4 REVERT JUMPDEST PUSH1 0x60 DUP2 SLT ISZERO PUSH2 0x2313 JUMPI DUP3 DUP4 REVERT JUMPDEST PUSH1 0x40 MLOAD PUSH1 0x60 DUP2 ADD DUP2 DUP2 LT PUSH8 0xFFFFFFFFFFFFFFFF DUP3 GT OR ISZERO PUSH2 0x2330 JUMPI INVALID JUMPDEST PUSH1 0x40 SWAP1 DUP2 MSTORE DUP8 MLOAD DUP3 MSTORE PUSH1 0x20 DUP1 DUP10 ADD MLOAD SWAP1 DUP4 ADD MSTORE DUP8 DUP2 ADD MLOAD SWAP1 DUP3 ADD MSTORE SWAP5 POP PUSH2 0x120 PUSH1 0x5F NOT DUP3 ADD DUP2 SGT ISZERO PUSH2 0x2360 JUMPI DUP4 DUP5 REVERT JUMPDEST PUSH2 0x2369 DUP2 PUSH2 0x2719 JUMP JUMPDEST SWAP2 POP PUSH1 0x60 DUP8 ADD MLOAD DUP3 MSTORE PUSH1 0x80 DUP8 ADD MLOAD PUSH1 0x20 DUP4 ADD MSTORE PUSH1 0xA0 DUP8 ADD MLOAD PUSH1 0x40 DUP4 ADD MSTORE PUSH1 0xC0 DUP8 ADD MLOAD PUSH1 0x60 DUP4 ADD MSTORE PUSH1 0xE0 DUP8 ADD MLOAD PUSH1 0x80 DUP4 ADD MSTORE PUSH2 0x100 DUP1 DUP9 ADD MLOAD PUSH1 0xA0 DUP5 ADD MSTORE DUP2 DUP9 ADD MLOAD PUSH1 0xC0 DUP5 ADD MSTORE PUSH2 0x140 DUP9 ADD MLOAD PUSH1 0xE0 DUP5 ADD MSTORE PUSH2 0x160 DUP9 ADD MLOAD DUP2 DUP5 ADD MSTORE POP POP DUP1 SWAP4 POP POP PUSH2 0x180 DUP6 ADD MLOAD SWAP2 POP PUSH2 0x1A0 DUP6 ADD MLOAD SWAP1 POP SWAP3 SWAP6 SWAP2 SWAP5 POP SWAP3 POP JUMP JUMPDEST PUSH1 0x0 DUP1 PUSH1 0x0 DUP1 PUSH1 0x80 DUP6 DUP8 SUB SLT ISZERO PUSH2 0x23F8 JUMPI DUP2 DUP3 REVERT JUMPDEST DUP5 CALLDATALOAD PUSH2 0xFFFF DUP2 AND DUP2 EQ PUSH2 0x2409 JUMPI DUP3 DUP4 REVERT JUMPDEST SWAP4 POP PUSH1 0x20 DUP6 ADD CALLDATALOAD PUSH2 0x2419 DUP2 PUSH2 0x2769 JUMP JUMPDEST SWAP3 POP PUSH1 0x40 DUP6 ADD CALLDATALOAD PUSH8 0xFFFFFFFFFFFFFFFF DUP1 DUP3 GT ISZERO PUSH2 0x2435 JUMPI DUP4 DUP5 REVERT JUMPDEST PUSH2 0x2441 DUP9 DUP4 DUP10 ADD PUSH2 0x20BC JUMP JUMPDEST SWAP4 POP PUSH1 0x60 DUP8 ADD CALLDATALOAD SWAP2 POP DUP1 DUP3 GT ISZERO PUSH2 0x2456 JUMPI DUP3 DUP4 REVERT JUMPDEST POP PUSH2 0x2463 DUP8 DUP3 DUP9 ADD PUSH2 0x20BC JUMP JUMPDEST SWAP2 POP POP SWAP3 SWAP6 SWAP2 SWAP5 POP SWAP3 POP JUMP JUMPDEST PUSH1 0x0 PUSH1 0x20 DUP3 DUP5 SUB SLT ISZERO PUSH2 0x2480 JUMPI DUP1 DUP2 REVERT JUMPDEST POP CALLDATALOAD SWAP2 SWAP1 POP JUMP JUMPDEST PUSH1 0x0 DUP1 PUSH1 0x40 DUP4 DUP6 SUB SLT ISZERO PUSH2 0x2499 JUMPI DUP2 DUP3 REVERT JUMPDEST DUP3 CALLDATALOAD SWAP2 POP PUSH1 0x20 DUP4 ADD CALLDATALOAD PUSH2 0x2186 DUP2 PUSH2 0x2769 JUMP JUMPDEST PUSH1 0x0 DUP1 PUSH1 0x0 PUSH1 0x60 DUP5 DUP7 SUB SLT ISZERO PUSH2 0x24BF JUMPI DUP1 DUP2 REVERT JUMPDEST DUP4 CALLDATALOAD SWAP3 POP PUSH1 0x20 DUP5 ADD CALLDATALOAD PUSH2 0x24D1 DUP2 PUSH2 0x2769 JUMP JUMPDEST SWAP2 POP PUSH1 0x40 DUP5 ADD CALLDATALOAD PUSH2 0x24E1 DUP2 PUSH2 0x2769 JUMP JUMPDEST DUP1 SWAP2 POP POP SWAP3 POP SWAP3 POP SWAP3 JUMP JUMPDEST PUSH1 0x0 PUSH1 0x20 DUP3 DUP5 SUB SLT ISZERO PUSH2 0x24FD JUMPI DUP1 DUP2 REVERT JUMPDEST DUP2 MLOAD PUSH1 0xFF DUP2 AND DUP2 EQ PUSH2 0x64E JUMPI DUP2 DUP3 REVERT JUMPDEST PUSH1 0x0 DUP4 MLOAD PUSH2 0x251F DUP2 DUP5 PUSH1 0x20 DUP9 ADD PUSH2 0x273D JUMP JUMPDEST DUP4 MLOAD SWAP1 DUP4 ADD SWAP1 PUSH2 0x2533 DUP2 DUP4 PUSH1 0x20 DUP9 ADD PUSH2 0x273D JUMP JUMPDEST ADD SWAP5 SWAP4 POP POP POP POP JUMP JUMPDEST PUSH1 0x0 DUP5 MLOAD PUSH2 0x254E DUP2 DUP5 PUSH1 0x20 DUP10 ADD PUSH2 0x273D JUMP JUMPDEST PUSH1 0x1 PUSH1 0xFD SHL SWAP1 DUP4 ADD SWAP1 DUP2 MSTORE DUP5 MLOAD PUSH2 0x256C DUP2 PUSH1 0x1 DUP5 ADD PUSH1 0x20 DUP10 ADD PUSH2 0x273D JUMP JUMPDEST DUP5 MLOAD SWAP2 ADD SWAP1 PUSH2 0x2582 DUP2 PUSH1 0x1 DUP5 ADD PUSH1 0x20 DUP9 ADD PUSH2 0x273D JUMP JUMPDEST ADD PUSH1 0x1 ADD SWAP6 SWAP5 POP POP POP POP POP JUMP JUMPDEST PUSH1 0x1 PUSH1 0x1 PUSH1 0xA0 SHL SUB SWAP2 SWAP1 SWAP2 AND DUP2 MSTORE PUSH1 0x20 ADD SWAP1 JUMP JUMPDEST SWAP1 ISZERO ISZERO DUP2 MSTORE PUSH1 0x20 ADD SWAP1 JUMP JUMPDEST SWAP1 DUP2 MSTORE PUSH1 0x20 ADD SWAP1 JUMP JUMPDEST PUSH1 0x0 PUSH1 0x20 DUP3 MSTORE DUP3 MLOAD DUP1 PUSH1 0x20 DUP5 ADD MSTORE PUSH2 0x25D6 DUP2 PUSH1 0x40 DUP6 ADD PUSH1 0x20 DUP8 ADD PUSH2 0x273D JUMP JUMPDEST PUSH1 0x1F ADD PUSH1 0x1F NOT AND SWAP2 SWAP1 SWAP2 ADD PUSH1 0x40 ADD SWAP3 SWAP2 POP POP JUMP JUMPDEST PUSH1 0x20 DUP1 DUP3 MSTORE PUSH1 0xF SWAP1 DUP3 ADD MSTORE PUSH15 0x139BDD08125B5C1B195B595B9D1959 PUSH1 0x8A SHL PUSH1 0x40 DUP3 ADD MSTORE PUSH1 0x60 ADD SWAP1 JUMP JUMPDEST PUSH1 0x20 DUP1 DUP3 MSTORE PUSH1 0xC SWAP1 DUP3 ADD MSTORE PUSH12 0x155B985D5D1A1BDC9A5E9959 PUSH1 0xA2 SHL PUSH1 0x40 DUP3 ADD MSTORE PUSH1 0x60 ADD SWAP1 JUMP JUMPDEST PUSH2 0xFFFF SWAP2 SWAP1 SWAP2 AND DUP2 MSTORE PUSH1 0x20 ADD SWAP1 JUMP JUMPDEST PUSH2 0xFFFF SWAP3 SWAP1 SWAP3 AND DUP3 MSTORE PUSH1 0x1 PUSH1 0x1 PUSH1 0xA0 SHL SUB AND PUSH1 0x20 DUP3 ADD MSTORE PUSH1 0x40 ADD SWAP1 JUMP JUMPDEST PUSH2 0xFFFF SWAP6 SWAP1 SWAP6 AND DUP6 MSTORE PUSH1 0x1 PUSH1 0x1 PUSH1 0xA0 SHL SUB SWAP4 DUP5 AND PUSH1 0x20 DUP7 ADD MSTORE SWAP2 DUP4 AND PUSH1 0x40 DUP6 ADD MSTORE SWAP1 SWAP2 AND PUSH1 0x60 DUP4 ADD MSTORE PUSH1 0x80 DUP3 ADD MSTORE PUSH1 0xA0 ADD SWAP1 JUMP JUMPDEST PUSH2 0xFFFF SWAP5 SWAP1 SWAP5 AND DUP5 MSTORE PUSH1 0x1 PUSH1 0x1 PUSH1 0xA0 SHL SUB SWAP3 DUP4 AND PUSH1 0x20 DUP6 ADD MSTORE SWAP2 AND PUSH1 0x40 DUP4 ADD MSTORE PUSH1 0x60 DUP3 ADD MSTORE PUSH1 0x80 ADD SWAP1 JUMP JUMPDEST PUSH2 0xFFFF SWAP4 SWAP1 SWAP4 AND DUP4 MSTORE PUSH1 0x1 PUSH1 0x1 PUSH1 0xA0 SHL SUB SWAP2 DUP3 AND PUSH1 0x20 DUP5 ADD MSTORE AND PUSH1 0x40 DUP3 ADD MSTORE PUSH1 0x60 ADD SWAP1 JUMP JUMPDEST PUSH2 0xFFFF SWAP3 SWAP1 SWAP3 AND DUP3 MSTORE PUSH1 0x20 DUP3 ADD MSTORE PUSH1 0x40 ADD SWAP1 JUMP JUMPDEST SWAP2 DUP3 MSTORE PUSH1 0x20 DUP3 ADD MSTORE PUSH1 0x40 ADD SWAP1 JUMP JUMPDEST PUSH1 0xFF SWAP2 SWAP1 SWAP2 AND DUP2 MSTORE PUSH1 0x20 ADD SWAP1 JUMP JUMPDEST PUSH1 0x40 MLOAD DUP2 DUP2 ADD PUSH8 0xFFFFFFFFFFFFFFFF DUP2 GT DUP3 DUP3 LT OR ISZERO PUSH2 0x2735 JUMPI INVALID JUMPDEST PUSH1 0x40 MSTORE SWAP2 SWAP1 POP JUMP JUMPDEST PUSH1 0x0 JUMPDEST DUP4 DUP2 LT ISZERO PUSH2 0x2758 JUMPI DUP2 DUP2 ADD MLOAD DUP4 DUP3 ADD MSTORE PUSH1 0x20 ADD PUSH2 0x2740 JUMP JUMPDEST DUP4 DUP2 GT ISZERO PUSH2 0x1D8F JUMPI POP POP PUSH1 0x0 SWAP2 ADD MSTORE JUMP JUMPDEST PUSH1 0x1 PUSH1 0x1 PUSH1 0xA0 SHL SUB DUP2 AND DUP2 EQ PUSH2 0x277E JUMPI PUSH1 0x0 DUP1 REVERT JUMPDEST POP JUMP INVALID 0x49 PUSH15 0x697469616C697A61626C653A20636F PUSH15 0x747261637420697320616C72656164 PUSH26 0x20696E697469616C697A6564DDF252AD1BE2C89B69C2B068FC37 DUP14 0xAA SWAP6 0x2B 0xA7 CALL PUSH4 0xC4A11628 CREATE2 GAS 0x4D CREATE2 0x23 0xB3 0xEF MSTORE8 PUSH2 0x6665 GASLIMIT MSTORE NUMBER ORIGIN ADDRESS GASPRICE KECCAK256 GASLIMIT MSTORE NUMBER ORIGIN ADDRESS KECCAK256 PUSH16 0x7065726174696F6E20646964206E6F74 KECCAK256 PUSH20 0x7563636565645361666545524332303A20617070 PUSH19 0x6F76652066726F6D206E6F6E2D7A65726F2074 PUSH16 0x206E6F6E2D7A65726F20616C6C6F7761 PUSH15 0x6365A2646970667358221220C2F758 DUP15 0xF8 PUSH22 0x2396AAC43B5843C0ECF48F2A2014C928FB7866A41DEC NUMBER 0xDB XOR PUSH16 0x64736F6C634300070600330000000000 ","sha1":"096e83ae6ad586d9c536c9148b87075a2ebe932b","source":"// SPDX-License-Identifier: BSUL-1.1\npragma solidity =0.7.6;\npragma abicoder v2;\n\nimport {SafeInt256} from \"../../math/SafeInt256.sol\";\nimport {Constants} from \"../../global/Constants.sol\";\nimport {NotionalProxy, BaseERC4626Proxy} from \"./BaseERC4626Proxy.sol\";\n\n/// @notice ERC20 proxy for nToken contracts that forwards calls to the Router, all nToken\n/// balances and allowances are stored in at single address for gas efficiency. This contract\n/// is used simply for ERC20 compliance.\ncontract nTokenERC20Proxy is BaseERC4626Proxy {\n    using SafeInt256 for int256;\n\n    constructor(NotionalProxy notional_) BaseERC4626Proxy(notional_) {}\n\n    function _getPrefixes() internal pure override returns (\n        string memory namePrefix,\n        string memory nameSuffix,\n        string memory symbolPrefix\n    ) {\n        namePrefix = \"nToken\";\n        symbolPrefix = \"n\";\n    }\n\n    function _totalSupply() internal view override returns (uint256 supply) {\n        // Total supply is looked up via the token address\n        return NOTIONAL.nTokenTotalSupply(address(this));\n    }\n\n    function _balanceOf(address account) internal view override returns (uint256 balance) {\n        return NOTIONAL.nTokenBalanceOf(currencyId, account);\n    }\n\n    function _allowance(address account, address spender) internal view override returns (uint256) {\n        return NOTIONAL.nTokenTransferAllowance(currencyId, account, spender);\n    }\n\n    function _approve(address spender, uint256 amount) internal override returns (bool) {\n        return NOTIONAL.nTokenTransferApprove(currencyId, msg.sender, spender, amount);\n    }\n\n    function _transfer(address to, uint256 amount) internal override returns (bool) {\n        return NOTIONAL.nTokenTransfer(currencyId, msg.sender, to, amount);\n    }\n\n    function _transferFrom(address from, address to, uint256 amount) internal override returns (bool) {\n        return NOTIONAL.nTokenTransferFrom(currencyId, msg.sender, from, to, amount);\n    }\n\n    /// @notice Returns the present value of the nToken's assets denominated in asset tokens\n    function getPresentValueAssetDenominated() external view returns (int256) {\n        return NOTIONAL.nTokenPresentValueAssetDenominated(currencyId);\n    }\n\n    /// @notice Returns the present value of the nToken's assets denominated in underlying\n    function getPresentValueUnderlyingDenominated() external view returns (int256) {\n        return NOTIONAL.nTokenPresentValueUnderlyingDenominated(currencyId);\n    }\n\n    function _getTotalValueExternal() internal view override returns (uint256 totalValueExternal) {\n        int256 underlyingInternal = NOTIONAL.nTokenPresentValueUnderlyingDenominated(currencyId);\n        totalValueExternal = underlyingInternal\n            // No overflow, native decimals is restricted to < 36 in initialize\n            .mul(int256(10**nativeDecimals))\n            .div(Constants.INTERNAL_TOKEN_PRECISION).toUint();\n    }\n\n    function _mint(uint256 assets, uint256 msgValue, address receiver) internal override returns (uint256 tokensMinted) {\n        revert(\"Not Implemented\");\n    }\n\n    function _redeem(uint256 shares, address receiver, address owner) internal override returns (uint256 assets) {\n        revert(\"Not Implemented\");\n    }\n}\n","sourcePath":"contracts/external/proxies/nTokenERC20Proxy.sol","type":"contract","deployment":{"address":"0xEBe1BF1653d55d31F6ED38B1A4CcFE2A92338f66","chainid":"5","blockHeight":10202744}}