{"abi":[{"anonymous":false,"inputs":[{"indexed":true,"internalType":"address","name":"liquidated","type":"address"},{"indexed":true,"internalType":"address","name":"liquidator","type":"address"},{"indexed":false,"internalType":"uint16","name":"localCurrencyId","type":"uint16"},{"indexed":false,"internalType":"uint16","name":"collateralCurrencyId","type":"uint16"},{"indexed":false,"internalType":"int256","name":"localPrimeCashFromLiquidator","type":"int256"},{"indexed":false,"internalType":"int256","name":"netCollateralTransfer","type":"int256"},{"indexed":false,"internalType":"int256","name":"netNTokenTransfer","type":"int256"}],"name":"LiquidateCollateralCurrency","type":"event"},{"anonymous":false,"inputs":[{"indexed":true,"internalType":"address","name":"liquidated","type":"address"},{"indexed":true,"internalType":"address","name":"liquidator","type":"address"},{"indexed":false,"internalType":"uint16","name":"localCurrencyId","type":"uint16"},{"indexed":false,"internalType":"int256","name":"localPrimeCashFromLiquidator","type":"int256"}],"name":"LiquidateLocalCurrency","type":"event"},{"inputs":[{"internalType":"address","name":"liquidateAccount","type":"address"},{"internalType":"uint16","name":"localCurrency","type":"uint16"},{"internalType":"uint16","name":"collateralCurrency","type":"uint16"},{"internalType":"uint128","name":"maxCollateralLiquidation","type":"uint128"},{"internalType":"uint96","name":"maxNTokenLiquidation","type":"uint96"}],"name":"calculateCollateralCurrencyLiquidation","outputs":[{"internalType":"int256","name":"","type":"int256"},{"internalType":"int256","name":"","type":"int256"},{"internalType":"int256","name":"","type":"int256"}],"stateMutability":"nonpayable","type":"function"},{"inputs":[{"internalType":"address","name":"liquidateAccount","type":"address"},{"internalType":"uint16","name":"localCurrency","type":"uint16"},{"internalType":"uint96","name":"maxNTokenLiquidation","type":"uint96"}],"name":"calculateLocalCurrencyLiquidation","outputs":[{"internalType":"int256","name":"","type":"int256"},{"internalType":"int256","name":"","type":"int256"}],"stateMutability":"nonpayable","type":"function"},{"inputs":[],"name":"getLibInfo","outputs":[{"internalType":"address","name":"","type":"address"}],"stateMutability":"pure","type":"function"},{"inputs":[{"internalType":"address","name":"liquidateAccount","type":"address"},{"internalType":"uint16","name":"localCurrency","type":"uint16"},{"internalType":"uint16","name":"collateralCurrency","type":"uint16"},{"internalType":"uint128","name":"maxCollateralLiquidation","type":"uint128"},{"internalType":"uint96","name":"maxNTokenLiquidation","type":"uint96"},{"internalType":"bool","name":"withdrawCollateral","type":"bool"},{"internalType":"bool","name":"redeemToUnderlying","type":"bool"}],"name":"liquidateCollateralCurrency","outputs":[{"internalType":"int256","name":"","type":"int256"},{"internalType":"int256","name":"","type":"int256"},{"internalType":"int256","name":"","type":"int256"}],"stateMutability":"payable","type":"function"},{"inputs":[{"internalType":"address","name":"liquidateAccount","type":"address"},{"internalType":"uint16","name":"localCurrency","type":"uint16"},{"internalType":"uint96","name":"maxNTokenLiquidation","type":"uint96"}],"name":"liquidateLocalCurrency","outputs":[{"internalType":"int256","name":"","type":"int256"},{"internalType":"int256","name":"","type":"int256"}],"stateMutability":"payable","type":"function"},{"inputs":[],"name":"owner","outputs":[{"internalType":"address","name":"","type":"address"}],"stateMutability":"view","type":"function"},{"inputs":[],"name":"pauseGuardian","outputs":[{"internalType":"address","name":"","type":"address"}],"stateMutability":"view","type":"function"},{"inputs":[],"name":"pauseRouter","outputs":[{"internalType":"address","name":"","type":"address"}],"stateMutability":"view","type":"function"}],"bytecode":"608060405234801561001057600080fd5b50614e76806100206000396000f3fe60806040526004361061007b5760003560e01c80638da5cb5b1161004e5780638da5cb5b146101035780639a600eeb14610118578063c4c96dae14610138578063e3e7cb4f1461014d5761007b565b806324a3d622146100805780632d10e6eb146100ab5780636633af39146100cc57806382463367146100ee575b600080fd5b34801561008c57600080fd5b5061009561016d565b6040516100a29190614b74565b60405180910390f35b6100be6100b93660046148e2565b61017c565b6040516100a2929190614c1c565b6100df6100da366004614851565b610256565b6040516100a293929190614c2a565b3480156100fa57600080fd5b5061009561030c565b34801561010f57600080fd5b5061009561031b565b34801561012457600080fd5b506100df6101333660046147e7565b610332565b34801561014457600080fd5b50610095610396565b34801561015957600080fd5b506100be6101683660046148e2565b6103ae565b6002546001600160a01b031681565b6000806002600a54141561018f57600080fd5b6002600a55600080806101a4888888846103fc565b92509250925060006101c5338a8a876101c08860a00151610455565b61046b565b90506101d2838a8461056a565b336001600160a01b0316896001600160a01b03167f4596c3b6545e97eb42b719442dd0afa8eb7680f3ff72c762763d4b292ee26ea78a87604051610217929190614d7f565b60405180910390a3610229813361058f565b610233828a61058f565b836102418460a00151610455565b6001600a55909a909950975050505050505050565b60008060006002600a54141561026b57600080fd5b6002600a55600080806102828d8d8d8d8d866106ac565b92509250925060006102998e8e8e87878e8e610707565b90506102a78e8e8487610753565b6102b2838f84610780565b6102be8e8e868661079e565b6102c8828f61058f565b6102d2813361058f565b836102e08460600151610455565b6102ed8560a00151610455565b965096509650505050506001600a819055509750975097945050505050565b6001546001600160a01b031681565b60005464010000000090046001600160a01b031681565b60008060006002600a54141561034757600080fd5b6002600a5560008061035e8a8a8a8a8a60016106ac565b5091509150816103718260600151610455565b61037e8360a00151610455565b6001600a55919c909b50909950975050505050505050565b73__FreeCollateralExternal________________90565b6000806002600a5414156103c157600080fd5b6002600a556000806103d687878760016103fc565b5091509150816103e98260a00151610455565b6001600a55909890975095505050505050565b6000610406614048565b61040e6140a4565b6104166140d9565b61042288886000610813565b5090925090506104348389898561096f565b84151561014082015261044886848361098a565b9350509450945094915050565b600061046360001983610ad0565b90505b919050565b6104736140a4565b60006104828561ffff16610b24565b9050600061048f88610b37565b9050610499614048565b6104a5818a898561096f565b600086136104b257600080fd5b82602001511561051457858160200151121580156104dc575060208201516001600160f81b031916155b6105015760405162461bcd60e51b81526004016104f890614cb5565b60405180910390fd5b61050a86610455565b6060820152610529565b6105278988888461012001516000610be5565b505b61053589898989610c5b565b600085131561054a5761054a888a8988610d01565b60a0810185905261055c818a8461056a565b509150505b95945050505050565b60808301511561057957600080fd5b6105898383848460006001610dae565b50505050565b6000610599610f85565b6001600160a01b03831660008181526020838152604080832088518154938a01518a84015160608c015160808d015160a08e015164ffffffffff1990981664ffffffffff9095169490941765ff00000000001916600160281b60f89490941c939093029290921766ff0000000000001916600160301b60ff909216919091021768ffff000000000000001916600160381b61ffff90921691909102177affffffffffffffffffffffffffffffffffff0000000000000000001916600160481b60709290921c919091021760ff60d81b1916600160d81b93151593909302929092179091555192935090917f6bd4b121bca854a191536a2ca891155c42ee2fb23f307fb34e8bc65cfcb5412e9190a2505050565b60006106b6614048565b6106be6140a4565b6106c66140d9565b6106d18a8a8a610813565b5090925090506106e3838b8a8561096f565b8415156101408201526106f887878584610f92565b93505096509650969350505050565b61070f6140a4565b61071d33898988600061046b565b905061074733828a896107338960600151610455565b6107408a60a00151610455565b89896110a7565b50979650505050505050565b61075b614048565b6107678186868661096f565b6060810182905261077981868561056a565b5050505050565b60808301511561078f57600080fd5b61058983838484600080610dae565b336001600160a01b0316846001600160a01b03167f88fff2f00941b1272999212de454ee8d15f54d132723b35e3423ef742109861c858460000151866107e78760600151610455565b6107f48860a00151610455565b604051610805959493929190614d93565b60405180910390a350505050565b61081b6140a4565b6108236140d9565b61082b61415e565b336001600160a01b038716141561084157600080fd5b61ffff851661084f57600080fd5b8461ffff168461ffff16141561086457600080fd5b600080600073__FreeCollateralExternal________________63451d958f8a8a8a6040518463ffffffff1660e01b81526004016108a493929190614bc5565b60006040518083038186803b1580156108bc57600080fd5b505af41580156108d0573d6000803e3d6000fd5b505050506040513d6000823e601f3d908101601f191682016040526108f89190810190614a47565b91945092509050610909838a61058f565b60408051608081018252828152815160008082526020828101909452928201908361094a565b610937614186565b81526020019060019003908161092f5790505b5081526000602082015292516040909301929092525091989097509095509350505050565b61097882611143565b61012085015261058984848484611155565b600081604001516000141561099e57600080fd5b60006109c66109ba846040015185602001518660c001516111fd565b61010085015190611243565b9050600083608001511315610ac85760a0830151600090600381901a90821a116109ef57600080fd5b60a08401516080850151600382901a60009290921a9190910360ff1690610a4390610a1a9083610ad0565b60a08701516040890151610a3d9160031a90610a37908890610ad0565b90610ad0565b9061128b565b915050610a5e818660400151886001600160601b03166112bc565b9050610a6981610455565b60a0868101919091526040860151908501516080860151600092610aa2929091610a3d91600381901a918391610a37908990891a610ad0565b6060870151909150610ab49082611306565b6060870152610ac38482611306565b935050505b509392505050565b818102600019831415610b0057811580610af2575082828281610aef57fe5b05145b610afb57600080fd5b610b1e565b821580610b15575081838281610b1257fe5b05145b610b1e57600080fd5b92915050565b610b2c6141c5565b61046382600161131c565b610b3f6140a4565b6000610b49610f85565b6001600160a01b03841660009081526020918252604090819020815160c081018352905464ffffffffff811682526001600160f81b0319600160281b820460f81b169382019390935260ff600160301b840481169282019290925261ffff600160381b84041660608201526001600160701b0319600160481b840460701b166080820152600160d81b90920416151560a0820152915050919050565b600083610bf457506000610561565b60008413610c0157600080fd5b6000610c108661ffff16610b24565b90506000610c2782610c2287896113b6565b6113e3565b90506000610c388989848989611426565b90945090508681036000811215610c4e57600080fd5b5050505095945050505050565b6000610c656114e8565b61ffff8416600090815260209190915260408120546001600160a01b03169150821215610c90579293925b806001600160a01b03166323de66518686610caa866114f5565b6040518463ffffffff1660e01b8152600401610cc893929190614b88565b600060405180830381600087803b158015610ce257600080fd5b505af1158015610cf6573d6000803e3d6000fd5b505050505050505050565b6000610d0b611516565b61ffff8416600090815260209190915260408120546001600160a01b03169150821215610d36579293925b6000610d41836114f5565b6040516323de665160e01b81529091506001600160a01b038316906323de665190610d7490899089908690600401614b88565b600060405180830381600087803b158015610d8e57600080fd5b505af1158015610da2573d6000803e3d6000fd5b50505050505050505050565b6000806000610dce88888b600001518c608001518d61012001518a611523565b92506000610ded8a608001518b6060015161130690919063ffffffff16565b9050848015610dfc5750600081125b8015610e17575060208a0151600090610e159083611306565b125b15610e42578660a00151610e3d5760405162461bcd60e51b81526004016104f890614c8c565b600191505b8015610e615760208a0151610e579082611306565b60208b0152600192505b5060a0890151151580610e77575060c089015115155b15610ee0576000610ea78a60c00151610ea18c60a001518d6040015161130690919063ffffffff16565b90611306565b90506000811215610eca5760405162461bcd60e51b81526004016104f890614d34565b610ed58a8a836115c8565b5060408a0152600191505b8115610f0f57610f0f888a600001518b602001518c604001518d60e001518e61010001518f61012001516116bf565b885160208a0151610f3c9161ffff1690151580610f2f575060408b015115155b889190600160fe1b6117fa565b600089602001511215610f6257602086018051600160f91b176001600160f81b03191690525b8015610f795788516101208a0151610f7991611a00565b50509695505050505050565b600080610b1e6001611a47565b600080826040015112610fb75760405162461bcd60e51b81526004016104f890614c40565b6000826060015113610fdb5760405162461bcd60e51b81526004016104f890614cd6565b600080610ff184886001600160801b0316611a60565b91509150600082905060008660200151131561104d57808660200151126110285761101b81610455565b606087015250600061104d565b6110358660200151610455565b6060870152602086015161104a908290611b13565b90505b600081138015611061575060008560800151135b1561107e5761107b8686838a6001600160601b0316611b2f565b90505b600081131561109c5760608601516110969082611bed565b60608701525b509695505050505050565b6110af6140a4565b816110cc5760405162461bcd60e51b81526004016104f890614cfd565b6110d4614048565b6110e0818b898c61096f565b6060810186905285156110f9576110f9888b8989610c5b565b841561110b5761110b888b8988610d01565b83156111205761111a86610455565b60808201525b60a08101859052611134818b8b6000611c03565b50979998505050505050505050565b61114b6141f4565b6104638242611c14565b8161ffff16600010801561116f5750613fff61ffff831611155b61117857600080fd5b61ffff821680855261118b908290611cd5565b156111ba576111a08383866101200151611d5f565b61010088015260e0870152604086015260208501526111d8565b6000602085018190526040850181905260e085018190526101008501525b50506000606083018190526080830181905260a0830181905260c09092019190915250565b60008060008513611212578260400151611218565b82606001515b90506000811361122757600080fd5b61056181610a3d6064610a3761123c89610455565b8890611e19565b8151600090819061126790610a3d856ec097ce7bc90715b34b9f1000000000610ad0565b9050600083126112775780611283565b61128381600019611e3b565b949350505050565b6000816000191480156112a15750600160ff1b83145b156112ab57600080fd5b8183816112b457fe5b059392505050565b6000806112cf6064610a3d866028610ad0565b905084848113156112dd5750835b818612156112e85750805b6000841380156112f757508381135b15610561575091949350505050565b81810182811215600083121514610b1e57600080fd5b6113246141c5565b600061132e611e51565b6000858152602082815260408083208715158452825291829020825160a08101845281546001600160a01b038116825260ff600160a01b82048116151594830194909452600160b01b81048416600a0a9482019490945293945092916060830191600160a81b9091041660058111156113a357fe5b8152600060209091015295945050505050565b6000806112676ec097ce7bc90715b34b9f1000000000610a3d866000015186610ad090919063ffffffff16565b60006305f5e1008360400151121561140b576114046001610ea18585611e5e565b9050610b1e565b61141f8361141a846001611306565b611e5e565b9392505050565b600080600061143486611e96565b9050806114485760008092509250506114de565b60006114578861ffff16610b24565b905060038160600151600581111561146b57fe5b14156114b2573482101561148b576114868983340387611ea9565b6114aa565b3482146114aa5760405162461bcd60e51b81526004016104f890614c67565b8693506114cc565b6114c96114c482600001518b85611f76565b6120f4565b93505b6114d9898986848a61210a565b925050505b9550959350505050565b600080610b1e6021611a47565b60008082121561150f5761150882610455565b9050610466565b5080610466565b600080610b1e6003611a47565b600083611532575060006115be565b6000841261153f57600080fd5b600061154e8661ffff16610b24565b905061155e8161141a86886113b6565b9150600061156b83610455565b9050611578878383612151565b60038260600151600581111561158a57fe5b14156115a05761159b888286611ea9565b6115ad565b81516115ad908983612247565b6115ba898885858961210a565b5050505b9695505050505050565b8251600090429082906115de9061ffff166122be565b905060006115eb826122e4565b505090506000611600838960c0015186612340565b905061160e88848389612423565b9450600061161b846124a2565b90506001600160a01b038116156116a357806001600160a01b0316633f3ef50d898b6000015161164e8d60400151611e96565b8b886040518663ffffffff1660e01b8152600401611670959493929190614bea565b600060405180830381600087803b15801561168a57600080fd5b505af115801561169e573d6000803e3d6000fd5b505050505b85156116b3576116b38887612514565b50505050509392505050565b60006116c9612533565b6001600160a01b03891660009081526020828152604080832061ffff8c1684529091529020909150846117315766ffffffffffffff84111561170a57600080fd5b805466ffffffffffffff60701b1916600160701b66ffffffffffffff86160217815561174b565b8054600160501b900463ffffffff16851461174b57600080fd5b61175485612540565b815463ffffffff91909116600160501b0263ffffffff60501b1990911617815561178561178087611e96565b612553565b815469ffffffffffffffffffff19166001600160501b0391909116178082556117cb906117c69085908c908c90600160a81b9004600a90810b900b8c612569565b61258c565b8154600a9190910b6001600160581b0316600160a81b026001600160a81b039091161790555050505050505050565b82600010801561180c5750613fff8311155b61181557600080fd5b818015611829575082846060015161ffff16145b1561183357610589565b6080840151600090815b6001600160701b03198216156119b55760f082901c613fff1686811480156118625750855b1561189a57506080870180516001600160f01b0319861660109093029290921c919091176001600160701b0319169052506105899050565b86811480156118a7575085155b15611903576001600160f01b03198516199290921691600360fe1b83166118e1576010836dffffffffffffffffffffffffffff1916901b92505b506001600160701b031991821660109091021c91909117166080850152610589565b868111801561190f5750855b15611969576080888101516001600160f01b031960f08a901b88178116601086021c9690961795911b161561194357600080fd5b506001600160701b03199182166001919091016010021c91909117166080850152610589565b8681118015611976575085155b156119845750505050610589565b506001600160f01b0319821660108281029190911c93909317929190911b6001600160801b0319169060010161183d565b846119c257505050610589565b600981106119cf57600080fd5b6001600160f01b031960f087901b85171660109091021c919091176001600160701b03191660808601525050505050565b600080611a0d84846125be565b9350935050508160001415611a23575050611a43565b818111156105895760405162461bcd60e51b81526004016104f890614d58565b5050565b6000620f4240826026811115611a5957fe5b0192915050565b600080600080611a6f86612682565b915091506000611aa78760e0015160600151611aa184610a3d60648c60c0015160400151610ad090919063ffffffff16565b90611bed565b905060008113611ab657600080fd5b611ac581610a3d856064610ad0565b945050611ad7848760600151876112bc565b93506000611af785886101200151604001516113b690919063ffffffff16565b9050611b05878383886126d6565b909890975095505050505050565b6000611b1f8383611bed565b90506000811215610b1e57600080fd5b60a0830151608084015160009180831a9160039190911a908390611b7290611b579085610ad0565b610a3d84610a378c604001518b610ad090919063ffffffff16565b9050600085138015611b8357508481135b15611b8b5750835b8760400151811315611b9e575060408701515b611ba781610455565b8860a0018181525050611be1611bda8960400151610a3d85610a3d88610a378e6080015189610ad090919063ffffffff16565b8790611b13565b98975050505050505050565b80820382811315600083121514610b1e57600080fd5b600061056185858686866001610dae565b611c1c6141f4565b6000611c2784612763565b90508281600001511015611c6657600080611c418661282b565b9050611c4f868483886128a8565b9093509150611c5f86838561294c565b5050611c73565b80518314611c7357600080fd5b6040518060600160405280611c9c6114c48460a001518560c00151612b8090919063ffffffff16565b8152602001611cbf6114c48460a001518560e00151612b8090919063ffffffff16565b8152602001826060015181525091505092915050565b60008115801590611ce85750613fff8211155b611cf157600080fd5b6080830151606084015161ffff16831415611d10576001915050610b1e565b6001600160701b0319811615611d555760f081901c613fff1683811415611d425750600160fe1b908116149050610b1e565b5060101b6001600160801b031916611d10565b5060009392505050565b6000806000806000611d6f612533565b6001600160a01b03891660009081526020828152604080832061ffff8c168452909152902080546001600160501b0381169650600160501b900463ffffffff1694509091508315611ddc578054611dd590600160701b900466ffffffffffffff16612ba7565b9250611df1565b8054600160701b900466ffffffffffffff1692505b8054611e0c908890600160a81b9004600a90810b900b612bb5565b9550505093509350935093565b6000806112838460200151610a3d866000015186610ad090919063ffffffff16565b6000818312611e4a578161141f565b5090919050565b600080610b1e6007611a47565b60006305f5e10083604001511415611e77575080610b1e565b61141f6305f5e100610a3d856040015185610ad090919063ffffffff16565b600080821215611ea557600080fd5b5090565b8015611f3b5773c02aaa39b223fe8d0a0e5c4f27ead9083c756cc26001600160a01b031663d0e30db0836040518263ffffffff1660e01b81526004016000604051808303818588803b158015611efe57600080fd5b505af1158015611f12573d6000803e3d6000fd5b5050505050611f3673c02aaa39b223fe8d0a0e5c4f27ead9083c756cc28484612247565b611f71565b6040516001600160a01b0384169083156108fc029084906000818181858888f19350505050158015610589573d6000803e3d6000fd5b505050565b600080846001600160a01b03166370a08231306040518263ffffffff1660e01b815260040180826001600160a01b0316815260200191505060206040518083038186803b158015611fc657600080fd5b505afa158015611fda573d6000803e3d6000fd5b505050506040513d6020811015611ff057600080fd5b5051604080516323b872dd60e01b81526001600160a01b038781166004830152306024830152604482018790529151929350908716916323b872dd9160648082019260009290919082900301818387803b15801561204d57600080fd5b505af1158015612061573d6000803e3d6000fd5b5050505061206d612bdc565b6000856001600160a01b03166370a08231306040518263ffffffff1660e01b815260040180826001600160a01b0316815260200191505060206040518083038186803b1580156120bc57600080fd5b505afa1580156120d0573d6000803e3d6000fd5b505050506040513d60208110156120e657600080fd5b505190506115be8183612c49565b60006001600160ff1b03821115611ea557600080fd5b6000806121178486612c5e565b90506121238382611243565b9150612130878784612c8e565b61213b868383612d0e565b83516121479086612e1a565b5095945050505050565b600061215b612e6f565b83516001600160a01b0316600090815260208290526040902054909150808311612186575050611f71565b600061219186612e7c565b90506000816001600160a01b031663b5e4da238487036040518263ffffffff1660e01b81526004016121c39190614dbf565b60006040518083038186803b1580156121db57600080fd5b505afa1580156121ef573d6000803e3d6000fd5b505050506040513d6000823e601f3d908101601f191682016040526122179190810190614928565b905060006122258783612eac565b905061223184826130ef565b86111561223d57600080fd5b5050505050505050565b826001600160a01b031663a9059cbb83836040518363ffffffff1660e01b815260040180836001600160a01b0316815260200182815260200192505050600060405180830381600087803b15801561229e57600080fd5b505af11580156122b2573d6000803e3d6000fd5b50505050611f71612bdc565b6000806122c9611516565b6000938452602052505060409020546001600160a01b031690565b6000806000806122f2613101565b6001600160a01b0395909516600090815260209590955250506040909220546001600160601b03811693600160601b82046001600160801b03169350600160e01b90910463ffffffff169150565b600080600061234f868561310e565b5091509150600061235e613101565b6001600160a01b03881660009081526020829052604081209192506123838589611306565b90508060001315801561239c57506001600160601b0381105b6123a557600080fd5b81546bffffffffffffffffffffffff19166001600160601b038216176fffffffffffffffffffffffffffffffff60601b1916600160601b6001600160801b0386160217825563ffffffff87106123fa57600080fd5b50805463ffffffff8716600160e01b026001600160e01b03909116179055509150509392505050565b60008460e0015160001461243657600080fd5b61247861247186610100015161246b670de0b6b3a76400006124658861245f8c60400151611e96565b90612b80565b906131a4565b90612c49565b82906130ef565b9050612490670de0b6b3a76400006124658486612b80565b85610100018181525050949350505050565b6000806124ad6131c3565b6001600160a01b0384166000908152602082905260409020805491925090600160f81b900460ff1615612509576124e26131d0565b6001600160a01b038086166000908152602092909252604090912054169250610466915050565b600092505050610466565b611a4373cfeaead4947f0705a14ec42ac3d44129e1ef3ed58383612247565b600080610b1e6006611a47565b600063ffffffff821115611ea557600080fd5b60006001600160501b03821115611ea557600080fd5b600061257586836131dd565b90506105618686866125878786613216565b61329d565b60006a7fffffffffffffffffffff1982128015906125b557506a7fffffffffffffffffffff8213155b611ea557600080fd5b60008060008060006125ce6132ca565b61ffff8716600090815260209190915260409020600181015490915061260090600160581b900463ffffffff16612ba7565b600182015490955061262490606490612465908890600160781b900460ff16612b80565b8154909350600160281b90046001600160581b031661264b61264689836113b6565b611e96565b60018301549095506001600160581b031660000361267461264661266f8b846132d7565b610455565b935050505092959194509250565b6000806126b36126a36126988560200151610455565b60e086015190611e19565b6101208501516040015190611243565b91506126cf8360e00151608001518460c0015160800151613322565b9050915091565b600080600061270986610a3d6126f48a60c001518b60e00151613331565b60c08b015151610a3d90610a378b6064610ad0565b905060006127258289610100015161124390919063ffffffff16565b905060006127368960400151610455565b9050808213156127545761274e82610a3d8884610ad0565b95508091505b50939793965092945050505050565b61276b614215565b60006127756132ca565b61ffff93841660009081526020918252604090819020805464ffffffffff81168652600160281b81046001600160581b03908116948701949094526001820154841692860192909252600160d81b820463ffffffff166060860152600160801b9091049091166080840152600201546001600160501b0380821660a0850152600160501b8204811660c0850152600160a01b82041660e0840152600160f01b900460ff1661012c02909216610100820152919050565b60008061283783612e7c565b6001600160a01b031663ef81f2166040518163ffffffff1660e01b81526004016040805180830381600087803b15801561287057600080fd5b505af1158015612884573d6000803e3d6000fd5b505050506040513d601f19601f820116820180604052508101906112839190614b51565b6128b0614215565b60008060006128c0888689613356565b60c08b019290925260e08a0192909252602089015191935091506128e490836130ef565b602088015260808701516000901561291257608088015161290f906129098982612c49565b90613461565b90505b612932612927670de0b6b3a7640000836130ef565b60a08a01519061347e565b60a089015250506080860194909452505082529092909150565b60006129566132ca565b60008561ffff168152602001908152602001600020905061297a826000015161349b565b815464ffffffffff191664ffffffffff9190911617815560a082015161299f90612553565b60028201805469ffffffffffffffffffff19166001600160501b039290921691909117905560c08201516129d290612553565b81600201600a6101000a8154816001600160501b0302191690836001600160501b03160217905550612a078260e00151612553565b8160020160146101000a8154816001600160501b0302191690836001600160501b03160217905550612a3c82602001516134af565b81546001600160581b0391909116600160281b026fffffffffffffffffffffff0000000000199091161781556040820151612a76906134af565b6001820180546affffffffffffffffffffff19166001600160581b03929092169190911790556080820151612aaa906134af565b81546001600160581b0391909116600160801b026affffffffffffffffffffff60801b199091161781556060820151612ae290612540565b815463ffffffff91909116600160d81b0263ffffffff60d81b199091161781558215612b2e576000612b13846120f4565b9050612b1f85826134c5565b612b2c610fee8683612c8e565b505b8361ffff167fef25641e225e493886510ca1ad6584fa7b442b9fea820a29d1de3ce27d270fd28360a001518460c001518560e00151604051612b7293929190614c2a565b60405180910390a250505050565b600082612b8f57506000610b1e565b82820282848281612b9c57fe5b041461141f57600080fd5b600881901c60ff9091161b90565b6000808212612bc5575080610b1e565b825160208401516114049190610a3d908590610ad0565b6000612be6614261565b3d8015612bfa5760208114612c0357600080fd5b60019250612c0e565b60206000833e815192505b5081611a43576040805162461bcd60e51b8152602060048201526005602482015264045524332360dc1b604482015290519081900360640190fd5b600082821115612c5857600080fd5b50900390565b60006305f5e10083604001511415612c77575080610b1e565b604083015161141f90610a3d846305f5e100610ad0565b6000612c986114e8565b61ffff8416600090815260209190915260409081902054905163ad1c095d60e01b81526001600160a01b039091169150819063ad1c095d90612ce09087908690600401614bac565b600060405180830381600087803b158015612cfa57600080fd5b505af115801561223d573d6000803e3d6000fd5b6000612d186132ca565b61ffff8516600090815260209190915260409020805490915064ffffffffff164214612d4357600080fd5b8054600090612d6290600160281b90046001600160581b031685611306565b8254909150600090612d8490600160801b90046001600160581b031685611306565b905080624c4b401315612d9657600080fd5b612da7612da282611e96565b6134af565b83546001600160581b0391909116600160801b026affffffffffffffffffffff60801b19909116178355612ddd612da283611e96565b83546001600160581b0391909116600160281b026fffffffffffffffffffffff000000000019909116178355612e12836134fc565b505050505050565b6000612e24612e6f565b6001600160a01b038416600090815260208290526040902054909150612e4d6126468285611306565b6001600160a01b03909416600090815260209290925250604090209190915550565b600080610b1e6026611a47565b600080612e876135c1565b61ffff939093166000908152602093909352505060409020546001600160a01b031690565b6000805b82518110156130e8576000838281518110612ec757fe5b60200260200101519050600081606001516001600160a01b03166370a08231306040518263ffffffff1660e01b8152600401612f039190614b74565b60206040518083038186803b158015612f1b57600080fd5b505afa158015612f2f573d6000803e3d6000fd5b505050506040513d601f19601f82011682018060405250810190612f539190614b39565b90506000612f6187306135ce565b905060005b835151811015612fb257612faa84600001518281518110612f8357fe5b6020026020010151600086602001518481518110612f9d57fe5b6020026020010151613678565b600101612f66565b506000612fbf88306135ce565b90506000612fcd8284612c49565b90508085604001511115612fe057600080fd5b60608501516040516370a0823160e01b81526000916001600160a01b0316906370a0823190613013903090600401614b74565b60206040518083038186803b15801561302b57600080fd5b505afa15801561303f573d6000803e3d6000fd5b505050506040513d601f19601f820116820180604052508101906130639190614b39565b90508481111561307257600080fd5b608086015160ff1615801590613091575061308d8582612c49565b8214155b156130ac5760808601516130a990829060ff166130ef565b90505b6130bb866060015186836137b5565b6130c588836130ef565b97506130d68a6000015185856137b5565b505060019094019350612eb092505050565b5092915050565b60008282018381101561141f57600080fd5b600080610b1e6011611a47565b600080600061311c856122e4565b9194509250905080841180156131325750600081115b801561313e5750600083115b1561319d57600061314e86613832565b50505091505060006131796131706305f5e10084612b8090919063ffffffff16565b8488038761389b565b905061318584826130ef565b93506001600160801b03841061319a57600080fd5b50505b9250925092565b60008082116131b257600080fd5b8183816131bb57fe5b049392505050565b600080610b1e6002611a47565b600080610b1e6012611a47565b6000808212156132105761320b6001611aa18560200151610a3d876000015187610ad090919063ffffffff16565b61141f565b50919050565b600081831480613233575060008312158015613233575060008212155b1561324057506000610b1e565b600083131580156132515750816000125b1561325d575081610b1e565b6000821315801561326e5750826000125b1561327c5761140482610455565b6000831315801561328e575060008213155b1561007b576114048383611bed565b801561058957835160208501516000916132bc91610a3d908590610ad0565b9050610779848484846138bd565b600080610b1e601d611a47565b6000600182126132e657600080fd5b816132f357506000610b1e565b61141f6001611aa16ec097ce7bc90715b34b9f1000000000610a3d876020015187610ad090919063ffffffff16565b6000818313611e4a578161141f565b600061141f8260200151610a3d84600001518660200151610ad090919063ffffffff16565b6000806000806000806133698988613a03565b8951909550919350915060009061339090613385908b90612c49565b633b9aca0090612b80565b90506133ca6133bf6301da9c006133a78585612b80565b816133ae57fe5b670de0b6b3a76400009190046130ef565b60e08a01519061347e565b96506133ec6133e16301da9c006133a78785612b80565b60c08a01519061347e565b955081831415613403575060009350613458915050565b600061342561341a6301da9c006133a78786612b80565b60e08b01519061347e565b905060006134338983612c49565b905061345088612465838d60400151612b8090919063ffffffff16565b965050505050505b93509350935093565b600061141f61347884670de0b6b3a7640000612b80565b836131a4565b600061141f61348d8484612b80565b670de0b6b3a76400006131a4565b600064ffffffffff821115611ea557600080fd5b60006001600160581b03821115611ea557600080fd5b60008112156134d357600080fd5b60006134e1610fee84613a9d565b90506134ed8183611306565b9050611f71610fee8483613af6565b8054600282015460009161353891600160281b9091046001600160581b031690610a37906001600160501b03600160501b820481169116610ad0565b60018301546002840154919250600091613572916001600160581b031690610a37906001600160501b03600160a01b820481169116610ad0565b83549091506000906135a99060016001600160581b03600160801b909204821601166ec097ce7bc90715b34b9f1000000000610ad0565b9050806135b68484611bed565b131561058957600080fd5b600080610b1e601f611a47565b60006003836060015160058111156135e257fe5b14156135f957506001600160a01b03811631610b1e565b82516040516370a0823160e01b81526001600160a01b03909116906370a0823190613628908590600401614b74565b60206040518083038186803b15801561364057600080fd5b505afa158015613654573d6000803e3d6000fd5b505050506040513d601f19601f820116820180604052508101906114049190614b39565b600080846001600160a01b031684846040518082805190602001908083835b602083106136b65780518252601f199092019160209182019101613697565b6001836020036101000a03801982511681845116808217855250505050505090500191505060006040518083038185875af1925050503d8060008114613718576040519150601f19603f3d011682016040523d82523d6000602084013e61371d565b606091505b50915091508161372c82613b6a565b90612e125760405162461bcd60e51b81526004018080602001828103825283818151815260200191508051906020019080838360005b8381101561377a578181015183820152602001613762565b50505050905090810190601f1680156137a75780820380516001836020036101000a031916815260200191505b509250505060405180910390fd5b60006137bf612e6f565b6001600160a01b038516600090815260208290526040902054909150838111156137e857600080fd5b60006137ff6137f6866120f4565b611aa1866120f4565b905061380e6126468383611306565b6001600160a01b039096166000908152602093909352505060409020929092555050565b6000806000806000806138436131c3565b6001600160a01b039097166000908152602097909752505060409094205461ffff81169563ffffffff62010000830481169650600160301b830416945060ff600160501b8304169350600160581b90910460d01b9150565b6000611283826124656301da9c00818861245f89670de0b6b3a7640000612b80565b60006138c76132ca565b61ffff8516600090815260209190915260409020805490915064ffffffffff1642146138f257600080fd5b8054600160f81b900460ff1661390757600080fd5b6001810154600090613922906001600160581b031685611306565b825490915060009061394490600160281b90046001600160581b031685611306565b9050816009191280156139575750600082125b1561396157600091505b806009191280156139725750600081125b1561397b575060005b613987612da283611e96565b6001840180546affffffffffffffffffffff19166001600160581b03929092169190911790556139b9612da282611e96565b83546001600160581b0391909116600160281b026fffffffffffffffffffffff0000000000199091161783556139f187878688613c71565b6139fa836134fc565b50505050505050565b600080600080600085602001511115613a5057613a4d613a348660c001518760200151612b8090919063ffffffff16565b60e08701516040880151613a4791612b80565b90613d4b565b90505b6000613a5b87613d5e565b9050613a678183613d91565b94508115613a7e57613a7b81866001613e4a565b93505b60208601511561319a57613a928583613ec2565b925050509250925092565b600080613aa8612533565b6001600160a01b03851660009081526020828152604080832061ffff8816845290915281208054600160a81b9004600a90810b900b9450919250831215613aee57600080fd5b505092915050565b6000811215613b0457600080fd5b6000613b0e612533565b6001600160a01b03851660009081526020828152604080832061ffff881684529091529020909150613b3f8361258c565b8154600a9190910b6001600160581b0316600160a81b026001600160a81b0390911617905550505050565b6060604482511015613ba0575060408051808201909152600d81526c14da5b195b9d0814995d995c9d609a1b6020820152610466565b6004820180519092602401906020811015613bba57600080fd5b8101908080516040519392919084640100000000821115613bda57600080fd5b908301906020820185811115613bef57600080fd5b8251640100000000811182820188101715613c0957600080fd5b82525081516020918201929091019080838360005b83811015613c36578181015183820152602001613c1e565b50505050905090810190601f168015613c635780820380516001836020036101000a031916815260200191505b506040525050509050919050565b6000613c7b6114e8565b61ffff8516600090815260209190915260408120546001600160a01b03169150613ca3613edb565b61ffff8616600090815260209190915260409081902054905163ad1c095d60e01b81526001600160a01b039091169150819063ad1c095d90613ceb9089908790600401614bac565b600060405180830381600087803b158015613d0557600080fd5b505af1158015613d19573d6000803e3d6000fd5b505060405163ad1c095d60e01b81526001600160a01b038516925063ad1c095d9150610d749089908890600401614bac565b600061141f61347884633b9aca00612b80565b613d6661427f565b6000613d70613ee8565b61ffff841660009081526020919091526040812054915061141f9082613ef5565b600080836080015111613da357600080fd5b633b9aca00821115613db457600080fd5b82518211613dd357825160408401516114049190612465908590612b80565b82602001518211613e115760408301518351602085015160608601516114049392613e0b928190039161246591880390859003612b80565b906130ef565b61141f8360600151613e0b8560200151633b9aca0003612465876060015188608001510388602001518803612b8090919063ffffffff16565b600080613e6960646124658760e0015187612b8090919063ffffffff16565b90508460a00151811015613e7e575060a08401515b8460c00151811115613e91575060c08401515b8215613ea857613ea184826130ef565b9150610ac8565b838111613eb757808403610561565b506000949350505050565b600061141f613ed18484612b80565b633b9aca006131a4565b600080610b1e6022611a47565b600080610b1e601b611a47565b613efd61427f565b6064633b9aca008360ff861660208110613f1357fe5b1a0281613f1c57fe5b0481526064633b9aca008360ff861660010160208110613f3857fe5b1a0281613f4157fe5b04816020018181525050613f668260028560ff160160208110613f6057fe5b1a614014565b60808201819052610100908360ff861660030160208110613f8357fe5b1a0281613f8c57fe5b0460408201526080810151610100908360ff861660040160208110613fad57fe5b1a0281613fb657fe5b0460608201526207a1208260ff851660050160208110613fd257fe5b1a0260a0820152622625a08260ff851660060160208110613fef57fe5b1a0260c08201528160ff84166007016020811061400857fe5b1a60e082015292915050565b60008160ff1660961061402f5760ff8216622625a002610463565b5060951960ff919091160162e4e1c00263165a0bc00190565b604051806101400160405280600061ffff168152602001600081526020016000815260200160008152602001600081526020016000815260200160008152602001600081526020016000815260200161409f6141f4565b905290565b6040805160c081018252600080825260208201819052918101829052606081018290526080810182905260a081019190915290565b60405180610160016040528060006001600160a01b031681526020016000815260200160008152602001600081526020016000815260200160006001600160d01b031916815260200161412a6142c4565b81526020016141376142c4565b81526020016141446141f4565b81526020016141516142f3565b8152600060209091015290565b6040518060800160405280606081526020016060815260200160008152602001600081525090565b6040518060c00160405280600061ffff168152602001600081526020016000815260200160008152602001600081526020016000600381111561409f57fe5b6040805160a0810182526000808252602082018190529181018290529060608201908152602001600081525090565b60405180606001604052806000815260200160008152602001600081525090565b6040518061012001604052806000815260200160008152602001600081526020016000815260200160008152602001600081526020016000815260200160008152602001600081525090565b60405180602001604052806001906020820280368337509192915050565b60405180610100016040528060008152602001600081526020016000815260200160008152602001600081526020016000815260200160008152602001600081525090565b6040518060a0016040528060008152602001600081526020016000815260200160008152602001600081525090565b60408051608081018252600080825260208201529081016141516141f4565b805161046681614e0a565b600082601f83011261432d578081fd5b8151602061434261433d83614dec565b614dc8565b828152818101908583018385028701840188101561435e578586fd5b855b8581101561438557815161437381614e0a565b84529284019290840190600101614360565b5090979650505050505050565b6000601f83818401126143a3578182fd5b825160206143b361433d83614dec565b82815281810190868301865b8581101561445857815189018a603f8201126143d9578889fd5b8581015167ffffffffffffffff8111156143ef57fe5b614400818a01601f19168801614dc8565b81815260408d81848601011115614415578b8cfd5b8b5b83811015614432578481018201518382018b01528901614417565b83811115614442578c8a85850101525b50508652505092840192908401906001016143bf565b509098975050505050505050565b600082601f830112614476578081fd5b8151602061448661433d83614dec565b8281528181019085830160c0808602880185018910156144a4578687fd5b865b868110156145365781838b0312156144bc578788fd5b6040805183810181811067ffffffffffffffff821117156144d957fe5b825284516144e681614e30565b815284880151888201528185015191810191909152606080850151908201526080808501519082015260a09061451d828601614597565b91810191909152855293850193918101916001016144a6565b509198975050505050505050565b805161046681614e22565b80516001600160701b03198116811461046657600080fd5b80516001600160f81b03198116811461046657600080fd5b80516001600160d01b03198116811461046657600080fd5b80516004811061046657600080fd5b600060c082840312156145b7578081fd5b6040516080810181811067ffffffffffffffff821117156145d457fe5b806040525080915082516145e781614e30565b8152602083810151908201526146008460408501614748565b604082015260a083015160608201525092915050565b600060a08284031215614627578081fd5b60405160a0810181811067ffffffffffffffff8211171561464457fe5b806040525080915082518152602083015160208201526040830151604082015260608301516060820152608083015160808201525092915050565b60006103408284031215614691578081fd5b61016061469d81614dc8565b91506146a883614312565b8252602083015160208301526040830151604083015260608301516060830152608083015160808301526146de60a0840161457f565b60a08301526146f08460c08501614616565b60c083015261470184828501614616565b60e083015250614715836102008401614748565b6101008201526147298361026084016145a6565b61012082015261473c6103208301614544565b61014082015292915050565b600060608284031215614759578081fd5b6040516060810181811067ffffffffffffffff8211171561477657fe5b80604052508091508251815260208301516020820152604083015160408201525092915050565b80356001600160801b038116811461046657600080fd5b805161046681614e30565b805160ff8116811461046657600080fd5b80356001600160601b038116811461046657600080fd5b600080600080600060a086880312156147fe578081fd5b853561480981614e0a565b9450602086013561481981614e30565b9350604086013561482981614e30565b92506148376060870161479d565b9150614845608087016147d0565b90509295509295909350565b600080600080600080600060e0888a03121561486b578485fd5b873561487681614e0a565b9650602088013561488681614e30565b9550604088013561489681614e30565b94506148a46060890161479d565b93506148b2608089016147d0565b925060a08801356148c281614e22565b915060c08801356148d281614e22565b8091505092959891949750929550565b6000806000606084860312156148f6578081fd5b833561490181614e0a565b9250602084013561491181614e30565b915061491f604085016147d0565b90509250925092565b6000602080838503121561493a578182fd5b825167ffffffffffffffff80821115614951578384fd5b818501915085601f830112614964578384fd5b815161497261433d82614dec565b81815284810190848601875b84811015614a38578151870160a0818d03601f1901121561499d57898afd5b6040805160a081018181108a821117156149b357fe5b8252828b0151898111156149c5578c8dfd5b6149d38f8d8387010161431d565b82525081830151898111156149e6578c8dfd5b6149f48f8d83870101614392565b8c83015250606083015182820152614a0e60808401614312565b6060820152614a1f60a084016147bf565b608082015286525050928701929087019060010161497e565b50909998505050505050505050565b6000806000838503610420811215614a5d578182fd5b60c0811215614a6a578182fd5b5060405160c0810167ffffffffffffffff8282108183111715614a8957fe5b816040528651915064ffffffffff82168214614aa3578384fd5b818352614ab260208801614567565b6020840152614ac3604088016147bf565b6040840152614ad4606088016147b4565b6060840152614ae56080880161454f565b6080840152614af660a08801614544565b60a0840152829550614b0b8860c0890161467f565b9450610400870151925080831115614b21578384fd5b5050614b2f86828701614466565b9150509250925092565b600060208284031215614b4a578081fd5b5051919050565b60008060408385031215614b63578182fd5b505080516020909101519092909150565b6001600160a01b0391909116815260200190565b6001600160a01b039384168152919092166020820152604081019190915260600190565b6001600160a01b03929092168252602082015260400190565b6001600160a01b0393909316835261ffff918216602084015216604082015260600190565b6001600160a01b0395909516855261ffff93909316602085015260408401919091526060830152608082015260a00190565b918252602082015260400190565b9283526020830191909152604082015260600190565b6020808252600d908201526c139bc81b1bd8d85b081919589d609a1b604082015260600190565b6020808252600b908201526a4554482042616c616e636560a81b604082015260600190565b6020808252600f908201526e4e6f205072696d6520426f72726f7760881b604082015260600190565b60208082526007908201526609cde40c6c2e6d60cb1b604082015260600190565b6020808252600d908201526c139bc818dbdb1b185d195c985b609a1b604082015260600190565b6020808252601c908201527f446570726563617465643a2052656465656d20746f2063546f6b656e00000000604082015260600190565b6020808252600a90820152692732b390372a37b5b2b760b11b604082015260600190565b6020808252600d908201526c04f76657220446562742043617609c1b604082015260600190565b61ffff929092168252602082015260400190565b61ffff958616815293909416602084015260408301919091526060820152608081019190915260a00190565b90815260200190565b60405181810167ffffffffffffffff81118282101715614de457fe5b604052919050565b600067ffffffffffffffff821115614e0057fe5b5060209081020190565b6001600160a01b0381168114614e1f57600080fd5b50565b8015158114614e1f57600080fd5b61ffff81168114614e1f57600080fdfea264697066735822122010a0ebe9000396ea12e67c1e63041c393f9df5cbca2b42d26bd103ba2ba8eb8564736f6c63430007060033","bytecodeSha1":"215df423af223c47dbc1e2df4b3aaf8cae6884f4","compiler":{"evm_version":"istanbul","optimizer":{"enabled":true,"runs":200},"version":"0.7.6+commit.7338295f"},"contractName":"LiquidateCurrencyAction","deployedBytecode":"60806040526004361061007b5760003560e01c80638da5cb5b1161004e5780638da5cb5b146101035780639a600eeb14610118578063c4c96dae14610138578063e3e7cb4f1461014d5761007b565b806324a3d622146100805780632d10e6eb146100ab5780636633af39146100cc57806382463367146100ee575b600080fd5b34801561008c57600080fd5b5061009561016d565b6040516100a29190614b74565b60405180910390f35b6100be6100b93660046148e2565b61017c565b6040516100a2929190614c1c565b6100df6100da366004614851565b610256565b6040516100a293929190614c2a565b3480156100fa57600080fd5b5061009561030c565b34801561010f57600080fd5b5061009561031b565b34801561012457600080fd5b506100df6101333660046147e7565b610332565b34801561014457600080fd5b50610095610396565b34801561015957600080fd5b506100be6101683660046148e2565b6103ae565b6002546001600160a01b031681565b6000806002600a54141561018f57600080fd5b6002600a55600080806101a4888888846103fc565b92509250925060006101c5338a8a876101c08860a00151610455565b61046b565b90506101d2838a8461056a565b336001600160a01b0316896001600160a01b03167f4596c3b6545e97eb42b719442dd0afa8eb7680f3ff72c762763d4b292ee26ea78a87604051610217929190614d7f565b60405180910390a3610229813361058f565b610233828a61058f565b836102418460a00151610455565b6001600a55909a909950975050505050505050565b60008060006002600a54141561026b57600080fd5b6002600a55600080806102828d8d8d8d8d866106ac565b92509250925060006102998e8e8e87878e8e610707565b90506102a78e8e8487610753565b6102b2838f84610780565b6102be8e8e868661079e565b6102c8828f61058f565b6102d2813361058f565b836102e08460600151610455565b6102ed8560a00151610455565b965096509650505050506001600a819055509750975097945050505050565b6001546001600160a01b031681565b60005464010000000090046001600160a01b031681565b60008060006002600a54141561034757600080fd5b6002600a5560008061035e8a8a8a8a8a60016106ac565b5091509150816103718260600151610455565b61037e8360a00151610455565b6001600a55919c909b50909950975050505050505050565b73__$841fddfe32830bb6dbc3a02d7f16c53722$__90565b6000806002600a5414156103c157600080fd5b6002600a556000806103d687878760016103fc565b5091509150816103e98260a00151610455565b6001600a55909890975095505050505050565b6000610406614048565b61040e6140a4565b6104166140d9565b61042288886000610813565b5090925090506104348389898561096f565b84151561014082015261044886848361098a565b9350509450945094915050565b600061046360001983610ad0565b90505b919050565b6104736140a4565b60006104828561ffff16610b24565b9050600061048f88610b37565b9050610499614048565b6104a5818a898561096f565b600086136104b257600080fd5b82602001511561051457858160200151121580156104dc575060208201516001600160f81b031916155b6105015760405162461bcd60e51b81526004016104f890614cb5565b60405180910390fd5b61050a86610455565b6060820152610529565b6105278988888461012001516000610be5565b505b61053589898989610c5b565b600085131561054a5761054a888a8988610d01565b60a0810185905261055c818a8461056a565b509150505b95945050505050565b60808301511561057957600080fd5b6105898383848460006001610dae565b50505050565b6000610599610f85565b6001600160a01b03831660008181526020838152604080832088518154938a01518a84015160608c015160808d015160a08e015164ffffffffff1990981664ffffffffff9095169490941765ff00000000001916600160281b60f89490941c939093029290921766ff0000000000001916600160301b60ff909216919091021768ffff000000000000001916600160381b61ffff90921691909102177affffffffffffffffffffffffffffffffffff0000000000000000001916600160481b60709290921c919091021760ff60d81b1916600160d81b93151593909302929092179091555192935090917f6bd4b121bca854a191536a2ca891155c42ee2fb23f307fb34e8bc65cfcb5412e9190a2505050565b60006106b6614048565b6106be6140a4565b6106c66140d9565b6106d18a8a8a610813565b5090925090506106e3838b8a8561096f565b8415156101408201526106f887878584610f92565b93505096509650969350505050565b61070f6140a4565b61071d33898988600061046b565b905061074733828a896107338960600151610455565b6107408a60a00151610455565b89896110a7565b50979650505050505050565b61075b614048565b6107678186868661096f565b6060810182905261077981868561056a565b5050505050565b60808301511561078f57600080fd5b61058983838484600080610dae565b336001600160a01b0316846001600160a01b03167f88fff2f00941b1272999212de454ee8d15f54d132723b35e3423ef742109861c858460000151866107e78760600151610455565b6107f48860a00151610455565b604051610805959493929190614d93565b60405180910390a350505050565b61081b6140a4565b6108236140d9565b61082b61415e565b336001600160a01b038716141561084157600080fd5b61ffff851661084f57600080fd5b8461ffff168461ffff16141561086457600080fd5b600080600073__$841fddfe32830bb6dbc3a02d7f16c53722$__63451d958f8a8a8a6040518463ffffffff1660e01b81526004016108a493929190614bc5565b60006040518083038186803b1580156108bc57600080fd5b505af41580156108d0573d6000803e3d6000fd5b505050506040513d6000823e601f3d908101601f191682016040526108f89190810190614a47565b91945092509050610909838a61058f565b60408051608081018252828152815160008082526020828101909452928201908361094a565b610937614186565b81526020019060019003908161092f5790505b5081526000602082015292516040909301929092525091989097509095509350505050565b61097882611143565b61012085015261058984848484611155565b600081604001516000141561099e57600080fd5b60006109c66109ba846040015185602001518660c001516111fd565b61010085015190611243565b9050600083608001511315610ac85760a0830151600090600381901a90821a116109ef57600080fd5b60a08401516080850151600382901a60009290921a9190910360ff1690610a4390610a1a9083610ad0565b60a08701516040890151610a3d9160031a90610a37908890610ad0565b90610ad0565b9061128b565b915050610a5e818660400151886001600160601b03166112bc565b9050610a6981610455565b60a0868101919091526040860151908501516080860151600092610aa2929091610a3d91600381901a918391610a37908990891a610ad0565b6060870151909150610ab49082611306565b6060870152610ac38482611306565b935050505b509392505050565b818102600019831415610b0057811580610af2575082828281610aef57fe5b05145b610afb57600080fd5b610b1e565b821580610b15575081838281610b1257fe5b05145b610b1e57600080fd5b92915050565b610b2c6141c5565b61046382600161131c565b610b3f6140a4565b6000610b49610f85565b6001600160a01b03841660009081526020918252604090819020815160c081018352905464ffffffffff811682526001600160f81b0319600160281b820460f81b169382019390935260ff600160301b840481169282019290925261ffff600160381b84041660608201526001600160701b0319600160481b840460701b166080820152600160d81b90920416151560a0820152915050919050565b600083610bf457506000610561565b60008413610c0157600080fd5b6000610c108661ffff16610b24565b90506000610c2782610c2287896113b6565b6113e3565b90506000610c388989848989611426565b90945090508681036000811215610c4e57600080fd5b5050505095945050505050565b6000610c656114e8565b61ffff8416600090815260209190915260408120546001600160a01b03169150821215610c90579293925b806001600160a01b03166323de66518686610caa866114f5565b6040518463ffffffff1660e01b8152600401610cc893929190614b88565b600060405180830381600087803b158015610ce257600080fd5b505af1158015610cf6573d6000803e3d6000fd5b505050505050505050565b6000610d0b611516565b61ffff8416600090815260209190915260408120546001600160a01b03169150821215610d36579293925b6000610d41836114f5565b6040516323de665160e01b81529091506001600160a01b038316906323de665190610d7490899089908690600401614b88565b600060405180830381600087803b158015610d8e57600080fd5b505af1158015610da2573d6000803e3d6000fd5b50505050505050505050565b6000806000610dce88888b600001518c608001518d61012001518a611523565b92506000610ded8a608001518b6060015161130690919063ffffffff16565b9050848015610dfc5750600081125b8015610e17575060208a0151600090610e159083611306565b125b15610e42578660a00151610e3d5760405162461bcd60e51b81526004016104f890614c8c565b600191505b8015610e615760208a0151610e579082611306565b60208b0152600192505b5060a0890151151580610e77575060c089015115155b15610ee0576000610ea78a60c00151610ea18c60a001518d6040015161130690919063ffffffff16565b90611306565b90506000811215610eca5760405162461bcd60e51b81526004016104f890614d34565b610ed58a8a836115c8565b5060408a0152600191505b8115610f0f57610f0f888a600001518b602001518c604001518d60e001518e61010001518f61012001516116bf565b885160208a0151610f3c9161ffff1690151580610f2f575060408b015115155b889190600160fe1b6117fa565b600089602001511215610f6257602086018051600160f91b176001600160f81b03191690525b8015610f795788516101208a0151610f7991611a00565b50509695505050505050565b600080610b1e6001611a47565b600080826040015112610fb75760405162461bcd60e51b81526004016104f890614c40565b6000826060015113610fdb5760405162461bcd60e51b81526004016104f890614cd6565b600080610ff184886001600160801b0316611a60565b91509150600082905060008660200151131561104d57808660200151126110285761101b81610455565b606087015250600061104d565b6110358660200151610455565b6060870152602086015161104a908290611b13565b90505b600081138015611061575060008560800151135b1561107e5761107b8686838a6001600160601b0316611b2f565b90505b600081131561109c5760608601516110969082611bed565b60608701525b509695505050505050565b6110af6140a4565b816110cc5760405162461bcd60e51b81526004016104f890614cfd565b6110d4614048565b6110e0818b898c61096f565b6060810186905285156110f9576110f9888b8989610c5b565b841561110b5761110b888b8988610d01565b83156111205761111a86610455565b60808201525b60a08101859052611134818b8b6000611c03565b50979998505050505050505050565b61114b6141f4565b6104638242611c14565b8161ffff16600010801561116f5750613fff61ffff831611155b61117857600080fd5b61ffff821680855261118b908290611cd5565b156111ba576111a08383866101200151611d5f565b61010088015260e0870152604086015260208501526111d8565b6000602085018190526040850181905260e085018190526101008501525b50506000606083018190526080830181905260a0830181905260c09092019190915250565b60008060008513611212578260400151611218565b82606001515b90506000811361122757600080fd5b61056181610a3d6064610a3761123c89610455565b8890611e19565b8151600090819061126790610a3d856ec097ce7bc90715b34b9f1000000000610ad0565b9050600083126112775780611283565b61128381600019611e3b565b949350505050565b6000816000191480156112a15750600160ff1b83145b156112ab57600080fd5b8183816112b457fe5b059392505050565b6000806112cf6064610a3d866028610ad0565b905084848113156112dd5750835b818612156112e85750805b6000841380156112f757508381135b15610561575091949350505050565b81810182811215600083121514610b1e57600080fd5b6113246141c5565b600061132e611e51565b6000858152602082815260408083208715158452825291829020825160a08101845281546001600160a01b038116825260ff600160a01b82048116151594830194909452600160b01b81048416600a0a9482019490945293945092916060830191600160a81b9091041660058111156113a357fe5b8152600060209091015295945050505050565b6000806112676ec097ce7bc90715b34b9f1000000000610a3d866000015186610ad090919063ffffffff16565b60006305f5e1008360400151121561140b576114046001610ea18585611e5e565b9050610b1e565b61141f8361141a846001611306565b611e5e565b9392505050565b600080600061143486611e96565b9050806114485760008092509250506114de565b60006114578861ffff16610b24565b905060038160600151600581111561146b57fe5b14156114b2573482101561148b576114868983340387611ea9565b6114aa565b3482146114aa5760405162461bcd60e51b81526004016104f890614c67565b8693506114cc565b6114c96114c482600001518b85611f76565b6120f4565b93505b6114d9898986848a61210a565b925050505b9550959350505050565b600080610b1e6021611a47565b60008082121561150f5761150882610455565b9050610466565b5080610466565b600080610b1e6003611a47565b600083611532575060006115be565b6000841261153f57600080fd5b600061154e8661ffff16610b24565b905061155e8161141a86886113b6565b9150600061156b83610455565b9050611578878383612151565b60038260600151600581111561158a57fe5b14156115a05761159b888286611ea9565b6115ad565b81516115ad908983612247565b6115ba898885858961210a565b5050505b9695505050505050565b8251600090429082906115de9061ffff166122be565b905060006115eb826122e4565b505090506000611600838960c0015186612340565b905061160e88848389612423565b9450600061161b846124a2565b90506001600160a01b038116156116a357806001600160a01b0316633f3ef50d898b6000015161164e8d60400151611e96565b8b886040518663ffffffff1660e01b8152600401611670959493929190614bea565b600060405180830381600087803b15801561168a57600080fd5b505af115801561169e573d6000803e3d6000fd5b505050505b85156116b3576116b38887612514565b50505050509392505050565b60006116c9612533565b6001600160a01b03891660009081526020828152604080832061ffff8c1684529091529020909150846117315766ffffffffffffff84111561170a57600080fd5b805466ffffffffffffff60701b1916600160701b66ffffffffffffff86160217815561174b565b8054600160501b900463ffffffff16851461174b57600080fd5b61175485612540565b815463ffffffff91909116600160501b0263ffffffff60501b1990911617815561178561178087611e96565b612553565b815469ffffffffffffffffffff19166001600160501b0391909116178082556117cb906117c69085908c908c90600160a81b9004600a90810b900b8c612569565b61258c565b8154600a9190910b6001600160581b0316600160a81b026001600160a81b039091161790555050505050505050565b82600010801561180c5750613fff8311155b61181557600080fd5b818015611829575082846060015161ffff16145b1561183357610589565b6080840151600090815b6001600160701b03198216156119b55760f082901c613fff1686811480156118625750855b1561189a57506080870180516001600160f01b0319861660109093029290921c919091176001600160701b0319169052506105899050565b86811480156118a7575085155b15611903576001600160f01b03198516199290921691600360fe1b83166118e1576010836dffffffffffffffffffffffffffff1916901b92505b506001600160701b031991821660109091021c91909117166080850152610589565b868111801561190f5750855b15611969576080888101516001600160f01b031960f08a901b88178116601086021c9690961795911b161561194357600080fd5b506001600160701b03199182166001919091016010021c91909117166080850152610589565b8681118015611976575085155b156119845750505050610589565b506001600160f01b0319821660108281029190911c93909317929190911b6001600160801b0319169060010161183d565b846119c257505050610589565b600981106119cf57600080fd5b6001600160f01b031960f087901b85171660109091021c919091176001600160701b03191660808601525050505050565b600080611a0d84846125be565b9350935050508160001415611a23575050611a43565b818111156105895760405162461bcd60e51b81526004016104f890614d58565b5050565b6000620f4240826026811115611a5957fe5b0192915050565b600080600080611a6f86612682565b915091506000611aa78760e0015160600151611aa184610a3d60648c60c0015160400151610ad090919063ffffffff16565b90611bed565b905060008113611ab657600080fd5b611ac581610a3d856064610ad0565b945050611ad7848760600151876112bc565b93506000611af785886101200151604001516113b690919063ffffffff16565b9050611b05878383886126d6565b909890975095505050505050565b6000611b1f8383611bed565b90506000811215610b1e57600080fd5b60a0830151608084015160009180831a9160039190911a908390611b7290611b579085610ad0565b610a3d84610a378c604001518b610ad090919063ffffffff16565b9050600085138015611b8357508481135b15611b8b5750835b8760400151811315611b9e575060408701515b611ba781610455565b8860a0018181525050611be1611bda8960400151610a3d85610a3d88610a378e6080015189610ad090919063ffffffff16565b8790611b13565b98975050505050505050565b80820382811315600083121514610b1e57600080fd5b600061056185858686866001610dae565b611c1c6141f4565b6000611c2784612763565b90508281600001511015611c6657600080611c418661282b565b9050611c4f868483886128a8565b9093509150611c5f86838561294c565b5050611c73565b80518314611c7357600080fd5b6040518060600160405280611c9c6114c48460a001518560c00151612b8090919063ffffffff16565b8152602001611cbf6114c48460a001518560e00151612b8090919063ffffffff16565b8152602001826060015181525091505092915050565b60008115801590611ce85750613fff8211155b611cf157600080fd5b6080830151606084015161ffff16831415611d10576001915050610b1e565b6001600160701b0319811615611d555760f081901c613fff1683811415611d425750600160fe1b908116149050610b1e565b5060101b6001600160801b031916611d10565b5060009392505050565b6000806000806000611d6f612533565b6001600160a01b03891660009081526020828152604080832061ffff8c168452909152902080546001600160501b0381169650600160501b900463ffffffff1694509091508315611ddc578054611dd590600160701b900466ffffffffffffff16612ba7565b9250611df1565b8054600160701b900466ffffffffffffff1692505b8054611e0c908890600160a81b9004600a90810b900b612bb5565b9550505093509350935093565b6000806112838460200151610a3d866000015186610ad090919063ffffffff16565b6000818312611e4a578161141f565b5090919050565b600080610b1e6007611a47565b60006305f5e10083604001511415611e77575080610b1e565b61141f6305f5e100610a3d856040015185610ad090919063ffffffff16565b600080821215611ea557600080fd5b5090565b8015611f3b5773c02aaa39b223fe8d0a0e5c4f27ead9083c756cc26001600160a01b031663d0e30db0836040518263ffffffff1660e01b81526004016000604051808303818588803b158015611efe57600080fd5b505af1158015611f12573d6000803e3d6000fd5b5050505050611f3673c02aaa39b223fe8d0a0e5c4f27ead9083c756cc28484612247565b611f71565b6040516001600160a01b0384169083156108fc029084906000818181858888f19350505050158015610589573d6000803e3d6000fd5b505050565b600080846001600160a01b03166370a08231306040518263ffffffff1660e01b815260040180826001600160a01b0316815260200191505060206040518083038186803b158015611fc657600080fd5b505afa158015611fda573d6000803e3d6000fd5b505050506040513d6020811015611ff057600080fd5b5051604080516323b872dd60e01b81526001600160a01b038781166004830152306024830152604482018790529151929350908716916323b872dd9160648082019260009290919082900301818387803b15801561204d57600080fd5b505af1158015612061573d6000803e3d6000fd5b5050505061206d612bdc565b6000856001600160a01b03166370a08231306040518263ffffffff1660e01b815260040180826001600160a01b0316815260200191505060206040518083038186803b1580156120bc57600080fd5b505afa1580156120d0573d6000803e3d6000fd5b505050506040513d60208110156120e657600080fd5b505190506115be8183612c49565b60006001600160ff1b03821115611ea557600080fd5b6000806121178486612c5e565b90506121238382611243565b9150612130878784612c8e565b61213b868383612d0e565b83516121479086612e1a565b5095945050505050565b600061215b612e6f565b83516001600160a01b0316600090815260208290526040902054909150808311612186575050611f71565b600061219186612e7c565b90506000816001600160a01b031663b5e4da238487036040518263ffffffff1660e01b81526004016121c39190614dbf565b60006040518083038186803b1580156121db57600080fd5b505afa1580156121ef573d6000803e3d6000fd5b505050506040513d6000823e601f3d908101601f191682016040526122179190810190614928565b905060006122258783612eac565b905061223184826130ef565b86111561223d57600080fd5b5050505050505050565b826001600160a01b031663a9059cbb83836040518363ffffffff1660e01b815260040180836001600160a01b0316815260200182815260200192505050600060405180830381600087803b15801561229e57600080fd5b505af11580156122b2573d6000803e3d6000fd5b50505050611f71612bdc565b6000806122c9611516565b6000938452602052505060409020546001600160a01b031690565b6000806000806122f2613101565b6001600160a01b0395909516600090815260209590955250506040909220546001600160601b03811693600160601b82046001600160801b03169350600160e01b90910463ffffffff169150565b600080600061234f868561310e565b5091509150600061235e613101565b6001600160a01b03881660009081526020829052604081209192506123838589611306565b90508060001315801561239c57506001600160601b0381105b6123a557600080fd5b81546bffffffffffffffffffffffff19166001600160601b038216176fffffffffffffffffffffffffffffffff60601b1916600160601b6001600160801b0386160217825563ffffffff87106123fa57600080fd5b50805463ffffffff8716600160e01b026001600160e01b03909116179055509150509392505050565b60008460e0015160001461243657600080fd5b61247861247186610100015161246b670de0b6b3a76400006124658861245f8c60400151611e96565b90612b80565b906131a4565b90612c49565b82906130ef565b9050612490670de0b6b3a76400006124658486612b80565b85610100018181525050949350505050565b6000806124ad6131c3565b6001600160a01b0384166000908152602082905260409020805491925090600160f81b900460ff1615612509576124e26131d0565b6001600160a01b038086166000908152602092909252604090912054169250610466915050565b600092505050610466565b611a4373cfeaead4947f0705a14ec42ac3d44129e1ef3ed58383612247565b600080610b1e6006611a47565b600063ffffffff821115611ea557600080fd5b60006001600160501b03821115611ea557600080fd5b600061257586836131dd565b90506105618686866125878786613216565b61329d565b60006a7fffffffffffffffffffff1982128015906125b557506a7fffffffffffffffffffff8213155b611ea557600080fd5b60008060008060006125ce6132ca565b61ffff8716600090815260209190915260409020600181015490915061260090600160581b900463ffffffff16612ba7565b600182015490955061262490606490612465908890600160781b900460ff16612b80565b8154909350600160281b90046001600160581b031661264b61264689836113b6565b611e96565b60018301549095506001600160581b031660000361267461264661266f8b846132d7565b610455565b935050505092959194509250565b6000806126b36126a36126988560200151610455565b60e086015190611e19565b6101208501516040015190611243565b91506126cf8360e00151608001518460c0015160800151613322565b9050915091565b600080600061270986610a3d6126f48a60c001518b60e00151613331565b60c08b015151610a3d90610a378b6064610ad0565b905060006127258289610100015161124390919063ffffffff16565b905060006127368960400151610455565b9050808213156127545761274e82610a3d8884610ad0565b95508091505b50939793965092945050505050565b61276b614215565b60006127756132ca565b61ffff93841660009081526020918252604090819020805464ffffffffff81168652600160281b81046001600160581b03908116948701949094526001820154841692860192909252600160d81b820463ffffffff166060860152600160801b9091049091166080840152600201546001600160501b0380821660a0850152600160501b8204811660c0850152600160a01b82041660e0840152600160f01b900460ff1661012c02909216610100820152919050565b60008061283783612e7c565b6001600160a01b031663ef81f2166040518163ffffffff1660e01b81526004016040805180830381600087803b15801561287057600080fd5b505af1158015612884573d6000803e3d6000fd5b505050506040513d601f19601f820116820180604052508101906112839190614b51565b6128b0614215565b60008060006128c0888689613356565b60c08b019290925260e08a0192909252602089015191935091506128e490836130ef565b602088015260808701516000901561291257608088015161290f906129098982612c49565b90613461565b90505b612932612927670de0b6b3a7640000836130ef565b60a08a01519061347e565b60a089015250506080860194909452505082529092909150565b60006129566132ca565b60008561ffff168152602001908152602001600020905061297a826000015161349b565b815464ffffffffff191664ffffffffff9190911617815560a082015161299f90612553565b60028201805469ffffffffffffffffffff19166001600160501b039290921691909117905560c08201516129d290612553565b81600201600a6101000a8154816001600160501b0302191690836001600160501b03160217905550612a078260e00151612553565b8160020160146101000a8154816001600160501b0302191690836001600160501b03160217905550612a3c82602001516134af565b81546001600160581b0391909116600160281b026fffffffffffffffffffffff0000000000199091161781556040820151612a76906134af565b6001820180546affffffffffffffffffffff19166001600160581b03929092169190911790556080820151612aaa906134af565b81546001600160581b0391909116600160801b026affffffffffffffffffffff60801b199091161781556060820151612ae290612540565b815463ffffffff91909116600160d81b0263ffffffff60d81b199091161781558215612b2e576000612b13846120f4565b9050612b1f85826134c5565b612b2c610fee8683612c8e565b505b8361ffff167fef25641e225e493886510ca1ad6584fa7b442b9fea820a29d1de3ce27d270fd28360a001518460c001518560e00151604051612b7293929190614c2a565b60405180910390a250505050565b600082612b8f57506000610b1e565b82820282848281612b9c57fe5b041461141f57600080fd5b600881901c60ff9091161b90565b6000808212612bc5575080610b1e565b825160208401516114049190610a3d908590610ad0565b6000612be6614261565b3d8015612bfa5760208114612c0357600080fd5b60019250612c0e565b60206000833e815192505b5081611a43576040805162461bcd60e51b8152602060048201526005602482015264045524332360dc1b604482015290519081900360640190fd5b600082821115612c5857600080fd5b50900390565b60006305f5e10083604001511415612c77575080610b1e565b604083015161141f90610a3d846305f5e100610ad0565b6000612c986114e8565b61ffff8416600090815260209190915260409081902054905163ad1c095d60e01b81526001600160a01b039091169150819063ad1c095d90612ce09087908690600401614bac565b600060405180830381600087803b158015612cfa57600080fd5b505af115801561223d573d6000803e3d6000fd5b6000612d186132ca565b61ffff8516600090815260209190915260409020805490915064ffffffffff164214612d4357600080fd5b8054600090612d6290600160281b90046001600160581b031685611306565b8254909150600090612d8490600160801b90046001600160581b031685611306565b905080624c4b401315612d9657600080fd5b612da7612da282611e96565b6134af565b83546001600160581b0391909116600160801b026affffffffffffffffffffff60801b19909116178355612ddd612da283611e96565b83546001600160581b0391909116600160281b026fffffffffffffffffffffff000000000019909116178355612e12836134fc565b505050505050565b6000612e24612e6f565b6001600160a01b038416600090815260208290526040902054909150612e4d6126468285611306565b6001600160a01b03909416600090815260209290925250604090209190915550565b600080610b1e6026611a47565b600080612e876135c1565b61ffff939093166000908152602093909352505060409020546001600160a01b031690565b6000805b82518110156130e8576000838281518110612ec757fe5b60200260200101519050600081606001516001600160a01b03166370a08231306040518263ffffffff1660e01b8152600401612f039190614b74565b60206040518083038186803b158015612f1b57600080fd5b505afa158015612f2f573d6000803e3d6000fd5b505050506040513d601f19601f82011682018060405250810190612f539190614b39565b90506000612f6187306135ce565b905060005b835151811015612fb257612faa84600001518281518110612f8357fe5b6020026020010151600086602001518481518110612f9d57fe5b6020026020010151613678565b600101612f66565b506000612fbf88306135ce565b90506000612fcd8284612c49565b90508085604001511115612fe057600080fd5b60608501516040516370a0823160e01b81526000916001600160a01b0316906370a0823190613013903090600401614b74565b60206040518083038186803b15801561302b57600080fd5b505afa15801561303f573d6000803e3d6000fd5b505050506040513d601f19601f820116820180604052508101906130639190614b39565b90508481111561307257600080fd5b608086015160ff1615801590613091575061308d8582612c49565b8214155b156130ac5760808601516130a990829060ff166130ef565b90505b6130bb866060015186836137b5565b6130c588836130ef565b97506130d68a6000015185856137b5565b505060019094019350612eb092505050565b5092915050565b60008282018381101561141f57600080fd5b600080610b1e6011611a47565b600080600061311c856122e4565b9194509250905080841180156131325750600081115b801561313e5750600083115b1561319d57600061314e86613832565b50505091505060006131796131706305f5e10084612b8090919063ffffffff16565b8488038761389b565b905061318584826130ef565b93506001600160801b03841061319a57600080fd5b50505b9250925092565b60008082116131b257600080fd5b8183816131bb57fe5b049392505050565b600080610b1e6002611a47565b600080610b1e6012611a47565b6000808212156132105761320b6001611aa18560200151610a3d876000015187610ad090919063ffffffff16565b61141f565b50919050565b600081831480613233575060008312158015613233575060008212155b1561324057506000610b1e565b600083131580156132515750816000125b1561325d575081610b1e565b6000821315801561326e5750826000125b1561327c5761140482610455565b6000831315801561328e575060008213155b1561007b576114048383611bed565b801561058957835160208501516000916132bc91610a3d908590610ad0565b9050610779848484846138bd565b600080610b1e601d611a47565b6000600182126132e657600080fd5b816132f357506000610b1e565b61141f6001611aa16ec097ce7bc90715b34b9f1000000000610a3d876020015187610ad090919063ffffffff16565b6000818313611e4a578161141f565b600061141f8260200151610a3d84600001518660200151610ad090919063ffffffff16565b6000806000806000806133698988613a03565b8951909550919350915060009061339090613385908b90612c49565b633b9aca0090612b80565b90506133ca6133bf6301da9c006133a78585612b80565b816133ae57fe5b670de0b6b3a76400009190046130ef565b60e08a01519061347e565b96506133ec6133e16301da9c006133a78785612b80565b60c08a01519061347e565b955081831415613403575060009350613458915050565b600061342561341a6301da9c006133a78786612b80565b60e08b01519061347e565b905060006134338983612c49565b905061345088612465838d60400151612b8090919063ffffffff16565b965050505050505b93509350935093565b600061141f61347884670de0b6b3a7640000612b80565b836131a4565b600061141f61348d8484612b80565b670de0b6b3a76400006131a4565b600064ffffffffff821115611ea557600080fd5b60006001600160581b03821115611ea557600080fd5b60008112156134d357600080fd5b60006134e1610fee84613a9d565b90506134ed8183611306565b9050611f71610fee8483613af6565b8054600282015460009161353891600160281b9091046001600160581b031690610a37906001600160501b03600160501b820481169116610ad0565b60018301546002840154919250600091613572916001600160581b031690610a37906001600160501b03600160a01b820481169116610ad0565b83549091506000906135a99060016001600160581b03600160801b909204821601166ec097ce7bc90715b34b9f1000000000610ad0565b9050806135b68484611bed565b131561058957600080fd5b600080610b1e601f611a47565b60006003836060015160058111156135e257fe5b14156135f957506001600160a01b03811631610b1e565b82516040516370a0823160e01b81526001600160a01b03909116906370a0823190613628908590600401614b74565b60206040518083038186803b15801561364057600080fd5b505afa158015613654573d6000803e3d6000fd5b505050506040513d601f19601f820116820180604052508101906114049190614b39565b600080846001600160a01b031684846040518082805190602001908083835b602083106136b65780518252601f199092019160209182019101613697565b6001836020036101000a03801982511681845116808217855250505050505090500191505060006040518083038185875af1925050503d8060008114613718576040519150601f19603f3d011682016040523d82523d6000602084013e61371d565b606091505b50915091508161372c82613b6a565b90612e125760405162461bcd60e51b81526004018080602001828103825283818151815260200191508051906020019080838360005b8381101561377a578181015183820152602001613762565b50505050905090810190601f1680156137a75780820380516001836020036101000a031916815260200191505b509250505060405180910390fd5b60006137bf612e6f565b6001600160a01b038516600090815260208290526040902054909150838111156137e857600080fd5b60006137ff6137f6866120f4565b611aa1866120f4565b905061380e6126468383611306565b6001600160a01b039096166000908152602093909352505060409020929092555050565b6000806000806000806138436131c3565b6001600160a01b039097166000908152602097909752505060409094205461ffff81169563ffffffff62010000830481169650600160301b830416945060ff600160501b8304169350600160581b90910460d01b9150565b6000611283826124656301da9c00818861245f89670de0b6b3a7640000612b80565b60006138c76132ca565b61ffff8516600090815260209190915260409020805490915064ffffffffff1642146138f257600080fd5b8054600160f81b900460ff1661390757600080fd5b6001810154600090613922906001600160581b031685611306565b825490915060009061394490600160281b90046001600160581b031685611306565b9050816009191280156139575750600082125b1561396157600091505b806009191280156139725750600081125b1561397b575060005b613987612da283611e96565b6001840180546affffffffffffffffffffff19166001600160581b03929092169190911790556139b9612da282611e96565b83546001600160581b0391909116600160281b026fffffffffffffffffffffff0000000000199091161783556139f187878688613c71565b6139fa836134fc565b50505050505050565b600080600080600085602001511115613a5057613a4d613a348660c001518760200151612b8090919063ffffffff16565b60e08701516040880151613a4791612b80565b90613d4b565b90505b6000613a5b87613d5e565b9050613a678183613d91565b94508115613a7e57613a7b81866001613e4a565b93505b60208601511561319a57613a928583613ec2565b925050509250925092565b600080613aa8612533565b6001600160a01b03851660009081526020828152604080832061ffff8816845290915281208054600160a81b9004600a90810b900b9450919250831215613aee57600080fd5b505092915050565b6000811215613b0457600080fd5b6000613b0e612533565b6001600160a01b03851660009081526020828152604080832061ffff881684529091529020909150613b3f8361258c565b8154600a9190910b6001600160581b0316600160a81b026001600160a81b0390911617905550505050565b6060604482511015613ba0575060408051808201909152600d81526c14da5b195b9d0814995d995c9d609a1b6020820152610466565b6004820180519092602401906020811015613bba57600080fd5b8101908080516040519392919084640100000000821115613bda57600080fd5b908301906020820185811115613bef57600080fd5b8251640100000000811182820188101715613c0957600080fd5b82525081516020918201929091019080838360005b83811015613c36578181015183820152602001613c1e565b50505050905090810190601f168015613c635780820380516001836020036101000a031916815260200191505b506040525050509050919050565b6000613c7b6114e8565b61ffff8516600090815260209190915260408120546001600160a01b03169150613ca3613edb565b61ffff8616600090815260209190915260409081902054905163ad1c095d60e01b81526001600160a01b039091169150819063ad1c095d90613ceb9089908790600401614bac565b600060405180830381600087803b158015613d0557600080fd5b505af1158015613d19573d6000803e3d6000fd5b505060405163ad1c095d60e01b81526001600160a01b038516925063ad1c095d9150610d749089908890600401614bac565b600061141f61347884633b9aca00612b80565b613d6661427f565b6000613d70613ee8565b61ffff841660009081526020919091526040812054915061141f9082613ef5565b600080836080015111613da357600080fd5b633b9aca00821115613db457600080fd5b82518211613dd357825160408401516114049190612465908590612b80565b82602001518211613e115760408301518351602085015160608601516114049392613e0b928190039161246591880390859003612b80565b906130ef565b61141f8360600151613e0b8560200151633b9aca0003612465876060015188608001510388602001518803612b8090919063ffffffff16565b600080613e6960646124658760e0015187612b8090919063ffffffff16565b90508460a00151811015613e7e575060a08401515b8460c00151811115613e91575060c08401515b8215613ea857613ea184826130ef565b9150610ac8565b838111613eb757808403610561565b506000949350505050565b600061141f613ed18484612b80565b633b9aca006131a4565b600080610b1e6022611a47565b600080610b1e601b611a47565b613efd61427f565b6064633b9aca008360ff861660208110613f1357fe5b1a0281613f1c57fe5b0481526064633b9aca008360ff861660010160208110613f3857fe5b1a0281613f4157fe5b04816020018181525050613f668260028560ff160160208110613f6057fe5b1a614014565b60808201819052610100908360ff861660030160208110613f8357fe5b1a0281613f8c57fe5b0460408201526080810151610100908360ff861660040160208110613fad57fe5b1a0281613fb657fe5b0460608201526207a1208260ff851660050160208110613fd257fe5b1a0260a0820152622625a08260ff851660060160208110613fef57fe5b1a0260c08201528160ff84166007016020811061400857fe5b1a60e082015292915050565b60008160ff1660961061402f5760ff8216622625a002610463565b5060951960ff919091160162e4e1c00263165a0bc00190565b604051806101400160405280600061ffff168152602001600081526020016000815260200160008152602001600081526020016000815260200160008152602001600081526020016000815260200161409f6141f4565b905290565b6040805160c081018252600080825260208201819052918101829052606081018290526080810182905260a081019190915290565b60405180610160016040528060006001600160a01b031681526020016000815260200160008152602001600081526020016000815260200160006001600160d01b031916815260200161412a6142c4565b81526020016141376142c4565b81526020016141446141f4565b81526020016141516142f3565b8152600060209091015290565b6040518060800160405280606081526020016060815260200160008152602001600081525090565b6040518060c00160405280600061ffff168152602001600081526020016000815260200160008152602001600081526020016000600381111561409f57fe5b6040805160a0810182526000808252602082018190529181018290529060608201908152602001600081525090565b60405180606001604052806000815260200160008152602001600081525090565b6040518061012001604052806000815260200160008152602001600081526020016000815260200160008152602001600081526020016000815260200160008152602001600081525090565b60405180602001604052806001906020820280368337509192915050565b60405180610100016040528060008152602001600081526020016000815260200160008152602001600081526020016000815260200160008152602001600081525090565b6040518060a0016040528060008152602001600081526020016000815260200160008152602001600081525090565b60408051608081018252600080825260208201529081016141516141f4565b805161046681614e0a565b600082601f83011261432d578081fd5b8151602061434261433d83614dec565b614dc8565b828152818101908583018385028701840188101561435e578586fd5b855b8581101561438557815161437381614e0a565b84529284019290840190600101614360565b5090979650505050505050565b6000601f83818401126143a3578182fd5b825160206143b361433d83614dec565b82815281810190868301865b8581101561445857815189018a603f8201126143d9578889fd5b8581015167ffffffffffffffff8111156143ef57fe5b614400818a01601f19168801614dc8565b81815260408d81848601011115614415578b8cfd5b8b5b83811015614432578481018201518382018b01528901614417565b83811115614442578c8a85850101525b50508652505092840192908401906001016143bf565b509098975050505050505050565b600082601f830112614476578081fd5b8151602061448661433d83614dec565b8281528181019085830160c0808602880185018910156144a4578687fd5b865b868110156145365781838b0312156144bc578788fd5b6040805183810181811067ffffffffffffffff821117156144d957fe5b825284516144e681614e30565b815284880151888201528185015191810191909152606080850151908201526080808501519082015260a09061451d828601614597565b91810191909152855293850193918101916001016144a6565b509198975050505050505050565b805161046681614e22565b80516001600160701b03198116811461046657600080fd5b80516001600160f81b03198116811461046657600080fd5b80516001600160d01b03198116811461046657600080fd5b80516004811061046657600080fd5b600060c082840312156145b7578081fd5b6040516080810181811067ffffffffffffffff821117156145d457fe5b806040525080915082516145e781614e30565b8152602083810151908201526146008460408501614748565b604082015260a083015160608201525092915050565b600060a08284031215614627578081fd5b60405160a0810181811067ffffffffffffffff8211171561464457fe5b806040525080915082518152602083015160208201526040830151604082015260608301516060820152608083015160808201525092915050565b60006103408284031215614691578081fd5b61016061469d81614dc8565b91506146a883614312565b8252602083015160208301526040830151604083015260608301516060830152608083015160808301526146de60a0840161457f565b60a08301526146f08460c08501614616565b60c083015261470184828501614616565b60e083015250614715836102008401614748565b6101008201526147298361026084016145a6565b61012082015261473c6103208301614544565b61014082015292915050565b600060608284031215614759578081fd5b6040516060810181811067ffffffffffffffff8211171561477657fe5b80604052508091508251815260208301516020820152604083015160408201525092915050565b80356001600160801b038116811461046657600080fd5b805161046681614e30565b805160ff8116811461046657600080fd5b80356001600160601b038116811461046657600080fd5b600080600080600060a086880312156147fe578081fd5b853561480981614e0a565b9450602086013561481981614e30565b9350604086013561482981614e30565b92506148376060870161479d565b9150614845608087016147d0565b90509295509295909350565b600080600080600080600060e0888a03121561486b578485fd5b873561487681614e0a565b9650602088013561488681614e30565b9550604088013561489681614e30565b94506148a46060890161479d565b93506148b2608089016147d0565b925060a08801356148c281614e22565b915060c08801356148d281614e22565b8091505092959891949750929550565b6000806000606084860312156148f6578081fd5b833561490181614e0a565b9250602084013561491181614e30565b915061491f604085016147d0565b90509250925092565b6000602080838503121561493a578182fd5b825167ffffffffffffffff80821115614951578384fd5b818501915085601f830112614964578384fd5b815161497261433d82614dec565b81815284810190848601875b84811015614a38578151870160a0818d03601f1901121561499d57898afd5b6040805160a081018181108a821117156149b357fe5b8252828b0151898111156149c5578c8dfd5b6149d38f8d8387010161431d565b82525081830151898111156149e6578c8dfd5b6149f48f8d83870101614392565b8c83015250606083015182820152614a0e60808401614312565b6060820152614a1f60a084016147bf565b608082015286525050928701929087019060010161497e565b50909998505050505050505050565b6000806000838503610420811215614a5d578182fd5b60c0811215614a6a578182fd5b5060405160c0810167ffffffffffffffff8282108183111715614a8957fe5b816040528651915064ffffffffff82168214614aa3578384fd5b818352614ab260208801614567565b6020840152614ac3604088016147bf565b6040840152614ad4606088016147b4565b6060840152614ae56080880161454f565b6080840152614af660a08801614544565b60a0840152829550614b0b8860c0890161467f565b9450610400870151925080831115614b21578384fd5b5050614b2f86828701614466565b9150509250925092565b600060208284031215614b4a578081fd5b5051919050565b60008060408385031215614b63578182fd5b505080516020909101519092909150565b6001600160a01b0391909116815260200190565b6001600160a01b039384168152919092166020820152604081019190915260600190565b6001600160a01b03929092168252602082015260400190565b6001600160a01b0393909316835261ffff918216602084015216604082015260600190565b6001600160a01b0395909516855261ffff93909316602085015260408401919091526060830152608082015260a00190565b918252602082015260400190565b9283526020830191909152604082015260600190565b6020808252600d908201526c139bc81b1bd8d85b081919589d609a1b604082015260600190565b6020808252600b908201526a4554482042616c616e636560a81b604082015260600190565b6020808252600f908201526e4e6f205072696d6520426f72726f7760881b604082015260600190565b60208082526007908201526609cde40c6c2e6d60cb1b604082015260600190565b6020808252600d908201526c139bc818dbdb1b185d195c985b609a1b604082015260600190565b6020808252601c908201527f446570726563617465643a2052656465656d20746f2063546f6b656e00000000604082015260600190565b6020808252600a90820152692732b390372a37b5b2b760b11b604082015260600190565b6020808252600d908201526c04f76657220446562742043617609c1b604082015260600190565b61ffff929092168252602082015260400190565b61ffff958616815293909416602084015260408301919091526060820152608081019190915260a00190565b90815260200190565b60405181810167ffffffffffffffff81118282101715614de457fe5b604052919050565b600067ffffffffffffffff821115614e0057fe5b5060209081020190565b6001600160a01b0381168114614e1f57600080fd5b50565b8015158114614e1f57600080fd5b61ffff81168114614e1f57600080fdfea264697066735822122010a0ebe9000396ea12e67c1e63041c393f9df5cbca2b42d26bd103ba2ba8eb8564736f6c63430007060033","language":"Solidity","natspec":{"kind":"dev","methods":{"calculateCollateralCurrencyLiquidation(address,uint16,uint16,uint128,uint96)":{"notice":"Calculates local and collateral currency transfers for a liquidation. This is a stateful method because it may settle the liquidated account if required. However, it can be called using staticcall off chain to determine the net currency amounts required before liquidating.","params":{"collateralCurrency":"id of the collateral currency","liquidateAccount":"account to liquidate","localCurrency":"id of the local currency","maxCollateralLiquidation":"maximum amount of collateral (inclusive of cash and nTokens) to liquidate","maxNTokenLiquidation":"maximum amount of nTokens to purchase (if any)"},"returns":{"_0":"local currency required from liquidator (negative)","_1":"collateral asset cash paid to liquidator (positive)","_2":"collateral nTokens paid to liquidator (positive)"}},"calculateLocalCurrencyLiquidation(address,uint16,uint96)":{"notice":"Calculates the net local currency required by the liquidator. This is a stateful method because it may settle the liquidated account if required. However, it can be called using staticcall off chain to determine the net local currency required before liquidating.","params":{"liquidateAccount":"account to liquidate","localCurrency":"id of the local currency","maxNTokenLiquidation":"maximum amount of nTokens to purchase (if any)"},"returns":{"_0":"local currency required from liquidator (positive or negative)","_1":"local nTokens paid to liquidator (positive)"}},"getLibInfo()":{"notice":"Get a list of deployed library addresses (sorted by library name)"},"liquidateCollateralCurrency(address,uint16,uint16,uint128,uint96,bool,bool)":{"notice":"Liquidates an account between local and collateral currency","params":{"collateralCurrency":"id of the collateral currency","liquidateAccount":"account to liquidate","localCurrency":"id of the local currency","maxCollateralLiquidation":"maximum amount of collateral (inclusive of cash and nTokens) to liquidate","maxNTokenLiquidation":"maximum amount of nTokens to purchase (if any)","redeemToUnderlying":"if true, converts collateral cash from asset cash to underlying","withdrawCollateral":"if true, withdraws collateral cash back to msg.sender"},"returns":{"_0":"local currency required from liquidator (negative)","_1":"collateral asset cash paid to liquidator (positive)","_2":"collateral nTokens paid to liquidator (positive)"}},"liquidateLocalCurrency(address,uint16,uint96)":{"notice":"Liquidates an account using local currency only","params":{"liquidateAccount":"account to liquidate","localCurrency":"id of the local currency","maxNTokenLiquidation":"maximum amount of nTokens to purchase (if any)"},"returns":{"_0":"local currency required from liquidator (positive or negative)","_1":"local nTokens paid to liquidator (positive)"}}},"version":1},"opcodes":"PUSH1 0x80 PUSH1 0x40 MSTORE PUSH1 0x4 CALLDATASIZE LT PUSH2 0x7B JUMPI PUSH1 0x0 CALLDATALOAD PUSH1 0xE0 SHR DUP1 PUSH4 0x8DA5CB5B GT PUSH2 0x4E JUMPI DUP1 PUSH4 0x8DA5CB5B EQ PUSH2 0x103 JUMPI DUP1 PUSH4 0x9A600EEB EQ PUSH2 0x118 JUMPI DUP1 PUSH4 0xC4C96DAE EQ PUSH2 0x138 JUMPI DUP1 PUSH4 0xE3E7CB4F EQ PUSH2 0x14D JUMPI PUSH2 0x7B JUMP JUMPDEST DUP1 PUSH4 0x24A3D622 EQ PUSH2 0x80 JUMPI DUP1 PUSH4 0x2D10E6EB EQ PUSH2 0xAB JUMPI DUP1 PUSH4 0x6633AF39 EQ PUSH2 0xCC JUMPI DUP1 PUSH4 0x82463367 EQ PUSH2 0xEE JUMPI JUMPDEST PUSH1 0x0 DUP1 REVERT JUMPDEST CALLVALUE DUP1 ISZERO PUSH2 0x8C JUMPI PUSH1 0x0 DUP1 REVERT JUMPDEST POP PUSH2 0x95 PUSH2 0x16D JUMP JUMPDEST PUSH1 0x40 MLOAD PUSH2 0xA2 SWAP2 SWAP1 PUSH2 0x4B74 JUMP JUMPDEST PUSH1 0x40 MLOAD DUP1 SWAP2 SUB SWAP1 RETURN JUMPDEST PUSH2 0xBE PUSH2 0xB9 CALLDATASIZE PUSH1 0x4 PUSH2 0x48E2 JUMP JUMPDEST PUSH2 0x17C JUMP JUMPDEST PUSH1 0x40 MLOAD PUSH2 0xA2 SWAP3 SWAP2 SWAP1 PUSH2 0x4C1C JUMP JUMPDEST PUSH2 0xDF PUSH2 0xDA CALLDATASIZE PUSH1 0x4 PUSH2 0x4851 JUMP JUMPDEST PUSH2 0x256 JUMP JUMPDEST PUSH1 0x40 MLOAD PUSH2 0xA2 SWAP4 SWAP3 SWAP2 SWAP1 PUSH2 0x4C2A JUMP JUMPDEST CALLVALUE DUP1 ISZERO PUSH2 0xFA JUMPI PUSH1 0x0 DUP1 REVERT JUMPDEST POP PUSH2 0x95 PUSH2 0x30C JUMP JUMPDEST CALLVALUE DUP1 ISZERO PUSH2 0x10F JUMPI PUSH1 0x0 DUP1 REVERT JUMPDEST POP PUSH2 0x95 PUSH2 0x31B JUMP JUMPDEST CALLVALUE DUP1 ISZERO PUSH2 0x124 JUMPI PUSH1 0x0 DUP1 REVERT JUMPDEST POP PUSH2 0xDF PUSH2 0x133 CALLDATASIZE PUSH1 0x4 PUSH2 0x47E7 JUMP JUMPDEST PUSH2 0x332 JUMP JUMPDEST CALLVALUE DUP1 ISZERO PUSH2 0x144 JUMPI PUSH1 0x0 DUP1 REVERT JUMPDEST POP PUSH2 0x95 PUSH2 0x396 JUMP JUMPDEST CALLVALUE DUP1 ISZERO PUSH2 0x159 JUMPI PUSH1 0x0 DUP1 REVERT JUMPDEST POP PUSH2 0xBE PUSH2 0x168 CALLDATASIZE PUSH1 0x4 PUSH2 0x48E2 JUMP JUMPDEST PUSH2 0x3AE JUMP JUMPDEST PUSH1 0x2 SLOAD PUSH1 0x1 PUSH1 0x1 PUSH1 0xA0 SHL SUB AND DUP2 JUMP JUMPDEST PUSH1 0x0 DUP1 PUSH1 0x2 PUSH1 0xA SLOAD EQ ISZERO PUSH2 0x18F JUMPI PUSH1 0x0 DUP1 REVERT JUMPDEST PUSH1 0x2 PUSH1 0xA SSTORE PUSH1 0x0 DUP1 DUP1 PUSH2 0x1A4 DUP9 DUP9 DUP9 DUP5 PUSH2 0x3FC JUMP JUMPDEST SWAP3 POP SWAP3 POP SWAP3 POP PUSH1 0x0 PUSH2 0x1C5 CALLER DUP11 DUP11 DUP8 PUSH2 0x1C0 DUP9 PUSH1 0xA0 ADD MLOAD PUSH2 0x455 JUMP JUMPDEST PUSH2 0x46B JUMP JUMPDEST SWAP1 POP PUSH2 0x1D2 DUP4 DUP11 DUP5 PUSH2 0x56A JUMP JUMPDEST CALLER PUSH1 0x1 PUSH1 0x1 PUSH1 0xA0 SHL SUB AND DUP10 PUSH1 0x1 PUSH1 0x1 PUSH1 0xA0 SHL SUB AND PUSH32 0x4596C3B6545E97EB42B719442DD0AFA8EB7680F3FF72C762763D4B292EE26EA7 DUP11 DUP8 PUSH1 0x40 MLOAD PUSH2 0x217 SWAP3 SWAP2 SWAP1 PUSH2 0x4D7F JUMP JUMPDEST PUSH1 0x40 MLOAD DUP1 SWAP2 SUB SWAP1 LOG3 PUSH2 0x229 DUP2 CALLER PUSH2 0x58F JUMP JUMPDEST PUSH2 0x233 DUP3 DUP11 PUSH2 0x58F JUMP JUMPDEST DUP4 PUSH2 0x241 DUP5 PUSH1 0xA0 ADD MLOAD PUSH2 0x455 JUMP JUMPDEST PUSH1 0x1 PUSH1 0xA SSTORE SWAP1 SWAP11 SWAP1 SWAP10 POP SWAP8 POP POP POP POP POP POP POP POP JUMP JUMPDEST PUSH1 0x0 DUP1 PUSH1 0x0 PUSH1 0x2 PUSH1 0xA SLOAD EQ ISZERO PUSH2 0x26B JUMPI PUSH1 0x0 DUP1 REVERT JUMPDEST PUSH1 0x2 PUSH1 0xA SSTORE PUSH1 0x0 DUP1 DUP1 PUSH2 0x282 DUP14 DUP14 DUP14 DUP14 DUP14 DUP7 PUSH2 0x6AC JUMP JUMPDEST SWAP3 POP SWAP3 POP SWAP3 POP PUSH1 0x0 PUSH2 0x299 DUP15 DUP15 DUP15 DUP8 DUP8 DUP15 DUP15 PUSH2 0x707 JUMP JUMPDEST SWAP1 POP PUSH2 0x2A7 DUP15 DUP15 DUP5 DUP8 PUSH2 0x753 JUMP JUMPDEST PUSH2 0x2B2 DUP4 DUP16 DUP5 PUSH2 0x780 JUMP JUMPDEST PUSH2 0x2BE DUP15 DUP15 DUP7 DUP7 PUSH2 0x79E JUMP JUMPDEST PUSH2 0x2C8 DUP3 DUP16 PUSH2 0x58F JUMP JUMPDEST PUSH2 0x2D2 DUP2 CALLER PUSH2 0x58F JUMP JUMPDEST DUP4 PUSH2 0x2E0 DUP5 PUSH1 0x60 ADD MLOAD PUSH2 0x455 JUMP JUMPDEST PUSH2 0x2ED DUP6 PUSH1 0xA0 ADD MLOAD PUSH2 0x455 JUMP JUMPDEST SWAP7 POP SWAP7 POP SWAP7 POP POP POP POP POP PUSH1 0x1 PUSH1 0xA DUP2 SWAP1 SSTORE POP SWAP8 POP SWAP8 POP SWAP8 SWAP5 POP POP POP POP POP JUMP JUMPDEST PUSH1 0x1 SLOAD PUSH1 0x1 PUSH1 0x1 PUSH1 0xA0 SHL SUB AND DUP2 JUMP JUMPDEST PUSH1 0x0 SLOAD PUSH5 0x100000000 SWAP1 DIV PUSH1 0x1 PUSH1 0x1 PUSH1 0xA0 SHL SUB AND DUP2 JUMP JUMPDEST PUSH1 0x0 DUP1 PUSH1 0x0 PUSH1 0x2 PUSH1 0xA SLOAD EQ ISZERO PUSH2 0x347 JUMPI PUSH1 0x0 DUP1 REVERT JUMPDEST PUSH1 0x2 PUSH1 0xA SSTORE PUSH1 0x0 DUP1 PUSH2 0x35E DUP11 DUP11 DUP11 DUP11 DUP11 PUSH1 0x1 PUSH2 0x6AC JUMP JUMPDEST POP SWAP2 POP SWAP2 POP DUP2 PUSH2 0x371 DUP3 PUSH1 0x60 ADD MLOAD PUSH2 0x455 JUMP JUMPDEST PUSH2 0x37E DUP4 PUSH1 0xA0 ADD MLOAD PUSH2 0x455 JUMP JUMPDEST PUSH1 0x1 PUSH1 0xA SSTORE SWAP2 SWAP13 SWAP1 SWAP12 POP SWAP1 SWAP10 POP SWAP8 POP POP POP POP POP POP POP POP JUMP JUMPDEST PUSH20 0x0 SWAP1 JUMP JUMPDEST PUSH1 0x0 DUP1 PUSH1 0x2 PUSH1 0xA SLOAD EQ ISZERO PUSH2 0x3C1 JUMPI PUSH1 0x0 DUP1 REVERT JUMPDEST PUSH1 0x2 PUSH1 0xA SSTORE PUSH1 0x0 DUP1 PUSH2 0x3D6 DUP8 DUP8 DUP8 PUSH1 0x1 PUSH2 0x3FC JUMP JUMPDEST POP SWAP2 POP SWAP2 POP DUP2 PUSH2 0x3E9 DUP3 PUSH1 0xA0 ADD MLOAD PUSH2 0x455 JUMP JUMPDEST PUSH1 0x1 PUSH1 0xA SSTORE SWAP1 SWAP9 SWAP1 SWAP8 POP SWAP6 POP POP POP POP POP POP JUMP JUMPDEST PUSH1 0x0 PUSH2 0x406 PUSH2 0x4048 JUMP JUMPDEST PUSH2 0x40E PUSH2 0x40A4 JUMP JUMPDEST PUSH2 0x416 PUSH2 0x40D9 JUMP JUMPDEST PUSH2 0x422 DUP9 DUP9 PUSH1 0x0 PUSH2 0x813 JUMP JUMPDEST POP SWAP1 SWAP3 POP SWAP1 POP PUSH2 0x434 DUP4 DUP10 DUP10 DUP6 PUSH2 0x96F JUMP JUMPDEST DUP5 ISZERO ISZERO PUSH2 0x140 DUP3 ADD MSTORE PUSH2 0x448 DUP7 DUP5 DUP4 PUSH2 0x98A JUMP JUMPDEST SWAP4 POP POP SWAP5 POP SWAP5 POP SWAP5 SWAP2 POP POP JUMP JUMPDEST PUSH1 0x0 PUSH2 0x463 PUSH1 0x0 NOT DUP4 PUSH2 0xAD0 JUMP JUMPDEST SWAP1 POP JUMPDEST SWAP2 SWAP1 POP JUMP JUMPDEST PUSH2 0x473 PUSH2 0x40A4 JUMP JUMPDEST PUSH1 0x0 PUSH2 0x482 DUP6 PUSH2 0xFFFF AND PUSH2 0xB24 JUMP JUMPDEST SWAP1 POP PUSH1 0x0 PUSH2 0x48F DUP9 PUSH2 0xB37 JUMP JUMPDEST SWAP1 POP PUSH2 0x499 PUSH2 0x4048 JUMP JUMPDEST PUSH2 0x4A5 DUP2 DUP11 DUP10 DUP6 PUSH2 0x96F JUMP JUMPDEST PUSH1 0x0 DUP7 SGT PUSH2 0x4B2 JUMPI PUSH1 0x0 DUP1 REVERT JUMPDEST DUP3 PUSH1 0x20 ADD MLOAD ISZERO PUSH2 0x514 JUMPI DUP6 DUP2 PUSH1 0x20 ADD MLOAD SLT ISZERO DUP1 ISZERO PUSH2 0x4DC JUMPI POP PUSH1 0x20 DUP3 ADD MLOAD PUSH1 0x1 PUSH1 0x1 PUSH1 0xF8 SHL SUB NOT AND ISZERO JUMPDEST PUSH2 0x501 JUMPI PUSH1 0x40 MLOAD PUSH3 0x461BCD PUSH1 0xE5 SHL DUP2 MSTORE PUSH1 0x4 ADD PUSH2 0x4F8 SWAP1 PUSH2 0x4CB5 JUMP JUMPDEST PUSH1 0x40 MLOAD DUP1 SWAP2 SUB SWAP1 REVERT JUMPDEST PUSH2 0x50A DUP7 PUSH2 0x455 JUMP JUMPDEST PUSH1 0x60 DUP3 ADD MSTORE PUSH2 0x529 JUMP JUMPDEST PUSH2 0x527 DUP10 DUP9 DUP9 DUP5 PUSH2 0x120 ADD MLOAD PUSH1 0x0 PUSH2 0xBE5 JUMP JUMPDEST POP JUMPDEST PUSH2 0x535 DUP10 DUP10 DUP10 DUP10 PUSH2 0xC5B JUMP JUMPDEST PUSH1 0x0 DUP6 SGT ISZERO PUSH2 0x54A JUMPI PUSH2 0x54A DUP9 DUP11 DUP10 DUP9 PUSH2 0xD01 JUMP JUMPDEST PUSH1 0xA0 DUP2 ADD DUP6 SWAP1 MSTORE PUSH2 0x55C DUP2 DUP11 DUP5 PUSH2 0x56A JUMP JUMPDEST POP SWAP2 POP POP JUMPDEST SWAP6 SWAP5 POP POP POP POP POP JUMP JUMPDEST PUSH1 0x80 DUP4 ADD MLOAD ISZERO PUSH2 0x579 JUMPI PUSH1 0x0 DUP1 REVERT JUMPDEST PUSH2 0x589 DUP4 DUP4 DUP5 DUP5 PUSH1 0x0 PUSH1 0x1 PUSH2 0xDAE JUMP JUMPDEST POP POP POP POP JUMP JUMPDEST PUSH1 0x0 PUSH2 0x599 PUSH2 0xF85 JUMP JUMPDEST PUSH1 0x1 PUSH1 0x1 PUSH1 0xA0 SHL SUB DUP4 AND PUSH1 0x0 DUP2 DUP2 MSTORE PUSH1 0x20 DUP4 DUP2 MSTORE PUSH1 0x40 DUP1 DUP4 KECCAK256 DUP9 MLOAD DUP2 SLOAD SWAP4 DUP11 ADD MLOAD DUP11 DUP5 ADD MLOAD PUSH1 0x60 DUP13 ADD MLOAD PUSH1 0x80 DUP14 ADD MLOAD PUSH1 0xA0 DUP15 ADD MLOAD PUSH5 0xFFFFFFFFFF NOT SWAP1 SWAP9 AND PUSH5 0xFFFFFFFFFF SWAP1 SWAP6 AND SWAP5 SWAP1 SWAP5 OR PUSH6 0xFF0000000000 NOT AND PUSH1 0x1 PUSH1 0x28 SHL PUSH1 0xF8 SWAP5 SWAP1 SWAP5 SHR SWAP4 SWAP1 SWAP4 MUL SWAP3 SWAP1 SWAP3 OR PUSH7 0xFF000000000000 NOT AND PUSH1 0x1 PUSH1 0x30 SHL PUSH1 0xFF SWAP1 SWAP3 AND SWAP2 SWAP1 SWAP2 MUL OR PUSH9 0xFFFF00000000000000 NOT AND PUSH1 0x1 PUSH1 0x38 SHL PUSH2 0xFFFF SWAP1 SWAP3 AND SWAP2 SWAP1 SWAP2 MUL OR PUSH27 0xFFFFFFFFFFFFFFFFFFFFFFFFFFFFFFFFFFFF000000000000000000 NOT AND PUSH1 0x1 PUSH1 0x48 SHL PUSH1 0x70 SWAP3 SWAP1 SWAP3 SHR SWAP2 SWAP1 SWAP2 MUL OR PUSH1 0xFF PUSH1 0xD8 SHL NOT AND PUSH1 0x1 PUSH1 0xD8 SHL SWAP4 ISZERO ISZERO SWAP4 SWAP1 SWAP4 MUL SWAP3 SWAP1 SWAP3 OR SWAP1 SWAP2 SSTORE MLOAD SWAP3 SWAP4 POP SWAP1 SWAP2 PUSH32 0x6BD4B121BCA854A191536A2CA891155C42EE2FB23F307FB34E8BC65CFCB5412E SWAP2 SWAP1 LOG2 POP POP POP JUMP JUMPDEST PUSH1 0x0 PUSH2 0x6B6 PUSH2 0x4048 JUMP JUMPDEST PUSH2 0x6BE PUSH2 0x40A4 JUMP JUMPDEST PUSH2 0x6C6 PUSH2 0x40D9 JUMP JUMPDEST PUSH2 0x6D1 DUP11 DUP11 DUP11 PUSH2 0x813 JUMP JUMPDEST POP SWAP1 SWAP3 POP SWAP1 POP PUSH2 0x6E3 DUP4 DUP12 DUP11 DUP6 PUSH2 0x96F JUMP JUMPDEST DUP5 ISZERO ISZERO PUSH2 0x140 DUP3 ADD MSTORE PUSH2 0x6F8 DUP8 DUP8 DUP6 DUP5 PUSH2 0xF92 JUMP JUMPDEST SWAP4 POP POP SWAP7 POP SWAP7 POP SWAP7 SWAP4 POP POP POP POP JUMP JUMPDEST PUSH2 0x70F PUSH2 0x40A4 JUMP JUMPDEST PUSH2 0x71D CALLER DUP10 DUP10 DUP9 PUSH1 0x0 PUSH2 0x46B JUMP JUMPDEST SWAP1 POP PUSH2 0x747 CALLER DUP3 DUP11 DUP10 PUSH2 0x733 DUP10 PUSH1 0x60 ADD MLOAD PUSH2 0x455 JUMP JUMPDEST PUSH2 0x740 DUP11 PUSH1 0xA0 ADD MLOAD PUSH2 0x455 JUMP JUMPDEST DUP10 DUP10 PUSH2 0x10A7 JUMP JUMPDEST POP SWAP8 SWAP7 POP POP POP POP POP POP POP JUMP JUMPDEST PUSH2 0x75B PUSH2 0x4048 JUMP JUMPDEST PUSH2 0x767 DUP2 DUP7 DUP7 DUP7 PUSH2 0x96F JUMP JUMPDEST PUSH1 0x60 DUP2 ADD DUP3 SWAP1 MSTORE PUSH2 0x779 DUP2 DUP7 DUP6 PUSH2 0x56A JUMP JUMPDEST POP POP POP POP POP JUMP JUMPDEST PUSH1 0x80 DUP4 ADD MLOAD ISZERO PUSH2 0x78F JUMPI PUSH1 0x0 DUP1 REVERT JUMPDEST PUSH2 0x589 DUP4 DUP4 DUP5 DUP5 PUSH1 0x0 DUP1 PUSH2 0xDAE JUMP JUMPDEST CALLER PUSH1 0x1 PUSH1 0x1 PUSH1 0xA0 SHL SUB AND DUP5 PUSH1 0x1 PUSH1 0x1 PUSH1 0xA0 SHL SUB AND PUSH32 0x88FFF2F00941B1272999212DE454EE8D15F54D132723B35E3423EF742109861C DUP6 DUP5 PUSH1 0x0 ADD MLOAD DUP7 PUSH2 0x7E7 DUP8 PUSH1 0x60 ADD MLOAD PUSH2 0x455 JUMP JUMPDEST PUSH2 0x7F4 DUP9 PUSH1 0xA0 ADD MLOAD PUSH2 0x455 JUMP JUMPDEST PUSH1 0x40 MLOAD PUSH2 0x805 SWAP6 SWAP5 SWAP4 SWAP3 SWAP2 SWAP1 PUSH2 0x4D93 JUMP JUMPDEST PUSH1 0x40 MLOAD DUP1 SWAP2 SUB SWAP1 LOG3 POP POP POP POP JUMP JUMPDEST PUSH2 0x81B PUSH2 0x40A4 JUMP JUMPDEST PUSH2 0x823 PUSH2 0x40D9 JUMP JUMPDEST PUSH2 0x82B PUSH2 0x415E JUMP JUMPDEST CALLER PUSH1 0x1 PUSH1 0x1 PUSH1 0xA0 SHL SUB DUP8 AND EQ ISZERO PUSH2 0x841 JUMPI PUSH1 0x0 DUP1 REVERT JUMPDEST PUSH2 0xFFFF DUP6 AND PUSH2 0x84F JUMPI PUSH1 0x0 DUP1 REVERT JUMPDEST DUP5 PUSH2 0xFFFF AND DUP5 PUSH2 0xFFFF AND EQ ISZERO PUSH2 0x864 JUMPI PUSH1 0x0 DUP1 REVERT JUMPDEST PUSH1 0x0 DUP1 PUSH1 0x0 PUSH20 0x0 PUSH4 0x451D958F DUP11 DUP11 DUP11 PUSH1 0x40 MLOAD DUP5 PUSH4 0xFFFFFFFF AND PUSH1 0xE0 SHL DUP2 MSTORE PUSH1 0x4 ADD PUSH2 0x8A4 SWAP4 SWAP3 SWAP2 SWAP1 PUSH2 0x4BC5 JUMP JUMPDEST PUSH1 0x0 PUSH1 0x40 MLOAD DUP1 DUP4 SUB DUP2 DUP7 DUP1 EXTCODESIZE ISZERO DUP1 ISZERO PUSH2 0x8BC JUMPI PUSH1 0x0 DUP1 REVERT JUMPDEST POP GAS DELEGATECALL ISZERO DUP1 ISZERO PUSH2 0x8D0 JUMPI RETURNDATASIZE PUSH1 0x0 DUP1 RETURNDATACOPY RETURNDATASIZE PUSH1 0x0 REVERT JUMPDEST POP POP POP POP PUSH1 0x40 MLOAD RETURNDATASIZE PUSH1 0x0 DUP3 RETURNDATACOPY PUSH1 0x1F RETURNDATASIZE SWAP1 DUP2 ADD PUSH1 0x1F NOT AND DUP3 ADD PUSH1 0x40 MSTORE PUSH2 0x8F8 SWAP2 SWAP1 DUP2 ADD SWAP1 PUSH2 0x4A47 JUMP JUMPDEST SWAP2 SWAP5 POP SWAP3 POP SWAP1 POP PUSH2 0x909 DUP4 DUP11 PUSH2 0x58F JUMP JUMPDEST PUSH1 0x40 DUP1 MLOAD PUSH1 0x80 DUP2 ADD DUP3 MSTORE DUP3 DUP2 MSTORE DUP2 MLOAD PUSH1 0x0 DUP1 DUP3 MSTORE PUSH1 0x20 DUP3 DUP2 ADD SWAP1 SWAP5 MSTORE SWAP3 DUP3 ADD SWAP1 DUP4 PUSH2 0x94A JUMP JUMPDEST PUSH2 0x937 PUSH2 0x4186 JUMP JUMPDEST DUP2 MSTORE PUSH1 0x20 ADD SWAP1 PUSH1 0x1 SWAP1 SUB SWAP1 DUP2 PUSH2 0x92F JUMPI SWAP1 POP JUMPDEST POP DUP2 MSTORE PUSH1 0x0 PUSH1 0x20 DUP3 ADD MSTORE SWAP3 MLOAD PUSH1 0x40 SWAP1 SWAP4 ADD SWAP3 SWAP1 SWAP3 MSTORE POP SWAP2 SWAP9 SWAP1 SWAP8 POP SWAP1 SWAP6 POP SWAP4 POP POP POP POP JUMP JUMPDEST PUSH2 0x978 DUP3 PUSH2 0x1143 JUMP JUMPDEST PUSH2 0x120 DUP6 ADD MSTORE PUSH2 0x589 DUP5 DUP5 DUP5 DUP5 PUSH2 0x1155 JUMP JUMPDEST PUSH1 0x0 DUP2 PUSH1 0x40 ADD MLOAD PUSH1 0x0 EQ ISZERO PUSH2 0x99E JUMPI PUSH1 0x0 DUP1 REVERT JUMPDEST PUSH1 0x0 PUSH2 0x9C6 PUSH2 0x9BA DUP5 PUSH1 0x40 ADD MLOAD DUP6 PUSH1 0x20 ADD MLOAD DUP7 PUSH1 0xC0 ADD MLOAD PUSH2 0x11FD JUMP JUMPDEST PUSH2 0x100 DUP6 ADD MLOAD SWAP1 PUSH2 0x1243 JUMP JUMPDEST SWAP1 POP PUSH1 0x0 DUP4 PUSH1 0x80 ADD MLOAD SGT ISZERO PUSH2 0xAC8 JUMPI PUSH1 0xA0 DUP4 ADD MLOAD PUSH1 0x0 SWAP1 PUSH1 0x3 DUP2 SWAP1 BYTE SWAP1 DUP3 BYTE GT PUSH2 0x9EF JUMPI PUSH1 0x0 DUP1 REVERT JUMPDEST PUSH1 0xA0 DUP5 ADD MLOAD PUSH1 0x80 DUP6 ADD MLOAD PUSH1 0x3 DUP3 SWAP1 BYTE PUSH1 0x0 SWAP3 SWAP1 SWAP3 BYTE SWAP2 SWAP1 SWAP2 SUB PUSH1 0xFF AND SWAP1 PUSH2 0xA43 SWAP1 PUSH2 0xA1A SWAP1 DUP4 PUSH2 0xAD0 JUMP JUMPDEST PUSH1 0xA0 DUP8 ADD MLOAD PUSH1 0x40 DUP10 ADD MLOAD PUSH2 0xA3D SWAP2 PUSH1 0x3 BYTE SWAP1 PUSH2 0xA37 SWAP1 DUP9 SWAP1 PUSH2 0xAD0 JUMP JUMPDEST SWAP1 PUSH2 0xAD0 JUMP JUMPDEST SWAP1 PUSH2 0x128B JUMP JUMPDEST SWAP2 POP POP PUSH2 0xA5E DUP2 DUP7 PUSH1 0x40 ADD MLOAD DUP9 PUSH1 0x1 PUSH1 0x1 PUSH1 0x60 SHL SUB AND PUSH2 0x12BC JUMP JUMPDEST SWAP1 POP PUSH2 0xA69 DUP2 PUSH2 0x455 JUMP JUMPDEST PUSH1 0xA0 DUP7 DUP2 ADD SWAP2 SWAP1 SWAP2 MSTORE PUSH1 0x40 DUP7 ADD MLOAD SWAP1 DUP6 ADD MLOAD PUSH1 0x80 DUP7 ADD MLOAD PUSH1 0x0 SWAP3 PUSH2 0xAA2 SWAP3 SWAP1 SWAP2 PUSH2 0xA3D SWAP2 PUSH1 0x3 DUP2 SWAP1 BYTE SWAP2 DUP4 SWAP2 PUSH2 0xA37 SWAP1 DUP10 SWAP1 DUP10 BYTE PUSH2 0xAD0 JUMP JUMPDEST PUSH1 0x60 DUP8 ADD MLOAD SWAP1 SWAP2 POP PUSH2 0xAB4 SWAP1 DUP3 PUSH2 0x1306 JUMP JUMPDEST PUSH1 0x60 DUP8 ADD MSTORE PUSH2 0xAC3 DUP5 DUP3 PUSH2 0x1306 JUMP JUMPDEST SWAP4 POP POP POP JUMPDEST POP SWAP4 SWAP3 POP POP POP JUMP JUMPDEST DUP2 DUP2 MUL PUSH1 0x0 NOT DUP4 EQ ISZERO PUSH2 0xB00 JUMPI DUP2 ISZERO DUP1 PUSH2 0xAF2 JUMPI POP DUP3 DUP3 DUP3 DUP2 PUSH2 0xAEF JUMPI INVALID JUMPDEST SDIV EQ JUMPDEST PUSH2 0xAFB JUMPI PUSH1 0x0 DUP1 REVERT JUMPDEST PUSH2 0xB1E JUMP JUMPDEST DUP3 ISZERO DUP1 PUSH2 0xB15 JUMPI POP DUP2 DUP4 DUP3 DUP2 PUSH2 0xB12 JUMPI INVALID JUMPDEST SDIV EQ JUMPDEST PUSH2 0xB1E JUMPI PUSH1 0x0 DUP1 REVERT JUMPDEST SWAP3 SWAP2 POP POP JUMP JUMPDEST PUSH2 0xB2C PUSH2 0x41C5 JUMP JUMPDEST PUSH2 0x463 DUP3 PUSH1 0x1 PUSH2 0x131C JUMP JUMPDEST PUSH2 0xB3F PUSH2 0x40A4 JUMP JUMPDEST PUSH1 0x0 PUSH2 0xB49 PUSH2 0xF85 JUMP JUMPDEST PUSH1 0x1 PUSH1 0x1 PUSH1 0xA0 SHL SUB DUP5 AND PUSH1 0x0 SWAP1 DUP2 MSTORE PUSH1 0x20 SWAP2 DUP3 MSTORE PUSH1 0x40 SWAP1 DUP2 SWAP1 KECCAK256 DUP2 MLOAD PUSH1 0xC0 DUP2 ADD DUP4 MSTORE SWAP1 SLOAD PUSH5 0xFFFFFFFFFF DUP2 AND DUP3 MSTORE PUSH1 0x1 PUSH1 0x1 PUSH1 0xF8 SHL SUB NOT PUSH1 0x1 PUSH1 0x28 SHL DUP3 DIV PUSH1 0xF8 SHL AND SWAP4 DUP3 ADD SWAP4 SWAP1 SWAP4 MSTORE PUSH1 0xFF PUSH1 0x1 PUSH1 0x30 SHL DUP5 DIV DUP2 AND SWAP3 DUP3 ADD SWAP3 SWAP1 SWAP3 MSTORE PUSH2 0xFFFF PUSH1 0x1 PUSH1 0x38 SHL DUP5 DIV AND PUSH1 0x60 DUP3 ADD MSTORE PUSH1 0x1 PUSH1 0x1 PUSH1 0x70 SHL SUB NOT PUSH1 0x1 PUSH1 0x48 SHL DUP5 DIV PUSH1 0x70 SHL AND PUSH1 0x80 DUP3 ADD MSTORE PUSH1 0x1 PUSH1 0xD8 SHL SWAP1 SWAP3 DIV AND ISZERO ISZERO PUSH1 0xA0 DUP3 ADD MSTORE SWAP2 POP POP SWAP2 SWAP1 POP JUMP JUMPDEST PUSH1 0x0 DUP4 PUSH2 0xBF4 JUMPI POP PUSH1 0x0 PUSH2 0x561 JUMP JUMPDEST PUSH1 0x0 DUP5 SGT PUSH2 0xC01 JUMPI PUSH1 0x0 DUP1 REVERT JUMPDEST PUSH1 0x0 PUSH2 0xC10 DUP7 PUSH2 0xFFFF AND PUSH2 0xB24 JUMP JUMPDEST SWAP1 POP PUSH1 0x0 PUSH2 0xC27 DUP3 PUSH2 0xC22 DUP8 DUP10 PUSH2 0x13B6 JUMP JUMPDEST PUSH2 0x13E3 JUMP JUMPDEST SWAP1 POP PUSH1 0x0 PUSH2 0xC38 DUP10 DUP10 DUP5 DUP10 DUP10 PUSH2 0x1426 JUMP JUMPDEST SWAP1 SWAP5 POP SWAP1 POP DUP7 DUP2 SUB PUSH1 0x0 DUP2 SLT ISZERO PUSH2 0xC4E JUMPI PUSH1 0x0 DUP1 REVERT JUMPDEST POP POP POP POP SWAP6 SWAP5 POP POP POP POP POP JUMP JUMPDEST PUSH1 0x0 PUSH2 0xC65 PUSH2 0x14E8 JUMP JUMPDEST PUSH2 0xFFFF DUP5 AND PUSH1 0x0 SWAP1 DUP2 MSTORE PUSH1 0x20 SWAP2 SWAP1 SWAP2 MSTORE PUSH1 0x40 DUP2 KECCAK256 SLOAD PUSH1 0x1 PUSH1 0x1 PUSH1 0xA0 SHL SUB AND SWAP2 POP DUP3 SLT ISZERO PUSH2 0xC90 JUMPI SWAP3 SWAP4 SWAP3 JUMPDEST DUP1 PUSH1 0x1 PUSH1 0x1 PUSH1 0xA0 SHL SUB AND PUSH4 0x23DE6651 DUP7 DUP7 PUSH2 0xCAA DUP7 PUSH2 0x14F5 JUMP JUMPDEST PUSH1 0x40 MLOAD DUP5 PUSH4 0xFFFFFFFF AND PUSH1 0xE0 SHL DUP2 MSTORE PUSH1 0x4 ADD PUSH2 0xCC8 SWAP4 SWAP3 SWAP2 SWAP1 PUSH2 0x4B88 JUMP JUMPDEST PUSH1 0x0 PUSH1 0x40 MLOAD DUP1 DUP4 SUB DUP2 PUSH1 0x0 DUP8 DUP1 EXTCODESIZE ISZERO DUP1 ISZERO PUSH2 0xCE2 JUMPI PUSH1 0x0 DUP1 REVERT JUMPDEST POP GAS CALL ISZERO DUP1 ISZERO PUSH2 0xCF6 JUMPI RETURNDATASIZE PUSH1 0x0 DUP1 RETURNDATACOPY RETURNDATASIZE PUSH1 0x0 REVERT JUMPDEST POP POP POP POP POP POP POP POP POP JUMP JUMPDEST PUSH1 0x0 PUSH2 0xD0B PUSH2 0x1516 JUMP JUMPDEST PUSH2 0xFFFF DUP5 AND PUSH1 0x0 SWAP1 DUP2 MSTORE PUSH1 0x20 SWAP2 SWAP1 SWAP2 MSTORE PUSH1 0x40 DUP2 KECCAK256 SLOAD PUSH1 0x1 PUSH1 0x1 PUSH1 0xA0 SHL SUB AND SWAP2 POP DUP3 SLT ISZERO PUSH2 0xD36 JUMPI SWAP3 SWAP4 SWAP3 JUMPDEST PUSH1 0x0 PUSH2 0xD41 DUP4 PUSH2 0x14F5 JUMP JUMPDEST PUSH1 0x40 MLOAD PUSH4 0x23DE6651 PUSH1 0xE0 SHL DUP2 MSTORE SWAP1 SWAP2 POP PUSH1 0x1 PUSH1 0x1 PUSH1 0xA0 SHL SUB DUP4 AND SWAP1 PUSH4 0x23DE6651 SWAP1 PUSH2 0xD74 SWAP1 DUP10 SWAP1 DUP10 SWAP1 DUP7 SWAP1 PUSH1 0x4 ADD PUSH2 0x4B88 JUMP JUMPDEST PUSH1 0x0 PUSH1 0x40 MLOAD DUP1 DUP4 SUB DUP2 PUSH1 0x0 DUP8 DUP1 EXTCODESIZE ISZERO DUP1 ISZERO PUSH2 0xD8E JUMPI PUSH1 0x0 DUP1 REVERT JUMPDEST POP GAS CALL ISZERO DUP1 ISZERO PUSH2 0xDA2 JUMPI RETURNDATASIZE PUSH1 0x0 DUP1 RETURNDATACOPY RETURNDATASIZE PUSH1 0x0 REVERT JUMPDEST POP POP POP POP POP POP POP POP POP POP JUMP JUMPDEST PUSH1 0x0 DUP1 PUSH1 0x0 PUSH2 0xDCE DUP9 DUP9 DUP12 PUSH1 0x0 ADD MLOAD DUP13 PUSH1 0x80 ADD MLOAD DUP14 PUSH2 0x120 ADD MLOAD DUP11 PUSH2 0x1523 JUMP JUMPDEST SWAP3 POP PUSH1 0x0 PUSH2 0xDED DUP11 PUSH1 0x80 ADD MLOAD DUP12 PUSH1 0x60 ADD MLOAD PUSH2 0x1306 SWAP1 SWAP2 SWAP1 PUSH4 0xFFFFFFFF AND JUMP JUMPDEST SWAP1 POP DUP5 DUP1 ISZERO PUSH2 0xDFC JUMPI POP PUSH1 0x0 DUP2 SLT JUMPDEST DUP1 ISZERO PUSH2 0xE17 JUMPI POP PUSH1 0x20 DUP11 ADD MLOAD PUSH1 0x0 SWAP1 PUSH2 0xE15 SWAP1 DUP4 PUSH2 0x1306 JUMP JUMPDEST SLT JUMPDEST ISZERO PUSH2 0xE42 JUMPI DUP7 PUSH1 0xA0 ADD MLOAD PUSH2 0xE3D JUMPI PUSH1 0x40 MLOAD PUSH3 0x461BCD PUSH1 0xE5 SHL DUP2 MSTORE PUSH1 0x4 ADD PUSH2 0x4F8 SWAP1 PUSH2 0x4C8C JUMP JUMPDEST PUSH1 0x1 SWAP2 POP JUMPDEST DUP1 ISZERO PUSH2 0xE61 JUMPI PUSH1 0x20 DUP11 ADD MLOAD PUSH2 0xE57 SWAP1 DUP3 PUSH2 0x1306 JUMP JUMPDEST PUSH1 0x20 DUP12 ADD MSTORE PUSH1 0x1 SWAP3 POP JUMPDEST POP PUSH1 0xA0 DUP10 ADD MLOAD ISZERO ISZERO DUP1 PUSH2 0xE77 JUMPI POP PUSH1 0xC0 DUP10 ADD MLOAD ISZERO ISZERO JUMPDEST ISZERO PUSH2 0xEE0 JUMPI PUSH1 0x0 PUSH2 0xEA7 DUP11 PUSH1 0xC0 ADD MLOAD PUSH2 0xEA1 DUP13 PUSH1 0xA0 ADD MLOAD DUP14 PUSH1 0x40 ADD MLOAD PUSH2 0x1306 SWAP1 SWAP2 SWAP1 PUSH4 0xFFFFFFFF AND JUMP JUMPDEST SWAP1 PUSH2 0x1306 JUMP JUMPDEST SWAP1 POP PUSH1 0x0 DUP2 SLT ISZERO PUSH2 0xECA JUMPI PUSH1 0x40 MLOAD PUSH3 0x461BCD PUSH1 0xE5 SHL DUP2 MSTORE PUSH1 0x4 ADD PUSH2 0x4F8 SWAP1 PUSH2 0x4D34 JUMP JUMPDEST PUSH2 0xED5 DUP11 DUP11 DUP4 PUSH2 0x15C8 JUMP JUMPDEST POP PUSH1 0x40 DUP11 ADD MSTORE PUSH1 0x1 SWAP2 POP JUMPDEST DUP2 ISZERO PUSH2 0xF0F JUMPI PUSH2 0xF0F DUP9 DUP11 PUSH1 0x0 ADD MLOAD DUP12 PUSH1 0x20 ADD MLOAD DUP13 PUSH1 0x40 ADD MLOAD DUP14 PUSH1 0xE0 ADD MLOAD DUP15 PUSH2 0x100 ADD MLOAD DUP16 PUSH2 0x120 ADD MLOAD PUSH2 0x16BF JUMP JUMPDEST DUP9 MLOAD PUSH1 0x20 DUP11 ADD MLOAD PUSH2 0xF3C SWAP2 PUSH2 0xFFFF AND SWAP1 ISZERO ISZERO DUP1 PUSH2 0xF2F JUMPI POP PUSH1 0x40 DUP12 ADD MLOAD ISZERO ISZERO JUMPDEST DUP9 SWAP2 SWAP1 PUSH1 0x1 PUSH1 0xFE SHL PUSH2 0x17FA JUMP JUMPDEST PUSH1 0x0 DUP10 PUSH1 0x20 ADD MLOAD SLT ISZERO PUSH2 0xF62 JUMPI PUSH1 0x20 DUP7 ADD DUP1 MLOAD PUSH1 0x1 PUSH1 0xF9 SHL OR PUSH1 0x1 PUSH1 0x1 PUSH1 0xF8 SHL SUB NOT AND SWAP1 MSTORE JUMPDEST DUP1 ISZERO PUSH2 0xF79 JUMPI DUP9 MLOAD PUSH2 0x120 DUP11 ADD MLOAD PUSH2 0xF79 SWAP2 PUSH2 0x1A00 JUMP JUMPDEST POP POP SWAP7 SWAP6 POP POP POP POP POP POP JUMP JUMPDEST PUSH1 0x0 DUP1 PUSH2 0xB1E PUSH1 0x1 PUSH2 0x1A47 JUMP JUMPDEST PUSH1 0x0 DUP1 DUP3 PUSH1 0x40 ADD MLOAD SLT PUSH2 0xFB7 JUMPI PUSH1 0x40 MLOAD PUSH3 0x461BCD PUSH1 0xE5 SHL DUP2 MSTORE PUSH1 0x4 ADD PUSH2 0x4F8 SWAP1 PUSH2 0x4C40 JUMP JUMPDEST PUSH1 0x0 DUP3 PUSH1 0x60 ADD MLOAD SGT PUSH2 0xFDB JUMPI PUSH1 0x40 MLOAD PUSH3 0x461BCD PUSH1 0xE5 SHL DUP2 MSTORE PUSH1 0x4 ADD PUSH2 0x4F8 SWAP1 PUSH2 0x4CD6 JUMP JUMPDEST PUSH1 0x0 DUP1 PUSH2 0xFF1 DUP5 DUP9 PUSH1 0x1 PUSH1 0x1 PUSH1 0x80 SHL SUB AND PUSH2 0x1A60 JUMP JUMPDEST SWAP2 POP SWAP2 POP PUSH1 0x0 DUP3 SWAP1 POP PUSH1 0x0 DUP7 PUSH1 0x20 ADD MLOAD SGT ISZERO PUSH2 0x104D JUMPI DUP1 DUP7 PUSH1 0x20 ADD MLOAD SLT PUSH2 0x1028 JUMPI PUSH2 0x101B DUP2 PUSH2 0x455 JUMP JUMPDEST PUSH1 0x60 DUP8 ADD MSTORE POP PUSH1 0x0 PUSH2 0x104D JUMP JUMPDEST PUSH2 0x1035 DUP7 PUSH1 0x20 ADD MLOAD PUSH2 0x455 JUMP JUMPDEST PUSH1 0x60 DUP8 ADD MSTORE PUSH1 0x20 DUP7 ADD MLOAD PUSH2 0x104A SWAP1 DUP3 SWAP1 PUSH2 0x1B13 JUMP JUMPDEST SWAP1 POP JUMPDEST PUSH1 0x0 DUP2 SGT DUP1 ISZERO PUSH2 0x1061 JUMPI POP PUSH1 0x0 DUP6 PUSH1 0x80 ADD MLOAD SGT JUMPDEST ISZERO PUSH2 0x107E JUMPI PUSH2 0x107B DUP7 DUP7 DUP4 DUP11 PUSH1 0x1 PUSH1 0x1 PUSH1 0x60 SHL SUB AND PUSH2 0x1B2F JUMP JUMPDEST SWAP1 POP JUMPDEST PUSH1 0x0 DUP2 SGT ISZERO PUSH2 0x109C JUMPI PUSH1 0x60 DUP7 ADD MLOAD PUSH2 0x1096 SWAP1 DUP3 PUSH2 0x1BED JUMP JUMPDEST PUSH1 0x60 DUP8 ADD MSTORE JUMPDEST POP SWAP7 SWAP6 POP POP POP POP POP POP JUMP JUMPDEST PUSH2 0x10AF PUSH2 0x40A4 JUMP JUMPDEST DUP2 PUSH2 0x10CC JUMPI PUSH1 0x40 MLOAD PUSH3 0x461BCD PUSH1 0xE5 SHL DUP2 MSTORE PUSH1 0x4 ADD PUSH2 0x4F8 SWAP1 PUSH2 0x4CFD JUMP JUMPDEST PUSH2 0x10D4 PUSH2 0x4048 JUMP JUMPDEST PUSH2 0x10E0 DUP2 DUP12 DUP10 DUP13 PUSH2 0x96F JUMP JUMPDEST PUSH1 0x60 DUP2 ADD DUP7 SWAP1 MSTORE DUP6 ISZERO PUSH2 0x10F9 JUMPI PUSH2 0x10F9 DUP9 DUP12 DUP10 DUP10 PUSH2 0xC5B JUMP JUMPDEST DUP5 ISZERO PUSH2 0x110B JUMPI PUSH2 0x110B DUP9 DUP12 DUP10 DUP9 PUSH2 0xD01 JUMP JUMPDEST DUP4 ISZERO PUSH2 0x1120 JUMPI PUSH2 0x111A DUP7 PUSH2 0x455 JUMP JUMPDEST PUSH1 0x80 DUP3 ADD MSTORE JUMPDEST PUSH1 0xA0 DUP2 ADD DUP6 SWAP1 MSTORE PUSH2 0x1134 DUP2 DUP12 DUP12 PUSH1 0x0 PUSH2 0x1C03 JUMP JUMPDEST POP SWAP8 SWAP10 SWAP9 POP POP POP POP POP POP POP POP POP JUMP JUMPDEST PUSH2 0x114B PUSH2 0x41F4 JUMP JUMPDEST PUSH2 0x463 DUP3 TIMESTAMP PUSH2 0x1C14 JUMP JUMPDEST DUP2 PUSH2 0xFFFF AND PUSH1 0x0 LT DUP1 ISZERO PUSH2 0x116F JUMPI POP PUSH2 0x3FFF PUSH2 0xFFFF DUP4 AND GT ISZERO JUMPDEST PUSH2 0x1178 JUMPI PUSH1 0x0 DUP1 REVERT JUMPDEST PUSH2 0xFFFF DUP3 AND DUP1 DUP6 MSTORE PUSH2 0x118B SWAP1 DUP3 SWAP1 PUSH2 0x1CD5 JUMP JUMPDEST ISZERO PUSH2 0x11BA JUMPI PUSH2 0x11A0 DUP4 DUP4 DUP7 PUSH2 0x120 ADD MLOAD PUSH2 0x1D5F JUMP JUMPDEST PUSH2 0x100 DUP9 ADD MSTORE PUSH1 0xE0 DUP8 ADD MSTORE PUSH1 0x40 DUP7 ADD MSTORE PUSH1 0x20 DUP6 ADD MSTORE PUSH2 0x11D8 JUMP JUMPDEST PUSH1 0x0 PUSH1 0x20 DUP6 ADD DUP2 SWAP1 MSTORE PUSH1 0x40 DUP6 ADD DUP2 SWAP1 MSTORE PUSH1 0xE0 DUP6 ADD DUP2 SWAP1 MSTORE PUSH2 0x100 DUP6 ADD MSTORE JUMPDEST POP POP PUSH1 0x0 PUSH1 0x60 DUP4 ADD DUP2 SWAP1 MSTORE PUSH1 0x80 DUP4 ADD DUP2 SWAP1 MSTORE PUSH1 0xA0 DUP4 ADD DUP2 SWAP1 MSTORE PUSH1 0xC0 SWAP1 SWAP3 ADD SWAP2 SWAP1 SWAP2 MSTORE POP JUMP JUMPDEST PUSH1 0x0 DUP1 PUSH1 0x0 DUP6 SGT PUSH2 0x1212 JUMPI DUP3 PUSH1 0x40 ADD MLOAD PUSH2 0x1218 JUMP JUMPDEST DUP3 PUSH1 0x60 ADD MLOAD JUMPDEST SWAP1 POP PUSH1 0x0 DUP2 SGT PUSH2 0x1227 JUMPI PUSH1 0x0 DUP1 REVERT JUMPDEST PUSH2 0x561 DUP2 PUSH2 0xA3D PUSH1 0x64 PUSH2 0xA37 PUSH2 0x123C DUP10 PUSH2 0x455 JUMP JUMPDEST DUP9 SWAP1 PUSH2 0x1E19 JUMP JUMPDEST DUP2 MLOAD PUSH1 0x0 SWAP1 DUP2 SWAP1 PUSH2 0x1267 SWAP1 PUSH2 0xA3D DUP6 PUSH15 0xC097CE7BC90715B34B9F1000000000 PUSH2 0xAD0 JUMP JUMPDEST SWAP1 POP PUSH1 0x0 DUP4 SLT PUSH2 0x1277 JUMPI DUP1 PUSH2 0x1283 JUMP JUMPDEST PUSH2 0x1283 DUP2 PUSH1 0x0 NOT PUSH2 0x1E3B JUMP JUMPDEST SWAP5 SWAP4 POP POP POP POP JUMP JUMPDEST PUSH1 0x0 DUP2 PUSH1 0x0 NOT EQ DUP1 ISZERO PUSH2 0x12A1 JUMPI POP PUSH1 0x1 PUSH1 0xFF SHL DUP4 EQ JUMPDEST ISZERO PUSH2 0x12AB JUMPI PUSH1 0x0 DUP1 REVERT JUMPDEST DUP2 DUP4 DUP2 PUSH2 0x12B4 JUMPI INVALID JUMPDEST SDIV SWAP4 SWAP3 POP POP POP JUMP JUMPDEST PUSH1 0x0 DUP1 PUSH2 0x12CF PUSH1 0x64 PUSH2 0xA3D DUP7 PUSH1 0x28 PUSH2 0xAD0 JUMP JUMPDEST SWAP1 POP DUP5 DUP5 DUP2 SGT ISZERO PUSH2 0x12DD JUMPI POP DUP4 JUMPDEST DUP2 DUP7 SLT ISZERO PUSH2 0x12E8 JUMPI POP DUP1 JUMPDEST PUSH1 0x0 DUP5 SGT DUP1 ISZERO PUSH2 0x12F7 JUMPI POP DUP4 DUP2 SGT JUMPDEST ISZERO PUSH2 0x561 JUMPI POP SWAP2 SWAP5 SWAP4 POP POP POP POP JUMP JUMPDEST DUP2 DUP2 ADD DUP3 DUP2 SLT ISZERO PUSH1 0x0 DUP4 SLT ISZERO EQ PUSH2 0xB1E JUMPI PUSH1 0x0 DUP1 REVERT JUMPDEST PUSH2 0x1324 PUSH2 0x41C5 JUMP JUMPDEST PUSH1 0x0 PUSH2 0x132E PUSH2 0x1E51 JUMP JUMPDEST PUSH1 0x0 DUP6 DUP2 MSTORE PUSH1 0x20 DUP3 DUP2 MSTORE PUSH1 0x40 DUP1 DUP4 KECCAK256 DUP8 ISZERO ISZERO DUP5 MSTORE DUP3 MSTORE SWAP2 DUP3 SWAP1 KECCAK256 DUP3 MLOAD PUSH1 0xA0 DUP2 ADD DUP5 MSTORE DUP2 SLOAD PUSH1 0x1 PUSH1 0x1 PUSH1 0xA0 SHL SUB DUP2 AND DUP3 MSTORE PUSH1 0xFF PUSH1 0x1 PUSH1 0xA0 SHL DUP3 DIV DUP2 AND ISZERO ISZERO SWAP5 DUP4 ADD SWAP5 SWAP1 SWAP5 MSTORE PUSH1 0x1 PUSH1 0xB0 SHL DUP2 DIV DUP5 AND PUSH1 0xA EXP SWAP5 DUP3 ADD SWAP5 SWAP1 SWAP5 MSTORE SWAP4 SWAP5 POP SWAP3 SWAP2 PUSH1 0x60 DUP4 ADD SWAP2 PUSH1 0x1 PUSH1 0xA8 SHL SWAP1 SWAP2 DIV AND PUSH1 0x5 DUP2 GT ISZERO PUSH2 0x13A3 JUMPI INVALID JUMPDEST DUP2 MSTORE PUSH1 0x0 PUSH1 0x20 SWAP1 SWAP2 ADD MSTORE SWAP6 SWAP5 POP POP POP POP POP JUMP JUMPDEST PUSH1 0x0 DUP1 PUSH2 0x1267 PUSH15 0xC097CE7BC90715B34B9F1000000000 PUSH2 0xA3D DUP7 PUSH1 0x0 ADD MLOAD DUP7 PUSH2 0xAD0 SWAP1 SWAP2 SWAP1 PUSH4 0xFFFFFFFF AND JUMP JUMPDEST PUSH1 0x0 PUSH4 0x5F5E100 DUP4 PUSH1 0x40 ADD MLOAD SLT ISZERO PUSH2 0x140B JUMPI PUSH2 0x1404 PUSH1 0x1 PUSH2 0xEA1 DUP6 DUP6 PUSH2 0x1E5E JUMP JUMPDEST SWAP1 POP PUSH2 0xB1E JUMP JUMPDEST PUSH2 0x141F DUP4 PUSH2 0x141A DUP5 PUSH1 0x1 PUSH2 0x1306 JUMP JUMPDEST PUSH2 0x1E5E JUMP JUMPDEST SWAP4 SWAP3 POP POP POP JUMP JUMPDEST PUSH1 0x0 DUP1 PUSH1 0x0 PUSH2 0x1434 DUP7 PUSH2 0x1E96 JUMP JUMPDEST SWAP1 POP DUP1 PUSH2 0x1448 JUMPI PUSH1 0x0 DUP1 SWAP3 POP SWAP3 POP POP PUSH2 0x14DE JUMP JUMPDEST PUSH1 0x0 PUSH2 0x1457 DUP9 PUSH2 0xFFFF AND PUSH2 0xB24 JUMP JUMPDEST SWAP1 POP PUSH1 0x3 DUP2 PUSH1 0x60 ADD MLOAD PUSH1 0x5 DUP2 GT ISZERO PUSH2 0x146B JUMPI INVALID JUMPDEST EQ ISZERO PUSH2 0x14B2 JUMPI CALLVALUE DUP3 LT ISZERO PUSH2 0x148B JUMPI PUSH2 0x1486 DUP10 DUP4 CALLVALUE SUB DUP8 PUSH2 0x1EA9 JUMP JUMPDEST PUSH2 0x14AA JUMP JUMPDEST CALLVALUE DUP3 EQ PUSH2 0x14AA JUMPI PUSH1 0x40 MLOAD PUSH3 0x461BCD PUSH1 0xE5 SHL DUP2 MSTORE PUSH1 0x4 ADD PUSH2 0x4F8 SWAP1 PUSH2 0x4C67 JUMP JUMPDEST DUP7 SWAP4 POP PUSH2 0x14CC JUMP JUMPDEST PUSH2 0x14C9 PUSH2 0x14C4 DUP3 PUSH1 0x0 ADD MLOAD DUP12 DUP6 PUSH2 0x1F76 JUMP JUMPDEST PUSH2 0x20F4 JUMP JUMPDEST SWAP4 POP JUMPDEST PUSH2 0x14D9 DUP10 DUP10 DUP7 DUP5 DUP11 PUSH2 0x210A JUMP JUMPDEST SWAP3 POP POP POP JUMPDEST SWAP6 POP SWAP6 SWAP4 POP POP POP POP JUMP JUMPDEST PUSH1 0x0 DUP1 PUSH2 0xB1E PUSH1 0x21 PUSH2 0x1A47 JUMP JUMPDEST PUSH1 0x0 DUP1 DUP3 SLT ISZERO PUSH2 0x150F JUMPI PUSH2 0x1508 DUP3 PUSH2 0x455 JUMP JUMPDEST SWAP1 POP PUSH2 0x466 JUMP JUMPDEST POP DUP1 PUSH2 0x466 JUMP JUMPDEST PUSH1 0x0 DUP1 PUSH2 0xB1E PUSH1 0x3 PUSH2 0x1A47 JUMP JUMPDEST PUSH1 0x0 DUP4 PUSH2 0x1532 JUMPI POP PUSH1 0x0 PUSH2 0x15BE JUMP JUMPDEST PUSH1 0x0 DUP5 SLT PUSH2 0x153F JUMPI PUSH1 0x0 DUP1 REVERT JUMPDEST PUSH1 0x0 PUSH2 0x154E DUP7 PUSH2 0xFFFF AND PUSH2 0xB24 JUMP JUMPDEST SWAP1 POP PUSH2 0x155E DUP2 PUSH2 0x141A DUP7 DUP9 PUSH2 0x13B6 JUMP JUMPDEST SWAP2 POP PUSH1 0x0 PUSH2 0x156B DUP4 PUSH2 0x455 JUMP JUMPDEST SWAP1 POP PUSH2 0x1578 DUP8 DUP4 DUP4 PUSH2 0x2151 JUMP JUMPDEST PUSH1 0x3 DUP3 PUSH1 0x60 ADD MLOAD PUSH1 0x5 DUP2 GT ISZERO PUSH2 0x158A JUMPI INVALID JUMPDEST EQ ISZERO PUSH2 0x15A0 JUMPI PUSH2 0x159B DUP9 DUP3 DUP7 PUSH2 0x1EA9 JUMP JUMPDEST PUSH2 0x15AD JUMP JUMPDEST DUP2 MLOAD PUSH2 0x15AD SWAP1 DUP10 DUP4 PUSH2 0x2247 JUMP JUMPDEST PUSH2 0x15BA DUP10 DUP9 DUP6 DUP6 DUP10 PUSH2 0x210A JUMP JUMPDEST POP POP POP JUMPDEST SWAP7 SWAP6 POP POP POP POP POP POP JUMP JUMPDEST DUP3 MLOAD PUSH1 0x0 SWAP1 TIMESTAMP SWAP1 DUP3 SWAP1 PUSH2 0x15DE SWAP1 PUSH2 0xFFFF AND PUSH2 0x22BE JUMP JUMPDEST SWAP1 POP PUSH1 0x0 PUSH2 0x15EB DUP3 PUSH2 0x22E4 JUMP JUMPDEST POP POP SWAP1 POP PUSH1 0x0 PUSH2 0x1600 DUP4 DUP10 PUSH1 0xC0 ADD MLOAD DUP7 PUSH2 0x2340 JUMP JUMPDEST SWAP1 POP PUSH2 0x160E DUP9 DUP5 DUP4 DUP10 PUSH2 0x2423 JUMP JUMPDEST SWAP5 POP PUSH1 0x0 PUSH2 0x161B DUP5 PUSH2 0x24A2 JUMP JUMPDEST SWAP1 POP PUSH1 0x1 PUSH1 0x1 PUSH1 0xA0 SHL SUB DUP2 AND ISZERO PUSH2 0x16A3 JUMPI DUP1 PUSH1 0x1 PUSH1 0x1 PUSH1 0xA0 SHL SUB AND PUSH4 0x3F3EF50D DUP10 DUP12 PUSH1 0x0 ADD MLOAD PUSH2 0x164E DUP14 PUSH1 0x40 ADD MLOAD PUSH2 0x1E96 JUMP JUMPDEST DUP12 DUP9 PUSH1 0x40 MLOAD DUP7 PUSH4 0xFFFFFFFF AND PUSH1 0xE0 SHL DUP2 MSTORE PUSH1 0x4 ADD PUSH2 0x1670 SWAP6 SWAP5 SWAP4 SWAP3 SWAP2 SWAP1 PUSH2 0x4BEA JUMP JUMPDEST PUSH1 0x0 PUSH1 0x40 MLOAD DUP1 DUP4 SUB DUP2 PUSH1 0x0 DUP8 DUP1 EXTCODESIZE ISZERO DUP1 ISZERO PUSH2 0x168A JUMPI PUSH1 0x0 DUP1 REVERT JUMPDEST POP GAS CALL ISZERO DUP1 ISZERO PUSH2 0x169E JUMPI RETURNDATASIZE PUSH1 0x0 DUP1 RETURNDATACOPY RETURNDATASIZE PUSH1 0x0 REVERT JUMPDEST POP POP POP POP JUMPDEST DUP6 ISZERO PUSH2 0x16B3 JUMPI PUSH2 0x16B3 DUP9 DUP8 PUSH2 0x2514 JUMP JUMPDEST POP POP POP POP POP SWAP4 SWAP3 POP POP POP JUMP JUMPDEST PUSH1 0x0 PUSH2 0x16C9 PUSH2 0x2533 JUMP JUMPDEST PUSH1 0x1 PUSH1 0x1 PUSH1 0xA0 SHL SUB DUP10 AND PUSH1 0x0 SWAP1 DUP2 MSTORE PUSH1 0x20 DUP3 DUP2 MSTORE PUSH1 0x40 DUP1 DUP4 KECCAK256 PUSH2 0xFFFF DUP13 AND DUP5 MSTORE SWAP1 SWAP2 MSTORE SWAP1 KECCAK256 SWAP1 SWAP2 POP DUP5 PUSH2 0x1731 JUMPI PUSH7 0xFFFFFFFFFFFFFF DUP5 GT ISZERO PUSH2 0x170A JUMPI PUSH1 0x0 DUP1 REVERT JUMPDEST DUP1 SLOAD PUSH7 0xFFFFFFFFFFFFFF PUSH1 0x70 SHL NOT AND PUSH1 0x1 PUSH1 0x70 SHL PUSH7 0xFFFFFFFFFFFFFF DUP7 AND MUL OR DUP2 SSTORE PUSH2 0x174B JUMP JUMPDEST DUP1 SLOAD PUSH1 0x1 PUSH1 0x50 SHL SWAP1 DIV PUSH4 0xFFFFFFFF AND DUP6 EQ PUSH2 0x174B JUMPI PUSH1 0x0 DUP1 REVERT JUMPDEST PUSH2 0x1754 DUP6 PUSH2 0x2540 JUMP JUMPDEST DUP2 SLOAD PUSH4 0xFFFFFFFF SWAP2 SWAP1 SWAP2 AND PUSH1 0x1 PUSH1 0x50 SHL MUL PUSH4 0xFFFFFFFF PUSH1 0x50 SHL NOT SWAP1 SWAP2 AND OR DUP2 SSTORE PUSH2 0x1785 PUSH2 0x1780 DUP8 PUSH2 0x1E96 JUMP JUMPDEST PUSH2 0x2553 JUMP JUMPDEST DUP2 SLOAD PUSH10 0xFFFFFFFFFFFFFFFFFFFF NOT AND PUSH1 0x1 PUSH1 0x1 PUSH1 0x50 SHL SUB SWAP2 SWAP1 SWAP2 AND OR DUP1 DUP3 SSTORE PUSH2 0x17CB SWAP1 PUSH2 0x17C6 SWAP1 DUP6 SWAP1 DUP13 SWAP1 DUP13 SWAP1 PUSH1 0x1 PUSH1 0xA8 SHL SWAP1 DIV PUSH1 0xA SWAP1 DUP2 SIGNEXTEND SWAP1 SIGNEXTEND DUP13 PUSH2 0x2569 JUMP JUMPDEST PUSH2 0x258C JUMP JUMPDEST DUP2 SLOAD PUSH1 0xA SWAP2 SWAP1 SWAP2 SIGNEXTEND PUSH1 0x1 PUSH1 0x1 PUSH1 0x58 SHL SUB AND PUSH1 0x1 PUSH1 0xA8 SHL MUL PUSH1 0x1 PUSH1 0x1 PUSH1 0xA8 SHL SUB SWAP1 SWAP2 AND OR SWAP1 SSTORE POP POP POP POP POP POP POP POP JUMP JUMPDEST DUP3 PUSH1 0x0 LT DUP1 ISZERO PUSH2 0x180C JUMPI POP PUSH2 0x3FFF DUP4 GT ISZERO JUMPDEST PUSH2 0x1815 JUMPI PUSH1 0x0 DUP1 REVERT JUMPDEST DUP2 DUP1 ISZERO PUSH2 0x1829 JUMPI POP DUP3 DUP5 PUSH1 0x60 ADD MLOAD PUSH2 0xFFFF AND EQ JUMPDEST ISZERO PUSH2 0x1833 JUMPI PUSH2 0x589 JUMP JUMPDEST PUSH1 0x80 DUP5 ADD MLOAD PUSH1 0x0 SWAP1 DUP2 JUMPDEST PUSH1 0x1 PUSH1 0x1 PUSH1 0x70 SHL SUB NOT DUP3 AND ISZERO PUSH2 0x19B5 JUMPI PUSH1 0xF0 DUP3 SWAP1 SHR PUSH2 0x3FFF AND DUP7 DUP2 EQ DUP1 ISZERO PUSH2 0x1862 JUMPI POP DUP6 JUMPDEST ISZERO PUSH2 0x189A JUMPI POP PUSH1 0x80 DUP8 ADD DUP1 MLOAD PUSH1 0x1 PUSH1 0x1 PUSH1 0xF0 SHL SUB NOT DUP7 AND PUSH1 0x10 SWAP1 SWAP4 MUL SWAP3 SWAP1 SWAP3 SHR SWAP2 SWAP1 SWAP2 OR PUSH1 0x1 PUSH1 0x1 PUSH1 0x70 SHL SUB NOT AND SWAP1 MSTORE POP PUSH2 0x589 SWAP1 POP JUMP JUMPDEST DUP7 DUP2 EQ DUP1 ISZERO PUSH2 0x18A7 JUMPI POP DUP6 ISZERO JUMPDEST ISZERO PUSH2 0x1903 JUMPI PUSH1 0x1 PUSH1 0x1 PUSH1 0xF0 SHL SUB NOT DUP6 AND NOT SWAP3 SWAP1 SWAP3 AND SWAP2 PUSH1 0x3 PUSH1 0xFE SHL DUP4 AND PUSH2 0x18E1 JUMPI PUSH1 0x10 DUP4 PUSH14 0xFFFFFFFFFFFFFFFFFFFFFFFFFFFF NOT AND SWAP1 SHL SWAP3 POP JUMPDEST POP PUSH1 0x1 PUSH1 0x1 PUSH1 0x70 SHL SUB NOT SWAP2 DUP3 AND PUSH1 0x10 SWAP1 SWAP2 MUL SHR SWAP2 SWAP1 SWAP2 OR AND PUSH1 0x80 DUP6 ADD MSTORE PUSH2 0x589 JUMP JUMPDEST DUP7 DUP2 GT DUP1 ISZERO PUSH2 0x190F JUMPI POP DUP6 JUMPDEST ISZERO PUSH2 0x1969 JUMPI PUSH1 0x80 DUP9 DUP2 ADD MLOAD PUSH1 0x1 PUSH1 0x1 PUSH1 0xF0 SHL SUB NOT PUSH1 0xF0 DUP11 SWAP1 SHL DUP9 OR DUP2 AND PUSH1 0x10 DUP7 MUL SHR SWAP7 SWAP1 SWAP7 OR SWAP6 SWAP2 SHL AND ISZERO PUSH2 0x1943 JUMPI PUSH1 0x0 DUP1 REVERT JUMPDEST POP PUSH1 0x1 PUSH1 0x1 PUSH1 0x70 SHL SUB NOT SWAP2 DUP3 AND PUSH1 0x1 SWAP2 SWAP1 SWAP2 ADD PUSH1 0x10 MUL SHR SWAP2 SWAP1 SWAP2 OR AND PUSH1 0x80 DUP6 ADD MSTORE PUSH2 0x589 JUMP JUMPDEST DUP7 DUP2 GT DUP1 ISZERO PUSH2 0x1976 JUMPI POP DUP6 ISZERO JUMPDEST ISZERO PUSH2 0x1984 JUMPI POP POP POP POP PUSH2 0x589 JUMP JUMPDEST POP PUSH1 0x1 PUSH1 0x1 PUSH1 0xF0 SHL SUB NOT DUP3 AND PUSH1 0x10 DUP3 DUP2 MUL SWAP2 SWAP1 SWAP2 SHR SWAP4 SWAP1 SWAP4 OR SWAP3 SWAP2 SWAP1 SWAP2 SHL PUSH1 0x1 PUSH1 0x1 PUSH1 0x80 SHL SUB NOT AND SWAP1 PUSH1 0x1 ADD PUSH2 0x183D JUMP JUMPDEST DUP5 PUSH2 0x19C2 JUMPI POP POP POP PUSH2 0x589 JUMP JUMPDEST PUSH1 0x9 DUP2 LT PUSH2 0x19CF JUMPI PUSH1 0x0 DUP1 REVERT JUMPDEST PUSH1 0x1 PUSH1 0x1 PUSH1 0xF0 SHL SUB NOT PUSH1 0xF0 DUP8 SWAP1 SHL DUP6 OR AND PUSH1 0x10 SWAP1 SWAP2 MUL SHR SWAP2 SWAP1 SWAP2 OR PUSH1 0x1 PUSH1 0x1 PUSH1 0x70 SHL SUB NOT AND PUSH1 0x80 DUP7 ADD MSTORE POP POP POP POP POP JUMP JUMPDEST PUSH1 0x0 DUP1 PUSH2 0x1A0D DUP5 DUP5 PUSH2 0x25BE JUMP JUMPDEST SWAP4 POP SWAP4 POP POP POP DUP2 PUSH1 0x0 EQ ISZERO PUSH2 0x1A23 JUMPI POP POP PUSH2 0x1A43 JUMP JUMPDEST DUP2 DUP2 GT ISZERO PUSH2 0x589 JUMPI PUSH1 0x40 MLOAD PUSH3 0x461BCD PUSH1 0xE5 SHL DUP2 MSTORE PUSH1 0x4 ADD PUSH2 0x4F8 SWAP1 PUSH2 0x4D58 JUMP JUMPDEST POP POP JUMP JUMPDEST PUSH1 0x0 PUSH3 0xF4240 DUP3 PUSH1 0x26 DUP2 GT ISZERO PUSH2 0x1A59 JUMPI INVALID JUMPDEST ADD SWAP3 SWAP2 POP POP JUMP JUMPDEST PUSH1 0x0 DUP1 PUSH1 0x0 DUP1 PUSH2 0x1A6F DUP7 PUSH2 0x2682 JUMP JUMPDEST SWAP2 POP SWAP2 POP PUSH1 0x0 PUSH2 0x1AA7 DUP8 PUSH1 0xE0 ADD MLOAD PUSH1 0x60 ADD MLOAD PUSH2 0x1AA1 DUP5 PUSH2 0xA3D PUSH1 0x64 DUP13 PUSH1 0xC0 ADD MLOAD PUSH1 0x40 ADD MLOAD PUSH2 0xAD0 SWAP1 SWAP2 SWAP1 PUSH4 0xFFFFFFFF AND JUMP JUMPDEST SWAP1 PUSH2 0x1BED JUMP JUMPDEST SWAP1 POP PUSH1 0x0 DUP2 SGT PUSH2 0x1AB6 JUMPI PUSH1 0x0 DUP1 REVERT JUMPDEST PUSH2 0x1AC5 DUP2 PUSH2 0xA3D DUP6 PUSH1 0x64 PUSH2 0xAD0 JUMP JUMPDEST SWAP5 POP POP PUSH2 0x1AD7 DUP5 DUP8 PUSH1 0x60 ADD MLOAD DUP8 PUSH2 0x12BC JUMP JUMPDEST SWAP4 POP PUSH1 0x0 PUSH2 0x1AF7 DUP6 DUP9 PUSH2 0x120 ADD MLOAD PUSH1 0x40 ADD MLOAD PUSH2 0x13B6 SWAP1 SWAP2 SWAP1 PUSH4 0xFFFFFFFF AND JUMP JUMPDEST SWAP1 POP PUSH2 0x1B05 DUP8 DUP4 DUP4 DUP9 PUSH2 0x26D6 JUMP JUMPDEST SWAP1 SWAP9 SWAP1 SWAP8 POP SWAP6 POP POP POP POP POP POP JUMP JUMPDEST PUSH1 0x0 PUSH2 0x1B1F DUP4 DUP4 PUSH2 0x1BED JUMP JUMPDEST SWAP1 POP PUSH1 0x0 DUP2 SLT ISZERO PUSH2 0xB1E JUMPI PUSH1 0x0 DUP1 REVERT JUMPDEST PUSH1 0xA0 DUP4 ADD MLOAD PUSH1 0x80 DUP5 ADD MLOAD PUSH1 0x0 SWAP2 DUP1 DUP4 BYTE SWAP2 PUSH1 0x3 SWAP2 SWAP1 SWAP2 BYTE SWAP1 DUP4 SWAP1 PUSH2 0x1B72 SWAP1 PUSH2 0x1B57 SWAP1 DUP6 PUSH2 0xAD0 JUMP JUMPDEST PUSH2 0xA3D DUP5 PUSH2 0xA37 DUP13 PUSH1 0x40 ADD MLOAD DUP12 PUSH2 0xAD0 SWAP1 SWAP2 SWAP1 PUSH4 0xFFFFFFFF AND JUMP JUMPDEST SWAP1 POP PUSH1 0x0 DUP6 SGT DUP1 ISZERO PUSH2 0x1B83 JUMPI POP DUP5 DUP2 SGT JUMPDEST ISZERO PUSH2 0x1B8B JUMPI POP DUP4 JUMPDEST DUP8 PUSH1 0x40 ADD MLOAD DUP2 SGT ISZERO PUSH2 0x1B9E JUMPI POP PUSH1 0x40 DUP8 ADD MLOAD JUMPDEST PUSH2 0x1BA7 DUP2 PUSH2 0x455 JUMP JUMPDEST DUP9 PUSH1 0xA0 ADD DUP2 DUP2 MSTORE POP POP PUSH2 0x1BE1 PUSH2 0x1BDA DUP10 PUSH1 0x40 ADD MLOAD PUSH2 0xA3D DUP6 PUSH2 0xA3D DUP9 PUSH2 0xA37 DUP15 PUSH1 0x80 ADD MLOAD DUP10 PUSH2 0xAD0 SWAP1 SWAP2 SWAP1 PUSH4 0xFFFFFFFF AND JUMP JUMPDEST DUP8 SWAP1 PUSH2 0x1B13 JUMP JUMPDEST SWAP9 SWAP8 POP POP POP POP POP POP POP POP JUMP JUMPDEST DUP1 DUP3 SUB DUP3 DUP2 SGT ISZERO PUSH1 0x0 DUP4 SLT ISZERO EQ PUSH2 0xB1E JUMPI PUSH1 0x0 DUP1 REVERT JUMPDEST PUSH1 0x0 PUSH2 0x561 DUP6 DUP6 DUP7 DUP7 DUP7 PUSH1 0x1 PUSH2 0xDAE JUMP JUMPDEST PUSH2 0x1C1C PUSH2 0x41F4 JUMP JUMPDEST PUSH1 0x0 PUSH2 0x1C27 DUP5 PUSH2 0x2763 JUMP JUMPDEST SWAP1 POP DUP3 DUP2 PUSH1 0x0 ADD MLOAD LT ISZERO PUSH2 0x1C66 JUMPI PUSH1 0x0 DUP1 PUSH2 0x1C41 DUP7 PUSH2 0x282B JUMP JUMPDEST SWAP1 POP PUSH2 0x1C4F DUP7 DUP5 DUP4 DUP9 PUSH2 0x28A8 JUMP JUMPDEST SWAP1 SWAP4 POP SWAP2 POP PUSH2 0x1C5F DUP7 DUP4 DUP6 PUSH2 0x294C JUMP JUMPDEST POP POP PUSH2 0x1C73 JUMP JUMPDEST DUP1 MLOAD DUP4 EQ PUSH2 0x1C73 JUMPI PUSH1 0x0 DUP1 REVERT JUMPDEST PUSH1 0x40 MLOAD DUP1 PUSH1 0x60 ADD PUSH1 0x40 MSTORE DUP1 PUSH2 0x1C9C PUSH2 0x14C4 DUP5 PUSH1 0xA0 ADD MLOAD DUP6 PUSH1 0xC0 ADD MLOAD PUSH2 0x2B80 SWAP1 SWAP2 SWAP1 PUSH4 0xFFFFFFFF AND JUMP JUMPDEST DUP2 MSTORE PUSH1 0x20 ADD PUSH2 0x1CBF PUSH2 0x14C4 DUP5 PUSH1 0xA0 ADD MLOAD DUP6 PUSH1 0xE0 ADD MLOAD PUSH2 0x2B80 SWAP1 SWAP2 SWAP1 PUSH4 0xFFFFFFFF AND JUMP JUMPDEST DUP2 MSTORE PUSH1 0x20 ADD DUP3 PUSH1 0x60 ADD MLOAD DUP2 MSTORE POP SWAP2 POP POP SWAP3 SWAP2 POP POP JUMP JUMPDEST PUSH1 0x0 DUP2 ISZERO DUP1 ISZERO SWAP1 PUSH2 0x1CE8 JUMPI POP PUSH2 0x3FFF DUP3 GT ISZERO JUMPDEST PUSH2 0x1CF1 JUMPI PUSH1 0x0 DUP1 REVERT JUMPDEST PUSH1 0x80 DUP4 ADD MLOAD PUSH1 0x60 DUP5 ADD MLOAD PUSH2 0xFFFF AND DUP4 EQ ISZERO PUSH2 0x1D10 JUMPI PUSH1 0x1 SWAP2 POP POP PUSH2 0xB1E JUMP JUMPDEST PUSH1 0x1 PUSH1 0x1 PUSH1 0x70 SHL SUB NOT DUP2 AND ISZERO PUSH2 0x1D55 JUMPI PUSH1 0xF0 DUP2 SWAP1 SHR PUSH2 0x3FFF AND DUP4 DUP2 EQ ISZERO PUSH2 0x1D42 JUMPI POP PUSH1 0x1 PUSH1 0xFE SHL SWAP1 DUP2 AND EQ SWAP1 POP PUSH2 0xB1E JUMP JUMPDEST POP PUSH1 0x10 SHL PUSH1 0x1 PUSH1 0x1 PUSH1 0x80 SHL SUB NOT AND PUSH2 0x1D10 JUMP JUMPDEST POP PUSH1 0x0 SWAP4 SWAP3 POP POP POP JUMP JUMPDEST PUSH1 0x0 DUP1 PUSH1 0x0 DUP1 PUSH1 0x0 PUSH2 0x1D6F PUSH2 0x2533 JUMP JUMPDEST PUSH1 0x1 PUSH1 0x1 PUSH1 0xA0 SHL SUB DUP10 AND PUSH1 0x0 SWAP1 DUP2 MSTORE PUSH1 0x20 DUP3 DUP2 MSTORE PUSH1 0x40 DUP1 DUP4 KECCAK256 PUSH2 0xFFFF DUP13 AND DUP5 MSTORE SWAP1 SWAP2 MSTORE SWAP1 KECCAK256 DUP1 SLOAD PUSH1 0x1 PUSH1 0x1 PUSH1 0x50 SHL SUB DUP2 AND SWAP7 POP PUSH1 0x1 PUSH1 0x50 SHL SWAP1 DIV PUSH4 0xFFFFFFFF AND SWAP5 POP SWAP1 SWAP2 POP DUP4 ISZERO PUSH2 0x1DDC JUMPI DUP1 SLOAD PUSH2 0x1DD5 SWAP1 PUSH1 0x1 PUSH1 0x70 SHL SWAP1 DIV PUSH7 0xFFFFFFFFFFFFFF AND PUSH2 0x2BA7 JUMP JUMPDEST SWAP3 POP PUSH2 0x1DF1 JUMP JUMPDEST DUP1 SLOAD PUSH1 0x1 PUSH1 0x70 SHL SWAP1 DIV PUSH7 0xFFFFFFFFFFFFFF AND SWAP3 POP JUMPDEST DUP1 SLOAD PUSH2 0x1E0C SWAP1 DUP9 SWAP1 PUSH1 0x1 PUSH1 0xA8 SHL SWAP1 DIV PUSH1 0xA SWAP1 DUP2 SIGNEXTEND SWAP1 SIGNEXTEND PUSH2 0x2BB5 JUMP JUMPDEST SWAP6 POP POP POP SWAP4 POP SWAP4 POP SWAP4 POP SWAP4 JUMP JUMPDEST PUSH1 0x0 DUP1 PUSH2 0x1283 DUP5 PUSH1 0x20 ADD MLOAD PUSH2 0xA3D DUP7 PUSH1 0x0 ADD MLOAD DUP7 PUSH2 0xAD0 SWAP1 SWAP2 SWAP1 PUSH4 0xFFFFFFFF AND JUMP JUMPDEST PUSH1 0x0 DUP2 DUP4 SLT PUSH2 0x1E4A JUMPI DUP2 PUSH2 0x141F JUMP JUMPDEST POP SWAP1 SWAP2 SWAP1 POP JUMP JUMPDEST PUSH1 0x0 DUP1 PUSH2 0xB1E PUSH1 0x7 PUSH2 0x1A47 JUMP JUMPDEST PUSH1 0x0 PUSH4 0x5F5E100 DUP4 PUSH1 0x40 ADD MLOAD EQ ISZERO PUSH2 0x1E77 JUMPI POP DUP1 PUSH2 0xB1E JUMP JUMPDEST PUSH2 0x141F PUSH4 0x5F5E100 PUSH2 0xA3D DUP6 PUSH1 0x40 ADD MLOAD DUP6 PUSH2 0xAD0 SWAP1 SWAP2 SWAP1 PUSH4 0xFFFFFFFF AND JUMP JUMPDEST PUSH1 0x0 DUP1 DUP3 SLT ISZERO PUSH2 0x1EA5 JUMPI PUSH1 0x0 DUP1 REVERT JUMPDEST POP SWAP1 JUMP JUMPDEST DUP1 ISZERO PUSH2 0x1F3B JUMPI PUSH20 0xC02AAA39B223FE8D0A0E5C4F27EAD9083C756CC2 PUSH1 0x1 PUSH1 0x1 PUSH1 0xA0 SHL SUB AND PUSH4 0xD0E30DB0 DUP4 PUSH1 0x40 MLOAD DUP3 PUSH4 0xFFFFFFFF AND PUSH1 0xE0 SHL DUP2 MSTORE PUSH1 0x4 ADD PUSH1 0x0 PUSH1 0x40 MLOAD DUP1 DUP4 SUB DUP2 DUP6 DUP9 DUP1 EXTCODESIZE ISZERO DUP1 ISZERO PUSH2 0x1EFE JUMPI PUSH1 0x0 DUP1 REVERT JUMPDEST POP GAS CALL ISZERO DUP1 ISZERO PUSH2 0x1F12 JUMPI RETURNDATASIZE PUSH1 0x0 DUP1 RETURNDATACOPY RETURNDATASIZE PUSH1 0x0 REVERT JUMPDEST POP POP POP POP POP PUSH2 0x1F36 PUSH20 0xC02AAA39B223FE8D0A0E5C4F27EAD9083C756CC2 DUP5 DUP5 PUSH2 0x2247 JUMP JUMPDEST PUSH2 0x1F71 JUMP JUMPDEST PUSH1 0x40 MLOAD PUSH1 0x1 PUSH1 0x1 PUSH1 0xA0 SHL SUB DUP5 AND SWAP1 DUP4 ISZERO PUSH2 0x8FC MUL SWAP1 DUP5 SWAP1 PUSH1 0x0 DUP2 DUP2 DUP2 DUP6 DUP9 DUP9 CALL SWAP4 POP POP POP POP ISZERO DUP1 ISZERO PUSH2 0x589 JUMPI RETURNDATASIZE PUSH1 0x0 DUP1 RETURNDATACOPY RETURNDATASIZE PUSH1 0x0 REVERT JUMPDEST POP POP POP JUMP JUMPDEST PUSH1 0x0 DUP1 DUP5 PUSH1 0x1 PUSH1 0x1 PUSH1 0xA0 SHL SUB AND PUSH4 0x70A08231 ADDRESS PUSH1 0x40 MLOAD DUP3 PUSH4 0xFFFFFFFF AND PUSH1 0xE0 SHL DUP2 MSTORE PUSH1 0x4 ADD DUP1 DUP3 PUSH1 0x1 PUSH1 0x1 PUSH1 0xA0 SHL SUB AND DUP2 MSTORE PUSH1 0x20 ADD SWAP2 POP POP PUSH1 0x20 PUSH1 0x40 MLOAD DUP1 DUP4 SUB DUP2 DUP7 DUP1 EXTCODESIZE ISZERO DUP1 ISZERO PUSH2 0x1FC6 JUMPI PUSH1 0x0 DUP1 REVERT JUMPDEST POP GAS STATICCALL ISZERO DUP1 ISZERO PUSH2 0x1FDA JUMPI RETURNDATASIZE PUSH1 0x0 DUP1 RETURNDATACOPY RETURNDATASIZE PUSH1 0x0 REVERT JUMPDEST POP POP POP POP PUSH1 0x40 MLOAD RETURNDATASIZE PUSH1 0x20 DUP2 LT ISZERO PUSH2 0x1FF0 JUMPI PUSH1 0x0 DUP1 REVERT JUMPDEST POP MLOAD PUSH1 0x40 DUP1 MLOAD PUSH4 0x23B872DD PUSH1 0xE0 SHL DUP2 MSTORE PUSH1 0x1 PUSH1 0x1 PUSH1 0xA0 SHL SUB DUP8 DUP2 AND PUSH1 0x4 DUP4 ADD MSTORE ADDRESS PUSH1 0x24 DUP4 ADD MSTORE PUSH1 0x44 DUP3 ADD DUP8 SWAP1 MSTORE SWAP2 MLOAD SWAP3 SWAP4 POP SWAP1 DUP8 AND SWAP2 PUSH4 0x23B872DD SWAP2 PUSH1 0x64 DUP1 DUP3 ADD SWAP3 PUSH1 0x0 SWAP3 SWAP1 SWAP2 SWAP1 DUP3 SWAP1 SUB ADD DUP2 DUP4 DUP8 DUP1 EXTCODESIZE ISZERO DUP1 ISZERO PUSH2 0x204D JUMPI PUSH1 0x0 DUP1 REVERT JUMPDEST POP GAS CALL ISZERO DUP1 ISZERO PUSH2 0x2061 JUMPI RETURNDATASIZE PUSH1 0x0 DUP1 RETURNDATACOPY RETURNDATASIZE PUSH1 0x0 REVERT JUMPDEST POP POP POP POP PUSH2 0x206D PUSH2 0x2BDC JUMP JUMPDEST PUSH1 0x0 DUP6 PUSH1 0x1 PUSH1 0x1 PUSH1 0xA0 SHL SUB AND PUSH4 0x70A08231 ADDRESS PUSH1 0x40 MLOAD DUP3 PUSH4 0xFFFFFFFF AND PUSH1 0xE0 SHL DUP2 MSTORE PUSH1 0x4 ADD DUP1 DUP3 PUSH1 0x1 PUSH1 0x1 PUSH1 0xA0 SHL SUB AND DUP2 MSTORE PUSH1 0x20 ADD SWAP2 POP POP PUSH1 0x20 PUSH1 0x40 MLOAD DUP1 DUP4 SUB DUP2 DUP7 DUP1 EXTCODESIZE ISZERO DUP1 ISZERO PUSH2 0x20BC JUMPI PUSH1 0x0 DUP1 REVERT JUMPDEST POP GAS STATICCALL ISZERO DUP1 ISZERO PUSH2 0x20D0 JUMPI RETURNDATASIZE PUSH1 0x0 DUP1 RETURNDATACOPY RETURNDATASIZE PUSH1 0x0 REVERT JUMPDEST POP POP POP POP PUSH1 0x40 MLOAD RETURNDATASIZE PUSH1 0x20 DUP2 LT ISZERO PUSH2 0x20E6 JUMPI PUSH1 0x0 DUP1 REVERT JUMPDEST POP MLOAD SWAP1 POP PUSH2 0x15BE DUP2 DUP4 PUSH2 0x2C49 JUMP JUMPDEST PUSH1 0x0 PUSH1 0x1 PUSH1 0x1 PUSH1 0xFF SHL SUB DUP3 GT ISZERO PUSH2 0x1EA5 JUMPI PUSH1 0x0 DUP1 REVERT JUMPDEST PUSH1 0x0 DUP1 PUSH2 0x2117 DUP5 DUP7 PUSH2 0x2C5E JUMP JUMPDEST SWAP1 POP PUSH2 0x2123 DUP4 DUP3 PUSH2 0x1243 JUMP JUMPDEST SWAP2 POP PUSH2 0x2130 DUP8 DUP8 DUP5 PUSH2 0x2C8E JUMP JUMPDEST PUSH2 0x213B DUP7 DUP4 DUP4 PUSH2 0x2D0E JUMP JUMPDEST DUP4 MLOAD PUSH2 0x2147 SWAP1 DUP7 PUSH2 0x2E1A JUMP JUMPDEST POP SWAP6 SWAP5 POP POP POP POP POP JUMP JUMPDEST PUSH1 0x0 PUSH2 0x215B PUSH2 0x2E6F JUMP JUMPDEST DUP4 MLOAD PUSH1 0x1 PUSH1 0x1 PUSH1 0xA0 SHL SUB AND PUSH1 0x0 SWAP1 DUP2 MSTORE PUSH1 0x20 DUP3 SWAP1 MSTORE PUSH1 0x40 SWAP1 KECCAK256 SLOAD SWAP1 SWAP2 POP DUP1 DUP4 GT PUSH2 0x2186 JUMPI POP POP PUSH2 0x1F71 JUMP JUMPDEST PUSH1 0x0 PUSH2 0x2191 DUP7 PUSH2 0x2E7C JUMP JUMPDEST SWAP1 POP PUSH1 0x0 DUP2 PUSH1 0x1 PUSH1 0x1 PUSH1 0xA0 SHL SUB AND PUSH4 0xB5E4DA23 DUP5 DUP8 SUB PUSH1 0x40 MLOAD DUP3 PUSH4 0xFFFFFFFF AND PUSH1 0xE0 SHL DUP2 MSTORE PUSH1 0x4 ADD PUSH2 0x21C3 SWAP2 SWAP1 PUSH2 0x4DBF JUMP JUMPDEST PUSH1 0x0 PUSH1 0x40 MLOAD DUP1 DUP4 SUB DUP2 DUP7 DUP1 EXTCODESIZE ISZERO DUP1 ISZERO PUSH2 0x21DB JUMPI PUSH1 0x0 DUP1 REVERT JUMPDEST POP GAS STATICCALL ISZERO DUP1 ISZERO PUSH2 0x21EF JUMPI RETURNDATASIZE PUSH1 0x0 DUP1 RETURNDATACOPY RETURNDATASIZE PUSH1 0x0 REVERT JUMPDEST POP POP POP POP PUSH1 0x40 MLOAD RETURNDATASIZE PUSH1 0x0 DUP3 RETURNDATACOPY PUSH1 0x1F RETURNDATASIZE SWAP1 DUP2 ADD PUSH1 0x1F NOT AND DUP3 ADD PUSH1 0x40 MSTORE PUSH2 0x2217 SWAP2 SWAP1 DUP2 ADD SWAP1 PUSH2 0x4928 JUMP JUMPDEST SWAP1 POP PUSH1 0x0 PUSH2 0x2225 DUP8 DUP4 PUSH2 0x2EAC JUMP JUMPDEST SWAP1 POP PUSH2 0x2231 DUP5 DUP3 PUSH2 0x30EF JUMP JUMPDEST DUP7 GT ISZERO PUSH2 0x223D JUMPI PUSH1 0x0 DUP1 REVERT JUMPDEST POP POP POP POP POP POP POP POP JUMP JUMPDEST DUP3 PUSH1 0x1 PUSH1 0x1 PUSH1 0xA0 SHL SUB AND PUSH4 0xA9059CBB DUP4 DUP4 PUSH1 0x40 MLOAD DUP4 PUSH4 0xFFFFFFFF AND PUSH1 0xE0 SHL DUP2 MSTORE PUSH1 0x4 ADD DUP1 DUP4 PUSH1 0x1 PUSH1 0x1 PUSH1 0xA0 SHL SUB AND DUP2 MSTORE PUSH1 0x20 ADD DUP3 DUP2 MSTORE PUSH1 0x20 ADD SWAP3 POP POP POP PUSH1 0x0 PUSH1 0x40 MLOAD DUP1 DUP4 SUB DUP2 PUSH1 0x0 DUP8 DUP1 EXTCODESIZE ISZERO DUP1 ISZERO PUSH2 0x229E JUMPI PUSH1 0x0 DUP1 REVERT JUMPDEST POP GAS CALL ISZERO DUP1 ISZERO PUSH2 0x22B2 JUMPI RETURNDATASIZE PUSH1 0x0 DUP1 RETURNDATACOPY RETURNDATASIZE PUSH1 0x0 REVERT JUMPDEST POP POP POP POP PUSH2 0x1F71 PUSH2 0x2BDC JUMP JUMPDEST PUSH1 0x0 DUP1 PUSH2 0x22C9 PUSH2 0x1516 JUMP JUMPDEST PUSH1 0x0 SWAP4 DUP5 MSTORE PUSH1 0x20 MSTORE POP POP PUSH1 0x40 SWAP1 KECCAK256 SLOAD PUSH1 0x1 PUSH1 0x1 PUSH1 0xA0 SHL SUB AND SWAP1 JUMP JUMPDEST PUSH1 0x0 DUP1 PUSH1 0x0 DUP1 PUSH2 0x22F2 PUSH2 0x3101 JUMP JUMPDEST PUSH1 0x1 PUSH1 0x1 PUSH1 0xA0 SHL SUB SWAP6 SWAP1 SWAP6 AND PUSH1 0x0 SWAP1 DUP2 MSTORE PUSH1 0x20 SWAP6 SWAP1 SWAP6 MSTORE POP POP PUSH1 0x40 SWAP1 SWAP3 KECCAK256 SLOAD PUSH1 0x1 PUSH1 0x1 PUSH1 0x60 SHL SUB DUP2 AND SWAP4 PUSH1 0x1 PUSH1 0x60 SHL DUP3 DIV PUSH1 0x1 PUSH1 0x1 PUSH1 0x80 SHL SUB AND SWAP4 POP PUSH1 0x1 PUSH1 0xE0 SHL SWAP1 SWAP2 DIV PUSH4 0xFFFFFFFF AND SWAP2 POP JUMP JUMPDEST PUSH1 0x0 DUP1 PUSH1 0x0 PUSH2 0x234F DUP7 DUP6 PUSH2 0x310E JUMP JUMPDEST POP SWAP2 POP SWAP2 POP PUSH1 0x0 PUSH2 0x235E PUSH2 0x3101 JUMP JUMPDEST PUSH1 0x1 PUSH1 0x1 PUSH1 0xA0 SHL SUB DUP9 AND PUSH1 0x0 SWAP1 DUP2 MSTORE PUSH1 0x20 DUP3 SWAP1 MSTORE PUSH1 0x40 DUP2 KECCAK256 SWAP2 SWAP3 POP PUSH2 0x2383 DUP6 DUP10 PUSH2 0x1306 JUMP JUMPDEST SWAP1 POP DUP1 PUSH1 0x0 SGT ISZERO DUP1 ISZERO PUSH2 0x239C JUMPI POP PUSH1 0x1 PUSH1 0x1 PUSH1 0x60 SHL SUB DUP2 LT JUMPDEST PUSH2 0x23A5 JUMPI PUSH1 0x0 DUP1 REVERT JUMPDEST DUP2 SLOAD PUSH12 0xFFFFFFFFFFFFFFFFFFFFFFFF NOT AND PUSH1 0x1 PUSH1 0x1 PUSH1 0x60 SHL SUB DUP3 AND OR PUSH16 0xFFFFFFFFFFFFFFFFFFFFFFFFFFFFFFFF PUSH1 0x60 SHL NOT AND PUSH1 0x1 PUSH1 0x60 SHL PUSH1 0x1 PUSH1 0x1 PUSH1 0x80 SHL SUB DUP7 AND MUL OR DUP3 SSTORE PUSH4 0xFFFFFFFF DUP8 LT PUSH2 0x23FA JUMPI PUSH1 0x0 DUP1 REVERT JUMPDEST POP DUP1 SLOAD PUSH4 0xFFFFFFFF DUP8 AND PUSH1 0x1 PUSH1 0xE0 SHL MUL PUSH1 0x1 PUSH1 0x1 PUSH1 0xE0 SHL SUB SWAP1 SWAP2 AND OR SWAP1 SSTORE POP SWAP2 POP POP SWAP4 SWAP3 POP POP POP JUMP JUMPDEST PUSH1 0x0 DUP5 PUSH1 0xE0 ADD MLOAD PUSH1 0x0 EQ PUSH2 0x2436 JUMPI PUSH1 0x0 DUP1 REVERT JUMPDEST PUSH2 0x2478 PUSH2 0x2471 DUP7 PUSH2 0x100 ADD MLOAD PUSH2 0x246B PUSH8 0xDE0B6B3A7640000 PUSH2 0x2465 DUP9 PUSH2 0x245F DUP13 PUSH1 0x40 ADD MLOAD PUSH2 0x1E96 JUMP JUMPDEST SWAP1 PUSH2 0x2B80 JUMP JUMPDEST SWAP1 PUSH2 0x31A4 JUMP JUMPDEST SWAP1 PUSH2 0x2C49 JUMP JUMPDEST DUP3 SWAP1 PUSH2 0x30EF JUMP JUMPDEST SWAP1 POP PUSH2 0x2490 PUSH8 0xDE0B6B3A7640000 PUSH2 0x2465 DUP5 DUP7 PUSH2 0x2B80 JUMP JUMPDEST DUP6 PUSH2 0x100 ADD DUP2 DUP2 MSTORE POP POP SWAP5 SWAP4 POP POP POP POP JUMP JUMPDEST PUSH1 0x0 DUP1 PUSH2 0x24AD PUSH2 0x31C3 JUMP JUMPDEST PUSH1 0x1 PUSH1 0x1 PUSH1 0xA0 SHL SUB DUP5 AND PUSH1 0x0 SWAP1 DUP2 MSTORE PUSH1 0x20 DUP3 SWAP1 MSTORE PUSH1 0x40 SWAP1 KECCAK256 DUP1 SLOAD SWAP2 SWAP3 POP SWAP1 PUSH1 0x1 PUSH1 0xF8 SHL SWAP1 DIV PUSH1 0xFF AND ISZERO PUSH2 0x2509 JUMPI PUSH2 0x24E2 PUSH2 0x31D0 JUMP JUMPDEST PUSH1 0x1 PUSH1 0x1 PUSH1 0xA0 SHL SUB DUP1 DUP7 AND PUSH1 0x0 SWAP1 DUP2 MSTORE PUSH1 0x20 SWAP3 SWAP1 SWAP3 MSTORE PUSH1 0x40 SWAP1 SWAP2 KECCAK256 SLOAD AND SWAP3 POP PUSH2 0x466 SWAP2 POP POP JUMP JUMPDEST PUSH1 0x0 SWAP3 POP POP POP PUSH2 0x466 JUMP JUMPDEST PUSH2 0x1A43 PUSH20 0xCFEAEAD4947F0705A14EC42AC3D44129E1EF3ED5 DUP4 DUP4 PUSH2 0x2247 JUMP JUMPDEST PUSH1 0x0 DUP1 PUSH2 0xB1E PUSH1 0x6 PUSH2 0x1A47 JUMP JUMPDEST PUSH1 0x0 PUSH4 0xFFFFFFFF DUP3 GT ISZERO PUSH2 0x1EA5 JUMPI PUSH1 0x0 DUP1 REVERT JUMPDEST PUSH1 0x0 PUSH1 0x1 PUSH1 0x1 PUSH1 0x50 SHL SUB DUP3 GT ISZERO PUSH2 0x1EA5 JUMPI PUSH1 0x0 DUP1 REVERT JUMPDEST PUSH1 0x0 PUSH2 0x2575 DUP7 DUP4 PUSH2 0x31DD JUMP JUMPDEST SWAP1 POP PUSH2 0x561 DUP7 DUP7 DUP7 PUSH2 0x2587 DUP8 DUP7 PUSH2 0x3216 JUMP JUMPDEST PUSH2 0x329D JUMP JUMPDEST PUSH1 0x0 PUSH11 0x7FFFFFFFFFFFFFFFFFFFFF NOT DUP3 SLT DUP1 ISZERO SWAP1 PUSH2 0x25B5 JUMPI POP PUSH11 0x7FFFFFFFFFFFFFFFFFFFFF DUP3 SGT ISZERO JUMPDEST PUSH2 0x1EA5 JUMPI PUSH1 0x0 DUP1 REVERT JUMPDEST PUSH1 0x0 DUP1 PUSH1 0x0 DUP1 PUSH1 0x0 PUSH2 0x25CE PUSH2 0x32CA JUMP JUMPDEST PUSH2 0xFFFF DUP8 AND PUSH1 0x0 SWAP1 DUP2 MSTORE PUSH1 0x20 SWAP2 SWAP1 SWAP2 MSTORE PUSH1 0x40 SWAP1 KECCAK256 PUSH1 0x1 DUP2 ADD SLOAD SWAP1 SWAP2 POP PUSH2 0x2600 SWAP1 PUSH1 0x1 PUSH1 0x58 SHL SWAP1 DIV PUSH4 0xFFFFFFFF AND PUSH2 0x2BA7 JUMP JUMPDEST PUSH1 0x1 DUP3 ADD SLOAD SWAP1 SWAP6 POP PUSH2 0x2624 SWAP1 PUSH1 0x64 SWAP1 PUSH2 0x2465 SWAP1 DUP9 SWAP1 PUSH1 0x1 PUSH1 0x78 SHL SWAP1 DIV PUSH1 0xFF AND PUSH2 0x2B80 JUMP JUMPDEST DUP2 SLOAD SWAP1 SWAP4 POP PUSH1 0x1 PUSH1 0x28 SHL SWAP1 DIV PUSH1 0x1 PUSH1 0x1 PUSH1 0x58 SHL SUB AND PUSH2 0x264B PUSH2 0x2646 DUP10 DUP4 PUSH2 0x13B6 JUMP JUMPDEST PUSH2 0x1E96 JUMP JUMPDEST PUSH1 0x1 DUP4 ADD SLOAD SWAP1 SWAP6 POP PUSH1 0x1 PUSH1 0x1 PUSH1 0x58 SHL SUB AND PUSH1 0x0 SUB PUSH2 0x2674 PUSH2 0x2646 PUSH2 0x266F DUP12 DUP5 PUSH2 0x32D7 JUMP JUMPDEST PUSH2 0x455 JUMP JUMPDEST SWAP4 POP POP POP POP SWAP3 SWAP6 SWAP2 SWAP5 POP SWAP3 POP JUMP JUMPDEST PUSH1 0x0 DUP1 PUSH2 0x26B3 PUSH2 0x26A3 PUSH2 0x2698 DUP6 PUSH1 0x20 ADD MLOAD PUSH2 0x455 JUMP JUMPDEST PUSH1 0xE0 DUP7 ADD MLOAD SWAP1 PUSH2 0x1E19 JUMP JUMPDEST PUSH2 0x120 DUP6 ADD MLOAD PUSH1 0x40 ADD MLOAD SWAP1 PUSH2 0x1243 JUMP JUMPDEST SWAP2 POP PUSH2 0x26CF DUP4 PUSH1 0xE0 ADD MLOAD PUSH1 0x80 ADD MLOAD DUP5 PUSH1 0xC0 ADD MLOAD PUSH1 0x80 ADD MLOAD PUSH2 0x3322 JUMP JUMPDEST SWAP1 POP SWAP2 POP SWAP2 JUMP JUMPDEST PUSH1 0x0 DUP1 PUSH1 0x0 PUSH2 0x2709 DUP7 PUSH2 0xA3D PUSH2 0x26F4 DUP11 PUSH1 0xC0 ADD MLOAD DUP12 PUSH1 0xE0 ADD MLOAD PUSH2 0x3331 JUMP JUMPDEST PUSH1 0xC0 DUP12 ADD MLOAD MLOAD PUSH2 0xA3D SWAP1 PUSH2 0xA37 DUP12 PUSH1 0x64 PUSH2 0xAD0 JUMP JUMPDEST SWAP1 POP PUSH1 0x0 PUSH2 0x2725 DUP3 DUP10 PUSH2 0x100 ADD MLOAD PUSH2 0x1243 SWAP1 SWAP2 SWAP1 PUSH4 0xFFFFFFFF AND JUMP JUMPDEST SWAP1 POP PUSH1 0x0 PUSH2 0x2736 DUP10 PUSH1 0x40 ADD MLOAD PUSH2 0x455 JUMP JUMPDEST SWAP1 POP DUP1 DUP3 SGT ISZERO PUSH2 0x2754 JUMPI PUSH2 0x274E DUP3 PUSH2 0xA3D DUP9 DUP5 PUSH2 0xAD0 JUMP JUMPDEST SWAP6 POP DUP1 SWAP2 POP JUMPDEST POP SWAP4 SWAP8 SWAP4 SWAP7 POP SWAP3 SWAP5 POP POP POP POP POP JUMP JUMPDEST PUSH2 0x276B PUSH2 0x4215 JUMP JUMPDEST PUSH1 0x0 PUSH2 0x2775 PUSH2 0x32CA JUMP JUMPDEST PUSH2 0xFFFF SWAP4 DUP5 AND PUSH1 0x0 SWAP1 DUP2 MSTORE PUSH1 0x20 SWAP2 DUP3 MSTORE PUSH1 0x40 SWAP1 DUP2 SWAP1 KECCAK256 DUP1 SLOAD PUSH5 0xFFFFFFFFFF DUP2 AND DUP7 MSTORE PUSH1 0x1 PUSH1 0x28 SHL DUP2 DIV PUSH1 0x1 PUSH1 0x1 PUSH1 0x58 SHL SUB SWAP1 DUP2 AND SWAP5 DUP8 ADD SWAP5 SWAP1 SWAP5 MSTORE PUSH1 0x1 DUP3 ADD SLOAD DUP5 AND SWAP3 DUP7 ADD SWAP3 SWAP1 SWAP3 MSTORE PUSH1 0x1 PUSH1 0xD8 SHL DUP3 DIV PUSH4 0xFFFFFFFF AND PUSH1 0x60 DUP7 ADD MSTORE PUSH1 0x1 PUSH1 0x80 SHL SWAP1 SWAP2 DIV SWAP1 SWAP2 AND PUSH1 0x80 DUP5 ADD MSTORE PUSH1 0x2 ADD SLOAD PUSH1 0x1 PUSH1 0x1 PUSH1 0x50 SHL SUB DUP1 DUP3 AND PUSH1 0xA0 DUP6 ADD MSTORE PUSH1 0x1 PUSH1 0x50 SHL DUP3 DIV DUP2 AND PUSH1 0xC0 DUP6 ADD MSTORE PUSH1 0x1 PUSH1 0xA0 SHL DUP3 DIV AND PUSH1 0xE0 DUP5 ADD MSTORE PUSH1 0x1 PUSH1 0xF0 SHL SWAP1 DIV PUSH1 0xFF AND PUSH2 0x12C MUL SWAP1 SWAP3 AND PUSH2 0x100 DUP3 ADD MSTORE SWAP2 SWAP1 POP JUMP JUMPDEST PUSH1 0x0 DUP1 PUSH2 0x2837 DUP4 PUSH2 0x2E7C JUMP JUMPDEST PUSH1 0x1 PUSH1 0x1 PUSH1 0xA0 SHL SUB AND PUSH4 0xEF81F216 PUSH1 0x40 MLOAD DUP2 PUSH4 0xFFFFFFFF AND PUSH1 0xE0 SHL DUP2 MSTORE PUSH1 0x4 ADD PUSH1 0x40 DUP1 MLOAD DUP1 DUP4 SUB DUP2 PUSH1 0x0 DUP8 DUP1 EXTCODESIZE ISZERO DUP1 ISZERO PUSH2 0x2870 JUMPI PUSH1 0x0 DUP1 REVERT JUMPDEST POP GAS CALL ISZERO DUP1 ISZERO PUSH2 0x2884 JUMPI RETURNDATASIZE PUSH1 0x0 DUP1 RETURNDATACOPY RETURNDATASIZE PUSH1 0x0 REVERT JUMPDEST POP POP POP POP PUSH1 0x40 MLOAD RETURNDATASIZE PUSH1 0x1F NOT PUSH1 0x1F DUP3 ADD AND DUP3 ADD DUP1 PUSH1 0x40 MSTORE POP DUP2 ADD SWAP1 PUSH2 0x1283 SWAP2 SWAP1 PUSH2 0x4B51 JUMP JUMPDEST PUSH2 0x28B0 PUSH2 0x4215 JUMP JUMPDEST PUSH1 0x0 DUP1 PUSH1 0x0 PUSH2 0x28C0 DUP9 DUP7 DUP10 PUSH2 0x3356 JUMP JUMPDEST PUSH1 0xC0 DUP12 ADD SWAP3 SWAP1 SWAP3 MSTORE PUSH1 0xE0 DUP11 ADD SWAP3 SWAP1 SWAP3 MSTORE PUSH1 0x20 DUP10 ADD MLOAD SWAP2 SWAP4 POP SWAP2 POP PUSH2 0x28E4 SWAP1 DUP4 PUSH2 0x30EF JUMP JUMPDEST PUSH1 0x20 DUP9 ADD MSTORE PUSH1 0x80 DUP8 ADD MLOAD PUSH1 0x0 SWAP1 ISZERO PUSH2 0x2912 JUMPI PUSH1 0x80 DUP9 ADD MLOAD PUSH2 0x290F SWAP1 PUSH2 0x2909 DUP10 DUP3 PUSH2 0x2C49 JUMP JUMPDEST SWAP1 PUSH2 0x3461 JUMP JUMPDEST SWAP1 POP JUMPDEST PUSH2 0x2932 PUSH2 0x2927 PUSH8 0xDE0B6B3A7640000 DUP4 PUSH2 0x30EF JUMP JUMPDEST PUSH1 0xA0 DUP11 ADD MLOAD SWAP1 PUSH2 0x347E JUMP JUMPDEST PUSH1 0xA0 DUP10 ADD MSTORE POP POP PUSH1 0x80 DUP7 ADD SWAP5 SWAP1 SWAP5 MSTORE POP POP DUP3 MSTORE SWAP1 SWAP3 SWAP1 SWAP2 POP JUMP JUMPDEST PUSH1 0x0 PUSH2 0x2956 PUSH2 0x32CA JUMP JUMPDEST PUSH1 0x0 DUP6 PUSH2 0xFFFF AND DUP2 MSTORE PUSH1 0x20 ADD SWAP1 DUP2 MSTORE PUSH1 0x20 ADD PUSH1 0x0 KECCAK256 SWAP1 POP PUSH2 0x297A DUP3 PUSH1 0x0 ADD MLOAD PUSH2 0x349B JUMP JUMPDEST DUP2 SLOAD PUSH5 0xFFFFFFFFFF NOT AND PUSH5 0xFFFFFFFFFF SWAP2 SWAP1 SWAP2 AND OR DUP2 SSTORE PUSH1 0xA0 DUP3 ADD MLOAD PUSH2 0x299F SWAP1 PUSH2 0x2553 JUMP JUMPDEST PUSH1 0x2 DUP3 ADD DUP1 SLOAD PUSH10 0xFFFFFFFFFFFFFFFFFFFF NOT AND PUSH1 0x1 PUSH1 0x1 PUSH1 0x50 SHL SUB SWAP3 SWAP1 SWAP3 AND SWAP2 SWAP1 SWAP2 OR SWAP1 SSTORE PUSH1 0xC0 DUP3 ADD MLOAD PUSH2 0x29D2 SWAP1 PUSH2 0x2553 JUMP JUMPDEST DUP2 PUSH1 0x2 ADD PUSH1 0xA PUSH2 0x100 EXP DUP2 SLOAD DUP2 PUSH1 0x1 PUSH1 0x1 PUSH1 0x50 SHL SUB MUL NOT AND SWAP1 DUP4 PUSH1 0x1 PUSH1 0x1 PUSH1 0x50 SHL SUB AND MUL OR SWAP1 SSTORE POP PUSH2 0x2A07 DUP3 PUSH1 0xE0 ADD MLOAD PUSH2 0x2553 JUMP JUMPDEST DUP2 PUSH1 0x2 ADD PUSH1 0x14 PUSH2 0x100 EXP DUP2 SLOAD DUP2 PUSH1 0x1 PUSH1 0x1 PUSH1 0x50 SHL SUB MUL NOT AND SWAP1 DUP4 PUSH1 0x1 PUSH1 0x1 PUSH1 0x50 SHL SUB AND MUL OR SWAP1 SSTORE POP PUSH2 0x2A3C DUP3 PUSH1 0x20 ADD MLOAD PUSH2 0x34AF JUMP JUMPDEST DUP2 SLOAD PUSH1 0x1 PUSH1 0x1 PUSH1 0x58 SHL SUB SWAP2 SWAP1 SWAP2 AND PUSH1 0x1 PUSH1 0x28 SHL MUL PUSH16 0xFFFFFFFFFFFFFFFFFFFFFF0000000000 NOT SWAP1 SWAP2 AND OR DUP2 SSTORE PUSH1 0x40 DUP3 ADD MLOAD PUSH2 0x2A76 SWAP1 PUSH2 0x34AF JUMP JUMPDEST PUSH1 0x1 DUP3 ADD DUP1 SLOAD PUSH11 0xFFFFFFFFFFFFFFFFFFFFFF NOT AND PUSH1 0x1 PUSH1 0x1 PUSH1 0x58 SHL SUB SWAP3 SWAP1 SWAP3 AND SWAP2 SWAP1 SWAP2 OR SWAP1 SSTORE PUSH1 0x80 DUP3 ADD MLOAD PUSH2 0x2AAA SWAP1 PUSH2 0x34AF JUMP JUMPDEST DUP2 SLOAD PUSH1 0x1 PUSH1 0x1 PUSH1 0x58 SHL SUB SWAP2 SWAP1 SWAP2 AND PUSH1 0x1 PUSH1 0x80 SHL MUL PUSH11 0xFFFFFFFFFFFFFFFFFFFFFF PUSH1 0x80 SHL NOT SWAP1 SWAP2 AND OR DUP2 SSTORE PUSH1 0x60 DUP3 ADD MLOAD PUSH2 0x2AE2 SWAP1 PUSH2 0x2540 JUMP JUMPDEST DUP2 SLOAD PUSH4 0xFFFFFFFF SWAP2 SWAP1 SWAP2 AND PUSH1 0x1 PUSH1 0xD8 SHL MUL PUSH4 0xFFFFFFFF PUSH1 0xD8 SHL NOT SWAP1 SWAP2 AND OR DUP2 SSTORE DUP3 ISZERO PUSH2 0x2B2E JUMPI PUSH1 0x0 PUSH2 0x2B13 DUP5 PUSH2 0x20F4 JUMP JUMPDEST SWAP1 POP PUSH2 0x2B1F DUP6 DUP3 PUSH2 0x34C5 JUMP JUMPDEST PUSH2 0x2B2C PUSH2 0xFEE DUP7 DUP4 PUSH2 0x2C8E JUMP JUMPDEST POP JUMPDEST DUP4 PUSH2 0xFFFF AND PUSH32 0xEF25641E225E493886510CA1AD6584FA7B442B9FEA820A29D1DE3CE27D270FD2 DUP4 PUSH1 0xA0 ADD MLOAD DUP5 PUSH1 0xC0 ADD MLOAD DUP6 PUSH1 0xE0 ADD MLOAD PUSH1 0x40 MLOAD PUSH2 0x2B72 SWAP4 SWAP3 SWAP2 SWAP1 PUSH2 0x4C2A JUMP JUMPDEST PUSH1 0x40 MLOAD DUP1 SWAP2 SUB SWAP1 LOG2 POP POP POP POP JUMP JUMPDEST PUSH1 0x0 DUP3 PUSH2 0x2B8F JUMPI POP PUSH1 0x0 PUSH2 0xB1E JUMP JUMPDEST DUP3 DUP3 MUL DUP3 DUP5 DUP3 DUP2 PUSH2 0x2B9C JUMPI INVALID JUMPDEST DIV EQ PUSH2 0x141F JUMPI PUSH1 0x0 DUP1 REVERT JUMPDEST PUSH1 0x8 DUP2 SWAP1 SHR PUSH1 0xFF SWAP1 SWAP2 AND SHL SWAP1 JUMP JUMPDEST PUSH1 0x0 DUP1 DUP3 SLT PUSH2 0x2BC5 JUMPI POP DUP1 PUSH2 0xB1E JUMP JUMPDEST DUP3 MLOAD PUSH1 0x20 DUP5 ADD MLOAD PUSH2 0x1404 SWAP2 SWAP1 PUSH2 0xA3D SWAP1 DUP6 SWAP1 PUSH2 0xAD0 JUMP JUMPDEST PUSH1 0x0 PUSH2 0x2BE6 PUSH2 0x4261 JUMP JUMPDEST RETURNDATASIZE DUP1 ISZERO PUSH2 0x2BFA JUMPI PUSH1 0x20 DUP2 EQ PUSH2 0x2C03 JUMPI PUSH1 0x0 DUP1 REVERT JUMPDEST PUSH1 0x1 SWAP3 POP PUSH2 0x2C0E JUMP JUMPDEST PUSH1 0x20 PUSH1 0x0 DUP4 RETURNDATACOPY DUP2 MLOAD SWAP3 POP JUMPDEST POP DUP2 PUSH2 0x1A43 JUMPI PUSH1 0x40 DUP1 MLOAD PUSH3 0x461BCD PUSH1 0xE5 SHL DUP2 MSTORE PUSH1 0x20 PUSH1 0x4 DUP3 ADD MSTORE PUSH1 0x5 PUSH1 0x24 DUP3 ADD MSTORE PUSH5 0x455243323 PUSH1 0xDC SHL PUSH1 0x44 DUP3 ADD MSTORE SWAP1 MLOAD SWAP1 DUP2 SWAP1 SUB PUSH1 0x64 ADD SWAP1 REVERT JUMPDEST PUSH1 0x0 DUP3 DUP3 GT ISZERO PUSH2 0x2C58 JUMPI PUSH1 0x0 DUP1 REVERT JUMPDEST POP SWAP1 SUB SWAP1 JUMP JUMPDEST PUSH1 0x0 PUSH4 0x5F5E100 DUP4 PUSH1 0x40 ADD MLOAD EQ ISZERO PUSH2 0x2C77 JUMPI POP DUP1 PUSH2 0xB1E JUMP JUMPDEST PUSH1 0x40 DUP4 ADD MLOAD PUSH2 0x141F SWAP1 PUSH2 0xA3D DUP5 PUSH4 0x5F5E100 PUSH2 0xAD0 JUMP JUMPDEST PUSH1 0x0 PUSH2 0x2C98 PUSH2 0x14E8 JUMP JUMPDEST PUSH2 0xFFFF DUP5 AND PUSH1 0x0 SWAP1 DUP2 MSTORE PUSH1 0x20 SWAP2 SWAP1 SWAP2 MSTORE PUSH1 0x40 SWAP1 DUP2 SWAP1 KECCAK256 SLOAD SWAP1 MLOAD PUSH4 0xAD1C095D PUSH1 0xE0 SHL DUP2 MSTORE PUSH1 0x1 PUSH1 0x1 PUSH1 0xA0 SHL SUB SWAP1 SWAP2 AND SWAP2 POP DUP2 SWAP1 PUSH4 0xAD1C095D SWAP1 PUSH2 0x2CE0 SWAP1 DUP8 SWAP1 DUP7 SWAP1 PUSH1 0x4 ADD PUSH2 0x4BAC JUMP JUMPDEST PUSH1 0x0 PUSH1 0x40 MLOAD DUP1 DUP4 SUB DUP2 PUSH1 0x0 DUP8 DUP1 EXTCODESIZE ISZERO DUP1 ISZERO PUSH2 0x2CFA JUMPI PUSH1 0x0 DUP1 REVERT JUMPDEST POP GAS CALL ISZERO DUP1 ISZERO PUSH2 0x223D JUMPI RETURNDATASIZE PUSH1 0x0 DUP1 RETURNDATACOPY RETURNDATASIZE PUSH1 0x0 REVERT JUMPDEST PUSH1 0x0 PUSH2 0x2D18 PUSH2 0x32CA JUMP JUMPDEST PUSH2 0xFFFF DUP6 AND PUSH1 0x0 SWAP1 DUP2 MSTORE PUSH1 0x20 SWAP2 SWAP1 SWAP2 MSTORE PUSH1 0x40 SWAP1 KECCAK256 DUP1 SLOAD SWAP1 SWAP2 POP PUSH5 0xFFFFFFFFFF AND TIMESTAMP EQ PUSH2 0x2D43 JUMPI PUSH1 0x0 DUP1 REVERT JUMPDEST DUP1 SLOAD PUSH1 0x0 SWAP1 PUSH2 0x2D62 SWAP1 PUSH1 0x1 PUSH1 0x28 SHL SWAP1 DIV PUSH1 0x1 PUSH1 0x1 PUSH1 0x58 SHL SUB AND DUP6 PUSH2 0x1306 JUMP JUMPDEST DUP3 SLOAD SWAP1 SWAP2 POP PUSH1 0x0 SWAP1 PUSH2 0x2D84 SWAP1 PUSH1 0x1 PUSH1 0x80 SHL SWAP1 DIV PUSH1 0x1 PUSH1 0x1 PUSH1 0x58 SHL SUB AND DUP6 PUSH2 0x1306 JUMP JUMPDEST SWAP1 POP DUP1 PUSH3 0x4C4B40 SGT ISZERO PUSH2 0x2D96 JUMPI PUSH1 0x0 DUP1 REVERT JUMPDEST PUSH2 0x2DA7 PUSH2 0x2DA2 DUP3 PUSH2 0x1E96 JUMP JUMPDEST PUSH2 0x34AF JUMP JUMPDEST DUP4 SLOAD PUSH1 0x1 PUSH1 0x1 PUSH1 0x58 SHL SUB SWAP2 SWAP1 SWAP2 AND PUSH1 0x1 PUSH1 0x80 SHL MUL PUSH11 0xFFFFFFFFFFFFFFFFFFFFFF PUSH1 0x80 SHL NOT SWAP1 SWAP2 AND OR DUP4 SSTORE PUSH2 0x2DDD PUSH2 0x2DA2 DUP4 PUSH2 0x1E96 JUMP JUMPDEST DUP4 SLOAD PUSH1 0x1 PUSH1 0x1 PUSH1 0x58 SHL SUB SWAP2 SWAP1 SWAP2 AND PUSH1 0x1 PUSH1 0x28 SHL MUL PUSH16 0xFFFFFFFFFFFFFFFFFFFFFF0000000000 NOT SWAP1 SWAP2 AND OR DUP4 SSTORE PUSH2 0x2E12 DUP4 PUSH2 0x34FC JUMP JUMPDEST POP POP POP POP POP POP JUMP JUMPDEST PUSH1 0x0 PUSH2 0x2E24 PUSH2 0x2E6F JUMP JUMPDEST PUSH1 0x1 PUSH1 0x1 PUSH1 0xA0 SHL SUB DUP5 AND PUSH1 0x0 SWAP1 DUP2 MSTORE PUSH1 0x20 DUP3 SWAP1 MSTORE PUSH1 0x40 SWAP1 KECCAK256 SLOAD SWAP1 SWAP2 POP PUSH2 0x2E4D PUSH2 0x2646 DUP3 DUP6 PUSH2 0x1306 JUMP JUMPDEST PUSH1 0x1 PUSH1 0x1 PUSH1 0xA0 SHL SUB SWAP1 SWAP5 AND PUSH1 0x0 SWAP1 DUP2 MSTORE PUSH1 0x20 SWAP3 SWAP1 SWAP3 MSTORE POP PUSH1 0x40 SWAP1 KECCAK256 SWAP2 SWAP1 SWAP2 SSTORE POP JUMP JUMPDEST PUSH1 0x0 DUP1 PUSH2 0xB1E PUSH1 0x26 PUSH2 0x1A47 JUMP JUMPDEST PUSH1 0x0 DUP1 PUSH2 0x2E87 PUSH2 0x35C1 JUMP JUMPDEST PUSH2 0xFFFF SWAP4 SWAP1 SWAP4 AND PUSH1 0x0 SWAP1 DUP2 MSTORE PUSH1 0x20 SWAP4 SWAP1 SWAP4 MSTORE POP POP PUSH1 0x40 SWAP1 KECCAK256 SLOAD PUSH1 0x1 PUSH1 0x1 PUSH1 0xA0 SHL SUB AND SWAP1 JUMP JUMPDEST PUSH1 0x0 DUP1 JUMPDEST DUP3 MLOAD DUP2 LT ISZERO PUSH2 0x30E8 JUMPI PUSH1 0x0 DUP4 DUP3 DUP2 MLOAD DUP2 LT PUSH2 0x2EC7 JUMPI INVALID JUMPDEST PUSH1 0x20 MUL PUSH1 0x20 ADD ADD MLOAD SWAP1 POP PUSH1 0x0 DUP2 PUSH1 0x60 ADD MLOAD PUSH1 0x1 PUSH1 0x1 PUSH1 0xA0 SHL SUB AND PUSH4 0x70A08231 ADDRESS PUSH1 0x40 MLOAD DUP3 PUSH4 0xFFFFFFFF AND PUSH1 0xE0 SHL DUP2 MSTORE PUSH1 0x4 ADD PUSH2 0x2F03 SWAP2 SWAP1 PUSH2 0x4B74 JUMP JUMPDEST PUSH1 0x20 PUSH1 0x40 MLOAD DUP1 DUP4 SUB DUP2 DUP7 DUP1 EXTCODESIZE ISZERO DUP1 ISZERO PUSH2 0x2F1B JUMPI PUSH1 0x0 DUP1 REVERT JUMPDEST POP GAS STATICCALL ISZERO DUP1 ISZERO PUSH2 0x2F2F JUMPI RETURNDATASIZE PUSH1 0x0 DUP1 RETURNDATACOPY RETURNDATASIZE PUSH1 0x0 REVERT JUMPDEST POP POP POP POP PUSH1 0x40 MLOAD RETURNDATASIZE PUSH1 0x1F NOT PUSH1 0x1F DUP3 ADD AND DUP3 ADD DUP1 PUSH1 0x40 MSTORE POP DUP2 ADD SWAP1 PUSH2 0x2F53 SWAP2 SWAP1 PUSH2 0x4B39 JUMP JUMPDEST SWAP1 POP PUSH1 0x0 PUSH2 0x2F61 DUP8 ADDRESS PUSH2 0x35CE JUMP JUMPDEST SWAP1 POP PUSH1 0x0 JUMPDEST DUP4 MLOAD MLOAD DUP2 LT ISZERO PUSH2 0x2FB2 JUMPI PUSH2 0x2FAA DUP5 PUSH1 0x0 ADD MLOAD DUP3 DUP2 MLOAD DUP2 LT PUSH2 0x2F83 JUMPI INVALID JUMPDEST PUSH1 0x20 MUL PUSH1 0x20 ADD ADD MLOAD PUSH1 0x0 DUP7 PUSH1 0x20 ADD MLOAD DUP5 DUP2 MLOAD DUP2 LT PUSH2 0x2F9D JUMPI INVALID JUMPDEST PUSH1 0x20 MUL PUSH1 0x20 ADD ADD MLOAD PUSH2 0x3678 JUMP JUMPDEST PUSH1 0x1 ADD PUSH2 0x2F66 JUMP JUMPDEST POP PUSH1 0x0 PUSH2 0x2FBF DUP9 ADDRESS PUSH2 0x35CE JUMP JUMPDEST SWAP1 POP PUSH1 0x0 PUSH2 0x2FCD DUP3 DUP5 PUSH2 0x2C49 JUMP JUMPDEST SWAP1 POP DUP1 DUP6 PUSH1 0x40 ADD MLOAD GT ISZERO PUSH2 0x2FE0 JUMPI PUSH1 0x0 DUP1 REVERT JUMPDEST PUSH1 0x60 DUP6 ADD MLOAD PUSH1 0x40 MLOAD PUSH4 0x70A08231 PUSH1 0xE0 SHL DUP2 MSTORE PUSH1 0x0 SWAP2 PUSH1 0x1 PUSH1 0x1 PUSH1 0xA0 SHL SUB AND SWAP1 PUSH4 0x70A08231 SWAP1 PUSH2 0x3013 SWAP1 ADDRESS SWAP1 PUSH1 0x4 ADD PUSH2 0x4B74 JUMP JUMPDEST PUSH1 0x20 PUSH1 0x40 MLOAD DUP1 DUP4 SUB DUP2 DUP7 DUP1 EXTCODESIZE ISZERO DUP1 ISZERO PUSH2 0x302B JUMPI PUSH1 0x0 DUP1 REVERT JUMPDEST POP GAS STATICCALL ISZERO DUP1 ISZERO PUSH2 0x303F JUMPI RETURNDATASIZE PUSH1 0x0 DUP1 RETURNDATACOPY RETURNDATASIZE PUSH1 0x0 REVERT JUMPDEST POP POP POP POP PUSH1 0x40 MLOAD RETURNDATASIZE PUSH1 0x1F NOT PUSH1 0x1F DUP3 ADD AND DUP3 ADD DUP1 PUSH1 0x40 MSTORE POP DUP2 ADD SWAP1 PUSH2 0x3063 SWAP2 SWAP1 PUSH2 0x4B39 JUMP JUMPDEST SWAP1 POP DUP5 DUP2 GT ISZERO PUSH2 0x3072 JUMPI PUSH1 0x0 DUP1 REVERT JUMPDEST PUSH1 0x80 DUP7 ADD MLOAD PUSH1 0xFF AND ISZERO DUP1 ISZERO SWAP1 PUSH2 0x3091 JUMPI POP PUSH2 0x308D DUP6 DUP3 PUSH2 0x2C49 JUMP JUMPDEST DUP3 EQ ISZERO JUMPDEST ISZERO PUSH2 0x30AC JUMPI PUSH1 0x80 DUP7 ADD MLOAD PUSH2 0x30A9 SWAP1 DUP3 SWAP1 PUSH1 0xFF AND PUSH2 0x30EF JUMP JUMPDEST SWAP1 POP JUMPDEST PUSH2 0x30BB DUP7 PUSH1 0x60 ADD MLOAD DUP7 DUP4 PUSH2 0x37B5 JUMP JUMPDEST PUSH2 0x30C5 DUP9 DUP4 PUSH2 0x30EF JUMP JUMPDEST SWAP8 POP PUSH2 0x30D6 DUP11 PUSH1 0x0 ADD MLOAD DUP6 DUP6 PUSH2 0x37B5 JUMP JUMPDEST POP POP PUSH1 0x1 SWAP1 SWAP5 ADD SWAP4 POP PUSH2 0x2EB0 SWAP3 POP POP POP JUMP JUMPDEST POP SWAP3 SWAP2 POP POP JUMP JUMPDEST PUSH1 0x0 DUP3 DUP3 ADD DUP4 DUP2 LT ISZERO PUSH2 0x141F JUMPI PUSH1 0x0 DUP1 REVERT JUMPDEST PUSH1 0x0 DUP1 PUSH2 0xB1E PUSH1 0x11 PUSH2 0x1A47 JUMP JUMPDEST PUSH1 0x0 DUP1 PUSH1 0x0 PUSH2 0x311C DUP6 PUSH2 0x22E4 JUMP JUMPDEST SWAP2 SWAP5 POP SWAP3 POP SWAP1 POP DUP1 DUP5 GT DUP1 ISZERO PUSH2 0x3132 JUMPI POP PUSH1 0x0 DUP2 GT JUMPDEST DUP1 ISZERO PUSH2 0x313E JUMPI POP PUSH1 0x0 DUP4 GT JUMPDEST ISZERO PUSH2 0x319D JUMPI PUSH1 0x0 PUSH2 0x314E DUP7 PUSH2 0x3832 JUMP JUMPDEST POP POP POP SWAP2 POP POP PUSH1 0x0 PUSH2 0x3179 PUSH2 0x3170 PUSH4 0x5F5E100 DUP5 PUSH2 0x2B80 SWAP1 SWAP2 SWAP1 PUSH4 0xFFFFFFFF AND JUMP JUMPDEST DUP5 DUP9 SUB DUP8 PUSH2 0x389B JUMP JUMPDEST SWAP1 POP PUSH2 0x3185 DUP5 DUP3 PUSH2 0x30EF JUMP JUMPDEST SWAP4 POP PUSH1 0x1 PUSH1 0x1 PUSH1 0x80 SHL SUB DUP5 LT PUSH2 0x319A JUMPI PUSH1 0x0 DUP1 REVERT JUMPDEST POP POP JUMPDEST SWAP3 POP SWAP3 POP SWAP3 JUMP JUMPDEST PUSH1 0x0 DUP1 DUP3 GT PUSH2 0x31B2 JUMPI PUSH1 0x0 DUP1 REVERT JUMPDEST DUP2 DUP4 DUP2 PUSH2 0x31BB JUMPI INVALID JUMPDEST DIV SWAP4 SWAP3 POP POP POP JUMP JUMPDEST PUSH1 0x0 DUP1 PUSH2 0xB1E PUSH1 0x2 PUSH2 0x1A47 JUMP JUMPDEST PUSH1 0x0 DUP1 PUSH2 0xB1E PUSH1 0x12 PUSH2 0x1A47 JUMP JUMPDEST PUSH1 0x0 DUP1 DUP3 SLT ISZERO PUSH2 0x3210 JUMPI PUSH2 0x320B PUSH1 0x1 PUSH2 0x1AA1 DUP6 PUSH1 0x20 ADD MLOAD PUSH2 0xA3D DUP8 PUSH1 0x0 ADD MLOAD DUP8 PUSH2 0xAD0 SWAP1 SWAP2 SWAP1 PUSH4 0xFFFFFFFF AND JUMP JUMPDEST PUSH2 0x141F JUMP JUMPDEST POP SWAP2 SWAP1 POP JUMP JUMPDEST PUSH1 0x0 DUP2 DUP4 EQ DUP1 PUSH2 0x3233 JUMPI POP PUSH1 0x0 DUP4 SLT ISZERO DUP1 ISZERO PUSH2 0x3233 JUMPI POP PUSH1 0x0 DUP3 SLT ISZERO JUMPDEST ISZERO PUSH2 0x3240 JUMPI POP PUSH1 0x0 PUSH2 0xB1E JUMP JUMPDEST PUSH1 0x0 DUP4 SGT ISZERO DUP1 ISZERO PUSH2 0x3251 JUMPI POP DUP2 PUSH1 0x0 SLT JUMPDEST ISZERO PUSH2 0x325D JUMPI POP DUP2 PUSH2 0xB1E JUMP JUMPDEST PUSH1 0x0 DUP3 SGT ISZERO DUP1 ISZERO PUSH2 0x326E JUMPI POP DUP3 PUSH1 0x0 SLT JUMPDEST ISZERO PUSH2 0x327C JUMPI PUSH2 0x1404 DUP3 PUSH2 0x455 JUMP JUMPDEST PUSH1 0x0 DUP4 SGT ISZERO DUP1 ISZERO PUSH2 0x328E JUMPI POP PUSH1 0x0 DUP3 SGT ISZERO JUMPDEST ISZERO PUSH2 0x7B JUMPI PUSH2 0x1404 DUP4 DUP4 PUSH2 0x1BED JUMP JUMPDEST DUP1 ISZERO PUSH2 0x589 JUMPI DUP4 MLOAD PUSH1 0x20 DUP6 ADD MLOAD PUSH1 0x0 SWAP2 PUSH2 0x32BC SWAP2 PUSH2 0xA3D SWAP1 DUP6 SWAP1 PUSH2 0xAD0 JUMP JUMPDEST SWAP1 POP PUSH2 0x779 DUP5 DUP5 DUP5 DUP5 PUSH2 0x38BD JUMP JUMPDEST PUSH1 0x0 DUP1 PUSH2 0xB1E PUSH1 0x1D PUSH2 0x1A47 JUMP JUMPDEST PUSH1 0x0 PUSH1 0x1 DUP3 SLT PUSH2 0x32E6 JUMPI PUSH1 0x0 DUP1 REVERT JUMPDEST DUP2 PUSH2 0x32F3 JUMPI POP PUSH1 0x0 PUSH2 0xB1E JUMP JUMPDEST PUSH2 0x141F PUSH1 0x1 PUSH2 0x1AA1 PUSH15 0xC097CE7BC90715B34B9F1000000000 PUSH2 0xA3D DUP8 PUSH1 0x20 ADD MLOAD DUP8 PUSH2 0xAD0 SWAP1 SWAP2 SWAP1 PUSH4 0xFFFFFFFF AND JUMP JUMPDEST PUSH1 0x0 DUP2 DUP4 SGT PUSH2 0x1E4A JUMPI DUP2 PUSH2 0x141F JUMP JUMPDEST PUSH1 0x0 PUSH2 0x141F DUP3 PUSH1 0x20 ADD MLOAD PUSH2 0xA3D DUP5 PUSH1 0x0 ADD MLOAD DUP7 PUSH1 0x20 ADD MLOAD PUSH2 0xAD0 SWAP1 SWAP2 SWAP1 PUSH4 0xFFFFFFFF AND JUMP JUMPDEST PUSH1 0x0 DUP1 PUSH1 0x0 DUP1 PUSH1 0x0 DUP1 PUSH2 0x3369 DUP10 DUP9 PUSH2 0x3A03 JUMP JUMPDEST DUP10 MLOAD SWAP1 SWAP6 POP SWAP2 SWAP4 POP SWAP2 POP PUSH1 0x0 SWAP1 PUSH2 0x3390 SWAP1 PUSH2 0x3385 SWAP1 DUP12 SWAP1 PUSH2 0x2C49 JUMP JUMPDEST PUSH4 0x3B9ACA00 SWAP1 PUSH2 0x2B80 JUMP JUMPDEST SWAP1 POP PUSH2 0x33CA PUSH2 0x33BF PUSH4 0x1DA9C00 PUSH2 0x33A7 DUP6 DUP6 PUSH2 0x2B80 JUMP JUMPDEST DUP2 PUSH2 0x33AE JUMPI INVALID JUMPDEST PUSH8 0xDE0B6B3A7640000 SWAP2 SWAP1 DIV PUSH2 0x30EF JUMP JUMPDEST PUSH1 0xE0 DUP11 ADD MLOAD SWAP1 PUSH2 0x347E JUMP JUMPDEST SWAP7 POP PUSH2 0x33EC PUSH2 0x33E1 PUSH4 0x1DA9C00 PUSH2 0x33A7 DUP8 DUP6 PUSH2 0x2B80 JUMP JUMPDEST PUSH1 0xC0 DUP11 ADD MLOAD SWAP1 PUSH2 0x347E JUMP JUMPDEST SWAP6 POP DUP2 DUP4 EQ ISZERO PUSH2 0x3403 JUMPI POP PUSH1 0x0 SWAP4 POP PUSH2 0x3458 SWAP2 POP POP JUMP JUMPDEST PUSH1 0x0 PUSH2 0x3425 PUSH2 0x341A PUSH4 0x1DA9C00 PUSH2 0x33A7 DUP8 DUP7 PUSH2 0x2B80 JUMP JUMPDEST PUSH1 0xE0 DUP12 ADD MLOAD SWAP1 PUSH2 0x347E JUMP JUMPDEST SWAP1 POP PUSH1 0x0 PUSH2 0x3433 DUP10 DUP4 PUSH2 0x2C49 JUMP JUMPDEST SWAP1 POP PUSH2 0x3450 DUP9 PUSH2 0x2465 DUP4 DUP14 PUSH1 0x40 ADD MLOAD PUSH2 0x2B80 SWAP1 SWAP2 SWAP1 PUSH4 0xFFFFFFFF AND JUMP JUMPDEST SWAP7 POP POP POP POP POP POP JUMPDEST SWAP4 POP SWAP4 POP SWAP4 POP SWAP4 JUMP JUMPDEST PUSH1 0x0 PUSH2 0x141F PUSH2 0x3478 DUP5 PUSH8 0xDE0B6B3A7640000 PUSH2 0x2B80 JUMP JUMPDEST DUP4 PUSH2 0x31A4 JUMP JUMPDEST PUSH1 0x0 PUSH2 0x141F PUSH2 0x348D DUP5 DUP5 PUSH2 0x2B80 JUMP JUMPDEST PUSH8 0xDE0B6B3A7640000 PUSH2 0x31A4 JUMP JUMPDEST PUSH1 0x0 PUSH5 0xFFFFFFFFFF DUP3 GT ISZERO PUSH2 0x1EA5 JUMPI PUSH1 0x0 DUP1 REVERT JUMPDEST PUSH1 0x0 PUSH1 0x1 PUSH1 0x1 PUSH1 0x58 SHL SUB DUP3 GT ISZERO PUSH2 0x1EA5 JUMPI PUSH1 0x0 DUP1 REVERT JUMPDEST PUSH1 0x0 DUP2 SLT ISZERO PUSH2 0x34D3 JUMPI PUSH1 0x0 DUP1 REVERT JUMPDEST PUSH1 0x0 PUSH2 0x34E1 PUSH2 0xFEE DUP5 PUSH2 0x3A9D JUMP JUMPDEST SWAP1 POP PUSH2 0x34ED DUP2 DUP4 PUSH2 0x1306 JUMP JUMPDEST SWAP1 POP PUSH2 0x1F71 PUSH2 0xFEE DUP5 DUP4 PUSH2 0x3AF6 JUMP JUMPDEST DUP1 SLOAD PUSH1 0x2 DUP3 ADD SLOAD PUSH1 0x0 SWAP2 PUSH2 0x3538 SWAP2 PUSH1 0x1 PUSH1 0x28 SHL SWAP1 SWAP2 DIV PUSH1 0x1 PUSH1 0x1 PUSH1 0x58 SHL SUB AND SWAP1 PUSH2 0xA37 SWAP1 PUSH1 0x1 PUSH1 0x1 PUSH1 0x50 SHL SUB PUSH1 0x1 PUSH1 0x50 SHL DUP3 DIV DUP2 AND SWAP2 AND PUSH2 0xAD0 JUMP JUMPDEST PUSH1 0x1 DUP4 ADD SLOAD PUSH1 0x2 DUP5 ADD SLOAD SWAP2 SWAP3 POP PUSH1 0x0 SWAP2 PUSH2 0x3572 SWAP2 PUSH1 0x1 PUSH1 0x1 PUSH1 0x58 SHL SUB AND SWAP1 PUSH2 0xA37 SWAP1 PUSH1 0x1 PUSH1 0x1 PUSH1 0x50 SHL SUB PUSH1 0x1 PUSH1 0xA0 SHL DUP3 DIV DUP2 AND SWAP2 AND PUSH2 0xAD0 JUMP JUMPDEST DUP4 SLOAD SWAP1 SWAP2 POP PUSH1 0x0 SWAP1 PUSH2 0x35A9 SWAP1 PUSH1 0x1 PUSH1 0x1 PUSH1 0x1 PUSH1 0x58 SHL SUB PUSH1 0x1 PUSH1 0x80 SHL SWAP1 SWAP3 DIV DUP3 AND ADD AND PUSH15 0xC097CE7BC90715B34B9F1000000000 PUSH2 0xAD0 JUMP JUMPDEST SWAP1 POP DUP1 PUSH2 0x35B6 DUP5 DUP5 PUSH2 0x1BED JUMP JUMPDEST SGT ISZERO PUSH2 0x589 JUMPI PUSH1 0x0 DUP1 REVERT JUMPDEST PUSH1 0x0 DUP1 PUSH2 0xB1E PUSH1 0x1F PUSH2 0x1A47 JUMP JUMPDEST PUSH1 0x0 PUSH1 0x3 DUP4 PUSH1 0x60 ADD MLOAD PUSH1 0x5 DUP2 GT ISZERO PUSH2 0x35E2 JUMPI INVALID JUMPDEST EQ ISZERO PUSH2 0x35F9 JUMPI POP PUSH1 0x1 PUSH1 0x1 PUSH1 0xA0 SHL SUB DUP2 AND BALANCE PUSH2 0xB1E JUMP JUMPDEST DUP3 MLOAD PUSH1 0x40 MLOAD PUSH4 0x70A08231 PUSH1 0xE0 SHL DUP2 MSTORE PUSH1 0x1 PUSH1 0x1 PUSH1 0xA0 SHL SUB SWAP1 SWAP2 AND SWAP1 PUSH4 0x70A08231 SWAP1 PUSH2 0x3628 SWAP1 DUP6 SWAP1 PUSH1 0x4 ADD PUSH2 0x4B74 JUMP JUMPDEST PUSH1 0x20 PUSH1 0x40 MLOAD DUP1 DUP4 SUB DUP2 DUP7 DUP1 EXTCODESIZE ISZERO DUP1 ISZERO PUSH2 0x3640 JUMPI PUSH1 0x0 DUP1 REVERT JUMPDEST POP GAS STATICCALL ISZERO DUP1 ISZERO PUSH2 0x3654 JUMPI RETURNDATASIZE PUSH1 0x0 DUP1 RETURNDATACOPY RETURNDATASIZE PUSH1 0x0 REVERT JUMPDEST POP POP POP POP PUSH1 0x40 MLOAD RETURNDATASIZE PUSH1 0x1F NOT PUSH1 0x1F DUP3 ADD AND DUP3 ADD DUP1 PUSH1 0x40 MSTORE POP DUP2 ADD SWAP1 PUSH2 0x1404 SWAP2 SWAP1 PUSH2 0x4B39 JUMP JUMPDEST PUSH1 0x0 DUP1 DUP5 PUSH1 0x1 PUSH1 0x1 PUSH1 0xA0 SHL SUB AND DUP5 DUP5 PUSH1 0x40 MLOAD DUP1 DUP3 DUP1 MLOAD SWAP1 PUSH1 0x20 ADD SWAP1 DUP1 DUP4 DUP4 JUMPDEST PUSH1 0x20 DUP4 LT PUSH2 0x36B6 JUMPI DUP1 MLOAD DUP3 MSTORE PUSH1 0x1F NOT SWAP1 SWAP3 ADD SWAP2 PUSH1 0x20 SWAP2 DUP3 ADD SWAP2 ADD PUSH2 0x3697 JUMP JUMPDEST PUSH1 0x1 DUP4 PUSH1 0x20 SUB PUSH2 0x100 EXP SUB DUP1 NOT DUP3 MLOAD AND DUP2 DUP5 MLOAD AND DUP1 DUP3 OR DUP6 MSTORE POP POP POP POP POP POP SWAP1 POP ADD SWAP2 POP POP PUSH1 0x0 PUSH1 0x40 MLOAD DUP1 DUP4 SUB DUP2 DUP6 DUP8 GAS CALL SWAP3 POP POP POP RETURNDATASIZE DUP1 PUSH1 0x0 DUP2 EQ PUSH2 0x3718 JUMPI PUSH1 0x40 MLOAD SWAP2 POP PUSH1 0x1F NOT PUSH1 0x3F RETURNDATASIZE ADD AND DUP3 ADD PUSH1 0x40 MSTORE RETURNDATASIZE DUP3 MSTORE RETURNDATASIZE PUSH1 0x0 PUSH1 0x20 DUP5 ADD RETURNDATACOPY PUSH2 0x371D JUMP JUMPDEST PUSH1 0x60 SWAP2 POP JUMPDEST POP SWAP2 POP SWAP2 POP DUP2 PUSH2 0x372C DUP3 PUSH2 0x3B6A JUMP JUMPDEST SWAP1 PUSH2 0x2E12 JUMPI PUSH1 0x40 MLOAD PUSH3 0x461BCD PUSH1 0xE5 SHL DUP2 MSTORE PUSH1 0x4 ADD DUP1 DUP1 PUSH1 0x20 ADD DUP3 DUP2 SUB DUP3 MSTORE DUP4 DUP2 DUP2 MLOAD DUP2 MSTORE PUSH1 0x20 ADD SWAP2 POP DUP1 MLOAD SWAP1 PUSH1 0x20 ADD SWAP1 DUP1 DUP4 DUP4 PUSH1 0x0 JUMPDEST DUP4 DUP2 LT ISZERO PUSH2 0x377A JUMPI DUP2 DUP2 ADD MLOAD DUP4 DUP3 ADD MSTORE PUSH1 0x20 ADD PUSH2 0x3762 JUMP JUMPDEST POP POP POP POP SWAP1 POP SWAP1 DUP2 ADD SWAP1 PUSH1 0x1F AND DUP1 ISZERO PUSH2 0x37A7 JUMPI DUP1 DUP3 SUB DUP1 MLOAD PUSH1 0x1 DUP4 PUSH1 0x20 SUB PUSH2 0x100 EXP SUB NOT AND DUP2 MSTORE PUSH1 0x20 ADD SWAP2 POP JUMPDEST POP SWAP3 POP POP POP PUSH1 0x40 MLOAD DUP1 SWAP2 SUB SWAP1 REVERT JUMPDEST PUSH1 0x0 PUSH2 0x37BF PUSH2 0x2E6F JUMP JUMPDEST PUSH1 0x1 PUSH1 0x1 PUSH1 0xA0 SHL SUB DUP6 AND PUSH1 0x0 SWAP1 DUP2 MSTORE PUSH1 0x20 DUP3 SWAP1 MSTORE PUSH1 0x40 SWAP1 KECCAK256 SLOAD SWAP1 SWAP2 POP DUP4 DUP2 GT ISZERO PUSH2 0x37E8 JUMPI PUSH1 0x0 DUP1 REVERT JUMPDEST PUSH1 0x0 PUSH2 0x37FF PUSH2 0x37F6 DUP7 PUSH2 0x20F4 JUMP JUMPDEST PUSH2 0x1AA1 DUP7 PUSH2 0x20F4 JUMP JUMPDEST SWAP1 POP PUSH2 0x380E PUSH2 0x2646 DUP4 DUP4 PUSH2 0x1306 JUMP JUMPDEST PUSH1 0x1 PUSH1 0x1 PUSH1 0xA0 SHL SUB SWAP1 SWAP7 AND PUSH1 0x0 SWAP1 DUP2 MSTORE PUSH1 0x20 SWAP4 SWAP1 SWAP4 MSTORE POP POP PUSH1 0x40 SWAP1 KECCAK256 SWAP3 SWAP1 SWAP3 SSTORE POP POP JUMP JUMPDEST PUSH1 0x0 DUP1 PUSH1 0x0 DUP1 PUSH1 0x0 DUP1 PUSH2 0x3843 PUSH2 0x31C3 JUMP JUMPDEST PUSH1 0x1 PUSH1 0x1 PUSH1 0xA0 SHL SUB SWAP1 SWAP8 AND PUSH1 0x0 SWAP1 DUP2 MSTORE PUSH1 0x20 SWAP8 SWAP1 SWAP8 MSTORE POP POP PUSH1 0x40 SWAP1 SWAP5 KECCAK256 SLOAD PUSH2 0xFFFF DUP2 AND SWAP6 PUSH4 0xFFFFFFFF PUSH3 0x10000 DUP4 DIV DUP2 AND SWAP7 POP PUSH1 0x1 PUSH1 0x30 SHL DUP4 DIV AND SWAP5 POP PUSH1 0xFF PUSH1 0x1 PUSH1 0x50 SHL DUP4 DIV AND SWAP4 POP PUSH1 0x1 PUSH1 0x58 SHL SWAP1 SWAP2 DIV PUSH1 0xD0 SHL SWAP2 POP JUMP JUMPDEST PUSH1 0x0 PUSH2 0x1283 DUP3 PUSH2 0x2465 PUSH4 0x1DA9C00 DUP2 DUP9 PUSH2 0x245F DUP10 PUSH8 0xDE0B6B3A7640000 PUSH2 0x2B80 JUMP JUMPDEST PUSH1 0x0 PUSH2 0x38C7 PUSH2 0x32CA JUMP JUMPDEST PUSH2 0xFFFF DUP6 AND PUSH1 0x0 SWAP1 DUP2 MSTORE PUSH1 0x20 SWAP2 SWAP1 SWAP2 MSTORE PUSH1 0x40 SWAP1 KECCAK256 DUP1 SLOAD SWAP1 SWAP2 POP PUSH5 0xFFFFFFFFFF AND TIMESTAMP EQ PUSH2 0x38F2 JUMPI PUSH1 0x0 DUP1 REVERT JUMPDEST DUP1 SLOAD PUSH1 0x1 PUSH1 0xF8 SHL SWAP1 DIV PUSH1 0xFF AND PUSH2 0x3907 JUMPI PUSH1 0x0 DUP1 REVERT JUMPDEST PUSH1 0x1 DUP2 ADD SLOAD PUSH1 0x0 SWAP1 PUSH2 0x3922 SWAP1 PUSH1 0x1 PUSH1 0x1 PUSH1 0x58 SHL SUB AND DUP6 PUSH2 0x1306 JUMP JUMPDEST DUP3 SLOAD SWAP1 SWAP2 POP PUSH1 0x0 SWAP1 PUSH2 0x3944 SWAP1 PUSH1 0x1 PUSH1 0x28 SHL SWAP1 DIV PUSH1 0x1 PUSH1 0x1 PUSH1 0x58 SHL SUB AND DUP6 PUSH2 0x1306 JUMP JUMPDEST SWAP1 POP DUP2 PUSH1 0x9 NOT SLT DUP1 ISZERO PUSH2 0x3957 JUMPI POP PUSH1 0x0 DUP3 SLT JUMPDEST ISZERO PUSH2 0x3961 JUMPI PUSH1 0x0 SWAP2 POP JUMPDEST DUP1 PUSH1 0x9 NOT SLT DUP1 ISZERO PUSH2 0x3972 JUMPI POP PUSH1 0x0 DUP2 SLT JUMPDEST ISZERO PUSH2 0x397B JUMPI POP PUSH1 0x0 JUMPDEST PUSH2 0x3987 PUSH2 0x2DA2 DUP4 PUSH2 0x1E96 JUMP JUMPDEST PUSH1 0x1 DUP5 ADD DUP1 SLOAD PUSH11 0xFFFFFFFFFFFFFFFFFFFFFF NOT AND PUSH1 0x1 PUSH1 0x1 PUSH1 0x58 SHL SUB SWAP3 SWAP1 SWAP3 AND SWAP2 SWAP1 SWAP2 OR SWAP1 SSTORE PUSH2 0x39B9 PUSH2 0x2DA2 DUP3 PUSH2 0x1E96 JUMP JUMPDEST DUP4 SLOAD PUSH1 0x1 PUSH1 0x1 PUSH1 0x58 SHL SUB SWAP2 SWAP1 SWAP2 AND PUSH1 0x1 PUSH1 0x28 SHL MUL PUSH16 0xFFFFFFFFFFFFFFFFFFFFFF0000000000 NOT SWAP1 SWAP2 AND OR DUP4 SSTORE PUSH2 0x39F1 DUP8 DUP8 DUP7 DUP9 PUSH2 0x3C71 JUMP JUMPDEST PUSH2 0x39FA DUP4 PUSH2 0x34FC JUMP JUMPDEST POP POP POP POP POP POP POP JUMP JUMPDEST PUSH1 0x0 DUP1 PUSH1 0x0 DUP1 PUSH1 0x0 DUP6 PUSH1 0x20 ADD MLOAD GT ISZERO PUSH2 0x3A50 JUMPI PUSH2 0x3A4D PUSH2 0x3A34 DUP7 PUSH1 0xC0 ADD MLOAD DUP8 PUSH1 0x20 ADD MLOAD PUSH2 0x2B80 SWAP1 SWAP2 SWAP1 PUSH4 0xFFFFFFFF AND JUMP JUMPDEST PUSH1 0xE0 DUP8 ADD MLOAD PUSH1 0x40 DUP9 ADD MLOAD PUSH2 0x3A47 SWAP2 PUSH2 0x2B80 JUMP JUMPDEST SWAP1 PUSH2 0x3D4B JUMP JUMPDEST SWAP1 POP JUMPDEST PUSH1 0x0 PUSH2 0x3A5B DUP8 PUSH2 0x3D5E JUMP JUMPDEST SWAP1 POP PUSH2 0x3A67 DUP2 DUP4 PUSH2 0x3D91 JUMP JUMPDEST SWAP5 POP DUP2 ISZERO PUSH2 0x3A7E JUMPI PUSH2 0x3A7B DUP2 DUP7 PUSH1 0x1 PUSH2 0x3E4A JUMP JUMPDEST SWAP4 POP JUMPDEST PUSH1 0x20 DUP7 ADD MLOAD ISZERO PUSH2 0x319A JUMPI PUSH2 0x3A92 DUP6 DUP4 PUSH2 0x3EC2 JUMP JUMPDEST SWAP3 POP POP POP SWAP3 POP SWAP3 POP SWAP3 JUMP JUMPDEST PUSH1 0x0 DUP1 PUSH2 0x3AA8 PUSH2 0x2533 JUMP JUMPDEST PUSH1 0x1 PUSH1 0x1 PUSH1 0xA0 SHL SUB DUP6 AND PUSH1 0x0 SWAP1 DUP2 MSTORE PUSH1 0x20 DUP3 DUP2 MSTORE PUSH1 0x40 DUP1 DUP4 KECCAK256 PUSH2 0xFFFF DUP9 AND DUP5 MSTORE SWAP1 SWAP2 MSTORE DUP2 KECCAK256 DUP1 SLOAD PUSH1 0x1 PUSH1 0xA8 SHL SWAP1 DIV PUSH1 0xA SWAP1 DUP2 SIGNEXTEND SWAP1 SIGNEXTEND SWAP5 POP SWAP2 SWAP3 POP DUP4 SLT ISZERO PUSH2 0x3AEE JUMPI PUSH1 0x0 DUP1 REVERT JUMPDEST POP POP SWAP3 SWAP2 POP POP JUMP JUMPDEST PUSH1 0x0 DUP2 SLT ISZERO PUSH2 0x3B04 JUMPI PUSH1 0x0 DUP1 REVERT JUMPDEST PUSH1 0x0 PUSH2 0x3B0E PUSH2 0x2533 JUMP JUMPDEST PUSH1 0x1 PUSH1 0x1 PUSH1 0xA0 SHL SUB DUP6 AND PUSH1 0x0 SWAP1 DUP2 MSTORE PUSH1 0x20 DUP3 DUP2 MSTORE PUSH1 0x40 DUP1 DUP4 KECCAK256 PUSH2 0xFFFF DUP9 AND DUP5 MSTORE SWAP1 SWAP2 MSTORE SWAP1 KECCAK256 SWAP1 SWAP2 POP PUSH2 0x3B3F DUP4 PUSH2 0x258C JUMP JUMPDEST DUP2 SLOAD PUSH1 0xA SWAP2 SWAP1 SWAP2 SIGNEXTEND PUSH1 0x1 PUSH1 0x1 PUSH1 0x58 SHL SUB AND PUSH1 0x1 PUSH1 0xA8 SHL MUL PUSH1 0x1 PUSH1 0x1 PUSH1 0xA8 SHL SUB SWAP1 SWAP2 AND OR SWAP1 SSTORE POP POP POP POP JUMP JUMPDEST PUSH1 0x60 PUSH1 0x44 DUP3 MLOAD LT ISZERO PUSH2 0x3BA0 JUMPI POP PUSH1 0x40 DUP1 MLOAD DUP1 DUP3 ADD SWAP1 SWAP2 MSTORE PUSH1 0xD DUP2 MSTORE PUSH13 0x14DA5B195B9D0814995D995C9D PUSH1 0x9A SHL PUSH1 0x20 DUP3 ADD MSTORE PUSH2 0x466 JUMP JUMPDEST PUSH1 0x4 DUP3 ADD DUP1 MLOAD SWAP1 SWAP3 PUSH1 0x24 ADD SWAP1 PUSH1 0x20 DUP2 LT ISZERO PUSH2 0x3BBA JUMPI PUSH1 0x0 DUP1 REVERT JUMPDEST DUP2 ADD SWAP1 DUP1 DUP1 MLOAD PUSH1 0x40 MLOAD SWAP4 SWAP3 SWAP2 SWAP1 DUP5 PUSH5 0x100000000 DUP3 GT ISZERO PUSH2 0x3BDA JUMPI PUSH1 0x0 DUP1 REVERT JUMPDEST SWAP1 DUP4 ADD SWAP1 PUSH1 0x20 DUP3 ADD DUP6 DUP2 GT ISZERO PUSH2 0x3BEF JUMPI PUSH1 0x0 DUP1 REVERT JUMPDEST DUP3 MLOAD PUSH5 0x100000000 DUP2 GT DUP3 DUP3 ADD DUP9 LT OR ISZERO PUSH2 0x3C09 JUMPI PUSH1 0x0 DUP1 REVERT JUMPDEST DUP3 MSTORE POP DUP2 MLOAD PUSH1 0x20 SWAP2 DUP3 ADD SWAP3 SWAP1 SWAP2 ADD SWAP1 DUP1 DUP4 DUP4 PUSH1 0x0 JUMPDEST DUP4 DUP2 LT ISZERO PUSH2 0x3C36 JUMPI DUP2 DUP2 ADD MLOAD DUP4 DUP3 ADD MSTORE PUSH1 0x20 ADD PUSH2 0x3C1E JUMP JUMPDEST POP POP POP POP SWAP1 POP SWAP1 DUP2 ADD SWAP1 PUSH1 0x1F AND DUP1 ISZERO PUSH2 0x3C63 JUMPI DUP1 DUP3 SUB DUP1 MLOAD PUSH1 0x1 DUP4 PUSH1 0x20 SUB PUSH2 0x100 EXP SUB NOT AND DUP2 MSTORE PUSH1 0x20 ADD SWAP2 POP JUMPDEST POP PUSH1 0x40 MSTORE POP POP POP SWAP1 POP SWAP2 SWAP1 POP JUMP JUMPDEST PUSH1 0x0 PUSH2 0x3C7B PUSH2 0x14E8 JUMP JUMPDEST PUSH2 0xFFFF DUP6 AND PUSH1 0x0 SWAP1 DUP2 MSTORE PUSH1 0x20 SWAP2 SWAP1 SWAP2 MSTORE PUSH1 0x40 DUP2 KECCAK256 SLOAD PUSH1 0x1 PUSH1 0x1 PUSH1 0xA0 SHL SUB AND SWAP2 POP PUSH2 0x3CA3 PUSH2 0x3EDB JUMP JUMPDEST PUSH2 0xFFFF DUP7 AND PUSH1 0x0 SWAP1 DUP2 MSTORE PUSH1 0x20 SWAP2 SWAP1 SWAP2 MSTORE PUSH1 0x40 SWAP1 DUP2 SWAP1 KECCAK256 SLOAD SWAP1 MLOAD PUSH4 0xAD1C095D PUSH1 0xE0 SHL DUP2 MSTORE PUSH1 0x1 PUSH1 0x1 PUSH1 0xA0 SHL SUB SWAP1 SWAP2 AND SWAP2 POP DUP2 SWAP1 PUSH4 0xAD1C095D SWAP1 PUSH2 0x3CEB SWAP1 DUP10 SWAP1 DUP8 SWAP1 PUSH1 0x4 ADD PUSH2 0x4BAC JUMP JUMPDEST PUSH1 0x0 PUSH1 0x40 MLOAD DUP1 DUP4 SUB DUP2 PUSH1 0x0 DUP8 DUP1 EXTCODESIZE ISZERO DUP1 ISZERO PUSH2 0x3D05 JUMPI PUSH1 0x0 DUP1 REVERT JUMPDEST POP GAS CALL ISZERO DUP1 ISZERO PUSH2 0x3D19 JUMPI RETURNDATASIZE PUSH1 0x0 DUP1 RETURNDATACOPY RETURNDATASIZE PUSH1 0x0 REVERT JUMPDEST POP POP PUSH1 0x40 MLOAD PUSH4 0xAD1C095D PUSH1 0xE0 SHL DUP2 MSTORE PUSH1 0x1 PUSH1 0x1 PUSH1 0xA0 SHL SUB DUP6 AND SWAP3 POP PUSH4 0xAD1C095D SWAP2 POP PUSH2 0xD74 SWAP1 DUP10 SWAP1 DUP9 SWAP1 PUSH1 0x4 ADD PUSH2 0x4BAC JUMP JUMPDEST PUSH1 0x0 PUSH2 0x141F PUSH2 0x3478 DUP5 PUSH4 0x3B9ACA00 PUSH2 0x2B80 JUMP JUMPDEST PUSH2 0x3D66 PUSH2 0x427F JUMP JUMPDEST PUSH1 0x0 PUSH2 0x3D70 PUSH2 0x3EE8 JUMP JUMPDEST PUSH2 0xFFFF DUP5 AND PUSH1 0x0 SWAP1 DUP2 MSTORE PUSH1 0x20 SWAP2 SWAP1 SWAP2 MSTORE PUSH1 0x40 DUP2 KECCAK256 SLOAD SWAP2 POP PUSH2 0x141F SWAP1 DUP3 PUSH2 0x3EF5 JUMP JUMPDEST PUSH1 0x0 DUP1 DUP4 PUSH1 0x80 ADD MLOAD GT PUSH2 0x3DA3 JUMPI PUSH1 0x0 DUP1 REVERT JUMPDEST PUSH4 0x3B9ACA00 DUP3 GT ISZERO PUSH2 0x3DB4 JUMPI PUSH1 0x0 DUP1 REVERT JUMPDEST DUP3 MLOAD DUP3 GT PUSH2 0x3DD3 JUMPI DUP3 MLOAD PUSH1 0x40 DUP5 ADD MLOAD PUSH2 0x1404 SWAP2 SWAP1 PUSH2 0x2465 SWAP1 DUP6 SWAP1 PUSH2 0x2B80 JUMP JUMPDEST DUP3 PUSH1 0x20 ADD MLOAD DUP3 GT PUSH2 0x3E11 JUMPI PUSH1 0x40 DUP4 ADD MLOAD DUP4 MLOAD PUSH1 0x20 DUP6 ADD MLOAD PUSH1 0x60 DUP7 ADD MLOAD PUSH2 0x1404 SWAP4 SWAP3 PUSH2 0x3E0B SWAP3 DUP2 SWAP1 SUB SWAP2 PUSH2 0x2465 SWAP2 DUP9 SUB SWAP1 DUP6 SWAP1 SUB PUSH2 0x2B80 JUMP JUMPDEST SWAP1 PUSH2 0x30EF JUMP JUMPDEST PUSH2 0x141F DUP4 PUSH1 0x60 ADD MLOAD PUSH2 0x3E0B DUP6 PUSH1 0x20 ADD MLOAD PUSH4 0x3B9ACA00 SUB PUSH2 0x2465 DUP8 PUSH1 0x60 ADD MLOAD DUP9 PUSH1 0x80 ADD MLOAD SUB DUP9 PUSH1 0x20 ADD MLOAD DUP9 SUB PUSH2 0x2B80 SWAP1 SWAP2 SWAP1 PUSH4 0xFFFFFFFF AND JUMP JUMPDEST PUSH1 0x0 DUP1 PUSH2 0x3E69 PUSH1 0x64 PUSH2 0x2465 DUP8 PUSH1 0xE0 ADD MLOAD DUP8 PUSH2 0x2B80 SWAP1 SWAP2 SWAP1 PUSH4 0xFFFFFFFF AND JUMP JUMPDEST SWAP1 POP DUP5 PUSH1 0xA0 ADD MLOAD DUP2 LT ISZERO PUSH2 0x3E7E JUMPI POP PUSH1 0xA0 DUP5 ADD MLOAD JUMPDEST DUP5 PUSH1 0xC0 ADD MLOAD DUP2 GT ISZERO PUSH2 0x3E91 JUMPI POP PUSH1 0xC0 DUP5 ADD MLOAD JUMPDEST DUP3 ISZERO PUSH2 0x3EA8 JUMPI PUSH2 0x3EA1 DUP5 DUP3 PUSH2 0x30EF JUMP JUMPDEST SWAP2 POP PUSH2 0xAC8 JUMP JUMPDEST DUP4 DUP2 GT PUSH2 0x3EB7 JUMPI DUP1 DUP5 SUB PUSH2 0x561 JUMP JUMPDEST POP PUSH1 0x0 SWAP5 SWAP4 POP POP POP POP JUMP JUMPDEST PUSH1 0x0 PUSH2 0x141F PUSH2 0x3ED1 DUP5 DUP5 PUSH2 0x2B80 JUMP JUMPDEST PUSH4 0x3B9ACA00 PUSH2 0x31A4 JUMP JUMPDEST PUSH1 0x0 DUP1 PUSH2 0xB1E PUSH1 0x22 PUSH2 0x1A47 JUMP JUMPDEST PUSH1 0x0 DUP1 PUSH2 0xB1E PUSH1 0x1B PUSH2 0x1A47 JUMP JUMPDEST PUSH2 0x3EFD PUSH2 0x427F JUMP JUMPDEST PUSH1 0x64 PUSH4 0x3B9ACA00 DUP4 PUSH1 0xFF DUP7 AND PUSH1 0x20 DUP2 LT PUSH2 0x3F13 JUMPI INVALID JUMPDEST BYTE MUL DUP2 PUSH2 0x3F1C JUMPI INVALID JUMPDEST DIV DUP2 MSTORE PUSH1 0x64 PUSH4 0x3B9ACA00 DUP4 PUSH1 0xFF DUP7 AND PUSH1 0x1 ADD PUSH1 0x20 DUP2 LT PUSH2 0x3F38 JUMPI INVALID JUMPDEST BYTE MUL DUP2 PUSH2 0x3F41 JUMPI INVALID JUMPDEST DIV DUP2 PUSH1 0x20 ADD DUP2 DUP2 MSTORE POP POP PUSH2 0x3F66 DUP3 PUSH1 0x2 DUP6 PUSH1 0xFF AND ADD PUSH1 0x20 DUP2 LT PUSH2 0x3F60 JUMPI INVALID JUMPDEST BYTE PUSH2 0x4014 JUMP JUMPDEST PUSH1 0x80 DUP3 ADD DUP2 SWAP1 MSTORE PUSH2 0x100 SWAP1 DUP4 PUSH1 0xFF DUP7 AND PUSH1 0x3 ADD PUSH1 0x20 DUP2 LT PUSH2 0x3F83 JUMPI INVALID JUMPDEST BYTE MUL DUP2 PUSH2 0x3F8C JUMPI INVALID JUMPDEST DIV PUSH1 0x40 DUP3 ADD MSTORE PUSH1 0x80 DUP2 ADD MLOAD PUSH2 0x100 SWAP1 DUP4 PUSH1 0xFF DUP7 AND PUSH1 0x4 ADD PUSH1 0x20 DUP2 LT PUSH2 0x3FAD JUMPI INVALID JUMPDEST BYTE MUL DUP2 PUSH2 0x3FB6 JUMPI INVALID JUMPDEST DIV PUSH1 0x60 DUP3 ADD MSTORE PUSH3 0x7A120 DUP3 PUSH1 0xFF DUP6 AND PUSH1 0x5 ADD PUSH1 0x20 DUP2 LT PUSH2 0x3FD2 JUMPI INVALID JUMPDEST BYTE MUL PUSH1 0xA0 DUP3 ADD MSTORE PUSH3 0x2625A0 DUP3 PUSH1 0xFF DUP6 AND PUSH1 0x6 ADD PUSH1 0x20 DUP2 LT PUSH2 0x3FEF JUMPI INVALID JUMPDEST BYTE MUL PUSH1 0xC0 DUP3 ADD MSTORE DUP2 PUSH1 0xFF DUP5 AND PUSH1 0x7 ADD PUSH1 0x20 DUP2 LT PUSH2 0x4008 JUMPI INVALID JUMPDEST BYTE PUSH1 0xE0 DUP3 ADD MSTORE SWAP3 SWAP2 POP POP JUMP JUMPDEST PUSH1 0x0 DUP2 PUSH1 0xFF AND PUSH1 0x96 LT PUSH2 0x402F JUMPI PUSH1 0xFF DUP3 AND PUSH3 0x2625A0 MUL PUSH2 0x463 JUMP JUMPDEST POP PUSH1 0x95 NOT PUSH1 0xFF SWAP2 SWAP1 SWAP2 AND ADD PUSH3 0xE4E1C0 MUL PUSH4 0x165A0BC0 ADD SWAP1 JUMP JUMPDEST PUSH1 0x40 MLOAD DUP1 PUSH2 0x140 ADD PUSH1 0x40 MSTORE DUP1 PUSH1 0x0 PUSH2 0xFFFF AND DUP2 MSTORE PUSH1 0x20 ADD PUSH1 0x0 DUP2 MSTORE PUSH1 0x20 ADD PUSH1 0x0 DUP2 MSTORE PUSH1 0x20 ADD PUSH1 0x0 DUP2 MSTORE PUSH1 0x20 ADD PUSH1 0x0 DUP2 MSTORE PUSH1 0x20 ADD PUSH1 0x0 DUP2 MSTORE PUSH1 0x20 ADD PUSH1 0x0 DUP2 MSTORE PUSH1 0x20 ADD PUSH1 0x0 DUP2 MSTORE PUSH1 0x20 ADD PUSH1 0x0 DUP2 MSTORE PUSH1 0x20 ADD PUSH2 0x409F PUSH2 0x41F4 JUMP JUMPDEST SWAP1 MSTORE SWAP1 JUMP JUMPDEST PUSH1 0x40 DUP1 MLOAD PUSH1 0xC0 DUP2 ADD DUP3 MSTORE PUSH1 0x0 DUP1 DUP3 MSTORE PUSH1 0x20 DUP3 ADD DUP2 SWAP1 MSTORE SWAP2 DUP2 ADD DUP3 SWAP1 MSTORE PUSH1 0x60 DUP2 ADD DUP3 SWAP1 MSTORE PUSH1 0x80 DUP2 ADD DUP3 SWAP1 MSTORE PUSH1 0xA0 DUP2 ADD SWAP2 SWAP1 SWAP2 MSTORE SWAP1 JUMP JUMPDEST PUSH1 0x40 MLOAD DUP1 PUSH2 0x160 ADD PUSH1 0x40 MSTORE DUP1 PUSH1 0x0 PUSH1 0x1 PUSH1 0x1 PUSH1 0xA0 SHL SUB AND DUP2 MSTORE PUSH1 0x20 ADD PUSH1 0x0 DUP2 MSTORE PUSH1 0x20 ADD PUSH1 0x0 DUP2 MSTORE PUSH1 0x20 ADD PUSH1 0x0 DUP2 MSTORE PUSH1 0x20 ADD PUSH1 0x0 DUP2 MSTORE PUSH1 0x20 ADD PUSH1 0x0 PUSH1 0x1 PUSH1 0x1 PUSH1 0xD0 SHL SUB NOT AND DUP2 MSTORE PUSH1 0x20 ADD PUSH2 0x412A PUSH2 0x42C4 JUMP JUMPDEST DUP2 MSTORE PUSH1 0x20 ADD PUSH2 0x4137 PUSH2 0x42C4 JUMP JUMPDEST DUP2 MSTORE PUSH1 0x20 ADD PUSH2 0x4144 PUSH2 0x41F4 JUMP JUMPDEST DUP2 MSTORE PUSH1 0x20 ADD PUSH2 0x4151 PUSH2 0x42F3 JUMP JUMPDEST DUP2 MSTORE PUSH1 0x0 PUSH1 0x20 SWAP1 SWAP2 ADD MSTORE SWAP1 JUMP JUMPDEST PUSH1 0x40 MLOAD DUP1 PUSH1 0x80 ADD PUSH1 0x40 MSTORE DUP1 PUSH1 0x60 DUP2 MSTORE PUSH1 0x20 ADD PUSH1 0x60 DUP2 MSTORE PUSH1 0x20 ADD PUSH1 0x0 DUP2 MSTORE PUSH1 0x20 ADD PUSH1 0x0 DUP2 MSTORE POP SWAP1 JUMP JUMPDEST PUSH1 0x40 MLOAD DUP1 PUSH1 0xC0 ADD PUSH1 0x40 MSTORE DUP1 PUSH1 0x0 PUSH2 0xFFFF AND DUP2 MSTORE PUSH1 0x20 ADD PUSH1 0x0 DUP2 MSTORE PUSH1 0x20 ADD PUSH1 0x0 DUP2 MSTORE PUSH1 0x20 ADD PUSH1 0x0 DUP2 MSTORE PUSH1 0x20 ADD PUSH1 0x0 DUP2 MSTORE PUSH1 0x20 ADD PUSH1 0x0 PUSH1 0x3 DUP2 GT ISZERO PUSH2 0x409F JUMPI INVALID JUMPDEST PUSH1 0x40 DUP1 MLOAD PUSH1 0xA0 DUP2 ADD DUP3 MSTORE PUSH1 0x0 DUP1 DUP3 MSTORE PUSH1 0x20 DUP3 ADD DUP2 SWAP1 MSTORE SWAP2 DUP2 ADD DUP3 SWAP1 MSTORE SWAP1 PUSH1 0x60 DUP3 ADD SWAP1 DUP2 MSTORE PUSH1 0x20 ADD PUSH1 0x0 DUP2 MSTORE POP SWAP1 JUMP JUMPDEST PUSH1 0x40 MLOAD DUP1 PUSH1 0x60 ADD PUSH1 0x40 MSTORE DUP1 PUSH1 0x0 DUP2 MSTORE PUSH1 0x20 ADD PUSH1 0x0 DUP2 MSTORE PUSH1 0x20 ADD PUSH1 0x0 DUP2 MSTORE POP SWAP1 JUMP JUMPDEST PUSH1 0x40 MLOAD DUP1 PUSH2 0x120 ADD PUSH1 0x40 MSTORE DUP1 PUSH1 0x0 DUP2 MSTORE PUSH1 0x20 ADD PUSH1 0x0 DUP2 MSTORE PUSH1 0x20 ADD PUSH1 0x0 DUP2 MSTORE PUSH1 0x20 ADD PUSH1 0x0 DUP2 MSTORE PUSH1 0x20 ADD PUSH1 0x0 DUP2 MSTORE PUSH1 0x20 ADD PUSH1 0x0 DUP2 MSTORE PUSH1 0x20 ADD PUSH1 0x0 DUP2 MSTORE PUSH1 0x20 ADD PUSH1 0x0 DUP2 MSTORE PUSH1 0x20 ADD PUSH1 0x0 DUP2 MSTORE POP SWAP1 JUMP JUMPDEST PUSH1 0x40 MLOAD DUP1 PUSH1 0x20 ADD PUSH1 0x40 MSTORE DUP1 PUSH1 0x1 SWAP1 PUSH1 0x20 DUP3 MUL DUP1 CALLDATASIZE DUP4 CALLDATACOPY POP SWAP2 SWAP3 SWAP2 POP POP JUMP JUMPDEST PUSH1 0x40 MLOAD DUP1 PUSH2 0x100 ADD PUSH1 0x40 MSTORE DUP1 PUSH1 0x0 DUP2 MSTORE PUSH1 0x20 ADD PUSH1 0x0 DUP2 MSTORE PUSH1 0x20 ADD PUSH1 0x0 DUP2 MSTORE PUSH1 0x20 ADD PUSH1 0x0 DUP2 MSTORE PUSH1 0x20 ADD PUSH1 0x0 DUP2 MSTORE PUSH1 0x20 ADD PUSH1 0x0 DUP2 MSTORE PUSH1 0x20 ADD PUSH1 0x0 DUP2 MSTORE PUSH1 0x20 ADD PUSH1 0x0 DUP2 MSTORE POP SWAP1 JUMP JUMPDEST PUSH1 0x40 MLOAD DUP1 PUSH1 0xA0 ADD PUSH1 0x40 MSTORE DUP1 PUSH1 0x0 DUP2 MSTORE PUSH1 0x20 ADD PUSH1 0x0 DUP2 MSTORE PUSH1 0x20 ADD PUSH1 0x0 DUP2 MSTORE PUSH1 0x20 ADD PUSH1 0x0 DUP2 MSTORE PUSH1 0x20 ADD PUSH1 0x0 DUP2 MSTORE POP SWAP1 JUMP JUMPDEST PUSH1 0x40 DUP1 MLOAD PUSH1 0x80 DUP2 ADD DUP3 MSTORE PUSH1 0x0 DUP1 DUP3 MSTORE PUSH1 0x20 DUP3 ADD MSTORE SWAP1 DUP2 ADD PUSH2 0x4151 PUSH2 0x41F4 JUMP JUMPDEST DUP1 MLOAD PUSH2 0x466 DUP2 PUSH2 0x4E0A JUMP JUMPDEST PUSH1 0x0 DUP3 PUSH1 0x1F DUP4 ADD SLT PUSH2 0x432D JUMPI DUP1 DUP2 REVERT JUMPDEST DUP2 MLOAD PUSH1 0x20 PUSH2 0x4342 PUSH2 0x433D DUP4 PUSH2 0x4DEC JUMP JUMPDEST PUSH2 0x4DC8 JUMP JUMPDEST DUP3 DUP2 MSTORE DUP2 DUP2 ADD SWAP1 DUP6 DUP4 ADD DUP4 DUP6 MUL DUP8 ADD DUP5 ADD DUP9 LT ISZERO PUSH2 0x435E JUMPI DUP6 DUP7 REVERT JUMPDEST DUP6 JUMPDEST DUP6 DUP2 LT ISZERO PUSH2 0x4385 JUMPI DUP2 MLOAD PUSH2 0x4373 DUP2 PUSH2 0x4E0A JUMP JUMPDEST DUP5 MSTORE SWAP3 DUP5 ADD SWAP3 SWAP1 DUP5 ADD SWAP1 PUSH1 0x1 ADD PUSH2 0x4360 JUMP JUMPDEST POP SWAP1 SWAP8 SWAP7 POP POP POP POP POP POP POP JUMP JUMPDEST PUSH1 0x0 PUSH1 0x1F DUP4 DUP2 DUP5 ADD SLT PUSH2 0x43A3 JUMPI DUP2 DUP3 REVERT JUMPDEST DUP3 MLOAD PUSH1 0x20 PUSH2 0x43B3 PUSH2 0x433D DUP4 PUSH2 0x4DEC JUMP JUMPDEST DUP3 DUP2 MSTORE DUP2 DUP2 ADD SWAP1 DUP7 DUP4 ADD DUP7 JUMPDEST DUP6 DUP2 LT ISZERO PUSH2 0x4458 JUMPI DUP2 MLOAD DUP10 ADD DUP11 PUSH1 0x3F DUP3 ADD SLT PUSH2 0x43D9 JUMPI DUP9 DUP10 REVERT JUMPDEST DUP6 DUP2 ADD MLOAD PUSH8 0xFFFFFFFFFFFFFFFF DUP2 GT ISZERO PUSH2 0x43EF JUMPI INVALID JUMPDEST PUSH2 0x4400 DUP2 DUP11 ADD PUSH1 0x1F NOT AND DUP9 ADD PUSH2 0x4DC8 JUMP JUMPDEST DUP2 DUP2 MSTORE PUSH1 0x40 DUP14 DUP2 DUP5 DUP7 ADD ADD GT ISZERO PUSH2 0x4415 JUMPI DUP12 DUP13 REVERT JUMPDEST DUP12 JUMPDEST DUP4 DUP2 LT ISZERO PUSH2 0x4432 JUMPI DUP5 DUP2 ADD DUP3 ADD MLOAD DUP4 DUP3 ADD DUP12 ADD MSTORE DUP10 ADD PUSH2 0x4417 JUMP JUMPDEST DUP4 DUP2 GT ISZERO PUSH2 0x4442 JUMPI DUP13 DUP11 DUP6 DUP6 ADD ADD MSTORE JUMPDEST POP POP DUP7 MSTORE POP POP SWAP3 DUP5 ADD SWAP3 SWAP1 DUP5 ADD SWAP1 PUSH1 0x1 ADD PUSH2 0x43BF JUMP JUMPDEST POP SWAP1 SWAP9 SWAP8 POP POP POP POP POP POP POP POP JUMP JUMPDEST PUSH1 0x0 DUP3 PUSH1 0x1F DUP4 ADD SLT PUSH2 0x4476 JUMPI DUP1 DUP2 REVERT JUMPDEST DUP2 MLOAD PUSH1 0x20 PUSH2 0x4486 PUSH2 0x433D DUP4 PUSH2 0x4DEC JUMP JUMPDEST DUP3 DUP2 MSTORE DUP2 DUP2 ADD SWAP1 DUP6 DUP4 ADD PUSH1 0xC0 DUP1 DUP7 MUL DUP9 ADD DUP6 ADD DUP10 LT ISZERO PUSH2 0x44A4 JUMPI DUP7 DUP8 REVERT JUMPDEST DUP7 JUMPDEST DUP7 DUP2 LT ISZERO PUSH2 0x4536 JUMPI DUP2 DUP4 DUP12 SUB SLT ISZERO PUSH2 0x44BC JUMPI DUP8 DUP9 REVERT JUMPDEST PUSH1 0x40 DUP1 MLOAD DUP4 DUP2 ADD DUP2 DUP2 LT PUSH8 0xFFFFFFFFFFFFFFFF DUP3 GT OR ISZERO PUSH2 0x44D9 JUMPI INVALID JUMPDEST DUP3 MSTORE DUP5 MLOAD PUSH2 0x44E6 DUP2 PUSH2 0x4E30 JUMP JUMPDEST DUP2 MSTORE DUP5 DUP9 ADD MLOAD DUP9 DUP3 ADD MSTORE DUP2 DUP6 ADD MLOAD SWAP2 DUP2 ADD SWAP2 SWAP1 SWAP2 MSTORE PUSH1 0x60 DUP1 DUP6 ADD MLOAD SWAP1 DUP3 ADD MSTORE PUSH1 0x80 DUP1 DUP6 ADD MLOAD SWAP1 DUP3 ADD MSTORE PUSH1 0xA0 SWAP1 PUSH2 0x451D DUP3 DUP7 ADD PUSH2 0x4597 JUMP JUMPDEST SWAP2 DUP2 ADD SWAP2 SWAP1 SWAP2 MSTORE DUP6 MSTORE SWAP4 DUP6 ADD SWAP4 SWAP2 DUP2 ADD SWAP2 PUSH1 0x1 ADD PUSH2 0x44A6 JUMP JUMPDEST POP SWAP2 SWAP9 SWAP8 POP POP POP POP POP POP POP POP JUMP JUMPDEST DUP1 MLOAD PUSH2 0x466 DUP2 PUSH2 0x4E22 JUMP JUMPDEST DUP1 MLOAD PUSH1 0x1 PUSH1 0x1 PUSH1 0x70 SHL SUB NOT DUP2 AND DUP2 EQ PUSH2 0x466 JUMPI PUSH1 0x0 DUP1 REVERT JUMPDEST DUP1 MLOAD PUSH1 0x1 PUSH1 0x1 PUSH1 0xF8 SHL SUB NOT DUP2 AND DUP2 EQ PUSH2 0x466 JUMPI PUSH1 0x0 DUP1 REVERT JUMPDEST DUP1 MLOAD PUSH1 0x1 PUSH1 0x1 PUSH1 0xD0 SHL SUB NOT DUP2 AND DUP2 EQ PUSH2 0x466 JUMPI PUSH1 0x0 DUP1 REVERT JUMPDEST DUP1 MLOAD PUSH1 0x4 DUP2 LT PUSH2 0x466 JUMPI PUSH1 0x0 DUP1 REVERT JUMPDEST PUSH1 0x0 PUSH1 0xC0 DUP3 DUP5 SUB SLT ISZERO PUSH2 0x45B7 JUMPI DUP1 DUP2 REVERT JUMPDEST PUSH1 0x40 MLOAD PUSH1 0x80 DUP2 ADD DUP2 DUP2 LT PUSH8 0xFFFFFFFFFFFFFFFF DUP3 GT OR ISZERO PUSH2 0x45D4 JUMPI INVALID JUMPDEST DUP1 PUSH1 0x40 MSTORE POP DUP1 SWAP2 POP DUP3 MLOAD PUSH2 0x45E7 DUP2 PUSH2 0x4E30 JUMP JUMPDEST DUP2 MSTORE PUSH1 0x20 DUP4 DUP2 ADD MLOAD SWAP1 DUP3 ADD MSTORE PUSH2 0x4600 DUP5 PUSH1 0x40 DUP6 ADD PUSH2 0x4748 JUMP JUMPDEST PUSH1 0x40 DUP3 ADD MSTORE PUSH1 0xA0 DUP4 ADD MLOAD PUSH1 0x60 DUP3 ADD MSTORE POP SWAP3 SWAP2 POP POP JUMP JUMPDEST PUSH1 0x0 PUSH1 0xA0 DUP3 DUP5 SUB SLT ISZERO PUSH2 0x4627 JUMPI DUP1 DUP2 REVERT JUMPDEST PUSH1 0x40 MLOAD PUSH1 0xA0 DUP2 ADD DUP2 DUP2 LT PUSH8 0xFFFFFFFFFFFFFFFF DUP3 GT OR ISZERO PUSH2 0x4644 JUMPI INVALID JUMPDEST DUP1 PUSH1 0x40 MSTORE POP DUP1 SWAP2 POP DUP3 MLOAD DUP2 MSTORE PUSH1 0x20 DUP4 ADD MLOAD PUSH1 0x20 DUP3 ADD MSTORE PUSH1 0x40 DUP4 ADD MLOAD PUSH1 0x40 DUP3 ADD MSTORE PUSH1 0x60 DUP4 ADD MLOAD PUSH1 0x60 DUP3 ADD MSTORE PUSH1 0x80 DUP4 ADD MLOAD PUSH1 0x80 DUP3 ADD MSTORE POP SWAP3 SWAP2 POP POP JUMP JUMPDEST PUSH1 0x0 PUSH2 0x340 DUP3 DUP5 SUB SLT ISZERO PUSH2 0x4691 JUMPI DUP1 DUP2 REVERT JUMPDEST PUSH2 0x160 PUSH2 0x469D DUP2 PUSH2 0x4DC8 JUMP JUMPDEST SWAP2 POP PUSH2 0x46A8 DUP4 PUSH2 0x4312 JUMP JUMPDEST DUP3 MSTORE PUSH1 0x20 DUP4 ADD MLOAD PUSH1 0x20 DUP4 ADD MSTORE PUSH1 0x40 DUP4 ADD MLOAD PUSH1 0x40 DUP4 ADD MSTORE PUSH1 0x60 DUP4 ADD MLOAD PUSH1 0x60 DUP4 ADD MSTORE PUSH1 0x80 DUP4 ADD MLOAD PUSH1 0x80 DUP4 ADD MSTORE PUSH2 0x46DE PUSH1 0xA0 DUP5 ADD PUSH2 0x457F JUMP JUMPDEST PUSH1 0xA0 DUP4 ADD MSTORE PUSH2 0x46F0 DUP5 PUSH1 0xC0 DUP6 ADD PUSH2 0x4616 JUMP JUMPDEST PUSH1 0xC0 DUP4 ADD MSTORE PUSH2 0x4701 DUP5 DUP3 DUP6 ADD PUSH2 0x4616 JUMP JUMPDEST PUSH1 0xE0 DUP4 ADD MSTORE POP PUSH2 0x4715 DUP4 PUSH2 0x200 DUP5 ADD PUSH2 0x4748 JUMP JUMPDEST PUSH2 0x100 DUP3 ADD MSTORE PUSH2 0x4729 DUP4 PUSH2 0x260 DUP5 ADD PUSH2 0x45A6 JUMP JUMPDEST PUSH2 0x120 DUP3 ADD MSTORE PUSH2 0x473C PUSH2 0x320 DUP4 ADD PUSH2 0x4544 JUMP JUMPDEST PUSH2 0x140 DUP3 ADD MSTORE SWAP3 SWAP2 POP POP JUMP JUMPDEST PUSH1 0x0 PUSH1 0x60 DUP3 DUP5 SUB SLT ISZERO PUSH2 0x4759 JUMPI DUP1 DUP2 REVERT JUMPDEST PUSH1 0x40 MLOAD PUSH1 0x60 DUP2 ADD DUP2 DUP2 LT PUSH8 0xFFFFFFFFFFFFFFFF DUP3 GT OR ISZERO PUSH2 0x4776 JUMPI INVALID JUMPDEST DUP1 PUSH1 0x40 MSTORE POP DUP1 SWAP2 POP DUP3 MLOAD DUP2 MSTORE PUSH1 0x20 DUP4 ADD MLOAD PUSH1 0x20 DUP3 ADD MSTORE PUSH1 0x40 DUP4 ADD MLOAD PUSH1 0x40 DUP3 ADD MSTORE POP SWAP3 SWAP2 POP POP JUMP JUMPDEST DUP1 CALLDATALOAD PUSH1 0x1 PUSH1 0x1 PUSH1 0x80 SHL SUB DUP2 AND DUP2 EQ PUSH2 0x466 JUMPI PUSH1 0x0 DUP1 REVERT JUMPDEST DUP1 MLOAD PUSH2 0x466 DUP2 PUSH2 0x4E30 JUMP JUMPDEST DUP1 MLOAD PUSH1 0xFF DUP2 AND DUP2 EQ PUSH2 0x466 JUMPI PUSH1 0x0 DUP1 REVERT JUMPDEST DUP1 CALLDATALOAD PUSH1 0x1 PUSH1 0x1 PUSH1 0x60 SHL SUB DUP2 AND DUP2 EQ PUSH2 0x466 JUMPI PUSH1 0x0 DUP1 REVERT JUMPDEST PUSH1 0x0 DUP1 PUSH1 0x0 DUP1 PUSH1 0x0 PUSH1 0xA0 DUP7 DUP9 SUB SLT ISZERO PUSH2 0x47FE JUMPI DUP1 DUP2 REVERT JUMPDEST DUP6 CALLDATALOAD PUSH2 0x4809 DUP2 PUSH2 0x4E0A JUMP JUMPDEST SWAP5 POP PUSH1 0x20 DUP7 ADD CALLDATALOAD PUSH2 0x4819 DUP2 PUSH2 0x4E30 JUMP JUMPDEST SWAP4 POP PUSH1 0x40 DUP7 ADD CALLDATALOAD PUSH2 0x4829 DUP2 PUSH2 0x4E30 JUMP JUMPDEST SWAP3 POP PUSH2 0x4837 PUSH1 0x60 DUP8 ADD PUSH2 0x479D JUMP JUMPDEST SWAP2 POP PUSH2 0x4845 PUSH1 0x80 DUP8 ADD PUSH2 0x47D0 JUMP JUMPDEST SWAP1 POP SWAP3 SWAP6 POP SWAP3 SWAP6 SWAP1 SWAP4 POP JUMP JUMPDEST PUSH1 0x0 DUP1 PUSH1 0x0 DUP1 PUSH1 0x0 DUP1 PUSH1 0x0 PUSH1 0xE0 DUP9 DUP11 SUB SLT ISZERO PUSH2 0x486B JUMPI DUP5 DUP6 REVERT JUMPDEST DUP8 CALLDATALOAD PUSH2 0x4876 DUP2 PUSH2 0x4E0A JUMP JUMPDEST SWAP7 POP PUSH1 0x20 DUP9 ADD CALLDATALOAD PUSH2 0x4886 DUP2 PUSH2 0x4E30 JUMP JUMPDEST SWAP6 POP PUSH1 0x40 DUP9 ADD CALLDATALOAD PUSH2 0x4896 DUP2 PUSH2 0x4E30 JUMP JUMPDEST SWAP5 POP PUSH2 0x48A4 PUSH1 0x60 DUP10 ADD PUSH2 0x479D JUMP JUMPDEST SWAP4 POP PUSH2 0x48B2 PUSH1 0x80 DUP10 ADD PUSH2 0x47D0 JUMP JUMPDEST SWAP3 POP PUSH1 0xA0 DUP9 ADD CALLDATALOAD PUSH2 0x48C2 DUP2 PUSH2 0x4E22 JUMP JUMPDEST SWAP2 POP PUSH1 0xC0 DUP9 ADD CALLDATALOAD PUSH2 0x48D2 DUP2 PUSH2 0x4E22 JUMP JUMPDEST DUP1 SWAP2 POP POP SWAP3 SWAP6 SWAP9 SWAP2 SWAP5 SWAP8 POP SWAP3 SWAP6 POP JUMP JUMPDEST PUSH1 0x0 DUP1 PUSH1 0x0 PUSH1 0x60 DUP5 DUP7 SUB SLT ISZERO PUSH2 0x48F6 JUMPI DUP1 DUP2 REVERT JUMPDEST DUP4 CALLDATALOAD PUSH2 0x4901 DUP2 PUSH2 0x4E0A JUMP JUMPDEST SWAP3 POP PUSH1 0x20 DUP5 ADD CALLDATALOAD PUSH2 0x4911 DUP2 PUSH2 0x4E30 JUMP JUMPDEST SWAP2 POP PUSH2 0x491F PUSH1 0x40 DUP6 ADD PUSH2 0x47D0 JUMP JUMPDEST SWAP1 POP SWAP3 POP SWAP3 POP SWAP3 JUMP JUMPDEST PUSH1 0x0 PUSH1 0x20 DUP1 DUP4 DUP6 SUB SLT ISZERO PUSH2 0x493A JUMPI DUP2 DUP3 REVERT JUMPDEST DUP3 MLOAD PUSH8 0xFFFFFFFFFFFFFFFF DUP1 DUP3 GT ISZERO PUSH2 0x4951 JUMPI DUP4 DUP5 REVERT JUMPDEST DUP2 DUP6 ADD SWAP2 POP DUP6 PUSH1 0x1F DUP4 ADD SLT PUSH2 0x4964 JUMPI DUP4 DUP5 REVERT JUMPDEST DUP2 MLOAD PUSH2 0x4972 PUSH2 0x433D DUP3 PUSH2 0x4DEC JUMP JUMPDEST DUP2 DUP2 MSTORE DUP5 DUP2 ADD SWAP1 DUP5 DUP7 ADD DUP8 JUMPDEST DUP5 DUP2 LT ISZERO PUSH2 0x4A38 JUMPI DUP2 MLOAD DUP8 ADD PUSH1 0xA0 DUP2 DUP14 SUB PUSH1 0x1F NOT ADD SLT ISZERO PUSH2 0x499D JUMPI DUP10 DUP11 REVERT JUMPDEST PUSH1 0x40 DUP1 MLOAD PUSH1 0xA0 DUP2 ADD DUP2 DUP2 LT DUP11 DUP3 GT OR ISZERO PUSH2 0x49B3 JUMPI INVALID JUMPDEST DUP3 MSTORE DUP3 DUP12 ADD MLOAD DUP10 DUP2 GT ISZERO PUSH2 0x49C5 JUMPI DUP13 DUP14 REVERT JUMPDEST PUSH2 0x49D3 DUP16 DUP14 DUP4 DUP8 ADD ADD PUSH2 0x431D JUMP JUMPDEST DUP3 MSTORE POP DUP2 DUP4 ADD MLOAD DUP10 DUP2 GT ISZERO PUSH2 0x49E6 JUMPI DUP13 DUP14 REVERT JUMPDEST PUSH2 0x49F4 DUP16 DUP14 DUP4 DUP8 ADD ADD PUSH2 0x4392 JUMP JUMPDEST DUP13 DUP4 ADD MSTORE POP PUSH1 0x60 DUP4 ADD MLOAD DUP3 DUP3 ADD MSTORE PUSH2 0x4A0E PUSH1 0x80 DUP5 ADD PUSH2 0x4312 JUMP JUMPDEST PUSH1 0x60 DUP3 ADD MSTORE PUSH2 0x4A1F PUSH1 0xA0 DUP5 ADD PUSH2 0x47BF JUMP JUMPDEST PUSH1 0x80 DUP3 ADD MSTORE DUP7 MSTORE POP POP SWAP3 DUP8 ADD SWAP3 SWAP1 DUP8 ADD SWAP1 PUSH1 0x1 ADD PUSH2 0x497E JUMP JUMPDEST POP SWAP1 SWAP10 SWAP9 POP POP POP POP POP POP POP POP POP JUMP JUMPDEST PUSH1 0x0 DUP1 PUSH1 0x0 DUP4 DUP6 SUB PUSH2 0x420 DUP2 SLT ISZERO PUSH2 0x4A5D JUMPI DUP2 DUP3 REVERT JUMPDEST PUSH1 0xC0 DUP2 SLT ISZERO PUSH2 0x4A6A JUMPI DUP2 DUP3 REVERT JUMPDEST POP PUSH1 0x40 MLOAD PUSH1 0xC0 DUP2 ADD PUSH8 0xFFFFFFFFFFFFFFFF DUP3 DUP3 LT DUP2 DUP4 GT OR ISZERO PUSH2 0x4A89 JUMPI INVALID JUMPDEST DUP2 PUSH1 0x40 MSTORE DUP7 MLOAD SWAP2 POP PUSH5 0xFFFFFFFFFF DUP3 AND DUP3 EQ PUSH2 0x4AA3 JUMPI DUP4 DUP5 REVERT JUMPDEST DUP2 DUP4 MSTORE PUSH2 0x4AB2 PUSH1 0x20 DUP9 ADD PUSH2 0x4567 JUMP JUMPDEST PUSH1 0x20 DUP5 ADD MSTORE PUSH2 0x4AC3 PUSH1 0x40 DUP9 ADD PUSH2 0x47BF JUMP JUMPDEST PUSH1 0x40 DUP5 ADD MSTORE PUSH2 0x4AD4 PUSH1 0x60 DUP9 ADD PUSH2 0x47B4 JUMP JUMPDEST PUSH1 0x60 DUP5 ADD MSTORE PUSH2 0x4AE5 PUSH1 0x80 DUP9 ADD PUSH2 0x454F JUMP JUMPDEST PUSH1 0x80 DUP5 ADD MSTORE PUSH2 0x4AF6 PUSH1 0xA0 DUP9 ADD PUSH2 0x4544 JUMP JUMPDEST PUSH1 0xA0 DUP5 ADD MSTORE DUP3 SWAP6 POP PUSH2 0x4B0B DUP9 PUSH1 0xC0 DUP10 ADD PUSH2 0x467F JUMP JUMPDEST SWAP5 POP PUSH2 0x400 DUP8 ADD MLOAD SWAP3 POP DUP1 DUP4 GT ISZERO PUSH2 0x4B21 JUMPI DUP4 DUP5 REVERT JUMPDEST POP POP PUSH2 0x4B2F DUP7 DUP3 DUP8 ADD PUSH2 0x4466 JUMP JUMPDEST SWAP2 POP POP SWAP3 POP SWAP3 POP SWAP3 JUMP JUMPDEST PUSH1 0x0 PUSH1 0x20 DUP3 DUP5 SUB SLT ISZERO PUSH2 0x4B4A JUMPI DUP1 DUP2 REVERT JUMPDEST POP MLOAD SWAP2 SWAP1 POP JUMP JUMPDEST PUSH1 0x0 DUP1 PUSH1 0x40 DUP4 DUP6 SUB SLT ISZERO PUSH2 0x4B63 JUMPI DUP2 DUP3 REVERT JUMPDEST POP POP DUP1 MLOAD PUSH1 0x20 SWAP1 SWAP2 ADD MLOAD SWAP1 SWAP3 SWAP1 SWAP2 POP JUMP JUMPDEST PUSH1 0x1 PUSH1 0x1 PUSH1 0xA0 SHL SUB SWAP2 SWAP1 SWAP2 AND DUP2 MSTORE PUSH1 0x20 ADD SWAP1 JUMP JUMPDEST PUSH1 0x1 PUSH1 0x1 PUSH1 0xA0 SHL SUB SWAP4 DUP5 AND DUP2 MSTORE SWAP2 SWAP1 SWAP3 AND PUSH1 0x20 DUP3 ADD MSTORE PUSH1 0x40 DUP2 ADD SWAP2 SWAP1 SWAP2 MSTORE PUSH1 0x60 ADD SWAP1 JUMP JUMPDEST PUSH1 0x1 PUSH1 0x1 PUSH1 0xA0 SHL SUB SWAP3 SWAP1 SWAP3 AND DUP3 MSTORE PUSH1 0x20 DUP3 ADD MSTORE PUSH1 0x40 ADD SWAP1 JUMP JUMPDEST PUSH1 0x1 PUSH1 0x1 PUSH1 0xA0 SHL SUB SWAP4 SWAP1 SWAP4 AND DUP4 MSTORE PUSH2 0xFFFF SWAP2 DUP3 AND PUSH1 0x20 DUP5 ADD MSTORE AND PUSH1 0x40 DUP3 ADD MSTORE PUSH1 0x60 ADD SWAP1 JUMP JUMPDEST PUSH1 0x1 PUSH1 0x1 PUSH1 0xA0 SHL SUB SWAP6 SWAP1 SWAP6 AND DUP6 MSTORE PUSH2 0xFFFF SWAP4 SWAP1 SWAP4 AND PUSH1 0x20 DUP6 ADD MSTORE PUSH1 0x40 DUP5 ADD SWAP2 SWAP1 SWAP2 MSTORE PUSH1 0x60 DUP4 ADD MSTORE PUSH1 0x80 DUP3 ADD MSTORE PUSH1 0xA0 ADD SWAP1 JUMP JUMPDEST SWAP2 DUP3 MSTORE PUSH1 0x20 DUP3 ADD MSTORE PUSH1 0x40 ADD SWAP1 JUMP JUMPDEST SWAP3 DUP4 MSTORE PUSH1 0x20 DUP4 ADD SWAP2 SWAP1 SWAP2 MSTORE PUSH1 0x40 DUP3 ADD MSTORE PUSH1 0x60 ADD SWAP1 JUMP JUMPDEST PUSH1 0x20 DUP1 DUP3 MSTORE PUSH1 0xD SWAP1 DUP3 ADD MSTORE PUSH13 0x139BC81B1BD8D85B081919589D PUSH1 0x9A SHL PUSH1 0x40 DUP3 ADD MSTORE PUSH1 0x60 ADD SWAP1 JUMP JUMPDEST PUSH1 0x20 DUP1 DUP3 MSTORE PUSH1 0xB SWAP1 DUP3 ADD MSTORE PUSH11 0x4554482042616C616E6365 PUSH1 0xA8 SHL PUSH1 0x40 DUP3 ADD MSTORE PUSH1 0x60 ADD SWAP1 JUMP JUMPDEST PUSH1 0x20 DUP1 DUP3 MSTORE PUSH1 0xF SWAP1 DUP3 ADD MSTORE PUSH15 0x4E6F205072696D6520426F72726F77 PUSH1 0x88 SHL PUSH1 0x40 DUP3 ADD MSTORE PUSH1 0x60 ADD SWAP1 JUMP JUMPDEST PUSH1 0x20 DUP1 DUP3 MSTORE PUSH1 0x7 SWAP1 DUP3 ADD MSTORE PUSH7 0x9CDE40C6C2E6D PUSH1 0xCB SHL PUSH1 0x40 DUP3 ADD MSTORE PUSH1 0x60 ADD SWAP1 JUMP JUMPDEST PUSH1 0x20 DUP1 DUP3 MSTORE PUSH1 0xD SWAP1 DUP3 ADD MSTORE PUSH13 0x139BC818DBDB1B185D195C985B PUSH1 0x9A SHL PUSH1 0x40 DUP3 ADD MSTORE PUSH1 0x60 ADD SWAP1 JUMP JUMPDEST PUSH1 0x20 DUP1 DUP3 MSTORE PUSH1 0x1C SWAP1 DUP3 ADD MSTORE PUSH32 0x446570726563617465643A2052656465656D20746F2063546F6B656E00000000 PUSH1 0x40 DUP3 ADD MSTORE PUSH1 0x60 ADD SWAP1 JUMP JUMPDEST PUSH1 0x20 DUP1 DUP3 MSTORE PUSH1 0xA SWAP1 DUP3 ADD MSTORE PUSH10 0x2732B390372A37B5B2B7 PUSH1 0xB1 SHL PUSH1 0x40 DUP3 ADD MSTORE PUSH1 0x60 ADD SWAP1 JUMP JUMPDEST PUSH1 0x20 DUP1 DUP3 MSTORE PUSH1 0xD SWAP1 DUP3 ADD MSTORE PUSH13 0x4F76657220446562742043617 PUSH1 0x9C SHL PUSH1 0x40 DUP3 ADD MSTORE PUSH1 0x60 ADD SWAP1 JUMP JUMPDEST PUSH2 0xFFFF SWAP3 SWAP1 SWAP3 AND DUP3 MSTORE PUSH1 0x20 DUP3 ADD MSTORE PUSH1 0x40 ADD SWAP1 JUMP JUMPDEST PUSH2 0xFFFF SWAP6 DUP7 AND DUP2 MSTORE SWAP4 SWAP1 SWAP5 AND PUSH1 0x20 DUP5 ADD MSTORE PUSH1 0x40 DUP4 ADD SWAP2 SWAP1 SWAP2 MSTORE PUSH1 0x60 DUP3 ADD MSTORE PUSH1 0x80 DUP2 ADD SWAP2 SWAP1 SWAP2 MSTORE PUSH1 0xA0 ADD SWAP1 JUMP JUMPDEST SWAP1 DUP2 MSTORE PUSH1 0x20 ADD SWAP1 JUMP JUMPDEST PUSH1 0x40 MLOAD DUP2 DUP2 ADD PUSH8 0xFFFFFFFFFFFFFFFF DUP2 GT DUP3 DUP3 LT OR ISZERO PUSH2 0x4DE4 JUMPI INVALID JUMPDEST PUSH1 0x40 MSTORE SWAP2 SWAP1 POP JUMP JUMPDEST PUSH1 0x0 PUSH8 0xFFFFFFFFFFFFFFFF DUP3 GT ISZERO PUSH2 0x4E00 JUMPI INVALID JUMPDEST POP PUSH1 0x20 SWAP1 DUP2 MUL ADD SWAP1 JUMP JUMPDEST PUSH1 0x1 PUSH1 0x1 PUSH1 0xA0 SHL SUB DUP2 AND DUP2 EQ PUSH2 0x4E1F JUMPI PUSH1 0x0 DUP1 REVERT JUMPDEST POP JUMP JUMPDEST DUP1 ISZERO ISZERO DUP2 EQ PUSH2 0x4E1F JUMPI PUSH1 0x0 DUP1 REVERT JUMPDEST PUSH2 0xFFFF DUP2 AND DUP2 EQ PUSH2 0x4E1F JUMPI PUSH1 0x0 DUP1 REVERT INVALID LOG2 PUSH5 0x6970667358 0x22 SLT KECCAK256 LT LOG0 0xEB 0xE9 STOP SUB SWAP7 0xEA SLT 0xE6 PUSH29 0x1E63041C393F9DF5CBCA2B42D26BD103BA2BA8EB8564736F6C63430007 MOD STOP CALLER ","sha1":"3c8009baae58082ed35ec367694ed7db287dc0b0","source":"// SPDX-License-Identifier: BSUL-1.1\npragma solidity =0.7.6;\npragma abicoder v2;\n\nimport {\n    BalanceState,\n    AccountContext,\n    LiquidationFactors\n} from \"../../global/Types.sol\";\nimport {SafeInt256} from \"../../math/SafeInt256.sol\";\n\nimport {AccountContextHandler} from \"../../internal/AccountContextHandler.sol\";\nimport {BalanceHandler} from \"../../internal/balances/BalanceHandler.sol\";\nimport {LiquidateCurrency} from \"../../internal/liquidation/LiquidateCurrency.sol\";\nimport {LiquidationHelpers} from \"../../internal/liquidation/LiquidationHelpers.sol\";\nimport {ActionGuards} from \"./ActionGuards.sol\";\n\nimport {FreeCollateralExternal} from \"../FreeCollateralExternal.sol\";\n\ncontract LiquidateCurrencyAction is ActionGuards {\n    using AccountContextHandler for AccountContext;\n    using BalanceHandler for BalanceState;\n    using SafeInt256 for int256;\n\n    event LiquidateLocalCurrency(\n        address indexed liquidated,\n        address indexed liquidator,\n        uint16 localCurrencyId,\n        int256 localPrimeCashFromLiquidator\n    );\n\n    event LiquidateCollateralCurrency(\n        address indexed liquidated,\n        address indexed liquidator,\n        uint16 localCurrencyId,\n        uint16 collateralCurrencyId,\n        int256 localPrimeCashFromLiquidator,\n        int256 netCollateralTransfer,\n        int256 netNTokenTransfer\n    );\n\n    /// @notice Calculates the net local currency required by the liquidator. This is a stateful method\n    /// because it may settle the liquidated account if required. However, it can be called using staticcall\n    /// off chain to determine the net local currency required before liquidating.\n    /// @param liquidateAccount account to liquidate\n    /// @param localCurrency id of the local currency\n    /// @param maxNTokenLiquidation maximum amount of nTokens to purchase (if any)\n    /// @return local currency required from liquidator (positive or negative)\n    /// @return local nTokens paid to liquidator (positive)\n    function calculateLocalCurrencyLiquidation(\n        address liquidateAccount,\n        uint16 localCurrency,\n        uint96 maxNTokenLiquidation\n    ) external nonReentrant returns (int256, int256) {\n        // prettier-ignore\n        (\n            int256 localPrimeCashFromLiquidator,\n            BalanceState memory localBalanceState,\n            /* AccountContext memory accountContext */\n        ) = _localCurrencyLiquidation(\n            liquidateAccount,\n            localCurrency,\n            maxNTokenLiquidation,\n            true // Is Calculation\n        );\n\n        return (\n            localPrimeCashFromLiquidator,\n            localBalanceState.netNTokenTransfer.neg()\n        );\n    }\n\n    /// @notice Liquidates an account using local currency only\n    /// @param liquidateAccount account to liquidate\n    /// @param localCurrency id of the local currency\n    /// @param maxNTokenLiquidation maximum amount of nTokens to purchase (if any)\n    /// @return local currency required from liquidator (positive or negative)\n    /// @return local nTokens paid to liquidator (positive)\n    function liquidateLocalCurrency(\n        address liquidateAccount,\n        uint16 localCurrency,\n        uint96 maxNTokenLiquidation\n    ) external payable nonReentrant returns (int256, int256) {\n        // Calculates liquidation results:\n        //  - ntoken transfers\n        //  - amount of cash paid to/from the liquidator\n        (\n            int256 localPrimeCashFromLiquidator,\n            BalanceState memory localBalanceState,\n            AccountContext memory accountContext\n        ) = _localCurrencyLiquidation(\n            liquidateAccount,\n            localCurrency,\n            maxNTokenLiquidation,\n            false // is not calculation\n        );\n\n        // Finalizes liquidator account changes:\n        //  - transfers local asset cash to/from liquidator wallet (not notional cash\n        //    balance). Exception is with tokens that have a transfer fee\n        //  - transfers ntokens to liquidator\n        AccountContext memory liquidatorContext = LiquidationHelpers.finalizeLiquidatorLocal(\n            msg.sender,\n            liquidateAccount,\n            localCurrency,\n            localPrimeCashFromLiquidator,\n            localBalanceState.netNTokenTransfer.neg()\n        );\n        // Finalizes liquidated account changes:\n        //   - credits additional change in localBalanceChange.netCashChange\n        //   - removes transferred nTokens from the account\n        //   - sets the account context\n        localBalanceState.finalizeNoWithdraw(liquidateAccount, accountContext);\n\n        emit LiquidateLocalCurrency(\n            liquidateAccount,\n            msg.sender,\n            localCurrency,\n            localPrimeCashFromLiquidator\n        );\n\n        liquidatorContext.setAccountContext(msg.sender);\n        accountContext.setAccountContext(liquidateAccount);\n\n        return (\n            localPrimeCashFromLiquidator,\n            localBalanceState.netNTokenTransfer.neg()\n        );\n    }\n\n    /// @notice Calculates local and collateral currency transfers for a liquidation. This is a stateful method\n    /// because it may settle the liquidated account if required. However, it can be called using staticcall\n    /// off chain to determine the net currency amounts required before liquidating.\n    /// @param liquidateAccount account to liquidate\n    /// @param localCurrency id of the local currency\n    /// @param collateralCurrency id of the collateral currency\n    /// @param maxCollateralLiquidation maximum amount of collateral (inclusive of cash and nTokens) to liquidate\n    /// @param maxNTokenLiquidation maximum amount of nTokens to purchase (if any)\n    /// @return local currency required from liquidator (negative)\n    /// @return collateral asset cash paid to liquidator (positive)\n    /// @return collateral nTokens paid to liquidator (positive)\n    function calculateCollateralCurrencyLiquidation(\n        address liquidateAccount,\n        uint16 localCurrency,\n        uint16 collateralCurrency,\n        uint128 maxCollateralLiquidation,\n        uint96 maxNTokenLiquidation\n    ) external nonReentrant returns (int256, int256, int256) {\n        // prettier-ignore\n        (\n            int256 localPrimeCashFromLiquidator,\n            BalanceState memory collateralBalanceState,\n            /* */\n        ) = _collateralCurrencyLiquidation(\n                liquidateAccount,\n                localCurrency,\n                collateralCurrency,\n                maxCollateralLiquidation,\n                maxNTokenLiquidation,\n                true // is calculation\n            );\n\n        return (\n            localPrimeCashFromLiquidator,\n            collateralBalanceState.netCashChange.neg(),\n            collateralBalanceState.netNTokenTransfer.neg()\n        );\n    }\n\n    /// @notice Liquidates an account between local and collateral currency\n    /// @param liquidateAccount account to liquidate\n    /// @param localCurrency id of the local currency\n    /// @param collateralCurrency id of the collateral currency\n    /// @param maxCollateralLiquidation maximum amount of collateral (inclusive of cash and nTokens) to liquidate\n    /// @param maxNTokenLiquidation maximum amount of nTokens to purchase (if any)\n    /// @param withdrawCollateral if true, withdraws collateral cash back to msg.sender\n    /// @param redeemToUnderlying if true, converts collateral cash from asset cash to underlying\n    /// @return local currency required from liquidator (negative)\n    /// @return collateral asset cash paid to liquidator (positive)\n    /// @return collateral nTokens paid to liquidator (positive)\n    function liquidateCollateralCurrency(\n        address liquidateAccount,\n        uint16 localCurrency,\n        uint16 collateralCurrency,\n        uint128 maxCollateralLiquidation,\n        uint96 maxNTokenLiquidation,\n        bool withdrawCollateral,\n        bool redeemToUnderlying\n    ) external payable nonReentrant returns (int256, int256, int256) {\n        // Calculates currency liquidation:\n        //  - amount of collateral cash balance given to liquidator\n        //  - liquidity tokens withdrawn\n        //  - collateral ntokens transferred to liquidator\n        (\n            int256 localPrimeCashFromLiquidator,\n            BalanceState memory collateralBalanceState,\n            AccountContext memory accountContext\n        ) = _collateralCurrencyLiquidation(\n            liquidateAccount,\n            localCurrency,\n            collateralCurrency,\n            maxCollateralLiquidation,\n            maxNTokenLiquidation,\n            false // is not calculation\n        );\n\n        // Finalizes the liquidator side of the transaction:\n        //   - transfers local asset cash from the liquidator wallet (exception\n        //     is if local asset has transfer fees)\n        //   - transfers collateral cash to liquidator, withdrawing and redeeming\n        //     if specified\n        //   - transfers ntokens to liquidator\n        //   - sets account context\n        AccountContext memory liquidatorContext = _finalizeLiquidatorBalances(\n            liquidateAccount,\n            localCurrency,\n            collateralCurrency,\n            localPrimeCashFromLiquidator,\n            collateralBalanceState,\n            withdrawCollateral,\n            redeemToUnderlying\n        );\n\n        // Finalize liquidated account local balance:\n        //   - adds local asset cash to the balance\n        LiquidationHelpers.finalizeLiquidatedLocalBalance(\n            liquidateAccount,\n            localCurrency,\n            accountContext,\n            localPrimeCashFromLiquidator\n        );\n\n        // Finalizes the liquidated account collateral balance:\n        //   - removes collateral cash paid to liquidator from cash balance\n        //   - removes collateral nTokens from the account\n        //   - skips the allowPrimeBorrow check\n        //   - sets the account context\n        collateralBalanceState.finalizeCollateralLiquidation(liquidateAccount, accountContext);\n\n        _emitCollateralEvent(\n            liquidateAccount,\n            localCurrency,\n            localPrimeCashFromLiquidator,\n            collateralBalanceState\n        );\n\n        accountContext.setAccountContext(liquidateAccount);\n        liquidatorContext.setAccountContext(msg.sender);\n\n        return (\n            localPrimeCashFromLiquidator,\n            collateralBalanceState.netCashChange.neg(),\n            collateralBalanceState.netNTokenTransfer.neg()\n        );\n    }\n\n    function _emitCollateralEvent(\n        address liquidateAccount,\n        uint16 localCurrency,\n        int256 localPrimeCashFromLiquidator,\n        BalanceState memory collateralBalanceState\n    ) private {\n        emit LiquidateCollateralCurrency(\n            liquidateAccount,\n            msg.sender,\n            localCurrency,\n            uint16(collateralBalanceState.currencyId),\n            localPrimeCashFromLiquidator,\n            collateralBalanceState.netCashChange.neg(),\n            collateralBalanceState.netNTokenTransfer.neg()\n        );\n    }\n\n    function _localCurrencyLiquidation(\n        address liquidateAccount,\n        uint16 localCurrency,\n        uint96 maxNTokenLiquidation,\n        bool isCalculation\n    ) internal returns (\n        int256 localPrimeCashFromLiquidator,\n        BalanceState memory localBalanceState,\n        AccountContext memory accountContext\n    ) {\n        LiquidationFactors memory factors;\n        (accountContext, factors, /* */) = LiquidationHelpers.preLiquidationActions(\n            liquidateAccount, localCurrency, 0\n        );\n\n        localBalanceState.loadBalanceState(liquidateAccount, localCurrency, accountContext);\n        factors.isCalculation = isCalculation;\n\n        localPrimeCashFromLiquidator = LiquidateCurrency.liquidateLocalCurrency(\n            maxNTokenLiquidation,\n            localBalanceState,\n            factors\n        );\n    }\n\n    function _collateralCurrencyLiquidation(\n        address liquidateAccount,\n        uint16 localCurrency,\n        uint16 collateralCurrency,\n        uint128 maxCollateralLiquidation,\n        uint96 maxNTokenLiquidation,\n        bool isCalculation\n    ) private returns (\n        int256 localPrimeCashFromLiquidator,\n        BalanceState memory collateralBalanceState,\n        AccountContext memory accountContext\n    ) {\n        LiquidationFactors memory factors;\n        (accountContext, factors, /* */) = LiquidationHelpers.preLiquidationActions(\n            liquidateAccount, localCurrency, collateralCurrency\n        );\n\n        collateralBalanceState.loadBalanceState(liquidateAccount, collateralCurrency, accountContext);\n        factors.isCalculation = isCalculation;\n\n        localPrimeCashFromLiquidator = LiquidateCurrency.liquidateCollateralCurrency(\n            maxCollateralLiquidation,\n            maxNTokenLiquidation,\n            collateralBalanceState,\n            factors\n        );\n    }\n\n    /// @dev Only used for collateral currency liquidation\n    function _finalizeLiquidatorBalances(\n        address liquidateAccount,\n        uint16 localCurrency,\n        uint16 collateralCurrency,\n        int256 localPrimeCashFromLiquidator,\n        BalanceState memory collateralBalanceState,\n        bool withdrawCollateral,\n        bool redeemToUnderlying\n    ) private returns (AccountContext memory liquidatorContext) {\n        // Will transfer local currency from the liquidator\n        liquidatorContext = LiquidationHelpers.finalizeLiquidatorLocal(\n            msg.sender,\n            liquidateAccount,\n            localCurrency,\n            localPrimeCashFromLiquidator,\n            0 // No nToken transfers\n        );\n\n        // Will transfer collateral to the liquidator\n        LiquidationHelpers.finalizeLiquidatorCollateral(\n            msg.sender,\n            liquidatorContext,\n            liquidateAccount,\n            collateralCurrency,\n            collateralBalanceState.netCashChange.neg(),\n            collateralBalanceState.netNTokenTransfer.neg(),\n            withdrawCollateral,\n            redeemToUnderlying\n        );\n    }\n\n    /// @notice Get a list of deployed library addresses (sorted by library name)\n    function getLibInfo() external pure returns (address) {\n        return (address(FreeCollateralExternal));\n    }\n}\n","sourcePath":"contracts/external/actions/LiquidateCurrencyAction.sol","type":"contract","deployment":{"address":"0x0ff45Fd2ad282B7E6E29dc10DbE6B3fc907284b0","chainid":"1","blockHeight":19353363}}