{"abi":[{"inputs":[{"internalType":"contract NotionalProxy","name":"notional","type":"address"}],"stateMutability":"nonpayable","type":"constructor","name":"constructor"},{"inputs":[],"name":"Notional","outputs":[{"internalType":"contract NotionalProxy","name":"","type":"address"}],"stateMutability":"view","type":"function"},{"inputs":[{"components":[{"internalType":"enum DepositActionType","name":"actionType","type":"uint8"},{"internalType":"uint16","name":"currencyId","type":"uint16"},{"internalType":"uint256","name":"depositActionAmount","type":"uint256"},{"internalType":"uint256","name":"withdrawAmountInternalPrecision","type":"uint256"},{"internalType":"bool","name":"withdrawEntireCashBalance","type":"bool"},{"internalType":"bool","name":"redeemToUnderlying","type":"bool"},{"internalType":"bytes32[]","name":"trades","type":"bytes32[]"}],"internalType":"struct BalanceActionWithTrades[]","name":"borrowAction","type":"tuple[]"},{"internalType":"uint256","name":"convertCashAmount","type":"uint256"}],"name":"doLeveragedNToken","outputs":[],"stateMutability":"payable","type":"function"},{"inputs":[],"name":"name","outputs":[{"internalType":"string","name":"","type":"string"}],"stateMutability":"view","type":"function"},{"inputs":[{"internalType":"address","name":"sender","type":"address"},{"internalType":"address","name":"account","type":"address"},{"internalType":"bytes","name":"callbackData","type":"bytes"}],"name":"notionalCallback","outputs":[],"stateMutability":"nonpayable","type":"function"}],"bytecode":"60a060405234801561001057600080fd5b50604051610c42380380610c4283398101604081905261002f91610044565b60601b6001600160601b031916608052610072565b600060208284031215610055578081fd5b81516001600160a01b038116811461006b578182fd5b9392505050565b60805160601c610b9f6100a36000398061010152806101df528061025f52806103fa52806104ee5250610b9f6000f3fe60806040526004361061003f5760003560e01c806306fdde0314610044578063221c3b4c1461006f578063a5b77b6b14610091578063aa1a0cae146100a6575b600080fd5b34801561005057600080fd5b506100596100c6565b6040516100669190610a7f565b60405180910390f35b34801561007b57600080fd5b506100846100ff565b6040516100669190610a6b565b6100a461009f36600461067c565b610123565b005b3480156100b257600080fd5b506100a46100c13660046105f3565b610254565b6040518060400160405280601881526020017f4c6576657261676564204e546f6b656e2041646170746572000000000000000081525081565b7f000000000000000000000000000000000000000000000000000000000000000081565b6001821461013057600080fd5b60028383600081811061013f57fe5b90506020028101906101519190610af2565b61015f9060208101906106f1565b600681111561016a57fe5b1461017457600080fd5b60008383600081811061018357fe5b90506020028101906101959190610af2565b6101a690604081019060200161078f565b826040516020016101b8929190610ade565b60408051601f1981840301815290829052635950d8e960e01b825291506001600160a01b037f00000000000000000000000000000000000000000000000000000000000000001690635950d8e990349061021c903390899089908890600401610876565b6000604051808303818588803b15801561023557600080fd5b505af1158015610249573d6000803e3d6000fd5b505050505050505050565b336001600160a01b037f00000000000000000000000000000000000000000000000000000000000000001614801561029457506001600160a01b03841630145b6102b95760405162461bcd60e51b81526004016102b090610a92565b60405180910390fd5b806102c35761055a565b60006102d18284018461073f565b60408051600180825281830190925291925060009190816020015b6102f4610560565b8152602001906001900390816102ec57905050905060068160008151811061031857fe5b602002602001015160000190600681111561032f57fe5b9081600681111561033c57fe5b90525081518151829060009061034e57fe5b60200260200101516020019061ffff16908161ffff168152505060008160008151811061037757fe5b6020026020010151606001818152505060008160008151811061039657fe5b602002602001015160800190151590811515815250506001816000815181106103bb57fe5b602002602001015160a00190151590811515815250508160200151600014156104b457815160405163fc1b134560e01b81526000916001600160a01b037f0000000000000000000000000000000000000000000000000000000000000000169163fc1b13459161042f918a90600401610ac1565b60606040518083038186803b15801561044757600080fd5b505afa15801561045b573d6000803e3d6000fd5b505050506040513d601f19601f8201168201806040525081019061047f9190610712565b505090506000811361049057600080fd5b808260008151811061049e57fe5b60200260200101516040018181525050506104d7565b8160200151816000815181106104c657fe5b602002602001015160400181815250505b604051635950d8e960e01b81526001600160a01b037f00000000000000000000000000000000000000000000000000000000000000001690635950d8e9906105259088908590600401610994565b600060405180830381600087803b15801561053f57600080fd5b505af1158015610553573d6000803e3d6000fd5b5050505050505b50505050565b6040805160e081019091528060008152602001600061ffff1681526020016000815260200160008152602001600015158152602001600015158152602001606081525090565b80356001600160a01b03811681146105bd57600080fd5b919050565b803580151581146105bd57600080fd5b8035600781106105bd57600080fd5b803561ffff811681146105bd57600080fd5b60008060008060608587031215610608578384fd5b610611856105a6565b935061061f602086016105a6565b9250604085013567ffffffffffffffff8082111561063b578384fd5b818701915087601f83011261064e578384fd5b81358181111561065c578485fd5b88602082850101111561066d578485fd5b95989497505060200194505050565b600080600060408486031215610690578283fd5b833567ffffffffffffffff808211156106a7578485fd5b818601915086601f8301126106ba578485fd5b8135818111156106c8578586fd5b87602080830285010111156106db578586fd5b6020928301989097509590910135949350505050565b600060208284031215610702578081fd5b61070b826105d2565b9392505050565b600080600060608486031215610726578283fd5b8351925060208401519150604084015190509250925092565b600060408284031215610750578081fd5b6040516040810181811067ffffffffffffffff8211171561076d57fe5b604052610779836105e1565b8152602083013560208201528091505092915050565b6000602082840312156107a0578081fd5b61070b826105e1565b81835260006001600160fb1b038311156107c1578081fd5b6020830280836020870137939093016020019283525090919050565b6000815180845260208085019450808401835b8381101561080c578151875295820195908201906001016107f0565b509495945050505050565b15159052565b60008151808452815b8181101561084257602081850181015186830182015201610826565b818111156108535782602083870101525b50601f01601f19169290920160200192915050565b6007811061087257fe5b9052565b6001600160a01b038516815260606020808301829052828201859052600091906080908185018782028601830189865b8a81101561097157888303607f190184528135368d900360de190181126108cb578889fd5b8c0160e06108e1856108dc846105d2565b610868565b61ffff6108ef8884016105e1565b16858801526040828101359086015288820135898601526109118883016105c2565b61091d89870182610817565b5060a061092b8184016105c2565b61093782880182610817565b505060c061094781840184610b1a565b9350828288015261095b83880185836107a9565b97890197965050509286019250506001016108a6565b50508681036040880152610985818961081d565b9b9a5050505050505050505050565b6001600160a01b0383168152606060208083018290528351838301819052600092916080918286019080830287018401888401875b83811015610a4957607f198a8403018552815160e06109e9858351610868565b8188015161ffff168589015260408083015190860152898201518a8601528882015115158986015260a08083015115159086015260c091820151918501819052610a35818601836107dd565b9688019694505050908501906001016109c9565b50508781036040890152610a5d8782610b11565b9a9950505050505050505050565b6001600160a01b0391909116815260200190565b60006020825261070b602083018461081d565b602080825260159082015274556e617574686f72697a65642063616c6c6261636b60581b604082015260600190565b61ffff9290921682526001600160a01b0316602082015260400190565b61ffff929092168252602082015260400190565b6000823560de19833603018112610b07578182fd5b9190910192915050565b90815260200190565b6000808335601e19843603018112610b30578283fd5b830160208101925035905067ffffffffffffffff811115610b5057600080fd5b602081023603831315610b6257600080fd5b925092905056fea264697066735822122087b06901dc7207739cf8e87cb4cce134362f7e0e52f3fc2e0f8e2b0000a6e39964736f6c63430007060033","bytecodeSha1":"daa685e281173cded5dea26e5d23b1153295d065","compiler":{"evm_version":"istanbul","optimizer":{"enabled":true,"runs":200},"version":"0.7.6+commit.7338295f"},"contractName":"LeveragedNTokenAdapter","language":"Solidity","natspec":{"kind":"dev","methods":{"doLeveragedNToken((uint8,uint16,uint256,uint256,bool,bool,bytes32[])[],uint256)":{"notice":"Batch Balance and Trade Action does not allow for margin deposit along with converting cash balances to nTokens. Therefore, we use two authorized callback calls here to deposit margin, borrow cash, and then convert some amount of cash to nTokens in a single transaction. These methods use the `WithCallback` method that allows for Notional to perform ERC20 transfers to take advantage of any existing token approvals."}},"version":1},"opcodes":"PUSH1 0x80 PUSH1 0x40 MSTORE PUSH1 0x4 CALLDATASIZE LT PUSH2 0x3F JUMPI PUSH1 0x0 CALLDATALOAD PUSH1 0xE0 SHR DUP1 PUSH4 0x6FDDE03 EQ PUSH2 0x44 JUMPI DUP1 PUSH4 0x221C3B4C EQ PUSH2 0x6F JUMPI DUP1 PUSH4 0xA5B77B6B EQ PUSH2 0x91 JUMPI DUP1 PUSH4 0xAA1A0CAE EQ PUSH2 0xA6 JUMPI JUMPDEST PUSH1 0x0 DUP1 REVERT JUMPDEST CALLVALUE DUP1 ISZERO PUSH2 0x50 JUMPI PUSH1 0x0 DUP1 REVERT JUMPDEST POP PUSH2 0x59 PUSH2 0xC6 JUMP JUMPDEST PUSH1 0x40 MLOAD PUSH2 0x66 SWAP2 SWAP1 PUSH2 0xA7F JUMP JUMPDEST PUSH1 0x40 MLOAD DUP1 SWAP2 SUB SWAP1 RETURN JUMPDEST CALLVALUE DUP1 ISZERO PUSH2 0x7B JUMPI PUSH1 0x0 DUP1 REVERT JUMPDEST POP PUSH2 0x84 PUSH2 0xFF JUMP JUMPDEST PUSH1 0x40 MLOAD PUSH2 0x66 SWAP2 SWAP1 PUSH2 0xA6B JUMP JUMPDEST PUSH2 0xA4 PUSH2 0x9F CALLDATASIZE PUSH1 0x4 PUSH2 0x67C JUMP JUMPDEST PUSH2 0x123 JUMP JUMPDEST STOP JUMPDEST CALLVALUE DUP1 ISZERO PUSH2 0xB2 JUMPI PUSH1 0x0 DUP1 REVERT JUMPDEST POP PUSH2 0xA4 PUSH2 0xC1 CALLDATASIZE PUSH1 0x4 PUSH2 0x5F3 JUMP JUMPDEST PUSH2 0x254 JUMP JUMPDEST PUSH1 0x40 MLOAD DUP1 PUSH1 0x40 ADD PUSH1 0x40 MSTORE DUP1 PUSH1 0x18 DUP2 MSTORE PUSH1 0x20 ADD PUSH32 0x4C6576657261676564204E546F6B656E20416461707465720000000000000000 DUP2 MSTORE POP DUP2 JUMP JUMPDEST PUSH32 0x0 DUP2 JUMP JUMPDEST PUSH1 0x1 DUP3 EQ PUSH2 0x130 JUMPI PUSH1 0x0 DUP1 REVERT JUMPDEST PUSH1 0x2 DUP4 DUP4 PUSH1 0x0 DUP2 DUP2 LT PUSH2 0x13F JUMPI INVALID JUMPDEST SWAP1 POP PUSH1 0x20 MUL DUP2 ADD SWAP1 PUSH2 0x151 SWAP2 SWAP1 PUSH2 0xAF2 JUMP JUMPDEST PUSH2 0x15F SWAP1 PUSH1 0x20 DUP2 ADD SWAP1 PUSH2 0x6F1 JUMP JUMPDEST PUSH1 0x6 DUP2 GT ISZERO PUSH2 0x16A JUMPI INVALID JUMPDEST EQ PUSH2 0x174 JUMPI PUSH1 0x0 DUP1 REVERT JUMPDEST PUSH1 0x0 DUP4 DUP4 PUSH1 0x0 DUP2 DUP2 LT PUSH2 0x183 JUMPI INVALID JUMPDEST SWAP1 POP PUSH1 0x20 MUL DUP2 ADD SWAP1 PUSH2 0x195 SWAP2 SWAP1 PUSH2 0xAF2 JUMP JUMPDEST PUSH2 0x1A6 SWAP1 PUSH1 0x40 DUP2 ADD SWAP1 PUSH1 0x20 ADD PUSH2 0x78F JUMP JUMPDEST DUP3 PUSH1 0x40 MLOAD PUSH1 0x20 ADD PUSH2 0x1B8 SWAP3 SWAP2 SWAP1 PUSH2 0xADE JUMP JUMPDEST PUSH1 0x40 DUP1 MLOAD PUSH1 0x1F NOT DUP2 DUP5 SUB ADD DUP2 MSTORE SWAP1 DUP3 SWAP1 MSTORE PUSH4 0x5950D8E9 PUSH1 0xE0 SHL DUP3 MSTORE SWAP2 POP PUSH1 0x1 PUSH1 0x1 PUSH1 0xA0 SHL SUB PUSH32 0x0 AND SWAP1 PUSH4 0x5950D8E9 SWAP1 CALLVALUE SWAP1 PUSH2 0x21C SWAP1 CALLER SWAP1 DUP10 SWAP1 DUP10 SWAP1 DUP9 SWAP1 PUSH1 0x4 ADD PUSH2 0x876 JUMP JUMPDEST PUSH1 0x0 PUSH1 0x40 MLOAD DUP1 DUP4 SUB DUP2 DUP6 DUP9 DUP1 EXTCODESIZE ISZERO DUP1 ISZERO PUSH2 0x235 JUMPI PUSH1 0x0 DUP1 REVERT JUMPDEST POP GAS CALL ISZERO DUP1 ISZERO PUSH2 0x249 JUMPI RETURNDATASIZE PUSH1 0x0 DUP1 RETURNDATACOPY RETURNDATASIZE PUSH1 0x0 REVERT JUMPDEST POP POP POP POP POP POP POP POP POP JUMP JUMPDEST CALLER PUSH1 0x1 PUSH1 0x1 PUSH1 0xA0 SHL SUB PUSH32 0x0 AND EQ DUP1 ISZERO PUSH2 0x294 JUMPI POP PUSH1 0x1 PUSH1 0x1 PUSH1 0xA0 SHL SUB DUP5 AND ADDRESS EQ JUMPDEST PUSH2 0x2B9 JUMPI PUSH1 0x40 MLOAD PUSH3 0x461BCD PUSH1 0xE5 SHL DUP2 MSTORE PUSH1 0x4 ADD PUSH2 0x2B0 SWAP1 PUSH2 0xA92 JUMP JUMPDEST PUSH1 0x40 MLOAD DUP1 SWAP2 SUB SWAP1 REVERT JUMPDEST DUP1 PUSH2 0x2C3 JUMPI PUSH2 0x55A JUMP JUMPDEST PUSH1 0x0 PUSH2 0x2D1 DUP3 DUP5 ADD DUP5 PUSH2 0x73F JUMP JUMPDEST PUSH1 0x40 DUP1 MLOAD PUSH1 0x1 DUP1 DUP3 MSTORE DUP2 DUP4 ADD SWAP1 SWAP3 MSTORE SWAP2 SWAP3 POP PUSH1 0x0 SWAP2 SWAP1 DUP2 PUSH1 0x20 ADD JUMPDEST PUSH2 0x2F4 PUSH2 0x560 JUMP JUMPDEST DUP2 MSTORE PUSH1 0x20 ADD SWAP1 PUSH1 0x1 SWAP1 SUB SWAP1 DUP2 PUSH2 0x2EC JUMPI SWAP1 POP POP SWAP1 POP PUSH1 0x6 DUP2 PUSH1 0x0 DUP2 MLOAD DUP2 LT PUSH2 0x318 JUMPI INVALID JUMPDEST PUSH1 0x20 MUL PUSH1 0x20 ADD ADD MLOAD PUSH1 0x0 ADD SWAP1 PUSH1 0x6 DUP2 GT ISZERO PUSH2 0x32F JUMPI INVALID JUMPDEST SWAP1 DUP2 PUSH1 0x6 DUP2 GT ISZERO PUSH2 0x33C JUMPI INVALID JUMPDEST SWAP1 MSTORE POP DUP2 MLOAD DUP2 MLOAD DUP3 SWAP1 PUSH1 0x0 SWAP1 PUSH2 0x34E JUMPI INVALID JUMPDEST PUSH1 0x20 MUL PUSH1 0x20 ADD ADD MLOAD PUSH1 0x20 ADD SWAP1 PUSH2 0xFFFF AND SWAP1 DUP2 PUSH2 0xFFFF AND DUP2 MSTORE POP POP PUSH1 0x0 DUP2 PUSH1 0x0 DUP2 MLOAD DUP2 LT PUSH2 0x377 JUMPI INVALID JUMPDEST PUSH1 0x20 MUL PUSH1 0x20 ADD ADD MLOAD PUSH1 0x60 ADD DUP2 DUP2 MSTORE POP POP PUSH1 0x0 DUP2 PUSH1 0x0 DUP2 MLOAD DUP2 LT PUSH2 0x396 JUMPI INVALID JUMPDEST PUSH1 0x20 MUL PUSH1 0x20 ADD ADD MLOAD PUSH1 0x80 ADD SWAP1 ISZERO ISZERO SWAP1 DUP2 ISZERO ISZERO DUP2 MSTORE POP POP PUSH1 0x1 DUP2 PUSH1 0x0 DUP2 MLOAD DUP2 LT PUSH2 0x3BB JUMPI INVALID JUMPDEST PUSH1 0x20 MUL PUSH1 0x20 ADD ADD MLOAD PUSH1 0xA0 ADD SWAP1 ISZERO ISZERO SWAP1 DUP2 ISZERO ISZERO DUP2 MSTORE POP POP DUP2 PUSH1 0x20 ADD MLOAD PUSH1 0x0 EQ ISZERO PUSH2 0x4B4 JUMPI DUP2 MLOAD PUSH1 0x40 MLOAD PUSH4 0xFC1B1345 PUSH1 0xE0 SHL DUP2 MSTORE PUSH1 0x0 SWAP2 PUSH1 0x1 PUSH1 0x1 PUSH1 0xA0 SHL SUB PUSH32 0x0 AND SWAP2 PUSH4 0xFC1B1345 SWAP2 PUSH2 0x42F SWAP2 DUP11 SWAP1 PUSH1 0x4 ADD PUSH2 0xAC1 JUMP JUMPDEST PUSH1 0x60 PUSH1 0x40 MLOAD DUP1 DUP4 SUB DUP2 DUP7 DUP1 EXTCODESIZE ISZERO DUP1 ISZERO PUSH2 0x447 JUMPI PUSH1 0x0 DUP1 REVERT JUMPDEST POP GAS STATICCALL ISZERO DUP1 ISZERO PUSH2 0x45B JUMPI RETURNDATASIZE PUSH1 0x0 DUP1 RETURNDATACOPY RETURNDATASIZE PUSH1 0x0 REVERT JUMPDEST POP POP POP POP PUSH1 0x40 MLOAD RETURNDATASIZE PUSH1 0x1F NOT PUSH1 0x1F DUP3 ADD AND DUP3 ADD DUP1 PUSH1 0x40 MSTORE POP DUP2 ADD SWAP1 PUSH2 0x47F SWAP2 SWAP1 PUSH2 0x712 JUMP JUMPDEST POP POP SWAP1 POP PUSH1 0x0 DUP2 SGT PUSH2 0x490 JUMPI PUSH1 0x0 DUP1 REVERT JUMPDEST DUP1 DUP3 PUSH1 0x0 DUP2 MLOAD DUP2 LT PUSH2 0x49E JUMPI INVALID JUMPDEST PUSH1 0x20 MUL PUSH1 0x20 ADD ADD MLOAD PUSH1 0x40 ADD DUP2 DUP2 MSTORE POP POP POP PUSH2 0x4D7 JUMP JUMPDEST DUP2 PUSH1 0x20 ADD MLOAD DUP2 PUSH1 0x0 DUP2 MLOAD DUP2 LT PUSH2 0x4C6 JUMPI INVALID JUMPDEST PUSH1 0x20 MUL PUSH1 0x20 ADD ADD MLOAD PUSH1 0x40 ADD DUP2 DUP2 MSTORE POP POP JUMPDEST PUSH1 0x40 MLOAD PUSH4 0x5950D8E9 PUSH1 0xE0 SHL DUP2 MSTORE PUSH1 0x1 PUSH1 0x1 PUSH1 0xA0 SHL SUB PUSH32 0x0 AND SWAP1 PUSH4 0x5950D8E9 SWAP1 PUSH2 0x525 SWAP1 DUP9 SWAP1 DUP6 SWAP1 PUSH1 0x4 ADD PUSH2 0x994 JUMP JUMPDEST PUSH1 0x0 PUSH1 0x40 MLOAD DUP1 DUP4 SUB DUP2 PUSH1 0x0 DUP8 DUP1 EXTCODESIZE ISZERO DUP1 ISZERO PUSH2 0x53F JUMPI PUSH1 0x0 DUP1 REVERT JUMPDEST POP GAS CALL ISZERO DUP1 ISZERO PUSH2 0x553 JUMPI RETURNDATASIZE PUSH1 0x0 DUP1 RETURNDATACOPY RETURNDATASIZE PUSH1 0x0 REVERT JUMPDEST POP POP POP POP POP POP JUMPDEST POP POP POP POP JUMP JUMPDEST PUSH1 0x40 DUP1 MLOAD PUSH1 0xE0 DUP2 ADD SWAP1 SWAP2 MSTORE DUP1 PUSH1 0x0 DUP2 MSTORE PUSH1 0x20 ADD PUSH1 0x0 PUSH2 0xFFFF AND DUP2 MSTORE PUSH1 0x20 ADD PUSH1 0x0 DUP2 MSTORE PUSH1 0x20 ADD PUSH1 0x0 DUP2 MSTORE PUSH1 0x20 ADD PUSH1 0x0 ISZERO ISZERO DUP2 MSTORE PUSH1 0x20 ADD PUSH1 0x0 ISZERO ISZERO DUP2 MSTORE PUSH1 0x20 ADD PUSH1 0x60 DUP2 MSTORE POP SWAP1 JUMP JUMPDEST DUP1 CALLDATALOAD PUSH1 0x1 PUSH1 0x1 PUSH1 0xA0 SHL SUB DUP2 AND DUP2 EQ PUSH2 0x5BD JUMPI PUSH1 0x0 DUP1 REVERT JUMPDEST SWAP2 SWAP1 POP JUMP JUMPDEST DUP1 CALLDATALOAD DUP1 ISZERO ISZERO DUP2 EQ PUSH2 0x5BD JUMPI PUSH1 0x0 DUP1 REVERT JUMPDEST DUP1 CALLDATALOAD PUSH1 0x7 DUP2 LT PUSH2 0x5BD JUMPI PUSH1 0x0 DUP1 REVERT JUMPDEST DUP1 CALLDATALOAD PUSH2 0xFFFF DUP2 AND DUP2 EQ PUSH2 0x5BD JUMPI PUSH1 0x0 DUP1 REVERT JUMPDEST PUSH1 0x0 DUP1 PUSH1 0x0 DUP1 PUSH1 0x60 DUP6 DUP8 SUB SLT ISZERO PUSH2 0x608 JUMPI DUP4 DUP5 REVERT JUMPDEST PUSH2 0x611 DUP6 PUSH2 0x5A6 JUMP JUMPDEST SWAP4 POP PUSH2 0x61F PUSH1 0x20 DUP7 ADD PUSH2 0x5A6 JUMP JUMPDEST SWAP3 POP PUSH1 0x40 DUP6 ADD CALLDATALOAD PUSH8 0xFFFFFFFFFFFFFFFF DUP1 DUP3 GT ISZERO PUSH2 0x63B JUMPI DUP4 DUP5 REVERT JUMPDEST DUP2 DUP8 ADD SWAP2 POP DUP8 PUSH1 0x1F DUP4 ADD SLT PUSH2 0x64E JUMPI DUP4 DUP5 REVERT JUMPDEST DUP2 CALLDATALOAD DUP2 DUP2 GT ISZERO PUSH2 0x65C JUMPI DUP5 DUP6 REVERT JUMPDEST DUP9 PUSH1 0x20 DUP3 DUP6 ADD ADD GT ISZERO PUSH2 0x66D JUMPI DUP5 DUP6 REVERT JUMPDEST SWAP6 SWAP9 SWAP5 SWAP8 POP POP PUSH1 0x20 ADD SWAP5 POP POP POP JUMP JUMPDEST PUSH1 0x0 DUP1 PUSH1 0x0 PUSH1 0x40 DUP5 DUP7 SUB SLT ISZERO PUSH2 0x690 JUMPI DUP3 DUP4 REVERT JUMPDEST DUP4 CALLDATALOAD PUSH8 0xFFFFFFFFFFFFFFFF DUP1 DUP3 GT ISZERO PUSH2 0x6A7 JUMPI DUP5 DUP6 REVERT JUMPDEST DUP2 DUP7 ADD SWAP2 POP DUP7 PUSH1 0x1F DUP4 ADD SLT PUSH2 0x6BA JUMPI DUP5 DUP6 REVERT JUMPDEST DUP2 CALLDATALOAD DUP2 DUP2 GT ISZERO PUSH2 0x6C8 JUMPI DUP6 DUP7 REVERT JUMPDEST DUP8 PUSH1 0x20 DUP1 DUP4 MUL DUP6 ADD ADD GT ISZERO PUSH2 0x6DB JUMPI DUP6 DUP7 REVERT JUMPDEST PUSH1 0x20 SWAP3 DUP4 ADD SWAP9 SWAP1 SWAP8 POP SWAP6 SWAP1 SWAP2 ADD CALLDATALOAD SWAP5 SWAP4 POP POP POP POP JUMP JUMPDEST PUSH1 0x0 PUSH1 0x20 DUP3 DUP5 SUB SLT ISZERO PUSH2 0x702 JUMPI DUP1 DUP2 REVERT JUMPDEST PUSH2 0x70B DUP3 PUSH2 0x5D2 JUMP JUMPDEST SWAP4 SWAP3 POP POP POP JUMP JUMPDEST PUSH1 0x0 DUP1 PUSH1 0x0 PUSH1 0x60 DUP5 DUP7 SUB SLT ISZERO PUSH2 0x726 JUMPI DUP3 DUP4 REVERT JUMPDEST DUP4 MLOAD SWAP3 POP PUSH1 0x20 DUP5 ADD MLOAD SWAP2 POP PUSH1 0x40 DUP5 ADD MLOAD SWAP1 POP SWAP3 POP SWAP3 POP SWAP3 JUMP JUMPDEST PUSH1 0x0 PUSH1 0x40 DUP3 DUP5 SUB SLT ISZERO PUSH2 0x750 JUMPI DUP1 DUP2 REVERT JUMPDEST PUSH1 0x40 MLOAD PUSH1 0x40 DUP2 ADD DUP2 DUP2 LT PUSH8 0xFFFFFFFFFFFFFFFF DUP3 GT OR ISZERO PUSH2 0x76D JUMPI INVALID JUMPDEST PUSH1 0x40 MSTORE PUSH2 0x779 DUP4 PUSH2 0x5E1 JUMP JUMPDEST DUP2 MSTORE PUSH1 0x20 DUP4 ADD CALLDATALOAD PUSH1 0x20 DUP3 ADD MSTORE DUP1 SWAP2 POP POP SWAP3 SWAP2 POP POP JUMP JUMPDEST PUSH1 0x0 PUSH1 0x20 DUP3 DUP5 SUB SLT ISZERO PUSH2 0x7A0 JUMPI DUP1 DUP2 REVERT JUMPDEST PUSH2 0x70B DUP3 PUSH2 0x5E1 JUMP JUMPDEST DUP2 DUP4 MSTORE PUSH1 0x0 PUSH1 0x1 PUSH1 0x1 PUSH1 0xFB SHL SUB DUP4 GT ISZERO PUSH2 0x7C1 JUMPI DUP1 DUP2 REVERT JUMPDEST PUSH1 0x20 DUP4 MUL DUP1 DUP4 PUSH1 0x20 DUP8 ADD CALLDATACOPY SWAP4 SWAP1 SWAP4 ADD PUSH1 0x20 ADD SWAP3 DUP4 MSTORE POP SWAP1 SWAP2 SWAP1 POP JUMP JUMPDEST PUSH1 0x0 DUP2 MLOAD DUP1 DUP5 MSTORE PUSH1 0x20 DUP1 DUP6 ADD SWAP5 POP DUP1 DUP5 ADD DUP4 JUMPDEST DUP4 DUP2 LT ISZERO PUSH2 0x80C JUMPI DUP2 MLOAD DUP8 MSTORE SWAP6 DUP3 ADD SWAP6 SWAP1 DUP3 ADD SWAP1 PUSH1 0x1 ADD PUSH2 0x7F0 JUMP JUMPDEST POP SWAP5 SWAP6 SWAP5 POP POP POP POP POP JUMP JUMPDEST ISZERO ISZERO SWAP1 MSTORE JUMP JUMPDEST PUSH1 0x0 DUP2 MLOAD DUP1 DUP5 MSTORE DUP2 JUMPDEST DUP2 DUP2 LT ISZERO PUSH2 0x842 JUMPI PUSH1 0x20 DUP2 DUP6 ADD DUP2 ADD MLOAD DUP7 DUP4 ADD DUP3 ADD MSTORE ADD PUSH2 0x826 JUMP JUMPDEST DUP2 DUP2 GT ISZERO PUSH2 0x853 JUMPI DUP3 PUSH1 0x20 DUP4 DUP8 ADD ADD MSTORE JUMPDEST POP PUSH1 0x1F ADD PUSH1 0x1F NOT AND SWAP3 SWAP1 SWAP3 ADD PUSH1 0x20 ADD SWAP3 SWAP2 POP POP JUMP JUMPDEST PUSH1 0x7 DUP2 LT PUSH2 0x872 JUMPI INVALID JUMPDEST SWAP1 MSTORE JUMP JUMPDEST PUSH1 0x1 PUSH1 0x1 PUSH1 0xA0 SHL SUB DUP6 AND DUP2 MSTORE PUSH1 0x60 PUSH1 0x20 DUP1 DUP4 ADD DUP3 SWAP1 MSTORE DUP3 DUP3 ADD DUP6 SWAP1 MSTORE PUSH1 0x0 SWAP2 SWAP1 PUSH1 0x80 SWAP1 DUP2 DUP6 ADD DUP8 DUP3 MUL DUP7 ADD DUP4 ADD DUP10 DUP7 JUMPDEST DUP11 DUP2 LT ISZERO PUSH2 0x971 JUMPI DUP9 DUP4 SUB PUSH1 0x7F NOT ADD DUP5 MSTORE DUP2 CALLDATALOAD CALLDATASIZE DUP14 SWAP1 SUB PUSH1 0xDE NOT ADD DUP2 SLT PUSH2 0x8CB JUMPI DUP9 DUP10 REVERT JUMPDEST DUP13 ADD PUSH1 0xE0 PUSH2 0x8E1 DUP6 PUSH2 0x8DC DUP5 PUSH2 0x5D2 JUMP JUMPDEST PUSH2 0x868 JUMP JUMPDEST PUSH2 0xFFFF PUSH2 0x8EF DUP9 DUP5 ADD PUSH2 0x5E1 JUMP JUMPDEST AND DUP6 DUP9 ADD MSTORE PUSH1 0x40 DUP3 DUP2 ADD CALLDATALOAD SWAP1 DUP7 ADD MSTORE DUP9 DUP3 ADD CALLDATALOAD DUP10 DUP7 ADD MSTORE PUSH2 0x911 DUP9 DUP4 ADD PUSH2 0x5C2 JUMP JUMPDEST PUSH2 0x91D DUP10 DUP8 ADD DUP3 PUSH2 0x817 JUMP JUMPDEST POP PUSH1 0xA0 PUSH2 0x92B DUP2 DUP5 ADD PUSH2 0x5C2 JUMP JUMPDEST PUSH2 0x937 DUP3 DUP9 ADD DUP3 PUSH2 0x817 JUMP JUMPDEST POP POP PUSH1 0xC0 PUSH2 0x947 DUP2 DUP5 ADD DUP5 PUSH2 0xB1A JUMP JUMPDEST SWAP4 POP DUP3 DUP3 DUP9 ADD MSTORE PUSH2 0x95B DUP4 DUP9 ADD DUP6 DUP4 PUSH2 0x7A9 JUMP JUMPDEST SWAP8 DUP10 ADD SWAP8 SWAP7 POP POP POP SWAP3 DUP7 ADD SWAP3 POP POP PUSH1 0x1 ADD PUSH2 0x8A6 JUMP JUMPDEST POP POP DUP7 DUP2 SUB PUSH1 0x40 DUP9 ADD MSTORE PUSH2 0x985 DUP2 DUP10 PUSH2 0x81D JUMP JUMPDEST SWAP12 SWAP11 POP POP POP POP POP POP POP POP POP POP POP JUMP JUMPDEST PUSH1 0x1 PUSH1 0x1 PUSH1 0xA0 SHL SUB DUP4 AND DUP2 MSTORE PUSH1 0x60 PUSH1 0x20 DUP1 DUP4 ADD DUP3 SWAP1 MSTORE DUP4 MLOAD DUP4 DUP4 ADD DUP2 SWAP1 MSTORE PUSH1 0x0 SWAP3 SWAP2 PUSH1 0x80 SWAP2 DUP3 DUP7 ADD SWAP1 DUP1 DUP4 MUL DUP8 ADD DUP5 ADD DUP9 DUP5 ADD DUP8 JUMPDEST DUP4 DUP2 LT ISZERO PUSH2 0xA49 JUMPI PUSH1 0x7F NOT DUP11 DUP5 SUB ADD DUP6 MSTORE DUP2 MLOAD PUSH1 0xE0 PUSH2 0x9E9 DUP6 DUP4 MLOAD PUSH2 0x868 JUMP JUMPDEST DUP2 DUP9 ADD MLOAD PUSH2 0xFFFF AND DUP6 DUP10 ADD MSTORE PUSH1 0x40 DUP1 DUP4 ADD MLOAD SWAP1 DUP7 ADD MSTORE DUP10 DUP3 ADD MLOAD DUP11 DUP7 ADD MSTORE DUP9 DUP3 ADD MLOAD ISZERO ISZERO DUP10 DUP7 ADD MSTORE PUSH1 0xA0 DUP1 DUP4 ADD MLOAD ISZERO ISZERO SWAP1 DUP7 ADD MSTORE PUSH1 0xC0 SWAP2 DUP3 ADD MLOAD SWAP2 DUP6 ADD DUP2 SWAP1 MSTORE PUSH2 0xA35 DUP2 DUP7 ADD DUP4 PUSH2 0x7DD JUMP JUMPDEST SWAP7 DUP9 ADD SWAP7 SWAP5 POP POP POP SWAP1 DUP6 ADD SWAP1 PUSH1 0x1 ADD PUSH2 0x9C9 JUMP JUMPDEST POP POP DUP8 DUP2 SUB PUSH1 0x40 DUP10 ADD MSTORE PUSH2 0xA5D DUP8 DUP3 PUSH2 0xB11 JUMP JUMPDEST SWAP11 SWAP10 POP POP POP POP POP POP POP POP POP POP JUMP JUMPDEST PUSH1 0x1 PUSH1 0x1 PUSH1 0xA0 SHL SUB SWAP2 SWAP1 SWAP2 AND DUP2 MSTORE PUSH1 0x20 ADD SWAP1 JUMP JUMPDEST PUSH1 0x0 PUSH1 0x20 DUP3 MSTORE PUSH2 0x70B PUSH1 0x20 DUP4 ADD DUP5 PUSH2 0x81D JUMP JUMPDEST PUSH1 0x20 DUP1 DUP3 MSTORE PUSH1 0x15 SWAP1 DUP3 ADD MSTORE PUSH21 0x556E617574686F72697A65642063616C6C6261636B PUSH1 0x58 SHL PUSH1 0x40 DUP3 ADD MSTORE PUSH1 0x60 ADD SWAP1 JUMP JUMPDEST PUSH2 0xFFFF SWAP3 SWAP1 SWAP3 AND DUP3 MSTORE PUSH1 0x1 PUSH1 0x1 PUSH1 0xA0 SHL SUB AND PUSH1 0x20 DUP3 ADD MSTORE PUSH1 0x40 ADD SWAP1 JUMP JUMPDEST PUSH2 0xFFFF SWAP3 SWAP1 SWAP3 AND DUP3 MSTORE PUSH1 0x20 DUP3 ADD MSTORE PUSH1 0x40 ADD SWAP1 JUMP JUMPDEST PUSH1 0x0 DUP3 CALLDATALOAD PUSH1 0xDE NOT DUP4 CALLDATASIZE SUB ADD DUP2 SLT PUSH2 0xB07 JUMPI DUP2 DUP3 REVERT JUMPDEST SWAP2 SWAP1 SWAP2 ADD SWAP3 SWAP2 POP POP JUMP JUMPDEST SWAP1 DUP2 MSTORE PUSH1 0x20 ADD SWAP1 JUMP JUMPDEST PUSH1 0x0 DUP1 DUP4 CALLDATALOAD PUSH1 0x1E NOT DUP5 CALLDATASIZE SUB ADD DUP2 SLT PUSH2 0xB30 JUMPI DUP3 DUP4 REVERT JUMPDEST DUP4 ADD PUSH1 0x20 DUP2 ADD SWAP3 POP CALLDATALOAD SWAP1 POP PUSH8 0xFFFFFFFFFFFFFFFF DUP2 GT ISZERO PUSH2 0xB50 JUMPI PUSH1 0x0 DUP1 REVERT JUMPDEST PUSH1 0x20 DUP2 MUL CALLDATASIZE SUB DUP4 SGT ISZERO PUSH2 0xB62 JUMPI PUSH1 0x0 DUP1 REVERT JUMPDEST SWAP3 POP SWAP3 SWAP1 POP JUMP INVALID LOG2 PUSH5 0x6970667358 0x22 SLT KECCAK256 DUP8 0xB0 PUSH10 0x1DC7207739CF8E87CB4 0xCC 0xE1 CALLVALUE CALLDATASIZE 0x2F PUSH31 0xE52F3FC2E0F8E2B0000A6E39964736F6C6343000706003300000000000000 ","sha1":"c01d9baa07cae4256b884fea97663ebdcbeb890d","source":"// SPDX-License-Identifier: BSUL-1.1\npragma solidity =0.7.6;\npragma abicoder v2;\n\nimport \"../../global/Types.sol\";\nimport \"../../../interfaces/notional/NotionalProxy.sol\";\nimport \"../../../interfaces/notional/NotionalCallback.sol\";\n\ncontract LeveragedNTokenAdapter is NotionalCallback {\n    struct EncodedData {\n        uint16 currencyId;\n        uint256 depositActionAmount;\n    }\n\n    string public constant name = \"Leveraged NToken Adapter\";\n    NotionalProxy public immutable Notional;\n\n    constructor(NotionalProxy notional) { Notional = notional; }\n\n    /**\n     * Batch Balance and Trade Action does not allow for margin deposit along with converting cash\n     * balances to nTokens. Therefore, we use two authorized callback calls here to deposit margin,\n     * borrow cash, and then convert some amount of cash to nTokens in a single transaction. These\n     * methods use the `WithCallback` method that allows for Notional to perform ERC20 transfers\n     * to take advantage of any existing token approvals.\n     */\n    function doLeveragedNToken(\n        BalanceActionWithTrades[] calldata borrowAction,\n        uint256 convertCashAmount\n    ) external payable {\n        require(borrowAction.length == 1); // dev: borrow action length\n        require(borrowAction[0].actionType == DepositActionType.DepositUnderlying); // dev: deposit type\n        bytes memory callbackData = abi.encode(borrowAction[0].currencyId, convertCashAmount);\n        Notional.batchBalanceAndTradeActionWithCallback{value: msg.value}(\n            msg.sender, borrowAction, callbackData\n        );\n    }\n\n    function notionalCallback(\n        address sender,\n        address account,\n        bytes calldata callbackData\n    ) external override {\n        require(msg.sender == address(Notional) && sender == address(this), \"Unauthorized callback\");\n        // If callback data is empty then exit, this is the second callback to convert cash balances\n        if (callbackData.length == 0) return;\n\n        EncodedData memory data = abi.decode(callbackData, (EncodedData));\n        BalanceActionWithTrades[] memory action = new BalanceActionWithTrades[](1);\n        action[0].actionType = DepositActionType.ConvertCashToNToken;\n        action[0].currencyId = data.currencyId;\n        action[0].withdrawAmountInternalPrecision = 0;\n        action[0].withdrawEntireCashBalance = false;\n        // NOTE: this must always be set to true in v3\n        action[0].redeemToUnderlying = true;\n\n        if (data.depositActionAmount == 0) {\n            (int256 cashBalance, /* */, /* */) = Notional.getAccountBalance(data.currencyId, account);\n            require(cashBalance > 0);\n            action[0].depositActionAmount = uint256(cashBalance);\n        } else {\n            action[0].depositActionAmount = data.depositActionAmount;\n        }\n\n        Notional.batchBalanceAndTradeActionWithCallback(account, action, \"\");\n    }\n}","sourcePath":"contracts/external/adapters/LeveragedNToken.sol","type":"contract","deployment":{"address":"0x25ee011B6Af5537eCD520f40CA759899a064CfCF","chainid":"1","blockHeight":19353427}}