{"abi":[{"stateMutability":"nonpayable","type":"fallback"},{"inputs":[{"internalType":"uint256","name":"id","type":"uint256"}],"name":"decodeERC1155Id","outputs":[{"internalType":"uint16","name":"currencyId","type":"uint16"},{"internalType":"uint256","name":"maturity","type":"uint256"},{"internalType":"uint256","name":"assetType","type":"uint256"},{"internalType":"address","name":"vaultAddress","type":"address"},{"internalType":"bool","name":"isfCashDebt","type":"bool"}],"stateMutability":"pure","type":"function"},{"inputs":[{"internalType":"uint16","name":"currencyId","type":"uint16"},{"internalType":"uint256","name":"maturity","type":"uint256"},{"internalType":"uint256","name":"assetType","type":"uint256"},{"internalType":"address","name":"vaultAddress","type":"address"},{"internalType":"bool","name":"isfCashDebt","type":"bool"}],"name":"encode","outputs":[{"internalType":"uint256","name":"","type":"uint256"}],"stateMutability":"pure","type":"function"},{"inputs":[{"internalType":"address","name":"account","type":"address"}],"name":"getAccount","outputs":[{"components":[{"internalType":"uint40","name":"nextSettleTime","type":"uint40"},{"internalType":"bytes1","name":"hasDebt","type":"bytes1"},{"internalType":"uint8","name":"assetArrayLength","type":"uint8"},{"internalType":"uint16","name":"bitmapCurrencyId","type":"uint16"},{"internalType":"bytes18","name":"activeCurrencies","type":"bytes18"},{"internalType":"bool","name":"allowPrimeBorrow","type":"bool"}],"internalType":"struct AccountContext","name":"accountContext","type":"tuple"},{"components":[{"internalType":"uint16","name":"currencyId","type":"uint16"},{"internalType":"int256","name":"cashBalance","type":"int256"},{"internalType":"int256","name":"nTokenBalance","type":"int256"},{"internalType":"uint256","name":"lastClaimTime","type":"uint256"},{"internalType":"uint256","name":"accountIncentiveDebt","type":"uint256"}],"internalType":"struct AccountBalance[]","name":"accountBalances","type":"tuple[]"},{"components":[{"internalType":"uint16","name":"currencyId","type":"uint16"},{"internalType":"uint256","name":"maturity","type":"uint256"},{"internalType":"uint256","name":"assetType","type":"uint256"},{"internalType":"int256","name":"notional","type":"int256"},{"internalType":"uint256","name":"storageSlot","type":"uint256"},{"internalType":"enum AssetStorageState","name":"storageState","type":"uint8"}],"internalType":"struct PortfolioAsset[]","name":"portfolio","type":"tuple[]"}],"stateMutability":"view","type":"function"},{"inputs":[{"internalType":"uint16","name":"currencyId","type":"uint16"},{"internalType":"address","name":"account","type":"address"}],"name":"getAccountBalance","outputs":[{"internalType":"int256","name":"cashBalance","type":"int256"},{"internalType":"int256","name":"nTokenBalance","type":"int256"},{"internalType":"uint256","name":"lastClaimTime","type":"uint256"}],"stateMutability":"view","type":"function"},{"inputs":[{"internalType":"address","name":"account","type":"address"}],"name":"getAccountContext","outputs":[{"components":[{"internalType":"uint40","name":"nextSettleTime","type":"uint40"},{"internalType":"bytes1","name":"hasDebt","type":"bytes1"},{"internalType":"uint8","name":"assetArrayLength","type":"uint8"},{"internalType":"uint16","name":"bitmapCurrencyId","type":"uint16"},{"internalType":"bytes18","name":"activeCurrencies","type":"bytes18"},{"internalType":"bool","name":"allowPrimeBorrow","type":"bool"}],"internalType":"struct AccountContext","name":"","type":"tuple"}],"stateMutability":"view","type":"function"},{"inputs":[{"internalType":"address","name":"account","type":"address"}],"name":"getAccountPortfolio","outputs":[{"components":[{"internalType":"uint16","name":"currencyId","type":"uint16"},{"internalType":"uint256","name":"maturity","type":"uint256"},{"internalType":"uint256","name":"assetType","type":"uint256"},{"internalType":"int256","name":"notional","type":"int256"},{"internalType":"uint256","name":"storageSlot","type":"uint256"},{"internalType":"enum AssetStorageState","name":"storageState","type":"uint8"}],"internalType":"struct PortfolioAsset[]","name":"","type":"tuple[]"}],"stateMutability":"view","type":"function"},{"inputs":[{"internalType":"uint16","name":"currencyId","type":"uint16"},{"internalType":"address","name":"account","type":"address"}],"name":"getAccountPrimeDebtBalance","outputs":[{"internalType":"int256","name":"debtBalance","type":"int256"}],"stateMutability":"view","type":"function"},{"inputs":[{"internalType":"uint16","name":"currencyId","type":"uint16"}],"name":"getActiveMarkets","outputs":[{"components":[{"internalType":"bytes32","name":"storageSlot","type":"bytes32"},{"internalType":"uint256","name":"maturity","type":"uint256"},{"internalType":"int256","name":"totalfCash","type":"int256"},{"internalType":"int256","name":"totalPrimeCash","type":"int256"},{"internalType":"int256","name":"totalLiquidity","type":"int256"},{"internalType":"uint256","name":"lastImpliedRate","type":"uint256"},{"internalType":"uint256","name":"oracleRate","type":"uint256"},{"internalType":"uint256","name":"previousTradeTime","type":"uint256"}],"internalType":"struct MarketParameters[]","name":"","type":"tuple[]"}],"stateMutability":"view","type":"function"},{"inputs":[{"internalType":"uint16","name":"currencyId","type":"uint16"},{"internalType":"uint32","name":"blockTime","type":"uint32"}],"name":"getActiveMarketsAtBlockTime","outputs":[{"components":[{"internalType":"bytes32","name":"storageSlot","type":"bytes32"},{"internalType":"uint256","name":"maturity","type":"uint256"},{"internalType":"int256","name":"totalfCash","type":"int256"},{"internalType":"int256","name":"totalPrimeCash","type":"int256"},{"internalType":"int256","name":"totalLiquidity","type":"int256"},{"internalType":"uint256","name":"lastImpliedRate","type":"uint256"},{"internalType":"uint256","name":"oracleRate","type":"uint256"},{"internalType":"uint256","name":"previousTradeTime","type":"uint256"}],"internalType":"struct MarketParameters[]","name":"","type":"tuple[]"}],"stateMutability":"view","type":"function"},{"inputs":[{"internalType":"address","name":"account","type":"address"},{"internalType":"uint16","name":"currencyId","type":"uint16"}],"name":"getAssetsBitmap","outputs":[{"internalType":"bytes32","name":"","type":"bytes32"}],"stateMutability":"view","type":"function"},{"inputs":[{"internalType":"address","name":"callback","type":"address"}],"name":"getAuthorizedCallbackContractStatus","outputs":[{"internalType":"bool","name":"isAuthorized","type":"bool"}],"stateMutability":"view","type":"function"},{"inputs":[{"internalType":"uint16","name":"currencyId","type":"uint16"},{"internalType":"address","name":"account","type":"address"}],"name":"getBalanceOfPrimeCash","outputs":[{"internalType":"int256","name":"cashBalance","type":"int256"}],"stateMutability":"view","type":"function"},{"inputs":[{"internalType":"uint16","name":"currencyId","type":"uint16"}],"name":"getCashGroup","outputs":[{"components":[{"internalType":"uint8","name":"maxMarketIndex","type":"uint8"},{"internalType":"uint8","name":"rateOracleTimeWindow5Min","type":"uint8"},{"internalType":"uint8","name":"maxDiscountFactor5BPS","type":"uint8"},{"internalType":"uint8","name":"reserveFeeShare","type":"uint8"},{"internalType":"uint8","name":"debtBuffer25BPS","type":"uint8"},{"internalType":"uint8","name":"fCashHaircut25BPS","type":"uint8"},{"internalType":"uint8","name":"minOracleRate25BPS","type":"uint8"},{"internalType":"uint8","name":"liquidationfCashHaircut25BPS","type":"uint8"},{"internalType":"uint8","name":"liquidationDebtBuffer25BPS","type":"uint8"},{"internalType":"uint8","name":"maxOracleRate25BPS","type":"uint8"}],"internalType":"struct CashGroupSettings","name":"","type":"tuple"}],"stateMutability":"view","type":"function"},{"inputs":[{"internalType":"uint16","name":"currencyId","type":"uint16"}],"name":"getCashGroupAndAssetRate","outputs":[{"components":[{"internalType":"uint8","name":"maxMarketIndex","type":"uint8"},{"internalType":"uint8","name":"rateOracleTimeWindow5Min","type":"uint8"},{"internalType":"uint8","name":"maxDiscountFactor5BPS","type":"uint8"},{"internalType":"uint8","name":"reserveFeeShare","type":"uint8"},{"internalType":"uint8","name":"debtBuffer25BPS","type":"uint8"},{"internalType":"uint8","name":"fCashHaircut25BPS","type":"uint8"},{"internalType":"uint8","name":"minOracleRate25BPS","type":"uint8"},{"internalType":"uint8","name":"liquidationfCashHaircut25BPS","type":"uint8"},{"internalType":"uint8","name":"liquidationDebtBuffer25BPS","type":"uint8"},{"internalType":"uint8","name":"maxOracleRate25BPS","type":"uint8"}],"internalType":"struct CashGroupSettings","name":"cashGroup","type":"tuple"},{"components":[{"internalType":"contract AssetRateAdapter","name":"rateOracle","type":"address"},{"internalType":"int256","name":"rate","type":"int256"},{"internalType":"int256","name":"underlyingDecimals","type":"int256"}],"internalType":"struct Deprecated_AssetRateParameters","name":"assetRate","type":"tuple"}],"stateMutability":"view","type":"function"},{"inputs":[{"internalType":"uint16","name":"currencyId","type":"uint16"}],"name":"getCurrency","outputs":[{"components":[{"internalType":"address","name":"tokenAddress","type":"address"},{"internalType":"bool","name":"hasTransferFee","type":"bool"},{"internalType":"int256","name":"decimals","type":"int256"},{"internalType":"enum TokenType","name":"tokenType","type":"uint8"},{"internalType":"uint256","name":"deprecated_maxCollateralBalance","type":"uint256"}],"internalType":"struct Token","name":"assetToken","type":"tuple"},{"components":[{"internalType":"address","name":"tokenAddress","type":"address"},{"internalType":"bool","name":"hasTransferFee","type":"bool"},{"internalType":"int256","name":"decimals","type":"int256"},{"internalType":"enum TokenType","name":"tokenType","type":"uint8"},{"internalType":"uint256","name":"deprecated_maxCollateralBalance","type":"uint256"}],"internalType":"struct Token","name":"underlyingToken","type":"tuple"}],"stateMutability":"view","type":"function"},{"inputs":[{"internalType":"uint16","name":"currencyId","type":"uint16"}],"name":"getCurrencyAndRates","outputs":[{"components":[{"internalType":"address","name":"tokenAddress","type":"address"},{"internalType":"bool","name":"hasTransferFee","type":"bool"},{"internalType":"int256","name":"decimals","type":"int256"},{"internalType":"enum TokenType","name":"tokenType","type":"uint8"},{"internalType":"uint256","name":"deprecated_maxCollateralBalance","type":"uint256"}],"internalType":"struct Token","name":"assetToken","type":"tuple"},{"components":[{"internalType":"address","name":"tokenAddress","type":"address"},{"internalType":"bool","name":"hasTransferFee","type":"bool"},{"internalType":"int256","name":"decimals","type":"int256"},{"internalType":"enum TokenType","name":"tokenType","type":"uint8"},{"internalType":"uint256","name":"deprecated_maxCollateralBalance","type":"uint256"}],"internalType":"struct Token","name":"underlyingToken","type":"tuple"},{"components":[{"internalType":"int256","name":"rateDecimals","type":"int256"},{"internalType":"int256","name":"rate","type":"int256"},{"internalType":"int256","name":"buffer","type":"int256"},{"internalType":"int256","name":"haircut","type":"int256"},{"internalType":"int256","name":"liquidationDiscount","type":"int256"}],"internalType":"struct ETHRate","name":"ethRate","type":"tuple"},{"components":[{"internalType":"contract AssetRateAdapter","name":"rateOracle","type":"address"},{"internalType":"int256","name":"rate","type":"int256"},{"internalType":"int256","name":"underlyingDecimals","type":"int256"}],"internalType":"struct Deprecated_AssetRateParameters","name":"assetRate","type":"tuple"}],"stateMutability":"view","type":"function"},{"inputs":[{"internalType":"address","name":"tokenAddress","type":"address"}],"name":"getCurrencyId","outputs":[{"internalType":"uint16","name":"currencyId","type":"uint16"}],"stateMutability":"view","type":"function"},{"inputs":[{"internalType":"uint16","name":"currencyId","type":"uint16"}],"name":"getDepositParameters","outputs":[{"internalType":"int256[]","name":"depositShares","type":"int256[]"},{"internalType":"int256[]","name":"leverageThresholds","type":"int256[]"}],"stateMutability":"view","type":"function"},{"inputs":[{"internalType":"address","name":"account","type":"address"}],"name":"getFreeCollateral","outputs":[{"internalType":"int256","name":"","type":"int256"},{"internalType":"int256[]","name":"","type":"int256[]"}],"stateMutability":"view","type":"function"},{"inputs":[{"internalType":"address","name":"operator","type":"address"}],"name":"getGlobalTransferOperatorStatus","outputs":[{"internalType":"bool","name":"isAuthorized","type":"bool"}],"stateMutability":"view","type":"function"},{"inputs":[{"internalType":"uint16","name":"currencyId","type":"uint16"}],"name":"getInitializationParameters","outputs":[{"internalType":"int256[]","name":"deprecated_annualizedAnchorRates","type":"int256[]"},{"internalType":"int256[]","name":"proportions","type":"int256[]"}],"stateMutability":"view","type":"function"},{"inputs":[{"internalType":"uint16","name":"currencyId","type":"uint16"}],"name":"getInterestRateCurve","outputs":[{"components":[{"internalType":"uint256","name":"kinkUtilization1","type":"uint256"},{"internalType":"uint256","name":"kinkUtilization2","type":"uint256"},{"internalType":"uint256","name":"kinkRate1","type":"uint256"},{"internalType":"uint256","name":"kinkRate2","type":"uint256"},{"internalType":"uint256","name":"maxRate","type":"uint256"},{"internalType":"uint256","name":"minFeeRate","type":"uint256"},{"internalType":"uint256","name":"maxFeeRate","type":"uint256"},{"internalType":"uint256","name":"feeRatePercent","type":"uint256"}],"internalType":"struct InterestRateParameters[]","name":"nextInterestRateCurve","type":"tuple[]"},{"components":[{"internalType":"uint256","name":"kinkUtilization1","type":"uint256"},{"internalType":"uint256","name":"kinkUtilization2","type":"uint256"},{"internalType":"uint256","name":"kinkRate1","type":"uint256"},{"internalType":"uint256","name":"kinkRate2","type":"uint256"},{"internalType":"uint256","name":"maxRate","type":"uint256"},{"internalType":"uint256","name":"minFeeRate","type":"uint256"},{"internalType":"uint256","name":"maxFeeRate","type":"uint256"},{"internalType":"uint256","name":"feeRatePercent","type":"uint256"}],"internalType":"struct InterestRateParameters[]","name":"activeInterestRateCurve","type":"tuple[]"}],"stateMutability":"view","type":"function"},{"inputs":[],"name":"getLibInfo","outputs":[{"internalType":"address","name":"","type":"address"}],"stateMutability":"pure","type":"function"},{"inputs":[{"internalType":"uint16","name":"currencyId","type":"uint16"},{"internalType":"uint256","name":"maturity","type":"uint256"},{"internalType":"uint256","name":"settlementDate","type":"uint256"}],"name":"getMarket","outputs":[{"components":[{"internalType":"bytes32","name":"storageSlot","type":"bytes32"},{"internalType":"uint256","name":"maturity","type":"uint256"},{"internalType":"int256","name":"totalfCash","type":"int256"},{"internalType":"int256","name":"totalPrimeCash","type":"int256"},{"internalType":"int256","name":"totalLiquidity","type":"int256"},{"internalType":"uint256","name":"lastImpliedRate","type":"uint256"},{"internalType":"uint256","name":"oracleRate","type":"uint256"},{"internalType":"uint256","name":"previousTradeTime","type":"uint256"}],"internalType":"struct MarketParameters","name":"","type":"tuple"}],"stateMutability":"view","type":"function"},{"inputs":[],"name":"getMaxCurrencyId","outputs":[{"internalType":"uint16","name":"","type":"uint16"}],"stateMutability":"view","type":"function"},{"inputs":[{"internalType":"address","name":"tokenAddress","type":"address"}],"name":"getNTokenAccount","outputs":[{"internalType":"uint16","name":"currencyId","type":"uint16"},{"internalType":"uint256","name":"totalSupply","type":"uint256"},{"internalType":"uint256","name":"incentiveAnnualEmissionRate","type":"uint256"},{"internalType":"uint256","name":"lastInitializedTime","type":"uint256"},{"internalType":"bytes6","name":"nTokenParameters","type":"bytes6"},{"internalType":"int256","name":"cashBalance","type":"int256"},{"internalType":"uint256","name":"accumulatedNOTEPerNToken","type":"uint256"},{"internalType":"uint256","name":"lastAccumulatedTime","type":"uint256"}],"stateMutability":"view","type":"function"},{"inputs":[{"internalType":"address","name":"tokenAddress","type":"address"}],"name":"getNTokenPortfolio","outputs":[{"components":[{"internalType":"uint16","name":"currencyId","type":"uint16"},{"internalType":"uint256","name":"maturity","type":"uint256"},{"internalType":"uint256","name":"assetType","type":"uint256"},{"internalType":"int256","name":"notional","type":"int256"},{"internalType":"uint256","name":"storageSlot","type":"uint256"},{"internalType":"enum AssetStorageState","name":"storageState","type":"uint8"}],"internalType":"struct PortfolioAsset[]","name":"liquidityTokens","type":"tuple[]"},{"components":[{"internalType":"uint16","name":"currencyId","type":"uint16"},{"internalType":"uint256","name":"maturity","type":"uint256"},{"internalType":"uint256","name":"assetType","type":"uint256"},{"internalType":"int256","name":"notional","type":"int256"},{"internalType":"uint256","name":"storageSlot","type":"uint256"},{"internalType":"enum AssetStorageState","name":"storageState","type":"uint8"}],"internalType":"struct PortfolioAsset[]","name":"netfCashAssets","type":"tuple[]"}],"stateMutability":"view","type":"function"},{"inputs":[],"name":"getNoteToken","outputs":[{"internalType":"address","name":"","type":"address"}],"stateMutability":"pure","type":"function"},{"inputs":[],"name":"getOwnershipStatus","outputs":[{"internalType":"address","name":"","type":"address"},{"internalType":"address","name":"","type":"address"}],"stateMutability":"view","type":"function"},{"inputs":[{"internalType":"uint16","name":"currencyId","type":"uint16"}],"name":"getPrimeCashHoldingsOracle","outputs":[{"internalType":"address","name":"","type":"address"}],"stateMutability":"view","type":"function"},{"inputs":[{"internalType":"uint16","name":"currencyId","type":"uint16"},{"internalType":"uint256","name":"blockTime","type":"uint256"}],"name":"getPrimeFactors","outputs":[{"components":[{"internalType":"int256","name":"supplyFactor","type":"int256"},{"internalType":"int256","name":"debtFactor","type":"int256"},{"internalType":"uint256","name":"oracleSupplyRate","type":"uint256"}],"internalType":"struct PrimeRate","name":"pr","type":"tuple"},{"components":[{"internalType":"uint256","name":"lastAccrueTime","type":"uint256"},{"internalType":"uint256","name":"totalPrimeSupply","type":"uint256"},{"internalType":"uint256","name":"totalPrimeDebt","type":"uint256"},{"internalType":"uint256","name":"oracleSupplyRate","type":"uint256"},{"internalType":"uint256","name":"lastTotalUnderlyingValue","type":"uint256"},{"internalType":"uint256","name":"underlyingScalar","type":"uint256"},{"internalType":"uint256","name":"supplyScalar","type":"uint256"},{"internalType":"uint256","name":"debtScalar","type":"uint256"},{"internalType":"uint256","name":"rateOracleTimeWindow","type":"uint256"}],"internalType":"struct PrimeCashFactors","name":"factors","type":"tuple"},{"internalType":"uint256","name":"maxUnderlyingSupply","type":"uint256"},{"internalType":"uint256","name":"totalUnderlyingSupply","type":"uint256"},{"internalType":"uint256","name":"maxUnderlyingDebt","type":"uint256"},{"internalType":"uint256","name":"totalUnderlyingDebt","type":"uint256"}],"stateMutability":"view","type":"function"},{"inputs":[{"internalType":"uint16","name":"currencyId","type":"uint16"}],"name":"getPrimeFactorsStored","outputs":[{"components":[{"internalType":"uint256","name":"lastAccrueTime","type":"uint256"},{"internalType":"uint256","name":"totalPrimeSupply","type":"uint256"},{"internalType":"uint256","name":"totalPrimeDebt","type":"uint256"},{"internalType":"uint256","name":"oracleSupplyRate","type":"uint256"},{"internalType":"uint256","name":"lastTotalUnderlyingValue","type":"uint256"},{"internalType":"uint256","name":"underlyingScalar","type":"uint256"},{"internalType":"uint256","name":"supplyScalar","type":"uint256"},{"internalType":"uint256","name":"debtScalar","type":"uint256"},{"internalType":"uint256","name":"rateOracleTimeWindow","type":"uint256"}],"internalType":"struct PrimeCashFactors","name":"","type":"tuple"}],"stateMutability":"view","type":"function"},{"inputs":[{"internalType":"uint16","name":"currencyId","type":"uint16"}],"name":"getPrimeInterestRate","outputs":[{"internalType":"uint256","name":"annualDebtRatePreFee","type":"uint256"},{"internalType":"uint256","name":"annualDebtRatePostFee","type":"uint256"},{"internalType":"uint256","name":"annualSupplyRate","type":"uint256"}],"stateMutability":"view","type":"function"},{"inputs":[{"internalType":"uint16","name":"currencyId","type":"uint16"}],"name":"getPrimeInterestRateCurve","outputs":[{"components":[{"internalType":"uint256","name":"kinkUtilization1","type":"uint256"},{"internalType":"uint256","name":"kinkUtilization2","type":"uint256"},{"internalType":"uint256","name":"kinkRate1","type":"uint256"},{"internalType":"uint256","name":"kinkRate2","type":"uint256"},{"internalType":"uint256","name":"maxRate","type":"uint256"},{"internalType":"uint256","name":"minFeeRate","type":"uint256"},{"internalType":"uint256","name":"maxFeeRate","type":"uint256"},{"internalType":"uint256","name":"feeRatePercent","type":"uint256"}],"internalType":"struct InterestRateParameters","name":"","type":"tuple"}],"stateMutability":"view","type":"function"},{"inputs":[{"internalType":"uint16","name":"currencyId","type":"uint16"}],"name":"getRateStorage","outputs":[{"components":[{"internalType":"contract AggregatorV2V3Interface","name":"rateOracle","type":"address"},{"internalType":"uint8","name":"rateDecimalPlaces","type":"uint8"},{"internalType":"bool","name":"mustInvert","type":"bool"},{"internalType":"uint8","name":"buffer","type":"uint8"},{"internalType":"uint8","name":"haircut","type":"uint8"},{"internalType":"uint8","name":"liquidationDiscount","type":"uint8"}],"internalType":"struct ETHRateStorage","name":"ethRate","type":"tuple"},{"components":[{"internalType":"contract AssetRateAdapter","name":"rateOracle","type":"address"},{"internalType":"uint8","name":"underlyingDecimalPlaces","type":"uint8"}],"internalType":"struct AssetRateStorage","name":"assetRate","type":"tuple"}],"stateMutability":"view","type":"function"},{"inputs":[{"internalType":"uint16","name":"currencyId","type":"uint16"}],"name":"getRebalancingFactors","outputs":[{"internalType":"address","name":"holding","type":"address"},{"internalType":"uint8","name":"target","type":"uint8"},{"internalType":"uint16","name":"externalWithdrawThreshold","type":"uint16"},{"components":[{"internalType":"uint128","name":"previousSupplyFactorAtRebalance","type":"uint128"},{"internalType":"uint40","name":"rebalancingCooldownInSeconds","type":"uint40"},{"internalType":"uint40","name":"lastRebalanceTimestampInSeconds","type":"uint40"}],"internalType":"struct RebalancingContextStorage","name":"context","type":"tuple"}],"stateMutability":"view","type":"function"},{"inputs":[{"internalType":"uint16","name":"currencyId","type":"uint16"}],"name":"getReserveBalance","outputs":[{"internalType":"int256","name":"reserveBalance","type":"int256"}],"stateMutability":"view","type":"function"},{"inputs":[{"internalType":"uint16","name":"currencyId","type":"uint16"}],"name":"getReserveBuffer","outputs":[{"internalType":"uint256","name":"","type":"uint256"}],"stateMutability":"view","type":"function"},{"inputs":[{"internalType":"uint16","name":"currencyId","type":"uint16"}],"name":"getSecondaryIncentiveRewarder","outputs":[{"internalType":"address","name":"rewarder","type":"address"}],"stateMutability":"view","type":"function"},{"inputs":[{"internalType":"uint16","name":"currencyId","type":"uint16"},{"internalType":"uint40","name":"maturity","type":"uint40"}],"name":"getSettlementRate","outputs":[{"components":[{"internalType":"int256","name":"supplyFactor","type":"int256"},{"internalType":"int256","name":"debtFactor","type":"int256"},{"internalType":"uint256","name":"oracleSupplyRate","type":"uint256"}],"internalType":"struct PrimeRate","name":"","type":"tuple"}],"stateMutability":"view","type":"function"},{"inputs":[{"internalType":"address[]","name":"tokens","type":"address[]"}],"name":"getStoredTokenBalances","outputs":[{"internalType":"uint256[]","name":"balances","type":"uint256[]"}],"stateMutability":"view","type":"function"},{"inputs":[{"internalType":"uint16","name":"currencyId","type":"uint16"},{"internalType":"uint256","name":"maturity","type":"uint256"}],"name":"getTotalfCashDebtOutstanding","outputs":[{"internalType":"int256","name":"totalfCashDebt","type":"int256"},{"internalType":"int256","name":"fCashDebtHeldInSettlementReserve","type":"int256"},{"internalType":"int256","name":"primeCashHeldInSettlementReserve","type":"int256"}],"stateMutability":"view","type":"function"},{"inputs":[],"name":"getTreasuryManager","outputs":[{"internalType":"address","name":"","type":"address"}],"stateMutability":"view","type":"function"},{"inputs":[{"internalType":"address","name":"account","type":"address"},{"internalType":"uint16","name":"currencyId","type":"uint16"},{"internalType":"uint256","name":"maturity","type":"uint256"}],"name":"getfCashNotional","outputs":[{"internalType":"int256","name":"","type":"int256"}],"stateMutability":"view","type":"function"},{"inputs":[{"internalType":"uint16","name":"currencyId","type":"uint16"}],"name":"nTokenAddress","outputs":[{"internalType":"address","name":"","type":"address"}],"stateMutability":"view","type":"function"},{"inputs":[],"name":"owner","outputs":[{"internalType":"address","name":"","type":"address"}],"stateMutability":"view","type":"function"},{"inputs":[{"internalType":"uint16","name":"currencyId","type":"uint16"}],"name":"pCashAddress","outputs":[{"internalType":"address","name":"","type":"address"}],"stateMutability":"view","type":"function"},{"inputs":[{"internalType":"uint16","name":"currencyId","type":"uint16"}],"name":"pDebtAddress","outputs":[{"internalType":"address","name":"","type":"address"}],"stateMutability":"view","type":"function"},{"inputs":[],"name":"pauseGuardian","outputs":[{"internalType":"address","name":"","type":"address"}],"stateMutability":"view","type":"function"},{"inputs":[],"name":"pauseRouter","outputs":[{"internalType":"address","name":"","type":"address"}],"stateMutability":"view","type":"function"},{"inputs":[],"name":"rebalancingBot","outputs":[{"internalType":"address","name":"","type":"address"}],"stateMutability":"view","type":"function"}],"bytecode":"608060405234801561001057600080fd5b50614947806100206000396000f3fe608060405234801561001057600080fd5b50600436106102f15760003560e01c80638ecd06601161019d578063c866a480116100e9578063e74b6e4e116100a2578063ec41a2571161007c578063ec41a257146107b2578063f5945404146107ba578063fbcbc0f1146107cd578063fc1b1345146107ef576102f1565b8063e74b6e4e1461076b578063e7ceffb81461078c578063ec3c05011461079f576102f1565b8063c866a480146106db578063ca0ee700146106ee578063ca668b3c14610701578063d3ca48e814610725578063d4ccb0ed14610738578063dd8e32ec14610758576102f1565b8063aa94baa711610156578063b62d268a11610130578063b62d268a1461068a578063bc74bdeb146106aa578063c3999444146106b2578063c4c96dae146106d3576102f1565b8063aa94baa714610629578063b0de22171461064a578063b536ffb61461066a576102f1565b80638ecd0660146105c2578063911a56b0146105d557806394f1d1e4146105e8578063974b1054146105fb57806397f503f51461060e5780639c4e89f414610621576102f1565b8063594665b51161025c5780636e4682f711610215578063722abb86116101ef578063722abb861461057c578063824633671461058f57806388a73eb7146105975780638da5cb5b146105ba576102f1565b80636e4682f714610529578063709d6c7b146105495780637154233314610569576102f1565b8063594665b51461047e5780635ab75943146104915780635eb2c1ca146104b357806365663b59146104d457806367c22ce5146104f55780636987a20314610508576102f1565b806324980ce0116102ae57806324980ce0146103ce57806324a3d622146103ee5780632d353221146103f657806339df47911461041d578063497cf7e31461043d5780634ebad18e1461045d576102f1565b806304ccb84e146103125780631794b8ef14610330578063197a6dc0146103505780631b36b3da146103665780631d66d03f14610389578063206f2799146103a9575b60405162461bcd60e51b81526004016103099061458d565b60405180910390fd5b61031a610802565b6040516103279190614833565b60405180910390f35b61034361033e366004613c6a565b61080c565b6040516103279190614493565b6103586108d4565b60405161032792919061434a565b610379610374366004613e10565b6108f3565b6040516103279493929190614364565b61039c610397366004613e10565b610a3a565b6040516103279190614336565b6103bc6103b7366004613e60565b610a56565b60405161032796959493929190614776565b6103e16103dc366004613e10565b610a99565b6040516103279190614759565b61039c610aaa565b610409610404366004613be6565b610ab9565b604051610327989796959493929190614876565b61043061042b366004613e2a565b610b0b565b60405161032791906144d6565b61045061044b366004613e10565b610b99565b604051610327919061440c565b61047061046b366004613e10565b610bae565b6040516103279291906147b9565b61039c61048c366004613e10565b610bea565b6104a461049f366004613e10565b610bf5565b604051610327939291906144f8565b6104c66104c1366004613e10565b610c19565b6040516103279291906143e7565b6104e76104e2366004613e10565b610d4c565b6040516103279291906143c2565b610430610503366004613e10565b610d82565b61051b610516366004613e10565b610d98565b6040516103279291906146b9565b61053c610537366004613be6565b610dc9565b60405161032791906144cb565b61055c610557366004613e89565b610de7565b604051610327919061474a565b6104a4610577366004613e60565b610e39565b61053c61058a366004613be6565b610e92565b61039c610eb0565b6105aa6105a5366004613e10565b610ebf565b60405161032794939291906147d5565b61039c610f27565b6104306105d0366004613c02565b610f3e565b6104306105e3366004613c2d565b610f57565b61031a6105f6366004613be6565b610f79565b61039c610609366004613e10565b610fb3565b6104e761061c366004613e10565b610ff5565b61039c61102e565b61063c610637366004613be6565b61103d565b60405161032792919061446e565b61065d610658366004613be6565b611077565b604051610327919061460e565b61067d610678366004613be6565b611088565b604051610327919061445b565b61069d610698366004613f4e565b6110d5565b6040516103279190614768565b61039c6110f8565b6106c56106c0366004613be6565b611107565b6040516103279291906144df565b61039c61119f565b61039c6106e9366004613e10565b6111b7565b6104306106fc366004613e10565b6111cb565b61071461070f366004613f82565b6111e2565b604051610327959493929190614842565b610430610733366004613e2a565b611207565b61074b610746366004613e10565b611265565b60405161032791906146aa565b610430610766366004613ebb565b611283565b61077e610779366004613e10565b61129e565b6040516103279291906146d6565b61039c61079a366004613e10565b611370565b6104506107ad366004613f1b565b61138b565b61039c6113a6565b61055c6107c8366004613e10565b6113be565b6107e06107db366004613be6565b6113cf565b6040516103279392919061461c565b6104a46107fd366004613e2a565b61154f565b60005461ffff1690565b60606000610818611577565b9050826001600160401b038111801561083057600080fd5b5060405190808252806020026020018201604052801561085a578160200160208202803683370190505b50915060005b838110156108cc5781600086868481811061087757fe5b905060200201602081019061088c9190613be6565b6001600160a01b03166001600160a01b03168152602001908152602001600020548382815181106108b957fe5b6020908102919091010152600101610860565b505092915050565b600054600d546001600160a01b03640100000000909204821691169091565b60008060006109006138d8565b600061090b86611584565b9050806001600160a01b031663e79bf13b6040518163ffffffff1660e01b815260040160006040518083038186803b15801561094657600080fd5b505afa15801561095a573d6000803e3d6000fd5b505050506040513d6000823e601f3d908101601f191682016040526109829190810190613cd8565b60008151811061098e57fe5b602002602001015194506109a06115b4565b61ffff8716600090815260209182526040808220815160608101835290546001600160801b038116825264ffffffffff600160801b8204811695830195909552600160a81b9004909316908301529092506109f96115c1565b61ffff9788166000908152602091825260408082206001600160a01b038a1683529092522054959760ff871697610100909704909616959294509192505050565b6000610a45826115ce565b610a4e8261160b565b90505b919050565b610a5e6138f8565b610a66613919565b600080600080610a768888611638565b9096509450610a8586896116f6565b989b979a5091985096909590945092505050565b610aa1613919565b610a4e826117ca565b6002546001600160a01b031681565b600080600080600080600080610ace89611898565b939b509198509650909450610ae4905089611904565b91985092509050610af6898942611965565b90915090505080935050919395975091939597565b6000610b18828442611965565b50919250610b2c91505061ffff8416611998565b6001600160a01b0316826001600160a01b03161415610b93576000610b5184426119be565b905060005b81518110156108cc57610b89828281518110610b6e57fe5b60200260200101516060015184611a7690919063ffffffff16565b9250600101610b56565b92915050565b6060610ba4826115ce565b610a4e82426119be565b610bb6613965565b610bbe613965565b610bc7836115ce565b610bd48361ffff16611a8c565b9150610be38361ffff16611a9f565b9050915091565b6000610a4e82611584565b6000806000610c0c84610c07866117ca565b611ab2565b9250925092509193909250565b606080610c25836115ce565b6000610c348461ffff16611b4d565b60ff16905080610c445750610d47565b806001600160401b0381118015610c5a57600080fd5b50604051908082528060200260200182016040528015610c9457816020015b610c81613994565b815260200190600190039081610c795790505b509250806001600160401b0381118015610cad57600080fd5b50604051908082528060200260200182016040528015610ce757816020015b610cd4613994565b815260200190600190039081610ccc5790505b50915060015b818111610d4457610cfe8582611b63565b846001830381518110610d0d57fe5b6020026020010181905250610d228582611b7d565b836001830381518110610d3157fe5b6020908102919091010152600101610ced565b50505b915091565b606080610d58836115ce565b6000610d678461ffff16611b4d565b60ff169050610d7a8461ffff1682611b92565b915050915091565b61ffff166000908152600c602052604090205490565b610da06139d9565b610da8613a2d565b610db1836115ce565b610dbe8361ffff16611bb9565b9150610be383611c41565b6001600160a01b031660009081526008602052604090205460ff1690565b610def613a57565b610df8846115ce565b6000610e0385611ccc565b9050610e0d613a57565b610e2e8661ffff1686426001610e2287611ced565b8694939291908a611d01565b9150505b9392505050565b600080600080610e47611d38565b61ffff90961660009081526020968752604080822096825295909652505050908220546001600160501b03808216840394600160501b8304821690940393600160a01b909204169150565b6001600160a01b031660009081526006602052604090205460ff1690565b6001546001600160a01b031681565b610ec7613965565b610ecf613965565b610ed7613a9f565b610edf613a2d565b610ee8856115ce565b610ef58561ffff16611a8c565b9350610f048561ffff16611a9f565b9250610f138561ffff16611d45565b9150610f1e85611c41565b90509193509193565b60005464010000000090046001600160a01b031681565b6000610f49826115ce565b610e32838361ffff16611ea8565b6000610f62836115ce565b610f71848461ffff1684611edd565b949350505050565b6001600160a01b03811660009081526009602052604090205461ffff1680610a515760405162461bcd60e51b8152600401610309906145e4565b6000610fbe826115ce565b6000610fcd8361ffff16611998565b90506001600160a01b038116610a4e5760405162461bcd60e51b81526004016103099061450e565b606080611001836115ce565b60006110108461ffff16611b4d565b60ff1690506110238461ffff1682611f22565b909590945092505050565b600b546001600160a01b031690565b606080600080600061104e86611898565b50935093505092506110608682611f57565b945061106d868484611f6b565b9350505050915091565b61107f613ace565b610a4e82612084565b6060600061109583612084565b90506110a08161213d565b156110c7576110bf838260600151836000015164ffffffffff16611f6b565b915050610a51565b6110bf838260400151611f57565b6110dd6138f8565b6110e6836115ce565b610e32838364ffffffffff164261214a565b600e546001600160a01b031681565b6000606073__FreeCollateralExternal________________636cb65eaf846040518263ffffffff1660e01b81526004016111429190614336565b60006040518083038186803b15801561115a57600080fd5b505af415801561116e573d6000803e3d6000fd5b505050506040513d6000823e601f3d908101601f191682016040526111969190810190613d75565b91509150915091565b73__FreeCollateralExternal________________90565b60006111c2826115ce565b610a4e8261217c565b60006111d6826115ce565b610a4e610fee83612186565b60008060008060006111f3866121d7565b945094509450945094505b91939590929450565b600080611212612219565b6001600160a01b03841660009081526020828152604080832061ffff891684529091528120805492935091600160a81b9004600a90810b900b90811261125957600061125b565b805b9695505050505050565b61126d6139d9565b611276826115ce565b610a4e8261ffff16611bb9565b60006112928686868686612226565b90505b95945050505050565b6112a6613ace565b6112ae613b03565b6112b7836115ce565b60006112c1612294565b905060006112cd6122a1565b61ffff909516600081815260209384526040808220815160c08101835290546001600160a01b03808216835260ff600160a01b8084048216858b0152600160a81b84048216151585870152600160b01b840482166060860152600160b81b840482166080860152600160c01b909304811660a085015295855299875292829020825180840190935254988916825291909704909116928601929092525093915050565b6000806113808361ffff16611998565b9050610e32816122ae565b6060611396836115ce565b610e32838363ffffffff166119be565b73cfeaead4947f0705a14ec42ac3d44129e1ef3ed590565b6113c6613994565b610a4e82612327565b6113d7613ace565b6060806113e384612084565b60408051600a8082526101608201909252919450816020015b611404613b1a565b8152602001906001900390816113fc57905050915060006114248461213d565b156114785760008360008151811061143857fe5b602090810291909101015160608601805161ffff1682525190915061145f90879042611965565b6080850152606084015260408301526020909101526001015b60808401515b6001600160701b031981161561150657600084838151811061149c57fe5b602090810291909101015160f083901c613fff168082529091506114c05750611506565b6114cf87826000015142611965565b6080850152606084015260408301526020909101526001919091019060101b6fffffffffffffffffffffffffffffffff191661147e565b61150f8561213d565b156115355761152e868660600151876000015164ffffffffff16611f6b565b9250611546565b611543868660400151611f57565b92505b50509193909250565b600080600061155d856115ce565b611568848642611965565b50919790965090945092505050565b600080610b93602661235a565b60008061158f612373565b61ffff939093166000908152602093909352505060409020546001600160a01b031690565b600080610b93602561235a565b600080610b93602461235a565b8061ffff1660001080156115ec575060005461ffff90811690821611155b6116085760405162461bcd60e51b8152600401610309906145b7565b50565b6000611615612380565b61ffff90921660009081526020929092525060409020546001600160a01b031690565b6116406138f8565b611648613919565b611651846117ca565b9050828160000151101561168257600061166a8561238d565b905061167885838387612408565b50915061168f9050565b8051831461168f57600080fd5b60405180606001604052806116bd6116b88460a001518560c001516124ac90919063ffffffff16565b6124d3565b81526020016116e06116b88460a001518560e001516124ac90919063ffffffff16565b8152602001826060015181525091509250929050565b60008060008060006117066124ed565b61ffff8716600090815260209190915260409020600181015490915061173890600160581b900463ffffffff166124fa565b60018201549095506117629060649061175c908890600160781b900460ff166124ac565b90612508565b81549093506501000000000090046affffffffffffffffffffff1661178f61178a8983612527565b612570565b60018301549095506affffffffffffffffffffff166000036117bc61178a6117b78b8461257f565b6125d0565b935050505092959194509250565b6117d2613919565b60006117dc6124ed565b61ffff93841660009081526020918252604090819020805464ffffffffff811686526501000000000081046affffffffffffffffffffff908116948701949094526001820154841692860192909252600160d81b820463ffffffff166060860152600160801b9091049091166080840152600201546001600160501b0380821660a0850152600160501b8204811660c0850152600160a01b82041660e0840152600160f01b900460ff1661012c02909216610100820152919050565b6000806000806000806118a96125de565b6001600160a01b039097166000908152602097909752505060409094205461ffff81169563ffffffff620100008304811696506601000000000000830416945060ff600160501b8304169350600160581b90910460d01b9150565b6000806000806119126125eb565b6001600160a01b0395909516600090815260209590955250506040909220546bffffffffffffffffffffffff811693600160601b82046001600160801b03169350600160e01b90910463ffffffff169150565b60008060008060006119778787611638565b5090506119858888836125f8565b9450945094509450505b93509350935093565b6000806119a36126b2565b6000938452602052505060409020546001600160a01b031690565b606060006119cb84611ccc565b9050600081602001516001600160401b03811180156119e957600080fd5b50604051908082528060200260200182016040528015611a2357816020015b611a10613a57565b815260200190600190039081611a085790505b50905060005b8260200151811015611a6d57611a65828281518110611a4457fe5b602002602001015182600101600188876126bf90949392919063ffffffff16565b600101611a29565b50949350505050565b81810182811215600083121514610b9357600080fd5b611a94613965565b610a4e82600061273a565b611aa7613965565b610a4e82600161273a565b600080600080600085602001511115611aff57611afc611ae38660c0015187602001516124ac90919063ffffffff16565b60e08701516040880151611af6916124ac565b906127d4565b90505b6000611b0a87612327565b9050611b1681836127ed565b94508115611b2d57611b2a818660016128a7565b93505b602086015115611b4457611b41858361291f565b92505b50509250925092565b600080611b5983612938565b60ff169392505050565b611b6b613994565b610e328383611b78612955565b612962565b611b85613994565b610e328383611b786129b9565b60606000611b9e6129c6565b600085815260208290526040902090915061125b81856129d3565b611bc16139d9565b6000611bcc83612938565b9050600081601f60408051610140810190915291901a80825291506020810183601e1a815260200183601d1a815260200183601c1a815260200183601b1a815260200183601a1a81526020018360191a81526020018360181a81526020018360171a81526020018360161a9052949350505050565b611c49613a2d565b6000611c588361ffff16611a9f565b90506000611c786402540be4008360400151612b1590919063ffffffff16565b90506000611c868542611638565b50604080850151908601528051909150611cbb906ec097ce7bc90715b34b9f100000000090611cb59085612b15565b90612b63565b602085015250506000825250919050565b611cd4613b4d565b6000611ce08342611638565b509050610e328382612b94565b6060015161012c60089190911c60ff160290565b611d0e8787878685612bd7565b611d278760e001518860a001518960c001518588612c92565b60c090970196909652505050505050565b600080610b93602061235a565b611d4d613a9f565b6000611d57612294565b6000848152602082905260408120919250806001861415611d845750670de0b6b3a7640000905080611e47565b825460408051633fabe5a360e21b815290516001600160a01b039092169163feaf968c9160048082019260a092909190829003018186803b158015611dc857600080fd5b505afa158015611ddc573d6000803e3d6000fd5b505050506040513d601f19601f82011682018060405250810190611e009190613fbd565b5091935050600083139150611e16905057600080fd5b825460ff600160a01b82048116600a0a9350600160a81b9091041615611e4757611e4481611cb58480612b15565b90505b8254600160b01b900460ff166096811315611e675760951901600a026096015b6040805160a081018252938452602084019290925290820152905460ff600160b81b820481166060840152600160c01b909104166080820152915050919050565b600080611eb3612d1a565b6001600160a01b038516600090815260209182526040808220868352909252205491505092915050565b600080611ee8612d27565b6001600160a01b03861660009081526020918252604080822087835283528082208683529092522054600f90810b900b9150509392505050565b6060806000611f2f612d34565b6000868152602082905260409020909150611f4a81866129d3565b9097909650945050505050565b6060611f638383612d41565b509392505050565b60606000611f7d858561ffff16611ea8565b90506000611f8a82612d62565b90506000816001600160401b0381118015611fa457600080fd5b50604051908082528060200260200182016040528015611fde57816020015b611fcb613b79565b815260200190600190039081611fc35790505b509050600091506000611ff084612e32565b90505b80156120795760006120058783612e57565b905060006120188a8a61ffff1684611edd565b9050600084868151811061202857fe5b60209081029190910181015161ffff8c168152908101849052600160408201819052606082018490529690960195905061206487856000612f0a565b965061206f87612e32565b9350505050611ff3565b509695505050505050565b61208c613ace565b6000612096612f55565b6001600160a01b03841660009081526020918252604090819020815160c081018352905464ffffffffff811682526001600160f81b031965010000000000820460f81b169382019390935260ff6601000000000000840481169282019290925261ffff600160381b84041660608201526001600160701b03196901000000000000000000840460701b166080820152600160d81b90920416151560a0820152915050919050565b6060015161ffff16151590565b6121526138f8565b600061215e8585612f62565b909250905080611f63576121728584611638565b5095945050505050565b6000611615612ff5565b600080612191612219565b6001600160a01b03851660009081526020828152604080832061ffff8816845290915281208054600160a81b9004600a90810b900b94509192508312156108cc57600080fd5b603081901c64ffffffffff600883901c1660ff831660008060018314156122095750600160ff604087901c16146111fe565b604086901c915091939590929450565b600080610b93600661235a565b600060018414156122525761224b868684612242576001612246565b6000195b613002565b9050611295565b600b8414806122615750600984145b8061226c5750600a84145b1561227d5761224b8387878761304b565b600c84141561228f5761224b8661307e565b600080fd5b600080610b93601061235a565b600080610b93600f61235a565b6000806122b96125de565b6001600160a01b0384166000908152602082905260409020805491925090600160f81b900460ff1615612315576122ee613091565b6001600160a01b038086166000908152602092909252604090912054169250610a51915050565b600092505050610a51565b5050919050565b61232f613994565b60006123396129b9565b61ffff8416600090815260209190915260408120549150610e32908261309e565b6000620f424082602681111561236c57fe5b0192915050565b600080610b93601f61235a565b600080610b93602161235a565b60008061239983611584565b6001600160a01b031663a77c05b86040518163ffffffff1660e01b8152600401604080518083038186803b1580156123d057600080fd5b505afa1580156123e4573d6000803e3d6000fd5b505050506040513d601f19601f82011682018060405250810190610f719190613f9a565b612410613919565b60008060006124208886896131bd565b60c08b019290925260e08a01929092526020890151919350915061244490836132c7565b602088015260808701516000901561247257608088015161246f9061246989826132d9565b906132ee565b90505b612492612487670de0b6b3a7640000836132c7565b60a08a015190613305565b60a089015250506080860194909452505082529092909150565b6000826124bb57506000610b93565b828202828482816124c857fe5b0414610e3257600080fd5b60006001600160ff1b038211156124e957600080fd5b5090565b600080610b93601d61235a565b600881901c60ff9091161b90565b600080821161251657600080fd5b81838161251f57fe5b049392505050565b6000806125546ec097ce7bc90715b34b9f1000000000611cb5866000015186612b1590919063ffffffff16565b9050600083126125645780610f71565b610f7181600019613322565b6000808212156124e957600080fd5b60006001821261258e57600080fd5b8161259b57506000610b93565b610e3260016125ca6ec097ce7bc90715b34b9f1000000000611cb5876020015187612b1590919063ffffffff16565b90613338565b6000610a4e60001983612b15565b600080610b93600261235a565b600080610b93601161235a565b6000806000806000612608612219565b6001600160a01b03891660009081526020828152604080832061ffff8c168452909152902080546001600160501b0381169650600160501b900463ffffffff169450909150831561267557805461266e90600160701b900466ffffffffffffff166124fa565b925061268a565b8054600160701b900466ffffffffffffff1692505b80546126a5908890600160a81b9004600a90810b900b61334e565b9550505093509350935093565b600080610b93600361235a565b826001111580156126d4575084602001518311155b6126f05760405162461bcd60e51b815260040161030990614565565b600061270d6126fe85613375565b61270784613419565b906132c7565b9050612732866000015161ffff168284866127278b611ced565b8a949392919061343a565b505050505050565b612742613965565b600061274c613464565b6000858152602082815260408083208715158452825291829020825160a08101845281546001600160a01b038116825260ff600160a01b82048116151594830194909452600160b01b81048416600a0a9482019490945293945092916060830191600160a81b9091041660058111156127c157fe5b8152600060209091015295945050505050565b6000610e326127e784633b9aca006124ac565b83612508565b6000808360800151116127ff57600080fd5b633b9aca0082111561281057600080fd5b82518211612836578251604084015161282f919061175c9085906124ac565b9050610b93565b8260200151821161286e57604083015183516020850151606086015161282f9392612707928190039161175c918803908590036124ac565b610e3283606001516127078560200151633b9aca000361175c8760600151886080015103886020015188036124ac90919063ffffffff16565b6000806128c6606461175c8760e00151876124ac90919063ffffffff16565b90508460a001518110156128db575060a08401515b8460c001518111156128ee575060c08401515b8215612905576128fe84826132c7565b9150611f63565b83811161291457808403610e2e565b600095945050505050565b6000610e3261292e84846124ac565b633b9aca00612508565b600080612943613471565b60009384526020525050604090205490565b600080610b93601c61235a565b61296a613994565b60006129758461347e565b61ffff86166000908152602085905260408120919250906004861061299b57600161299e565b60005b60ff16600281106129ab57fe5b0154905061125b828261309e565b600080610b93601b61235a565b600080610b93600561235a565b606080600080846001600160401b03811180156129ef57600080fd5b50604051908082528060200260200182016040528015612a19578160200160208202803683370190505b5090506000856001600160401b0381118015612a3457600080fd5b50604051908082528060200260200182016040528015612a5e578160200160208202803683370190505b50905060005b86811015612b08578784600e8110612a7857fe5b600891828204019190066004029054906101000a900463ffffffff1663ffffffff16838281518110612aa657fe5b60209081029190910101526001909301928784600e8110612ac357fe5b600891828204019190066004029054906101000a900463ffffffff1663ffffffff16828281518110612af157fe5b602090810291909101015260019384019301612a64565b5090969095509350505050565b818102600019831415612b4557811580612b37575082828281612b3457fe5b05145b612b4057600080fd5b610b93565b821580612b5a575081838281612b5757fe5b05145b610b9357600080fd5b600081600019148015612b795750600160ff1b83145b15612b8357600080fd5b818381612b8c57fe5b059392505050565b612b9c613b4d565b6000612bab8461ffff16612938565b6040805160808101825261ffff96909616865260ff821660208701528501939093525050606082015290565b6000612be16134b7565b6000868152602082815260408083208884528252808320868452825291829020808a5290890187905280546001600160501b03808216938b0193909352600160501b810490921660608a015263ffffffff600160a01b8304811660a08b0152600160c01b8304811660c08b0152600160e01b90920490911660e0890152909150808415612c805760018201546001600160501b03166080890152612c88565b600060808901525b5050505050505050565b6000808311612ca057600080fd5b81861115612caf575083611295565b6000612cbb83886132d9565b905083811115612cce5785915050611295565b6000612cda82866127d4565b90506000612cec633b9aca00836132d9565b9050612d0d633b9aca0061175c612d038a856124ac565b6127078c876124ac565b9998505050505050505050565b600080610b93600b61235a565b600080610b93600c61235a565b600080610b93600461235a565b606080612d4e84846134c4565b9150612d59826135db565b90509250929050565b600181901c7f5555555555555555555555555555555555555555555555555555555555555555908116911601600281901c7f3333333333333333333333333333333333333333333333333333333333333333908116911601600481901c7f07070707070707070707070707070707070707070707070707070707070707079190911601600881901c7e0f000f000f000f000f000f000f000f000f000f000f000f000f000f000f000f908116911601601081901c01602081901c01604081901c01608081901c60ff90811691160190565b600081612e4157506000610a51565b612e4a82613794565b60ff036001019050919050565b600081612e6357600080fd5b610100821115612e7257600080fd5b6000612e7d8461382d565b90506000605a8411612e985750620151808302019050610b93565b60878411612ec0575060591983016207e900908102908206909103016276a700019050610b93565b60c38411612ee95750608619830162278d00908102908206909103016301da9c00019050610b93565b5060c21983016276a70090810290820690910301630b1fa800019050610b93565b600060018310158015612f1f57506101008311155b612f2857600080fd5b8115612f415750600160ff1b60001983011c8317610e32565b50600160ff1b60001983011c198316610e32565b600080610b93600161235a565b612f6a6138f8565b600080612f75613849565b61ffff861660009081526020828152604080832088845290915290208054600160f01b900460ff1693509091508215612fec5780546001600160501b03600160a01b8204811691612fc79116826124ac565b85528154612fe590600160501b90046001600160501b0316826124ac565b6020860152505b50509250929050565b600080610b93602261235a565b6000613fff61ffff8516111561301757600080fd5b64ffffffffff83111561302957600080fd5b6130338484613856565b90506000821215610e3257600160401b179392505050565b68010000000000000000600160e01b03604085901b1661ffff60301b603085901b1617600883901b178117949350505050565b600c60309190911b61ffff60301b161790565b600080610b93601261235a565b6130a6613994565b6064633b9aca008360ff8616602081106130bc57fe5b1a02816130c557fe5b0481526064633b9aca008360ff8616600101602081106130e157fe5b1a02816130ea57fe5b0481602001818152505061310f8260028560ff16016020811061310957fe5b1a613871565b60808201819052610100908360ff86166003016020811061312c57fe5b1a028161313557fe5b0460408201526080810151610100908360ff86166004016020811061315657fe5b1a028161315f57fe5b0460608201526207a1208260ff85166005016020811061317b57fe5b1a0260a0820152622625a08260ff85166006016020811061319857fe5b1a0260c08201528160ff8416600701602081106131b157fe5b1a60e082015292915050565b6000806000806000806131d08988611ab2565b895190955091935091506000906131f7906131ec908b906132d9565b633b9aca00906124ac565b90506132316132266301da9c0061320e85856124ac565b8161321557fe5b670de0b6b3a76400009190046132c7565b60e08a015190613305565b96506132536132486301da9c0061320e87856124ac565b60c08a015190613305565b95508183141561326a57506000935061198f915050565b600061328c6132816301da9c0061320e87866124ac565b60e08b015190613305565b9050600061329a89836132d9565b90506132b78861175c838d604001516124ac90919063ffffffff16565b9650505050505093509350935093565b600082820183811015610e3257600080fd5b6000828211156132e857600080fd5b50900390565b6000610e326127e784670de0b6b3a76400006124ac565b6000610e3261331484846124ac565b670de0b6b3a7640000612508565b60008183126133315781610e32565b5090919050565b80820382811315600083121514610b9357600080fd5b600080821261335e575080610b93565b8251602084015161282f9190611cb5908590612b15565b6000816001141561338a57506276a700610a51565b816002141561339d575062ed4e00610a51565b81600314156133b157506301da9c00610a51565b81600414156133c557506303b53800610a51565b81600514156133d957506309450c00610a51565b81600614156133ed575063128a1800610a51565b816007141561340157506325143000610a51565b60405162461bcd60e51b81526004016103099061453e565b60006276a70082101561342b57600080fd5b6276a700825b06909103919050565b60006276a70061344985613419565b01905061345b87878787878787611d01565b50505050505050565b600080610b93600761235a565b600080610b93600961235a565b60008160001061348d57600080fd5b600782111561349b57600080fd5b600482106134ac57600482036134ae565b815b60080292915050565b600080610b93600a61235a565b606060088260ff1611156134d757600080fd5b60006134e16138a5565b6001600160a01b038516600090815260208290526040812091925060ff85166001600160401b038111801561351557600080fd5b5060405190808252806020026020018201604052801561354f57816020015b61353c613b79565b8152602001906001900390816135345790505b50905060005b8560ff1681101561217257600083826008811061356e57fe5b019050600083838151811061357f57fe5b602090810291909101810151835461ffff8116825264ffffffffff620100008204169282019290925260ff600160381b8304166040820152600160401b909104600a90810b900b60608201526080019190915250600101613555565b8051606090806001600160401b03811180156135f657600080fd5b50604051908082528060200260200182016040528015613620578160200160208202803683370190505b50915060005b8181101561367d57600084828151811061363c57fe5b6020026020010151905061365d8160000151826020015183604001516138b2565b84838151811061366957fe5b602090810291909101015250600101613626565b5060015b8181101561232057805b6000811180156136c357508381815181106136a257fe5b60200260200101518460018303815181106136b957fe5b6020026020010151115b1561378b578381815181106136d457fe5b60200260200101518460018303815181106136eb57fe5b602002602001015185600184038151811061370257fe5b6020026020010186848151811061371557fe5b602002602001018281525082815250505084818151811061373257fe5b602002602001015185600183038151811061374957fe5b602002602001015186600184038151811061376057fe5b6020026020010187848151811061377357fe5b6020908102919091010191909152526000190161368b565b50600101613681565b6000816137a057600080fd5b600160801b82106137b357608091821c91015b600160401b82106137c657604091821c91015b64010000000082106137da57602091821c91015b6201000082106137ec57601091821c91015b61010082106137fd57600891821c91015b6010821061380d57600491821c91015b6004821061381d57600291821c91015b60028210610a5157600101919050565b60006201518082101561383f57600080fd5b6201518082613431565b600080610b93601e61235a565b61ffff60301b603083901b16600882901b1760011792915050565b60008160ff1660961061388c5760ff8216622625a002610a4e565b5060951960ff919091160162e4e1c00263165a0bc00190565b600080610b93600d61235a565b61ffff60301b603084901b1665ffffffffff00600884901b161760ff8216179392505050565b604080516060810182526000808252602082018190529181019190915290565b60405180606001604052806000815260200160008152602001600081525090565b6040518061012001604052806000815260200160008152602001600081526020016000815260200160008152602001600081526020016000815260200160008152602001600081525090565b6040805160a0810182526000808252602082018190529181018290529060608201908152602001600081525090565b60405180610100016040528060008152602001600081526020016000815260200160008152602001600081526020016000815260200160008152602001600081525090565b6040805161014081018252600080825260208201819052918101829052606081018290526080810182905260a0810182905260c0810182905260e08101829052610100810182905261012081019190915290565b604051806060016040528060006001600160a01b0316815260200160008152602001600081525090565b60405180610100016040528060008019168152602001600081526020016000815260200160008152602001600081526020016000815260200160008152602001600081525090565b6040518060a0016040528060008152602001600081526020016000815260200160008152602001600081525090565b6040805160c081018252600080825260208201819052918101829052606081018290526080810182905260a081019190915290565b604080518082019091526000808252602082015290565b6040518060a00160405280600061ffff168152602001600081526020016000815260200160008152602001600081525090565b6040805160808101825260008082526020820152908101613b6c6138f8565b8152600060209091015290565b6040518060c00160405280600061ffff1681526020016000815260200160008152602001600081526020016000815260200160006003811115613bb857fe5b905290565b803561ffff81168114610a5157600080fd5b80516001600160501b0381168114610a5157600080fd5b600060208284031215613bf7578081fd5b8135610e32816148fc565b60008060408385031215613c14578081fd5b8235613c1f816148fc565b9150612d5960208401613bbd565b600080600060608486031215613c41578081fd5b8335613c4c816148fc565b9250613c5a60208501613bbd565b9150604084013590509250925092565b60008060208385031215613c7c578182fd5b82356001600160401b0380821115613c92578384fd5b818501915085601f830112613ca5578384fd5b813581811115613cb3578485fd5b8660208083028501011115613cc6578485fd5b60209290920196919550909350505050565b60006020808385031215613cea578182fd5b82516001600160401b03811115613cff578283fd5b8301601f81018513613d0f578283fd5b8051613d22613d1d826148df565b6148bc565b8181528381019083850185840285018601891015613d3e578687fd5b8694505b83851015613d69578051613d55816148fc565b835260019490940193918501918501613d42565b50979650505050505050565b60008060408385031215613d87578182fd5b825191506020808401516001600160401b03811115613da4578283fd5b8401601f81018613613db4578283fd5b8051613dc2613d1d826148df565b81815283810190838501858402850186018a1015613dde578687fd5b8694505b83851015613e00578051835260019490940193918501918501613de2565b5080955050505050509250929050565b600060208284031215613e21578081fd5b610e3282613bbd565b60008060408385031215613e3c578182fd5b613e4583613bbd565b91506020830135613e55816148fc565b809150509250929050565b60008060408385031215613e72578182fd5b613e7b83613bbd565b946020939093013593505050565b600080600060608486031215613e9d578283fd5b613ea684613bbd565b95602085013595506040909401359392505050565b600080600080600060a08688031215613ed2578283fd5b613edb86613bbd565b945060208601359350604086013592506060860135613ef9816148fc565b915060808601358015158114613f0d578182fd5b809150509295509295909350565b60008060408385031215613f2d578182fd5b613f3683613bbd565b9150602083013563ffffffff81168114613e55578182fd5b60008060408385031215613f60578182fd5b613f6983613bbd565b9150602083013564ffffffffff81168114613e55578182fd5b600060208284031215613f93578081fd5b5035919050565b60008060408385031215613fac578182fd5b505080516020909101519092909150565b600080600080600060a08688031215613fd4578283fd5b613fdd86613bcf565b945060208601519350604086015192506060860151915061400060808701613bcf565b90509295509295909350565b6000815180845260208085019450808401835b8381101561403b5781518752958201959082019060010161401f565b509495945050505050565b6000815180845260208085019450808401835b8381101561403b5761406c87835161422c565b610100969096019590820190600101614059565b6000815180845260208085019450808401835b8381101561403b578151805161ffff168852838101518489015260408082015190890152606080820151908901526080808201519089015260a09081015190600482106140dc57fe5b88015260c09096019590820190600101614093565b805164ffffffffff1682526020808201516001600160f81b0319169083015260408082015160ff169083015260608082015161ffff16908301526080808201516001600160701b0319169083015260a0908101511515910152565b61415782825161432f565b6020810151614169602084018261432f565b50604081015161417c604084018261432f565b50606081015161418f606084018261432f565b5060808101516141a2608084018261432f565b5060a08101516141b560a084018261432f565b5060c08101516141c860c084018261432f565b5060e08101516141db60e084018261432f565b50610100808201516141ef8285018261432f565b5050610120808201516142048285018261432f565b50505050565b80516001600160a01b0316825260208082015190830152604090810151910152565b805182526020810151602083015260408101516040830152606081015160608301526080810151608083015260a081015160a083015260c081015160c083015260e081015160e08301525050565b805182526020810151602083015260408101516040830152606081015160608301526080810151608083015260a081015160a083015260c081015160c083015260e081015160e08301526101008082015181840152505050565b8051825260208082015190830152604090810151910152565b80516001600160a01b031682526020808201511515908301526040808201519083015260608101516006811061431f57fe5b6060830152608090810151910152565b60ff169052565b6001600160a01b0391909116815260200190565b6001600160a01b0392831681529116602082015260400190565b6001600160a01b0394909416845260ff9290921660208085019190915261ffff9190911660408085019190915282516001600160801b031660608501529082015164ffffffffff90811660808501529101511660a082015260c00190565b6000604082526143d5604083018561400c565b8281036020840152610e2e818561400c565b6000604082526143fa6040830185614046565b8281036020840152610e2e8185614046565b6020808252825182820181905260009190848201906040850190845b8181101561444f5761443b83855161422c565b928401926101009290920191600101614428565b50909695505050505050565b600060208252610e326020830184614080565b6000604082526144816040830185614080565b8281036020840152610e2e8185614080565b6020808252825182820181905260009190848201906040850190845b8181101561444f578351835292840192918401916001016144af565b901515815260200190565b90815260200190565b600083825260406020830152610f71604083018461400c565b9283526020830191909152604082015260600190565b6020808252601690820152754e6f206e546f6b656e20666f722063757272656e637960501b604082015260600190565b6020808252600d908201526c092dcecc2d8d2c840d2dcc8caf609b1b604082015260600190565b6020808252600e908201526d125b9d985b1a59081b585c9ad95d60921b604082015260600190565b60208082526010908201526f13595d1a1bd9081b9bdd08199bdd5b9960821b604082015260600190565b602080825260139082015272125b9d985b1a590818dd5c9c995b98de481a59606a1b604082015260600190565b60208082526010908201526f151bdad95b881b9bdd081b1a5cdd195960821b604082015260600190565b60c08101610b9382846140f1565b600061010080830161462e84886140f1565b60c0840191909152845190819052610120830190602090818701845b82811015614694578151805161ffff168652848101518587015260408082015190870152606080820151908701526080908101519086015260a0909401939083019060010161464a565b5050505082810360e084015261125b8185614080565b6101408101610b93828461414c565b6101a081016146c8828561414c565b610e3261014083018461420a565b60006101008201905060018060a01b0380855116835260ff602086015116602084015260408501511515604084015260ff606086015116606084015260ff608086015116608084015260ff60a08601511660a08401528084511660c08401525060ff60208401511660e08301529392505050565b6101008101610b93828461422c565b6101208101610b93828461427a565b60608101610b9382846142d4565b610200810161478582896142d4565b614792606083018861427a565b85610180830152846101a0830152836101c0830152826101e0830152979650505050505050565b61014081016147c882856142ed565b610e3260a08301846142ed565b61024081016147e482876142ed565b6147f160a08301866142ed565b83516101408301526020840151610160830152604084015161018083015260608401516101a083015260808401516101c08301526112956101e083018461420a565b61ffff91909116815260200190565b61ffff959095168552602085019390935260408401919091526001600160a01b031660608301521515608082015260a00190565b61ffff9890981688526020880196909652604087019490945260608601929092526001600160d01b031916608085015260a084015260c083015260e08201526101000190565b6040518181016001600160401b03811182821017156148d757fe5b604052919050565b60006001600160401b038211156148f257fe5b5060209081020190565b6001600160a01b038116811461160857600080fdfea2646970667358221220aa925de9f4b246f9872c7a26b1d30ccc57a3db9a0fb191c1e2c04989c92f5ca864736f6c63430007060033","bytecodeSha1":"e38f2f5f5bd7e927c86865334f4240d7c5b9f07a","compiler":{"evm_version":"istanbul","optimizer":{"enabled":true,"runs":200},"version":"0.7.6+commit.7338295f"},"contractName":"Views","deployedBytecode":"608060405234801561001057600080fd5b50600436106102f15760003560e01c80638ecd06601161019d578063c866a480116100e9578063e74b6e4e116100a2578063ec41a2571161007c578063ec41a257146107b2578063f5945404146107ba578063fbcbc0f1146107cd578063fc1b1345146107ef576102f1565b8063e74b6e4e1461076b578063e7ceffb81461078c578063ec3c05011461079f576102f1565b8063c866a480146106db578063ca0ee700146106ee578063ca668b3c14610701578063d3ca48e814610725578063d4ccb0ed14610738578063dd8e32ec14610758576102f1565b8063aa94baa711610156578063b62d268a11610130578063b62d268a1461068a578063bc74bdeb146106aa578063c3999444146106b2578063c4c96dae146106d3576102f1565b8063aa94baa714610629578063b0de22171461064a578063b536ffb61461066a576102f1565b80638ecd0660146105c2578063911a56b0146105d557806394f1d1e4146105e8578063974b1054146105fb57806397f503f51461060e5780639c4e89f414610621576102f1565b8063594665b51161025c5780636e4682f711610215578063722abb86116101ef578063722abb861461057c578063824633671461058f57806388a73eb7146105975780638da5cb5b146105ba576102f1565b80636e4682f714610529578063709d6c7b146105495780637154233314610569576102f1565b8063594665b51461047e5780635ab75943146104915780635eb2c1ca146104b357806365663b59146104d457806367c22ce5146104f55780636987a20314610508576102f1565b806324980ce0116102ae57806324980ce0146103ce57806324a3d622146103ee5780632d353221146103f657806339df47911461041d578063497cf7e31461043d5780634ebad18e1461045d576102f1565b806304ccb84e146103125780631794b8ef14610330578063197a6dc0146103505780631b36b3da146103665780631d66d03f14610389578063206f2799146103a9575b60405162461bcd60e51b81526004016103099061458d565b60405180910390fd5b61031a610802565b6040516103279190614833565b60405180910390f35b61034361033e366004613c6a565b61080c565b6040516103279190614493565b6103586108d4565b60405161032792919061434a565b610379610374366004613e10565b6108f3565b6040516103279493929190614364565b61039c610397366004613e10565b610a3a565b6040516103279190614336565b6103bc6103b7366004613e60565b610a56565b60405161032796959493929190614776565b6103e16103dc366004613e10565b610a99565b6040516103279190614759565b61039c610aaa565b610409610404366004613be6565b610ab9565b604051610327989796959493929190614876565b61043061042b366004613e2a565b610b0b565b60405161032791906144d6565b61045061044b366004613e10565b610b99565b604051610327919061440c565b61047061046b366004613e10565b610bae565b6040516103279291906147b9565b61039c61048c366004613e10565b610bea565b6104a461049f366004613e10565b610bf5565b604051610327939291906144f8565b6104c66104c1366004613e10565b610c19565b6040516103279291906143e7565b6104e76104e2366004613e10565b610d4c565b6040516103279291906143c2565b610430610503366004613e10565b610d82565b61051b610516366004613e10565b610d98565b6040516103279291906146b9565b61053c610537366004613be6565b610dc9565b60405161032791906144cb565b61055c610557366004613e89565b610de7565b604051610327919061474a565b6104a4610577366004613e60565b610e39565b61053c61058a366004613be6565b610e92565b61039c610eb0565b6105aa6105a5366004613e10565b610ebf565b60405161032794939291906147d5565b61039c610f27565b6104306105d0366004613c02565b610f3e565b6104306105e3366004613c2d565b610f57565b61031a6105f6366004613be6565b610f79565b61039c610609366004613e10565b610fb3565b6104e761061c366004613e10565b610ff5565b61039c61102e565b61063c610637366004613be6565b61103d565b60405161032792919061446e565b61065d610658366004613be6565b611077565b604051610327919061460e565b61067d610678366004613be6565b611088565b604051610327919061445b565b61069d610698366004613f4e565b6110d5565b6040516103279190614768565b61039c6110f8565b6106c56106c0366004613be6565b611107565b6040516103279291906144df565b61039c61119f565b61039c6106e9366004613e10565b6111b7565b6104306106fc366004613e10565b6111cb565b61071461070f366004613f82565b6111e2565b604051610327959493929190614842565b610430610733366004613e2a565b611207565b61074b610746366004613e10565b611265565b60405161032791906146aa565b610430610766366004613ebb565b611283565b61077e610779366004613e10565b61129e565b6040516103279291906146d6565b61039c61079a366004613e10565b611370565b6104506107ad366004613f1b565b61138b565b61039c6113a6565b61055c6107c8366004613e10565b6113be565b6107e06107db366004613be6565b6113cf565b6040516103279392919061461c565b6104a46107fd366004613e2a565b61154f565b60005461ffff1690565b60606000610818611577565b9050826001600160401b038111801561083057600080fd5b5060405190808252806020026020018201604052801561085a578160200160208202803683370190505b50915060005b838110156108cc5781600086868481811061087757fe5b905060200201602081019061088c9190613be6565b6001600160a01b03166001600160a01b03168152602001908152602001600020548382815181106108b957fe5b6020908102919091010152600101610860565b505092915050565b600054600d546001600160a01b03640100000000909204821691169091565b60008060006109006138d8565b600061090b86611584565b9050806001600160a01b031663e79bf13b6040518163ffffffff1660e01b815260040160006040518083038186803b15801561094657600080fd5b505afa15801561095a573d6000803e3d6000fd5b505050506040513d6000823e601f3d908101601f191682016040526109829190810190613cd8565b60008151811061098e57fe5b602002602001015194506109a06115b4565b61ffff8716600090815260209182526040808220815160608101835290546001600160801b038116825264ffffffffff600160801b8204811695830195909552600160a81b9004909316908301529092506109f96115c1565b61ffff9788166000908152602091825260408082206001600160a01b038a1683529092522054959760ff871697610100909704909616959294509192505050565b6000610a45826115ce565b610a4e8261160b565b90505b919050565b610a5e6138f8565b610a66613919565b600080600080610a768888611638565b9096509450610a8586896116f6565b989b979a5091985096909590945092505050565b610aa1613919565b610a4e826117ca565b6002546001600160a01b031681565b600080600080600080600080610ace89611898565b939b509198509650909450610ae4905089611904565b91985092509050610af6898942611965565b90915090505080935050919395975091939597565b6000610b18828442611965565b50919250610b2c91505061ffff8416611998565b6001600160a01b0316826001600160a01b03161415610b93576000610b5184426119be565b905060005b81518110156108cc57610b89828281518110610b6e57fe5b60200260200101516060015184611a7690919063ffffffff16565b9250600101610b56565b92915050565b6060610ba4826115ce565b610a4e82426119be565b610bb6613965565b610bbe613965565b610bc7836115ce565b610bd48361ffff16611a8c565b9150610be38361ffff16611a9f565b9050915091565b6000610a4e82611584565b6000806000610c0c84610c07866117ca565b611ab2565b9250925092509193909250565b606080610c25836115ce565b6000610c348461ffff16611b4d565b60ff16905080610c445750610d47565b806001600160401b0381118015610c5a57600080fd5b50604051908082528060200260200182016040528015610c9457816020015b610c81613994565b815260200190600190039081610c795790505b509250806001600160401b0381118015610cad57600080fd5b50604051908082528060200260200182016040528015610ce757816020015b610cd4613994565b815260200190600190039081610ccc5790505b50915060015b818111610d4457610cfe8582611b63565b846001830381518110610d0d57fe5b6020026020010181905250610d228582611b7d565b836001830381518110610d3157fe5b6020908102919091010152600101610ced565b50505b915091565b606080610d58836115ce565b6000610d678461ffff16611b4d565b60ff169050610d7a8461ffff1682611b92565b915050915091565b61ffff166000908152600c602052604090205490565b610da06139d9565b610da8613a2d565b610db1836115ce565b610dbe8361ffff16611bb9565b9150610be383611c41565b6001600160a01b031660009081526008602052604090205460ff1690565b610def613a57565b610df8846115ce565b6000610e0385611ccc565b9050610e0d613a57565b610e2e8661ffff1686426001610e2287611ced565b8694939291908a611d01565b9150505b9392505050565b600080600080610e47611d38565b61ffff90961660009081526020968752604080822096825295909652505050908220546001600160501b03808216840394600160501b8304821690940393600160a01b909204169150565b6001600160a01b031660009081526006602052604090205460ff1690565b6001546001600160a01b031681565b610ec7613965565b610ecf613965565b610ed7613a9f565b610edf613a2d565b610ee8856115ce565b610ef58561ffff16611a8c565b9350610f048561ffff16611a9f565b9250610f138561ffff16611d45565b9150610f1e85611c41565b90509193509193565b60005464010000000090046001600160a01b031681565b6000610f49826115ce565b610e32838361ffff16611ea8565b6000610f62836115ce565b610f71848461ffff1684611edd565b949350505050565b6001600160a01b03811660009081526009602052604090205461ffff1680610a515760405162461bcd60e51b8152600401610309906145e4565b6000610fbe826115ce565b6000610fcd8361ffff16611998565b90506001600160a01b038116610a4e5760405162461bcd60e51b81526004016103099061450e565b606080611001836115ce565b60006110108461ffff16611b4d565b60ff1690506110238461ffff1682611f22565b909590945092505050565b600b546001600160a01b031690565b606080600080600061104e86611898565b50935093505092506110608682611f57565b945061106d868484611f6b565b9350505050915091565b61107f613ace565b610a4e82612084565b6060600061109583612084565b90506110a08161213d565b156110c7576110bf838260600151836000015164ffffffffff16611f6b565b915050610a51565b6110bf838260400151611f57565b6110dd6138f8565b6110e6836115ce565b610e32838364ffffffffff164261214a565b600e546001600160a01b031681565b6000606073__$841fddfe32830bb6dbc3a02d7f16c53722$__636cb65eaf846040518263ffffffff1660e01b81526004016111429190614336565b60006040518083038186803b15801561115a57600080fd5b505af415801561116e573d6000803e3d6000fd5b505050506040513d6000823e601f3d908101601f191682016040526111969190810190613d75565b91509150915091565b73__$841fddfe32830bb6dbc3a02d7f16c53722$__90565b60006111c2826115ce565b610a4e8261217c565b60006111d6826115ce565b610a4e610fee83612186565b60008060008060006111f3866121d7565b945094509450945094505b91939590929450565b600080611212612219565b6001600160a01b03841660009081526020828152604080832061ffff891684529091528120805492935091600160a81b9004600a90810b900b90811261125957600061125b565b805b9695505050505050565b61126d6139d9565b611276826115ce565b610a4e8261ffff16611bb9565b60006112928686868686612226565b90505b95945050505050565b6112a6613ace565b6112ae613b03565b6112b7836115ce565b60006112c1612294565b905060006112cd6122a1565b61ffff909516600081815260209384526040808220815160c08101835290546001600160a01b03808216835260ff600160a01b8084048216858b0152600160a81b84048216151585870152600160b01b840482166060860152600160b81b840482166080860152600160c01b909304811660a085015295855299875292829020825180840190935254988916825291909704909116928601929092525093915050565b6000806113808361ffff16611998565b9050610e32816122ae565b6060611396836115ce565b610e32838363ffffffff166119be565b73cfeaead4947f0705a14ec42ac3d44129e1ef3ed590565b6113c6613994565b610a4e82612327565b6113d7613ace565b6060806113e384612084565b60408051600a8082526101608201909252919450816020015b611404613b1a565b8152602001906001900390816113fc57905050915060006114248461213d565b156114785760008360008151811061143857fe5b602090810291909101015160608601805161ffff1682525190915061145f90879042611965565b6080850152606084015260408301526020909101526001015b60808401515b6001600160701b031981161561150657600084838151811061149c57fe5b602090810291909101015160f083901c613fff168082529091506114c05750611506565b6114cf87826000015142611965565b6080850152606084015260408301526020909101526001919091019060101b6fffffffffffffffffffffffffffffffff191661147e565b61150f8561213d565b156115355761152e868660600151876000015164ffffffffff16611f6b565b9250611546565b611543868660400151611f57565b92505b50509193909250565b600080600061155d856115ce565b611568848642611965565b50919790965090945092505050565b600080610b93602661235a565b60008061158f612373565b61ffff939093166000908152602093909352505060409020546001600160a01b031690565b600080610b93602561235a565b600080610b93602461235a565b8061ffff1660001080156115ec575060005461ffff90811690821611155b6116085760405162461bcd60e51b8152600401610309906145b7565b50565b6000611615612380565b61ffff90921660009081526020929092525060409020546001600160a01b031690565b6116406138f8565b611648613919565b611651846117ca565b9050828160000151101561168257600061166a8561238d565b905061167885838387612408565b50915061168f9050565b8051831461168f57600080fd5b60405180606001604052806116bd6116b88460a001518560c001516124ac90919063ffffffff16565b6124d3565b81526020016116e06116b88460a001518560e001516124ac90919063ffffffff16565b8152602001826060015181525091509250929050565b60008060008060006117066124ed565b61ffff8716600090815260209190915260409020600181015490915061173890600160581b900463ffffffff166124fa565b60018201549095506117629060649061175c908890600160781b900460ff166124ac565b90612508565b81549093506501000000000090046affffffffffffffffffffff1661178f61178a8983612527565b612570565b60018301549095506affffffffffffffffffffff166000036117bc61178a6117b78b8461257f565b6125d0565b935050505092959194509250565b6117d2613919565b60006117dc6124ed565b61ffff93841660009081526020918252604090819020805464ffffffffff811686526501000000000081046affffffffffffffffffffff908116948701949094526001820154841692860192909252600160d81b820463ffffffff166060860152600160801b9091049091166080840152600201546001600160501b0380821660a0850152600160501b8204811660c0850152600160a01b82041660e0840152600160f01b900460ff1661012c02909216610100820152919050565b6000806000806000806118a96125de565b6001600160a01b039097166000908152602097909752505060409094205461ffff81169563ffffffff620100008304811696506601000000000000830416945060ff600160501b8304169350600160581b90910460d01b9150565b6000806000806119126125eb565b6001600160a01b0395909516600090815260209590955250506040909220546bffffffffffffffffffffffff811693600160601b82046001600160801b03169350600160e01b90910463ffffffff169150565b60008060008060006119778787611638565b5090506119858888836125f8565b9450945094509450505b93509350935093565b6000806119a36126b2565b6000938452602052505060409020546001600160a01b031690565b606060006119cb84611ccc565b9050600081602001516001600160401b03811180156119e957600080fd5b50604051908082528060200260200182016040528015611a2357816020015b611a10613a57565b815260200190600190039081611a085790505b50905060005b8260200151811015611a6d57611a65828281518110611a4457fe5b602002602001015182600101600188876126bf90949392919063ffffffff16565b600101611a29565b50949350505050565b81810182811215600083121514610b9357600080fd5b611a94613965565b610a4e82600061273a565b611aa7613965565b610a4e82600161273a565b600080600080600085602001511115611aff57611afc611ae38660c0015187602001516124ac90919063ffffffff16565b60e08701516040880151611af6916124ac565b906127d4565b90505b6000611b0a87612327565b9050611b1681836127ed565b94508115611b2d57611b2a818660016128a7565b93505b602086015115611b4457611b41858361291f565b92505b50509250925092565b600080611b5983612938565b60ff169392505050565b611b6b613994565b610e328383611b78612955565b612962565b611b85613994565b610e328383611b786129b9565b60606000611b9e6129c6565b600085815260208290526040902090915061125b81856129d3565b611bc16139d9565b6000611bcc83612938565b9050600081601f60408051610140810190915291901a80825291506020810183601e1a815260200183601d1a815260200183601c1a815260200183601b1a815260200183601a1a81526020018360191a81526020018360181a81526020018360171a81526020018360161a9052949350505050565b611c49613a2d565b6000611c588361ffff16611a9f565b90506000611c786402540be4008360400151612b1590919063ffffffff16565b90506000611c868542611638565b50604080850151908601528051909150611cbb906ec097ce7bc90715b34b9f100000000090611cb59085612b15565b90612b63565b602085015250506000825250919050565b611cd4613b4d565b6000611ce08342611638565b509050610e328382612b94565b6060015161012c60089190911c60ff160290565b611d0e8787878685612bd7565b611d278760e001518860a001518960c001518588612c92565b60c090970196909652505050505050565b600080610b93602061235a565b611d4d613a9f565b6000611d57612294565b6000848152602082905260408120919250806001861415611d845750670de0b6b3a7640000905080611e47565b825460408051633fabe5a360e21b815290516001600160a01b039092169163feaf968c9160048082019260a092909190829003018186803b158015611dc857600080fd5b505afa158015611ddc573d6000803e3d6000fd5b505050506040513d601f19601f82011682018060405250810190611e009190613fbd565b5091935050600083139150611e16905057600080fd5b825460ff600160a01b82048116600a0a9350600160a81b9091041615611e4757611e4481611cb58480612b15565b90505b8254600160b01b900460ff166096811315611e675760951901600a026096015b6040805160a081018252938452602084019290925290820152905460ff600160b81b820481166060840152600160c01b909104166080820152915050919050565b600080611eb3612d1a565b6001600160a01b038516600090815260209182526040808220868352909252205491505092915050565b600080611ee8612d27565b6001600160a01b03861660009081526020918252604080822087835283528082208683529092522054600f90810b900b9150509392505050565b6060806000611f2f612d34565b6000868152602082905260409020909150611f4a81866129d3565b9097909650945050505050565b6060611f638383612d41565b509392505050565b60606000611f7d858561ffff16611ea8565b90506000611f8a82612d62565b90506000816001600160401b0381118015611fa457600080fd5b50604051908082528060200260200182016040528015611fde57816020015b611fcb613b79565b815260200190600190039081611fc35790505b509050600091506000611ff084612e32565b90505b80156120795760006120058783612e57565b905060006120188a8a61ffff1684611edd565b9050600084868151811061202857fe5b60209081029190910181015161ffff8c168152908101849052600160408201819052606082018490529690960195905061206487856000612f0a565b965061206f87612e32565b9350505050611ff3565b509695505050505050565b61208c613ace565b6000612096612f55565b6001600160a01b03841660009081526020918252604090819020815160c081018352905464ffffffffff811682526001600160f81b031965010000000000820460f81b169382019390935260ff6601000000000000840481169282019290925261ffff600160381b84041660608201526001600160701b03196901000000000000000000840460701b166080820152600160d81b90920416151560a0820152915050919050565b6060015161ffff16151590565b6121526138f8565b600061215e8585612f62565b909250905080611f63576121728584611638565b5095945050505050565b6000611615612ff5565b600080612191612219565b6001600160a01b03851660009081526020828152604080832061ffff8816845290915281208054600160a81b9004600a90810b900b94509192508312156108cc57600080fd5b603081901c64ffffffffff600883901c1660ff831660008060018314156122095750600160ff604087901c16146111fe565b604086901c915091939590929450565b600080610b93600661235a565b600060018414156122525761224b868684612242576001612246565b6000195b613002565b9050611295565b600b8414806122615750600984145b8061226c5750600a84145b1561227d5761224b8387878761304b565b600c84141561228f5761224b8661307e565b600080fd5b600080610b93601061235a565b600080610b93600f61235a565b6000806122b96125de565b6001600160a01b0384166000908152602082905260409020805491925090600160f81b900460ff1615612315576122ee613091565b6001600160a01b038086166000908152602092909252604090912054169250610a51915050565b600092505050610a51565b5050919050565b61232f613994565b60006123396129b9565b61ffff8416600090815260209190915260408120549150610e32908261309e565b6000620f424082602681111561236c57fe5b0192915050565b600080610b93601f61235a565b600080610b93602161235a565b60008061239983611584565b6001600160a01b031663a77c05b86040518163ffffffff1660e01b8152600401604080518083038186803b1580156123d057600080fd5b505afa1580156123e4573d6000803e3d6000fd5b505050506040513d601f19601f82011682018060405250810190610f719190613f9a565b612410613919565b60008060006124208886896131bd565b60c08b019290925260e08a01929092526020890151919350915061244490836132c7565b602088015260808701516000901561247257608088015161246f9061246989826132d9565b906132ee565b90505b612492612487670de0b6b3a7640000836132c7565b60a08a015190613305565b60a089015250506080860194909452505082529092909150565b6000826124bb57506000610b93565b828202828482816124c857fe5b0414610e3257600080fd5b60006001600160ff1b038211156124e957600080fd5b5090565b600080610b93601d61235a565b600881901c60ff9091161b90565b600080821161251657600080fd5b81838161251f57fe5b049392505050565b6000806125546ec097ce7bc90715b34b9f1000000000611cb5866000015186612b1590919063ffffffff16565b9050600083126125645780610f71565b610f7181600019613322565b6000808212156124e957600080fd5b60006001821261258e57600080fd5b8161259b57506000610b93565b610e3260016125ca6ec097ce7bc90715b34b9f1000000000611cb5876020015187612b1590919063ffffffff16565b90613338565b6000610a4e60001983612b15565b600080610b93600261235a565b600080610b93601161235a565b6000806000806000612608612219565b6001600160a01b03891660009081526020828152604080832061ffff8c168452909152902080546001600160501b0381169650600160501b900463ffffffff169450909150831561267557805461266e90600160701b900466ffffffffffffff166124fa565b925061268a565b8054600160701b900466ffffffffffffff1692505b80546126a5908890600160a81b9004600a90810b900b61334e565b9550505093509350935093565b600080610b93600361235a565b826001111580156126d4575084602001518311155b6126f05760405162461bcd60e51b815260040161030990614565565b600061270d6126fe85613375565b61270784613419565b906132c7565b9050612732866000015161ffff168284866127278b611ced565b8a949392919061343a565b505050505050565b612742613965565b600061274c613464565b6000858152602082815260408083208715158452825291829020825160a08101845281546001600160a01b038116825260ff600160a01b82048116151594830194909452600160b01b81048416600a0a9482019490945293945092916060830191600160a81b9091041660058111156127c157fe5b8152600060209091015295945050505050565b6000610e326127e784633b9aca006124ac565b83612508565b6000808360800151116127ff57600080fd5b633b9aca0082111561281057600080fd5b82518211612836578251604084015161282f919061175c9085906124ac565b9050610b93565b8260200151821161286e57604083015183516020850151606086015161282f9392612707928190039161175c918803908590036124ac565b610e3283606001516127078560200151633b9aca000361175c8760600151886080015103886020015188036124ac90919063ffffffff16565b6000806128c6606461175c8760e00151876124ac90919063ffffffff16565b90508460a001518110156128db575060a08401515b8460c001518111156128ee575060c08401515b8215612905576128fe84826132c7565b9150611f63565b83811161291457808403610e2e565b600095945050505050565b6000610e3261292e84846124ac565b633b9aca00612508565b600080612943613471565b60009384526020525050604090205490565b600080610b93601c61235a565b61296a613994565b60006129758461347e565b61ffff86166000908152602085905260408120919250906004861061299b57600161299e565b60005b60ff16600281106129ab57fe5b0154905061125b828261309e565b600080610b93601b61235a565b600080610b93600561235a565b606080600080846001600160401b03811180156129ef57600080fd5b50604051908082528060200260200182016040528015612a19578160200160208202803683370190505b5090506000856001600160401b0381118015612a3457600080fd5b50604051908082528060200260200182016040528015612a5e578160200160208202803683370190505b50905060005b86811015612b08578784600e8110612a7857fe5b600891828204019190066004029054906101000a900463ffffffff1663ffffffff16838281518110612aa657fe5b60209081029190910101526001909301928784600e8110612ac357fe5b600891828204019190066004029054906101000a900463ffffffff1663ffffffff16828281518110612af157fe5b602090810291909101015260019384019301612a64565b5090969095509350505050565b818102600019831415612b4557811580612b37575082828281612b3457fe5b05145b612b4057600080fd5b610b93565b821580612b5a575081838281612b5757fe5b05145b610b9357600080fd5b600081600019148015612b795750600160ff1b83145b15612b8357600080fd5b818381612b8c57fe5b059392505050565b612b9c613b4d565b6000612bab8461ffff16612938565b6040805160808101825261ffff96909616865260ff821660208701528501939093525050606082015290565b6000612be16134b7565b6000868152602082815260408083208884528252808320868452825291829020808a5290890187905280546001600160501b03808216938b0193909352600160501b810490921660608a015263ffffffff600160a01b8304811660a08b0152600160c01b8304811660c08b0152600160e01b90920490911660e0890152909150808415612c805760018201546001600160501b03166080890152612c88565b600060808901525b5050505050505050565b6000808311612ca057600080fd5b81861115612caf575083611295565b6000612cbb83886132d9565b905083811115612cce5785915050611295565b6000612cda82866127d4565b90506000612cec633b9aca00836132d9565b9050612d0d633b9aca0061175c612d038a856124ac565b6127078c876124ac565b9998505050505050505050565b600080610b93600b61235a565b600080610b93600c61235a565b600080610b93600461235a565b606080612d4e84846134c4565b9150612d59826135db565b90509250929050565b600181901c7f5555555555555555555555555555555555555555555555555555555555555555908116911601600281901c7f3333333333333333333333333333333333333333333333333333333333333333908116911601600481901c7f07070707070707070707070707070707070707070707070707070707070707079190911601600881901c7e0f000f000f000f000f000f000f000f000f000f000f000f000f000f000f000f908116911601601081901c01602081901c01604081901c01608081901c60ff90811691160190565b600081612e4157506000610a51565b612e4a82613794565b60ff036001019050919050565b600081612e6357600080fd5b610100821115612e7257600080fd5b6000612e7d8461382d565b90506000605a8411612e985750620151808302019050610b93565b60878411612ec0575060591983016207e900908102908206909103016276a700019050610b93565b60c38411612ee95750608619830162278d00908102908206909103016301da9c00019050610b93565b5060c21983016276a70090810290820690910301630b1fa800019050610b93565b600060018310158015612f1f57506101008311155b612f2857600080fd5b8115612f415750600160ff1b60001983011c8317610e32565b50600160ff1b60001983011c198316610e32565b600080610b93600161235a565b612f6a6138f8565b600080612f75613849565b61ffff861660009081526020828152604080832088845290915290208054600160f01b900460ff1693509091508215612fec5780546001600160501b03600160a01b8204811691612fc79116826124ac565b85528154612fe590600160501b90046001600160501b0316826124ac565b6020860152505b50509250929050565b600080610b93602261235a565b6000613fff61ffff8516111561301757600080fd5b64ffffffffff83111561302957600080fd5b6130338484613856565b90506000821215610e3257600160401b179392505050565b68010000000000000000600160e01b03604085901b1661ffff60301b603085901b1617600883901b178117949350505050565b600c60309190911b61ffff60301b161790565b600080610b93601261235a565b6130a6613994565b6064633b9aca008360ff8616602081106130bc57fe5b1a02816130c557fe5b0481526064633b9aca008360ff8616600101602081106130e157fe5b1a02816130ea57fe5b0481602001818152505061310f8260028560ff16016020811061310957fe5b1a613871565b60808201819052610100908360ff86166003016020811061312c57fe5b1a028161313557fe5b0460408201526080810151610100908360ff86166004016020811061315657fe5b1a028161315f57fe5b0460608201526207a1208260ff85166005016020811061317b57fe5b1a0260a0820152622625a08260ff85166006016020811061319857fe5b1a0260c08201528160ff8416600701602081106131b157fe5b1a60e082015292915050565b6000806000806000806131d08988611ab2565b895190955091935091506000906131f7906131ec908b906132d9565b633b9aca00906124ac565b90506132316132266301da9c0061320e85856124ac565b8161321557fe5b670de0b6b3a76400009190046132c7565b60e08a015190613305565b96506132536132486301da9c0061320e87856124ac565b60c08a015190613305565b95508183141561326a57506000935061198f915050565b600061328c6132816301da9c0061320e87866124ac565b60e08b015190613305565b9050600061329a89836132d9565b90506132b78861175c838d604001516124ac90919063ffffffff16565b9650505050505093509350935093565b600082820183811015610e3257600080fd5b6000828211156132e857600080fd5b50900390565b6000610e326127e784670de0b6b3a76400006124ac565b6000610e3261331484846124ac565b670de0b6b3a7640000612508565b60008183126133315781610e32565b5090919050565b80820382811315600083121514610b9357600080fd5b600080821261335e575080610b93565b8251602084015161282f9190611cb5908590612b15565b6000816001141561338a57506276a700610a51565b816002141561339d575062ed4e00610a51565b81600314156133b157506301da9c00610a51565b81600414156133c557506303b53800610a51565b81600514156133d957506309450c00610a51565b81600614156133ed575063128a1800610a51565b816007141561340157506325143000610a51565b60405162461bcd60e51b81526004016103099061453e565b60006276a70082101561342b57600080fd5b6276a700825b06909103919050565b60006276a70061344985613419565b01905061345b87878787878787611d01565b50505050505050565b600080610b93600761235a565b600080610b93600961235a565b60008160001061348d57600080fd5b600782111561349b57600080fd5b600482106134ac57600482036134ae565b815b60080292915050565b600080610b93600a61235a565b606060088260ff1611156134d757600080fd5b60006134e16138a5565b6001600160a01b038516600090815260208290526040812091925060ff85166001600160401b038111801561351557600080fd5b5060405190808252806020026020018201604052801561354f57816020015b61353c613b79565b8152602001906001900390816135345790505b50905060005b8560ff1681101561217257600083826008811061356e57fe5b019050600083838151811061357f57fe5b602090810291909101810151835461ffff8116825264ffffffffff620100008204169282019290925260ff600160381b8304166040820152600160401b909104600a90810b900b60608201526080019190915250600101613555565b8051606090806001600160401b03811180156135f657600080fd5b50604051908082528060200260200182016040528015613620578160200160208202803683370190505b50915060005b8181101561367d57600084828151811061363c57fe5b6020026020010151905061365d8160000151826020015183604001516138b2565b84838151811061366957fe5b602090810291909101015250600101613626565b5060015b8181101561232057805b6000811180156136c357508381815181106136a257fe5b60200260200101518460018303815181106136b957fe5b6020026020010151115b1561378b578381815181106136d457fe5b60200260200101518460018303815181106136eb57fe5b602002602001015185600184038151811061370257fe5b6020026020010186848151811061371557fe5b602002602001018281525082815250505084818151811061373257fe5b602002602001015185600183038151811061374957fe5b602002602001015186600184038151811061376057fe5b6020026020010187848151811061377357fe5b6020908102919091010191909152526000190161368b565b50600101613681565b6000816137a057600080fd5b600160801b82106137b357608091821c91015b600160401b82106137c657604091821c91015b64010000000082106137da57602091821c91015b6201000082106137ec57601091821c91015b61010082106137fd57600891821c91015b6010821061380d57600491821c91015b6004821061381d57600291821c91015b60028210610a5157600101919050565b60006201518082101561383f57600080fd5b6201518082613431565b600080610b93601e61235a565b61ffff60301b603083901b16600882901b1760011792915050565b60008160ff1660961061388c5760ff8216622625a002610a4e565b5060951960ff919091160162e4e1c00263165a0bc00190565b600080610b93600d61235a565b61ffff60301b603084901b1665ffffffffff00600884901b161760ff8216179392505050565b604080516060810182526000808252602082018190529181019190915290565b60405180606001604052806000815260200160008152602001600081525090565b6040518061012001604052806000815260200160008152602001600081526020016000815260200160008152602001600081526020016000815260200160008152602001600081525090565b6040805160a0810182526000808252602082018190529181018290529060608201908152602001600081525090565b60405180610100016040528060008152602001600081526020016000815260200160008152602001600081526020016000815260200160008152602001600081525090565b6040805161014081018252600080825260208201819052918101829052606081018290526080810182905260a0810182905260c0810182905260e08101829052610100810182905261012081019190915290565b604051806060016040528060006001600160a01b0316815260200160008152602001600081525090565b60405180610100016040528060008019168152602001600081526020016000815260200160008152602001600081526020016000815260200160008152602001600081525090565b6040518060a0016040528060008152602001600081526020016000815260200160008152602001600081525090565b6040805160c081018252600080825260208201819052918101829052606081018290526080810182905260a081019190915290565b604080518082019091526000808252602082015290565b6040518060a00160405280600061ffff168152602001600081526020016000815260200160008152602001600081525090565b6040805160808101825260008082526020820152908101613b6c6138f8565b8152600060209091015290565b6040518060c00160405280600061ffff1681526020016000815260200160008152602001600081526020016000815260200160006003811115613bb857fe5b905290565b803561ffff81168114610a5157600080fd5b80516001600160501b0381168114610a5157600080fd5b600060208284031215613bf7578081fd5b8135610e32816148fc565b60008060408385031215613c14578081fd5b8235613c1f816148fc565b9150612d5960208401613bbd565b600080600060608486031215613c41578081fd5b8335613c4c816148fc565b9250613c5a60208501613bbd565b9150604084013590509250925092565b60008060208385031215613c7c578182fd5b82356001600160401b0380821115613c92578384fd5b818501915085601f830112613ca5578384fd5b813581811115613cb3578485fd5b8660208083028501011115613cc6578485fd5b60209290920196919550909350505050565b60006020808385031215613cea578182fd5b82516001600160401b03811115613cff578283fd5b8301601f81018513613d0f578283fd5b8051613d22613d1d826148df565b6148bc565b8181528381019083850185840285018601891015613d3e578687fd5b8694505b83851015613d69578051613d55816148fc565b835260019490940193918501918501613d42565b50979650505050505050565b60008060408385031215613d87578182fd5b825191506020808401516001600160401b03811115613da4578283fd5b8401601f81018613613db4578283fd5b8051613dc2613d1d826148df565b81815283810190838501858402850186018a1015613dde578687fd5b8694505b83851015613e00578051835260019490940193918501918501613de2565b5080955050505050509250929050565b600060208284031215613e21578081fd5b610e3282613bbd565b60008060408385031215613e3c578182fd5b613e4583613bbd565b91506020830135613e55816148fc565b809150509250929050565b60008060408385031215613e72578182fd5b613e7b83613bbd565b946020939093013593505050565b600080600060608486031215613e9d578283fd5b613ea684613bbd565b95602085013595506040909401359392505050565b600080600080600060a08688031215613ed2578283fd5b613edb86613bbd565b945060208601359350604086013592506060860135613ef9816148fc565b915060808601358015158114613f0d578182fd5b809150509295509295909350565b60008060408385031215613f2d578182fd5b613f3683613bbd565b9150602083013563ffffffff81168114613e55578182fd5b60008060408385031215613f60578182fd5b613f6983613bbd565b9150602083013564ffffffffff81168114613e55578182fd5b600060208284031215613f93578081fd5b5035919050565b60008060408385031215613fac578182fd5b505080516020909101519092909150565b600080600080600060a08688031215613fd4578283fd5b613fdd86613bcf565b945060208601519350604086015192506060860151915061400060808701613bcf565b90509295509295909350565b6000815180845260208085019450808401835b8381101561403b5781518752958201959082019060010161401f565b509495945050505050565b6000815180845260208085019450808401835b8381101561403b5761406c87835161422c565b610100969096019590820190600101614059565b6000815180845260208085019450808401835b8381101561403b578151805161ffff168852838101518489015260408082015190890152606080820151908901526080808201519089015260a09081015190600482106140dc57fe5b88015260c09096019590820190600101614093565b805164ffffffffff1682526020808201516001600160f81b0319169083015260408082015160ff169083015260608082015161ffff16908301526080808201516001600160701b0319169083015260a0908101511515910152565b61415782825161432f565b6020810151614169602084018261432f565b50604081015161417c604084018261432f565b50606081015161418f606084018261432f565b5060808101516141a2608084018261432f565b5060a08101516141b560a084018261432f565b5060c08101516141c860c084018261432f565b5060e08101516141db60e084018261432f565b50610100808201516141ef8285018261432f565b5050610120808201516142048285018261432f565b50505050565b80516001600160a01b0316825260208082015190830152604090810151910152565b805182526020810151602083015260408101516040830152606081015160608301526080810151608083015260a081015160a083015260c081015160c083015260e081015160e08301525050565b805182526020810151602083015260408101516040830152606081015160608301526080810151608083015260a081015160a083015260c081015160c083015260e081015160e08301526101008082015181840152505050565b8051825260208082015190830152604090810151910152565b80516001600160a01b031682526020808201511515908301526040808201519083015260608101516006811061431f57fe5b6060830152608090810151910152565b60ff169052565b6001600160a01b0391909116815260200190565b6001600160a01b0392831681529116602082015260400190565b6001600160a01b0394909416845260ff9290921660208085019190915261ffff9190911660408085019190915282516001600160801b031660608501529082015164ffffffffff90811660808501529101511660a082015260c00190565b6000604082526143d5604083018561400c565b8281036020840152610e2e818561400c565b6000604082526143fa6040830185614046565b8281036020840152610e2e8185614046565b6020808252825182820181905260009190848201906040850190845b8181101561444f5761443b83855161422c565b928401926101009290920191600101614428565b50909695505050505050565b600060208252610e326020830184614080565b6000604082526144816040830185614080565b8281036020840152610e2e8185614080565b6020808252825182820181905260009190848201906040850190845b8181101561444f578351835292840192918401916001016144af565b901515815260200190565b90815260200190565b600083825260406020830152610f71604083018461400c565b9283526020830191909152604082015260600190565b6020808252601690820152754e6f206e546f6b656e20666f722063757272656e637960501b604082015260600190565b6020808252600d908201526c092dcecc2d8d2c840d2dcc8caf609b1b604082015260600190565b6020808252600e908201526d125b9d985b1a59081b585c9ad95d60921b604082015260600190565b60208082526010908201526f13595d1a1bd9081b9bdd08199bdd5b9960821b604082015260600190565b602080825260139082015272125b9d985b1a590818dd5c9c995b98de481a59606a1b604082015260600190565b60208082526010908201526f151bdad95b881b9bdd081b1a5cdd195960821b604082015260600190565b60c08101610b9382846140f1565b600061010080830161462e84886140f1565b60c0840191909152845190819052610120830190602090818701845b82811015614694578151805161ffff168652848101518587015260408082015190870152606080820151908701526080908101519086015260a0909401939083019060010161464a565b5050505082810360e084015261125b8185614080565b6101408101610b93828461414c565b6101a081016146c8828561414c565b610e3261014083018461420a565b60006101008201905060018060a01b0380855116835260ff602086015116602084015260408501511515604084015260ff606086015116606084015260ff608086015116608084015260ff60a08601511660a08401528084511660c08401525060ff60208401511660e08301529392505050565b6101008101610b93828461422c565b6101208101610b93828461427a565b60608101610b9382846142d4565b610200810161478582896142d4565b614792606083018861427a565b85610180830152846101a0830152836101c0830152826101e0830152979650505050505050565b61014081016147c882856142ed565b610e3260a08301846142ed565b61024081016147e482876142ed565b6147f160a08301866142ed565b83516101408301526020840151610160830152604084015161018083015260608401516101a083015260808401516101c08301526112956101e083018461420a565b61ffff91909116815260200190565b61ffff959095168552602085019390935260408401919091526001600160a01b031660608301521515608082015260a00190565b61ffff9890981688526020880196909652604087019490945260608601929092526001600160d01b031916608085015260a084015260c083015260e08201526101000190565b6040518181016001600160401b03811182821017156148d757fe5b604052919050565b60006001600160401b038211156148f257fe5b5060209081020190565b6001600160a01b038116811461160857600080fdfea2646970667358221220aa925de9f4b246f9872c7a26b1d30ccc57a3db9a0fb191c1e2c04989c92f5ca864736f6c63430007060033","language":"Solidity","natspec":{"kind":"dev","methods":{"getAccount(address)":{"notice":"Returns all account details in a single view"},"getAccountBalance(uint16,address)":{"notice":"Returns account balances for a given currency"},"getAccountContext(address)":{"notice":"Returns account context"},"getAccountPortfolio(address)":{"notice":"Returns account portfolio of assets"},"getActiveMarkets(uint16)":{"notice":"Returns all currently active markets for a currency"},"getActiveMarketsAtBlockTime(uint16,uint32)":{"notice":"Returns all active markets for a currency at the specified block time, useful for looking at historical markets"},"getAssetsBitmap(address,uint16)":{"notice":"Returns the assets bitmap for an account"},"getBalanceOfPrimeCash(uint16,address)":{"notice":"Returns the balance of figure for prime cash for the prime cash proxy, the logic is slightly modified for the nToken account because it needs to return the sum of all cash held in markets."},"getCashGroup(uint16)":{"notice":"Returns cash group settings for a currency"},"getCashGroupAndAssetRate(uint16)":{"notice":"Returns the cash group along with the asset rate for convenience."},"getCurrency(uint16)":{"notice":"Returns the asset token and underlying token related to a given currency id. If underlying token is not set then will return the zero address"},"getCurrencyAndRates(uint16)":{"notice":"Returns a currency and its corresponding asset rate and ETH exchange rates. Note that this does not recalculate cToken interest rates, it only retrieves the latest stored rate."},"getCurrencyId(address)":{"notice":"Returns a currency id, a zero means that it is not listed."},"getDepositParameters(uint16)":{"notice":"Returns nToken deposit parameters for a given currency"},"getFreeCollateral(address)":{"notice":"Returns free collateral of an account along with an array of the individual net available asset cash amounts"},"getInitializationParameters(uint16)":{"notice":"Returns market initialization parameters for a given currency"},"getLibInfo()":{"notice":"Get a list of deployed library addresses (sorted by library name)"},"getMarket(uint16,uint256,uint256)":{"notice":"Returns a single market"},"getMaxCurrencyId()":{"notice":"Returns the current maximum currency id"},"getNoteToken()":{"notice":"Returns address of the NOTE token"},"getOwnershipStatus()":{"notice":"Returns current ownership status of the contract","returns":{"_0":"owner is the current owner of the Notional system","_1":"pendingOwner can claim ownership from the owner"}},"getPrimeFactors(uint16,uint256)":{"notice":"Global System State View Methods *"},"getRateStorage(uint16)":{"notice":"Returns the ETH and Asset rates for a currency as stored, useful for viewing how they are configured"},"getReserveBalance(uint16)":{"notice":"Returns the current reserve balance for a currency"},"getReserveBuffer(uint16)":{"notice":"Returns the current reserve buffer for a currency","params":{"currencyId":"refers to the currency of the reserve"}},"getSettlementRate(uint16,uint40)":{"notice":"Returns the asset settlement rate for a given maturity"},"getTreasuryManager()":{"notice":"Returns the current treasury manager contract"},"getfCashNotional(address,uint16,uint256)":{"notice":"Returns the fCash amount at the specified maturity for a bitmapped portfolio"},"nTokenAddress(uint16)":{"notice":"Returns nToken address for a given currency"},"pCashAddress(uint16)":{"notice":"Returns pCash address for a given currency"}},"version":1},"opcodes":"PUSH1 0x80 PUSH1 0x40 MSTORE CALLVALUE DUP1 ISZERO PUSH2 0x10 JUMPI PUSH1 0x0 DUP1 REVERT JUMPDEST POP PUSH1 0x4 CALLDATASIZE LT PUSH2 0x2F1 JUMPI PUSH1 0x0 CALLDATALOAD PUSH1 0xE0 SHR DUP1 PUSH4 0x8ECD0660 GT PUSH2 0x19D JUMPI DUP1 PUSH4 0xC866A480 GT PUSH2 0xE9 JUMPI DUP1 PUSH4 0xE74B6E4E GT PUSH2 0xA2 JUMPI DUP1 PUSH4 0xEC41A257 GT PUSH2 0x7C JUMPI DUP1 PUSH4 0xEC41A257 EQ PUSH2 0x7B2 JUMPI DUP1 PUSH4 0xF5945404 EQ PUSH2 0x7BA JUMPI DUP1 PUSH4 0xFBCBC0F1 EQ PUSH2 0x7CD JUMPI DUP1 PUSH4 0xFC1B1345 EQ PUSH2 0x7EF JUMPI PUSH2 0x2F1 JUMP JUMPDEST DUP1 PUSH4 0xE74B6E4E EQ PUSH2 0x76B JUMPI DUP1 PUSH4 0xE7CEFFB8 EQ PUSH2 0x78C JUMPI DUP1 PUSH4 0xEC3C0501 EQ PUSH2 0x79F JUMPI PUSH2 0x2F1 JUMP JUMPDEST DUP1 PUSH4 0xC866A480 EQ PUSH2 0x6DB JUMPI DUP1 PUSH4 0xCA0EE700 EQ PUSH2 0x6EE JUMPI DUP1 PUSH4 0xCA668B3C EQ PUSH2 0x701 JUMPI DUP1 PUSH4 0xD3CA48E8 EQ PUSH2 0x725 JUMPI DUP1 PUSH4 0xD4CCB0ED EQ PUSH2 0x738 JUMPI DUP1 PUSH4 0xDD8E32EC EQ PUSH2 0x758 JUMPI PUSH2 0x2F1 JUMP JUMPDEST DUP1 PUSH4 0xAA94BAA7 GT PUSH2 0x156 JUMPI DUP1 PUSH4 0xB62D268A GT PUSH2 0x130 JUMPI DUP1 PUSH4 0xB62D268A EQ PUSH2 0x68A JUMPI DUP1 PUSH4 0xBC74BDEB EQ PUSH2 0x6AA JUMPI DUP1 PUSH4 0xC3999444 EQ PUSH2 0x6B2 JUMPI DUP1 PUSH4 0xC4C96DAE EQ PUSH2 0x6D3 JUMPI PUSH2 0x2F1 JUMP JUMPDEST DUP1 PUSH4 0xAA94BAA7 EQ PUSH2 0x629 JUMPI DUP1 PUSH4 0xB0DE2217 EQ PUSH2 0x64A JUMPI DUP1 PUSH4 0xB536FFB6 EQ PUSH2 0x66A JUMPI PUSH2 0x2F1 JUMP JUMPDEST DUP1 PUSH4 0x8ECD0660 EQ PUSH2 0x5C2 JUMPI DUP1 PUSH4 0x911A56B0 EQ PUSH2 0x5D5 JUMPI DUP1 PUSH4 0x94F1D1E4 EQ PUSH2 0x5E8 JUMPI DUP1 PUSH4 0x974B1054 EQ PUSH2 0x5FB JUMPI DUP1 PUSH4 0x97F503F5 EQ PUSH2 0x60E JUMPI DUP1 PUSH4 0x9C4E89F4 EQ PUSH2 0x621 JUMPI PUSH2 0x2F1 JUMP JUMPDEST DUP1 PUSH4 0x594665B5 GT PUSH2 0x25C JUMPI DUP1 PUSH4 0x6E4682F7 GT PUSH2 0x215 JUMPI DUP1 PUSH4 0x722ABB86 GT PUSH2 0x1EF JUMPI DUP1 PUSH4 0x722ABB86 EQ PUSH2 0x57C JUMPI DUP1 PUSH4 0x82463367 EQ PUSH2 0x58F JUMPI DUP1 PUSH4 0x88A73EB7 EQ PUSH2 0x597 JUMPI DUP1 PUSH4 0x8DA5CB5B EQ PUSH2 0x5BA JUMPI PUSH2 0x2F1 JUMP JUMPDEST DUP1 PUSH4 0x6E4682F7 EQ PUSH2 0x529 JUMPI DUP1 PUSH4 0x709D6C7B EQ PUSH2 0x549 JUMPI DUP1 PUSH4 0x71542333 EQ PUSH2 0x569 JUMPI PUSH2 0x2F1 JUMP JUMPDEST DUP1 PUSH4 0x594665B5 EQ PUSH2 0x47E JUMPI DUP1 PUSH4 0x5AB75943 EQ PUSH2 0x491 JUMPI DUP1 PUSH4 0x5EB2C1CA EQ PUSH2 0x4B3 JUMPI DUP1 PUSH4 0x65663B59 EQ PUSH2 0x4D4 JUMPI DUP1 PUSH4 0x67C22CE5 EQ PUSH2 0x4F5 JUMPI DUP1 PUSH4 0x6987A203 EQ PUSH2 0x508 JUMPI PUSH2 0x2F1 JUMP JUMPDEST DUP1 PUSH4 0x24980CE0 GT PUSH2 0x2AE JUMPI DUP1 PUSH4 0x24980CE0 EQ PUSH2 0x3CE JUMPI DUP1 PUSH4 0x24A3D622 EQ PUSH2 0x3EE JUMPI DUP1 PUSH4 0x2D353221 EQ PUSH2 0x3F6 JUMPI DUP1 PUSH4 0x39DF4791 EQ PUSH2 0x41D JUMPI DUP1 PUSH4 0x497CF7E3 EQ PUSH2 0x43D JUMPI DUP1 PUSH4 0x4EBAD18E EQ PUSH2 0x45D JUMPI PUSH2 0x2F1 JUMP JUMPDEST DUP1 PUSH4 0x4CCB84E EQ PUSH2 0x312 JUMPI DUP1 PUSH4 0x1794B8EF EQ PUSH2 0x330 JUMPI DUP1 PUSH4 0x197A6DC0 EQ PUSH2 0x350 JUMPI DUP1 PUSH4 0x1B36B3DA EQ PUSH2 0x366 JUMPI DUP1 PUSH4 0x1D66D03F EQ PUSH2 0x389 JUMPI DUP1 PUSH4 0x206F2799 EQ PUSH2 0x3A9 JUMPI JUMPDEST PUSH1 0x40 MLOAD PUSH3 0x461BCD PUSH1 0xE5 SHL DUP2 MSTORE PUSH1 0x4 ADD PUSH2 0x309 SWAP1 PUSH2 0x458D JUMP JUMPDEST PUSH1 0x40 MLOAD DUP1 SWAP2 SUB SWAP1 REVERT JUMPDEST PUSH2 0x31A PUSH2 0x802 JUMP JUMPDEST PUSH1 0x40 MLOAD PUSH2 0x327 SWAP2 SWAP1 PUSH2 0x4833 JUMP JUMPDEST PUSH1 0x40 MLOAD DUP1 SWAP2 SUB SWAP1 RETURN JUMPDEST PUSH2 0x343 PUSH2 0x33E CALLDATASIZE PUSH1 0x4 PUSH2 0x3C6A JUMP JUMPDEST PUSH2 0x80C JUMP JUMPDEST PUSH1 0x40 MLOAD PUSH2 0x327 SWAP2 SWAP1 PUSH2 0x4493 JUMP JUMPDEST PUSH2 0x358 PUSH2 0x8D4 JUMP JUMPDEST PUSH1 0x40 MLOAD PUSH2 0x327 SWAP3 SWAP2 SWAP1 PUSH2 0x434A JUMP JUMPDEST PUSH2 0x379 PUSH2 0x374 CALLDATASIZE PUSH1 0x4 PUSH2 0x3E10 JUMP JUMPDEST PUSH2 0x8F3 JUMP JUMPDEST PUSH1 0x40 MLOAD PUSH2 0x327 SWAP5 SWAP4 SWAP3 SWAP2 SWAP1 PUSH2 0x4364 JUMP JUMPDEST PUSH2 0x39C PUSH2 0x397 CALLDATASIZE PUSH1 0x4 PUSH2 0x3E10 JUMP JUMPDEST PUSH2 0xA3A JUMP JUMPDEST PUSH1 0x40 MLOAD PUSH2 0x327 SWAP2 SWAP1 PUSH2 0x4336 JUMP JUMPDEST PUSH2 0x3BC PUSH2 0x3B7 CALLDATASIZE PUSH1 0x4 PUSH2 0x3E60 JUMP JUMPDEST PUSH2 0xA56 JUMP JUMPDEST PUSH1 0x40 MLOAD PUSH2 0x327 SWAP7 SWAP6 SWAP5 SWAP4 SWAP3 SWAP2 SWAP1 PUSH2 0x4776 JUMP JUMPDEST PUSH2 0x3E1 PUSH2 0x3DC CALLDATASIZE PUSH1 0x4 PUSH2 0x3E10 JUMP JUMPDEST PUSH2 0xA99 JUMP JUMPDEST PUSH1 0x40 MLOAD PUSH2 0x327 SWAP2 SWAP1 PUSH2 0x4759 JUMP JUMPDEST PUSH2 0x39C PUSH2 0xAAA JUMP JUMPDEST PUSH2 0x409 PUSH2 0x404 CALLDATASIZE PUSH1 0x4 PUSH2 0x3BE6 JUMP JUMPDEST PUSH2 0xAB9 JUMP JUMPDEST PUSH1 0x40 MLOAD PUSH2 0x327 SWAP9 SWAP8 SWAP7 SWAP6 SWAP5 SWAP4 SWAP3 SWAP2 SWAP1 PUSH2 0x4876 JUMP JUMPDEST PUSH2 0x430 PUSH2 0x42B CALLDATASIZE PUSH1 0x4 PUSH2 0x3E2A JUMP JUMPDEST PUSH2 0xB0B JUMP JUMPDEST PUSH1 0x40 MLOAD PUSH2 0x327 SWAP2 SWAP1 PUSH2 0x44D6 JUMP JUMPDEST PUSH2 0x450 PUSH2 0x44B CALLDATASIZE PUSH1 0x4 PUSH2 0x3E10 JUMP JUMPDEST PUSH2 0xB99 JUMP JUMPDEST PUSH1 0x40 MLOAD PUSH2 0x327 SWAP2 SWAP1 PUSH2 0x440C JUMP JUMPDEST PUSH2 0x470 PUSH2 0x46B CALLDATASIZE PUSH1 0x4 PUSH2 0x3E10 JUMP JUMPDEST PUSH2 0xBAE JUMP JUMPDEST PUSH1 0x40 MLOAD PUSH2 0x327 SWAP3 SWAP2 SWAP1 PUSH2 0x47B9 JUMP JUMPDEST PUSH2 0x39C PUSH2 0x48C CALLDATASIZE PUSH1 0x4 PUSH2 0x3E10 JUMP JUMPDEST PUSH2 0xBEA JUMP JUMPDEST PUSH2 0x4A4 PUSH2 0x49F CALLDATASIZE PUSH1 0x4 PUSH2 0x3E10 JUMP JUMPDEST PUSH2 0xBF5 JUMP JUMPDEST PUSH1 0x40 MLOAD PUSH2 0x327 SWAP4 SWAP3 SWAP2 SWAP1 PUSH2 0x44F8 JUMP JUMPDEST PUSH2 0x4C6 PUSH2 0x4C1 CALLDATASIZE PUSH1 0x4 PUSH2 0x3E10 JUMP JUMPDEST PUSH2 0xC19 JUMP JUMPDEST PUSH1 0x40 MLOAD PUSH2 0x327 SWAP3 SWAP2 SWAP1 PUSH2 0x43E7 JUMP JUMPDEST PUSH2 0x4E7 PUSH2 0x4E2 CALLDATASIZE PUSH1 0x4 PUSH2 0x3E10 JUMP JUMPDEST PUSH2 0xD4C JUMP JUMPDEST PUSH1 0x40 MLOAD PUSH2 0x327 SWAP3 SWAP2 SWAP1 PUSH2 0x43C2 JUMP JUMPDEST PUSH2 0x430 PUSH2 0x503 CALLDATASIZE PUSH1 0x4 PUSH2 0x3E10 JUMP JUMPDEST PUSH2 0xD82 JUMP JUMPDEST PUSH2 0x51B PUSH2 0x516 CALLDATASIZE PUSH1 0x4 PUSH2 0x3E10 JUMP JUMPDEST PUSH2 0xD98 JUMP JUMPDEST PUSH1 0x40 MLOAD PUSH2 0x327 SWAP3 SWAP2 SWAP1 PUSH2 0x46B9 JUMP JUMPDEST PUSH2 0x53C PUSH2 0x537 CALLDATASIZE PUSH1 0x4 PUSH2 0x3BE6 JUMP JUMPDEST PUSH2 0xDC9 JUMP JUMPDEST PUSH1 0x40 MLOAD PUSH2 0x327 SWAP2 SWAP1 PUSH2 0x44CB JUMP JUMPDEST PUSH2 0x55C PUSH2 0x557 CALLDATASIZE PUSH1 0x4 PUSH2 0x3E89 JUMP JUMPDEST PUSH2 0xDE7 JUMP JUMPDEST PUSH1 0x40 MLOAD PUSH2 0x327 SWAP2 SWAP1 PUSH2 0x474A JUMP JUMPDEST PUSH2 0x4A4 PUSH2 0x577 CALLDATASIZE PUSH1 0x4 PUSH2 0x3E60 JUMP JUMPDEST PUSH2 0xE39 JUMP JUMPDEST PUSH2 0x53C PUSH2 0x58A CALLDATASIZE PUSH1 0x4 PUSH2 0x3BE6 JUMP JUMPDEST PUSH2 0xE92 JUMP JUMPDEST PUSH2 0x39C PUSH2 0xEB0 JUMP JUMPDEST PUSH2 0x5AA PUSH2 0x5A5 CALLDATASIZE PUSH1 0x4 PUSH2 0x3E10 JUMP JUMPDEST PUSH2 0xEBF JUMP JUMPDEST PUSH1 0x40 MLOAD PUSH2 0x327 SWAP5 SWAP4 SWAP3 SWAP2 SWAP1 PUSH2 0x47D5 JUMP JUMPDEST PUSH2 0x39C PUSH2 0xF27 JUMP JUMPDEST PUSH2 0x430 PUSH2 0x5D0 CALLDATASIZE PUSH1 0x4 PUSH2 0x3C02 JUMP JUMPDEST PUSH2 0xF3E JUMP JUMPDEST PUSH2 0x430 PUSH2 0x5E3 CALLDATASIZE PUSH1 0x4 PUSH2 0x3C2D JUMP JUMPDEST PUSH2 0xF57 JUMP JUMPDEST PUSH2 0x31A PUSH2 0x5F6 CALLDATASIZE PUSH1 0x4 PUSH2 0x3BE6 JUMP JUMPDEST PUSH2 0xF79 JUMP JUMPDEST PUSH2 0x39C PUSH2 0x609 CALLDATASIZE PUSH1 0x4 PUSH2 0x3E10 JUMP JUMPDEST PUSH2 0xFB3 JUMP JUMPDEST PUSH2 0x4E7 PUSH2 0x61C CALLDATASIZE PUSH1 0x4 PUSH2 0x3E10 JUMP JUMPDEST PUSH2 0xFF5 JUMP JUMPDEST PUSH2 0x39C PUSH2 0x102E JUMP JUMPDEST PUSH2 0x63C PUSH2 0x637 CALLDATASIZE PUSH1 0x4 PUSH2 0x3BE6 JUMP JUMPDEST PUSH2 0x103D JUMP JUMPDEST PUSH1 0x40 MLOAD PUSH2 0x327 SWAP3 SWAP2 SWAP1 PUSH2 0x446E JUMP JUMPDEST PUSH2 0x65D PUSH2 0x658 CALLDATASIZE PUSH1 0x4 PUSH2 0x3BE6 JUMP JUMPDEST PUSH2 0x1077 JUMP JUMPDEST PUSH1 0x40 MLOAD PUSH2 0x327 SWAP2 SWAP1 PUSH2 0x460E JUMP JUMPDEST PUSH2 0x67D PUSH2 0x678 CALLDATASIZE PUSH1 0x4 PUSH2 0x3BE6 JUMP JUMPDEST PUSH2 0x1088 JUMP JUMPDEST PUSH1 0x40 MLOAD PUSH2 0x327 SWAP2 SWAP1 PUSH2 0x445B JUMP JUMPDEST PUSH2 0x69D PUSH2 0x698 CALLDATASIZE PUSH1 0x4 PUSH2 0x3F4E JUMP JUMPDEST PUSH2 0x10D5 JUMP JUMPDEST PUSH1 0x40 MLOAD PUSH2 0x327 SWAP2 SWAP1 PUSH2 0x4768 JUMP JUMPDEST PUSH2 0x39C PUSH2 0x10F8 JUMP JUMPDEST PUSH2 0x6C5 PUSH2 0x6C0 CALLDATASIZE PUSH1 0x4 PUSH2 0x3BE6 JUMP JUMPDEST PUSH2 0x1107 JUMP JUMPDEST PUSH1 0x40 MLOAD PUSH2 0x327 SWAP3 SWAP2 SWAP1 PUSH2 0x44DF JUMP JUMPDEST PUSH2 0x39C PUSH2 0x119F JUMP JUMPDEST PUSH2 0x39C PUSH2 0x6E9 CALLDATASIZE PUSH1 0x4 PUSH2 0x3E10 JUMP JUMPDEST PUSH2 0x11B7 JUMP JUMPDEST PUSH2 0x430 PUSH2 0x6FC CALLDATASIZE PUSH1 0x4 PUSH2 0x3E10 JUMP JUMPDEST PUSH2 0x11CB JUMP JUMPDEST PUSH2 0x714 PUSH2 0x70F CALLDATASIZE PUSH1 0x4 PUSH2 0x3F82 JUMP JUMPDEST PUSH2 0x11E2 JUMP JUMPDEST PUSH1 0x40 MLOAD PUSH2 0x327 SWAP6 SWAP5 SWAP4 SWAP3 SWAP2 SWAP1 PUSH2 0x4842 JUMP JUMPDEST PUSH2 0x430 PUSH2 0x733 CALLDATASIZE PUSH1 0x4 PUSH2 0x3E2A JUMP JUMPDEST PUSH2 0x1207 JUMP JUMPDEST PUSH2 0x74B PUSH2 0x746 CALLDATASIZE PUSH1 0x4 PUSH2 0x3E10 JUMP JUMPDEST PUSH2 0x1265 JUMP JUMPDEST PUSH1 0x40 MLOAD PUSH2 0x327 SWAP2 SWAP1 PUSH2 0x46AA JUMP JUMPDEST PUSH2 0x430 PUSH2 0x766 CALLDATASIZE PUSH1 0x4 PUSH2 0x3EBB JUMP JUMPDEST PUSH2 0x1283 JUMP JUMPDEST PUSH2 0x77E PUSH2 0x779 CALLDATASIZE PUSH1 0x4 PUSH2 0x3E10 JUMP JUMPDEST PUSH2 0x129E JUMP JUMPDEST PUSH1 0x40 MLOAD PUSH2 0x327 SWAP3 SWAP2 SWAP1 PUSH2 0x46D6 JUMP JUMPDEST PUSH2 0x39C PUSH2 0x79A CALLDATASIZE PUSH1 0x4 PUSH2 0x3E10 JUMP JUMPDEST PUSH2 0x1370 JUMP JUMPDEST PUSH2 0x450 PUSH2 0x7AD CALLDATASIZE PUSH1 0x4 PUSH2 0x3F1B JUMP JUMPDEST PUSH2 0x138B JUMP JUMPDEST PUSH2 0x39C PUSH2 0x13A6 JUMP JUMPDEST PUSH2 0x55C PUSH2 0x7C8 CALLDATASIZE PUSH1 0x4 PUSH2 0x3E10 JUMP JUMPDEST PUSH2 0x13BE JUMP JUMPDEST PUSH2 0x7E0 PUSH2 0x7DB CALLDATASIZE PUSH1 0x4 PUSH2 0x3BE6 JUMP JUMPDEST PUSH2 0x13CF JUMP JUMPDEST PUSH1 0x40 MLOAD PUSH2 0x327 SWAP4 SWAP3 SWAP2 SWAP1 PUSH2 0x461C JUMP JUMPDEST PUSH2 0x4A4 PUSH2 0x7FD CALLDATASIZE PUSH1 0x4 PUSH2 0x3E2A JUMP JUMPDEST PUSH2 0x154F JUMP JUMPDEST PUSH1 0x0 SLOAD PUSH2 0xFFFF AND SWAP1 JUMP JUMPDEST PUSH1 0x60 PUSH1 0x0 PUSH2 0x818 PUSH2 0x1577 JUMP JUMPDEST SWAP1 POP DUP3 PUSH1 0x1 PUSH1 0x1 PUSH1 0x40 SHL SUB DUP2 GT DUP1 ISZERO PUSH2 0x830 JUMPI PUSH1 0x0 DUP1 REVERT JUMPDEST POP PUSH1 0x40 MLOAD SWAP1 DUP1 DUP3 MSTORE DUP1 PUSH1 0x20 MUL PUSH1 0x20 ADD DUP3 ADD PUSH1 0x40 MSTORE DUP1 ISZERO PUSH2 0x85A JUMPI DUP2 PUSH1 0x20 ADD PUSH1 0x20 DUP3 MUL DUP1 CALLDATASIZE DUP4 CALLDATACOPY ADD SWAP1 POP JUMPDEST POP SWAP2 POP PUSH1 0x0 JUMPDEST DUP4 DUP2 LT ISZERO PUSH2 0x8CC JUMPI DUP2 PUSH1 0x0 DUP7 DUP7 DUP5 DUP2 DUP2 LT PUSH2 0x877 JUMPI INVALID JUMPDEST SWAP1 POP PUSH1 0x20 MUL ADD PUSH1 0x20 DUP2 ADD SWAP1 PUSH2 0x88C SWAP2 SWAP1 PUSH2 0x3BE6 JUMP JUMPDEST PUSH1 0x1 PUSH1 0x1 PUSH1 0xA0 SHL SUB AND PUSH1 0x1 PUSH1 0x1 PUSH1 0xA0 SHL SUB AND DUP2 MSTORE PUSH1 0x20 ADD SWAP1 DUP2 MSTORE PUSH1 0x20 ADD PUSH1 0x0 KECCAK256 SLOAD DUP4 DUP3 DUP2 MLOAD DUP2 LT PUSH2 0x8B9 JUMPI INVALID JUMPDEST PUSH1 0x20 SWAP1 DUP2 MUL SWAP2 SWAP1 SWAP2 ADD ADD MSTORE PUSH1 0x1 ADD PUSH2 0x860 JUMP JUMPDEST POP POP SWAP3 SWAP2 POP POP JUMP JUMPDEST PUSH1 0x0 SLOAD PUSH1 0xD SLOAD PUSH1 0x1 PUSH1 0x1 PUSH1 0xA0 SHL SUB PUSH5 0x100000000 SWAP1 SWAP3 DIV DUP3 AND SWAP2 AND SWAP1 SWAP2 JUMP JUMPDEST PUSH1 0x0 DUP1 PUSH1 0x0 PUSH2 0x900 PUSH2 0x38D8 JUMP JUMPDEST PUSH1 0x0 PUSH2 0x90B DUP7 PUSH2 0x1584 JUMP JUMPDEST SWAP1 POP DUP1 PUSH1 0x1 PUSH1 0x1 PUSH1 0xA0 SHL SUB AND PUSH4 0xE79BF13B PUSH1 0x40 MLOAD DUP2 PUSH4 0xFFFFFFFF AND PUSH1 0xE0 SHL DUP2 MSTORE PUSH1 0x4 ADD PUSH1 0x0 PUSH1 0x40 MLOAD DUP1 DUP4 SUB DUP2 DUP7 DUP1 EXTCODESIZE ISZERO DUP1 ISZERO PUSH2 0x946 JUMPI PUSH1 0x0 DUP1 REVERT JUMPDEST POP GAS STATICCALL ISZERO DUP1 ISZERO PUSH2 0x95A JUMPI RETURNDATASIZE PUSH1 0x0 DUP1 RETURNDATACOPY RETURNDATASIZE PUSH1 0x0 REVERT JUMPDEST POP POP POP POP PUSH1 0x40 MLOAD RETURNDATASIZE PUSH1 0x0 DUP3 RETURNDATACOPY PUSH1 0x1F RETURNDATASIZE SWAP1 DUP2 ADD PUSH1 0x1F NOT AND DUP3 ADD PUSH1 0x40 MSTORE PUSH2 0x982 SWAP2 SWAP1 DUP2 ADD SWAP1 PUSH2 0x3CD8 JUMP JUMPDEST PUSH1 0x0 DUP2 MLOAD DUP2 LT PUSH2 0x98E JUMPI INVALID JUMPDEST PUSH1 0x20 MUL PUSH1 0x20 ADD ADD MLOAD SWAP5 POP PUSH2 0x9A0 PUSH2 0x15B4 JUMP JUMPDEST PUSH2 0xFFFF DUP8 AND PUSH1 0x0 SWAP1 DUP2 MSTORE PUSH1 0x20 SWAP2 DUP3 MSTORE PUSH1 0x40 DUP1 DUP3 KECCAK256 DUP2 MLOAD PUSH1 0x60 DUP2 ADD DUP4 MSTORE SWAP1 SLOAD PUSH1 0x1 PUSH1 0x1 PUSH1 0x80 SHL SUB DUP2 AND DUP3 MSTORE PUSH5 0xFFFFFFFFFF PUSH1 0x1 PUSH1 0x80 SHL DUP3 DIV DUP2 AND SWAP6 DUP4 ADD SWAP6 SWAP1 SWAP6 MSTORE PUSH1 0x1 PUSH1 0xA8 SHL SWAP1 DIV SWAP1 SWAP4 AND SWAP1 DUP4 ADD MSTORE SWAP1 SWAP3 POP PUSH2 0x9F9 PUSH2 0x15C1 JUMP JUMPDEST PUSH2 0xFFFF SWAP8 DUP9 AND PUSH1 0x0 SWAP1 DUP2 MSTORE PUSH1 0x20 SWAP2 DUP3 MSTORE PUSH1 0x40 DUP1 DUP3 KECCAK256 PUSH1 0x1 PUSH1 0x1 PUSH1 0xA0 SHL SUB DUP11 AND DUP4 MSTORE SWAP1 SWAP3 MSTORE KECCAK256 SLOAD SWAP6 SWAP8 PUSH1 0xFF DUP8 AND SWAP8 PUSH2 0x100 SWAP1 SWAP8 DIV SWAP1 SWAP7 AND SWAP6 SWAP3 SWAP5 POP SWAP2 SWAP3 POP POP POP JUMP JUMPDEST PUSH1 0x0 PUSH2 0xA45 DUP3 PUSH2 0x15CE JUMP JUMPDEST PUSH2 0xA4E DUP3 PUSH2 0x160B JUMP JUMPDEST SWAP1 POP JUMPDEST SWAP2 SWAP1 POP JUMP JUMPDEST PUSH2 0xA5E PUSH2 0x38F8 JUMP JUMPDEST PUSH2 0xA66 PUSH2 0x3919 JUMP JUMPDEST PUSH1 0x0 DUP1 PUSH1 0x0 DUP1 PUSH2 0xA76 DUP9 DUP9 PUSH2 0x1638 JUMP JUMPDEST SWAP1 SWAP7 POP SWAP5 POP PUSH2 0xA85 DUP7 DUP10 PUSH2 0x16F6 JUMP JUMPDEST SWAP9 SWAP12 SWAP8 SWAP11 POP SWAP2 SWAP9 POP SWAP7 SWAP1 SWAP6 SWAP1 SWAP5 POP SWAP3 POP POP POP JUMP JUMPDEST PUSH2 0xAA1 PUSH2 0x3919 JUMP JUMPDEST PUSH2 0xA4E DUP3 PUSH2 0x17CA JUMP JUMPDEST PUSH1 0x2 SLOAD PUSH1 0x1 PUSH1 0x1 PUSH1 0xA0 SHL SUB AND DUP2 JUMP JUMPDEST PUSH1 0x0 DUP1 PUSH1 0x0 DUP1 PUSH1 0x0 DUP1 PUSH1 0x0 DUP1 PUSH2 0xACE DUP10 PUSH2 0x1898 JUMP JUMPDEST SWAP4 SWAP12 POP SWAP2 SWAP9 POP SWAP7 POP SWAP1 SWAP5 POP PUSH2 0xAE4 SWAP1 POP DUP10 PUSH2 0x1904 JUMP JUMPDEST SWAP2 SWAP9 POP SWAP3 POP SWAP1 POP PUSH2 0xAF6 DUP10 DUP10 TIMESTAMP PUSH2 0x1965 JUMP JUMPDEST SWAP1 SWAP2 POP SWAP1 POP POP DUP1 SWAP4 POP POP SWAP2 SWAP4 SWAP6 SWAP8 POP SWAP2 SWAP4 SWAP6 SWAP8 JUMP JUMPDEST PUSH1 0x0 PUSH2 0xB18 DUP3 DUP5 TIMESTAMP PUSH2 0x1965 JUMP JUMPDEST POP SWAP2 SWAP3 POP PUSH2 0xB2C SWAP2 POP POP PUSH2 0xFFFF DUP5 AND PUSH2 0x1998 JUMP JUMPDEST PUSH1 0x1 PUSH1 0x1 PUSH1 0xA0 SHL SUB AND DUP3 PUSH1 0x1 PUSH1 0x1 PUSH1 0xA0 SHL SUB AND EQ ISZERO PUSH2 0xB93 JUMPI PUSH1 0x0 PUSH2 0xB51 DUP5 TIMESTAMP PUSH2 0x19BE JUMP JUMPDEST SWAP1 POP PUSH1 0x0 JUMPDEST DUP2 MLOAD DUP2 LT ISZERO PUSH2 0x8CC JUMPI PUSH2 0xB89 DUP3 DUP3 DUP2 MLOAD DUP2 LT PUSH2 0xB6E JUMPI INVALID JUMPDEST PUSH1 0x20 MUL PUSH1 0x20 ADD ADD MLOAD PUSH1 0x60 ADD MLOAD DUP5 PUSH2 0x1A76 SWAP1 SWAP2 SWAP1 PUSH4 0xFFFFFFFF AND JUMP JUMPDEST SWAP3 POP PUSH1 0x1 ADD PUSH2 0xB56 JUMP JUMPDEST SWAP3 SWAP2 POP POP JUMP JUMPDEST PUSH1 0x60 PUSH2 0xBA4 DUP3 PUSH2 0x15CE JUMP JUMPDEST PUSH2 0xA4E DUP3 TIMESTAMP PUSH2 0x19BE JUMP JUMPDEST PUSH2 0xBB6 PUSH2 0x3965 JUMP JUMPDEST PUSH2 0xBBE PUSH2 0x3965 JUMP JUMPDEST PUSH2 0xBC7 DUP4 PUSH2 0x15CE JUMP JUMPDEST PUSH2 0xBD4 DUP4 PUSH2 0xFFFF AND PUSH2 0x1A8C JUMP JUMPDEST SWAP2 POP PUSH2 0xBE3 DUP4 PUSH2 0xFFFF AND PUSH2 0x1A9F JUMP JUMPDEST SWAP1 POP SWAP2 POP SWAP2 JUMP JUMPDEST PUSH1 0x0 PUSH2 0xA4E DUP3 PUSH2 0x1584 JUMP JUMPDEST PUSH1 0x0 DUP1 PUSH1 0x0 PUSH2 0xC0C DUP5 PUSH2 0xC07 DUP7 PUSH2 0x17CA JUMP JUMPDEST PUSH2 0x1AB2 JUMP JUMPDEST SWAP3 POP SWAP3 POP SWAP3 POP SWAP2 SWAP4 SWAP1 SWAP3 POP JUMP JUMPDEST PUSH1 0x60 DUP1 PUSH2 0xC25 DUP4 PUSH2 0x15CE JUMP JUMPDEST PUSH1 0x0 PUSH2 0xC34 DUP5 PUSH2 0xFFFF AND PUSH2 0x1B4D JUMP JUMPDEST PUSH1 0xFF AND SWAP1 POP DUP1 PUSH2 0xC44 JUMPI POP PUSH2 0xD47 JUMP JUMPDEST DUP1 PUSH1 0x1 PUSH1 0x1 PUSH1 0x40 SHL SUB DUP2 GT DUP1 ISZERO PUSH2 0xC5A JUMPI PUSH1 0x0 DUP1 REVERT JUMPDEST POP PUSH1 0x40 MLOAD SWAP1 DUP1 DUP3 MSTORE DUP1 PUSH1 0x20 MUL PUSH1 0x20 ADD DUP3 ADD PUSH1 0x40 MSTORE DUP1 ISZERO PUSH2 0xC94 JUMPI DUP2 PUSH1 0x20 ADD JUMPDEST PUSH2 0xC81 PUSH2 0x3994 JUMP JUMPDEST DUP2 MSTORE PUSH1 0x20 ADD SWAP1 PUSH1 0x1 SWAP1 SUB SWAP1 DUP2 PUSH2 0xC79 JUMPI SWAP1 POP JUMPDEST POP SWAP3 POP DUP1 PUSH1 0x1 PUSH1 0x1 PUSH1 0x40 SHL SUB DUP2 GT DUP1 ISZERO PUSH2 0xCAD JUMPI PUSH1 0x0 DUP1 REVERT JUMPDEST POP PUSH1 0x40 MLOAD SWAP1 DUP1 DUP3 MSTORE DUP1 PUSH1 0x20 MUL PUSH1 0x20 ADD DUP3 ADD PUSH1 0x40 MSTORE DUP1 ISZERO PUSH2 0xCE7 JUMPI DUP2 PUSH1 0x20 ADD JUMPDEST PUSH2 0xCD4 PUSH2 0x3994 JUMP JUMPDEST DUP2 MSTORE PUSH1 0x20 ADD SWAP1 PUSH1 0x1 SWAP1 SUB SWAP1 DUP2 PUSH2 0xCCC JUMPI SWAP1 POP JUMPDEST POP SWAP2 POP PUSH1 0x1 JUMPDEST DUP2 DUP2 GT PUSH2 0xD44 JUMPI PUSH2 0xCFE DUP6 DUP3 PUSH2 0x1B63 JUMP JUMPDEST DUP5 PUSH1 0x1 DUP4 SUB DUP2 MLOAD DUP2 LT PUSH2 0xD0D JUMPI INVALID JUMPDEST PUSH1 0x20 MUL PUSH1 0x20 ADD ADD DUP2 SWAP1 MSTORE POP PUSH2 0xD22 DUP6 DUP3 PUSH2 0x1B7D JUMP JUMPDEST DUP4 PUSH1 0x1 DUP4 SUB DUP2 MLOAD DUP2 LT PUSH2 0xD31 JUMPI INVALID JUMPDEST PUSH1 0x20 SWAP1 DUP2 MUL SWAP2 SWAP1 SWAP2 ADD ADD MSTORE PUSH1 0x1 ADD PUSH2 0xCED JUMP JUMPDEST POP POP JUMPDEST SWAP2 POP SWAP2 JUMP JUMPDEST PUSH1 0x60 DUP1 PUSH2 0xD58 DUP4 PUSH2 0x15CE JUMP JUMPDEST PUSH1 0x0 PUSH2 0xD67 DUP5 PUSH2 0xFFFF AND PUSH2 0x1B4D JUMP JUMPDEST PUSH1 0xFF AND SWAP1 POP PUSH2 0xD7A DUP5 PUSH2 0xFFFF AND DUP3 PUSH2 0x1B92 JUMP JUMPDEST SWAP2 POP POP SWAP2 POP SWAP2 JUMP JUMPDEST PUSH2 0xFFFF AND PUSH1 0x0 SWAP1 DUP2 MSTORE PUSH1 0xC PUSH1 0x20 MSTORE PUSH1 0x40 SWAP1 KECCAK256 SLOAD SWAP1 JUMP JUMPDEST PUSH2 0xDA0 PUSH2 0x39D9 JUMP JUMPDEST PUSH2 0xDA8 PUSH2 0x3A2D JUMP JUMPDEST PUSH2 0xDB1 DUP4 PUSH2 0x15CE JUMP JUMPDEST PUSH2 0xDBE DUP4 PUSH2 0xFFFF AND PUSH2 0x1BB9 JUMP JUMPDEST SWAP2 POP PUSH2 0xBE3 DUP4 PUSH2 0x1C41 JUMP JUMPDEST PUSH1 0x1 PUSH1 0x1 PUSH1 0xA0 SHL SUB AND PUSH1 0x0 SWAP1 DUP2 MSTORE PUSH1 0x8 PUSH1 0x20 MSTORE PUSH1 0x40 SWAP1 KECCAK256 SLOAD PUSH1 0xFF AND SWAP1 JUMP JUMPDEST PUSH2 0xDEF PUSH2 0x3A57 JUMP JUMPDEST PUSH2 0xDF8 DUP5 PUSH2 0x15CE JUMP JUMPDEST PUSH1 0x0 PUSH2 0xE03 DUP6 PUSH2 0x1CCC JUMP JUMPDEST SWAP1 POP PUSH2 0xE0D PUSH2 0x3A57 JUMP JUMPDEST PUSH2 0xE2E DUP7 PUSH2 0xFFFF AND DUP7 TIMESTAMP PUSH1 0x1 PUSH2 0xE22 DUP8 PUSH2 0x1CED JUMP JUMPDEST DUP7 SWAP5 SWAP4 SWAP3 SWAP2 SWAP1 DUP11 PUSH2 0x1D01 JUMP JUMPDEST SWAP2 POP POP JUMPDEST SWAP4 SWAP3 POP POP POP JUMP JUMPDEST PUSH1 0x0 DUP1 PUSH1 0x0 DUP1 PUSH2 0xE47 PUSH2 0x1D38 JUMP JUMPDEST PUSH2 0xFFFF SWAP1 SWAP7 AND PUSH1 0x0 SWAP1 DUP2 MSTORE PUSH1 0x20 SWAP7 DUP8 MSTORE PUSH1 0x40 DUP1 DUP3 KECCAK256 SWAP7 DUP3 MSTORE SWAP6 SWAP1 SWAP7 MSTORE POP POP POP SWAP1 DUP3 KECCAK256 SLOAD PUSH1 0x1 PUSH1 0x1 PUSH1 0x50 SHL SUB DUP1 DUP3 AND DUP5 SUB SWAP5 PUSH1 0x1 PUSH1 0x50 SHL DUP4 DIV DUP3 AND SWAP1 SWAP5 SUB SWAP4 PUSH1 0x1 PUSH1 0xA0 SHL SWAP1 SWAP3 DIV AND SWAP2 POP JUMP JUMPDEST PUSH1 0x1 PUSH1 0x1 PUSH1 0xA0 SHL SUB AND PUSH1 0x0 SWAP1 DUP2 MSTORE PUSH1 0x6 PUSH1 0x20 MSTORE PUSH1 0x40 SWAP1 KECCAK256 SLOAD PUSH1 0xFF AND SWAP1 JUMP JUMPDEST PUSH1 0x1 SLOAD PUSH1 0x1 PUSH1 0x1 PUSH1 0xA0 SHL SUB AND DUP2 JUMP JUMPDEST PUSH2 0xEC7 PUSH2 0x3965 JUMP JUMPDEST PUSH2 0xECF PUSH2 0x3965 JUMP JUMPDEST PUSH2 0xED7 PUSH2 0x3A9F JUMP JUMPDEST PUSH2 0xEDF PUSH2 0x3A2D JUMP JUMPDEST PUSH2 0xEE8 DUP6 PUSH2 0x15CE JUMP JUMPDEST PUSH2 0xEF5 DUP6 PUSH2 0xFFFF AND PUSH2 0x1A8C JUMP JUMPDEST SWAP4 POP PUSH2 0xF04 DUP6 PUSH2 0xFFFF AND PUSH2 0x1A9F JUMP JUMPDEST SWAP3 POP PUSH2 0xF13 DUP6 PUSH2 0xFFFF AND PUSH2 0x1D45 JUMP JUMPDEST SWAP2 POP PUSH2 0xF1E DUP6 PUSH2 0x1C41 JUMP JUMPDEST SWAP1 POP SWAP2 SWAP4 POP SWAP2 SWAP4 JUMP JUMPDEST PUSH1 0x0 SLOAD PUSH5 0x100000000 SWAP1 DIV PUSH1 0x1 PUSH1 0x1 PUSH1 0xA0 SHL SUB AND DUP2 JUMP JUMPDEST PUSH1 0x0 PUSH2 0xF49 DUP3 PUSH2 0x15CE JUMP JUMPDEST PUSH2 0xE32 DUP4 DUP4 PUSH2 0xFFFF AND PUSH2 0x1EA8 JUMP JUMPDEST PUSH1 0x0 PUSH2 0xF62 DUP4 PUSH2 0x15CE JUMP JUMPDEST PUSH2 0xF71 DUP5 DUP5 PUSH2 0xFFFF AND DUP5 PUSH2 0x1EDD JUMP JUMPDEST SWAP5 SWAP4 POP POP POP POP JUMP JUMPDEST PUSH1 0x1 PUSH1 0x1 PUSH1 0xA0 SHL SUB DUP2 AND PUSH1 0x0 SWAP1 DUP2 MSTORE PUSH1 0x9 PUSH1 0x20 MSTORE PUSH1 0x40 SWAP1 KECCAK256 SLOAD PUSH2 0xFFFF AND DUP1 PUSH2 0xA51 JUMPI PUSH1 0x40 MLOAD PUSH3 0x461BCD PUSH1 0xE5 SHL DUP2 MSTORE PUSH1 0x4 ADD PUSH2 0x309 SWAP1 PUSH2 0x45E4 JUMP JUMPDEST PUSH1 0x0 PUSH2 0xFBE DUP3 PUSH2 0x15CE JUMP JUMPDEST PUSH1 0x0 PUSH2 0xFCD DUP4 PUSH2 0xFFFF AND PUSH2 0x1998 JUMP JUMPDEST SWAP1 POP PUSH1 0x1 PUSH1 0x1 PUSH1 0xA0 SHL SUB DUP2 AND PUSH2 0xA4E JUMPI PUSH1 0x40 MLOAD PUSH3 0x461BCD PUSH1 0xE5 SHL DUP2 MSTORE PUSH1 0x4 ADD PUSH2 0x309 SWAP1 PUSH2 0x450E JUMP JUMPDEST PUSH1 0x60 DUP1 PUSH2 0x1001 DUP4 PUSH2 0x15CE JUMP JUMPDEST PUSH1 0x0 PUSH2 0x1010 DUP5 PUSH2 0xFFFF AND PUSH2 0x1B4D JUMP JUMPDEST PUSH1 0xFF AND SWAP1 POP PUSH2 0x1023 DUP5 PUSH2 0xFFFF AND DUP3 PUSH2 0x1F22 JUMP JUMPDEST SWAP1 SWAP6 SWAP1 SWAP5 POP SWAP3 POP POP POP JUMP JUMPDEST PUSH1 0xB SLOAD PUSH1 0x1 PUSH1 0x1 PUSH1 0xA0 SHL SUB AND SWAP1 JUMP JUMPDEST PUSH1 0x60 DUP1 PUSH1 0x0 DUP1 PUSH1 0x0 PUSH2 0x104E DUP7 PUSH2 0x1898 JUMP JUMPDEST POP SWAP4 POP SWAP4 POP POP SWAP3 POP PUSH2 0x1060 DUP7 DUP3 PUSH2 0x1F57 JUMP JUMPDEST SWAP5 POP PUSH2 0x106D DUP7 DUP5 DUP5 PUSH2 0x1F6B JUMP JUMPDEST SWAP4 POP POP POP POP SWAP2 POP SWAP2 JUMP JUMPDEST PUSH2 0x107F PUSH2 0x3ACE JUMP JUMPDEST PUSH2 0xA4E DUP3 PUSH2 0x2084 JUMP JUMPDEST PUSH1 0x60 PUSH1 0x0 PUSH2 0x1095 DUP4 PUSH2 0x2084 JUMP JUMPDEST SWAP1 POP PUSH2 0x10A0 DUP2 PUSH2 0x213D JUMP JUMPDEST ISZERO PUSH2 0x10C7 JUMPI PUSH2 0x10BF DUP4 DUP3 PUSH1 0x60 ADD MLOAD DUP4 PUSH1 0x0 ADD MLOAD PUSH5 0xFFFFFFFFFF AND PUSH2 0x1F6B JUMP JUMPDEST SWAP2 POP POP PUSH2 0xA51 JUMP JUMPDEST PUSH2 0x10BF DUP4 DUP3 PUSH1 0x40 ADD MLOAD PUSH2 0x1F57 JUMP JUMPDEST PUSH2 0x10DD PUSH2 0x38F8 JUMP JUMPDEST PUSH2 0x10E6 DUP4 PUSH2 0x15CE JUMP JUMPDEST PUSH2 0xE32 DUP4 DUP4 PUSH5 0xFFFFFFFFFF AND TIMESTAMP PUSH2 0x214A JUMP JUMPDEST PUSH1 0xE SLOAD PUSH1 0x1 PUSH1 0x1 PUSH1 0xA0 SHL SUB AND DUP2 JUMP JUMPDEST PUSH1 0x0 PUSH1 0x60 PUSH20 0x0 PUSH4 0x6CB65EAF DUP5 PUSH1 0x40 MLOAD DUP3 PUSH4 0xFFFFFFFF AND PUSH1 0xE0 SHL DUP2 MSTORE PUSH1 0x4 ADD PUSH2 0x1142 SWAP2 SWAP1 PUSH2 0x4336 JUMP JUMPDEST PUSH1 0x0 PUSH1 0x40 MLOAD DUP1 DUP4 SUB DUP2 DUP7 DUP1 EXTCODESIZE ISZERO DUP1 ISZERO PUSH2 0x115A JUMPI PUSH1 0x0 DUP1 REVERT JUMPDEST POP GAS DELEGATECALL ISZERO DUP1 ISZERO PUSH2 0x116E JUMPI RETURNDATASIZE PUSH1 0x0 DUP1 RETURNDATACOPY RETURNDATASIZE PUSH1 0x0 REVERT JUMPDEST POP POP POP POP PUSH1 0x40 MLOAD RETURNDATASIZE PUSH1 0x0 DUP3 RETURNDATACOPY PUSH1 0x1F RETURNDATASIZE SWAP1 DUP2 ADD PUSH1 0x1F NOT AND DUP3 ADD PUSH1 0x40 MSTORE PUSH2 0x1196 SWAP2 SWAP1 DUP2 ADD SWAP1 PUSH2 0x3D75 JUMP JUMPDEST SWAP2 POP SWAP2 POP SWAP2 POP SWAP2 JUMP JUMPDEST PUSH20 0x0 SWAP1 JUMP JUMPDEST PUSH1 0x0 PUSH2 0x11C2 DUP3 PUSH2 0x15CE JUMP JUMPDEST PUSH2 0xA4E DUP3 PUSH2 0x217C JUMP JUMPDEST PUSH1 0x0 PUSH2 0x11D6 DUP3 PUSH2 0x15CE JUMP JUMPDEST PUSH2 0xA4E PUSH2 0xFEE DUP4 PUSH2 0x2186 JUMP JUMPDEST PUSH1 0x0 DUP1 PUSH1 0x0 DUP1 PUSH1 0x0 PUSH2 0x11F3 DUP7 PUSH2 0x21D7 JUMP JUMPDEST SWAP5 POP SWAP5 POP SWAP5 POP SWAP5 POP SWAP5 POP JUMPDEST SWAP2 SWAP4 SWAP6 SWAP1 SWAP3 SWAP5 POP JUMP JUMPDEST PUSH1 0x0 DUP1 PUSH2 0x1212 PUSH2 0x2219 JUMP JUMPDEST PUSH1 0x1 PUSH1 0x1 PUSH1 0xA0 SHL SUB DUP5 AND PUSH1 0x0 SWAP1 DUP2 MSTORE PUSH1 0x20 DUP3 DUP2 MSTORE PUSH1 0x40 DUP1 DUP4 KECCAK256 PUSH2 0xFFFF DUP10 AND DUP5 MSTORE SWAP1 SWAP2 MSTORE DUP2 KECCAK256 DUP1 SLOAD SWAP3 SWAP4 POP SWAP2 PUSH1 0x1 PUSH1 0xA8 SHL SWAP1 DIV PUSH1 0xA SWAP1 DUP2 SIGNEXTEND SWAP1 SIGNEXTEND SWAP1 DUP2 SLT PUSH2 0x1259 JUMPI PUSH1 0x0 PUSH2 0x125B JUMP JUMPDEST DUP1 JUMPDEST SWAP7 SWAP6 POP POP POP POP POP POP JUMP JUMPDEST PUSH2 0x126D PUSH2 0x39D9 JUMP JUMPDEST PUSH2 0x1276 DUP3 PUSH2 0x15CE JUMP JUMPDEST PUSH2 0xA4E DUP3 PUSH2 0xFFFF AND PUSH2 0x1BB9 JUMP JUMPDEST PUSH1 0x0 PUSH2 0x1292 DUP7 DUP7 DUP7 DUP7 DUP7 PUSH2 0x2226 JUMP JUMPDEST SWAP1 POP JUMPDEST SWAP6 SWAP5 POP POP POP POP POP JUMP JUMPDEST PUSH2 0x12A6 PUSH2 0x3ACE JUMP JUMPDEST PUSH2 0x12AE PUSH2 0x3B03 JUMP JUMPDEST PUSH2 0x12B7 DUP4 PUSH2 0x15CE JUMP JUMPDEST PUSH1 0x0 PUSH2 0x12C1 PUSH2 0x2294 JUMP JUMPDEST SWAP1 POP PUSH1 0x0 PUSH2 0x12CD PUSH2 0x22A1 JUMP JUMPDEST PUSH2 0xFFFF SWAP1 SWAP6 AND PUSH1 0x0 DUP2 DUP2 MSTORE PUSH1 0x20 SWAP4 DUP5 MSTORE PUSH1 0x40 DUP1 DUP3 KECCAK256 DUP2 MLOAD PUSH1 0xC0 DUP2 ADD DUP4 MSTORE SWAP1 SLOAD PUSH1 0x1 PUSH1 0x1 PUSH1 0xA0 SHL SUB DUP1 DUP3 AND DUP4 MSTORE PUSH1 0xFF PUSH1 0x1 PUSH1 0xA0 SHL DUP1 DUP5 DIV DUP3 AND DUP6 DUP12 ADD MSTORE PUSH1 0x1 PUSH1 0xA8 SHL DUP5 DIV DUP3 AND ISZERO ISZERO DUP6 DUP8 ADD MSTORE PUSH1 0x1 PUSH1 0xB0 SHL DUP5 DIV DUP3 AND PUSH1 0x60 DUP7 ADD MSTORE PUSH1 0x1 PUSH1 0xB8 SHL DUP5 DIV DUP3 AND PUSH1 0x80 DUP7 ADD MSTORE PUSH1 0x1 PUSH1 0xC0 SHL SWAP1 SWAP4 DIV DUP2 AND PUSH1 0xA0 DUP6 ADD MSTORE SWAP6 DUP6 MSTORE SWAP10 DUP8 MSTORE SWAP3 DUP3 SWAP1 KECCAK256 DUP3 MLOAD DUP1 DUP5 ADD SWAP1 SWAP4 MSTORE SLOAD SWAP9 DUP10 AND DUP3 MSTORE SWAP2 SWAP1 SWAP8 DIV SWAP1 SWAP2 AND SWAP3 DUP7 ADD SWAP3 SWAP1 SWAP3 MSTORE POP SWAP4 SWAP2 POP POP JUMP JUMPDEST PUSH1 0x0 DUP1 PUSH2 0x1380 DUP4 PUSH2 0xFFFF AND PUSH2 0x1998 JUMP JUMPDEST SWAP1 POP PUSH2 0xE32 DUP2 PUSH2 0x22AE JUMP JUMPDEST PUSH1 0x60 PUSH2 0x1396 DUP4 PUSH2 0x15CE JUMP JUMPDEST PUSH2 0xE32 DUP4 DUP4 PUSH4 0xFFFFFFFF AND PUSH2 0x19BE JUMP JUMPDEST PUSH20 0xCFEAEAD4947F0705A14EC42AC3D44129E1EF3ED5 SWAP1 JUMP JUMPDEST PUSH2 0x13C6 PUSH2 0x3994 JUMP JUMPDEST PUSH2 0xA4E DUP3 PUSH2 0x2327 JUMP JUMPDEST PUSH2 0x13D7 PUSH2 0x3ACE JUMP JUMPDEST PUSH1 0x60 DUP1 PUSH2 0x13E3 DUP5 PUSH2 0x2084 JUMP JUMPDEST PUSH1 0x40 DUP1 MLOAD PUSH1 0xA DUP1 DUP3 MSTORE PUSH2 0x160 DUP3 ADD SWAP1 SWAP3 MSTORE SWAP2 SWAP5 POP DUP2 PUSH1 0x20 ADD JUMPDEST PUSH2 0x1404 PUSH2 0x3B1A JUMP JUMPDEST DUP2 MSTORE PUSH1 0x20 ADD SWAP1 PUSH1 0x1 SWAP1 SUB SWAP1 DUP2 PUSH2 0x13FC JUMPI SWAP1 POP POP SWAP2 POP PUSH1 0x0 PUSH2 0x1424 DUP5 PUSH2 0x213D JUMP JUMPDEST ISZERO PUSH2 0x1478 JUMPI PUSH1 0x0 DUP4 PUSH1 0x0 DUP2 MLOAD DUP2 LT PUSH2 0x1438 JUMPI INVALID JUMPDEST PUSH1 0x20 SWAP1 DUP2 MUL SWAP2 SWAP1 SWAP2 ADD ADD MLOAD PUSH1 0x60 DUP7 ADD DUP1 MLOAD PUSH2 0xFFFF AND DUP3 MSTORE MLOAD SWAP1 SWAP2 POP PUSH2 0x145F SWAP1 DUP8 SWAP1 TIMESTAMP PUSH2 0x1965 JUMP JUMPDEST PUSH1 0x80 DUP6 ADD MSTORE PUSH1 0x60 DUP5 ADD MSTORE PUSH1 0x40 DUP4 ADD MSTORE PUSH1 0x20 SWAP1 SWAP2 ADD MSTORE PUSH1 0x1 ADD JUMPDEST PUSH1 0x80 DUP5 ADD MLOAD JUMPDEST PUSH1 0x1 PUSH1 0x1 PUSH1 0x70 SHL SUB NOT DUP2 AND ISZERO PUSH2 0x1506 JUMPI PUSH1 0x0 DUP5 DUP4 DUP2 MLOAD DUP2 LT PUSH2 0x149C JUMPI INVALID JUMPDEST PUSH1 0x20 SWAP1 DUP2 MUL SWAP2 SWAP1 SWAP2 ADD ADD MLOAD PUSH1 0xF0 DUP4 SWAP1 SHR PUSH2 0x3FFF AND DUP1 DUP3 MSTORE SWAP1 SWAP2 POP PUSH2 0x14C0 JUMPI POP PUSH2 0x1506 JUMP JUMPDEST PUSH2 0x14CF DUP8 DUP3 PUSH1 0x0 ADD MLOAD TIMESTAMP PUSH2 0x1965 JUMP JUMPDEST PUSH1 0x80 DUP6 ADD MSTORE PUSH1 0x60 DUP5 ADD MSTORE PUSH1 0x40 DUP4 ADD MSTORE PUSH1 0x20 SWAP1 SWAP2 ADD MSTORE PUSH1 0x1 SWAP2 SWAP1 SWAP2 ADD SWAP1 PUSH1 0x10 SHL PUSH16 0xFFFFFFFFFFFFFFFFFFFFFFFFFFFFFFFF NOT AND PUSH2 0x147E JUMP JUMPDEST PUSH2 0x150F DUP6 PUSH2 0x213D JUMP JUMPDEST ISZERO PUSH2 0x1535 JUMPI PUSH2 0x152E DUP7 DUP7 PUSH1 0x60 ADD MLOAD DUP8 PUSH1 0x0 ADD MLOAD PUSH5 0xFFFFFFFFFF AND PUSH2 0x1F6B JUMP JUMPDEST SWAP3 POP PUSH2 0x1546 JUMP JUMPDEST PUSH2 0x1543 DUP7 DUP7 PUSH1 0x40 ADD MLOAD PUSH2 0x1F57 JUMP JUMPDEST SWAP3 POP JUMPDEST POP POP SWAP2 SWAP4 SWAP1 SWAP3 POP JUMP JUMPDEST PUSH1 0x0 DUP1 PUSH1 0x0 PUSH2 0x155D DUP6 PUSH2 0x15CE JUMP JUMPDEST PUSH2 0x1568 DUP5 DUP7 TIMESTAMP PUSH2 0x1965 JUMP JUMPDEST POP SWAP2 SWAP8 SWAP1 SWAP7 POP SWAP1 SWAP5 POP SWAP3 POP POP POP JUMP JUMPDEST PUSH1 0x0 DUP1 PUSH2 0xB93 PUSH1 0x26 PUSH2 0x235A JUMP JUMPDEST PUSH1 0x0 DUP1 PUSH2 0x158F PUSH2 0x2373 JUMP JUMPDEST PUSH2 0xFFFF SWAP4 SWAP1 SWAP4 AND PUSH1 0x0 SWAP1 DUP2 MSTORE PUSH1 0x20 SWAP4 SWAP1 SWAP4 MSTORE POP POP PUSH1 0x40 SWAP1 KECCAK256 SLOAD PUSH1 0x1 PUSH1 0x1 PUSH1 0xA0 SHL SUB AND SWAP1 JUMP JUMPDEST PUSH1 0x0 DUP1 PUSH2 0xB93 PUSH1 0x25 PUSH2 0x235A JUMP JUMPDEST PUSH1 0x0 DUP1 PUSH2 0xB93 PUSH1 0x24 PUSH2 0x235A JUMP JUMPDEST DUP1 PUSH2 0xFFFF AND PUSH1 0x0 LT DUP1 ISZERO PUSH2 0x15EC JUMPI POP PUSH1 0x0 SLOAD PUSH2 0xFFFF SWAP1 DUP2 AND SWAP1 DUP3 AND GT ISZERO JUMPDEST PUSH2 0x1608 JUMPI PUSH1 0x40 MLOAD PUSH3 0x461BCD PUSH1 0xE5 SHL DUP2 MSTORE PUSH1 0x4 ADD PUSH2 0x309 SWAP1 PUSH2 0x45B7 JUMP JUMPDEST POP JUMP JUMPDEST PUSH1 0x0 PUSH2 0x1615 PUSH2 0x2380 JUMP JUMPDEST PUSH2 0xFFFF SWAP1 SWAP3 AND PUSH1 0x0 SWAP1 DUP2 MSTORE PUSH1 0x20 SWAP3 SWAP1 SWAP3 MSTORE POP PUSH1 0x40 SWAP1 KECCAK256 SLOAD PUSH1 0x1 PUSH1 0x1 PUSH1 0xA0 SHL SUB AND SWAP1 JUMP JUMPDEST PUSH2 0x1640 PUSH2 0x38F8 JUMP JUMPDEST PUSH2 0x1648 PUSH2 0x3919 JUMP JUMPDEST PUSH2 0x1651 DUP5 PUSH2 0x17CA JUMP JUMPDEST SWAP1 POP DUP3 DUP2 PUSH1 0x0 ADD MLOAD LT ISZERO PUSH2 0x1682 JUMPI PUSH1 0x0 PUSH2 0x166A DUP6 PUSH2 0x238D JUMP JUMPDEST SWAP1 POP PUSH2 0x1678 DUP6 DUP4 DUP4 DUP8 PUSH2 0x2408 JUMP JUMPDEST POP SWAP2 POP PUSH2 0x168F SWAP1 POP JUMP JUMPDEST DUP1 MLOAD DUP4 EQ PUSH2 0x168F JUMPI PUSH1 0x0 DUP1 REVERT JUMPDEST PUSH1 0x40 MLOAD DUP1 PUSH1 0x60 ADD PUSH1 0x40 MSTORE DUP1 PUSH2 0x16BD PUSH2 0x16B8 DUP5 PUSH1 0xA0 ADD MLOAD DUP6 PUSH1 0xC0 ADD MLOAD PUSH2 0x24AC SWAP1 SWAP2 SWAP1 PUSH4 0xFFFFFFFF AND JUMP JUMPDEST PUSH2 0x24D3 JUMP JUMPDEST DUP2 MSTORE PUSH1 0x20 ADD PUSH2 0x16E0 PUSH2 0x16B8 DUP5 PUSH1 0xA0 ADD MLOAD DUP6 PUSH1 0xE0 ADD MLOAD PUSH2 0x24AC SWAP1 SWAP2 SWAP1 PUSH4 0xFFFFFFFF AND JUMP JUMPDEST DUP2 MSTORE PUSH1 0x20 ADD DUP3 PUSH1 0x60 ADD MLOAD DUP2 MSTORE POP SWAP2 POP SWAP3 POP SWAP3 SWAP1 POP JUMP JUMPDEST PUSH1 0x0 DUP1 PUSH1 0x0 DUP1 PUSH1 0x0 PUSH2 0x1706 PUSH2 0x24ED JUMP JUMPDEST PUSH2 0xFFFF DUP8 AND PUSH1 0x0 SWAP1 DUP2 MSTORE PUSH1 0x20 SWAP2 SWAP1 SWAP2 MSTORE PUSH1 0x40 SWAP1 KECCAK256 PUSH1 0x1 DUP2 ADD SLOAD SWAP1 SWAP2 POP PUSH2 0x1738 SWAP1 PUSH1 0x1 PUSH1 0x58 SHL SWAP1 DIV PUSH4 0xFFFFFFFF AND PUSH2 0x24FA JUMP JUMPDEST PUSH1 0x1 DUP3 ADD SLOAD SWAP1 SWAP6 POP PUSH2 0x1762 SWAP1 PUSH1 0x64 SWAP1 PUSH2 0x175C SWAP1 DUP9 SWAP1 PUSH1 0x1 PUSH1 0x78 SHL SWAP1 DIV PUSH1 0xFF AND PUSH2 0x24AC JUMP JUMPDEST SWAP1 PUSH2 0x2508 JUMP JUMPDEST DUP2 SLOAD SWAP1 SWAP4 POP PUSH6 0x10000000000 SWAP1 DIV PUSH11 0xFFFFFFFFFFFFFFFFFFFFFF AND PUSH2 0x178F PUSH2 0x178A DUP10 DUP4 PUSH2 0x2527 JUMP JUMPDEST PUSH2 0x2570 JUMP JUMPDEST PUSH1 0x1 DUP4 ADD SLOAD SWAP1 SWAP6 POP PUSH11 0xFFFFFFFFFFFFFFFFFFFFFF AND PUSH1 0x0 SUB PUSH2 0x17BC PUSH2 0x178A PUSH2 0x17B7 DUP12 DUP5 PUSH2 0x257F JUMP JUMPDEST PUSH2 0x25D0 JUMP JUMPDEST SWAP4 POP POP POP POP SWAP3 SWAP6 SWAP2 SWAP5 POP SWAP3 POP JUMP JUMPDEST PUSH2 0x17D2 PUSH2 0x3919 JUMP JUMPDEST PUSH1 0x0 PUSH2 0x17DC PUSH2 0x24ED JUMP JUMPDEST PUSH2 0xFFFF SWAP4 DUP5 AND PUSH1 0x0 SWAP1 DUP2 MSTORE PUSH1 0x20 SWAP2 DUP3 MSTORE PUSH1 0x40 SWAP1 DUP2 SWAP1 KECCAK256 DUP1 SLOAD PUSH5 0xFFFFFFFFFF DUP2 AND DUP7 MSTORE PUSH6 0x10000000000 DUP2 DIV PUSH11 0xFFFFFFFFFFFFFFFFFFFFFF SWAP1 DUP2 AND SWAP5 DUP8 ADD SWAP5 SWAP1 SWAP5 MSTORE PUSH1 0x1 DUP3 ADD SLOAD DUP5 AND SWAP3 DUP7 ADD SWAP3 SWAP1 SWAP3 MSTORE PUSH1 0x1 PUSH1 0xD8 SHL DUP3 DIV PUSH4 0xFFFFFFFF AND PUSH1 0x60 DUP7 ADD MSTORE PUSH1 0x1 PUSH1 0x80 SHL SWAP1 SWAP2 DIV SWAP1 SWAP2 AND PUSH1 0x80 DUP5 ADD MSTORE PUSH1 0x2 ADD SLOAD PUSH1 0x1 PUSH1 0x1 PUSH1 0x50 SHL SUB DUP1 DUP3 AND PUSH1 0xA0 DUP6 ADD MSTORE PUSH1 0x1 PUSH1 0x50 SHL DUP3 DIV DUP2 AND PUSH1 0xC0 DUP6 ADD MSTORE PUSH1 0x1 PUSH1 0xA0 SHL DUP3 DIV AND PUSH1 0xE0 DUP5 ADD MSTORE PUSH1 0x1 PUSH1 0xF0 SHL SWAP1 DIV PUSH1 0xFF AND PUSH2 0x12C MUL SWAP1 SWAP3 AND PUSH2 0x100 DUP3 ADD MSTORE SWAP2 SWAP1 POP JUMP JUMPDEST PUSH1 0x0 DUP1 PUSH1 0x0 DUP1 PUSH1 0x0 DUP1 PUSH2 0x18A9 PUSH2 0x25DE JUMP JUMPDEST PUSH1 0x1 PUSH1 0x1 PUSH1 0xA0 SHL SUB SWAP1 SWAP8 AND PUSH1 0x0 SWAP1 DUP2 MSTORE PUSH1 0x20 SWAP8 SWAP1 SWAP8 MSTORE POP POP PUSH1 0x40 SWAP1 SWAP5 KECCAK256 SLOAD PUSH2 0xFFFF DUP2 AND SWAP6 PUSH4 0xFFFFFFFF PUSH3 0x10000 DUP4 DIV DUP2 AND SWAP7 POP PUSH7 0x1000000000000 DUP4 DIV AND SWAP5 POP PUSH1 0xFF PUSH1 0x1 PUSH1 0x50 SHL DUP4 DIV AND SWAP4 POP PUSH1 0x1 PUSH1 0x58 SHL SWAP1 SWAP2 DIV PUSH1 0xD0 SHL SWAP2 POP JUMP JUMPDEST PUSH1 0x0 DUP1 PUSH1 0x0 DUP1 PUSH2 0x1912 PUSH2 0x25EB JUMP JUMPDEST PUSH1 0x1 PUSH1 0x1 PUSH1 0xA0 SHL SUB SWAP6 SWAP1 SWAP6 AND PUSH1 0x0 SWAP1 DUP2 MSTORE PUSH1 0x20 SWAP6 SWAP1 SWAP6 MSTORE POP POP PUSH1 0x40 SWAP1 SWAP3 KECCAK256 SLOAD PUSH12 0xFFFFFFFFFFFFFFFFFFFFFFFF DUP2 AND SWAP4 PUSH1 0x1 PUSH1 0x60 SHL DUP3 DIV PUSH1 0x1 PUSH1 0x1 PUSH1 0x80 SHL SUB AND SWAP4 POP PUSH1 0x1 PUSH1 0xE0 SHL SWAP1 SWAP2 DIV PUSH4 0xFFFFFFFF AND SWAP2 POP JUMP JUMPDEST PUSH1 0x0 DUP1 PUSH1 0x0 DUP1 PUSH1 0x0 PUSH2 0x1977 DUP8 DUP8 PUSH2 0x1638 JUMP JUMPDEST POP SWAP1 POP PUSH2 0x1985 DUP9 DUP9 DUP4 PUSH2 0x25F8 JUMP JUMPDEST SWAP5 POP SWAP5 POP SWAP5 POP SWAP5 POP POP JUMPDEST SWAP4 POP SWAP4 POP SWAP4 POP SWAP4 JUMP JUMPDEST PUSH1 0x0 DUP1 PUSH2 0x19A3 PUSH2 0x26B2 JUMP JUMPDEST PUSH1 0x0 SWAP4 DUP5 MSTORE PUSH1 0x20 MSTORE POP POP PUSH1 0x40 SWAP1 KECCAK256 SLOAD PUSH1 0x1 PUSH1 0x1 PUSH1 0xA0 SHL SUB AND SWAP1 JUMP JUMPDEST PUSH1 0x60 PUSH1 0x0 PUSH2 0x19CB DUP5 PUSH2 0x1CCC JUMP JUMPDEST SWAP1 POP PUSH1 0x0 DUP2 PUSH1 0x20 ADD MLOAD PUSH1 0x1 PUSH1 0x1 PUSH1 0x40 SHL SUB DUP2 GT DUP1 ISZERO PUSH2 0x19E9 JUMPI PUSH1 0x0 DUP1 REVERT JUMPDEST POP PUSH1 0x40 MLOAD SWAP1 DUP1 DUP3 MSTORE DUP1 PUSH1 0x20 MUL PUSH1 0x20 ADD DUP3 ADD PUSH1 0x40 MSTORE DUP1 ISZERO PUSH2 0x1A23 JUMPI DUP2 PUSH1 0x20 ADD JUMPDEST PUSH2 0x1A10 PUSH2 0x3A57 JUMP JUMPDEST DUP2 MSTORE PUSH1 0x20 ADD SWAP1 PUSH1 0x1 SWAP1 SUB SWAP1 DUP2 PUSH2 0x1A08 JUMPI SWAP1 POP JUMPDEST POP SWAP1 POP PUSH1 0x0 JUMPDEST DUP3 PUSH1 0x20 ADD MLOAD DUP2 LT ISZERO PUSH2 0x1A6D JUMPI PUSH2 0x1A65 DUP3 DUP3 DUP2 MLOAD DUP2 LT PUSH2 0x1A44 JUMPI INVALID JUMPDEST PUSH1 0x20 MUL PUSH1 0x20 ADD ADD MLOAD DUP3 PUSH1 0x1 ADD PUSH1 0x1 DUP9 DUP8 PUSH2 0x26BF SWAP1 SWAP5 SWAP4 SWAP3 SWAP2 SWAP1 PUSH4 0xFFFFFFFF AND JUMP JUMPDEST PUSH1 0x1 ADD PUSH2 0x1A29 JUMP JUMPDEST POP SWAP5 SWAP4 POP POP POP POP JUMP JUMPDEST DUP2 DUP2 ADD DUP3 DUP2 SLT ISZERO PUSH1 0x0 DUP4 SLT ISZERO EQ PUSH2 0xB93 JUMPI PUSH1 0x0 DUP1 REVERT JUMPDEST PUSH2 0x1A94 PUSH2 0x3965 JUMP JUMPDEST PUSH2 0xA4E DUP3 PUSH1 0x0 PUSH2 0x273A JUMP JUMPDEST PUSH2 0x1AA7 PUSH2 0x3965 JUMP JUMPDEST PUSH2 0xA4E DUP3 PUSH1 0x1 PUSH2 0x273A JUMP JUMPDEST PUSH1 0x0 DUP1 PUSH1 0x0 DUP1 PUSH1 0x0 DUP6 PUSH1 0x20 ADD MLOAD GT ISZERO PUSH2 0x1AFF JUMPI PUSH2 0x1AFC PUSH2 0x1AE3 DUP7 PUSH1 0xC0 ADD MLOAD DUP8 PUSH1 0x20 ADD MLOAD PUSH2 0x24AC SWAP1 SWAP2 SWAP1 PUSH4 0xFFFFFFFF AND JUMP JUMPDEST PUSH1 0xE0 DUP8 ADD MLOAD PUSH1 0x40 DUP9 ADD MLOAD PUSH2 0x1AF6 SWAP2 PUSH2 0x24AC JUMP JUMPDEST SWAP1 PUSH2 0x27D4 JUMP JUMPDEST SWAP1 POP JUMPDEST PUSH1 0x0 PUSH2 0x1B0A DUP8 PUSH2 0x2327 JUMP JUMPDEST SWAP1 POP PUSH2 0x1B16 DUP2 DUP4 PUSH2 0x27ED JUMP JUMPDEST SWAP5 POP DUP2 ISZERO PUSH2 0x1B2D JUMPI PUSH2 0x1B2A DUP2 DUP7 PUSH1 0x1 PUSH2 0x28A7 JUMP JUMPDEST SWAP4 POP JUMPDEST PUSH1 0x20 DUP7 ADD MLOAD ISZERO PUSH2 0x1B44 JUMPI PUSH2 0x1B41 DUP6 DUP4 PUSH2 0x291F JUMP JUMPDEST SWAP3 POP JUMPDEST POP POP SWAP3 POP SWAP3 POP SWAP3 JUMP JUMPDEST PUSH1 0x0 DUP1 PUSH2 0x1B59 DUP4 PUSH2 0x2938 JUMP JUMPDEST PUSH1 0xFF AND SWAP4 SWAP3 POP POP POP JUMP JUMPDEST PUSH2 0x1B6B PUSH2 0x3994 JUMP JUMPDEST PUSH2 0xE32 DUP4 DUP4 PUSH2 0x1B78 PUSH2 0x2955 JUMP JUMPDEST PUSH2 0x2962 JUMP JUMPDEST PUSH2 0x1B85 PUSH2 0x3994 JUMP JUMPDEST PUSH2 0xE32 DUP4 DUP4 PUSH2 0x1B78 PUSH2 0x29B9 JUMP JUMPDEST PUSH1 0x60 PUSH1 0x0 PUSH2 0x1B9E PUSH2 0x29C6 JUMP JUMPDEST PUSH1 0x0 DUP6 DUP2 MSTORE PUSH1 0x20 DUP3 SWAP1 MSTORE PUSH1 0x40 SWAP1 KECCAK256 SWAP1 SWAP2 POP PUSH2 0x125B DUP2 DUP6 PUSH2 0x29D3 JUMP JUMPDEST PUSH2 0x1BC1 PUSH2 0x39D9 JUMP JUMPDEST PUSH1 0x0 PUSH2 0x1BCC DUP4 PUSH2 0x2938 JUMP JUMPDEST SWAP1 POP PUSH1 0x0 DUP2 PUSH1 0x1F PUSH1 0x40 DUP1 MLOAD PUSH2 0x140 DUP2 ADD SWAP1 SWAP2 MSTORE SWAP2 SWAP1 BYTE DUP1 DUP3 MSTORE SWAP2 POP PUSH1 0x20 DUP2 ADD DUP4 PUSH1 0x1E BYTE DUP2 MSTORE PUSH1 0x20 ADD DUP4 PUSH1 0x1D BYTE DUP2 MSTORE PUSH1 0x20 ADD DUP4 PUSH1 0x1C BYTE DUP2 MSTORE PUSH1 0x20 ADD DUP4 PUSH1 0x1B BYTE DUP2 MSTORE PUSH1 0x20 ADD DUP4 PUSH1 0x1A BYTE DUP2 MSTORE PUSH1 0x20 ADD DUP4 PUSH1 0x19 BYTE DUP2 MSTORE PUSH1 0x20 ADD DUP4 PUSH1 0x18 BYTE DUP2 MSTORE PUSH1 0x20 ADD DUP4 PUSH1 0x17 BYTE DUP2 MSTORE PUSH1 0x20 ADD DUP4 PUSH1 0x16 BYTE SWAP1 MSTORE SWAP5 SWAP4 POP POP POP POP JUMP JUMPDEST PUSH2 0x1C49 PUSH2 0x3A2D JUMP JUMPDEST PUSH1 0x0 PUSH2 0x1C58 DUP4 PUSH2 0xFFFF AND PUSH2 0x1A9F JUMP JUMPDEST SWAP1 POP PUSH1 0x0 PUSH2 0x1C78 PUSH5 0x2540BE400 DUP4 PUSH1 0x40 ADD MLOAD PUSH2 0x2B15 SWAP1 SWAP2 SWAP1 PUSH4 0xFFFFFFFF AND JUMP JUMPDEST SWAP1 POP PUSH1 0x0 PUSH2 0x1C86 DUP6 TIMESTAMP PUSH2 0x1638 JUMP JUMPDEST POP PUSH1 0x40 DUP1 DUP6 ADD MLOAD SWAP1 DUP7 ADD MSTORE DUP1 MLOAD SWAP1 SWAP2 POP PUSH2 0x1CBB SWAP1 PUSH15 0xC097CE7BC90715B34B9F1000000000 SWAP1 PUSH2 0x1CB5 SWAP1 DUP6 PUSH2 0x2B15 JUMP JUMPDEST SWAP1 PUSH2 0x2B63 JUMP JUMPDEST PUSH1 0x20 DUP6 ADD MSTORE POP POP PUSH1 0x0 DUP3 MSTORE POP SWAP2 SWAP1 POP JUMP JUMPDEST PUSH2 0x1CD4 PUSH2 0x3B4D JUMP JUMPDEST PUSH1 0x0 PUSH2 0x1CE0 DUP4 TIMESTAMP PUSH2 0x1638 JUMP JUMPDEST POP SWAP1 POP PUSH2 0xE32 DUP4 DUP3 PUSH2 0x2B94 JUMP JUMPDEST PUSH1 0x60 ADD MLOAD PUSH2 0x12C PUSH1 0x8 SWAP2 SWAP1 SWAP2 SHR PUSH1 0xFF AND MUL SWAP1 JUMP JUMPDEST PUSH2 0x1D0E DUP8 DUP8 DUP8 DUP7 DUP6 PUSH2 0x2BD7 JUMP JUMPDEST PUSH2 0x1D27 DUP8 PUSH1 0xE0 ADD MLOAD DUP9 PUSH1 0xA0 ADD MLOAD DUP10 PUSH1 0xC0 ADD MLOAD DUP6 DUP9 PUSH2 0x2C92 JUMP JUMPDEST PUSH1 0xC0 SWAP1 SWAP8 ADD SWAP7 SWAP1 SWAP7 MSTORE POP POP POP POP POP POP JUMP JUMPDEST PUSH1 0x0 DUP1 PUSH2 0xB93 PUSH1 0x20 PUSH2 0x235A JUMP JUMPDEST PUSH2 0x1D4D PUSH2 0x3A9F JUMP JUMPDEST PUSH1 0x0 PUSH2 0x1D57 PUSH2 0x2294 JUMP JUMPDEST PUSH1 0x0 DUP5 DUP2 MSTORE PUSH1 0x20 DUP3 SWAP1 MSTORE PUSH1 0x40 DUP2 KECCAK256 SWAP2 SWAP3 POP DUP1 PUSH1 0x1 DUP7 EQ ISZERO PUSH2 0x1D84 JUMPI POP PUSH8 0xDE0B6B3A7640000 SWAP1 POP DUP1 PUSH2 0x1E47 JUMP JUMPDEST DUP3 SLOAD PUSH1 0x40 DUP1 MLOAD PUSH4 0x3FABE5A3 PUSH1 0xE2 SHL DUP2 MSTORE SWAP1 MLOAD PUSH1 0x1 PUSH1 0x1 PUSH1 0xA0 SHL SUB SWAP1 SWAP3 AND SWAP2 PUSH4 0xFEAF968C SWAP2 PUSH1 0x4 DUP1 DUP3 ADD SWAP3 PUSH1 0xA0 SWAP3 SWAP1 SWAP2 SWAP1 DUP3 SWAP1 SUB ADD DUP2 DUP7 DUP1 EXTCODESIZE ISZERO DUP1 ISZERO PUSH2 0x1DC8 JUMPI PUSH1 0x0 DUP1 REVERT JUMPDEST POP GAS STATICCALL ISZERO DUP1 ISZERO PUSH2 0x1DDC JUMPI RETURNDATASIZE PUSH1 0x0 DUP1 RETURNDATACOPY RETURNDATASIZE PUSH1 0x0 REVERT JUMPDEST POP POP POP POP PUSH1 0x40 MLOAD RETURNDATASIZE PUSH1 0x1F NOT PUSH1 0x1F DUP3 ADD AND DUP3 ADD DUP1 PUSH1 0x40 MSTORE POP DUP2 ADD SWAP1 PUSH2 0x1E00 SWAP2 SWAP1 PUSH2 0x3FBD JUMP JUMPDEST POP SWAP2 SWAP4 POP POP PUSH1 0x0 DUP4 SGT SWAP2 POP PUSH2 0x1E16 SWAP1 POP JUMPI PUSH1 0x0 DUP1 REVERT JUMPDEST DUP3 SLOAD PUSH1 0xFF PUSH1 0x1 PUSH1 0xA0 SHL DUP3 DIV DUP2 AND PUSH1 0xA EXP SWAP4 POP PUSH1 0x1 PUSH1 0xA8 SHL SWAP1 SWAP2 DIV AND ISZERO PUSH2 0x1E47 JUMPI PUSH2 0x1E44 DUP2 PUSH2 0x1CB5 DUP5 DUP1 PUSH2 0x2B15 JUMP JUMPDEST SWAP1 POP JUMPDEST DUP3 SLOAD PUSH1 0x1 PUSH1 0xB0 SHL SWAP1 DIV PUSH1 0xFF AND PUSH1 0x96 DUP2 SGT ISZERO PUSH2 0x1E67 JUMPI PUSH1 0x95 NOT ADD PUSH1 0xA MUL PUSH1 0x96 ADD JUMPDEST PUSH1 0x40 DUP1 MLOAD PUSH1 0xA0 DUP2 ADD DUP3 MSTORE SWAP4 DUP5 MSTORE PUSH1 0x20 DUP5 ADD SWAP3 SWAP1 SWAP3 MSTORE SWAP1 DUP3 ADD MSTORE SWAP1 SLOAD PUSH1 0xFF PUSH1 0x1 PUSH1 0xB8 SHL DUP3 DIV DUP2 AND PUSH1 0x60 DUP5 ADD MSTORE PUSH1 0x1 PUSH1 0xC0 SHL SWAP1 SWAP2 DIV AND PUSH1 0x80 DUP3 ADD MSTORE SWAP2 POP POP SWAP2 SWAP1 POP JUMP JUMPDEST PUSH1 0x0 DUP1 PUSH2 0x1EB3 PUSH2 0x2D1A JUMP JUMPDEST PUSH1 0x1 PUSH1 0x1 PUSH1 0xA0 SHL SUB DUP6 AND PUSH1 0x0 SWAP1 DUP2 MSTORE PUSH1 0x20 SWAP2 DUP3 MSTORE PUSH1 0x40 DUP1 DUP3 KECCAK256 DUP7 DUP4 MSTORE SWAP1 SWAP3 MSTORE KECCAK256 SLOAD SWAP2 POP POP SWAP3 SWAP2 POP POP JUMP JUMPDEST PUSH1 0x0 DUP1 PUSH2 0x1EE8 PUSH2 0x2D27 JUMP JUMPDEST PUSH1 0x1 PUSH1 0x1 PUSH1 0xA0 SHL SUB DUP7 AND PUSH1 0x0 SWAP1 DUP2 MSTORE PUSH1 0x20 SWAP2 DUP3 MSTORE PUSH1 0x40 DUP1 DUP3 KECCAK256 DUP8 DUP4 MSTORE DUP4 MSTORE DUP1 DUP3 KECCAK256 DUP7 DUP4 MSTORE SWAP1 SWAP3 MSTORE KECCAK256 SLOAD PUSH1 0xF SWAP1 DUP2 SIGNEXTEND SWAP1 SIGNEXTEND SWAP2 POP POP SWAP4 SWAP3 POP POP POP JUMP JUMPDEST PUSH1 0x60 DUP1 PUSH1 0x0 PUSH2 0x1F2F PUSH2 0x2D34 JUMP JUMPDEST PUSH1 0x0 DUP7 DUP2 MSTORE PUSH1 0x20 DUP3 SWAP1 MSTORE PUSH1 0x40 SWAP1 KECCAK256 SWAP1 SWAP2 POP PUSH2 0x1F4A DUP2 DUP7 PUSH2 0x29D3 JUMP JUMPDEST SWAP1 SWAP8 SWAP1 SWAP7 POP SWAP5 POP POP POP POP POP JUMP JUMPDEST PUSH1 0x60 PUSH2 0x1F63 DUP4 DUP4 PUSH2 0x2D41 JUMP JUMPDEST POP SWAP4 SWAP3 POP POP POP JUMP JUMPDEST PUSH1 0x60 PUSH1 0x0 PUSH2 0x1F7D DUP6 DUP6 PUSH2 0xFFFF AND PUSH2 0x1EA8 JUMP JUMPDEST SWAP1 POP PUSH1 0x0 PUSH2 0x1F8A DUP3 PUSH2 0x2D62 JUMP JUMPDEST SWAP1 POP PUSH1 0x0 DUP2 PUSH1 0x1 PUSH1 0x1 PUSH1 0x40 SHL SUB DUP2 GT DUP1 ISZERO PUSH2 0x1FA4 JUMPI PUSH1 0x0 DUP1 REVERT JUMPDEST POP PUSH1 0x40 MLOAD SWAP1 DUP1 DUP3 MSTORE DUP1 PUSH1 0x20 MUL PUSH1 0x20 ADD DUP3 ADD PUSH1 0x40 MSTORE DUP1 ISZERO PUSH2 0x1FDE JUMPI DUP2 PUSH1 0x20 ADD JUMPDEST PUSH2 0x1FCB PUSH2 0x3B79 JUMP JUMPDEST DUP2 MSTORE PUSH1 0x20 ADD SWAP1 PUSH1 0x1 SWAP1 SUB SWAP1 DUP2 PUSH2 0x1FC3 JUMPI SWAP1 POP JUMPDEST POP SWAP1 POP PUSH1 0x0 SWAP2 POP PUSH1 0x0 PUSH2 0x1FF0 DUP5 PUSH2 0x2E32 JUMP JUMPDEST SWAP1 POP JUMPDEST DUP1 ISZERO PUSH2 0x2079 JUMPI PUSH1 0x0 PUSH2 0x2005 DUP8 DUP4 PUSH2 0x2E57 JUMP JUMPDEST SWAP1 POP PUSH1 0x0 PUSH2 0x2018 DUP11 DUP11 PUSH2 0xFFFF AND DUP5 PUSH2 0x1EDD JUMP JUMPDEST SWAP1 POP PUSH1 0x0 DUP5 DUP7 DUP2 MLOAD DUP2 LT PUSH2 0x2028 JUMPI INVALID JUMPDEST PUSH1 0x20 SWAP1 DUP2 MUL SWAP2 SWAP1 SWAP2 ADD DUP2 ADD MLOAD PUSH2 0xFFFF DUP13 AND DUP2 MSTORE SWAP1 DUP2 ADD DUP5 SWAP1 MSTORE PUSH1 0x1 PUSH1 0x40 DUP3 ADD DUP2 SWAP1 MSTORE PUSH1 0x60 DUP3 ADD DUP5 SWAP1 MSTORE SWAP7 SWAP1 SWAP7 ADD SWAP6 SWAP1 POP PUSH2 0x2064 DUP8 DUP6 PUSH1 0x0 PUSH2 0x2F0A JUMP JUMPDEST SWAP7 POP PUSH2 0x206F DUP8 PUSH2 0x2E32 JUMP JUMPDEST SWAP4 POP POP POP POP PUSH2 0x1FF3 JUMP JUMPDEST POP SWAP7 SWAP6 POP POP POP POP POP POP JUMP JUMPDEST PUSH2 0x208C PUSH2 0x3ACE JUMP JUMPDEST PUSH1 0x0 PUSH2 0x2096 PUSH2 0x2F55 JUMP JUMPDEST PUSH1 0x1 PUSH1 0x1 PUSH1 0xA0 SHL SUB DUP5 AND PUSH1 0x0 SWAP1 DUP2 MSTORE PUSH1 0x20 SWAP2 DUP3 MSTORE PUSH1 0x40 SWAP1 DUP2 SWAP1 KECCAK256 DUP2 MLOAD PUSH1 0xC0 DUP2 ADD DUP4 MSTORE SWAP1 SLOAD PUSH5 0xFFFFFFFFFF DUP2 AND DUP3 MSTORE PUSH1 0x1 PUSH1 0x1 PUSH1 0xF8 SHL SUB NOT PUSH6 0x10000000000 DUP3 DIV PUSH1 0xF8 SHL AND SWAP4 DUP3 ADD SWAP4 SWAP1 SWAP4 MSTORE PUSH1 0xFF PUSH7 0x1000000000000 DUP5 DIV DUP2 AND SWAP3 DUP3 ADD SWAP3 SWAP1 SWAP3 MSTORE PUSH2 0xFFFF PUSH1 0x1 PUSH1 0x38 SHL DUP5 DIV AND PUSH1 0x60 DUP3 ADD MSTORE PUSH1 0x1 PUSH1 0x1 PUSH1 0x70 SHL SUB NOT PUSH10 0x1000000000000000000 DUP5 DIV PUSH1 0x70 SHL AND PUSH1 0x80 DUP3 ADD MSTORE PUSH1 0x1 PUSH1 0xD8 SHL SWAP1 SWAP3 DIV AND ISZERO ISZERO PUSH1 0xA0 DUP3 ADD MSTORE SWAP2 POP POP SWAP2 SWAP1 POP JUMP JUMPDEST PUSH1 0x60 ADD MLOAD PUSH2 0xFFFF AND ISZERO ISZERO SWAP1 JUMP JUMPDEST PUSH2 0x2152 PUSH2 0x38F8 JUMP JUMPDEST PUSH1 0x0 PUSH2 0x215E DUP6 DUP6 PUSH2 0x2F62 JUMP JUMPDEST SWAP1 SWAP3 POP SWAP1 POP DUP1 PUSH2 0x1F63 JUMPI PUSH2 0x2172 DUP6 DUP5 PUSH2 0x1638 JUMP JUMPDEST POP SWAP6 SWAP5 POP POP POP POP POP JUMP JUMPDEST PUSH1 0x0 PUSH2 0x1615 PUSH2 0x2FF5 JUMP JUMPDEST PUSH1 0x0 DUP1 PUSH2 0x2191 PUSH2 0x2219 JUMP JUMPDEST PUSH1 0x1 PUSH1 0x1 PUSH1 0xA0 SHL SUB DUP6 AND PUSH1 0x0 SWAP1 DUP2 MSTORE PUSH1 0x20 DUP3 DUP2 MSTORE PUSH1 0x40 DUP1 DUP4 KECCAK256 PUSH2 0xFFFF DUP9 AND DUP5 MSTORE SWAP1 SWAP2 MSTORE DUP2 KECCAK256 DUP1 SLOAD PUSH1 0x1 PUSH1 0xA8 SHL SWAP1 DIV PUSH1 0xA SWAP1 DUP2 SIGNEXTEND SWAP1 SIGNEXTEND SWAP5 POP SWAP2 SWAP3 POP DUP4 SLT ISZERO PUSH2 0x8CC JUMPI PUSH1 0x0 DUP1 REVERT JUMPDEST PUSH1 0x30 DUP2 SWAP1 SHR PUSH5 0xFFFFFFFFFF PUSH1 0x8 DUP4 SWAP1 SHR AND PUSH1 0xFF DUP4 AND PUSH1 0x0 DUP1 PUSH1 0x1 DUP4 EQ ISZERO PUSH2 0x2209 JUMPI POP PUSH1 0x1 PUSH1 0xFF PUSH1 0x40 DUP8 SWAP1 SHR AND EQ PUSH2 0x11FE JUMP JUMPDEST PUSH1 0x40 DUP7 SWAP1 SHR SWAP2 POP SWAP2 SWAP4 SWAP6 SWAP1 SWAP3 SWAP5 POP JUMP JUMPDEST PUSH1 0x0 DUP1 PUSH2 0xB93 PUSH1 0x6 PUSH2 0x235A JUMP JUMPDEST PUSH1 0x0 PUSH1 0x1 DUP5 EQ ISZERO PUSH2 0x2252 JUMPI PUSH2 0x224B DUP7 DUP7 DUP5 PUSH2 0x2242 JUMPI PUSH1 0x1 PUSH2 0x2246 JUMP JUMPDEST PUSH1 0x0 NOT JUMPDEST PUSH2 0x3002 JUMP JUMPDEST SWAP1 POP PUSH2 0x1295 JUMP JUMPDEST PUSH1 0xB DUP5 EQ DUP1 PUSH2 0x2261 JUMPI POP PUSH1 0x9 DUP5 EQ JUMPDEST DUP1 PUSH2 0x226C JUMPI POP PUSH1 0xA DUP5 EQ JUMPDEST ISZERO PUSH2 0x227D JUMPI PUSH2 0x224B DUP4 DUP8 DUP8 DUP8 PUSH2 0x304B JUMP JUMPDEST PUSH1 0xC DUP5 EQ ISZERO PUSH2 0x228F JUMPI PUSH2 0x224B DUP7 PUSH2 0x307E JUMP JUMPDEST PUSH1 0x0 DUP1 REVERT JUMPDEST PUSH1 0x0 DUP1 PUSH2 0xB93 PUSH1 0x10 PUSH2 0x235A JUMP JUMPDEST PUSH1 0x0 DUP1 PUSH2 0xB93 PUSH1 0xF PUSH2 0x235A JUMP JUMPDEST PUSH1 0x0 DUP1 PUSH2 0x22B9 PUSH2 0x25DE JUMP JUMPDEST PUSH1 0x1 PUSH1 0x1 PUSH1 0xA0 SHL SUB DUP5 AND PUSH1 0x0 SWAP1 DUP2 MSTORE PUSH1 0x20 DUP3 SWAP1 MSTORE PUSH1 0x40 SWAP1 KECCAK256 DUP1 SLOAD SWAP2 SWAP3 POP SWAP1 PUSH1 0x1 PUSH1 0xF8 SHL SWAP1 DIV PUSH1 0xFF AND ISZERO PUSH2 0x2315 JUMPI PUSH2 0x22EE PUSH2 0x3091 JUMP JUMPDEST PUSH1 0x1 PUSH1 0x1 PUSH1 0xA0 SHL SUB DUP1 DUP7 AND PUSH1 0x0 SWAP1 DUP2 MSTORE PUSH1 0x20 SWAP3 SWAP1 SWAP3 MSTORE PUSH1 0x40 SWAP1 SWAP2 KECCAK256 SLOAD AND SWAP3 POP PUSH2 0xA51 SWAP2 POP POP JUMP JUMPDEST PUSH1 0x0 SWAP3 POP POP POP PUSH2 0xA51 JUMP JUMPDEST POP POP SWAP2 SWAP1 POP JUMP JUMPDEST PUSH2 0x232F PUSH2 0x3994 JUMP JUMPDEST PUSH1 0x0 PUSH2 0x2339 PUSH2 0x29B9 JUMP JUMPDEST PUSH2 0xFFFF DUP5 AND PUSH1 0x0 SWAP1 DUP2 MSTORE PUSH1 0x20 SWAP2 SWAP1 SWAP2 MSTORE PUSH1 0x40 DUP2 KECCAK256 SLOAD SWAP2 POP PUSH2 0xE32 SWAP1 DUP3 PUSH2 0x309E JUMP JUMPDEST PUSH1 0x0 PUSH3 0xF4240 DUP3 PUSH1 0x26 DUP2 GT ISZERO PUSH2 0x236C JUMPI INVALID JUMPDEST ADD SWAP3 SWAP2 POP POP JUMP JUMPDEST PUSH1 0x0 DUP1 PUSH2 0xB93 PUSH1 0x1F PUSH2 0x235A JUMP JUMPDEST PUSH1 0x0 DUP1 PUSH2 0xB93 PUSH1 0x21 PUSH2 0x235A JUMP JUMPDEST PUSH1 0x0 DUP1 PUSH2 0x2399 DUP4 PUSH2 0x1584 JUMP JUMPDEST PUSH1 0x1 PUSH1 0x1 PUSH1 0xA0 SHL SUB AND PUSH4 0xA77C05B8 PUSH1 0x40 MLOAD DUP2 PUSH4 0xFFFFFFFF AND PUSH1 0xE0 SHL DUP2 MSTORE PUSH1 0x4 ADD PUSH1 0x40 DUP1 MLOAD DUP1 DUP4 SUB DUP2 DUP7 DUP1 EXTCODESIZE ISZERO DUP1 ISZERO PUSH2 0x23D0 JUMPI PUSH1 0x0 DUP1 REVERT JUMPDEST POP GAS STATICCALL ISZERO DUP1 ISZERO PUSH2 0x23E4 JUMPI RETURNDATASIZE PUSH1 0x0 DUP1 RETURNDATACOPY RETURNDATASIZE PUSH1 0x0 REVERT JUMPDEST POP POP POP POP PUSH1 0x40 MLOAD RETURNDATASIZE PUSH1 0x1F NOT PUSH1 0x1F DUP3 ADD AND DUP3 ADD DUP1 PUSH1 0x40 MSTORE POP DUP2 ADD SWAP1 PUSH2 0xF71 SWAP2 SWAP1 PUSH2 0x3F9A JUMP JUMPDEST PUSH2 0x2410 PUSH2 0x3919 JUMP JUMPDEST PUSH1 0x0 DUP1 PUSH1 0x0 PUSH2 0x2420 DUP9 DUP7 DUP10 PUSH2 0x31BD JUMP JUMPDEST PUSH1 0xC0 DUP12 ADD SWAP3 SWAP1 SWAP3 MSTORE PUSH1 0xE0 DUP11 ADD SWAP3 SWAP1 SWAP3 MSTORE PUSH1 0x20 DUP10 ADD MLOAD SWAP2 SWAP4 POP SWAP2 POP PUSH2 0x2444 SWAP1 DUP4 PUSH2 0x32C7 JUMP JUMPDEST PUSH1 0x20 DUP9 ADD MSTORE PUSH1 0x80 DUP8 ADD MLOAD PUSH1 0x0 SWAP1 ISZERO PUSH2 0x2472 JUMPI PUSH1 0x80 DUP9 ADD MLOAD PUSH2 0x246F SWAP1 PUSH2 0x2469 DUP10 DUP3 PUSH2 0x32D9 JUMP JUMPDEST SWAP1 PUSH2 0x32EE JUMP JUMPDEST SWAP1 POP JUMPDEST PUSH2 0x2492 PUSH2 0x2487 PUSH8 0xDE0B6B3A7640000 DUP4 PUSH2 0x32C7 JUMP JUMPDEST PUSH1 0xA0 DUP11 ADD MLOAD SWAP1 PUSH2 0x3305 JUMP JUMPDEST PUSH1 0xA0 DUP10 ADD MSTORE POP POP PUSH1 0x80 DUP7 ADD SWAP5 SWAP1 SWAP5 MSTORE POP POP DUP3 MSTORE SWAP1 SWAP3 SWAP1 SWAP2 POP JUMP JUMPDEST PUSH1 0x0 DUP3 PUSH2 0x24BB JUMPI POP PUSH1 0x0 PUSH2 0xB93 JUMP JUMPDEST DUP3 DUP3 MUL DUP3 DUP5 DUP3 DUP2 PUSH2 0x24C8 JUMPI INVALID JUMPDEST DIV EQ PUSH2 0xE32 JUMPI PUSH1 0x0 DUP1 REVERT JUMPDEST PUSH1 0x0 PUSH1 0x1 PUSH1 0x1 PUSH1 0xFF SHL SUB DUP3 GT ISZERO PUSH2 0x24E9 JUMPI PUSH1 0x0 DUP1 REVERT JUMPDEST POP SWAP1 JUMP JUMPDEST PUSH1 0x0 DUP1 PUSH2 0xB93 PUSH1 0x1D PUSH2 0x235A JUMP JUMPDEST PUSH1 0x8 DUP2 SWAP1 SHR PUSH1 0xFF SWAP1 SWAP2 AND SHL SWAP1 JUMP JUMPDEST PUSH1 0x0 DUP1 DUP3 GT PUSH2 0x2516 JUMPI PUSH1 0x0 DUP1 REVERT JUMPDEST DUP2 DUP4 DUP2 PUSH2 0x251F JUMPI INVALID JUMPDEST DIV SWAP4 SWAP3 POP POP POP JUMP JUMPDEST PUSH1 0x0 DUP1 PUSH2 0x2554 PUSH15 0xC097CE7BC90715B34B9F1000000000 PUSH2 0x1CB5 DUP7 PUSH1 0x0 ADD MLOAD DUP7 PUSH2 0x2B15 SWAP1 SWAP2 SWAP1 PUSH4 0xFFFFFFFF AND JUMP JUMPDEST SWAP1 POP PUSH1 0x0 DUP4 SLT PUSH2 0x2564 JUMPI DUP1 PUSH2 0xF71 JUMP JUMPDEST PUSH2 0xF71 DUP2 PUSH1 0x0 NOT PUSH2 0x3322 JUMP JUMPDEST PUSH1 0x0 DUP1 DUP3 SLT ISZERO PUSH2 0x24E9 JUMPI PUSH1 0x0 DUP1 REVERT JUMPDEST PUSH1 0x0 PUSH1 0x1 DUP3 SLT PUSH2 0x258E JUMPI PUSH1 0x0 DUP1 REVERT JUMPDEST DUP2 PUSH2 0x259B JUMPI POP PUSH1 0x0 PUSH2 0xB93 JUMP JUMPDEST PUSH2 0xE32 PUSH1 0x1 PUSH2 0x25CA PUSH15 0xC097CE7BC90715B34B9F1000000000 PUSH2 0x1CB5 DUP8 PUSH1 0x20 ADD MLOAD DUP8 PUSH2 0x2B15 SWAP1 SWAP2 SWAP1 PUSH4 0xFFFFFFFF AND JUMP JUMPDEST SWAP1 PUSH2 0x3338 JUMP JUMPDEST PUSH1 0x0 PUSH2 0xA4E PUSH1 0x0 NOT DUP4 PUSH2 0x2B15 JUMP JUMPDEST PUSH1 0x0 DUP1 PUSH2 0xB93 PUSH1 0x2 PUSH2 0x235A JUMP JUMPDEST PUSH1 0x0 DUP1 PUSH2 0xB93 PUSH1 0x11 PUSH2 0x235A JUMP JUMPDEST PUSH1 0x0 DUP1 PUSH1 0x0 DUP1 PUSH1 0x0 PUSH2 0x2608 PUSH2 0x2219 JUMP JUMPDEST PUSH1 0x1 PUSH1 0x1 PUSH1 0xA0 SHL SUB DUP10 AND PUSH1 0x0 SWAP1 DUP2 MSTORE PUSH1 0x20 DUP3 DUP2 MSTORE PUSH1 0x40 DUP1 DUP4 KECCAK256 PUSH2 0xFFFF DUP13 AND DUP5 MSTORE SWAP1 SWAP2 MSTORE SWAP1 KECCAK256 DUP1 SLOAD PUSH1 0x1 PUSH1 0x1 PUSH1 0x50 SHL SUB DUP2 AND SWAP7 POP PUSH1 0x1 PUSH1 0x50 SHL SWAP1 DIV PUSH4 0xFFFFFFFF AND SWAP5 POP SWAP1 SWAP2 POP DUP4 ISZERO PUSH2 0x2675 JUMPI DUP1 SLOAD PUSH2 0x266E SWAP1 PUSH1 0x1 PUSH1 0x70 SHL SWAP1 DIV PUSH7 0xFFFFFFFFFFFFFF AND PUSH2 0x24FA JUMP JUMPDEST SWAP3 POP PUSH2 0x268A JUMP JUMPDEST DUP1 SLOAD PUSH1 0x1 PUSH1 0x70 SHL SWAP1 DIV PUSH7 0xFFFFFFFFFFFFFF AND SWAP3 POP JUMPDEST DUP1 SLOAD PUSH2 0x26A5 SWAP1 DUP9 SWAP1 PUSH1 0x1 PUSH1 0xA8 SHL SWAP1 DIV PUSH1 0xA SWAP1 DUP2 SIGNEXTEND SWAP1 SIGNEXTEND PUSH2 0x334E JUMP JUMPDEST SWAP6 POP POP POP SWAP4 POP SWAP4 POP SWAP4 POP SWAP4 JUMP JUMPDEST PUSH1 0x0 DUP1 PUSH2 0xB93 PUSH1 0x3 PUSH2 0x235A JUMP JUMPDEST DUP3 PUSH1 0x1 GT ISZERO DUP1 ISZERO PUSH2 0x26D4 JUMPI POP DUP5 PUSH1 0x20 ADD MLOAD DUP4 GT ISZERO JUMPDEST PUSH2 0x26F0 JUMPI PUSH1 0x40 MLOAD PUSH3 0x461BCD PUSH1 0xE5 SHL DUP2 MSTORE PUSH1 0x4 ADD PUSH2 0x309 SWAP1 PUSH2 0x4565 JUMP JUMPDEST PUSH1 0x0 PUSH2 0x270D PUSH2 0x26FE DUP6 PUSH2 0x3375 JUMP JUMPDEST PUSH2 0x2707 DUP5 PUSH2 0x3419 JUMP JUMPDEST SWAP1 PUSH2 0x32C7 JUMP JUMPDEST SWAP1 POP PUSH2 0x2732 DUP7 PUSH1 0x0 ADD MLOAD PUSH2 0xFFFF AND DUP3 DUP5 DUP7 PUSH2 0x2727 DUP12 PUSH2 0x1CED JUMP JUMPDEST DUP11 SWAP5 SWAP4 SWAP3 SWAP2 SWAP1 PUSH2 0x343A JUMP JUMPDEST POP POP POP POP POP POP JUMP JUMPDEST PUSH2 0x2742 PUSH2 0x3965 JUMP JUMPDEST PUSH1 0x0 PUSH2 0x274C PUSH2 0x3464 JUMP JUMPDEST PUSH1 0x0 DUP6 DUP2 MSTORE PUSH1 0x20 DUP3 DUP2 MSTORE PUSH1 0x40 DUP1 DUP4 KECCAK256 DUP8 ISZERO ISZERO DUP5 MSTORE DUP3 MSTORE SWAP2 DUP3 SWAP1 KECCAK256 DUP3 MLOAD PUSH1 0xA0 DUP2 ADD DUP5 MSTORE DUP2 SLOAD PUSH1 0x1 PUSH1 0x1 PUSH1 0xA0 SHL SUB DUP2 AND DUP3 MSTORE PUSH1 0xFF PUSH1 0x1 PUSH1 0xA0 SHL DUP3 DIV DUP2 AND ISZERO ISZERO SWAP5 DUP4 ADD SWAP5 SWAP1 SWAP5 MSTORE PUSH1 0x1 PUSH1 0xB0 SHL DUP2 DIV DUP5 AND PUSH1 0xA EXP SWAP5 DUP3 ADD SWAP5 SWAP1 SWAP5 MSTORE SWAP4 SWAP5 POP SWAP3 SWAP2 PUSH1 0x60 DUP4 ADD SWAP2 PUSH1 0x1 PUSH1 0xA8 SHL SWAP1 SWAP2 DIV AND PUSH1 0x5 DUP2 GT ISZERO PUSH2 0x27C1 JUMPI INVALID JUMPDEST DUP2 MSTORE PUSH1 0x0 PUSH1 0x20 SWAP1 SWAP2 ADD MSTORE SWAP6 SWAP5 POP POP POP POP POP JUMP JUMPDEST PUSH1 0x0 PUSH2 0xE32 PUSH2 0x27E7 DUP5 PUSH4 0x3B9ACA00 PUSH2 0x24AC JUMP JUMPDEST DUP4 PUSH2 0x2508 JUMP JUMPDEST PUSH1 0x0 DUP1 DUP4 PUSH1 0x80 ADD MLOAD GT PUSH2 0x27FF JUMPI PUSH1 0x0 DUP1 REVERT JUMPDEST PUSH4 0x3B9ACA00 DUP3 GT ISZERO PUSH2 0x2810 JUMPI PUSH1 0x0 DUP1 REVERT JUMPDEST DUP3 MLOAD DUP3 GT PUSH2 0x2836 JUMPI DUP3 MLOAD PUSH1 0x40 DUP5 ADD MLOAD PUSH2 0x282F SWAP2 SWAP1 PUSH2 0x175C SWAP1 DUP6 SWAP1 PUSH2 0x24AC JUMP JUMPDEST SWAP1 POP PUSH2 0xB93 JUMP JUMPDEST DUP3 PUSH1 0x20 ADD MLOAD DUP3 GT PUSH2 0x286E JUMPI PUSH1 0x40 DUP4 ADD MLOAD DUP4 MLOAD PUSH1 0x20 DUP6 ADD MLOAD PUSH1 0x60 DUP7 ADD MLOAD PUSH2 0x282F SWAP4 SWAP3 PUSH2 0x2707 SWAP3 DUP2 SWAP1 SUB SWAP2 PUSH2 0x175C SWAP2 DUP9 SUB SWAP1 DUP6 SWAP1 SUB PUSH2 0x24AC JUMP JUMPDEST PUSH2 0xE32 DUP4 PUSH1 0x60 ADD MLOAD PUSH2 0x2707 DUP6 PUSH1 0x20 ADD MLOAD PUSH4 0x3B9ACA00 SUB PUSH2 0x175C DUP8 PUSH1 0x60 ADD MLOAD DUP9 PUSH1 0x80 ADD MLOAD SUB DUP9 PUSH1 0x20 ADD MLOAD DUP9 SUB PUSH2 0x24AC SWAP1 SWAP2 SWAP1 PUSH4 0xFFFFFFFF AND JUMP JUMPDEST PUSH1 0x0 DUP1 PUSH2 0x28C6 PUSH1 0x64 PUSH2 0x175C DUP8 PUSH1 0xE0 ADD MLOAD DUP8 PUSH2 0x24AC SWAP1 SWAP2 SWAP1 PUSH4 0xFFFFFFFF AND JUMP JUMPDEST SWAP1 POP DUP5 PUSH1 0xA0 ADD MLOAD DUP2 LT ISZERO PUSH2 0x28DB JUMPI POP PUSH1 0xA0 DUP5 ADD MLOAD JUMPDEST DUP5 PUSH1 0xC0 ADD MLOAD DUP2 GT ISZERO PUSH2 0x28EE JUMPI POP PUSH1 0xC0 DUP5 ADD MLOAD JUMPDEST DUP3 ISZERO PUSH2 0x2905 JUMPI PUSH2 0x28FE DUP5 DUP3 PUSH2 0x32C7 JUMP JUMPDEST SWAP2 POP PUSH2 0x1F63 JUMP JUMPDEST DUP4 DUP2 GT PUSH2 0x2914 JUMPI DUP1 DUP5 SUB PUSH2 0xE2E JUMP JUMPDEST PUSH1 0x0 SWAP6 SWAP5 POP POP POP POP POP JUMP JUMPDEST PUSH1 0x0 PUSH2 0xE32 PUSH2 0x292E DUP5 DUP5 PUSH2 0x24AC JUMP JUMPDEST PUSH4 0x3B9ACA00 PUSH2 0x2508 JUMP JUMPDEST PUSH1 0x0 DUP1 PUSH2 0x2943 PUSH2 0x3471 JUMP JUMPDEST PUSH1 0x0 SWAP4 DUP5 MSTORE PUSH1 0x20 MSTORE POP POP PUSH1 0x40 SWAP1 KECCAK256 SLOAD SWAP1 JUMP JUMPDEST PUSH1 0x0 DUP1 PUSH2 0xB93 PUSH1 0x1C PUSH2 0x235A JUMP JUMPDEST PUSH2 0x296A PUSH2 0x3994 JUMP JUMPDEST PUSH1 0x0 PUSH2 0x2975 DUP5 PUSH2 0x347E JUMP JUMPDEST PUSH2 0xFFFF DUP7 AND PUSH1 0x0 SWAP1 DUP2 MSTORE PUSH1 0x20 DUP6 SWAP1 MSTORE PUSH1 0x40 DUP2 KECCAK256 SWAP2 SWAP3 POP SWAP1 PUSH1 0x4 DUP7 LT PUSH2 0x299B JUMPI PUSH1 0x1 PUSH2 0x299E JUMP JUMPDEST PUSH1 0x0 JUMPDEST PUSH1 0xFF AND PUSH1 0x2 DUP2 LT PUSH2 0x29AB JUMPI INVALID JUMPDEST ADD SLOAD SWAP1 POP PUSH2 0x125B DUP3 DUP3 PUSH2 0x309E JUMP JUMPDEST PUSH1 0x0 DUP1 PUSH2 0xB93 PUSH1 0x1B PUSH2 0x235A JUMP JUMPDEST PUSH1 0x0 DUP1 PUSH2 0xB93 PUSH1 0x5 PUSH2 0x235A JUMP JUMPDEST PUSH1 0x60 DUP1 PUSH1 0x0 DUP1 DUP5 PUSH1 0x1 PUSH1 0x1 PUSH1 0x40 SHL SUB DUP2 GT DUP1 ISZERO PUSH2 0x29EF JUMPI PUSH1 0x0 DUP1 REVERT JUMPDEST POP PUSH1 0x40 MLOAD SWAP1 DUP1 DUP3 MSTORE DUP1 PUSH1 0x20 MUL PUSH1 0x20 ADD DUP3 ADD PUSH1 0x40 MSTORE DUP1 ISZERO PUSH2 0x2A19 JUMPI DUP2 PUSH1 0x20 ADD PUSH1 0x20 DUP3 MUL DUP1 CALLDATASIZE DUP4 CALLDATACOPY ADD SWAP1 POP JUMPDEST POP SWAP1 POP PUSH1 0x0 DUP6 PUSH1 0x1 PUSH1 0x1 PUSH1 0x40 SHL SUB DUP2 GT DUP1 ISZERO PUSH2 0x2A34 JUMPI PUSH1 0x0 DUP1 REVERT JUMPDEST POP PUSH1 0x40 MLOAD SWAP1 DUP1 DUP3 MSTORE DUP1 PUSH1 0x20 MUL PUSH1 0x20 ADD DUP3 ADD PUSH1 0x40 MSTORE DUP1 ISZERO PUSH2 0x2A5E JUMPI DUP2 PUSH1 0x20 ADD PUSH1 0x20 DUP3 MUL DUP1 CALLDATASIZE DUP4 CALLDATACOPY ADD SWAP1 POP JUMPDEST POP SWAP1 POP PUSH1 0x0 JUMPDEST DUP7 DUP2 LT ISZERO PUSH2 0x2B08 JUMPI DUP8 DUP5 PUSH1 0xE DUP2 LT PUSH2 0x2A78 JUMPI INVALID JUMPDEST PUSH1 0x8 SWAP2 DUP3 DUP3 DIV ADD SWAP2 SWAP1 MOD PUSH1 0x4 MUL SWAP1 SLOAD SWAP1 PUSH2 0x100 EXP SWAP1 DIV PUSH4 0xFFFFFFFF AND PUSH4 0xFFFFFFFF AND DUP4 DUP3 DUP2 MLOAD DUP2 LT PUSH2 0x2AA6 JUMPI INVALID JUMPDEST PUSH1 0x20 SWAP1 DUP2 MUL SWAP2 SWAP1 SWAP2 ADD ADD MSTORE PUSH1 0x1 SWAP1 SWAP4 ADD SWAP3 DUP8 DUP5 PUSH1 0xE DUP2 LT PUSH2 0x2AC3 JUMPI INVALID JUMPDEST PUSH1 0x8 SWAP2 DUP3 DUP3 DIV ADD SWAP2 SWAP1 MOD PUSH1 0x4 MUL SWAP1 SLOAD SWAP1 PUSH2 0x100 EXP SWAP1 DIV PUSH4 0xFFFFFFFF AND PUSH4 0xFFFFFFFF AND DUP3 DUP3 DUP2 MLOAD DUP2 LT PUSH2 0x2AF1 JUMPI INVALID JUMPDEST PUSH1 0x20 SWAP1 DUP2 MUL SWAP2 SWAP1 SWAP2 ADD ADD MSTORE PUSH1 0x1 SWAP4 DUP5 ADD SWAP4 ADD PUSH2 0x2A64 JUMP JUMPDEST POP SWAP1 SWAP7 SWAP1 SWAP6 POP SWAP4 POP POP POP POP JUMP JUMPDEST DUP2 DUP2 MUL PUSH1 0x0 NOT DUP4 EQ ISZERO PUSH2 0x2B45 JUMPI DUP2 ISZERO DUP1 PUSH2 0x2B37 JUMPI POP DUP3 DUP3 DUP3 DUP2 PUSH2 0x2B34 JUMPI INVALID JUMPDEST SDIV EQ JUMPDEST PUSH2 0x2B40 JUMPI PUSH1 0x0 DUP1 REVERT JUMPDEST PUSH2 0xB93 JUMP JUMPDEST DUP3 ISZERO DUP1 PUSH2 0x2B5A JUMPI POP DUP2 DUP4 DUP3 DUP2 PUSH2 0x2B57 JUMPI INVALID JUMPDEST SDIV EQ JUMPDEST PUSH2 0xB93 JUMPI PUSH1 0x0 DUP1 REVERT JUMPDEST PUSH1 0x0 DUP2 PUSH1 0x0 NOT EQ DUP1 ISZERO PUSH2 0x2B79 JUMPI POP PUSH1 0x1 PUSH1 0xFF SHL DUP4 EQ JUMPDEST ISZERO PUSH2 0x2B83 JUMPI PUSH1 0x0 DUP1 REVERT JUMPDEST DUP2 DUP4 DUP2 PUSH2 0x2B8C JUMPI INVALID JUMPDEST SDIV SWAP4 SWAP3 POP POP POP JUMP JUMPDEST PUSH2 0x2B9C PUSH2 0x3B4D JUMP JUMPDEST PUSH1 0x0 PUSH2 0x2BAB DUP5 PUSH2 0xFFFF AND PUSH2 0x2938 JUMP JUMPDEST PUSH1 0x40 DUP1 MLOAD PUSH1 0x80 DUP2 ADD DUP3 MSTORE PUSH2 0xFFFF SWAP7 SWAP1 SWAP7 AND DUP7 MSTORE PUSH1 0xFF DUP3 AND PUSH1 0x20 DUP8 ADD MSTORE DUP6 ADD SWAP4 SWAP1 SWAP4 MSTORE POP POP PUSH1 0x60 DUP3 ADD MSTORE SWAP1 JUMP JUMPDEST PUSH1 0x0 PUSH2 0x2BE1 PUSH2 0x34B7 JUMP JUMPDEST PUSH1 0x0 DUP7 DUP2 MSTORE PUSH1 0x20 DUP3 DUP2 MSTORE PUSH1 0x40 DUP1 DUP4 KECCAK256 DUP9 DUP5 MSTORE DUP3 MSTORE DUP1 DUP4 KECCAK256 DUP7 DUP5 MSTORE DUP3 MSTORE SWAP2 DUP3 SWAP1 KECCAK256 DUP1 DUP11 MSTORE SWAP1 DUP10 ADD DUP8 SWAP1 MSTORE DUP1 SLOAD PUSH1 0x1 PUSH1 0x1 PUSH1 0x50 SHL SUB DUP1 DUP3 AND SWAP4 DUP12 ADD SWAP4 SWAP1 SWAP4 MSTORE PUSH1 0x1 PUSH1 0x50 SHL DUP2 DIV SWAP1 SWAP3 AND PUSH1 0x60 DUP11 ADD MSTORE PUSH4 0xFFFFFFFF PUSH1 0x1 PUSH1 0xA0 SHL DUP4 DIV DUP2 AND PUSH1 0xA0 DUP12 ADD MSTORE PUSH1 0x1 PUSH1 0xC0 SHL DUP4 DIV DUP2 AND PUSH1 0xC0 DUP12 ADD MSTORE PUSH1 0x1 PUSH1 0xE0 SHL SWAP1 SWAP3 DIV SWAP1 SWAP2 AND PUSH1 0xE0 DUP10 ADD MSTORE SWAP1 SWAP2 POP DUP1 DUP5 ISZERO PUSH2 0x2C80 JUMPI PUSH1 0x1 DUP3 ADD SLOAD PUSH1 0x1 PUSH1 0x1 PUSH1 0x50 SHL SUB AND PUSH1 0x80 DUP10 ADD MSTORE PUSH2 0x2C88 JUMP JUMPDEST PUSH1 0x0 PUSH1 0x80 DUP10 ADD MSTORE JUMPDEST POP POP POP POP POP POP POP POP JUMP JUMPDEST PUSH1 0x0 DUP1 DUP4 GT PUSH2 0x2CA0 JUMPI PUSH1 0x0 DUP1 REVERT JUMPDEST DUP2 DUP7 GT ISZERO PUSH2 0x2CAF JUMPI POP DUP4 PUSH2 0x1295 JUMP JUMPDEST PUSH1 0x0 PUSH2 0x2CBB DUP4 DUP9 PUSH2 0x32D9 JUMP JUMPDEST SWAP1 POP DUP4 DUP2 GT ISZERO PUSH2 0x2CCE JUMPI DUP6 SWAP2 POP POP PUSH2 0x1295 JUMP JUMPDEST PUSH1 0x0 PUSH2 0x2CDA DUP3 DUP7 PUSH2 0x27D4 JUMP JUMPDEST SWAP1 POP PUSH1 0x0 PUSH2 0x2CEC PUSH4 0x3B9ACA00 DUP4 PUSH2 0x32D9 JUMP JUMPDEST SWAP1 POP PUSH2 0x2D0D PUSH4 0x3B9ACA00 PUSH2 0x175C PUSH2 0x2D03 DUP11 DUP6 PUSH2 0x24AC JUMP JUMPDEST PUSH2 0x2707 DUP13 DUP8 PUSH2 0x24AC JUMP JUMPDEST SWAP10 SWAP9 POP POP POP POP POP POP POP POP POP JUMP JUMPDEST PUSH1 0x0 DUP1 PUSH2 0xB93 PUSH1 0xB PUSH2 0x235A JUMP JUMPDEST PUSH1 0x0 DUP1 PUSH2 0xB93 PUSH1 0xC PUSH2 0x235A JUMP JUMPDEST PUSH1 0x0 DUP1 PUSH2 0xB93 PUSH1 0x4 PUSH2 0x235A JUMP JUMPDEST PUSH1 0x60 DUP1 PUSH2 0x2D4E DUP5 DUP5 PUSH2 0x34C4 JUMP JUMPDEST SWAP2 POP PUSH2 0x2D59 DUP3 PUSH2 0x35DB JUMP JUMPDEST SWAP1 POP SWAP3 POP SWAP3 SWAP1 POP JUMP JUMPDEST PUSH1 0x1 DUP2 SWAP1 SHR PUSH32 0x5555555555555555555555555555555555555555555555555555555555555555 SWAP1 DUP2 AND SWAP2 AND ADD PUSH1 0x2 DUP2 SWAP1 SHR PUSH32 0x3333333333333333333333333333333333333333333333333333333333333333 SWAP1 DUP2 AND SWAP2 AND ADD PUSH1 0x4 DUP2 SWAP1 SHR PUSH32 0x707070707070707070707070707070707070707070707070707070707070707 SWAP2 SWAP1 SWAP2 AND ADD PUSH1 0x8 DUP2 SWAP1 SHR PUSH31 0xF000F000F000F000F000F000F000F000F000F000F000F000F000F000F000F SWAP1 DUP2 AND SWAP2 AND ADD PUSH1 0x10 DUP2 SWAP1 SHR ADD PUSH1 0x20 DUP2 SWAP1 SHR ADD PUSH1 0x40 DUP2 SWAP1 SHR ADD PUSH1 0x80 DUP2 SWAP1 SHR PUSH1 0xFF SWAP1 DUP2 AND SWAP2 AND ADD SWAP1 JUMP JUMPDEST PUSH1 0x0 DUP2 PUSH2 0x2E41 JUMPI POP PUSH1 0x0 PUSH2 0xA51 JUMP JUMPDEST PUSH2 0x2E4A DUP3 PUSH2 0x3794 JUMP JUMPDEST PUSH1 0xFF SUB PUSH1 0x1 ADD SWAP1 POP SWAP2 SWAP1 POP JUMP JUMPDEST PUSH1 0x0 DUP2 PUSH2 0x2E63 JUMPI PUSH1 0x0 DUP1 REVERT JUMPDEST PUSH2 0x100 DUP3 GT ISZERO PUSH2 0x2E72 JUMPI PUSH1 0x0 DUP1 REVERT JUMPDEST PUSH1 0x0 PUSH2 0x2E7D DUP5 PUSH2 0x382D JUMP JUMPDEST SWAP1 POP PUSH1 0x0 PUSH1 0x5A DUP5 GT PUSH2 0x2E98 JUMPI POP PUSH3 0x15180 DUP4 MUL ADD SWAP1 POP PUSH2 0xB93 JUMP JUMPDEST PUSH1 0x87 DUP5 GT PUSH2 0x2EC0 JUMPI POP PUSH1 0x59 NOT DUP4 ADD PUSH3 0x7E900 SWAP1 DUP2 MUL SWAP1 DUP3 MOD SWAP1 SWAP2 SUB ADD PUSH3 0x76A700 ADD SWAP1 POP PUSH2 0xB93 JUMP JUMPDEST PUSH1 0xC3 DUP5 GT PUSH2 0x2EE9 JUMPI POP PUSH1 0x86 NOT DUP4 ADD PUSH3 0x278D00 SWAP1 DUP2 MUL SWAP1 DUP3 MOD SWAP1 SWAP2 SUB ADD PUSH4 0x1DA9C00 ADD SWAP1 POP PUSH2 0xB93 JUMP JUMPDEST POP PUSH1 0xC2 NOT DUP4 ADD PUSH3 0x76A700 SWAP1 DUP2 MUL SWAP1 DUP3 MOD SWAP1 SWAP2 SUB ADD PUSH4 0xB1FA800 ADD SWAP1 POP PUSH2 0xB93 JUMP JUMPDEST PUSH1 0x0 PUSH1 0x1 DUP4 LT ISZERO DUP1 ISZERO PUSH2 0x2F1F JUMPI POP PUSH2 0x100 DUP4 GT ISZERO JUMPDEST PUSH2 0x2F28 JUMPI PUSH1 0x0 DUP1 REVERT JUMPDEST DUP2 ISZERO PUSH2 0x2F41 JUMPI POP PUSH1 0x1 PUSH1 0xFF SHL PUSH1 0x0 NOT DUP4 ADD SHR DUP4 OR PUSH2 0xE32 JUMP JUMPDEST POP PUSH1 0x1 PUSH1 0xFF SHL PUSH1 0x0 NOT DUP4 ADD SHR NOT DUP4 AND PUSH2 0xE32 JUMP JUMPDEST PUSH1 0x0 DUP1 PUSH2 0xB93 PUSH1 0x1 PUSH2 0x235A JUMP JUMPDEST PUSH2 0x2F6A PUSH2 0x38F8 JUMP JUMPDEST PUSH1 0x0 DUP1 PUSH2 0x2F75 PUSH2 0x3849 JUMP JUMPDEST PUSH2 0xFFFF DUP7 AND PUSH1 0x0 SWAP1 DUP2 MSTORE PUSH1 0x20 DUP3 DUP2 MSTORE PUSH1 0x40 DUP1 DUP4 KECCAK256 DUP9 DUP5 MSTORE SWAP1 SWAP2 MSTORE SWAP1 KECCAK256 DUP1 SLOAD PUSH1 0x1 PUSH1 0xF0 SHL SWAP1 DIV PUSH1 0xFF AND SWAP4 POP SWAP1 SWAP2 POP DUP3 ISZERO PUSH2 0x2FEC JUMPI DUP1 SLOAD PUSH1 0x1 PUSH1 0x1 PUSH1 0x50 SHL SUB PUSH1 0x1 PUSH1 0xA0 SHL DUP3 DIV DUP2 AND SWAP2 PUSH2 0x2FC7 SWAP2 AND DUP3 PUSH2 0x24AC JUMP JUMPDEST DUP6 MSTORE DUP2 SLOAD PUSH2 0x2FE5 SWAP1 PUSH1 0x1 PUSH1 0x50 SHL SWAP1 DIV PUSH1 0x1 PUSH1 0x1 PUSH1 0x50 SHL SUB AND DUP3 PUSH2 0x24AC JUMP JUMPDEST PUSH1 0x20 DUP7 ADD MSTORE POP JUMPDEST POP POP SWAP3 POP SWAP3 SWAP1 POP JUMP JUMPDEST PUSH1 0x0 DUP1 PUSH2 0xB93 PUSH1 0x22 PUSH2 0x235A JUMP JUMPDEST PUSH1 0x0 PUSH2 0x3FFF PUSH2 0xFFFF DUP6 AND GT ISZERO PUSH2 0x3017 JUMPI PUSH1 0x0 DUP1 REVERT JUMPDEST PUSH5 0xFFFFFFFFFF DUP4 GT ISZERO PUSH2 0x3029 JUMPI PUSH1 0x0 DUP1 REVERT JUMPDEST PUSH2 0x3033 DUP5 DUP5 PUSH2 0x3856 JUMP JUMPDEST SWAP1 POP PUSH1 0x0 DUP3 SLT ISZERO PUSH2 0xE32 JUMPI PUSH1 0x1 PUSH1 0x40 SHL OR SWAP4 SWAP3 POP POP POP JUMP JUMPDEST PUSH9 0x10000000000000000 PUSH1 0x1 PUSH1 0xE0 SHL SUB PUSH1 0x40 DUP6 SWAP1 SHL AND PUSH2 0xFFFF PUSH1 0x30 SHL PUSH1 0x30 DUP6 SWAP1 SHL AND OR PUSH1 0x8 DUP4 SWAP1 SHL OR DUP2 OR SWAP5 SWAP4 POP POP POP POP JUMP JUMPDEST PUSH1 0xC PUSH1 0x30 SWAP2 SWAP1 SWAP2 SHL PUSH2 0xFFFF PUSH1 0x30 SHL AND OR SWAP1 JUMP JUMPDEST PUSH1 0x0 DUP1 PUSH2 0xB93 PUSH1 0x12 PUSH2 0x235A JUMP JUMPDEST PUSH2 0x30A6 PUSH2 0x3994 JUMP JUMPDEST PUSH1 0x64 PUSH4 0x3B9ACA00 DUP4 PUSH1 0xFF DUP7 AND PUSH1 0x20 DUP2 LT PUSH2 0x30BC JUMPI INVALID JUMPDEST BYTE MUL DUP2 PUSH2 0x30C5 JUMPI INVALID JUMPDEST DIV DUP2 MSTORE PUSH1 0x64 PUSH4 0x3B9ACA00 DUP4 PUSH1 0xFF DUP7 AND PUSH1 0x1 ADD PUSH1 0x20 DUP2 LT PUSH2 0x30E1 JUMPI INVALID JUMPDEST BYTE MUL DUP2 PUSH2 0x30EA JUMPI INVALID JUMPDEST DIV DUP2 PUSH1 0x20 ADD DUP2 DUP2 MSTORE POP POP PUSH2 0x310F DUP3 PUSH1 0x2 DUP6 PUSH1 0xFF AND ADD PUSH1 0x20 DUP2 LT PUSH2 0x3109 JUMPI INVALID JUMPDEST BYTE PUSH2 0x3871 JUMP JUMPDEST PUSH1 0x80 DUP3 ADD DUP2 SWAP1 MSTORE PUSH2 0x100 SWAP1 DUP4 PUSH1 0xFF DUP7 AND PUSH1 0x3 ADD PUSH1 0x20 DUP2 LT PUSH2 0x312C JUMPI INVALID JUMPDEST BYTE MUL DUP2 PUSH2 0x3135 JUMPI INVALID JUMPDEST DIV PUSH1 0x40 DUP3 ADD MSTORE PUSH1 0x80 DUP2 ADD MLOAD PUSH2 0x100 SWAP1 DUP4 PUSH1 0xFF DUP7 AND PUSH1 0x4 ADD PUSH1 0x20 DUP2 LT PUSH2 0x3156 JUMPI INVALID JUMPDEST BYTE MUL DUP2 PUSH2 0x315F JUMPI INVALID JUMPDEST DIV PUSH1 0x60 DUP3 ADD MSTORE PUSH3 0x7A120 DUP3 PUSH1 0xFF DUP6 AND PUSH1 0x5 ADD PUSH1 0x20 DUP2 LT PUSH2 0x317B JUMPI INVALID JUMPDEST BYTE MUL PUSH1 0xA0 DUP3 ADD MSTORE PUSH3 0x2625A0 DUP3 PUSH1 0xFF DUP6 AND PUSH1 0x6 ADD PUSH1 0x20 DUP2 LT PUSH2 0x3198 JUMPI INVALID JUMPDEST BYTE MUL PUSH1 0xC0 DUP3 ADD MSTORE DUP2 PUSH1 0xFF DUP5 AND PUSH1 0x7 ADD PUSH1 0x20 DUP2 LT PUSH2 0x31B1 JUMPI INVALID JUMPDEST BYTE PUSH1 0xE0 DUP3 ADD MSTORE SWAP3 SWAP2 POP POP JUMP JUMPDEST PUSH1 0x0 DUP1 PUSH1 0x0 DUP1 PUSH1 0x0 DUP1 PUSH2 0x31D0 DUP10 DUP9 PUSH2 0x1AB2 JUMP JUMPDEST DUP10 MLOAD SWAP1 SWAP6 POP SWAP2 SWAP4 POP SWAP2 POP PUSH1 0x0 SWAP1 PUSH2 0x31F7 SWAP1 PUSH2 0x31EC SWAP1 DUP12 SWAP1 PUSH2 0x32D9 JUMP JUMPDEST PUSH4 0x3B9ACA00 SWAP1 PUSH2 0x24AC JUMP JUMPDEST SWAP1 POP PUSH2 0x3231 PUSH2 0x3226 PUSH4 0x1DA9C00 PUSH2 0x320E DUP6 DUP6 PUSH2 0x24AC JUMP JUMPDEST DUP2 PUSH2 0x3215 JUMPI INVALID JUMPDEST PUSH8 0xDE0B6B3A7640000 SWAP2 SWAP1 DIV PUSH2 0x32C7 JUMP JUMPDEST PUSH1 0xE0 DUP11 ADD MLOAD SWAP1 PUSH2 0x3305 JUMP JUMPDEST SWAP7 POP PUSH2 0x3253 PUSH2 0x3248 PUSH4 0x1DA9C00 PUSH2 0x320E DUP8 DUP6 PUSH2 0x24AC JUMP JUMPDEST PUSH1 0xC0 DUP11 ADD MLOAD SWAP1 PUSH2 0x3305 JUMP JUMPDEST SWAP6 POP DUP2 DUP4 EQ ISZERO PUSH2 0x326A JUMPI POP PUSH1 0x0 SWAP4 POP PUSH2 0x198F SWAP2 POP POP JUMP JUMPDEST PUSH1 0x0 PUSH2 0x328C PUSH2 0x3281 PUSH4 0x1DA9C00 PUSH2 0x320E DUP8 DUP7 PUSH2 0x24AC JUMP JUMPDEST PUSH1 0xE0 DUP12 ADD MLOAD SWAP1 PUSH2 0x3305 JUMP JUMPDEST SWAP1 POP PUSH1 0x0 PUSH2 0x329A DUP10 DUP4 PUSH2 0x32D9 JUMP JUMPDEST SWAP1 POP PUSH2 0x32B7 DUP9 PUSH2 0x175C DUP4 DUP14 PUSH1 0x40 ADD MLOAD PUSH2 0x24AC SWAP1 SWAP2 SWAP1 PUSH4 0xFFFFFFFF AND JUMP JUMPDEST SWAP7 POP POP POP POP POP POP SWAP4 POP SWAP4 POP SWAP4 POP SWAP4 JUMP JUMPDEST PUSH1 0x0 DUP3 DUP3 ADD DUP4 DUP2 LT ISZERO PUSH2 0xE32 JUMPI PUSH1 0x0 DUP1 REVERT JUMPDEST PUSH1 0x0 DUP3 DUP3 GT ISZERO PUSH2 0x32E8 JUMPI PUSH1 0x0 DUP1 REVERT JUMPDEST POP SWAP1 SUB SWAP1 JUMP JUMPDEST PUSH1 0x0 PUSH2 0xE32 PUSH2 0x27E7 DUP5 PUSH8 0xDE0B6B3A7640000 PUSH2 0x24AC JUMP JUMPDEST PUSH1 0x0 PUSH2 0xE32 PUSH2 0x3314 DUP5 DUP5 PUSH2 0x24AC JUMP JUMPDEST PUSH8 0xDE0B6B3A7640000 PUSH2 0x2508 JUMP JUMPDEST PUSH1 0x0 DUP2 DUP4 SLT PUSH2 0x3331 JUMPI DUP2 PUSH2 0xE32 JUMP JUMPDEST POP SWAP1 SWAP2 SWAP1 POP JUMP JUMPDEST DUP1 DUP3 SUB DUP3 DUP2 SGT ISZERO PUSH1 0x0 DUP4 SLT ISZERO EQ PUSH2 0xB93 JUMPI PUSH1 0x0 DUP1 REVERT JUMPDEST PUSH1 0x0 DUP1 DUP3 SLT PUSH2 0x335E JUMPI POP DUP1 PUSH2 0xB93 JUMP JUMPDEST DUP3 MLOAD PUSH1 0x20 DUP5 ADD MLOAD PUSH2 0x282F SWAP2 SWAP1 PUSH2 0x1CB5 SWAP1 DUP6 SWAP1 PUSH2 0x2B15 JUMP JUMPDEST PUSH1 0x0 DUP2 PUSH1 0x1 EQ ISZERO PUSH2 0x338A JUMPI POP PUSH3 0x76A700 PUSH2 0xA51 JUMP JUMPDEST DUP2 PUSH1 0x2 EQ ISZERO PUSH2 0x339D JUMPI POP PUSH3 0xED4E00 PUSH2 0xA51 JUMP JUMPDEST DUP2 PUSH1 0x3 EQ ISZERO PUSH2 0x33B1 JUMPI POP PUSH4 0x1DA9C00 PUSH2 0xA51 JUMP JUMPDEST DUP2 PUSH1 0x4 EQ ISZERO PUSH2 0x33C5 JUMPI POP PUSH4 0x3B53800 PUSH2 0xA51 JUMP JUMPDEST DUP2 PUSH1 0x5 EQ ISZERO PUSH2 0x33D9 JUMPI POP PUSH4 0x9450C00 PUSH2 0xA51 JUMP JUMPDEST DUP2 PUSH1 0x6 EQ ISZERO PUSH2 0x33ED JUMPI POP PUSH4 0x128A1800 PUSH2 0xA51 JUMP JUMPDEST DUP2 PUSH1 0x7 EQ ISZERO PUSH2 0x3401 JUMPI POP PUSH4 0x25143000 PUSH2 0xA51 JUMP JUMPDEST PUSH1 0x40 MLOAD PUSH3 0x461BCD PUSH1 0xE5 SHL DUP2 MSTORE PUSH1 0x4 ADD PUSH2 0x309 SWAP1 PUSH2 0x453E JUMP JUMPDEST PUSH1 0x0 PUSH3 0x76A700 DUP3 LT ISZERO PUSH2 0x342B JUMPI PUSH1 0x0 DUP1 REVERT JUMPDEST PUSH3 0x76A700 DUP3 JUMPDEST MOD SWAP1 SWAP2 SUB SWAP2 SWAP1 POP JUMP JUMPDEST PUSH1 0x0 PUSH3 0x76A700 PUSH2 0x3449 DUP6 PUSH2 0x3419 JUMP JUMPDEST ADD SWAP1 POP PUSH2 0x345B DUP8 DUP8 DUP8 DUP8 DUP8 DUP8 DUP8 PUSH2 0x1D01 JUMP JUMPDEST POP POP POP POP POP POP POP JUMP JUMPDEST PUSH1 0x0 DUP1 PUSH2 0xB93 PUSH1 0x7 PUSH2 0x235A JUMP JUMPDEST PUSH1 0x0 DUP1 PUSH2 0xB93 PUSH1 0x9 PUSH2 0x235A JUMP JUMPDEST PUSH1 0x0 DUP2 PUSH1 0x0 LT PUSH2 0x348D JUMPI PUSH1 0x0 DUP1 REVERT JUMPDEST PUSH1 0x7 DUP3 GT ISZERO PUSH2 0x349B JUMPI PUSH1 0x0 DUP1 REVERT JUMPDEST PUSH1 0x4 DUP3 LT PUSH2 0x34AC JUMPI PUSH1 0x4 DUP3 SUB PUSH2 0x34AE JUMP JUMPDEST DUP2 JUMPDEST PUSH1 0x8 MUL SWAP3 SWAP2 POP POP JUMP JUMPDEST PUSH1 0x0 DUP1 PUSH2 0xB93 PUSH1 0xA PUSH2 0x235A JUMP JUMPDEST PUSH1 0x60 PUSH1 0x8 DUP3 PUSH1 0xFF AND GT ISZERO PUSH2 0x34D7 JUMPI PUSH1 0x0 DUP1 REVERT JUMPDEST PUSH1 0x0 PUSH2 0x34E1 PUSH2 0x38A5 JUMP JUMPDEST PUSH1 0x1 PUSH1 0x1 PUSH1 0xA0 SHL SUB DUP6 AND PUSH1 0x0 SWAP1 DUP2 MSTORE PUSH1 0x20 DUP3 SWAP1 MSTORE PUSH1 0x40 DUP2 KECCAK256 SWAP2 SWAP3 POP PUSH1 0xFF DUP6 AND PUSH1 0x1 PUSH1 0x1 PUSH1 0x40 SHL SUB DUP2 GT DUP1 ISZERO PUSH2 0x3515 JUMPI PUSH1 0x0 DUP1 REVERT JUMPDEST POP PUSH1 0x40 MLOAD SWAP1 DUP1 DUP3 MSTORE DUP1 PUSH1 0x20 MUL PUSH1 0x20 ADD DUP3 ADD PUSH1 0x40 MSTORE DUP1 ISZERO PUSH2 0x354F JUMPI DUP2 PUSH1 0x20 ADD JUMPDEST PUSH2 0x353C PUSH2 0x3B79 JUMP JUMPDEST DUP2 MSTORE PUSH1 0x20 ADD SWAP1 PUSH1 0x1 SWAP1 SUB SWAP1 DUP2 PUSH2 0x3534 JUMPI SWAP1 POP JUMPDEST POP SWAP1 POP PUSH1 0x0 JUMPDEST DUP6 PUSH1 0xFF AND DUP2 LT ISZERO PUSH2 0x2172 JUMPI PUSH1 0x0 DUP4 DUP3 PUSH1 0x8 DUP2 LT PUSH2 0x356E JUMPI INVALID JUMPDEST ADD SWAP1 POP PUSH1 0x0 DUP4 DUP4 DUP2 MLOAD DUP2 LT PUSH2 0x357F JUMPI INVALID JUMPDEST PUSH1 0x20 SWAP1 DUP2 MUL SWAP2 SWAP1 SWAP2 ADD DUP2 ADD MLOAD DUP4 SLOAD PUSH2 0xFFFF DUP2 AND DUP3 MSTORE PUSH5 0xFFFFFFFFFF PUSH3 0x10000 DUP3 DIV AND SWAP3 DUP3 ADD SWAP3 SWAP1 SWAP3 MSTORE PUSH1 0xFF PUSH1 0x1 PUSH1 0x38 SHL DUP4 DIV AND PUSH1 0x40 DUP3 ADD MSTORE PUSH1 0x1 PUSH1 0x40 SHL SWAP1 SWAP2 DIV PUSH1 0xA SWAP1 DUP2 SIGNEXTEND SWAP1 SIGNEXTEND PUSH1 0x60 DUP3 ADD MSTORE PUSH1 0x80 ADD SWAP2 SWAP1 SWAP2 MSTORE POP PUSH1 0x1 ADD PUSH2 0x3555 JUMP JUMPDEST DUP1 MLOAD PUSH1 0x60 SWAP1 DUP1 PUSH1 0x1 PUSH1 0x1 PUSH1 0x40 SHL SUB DUP2 GT DUP1 ISZERO PUSH2 0x35F6 JUMPI PUSH1 0x0 DUP1 REVERT JUMPDEST POP PUSH1 0x40 MLOAD SWAP1 DUP1 DUP3 MSTORE DUP1 PUSH1 0x20 MUL PUSH1 0x20 ADD DUP3 ADD PUSH1 0x40 MSTORE DUP1 ISZERO PUSH2 0x3620 JUMPI DUP2 PUSH1 0x20 ADD PUSH1 0x20 DUP3 MUL DUP1 CALLDATASIZE DUP4 CALLDATACOPY ADD SWAP1 POP JUMPDEST POP SWAP2 POP PUSH1 0x0 JUMPDEST DUP2 DUP2 LT ISZERO PUSH2 0x367D JUMPI PUSH1 0x0 DUP5 DUP3 DUP2 MLOAD DUP2 LT PUSH2 0x363C JUMPI INVALID JUMPDEST PUSH1 0x20 MUL PUSH1 0x20 ADD ADD MLOAD SWAP1 POP PUSH2 0x365D DUP2 PUSH1 0x0 ADD MLOAD DUP3 PUSH1 0x20 ADD MLOAD DUP4 PUSH1 0x40 ADD MLOAD PUSH2 0x38B2 JUMP JUMPDEST DUP5 DUP4 DUP2 MLOAD DUP2 LT PUSH2 0x3669 JUMPI INVALID JUMPDEST PUSH1 0x20 SWAP1 DUP2 MUL SWAP2 SWAP1 SWAP2 ADD ADD MSTORE POP PUSH1 0x1 ADD PUSH2 0x3626 JUMP JUMPDEST POP PUSH1 0x1 JUMPDEST DUP2 DUP2 LT ISZERO PUSH2 0x2320 JUMPI DUP1 JUMPDEST PUSH1 0x0 DUP2 GT DUP1 ISZERO PUSH2 0x36C3 JUMPI POP DUP4 DUP2 DUP2 MLOAD DUP2 LT PUSH2 0x36A2 JUMPI INVALID JUMPDEST PUSH1 0x20 MUL PUSH1 0x20 ADD ADD MLOAD DUP5 PUSH1 0x1 DUP4 SUB DUP2 MLOAD DUP2 LT PUSH2 0x36B9 JUMPI INVALID JUMPDEST PUSH1 0x20 MUL PUSH1 0x20 ADD ADD MLOAD GT JUMPDEST ISZERO PUSH2 0x378B JUMPI DUP4 DUP2 DUP2 MLOAD DUP2 LT PUSH2 0x36D4 JUMPI INVALID JUMPDEST PUSH1 0x20 MUL PUSH1 0x20 ADD ADD MLOAD DUP5 PUSH1 0x1 DUP4 SUB DUP2 MLOAD DUP2 LT PUSH2 0x36EB JUMPI INVALID JUMPDEST PUSH1 0x20 MUL PUSH1 0x20 ADD ADD MLOAD DUP6 PUSH1 0x1 DUP5 SUB DUP2 MLOAD DUP2 LT PUSH2 0x3702 JUMPI INVALID JUMPDEST PUSH1 0x20 MUL PUSH1 0x20 ADD ADD DUP7 DUP5 DUP2 MLOAD DUP2 LT PUSH2 0x3715 JUMPI INVALID JUMPDEST PUSH1 0x20 MUL PUSH1 0x20 ADD ADD DUP3 DUP2 MSTORE POP DUP3 DUP2 MSTORE POP POP POP DUP5 DUP2 DUP2 MLOAD DUP2 LT PUSH2 0x3732 JUMPI INVALID JUMPDEST PUSH1 0x20 MUL PUSH1 0x20 ADD ADD MLOAD DUP6 PUSH1 0x1 DUP4 SUB DUP2 MLOAD DUP2 LT PUSH2 0x3749 JUMPI INVALID JUMPDEST PUSH1 0x20 MUL PUSH1 0x20 ADD ADD MLOAD DUP7 PUSH1 0x1 DUP5 SUB DUP2 MLOAD DUP2 LT PUSH2 0x3760 JUMPI INVALID JUMPDEST PUSH1 0x20 MUL PUSH1 0x20 ADD ADD DUP8 DUP5 DUP2 MLOAD DUP2 LT PUSH2 0x3773 JUMPI INVALID JUMPDEST PUSH1 0x20 SWAP1 DUP2 MUL SWAP2 SWAP1 SWAP2 ADD ADD SWAP2 SWAP1 SWAP2 MSTORE MSTORE PUSH1 0x0 NOT ADD PUSH2 0x368B JUMP JUMPDEST POP PUSH1 0x1 ADD PUSH2 0x3681 JUMP JUMPDEST PUSH1 0x0 DUP2 PUSH2 0x37A0 JUMPI PUSH1 0x0 DUP1 REVERT JUMPDEST PUSH1 0x1 PUSH1 0x80 SHL DUP3 LT PUSH2 0x37B3 JUMPI PUSH1 0x80 SWAP2 DUP3 SHR SWAP2 ADD JUMPDEST PUSH1 0x1 PUSH1 0x40 SHL DUP3 LT PUSH2 0x37C6 JUMPI PUSH1 0x40 SWAP2 DUP3 SHR SWAP2 ADD JUMPDEST PUSH5 0x100000000 DUP3 LT PUSH2 0x37DA JUMPI PUSH1 0x20 SWAP2 DUP3 SHR SWAP2 ADD JUMPDEST PUSH3 0x10000 DUP3 LT PUSH2 0x37EC JUMPI PUSH1 0x10 SWAP2 DUP3 SHR SWAP2 ADD JUMPDEST PUSH2 0x100 DUP3 LT PUSH2 0x37FD JUMPI PUSH1 0x8 SWAP2 DUP3 SHR SWAP2 ADD JUMPDEST PUSH1 0x10 DUP3 LT PUSH2 0x380D JUMPI PUSH1 0x4 SWAP2 DUP3 SHR SWAP2 ADD JUMPDEST PUSH1 0x4 DUP3 LT PUSH2 0x381D JUMPI PUSH1 0x2 SWAP2 DUP3 SHR SWAP2 ADD JUMPDEST PUSH1 0x2 DUP3 LT PUSH2 0xA51 JUMPI PUSH1 0x1 ADD SWAP2 SWAP1 POP JUMP JUMPDEST PUSH1 0x0 PUSH3 0x15180 DUP3 LT ISZERO PUSH2 0x383F JUMPI PUSH1 0x0 DUP1 REVERT JUMPDEST PUSH3 0x15180 DUP3 PUSH2 0x3431 JUMP JUMPDEST PUSH1 0x0 DUP1 PUSH2 0xB93 PUSH1 0x1E PUSH2 0x235A JUMP JUMPDEST PUSH2 0xFFFF PUSH1 0x30 SHL PUSH1 0x30 DUP4 SWAP1 SHL AND PUSH1 0x8 DUP3 SWAP1 SHL OR PUSH1 0x1 OR SWAP3 SWAP2 POP POP JUMP JUMPDEST PUSH1 0x0 DUP2 PUSH1 0xFF AND PUSH1 0x96 LT PUSH2 0x388C JUMPI PUSH1 0xFF DUP3 AND PUSH3 0x2625A0 MUL PUSH2 0xA4E JUMP JUMPDEST POP PUSH1 0x95 NOT PUSH1 0xFF SWAP2 SWAP1 SWAP2 AND ADD PUSH3 0xE4E1C0 MUL PUSH4 0x165A0BC0 ADD SWAP1 JUMP JUMPDEST PUSH1 0x0 DUP1 PUSH2 0xB93 PUSH1 0xD PUSH2 0x235A JUMP JUMPDEST PUSH2 0xFFFF PUSH1 0x30 SHL PUSH1 0x30 DUP5 SWAP1 SHL AND PUSH6 0xFFFFFFFFFF00 PUSH1 0x8 DUP5 SWAP1 SHL AND OR PUSH1 0xFF DUP3 AND OR SWAP4 SWAP3 POP POP POP JUMP JUMPDEST PUSH1 0x40 DUP1 MLOAD PUSH1 0x60 DUP2 ADD DUP3 MSTORE PUSH1 0x0 DUP1 DUP3 MSTORE PUSH1 0x20 DUP3 ADD DUP2 SWAP1 MSTORE SWAP2 DUP2 ADD SWAP2 SWAP1 SWAP2 MSTORE SWAP1 JUMP JUMPDEST PUSH1 0x40 MLOAD DUP1 PUSH1 0x60 ADD PUSH1 0x40 MSTORE DUP1 PUSH1 0x0 DUP2 MSTORE PUSH1 0x20 ADD PUSH1 0x0 DUP2 MSTORE PUSH1 0x20 ADD PUSH1 0x0 DUP2 MSTORE POP SWAP1 JUMP JUMPDEST PUSH1 0x40 MLOAD DUP1 PUSH2 0x120 ADD PUSH1 0x40 MSTORE DUP1 PUSH1 0x0 DUP2 MSTORE PUSH1 0x20 ADD PUSH1 0x0 DUP2 MSTORE PUSH1 0x20 ADD PUSH1 0x0 DUP2 MSTORE PUSH1 0x20 ADD PUSH1 0x0 DUP2 MSTORE PUSH1 0x20 ADD PUSH1 0x0 DUP2 MSTORE PUSH1 0x20 ADD PUSH1 0x0 DUP2 MSTORE PUSH1 0x20 ADD PUSH1 0x0 DUP2 MSTORE PUSH1 0x20 ADD PUSH1 0x0 DUP2 MSTORE PUSH1 0x20 ADD PUSH1 0x0 DUP2 MSTORE POP SWAP1 JUMP JUMPDEST PUSH1 0x40 DUP1 MLOAD PUSH1 0xA0 DUP2 ADD DUP3 MSTORE PUSH1 0x0 DUP1 DUP3 MSTORE PUSH1 0x20 DUP3 ADD DUP2 SWAP1 MSTORE SWAP2 DUP2 ADD DUP3 SWAP1 MSTORE SWAP1 PUSH1 0x60 DUP3 ADD SWAP1 DUP2 MSTORE PUSH1 0x20 ADD PUSH1 0x0 DUP2 MSTORE POP SWAP1 JUMP JUMPDEST PUSH1 0x40 MLOAD DUP1 PUSH2 0x100 ADD PUSH1 0x40 MSTORE DUP1 PUSH1 0x0 DUP2 MSTORE PUSH1 0x20 ADD PUSH1 0x0 DUP2 MSTORE PUSH1 0x20 ADD PUSH1 0x0 DUP2 MSTORE PUSH1 0x20 ADD PUSH1 0x0 DUP2 MSTORE PUSH1 0x20 ADD PUSH1 0x0 DUP2 MSTORE PUSH1 0x20 ADD PUSH1 0x0 DUP2 MSTORE PUSH1 0x20 ADD PUSH1 0x0 DUP2 MSTORE PUSH1 0x20 ADD PUSH1 0x0 DUP2 MSTORE POP SWAP1 JUMP JUMPDEST PUSH1 0x40 DUP1 MLOAD PUSH2 0x140 DUP2 ADD DUP3 MSTORE PUSH1 0x0 DUP1 DUP3 MSTORE PUSH1 0x20 DUP3 ADD DUP2 SWAP1 MSTORE SWAP2 DUP2 ADD DUP3 SWAP1 MSTORE PUSH1 0x60 DUP2 ADD DUP3 SWAP1 MSTORE PUSH1 0x80 DUP2 ADD DUP3 SWAP1 MSTORE PUSH1 0xA0 DUP2 ADD DUP3 SWAP1 MSTORE PUSH1 0xC0 DUP2 ADD DUP3 SWAP1 MSTORE PUSH1 0xE0 DUP2 ADD DUP3 SWAP1 MSTORE PUSH2 0x100 DUP2 ADD DUP3 SWAP1 MSTORE PUSH2 0x120 DUP2 ADD SWAP2 SWAP1 SWAP2 MSTORE SWAP1 JUMP JUMPDEST PUSH1 0x40 MLOAD DUP1 PUSH1 0x60 ADD PUSH1 0x40 MSTORE DUP1 PUSH1 0x0 PUSH1 0x1 PUSH1 0x1 PUSH1 0xA0 SHL SUB AND DUP2 MSTORE PUSH1 0x20 ADD PUSH1 0x0 DUP2 MSTORE PUSH1 0x20 ADD PUSH1 0x0 DUP2 MSTORE POP SWAP1 JUMP JUMPDEST PUSH1 0x40 MLOAD DUP1 PUSH2 0x100 ADD PUSH1 0x40 MSTORE DUP1 PUSH1 0x0 DUP1 NOT AND DUP2 MSTORE PUSH1 0x20 ADD PUSH1 0x0 DUP2 MSTORE PUSH1 0x20 ADD PUSH1 0x0 DUP2 MSTORE PUSH1 0x20 ADD PUSH1 0x0 DUP2 MSTORE PUSH1 0x20 ADD PUSH1 0x0 DUP2 MSTORE PUSH1 0x20 ADD PUSH1 0x0 DUP2 MSTORE PUSH1 0x20 ADD PUSH1 0x0 DUP2 MSTORE PUSH1 0x20 ADD PUSH1 0x0 DUP2 MSTORE POP SWAP1 JUMP JUMPDEST PUSH1 0x40 MLOAD DUP1 PUSH1 0xA0 ADD PUSH1 0x40 MSTORE DUP1 PUSH1 0x0 DUP2 MSTORE PUSH1 0x20 ADD PUSH1 0x0 DUP2 MSTORE PUSH1 0x20 ADD PUSH1 0x0 DUP2 MSTORE PUSH1 0x20 ADD PUSH1 0x0 DUP2 MSTORE PUSH1 0x20 ADD PUSH1 0x0 DUP2 MSTORE POP SWAP1 JUMP JUMPDEST PUSH1 0x40 DUP1 MLOAD PUSH1 0xC0 DUP2 ADD DUP3 MSTORE PUSH1 0x0 DUP1 DUP3 MSTORE PUSH1 0x20 DUP3 ADD DUP2 SWAP1 MSTORE SWAP2 DUP2 ADD DUP3 SWAP1 MSTORE PUSH1 0x60 DUP2 ADD DUP3 SWAP1 MSTORE PUSH1 0x80 DUP2 ADD DUP3 SWAP1 MSTORE PUSH1 0xA0 DUP2 ADD SWAP2 SWAP1 SWAP2 MSTORE SWAP1 JUMP JUMPDEST PUSH1 0x40 DUP1 MLOAD DUP1 DUP3 ADD SWAP1 SWAP2 MSTORE PUSH1 0x0 DUP1 DUP3 MSTORE PUSH1 0x20 DUP3 ADD MSTORE SWAP1 JUMP JUMPDEST PUSH1 0x40 MLOAD DUP1 PUSH1 0xA0 ADD PUSH1 0x40 MSTORE DUP1 PUSH1 0x0 PUSH2 0xFFFF AND DUP2 MSTORE PUSH1 0x20 ADD PUSH1 0x0 DUP2 MSTORE PUSH1 0x20 ADD PUSH1 0x0 DUP2 MSTORE PUSH1 0x20 ADD PUSH1 0x0 DUP2 MSTORE PUSH1 0x20 ADD PUSH1 0x0 DUP2 MSTORE POP SWAP1 JUMP JUMPDEST PUSH1 0x40 DUP1 MLOAD PUSH1 0x80 DUP2 ADD DUP3 MSTORE PUSH1 0x0 DUP1 DUP3 MSTORE PUSH1 0x20 DUP3 ADD MSTORE SWAP1 DUP2 ADD PUSH2 0x3B6C PUSH2 0x38F8 JUMP JUMPDEST DUP2 MSTORE PUSH1 0x0 PUSH1 0x20 SWAP1 SWAP2 ADD MSTORE SWAP1 JUMP JUMPDEST PUSH1 0x40 MLOAD DUP1 PUSH1 0xC0 ADD PUSH1 0x40 MSTORE DUP1 PUSH1 0x0 PUSH2 0xFFFF AND DUP2 MSTORE PUSH1 0x20 ADD PUSH1 0x0 DUP2 MSTORE PUSH1 0x20 ADD PUSH1 0x0 DUP2 MSTORE PUSH1 0x20 ADD PUSH1 0x0 DUP2 MSTORE PUSH1 0x20 ADD PUSH1 0x0 DUP2 MSTORE PUSH1 0x20 ADD PUSH1 0x0 PUSH1 0x3 DUP2 GT ISZERO PUSH2 0x3BB8 JUMPI INVALID JUMPDEST SWAP1 MSTORE SWAP1 JUMP JUMPDEST DUP1 CALLDATALOAD PUSH2 0xFFFF DUP2 AND DUP2 EQ PUSH2 0xA51 JUMPI PUSH1 0x0 DUP1 REVERT JUMPDEST DUP1 MLOAD PUSH1 0x1 PUSH1 0x1 PUSH1 0x50 SHL SUB DUP2 AND DUP2 EQ PUSH2 0xA51 JUMPI PUSH1 0x0 DUP1 REVERT JUMPDEST PUSH1 0x0 PUSH1 0x20 DUP3 DUP5 SUB SLT ISZERO PUSH2 0x3BF7 JUMPI DUP1 DUP2 REVERT JUMPDEST DUP2 CALLDATALOAD PUSH2 0xE32 DUP2 PUSH2 0x48FC JUMP JUMPDEST PUSH1 0x0 DUP1 PUSH1 0x40 DUP4 DUP6 SUB SLT ISZERO PUSH2 0x3C14 JUMPI DUP1 DUP2 REVERT JUMPDEST DUP3 CALLDATALOAD PUSH2 0x3C1F DUP2 PUSH2 0x48FC JUMP JUMPDEST SWAP2 POP PUSH2 0x2D59 PUSH1 0x20 DUP5 ADD PUSH2 0x3BBD JUMP JUMPDEST PUSH1 0x0 DUP1 PUSH1 0x0 PUSH1 0x60 DUP5 DUP7 SUB SLT ISZERO PUSH2 0x3C41 JUMPI DUP1 DUP2 REVERT JUMPDEST DUP4 CALLDATALOAD PUSH2 0x3C4C DUP2 PUSH2 0x48FC JUMP JUMPDEST SWAP3 POP PUSH2 0x3C5A PUSH1 0x20 DUP6 ADD PUSH2 0x3BBD JUMP JUMPDEST SWAP2 POP PUSH1 0x40 DUP5 ADD CALLDATALOAD SWAP1 POP SWAP3 POP SWAP3 POP SWAP3 JUMP JUMPDEST PUSH1 0x0 DUP1 PUSH1 0x20 DUP4 DUP6 SUB SLT ISZERO PUSH2 0x3C7C JUMPI DUP2 DUP3 REVERT JUMPDEST DUP3 CALLDATALOAD PUSH1 0x1 PUSH1 0x1 PUSH1 0x40 SHL SUB DUP1 DUP3 GT ISZERO PUSH2 0x3C92 JUMPI DUP4 DUP5 REVERT JUMPDEST DUP2 DUP6 ADD SWAP2 POP DUP6 PUSH1 0x1F DUP4 ADD SLT PUSH2 0x3CA5 JUMPI DUP4 DUP5 REVERT JUMPDEST DUP2 CALLDATALOAD DUP2 DUP2 GT ISZERO PUSH2 0x3CB3 JUMPI DUP5 DUP6 REVERT JUMPDEST DUP7 PUSH1 0x20 DUP1 DUP4 MUL DUP6 ADD ADD GT ISZERO PUSH2 0x3CC6 JUMPI DUP5 DUP6 REVERT JUMPDEST PUSH1 0x20 SWAP3 SWAP1 SWAP3 ADD SWAP7 SWAP2 SWAP6 POP SWAP1 SWAP4 POP POP POP POP JUMP JUMPDEST PUSH1 0x0 PUSH1 0x20 DUP1 DUP4 DUP6 SUB SLT ISZERO PUSH2 0x3CEA JUMPI DUP2 DUP3 REVERT JUMPDEST DUP3 MLOAD PUSH1 0x1 PUSH1 0x1 PUSH1 0x40 SHL SUB DUP2 GT ISZERO PUSH2 0x3CFF JUMPI DUP3 DUP4 REVERT JUMPDEST DUP4 ADD PUSH1 0x1F DUP2 ADD DUP6 SGT PUSH2 0x3D0F JUMPI DUP3 DUP4 REVERT JUMPDEST DUP1 MLOAD PUSH2 0x3D22 PUSH2 0x3D1D DUP3 PUSH2 0x48DF JUMP JUMPDEST PUSH2 0x48BC JUMP JUMPDEST DUP2 DUP2 MSTORE DUP4 DUP2 ADD SWAP1 DUP4 DUP6 ADD DUP6 DUP5 MUL DUP6 ADD DUP7 ADD DUP10 LT ISZERO PUSH2 0x3D3E JUMPI DUP7 DUP8 REVERT JUMPDEST DUP7 SWAP5 POP JUMPDEST DUP4 DUP6 LT ISZERO PUSH2 0x3D69 JUMPI DUP1 MLOAD PUSH2 0x3D55 DUP2 PUSH2 0x48FC JUMP JUMPDEST DUP4 MSTORE PUSH1 0x1 SWAP5 SWAP1 SWAP5 ADD SWAP4 SWAP2 DUP6 ADD SWAP2 DUP6 ADD PUSH2 0x3D42 JUMP JUMPDEST POP SWAP8 SWAP7 POP POP POP POP POP POP POP JUMP JUMPDEST PUSH1 0x0 DUP1 PUSH1 0x40 DUP4 DUP6 SUB SLT ISZERO PUSH2 0x3D87 JUMPI DUP2 DUP3 REVERT JUMPDEST DUP3 MLOAD SWAP2 POP PUSH1 0x20 DUP1 DUP5 ADD MLOAD PUSH1 0x1 PUSH1 0x1 PUSH1 0x40 SHL SUB DUP2 GT ISZERO PUSH2 0x3DA4 JUMPI DUP3 DUP4 REVERT JUMPDEST DUP5 ADD PUSH1 0x1F DUP2 ADD DUP7 SGT PUSH2 0x3DB4 JUMPI DUP3 DUP4 REVERT JUMPDEST DUP1 MLOAD PUSH2 0x3DC2 PUSH2 0x3D1D DUP3 PUSH2 0x48DF JUMP JUMPDEST DUP2 DUP2 MSTORE DUP4 DUP2 ADD SWAP1 DUP4 DUP6 ADD DUP6 DUP5 MUL DUP6 ADD DUP7 ADD DUP11 LT ISZERO PUSH2 0x3DDE JUMPI DUP7 DUP8 REVERT JUMPDEST DUP7 SWAP5 POP JUMPDEST DUP4 DUP6 LT ISZERO PUSH2 0x3E00 JUMPI DUP1 MLOAD DUP4 MSTORE PUSH1 0x1 SWAP5 SWAP1 SWAP5 ADD SWAP4 SWAP2 DUP6 ADD SWAP2 DUP6 ADD PUSH2 0x3DE2 JUMP JUMPDEST POP DUP1 SWAP6 POP POP POP POP POP POP SWAP3 POP SWAP3 SWAP1 POP JUMP JUMPDEST PUSH1 0x0 PUSH1 0x20 DUP3 DUP5 SUB SLT ISZERO PUSH2 0x3E21 JUMPI DUP1 DUP2 REVERT JUMPDEST PUSH2 0xE32 DUP3 PUSH2 0x3BBD JUMP JUMPDEST PUSH1 0x0 DUP1 PUSH1 0x40 DUP4 DUP6 SUB SLT ISZERO PUSH2 0x3E3C JUMPI DUP2 DUP3 REVERT JUMPDEST PUSH2 0x3E45 DUP4 PUSH2 0x3BBD JUMP JUMPDEST SWAP2 POP PUSH1 0x20 DUP4 ADD CALLDATALOAD PUSH2 0x3E55 DUP2 PUSH2 0x48FC JUMP JUMPDEST DUP1 SWAP2 POP POP SWAP3 POP SWAP3 SWAP1 POP JUMP JUMPDEST PUSH1 0x0 DUP1 PUSH1 0x40 DUP4 DUP6 SUB SLT ISZERO PUSH2 0x3E72 JUMPI DUP2 DUP3 REVERT JUMPDEST PUSH2 0x3E7B DUP4 PUSH2 0x3BBD JUMP JUMPDEST SWAP5 PUSH1 0x20 SWAP4 SWAP1 SWAP4 ADD CALLDATALOAD SWAP4 POP POP POP JUMP JUMPDEST PUSH1 0x0 DUP1 PUSH1 0x0 PUSH1 0x60 DUP5 DUP7 SUB SLT ISZERO PUSH2 0x3E9D JUMPI DUP3 DUP4 REVERT JUMPDEST PUSH2 0x3EA6 DUP5 PUSH2 0x3BBD JUMP JUMPDEST SWAP6 PUSH1 0x20 DUP6 ADD CALLDATALOAD SWAP6 POP PUSH1 0x40 SWAP1 SWAP5 ADD CALLDATALOAD SWAP4 SWAP3 POP POP POP JUMP JUMPDEST PUSH1 0x0 DUP1 PUSH1 0x0 DUP1 PUSH1 0x0 PUSH1 0xA0 DUP7 DUP9 SUB SLT ISZERO PUSH2 0x3ED2 JUMPI DUP3 DUP4 REVERT JUMPDEST PUSH2 0x3EDB DUP7 PUSH2 0x3BBD JUMP JUMPDEST SWAP5 POP PUSH1 0x20 DUP7 ADD CALLDATALOAD SWAP4 POP PUSH1 0x40 DUP7 ADD CALLDATALOAD SWAP3 POP PUSH1 0x60 DUP7 ADD CALLDATALOAD PUSH2 0x3EF9 DUP2 PUSH2 0x48FC JUMP JUMPDEST SWAP2 POP PUSH1 0x80 DUP7 ADD CALLDATALOAD DUP1 ISZERO ISZERO DUP2 EQ PUSH2 0x3F0D JUMPI DUP2 DUP3 REVERT JUMPDEST DUP1 SWAP2 POP POP SWAP3 SWAP6 POP SWAP3 SWAP6 SWAP1 SWAP4 POP JUMP JUMPDEST PUSH1 0x0 DUP1 PUSH1 0x40 DUP4 DUP6 SUB SLT ISZERO PUSH2 0x3F2D JUMPI DUP2 DUP3 REVERT JUMPDEST PUSH2 0x3F36 DUP4 PUSH2 0x3BBD JUMP JUMPDEST SWAP2 POP PUSH1 0x20 DUP4 ADD CALLDATALOAD PUSH4 0xFFFFFFFF DUP2 AND DUP2 EQ PUSH2 0x3E55 JUMPI DUP2 DUP3 REVERT JUMPDEST PUSH1 0x0 DUP1 PUSH1 0x40 DUP4 DUP6 SUB SLT ISZERO PUSH2 0x3F60 JUMPI DUP2 DUP3 REVERT JUMPDEST PUSH2 0x3F69 DUP4 PUSH2 0x3BBD JUMP JUMPDEST SWAP2 POP PUSH1 0x20 DUP4 ADD CALLDATALOAD PUSH5 0xFFFFFFFFFF DUP2 AND DUP2 EQ PUSH2 0x3E55 JUMPI DUP2 DUP3 REVERT JUMPDEST PUSH1 0x0 PUSH1 0x20 DUP3 DUP5 SUB SLT ISZERO PUSH2 0x3F93 JUMPI DUP1 DUP2 REVERT JUMPDEST POP CALLDATALOAD SWAP2 SWAP1 POP JUMP JUMPDEST PUSH1 0x0 DUP1 PUSH1 0x40 DUP4 DUP6 SUB SLT ISZERO PUSH2 0x3FAC JUMPI DUP2 DUP3 REVERT JUMPDEST POP POP DUP1 MLOAD PUSH1 0x20 SWAP1 SWAP2 ADD MLOAD SWAP1 SWAP3 SWAP1 SWAP2 POP JUMP JUMPDEST PUSH1 0x0 DUP1 PUSH1 0x0 DUP1 PUSH1 0x0 PUSH1 0xA0 DUP7 DUP9 SUB SLT ISZERO PUSH2 0x3FD4 JUMPI DUP3 DUP4 REVERT JUMPDEST PUSH2 0x3FDD DUP7 PUSH2 0x3BCF JUMP JUMPDEST SWAP5 POP PUSH1 0x20 DUP7 ADD MLOAD SWAP4 POP PUSH1 0x40 DUP7 ADD MLOAD SWAP3 POP PUSH1 0x60 DUP7 ADD MLOAD SWAP2 POP PUSH2 0x4000 PUSH1 0x80 DUP8 ADD PUSH2 0x3BCF JUMP JUMPDEST SWAP1 POP SWAP3 SWAP6 POP SWAP3 SWAP6 SWAP1 SWAP4 POP JUMP JUMPDEST PUSH1 0x0 DUP2 MLOAD DUP1 DUP5 MSTORE PUSH1 0x20 DUP1 DUP6 ADD SWAP5 POP DUP1 DUP5 ADD DUP4 JUMPDEST DUP4 DUP2 LT ISZERO PUSH2 0x403B JUMPI DUP2 MLOAD DUP8 MSTORE SWAP6 DUP3 ADD SWAP6 SWAP1 DUP3 ADD SWAP1 PUSH1 0x1 ADD PUSH2 0x401F JUMP JUMPDEST POP SWAP5 SWAP6 SWAP5 POP POP POP POP POP JUMP JUMPDEST PUSH1 0x0 DUP2 MLOAD DUP1 DUP5 MSTORE PUSH1 0x20 DUP1 DUP6 ADD SWAP5 POP DUP1 DUP5 ADD DUP4 JUMPDEST DUP4 DUP2 LT ISZERO PUSH2 0x403B JUMPI PUSH2 0x406C DUP8 DUP4 MLOAD PUSH2 0x422C JUMP JUMPDEST PUSH2 0x100 SWAP7 SWAP1 SWAP7 ADD SWAP6 SWAP1 DUP3 ADD SWAP1 PUSH1 0x1 ADD PUSH2 0x4059 JUMP JUMPDEST PUSH1 0x0 DUP2 MLOAD DUP1 DUP5 MSTORE PUSH1 0x20 DUP1 DUP6 ADD SWAP5 POP DUP1 DUP5 ADD DUP4 JUMPDEST DUP4 DUP2 LT ISZERO PUSH2 0x403B JUMPI DUP2 MLOAD DUP1 MLOAD PUSH2 0xFFFF AND DUP9 MSTORE DUP4 DUP2 ADD MLOAD DUP5 DUP10 ADD MSTORE PUSH1 0x40 DUP1 DUP3 ADD MLOAD SWAP1 DUP10 ADD MSTORE PUSH1 0x60 DUP1 DUP3 ADD MLOAD SWAP1 DUP10 ADD MSTORE PUSH1 0x80 DUP1 DUP3 ADD MLOAD SWAP1 DUP10 ADD MSTORE PUSH1 0xA0 SWAP1 DUP2 ADD MLOAD SWAP1 PUSH1 0x4 DUP3 LT PUSH2 0x40DC JUMPI INVALID JUMPDEST DUP9 ADD MSTORE PUSH1 0xC0 SWAP1 SWAP7 ADD SWAP6 SWAP1 DUP3 ADD SWAP1 PUSH1 0x1 ADD PUSH2 0x4093 JUMP JUMPDEST DUP1 MLOAD PUSH5 0xFFFFFFFFFF AND DUP3 MSTORE PUSH1 0x20 DUP1 DUP3 ADD MLOAD PUSH1 0x1 PUSH1 0x1 PUSH1 0xF8 SHL SUB NOT AND SWAP1 DUP4 ADD MSTORE PUSH1 0x40 DUP1 DUP3 ADD MLOAD PUSH1 0xFF AND SWAP1 DUP4 ADD MSTORE PUSH1 0x60 DUP1 DUP3 ADD MLOAD PUSH2 0xFFFF AND SWAP1 DUP4 ADD MSTORE PUSH1 0x80 DUP1 DUP3 ADD MLOAD PUSH1 0x1 PUSH1 0x1 PUSH1 0x70 SHL SUB NOT AND SWAP1 DUP4 ADD MSTORE PUSH1 0xA0 SWAP1 DUP2 ADD MLOAD ISZERO ISZERO SWAP2 ADD MSTORE JUMP JUMPDEST PUSH2 0x4157 DUP3 DUP3 MLOAD PUSH2 0x432F JUMP JUMPDEST PUSH1 0x20 DUP2 ADD MLOAD PUSH2 0x4169 PUSH1 0x20 DUP5 ADD DUP3 PUSH2 0x432F JUMP JUMPDEST POP PUSH1 0x40 DUP2 ADD MLOAD PUSH2 0x417C PUSH1 0x40 DUP5 ADD DUP3 PUSH2 0x432F JUMP JUMPDEST POP PUSH1 0x60 DUP2 ADD MLOAD PUSH2 0x418F PUSH1 0x60 DUP5 ADD DUP3 PUSH2 0x432F JUMP JUMPDEST POP PUSH1 0x80 DUP2 ADD MLOAD PUSH2 0x41A2 PUSH1 0x80 DUP5 ADD DUP3 PUSH2 0x432F JUMP JUMPDEST POP PUSH1 0xA0 DUP2 ADD MLOAD PUSH2 0x41B5 PUSH1 0xA0 DUP5 ADD DUP3 PUSH2 0x432F JUMP JUMPDEST POP PUSH1 0xC0 DUP2 ADD MLOAD PUSH2 0x41C8 PUSH1 0xC0 DUP5 ADD DUP3 PUSH2 0x432F JUMP JUMPDEST POP PUSH1 0xE0 DUP2 ADD MLOAD PUSH2 0x41DB PUSH1 0xE0 DUP5 ADD DUP3 PUSH2 0x432F JUMP JUMPDEST POP PUSH2 0x100 DUP1 DUP3 ADD MLOAD PUSH2 0x41EF DUP3 DUP6 ADD DUP3 PUSH2 0x432F JUMP JUMPDEST POP POP PUSH2 0x120 DUP1 DUP3 ADD MLOAD PUSH2 0x4204 DUP3 DUP6 ADD DUP3 PUSH2 0x432F JUMP JUMPDEST POP POP POP POP JUMP JUMPDEST DUP1 MLOAD PUSH1 0x1 PUSH1 0x1 PUSH1 0xA0 SHL SUB AND DUP3 MSTORE PUSH1 0x20 DUP1 DUP3 ADD MLOAD SWAP1 DUP4 ADD MSTORE PUSH1 0x40 SWAP1 DUP2 ADD MLOAD SWAP2 ADD MSTORE JUMP JUMPDEST DUP1 MLOAD DUP3 MSTORE PUSH1 0x20 DUP2 ADD MLOAD PUSH1 0x20 DUP4 ADD MSTORE PUSH1 0x40 DUP2 ADD MLOAD PUSH1 0x40 DUP4 ADD MSTORE PUSH1 0x60 DUP2 ADD MLOAD PUSH1 0x60 DUP4 ADD MSTORE PUSH1 0x80 DUP2 ADD MLOAD PUSH1 0x80 DUP4 ADD MSTORE PUSH1 0xA0 DUP2 ADD MLOAD PUSH1 0xA0 DUP4 ADD MSTORE PUSH1 0xC0 DUP2 ADD MLOAD PUSH1 0xC0 DUP4 ADD MSTORE PUSH1 0xE0 DUP2 ADD MLOAD PUSH1 0xE0 DUP4 ADD MSTORE POP POP JUMP JUMPDEST DUP1 MLOAD DUP3 MSTORE PUSH1 0x20 DUP2 ADD MLOAD PUSH1 0x20 DUP4 ADD MSTORE PUSH1 0x40 DUP2 ADD MLOAD PUSH1 0x40 DUP4 ADD MSTORE PUSH1 0x60 DUP2 ADD MLOAD PUSH1 0x60 DUP4 ADD MSTORE PUSH1 0x80 DUP2 ADD MLOAD PUSH1 0x80 DUP4 ADD MSTORE PUSH1 0xA0 DUP2 ADD MLOAD PUSH1 0xA0 DUP4 ADD MSTORE PUSH1 0xC0 DUP2 ADD MLOAD PUSH1 0xC0 DUP4 ADD MSTORE PUSH1 0xE0 DUP2 ADD MLOAD PUSH1 0xE0 DUP4 ADD MSTORE PUSH2 0x100 DUP1 DUP3 ADD MLOAD DUP2 DUP5 ADD MSTORE POP POP POP JUMP JUMPDEST DUP1 MLOAD DUP3 MSTORE PUSH1 0x20 DUP1 DUP3 ADD MLOAD SWAP1 DUP4 ADD MSTORE PUSH1 0x40 SWAP1 DUP2 ADD MLOAD SWAP2 ADD MSTORE JUMP JUMPDEST DUP1 MLOAD PUSH1 0x1 PUSH1 0x1 PUSH1 0xA0 SHL SUB AND DUP3 MSTORE PUSH1 0x20 DUP1 DUP3 ADD MLOAD ISZERO ISZERO SWAP1 DUP4 ADD MSTORE PUSH1 0x40 DUP1 DUP3 ADD MLOAD SWAP1 DUP4 ADD MSTORE PUSH1 0x60 DUP2 ADD MLOAD PUSH1 0x6 DUP2 LT PUSH2 0x431F JUMPI INVALID JUMPDEST PUSH1 0x60 DUP4 ADD MSTORE PUSH1 0x80 SWAP1 DUP2 ADD MLOAD SWAP2 ADD MSTORE JUMP JUMPDEST PUSH1 0xFF AND SWAP1 MSTORE JUMP JUMPDEST PUSH1 0x1 PUSH1 0x1 PUSH1 0xA0 SHL SUB SWAP2 SWAP1 SWAP2 AND DUP2 MSTORE PUSH1 0x20 ADD SWAP1 JUMP JUMPDEST PUSH1 0x1 PUSH1 0x1 PUSH1 0xA0 SHL SUB SWAP3 DUP4 AND DUP2 MSTORE SWAP2 AND PUSH1 0x20 DUP3 ADD MSTORE PUSH1 0x40 ADD SWAP1 JUMP JUMPDEST PUSH1 0x1 PUSH1 0x1 PUSH1 0xA0 SHL SUB SWAP5 SWAP1 SWAP5 AND DUP5 MSTORE PUSH1 0xFF SWAP3 SWAP1 SWAP3 AND PUSH1 0x20 DUP1 DUP6 ADD SWAP2 SWAP1 SWAP2 MSTORE PUSH2 0xFFFF SWAP2 SWAP1 SWAP2 AND PUSH1 0x40 DUP1 DUP6 ADD SWAP2 SWAP1 SWAP2 MSTORE DUP3 MLOAD PUSH1 0x1 PUSH1 0x1 PUSH1 0x80 SHL SUB AND PUSH1 0x60 DUP6 ADD MSTORE SWAP1 DUP3 ADD MLOAD PUSH5 0xFFFFFFFFFF SWAP1 DUP2 AND PUSH1 0x80 DUP6 ADD MSTORE SWAP2 ADD MLOAD AND PUSH1 0xA0 DUP3 ADD MSTORE PUSH1 0xC0 ADD SWAP1 JUMP JUMPDEST PUSH1 0x0 PUSH1 0x40 DUP3 MSTORE PUSH2 0x43D5 PUSH1 0x40 DUP4 ADD DUP6 PUSH2 0x400C JUMP JUMPDEST DUP3 DUP2 SUB PUSH1 0x20 DUP5 ADD MSTORE PUSH2 0xE2E DUP2 DUP6 PUSH2 0x400C JUMP JUMPDEST PUSH1 0x0 PUSH1 0x40 DUP3 MSTORE PUSH2 0x43FA PUSH1 0x40 DUP4 ADD DUP6 PUSH2 0x4046 JUMP JUMPDEST DUP3 DUP2 SUB PUSH1 0x20 DUP5 ADD MSTORE PUSH2 0xE2E DUP2 DUP6 PUSH2 0x4046 JUMP JUMPDEST PUSH1 0x20 DUP1 DUP3 MSTORE DUP3 MLOAD DUP3 DUP3 ADD DUP2 SWAP1 MSTORE PUSH1 0x0 SWAP2 SWAP1 DUP5 DUP3 ADD SWAP1 PUSH1 0x40 DUP6 ADD SWAP1 DUP5 JUMPDEST DUP2 DUP2 LT ISZERO PUSH2 0x444F JUMPI PUSH2 0x443B DUP4 DUP6 MLOAD PUSH2 0x422C JUMP JUMPDEST SWAP3 DUP5 ADD SWAP3 PUSH2 0x100 SWAP3 SWAP1 SWAP3 ADD SWAP2 PUSH1 0x1 ADD PUSH2 0x4428 JUMP JUMPDEST POP SWAP1 SWAP7 SWAP6 POP POP POP POP POP POP JUMP JUMPDEST PUSH1 0x0 PUSH1 0x20 DUP3 MSTORE PUSH2 0xE32 PUSH1 0x20 DUP4 ADD DUP5 PUSH2 0x4080 JUMP JUMPDEST PUSH1 0x0 PUSH1 0x40 DUP3 MSTORE PUSH2 0x4481 PUSH1 0x40 DUP4 ADD DUP6 PUSH2 0x4080 JUMP JUMPDEST DUP3 DUP2 SUB PUSH1 0x20 DUP5 ADD MSTORE PUSH2 0xE2E DUP2 DUP6 PUSH2 0x4080 JUMP JUMPDEST PUSH1 0x20 DUP1 DUP3 MSTORE DUP3 MLOAD DUP3 DUP3 ADD DUP2 SWAP1 MSTORE PUSH1 0x0 SWAP2 SWAP1 DUP5 DUP3 ADD SWAP1 PUSH1 0x40 DUP6 ADD SWAP1 DUP5 JUMPDEST DUP2 DUP2 LT ISZERO PUSH2 0x444F JUMPI DUP4 MLOAD DUP4 MSTORE SWAP3 DUP5 ADD SWAP3 SWAP2 DUP5 ADD SWAP2 PUSH1 0x1 ADD PUSH2 0x44AF JUMP JUMPDEST SWAP1 ISZERO ISZERO DUP2 MSTORE PUSH1 0x20 ADD SWAP1 JUMP JUMPDEST SWAP1 DUP2 MSTORE PUSH1 0x20 ADD SWAP1 JUMP JUMPDEST PUSH1 0x0 DUP4 DUP3 MSTORE PUSH1 0x40 PUSH1 0x20 DUP4 ADD MSTORE PUSH2 0xF71 PUSH1 0x40 DUP4 ADD DUP5 PUSH2 0x400C JUMP JUMPDEST SWAP3 DUP4 MSTORE PUSH1 0x20 DUP4 ADD SWAP2 SWAP1 SWAP2 MSTORE PUSH1 0x40 DUP3 ADD MSTORE PUSH1 0x60 ADD SWAP1 JUMP JUMPDEST PUSH1 0x20 DUP1 DUP3 MSTORE PUSH1 0x16 SWAP1 DUP3 ADD MSTORE PUSH22 0x4E6F206E546F6B656E20666F722063757272656E6379 PUSH1 0x50 SHL PUSH1 0x40 DUP3 ADD MSTORE PUSH1 0x60 ADD SWAP1 JUMP JUMPDEST PUSH1 0x20 DUP1 DUP3 MSTORE PUSH1 0xD SWAP1 DUP3 ADD MSTORE PUSH13 0x92DCECC2D8D2C840D2DCC8CAF PUSH1 0x9B SHL PUSH1 0x40 DUP3 ADD MSTORE PUSH1 0x60 ADD SWAP1 JUMP JUMPDEST PUSH1 0x20 DUP1 DUP3 MSTORE PUSH1 0xE SWAP1 DUP3 ADD MSTORE PUSH14 0x125B9D985B1A59081B585C9AD95D PUSH1 0x92 SHL PUSH1 0x40 DUP3 ADD MSTORE PUSH1 0x60 ADD SWAP1 JUMP JUMPDEST PUSH1 0x20 DUP1 DUP3 MSTORE PUSH1 0x10 SWAP1 DUP3 ADD MSTORE PUSH16 0x13595D1A1BD9081B9BDD08199BDD5B99 PUSH1 0x82 SHL PUSH1 0x40 DUP3 ADD MSTORE PUSH1 0x60 ADD SWAP1 JUMP JUMPDEST PUSH1 0x20 DUP1 DUP3 MSTORE PUSH1 0x13 SWAP1 DUP3 ADD MSTORE PUSH19 0x125B9D985B1A590818DD5C9C995B98DE481A59 PUSH1 0x6A SHL PUSH1 0x40 DUP3 ADD MSTORE PUSH1 0x60 ADD SWAP1 JUMP JUMPDEST PUSH1 0x20 DUP1 DUP3 MSTORE PUSH1 0x10 SWAP1 DUP3 ADD MSTORE PUSH16 0x151BDAD95B881B9BDD081B1A5CDD1959 PUSH1 0x82 SHL PUSH1 0x40 DUP3 ADD MSTORE PUSH1 0x60 ADD SWAP1 JUMP JUMPDEST PUSH1 0xC0 DUP2 ADD PUSH2 0xB93 DUP3 DUP5 PUSH2 0x40F1 JUMP JUMPDEST PUSH1 0x0 PUSH2 0x100 DUP1 DUP4 ADD PUSH2 0x462E DUP5 DUP9 PUSH2 0x40F1 JUMP JUMPDEST PUSH1 0xC0 DUP5 ADD SWAP2 SWAP1 SWAP2 MSTORE DUP5 MLOAD SWAP1 DUP2 SWAP1 MSTORE PUSH2 0x120 DUP4 ADD SWAP1 PUSH1 0x20 SWAP1 DUP2 DUP8 ADD DUP5 JUMPDEST DUP3 DUP2 LT ISZERO PUSH2 0x4694 JUMPI DUP2 MLOAD DUP1 MLOAD PUSH2 0xFFFF AND DUP7 MSTORE DUP5 DUP2 ADD MLOAD DUP6 DUP8 ADD MSTORE PUSH1 0x40 DUP1 DUP3 ADD MLOAD SWAP1 DUP8 ADD MSTORE PUSH1 0x60 DUP1 DUP3 ADD MLOAD SWAP1 DUP8 ADD MSTORE PUSH1 0x80 SWAP1 DUP2 ADD MLOAD SWAP1 DUP7 ADD MSTORE PUSH1 0xA0 SWAP1 SWAP5 ADD SWAP4 SWAP1 DUP4 ADD SWAP1 PUSH1 0x1 ADD PUSH2 0x464A JUMP JUMPDEST POP POP POP POP DUP3 DUP2 SUB PUSH1 0xE0 DUP5 ADD MSTORE PUSH2 0x125B DUP2 DUP6 PUSH2 0x4080 JUMP JUMPDEST PUSH2 0x140 DUP2 ADD PUSH2 0xB93 DUP3 DUP5 PUSH2 0x414C JUMP JUMPDEST PUSH2 0x1A0 DUP2 ADD PUSH2 0x46C8 DUP3 DUP6 PUSH2 0x414C JUMP JUMPDEST PUSH2 0xE32 PUSH2 0x140 DUP4 ADD DUP5 PUSH2 0x420A JUMP JUMPDEST PUSH1 0x0 PUSH2 0x100 DUP3 ADD SWAP1 POP PUSH1 0x1 DUP1 PUSH1 0xA0 SHL SUB DUP1 DUP6 MLOAD AND DUP4 MSTORE PUSH1 0xFF PUSH1 0x20 DUP7 ADD MLOAD AND PUSH1 0x20 DUP5 ADD MSTORE PUSH1 0x40 DUP6 ADD MLOAD ISZERO ISZERO PUSH1 0x40 DUP5 ADD MSTORE PUSH1 0xFF PUSH1 0x60 DUP7 ADD MLOAD AND PUSH1 0x60 DUP5 ADD MSTORE PUSH1 0xFF PUSH1 0x80 DUP7 ADD MLOAD AND PUSH1 0x80 DUP5 ADD MSTORE PUSH1 0xFF PUSH1 0xA0 DUP7 ADD MLOAD AND PUSH1 0xA0 DUP5 ADD MSTORE DUP1 DUP5 MLOAD AND PUSH1 0xC0 DUP5 ADD MSTORE POP PUSH1 0xFF PUSH1 0x20 DUP5 ADD MLOAD AND PUSH1 0xE0 DUP4 ADD MSTORE SWAP4 SWAP3 POP POP POP JUMP JUMPDEST PUSH2 0x100 DUP2 ADD PUSH2 0xB93 DUP3 DUP5 PUSH2 0x422C JUMP JUMPDEST PUSH2 0x120 DUP2 ADD PUSH2 0xB93 DUP3 DUP5 PUSH2 0x427A JUMP JUMPDEST PUSH1 0x60 DUP2 ADD PUSH2 0xB93 DUP3 DUP5 PUSH2 0x42D4 JUMP JUMPDEST PUSH2 0x200 DUP2 ADD PUSH2 0x4785 DUP3 DUP10 PUSH2 0x42D4 JUMP JUMPDEST PUSH2 0x4792 PUSH1 0x60 DUP4 ADD DUP9 PUSH2 0x427A JUMP JUMPDEST DUP6 PUSH2 0x180 DUP4 ADD MSTORE DUP5 PUSH2 0x1A0 DUP4 ADD MSTORE DUP4 PUSH2 0x1C0 DUP4 ADD MSTORE DUP3 PUSH2 0x1E0 DUP4 ADD MSTORE SWAP8 SWAP7 POP POP POP POP POP POP POP JUMP JUMPDEST PUSH2 0x140 DUP2 ADD PUSH2 0x47C8 DUP3 DUP6 PUSH2 0x42ED JUMP JUMPDEST PUSH2 0xE32 PUSH1 0xA0 DUP4 ADD DUP5 PUSH2 0x42ED JUMP JUMPDEST PUSH2 0x240 DUP2 ADD PUSH2 0x47E4 DUP3 DUP8 PUSH2 0x42ED JUMP JUMPDEST PUSH2 0x47F1 PUSH1 0xA0 DUP4 ADD DUP7 PUSH2 0x42ED JUMP JUMPDEST DUP4 MLOAD PUSH2 0x140 DUP4 ADD MSTORE PUSH1 0x20 DUP5 ADD MLOAD PUSH2 0x160 DUP4 ADD MSTORE PUSH1 0x40 DUP5 ADD MLOAD PUSH2 0x180 DUP4 ADD MSTORE PUSH1 0x60 DUP5 ADD MLOAD PUSH2 0x1A0 DUP4 ADD MSTORE PUSH1 0x80 DUP5 ADD MLOAD PUSH2 0x1C0 DUP4 ADD MSTORE PUSH2 0x1295 PUSH2 0x1E0 DUP4 ADD DUP5 PUSH2 0x420A JUMP JUMPDEST PUSH2 0xFFFF SWAP2 SWAP1 SWAP2 AND DUP2 MSTORE PUSH1 0x20 ADD SWAP1 JUMP JUMPDEST PUSH2 0xFFFF SWAP6 SWAP1 SWAP6 AND DUP6 MSTORE PUSH1 0x20 DUP6 ADD SWAP4 SWAP1 SWAP4 MSTORE PUSH1 0x40 DUP5 ADD SWAP2 SWAP1 SWAP2 MSTORE PUSH1 0x1 PUSH1 0x1 PUSH1 0xA0 SHL SUB AND PUSH1 0x60 DUP4 ADD MSTORE ISZERO ISZERO PUSH1 0x80 DUP3 ADD MSTORE PUSH1 0xA0 ADD SWAP1 JUMP JUMPDEST PUSH2 0xFFFF SWAP9 SWAP1 SWAP9 AND DUP9 MSTORE PUSH1 0x20 DUP9 ADD SWAP7 SWAP1 SWAP7 MSTORE PUSH1 0x40 DUP8 ADD SWAP5 SWAP1 SWAP5 MSTORE PUSH1 0x60 DUP7 ADD SWAP3 SWAP1 SWAP3 MSTORE PUSH1 0x1 PUSH1 0x1 PUSH1 0xD0 SHL SUB NOT AND PUSH1 0x80 DUP6 ADD MSTORE PUSH1 0xA0 DUP5 ADD MSTORE PUSH1 0xC0 DUP4 ADD MSTORE PUSH1 0xE0 DUP3 ADD MSTORE PUSH2 0x100 ADD SWAP1 JUMP JUMPDEST PUSH1 0x40 MLOAD DUP2 DUP2 ADD PUSH1 0x1 PUSH1 0x1 PUSH1 0x40 SHL SUB DUP2 GT DUP3 DUP3 LT OR ISZERO PUSH2 0x48D7 JUMPI INVALID JUMPDEST PUSH1 0x40 MSTORE SWAP2 SWAP1 POP JUMP JUMPDEST PUSH1 0x0 PUSH1 0x1 PUSH1 0x1 PUSH1 0x40 SHL SUB DUP3 GT ISZERO PUSH2 0x48F2 JUMPI INVALID JUMPDEST POP PUSH1 0x20 SWAP1 DUP2 MUL ADD SWAP1 JUMP JUMPDEST PUSH1 0x1 PUSH1 0x1 PUSH1 0xA0 SHL SUB DUP2 AND DUP2 EQ PUSH2 0x1608 JUMPI PUSH1 0x0 DUP1 REVERT INVALID LOG2 PUSH5 0x6970667358 0x22 SLT KECCAK256 0xAA SWAP3 0x5D 0xE9 DELEGATECALL 0xB2 CHAINID 0xF9 DUP8 0x2C PUSH27 0x26B1D30CCC57A3DB9A0FB191C1E2C04989C92F5CA864736F6C6343 STOP SMOD MOD STOP CALLER ","sha1":"5e2cb44b524374816b6af08e52f7af8b739f0f1a","source":"// SPDX-License-Identifier: BSUL-1.1\npragma solidity =0.7.6;\npragma abicoder v2;\n\nimport {\n    PrimeRate,\n    ETHRate,\n    Token,\n    CashGroupParameters,\n    MarketParameters,\n    BalanceState,\n    AccountContext,\n    nTokenPortfolio,\n    ETHRateStorage,\n    AssetRateStorage,\n    CashGroupSettings,\n    InterestRateParameters,\n    PrimeCashFactors,\n    PortfolioAsset,\n    AccountBalance,\n    BalanceStorage,\n    Deprecated_AssetRateParameters,\n    RebalancingContextStorage,\n    RebalancingTargetData,\n    TotalfCashDebtStorage\n} from \"../global/Types.sol\";\nimport {SafeUint256} from \"../math/SafeUint256.sol\";\nimport {SafeInt256} from \"../math/SafeInt256.sol\";\nimport {LibStorage} from \"../global/LibStorage.sol\";\nimport {StorageLayoutV2} from \"../global/StorageLayoutV2.sol\";\nimport {Deployments} from \"../global/Deployments.sol\";\nimport {Constants} from \"../global/Constants.sol\";\n\nimport {ExchangeRate} from \"../internal/valuation/ExchangeRate.sol\";\nimport {CashGroup} from \"../internal/markets/CashGroup.sol\";\nimport {Market} from \"../internal/markets/Market.sol\";\nimport {InterestRateCurve} from \"../internal/markets/InterestRateCurve.sol\";\nimport {DeprecatedAssetRate} from \"../internal/markets/DeprecatedAssetRate.sol\";\nimport {nTokenHandler} from \"../internal/nToken/nTokenHandler.sol\";\nimport {nTokenSupply} from \"../internal/nToken/nTokenSupply.sol\";\nimport {PrimeRateLib} from \"../internal/pCash/PrimeRateLib.sol\";\nimport {PrimeSupplyCap} from \"../internal/pCash/PrimeSupplyCap.sol\";\nimport {PrimeCashExchangeRate} from \"../internal/pCash/PrimeCashExchangeRate.sol\";\nimport {TokenHandler} from \"../internal/balances/TokenHandler.sol\";\nimport {BalanceHandler} from \"../internal/balances/BalanceHandler.sol\";\nimport {PortfolioHandler} from \"../internal/portfolio/PortfolioHandler.sol\";\nimport {BitmapAssetsHandler} from \"../internal/portfolio/BitmapAssetsHandler.sol\";\nimport {AccountContextHandler} from \"../internal/AccountContextHandler.sol\";\nimport {Emitter} from \"../internal/Emitter.sol\";\n\nimport {NotionalViews} from \"../../interfaces/notional/NotionalViews.sol\";\nimport {NotionalTreasury} from \"../../interfaces/notional/NotionalTreasury.sol\";\nimport {IPrimeCashHoldingsOracle} from \"../../interfaces/notional/IPrimeCashHoldingsOracle.sol\";\nimport {FreeCollateralExternal} from \"./FreeCollateralExternal.sol\";\n\ncontract Views is StorageLayoutV2, NotionalViews {\n    using CashGroup for CashGroupParameters;\n    using TokenHandler for Token;\n    using Market for MarketParameters;\n    using PrimeRateLib for PrimeRate;\n    using PrimeSupplyCap for PrimeRate;\n    using SafeInt256 for int256;\n    using SafeUint256 for uint256;\n    using BalanceHandler for BalanceState;\n    using nTokenHandler for nTokenPortfolio;\n    using AccountContextHandler for AccountContext;\n\n    function _checkValidCurrency(uint16 currencyId) internal view {\n        require(0 < currencyId && currencyId <= maxCurrencyId, \"Invalid currency id\");\n    }\n\n    /** Governance Parameter Getters **/\n\n    /// @notice Returns the current maximum currency id\n    function getMaxCurrencyId() external view override returns (uint16) {\n        return maxCurrencyId;\n    }\n\n    /// @notice Returns a currency id, a zero means that it is not listed.\n    function getCurrencyId(address tokenAddress)\n        external\n        view\n        override\n        returns (uint16 currencyId)\n    {\n        currencyId = tokenAddressToCurrencyId[tokenAddress];\n        require(currencyId != 0, \"Token not listed\");\n    }\n\n    /// @notice Returns the asset token and underlying token related to a given currency id. If underlying\n    /// token is not set then will return the zero address\n    function getCurrency(uint16 currencyId)\n        external\n        view\n        override\n        returns (Token memory assetToken, Token memory underlyingToken)\n    {\n        _checkValidCurrency(currencyId);\n        assetToken = TokenHandler.getDeprecatedAssetToken(currencyId);\n        underlyingToken = TokenHandler.getUnderlyingToken(currencyId);\n    }\n\n    /// @notice Returns the ETH and Asset rates for a currency as stored, useful for viewing how they are configured\n    function getRateStorage(uint16 currencyId)\n        external\n        view\n        override\n        returns (ETHRateStorage memory ethRate, AssetRateStorage memory assetRate)\n    {\n        _checkValidCurrency(currencyId);\n        mapping(uint256 => ETHRateStorage) storage ethStore = LibStorage.getExchangeRateStorage();\n        mapping(uint256 => AssetRateStorage) storage assetStore = LibStorage.getAssetRateStorage_deprecated();\n        ethRate = ethStore[currencyId];\n        assetRate = assetStore[currencyId];\n    }\n\n    /// @notice Returns a currency and its corresponding asset rate and ETH exchange rates. Note that this does not recalculate\n    /// cToken interest rates, it only retrieves the latest stored rate.\n    function getCurrencyAndRates(uint16 currencyId)\n        external\n        view\n        override\n        returns (\n            Token memory assetToken,\n            Token memory underlyingToken,\n            ETHRate memory ethRate,\n            Deprecated_AssetRateParameters memory assetRate\n        )\n    {\n        _checkValidCurrency(currencyId);\n        assetToken = TokenHandler.getDeprecatedAssetToken(currencyId);\n        underlyingToken = TokenHandler.getUnderlyingToken(currencyId);\n        ethRate = ExchangeRate.buildExchangeRate(currencyId);\n        assetRate = DeprecatedAssetRate.getAdaptedAssetRate(currencyId);\n    }\n\n    /// @notice Returns cash group settings for a currency\n    function getCashGroup(uint16 currencyId)\n        external\n        view\n        override\n        returns (CashGroupSettings memory)\n    {\n        _checkValidCurrency(currencyId);\n        return CashGroup.deserializeCashGroupStorage(currencyId);\n    }\n\n    /// @notice Returns the cash group along with the asset rate for convenience.\n    function getCashGroupAndAssetRate(uint16 currencyId)\n        external\n        view\n        override\n        returns (CashGroupSettings memory cashGroup, Deprecated_AssetRateParameters memory assetRate)\n    {\n        _checkValidCurrency(currencyId);\n        cashGroup = CashGroup.deserializeCashGroupStorage(currencyId);\n        assetRate = DeprecatedAssetRate.getAdaptedAssetRate(currencyId);\n    }\n\n    /// @notice Returns market initialization parameters for a given currency\n    function getInitializationParameters(uint16 currencyId)\n        external view override returns (\n            int256[] memory deprecated_annualizedAnchorRates,\n            int256[] memory proportions\n        ) {\n        _checkValidCurrency(currencyId);\n        uint256 maxMarketIndex = CashGroup.getMaxMarketIndex(currencyId);\n        proportions = nTokenHandler.getInitializationParameters(\n            currencyId,\n            maxMarketIndex\n        );\n\n        return (deprecated_annualizedAnchorRates, proportions);\n    }\n\n    /// @notice Returns nToken deposit parameters for a given currency\n    function getDepositParameters(uint16 currencyId)\n        external\n        view\n        override\n        returns (int256[] memory depositShares, int256[] memory leverageThresholds)\n    {\n        _checkValidCurrency(currencyId);\n        uint256 maxMarketIndex = CashGroup.getMaxMarketIndex(currencyId);\n        (depositShares, leverageThresholds) = nTokenHandler.getDepositParameters(\n            currencyId,\n            maxMarketIndex\n        );\n    }\n\n    function getInterestRateCurve(uint16 currencyId) external view override returns (\n        InterestRateParameters[] memory nextInterestRateCurve,\n        InterestRateParameters[] memory activeInterestRateCurve\n    ) {\n        _checkValidCurrency(currencyId);\n        uint256 maxMarketIndex = CashGroup.getMaxMarketIndex(currencyId);\n        // If no markets are listed, just exit\n        if (maxMarketIndex == 0) return (nextInterestRateCurve, activeInterestRateCurve);\n\n        nextInterestRateCurve = new InterestRateParameters[](maxMarketIndex);\n        activeInterestRateCurve = new InterestRateParameters[](maxMarketIndex);\n\n        for (uint256 i = 1; i <= maxMarketIndex; i++) {\n            nextInterestRateCurve[i - 1] = InterestRateCurve\n                .getNextInterestRateParameters(currencyId, i);\n            activeInterestRateCurve[i - 1] = InterestRateCurve\n                .getActiveInterestRateParameters(currencyId, i);\n        }\n    }\n\n    /// @notice Returns nToken address for a given currency\n    function nTokenAddress(uint16 currencyId) external view override returns (address) {\n        _checkValidCurrency(currencyId);\n        address nToken = nTokenHandler.nTokenAddress(currencyId);\n        require(nToken != address(0), \"No nToken for currency\");\n        return nToken;\n    }\n\n    /// @notice Returns pCash address for a given currency\n    function pCashAddress(uint16 currencyId) external view override returns (address) {\n        _checkValidCurrency(currencyId);\n        return PrimeCashExchangeRate.getCashProxyAddress(currencyId);\n    }\n\n    function pDebtAddress(uint16 currencyId) external view override returns (address) {\n        _checkValidCurrency(currencyId);\n        return PrimeCashExchangeRate.getDebtProxyAddress(currencyId);\n    }\n\n    /// @notice Returns address of the NOTE token\n    function getNoteToken() external pure override returns (address) {\n        return Deployments.NOTE_TOKEN_ADDRESS;\n    }\n\n    /// @notice Returns current ownership status of the contract\n    /// @return owner is the current owner of the Notional system\n    /// @return pendingOwner can claim ownership from the owner\n    function getOwnershipStatus() external view override returns (address, address) {\n        return (owner, pendingOwner);\n    }\n\n    function getGlobalTransferOperatorStatus(address operator) external view override returns (bool isAuthorized) {\n        return globalTransferOperator[operator];\n    }\n\n    function getAuthorizedCallbackContractStatus(address callback) external view override returns (bool isAuthorized) {\n        return authorizedCallbackContract[callback];\n    }\n\n    function getSecondaryIncentiveRewarder(uint16 currencyId) external view override returns (address rewarder) {\n        address tokenAddress = nTokenHandler.nTokenAddress(currencyId);\n        return address(nTokenHandler.getSecondaryRewarder(tokenAddress));\n    }\n\n    /** Global System State View Methods **/\n    function getPrimeFactors(\n        uint16 currencyId,\n        uint256 blockTime\n    ) external view override returns (\n        PrimeRate memory pr,\n        PrimeCashFactors memory factors,\n        uint256 maxUnderlyingSupply,\n        uint256 totalUnderlyingSupply,\n        uint256 maxUnderlyingDebt,\n        uint256 totalUnderlyingDebt\n    ) {\n        (pr, factors) = PrimeCashExchangeRate.getPrimeCashRateView(currencyId, blockTime);\n        (\n            maxUnderlyingSupply,\n            totalUnderlyingSupply,\n            maxUnderlyingDebt,\n            totalUnderlyingDebt\n        ) = pr.getSupplyCap(currencyId);\n    }\n\n    function getPrimeFactorsStored(\n        uint16 currencyId\n    ) external view override returns (PrimeCashFactors memory) {\n        return PrimeCashExchangeRate.getPrimeCashFactors(currencyId);\n    }\n\n    function getPrimeCashHoldingsOracle(uint16 currencyId) external view override returns (address) {\n        return address(PrimeCashExchangeRate.getPrimeCashHoldingsOracle(currencyId));\n    }\n\n    function getPrimeInterestRateCurve(uint16 currencyId) external view override returns (\n        InterestRateParameters memory\n    ) {\n        return InterestRateCurve.getPrimeCashInterestRateParameters(currencyId);\n    }\n\n    function getPrimeInterestRate(uint16 currencyId) external view override returns (\n        uint256 annualDebtRatePreFee,\n        uint256 annualDebtRatePostFee,\n        uint256 annualSupplyRate\n    ) {\n        return PrimeCashExchangeRate.getPrimeInterestRates(\n            currencyId,\n            PrimeCashExchangeRate.getPrimeCashFactors(currencyId)\n       );\n    }\n\n    function getTotalfCashDebtOutstanding(\n        uint16 currencyId, uint256 maturity\n    ) external view override returns (\n        int256 totalfCashDebt,\n        int256 fCashDebtHeldInSettlementReserve,\n        int256 primeCashHeldInSettlementReserve\n    ) {\n        mapping(uint256 => mapping(uint256 => TotalfCashDebtStorage)) storage store = LibStorage.getTotalfCashDebtOutstanding();\n        TotalfCashDebtStorage storage s = store[currencyId][maturity];\n        totalfCashDebt =  -int256(s.totalfCashDebt);\n        fCashDebtHeldInSettlementReserve =  -int256(s.fCashDebtHeldInSettlementReserve);\n        primeCashHeldInSettlementReserve = int256(s.primeCashHeldInSettlementReserve);\n    }\n\n    /// @notice Returns the asset settlement rate for a given maturity\n    function getSettlementRate(uint16 currencyId, uint40 maturity)\n        external view override returns (PrimeRate memory) {\n        _checkValidCurrency(currencyId);\n        return PrimeRateLib.buildPrimeRateSettlementView(\n            currencyId, maturity, block.timestamp\n        );\n    }\n\n    /// @notice Returns a single market\n    function getMarket(\n        uint16 currencyId,\n        uint256 maturity,\n        uint256 settlementDate\n    )\n        external\n        view\n        override\n        returns (MarketParameters memory)\n    {\n        _checkValidCurrency(currencyId);\n        CashGroupParameters memory cashGroup = CashGroup.buildCashGroupView(currencyId);\n        MarketParameters memory market;\n        market.loadMarketWithSettlementDate(\n            currencyId,\n            maturity,\n            block.timestamp,\n            true,\n            cashGroup.getRateOracleTimeWindow(),\n            settlementDate\n        );\n\n        return market;\n    }\n\n    /// @notice Returns all currently active markets for a currency\n    function getActiveMarkets(uint16 currencyId)\n        external\n        view\n        override\n        returns (MarketParameters[] memory)\n    {\n        _checkValidCurrency(currencyId);\n        return _getActiveMarketsAtBlockTime(currencyId, block.timestamp);\n    }\n\n    /// @notice Returns all active markets for a currency at the specified block time, useful for looking\n    /// at historical markets\n    function getActiveMarketsAtBlockTime(uint16 currencyId, uint32 blockTime)\n        external\n        view\n        override\n        returns (MarketParameters[] memory)\n    {\n        _checkValidCurrency(currencyId);\n        return _getActiveMarketsAtBlockTime(currencyId, blockTime);\n    }\n\n    function _getActiveMarketsAtBlockTime(uint16 currencyId, uint256 blockTime)\n        internal\n        view\n        returns (MarketParameters[] memory)\n    {\n        CashGroupParameters memory cashGroup = CashGroup.buildCashGroupView(currencyId);\n        MarketParameters[] memory markets = new MarketParameters[](cashGroup.maxMarketIndex);\n\n        for (uint256 i = 0; i < cashGroup.maxMarketIndex; i++) {\n            cashGroup.loadMarket(markets[i], i + 1, true, blockTime);\n        }\n\n        return markets;\n    }\n\n    /// @notice Returns the current reserve balance for a currency\n    function getReserveBalance(uint16 currencyId)\n        external\n        view\n        override\n        returns (int256 reserveBalance)\n    {\n        _checkValidCurrency(currencyId);\n        reserveBalance = BalanceHandler.getPositiveCashBalance(Constants.FEE_RESERVE, currencyId);\n    }\n\n    function getNTokenPortfolio(address tokenAddress)\n        external\n        view\n        override\n        returns (PortfolioAsset[] memory liquidityTokens, PortfolioAsset[] memory netfCashAssets)\n    {\n        // prettier-ignore\n        (\n            uint16 currencyId,\n            /* incentiveRate */,\n            uint256 lastInitializedTime,\n            uint8 assetArrayLength,\n            /* bytes5 parameters */\n        ) = nTokenHandler.getNTokenContext(tokenAddress);\n\n        liquidityTokens = PortfolioHandler.getSortedPortfolio(tokenAddress, assetArrayLength);\n\n        netfCashAssets = BitmapAssetsHandler.getifCashArray(\n            tokenAddress,\n            currencyId,\n            lastInitializedTime\n        );\n    }\n\n    function getNTokenAccount(address tokenAddress)\n        external\n        view\n        override\n        returns (\n            uint16 currencyId,\n            uint256 totalSupply,\n            uint256 incentiveAnnualEmissionRate,\n            uint256 lastInitializedTime,\n            // NOTE: changing the number of bytes returned by nTokenParameters will not break ABI\n            // decoding since abi encoding is not packed. This method will always return bytes32\n            // and the calling function will truncate that down to the number of bytes specified here.\n            bytes6 nTokenParameters,\n            int256 cashBalance,\n            uint256 accumulatedNOTEPerNToken,\n            uint256 lastAccumulatedTime\n        )\n    {\n        (\n            currencyId,\n            incentiveAnnualEmissionRate,\n            lastInitializedTime,\n            /* assetArrayLength */,\n            nTokenParameters\n        ) = nTokenHandler.getNTokenContext(tokenAddress);\n\n        // prettier-ignore\n        (\n            totalSupply,\n            accumulatedNOTEPerNToken,\n            lastAccumulatedTime\n        ) = nTokenSupply.getStoredNTokenSupplyFactors(tokenAddress);\n\n        // prettier-ignore\n        (\n            cashBalance,\n            /* */,\n            /* */,\n            /* */\n        ) = BalanceHandler.getBalanceStorageView(tokenAddress, currencyId, block.timestamp);\n    }\n\n    /** Account Specific View Methods **/\n\n    /// @notice Returns all account details in a single view\n    function getAccount(address account)\n        external\n        view\n        override\n        returns (\n            AccountContext memory accountContext,\n            AccountBalance[] memory accountBalances,\n            PortfolioAsset[] memory portfolio\n        )\n    {\n        accountContext = AccountContextHandler.getAccountContext(account);\n        accountBalances = new AccountBalance[](10);\n\n        uint256 i = 0;\n        if (accountContext.isBitmapEnabled()) {\n            AccountBalance memory b = accountBalances[0];\n            b.currencyId = accountContext.bitmapCurrencyId;\n            (\n                b.cashBalance,\n                b.nTokenBalance,\n                b.lastClaimTime,\n                b.accountIncentiveDebt\n            ) = BalanceHandler.getBalanceStorageView(account, accountContext.bitmapCurrencyId, block.timestamp);\n            i += 1;\n        }\n\n        bytes18 currencies = accountContext.activeCurrencies;\n        while (currencies != 0) {\n            AccountBalance memory b = accountBalances[i];\n            b.currencyId = uint16(bytes2(currencies) & Constants.UNMASK_FLAGS);\n            if (b.currencyId == 0) break;\n\n            (\n                b.cashBalance,\n                b.nTokenBalance,\n                b.lastClaimTime,\n                b.accountIncentiveDebt\n            ) = BalanceHandler.getBalanceStorageView(account, b.currencyId, block.timestamp);\n            i += 1;\n            currencies = currencies << 16;\n        }\n\n        if (accountContext.isBitmapEnabled()) {\n            portfolio = BitmapAssetsHandler.getifCashArray(\n                account,\n                accountContext.bitmapCurrencyId,\n                accountContext.nextSettleTime\n            );\n        } else {\n            portfolio = PortfolioHandler.getSortedPortfolio(\n                account,\n                accountContext.assetArrayLength\n            );\n        }\n    }\n\n    /// @notice Returns account context\n    function getAccountContext(address account) external view override returns (AccountContext memory) {\n        return AccountContextHandler.getAccountContext(account);\n    }\n\n    function getAccountPrimeDebtBalance(uint16 currencyId, address account) external view override returns (\n        int256 debtBalance\n    ) {\n        mapping(address => mapping(uint256 => BalanceStorage)) storage store = LibStorage.getBalanceStorage();\n        BalanceStorage storage balanceStorage = store[account][currencyId];\n        int256 cashBalance = balanceStorage.cashBalance;\n\n        // Only return cash balances less than zero\n        debtBalance = cashBalance < 0 ? cashBalance : 0;\n    }\n\n    /// @notice Returns account balances for a given currency\n    function getAccountBalance(uint16 currencyId, address account) external view override returns (\n        int256 cashBalance,\n        int256 nTokenBalance,\n        uint256 lastClaimTime\n    ) {\n        _checkValidCurrency(currencyId);\n        // prettier-ignore\n        (\n            cashBalance,\n            nTokenBalance,\n            lastClaimTime,\n            /* */\n        ) = BalanceHandler.getBalanceStorageView(account, currencyId, block.timestamp);\n    }\n\n    /// @notice Returns the balance of figure for prime cash for the prime cash proxy, the logic is slightly modified\n    /// for the nToken account because it needs to return the sum of all cash held in markets.\n    function getBalanceOfPrimeCash(\n        uint16 currencyId,\n        address account\n    ) external view override returns (int256 cashBalance) {\n        (cashBalance, /* */, /* */, /* */) = BalanceHandler.getBalanceStorageView(account, currencyId, block.timestamp);\n\n        if (account == nTokenHandler.nTokenAddress(currencyId)) {\n            MarketParameters[] memory markets = _getActiveMarketsAtBlockTime(currencyId, block.timestamp);\n            for (uint256 i; i < markets.length; i++) cashBalance = cashBalance.add(markets[i].totalPrimeCash);\n        }\n    }\n\n    /// @notice Returns account portfolio of assets\n    function getAccountPortfolio(address account) external view override returns (PortfolioAsset[] memory) {\n        AccountContext memory accountContext = AccountContextHandler.getAccountContext(account);\n        if (accountContext.isBitmapEnabled()) {\n            return\n                BitmapAssetsHandler.getifCashArray(\n                    account,\n                    accountContext.bitmapCurrencyId,\n                    accountContext.nextSettleTime\n                );\n        } else {\n            return PortfolioHandler.getSortedPortfolio(account, accountContext.assetArrayLength);\n        }\n    }\n\n    /// @notice Returns the fCash amount at the specified maturity for a bitmapped portfolio\n    function getfCashNotional(address account, uint16 currencyId, uint256 maturity) external view override returns (int256) {\n        _checkValidCurrency(currencyId);\n        return BitmapAssetsHandler.getifCashNotional(account, currencyId, maturity);\n    }\n\n    /// @notice Returns the assets bitmap for an account\n    function getAssetsBitmap(address account, uint16 currencyId) external view override returns (bytes32) {\n        _checkValidCurrency(currencyId);\n        return BitmapAssetsHandler.getAssetsBitmap(account, currencyId);\n    }\n\n    /// @notice Returns free collateral of an account along with an array of the individual net available\n    /// asset cash amounts\n    function getFreeCollateral(address account) external view override returns (int256, int256[] memory) {\n        return FreeCollateralExternal.getFreeCollateralView(account);\n    }\n\n    /// @notice Returns the current treasury manager contract\n    function getTreasuryManager() external view override returns (address) {\n        return treasuryManagerContract;\n    }\n\n    /// @notice Returns the current reserve buffer for a currency\n    /// @param currencyId refers to the currency of the reserve\n    function getReserveBuffer(uint16 currencyId) external view override returns (uint256) {\n        return reserveBuffer[currencyId];\n    }\n\n    function getRebalancingFactors(uint16 currencyId)\n        external\n        view\n        override\n        returns (address holding, uint8 target, uint16 externalWithdrawThreshold, RebalancingContextStorage memory context)\n    {\n        IPrimeCashHoldingsOracle oracle = PrimeCashExchangeRate.getPrimeCashHoldingsOracle(currencyId);\n\n        holding = oracle.holdings()[0];\n        context = LibStorage.getRebalancingContext()[currencyId];\n\n        RebalancingTargetData storage rebalancingTargetData = LibStorage.getRebalancingTargets()[currencyId][holding];\n        target = rebalancingTargetData.targetUtilization;\n        externalWithdrawThreshold = rebalancingTargetData.externalWithdrawThreshold;\n    }\n\n    function getStoredTokenBalances(address[] calldata tokens) external view override returns (uint256[] memory balances) {\n        mapping(address => uint256) storage store = LibStorage.getStoredTokenBalances();\n        balances = new uint256[](tokens.length);\n        for (uint256 i; i < tokens.length; ++i) {\n            balances[i] = store[tokens[i]];\n        }\n    }\n\n    function decodeERC1155Id(uint256 id) external pure override returns (\n        uint16 currencyId,\n        uint256 maturity,\n        uint256 assetType,\n        address vaultAddress,\n        bool isfCashDebt\n    ) {\n        return Emitter.decodeId(id);\n    }\n\n    // Encodes an ERC1155 id\n    function encode(\n        uint16 currencyId,\n        uint256 maturity,\n        uint256 assetType,\n        address vaultAddress,\n        bool isfCashDebt\n    ) external pure override returns (uint256) {\n        return Emitter.encodeId(currencyId, maturity, assetType, vaultAddress, isfCashDebt);\n    }\n\n    /// @notice Get a list of deployed library addresses (sorted by library name)\n    function getLibInfo() external pure returns (address) {\n        return (address(FreeCollateralExternal));\n    }\n\n    fallback() external {\n        revert(\"Method not found\");\n    }\n}","sourcePath":"contracts/external/Views.sol","type":"contract","deployment":{"address":"0x54BB219281Fe0EeF1483bc4421e6502Fe1e30A97","chainid":"1","blockHeight":19302065}}