{"abi":[{"inputs":[{"internalType":"uint256","name":"currencyIndex","type":"uint256"},{"components":[{"internalType":"int256","name":"accountDebtUnderlying","type":"int256"},{"internalType":"uint256","name":"maturity","type":"uint256"},{"internalType":"uint256","name":"vaultShares","type":"uint256"},{"internalType":"address","name":"account","type":"address"},{"internalType":"int256","name":"tempCashBalance","type":"int256"},{"internalType":"uint256","name":"lastUpdateBlockTime","type":"uint256"}],"internalType":"struct VaultAccount","name":"vaultAccount","type":"tuple"},{"components":[{"internalType":"address","name":"vault","type":"address"},{"internalType":"uint16","name":"flags","type":"uint16"},{"internalType":"uint16","name":"borrowCurrencyId","type":"uint16"},{"internalType":"int256","name":"minAccountBorrowSize","type":"int256"},{"internalType":"int256","name":"feeRate","type":"int256"},{"internalType":"int256","name":"minCollateralRatio","type":"int256"},{"internalType":"int256","name":"liquidationRate","type":"int256"},{"internalType":"int256","name":"reserveFeeShare","type":"int256"},{"internalType":"uint256","name":"maxBorrowMarketIndex","type":"uint256"},{"internalType":"int256","name":"maxDeleverageCollateralRatio","type":"int256"},{"internalType":"uint16[2]","name":"secondaryBorrowCurrencies","type":"uint16[2]"},{"components":[{"internalType":"int256","name":"supplyFactor","type":"int256"},{"internalType":"int256","name":"debtFactor","type":"int256"},{"internalType":"uint256","name":"oracleSupplyRate","type":"uint256"}],"internalType":"struct PrimeRate","name":"primeRate","type":"tuple"},{"internalType":"int256","name":"maxRequiredAccountCollateralRatio","type":"int256"},{"internalType":"int256[2]","name":"minAccountSecondaryBorrow","type":"int256[2]"},{"internalType":"int256","name":"excessCashLiquidationBonus","type":"int256"}],"internalType":"struct VaultConfig","name":"vaultConfig","type":"tuple"},{"components":[{"internalType":"uint256","name":"maturity","type":"uint256"},{"internalType":"int256","name":"totalDebtUnderlying","type":"int256"},{"internalType":"uint256","name":"totalVaultShares","type":"uint256"},{"internalType":"bool","name":"isSettled","type":"bool"}],"internalType":"struct VaultState","name":"vaultState","type":"tuple"},{"internalType":"int256","name":"depositUnderlyingInternal","type":"int256"}],"name":"calculateDepositAmountInDeleverage","outputs":[{"internalType":"int256","name":"","type":"int256"},{"internalType":"uint256","name":"","type":"uint256"},{"components":[{"internalType":"int256","name":"supplyFactor","type":"int256"},{"internalType":"int256","name":"debtFactor","type":"int256"},{"internalType":"uint256","name":"oracleSupplyRate","type":"uint256"}],"internalType":"struct PrimeRate","name":"","type":"tuple"}],"stateMutability":"nonpayable","type":"function"},{"inputs":[{"internalType":"address","name":"vault","type":"address"},{"internalType":"address","name":"account","type":"address"},{"internalType":"bool","name":"checkDebtCap","type":"bool"}],"name":"checkVaultAccountCollateralRatio","outputs":[],"stateMutability":"nonpayable","type":"function"},{"inputs":[{"internalType":"address","name":"vault","type":"address"},{"internalType":"uint16","name":"currencyId","type":"uint16"}],"name":"getBorrowCapacity","outputs":[{"internalType":"uint256","name":"currentPrimeDebtUnderlying","type":"uint256"},{"internalType":"uint256","name":"totalfCashDebt","type":"uint256"},{"internalType":"uint256","name":"maxBorrowCapacity","type":"uint256"}],"stateMutability":"view","type":"function"},{"inputs":[{"internalType":"address","name":"vault","type":"address"},{"internalType":"uint16","name":"currencyId","type":"uint16"},{"internalType":"uint256","name":"maturity","type":"uint256"}],"name":"getSecondaryBorrow","outputs":[{"internalType":"int256","name":"totalDebtUnderlying","type":"int256"}],"stateMutability":"view","type":"function"},{"inputs":[{"internalType":"address","name":"account","type":"address"},{"internalType":"address","name":"vault","type":"address"}],"name":"getVaultAccount","outputs":[{"components":[{"internalType":"int256","name":"accountDebtUnderlying","type":"int256"},{"internalType":"uint256","name":"maturity","type":"uint256"},{"internalType":"uint256","name":"vaultShares","type":"uint256"},{"internalType":"address","name":"account","type":"address"},{"internalType":"int256","name":"tempCashBalance","type":"int256"},{"internalType":"uint256","name":"lastUpdateBlockTime","type":"uint256"}],"internalType":"struct VaultAccount","name":"vaultAccount","type":"tuple"}],"stateMutability":"view","type":"function"},{"inputs":[{"internalType":"address","name":"account","type":"address"},{"internalType":"address","name":"vault","type":"address"}],"name":"getVaultAccountHealthFactors","outputs":[{"components":[{"internalType":"int256","name":"collateralRatio","type":"int256"},{"internalType":"int256","name":"totalDebtOutstandingInPrimary","type":"int256"},{"internalType":"int256","name":"vaultShareValueUnderlying","type":"int256"},{"internalType":"int256[3]","name":"netDebtOutstanding","type":"int256[3]"}],"internalType":"struct VaultAccountHealthFactors","name":"h","type":"tuple"},{"internalType":"int256[3]","name":"maxLiquidatorDepositUnderlying","type":"int256[3]"},{"internalType":"uint256[3]","name":"vaultSharesToLiquidator","type":"uint256[3]"}],"stateMutability":"view","type":"function"},{"inputs":[{"internalType":"address","name":"account","type":"address"},{"internalType":"address","name":"vault","type":"address"}],"name":"getVaultAccountSecondaryDebt","outputs":[{"internalType":"uint256","name":"maturity","type":"uint256"},{"internalType":"int256[2]","name":"accountSecondaryDebt","type":"int256[2]"},{"internalType":"int256[2]","name":"accountSecondaryCashHeld","type":"int256[2]"}],"stateMutability":"view","type":"function"},{"inputs":[{"internalType":"address","name":"account","type":"address"},{"internalType":"address","name":"vault","type":"address"}],"name":"getVaultAccountWithFeeAccrual","outputs":[{"components":[{"internalType":"int256","name":"accountDebtUnderlying","type":"int256"},{"internalType":"uint256","name":"maturity","type":"uint256"},{"internalType":"uint256","name":"vaultShares","type":"uint256"},{"internalType":"address","name":"account","type":"address"},{"internalType":"int256","name":"tempCashBalance","type":"int256"},{"internalType":"uint256","name":"lastUpdateBlockTime","type":"uint256"}],"internalType":"struct VaultAccount","name":"vaultAccount","type":"tuple"},{"internalType":"int256","name":"accruedPrimeVaultFeeInUnderlying","type":"int256"}],"stateMutability":"view","type":"function"},{"inputs":[{"internalType":"address","name":"vault","type":"address"}],"name":"getVaultConfig","outputs":[{"components":[{"internalType":"address","name":"vault","type":"address"},{"internalType":"uint16","name":"flags","type":"uint16"},{"internalType":"uint16","name":"borrowCurrencyId","type":"uint16"},{"internalType":"int256","name":"minAccountBorrowSize","type":"int256"},{"internalType":"int256","name":"feeRate","type":"int256"},{"internalType":"int256","name":"minCollateralRatio","type":"int256"},{"internalType":"int256","name":"liquidationRate","type":"int256"},{"internalType":"int256","name":"reserveFeeShare","type":"int256"},{"internalType":"uint256","name":"maxBorrowMarketIndex","type":"uint256"},{"internalType":"int256","name":"maxDeleverageCollateralRatio","type":"int256"},{"internalType":"uint16[2]","name":"secondaryBorrowCurrencies","type":"uint16[2]"},{"components":[{"internalType":"int256","name":"supplyFactor","type":"int256"},{"internalType":"int256","name":"debtFactor","type":"int256"},{"internalType":"uint256","name":"oracleSupplyRate","type":"uint256"}],"internalType":"struct PrimeRate","name":"primeRate","type":"tuple"},{"internalType":"int256","name":"maxRequiredAccountCollateralRatio","type":"int256"},{"internalType":"int256[2]","name":"minAccountSecondaryBorrow","type":"int256[2]"},{"internalType":"int256","name":"excessCashLiquidationBonus","type":"int256"}],"internalType":"struct VaultConfig","name":"vaultConfig","type":"tuple"}],"stateMutability":"view","type":"function"},{"inputs":[{"internalType":"address","name":"vault","type":"address"},{"internalType":"uint256","name":"maturity","type":"uint256"}],"name":"getVaultState","outputs":[{"components":[{"internalType":"uint256","name":"maturity","type":"uint256"},{"internalType":"int256","name":"totalDebtUnderlying","type":"int256"},{"internalType":"uint256","name":"totalVaultShares","type":"uint256"},{"internalType":"bool","name":"isSettled","type":"bool"}],"internalType":"struct VaultState","name":"vaultState","type":"tuple"}],"stateMutability":"view","type":"function"},{"inputs":[{"internalType":"uint16","name":"currencyId","type":"uint16"},{"internalType":"uint256","name":"maturity","type":"uint256"},{"internalType":"int256","name":"vaultAccountCashBalance","type":"int256"}],"name":"getfCashRequiredToLiquidateCash","outputs":[{"internalType":"int256","name":"fCashRequired","type":"int256"},{"internalType":"int256","name":"discountFactor","type":"int256"}],"stateMutability":"view","type":"function"},{"inputs":[{"internalType":"address","name":"account","type":"address"},{"internalType":"uint256","name":"id","type":"uint256"}],"name":"signedBalanceOfVaultTokenId","outputs":[{"internalType":"int256","name":"","type":"int256"}],"stateMutability":"view","type":"function"}],"bytecode":"608060405234801561001057600080fd5b50615048806100206000396000f3fe608060405234801561001057600080fd5b50600436106100b45760003560e01c8063b14428b911610071578063b14428b91461016d578063bf23dc621461018f578063c025d1a5146101b1578063c74db1f0146101d1578063de1eb9a3146101f3578063f82f279d14610213576100b4565b806306e5e699146100b957806331572281146100ce5780634a7a3410146100f757806367515776146101175780638767da9414610139578063a14db57c1461015a575b600080fd5b6100cc6100c7366004614932565b610234565b005b6100e16100dc3660046149d8565b61039e565b6040516100ee9190614f8a565b60405180910390f35b61010a6101053660046149d8565b6103ff565b6040516100ee9190614c94565b61012a610125366004614974565b61066e565b6040516100ee93929190614fd8565b61014c610147366004614900565b610724565b6040516100ee929190614e90565b61010a61016836600461499d565b6107b9565b61018061017b366004614900565b610859565b6040516100ee93929190614e0f565b6101a261019d366004614900565b610977565b6040516100ee93929190614fb7565b6101c46101bf366004614900565b6109ed565b6040516100ee9190614e82565b6101e46101df366004614a4b565b610a14565b6040516100ee93929190614cab565b6102066102013660046148e6565b610aef565b6040516100ee9190614eab565b610226610221366004614a19565b610b00565b6040516100ee929190614c9d565b826001600160a01b0316826001600160a01b0316141561025357600080fd5b600061025e84610b3e565b9050600061026c8483610b69565b9050600061027e838360200151610c18565b9050816080015160001461029157600080fd5b61029b8587610ca3565b6000806102b385848987604001518860000151610d18565b915091508580156102cc5750602084015164ffffffffff145b156103385760408501516101608601516102e591610dc7565b6101408501515161ffff161561030f576101408501515161030f908260005b602002015190610dc7565b6101408501516020015161ffff1615610338576101408501516020015161033890826001610304565b604084015115610370578461018001518213156103705760405162461bcd60e51b815260040161036790614d1d565b60405180910390fd5b818560a0015113156103945760405162461bcd60e51b815260040161036790614d4b565b5050505050505050565b6103a6614347565b60006103b184610e11565b90506103bd8184610c18565b91504283116103f857604081015160208301516101608301516103f2926103e692879042610e3e565b61016083015190610e65565b60208301525b5092915050565b600080600080600061041086610eb4565b9350935093509350600061042382610e11565b9050600061042f610ef7565b6001600160a01b038a81166000908152602083815260408083208751909416835292905220805491925090600160a01b900464ffffffffff1685811461048057600098505050505050505050610668565b60098814156104a9575054600160501b90046001600160501b0316965061066895505050505050565b836040015161ffff168761ffff161480156104c45750600a88145b156104e25750546001600160501b0316965061066895505050505050565b836040015161ffff168761ffff161480156104fd5750600b88145b1561051e5750600101546001600160501b0316965061066895505050505050565b61052784610f04565b1561065b57600080600a8a14156105de576000610542610f31565b60008f6001600160a01b03166001600160a01b03168152602001908152602001600020600088600001516001600160a01b03166001600160a01b0316815260200190815260200160002090508060000160059054906101000a90046001600160501b03166001600160501b031681600001600f9054906101000a90046001600160501b03166001600160501b0316809350819450505050610609565b600b8a141561060957505060018201546001600160501b03600160501b8204811691600160a01b9004165b6101408601515161ffff8a81169116141561062f57509850610668975050505050505050565b6101408601516020015161ffff8a81169116141561065857995061066898505050505050505050565b50505b6000985050505050505050505b92915050565b60008060008061067d86610e11565b90506000610689610f3e565b6001600160a01b03881660009081526020918252604080822061ffff8a1683529092522080546001600160501b03600160501b82048116965016935090506106cf614371565b826040015161ffff168761ffff1614156106ef57506101608201516106fd565b6106f98742610f4b565b5090505b61071861071361070e85848b611009565b6110b8565b6110c6565b95505050509250925092565b61072c614392565b60008061073884610e11565b90506107448582610b69565b602081015190935064ffffffffff14156107b15760a083015183516101608301516107979161078b91879161077c9161070e916110d9565b602088015186929190426110fd565b61016084015190610e65565b60a0850182905284519093506107ad9084611193565b8452505b509250929050565b6000806107c46111a9565b6001600160a01b038616600090815260209182526040808220868352835280822061ffff8816835290925290812091506107fe8542610f4b565b5082546001600160501b03166000039350905064ffffffffff84141561082f5761082881846111b6565b9250610850565b4284116108505761084d6108468287878742610e3e565b8290610e65565b92505b50509392505050565b6108616143d1565b6108696143fe565b6108716143fe565b600061087c85610e11565b9050600061088a8783610b69565b9050600061089c838360200151610c18565b90506108a661441c565b6108af84610f04565b156108c1576108be844261120e565b90505b6108c9614371565b6108d585858585611272565b604086015191995091506000906108eb906113a1565b90508560a001518960000151121561096a57610913868a846000856001600160ff1b036113b7565b8852885261092086610f04565b1561096a5761093b868a846001856001600160ff1b036113b7565b60208981019190915289015261095d868a846002856001600160ff1b036113b7565b6040898101919091528901525b5050505050509250925092565b6000610981614449565b610989614449565b600061099485610e11565b905060006109a2824261120e565b905060006109b08884610b69565b90506109bd83898461154f565b60208801528652606082015184519197506109d7916115e3565b6020860152845250939692955090935090915050565b6109f5614392565b6000610a0083610e11565b9050610a0c8482610b69565b949350505050565b600080610a1f614371565b333014610a2b57600080fd5b610160860151610a396143d1565b610a41614371565b610a4961441c565b610a528a610f04565b15610a8457610a608a611639565b90508b15610a7f578060018d0360028110610a7757fe5b602002015193505b610a8f565b8b15610a8f57600080fd5b610a9b8a8c8b84611272565b60a08c0151825192955090935013610ac55760405162461bcd60e51b815260040161036790614db9565b506000610ada8a84848f8f604001518d6113b7565b909d909c50939a509298505050505050505050565b610af7614467565b61066882610e11565b6000806000610b0f8642610f4b565b509050610b1d818787611699565b9150610b3382610b2d8387610e65565b906116f7565b925050935093915050565b610b46614467565b610b4f82611710565b9050610b5e8160400151611903565b610160820152919050565b610b71614392565b6000610b7b610ef7565b6001600160a01b038086166000818152602084815260408083208951909516835293815290839020805464ffffffffff600160a01b8204169288018390526001600160501b03600160501b8204811695890195909552606088019390935260018101548416608088015263ffffffff600160c81b84041660a088015261016088015194955093610c0d93909216611915565b835250909392505050565b610c20614347565b6000610c2a61194b565b84516001600160a01b031660009081526020828152604080832087845290915290819020858552805460ff600160f01b820416151560608701526001600160501b03600160a01b82048116938701939093526101608801519394509092610c95929091879116611915565b602084015250909392505050565b6000610cad610ef7565b6001600160a01b0384811660009081526020928352604080822092861682529190925290206001810154909150600160501b90046001600160501b031615610cf457600080fd5b6001810154600160a01b90046001600160501b031615610d1357600080fd5b505050565b6000610d2261441c565b6000610d3087898888611958565b90506000610d628961016001518a604001518a6000015188610d5d6102008f611a1590919063ffffffff16565b611a2a565b9050610d6d89610f04565b15610daf57610d7b89611639565b9250600080610d8c8b868c8c611a90565b5050509150915080600014610da057600080fd5b610daa8383611acf565b925050505b610db98282611ae5565b935050509550959350505050565b600080610dd48484611b1e565b9350935050508160001415610dea575050610e0d565b81811115610e0a5760405162461bcd60e51b815260040161036790614de8565b50505b5050565b610e19614467565b610e2282611710565b9050610e32816040015142610f4b565b50610160820152919050565b600080610e4c868685611bde565b9050610e59878286611c12565b50979650505050505050565b600080610e986ec097ce7bc90715b34b9f1000000000610e92866000015186611c7b90919063ffffffff16565b90611cc9565b905060008312610ea85780610a0c565b610a0c81600019611cfa565b60ff8116600080806009841015610ed657506000925082915081905080610ef0565b505050603082901c64ffffffffff600884901c16604084901c5b9193509193565b6000806106686016611d10565b6101408101515160009061ffff161515806106685750506101408101516020015161ffff1615155b919050565b600080610668601a611d10565b6000806106686017611d10565b610f53614371565b610f5b614500565b610f6484611d29565b90508281600001511015610f95576000610f7d85611df1565b9050610f8b85838387611e6c565b509150610fa29050565b80518314610fa257600080fd5b6040518060600160405280610fd0610fcb8460a001518560c00151611f1090919063ffffffff16565b6113a1565b8152602001610ff3610fcb8460a001518560e00151611f1090919063ffffffff16565b8152602001826060015181525091509250929050565b600080846040015161ffff168361ffff1614156110555761102861194b565b85516001600160a01b031660009081526020918252604080822064ffffffffff8352909252209050611092565b61105d6111a9565b85516001600160a01b031660009081526020918252604080822064ffffffffff8352835280822061ffff871683529092522090505b80546110af90859064ffffffffff906001600160501b0316611915565b95945050505050565b600061066860001983611c7b565b6000808212156110d557600080fd5b5090565b81516000908190610e9890610e92856ec097ce7bc90715b34b9f1000000000611c7b565b60008064ffffffffff84141561114f57602086015164ffffffffff146111275760009150506110af565b611141610fcb8760a0015185611f3790919063ffffffff16565b60a08701849052905061115f565b61115c610fcb8585611f37565b90505b608087015160009061117b906301da9c0090610e929085611c7b565b90506111878682611f4c565b98975050505050505050565b8082038281131560008312151461066857600080fd5b6000806106686018611d10565b6000600182126111c557600080fd5b816111d257506000610668565b61120760016112016ec097ce7bc90715b34b9f1000000000610e92876020015187611c7b90919063ffffffff16565b90611193565b9392505050565b61121661441c565b6101408301515161ffff16156112425761014083015161123e9060005b602002015183610f4b565b5081525b6101408301516020015161ffff161561066857610140830151611266906001611233565b50602082015292915050565b61127a6143d1565b611282614371565b611296848787606001518860400151611958565b604083015260808501516101608701516112dc916112b49190610e65565b6101608801516040890151875189516112d693929190610d5d8d610200611a15565b90611acf565b6060830180519190915251516000131561130057606082015151602083015261131a565b606082015151604083015161131491611acf565b60408301525b61132386610f04565b156113825760008061133b8886888a60600151611a90565b6060890151604081019190915260209081019190915287015190955091935091506113669083611acf565b6020850152604084015161137a9082611acf565b604085015250505b61139482604001518360200151611ae5565b8252909590945092505050565b60006001600160ff1b038211156110d557600080fd5b60008060008760400151136113d157506000905080611544565b6000856113e35750606088015161142d565b88610140015160018703600281106113f757fe5b602002015161ffff16611411576000809250925050611544565b886101a00151600187036002811061142557fe5b602002015190505b86516000901561143f57875180611443565b6001805b89529050600187141561145b5750602087015161146b565b866002141561146b575060408701515b60006114ac8b8b604001516114838d602001516110b8565b6114a08e606001518d6003811061149657fe5b60200201516110b8565b87878f60000151611f65565b9050808612156115005760006114cf876112018d606001518c6003811061149657fe5b90508015806114de5750808413155b6114fa5760405162461bcd60e51b815260040161036790614d82565b50611504565b8095505b600061152183610e928c600001518a611c7b90919063ffffffff16565b90506000611539898e60c001518e604001518561205b565b889750955050505050505b965096945050505050565b60008060008061155d610f31565b6001600160a01b038781166000908152602092835260408082208b5190931682529190925290208054865164ffffffffff821696509192506115b191908690600160281b90046001600160501b0316611915565b92506115d7856001602002015182548690600160781b90046001600160501b0316611915565b91505093509350939050565b60008060006115f0610ef7565b6001600160a01b0395861660009081526020918252604080822096909716815294905250505020600101546001600160501b03600160501b8204811692600160a01b9092041690565b61164161441c565b6101408201515161ffff161561166b576101408201516116689060005b6020020151611903565b81525b6101408201516020015161ffff1615610f2c5761014082015161168f90600161165e565b6020820152919050565b6000806116a68486612078565b905060006116b58285426120bb565b905060006116c2836121a4565b9050808211156116e6576116e16116d98642611f37565b8284036121b1565b6116ec565b633b9aca005b979650505050505050565b600061120761170a84633b9aca00611c7b565b83611cc9565b611718614467565b600061172261221e565b6001600160a01b03841660008181526020838152604091829020928652825461ffff80821692880192909252620100009004169085015290915061177e612710633b9aca008354600160501b900460ff16919005600502611f10565b608084015280546117a29068010000000000000000900461ffff16620186a0611f10565b60a084015280546117c190600160701b900461ffff16620186a0611f10565b61012084015260028101546117dd9061ffff16620186a0611f10565b610180840152805460649060ff600160581b90910416633b9aca00020560c08401528054600160601b810460ff90811660e0860152600160681b909104166101008401526040805180820191829052906001830190600290826000855b82829054906101000a900461ffff1661ffff168152602001906002019060208260010104928301926001038202915080841161183a57505050505061014085019190915250600481015460ff166101c084015280546118a690640100000000900463ffffffff1661222b565b60608401526118dc6003820160005b600891828204019190066004029054906101000a900463ffffffff1663ffffffff1661222b565b6101a0840151526118f16003820160016118b5565b6101a084015160200152509092915050565b61190b614371565b6106688242612239565b600064ffffffffff831461193557816001600160501b0316600003610a0c565b610a0c846001600160501b0384166000036111b6565b6000806106686015611d10565b60008161196757506000610a0c565b600061197a856040015161ffff166122fa565b8551875160405163e937711160e01b8152929350611a0b926001600160a01b039092169163e9377111916119b49189918991600401614c73565b60206040518083038186803b1580156119cc57600080fd5b505afa1580156119e0573d6000803e3d6000fd5b505050506040513d601f19601f82011682018060405250810190611a049190614a01565b829061230d565b9695505050505050565b60209190910151811661ffff90811691161490565b6000428411611a5157611a4a611a438787878742610e3e565b8790610e65565b90506110af565b818015611a63575064ffffffffff8414155b15611a86576000611a748688612078565b9050611a828185874261233d565b9350505b5090949350505050565b600080611a9b614371565b600080611aa7896123ab565b9250611aba898985898b60000151612447565b909c909b509499509097509550919350505050565b8181018281121560008312151461066857600080fd5b600080611af28484611acf565b905060008312611b0b576001600160ff1b0391506103f8565b610a0c611b17846110b8565b82906116f7565b6000806000806000611b2e612528565b61ffff87166000908152602091909152604090206001810154909150611b6090600160581b900463ffffffff1661222b565b6001820154909550611b8a90606490611b84908890600160781b900460ff16611f10565b90612535565b8154909350600160281b90046001600160581b0316611bac6107138983610e65565b60018301549095506001600160581b0316600003611bd061071361070e8b846111b6565b935050505092959194509250565b611be6614371565b6000611bf28585612554565b909250905080611c0a57611c068584610f4b565b5091505b509392505050565b600080611c1f84846110d9565b9150611c2b84836125e7565b90506000821215611c7357611c7060016112018760000151610e928960200151611c6a8a60200151610e928c600001518b611c7b90919063ffffffff16565b90611c7b565b91505b935093915050565b818102600019831415611cab57811580611c9d575082828281611c9a57fe5b05145b611ca657600080fd5b610668565b821580611cc0575081838281611cbd57fe5b05145b61066857600080fd5b600081600019148015611cdf5750600160ff1b83145b15611ce957600080fd5b818381611cf257fe5b059392505050565b6000818312611d095781611207565b5090919050565b6000620f4240826026811115611d2257fe5b0192915050565b611d31614500565b6000611d3b612528565b61ffff93841660009081526020918252604090819020805464ffffffffff81168652600160281b81046001600160581b03908116948701949094526001820154841692860192909252600160d81b820463ffffffff166060860152600160801b9091049091166080840152600201546001600160501b0380821660a0850152600160501b8204811660c0850152600160a01b82041660e0840152600160f01b900460ff1661012c02909216610100820152919050565b600080611dfd8361261a565b6001600160a01b031663a77c05b86040518163ffffffff1660e01b8152600401604080518083038186803b158015611e3457600080fd5b505afa158015611e48573d6000803e3d6000fd5b505050506040513d601f19601f82011682018060405250810190610a0c9190614b0d565b611e74614500565b6000806000611e8488868961264a565b60c08b019290925260e08a019290925260208901519193509150611ea89083612755565b6020880152608087015160009015611ed6576080880151611ed390611ecd8982611f37565b90612767565b90505b611ef6611eeb670de0b6b3a764000083612755565b60a08a015190612784565b60a089015250506080860194909452505082529092909150565b600082611f1f57506000610668565b82820282848281611f2c57fe5b041461120757600080fd5b600082821115611f4657600080fd5b50900390565b6000611207611f5b8484611c7b565b633b9aca00611cc9565b6000808513611f76575060006116ec565b610120880151600090611f8d90633b9aca00611acf565b90506000611fb9611fab8b60c001518461119390919063ffffffff16565b610b2d8b6112018c87611f4c565b9050611fc984610e928388611c7b565b92506000611fd78885611193565b905083881280611fe657508681125b15611fff57879350611ffc86610e928688611c7b565b91505b600061201c8b610e928e60c0015186611c7b90919063ffffffff16565b9050633b9aca00811261204c5760c08c0151612039908c906116f7565b925061204986610e92858a611c7b565b94505b50505050979650505050505050565b60006110af610713633b9aca00610e92868187611c6a8c8c611c7b565b61208061454c565b600061208f8461ffff166127a1565b6040805160808101825261ffff96909616865260ff821660208701528501939093525050606082015290565b60008060006120cf866020015186866127be565b9150915060006120de87612845565b9050816120fe5786516120f79061ffff16878388612859565b935061219a565b6000612109866128f8565b9050600061212061211986612916565b8390612755565b905060006121388a6000015161ffff1683868b612859565b905060008087600114156121565750506040808b0151015188612185565b61216c61216560018a03612916565b8690612755565b90506121828c6000015161ffff1682888d612859565b91505b612192818584868f6129ba565b985050505050505b5050509392505050565b6000610668826040612a17565b6000806121ce6121c96301da9c00611b848688611f10565b612a2a565b90506121e081621dcd6560491b612a48565b90506121f36121ee82612a9b565b612abd565b905061220581621dcd6560491b612b12565b9050600061221282612b48565b60070b95945050505050565b6000806106686014611d10565b600881901c60ff9091161b90565b612241614371565b600061224c84611d29565b9050828160000151101561228b5760008061226686612b51565b905061227486848388611e6c565b9093509150612284868385612baa565b5050612298565b8051831461229857600080fd5b60405180606001604052806122c1610fcb8460a001518560c00151611f1090919063ffffffff16565b81526020016122e4610fcb8460a001518560e00151611f1090919063ffffffff16565b8152602001826060015181525091505092915050565b612302614578565b610668826001612dde565b60006305f5e10083604001511415612326575080610668565b604083015161120790610e92846305f5e100611c7b565b60008361234c57506000610a0c565b600080851361236557612360868585612e78565b612370565b612370868585612eb4565b9050633b9aca0081131561238357600080fd5b600061238f8683611f4c565b90506000861261239f57806116ec565b6116ec81600019611cfa565b6123b3614371565b60006123c6836040015161ffff16612ef1565b805183526101408401515190915061ffff161561240f57612409816124048561014001516000600281106123f657fe5b602002015161ffff16612ef1565b613054565b60208301525b6101408301516020015161ffff16156124415761243b816124048561014001516001600281106123f657fe5b60408301525b50919050565b60008060008060008061245e888c600001516115e3565b9150915061246d8b898c61154f565b9097509550600090506124828c610200611a15565b6101408d01515190915061ffff16156124c4576124c16124ab848d60005b602002015190610e65565b8c516101408f0151516112d691908c8c87611a2a565b96505b6101408c01516020015161ffff1615612508576125056124e6838d60016124a0565b60208d01516101408f01516112d69190600160200201518c8b87611a2a565b95505b6125138a8888613079565b979d969c509a50959850939650505050505050565b600080610668601d611d10565b600080821161254357600080fd5b81838161254c57fe5b049392505050565b61255c614371565b60008061256761312b565b61ffff861660009081526020828152604080832088845290915290208054600160f01b900460ff16935090915082156125de5780546001600160501b03600160a01b82048116916125b9911682611f10565b855281546125d790600160501b90046001600160501b031682611f10565b6020860152505b50509250929050565b6000808212156124415761261560016112018560200151610e92876000015187611c7b90919063ffffffff16565b611207565b600080612625613138565b61ffff939093166000908152602093909352505060409020546001600160a01b031690565b60008060008060008061265d8988613145565b8951909550919350915060009061268490612679908b90611f37565b633b9aca0090611f10565b90506126be6126b36301da9c0061269b8585611f10565b816126a257fe5b670de0b6b3a7640000919004612755565b60e08a015190612784565b96506126e06126d56301da9c0061269b8785611f10565b60c08a015190612784565b9550818314156126f757506000935061274c915050565b600061271961270e6301da9c0061269b8786611f10565b60e08b015190612784565b905060006127278983611f37565b905061274488611b84838d60400151611f1090919063ffffffff16565b965050505050505b93509350935093565b60008282018381101561120757600080fd5b600061120761277e84670de0b6b3a7640000611f10565b83612535565b60006112076127938484611f10565b670de0b6b3a7640000612535565b6000806127ac6131e0565b60009384526020525050604090205490565b600080600085116127ce57600080fd5b60078511156127dc57600080fd5b60006127e7846128f8565b905060015b86811161283f57600061280861280183612916565b8490612755565b9050868114156128205750925060009150611c739050565b868111156128365750925060019150611c739050565b506001016127ec565b50600080fd5b6060015161012c60089190911c60ff160290565b6000806128646131ed565b905060006276a700612875856128f8565b6000898152602085815260408083208b84528252808320949093018083529390522080549192509063ffffffff600160a01b8204811691600160c01b8104821691600160e01b90910416816128dc5760405162461bcd60e51b815260040161036790614cc6565b6128e98184848c8c6131fa565b9b9a5050505050505050505050565b60006276a70082101561290a57600080fd5b506276a7008106900390565b6000816001141561292b57506276a700610f2c565b816002141561293e575062ed4e00610f2c565b816003141561295257506301da9c00610f2c565b816004141561296657506303b53800610f2c565b816005141561297a57506309450c00610f2c565b816006141561298e575063128a1800610f2c565b81600714156129a257506325143000610f2c565b60405162461bcd60e51b815260040161036790614cf6565b60008186106129c857600080fd5b8482106129d457600080fd5b8383106129f957611a4a846129f3888803611b848388038b8803611f10565b90612755565b611a4a612a10878703611b848688038a8703611f10565b8590611f37565b60609091015160ff911c16622625a00290565b6000677fffffffffffffff821115612a4157600080fd5b5060401b90565b600081600f0b60001415612a5b57600080fd5b600082600f0b604085600f0b901b81612a7057fe5b05905060016001607f1b03198112801590612a92575060016001607f1b038113155b61120757600080fd5b6000600f82900b60016001607f1b03191415612ab657600080fd5b5060000390565b6000600160461b82600f0b12612ad257600080fd5b683fffffffffffffffff1982600f0b1215612aef57506000610f2c565b610668608083600f0b700171547652b82fe1777d0ffda0d23a7d1202901d613282565b6000600f83810b9083900b0260401d60016001607f1b03198112801590612a92575060016001607f1b0381131561120757600080fd5b600f0b60401d90565b600080612b5d8361261a565b6001600160a01b031663ef81f2166040518163ffffffff1660e01b81526004016040805180830381600087803b158015612b9657600080fd5b505af1158015611e48573d6000803e3d6000fd5b6000612bb4612528565b60008561ffff1681526020019081526020016000209050612bd88260000151613d39565b815464ffffffffff191664ffffffffff9190911617815560a0820151612bfd90613d4d565b60028201805469ffffffffffffffffffff19166001600160501b039290921691909117905560c0820151612c3090613d4d565b81600201600a6101000a8154816001600160501b0302191690836001600160501b03160217905550612c658260e00151613d4d565b8160020160146101000a8154816001600160501b0302191690836001600160501b03160217905550612c9a8260200151613d63565b81546001600160581b0391909116600160281b026fffffffffffffffffffffff0000000000199091161781556040820151612cd490613d63565b6001820180546affffffffffffffffffffff19166001600160581b03929092169190911790556080820151612d0890613d63565b81546001600160581b0391909116600160801b026affffffffffffffffffffff60801b199091161781556060820151612d4090613d79565b815463ffffffff91909116600160d81b0263ffffffff60d81b199091161781558215612d8c576000612d71846113a1565b9050612d7d8582613d8c565b612d8a610fee8683613dc3565b505b8361ffff167fef25641e225e493886510ca1ad6584fa7b442b9fea820a29d1de3ce27d270fd28360a001518460c001518560e00151604051612dd093929190614fd8565b60405180910390a250505050565b612de6614578565b6000612df0613e43565b6000858152602082815260408083208715158452825291829020825160a08101845281546001600160a01b038116825260ff600160a01b82048116151594830194909452600160b01b81048416600a0a9482019490945293945092916060830191600160a81b909104166005811115612e6557fe5b8152600060209091015295945050505050565b600080612e86858585613e50565b90508015612ea657612ea1612e9b8585611f37565b826121b1565b6110af565b633b9aca0095945050505050565b600080612ec2858585613ea0565b9050612ed1612e9b8585611f37565b91506000612ede86613ee1565b9050828112156108505795945050505050565b612ef961459f565b6000612f03613efc565b6000848152602082905260408120919250806001861415612f305750670de0b6b3a7640000905080612ff3565b825460408051633fabe5a360e21b815290516001600160a01b039092169163feaf968c9160048082019260a092909190829003018186803b158015612f7457600080fd5b505afa158015612f88573d6000803e3d6000fd5b505050506040513d601f19601f82011682018060405250810190612fac9190614b30565b5091935050600083139150612fc2905057600080fd5b825460ff600160a01b82048116600a0a9350600160a81b9091041615612ff357612ff081610e928480611c7b565b90505b8254600160b01b900460ff1660968113156130135760951901600a026096015b6040805160a081018252938452602084019290925290820152905460ff600160b81b820481166060840152600160c01b909104166080820152915050919050565b60006112078260200151610e9284600001518660200151611c7b90919063ffffffff16565b60008060008412156130a3576020850151855161309c9190610e92908790611c7b565b91506130c6565b83600012156130c657602085015185516130c39190610e92908790611c7b565b90505b60008312156130f757604085015185516130f0916130e991610e92908790611c7b565b8390611acf565b9150611c73565b8260001215611c7357604085015185516131219161311a91610e92908790611c7b565b8290611acf565b9050935093915050565b600080610668601e611d10565b600080610668601f611d10565b6000806000806000856020015111156131925761318f6131768660c001518760200151611f1090919063ffffffff16565b60e0870151604088015161318991611f10565b90613f09565b90505b600061319d87613f1c565b90506131a98183613f4f565b945081156131c0576131bd81866001614009565b93505b6020860151156131d7576131d48583614081565b92505b50509250925092565b6000806106686009611d10565b600080610668600a611d10565b600080831161320857600080fd5b818611156132175750836110af565b60006132238388611f37565b90508381111561323657859150506110af565b60006132428286613f09565b90506000613254633b9aca0083611f37565b9050613275633b9aca00611b8461326b8a85611f10565b6129f38c87611f10565b9998505050505050505050565b6000600160461b82600f0b1261329757600080fd5b683fffffffffffffffff1982600f0b12156132b457506000610f2c565b6001607f1b60006780000000000000008416600f0b13156132e65770016a09e667f3bcc908b2fb1366ea957d3e0260801c5b60008367400000000000000016600f0b1315613313577001306fe0a31b7152de8d5a46305c85edec0260801c5b60008367200000000000000016600f0b1315613340577001172b83c7d517adcdf7c8c50eb14a791f0260801c5b60008367100000000000000016600f0b131561336d5770010b5586cf9890f6298b92b71842a983630260801c5b60008367080000000000000016600f0b131561339a577001059b0d31585743ae7c548eb68ca417fd0260801c5b60008367040000000000000016600f0b13156133c757700102c9a3e778060ee6f7caca4f7a29bde80260801c5b60008367020000000000000016600f0b13156133f45770010163da9fb33356d84a66ae336dcdfa3f0260801c5b60008367010000000000000016600f0b131561342157700100b1afa5abcbed6129ab13ec11dc95430260801c5b600083668000000000000016600f0b131561344d5770010058c86da1c09ea1ff19d294cf2f679b0260801c5b600083664000000000000016600f0b1315613479577001002c605e2e8cec506d21bfc89a23a00f0260801c5b600083662000000000000016600f0b13156134a557700100162f3904051fa128bca9c55c31e5df0260801c5b600083661000000000000016600f0b13156134d1577001000b175effdc76ba38e31671ca9397250260801c5b600083660800000000000016600f0b13156134fd57700100058ba01fb9f96d6cacd4b180917c3d0260801c5b600083660400000000000016600f0b13156135295770010002c5cc37da9491d0985c348c68e7b30260801c5b600083660200000000000016600f0b1315613555577001000162e525ee054754457d59952920260260801c5b600083660100000000000016600f0b13156135815770010000b17255775c040618bf4a4ade83fc0260801c5b6000836580000000000016600f0b13156135ac577001000058b91b5bc9ae2eed81e9b7d4cfab0260801c5b6000836540000000000016600f0b13156135d757700100002c5c89d5ec6ca4d7c8acc017b7c90260801c5b6000836520000000000016600f0b13156136025770010000162e43f4f831060e02d839a9d16d0260801c5b6000836510000000000016600f0b131561362d57700100000b1721bcfc99d9f890ea069117630260801c5b6000836508000000000016600f0b13156136585770010000058b90cf1e6d97f9ca14dbcc16280260801c5b6000836504000000000016600f0b1315613683577001000002c5c863b73f016468f6bac5ca2b0260801c5b6000836502000000000016600f0b13156136ae57700100000162e430e5a18f6119e3c02282a50260801c5b600083600160281b16600f0b13156136d7577001000000b1721835514b86e6d96efd1bfe0260801c5b60008364800000000016600f0b131561370157700100000058b90c0b48c6be5df846c5b2ef0260801c5b60008364400000000016600f0b131561372b5770010000002c5c8601cc6b9e94213c72737a0260801c5b60008364200000000016600f0b1315613755577001000000162e42fff037df38aa2b219f060260801c5b60008364100000000016600f0b131561377f5770010000000b17217fba9c739aa5819f44f90260801c5b60008364080000000016600f0b13156137a9577001000000058b90bfcdee5acd3c1cedc8230260801c5b60008364040000000016600f0b13156137d357700100000002c5c85fe31f35a6a30da1be500260801c5b60008364020000000016600f0b13156137fd5770010000000162e42ff0999ce3541b9fffcf0260801c5b60008364010000000016600f0b131561382757700100000000b17217f80f4ef5aadda455540260801c5b600083638000000016600f0b13156138505770010000000058b90bfbf8479bd5a81b51ad0260801c5b600083634000000016600f0b1315613879577001000000002c5c85fdf84bd62ae30a74cc0260801c5b600083632000000016600f0b13156138a257700100000000162e42fefb2fed257559bdaa0260801c5b600083631000000016600f0b13156138cb577001000000000b17217f7d5a7716bba4a9ae0260801c5b600083630800000016600f0b13156138f457700100000000058b90bfbe9ddbac5e109cce0260801c5b600083630400000016600f0b131561391d5770010000000002c5c85fdf4b15de6f17eb0d0260801c5b600083630200000016600f0b1315613946577001000000000162e42fefa494f1478fde050260801c5b600083630100000016600f0b131561396f5770010000000000b17217f7d20cf927c8e94c0260801c5b6000836280000016600f0b1315613997577001000000000058b90bfbe8f71cb4e4b33d0260801c5b6000836240000016600f0b13156139bf57700100000000002c5c85fdf477b662b269450260801c5b6000836220000016600f0b13156139e75770010000000000162e42fefa3ae53369388c0260801c5b6000836210000016600f0b1315613a0f57700100000000000b17217f7d1d351a389d400260801c5b6000836208000016600f0b1315613a375770010000000000058b90bfbe8e8b2d3d4ede0260801c5b6000836204000016600f0b1315613a5f577001000000000002c5c85fdf4741bea6e77e0260801c5b6000836202000016600f0b1315613a8757700100000000000162e42fefa39fe95583c20260801c5b6000836201000016600f0b1315613aaf577001000000000000b17217f7d1cfb72b45e10260801c5b60008361800016600f0b1315613ad657700100000000000058b90bfbe8e7cc35c3f00260801c5b60008361400016600f0b1315613afd5770010000000000002c5c85fdf473e242ea380260801c5b60008361200016600f0b1315613b24577001000000000000162e42fefa39f02b772c0260801c5b60008361100016600f0b1315613b4b5770010000000000000b17217f7d1cf7d83c1a0260801c5b60008361080016600f0b1315613b72577001000000000000058b90bfbe8e7bdcbe2e0260801c5b60008361040016600f0b1315613b9957700100000000000002c5c85fdf473dea871f0260801c5b60008361020016600f0b1315613bc05770010000000000000162e42fefa39ef44d910260801c5b60008361010016600f0b1315613be757700100000000000000b17217f7d1cf79e9490260801c5b600083608016600f0b1315613c0d5770010000000000000058b90bfbe8e7bce5440260801c5b600083604016600f0b1315613c33577001000000000000002c5c85fdf473de6eca0260801c5b600083602016600f0b1315613c5957700100000000000000162e42fefa39ef366f0260801c5b600083601016600f0b1315613c7f577001000000000000000b17217f7d1cf79afa0260801c5b600083600816600f0b1315613ca557700100000000000000058b90bfbe8e7bcd6d0260801c5b600083600416600f0b1315613ccb5770010000000000000002c5c85fdf473de6b20260801c5b600083600216600f0b1315613cf1577001000000000000000162e42fefa39ef3580260801c5b600083600116600f0b1315613d175770010000000000000000b17217f7d1cf79ab0260801c5b600f83810b60401d603f03900b1c60016001607f1b0381111561066857600080fd5b600064ffffffffff8211156110d557600080fd5b60006001600160501b038211156110d557600080fd5b60006001600160581b038211156110d557600080fd5b600063ffffffff8211156110d557600080fd5b6000811215613d9a57600080fd5b6000613da8610fee8461409a565b9050613db48183611acf565b9050610d13610fee84836140f3565b6000613dcd614167565b61ffff8416600090815260209190915260409081902054905163ad1c095d60e01b81526001600160a01b039091169150819063ad1c095d90613e159087908690600401614c5a565b600060405180830381600087803b158015613e2f57600080fd5b505af1158015610394573d6000803e3d6000fd5b6000806106686007611d10565b6000613e5d8484846120bb565b90506000613e6a85614174565b9050808211613e7d576000915050611207565b80820391506000613e8d86614181565b9050828110156108505795945050505050565b6000613ead8484846120bb565b9050613ec2613ebb8561418e565b8290612755565b90506000613ecf8561419b565b905080821015611c0a57949350505050565b606001516207a12060109190911c60ff1602633b9aca000390565b6000806106686010611d10565b600061120761277e84633b9aca00611f10565b613f246145ce565b6000613f2e6141a8565b61ffff841660009081526020919091526040812054915061120790826141b5565b600080836080015111613f6157600080fd5b633b9aca00821115613f7257600080fd5b82518211613f985782516040840151613f919190611b84908590611f10565b9050610668565b82602001518211613fd0576040830151835160208501516060860151613f9193926129f39281900391611b8491880390859003611f10565b61120783606001516129f38560200151633b9aca0003611b84876060015188608001510388602001518803611f1090919063ffffffff16565b6000806140286064611b848760e0015187611f1090919063ffffffff16565b90508460a0015181101561403d575060a08401515b8460c00151811115614050575060c08401515b8215614067576140608482612755565b9150611c0a565b838111614076578084036110af565b506000949350505050565b60006112076140908484611f10565b633b9aca00612535565b6000806140a56142d4565b6001600160a01b03851660009081526020828152604080832061ffff8816845290915281208054600160a81b9004600a90810b900b94509192508312156140eb57600080fd5b505092915050565b600081121561410157600080fd5b600061410b6142d4565b6001600160a01b03851660009081526020828152604080832061ffff88168452909152902090915061413c836142e1565b8154600a9190910b6001600160581b0316600160a81b026001600160a81b0390911617905550505050565b6000806106686021611d10565b6000610668826020612a17565b6000610668826048612a17565b6000610668826028612a17565b6000610668826030612a17565b600080610668601b611d10565b6141bd6145ce565b6064633b9aca008360ff8616602081106141d357fe5b1a02816141dc57fe5b0481526064633b9aca008360ff8616600101602081106141f857fe5b1a028161420157fe5b048160200181815250506142268260028560ff16016020811061422057fe5b1a614313565b60808201819052610100908360ff86166003016020811061424357fe5b1a028161424c57fe5b0460408201526080810151610100908360ff86166004016020811061426d57fe5b1a028161427657fe5b0460608201526207a1208260ff85166005016020811061429257fe5b1a0260a0820152622625a08260ff8516600601602081106142af57fe5b1a0260c08201528160ff8416600701602081106142c857fe5b1a60e082015292915050565b6000806106686006611d10565b60006a7fffffffffffffffffffff19821280159061430a57506a7fffffffffffffffffffff8213155b6110d557600080fd5b60008160ff1660961061432e5760ff8216622625a002610668565b5060951960ff919091160162e4e1c00263165a0bc00190565b60405180608001604052806000815260200160008152602001600081526020016000151581525090565b60405180606001604052806000815260200160008152602001600081525090565b6040518060c0016040528060008152602001600081526020016000815260200160006001600160a01b0316815260200160008152602001600081525090565b60405180608001604052806000815260200160008152602001600081526020016143f96143fe565b905290565b60405180606001604052806003906020820280368337509192915050565b60405180604001604052806002905b614433614371565b81526020019060019003908161442b5790505090565b60405180604001604052806002906020820280368337509192915050565b604051806101e0016040528060006001600160a01b03168152602001600061ffff168152602001600061ffff168152602001600081526020016000815260200160008152602001600081526020016000815260200160008152602001600081526020016144d2614449565b81526020016144df614371565b8152602001600081526020016144f3614449565b8152602001600081525090565b6040518061012001604052806000815260200160008152602001600081526020016000815260200160008152602001600081526020016000815260200160008152602001600081525090565b604080516080810182526000808252602082015290810161456b614371565b8152600060209091015290565b6040805160a0810182526000808252602082018190529181018290529060608201906144f3565b6040518060a0016040528060008152602001600081526020016000815260200160008152602001600081525090565b60405180610100016040528060008152602001600081526020016000815260200160008152602001600081526020016000815260200160008152602001600081525090565b80356001600160a01b0381168114610f2c57600080fd5b600082601f83011261463a578081fd5b6040516040810181811067ffffffffffffffff8211171561465757fe5b806040525080838560408601111561466d578384fd5b835b600281101561468e57813583526020928301929091019060010161466f565b509195945050505050565b600082601f8301126146a9578081fd5b6040516040810181811067ffffffffffffffff821117156146c657fe5b80604052508083856040860111156146dc578384fd5b835b600281101561468e576146f0826148bd565b835260209283019291909101906001016146de565b80358015158114610f2c57600080fd5b600060608284031215614726578081fd5b6040516060810181811067ffffffffffffffff8211171561474357fe5b80604052508091508235815260208301356020820152604083013560408201525092915050565b6000610260828403121561477c578081fd5b6101e061478881614fee565b915061479383614613565b82526147a1602084016148bd565b60208301526147b2604084016148bd565b6040830152606083013560608301526080830135608083015260a083013560a083015260c083013560c083015260e083013560e083015261010080840135818401525061012080840135818401525061014061481085828601614699565b9083015261018061482385858301614715565b610160840152908301359082015261483f83610200840161462a565b6101a08201526102408201356101c082015292915050565b600060808284031215614868578081fd5b6040516080810181811067ffffffffffffffff8211171561488557fe5b80604052508091508235815260208301356020820152604083013560408201526148b160608401614705565b60608201525092915050565b803561ffff81168114610f2c57600080fd5b80516001600160501b0381168114610f2c57600080fd5b6000602082840312156148f7578081fd5b61120782614613565b60008060408385031215614912578081fd5b61491b83614613565b915061492960208401614613565b90509250929050565b600080600060608486031215614946578081fd5b61494f84614613565b925061495d60208501614613565b915061496b60408501614705565b90509250925092565b60008060408385031215614986578182fd5b61498f83614613565b9150614929602084016148bd565b6000806000606084860312156149b1578081fd5b6149ba84614613565b92506149c8602085016148bd565b9150604084013590509250925092565b600080604083850312156149ea578182fd5b6149f383614613565b946020939093013593505050565b600060208284031215614a12578081fd5b5051919050565b600080600060608486031215614a2d578081fd5b614a36846148bd565b95602085013595506040909401359392505050565b60008060008060008587036103e0811215614a64578384fd5b8635955060c0601f1982011215614a79578384fd5b5060405160c0810181811067ffffffffffffffff82111715614a9757fe5b8060405250602087013581526040870135602082015260608701356040820152614ac360808801614613565b606082015260a087810135608083015260c0880135908201529350614aeb8760e0880161476a565b9250614afb876103408801614857565b949793965091946103c0013592915050565b60008060408385031215614b1f578182fd5b505080516020909101519092909150565b600080600080600060a08688031215614b47578283fd5b614b50866148cf565b9450602086015193506040860151925060608601519150614b73608087016148cf565b90509295509295909350565b6001600160a01b03169052565b8060005b6002811015610e0a578151845260209384019390910190600101614b90565b8060005b6003811015610e0a578151845260209384019390910190600101614bb3565b8060005b6002811015610e0a57815161ffff16845260209384019390910190600101614bd6565b8051825260208082015190830152604090810151910152565b8051825260208082015190830152604080820151908301526060808201516001600160a01b0316908301526080808201519083015260a090810151910152565b61ffff169052565b6001600160a01b03929092168252602082015260400190565b6001600160a01b039390931683526020830191909152604082015260600190565b90815260200190565b918252602082015260400190565b8381526020810183905260a08101610a0c6040830184614bf9565b60208082526016908201527513585c9ad95d081b9bdd081a5b9a5d1a585b1a5e995960521b604082015260600190565b6020808252600d908201526c092dcecc2d8d2c840d2dcc8caf609b1b604082015260600190565b60208082526014908201527310589bdd994813585e0810dbdb1b185d195c985b60621b604082015260600190565b60208082526017908201527f496e73756666696369656e7420436f6c6c61746572616c000000000000000000604082015260600190565b60208082526017908201527f4d757374204c697175696461746520416c6c2044656274000000000000000000604082015260600190565b60208082526015908201527414dd59999a58da595b9d0810dbdb1b185d195c985b605a1b604082015260600190565b6020808252600d908201526c04f76657220446562742043617609c1b604082015260600190565b6000610180820190508451825260208086015181840152604086015160408401526060860151614e426060850182614baf565b50614e5060c0840186614baf565b61012083018460005b6003811015614e7657815183529183019190830190600101614e59565b50505050949350505050565b60c081016106688284614c12565b60e08101614e9e8285614c12565b8260c08301529392505050565b600061026082019050614ebf828451614b7f565b6020830151614ed16020840182614c52565b506040830151614ee46040840182614c52565b50606083015160608301526080830151608083015260a083015160a083015260c083015160c083015260e083015160e083015261010080840151818401525061012080840151818401525061014080840151614f4282850182614bd2565b5050610160830151610180614f5981850183614bf9565b8401516101e0840152506101a0830151614f77610200840182614b8c565b506101c083015161024083015292915050565b81518152602080830151908201526040808301519082015260609182015115159181019190915260800190565b83815260a08101614fcb6020830185614b8c565b610a0c6060830184614b8c565b9283526020830191909152604082015260600190565b60405181810167ffffffffffffffff8111828210171561500a57fe5b60405291905056fea264697066735822122045f288b7ada490dca97251029fc6de100737d32aecf94593a2705e35110aa35664736f6c63430007060033","bytecodeSha1":"24f432bc6de291c14f1324f24d6cf1411dcc2000","compiler":{"evm_version":"istanbul","optimizer":{"enabled":true,"runs":200},"version":"0.7.6+commit.7338295f"},"contractName":"VaultAccountHealth","language":"Solidity","natspec":{"kind":"dev","methods":{"checkVaultAccountCollateralRatio(address,address,bool)":{"notice":"Checks if a vault account has sufficient collateral to perform an action, reverts if it does not. Called at the end of VaultAccountActions after all values have been set in storage"},"getVaultState(address,uint256)":{"notice":"View method to get vault state"},"getfCashRequiredToLiquidateCash(uint16,uint256,int256)":{"notice":"Returns the fCash required to liquidate a given vault cash balance."},"signedBalanceOfVaultTokenId(address,uint256)":{"notice":"Returns the signed value for a given vault ERC1155 id"}},"version":1},"opcodes":"PUSH1 0x80 PUSH1 0x40 MSTORE CALLVALUE DUP1 ISZERO PUSH2 0x10 JUMPI PUSH1 0x0 DUP1 REVERT JUMPDEST POP PUSH1 0x4 CALLDATASIZE LT PUSH2 0xB4 JUMPI PUSH1 0x0 CALLDATALOAD PUSH1 0xE0 SHR DUP1 PUSH4 0xB14428B9 GT PUSH2 0x71 JUMPI DUP1 PUSH4 0xB14428B9 EQ PUSH2 0x16D JUMPI DUP1 PUSH4 0xBF23DC62 EQ PUSH2 0x18F JUMPI DUP1 PUSH4 0xC025D1A5 EQ PUSH2 0x1B1 JUMPI DUP1 PUSH4 0xC74DB1F0 EQ PUSH2 0x1D1 JUMPI DUP1 PUSH4 0xDE1EB9A3 EQ PUSH2 0x1F3 JUMPI DUP1 PUSH4 0xF82F279D EQ PUSH2 0x213 JUMPI PUSH2 0xB4 JUMP JUMPDEST DUP1 PUSH4 0x6E5E699 EQ PUSH2 0xB9 JUMPI DUP1 PUSH4 0x31572281 EQ PUSH2 0xCE JUMPI DUP1 PUSH4 0x4A7A3410 EQ PUSH2 0xF7 JUMPI DUP1 PUSH4 0x67515776 EQ PUSH2 0x117 JUMPI DUP1 PUSH4 0x8767DA94 EQ PUSH2 0x139 JUMPI DUP1 PUSH4 0xA14DB57C EQ PUSH2 0x15A JUMPI JUMPDEST PUSH1 0x0 DUP1 REVERT JUMPDEST PUSH2 0xCC PUSH2 0xC7 CALLDATASIZE PUSH1 0x4 PUSH2 0x4932 JUMP JUMPDEST PUSH2 0x234 JUMP JUMPDEST STOP JUMPDEST PUSH2 0xE1 PUSH2 0xDC CALLDATASIZE PUSH1 0x4 PUSH2 0x49D8 JUMP JUMPDEST PUSH2 0x39E JUMP JUMPDEST PUSH1 0x40 MLOAD PUSH2 0xEE SWAP2 SWAP1 PUSH2 0x4F8A JUMP JUMPDEST PUSH1 0x40 MLOAD DUP1 SWAP2 SUB SWAP1 RETURN JUMPDEST PUSH2 0x10A PUSH2 0x105 CALLDATASIZE PUSH1 0x4 PUSH2 0x49D8 JUMP JUMPDEST PUSH2 0x3FF JUMP JUMPDEST PUSH1 0x40 MLOAD PUSH2 0xEE SWAP2 SWAP1 PUSH2 0x4C94 JUMP JUMPDEST PUSH2 0x12A PUSH2 0x125 CALLDATASIZE PUSH1 0x4 PUSH2 0x4974 JUMP JUMPDEST PUSH2 0x66E JUMP JUMPDEST PUSH1 0x40 MLOAD PUSH2 0xEE SWAP4 SWAP3 SWAP2 SWAP1 PUSH2 0x4FD8 JUMP JUMPDEST PUSH2 0x14C PUSH2 0x147 CALLDATASIZE PUSH1 0x4 PUSH2 0x4900 JUMP JUMPDEST PUSH2 0x724 JUMP JUMPDEST PUSH1 0x40 MLOAD PUSH2 0xEE SWAP3 SWAP2 SWAP1 PUSH2 0x4E90 JUMP JUMPDEST PUSH2 0x10A PUSH2 0x168 CALLDATASIZE PUSH1 0x4 PUSH2 0x499D JUMP JUMPDEST PUSH2 0x7B9 JUMP JUMPDEST PUSH2 0x180 PUSH2 0x17B CALLDATASIZE PUSH1 0x4 PUSH2 0x4900 JUMP JUMPDEST PUSH2 0x859 JUMP JUMPDEST PUSH1 0x40 MLOAD PUSH2 0xEE SWAP4 SWAP3 SWAP2 SWAP1 PUSH2 0x4E0F JUMP JUMPDEST PUSH2 0x1A2 PUSH2 0x19D CALLDATASIZE PUSH1 0x4 PUSH2 0x4900 JUMP JUMPDEST PUSH2 0x977 JUMP JUMPDEST PUSH1 0x40 MLOAD PUSH2 0xEE SWAP4 SWAP3 SWAP2 SWAP1 PUSH2 0x4FB7 JUMP JUMPDEST PUSH2 0x1C4 PUSH2 0x1BF CALLDATASIZE PUSH1 0x4 PUSH2 0x4900 JUMP JUMPDEST PUSH2 0x9ED JUMP JUMPDEST PUSH1 0x40 MLOAD PUSH2 0xEE SWAP2 SWAP1 PUSH2 0x4E82 JUMP JUMPDEST PUSH2 0x1E4 PUSH2 0x1DF CALLDATASIZE PUSH1 0x4 PUSH2 0x4A4B JUMP JUMPDEST PUSH2 0xA14 JUMP JUMPDEST PUSH1 0x40 MLOAD PUSH2 0xEE SWAP4 SWAP3 SWAP2 SWAP1 PUSH2 0x4CAB JUMP JUMPDEST PUSH2 0x206 PUSH2 0x201 CALLDATASIZE PUSH1 0x4 PUSH2 0x48E6 JUMP JUMPDEST PUSH2 0xAEF JUMP JUMPDEST PUSH1 0x40 MLOAD PUSH2 0xEE SWAP2 SWAP1 PUSH2 0x4EAB JUMP JUMPDEST PUSH2 0x226 PUSH2 0x221 CALLDATASIZE PUSH1 0x4 PUSH2 0x4A19 JUMP JUMPDEST PUSH2 0xB00 JUMP JUMPDEST PUSH1 0x40 MLOAD PUSH2 0xEE SWAP3 SWAP2 SWAP1 PUSH2 0x4C9D JUMP JUMPDEST DUP3 PUSH1 0x1 PUSH1 0x1 PUSH1 0xA0 SHL SUB AND DUP3 PUSH1 0x1 PUSH1 0x1 PUSH1 0xA0 SHL SUB AND EQ ISZERO PUSH2 0x253 JUMPI PUSH1 0x0 DUP1 REVERT JUMPDEST PUSH1 0x0 PUSH2 0x25E DUP5 PUSH2 0xB3E JUMP JUMPDEST SWAP1 POP PUSH1 0x0 PUSH2 0x26C DUP5 DUP4 PUSH2 0xB69 JUMP JUMPDEST SWAP1 POP PUSH1 0x0 PUSH2 0x27E DUP4 DUP4 PUSH1 0x20 ADD MLOAD PUSH2 0xC18 JUMP JUMPDEST SWAP1 POP DUP2 PUSH1 0x80 ADD MLOAD PUSH1 0x0 EQ PUSH2 0x291 JUMPI PUSH1 0x0 DUP1 REVERT JUMPDEST PUSH2 0x29B DUP6 DUP8 PUSH2 0xCA3 JUMP JUMPDEST PUSH1 0x0 DUP1 PUSH2 0x2B3 DUP6 DUP5 DUP10 DUP8 PUSH1 0x40 ADD MLOAD DUP9 PUSH1 0x0 ADD MLOAD PUSH2 0xD18 JUMP JUMPDEST SWAP2 POP SWAP2 POP DUP6 DUP1 ISZERO PUSH2 0x2CC JUMPI POP PUSH1 0x20 DUP5 ADD MLOAD PUSH5 0xFFFFFFFFFF EQ JUMPDEST ISZERO PUSH2 0x338 JUMPI PUSH1 0x40 DUP6 ADD MLOAD PUSH2 0x160 DUP7 ADD MLOAD PUSH2 0x2E5 SWAP2 PUSH2 0xDC7 JUMP JUMPDEST PUSH2 0x140 DUP6 ADD MLOAD MLOAD PUSH2 0xFFFF AND ISZERO PUSH2 0x30F JUMPI PUSH2 0x140 DUP6 ADD MLOAD MLOAD PUSH2 0x30F SWAP1 DUP3 PUSH1 0x0 JUMPDEST PUSH1 0x20 MUL ADD MLOAD SWAP1 PUSH2 0xDC7 JUMP JUMPDEST PUSH2 0x140 DUP6 ADD MLOAD PUSH1 0x20 ADD MLOAD PUSH2 0xFFFF AND ISZERO PUSH2 0x338 JUMPI PUSH2 0x140 DUP6 ADD MLOAD PUSH1 0x20 ADD MLOAD PUSH2 0x338 SWAP1 DUP3 PUSH1 0x1 PUSH2 0x304 JUMP JUMPDEST PUSH1 0x40 DUP5 ADD MLOAD ISZERO PUSH2 0x370 JUMPI DUP5 PUSH2 0x180 ADD MLOAD DUP3 SGT ISZERO PUSH2 0x370 JUMPI PUSH1 0x40 MLOAD PUSH3 0x461BCD PUSH1 0xE5 SHL DUP2 MSTORE PUSH1 0x4 ADD PUSH2 0x367 SWAP1 PUSH2 0x4D1D JUMP JUMPDEST PUSH1 0x40 MLOAD DUP1 SWAP2 SUB SWAP1 REVERT JUMPDEST DUP2 DUP6 PUSH1 0xA0 ADD MLOAD SGT ISZERO PUSH2 0x394 JUMPI PUSH1 0x40 MLOAD PUSH3 0x461BCD PUSH1 0xE5 SHL DUP2 MSTORE PUSH1 0x4 ADD PUSH2 0x367 SWAP1 PUSH2 0x4D4B JUMP JUMPDEST POP POP POP POP POP POP POP POP JUMP JUMPDEST PUSH2 0x3A6 PUSH2 0x4347 JUMP JUMPDEST PUSH1 0x0 PUSH2 0x3B1 DUP5 PUSH2 0xE11 JUMP JUMPDEST SWAP1 POP PUSH2 0x3BD DUP2 DUP5 PUSH2 0xC18 JUMP JUMPDEST SWAP2 POP TIMESTAMP DUP4 GT PUSH2 0x3F8 JUMPI PUSH1 0x40 DUP2 ADD MLOAD PUSH1 0x20 DUP4 ADD MLOAD PUSH2 0x160 DUP4 ADD MLOAD PUSH2 0x3F2 SWAP3 PUSH2 0x3E6 SWAP3 DUP8 SWAP1 TIMESTAMP PUSH2 0xE3E JUMP JUMPDEST PUSH2 0x160 DUP4 ADD MLOAD SWAP1 PUSH2 0xE65 JUMP JUMPDEST PUSH1 0x20 DUP4 ADD MSTORE JUMPDEST POP SWAP3 SWAP2 POP POP JUMP JUMPDEST PUSH1 0x0 DUP1 PUSH1 0x0 DUP1 PUSH1 0x0 PUSH2 0x410 DUP7 PUSH2 0xEB4 JUMP JUMPDEST SWAP4 POP SWAP4 POP SWAP4 POP SWAP4 POP PUSH1 0x0 PUSH2 0x423 DUP3 PUSH2 0xE11 JUMP JUMPDEST SWAP1 POP PUSH1 0x0 PUSH2 0x42F PUSH2 0xEF7 JUMP JUMPDEST PUSH1 0x1 PUSH1 0x1 PUSH1 0xA0 SHL SUB DUP11 DUP2 AND PUSH1 0x0 SWAP1 DUP2 MSTORE PUSH1 0x20 DUP4 DUP2 MSTORE PUSH1 0x40 DUP1 DUP4 KECCAK256 DUP8 MLOAD SWAP1 SWAP5 AND DUP4 MSTORE SWAP3 SWAP1 MSTORE KECCAK256 DUP1 SLOAD SWAP2 SWAP3 POP SWAP1 PUSH1 0x1 PUSH1 0xA0 SHL SWAP1 DIV PUSH5 0xFFFFFFFFFF AND DUP6 DUP2 EQ PUSH2 0x480 JUMPI PUSH1 0x0 SWAP9 POP POP POP POP POP POP POP POP POP PUSH2 0x668 JUMP JUMPDEST PUSH1 0x9 DUP9 EQ ISZERO PUSH2 0x4A9 JUMPI POP SLOAD PUSH1 0x1 PUSH1 0x50 SHL SWAP1 DIV PUSH1 0x1 PUSH1 0x1 PUSH1 0x50 SHL SUB AND SWAP7 POP PUSH2 0x668 SWAP6 POP POP POP POP POP POP JUMP JUMPDEST DUP4 PUSH1 0x40 ADD MLOAD PUSH2 0xFFFF AND DUP8 PUSH2 0xFFFF AND EQ DUP1 ISZERO PUSH2 0x4C4 JUMPI POP PUSH1 0xA DUP9 EQ JUMPDEST ISZERO PUSH2 0x4E2 JUMPI POP SLOAD PUSH1 0x1 PUSH1 0x1 PUSH1 0x50 SHL SUB AND SWAP7 POP PUSH2 0x668 SWAP6 POP POP POP POP POP POP JUMP JUMPDEST DUP4 PUSH1 0x40 ADD MLOAD PUSH2 0xFFFF AND DUP8 PUSH2 0xFFFF AND EQ DUP1 ISZERO PUSH2 0x4FD JUMPI POP PUSH1 0xB DUP9 EQ JUMPDEST ISZERO PUSH2 0x51E JUMPI POP PUSH1 0x1 ADD SLOAD PUSH1 0x1 PUSH1 0x1 PUSH1 0x50 SHL SUB AND SWAP7 POP PUSH2 0x668 SWAP6 POP POP POP POP POP POP JUMP JUMPDEST PUSH2 0x527 DUP5 PUSH2 0xF04 JUMP JUMPDEST ISZERO PUSH2 0x65B JUMPI PUSH1 0x0 DUP1 PUSH1 0xA DUP11 EQ ISZERO PUSH2 0x5DE JUMPI PUSH1 0x0 PUSH2 0x542 PUSH2 0xF31 JUMP JUMPDEST PUSH1 0x0 DUP16 PUSH1 0x1 PUSH1 0x1 PUSH1 0xA0 SHL SUB AND PUSH1 0x1 PUSH1 0x1 PUSH1 0xA0 SHL SUB AND DUP2 MSTORE PUSH1 0x20 ADD SWAP1 DUP2 MSTORE PUSH1 0x20 ADD PUSH1 0x0 KECCAK256 PUSH1 0x0 DUP9 PUSH1 0x0 ADD MLOAD PUSH1 0x1 PUSH1 0x1 PUSH1 0xA0 SHL SUB AND PUSH1 0x1 PUSH1 0x1 PUSH1 0xA0 SHL SUB AND DUP2 MSTORE PUSH1 0x20 ADD SWAP1 DUP2 MSTORE PUSH1 0x20 ADD PUSH1 0x0 KECCAK256 SWAP1 POP DUP1 PUSH1 0x0 ADD PUSH1 0x5 SWAP1 SLOAD SWAP1 PUSH2 0x100 EXP SWAP1 DIV PUSH1 0x1 PUSH1 0x1 PUSH1 0x50 SHL SUB AND PUSH1 0x1 PUSH1 0x1 PUSH1 0x50 SHL SUB AND DUP2 PUSH1 0x0 ADD PUSH1 0xF SWAP1 SLOAD SWAP1 PUSH2 0x100 EXP SWAP1 DIV PUSH1 0x1 PUSH1 0x1 PUSH1 0x50 SHL SUB AND PUSH1 0x1 PUSH1 0x1 PUSH1 0x50 SHL SUB AND DUP1 SWAP4 POP DUP2 SWAP5 POP POP POP POP PUSH2 0x609 JUMP JUMPDEST PUSH1 0xB DUP11 EQ ISZERO PUSH2 0x609 JUMPI POP POP PUSH1 0x1 DUP3 ADD SLOAD PUSH1 0x1 PUSH1 0x1 PUSH1 0x50 SHL SUB PUSH1 0x1 PUSH1 0x50 SHL DUP3 DIV DUP2 AND SWAP2 PUSH1 0x1 PUSH1 0xA0 SHL SWAP1 DIV AND JUMPDEST PUSH2 0x140 DUP7 ADD MLOAD MLOAD PUSH2 0xFFFF DUP11 DUP2 AND SWAP2 AND EQ ISZERO PUSH2 0x62F JUMPI POP SWAP9 POP PUSH2 0x668 SWAP8 POP POP POP POP POP POP POP POP JUMP JUMPDEST PUSH2 0x140 DUP7 ADD MLOAD PUSH1 0x20 ADD MLOAD PUSH2 0xFFFF DUP11 DUP2 AND SWAP2 AND EQ ISZERO PUSH2 0x658 JUMPI SWAP10 POP PUSH2 0x668 SWAP9 POP POP POP POP POP POP POP POP POP JUMP JUMPDEST POP POP JUMPDEST PUSH1 0x0 SWAP9 POP POP POP POP POP POP POP POP POP JUMPDEST SWAP3 SWAP2 POP POP JUMP JUMPDEST PUSH1 0x0 DUP1 PUSH1 0x0 DUP1 PUSH2 0x67D DUP7 PUSH2 0xE11 JUMP JUMPDEST SWAP1 POP PUSH1 0x0 PUSH2 0x689 PUSH2 0xF3E JUMP JUMPDEST PUSH1 0x1 PUSH1 0x1 PUSH1 0xA0 SHL SUB DUP9 AND PUSH1 0x0 SWAP1 DUP2 MSTORE PUSH1 0x20 SWAP2 DUP3 MSTORE PUSH1 0x40 DUP1 DUP3 KECCAK256 PUSH2 0xFFFF DUP11 AND DUP4 MSTORE SWAP1 SWAP3 MSTORE KECCAK256 DUP1 SLOAD PUSH1 0x1 PUSH1 0x1 PUSH1 0x50 SHL SUB PUSH1 0x1 PUSH1 0x50 SHL DUP3 DIV DUP2 AND SWAP7 POP AND SWAP4 POP SWAP1 POP PUSH2 0x6CF PUSH2 0x4371 JUMP JUMPDEST DUP3 PUSH1 0x40 ADD MLOAD PUSH2 0xFFFF AND DUP8 PUSH2 0xFFFF AND EQ ISZERO PUSH2 0x6EF JUMPI POP PUSH2 0x160 DUP3 ADD MLOAD PUSH2 0x6FD JUMP JUMPDEST PUSH2 0x6F9 DUP8 TIMESTAMP PUSH2 0xF4B JUMP JUMPDEST POP SWAP1 POP JUMPDEST PUSH2 0x718 PUSH2 0x713 PUSH2 0x70E DUP6 DUP5 DUP12 PUSH2 0x1009 JUMP JUMPDEST PUSH2 0x10B8 JUMP JUMPDEST PUSH2 0x10C6 JUMP JUMPDEST SWAP6 POP POP POP POP SWAP3 POP SWAP3 POP SWAP3 JUMP JUMPDEST PUSH2 0x72C PUSH2 0x4392 JUMP JUMPDEST PUSH1 0x0 DUP1 PUSH2 0x738 DUP5 PUSH2 0xE11 JUMP JUMPDEST SWAP1 POP PUSH2 0x744 DUP6 DUP3 PUSH2 0xB69 JUMP JUMPDEST PUSH1 0x20 DUP2 ADD MLOAD SWAP1 SWAP4 POP PUSH5 0xFFFFFFFFFF EQ ISZERO PUSH2 0x7B1 JUMPI PUSH1 0xA0 DUP4 ADD MLOAD DUP4 MLOAD PUSH2 0x160 DUP4 ADD MLOAD PUSH2 0x797 SWAP2 PUSH2 0x78B SWAP2 DUP8 SWAP2 PUSH2 0x77C SWAP2 PUSH2 0x70E SWAP2 PUSH2 0x10D9 JUMP JUMPDEST PUSH1 0x20 DUP9 ADD MLOAD DUP7 SWAP3 SWAP2 SWAP1 TIMESTAMP PUSH2 0x10FD JUMP JUMPDEST PUSH2 0x160 DUP5 ADD MLOAD SWAP1 PUSH2 0xE65 JUMP JUMPDEST PUSH1 0xA0 DUP6 ADD DUP3 SWAP1 MSTORE DUP5 MLOAD SWAP1 SWAP4 POP PUSH2 0x7AD SWAP1 DUP5 PUSH2 0x1193 JUMP JUMPDEST DUP5 MSTORE POP JUMPDEST POP SWAP3 POP SWAP3 SWAP1 POP JUMP JUMPDEST PUSH1 0x0 DUP1 PUSH2 0x7C4 PUSH2 0x11A9 JUMP JUMPDEST PUSH1 0x1 PUSH1 0x1 PUSH1 0xA0 SHL SUB DUP7 AND PUSH1 0x0 SWAP1 DUP2 MSTORE PUSH1 0x20 SWAP2 DUP3 MSTORE PUSH1 0x40 DUP1 DUP3 KECCAK256 DUP7 DUP4 MSTORE DUP4 MSTORE DUP1 DUP3 KECCAK256 PUSH2 0xFFFF DUP9 AND DUP4 MSTORE SWAP1 SWAP3 MSTORE SWAP1 DUP2 KECCAK256 SWAP2 POP PUSH2 0x7FE DUP6 TIMESTAMP PUSH2 0xF4B JUMP JUMPDEST POP DUP3 SLOAD PUSH1 0x1 PUSH1 0x1 PUSH1 0x50 SHL SUB AND PUSH1 0x0 SUB SWAP4 POP SWAP1 POP PUSH5 0xFFFFFFFFFF DUP5 EQ ISZERO PUSH2 0x82F JUMPI PUSH2 0x828 DUP2 DUP5 PUSH2 0x11B6 JUMP JUMPDEST SWAP3 POP PUSH2 0x850 JUMP JUMPDEST TIMESTAMP DUP5 GT PUSH2 0x850 JUMPI PUSH2 0x84D PUSH2 0x846 DUP3 DUP8 DUP8 DUP8 TIMESTAMP PUSH2 0xE3E JUMP JUMPDEST DUP3 SWAP1 PUSH2 0xE65 JUMP JUMPDEST SWAP3 POP JUMPDEST POP POP SWAP4 SWAP3 POP POP POP JUMP JUMPDEST PUSH2 0x861 PUSH2 0x43D1 JUMP JUMPDEST PUSH2 0x869 PUSH2 0x43FE JUMP JUMPDEST PUSH2 0x871 PUSH2 0x43FE JUMP JUMPDEST PUSH1 0x0 PUSH2 0x87C DUP6 PUSH2 0xE11 JUMP JUMPDEST SWAP1 POP PUSH1 0x0 PUSH2 0x88A DUP8 DUP4 PUSH2 0xB69 JUMP JUMPDEST SWAP1 POP PUSH1 0x0 PUSH2 0x89C DUP4 DUP4 PUSH1 0x20 ADD MLOAD PUSH2 0xC18 JUMP JUMPDEST SWAP1 POP PUSH2 0x8A6 PUSH2 0x441C JUMP JUMPDEST PUSH2 0x8AF DUP5 PUSH2 0xF04 JUMP JUMPDEST ISZERO PUSH2 0x8C1 JUMPI PUSH2 0x8BE DUP5 TIMESTAMP PUSH2 0x120E JUMP JUMPDEST SWAP1 POP JUMPDEST PUSH2 0x8C9 PUSH2 0x4371 JUMP JUMPDEST PUSH2 0x8D5 DUP6 DUP6 DUP6 DUP6 PUSH2 0x1272 JUMP JUMPDEST PUSH1 0x40 DUP7 ADD MLOAD SWAP2 SWAP10 POP SWAP2 POP PUSH1 0x0 SWAP1 PUSH2 0x8EB SWAP1 PUSH2 0x13A1 JUMP JUMPDEST SWAP1 POP DUP6 PUSH1 0xA0 ADD MLOAD DUP10 PUSH1 0x0 ADD MLOAD SLT ISZERO PUSH2 0x96A JUMPI PUSH2 0x913 DUP7 DUP11 DUP5 PUSH1 0x0 DUP6 PUSH1 0x1 PUSH1 0x1 PUSH1 0xFF SHL SUB PUSH2 0x13B7 JUMP JUMPDEST DUP9 MSTORE DUP9 MSTORE PUSH2 0x920 DUP7 PUSH2 0xF04 JUMP JUMPDEST ISZERO PUSH2 0x96A JUMPI PUSH2 0x93B DUP7 DUP11 DUP5 PUSH1 0x1 DUP6 PUSH1 0x1 PUSH1 0x1 PUSH1 0xFF SHL SUB PUSH2 0x13B7 JUMP JUMPDEST PUSH1 0x20 DUP10 DUP2 ADD SWAP2 SWAP1 SWAP2 MSTORE DUP10 ADD MSTORE PUSH2 0x95D DUP7 DUP11 DUP5 PUSH1 0x2 DUP6 PUSH1 0x1 PUSH1 0x1 PUSH1 0xFF SHL SUB PUSH2 0x13B7 JUMP JUMPDEST PUSH1 0x40 DUP10 DUP2 ADD SWAP2 SWAP1 SWAP2 MSTORE DUP10 ADD MSTORE JUMPDEST POP POP POP POP POP POP SWAP3 POP SWAP3 POP SWAP3 JUMP JUMPDEST PUSH1 0x0 PUSH2 0x981 PUSH2 0x4449 JUMP JUMPDEST PUSH2 0x989 PUSH2 0x4449 JUMP JUMPDEST PUSH1 0x0 PUSH2 0x994 DUP6 PUSH2 0xE11 JUMP JUMPDEST SWAP1 POP PUSH1 0x0 PUSH2 0x9A2 DUP3 TIMESTAMP PUSH2 0x120E JUMP JUMPDEST SWAP1 POP PUSH1 0x0 PUSH2 0x9B0 DUP9 DUP5 PUSH2 0xB69 JUMP JUMPDEST SWAP1 POP PUSH2 0x9BD DUP4 DUP10 DUP5 PUSH2 0x154F JUMP JUMPDEST PUSH1 0x20 DUP9 ADD MSTORE DUP7 MSTORE PUSH1 0x60 DUP3 ADD MLOAD DUP5 MLOAD SWAP2 SWAP8 POP PUSH2 0x9D7 SWAP2 PUSH2 0x15E3 JUMP JUMPDEST PUSH1 0x20 DUP7 ADD MSTORE DUP5 MSTORE POP SWAP4 SWAP7 SWAP3 SWAP6 POP SWAP1 SWAP4 POP SWAP1 SWAP2 POP POP JUMP JUMPDEST PUSH2 0x9F5 PUSH2 0x4392 JUMP JUMPDEST PUSH1 0x0 PUSH2 0xA00 DUP4 PUSH2 0xE11 JUMP JUMPDEST SWAP1 POP PUSH2 0xA0C DUP5 DUP3 PUSH2 0xB69 JUMP JUMPDEST SWAP5 SWAP4 POP POP POP POP JUMP JUMPDEST PUSH1 0x0 DUP1 PUSH2 0xA1F PUSH2 0x4371 JUMP JUMPDEST CALLER ADDRESS EQ PUSH2 0xA2B JUMPI PUSH1 0x0 DUP1 REVERT JUMPDEST PUSH2 0x160 DUP7 ADD MLOAD PUSH2 0xA39 PUSH2 0x43D1 JUMP JUMPDEST PUSH2 0xA41 PUSH2 0x4371 JUMP JUMPDEST PUSH2 0xA49 PUSH2 0x441C JUMP JUMPDEST PUSH2 0xA52 DUP11 PUSH2 0xF04 JUMP JUMPDEST ISZERO PUSH2 0xA84 JUMPI PUSH2 0xA60 DUP11 PUSH2 0x1639 JUMP JUMPDEST SWAP1 POP DUP12 ISZERO PUSH2 0xA7F JUMPI DUP1 PUSH1 0x1 DUP14 SUB PUSH1 0x2 DUP2 LT PUSH2 0xA77 JUMPI INVALID JUMPDEST PUSH1 0x20 MUL ADD MLOAD SWAP4 POP JUMPDEST PUSH2 0xA8F JUMP JUMPDEST DUP12 ISZERO PUSH2 0xA8F JUMPI PUSH1 0x0 DUP1 REVERT JUMPDEST PUSH2 0xA9B DUP11 DUP13 DUP12 DUP5 PUSH2 0x1272 JUMP JUMPDEST PUSH1 0xA0 DUP13 ADD MLOAD DUP3 MLOAD SWAP3 SWAP6 POP SWAP1 SWAP4 POP SGT PUSH2 0xAC5 JUMPI PUSH1 0x40 MLOAD PUSH3 0x461BCD PUSH1 0xE5 SHL DUP2 MSTORE PUSH1 0x4 ADD PUSH2 0x367 SWAP1 PUSH2 0x4DB9 JUMP JUMPDEST POP PUSH1 0x0 PUSH2 0xADA DUP11 DUP5 DUP5 DUP16 DUP16 PUSH1 0x40 ADD MLOAD DUP14 PUSH2 0x13B7 JUMP JUMPDEST SWAP1 SWAP14 SWAP1 SWAP13 POP SWAP4 SWAP11 POP SWAP3 SWAP9 POP POP POP POP POP POP POP POP POP JUMP JUMPDEST PUSH2 0xAF7 PUSH2 0x4467 JUMP JUMPDEST PUSH2 0x668 DUP3 PUSH2 0xE11 JUMP JUMPDEST PUSH1 0x0 DUP1 PUSH1 0x0 PUSH2 0xB0F DUP7 TIMESTAMP PUSH2 0xF4B JUMP JUMPDEST POP SWAP1 POP PUSH2 0xB1D DUP2 DUP8 DUP8 PUSH2 0x1699 JUMP JUMPDEST SWAP2 POP PUSH2 0xB33 DUP3 PUSH2 0xB2D DUP4 DUP8 PUSH2 0xE65 JUMP JUMPDEST SWAP1 PUSH2 0x16F7 JUMP JUMPDEST SWAP3 POP POP SWAP4 POP SWAP4 SWAP2 POP POP JUMP JUMPDEST PUSH2 0xB46 PUSH2 0x4467 JUMP JUMPDEST PUSH2 0xB4F DUP3 PUSH2 0x1710 JUMP JUMPDEST SWAP1 POP PUSH2 0xB5E DUP2 PUSH1 0x40 ADD MLOAD PUSH2 0x1903 JUMP JUMPDEST PUSH2 0x160 DUP3 ADD MSTORE SWAP2 SWAP1 POP JUMP JUMPDEST PUSH2 0xB71 PUSH2 0x4392 JUMP JUMPDEST PUSH1 0x0 PUSH2 0xB7B PUSH2 0xEF7 JUMP JUMPDEST PUSH1 0x1 PUSH1 0x1 PUSH1 0xA0 SHL SUB DUP1 DUP7 AND PUSH1 0x0 DUP2 DUP2 MSTORE PUSH1 0x20 DUP5 DUP2 MSTORE PUSH1 0x40 DUP1 DUP4 KECCAK256 DUP10 MLOAD SWAP1 SWAP6 AND DUP4 MSTORE SWAP4 DUP2 MSTORE SWAP1 DUP4 SWAP1 KECCAK256 DUP1 SLOAD PUSH5 0xFFFFFFFFFF PUSH1 0x1 PUSH1 0xA0 SHL DUP3 DIV AND SWAP3 DUP9 ADD DUP4 SWAP1 MSTORE PUSH1 0x1 PUSH1 0x1 PUSH1 0x50 SHL SUB PUSH1 0x1 PUSH1 0x50 SHL DUP3 DIV DUP2 AND SWAP6 DUP10 ADD SWAP6 SWAP1 SWAP6 MSTORE PUSH1 0x60 DUP9 ADD SWAP4 SWAP1 SWAP4 MSTORE PUSH1 0x1 DUP2 ADD SLOAD DUP5 AND PUSH1 0x80 DUP9 ADD MSTORE PUSH4 0xFFFFFFFF PUSH1 0x1 PUSH1 0xC8 SHL DUP5 DIV AND PUSH1 0xA0 DUP9 ADD MSTORE PUSH2 0x160 DUP9 ADD MLOAD SWAP5 SWAP6 POP SWAP4 PUSH2 0xC0D SWAP4 SWAP1 SWAP3 AND PUSH2 0x1915 JUMP JUMPDEST DUP4 MSTORE POP SWAP1 SWAP4 SWAP3 POP POP POP JUMP JUMPDEST PUSH2 0xC20 PUSH2 0x4347 JUMP JUMPDEST PUSH1 0x0 PUSH2 0xC2A PUSH2 0x194B JUMP JUMPDEST DUP5 MLOAD PUSH1 0x1 PUSH1 0x1 PUSH1 0xA0 SHL SUB AND PUSH1 0x0 SWAP1 DUP2 MSTORE PUSH1 0x20 DUP3 DUP2 MSTORE PUSH1 0x40 DUP1 DUP4 KECCAK256 DUP8 DUP5 MSTORE SWAP1 SWAP2 MSTORE SWAP1 DUP2 SWAP1 KECCAK256 DUP6 DUP6 MSTORE DUP1 SLOAD PUSH1 0xFF PUSH1 0x1 PUSH1 0xF0 SHL DUP3 DIV AND ISZERO ISZERO PUSH1 0x60 DUP8 ADD MSTORE PUSH1 0x1 PUSH1 0x1 PUSH1 0x50 SHL SUB PUSH1 0x1 PUSH1 0xA0 SHL DUP3 DIV DUP2 AND SWAP4 DUP8 ADD SWAP4 SWAP1 SWAP4 MSTORE PUSH2 0x160 DUP9 ADD MLOAD SWAP4 SWAP5 POP SWAP1 SWAP3 PUSH2 0xC95 SWAP3 SWAP1 SWAP2 DUP8 SWAP2 AND PUSH2 0x1915 JUMP JUMPDEST PUSH1 0x20 DUP5 ADD MSTORE POP SWAP1 SWAP4 SWAP3 POP POP POP JUMP JUMPDEST PUSH1 0x0 PUSH2 0xCAD PUSH2 0xEF7 JUMP JUMPDEST PUSH1 0x1 PUSH1 0x1 PUSH1 0xA0 SHL SUB DUP5 DUP2 AND PUSH1 0x0 SWAP1 DUP2 MSTORE PUSH1 0x20 SWAP3 DUP4 MSTORE PUSH1 0x40 DUP1 DUP3 KECCAK256 SWAP3 DUP7 AND DUP3 MSTORE SWAP2 SWAP1 SWAP3 MSTORE SWAP1 KECCAK256 PUSH1 0x1 DUP2 ADD SLOAD SWAP1 SWAP2 POP PUSH1 0x1 PUSH1 0x50 SHL SWAP1 DIV PUSH1 0x1 PUSH1 0x1 PUSH1 0x50 SHL SUB AND ISZERO PUSH2 0xCF4 JUMPI PUSH1 0x0 DUP1 REVERT JUMPDEST PUSH1 0x1 DUP2 ADD SLOAD PUSH1 0x1 PUSH1 0xA0 SHL SWAP1 DIV PUSH1 0x1 PUSH1 0x1 PUSH1 0x50 SHL SUB AND ISZERO PUSH2 0xD13 JUMPI PUSH1 0x0 DUP1 REVERT JUMPDEST POP POP POP JUMP JUMPDEST PUSH1 0x0 PUSH2 0xD22 PUSH2 0x441C JUMP JUMPDEST PUSH1 0x0 PUSH2 0xD30 DUP8 DUP10 DUP9 DUP9 PUSH2 0x1958 JUMP JUMPDEST SWAP1 POP PUSH1 0x0 PUSH2 0xD62 DUP10 PUSH2 0x160 ADD MLOAD DUP11 PUSH1 0x40 ADD MLOAD DUP11 PUSH1 0x0 ADD MLOAD DUP9 PUSH2 0xD5D PUSH2 0x200 DUP16 PUSH2 0x1A15 SWAP1 SWAP2 SWAP1 PUSH4 0xFFFFFFFF AND JUMP JUMPDEST PUSH2 0x1A2A JUMP JUMPDEST SWAP1 POP PUSH2 0xD6D DUP10 PUSH2 0xF04 JUMP JUMPDEST ISZERO PUSH2 0xDAF JUMPI PUSH2 0xD7B DUP10 PUSH2 0x1639 JUMP JUMPDEST SWAP3 POP PUSH1 0x0 DUP1 PUSH2 0xD8C DUP12 DUP7 DUP13 DUP13 PUSH2 0x1A90 JUMP JUMPDEST POP POP POP SWAP2 POP SWAP2 POP DUP1 PUSH1 0x0 EQ PUSH2 0xDA0 JUMPI PUSH1 0x0 DUP1 REVERT JUMPDEST PUSH2 0xDAA DUP4 DUP4 PUSH2 0x1ACF JUMP JUMPDEST SWAP3 POP POP POP JUMPDEST PUSH2 0xDB9 DUP3 DUP3 PUSH2 0x1AE5 JUMP JUMPDEST SWAP4 POP POP POP SWAP6 POP SWAP6 SWAP4 POP POP POP POP JUMP JUMPDEST PUSH1 0x0 DUP1 PUSH2 0xDD4 DUP5 DUP5 PUSH2 0x1B1E JUMP JUMPDEST SWAP4 POP SWAP4 POP POP POP DUP2 PUSH1 0x0 EQ ISZERO PUSH2 0xDEA JUMPI POP POP PUSH2 0xE0D JUMP JUMPDEST DUP2 DUP2 GT ISZERO PUSH2 0xE0A JUMPI PUSH1 0x40 MLOAD PUSH3 0x461BCD PUSH1 0xE5 SHL DUP2 MSTORE PUSH1 0x4 ADD PUSH2 0x367 SWAP1 PUSH2 0x4DE8 JUMP JUMPDEST POP POP JUMPDEST POP POP JUMP JUMPDEST PUSH2 0xE19 PUSH2 0x4467 JUMP JUMPDEST PUSH2 0xE22 DUP3 PUSH2 0x1710 JUMP JUMPDEST SWAP1 POP PUSH2 0xE32 DUP2 PUSH1 0x40 ADD MLOAD TIMESTAMP PUSH2 0xF4B JUMP JUMPDEST POP PUSH2 0x160 DUP3 ADD MSTORE SWAP2 SWAP1 POP JUMP JUMPDEST PUSH1 0x0 DUP1 PUSH2 0xE4C DUP7 DUP7 DUP6 PUSH2 0x1BDE JUMP JUMPDEST SWAP1 POP PUSH2 0xE59 DUP8 DUP3 DUP7 PUSH2 0x1C12 JUMP JUMPDEST POP SWAP8 SWAP7 POP POP POP POP POP POP POP JUMP JUMPDEST PUSH1 0x0 DUP1 PUSH2 0xE98 PUSH15 0xC097CE7BC90715B34B9F1000000000 PUSH2 0xE92 DUP7 PUSH1 0x0 ADD MLOAD DUP7 PUSH2 0x1C7B SWAP1 SWAP2 SWAP1 PUSH4 0xFFFFFFFF AND JUMP JUMPDEST SWAP1 PUSH2 0x1CC9 JUMP JUMPDEST SWAP1 POP PUSH1 0x0 DUP4 SLT PUSH2 0xEA8 JUMPI DUP1 PUSH2 0xA0C JUMP JUMPDEST PUSH2 0xA0C DUP2 PUSH1 0x0 NOT PUSH2 0x1CFA JUMP JUMPDEST PUSH1 0xFF DUP2 AND PUSH1 0x0 DUP1 DUP1 PUSH1 0x9 DUP5 LT ISZERO PUSH2 0xED6 JUMPI POP PUSH1 0x0 SWAP3 POP DUP3 SWAP2 POP DUP2 SWAP1 POP DUP1 PUSH2 0xEF0 JUMP JUMPDEST POP POP POP PUSH1 0x30 DUP3 SWAP1 SHR PUSH5 0xFFFFFFFFFF PUSH1 0x8 DUP5 SWAP1 SHR AND PUSH1 0x40 DUP5 SWAP1 SHR JUMPDEST SWAP2 SWAP4 POP SWAP2 SWAP4 JUMP JUMPDEST PUSH1 0x0 DUP1 PUSH2 0x668 PUSH1 0x16 PUSH2 0x1D10 JUMP JUMPDEST PUSH2 0x140 DUP2 ADD MLOAD MLOAD PUSH1 0x0 SWAP1 PUSH2 0xFFFF AND ISZERO ISZERO DUP1 PUSH2 0x668 JUMPI POP POP PUSH2 0x140 DUP2 ADD MLOAD PUSH1 0x20 ADD MLOAD PUSH2 0xFFFF AND ISZERO ISZERO JUMPDEST SWAP2 SWAP1 POP JUMP JUMPDEST PUSH1 0x0 DUP1 PUSH2 0x668 PUSH1 0x1A PUSH2 0x1D10 JUMP JUMPDEST PUSH1 0x0 DUP1 PUSH2 0x668 PUSH1 0x17 PUSH2 0x1D10 JUMP JUMPDEST PUSH2 0xF53 PUSH2 0x4371 JUMP JUMPDEST PUSH2 0xF5B PUSH2 0x4500 JUMP JUMPDEST PUSH2 0xF64 DUP5 PUSH2 0x1D29 JUMP JUMPDEST SWAP1 POP DUP3 DUP2 PUSH1 0x0 ADD MLOAD LT ISZERO PUSH2 0xF95 JUMPI PUSH1 0x0 PUSH2 0xF7D DUP6 PUSH2 0x1DF1 JUMP JUMPDEST SWAP1 POP PUSH2 0xF8B DUP6 DUP4 DUP4 DUP8 PUSH2 0x1E6C JUMP JUMPDEST POP SWAP2 POP PUSH2 0xFA2 SWAP1 POP JUMP JUMPDEST DUP1 MLOAD DUP4 EQ PUSH2 0xFA2 JUMPI PUSH1 0x0 DUP1 REVERT JUMPDEST PUSH1 0x40 MLOAD DUP1 PUSH1 0x60 ADD PUSH1 0x40 MSTORE DUP1 PUSH2 0xFD0 PUSH2 0xFCB DUP5 PUSH1 0xA0 ADD MLOAD DUP6 PUSH1 0xC0 ADD MLOAD PUSH2 0x1F10 SWAP1 SWAP2 SWAP1 PUSH4 0xFFFFFFFF AND JUMP JUMPDEST PUSH2 0x13A1 JUMP JUMPDEST DUP2 MSTORE PUSH1 0x20 ADD PUSH2 0xFF3 PUSH2 0xFCB DUP5 PUSH1 0xA0 ADD MLOAD DUP6 PUSH1 0xE0 ADD MLOAD PUSH2 0x1F10 SWAP1 SWAP2 SWAP1 PUSH4 0xFFFFFFFF AND JUMP JUMPDEST DUP2 MSTORE PUSH1 0x20 ADD DUP3 PUSH1 0x60 ADD MLOAD DUP2 MSTORE POP SWAP2 POP SWAP3 POP SWAP3 SWAP1 POP JUMP JUMPDEST PUSH1 0x0 DUP1 DUP5 PUSH1 0x40 ADD MLOAD PUSH2 0xFFFF AND DUP4 PUSH2 0xFFFF AND EQ ISZERO PUSH2 0x1055 JUMPI PUSH2 0x1028 PUSH2 0x194B JUMP JUMPDEST DUP6 MLOAD PUSH1 0x1 PUSH1 0x1 PUSH1 0xA0 SHL SUB AND PUSH1 0x0 SWAP1 DUP2 MSTORE PUSH1 0x20 SWAP2 DUP3 MSTORE PUSH1 0x40 DUP1 DUP3 KECCAK256 PUSH5 0xFFFFFFFFFF DUP4 MSTORE SWAP1 SWAP3 MSTORE KECCAK256 SWAP1 POP PUSH2 0x1092 JUMP JUMPDEST PUSH2 0x105D PUSH2 0x11A9 JUMP JUMPDEST DUP6 MLOAD PUSH1 0x1 PUSH1 0x1 PUSH1 0xA0 SHL SUB AND PUSH1 0x0 SWAP1 DUP2 MSTORE PUSH1 0x20 SWAP2 DUP3 MSTORE PUSH1 0x40 DUP1 DUP3 KECCAK256 PUSH5 0xFFFFFFFFFF DUP4 MSTORE DUP4 MSTORE DUP1 DUP3 KECCAK256 PUSH2 0xFFFF DUP8 AND DUP4 MSTORE SWAP1 SWAP3 MSTORE KECCAK256 SWAP1 POP JUMPDEST DUP1 SLOAD PUSH2 0x10AF SWAP1 DUP6 SWAP1 PUSH5 0xFFFFFFFFFF SWAP1 PUSH1 0x1 PUSH1 0x1 PUSH1 0x50 SHL SUB AND PUSH2 0x1915 JUMP JUMPDEST SWAP6 SWAP5 POP POP POP POP POP JUMP JUMPDEST PUSH1 0x0 PUSH2 0x668 PUSH1 0x0 NOT DUP4 PUSH2 0x1C7B JUMP JUMPDEST PUSH1 0x0 DUP1 DUP3 SLT ISZERO PUSH2 0x10D5 JUMPI PUSH1 0x0 DUP1 REVERT JUMPDEST POP SWAP1 JUMP JUMPDEST DUP2 MLOAD PUSH1 0x0 SWAP1 DUP2 SWAP1 PUSH2 0xE98 SWAP1 PUSH2 0xE92 DUP6 PUSH15 0xC097CE7BC90715B34B9F1000000000 PUSH2 0x1C7B JUMP JUMPDEST PUSH1 0x0 DUP1 PUSH5 0xFFFFFFFFFF DUP5 EQ ISZERO PUSH2 0x114F JUMPI PUSH1 0x20 DUP7 ADD MLOAD PUSH5 0xFFFFFFFFFF EQ PUSH2 0x1127 JUMPI PUSH1 0x0 SWAP2 POP POP PUSH2 0x10AF JUMP JUMPDEST PUSH2 0x1141 PUSH2 0xFCB DUP8 PUSH1 0xA0 ADD MLOAD DUP6 PUSH2 0x1F37 SWAP1 SWAP2 SWAP1 PUSH4 0xFFFFFFFF AND JUMP JUMPDEST PUSH1 0xA0 DUP8 ADD DUP5 SWAP1 MSTORE SWAP1 POP PUSH2 0x115F JUMP JUMPDEST PUSH2 0x115C PUSH2 0xFCB DUP6 DUP6 PUSH2 0x1F37 JUMP JUMPDEST SWAP1 POP JUMPDEST PUSH1 0x80 DUP8 ADD MLOAD PUSH1 0x0 SWAP1 PUSH2 0x117B SWAP1 PUSH4 0x1DA9C00 SWAP1 PUSH2 0xE92 SWAP1 DUP6 PUSH2 0x1C7B JUMP JUMPDEST SWAP1 POP PUSH2 0x1187 DUP7 DUP3 PUSH2 0x1F4C JUMP JUMPDEST SWAP9 SWAP8 POP POP POP POP POP POP POP POP JUMP JUMPDEST DUP1 DUP3 SUB DUP3 DUP2 SGT ISZERO PUSH1 0x0 DUP4 SLT ISZERO EQ PUSH2 0x668 JUMPI PUSH1 0x0 DUP1 REVERT JUMPDEST PUSH1 0x0 DUP1 PUSH2 0x668 PUSH1 0x18 PUSH2 0x1D10 JUMP JUMPDEST PUSH1 0x0 PUSH1 0x1 DUP3 SLT PUSH2 0x11C5 JUMPI PUSH1 0x0 DUP1 REVERT JUMPDEST DUP2 PUSH2 0x11D2 JUMPI POP PUSH1 0x0 PUSH2 0x668 JUMP JUMPDEST PUSH2 0x1207 PUSH1 0x1 PUSH2 0x1201 PUSH15 0xC097CE7BC90715B34B9F1000000000 PUSH2 0xE92 DUP8 PUSH1 0x20 ADD MLOAD DUP8 PUSH2 0x1C7B SWAP1 SWAP2 SWAP1 PUSH4 0xFFFFFFFF AND JUMP JUMPDEST SWAP1 PUSH2 0x1193 JUMP JUMPDEST SWAP4 SWAP3 POP POP POP JUMP JUMPDEST PUSH2 0x1216 PUSH2 0x441C JUMP JUMPDEST PUSH2 0x140 DUP4 ADD MLOAD MLOAD PUSH2 0xFFFF AND ISZERO PUSH2 0x1242 JUMPI PUSH2 0x140 DUP4 ADD MLOAD PUSH2 0x123E SWAP1 PUSH1 0x0 JUMPDEST PUSH1 0x20 MUL ADD MLOAD DUP4 PUSH2 0xF4B JUMP JUMPDEST POP DUP2 MSTORE JUMPDEST PUSH2 0x140 DUP4 ADD MLOAD PUSH1 0x20 ADD MLOAD PUSH2 0xFFFF AND ISZERO PUSH2 0x668 JUMPI PUSH2 0x140 DUP4 ADD MLOAD PUSH2 0x1266 SWAP1 PUSH1 0x1 PUSH2 0x1233 JUMP JUMPDEST POP PUSH1 0x20 DUP3 ADD MSTORE SWAP3 SWAP2 POP POP JUMP JUMPDEST PUSH2 0x127A PUSH2 0x43D1 JUMP JUMPDEST PUSH2 0x1282 PUSH2 0x4371 JUMP JUMPDEST PUSH2 0x1296 DUP5 DUP8 DUP8 PUSH1 0x60 ADD MLOAD DUP9 PUSH1 0x40 ADD MLOAD PUSH2 0x1958 JUMP JUMPDEST PUSH1 0x40 DUP4 ADD MSTORE PUSH1 0x80 DUP6 ADD MLOAD PUSH2 0x160 DUP8 ADD MLOAD PUSH2 0x12DC SWAP2 PUSH2 0x12B4 SWAP2 SWAP1 PUSH2 0xE65 JUMP JUMPDEST PUSH2 0x160 DUP9 ADD MLOAD PUSH1 0x40 DUP10 ADD MLOAD DUP8 MLOAD DUP10 MLOAD PUSH2 0x12D6 SWAP4 SWAP3 SWAP2 SWAP1 PUSH2 0xD5D DUP14 PUSH2 0x200 PUSH2 0x1A15 JUMP JUMPDEST SWAP1 PUSH2 0x1ACF JUMP JUMPDEST PUSH1 0x60 DUP4 ADD DUP1 MLOAD SWAP2 SWAP1 SWAP2 MSTORE MLOAD MLOAD PUSH1 0x0 SGT ISZERO PUSH2 0x1300 JUMPI PUSH1 0x60 DUP3 ADD MLOAD MLOAD PUSH1 0x20 DUP4 ADD MSTORE PUSH2 0x131A JUMP JUMPDEST PUSH1 0x60 DUP3 ADD MLOAD MLOAD PUSH1 0x40 DUP4 ADD MLOAD PUSH2 0x1314 SWAP2 PUSH2 0x1ACF JUMP JUMPDEST PUSH1 0x40 DUP4 ADD MSTORE JUMPDEST PUSH2 0x1323 DUP7 PUSH2 0xF04 JUMP JUMPDEST ISZERO PUSH2 0x1382 JUMPI PUSH1 0x0 DUP1 PUSH2 0x133B DUP9 DUP7 DUP9 DUP11 PUSH1 0x60 ADD MLOAD PUSH2 0x1A90 JUMP JUMPDEST PUSH1 0x60 DUP10 ADD MLOAD PUSH1 0x40 DUP2 ADD SWAP2 SWAP1 SWAP2 MSTORE PUSH1 0x20 SWAP1 DUP2 ADD SWAP2 SWAP1 SWAP2 MSTORE DUP8 ADD MLOAD SWAP1 SWAP6 POP SWAP2 SWAP4 POP SWAP2 POP PUSH2 0x1366 SWAP1 DUP4 PUSH2 0x1ACF JUMP JUMPDEST PUSH1 0x20 DUP6 ADD MSTORE PUSH1 0x40 DUP5 ADD MLOAD PUSH2 0x137A SWAP1 DUP3 PUSH2 0x1ACF JUMP JUMPDEST PUSH1 0x40 DUP6 ADD MSTORE POP POP JUMPDEST PUSH2 0x1394 DUP3 PUSH1 0x40 ADD MLOAD DUP4 PUSH1 0x20 ADD MLOAD PUSH2 0x1AE5 JUMP JUMPDEST DUP3 MSTORE SWAP1 SWAP6 SWAP1 SWAP5 POP SWAP3 POP POP POP JUMP JUMPDEST PUSH1 0x0 PUSH1 0x1 PUSH1 0x1 PUSH1 0xFF SHL SUB DUP3 GT ISZERO PUSH2 0x10D5 JUMPI PUSH1 0x0 DUP1 REVERT JUMPDEST PUSH1 0x0 DUP1 PUSH1 0x0 DUP8 PUSH1 0x40 ADD MLOAD SGT PUSH2 0x13D1 JUMPI POP PUSH1 0x0 SWAP1 POP DUP1 PUSH2 0x1544 JUMP JUMPDEST PUSH1 0x0 DUP6 PUSH2 0x13E3 JUMPI POP PUSH1 0x60 DUP9 ADD MLOAD PUSH2 0x142D JUMP JUMPDEST DUP9 PUSH2 0x140 ADD MLOAD PUSH1 0x1 DUP8 SUB PUSH1 0x2 DUP2 LT PUSH2 0x13F7 JUMPI INVALID JUMPDEST PUSH1 0x20 MUL ADD MLOAD PUSH2 0xFFFF AND PUSH2 0x1411 JUMPI PUSH1 0x0 DUP1 SWAP3 POP SWAP3 POP POP PUSH2 0x1544 JUMP JUMPDEST DUP9 PUSH2 0x1A0 ADD MLOAD PUSH1 0x1 DUP8 SUB PUSH1 0x2 DUP2 LT PUSH2 0x1425 JUMPI INVALID JUMPDEST PUSH1 0x20 MUL ADD MLOAD SWAP1 POP JUMPDEST DUP7 MLOAD PUSH1 0x0 SWAP1 ISZERO PUSH2 0x143F JUMPI DUP8 MLOAD DUP1 PUSH2 0x1443 JUMP JUMPDEST PUSH1 0x1 DUP1 JUMPDEST DUP10 MSTORE SWAP1 POP PUSH1 0x1 DUP8 EQ ISZERO PUSH2 0x145B JUMPI POP PUSH1 0x20 DUP8 ADD MLOAD PUSH2 0x146B JUMP JUMPDEST DUP7 PUSH1 0x2 EQ ISZERO PUSH2 0x146B JUMPI POP PUSH1 0x40 DUP8 ADD MLOAD JUMPDEST PUSH1 0x0 PUSH2 0x14AC DUP12 DUP12 PUSH1 0x40 ADD MLOAD PUSH2 0x1483 DUP14 PUSH1 0x20 ADD MLOAD PUSH2 0x10B8 JUMP JUMPDEST PUSH2 0x14A0 DUP15 PUSH1 0x60 ADD MLOAD DUP14 PUSH1 0x3 DUP2 LT PUSH2 0x1496 JUMPI INVALID JUMPDEST PUSH1 0x20 MUL ADD MLOAD PUSH2 0x10B8 JUMP JUMPDEST DUP8 DUP8 DUP16 PUSH1 0x0 ADD MLOAD PUSH2 0x1F65 JUMP JUMPDEST SWAP1 POP DUP1 DUP7 SLT ISZERO PUSH2 0x1500 JUMPI PUSH1 0x0 PUSH2 0x14CF DUP8 PUSH2 0x1201 DUP14 PUSH1 0x60 ADD MLOAD DUP13 PUSH1 0x3 DUP2 LT PUSH2 0x1496 JUMPI INVALID JUMPDEST SWAP1 POP DUP1 ISZERO DUP1 PUSH2 0x14DE JUMPI POP DUP1 DUP5 SGT ISZERO JUMPDEST PUSH2 0x14FA JUMPI PUSH1 0x40 MLOAD PUSH3 0x461BCD PUSH1 0xE5 SHL DUP2 MSTORE PUSH1 0x4 ADD PUSH2 0x367 SWAP1 PUSH2 0x4D82 JUMP JUMPDEST POP PUSH2 0x1504 JUMP JUMPDEST DUP1 SWAP6 POP JUMPDEST PUSH1 0x0 PUSH2 0x1521 DUP4 PUSH2 0xE92 DUP13 PUSH1 0x0 ADD MLOAD DUP11 PUSH2 0x1C7B SWAP1 SWAP2 SWAP1 PUSH4 0xFFFFFFFF AND JUMP JUMPDEST SWAP1 POP PUSH1 0x0 PUSH2 0x1539 DUP10 DUP15 PUSH1 0xC0 ADD MLOAD DUP15 PUSH1 0x40 ADD MLOAD DUP6 PUSH2 0x205B JUMP JUMPDEST DUP9 SWAP8 POP SWAP6 POP POP POP POP POP POP JUMPDEST SWAP7 POP SWAP7 SWAP5 POP POP POP POP POP JUMP JUMPDEST PUSH1 0x0 DUP1 PUSH1 0x0 DUP1 PUSH2 0x155D PUSH2 0xF31 JUMP JUMPDEST PUSH1 0x1 PUSH1 0x1 PUSH1 0xA0 SHL SUB DUP8 DUP2 AND PUSH1 0x0 SWAP1 DUP2 MSTORE PUSH1 0x20 SWAP3 DUP4 MSTORE PUSH1 0x40 DUP1 DUP3 KECCAK256 DUP12 MLOAD SWAP1 SWAP4 AND DUP3 MSTORE SWAP2 SWAP1 SWAP3 MSTORE SWAP1 KECCAK256 DUP1 SLOAD DUP7 MLOAD PUSH5 0xFFFFFFFFFF DUP3 AND SWAP7 POP SWAP2 SWAP3 POP PUSH2 0x15B1 SWAP2 SWAP1 DUP7 SWAP1 PUSH1 0x1 PUSH1 0x28 SHL SWAP1 DIV PUSH1 0x1 PUSH1 0x1 PUSH1 0x50 SHL SUB AND PUSH2 0x1915 JUMP JUMPDEST SWAP3 POP PUSH2 0x15D7 DUP6 PUSH1 0x1 PUSH1 0x20 MUL ADD MLOAD DUP3 SLOAD DUP7 SWAP1 PUSH1 0x1 PUSH1 0x78 SHL SWAP1 DIV PUSH1 0x1 PUSH1 0x1 PUSH1 0x50 SHL SUB AND PUSH2 0x1915 JUMP JUMPDEST SWAP2 POP POP SWAP4 POP SWAP4 POP SWAP4 SWAP1 POP JUMP JUMPDEST PUSH1 0x0 DUP1 PUSH1 0x0 PUSH2 0x15F0 PUSH2 0xEF7 JUMP JUMPDEST PUSH1 0x1 PUSH1 0x1 PUSH1 0xA0 SHL SUB SWAP6 DUP7 AND PUSH1 0x0 SWAP1 DUP2 MSTORE PUSH1 0x20 SWAP2 DUP3 MSTORE PUSH1 0x40 DUP1 DUP3 KECCAK256 SWAP7 SWAP1 SWAP8 AND DUP2 MSTORE SWAP5 SWAP1 MSTORE POP POP POP KECCAK256 PUSH1 0x1 ADD SLOAD PUSH1 0x1 PUSH1 0x1 PUSH1 0x50 SHL SUB PUSH1 0x1 PUSH1 0x50 SHL DUP3 DIV DUP2 AND SWAP3 PUSH1 0x1 PUSH1 0xA0 SHL SWAP1 SWAP3 DIV AND SWAP1 JUMP JUMPDEST PUSH2 0x1641 PUSH2 0x441C JUMP JUMPDEST PUSH2 0x140 DUP3 ADD MLOAD MLOAD PUSH2 0xFFFF AND ISZERO PUSH2 0x166B JUMPI PUSH2 0x140 DUP3 ADD MLOAD PUSH2 0x1668 SWAP1 PUSH1 0x0 JUMPDEST PUSH1 0x20 MUL ADD MLOAD PUSH2 0x1903 JUMP JUMPDEST DUP2 MSTORE JUMPDEST PUSH2 0x140 DUP3 ADD MLOAD PUSH1 0x20 ADD MLOAD PUSH2 0xFFFF AND ISZERO PUSH2 0xF2C JUMPI PUSH2 0x140 DUP3 ADD MLOAD PUSH2 0x168F SWAP1 PUSH1 0x1 PUSH2 0x165E JUMP JUMPDEST PUSH1 0x20 DUP3 ADD MSTORE SWAP2 SWAP1 POP JUMP JUMPDEST PUSH1 0x0 DUP1 PUSH2 0x16A6 DUP5 DUP7 PUSH2 0x2078 JUMP JUMPDEST SWAP1 POP PUSH1 0x0 PUSH2 0x16B5 DUP3 DUP6 TIMESTAMP PUSH2 0x20BB JUMP JUMPDEST SWAP1 POP PUSH1 0x0 PUSH2 0x16C2 DUP4 PUSH2 0x21A4 JUMP JUMPDEST SWAP1 POP DUP1 DUP3 GT ISZERO PUSH2 0x16E6 JUMPI PUSH2 0x16E1 PUSH2 0x16D9 DUP7 TIMESTAMP PUSH2 0x1F37 JUMP JUMPDEST DUP3 DUP5 SUB PUSH2 0x21B1 JUMP JUMPDEST PUSH2 0x16EC JUMP JUMPDEST PUSH4 0x3B9ACA00 JUMPDEST SWAP8 SWAP7 POP POP POP POP POP POP POP JUMP JUMPDEST PUSH1 0x0 PUSH2 0x1207 PUSH2 0x170A DUP5 PUSH4 0x3B9ACA00 PUSH2 0x1C7B JUMP JUMPDEST DUP4 PUSH2 0x1CC9 JUMP JUMPDEST PUSH2 0x1718 PUSH2 0x4467 JUMP JUMPDEST PUSH1 0x0 PUSH2 0x1722 PUSH2 0x221E JUMP JUMPDEST PUSH1 0x1 PUSH1 0x1 PUSH1 0xA0 SHL SUB DUP5 AND PUSH1 0x0 DUP2 DUP2 MSTORE PUSH1 0x20 DUP4 DUP2 MSTORE PUSH1 0x40 SWAP2 DUP3 SWAP1 KECCAK256 SWAP3 DUP7 MSTORE DUP3 SLOAD PUSH2 0xFFFF DUP1 DUP3 AND SWAP3 DUP9 ADD SWAP3 SWAP1 SWAP3 MSTORE PUSH3 0x10000 SWAP1 DIV AND SWAP1 DUP6 ADD MSTORE SWAP1 SWAP2 POP PUSH2 0x177E PUSH2 0x2710 PUSH4 0x3B9ACA00 DUP4 SLOAD PUSH1 0x1 PUSH1 0x50 SHL SWAP1 DIV PUSH1 0xFF AND SWAP2 SWAP1 SDIV PUSH1 0x5 MUL PUSH2 0x1F10 JUMP JUMPDEST PUSH1 0x80 DUP5 ADD MSTORE DUP1 SLOAD PUSH2 0x17A2 SWAP1 PUSH9 0x10000000000000000 SWAP1 DIV PUSH2 0xFFFF AND PUSH3 0x186A0 PUSH2 0x1F10 JUMP JUMPDEST PUSH1 0xA0 DUP5 ADD MSTORE DUP1 SLOAD PUSH2 0x17C1 SWAP1 PUSH1 0x1 PUSH1 0x70 SHL SWAP1 DIV PUSH2 0xFFFF AND PUSH3 0x186A0 PUSH2 0x1F10 JUMP JUMPDEST PUSH2 0x120 DUP5 ADD MSTORE PUSH1 0x2 DUP2 ADD SLOAD PUSH2 0x17DD SWAP1 PUSH2 0xFFFF AND PUSH3 0x186A0 PUSH2 0x1F10 JUMP JUMPDEST PUSH2 0x180 DUP5 ADD MSTORE DUP1 SLOAD PUSH1 0x64 SWAP1 PUSH1 0xFF PUSH1 0x1 PUSH1 0x58 SHL SWAP1 SWAP2 DIV AND PUSH4 0x3B9ACA00 MUL SDIV PUSH1 0xC0 DUP5 ADD MSTORE DUP1 SLOAD PUSH1 0x1 PUSH1 0x60 SHL DUP2 DIV PUSH1 0xFF SWAP1 DUP2 AND PUSH1 0xE0 DUP7 ADD MSTORE PUSH1 0x1 PUSH1 0x68 SHL SWAP1 SWAP2 DIV AND PUSH2 0x100 DUP5 ADD MSTORE PUSH1 0x40 DUP1 MLOAD DUP1 DUP3 ADD SWAP2 DUP3 SWAP1 MSTORE SWAP1 PUSH1 0x1 DUP4 ADD SWAP1 PUSH1 0x2 SWAP1 DUP3 PUSH1 0x0 DUP6 JUMPDEST DUP3 DUP3 SWAP1 SLOAD SWAP1 PUSH2 0x100 EXP SWAP1 DIV PUSH2 0xFFFF AND PUSH2 0xFFFF AND DUP2 MSTORE PUSH1 0x20 ADD SWAP1 PUSH1 0x2 ADD SWAP1 PUSH1 0x20 DUP3 PUSH1 0x1 ADD DIV SWAP3 DUP4 ADD SWAP3 PUSH1 0x1 SUB DUP3 MUL SWAP2 POP DUP1 DUP5 GT PUSH2 0x183A JUMPI POP POP POP POP POP PUSH2 0x140 DUP6 ADD SWAP2 SWAP1 SWAP2 MSTORE POP PUSH1 0x4 DUP2 ADD SLOAD PUSH1 0xFF AND PUSH2 0x1C0 DUP5 ADD MSTORE DUP1 SLOAD PUSH2 0x18A6 SWAP1 PUSH5 0x100000000 SWAP1 DIV PUSH4 0xFFFFFFFF AND PUSH2 0x222B JUMP JUMPDEST PUSH1 0x60 DUP5 ADD MSTORE PUSH2 0x18DC PUSH1 0x3 DUP3 ADD PUSH1 0x0 JUMPDEST PUSH1 0x8 SWAP2 DUP3 DUP3 DIV ADD SWAP2 SWAP1 MOD PUSH1 0x4 MUL SWAP1 SLOAD SWAP1 PUSH2 0x100 EXP SWAP1 DIV PUSH4 0xFFFFFFFF AND PUSH4 0xFFFFFFFF AND PUSH2 0x222B JUMP JUMPDEST PUSH2 0x1A0 DUP5 ADD MLOAD MSTORE PUSH2 0x18F1 PUSH1 0x3 DUP3 ADD PUSH1 0x1 PUSH2 0x18B5 JUMP JUMPDEST PUSH2 0x1A0 DUP5 ADD MLOAD PUSH1 0x20 ADD MSTORE POP SWAP1 SWAP3 SWAP2 POP POP JUMP JUMPDEST PUSH2 0x190B PUSH2 0x4371 JUMP JUMPDEST PUSH2 0x668 DUP3 TIMESTAMP PUSH2 0x2239 JUMP JUMPDEST PUSH1 0x0 PUSH5 0xFFFFFFFFFF DUP4 EQ PUSH2 0x1935 JUMPI DUP2 PUSH1 0x1 PUSH1 0x1 PUSH1 0x50 SHL SUB AND PUSH1 0x0 SUB PUSH2 0xA0C JUMP JUMPDEST PUSH2 0xA0C DUP5 PUSH1 0x1 PUSH1 0x1 PUSH1 0x50 SHL SUB DUP5 AND PUSH1 0x0 SUB PUSH2 0x11B6 JUMP JUMPDEST PUSH1 0x0 DUP1 PUSH2 0x668 PUSH1 0x15 PUSH2 0x1D10 JUMP JUMPDEST PUSH1 0x0 DUP2 PUSH2 0x1967 JUMPI POP PUSH1 0x0 PUSH2 0xA0C JUMP JUMPDEST PUSH1 0x0 PUSH2 0x197A DUP6 PUSH1 0x40 ADD MLOAD PUSH2 0xFFFF AND PUSH2 0x22FA JUMP JUMPDEST DUP6 MLOAD DUP8 MLOAD PUSH1 0x40 MLOAD PUSH4 0xE9377111 PUSH1 0xE0 SHL DUP2 MSTORE SWAP3 SWAP4 POP PUSH2 0x1A0B SWAP3 PUSH1 0x1 PUSH1 0x1 PUSH1 0xA0 SHL SUB SWAP1 SWAP3 AND SWAP2 PUSH4 0xE9377111 SWAP2 PUSH2 0x19B4 SWAP2 DUP10 SWAP2 DUP10 SWAP2 PUSH1 0x4 ADD PUSH2 0x4C73 JUMP JUMPDEST PUSH1 0x20 PUSH1 0x40 MLOAD DUP1 DUP4 SUB DUP2 DUP7 DUP1 EXTCODESIZE ISZERO DUP1 ISZERO PUSH2 0x19CC JUMPI PUSH1 0x0 DUP1 REVERT JUMPDEST POP GAS STATICCALL ISZERO DUP1 ISZERO PUSH2 0x19E0 JUMPI RETURNDATASIZE PUSH1 0x0 DUP1 RETURNDATACOPY RETURNDATASIZE PUSH1 0x0 REVERT JUMPDEST POP POP POP POP PUSH1 0x40 MLOAD RETURNDATASIZE PUSH1 0x1F NOT PUSH1 0x1F DUP3 ADD AND DUP3 ADD DUP1 PUSH1 0x40 MSTORE POP DUP2 ADD SWAP1 PUSH2 0x1A04 SWAP2 SWAP1 PUSH2 0x4A01 JUMP JUMPDEST DUP3 SWAP1 PUSH2 0x230D JUMP JUMPDEST SWAP7 SWAP6 POP POP POP POP POP POP JUMP JUMPDEST PUSH1 0x20 SWAP2 SWAP1 SWAP2 ADD MLOAD DUP2 AND PUSH2 0xFFFF SWAP1 DUP2 AND SWAP2 AND EQ SWAP1 JUMP JUMPDEST PUSH1 0x0 TIMESTAMP DUP5 GT PUSH2 0x1A51 JUMPI PUSH2 0x1A4A PUSH2 0x1A43 DUP8 DUP8 DUP8 DUP8 TIMESTAMP PUSH2 0xE3E JUMP JUMPDEST DUP8 SWAP1 PUSH2 0xE65 JUMP JUMPDEST SWAP1 POP PUSH2 0x10AF JUMP JUMPDEST DUP2 DUP1 ISZERO PUSH2 0x1A63 JUMPI POP PUSH5 0xFFFFFFFFFF DUP5 EQ ISZERO JUMPDEST ISZERO PUSH2 0x1A86 JUMPI PUSH1 0x0 PUSH2 0x1A74 DUP7 DUP9 PUSH2 0x2078 JUMP JUMPDEST SWAP1 POP PUSH2 0x1A82 DUP2 DUP6 DUP8 TIMESTAMP PUSH2 0x233D JUMP JUMPDEST SWAP4 POP POP JUMPDEST POP SWAP1 SWAP5 SWAP4 POP POP POP POP JUMP JUMPDEST PUSH1 0x0 DUP1 PUSH2 0x1A9B PUSH2 0x4371 JUMP JUMPDEST PUSH1 0x0 DUP1 PUSH2 0x1AA7 DUP10 PUSH2 0x23AB JUMP JUMPDEST SWAP3 POP PUSH2 0x1ABA DUP10 DUP10 DUP6 DUP10 DUP12 PUSH1 0x0 ADD MLOAD PUSH2 0x2447 JUMP JUMPDEST SWAP1 SWAP13 SWAP1 SWAP12 POP SWAP5 SWAP10 POP SWAP1 SWAP8 POP SWAP6 POP SWAP2 SWAP4 POP POP POP POP JUMP JUMPDEST DUP2 DUP2 ADD DUP3 DUP2 SLT ISZERO PUSH1 0x0 DUP4 SLT ISZERO EQ PUSH2 0x668 JUMPI PUSH1 0x0 DUP1 REVERT JUMPDEST PUSH1 0x0 DUP1 PUSH2 0x1AF2 DUP5 DUP5 PUSH2 0x1ACF JUMP JUMPDEST SWAP1 POP PUSH1 0x0 DUP4 SLT PUSH2 0x1B0B JUMPI PUSH1 0x1 PUSH1 0x1 PUSH1 0xFF SHL SUB SWAP2 POP PUSH2 0x3F8 JUMP JUMPDEST PUSH2 0xA0C PUSH2 0x1B17 DUP5 PUSH2 0x10B8 JUMP JUMPDEST DUP3 SWAP1 PUSH2 0x16F7 JUMP JUMPDEST PUSH1 0x0 DUP1 PUSH1 0x0 DUP1 PUSH1 0x0 PUSH2 0x1B2E PUSH2 0x2528 JUMP JUMPDEST PUSH2 0xFFFF DUP8 AND PUSH1 0x0 SWAP1 DUP2 MSTORE PUSH1 0x20 SWAP2 SWAP1 SWAP2 MSTORE PUSH1 0x40 SWAP1 KECCAK256 PUSH1 0x1 DUP2 ADD SLOAD SWAP1 SWAP2 POP PUSH2 0x1B60 SWAP1 PUSH1 0x1 PUSH1 0x58 SHL SWAP1 DIV PUSH4 0xFFFFFFFF AND PUSH2 0x222B JUMP JUMPDEST PUSH1 0x1 DUP3 ADD SLOAD SWAP1 SWAP6 POP PUSH2 0x1B8A SWAP1 PUSH1 0x64 SWAP1 PUSH2 0x1B84 SWAP1 DUP9 SWAP1 PUSH1 0x1 PUSH1 0x78 SHL SWAP1 DIV PUSH1 0xFF AND PUSH2 0x1F10 JUMP JUMPDEST SWAP1 PUSH2 0x2535 JUMP JUMPDEST DUP2 SLOAD SWAP1 SWAP4 POP PUSH1 0x1 PUSH1 0x28 SHL SWAP1 DIV PUSH1 0x1 PUSH1 0x1 PUSH1 0x58 SHL SUB AND PUSH2 0x1BAC PUSH2 0x713 DUP10 DUP4 PUSH2 0xE65 JUMP JUMPDEST PUSH1 0x1 DUP4 ADD SLOAD SWAP1 SWAP6 POP PUSH1 0x1 PUSH1 0x1 PUSH1 0x58 SHL SUB AND PUSH1 0x0 SUB PUSH2 0x1BD0 PUSH2 0x713 PUSH2 0x70E DUP12 DUP5 PUSH2 0x11B6 JUMP JUMPDEST SWAP4 POP POP POP POP SWAP3 SWAP6 SWAP2 SWAP5 POP SWAP3 POP JUMP JUMPDEST PUSH2 0x1BE6 PUSH2 0x4371 JUMP JUMPDEST PUSH1 0x0 PUSH2 0x1BF2 DUP6 DUP6 PUSH2 0x2554 JUMP JUMPDEST SWAP1 SWAP3 POP SWAP1 POP DUP1 PUSH2 0x1C0A JUMPI PUSH2 0x1C06 DUP6 DUP5 PUSH2 0xF4B JUMP JUMPDEST POP SWAP2 POP JUMPDEST POP SWAP4 SWAP3 POP POP POP JUMP JUMPDEST PUSH1 0x0 DUP1 PUSH2 0x1C1F DUP5 DUP5 PUSH2 0x10D9 JUMP JUMPDEST SWAP2 POP PUSH2 0x1C2B DUP5 DUP4 PUSH2 0x25E7 JUMP JUMPDEST SWAP1 POP PUSH1 0x0 DUP3 SLT ISZERO PUSH2 0x1C73 JUMPI PUSH2 0x1C70 PUSH1 0x1 PUSH2 0x1201 DUP8 PUSH1 0x0 ADD MLOAD PUSH2 0xE92 DUP10 PUSH1 0x20 ADD MLOAD PUSH2 0x1C6A DUP11 PUSH1 0x20 ADD MLOAD PUSH2 0xE92 DUP13 PUSH1 0x0 ADD MLOAD DUP12 PUSH2 0x1C7B SWAP1 SWAP2 SWAP1 PUSH4 0xFFFFFFFF AND JUMP JUMPDEST SWAP1 PUSH2 0x1C7B JUMP JUMPDEST SWAP2 POP JUMPDEST SWAP4 POP SWAP4 SWAP2 POP POP JUMP JUMPDEST DUP2 DUP2 MUL PUSH1 0x0 NOT DUP4 EQ ISZERO PUSH2 0x1CAB JUMPI DUP2 ISZERO DUP1 PUSH2 0x1C9D JUMPI POP DUP3 DUP3 DUP3 DUP2 PUSH2 0x1C9A JUMPI INVALID JUMPDEST SDIV EQ JUMPDEST PUSH2 0x1CA6 JUMPI PUSH1 0x0 DUP1 REVERT JUMPDEST PUSH2 0x668 JUMP JUMPDEST DUP3 ISZERO DUP1 PUSH2 0x1CC0 JUMPI POP DUP2 DUP4 DUP3 DUP2 PUSH2 0x1CBD JUMPI INVALID JUMPDEST SDIV EQ JUMPDEST PUSH2 0x668 JUMPI PUSH1 0x0 DUP1 REVERT JUMPDEST PUSH1 0x0 DUP2 PUSH1 0x0 NOT EQ DUP1 ISZERO PUSH2 0x1CDF JUMPI POP PUSH1 0x1 PUSH1 0xFF SHL DUP4 EQ JUMPDEST ISZERO PUSH2 0x1CE9 JUMPI PUSH1 0x0 DUP1 REVERT JUMPDEST DUP2 DUP4 DUP2 PUSH2 0x1CF2 JUMPI INVALID JUMPDEST SDIV SWAP4 SWAP3 POP POP POP JUMP JUMPDEST PUSH1 0x0 DUP2 DUP4 SLT PUSH2 0x1D09 JUMPI DUP2 PUSH2 0x1207 JUMP JUMPDEST POP SWAP1 SWAP2 SWAP1 POP JUMP JUMPDEST PUSH1 0x0 PUSH3 0xF4240 DUP3 PUSH1 0x26 DUP2 GT ISZERO PUSH2 0x1D22 JUMPI INVALID JUMPDEST ADD SWAP3 SWAP2 POP POP JUMP JUMPDEST PUSH2 0x1D31 PUSH2 0x4500 JUMP JUMPDEST PUSH1 0x0 PUSH2 0x1D3B PUSH2 0x2528 JUMP JUMPDEST PUSH2 0xFFFF SWAP4 DUP5 AND PUSH1 0x0 SWAP1 DUP2 MSTORE PUSH1 0x20 SWAP2 DUP3 MSTORE PUSH1 0x40 SWAP1 DUP2 SWAP1 KECCAK256 DUP1 SLOAD PUSH5 0xFFFFFFFFFF DUP2 AND DUP7 MSTORE PUSH1 0x1 PUSH1 0x28 SHL DUP2 DIV PUSH1 0x1 PUSH1 0x1 PUSH1 0x58 SHL SUB SWAP1 DUP2 AND SWAP5 DUP8 ADD SWAP5 SWAP1 SWAP5 MSTORE PUSH1 0x1 DUP3 ADD SLOAD DUP5 AND SWAP3 DUP7 ADD SWAP3 SWAP1 SWAP3 MSTORE PUSH1 0x1 PUSH1 0xD8 SHL DUP3 DIV PUSH4 0xFFFFFFFF AND PUSH1 0x60 DUP7 ADD MSTORE PUSH1 0x1 PUSH1 0x80 SHL SWAP1 SWAP2 DIV SWAP1 SWAP2 AND PUSH1 0x80 DUP5 ADD MSTORE PUSH1 0x2 ADD SLOAD PUSH1 0x1 PUSH1 0x1 PUSH1 0x50 SHL SUB DUP1 DUP3 AND PUSH1 0xA0 DUP6 ADD MSTORE PUSH1 0x1 PUSH1 0x50 SHL DUP3 DIV DUP2 AND PUSH1 0xC0 DUP6 ADD MSTORE PUSH1 0x1 PUSH1 0xA0 SHL DUP3 DIV AND PUSH1 0xE0 DUP5 ADD MSTORE PUSH1 0x1 PUSH1 0xF0 SHL SWAP1 DIV PUSH1 0xFF AND PUSH2 0x12C MUL SWAP1 SWAP3 AND PUSH2 0x100 DUP3 ADD MSTORE SWAP2 SWAP1 POP JUMP JUMPDEST PUSH1 0x0 DUP1 PUSH2 0x1DFD DUP4 PUSH2 0x261A JUMP JUMPDEST PUSH1 0x1 PUSH1 0x1 PUSH1 0xA0 SHL SUB AND PUSH4 0xA77C05B8 PUSH1 0x40 MLOAD DUP2 PUSH4 0xFFFFFFFF AND PUSH1 0xE0 SHL DUP2 MSTORE PUSH1 0x4 ADD PUSH1 0x40 DUP1 MLOAD DUP1 DUP4 SUB DUP2 DUP7 DUP1 EXTCODESIZE ISZERO DUP1 ISZERO PUSH2 0x1E34 JUMPI PUSH1 0x0 DUP1 REVERT JUMPDEST POP GAS STATICCALL ISZERO DUP1 ISZERO PUSH2 0x1E48 JUMPI RETURNDATASIZE PUSH1 0x0 DUP1 RETURNDATACOPY RETURNDATASIZE PUSH1 0x0 REVERT JUMPDEST POP POP POP POP PUSH1 0x40 MLOAD RETURNDATASIZE PUSH1 0x1F NOT PUSH1 0x1F DUP3 ADD AND DUP3 ADD DUP1 PUSH1 0x40 MSTORE POP DUP2 ADD SWAP1 PUSH2 0xA0C SWAP2 SWAP1 PUSH2 0x4B0D JUMP JUMPDEST PUSH2 0x1E74 PUSH2 0x4500 JUMP JUMPDEST PUSH1 0x0 DUP1 PUSH1 0x0 PUSH2 0x1E84 DUP9 DUP7 DUP10 PUSH2 0x264A JUMP JUMPDEST PUSH1 0xC0 DUP12 ADD SWAP3 SWAP1 SWAP3 MSTORE PUSH1 0xE0 DUP11 ADD SWAP3 SWAP1 SWAP3 MSTORE PUSH1 0x20 DUP10 ADD MLOAD SWAP2 SWAP4 POP SWAP2 POP PUSH2 0x1EA8 SWAP1 DUP4 PUSH2 0x2755 JUMP JUMPDEST PUSH1 0x20 DUP9 ADD MSTORE PUSH1 0x80 DUP8 ADD MLOAD PUSH1 0x0 SWAP1 ISZERO PUSH2 0x1ED6 JUMPI PUSH1 0x80 DUP9 ADD MLOAD PUSH2 0x1ED3 SWAP1 PUSH2 0x1ECD DUP10 DUP3 PUSH2 0x1F37 JUMP JUMPDEST SWAP1 PUSH2 0x2767 JUMP JUMPDEST SWAP1 POP JUMPDEST PUSH2 0x1EF6 PUSH2 0x1EEB PUSH8 0xDE0B6B3A7640000 DUP4 PUSH2 0x2755 JUMP JUMPDEST PUSH1 0xA0 DUP11 ADD MLOAD SWAP1 PUSH2 0x2784 JUMP JUMPDEST PUSH1 0xA0 DUP10 ADD MSTORE POP POP PUSH1 0x80 DUP7 ADD SWAP5 SWAP1 SWAP5 MSTORE POP POP DUP3 MSTORE SWAP1 SWAP3 SWAP1 SWAP2 POP JUMP JUMPDEST PUSH1 0x0 DUP3 PUSH2 0x1F1F JUMPI POP PUSH1 0x0 PUSH2 0x668 JUMP JUMPDEST DUP3 DUP3 MUL DUP3 DUP5 DUP3 DUP2 PUSH2 0x1F2C JUMPI INVALID JUMPDEST DIV EQ PUSH2 0x1207 JUMPI PUSH1 0x0 DUP1 REVERT JUMPDEST PUSH1 0x0 DUP3 DUP3 GT ISZERO PUSH2 0x1F46 JUMPI PUSH1 0x0 DUP1 REVERT JUMPDEST POP SWAP1 SUB SWAP1 JUMP JUMPDEST PUSH1 0x0 PUSH2 0x1207 PUSH2 0x1F5B DUP5 DUP5 PUSH2 0x1C7B JUMP JUMPDEST PUSH4 0x3B9ACA00 PUSH2 0x1CC9 JUMP JUMPDEST PUSH1 0x0 DUP1 DUP6 SGT PUSH2 0x1F76 JUMPI POP PUSH1 0x0 PUSH2 0x16EC JUMP JUMPDEST PUSH2 0x120 DUP9 ADD MLOAD PUSH1 0x0 SWAP1 PUSH2 0x1F8D SWAP1 PUSH4 0x3B9ACA00 PUSH2 0x1ACF JUMP JUMPDEST SWAP1 POP PUSH1 0x0 PUSH2 0x1FB9 PUSH2 0x1FAB DUP12 PUSH1 0xC0 ADD MLOAD DUP5 PUSH2 0x1193 SWAP1 SWAP2 SWAP1 PUSH4 0xFFFFFFFF AND JUMP JUMPDEST PUSH2 0xB2D DUP12 PUSH2 0x1201 DUP13 DUP8 PUSH2 0x1F4C JUMP JUMPDEST SWAP1 POP PUSH2 0x1FC9 DUP5 PUSH2 0xE92 DUP4 DUP9 PUSH2 0x1C7B JUMP JUMPDEST SWAP3 POP PUSH1 0x0 PUSH2 0x1FD7 DUP9 DUP6 PUSH2 0x1193 JUMP JUMPDEST SWAP1 POP DUP4 DUP9 SLT DUP1 PUSH2 0x1FE6 JUMPI POP DUP7 DUP2 SLT JUMPDEST ISZERO PUSH2 0x1FFF JUMPI DUP8 SWAP4 POP PUSH2 0x1FFC DUP7 PUSH2 0xE92 DUP7 DUP9 PUSH2 0x1C7B JUMP JUMPDEST SWAP2 POP JUMPDEST PUSH1 0x0 PUSH2 0x201C DUP12 PUSH2 0xE92 DUP15 PUSH1 0xC0 ADD MLOAD DUP7 PUSH2 0x1C7B SWAP1 SWAP2 SWAP1 PUSH4 0xFFFFFFFF AND JUMP JUMPDEST SWAP1 POP PUSH4 0x3B9ACA00 DUP2 SLT PUSH2 0x204C JUMPI PUSH1 0xC0 DUP13 ADD MLOAD PUSH2 0x2039 SWAP1 DUP13 SWAP1 PUSH2 0x16F7 JUMP JUMPDEST SWAP3 POP PUSH2 0x2049 DUP7 PUSH2 0xE92 DUP6 DUP11 PUSH2 0x1C7B JUMP JUMPDEST SWAP5 POP JUMPDEST POP POP POP POP SWAP8 SWAP7 POP POP POP POP POP POP POP JUMP JUMPDEST PUSH1 0x0 PUSH2 0x10AF PUSH2 0x713 PUSH4 0x3B9ACA00 PUSH2 0xE92 DUP7 DUP2 DUP8 PUSH2 0x1C6A DUP13 DUP13 PUSH2 0x1C7B JUMP JUMPDEST PUSH2 0x2080 PUSH2 0x454C JUMP JUMPDEST PUSH1 0x0 PUSH2 0x208F DUP5 PUSH2 0xFFFF AND PUSH2 0x27A1 JUMP JUMPDEST PUSH1 0x40 DUP1 MLOAD PUSH1 0x80 DUP2 ADD DUP3 MSTORE PUSH2 0xFFFF SWAP7 SWAP1 SWAP7 AND DUP7 MSTORE PUSH1 0xFF DUP3 AND PUSH1 0x20 DUP8 ADD MSTORE DUP6 ADD SWAP4 SWAP1 SWAP4 MSTORE POP POP PUSH1 0x60 DUP3 ADD MSTORE SWAP1 JUMP JUMPDEST PUSH1 0x0 DUP1 PUSH1 0x0 PUSH2 0x20CF DUP7 PUSH1 0x20 ADD MLOAD DUP7 DUP7 PUSH2 0x27BE JUMP JUMPDEST SWAP2 POP SWAP2 POP PUSH1 0x0 PUSH2 0x20DE DUP8 PUSH2 0x2845 JUMP JUMPDEST SWAP1 POP DUP2 PUSH2 0x20FE JUMPI DUP7 MLOAD PUSH2 0x20F7 SWAP1 PUSH2 0xFFFF AND DUP8 DUP4 DUP9 PUSH2 0x2859 JUMP JUMPDEST SWAP4 POP PUSH2 0x219A JUMP JUMPDEST PUSH1 0x0 PUSH2 0x2109 DUP7 PUSH2 0x28F8 JUMP JUMPDEST SWAP1 POP PUSH1 0x0 PUSH2 0x2120 PUSH2 0x2119 DUP7 PUSH2 0x2916 JUMP JUMPDEST DUP4 SWAP1 PUSH2 0x2755 JUMP JUMPDEST SWAP1 POP PUSH1 0x0 PUSH2 0x2138 DUP11 PUSH1 0x0 ADD MLOAD PUSH2 0xFFFF AND DUP4 DUP7 DUP12 PUSH2 0x2859 JUMP JUMPDEST SWAP1 POP PUSH1 0x0 DUP1 DUP8 PUSH1 0x1 EQ ISZERO PUSH2 0x2156 JUMPI POP POP PUSH1 0x40 DUP1 DUP12 ADD MLOAD ADD MLOAD DUP9 PUSH2 0x2185 JUMP JUMPDEST PUSH2 0x216C PUSH2 0x2165 PUSH1 0x1 DUP11 SUB PUSH2 0x2916 JUMP JUMPDEST DUP7 SWAP1 PUSH2 0x2755 JUMP JUMPDEST SWAP1 POP PUSH2 0x2182 DUP13 PUSH1 0x0 ADD MLOAD PUSH2 0xFFFF AND DUP3 DUP9 DUP14 PUSH2 0x2859 JUMP JUMPDEST SWAP2 POP JUMPDEST PUSH2 0x2192 DUP2 DUP6 DUP5 DUP7 DUP16 PUSH2 0x29BA JUMP JUMPDEST SWAP9 POP POP POP POP POP POP JUMPDEST POP POP POP SWAP4 SWAP3 POP POP POP JUMP JUMPDEST PUSH1 0x0 PUSH2 0x668 DUP3 PUSH1 0x40 PUSH2 0x2A17 JUMP JUMPDEST PUSH1 0x0 DUP1 PUSH2 0x21CE PUSH2 0x21C9 PUSH4 0x1DA9C00 PUSH2 0x1B84 DUP7 DUP9 PUSH2 0x1F10 JUMP JUMPDEST PUSH2 0x2A2A JUMP JUMPDEST SWAP1 POP PUSH2 0x21E0 DUP2 PUSH3 0x1DCD65 PUSH1 0x49 SHL PUSH2 0x2A48 JUMP JUMPDEST SWAP1 POP PUSH2 0x21F3 PUSH2 0x21EE DUP3 PUSH2 0x2A9B JUMP JUMPDEST PUSH2 0x2ABD JUMP JUMPDEST SWAP1 POP PUSH2 0x2205 DUP2 PUSH3 0x1DCD65 PUSH1 0x49 SHL PUSH2 0x2B12 JUMP JUMPDEST SWAP1 POP PUSH1 0x0 PUSH2 0x2212 DUP3 PUSH2 0x2B48 JUMP JUMPDEST PUSH1 0x7 SIGNEXTEND SWAP6 SWAP5 POP POP POP POP POP JUMP JUMPDEST PUSH1 0x0 DUP1 PUSH2 0x668 PUSH1 0x14 PUSH2 0x1D10 JUMP JUMPDEST PUSH1 0x8 DUP2 SWAP1 SHR PUSH1 0xFF SWAP1 SWAP2 AND SHL SWAP1 JUMP JUMPDEST PUSH2 0x2241 PUSH2 0x4371 JUMP JUMPDEST PUSH1 0x0 PUSH2 0x224C DUP5 PUSH2 0x1D29 JUMP JUMPDEST SWAP1 POP DUP3 DUP2 PUSH1 0x0 ADD MLOAD LT ISZERO PUSH2 0x228B JUMPI PUSH1 0x0 DUP1 PUSH2 0x2266 DUP7 PUSH2 0x2B51 JUMP JUMPDEST SWAP1 POP PUSH2 0x2274 DUP7 DUP5 DUP4 DUP9 PUSH2 0x1E6C JUMP JUMPDEST SWAP1 SWAP4 POP SWAP2 POP PUSH2 0x2284 DUP7 DUP4 DUP6 PUSH2 0x2BAA JUMP JUMPDEST POP POP PUSH2 0x2298 JUMP JUMPDEST DUP1 MLOAD DUP4 EQ PUSH2 0x2298 JUMPI PUSH1 0x0 DUP1 REVERT JUMPDEST PUSH1 0x40 MLOAD DUP1 PUSH1 0x60 ADD PUSH1 0x40 MSTORE DUP1 PUSH2 0x22C1 PUSH2 0xFCB DUP5 PUSH1 0xA0 ADD MLOAD DUP6 PUSH1 0xC0 ADD MLOAD PUSH2 0x1F10 SWAP1 SWAP2 SWAP1 PUSH4 0xFFFFFFFF AND JUMP JUMPDEST DUP2 MSTORE PUSH1 0x20 ADD PUSH2 0x22E4 PUSH2 0xFCB DUP5 PUSH1 0xA0 ADD MLOAD DUP6 PUSH1 0xE0 ADD MLOAD PUSH2 0x1F10 SWAP1 SWAP2 SWAP1 PUSH4 0xFFFFFFFF AND JUMP JUMPDEST DUP2 MSTORE PUSH1 0x20 ADD DUP3 PUSH1 0x60 ADD MLOAD DUP2 MSTORE POP SWAP2 POP POP SWAP3 SWAP2 POP POP JUMP JUMPDEST PUSH2 0x2302 PUSH2 0x4578 JUMP JUMPDEST PUSH2 0x668 DUP3 PUSH1 0x1 PUSH2 0x2DDE JUMP JUMPDEST PUSH1 0x0 PUSH4 0x5F5E100 DUP4 PUSH1 0x40 ADD MLOAD EQ ISZERO PUSH2 0x2326 JUMPI POP DUP1 PUSH2 0x668 JUMP JUMPDEST PUSH1 0x40 DUP4 ADD MLOAD PUSH2 0x1207 SWAP1 PUSH2 0xE92 DUP5 PUSH4 0x5F5E100 PUSH2 0x1C7B JUMP JUMPDEST PUSH1 0x0 DUP4 PUSH2 0x234C JUMPI POP PUSH1 0x0 PUSH2 0xA0C JUMP JUMPDEST PUSH1 0x0 DUP1 DUP6 SGT PUSH2 0x2365 JUMPI PUSH2 0x2360 DUP7 DUP6 DUP6 PUSH2 0x2E78 JUMP JUMPDEST PUSH2 0x2370 JUMP JUMPDEST PUSH2 0x2370 DUP7 DUP6 DUP6 PUSH2 0x2EB4 JUMP JUMPDEST SWAP1 POP PUSH4 0x3B9ACA00 DUP2 SGT ISZERO PUSH2 0x2383 JUMPI PUSH1 0x0 DUP1 REVERT JUMPDEST PUSH1 0x0 PUSH2 0x238F DUP7 DUP4 PUSH2 0x1F4C JUMP JUMPDEST SWAP1 POP PUSH1 0x0 DUP7 SLT PUSH2 0x239F JUMPI DUP1 PUSH2 0x16EC JUMP JUMPDEST PUSH2 0x16EC DUP2 PUSH1 0x0 NOT PUSH2 0x1CFA JUMP JUMPDEST PUSH2 0x23B3 PUSH2 0x4371 JUMP JUMPDEST PUSH1 0x0 PUSH2 0x23C6 DUP4 PUSH1 0x40 ADD MLOAD PUSH2 0xFFFF AND PUSH2 0x2EF1 JUMP JUMPDEST DUP1 MLOAD DUP4 MSTORE PUSH2 0x140 DUP5 ADD MLOAD MLOAD SWAP1 SWAP2 POP PUSH2 0xFFFF AND ISZERO PUSH2 0x240F JUMPI PUSH2 0x2409 DUP2 PUSH2 0x2404 DUP6 PUSH2 0x140 ADD MLOAD PUSH1 0x0 PUSH1 0x2 DUP2 LT PUSH2 0x23F6 JUMPI INVALID JUMPDEST PUSH1 0x20 MUL ADD MLOAD PUSH2 0xFFFF AND PUSH2 0x2EF1 JUMP JUMPDEST PUSH2 0x3054 JUMP JUMPDEST PUSH1 0x20 DUP4 ADD MSTORE JUMPDEST PUSH2 0x140 DUP4 ADD MLOAD PUSH1 0x20 ADD MLOAD PUSH2 0xFFFF AND ISZERO PUSH2 0x2441 JUMPI PUSH2 0x243B DUP2 PUSH2 0x2404 DUP6 PUSH2 0x140 ADD MLOAD PUSH1 0x1 PUSH1 0x2 DUP2 LT PUSH2 0x23F6 JUMPI INVALID JUMPDEST PUSH1 0x40 DUP4 ADD MSTORE JUMPDEST POP SWAP2 SWAP1 POP JUMP JUMPDEST PUSH1 0x0 DUP1 PUSH1 0x0 DUP1 PUSH1 0x0 DUP1 PUSH2 0x245E DUP9 DUP13 PUSH1 0x0 ADD MLOAD PUSH2 0x15E3 JUMP JUMPDEST SWAP2 POP SWAP2 POP PUSH2 0x246D DUP12 DUP10 DUP13 PUSH2 0x154F JUMP JUMPDEST SWAP1 SWAP8 POP SWAP6 POP PUSH1 0x0 SWAP1 POP PUSH2 0x2482 DUP13 PUSH2 0x200 PUSH2 0x1A15 JUMP JUMPDEST PUSH2 0x140 DUP14 ADD MLOAD MLOAD SWAP1 SWAP2 POP PUSH2 0xFFFF AND ISZERO PUSH2 0x24C4 JUMPI PUSH2 0x24C1 PUSH2 0x24AB DUP5 DUP14 PUSH1 0x0 JUMPDEST PUSH1 0x20 MUL ADD MLOAD SWAP1 PUSH2 0xE65 JUMP JUMPDEST DUP13 MLOAD PUSH2 0x140 DUP16 ADD MLOAD MLOAD PUSH2 0x12D6 SWAP2 SWAP1 DUP13 DUP13 DUP8 PUSH2 0x1A2A JUMP JUMPDEST SWAP7 POP JUMPDEST PUSH2 0x140 DUP13 ADD MLOAD PUSH1 0x20 ADD MLOAD PUSH2 0xFFFF AND ISZERO PUSH2 0x2508 JUMPI PUSH2 0x2505 PUSH2 0x24E6 DUP4 DUP14 PUSH1 0x1 PUSH2 0x24A0 JUMP JUMPDEST PUSH1 0x20 DUP14 ADD MLOAD PUSH2 0x140 DUP16 ADD MLOAD PUSH2 0x12D6 SWAP2 SWAP1 PUSH1 0x1 PUSH1 0x20 MUL ADD MLOAD DUP13 DUP12 DUP8 PUSH2 0x1A2A JUMP JUMPDEST SWAP6 POP JUMPDEST PUSH2 0x2513 DUP11 DUP9 DUP9 PUSH2 0x3079 JUMP JUMPDEST SWAP8 SWAP14 SWAP7 SWAP13 POP SWAP11 POP SWAP6 SWAP9 POP SWAP4 SWAP7 POP POP POP POP POP POP POP JUMP JUMPDEST PUSH1 0x0 DUP1 PUSH2 0x668 PUSH1 0x1D PUSH2 0x1D10 JUMP JUMPDEST PUSH1 0x0 DUP1 DUP3 GT PUSH2 0x2543 JUMPI PUSH1 0x0 DUP1 REVERT JUMPDEST DUP2 DUP4 DUP2 PUSH2 0x254C JUMPI INVALID JUMPDEST DIV SWAP4 SWAP3 POP POP POP JUMP JUMPDEST PUSH2 0x255C PUSH2 0x4371 JUMP JUMPDEST PUSH1 0x0 DUP1 PUSH2 0x2567 PUSH2 0x312B JUMP JUMPDEST PUSH2 0xFFFF DUP7 AND PUSH1 0x0 SWAP1 DUP2 MSTORE PUSH1 0x20 DUP3 DUP2 MSTORE PUSH1 0x40 DUP1 DUP4 KECCAK256 DUP9 DUP5 MSTORE SWAP1 SWAP2 MSTORE SWAP1 KECCAK256 DUP1 SLOAD PUSH1 0x1 PUSH1 0xF0 SHL SWAP1 DIV PUSH1 0xFF AND SWAP4 POP SWAP1 SWAP2 POP DUP3 ISZERO PUSH2 0x25DE JUMPI DUP1 SLOAD PUSH1 0x1 PUSH1 0x1 PUSH1 0x50 SHL SUB PUSH1 0x1 PUSH1 0xA0 SHL DUP3 DIV DUP2 AND SWAP2 PUSH2 0x25B9 SWAP2 AND DUP3 PUSH2 0x1F10 JUMP JUMPDEST DUP6 MSTORE DUP2 SLOAD PUSH2 0x25D7 SWAP1 PUSH1 0x1 PUSH1 0x50 SHL SWAP1 DIV PUSH1 0x1 PUSH1 0x1 PUSH1 0x50 SHL SUB AND DUP3 PUSH2 0x1F10 JUMP JUMPDEST PUSH1 0x20 DUP7 ADD MSTORE POP JUMPDEST POP POP SWAP3 POP SWAP3 SWAP1 POP JUMP JUMPDEST PUSH1 0x0 DUP1 DUP3 SLT ISZERO PUSH2 0x2441 JUMPI PUSH2 0x2615 PUSH1 0x1 PUSH2 0x1201 DUP6 PUSH1 0x20 ADD MLOAD PUSH2 0xE92 DUP8 PUSH1 0x0 ADD MLOAD DUP8 PUSH2 0x1C7B SWAP1 SWAP2 SWAP1 PUSH4 0xFFFFFFFF AND JUMP JUMPDEST PUSH2 0x1207 JUMP JUMPDEST PUSH1 0x0 DUP1 PUSH2 0x2625 PUSH2 0x3138 JUMP JUMPDEST PUSH2 0xFFFF SWAP4 SWAP1 SWAP4 AND PUSH1 0x0 SWAP1 DUP2 MSTORE PUSH1 0x20 SWAP4 SWAP1 SWAP4 MSTORE POP POP PUSH1 0x40 SWAP1 KECCAK256 SLOAD PUSH1 0x1 PUSH1 0x1 PUSH1 0xA0 SHL SUB AND SWAP1 JUMP JUMPDEST PUSH1 0x0 DUP1 PUSH1 0x0 DUP1 PUSH1 0x0 DUP1 PUSH2 0x265D DUP10 DUP9 PUSH2 0x3145 JUMP JUMPDEST DUP10 MLOAD SWAP1 SWAP6 POP SWAP2 SWAP4 POP SWAP2 POP PUSH1 0x0 SWAP1 PUSH2 0x2684 SWAP1 PUSH2 0x2679 SWAP1 DUP12 SWAP1 PUSH2 0x1F37 JUMP JUMPDEST PUSH4 0x3B9ACA00 SWAP1 PUSH2 0x1F10 JUMP JUMPDEST SWAP1 POP PUSH2 0x26BE PUSH2 0x26B3 PUSH4 0x1DA9C00 PUSH2 0x269B DUP6 DUP6 PUSH2 0x1F10 JUMP JUMPDEST DUP2 PUSH2 0x26A2 JUMPI INVALID JUMPDEST PUSH8 0xDE0B6B3A7640000 SWAP2 SWAP1 DIV PUSH2 0x2755 JUMP JUMPDEST PUSH1 0xE0 DUP11 ADD MLOAD SWAP1 PUSH2 0x2784 JUMP JUMPDEST SWAP7 POP PUSH2 0x26E0 PUSH2 0x26D5 PUSH4 0x1DA9C00 PUSH2 0x269B DUP8 DUP6 PUSH2 0x1F10 JUMP JUMPDEST PUSH1 0xC0 DUP11 ADD MLOAD SWAP1 PUSH2 0x2784 JUMP JUMPDEST SWAP6 POP DUP2 DUP4 EQ ISZERO PUSH2 0x26F7 JUMPI POP PUSH1 0x0 SWAP4 POP PUSH2 0x274C SWAP2 POP POP JUMP JUMPDEST PUSH1 0x0 PUSH2 0x2719 PUSH2 0x270E PUSH4 0x1DA9C00 PUSH2 0x269B DUP8 DUP7 PUSH2 0x1F10 JUMP JUMPDEST PUSH1 0xE0 DUP12 ADD MLOAD SWAP1 PUSH2 0x2784 JUMP JUMPDEST SWAP1 POP PUSH1 0x0 PUSH2 0x2727 DUP10 DUP4 PUSH2 0x1F37 JUMP JUMPDEST SWAP1 POP PUSH2 0x2744 DUP9 PUSH2 0x1B84 DUP4 DUP14 PUSH1 0x40 ADD MLOAD PUSH2 0x1F10 SWAP1 SWAP2 SWAP1 PUSH4 0xFFFFFFFF AND JUMP JUMPDEST SWAP7 POP POP POP POP POP POP JUMPDEST SWAP4 POP SWAP4 POP SWAP4 POP SWAP4 JUMP JUMPDEST PUSH1 0x0 DUP3 DUP3 ADD DUP4 DUP2 LT ISZERO PUSH2 0x1207 JUMPI PUSH1 0x0 DUP1 REVERT JUMPDEST PUSH1 0x0 PUSH2 0x1207 PUSH2 0x277E DUP5 PUSH8 0xDE0B6B3A7640000 PUSH2 0x1F10 JUMP JUMPDEST DUP4 PUSH2 0x2535 JUMP JUMPDEST PUSH1 0x0 PUSH2 0x1207 PUSH2 0x2793 DUP5 DUP5 PUSH2 0x1F10 JUMP JUMPDEST PUSH8 0xDE0B6B3A7640000 PUSH2 0x2535 JUMP JUMPDEST PUSH1 0x0 DUP1 PUSH2 0x27AC PUSH2 0x31E0 JUMP JUMPDEST PUSH1 0x0 SWAP4 DUP5 MSTORE PUSH1 0x20 MSTORE POP POP PUSH1 0x40 SWAP1 KECCAK256 SLOAD SWAP1 JUMP JUMPDEST PUSH1 0x0 DUP1 PUSH1 0x0 DUP6 GT PUSH2 0x27CE JUMPI PUSH1 0x0 DUP1 REVERT JUMPDEST PUSH1 0x7 DUP6 GT ISZERO PUSH2 0x27DC JUMPI PUSH1 0x0 DUP1 REVERT JUMPDEST PUSH1 0x0 PUSH2 0x27E7 DUP5 PUSH2 0x28F8 JUMP JUMPDEST SWAP1 POP PUSH1 0x1 JUMPDEST DUP7 DUP2 GT PUSH2 0x283F JUMPI PUSH1 0x0 PUSH2 0x2808 PUSH2 0x2801 DUP4 PUSH2 0x2916 JUMP JUMPDEST DUP5 SWAP1 PUSH2 0x2755 JUMP JUMPDEST SWAP1 POP DUP7 DUP2 EQ ISZERO PUSH2 0x2820 JUMPI POP SWAP3 POP PUSH1 0x0 SWAP2 POP PUSH2 0x1C73 SWAP1 POP JUMP JUMPDEST DUP7 DUP2 GT ISZERO PUSH2 0x2836 JUMPI POP SWAP3 POP PUSH1 0x1 SWAP2 POP PUSH2 0x1C73 SWAP1 POP JUMP JUMPDEST POP PUSH1 0x1 ADD PUSH2 0x27EC JUMP JUMPDEST POP PUSH1 0x0 DUP1 REVERT JUMPDEST PUSH1 0x60 ADD MLOAD PUSH2 0x12C PUSH1 0x8 SWAP2 SWAP1 SWAP2 SHR PUSH1 0xFF AND MUL SWAP1 JUMP JUMPDEST PUSH1 0x0 DUP1 PUSH2 0x2864 PUSH2 0x31ED JUMP JUMPDEST SWAP1 POP PUSH1 0x0 PUSH3 0x76A700 PUSH2 0x2875 DUP6 PUSH2 0x28F8 JUMP JUMPDEST PUSH1 0x0 DUP10 DUP2 MSTORE PUSH1 0x20 DUP6 DUP2 MSTORE PUSH1 0x40 DUP1 DUP4 KECCAK256 DUP12 DUP5 MSTORE DUP3 MSTORE DUP1 DUP4 KECCAK256 SWAP5 SWAP1 SWAP4 ADD DUP1 DUP4 MSTORE SWAP4 SWAP1 MSTORE KECCAK256 DUP1 SLOAD SWAP2 SWAP3 POP SWAP1 PUSH4 0xFFFFFFFF PUSH1 0x1 PUSH1 0xA0 SHL DUP3 DIV DUP2 AND SWAP2 PUSH1 0x1 PUSH1 0xC0 SHL DUP2 DIV DUP3 AND SWAP2 PUSH1 0x1 PUSH1 0xE0 SHL SWAP1 SWAP2 DIV AND DUP2 PUSH2 0x28DC JUMPI PUSH1 0x40 MLOAD PUSH3 0x461BCD PUSH1 0xE5 SHL DUP2 MSTORE PUSH1 0x4 ADD PUSH2 0x367 SWAP1 PUSH2 0x4CC6 JUMP JUMPDEST PUSH2 0x28E9 DUP2 DUP5 DUP5 DUP13 DUP13 PUSH2 0x31FA JUMP JUMPDEST SWAP12 SWAP11 POP POP POP POP POP POP POP POP POP POP POP JUMP JUMPDEST PUSH1 0x0 PUSH3 0x76A700 DUP3 LT ISZERO PUSH2 0x290A JUMPI PUSH1 0x0 DUP1 REVERT JUMPDEST POP PUSH3 0x76A700 DUP2 MOD SWAP1 SUB SWAP1 JUMP JUMPDEST PUSH1 0x0 DUP2 PUSH1 0x1 EQ ISZERO PUSH2 0x292B JUMPI POP PUSH3 0x76A700 PUSH2 0xF2C JUMP JUMPDEST DUP2 PUSH1 0x2 EQ ISZERO PUSH2 0x293E JUMPI POP PUSH3 0xED4E00 PUSH2 0xF2C JUMP JUMPDEST DUP2 PUSH1 0x3 EQ ISZERO PUSH2 0x2952 JUMPI POP PUSH4 0x1DA9C00 PUSH2 0xF2C JUMP JUMPDEST DUP2 PUSH1 0x4 EQ ISZERO PUSH2 0x2966 JUMPI POP PUSH4 0x3B53800 PUSH2 0xF2C JUMP JUMPDEST DUP2 PUSH1 0x5 EQ ISZERO PUSH2 0x297A JUMPI POP PUSH4 0x9450C00 PUSH2 0xF2C JUMP JUMPDEST DUP2 PUSH1 0x6 EQ ISZERO PUSH2 0x298E JUMPI POP PUSH4 0x128A1800 PUSH2 0xF2C JUMP JUMPDEST DUP2 PUSH1 0x7 EQ ISZERO PUSH2 0x29A2 JUMPI POP PUSH4 0x25143000 PUSH2 0xF2C JUMP JUMPDEST PUSH1 0x40 MLOAD PUSH3 0x461BCD PUSH1 0xE5 SHL DUP2 MSTORE PUSH1 0x4 ADD PUSH2 0x367 SWAP1 PUSH2 0x4CF6 JUMP JUMPDEST PUSH1 0x0 DUP2 DUP7 LT PUSH2 0x29C8 JUMPI PUSH1 0x0 DUP1 REVERT JUMPDEST DUP5 DUP3 LT PUSH2 0x29D4 JUMPI PUSH1 0x0 DUP1 REVERT JUMPDEST DUP4 DUP4 LT PUSH2 0x29F9 JUMPI PUSH2 0x1A4A DUP5 PUSH2 0x29F3 DUP9 DUP9 SUB PUSH2 0x1B84 DUP4 DUP9 SUB DUP12 DUP9 SUB PUSH2 0x1F10 JUMP JUMPDEST SWAP1 PUSH2 0x2755 JUMP JUMPDEST PUSH2 0x1A4A PUSH2 0x2A10 DUP8 DUP8 SUB PUSH2 0x1B84 DUP7 DUP9 SUB DUP11 DUP8 SUB PUSH2 0x1F10 JUMP JUMPDEST DUP6 SWAP1 PUSH2 0x1F37 JUMP JUMPDEST PUSH1 0x60 SWAP1 SWAP2 ADD MLOAD PUSH1 0xFF SWAP2 SHR AND PUSH3 0x2625A0 MUL SWAP1 JUMP JUMPDEST PUSH1 0x0 PUSH8 0x7FFFFFFFFFFFFFFF DUP3 GT ISZERO PUSH2 0x2A41 JUMPI PUSH1 0x0 DUP1 REVERT JUMPDEST POP PUSH1 0x40 SHL SWAP1 JUMP JUMPDEST PUSH1 0x0 DUP2 PUSH1 0xF SIGNEXTEND PUSH1 0x0 EQ ISZERO PUSH2 0x2A5B JUMPI PUSH1 0x0 DUP1 REVERT JUMPDEST PUSH1 0x0 DUP3 PUSH1 0xF SIGNEXTEND PUSH1 0x40 DUP6 PUSH1 0xF SIGNEXTEND SWAP1 SHL DUP2 PUSH2 0x2A70 JUMPI INVALID JUMPDEST SDIV SWAP1 POP PUSH1 0x1 PUSH1 0x1 PUSH1 0x7F SHL SUB NOT DUP2 SLT DUP1 ISZERO SWAP1 PUSH2 0x2A92 JUMPI POP PUSH1 0x1 PUSH1 0x1 PUSH1 0x7F SHL SUB DUP2 SGT ISZERO JUMPDEST PUSH2 0x1207 JUMPI PUSH1 0x0 DUP1 REVERT JUMPDEST PUSH1 0x0 PUSH1 0xF DUP3 SWAP1 SIGNEXTEND PUSH1 0x1 PUSH1 0x1 PUSH1 0x7F SHL SUB NOT EQ ISZERO PUSH2 0x2AB6 JUMPI PUSH1 0x0 DUP1 REVERT JUMPDEST POP PUSH1 0x0 SUB SWAP1 JUMP JUMPDEST PUSH1 0x0 PUSH1 0x1 PUSH1 0x46 SHL DUP3 PUSH1 0xF SIGNEXTEND SLT PUSH2 0x2AD2 JUMPI PUSH1 0x0 DUP1 REVERT JUMPDEST PUSH9 0x3FFFFFFFFFFFFFFFFF NOT DUP3 PUSH1 0xF SIGNEXTEND SLT ISZERO PUSH2 0x2AEF JUMPI POP PUSH1 0x0 PUSH2 0xF2C JUMP JUMPDEST PUSH2 0x668 PUSH1 0x80 DUP4 PUSH1 0xF SIGNEXTEND PUSH17 0x171547652B82FE1777D0FFDA0D23A7D12 MUL SWAP1 SAR PUSH2 0x3282 JUMP JUMPDEST PUSH1 0x0 PUSH1 0xF DUP4 DUP2 SIGNEXTEND SWAP1 DUP4 SWAP1 SIGNEXTEND MUL PUSH1 0x40 SAR PUSH1 0x1 PUSH1 0x1 PUSH1 0x7F SHL SUB NOT DUP2 SLT DUP1 ISZERO SWAP1 PUSH2 0x2A92 JUMPI POP PUSH1 0x1 PUSH1 0x1 PUSH1 0x7F SHL SUB DUP2 SGT ISZERO PUSH2 0x1207 JUMPI PUSH1 0x0 DUP1 REVERT JUMPDEST PUSH1 0xF SIGNEXTEND PUSH1 0x40 SAR SWAP1 JUMP JUMPDEST PUSH1 0x0 DUP1 PUSH2 0x2B5D DUP4 PUSH2 0x261A JUMP JUMPDEST PUSH1 0x1 PUSH1 0x1 PUSH1 0xA0 SHL SUB AND PUSH4 0xEF81F216 PUSH1 0x40 MLOAD DUP2 PUSH4 0xFFFFFFFF AND PUSH1 0xE0 SHL DUP2 MSTORE PUSH1 0x4 ADD PUSH1 0x40 DUP1 MLOAD DUP1 DUP4 SUB DUP2 PUSH1 0x0 DUP8 DUP1 EXTCODESIZE ISZERO DUP1 ISZERO PUSH2 0x2B96 JUMPI PUSH1 0x0 DUP1 REVERT JUMPDEST POP GAS CALL ISZERO DUP1 ISZERO PUSH2 0x1E48 JUMPI RETURNDATASIZE PUSH1 0x0 DUP1 RETURNDATACOPY RETURNDATASIZE PUSH1 0x0 REVERT JUMPDEST PUSH1 0x0 PUSH2 0x2BB4 PUSH2 0x2528 JUMP JUMPDEST PUSH1 0x0 DUP6 PUSH2 0xFFFF AND DUP2 MSTORE PUSH1 0x20 ADD SWAP1 DUP2 MSTORE PUSH1 0x20 ADD PUSH1 0x0 KECCAK256 SWAP1 POP PUSH2 0x2BD8 DUP3 PUSH1 0x0 ADD MLOAD PUSH2 0x3D39 JUMP JUMPDEST DUP2 SLOAD PUSH5 0xFFFFFFFFFF NOT AND PUSH5 0xFFFFFFFFFF SWAP2 SWAP1 SWAP2 AND OR DUP2 SSTORE PUSH1 0xA0 DUP3 ADD MLOAD PUSH2 0x2BFD SWAP1 PUSH2 0x3D4D JUMP JUMPDEST PUSH1 0x2 DUP3 ADD DUP1 SLOAD PUSH10 0xFFFFFFFFFFFFFFFFFFFF NOT AND PUSH1 0x1 PUSH1 0x1 PUSH1 0x50 SHL SUB SWAP3 SWAP1 SWAP3 AND SWAP2 SWAP1 SWAP2 OR SWAP1 SSTORE PUSH1 0xC0 DUP3 ADD MLOAD PUSH2 0x2C30 SWAP1 PUSH2 0x3D4D JUMP JUMPDEST DUP2 PUSH1 0x2 ADD PUSH1 0xA PUSH2 0x100 EXP DUP2 SLOAD DUP2 PUSH1 0x1 PUSH1 0x1 PUSH1 0x50 SHL SUB MUL NOT AND SWAP1 DUP4 PUSH1 0x1 PUSH1 0x1 PUSH1 0x50 SHL SUB AND MUL OR SWAP1 SSTORE POP PUSH2 0x2C65 DUP3 PUSH1 0xE0 ADD MLOAD PUSH2 0x3D4D JUMP JUMPDEST DUP2 PUSH1 0x2 ADD PUSH1 0x14 PUSH2 0x100 EXP DUP2 SLOAD DUP2 PUSH1 0x1 PUSH1 0x1 PUSH1 0x50 SHL SUB MUL NOT AND SWAP1 DUP4 PUSH1 0x1 PUSH1 0x1 PUSH1 0x50 SHL SUB AND MUL OR SWAP1 SSTORE POP PUSH2 0x2C9A DUP3 PUSH1 0x20 ADD MLOAD PUSH2 0x3D63 JUMP JUMPDEST DUP2 SLOAD PUSH1 0x1 PUSH1 0x1 PUSH1 0x58 SHL SUB SWAP2 SWAP1 SWAP2 AND PUSH1 0x1 PUSH1 0x28 SHL MUL PUSH16 0xFFFFFFFFFFFFFFFFFFFFFF0000000000 NOT SWAP1 SWAP2 AND OR DUP2 SSTORE PUSH1 0x40 DUP3 ADD MLOAD PUSH2 0x2CD4 SWAP1 PUSH2 0x3D63 JUMP JUMPDEST PUSH1 0x1 DUP3 ADD DUP1 SLOAD PUSH11 0xFFFFFFFFFFFFFFFFFFFFFF NOT AND PUSH1 0x1 PUSH1 0x1 PUSH1 0x58 SHL SUB SWAP3 SWAP1 SWAP3 AND SWAP2 SWAP1 SWAP2 OR SWAP1 SSTORE PUSH1 0x80 DUP3 ADD MLOAD PUSH2 0x2D08 SWAP1 PUSH2 0x3D63 JUMP JUMPDEST DUP2 SLOAD PUSH1 0x1 PUSH1 0x1 PUSH1 0x58 SHL SUB SWAP2 SWAP1 SWAP2 AND PUSH1 0x1 PUSH1 0x80 SHL MUL PUSH11 0xFFFFFFFFFFFFFFFFFFFFFF PUSH1 0x80 SHL NOT SWAP1 SWAP2 AND OR DUP2 SSTORE PUSH1 0x60 DUP3 ADD MLOAD PUSH2 0x2D40 SWAP1 PUSH2 0x3D79 JUMP JUMPDEST DUP2 SLOAD PUSH4 0xFFFFFFFF SWAP2 SWAP1 SWAP2 AND PUSH1 0x1 PUSH1 0xD8 SHL MUL PUSH4 0xFFFFFFFF PUSH1 0xD8 SHL NOT SWAP1 SWAP2 AND OR DUP2 SSTORE DUP3 ISZERO PUSH2 0x2D8C JUMPI PUSH1 0x0 PUSH2 0x2D71 DUP5 PUSH2 0x13A1 JUMP JUMPDEST SWAP1 POP PUSH2 0x2D7D DUP6 DUP3 PUSH2 0x3D8C JUMP JUMPDEST PUSH2 0x2D8A PUSH2 0xFEE DUP7 DUP4 PUSH2 0x3DC3 JUMP JUMPDEST POP JUMPDEST DUP4 PUSH2 0xFFFF AND PUSH32 0xEF25641E225E493886510CA1AD6584FA7B442B9FEA820A29D1DE3CE27D270FD2 DUP4 PUSH1 0xA0 ADD MLOAD DUP5 PUSH1 0xC0 ADD MLOAD DUP6 PUSH1 0xE0 ADD MLOAD PUSH1 0x40 MLOAD PUSH2 0x2DD0 SWAP4 SWAP3 SWAP2 SWAP1 PUSH2 0x4FD8 JUMP JUMPDEST PUSH1 0x40 MLOAD DUP1 SWAP2 SUB SWAP1 LOG2 POP POP POP POP JUMP JUMPDEST PUSH2 0x2DE6 PUSH2 0x4578 JUMP JUMPDEST PUSH1 0x0 PUSH2 0x2DF0 PUSH2 0x3E43 JUMP JUMPDEST PUSH1 0x0 DUP6 DUP2 MSTORE PUSH1 0x20 DUP3 DUP2 MSTORE PUSH1 0x40 DUP1 DUP4 KECCAK256 DUP8 ISZERO ISZERO DUP5 MSTORE DUP3 MSTORE SWAP2 DUP3 SWAP1 KECCAK256 DUP3 MLOAD PUSH1 0xA0 DUP2 ADD DUP5 MSTORE DUP2 SLOAD PUSH1 0x1 PUSH1 0x1 PUSH1 0xA0 SHL SUB DUP2 AND DUP3 MSTORE PUSH1 0xFF PUSH1 0x1 PUSH1 0xA0 SHL DUP3 DIV DUP2 AND ISZERO ISZERO SWAP5 DUP4 ADD SWAP5 SWAP1 SWAP5 MSTORE PUSH1 0x1 PUSH1 0xB0 SHL DUP2 DIV DUP5 AND PUSH1 0xA EXP SWAP5 DUP3 ADD SWAP5 SWAP1 SWAP5 MSTORE SWAP4 SWAP5 POP SWAP3 SWAP2 PUSH1 0x60 DUP4 ADD SWAP2 PUSH1 0x1 PUSH1 0xA8 SHL SWAP1 SWAP2 DIV AND PUSH1 0x5 DUP2 GT ISZERO PUSH2 0x2E65 JUMPI INVALID JUMPDEST DUP2 MSTORE PUSH1 0x0 PUSH1 0x20 SWAP1 SWAP2 ADD MSTORE SWAP6 SWAP5 POP POP POP POP POP JUMP JUMPDEST PUSH1 0x0 DUP1 PUSH2 0x2E86 DUP6 DUP6 DUP6 PUSH2 0x3E50 JUMP JUMPDEST SWAP1 POP DUP1 ISZERO PUSH2 0x2EA6 JUMPI PUSH2 0x2EA1 PUSH2 0x2E9B DUP6 DUP6 PUSH2 0x1F37 JUMP JUMPDEST DUP3 PUSH2 0x21B1 JUMP JUMPDEST PUSH2 0x10AF JUMP JUMPDEST PUSH4 0x3B9ACA00 SWAP6 SWAP5 POP POP POP POP POP JUMP JUMPDEST PUSH1 0x0 DUP1 PUSH2 0x2EC2 DUP6 DUP6 DUP6 PUSH2 0x3EA0 JUMP JUMPDEST SWAP1 POP PUSH2 0x2ED1 PUSH2 0x2E9B DUP6 DUP6 PUSH2 0x1F37 JUMP JUMPDEST SWAP2 POP PUSH1 0x0 PUSH2 0x2EDE DUP7 PUSH2 0x3EE1 JUMP JUMPDEST SWAP1 POP DUP3 DUP2 SLT ISZERO PUSH2 0x850 JUMPI SWAP6 SWAP5 POP POP POP POP POP JUMP JUMPDEST PUSH2 0x2EF9 PUSH2 0x459F JUMP JUMPDEST PUSH1 0x0 PUSH2 0x2F03 PUSH2 0x3EFC JUMP JUMPDEST PUSH1 0x0 DUP5 DUP2 MSTORE PUSH1 0x20 DUP3 SWAP1 MSTORE PUSH1 0x40 DUP2 KECCAK256 SWAP2 SWAP3 POP DUP1 PUSH1 0x1 DUP7 EQ ISZERO PUSH2 0x2F30 JUMPI POP PUSH8 0xDE0B6B3A7640000 SWAP1 POP DUP1 PUSH2 0x2FF3 JUMP JUMPDEST DUP3 SLOAD PUSH1 0x40 DUP1 MLOAD PUSH4 0x3FABE5A3 PUSH1 0xE2 SHL DUP2 MSTORE SWAP1 MLOAD PUSH1 0x1 PUSH1 0x1 PUSH1 0xA0 SHL SUB SWAP1 SWAP3 AND SWAP2 PUSH4 0xFEAF968C SWAP2 PUSH1 0x4 DUP1 DUP3 ADD SWAP3 PUSH1 0xA0 SWAP3 SWAP1 SWAP2 SWAP1 DUP3 SWAP1 SUB ADD DUP2 DUP7 DUP1 EXTCODESIZE ISZERO DUP1 ISZERO PUSH2 0x2F74 JUMPI PUSH1 0x0 DUP1 REVERT JUMPDEST POP GAS STATICCALL ISZERO DUP1 ISZERO PUSH2 0x2F88 JUMPI RETURNDATASIZE PUSH1 0x0 DUP1 RETURNDATACOPY RETURNDATASIZE PUSH1 0x0 REVERT JUMPDEST POP POP POP POP PUSH1 0x40 MLOAD RETURNDATASIZE PUSH1 0x1F NOT PUSH1 0x1F DUP3 ADD AND DUP3 ADD DUP1 PUSH1 0x40 MSTORE POP DUP2 ADD SWAP1 PUSH2 0x2FAC SWAP2 SWAP1 PUSH2 0x4B30 JUMP JUMPDEST POP SWAP2 SWAP4 POP POP PUSH1 0x0 DUP4 SGT SWAP2 POP PUSH2 0x2FC2 SWAP1 POP JUMPI PUSH1 0x0 DUP1 REVERT JUMPDEST DUP3 SLOAD PUSH1 0xFF PUSH1 0x1 PUSH1 0xA0 SHL DUP3 DIV DUP2 AND PUSH1 0xA EXP SWAP4 POP PUSH1 0x1 PUSH1 0xA8 SHL SWAP1 SWAP2 DIV AND ISZERO PUSH2 0x2FF3 JUMPI PUSH2 0x2FF0 DUP2 PUSH2 0xE92 DUP5 DUP1 PUSH2 0x1C7B JUMP JUMPDEST SWAP1 POP JUMPDEST DUP3 SLOAD PUSH1 0x1 PUSH1 0xB0 SHL SWAP1 DIV PUSH1 0xFF AND PUSH1 0x96 DUP2 SGT ISZERO PUSH2 0x3013 JUMPI PUSH1 0x95 NOT ADD PUSH1 0xA MUL PUSH1 0x96 ADD JUMPDEST PUSH1 0x40 DUP1 MLOAD PUSH1 0xA0 DUP2 ADD DUP3 MSTORE SWAP4 DUP5 MSTORE PUSH1 0x20 DUP5 ADD SWAP3 SWAP1 SWAP3 MSTORE SWAP1 DUP3 ADD MSTORE SWAP1 SLOAD PUSH1 0xFF PUSH1 0x1 PUSH1 0xB8 SHL DUP3 DIV DUP2 AND PUSH1 0x60 DUP5 ADD MSTORE PUSH1 0x1 PUSH1 0xC0 SHL SWAP1 SWAP2 DIV AND PUSH1 0x80 DUP3 ADD MSTORE SWAP2 POP POP SWAP2 SWAP1 POP JUMP JUMPDEST PUSH1 0x0 PUSH2 0x1207 DUP3 PUSH1 0x20 ADD MLOAD PUSH2 0xE92 DUP5 PUSH1 0x0 ADD MLOAD DUP7 PUSH1 0x20 ADD MLOAD PUSH2 0x1C7B SWAP1 SWAP2 SWAP1 PUSH4 0xFFFFFFFF AND JUMP JUMPDEST PUSH1 0x0 DUP1 PUSH1 0x0 DUP5 SLT ISZERO PUSH2 0x30A3 JUMPI PUSH1 0x20 DUP6 ADD MLOAD DUP6 MLOAD PUSH2 0x309C SWAP2 SWAP1 PUSH2 0xE92 SWAP1 DUP8 SWAP1 PUSH2 0x1C7B JUMP JUMPDEST SWAP2 POP PUSH2 0x30C6 JUMP JUMPDEST DUP4 PUSH1 0x0 SLT ISZERO PUSH2 0x30C6 JUMPI PUSH1 0x20 DUP6 ADD MLOAD DUP6 MLOAD PUSH2 0x30C3 SWAP2 SWAP1 PUSH2 0xE92 SWAP1 DUP8 SWAP1 PUSH2 0x1C7B JUMP JUMPDEST SWAP1 POP JUMPDEST PUSH1 0x0 DUP4 SLT ISZERO PUSH2 0x30F7 JUMPI PUSH1 0x40 DUP6 ADD MLOAD DUP6 MLOAD PUSH2 0x30F0 SWAP2 PUSH2 0x30E9 SWAP2 PUSH2 0xE92 SWAP1 DUP8 SWAP1 PUSH2 0x1C7B JUMP JUMPDEST DUP4 SWAP1 PUSH2 0x1ACF JUMP JUMPDEST SWAP2 POP PUSH2 0x1C73 JUMP JUMPDEST DUP3 PUSH1 0x0 SLT ISZERO PUSH2 0x1C73 JUMPI PUSH1 0x40 DUP6 ADD MLOAD DUP6 MLOAD PUSH2 0x3121 SWAP2 PUSH2 0x311A SWAP2 PUSH2 0xE92 SWAP1 DUP8 SWAP1 PUSH2 0x1C7B JUMP JUMPDEST DUP3 SWAP1 PUSH2 0x1ACF JUMP JUMPDEST SWAP1 POP SWAP4 POP SWAP4 SWAP2 POP POP JUMP JUMPDEST PUSH1 0x0 DUP1 PUSH2 0x668 PUSH1 0x1E PUSH2 0x1D10 JUMP JUMPDEST PUSH1 0x0 DUP1 PUSH2 0x668 PUSH1 0x1F PUSH2 0x1D10 JUMP JUMPDEST PUSH1 0x0 DUP1 PUSH1 0x0 DUP1 PUSH1 0x0 DUP6 PUSH1 0x20 ADD MLOAD GT ISZERO PUSH2 0x3192 JUMPI PUSH2 0x318F PUSH2 0x3176 DUP7 PUSH1 0xC0 ADD MLOAD DUP8 PUSH1 0x20 ADD MLOAD PUSH2 0x1F10 SWAP1 SWAP2 SWAP1 PUSH4 0xFFFFFFFF AND JUMP JUMPDEST PUSH1 0xE0 DUP8 ADD MLOAD PUSH1 0x40 DUP9 ADD MLOAD PUSH2 0x3189 SWAP2 PUSH2 0x1F10 JUMP JUMPDEST SWAP1 PUSH2 0x3F09 JUMP JUMPDEST SWAP1 POP JUMPDEST PUSH1 0x0 PUSH2 0x319D DUP8 PUSH2 0x3F1C JUMP JUMPDEST SWAP1 POP PUSH2 0x31A9 DUP2 DUP4 PUSH2 0x3F4F JUMP JUMPDEST SWAP5 POP DUP2 ISZERO PUSH2 0x31C0 JUMPI PUSH2 0x31BD DUP2 DUP7 PUSH1 0x1 PUSH2 0x4009 JUMP JUMPDEST SWAP4 POP JUMPDEST PUSH1 0x20 DUP7 ADD MLOAD ISZERO PUSH2 0x31D7 JUMPI PUSH2 0x31D4 DUP6 DUP4 PUSH2 0x4081 JUMP JUMPDEST SWAP3 POP JUMPDEST POP POP SWAP3 POP SWAP3 POP SWAP3 JUMP JUMPDEST PUSH1 0x0 DUP1 PUSH2 0x668 PUSH1 0x9 PUSH2 0x1D10 JUMP JUMPDEST PUSH1 0x0 DUP1 PUSH2 0x668 PUSH1 0xA PUSH2 0x1D10 JUMP JUMPDEST PUSH1 0x0 DUP1 DUP4 GT PUSH2 0x3208 JUMPI PUSH1 0x0 DUP1 REVERT JUMPDEST DUP2 DUP7 GT ISZERO PUSH2 0x3217 JUMPI POP DUP4 PUSH2 0x10AF JUMP JUMPDEST PUSH1 0x0 PUSH2 0x3223 DUP4 DUP9 PUSH2 0x1F37 JUMP JUMPDEST SWAP1 POP DUP4 DUP2 GT ISZERO PUSH2 0x3236 JUMPI DUP6 SWAP2 POP POP PUSH2 0x10AF JUMP JUMPDEST PUSH1 0x0 PUSH2 0x3242 DUP3 DUP7 PUSH2 0x3F09 JUMP JUMPDEST SWAP1 POP PUSH1 0x0 PUSH2 0x3254 PUSH4 0x3B9ACA00 DUP4 PUSH2 0x1F37 JUMP JUMPDEST SWAP1 POP PUSH2 0x3275 PUSH4 0x3B9ACA00 PUSH2 0x1B84 PUSH2 0x326B DUP11 DUP6 PUSH2 0x1F10 JUMP JUMPDEST PUSH2 0x29F3 DUP13 DUP8 PUSH2 0x1F10 JUMP JUMPDEST SWAP10 SWAP9 POP POP POP POP POP POP POP POP POP JUMP JUMPDEST PUSH1 0x0 PUSH1 0x1 PUSH1 0x46 SHL DUP3 PUSH1 0xF SIGNEXTEND SLT PUSH2 0x3297 JUMPI PUSH1 0x0 DUP1 REVERT JUMPDEST PUSH9 0x3FFFFFFFFFFFFFFFFF NOT DUP3 PUSH1 0xF SIGNEXTEND SLT ISZERO PUSH2 0x32B4 JUMPI POP PUSH1 0x0 PUSH2 0xF2C JUMP JUMPDEST PUSH1 0x1 PUSH1 0x7F SHL PUSH1 0x0 PUSH8 0x8000000000000000 DUP5 AND PUSH1 0xF SIGNEXTEND SGT ISZERO PUSH2 0x32E6 JUMPI PUSH17 0x16A09E667F3BCC908B2FB1366EA957D3E MUL PUSH1 0x80 SHR JUMPDEST PUSH1 0x0 DUP4 PUSH8 0x4000000000000000 AND PUSH1 0xF SIGNEXTEND SGT ISZERO PUSH2 0x3313 JUMPI PUSH17 0x1306FE0A31B7152DE8D5A46305C85EDEC MUL PUSH1 0x80 SHR JUMPDEST PUSH1 0x0 DUP4 PUSH8 0x2000000000000000 AND PUSH1 0xF SIGNEXTEND SGT ISZERO PUSH2 0x3340 JUMPI PUSH17 0x1172B83C7D517ADCDF7C8C50EB14A791F MUL PUSH1 0x80 SHR JUMPDEST PUSH1 0x0 DUP4 PUSH8 0x1000000000000000 AND PUSH1 0xF SIGNEXTEND SGT ISZERO PUSH2 0x336D JUMPI PUSH17 0x10B5586CF9890F6298B92B71842A98363 MUL PUSH1 0x80 SHR JUMPDEST PUSH1 0x0 DUP4 PUSH8 0x800000000000000 AND PUSH1 0xF SIGNEXTEND SGT ISZERO PUSH2 0x339A JUMPI PUSH17 0x1059B0D31585743AE7C548EB68CA417FD MUL PUSH1 0x80 SHR JUMPDEST PUSH1 0x0 DUP4 PUSH8 0x400000000000000 AND PUSH1 0xF SIGNEXTEND SGT ISZERO PUSH2 0x33C7 JUMPI PUSH17 0x102C9A3E778060EE6F7CACA4F7A29BDE8 MUL PUSH1 0x80 SHR JUMPDEST PUSH1 0x0 DUP4 PUSH8 0x200000000000000 AND PUSH1 0xF SIGNEXTEND SGT ISZERO PUSH2 0x33F4 JUMPI PUSH17 0x10163DA9FB33356D84A66AE336DCDFA3F MUL PUSH1 0x80 SHR JUMPDEST PUSH1 0x0 DUP4 PUSH8 0x100000000000000 AND PUSH1 0xF SIGNEXTEND SGT ISZERO PUSH2 0x3421 JUMPI PUSH17 0x100B1AFA5ABCBED6129AB13EC11DC9543 MUL PUSH1 0x80 SHR JUMPDEST PUSH1 0x0 DUP4 PUSH7 0x80000000000000 AND PUSH1 0xF SIGNEXTEND SGT ISZERO PUSH2 0x344D JUMPI PUSH17 0x10058C86DA1C09EA1FF19D294CF2F679B MUL PUSH1 0x80 SHR JUMPDEST PUSH1 0x0 DUP4 PUSH7 0x40000000000000 AND PUSH1 0xF SIGNEXTEND SGT ISZERO PUSH2 0x3479 JUMPI PUSH17 0x1002C605E2E8CEC506D21BFC89A23A00F MUL PUSH1 0x80 SHR JUMPDEST PUSH1 0x0 DUP4 PUSH7 0x20000000000000 AND PUSH1 0xF SIGNEXTEND SGT ISZERO PUSH2 0x34A5 JUMPI PUSH17 0x100162F3904051FA128BCA9C55C31E5DF MUL PUSH1 0x80 SHR JUMPDEST PUSH1 0x0 DUP4 PUSH7 0x10000000000000 AND PUSH1 0xF SIGNEXTEND SGT ISZERO PUSH2 0x34D1 JUMPI PUSH17 0x1000B175EFFDC76BA38E31671CA939725 MUL PUSH1 0x80 SHR JUMPDEST PUSH1 0x0 DUP4 PUSH7 0x8000000000000 AND PUSH1 0xF SIGNEXTEND SGT ISZERO PUSH2 0x34FD JUMPI PUSH17 0x100058BA01FB9F96D6CACD4B180917C3D MUL PUSH1 0x80 SHR JUMPDEST PUSH1 0x0 DUP4 PUSH7 0x4000000000000 AND PUSH1 0xF SIGNEXTEND SGT ISZERO PUSH2 0x3529 JUMPI PUSH17 0x10002C5CC37DA9491D0985C348C68E7B3 MUL PUSH1 0x80 SHR JUMPDEST PUSH1 0x0 DUP4 PUSH7 0x2000000000000 AND PUSH1 0xF SIGNEXTEND SGT ISZERO PUSH2 0x3555 JUMPI PUSH17 0x1000162E525EE054754457D5995292026 MUL PUSH1 0x80 SHR JUMPDEST PUSH1 0x0 DUP4 PUSH7 0x1000000000000 AND PUSH1 0xF SIGNEXTEND SGT ISZERO PUSH2 0x3581 JUMPI PUSH17 0x10000B17255775C040618BF4A4ADE83FC MUL PUSH1 0x80 SHR JUMPDEST PUSH1 0x0 DUP4 PUSH6 0x800000000000 AND PUSH1 0xF SIGNEXTEND SGT ISZERO PUSH2 0x35AC JUMPI PUSH17 0x1000058B91B5BC9AE2EED81E9B7D4CFAB MUL PUSH1 0x80 SHR JUMPDEST PUSH1 0x0 DUP4 PUSH6 0x400000000000 AND PUSH1 0xF SIGNEXTEND SGT ISZERO PUSH2 0x35D7 JUMPI PUSH17 0x100002C5C89D5EC6CA4D7C8ACC017B7C9 MUL PUSH1 0x80 SHR JUMPDEST PUSH1 0x0 DUP4 PUSH6 0x200000000000 AND PUSH1 0xF SIGNEXTEND SGT ISZERO PUSH2 0x3602 JUMPI PUSH17 0x10000162E43F4F831060E02D839A9D16D MUL PUSH1 0x80 SHR JUMPDEST PUSH1 0x0 DUP4 PUSH6 0x100000000000 AND PUSH1 0xF SIGNEXTEND SGT ISZERO PUSH2 0x362D JUMPI PUSH17 0x100000B1721BCFC99D9F890EA06911763 MUL PUSH1 0x80 SHR JUMPDEST PUSH1 0x0 DUP4 PUSH6 0x80000000000 AND PUSH1 0xF SIGNEXTEND SGT ISZERO PUSH2 0x3658 JUMPI PUSH17 0x10000058B90CF1E6D97F9CA14DBCC1628 MUL PUSH1 0x80 SHR JUMPDEST PUSH1 0x0 DUP4 PUSH6 0x40000000000 AND PUSH1 0xF SIGNEXTEND SGT ISZERO PUSH2 0x3683 JUMPI PUSH17 0x1000002C5C863B73F016468F6BAC5CA2B MUL PUSH1 0x80 SHR JUMPDEST PUSH1 0x0 DUP4 PUSH6 0x20000000000 AND PUSH1 0xF SIGNEXTEND SGT ISZERO PUSH2 0x36AE JUMPI PUSH17 0x100000162E430E5A18F6119E3C02282A5 MUL PUSH1 0x80 SHR JUMPDEST PUSH1 0x0 DUP4 PUSH1 0x1 PUSH1 0x28 SHL AND PUSH1 0xF SIGNEXTEND SGT ISZERO PUSH2 0x36D7 JUMPI PUSH17 0x1000000B1721835514B86E6D96EFD1BFE MUL PUSH1 0x80 SHR JUMPDEST PUSH1 0x0 DUP4 PUSH5 0x8000000000 AND PUSH1 0xF SIGNEXTEND SGT ISZERO PUSH2 0x3701 JUMPI PUSH17 0x100000058B90C0B48C6BE5DF846C5B2EF MUL PUSH1 0x80 SHR JUMPDEST PUSH1 0x0 DUP4 PUSH5 0x4000000000 AND PUSH1 0xF SIGNEXTEND SGT ISZERO PUSH2 0x372B JUMPI PUSH17 0x10000002C5C8601CC6B9E94213C72737A MUL PUSH1 0x80 SHR JUMPDEST PUSH1 0x0 DUP4 PUSH5 0x2000000000 AND PUSH1 0xF SIGNEXTEND SGT ISZERO PUSH2 0x3755 JUMPI PUSH17 0x1000000162E42FFF037DF38AA2B219F06 MUL PUSH1 0x80 SHR JUMPDEST PUSH1 0x0 DUP4 PUSH5 0x1000000000 AND PUSH1 0xF SIGNEXTEND SGT ISZERO PUSH2 0x377F JUMPI PUSH17 0x10000000B17217FBA9C739AA5819F44F9 MUL PUSH1 0x80 SHR JUMPDEST PUSH1 0x0 DUP4 PUSH5 0x800000000 AND PUSH1 0xF SIGNEXTEND SGT ISZERO PUSH2 0x37A9 JUMPI PUSH17 0x1000000058B90BFCDEE5ACD3C1CEDC823 MUL PUSH1 0x80 SHR JUMPDEST PUSH1 0x0 DUP4 PUSH5 0x400000000 AND PUSH1 0xF SIGNEXTEND SGT ISZERO PUSH2 0x37D3 JUMPI PUSH17 0x100000002C5C85FE31F35A6A30DA1BE50 MUL PUSH1 0x80 SHR JUMPDEST PUSH1 0x0 DUP4 PUSH5 0x200000000 AND PUSH1 0xF SIGNEXTEND SGT ISZERO PUSH2 0x37FD JUMPI PUSH17 0x10000000162E42FF0999CE3541B9FFFCF MUL PUSH1 0x80 SHR JUMPDEST PUSH1 0x0 DUP4 PUSH5 0x100000000 AND PUSH1 0xF SIGNEXTEND SGT ISZERO PUSH2 0x3827 JUMPI PUSH17 0x100000000B17217F80F4EF5AADDA45554 MUL PUSH1 0x80 SHR JUMPDEST PUSH1 0x0 DUP4 PUSH4 0x80000000 AND PUSH1 0xF SIGNEXTEND SGT ISZERO PUSH2 0x3850 JUMPI PUSH17 0x10000000058B90BFBF8479BD5A81B51AD MUL PUSH1 0x80 SHR JUMPDEST PUSH1 0x0 DUP4 PUSH4 0x40000000 AND PUSH1 0xF SIGNEXTEND SGT ISZERO PUSH2 0x3879 JUMPI PUSH17 0x1000000002C5C85FDF84BD62AE30A74CC MUL PUSH1 0x80 SHR JUMPDEST PUSH1 0x0 DUP4 PUSH4 0x20000000 AND PUSH1 0xF SIGNEXTEND SGT ISZERO PUSH2 0x38A2 JUMPI PUSH17 0x100000000162E42FEFB2FED257559BDAA MUL PUSH1 0x80 SHR JUMPDEST PUSH1 0x0 DUP4 PUSH4 0x10000000 AND PUSH1 0xF SIGNEXTEND SGT ISZERO PUSH2 0x38CB JUMPI PUSH17 0x1000000000B17217F7D5A7716BBA4A9AE MUL PUSH1 0x80 SHR JUMPDEST PUSH1 0x0 DUP4 PUSH4 0x8000000 AND PUSH1 0xF SIGNEXTEND SGT ISZERO PUSH2 0x38F4 JUMPI PUSH17 0x100000000058B90BFBE9DDBAC5E109CCE MUL PUSH1 0x80 SHR JUMPDEST PUSH1 0x0 DUP4 PUSH4 0x4000000 AND PUSH1 0xF SIGNEXTEND SGT ISZERO PUSH2 0x391D JUMPI PUSH17 0x10000000002C5C85FDF4B15DE6F17EB0D MUL PUSH1 0x80 SHR JUMPDEST PUSH1 0x0 DUP4 PUSH4 0x2000000 AND PUSH1 0xF SIGNEXTEND SGT ISZERO PUSH2 0x3946 JUMPI PUSH17 0x1000000000162E42FEFA494F1478FDE05 MUL PUSH1 0x80 SHR JUMPDEST PUSH1 0x0 DUP4 PUSH4 0x1000000 AND PUSH1 0xF SIGNEXTEND SGT ISZERO PUSH2 0x396F JUMPI PUSH17 0x10000000000B17217F7D20CF927C8E94C MUL PUSH1 0x80 SHR JUMPDEST PUSH1 0x0 DUP4 PUSH3 0x800000 AND PUSH1 0xF SIGNEXTEND SGT ISZERO PUSH2 0x3997 JUMPI PUSH17 0x1000000000058B90BFBE8F71CB4E4B33D MUL PUSH1 0x80 SHR JUMPDEST PUSH1 0x0 DUP4 PUSH3 0x400000 AND PUSH1 0xF SIGNEXTEND SGT ISZERO PUSH2 0x39BF JUMPI PUSH17 0x100000000002C5C85FDF477B662B26945 MUL PUSH1 0x80 SHR JUMPDEST PUSH1 0x0 DUP4 PUSH3 0x200000 AND PUSH1 0xF SIGNEXTEND SGT ISZERO PUSH2 0x39E7 JUMPI PUSH17 0x10000000000162E42FEFA3AE53369388C MUL PUSH1 0x80 SHR JUMPDEST PUSH1 0x0 DUP4 PUSH3 0x100000 AND PUSH1 0xF SIGNEXTEND SGT ISZERO PUSH2 0x3A0F JUMPI PUSH17 0x100000000000B17217F7D1D351A389D40 MUL PUSH1 0x80 SHR JUMPDEST PUSH1 0x0 DUP4 PUSH3 0x80000 AND PUSH1 0xF SIGNEXTEND SGT ISZERO PUSH2 0x3A37 JUMPI PUSH17 0x10000000000058B90BFBE8E8B2D3D4EDE MUL PUSH1 0x80 SHR JUMPDEST PUSH1 0x0 DUP4 PUSH3 0x40000 AND PUSH1 0xF SIGNEXTEND SGT ISZERO PUSH2 0x3A5F JUMPI PUSH17 0x1000000000002C5C85FDF4741BEA6E77E MUL PUSH1 0x80 SHR JUMPDEST PUSH1 0x0 DUP4 PUSH3 0x20000 AND PUSH1 0xF SIGNEXTEND SGT ISZERO PUSH2 0x3A87 JUMPI PUSH17 0x100000000000162E42FEFA39FE95583C2 MUL PUSH1 0x80 SHR JUMPDEST PUSH1 0x0 DUP4 PUSH3 0x10000 AND PUSH1 0xF SIGNEXTEND SGT ISZERO PUSH2 0x3AAF JUMPI PUSH17 0x1000000000000B17217F7D1CFB72B45E1 MUL PUSH1 0x80 SHR JUMPDEST PUSH1 0x0 DUP4 PUSH2 0x8000 AND PUSH1 0xF SIGNEXTEND SGT ISZERO PUSH2 0x3AD6 JUMPI PUSH17 0x100000000000058B90BFBE8E7CC35C3F0 MUL PUSH1 0x80 SHR JUMPDEST PUSH1 0x0 DUP4 PUSH2 0x4000 AND PUSH1 0xF SIGNEXTEND SGT ISZERO PUSH2 0x3AFD JUMPI PUSH17 0x10000000000002C5C85FDF473E242EA38 MUL PUSH1 0x80 SHR JUMPDEST PUSH1 0x0 DUP4 PUSH2 0x2000 AND PUSH1 0xF SIGNEXTEND SGT ISZERO PUSH2 0x3B24 JUMPI PUSH17 0x1000000000000162E42FEFA39F02B772C MUL PUSH1 0x80 SHR JUMPDEST PUSH1 0x0 DUP4 PUSH2 0x1000 AND PUSH1 0xF SIGNEXTEND SGT ISZERO PUSH2 0x3B4B JUMPI PUSH17 0x10000000000000B17217F7D1CF7D83C1A MUL PUSH1 0x80 SHR JUMPDEST PUSH1 0x0 DUP4 PUSH2 0x800 AND PUSH1 0xF SIGNEXTEND SGT ISZERO PUSH2 0x3B72 JUMPI PUSH17 0x1000000000000058B90BFBE8E7BDCBE2E MUL PUSH1 0x80 SHR JUMPDEST PUSH1 0x0 DUP4 PUSH2 0x400 AND PUSH1 0xF SIGNEXTEND SGT ISZERO PUSH2 0x3B99 JUMPI PUSH17 0x100000000000002C5C85FDF473DEA871F MUL PUSH1 0x80 SHR JUMPDEST PUSH1 0x0 DUP4 PUSH2 0x200 AND PUSH1 0xF SIGNEXTEND SGT ISZERO PUSH2 0x3BC0 JUMPI PUSH17 0x10000000000000162E42FEFA39EF44D91 MUL PUSH1 0x80 SHR JUMPDEST PUSH1 0x0 DUP4 PUSH2 0x100 AND PUSH1 0xF SIGNEXTEND SGT ISZERO PUSH2 0x3BE7 JUMPI PUSH17 0x100000000000000B17217F7D1CF79E949 MUL PUSH1 0x80 SHR JUMPDEST PUSH1 0x0 DUP4 PUSH1 0x80 AND PUSH1 0xF SIGNEXTEND SGT ISZERO PUSH2 0x3C0D JUMPI PUSH17 0x10000000000000058B90BFBE8E7BCE544 MUL PUSH1 0x80 SHR JUMPDEST PUSH1 0x0 DUP4 PUSH1 0x40 AND PUSH1 0xF SIGNEXTEND SGT ISZERO PUSH2 0x3C33 JUMPI PUSH17 0x1000000000000002C5C85FDF473DE6ECA MUL PUSH1 0x80 SHR JUMPDEST PUSH1 0x0 DUP4 PUSH1 0x20 AND PUSH1 0xF SIGNEXTEND SGT ISZERO PUSH2 0x3C59 JUMPI PUSH17 0x100000000000000162E42FEFA39EF366F MUL PUSH1 0x80 SHR JUMPDEST PUSH1 0x0 DUP4 PUSH1 0x10 AND PUSH1 0xF SIGNEXTEND SGT ISZERO PUSH2 0x3C7F JUMPI PUSH17 0x1000000000000000B17217F7D1CF79AFA MUL PUSH1 0x80 SHR JUMPDEST PUSH1 0x0 DUP4 PUSH1 0x8 AND PUSH1 0xF SIGNEXTEND SGT ISZERO PUSH2 0x3CA5 JUMPI PUSH17 0x100000000000000058B90BFBE8E7BCD6D MUL PUSH1 0x80 SHR JUMPDEST PUSH1 0x0 DUP4 PUSH1 0x4 AND PUSH1 0xF SIGNEXTEND SGT ISZERO PUSH2 0x3CCB JUMPI PUSH17 0x10000000000000002C5C85FDF473DE6B2 MUL PUSH1 0x80 SHR JUMPDEST PUSH1 0x0 DUP4 PUSH1 0x2 AND PUSH1 0xF SIGNEXTEND SGT ISZERO PUSH2 0x3CF1 JUMPI PUSH17 0x1000000000000000162E42FEFA39EF358 MUL PUSH1 0x80 SHR JUMPDEST PUSH1 0x0 DUP4 PUSH1 0x1 AND PUSH1 0xF SIGNEXTEND SGT ISZERO PUSH2 0x3D17 JUMPI PUSH17 0x10000000000000000B17217F7D1CF79AB MUL PUSH1 0x80 SHR JUMPDEST PUSH1 0xF DUP4 DUP2 SIGNEXTEND PUSH1 0x40 SAR PUSH1 0x3F SUB SWAP1 SIGNEXTEND SHR PUSH1 0x1 PUSH1 0x1 PUSH1 0x7F SHL SUB DUP2 GT ISZERO PUSH2 0x668 JUMPI PUSH1 0x0 DUP1 REVERT JUMPDEST PUSH1 0x0 PUSH5 0xFFFFFFFFFF DUP3 GT ISZERO PUSH2 0x10D5 JUMPI PUSH1 0x0 DUP1 REVERT JUMPDEST PUSH1 0x0 PUSH1 0x1 PUSH1 0x1 PUSH1 0x50 SHL SUB DUP3 GT ISZERO PUSH2 0x10D5 JUMPI PUSH1 0x0 DUP1 REVERT JUMPDEST PUSH1 0x0 PUSH1 0x1 PUSH1 0x1 PUSH1 0x58 SHL SUB DUP3 GT ISZERO PUSH2 0x10D5 JUMPI PUSH1 0x0 DUP1 REVERT JUMPDEST PUSH1 0x0 PUSH4 0xFFFFFFFF DUP3 GT ISZERO PUSH2 0x10D5 JUMPI PUSH1 0x0 DUP1 REVERT JUMPDEST PUSH1 0x0 DUP2 SLT ISZERO PUSH2 0x3D9A JUMPI PUSH1 0x0 DUP1 REVERT JUMPDEST PUSH1 0x0 PUSH2 0x3DA8 PUSH2 0xFEE DUP5 PUSH2 0x409A JUMP JUMPDEST SWAP1 POP PUSH2 0x3DB4 DUP2 DUP4 PUSH2 0x1ACF JUMP JUMPDEST SWAP1 POP PUSH2 0xD13 PUSH2 0xFEE DUP5 DUP4 PUSH2 0x40F3 JUMP JUMPDEST PUSH1 0x0 PUSH2 0x3DCD PUSH2 0x4167 JUMP JUMPDEST PUSH2 0xFFFF DUP5 AND PUSH1 0x0 SWAP1 DUP2 MSTORE PUSH1 0x20 SWAP2 SWAP1 SWAP2 MSTORE PUSH1 0x40 SWAP1 DUP2 SWAP1 KECCAK256 SLOAD SWAP1 MLOAD PUSH4 0xAD1C095D PUSH1 0xE0 SHL DUP2 MSTORE PUSH1 0x1 PUSH1 0x1 PUSH1 0xA0 SHL SUB SWAP1 SWAP2 AND SWAP2 POP DUP2 SWAP1 PUSH4 0xAD1C095D SWAP1 PUSH2 0x3E15 SWAP1 DUP8 SWAP1 DUP7 SWAP1 PUSH1 0x4 ADD PUSH2 0x4C5A JUMP JUMPDEST PUSH1 0x0 PUSH1 0x40 MLOAD DUP1 DUP4 SUB DUP2 PUSH1 0x0 DUP8 DUP1 EXTCODESIZE ISZERO DUP1 ISZERO PUSH2 0x3E2F JUMPI PUSH1 0x0 DUP1 REVERT JUMPDEST POP GAS CALL ISZERO DUP1 ISZERO PUSH2 0x394 JUMPI RETURNDATASIZE PUSH1 0x0 DUP1 RETURNDATACOPY RETURNDATASIZE PUSH1 0x0 REVERT JUMPDEST PUSH1 0x0 DUP1 PUSH2 0x668 PUSH1 0x7 PUSH2 0x1D10 JUMP JUMPDEST PUSH1 0x0 PUSH2 0x3E5D DUP5 DUP5 DUP5 PUSH2 0x20BB JUMP JUMPDEST SWAP1 POP PUSH1 0x0 PUSH2 0x3E6A DUP6 PUSH2 0x4174 JUMP JUMPDEST SWAP1 POP DUP1 DUP3 GT PUSH2 0x3E7D JUMPI PUSH1 0x0 SWAP2 POP POP PUSH2 0x1207 JUMP JUMPDEST DUP1 DUP3 SUB SWAP2 POP PUSH1 0x0 PUSH2 0x3E8D DUP7 PUSH2 0x4181 JUMP JUMPDEST SWAP1 POP DUP3 DUP2 LT ISZERO PUSH2 0x850 JUMPI SWAP6 SWAP5 POP POP POP POP POP JUMP JUMPDEST PUSH1 0x0 PUSH2 0x3EAD DUP5 DUP5 DUP5 PUSH2 0x20BB JUMP JUMPDEST SWAP1 POP PUSH2 0x3EC2 PUSH2 0x3EBB DUP6 PUSH2 0x418E JUMP JUMPDEST DUP3 SWAP1 PUSH2 0x2755 JUMP JUMPDEST SWAP1 POP PUSH1 0x0 PUSH2 0x3ECF DUP6 PUSH2 0x419B JUMP JUMPDEST SWAP1 POP DUP1 DUP3 LT ISZERO PUSH2 0x1C0A JUMPI SWAP5 SWAP4 POP POP POP POP JUMP JUMPDEST PUSH1 0x60 ADD MLOAD PUSH3 0x7A120 PUSH1 0x10 SWAP2 SWAP1 SWAP2 SHR PUSH1 0xFF AND MUL PUSH4 0x3B9ACA00 SUB SWAP1 JUMP JUMPDEST PUSH1 0x0 DUP1 PUSH2 0x668 PUSH1 0x10 PUSH2 0x1D10 JUMP JUMPDEST PUSH1 0x0 PUSH2 0x1207 PUSH2 0x277E DUP5 PUSH4 0x3B9ACA00 PUSH2 0x1F10 JUMP JUMPDEST PUSH2 0x3F24 PUSH2 0x45CE JUMP JUMPDEST PUSH1 0x0 PUSH2 0x3F2E PUSH2 0x41A8 JUMP JUMPDEST PUSH2 0xFFFF DUP5 AND PUSH1 0x0 SWAP1 DUP2 MSTORE PUSH1 0x20 SWAP2 SWAP1 SWAP2 MSTORE PUSH1 0x40 DUP2 KECCAK256 SLOAD SWAP2 POP PUSH2 0x1207 SWAP1 DUP3 PUSH2 0x41B5 JUMP JUMPDEST PUSH1 0x0 DUP1 DUP4 PUSH1 0x80 ADD MLOAD GT PUSH2 0x3F61 JUMPI PUSH1 0x0 DUP1 REVERT JUMPDEST PUSH4 0x3B9ACA00 DUP3 GT ISZERO PUSH2 0x3F72 JUMPI PUSH1 0x0 DUP1 REVERT JUMPDEST DUP3 MLOAD DUP3 GT PUSH2 0x3F98 JUMPI DUP3 MLOAD PUSH1 0x40 DUP5 ADD MLOAD PUSH2 0x3F91 SWAP2 SWAP1 PUSH2 0x1B84 SWAP1 DUP6 SWAP1 PUSH2 0x1F10 JUMP JUMPDEST SWAP1 POP PUSH2 0x668 JUMP JUMPDEST DUP3 PUSH1 0x20 ADD MLOAD DUP3 GT PUSH2 0x3FD0 JUMPI PUSH1 0x40 DUP4 ADD MLOAD DUP4 MLOAD PUSH1 0x20 DUP6 ADD MLOAD PUSH1 0x60 DUP7 ADD MLOAD PUSH2 0x3F91 SWAP4 SWAP3 PUSH2 0x29F3 SWAP3 DUP2 SWAP1 SUB SWAP2 PUSH2 0x1B84 SWAP2 DUP9 SUB SWAP1 DUP6 SWAP1 SUB PUSH2 0x1F10 JUMP JUMPDEST PUSH2 0x1207 DUP4 PUSH1 0x60 ADD MLOAD PUSH2 0x29F3 DUP6 PUSH1 0x20 ADD MLOAD PUSH4 0x3B9ACA00 SUB PUSH2 0x1B84 DUP8 PUSH1 0x60 ADD MLOAD DUP9 PUSH1 0x80 ADD MLOAD SUB DUP9 PUSH1 0x20 ADD MLOAD DUP9 SUB PUSH2 0x1F10 SWAP1 SWAP2 SWAP1 PUSH4 0xFFFFFFFF AND JUMP JUMPDEST PUSH1 0x0 DUP1 PUSH2 0x4028 PUSH1 0x64 PUSH2 0x1B84 DUP8 PUSH1 0xE0 ADD MLOAD DUP8 PUSH2 0x1F10 SWAP1 SWAP2 SWAP1 PUSH4 0xFFFFFFFF AND JUMP JUMPDEST SWAP1 POP DUP5 PUSH1 0xA0 ADD MLOAD DUP2 LT ISZERO PUSH2 0x403D JUMPI POP PUSH1 0xA0 DUP5 ADD MLOAD JUMPDEST DUP5 PUSH1 0xC0 ADD MLOAD DUP2 GT ISZERO PUSH2 0x4050 JUMPI POP PUSH1 0xC0 DUP5 ADD MLOAD JUMPDEST DUP3 ISZERO PUSH2 0x4067 JUMPI PUSH2 0x4060 DUP5 DUP3 PUSH2 0x2755 JUMP JUMPDEST SWAP2 POP PUSH2 0x1C0A JUMP JUMPDEST DUP4 DUP2 GT PUSH2 0x4076 JUMPI DUP1 DUP5 SUB PUSH2 0x10AF JUMP JUMPDEST POP PUSH1 0x0 SWAP5 SWAP4 POP POP POP POP JUMP JUMPDEST PUSH1 0x0 PUSH2 0x1207 PUSH2 0x4090 DUP5 DUP5 PUSH2 0x1F10 JUMP JUMPDEST PUSH4 0x3B9ACA00 PUSH2 0x2535 JUMP JUMPDEST PUSH1 0x0 DUP1 PUSH2 0x40A5 PUSH2 0x42D4 JUMP JUMPDEST PUSH1 0x1 PUSH1 0x1 PUSH1 0xA0 SHL SUB DUP6 AND PUSH1 0x0 SWAP1 DUP2 MSTORE PUSH1 0x20 DUP3 DUP2 MSTORE PUSH1 0x40 DUP1 DUP4 KECCAK256 PUSH2 0xFFFF DUP9 AND DUP5 MSTORE SWAP1 SWAP2 MSTORE DUP2 KECCAK256 DUP1 SLOAD PUSH1 0x1 PUSH1 0xA8 SHL SWAP1 DIV PUSH1 0xA SWAP1 DUP2 SIGNEXTEND SWAP1 SIGNEXTEND SWAP5 POP SWAP2 SWAP3 POP DUP4 SLT ISZERO PUSH2 0x40EB JUMPI PUSH1 0x0 DUP1 REVERT JUMPDEST POP POP SWAP3 SWAP2 POP POP JUMP JUMPDEST PUSH1 0x0 DUP2 SLT ISZERO PUSH2 0x4101 JUMPI PUSH1 0x0 DUP1 REVERT JUMPDEST PUSH1 0x0 PUSH2 0x410B PUSH2 0x42D4 JUMP JUMPDEST PUSH1 0x1 PUSH1 0x1 PUSH1 0xA0 SHL SUB DUP6 AND PUSH1 0x0 SWAP1 DUP2 MSTORE PUSH1 0x20 DUP3 DUP2 MSTORE PUSH1 0x40 DUP1 DUP4 KECCAK256 PUSH2 0xFFFF DUP9 AND DUP5 MSTORE SWAP1 SWAP2 MSTORE SWAP1 KECCAK256 SWAP1 SWAP2 POP PUSH2 0x413C DUP4 PUSH2 0x42E1 JUMP JUMPDEST DUP2 SLOAD PUSH1 0xA SWAP2 SWAP1 SWAP2 SIGNEXTEND PUSH1 0x1 PUSH1 0x1 PUSH1 0x58 SHL SUB AND PUSH1 0x1 PUSH1 0xA8 SHL MUL PUSH1 0x1 PUSH1 0x1 PUSH1 0xA8 SHL SUB SWAP1 SWAP2 AND OR SWAP1 SSTORE POP POP POP POP JUMP JUMPDEST PUSH1 0x0 DUP1 PUSH2 0x668 PUSH1 0x21 PUSH2 0x1D10 JUMP JUMPDEST PUSH1 0x0 PUSH2 0x668 DUP3 PUSH1 0x20 PUSH2 0x2A17 JUMP JUMPDEST PUSH1 0x0 PUSH2 0x668 DUP3 PUSH1 0x48 PUSH2 0x2A17 JUMP JUMPDEST PUSH1 0x0 PUSH2 0x668 DUP3 PUSH1 0x28 PUSH2 0x2A17 JUMP JUMPDEST PUSH1 0x0 PUSH2 0x668 DUP3 PUSH1 0x30 PUSH2 0x2A17 JUMP JUMPDEST PUSH1 0x0 DUP1 PUSH2 0x668 PUSH1 0x1B PUSH2 0x1D10 JUMP JUMPDEST PUSH2 0x41BD PUSH2 0x45CE JUMP JUMPDEST PUSH1 0x64 PUSH4 0x3B9ACA00 DUP4 PUSH1 0xFF DUP7 AND PUSH1 0x20 DUP2 LT PUSH2 0x41D3 JUMPI INVALID JUMPDEST BYTE MUL DUP2 PUSH2 0x41DC JUMPI INVALID JUMPDEST DIV DUP2 MSTORE PUSH1 0x64 PUSH4 0x3B9ACA00 DUP4 PUSH1 0xFF DUP7 AND PUSH1 0x1 ADD PUSH1 0x20 DUP2 LT PUSH2 0x41F8 JUMPI INVALID JUMPDEST BYTE MUL DUP2 PUSH2 0x4201 JUMPI INVALID JUMPDEST DIV DUP2 PUSH1 0x20 ADD DUP2 DUP2 MSTORE POP POP PUSH2 0x4226 DUP3 PUSH1 0x2 DUP6 PUSH1 0xFF AND ADD PUSH1 0x20 DUP2 LT PUSH2 0x4220 JUMPI INVALID JUMPDEST BYTE PUSH2 0x4313 JUMP JUMPDEST PUSH1 0x80 DUP3 ADD DUP2 SWAP1 MSTORE PUSH2 0x100 SWAP1 DUP4 PUSH1 0xFF DUP7 AND PUSH1 0x3 ADD PUSH1 0x20 DUP2 LT PUSH2 0x4243 JUMPI INVALID JUMPDEST BYTE MUL DUP2 PUSH2 0x424C JUMPI INVALID JUMPDEST DIV PUSH1 0x40 DUP3 ADD MSTORE PUSH1 0x80 DUP2 ADD MLOAD PUSH2 0x100 SWAP1 DUP4 PUSH1 0xFF DUP7 AND PUSH1 0x4 ADD PUSH1 0x20 DUP2 LT PUSH2 0x426D JUMPI INVALID JUMPDEST BYTE MUL DUP2 PUSH2 0x4276 JUMPI INVALID JUMPDEST DIV PUSH1 0x60 DUP3 ADD MSTORE PUSH3 0x7A120 DUP3 PUSH1 0xFF DUP6 AND PUSH1 0x5 ADD PUSH1 0x20 DUP2 LT PUSH2 0x4292 JUMPI INVALID JUMPDEST BYTE MUL PUSH1 0xA0 DUP3 ADD MSTORE PUSH3 0x2625A0 DUP3 PUSH1 0xFF DUP6 AND PUSH1 0x6 ADD PUSH1 0x20 DUP2 LT PUSH2 0x42AF JUMPI INVALID JUMPDEST BYTE MUL PUSH1 0xC0 DUP3 ADD MSTORE DUP2 PUSH1 0xFF DUP5 AND PUSH1 0x7 ADD PUSH1 0x20 DUP2 LT PUSH2 0x42C8 JUMPI INVALID JUMPDEST BYTE PUSH1 0xE0 DUP3 ADD MSTORE SWAP3 SWAP2 POP POP JUMP JUMPDEST PUSH1 0x0 DUP1 PUSH2 0x668 PUSH1 0x6 PUSH2 0x1D10 JUMP JUMPDEST PUSH1 0x0 PUSH11 0x7FFFFFFFFFFFFFFFFFFFFF NOT DUP3 SLT DUP1 ISZERO SWAP1 PUSH2 0x430A JUMPI POP PUSH11 0x7FFFFFFFFFFFFFFFFFFFFF DUP3 SGT ISZERO JUMPDEST PUSH2 0x10D5 JUMPI PUSH1 0x0 DUP1 REVERT JUMPDEST PUSH1 0x0 DUP2 PUSH1 0xFF AND PUSH1 0x96 LT PUSH2 0x432E JUMPI PUSH1 0xFF DUP3 AND PUSH3 0x2625A0 MUL PUSH2 0x668 JUMP JUMPDEST POP PUSH1 0x95 NOT PUSH1 0xFF SWAP2 SWAP1 SWAP2 AND ADD PUSH3 0xE4E1C0 MUL PUSH4 0x165A0BC0 ADD SWAP1 JUMP JUMPDEST PUSH1 0x40 MLOAD DUP1 PUSH1 0x80 ADD PUSH1 0x40 MSTORE DUP1 PUSH1 0x0 DUP2 MSTORE PUSH1 0x20 ADD PUSH1 0x0 DUP2 MSTORE PUSH1 0x20 ADD PUSH1 0x0 DUP2 MSTORE PUSH1 0x20 ADD PUSH1 0x0 ISZERO ISZERO DUP2 MSTORE POP SWAP1 JUMP JUMPDEST PUSH1 0x40 MLOAD DUP1 PUSH1 0x60 ADD PUSH1 0x40 MSTORE DUP1 PUSH1 0x0 DUP2 MSTORE PUSH1 0x20 ADD PUSH1 0x0 DUP2 MSTORE PUSH1 0x20 ADD PUSH1 0x0 DUP2 MSTORE POP SWAP1 JUMP JUMPDEST PUSH1 0x40 MLOAD DUP1 PUSH1 0xC0 ADD PUSH1 0x40 MSTORE DUP1 PUSH1 0x0 DUP2 MSTORE PUSH1 0x20 ADD PUSH1 0x0 DUP2 MSTORE PUSH1 0x20 ADD PUSH1 0x0 DUP2 MSTORE PUSH1 0x20 ADD PUSH1 0x0 PUSH1 0x1 PUSH1 0x1 PUSH1 0xA0 SHL SUB AND DUP2 MSTORE PUSH1 0x20 ADD PUSH1 0x0 DUP2 MSTORE PUSH1 0x20 ADD PUSH1 0x0 DUP2 MSTORE POP SWAP1 JUMP JUMPDEST PUSH1 0x40 MLOAD DUP1 PUSH1 0x80 ADD PUSH1 0x40 MSTORE DUP1 PUSH1 0x0 DUP2 MSTORE PUSH1 0x20 ADD PUSH1 0x0 DUP2 MSTORE PUSH1 0x20 ADD PUSH1 0x0 DUP2 MSTORE PUSH1 0x20 ADD PUSH2 0x43F9 PUSH2 0x43FE JUMP JUMPDEST SWAP1 MSTORE SWAP1 JUMP JUMPDEST PUSH1 0x40 MLOAD DUP1 PUSH1 0x60 ADD PUSH1 0x40 MSTORE DUP1 PUSH1 0x3 SWAP1 PUSH1 0x20 DUP3 MUL DUP1 CALLDATASIZE DUP4 CALLDATACOPY POP SWAP2 SWAP3 SWAP2 POP POP JUMP JUMPDEST PUSH1 0x40 MLOAD DUP1 PUSH1 0x40 ADD PUSH1 0x40 MSTORE DUP1 PUSH1 0x2 SWAP1 JUMPDEST PUSH2 0x4433 PUSH2 0x4371 JUMP JUMPDEST DUP2 MSTORE PUSH1 0x20 ADD SWAP1 PUSH1 0x1 SWAP1 SUB SWAP1 DUP2 PUSH2 0x442B JUMPI SWAP1 POP POP SWAP1 JUMP JUMPDEST PUSH1 0x40 MLOAD DUP1 PUSH1 0x40 ADD PUSH1 0x40 MSTORE DUP1 PUSH1 0x2 SWAP1 PUSH1 0x20 DUP3 MUL DUP1 CALLDATASIZE DUP4 CALLDATACOPY POP SWAP2 SWAP3 SWAP2 POP POP JUMP JUMPDEST PUSH1 0x40 MLOAD DUP1 PUSH2 0x1E0 ADD PUSH1 0x40 MSTORE DUP1 PUSH1 0x0 PUSH1 0x1 PUSH1 0x1 PUSH1 0xA0 SHL SUB AND DUP2 MSTORE PUSH1 0x20 ADD PUSH1 0x0 PUSH2 0xFFFF AND DUP2 MSTORE PUSH1 0x20 ADD PUSH1 0x0 PUSH2 0xFFFF AND DUP2 MSTORE PUSH1 0x20 ADD PUSH1 0x0 DUP2 MSTORE PUSH1 0x20 ADD PUSH1 0x0 DUP2 MSTORE PUSH1 0x20 ADD PUSH1 0x0 DUP2 MSTORE PUSH1 0x20 ADD PUSH1 0x0 DUP2 MSTORE PUSH1 0x20 ADD PUSH1 0x0 DUP2 MSTORE PUSH1 0x20 ADD PUSH1 0x0 DUP2 MSTORE PUSH1 0x20 ADD PUSH1 0x0 DUP2 MSTORE PUSH1 0x20 ADD PUSH2 0x44D2 PUSH2 0x4449 JUMP JUMPDEST DUP2 MSTORE PUSH1 0x20 ADD PUSH2 0x44DF PUSH2 0x4371 JUMP JUMPDEST DUP2 MSTORE PUSH1 0x20 ADD PUSH1 0x0 DUP2 MSTORE PUSH1 0x20 ADD PUSH2 0x44F3 PUSH2 0x4449 JUMP JUMPDEST DUP2 MSTORE PUSH1 0x20 ADD PUSH1 0x0 DUP2 MSTORE POP SWAP1 JUMP JUMPDEST PUSH1 0x40 MLOAD DUP1 PUSH2 0x120 ADD PUSH1 0x40 MSTORE DUP1 PUSH1 0x0 DUP2 MSTORE PUSH1 0x20 ADD PUSH1 0x0 DUP2 MSTORE PUSH1 0x20 ADD PUSH1 0x0 DUP2 MSTORE PUSH1 0x20 ADD PUSH1 0x0 DUP2 MSTORE PUSH1 0x20 ADD PUSH1 0x0 DUP2 MSTORE PUSH1 0x20 ADD PUSH1 0x0 DUP2 MSTORE PUSH1 0x20 ADD PUSH1 0x0 DUP2 MSTORE PUSH1 0x20 ADD PUSH1 0x0 DUP2 MSTORE PUSH1 0x20 ADD PUSH1 0x0 DUP2 MSTORE POP SWAP1 JUMP JUMPDEST PUSH1 0x40 DUP1 MLOAD PUSH1 0x80 DUP2 ADD DUP3 MSTORE PUSH1 0x0 DUP1 DUP3 MSTORE PUSH1 0x20 DUP3 ADD MSTORE SWAP1 DUP2 ADD PUSH2 0x456B PUSH2 0x4371 JUMP JUMPDEST DUP2 MSTORE PUSH1 0x0 PUSH1 0x20 SWAP1 SWAP2 ADD MSTORE SWAP1 JUMP JUMPDEST PUSH1 0x40 DUP1 MLOAD PUSH1 0xA0 DUP2 ADD DUP3 MSTORE PUSH1 0x0 DUP1 DUP3 MSTORE PUSH1 0x20 DUP3 ADD DUP2 SWAP1 MSTORE SWAP2 DUP2 ADD DUP3 SWAP1 MSTORE SWAP1 PUSH1 0x60 DUP3 ADD SWAP1 PUSH2 0x44F3 JUMP JUMPDEST PUSH1 0x40 MLOAD DUP1 PUSH1 0xA0 ADD PUSH1 0x40 MSTORE DUP1 PUSH1 0x0 DUP2 MSTORE PUSH1 0x20 ADD PUSH1 0x0 DUP2 MSTORE PUSH1 0x20 ADD PUSH1 0x0 DUP2 MSTORE PUSH1 0x20 ADD PUSH1 0x0 DUP2 MSTORE PUSH1 0x20 ADD PUSH1 0x0 DUP2 MSTORE POP SWAP1 JUMP JUMPDEST PUSH1 0x40 MLOAD DUP1 PUSH2 0x100 ADD PUSH1 0x40 MSTORE DUP1 PUSH1 0x0 DUP2 MSTORE PUSH1 0x20 ADD PUSH1 0x0 DUP2 MSTORE PUSH1 0x20 ADD PUSH1 0x0 DUP2 MSTORE PUSH1 0x20 ADD PUSH1 0x0 DUP2 MSTORE PUSH1 0x20 ADD PUSH1 0x0 DUP2 MSTORE PUSH1 0x20 ADD PUSH1 0x0 DUP2 MSTORE PUSH1 0x20 ADD PUSH1 0x0 DUP2 MSTORE PUSH1 0x20 ADD PUSH1 0x0 DUP2 MSTORE POP SWAP1 JUMP JUMPDEST DUP1 CALLDATALOAD PUSH1 0x1 PUSH1 0x1 PUSH1 0xA0 SHL SUB DUP2 AND DUP2 EQ PUSH2 0xF2C JUMPI PUSH1 0x0 DUP1 REVERT JUMPDEST PUSH1 0x0 DUP3 PUSH1 0x1F DUP4 ADD SLT PUSH2 0x463A JUMPI DUP1 DUP2 REVERT JUMPDEST PUSH1 0x40 MLOAD PUSH1 0x40 DUP2 ADD DUP2 DUP2 LT PUSH8 0xFFFFFFFFFFFFFFFF DUP3 GT OR ISZERO PUSH2 0x4657 JUMPI INVALID JUMPDEST DUP1 PUSH1 0x40 MSTORE POP DUP1 DUP4 DUP6 PUSH1 0x40 DUP7 ADD GT ISZERO PUSH2 0x466D JUMPI DUP4 DUP5 REVERT JUMPDEST DUP4 JUMPDEST PUSH1 0x2 DUP2 LT ISZERO PUSH2 0x468E JUMPI DUP2 CALLDATALOAD DUP4 MSTORE PUSH1 0x20 SWAP3 DUP4 ADD SWAP3 SWAP1 SWAP2 ADD SWAP1 PUSH1 0x1 ADD PUSH2 0x466F JUMP JUMPDEST POP SWAP2 SWAP6 SWAP5 POP POP POP POP POP JUMP JUMPDEST PUSH1 0x0 DUP3 PUSH1 0x1F DUP4 ADD SLT PUSH2 0x46A9 JUMPI DUP1 DUP2 REVERT JUMPDEST PUSH1 0x40 MLOAD PUSH1 0x40 DUP2 ADD DUP2 DUP2 LT PUSH8 0xFFFFFFFFFFFFFFFF DUP3 GT OR ISZERO PUSH2 0x46C6 JUMPI INVALID JUMPDEST DUP1 PUSH1 0x40 MSTORE POP DUP1 DUP4 DUP6 PUSH1 0x40 DUP7 ADD GT ISZERO PUSH2 0x46DC JUMPI DUP4 DUP5 REVERT JUMPDEST DUP4 JUMPDEST PUSH1 0x2 DUP2 LT ISZERO PUSH2 0x468E JUMPI PUSH2 0x46F0 DUP3 PUSH2 0x48BD JUMP JUMPDEST DUP4 MSTORE PUSH1 0x20 SWAP3 DUP4 ADD SWAP3 SWAP2 SWAP1 SWAP2 ADD SWAP1 PUSH1 0x1 ADD PUSH2 0x46DE JUMP JUMPDEST DUP1 CALLDATALOAD DUP1 ISZERO ISZERO DUP2 EQ PUSH2 0xF2C JUMPI PUSH1 0x0 DUP1 REVERT JUMPDEST PUSH1 0x0 PUSH1 0x60 DUP3 DUP5 SUB SLT ISZERO PUSH2 0x4726 JUMPI DUP1 DUP2 REVERT JUMPDEST PUSH1 0x40 MLOAD PUSH1 0x60 DUP2 ADD DUP2 DUP2 LT PUSH8 0xFFFFFFFFFFFFFFFF DUP3 GT OR ISZERO PUSH2 0x4743 JUMPI INVALID JUMPDEST DUP1 PUSH1 0x40 MSTORE POP DUP1 SWAP2 POP DUP3 CALLDATALOAD DUP2 MSTORE PUSH1 0x20 DUP4 ADD CALLDATALOAD PUSH1 0x20 DUP3 ADD MSTORE PUSH1 0x40 DUP4 ADD CALLDATALOAD PUSH1 0x40 DUP3 ADD MSTORE POP SWAP3 SWAP2 POP POP JUMP JUMPDEST PUSH1 0x0 PUSH2 0x260 DUP3 DUP5 SUB SLT ISZERO PUSH2 0x477C JUMPI DUP1 DUP2 REVERT JUMPDEST PUSH2 0x1E0 PUSH2 0x4788 DUP2 PUSH2 0x4FEE JUMP JUMPDEST SWAP2 POP PUSH2 0x4793 DUP4 PUSH2 0x4613 JUMP JUMPDEST DUP3 MSTORE PUSH2 0x47A1 PUSH1 0x20 DUP5 ADD PUSH2 0x48BD JUMP JUMPDEST PUSH1 0x20 DUP4 ADD MSTORE PUSH2 0x47B2 PUSH1 0x40 DUP5 ADD PUSH2 0x48BD JUMP JUMPDEST PUSH1 0x40 DUP4 ADD MSTORE PUSH1 0x60 DUP4 ADD CALLDATALOAD PUSH1 0x60 DUP4 ADD MSTORE PUSH1 0x80 DUP4 ADD CALLDATALOAD PUSH1 0x80 DUP4 ADD MSTORE PUSH1 0xA0 DUP4 ADD CALLDATALOAD PUSH1 0xA0 DUP4 ADD MSTORE PUSH1 0xC0 DUP4 ADD CALLDATALOAD PUSH1 0xC0 DUP4 ADD MSTORE PUSH1 0xE0 DUP4 ADD CALLDATALOAD PUSH1 0xE0 DUP4 ADD MSTORE PUSH2 0x100 DUP1 DUP5 ADD CALLDATALOAD DUP2 DUP5 ADD MSTORE POP PUSH2 0x120 DUP1 DUP5 ADD CALLDATALOAD DUP2 DUP5 ADD MSTORE POP PUSH2 0x140 PUSH2 0x4810 DUP6 DUP3 DUP7 ADD PUSH2 0x4699 JUMP JUMPDEST SWAP1 DUP4 ADD MSTORE PUSH2 0x180 PUSH2 0x4823 DUP6 DUP6 DUP4 ADD PUSH2 0x4715 JUMP JUMPDEST PUSH2 0x160 DUP5 ADD MSTORE SWAP1 DUP4 ADD CALLDATALOAD SWAP1 DUP3 ADD MSTORE PUSH2 0x483F DUP4 PUSH2 0x200 DUP5 ADD PUSH2 0x462A JUMP JUMPDEST PUSH2 0x1A0 DUP3 ADD MSTORE PUSH2 0x240 DUP3 ADD CALLDATALOAD PUSH2 0x1C0 DUP3 ADD MSTORE SWAP3 SWAP2 POP POP JUMP JUMPDEST PUSH1 0x0 PUSH1 0x80 DUP3 DUP5 SUB SLT ISZERO PUSH2 0x4868 JUMPI DUP1 DUP2 REVERT JUMPDEST PUSH1 0x40 MLOAD PUSH1 0x80 DUP2 ADD DUP2 DUP2 LT PUSH8 0xFFFFFFFFFFFFFFFF DUP3 GT OR ISZERO PUSH2 0x4885 JUMPI INVALID JUMPDEST DUP1 PUSH1 0x40 MSTORE POP DUP1 SWAP2 POP DUP3 CALLDATALOAD DUP2 MSTORE PUSH1 0x20 DUP4 ADD CALLDATALOAD PUSH1 0x20 DUP3 ADD MSTORE PUSH1 0x40 DUP4 ADD CALLDATALOAD PUSH1 0x40 DUP3 ADD MSTORE PUSH2 0x48B1 PUSH1 0x60 DUP5 ADD PUSH2 0x4705 JUMP JUMPDEST PUSH1 0x60 DUP3 ADD MSTORE POP SWAP3 SWAP2 POP POP JUMP JUMPDEST DUP1 CALLDATALOAD PUSH2 0xFFFF DUP2 AND DUP2 EQ PUSH2 0xF2C JUMPI PUSH1 0x0 DUP1 REVERT JUMPDEST DUP1 MLOAD PUSH1 0x1 PUSH1 0x1 PUSH1 0x50 SHL SUB DUP2 AND DUP2 EQ PUSH2 0xF2C JUMPI PUSH1 0x0 DUP1 REVERT JUMPDEST PUSH1 0x0 PUSH1 0x20 DUP3 DUP5 SUB SLT ISZERO PUSH2 0x48F7 JUMPI DUP1 DUP2 REVERT JUMPDEST PUSH2 0x1207 DUP3 PUSH2 0x4613 JUMP JUMPDEST PUSH1 0x0 DUP1 PUSH1 0x40 DUP4 DUP6 SUB SLT ISZERO PUSH2 0x4912 JUMPI DUP1 DUP2 REVERT JUMPDEST PUSH2 0x491B DUP4 PUSH2 0x4613 JUMP JUMPDEST SWAP2 POP PUSH2 0x4929 PUSH1 0x20 DUP5 ADD PUSH2 0x4613 JUMP JUMPDEST SWAP1 POP SWAP3 POP SWAP3 SWAP1 POP JUMP JUMPDEST PUSH1 0x0 DUP1 PUSH1 0x0 PUSH1 0x60 DUP5 DUP7 SUB SLT ISZERO PUSH2 0x4946 JUMPI DUP1 DUP2 REVERT JUMPDEST PUSH2 0x494F DUP5 PUSH2 0x4613 JUMP JUMPDEST SWAP3 POP PUSH2 0x495D PUSH1 0x20 DUP6 ADD PUSH2 0x4613 JUMP JUMPDEST SWAP2 POP PUSH2 0x496B PUSH1 0x40 DUP6 ADD PUSH2 0x4705 JUMP JUMPDEST SWAP1 POP SWAP3 POP SWAP3 POP SWAP3 JUMP JUMPDEST PUSH1 0x0 DUP1 PUSH1 0x40 DUP4 DUP6 SUB SLT ISZERO PUSH2 0x4986 JUMPI DUP2 DUP3 REVERT JUMPDEST PUSH2 0x498F DUP4 PUSH2 0x4613 JUMP JUMPDEST SWAP2 POP PUSH2 0x4929 PUSH1 0x20 DUP5 ADD PUSH2 0x48BD JUMP JUMPDEST PUSH1 0x0 DUP1 PUSH1 0x0 PUSH1 0x60 DUP5 DUP7 SUB SLT ISZERO PUSH2 0x49B1 JUMPI DUP1 DUP2 REVERT JUMPDEST PUSH2 0x49BA DUP5 PUSH2 0x4613 JUMP JUMPDEST SWAP3 POP PUSH2 0x49C8 PUSH1 0x20 DUP6 ADD PUSH2 0x48BD JUMP JUMPDEST SWAP2 POP PUSH1 0x40 DUP5 ADD CALLDATALOAD SWAP1 POP SWAP3 POP SWAP3 POP SWAP3 JUMP JUMPDEST PUSH1 0x0 DUP1 PUSH1 0x40 DUP4 DUP6 SUB SLT ISZERO PUSH2 0x49EA JUMPI DUP2 DUP3 REVERT JUMPDEST PUSH2 0x49F3 DUP4 PUSH2 0x4613 JUMP JUMPDEST SWAP5 PUSH1 0x20 SWAP4 SWAP1 SWAP4 ADD CALLDATALOAD SWAP4 POP POP POP JUMP JUMPDEST PUSH1 0x0 PUSH1 0x20 DUP3 DUP5 SUB SLT ISZERO PUSH2 0x4A12 JUMPI DUP1 DUP2 REVERT JUMPDEST POP MLOAD SWAP2 SWAP1 POP JUMP JUMPDEST PUSH1 0x0 DUP1 PUSH1 0x0 PUSH1 0x60 DUP5 DUP7 SUB SLT ISZERO PUSH2 0x4A2D JUMPI DUP1 DUP2 REVERT JUMPDEST PUSH2 0x4A36 DUP5 PUSH2 0x48BD JUMP JUMPDEST SWAP6 PUSH1 0x20 DUP6 ADD CALLDATALOAD SWAP6 POP PUSH1 0x40 SWAP1 SWAP5 ADD CALLDATALOAD SWAP4 SWAP3 POP POP POP JUMP JUMPDEST PUSH1 0x0 DUP1 PUSH1 0x0 DUP1 PUSH1 0x0 DUP6 DUP8 SUB PUSH2 0x3E0 DUP2 SLT ISZERO PUSH2 0x4A64 JUMPI DUP4 DUP5 REVERT JUMPDEST DUP7 CALLDATALOAD SWAP6 POP PUSH1 0xC0 PUSH1 0x1F NOT DUP3 ADD SLT ISZERO PUSH2 0x4A79 JUMPI DUP4 DUP5 REVERT JUMPDEST POP PUSH1 0x40 MLOAD PUSH1 0xC0 DUP2 ADD DUP2 DUP2 LT PUSH8 0xFFFFFFFFFFFFFFFF DUP3 GT OR ISZERO PUSH2 0x4A97 JUMPI INVALID JUMPDEST DUP1 PUSH1 0x40 MSTORE POP PUSH1 0x20 DUP8 ADD CALLDATALOAD DUP2 MSTORE PUSH1 0x40 DUP8 ADD CALLDATALOAD PUSH1 0x20 DUP3 ADD MSTORE PUSH1 0x60 DUP8 ADD CALLDATALOAD PUSH1 0x40 DUP3 ADD MSTORE PUSH2 0x4AC3 PUSH1 0x80 DUP9 ADD PUSH2 0x4613 JUMP JUMPDEST PUSH1 0x60 DUP3 ADD MSTORE PUSH1 0xA0 DUP8 DUP2 ADD CALLDATALOAD PUSH1 0x80 DUP4 ADD MSTORE PUSH1 0xC0 DUP9 ADD CALLDATALOAD SWAP1 DUP3 ADD MSTORE SWAP4 POP PUSH2 0x4AEB DUP8 PUSH1 0xE0 DUP9 ADD PUSH2 0x476A JUMP JUMPDEST SWAP3 POP PUSH2 0x4AFB DUP8 PUSH2 0x340 DUP9 ADD PUSH2 0x4857 JUMP JUMPDEST SWAP5 SWAP8 SWAP4 SWAP7 POP SWAP2 SWAP5 PUSH2 0x3C0 ADD CALLDATALOAD SWAP3 SWAP2 POP POP JUMP JUMPDEST PUSH1 0x0 DUP1 PUSH1 0x40 DUP4 DUP6 SUB SLT ISZERO PUSH2 0x4B1F JUMPI DUP2 DUP3 REVERT JUMPDEST POP POP DUP1 MLOAD PUSH1 0x20 SWAP1 SWAP2 ADD MLOAD SWAP1 SWAP3 SWAP1 SWAP2 POP JUMP JUMPDEST PUSH1 0x0 DUP1 PUSH1 0x0 DUP1 PUSH1 0x0 PUSH1 0xA0 DUP7 DUP9 SUB SLT ISZERO PUSH2 0x4B47 JUMPI DUP3 DUP4 REVERT JUMPDEST PUSH2 0x4B50 DUP7 PUSH2 0x48CF JUMP JUMPDEST SWAP5 POP PUSH1 0x20 DUP7 ADD MLOAD SWAP4 POP PUSH1 0x40 DUP7 ADD MLOAD SWAP3 POP PUSH1 0x60 DUP7 ADD MLOAD SWAP2 POP PUSH2 0x4B73 PUSH1 0x80 DUP8 ADD PUSH2 0x48CF JUMP JUMPDEST SWAP1 POP SWAP3 SWAP6 POP SWAP3 SWAP6 SWAP1 SWAP4 POP JUMP JUMPDEST PUSH1 0x1 PUSH1 0x1 PUSH1 0xA0 SHL SUB AND SWAP1 MSTORE JUMP JUMPDEST DUP1 PUSH1 0x0 JUMPDEST PUSH1 0x2 DUP2 LT ISZERO PUSH2 0xE0A JUMPI DUP2 MLOAD DUP5 MSTORE PUSH1 0x20 SWAP4 DUP5 ADD SWAP4 SWAP1 SWAP2 ADD SWAP1 PUSH1 0x1 ADD PUSH2 0x4B90 JUMP JUMPDEST DUP1 PUSH1 0x0 JUMPDEST PUSH1 0x3 DUP2 LT ISZERO PUSH2 0xE0A JUMPI DUP2 MLOAD DUP5 MSTORE PUSH1 0x20 SWAP4 DUP5 ADD SWAP4 SWAP1 SWAP2 ADD SWAP1 PUSH1 0x1 ADD PUSH2 0x4BB3 JUMP JUMPDEST DUP1 PUSH1 0x0 JUMPDEST PUSH1 0x2 DUP2 LT ISZERO PUSH2 0xE0A JUMPI DUP2 MLOAD PUSH2 0xFFFF AND DUP5 MSTORE PUSH1 0x20 SWAP4 DUP5 ADD SWAP4 SWAP1 SWAP2 ADD SWAP1 PUSH1 0x1 ADD PUSH2 0x4BD6 JUMP JUMPDEST DUP1 MLOAD DUP3 MSTORE PUSH1 0x20 DUP1 DUP3 ADD MLOAD SWAP1 DUP4 ADD MSTORE PUSH1 0x40 SWAP1 DUP2 ADD MLOAD SWAP2 ADD MSTORE JUMP JUMPDEST DUP1 MLOAD DUP3 MSTORE PUSH1 0x20 DUP1 DUP3 ADD MLOAD SWAP1 DUP4 ADD MSTORE PUSH1 0x40 DUP1 DUP3 ADD MLOAD SWAP1 DUP4 ADD MSTORE PUSH1 0x60 DUP1 DUP3 ADD MLOAD PUSH1 0x1 PUSH1 0x1 PUSH1 0xA0 SHL SUB AND SWAP1 DUP4 ADD MSTORE PUSH1 0x80 DUP1 DUP3 ADD MLOAD SWAP1 DUP4 ADD MSTORE PUSH1 0xA0 SWAP1 DUP2 ADD MLOAD SWAP2 ADD MSTORE JUMP JUMPDEST PUSH2 0xFFFF AND SWAP1 MSTORE JUMP JUMPDEST PUSH1 0x1 PUSH1 0x1 PUSH1 0xA0 SHL SUB SWAP3 SWAP1 SWAP3 AND DUP3 MSTORE PUSH1 0x20 DUP3 ADD MSTORE PUSH1 0x40 ADD SWAP1 JUMP JUMPDEST PUSH1 0x1 PUSH1 0x1 PUSH1 0xA0 SHL SUB SWAP4 SWAP1 SWAP4 AND DUP4 MSTORE PUSH1 0x20 DUP4 ADD SWAP2 SWAP1 SWAP2 MSTORE PUSH1 0x40 DUP3 ADD MSTORE PUSH1 0x60 ADD SWAP1 JUMP JUMPDEST SWAP1 DUP2 MSTORE PUSH1 0x20 ADD SWAP1 JUMP JUMPDEST SWAP2 DUP3 MSTORE PUSH1 0x20 DUP3 ADD MSTORE PUSH1 0x40 ADD SWAP1 JUMP JUMPDEST DUP4 DUP2 MSTORE PUSH1 0x20 DUP2 ADD DUP4 SWAP1 MSTORE PUSH1 0xA0 DUP2 ADD PUSH2 0xA0C PUSH1 0x40 DUP4 ADD DUP5 PUSH2 0x4BF9 JUMP JUMPDEST PUSH1 0x20 DUP1 DUP3 MSTORE PUSH1 0x16 SWAP1 DUP3 ADD MSTORE PUSH22 0x13585C9AD95D081B9BDD081A5B9A5D1A585B1A5E9959 PUSH1 0x52 SHL PUSH1 0x40 DUP3 ADD MSTORE PUSH1 0x60 ADD SWAP1 JUMP JUMPDEST PUSH1 0x20 DUP1 DUP3 MSTORE PUSH1 0xD SWAP1 DUP3 ADD MSTORE PUSH13 0x92DCECC2D8D2C840D2DCC8CAF PUSH1 0x9B SHL PUSH1 0x40 DUP3 ADD MSTORE PUSH1 0x60 ADD SWAP1 JUMP JUMPDEST PUSH1 0x20 DUP1 DUP3 MSTORE PUSH1 0x14 SWAP1 DUP3 ADD MSTORE PUSH20 0x10589BDD994813585E0810DBDB1B185D195C985B PUSH1 0x62 SHL PUSH1 0x40 DUP3 ADD MSTORE PUSH1 0x60 ADD SWAP1 JUMP JUMPDEST PUSH1 0x20 DUP1 DUP3 MSTORE PUSH1 0x17 SWAP1 DUP3 ADD MSTORE PUSH32 0x496E73756666696369656E7420436F6C6C61746572616C000000000000000000 PUSH1 0x40 DUP3 ADD MSTORE PUSH1 0x60 ADD SWAP1 JUMP JUMPDEST PUSH1 0x20 DUP1 DUP3 MSTORE PUSH1 0x17 SWAP1 DUP3 ADD MSTORE PUSH32 0x4D757374204C697175696461746520416C6C2044656274000000000000000000 PUSH1 0x40 DUP3 ADD MSTORE PUSH1 0x60 ADD SWAP1 JUMP JUMPDEST PUSH1 0x20 DUP1 DUP3 MSTORE PUSH1 0x15 SWAP1 DUP3 ADD MSTORE PUSH21 0x14DD59999A58DA595B9D0810DBDB1B185D195C985B PUSH1 0x5A SHL PUSH1 0x40 DUP3 ADD MSTORE PUSH1 0x60 ADD SWAP1 JUMP JUMPDEST PUSH1 0x20 DUP1 DUP3 MSTORE PUSH1 0xD SWAP1 DUP3 ADD MSTORE PUSH13 0x4F76657220446562742043617 PUSH1 0x9C SHL PUSH1 0x40 DUP3 ADD MSTORE PUSH1 0x60 ADD SWAP1 JUMP JUMPDEST PUSH1 0x0 PUSH2 0x180 DUP3 ADD SWAP1 POP DUP5 MLOAD DUP3 MSTORE PUSH1 0x20 DUP1 DUP7 ADD MLOAD DUP2 DUP5 ADD MSTORE PUSH1 0x40 DUP7 ADD MLOAD PUSH1 0x40 DUP5 ADD MSTORE PUSH1 0x60 DUP7 ADD MLOAD PUSH2 0x4E42 PUSH1 0x60 DUP6 ADD DUP3 PUSH2 0x4BAF JUMP JUMPDEST POP PUSH2 0x4E50 PUSH1 0xC0 DUP5 ADD DUP7 PUSH2 0x4BAF JUMP JUMPDEST PUSH2 0x120 DUP4 ADD DUP5 PUSH1 0x0 JUMPDEST PUSH1 0x3 DUP2 LT ISZERO PUSH2 0x4E76 JUMPI DUP2 MLOAD DUP4 MSTORE SWAP2 DUP4 ADD SWAP2 SWAP1 DUP4 ADD SWAP1 PUSH1 0x1 ADD PUSH2 0x4E59 JUMP JUMPDEST POP POP POP POP SWAP5 SWAP4 POP POP POP POP JUMP JUMPDEST PUSH1 0xC0 DUP2 ADD PUSH2 0x668 DUP3 DUP5 PUSH2 0x4C12 JUMP JUMPDEST PUSH1 0xE0 DUP2 ADD PUSH2 0x4E9E DUP3 DUP6 PUSH2 0x4C12 JUMP JUMPDEST DUP3 PUSH1 0xC0 DUP4 ADD MSTORE SWAP4 SWAP3 POP POP POP JUMP JUMPDEST PUSH1 0x0 PUSH2 0x260 DUP3 ADD SWAP1 POP PUSH2 0x4EBF DUP3 DUP5 MLOAD PUSH2 0x4B7F JUMP JUMPDEST PUSH1 0x20 DUP4 ADD MLOAD PUSH2 0x4ED1 PUSH1 0x20 DUP5 ADD DUP3 PUSH2 0x4C52 JUMP JUMPDEST POP PUSH1 0x40 DUP4 ADD MLOAD PUSH2 0x4EE4 PUSH1 0x40 DUP5 ADD DUP3 PUSH2 0x4C52 JUMP JUMPDEST POP PUSH1 0x60 DUP4 ADD MLOAD PUSH1 0x60 DUP4 ADD MSTORE PUSH1 0x80 DUP4 ADD MLOAD PUSH1 0x80 DUP4 ADD MSTORE PUSH1 0xA0 DUP4 ADD MLOAD PUSH1 0xA0 DUP4 ADD MSTORE PUSH1 0xC0 DUP4 ADD MLOAD PUSH1 0xC0 DUP4 ADD MSTORE PUSH1 0xE0 DUP4 ADD MLOAD PUSH1 0xE0 DUP4 ADD MSTORE PUSH2 0x100 DUP1 DUP5 ADD MLOAD DUP2 DUP5 ADD MSTORE POP PUSH2 0x120 DUP1 DUP5 ADD MLOAD DUP2 DUP5 ADD MSTORE POP PUSH2 0x140 DUP1 DUP5 ADD MLOAD PUSH2 0x4F42 DUP3 DUP6 ADD DUP3 PUSH2 0x4BD2 JUMP JUMPDEST POP POP PUSH2 0x160 DUP4 ADD MLOAD PUSH2 0x180 PUSH2 0x4F59 DUP2 DUP6 ADD DUP4 PUSH2 0x4BF9 JUMP JUMPDEST DUP5 ADD MLOAD PUSH2 0x1E0 DUP5 ADD MSTORE POP PUSH2 0x1A0 DUP4 ADD MLOAD PUSH2 0x4F77 PUSH2 0x200 DUP5 ADD DUP3 PUSH2 0x4B8C JUMP JUMPDEST POP PUSH2 0x1C0 DUP4 ADD MLOAD PUSH2 0x240 DUP4 ADD MSTORE SWAP3 SWAP2 POP POP JUMP JUMPDEST DUP2 MLOAD DUP2 MSTORE PUSH1 0x20 DUP1 DUP4 ADD MLOAD SWAP1 DUP3 ADD MSTORE PUSH1 0x40 DUP1 DUP4 ADD MLOAD SWAP1 DUP3 ADD MSTORE PUSH1 0x60 SWAP2 DUP3 ADD MLOAD ISZERO ISZERO SWAP2 DUP2 ADD SWAP2 SWAP1 SWAP2 MSTORE PUSH1 0x80 ADD SWAP1 JUMP JUMPDEST DUP4 DUP2 MSTORE PUSH1 0xA0 DUP2 ADD PUSH2 0x4FCB PUSH1 0x20 DUP4 ADD DUP6 PUSH2 0x4B8C JUMP JUMPDEST PUSH2 0xA0C PUSH1 0x60 DUP4 ADD DUP5 PUSH2 0x4B8C JUMP JUMPDEST SWAP3 DUP4 MSTORE PUSH1 0x20 DUP4 ADD SWAP2 SWAP1 SWAP2 MSTORE PUSH1 0x40 DUP3 ADD MSTORE PUSH1 0x60 ADD SWAP1 JUMP JUMPDEST PUSH1 0x40 MLOAD DUP2 DUP2 ADD PUSH8 0xFFFFFFFFFFFFFFFF DUP2 GT DUP3 DUP3 LT OR ISZERO PUSH2 0x500A JUMPI INVALID JUMPDEST PUSH1 0x40 MSTORE SWAP2 SWAP1 POP JUMP INVALID LOG2 PUSH5 0x6970667358 0x22 SLT KECCAK256 GASLIMIT CALLCODE DUP9 0xB7 0xAD LOG4 SWAP1 0xDC 0xA9 PUSH19 0x51029FC6DE100737D32AECF94593A2705E3511 EXP LOG3 JUMP PUSH5 0x736F6C6343 STOP SMOD MOD STOP CALLER ","sha1":"0d365741d7ee80d03826760a46c59b1a571fcbca","source":"// SPDX-License-Identifier: BSUL-1.1\npragma solidity =0.7.6;\npragma abicoder v2;\n\nimport {\n    PrimeRate,\n    VaultState,\n    VaultBorrowCapacityStorage,\n    VaultAccountStorage,\n    VaultAccount,\n    VaultConfig,\n    VaultAccountSecondaryDebtShareStorage,\n    VaultStateStorage\n} from \"../../global/Types.sol\";\nimport {Constants} from \"../../global/Constants.sol\";\nimport {LibStorage} from \"../../global/LibStorage.sol\";\nimport {SafeUint256} from \"../../math/SafeUint256.sol\";\nimport {SafeInt256} from \"../../math/SafeInt256.sol\";\n\nimport {Emitter} from \"../../internal/Emitter.sol\";\nimport {VaultConfiguration} from \"../../internal/vaults/VaultConfiguration.sol\";\nimport {VaultAccountLib} from \"../../internal/vaults/VaultAccount.sol\";\nimport {VaultValuation, VaultAccountHealthFactors} from \"../../internal/vaults/VaultValuation.sol\";\nimport {VaultSecondaryBorrow} from \"../../internal/vaults/VaultSecondaryBorrow.sol\";\nimport {VaultStateLib} from \"../../internal/vaults/VaultState.sol\";\nimport {PrimeRateLib} from \"../../internal/pCash/PrimeRateLib.sol\";\nimport {PrimeSupplyCap} from \"../../internal/pCash/PrimeSupplyCap.sol\";\nimport {PrimeCashExchangeRate} from \"../../internal/pCash/PrimeCashExchangeRate.sol\";\n\nimport {IVaultAccountHealth} from \"../../../interfaces/notional/IVaultController.sol\";\n\ncontract VaultAccountHealth is IVaultAccountHealth {\n    using PrimeRateLib for PrimeRate;\n    using PrimeSupplyCap for PrimeRate;\n    using VaultConfiguration for VaultConfig;\n    using SafeUint256 for uint256;\n    using SafeInt256 for int256;\n\n    /// @notice Checks if a vault account has sufficient collateral to perform an action, reverts if it does not.\n    /// Called at the end of VaultAccountActions after all values have been set in storage\n    function checkVaultAccountCollateralRatio(address vault, address account, bool checkDebtCap) external override {\n        require(account != vault);\n        VaultConfig memory vaultConfig = VaultConfiguration.getVaultConfigStateful(vault);\n        VaultAccount memory vaultAccount = VaultAccountLib.getVaultAccount(account, vaultConfig);\n        VaultState memory vaultState = VaultStateLib.getVaultState(vaultConfig, vaultAccount.maturity);\n        // There should never bee any temp cash balance during this check (this is also enforced by\n        // the setVaultAccount method).\n        require(vaultAccount.tempCashBalance == 0);\n        // Require that secondary cash is zero during this method as well\n        VaultAccountLib.checkVaultAccountSecondaryCash(account, vault);\n\n        (int256 collateralRatio, PrimeRate[2] memory secondaryRates) = VaultValuation.getCollateralRatioFactorsStateful(\n            vaultConfig, vaultState, account, vaultAccount.vaultShares, vaultAccount.accountDebtUnderlying\n        );\n\n        if (checkDebtCap && vaultAccount.maturity == Constants.PRIME_CASH_VAULT_MATURITY) {\n            vaultConfig.primeRate.checkDebtCap(vaultConfig.borrowCurrencyId);\n            if (vaultConfig.secondaryBorrowCurrencies[0] != 0) {\n                secondaryRates[0].checkDebtCap(vaultConfig.secondaryBorrowCurrencies[0]);\n            }\n            if (vaultConfig.secondaryBorrowCurrencies[1] != 0) {\n                secondaryRates[1].checkDebtCap(vaultConfig.secondaryBorrowCurrencies[1]);\n            }\n        }\n\n        // Enforce a maximum account collateral ratio that must be satisfied for vault entry and vault exit,\n        // to ensure that accounts are not \"free riding\" on vaults by entering without incurring borrowing\n        // costs. We only enforce this if the account has any assets remaining in the vault (so that they\n        // may exit in full at any time.)\n        if (vaultAccount.vaultShares > 0) {\n            require(collateralRatio <= vaultConfig.maxRequiredAccountCollateralRatio, \"Above Max Collateral\");\n        }\n\n        require(vaultConfig.minCollateralRatio <= collateralRatio, \"Insufficient Collateral\");\n    }\n\n    function getVaultAccountHealthFactors(address account, address vault) external view override returns (\n        VaultAccountHealthFactors memory h,\n        int256[3] memory maxLiquidatorDepositUnderlying,\n        uint256[3] memory vaultSharesToLiquidator\n    ) {\n        VaultConfig memory vaultConfig = VaultConfiguration.getVaultConfigView(vault);\n        // NOTE: matured vaults may have a higher collateral ratio than reported here after settlement if\n        // the vault is holding prime cash. If the vault is holding prime cash and the account is settled\n        // manually the vault's debts will be repaid by its prime cash claim. This can only increase its\n        // collateral ratio.\n        VaultAccount memory vaultAccount = VaultAccountLib.getVaultAccount(account, vaultConfig);\n        VaultState memory vaultState = VaultStateLib.getVaultState(vaultConfig, vaultAccount.maturity);\n\n        PrimeRate[2] memory primeRates;\n        if (vaultConfig.hasSecondaryBorrows()) {\n            primeRates = VaultSecondaryBorrow.getSecondaryPrimeRateView(vaultConfig, block.timestamp);\n        }\n\n        VaultSecondaryBorrow.SecondaryExchangeRates memory er;\n        (h, er) = VaultValuation.calculateAccountHealthFactors(vaultConfig, vaultAccount, vaultState, primeRates);\n\n        int256 vaultShares = vaultAccount.vaultShares.toInt();\n        if (h.collateralRatio < vaultConfig.minCollateralRatio) {\n            // depositUnderlyingInternal is set to type(int256).max here, getLiquidationFactors will limit\n            // this to the calculated maxLiquidatorDeposit and calculate vault shares to liquidator accordingly\n            (maxLiquidatorDepositUnderlying[0], vaultSharesToLiquidator[0]) = \n                VaultValuation.getLiquidationFactors(vaultConfig, h, er, 0, vaultShares, type(int256).max);\n\n            if (vaultConfig.hasSecondaryBorrows()) {\n                (maxLiquidatorDepositUnderlying[1], vaultSharesToLiquidator[1]) = \n                    VaultValuation.getLiquidationFactors(vaultConfig, h, er, 1, vaultShares, type(int256).max);\n                (maxLiquidatorDepositUnderlying[2], vaultSharesToLiquidator[2]) = \n                    VaultValuation.getLiquidationFactors(vaultConfig, h, er, 2, vaultShares, type(int256).max);\n            }\n        }\n    }\n\n    /// @notice Returns the fCash required to liquidate a given vault cash balance.\n    function getfCashRequiredToLiquidateCash(\n        uint16 currencyId,\n        uint256 maturity,\n        int256 vaultAccountCashBalance\n    ) external view override returns (int256 fCashRequired, int256 discountFactor) {\n        (PrimeRate memory pr, /* */) = PrimeCashExchangeRate.getPrimeCashRateView(currencyId, block.timestamp);\n        discountFactor = VaultValuation.getLiquidateCashDiscountFactor(pr, currencyId, maturity);\n        fCashRequired = pr.convertToUnderlying(vaultAccountCashBalance).divInRatePrecision(discountFactor);\n    }\n\n    function getVaultAccount(address account, address vault) external override view returns (VaultAccount memory vaultAccount) {\n        VaultConfig memory vaultConfig = VaultConfiguration.getVaultConfigView(vault);\n        vaultAccount = VaultAccountLib.getVaultAccount(account, vaultConfig);\n    }\n\n    function getVaultAccountWithFeeAccrual(address account, address vault) external override view returns (\n        VaultAccount memory vaultAccount,\n        int256 accruedPrimeVaultFeeInUnderlying\n    ) {\n        VaultConfig memory vaultConfig = VaultConfiguration.getVaultConfigView(vault);\n        vaultAccount = VaultAccountLib.getVaultAccount(account, vaultConfig);\n\n        if (vaultAccount.maturity == Constants.PRIME_CASH_VAULT_MATURITY) {\n            // Save this because it is re-written inside the calculate vault fees method\n            uint256 lastUpdateBlockTime = vaultAccount.lastUpdateBlockTime;\n            accruedPrimeVaultFeeInUnderlying = vaultConfig.primeRate.convertToUnderlying(\n                vaultConfig.calculateVaultFees(\n                    vaultAccount,\n                    vaultConfig.primeRate.convertFromUnderlying(vaultAccount.accountDebtUnderlying).neg(),\n                    vaultAccount.maturity,\n                    block.timestamp\n                )\n            );\n\n            // Reset the last update block time and add the accrued vault fee to the total debt (use\n            // subtraction since debts are negative).\n            vaultAccount.lastUpdateBlockTime = lastUpdateBlockTime;\n            vaultAccount.accountDebtUnderlying = vaultAccount.accountDebtUnderlying.sub(\n                accruedPrimeVaultFeeInUnderlying\n            );\n        }\n    }\n\n    function getVaultConfig(\n        address vault\n    ) external view override returns (VaultConfig memory vaultConfig) {\n        vaultConfig = VaultConfiguration.getVaultConfigView(vault);\n    }\n\n    function getVaultState(\n        address vault,\n        uint256 maturity\n    ) external view override returns (VaultState memory vaultState) {\n        VaultConfig memory vaultConfig = VaultConfiguration.getVaultConfigView(vault);\n        vaultState = VaultStateLib.getVaultState(vaultConfig, maturity);\n\n        if (maturity <= block.timestamp) {\n            // Convert settled fCash to how much debt is owed post maturity\n            vaultState.totalDebtUnderlying = vaultConfig.primeRate.convertToUnderlying(\n                vaultConfig.primeRate.convertSettledfCashView(\n                    vaultConfig.borrowCurrencyId,\n                    maturity,\n                    vaultState.totalDebtUnderlying,\n                    block.timestamp\n                )\n            );\n        }\n    }\n\n    function getSecondaryBorrow(\n        address vault,\n        uint16 currencyId,\n        uint256 maturity\n    ) external view override returns (int256 totalDebtUnderlying) {\n        VaultStateStorage storage balance = \n            LibStorage.getVaultSecondaryBorrow()[vault][maturity][currencyId];\n        (PrimeRate memory pr, /* */) = PrimeCashExchangeRate.getPrimeCashRateView(currencyId, block.timestamp);\n        totalDebtUnderlying = -int256(uint256(balance.totalDebt));\n\n        if (maturity == Constants.PRIME_CASH_VAULT_MATURITY) {\n            totalDebtUnderlying = pr.convertDebtStorageToUnderlying(totalDebtUnderlying);\n        } else if (maturity <= block.timestamp) {\n            // Convert settled fCash to how much debt is owed post maturity\n            totalDebtUnderlying = pr.convertToUnderlying(\n                pr.convertSettledfCashView(\n                    currencyId, maturity, totalDebtUnderlying, block.timestamp\n                )\n            );\n        }\n    }\n\n    function getBorrowCapacity(\n        address vault,\n        uint16 currencyId\n    ) external view override returns (\n        uint256 currentPrimeDebtUnderlying,\n        uint256 totalfCashDebt,\n        uint256 maxBorrowCapacity\n    ) {\n        VaultConfig memory vaultConfig = VaultConfiguration.getVaultConfigView(vault);\n        VaultBorrowCapacityStorage storage cap = LibStorage.getVaultBorrowCapacity()[vault][currencyId];\n        totalfCashDebt = cap.totalfCashDebt;\n        maxBorrowCapacity = cap.maxBorrowCapacity;\n\n        PrimeRate memory pr; \n        if (currencyId == vaultConfig.borrowCurrencyId) {\n            pr = vaultConfig.primeRate;\n        } else {\n            (pr, /* */) = PrimeCashExchangeRate.getPrimeCashRateView(currencyId, block.timestamp);\n        }\n        currentPrimeDebtUnderlying = VaultStateLib.getCurrentPrimeDebt(vaultConfig, pr, currencyId).neg().toUint();\n    }\n\n    function getVaultAccountSecondaryDebt(\n        address account,\n        address vault\n    ) external override view returns (\n        uint256 maturity,\n        int256[2] memory accountSecondaryDebt,\n        int256[2] memory accountSecondaryCashHeld\n    ) {\n        VaultConfig memory vaultConfig = VaultConfiguration.getVaultConfigView(vault);\n        PrimeRate[2] memory pr = VaultSecondaryBorrow.getSecondaryPrimeRateView(vaultConfig, block.timestamp);\n        VaultAccount memory vaultAccount = VaultAccountLib.getVaultAccount(account, vaultConfig);\n\n        (\n            maturity,\n            accountSecondaryDebt[0],\n            accountSecondaryDebt[1]\n        ) = VaultSecondaryBorrow.getAccountSecondaryDebt(vaultConfig, account, pr);\n\n        (\n            accountSecondaryCashHeld[0],\n            accountSecondaryCashHeld[1]\n        ) = VaultSecondaryBorrow.getSecondaryCashHeld(vaultAccount.account, vaultConfig.vault);\n    }\n\n    function calculateDepositAmountInDeleverage(\n        uint256 currencyIndex,\n        VaultAccount memory vaultAccount,\n        VaultConfig memory vaultConfig,\n        VaultState memory vaultState,\n        int256 depositUnderlyingInternal\n    ) external override returns (int256, uint256, PrimeRate memory) {\n        // This method is only intended for use during deleverage account\n        require(msg.sender == address(this)); // dev: unauthorized\n\n        // Return the proper prime rate object\n        PrimeRate memory pr = vaultConfig.primeRate;\n        VaultAccountHealthFactors memory h;\n        VaultSecondaryBorrow.SecondaryExchangeRates memory er;\n        {\n            PrimeRate[2] memory primeRates;\n            if (vaultConfig.hasSecondaryBorrows()) {\n                primeRates = VaultSecondaryBorrow.getSecondaryPrimeRateStateful(vaultConfig);\n\n                // Set the proper prime rate object to return if liquidating secondary\n                if (currencyIndex > 0) pr = primeRates[currencyIndex - 1];\n            } else {\n                require(currencyIndex == 0);\n            }\n\n            (h, er) = VaultValuation.calculateAccountHealthFactors(vaultConfig, vaultAccount, vaultState, primeRates);\n            // Require account is eligible for liquidation\n            require(h.collateralRatio < vaultConfig.minCollateralRatio , \"Sufficient Collateral\");\n        }\n        \n        // depositUnderlyingInternal is capped to the max liquidator deposit local inside this method,\n        // vault shares to liquidator is calculated based on the deposit amount returned here.\n        uint256 vaultSharesToLiquidator;\n        (depositUnderlyingInternal, vaultSharesToLiquidator) = VaultValuation.getLiquidationFactors(\n            // vaultShares cannot overflow int256 due to storage size, manual conversion required to\n            // reduce stack size\n            vaultConfig, h, er, currencyIndex, int256(vaultAccount.vaultShares), depositUnderlyingInternal\n        );\n\n        return (depositUnderlyingInternal, vaultSharesToLiquidator, pr);\n    }\n\n    /// @notice Returns the signed value for a given vault ERC1155 id\n    function signedBalanceOfVaultTokenId(address account, uint256 id) external view override returns (int256) {\n        (uint256 assetType, uint16 currencyId, uint256 maturity, address vault) = Emitter.decodeVaultId(id);\n        VaultConfig memory vaultConfig = VaultConfiguration.getVaultConfigView(vault);\n\n        mapping(address => mapping(address => VaultAccountStorage)) storage store = LibStorage.getVaultAccount();\n        VaultAccountStorage storage s = store[account][vaultConfig.vault];\n\n        uint256 storedMaturity = s.maturity;\n        if (maturity != storedMaturity) return 0;\n\n        if (assetType == Constants.VAULT_SHARE_ASSET_TYPE) {\n            // No overflow due to storage size\n            return int256(s.vaultShares);\n        } else if (currencyId == vaultConfig.borrowCurrencyId && assetType == Constants.VAULT_DEBT_ASSET_TYPE) {\n            // Returns a positive number that reflects the stored value, not the underlying valuation\n            return int256(s.accountDebt);\n        } else if (currencyId == vaultConfig.borrowCurrencyId && assetType == Constants.VAULT_CASH_ASSET_TYPE) {\n            return int256(s.primaryCash);\n        }\n\n        if (vaultConfig.hasSecondaryBorrows()) {\n            int256 one;\n            int256 two;\n            if (assetType == Constants.VAULT_DEBT_ASSET_TYPE) {\n                VaultAccountSecondaryDebtShareStorage storage secondary = \n                    LibStorage.getVaultAccountSecondaryDebtShare()[account][vaultConfig.vault];\n                (one, two) = (int256(secondary.accountDebtOne), int256(secondary.accountDebtTwo));\n            } else if (assetType == Constants.VAULT_CASH_ASSET_TYPE) {\n                (one, two) = (int256(s.secondaryCashOne), int256(s.secondaryCashTwo));\n            }\n\n            if (currencyId == vaultConfig.secondaryBorrowCurrencies[0]) return one;\n            if (currencyId == vaultConfig.secondaryBorrowCurrencies[1]) return two;\n        }\n        \n        return 0;\n    }\n\n}","sourcePath":"contracts/external/actions/VaultAccountHealth.sol","type":"contract","deployment":{"address":"0x7d764650690e60a7a6647F2d12708F8434b87052","chainid":"1","blockHeight":19302171}}