{"abi":[{"inputs":[{"internalType":"contract NotionalProxy","name":"notional_","type":"address"},{"internalType":"address","name":"underlying_","type":"address"}],"stateMutability":"nonpayable","type":"constructor","name":"constructor"},{"inputs":[],"name":"decimals","outputs":[{"internalType":"uint8","name":"","type":"uint8"}],"stateMutability":"view","type":"function"},{"inputs":[{"internalType":"address[]","name":"holdings_","type":"address[]"},{"internalType":"uint256[]","name":"depositAmounts","type":"uint256[]"}],"name":"getDepositCalldataForRebalancing","outputs":[{"components":[{"internalType":"address[]","name":"targets","type":"address[]"},{"internalType":"bytes[]","name":"callData","type":"bytes[]"},{"internalType":"uint256[]","name":"msgValue","type":"uint256[]"},{"internalType":"uint256","name":"underlyingDepositAmount","type":"uint256"},{"internalType":"address","name":"assetToken","type":"address"},{"internalType":"uint8","name":"rebasingTokenBalanceAdjustment","type":"uint8"}],"internalType":"struct DepositData[]","name":"depositData","type":"tuple[]"}],"stateMutability":"view","type":"function"},{"inputs":[],"name":"getOracleData","outputs":[{"components":[{"internalType":"address","name":"holding","type":"address"},{"internalType":"uint256","name":"externalUnderlyingAvailableForWithdraw","type":"uint256"},{"internalType":"uint256","name":"currentExternalUnderlyingLend","type":"uint256"},{"internalType":"uint256","name":"maxExternalDeposit","type":"uint256"}],"internalType":"struct OracleData","name":"oracleData","type":"tuple"}],"stateMutability":"view","type":"function"},{"inputs":[{"internalType":"uint256","name":"withdrawAmount","type":"uint256"}],"name":"getRedemptionCalldata","outputs":[{"components":[{"internalType":"address[]","name":"targets","type":"address[]"},{"internalType":"bytes[]","name":"callData","type":"bytes[]"},{"internalType":"uint256","name":"expectedUnderlying","type":"uint256"},{"internalType":"address","name":"assetToken","type":"address"},{"internalType":"uint8","name":"rebasingTokenBalanceAdjustment","type":"uint8"}],"internalType":"struct RedeemData[]","name":"redeemData","type":"tuple[]"}],"stateMutability":"view","type":"function"},{"inputs":[{"internalType":"address[]","name":"holdings_","type":"address[]"},{"internalType":"uint256[]","name":"withdrawAmounts","type":"uint256[]"}],"name":"getRedemptionCalldataForRebalancing","outputs":[{"components":[{"internalType":"address[]","name":"targets","type":"address[]"},{"internalType":"bytes[]","name":"callData","type":"bytes[]"},{"internalType":"uint256","name":"expectedUnderlying","type":"uint256"},{"internalType":"address","name":"assetToken","type":"address"},{"internalType":"uint8","name":"rebasingTokenBalanceAdjustment","type":"uint8"}],"internalType":"struct RedeemData[]","name":"redeemData","type":"tuple[]"}],"stateMutability":"view","type":"function"},{"inputs":[],"name":"getTotalUnderlyingValueStateful","outputs":[{"internalType":"uint256","name":"nativePrecision","type":"uint256"},{"internalType":"uint256","name":"internalPrecision","type":"uint256"}],"stateMutability":"nonpayable","type":"function"},{"inputs":[],"name":"getTotalUnderlyingValueView","outputs":[{"internalType":"uint256","name":"nativePrecision","type":"uint256"},{"internalType":"uint256","name":"internalPrecision","type":"uint256"}],"stateMutability":"view","type":"function"},{"inputs":[],"name":"holdingValuesInUnderlying","outputs":[{"internalType":"uint256[]","name":"","type":"uint256[]"}],"stateMutability":"view","type":"function"},{"inputs":[],"name":"holdings","outputs":[{"internalType":"address[]","name":"","type":"address[]"}],"stateMutability":"view","type":"function"},{"inputs":[],"name":"underlying","outputs":[{"internalType":"address","name":"","type":"address"}],"stateMutability":"view","type":"function"}],"bytecode":"61012060405234801561001157600080fd5b50604051610aeb380380610aeb8339810160408190526100309161011b565b6001600160a01b038116156000816100b857826001600160a01b031663313ce5676040518163ffffffff1660e01b815260040160206040518083038186803b15801561007b57600080fd5b505afa15801561008f573d6000803e3d6000fd5b505050506040513d601f19601f820116820180604052508101906100b39190610154565b6100bb565b60125b6001600160601b0319606095861b81166080529390941b90921660a052151560f890811b610100527fff000000000000000000000000000000000000000000000000000000000000009083901b1660c0525060ff16600a0a60e052610194565b6000806040838503121561012d578182fd5b82516101388161017c565b60208401519092506101498161017c565b809150509250929050565b600060208284031215610165578081fd5b815160ff81168114610175578182fd5b9392505050565b6001600160a01b038116811461019157600080fd5b50565b60805160601c60a05160601c60c05160f81c60e0516101005160f81c61090c6101df600039508061020a5250806101835250806101bf52806102a25250806102f3525061090c6000f3fe608060405234801561001057600080fd5b506004361061009e5760003560e01c8063871ade4311610066578063871ade4314610120578063a77c05b81461013b578063b5e4da2314610151578063e79bf13b14610164578063ef81f216146101795761009e565b8063313ce567146100a3578063395c46ba146100c15780636481c5e6146100d65780636f307dc3146100eb57806376cf13af14610100575b600080fd5b6100ab610181565b6040516100b891906108c8565b60405180910390f35b6100c96101a6565b6040516100b89190610842565b6100de6101b5565b6040516100b89190610886565b6100f36101bd565b6040516100b89190610682565b61011361010e36600461046f565b6101e1565b6040516100b891906106a9565b61012e61010e36600461046f565b6040516100b891906107a2565b6101436101f8565b6040516100b89291906108ba565b61012e61015f366004610586565b610243565b61016c6101a6565b6040516100b89190610696565b610143610254565b7f00000000000000000000000000000000000000000000000000000000000000005b90565b60606101b061025f565b905090565b6101a36103f5565b7f000000000000000000000000000000000000000000000000000000000000000090565b60606101ef85858585610271565b95945050505050565b60008061020361027b565b915061023d7f0000000000000000000000000000000000000000000000000000000000000000610237846305f5e100610398565b906103c6565b90509091565b606061024e826103e5565b92915050565b6000806102036103eb565b60408051600081526020810190915290565b6060949350505050565b604080516001808252818301909252600091829190602080830190803683370190505090507f0000000000000000000000000000000000000000000000000000000000000000816000815181106102ce57fe5b6001600160a01b039283166020918202929092010152604051631794b8ef60e01b81527f000000000000000000000000000000000000000000000000000000000000000090911690631794b8ef9061032a908490600401610696565b60006040518083038186803b15801561034257600080fd5b505afa158015610356573d6000803e3d6000fd5b505050506040513d6000823e601f3d908101601f1916820160405261037e91908101906104d8565b60008151811061038a57fe5b602002602001015191505090565b6000826103a75750600061024e565b828202828482816103b457fe5b04146103bf57600080fd5b9392505050565b60008082116103d457600080fd5b8183816103dd57fe5b049392505050565b50606090565b60006101b061027b565b604051806080016040528060006001600160a01b031681526020016000815260200160008152602001600081525090565b60008083601f840112610437578081fd5b50813567ffffffffffffffff81111561044e578182fd5b602083019150836020808302850101111561046857600080fd5b9250929050565b60008060008060408587031215610484578384fd5b843567ffffffffffffffff8082111561049b578586fd5b6104a788838901610426565b909650945060208701359150808211156104bf578384fd5b506104cc87828801610426565b95989497509550505050565b600060208083850312156104ea578182fd5b825167ffffffffffffffff80821115610501578384fd5b818501915085601f830112610514578384fd5b81518181111561052057fe5b8381026040518582820101818110858211171561053957fe5b604052828152858101935084860182860187018a1015610557578788fd5b8795505b8386101561057957805185526001959095019493860193860161055b565b5098975050505050505050565b600060208284031215610597578081fd5b5035919050565b6001600160a01b03169052565b6000815180845260208085019450808401835b838110156105e35781516001600160a01b0316875295820195908201906001016105be565b509495945050505050565b60008282518085526020808601955080818302840101818601855b8481101561066e57601f1980878503018a5282518051808652895b8181101561063f578281018801518782018901528701610624565b8181111561064f578a8883890101525b509a86019a601f01909116939093018401925090830190600101610609565b5090979650505050505050565b60ff169052565b6001600160a01b0391909116815260200190565b6000602082526103bf60208301846105ab565b60208082528251828201819052600091906040908185019080840286018301878501865b8381101561079457603f19898403018552815160c081518186526106f3828701826105ab565b915050888201518582038a87015261070b82826105ee565b838a0151878203888c01528051808352908c0193508c9250908b01905b808310156107485783518252928b019260019290920191908b0190610728565b5060608481015190880152608080850151909350915061076a8388018361059e565b60a09384015193925061077f8784018561067b565b978a01979550505091870191506001016106cd565b509098975050505050505050565b60208082528251828201819052600091906040908185019080840286018301878501865b8381101561079457603f19898403018552815160a081518186526107ec828701826105ab565b915050888201518582038a87015261080482826105ee565b838a0151878b01526060808501516001600160a01b03169088015260809384015160ff169390960192909252505093860193908601906001016107c6565b6020808252825182820181905260009190848201906040850190845b8181101561087a5783518352928401929184019160010161085e565b50909695505050505050565b81516001600160a01b0316815260208083015190820152604080830151908201526060918201519181019190915260800190565b918252602082015260400190565b60ff9190911681526020019056fea264697066735822122095e61e483a4f76bc3923507bf9dbc14c91f1041f8ed463b563bd65154adee22464736f6c63430007060033","bytecodeSha1":"695094c2aaa2715bbf71fc8959b7bf28fa06f9f4","compiler":{"evm_version":"istanbul","optimizer":{"enabled":true,"runs":200},"version":"0.7.6+commit.7338295f"},"contractName":"UnderlyingHoldingsOracle","language":"Solidity","natspec":{"kind":"dev","methods":{"decimals()":{"notice":"Returns the native decimal precision of the underlying token"},"getRedemptionCalldata(uint256)":{"notice":"Returns calldata for how to withdraw an amount"},"getTotalUnderlyingValueStateful()":{"notice":"Returns the total underlying held by the caller in all the listed holdings"},"holdings()":{"notice":"Returns a list of the various holdings for the prime cash currency"},"underlying()":{"notice":"Returns the underlying token that all holdings can be redeemed for."}},"version":1},"opcodes":"PUSH1 0x80 PUSH1 0x40 MSTORE CALLVALUE DUP1 ISZERO PUSH2 0x10 JUMPI PUSH1 0x0 DUP1 REVERT JUMPDEST POP PUSH1 0x4 CALLDATASIZE LT PUSH2 0x9E JUMPI PUSH1 0x0 CALLDATALOAD PUSH1 0xE0 SHR DUP1 PUSH4 0x871ADE43 GT PUSH2 0x66 JUMPI DUP1 PUSH4 0x871ADE43 EQ PUSH2 0x120 JUMPI DUP1 PUSH4 0xA77C05B8 EQ PUSH2 0x13B JUMPI DUP1 PUSH4 0xB5E4DA23 EQ PUSH2 0x151 JUMPI DUP1 PUSH4 0xE79BF13B EQ PUSH2 0x164 JUMPI DUP1 PUSH4 0xEF81F216 EQ PUSH2 0x179 JUMPI PUSH2 0x9E JUMP JUMPDEST DUP1 PUSH4 0x313CE567 EQ PUSH2 0xA3 JUMPI DUP1 PUSH4 0x395C46BA EQ PUSH2 0xC1 JUMPI DUP1 PUSH4 0x6481C5E6 EQ PUSH2 0xD6 JUMPI DUP1 PUSH4 0x6F307DC3 EQ PUSH2 0xEB JUMPI DUP1 PUSH4 0x76CF13AF EQ PUSH2 0x100 JUMPI JUMPDEST PUSH1 0x0 DUP1 REVERT JUMPDEST PUSH2 0xAB PUSH2 0x181 JUMP JUMPDEST PUSH1 0x40 MLOAD PUSH2 0xB8 SWAP2 SWAP1 PUSH2 0x8C8 JUMP JUMPDEST PUSH1 0x40 MLOAD DUP1 SWAP2 SUB SWAP1 RETURN JUMPDEST PUSH2 0xC9 PUSH2 0x1A6 JUMP JUMPDEST PUSH1 0x40 MLOAD PUSH2 0xB8 SWAP2 SWAP1 PUSH2 0x842 JUMP JUMPDEST PUSH2 0xDE PUSH2 0x1B5 JUMP JUMPDEST PUSH1 0x40 MLOAD PUSH2 0xB8 SWAP2 SWAP1 PUSH2 0x886 JUMP JUMPDEST PUSH2 0xF3 PUSH2 0x1BD JUMP JUMPDEST PUSH1 0x40 MLOAD PUSH2 0xB8 SWAP2 SWAP1 PUSH2 0x682 JUMP JUMPDEST PUSH2 0x113 PUSH2 0x10E CALLDATASIZE PUSH1 0x4 PUSH2 0x46F JUMP JUMPDEST PUSH2 0x1E1 JUMP JUMPDEST PUSH1 0x40 MLOAD PUSH2 0xB8 SWAP2 SWAP1 PUSH2 0x6A9 JUMP JUMPDEST PUSH2 0x12E PUSH2 0x10E CALLDATASIZE PUSH1 0x4 PUSH2 0x46F JUMP JUMPDEST PUSH1 0x40 MLOAD PUSH2 0xB8 SWAP2 SWAP1 PUSH2 0x7A2 JUMP JUMPDEST PUSH2 0x143 PUSH2 0x1F8 JUMP JUMPDEST PUSH1 0x40 MLOAD PUSH2 0xB8 SWAP3 SWAP2 SWAP1 PUSH2 0x8BA JUMP JUMPDEST PUSH2 0x12E PUSH2 0x15F CALLDATASIZE PUSH1 0x4 PUSH2 0x586 JUMP JUMPDEST PUSH2 0x243 JUMP JUMPDEST PUSH2 0x16C PUSH2 0x1A6 JUMP JUMPDEST PUSH1 0x40 MLOAD PUSH2 0xB8 SWAP2 SWAP1 PUSH2 0x696 JUMP JUMPDEST PUSH2 0x143 PUSH2 0x254 JUMP JUMPDEST PUSH32 0x0 JUMPDEST SWAP1 JUMP JUMPDEST PUSH1 0x60 PUSH2 0x1B0 PUSH2 0x25F JUMP JUMPDEST SWAP1 POP SWAP1 JUMP JUMPDEST PUSH2 0x1A3 PUSH2 0x3F5 JUMP JUMPDEST PUSH32 0x0 SWAP1 JUMP JUMPDEST PUSH1 0x60 PUSH2 0x1EF DUP6 DUP6 DUP6 DUP6 PUSH2 0x271 JUMP JUMPDEST SWAP6 SWAP5 POP POP POP POP POP JUMP JUMPDEST PUSH1 0x0 DUP1 PUSH2 0x203 PUSH2 0x27B JUMP JUMPDEST SWAP2 POP PUSH2 0x23D PUSH32 0x0 PUSH2 0x237 DUP5 PUSH4 0x5F5E100 PUSH2 0x398 JUMP JUMPDEST SWAP1 PUSH2 0x3C6 JUMP JUMPDEST SWAP1 POP SWAP1 SWAP2 JUMP JUMPDEST PUSH1 0x60 PUSH2 0x24E DUP3 PUSH2 0x3E5 JUMP JUMPDEST SWAP3 SWAP2 POP POP JUMP JUMPDEST PUSH1 0x0 DUP1 PUSH2 0x203 PUSH2 0x3EB JUMP JUMPDEST PUSH1 0x40 DUP1 MLOAD PUSH1 0x0 DUP2 MSTORE PUSH1 0x20 DUP2 ADD SWAP1 SWAP2 MSTORE SWAP1 JUMP JUMPDEST PUSH1 0x60 SWAP5 SWAP4 POP POP POP POP JUMP JUMPDEST PUSH1 0x40 DUP1 MLOAD PUSH1 0x1 DUP1 DUP3 MSTORE DUP2 DUP4 ADD SWAP1 SWAP3 MSTORE PUSH1 0x0 SWAP2 DUP3 SWAP2 SWAP1 PUSH1 0x20 DUP1 DUP4 ADD SWAP1 DUP1 CALLDATASIZE DUP4 CALLDATACOPY ADD SWAP1 POP POP SWAP1 POP PUSH32 0x0 DUP2 PUSH1 0x0 DUP2 MLOAD DUP2 LT PUSH2 0x2CE JUMPI INVALID JUMPDEST PUSH1 0x1 PUSH1 0x1 PUSH1 0xA0 SHL SUB SWAP3 DUP4 AND PUSH1 0x20 SWAP2 DUP3 MUL SWAP3 SWAP1 SWAP3 ADD ADD MSTORE PUSH1 0x40 MLOAD PUSH4 0x1794B8EF PUSH1 0xE0 SHL DUP2 MSTORE PUSH32 0x0 SWAP1 SWAP2 AND SWAP1 PUSH4 0x1794B8EF SWAP1 PUSH2 0x32A SWAP1 DUP5 SWAP1 PUSH1 0x4 ADD PUSH2 0x696 JUMP JUMPDEST PUSH1 0x0 PUSH1 0x40 MLOAD DUP1 DUP4 SUB DUP2 DUP7 DUP1 EXTCODESIZE ISZERO DUP1 ISZERO PUSH2 0x342 JUMPI PUSH1 0x0 DUP1 REVERT JUMPDEST POP GAS STATICCALL ISZERO DUP1 ISZERO PUSH2 0x356 JUMPI RETURNDATASIZE PUSH1 0x0 DUP1 RETURNDATACOPY RETURNDATASIZE PUSH1 0x0 REVERT JUMPDEST POP POP POP POP PUSH1 0x40 MLOAD RETURNDATASIZE PUSH1 0x0 DUP3 RETURNDATACOPY PUSH1 0x1F RETURNDATASIZE SWAP1 DUP2 ADD PUSH1 0x1F NOT AND DUP3 ADD PUSH1 0x40 MSTORE PUSH2 0x37E SWAP2 SWAP1 DUP2 ADD SWAP1 PUSH2 0x4D8 JUMP JUMPDEST PUSH1 0x0 DUP2 MLOAD DUP2 LT PUSH2 0x38A JUMPI INVALID JUMPDEST PUSH1 0x20 MUL PUSH1 0x20 ADD ADD MLOAD SWAP2 POP POP SWAP1 JUMP JUMPDEST PUSH1 0x0 DUP3 PUSH2 0x3A7 JUMPI POP PUSH1 0x0 PUSH2 0x24E JUMP JUMPDEST DUP3 DUP3 MUL DUP3 DUP5 DUP3 DUP2 PUSH2 0x3B4 JUMPI INVALID JUMPDEST DIV EQ PUSH2 0x3BF JUMPI PUSH1 0x0 DUP1 REVERT JUMPDEST SWAP4 SWAP3 POP POP POP JUMP JUMPDEST PUSH1 0x0 DUP1 DUP3 GT PUSH2 0x3D4 JUMPI PUSH1 0x0 DUP1 REVERT JUMPDEST DUP2 DUP4 DUP2 PUSH2 0x3DD JUMPI INVALID JUMPDEST DIV SWAP4 SWAP3 POP POP POP JUMP JUMPDEST POP PUSH1 0x60 SWAP1 JUMP JUMPDEST PUSH1 0x0 PUSH2 0x1B0 PUSH2 0x27B JUMP JUMPDEST PUSH1 0x40 MLOAD DUP1 PUSH1 0x80 ADD PUSH1 0x40 MSTORE DUP1 PUSH1 0x0 PUSH1 0x1 PUSH1 0x1 PUSH1 0xA0 SHL SUB AND DUP2 MSTORE PUSH1 0x20 ADD PUSH1 0x0 DUP2 MSTORE PUSH1 0x20 ADD PUSH1 0x0 DUP2 MSTORE PUSH1 0x20 ADD PUSH1 0x0 DUP2 MSTORE POP SWAP1 JUMP JUMPDEST PUSH1 0x0 DUP1 DUP4 PUSH1 0x1F DUP5 ADD SLT PUSH2 0x437 JUMPI DUP1 DUP2 REVERT JUMPDEST POP DUP2 CALLDATALOAD PUSH8 0xFFFFFFFFFFFFFFFF DUP2 GT ISZERO PUSH2 0x44E JUMPI DUP2 DUP3 REVERT JUMPDEST PUSH1 0x20 DUP4 ADD SWAP2 POP DUP4 PUSH1 0x20 DUP1 DUP4 MUL DUP6 ADD ADD GT ISZERO PUSH2 0x468 JUMPI PUSH1 0x0 DUP1 REVERT JUMPDEST SWAP3 POP SWAP3 SWAP1 POP JUMP JUMPDEST PUSH1 0x0 DUP1 PUSH1 0x0 DUP1 PUSH1 0x40 DUP6 DUP8 SUB SLT ISZERO PUSH2 0x484 JUMPI DUP4 DUP5 REVERT JUMPDEST DUP5 CALLDATALOAD PUSH8 0xFFFFFFFFFFFFFFFF DUP1 DUP3 GT ISZERO PUSH2 0x49B JUMPI DUP6 DUP7 REVERT JUMPDEST PUSH2 0x4A7 DUP9 DUP4 DUP10 ADD PUSH2 0x426 JUMP JUMPDEST SWAP1 SWAP7 POP SWAP5 POP PUSH1 0x20 DUP8 ADD CALLDATALOAD SWAP2 POP DUP1 DUP3 GT ISZERO PUSH2 0x4BF JUMPI DUP4 DUP5 REVERT JUMPDEST POP PUSH2 0x4CC DUP8 DUP3 DUP9 ADD PUSH2 0x426 JUMP JUMPDEST SWAP6 SWAP9 SWAP5 SWAP8 POP SWAP6 POP POP POP POP JUMP JUMPDEST PUSH1 0x0 PUSH1 0x20 DUP1 DUP4 DUP6 SUB SLT ISZERO PUSH2 0x4EA JUMPI DUP2 DUP3 REVERT JUMPDEST DUP3 MLOAD PUSH8 0xFFFFFFFFFFFFFFFF DUP1 DUP3 GT ISZERO PUSH2 0x501 JUMPI DUP4 DUP5 REVERT JUMPDEST DUP2 DUP6 ADD SWAP2 POP DUP6 PUSH1 0x1F DUP4 ADD SLT PUSH2 0x514 JUMPI DUP4 DUP5 REVERT JUMPDEST DUP2 MLOAD DUP2 DUP2 GT ISZERO PUSH2 0x520 JUMPI INVALID JUMPDEST DUP4 DUP2 MUL PUSH1 0x40 MLOAD DUP6 DUP3 DUP3 ADD ADD DUP2 DUP2 LT DUP6 DUP3 GT OR ISZERO PUSH2 0x539 JUMPI INVALID JUMPDEST PUSH1 0x40 MSTORE DUP3 DUP2 MSTORE DUP6 DUP2 ADD SWAP4 POP DUP5 DUP7 ADD DUP3 DUP7 ADD DUP8 ADD DUP11 LT ISZERO PUSH2 0x557 JUMPI DUP8 DUP9 REVERT JUMPDEST DUP8 SWAP6 POP JUMPDEST DUP4 DUP7 LT ISZERO PUSH2 0x579 JUMPI DUP1 MLOAD DUP6 MSTORE PUSH1 0x1 SWAP6 SWAP1 SWAP6 ADD SWAP5 SWAP4 DUP7 ADD SWAP4 DUP7 ADD PUSH2 0x55B JUMP JUMPDEST POP SWAP9 SWAP8 POP POP POP POP POP POP POP POP JUMP JUMPDEST PUSH1 0x0 PUSH1 0x20 DUP3 DUP5 SUB SLT ISZERO PUSH2 0x597 JUMPI DUP1 DUP2 REVERT JUMPDEST POP CALLDATALOAD SWAP2 SWAP1 POP JUMP JUMPDEST PUSH1 0x1 PUSH1 0x1 PUSH1 0xA0 SHL SUB AND SWAP1 MSTORE JUMP JUMPDEST PUSH1 0x0 DUP2 MLOAD DUP1 DUP5 MSTORE PUSH1 0x20 DUP1 DUP6 ADD SWAP5 POP DUP1 DUP5 ADD DUP4 JUMPDEST DUP4 DUP2 LT ISZERO PUSH2 0x5E3 JUMPI DUP2 MLOAD PUSH1 0x1 PUSH1 0x1 PUSH1 0xA0 SHL SUB AND DUP8 MSTORE SWAP6 DUP3 ADD SWAP6 SWAP1 DUP3 ADD SWAP1 PUSH1 0x1 ADD PUSH2 0x5BE JUMP JUMPDEST POP SWAP5 SWAP6 SWAP5 POP POP POP POP POP JUMP JUMPDEST PUSH1 0x0 DUP3 DUP3 MLOAD DUP1 DUP6 MSTORE PUSH1 0x20 DUP1 DUP7 ADD SWAP6 POP DUP1 DUP2 DUP4 MUL DUP5 ADD ADD DUP2 DUP7 ADD DUP6 JUMPDEST DUP5 DUP2 LT ISZERO PUSH2 0x66E JUMPI PUSH1 0x1F NOT DUP1 DUP8 DUP6 SUB ADD DUP11 MSTORE DUP3 MLOAD DUP1 MLOAD DUP1 DUP7 MSTORE DUP10 JUMPDEST DUP2 DUP2 LT ISZERO PUSH2 0x63F JUMPI DUP3 DUP2 ADD DUP9 ADD MLOAD DUP8 DUP3 ADD DUP10 ADD MSTORE DUP8 ADD PUSH2 0x624 JUMP JUMPDEST DUP2 DUP2 GT ISZERO PUSH2 0x64F JUMPI DUP11 DUP9 DUP4 DUP10 ADD ADD MSTORE JUMPDEST POP SWAP11 DUP7 ADD SWAP11 PUSH1 0x1F ADD SWAP1 SWAP2 AND SWAP4 SWAP1 SWAP4 ADD DUP5 ADD SWAP3 POP SWAP1 DUP4 ADD SWAP1 PUSH1 0x1 ADD PUSH2 0x609 JUMP JUMPDEST POP SWAP1 SWAP8 SWAP7 POP POP POP POP POP POP POP JUMP JUMPDEST PUSH1 0xFF AND SWAP1 MSTORE JUMP JUMPDEST PUSH1 0x1 PUSH1 0x1 PUSH1 0xA0 SHL SUB SWAP2 SWAP1 SWAP2 AND DUP2 MSTORE PUSH1 0x20 ADD SWAP1 JUMP JUMPDEST PUSH1 0x0 PUSH1 0x20 DUP3 MSTORE PUSH2 0x3BF PUSH1 0x20 DUP4 ADD DUP5 PUSH2 0x5AB JUMP JUMPDEST PUSH1 0x20 DUP1 DUP3 MSTORE DUP3 MLOAD DUP3 DUP3 ADD DUP2 SWAP1 MSTORE PUSH1 0x0 SWAP2 SWAP1 PUSH1 0x40 SWAP1 DUP2 DUP6 ADD SWAP1 DUP1 DUP5 MUL DUP7 ADD DUP4 ADD DUP8 DUP6 ADD DUP7 JUMPDEST DUP4 DUP2 LT ISZERO PUSH2 0x794 JUMPI PUSH1 0x3F NOT DUP10 DUP5 SUB ADD DUP6 MSTORE DUP2 MLOAD PUSH1 0xC0 DUP2 MLOAD DUP2 DUP7 MSTORE PUSH2 0x6F3 DUP3 DUP8 ADD DUP3 PUSH2 0x5AB JUMP JUMPDEST SWAP2 POP POP DUP9 DUP3 ADD MLOAD DUP6 DUP3 SUB DUP11 DUP8 ADD MSTORE PUSH2 0x70B DUP3 DUP3 PUSH2 0x5EE JUMP JUMPDEST DUP4 DUP11 ADD MLOAD DUP8 DUP3 SUB DUP9 DUP13 ADD MSTORE DUP1 MLOAD DUP1 DUP4 MSTORE SWAP1 DUP13 ADD SWAP4 POP DUP13 SWAP3 POP SWAP1 DUP12 ADD SWAP1 JUMPDEST DUP1 DUP4 LT ISZERO PUSH2 0x748 JUMPI DUP4 MLOAD DUP3 MSTORE SWAP3 DUP12 ADD SWAP3 PUSH1 0x1 SWAP3 SWAP1 SWAP3 ADD SWAP2 SWAP1 DUP12 ADD SWAP1 PUSH2 0x728 JUMP JUMPDEST POP PUSH1 0x60 DUP5 DUP2 ADD MLOAD SWAP1 DUP9 ADD MSTORE PUSH1 0x80 DUP1 DUP6 ADD MLOAD SWAP1 SWAP4 POP SWAP2 POP PUSH2 0x76A DUP4 DUP9 ADD DUP4 PUSH2 0x59E JUMP JUMPDEST PUSH1 0xA0 SWAP4 DUP5 ADD MLOAD SWAP4 SWAP3 POP PUSH2 0x77F DUP8 DUP5 ADD DUP6 PUSH2 0x67B JUMP JUMPDEST SWAP8 DUP11 ADD SWAP8 SWAP6 POP POP POP SWAP2 DUP8 ADD SWAP2 POP PUSH1 0x1 ADD PUSH2 0x6CD JUMP JUMPDEST POP SWAP1 SWAP9 SWAP8 POP POP POP POP POP POP POP POP JUMP JUMPDEST PUSH1 0x20 DUP1 DUP3 MSTORE DUP3 MLOAD DUP3 DUP3 ADD DUP2 SWAP1 MSTORE PUSH1 0x0 SWAP2 SWAP1 PUSH1 0x40 SWAP1 DUP2 DUP6 ADD SWAP1 DUP1 DUP5 MUL DUP7 ADD DUP4 ADD DUP8 DUP6 ADD DUP7 JUMPDEST DUP4 DUP2 LT ISZERO PUSH2 0x794 JUMPI PUSH1 0x3F NOT DUP10 DUP5 SUB ADD DUP6 MSTORE DUP2 MLOAD PUSH1 0xA0 DUP2 MLOAD DUP2 DUP7 MSTORE PUSH2 0x7EC DUP3 DUP8 ADD DUP3 PUSH2 0x5AB JUMP JUMPDEST SWAP2 POP POP DUP9 DUP3 ADD MLOAD DUP6 DUP3 SUB DUP11 DUP8 ADD MSTORE PUSH2 0x804 DUP3 DUP3 PUSH2 0x5EE JUMP JUMPDEST DUP4 DUP11 ADD MLOAD DUP8 DUP12 ADD MSTORE PUSH1 0x60 DUP1 DUP6 ADD MLOAD PUSH1 0x1 PUSH1 0x1 PUSH1 0xA0 SHL SUB AND SWAP1 DUP9 ADD MSTORE PUSH1 0x80 SWAP4 DUP5 ADD MLOAD PUSH1 0xFF AND SWAP4 SWAP1 SWAP7 ADD SWAP3 SWAP1 SWAP3 MSTORE POP POP SWAP4 DUP7 ADD SWAP4 SWAP1 DUP7 ADD SWAP1 PUSH1 0x1 ADD PUSH2 0x7C6 JUMP JUMPDEST PUSH1 0x20 DUP1 DUP3 MSTORE DUP3 MLOAD DUP3 DUP3 ADD DUP2 SWAP1 MSTORE PUSH1 0x0 SWAP2 SWAP1 DUP5 DUP3 ADD SWAP1 PUSH1 0x40 DUP6 ADD SWAP1 DUP5 JUMPDEST DUP2 DUP2 LT ISZERO PUSH2 0x87A JUMPI DUP4 MLOAD DUP4 MSTORE SWAP3 DUP5 ADD SWAP3 SWAP2 DUP5 ADD SWAP2 PUSH1 0x1 ADD PUSH2 0x85E JUMP JUMPDEST POP SWAP1 SWAP7 SWAP6 POP POP POP POP POP POP JUMP JUMPDEST DUP2 MLOAD PUSH1 0x1 PUSH1 0x1 PUSH1 0xA0 SHL SUB AND DUP2 MSTORE PUSH1 0x20 DUP1 DUP4 ADD MLOAD SWAP1 DUP3 ADD MSTORE PUSH1 0x40 DUP1 DUP4 ADD MLOAD SWAP1 DUP3 ADD MSTORE PUSH1 0x60 SWAP2 DUP3 ADD MLOAD SWAP2 DUP2 ADD SWAP2 SWAP1 SWAP2 MSTORE PUSH1 0x80 ADD SWAP1 JUMP JUMPDEST SWAP2 DUP3 MSTORE PUSH1 0x20 DUP3 ADD MSTORE PUSH1 0x40 ADD SWAP1 JUMP JUMPDEST PUSH1 0xFF SWAP2 SWAP1 SWAP2 AND DUP2 MSTORE PUSH1 0x20 ADD SWAP1 JUMP INVALID LOG2 PUSH5 0x6970667358 0x22 SLT KECCAK256 SWAP6 0xE6 0x1E 0x48 GASPRICE 0x4F PUSH23 0xBC3923507BF9DBC14C91F1041F8ED463B563BD65154ADE 0xE2 0x24 PUSH5 0x736F6C6343 STOP SMOD MOD STOP CALLER ","sha1":"b6c97cb6bbf36fcaaa33c3dcdf6c1c8dc5b007bf","source":"// SPDX-License-Identifier: BSUL-1.1\npragma solidity =0.7.6;\npragma abicoder v2;\n\nimport {Constants} from \"../../global/Constants.sol\";\nimport {SafeUint256} from \"../../math/SafeUint256.sol\";\nimport {IERC20} from \"../../../interfaces/IERC20.sol\";\nimport {NotionalProxy} from \"../../../interfaces/notional/NotionalProxy.sol\";\nimport {\n    IPrimeCashHoldingsOracle,\n    DepositData,\n    OracleData,\n    RedeemData\n} from \"../../../interfaces/notional/IPrimeCashHoldingsOracle.sol\";\n\ncontract UnderlyingHoldingsOracle is IPrimeCashHoldingsOracle {\n    using SafeUint256 for uint256;\n\n    NotionalProxy internal immutable NOTIONAL;\n    address internal immutable UNDERLYING_TOKEN;\n    uint8 internal immutable UNDERLYING_DECIMALS;\n    uint256 internal immutable UNDERLYING_PRECISION;\n    bool internal immutable UNDERLYING_IS_ETH;\n\n    constructor(NotionalProxy notional_, address underlying_) {\n        bool underlyingIsEth = underlying_ == Constants.ETH_ADDRESS;\n        uint8 underlyingDecimals = underlyingIsEth ? 18 : IERC20(underlying_).decimals();\n\n        NOTIONAL = notional_;\n        UNDERLYING_TOKEN = underlying_;\n        UNDERLYING_IS_ETH = underlyingIsEth;\n        UNDERLYING_DECIMALS = underlyingDecimals;\n        UNDERLYING_PRECISION = 10**underlyingDecimals;\n    }\n\n    /// @notice Returns a list of the various holdings for the prime cash\n    /// currency\n    function holdings() external view override returns (address[] memory) {\n        return _holdings();\n    }\n\n    /// @notice Returns the underlying token that all holdings can be redeemed\n    /// for.\n    function underlying() external view override returns (address) {\n        return UNDERLYING_TOKEN;\n    }\n\n    /// @notice Returns the native decimal precision of the underlying token\n    function decimals() external view override returns (uint8) {\n        return UNDERLYING_DECIMALS;\n    }\n\n    /// @notice Returns the total underlying held by the caller in all the\n    /// listed holdings\n    function getTotalUnderlyingValueStateful() external override returns (\n        uint256 nativePrecision,\n        uint256 internalPrecision\n    ) {\n        nativePrecision = _getTotalUnderlyingValueStateful();\n        internalPrecision = nativePrecision.mul(uint256(Constants.INTERNAL_TOKEN_PRECISION)).div(UNDERLYING_PRECISION);\n    }\n\n    function getTotalUnderlyingValueView() external view override returns (\n        uint256 nativePrecision,\n        uint256 internalPrecision\n    ) {\n        nativePrecision = _getTotalUnderlyingValueView();\n        internalPrecision = nativePrecision.mul(uint256(Constants.INTERNAL_TOKEN_PRECISION)).div(UNDERLYING_PRECISION);\n    }\n\n    function holdingValuesInUnderlying() external view override returns (uint256[] memory) {\n        return _holdingValuesInUnderlying();\n    }\n\n    /// @notice Returns calldata for how to withdraw an amount\n    function getRedemptionCalldata(uint256 withdrawAmount) external view override returns (RedeemData[] memory redeemData) {\n        return _getRedemptionCalldata(withdrawAmount);\n    }\n\n    function getRedemptionCalldataForRebalancing(\n        address[] calldata holdings_, \n        uint256[] calldata withdrawAmounts\n    ) external view override returns (RedeemData[] memory redeemData) {\n        return _getRedemptionCalldataForRebalancing(holdings_, withdrawAmounts);\n    }\n\n    function getDepositCalldataForRebalancing(\n        address[] calldata holdings_, \n        uint256[] calldata depositAmounts\n    ) external view override returns (DepositData[] memory depositData) {\n        return _getDepositCalldataForRebalancing(holdings_, depositAmounts);\n    }\n\n    function _holdings() internal view virtual returns (address[] memory) {\n        return new address[](0);\n    }\n\n    function _getTotalUnderlyingValueStateful() internal virtual returns (uint256) {\n        return _getTotalUnderlyingValueView();\n    }\n\n    function _getTotalUnderlyingValueView() internal view virtual returns (uint256) {\n        address[] memory tokens = new address[](1);\n        tokens[0] = UNDERLYING_TOKEN;\n        return NOTIONAL.getStoredTokenBalances(tokens)[0];\n    }\n\n    function _holdingValuesInUnderlying() internal view virtual returns (uint256[] memory) {\n        return new uint256[](0);\n    }\n\n    /// @notice Returns calldata for how to withdraw an amount\n    function _getRedemptionCalldata(\n        uint256 /* withdrawAmount */ \n    ) internal view virtual returns (RedeemData[] memory /* redeemData */) { /* No-op */ }\n\n    function _getRedemptionCalldataForRebalancing(\n        address[] calldata /* holdings_ */, \n        uint256[] calldata /* withdrawAmounts */\n    ) internal view virtual returns (RedeemData[] memory /* redeemData */) { /* No-op */ }\n\n    function _getDepositCalldataForRebalancing(\n        address[] calldata /* holdings_ */, \n        uint256[] calldata /* depositAmount */\n    ) internal view virtual returns (DepositData[] memory /* depositData */) { /* No-op */ }\n\n    function getOracleData() external view virtual override returns (OracleData memory oracleData) {\n        return oracleData;\n    }\n}","sourcePath":"contracts/external/pCash/UnderlyingHoldingsOracle.sol","type":"contract","deployment":{"address":"0x99745F4fE818d98bcEe35aBf3a2cFc80d42fC6AA","chainid":"1","blockHeight":19912515}}