{"abi":[{"inputs":[{"internalType":"uint16","name":"currencyId","type":"uint16"}],"name":"accruePrimeInterest","outputs":[{"components":[{"internalType":"int256","name":"supplyFactor","type":"int256"},{"internalType":"int256","name":"debtFactor","type":"int256"},{"internalType":"uint256","name":"oracleSupplyRate","type":"uint256"}],"internalType":"struct PrimeRate","name":"pr","type":"tuple"},{"components":[{"internalType":"uint256","name":"lastAccrueTime","type":"uint256"},{"internalType":"uint256","name":"totalPrimeSupply","type":"uint256"},{"internalType":"uint256","name":"totalPrimeDebt","type":"uint256"},{"internalType":"uint256","name":"oracleSupplyRate","type":"uint256"},{"internalType":"uint256","name":"lastTotalUnderlyingValue","type":"uint256"},{"internalType":"uint256","name":"underlyingScalar","type":"uint256"},{"internalType":"uint256","name":"supplyScalar","type":"uint256"},{"internalType":"uint256","name":"debtScalar","type":"uint256"},{"internalType":"uint256","name":"rateOracleTimeWindow","type":"uint256"}],"internalType":"struct PrimeCashFactors","name":"factors","type":"tuple"}],"stateMutability":"nonpayable","type":"function"},{"inputs":[{"internalType":"uint16","name":"currencyId","type":"uint16"},{"internalType":"uint88","name":"amountToDepositExternalPrecision","type":"uint88"}],"name":"calculateNTokensToMint","outputs":[{"internalType":"uint256","name":"","type":"uint256"}],"stateMutability":"view","type":"function"},{"inputs":[{"internalType":"uint16","name":"currencyId","type":"uint16"},{"internalType":"int256","name":"primeCashBalance","type":"int256"},{"internalType":"bool","name":"convertToUnderlying","type":"bool"}],"name":"convertCashBalanceToExternal","outputs":[{"internalType":"int256","name":"","type":"int256"}],"stateMutability":"view","type":"function"},{"inputs":[{"internalType":"uint16","name":"currencyId","type":"uint16"},{"internalType":"int256","name":"nTokenBalance","type":"int256"}],"name":"convertNTokenToUnderlying","outputs":[{"internalType":"int256","name":"","type":"int256"}],"stateMutability":"view","type":"function"},{"inputs":[{"internalType":"uint16","name":"currencyId","type":"uint16"},{"internalType":"uint256","name":"maturity","type":"uint256"},{"internalType":"int256","name":"fCashBalance","type":"int256"},{"internalType":"uint256","name":"blockTime","type":"uint256"}],"name":"convertSettledfCash","outputs":[{"internalType":"int256","name":"signedPrimeSupplyValue","type":"int256"}],"stateMutability":"view","type":"function"},{"inputs":[{"internalType":"uint16","name":"currencyId","type":"uint16"},{"internalType":"int256","name":"underlyingExternal","type":"int256"}],"name":"convertUnderlyingToPrimeCash","outputs":[{"internalType":"int256","name":"","type":"int256"}],"stateMutability":"view","type":"function"},{"inputs":[{"internalType":"uint16","name":"currencyId","type":"uint16"},{"internalType":"int88","name":"fCashAmount","type":"int88"},{"internalType":"uint256","name":"marketIndex","type":"uint256"},{"internalType":"uint256","name":"blockTime","type":"uint256"}],"name":"getCashAmountGivenfCashAmount","outputs":[{"internalType":"int256","name":"","type":"int256"},{"internalType":"int256","name":"","type":"int256"}],"stateMutability":"view","type":"function"},{"inputs":[{"internalType":"uint16","name":"currencyId","type":"uint16"},{"internalType":"uint256","name":"fCashAmount","type":"uint256"},{"internalType":"uint256","name":"maturity","type":"uint256"},{"internalType":"uint32","name":"minLendRate","type":"uint32"},{"internalType":"uint256","name":"blockTime","type":"uint256"}],"name":"getDepositFromfCashLend","outputs":[{"internalType":"uint256","name":"depositAmountUnderlying","type":"uint256"},{"internalType":"uint256","name":"depositAmountPrimeCash","type":"uint256"},{"internalType":"uint8","name":"marketIndex","type":"uint8"},{"internalType":"bytes32","name":"encodedTrade","type":"bytes32"}],"stateMutability":"view","type":"function"},{"inputs":[{"internalType":"uint256","name":"maturity","type":"uint256"},{"internalType":"uint256","name":"blockTime","type":"uint256"}],"name":"getMarketIndex","outputs":[{"internalType":"uint8","name":"marketIndex","type":"uint8"}],"stateMutability":"pure","type":"function"},{"inputs":[{"internalType":"uint16","name":"currencyId","type":"uint16"},{"internalType":"uint256","name":"maturity","type":"uint256"},{"internalType":"int256","name":"notional","type":"int256"},{"internalType":"uint256","name":"blockTime","type":"uint256"},{"internalType":"bool","name":"riskAdjusted","type":"bool"}],"name":"getPresentfCashValue","outputs":[{"internalType":"int256","name":"presentValue","type":"int256"}],"stateMutability":"view","type":"function"},{"inputs":[{"internalType":"uint16","name":"currencyId","type":"uint16"},{"internalType":"uint256","name":"fCashBorrow","type":"uint256"},{"internalType":"uint256","name":"maturity","type":"uint256"},{"internalType":"uint32","name":"maxBorrowRate","type":"uint32"},{"internalType":"uint256","name":"blockTime","type":"uint256"}],"name":"getPrincipalFromfCashBorrow","outputs":[{"internalType":"uint256","name":"borrowAmountUnderlying","type":"uint256"},{"internalType":"uint256","name":"borrowAmountPrimeCash","type":"uint256"},{"internalType":"uint8","name":"marketIndex","type":"uint8"},{"internalType":"bytes32","name":"encodedTrade","type":"bytes32"}],"stateMutability":"view","type":"function"},{"inputs":[{"internalType":"uint16","name":"currencyId","type":"uint16"},{"internalType":"int88","name":"netCashToAccount","type":"int88"},{"internalType":"uint256","name":"marketIndex","type":"uint256"},{"internalType":"uint256","name":"blockTime","type":"uint256"}],"name":"getfCashAmountGivenCashAmount","outputs":[{"internalType":"int256","name":"","type":"int256"}],"stateMutability":"view","type":"function"},{"inputs":[{"internalType":"uint16","name":"currencyId","type":"uint16"},{"internalType":"uint256","name":"borrowedAmountExternal","type":"uint256"},{"internalType":"uint256","name":"maturity","type":"uint256"},{"internalType":"uint32","name":"maxBorrowRate","type":"uint32"},{"internalType":"uint256","name":"blockTime","type":"uint256"},{"internalType":"bool","name":"useUnderlying","type":"bool"}],"name":"getfCashBorrowFromPrincipal","outputs":[{"internalType":"uint88","name":"fCashDebt","type":"uint88"},{"internalType":"uint8","name":"marketIndex","type":"uint8"},{"internalType":"bytes32","name":"encodedTrade","type":"bytes32"}],"stateMutability":"view","type":"function"},{"inputs":[{"internalType":"uint16","name":"currencyId","type":"uint16"},{"internalType":"uint256","name":"depositAmountExternal","type":"uint256"},{"internalType":"uint256","name":"maturity","type":"uint256"},{"internalType":"uint32","name":"minLendRate","type":"uint32"},{"internalType":"uint256","name":"blockTime","type":"uint256"},{"internalType":"bool","name":"useUnderlying","type":"bool"}],"name":"getfCashLendFromDeposit","outputs":[{"internalType":"uint88","name":"fCashAmount","type":"uint88"},{"internalType":"uint8","name":"marketIndex","type":"uint8"},{"internalType":"bytes32","name":"encodedTrade","type":"bytes32"}],"stateMutability":"view","type":"function"},{"inputs":[{"internalType":"address","name":"account","type":"address"},{"internalType":"uint256","name":"blockTime","type":"uint256"}],"name":"nTokenGetClaimableIncentives","outputs":[{"internalType":"uint256","name":"","type":"uint256"}],"stateMutability":"view","type":"function"},{"inputs":[{"internalType":"uint16","name":"currencyId","type":"uint16"}],"name":"nTokenPresentValueAssetDenominated","outputs":[{"internalType":"int256","name":"","type":"int256"}],"stateMutability":"view","type":"function"},{"inputs":[{"internalType":"uint16","name":"currencyId","type":"uint16"}],"name":"nTokenPresentValueUnderlyingDenominated","outputs":[{"internalType":"int256","name":"","type":"int256"}],"stateMutability":"view","type":"function"},{"inputs":[],"name":"owner","outputs":[{"internalType":"address","name":"","type":"address"}],"stateMutability":"view","type":"function"},{"inputs":[],"name":"pauseGuardian","outputs":[{"internalType":"address","name":"","type":"address"}],"stateMutability":"view","type":"function"},{"inputs":[],"name":"pauseRouter","outputs":[{"internalType":"address","name":"","type":"address"}],"stateMutability":"view","type":"function"}],"bytecode":"608060405234801561001057600080fd5b506154c2806100206000396000f3fe608060405234801561001057600080fd5b506004361061012c5760003560e01c806382463367116100ad578063bac9e8b111610071578063bac9e8b11461027b578063c50a61341461029d578063c52c43e1146102be578063f11ff573146102d1578063f83a8608146102e45761012c565b806382463367146102325780638355e8951461023a5780638da5cb5b1461024d57806397d6db2e14610255578063aaae47b5146102685761012c565b8063416a1587116100f4578063416a1587146101b65780635953c77b146101d95780636a09a2a3146101f95780636d48c7941461020c5780636ebbf1741461021f5761012c565b8063094614df146101315780630eb494801461015b5780631a05bce11461017b57806324a3d6221461018e5780633b2987b3146101a3575b600080fd5b61014461013f366004614fa7565b6102f7565b6040516101529291906151dc565b60405180910390f35b61016e610169366004614fef565b610315565b60405161015291906151d3565b61016e610189366004614f37565b61034c565b610196610362565b60405161015291906151a6565b61016e6101b1366004614f37565b610371565b6101c96101c4366004615076565b610394565b604051610152949392919061543c565b6101ec6101e7366004615162565b61043a565b604051610152919061547e565b61016e610207366004615121565b610466565b61016e61021a366004614f51565b6104e2565b61016e61022d366004614f6c565b610549565b6101966105ac565b61016e610248366004614fa7565b6105bb565b6101966105df565b61016e610263366004614f01565b6105f6565b6101c9610276366004615076565b61072e565b61028e6102893660046150c3565b6107c0565b6040516101529392919061545a565b6102b06102ab366004614f37565b61083b565b6040516101529291906153a0565b61016e6102cc366004615027565b610866565b61016e6102df366004614f51565b6108ae565b61028e6102f23660046150c3565b6108f1565b600080610308868686866000610956565b9150915094509492505050565b60008184111561032457600080fd5b60006103308684610a4f565b5090506103408187878787610b08565b9150505b949350505050565b60008061035883610b2f565b509150505b919050565b6002546001600160a01b031681565b600080600061037f84610b2f565b80516040015191935091506103449083610b64565b6000806000806103a4878661043a565b915060008260ff16116103b657600080fd5b6a7fffffffffffffffffffff88106103cd57600080fd5b60006103e06103db8a610bad565b610bc7565b90506000806103fb8c848760ff168b8d63ffffffff16610956565b915091506104098c82610bd5565b965061041482610c21565b955061042660018685600a0b8c610c30565b508094505050505095509550955095915050565b600080600061044b60078686610c8e565b915091508061045a578161045d565b60005b95945050505050565b600061047183610d1d565b60006104808461ffff16610d5a565b90506000610497826001600160581b038616610d6d565b90506104a1614c35565b6104ab8187610d9d565b8051604001516000906104ca9083906104c49086610db6565b42610dda565b90506104d581610c21565b9450505050505b92915050565b60008060006104f085610b2f565b91509150600061051782604001516105118588610ee890919063ffffffff16565b90610f36565b82516040015190915060009061052d9083610b64565b90506104d56105448861053f84610f67565b610bd5565b610bad565b6000816105575750816105a5565b60006105638542610a4f565b50905060006105728286610b64565b905060006105866105448861053f85610f67565b905060008212610596578061059f565b61059f81610bc7565b93505050505b9392505050565b6001546001600160a01b031681565b60006105c685610d1d565b60006105d186610f88565b905061034085858584610fa9565b60005464010000000090046001600160a01b031681565b6000806106028461103b565b905061060c614c7e565b6000610617836110ef565b1561068d57606083015161062f9083908890866110fc565b60008260400151131561068d57600061064f836000015161ffff1661111f565b9050600061065d8288611145565b50915050600061067b8584846106768960400151610c21565b6111db565b9050610687848261125a565b93505050505b60808301515b6001600160701b03198116156107245760f081901c613fff166106b8848983886110fc565b6000846040015113156107115760006106d8856000015161ffff1661111f565b905060006106e6828a611145565b5091505060006106ff8784846106768b60400151610c21565b905061070b868261125a565b95505050505b5060101b6001600160801b031916610693565b5095945050505050565b60008060008061073e878661043a565b915060008260ff161161075057600080fd5b6a7fffffffffffffffffffff881061076757600080fd5b600061077289610bad565b905060008061078d8c848760ff168b8d63ffffffff16610956565b9150915061079b8c82610bd5565b96506107ae6107a983610bc7565b610c21565b955061042660008685600a0b8c610c30565b60008060006107cf878661043a565b915060008260ff16116107e157600080fd5b6000806107ef8b8b8861126c565b91509150600061080c610801846112d2565b8660ff168a85610fa9565b90506000811261081b57600080fd5b610828600186838c610c30565b9d959c509a509398505050505050505050565b610843614cda565b61084b614cfb565b61085483611304565b915061085f83611316565b9050915091565b60008061087287610f88565b9050821561088d57610886818688876113de565b9150610724565b6108a385878661089e85838361144c565b611535565b979650505050505050565b6000806108bb8442610a4f565b50905060006108cd8561ffff16610d5a565b905060006108db8286610d6d565b90506108e78382610db6565b9695505050505050565b6000806000610900878661043a565b915060008260ff161161091257600080fd5b6000806109208b8b8861126c565b91509150600061093a61080161093585610bc7565b6112d2565b90508060001261094957600080fd5b610828600086838c610c30565b60008061096287610d1d565b600061096d88610f88565b9050610977614d47565b61098582828960008a611599565b858160200151116109b15760405162461bcd60e51b81526004016109a8906152ee565b60405180910390fd5b60208101518690036000806109cd8486600a8e900b868e611614565b925050915087600014610a2b5760008b600a0b1215610a0b5787811115610a065760405162461bcd60e51b81526004016109a8906152be565b610a2b565b87811015610a2b5760405162461bcd60e51b81526004016109a8906152be565b60408501518290610a3c9082610b64565b9650965050505050509550959350505050565b610a57614cda565b610a5f614cfb565b610a6884611316565b90508281600001511015610a99576000610a8185611754565b9050610a8f858383876117cf565b509150610aa69050565b80518314610aa657600080fd5b6040518060600160405280610acf6105448460a001518560c0015161187390919063ffffffff16565b8152602001610af26105448460a001518560e0015161187390919063ffffffff16565b8152602001826060015181525091509250929050565b600080610b1686868561189a565b9050610b238782866118ce565b50979650505050505050565b6000610b39614c35565b42610b42614c35565b610b4c8186610d9d565b6000610b58828461193c565b94509092505050915091565b600080610b916ec097ce7bc90715b34b9f1000000000610511866000015186610ee890919063ffffffff16565b905060008312610ba15780610344565b61034481600019611992565b60006001600160ff1b03821115610bc357600080fd5b5090565b60006104dc60001983610ee8565b600080610be58461ffff16610d5a565b90506000808412610c0757610c02610bfd83866119a8565b610f67565b610c1a565b610c1a610c1385610bc7565b83906119e0565b905061045d815b600080821215610bc357600080fd5b6000806000610c3e85610f67565b90506001600160581b03811115610c5457600080fd5b60788463ffffffff16901b609882901b60f08860ff16901b60f88a6005811115610c7a57fe5b60ff16901b17171797909650945050505050565b60008060008511610c9e57600080fd5b6007851115610cac57600080fd5b6000610cb784611a1c565b905060015b868111610d0f576000610cd8610cd183611a3d565b849061125a565b905086811415610cf05750925060009150610d159050565b86811115610d065750925060019150610d159050565b50600101610cbc565b50600080fd5b935093915050565b8061ffff166000108015610d3b575060005461ffff90811690821611155b610d575760405162461bcd60e51b81526004016109a89061531a565b50565b610d62614d8f565b6104dc826001611ae1565b60006305f5e10083604001511415610d865750806104dc565b60408301516105a590610511846305f5e100610ee8565b610da78282611b7b565b610db081610f88565b90915250565b81516000908190610b9190610511856ec097ce7bc90715b34b9f1000000000610ee8565b600080831215610de957600080fd5b82610df6575060006105a5565b608084015115610e2e576000610e0b85611c17565b9050828111610e2c5760405162461bcd60e51b81526004016109a89061521a565b505b6040840151610e3e5750816105a5565b600080610e4b8685611c48565b915091506000821215610e5d57600080fd5b6000811215610e6b57600080fd5b60a086015160051a6207a120026000610e9184610e8b610bfd8287611cb1565b90611cc7565b905081811315610eb35760405162461bcd60e51b81526004016109a890615372565b6000610ebf8585611ce0565b9050610edc816105118b604001518b610ee890919063ffffffff16565b955050505050506105a5565b818102600019831415610f1857811580610f0a575082828281610f0757fe5b05145b610f1357600080fd5b6104dc565b821580610f2d575081838281610f2a57fe5b05145b6104dc57600080fd5b600081600019148015610f4c5750600160ff1b83145b15610f5657600080fd5b818381610f5f57fe5b059392505050565b600080821215610f8157610f7a82610bc7565b905061035d565b508061035d565b610f90614dbe565b6000610f9c8342610a4f565b5090506105a58382611cef565b6000610fb3614d47565b610fc1838287600088611599565b83816020015111610fe45760405162461bcd60e51b81526004016109a8906152ee565b60008482602001510390506000610fff856000015188611d32565b905061102f8184604001518a600a0b61102987606001518a60400151610b6490919063ffffffff16565b86611d4c565b98975050505050505050565b611043614dea565b600061104d611e88565b6001600160a01b03841660009081526020918252604090819020815160c081018352905464ffffffffff811682526001600160f81b0319600160281b820460f81b169382019390935260ff600160301b840481169282019290925261ffff600160381b84041660608201526001600160701b03196901000000000000000000840460701b166080820152600160d81b90920416151560a0820152915050919050565b6060015161ffff16151590565b6111068242610a4f565b5061012085015261111984848484611e95565b50505050565b60008061112a611f3d565b6000938452602052505060409020546001600160a01b031690565b600080600061115385611f4a565b9194509250905080841180156111695750600081115b80156111755750600083115b156111d457600061118586611fab565b50505091505060006111b06111a76305f5e1008461187390919063ffffffff16565b84880387612014565b90506111bc848261125a565b93506001600160801b0384106111d157600080fd5b50505b9250925092565b60008460e001516000146111ee57600080fd5b611230611229866101000151611223670de0b6b3a764000061121d886112178c60400151610c21565b90611873565b90612036565b90612055565b829061125a565b9050611248670de0b6b3a764000061121d8486611873565b85610100018181525050949350505050565b6000828201838110156105a557600080fd5b6000611276614dbe565b600061128185610bad565b905061128c86610f88565b915083156112b75760006112a38761ffff16610d5a565b90506112af8183610d6d565b9350506112c9565b60408201516112c69082610b64565b92505b50935093915050565b60006a7fffffffffffffffffffff1982128015906112fb57506a7fffffffffffffffffffff8213155b610bc357600080fd5b61130c614cda565b6104dc824261206a565b61131e614cfb565b600061132861212b565b61ffff93841660009081526020918252604090819020805464ffffffffff81168652600160281b81046001600160581b03908116948701949094526001820154841692860192909252600160d81b820463ffffffff166060860152600160801b9091049091166080840152600201546001600160501b0380821660a0850152600160501b8204811660c0850152600160a01b82041660e0840152600160f01b900460ff1661012c02909216610100820152919050565b6000836113ed57506000610344565b600080851361140657611401868585612138565b611411565b611411868585612174565b9050633b9aca0081131561142457600080fd5b600061143086836121b5565b90506000861261144057806108a3565b6108a381600019611992565b600080600061146086602001518686610c8e565b91509150600061146f876121ce565b90508161148f5786516114889061ffff168783886121e2565b935061152b565b600061149a86611a1c565b905060006114b16114aa86611a3d565b839061125a565b905060006114c98a6000015161ffff1683868b6121e2565b905060008087600114156114e75750506040808b0151015188611516565b6114fd6114f660018a03611a3d565b869061125a565b90506115138c6000015161ffff1682888d6121e2565b91505b611523818584868f612281565b985050505050505b5050509392505050565b60008461154457506000610344565b60006115508585612055565b9050600061155e82856122df565b9050633b9aca0081131561157157600080fd5b600061157d88836121b5565b90506000881261158d578061102f565b61102f81600019611992565b826001111580156115ae575084602001518311155b6115ca5760405162461bcd60e51b81526004016109a890615296565b60006115e76115d885611a3d565b6115e184611a1c565b9061125a565b905061160c866000015161ffff168284866116018b6121ce565b8a949392919061234c565b505050505050565b600080600080841161162557600080fd5b8588604001511361163e57506000915081905080611749565b600061164e886000015186611d32565b9050600061166d8a606001518a60400151610b6490919063ffffffff16565b90506000806000611682858e8e878f8f612376565b985091945092509050826116a55760008060009750975097505050505050611749565b60408d01516116b4908c612450565b60408e01526116c3848361246c565b935060006116d760008f6040015187612482565b9050633b9aca008111156116fb576000806000985098509850505050505050611749565b600061170787836124b9565b90508061172557600080600099509950995050505050505050611749565b60a08f01525060408c015161173e908e9085858561256c565b909850965050505050505b955095509592505050565b600080611760836125c1565b6001600160a01b031663a77c05b86040518163ffffffff1660e01b8152600401604080518083038186803b15801561179757600080fd5b505afa1580156117ab573d6000803e3d6000fd5b505050506040513d601f19601f820116820180604052508101906103449190615183565b6117d7614cfb565b60008060006117e78886896125f1565b60c08b019290925260e08a01929092526020890151919350915061180b908361125a565b6020880152608087015160009015611839576080880151611836906118308982612055565b906126fc565b90505b61185961184e670de0b6b3a76400008361125a565b60a08a015190612719565b60a089015250506080860194909452505082529092909150565b600082611882575060006104dc565b8282028284828161188f57fe5b04146105a557600080fd5b6118a2614cda565b60006118ae8585612736565b9092509050806118c6576118c28584610a4f565b5091505b509392505050565b6000806118db8484610db6565b91506118e784836127c9565b90506000821215610d1557611932600161192c876000015161051189602001516119268a602001516105118c600001518b610ee890919063ffffffff16565b90610ee8565b90611cb1565b9150935093915050565b60008061194884611c17565b9050828111611958576001810392505b50600061196784846001612802565b50905060006119768585612965565b606086015190915061045d9061198c848461246c565b9061246c565b60008183126119a157816105a5565b5090919050565b60006305f5e100836040015114156119c15750806104dc565b6105a56305f5e100610511856040015185610ee890919063ffffffff16565b60006305f5e10083604001511215611a0857611a01600161198c85856119a8565b90506104dc565b6105a583611a1784600161246c565b6119a8565b60006276a700821015611a2e57600080fd5b6276a700825b06909103919050565b60008160011415611a5257506276a70061035d565b8160021415611a65575062ed4e0061035d565b8160031415611a7957506301da9c0061035d565b8160041415611a8d57506303b5380061035d565b8160051415611aa157506309450c0061035d565b8160061415611ab5575063128a180061035d565b8160071415611ac95750632514300061035d565b60405162461bcd60e51b81526004016109a89061526f565b611ae9614d8f565b6000611af36129ea565b6000858152602082815260408083208715158452825291829020825160a08101845281546001600160a01b038116825260ff600160a01b82048116151594830194909452600160b01b81048416600a0a9482019490945293945092916060830191600160a81b909104166005811115611b6857fe5b8152600060209091015295945050505050565b611b888161ffff1661111f565b6001600160a01b031660c0830181905260009081908190611ba890611fab565b94509450945050506000611bbf8660c00151611f4a565b505060808701859052604087018190526001600160d01b0319831660a088015260c0870151909150611bf3908460006129f7565b602087015260c0860151611c079086612a8a565b6060909601959095525050505050565b6000816080015160001415611c2e5750600061035d565b60808201516276a70090611c4190611a1c565b0192915050565b6000806000611c5985856001612802565b5090506000611c6a86866000612802565b5090506000611c798787612965565b6060880151909150611c8f9061198c858461246c565b6060880151909550611ca59061198c848461246c565b93505050509250929050565b808203828113156000831215146104dc57600080fd5b60006105a5611cda84633b9aca00610ee8565b83610f36565b60008183136119a157816105a5565b611cf7614dbe565b6000611d068461ffff16612ae3565b6040805160808101825261ffff96909616865260ff821660208701528501939093525050606082015290565b611d3a614e1f565b6105a58383611d47612b00565b612b0d565b600083611d5857600080fd5b82841315611d785760405162461bcd60e51b81526004016109a890615347565b6000806000611d9c8989888860008c13611d93576001611d97565b6000195b612b64565b90506000871215611dc657611db087610bc7565b9250611dbf6103db88836121b5565b9150611df3565b611dd36103db88836121b5565b9250611df06103db611de98b6080015188612b95565b89906121b5565b91505b506000611e0489898886898c612bfb565b905060005b60fa8160ff161015611e6f5783830380611e2a57839550505050505061045d565b6000611e3a8c8c8b888c8f612bfb565b90506000611e5f611e58611e4e8488611cb1565b6105118587610ee8565b8790611cb1565b9596509093505050600101611e09565b5060405162461bcd60e51b81526004016109a890615247565b6000806104dc6001612c21565b8161ffff166000108015611eaf5750613fff61ffff831611155b611eb857600080fd5b61ffff8216808552611ecb908290612c33565b15611efa57611ee08383866101200151612cbd565b61010088015260e087015260408601526020850152611f18565b6000602085018190526040850181905260e085018190526101008501525b50506000606083018190526080830181905260a0830181905260c09092019190915250565b6000806104dc6003612c21565b600080600080611f58612d77565b6001600160a01b0395909516600090815260209590955250506040909220546bffffffffffffffffffffffff811693600160601b82046001600160801b03169350600160e01b90910463ffffffff169150565b600080600080600080611fbc612d84565b6001600160a01b039097166000908152602097909752505060409094205461ffff81169563ffffffff62010000830481169650600160301b830416945060ff600160501b8304169350600160581b90910460d01b9150565b60006103448261121d6301da9c00818861121789670de0b6b3a7640000611873565b600080821161204457600080fd5b81838161204d57fe5b049392505050565b60008282111561206457600080fd5b50900390565b612072614cda565b600061207d84611316565b905082816000015110156120bc5760008061209786612d91565b90506120a5868483886117cf565b90935091506120b5868385612dea565b50506120c9565b805183146120c957600080fd5b60405180606001604052806120f26105448460a001518560c0015161187390919063ffffffff16565b81526020016121156105448460a001518560e0015161187390919063ffffffff16565b8152602001826060015181525091505092915050565b6000806104dc601d612c21565b60008061214685858561301e565b905080156121665761216161215b8585612055565b826122df565b61045d565b633b9aca0095945050505050565b60008061218285858561306e565b905061219161215b8585612055565b9150600061219e866130a8565b9050828112156121ac578092505b50509392505050565b60006105a56121c48484610ee8565b633b9aca00610f36565b6060015161012c60089190911c60ff160290565b6000806121ed6130c3565b905060006276a7006121fe85611a1c565b6000898152602085815260408083208b84528252808320949093018083529390522080549192509063ffffffff600160a01b8204811691600160c01b8104821691600160e01b90910416816122655760405162461bcd60e51b81526004016109a8906151ea565b6122728184848c8c6130d0565b9b9a5050505050505050505050565b600081861061228f57600080fd5b84821061229b57600080fd5b8383106122c1576122ba846115e188880361121d8388038b8803611873565b905061045d565b6122ba6122d887870361121d8688038a8703611873565b8590612055565b6000806122fc6122f76301da9c0061121d8688611873565b613158565b905061230e81621dcd6560491b613176565b905061232161231c826131c9565b6131eb565b905061233381621dcd6560491b613240565b9050600061234082613276565b60070b95945050505050565b60006276a70061235b85611a1c565b01905061236d8787878787878761327f565b50505050505050565b600080600080600061238d878b604001518a612482565b9050633b9aca008111156123af57600080600080945094509450945050612443565b60006123bb8c836124b9565b905060006123d66103db6123cf848b612b95565b8b90611cc7565b90506123e68d8360008c126132b6565b93506123f86103db6123cf868b612b95565b96508087131561240757600080fd5b60006124138289611cb1565b905061242d60646105116124268f61332e565b8490610ee8565b955061243c6103db898861246c565b9650505050505b9650965096509692505050565b600061245c8383611cb1565b905060008112156104dc57600080fd5b818101828112156000831215146104dc57600080fd5b60008083121561249157600080fd5b600082121561249f57600080fd5b6103446107a96124af848661246c565b610e8b8688612450565b6000808360800151116124cb57600080fd5b633b9aca008211156124dc57600080fd5b825182116124fb5782516040840151611a01919061121d908590611873565b82602001518211612533576040830151835160208501516060860151611a0193926115e1928190039161121d91880390859003611873565b6105a583606001516115e18560200151633b9aca000361121d87606001518860800151038860200151880361187390919063ffffffff16565b6000808061257a8786610db6565b606089015190915061258c908261246c565b60608901524260e089015260006125a38886610db6565b905060006125b18989610db6565b9a91995090975050505050505050565b6000806125cc61333b565b61ffff939093166000908152602093909352505060409020546001600160a01b031690565b6000806000806000806126048988613348565b8951909550919350915060009061262b90612620908b90612055565b633b9aca0090611873565b905061266561265a6301da9c006126428585611873565b8161264957fe5b670de0b6b3a764000091900461125a565b60e08a015190612719565b965061268761267c6301da9c006126428785611873565b60c08a015190612719565b95508183141561269e5750600093506126f3915050565b60006126c06126b56301da9c006126428786611873565b60e08b015190612719565b905060006126ce8983612055565b90506126eb8861121d838d6040015161187390919063ffffffff16565b965050505050505b93509350935093565b60006105a561271384670de0b6b3a7640000611873565b83612036565b60006105a56127288484611873565b670de0b6b3a7640000612036565b61273e614cda565b6000806127496133e2565b61ffff861660009081526020828152604080832088845290915290208054600160f01b900460ff16935090915082156127c05780546001600160501b03600160a01b820481169161279b911682611873565b855281546127b990600160501b90046001600160501b031682611873565b6020860152505b50509250929050565b6000808212156127fc576127f7600161192c8560200151610511876000015187610ee890919063ffffffff16565b6105a5565b50919050565b602083015151516000906060908067ffffffffffffffff8111801561282657600080fd5b50604051908082528060200260200182016040528015612850578160200160208202803683370190505b50915061285b614d47565b60005b8281101561295a57875161287990836001808501908b611599565b6000886020015160000151828151811061288f57fe5b602002602001015190506000806128a683866133ef565b915091506128d36128cc8c60c001518d600001516000015161ffff16866020015161346a565b829061246c565b8785815181106128df57fe5b602002602001018181525050600061293c6129356129298a888151811061290257fe5b602002602001015187602001518f8f61291f578b60a0015161089e565b8b60c00151611535565b8e516040015190610db6565b849061246c565b9050612948898261246c565b9850506001909301925061285e915050565b505050935093915050565b6000806129918460c0015185600001516000015161ffff168660800151868860000151602001516134af565b905080156129e05760006129c38560c0015186600001516000015161ffff16876080015187896000015160008861355b565b508551604001519091506129d79082610db6565b925050506104dc565b60009150506104dc565b6000806104dc6007612c21565b6129ff614e64565b612a07614e64565b60ff8416612a165790506105a5565b612a2085856135d9565b815260ff841660608201528267ffffffffffffffff81118015612a4257600080fd5b50604051908082528060200260200182016040528015612a7c57816020015b612a69614e8c565b815260200190600190039081612a615790505b506020820152949350505050565b600080612a956135e5565b6001600160a01b03851660009081526020828152604080832061ffff8816845290915281208054600160a81b9004600a90810b900b9450919250831215612adb57600080fd5b505092915050565b600080612aee6135f2565b60009384526020525050604090205490565b6000806104dc601b612c21565b612b15614e1f565b6000612b20846135ff565b61ffff861660009081526020859052604081209192509060048610612b46576001612b49565b60005b60ff1660028110612b5657fe5b015490506108e78282613638565b600080612b7b87612b76858989612482565b6124b9565b90506000612b8d8883600087126132b6565b905061102f81865b600080612bad6122f76301da9c0061121d8787611873565b90506000612bc182621dcd6560491b613176565b90506000612bce826131eb565b90506000612be282621dcd6560491b613240565b9050612bed81613276565b60070b979650505050505050565b600080612c0b8888888789612b64565b905061102f612c1a84836121b5565b869061246c565b6000620f4240826026811115611c4157fe5b60008115801590612c465750613fff8211155b612c4f57600080fd5b6080830151606084015161ffff16831415612c6e5760019150506104dc565b6001600160701b0319811615612cb35760f081901c613fff1683811415612ca05750600160fe1b9081161490506104dc565b5060101b6001600160801b031916612c6e565b5060009392505050565b6000806000806000612ccd6135e5565b6001600160a01b03891660009081526020828152604080832061ffff8c168452909152902080546001600160501b0381169650600160501b900463ffffffff1694509091508315612d3a578054612d3390600160701b900466ffffffffffffff16613757565b9250612d4f565b8054600160701b900466ffffffffffffff1692505b8054612d6a908890600160a81b9004600a90810b900b613765565b9550505093509350935093565b6000806104dc6011612c21565b6000806104dc6002612c21565b600080612d9d836125c1565b6001600160a01b031663ef81f2166040518163ffffffff1660e01b81526004016040805180830381600087803b158015612dd657600080fd5b505af11580156117ab573d6000803e3d6000fd5b6000612df461212b565b60008561ffff1681526020019081526020016000209050612e18826000015161378c565b815464ffffffffff191664ffffffffff9190911617815560a0820151612e3d906137a0565b60028201805469ffffffffffffffffffff19166001600160501b039290921691909117905560c0820151612e70906137a0565b81600201600a6101000a8154816001600160501b0302191690836001600160501b03160217905550612ea58260e001516137a0565b8160020160146101000a8154816001600160501b0302191690836001600160501b03160217905550612eda82602001516137b6565b81546001600160581b0391909116600160281b026fffffffffffffffffffffff0000000000199091161781556040820151612f14906137b6565b6001820180546affffffffffffffffffffff19166001600160581b03929092169190911790556080820151612f48906137b6565b81546001600160581b0391909116600160801b026affffffffffffffffffffff60801b199091161781556060820151612f80906137cc565b815463ffffffff91909116600160d81b0263ffffffff60d81b199091161781558215612fcc576000612fb184610bad565b9050612fbd85826137df565b612fca610fee868361381b565b505b8361ffff167fef25641e225e493886510ca1ad6584fa7b442b9fea820a29d1de3ce27d270fd28360a001518460c001518560e0015160405161301093929190615426565b60405180910390a250505050565b600061302b84848461144c565b90506000613038856138a5565b905080821161304b5760009150506105a5565b8082039150600061305b866138b2565b9050828110156121ac5795945050505050565b600061307b84848461144c565b9050613089611229856138bf565b90506000613096856138cc565b9050808210156118c657949350505050565b606001516207a12060109190911c60ff1602633b9aca000390565b6000806104dc600a612c21565b60008083116130de57600080fd5b818611156130ed57508361045d565b60006130f98388612055565b90508381111561310c578591505061045d565b600061311882866138d9565b9050600061312a633b9aca0083612055565b905061314b633b9aca0061121d6131418a85611873565b6115e18c87611873565b9998505050505050505050565b6000677fffffffffffffff82111561316f57600080fd5b5060401b90565b600081600f0b6000141561318957600080fd5b600082600f0b604085600f0b901b8161319e57fe5b05905060016001607f1b031981128015906131c0575060016001607f1b038113155b6105a557600080fd5b6000600f82900b60016001607f1b031914156131e457600080fd5b5060000390565b6000600160461b82600f0b1261320057600080fd5b683fffffffffffffffff1982600f0b121561321d5750600061035d565b6104dc608083600f0b700171547652b82fe1777d0ffda0d23a7d1202901d6138ec565b6000600f83810b9083900b0260401d60016001607f1b031981128015906131c0575060016001607f1b038113156105a557600080fd5b600f0b60401d90565b61328c878787868561439c565b6132a58760e001518860a001518960c0015185886130d0565b60c090970196909652505050505050565b6000806132d5606461121d8760e001518761187390919063ffffffff16565b90508460a001518110156132ea575060a08401515b8460c001518111156132fd575060c08401515b82156133145761330d848261125a565b91506118c6565b8381116133235780840361045d565b506000949350505050565b6060015160181c60ff1690565b6000806104dc601f612c21565b600080600080600085602001511115613395576133926133798660c00151876020015161187390919063ffffffff16565b60e0870151604088015161338c91611873565b906138d9565b90505b60006133a087614456565b90506133ac81836124b9565b945081156133c3576133c0818660016132b6565b93505b6020860151156111d1576133d78583614489565b925050509250925092565b6000806104dc601e612c21565b6000806133ff84604001516144a2565b801561341057506000846060015112155b61341957600080fd5b61343c836080015161051186606001518660600151610ee890919063ffffffff16565b9150613461836080015161051186606001518660400151610ee890919063ffffffff16565b90509250929050565b6000806134756144b8565b6001600160a01b03861660009081526020918252604080822087835283528082208683529092522054600f90810b900b9150509392505050565b6000600282116134c15750600061045d565b60006134cd87876144c5565b9050806134db57905061045d565b60006134e685611a1c565b9050858114156135105750744000800000020020000000020000002000000000201916905061045d565b60015b84811161355057600061352582611a3d565b83019050600061353589836144fa565b50905061354485826000614605565b94505050600101613513565b50819250505061045d565b600080600061356984614650565b90505b80156135cc57600061357e8983614675565b905060006135908c8c848c8c8c614728565b905061359c858261246c565b945060008112156135ac57600193505b6135b886846000614605565b95506135c386614650565b9250505061356c565b5097509795505050505050565b60606118c68383614784565b6000806104dc6006612c21565b6000806104dc6009612c21565b60008160001061360e57600080fd5b600782111561361c57600080fd5b6004821061362d576004820361362f565b815b60080292915050565b613640614e1f565b6064633b9aca008360ff86166020811061365657fe5b1a028161365f57fe5b0481526064633b9aca008360ff86166001016020811061367b57fe5b1a028161368457fe5b048160200181815250506136a98260028560ff1601602081106136a357fe5b1a61479c565b60808201819052610100908360ff8616600301602081106136c657fe5b1a02816136cf57fe5b0460408201526080810151610100908360ff8616600401602081106136f057fe5b1a02816136f957fe5b0460608201526207a1208260ff85166005016020811061371557fe5b1a0260a0820152622625a08260ff85166006016020811061373257fe5b1a0260c08201528160ff84166007016020811061374b57fe5b1a60e082015292915050565b600881901c60ff9091161b90565b60008082126137755750806104dc565b82516020840151611a019190610511908590610ee8565b600064ffffffffff821115610bc357600080fd5b60006001600160501b03821115610bc357600080fd5b60006001600160581b03821115610bc357600080fd5b600063ffffffff821115610bc357600080fd5b60008112156137ed57600080fd5b60006137fb610fee84612a8a565b9050613807818361246c565b9050613816610fee84836147d0565b505050565b6000613825614844565b61ffff8416600090815260209190915260409081902054905163ad1c095d60e01b81526001600160a01b039091169150819063ad1c095d9061386d90879086906004016151ba565b600060405180830381600087803b15801561388757600080fd5b505af115801561389b573d6000803e3d6000fd5b5050505050505050565b60006104dc826020614851565b60006104dc826048614851565b60006104dc826028614851565b60006104dc826030614851565b60006105a561271384633b9aca00611873565b6000600160461b82600f0b1261390157600080fd5b683fffffffffffffffff1982600f0b121561391e5750600061035d565b6001607f1b60006780000000000000008416600f0b13156139505770016a09e667f3bcc908b2fb1366ea957d3e0260801c5b60008367400000000000000016600f0b131561397d577001306fe0a31b7152de8d5a46305c85edec0260801c5b60008367200000000000000016600f0b13156139aa577001172b83c7d517adcdf7c8c50eb14a791f0260801c5b60008367100000000000000016600f0b13156139d75770010b5586cf9890f6298b92b71842a983630260801c5b60008367080000000000000016600f0b1315613a04577001059b0d31585743ae7c548eb68ca417fd0260801c5b60008367040000000000000016600f0b1315613a3157700102c9a3e778060ee6f7caca4f7a29bde80260801c5b60008367020000000000000016600f0b1315613a5e5770010163da9fb33356d84a66ae336dcdfa3f0260801c5b600083600160381b16600f0b1315613a8757700100b1afa5abcbed6129ab13ec11dc95430260801c5b600083668000000000000016600f0b1315613ab35770010058c86da1c09ea1ff19d294cf2f679b0260801c5b600083664000000000000016600f0b1315613adf577001002c605e2e8cec506d21bfc89a23a00f0260801c5b600083662000000000000016600f0b1315613b0b57700100162f3904051fa128bca9c55c31e5df0260801c5b600083661000000000000016600f0b1315613b37577001000b175effdc76ba38e31671ca9397250260801c5b600083660800000000000016600f0b1315613b6357700100058ba01fb9f96d6cacd4b180917c3d0260801c5b600083660400000000000016600f0b1315613b8f5770010002c5cc37da9491d0985c348c68e7b30260801c5b600083660200000000000016600f0b1315613bbb577001000162e525ee054754457d59952920260260801c5b600083600160301b16600f0b1315613be45770010000b17255775c040618bf4a4ade83fc0260801c5b6000836580000000000016600f0b1315613c0f577001000058b91b5bc9ae2eed81e9b7d4cfab0260801c5b6000836540000000000016600f0b1315613c3a57700100002c5c89d5ec6ca4d7c8acc017b7c90260801c5b6000836520000000000016600f0b1315613c655770010000162e43f4f831060e02d839a9d16d0260801c5b6000836510000000000016600f0b1315613c9057700100000b1721bcfc99d9f890ea069117630260801c5b6000836508000000000016600f0b1315613cbb5770010000058b90cf1e6d97f9ca14dbcc16280260801c5b6000836504000000000016600f0b1315613ce6577001000002c5c863b73f016468f6bac5ca2b0260801c5b6000836502000000000016600f0b1315613d1157700100000162e430e5a18f6119e3c02282a50260801c5b600083600160281b16600f0b1315613d3a577001000000b1721835514b86e6d96efd1bfe0260801c5b60008364800000000016600f0b1315613d6457700100000058b90c0b48c6be5df846c5b2ef0260801c5b60008364400000000016600f0b1315613d8e5770010000002c5c8601cc6b9e94213c72737a0260801c5b60008364200000000016600f0b1315613db8577001000000162e42fff037df38aa2b219f060260801c5b60008364100000000016600f0b1315613de25770010000000b17217fba9c739aa5819f44f90260801c5b60008364080000000016600f0b1315613e0c577001000000058b90bfcdee5acd3c1cedc8230260801c5b60008364040000000016600f0b1315613e3657700100000002c5c85fe31f35a6a30da1be500260801c5b60008364020000000016600f0b1315613e605770010000000162e42ff0999ce3541b9fffcf0260801c5b60008364010000000016600f0b1315613e8a57700100000000b17217f80f4ef5aadda455540260801c5b600083638000000016600f0b1315613eb35770010000000058b90bfbf8479bd5a81b51ad0260801c5b600083634000000016600f0b1315613edc577001000000002c5c85fdf84bd62ae30a74cc0260801c5b600083632000000016600f0b1315613f0557700100000000162e42fefb2fed257559bdaa0260801c5b600083631000000016600f0b1315613f2e577001000000000b17217f7d5a7716bba4a9ae0260801c5b600083630800000016600f0b1315613f5757700100000000058b90bfbe9ddbac5e109cce0260801c5b600083630400000016600f0b1315613f805770010000000002c5c85fdf4b15de6f17eb0d0260801c5b600083630200000016600f0b1315613fa9577001000000000162e42fefa494f1478fde050260801c5b600083630100000016600f0b1315613fd25770010000000000b17217f7d20cf927c8e94c0260801c5b6000836280000016600f0b1315613ffa577001000000000058b90bfbe8f71cb4e4b33d0260801c5b6000836240000016600f0b131561402257700100000000002c5c85fdf477b662b269450260801c5b6000836220000016600f0b131561404a5770010000000000162e42fefa3ae53369388c0260801c5b6000836210000016600f0b131561407257700100000000000b17217f7d1d351a389d400260801c5b6000836208000016600f0b131561409a5770010000000000058b90bfbe8e8b2d3d4ede0260801c5b6000836204000016600f0b13156140c2577001000000000002c5c85fdf4741bea6e77e0260801c5b6000836202000016600f0b13156140ea57700100000000000162e42fefa39fe95583c20260801c5b6000836201000016600f0b1315614112577001000000000000b17217f7d1cfb72b45e10260801c5b60008361800016600f0b131561413957700100000000000058b90bfbe8e7cc35c3f00260801c5b60008361400016600f0b13156141605770010000000000002c5c85fdf473e242ea380260801c5b60008361200016600f0b1315614187577001000000000000162e42fefa39f02b772c0260801c5b60008361100016600f0b13156141ae5770010000000000000b17217f7d1cf7d83c1a0260801c5b60008361080016600f0b13156141d5577001000000000000058b90bfbe8e7bdcbe2e0260801c5b60008361040016600f0b13156141fc57700100000000000002c5c85fdf473dea871f0260801c5b60008361020016600f0b13156142235770010000000000000162e42fefa39ef44d910260801c5b60008361010016600f0b131561424a57700100000000000000b17217f7d1cf79e9490260801c5b600083608016600f0b13156142705770010000000000000058b90bfbe8e7bce5440260801c5b600083604016600f0b1315614296577001000000000000002c5c85fdf473de6eca0260801c5b600083602016600f0b13156142bc57700100000000000000162e42fefa39ef366f0260801c5b600083601016600f0b13156142e2577001000000000000000b17217f7d1cf79afa0260801c5b600083600816600f0b131561430857700100000000000000058b90bfbe8e7bcd6d0260801c5b600083600416600f0b131561432e5770010000000000000002c5c85fdf473de6b20260801c5b600083600216600f0b1315614354577001000000000000000162e42fefa39ef3580260801c5b600083600116600f0b131561437a5770010000000000000000b17217f7d1cf79ab0260801c5b600f83810b60401d603f03900b1c60016001607f1b038111156104dc57600080fd5b60006143a66130c3565b6000868152602082815260408083208884528252808320868452825291829020808a5290890187905280546001600160501b03808216938b0193909352600160501b810490921660608a015263ffffffff600160a01b8304811660a08b0152600160c01b8304811660c08b0152600160e01b90920490911660e08901529091508084156144455760018201546001600160501b0316608089015261389b565b600060808901525050505050505050565b61445e614e1f565b6000614468612b00565b61ffff84166000908152602091909152604081205491506105a59082613638565b60006105a56144988484611873565b633b9aca00612036565b6000600282108015906104dc5750506008101590565b6000806104dc600c612c21565b6000806144d0614864565b6001600160a01b038516600090815260209182526040808220868352909252205491505092915050565b600080600061450885614871565b9050620151808406156145225760008092509250506145fe565b8381106145365760008092509250506145fe565b6201518081850304605a8111614553579250600191506145fe9050565b6101688111614592576000620151806207e900840604820160591901905060068104605a016006828161458257fe5b06600014945094505050506145fe565b61087081116145c25760006201518062278d00840604820161016719019050601e8104608701601e828161458257fe5b611de281116145f2576000620151806276a700840604820161086f19019050605a810460c301605a828161458257fe5b61010060009350935050505b9250929050565b60006001831015801561461a57506101008311155b61462357600080fd5b811561463c5750600160ff1b60001983011c83176105a5565b50600160ff1b60001983011c1983166105a5565b60008161465f5750600061035d565b6146688261488d565b60ff036001019050919050565b60008161468157600080fd5b61010082111561469057600080fd5b600061469b84614871565b90506000605a84116146b657506201518083020190506104dc565b608784116146de575060591983016207e900908102908206909103016276a7000190506104dc565b60c384116147075750608619830162278d00908102908206909103016301da9c000190506104dc565b5060c21983016276a70090810290820690910301630b1fa8000190506104dc565b60008061473688888861346a565b90508486116147465790506108e7565b821561476057614758848288886113de565b9150506108e7565b600061476d85888861144c565b905061477b82888884611535565b925050506108e7565b6060806147918484614926565b915061346182614a3e565b60008160ff166096106147b75760ff8216622625a0026104dc565b5060951960ff919091160162e4e1c00263165a0bc00190565b60008112156147de57600080fd5b60006147e86135e5565b6001600160a01b03851660009081526020828152604080832061ffff881684529091529020909150614819836112d2565b8154600a9190910b6001600160581b0316600160a81b026001600160a81b0390911617905550505050565b6000806104dc6021612c21565b60609091015160ff911c16622625a00290565b6000806104dc600b612c21565b60006201518082101561488357600080fd5b6201518082611a34565b60008161489957600080fd5b600160801b82106148ac57608091821c91015b600160401b82106148bf57604091821c91015b64010000000082106148d357602091821c91015b6201000082106148e557601091821c91015b61010082106148f657600891821c91015b6010821061490657600491821c91015b6004821061491657600291821c91015b6002821061035d57600101919050565b606060088260ff16111561493957600080fd5b6000614943614bff565b6001600160a01b038516600090815260208290526040812091925060ff851667ffffffffffffffff8111801561497857600080fd5b506040519080825280602002602001820160405280156149b257816020015b61499f614e8c565b8152602001906001900390816149975790505b50905060005b8560ff168110156107245760008382600881106149d157fe5b01905060008383815181106149e257fe5b602090810291909101810151835461ffff8116825264ffffffffff620100008204169282019290925260ff600160381b8304166040820152600160401b909104600a90810b900b606082015260800191909152506001016149b8565b80516060908067ffffffffffffffff81118015614a5a57600080fd5b50604051908082528060200260200182016040528015614a84578160200160208202803683370190505b50915060005b81811015614ae1576000848281518110614aa057fe5b60200260200101519050614ac1816000015182602001518360400151614c0c565b848381518110614acd57fe5b602090810291909101015250600101614a8a565b5060015b81811015614bf857805b600081118015614b275750838181518110614b0657fe5b6020026020010151846001830381518110614b1d57fe5b6020026020010151115b15614bef57838181518110614b3857fe5b6020026020010151846001830381518110614b4f57fe5b6020026020010151856001840381518110614b6657fe5b60200260200101868481518110614b7957fe5b6020026020010182815250828152505050848181518110614b9657fe5b6020026020010151856001830381518110614bad57fe5b6020026020010151866001840381518110614bc457fe5b60200260200101878481518110614bd757fe5b60209081029190910101919091525260001901614aef565b50600101614ae5565b5050919050565b6000806104dc600d612c21565b67ffff000000000000603084901b1665ffffffffff00600884901b161760ff8216179392505050565b6040518060e00160405280614c48614dbe565b8152602001614c55614e64565b815260006020820181905260408201819052606082018190526080820181905260a09091015290565b604051806101400160405280600061ffff1681526020016000815260200160008152602001600081526020016000815260200160008152602001600081526020016000815260200160008152602001614cd5614cda565b905290565b60405180606001604052806000815260200160008152602001600081525090565b6040518061012001604052806000815260200160008152602001600081526020016000815260200160008152602001600081526020016000815260200160008152602001600081525090565b60405180610100016040528060008019168152602001600081526020016000815260200160008152602001600081526020016000815260200160008152602001600081525090565b6040805160a0810182526000808252602082018190529181018290529060608201908152602001600081525090565b6040805160808101825260008082526020820152908101614ddd614cda565b8152600060209091015290565b6040805160c081018252600080825260208201819052918101829052606081018290526080810182905260a081019190915290565b60405180610100016040528060008152602001600081526020016000815260200160008152602001600081526020016000815260200160008152602001600081525090565b6040518060800160405280606081526020016060815260200160008152602001600081525090565b6040518060c00160405280600061ffff1681526020016000815260200160008152602001600081526020016000815260200160006003811115614cd557fe5b8035801515811461035d57600080fd5b803561ffff8116811461035d57600080fd5b803563ffffffff8116811461035d57600080fd5b60008060408385031215614f13578182fd5b82356001600160a01b0381168114614f29578283fd5b946020939093013593505050565b600060208284031215614f48578081fd5b6105a582614edb565b60008060408385031215614f63578182fd5b614f2983614edb565b600080600060608486031215614f80578081fd5b614f8984614edb565b925060208401359150614f9e60408501614ecb565b90509250925092565b60008060008060808587031215614fbc578081fd5b614fc585614edb565b9350602085013580600a0b8114614fda578182fd5b93969395505050506040820135916060013590565b60008060008060808587031215615004578384fd5b61500d85614edb565b966020860135965060408601359560600135945092505050565b600080600080600060a0868803121561503e578081fd5b61504786614edb565b945060208601359350604086013592506060860135915061506a60808701614ecb565b90509295509295909350565b600080600080600060a0868803121561508d578081fd5b61509686614edb565b945060208601359350604086013592506150b260608701614eed565b949793965091946080013592915050565b60008060008060008060c087890312156150db578081fd5b6150e487614edb565b9550602087013594506040870135935061510060608801614eed565b92506080870135915061511560a08801614ecb565b90509295509295509295565b60008060408385031215615133578182fd5b61513c83614edb565b915060208301356001600160581b0381168114615157578182fd5b809150509250929050565b60008060408385031215615174578182fd5b50508035926020909101359150565b60008060408385031215615195578182fd5b505080516020909101519092909150565b6001600160a01b0391909116815260200190565b6001600160a01b03929092168252602082015260400190565b90815260200190565b918252602082015260400190565b60208082526016908201527513585c9ad95d081b9bdd081a5b9a5d1a585b1a5e995960521b604082015260600190565b60208082526013908201527214995c5d5a5c995cc81cd95d1d1b195b595b9d606a1b604082015260600190565b6020808252600e908201526d4e6f20636f6e76657267656e636560901b604082015260600190565b6020808252600d908201526c092dcecc2d8d2c840d2dcc8caf609b1b604082015260600190565b6020808252600e908201526d125b9d985b1a59081b585c9ad95d60921b604082015260600190565b6020808252601690820152755472616465206661696c65642c20736c69707061676560501b604082015260600190565b602080825260129082015271496e76616c696420626c6f636b2074696d6560701b604082015260600190565b602080825260139082015272125b9d985b1a590818dd5c9c995b98de481a59606a1b604082015260600190565b60208082526011908201527013dd995c8813585c9ad95d08131a5b5a5d607a1b604082015260600190565b60208082526014908201527313dd995c8811195d9a585d1a5bdb88131a5b5a5d60621b604082015260600190565b6000610180820190508351825260208401516020830152604084015160408301528251606083015260208301516080830152604083015160a0830152606083015160c0830152608083015160e083015260a0830151610100818185015260c085015161012085015260e08501516101408501528085015161016085015250509392505050565b9283526020830191909152604082015260600190565b938452602084019290925260ff166040830152606082015260800190565b6001600160581b0393909316835260ff919091166020830152604082015260600190565b60ff9190911681526020019056fea2646970667358221220a870ceb7c5e9d6dbdbd1e7a06e9a79ab9dc2eb6b58972044594e2ac41a53019664736f6c63430007060033","bytecodeSha1":"43348f0815da98bf541b7b7b09c67cca4bab2692","compiler":{"evm_version":"istanbul","optimizer":{"enabled":true,"runs":200},"version":"0.7.6+commit.7338295f"},"contractName":"CalculationViews","language":"Solidity","natspec":{"kind":"dev","methods":{"accruePrimeInterest(uint16)":{"notice":"Accrues prime interest and updates state up to the current block"},"calculateNTokensToMint(uint16,uint88)":{"notice":"Returns the nTokens that will be minted when some amount of asset tokens are deposited","params":{"amountToDepositExternalPrecision":"amount of underlying tokens in native precision","currencyId":"id number of the currency"},"returns":{"_0":"the amount of nTokens that will be minted"}},"convertCashBalanceToExternal(uint16,int256,bool)":{"notice":"Converts an prime cash balance to an external token denomination","params":{"convertToUnderlying":"true if the value should be converted to underlying","currencyId":"the currency id of the cash balance","primeCashBalance":"the signed cash balance that is stored in Notional"},"returns":{"_0":"the cash balance converted to the external token denomination"}},"convertSettledfCash(uint16,uint256,int256,uint256)":{"notice":"Converts fCash to its settled prime cash value at the specified block time","params":{"blockTime":"block time to convert to settled prime value, must be greater than maturity","currencyId":"the currency id of the fCash asset","fCashBalance":"signed balance of fcash","maturity":"the timestamp when the fCash asset matures"},"returns":{"signedPrimeSupplyValue":"amount of prime cash to be received or owed to the protocol"}},"convertUnderlyingToPrimeCash(uint16,int256)":{"notice":"Converts an underlying balance to prime cash","params":{"currencyId":"the currency id of the cash balance","underlyingExternal":"the underlying external token balance"},"returns":{"_0":"the underlying balance converted to prime cash"}},"getCashAmountGivenfCashAmount(uint16,int88,uint256,uint256)":{"notice":"Returns the cash amount that will be traded given an fCash amount, be sure to buffer these amounts slightly because the liquidity curve is sensitive to changes in block time","params":{"blockTime":"the block time for when the trade will be calculated","currencyId":"id number of the currency","fCashAmount":"amount of fCash to trade, negative for borrowing, positive for lending","marketIndex":"market index of the fCash market"},"returns":{"_0":"net asset cash amount (positive for borrowing, negative for lending) in 8 decimal precision","_1":"underlying cash amount (positive for borrowing, negative for lending) in 8 decimal precision"}},"getDepositFromfCashLend(uint16,uint256,uint256,uint32,uint256)":{"notice":"Returns the amount of underlying cash and asset cash required to lend fCash. When specifying a trade, deposit either underlying or asset tokens (not both). Asset tokens tend to be more gas efficient.","params":{"blockTime":"the block time for when the trade will be calculated","currencyId":"id number of the currency","fCashAmount":"amount of fCash (in underlying) that will be received at maturity. Always 8 decimal precision.","maturity":"the maturity of the fCash to lend","minLendRate":"the minimum lending rate (slippage protection)"},"returns":{"depositAmountPrimeCash":"the amount of prime cash tokens the lender must deposit or mint","depositAmountUnderlying":"the amount of underlying tokens the lender must deposit","encodedTrade":"the encoded bytes32 object to pass to batch trade","marketIndex":"the corresponding market index for the lending"}},"getMarketIndex(uint256,uint256)":{"notice":"Returns a market index value for a given maturity","params":{"blockTime":"the block time for when the trade will be calculated","maturity":"an fCash maturity"},"returns":{"marketIndex":"a value between 1 and 7 that represents the marketIndex (tenor) that corresponds to the maturity. Returns 0 if there is no corresponding marketIndex"}},"getPresentfCashValue(uint16,uint256,int256,uint256,bool)":{"notice":"Returns the present value of the given fCash amount using Notional internal oracle rates","params":{"blockTime":"the block time for when the trade will be calculated","currencyId":"id number of the currency","maturity":"timestamp of the fCash maturity","notional":"amount of fCash notional","riskAdjusted":"true if haircuts and buffers should be applied to the oracle rate"},"returns":{"presentValue":"of fCash in 8 decimal precision and underlying denomination"}},"getPrincipalFromfCashBorrow(uint16,uint256,uint256,uint32,uint256)":{"notice":"Returns the amount of underlying cash and asset cash required to borrow fCash. When specifying a trade, choose to receive either underlying or asset tokens (not both). Asset tokens tend to be more gas efficient.","params":{"blockTime":"the block time for when the trade will be calculated","currencyId":"id number of the currency","fCashBorrow":"amount of fCash (in underlying) that will be received at maturity. Always 8 decimal precision.","maturity":"the maturity of the fCash to lend","maxBorrowRate":"the maximum borrow rate (slippage protection)"},"returns":{"borrowAmountPrimeCash":"the amount of prime cash tokens the borrower will receive","borrowAmountUnderlying":"the amount of underlying tokens the borrower will receive","encodedTrade":"the encoded bytes32 object to pass to batch trade","marketIndex":"the corresponding market index for the lending"}},"getfCashAmountGivenCashAmount(uint16,int88,uint256,uint256)":{"params":{"blockTime":"the block time for when the trade will be calculated","marketIndex":"market index of the fCash market"},"returns":{"_0":"the fCash amount from the trade, positive when lending, negative when borrowing. Always in 8 decimals."}},"getfCashBorrowFromPrincipal(uint16,uint256,uint256,uint32,uint256,bool)":{"notice":"Returns the amount of fCash that would received if lending deposit amount.","params":{"blockTime":"the block time for when the trade will be calculated","borrowedAmountExternal":"amount to borrow in the token's native precision.","currencyId":"id number of the currency","maturity":"the maturity of the fCash to lend","maxBorrowRate":"the maximum borrow rate (slippage protection). If zero then no slippage will be applied","useUnderlying":"true if specifying the underlying token, false if specifying prime cash"},"returns":{"encodedTrade":"the encoded bytes32 object to pass to batch trade","fCashDebt":"the amount of fCash that the borrower will owe, this will be stored as a negative balance in Notional","marketIndex":"the corresponding market index for the lending"}},"getfCashLendFromDeposit(uint16,uint256,uint256,uint32,uint256,bool)":{"notice":"Returns the amount of fCash that would received if lending deposit amount.","params":{"blockTime":"the block time for when the trade will be calculated","currencyId":"id number of the currency","depositAmountExternal":"amount to deposit in the token's native precision. For aTokens use what is returned by the balanceOf selector (not scaledBalanceOf).","maturity":"the maturity of the fCash to lend","minLendRate":"the minimum lending rate (slippage protection)","useUnderlying":"true if specifying the underlying token, false if specifying prime cash"},"returns":{"encodedTrade":"the encoded bytes32 object to pass to batch trade","fCashAmount":"the amount of fCash that the lender will receive","marketIndex":"the corresponding market index for the lending"}},"nTokenGetClaimableIncentives(address,uint256)":{"notice":"Returns the claimable incentives for all nToken balances","params":{"account":"The address of the account which holds the tokens","blockTime":"The block time when incentives will be minted"},"returns":{"_0":"Incentives an account is eligible to claim"}},"nTokenPresentValueAssetDenominated(uint16)":{"notice":"Returns the present value of the nToken's assets denominated in asset tokens"},"nTokenPresentValueUnderlyingDenominated(uint16)":{"notice":"Returns the present value of the nToken's assets denominated in underlying"}},"version":1},"opcodes":"PUSH1 0x80 PUSH1 0x40 MSTORE CALLVALUE DUP1 ISZERO PUSH2 0x10 JUMPI PUSH1 0x0 DUP1 REVERT JUMPDEST POP PUSH1 0x4 CALLDATASIZE LT PUSH2 0x12C JUMPI PUSH1 0x0 CALLDATALOAD PUSH1 0xE0 SHR DUP1 PUSH4 0x82463367 GT PUSH2 0xAD JUMPI DUP1 PUSH4 0xBAC9E8B1 GT PUSH2 0x71 JUMPI DUP1 PUSH4 0xBAC9E8B1 EQ PUSH2 0x27B JUMPI DUP1 PUSH4 0xC50A6134 EQ PUSH2 0x29D JUMPI DUP1 PUSH4 0xC52C43E1 EQ PUSH2 0x2BE JUMPI DUP1 PUSH4 0xF11FF573 EQ PUSH2 0x2D1 JUMPI DUP1 PUSH4 0xF83A8608 EQ PUSH2 0x2E4 JUMPI PUSH2 0x12C JUMP JUMPDEST DUP1 PUSH4 0x82463367 EQ PUSH2 0x232 JUMPI DUP1 PUSH4 0x8355E895 EQ PUSH2 0x23A JUMPI DUP1 PUSH4 0x8DA5CB5B EQ PUSH2 0x24D JUMPI DUP1 PUSH4 0x97D6DB2E EQ PUSH2 0x255 JUMPI DUP1 PUSH4 0xAAAE47B5 EQ PUSH2 0x268 JUMPI PUSH2 0x12C JUMP JUMPDEST DUP1 PUSH4 0x416A1587 GT PUSH2 0xF4 JUMPI DUP1 PUSH4 0x416A1587 EQ PUSH2 0x1B6 JUMPI DUP1 PUSH4 0x5953C77B EQ PUSH2 0x1D9 JUMPI DUP1 PUSH4 0x6A09A2A3 EQ PUSH2 0x1F9 JUMPI DUP1 PUSH4 0x6D48C794 EQ PUSH2 0x20C JUMPI DUP1 PUSH4 0x6EBBF174 EQ PUSH2 0x21F JUMPI PUSH2 0x12C JUMP JUMPDEST DUP1 PUSH4 0x94614DF EQ PUSH2 0x131 JUMPI DUP1 PUSH4 0xEB49480 EQ PUSH2 0x15B JUMPI DUP1 PUSH4 0x1A05BCE1 EQ PUSH2 0x17B JUMPI DUP1 PUSH4 0x24A3D622 EQ PUSH2 0x18E JUMPI DUP1 PUSH4 0x3B2987B3 EQ PUSH2 0x1A3 JUMPI JUMPDEST PUSH1 0x0 DUP1 REVERT JUMPDEST PUSH2 0x144 PUSH2 0x13F CALLDATASIZE PUSH1 0x4 PUSH2 0x4FA7 JUMP JUMPDEST PUSH2 0x2F7 JUMP JUMPDEST PUSH1 0x40 MLOAD PUSH2 0x152 SWAP3 SWAP2 SWAP1 PUSH2 0x51DC JUMP JUMPDEST PUSH1 0x40 MLOAD DUP1 SWAP2 SUB SWAP1 RETURN JUMPDEST PUSH2 0x16E PUSH2 0x169 CALLDATASIZE PUSH1 0x4 PUSH2 0x4FEF JUMP JUMPDEST PUSH2 0x315 JUMP JUMPDEST PUSH1 0x40 MLOAD PUSH2 0x152 SWAP2 SWAP1 PUSH2 0x51D3 JUMP JUMPDEST PUSH2 0x16E PUSH2 0x189 CALLDATASIZE PUSH1 0x4 PUSH2 0x4F37 JUMP JUMPDEST PUSH2 0x34C JUMP JUMPDEST PUSH2 0x196 PUSH2 0x362 JUMP JUMPDEST PUSH1 0x40 MLOAD PUSH2 0x152 SWAP2 SWAP1 PUSH2 0x51A6 JUMP JUMPDEST PUSH2 0x16E PUSH2 0x1B1 CALLDATASIZE PUSH1 0x4 PUSH2 0x4F37 JUMP JUMPDEST PUSH2 0x371 JUMP JUMPDEST PUSH2 0x1C9 PUSH2 0x1C4 CALLDATASIZE PUSH1 0x4 PUSH2 0x5076 JUMP JUMPDEST PUSH2 0x394 JUMP JUMPDEST PUSH1 0x40 MLOAD PUSH2 0x152 SWAP5 SWAP4 SWAP3 SWAP2 SWAP1 PUSH2 0x543C JUMP JUMPDEST PUSH2 0x1EC PUSH2 0x1E7 CALLDATASIZE PUSH1 0x4 PUSH2 0x5162 JUMP JUMPDEST PUSH2 0x43A JUMP JUMPDEST PUSH1 0x40 MLOAD PUSH2 0x152 SWAP2 SWAP1 PUSH2 0x547E JUMP JUMPDEST PUSH2 0x16E PUSH2 0x207 CALLDATASIZE PUSH1 0x4 PUSH2 0x5121 JUMP JUMPDEST PUSH2 0x466 JUMP JUMPDEST PUSH2 0x16E PUSH2 0x21A CALLDATASIZE PUSH1 0x4 PUSH2 0x4F51 JUMP JUMPDEST PUSH2 0x4E2 JUMP JUMPDEST PUSH2 0x16E PUSH2 0x22D CALLDATASIZE PUSH1 0x4 PUSH2 0x4F6C JUMP JUMPDEST PUSH2 0x549 JUMP JUMPDEST PUSH2 0x196 PUSH2 0x5AC JUMP JUMPDEST PUSH2 0x16E PUSH2 0x248 CALLDATASIZE PUSH1 0x4 PUSH2 0x4FA7 JUMP JUMPDEST PUSH2 0x5BB JUMP JUMPDEST PUSH2 0x196 PUSH2 0x5DF JUMP JUMPDEST PUSH2 0x16E PUSH2 0x263 CALLDATASIZE PUSH1 0x4 PUSH2 0x4F01 JUMP JUMPDEST PUSH2 0x5F6 JUMP JUMPDEST PUSH2 0x1C9 PUSH2 0x276 CALLDATASIZE PUSH1 0x4 PUSH2 0x5076 JUMP JUMPDEST PUSH2 0x72E JUMP JUMPDEST PUSH2 0x28E PUSH2 0x289 CALLDATASIZE PUSH1 0x4 PUSH2 0x50C3 JUMP JUMPDEST PUSH2 0x7C0 JUMP JUMPDEST PUSH1 0x40 MLOAD PUSH2 0x152 SWAP4 SWAP3 SWAP2 SWAP1 PUSH2 0x545A JUMP JUMPDEST PUSH2 0x2B0 PUSH2 0x2AB CALLDATASIZE PUSH1 0x4 PUSH2 0x4F37 JUMP JUMPDEST PUSH2 0x83B JUMP JUMPDEST PUSH1 0x40 MLOAD PUSH2 0x152 SWAP3 SWAP2 SWAP1 PUSH2 0x53A0 JUMP JUMPDEST PUSH2 0x16E PUSH2 0x2CC CALLDATASIZE PUSH1 0x4 PUSH2 0x5027 JUMP JUMPDEST PUSH2 0x866 JUMP JUMPDEST PUSH2 0x16E PUSH2 0x2DF CALLDATASIZE PUSH1 0x4 PUSH2 0x4F51 JUMP JUMPDEST PUSH2 0x8AE JUMP JUMPDEST PUSH2 0x28E PUSH2 0x2F2 CALLDATASIZE PUSH1 0x4 PUSH2 0x50C3 JUMP JUMPDEST PUSH2 0x8F1 JUMP JUMPDEST PUSH1 0x0 DUP1 PUSH2 0x308 DUP7 DUP7 DUP7 DUP7 PUSH1 0x0 PUSH2 0x956 JUMP JUMPDEST SWAP2 POP SWAP2 POP SWAP5 POP SWAP5 SWAP3 POP POP POP JUMP JUMPDEST PUSH1 0x0 DUP2 DUP5 GT ISZERO PUSH2 0x324 JUMPI PUSH1 0x0 DUP1 REVERT JUMPDEST PUSH1 0x0 PUSH2 0x330 DUP7 DUP5 PUSH2 0xA4F JUMP JUMPDEST POP SWAP1 POP PUSH2 0x340 DUP2 DUP8 DUP8 DUP8 DUP8 PUSH2 0xB08 JUMP JUMPDEST SWAP2 POP POP JUMPDEST SWAP5 SWAP4 POP POP POP POP JUMP JUMPDEST PUSH1 0x0 DUP1 PUSH2 0x358 DUP4 PUSH2 0xB2F JUMP JUMPDEST POP SWAP2 POP POP JUMPDEST SWAP2 SWAP1 POP JUMP JUMPDEST PUSH1 0x2 SLOAD PUSH1 0x1 PUSH1 0x1 PUSH1 0xA0 SHL SUB AND DUP2 JUMP JUMPDEST PUSH1 0x0 DUP1 PUSH1 0x0 PUSH2 0x37F DUP5 PUSH2 0xB2F JUMP JUMPDEST DUP1 MLOAD PUSH1 0x40 ADD MLOAD SWAP2 SWAP4 POP SWAP2 POP PUSH2 0x344 SWAP1 DUP4 PUSH2 0xB64 JUMP JUMPDEST PUSH1 0x0 DUP1 PUSH1 0x0 DUP1 PUSH2 0x3A4 DUP8 DUP7 PUSH2 0x43A JUMP JUMPDEST SWAP2 POP PUSH1 0x0 DUP3 PUSH1 0xFF AND GT PUSH2 0x3B6 JUMPI PUSH1 0x0 DUP1 REVERT JUMPDEST PUSH11 0x7FFFFFFFFFFFFFFFFFFFFF DUP9 LT PUSH2 0x3CD JUMPI PUSH1 0x0 DUP1 REVERT JUMPDEST PUSH1 0x0 PUSH2 0x3E0 PUSH2 0x3DB DUP11 PUSH2 0xBAD JUMP JUMPDEST PUSH2 0xBC7 JUMP JUMPDEST SWAP1 POP PUSH1 0x0 DUP1 PUSH2 0x3FB DUP13 DUP5 DUP8 PUSH1 0xFF AND DUP12 DUP14 PUSH4 0xFFFFFFFF AND PUSH2 0x956 JUMP JUMPDEST SWAP2 POP SWAP2 POP PUSH2 0x409 DUP13 DUP3 PUSH2 0xBD5 JUMP JUMPDEST SWAP7 POP PUSH2 0x414 DUP3 PUSH2 0xC21 JUMP JUMPDEST SWAP6 POP PUSH2 0x426 PUSH1 0x1 DUP7 DUP6 PUSH1 0xA SIGNEXTEND DUP13 PUSH2 0xC30 JUMP JUMPDEST POP DUP1 SWAP5 POP POP POP POP POP SWAP6 POP SWAP6 POP SWAP6 POP SWAP6 SWAP2 POP POP JUMP JUMPDEST PUSH1 0x0 DUP1 PUSH1 0x0 PUSH2 0x44B PUSH1 0x7 DUP7 DUP7 PUSH2 0xC8E JUMP JUMPDEST SWAP2 POP SWAP2 POP DUP1 PUSH2 0x45A JUMPI DUP2 PUSH2 0x45D JUMP JUMPDEST PUSH1 0x0 JUMPDEST SWAP6 SWAP5 POP POP POP POP POP JUMP JUMPDEST PUSH1 0x0 PUSH2 0x471 DUP4 PUSH2 0xD1D JUMP JUMPDEST PUSH1 0x0 PUSH2 0x480 DUP5 PUSH2 0xFFFF AND PUSH2 0xD5A JUMP JUMPDEST SWAP1 POP PUSH1 0x0 PUSH2 0x497 DUP3 PUSH1 0x1 PUSH1 0x1 PUSH1 0x58 SHL SUB DUP7 AND PUSH2 0xD6D JUMP JUMPDEST SWAP1 POP PUSH2 0x4A1 PUSH2 0x4C35 JUMP JUMPDEST PUSH2 0x4AB DUP2 DUP8 PUSH2 0xD9D JUMP JUMPDEST DUP1 MLOAD PUSH1 0x40 ADD MLOAD PUSH1 0x0 SWAP1 PUSH2 0x4CA SWAP1 DUP4 SWAP1 PUSH2 0x4C4 SWAP1 DUP7 PUSH2 0xDB6 JUMP JUMPDEST TIMESTAMP PUSH2 0xDDA JUMP JUMPDEST SWAP1 POP PUSH2 0x4D5 DUP2 PUSH2 0xC21 JUMP JUMPDEST SWAP5 POP POP POP POP POP JUMPDEST SWAP3 SWAP2 POP POP JUMP JUMPDEST PUSH1 0x0 DUP1 PUSH1 0x0 PUSH2 0x4F0 DUP6 PUSH2 0xB2F JUMP JUMPDEST SWAP2 POP SWAP2 POP PUSH1 0x0 PUSH2 0x517 DUP3 PUSH1 0x40 ADD MLOAD PUSH2 0x511 DUP6 DUP9 PUSH2 0xEE8 SWAP1 SWAP2 SWAP1 PUSH4 0xFFFFFFFF AND JUMP JUMPDEST SWAP1 PUSH2 0xF36 JUMP JUMPDEST DUP3 MLOAD PUSH1 0x40 ADD MLOAD SWAP1 SWAP2 POP PUSH1 0x0 SWAP1 PUSH2 0x52D SWAP1 DUP4 PUSH2 0xB64 JUMP JUMPDEST SWAP1 POP PUSH2 0x4D5 PUSH2 0x544 DUP9 PUSH2 0x53F DUP5 PUSH2 0xF67 JUMP JUMPDEST PUSH2 0xBD5 JUMP JUMPDEST PUSH2 0xBAD JUMP JUMPDEST PUSH1 0x0 DUP2 PUSH2 0x557 JUMPI POP DUP2 PUSH2 0x5A5 JUMP JUMPDEST PUSH1 0x0 PUSH2 0x563 DUP6 TIMESTAMP PUSH2 0xA4F JUMP JUMPDEST POP SWAP1 POP PUSH1 0x0 PUSH2 0x572 DUP3 DUP7 PUSH2 0xB64 JUMP JUMPDEST SWAP1 POP PUSH1 0x0 PUSH2 0x586 PUSH2 0x544 DUP9 PUSH2 0x53F DUP6 PUSH2 0xF67 JUMP JUMPDEST SWAP1 POP PUSH1 0x0 DUP3 SLT PUSH2 0x596 JUMPI DUP1 PUSH2 0x59F JUMP JUMPDEST PUSH2 0x59F DUP2 PUSH2 0xBC7 JUMP JUMPDEST SWAP4 POP POP POP POP JUMPDEST SWAP4 SWAP3 POP POP POP JUMP JUMPDEST PUSH1 0x1 SLOAD PUSH1 0x1 PUSH1 0x1 PUSH1 0xA0 SHL SUB AND DUP2 JUMP JUMPDEST PUSH1 0x0 PUSH2 0x5C6 DUP6 PUSH2 0xD1D JUMP JUMPDEST PUSH1 0x0 PUSH2 0x5D1 DUP7 PUSH2 0xF88 JUMP JUMPDEST SWAP1 POP PUSH2 0x340 DUP6 DUP6 DUP6 DUP5 PUSH2 0xFA9 JUMP JUMPDEST PUSH1 0x0 SLOAD PUSH5 0x100000000 SWAP1 DIV PUSH1 0x1 PUSH1 0x1 PUSH1 0xA0 SHL SUB AND DUP2 JUMP JUMPDEST PUSH1 0x0 DUP1 PUSH2 0x602 DUP5 PUSH2 0x103B JUMP JUMPDEST SWAP1 POP PUSH2 0x60C PUSH2 0x4C7E JUMP JUMPDEST PUSH1 0x0 PUSH2 0x617 DUP4 PUSH2 0x10EF JUMP JUMPDEST ISZERO PUSH2 0x68D JUMPI PUSH1 0x60 DUP4 ADD MLOAD PUSH2 0x62F SWAP1 DUP4 SWAP1 DUP9 SWAP1 DUP7 PUSH2 0x10FC JUMP JUMPDEST PUSH1 0x0 DUP3 PUSH1 0x40 ADD MLOAD SGT ISZERO PUSH2 0x68D JUMPI PUSH1 0x0 PUSH2 0x64F DUP4 PUSH1 0x0 ADD MLOAD PUSH2 0xFFFF AND PUSH2 0x111F JUMP JUMPDEST SWAP1 POP PUSH1 0x0 PUSH2 0x65D DUP3 DUP9 PUSH2 0x1145 JUMP JUMPDEST POP SWAP2 POP POP PUSH1 0x0 PUSH2 0x67B DUP6 DUP5 DUP5 PUSH2 0x676 DUP10 PUSH1 0x40 ADD MLOAD PUSH2 0xC21 JUMP JUMPDEST PUSH2 0x11DB JUMP JUMPDEST SWAP1 POP PUSH2 0x687 DUP5 DUP3 PUSH2 0x125A JUMP JUMPDEST SWAP4 POP POP POP POP JUMPDEST PUSH1 0x80 DUP4 ADD MLOAD JUMPDEST PUSH1 0x1 PUSH1 0x1 PUSH1 0x70 SHL SUB NOT DUP2 AND ISZERO PUSH2 0x724 JUMPI PUSH1 0xF0 DUP2 SWAP1 SHR PUSH2 0x3FFF AND PUSH2 0x6B8 DUP5 DUP10 DUP4 DUP9 PUSH2 0x10FC JUMP JUMPDEST PUSH1 0x0 DUP5 PUSH1 0x40 ADD MLOAD SGT ISZERO PUSH2 0x711 JUMPI PUSH1 0x0 PUSH2 0x6D8 DUP6 PUSH1 0x0 ADD MLOAD PUSH2 0xFFFF AND PUSH2 0x111F JUMP JUMPDEST SWAP1 POP PUSH1 0x0 PUSH2 0x6E6 DUP3 DUP11 PUSH2 0x1145 JUMP JUMPDEST POP SWAP2 POP POP PUSH1 0x0 PUSH2 0x6FF DUP8 DUP5 DUP5 PUSH2 0x676 DUP12 PUSH1 0x40 ADD MLOAD PUSH2 0xC21 JUMP JUMPDEST SWAP1 POP PUSH2 0x70B DUP7 DUP3 PUSH2 0x125A JUMP JUMPDEST SWAP6 POP POP POP POP JUMPDEST POP PUSH1 0x10 SHL PUSH1 0x1 PUSH1 0x1 PUSH1 0x80 SHL SUB NOT AND PUSH2 0x693 JUMP JUMPDEST POP SWAP6 SWAP5 POP POP POP POP POP JUMP JUMPDEST PUSH1 0x0 DUP1 PUSH1 0x0 DUP1 PUSH2 0x73E DUP8 DUP7 PUSH2 0x43A JUMP JUMPDEST SWAP2 POP PUSH1 0x0 DUP3 PUSH1 0xFF AND GT PUSH2 0x750 JUMPI PUSH1 0x0 DUP1 REVERT JUMPDEST PUSH11 0x7FFFFFFFFFFFFFFFFFFFFF DUP9 LT PUSH2 0x767 JUMPI PUSH1 0x0 DUP1 REVERT JUMPDEST PUSH1 0x0 PUSH2 0x772 DUP10 PUSH2 0xBAD JUMP JUMPDEST SWAP1 POP PUSH1 0x0 DUP1 PUSH2 0x78D DUP13 DUP5 DUP8 PUSH1 0xFF AND DUP12 DUP14 PUSH4 0xFFFFFFFF AND PUSH2 0x956 JUMP JUMPDEST SWAP2 POP SWAP2 POP PUSH2 0x79B DUP13 DUP3 PUSH2 0xBD5 JUMP JUMPDEST SWAP7 POP PUSH2 0x7AE PUSH2 0x7A9 DUP4 PUSH2 0xBC7 JUMP JUMPDEST PUSH2 0xC21 JUMP JUMPDEST SWAP6 POP PUSH2 0x426 PUSH1 0x0 DUP7 DUP6 PUSH1 0xA SIGNEXTEND DUP13 PUSH2 0xC30 JUMP JUMPDEST PUSH1 0x0 DUP1 PUSH1 0x0 PUSH2 0x7CF DUP8 DUP7 PUSH2 0x43A JUMP JUMPDEST SWAP2 POP PUSH1 0x0 DUP3 PUSH1 0xFF AND GT PUSH2 0x7E1 JUMPI PUSH1 0x0 DUP1 REVERT JUMPDEST PUSH1 0x0 DUP1 PUSH2 0x7EF DUP12 DUP12 DUP9 PUSH2 0x126C JUMP JUMPDEST SWAP2 POP SWAP2 POP PUSH1 0x0 PUSH2 0x80C PUSH2 0x801 DUP5 PUSH2 0x12D2 JUMP JUMPDEST DUP7 PUSH1 0xFF AND DUP11 DUP6 PUSH2 0xFA9 JUMP JUMPDEST SWAP1 POP PUSH1 0x0 DUP2 SLT PUSH2 0x81B JUMPI PUSH1 0x0 DUP1 REVERT JUMPDEST PUSH2 0x828 PUSH1 0x1 DUP7 DUP4 DUP13 PUSH2 0xC30 JUMP JUMPDEST SWAP14 SWAP6 SWAP13 POP SWAP11 POP SWAP4 SWAP9 POP POP POP POP POP POP POP POP POP JUMP JUMPDEST PUSH2 0x843 PUSH2 0x4CDA JUMP JUMPDEST PUSH2 0x84B PUSH2 0x4CFB JUMP JUMPDEST PUSH2 0x854 DUP4 PUSH2 0x1304 JUMP JUMPDEST SWAP2 POP PUSH2 0x85F DUP4 PUSH2 0x1316 JUMP JUMPDEST SWAP1 POP SWAP2 POP SWAP2 JUMP JUMPDEST PUSH1 0x0 DUP1 PUSH2 0x872 DUP8 PUSH2 0xF88 JUMP JUMPDEST SWAP1 POP DUP3 ISZERO PUSH2 0x88D JUMPI PUSH2 0x886 DUP2 DUP7 DUP9 DUP8 PUSH2 0x13DE JUMP JUMPDEST SWAP2 POP PUSH2 0x724 JUMP JUMPDEST PUSH2 0x8A3 DUP6 DUP8 DUP7 PUSH2 0x89E DUP6 DUP4 DUP4 PUSH2 0x144C JUMP JUMPDEST PUSH2 0x1535 JUMP JUMPDEST SWAP8 SWAP7 POP POP POP POP POP POP POP JUMP JUMPDEST PUSH1 0x0 DUP1 PUSH2 0x8BB DUP5 TIMESTAMP PUSH2 0xA4F JUMP JUMPDEST POP SWAP1 POP PUSH1 0x0 PUSH2 0x8CD DUP6 PUSH2 0xFFFF AND PUSH2 0xD5A JUMP JUMPDEST SWAP1 POP PUSH1 0x0 PUSH2 0x8DB DUP3 DUP7 PUSH2 0xD6D JUMP JUMPDEST SWAP1 POP PUSH2 0x8E7 DUP4 DUP3 PUSH2 0xDB6 JUMP JUMPDEST SWAP7 SWAP6 POP POP POP POP POP POP JUMP JUMPDEST PUSH1 0x0 DUP1 PUSH1 0x0 PUSH2 0x900 DUP8 DUP7 PUSH2 0x43A JUMP JUMPDEST SWAP2 POP PUSH1 0x0 DUP3 PUSH1 0xFF AND GT PUSH2 0x912 JUMPI PUSH1 0x0 DUP1 REVERT JUMPDEST PUSH1 0x0 DUP1 PUSH2 0x920 DUP12 DUP12 DUP9 PUSH2 0x126C JUMP JUMPDEST SWAP2 POP SWAP2 POP PUSH1 0x0 PUSH2 0x93A PUSH2 0x801 PUSH2 0x935 DUP6 PUSH2 0xBC7 JUMP JUMPDEST PUSH2 0x12D2 JUMP JUMPDEST SWAP1 POP DUP1 PUSH1 0x0 SLT PUSH2 0x949 JUMPI PUSH1 0x0 DUP1 REVERT JUMPDEST PUSH2 0x828 PUSH1 0x0 DUP7 DUP4 DUP13 PUSH2 0xC30 JUMP JUMPDEST PUSH1 0x0 DUP1 PUSH2 0x962 DUP8 PUSH2 0xD1D JUMP JUMPDEST PUSH1 0x0 PUSH2 0x96D DUP9 PUSH2 0xF88 JUMP JUMPDEST SWAP1 POP PUSH2 0x977 PUSH2 0x4D47 JUMP JUMPDEST PUSH2 0x985 DUP3 DUP3 DUP10 PUSH1 0x0 DUP11 PUSH2 0x1599 JUMP JUMPDEST DUP6 DUP2 PUSH1 0x20 ADD MLOAD GT PUSH2 0x9B1 JUMPI PUSH1 0x40 MLOAD PUSH3 0x461BCD PUSH1 0xE5 SHL DUP2 MSTORE PUSH1 0x4 ADD PUSH2 0x9A8 SWAP1 PUSH2 0x52EE JUMP JUMPDEST PUSH1 0x40 MLOAD DUP1 SWAP2 SUB SWAP1 REVERT JUMPDEST PUSH1 0x20 DUP2 ADD MLOAD DUP7 SWAP1 SUB PUSH1 0x0 DUP1 PUSH2 0x9CD DUP5 DUP7 PUSH1 0xA DUP15 SWAP1 SIGNEXTEND DUP7 DUP15 PUSH2 0x1614 JUMP JUMPDEST SWAP3 POP POP SWAP2 POP DUP8 PUSH1 0x0 EQ PUSH2 0xA2B JUMPI PUSH1 0x0 DUP12 PUSH1 0xA SIGNEXTEND SLT ISZERO PUSH2 0xA0B JUMPI DUP8 DUP2 GT ISZERO PUSH2 0xA06 JUMPI PUSH1 0x40 MLOAD PUSH3 0x461BCD PUSH1 0xE5 SHL DUP2 MSTORE PUSH1 0x4 ADD PUSH2 0x9A8 SWAP1 PUSH2 0x52BE JUMP JUMPDEST PUSH2 0xA2B JUMP JUMPDEST DUP8 DUP2 LT ISZERO PUSH2 0xA2B JUMPI PUSH1 0x40 MLOAD PUSH3 0x461BCD PUSH1 0xE5 SHL DUP2 MSTORE PUSH1 0x4 ADD PUSH2 0x9A8 SWAP1 PUSH2 0x52BE JUMP JUMPDEST PUSH1 0x40 DUP6 ADD MLOAD DUP3 SWAP1 PUSH2 0xA3C SWAP1 DUP3 PUSH2 0xB64 JUMP JUMPDEST SWAP7 POP SWAP7 POP POP POP POP POP POP SWAP6 POP SWAP6 SWAP4 POP POP POP POP JUMP JUMPDEST PUSH2 0xA57 PUSH2 0x4CDA JUMP JUMPDEST PUSH2 0xA5F PUSH2 0x4CFB JUMP JUMPDEST PUSH2 0xA68 DUP5 PUSH2 0x1316 JUMP JUMPDEST SWAP1 POP DUP3 DUP2 PUSH1 0x0 ADD MLOAD LT ISZERO PUSH2 0xA99 JUMPI PUSH1 0x0 PUSH2 0xA81 DUP6 PUSH2 0x1754 JUMP JUMPDEST SWAP1 POP PUSH2 0xA8F DUP6 DUP4 DUP4 DUP8 PUSH2 0x17CF JUMP JUMPDEST POP SWAP2 POP PUSH2 0xAA6 SWAP1 POP JUMP JUMPDEST DUP1 MLOAD DUP4 EQ PUSH2 0xAA6 JUMPI PUSH1 0x0 DUP1 REVERT JUMPDEST PUSH1 0x40 MLOAD DUP1 PUSH1 0x60 ADD PUSH1 0x40 MSTORE DUP1 PUSH2 0xACF PUSH2 0x544 DUP5 PUSH1 0xA0 ADD MLOAD DUP6 PUSH1 0xC0 ADD MLOAD PUSH2 0x1873 SWAP1 SWAP2 SWAP1 PUSH4 0xFFFFFFFF AND JUMP JUMPDEST DUP2 MSTORE PUSH1 0x20 ADD PUSH2 0xAF2 PUSH2 0x544 DUP5 PUSH1 0xA0 ADD MLOAD DUP6 PUSH1 0xE0 ADD MLOAD PUSH2 0x1873 SWAP1 SWAP2 SWAP1 PUSH4 0xFFFFFFFF AND JUMP JUMPDEST DUP2 MSTORE PUSH1 0x20 ADD DUP3 PUSH1 0x60 ADD MLOAD DUP2 MSTORE POP SWAP2 POP SWAP3 POP SWAP3 SWAP1 POP JUMP JUMPDEST PUSH1 0x0 DUP1 PUSH2 0xB16 DUP7 DUP7 DUP6 PUSH2 0x189A JUMP JUMPDEST SWAP1 POP PUSH2 0xB23 DUP8 DUP3 DUP7 PUSH2 0x18CE JUMP JUMPDEST POP SWAP8 SWAP7 POP POP POP POP POP POP POP JUMP JUMPDEST PUSH1 0x0 PUSH2 0xB39 PUSH2 0x4C35 JUMP JUMPDEST TIMESTAMP PUSH2 0xB42 PUSH2 0x4C35 JUMP JUMPDEST PUSH2 0xB4C DUP2 DUP7 PUSH2 0xD9D JUMP JUMPDEST PUSH1 0x0 PUSH2 0xB58 DUP3 DUP5 PUSH2 0x193C JUMP JUMPDEST SWAP5 POP SWAP1 SWAP3 POP POP POP SWAP2 POP SWAP2 JUMP JUMPDEST PUSH1 0x0 DUP1 PUSH2 0xB91 PUSH15 0xC097CE7BC90715B34B9F1000000000 PUSH2 0x511 DUP7 PUSH1 0x0 ADD MLOAD DUP7 PUSH2 0xEE8 SWAP1 SWAP2 SWAP1 PUSH4 0xFFFFFFFF AND JUMP JUMPDEST SWAP1 POP PUSH1 0x0 DUP4 SLT PUSH2 0xBA1 JUMPI DUP1 PUSH2 0x344 JUMP JUMPDEST PUSH2 0x344 DUP2 PUSH1 0x0 NOT PUSH2 0x1992 JUMP JUMPDEST PUSH1 0x0 PUSH1 0x1 PUSH1 0x1 PUSH1 0xFF SHL SUB DUP3 GT ISZERO PUSH2 0xBC3 JUMPI PUSH1 0x0 DUP1 REVERT JUMPDEST POP SWAP1 JUMP JUMPDEST PUSH1 0x0 PUSH2 0x4DC PUSH1 0x0 NOT DUP4 PUSH2 0xEE8 JUMP JUMPDEST PUSH1 0x0 DUP1 PUSH2 0xBE5 DUP5 PUSH2 0xFFFF AND PUSH2 0xD5A JUMP JUMPDEST SWAP1 POP PUSH1 0x0 DUP1 DUP5 SLT PUSH2 0xC07 JUMPI PUSH2 0xC02 PUSH2 0xBFD DUP4 DUP7 PUSH2 0x19A8 JUMP JUMPDEST PUSH2 0xF67 JUMP JUMPDEST PUSH2 0xC1A JUMP JUMPDEST PUSH2 0xC1A PUSH2 0xC13 DUP6 PUSH2 0xBC7 JUMP JUMPDEST DUP4 SWAP1 PUSH2 0x19E0 JUMP JUMPDEST SWAP1 POP PUSH2 0x45D DUP2 JUMPDEST PUSH1 0x0 DUP1 DUP3 SLT ISZERO PUSH2 0xBC3 JUMPI PUSH1 0x0 DUP1 REVERT JUMPDEST PUSH1 0x0 DUP1 PUSH1 0x0 PUSH2 0xC3E DUP6 PUSH2 0xF67 JUMP JUMPDEST SWAP1 POP PUSH1 0x1 PUSH1 0x1 PUSH1 0x58 SHL SUB DUP2 GT ISZERO PUSH2 0xC54 JUMPI PUSH1 0x0 DUP1 REVERT JUMPDEST PUSH1 0x78 DUP5 PUSH4 0xFFFFFFFF AND SWAP1 SHL PUSH1 0x98 DUP3 SWAP1 SHL PUSH1 0xF0 DUP9 PUSH1 0xFF AND SWAP1 SHL PUSH1 0xF8 DUP11 PUSH1 0x5 DUP2 GT ISZERO PUSH2 0xC7A JUMPI INVALID JUMPDEST PUSH1 0xFF AND SWAP1 SHL OR OR OR SWAP8 SWAP1 SWAP7 POP SWAP5 POP POP POP POP POP JUMP JUMPDEST PUSH1 0x0 DUP1 PUSH1 0x0 DUP6 GT PUSH2 0xC9E JUMPI PUSH1 0x0 DUP1 REVERT JUMPDEST PUSH1 0x7 DUP6 GT ISZERO PUSH2 0xCAC JUMPI PUSH1 0x0 DUP1 REVERT JUMPDEST PUSH1 0x0 PUSH2 0xCB7 DUP5 PUSH2 0x1A1C JUMP JUMPDEST SWAP1 POP PUSH1 0x1 JUMPDEST DUP7 DUP2 GT PUSH2 0xD0F JUMPI PUSH1 0x0 PUSH2 0xCD8 PUSH2 0xCD1 DUP4 PUSH2 0x1A3D JUMP JUMPDEST DUP5 SWAP1 PUSH2 0x125A JUMP JUMPDEST SWAP1 POP DUP7 DUP2 EQ ISZERO PUSH2 0xCF0 JUMPI POP SWAP3 POP PUSH1 0x0 SWAP2 POP PUSH2 0xD15 SWAP1 POP JUMP JUMPDEST DUP7 DUP2 GT ISZERO PUSH2 0xD06 JUMPI POP SWAP3 POP PUSH1 0x1 SWAP2 POP PUSH2 0xD15 SWAP1 POP JUMP JUMPDEST POP PUSH1 0x1 ADD PUSH2 0xCBC JUMP JUMPDEST POP PUSH1 0x0 DUP1 REVERT JUMPDEST SWAP4 POP SWAP4 SWAP2 POP POP JUMP JUMPDEST DUP1 PUSH2 0xFFFF AND PUSH1 0x0 LT DUP1 ISZERO PUSH2 0xD3B JUMPI POP PUSH1 0x0 SLOAD PUSH2 0xFFFF SWAP1 DUP2 AND SWAP1 DUP3 AND GT ISZERO JUMPDEST PUSH2 0xD57 JUMPI PUSH1 0x40 MLOAD PUSH3 0x461BCD PUSH1 0xE5 SHL DUP2 MSTORE PUSH1 0x4 ADD PUSH2 0x9A8 SWAP1 PUSH2 0x531A JUMP JUMPDEST POP JUMP JUMPDEST PUSH2 0xD62 PUSH2 0x4D8F JUMP JUMPDEST PUSH2 0x4DC DUP3 PUSH1 0x1 PUSH2 0x1AE1 JUMP JUMPDEST PUSH1 0x0 PUSH4 0x5F5E100 DUP4 PUSH1 0x40 ADD MLOAD EQ ISZERO PUSH2 0xD86 JUMPI POP DUP1 PUSH2 0x4DC JUMP JUMPDEST PUSH1 0x40 DUP4 ADD MLOAD PUSH2 0x5A5 SWAP1 PUSH2 0x511 DUP5 PUSH4 0x5F5E100 PUSH2 0xEE8 JUMP JUMPDEST PUSH2 0xDA7 DUP3 DUP3 PUSH2 0x1B7B JUMP JUMPDEST PUSH2 0xDB0 DUP2 PUSH2 0xF88 JUMP JUMPDEST SWAP1 SWAP2 MSTORE POP JUMP JUMPDEST DUP2 MLOAD PUSH1 0x0 SWAP1 DUP2 SWAP1 PUSH2 0xB91 SWAP1 PUSH2 0x511 DUP6 PUSH15 0xC097CE7BC90715B34B9F1000000000 PUSH2 0xEE8 JUMP JUMPDEST PUSH1 0x0 DUP1 DUP4 SLT ISZERO PUSH2 0xDE9 JUMPI PUSH1 0x0 DUP1 REVERT JUMPDEST DUP3 PUSH2 0xDF6 JUMPI POP PUSH1 0x0 PUSH2 0x5A5 JUMP JUMPDEST PUSH1 0x80 DUP5 ADD MLOAD ISZERO PUSH2 0xE2E JUMPI PUSH1 0x0 PUSH2 0xE0B DUP6 PUSH2 0x1C17 JUMP JUMPDEST SWAP1 POP DUP3 DUP2 GT PUSH2 0xE2C JUMPI PUSH1 0x40 MLOAD PUSH3 0x461BCD PUSH1 0xE5 SHL DUP2 MSTORE PUSH1 0x4 ADD PUSH2 0x9A8 SWAP1 PUSH2 0x521A JUMP JUMPDEST POP JUMPDEST PUSH1 0x40 DUP5 ADD MLOAD PUSH2 0xE3E JUMPI POP DUP2 PUSH2 0x5A5 JUMP JUMPDEST PUSH1 0x0 DUP1 PUSH2 0xE4B DUP7 DUP6 PUSH2 0x1C48 JUMP JUMPDEST SWAP2 POP SWAP2 POP PUSH1 0x0 DUP3 SLT ISZERO PUSH2 0xE5D JUMPI PUSH1 0x0 DUP1 REVERT JUMPDEST PUSH1 0x0 DUP2 SLT ISZERO PUSH2 0xE6B JUMPI PUSH1 0x0 DUP1 REVERT JUMPDEST PUSH1 0xA0 DUP7 ADD MLOAD PUSH1 0x5 BYTE PUSH3 0x7A120 MUL PUSH1 0x0 PUSH2 0xE91 DUP5 PUSH2 0xE8B PUSH2 0xBFD DUP3 DUP8 PUSH2 0x1CB1 JUMP JUMPDEST SWAP1 PUSH2 0x1CC7 JUMP JUMPDEST SWAP1 POP DUP2 DUP2 SGT ISZERO PUSH2 0xEB3 JUMPI PUSH1 0x40 MLOAD PUSH3 0x461BCD PUSH1 0xE5 SHL DUP2 MSTORE PUSH1 0x4 ADD PUSH2 0x9A8 SWAP1 PUSH2 0x5372 JUMP JUMPDEST PUSH1 0x0 PUSH2 0xEBF DUP6 DUP6 PUSH2 0x1CE0 JUMP JUMPDEST SWAP1 POP PUSH2 0xEDC DUP2 PUSH2 0x511 DUP12 PUSH1 0x40 ADD MLOAD DUP12 PUSH2 0xEE8 SWAP1 SWAP2 SWAP1 PUSH4 0xFFFFFFFF AND JUMP JUMPDEST SWAP6 POP POP POP POP POP POP PUSH2 0x5A5 JUMP JUMPDEST DUP2 DUP2 MUL PUSH1 0x0 NOT DUP4 EQ ISZERO PUSH2 0xF18 JUMPI DUP2 ISZERO DUP1 PUSH2 0xF0A JUMPI POP DUP3 DUP3 DUP3 DUP2 PUSH2 0xF07 JUMPI INVALID JUMPDEST SDIV EQ JUMPDEST PUSH2 0xF13 JUMPI PUSH1 0x0 DUP1 REVERT JUMPDEST PUSH2 0x4DC JUMP JUMPDEST DUP3 ISZERO DUP1 PUSH2 0xF2D JUMPI POP DUP2 DUP4 DUP3 DUP2 PUSH2 0xF2A JUMPI INVALID JUMPDEST SDIV EQ JUMPDEST PUSH2 0x4DC JUMPI PUSH1 0x0 DUP1 REVERT JUMPDEST PUSH1 0x0 DUP2 PUSH1 0x0 NOT EQ DUP1 ISZERO PUSH2 0xF4C JUMPI POP PUSH1 0x1 PUSH1 0xFF SHL DUP4 EQ JUMPDEST ISZERO PUSH2 0xF56 JUMPI PUSH1 0x0 DUP1 REVERT JUMPDEST DUP2 DUP4 DUP2 PUSH2 0xF5F JUMPI INVALID JUMPDEST SDIV SWAP4 SWAP3 POP POP POP JUMP JUMPDEST PUSH1 0x0 DUP1 DUP3 SLT ISZERO PUSH2 0xF81 JUMPI PUSH2 0xF7A DUP3 PUSH2 0xBC7 JUMP JUMPDEST SWAP1 POP PUSH2 0x35D JUMP JUMPDEST POP DUP1 PUSH2 0x35D JUMP JUMPDEST PUSH2 0xF90 PUSH2 0x4DBE JUMP JUMPDEST PUSH1 0x0 PUSH2 0xF9C DUP4 TIMESTAMP PUSH2 0xA4F JUMP JUMPDEST POP SWAP1 POP PUSH2 0x5A5 DUP4 DUP3 PUSH2 0x1CEF JUMP JUMPDEST PUSH1 0x0 PUSH2 0xFB3 PUSH2 0x4D47 JUMP JUMPDEST PUSH2 0xFC1 DUP4 DUP3 DUP8 PUSH1 0x0 DUP9 PUSH2 0x1599 JUMP JUMPDEST DUP4 DUP2 PUSH1 0x20 ADD MLOAD GT PUSH2 0xFE4 JUMPI PUSH1 0x40 MLOAD PUSH3 0x461BCD PUSH1 0xE5 SHL DUP2 MSTORE PUSH1 0x4 ADD PUSH2 0x9A8 SWAP1 PUSH2 0x52EE JUMP JUMPDEST PUSH1 0x0 DUP5 DUP3 PUSH1 0x20 ADD MLOAD SUB SWAP1 POP PUSH1 0x0 PUSH2 0xFFF DUP6 PUSH1 0x0 ADD MLOAD DUP9 PUSH2 0x1D32 JUMP JUMPDEST SWAP1 POP PUSH2 0x102F DUP2 DUP5 PUSH1 0x40 ADD MLOAD DUP11 PUSH1 0xA SIGNEXTEND PUSH2 0x1029 DUP8 PUSH1 0x60 ADD MLOAD DUP11 PUSH1 0x40 ADD MLOAD PUSH2 0xB64 SWAP1 SWAP2 SWAP1 PUSH4 0xFFFFFFFF AND JUMP JUMPDEST DUP7 PUSH2 0x1D4C JUMP JUMPDEST SWAP9 SWAP8 POP POP POP POP POP POP POP POP JUMP JUMPDEST PUSH2 0x1043 PUSH2 0x4DEA JUMP JUMPDEST PUSH1 0x0 PUSH2 0x104D PUSH2 0x1E88 JUMP JUMPDEST PUSH1 0x1 PUSH1 0x1 PUSH1 0xA0 SHL SUB DUP5 AND PUSH1 0x0 SWAP1 DUP2 MSTORE PUSH1 0x20 SWAP2 DUP3 MSTORE PUSH1 0x40 SWAP1 DUP2 SWAP1 KECCAK256 DUP2 MLOAD PUSH1 0xC0 DUP2 ADD DUP4 MSTORE SWAP1 SLOAD PUSH5 0xFFFFFFFFFF DUP2 AND DUP3 MSTORE PUSH1 0x1 PUSH1 0x1 PUSH1 0xF8 SHL SUB NOT PUSH1 0x1 PUSH1 0x28 SHL DUP3 DIV PUSH1 0xF8 SHL AND SWAP4 DUP3 ADD SWAP4 SWAP1 SWAP4 MSTORE PUSH1 0xFF PUSH1 0x1 PUSH1 0x30 SHL DUP5 DIV DUP2 AND SWAP3 DUP3 ADD SWAP3 SWAP1 SWAP3 MSTORE PUSH2 0xFFFF PUSH1 0x1 PUSH1 0x38 SHL DUP5 DIV AND PUSH1 0x60 DUP3 ADD MSTORE PUSH1 0x1 PUSH1 0x1 PUSH1 0x70 SHL SUB NOT PUSH10 0x1000000000000000000 DUP5 DIV PUSH1 0x70 SHL AND PUSH1 0x80 DUP3 ADD MSTORE PUSH1 0x1 PUSH1 0xD8 SHL SWAP1 SWAP3 DIV AND ISZERO ISZERO PUSH1 0xA0 DUP3 ADD MSTORE SWAP2 POP POP SWAP2 SWAP1 POP JUMP JUMPDEST PUSH1 0x60 ADD MLOAD PUSH2 0xFFFF AND ISZERO ISZERO SWAP1 JUMP JUMPDEST PUSH2 0x1106 DUP3 TIMESTAMP PUSH2 0xA4F JUMP JUMPDEST POP PUSH2 0x120 DUP6 ADD MSTORE PUSH2 0x1119 DUP5 DUP5 DUP5 DUP5 PUSH2 0x1E95 JUMP JUMPDEST POP POP POP POP JUMP JUMPDEST PUSH1 0x0 DUP1 PUSH2 0x112A PUSH2 0x1F3D JUMP JUMPDEST PUSH1 0x0 SWAP4 DUP5 MSTORE PUSH1 0x20 MSTORE POP POP PUSH1 0x40 SWAP1 KECCAK256 SLOAD PUSH1 0x1 PUSH1 0x1 PUSH1 0xA0 SHL SUB AND SWAP1 JUMP JUMPDEST PUSH1 0x0 DUP1 PUSH1 0x0 PUSH2 0x1153 DUP6 PUSH2 0x1F4A JUMP JUMPDEST SWAP2 SWAP5 POP SWAP3 POP SWAP1 POP DUP1 DUP5 GT DUP1 ISZERO PUSH2 0x1169 JUMPI POP PUSH1 0x0 DUP2 GT JUMPDEST DUP1 ISZERO PUSH2 0x1175 JUMPI POP PUSH1 0x0 DUP4 GT JUMPDEST ISZERO PUSH2 0x11D4 JUMPI PUSH1 0x0 PUSH2 0x1185 DUP7 PUSH2 0x1FAB JUMP JUMPDEST POP POP POP SWAP2 POP POP PUSH1 0x0 PUSH2 0x11B0 PUSH2 0x11A7 PUSH4 0x5F5E100 DUP5 PUSH2 0x1873 SWAP1 SWAP2 SWAP1 PUSH4 0xFFFFFFFF AND JUMP JUMPDEST DUP5 DUP9 SUB DUP8 PUSH2 0x2014 JUMP JUMPDEST SWAP1 POP PUSH2 0x11BC DUP5 DUP3 PUSH2 0x125A JUMP JUMPDEST SWAP4 POP PUSH1 0x1 PUSH1 0x1 PUSH1 0x80 SHL SUB DUP5 LT PUSH2 0x11D1 JUMPI PUSH1 0x0 DUP1 REVERT JUMPDEST POP POP JUMPDEST SWAP3 POP SWAP3 POP SWAP3 JUMP JUMPDEST PUSH1 0x0 DUP5 PUSH1 0xE0 ADD MLOAD PUSH1 0x0 EQ PUSH2 0x11EE JUMPI PUSH1 0x0 DUP1 REVERT JUMPDEST PUSH2 0x1230 PUSH2 0x1229 DUP7 PUSH2 0x100 ADD MLOAD PUSH2 0x1223 PUSH8 0xDE0B6B3A7640000 PUSH2 0x121D DUP9 PUSH2 0x1217 DUP13 PUSH1 0x40 ADD MLOAD PUSH2 0xC21 JUMP JUMPDEST SWAP1 PUSH2 0x1873 JUMP JUMPDEST SWAP1 PUSH2 0x2036 JUMP JUMPDEST SWAP1 PUSH2 0x2055 JUMP JUMPDEST DUP3 SWAP1 PUSH2 0x125A JUMP JUMPDEST SWAP1 POP PUSH2 0x1248 PUSH8 0xDE0B6B3A7640000 PUSH2 0x121D DUP5 DUP7 PUSH2 0x1873 JUMP JUMPDEST DUP6 PUSH2 0x100 ADD DUP2 DUP2 MSTORE POP POP SWAP5 SWAP4 POP POP POP POP JUMP JUMPDEST PUSH1 0x0 DUP3 DUP3 ADD DUP4 DUP2 LT ISZERO PUSH2 0x5A5 JUMPI PUSH1 0x0 DUP1 REVERT JUMPDEST PUSH1 0x0 PUSH2 0x1276 PUSH2 0x4DBE JUMP JUMPDEST PUSH1 0x0 PUSH2 0x1281 DUP6 PUSH2 0xBAD JUMP JUMPDEST SWAP1 POP PUSH2 0x128C DUP7 PUSH2 0xF88 JUMP JUMPDEST SWAP2 POP DUP4 ISZERO PUSH2 0x12B7 JUMPI PUSH1 0x0 PUSH2 0x12A3 DUP8 PUSH2 0xFFFF AND PUSH2 0xD5A JUMP JUMPDEST SWAP1 POP PUSH2 0x12AF DUP2 DUP4 PUSH2 0xD6D JUMP JUMPDEST SWAP4 POP POP PUSH2 0x12C9 JUMP JUMPDEST PUSH1 0x40 DUP3 ADD MLOAD PUSH2 0x12C6 SWAP1 DUP3 PUSH2 0xB64 JUMP JUMPDEST SWAP3 POP JUMPDEST POP SWAP4 POP SWAP4 SWAP2 POP POP JUMP JUMPDEST PUSH1 0x0 PUSH11 0x7FFFFFFFFFFFFFFFFFFFFF NOT DUP3 SLT DUP1 ISZERO SWAP1 PUSH2 0x12FB JUMPI POP PUSH11 0x7FFFFFFFFFFFFFFFFFFFFF DUP3 SGT ISZERO JUMPDEST PUSH2 0xBC3 JUMPI PUSH1 0x0 DUP1 REVERT JUMPDEST PUSH2 0x130C PUSH2 0x4CDA JUMP JUMPDEST PUSH2 0x4DC DUP3 TIMESTAMP PUSH2 0x206A JUMP JUMPDEST PUSH2 0x131E PUSH2 0x4CFB JUMP JUMPDEST PUSH1 0x0 PUSH2 0x1328 PUSH2 0x212B JUMP JUMPDEST PUSH2 0xFFFF SWAP4 DUP5 AND PUSH1 0x0 SWAP1 DUP2 MSTORE PUSH1 0x20 SWAP2 DUP3 MSTORE PUSH1 0x40 SWAP1 DUP2 SWAP1 KECCAK256 DUP1 SLOAD PUSH5 0xFFFFFFFFFF DUP2 AND DUP7 MSTORE PUSH1 0x1 PUSH1 0x28 SHL DUP2 DIV PUSH1 0x1 PUSH1 0x1 PUSH1 0x58 SHL SUB SWAP1 DUP2 AND SWAP5 DUP8 ADD SWAP5 SWAP1 SWAP5 MSTORE PUSH1 0x1 DUP3 ADD SLOAD DUP5 AND SWAP3 DUP7 ADD SWAP3 SWAP1 SWAP3 MSTORE PUSH1 0x1 PUSH1 0xD8 SHL DUP3 DIV PUSH4 0xFFFFFFFF AND PUSH1 0x60 DUP7 ADD MSTORE PUSH1 0x1 PUSH1 0x80 SHL SWAP1 SWAP2 DIV SWAP1 SWAP2 AND PUSH1 0x80 DUP5 ADD MSTORE PUSH1 0x2 ADD SLOAD PUSH1 0x1 PUSH1 0x1 PUSH1 0x50 SHL SUB DUP1 DUP3 AND PUSH1 0xA0 DUP6 ADD MSTORE PUSH1 0x1 PUSH1 0x50 SHL DUP3 DIV DUP2 AND PUSH1 0xC0 DUP6 ADD MSTORE PUSH1 0x1 PUSH1 0xA0 SHL DUP3 DIV AND PUSH1 0xE0 DUP5 ADD MSTORE PUSH1 0x1 PUSH1 0xF0 SHL SWAP1 DIV PUSH1 0xFF AND PUSH2 0x12C MUL SWAP1 SWAP3 AND PUSH2 0x100 DUP3 ADD MSTORE SWAP2 SWAP1 POP JUMP JUMPDEST PUSH1 0x0 DUP4 PUSH2 0x13ED JUMPI POP PUSH1 0x0 PUSH2 0x344 JUMP JUMPDEST PUSH1 0x0 DUP1 DUP6 SGT PUSH2 0x1406 JUMPI PUSH2 0x1401 DUP7 DUP6 DUP6 PUSH2 0x2138 JUMP JUMPDEST PUSH2 0x1411 JUMP JUMPDEST PUSH2 0x1411 DUP7 DUP6 DUP6 PUSH2 0x2174 JUMP JUMPDEST SWAP1 POP PUSH4 0x3B9ACA00 DUP2 SGT ISZERO PUSH2 0x1424 JUMPI PUSH1 0x0 DUP1 REVERT JUMPDEST PUSH1 0x0 PUSH2 0x1430 DUP7 DUP4 PUSH2 0x21B5 JUMP JUMPDEST SWAP1 POP PUSH1 0x0 DUP7 SLT PUSH2 0x1440 JUMPI DUP1 PUSH2 0x8A3 JUMP JUMPDEST PUSH2 0x8A3 DUP2 PUSH1 0x0 NOT PUSH2 0x1992 JUMP JUMPDEST PUSH1 0x0 DUP1 PUSH1 0x0 PUSH2 0x1460 DUP7 PUSH1 0x20 ADD MLOAD DUP7 DUP7 PUSH2 0xC8E JUMP JUMPDEST SWAP2 POP SWAP2 POP PUSH1 0x0 PUSH2 0x146F DUP8 PUSH2 0x21CE JUMP JUMPDEST SWAP1 POP DUP2 PUSH2 0x148F JUMPI DUP7 MLOAD PUSH2 0x1488 SWAP1 PUSH2 0xFFFF AND DUP8 DUP4 DUP9 PUSH2 0x21E2 JUMP JUMPDEST SWAP4 POP PUSH2 0x152B JUMP JUMPDEST PUSH1 0x0 PUSH2 0x149A DUP7 PUSH2 0x1A1C JUMP JUMPDEST SWAP1 POP PUSH1 0x0 PUSH2 0x14B1 PUSH2 0x14AA DUP7 PUSH2 0x1A3D JUMP JUMPDEST DUP4 SWAP1 PUSH2 0x125A JUMP JUMPDEST SWAP1 POP PUSH1 0x0 PUSH2 0x14C9 DUP11 PUSH1 0x0 ADD MLOAD PUSH2 0xFFFF AND DUP4 DUP7 DUP12 PUSH2 0x21E2 JUMP JUMPDEST SWAP1 POP PUSH1 0x0 DUP1 DUP8 PUSH1 0x1 EQ ISZERO PUSH2 0x14E7 JUMPI POP POP PUSH1 0x40 DUP1 DUP12 ADD MLOAD ADD MLOAD DUP9 PUSH2 0x1516 JUMP JUMPDEST PUSH2 0x14FD PUSH2 0x14F6 PUSH1 0x1 DUP11 SUB PUSH2 0x1A3D JUMP JUMPDEST DUP7 SWAP1 PUSH2 0x125A JUMP JUMPDEST SWAP1 POP PUSH2 0x1513 DUP13 PUSH1 0x0 ADD MLOAD PUSH2 0xFFFF AND DUP3 DUP9 DUP14 PUSH2 0x21E2 JUMP JUMPDEST SWAP2 POP JUMPDEST PUSH2 0x1523 DUP2 DUP6 DUP5 DUP7 DUP16 PUSH2 0x2281 JUMP JUMPDEST SWAP9 POP POP POP POP POP POP JUMPDEST POP POP POP SWAP4 SWAP3 POP POP POP JUMP JUMPDEST PUSH1 0x0 DUP5 PUSH2 0x1544 JUMPI POP PUSH1 0x0 PUSH2 0x344 JUMP JUMPDEST PUSH1 0x0 PUSH2 0x1550 DUP6 DUP6 PUSH2 0x2055 JUMP JUMPDEST SWAP1 POP PUSH1 0x0 PUSH2 0x155E DUP3 DUP6 PUSH2 0x22DF JUMP JUMPDEST SWAP1 POP PUSH4 0x3B9ACA00 DUP2 SGT ISZERO PUSH2 0x1571 JUMPI PUSH1 0x0 DUP1 REVERT JUMPDEST PUSH1 0x0 PUSH2 0x157D DUP9 DUP4 PUSH2 0x21B5 JUMP JUMPDEST SWAP1 POP PUSH1 0x0 DUP9 SLT PUSH2 0x158D JUMPI DUP1 PUSH2 0x102F JUMP JUMPDEST PUSH2 0x102F DUP2 PUSH1 0x0 NOT PUSH2 0x1992 JUMP JUMPDEST DUP3 PUSH1 0x1 GT ISZERO DUP1 ISZERO PUSH2 0x15AE JUMPI POP DUP5 PUSH1 0x20 ADD MLOAD DUP4 GT ISZERO JUMPDEST PUSH2 0x15CA JUMPI PUSH1 0x40 MLOAD PUSH3 0x461BCD PUSH1 0xE5 SHL DUP2 MSTORE PUSH1 0x4 ADD PUSH2 0x9A8 SWAP1 PUSH2 0x5296 JUMP JUMPDEST PUSH1 0x0 PUSH2 0x15E7 PUSH2 0x15D8 DUP6 PUSH2 0x1A3D JUMP JUMPDEST PUSH2 0x15E1 DUP5 PUSH2 0x1A1C JUMP JUMPDEST SWAP1 PUSH2 0x125A JUMP JUMPDEST SWAP1 POP PUSH2 0x160C DUP7 PUSH1 0x0 ADD MLOAD PUSH2 0xFFFF AND DUP3 DUP5 DUP7 PUSH2 0x1601 DUP12 PUSH2 0x21CE JUMP JUMPDEST DUP11 SWAP5 SWAP4 SWAP3 SWAP2 SWAP1 PUSH2 0x234C JUMP JUMPDEST POP POP POP POP POP POP JUMP JUMPDEST PUSH1 0x0 DUP1 PUSH1 0x0 DUP1 DUP5 GT PUSH2 0x1625 JUMPI PUSH1 0x0 DUP1 REVERT JUMPDEST DUP6 DUP9 PUSH1 0x40 ADD MLOAD SGT PUSH2 0x163E JUMPI POP PUSH1 0x0 SWAP2 POP DUP2 SWAP1 POP DUP1 PUSH2 0x1749 JUMP JUMPDEST PUSH1 0x0 PUSH2 0x164E DUP9 PUSH1 0x0 ADD MLOAD DUP7 PUSH2 0x1D32 JUMP JUMPDEST SWAP1 POP PUSH1 0x0 PUSH2 0x166D DUP11 PUSH1 0x60 ADD MLOAD DUP11 PUSH1 0x40 ADD MLOAD PUSH2 0xB64 SWAP1 SWAP2 SWAP1 PUSH4 0xFFFFFFFF AND JUMP JUMPDEST SWAP1 POP PUSH1 0x0 DUP1 PUSH1 0x0 PUSH2 0x1682 DUP6 DUP15 DUP15 DUP8 DUP16 DUP16 PUSH2 0x2376 JUMP JUMPDEST SWAP9 POP SWAP2 SWAP5 POP SWAP3 POP SWAP1 POP DUP3 PUSH2 0x16A5 JUMPI PUSH1 0x0 DUP1 PUSH1 0x0 SWAP8 POP SWAP8 POP SWAP8 POP POP POP POP POP POP PUSH2 0x1749 JUMP JUMPDEST PUSH1 0x40 DUP14 ADD MLOAD PUSH2 0x16B4 SWAP1 DUP13 PUSH2 0x2450 JUMP JUMPDEST PUSH1 0x40 DUP15 ADD MSTORE PUSH2 0x16C3 DUP5 DUP4 PUSH2 0x246C JUMP JUMPDEST SWAP4 POP PUSH1 0x0 PUSH2 0x16D7 PUSH1 0x0 DUP16 PUSH1 0x40 ADD MLOAD DUP8 PUSH2 0x2482 JUMP JUMPDEST SWAP1 POP PUSH4 0x3B9ACA00 DUP2 GT ISZERO PUSH2 0x16FB JUMPI PUSH1 0x0 DUP1 PUSH1 0x0 SWAP9 POP SWAP9 POP SWAP9 POP POP POP POP POP POP POP PUSH2 0x1749 JUMP JUMPDEST PUSH1 0x0 PUSH2 0x1707 DUP8 DUP4 PUSH2 0x24B9 JUMP JUMPDEST SWAP1 POP DUP1 PUSH2 0x1725 JUMPI PUSH1 0x0 DUP1 PUSH1 0x0 SWAP10 POP SWAP10 POP SWAP10 POP POP POP POP POP POP POP POP PUSH2 0x1749 JUMP JUMPDEST PUSH1 0xA0 DUP16 ADD MSTORE POP PUSH1 0x40 DUP13 ADD MLOAD PUSH2 0x173E SWAP1 DUP15 SWAP1 DUP6 DUP6 DUP6 PUSH2 0x256C JUMP JUMPDEST SWAP1 SWAP9 POP SWAP7 POP POP POP POP POP POP JUMPDEST SWAP6 POP SWAP6 POP SWAP6 SWAP3 POP POP POP JUMP JUMPDEST PUSH1 0x0 DUP1 PUSH2 0x1760 DUP4 PUSH2 0x25C1 JUMP JUMPDEST PUSH1 0x1 PUSH1 0x1 PUSH1 0xA0 SHL SUB AND PUSH4 0xA77C05B8 PUSH1 0x40 MLOAD DUP2 PUSH4 0xFFFFFFFF AND PUSH1 0xE0 SHL DUP2 MSTORE PUSH1 0x4 ADD PUSH1 0x40 DUP1 MLOAD DUP1 DUP4 SUB DUP2 DUP7 DUP1 EXTCODESIZE ISZERO DUP1 ISZERO PUSH2 0x1797 JUMPI PUSH1 0x0 DUP1 REVERT JUMPDEST POP GAS STATICCALL ISZERO DUP1 ISZERO PUSH2 0x17AB JUMPI RETURNDATASIZE PUSH1 0x0 DUP1 RETURNDATACOPY RETURNDATASIZE PUSH1 0x0 REVERT JUMPDEST POP POP POP POP PUSH1 0x40 MLOAD RETURNDATASIZE PUSH1 0x1F NOT PUSH1 0x1F DUP3 ADD AND DUP3 ADD DUP1 PUSH1 0x40 MSTORE POP DUP2 ADD SWAP1 PUSH2 0x344 SWAP2 SWAP1 PUSH2 0x5183 JUMP JUMPDEST PUSH2 0x17D7 PUSH2 0x4CFB JUMP JUMPDEST PUSH1 0x0 DUP1 PUSH1 0x0 PUSH2 0x17E7 DUP9 DUP7 DUP10 PUSH2 0x25F1 JUMP JUMPDEST PUSH1 0xC0 DUP12 ADD SWAP3 SWAP1 SWAP3 MSTORE PUSH1 0xE0 DUP11 ADD SWAP3 SWAP1 SWAP3 MSTORE PUSH1 0x20 DUP10 ADD MLOAD SWAP2 SWAP4 POP SWAP2 POP PUSH2 0x180B SWAP1 DUP4 PUSH2 0x125A JUMP JUMPDEST PUSH1 0x20 DUP9 ADD MSTORE PUSH1 0x80 DUP8 ADD MLOAD PUSH1 0x0 SWAP1 ISZERO PUSH2 0x1839 JUMPI PUSH1 0x80 DUP9 ADD MLOAD PUSH2 0x1836 SWAP1 PUSH2 0x1830 DUP10 DUP3 PUSH2 0x2055 JUMP JUMPDEST SWAP1 PUSH2 0x26FC JUMP JUMPDEST SWAP1 POP JUMPDEST PUSH2 0x1859 PUSH2 0x184E PUSH8 0xDE0B6B3A7640000 DUP4 PUSH2 0x125A JUMP JUMPDEST PUSH1 0xA0 DUP11 ADD MLOAD SWAP1 PUSH2 0x2719 JUMP JUMPDEST PUSH1 0xA0 DUP10 ADD MSTORE POP POP PUSH1 0x80 DUP7 ADD SWAP5 SWAP1 SWAP5 MSTORE POP POP DUP3 MSTORE SWAP1 SWAP3 SWAP1 SWAP2 POP JUMP JUMPDEST PUSH1 0x0 DUP3 PUSH2 0x1882 JUMPI POP PUSH1 0x0 PUSH2 0x4DC JUMP JUMPDEST DUP3 DUP3 MUL DUP3 DUP5 DUP3 DUP2 PUSH2 0x188F JUMPI INVALID JUMPDEST DIV EQ PUSH2 0x5A5 JUMPI PUSH1 0x0 DUP1 REVERT JUMPDEST PUSH2 0x18A2 PUSH2 0x4CDA JUMP JUMPDEST PUSH1 0x0 PUSH2 0x18AE DUP6 DUP6 PUSH2 0x2736 JUMP JUMPDEST SWAP1 SWAP3 POP SWAP1 POP DUP1 PUSH2 0x18C6 JUMPI PUSH2 0x18C2 DUP6 DUP5 PUSH2 0xA4F JUMP JUMPDEST POP SWAP2 POP JUMPDEST POP SWAP4 SWAP3 POP POP POP JUMP JUMPDEST PUSH1 0x0 DUP1 PUSH2 0x18DB DUP5 DUP5 PUSH2 0xDB6 JUMP JUMPDEST SWAP2 POP PUSH2 0x18E7 DUP5 DUP4 PUSH2 0x27C9 JUMP JUMPDEST SWAP1 POP PUSH1 0x0 DUP3 SLT ISZERO PUSH2 0xD15 JUMPI PUSH2 0x1932 PUSH1 0x1 PUSH2 0x192C DUP8 PUSH1 0x0 ADD MLOAD PUSH2 0x511 DUP10 PUSH1 0x20 ADD MLOAD PUSH2 0x1926 DUP11 PUSH1 0x20 ADD MLOAD PUSH2 0x511 DUP13 PUSH1 0x0 ADD MLOAD DUP12 PUSH2 0xEE8 SWAP1 SWAP2 SWAP1 PUSH4 0xFFFFFFFF AND JUMP JUMPDEST SWAP1 PUSH2 0xEE8 JUMP JUMPDEST SWAP1 PUSH2 0x1CB1 JUMP JUMPDEST SWAP2 POP SWAP4 POP SWAP4 SWAP2 POP POP JUMP JUMPDEST PUSH1 0x0 DUP1 PUSH2 0x1948 DUP5 PUSH2 0x1C17 JUMP JUMPDEST SWAP1 POP DUP3 DUP2 GT PUSH2 0x1958 JUMPI PUSH1 0x1 DUP2 SUB SWAP3 POP JUMPDEST POP PUSH1 0x0 PUSH2 0x1967 DUP5 DUP5 PUSH1 0x1 PUSH2 0x2802 JUMP JUMPDEST POP SWAP1 POP PUSH1 0x0 PUSH2 0x1976 DUP6 DUP6 PUSH2 0x2965 JUMP JUMPDEST PUSH1 0x60 DUP7 ADD MLOAD SWAP1 SWAP2 POP PUSH2 0x45D SWAP1 PUSH2 0x198C DUP5 DUP5 PUSH2 0x246C JUMP JUMPDEST SWAP1 PUSH2 0x246C JUMP JUMPDEST PUSH1 0x0 DUP2 DUP4 SLT PUSH2 0x19A1 JUMPI DUP2 PUSH2 0x5A5 JUMP JUMPDEST POP SWAP1 SWAP2 SWAP1 POP JUMP JUMPDEST PUSH1 0x0 PUSH4 0x5F5E100 DUP4 PUSH1 0x40 ADD MLOAD EQ ISZERO PUSH2 0x19C1 JUMPI POP DUP1 PUSH2 0x4DC JUMP JUMPDEST PUSH2 0x5A5 PUSH4 0x5F5E100 PUSH2 0x511 DUP6 PUSH1 0x40 ADD MLOAD DUP6 PUSH2 0xEE8 SWAP1 SWAP2 SWAP1 PUSH4 0xFFFFFFFF AND JUMP JUMPDEST PUSH1 0x0 PUSH4 0x5F5E100 DUP4 PUSH1 0x40 ADD MLOAD SLT ISZERO PUSH2 0x1A08 JUMPI PUSH2 0x1A01 PUSH1 0x1 PUSH2 0x198C DUP6 DUP6 PUSH2 0x19A8 JUMP JUMPDEST SWAP1 POP PUSH2 0x4DC JUMP JUMPDEST PUSH2 0x5A5 DUP4 PUSH2 0x1A17 DUP5 PUSH1 0x1 PUSH2 0x246C JUMP JUMPDEST PUSH2 0x19A8 JUMP JUMPDEST PUSH1 0x0 PUSH3 0x76A700 DUP3 LT ISZERO PUSH2 0x1A2E JUMPI PUSH1 0x0 DUP1 REVERT JUMPDEST PUSH3 0x76A700 DUP3 JUMPDEST MOD SWAP1 SWAP2 SUB SWAP2 SWAP1 POP JUMP JUMPDEST PUSH1 0x0 DUP2 PUSH1 0x1 EQ ISZERO PUSH2 0x1A52 JUMPI POP PUSH3 0x76A700 PUSH2 0x35D JUMP JUMPDEST DUP2 PUSH1 0x2 EQ ISZERO PUSH2 0x1A65 JUMPI POP PUSH3 0xED4E00 PUSH2 0x35D JUMP JUMPDEST DUP2 PUSH1 0x3 EQ ISZERO PUSH2 0x1A79 JUMPI POP PUSH4 0x1DA9C00 PUSH2 0x35D JUMP JUMPDEST DUP2 PUSH1 0x4 EQ ISZERO PUSH2 0x1A8D JUMPI POP PUSH4 0x3B53800 PUSH2 0x35D JUMP JUMPDEST DUP2 PUSH1 0x5 EQ ISZERO PUSH2 0x1AA1 JUMPI POP PUSH4 0x9450C00 PUSH2 0x35D JUMP JUMPDEST DUP2 PUSH1 0x6 EQ ISZERO PUSH2 0x1AB5 JUMPI POP PUSH4 0x128A1800 PUSH2 0x35D JUMP JUMPDEST DUP2 PUSH1 0x7 EQ ISZERO PUSH2 0x1AC9 JUMPI POP PUSH4 0x25143000 PUSH2 0x35D JUMP JUMPDEST PUSH1 0x40 MLOAD PUSH3 0x461BCD PUSH1 0xE5 SHL DUP2 MSTORE PUSH1 0x4 ADD PUSH2 0x9A8 SWAP1 PUSH2 0x526F JUMP JUMPDEST PUSH2 0x1AE9 PUSH2 0x4D8F JUMP JUMPDEST PUSH1 0x0 PUSH2 0x1AF3 PUSH2 0x29EA JUMP JUMPDEST PUSH1 0x0 DUP6 DUP2 MSTORE PUSH1 0x20 DUP3 DUP2 MSTORE PUSH1 0x40 DUP1 DUP4 KECCAK256 DUP8 ISZERO ISZERO DUP5 MSTORE DUP3 MSTORE SWAP2 DUP3 SWAP1 KECCAK256 DUP3 MLOAD PUSH1 0xA0 DUP2 ADD DUP5 MSTORE DUP2 SLOAD PUSH1 0x1 PUSH1 0x1 PUSH1 0xA0 SHL SUB DUP2 AND DUP3 MSTORE PUSH1 0xFF PUSH1 0x1 PUSH1 0xA0 SHL DUP3 DIV DUP2 AND ISZERO ISZERO SWAP5 DUP4 ADD SWAP5 SWAP1 SWAP5 MSTORE PUSH1 0x1 PUSH1 0xB0 SHL DUP2 DIV DUP5 AND PUSH1 0xA EXP SWAP5 DUP3 ADD SWAP5 SWAP1 SWAP5 MSTORE SWAP4 SWAP5 POP SWAP3 SWAP2 PUSH1 0x60 DUP4 ADD SWAP2 PUSH1 0x1 PUSH1 0xA8 SHL SWAP1 SWAP2 DIV AND PUSH1 0x5 DUP2 GT ISZERO PUSH2 0x1B68 JUMPI INVALID JUMPDEST DUP2 MSTORE PUSH1 0x0 PUSH1 0x20 SWAP1 SWAP2 ADD MSTORE SWAP6 SWAP5 POP POP POP POP POP JUMP JUMPDEST PUSH2 0x1B88 DUP2 PUSH2 0xFFFF AND PUSH2 0x111F JUMP JUMPDEST PUSH1 0x1 PUSH1 0x1 PUSH1 0xA0 SHL SUB AND PUSH1 0xC0 DUP4 ADD DUP2 SWAP1 MSTORE PUSH1 0x0 SWAP1 DUP2 SWAP1 DUP2 SWAP1 PUSH2 0x1BA8 SWAP1 PUSH2 0x1FAB JUMP JUMPDEST SWAP5 POP SWAP5 POP SWAP5 POP POP POP PUSH1 0x0 PUSH2 0x1BBF DUP7 PUSH1 0xC0 ADD MLOAD PUSH2 0x1F4A JUMP JUMPDEST POP POP PUSH1 0x80 DUP8 ADD DUP6 SWAP1 MSTORE PUSH1 0x40 DUP8 ADD DUP2 SWAP1 MSTORE PUSH1 0x1 PUSH1 0x1 PUSH1 0xD0 SHL SUB NOT DUP4 AND PUSH1 0xA0 DUP9 ADD MSTORE PUSH1 0xC0 DUP8 ADD MLOAD SWAP1 SWAP2 POP PUSH2 0x1BF3 SWAP1 DUP5 PUSH1 0x0 PUSH2 0x29F7 JUMP JUMPDEST PUSH1 0x20 DUP8 ADD MSTORE PUSH1 0xC0 DUP7 ADD MLOAD PUSH2 0x1C07 SWAP1 DUP7 PUSH2 0x2A8A JUMP JUMPDEST PUSH1 0x60 SWAP1 SWAP7 ADD SWAP6 SWAP1 SWAP6 MSTORE POP POP POP POP POP JUMP JUMPDEST PUSH1 0x0 DUP2 PUSH1 0x80 ADD MLOAD PUSH1 0x0 EQ ISZERO PUSH2 0x1C2E JUMPI POP PUSH1 0x0 PUSH2 0x35D JUMP JUMPDEST PUSH1 0x80 DUP3 ADD MLOAD PUSH3 0x76A700 SWAP1 PUSH2 0x1C41 SWAP1 PUSH2 0x1A1C JUMP JUMPDEST ADD SWAP3 SWAP2 POP POP JUMP JUMPDEST PUSH1 0x0 DUP1 PUSH1 0x0 PUSH2 0x1C59 DUP6 DUP6 PUSH1 0x1 PUSH2 0x2802 JUMP JUMPDEST POP SWAP1 POP PUSH1 0x0 PUSH2 0x1C6A DUP7 DUP7 PUSH1 0x0 PUSH2 0x2802 JUMP JUMPDEST POP SWAP1 POP PUSH1 0x0 PUSH2 0x1C79 DUP8 DUP8 PUSH2 0x2965 JUMP JUMPDEST PUSH1 0x60 DUP9 ADD MLOAD SWAP1 SWAP2 POP PUSH2 0x1C8F SWAP1 PUSH2 0x198C DUP6 DUP5 PUSH2 0x246C JUMP JUMPDEST PUSH1 0x60 DUP9 ADD MLOAD SWAP1 SWAP6 POP PUSH2 0x1CA5 SWAP1 PUSH2 0x198C DUP5 DUP5 PUSH2 0x246C JUMP JUMPDEST SWAP4 POP POP POP POP SWAP3 POP SWAP3 SWAP1 POP JUMP JUMPDEST DUP1 DUP3 SUB DUP3 DUP2 SGT ISZERO PUSH1 0x0 DUP4 SLT ISZERO EQ PUSH2 0x4DC JUMPI PUSH1 0x0 DUP1 REVERT JUMPDEST PUSH1 0x0 PUSH2 0x5A5 PUSH2 0x1CDA DUP5 PUSH4 0x3B9ACA00 PUSH2 0xEE8 JUMP JUMPDEST DUP4 PUSH2 0xF36 JUMP JUMPDEST PUSH1 0x0 DUP2 DUP4 SGT PUSH2 0x19A1 JUMPI DUP2 PUSH2 0x5A5 JUMP JUMPDEST PUSH2 0x1CF7 PUSH2 0x4DBE JUMP JUMPDEST PUSH1 0x0 PUSH2 0x1D06 DUP5 PUSH2 0xFFFF AND PUSH2 0x2AE3 JUMP JUMPDEST PUSH1 0x40 DUP1 MLOAD PUSH1 0x80 DUP2 ADD DUP3 MSTORE PUSH2 0xFFFF SWAP7 SWAP1 SWAP7 AND DUP7 MSTORE PUSH1 0xFF DUP3 AND PUSH1 0x20 DUP8 ADD MSTORE DUP6 ADD SWAP4 SWAP1 SWAP4 MSTORE POP POP PUSH1 0x60 DUP3 ADD MSTORE SWAP1 JUMP JUMPDEST PUSH2 0x1D3A PUSH2 0x4E1F JUMP JUMPDEST PUSH2 0x5A5 DUP4 DUP4 PUSH2 0x1D47 PUSH2 0x2B00 JUMP JUMPDEST PUSH2 0x2B0D JUMP JUMPDEST PUSH1 0x0 DUP4 PUSH2 0x1D58 JUMPI PUSH1 0x0 DUP1 REVERT JUMPDEST DUP3 DUP5 SGT ISZERO PUSH2 0x1D78 JUMPI PUSH1 0x40 MLOAD PUSH3 0x461BCD PUSH1 0xE5 SHL DUP2 MSTORE PUSH1 0x4 ADD PUSH2 0x9A8 SWAP1 PUSH2 0x5347 JUMP JUMPDEST PUSH1 0x0 DUP1 PUSH1 0x0 PUSH2 0x1D9C DUP10 DUP10 DUP9 DUP9 PUSH1 0x0 DUP13 SGT PUSH2 0x1D93 JUMPI PUSH1 0x1 PUSH2 0x1D97 JUMP JUMPDEST PUSH1 0x0 NOT JUMPDEST PUSH2 0x2B64 JUMP JUMPDEST SWAP1 POP PUSH1 0x0 DUP8 SLT ISZERO PUSH2 0x1DC6 JUMPI PUSH2 0x1DB0 DUP8 PUSH2 0xBC7 JUMP JUMPDEST SWAP3 POP PUSH2 0x1DBF PUSH2 0x3DB DUP9 DUP4 PUSH2 0x21B5 JUMP JUMPDEST SWAP2 POP PUSH2 0x1DF3 JUMP JUMPDEST PUSH2 0x1DD3 PUSH2 0x3DB DUP9 DUP4 PUSH2 0x21B5 JUMP JUMPDEST SWAP3 POP PUSH2 0x1DF0 PUSH2 0x3DB PUSH2 0x1DE9 DUP12 PUSH1 0x80 ADD MLOAD DUP9 PUSH2 0x2B95 JUMP JUMPDEST DUP10 SWAP1 PUSH2 0x21B5 JUMP JUMPDEST SWAP2 POP JUMPDEST POP PUSH1 0x0 PUSH2 0x1E04 DUP10 DUP10 DUP9 DUP7 DUP10 DUP13 PUSH2 0x2BFB JUMP JUMPDEST SWAP1 POP PUSH1 0x0 JUMPDEST PUSH1 0xFA DUP2 PUSH1 0xFF AND LT ISZERO PUSH2 0x1E6F JUMPI DUP4 DUP4 SUB DUP1 PUSH2 0x1E2A JUMPI DUP4 SWAP6 POP POP POP POP POP POP PUSH2 0x45D JUMP JUMPDEST PUSH1 0x0 PUSH2 0x1E3A DUP13 DUP13 DUP12 DUP9 DUP13 DUP16 PUSH2 0x2BFB JUMP JUMPDEST SWAP1 POP PUSH1 0x0 PUSH2 0x1E5F PUSH2 0x1E58 PUSH2 0x1E4E DUP5 DUP9 PUSH2 0x1CB1 JUMP JUMPDEST PUSH2 0x511 DUP6 DUP8 PUSH2 0xEE8 JUMP JUMPDEST DUP8 SWAP1 PUSH2 0x1CB1 JUMP JUMPDEST SWAP6 SWAP7 POP SWAP1 SWAP4 POP POP POP PUSH1 0x1 ADD PUSH2 0x1E09 JUMP JUMPDEST POP PUSH1 0x40 MLOAD PUSH3 0x461BCD PUSH1 0xE5 SHL DUP2 MSTORE PUSH1 0x4 ADD PUSH2 0x9A8 SWAP1 PUSH2 0x5247 JUMP JUMPDEST PUSH1 0x0 DUP1 PUSH2 0x4DC PUSH1 0x1 PUSH2 0x2C21 JUMP JUMPDEST DUP2 PUSH2 0xFFFF AND PUSH1 0x0 LT DUP1 ISZERO PUSH2 0x1EAF JUMPI POP PUSH2 0x3FFF PUSH2 0xFFFF DUP4 AND GT ISZERO JUMPDEST PUSH2 0x1EB8 JUMPI PUSH1 0x0 DUP1 REVERT JUMPDEST PUSH2 0xFFFF DUP3 AND DUP1 DUP6 MSTORE PUSH2 0x1ECB SWAP1 DUP3 SWAP1 PUSH2 0x2C33 JUMP JUMPDEST ISZERO PUSH2 0x1EFA JUMPI PUSH2 0x1EE0 DUP4 DUP4 DUP7 PUSH2 0x120 ADD MLOAD PUSH2 0x2CBD JUMP JUMPDEST PUSH2 0x100 DUP9 ADD MSTORE PUSH1 0xE0 DUP8 ADD MSTORE PUSH1 0x40 DUP7 ADD MSTORE PUSH1 0x20 DUP6 ADD MSTORE PUSH2 0x1F18 JUMP JUMPDEST PUSH1 0x0 PUSH1 0x20 DUP6 ADD DUP2 SWAP1 MSTORE PUSH1 0x40 DUP6 ADD DUP2 SWAP1 MSTORE PUSH1 0xE0 DUP6 ADD DUP2 SWAP1 MSTORE PUSH2 0x100 DUP6 ADD MSTORE JUMPDEST POP POP PUSH1 0x0 PUSH1 0x60 DUP4 ADD DUP2 SWAP1 MSTORE PUSH1 0x80 DUP4 ADD DUP2 SWAP1 MSTORE PUSH1 0xA0 DUP4 ADD DUP2 SWAP1 MSTORE PUSH1 0xC0 SWAP1 SWAP3 ADD SWAP2 SWAP1 SWAP2 MSTORE POP JUMP JUMPDEST PUSH1 0x0 DUP1 PUSH2 0x4DC PUSH1 0x3 PUSH2 0x2C21 JUMP JUMPDEST PUSH1 0x0 DUP1 PUSH1 0x0 DUP1 PUSH2 0x1F58 PUSH2 0x2D77 JUMP JUMPDEST PUSH1 0x1 PUSH1 0x1 PUSH1 0xA0 SHL SUB SWAP6 SWAP1 SWAP6 AND PUSH1 0x0 SWAP1 DUP2 MSTORE PUSH1 0x20 SWAP6 SWAP1 SWAP6 MSTORE POP POP PUSH1 0x40 SWAP1 SWAP3 KECCAK256 SLOAD PUSH12 0xFFFFFFFFFFFFFFFFFFFFFFFF DUP2 AND SWAP4 PUSH1 0x1 PUSH1 0x60 SHL DUP3 DIV PUSH1 0x1 PUSH1 0x1 PUSH1 0x80 SHL SUB AND SWAP4 POP PUSH1 0x1 PUSH1 0xE0 SHL SWAP1 SWAP2 DIV PUSH4 0xFFFFFFFF AND SWAP2 POP JUMP JUMPDEST PUSH1 0x0 DUP1 PUSH1 0x0 DUP1 PUSH1 0x0 DUP1 PUSH2 0x1FBC PUSH2 0x2D84 JUMP JUMPDEST PUSH1 0x1 PUSH1 0x1 PUSH1 0xA0 SHL SUB SWAP1 SWAP8 AND PUSH1 0x0 SWAP1 DUP2 MSTORE PUSH1 0x20 SWAP8 SWAP1 SWAP8 MSTORE POP POP PUSH1 0x40 SWAP1 SWAP5 KECCAK256 SLOAD PUSH2 0xFFFF DUP2 AND SWAP6 PUSH4 0xFFFFFFFF PUSH3 0x10000 DUP4 DIV DUP2 AND SWAP7 POP PUSH1 0x1 PUSH1 0x30 SHL DUP4 DIV AND SWAP5 POP PUSH1 0xFF PUSH1 0x1 PUSH1 0x50 SHL DUP4 DIV AND SWAP4 POP PUSH1 0x1 PUSH1 0x58 SHL SWAP1 SWAP2 DIV PUSH1 0xD0 SHL SWAP2 POP JUMP JUMPDEST PUSH1 0x0 PUSH2 0x344 DUP3 PUSH2 0x121D PUSH4 0x1DA9C00 DUP2 DUP9 PUSH2 0x1217 DUP10 PUSH8 0xDE0B6B3A7640000 PUSH2 0x1873 JUMP JUMPDEST PUSH1 0x0 DUP1 DUP3 GT PUSH2 0x2044 JUMPI PUSH1 0x0 DUP1 REVERT JUMPDEST DUP2 DUP4 DUP2 PUSH2 0x204D JUMPI INVALID JUMPDEST DIV SWAP4 SWAP3 POP POP POP JUMP JUMPDEST PUSH1 0x0 DUP3 DUP3 GT ISZERO PUSH2 0x2064 JUMPI PUSH1 0x0 DUP1 REVERT JUMPDEST POP SWAP1 SUB SWAP1 JUMP JUMPDEST PUSH2 0x2072 PUSH2 0x4CDA JUMP JUMPDEST PUSH1 0x0 PUSH2 0x207D DUP5 PUSH2 0x1316 JUMP JUMPDEST SWAP1 POP DUP3 DUP2 PUSH1 0x0 ADD MLOAD LT ISZERO PUSH2 0x20BC JUMPI PUSH1 0x0 DUP1 PUSH2 0x2097 DUP7 PUSH2 0x2D91 JUMP JUMPDEST SWAP1 POP PUSH2 0x20A5 DUP7 DUP5 DUP4 DUP9 PUSH2 0x17CF JUMP JUMPDEST SWAP1 SWAP4 POP SWAP2 POP PUSH2 0x20B5 DUP7 DUP4 DUP6 PUSH2 0x2DEA JUMP JUMPDEST POP POP PUSH2 0x20C9 JUMP JUMPDEST DUP1 MLOAD DUP4 EQ PUSH2 0x20C9 JUMPI PUSH1 0x0 DUP1 REVERT JUMPDEST PUSH1 0x40 MLOAD DUP1 PUSH1 0x60 ADD PUSH1 0x40 MSTORE DUP1 PUSH2 0x20F2 PUSH2 0x544 DUP5 PUSH1 0xA0 ADD MLOAD DUP6 PUSH1 0xC0 ADD MLOAD PUSH2 0x1873 SWAP1 SWAP2 SWAP1 PUSH4 0xFFFFFFFF AND JUMP JUMPDEST DUP2 MSTORE PUSH1 0x20 ADD PUSH2 0x2115 PUSH2 0x544 DUP5 PUSH1 0xA0 ADD MLOAD DUP6 PUSH1 0xE0 ADD MLOAD PUSH2 0x1873 SWAP1 SWAP2 SWAP1 PUSH4 0xFFFFFFFF AND JUMP JUMPDEST DUP2 MSTORE PUSH1 0x20 ADD DUP3 PUSH1 0x60 ADD MLOAD DUP2 MSTORE POP SWAP2 POP POP SWAP3 SWAP2 POP POP JUMP JUMPDEST PUSH1 0x0 DUP1 PUSH2 0x4DC PUSH1 0x1D PUSH2 0x2C21 JUMP JUMPDEST PUSH1 0x0 DUP1 PUSH2 0x2146 DUP6 DUP6 DUP6 PUSH2 0x301E JUMP JUMPDEST SWAP1 POP DUP1 ISZERO PUSH2 0x2166 JUMPI PUSH2 0x2161 PUSH2 0x215B DUP6 DUP6 PUSH2 0x2055 JUMP JUMPDEST DUP3 PUSH2 0x22DF JUMP JUMPDEST PUSH2 0x45D JUMP JUMPDEST PUSH4 0x3B9ACA00 SWAP6 SWAP5 POP POP POP POP POP JUMP JUMPDEST PUSH1 0x0 DUP1 PUSH2 0x2182 DUP6 DUP6 DUP6 PUSH2 0x306E JUMP JUMPDEST SWAP1 POP PUSH2 0x2191 PUSH2 0x215B DUP6 DUP6 PUSH2 0x2055 JUMP JUMPDEST SWAP2 POP PUSH1 0x0 PUSH2 0x219E DUP7 PUSH2 0x30A8 JUMP JUMPDEST SWAP1 POP DUP3 DUP2 SLT ISZERO PUSH2 0x21AC JUMPI DUP1 SWAP3 POP JUMPDEST POP POP SWAP4 SWAP3 POP POP POP JUMP JUMPDEST PUSH1 0x0 PUSH2 0x5A5 PUSH2 0x21C4 DUP5 DUP5 PUSH2 0xEE8 JUMP JUMPDEST PUSH4 0x3B9ACA00 PUSH2 0xF36 JUMP JUMPDEST PUSH1 0x60 ADD MLOAD PUSH2 0x12C PUSH1 0x8 SWAP2 SWAP1 SWAP2 SHR PUSH1 0xFF AND MUL SWAP1 JUMP JUMPDEST PUSH1 0x0 DUP1 PUSH2 0x21ED PUSH2 0x30C3 JUMP JUMPDEST SWAP1 POP PUSH1 0x0 PUSH3 0x76A700 PUSH2 0x21FE DUP6 PUSH2 0x1A1C JUMP JUMPDEST PUSH1 0x0 DUP10 DUP2 MSTORE PUSH1 0x20 DUP6 DUP2 MSTORE PUSH1 0x40 DUP1 DUP4 KECCAK256 DUP12 DUP5 MSTORE DUP3 MSTORE DUP1 DUP4 KECCAK256 SWAP5 SWAP1 SWAP4 ADD DUP1 DUP4 MSTORE SWAP4 SWAP1 MSTORE KECCAK256 DUP1 SLOAD SWAP2 SWAP3 POP SWAP1 PUSH4 0xFFFFFFFF PUSH1 0x1 PUSH1 0xA0 SHL DUP3 DIV DUP2 AND SWAP2 PUSH1 0x1 PUSH1 0xC0 SHL DUP2 DIV DUP3 AND SWAP2 PUSH1 0x1 PUSH1 0xE0 SHL SWAP1 SWAP2 DIV AND DUP2 PUSH2 0x2265 JUMPI PUSH1 0x40 MLOAD PUSH3 0x461BCD PUSH1 0xE5 SHL DUP2 MSTORE PUSH1 0x4 ADD PUSH2 0x9A8 SWAP1 PUSH2 0x51EA JUMP JUMPDEST PUSH2 0x2272 DUP2 DUP5 DUP5 DUP13 DUP13 PUSH2 0x30D0 JUMP JUMPDEST SWAP12 SWAP11 POP POP POP POP POP POP POP POP POP POP POP JUMP JUMPDEST PUSH1 0x0 DUP2 DUP7 LT PUSH2 0x228F JUMPI PUSH1 0x0 DUP1 REVERT JUMPDEST DUP5 DUP3 LT PUSH2 0x229B JUMPI PUSH1 0x0 DUP1 REVERT JUMPDEST DUP4 DUP4 LT PUSH2 0x22C1 JUMPI PUSH2 0x22BA DUP5 PUSH2 0x15E1 DUP9 DUP9 SUB PUSH2 0x121D DUP4 DUP9 SUB DUP12 DUP9 SUB PUSH2 0x1873 JUMP JUMPDEST SWAP1 POP PUSH2 0x45D JUMP JUMPDEST PUSH2 0x22BA PUSH2 0x22D8 DUP8 DUP8 SUB PUSH2 0x121D DUP7 DUP9 SUB DUP11 DUP8 SUB PUSH2 0x1873 JUMP JUMPDEST DUP6 SWAP1 PUSH2 0x2055 JUMP JUMPDEST PUSH1 0x0 DUP1 PUSH2 0x22FC PUSH2 0x22F7 PUSH4 0x1DA9C00 PUSH2 0x121D DUP7 DUP9 PUSH2 0x1873 JUMP JUMPDEST PUSH2 0x3158 JUMP JUMPDEST SWAP1 POP PUSH2 0x230E DUP2 PUSH3 0x1DCD65 PUSH1 0x49 SHL PUSH2 0x3176 JUMP JUMPDEST SWAP1 POP PUSH2 0x2321 PUSH2 0x231C DUP3 PUSH2 0x31C9 JUMP JUMPDEST PUSH2 0x31EB JUMP JUMPDEST SWAP1 POP PUSH2 0x2333 DUP2 PUSH3 0x1DCD65 PUSH1 0x49 SHL PUSH2 0x3240 JUMP JUMPDEST SWAP1 POP PUSH1 0x0 PUSH2 0x2340 DUP3 PUSH2 0x3276 JUMP JUMPDEST PUSH1 0x7 SIGNEXTEND SWAP6 SWAP5 POP POP POP POP POP JUMP JUMPDEST PUSH1 0x0 PUSH3 0x76A700 PUSH2 0x235B DUP6 PUSH2 0x1A1C JUMP JUMPDEST ADD SWAP1 POP PUSH2 0x236D DUP8 DUP8 DUP8 DUP8 DUP8 DUP8 DUP8 PUSH2 0x327F JUMP JUMPDEST POP POP POP POP POP POP POP JUMP JUMPDEST PUSH1 0x0 DUP1 PUSH1 0x0 DUP1 PUSH1 0x0 PUSH2 0x238D DUP8 DUP12 PUSH1 0x40 ADD MLOAD DUP11 PUSH2 0x2482 JUMP JUMPDEST SWAP1 POP PUSH4 0x3B9ACA00 DUP2 GT ISZERO PUSH2 0x23AF JUMPI PUSH1 0x0 DUP1 PUSH1 0x0 DUP1 SWAP5 POP SWAP5 POP SWAP5 POP SWAP5 POP POP PUSH2 0x2443 JUMP JUMPDEST PUSH1 0x0 PUSH2 0x23BB DUP13 DUP4 PUSH2 0x24B9 JUMP JUMPDEST SWAP1 POP PUSH1 0x0 PUSH2 0x23D6 PUSH2 0x3DB PUSH2 0x23CF DUP5 DUP12 PUSH2 0x2B95 JUMP JUMPDEST DUP12 SWAP1 PUSH2 0x1CC7 JUMP JUMPDEST SWAP1 POP PUSH2 0x23E6 DUP14 DUP4 PUSH1 0x0 DUP13 SLT PUSH2 0x32B6 JUMP JUMPDEST SWAP4 POP PUSH2 0x23F8 PUSH2 0x3DB PUSH2 0x23CF DUP7 DUP12 PUSH2 0x2B95 JUMP JUMPDEST SWAP7 POP DUP1 DUP8 SGT ISZERO PUSH2 0x2407 JUMPI PUSH1 0x0 DUP1 REVERT JUMPDEST PUSH1 0x0 PUSH2 0x2413 DUP3 DUP10 PUSH2 0x1CB1 JUMP JUMPDEST SWAP1 POP PUSH2 0x242D PUSH1 0x64 PUSH2 0x511 PUSH2 0x2426 DUP16 PUSH2 0x332E JUMP JUMPDEST DUP5 SWAP1 PUSH2 0xEE8 JUMP JUMPDEST SWAP6 POP PUSH2 0x243C PUSH2 0x3DB DUP10 DUP9 PUSH2 0x246C JUMP JUMPDEST SWAP7 POP POP POP POP POP JUMPDEST SWAP7 POP SWAP7 POP SWAP7 POP SWAP7 SWAP3 POP POP POP JUMP JUMPDEST PUSH1 0x0 PUSH2 0x245C DUP4 DUP4 PUSH2 0x1CB1 JUMP JUMPDEST SWAP1 POP PUSH1 0x0 DUP2 SLT ISZERO PUSH2 0x4DC JUMPI PUSH1 0x0 DUP1 REVERT JUMPDEST DUP2 DUP2 ADD DUP3 DUP2 SLT ISZERO PUSH1 0x0 DUP4 SLT ISZERO EQ PUSH2 0x4DC JUMPI PUSH1 0x0 DUP1 REVERT JUMPDEST PUSH1 0x0 DUP1 DUP4 SLT ISZERO PUSH2 0x2491 JUMPI PUSH1 0x0 DUP1 REVERT JUMPDEST PUSH1 0x0 DUP3 SLT ISZERO PUSH2 0x249F JUMPI PUSH1 0x0 DUP1 REVERT JUMPDEST PUSH2 0x344 PUSH2 0x7A9 PUSH2 0x24AF DUP5 DUP7 PUSH2 0x246C JUMP JUMPDEST PUSH2 0xE8B DUP7 DUP9 PUSH2 0x2450 JUMP JUMPDEST PUSH1 0x0 DUP1 DUP4 PUSH1 0x80 ADD MLOAD GT PUSH2 0x24CB JUMPI PUSH1 0x0 DUP1 REVERT JUMPDEST PUSH4 0x3B9ACA00 DUP3 GT ISZERO PUSH2 0x24DC JUMPI PUSH1 0x0 DUP1 REVERT JUMPDEST DUP3 MLOAD DUP3 GT PUSH2 0x24FB JUMPI DUP3 MLOAD PUSH1 0x40 DUP5 ADD MLOAD PUSH2 0x1A01 SWAP2 SWAP1 PUSH2 0x121D SWAP1 DUP6 SWAP1 PUSH2 0x1873 JUMP JUMPDEST DUP3 PUSH1 0x20 ADD MLOAD DUP3 GT PUSH2 0x2533 JUMPI PUSH1 0x40 DUP4 ADD MLOAD DUP4 MLOAD PUSH1 0x20 DUP6 ADD MLOAD PUSH1 0x60 DUP7 ADD MLOAD PUSH2 0x1A01 SWAP4 SWAP3 PUSH2 0x15E1 SWAP3 DUP2 SWAP1 SUB SWAP2 PUSH2 0x121D SWAP2 DUP9 SUB SWAP1 DUP6 SWAP1 SUB PUSH2 0x1873 JUMP JUMPDEST PUSH2 0x5A5 DUP4 PUSH1 0x60 ADD MLOAD PUSH2 0x15E1 DUP6 PUSH1 0x20 ADD MLOAD PUSH4 0x3B9ACA00 SUB PUSH2 0x121D DUP8 PUSH1 0x60 ADD MLOAD DUP9 PUSH1 0x80 ADD MLOAD SUB DUP9 PUSH1 0x20 ADD MLOAD DUP9 SUB PUSH2 0x1873 SWAP1 SWAP2 SWAP1 PUSH4 0xFFFFFFFF AND JUMP JUMPDEST PUSH1 0x0 DUP1 DUP1 PUSH2 0x257A DUP8 DUP7 PUSH2 0xDB6 JUMP JUMPDEST PUSH1 0x60 DUP10 ADD MLOAD SWAP1 SWAP2 POP PUSH2 0x258C SWAP1 DUP3 PUSH2 0x246C JUMP JUMPDEST PUSH1 0x60 DUP10 ADD MSTORE TIMESTAMP PUSH1 0xE0 DUP10 ADD MSTORE PUSH1 0x0 PUSH2 0x25A3 DUP9 DUP7 PUSH2 0xDB6 JUMP JUMPDEST SWAP1 POP PUSH1 0x0 PUSH2 0x25B1 DUP10 DUP10 PUSH2 0xDB6 JUMP JUMPDEST SWAP11 SWAP2 SWAP10 POP SWAP1 SWAP8 POP POP POP POP POP POP POP POP JUMP JUMPDEST PUSH1 0x0 DUP1 PUSH2 0x25CC PUSH2 0x333B JUMP JUMPDEST PUSH2 0xFFFF SWAP4 SWAP1 SWAP4 AND PUSH1 0x0 SWAP1 DUP2 MSTORE PUSH1 0x20 SWAP4 SWAP1 SWAP4 MSTORE POP POP PUSH1 0x40 SWAP1 KECCAK256 SLOAD PUSH1 0x1 PUSH1 0x1 PUSH1 0xA0 SHL SUB AND SWAP1 JUMP JUMPDEST PUSH1 0x0 DUP1 PUSH1 0x0 DUP1 PUSH1 0x0 DUP1 PUSH2 0x2604 DUP10 DUP9 PUSH2 0x3348 JUMP JUMPDEST DUP10 MLOAD SWAP1 SWAP6 POP SWAP2 SWAP4 POP SWAP2 POP PUSH1 0x0 SWAP1 PUSH2 0x262B SWAP1 PUSH2 0x2620 SWAP1 DUP12 SWAP1 PUSH2 0x2055 JUMP JUMPDEST PUSH4 0x3B9ACA00 SWAP1 PUSH2 0x1873 JUMP JUMPDEST SWAP1 POP PUSH2 0x2665 PUSH2 0x265A PUSH4 0x1DA9C00 PUSH2 0x2642 DUP6 DUP6 PUSH2 0x1873 JUMP JUMPDEST DUP2 PUSH2 0x2649 JUMPI INVALID JUMPDEST PUSH8 0xDE0B6B3A7640000 SWAP2 SWAP1 DIV PUSH2 0x125A JUMP JUMPDEST PUSH1 0xE0 DUP11 ADD MLOAD SWAP1 PUSH2 0x2719 JUMP JUMPDEST SWAP7 POP PUSH2 0x2687 PUSH2 0x267C PUSH4 0x1DA9C00 PUSH2 0x2642 DUP8 DUP6 PUSH2 0x1873 JUMP JUMPDEST PUSH1 0xC0 DUP11 ADD MLOAD SWAP1 PUSH2 0x2719 JUMP JUMPDEST SWAP6 POP DUP2 DUP4 EQ ISZERO PUSH2 0x269E JUMPI POP PUSH1 0x0 SWAP4 POP PUSH2 0x26F3 SWAP2 POP POP JUMP JUMPDEST PUSH1 0x0 PUSH2 0x26C0 PUSH2 0x26B5 PUSH4 0x1DA9C00 PUSH2 0x2642 DUP8 DUP7 PUSH2 0x1873 JUMP JUMPDEST PUSH1 0xE0 DUP12 ADD MLOAD SWAP1 PUSH2 0x2719 JUMP JUMPDEST SWAP1 POP PUSH1 0x0 PUSH2 0x26CE DUP10 DUP4 PUSH2 0x2055 JUMP JUMPDEST SWAP1 POP PUSH2 0x26EB DUP9 PUSH2 0x121D DUP4 DUP14 PUSH1 0x40 ADD MLOAD PUSH2 0x1873 SWAP1 SWAP2 SWAP1 PUSH4 0xFFFFFFFF AND JUMP JUMPDEST SWAP7 POP POP POP POP POP POP JUMPDEST SWAP4 POP SWAP4 POP SWAP4 POP SWAP4 JUMP JUMPDEST PUSH1 0x0 PUSH2 0x5A5 PUSH2 0x2713 DUP5 PUSH8 0xDE0B6B3A7640000 PUSH2 0x1873 JUMP JUMPDEST DUP4 PUSH2 0x2036 JUMP JUMPDEST PUSH1 0x0 PUSH2 0x5A5 PUSH2 0x2728 DUP5 DUP5 PUSH2 0x1873 JUMP JUMPDEST PUSH8 0xDE0B6B3A7640000 PUSH2 0x2036 JUMP JUMPDEST PUSH2 0x273E PUSH2 0x4CDA JUMP JUMPDEST PUSH1 0x0 DUP1 PUSH2 0x2749 PUSH2 0x33E2 JUMP JUMPDEST PUSH2 0xFFFF DUP7 AND PUSH1 0x0 SWAP1 DUP2 MSTORE PUSH1 0x20 DUP3 DUP2 MSTORE PUSH1 0x40 DUP1 DUP4 KECCAK256 DUP9 DUP5 MSTORE SWAP1 SWAP2 MSTORE SWAP1 KECCAK256 DUP1 SLOAD PUSH1 0x1 PUSH1 0xF0 SHL SWAP1 DIV PUSH1 0xFF AND SWAP4 POP SWAP1 SWAP2 POP DUP3 ISZERO PUSH2 0x27C0 JUMPI DUP1 SLOAD PUSH1 0x1 PUSH1 0x1 PUSH1 0x50 SHL SUB PUSH1 0x1 PUSH1 0xA0 SHL DUP3 DIV DUP2 AND SWAP2 PUSH2 0x279B SWAP2 AND DUP3 PUSH2 0x1873 JUMP JUMPDEST DUP6 MSTORE DUP2 SLOAD PUSH2 0x27B9 SWAP1 PUSH1 0x1 PUSH1 0x50 SHL SWAP1 DIV PUSH1 0x1 PUSH1 0x1 PUSH1 0x50 SHL SUB AND DUP3 PUSH2 0x1873 JUMP JUMPDEST PUSH1 0x20 DUP7 ADD MSTORE POP JUMPDEST POP POP SWAP3 POP SWAP3 SWAP1 POP JUMP JUMPDEST PUSH1 0x0 DUP1 DUP3 SLT ISZERO PUSH2 0x27FC JUMPI PUSH2 0x27F7 PUSH1 0x1 PUSH2 0x192C DUP6 PUSH1 0x20 ADD MLOAD PUSH2 0x511 DUP8 PUSH1 0x0 ADD MLOAD DUP8 PUSH2 0xEE8 SWAP1 SWAP2 SWAP1 PUSH4 0xFFFFFFFF AND JUMP JUMPDEST PUSH2 0x5A5 JUMP JUMPDEST POP SWAP2 SWAP1 POP JUMP JUMPDEST PUSH1 0x20 DUP4 ADD MLOAD MLOAD MLOAD PUSH1 0x0 SWAP1 PUSH1 0x60 SWAP1 DUP1 PUSH8 0xFFFFFFFFFFFFFFFF DUP2 GT DUP1 ISZERO PUSH2 0x2826 JUMPI PUSH1 0x0 DUP1 REVERT JUMPDEST POP PUSH1 0x40 MLOAD SWAP1 DUP1 DUP3 MSTORE DUP1 PUSH1 0x20 MUL PUSH1 0x20 ADD DUP3 ADD PUSH1 0x40 MSTORE DUP1 ISZERO PUSH2 0x2850 JUMPI DUP2 PUSH1 0x20 ADD PUSH1 0x20 DUP3 MUL DUP1 CALLDATASIZE DUP4 CALLDATACOPY ADD SWAP1 POP JUMPDEST POP SWAP2 POP PUSH2 0x285B PUSH2 0x4D47 JUMP JUMPDEST PUSH1 0x0 JUMPDEST DUP3 DUP2 LT ISZERO PUSH2 0x295A JUMPI DUP8 MLOAD PUSH2 0x2879 SWAP1 DUP4 PUSH1 0x1 DUP1 DUP6 ADD SWAP1 DUP12 PUSH2 0x1599 JUMP JUMPDEST PUSH1 0x0 DUP9 PUSH1 0x20 ADD MLOAD PUSH1 0x0 ADD MLOAD DUP3 DUP2 MLOAD DUP2 LT PUSH2 0x288F JUMPI INVALID JUMPDEST PUSH1 0x20 MUL PUSH1 0x20 ADD ADD MLOAD SWAP1 POP PUSH1 0x0 DUP1 PUSH2 0x28A6 DUP4 DUP7 PUSH2 0x33EF JUMP JUMPDEST SWAP2 POP SWAP2 POP PUSH2 0x28D3 PUSH2 0x28CC DUP13 PUSH1 0xC0 ADD MLOAD DUP14 PUSH1 0x0 ADD MLOAD PUSH1 0x0 ADD MLOAD PUSH2 0xFFFF AND DUP7 PUSH1 0x20 ADD MLOAD PUSH2 0x346A JUMP JUMPDEST DUP3 SWAP1 PUSH2 0x246C JUMP JUMPDEST DUP8 DUP6 DUP2 MLOAD DUP2 LT PUSH2 0x28DF JUMPI INVALID JUMPDEST PUSH1 0x20 MUL PUSH1 0x20 ADD ADD DUP2 DUP2 MSTORE POP POP PUSH1 0x0 PUSH2 0x293C PUSH2 0x2935 PUSH2 0x2929 DUP11 DUP9 DUP2 MLOAD DUP2 LT PUSH2 0x2902 JUMPI INVALID JUMPDEST PUSH1 0x20 MUL PUSH1 0x20 ADD ADD MLOAD DUP8 PUSH1 0x20 ADD MLOAD DUP16 DUP16 PUSH2 0x291F JUMPI DUP12 PUSH1 0xA0 ADD MLOAD PUSH2 0x89E JUMP JUMPDEST DUP12 PUSH1 0xC0 ADD MLOAD PUSH2 0x1535 JUMP JUMPDEST DUP15 MLOAD PUSH1 0x40 ADD MLOAD SWAP1 PUSH2 0xDB6 JUMP JUMPDEST DUP5 SWAP1 PUSH2 0x246C JUMP JUMPDEST SWAP1 POP PUSH2 0x2948 DUP10 DUP3 PUSH2 0x246C JUMP JUMPDEST SWAP9 POP POP PUSH1 0x1 SWAP1 SWAP4 ADD SWAP3 POP PUSH2 0x285E SWAP2 POP POP JUMP JUMPDEST POP POP POP SWAP4 POP SWAP4 SWAP2 POP POP JUMP JUMPDEST PUSH1 0x0 DUP1 PUSH2 0x2991 DUP5 PUSH1 0xC0 ADD MLOAD DUP6 PUSH1 0x0 ADD MLOAD PUSH1 0x0 ADD MLOAD PUSH2 0xFFFF AND DUP7 PUSH1 0x80 ADD MLOAD DUP7 DUP9 PUSH1 0x0 ADD MLOAD PUSH1 0x20 ADD MLOAD PUSH2 0x34AF JUMP JUMPDEST SWAP1 POP DUP1 ISZERO PUSH2 0x29E0 JUMPI PUSH1 0x0 PUSH2 0x29C3 DUP6 PUSH1 0xC0 ADD MLOAD DUP7 PUSH1 0x0 ADD MLOAD PUSH1 0x0 ADD MLOAD PUSH2 0xFFFF AND DUP8 PUSH1 0x80 ADD MLOAD DUP8 DUP10 PUSH1 0x0 ADD MLOAD PUSH1 0x0 DUP9 PUSH2 0x355B JUMP JUMPDEST POP DUP6 MLOAD PUSH1 0x40 ADD MLOAD SWAP1 SWAP2 POP PUSH2 0x29D7 SWAP1 DUP3 PUSH2 0xDB6 JUMP JUMPDEST SWAP3 POP POP POP PUSH2 0x4DC JUMP JUMPDEST PUSH1 0x0 SWAP2 POP POP PUSH2 0x4DC JUMP JUMPDEST PUSH1 0x0 DUP1 PUSH2 0x4DC PUSH1 0x7 PUSH2 0x2C21 JUMP JUMPDEST PUSH2 0x29FF PUSH2 0x4E64 JUMP JUMPDEST PUSH2 0x2A07 PUSH2 0x4E64 JUMP JUMPDEST PUSH1 0xFF DUP5 AND PUSH2 0x2A16 JUMPI SWAP1 POP PUSH2 0x5A5 JUMP JUMPDEST PUSH2 0x2A20 DUP6 DUP6 PUSH2 0x35D9 JUMP JUMPDEST DUP2 MSTORE PUSH1 0xFF DUP5 AND PUSH1 0x60 DUP3 ADD MSTORE DUP3 PUSH8 0xFFFFFFFFFFFFFFFF DUP2 GT DUP1 ISZERO PUSH2 0x2A42 JUMPI PUSH1 0x0 DUP1 REVERT JUMPDEST POP PUSH1 0x40 MLOAD SWAP1 DUP1 DUP3 MSTORE DUP1 PUSH1 0x20 MUL PUSH1 0x20 ADD DUP3 ADD PUSH1 0x40 MSTORE DUP1 ISZERO PUSH2 0x2A7C JUMPI DUP2 PUSH1 0x20 ADD JUMPDEST PUSH2 0x2A69 PUSH2 0x4E8C JUMP JUMPDEST DUP2 MSTORE PUSH1 0x20 ADD SWAP1 PUSH1 0x1 SWAP1 SUB SWAP1 DUP2 PUSH2 0x2A61 JUMPI SWAP1 POP JUMPDEST POP PUSH1 0x20 DUP3 ADD MSTORE SWAP5 SWAP4 POP POP POP POP JUMP JUMPDEST PUSH1 0x0 DUP1 PUSH2 0x2A95 PUSH2 0x35E5 JUMP JUMPDEST PUSH1 0x1 PUSH1 0x1 PUSH1 0xA0 SHL SUB DUP6 AND PUSH1 0x0 SWAP1 DUP2 MSTORE PUSH1 0x20 DUP3 DUP2 MSTORE PUSH1 0x40 DUP1 DUP4 KECCAK256 PUSH2 0xFFFF DUP9 AND DUP5 MSTORE SWAP1 SWAP2 MSTORE DUP2 KECCAK256 DUP1 SLOAD PUSH1 0x1 PUSH1 0xA8 SHL SWAP1 DIV PUSH1 0xA SWAP1 DUP2 SIGNEXTEND SWAP1 SIGNEXTEND SWAP5 POP SWAP2 SWAP3 POP DUP4 SLT ISZERO PUSH2 0x2ADB JUMPI PUSH1 0x0 DUP1 REVERT JUMPDEST POP POP SWAP3 SWAP2 POP POP JUMP JUMPDEST PUSH1 0x0 DUP1 PUSH2 0x2AEE PUSH2 0x35F2 JUMP JUMPDEST PUSH1 0x0 SWAP4 DUP5 MSTORE PUSH1 0x20 MSTORE POP POP PUSH1 0x40 SWAP1 KECCAK256 SLOAD SWAP1 JUMP JUMPDEST PUSH1 0x0 DUP1 PUSH2 0x4DC PUSH1 0x1B PUSH2 0x2C21 JUMP JUMPDEST PUSH2 0x2B15 PUSH2 0x4E1F JUMP JUMPDEST PUSH1 0x0 PUSH2 0x2B20 DUP5 PUSH2 0x35FF JUMP JUMPDEST PUSH2 0xFFFF DUP7 AND PUSH1 0x0 SWAP1 DUP2 MSTORE PUSH1 0x20 DUP6 SWAP1 MSTORE PUSH1 0x40 DUP2 KECCAK256 SWAP2 SWAP3 POP SWAP1 PUSH1 0x4 DUP7 LT PUSH2 0x2B46 JUMPI PUSH1 0x1 PUSH2 0x2B49 JUMP JUMPDEST PUSH1 0x0 JUMPDEST PUSH1 0xFF AND PUSH1 0x2 DUP2 LT PUSH2 0x2B56 JUMPI INVALID JUMPDEST ADD SLOAD SWAP1 POP PUSH2 0x8E7 DUP3 DUP3 PUSH2 0x3638 JUMP JUMPDEST PUSH1 0x0 DUP1 PUSH2 0x2B7B DUP8 PUSH2 0x2B76 DUP6 DUP10 DUP10 PUSH2 0x2482 JUMP JUMPDEST PUSH2 0x24B9 JUMP JUMPDEST SWAP1 POP PUSH1 0x0 PUSH2 0x2B8D DUP9 DUP4 PUSH1 0x0 DUP8 SLT PUSH2 0x32B6 JUMP JUMPDEST SWAP1 POP PUSH2 0x102F DUP2 DUP7 JUMPDEST PUSH1 0x0 DUP1 PUSH2 0x2BAD PUSH2 0x22F7 PUSH4 0x1DA9C00 PUSH2 0x121D DUP8 DUP8 PUSH2 0x1873 JUMP JUMPDEST SWAP1 POP PUSH1 0x0 PUSH2 0x2BC1 DUP3 PUSH3 0x1DCD65 PUSH1 0x49 SHL PUSH2 0x3176 JUMP JUMPDEST SWAP1 POP PUSH1 0x0 PUSH2 0x2BCE DUP3 PUSH2 0x31EB JUMP JUMPDEST SWAP1 POP PUSH1 0x0 PUSH2 0x2BE2 DUP3 PUSH3 0x1DCD65 PUSH1 0x49 SHL PUSH2 0x3240 JUMP JUMPDEST SWAP1 POP PUSH2 0x2BED DUP2 PUSH2 0x3276 JUMP JUMPDEST PUSH1 0x7 SIGNEXTEND SWAP8 SWAP7 POP POP POP POP POP POP POP JUMP JUMPDEST PUSH1 0x0 DUP1 PUSH2 0x2C0B DUP9 DUP9 DUP9 DUP8 DUP10 PUSH2 0x2B64 JUMP JUMPDEST SWAP1 POP PUSH2 0x102F PUSH2 0x2C1A DUP5 DUP4 PUSH2 0x21B5 JUMP JUMPDEST DUP7 SWAP1 PUSH2 0x246C JUMP JUMPDEST PUSH1 0x0 PUSH3 0xF4240 DUP3 PUSH1 0x26 DUP2 GT ISZERO PUSH2 0x1C41 JUMPI INVALID JUMPDEST PUSH1 0x0 DUP2 ISZERO DUP1 ISZERO SWAP1 PUSH2 0x2C46 JUMPI POP PUSH2 0x3FFF DUP3 GT ISZERO JUMPDEST PUSH2 0x2C4F JUMPI PUSH1 0x0 DUP1 REVERT JUMPDEST PUSH1 0x80 DUP4 ADD MLOAD PUSH1 0x60 DUP5 ADD MLOAD PUSH2 0xFFFF AND DUP4 EQ ISZERO PUSH2 0x2C6E JUMPI PUSH1 0x1 SWAP2 POP POP PUSH2 0x4DC JUMP JUMPDEST PUSH1 0x1 PUSH1 0x1 PUSH1 0x70 SHL SUB NOT DUP2 AND ISZERO PUSH2 0x2CB3 JUMPI PUSH1 0xF0 DUP2 SWAP1 SHR PUSH2 0x3FFF AND DUP4 DUP2 EQ ISZERO PUSH2 0x2CA0 JUMPI POP PUSH1 0x1 PUSH1 0xFE SHL SWAP1 DUP2 AND EQ SWAP1 POP PUSH2 0x4DC JUMP JUMPDEST POP PUSH1 0x10 SHL PUSH1 0x1 PUSH1 0x1 PUSH1 0x80 SHL SUB NOT AND PUSH2 0x2C6E JUMP JUMPDEST POP PUSH1 0x0 SWAP4 SWAP3 POP POP POP JUMP JUMPDEST PUSH1 0x0 DUP1 PUSH1 0x0 DUP1 PUSH1 0x0 PUSH2 0x2CCD PUSH2 0x35E5 JUMP JUMPDEST PUSH1 0x1 PUSH1 0x1 PUSH1 0xA0 SHL SUB DUP10 AND PUSH1 0x0 SWAP1 DUP2 MSTORE PUSH1 0x20 DUP3 DUP2 MSTORE PUSH1 0x40 DUP1 DUP4 KECCAK256 PUSH2 0xFFFF DUP13 AND DUP5 MSTORE SWAP1 SWAP2 MSTORE SWAP1 KECCAK256 DUP1 SLOAD PUSH1 0x1 PUSH1 0x1 PUSH1 0x50 SHL SUB DUP2 AND SWAP7 POP PUSH1 0x1 PUSH1 0x50 SHL SWAP1 DIV PUSH4 0xFFFFFFFF AND SWAP5 POP SWAP1 SWAP2 POP DUP4 ISZERO PUSH2 0x2D3A JUMPI DUP1 SLOAD PUSH2 0x2D33 SWAP1 PUSH1 0x1 PUSH1 0x70 SHL SWAP1 DIV PUSH7 0xFFFFFFFFFFFFFF AND PUSH2 0x3757 JUMP JUMPDEST SWAP3 POP PUSH2 0x2D4F JUMP JUMPDEST DUP1 SLOAD PUSH1 0x1 PUSH1 0x70 SHL SWAP1 DIV PUSH7 0xFFFFFFFFFFFFFF AND SWAP3 POP JUMPDEST DUP1 SLOAD PUSH2 0x2D6A SWAP1 DUP9 SWAP1 PUSH1 0x1 PUSH1 0xA8 SHL SWAP1 DIV PUSH1 0xA SWAP1 DUP2 SIGNEXTEND SWAP1 SIGNEXTEND PUSH2 0x3765 JUMP JUMPDEST SWAP6 POP POP POP SWAP4 POP SWAP4 POP SWAP4 POP SWAP4 JUMP JUMPDEST PUSH1 0x0 DUP1 PUSH2 0x4DC PUSH1 0x11 PUSH2 0x2C21 JUMP JUMPDEST PUSH1 0x0 DUP1 PUSH2 0x4DC PUSH1 0x2 PUSH2 0x2C21 JUMP JUMPDEST PUSH1 0x0 DUP1 PUSH2 0x2D9D DUP4 PUSH2 0x25C1 JUMP JUMPDEST PUSH1 0x1 PUSH1 0x1 PUSH1 0xA0 SHL SUB AND PUSH4 0xEF81F216 PUSH1 0x40 MLOAD DUP2 PUSH4 0xFFFFFFFF AND PUSH1 0xE0 SHL DUP2 MSTORE PUSH1 0x4 ADD PUSH1 0x40 DUP1 MLOAD DUP1 DUP4 SUB DUP2 PUSH1 0x0 DUP8 DUP1 EXTCODESIZE ISZERO DUP1 ISZERO PUSH2 0x2DD6 JUMPI PUSH1 0x0 DUP1 REVERT JUMPDEST POP GAS CALL ISZERO DUP1 ISZERO PUSH2 0x17AB JUMPI RETURNDATASIZE PUSH1 0x0 DUP1 RETURNDATACOPY RETURNDATASIZE PUSH1 0x0 REVERT JUMPDEST PUSH1 0x0 PUSH2 0x2DF4 PUSH2 0x212B JUMP JUMPDEST PUSH1 0x0 DUP6 PUSH2 0xFFFF AND DUP2 MSTORE PUSH1 0x20 ADD SWAP1 DUP2 MSTORE PUSH1 0x20 ADD PUSH1 0x0 KECCAK256 SWAP1 POP PUSH2 0x2E18 DUP3 PUSH1 0x0 ADD MLOAD PUSH2 0x378C JUMP JUMPDEST DUP2 SLOAD PUSH5 0xFFFFFFFFFF NOT AND PUSH5 0xFFFFFFFFFF SWAP2 SWAP1 SWAP2 AND OR DUP2 SSTORE PUSH1 0xA0 DUP3 ADD MLOAD PUSH2 0x2E3D SWAP1 PUSH2 0x37A0 JUMP JUMPDEST PUSH1 0x2 DUP3 ADD DUP1 SLOAD PUSH10 0xFFFFFFFFFFFFFFFFFFFF NOT AND PUSH1 0x1 PUSH1 0x1 PUSH1 0x50 SHL SUB SWAP3 SWAP1 SWAP3 AND SWAP2 SWAP1 SWAP2 OR SWAP1 SSTORE PUSH1 0xC0 DUP3 ADD MLOAD PUSH2 0x2E70 SWAP1 PUSH2 0x37A0 JUMP JUMPDEST DUP2 PUSH1 0x2 ADD PUSH1 0xA PUSH2 0x100 EXP DUP2 SLOAD DUP2 PUSH1 0x1 PUSH1 0x1 PUSH1 0x50 SHL SUB MUL NOT AND SWAP1 DUP4 PUSH1 0x1 PUSH1 0x1 PUSH1 0x50 SHL SUB AND MUL OR SWAP1 SSTORE POP PUSH2 0x2EA5 DUP3 PUSH1 0xE0 ADD MLOAD PUSH2 0x37A0 JUMP JUMPDEST DUP2 PUSH1 0x2 ADD PUSH1 0x14 PUSH2 0x100 EXP DUP2 SLOAD DUP2 PUSH1 0x1 PUSH1 0x1 PUSH1 0x50 SHL SUB MUL NOT AND SWAP1 DUP4 PUSH1 0x1 PUSH1 0x1 PUSH1 0x50 SHL SUB AND MUL OR SWAP1 SSTORE POP PUSH2 0x2EDA DUP3 PUSH1 0x20 ADD MLOAD PUSH2 0x37B6 JUMP JUMPDEST DUP2 SLOAD PUSH1 0x1 PUSH1 0x1 PUSH1 0x58 SHL SUB SWAP2 SWAP1 SWAP2 AND PUSH1 0x1 PUSH1 0x28 SHL MUL PUSH16 0xFFFFFFFFFFFFFFFFFFFFFF0000000000 NOT SWAP1 SWAP2 AND OR DUP2 SSTORE PUSH1 0x40 DUP3 ADD MLOAD PUSH2 0x2F14 SWAP1 PUSH2 0x37B6 JUMP JUMPDEST PUSH1 0x1 DUP3 ADD DUP1 SLOAD PUSH11 0xFFFFFFFFFFFFFFFFFFFFFF NOT AND PUSH1 0x1 PUSH1 0x1 PUSH1 0x58 SHL SUB SWAP3 SWAP1 SWAP3 AND SWAP2 SWAP1 SWAP2 OR SWAP1 SSTORE PUSH1 0x80 DUP3 ADD MLOAD PUSH2 0x2F48 SWAP1 PUSH2 0x37B6 JUMP JUMPDEST DUP2 SLOAD PUSH1 0x1 PUSH1 0x1 PUSH1 0x58 SHL SUB SWAP2 SWAP1 SWAP2 AND PUSH1 0x1 PUSH1 0x80 SHL MUL PUSH11 0xFFFFFFFFFFFFFFFFFFFFFF PUSH1 0x80 SHL NOT SWAP1 SWAP2 AND OR DUP2 SSTORE PUSH1 0x60 DUP3 ADD MLOAD PUSH2 0x2F80 SWAP1 PUSH2 0x37CC JUMP JUMPDEST DUP2 SLOAD PUSH4 0xFFFFFFFF SWAP2 SWAP1 SWAP2 AND PUSH1 0x1 PUSH1 0xD8 SHL MUL PUSH4 0xFFFFFFFF PUSH1 0xD8 SHL NOT SWAP1 SWAP2 AND OR DUP2 SSTORE DUP3 ISZERO PUSH2 0x2FCC JUMPI PUSH1 0x0 PUSH2 0x2FB1 DUP5 PUSH2 0xBAD JUMP JUMPDEST SWAP1 POP PUSH2 0x2FBD DUP6 DUP3 PUSH2 0x37DF JUMP JUMPDEST PUSH2 0x2FCA PUSH2 0xFEE DUP7 DUP4 PUSH2 0x381B JUMP JUMPDEST POP JUMPDEST DUP4 PUSH2 0xFFFF AND PUSH32 0xEF25641E225E493886510CA1AD6584FA7B442B9FEA820A29D1DE3CE27D270FD2 DUP4 PUSH1 0xA0 ADD MLOAD DUP5 PUSH1 0xC0 ADD MLOAD DUP6 PUSH1 0xE0 ADD MLOAD PUSH1 0x40 MLOAD PUSH2 0x3010 SWAP4 SWAP3 SWAP2 SWAP1 PUSH2 0x5426 JUMP JUMPDEST PUSH1 0x40 MLOAD DUP1 SWAP2 SUB SWAP1 LOG2 POP POP POP POP JUMP JUMPDEST PUSH1 0x0 PUSH2 0x302B DUP5 DUP5 DUP5 PUSH2 0x144C JUMP JUMPDEST SWAP1 POP PUSH1 0x0 PUSH2 0x3038 DUP6 PUSH2 0x38A5 JUMP JUMPDEST SWAP1 POP DUP1 DUP3 GT PUSH2 0x304B JUMPI PUSH1 0x0 SWAP2 POP POP PUSH2 0x5A5 JUMP JUMPDEST DUP1 DUP3 SUB SWAP2 POP PUSH1 0x0 PUSH2 0x305B DUP7 PUSH2 0x38B2 JUMP JUMPDEST SWAP1 POP DUP3 DUP2 LT ISZERO PUSH2 0x21AC JUMPI SWAP6 SWAP5 POP POP POP POP POP JUMP JUMPDEST PUSH1 0x0 PUSH2 0x307B DUP5 DUP5 DUP5 PUSH2 0x144C JUMP JUMPDEST SWAP1 POP PUSH2 0x3089 PUSH2 0x1229 DUP6 PUSH2 0x38BF JUMP JUMPDEST SWAP1 POP PUSH1 0x0 PUSH2 0x3096 DUP6 PUSH2 0x38CC JUMP JUMPDEST SWAP1 POP DUP1 DUP3 LT ISZERO PUSH2 0x18C6 JUMPI SWAP5 SWAP4 POP POP POP POP JUMP JUMPDEST PUSH1 0x60 ADD MLOAD PUSH3 0x7A120 PUSH1 0x10 SWAP2 SWAP1 SWAP2 SHR PUSH1 0xFF AND MUL PUSH4 0x3B9ACA00 SUB SWAP1 JUMP JUMPDEST PUSH1 0x0 DUP1 PUSH2 0x4DC PUSH1 0xA PUSH2 0x2C21 JUMP JUMPDEST PUSH1 0x0 DUP1 DUP4 GT PUSH2 0x30DE JUMPI PUSH1 0x0 DUP1 REVERT JUMPDEST DUP2 DUP7 GT ISZERO PUSH2 0x30ED JUMPI POP DUP4 PUSH2 0x45D JUMP JUMPDEST PUSH1 0x0 PUSH2 0x30F9 DUP4 DUP9 PUSH2 0x2055 JUMP JUMPDEST SWAP1 POP DUP4 DUP2 GT ISZERO PUSH2 0x310C JUMPI DUP6 SWAP2 POP POP PUSH2 0x45D JUMP JUMPDEST PUSH1 0x0 PUSH2 0x3118 DUP3 DUP7 PUSH2 0x38D9 JUMP JUMPDEST SWAP1 POP PUSH1 0x0 PUSH2 0x312A PUSH4 0x3B9ACA00 DUP4 PUSH2 0x2055 JUMP JUMPDEST SWAP1 POP PUSH2 0x314B PUSH4 0x3B9ACA00 PUSH2 0x121D PUSH2 0x3141 DUP11 DUP6 PUSH2 0x1873 JUMP JUMPDEST PUSH2 0x15E1 DUP13 DUP8 PUSH2 0x1873 JUMP JUMPDEST SWAP10 SWAP9 POP POP POP POP POP POP POP POP POP JUMP JUMPDEST PUSH1 0x0 PUSH8 0x7FFFFFFFFFFFFFFF DUP3 GT ISZERO PUSH2 0x316F JUMPI PUSH1 0x0 DUP1 REVERT JUMPDEST POP PUSH1 0x40 SHL SWAP1 JUMP JUMPDEST PUSH1 0x0 DUP2 PUSH1 0xF SIGNEXTEND PUSH1 0x0 EQ ISZERO PUSH2 0x3189 JUMPI PUSH1 0x0 DUP1 REVERT JUMPDEST PUSH1 0x0 DUP3 PUSH1 0xF SIGNEXTEND PUSH1 0x40 DUP6 PUSH1 0xF SIGNEXTEND SWAP1 SHL DUP2 PUSH2 0x319E JUMPI INVALID JUMPDEST SDIV SWAP1 POP PUSH1 0x1 PUSH1 0x1 PUSH1 0x7F SHL SUB NOT DUP2 SLT DUP1 ISZERO SWAP1 PUSH2 0x31C0 JUMPI POP PUSH1 0x1 PUSH1 0x1 PUSH1 0x7F SHL SUB DUP2 SGT ISZERO JUMPDEST PUSH2 0x5A5 JUMPI PUSH1 0x0 DUP1 REVERT JUMPDEST PUSH1 0x0 PUSH1 0xF DUP3 SWAP1 SIGNEXTEND PUSH1 0x1 PUSH1 0x1 PUSH1 0x7F SHL SUB NOT EQ ISZERO PUSH2 0x31E4 JUMPI PUSH1 0x0 DUP1 REVERT JUMPDEST POP PUSH1 0x0 SUB SWAP1 JUMP JUMPDEST PUSH1 0x0 PUSH1 0x1 PUSH1 0x46 SHL DUP3 PUSH1 0xF SIGNEXTEND SLT PUSH2 0x3200 JUMPI PUSH1 0x0 DUP1 REVERT JUMPDEST PUSH9 0x3FFFFFFFFFFFFFFFFF NOT DUP3 PUSH1 0xF SIGNEXTEND SLT ISZERO PUSH2 0x321D JUMPI POP PUSH1 0x0 PUSH2 0x35D JUMP JUMPDEST PUSH2 0x4DC PUSH1 0x80 DUP4 PUSH1 0xF SIGNEXTEND PUSH17 0x171547652B82FE1777D0FFDA0D23A7D12 MUL SWAP1 SAR PUSH2 0x38EC JUMP JUMPDEST PUSH1 0x0 PUSH1 0xF DUP4 DUP2 SIGNEXTEND SWAP1 DUP4 SWAP1 SIGNEXTEND MUL PUSH1 0x40 SAR PUSH1 0x1 PUSH1 0x1 PUSH1 0x7F SHL SUB NOT DUP2 SLT DUP1 ISZERO SWAP1 PUSH2 0x31C0 JUMPI POP PUSH1 0x1 PUSH1 0x1 PUSH1 0x7F SHL SUB DUP2 SGT ISZERO PUSH2 0x5A5 JUMPI PUSH1 0x0 DUP1 REVERT JUMPDEST PUSH1 0xF SIGNEXTEND PUSH1 0x40 SAR SWAP1 JUMP JUMPDEST PUSH2 0x328C DUP8 DUP8 DUP8 DUP7 DUP6 PUSH2 0x439C JUMP JUMPDEST PUSH2 0x32A5 DUP8 PUSH1 0xE0 ADD MLOAD DUP9 PUSH1 0xA0 ADD MLOAD DUP10 PUSH1 0xC0 ADD MLOAD DUP6 DUP9 PUSH2 0x30D0 JUMP JUMPDEST PUSH1 0xC0 SWAP1 SWAP8 ADD SWAP7 SWAP1 SWAP7 MSTORE POP POP POP POP POP POP JUMP JUMPDEST PUSH1 0x0 DUP1 PUSH2 0x32D5 PUSH1 0x64 PUSH2 0x121D DUP8 PUSH1 0xE0 ADD MLOAD DUP8 PUSH2 0x1873 SWAP1 SWAP2 SWAP1 PUSH4 0xFFFFFFFF AND JUMP JUMPDEST SWAP1 POP DUP5 PUSH1 0xA0 ADD MLOAD DUP2 LT ISZERO PUSH2 0x32EA JUMPI POP PUSH1 0xA0 DUP5 ADD MLOAD JUMPDEST DUP5 PUSH1 0xC0 ADD MLOAD DUP2 GT ISZERO PUSH2 0x32FD JUMPI POP PUSH1 0xC0 DUP5 ADD MLOAD JUMPDEST DUP3 ISZERO PUSH2 0x3314 JUMPI PUSH2 0x330D DUP5 DUP3 PUSH2 0x125A JUMP JUMPDEST SWAP2 POP PUSH2 0x18C6 JUMP JUMPDEST DUP4 DUP2 GT PUSH2 0x3323 JUMPI DUP1 DUP5 SUB PUSH2 0x45D JUMP JUMPDEST POP PUSH1 0x0 SWAP5 SWAP4 POP POP POP POP JUMP JUMPDEST PUSH1 0x60 ADD MLOAD PUSH1 0x18 SHR PUSH1 0xFF AND SWAP1 JUMP JUMPDEST PUSH1 0x0 DUP1 PUSH2 0x4DC PUSH1 0x1F PUSH2 0x2C21 JUMP JUMPDEST PUSH1 0x0 DUP1 PUSH1 0x0 DUP1 PUSH1 0x0 DUP6 PUSH1 0x20 ADD MLOAD GT ISZERO PUSH2 0x3395 JUMPI PUSH2 0x3392 PUSH2 0x3379 DUP7 PUSH1 0xC0 ADD MLOAD DUP8 PUSH1 0x20 ADD MLOAD PUSH2 0x1873 SWAP1 SWAP2 SWAP1 PUSH4 0xFFFFFFFF AND JUMP JUMPDEST PUSH1 0xE0 DUP8 ADD MLOAD PUSH1 0x40 DUP9 ADD MLOAD PUSH2 0x338C SWAP2 PUSH2 0x1873 JUMP JUMPDEST SWAP1 PUSH2 0x38D9 JUMP JUMPDEST SWAP1 POP JUMPDEST PUSH1 0x0 PUSH2 0x33A0 DUP8 PUSH2 0x4456 JUMP JUMPDEST SWAP1 POP PUSH2 0x33AC DUP2 DUP4 PUSH2 0x24B9 JUMP JUMPDEST SWAP5 POP DUP2 ISZERO PUSH2 0x33C3 JUMPI PUSH2 0x33C0 DUP2 DUP7 PUSH1 0x1 PUSH2 0x32B6 JUMP JUMPDEST SWAP4 POP JUMPDEST PUSH1 0x20 DUP7 ADD MLOAD ISZERO PUSH2 0x11D1 JUMPI PUSH2 0x33D7 DUP6 DUP4 PUSH2 0x4489 JUMP JUMPDEST SWAP3 POP POP POP SWAP3 POP SWAP3 POP SWAP3 JUMP JUMPDEST PUSH1 0x0 DUP1 PUSH2 0x4DC PUSH1 0x1E PUSH2 0x2C21 JUMP JUMPDEST PUSH1 0x0 DUP1 PUSH2 0x33FF DUP5 PUSH1 0x40 ADD MLOAD PUSH2 0x44A2 JUMP JUMPDEST DUP1 ISZERO PUSH2 0x3410 JUMPI POP PUSH1 0x0 DUP5 PUSH1 0x60 ADD MLOAD SLT ISZERO JUMPDEST PUSH2 0x3419 JUMPI PUSH1 0x0 DUP1 REVERT JUMPDEST PUSH2 0x343C DUP4 PUSH1 0x80 ADD MLOAD PUSH2 0x511 DUP7 PUSH1 0x60 ADD MLOAD DUP7 PUSH1 0x60 ADD MLOAD PUSH2 0xEE8 SWAP1 SWAP2 SWAP1 PUSH4 0xFFFFFFFF AND JUMP JUMPDEST SWAP2 POP PUSH2 0x3461 DUP4 PUSH1 0x80 ADD MLOAD PUSH2 0x511 DUP7 PUSH1 0x60 ADD MLOAD DUP7 PUSH1 0x40 ADD MLOAD PUSH2 0xEE8 SWAP1 SWAP2 SWAP1 PUSH4 0xFFFFFFFF AND JUMP JUMPDEST SWAP1 POP SWAP3 POP SWAP3 SWAP1 POP JUMP JUMPDEST PUSH1 0x0 DUP1 PUSH2 0x3475 PUSH2 0x44B8 JUMP JUMPDEST PUSH1 0x1 PUSH1 0x1 PUSH1 0xA0 SHL SUB DUP7 AND PUSH1 0x0 SWAP1 DUP2 MSTORE PUSH1 0x20 SWAP2 DUP3 MSTORE PUSH1 0x40 DUP1 DUP3 KECCAK256 DUP8 DUP4 MSTORE DUP4 MSTORE DUP1 DUP3 KECCAK256 DUP7 DUP4 MSTORE SWAP1 SWAP3 MSTORE KECCAK256 SLOAD PUSH1 0xF SWAP1 DUP2 SIGNEXTEND SWAP1 SIGNEXTEND SWAP2 POP POP SWAP4 SWAP3 POP POP POP JUMP JUMPDEST PUSH1 0x0 PUSH1 0x2 DUP3 GT PUSH2 0x34C1 JUMPI POP PUSH1 0x0 PUSH2 0x45D JUMP JUMPDEST PUSH1 0x0 PUSH2 0x34CD DUP8 DUP8 PUSH2 0x44C5 JUMP JUMPDEST SWAP1 POP DUP1 PUSH2 0x34DB JUMPI SWAP1 POP PUSH2 0x45D JUMP JUMPDEST PUSH1 0x0 PUSH2 0x34E6 DUP6 PUSH2 0x1A1C JUMP JUMPDEST SWAP1 POP DUP6 DUP2 EQ ISZERO PUSH2 0x3510 JUMPI POP PUSH21 0x400080000002002000000002000000200000000020 NOT AND SWAP1 POP PUSH2 0x45D JUMP JUMPDEST PUSH1 0x1 JUMPDEST DUP5 DUP2 GT PUSH2 0x3550 JUMPI PUSH1 0x0 PUSH2 0x3525 DUP3 PUSH2 0x1A3D JUMP JUMPDEST DUP4 ADD SWAP1 POP PUSH1 0x0 PUSH2 0x3535 DUP10 DUP4 PUSH2 0x44FA JUMP JUMPDEST POP SWAP1 POP PUSH2 0x3544 DUP6 DUP3 PUSH1 0x0 PUSH2 0x4605 JUMP JUMPDEST SWAP5 POP POP POP PUSH1 0x1 ADD PUSH2 0x3513 JUMP JUMPDEST POP DUP2 SWAP3 POP POP POP PUSH2 0x45D JUMP JUMPDEST PUSH1 0x0 DUP1 PUSH1 0x0 PUSH2 0x3569 DUP5 PUSH2 0x4650 JUMP JUMPDEST SWAP1 POP JUMPDEST DUP1 ISZERO PUSH2 0x35CC JUMPI PUSH1 0x0 PUSH2 0x357E DUP10 DUP4 PUSH2 0x4675 JUMP JUMPDEST SWAP1 POP PUSH1 0x0 PUSH2 0x3590 DUP13 DUP13 DUP5 DUP13 DUP13 DUP13 PUSH2 0x4728 JUMP JUMPDEST SWAP1 POP PUSH2 0x359C DUP6 DUP3 PUSH2 0x246C JUMP JUMPDEST SWAP5 POP PUSH1 0x0 DUP2 SLT ISZERO PUSH2 0x35AC JUMPI PUSH1 0x1 SWAP4 POP JUMPDEST PUSH2 0x35B8 DUP7 DUP5 PUSH1 0x0 PUSH2 0x4605 JUMP JUMPDEST SWAP6 POP PUSH2 0x35C3 DUP7 PUSH2 0x4650 JUMP JUMPDEST SWAP3 POP POP POP PUSH2 0x356C JUMP JUMPDEST POP SWAP8 POP SWAP8 SWAP6 POP POP POP POP POP POP JUMP JUMPDEST PUSH1 0x60 PUSH2 0x18C6 DUP4 DUP4 PUSH2 0x4784 JUMP JUMPDEST PUSH1 0x0 DUP1 PUSH2 0x4DC PUSH1 0x6 PUSH2 0x2C21 JUMP JUMPDEST PUSH1 0x0 DUP1 PUSH2 0x4DC PUSH1 0x9 PUSH2 0x2C21 JUMP JUMPDEST PUSH1 0x0 DUP2 PUSH1 0x0 LT PUSH2 0x360E JUMPI PUSH1 0x0 DUP1 REVERT JUMPDEST PUSH1 0x7 DUP3 GT ISZERO PUSH2 0x361C JUMPI PUSH1 0x0 DUP1 REVERT JUMPDEST PUSH1 0x4 DUP3 LT PUSH2 0x362D JUMPI PUSH1 0x4 DUP3 SUB PUSH2 0x362F JUMP JUMPDEST DUP2 JUMPDEST PUSH1 0x8 MUL SWAP3 SWAP2 POP POP JUMP JUMPDEST PUSH2 0x3640 PUSH2 0x4E1F JUMP JUMPDEST PUSH1 0x64 PUSH4 0x3B9ACA00 DUP4 PUSH1 0xFF DUP7 AND PUSH1 0x20 DUP2 LT PUSH2 0x3656 JUMPI INVALID JUMPDEST BYTE MUL DUP2 PUSH2 0x365F JUMPI INVALID JUMPDEST DIV DUP2 MSTORE PUSH1 0x64 PUSH4 0x3B9ACA00 DUP4 PUSH1 0xFF DUP7 AND PUSH1 0x1 ADD PUSH1 0x20 DUP2 LT PUSH2 0x367B JUMPI INVALID JUMPDEST BYTE MUL DUP2 PUSH2 0x3684 JUMPI INVALID JUMPDEST DIV DUP2 PUSH1 0x20 ADD DUP2 DUP2 MSTORE POP POP PUSH2 0x36A9 DUP3 PUSH1 0x2 DUP6 PUSH1 0xFF AND ADD PUSH1 0x20 DUP2 LT PUSH2 0x36A3 JUMPI INVALID JUMPDEST BYTE PUSH2 0x479C JUMP JUMPDEST PUSH1 0x80 DUP3 ADD DUP2 SWAP1 MSTORE PUSH2 0x100 SWAP1 DUP4 PUSH1 0xFF DUP7 AND PUSH1 0x3 ADD PUSH1 0x20 DUP2 LT PUSH2 0x36C6 JUMPI INVALID JUMPDEST BYTE MUL DUP2 PUSH2 0x36CF JUMPI INVALID JUMPDEST DIV PUSH1 0x40 DUP3 ADD MSTORE PUSH1 0x80 DUP2 ADD MLOAD PUSH2 0x100 SWAP1 DUP4 PUSH1 0xFF DUP7 AND PUSH1 0x4 ADD PUSH1 0x20 DUP2 LT PUSH2 0x36F0 JUMPI INVALID JUMPDEST BYTE MUL DUP2 PUSH2 0x36F9 JUMPI INVALID JUMPDEST DIV PUSH1 0x60 DUP3 ADD MSTORE PUSH3 0x7A120 DUP3 PUSH1 0xFF DUP6 AND PUSH1 0x5 ADD PUSH1 0x20 DUP2 LT PUSH2 0x3715 JUMPI INVALID JUMPDEST BYTE MUL PUSH1 0xA0 DUP3 ADD MSTORE PUSH3 0x2625A0 DUP3 PUSH1 0xFF DUP6 AND PUSH1 0x6 ADD PUSH1 0x20 DUP2 LT PUSH2 0x3732 JUMPI INVALID JUMPDEST BYTE MUL PUSH1 0xC0 DUP3 ADD MSTORE DUP2 PUSH1 0xFF DUP5 AND PUSH1 0x7 ADD PUSH1 0x20 DUP2 LT PUSH2 0x374B JUMPI INVALID JUMPDEST BYTE PUSH1 0xE0 DUP3 ADD MSTORE SWAP3 SWAP2 POP POP JUMP JUMPDEST PUSH1 0x8 DUP2 SWAP1 SHR PUSH1 0xFF SWAP1 SWAP2 AND SHL SWAP1 JUMP JUMPDEST PUSH1 0x0 DUP1 DUP3 SLT PUSH2 0x3775 JUMPI POP DUP1 PUSH2 0x4DC JUMP JUMPDEST DUP3 MLOAD PUSH1 0x20 DUP5 ADD MLOAD PUSH2 0x1A01 SWAP2 SWAP1 PUSH2 0x511 SWAP1 DUP6 SWAP1 PUSH2 0xEE8 JUMP JUMPDEST PUSH1 0x0 PUSH5 0xFFFFFFFFFF DUP3 GT ISZERO PUSH2 0xBC3 JUMPI PUSH1 0x0 DUP1 REVERT JUMPDEST PUSH1 0x0 PUSH1 0x1 PUSH1 0x1 PUSH1 0x50 SHL SUB DUP3 GT ISZERO PUSH2 0xBC3 JUMPI PUSH1 0x0 DUP1 REVERT JUMPDEST PUSH1 0x0 PUSH1 0x1 PUSH1 0x1 PUSH1 0x58 SHL SUB DUP3 GT ISZERO PUSH2 0xBC3 JUMPI PUSH1 0x0 DUP1 REVERT JUMPDEST PUSH1 0x0 PUSH4 0xFFFFFFFF DUP3 GT ISZERO PUSH2 0xBC3 JUMPI PUSH1 0x0 DUP1 REVERT JUMPDEST PUSH1 0x0 DUP2 SLT ISZERO PUSH2 0x37ED JUMPI PUSH1 0x0 DUP1 REVERT JUMPDEST PUSH1 0x0 PUSH2 0x37FB PUSH2 0xFEE DUP5 PUSH2 0x2A8A JUMP JUMPDEST SWAP1 POP PUSH2 0x3807 DUP2 DUP4 PUSH2 0x246C JUMP JUMPDEST SWAP1 POP PUSH2 0x3816 PUSH2 0xFEE DUP5 DUP4 PUSH2 0x47D0 JUMP JUMPDEST POP POP POP JUMP JUMPDEST PUSH1 0x0 PUSH2 0x3825 PUSH2 0x4844 JUMP JUMPDEST PUSH2 0xFFFF DUP5 AND PUSH1 0x0 SWAP1 DUP2 MSTORE PUSH1 0x20 SWAP2 SWAP1 SWAP2 MSTORE PUSH1 0x40 SWAP1 DUP2 SWAP1 KECCAK256 SLOAD SWAP1 MLOAD PUSH4 0xAD1C095D PUSH1 0xE0 SHL DUP2 MSTORE PUSH1 0x1 PUSH1 0x1 PUSH1 0xA0 SHL SUB SWAP1 SWAP2 AND SWAP2 POP DUP2 SWAP1 PUSH4 0xAD1C095D SWAP1 PUSH2 0x386D SWAP1 DUP8 SWAP1 DUP7 SWAP1 PUSH1 0x4 ADD PUSH2 0x51BA JUMP JUMPDEST PUSH1 0x0 PUSH1 0x40 MLOAD DUP1 DUP4 SUB DUP2 PUSH1 0x0 DUP8 DUP1 EXTCODESIZE ISZERO DUP1 ISZERO PUSH2 0x3887 JUMPI PUSH1 0x0 DUP1 REVERT JUMPDEST POP GAS CALL ISZERO DUP1 ISZERO PUSH2 0x389B JUMPI RETURNDATASIZE PUSH1 0x0 DUP1 RETURNDATACOPY RETURNDATASIZE PUSH1 0x0 REVERT JUMPDEST POP POP POP POP POP POP POP POP JUMP JUMPDEST PUSH1 0x0 PUSH2 0x4DC DUP3 PUSH1 0x20 PUSH2 0x4851 JUMP JUMPDEST PUSH1 0x0 PUSH2 0x4DC DUP3 PUSH1 0x48 PUSH2 0x4851 JUMP JUMPDEST PUSH1 0x0 PUSH2 0x4DC DUP3 PUSH1 0x28 PUSH2 0x4851 JUMP JUMPDEST PUSH1 0x0 PUSH2 0x4DC DUP3 PUSH1 0x30 PUSH2 0x4851 JUMP JUMPDEST PUSH1 0x0 PUSH2 0x5A5 PUSH2 0x2713 DUP5 PUSH4 0x3B9ACA00 PUSH2 0x1873 JUMP JUMPDEST PUSH1 0x0 PUSH1 0x1 PUSH1 0x46 SHL DUP3 PUSH1 0xF SIGNEXTEND SLT PUSH2 0x3901 JUMPI PUSH1 0x0 DUP1 REVERT JUMPDEST PUSH9 0x3FFFFFFFFFFFFFFFFF NOT DUP3 PUSH1 0xF SIGNEXTEND SLT ISZERO PUSH2 0x391E JUMPI POP PUSH1 0x0 PUSH2 0x35D JUMP JUMPDEST PUSH1 0x1 PUSH1 0x7F SHL PUSH1 0x0 PUSH8 0x8000000000000000 DUP5 AND PUSH1 0xF SIGNEXTEND SGT ISZERO PUSH2 0x3950 JUMPI PUSH17 0x16A09E667F3BCC908B2FB1366EA957D3E MUL PUSH1 0x80 SHR JUMPDEST PUSH1 0x0 DUP4 PUSH8 0x4000000000000000 AND PUSH1 0xF SIGNEXTEND SGT ISZERO PUSH2 0x397D JUMPI PUSH17 0x1306FE0A31B7152DE8D5A46305C85EDEC MUL PUSH1 0x80 SHR JUMPDEST PUSH1 0x0 DUP4 PUSH8 0x2000000000000000 AND PUSH1 0xF SIGNEXTEND SGT ISZERO PUSH2 0x39AA JUMPI PUSH17 0x1172B83C7D517ADCDF7C8C50EB14A791F MUL PUSH1 0x80 SHR JUMPDEST PUSH1 0x0 DUP4 PUSH8 0x1000000000000000 AND PUSH1 0xF SIGNEXTEND SGT ISZERO PUSH2 0x39D7 JUMPI PUSH17 0x10B5586CF9890F6298B92B71842A98363 MUL PUSH1 0x80 SHR JUMPDEST PUSH1 0x0 DUP4 PUSH8 0x800000000000000 AND PUSH1 0xF SIGNEXTEND SGT ISZERO PUSH2 0x3A04 JUMPI PUSH17 0x1059B0D31585743AE7C548EB68CA417FD MUL PUSH1 0x80 SHR JUMPDEST PUSH1 0x0 DUP4 PUSH8 0x400000000000000 AND PUSH1 0xF SIGNEXTEND SGT ISZERO PUSH2 0x3A31 JUMPI PUSH17 0x102C9A3E778060EE6F7CACA4F7A29BDE8 MUL PUSH1 0x80 SHR JUMPDEST PUSH1 0x0 DUP4 PUSH8 0x200000000000000 AND PUSH1 0xF SIGNEXTEND SGT ISZERO PUSH2 0x3A5E JUMPI PUSH17 0x10163DA9FB33356D84A66AE336DCDFA3F MUL PUSH1 0x80 SHR JUMPDEST PUSH1 0x0 DUP4 PUSH1 0x1 PUSH1 0x38 SHL AND PUSH1 0xF SIGNEXTEND SGT ISZERO PUSH2 0x3A87 JUMPI PUSH17 0x100B1AFA5ABCBED6129AB13EC11DC9543 MUL PUSH1 0x80 SHR JUMPDEST PUSH1 0x0 DUP4 PUSH7 0x80000000000000 AND PUSH1 0xF SIGNEXTEND SGT ISZERO PUSH2 0x3AB3 JUMPI PUSH17 0x10058C86DA1C09EA1FF19D294CF2F679B MUL PUSH1 0x80 SHR JUMPDEST PUSH1 0x0 DUP4 PUSH7 0x40000000000000 AND PUSH1 0xF SIGNEXTEND SGT ISZERO PUSH2 0x3ADF JUMPI PUSH17 0x1002C605E2E8CEC506D21BFC89A23A00F MUL PUSH1 0x80 SHR JUMPDEST PUSH1 0x0 DUP4 PUSH7 0x20000000000000 AND PUSH1 0xF SIGNEXTEND SGT ISZERO PUSH2 0x3B0B JUMPI PUSH17 0x100162F3904051FA128BCA9C55C31E5DF MUL PUSH1 0x80 SHR JUMPDEST PUSH1 0x0 DUP4 PUSH7 0x10000000000000 AND PUSH1 0xF SIGNEXTEND SGT ISZERO PUSH2 0x3B37 JUMPI PUSH17 0x1000B175EFFDC76BA38E31671CA939725 MUL PUSH1 0x80 SHR JUMPDEST PUSH1 0x0 DUP4 PUSH7 0x8000000000000 AND PUSH1 0xF SIGNEXTEND SGT ISZERO PUSH2 0x3B63 JUMPI PUSH17 0x100058BA01FB9F96D6CACD4B180917C3D MUL PUSH1 0x80 SHR JUMPDEST PUSH1 0x0 DUP4 PUSH7 0x4000000000000 AND PUSH1 0xF SIGNEXTEND SGT ISZERO PUSH2 0x3B8F JUMPI PUSH17 0x10002C5CC37DA9491D0985C348C68E7B3 MUL PUSH1 0x80 SHR JUMPDEST PUSH1 0x0 DUP4 PUSH7 0x2000000000000 AND PUSH1 0xF SIGNEXTEND SGT ISZERO PUSH2 0x3BBB JUMPI PUSH17 0x1000162E525EE054754457D5995292026 MUL PUSH1 0x80 SHR JUMPDEST PUSH1 0x0 DUP4 PUSH1 0x1 PUSH1 0x30 SHL AND PUSH1 0xF SIGNEXTEND SGT ISZERO PUSH2 0x3BE4 JUMPI PUSH17 0x10000B17255775C040618BF4A4ADE83FC MUL PUSH1 0x80 SHR JUMPDEST PUSH1 0x0 DUP4 PUSH6 0x800000000000 AND PUSH1 0xF SIGNEXTEND SGT ISZERO PUSH2 0x3C0F JUMPI PUSH17 0x1000058B91B5BC9AE2EED81E9B7D4CFAB MUL PUSH1 0x80 SHR JUMPDEST PUSH1 0x0 DUP4 PUSH6 0x400000000000 AND PUSH1 0xF SIGNEXTEND SGT ISZERO PUSH2 0x3C3A JUMPI PUSH17 0x100002C5C89D5EC6CA4D7C8ACC017B7C9 MUL PUSH1 0x80 SHR JUMPDEST PUSH1 0x0 DUP4 PUSH6 0x200000000000 AND PUSH1 0xF SIGNEXTEND SGT ISZERO PUSH2 0x3C65 JUMPI PUSH17 0x10000162E43F4F831060E02D839A9D16D MUL PUSH1 0x80 SHR JUMPDEST PUSH1 0x0 DUP4 PUSH6 0x100000000000 AND PUSH1 0xF SIGNEXTEND SGT ISZERO PUSH2 0x3C90 JUMPI PUSH17 0x100000B1721BCFC99D9F890EA06911763 MUL PUSH1 0x80 SHR JUMPDEST PUSH1 0x0 DUP4 PUSH6 0x80000000000 AND PUSH1 0xF SIGNEXTEND SGT ISZERO PUSH2 0x3CBB JUMPI PUSH17 0x10000058B90CF1E6D97F9CA14DBCC1628 MUL PUSH1 0x80 SHR JUMPDEST PUSH1 0x0 DUP4 PUSH6 0x40000000000 AND PUSH1 0xF SIGNEXTEND SGT ISZERO PUSH2 0x3CE6 JUMPI PUSH17 0x1000002C5C863B73F016468F6BAC5CA2B MUL PUSH1 0x80 SHR JUMPDEST PUSH1 0x0 DUP4 PUSH6 0x20000000000 AND PUSH1 0xF SIGNEXTEND SGT ISZERO PUSH2 0x3D11 JUMPI PUSH17 0x100000162E430E5A18F6119E3C02282A5 MUL PUSH1 0x80 SHR JUMPDEST PUSH1 0x0 DUP4 PUSH1 0x1 PUSH1 0x28 SHL AND PUSH1 0xF SIGNEXTEND SGT ISZERO PUSH2 0x3D3A JUMPI PUSH17 0x1000000B1721835514B86E6D96EFD1BFE MUL PUSH1 0x80 SHR JUMPDEST PUSH1 0x0 DUP4 PUSH5 0x8000000000 AND PUSH1 0xF SIGNEXTEND SGT ISZERO PUSH2 0x3D64 JUMPI PUSH17 0x100000058B90C0B48C6BE5DF846C5B2EF MUL PUSH1 0x80 SHR JUMPDEST PUSH1 0x0 DUP4 PUSH5 0x4000000000 AND PUSH1 0xF SIGNEXTEND SGT ISZERO PUSH2 0x3D8E JUMPI PUSH17 0x10000002C5C8601CC6B9E94213C72737A MUL PUSH1 0x80 SHR JUMPDEST PUSH1 0x0 DUP4 PUSH5 0x2000000000 AND PUSH1 0xF SIGNEXTEND SGT ISZERO PUSH2 0x3DB8 JUMPI PUSH17 0x1000000162E42FFF037DF38AA2B219F06 MUL PUSH1 0x80 SHR JUMPDEST PUSH1 0x0 DUP4 PUSH5 0x1000000000 AND PUSH1 0xF SIGNEXTEND SGT ISZERO PUSH2 0x3DE2 JUMPI PUSH17 0x10000000B17217FBA9C739AA5819F44F9 MUL PUSH1 0x80 SHR JUMPDEST PUSH1 0x0 DUP4 PUSH5 0x800000000 AND PUSH1 0xF SIGNEXTEND SGT ISZERO PUSH2 0x3E0C JUMPI PUSH17 0x1000000058B90BFCDEE5ACD3C1CEDC823 MUL PUSH1 0x80 SHR JUMPDEST PUSH1 0x0 DUP4 PUSH5 0x400000000 AND PUSH1 0xF SIGNEXTEND SGT ISZERO PUSH2 0x3E36 JUMPI PUSH17 0x100000002C5C85FE31F35A6A30DA1BE50 MUL PUSH1 0x80 SHR JUMPDEST PUSH1 0x0 DUP4 PUSH5 0x200000000 AND PUSH1 0xF SIGNEXTEND SGT ISZERO PUSH2 0x3E60 JUMPI PUSH17 0x10000000162E42FF0999CE3541B9FFFCF MUL PUSH1 0x80 SHR JUMPDEST PUSH1 0x0 DUP4 PUSH5 0x100000000 AND PUSH1 0xF SIGNEXTEND SGT ISZERO PUSH2 0x3E8A JUMPI PUSH17 0x100000000B17217F80F4EF5AADDA45554 MUL PUSH1 0x80 SHR JUMPDEST PUSH1 0x0 DUP4 PUSH4 0x80000000 AND PUSH1 0xF SIGNEXTEND SGT ISZERO PUSH2 0x3EB3 JUMPI PUSH17 0x10000000058B90BFBF8479BD5A81B51AD MUL PUSH1 0x80 SHR JUMPDEST PUSH1 0x0 DUP4 PUSH4 0x40000000 AND PUSH1 0xF SIGNEXTEND SGT ISZERO PUSH2 0x3EDC JUMPI PUSH17 0x1000000002C5C85FDF84BD62AE30A74CC MUL PUSH1 0x80 SHR JUMPDEST PUSH1 0x0 DUP4 PUSH4 0x20000000 AND PUSH1 0xF SIGNEXTEND SGT ISZERO PUSH2 0x3F05 JUMPI PUSH17 0x100000000162E42FEFB2FED257559BDAA MUL PUSH1 0x80 SHR JUMPDEST PUSH1 0x0 DUP4 PUSH4 0x10000000 AND PUSH1 0xF SIGNEXTEND SGT ISZERO PUSH2 0x3F2E JUMPI PUSH17 0x1000000000B17217F7D5A7716BBA4A9AE MUL PUSH1 0x80 SHR JUMPDEST PUSH1 0x0 DUP4 PUSH4 0x8000000 AND PUSH1 0xF SIGNEXTEND SGT ISZERO PUSH2 0x3F57 JUMPI PUSH17 0x100000000058B90BFBE9DDBAC5E109CCE MUL PUSH1 0x80 SHR JUMPDEST PUSH1 0x0 DUP4 PUSH4 0x4000000 AND PUSH1 0xF SIGNEXTEND SGT ISZERO PUSH2 0x3F80 JUMPI PUSH17 0x10000000002C5C85FDF4B15DE6F17EB0D MUL PUSH1 0x80 SHR JUMPDEST PUSH1 0x0 DUP4 PUSH4 0x2000000 AND PUSH1 0xF SIGNEXTEND SGT ISZERO PUSH2 0x3FA9 JUMPI PUSH17 0x1000000000162E42FEFA494F1478FDE05 MUL PUSH1 0x80 SHR JUMPDEST PUSH1 0x0 DUP4 PUSH4 0x1000000 AND PUSH1 0xF SIGNEXTEND SGT ISZERO PUSH2 0x3FD2 JUMPI PUSH17 0x10000000000B17217F7D20CF927C8E94C MUL PUSH1 0x80 SHR JUMPDEST PUSH1 0x0 DUP4 PUSH3 0x800000 AND PUSH1 0xF SIGNEXTEND SGT ISZERO PUSH2 0x3FFA JUMPI PUSH17 0x1000000000058B90BFBE8F71CB4E4B33D MUL PUSH1 0x80 SHR JUMPDEST PUSH1 0x0 DUP4 PUSH3 0x400000 AND PUSH1 0xF SIGNEXTEND SGT ISZERO PUSH2 0x4022 JUMPI PUSH17 0x100000000002C5C85FDF477B662B26945 MUL PUSH1 0x80 SHR JUMPDEST PUSH1 0x0 DUP4 PUSH3 0x200000 AND PUSH1 0xF SIGNEXTEND SGT ISZERO PUSH2 0x404A JUMPI PUSH17 0x10000000000162E42FEFA3AE53369388C MUL PUSH1 0x80 SHR JUMPDEST PUSH1 0x0 DUP4 PUSH3 0x100000 AND PUSH1 0xF SIGNEXTEND SGT ISZERO PUSH2 0x4072 JUMPI PUSH17 0x100000000000B17217F7D1D351A389D40 MUL PUSH1 0x80 SHR JUMPDEST PUSH1 0x0 DUP4 PUSH3 0x80000 AND PUSH1 0xF SIGNEXTEND SGT ISZERO PUSH2 0x409A JUMPI PUSH17 0x10000000000058B90BFBE8E8B2D3D4EDE MUL PUSH1 0x80 SHR JUMPDEST PUSH1 0x0 DUP4 PUSH3 0x40000 AND PUSH1 0xF SIGNEXTEND SGT ISZERO PUSH2 0x40C2 JUMPI PUSH17 0x1000000000002C5C85FDF4741BEA6E77E MUL PUSH1 0x80 SHR JUMPDEST PUSH1 0x0 DUP4 PUSH3 0x20000 AND PUSH1 0xF SIGNEXTEND SGT ISZERO PUSH2 0x40EA JUMPI PUSH17 0x100000000000162E42FEFA39FE95583C2 MUL PUSH1 0x80 SHR JUMPDEST PUSH1 0x0 DUP4 PUSH3 0x10000 AND PUSH1 0xF SIGNEXTEND SGT ISZERO PUSH2 0x4112 JUMPI PUSH17 0x1000000000000B17217F7D1CFB72B45E1 MUL PUSH1 0x80 SHR JUMPDEST PUSH1 0x0 DUP4 PUSH2 0x8000 AND PUSH1 0xF SIGNEXTEND SGT ISZERO PUSH2 0x4139 JUMPI PUSH17 0x100000000000058B90BFBE8E7CC35C3F0 MUL PUSH1 0x80 SHR JUMPDEST PUSH1 0x0 DUP4 PUSH2 0x4000 AND PUSH1 0xF SIGNEXTEND SGT ISZERO PUSH2 0x4160 JUMPI PUSH17 0x10000000000002C5C85FDF473E242EA38 MUL PUSH1 0x80 SHR JUMPDEST PUSH1 0x0 DUP4 PUSH2 0x2000 AND PUSH1 0xF SIGNEXTEND SGT ISZERO PUSH2 0x4187 JUMPI PUSH17 0x1000000000000162E42FEFA39F02B772C MUL PUSH1 0x80 SHR JUMPDEST PUSH1 0x0 DUP4 PUSH2 0x1000 AND PUSH1 0xF SIGNEXTEND SGT ISZERO PUSH2 0x41AE JUMPI PUSH17 0x10000000000000B17217F7D1CF7D83C1A MUL PUSH1 0x80 SHR JUMPDEST PUSH1 0x0 DUP4 PUSH2 0x800 AND PUSH1 0xF SIGNEXTEND SGT ISZERO PUSH2 0x41D5 JUMPI PUSH17 0x1000000000000058B90BFBE8E7BDCBE2E MUL PUSH1 0x80 SHR JUMPDEST PUSH1 0x0 DUP4 PUSH2 0x400 AND PUSH1 0xF SIGNEXTEND SGT ISZERO PUSH2 0x41FC JUMPI PUSH17 0x100000000000002C5C85FDF473DEA871F MUL PUSH1 0x80 SHR JUMPDEST PUSH1 0x0 DUP4 PUSH2 0x200 AND PUSH1 0xF SIGNEXTEND SGT ISZERO PUSH2 0x4223 JUMPI PUSH17 0x10000000000000162E42FEFA39EF44D91 MUL PUSH1 0x80 SHR JUMPDEST PUSH1 0x0 DUP4 PUSH2 0x100 AND PUSH1 0xF SIGNEXTEND SGT ISZERO PUSH2 0x424A JUMPI PUSH17 0x100000000000000B17217F7D1CF79E949 MUL PUSH1 0x80 SHR JUMPDEST PUSH1 0x0 DUP4 PUSH1 0x80 AND PUSH1 0xF SIGNEXTEND SGT ISZERO PUSH2 0x4270 JUMPI PUSH17 0x10000000000000058B90BFBE8E7BCE544 MUL PUSH1 0x80 SHR JUMPDEST PUSH1 0x0 DUP4 PUSH1 0x40 AND PUSH1 0xF SIGNEXTEND SGT ISZERO PUSH2 0x4296 JUMPI PUSH17 0x1000000000000002C5C85FDF473DE6ECA MUL PUSH1 0x80 SHR JUMPDEST PUSH1 0x0 DUP4 PUSH1 0x20 AND PUSH1 0xF SIGNEXTEND SGT ISZERO PUSH2 0x42BC JUMPI PUSH17 0x100000000000000162E42FEFA39EF366F MUL PUSH1 0x80 SHR JUMPDEST PUSH1 0x0 DUP4 PUSH1 0x10 AND PUSH1 0xF SIGNEXTEND SGT ISZERO PUSH2 0x42E2 JUMPI PUSH17 0x1000000000000000B17217F7D1CF79AFA MUL PUSH1 0x80 SHR JUMPDEST PUSH1 0x0 DUP4 PUSH1 0x8 AND PUSH1 0xF SIGNEXTEND SGT ISZERO PUSH2 0x4308 JUMPI PUSH17 0x100000000000000058B90BFBE8E7BCD6D MUL PUSH1 0x80 SHR JUMPDEST PUSH1 0x0 DUP4 PUSH1 0x4 AND PUSH1 0xF SIGNEXTEND SGT ISZERO PUSH2 0x432E JUMPI PUSH17 0x10000000000000002C5C85FDF473DE6B2 MUL PUSH1 0x80 SHR JUMPDEST PUSH1 0x0 DUP4 PUSH1 0x2 AND PUSH1 0xF SIGNEXTEND SGT ISZERO PUSH2 0x4354 JUMPI PUSH17 0x1000000000000000162E42FEFA39EF358 MUL PUSH1 0x80 SHR JUMPDEST PUSH1 0x0 DUP4 PUSH1 0x1 AND PUSH1 0xF SIGNEXTEND SGT ISZERO PUSH2 0x437A JUMPI PUSH17 0x10000000000000000B17217F7D1CF79AB MUL PUSH1 0x80 SHR JUMPDEST PUSH1 0xF DUP4 DUP2 SIGNEXTEND PUSH1 0x40 SAR PUSH1 0x3F SUB SWAP1 SIGNEXTEND SHR PUSH1 0x1 PUSH1 0x1 PUSH1 0x7F SHL SUB DUP2 GT ISZERO PUSH2 0x4DC JUMPI PUSH1 0x0 DUP1 REVERT JUMPDEST PUSH1 0x0 PUSH2 0x43A6 PUSH2 0x30C3 JUMP JUMPDEST PUSH1 0x0 DUP7 DUP2 MSTORE PUSH1 0x20 DUP3 DUP2 MSTORE PUSH1 0x40 DUP1 DUP4 KECCAK256 DUP9 DUP5 MSTORE DUP3 MSTORE DUP1 DUP4 KECCAK256 DUP7 DUP5 MSTORE DUP3 MSTORE SWAP2 DUP3 SWAP1 KECCAK256 DUP1 DUP11 MSTORE SWAP1 DUP10 ADD DUP8 SWAP1 MSTORE DUP1 SLOAD PUSH1 0x1 PUSH1 0x1 PUSH1 0x50 SHL SUB DUP1 DUP3 AND SWAP4 DUP12 ADD SWAP4 SWAP1 SWAP4 MSTORE PUSH1 0x1 PUSH1 0x50 SHL DUP2 DIV SWAP1 SWAP3 AND PUSH1 0x60 DUP11 ADD MSTORE PUSH4 0xFFFFFFFF PUSH1 0x1 PUSH1 0xA0 SHL DUP4 DIV DUP2 AND PUSH1 0xA0 DUP12 ADD MSTORE PUSH1 0x1 PUSH1 0xC0 SHL DUP4 DIV DUP2 AND PUSH1 0xC0 DUP12 ADD MSTORE PUSH1 0x1 PUSH1 0xE0 SHL SWAP1 SWAP3 DIV SWAP1 SWAP2 AND PUSH1 0xE0 DUP10 ADD MSTORE SWAP1 SWAP2 POP DUP1 DUP5 ISZERO PUSH2 0x4445 JUMPI PUSH1 0x1 DUP3 ADD SLOAD PUSH1 0x1 PUSH1 0x1 PUSH1 0x50 SHL SUB AND PUSH1 0x80 DUP10 ADD MSTORE PUSH2 0x389B JUMP JUMPDEST PUSH1 0x0 PUSH1 0x80 DUP10 ADD MSTORE POP POP POP POP POP POP POP POP JUMP JUMPDEST PUSH2 0x445E PUSH2 0x4E1F JUMP JUMPDEST PUSH1 0x0 PUSH2 0x4468 PUSH2 0x2B00 JUMP JUMPDEST PUSH2 0xFFFF DUP5 AND PUSH1 0x0 SWAP1 DUP2 MSTORE PUSH1 0x20 SWAP2 SWAP1 SWAP2 MSTORE PUSH1 0x40 DUP2 KECCAK256 SLOAD SWAP2 POP PUSH2 0x5A5 SWAP1 DUP3 PUSH2 0x3638 JUMP JUMPDEST PUSH1 0x0 PUSH2 0x5A5 PUSH2 0x4498 DUP5 DUP5 PUSH2 0x1873 JUMP JUMPDEST PUSH4 0x3B9ACA00 PUSH2 0x2036 JUMP JUMPDEST PUSH1 0x0 PUSH1 0x2 DUP3 LT DUP1 ISZERO SWAP1 PUSH2 0x4DC JUMPI POP POP PUSH1 0x8 LT ISZERO SWAP1 JUMP JUMPDEST PUSH1 0x0 DUP1 PUSH2 0x4DC PUSH1 0xC PUSH2 0x2C21 JUMP JUMPDEST PUSH1 0x0 DUP1 PUSH2 0x44D0 PUSH2 0x4864 JUMP JUMPDEST PUSH1 0x1 PUSH1 0x1 PUSH1 0xA0 SHL SUB DUP6 AND PUSH1 0x0 SWAP1 DUP2 MSTORE PUSH1 0x20 SWAP2 DUP3 MSTORE PUSH1 0x40 DUP1 DUP3 KECCAK256 DUP7 DUP4 MSTORE SWAP1 SWAP3 MSTORE KECCAK256 SLOAD SWAP2 POP POP SWAP3 SWAP2 POP POP JUMP JUMPDEST PUSH1 0x0 DUP1 PUSH1 0x0 PUSH2 0x4508 DUP6 PUSH2 0x4871 JUMP JUMPDEST SWAP1 POP PUSH3 0x15180 DUP5 MOD ISZERO PUSH2 0x4522 JUMPI PUSH1 0x0 DUP1 SWAP3 POP SWAP3 POP POP PUSH2 0x45FE JUMP JUMPDEST DUP4 DUP2 LT PUSH2 0x4536 JUMPI PUSH1 0x0 DUP1 SWAP3 POP SWAP3 POP POP PUSH2 0x45FE JUMP JUMPDEST PUSH3 0x15180 DUP2 DUP6 SUB DIV PUSH1 0x5A DUP2 GT PUSH2 0x4553 JUMPI SWAP3 POP PUSH1 0x1 SWAP2 POP PUSH2 0x45FE SWAP1 POP JUMP JUMPDEST PUSH2 0x168 DUP2 GT PUSH2 0x4592 JUMPI PUSH1 0x0 PUSH3 0x15180 PUSH3 0x7E900 DUP5 MOD DIV DUP3 ADD PUSH1 0x59 NOT ADD SWAP1 POP PUSH1 0x6 DUP2 DIV PUSH1 0x5A ADD PUSH1 0x6 DUP3 DUP2 PUSH2 0x4582 JUMPI INVALID JUMPDEST MOD PUSH1 0x0 EQ SWAP5 POP SWAP5 POP POP POP POP PUSH2 0x45FE JUMP JUMPDEST PUSH2 0x870 DUP2 GT PUSH2 0x45C2 JUMPI PUSH1 0x0 PUSH3 0x15180 PUSH3 0x278D00 DUP5 MOD DIV DUP3 ADD PUSH2 0x167 NOT ADD SWAP1 POP PUSH1 0x1E DUP2 DIV PUSH1 0x87 ADD PUSH1 0x1E DUP3 DUP2 PUSH2 0x4582 JUMPI INVALID JUMPDEST PUSH2 0x1DE2 DUP2 GT PUSH2 0x45F2 JUMPI PUSH1 0x0 PUSH3 0x15180 PUSH3 0x76A700 DUP5 MOD DIV DUP3 ADD PUSH2 0x86F NOT ADD SWAP1 POP PUSH1 0x5A DUP2 DIV PUSH1 0xC3 ADD PUSH1 0x5A DUP3 DUP2 PUSH2 0x4582 JUMPI INVALID JUMPDEST PUSH2 0x100 PUSH1 0x0 SWAP4 POP SWAP4 POP POP POP JUMPDEST SWAP3 POP SWAP3 SWAP1 POP JUMP JUMPDEST PUSH1 0x0 PUSH1 0x1 DUP4 LT ISZERO DUP1 ISZERO PUSH2 0x461A JUMPI POP PUSH2 0x100 DUP4 GT ISZERO JUMPDEST PUSH2 0x4623 JUMPI PUSH1 0x0 DUP1 REVERT JUMPDEST DUP2 ISZERO PUSH2 0x463C JUMPI POP PUSH1 0x1 PUSH1 0xFF SHL PUSH1 0x0 NOT DUP4 ADD SHR DUP4 OR PUSH2 0x5A5 JUMP JUMPDEST POP PUSH1 0x1 PUSH1 0xFF SHL PUSH1 0x0 NOT DUP4 ADD SHR NOT DUP4 AND PUSH2 0x5A5 JUMP JUMPDEST PUSH1 0x0 DUP2 PUSH2 0x465F JUMPI POP PUSH1 0x0 PUSH2 0x35D JUMP JUMPDEST PUSH2 0x4668 DUP3 PUSH2 0x488D JUMP JUMPDEST PUSH1 0xFF SUB PUSH1 0x1 ADD SWAP1 POP SWAP2 SWAP1 POP JUMP JUMPDEST PUSH1 0x0 DUP2 PUSH2 0x4681 JUMPI PUSH1 0x0 DUP1 REVERT JUMPDEST PUSH2 0x100 DUP3 GT ISZERO PUSH2 0x4690 JUMPI PUSH1 0x0 DUP1 REVERT JUMPDEST PUSH1 0x0 PUSH2 0x469B DUP5 PUSH2 0x4871 JUMP JUMPDEST SWAP1 POP PUSH1 0x0 PUSH1 0x5A DUP5 GT PUSH2 0x46B6 JUMPI POP PUSH3 0x15180 DUP4 MUL ADD SWAP1 POP PUSH2 0x4DC JUMP JUMPDEST PUSH1 0x87 DUP5 GT PUSH2 0x46DE JUMPI POP PUSH1 0x59 NOT DUP4 ADD PUSH3 0x7E900 SWAP1 DUP2 MUL SWAP1 DUP3 MOD SWAP1 SWAP2 SUB ADD PUSH3 0x76A700 ADD SWAP1 POP PUSH2 0x4DC JUMP JUMPDEST PUSH1 0xC3 DUP5 GT PUSH2 0x4707 JUMPI POP PUSH1 0x86 NOT DUP4 ADD PUSH3 0x278D00 SWAP1 DUP2 MUL SWAP1 DUP3 MOD SWAP1 SWAP2 SUB ADD PUSH4 0x1DA9C00 ADD SWAP1 POP PUSH2 0x4DC JUMP JUMPDEST POP PUSH1 0xC2 NOT DUP4 ADD PUSH3 0x76A700 SWAP1 DUP2 MUL SWAP1 DUP3 MOD SWAP1 SWAP2 SUB ADD PUSH4 0xB1FA800 ADD SWAP1 POP PUSH2 0x4DC JUMP JUMPDEST PUSH1 0x0 DUP1 PUSH2 0x4736 DUP9 DUP9 DUP9 PUSH2 0x346A JUMP JUMPDEST SWAP1 POP DUP5 DUP7 GT PUSH2 0x4746 JUMPI SWAP1 POP PUSH2 0x8E7 JUMP JUMPDEST DUP3 ISZERO PUSH2 0x4760 JUMPI PUSH2 0x4758 DUP5 DUP3 DUP9 DUP9 PUSH2 0x13DE JUMP JUMPDEST SWAP2 POP POP PUSH2 0x8E7 JUMP JUMPDEST PUSH1 0x0 PUSH2 0x476D DUP6 DUP9 DUP9 PUSH2 0x144C JUMP JUMPDEST SWAP1 POP PUSH2 0x477B DUP3 DUP9 DUP9 DUP5 PUSH2 0x1535 JUMP JUMPDEST SWAP3 POP POP POP PUSH2 0x8E7 JUMP JUMPDEST PUSH1 0x60 DUP1 PUSH2 0x4791 DUP5 DUP5 PUSH2 0x4926 JUMP JUMPDEST SWAP2 POP PUSH2 0x3461 DUP3 PUSH2 0x4A3E JUMP JUMPDEST PUSH1 0x0 DUP2 PUSH1 0xFF AND PUSH1 0x96 LT PUSH2 0x47B7 JUMPI PUSH1 0xFF DUP3 AND PUSH3 0x2625A0 MUL PUSH2 0x4DC JUMP JUMPDEST POP PUSH1 0x95 NOT PUSH1 0xFF SWAP2 SWAP1 SWAP2 AND ADD PUSH3 0xE4E1C0 MUL PUSH4 0x165A0BC0 ADD SWAP1 JUMP JUMPDEST PUSH1 0x0 DUP2 SLT ISZERO PUSH2 0x47DE JUMPI PUSH1 0x0 DUP1 REVERT JUMPDEST PUSH1 0x0 PUSH2 0x47E8 PUSH2 0x35E5 JUMP JUMPDEST PUSH1 0x1 PUSH1 0x1 PUSH1 0xA0 SHL SUB DUP6 AND PUSH1 0x0 SWAP1 DUP2 MSTORE PUSH1 0x20 DUP3 DUP2 MSTORE PUSH1 0x40 DUP1 DUP4 KECCAK256 PUSH2 0xFFFF DUP9 AND DUP5 MSTORE SWAP1 SWAP2 MSTORE SWAP1 KECCAK256 SWAP1 SWAP2 POP PUSH2 0x4819 DUP4 PUSH2 0x12D2 JUMP JUMPDEST DUP2 SLOAD PUSH1 0xA SWAP2 SWAP1 SWAP2 SIGNEXTEND PUSH1 0x1 PUSH1 0x1 PUSH1 0x58 SHL SUB AND PUSH1 0x1 PUSH1 0xA8 SHL MUL PUSH1 0x1 PUSH1 0x1 PUSH1 0xA8 SHL SUB SWAP1 SWAP2 AND OR SWAP1 SSTORE POP POP POP POP JUMP JUMPDEST PUSH1 0x0 DUP1 PUSH2 0x4DC PUSH1 0x21 PUSH2 0x2C21 JUMP JUMPDEST PUSH1 0x60 SWAP1 SWAP2 ADD MLOAD PUSH1 0xFF SWAP2 SHR AND PUSH3 0x2625A0 MUL SWAP1 JUMP JUMPDEST PUSH1 0x0 DUP1 PUSH2 0x4DC PUSH1 0xB PUSH2 0x2C21 JUMP JUMPDEST PUSH1 0x0 PUSH3 0x15180 DUP3 LT ISZERO PUSH2 0x4883 JUMPI PUSH1 0x0 DUP1 REVERT JUMPDEST PUSH3 0x15180 DUP3 PUSH2 0x1A34 JUMP JUMPDEST PUSH1 0x0 DUP2 PUSH2 0x4899 JUMPI PUSH1 0x0 DUP1 REVERT JUMPDEST PUSH1 0x1 PUSH1 0x80 SHL DUP3 LT PUSH2 0x48AC JUMPI PUSH1 0x80 SWAP2 DUP3 SHR SWAP2 ADD JUMPDEST PUSH1 0x1 PUSH1 0x40 SHL DUP3 LT PUSH2 0x48BF JUMPI PUSH1 0x40 SWAP2 DUP3 SHR SWAP2 ADD JUMPDEST PUSH5 0x100000000 DUP3 LT PUSH2 0x48D3 JUMPI PUSH1 0x20 SWAP2 DUP3 SHR SWAP2 ADD JUMPDEST PUSH3 0x10000 DUP3 LT PUSH2 0x48E5 JUMPI PUSH1 0x10 SWAP2 DUP3 SHR SWAP2 ADD JUMPDEST PUSH2 0x100 DUP3 LT PUSH2 0x48F6 JUMPI PUSH1 0x8 SWAP2 DUP3 SHR SWAP2 ADD JUMPDEST PUSH1 0x10 DUP3 LT PUSH2 0x4906 JUMPI PUSH1 0x4 SWAP2 DUP3 SHR SWAP2 ADD JUMPDEST PUSH1 0x4 DUP3 LT PUSH2 0x4916 JUMPI PUSH1 0x2 SWAP2 DUP3 SHR SWAP2 ADD JUMPDEST PUSH1 0x2 DUP3 LT PUSH2 0x35D JUMPI PUSH1 0x1 ADD SWAP2 SWAP1 POP JUMP JUMPDEST PUSH1 0x60 PUSH1 0x8 DUP3 PUSH1 0xFF AND GT ISZERO PUSH2 0x4939 JUMPI PUSH1 0x0 DUP1 REVERT JUMPDEST PUSH1 0x0 PUSH2 0x4943 PUSH2 0x4BFF JUMP JUMPDEST PUSH1 0x1 PUSH1 0x1 PUSH1 0xA0 SHL SUB DUP6 AND PUSH1 0x0 SWAP1 DUP2 MSTORE PUSH1 0x20 DUP3 SWAP1 MSTORE PUSH1 0x40 DUP2 KECCAK256 SWAP2 SWAP3 POP PUSH1 0xFF DUP6 AND PUSH8 0xFFFFFFFFFFFFFFFF DUP2 GT DUP1 ISZERO PUSH2 0x4978 JUMPI PUSH1 0x0 DUP1 REVERT JUMPDEST POP PUSH1 0x40 MLOAD SWAP1 DUP1 DUP3 MSTORE DUP1 PUSH1 0x20 MUL PUSH1 0x20 ADD DUP3 ADD PUSH1 0x40 MSTORE DUP1 ISZERO PUSH2 0x49B2 JUMPI DUP2 PUSH1 0x20 ADD JUMPDEST PUSH2 0x499F PUSH2 0x4E8C JUMP JUMPDEST DUP2 MSTORE PUSH1 0x20 ADD SWAP1 PUSH1 0x1 SWAP1 SUB SWAP1 DUP2 PUSH2 0x4997 JUMPI SWAP1 POP JUMPDEST POP SWAP1 POP PUSH1 0x0 JUMPDEST DUP6 PUSH1 0xFF AND DUP2 LT ISZERO PUSH2 0x724 JUMPI PUSH1 0x0 DUP4 DUP3 PUSH1 0x8 DUP2 LT PUSH2 0x49D1 JUMPI INVALID JUMPDEST ADD SWAP1 POP PUSH1 0x0 DUP4 DUP4 DUP2 MLOAD DUP2 LT PUSH2 0x49E2 JUMPI INVALID JUMPDEST PUSH1 0x20 SWAP1 DUP2 MUL SWAP2 SWAP1 SWAP2 ADD DUP2 ADD MLOAD DUP4 SLOAD PUSH2 0xFFFF DUP2 AND DUP3 MSTORE PUSH5 0xFFFFFFFFFF PUSH3 0x10000 DUP3 DIV AND SWAP3 DUP3 ADD SWAP3 SWAP1 SWAP3 MSTORE PUSH1 0xFF PUSH1 0x1 PUSH1 0x38 SHL DUP4 DIV AND PUSH1 0x40 DUP3 ADD MSTORE PUSH1 0x1 PUSH1 0x40 SHL SWAP1 SWAP2 DIV PUSH1 0xA SWAP1 DUP2 SIGNEXTEND SWAP1 SIGNEXTEND PUSH1 0x60 DUP3 ADD MSTORE PUSH1 0x80 ADD SWAP2 SWAP1 SWAP2 MSTORE POP PUSH1 0x1 ADD PUSH2 0x49B8 JUMP JUMPDEST DUP1 MLOAD PUSH1 0x60 SWAP1 DUP1 PUSH8 0xFFFFFFFFFFFFFFFF DUP2 GT DUP1 ISZERO PUSH2 0x4A5A JUMPI PUSH1 0x0 DUP1 REVERT JUMPDEST POP PUSH1 0x40 MLOAD SWAP1 DUP1 DUP3 MSTORE DUP1 PUSH1 0x20 MUL PUSH1 0x20 ADD DUP3 ADD PUSH1 0x40 MSTORE DUP1 ISZERO PUSH2 0x4A84 JUMPI DUP2 PUSH1 0x20 ADD PUSH1 0x20 DUP3 MUL DUP1 CALLDATASIZE DUP4 CALLDATACOPY ADD SWAP1 POP JUMPDEST POP SWAP2 POP PUSH1 0x0 JUMPDEST DUP2 DUP2 LT ISZERO PUSH2 0x4AE1 JUMPI PUSH1 0x0 DUP5 DUP3 DUP2 MLOAD DUP2 LT PUSH2 0x4AA0 JUMPI INVALID JUMPDEST PUSH1 0x20 MUL PUSH1 0x20 ADD ADD MLOAD SWAP1 POP PUSH2 0x4AC1 DUP2 PUSH1 0x0 ADD MLOAD DUP3 PUSH1 0x20 ADD MLOAD DUP4 PUSH1 0x40 ADD MLOAD PUSH2 0x4C0C JUMP JUMPDEST DUP5 DUP4 DUP2 MLOAD DUP2 LT PUSH2 0x4ACD JUMPI INVALID JUMPDEST PUSH1 0x20 SWAP1 DUP2 MUL SWAP2 SWAP1 SWAP2 ADD ADD MSTORE POP PUSH1 0x1 ADD PUSH2 0x4A8A JUMP JUMPDEST POP PUSH1 0x1 JUMPDEST DUP2 DUP2 LT ISZERO PUSH2 0x4BF8 JUMPI DUP1 JUMPDEST PUSH1 0x0 DUP2 GT DUP1 ISZERO PUSH2 0x4B27 JUMPI POP DUP4 DUP2 DUP2 MLOAD DUP2 LT PUSH2 0x4B06 JUMPI INVALID JUMPDEST PUSH1 0x20 MUL PUSH1 0x20 ADD ADD MLOAD DUP5 PUSH1 0x1 DUP4 SUB DUP2 MLOAD DUP2 LT PUSH2 0x4B1D JUMPI INVALID JUMPDEST PUSH1 0x20 MUL PUSH1 0x20 ADD ADD MLOAD GT JUMPDEST ISZERO PUSH2 0x4BEF JUMPI DUP4 DUP2 DUP2 MLOAD DUP2 LT PUSH2 0x4B38 JUMPI INVALID JUMPDEST PUSH1 0x20 MUL PUSH1 0x20 ADD ADD MLOAD DUP5 PUSH1 0x1 DUP4 SUB DUP2 MLOAD DUP2 LT PUSH2 0x4B4F JUMPI INVALID JUMPDEST PUSH1 0x20 MUL PUSH1 0x20 ADD ADD MLOAD DUP6 PUSH1 0x1 DUP5 SUB DUP2 MLOAD DUP2 LT PUSH2 0x4B66 JUMPI INVALID JUMPDEST PUSH1 0x20 MUL PUSH1 0x20 ADD ADD DUP7 DUP5 DUP2 MLOAD DUP2 LT PUSH2 0x4B79 JUMPI INVALID JUMPDEST PUSH1 0x20 MUL PUSH1 0x20 ADD ADD DUP3 DUP2 MSTORE POP DUP3 DUP2 MSTORE POP POP POP DUP5 DUP2 DUP2 MLOAD DUP2 LT PUSH2 0x4B96 JUMPI INVALID JUMPDEST PUSH1 0x20 MUL PUSH1 0x20 ADD ADD MLOAD DUP6 PUSH1 0x1 DUP4 SUB DUP2 MLOAD DUP2 LT PUSH2 0x4BAD JUMPI INVALID JUMPDEST PUSH1 0x20 MUL PUSH1 0x20 ADD ADD MLOAD DUP7 PUSH1 0x1 DUP5 SUB DUP2 MLOAD DUP2 LT PUSH2 0x4BC4 JUMPI INVALID JUMPDEST PUSH1 0x20 MUL PUSH1 0x20 ADD ADD DUP8 DUP5 DUP2 MLOAD DUP2 LT PUSH2 0x4BD7 JUMPI INVALID JUMPDEST PUSH1 0x20 SWAP1 DUP2 MUL SWAP2 SWAP1 SWAP2 ADD ADD SWAP2 SWAP1 SWAP2 MSTORE MSTORE PUSH1 0x0 NOT ADD PUSH2 0x4AEF JUMP JUMPDEST POP PUSH1 0x1 ADD PUSH2 0x4AE5 JUMP JUMPDEST POP POP SWAP2 SWAP1 POP JUMP JUMPDEST PUSH1 0x0 DUP1 PUSH2 0x4DC PUSH1 0xD PUSH2 0x2C21 JUMP JUMPDEST PUSH8 0xFFFF000000000000 PUSH1 0x30 DUP5 SWAP1 SHL AND PUSH6 0xFFFFFFFFFF00 PUSH1 0x8 DUP5 SWAP1 SHL AND OR PUSH1 0xFF DUP3 AND OR SWAP4 SWAP3 POP POP POP JUMP JUMPDEST PUSH1 0x40 MLOAD DUP1 PUSH1 0xE0 ADD PUSH1 0x40 MSTORE DUP1 PUSH2 0x4C48 PUSH2 0x4DBE JUMP JUMPDEST DUP2 MSTORE PUSH1 0x20 ADD PUSH2 0x4C55 PUSH2 0x4E64 JUMP JUMPDEST DUP2 MSTORE PUSH1 0x0 PUSH1 0x20 DUP3 ADD DUP2 SWAP1 MSTORE PUSH1 0x40 DUP3 ADD DUP2 SWAP1 MSTORE PUSH1 0x60 DUP3 ADD DUP2 SWAP1 MSTORE PUSH1 0x80 DUP3 ADD DUP2 SWAP1 MSTORE PUSH1 0xA0 SWAP1 SWAP2 ADD MSTORE SWAP1 JUMP JUMPDEST PUSH1 0x40 MLOAD DUP1 PUSH2 0x140 ADD PUSH1 0x40 MSTORE DUP1 PUSH1 0x0 PUSH2 0xFFFF AND DUP2 MSTORE PUSH1 0x20 ADD PUSH1 0x0 DUP2 MSTORE PUSH1 0x20 ADD PUSH1 0x0 DUP2 MSTORE PUSH1 0x20 ADD PUSH1 0x0 DUP2 MSTORE PUSH1 0x20 ADD PUSH1 0x0 DUP2 MSTORE PUSH1 0x20 ADD PUSH1 0x0 DUP2 MSTORE PUSH1 0x20 ADD PUSH1 0x0 DUP2 MSTORE PUSH1 0x20 ADD PUSH1 0x0 DUP2 MSTORE PUSH1 0x20 ADD PUSH1 0x0 DUP2 MSTORE PUSH1 0x20 ADD PUSH2 0x4CD5 PUSH2 0x4CDA JUMP JUMPDEST SWAP1 MSTORE SWAP1 JUMP JUMPDEST PUSH1 0x40 MLOAD DUP1 PUSH1 0x60 ADD PUSH1 0x40 MSTORE DUP1 PUSH1 0x0 DUP2 MSTORE PUSH1 0x20 ADD PUSH1 0x0 DUP2 MSTORE PUSH1 0x20 ADD PUSH1 0x0 DUP2 MSTORE POP SWAP1 JUMP JUMPDEST PUSH1 0x40 MLOAD DUP1 PUSH2 0x120 ADD PUSH1 0x40 MSTORE DUP1 PUSH1 0x0 DUP2 MSTORE PUSH1 0x20 ADD PUSH1 0x0 DUP2 MSTORE PUSH1 0x20 ADD PUSH1 0x0 DUP2 MSTORE PUSH1 0x20 ADD PUSH1 0x0 DUP2 MSTORE PUSH1 0x20 ADD PUSH1 0x0 DUP2 MSTORE PUSH1 0x20 ADD PUSH1 0x0 DUP2 MSTORE PUSH1 0x20 ADD PUSH1 0x0 DUP2 MSTORE PUSH1 0x20 ADD PUSH1 0x0 DUP2 MSTORE PUSH1 0x20 ADD PUSH1 0x0 DUP2 MSTORE POP SWAP1 JUMP JUMPDEST PUSH1 0x40 MLOAD DUP1 PUSH2 0x100 ADD PUSH1 0x40 MSTORE DUP1 PUSH1 0x0 DUP1 NOT AND DUP2 MSTORE PUSH1 0x20 ADD PUSH1 0x0 DUP2 MSTORE PUSH1 0x20 ADD PUSH1 0x0 DUP2 MSTORE PUSH1 0x20 ADD PUSH1 0x0 DUP2 MSTORE PUSH1 0x20 ADD PUSH1 0x0 DUP2 MSTORE PUSH1 0x20 ADD PUSH1 0x0 DUP2 MSTORE PUSH1 0x20 ADD PUSH1 0x0 DUP2 MSTORE PUSH1 0x20 ADD PUSH1 0x0 DUP2 MSTORE POP SWAP1 JUMP JUMPDEST PUSH1 0x40 DUP1 MLOAD PUSH1 0xA0 DUP2 ADD DUP3 MSTORE PUSH1 0x0 DUP1 DUP3 MSTORE PUSH1 0x20 DUP3 ADD DUP2 SWAP1 MSTORE SWAP2 DUP2 ADD DUP3 SWAP1 MSTORE SWAP1 PUSH1 0x60 DUP3 ADD SWAP1 DUP2 MSTORE PUSH1 0x20 ADD PUSH1 0x0 DUP2 MSTORE POP SWAP1 JUMP JUMPDEST PUSH1 0x40 DUP1 MLOAD PUSH1 0x80 DUP2 ADD DUP3 MSTORE PUSH1 0x0 DUP1 DUP3 MSTORE PUSH1 0x20 DUP3 ADD MSTORE SWAP1 DUP2 ADD PUSH2 0x4DDD PUSH2 0x4CDA JUMP JUMPDEST DUP2 MSTORE PUSH1 0x0 PUSH1 0x20 SWAP1 SWAP2 ADD MSTORE SWAP1 JUMP JUMPDEST PUSH1 0x40 DUP1 MLOAD PUSH1 0xC0 DUP2 ADD DUP3 MSTORE PUSH1 0x0 DUP1 DUP3 MSTORE PUSH1 0x20 DUP3 ADD DUP2 SWAP1 MSTORE SWAP2 DUP2 ADD DUP3 SWAP1 MSTORE PUSH1 0x60 DUP2 ADD DUP3 SWAP1 MSTORE PUSH1 0x80 DUP2 ADD DUP3 SWAP1 MSTORE PUSH1 0xA0 DUP2 ADD SWAP2 SWAP1 SWAP2 MSTORE SWAP1 JUMP JUMPDEST PUSH1 0x40 MLOAD DUP1 PUSH2 0x100 ADD PUSH1 0x40 MSTORE DUP1 PUSH1 0x0 DUP2 MSTORE PUSH1 0x20 ADD PUSH1 0x0 DUP2 MSTORE PUSH1 0x20 ADD PUSH1 0x0 DUP2 MSTORE PUSH1 0x20 ADD PUSH1 0x0 DUP2 MSTORE PUSH1 0x20 ADD PUSH1 0x0 DUP2 MSTORE PUSH1 0x20 ADD PUSH1 0x0 DUP2 MSTORE PUSH1 0x20 ADD PUSH1 0x0 DUP2 MSTORE PUSH1 0x20 ADD PUSH1 0x0 DUP2 MSTORE POP SWAP1 JUMP JUMPDEST PUSH1 0x40 MLOAD DUP1 PUSH1 0x80 ADD PUSH1 0x40 MSTORE DUP1 PUSH1 0x60 DUP2 MSTORE PUSH1 0x20 ADD PUSH1 0x60 DUP2 MSTORE PUSH1 0x20 ADD PUSH1 0x0 DUP2 MSTORE PUSH1 0x20 ADD PUSH1 0x0 DUP2 MSTORE POP SWAP1 JUMP JUMPDEST PUSH1 0x40 MLOAD DUP1 PUSH1 0xC0 ADD PUSH1 0x40 MSTORE DUP1 PUSH1 0x0 PUSH2 0xFFFF AND DUP2 MSTORE PUSH1 0x20 ADD PUSH1 0x0 DUP2 MSTORE PUSH1 0x20 ADD PUSH1 0x0 DUP2 MSTORE PUSH1 0x20 ADD PUSH1 0x0 DUP2 MSTORE PUSH1 0x20 ADD PUSH1 0x0 DUP2 MSTORE PUSH1 0x20 ADD PUSH1 0x0 PUSH1 0x3 DUP2 GT ISZERO PUSH2 0x4CD5 JUMPI INVALID JUMPDEST DUP1 CALLDATALOAD DUP1 ISZERO ISZERO DUP2 EQ PUSH2 0x35D JUMPI PUSH1 0x0 DUP1 REVERT JUMPDEST DUP1 CALLDATALOAD PUSH2 0xFFFF DUP2 AND DUP2 EQ PUSH2 0x35D JUMPI PUSH1 0x0 DUP1 REVERT JUMPDEST DUP1 CALLDATALOAD PUSH4 0xFFFFFFFF DUP2 AND DUP2 EQ PUSH2 0x35D JUMPI PUSH1 0x0 DUP1 REVERT JUMPDEST PUSH1 0x0 DUP1 PUSH1 0x40 DUP4 DUP6 SUB SLT ISZERO PUSH2 0x4F13 JUMPI DUP2 DUP3 REVERT JUMPDEST DUP3 CALLDATALOAD PUSH1 0x1 PUSH1 0x1 PUSH1 0xA0 SHL SUB DUP2 AND DUP2 EQ PUSH2 0x4F29 JUMPI DUP3 DUP4 REVERT JUMPDEST SWAP5 PUSH1 0x20 SWAP4 SWAP1 SWAP4 ADD CALLDATALOAD SWAP4 POP POP POP JUMP JUMPDEST PUSH1 0x0 PUSH1 0x20 DUP3 DUP5 SUB SLT ISZERO PUSH2 0x4F48 JUMPI DUP1 DUP2 REVERT JUMPDEST PUSH2 0x5A5 DUP3 PUSH2 0x4EDB JUMP JUMPDEST PUSH1 0x0 DUP1 PUSH1 0x40 DUP4 DUP6 SUB SLT ISZERO PUSH2 0x4F63 JUMPI DUP2 DUP3 REVERT JUMPDEST PUSH2 0x4F29 DUP4 PUSH2 0x4EDB JUMP JUMPDEST PUSH1 0x0 DUP1 PUSH1 0x0 PUSH1 0x60 DUP5 DUP7 SUB SLT ISZERO PUSH2 0x4F80 JUMPI DUP1 DUP2 REVERT JUMPDEST PUSH2 0x4F89 DUP5 PUSH2 0x4EDB JUMP JUMPDEST SWAP3 POP PUSH1 0x20 DUP5 ADD CALLDATALOAD SWAP2 POP PUSH2 0x4F9E PUSH1 0x40 DUP6 ADD PUSH2 0x4ECB JUMP JUMPDEST SWAP1 POP SWAP3 POP SWAP3 POP SWAP3 JUMP JUMPDEST PUSH1 0x0 DUP1 PUSH1 0x0 DUP1 PUSH1 0x80 DUP6 DUP8 SUB SLT ISZERO PUSH2 0x4FBC JUMPI DUP1 DUP2 REVERT JUMPDEST PUSH2 0x4FC5 DUP6 PUSH2 0x4EDB JUMP JUMPDEST SWAP4 POP PUSH1 0x20 DUP6 ADD CALLDATALOAD DUP1 PUSH1 0xA SIGNEXTEND DUP2 EQ PUSH2 0x4FDA JUMPI DUP2 DUP3 REVERT JUMPDEST SWAP4 SWAP7 SWAP4 SWAP6 POP POP POP POP PUSH1 0x40 DUP3 ADD CALLDATALOAD SWAP2 PUSH1 0x60 ADD CALLDATALOAD SWAP1 JUMP JUMPDEST PUSH1 0x0 DUP1 PUSH1 0x0 DUP1 PUSH1 0x80 DUP6 DUP8 SUB SLT ISZERO PUSH2 0x5004 JUMPI DUP4 DUP5 REVERT JUMPDEST PUSH2 0x500D DUP6 PUSH2 0x4EDB JUMP JUMPDEST SWAP7 PUSH1 0x20 DUP7 ADD CALLDATALOAD SWAP7 POP PUSH1 0x40 DUP7 ADD CALLDATALOAD SWAP6 PUSH1 0x60 ADD CALLDATALOAD SWAP5 POP SWAP3 POP POP POP JUMP JUMPDEST PUSH1 0x0 DUP1 PUSH1 0x0 DUP1 PUSH1 0x0 PUSH1 0xA0 DUP7 DUP9 SUB SLT ISZERO PUSH2 0x503E JUMPI DUP1 DUP2 REVERT JUMPDEST PUSH2 0x5047 DUP7 PUSH2 0x4EDB JUMP JUMPDEST SWAP5 POP PUSH1 0x20 DUP7 ADD CALLDATALOAD SWAP4 POP PUSH1 0x40 DUP7 ADD CALLDATALOAD SWAP3 POP PUSH1 0x60 DUP7 ADD CALLDATALOAD SWAP2 POP PUSH2 0x506A PUSH1 0x80 DUP8 ADD PUSH2 0x4ECB JUMP JUMPDEST SWAP1 POP SWAP3 SWAP6 POP SWAP3 SWAP6 SWAP1 SWAP4 POP JUMP JUMPDEST PUSH1 0x0 DUP1 PUSH1 0x0 DUP1 PUSH1 0x0 PUSH1 0xA0 DUP7 DUP9 SUB SLT ISZERO PUSH2 0x508D JUMPI DUP1 DUP2 REVERT JUMPDEST PUSH2 0x5096 DUP7 PUSH2 0x4EDB JUMP JUMPDEST SWAP5 POP PUSH1 0x20 DUP7 ADD CALLDATALOAD SWAP4 POP PUSH1 0x40 DUP7 ADD CALLDATALOAD SWAP3 POP PUSH2 0x50B2 PUSH1 0x60 DUP8 ADD PUSH2 0x4EED JUMP JUMPDEST SWAP5 SWAP8 SWAP4 SWAP7 POP SWAP2 SWAP5 PUSH1 0x80 ADD CALLDATALOAD SWAP3 SWAP2 POP POP JUMP JUMPDEST PUSH1 0x0 DUP1 PUSH1 0x0 DUP1 PUSH1 0x0 DUP1 PUSH1 0xC0 DUP8 DUP10 SUB SLT ISZERO PUSH2 0x50DB JUMPI DUP1 DUP2 REVERT JUMPDEST PUSH2 0x50E4 DUP8 PUSH2 0x4EDB JUMP JUMPDEST SWAP6 POP PUSH1 0x20 DUP8 ADD CALLDATALOAD SWAP5 POP PUSH1 0x40 DUP8 ADD CALLDATALOAD SWAP4 POP PUSH2 0x5100 PUSH1 0x60 DUP9 ADD PUSH2 0x4EED JUMP JUMPDEST SWAP3 POP PUSH1 0x80 DUP8 ADD CALLDATALOAD SWAP2 POP PUSH2 0x5115 PUSH1 0xA0 DUP9 ADD PUSH2 0x4ECB JUMP JUMPDEST SWAP1 POP SWAP3 SWAP6 POP SWAP3 SWAP6 POP SWAP3 SWAP6 JUMP JUMPDEST PUSH1 0x0 DUP1 PUSH1 0x40 DUP4 DUP6 SUB SLT ISZERO PUSH2 0x5133 JUMPI DUP2 DUP3 REVERT JUMPDEST PUSH2 0x513C DUP4 PUSH2 0x4EDB JUMP JUMPDEST SWAP2 POP PUSH1 0x20 DUP4 ADD CALLDATALOAD PUSH1 0x1 PUSH1 0x1 PUSH1 0x58 SHL SUB DUP2 AND DUP2 EQ PUSH2 0x5157 JUMPI DUP2 DUP3 REVERT JUMPDEST DUP1 SWAP2 POP POP SWAP3 POP SWAP3 SWAP1 POP JUMP JUMPDEST PUSH1 0x0 DUP1 PUSH1 0x40 DUP4 DUP6 SUB SLT ISZERO PUSH2 0x5174 JUMPI DUP2 DUP3 REVERT JUMPDEST POP POP DUP1 CALLDATALOAD SWAP3 PUSH1 0x20 SWAP1 SWAP2 ADD CALLDATALOAD SWAP2 POP JUMP JUMPDEST PUSH1 0x0 DUP1 PUSH1 0x40 DUP4 DUP6 SUB SLT ISZERO PUSH2 0x5195 JUMPI DUP2 DUP3 REVERT JUMPDEST POP POP DUP1 MLOAD PUSH1 0x20 SWAP1 SWAP2 ADD MLOAD SWAP1 SWAP3 SWAP1 SWAP2 POP JUMP JUMPDEST PUSH1 0x1 PUSH1 0x1 PUSH1 0xA0 SHL SUB SWAP2 SWAP1 SWAP2 AND DUP2 MSTORE PUSH1 0x20 ADD SWAP1 JUMP JUMPDEST PUSH1 0x1 PUSH1 0x1 PUSH1 0xA0 SHL SUB SWAP3 SWAP1 SWAP3 AND DUP3 MSTORE PUSH1 0x20 DUP3 ADD MSTORE PUSH1 0x40 ADD SWAP1 JUMP JUMPDEST SWAP1 DUP2 MSTORE PUSH1 0x20 ADD SWAP1 JUMP JUMPDEST SWAP2 DUP3 MSTORE PUSH1 0x20 DUP3 ADD MSTORE PUSH1 0x40 ADD SWAP1 JUMP JUMPDEST PUSH1 0x20 DUP1 DUP3 MSTORE PUSH1 0x16 SWAP1 DUP3 ADD MSTORE PUSH22 0x13585C9AD95D081B9BDD081A5B9A5D1A585B1A5E9959 PUSH1 0x52 SHL PUSH1 0x40 DUP3 ADD MSTORE PUSH1 0x60 ADD SWAP1 JUMP JUMPDEST PUSH1 0x20 DUP1 DUP3 MSTORE PUSH1 0x13 SWAP1 DUP3 ADD MSTORE PUSH19 0x14995C5D5A5C995CC81CD95D1D1B195B595B9D PUSH1 0x6A SHL PUSH1 0x40 DUP3 ADD MSTORE PUSH1 0x60 ADD SWAP1 JUMP JUMPDEST PUSH1 0x20 DUP1 DUP3 MSTORE PUSH1 0xE SWAP1 DUP3 ADD MSTORE PUSH14 0x4E6F20636F6E76657267656E6365 PUSH1 0x90 SHL PUSH1 0x40 DUP3 ADD MSTORE PUSH1 0x60 ADD SWAP1 JUMP JUMPDEST PUSH1 0x20 DUP1 DUP3 MSTORE PUSH1 0xD SWAP1 DUP3 ADD MSTORE PUSH13 0x92DCECC2D8D2C840D2DCC8CAF PUSH1 0x9B SHL PUSH1 0x40 DUP3 ADD MSTORE PUSH1 0x60 ADD SWAP1 JUMP JUMPDEST PUSH1 0x20 DUP1 DUP3 MSTORE PUSH1 0xE SWAP1 DUP3 ADD MSTORE PUSH14 0x125B9D985B1A59081B585C9AD95D PUSH1 0x92 SHL PUSH1 0x40 DUP3 ADD MSTORE PUSH1 0x60 ADD SWAP1 JUMP JUMPDEST PUSH1 0x20 DUP1 DUP3 MSTORE PUSH1 0x16 SWAP1 DUP3 ADD MSTORE PUSH22 0x5472616465206661696C65642C20736C697070616765 PUSH1 0x50 SHL PUSH1 0x40 DUP3 ADD MSTORE PUSH1 0x60 ADD SWAP1 JUMP JUMPDEST PUSH1 0x20 DUP1 DUP3 MSTORE PUSH1 0x12 SWAP1 DUP3 ADD MSTORE PUSH18 0x496E76616C696420626C6F636B2074696D65 PUSH1 0x70 SHL PUSH1 0x40 DUP3 ADD MSTORE PUSH1 0x60 ADD SWAP1 JUMP JUMPDEST PUSH1 0x20 DUP1 DUP3 MSTORE PUSH1 0x13 SWAP1 DUP3 ADD MSTORE PUSH19 0x125B9D985B1A590818DD5C9C995B98DE481A59 PUSH1 0x6A SHL PUSH1 0x40 DUP3 ADD MSTORE PUSH1 0x60 ADD SWAP1 JUMP JUMPDEST PUSH1 0x20 DUP1 DUP3 MSTORE PUSH1 0x11 SWAP1 DUP3 ADD MSTORE PUSH17 0x13DD995C8813585C9AD95D08131A5B5A5D PUSH1 0x7A SHL PUSH1 0x40 DUP3 ADD MSTORE PUSH1 0x60 ADD SWAP1 JUMP JUMPDEST PUSH1 0x20 DUP1 DUP3 MSTORE PUSH1 0x14 SWAP1 DUP3 ADD MSTORE PUSH20 0x13DD995C8811195D9A585D1A5BDB88131A5B5A5D PUSH1 0x62 SHL PUSH1 0x40 DUP3 ADD MSTORE PUSH1 0x60 ADD SWAP1 JUMP JUMPDEST PUSH1 0x0 PUSH2 0x180 DUP3 ADD SWAP1 POP DUP4 MLOAD DUP3 MSTORE PUSH1 0x20 DUP5 ADD MLOAD PUSH1 0x20 DUP4 ADD MSTORE PUSH1 0x40 DUP5 ADD MLOAD PUSH1 0x40 DUP4 ADD MSTORE DUP3 MLOAD PUSH1 0x60 DUP4 ADD MSTORE PUSH1 0x20 DUP4 ADD MLOAD PUSH1 0x80 DUP4 ADD MSTORE PUSH1 0x40 DUP4 ADD MLOAD PUSH1 0xA0 DUP4 ADD MSTORE PUSH1 0x60 DUP4 ADD MLOAD PUSH1 0xC0 DUP4 ADD MSTORE PUSH1 0x80 DUP4 ADD MLOAD PUSH1 0xE0 DUP4 ADD MSTORE PUSH1 0xA0 DUP4 ADD MLOAD PUSH2 0x100 DUP2 DUP2 DUP6 ADD MSTORE PUSH1 0xC0 DUP6 ADD MLOAD PUSH2 0x120 DUP6 ADD MSTORE PUSH1 0xE0 DUP6 ADD MLOAD PUSH2 0x140 DUP6 ADD MSTORE DUP1 DUP6 ADD MLOAD PUSH2 0x160 DUP6 ADD MSTORE POP POP SWAP4 SWAP3 POP POP POP JUMP JUMPDEST SWAP3 DUP4 MSTORE PUSH1 0x20 DUP4 ADD SWAP2 SWAP1 SWAP2 MSTORE PUSH1 0x40 DUP3 ADD MSTORE PUSH1 0x60 ADD SWAP1 JUMP JUMPDEST SWAP4 DUP5 MSTORE PUSH1 0x20 DUP5 ADD SWAP3 SWAP1 SWAP3 MSTORE PUSH1 0xFF AND PUSH1 0x40 DUP4 ADD MSTORE PUSH1 0x60 DUP3 ADD MSTORE PUSH1 0x80 ADD SWAP1 JUMP JUMPDEST PUSH1 0x1 PUSH1 0x1 PUSH1 0x58 SHL SUB SWAP4 SWAP1 SWAP4 AND DUP4 MSTORE PUSH1 0xFF SWAP2 SWAP1 SWAP2 AND PUSH1 0x20 DUP4 ADD MSTORE PUSH1 0x40 DUP3 ADD MSTORE PUSH1 0x60 ADD SWAP1 JUMP JUMPDEST PUSH1 0xFF SWAP2 SWAP1 SWAP2 AND DUP2 MSTORE PUSH1 0x20 ADD SWAP1 JUMP INVALID LOG2 PUSH5 0x6970667358 0x22 SLT KECCAK256 0xA8 PUSH17 0xCEB7C5E9D6DBDBD1E7A06E9A79AB9DC2EB PUSH12 0x58972044594E2AC41A530196 PUSH5 0x736F6C6343 STOP SMOD MOD STOP CALLER ","sha1":"ad860e1a1b042c492169186b9bbc00946f601af3","source":"// SPDX-License-Identifier: BSUL-1.1\npragma solidity =0.7.6;\npragma abicoder v2;\n\nimport {\n    PrimeRate,\n    MarketParameters,\n    Token,\n    CashGroupParameters,\n    nTokenPortfolio,\n    AccountContext,\n    BalanceState,\n    TradeActionType,\n    InterestRateParameters,\n    PrimeCashFactors\n} from \"../global/Types.sol\";\nimport {StorageLayoutV1} from \"../global/StorageLayoutV1.sol\";\nimport {Constants} from \"../global/Constants.sol\";\nimport {SafeInt256} from \"../math/SafeInt256.sol\";\nimport {SafeUint256} from \"../math/SafeUint256.sol\";\n\nimport {AccountContextHandler} from \"../internal/AccountContextHandler.sol\";\nimport {BalanceHandler} from \"../internal/balances/BalanceHandler.sol\";\nimport {TokenHandler} from \"../internal/balances/TokenHandler.sol\";\nimport {Incentives} from \"../internal/balances/Incentives.sol\";\nimport {Market} from \"../internal/markets/Market.sol\";\nimport {CashGroup} from \"../internal/markets/CashGroup.sol\";\nimport {DateTime} from \"../internal/markets/DateTime.sol\";\nimport {InterestRateCurve} from \"../internal/markets/InterestRateCurve.sol\";\nimport {PrimeRateLib} from \"../internal/pCash/PrimeRateLib.sol\";\nimport {PrimeCashExchangeRate} from \"../internal/pCash/PrimeCashExchangeRate.sol\";\nimport {nTokenSupply} from \"../internal/nToken/nTokenSupply.sol\";\nimport {nTokenHandler} from \"../internal/nToken/nTokenHandler.sol\";\nimport {nTokenCalculations} from \"../internal/nToken/nTokenCalculations.sol\";\nimport {AssetHandler} from \"../internal/valuation/AssetHandler.sol\";\n\nimport {nTokenMintAction} from \"./actions/nTokenMintAction.sol\";\nimport {NotionalCalculations} from \"../../interfaces/notional/NotionalCalculations.sol\";\n\ncontract CalculationViews is StorageLayoutV1, NotionalCalculations {\n    using TokenHandler for Token;\n    using Market for MarketParameters;\n    using PrimeRateLib for PrimeRate;\n    using CashGroup for CashGroupParameters;\n    using nTokenHandler for nTokenPortfolio;\n    using AccountContextHandler for AccountContext;\n    using BalanceHandler for BalanceState;\n    using SafeInt256 for int256;\n    using SafeUint256 for uint256;\n\n    function _checkValidCurrency(uint16 currencyId) internal view {\n        require(0 < currencyId && currencyId <= maxCurrencyId, \"Invalid currency id\");\n    }\n\n    /** General Calculation View Methods **/\n\n    /// @notice Returns the nTokens that will be minted when some amount of asset tokens are deposited\n    /// @param currencyId id number of the currency\n    /// @param amountToDepositExternalPrecision amount of underlying tokens in native precision\n    /// @return the amount of nTokens that will be minted\n    function calculateNTokensToMint(uint16 currencyId, uint88 amountToDepositExternalPrecision)\n        external\n        view\n        override\n        returns (uint256)\n    {\n        _checkValidCurrency(currencyId);\n        Token memory token = TokenHandler.getUnderlyingToken(currencyId);\n        int256 amountToDepositInternal = token.convertToInternal(int256(amountToDepositExternalPrecision));\n        nTokenPortfolio memory nToken;\n        nToken.loadNTokenPortfolioView(currencyId);\n\n        int256 tokensToMint = nTokenCalculations.calculateTokensToMint(\n            nToken,\n            nToken.cashGroup.primeRate.convertFromUnderlying(amountToDepositInternal),\n            block.timestamp\n        );\n\n        return tokensToMint.toUint();\n    }\n\n    function convertNTokenToUnderlying(uint16 currencyId, int256 nTokenBalance) external view override returns (int256) {\n        (int256 totalPrimePV, nTokenPortfolio memory nToken) = _getNTokenPV(currencyId);\n        int256 valueInPrimeCash = nTokenBalance.mul(totalPrimePV).div(nToken.totalSupply);\n        int256 valueInUnderlying = nToken.cashGroup.primeRate.convertToUnderlying(valueInPrimeCash);\n        return _convertToAmountExternal(currencyId, valueInUnderlying.abs()).toInt();\n    }\n\n    /// @notice Returns the present value of the nToken's assets denominated in asset tokens\n    function nTokenPresentValueAssetDenominated(uint16 currencyId) external view override returns (int256) {\n        (int256 totalPrimePV, /* */) = _getNTokenPV(currencyId);\n        return totalPrimePV;\n    }\n\n    /// @notice Returns the present value of the nToken's assets denominated in underlying\n    function nTokenPresentValueUnderlyingDenominated(uint16 currencyId) external view override returns (int256) {\n        (int256 totalPrimePV, nTokenPortfolio memory nToken) = _getNTokenPV(currencyId);\n        return nToken.cashGroup.primeRate.convertToUnderlying(totalPrimePV);\n    }\n\n    function _getNTokenPV(uint16 currencyId) private view returns (int256, nTokenPortfolio memory) {\n        uint256 blockTime = block.timestamp;\n        nTokenPortfolio memory nToken;\n        nToken.loadNTokenPortfolioView(currencyId);\n\n        int256 totalPrimePV = nTokenCalculations.getNTokenPrimePV(nToken, blockTime);\n        return (totalPrimePV, nToken);\n    }\n\n    /// @notice Returns the fCash amount to send when given a cash amount, be sure to buffer these amounts\n    /// slightly because the liquidity curve is sensitive to changes in block time\n    /// @param currencyId id number of the currency\n    /// @param netCashToAccount denominated in underlying terms in 1e8 decimal precision,\n    //// positive for borrowing, negative for lending\n    /// @param marketIndex market index of the fCash market\n    /// @param blockTime the block time for when the trade will be calculated\n    /// @return the fCash amount from the trade, positive when lending, negative when borrowing. Always in 8 decimals.\n    function getfCashAmountGivenCashAmount(\n        uint16 currencyId,\n        int88 netCashToAccount,\n        uint256 marketIndex,\n        uint256 blockTime\n    ) external view override returns (int256) {\n        _checkValidCurrency(currencyId);\n        CashGroupParameters memory cashGroup = CashGroup.buildCashGroupView(currencyId);\n        return _getfCashAmountGivenCashAmount(netCashToAccount, marketIndex, blockTime, cashGroup);\n    }\n        \n    function _getfCashAmountGivenCashAmount(\n        int88 netUnderlyingToAccount,\n        uint256 marketIndex,\n        uint256 blockTime,\n        CashGroupParameters memory cashGroup\n    ) internal view returns (int256) {\n        MarketParameters memory market;\n        cashGroup.loadMarket(market, marketIndex, false, blockTime);\n\n        require(market.maturity > blockTime, \"Invalid block time\");\n        uint256 timeToMaturity = market.maturity - blockTime;\n        InterestRateParameters memory irParams = InterestRateCurve.getActiveInterestRateParameters(\n            cashGroup.currencyId, marketIndex\n        );\n\n        return InterestRateCurve.getfCashGivenCashAmount(\n            irParams,\n            market.totalfCash,\n            netUnderlyingToAccount,\n            cashGroup.primeRate.convertToUnderlying(market.totalPrimeCash),\n            timeToMaturity\n        );\n    }\n\n    /// @notice Returns the cash amount that will be traded given an fCash amount, be sure to buffer these amounts\n    /// slightly because the liquidity curve is sensitive to changes in block time\n    /// @param currencyId id number of the currency\n    /// @param fCashAmount amount of fCash to trade, negative for borrowing, positive for lending\n    /// @param marketIndex market index of the fCash market\n    /// @param blockTime the block time for when the trade will be calculated\n    /// @return net asset cash amount (positive for borrowing, negative for lending) in 8 decimal precision\n    /// @return underlying cash amount (positive for borrowing, negative for lending) in 8 decimal precision\n    function getCashAmountGivenfCashAmount(\n        uint16 currencyId,\n        int88 fCashAmount,\n        uint256 marketIndex,\n        uint256 blockTime\n    ) external view override returns (int256, int256) {\n        return _getCashAmountGivenfCashAmount(currencyId, fCashAmount, marketIndex, blockTime, 0);\n    }\n\n    function _getCashAmountGivenfCashAmount(\n        uint16 currencyId,\n        int88 fCashAmount,\n        uint256 marketIndex,\n        uint256 blockTime, \n        uint256 rateLimit\n    ) internal view returns (int256, int256) {\n        _checkValidCurrency(currencyId);\n        CashGroupParameters memory cashGroup = CashGroup.buildCashGroupView(currencyId);\n        MarketParameters memory market;\n        cashGroup.loadMarket(market, marketIndex, false, blockTime);\n\n        require(market.maturity > blockTime, \"Invalid block time\");\n        uint256 timeToMaturity = market.maturity - blockTime;\n\n        // prettier-ignore\n        (int256 primeCash, /* int fee */, uint256 postFeeInterestRate) =\n            InterestRateCurve.calculatefCashTrade(market, cashGroup, fCashAmount, timeToMaturity, marketIndex);\n\n        // Check the slippage here and revert\n        if (rateLimit != 0) {\n            if (fCashAmount < 0) {\n                // Do not allow borrows over the rate limit\n                require(postFeeInterestRate <= rateLimit, \"Trade failed, slippage\");\n            } else {\n                // Do not allow lends under the rate limit\n                require(postFeeInterestRate >= rateLimit, \"Trade failed, slippage\");\n            }\n        }\n\n        return (primeCash, cashGroup.primeRate.convertToUnderlying(primeCash));\n    }\n\n    /// @notice Returns the claimable incentives for all nToken balances\n    /// @param account The address of the account which holds the tokens\n    /// @param blockTime The block time when incentives will be minted\n    /// @return Incentives an account is eligible to claim\n    function nTokenGetClaimableIncentives(address account, uint256 blockTime)\n        external\n        view\n        override\n        returns (uint256)\n    {\n        AccountContext memory accountContext = AccountContextHandler.getAccountContext(account);\n        BalanceState memory balanceState;\n        uint256 totalIncentivesClaimable;\n\n        if (accountContext.isBitmapEnabled()) {\n            balanceState.loadBalanceStateView(account, accountContext.bitmapCurrencyId, accountContext);\n            if (balanceState.storedNTokenBalance > 0) {\n                address tokenAddress = nTokenHandler.nTokenAddress(balanceState.currencyId);\n                (\n                    /* uint256 totalSupply */,\n                    uint256 accumulatedNOTEPerNToken,\n                    /* uint256 lastAccumulatedTime */\n                ) = nTokenSupply.getUpdatedAccumulatedNOTEPerNToken(tokenAddress, blockTime);\n\n                uint256 incentivesToClaim = Incentives.calculateIncentivesToClaim(\n                    balanceState,\n                    tokenAddress,\n                    accumulatedNOTEPerNToken,\n                    balanceState.storedNTokenBalance.toUint()\n                );\n                totalIncentivesClaimable = totalIncentivesClaimable.add(incentivesToClaim);\n            }\n        }\n\n        bytes18 currencies = accountContext.activeCurrencies;\n        while (currencies != 0) {\n            uint16 currencyId = uint16(bytes2(currencies) & Constants.UNMASK_FLAGS);\n            balanceState.loadBalanceStateView(account, currencyId, accountContext);\n\n            if (balanceState.storedNTokenBalance > 0) {\n                address tokenAddress = nTokenHandler.nTokenAddress(balanceState.currencyId);\n                (\n                    /* uint256 totalSupply */,\n                    uint256 accumulatedNOTEPerNToken,\n                    /* uint256 lastAccumulatedTime */\n                ) = nTokenSupply.getUpdatedAccumulatedNOTEPerNToken(tokenAddress, blockTime);\n\n                uint256 incentivesToClaim = Incentives.calculateIncentivesToClaim(\n                    balanceState,\n                    tokenAddress,\n                    accumulatedNOTEPerNToken,\n                    balanceState.storedNTokenBalance.toUint()\n                );\n                totalIncentivesClaimable = totalIncentivesClaimable.add(incentivesToClaim);\n            }\n\n            currencies = currencies << 16;\n        }\n\n        return totalIncentivesClaimable;\n    }\n\n    /// @notice Returns the present value of the given fCash amount using Notional internal oracle rates\n    /// @param currencyId id number of the currency\n    /// @param maturity timestamp of the fCash maturity\n    /// @param notional amount of fCash notional\n    /// @param blockTime the block time for when the trade will be calculated\n    /// @param riskAdjusted true if haircuts and buffers should be applied to the oracle rate\n    /// @return presentValue of fCash in 8 decimal precision and underlying denomination\n    function getPresentfCashValue(\n        uint16 currencyId,\n        uint256 maturity,\n        int256 notional,\n        uint256 blockTime,\n        bool riskAdjusted\n    ) external view override returns (int256 presentValue) {\n        CashGroupParameters memory cg = CashGroup.buildCashGroupView(currencyId);\n        if (riskAdjusted) {\n            presentValue = AssetHandler.getRiskAdjustedPresentfCashValue(\n                cg, notional, maturity, blockTime\n            );\n        } else {\n            presentValue = AssetHandler.getPresentfCashValue(\n                notional,\n                maturity,\n                blockTime,\n                cg.calculateOracleRate(maturity, blockTime)\n            );\n        }\n    }\n\n    /// @notice Returns a market index value for a given maturity\n    /// @param maturity an fCash maturity\n    /// @param blockTime the block time for when the trade will be calculated\n    /// @return marketIndex a value between 1 and 7 that represents the marketIndex (tenor)\n    /// that corresponds to the maturity. Returns 0 if there is no corresponding marketIndex\n    function getMarketIndex(\n        uint256 maturity,\n        uint256 blockTime\n    ) public pure override returns (uint8 marketIndex) {\n        (\n            uint256 _marketIndex,\n            bool isIdiosyncratic\n        ) = DateTime.getMarketIndex(Constants.MAX_TRADED_MARKET_INDEX, maturity, blockTime);\n\n        // Market Index cannot be greater than 7 by construction\n        marketIndex = isIdiosyncratic ? 0 : uint8(_marketIndex);\n    }\n\n    /// @notice Returns the amount of fCash that would received if lending deposit amount.\n    /// @param currencyId id number of the currency\n    /// @param depositAmountExternal amount to deposit in the token's native precision. For aTokens use\n    /// what is returned by the balanceOf selector (not scaledBalanceOf).\n    /// @param maturity the maturity of the fCash to lend\n    /// @param minLendRate the minimum lending rate (slippage protection)\n    /// @param blockTime the block time for when the trade will be calculated\n    /// @param useUnderlying true if specifying the underlying token, false if specifying prime cash\n    /// @return fCashAmount the amount of fCash that the lender will receive\n    /// @return marketIndex the corresponding market index for the lending\n    /// @return encodedTrade the encoded bytes32 object to pass to batch trade\n    function getfCashLendFromDeposit(\n        uint16 currencyId,\n        uint256 depositAmountExternal,\n        uint256 maturity,\n        uint32 minLendRate,\n        uint256 blockTime,\n        bool useUnderlying\n    ) external view override returns (\n        uint88 fCashAmount,\n        uint8 marketIndex,\n        bytes32 encodedTrade\n    ) {\n        marketIndex = getMarketIndex(maturity, blockTime);\n        require(marketIndex > 0);\n\n        (\n            int256 underlyingInternal,\n            CashGroupParameters memory cashGroup\n        ) = _convertDepositAmountToUnderlyingInternal(currencyId, depositAmountExternal, useUnderlying);\n        int256 fCash = _getfCashAmountGivenCashAmount(underlyingInternal.neg().toInt88(), marketIndex, blockTime, cashGroup);\n        require(0 < fCash);\n\n        (\n            encodedTrade,\n            fCashAmount\n        ) = _encodeLendBorrowTrade(TradeActionType.Lend, marketIndex, fCash, minLendRate);\n    }\n\n    /// @notice Returns the amount of fCash that would received if lending deposit amount.\n    /// @param currencyId id number of the currency\n    /// @param borrowedAmountExternal amount to borrow in the token's native precision.\n    /// @param maturity the maturity of the fCash to lend\n    /// @param maxBorrowRate the maximum borrow rate (slippage protection). If zero then no slippage will be applied\n    /// @param blockTime the block time for when the trade will be calculated\n    /// @param useUnderlying true if specifying the underlying token, false if specifying prime cash\n    /// @return fCashDebt the amount of fCash that the borrower will owe, this will be stored as a negative\n    /// balance in Notional\n    /// @return marketIndex the corresponding market index for the lending\n    /// @return encodedTrade the encoded bytes32 object to pass to batch trade\n    function getfCashBorrowFromPrincipal(\n        uint16 currencyId,\n        uint256 borrowedAmountExternal,\n        uint256 maturity,\n        uint32 maxBorrowRate,\n        uint256 blockTime,\n        bool useUnderlying\n    ) external view override returns (\n        uint88 fCashDebt,\n        uint8 marketIndex,\n        bytes32 encodedTrade\n    ) {\n        marketIndex = getMarketIndex(maturity, blockTime);\n        require(marketIndex > 0);\n\n        (\n            int256 underlyingInternal,\n            CashGroupParameters memory cashGroup\n        ) = _convertDepositAmountToUnderlyingInternal(currencyId, borrowedAmountExternal, useUnderlying);\n        int256 fCash = _getfCashAmountGivenCashAmount(underlyingInternal.toInt88(), marketIndex, blockTime, cashGroup);\n        require(fCash < 0);\n\n        (\n            encodedTrade,\n            fCashDebt\n        ) = _encodeLendBorrowTrade(TradeActionType.Borrow, marketIndex, fCash, maxBorrowRate);\n    }\n\n    /// @notice Returns the amount of underlying cash and asset cash required to lend fCash. When specifying a\n    /// trade, deposit either underlying or asset tokens (not both). Asset tokens tend to be more gas efficient.\n    /// @param currencyId id number of the currency\n    /// @param fCashAmount amount of fCash (in underlying) that will be received at maturity. Always 8 decimal precision.\n    /// @param maturity the maturity of the fCash to lend\n    /// @param minLendRate the minimum lending rate (slippage protection)\n    /// @param blockTime the block time for when the trade will be calculated\n    /// @return depositAmountUnderlying the amount of underlying tokens the lender must deposit\n    /// @return depositAmountPrimeCash the amount of prime cash tokens the lender must deposit or mint\n    /// @return marketIndex the corresponding market index for the lending\n    /// @return encodedTrade the encoded bytes32 object to pass to batch trade\n    function getDepositFromfCashLend(\n        uint16 currencyId,\n        uint256 fCashAmount,\n        uint256 maturity,\n        uint32 minLendRate,\n        uint256 blockTime\n    ) external view override returns (\n        uint256 depositAmountUnderlying,\n        uint256 depositAmountPrimeCash,\n        uint8 marketIndex,\n        bytes32 encodedTrade\n    ) {\n        marketIndex = getMarketIndex(maturity, blockTime);\n        require(marketIndex > 0);\n        require(fCashAmount < uint256(int256(type(int88).max)));\n\n        int88 fCash = int88(SafeInt256.toInt(fCashAmount));\n        (\n            int256 primeCash,\n            int256 underlyingCashInternal\n        ) = _getCashAmountGivenfCashAmount(currencyId, fCash, marketIndex, blockTime, minLendRate);\n\n        depositAmountUnderlying = _convertToAmountExternal(currencyId, underlyingCashInternal);\n        depositAmountPrimeCash = primeCash.neg().toUint();\n        (encodedTrade, /* */) = _encodeLendBorrowTrade(TradeActionType.Lend, marketIndex, fCash, minLendRate);\n    }\n\n    /// @notice Returns the amount of underlying cash and asset cash required to borrow fCash. When specifying a\n    /// trade, choose to receive either underlying or asset tokens (not both). Asset tokens tend to be more gas efficient.\n    /// @param currencyId id number of the currency\n    /// @param fCashBorrow amount of fCash (in underlying) that will be received at maturity. Always 8 decimal precision.\n    /// @param maturity the maturity of the fCash to lend\n    /// @param maxBorrowRate the maximum borrow rate (slippage protection)\n    /// @param blockTime the block time for when the trade will be calculated\n    /// @return borrowAmountUnderlying the amount of underlying tokens the borrower will receive\n    /// @return borrowAmountPrimeCash the amount of prime cash tokens the borrower will receive\n    /// @return marketIndex the corresponding market index for the lending\n    /// @return encodedTrade the encoded bytes32 object to pass to batch trade\n    function getPrincipalFromfCashBorrow(\n        uint16 currencyId,\n        uint256 fCashBorrow,\n        uint256 maturity,\n        uint32 maxBorrowRate,\n        uint256 blockTime\n    ) external view override returns (\n        uint256 borrowAmountUnderlying,\n        uint256 borrowAmountPrimeCash,\n        uint8 marketIndex,\n        bytes32 encodedTrade\n    ) {\n        marketIndex = getMarketIndex(maturity, blockTime);\n        require(marketIndex > 0);\n        require(fCashBorrow < uint256(int256(type(int88).max)));\n\n        int88 fCash = int88(SafeInt256.toInt(fCashBorrow).neg());\n        (\n            int256 primeCash,\n            int256 underlyingCashInternal\n        ) = _getCashAmountGivenfCashAmount(currencyId, fCash, marketIndex, blockTime, maxBorrowRate);\n\n        borrowAmountUnderlying = _convertToAmountExternal(currencyId, underlyingCashInternal);\n        borrowAmountPrimeCash = primeCash.toUint();\n        (encodedTrade, /* */) = _encodeLendBorrowTrade(TradeActionType.Borrow, marketIndex, fCash, maxBorrowRate);\n    }\n\n    /// @notice Converts an prime cash balance to an external token denomination\n    /// @param currencyId the currency id of the cash balance\n    /// @param primeCashBalance the signed cash balance that is stored in Notional\n    /// @param convertToUnderlying true if the value should be converted to underlying\n    /// @return the cash balance converted to the external token denomination\n    function convertCashBalanceToExternal(\n        uint16 currencyId,\n        int256 primeCashBalance,\n        bool convertToUnderlying\n    ) external view override returns (int256) {\n        // Prime cash is just 1-1 with itself, no external conversion\n        if (!convertToUnderlying) return primeCashBalance;\n\n        (PrimeRate memory pr, /* */) = PrimeCashExchangeRate\n            .getPrimeCashRateView(currencyId, block.timestamp);\n\n        int256 underlyingBalance = pr.convertToUnderlying(primeCashBalance);\n        int256 externalAmount = _convertToAmountExternal(currencyId, underlyingBalance.abs()).toInt();\n        return underlyingBalance < 0 ? externalAmount.neg() : externalAmount;\n    }\n\n    /// @notice Converts an underlying balance to prime cash\n    /// @param currencyId the currency id of the cash balance\n    /// @param underlyingExternal the underlying external token balance\n    /// @return the underlying balance converted to prime cash\n    function convertUnderlyingToPrimeCash(\n        uint16 currencyId,\n        int256 underlyingExternal\n    ) external view override returns (int256) {\n        (PrimeRate memory pr, /* */) = PrimeCashExchangeRate.getPrimeCashRateView(currencyId, block.timestamp);\n        Token memory token = TokenHandler.getUnderlyingToken(currencyId);\n        int256 underlyingInternal = token.convertToInternal(underlyingExternal);\n        return pr.convertFromUnderlying(underlyingInternal);\n    }\n\n    /// @notice Converts fCash to its settled prime cash value at the specified block time\n    /// @param currencyId the currency id of the fCash asset\n    /// @param maturity the timestamp when the fCash asset matures\n    /// @param fCashBalance signed balance of fcash\n    /// @param blockTime block time to convert to settled prime value, must be greater than maturity\n    /// @return signedPrimeSupplyValue amount of prime cash to be received or owed to the protocol\n    function convertSettledfCash(\n        uint16 currencyId,\n        uint256 maturity,\n        int256 fCashBalance,\n        uint256 blockTime\n    ) external view override returns (int256 signedPrimeSupplyValue) {\n        require(maturity <= blockTime);\n        (PrimeRate memory pr, /* */) = PrimeCashExchangeRate.getPrimeCashRateView(currencyId, blockTime);\n        return pr.convertSettledfCashView(currencyId, maturity, fCashBalance, blockTime);\n    }\n\n    /// @notice Accrues prime interest and updates state up to the current block\n    function accruePrimeInterest(\n        uint16 currencyId\n    ) external override returns (PrimeRate memory pr, PrimeCashFactors memory factors) {\n        pr = PrimeRateLib.buildPrimeRateStateful(currencyId);\n        factors = PrimeCashExchangeRate.getPrimeCashFactors(currencyId);\n    }\n\n    function _convertToAmountExternal(uint16 currencyId, int256 depositAmountInternal) private view returns (uint256) {\n        Token memory token = TokenHandler.getUnderlyingToken(currencyId);\n        int256 amountExternal = depositAmountInternal < 0 ?\n            // We have to do a special rounding adjustment for underlying internal deposits from lending.\n            token.convertToUnderlyingExternalWithAdjustment(depositAmountInternal.neg()) :\n            token.convertToExternal(depositAmountInternal).abs();\n\n        return SafeInt256.toUint(amountExternal);\n    }\n\n    /// @notice Converts an external deposit amount to an internal deposit amount\n    function _convertDepositAmountToUnderlyingInternal(\n        uint16 currencyId,\n        uint256 depositAmountExternal,\n        bool useUnderlying\n    ) private view returns (int256 underlyingInternal, CashGroupParameters memory cashGroup) {\n        int256 depositAmount = depositAmountExternal.toInt();\n        cashGroup = CashGroup.buildCashGroupView(currencyId);\n\n        if (useUnderlying) {\n            Token memory token = TokenHandler.getUnderlyingToken(currencyId);\n            underlyingInternal = token.convertToInternal(depositAmount);\n        } else {\n            // In this case, depositAmount is prime cash denominated\n            underlyingInternal = cashGroup.primeRate.convertToUnderlying(depositAmount);\n        }\n    }\n\n    function _encodeLendBorrowTrade(\n        TradeActionType actionType,\n        uint8 marketIndex,\n        int256 fCash,\n        uint32 slippage\n    ) private pure returns (bytes32 encodedTrade, uint88 fCashAmount) {\n        uint256 absfCash = uint256(fCash.abs());\n        require(absfCash <= uint256(type(uint88).max));\n\n        encodedTrade = bytes32(\n            (uint256(uint8(actionType)) << 248) |\n            (uint256(marketIndex) << 240) |\n            (uint256(absfCash) << 152) |\n            (uint256(slippage) << 120)\n        );\n\n        fCashAmount = uint88(absfCash);\n    }\n}","sourcePath":"contracts/external/CalculationViews.sol","type":"contract","deployment":{"address":"0xC6f5bA780B78DB117233D5F76da9E2032a312A9e","chainid":"1","blockHeight":19484719}}