{"abi":[{"inputs":[{"internalType":"contract NotionalProxy","name":"notional_","type":"address"}],"stateMutability":"nonpayable","type":"constructor","name":"constructor"},{"anonymous":false,"inputs":[{"indexed":true,"internalType":"address","name":"owner","type":"address"},{"indexed":true,"internalType":"address","name":"spender","type":"address"},{"indexed":false,"internalType":"uint256","name":"value","type":"uint256"}],"name":"Approval","type":"event"},{"anonymous":false,"inputs":[{"indexed":true,"internalType":"address","name":"caller","type":"address"},{"indexed":true,"internalType":"address","name":"owner","type":"address"},{"indexed":false,"internalType":"uint256","name":"assets","type":"uint256"},{"indexed":false,"internalType":"uint256","name":"shares","type":"uint256"}],"name":"Deposit","type":"event"},{"anonymous":false,"inputs":[],"name":"ProxyRenamed","type":"event"},{"anonymous":false,"inputs":[{"indexed":true,"internalType":"address","name":"from","type":"address"},{"indexed":true,"internalType":"address","name":"to","type":"address"},{"indexed":false,"internalType":"uint256","name":"value","type":"uint256"}],"name":"Transfer","type":"event"},{"anonymous":false,"inputs":[{"indexed":true,"internalType":"address","name":"caller","type":"address"},{"indexed":true,"internalType":"address","name":"receiver","type":"address"},{"indexed":true,"internalType":"address","name":"owner","type":"address"},{"indexed":false,"internalType":"uint256","name":"assets","type":"uint256"},{"indexed":false,"internalType":"uint256","name":"shares","type":"uint256"}],"name":"Withdraw","type":"event"},{"inputs":[],"name":"EXCHANGE_RATE_PRECISION","outputs":[{"internalType":"uint256","name":"","type":"uint256"}],"stateMutability":"view","type":"function"},{"inputs":[],"name":"NOTIONAL","outputs":[{"internalType":"contract NotionalProxy","name":"","type":"address"}],"stateMutability":"view","type":"function"},{"inputs":[{"internalType":"address","name":"account","type":"address"},{"internalType":"address","name":"spender","type":"address"}],"name":"allowance","outputs":[{"internalType":"uint256","name":"","type":"uint256"}],"stateMutability":"view","type":"function"},{"inputs":[{"internalType":"address","name":"spender","type":"address"},{"internalType":"uint256","name":"amount","type":"uint256"}],"name":"approve","outputs":[{"internalType":"bool","name":"ret","type":"bool"}],"stateMutability":"nonpayable","type":"function"},{"inputs":[],"name":"asset","outputs":[{"internalType":"address","name":"","type":"address"}],"stateMutability":"view","type":"function"},{"inputs":[{"internalType":"address","name":"account","type":"address"}],"name":"balanceOf","outputs":[{"internalType":"uint256","name":"","type":"uint256"}],"stateMutability":"view","type":"function"},{"inputs":[{"internalType":"uint256","name":"shares","type":"uint256"}],"name":"convertToAssets","outputs":[{"internalType":"uint256","name":"assets","type":"uint256"}],"stateMutability":"view","type":"function"},{"inputs":[{"internalType":"uint256","name":"assets","type":"uint256"}],"name":"convertToShares","outputs":[{"internalType":"uint256","name":"shares","type":"uint256"}],"stateMutability":"view","type":"function"},{"inputs":[],"name":"currencyId","outputs":[{"internalType":"uint16","name":"","type":"uint16"}],"stateMutability":"view","type":"function"},{"inputs":[],"name":"decimals","outputs":[{"internalType":"uint8","name":"","type":"uint8"}],"stateMutability":"view","type":"function"},{"inputs":[{"internalType":"uint256","name":"assets","type":"uint256"},{"internalType":"address","name":"receiver","type":"address"}],"name":"deposit","outputs":[{"internalType":"uint256","name":"shares","type":"uint256"}],"stateMutability":"nonpayable","type":"function"},{"inputs":[{"internalType":"address","name":"account","type":"address"},{"internalType":"int256","name":"netBalance","type":"int256"}],"name":"emitMintOrBurn","outputs":[],"stateMutability":"nonpayable","type":"function"},{"inputs":[{"internalType":"address","name":"minter","type":"address"},{"internalType":"address","name":"burner","type":"address"},{"internalType":"uint256","name":"mintAmount","type":"uint256"},{"internalType":"uint256","name":"transferAndBurnAmount","type":"uint256"}],"name":"emitMintTransferBurn","outputs":[],"stateMutability":"nonpayable","type":"function"},{"inputs":[{"internalType":"address","name":"from","type":"address"},{"internalType":"address","name":"to","type":"address"},{"internalType":"uint256","name":"amount","type":"uint256"}],"name":"emitTransfer","outputs":[],"stateMutability":"nonpayable","type":"function"},{"inputs":[{"internalType":"address","name":"account","type":"address"},{"internalType":"address","name":"nToken","type":"address"},{"internalType":"int256","name":"accountToNToken","type":"int256"},{"internalType":"uint256","name":"cashToReserve","type":"uint256"}],"name":"emitfCashTradeTransfers","outputs":[],"stateMutability":"nonpayable","type":"function"},{"inputs":[],"name":"exchangeRate","outputs":[{"internalType":"uint256","name":"rate","type":"uint256"}],"stateMutability":"view","type":"function"},{"inputs":[],"name":"getPresentValueAssetDenominated","outputs":[{"internalType":"int256","name":"","type":"int256"}],"stateMutability":"view","type":"function"},{"inputs":[],"name":"getPresentValueUnderlyingDenominated","outputs":[{"internalType":"int256","name":"","type":"int256"}],"stateMutability":"view","type":"function"},{"inputs":[{"internalType":"uint16","name":"currencyId_","type":"uint16"},{"internalType":"address","name":"underlying_","type":"address"},{"internalType":"string","name":"underlyingName_","type":"string"},{"internalType":"string","name":"underlyingSymbol_","type":"string"}],"name":"initialize","outputs":[],"stateMutability":"nonpayable","type":"function"},{"inputs":[{"internalType":"address","name":"","type":"address"}],"name":"maxDeposit","outputs":[{"internalType":"uint256","name":"maxAssets","type":"uint256"}],"stateMutability":"view","type":"function"},{"inputs":[{"internalType":"address","name":"","type":"address"}],"name":"maxMint","outputs":[{"internalType":"uint256","name":"maxShares","type":"uint256"}],"stateMutability":"view","type":"function"},{"inputs":[{"internalType":"address","name":"owner","type":"address"}],"name":"maxRedeem","outputs":[{"internalType":"uint256","name":"maxShares","type":"uint256"}],"stateMutability":"view","type":"function"},{"inputs":[{"internalType":"address","name":"owner","type":"address"}],"name":"maxWithdraw","outputs":[{"internalType":"uint256","name":"maxAssets","type":"uint256"}],"stateMutability":"view","type":"function"},{"inputs":[{"internalType":"uint256","name":"shares","type":"uint256"},{"internalType":"address","name":"receiver","type":"address"}],"name":"mint","outputs":[{"internalType":"uint256","name":"assets","type":"uint256"}],"stateMutability":"nonpayable","type":"function"},{"inputs":[],"name":"name","outputs":[{"internalType":"string","name":"","type":"string"}],"stateMutability":"view","type":"function"},{"inputs":[],"name":"nativeDecimals","outputs":[{"internalType":"uint8","name":"","type":"uint8"}],"stateMutability":"view","type":"function"},{"inputs":[{"internalType":"uint256","name":"assets","type":"uint256"}],"name":"previewDeposit","outputs":[{"internalType":"uint256","name":"shares","type":"uint256"}],"stateMutability":"view","type":"function"},{"inputs":[{"internalType":"uint256","name":"shares","type":"uint256"}],"name":"previewMint","outputs":[{"internalType":"uint256","name":"assets","type":"uint256"}],"stateMutability":"view","type":"function"},{"inputs":[{"internalType":"uint256","name":"shares","type":"uint256"}],"name":"previewRedeem","outputs":[{"internalType":"uint256","name":"assets","type":"uint256"}],"stateMutability":"view","type":"function"},{"inputs":[{"internalType":"uint256","name":"assets","type":"uint256"}],"name":"previewWithdraw","outputs":[{"internalType":"uint256","name":"shares","type":"uint256"}],"stateMutability":"view","type":"function"},{"inputs":[{"internalType":"uint256","name":"shares","type":"uint256"},{"internalType":"address","name":"receiver","type":"address"},{"internalType":"address","name":"owner","type":"address"}],"name":"redeem","outputs":[{"internalType":"uint256","name":"assets","type":"uint256"}],"stateMutability":"nonpayable","type":"function"},{"inputs":[{"internalType":"string","name":"underlyingName_","type":"string"},{"internalType":"string","name":"underlyingSymbol_","type":"string"}],"name":"rename","outputs":[],"stateMutability":"nonpayable","type":"function"},{"inputs":[],"name":"symbol","outputs":[{"internalType":"string","name":"","type":"string"}],"stateMutability":"view","type":"function"},{"inputs":[],"name":"totalAssets","outputs":[{"internalType":"uint256","name":"totalManagedAssets","type":"uint256"}],"stateMutability":"view","type":"function"},{"inputs":[],"name":"totalSupply","outputs":[{"internalType":"uint256","name":"","type":"uint256"}],"stateMutability":"view","type":"function"},{"inputs":[{"internalType":"address","name":"to","type":"address"},{"internalType":"uint256","name":"amount","type":"uint256"}],"name":"transfer","outputs":[{"internalType":"bool","name":"ret","type":"bool"}],"stateMutability":"nonpayable","type":"function"},{"inputs":[{"internalType":"address","name":"from","type":"address"},{"internalType":"address","name":"to","type":"address"},{"internalType":"uint256","name":"amount","type":"uint256"}],"name":"transferFrom","outputs":[{"internalType":"bool","name":"ret","type":"bool"}],"stateMutability":"nonpayable","type":"function"},{"inputs":[],"name":"underlying","outputs":[{"internalType":"address","name":"","type":"address"}],"stateMutability":"view","type":"function"},{"inputs":[{"internalType":"uint256","name":"assets","type":"uint256"},{"internalType":"address","name":"receiver","type":"address"},{"internalType":"address","name":"owner","type":"address"}],"name":"withdraw","outputs":[{"internalType":"uint256","name":"shares","type":"uint256"}],"stateMutability":"nonpayable","type":"function"}],"bytecode":"60a06040523480156200001157600080fd5b5060405162002ba938038062002ba983398101604081905262000034916200011c565b6000548190610100900460ff168062000052575062000052620000f8565b8062000061575060005460ff16155b6200009e5760405162461bcd60e51b815260040180806020018281038252602e81526020018062002b7b602e913960400191505060405180910390fd5b600054610100900460ff16158015620000ca576000805460ff1961ff0019909116610100171660011790555b6001600160601b0319606083901b166080528015620000ef576000805461ff00191690555b5050506200014c565b600062000110306200011660201b620015881760201c565b15905090565b3b151590565b6000602082840312156200012e578081fd5b81516001600160a01b038116811462000145578182fd5b9392505050565b60805160601c6129bc620001bf6000398061070652806107b052806109035280610ad75280610b165280610bbd5280610d0b5280610ec852806110995280611199528061146a52806115ad52806116d4528061179252806117e45280611a875280611b6c5280611d2152506129bc6000f3fe608060405234801561001057600080fd5b506004361061023d5760003560e01c8063768ea56a1161013b578063b3d7f6b9116100b8578063ccb2d5ed1161007c578063ccb2d5ed14610487578063ce96cb771461049a578063d905777e1461038e578063dd62ed3e146104ad578063ef8b30f7146104c05761023d565b8063b3d7f6b914610428578063b460af941461043b578063ba0876521461044e578063c63d75b614610461578063c6e6f592146104745761023d565b806395d89b41116100ff57806395d89b41146103d45780639c7c722b146103dc578063a9059cbb146103ef578063a992714e14610402578063ad1c095d146104155761023d565b8063768ea56a146103a1578063858dccb3146103a957806390ab60a7146103b157806391cf16a8146103b957806394bf804d146103c15761023d565b8063313ce567116101c9578063402d267d1161018d578063402d267d1461034d5780634cdad506146103605780636e553f65146103735780636f307dc31461038657806370a082311461038e5761023d565b8063313ce5671461030057806338d52e0f1461031557806339de97461461032a5780633a01b9641461033d5780633ba0b9a9146103455761023d565b80630a28a477116102105780630a28a477146102a857806318160ddd146102bb5780631feeece2146102c357806323b872dd146102d857806323de6651146102eb5761023d565b806301e1d1141461024257806306fdde031461026057806307a2d13a14610275578063095ea7b314610288575b600080fd5b61024a6104d3565b60405161025791906126d7565b60405180910390f35b6102686104e2565b60405161025791906126e0565b61024a610283366004612598565b61056f565b61029b6102963660046123ad565b6105ea565b60405161025791906126cc565b61024a6102b6366004612598565b610650565b61024a61068e565b6102cb610698565b6040516102579190612790565b61029b6102e6366004612358565b6106a2565b6102fe6102f9366004612358565b6106fb565b005b61030861078a565b6040516102579190612862565b61031d61078f565b60405161025791906126b8565b6102fe610338366004612398565b6107a5565b61024a6108a0565b61024a6108ac565b61024a61035b3660046122a3565b6108e2565b61024a61036e366004612598565b6109ee565b61024a6103813660046125b0565b6109f9565b61031d610aa5565b61024a61039c3660046122a3565b610abb565b610308610ac6565b61031d610ad5565b61024a610af9565b61024a610ba0565b61024a6103cf3660046125b0565b610bf7565b610268610cb1565b6102fe6103ea366004612410565b610d09565b61029b6103fd3660046123ad565b610e6c565b6102fe61041036600461250c565b610ebd565b6102fe6104233660046123ad565b61118e565b61024a610436366004612598565b61125c565b61024a6104493660046125d4565b61128f565b61024a61045c3660046125d4565b611372565b61024a61046f3660046122a3565b61141b565b61024a610482366004612598565b611440565b6102fe610495366004612313565b61145f565b61024a6104a83660046122a3565b611563565b61024a6104bb3660046122db565b611571565b61024a6104ce366004612598565b61157d565b60006104dd61158e565b905090565b60018054604080516020600284861615610100026000190190941693909304601f810184900484028201840190925281815292918301828280156105675780601f1061053c57610100808354040283529160200191610567565b820191906000526020600020905b81548152906001019060200180831161054a57829003601f168201915b505050505081565b6000806008600360029054906101000a900460ff1660ff16106105a4576008600360029054906101000a900460ff16036105a7565b60005b60ff16600a0a90506105e1816105db836105d5670de0b6b3a76400006105d56105ce6108ac565b8a90611671565b90611698565b90611671565b9150505b919050565b60006105f683836116b7565b9050801561064a57826001600160a01b0316336001600160a01b03167f8c5be1e5ebec7d5bd14f71427d1e84f3dd0314c0f7b2291e5b200ac8c7c3b9258460405161064191906126d7565b60405180910390a35b92915050565b60035460009060086201000090910460ff16106106805761067b600161067584611440565b90611766565b61064a565b61064a610482836001611766565b60006104dd611778565b60035461ffff1681565b6000826001600160a01b0316846001600160a01b0316600080516020612907833981519152846040516106d591906126d7565b60405180910390a36106e88484846117c7565b9050806106f457600080fd5b9392505050565b336001600160a01b037f0000000000000000000000000000000000000000000000000000000000000000161461074c5760405162461bcd60e51b81526004016107439061273c565b60405180910390fd5b816001600160a01b0316836001600160a01b03166000805160206129078339815191528360405161077d91906126d7565b60405180910390a3505050565b600881565b600354630100000090046001600160a01b031690565b336001600160a01b037f000000000000000000000000000000000000000000000000000000000000000016146107ed5760405162461bcd60e51b81526004016107439061273c565b836001600160a01b031660006001600160a01b03166000805160206129078339815191528460405161081f91906126d7565b60405180910390a3826001600160a01b0316846001600160a01b03166000805160206129078339815191528360405161085891906126d7565b60405180910390a360006001600160a01b0316836001600160a01b03166000805160206129078339815191528360405161089291906126d7565b60405180910390a350505050565b670de0b6b3a764000081565b6000806108b761158e565b905060006108c3611778565b90506108db816105d584670de0b6b3a7640000611671565b9250505090565b60035460405163206f279960e01b8152600091829182916001600160a01b037f0000000000000000000000000000000000000000000000000000000000000000169163206f27999161093f9161ffff909116904290600401612840565b6102006040518083038186803b15801561095857600080fd5b505afa15801561096c573d6000803e3d6000fd5b505050506040513d601f19601f820116820180604052508101906109909190612471565b505093509350505081600014156109ad57600019925050506105e5565b8082116109bf576000925050506105e5565b6003546109e5906305f5e100906105d5908486039062010000900460ff16600a0a611671565b925050506105e5565b600061064a8261056f565b600080610a0584611880565b9094509050610a15848285611a50565b9150826001600160a01b031660006001600160a01b031660008051602061290783398151915284604051610a4991906126d7565b60405180910390a3826001600160a01b0316336001600160a01b03167fdcbc1c05240f31ff3ad067ef1ee35ce4997762752e3a095284754544f4c709d78685604051610a96929190612854565b60405180910390a35092915050565b600354630100000090046001600160a01b031681565b600061064a82611a6a565b60035462010000900460ff1681565b7f000000000000000000000000000000000000000000000000000000000000000081565b600354604051631a05bce160e01b81526000916001600160a01b037f00000000000000000000000000000000000000000000000000000000000000001691631a05bce191610b509161ffff90911690600401612790565b60206040518083038186803b158015610b6857600080fd5b505afa158015610b7c573d6000803e3d6000fd5b505050506040513d601f19601f820116820180604052508101906104dd91906123f8565b600354604051633b2987b360e01b81526000916001600160a01b037f00000000000000000000000000000000000000000000000000000000000000001691633b2987b391610b509161ffff90911690600401612790565b600080610c038461125c565b9150610c0e82611880565b90925090506000610c20838386611a50565b9050836001600160a01b031660006001600160a01b031660008051602061290783398151915283604051610c5491906126d7565b60405180910390a3836001600160a01b0316336001600160a01b03167fdcbc1c05240f31ff3ad067ef1ee35ce4997762752e3a095284754544f4c709d78584604051610ca1929190612854565b60405180910390a3505092915050565b6002805460408051602060018416156101000260001901909316849004601f810184900484028201840190925281815292918301828280156105675780601f1061053c57610100808354040283529160200191610567565b7f00000000000000000000000000000000000000000000000000000000000000006001600160a01b0316638da5cb5b6040518163ffffffff1660e01b815260040160206040518083038186803b158015610d6257600080fd5b505afa158015610d76573d6000803e3d6000fd5b505050506040513d601f19601f82011682018060405250810190610d9a91906122bf565b6001600160a01b0316336001600160a01b031614610db757600080fd5b6000806000610dc4611b13565b925092509250828583604051602001610ddf93929190612665565b60405160208183030381529060405260019080519060200190610e0392919061212b565b508084604051602001610e17929190612636565b60405160208183030381529060405260029080519060200190610e3b92919061212b565b506040517f8d4bc6886f1b5887a0c7da5cf5dbdf35c7bcced78089e0e522b49be05817699990600090a15050505050565b6000826001600160a01b0316336001600160a01b031660008051602061290783398151915284604051610e9f91906126d7565b60405180910390a3610eb18383611b4f565b90508061064a57600080fd5b336001600160a01b037f00000000000000000000000000000000000000000000000000000000000000001614610f055760405162461bcd60e51b81526004016107439061273c565b600054610100900460ff1680610f1e5750610f1e611bac565b80610f2c575060005460ff16155b610f675760405162461bcd60e51b815260040180806020018281038252602e8152602001806128d9602e913960400191505060405180910390fd5b600054610100900460ff16158015610f92576000805460ff1961ff0019909116610100171660011790555b6003805461ffff191661ffff871617905560008080610faf611b13565b925092509250828683604051602001610fca93929190612665565b60405160208183030381529060405260019080519060200190610fee92919061212b565b508085604051602001611002929190612636565b6040516020818303038152906040526002908051906020019061102692919061212b565b506001600160a01b03871661106657600380546301000000600160b81b03191676c02aaa39b223fe8d0a0e5c4f27ead9083c756cc20000001790556110c0565b600380546301000000600160b81b03191663010000006001600160a01b038a8116820292909217928390556110c09204167f0000000000000000000000000000000000000000000000000000000000000000600019611bbd565b60038054906101000a90046001600160a01b03166001600160a01b031663313ce5676040518163ffffffff1660e01b815260040160206040518083038186803b15801561110c57600080fd5b505afa158015611120573d6000803e3d6000fd5b505050506040513d601f19601f820116820180604052508101906111449190612615565b6003805462ff000019166201000060ff93841681029190911791829055602491049091161061117257600080fd5b5050508015611187576000805461ff00191690555b5050505050565b336001600160a01b037f000000000000000000000000000000000000000000000000000000000000000016146111d65760405162461bcd60e51b81526004016107439061273c565b600081121561121d5760006001600160a01b03831660008051602061290783398151915261120384611cd5565b60405161121091906126d7565b60405180910390a3611258565b816001600160a01b031660006001600160a01b03166000805160206129078339815191528360405161124f91906126d7565b60405180910390a35b5050565b60035460009060086201000090910460ff16106112815761067b610283836001611766565b61064a60016106758461056f565b600061129a84610650565b905060006112a783611a6a565b9050808211156112c95760405162461bcd60e51b815260040161074390612762565b60006112d6838686611a50565b905060006001600160a01b0316846001600160a01b03166000805160206129078339815191528560405161130a91906126d7565b60405180910390a3836001600160a01b0316856001600160a01b0316336001600160a01b03167ffbde797d201c681b91056529119e0b02407c7bb96a4a2c75c01fc9667232c8db8487604051611361929190612854565b60405180910390a450509392505050565b600080611380858585611a50565b905060006001600160a01b0316836001600160a01b0316600080516020612907833981519152876040516113b491906126d7565b60405180910390a3826001600160a01b0316846001600160a01b0316336001600160a01b03167ffbde797d201c681b91056529119e0b02407c7bb96a4a2c75c01fc9667232c8db848960405161140b929190612854565b60405180910390a4949350505050565b60008061142860006108e2565b905060001981141561143b5790506105e5565b6105e1815b600061064a61144d6108ac565b6105d584670de0b6b3a7640000611671565b336001600160a01b037f000000000000000000000000000000000000000000000000000000000000000016146114a75760405162461bcd60e51b81526004016107439061273c565b60008212156114f657826001600160a01b0316846001600160a01b03166000805160206129078339815191526114dc85611ce3565b6040516114e991906126d7565b60405180910390a3611530565b836001600160a01b0316836001600160a01b03166000805160206129078339815191528460405161152791906126d7565b60405180910390a35b610fee6001600160a01b0316846001600160a01b03166000805160206129078339815191528360405161089291906126d7565b600061064a61028383611a6a565b60006106f48383611d04565b600061064a82611440565b3b151590565b600354604051633b2987b360e01b815260009182916001600160a01b037f00000000000000000000000000000000000000000000000000000000000000001691633b2987b3916115e59161ffff1690600401612790565b60206040518083038186803b1580156115fd57600080fd5b505afa158015611611573d6000803e3d6000fd5b505050506040513d601f19601f8201168201806040525081019061163591906123f8565b60035490915061166b90611666906305f5e1009061166090859062010000900460ff16600a0a611daf565b90611df8565b611e29565b91505090565b6000826116805750600061064a565b8282028284828161168d57fe5b04146106f457600080fd5b60008082116116a657600080fd5b8183816116af57fe5b049392505050565b60035460405163184e005360e11b81526000916001600160a01b037f0000000000000000000000000000000000000000000000000000000000000000169163309c00a6916117149161ffff909116903390889088906004016127f0565b602060405180830381600087803b15801561172e57600080fd5b505af1158015611742573d6000803e3d6000fd5b505050506040513d601f19601f820116820180604052508101906106f491906123d8565b6000828201838110156106f457600080fd5b604051636a96e86f60e01b81526000906001600160a01b037f00000000000000000000000000000000000000000000000000000000000000001690636a96e86f90610b509030906004016126b8565b600354604051634425384960e11b81526000916001600160a01b037f0000000000000000000000000000000000000000000000000000000000000000169163884a7092916118269161ffff9091169033908990899089906004016127bc565b602060405180830381600087803b15801561184057600080fd5b505af1158015611854573d6000803e3d6000fd5b505050506040513d601f19601f8201168201806040525081019061187891906123d8565b949350505050565b6003546040516370a0823160e01b815260009182918291630100000090046001600160a01b0316906370a08231906118bc9030906004016126b8565b60206040518083038186803b1580156118d457600080fd5b505afa1580156118e8573d6000803e3d6000fd5b505050506040513d601f19601f8201168201806040525081019061190c91906123f8565b905061192d60038054906101000a90046001600160a01b0316333087611e3c565b6003546040516370a0823160e01b8152600091630100000090046001600160a01b0316906370a08231906119659030906004016126b8565b60206040518083038186803b15801561197d57600080fd5b505afa158015611991573d6000803e3d6000fd5b505050506040513d601f19601f820116820180604052508101906119b591906123f8565b90506119c18183611e9c565b60035490945061ffff1660011415611a4457604051632e1a7d4d60e01b815273c02aaa39b223fe8d0a0e5c4f27ead9083c756cc290632e1a7d4d90611a0a9087906004016126d7565b600060405180830381600087803b158015611a2457600080fd5b505af1158015611a38573d6000803e3d6000fd5b50505050839250611a49565b600092505b5050915091565b600060405162461bcd60e51b815260040161074390612713565b60035460405163a78dbfff60e01b81526000916001600160a01b037f0000000000000000000000000000000000000000000000000000000000000000169163a78dbfff91611ac39161ffff90911690869060040161279f565b60206040518083038186803b158015611adb57600080fd5b505afa158015611aef573d6000803e3d6000fd5b505050506040513d601f19601f8201168201806040525081019061064a91906123f8565b6040805180820182526006815265372a37b5b2b760d11b602080830191909152825180840190935260018352603760f91b908301529160609190565b6003546040516318ae40d760e01b81526000916001600160a01b037f000000000000000000000000000000000000000000000000000000000000000016916318ae40d7916117149161ffff909116903390889088906004016127f0565b6000611bb730611588565b15905090565b801580611c43575060408051636eb1769f60e11b81523060048201526001600160a01b03848116602483015291519185169163dd62ed3e91604480820192602092909190829003018186803b158015611c1557600080fd5b505afa158015611c29573d6000803e3d6000fd5b505050506040513d6020811015611c3f57600080fd5b5051155b611c7e5760405162461bcd60e51b81526004018080602001828103825260368152602001806129516036913960400191505060405180910390fd5b604080516001600160a01b038416602482015260448082018490528251808303909101815260649091019091526020810180516001600160e01b031663095ea7b360e01b179052611cd0908490611eb1565b505050565b600061064a60001983611daf565b600080821215611cfd57611cf682611cd5565b90506105e5565b50806105e5565b600354604051637db31ab960e01b81526000916001600160a01b037f00000000000000000000000000000000000000000000000000000000000000001691637db31ab991611d5f9161ffff909116908790879060040161281b565b60206040518083038186803b158015611d7757600080fd5b505afa158015611d8b573d6000803e3d6000fd5b505050506040513d601f19601f820116820180604052508101906106f491906123f8565b818102600019831415611dda57811580611dd1575082828281611dce57fe5b05145b61067b57600080fd5b821580611def575081838281611dec57fe5b05145b61064a57600080fd5b600081600019148015611e0e5750600160ff1b83145b15611e1857600080fd5b818381611e2157fe5b059392505050565b600080821215611e3857600080fd5b5090565b604080516001600160a01b0380861660248301528416604482015260648082018490528251808303909101815260849091019091526020810180516001600160e01b03166323b872dd60e01b179052611e96908590611eb1565b50505050565b600082821115611eab57600080fd5b50900390565b6000611f06826040518060400160405280602081526020017f5361666545524332303a206c6f772d6c6576656c2063616c6c206661696c6564815250856001600160a01b0316611f629092919063ffffffff16565b805190915015611cd057808060200190516020811015611f2557600080fd5b5051611cd05760405162461bcd60e51b815260040180806020018281038252602a815260200180612927602a913960400191505060405180910390fd5b6060611878848460008585611f7685611588565b611fc7576040805162461bcd60e51b815260206004820152601d60248201527f416464726573733a2063616c6c20746f206e6f6e2d636f6e7472616374000000604482015290519081900360640190fd5b600080866001600160a01b031685876040518082805190602001908083835b602083106120055780518252601f199092019160209182019101611fe6565b6001836020036101000a03801982511681845116808217855250505050505090500191505060006040518083038185875af1925050503d8060008114612067576040519150601f19603f3d011682016040523d82523d6000602084013e61206c565b606091505b509150915061207c828286612087565b979650505050505050565b606083156120965750816106f4565b8251156120a65782518084602001fd5b8160405162461bcd60e51b81526004018080602001828103825283818151815260200191508051906020019080838360005b838110156120f05781810151838201526020016120d8565b50505050905090810190601f16801561211d5780820380516001836020036101000a031916815260200191505b509250505060405180910390fd5b828054600181600116156101000203166002900490600052602060002090601f01602090048101928261216157600085556121a7565b82601f1061217a57805160ff19168380011785556121a7565b828001600101855582156121a7579182015b828111156121a757825182559160200191906001019061218c565b50611e389291505b80821115611e3857600081556001016121af565b600082601f8301126121d3578081fd5b813567ffffffffffffffff8111156121e757fe5b6121fa601f8201601f1916602001612870565b81815284602083860101111561220e578283fd5b816020850160208301379081016020019190915292915050565b600061012080838503121561223b578182fd5b61224481612870565b915050815181526020820151602082015260408201516040820152606082015160608201526080820151608082015260a082015160a082015260c082015160c082015260e082015160e082015261010080830151818301525092915050565b6000602082840312156122b4578081fd5b81356106f4816128c0565b6000602082840312156122d0578081fd5b81516106f4816128c0565b600080604083850312156122ed578081fd5b82356122f8816128c0565b91506020830135612308816128c0565b809150509250929050565b60008060008060808587031215612328578182fd5b8435612333816128c0565b93506020850135612343816128c0565b93969395505050506040820135916060013590565b60008060006060848603121561236c578283fd5b8335612377816128c0565b92506020840135612387816128c0565b929592945050506040919091013590565b60008060008060808587031215612328578384fd5b600080604083850312156123bf578182fd5b82356123ca816128c0565b946020939093013593505050565b6000602082840312156123e9578081fd5b815180151581146106f4578182fd5b600060208284031215612409578081fd5b5051919050565b60008060408385031215612422578182fd5b823567ffffffffffffffff80821115612439578384fd5b612445868387016121c3565b9350602085013591508082111561245a578283fd5b50612467858286016121c3565b9150509250929050565b60008060008060008086880361020081121561248b578485fd5b6060811215612498578485fd5b506040516060810181811067ffffffffffffffff821117156124b657fe5b6040908152885182526020808a015190830152888101519082015295506124e08860608901612228565b945061018087015193506101a087015192506101c087015191506101e087015190509295509295509295565b60008060008060808587031215612521578182fd5b843561ffff81168114612532578283fd5b93506020850135612542816128c0565b9250604085013567ffffffffffffffff8082111561255e578384fd5b61256a888389016121c3565b9350606087013591508082111561257f578283fd5b5061258c878288016121c3565b91505092959194509250565b6000602082840312156125a9578081fd5b5035919050565b600080604083850312156125c2578182fd5b823591506020830135612308816128c0565b6000806000606084860312156125e8578081fd5b8335925060208401356125fa816128c0565b9150604084013561260a816128c0565b809150509250925092565b600060208284031215612626578081fd5b815160ff811681146106f4578182fd5b60008351612648818460208801612894565b83519083019061265c818360208801612894565b01949350505050565b60008451612677818460208901612894565b600160fd1b9083019081528451612695816001840160208901612894565b84519101906126ab816001840160208801612894565b0160010195945050505050565b6001600160a01b0391909116815260200190565b901515815260200190565b90815260200190565b60006020825282518060208401526126ff816040850160208701612894565b601f01601f19169190910160400192915050565b6020808252600f908201526e139bdd08125b5c1b195b595b9d1959608a1b604082015260600190565b6020808252600c908201526b155b985d5d1a1bdc9a5e995960a21b604082015260600190565b602080825260149082015273496e73756666696369656e742042616c616e636560601b604082015260600190565b61ffff91909116815260200190565b61ffff9290921682526001600160a01b0316602082015260400190565b61ffff9590951685526001600160a01b03938416602086015291831660408501529091166060830152608082015260a00190565b61ffff9490941684526001600160a01b03928316602085015291166040830152606082015260800190565b61ffff9390931683526001600160a01b03918216602084015216604082015260600190565b61ffff929092168252602082015260400190565b918252602082015260400190565b60ff91909116815260200190565b60405181810167ffffffffffffffff8111828210171561288c57fe5b604052919050565b60005b838110156128af578181015183820152602001612897565b83811115611e965750506000910152565b6001600160a01b03811681146128d557600080fd5b5056fe496e697469616c697a61626c653a20636f6e747261637420697320616c726561647920696e697469616c697a6564ddf252ad1be2c89b69c2b068fc378daa952ba7f163c4a11628f55a4df523b3ef5361666545524332303a204552433230206f7065726174696f6e20646964206e6f7420737563636565645361666545524332303a20617070726f76652066726f6d206e6f6e2d7a65726f20746f206e6f6e2d7a65726f20616c6c6f77616e6365a264697066735822122073b72e6db8581d2d7bb00e2ea5742db89f4b2ac85c2921f4d0481730c14c6f8364736f6c63430007060033496e697469616c697a61626c653a20636f6e747261637420697320616c726561647920696e697469616c697a6564","bytecodeSha1":"da39a3ee5e6b4b0d3255bfef95601890afd80709","compiler":{"evm_version":"istanbul","optimizer":{"enabled":true,"runs":200},"version":"0.7.6+commit.7338295f"},"contractName":"nTokenERC20Proxy","language":"Solidity","natspec":{"kind":"dev","methods":{"EXCHANGE_RATE_PRECISION()":{"notice":"Precision for exchangeRate()"},"NOTIONAL()":{"notice":"Address of the notional proxy, proxies only have access to a subset of the methods"},"approve(address,uint256)":{"details":"Sets `amount` as the allowance of `spender` over the caller's tokens. Returns a boolean value indicating whether the operation succeeded. IMPORTANT: Beware that changing an allowance with this method brings the risk that someone may use both the old and the new allowance by unfortunate transaction ordering. One possible solution to mitigate this race condition is to first reduce the spender's allowance to 0 and set the desired value afterwards: https://github.com/ethereum/EIPs/issues/20#issuecomment-263524729 Emits an {Approval} event."},"asset()":{"notice":"Returns the asset token reference by IERC4626, uses the underlying token as the asset for ERC4626 so that it is compatible with more use cases."},"balanceOf(address)":{"notice":"Required ERC20 Methods "},"convertToAssets(uint256)":{"details":"Returns the amount of assets that the Vault would exchange for the amount of shares provided, in an ideal scenario where all the conditions are met. - MUST NOT be inclusive of any fees that are charged against assets in the Vault. - MUST NOT show any variations depending on the caller. - MUST NOT reflect slippage or other on-chain conditions, when performing the actual exchange. - MUST NOT revert. NOTE: This calculation MAY NOT reflect the \"per-user\" price-per-share, and instead should reflect the \"average-user's\" price-per-share, meaning what the average user should expect to see when exchanging to and from."},"convertToShares(uint256)":{"details":"Returns the amount of shares that the Vault would exchange for the amount of assets provided, in an ideal scenario where all the conditions are met. - MUST NOT be inclusive of any fees that are charged against assets in the Vault. - MUST NOT show any variations depending on the caller. - MUST NOT reflect slippage or other on-chain conditions, when performing the actual exchange. - MUST NOT revert. NOTE: This calculation MAY NOT reflect the \"per-user\" price-per-share, and instead should reflect the \"average-user's\" price-per-share, meaning what the average user should expect to see when exchanging to and from."},"currencyId()":{"notice":"Currency id that this nToken refers to"},"decimals()":{"notice":"Inherits from Constants.INTERNAL_TOKEN_PRECISION"},"deposit(uint256,address)":{"details":"The proxy contract will first transfer the assets to the contract and then transfer them to Notional.","notice":"Deposits assets into Notional and mints either prime cash or nTokens. Unlike the wrapped fCash proxy this will not hold prime cash assets on the contract and wrap them, the assets will be deposited directly into the user's account and may be used as collateral."},"emitMintOrBurn(address,int256)":{"notice":"Convenience method for minting and burning"},"emitMintTransferBurn(address,address,uint256,uint256)":{"notice":"Convenience method for mint, transfer and burn. Used in vaults to record margin deposits and withdraws."},"emitTransfer(address,address,uint256)":{"notice":"Allows ERC20 transfer events to be emitted from the proper address so that wallet tools can properly track balances."},"emitfCashTradeTransfers(address,address,int256,uint256)":{"notice":"Only used on pCash when fCash is traded."},"getPresentValueAssetDenominated()":{"notice":"Returns the present value of the nToken's assets denominated in asset tokens"},"getPresentValueUnderlyingDenominated()":{"notice":"Returns the present value of the nToken's assets denominated in underlying"},"maxDeposit(address)":{"notice":"Gets the max underlying supply"},"maxMint(address)":{"notice":"Gets the max underlying supply and converts it to shares"},"maxRedeem(address)":{"details":"Returns the maximum amount of Vault shares that can be redeemed from the owner balance in the Vault, through a redeem call. - MUST return a limited value if owner is subject to some withdrawal limit or timelock. - MUST return balanceOf(owner) if owner is not subject to any withdrawal limit or timelock. - MUST NOT revert."},"maxWithdraw(address)":{"details":"Returns the maximum amount of the underlying asset that can be withdrawn from the owner balance in the Vault, through a withdraw call. - MUST return a limited value if owner is subject to some withdrawal limit or timelock. - MUST NOT revert."},"mint(uint256,address)":{"notice":"Similar to deposit, however the amount of shares are specified instead."},"name()":{"notice":"Will be \"[Staked] nToken {Underlying Token}.name()\", therefore \"USD Coin\" will be \"nToken USD Coin\" for the regular nToken and \"Staked nToken USD Coin\" for the staked version."},"nativeDecimals()":{"notice":"Native underlying decimal places"},"previewDeposit(uint256)":{"details":"Will round down inside convertToShares. Deposits more closely match how Notional processes minting within the protocol.","notice":"Deposits are based on the conversion rate assets to shares."},"previewMint(uint256)":{"details":"Will be called during `mint` to calculate how much assets to transfer. Therefore, there may be some rounding errors when the number of shares minted does not match what is requested.","notice":"Mints are based on the conversion rate from shares to assets."},"previewRedeem(uint256)":{"notice":"Calculates how much assets will be returned when redeeming the given amount of shares."},"previewWithdraw(uint256)":{"notice":"Calculates how many shares need to be redeemed to receive the specified amount of assets."},"redeem(uint256,address,address)":{"notice":"Redeems the asset from Notional and they will be transferred to the receiver."},"symbol()":{"notice":"Will be \"[s]n{Underlying Token}.symbol()\", therefore \"USDC\" will be \"nUSDC\""},"totalAssets()":{"notice":"Returns the total present value of the assets held in native underlying token precision"},"totalSupply()":{"details":"Returns the amount of tokens in existence."},"underlying()":{"notice":"ERC20 underlying token referred to as the \"asset\" in IERC4626"},"withdraw(uint256,address,address)":{"notice":"Withdraws the asset from Notional and they will be transferred to the receiver."}},"notice":"ERC20 proxy for nToken contracts that forwards calls to the Router, all nToken balances and allowances are stored in at single address for gas efficiency. This contract is used simply for ERC20 compliance.","version":1},"opcodes":"PUSH1 0x80 PUSH1 0x40 MSTORE CALLVALUE DUP1 ISZERO PUSH2 0x10 JUMPI PUSH1 0x0 DUP1 REVERT JUMPDEST POP PUSH1 0x4 CALLDATASIZE LT PUSH2 0x23D JUMPI PUSH1 0x0 CALLDATALOAD PUSH1 0xE0 SHR DUP1 PUSH4 0x768EA56A GT PUSH2 0x13B JUMPI DUP1 PUSH4 0xB3D7F6B9 GT PUSH2 0xB8 JUMPI DUP1 PUSH4 0xCCB2D5ED GT PUSH2 0x7C JUMPI DUP1 PUSH4 0xCCB2D5ED EQ PUSH2 0x487 JUMPI DUP1 PUSH4 0xCE96CB77 EQ PUSH2 0x49A JUMPI DUP1 PUSH4 0xD905777E EQ PUSH2 0x38E JUMPI DUP1 PUSH4 0xDD62ED3E EQ PUSH2 0x4AD JUMPI DUP1 PUSH4 0xEF8B30F7 EQ PUSH2 0x4C0 JUMPI PUSH2 0x23D JUMP JUMPDEST DUP1 PUSH4 0xB3D7F6B9 EQ PUSH2 0x428 JUMPI DUP1 PUSH4 0xB460AF94 EQ PUSH2 0x43B JUMPI DUP1 PUSH4 0xBA087652 EQ PUSH2 0x44E JUMPI DUP1 PUSH4 0xC63D75B6 EQ PUSH2 0x461 JUMPI DUP1 PUSH4 0xC6E6F592 EQ PUSH2 0x474 JUMPI PUSH2 0x23D JUMP JUMPDEST DUP1 PUSH4 0x95D89B41 GT PUSH2 0xFF JUMPI DUP1 PUSH4 0x95D89B41 EQ PUSH2 0x3D4 JUMPI DUP1 PUSH4 0x9C7C722B EQ PUSH2 0x3DC JUMPI DUP1 PUSH4 0xA9059CBB EQ PUSH2 0x3EF JUMPI DUP1 PUSH4 0xA992714E EQ PUSH2 0x402 JUMPI DUP1 PUSH4 0xAD1C095D EQ PUSH2 0x415 JUMPI PUSH2 0x23D JUMP JUMPDEST DUP1 PUSH4 0x768EA56A EQ PUSH2 0x3A1 JUMPI DUP1 PUSH4 0x858DCCB3 EQ PUSH2 0x3A9 JUMPI DUP1 PUSH4 0x90AB60A7 EQ PUSH2 0x3B1 JUMPI DUP1 PUSH4 0x91CF16A8 EQ PUSH2 0x3B9 JUMPI DUP1 PUSH4 0x94BF804D EQ PUSH2 0x3C1 JUMPI PUSH2 0x23D JUMP JUMPDEST DUP1 PUSH4 0x313CE567 GT PUSH2 0x1C9 JUMPI DUP1 PUSH4 0x402D267D GT PUSH2 0x18D JUMPI DUP1 PUSH4 0x402D267D EQ PUSH2 0x34D JUMPI DUP1 PUSH4 0x4CDAD506 EQ PUSH2 0x360 JUMPI DUP1 PUSH4 0x6E553F65 EQ PUSH2 0x373 JUMPI DUP1 PUSH4 0x6F307DC3 EQ PUSH2 0x386 JUMPI DUP1 PUSH4 0x70A08231 EQ PUSH2 0x38E JUMPI PUSH2 0x23D JUMP JUMPDEST DUP1 PUSH4 0x313CE567 EQ PUSH2 0x300 JUMPI DUP1 PUSH4 0x38D52E0F EQ PUSH2 0x315 JUMPI DUP1 PUSH4 0x39DE9746 EQ PUSH2 0x32A JUMPI DUP1 PUSH4 0x3A01B964 EQ PUSH2 0x33D JUMPI DUP1 PUSH4 0x3BA0B9A9 EQ PUSH2 0x345 JUMPI PUSH2 0x23D JUMP JUMPDEST DUP1 PUSH4 0xA28A477 GT PUSH2 0x210 JUMPI DUP1 PUSH4 0xA28A477 EQ PUSH2 0x2A8 JUMPI DUP1 PUSH4 0x18160DDD EQ PUSH2 0x2BB JUMPI DUP1 PUSH4 0x1FEEECE2 EQ PUSH2 0x2C3 JUMPI DUP1 PUSH4 0x23B872DD EQ PUSH2 0x2D8 JUMPI DUP1 PUSH4 0x23DE6651 EQ PUSH2 0x2EB JUMPI PUSH2 0x23D JUMP JUMPDEST DUP1 PUSH4 0x1E1D114 EQ PUSH2 0x242 JUMPI DUP1 PUSH4 0x6FDDE03 EQ PUSH2 0x260 JUMPI DUP1 PUSH4 0x7A2D13A EQ PUSH2 0x275 JUMPI DUP1 PUSH4 0x95EA7B3 EQ PUSH2 0x288 JUMPI JUMPDEST PUSH1 0x0 DUP1 REVERT JUMPDEST PUSH2 0x24A PUSH2 0x4D3 JUMP JUMPDEST PUSH1 0x40 MLOAD PUSH2 0x257 SWAP2 SWAP1 PUSH2 0x26D7 JUMP JUMPDEST PUSH1 0x40 MLOAD DUP1 SWAP2 SUB SWAP1 RETURN JUMPDEST PUSH2 0x268 PUSH2 0x4E2 JUMP JUMPDEST PUSH1 0x40 MLOAD PUSH2 0x257 SWAP2 SWAP1 PUSH2 0x26E0 JUMP JUMPDEST PUSH2 0x24A PUSH2 0x283 CALLDATASIZE PUSH1 0x4 PUSH2 0x2598 JUMP JUMPDEST PUSH2 0x56F JUMP JUMPDEST PUSH2 0x29B PUSH2 0x296 CALLDATASIZE PUSH1 0x4 PUSH2 0x23AD JUMP JUMPDEST PUSH2 0x5EA JUMP JUMPDEST PUSH1 0x40 MLOAD PUSH2 0x257 SWAP2 SWAP1 PUSH2 0x26CC JUMP JUMPDEST PUSH2 0x24A PUSH2 0x2B6 CALLDATASIZE PUSH1 0x4 PUSH2 0x2598 JUMP JUMPDEST PUSH2 0x650 JUMP JUMPDEST PUSH2 0x24A PUSH2 0x68E JUMP JUMPDEST PUSH2 0x2CB PUSH2 0x698 JUMP JUMPDEST PUSH1 0x40 MLOAD PUSH2 0x257 SWAP2 SWAP1 PUSH2 0x2790 JUMP JUMPDEST PUSH2 0x29B PUSH2 0x2E6 CALLDATASIZE PUSH1 0x4 PUSH2 0x2358 JUMP JUMPDEST PUSH2 0x6A2 JUMP JUMPDEST PUSH2 0x2FE PUSH2 0x2F9 CALLDATASIZE PUSH1 0x4 PUSH2 0x2358 JUMP JUMPDEST PUSH2 0x6FB JUMP JUMPDEST STOP JUMPDEST PUSH2 0x308 PUSH2 0x78A JUMP JUMPDEST PUSH1 0x40 MLOAD PUSH2 0x257 SWAP2 SWAP1 PUSH2 0x2862 JUMP JUMPDEST PUSH2 0x31D PUSH2 0x78F JUMP JUMPDEST PUSH1 0x40 MLOAD PUSH2 0x257 SWAP2 SWAP1 PUSH2 0x26B8 JUMP JUMPDEST PUSH2 0x2FE PUSH2 0x338 CALLDATASIZE PUSH1 0x4 PUSH2 0x2398 JUMP JUMPDEST PUSH2 0x7A5 JUMP JUMPDEST PUSH2 0x24A PUSH2 0x8A0 JUMP JUMPDEST PUSH2 0x24A PUSH2 0x8AC JUMP JUMPDEST PUSH2 0x24A PUSH2 0x35B CALLDATASIZE PUSH1 0x4 PUSH2 0x22A3 JUMP JUMPDEST PUSH2 0x8E2 JUMP JUMPDEST PUSH2 0x24A PUSH2 0x36E CALLDATASIZE PUSH1 0x4 PUSH2 0x2598 JUMP JUMPDEST PUSH2 0x9EE JUMP JUMPDEST PUSH2 0x24A PUSH2 0x381 CALLDATASIZE PUSH1 0x4 PUSH2 0x25B0 JUMP JUMPDEST PUSH2 0x9F9 JUMP JUMPDEST PUSH2 0x31D PUSH2 0xAA5 JUMP JUMPDEST PUSH2 0x24A PUSH2 0x39C CALLDATASIZE PUSH1 0x4 PUSH2 0x22A3 JUMP JUMPDEST PUSH2 0xABB JUMP JUMPDEST PUSH2 0x308 PUSH2 0xAC6 JUMP JUMPDEST PUSH2 0x31D PUSH2 0xAD5 JUMP JUMPDEST PUSH2 0x24A PUSH2 0xAF9 JUMP JUMPDEST PUSH2 0x24A PUSH2 0xBA0 JUMP JUMPDEST PUSH2 0x24A PUSH2 0x3CF CALLDATASIZE PUSH1 0x4 PUSH2 0x25B0 JUMP JUMPDEST PUSH2 0xBF7 JUMP JUMPDEST PUSH2 0x268 PUSH2 0xCB1 JUMP JUMPDEST PUSH2 0x2FE PUSH2 0x3EA CALLDATASIZE PUSH1 0x4 PUSH2 0x2410 JUMP JUMPDEST PUSH2 0xD09 JUMP JUMPDEST PUSH2 0x29B PUSH2 0x3FD CALLDATASIZE PUSH1 0x4 PUSH2 0x23AD JUMP JUMPDEST PUSH2 0xE6C JUMP JUMPDEST PUSH2 0x2FE PUSH2 0x410 CALLDATASIZE PUSH1 0x4 PUSH2 0x250C JUMP JUMPDEST PUSH2 0xEBD JUMP JUMPDEST PUSH2 0x2FE PUSH2 0x423 CALLDATASIZE PUSH1 0x4 PUSH2 0x23AD JUMP JUMPDEST PUSH2 0x118E JUMP JUMPDEST PUSH2 0x24A PUSH2 0x436 CALLDATASIZE PUSH1 0x4 PUSH2 0x2598 JUMP JUMPDEST PUSH2 0x125C JUMP JUMPDEST PUSH2 0x24A PUSH2 0x449 CALLDATASIZE PUSH1 0x4 PUSH2 0x25D4 JUMP JUMPDEST PUSH2 0x128F JUMP JUMPDEST PUSH2 0x24A PUSH2 0x45C CALLDATASIZE PUSH1 0x4 PUSH2 0x25D4 JUMP JUMPDEST PUSH2 0x1372 JUMP JUMPDEST PUSH2 0x24A PUSH2 0x46F CALLDATASIZE PUSH1 0x4 PUSH2 0x22A3 JUMP JUMPDEST PUSH2 0x141B JUMP JUMPDEST PUSH2 0x24A PUSH2 0x482 CALLDATASIZE PUSH1 0x4 PUSH2 0x2598 JUMP JUMPDEST PUSH2 0x1440 JUMP JUMPDEST PUSH2 0x2FE PUSH2 0x495 CALLDATASIZE PUSH1 0x4 PUSH2 0x2313 JUMP JUMPDEST PUSH2 0x145F JUMP JUMPDEST PUSH2 0x24A PUSH2 0x4A8 CALLDATASIZE PUSH1 0x4 PUSH2 0x22A3 JUMP JUMPDEST PUSH2 0x1563 JUMP JUMPDEST PUSH2 0x24A PUSH2 0x4BB CALLDATASIZE PUSH1 0x4 PUSH2 0x22DB JUMP JUMPDEST PUSH2 0x1571 JUMP JUMPDEST PUSH2 0x24A PUSH2 0x4CE CALLDATASIZE PUSH1 0x4 PUSH2 0x2598 JUMP JUMPDEST PUSH2 0x157D JUMP JUMPDEST PUSH1 0x0 PUSH2 0x4DD PUSH2 0x158E JUMP JUMPDEST SWAP1 POP SWAP1 JUMP JUMPDEST PUSH1 0x1 DUP1 SLOAD PUSH1 0x40 DUP1 MLOAD PUSH1 0x20 PUSH1 0x2 DUP5 DUP7 AND ISZERO PUSH2 0x100 MUL PUSH1 0x0 NOT ADD SWAP1 SWAP5 AND SWAP4 SWAP1 SWAP4 DIV PUSH1 0x1F DUP2 ADD DUP5 SWAP1 DIV DUP5 MUL DUP3 ADD DUP5 ADD SWAP1 SWAP3 MSTORE DUP2 DUP2 MSTORE SWAP3 SWAP2 DUP4 ADD DUP3 DUP3 DUP1 ISZERO PUSH2 0x567 JUMPI DUP1 PUSH1 0x1F LT PUSH2 0x53C JUMPI PUSH2 0x100 DUP1 DUP4 SLOAD DIV MUL DUP4 MSTORE SWAP2 PUSH1 0x20 ADD SWAP2 PUSH2 0x567 JUMP JUMPDEST DUP3 ADD SWAP2 SWAP1 PUSH1 0x0 MSTORE PUSH1 0x20 PUSH1 0x0 KECCAK256 SWAP1 JUMPDEST DUP2 SLOAD DUP2 MSTORE SWAP1 PUSH1 0x1 ADD SWAP1 PUSH1 0x20 ADD DUP1 DUP4 GT PUSH2 0x54A JUMPI DUP3 SWAP1 SUB PUSH1 0x1F AND DUP3 ADD SWAP2 JUMPDEST POP POP POP POP POP DUP2 JUMP JUMPDEST PUSH1 0x0 DUP1 PUSH1 0x8 PUSH1 0x3 PUSH1 0x2 SWAP1 SLOAD SWAP1 PUSH2 0x100 EXP SWAP1 DIV PUSH1 0xFF AND PUSH1 0xFF AND LT PUSH2 0x5A4 JUMPI PUSH1 0x8 PUSH1 0x3 PUSH1 0x2 SWAP1 SLOAD SWAP1 PUSH2 0x100 EXP SWAP1 DIV PUSH1 0xFF AND SUB PUSH2 0x5A7 JUMP JUMPDEST PUSH1 0x0 JUMPDEST PUSH1 0xFF AND PUSH1 0xA EXP SWAP1 POP PUSH2 0x5E1 DUP2 PUSH2 0x5DB DUP4 PUSH2 0x5D5 PUSH8 0xDE0B6B3A7640000 PUSH2 0x5D5 PUSH2 0x5CE PUSH2 0x8AC JUMP JUMPDEST DUP11 SWAP1 PUSH2 0x1671 JUMP JUMPDEST SWAP1 PUSH2 0x1698 JUMP JUMPDEST SWAP1 PUSH2 0x1671 JUMP JUMPDEST SWAP2 POP POP JUMPDEST SWAP2 SWAP1 POP JUMP JUMPDEST PUSH1 0x0 PUSH2 0x5F6 DUP4 DUP4 PUSH2 0x16B7 JUMP JUMPDEST SWAP1 POP DUP1 ISZERO PUSH2 0x64A JUMPI DUP3 PUSH1 0x1 PUSH1 0x1 PUSH1 0xA0 SHL SUB AND CALLER PUSH1 0x1 PUSH1 0x1 PUSH1 0xA0 SHL SUB AND PUSH32 0x8C5BE1E5EBEC7D5BD14F71427D1E84F3DD0314C0F7B2291E5B200AC8C7C3B925 DUP5 PUSH1 0x40 MLOAD PUSH2 0x641 SWAP2 SWAP1 PUSH2 0x26D7 JUMP JUMPDEST PUSH1 0x40 MLOAD DUP1 SWAP2 SUB SWAP1 LOG3 JUMPDEST SWAP3 SWAP2 POP POP JUMP JUMPDEST PUSH1 0x3 SLOAD PUSH1 0x0 SWAP1 PUSH1 0x8 PUSH3 0x10000 SWAP1 SWAP2 DIV PUSH1 0xFF AND LT PUSH2 0x680 JUMPI PUSH2 0x67B PUSH1 0x1 PUSH2 0x675 DUP5 PUSH2 0x1440 JUMP JUMPDEST SWAP1 PUSH2 0x1766 JUMP JUMPDEST PUSH2 0x64A JUMP JUMPDEST PUSH2 0x64A PUSH2 0x482 DUP4 PUSH1 0x1 PUSH2 0x1766 JUMP JUMPDEST PUSH1 0x0 PUSH2 0x4DD PUSH2 0x1778 JUMP JUMPDEST PUSH1 0x3 SLOAD PUSH2 0xFFFF AND DUP2 JUMP JUMPDEST PUSH1 0x0 DUP3 PUSH1 0x1 PUSH1 0x1 PUSH1 0xA0 SHL SUB AND DUP5 PUSH1 0x1 PUSH1 0x1 PUSH1 0xA0 SHL SUB AND PUSH1 0x0 DUP1 MLOAD PUSH1 0x20 PUSH2 0x2907 DUP4 CODECOPY DUP2 MLOAD SWAP2 MSTORE DUP5 PUSH1 0x40 MLOAD PUSH2 0x6D5 SWAP2 SWAP1 PUSH2 0x26D7 JUMP JUMPDEST PUSH1 0x40 MLOAD DUP1 SWAP2 SUB SWAP1 LOG3 PUSH2 0x6E8 DUP5 DUP5 DUP5 PUSH2 0x17C7 JUMP JUMPDEST SWAP1 POP DUP1 PUSH2 0x6F4 JUMPI PUSH1 0x0 DUP1 REVERT JUMPDEST SWAP4 SWAP3 POP POP POP JUMP JUMPDEST CALLER PUSH1 0x1 PUSH1 0x1 PUSH1 0xA0 SHL SUB PUSH32 0x0 AND EQ PUSH2 0x74C JUMPI PUSH1 0x40 MLOAD PUSH3 0x461BCD PUSH1 0xE5 SHL DUP2 MSTORE PUSH1 0x4 ADD PUSH2 0x743 SWAP1 PUSH2 0x273C JUMP JUMPDEST PUSH1 0x40 MLOAD DUP1 SWAP2 SUB SWAP1 REVERT JUMPDEST DUP2 PUSH1 0x1 PUSH1 0x1 PUSH1 0xA0 SHL SUB AND DUP4 PUSH1 0x1 PUSH1 0x1 PUSH1 0xA0 SHL SUB AND PUSH1 0x0 DUP1 MLOAD PUSH1 0x20 PUSH2 0x2907 DUP4 CODECOPY DUP2 MLOAD SWAP2 MSTORE DUP4 PUSH1 0x40 MLOAD PUSH2 0x77D SWAP2 SWAP1 PUSH2 0x26D7 JUMP JUMPDEST PUSH1 0x40 MLOAD DUP1 SWAP2 SUB SWAP1 LOG3 POP POP POP JUMP JUMPDEST PUSH1 0x8 DUP2 JUMP JUMPDEST PUSH1 0x3 SLOAD PUSH4 0x1000000 SWAP1 DIV PUSH1 0x1 PUSH1 0x1 PUSH1 0xA0 SHL SUB AND SWAP1 JUMP JUMPDEST CALLER PUSH1 0x1 PUSH1 0x1 PUSH1 0xA0 SHL SUB PUSH32 0x0 AND EQ PUSH2 0x7ED JUMPI PUSH1 0x40 MLOAD PUSH3 0x461BCD PUSH1 0xE5 SHL DUP2 MSTORE PUSH1 0x4 ADD PUSH2 0x743 SWAP1 PUSH2 0x273C JUMP JUMPDEST DUP4 PUSH1 0x1 PUSH1 0x1 PUSH1 0xA0 SHL SUB AND PUSH1 0x0 PUSH1 0x1 PUSH1 0x1 PUSH1 0xA0 SHL SUB AND PUSH1 0x0 DUP1 MLOAD PUSH1 0x20 PUSH2 0x2907 DUP4 CODECOPY DUP2 MLOAD SWAP2 MSTORE DUP5 PUSH1 0x40 MLOAD PUSH2 0x81F SWAP2 SWAP1 PUSH2 0x26D7 JUMP JUMPDEST PUSH1 0x40 MLOAD DUP1 SWAP2 SUB SWAP1 LOG3 DUP3 PUSH1 0x1 PUSH1 0x1 PUSH1 0xA0 SHL SUB AND DUP5 PUSH1 0x1 PUSH1 0x1 PUSH1 0xA0 SHL SUB AND PUSH1 0x0 DUP1 MLOAD PUSH1 0x20 PUSH2 0x2907 DUP4 CODECOPY DUP2 MLOAD SWAP2 MSTORE DUP4 PUSH1 0x40 MLOAD PUSH2 0x858 SWAP2 SWAP1 PUSH2 0x26D7 JUMP JUMPDEST PUSH1 0x40 MLOAD DUP1 SWAP2 SUB SWAP1 LOG3 PUSH1 0x0 PUSH1 0x1 PUSH1 0x1 PUSH1 0xA0 SHL SUB AND DUP4 PUSH1 0x1 PUSH1 0x1 PUSH1 0xA0 SHL SUB AND PUSH1 0x0 DUP1 MLOAD PUSH1 0x20 PUSH2 0x2907 DUP4 CODECOPY DUP2 MLOAD SWAP2 MSTORE DUP4 PUSH1 0x40 MLOAD PUSH2 0x892 SWAP2 SWAP1 PUSH2 0x26D7 JUMP JUMPDEST PUSH1 0x40 MLOAD DUP1 SWAP2 SUB SWAP1 LOG3 POP POP POP POP JUMP JUMPDEST PUSH8 0xDE0B6B3A7640000 DUP2 JUMP JUMPDEST PUSH1 0x0 DUP1 PUSH2 0x8B7 PUSH2 0x158E JUMP JUMPDEST SWAP1 POP PUSH1 0x0 PUSH2 0x8C3 PUSH2 0x1778 JUMP JUMPDEST SWAP1 POP PUSH2 0x8DB DUP2 PUSH2 0x5D5 DUP5 PUSH8 0xDE0B6B3A7640000 PUSH2 0x1671 JUMP JUMPDEST SWAP3 POP POP POP SWAP1 JUMP JUMPDEST PUSH1 0x3 SLOAD PUSH1 0x40 MLOAD PUSH4 0x206F2799 PUSH1 0xE0 SHL DUP2 MSTORE PUSH1 0x0 SWAP2 DUP3 SWAP2 DUP3 SWAP2 PUSH1 0x1 PUSH1 0x1 PUSH1 0xA0 SHL SUB PUSH32 0x0 AND SWAP2 PUSH4 0x206F2799 SWAP2 PUSH2 0x93F SWAP2 PUSH2 0xFFFF SWAP1 SWAP2 AND SWAP1 TIMESTAMP SWAP1 PUSH1 0x4 ADD PUSH2 0x2840 JUMP JUMPDEST PUSH2 0x200 PUSH1 0x40 MLOAD DUP1 DUP4 SUB DUP2 DUP7 DUP1 EXTCODESIZE ISZERO DUP1 ISZERO PUSH2 0x958 JUMPI PUSH1 0x0 DUP1 REVERT JUMPDEST POP GAS STATICCALL ISZERO DUP1 ISZERO PUSH2 0x96C JUMPI RETURNDATASIZE PUSH1 0x0 DUP1 RETURNDATACOPY RETURNDATASIZE PUSH1 0x0 REVERT JUMPDEST POP POP POP POP PUSH1 0x40 MLOAD RETURNDATASIZE PUSH1 0x1F NOT PUSH1 0x1F DUP3 ADD AND DUP3 ADD DUP1 PUSH1 0x40 MSTORE POP DUP2 ADD SWAP1 PUSH2 0x990 SWAP2 SWAP1 PUSH2 0x2471 JUMP JUMPDEST POP POP SWAP4 POP SWAP4 POP POP POP DUP2 PUSH1 0x0 EQ ISZERO PUSH2 0x9AD JUMPI PUSH1 0x0 NOT SWAP3 POP POP POP PUSH2 0x5E5 JUMP JUMPDEST DUP1 DUP3 GT PUSH2 0x9BF JUMPI PUSH1 0x0 SWAP3 POP POP POP PUSH2 0x5E5 JUMP JUMPDEST PUSH1 0x3 SLOAD PUSH2 0x9E5 SWAP1 PUSH4 0x5F5E100 SWAP1 PUSH2 0x5D5 SWAP1 DUP5 DUP7 SUB SWAP1 PUSH3 0x10000 SWAP1 DIV PUSH1 0xFF AND PUSH1 0xA EXP PUSH2 0x1671 JUMP JUMPDEST SWAP3 POP POP POP PUSH2 0x5E5 JUMP JUMPDEST PUSH1 0x0 PUSH2 0x64A DUP3 PUSH2 0x56F JUMP JUMPDEST PUSH1 0x0 DUP1 PUSH2 0xA05 DUP5 PUSH2 0x1880 JUMP JUMPDEST SWAP1 SWAP5 POP SWAP1 POP PUSH2 0xA15 DUP5 DUP3 DUP6 PUSH2 0x1A50 JUMP JUMPDEST SWAP2 POP DUP3 PUSH1 0x1 PUSH1 0x1 PUSH1 0xA0 SHL SUB AND PUSH1 0x0 PUSH1 0x1 PUSH1 0x1 PUSH1 0xA0 SHL SUB AND PUSH1 0x0 DUP1 MLOAD PUSH1 0x20 PUSH2 0x2907 DUP4 CODECOPY DUP2 MLOAD SWAP2 MSTORE DUP5 PUSH1 0x40 MLOAD PUSH2 0xA49 SWAP2 SWAP1 PUSH2 0x26D7 JUMP JUMPDEST PUSH1 0x40 MLOAD DUP1 SWAP2 SUB SWAP1 LOG3 DUP3 PUSH1 0x1 PUSH1 0x1 PUSH1 0xA0 SHL SUB AND CALLER PUSH1 0x1 PUSH1 0x1 PUSH1 0xA0 SHL SUB AND PUSH32 0xDCBC1C05240F31FF3AD067EF1EE35CE4997762752E3A095284754544F4C709D7 DUP7 DUP6 PUSH1 0x40 MLOAD PUSH2 0xA96 SWAP3 SWAP2 SWAP1 PUSH2 0x2854 JUMP JUMPDEST PUSH1 0x40 MLOAD DUP1 SWAP2 SUB SWAP1 LOG3 POP SWAP3 SWAP2 POP POP JUMP JUMPDEST PUSH1 0x3 SLOAD PUSH4 0x1000000 SWAP1 DIV PUSH1 0x1 PUSH1 0x1 PUSH1 0xA0 SHL SUB AND DUP2 JUMP JUMPDEST PUSH1 0x0 PUSH2 0x64A DUP3 PUSH2 0x1A6A JUMP JUMPDEST PUSH1 0x3 SLOAD PUSH3 0x10000 SWAP1 DIV PUSH1 0xFF AND DUP2 JUMP JUMPDEST PUSH32 0x0 DUP2 JUMP JUMPDEST PUSH1 0x3 SLOAD PUSH1 0x40 MLOAD PUSH4 0x1A05BCE1 PUSH1 0xE0 SHL DUP2 MSTORE PUSH1 0x0 SWAP2 PUSH1 0x1 PUSH1 0x1 PUSH1 0xA0 SHL SUB PUSH32 0x0 AND SWAP2 PUSH4 0x1A05BCE1 SWAP2 PUSH2 0xB50 SWAP2 PUSH2 0xFFFF SWAP1 SWAP2 AND SWAP1 PUSH1 0x4 ADD PUSH2 0x2790 JUMP JUMPDEST PUSH1 0x20 PUSH1 0x40 MLOAD DUP1 DUP4 SUB DUP2 DUP7 DUP1 EXTCODESIZE ISZERO DUP1 ISZERO PUSH2 0xB68 JUMPI PUSH1 0x0 DUP1 REVERT JUMPDEST POP GAS STATICCALL ISZERO DUP1 ISZERO PUSH2 0xB7C JUMPI RETURNDATASIZE PUSH1 0x0 DUP1 RETURNDATACOPY RETURNDATASIZE PUSH1 0x0 REVERT JUMPDEST POP POP POP POP PUSH1 0x40 MLOAD RETURNDATASIZE PUSH1 0x1F NOT PUSH1 0x1F DUP3 ADD AND DUP3 ADD DUP1 PUSH1 0x40 MSTORE POP DUP2 ADD SWAP1 PUSH2 0x4DD SWAP2 SWAP1 PUSH2 0x23F8 JUMP JUMPDEST PUSH1 0x3 SLOAD PUSH1 0x40 MLOAD PUSH4 0x3B2987B3 PUSH1 0xE0 SHL DUP2 MSTORE PUSH1 0x0 SWAP2 PUSH1 0x1 PUSH1 0x1 PUSH1 0xA0 SHL SUB PUSH32 0x0 AND SWAP2 PUSH4 0x3B2987B3 SWAP2 PUSH2 0xB50 SWAP2 PUSH2 0xFFFF SWAP1 SWAP2 AND SWAP1 PUSH1 0x4 ADD PUSH2 0x2790 JUMP JUMPDEST PUSH1 0x0 DUP1 PUSH2 0xC03 DUP5 PUSH2 0x125C JUMP JUMPDEST SWAP2 POP PUSH2 0xC0E DUP3 PUSH2 0x1880 JUMP JUMPDEST SWAP1 SWAP3 POP SWAP1 POP PUSH1 0x0 PUSH2 0xC20 DUP4 DUP4 DUP7 PUSH2 0x1A50 JUMP JUMPDEST SWAP1 POP DUP4 PUSH1 0x1 PUSH1 0x1 PUSH1 0xA0 SHL SUB AND PUSH1 0x0 PUSH1 0x1 PUSH1 0x1 PUSH1 0xA0 SHL SUB AND PUSH1 0x0 DUP1 MLOAD PUSH1 0x20 PUSH2 0x2907 DUP4 CODECOPY DUP2 MLOAD SWAP2 MSTORE DUP4 PUSH1 0x40 MLOAD PUSH2 0xC54 SWAP2 SWAP1 PUSH2 0x26D7 JUMP JUMPDEST PUSH1 0x40 MLOAD DUP1 SWAP2 SUB SWAP1 LOG3 DUP4 PUSH1 0x1 PUSH1 0x1 PUSH1 0xA0 SHL SUB AND CALLER PUSH1 0x1 PUSH1 0x1 PUSH1 0xA0 SHL SUB AND PUSH32 0xDCBC1C05240F31FF3AD067EF1EE35CE4997762752E3A095284754544F4C709D7 DUP6 DUP5 PUSH1 0x40 MLOAD PUSH2 0xCA1 SWAP3 SWAP2 SWAP1 PUSH2 0x2854 JUMP JUMPDEST PUSH1 0x40 MLOAD DUP1 SWAP2 SUB SWAP1 LOG3 POP POP SWAP3 SWAP2 POP POP JUMP JUMPDEST PUSH1 0x2 DUP1 SLOAD PUSH1 0x40 DUP1 MLOAD PUSH1 0x20 PUSH1 0x1 DUP5 AND ISZERO PUSH2 0x100 MUL PUSH1 0x0 NOT ADD SWAP1 SWAP4 AND DUP5 SWAP1 DIV PUSH1 0x1F DUP2 ADD DUP5 SWAP1 DIV DUP5 MUL DUP3 ADD DUP5 ADD SWAP1 SWAP3 MSTORE DUP2 DUP2 MSTORE SWAP3 SWAP2 DUP4 ADD DUP3 DUP3 DUP1 ISZERO PUSH2 0x567 JUMPI DUP1 PUSH1 0x1F LT PUSH2 0x53C JUMPI PUSH2 0x100 DUP1 DUP4 SLOAD DIV MUL DUP4 MSTORE SWAP2 PUSH1 0x20 ADD SWAP2 PUSH2 0x567 JUMP JUMPDEST PUSH32 0x0 PUSH1 0x1 PUSH1 0x1 PUSH1 0xA0 SHL SUB AND PUSH4 0x8DA5CB5B PUSH1 0x40 MLOAD DUP2 PUSH4 0xFFFFFFFF AND PUSH1 0xE0 SHL DUP2 MSTORE PUSH1 0x4 ADD PUSH1 0x20 PUSH1 0x40 MLOAD DUP1 DUP4 SUB DUP2 DUP7 DUP1 EXTCODESIZE ISZERO DUP1 ISZERO PUSH2 0xD62 JUMPI PUSH1 0x0 DUP1 REVERT JUMPDEST POP GAS STATICCALL ISZERO DUP1 ISZERO PUSH2 0xD76 JUMPI RETURNDATASIZE PUSH1 0x0 DUP1 RETURNDATACOPY RETURNDATASIZE PUSH1 0x0 REVERT JUMPDEST POP POP POP POP PUSH1 0x40 MLOAD RETURNDATASIZE PUSH1 0x1F NOT PUSH1 0x1F DUP3 ADD AND DUP3 ADD DUP1 PUSH1 0x40 MSTORE POP DUP2 ADD SWAP1 PUSH2 0xD9A SWAP2 SWAP1 PUSH2 0x22BF JUMP JUMPDEST PUSH1 0x1 PUSH1 0x1 PUSH1 0xA0 SHL SUB AND CALLER PUSH1 0x1 PUSH1 0x1 PUSH1 0xA0 SHL SUB AND EQ PUSH2 0xDB7 JUMPI PUSH1 0x0 DUP1 REVERT JUMPDEST PUSH1 0x0 DUP1 PUSH1 0x0 PUSH2 0xDC4 PUSH2 0x1B13 JUMP JUMPDEST SWAP3 POP SWAP3 POP SWAP3 POP DUP3 DUP6 DUP4 PUSH1 0x40 MLOAD PUSH1 0x20 ADD PUSH2 0xDDF SWAP4 SWAP3 SWAP2 SWAP1 PUSH2 0x2665 JUMP JUMPDEST PUSH1 0x40 MLOAD PUSH1 0x20 DUP2 DUP4 SUB SUB DUP2 MSTORE SWAP1 PUSH1 0x40 MSTORE PUSH1 0x1 SWAP1 DUP1 MLOAD SWAP1 PUSH1 0x20 ADD SWAP1 PUSH2 0xE03 SWAP3 SWAP2 SWAP1 PUSH2 0x212B JUMP JUMPDEST POP DUP1 DUP5 PUSH1 0x40 MLOAD PUSH1 0x20 ADD PUSH2 0xE17 SWAP3 SWAP2 SWAP1 PUSH2 0x2636 JUMP JUMPDEST PUSH1 0x40 MLOAD PUSH1 0x20 DUP2 DUP4 SUB SUB DUP2 MSTORE SWAP1 PUSH1 0x40 MSTORE PUSH1 0x2 SWAP1 DUP1 MLOAD SWAP1 PUSH1 0x20 ADD SWAP1 PUSH2 0xE3B SWAP3 SWAP2 SWAP1 PUSH2 0x212B JUMP JUMPDEST POP PUSH1 0x40 MLOAD PUSH32 0x8D4BC6886F1B5887A0C7DA5CF5DBDF35C7BCCED78089E0E522B49BE058176999 SWAP1 PUSH1 0x0 SWAP1 LOG1 POP POP POP POP POP JUMP JUMPDEST PUSH1 0x0 DUP3 PUSH1 0x1 PUSH1 0x1 PUSH1 0xA0 SHL SUB AND CALLER PUSH1 0x1 PUSH1 0x1 PUSH1 0xA0 SHL SUB AND PUSH1 0x0 DUP1 MLOAD PUSH1 0x20 PUSH2 0x2907 DUP4 CODECOPY DUP2 MLOAD SWAP2 MSTORE DUP5 PUSH1 0x40 MLOAD PUSH2 0xE9F SWAP2 SWAP1 PUSH2 0x26D7 JUMP JUMPDEST PUSH1 0x40 MLOAD DUP1 SWAP2 SUB SWAP1 LOG3 PUSH2 0xEB1 DUP4 DUP4 PUSH2 0x1B4F JUMP JUMPDEST SWAP1 POP DUP1 PUSH2 0x64A JUMPI PUSH1 0x0 DUP1 REVERT JUMPDEST CALLER PUSH1 0x1 PUSH1 0x1 PUSH1 0xA0 SHL SUB PUSH32 0x0 AND EQ PUSH2 0xF05 JUMPI PUSH1 0x40 MLOAD PUSH3 0x461BCD PUSH1 0xE5 SHL DUP2 MSTORE PUSH1 0x4 ADD PUSH2 0x743 SWAP1 PUSH2 0x273C JUMP JUMPDEST PUSH1 0x0 SLOAD PUSH2 0x100 SWAP1 DIV PUSH1 0xFF AND DUP1 PUSH2 0xF1E JUMPI POP PUSH2 0xF1E PUSH2 0x1BAC JUMP JUMPDEST DUP1 PUSH2 0xF2C JUMPI POP PUSH1 0x0 SLOAD PUSH1 0xFF AND ISZERO JUMPDEST PUSH2 0xF67 JUMPI PUSH1 0x40 MLOAD PUSH3 0x461BCD PUSH1 0xE5 SHL DUP2 MSTORE PUSH1 0x4 ADD DUP1 DUP1 PUSH1 0x20 ADD DUP3 DUP2 SUB DUP3 MSTORE PUSH1 0x2E DUP2 MSTORE PUSH1 0x20 ADD DUP1 PUSH2 0x28D9 PUSH1 0x2E SWAP2 CODECOPY PUSH1 0x40 ADD SWAP2 POP POP PUSH1 0x40 MLOAD DUP1 SWAP2 SUB SWAP1 REVERT JUMPDEST PUSH1 0x0 SLOAD PUSH2 0x100 SWAP1 DIV PUSH1 0xFF AND ISZERO DUP1 ISZERO PUSH2 0xF92 JUMPI PUSH1 0x0 DUP1 SLOAD PUSH1 0xFF NOT PUSH2 0xFF00 NOT SWAP1 SWAP2 AND PUSH2 0x100 OR AND PUSH1 0x1 OR SWAP1 SSTORE JUMPDEST PUSH1 0x3 DUP1 SLOAD PUSH2 0xFFFF NOT AND PUSH2 0xFFFF DUP8 AND OR SWAP1 SSTORE PUSH1 0x0 DUP1 DUP1 PUSH2 0xFAF PUSH2 0x1B13 JUMP JUMPDEST SWAP3 POP SWAP3 POP SWAP3 POP DUP3 DUP7 DUP4 PUSH1 0x40 MLOAD PUSH1 0x20 ADD PUSH2 0xFCA SWAP4 SWAP3 SWAP2 SWAP1 PUSH2 0x2665 JUMP JUMPDEST PUSH1 0x40 MLOAD PUSH1 0x20 DUP2 DUP4 SUB SUB DUP2 MSTORE SWAP1 PUSH1 0x40 MSTORE PUSH1 0x1 SWAP1 DUP1 MLOAD SWAP1 PUSH1 0x20 ADD SWAP1 PUSH2 0xFEE SWAP3 SWAP2 SWAP1 PUSH2 0x212B JUMP JUMPDEST POP DUP1 DUP6 PUSH1 0x40 MLOAD PUSH1 0x20 ADD PUSH2 0x1002 SWAP3 SWAP2 SWAP1 PUSH2 0x2636 JUMP JUMPDEST PUSH1 0x40 MLOAD PUSH1 0x20 DUP2 DUP4 SUB SUB DUP2 MSTORE SWAP1 PUSH1 0x40 MSTORE PUSH1 0x2 SWAP1 DUP1 MLOAD SWAP1 PUSH1 0x20 ADD SWAP1 PUSH2 0x1026 SWAP3 SWAP2 SWAP1 PUSH2 0x212B JUMP JUMPDEST POP PUSH1 0x1 PUSH1 0x1 PUSH1 0xA0 SHL SUB DUP8 AND PUSH2 0x1066 JUMPI PUSH1 0x3 DUP1 SLOAD PUSH4 0x1000000 PUSH1 0x1 PUSH1 0xB8 SHL SUB NOT AND PUSH23 0xC02AAA39B223FE8D0A0E5C4F27EAD9083C756CC2000000 OR SWAP1 SSTORE PUSH2 0x10C0 JUMP JUMPDEST PUSH1 0x3 DUP1 SLOAD PUSH4 0x1000000 PUSH1 0x1 PUSH1 0xB8 SHL SUB NOT AND PUSH4 0x1000000 PUSH1 0x1 PUSH1 0x1 PUSH1 0xA0 SHL SUB DUP11 DUP2 AND DUP3 MUL SWAP3 SWAP1 SWAP3 OR SWAP3 DUP4 SWAP1 SSTORE PUSH2 0x10C0 SWAP3 DIV AND PUSH32 0x0 PUSH1 0x0 NOT PUSH2 0x1BBD JUMP JUMPDEST PUSH1 0x3 DUP1 SLOAD SWAP1 PUSH2 0x100 EXP SWAP1 DIV PUSH1 0x1 PUSH1 0x1 PUSH1 0xA0 SHL SUB AND PUSH1 0x1 PUSH1 0x1 PUSH1 0xA0 SHL SUB AND PUSH4 0x313CE567 PUSH1 0x40 MLOAD DUP2 PUSH4 0xFFFFFFFF AND PUSH1 0xE0 SHL DUP2 MSTORE PUSH1 0x4 ADD PUSH1 0x20 PUSH1 0x40 MLOAD DUP1 DUP4 SUB DUP2 DUP7 DUP1 EXTCODESIZE ISZERO DUP1 ISZERO PUSH2 0x110C JUMPI PUSH1 0x0 DUP1 REVERT JUMPDEST POP GAS STATICCALL ISZERO DUP1 ISZERO PUSH2 0x1120 JUMPI RETURNDATASIZE PUSH1 0x0 DUP1 RETURNDATACOPY RETURNDATASIZE PUSH1 0x0 REVERT JUMPDEST POP POP POP POP PUSH1 0x40 MLOAD RETURNDATASIZE PUSH1 0x1F NOT PUSH1 0x1F DUP3 ADD AND DUP3 ADD DUP1 PUSH1 0x40 MSTORE POP DUP2 ADD SWAP1 PUSH2 0x1144 SWAP2 SWAP1 PUSH2 0x2615 JUMP JUMPDEST PUSH1 0x3 DUP1 SLOAD PUSH3 0xFF0000 NOT AND PUSH3 0x10000 PUSH1 0xFF SWAP4 DUP5 AND DUP2 MUL SWAP2 SWAP1 SWAP2 OR SWAP2 DUP3 SWAP1 SSTORE PUSH1 0x24 SWAP2 DIV SWAP1 SWAP2 AND LT PUSH2 0x1172 JUMPI PUSH1 0x0 DUP1 REVERT JUMPDEST POP POP POP DUP1 ISZERO PUSH2 0x1187 JUMPI PUSH1 0x0 DUP1 SLOAD PUSH2 0xFF00 NOT AND SWAP1 SSTORE JUMPDEST POP POP POP POP POP JUMP JUMPDEST CALLER PUSH1 0x1 PUSH1 0x1 PUSH1 0xA0 SHL SUB PUSH32 0x0 AND EQ PUSH2 0x11D6 JUMPI PUSH1 0x40 MLOAD PUSH3 0x461BCD PUSH1 0xE5 SHL DUP2 MSTORE PUSH1 0x4 ADD PUSH2 0x743 SWAP1 PUSH2 0x273C JUMP JUMPDEST PUSH1 0x0 DUP2 SLT ISZERO PUSH2 0x121D JUMPI PUSH1 0x0 PUSH1 0x1 PUSH1 0x1 PUSH1 0xA0 SHL SUB DUP4 AND PUSH1 0x0 DUP1 MLOAD PUSH1 0x20 PUSH2 0x2907 DUP4 CODECOPY DUP2 MLOAD SWAP2 MSTORE PUSH2 0x1203 DUP5 PUSH2 0x1CD5 JUMP JUMPDEST PUSH1 0x40 MLOAD PUSH2 0x1210 SWAP2 SWAP1 PUSH2 0x26D7 JUMP JUMPDEST PUSH1 0x40 MLOAD DUP1 SWAP2 SUB SWAP1 LOG3 PUSH2 0x1258 JUMP JUMPDEST DUP2 PUSH1 0x1 PUSH1 0x1 PUSH1 0xA0 SHL SUB AND PUSH1 0x0 PUSH1 0x1 PUSH1 0x1 PUSH1 0xA0 SHL SUB AND PUSH1 0x0 DUP1 MLOAD PUSH1 0x20 PUSH2 0x2907 DUP4 CODECOPY DUP2 MLOAD SWAP2 MSTORE DUP4 PUSH1 0x40 MLOAD PUSH2 0x124F SWAP2 SWAP1 PUSH2 0x26D7 JUMP JUMPDEST PUSH1 0x40 MLOAD DUP1 SWAP2 SUB SWAP1 LOG3 JUMPDEST POP POP JUMP JUMPDEST PUSH1 0x3 SLOAD PUSH1 0x0 SWAP1 PUSH1 0x8 PUSH3 0x10000 SWAP1 SWAP2 DIV PUSH1 0xFF AND LT PUSH2 0x1281 JUMPI PUSH2 0x67B PUSH2 0x283 DUP4 PUSH1 0x1 PUSH2 0x1766 JUMP JUMPDEST PUSH2 0x64A PUSH1 0x1 PUSH2 0x675 DUP5 PUSH2 0x56F JUMP JUMPDEST PUSH1 0x0 PUSH2 0x129A DUP5 PUSH2 0x650 JUMP JUMPDEST SWAP1 POP PUSH1 0x0 PUSH2 0x12A7 DUP4 PUSH2 0x1A6A JUMP JUMPDEST SWAP1 POP DUP1 DUP3 GT ISZERO PUSH2 0x12C9 JUMPI PUSH1 0x40 MLOAD PUSH3 0x461BCD PUSH1 0xE5 SHL DUP2 MSTORE PUSH1 0x4 ADD PUSH2 0x743 SWAP1 PUSH2 0x2762 JUMP JUMPDEST PUSH1 0x0 PUSH2 0x12D6 DUP4 DUP7 DUP7 PUSH2 0x1A50 JUMP JUMPDEST SWAP1 POP PUSH1 0x0 PUSH1 0x1 PUSH1 0x1 PUSH1 0xA0 SHL SUB AND DUP5 PUSH1 0x1 PUSH1 0x1 PUSH1 0xA0 SHL SUB AND PUSH1 0x0 DUP1 MLOAD PUSH1 0x20 PUSH2 0x2907 DUP4 CODECOPY DUP2 MLOAD SWAP2 MSTORE DUP6 PUSH1 0x40 MLOAD PUSH2 0x130A SWAP2 SWAP1 PUSH2 0x26D7 JUMP JUMPDEST PUSH1 0x40 MLOAD DUP1 SWAP2 SUB SWAP1 LOG3 DUP4 PUSH1 0x1 PUSH1 0x1 PUSH1 0xA0 SHL SUB AND DUP6 PUSH1 0x1 PUSH1 0x1 PUSH1 0xA0 SHL SUB AND CALLER PUSH1 0x1 PUSH1 0x1 PUSH1 0xA0 SHL SUB AND PUSH32 0xFBDE797D201C681B91056529119E0B02407C7BB96A4A2C75C01FC9667232C8DB DUP5 DUP8 PUSH1 0x40 MLOAD PUSH2 0x1361 SWAP3 SWAP2 SWAP1 PUSH2 0x2854 JUMP JUMPDEST PUSH1 0x40 MLOAD DUP1 SWAP2 SUB SWAP1 LOG4 POP POP SWAP4 SWAP3 POP POP POP JUMP JUMPDEST PUSH1 0x0 DUP1 PUSH2 0x1380 DUP6 DUP6 DUP6 PUSH2 0x1A50 JUMP JUMPDEST SWAP1 POP PUSH1 0x0 PUSH1 0x1 PUSH1 0x1 PUSH1 0xA0 SHL SUB AND DUP4 PUSH1 0x1 PUSH1 0x1 PUSH1 0xA0 SHL SUB AND PUSH1 0x0 DUP1 MLOAD PUSH1 0x20 PUSH2 0x2907 DUP4 CODECOPY DUP2 MLOAD SWAP2 MSTORE DUP8 PUSH1 0x40 MLOAD PUSH2 0x13B4 SWAP2 SWAP1 PUSH2 0x26D7 JUMP JUMPDEST PUSH1 0x40 MLOAD DUP1 SWAP2 SUB SWAP1 LOG3 DUP3 PUSH1 0x1 PUSH1 0x1 PUSH1 0xA0 SHL SUB AND DUP5 PUSH1 0x1 PUSH1 0x1 PUSH1 0xA0 SHL SUB AND CALLER PUSH1 0x1 PUSH1 0x1 PUSH1 0xA0 SHL SUB AND PUSH32 0xFBDE797D201C681B91056529119E0B02407C7BB96A4A2C75C01FC9667232C8DB DUP5 DUP10 PUSH1 0x40 MLOAD PUSH2 0x140B SWAP3 SWAP2 SWAP1 PUSH2 0x2854 JUMP JUMPDEST PUSH1 0x40 MLOAD DUP1 SWAP2 SUB SWAP1 LOG4 SWAP5 SWAP4 POP POP POP POP JUMP JUMPDEST PUSH1 0x0 DUP1 PUSH2 0x1428 PUSH1 0x0 PUSH2 0x8E2 JUMP JUMPDEST SWAP1 POP PUSH1 0x0 NOT DUP2 EQ ISZERO PUSH2 0x143B JUMPI SWAP1 POP PUSH2 0x5E5 JUMP JUMPDEST PUSH2 0x5E1 DUP2 JUMPDEST PUSH1 0x0 PUSH2 0x64A PUSH2 0x144D PUSH2 0x8AC JUMP JUMPDEST PUSH2 0x5D5 DUP5 PUSH8 0xDE0B6B3A7640000 PUSH2 0x1671 JUMP JUMPDEST CALLER PUSH1 0x1 PUSH1 0x1 PUSH1 0xA0 SHL SUB PUSH32 0x0 AND EQ PUSH2 0x14A7 JUMPI PUSH1 0x40 MLOAD PUSH3 0x461BCD PUSH1 0xE5 SHL DUP2 MSTORE PUSH1 0x4 ADD PUSH2 0x743 SWAP1 PUSH2 0x273C JUMP JUMPDEST PUSH1 0x0 DUP3 SLT ISZERO PUSH2 0x14F6 JUMPI DUP3 PUSH1 0x1 PUSH1 0x1 PUSH1 0xA0 SHL SUB AND DUP5 PUSH1 0x1 PUSH1 0x1 PUSH1 0xA0 SHL SUB AND PUSH1 0x0 DUP1 MLOAD PUSH1 0x20 PUSH2 0x2907 DUP4 CODECOPY DUP2 MLOAD SWAP2 MSTORE PUSH2 0x14DC DUP6 PUSH2 0x1CE3 JUMP JUMPDEST PUSH1 0x40 MLOAD PUSH2 0x14E9 SWAP2 SWAP1 PUSH2 0x26D7 JUMP JUMPDEST PUSH1 0x40 MLOAD DUP1 SWAP2 SUB SWAP1 LOG3 PUSH2 0x1530 JUMP JUMPDEST DUP4 PUSH1 0x1 PUSH1 0x1 PUSH1 0xA0 SHL SUB AND DUP4 PUSH1 0x1 PUSH1 0x1 PUSH1 0xA0 SHL SUB AND PUSH1 0x0 DUP1 MLOAD PUSH1 0x20 PUSH2 0x2907 DUP4 CODECOPY DUP2 MLOAD SWAP2 MSTORE DUP5 PUSH1 0x40 MLOAD PUSH2 0x1527 SWAP2 SWAP1 PUSH2 0x26D7 JUMP JUMPDEST PUSH1 0x40 MLOAD DUP1 SWAP2 SUB SWAP1 LOG3 JUMPDEST PUSH2 0xFEE PUSH1 0x1 PUSH1 0x1 PUSH1 0xA0 SHL SUB AND DUP5 PUSH1 0x1 PUSH1 0x1 PUSH1 0xA0 SHL SUB AND PUSH1 0x0 DUP1 MLOAD PUSH1 0x20 PUSH2 0x2907 DUP4 CODECOPY DUP2 MLOAD SWAP2 MSTORE DUP4 PUSH1 0x40 MLOAD PUSH2 0x892 SWAP2 SWAP1 PUSH2 0x26D7 JUMP JUMPDEST PUSH1 0x0 PUSH2 0x64A PUSH2 0x283 DUP4 PUSH2 0x1A6A JUMP JUMPDEST PUSH1 0x0 PUSH2 0x6F4 DUP4 DUP4 PUSH2 0x1D04 JUMP JUMPDEST PUSH1 0x0 PUSH2 0x64A DUP3 PUSH2 0x1440 JUMP JUMPDEST EXTCODESIZE ISZERO ISZERO SWAP1 JUMP JUMPDEST PUSH1 0x3 SLOAD PUSH1 0x40 MLOAD PUSH4 0x3B2987B3 PUSH1 0xE0 SHL DUP2 MSTORE PUSH1 0x0 SWAP2 DUP3 SWAP2 PUSH1 0x1 PUSH1 0x1 PUSH1 0xA0 SHL SUB PUSH32 0x0 AND SWAP2 PUSH4 0x3B2987B3 SWAP2 PUSH2 0x15E5 SWAP2 PUSH2 0xFFFF AND SWAP1 PUSH1 0x4 ADD PUSH2 0x2790 JUMP JUMPDEST PUSH1 0x20 PUSH1 0x40 MLOAD DUP1 DUP4 SUB DUP2 DUP7 DUP1 EXTCODESIZE ISZERO DUP1 ISZERO PUSH2 0x15FD JUMPI PUSH1 0x0 DUP1 REVERT JUMPDEST POP GAS STATICCALL ISZERO DUP1 ISZERO PUSH2 0x1611 JUMPI RETURNDATASIZE PUSH1 0x0 DUP1 RETURNDATACOPY RETURNDATASIZE PUSH1 0x0 REVERT JUMPDEST POP POP POP POP PUSH1 0x40 MLOAD RETURNDATASIZE PUSH1 0x1F NOT PUSH1 0x1F DUP3 ADD AND DUP3 ADD DUP1 PUSH1 0x40 MSTORE POP DUP2 ADD SWAP1 PUSH2 0x1635 SWAP2 SWAP1 PUSH2 0x23F8 JUMP JUMPDEST PUSH1 0x3 SLOAD SWAP1 SWAP2 POP PUSH2 0x166B SWAP1 PUSH2 0x1666 SWAP1 PUSH4 0x5F5E100 SWAP1 PUSH2 0x1660 SWAP1 DUP6 SWAP1 PUSH3 0x10000 SWAP1 DIV PUSH1 0xFF AND PUSH1 0xA EXP PUSH2 0x1DAF JUMP JUMPDEST SWAP1 PUSH2 0x1DF8 JUMP JUMPDEST PUSH2 0x1E29 JUMP JUMPDEST SWAP2 POP POP SWAP1 JUMP JUMPDEST PUSH1 0x0 DUP3 PUSH2 0x1680 JUMPI POP PUSH1 0x0 PUSH2 0x64A JUMP JUMPDEST DUP3 DUP3 MUL DUP3 DUP5 DUP3 DUP2 PUSH2 0x168D JUMPI INVALID JUMPDEST DIV EQ PUSH2 0x6F4 JUMPI PUSH1 0x0 DUP1 REVERT JUMPDEST PUSH1 0x0 DUP1 DUP3 GT PUSH2 0x16A6 JUMPI PUSH1 0x0 DUP1 REVERT JUMPDEST DUP2 DUP4 DUP2 PUSH2 0x16AF JUMPI INVALID JUMPDEST DIV SWAP4 SWAP3 POP POP POP JUMP JUMPDEST PUSH1 0x3 SLOAD PUSH1 0x40 MLOAD PUSH4 0x184E0053 PUSH1 0xE1 SHL DUP2 MSTORE PUSH1 0x0 SWAP2 PUSH1 0x1 PUSH1 0x1 PUSH1 0xA0 SHL SUB PUSH32 0x0 AND SWAP2 PUSH4 0x309C00A6 SWAP2 PUSH2 0x1714 SWAP2 PUSH2 0xFFFF SWAP1 SWAP2 AND SWAP1 CALLER SWAP1 DUP9 SWAP1 DUP9 SWAP1 PUSH1 0x4 ADD PUSH2 0x27F0 JUMP JUMPDEST PUSH1 0x20 PUSH1 0x40 MLOAD DUP1 DUP4 SUB DUP2 PUSH1 0x0 DUP8 DUP1 EXTCODESIZE ISZERO DUP1 ISZERO PUSH2 0x172E JUMPI PUSH1 0x0 DUP1 REVERT JUMPDEST POP GAS CALL ISZERO DUP1 ISZERO PUSH2 0x1742 JUMPI RETURNDATASIZE PUSH1 0x0 DUP1 RETURNDATACOPY RETURNDATASIZE PUSH1 0x0 REVERT JUMPDEST POP POP POP POP PUSH1 0x40 MLOAD RETURNDATASIZE PUSH1 0x1F NOT PUSH1 0x1F DUP3 ADD AND DUP3 ADD DUP1 PUSH1 0x40 MSTORE POP DUP2 ADD SWAP1 PUSH2 0x6F4 SWAP2 SWAP1 PUSH2 0x23D8 JUMP JUMPDEST PUSH1 0x0 DUP3 DUP3 ADD DUP4 DUP2 LT ISZERO PUSH2 0x6F4 JUMPI PUSH1 0x0 DUP1 REVERT JUMPDEST PUSH1 0x40 MLOAD PUSH4 0x6A96E86F PUSH1 0xE0 SHL DUP2 MSTORE PUSH1 0x0 SWAP1 PUSH1 0x1 PUSH1 0x1 PUSH1 0xA0 SHL SUB PUSH32 0x0 AND SWAP1 PUSH4 0x6A96E86F SWAP1 PUSH2 0xB50 SWAP1 ADDRESS SWAP1 PUSH1 0x4 ADD PUSH2 0x26B8 JUMP JUMPDEST PUSH1 0x3 SLOAD PUSH1 0x40 MLOAD PUSH4 0x44253849 PUSH1 0xE1 SHL DUP2 MSTORE PUSH1 0x0 SWAP2 PUSH1 0x1 PUSH1 0x1 PUSH1 0xA0 SHL SUB PUSH32 0x0 AND SWAP2 PUSH4 0x884A7092 SWAP2 PUSH2 0x1826 SWAP2 PUSH2 0xFFFF SWAP1 SWAP2 AND SWAP1 CALLER SWAP1 DUP10 SWAP1 DUP10 SWAP1 DUP10 SWAP1 PUSH1 0x4 ADD PUSH2 0x27BC JUMP JUMPDEST PUSH1 0x20 PUSH1 0x40 MLOAD DUP1 DUP4 SUB DUP2 PUSH1 0x0 DUP8 DUP1 EXTCODESIZE ISZERO DUP1 ISZERO PUSH2 0x1840 JUMPI PUSH1 0x0 DUP1 REVERT JUMPDEST POP GAS CALL ISZERO DUP1 ISZERO PUSH2 0x1854 JUMPI RETURNDATASIZE PUSH1 0x0 DUP1 RETURNDATACOPY RETURNDATASIZE PUSH1 0x0 REVERT JUMPDEST POP POP POP POP PUSH1 0x40 MLOAD RETURNDATASIZE PUSH1 0x1F NOT PUSH1 0x1F DUP3 ADD AND DUP3 ADD DUP1 PUSH1 0x40 MSTORE POP DUP2 ADD SWAP1 PUSH2 0x1878 SWAP2 SWAP1 PUSH2 0x23D8 JUMP JUMPDEST SWAP5 SWAP4 POP POP POP POP JUMP JUMPDEST PUSH1 0x3 SLOAD PUSH1 0x40 MLOAD PUSH4 0x70A08231 PUSH1 0xE0 SHL DUP2 MSTORE PUSH1 0x0 SWAP2 DUP3 SWAP2 DUP3 SWAP2 PUSH4 0x1000000 SWAP1 DIV PUSH1 0x1 PUSH1 0x1 PUSH1 0xA0 SHL SUB AND SWAP1 PUSH4 0x70A08231 SWAP1 PUSH2 0x18BC SWAP1 ADDRESS SWAP1 PUSH1 0x4 ADD PUSH2 0x26B8 JUMP JUMPDEST PUSH1 0x20 PUSH1 0x40 MLOAD DUP1 DUP4 SUB DUP2 DUP7 DUP1 EXTCODESIZE ISZERO DUP1 ISZERO PUSH2 0x18D4 JUMPI PUSH1 0x0 DUP1 REVERT JUMPDEST POP GAS STATICCALL ISZERO DUP1 ISZERO PUSH2 0x18E8 JUMPI RETURNDATASIZE PUSH1 0x0 DUP1 RETURNDATACOPY RETURNDATASIZE PUSH1 0x0 REVERT JUMPDEST POP POP POP POP PUSH1 0x40 MLOAD RETURNDATASIZE PUSH1 0x1F NOT PUSH1 0x1F DUP3 ADD AND DUP3 ADD DUP1 PUSH1 0x40 MSTORE POP DUP2 ADD SWAP1 PUSH2 0x190C SWAP2 SWAP1 PUSH2 0x23F8 JUMP JUMPDEST SWAP1 POP PUSH2 0x192D PUSH1 0x3 DUP1 SLOAD SWAP1 PUSH2 0x100 EXP SWAP1 DIV PUSH1 0x1 PUSH1 0x1 PUSH1 0xA0 SHL SUB AND CALLER ADDRESS DUP8 PUSH2 0x1E3C JUMP JUMPDEST PUSH1 0x3 SLOAD PUSH1 0x40 MLOAD PUSH4 0x70A08231 PUSH1 0xE0 SHL DUP2 MSTORE PUSH1 0x0 SWAP2 PUSH4 0x1000000 SWAP1 DIV PUSH1 0x1 PUSH1 0x1 PUSH1 0xA0 SHL SUB AND SWAP1 PUSH4 0x70A08231 SWAP1 PUSH2 0x1965 SWAP1 ADDRESS SWAP1 PUSH1 0x4 ADD PUSH2 0x26B8 JUMP JUMPDEST PUSH1 0x20 PUSH1 0x40 MLOAD DUP1 DUP4 SUB DUP2 DUP7 DUP1 EXTCODESIZE ISZERO DUP1 ISZERO PUSH2 0x197D JUMPI PUSH1 0x0 DUP1 REVERT JUMPDEST POP GAS STATICCALL ISZERO DUP1 ISZERO PUSH2 0x1991 JUMPI RETURNDATASIZE PUSH1 0x0 DUP1 RETURNDATACOPY RETURNDATASIZE PUSH1 0x0 REVERT JUMPDEST POP POP POP POP PUSH1 0x40 MLOAD RETURNDATASIZE PUSH1 0x1F NOT PUSH1 0x1F DUP3 ADD AND DUP3 ADD DUP1 PUSH1 0x40 MSTORE POP DUP2 ADD SWAP1 PUSH2 0x19B5 SWAP2 SWAP1 PUSH2 0x23F8 JUMP JUMPDEST SWAP1 POP PUSH2 0x19C1 DUP2 DUP4 PUSH2 0x1E9C JUMP JUMPDEST PUSH1 0x3 SLOAD SWAP1 SWAP5 POP PUSH2 0xFFFF AND PUSH1 0x1 EQ ISZERO PUSH2 0x1A44 JUMPI PUSH1 0x40 MLOAD PUSH4 0x2E1A7D4D PUSH1 0xE0 SHL DUP2 MSTORE PUSH20 0xC02AAA39B223FE8D0A0E5C4F27EAD9083C756CC2 SWAP1 PUSH4 0x2E1A7D4D SWAP1 PUSH2 0x1A0A SWAP1 DUP8 SWAP1 PUSH1 0x4 ADD PUSH2 0x26D7 JUMP JUMPDEST PUSH1 0x0 PUSH1 0x40 MLOAD DUP1 DUP4 SUB DUP2 PUSH1 0x0 DUP8 DUP1 EXTCODESIZE ISZERO DUP1 ISZERO PUSH2 0x1A24 JUMPI PUSH1 0x0 DUP1 REVERT JUMPDEST POP GAS CALL ISZERO DUP1 ISZERO PUSH2 0x1A38 JUMPI RETURNDATASIZE PUSH1 0x0 DUP1 RETURNDATACOPY RETURNDATASIZE PUSH1 0x0 REVERT JUMPDEST POP POP POP POP DUP4 SWAP3 POP PUSH2 0x1A49 JUMP JUMPDEST PUSH1 0x0 SWAP3 POP JUMPDEST POP POP SWAP2 POP SWAP2 JUMP JUMPDEST PUSH1 0x0 PUSH1 0x40 MLOAD PUSH3 0x461BCD PUSH1 0xE5 SHL DUP2 MSTORE PUSH1 0x4 ADD PUSH2 0x743 SWAP1 PUSH2 0x2713 JUMP JUMPDEST PUSH1 0x3 SLOAD PUSH1 0x40 MLOAD PUSH4 0xA78DBFFF PUSH1 0xE0 SHL DUP2 MSTORE PUSH1 0x0 SWAP2 PUSH1 0x1 PUSH1 0x1 PUSH1 0xA0 SHL SUB PUSH32 0x0 AND SWAP2 PUSH4 0xA78DBFFF SWAP2 PUSH2 0x1AC3 SWAP2 PUSH2 0xFFFF SWAP1 SWAP2 AND SWAP1 DUP7 SWAP1 PUSH1 0x4 ADD PUSH2 0x279F JUMP JUMPDEST PUSH1 0x20 PUSH1 0x40 MLOAD DUP1 DUP4 SUB DUP2 DUP7 DUP1 EXTCODESIZE ISZERO DUP1 ISZERO PUSH2 0x1ADB JUMPI PUSH1 0x0 DUP1 REVERT JUMPDEST POP GAS STATICCALL ISZERO DUP1 ISZERO PUSH2 0x1AEF JUMPI RETURNDATASIZE PUSH1 0x0 DUP1 RETURNDATACOPY RETURNDATASIZE PUSH1 0x0 REVERT JUMPDEST POP POP POP POP PUSH1 0x40 MLOAD RETURNDATASIZE PUSH1 0x1F NOT PUSH1 0x1F DUP3 ADD AND DUP3 ADD DUP1 PUSH1 0x40 MSTORE POP DUP2 ADD SWAP1 PUSH2 0x64A SWAP2 SWAP1 PUSH2 0x23F8 JUMP JUMPDEST PUSH1 0x40 DUP1 MLOAD DUP1 DUP3 ADD DUP3 MSTORE PUSH1 0x6 DUP2 MSTORE PUSH6 0x372A37B5B2B7 PUSH1 0xD1 SHL PUSH1 0x20 DUP1 DUP4 ADD SWAP2 SWAP1 SWAP2 MSTORE DUP3 MLOAD DUP1 DUP5 ADD SWAP1 SWAP4 MSTORE PUSH1 0x1 DUP4 MSTORE PUSH1 0x37 PUSH1 0xF9 SHL SWAP1 DUP4 ADD MSTORE SWAP2 PUSH1 0x60 SWAP2 SWAP1 JUMP JUMPDEST PUSH1 0x3 SLOAD PUSH1 0x40 MLOAD PUSH4 0x18AE40D7 PUSH1 0xE0 SHL DUP2 MSTORE PUSH1 0x0 SWAP2 PUSH1 0x1 PUSH1 0x1 PUSH1 0xA0 SHL SUB PUSH32 0x0 AND SWAP2 PUSH4 0x18AE40D7 SWAP2 PUSH2 0x1714 SWAP2 PUSH2 0xFFFF SWAP1 SWAP2 AND SWAP1 CALLER SWAP1 DUP9 SWAP1 DUP9 SWAP1 PUSH1 0x4 ADD PUSH2 0x27F0 JUMP JUMPDEST PUSH1 0x0 PUSH2 0x1BB7 ADDRESS PUSH2 0x1588 JUMP JUMPDEST ISZERO SWAP1 POP SWAP1 JUMP JUMPDEST DUP1 ISZERO DUP1 PUSH2 0x1C43 JUMPI POP PUSH1 0x40 DUP1 MLOAD PUSH4 0x6EB1769F PUSH1 0xE1 SHL DUP2 MSTORE ADDRESS PUSH1 0x4 DUP3 ADD MSTORE PUSH1 0x1 PUSH1 0x1 PUSH1 0xA0 SHL SUB DUP5 DUP2 AND PUSH1 0x24 DUP4 ADD MSTORE SWAP2 MLOAD SWAP2 DUP6 AND SWAP2 PUSH4 0xDD62ED3E SWAP2 PUSH1 0x44 DUP1 DUP3 ADD SWAP3 PUSH1 0x20 SWAP3 SWAP1 SWAP2 SWAP1 DUP3 SWAP1 SUB ADD DUP2 DUP7 DUP1 EXTCODESIZE ISZERO DUP1 ISZERO PUSH2 0x1C15 JUMPI PUSH1 0x0 DUP1 REVERT JUMPDEST POP GAS STATICCALL ISZERO DUP1 ISZERO PUSH2 0x1C29 JUMPI RETURNDATASIZE PUSH1 0x0 DUP1 RETURNDATACOPY RETURNDATASIZE PUSH1 0x0 REVERT JUMPDEST POP POP POP POP PUSH1 0x40 MLOAD RETURNDATASIZE PUSH1 0x20 DUP2 LT ISZERO PUSH2 0x1C3F JUMPI PUSH1 0x0 DUP1 REVERT JUMPDEST POP MLOAD ISZERO JUMPDEST PUSH2 0x1C7E JUMPI PUSH1 0x40 MLOAD PUSH3 0x461BCD PUSH1 0xE5 SHL DUP2 MSTORE PUSH1 0x4 ADD DUP1 DUP1 PUSH1 0x20 ADD DUP3 DUP2 SUB DUP3 MSTORE PUSH1 0x36 DUP2 MSTORE PUSH1 0x20 ADD DUP1 PUSH2 0x2951 PUSH1 0x36 SWAP2 CODECOPY PUSH1 0x40 ADD SWAP2 POP POP PUSH1 0x40 MLOAD DUP1 SWAP2 SUB SWAP1 REVERT JUMPDEST PUSH1 0x40 DUP1 MLOAD PUSH1 0x1 PUSH1 0x1 PUSH1 0xA0 SHL SUB DUP5 AND PUSH1 0x24 DUP3 ADD MSTORE PUSH1 0x44 DUP1 DUP3 ADD DUP5 SWAP1 MSTORE DUP3 MLOAD DUP1 DUP4 SUB SWAP1 SWAP2 ADD DUP2 MSTORE PUSH1 0x64 SWAP1 SWAP2 ADD SWAP1 SWAP2 MSTORE PUSH1 0x20 DUP2 ADD DUP1 MLOAD PUSH1 0x1 PUSH1 0x1 PUSH1 0xE0 SHL SUB AND PUSH4 0x95EA7B3 PUSH1 0xE0 SHL OR SWAP1 MSTORE PUSH2 0x1CD0 SWAP1 DUP5 SWAP1 PUSH2 0x1EB1 JUMP JUMPDEST POP POP POP JUMP JUMPDEST PUSH1 0x0 PUSH2 0x64A PUSH1 0x0 NOT DUP4 PUSH2 0x1DAF JUMP JUMPDEST PUSH1 0x0 DUP1 DUP3 SLT ISZERO PUSH2 0x1CFD JUMPI PUSH2 0x1CF6 DUP3 PUSH2 0x1CD5 JUMP JUMPDEST SWAP1 POP PUSH2 0x5E5 JUMP JUMPDEST POP DUP1 PUSH2 0x5E5 JUMP JUMPDEST PUSH1 0x3 SLOAD PUSH1 0x40 MLOAD PUSH4 0x7DB31AB9 PUSH1 0xE0 SHL DUP2 MSTORE PUSH1 0x0 SWAP2 PUSH1 0x1 PUSH1 0x1 PUSH1 0xA0 SHL SUB PUSH32 0x0 AND SWAP2 PUSH4 0x7DB31AB9 SWAP2 PUSH2 0x1D5F SWAP2 PUSH2 0xFFFF SWAP1 SWAP2 AND SWAP1 DUP8 SWAP1 DUP8 SWAP1 PUSH1 0x4 ADD PUSH2 0x281B JUMP JUMPDEST PUSH1 0x20 PUSH1 0x40 MLOAD DUP1 DUP4 SUB DUP2 DUP7 DUP1 EXTCODESIZE ISZERO DUP1 ISZERO PUSH2 0x1D77 JUMPI PUSH1 0x0 DUP1 REVERT JUMPDEST POP GAS STATICCALL ISZERO DUP1 ISZERO PUSH2 0x1D8B JUMPI RETURNDATASIZE PUSH1 0x0 DUP1 RETURNDATACOPY RETURNDATASIZE PUSH1 0x0 REVERT JUMPDEST POP POP POP POP PUSH1 0x40 MLOAD RETURNDATASIZE PUSH1 0x1F NOT PUSH1 0x1F DUP3 ADD AND DUP3 ADD DUP1 PUSH1 0x40 MSTORE POP DUP2 ADD SWAP1 PUSH2 0x6F4 SWAP2 SWAP1 PUSH2 0x23F8 JUMP JUMPDEST DUP2 DUP2 MUL PUSH1 0x0 NOT DUP4 EQ ISZERO PUSH2 0x1DDA JUMPI DUP2 ISZERO DUP1 PUSH2 0x1DD1 JUMPI POP DUP3 DUP3 DUP3 DUP2 PUSH2 0x1DCE JUMPI INVALID JUMPDEST SDIV EQ JUMPDEST PUSH2 0x67B JUMPI PUSH1 0x0 DUP1 REVERT JUMPDEST DUP3 ISZERO DUP1 PUSH2 0x1DEF JUMPI POP DUP2 DUP4 DUP3 DUP2 PUSH2 0x1DEC JUMPI INVALID JUMPDEST SDIV EQ JUMPDEST PUSH2 0x64A JUMPI PUSH1 0x0 DUP1 REVERT JUMPDEST PUSH1 0x0 DUP2 PUSH1 0x0 NOT EQ DUP1 ISZERO PUSH2 0x1E0E JUMPI POP PUSH1 0x1 PUSH1 0xFF SHL DUP4 EQ JUMPDEST ISZERO PUSH2 0x1E18 JUMPI PUSH1 0x0 DUP1 REVERT JUMPDEST DUP2 DUP4 DUP2 PUSH2 0x1E21 JUMPI INVALID JUMPDEST SDIV SWAP4 SWAP3 POP POP POP JUMP JUMPDEST PUSH1 0x0 DUP1 DUP3 SLT ISZERO PUSH2 0x1E38 JUMPI PUSH1 0x0 DUP1 REVERT JUMPDEST POP SWAP1 JUMP JUMPDEST PUSH1 0x40 DUP1 MLOAD PUSH1 0x1 PUSH1 0x1 PUSH1 0xA0 SHL SUB DUP1 DUP7 AND PUSH1 0x24 DUP4 ADD MSTORE DUP5 AND PUSH1 0x44 DUP3 ADD MSTORE PUSH1 0x64 DUP1 DUP3 ADD DUP5 SWAP1 MSTORE DUP3 MLOAD DUP1 DUP4 SUB SWAP1 SWAP2 ADD DUP2 MSTORE PUSH1 0x84 SWAP1 SWAP2 ADD SWAP1 SWAP2 MSTORE PUSH1 0x20 DUP2 ADD DUP1 MLOAD PUSH1 0x1 PUSH1 0x1 PUSH1 0xE0 SHL SUB AND PUSH4 0x23B872DD PUSH1 0xE0 SHL OR SWAP1 MSTORE PUSH2 0x1E96 SWAP1 DUP6 SWAP1 PUSH2 0x1EB1 JUMP JUMPDEST POP POP POP POP JUMP JUMPDEST PUSH1 0x0 DUP3 DUP3 GT ISZERO PUSH2 0x1EAB JUMPI PUSH1 0x0 DUP1 REVERT JUMPDEST POP SWAP1 SUB SWAP1 JUMP JUMPDEST PUSH1 0x0 PUSH2 0x1F06 DUP3 PUSH1 0x40 MLOAD DUP1 PUSH1 0x40 ADD PUSH1 0x40 MSTORE DUP1 PUSH1 0x20 DUP2 MSTORE PUSH1 0x20 ADD PUSH32 0x5361666545524332303A206C6F772D6C6576656C2063616C6C206661696C6564 DUP2 MSTORE POP DUP6 PUSH1 0x1 PUSH1 0x1 PUSH1 0xA0 SHL SUB AND PUSH2 0x1F62 SWAP1 SWAP3 SWAP2 SWAP1 PUSH4 0xFFFFFFFF AND JUMP JUMPDEST DUP1 MLOAD SWAP1 SWAP2 POP ISZERO PUSH2 0x1CD0 JUMPI DUP1 DUP1 PUSH1 0x20 ADD SWAP1 MLOAD PUSH1 0x20 DUP2 LT ISZERO PUSH2 0x1F25 JUMPI PUSH1 0x0 DUP1 REVERT JUMPDEST POP MLOAD PUSH2 0x1CD0 JUMPI PUSH1 0x40 MLOAD PUSH3 0x461BCD PUSH1 0xE5 SHL DUP2 MSTORE PUSH1 0x4 ADD DUP1 DUP1 PUSH1 0x20 ADD DUP3 DUP2 SUB DUP3 MSTORE PUSH1 0x2A DUP2 MSTORE PUSH1 0x20 ADD DUP1 PUSH2 0x2927 PUSH1 0x2A SWAP2 CODECOPY PUSH1 0x40 ADD SWAP2 POP POP PUSH1 0x40 MLOAD DUP1 SWAP2 SUB SWAP1 REVERT JUMPDEST PUSH1 0x60 PUSH2 0x1878 DUP5 DUP5 PUSH1 0x0 DUP6 DUP6 PUSH2 0x1F76 DUP6 PUSH2 0x1588 JUMP JUMPDEST PUSH2 0x1FC7 JUMPI PUSH1 0x40 DUP1 MLOAD PUSH3 0x461BCD PUSH1 0xE5 SHL DUP2 MSTORE PUSH1 0x20 PUSH1 0x4 DUP3 ADD MSTORE PUSH1 0x1D PUSH1 0x24 DUP3 ADD MSTORE PUSH32 0x416464726573733A2063616C6C20746F206E6F6E2D636F6E7472616374000000 PUSH1 0x44 DUP3 ADD MSTORE SWAP1 MLOAD SWAP1 DUP2 SWAP1 SUB PUSH1 0x64 ADD SWAP1 REVERT JUMPDEST PUSH1 0x0 DUP1 DUP7 PUSH1 0x1 PUSH1 0x1 PUSH1 0xA0 SHL SUB AND DUP6 DUP8 PUSH1 0x40 MLOAD DUP1 DUP3 DUP1 MLOAD SWAP1 PUSH1 0x20 ADD SWAP1 DUP1 DUP4 DUP4 JUMPDEST PUSH1 0x20 DUP4 LT PUSH2 0x2005 JUMPI DUP1 MLOAD DUP3 MSTORE PUSH1 0x1F NOT SWAP1 SWAP3 ADD SWAP2 PUSH1 0x20 SWAP2 DUP3 ADD SWAP2 ADD PUSH2 0x1FE6 JUMP JUMPDEST PUSH1 0x1 DUP4 PUSH1 0x20 SUB PUSH2 0x100 EXP SUB DUP1 NOT DUP3 MLOAD AND DUP2 DUP5 MLOAD AND DUP1 DUP3 OR DUP6 MSTORE POP POP POP POP POP POP SWAP1 POP ADD SWAP2 POP POP PUSH1 0x0 PUSH1 0x40 MLOAD DUP1 DUP4 SUB DUP2 DUP6 DUP8 GAS CALL SWAP3 POP POP POP RETURNDATASIZE DUP1 PUSH1 0x0 DUP2 EQ PUSH2 0x2067 JUMPI PUSH1 0x40 MLOAD SWAP2 POP PUSH1 0x1F NOT PUSH1 0x3F RETURNDATASIZE ADD AND DUP3 ADD PUSH1 0x40 MSTORE RETURNDATASIZE DUP3 MSTORE RETURNDATASIZE PUSH1 0x0 PUSH1 0x20 DUP5 ADD RETURNDATACOPY PUSH2 0x206C JUMP JUMPDEST PUSH1 0x60 SWAP2 POP JUMPDEST POP SWAP2 POP SWAP2 POP PUSH2 0x207C DUP3 DUP3 DUP7 PUSH2 0x2087 JUMP JUMPDEST SWAP8 SWAP7 POP POP POP POP POP POP POP JUMP JUMPDEST PUSH1 0x60 DUP4 ISZERO PUSH2 0x2096 JUMPI POP DUP2 PUSH2 0x6F4 JUMP JUMPDEST DUP3 MLOAD ISZERO PUSH2 0x20A6 JUMPI DUP3 MLOAD DUP1 DUP5 PUSH1 0x20 ADD REVERT JUMPDEST DUP2 PUSH1 0x40 MLOAD PUSH3 0x461BCD PUSH1 0xE5 SHL DUP2 MSTORE PUSH1 0x4 ADD DUP1 DUP1 PUSH1 0x20 ADD DUP3 DUP2 SUB DUP3 MSTORE DUP4 DUP2 DUP2 MLOAD DUP2 MSTORE PUSH1 0x20 ADD SWAP2 POP DUP1 MLOAD SWAP1 PUSH1 0x20 ADD SWAP1 DUP1 DUP4 DUP4 PUSH1 0x0 JUMPDEST DUP4 DUP2 LT ISZERO PUSH2 0x20F0 JUMPI DUP2 DUP2 ADD MLOAD DUP4 DUP3 ADD MSTORE PUSH1 0x20 ADD PUSH2 0x20D8 JUMP JUMPDEST POP POP POP POP SWAP1 POP SWAP1 DUP2 ADD SWAP1 PUSH1 0x1F AND DUP1 ISZERO PUSH2 0x211D JUMPI DUP1 DUP3 SUB DUP1 MLOAD PUSH1 0x1 DUP4 PUSH1 0x20 SUB PUSH2 0x100 EXP SUB NOT AND DUP2 MSTORE PUSH1 0x20 ADD SWAP2 POP JUMPDEST POP SWAP3 POP POP POP PUSH1 0x40 MLOAD DUP1 SWAP2 SUB SWAP1 REVERT JUMPDEST DUP3 DUP1 SLOAD PUSH1 0x1 DUP2 PUSH1 0x1 AND ISZERO PUSH2 0x100 MUL SUB AND PUSH1 0x2 SWAP1 DIV SWAP1 PUSH1 0x0 MSTORE PUSH1 0x20 PUSH1 0x0 KECCAK256 SWAP1 PUSH1 0x1F ADD PUSH1 0x20 SWAP1 DIV DUP2 ADD SWAP3 DUP3 PUSH2 0x2161 JUMPI PUSH1 0x0 DUP6 SSTORE PUSH2 0x21A7 JUMP JUMPDEST DUP3 PUSH1 0x1F LT PUSH2 0x217A JUMPI DUP1 MLOAD PUSH1 0xFF NOT AND DUP4 DUP1 ADD OR DUP6 SSTORE PUSH2 0x21A7 JUMP JUMPDEST DUP3 DUP1 ADD PUSH1 0x1 ADD DUP6 SSTORE DUP3 ISZERO PUSH2 0x21A7 JUMPI SWAP2 DUP3 ADD JUMPDEST DUP3 DUP2 GT ISZERO PUSH2 0x21A7 JUMPI DUP3 MLOAD DUP3 SSTORE SWAP2 PUSH1 0x20 ADD SWAP2 SWAP1 PUSH1 0x1 ADD SWAP1 PUSH2 0x218C JUMP JUMPDEST POP PUSH2 0x1E38 SWAP3 SWAP2 POP JUMPDEST DUP1 DUP3 GT ISZERO PUSH2 0x1E38 JUMPI PUSH1 0x0 DUP2 SSTORE PUSH1 0x1 ADD PUSH2 0x21AF JUMP JUMPDEST PUSH1 0x0 DUP3 PUSH1 0x1F DUP4 ADD SLT PUSH2 0x21D3 JUMPI DUP1 DUP2 REVERT JUMPDEST DUP2 CALLDATALOAD PUSH8 0xFFFFFFFFFFFFFFFF DUP2 GT ISZERO PUSH2 0x21E7 JUMPI INVALID JUMPDEST PUSH2 0x21FA PUSH1 0x1F DUP3 ADD PUSH1 0x1F NOT AND PUSH1 0x20 ADD PUSH2 0x2870 JUMP JUMPDEST DUP2 DUP2 MSTORE DUP5 PUSH1 0x20 DUP4 DUP7 ADD ADD GT ISZERO PUSH2 0x220E JUMPI DUP3 DUP4 REVERT JUMPDEST DUP2 PUSH1 0x20 DUP6 ADD PUSH1 0x20 DUP4 ADD CALLDATACOPY SWAP1 DUP2 ADD PUSH1 0x20 ADD SWAP2 SWAP1 SWAP2 MSTORE SWAP3 SWAP2 POP POP JUMP JUMPDEST PUSH1 0x0 PUSH2 0x120 DUP1 DUP4 DUP6 SUB SLT ISZERO PUSH2 0x223B JUMPI DUP2 DUP3 REVERT JUMPDEST PUSH2 0x2244 DUP2 PUSH2 0x2870 JUMP JUMPDEST SWAP2 POP POP DUP2 MLOAD DUP2 MSTORE PUSH1 0x20 DUP3 ADD MLOAD PUSH1 0x20 DUP3 ADD MSTORE PUSH1 0x40 DUP3 ADD MLOAD PUSH1 0x40 DUP3 ADD MSTORE PUSH1 0x60 DUP3 ADD MLOAD PUSH1 0x60 DUP3 ADD MSTORE PUSH1 0x80 DUP3 ADD MLOAD PUSH1 0x80 DUP3 ADD MSTORE PUSH1 0xA0 DUP3 ADD MLOAD PUSH1 0xA0 DUP3 ADD MSTORE PUSH1 0xC0 DUP3 ADD MLOAD PUSH1 0xC0 DUP3 ADD MSTORE PUSH1 0xE0 DUP3 ADD MLOAD PUSH1 0xE0 DUP3 ADD MSTORE PUSH2 0x100 DUP1 DUP4 ADD MLOAD DUP2 DUP4 ADD MSTORE POP SWAP3 SWAP2 POP POP JUMP JUMPDEST PUSH1 0x0 PUSH1 0x20 DUP3 DUP5 SUB SLT ISZERO PUSH2 0x22B4 JUMPI DUP1 DUP2 REVERT JUMPDEST DUP2 CALLDATALOAD PUSH2 0x6F4 DUP2 PUSH2 0x28C0 JUMP JUMPDEST PUSH1 0x0 PUSH1 0x20 DUP3 DUP5 SUB SLT ISZERO PUSH2 0x22D0 JUMPI DUP1 DUP2 REVERT JUMPDEST DUP2 MLOAD PUSH2 0x6F4 DUP2 PUSH2 0x28C0 JUMP JUMPDEST PUSH1 0x0 DUP1 PUSH1 0x40 DUP4 DUP6 SUB SLT ISZERO PUSH2 0x22ED JUMPI DUP1 DUP2 REVERT JUMPDEST DUP3 CALLDATALOAD PUSH2 0x22F8 DUP2 PUSH2 0x28C0 JUMP JUMPDEST SWAP2 POP PUSH1 0x20 DUP4 ADD CALLDATALOAD PUSH2 0x2308 DUP2 PUSH2 0x28C0 JUMP JUMPDEST DUP1 SWAP2 POP POP SWAP3 POP SWAP3 SWAP1 POP JUMP JUMPDEST PUSH1 0x0 DUP1 PUSH1 0x0 DUP1 PUSH1 0x80 DUP6 DUP8 SUB SLT ISZERO PUSH2 0x2328 JUMPI DUP2 DUP3 REVERT JUMPDEST DUP5 CALLDATALOAD PUSH2 0x2333 DUP2 PUSH2 0x28C0 JUMP JUMPDEST SWAP4 POP PUSH1 0x20 DUP6 ADD CALLDATALOAD PUSH2 0x2343 DUP2 PUSH2 0x28C0 JUMP JUMPDEST SWAP4 SWAP7 SWAP4 SWAP6 POP POP POP POP PUSH1 0x40 DUP3 ADD CALLDATALOAD SWAP2 PUSH1 0x60 ADD CALLDATALOAD SWAP1 JUMP JUMPDEST PUSH1 0x0 DUP1 PUSH1 0x0 PUSH1 0x60 DUP5 DUP7 SUB SLT ISZERO PUSH2 0x236C JUMPI DUP3 DUP4 REVERT JUMPDEST DUP4 CALLDATALOAD PUSH2 0x2377 DUP2 PUSH2 0x28C0 JUMP JUMPDEST SWAP3 POP PUSH1 0x20 DUP5 ADD CALLDATALOAD PUSH2 0x2387 DUP2 PUSH2 0x28C0 JUMP JUMPDEST SWAP3 SWAP6 SWAP3 SWAP5 POP POP POP PUSH1 0x40 SWAP2 SWAP1 SWAP2 ADD CALLDATALOAD SWAP1 JUMP JUMPDEST PUSH1 0x0 DUP1 PUSH1 0x0 DUP1 PUSH1 0x80 DUP6 DUP8 SUB SLT ISZERO PUSH2 0x2328 JUMPI DUP4 DUP5 REVERT JUMPDEST PUSH1 0x0 DUP1 PUSH1 0x40 DUP4 DUP6 SUB SLT ISZERO PUSH2 0x23BF JUMPI DUP2 DUP3 REVERT JUMPDEST DUP3 CALLDATALOAD PUSH2 0x23CA DUP2 PUSH2 0x28C0 JUMP JUMPDEST SWAP5 PUSH1 0x20 SWAP4 SWAP1 SWAP4 ADD CALLDATALOAD SWAP4 POP POP POP JUMP JUMPDEST PUSH1 0x0 PUSH1 0x20 DUP3 DUP5 SUB SLT ISZERO PUSH2 0x23E9 JUMPI DUP1 DUP2 REVERT JUMPDEST DUP2 MLOAD DUP1 ISZERO ISZERO DUP2 EQ PUSH2 0x6F4 JUMPI DUP2 DUP3 REVERT JUMPDEST PUSH1 0x0 PUSH1 0x20 DUP3 DUP5 SUB SLT ISZERO PUSH2 0x2409 JUMPI DUP1 DUP2 REVERT JUMPDEST POP MLOAD SWAP2 SWAP1 POP JUMP JUMPDEST PUSH1 0x0 DUP1 PUSH1 0x40 DUP4 DUP6 SUB SLT ISZERO PUSH2 0x2422 JUMPI DUP2 DUP3 REVERT JUMPDEST DUP3 CALLDATALOAD PUSH8 0xFFFFFFFFFFFFFFFF DUP1 DUP3 GT ISZERO PUSH2 0x2439 JUMPI DUP4 DUP5 REVERT JUMPDEST PUSH2 0x2445 DUP7 DUP4 DUP8 ADD PUSH2 0x21C3 JUMP JUMPDEST SWAP4 POP PUSH1 0x20 DUP6 ADD CALLDATALOAD SWAP2 POP DUP1 DUP3 GT ISZERO PUSH2 0x245A JUMPI DUP3 DUP4 REVERT JUMPDEST POP PUSH2 0x2467 DUP6 DUP3 DUP7 ADD PUSH2 0x21C3 JUMP JUMPDEST SWAP2 POP POP SWAP3 POP SWAP3 SWAP1 POP JUMP JUMPDEST PUSH1 0x0 DUP1 PUSH1 0x0 DUP1 PUSH1 0x0 DUP1 DUP7 DUP9 SUB PUSH2 0x200 DUP2 SLT ISZERO PUSH2 0x248B JUMPI DUP5 DUP6 REVERT JUMPDEST PUSH1 0x60 DUP2 SLT ISZERO PUSH2 0x2498 JUMPI DUP5 DUP6 REVERT JUMPDEST POP PUSH1 0x40 MLOAD PUSH1 0x60 DUP2 ADD DUP2 DUP2 LT PUSH8 0xFFFFFFFFFFFFFFFF DUP3 GT OR ISZERO PUSH2 0x24B6 JUMPI INVALID JUMPDEST PUSH1 0x40 SWAP1 DUP2 MSTORE DUP9 MLOAD DUP3 MSTORE PUSH1 0x20 DUP1 DUP11 ADD MLOAD SWAP1 DUP4 ADD MSTORE DUP9 DUP2 ADD MLOAD SWAP1 DUP3 ADD MSTORE SWAP6 POP PUSH2 0x24E0 DUP9 PUSH1 0x60 DUP10 ADD PUSH2 0x2228 JUMP JUMPDEST SWAP5 POP PUSH2 0x180 DUP8 ADD MLOAD SWAP4 POP PUSH2 0x1A0 DUP8 ADD MLOAD SWAP3 POP PUSH2 0x1C0 DUP8 ADD MLOAD SWAP2 POP PUSH2 0x1E0 DUP8 ADD MLOAD SWAP1 POP SWAP3 SWAP6 POP SWAP3 SWAP6 POP SWAP3 SWAP6 JUMP JUMPDEST PUSH1 0x0 DUP1 PUSH1 0x0 DUP1 PUSH1 0x80 DUP6 DUP8 SUB SLT ISZERO PUSH2 0x2521 JUMPI DUP2 DUP3 REVERT JUMPDEST DUP5 CALLDATALOAD PUSH2 0xFFFF DUP2 AND DUP2 EQ PUSH2 0x2532 JUMPI DUP3 DUP4 REVERT JUMPDEST SWAP4 POP PUSH1 0x20 DUP6 ADD CALLDATALOAD PUSH2 0x2542 DUP2 PUSH2 0x28C0 JUMP JUMPDEST SWAP3 POP PUSH1 0x40 DUP6 ADD CALLDATALOAD PUSH8 0xFFFFFFFFFFFFFFFF DUP1 DUP3 GT ISZERO PUSH2 0x255E JUMPI DUP4 DUP5 REVERT JUMPDEST PUSH2 0x256A DUP9 DUP4 DUP10 ADD PUSH2 0x21C3 JUMP JUMPDEST SWAP4 POP PUSH1 0x60 DUP8 ADD CALLDATALOAD SWAP2 POP DUP1 DUP3 GT ISZERO PUSH2 0x257F JUMPI DUP3 DUP4 REVERT JUMPDEST POP PUSH2 0x258C DUP8 DUP3 DUP9 ADD PUSH2 0x21C3 JUMP JUMPDEST SWAP2 POP POP SWAP3 SWAP6 SWAP2 SWAP5 POP SWAP3 POP JUMP JUMPDEST PUSH1 0x0 PUSH1 0x20 DUP3 DUP5 SUB SLT ISZERO PUSH2 0x25A9 JUMPI DUP1 DUP2 REVERT JUMPDEST POP CALLDATALOAD SWAP2 SWAP1 POP JUMP JUMPDEST PUSH1 0x0 DUP1 PUSH1 0x40 DUP4 DUP6 SUB SLT ISZERO PUSH2 0x25C2 JUMPI DUP2 DUP3 REVERT JUMPDEST DUP3 CALLDATALOAD SWAP2 POP PUSH1 0x20 DUP4 ADD CALLDATALOAD PUSH2 0x2308 DUP2 PUSH2 0x28C0 JUMP JUMPDEST PUSH1 0x0 DUP1 PUSH1 0x0 PUSH1 0x60 DUP5 DUP7 SUB SLT ISZERO PUSH2 0x25E8 JUMPI DUP1 DUP2 REVERT JUMPDEST DUP4 CALLDATALOAD SWAP3 POP PUSH1 0x20 DUP5 ADD CALLDATALOAD PUSH2 0x25FA DUP2 PUSH2 0x28C0 JUMP JUMPDEST SWAP2 POP PUSH1 0x40 DUP5 ADD CALLDATALOAD PUSH2 0x260A DUP2 PUSH2 0x28C0 JUMP JUMPDEST DUP1 SWAP2 POP POP SWAP3 POP SWAP3 POP SWAP3 JUMP JUMPDEST PUSH1 0x0 PUSH1 0x20 DUP3 DUP5 SUB SLT ISZERO PUSH2 0x2626 JUMPI DUP1 DUP2 REVERT JUMPDEST DUP2 MLOAD PUSH1 0xFF DUP2 AND DUP2 EQ PUSH2 0x6F4 JUMPI DUP2 DUP3 REVERT JUMPDEST PUSH1 0x0 DUP4 MLOAD PUSH2 0x2648 DUP2 DUP5 PUSH1 0x20 DUP9 ADD PUSH2 0x2894 JUMP JUMPDEST DUP4 MLOAD SWAP1 DUP4 ADD SWAP1 PUSH2 0x265C DUP2 DUP4 PUSH1 0x20 DUP9 ADD PUSH2 0x2894 JUMP JUMPDEST ADD SWAP5 SWAP4 POP POP POP POP JUMP JUMPDEST PUSH1 0x0 DUP5 MLOAD PUSH2 0x2677 DUP2 DUP5 PUSH1 0x20 DUP10 ADD PUSH2 0x2894 JUMP JUMPDEST PUSH1 0x1 PUSH1 0xFD SHL SWAP1 DUP4 ADD SWAP1 DUP2 MSTORE DUP5 MLOAD PUSH2 0x2695 DUP2 PUSH1 0x1 DUP5 ADD PUSH1 0x20 DUP10 ADD PUSH2 0x2894 JUMP JUMPDEST DUP5 MLOAD SWAP2 ADD SWAP1 PUSH2 0x26AB DUP2 PUSH1 0x1 DUP5 ADD PUSH1 0x20 DUP9 ADD PUSH2 0x2894 JUMP JUMPDEST ADD PUSH1 0x1 ADD SWAP6 SWAP5 POP POP POP POP POP JUMP JUMPDEST PUSH1 0x1 PUSH1 0x1 PUSH1 0xA0 SHL SUB SWAP2 SWAP1 SWAP2 AND DUP2 MSTORE PUSH1 0x20 ADD SWAP1 JUMP JUMPDEST SWAP1 ISZERO ISZERO DUP2 MSTORE PUSH1 0x20 ADD SWAP1 JUMP JUMPDEST SWAP1 DUP2 MSTORE PUSH1 0x20 ADD SWAP1 JUMP JUMPDEST PUSH1 0x0 PUSH1 0x20 DUP3 MSTORE DUP3 MLOAD DUP1 PUSH1 0x20 DUP5 ADD MSTORE PUSH2 0x26FF DUP2 PUSH1 0x40 DUP6 ADD PUSH1 0x20 DUP8 ADD PUSH2 0x2894 JUMP JUMPDEST PUSH1 0x1F ADD PUSH1 0x1F NOT AND SWAP2 SWAP1 SWAP2 ADD PUSH1 0x40 ADD SWAP3 SWAP2 POP POP JUMP JUMPDEST PUSH1 0x20 DUP1 DUP3 MSTORE PUSH1 0xF SWAP1 DUP3 ADD MSTORE PUSH15 0x139BDD08125B5C1B195B595B9D1959 PUSH1 0x8A SHL PUSH1 0x40 DUP3 ADD MSTORE PUSH1 0x60 ADD SWAP1 JUMP JUMPDEST PUSH1 0x20 DUP1 DUP3 MSTORE PUSH1 0xC SWAP1 DUP3 ADD MSTORE PUSH12 0x155B985D5D1A1BDC9A5E9959 PUSH1 0xA2 SHL PUSH1 0x40 DUP3 ADD MSTORE PUSH1 0x60 ADD SWAP1 JUMP JUMPDEST PUSH1 0x20 DUP1 DUP3 MSTORE PUSH1 0x14 SWAP1 DUP3 ADD MSTORE PUSH20 0x496E73756666696369656E742042616C616E6365 PUSH1 0x60 SHL PUSH1 0x40 DUP3 ADD MSTORE PUSH1 0x60 ADD SWAP1 JUMP JUMPDEST PUSH2 0xFFFF SWAP2 SWAP1 SWAP2 AND DUP2 MSTORE PUSH1 0x20 ADD SWAP1 JUMP JUMPDEST PUSH2 0xFFFF SWAP3 SWAP1 SWAP3 AND DUP3 MSTORE PUSH1 0x1 PUSH1 0x1 PUSH1 0xA0 SHL SUB AND PUSH1 0x20 DUP3 ADD MSTORE PUSH1 0x40 ADD SWAP1 JUMP JUMPDEST PUSH2 0xFFFF SWAP6 SWAP1 SWAP6 AND DUP6 MSTORE PUSH1 0x1 PUSH1 0x1 PUSH1 0xA0 SHL SUB SWAP4 DUP5 AND PUSH1 0x20 DUP7 ADD MSTORE SWAP2 DUP4 AND PUSH1 0x40 DUP6 ADD MSTORE SWAP1 SWAP2 AND PUSH1 0x60 DUP4 ADD MSTORE PUSH1 0x80 DUP3 ADD MSTORE PUSH1 0xA0 ADD SWAP1 JUMP JUMPDEST PUSH2 0xFFFF SWAP5 SWAP1 SWAP5 AND DUP5 MSTORE PUSH1 0x1 PUSH1 0x1 PUSH1 0xA0 SHL SUB SWAP3 DUP4 AND PUSH1 0x20 DUP6 ADD MSTORE SWAP2 AND PUSH1 0x40 DUP4 ADD MSTORE PUSH1 0x60 DUP3 ADD MSTORE PUSH1 0x80 ADD SWAP1 JUMP JUMPDEST PUSH2 0xFFFF SWAP4 SWAP1 SWAP4 AND DUP4 MSTORE PUSH1 0x1 PUSH1 0x1 PUSH1 0xA0 SHL SUB SWAP2 DUP3 AND PUSH1 0x20 DUP5 ADD MSTORE AND PUSH1 0x40 DUP3 ADD MSTORE PUSH1 0x60 ADD SWAP1 JUMP JUMPDEST PUSH2 0xFFFF SWAP3 SWAP1 SWAP3 AND DUP3 MSTORE PUSH1 0x20 DUP3 ADD MSTORE PUSH1 0x40 ADD SWAP1 JUMP JUMPDEST SWAP2 DUP3 MSTORE PUSH1 0x20 DUP3 ADD MSTORE PUSH1 0x40 ADD SWAP1 JUMP JUMPDEST PUSH1 0xFF SWAP2 SWAP1 SWAP2 AND DUP2 MSTORE PUSH1 0x20 ADD SWAP1 JUMP JUMPDEST PUSH1 0x40 MLOAD DUP2 DUP2 ADD PUSH8 0xFFFFFFFFFFFFFFFF DUP2 GT DUP3 DUP3 LT OR ISZERO PUSH2 0x288C JUMPI INVALID JUMPDEST PUSH1 0x40 MSTORE SWAP2 SWAP1 POP JUMP JUMPDEST PUSH1 0x0 JUMPDEST DUP4 DUP2 LT ISZERO PUSH2 0x28AF JUMPI DUP2 DUP2 ADD MLOAD DUP4 DUP3 ADD MSTORE PUSH1 0x20 ADD PUSH2 0x2897 JUMP JUMPDEST DUP4 DUP2 GT ISZERO PUSH2 0x1E96 JUMPI POP POP PUSH1 0x0 SWAP2 ADD MSTORE JUMP JUMPDEST PUSH1 0x1 PUSH1 0x1 PUSH1 0xA0 SHL SUB DUP2 AND DUP2 EQ PUSH2 0x28D5 JUMPI PUSH1 0x0 DUP1 REVERT JUMPDEST POP JUMP INVALID 0x49 PUSH15 0x697469616C697A61626C653A20636F PUSH15 0x747261637420697320616C72656164 PUSH26 0x20696E697469616C697A6564DDF252AD1BE2C89B69C2B068FC37 DUP14 0xAA SWAP6 0x2B 0xA7 CALL PUSH4 0xC4A11628 CREATE2 GAS 0x4D CREATE2 0x23 0xB3 0xEF MSTORE8 PUSH2 0x6665 GASLIMIT MSTORE NUMBER ORIGIN ADDRESS GASPRICE KECCAK256 GASLIMIT MSTORE NUMBER ORIGIN ADDRESS KECCAK256 PUSH16 0x7065726174696F6E20646964206E6F74 KECCAK256 PUSH20 0x7563636565645361666545524332303A20617070 PUSH19 0x6F76652066726F6D206E6F6E2D7A65726F2074 PUSH16 0x206E6F6E2D7A65726F20616C6C6F7761 PUSH15 0x6365A264697066735822122073B72E PUSH14 0xB8581D2D7BB00E2EA5742DB89F4B 0x2A 0xC8 0x5C 0x29 0x21 DELEGATECALL 0xD0 0x48 OR ADDRESS 0xC1 0x4C PUSH16 0x8364736F6C6343000706003300000000 ","sha1":"096e83ae6ad586d9c536c9148b87075a2ebe932b","source":"// SPDX-License-Identifier: BSUL-1.1\npragma solidity =0.7.6;\npragma abicoder v2;\n\nimport {SafeInt256} from \"../../math/SafeInt256.sol\";\nimport {Constants} from \"../../global/Constants.sol\";\nimport {NotionalProxy, BaseERC4626Proxy} from \"./BaseERC4626Proxy.sol\";\n\n/// @notice ERC20 proxy for nToken contracts that forwards calls to the Router, all nToken\n/// balances and allowances are stored in at single address for gas efficiency. This contract\n/// is used simply for ERC20 compliance.\ncontract nTokenERC20Proxy is BaseERC4626Proxy {\n    using SafeInt256 for int256;\n\n    constructor(NotionalProxy notional_) BaseERC4626Proxy(notional_) {}\n\n    function _getPrefixes() internal pure override returns (\n        string memory namePrefix,\n        string memory nameSuffix,\n        string memory symbolPrefix\n    ) {\n        namePrefix = \"nToken\";\n        symbolPrefix = \"n\";\n    }\n\n    function _totalSupply() internal view override returns (uint256 supply) {\n        // Total supply is looked up via the token address\n        return NOTIONAL.nTokenTotalSupply(address(this));\n    }\n\n    function _balanceOf(address account) internal view override returns (uint256 balance) {\n        return NOTIONAL.nTokenBalanceOf(currencyId, account);\n    }\n\n    function _allowance(address account, address spender) internal view override returns (uint256) {\n        return NOTIONAL.nTokenTransferAllowance(currencyId, account, spender);\n    }\n\n    function _approve(address spender, uint256 amount) internal override returns (bool) {\n        return NOTIONAL.nTokenTransferApprove(currencyId, msg.sender, spender, amount);\n    }\n\n    function _transfer(address to, uint256 amount) internal override returns (bool) {\n        return NOTIONAL.nTokenTransfer(currencyId, msg.sender, to, amount);\n    }\n\n    function _transferFrom(address from, address to, uint256 amount) internal override returns (bool) {\n        return NOTIONAL.nTokenTransferFrom(currencyId, msg.sender, from, to, amount);\n    }\n\n    /// @notice Returns the present value of the nToken's assets denominated in asset tokens\n    function getPresentValueAssetDenominated() external view returns (int256) {\n        return NOTIONAL.nTokenPresentValueAssetDenominated(currencyId);\n    }\n\n    /// @notice Returns the present value of the nToken's assets denominated in underlying\n    function getPresentValueUnderlyingDenominated() external view returns (int256) {\n        return NOTIONAL.nTokenPresentValueUnderlyingDenominated(currencyId);\n    }\n\n    function _getTotalValueExternal() internal view override returns (uint256 totalValueExternal) {\n        int256 underlyingInternal = NOTIONAL.nTokenPresentValueUnderlyingDenominated(currencyId);\n        totalValueExternal = underlyingInternal\n            // No overflow, native decimals is restricted to < 36 in initialize\n            .mul(int256(10**nativeDecimals))\n            .div(Constants.INTERNAL_TOKEN_PRECISION).toUint();\n    }\n\n    function _mint(uint256 assets, uint256 msgValue, address receiver) internal override returns (uint256 tokensMinted) {\n        revert(\"Not Implemented\");\n    }\n\n    function _redeem(uint256 shares, address receiver, address owner) internal override returns (uint256 assets) {\n        revert(\"Not Implemented\");\n    }\n}\n","sourcePath":"contracts/external/proxies/nTokenERC20Proxy.sol","type":"contract","deployment":{"address":"0xEB2577109a7c636f0e65b75d2C1cb55A54fd8EC5","chainid":"1","blockHeight":19302545}}