{
  "abi": [
    {
      "anonymous": false,
      "inputs": [
        {
          "indexed": false,
          "internalType": "address",
          "name": "previousAdmin",
          "type": "address"
        },
        {
          "indexed": false,
          "internalType": "address",
          "name": "newAdmin",
          "type": "address"
        }
      ],
      "name": "AdminChanged",
      "type": "event"
    },
    {
      "anonymous": false,
      "inputs": [
        {
          "indexed": true,
          "internalType": "address",
          "name": "beacon",
          "type": "address"
        }
      ],
      "name": "BeaconUpgraded",
      "type": "event"
    },
    {
      "anonymous": false,
      "inputs": [
        {
          "indexed": false,
          "internalType": "uint16",
          "name": "currencyId",
          "type": "uint16"
        },
        {
          "indexed": false,
          "internalType": "address",
          "name": "nTokenAddress",
          "type": "address"
        }
      ],
      "name": "DeployNToken",
      "type": "event"
    },
    {
      "anonymous": false,
      "inputs": [
        {
          "indexed": false,
          "internalType": "uint16",
          "name": "newCurrencyId",
          "type": "uint16"
        }
      ],
      "name": "ListCurrency",
      "type": "event"
    },
    {
      "anonymous": false,
      "inputs": [
        {
          "indexed": true,
          "internalType": "address",
          "name": "previousOwner",
          "type": "address"
        },
        {
          "indexed": true,
          "internalType": "address",
          "name": "newOwner",
          "type": "address"
        }
      ],
      "name": "OwnershipTransferred",
      "type": "event"
    },
    {
      "anonymous": false,
      "inputs": [
        {
          "indexed": true,
          "internalType": "address",
          "name": "pauseRouter",
          "type": "address"
        },
        {
          "indexed": true,
          "internalType": "address",
          "name": "pauseGuardian",
          "type": "address"
        }
      ],
      "name": "PauseRouterAndGuardianUpdated",
      "type": "event"
    },
    {
      "anonymous": false,
      "inputs": [
        {
          "indexed": true,
          "internalType": "uint16",
          "name": "currencyId",
          "type": "uint16"
        },
        {
          "indexed": false,
          "internalType": "address",
          "name": "proxy",
          "type": "address"
        },
        {
          "indexed": false,
          "internalType": "bool",
          "name": "isCashProxy",
          "type": "bool"
        }
      ],
      "name": "PrimeProxyDeployed",
      "type": "event"
    },
    {
      "anonymous": false,
      "inputs": [
        {
          "indexed": false,
          "internalType": "uint16",
          "name": "currencyId",
          "type": "uint16"
        }
      ],
      "name": "UpdateAssetRate",
      "type": "event"
    },
    {
      "anonymous": false,
      "inputs": [
        {
          "indexed": false,
          "internalType": "address",
          "name": "operator",
          "type": "address"
        },
        {
          "indexed": false,
          "internalType": "bool",
          "name": "approved",
          "type": "bool"
        }
      ],
      "name": "UpdateAuthorizedCallbackContract",
      "type": "event"
    },
    {
      "anonymous": false,
      "inputs": [
        {
          "indexed": false,
          "internalType": "uint16",
          "name": "currencyId",
          "type": "uint16"
        }
      ],
      "name": "UpdateCashGroup",
      "type": "event"
    },
    {
      "anonymous": false,
      "inputs": [
        {
          "indexed": false,
          "internalType": "uint16",
          "name": "currencyId",
          "type": "uint16"
        }
      ],
      "name": "UpdateDepositParameters",
      "type": "event"
    },
    {
      "anonymous": false,
      "inputs": [
        {
          "indexed": false,
          "internalType": "uint16",
          "name": "currencyId",
          "type": "uint16"
        }
      ],
      "name": "UpdateETHRate",
      "type": "event"
    },
    {
      "anonymous": false,
      "inputs": [
        {
          "indexed": false,
          "internalType": "address",
          "name": "operator",
          "type": "address"
        },
        {
          "indexed": false,
          "internalType": "bool",
          "name": "approved",
          "type": "bool"
        }
      ],
      "name": "UpdateGlobalTransferOperator",
      "type": "event"
    },
    {
      "anonymous": false,
      "inputs": [
        {
          "indexed": false,
          "internalType": "uint16",
          "name": "currencyId",
          "type": "uint16"
        }
      ],
      "name": "UpdateInitializationParameters",
      "type": "event"
    },
    {
      "anonymous": false,
      "inputs": [
        {
          "indexed": true,
          "internalType": "uint16",
          "name": "currencyId",
          "type": "uint16"
        },
        {
          "indexed": true,
          "internalType": "uint8",
          "name": "marketIndex",
          "type": "uint8"
        }
      ],
      "name": "UpdateInterestRateCurve",
      "type": "event"
    },
    {
      "anonymous": false,
      "inputs": [
        {
          "indexed": true,
          "internalType": "uint16",
          "name": "currencyId",
          "type": "uint16"
        },
        {
          "indexed": false,
          "internalType": "uint256",
          "name": "maxUnderlyingSupply",
          "type": "uint256"
        }
      ],
      "name": "UpdateMaxUnderlyingSupply",
      "type": "event"
    },
    {
      "anonymous": false,
      "inputs": [
        {
          "indexed": true,
          "internalType": "uint16",
          "name": "currencyId",
          "type": "uint16"
        },
        {
          "indexed": false,
          "internalType": "address",
          "name": "rewarder",
          "type": "address"
        }
      ],
      "name": "UpdateSecondaryIncentiveRewarder",
      "type": "event"
    },
    {
      "anonymous": false,
      "inputs": [
        {
          "indexed": false,
          "internalType": "uint16",
          "name": "currencyId",
          "type": "uint16"
        }
      ],
      "name": "UpdateTokenCollateralParameters",
      "type": "event"
    },
    {
      "anonymous": false,
      "inputs": [
        {
          "indexed": true,
          "internalType": "address",
          "name": "implementation",
          "type": "address"
        }
      ],
      "name": "Upgraded",
      "type": "event"
    },
    {
      "inputs": [],
      "name": "claimOwnership",
      "outputs": [],
      "stateMutability": "nonpayable",
      "type": "function"
    },
    {
      "inputs": [
        {
          "internalType": "uint16",
          "name": "currencyId",
          "type": "uint16"
        },
        {
          "components": [
            {
              "internalType": "uint8",
              "name": "maxMarketIndex",
              "type": "uint8"
            },
            {
              "internalType": "uint8",
              "name": "rateOracleTimeWindow5Min",
              "type": "uint8"
            },
            {
              "internalType": "uint8",
              "name": "maxDiscountFactor5BPS",
              "type": "uint8"
            },
            {
              "internalType": "uint8",
              "name": "reserveFeeShare",
              "type": "uint8"
            },
            {
              "internalType": "uint8",
              "name": "debtBuffer25BPS",
              "type": "uint8"
            },
            {
              "internalType": "uint8",
              "name": "fCashHaircut25BPS",
              "type": "uint8"
            },
            {
              "internalType": "uint8",
              "name": "minOracleRate25BPS",
              "type": "uint8"
            },
            {
              "internalType": "uint8",
              "name": "liquidationfCashHaircut25BPS",
              "type": "uint8"
            },
            {
              "internalType": "uint8",
              "name": "liquidationDebtBuffer25BPS",
              "type": "uint8"
            },
            {
              "internalType": "uint8",
              "name": "maxOracleRate25BPS",
              "type": "uint8"
            }
          ],
          "internalType": "struct CashGroupSettings",
          "name": "cashGroup",
          "type": "tuple"
        },
        {
          "internalType": "string",
          "name": "underlyingName",
          "type": "string"
        },
        {
          "internalType": "string",
          "name": "underlyingSymbol",
          "type": "string"
        }
      ],
      "name": "enableCashGroup",
      "outputs": [],
      "stateMutability": "nonpayable",
      "type": "function"
    },
    {
      "inputs": [
        {
          "internalType": "uint16",
          "name": "currencyId",
          "type": "uint16"
        },
        {
          "internalType": "string",
          "name": "underlyingName",
          "type": "string"
        },
        {
          "internalType": "string",
          "name": "underlyingSymbol",
          "type": "string"
        }
      ],
      "name": "enablePrimeDebt",
      "outputs": [],
      "stateMutability": "nonpayable",
      "type": "function"
    },
    {
      "inputs": [
        {
          "components": [
            {
              "internalType": "address",
              "name": "tokenAddress",
              "type": "address"
            },
            {
              "internalType": "bool",
              "name": "hasTransferFee",
              "type": "bool"
            },
            {
              "internalType": "enum TokenType",
              "name": "tokenType",
              "type": "uint8"
            },
            {
              "internalType": "uint8",
              "name": "decimalPlaces",
              "type": "uint8"
            },
            {
              "internalType": "uint72",
              "name": "deprecated_maxCollateralBalance",
              "type": "uint72"
            }
          ],
          "internalType": "struct TokenStorage",
          "name": "underlyingToken",
          "type": "tuple"
        },
        {
          "components": [
            {
              "internalType": "contract AggregatorV2V3Interface",
              "name": "rateOracle",
              "type": "address"
            },
            {
              "internalType": "uint8",
              "name": "rateDecimalPlaces",
              "type": "uint8"
            },
            {
              "internalType": "bool",
              "name": "mustInvert",
              "type": "bool"
            },
            {
              "internalType": "uint8",
              "name": "buffer",
              "type": "uint8"
            },
            {
              "internalType": "uint8",
              "name": "haircut",
              "type": "uint8"
            },
            {
              "internalType": "uint8",
              "name": "liquidationDiscount",
              "type": "uint8"
            }
          ],
          "internalType": "struct ETHRateStorage",
          "name": "ethRate",
          "type": "tuple"
        },
        {
          "components": [
            {
              "internalType": "uint8",
              "name": "kinkUtilization1",
              "type": "uint8"
            },
            {
              "internalType": "uint8",
              "name": "kinkUtilization2",
              "type": "uint8"
            },
            {
              "internalType": "uint8",
              "name": "kinkRate1",
              "type": "uint8"
            },
            {
              "internalType": "uint8",
              "name": "kinkRate2",
              "type": "uint8"
            },
            {
              "internalType": "uint8",
              "name": "maxRateUnits",
              "type": "uint8"
            },
            {
              "internalType": "uint8",
              "name": "minFeeRate5BPS",
              "type": "uint8"
            },
            {
              "internalType": "uint8",
              "name": "maxFeeRate25BPS",
              "type": "uint8"
            },
            {
              "internalType": "uint8",
              "name": "feeRatePercent",
              "type": "uint8"
            }
          ],
          "internalType": "struct InterestRateCurveSettings",
          "name": "primeDebtCurve",
          "type": "tuple"
        },
        {
          "internalType": "contract IPrimeCashHoldingsOracle",
          "name": "primeCashHoldingsOracle",
          "type": "address"
        },
        {
          "internalType": "bool",
          "name": "allowPrimeCashDebt",
          "type": "bool"
        },
        {
          "internalType": "uint8",
          "name": "rateOracleTimeWindow5Min",
          "type": "uint8"
        },
        {
          "internalType": "string",
          "name": "underlyingName",
          "type": "string"
        },
        {
          "internalType": "string",
          "name": "underlyingSymbol",
          "type": "string"
        }
      ],
      "name": "listCurrency",
      "outputs": [
        {
          "internalType": "uint16",
          "name": "",
          "type": "uint16"
        }
      ],
      "stateMutability": "nonpayable",
      "type": "function"
    },
    {
      "inputs": [],
      "name": "owner",
      "outputs": [
        {
          "internalType": "address",
          "name": "",
          "type": "address"
        }
      ],
      "stateMutability": "view",
      "type": "function"
    },
    {
      "inputs": [],
      "name": "pauseGuardian",
      "outputs": [
        {
          "internalType": "address",
          "name": "",
          "type": "address"
        }
      ],
      "stateMutability": "view",
      "type": "function"
    },
    {
      "inputs": [],
      "name": "pauseRouter",
      "outputs": [
        {
          "internalType": "address",
          "name": "",
          "type": "address"
        }
      ],
      "stateMutability": "view",
      "type": "function"
    },
    {
      "inputs": [
        {
          "internalType": "uint16",
          "name": "currencyId",
          "type": "uint16"
        },
        {
          "internalType": "uint256",
          "name": "maxUnderlyingSupply",
          "type": "uint256"
        }
      ],
      "name": "setMaxUnderlyingSupply",
      "outputs": [],
      "stateMutability": "nonpayable",
      "type": "function"
    },
    {
      "inputs": [
        {
          "internalType": "address",
          "name": "pauseRouter_",
          "type": "address"
        },
        {
          "internalType": "address",
          "name": "pauseGuardian_",
          "type": "address"
        }
      ],
      "name": "setPauseRouterAndGuardian",
      "outputs": [],
      "stateMutability": "nonpayable",
      "type": "function"
    },
    {
      "inputs": [
        {
          "internalType": "address",
          "name": "newOwner",
          "type": "address"
        },
        {
          "internalType": "bool",
          "name": "direct",
          "type": "bool"
        }
      ],
      "name": "transferOwnership",
      "outputs": [],
      "stateMutability": "nonpayable",
      "type": "function"
    },
    {
      "inputs": [
        {
          "internalType": "address",
          "name": "operator",
          "type": "address"
        },
        {
          "internalType": "bool",
          "name": "approved",
          "type": "bool"
        }
      ],
      "name": "updateAuthorizedCallbackContract",
      "outputs": [],
      "stateMutability": "nonpayable",
      "type": "function"
    },
    {
      "inputs": [
        {
          "internalType": "uint16",
          "name": "currencyId",
          "type": "uint16"
        },
        {
          "components": [
            {
              "internalType": "uint8",
              "name": "maxMarketIndex",
              "type": "uint8"
            },
            {
              "internalType": "uint8",
              "name": "rateOracleTimeWindow5Min",
              "type": "uint8"
            },
            {
              "internalType": "uint8",
              "name": "maxDiscountFactor5BPS",
              "type": "uint8"
            },
            {
              "internalType": "uint8",
              "name": "reserveFeeShare",
              "type": "uint8"
            },
            {
              "internalType": "uint8",
              "name": "debtBuffer25BPS",
              "type": "uint8"
            },
            {
              "internalType": "uint8",
              "name": "fCashHaircut25BPS",
              "type": "uint8"
            },
            {
              "internalType": "uint8",
              "name": "minOracleRate25BPS",
              "type": "uint8"
            },
            {
              "internalType": "uint8",
              "name": "liquidationfCashHaircut25BPS",
              "type": "uint8"
            },
            {
              "internalType": "uint8",
              "name": "liquidationDebtBuffer25BPS",
              "type": "uint8"
            },
            {
              "internalType": "uint8",
              "name": "maxOracleRate25BPS",
              "type": "uint8"
            }
          ],
          "internalType": "struct CashGroupSettings",
          "name": "cashGroup",
          "type": "tuple"
        }
      ],
      "name": "updateCashGroup",
      "outputs": [],
      "stateMutability": "nonpayable",
      "type": "function"
    },
    {
      "inputs": [
        {
          "internalType": "uint16",
          "name": "currencyId",
          "type": "uint16"
        },
        {
          "internalType": "uint32[]",
          "name": "depositShares",
          "type": "uint32[]"
        },
        {
          "internalType": "uint32[]",
          "name": "leverageThresholds",
          "type": "uint32[]"
        }
      ],
      "name": "updateDepositParameters",
      "outputs": [],
      "stateMutability": "nonpayable",
      "type": "function"
    },
    {
      "inputs": [
        {
          "internalType": "uint16",
          "name": "currencyId",
          "type": "uint16"
        },
        {
          "internalType": "contract AggregatorV2V3Interface",
          "name": "rateOracle",
          "type": "address"
        },
        {
          "internalType": "bool",
          "name": "mustInvert",
          "type": "bool"
        },
        {
          "internalType": "uint8",
          "name": "buffer",
          "type": "uint8"
        },
        {
          "internalType": "uint8",
          "name": "haircut",
          "type": "uint8"
        },
        {
          "internalType": "uint8",
          "name": "liquidationDiscount",
          "type": "uint8"
        }
      ],
      "name": "updateETHRate",
      "outputs": [],
      "stateMutability": "nonpayable",
      "type": "function"
    },
    {
      "inputs": [
        {
          "internalType": "uint16",
          "name": "currencyId",
          "type": "uint16"
        },
        {
          "internalType": "uint32[]",
          "name": "annualizedAnchorRates",
          "type": "uint32[]"
        },
        {
          "internalType": "uint32[]",
          "name": "proportions",
          "type": "uint32[]"
        }
      ],
      "name": "updateInitializationParameters",
      "outputs": [],
      "stateMutability": "nonpayable",
      "type": "function"
    },
    {
      "inputs": [
        {
          "internalType": "uint16",
          "name": "currencyId",
          "type": "uint16"
        },
        {
          "internalType": "uint8[]",
          "name": "marketIndices",
          "type": "uint8[]"
        },
        {
          "components": [
            {
              "internalType": "uint8",
              "name": "kinkUtilization1",
              "type": "uint8"
            },
            {
              "internalType": "uint8",
              "name": "kinkUtilization2",
              "type": "uint8"
            },
            {
              "internalType": "uint8",
              "name": "kinkRate1",
              "type": "uint8"
            },
            {
              "internalType": "uint8",
              "name": "kinkRate2",
              "type": "uint8"
            },
            {
              "internalType": "uint8",
              "name": "maxRateUnits",
              "type": "uint8"
            },
            {
              "internalType": "uint8",
              "name": "minFeeRate5BPS",
              "type": "uint8"
            },
            {
              "internalType": "uint8",
              "name": "maxFeeRate25BPS",
              "type": "uint8"
            },
            {
              "internalType": "uint8",
              "name": "feeRatePercent",
              "type": "uint8"
            }
          ],
          "internalType": "struct InterestRateCurveSettings[]",
          "name": "settings",
          "type": "tuple[]"
        }
      ],
      "name": "updateInterestRateCurve",
      "outputs": [],
      "stateMutability": "nonpayable",
      "type": "function"
    },
    {
      "inputs": [
        {
          "internalType": "uint16",
          "name": "currencyId",
          "type": "uint16"
        },
        {
          "components": [
            {
              "internalType": "uint8",
              "name": "kinkUtilization1",
              "type": "uint8"
            },
            {
              "internalType": "uint8",
              "name": "kinkUtilization2",
              "type": "uint8"
            },
            {
              "internalType": "uint8",
              "name": "kinkRate1",
              "type": "uint8"
            },
            {
              "internalType": "uint8",
              "name": "kinkRate2",
              "type": "uint8"
            },
            {
              "internalType": "uint8",
              "name": "maxRateUnits",
              "type": "uint8"
            },
            {
              "internalType": "uint8",
              "name": "minFeeRate5BPS",
              "type": "uint8"
            },
            {
              "internalType": "uint8",
              "name": "maxFeeRate25BPS",
              "type": "uint8"
            },
            {
              "internalType": "uint8",
              "name": "feeRatePercent",
              "type": "uint8"
            }
          ],
          "internalType": "struct InterestRateCurveSettings",
          "name": "primeDebtCurve",
          "type": "tuple"
        }
      ],
      "name": "updatePrimeCashCurve",
      "outputs": [],
      "stateMutability": "nonpayable",
      "type": "function"
    },
    {
      "inputs": [
        {
          "internalType": "uint16",
          "name": "currencyId",
          "type": "uint16"
        },
        {
          "internalType": "contract IPrimeCashHoldingsOracle",
          "name": "primeCashHoldingsOracle",
          "type": "address"
        }
      ],
      "name": "updatePrimeCashHoldingsOracle",
      "outputs": [],
      "stateMutability": "nonpayable",
      "type": "function"
    },
    {
      "inputs": [
        {
          "internalType": "uint16",
          "name": "currencyId",
          "type": "uint16"
        },
        {
          "internalType": "uint8",
          "name": "residualPurchaseIncentive10BPS",
          "type": "uint8"
        },
        {
          "internalType": "uint8",
          "name": "pvHaircutPercentage",
          "type": "uint8"
        },
        {
          "internalType": "uint8",
          "name": "residualPurchaseTimeBufferHours",
          "type": "uint8"
        },
        {
          "internalType": "uint8",
          "name": "cashWithholdingBuffer10BPS",
          "type": "uint8"
        },
        {
          "internalType": "uint8",
          "name": "liquidationHaircutPercentage",
          "type": "uint8"
        }
      ],
      "name": "updateTokenCollateralParameters",
      "outputs": [],
      "stateMutability": "nonpayable",
      "type": "function"
    },
    {
      "inputs": [
        {
          "internalType": "enum Deployments.BeaconType",
          "name": "proxy",
          "type": "uint8"
        },
        {
          "internalType": "address",
          "name": "newBeacon",
          "type": "address"
        }
      ],
      "name": "upgradeBeacon",
      "outputs": [],
      "stateMutability": "nonpayable",
      "type": "function"
    },
    {
      "inputs": [
        {
          "internalType": "address",
          "name": "newImplementation",
          "type": "address"
        }
      ],
      "name": "upgradeTo",
      "outputs": [],
      "stateMutability": "nonpayable",
      "type": "function"
    },
    {
      "inputs": [
        {
          "internalType": "address",
          "name": "newImplementation",
          "type": "address"
        },
        {
          "internalType": "bytes",
          "name": "data",
          "type": "bytes"
        }
      ],
      "name": "upgradeToAndCall",
      "outputs": [],
      "stateMutability": "payable",
      "type": "function"
    }
  ],
  "bytecode": "608060405234801561001057600080fd5b50615cbe80620000216000396000f3fe608060405260043610620001525760003560e01c806357f0e3e811620000bb578063b242e5341162000079578063b242e534146200038e578063b739ecde14620003b3578063c572cae414620003d8578063cfaaf47414620003fd578063e1d548e71462000422578063fa17b5f114620004475762000152565b806357f0e3e814620002ef578063744ec0ef14620003145780638246336714620003395780638da5cb5b14620003515780639f84960a14620003695762000152565b80633659cfe611620001155780633659cfe6146200021d57806339f7cd701462000242578063413f2c5f14620002675780634e62cf3d146200028c5780634e71e0c814620002c05780634f1ef28614620002d85762000152565b806313eabebd1462000157578063163903d5146200017e57806324a3d62214620001a35780633436a19c14620001d35780633531a09014620001f8575b600080fd5b3480156200016457600080fd5b506200017c6200017636600462004448565b6200046c565b005b3480156200018b57600080fd5b506200017c6200019d36600462004b95565b620005d4565b348015620001b057600080fd5b50620001bb6200065b565b604051620001ca919062004cd4565b60405180910390f35b348015620001e057600080fd5b506200017c620001f236600462004bc1565b6200066a565b3480156200020557600080fd5b506200017c6200021736600462004a06565b62000722565b3480156200022a57600080fd5b506200017c6200023c36600462004239565b62000766565b3480156200024f57600080fd5b506200017c6200026136600462004a99565b62000791565b3480156200027457600080fd5b506200017c6200028636600462004844565b620007dc565b3480156200029957600080fd5b50620002b1620002ab3660046200461b565b6200086e565b604051620001ca91906200515c565b348015620002cd57600080fd5b506200017c62000bac565b6200017c620002e9366004620042ed565b62000c57565b348015620002fc57600080fd5b506200017c6200030e36600462004a24565b62000c70565b3480156200032157600080fd5b506200017c6200033336600462004277565b62000d7c565b3480156200034657600080fd5b50620001bb62000e0e565b3480156200035e57600080fd5b50620001bb62000e1d565b3480156200037657600080fd5b506200017c6200038836600462004b65565b62000e33565b3480156200039b57600080fd5b506200017c620003ad366004620042b4565b62000e83565b348015620003c057600080fd5b506200017c620003d236600462004ac9565b62000f83565b348015620003e557600080fd5b506200017c620003f73660046200497c565b620010ea565b3480156200040a57600080fd5b506200017c6200041c36600462004844565b62001181565b3480156200042f57600080fd5b506200017c62000441366004620048ca565b62001204565b3480156200045457600080fd5b506200017c62000466366004620042b4565b620013f6565b600054600160201b90046001600160a01b03163314620004a95760405162461bcd60e51b8152600401620004a09062004f9d565b60405180910390fd5b600080836003811115620004b957fe5b1415620004dc575073c4fd259b816d081c8bdd22d6bbd3495db1573db76200056d565b6001836003811115620004eb57fe5b14156200050e5750731f681977af5392d9ca5572fb394bc4d12939a6a96200056d565b60028360038111156200051d57fe5b141562000540575073df08039c0af34e34660ac7c2705c0da9532476406200056d565b60038360038111156200054f57fe5b141562000152575073d676d720e4e8b14f545f9116f0cad47af32329dd5b604051631b2ce7f360e11b81526001600160a01b03821690633659cfe6906200059b90859060040162004cd4565b600060405180830381600087803b158015620005b657600080fd5b505af1158015620005cb573d6000803e3d6000fd5b50505050505050565b600054600160201b90046001600160a01b03163314620006085760405162461bcd60e51b8152600401620004a09062004f9d565b6000620006168383620014a3565b90508261ffff167fa1c5aef47af9497b93ec06e3639c5077ce0e79c7e47d2405854bebf2297cbcdf826040516200064e9190620051db565b60405180910390a2505050565b6002546001600160a01b031681565b600054600160201b90046001600160a01b031633146200069e5760405162461bcd60e51b8152600401620004a09062004f9d565b620006a9866200150f565b6000620006ba8761ffff166200154d565b90506001600160a01b038116620006d057600080fd5b620006e08187878787876200157c565b7fe3bfb18d6259be9a43cd772d68c97fe6c61c35a17acb12e047ad8c9698e40aeb876040516200071191906200515c565b60405180910390a150505050505050565b600054600160201b90046001600160a01b03163314620007565760405162461bcd60e51b8152600401620004a09062004f9d565b6200076282826200168a565b5050565b6200077181620016fa565b6200078e81604051806020016040528060008152506000620017a1565b50565b600054600160201b90046001600160a01b03163314620007c55760405162461bcd60e51b8152600401620004a09062004f9d565b620007d0826200150f565b620007628282620018e7565b600054600160201b90046001600160a01b03163314620008105760405162461bcd60e51b8152600401620004a09062004f9d565b6200081b856200150f565b6200082e8561ffff168585858562001938565b7fff9528b00f1b4a49ad8a5d2c82e5602c172ee7e42bc1f5b7d505a7581b438234856040516200085f91906200515c565b60405180910390a15050505050565b60008054600160201b90046001600160a01b03163314620008a35760405162461bcd60e51b8152600401620004a09062004f9d565b6000805461ffff80821660010190811661ffff199092168217909255613fff1015620008ce57600080fd5b60096000620008e160208f018f62004239565b6001600160a01b0316815260208101919091526040016000205461ffff16156200090a57600080fd5b80600960008e600001602081019062000924919062004239565b6001600160a01b031681526020810191909152604001600020805461ffff191661ffff9283161790556200096b90821662000965368f90038f018f620047aa565b62001a7a565b62000977818c62001cad565b62000983818a62001ebd565b6000896001600160a01b031663ef81f2166040518163ffffffff1660e01b81526004016040805180830381600087803b158015620009c057600080fd5b505af1158015620009d5573d6000803e3d6000fd5b505050506040513d601f19601f82011682018060405250810190620009fb919062004c22565b91505062000a288262000a0e836200212c565b62000a1f368f90038f018f6200454c565b8d8d8d62002147565b6000828e600001602081019062000a40919062004239565b8989898960405160240162000a5b9695949392919062005188565b60408051601f198184030181529181526020820180516001600160e01b03166354c938a760e11b17905251909150600090731f681977af5392d9ca5572fb394bc4d12939a6a990839062000aaf9062004039565b62000abc92919062004d03565b604051809103906000f08015801562000ad9573d6000803e3d6000fd5b50905062000aea848260016200234d565b8a1562000b5457600073df08039c0af34e34660ac7c2705c0da9532476408360405162000b179062004039565b62000b2492919062004d03565b604051809103906000f08015801562000b41573d6000803e3d6000fd5b50905062000b52858260006200234d565b505b62000b60848462002408565b7f31404ff4a0f1116f17cfc89a376d7cb9cd8dbd8415e6aa24fdcb8e14e60d71428460405162000b9191906200515c565b60405180910390a150919d9c50505050505050505050505050565b600d546001600160a01b031633811462000bda5760405162461bcd60e51b8152600401620004a09062005000565b600080546040516001600160a01b0380851693600160201b90930416917f8be0079c531659141344cd1fd0a4f28419497f9722a3daafe3b4186f6b6457e091a3600080546001600160a01b03909216600160201b02640100000000600160c01b0319909216919091179055600d80546001600160a01b0319169055565b62000c6282620016fa565b6200076282826001620017a1565b600054600160201b90046001600160a01b0316331462000ca45760405162461bcd60e51b8152600401620004a09062004f9d565b62000caf8562002457565b600062000cc08661ffff166200248e565b805160405191925060009162000ce3918991899089908990899060240162005188565b60408051601f198184030181529181526020820180516001600160e01b03166354c938a760e11b1790525190915060009073df08039c0af34e34660ac7c2705c0da95324764090839062000d379062004039565b62000d4492919062004d03565b604051809103906000f08015801562000d61573d6000803e3d6000fd5b50905062000d72888260006200234d565b5050505050505050565b600054600160201b90046001600160a01b0316331462000db05760405162461bcd60e51b8152600401620004a09062004f9d565b600180546001600160a01b03199081166001600160a01b03858116918217909355600280549092169284169283179091556040517f792a598a7f3fb01623bba2594035c736ba3d7ec06210f07d9d7ef036c4a22ac690600090a35050565b6001546001600160a01b031681565b600054600160201b90046001600160a01b031681565b600054600160201b90046001600160a01b0316331462000e675760405162461bcd60e51b8152600401620004a09062004f9d565b620007628262000e7d368490038401846200454c565b620024ab565b600054600160201b90046001600160a01b0316331462000eb75760405162461bcd60e51b8152600401620004a09062004f9d565b801562000f62576001600160a01b03821662000ee75760405162461bcd60e51b8152600401620004a09062004e6c565b600080546040516001600160a01b0380861693600160201b90930416917f8be0079c531659141344cd1fd0a4f28419497f9722a3daafe3b4186f6b6457e091a360008054640100000000600160c01b031916600160201b6001600160a01b03851602179055600d80546001600160a01b031916905562000762565b600d80546001600160a01b0384166001600160a01b03199091161790555050565b600054600160201b90046001600160a01b0316331462000fb75760405162461bcd60e51b8152600401620004a09062004f9d565b62000fc2866200150f565b62000fce8686620018e7565b600062000fdf8761ffff166200248e565b905062000fec87620024f7565b62000ff657600080fd5b805160405160009162001017918a9190899089908990899060240162005188565b60408051601f198184030181529181526020820180516001600160e01b03166354c938a760e11b1790525190915060009073c4fd259b816d081c8bdd22d6bbd3495db1573db79083906200106b9062004039565b6200107892919062004d03565b604051809103906000f08015801562001095573d6000803e3d6000fd5b509050620010a489826200252a565b7f6793810fdf58cb4c6e0ee40e4b03eb1075b7cbbb55c34379b918873241972aea8982604051620010d79291906200516b565b60405180910390a1505050505050505050565b600054600160201b90046001600160a01b031633146200111e5760405162461bcd60e51b8152600401620004a09062004f9d565b62001129866200150f565b62001179866040518060c00160405280886001600160a01b03168152602001600060ff16815260200187151581526020018660ff1681526020018560ff1681526020018460ff1681525062001cad565b505050505050565b600054600160201b90046001600160a01b03163314620011b55760405162461bcd60e51b8152600401620004a09062004f9d565b620011c0856200150f565b620011d38561ffff168585858562002604565b7f6e2f98678675da049b2cd990d6f467aac69d623ff4ecdd26a5d42f184a69d342856040516200085f91906200515c565b600054600160201b90046001600160a01b03163314620012385760405162461bcd60e51b8152600401620004a09062004f9d565b62001243856200150f565b6000620012548661ffff1662002766565b90508382146200126357600080fd5b60005b84811015620005cb578585828181106200127c57fe5b905060200201602081019062001293919062004c6c565b60ff16600010620012a357600080fd5b8160ff16868683818110620012b457fe5b9050602002016020810190620012cb919062004c6c565b60ff161115620012da57600080fd5b80156200133d57858582818110620012ee57fe5b905060200201602081019062001305919062004c6c565b60ff168686600184038181106200131857fe5b90506020020160208101906200132f919062004c6c565b60ff16106200133d57600080fd5b62001395878787848181106200134f57fe5b905060200201602081019062001366919062004c6c565b60ff168686858181106200137657fe5b905061010002018036038101906200138f91906200454c565b6200277e565b858582818110620013a257fe5b9050602002016020810190620013b9919062004c6c565b60ff168761ffff167f3e4a0f68027373459f0bdff08dfb4c876ee3e2fb800ee3161c0670532f4ec3a460405160405180910390a360010162001266565b600054600160201b90046001600160a01b031633146200142a5760405162461bcd60e51b8152600401620004a09062004f9d565b620014358262002803565b6200143f57600080fd5b6001600160a01b03821660009081526008602052604090819020805460ff1916831515179055517fccf663aae81733293dcfcf2a91da8c6f0e7ba8089b34eb4fd5760dd8fd605bd89062001497908490849062004ce8565b60405180910390a15050565b600080620014b062002809565b60008561ffff1681526020019081526020016000209050620014d28362002818565b60018201805463ffffffff60581b1916600160581b63ffffffff93841681029190911791829055620015079291041662002846565b949350505050565b8061ffff1660001080156200152e575060005461ffff90811690821611155b6200078e5760405162461bcd60e51b8152600401620004a09062005065565b6000806200155a62002854565b600084815260209190915260409020546001600160a01b03169150505b919050565b60006200158862002863565b6001600160a01b0388166000908152602082905260409020909150606460ff84161315620015ca5760405162461bcd60e51b8152600401620004a09062004e43565b8260ff168660ff1610620015f25760405162461bcd60e51b8152600401620004a09062005130565b8360ff168760ff1611156200161b5760405162461bcd60e51b8152600401620004a09062004e9b565b805464ffffffffff60581b1916600160581b60f89490941b6001600160f81b03191660f09590951b60ff60f01b1660e89690961b60ff60e81b1660e09790971b60ff60e01b1660ff60d81b60d8998a1b161796909617949094179290921790941c939093029190911790555050565b60006200169662002872565b61ffff8416600081815260209290925260409182902080546001600160a01b0319166001600160a01b0386161781559151919250907f870041665f4908d4b05db2c67d9d8735d37ec80a0f5f9286ce37e315b460682f906200064e90859062004cd4565b600054600160201b90046001600160a01b03163314806200173e57506002546001600160a01b0316331480156200173e57506001546001600160a01b038281169116145b6200175d5760405162461bcd60e51b8152600401620004a09062004fd2565b6001546001600160a01b03828116911614156200078e576200177e62002881565b600380546001600160a01b0319166001600160a01b039290921691909117905550565b6000620017ad62002881565b9050620017ba84620028bd565b600083511180620017c85750815b15620017dc57620017da848462002952565b505b6000620018097f4910fdfa16fed3260ed0e7147f7cc6da11a60208b5b9406d12a635614ffd914362002981565b805490915060ff16620018e057805460ff19166001178155604080516001600160a01b0384166024808301919091528251808303909101815260449091019091526020810180516001600160e01b0316631b2ce7f360e11b1790526200187190869062002952565b50805460ff191681556200188462002881565b6001600160a01b0316826001600160a01b031614620018d55760405162461bcd60e51b815260040180806020018281038252602f81526020018062005be0602f913960400191505060405180910390fd5b620018e08562002984565b5050505050565b6200190761ffff831662001901368490038401846200446a565b620029c6565b7f8fd2367aaaca3606dee299bbef980da42d4e906e355f28c3dd3a2f4d81d6b463826040516200149791906200515c565b60078311156200195c5760405162461bcd60e51b8152600401620004a09062004f2b565b8083146200197e5760405162461bcd60e51b8152600401620004a09062004db9565b60005b8181101562001a4d578484828181106200199757fe5b9050602002016020810190620019ae919062004c46565b63ffffffff1615620019bf57600080fd5b6000838383818110620019ce57fe5b9050602002016020810190620019e5919062004c46565b63ffffffff1611801562001a255750633b9aca0083838381811062001a0657fe5b905060200201602081019062001a1d919062004c46565b63ffffffff16125b62001a445760405162461bcd60e51b8152600401620004a09062005100565b60010162001981565b50600062001a5a62002b80565b6000878152602082905260409020909150620005cb818787878762002b8f565b600062001a8662002c6e565b905060038260400151600581111562001a9b57fe5b14801562001aa95750600183145b1562001aed57600083815260209182526040808220600183529092522080546001600160b01b031916600360a81b1760ff60b01b1916600960b11b17905562000762565b81516001600160a01b031662001b175760405162461bcd60e51b8152600401620004a09062004e16565b600062001b2684600162002c7d565b835181519192506001600160a01b039182169116148062001b4f575080516001600160a01b0316155b62001b6e5760405162461bcd60e51b8152600401620004a09062004ef4565b826060015160ff16600010801562001b8e57506024836060015160ff1611155b62001bad5760405162461bcd60e51b8152600401620004a09062004ec6565b60038360400151600581111562001bc057fe5b141562001bcc57600080fd5b60008360400151600581111562001bdf57fe5b1462001bea57600080fd5b6000848152602083815260408083206001845282529182902085518154928701511515600160a01b0260ff60a01b196001600160a01b039092166001600160a01b0319909416939093171691909117808255918501518592829060ff60a81b1916600160a81b83600581111562001c5d57fe5b02179055506060820151815460809093015168ffffffffffffffffff16600160b81b026001600160b81b0360ff909216600160b01b0260ff60b01b19909416939093171691909117905550505050565b60018261ffff16141562001ccc57600081526012602082015262001d63565b80516001600160a01b031662001ce157600080fd5b80600001516001600160a01b031663313ce5676040518163ffffffff1660e01b815260040160206040518083038186803b15801562001d1f57600080fd5b505afa15801562001d34573d6000803e3d6000fd5b505050506040513d601f19601f8201168201806040525081019062001d5a919062004c8b565b60ff1660208201525b6064816060015160ff16121562001d7957600080fd5b6064816080015160ff16131562001d8f57600080fd5b60648160a0015160ff161362001da457600080fd5b6024816020015160ff16111562001dba57600080fd5b600062001dc662002d1c565b61ffff841660009081526020828152604091829020855181549287015187850151606089015160808a015160a08b01516001600160a01b03199097166001600160a01b039095169490941760ff60a01b1916600160a01b60ff948516021760ff60a81b1916600160a81b921515929092029190911760ff60b01b1916600160b01b918316919091021760ff60b81b1916600160b81b928216929092029190911760ff60c01b1916600160c01b9190931602919091179055519091507f32df9e03d26f91a7fa4d4a9e48c2038679570cde31d5c7f979a04515e00a767d9062001eb09085906200515c565b60405180910390a1505050565b6000816001600160a01b031663e79bf13b6040518163ffffffff1660e01b815260040160006040518083038186803b15801562001ef957600080fd5b505afa15801562001f0e573d6000803e3d6000fd5b505050506040513d6000823e601f3d908101601f1916820160405262001f38919081019062004391565b90506000826001600160a01b0316636f307dc36040518163ffffffff1660e01b815260040160206040518083038186803b15801562001f7657600080fd5b505afa15801562001f8b573d6000803e3d6000fd5b505050506040513d601f19601f8201168201806040525081019062001fb1919062004258565b9050600060018561ffff16146200204a576040516370a0823160e01b81526001600160a01b038316906370a082319062001ff090309060040162004cd4565b60206040518083038186803b1580156200200957600080fd5b505afa1580156200201e573d6000803e3d6000fd5b505050506040513d601f19601f8201168201806040525081019062002044919062004c09565b6200204c565b475b90506200205c8260008362002d2b565b60005b835181101562001179578381815181106200207657fe5b60200260200101516001600160a01b03166370a08231306040518263ffffffff1660e01b8152600401620020ab919062004cd4565b60206040518083038186803b158015620020c457600080fd5b505afa158015620020d9573d6000803e3d6000fd5b505050506040513d601f19601f82011682018060405250810190620020ff919062004c09565b9150620021238482815181106200211257fe5b602002602001015160008462002d2b565b6001016200205f565b60006001600160581b038211156200214357600080fd5b5090565b60006200215362002809565b60008861ffff16815260200190815260200160002090506200217687856200168a565b805464ffffffffff16156200218a57600080fd5b856001600160581b0316600010620021a157600080fd5b6000620021ae8862002dc0565b905080600010620021be57600080fd5b620021c94262002e43565b825460028401805464ffffffffff1990921664ffffffffff93909316929092176fffffffffffffffffffffff00000000001916650100000000006001600160581b038b16908102919091176001600160f81b0316600160f81b8815150217855569ffffffffffffffffffff60501b199091166503782dace9d960621b1769ffffffffffffffffffff60a01b19166503782dace9d960b21b1760ff60f01b1916600160f01b60ff871602179091556200228e906200228890839062002e58565b62002e79565b60028301805469ffffffffffffffffffff19166001600160501b0392909216919091179055620022be816200212c565b82546001840180546affffffffffffffffffffff1916905563ffffffff60d81b196001600160581b0392909216600160801b026affffffffffffffffffffff60801b199091161716825562002314888762002e90565b60405161ffff8916907f10a72302a4c7c7bbb57a6fbe822ed3d9a792eb3e4aafc64e64745e3ae7bf128790600090a25050505050505050565b60008162002365576200235f62002efb565b6200236f565b6200236f62002f0a565b61ffff85166000908152602082905260409020549091506001600160a01b0316156200239a57600080fd5b61ffff84166000818152602083905260409081902080546001600160a01b0319166001600160a01b038716179055517fb492e9bf0487a94dae4dd27d50f25f59e832faa854ed4072ee0fc57d327ca4c890620023fa908690869062004ce8565b60405180910390a250505050565b60008112156200241757600080fd5b600062002427610fee8462002f19565b905062002438610fee848462002f75565b62002452610fee846200244c858562002fee565b62003005565b505050565b60006200246362002809565b61ffff9092166000908152602092909252506040902080546001600160f81b0316600160f81b179055565b6200249862004047565b620024a582600162002c7d565b92915050565b620024b782426200308b565b50620024c4828262002e90565b60405161ffff8316907f10a72302a4c7c7bbb57a6fbe822ed3d9a792eb3e4aafc64e64745e3ae7bf128790600090a25050565b6000806200250462002809565b61ffff93909316600090815260209390935250506040902054600160f81b900460ff1690565b60006200253662002854565b61ffff84166000908152602082905260409020549091506001600160a01b031615620025765760405162461bcd60e51b8152600401620004a090620050c9565b60006200258262002863565b6001600160a01b038416600090815260208290526040902080549192509061ffff1615620025c45760405162461bcd60e51b8152600401620004a09062004de9565b805461ffff191661ffff959095169485179055506000928352602052604090912080546001600160a01b0319166001600160a01b03909216919091179055565b6007831115620026285760405162461bcd60e51b8152600401620004a09062005092565b8281146200264a5760405162461bcd60e51b8152600401620004a09062004d82565b6000805b8481101562002713578585828181106200266457fe5b90506020020160208101906200267b919062004c46565b63ffffffff168201915060008484838181106200269457fe5b9050602002016020810190620026ab919062004c46565b63ffffffff16118015620026eb5750633b9aca00848483818110620026cc57fe5b9050602002016020810190620026e3919062004c46565b63ffffffff16125b6200270a5760405162461bcd60e51b8152600401620004a09062004f6d565b6001016200264e565b506305f5e10081146200273a5760405162461bcd60e51b8152600401620004a09062005035565b60006200274662003165565b600088815260208290526040902090915062000d72818888888862002b8f565b600080620027748362003174565b60ff169392505050565b60006200278a62003193565b61ffff85166000908152602091909152604081209150620027ab84620031a2565b60080260c0039050600060048510620027c6576001620027c9565b60005b9050620027e9838260ff1660028110620027df57fe5b01548386620031df565b838260ff1660028110620027f957fe5b0155505050505050565b3b151590565b600080620024a5601d6200320d565b60008062ffffff83111562002838576017620028348462003227565b0390505b82811c60081b179050919050565b600881901c60ff9091161b90565b600080620024a560036200320d565b600080620024a560026200320d565b600080620024a5601f6200320d565b6000620028ae7f360894a13ba1a3210667c828492db98dca3e2076cc3735a920a3ca505d382bbc62002981565b546001600160a01b0316905090565b620028c88162002803565b620029055760405162461bcd60e51b815260040180806020018281038252602d81526020018062005c0f602d913960400191505060405180910390fd5b80620029317f360894a13ba1a3210667c828492db98dca3e2076cc3735a920a3ca505d382bbc62002981565b80546001600160a01b0319166001600160a01b039290921691909117905550565b60606200297a838360405180606001604052806027815260200162005c3c60279139620032cd565b9392505050565b90565b6200298f81620028bd565b6040516001600160a01b038216907fbc7cd75a20ee27fd9adebab32041f755214dbc6bffa90cc0225b39da2e5c2d3b90600090a250565b805160ff16600211801590620029e457506007816000015160ff1611155b620029ee57600080fd5b6064816060015160ff16131562002a0457600080fd5b806040015160ff1660001062002a1957600080fd5b80610120015160ff168160c0015160ff161062002a3557600080fd5b8060a0015160ff168160e0015160ff161062002a5057600080fd5b806080015160ff1681610100015160ff161062002a6c57600080fd5b600062002a798362002766565b9050816000015160ff168160ff16111562002a9357600080fd5b61012082015161010083015160e084015160c085015160a0860151608087015160608801516040808a01516020808c01518c5160489b909b1b69ff000000000000000000169990931b68ff00000000000000001660389890981b60ff60381b1660309790971b66ff0000000000001660289690961b65ff00000000001694901b64ff000000001660189390931b63ff0000001660109190911b62ff00001660089290921b61ff001660ff909916989098171796909617959095179490941793909317929092179190911717600062002b6a620033d9565b6000958652602052506040909320929092555050565b600080620024a560056200320d565b6000805b84811015620005cb5785858281811062002ba957fe5b905060200201602081019062002bc0919062004c46565b8783600e811062002bcd57fe5b600891828204019190066004026101000a81548163ffffffff021916908363ffffffff160217905550818060010192505083838281811062002c0b57fe5b905060200201602081019062002c22919062004c46565b8783600e811062002c2f57fe5b600891828204019190066004026101000a81548163ffffffff021916908363ffffffff1602179055508180600101925050808060010191505062002b93565b600080620024a560076200320d565b62002c8762004047565b600062002c9362002c6e565b6000858152602082815260408083208715158452825291829020825160a08101845281546001600160a01b038116825260ff600160a01b82048116151594830194909452600160b01b81048416600a0a9482019490945293945092916060830191600160a81b90910416600581111562002d0957fe5b8152600060209091015295945050505050565b600080620024a560106200320d565b600062002d37620033e8565b6001600160a01b0385166000908152602082905260409020549091508381111562002d6157600080fd5b600062002d8462002d7286620033f7565b62002d7d86620033f7565b9062002fee565b905062002d9c62002d9683836200340e565b62003425565b6001600160a01b039096166000908152602093909352505060409020929092555050565b60008062002dce8362003435565b6001600160a01b031663ef81f2166040518163ffffffff1660e01b81526004016040805180830381600087803b15801562002e0857600080fd5b505af115801562002e1d573d6000803e3d6000fd5b505050506040513d601f19601f8201168201806040525081019062001507919062004c22565b600064ffffffffff8211156200214357600080fd5b60006200297a62002e7284670de0b6b3a764000062003467565b8362003492565b60006001600160501b038211156200214357600080fd5b600062002e9c620034b3565b61ffff8416600090815260209190915260408120915062002ebc62003193565b61ffff8516600090815260209190915260408120915062002ee59083905b015460c085620031df565b825562002ef481600062002eda565b9055505050565b600080620024a560226200320d565b600080620024a560216200320d565b60008062002f26620034c2565b6001600160a01b03851660009081526020828152604080832061ffff8816845290915281208054600160a81b9004600a90810b900b945091925083121562002f6d57600080fd5b505092915050565b600081121562002f8457600080fd5b600062002f90620034c2565b6001600160a01b03851660009081526020828152604080832061ffff88168452909152902090915062002fc383620034d1565b8154600a9190910b6001600160581b0316600160a81b026001600160a81b0390911617905550505050565b80820382811315600083121514620024a557600080fd5b60006200301162002f0a565b61ffff8416600090815260209190915260409081902054905163ad1c095d60e01b81526001600160a01b039091169150819063ad1c095d906200305b908790869060040162004d69565b600060405180830381600087803b1580156200307657600080fd5b505af115801562000d72573d6000803e3d6000fd5b6200309562004076565b6000620030a28462003505565b90508281600001511015620030e957600080620030bf8662002dc0565b9050620030cf86848388620035d3565b9093509150620030e186838562003686565b5050620030f7565b80518314620030f757600080fd5b604051806060016040528062003129620031238460a001518560c001516200346790919063ffffffff16565b620033f7565b81526020016200314f620031238460a001518560e001516200346790919063ffffffff16565b8152602001826060015181525091505092915050565b600080620024a560046200320d565b60008062003181620033d9565b60009384526020525050604090205490565b600080620024a5601c6200320d565b600081600010620031b257600080fd5b6007821115620031c157600080fd5b60048210620031d45760048203620031d6565b815b60080292915050565b600080620031ed83620038c9565b6001600160401b0360ff861690811b19871691901b179150509392505050565b6000620f42408260268111156200322057fe5b0192915050565b6000816200323457600080fd5b600160801b82106200324857608091821c91015b6801000000000000000082106200326157604091821c91015b600160201b82106200327557602091821c91015b6201000082106200328857601091821c91015b61010082106200329a57600891821c91015b60108210620032ab57600491821c91015b60048210620032bc57600291821c91015b600282106200157757600101919050565b6060620032da8462002803565b620033175760405162461bcd60e51b815260040180806020018281038252602681526020018062005c636026913960400191505060405180910390fd5b600080856001600160a01b0316856040518082805190602001908083835b60208310620033565780518252601f19909201916020918201910162003335565b6001836020036101000a038019825116818451168082178552505050505050905001915050600060405180830381855af49150503d8060008114620033b8576040519150601f19603f3d011682016040523d82523d6000602084013e620033bd565b606091505b5091509150620033cf828286620039ef565b9695505050505050565b600080620024a560096200320d565b600080620024a560266200320d565b60006001600160ff1b038211156200214357600080fd5b81810182811215600083121514620024a557600080fd5b6000808212156200214357600080fd5b6000806200344262002872565b61ffff939093166000908152602093909352505060409020546001600160a01b031690565b6000826200347857506000620024a5565b828202828482816200348657fe5b04146200297a57600080fd5b6000808211620034a157600080fd5b818381620034ab57fe5b049392505050565b600080620024a5601b6200320d565b600080620024a560066200320d565b60006a7fffffffffffffffffffff198212801590620034fb57506a7fffffffffffffffffffff8213155b6200214357600080fd5b6200350f62004097565b60006200351b62002809565b61ffff93841660009081526020918252604090819020805464ffffffffff811686526501000000000081046001600160581b03908116948701949094526001820154841692860192909252600160d81b820463ffffffff166060860152600160801b9091049091166080840152600201546001600160501b0380821660a0850152600160501b8204811660c0850152600160a01b82041660e0840152600160f01b900460ff1661012c02909216610100820152919050565b620035dd62004097565b6000806000620035ef88868962003a99565b60c08b019290925260e08a01929092526020890151919350915062003615908362003bc9565b60208801526080870151600090156200364857608088015162003645906200363e898262003bdc565b9062002e58565b90505b6200366c62003660670de0b6b3a76400008362003bc9565b60a08a01519062003bf2565b60a089015250506080860194909452505082529092909150565b60006200369262002809565b60008561ffff1681526020019081526020016000209050620036b8826000015162002e43565b815464ffffffffff191664ffffffffff9190911617815560a0820151620036df9062002e79565b60028201805469ffffffffffffffffffff19166001600160501b039290921691909117905560c0820151620037149062002e79565b81600201600a6101000a8154816001600160501b0302191690836001600160501b031602179055506200374b8260e0015162002e79565b8160020160146101000a8154816001600160501b0302191690836001600160501b031602179055506200378282602001516200212c565b81546001600160581b039190911665010000000000026fffffffffffffffffffffff0000000000199091161781556040820151620037c0906200212c565b6001820180546affffffffffffffffffffff19166001600160581b03929092169190911790556080820151620037f6906200212c565b81546001600160581b0391909116600160801b026affffffffffffffffffffff60801b199091161781556060820151620038309062003c13565b815463ffffffff91909116600160d81b0263ffffffff60d81b199091161781558215620038835760006200386484620033f7565b905062003872858262003c27565b62003881610fee868362003005565b505b8361ffff167fef25641e225e493886510ca1ad6584fa7b442b9fea820a29d1de3ce27d270fd28360a001518460c001518560e00151604051620023fa93929190620051e4565b6000816020015160ff16826000015160ff1610620038e657600080fd5b6064826020015160ff161115620038fc57600080fd5b816060015160ff16826040015160ff16106200391757600080fd5b60c082015160a0830151622625a060ff9283160291166207a1200211156200393e57600080fd5b60648260e0015160ff16106200395357600080fd5b5060e081015160c082015160a0830151606084015160408501516080860151602080880151975160ff90971660089690961b61ff001660109590951b62ff00001660189490941b63ff0000001692901b64ff000000001660289190911b65ff00000000001660309790971b66ff0000000000001660389690961b60ff60381b169590951795909517939093179390931791909117919091171790565b6060831562003a005750816200297a565b82511562003a115782518084602001fd5b8160405162461bcd60e51b81526004018080602001828103825283818151815260200191508051906020019080838360005b8381101562003a5d57818101518382015260200162003a43565b50505050905090810190601f16801562003a8b5780820380516001836020036101000a031916815260200191505b509250505060405180910390fd5b60008060008060008062003aae898862003c65565b8951909550919350915060009062003ad99062003acd908b9062003bdc565b633b9aca009062003467565b905062003b1a62003b0e6301da9c0062003af4858562003467565b8162003afc57fe5b670de0b6b3a764000091900462003bc9565b60e08a01519062003bf2565b965062003b4162003b356301da9c0062003af4878562003467565b60c08a01519062003bf2565b95508183141562003b5a57506000935062003bc0915050565b600062003b8162003b756301da9c0062003af4878662003467565b60e08b01519062003bf2565b9050600062003b91898362003bdc565b905062003bb88862003bb1838d604001516200346790919063ffffffff16565b9062003492565b965050505050505b93509350935093565b6000828201838110156200297a57600080fd5b60008282111562003bec57600080fd5b50900390565b60006200297a62003c04848462003467565b670de0b6b3a764000062003492565b600063ffffffff8211156200214357600080fd5b600081121562003c3657600080fd5b600062003c46610fee8462002f19565b905062003c5481836200340e565b905062002452610fee848362002f75565b60008060008060008560200151111562003cb95762003cb662003c9a8660c0015187602001516200346790919063ffffffff16565b60e0870151604088015162003caf9162003467565b9062003d11565b90505b600062003cc68762003d27565b905062003cd4818362003d60565b9450811562003cee5762003ceb8186600162003e31565b93505b60208601511562003d085762003d05858362003eb7565b92505b50509250925092565b60006200297a62002e7284633b9aca0062003467565b62003d31620040e3565b600062003d3d620034b3565b61ffff84166000908152602091909152604081205491506200297a908262003ed4565b60008083608001511162003d7357600080fd5b633b9aca0082111562003d8557600080fd5b8251821162003db0578251604084015162003da8919062003bb190859062003467565b9050620024a5565b8260200151821162003df457604083015183516020850151606086015162003da8939262003ded928190039162003bb19188039085900362003467565b9062003bc9565b6200297a836060015162003ded8560200151633b9aca000362003bb18760600151886080015103886020015188036200346790919063ffffffff16565b60008062003e53606462003bb18760e00151876200346790919063ffffffff16565b90508460a0015181101562003e69575060a08401515b8460c0015181111562003e7d575060c08401515b821562003e985762003e90848262003bc9565b915062003eaf565b83811162003ea95780840362003eac565b60005b91505b509392505050565b60006200297a62003ec9848462003467565b633b9aca0062003492565b62003ede620040e3565b6064633b9aca008360ff86166020811062003ef557fe5b1a028162003eff57fe5b0481526064633b9aca008360ff86166001016020811062003f1c57fe5b1a028162003f2657fe5b0481602001818152505062003f4e8260028560ff16016020811062003f4757fe5b1a62004003565b60808201819052610100908360ff86166003016020811062003f6c57fe5b1a028162003f7657fe5b0460408201526080810151610100908360ff86166004016020811062003f9857fe5b1a028162003fa257fe5b0460608201526207a1208260ff85166005016020811062003fbf57fe5b1a0260a0820152622625a08260ff85166006016020811062003fdd57fe5b1a0260c08201528160ff84166007016020811062003ff757fe5b1a60e082015292915050565b60008160ff16609610620040205760ff8216622625a002620024a5565b5060951960ff919091160162e4e1c00263165a0bc00190565b61099b806200524583390190565b6040805160a0810182526000808252602082018190529181018290529060608201908152602001600081525090565b60405180606001604052806000815260200160008152602001600081525090565b6040518061012001604052806000815260200160008152602001600081526020016000815260200160008152602001600081526020016000815260200160008152602001600081525090565b60405180610100016040528060008152602001600081526020016000815260200160008152602001600081526020016000815260200160008152602001600081525090565b60008083601f8401126200413a578182fd5b5081356001600160401b0381111562004151578182fd5b60208301915083602080830285010111156200416c57600080fd5b9250929050565b803580151581146200157757600080fd5b803562001577816200521e565b60008083601f840112620041a3578182fd5b5081356001600160401b03811115620041ba578182fd5b6020830191508360208285010111156200416c57600080fd5b60006101408284031215620041e6578081fd5b50919050565b60006101008284031215620041e6578081fd5b803561ffff811681146200157757600080fd5b803568ffffffffffffffffff811681146200157757600080fd5b8035620015778162005234565b6000602082840312156200424b578081fd5b81356200297a816200521e565b6000602082840312156200426a578081fd5b81516200297a816200521e565b600080604083850312156200428a578081fd5b823562004297816200521e565b91506020830135620042a9816200521e565b809150509250929050565b60008060408385031215620042c7578182fd5b8235620042d4816200521e565b9150620042e46020840162004173565b90509250929050565b6000806040838503121562004300578182fd5b82356200430d816200521e565b91506020838101356001600160401b03808211156200432a578384fd5b818601915086601f8301126200433e578384fd5b8135818111156200434b57fe5b6200435f601f8201601f19168501620051fa565b9150808252878482850101111562004375578485fd5b8084840185840137810190920192909252919491935090915050565b60006020808385031215620043a4578182fd5b82516001600160401b0380821115620043bb578384fd5b818501915085601f830112620043cf578384fd5b815181811115620043dc57fe5b8381029150620043ee848301620051fa565b8181528481019084860184860187018a101562004409578788fd5b8795505b838610156200443b578051945062004425856200521e565b848352600195909501949186019186016200440d565b5098975050505050505050565b600080604083850312156200445b578182fd5b82356004811062004297578283fd5b60006101408083850312156200447e578182fd5b6200448981620051fa565b905062004496836200422c565b8152620044a6602084016200422c565b6020820152620044b9604084016200422c565b6040820152620044cc606084016200422c565b6060820152620044df608084016200422c565b6080820152620044f260a084016200422c565b60a08201526200450560c084016200422c565b60c08201526200451860e084016200422c565b60e08201526101006200452d8185016200422c565b90820152610120620045418482016200422c565b908201529392505050565b600061010080838503121562004560578182fd5b604051908101906001600160401b03821181831017156200457d57fe5b816040526200458c846200422c565b81526200459c602085016200422c565b6020820152620045af604085016200422c565b6040820152620045c2606085016200422c565b6060820152620045d5608085016200422c565b6080820152620045e860a085016200422c565b60a0820152620045fb60c085016200422c565b60c08201526200460e60e085016200422c565b60e0820152949350505050565b6000806000806000806000806000808a8c036103008112156200463c578687fd5b60a08112156200464a578687fd5b8b9a5060c0609f19820112156200465f578687fd5b506040516001600160401b038160c08301108160c084011117156200468057fe5b60c0820160405260a08d013562004697816200521e565b825260c08d0135620046a98162005234565b6020830152620046bc60e08e0162004173565b6040830152620046d06101008e016200422c565b6060830152620046e46101208e016200422c565b6080830152620046f86101408e016200422c565b60a0830152819a50620047108e6101608f01620041ec565b9950620047216102608e0162004184565b9850620047326102808e0162004173565b9750620047436102a08e016200422c565b96506102c08d01359150808211156200475a578586fd5b620047688e838f0162004191565b90965094506102e08d013591508082111562004782578384fd5b50620047918d828e0162004191565b915080935050809150509295989b9194979a5092959850565b600060a08284031215620047bc578081fd5b60405160a081018181106001600160401b0382111715620047d957fe5b6040528235620047e9816200521e565b8152620047f96020840162004173565b602082015260408301356006811062004810578283fd5b60408201526060830135620048258162005234565b6060820152620048386080840162004212565b60808201529392505050565b6000806000806000606086880312156200485c578283fd5b6200486786620041ff565b945060208601356001600160401b038082111562004883578485fd5b6200489189838a0162004128565b90965094506040880135915080821115620048aa578283fd5b50620048b98882890162004128565b969995985093965092949392505050565b600080600080600060608688031215620048e2578283fd5b620048ed86620041ff565b945060208601356001600160401b038082111562004909578485fd5b6200491789838a0162004128565b9096509450604088013591508082111562004930578283fd5b818801915088601f83011262004944578283fd5b81358181111562004953578384fd5b8960206101008302850101111562004969578384fd5b9699959850939650602001949392505050565b60008060008060008060c0878903121562004995578384fd5b620049a087620041ff565b95506020870135620049b2816200521e565b9450620049c26040880162004173565b93506060870135620049d48162005234565b92506080870135620049e68162005234565b915060a0870135620049f88162005234565b809150509295509295509295565b6000806040838503121562004a19578182fd5b6200429783620041ff565b60008060008060006060868803121562004a3c578283fd5b62004a4786620041ff565b945060208601356001600160401b038082111562004a63578485fd5b62004a7189838a0162004191565b9096509450604088013591508082111562004a8a578283fd5b50620048b98882890162004191565b600080610160838503121562004aad578182fd5b62004ab883620041ff565b9150620042e48460208501620041d3565b6000806000806000806101a0878903121562004ae3578384fd5b62004aee87620041ff565b955062004aff8860208901620041d3565b94506101608701356001600160401b038082111562004b1c578586fd5b62004b2a8a838b0162004191565b909650945061018089013591508082111562004b44578384fd5b5062004b5389828a0162004191565b979a9699509497509295939492505050565b600080610120838503121562004b79578182fd5b62004b8483620041ff565b9150620042e48460208501620041ec565b6000806040838503121562004ba8578182fd5b62004bb383620041ff565b946020939093013593505050565b60008060008060008060c0878903121562004bda578384fd5b62004be587620041ff565b9550602087013562004bf78162005234565b94506040870135620049c28162005234565b60006020828403121562004c1b578081fd5b5051919050565b6000806040838503121562004c35578182fd5b505080516020909101519092909150565b60006020828403121562004c58578081fd5b813563ffffffff811681146200297a578182fd5b60006020828403121562004c7e578081fd5b81356200297a8162005234565b60006020828403121562004c9d578081fd5b81516200297a8162005234565b60008284528282602086013780602084860101526020601f19601f85011685010190509392505050565b6001600160a01b0391909116815260200190565b6001600160a01b039290921682521515602082015260400190565b600060018060a01b038416825260206040818401528351806040850152825b8181101562004d405785810183015185820160600152820162004d22565b8181111562004d525783606083870101525b50601f01601f191692909201606001949350505050565b6001600160a01b03929092168252602082015260400190565b60208082526019908201527f50543a206c65766572616765207368617265206c656e67746800000000000000604082015260600190565b6020808252601690820152750a0a87440e0e4dee0dee4e8d2dedce640d8cadccee8d60531b604082015260600190565b60208082526013908201527250543a2063757272656e63792065786973747360681b604082015260600190565b60208082526013908201527254483a2061646472657373206973207a65726f60681b604082015260600190565b6020808252600f908201526e125b9d985b1a59081a185a5c98dd5d608a1b604082015260600190565b6020808252601590820152744f776e61626c653a207a65726f206164647265737360581b604082015260600190565b602080825260119082015270496e76616c696420646973636f756e747360781b604082015260600190565b60208082526014908201527354483a20696e76616c696420646563696d616c7360601b604082015260600190565b60208082526019908201527f54483a20746f6b656e2063616e6e6f7420626520726573657400000000000000604082015260600190565b60208082526022908201527f50543a20616e6e75616c697a656420616e63686f72207261746573206c656e676040820152610e8d60f31b606082015260800190565b60208082526016908201527514150e881b195d995c9859d9481d1a1c995cda1bdb1960521b604082015260600190565b6020808252818101527f4f776e61626c653a2063616c6c6572206973206e6f7420746865206f776e6572604082015260600190565b602080825260149082015273556e617574686f72697a6564207570677261646560601b604082015260600190565b6020808252818101527f4f776e61626c653a2063616c6c657220213d2070656e64696e67206f776e6572604082015260600190565b60208082526016908201527550543a206465706f736974207368617265732073756d60501b604082015260600190565b602080825260139082015272125b9d985b1a590818dd5c9c995b98de481a59606a1b604082015260600190565b60208082526018908201527f50543a206465706f736974207368617265206c656e6774680000000000000000604082015260600190565b60208082526018908201527f50543a20746f6b656e2061646472657373206578697374730000000000000000604082015260600190565b602080825260169082015275282a1d1034b73b30b634b210383937b837b93a34b7b760511b604082015260600190565b602080825260129082015271125b9d985b1a59081c1d881a185a5c98dd5d60721b604082015260600190565b61ffff91909116815260200190565b61ffff9290921682526001600160a01b0316602082015260400190565b61ffff871681526001600160a01b0386166020820152608060408201819052600090620051b9908301868862004caa565b8281036060840152620051ce81858762004caa565b9998505050505050505050565b90815260200190565b9283526020830191909152604082015260600190565b6040518181016001600160401b03811182821017156200521657fe5b604052919050565b6001600160a01b03811681146200078e57600080fd5b60ff811681146200078e57600080fdfe608060405260405161099b38038061099b8339818101604052604081101561002657600080fd5b81516020830180516040519294929383019291908464010000000082111561004d57600080fd5b90830190602082018581111561006257600080fd5b825164010000000081118282018810171561007c57600080fd5b82525081516020918201929091019080838360005b838110156100a9578181015183820152602001610091565b50505050905090810190601f1680156100d65780820380516001836020036101000a031916815260200191505b50604052508391508290506100ed828260006100f6565b505050506104fa565b6100ff836101c5565b6040516001600160a01b038416907f1cf3b03a6cf19fa2baba4df148e9dcabedea7f8a5c07840e207e5c089be95d3e90600090a26000825111806101405750805b156101c0576101be836001600160a01b0316635c60da1b6040518163ffffffff1660e01b815260040160206040518083038186803b15801561018157600080fd5b505afa158015610195573d6000803e3d6000fd5b505050506040513d60208110156101ab57600080fd5b50518361031e602090811b6100b717901c565b505b505050565b6101d88161034a60201b6100e31760201c565b6102135760405162461bcd60e51b81526004018080602001828103825260258152602001806108f96025913960400191505060405180910390fd5b61028b816001600160a01b0316635c60da1b6040518163ffffffff1660e01b815260040160206040518083038186803b15801561024f57600080fd5b505afa158015610263573d6000803e3d6000fd5b505050506040513d602081101561027957600080fd5b505161034a602090811b6100e317901c565b6102c65760405162461bcd60e51b815260040180806020018281038252603081526020018061096b6030913960400191505060405180910390fd5b806102fd7fa3f0ad74e5423aebfd80d3ef4346578335a9a72aeaee59ff6cb3582b35133d5060001b61035060201b6100e91760201c565b80546001600160a01b0319166001600160a01b039290921691909117905550565b6060610343838360405180606001604052806027815260200161091e60279139610353565b9392505050565b3b151590565b90565b606061035e8461034a565b6103995760405162461bcd60e51b81526004018080602001828103825260268152602001806109456026913960400191505060405180910390fd5b600080856001600160a01b0316856040518082805190602001908083835b602083106103d65780518252601f1990920191602091820191016103b7565b6001836020036101000a038019825116818451168082178552505050505050905001915050600060405180830381855af49150503d8060008114610436576040519150601f19603f3d011682016040523d82523d6000602084013e61043b565b606091505b50909250905061044c828286610456565b9695505050505050565b60608315610465575081610343565b8251156104755782518084602001fd5b8160405162461bcd60e51b81526004018080602001828103825283818151815260200191508051906020019080838360005b838110156104bf5781810151838201526020016104a7565b50505050905090810190601f1680156104ec5780820380516001836020036101000a031916815260200191505b509250505060405180910390fd5b6103f0806105096000396000f3fe60806040526004361061002d5760003560e01c80632d6b3a6b1461003e578063aaf10f421461006f57610034565b3661003457005b61003c610084565b005b34801561004a57600080fd5b5061005361009e565b604080516001600160a01b039092168252519081900360200190f35b34801561007b57600080fd5b506100536100ad565b61008c61009c565b61009c6100976100ec565b61015f565b565b60006100a8610183565b905090565b60006100a86100ec565b60606100dc838360405180606001604052806027815260200161036e6027913961018d565b9392505050565b3b151590565b90565b60006100f661028f565b6001600160a01b0316635c60da1b6040518163ffffffff1660e01b815260040160206040518083038186803b15801561012e57600080fd5b505afa158015610142573d6000803e3d6000fd5b505050506040513d602081101561015857600080fd5b5051905090565b3660008037600080366000845af43d6000803e80801561017e573d6000f35b3d6000fd5b60006100a861028f565b6060610198846100e3565b6101d35760405162461bcd60e51b81526004018080602001828103825260268152602001806103956026913960400191505060405180910390fd5b600080856001600160a01b0316856040518082805190602001908083835b602083106102105780518252601f1990920191602091820191016101f1565b6001836020036101000a038019825116818451168082178552505050505050905001915050600060405180830381855af49150503d8060008114610270576040519150601f19603f3d011682016040523d82523d6000602084013e610275565b606091505b50915091506102858282866102c9565b9695505050505050565b60006102ba7fa3f0ad74e5423aebfd80d3ef4346578335a9a72aeaee59ff6cb3582b35133d506100e9565b546001600160a01b0316905090565b606083156102d85750816100dc565b8251156102e85782518084602001fd5b8160405162461bcd60e51b81526004018080602001828103825283818151815260200191508051906020019080838360005b8381101561033257818101518382015260200161031a565b50505050905090810190601f16801561035f5780820380516001836020036101000a031916815260200191505b509250505060405180910390fdfe416464726573733a206c6f772d6c6576656c2064656c65676174652063616c6c206661696c6564416464726573733a2064656c65676174652063616c6c20746f206e6f6e2d636f6e7472616374a26469706673582212209140e03fcc039e1369cdf054f1cb597ce755a741c8c8a47edc66203d357ded6764736f6c63430007060033455243313936373a206e657720626561636f6e206973206e6f74206120636f6e7472616374416464726573733a206c6f772d6c6576656c2064656c65676174652063616c6c206661696c6564416464726573733a2064656c65676174652063616c6c20746f206e6f6e2d636f6e7472616374455243313936373a20626561636f6e20696d706c656d656e746174696f6e206973206e6f74206120636f6e747261637445524331393637557067726164653a207570677261646520627265616b732066757274686572207570677261646573455243313936373a206e657720696d706c656d656e746174696f6e206973206e6f74206120636f6e7472616374416464726573733a206c6f772d6c6576656c2064656c65676174652063616c6c206661696c6564416464726573733a2064656c65676174652063616c6c20746f206e6f6e2d636f6e7472616374a26469706673582212204355dcf6ff1f854b5816df16b9876c9409365c6059b8177a57a0e237e6d41ef964736f6c63430007060033",
  "bytecodeSha1": "ecd4e775bcc67360901e5b86e43f6d4eb4cd9ec1",
  "compiler": {
    "evm_version": "istanbul",
    "optimizer": {
      "enabled": true,
      "runs": 200
    },
    "version": "0.7.6+commit.7338295f"
  },
  "contractName": "GovernanceAction",
  "language": "Solidity",
  "natspec": {
    "kind": "dev",
    "methods": {
      "claimOwnership()": {
        "notice": "Needs to be called by `pendingOwner` to claim ownership."
      },
      "enableCashGroup(uint16,(uint8,uint8,uint8,uint8,uint8,uint8,uint8,uint8,uint8,uint8),string,string)": {
        "details": "emit:UpdateCashGroup emit:UpdateAssetRate emit:DeployNToken",
        "notice": "Enables a cash group on a given currency so that it can have lend and borrow markets. Will also deploy an nToken contract so that markets can be initialized.",
        "params": {
          "cashGroup": "parameters for the cash group",
          "currencyId": "id of the currency to enable",
          "underlyingName": "underlying token name for seeding nToken name",
          "underlyingSymbol": "underlying token symbol for seeding nToken symbol (i.e. nDAI)"
        }
      },
      "listCurrency((address,bool,uint8,uint8,uint72),(address,uint8,bool,uint8,uint8,uint8),(uint8,uint8,uint8,uint8,uint8,uint8,uint8,uint8),address,bool,uint8,string,string)": {
        "details": "emit:ListCurrency emit:UpdateETHRate",
        "notice": "Lists a new currency along with its exchange rate to ETH",
        "params": {
          "underlyingToken": "the underlying token (if asset token is an interest bearing wrapper)"
        },
        "returns": {
          "_0": "the new currency id"
        }
      },
      "setPauseRouterAndGuardian(address,address)": {
        "notice": "Sets a new pause router and guardian address."
      },
      "transferOwnership(address,bool)": {
        "notice": "Transfers ownership to `newOwner`. Either directly or claimable by the new pending owner. Can only be invoked by the current `owner`.",
        "params": {
          "direct": "True if `newOwner` should be set immediately. False if `newOwner` needs to use `claimOwnership`.",
          "newOwner": "Address of the new owner."
        }
      },
      "updateAuthorizedCallbackContract(address,bool)": {
        "details": "emit:UpdateAuthorizedCallbackContract",
        "notice": "Approves contracts that can call `batchTradeActionWithCallback`. These contracts can \"flash loan\" from Notional V2 and receive a callback before the free collateral check. Flash loans via the Notional V2 liquidity pool are not very gas efficient so this is not generally available, it can be used for migrating borrows into Notional V2 from other platforms.",
        "params": {
          "approved": "true if the contract is authorized",
          "operator": "address of the contract"
        }
      },
      "updateCashGroup(uint16,(uint8,uint8,uint8,uint8,uint8,uint8,uint8,uint8,uint8,uint8))": {
        "details": "emit:UpdateCashGroup",
        "notice": "Updates cash group parameters",
        "params": {
          "cashGroup": "new parameters for the cash group",
          "currencyId": "id of the currency to enable"
        }
      },
      "updateDepositParameters(uint16,uint32[],uint32[])": {
        "details": "emit:UpdateDepositParameters",
        "notice": "Updates the deposit parameters for an nToken",
        "params": {
          "currencyId": "the currency id that the nToken references",
          "depositShares": "an array of values that represent the proportion of each deposit that will go to a respective market, must add up to DEPOSIT_PERCENT_BASIS. For example, 0.40e8, 0.40e8 and 0.20e8 will result in 40%, 40% and 20% deposited as liquidity into the 3 month, 6 month and 1 year markets.",
          "leverageThresholds": "an array of values denominated in RATE_PRECISION that mark the highest proportion of fCash where the nToken will provide liquidity. Above this proportion, the nToken will lend to the market instead to reduce the leverage in the market."
        }
      },
      "updateETHRate(uint16,address,bool,uint8,uint8,uint8)": {
        "details": "emit:UpdateETHRate",
        "notice": "Updates ETH exchange rate or related parameters",
        "params": {
          "buffer": "multiplier (>= 100) for negative balances when calculating free collateral",
          "currencyId": "id of the currency",
          "haircut": "multiplier (<= 100) for positive balances when calculating free collateral",
          "liquidationDiscount": "multiplier (>= 100) for exchange rate when liquidating",
          "mustInvert": "if the rate from the oracle needs to be inverted",
          "rateOracle": "ETH to underlying rate oracle"
        }
      },
      "updateInitializationParameters(uint16,uint32[],uint32[])": {
        "details": "emit:UpdateInitializationParameters",
        "notice": "Updates the market initialization parameters for an nToken",
        "params": {
          "annualizedAnchorRates": "is a target interest rate that will be used to calculate a  rate anchor during initialize markets. This rate anchor will set the offset from the x-axis where the liquidity curve will be initialized. This is used in combination with previous market rates to determine the initial proportion where markets will be initialized every quarter.",
          "currencyId": "the currency id that the nToken references",
          "proportions": "used to combination with annualizedAnchorRate set the initial proportion when a market is first initialized. This is required since there is no previous rate to reference."
        }
      },
      "updateInterestRateCurve(uint16,uint8[],(uint8,uint8,uint8,uint8,uint8,uint8,uint8,uint8)[])": {
        "details": "emit:UpdateInterestRateCurve",
        "notice": "Updates the interest rate curve parameters that will take effect after the next market initialization.",
        "params": {
          "currencyId": "the currency id to update",
          "marketIndices": "a list of market indices to update the settings for",
          "settings": "the settings for the interest rate curve that will be set on the next market initialization for the interest rate curve, corresponding to the marketIndices"
        }
      },
      "updateTokenCollateralParameters(uint16,uint8,uint8,uint8,uint8,uint8)": {
        "details": "emit:UpdateTokenCollateralParameters",
        "notice": "Updates collateralization parameters for an nToken",
        "params": {
          "cashWithholdingBuffer10BPS": "nToken residuals may be negative fCash (debt), in this case cash is withheld to transfer to accounts that take on the debt. This parameter denominates the discounted rate at which the cash will be withheld at for this purpose.",
          "currencyId": "the currency id that the nToken references",
          "liquidationHaircutPercentage": "a percentage of nToken present value (> pvHaircutPercentage and <= 100) at which liquidators will purchase nTokens during liquidation",
          "pvHaircutPercentage": "a percentage (< 100) that the present value of the nToken's assets will be valued at for the purposes of free collateral, relevant when accounts hold nTokens as collateral against debts.",
          "residualPurchaseIncentive10BPS": "nTokens will have residual amounts of fCash at the end of each quarter that are \"dead weight\" because they are at idiosyncratic maturities and do not contribute to actively providing liquidity. This parameter will incentivize market participants to purchase these residuals at a discount from the on chain oracle rate, denominated in 10 basis point increments. These residuals will be added back into nToken balances and will be used to provide liquidity upon the next market initialization.",
          "residualPurchaseTimeBufferHours": "an arbitrage opportunity is available by pushing markets in one direction before quarterly settlement to generate large residual balances that can be purchased at a discount. The time buffer here ensures that anyone attempting such an act would have to wait some number of hours (likely a few days) before they could attempt to purchase residuals, ensuring that the market could realign to rates where the arbitrage is no longer possible."
        }
      },
      "upgradeBeacon(uint8,address)": {
        "notice": "Allows Notional governance to upgrade various Beacon proxies external to the system"
      },
      "upgradeTo(address)": {
        "details": "Upgrade the implementation of the proxy to `newImplementation`. Calls {_authorizeUpgrade}. Emits an {Upgraded} event."
      },
      "upgradeToAndCall(address,bytes)": {
        "details": "Upgrade the implementation of the proxy to `newImplementation`, and subsequently execute the function call encoded in `data`. Calls {_authorizeUpgrade}. Emits an {Upgraded} event."
      }
    },
    "notice": "Governance methods can only be called by the governance contract",
    "version": 1
  },
  "opcodes": "PUSH1 0x80 PUSH1 0x40 MSTORE PUSH1 0x4 CALLDATASIZE LT PUSH3 0x152 JUMPI PUSH1 0x0 CALLDATALOAD PUSH1 0xE0 SHR DUP1 PUSH4 0x57F0E3E8 GT PUSH3 0xBB JUMPI DUP1 PUSH4 0xB242E534 GT PUSH3 0x79 JUMPI DUP1 PUSH4 0xB242E534 EQ PUSH3 0x38E JUMPI DUP1 PUSH4 0xB739ECDE EQ PUSH3 0x3B3 JUMPI DUP1 PUSH4 0xC572CAE4 EQ PUSH3 0x3D8 JUMPI DUP1 PUSH4 0xCFAAF474 EQ PUSH3 0x3FD JUMPI DUP1 PUSH4 0xE1D548E7 EQ PUSH3 0x422 JUMPI DUP1 PUSH4 0xFA17B5F1 EQ PUSH3 0x447 JUMPI PUSH3 0x152 JUMP JUMPDEST DUP1 PUSH4 0x57F0E3E8 EQ PUSH3 0x2EF JUMPI DUP1 PUSH4 0x744EC0EF EQ PUSH3 0x314 JUMPI DUP1 PUSH4 0x82463367 EQ PUSH3 0x339 JUMPI DUP1 PUSH4 0x8DA5CB5B EQ PUSH3 0x351 JUMPI DUP1 PUSH4 0x9F84960A EQ PUSH3 0x369 JUMPI PUSH3 0x152 JUMP JUMPDEST DUP1 PUSH4 0x3659CFE6 GT PUSH3 0x115 JUMPI DUP1 PUSH4 0x3659CFE6 EQ PUSH3 0x21D JUMPI DUP1 PUSH4 0x39F7CD70 EQ PUSH3 0x242 JUMPI DUP1 PUSH4 0x413F2C5F EQ PUSH3 0x267 JUMPI DUP1 PUSH4 0x4E62CF3D EQ PUSH3 0x28C JUMPI DUP1 PUSH4 0x4E71E0C8 EQ PUSH3 0x2C0 JUMPI DUP1 PUSH4 0x4F1EF286 EQ PUSH3 0x2D8 JUMPI PUSH3 0x152 JUMP JUMPDEST DUP1 PUSH4 0x13EABEBD EQ PUSH3 0x157 JUMPI DUP1 PUSH4 0x163903D5 EQ PUSH3 0x17E JUMPI DUP1 PUSH4 0x24A3D622 EQ PUSH3 0x1A3 JUMPI DUP1 PUSH4 0x3436A19C EQ PUSH3 0x1D3 JUMPI DUP1 PUSH4 0x3531A090 EQ PUSH3 0x1F8 JUMPI JUMPDEST PUSH1 0x0 DUP1 REVERT JUMPDEST CALLVALUE DUP1 ISZERO PUSH3 0x164 JUMPI PUSH1 0x0 DUP1 REVERT JUMPDEST POP PUSH3 0x17C PUSH3 0x176 CALLDATASIZE PUSH1 0x4 PUSH3 0x4448 JUMP JUMPDEST PUSH3 0x46C JUMP JUMPDEST STOP JUMPDEST CALLVALUE DUP1 ISZERO PUSH3 0x18B JUMPI PUSH1 0x0 DUP1 REVERT JUMPDEST POP PUSH3 0x17C PUSH3 0x19D CALLDATASIZE PUSH1 0x4 PUSH3 0x4B95 JUMP JUMPDEST PUSH3 0x5D4 JUMP JUMPDEST CALLVALUE DUP1 ISZERO PUSH3 0x1B0 JUMPI PUSH1 0x0 DUP1 REVERT JUMPDEST POP PUSH3 0x1BB PUSH3 0x65B JUMP JUMPDEST PUSH1 0x40 MLOAD PUSH3 0x1CA SWAP2 SWAP1 PUSH3 0x4CD4 JUMP JUMPDEST PUSH1 0x40 MLOAD DUP1 SWAP2 SUB SWAP1 RETURN JUMPDEST CALLVALUE DUP1 ISZERO PUSH3 0x1E0 JUMPI PUSH1 0x0 DUP1 REVERT JUMPDEST POP PUSH3 0x17C PUSH3 0x1F2 CALLDATASIZE PUSH1 0x4 PUSH3 0x4BC1 JUMP JUMPDEST PUSH3 0x66A JUMP JUMPDEST CALLVALUE DUP1 ISZERO PUSH3 0x205 JUMPI PUSH1 0x0 DUP1 REVERT JUMPDEST POP PUSH3 0x17C PUSH3 0x217 CALLDATASIZE PUSH1 0x4 PUSH3 0x4A06 JUMP JUMPDEST PUSH3 0x722 JUMP JUMPDEST CALLVALUE DUP1 ISZERO PUSH3 0x22A JUMPI PUSH1 0x0 DUP1 REVERT JUMPDEST POP PUSH3 0x17C PUSH3 0x23C CALLDATASIZE PUSH1 0x4 PUSH3 0x4239 JUMP JUMPDEST PUSH3 0x766 JUMP JUMPDEST CALLVALUE DUP1 ISZERO PUSH3 0x24F JUMPI PUSH1 0x0 DUP1 REVERT JUMPDEST POP PUSH3 0x17C PUSH3 0x261 CALLDATASIZE PUSH1 0x4 PUSH3 0x4A99 JUMP JUMPDEST PUSH3 0x791 JUMP JUMPDEST CALLVALUE DUP1 ISZERO PUSH3 0x274 JUMPI PUSH1 0x0 DUP1 REVERT JUMPDEST POP PUSH3 0x17C PUSH3 0x286 CALLDATASIZE PUSH1 0x4 PUSH3 0x4844 JUMP JUMPDEST PUSH3 0x7DC JUMP JUMPDEST CALLVALUE DUP1 ISZERO PUSH3 0x299 JUMPI PUSH1 0x0 DUP1 REVERT JUMPDEST POP PUSH3 0x2B1 PUSH3 0x2AB CALLDATASIZE PUSH1 0x4 PUSH3 0x461B JUMP JUMPDEST PUSH3 0x86E JUMP JUMPDEST PUSH1 0x40 MLOAD PUSH3 0x1CA SWAP2 SWAP1 PUSH3 0x515C JUMP JUMPDEST CALLVALUE DUP1 ISZERO PUSH3 0x2CD JUMPI PUSH1 0x0 DUP1 REVERT JUMPDEST POP PUSH3 0x17C PUSH3 0xBAC JUMP JUMPDEST PUSH3 0x17C PUSH3 0x2E9 CALLDATASIZE PUSH1 0x4 PUSH3 0x42ED JUMP JUMPDEST PUSH3 0xC57 JUMP JUMPDEST CALLVALUE DUP1 ISZERO PUSH3 0x2FC JUMPI PUSH1 0x0 DUP1 REVERT JUMPDEST POP PUSH3 0x17C PUSH3 0x30E CALLDATASIZE PUSH1 0x4 PUSH3 0x4A24 JUMP JUMPDEST PUSH3 0xC70 JUMP JUMPDEST CALLVALUE DUP1 ISZERO PUSH3 0x321 JUMPI PUSH1 0x0 DUP1 REVERT JUMPDEST POP PUSH3 0x17C PUSH3 0x333 CALLDATASIZE PUSH1 0x4 PUSH3 0x4277 JUMP JUMPDEST PUSH3 0xD7C JUMP JUMPDEST CALLVALUE DUP1 ISZERO PUSH3 0x346 JUMPI PUSH1 0x0 DUP1 REVERT JUMPDEST POP PUSH3 0x1BB PUSH3 0xE0E JUMP JUMPDEST CALLVALUE DUP1 ISZERO PUSH3 0x35E JUMPI PUSH1 0x0 DUP1 REVERT JUMPDEST POP PUSH3 0x1BB PUSH3 0xE1D JUMP JUMPDEST CALLVALUE DUP1 ISZERO PUSH3 0x376 JUMPI PUSH1 0x0 DUP1 REVERT JUMPDEST POP PUSH3 0x17C PUSH3 0x388 CALLDATASIZE PUSH1 0x4 PUSH3 0x4B65 JUMP JUMPDEST PUSH3 0xE33 JUMP JUMPDEST CALLVALUE DUP1 ISZERO PUSH3 0x39B JUMPI PUSH1 0x0 DUP1 REVERT JUMPDEST POP PUSH3 0x17C PUSH3 0x3AD CALLDATASIZE PUSH1 0x4 PUSH3 0x42B4 JUMP JUMPDEST PUSH3 0xE83 JUMP JUMPDEST CALLVALUE DUP1 ISZERO PUSH3 0x3C0 JUMPI PUSH1 0x0 DUP1 REVERT JUMPDEST POP PUSH3 0x17C PUSH3 0x3D2 CALLDATASIZE PUSH1 0x4 PUSH3 0x4AC9 JUMP JUMPDEST PUSH3 0xF83 JUMP JUMPDEST CALLVALUE DUP1 ISZERO PUSH3 0x3E5 JUMPI PUSH1 0x0 DUP1 REVERT JUMPDEST POP PUSH3 0x17C PUSH3 0x3F7 CALLDATASIZE PUSH1 0x4 PUSH3 0x497C JUMP JUMPDEST PUSH3 0x10EA JUMP JUMPDEST CALLVALUE DUP1 ISZERO PUSH3 0x40A JUMPI PUSH1 0x0 DUP1 REVERT JUMPDEST POP PUSH3 0x17C PUSH3 0x41C CALLDATASIZE PUSH1 0x4 PUSH3 0x4844 JUMP JUMPDEST PUSH3 0x1181 JUMP JUMPDEST CALLVALUE DUP1 ISZERO PUSH3 0x42F JUMPI PUSH1 0x0 DUP1 REVERT JUMPDEST POP PUSH3 0x17C PUSH3 0x441 CALLDATASIZE PUSH1 0x4 PUSH3 0x48CA JUMP JUMPDEST PUSH3 0x1204 JUMP JUMPDEST CALLVALUE DUP1 ISZERO PUSH3 0x454 JUMPI PUSH1 0x0 DUP1 REVERT JUMPDEST POP PUSH3 0x17C PUSH3 0x466 CALLDATASIZE PUSH1 0x4 PUSH3 0x42B4 JUMP JUMPDEST PUSH3 0x13F6 JUMP JUMPDEST PUSH1 0x0 SLOAD PUSH1 0x1 PUSH1 0x20 SHL SWAP1 DIV PUSH1 0x1 PUSH1 0x1 PUSH1 0xA0 SHL SUB AND CALLER EQ PUSH3 0x4A9 JUMPI PUSH1 0x40 MLOAD PUSH3 0x461BCD PUSH1 0xE5 SHL DUP2 MSTORE PUSH1 0x4 ADD PUSH3 0x4A0 SWAP1 PUSH3 0x4F9D JUMP JUMPDEST PUSH1 0x40 MLOAD DUP1 SWAP2 SUB SWAP1 REVERT JUMPDEST PUSH1 0x0 DUP1 DUP4 PUSH1 0x3 DUP2 GT ISZERO PUSH3 0x4B9 JUMPI INVALID JUMPDEST EQ ISZERO PUSH3 0x4DC JUMPI POP PUSH20 0xC4FD259B816D081C8BDD22D6BBD3495DB1573DB7 PUSH3 0x56D JUMP JUMPDEST PUSH1 0x1 DUP4 PUSH1 0x3 DUP2 GT ISZERO PUSH3 0x4EB JUMPI INVALID JUMPDEST EQ ISZERO PUSH3 0x50E JUMPI POP PUSH20 0x1F681977AF5392D9CA5572FB394BC4D12939A6A9 PUSH3 0x56D JUMP JUMPDEST PUSH1 0x2 DUP4 PUSH1 0x3 DUP2 GT ISZERO PUSH3 0x51D JUMPI INVALID JUMPDEST EQ ISZERO PUSH3 0x540 JUMPI POP PUSH20 0xDF08039C0AF34E34660AC7C2705C0DA953247640 PUSH3 0x56D JUMP JUMPDEST PUSH1 0x3 DUP4 PUSH1 0x3 DUP2 GT ISZERO PUSH3 0x54F JUMPI INVALID JUMPDEST EQ ISZERO PUSH3 0x152 JUMPI POP PUSH20 0xD676D720E4E8B14F545F9116F0CAD47AF32329DD JUMPDEST PUSH1 0x40 MLOAD PUSH4 0x1B2CE7F3 PUSH1 0xE1 SHL DUP2 MSTORE PUSH1 0x1 PUSH1 0x1 PUSH1 0xA0 SHL SUB DUP3 AND SWAP1 PUSH4 0x3659CFE6 SWAP1 PUSH3 0x59B SWAP1 DUP6 SWAP1 PUSH1 0x4 ADD PUSH3 0x4CD4 JUMP JUMPDEST PUSH1 0x0 PUSH1 0x40 MLOAD DUP1 DUP4 SUB DUP2 PUSH1 0x0 DUP8 DUP1 EXTCODESIZE ISZERO DUP1 ISZERO PUSH3 0x5B6 JUMPI PUSH1 0x0 DUP1 REVERT JUMPDEST POP GAS CALL ISZERO DUP1 ISZERO PUSH3 0x5CB JUMPI RETURNDATASIZE PUSH1 0x0 DUP1 RETURNDATACOPY RETURNDATASIZE PUSH1 0x0 REVERT JUMPDEST POP POP POP POP POP POP POP JUMP JUMPDEST PUSH1 0x0 SLOAD PUSH1 0x1 PUSH1 0x20 SHL SWAP1 DIV PUSH1 0x1 PUSH1 0x1 PUSH1 0xA0 SHL SUB AND CALLER EQ PUSH3 0x608 JUMPI PUSH1 0x40 MLOAD PUSH3 0x461BCD PUSH1 0xE5 SHL DUP2 MSTORE PUSH1 0x4 ADD PUSH3 0x4A0 SWAP1 PUSH3 0x4F9D JUMP JUMPDEST PUSH1 0x0 PUSH3 0x616 DUP4 DUP4 PUSH3 0x14A3 JUMP JUMPDEST SWAP1 POP DUP3 PUSH2 0xFFFF AND PUSH32 0xA1C5AEF47AF9497B93EC06E3639C5077CE0E79C7E47D2405854BEBF2297CBCDF DUP3 PUSH1 0x40 MLOAD PUSH3 0x64E SWAP2 SWAP1 PUSH3 0x51DB JUMP JUMPDEST PUSH1 0x40 MLOAD DUP1 SWAP2 SUB SWAP1 LOG2 POP POP POP JUMP JUMPDEST PUSH1 0x2 SLOAD PUSH1 0x1 PUSH1 0x1 PUSH1 0xA0 SHL SUB AND DUP2 JUMP JUMPDEST PUSH1 0x0 SLOAD PUSH1 0x1 PUSH1 0x20 SHL SWAP1 DIV PUSH1 0x1 PUSH1 0x1 PUSH1 0xA0 SHL SUB AND CALLER EQ PUSH3 0x69E JUMPI PUSH1 0x40 MLOAD PUSH3 0x461BCD PUSH1 0xE5 SHL DUP2 MSTORE PUSH1 0x4 ADD PUSH3 0x4A0 SWAP1 PUSH3 0x4F9D JUMP JUMPDEST PUSH3 0x6A9 DUP7 PUSH3 0x150F JUMP JUMPDEST PUSH1 0x0 PUSH3 0x6BA DUP8 PUSH2 0xFFFF AND PUSH3 0x154D JUMP JUMPDEST SWAP1 POP PUSH1 0x1 PUSH1 0x1 PUSH1 0xA0 SHL SUB DUP2 AND PUSH3 0x6D0 JUMPI PUSH1 0x0 DUP1 REVERT JUMPDEST PUSH3 0x6E0 DUP2 DUP8 DUP8 DUP8 DUP8 DUP8 PUSH3 0x157C JUMP JUMPDEST PUSH32 0xE3BFB18D6259BE9A43CD772D68C97FE6C61C35A17ACB12E047AD8C9698E40AEB DUP8 PUSH1 0x40 MLOAD PUSH3 0x711 SWAP2 SWAP1 PUSH3 0x515C JUMP JUMPDEST PUSH1 0x40 MLOAD DUP1 SWAP2 SUB SWAP1 LOG1 POP POP POP POP POP POP POP JUMP JUMPDEST PUSH1 0x0 SLOAD PUSH1 0x1 PUSH1 0x20 SHL SWAP1 DIV PUSH1 0x1 PUSH1 0x1 PUSH1 0xA0 SHL SUB AND CALLER EQ PUSH3 0x756 JUMPI PUSH1 0x40 MLOAD PUSH3 0x461BCD PUSH1 0xE5 SHL DUP2 MSTORE PUSH1 0x4 ADD PUSH3 0x4A0 SWAP1 PUSH3 0x4F9D JUMP JUMPDEST PUSH3 0x762 DUP3 DUP3 PUSH3 0x168A JUMP JUMPDEST POP POP JUMP JUMPDEST PUSH3 0x771 DUP2 PUSH3 0x16FA JUMP JUMPDEST PUSH3 0x78E DUP2 PUSH1 0x40 MLOAD DUP1 PUSH1 0x20 ADD PUSH1 0x40 MSTORE DUP1 PUSH1 0x0 DUP2 MSTORE POP PUSH1 0x0 PUSH3 0x17A1 JUMP JUMPDEST POP JUMP JUMPDEST PUSH1 0x0 SLOAD PUSH1 0x1 PUSH1 0x20 SHL SWAP1 DIV PUSH1 0x1 PUSH1 0x1 PUSH1 0xA0 SHL SUB AND CALLER EQ PUSH3 0x7C5 JUMPI PUSH1 0x40 MLOAD PUSH3 0x461BCD PUSH1 0xE5 SHL DUP2 MSTORE PUSH1 0x4 ADD PUSH3 0x4A0 SWAP1 PUSH3 0x4F9D JUMP JUMPDEST PUSH3 0x7D0 DUP3 PUSH3 0x150F JUMP JUMPDEST PUSH3 0x762 DUP3 DUP3 PUSH3 0x18E7 JUMP JUMPDEST PUSH1 0x0 SLOAD PUSH1 0x1 PUSH1 0x20 SHL SWAP1 DIV PUSH1 0x1 PUSH1 0x1 PUSH1 0xA0 SHL SUB AND CALLER EQ PUSH3 0x810 JUMPI PUSH1 0x40 MLOAD PUSH3 0x461BCD PUSH1 0xE5 SHL DUP2 MSTORE PUSH1 0x4 ADD PUSH3 0x4A0 SWAP1 PUSH3 0x4F9D JUMP JUMPDEST PUSH3 0x81B DUP6 PUSH3 0x150F JUMP JUMPDEST PUSH3 0x82E DUP6 PUSH2 0xFFFF AND DUP6 DUP6 DUP6 DUP6 PUSH3 0x1938 JUMP JUMPDEST PUSH32 0xFF9528B00F1B4A49AD8A5D2C82E5602C172EE7E42BC1F5B7D505A7581B438234 DUP6 PUSH1 0x40 MLOAD PUSH3 0x85F SWAP2 SWAP1 PUSH3 0x515C JUMP JUMPDEST PUSH1 0x40 MLOAD DUP1 SWAP2 SUB SWAP1 LOG1 POP POP POP POP POP JUMP JUMPDEST PUSH1 0x0 DUP1 SLOAD PUSH1 0x1 PUSH1 0x20 SHL SWAP1 DIV PUSH1 0x1 PUSH1 0x1 PUSH1 0xA0 SHL SUB AND CALLER EQ PUSH3 0x8A3 JUMPI PUSH1 0x40 MLOAD PUSH3 0x461BCD PUSH1 0xE5 SHL DUP2 MSTORE PUSH1 0x4 ADD PUSH3 0x4A0 SWAP1 PUSH3 0x4F9D JUMP JUMPDEST PUSH1 0x0 DUP1 SLOAD PUSH2 0xFFFF DUP1 DUP3 AND PUSH1 0x1 ADD SWAP1 DUP2 AND PUSH2 0xFFFF NOT SWAP1 SWAP3 AND DUP3 OR SWAP1 SWAP3 SSTORE PUSH2 0x3FFF LT ISZERO PUSH3 0x8CE JUMPI PUSH1 0x0 DUP1 REVERT JUMPDEST PUSH1 0x9 PUSH1 0x0 PUSH3 0x8E1 PUSH1 0x20 DUP16 ADD DUP16 PUSH3 0x4239 JUMP JUMPDEST PUSH1 0x1 PUSH1 0x1 PUSH1 0xA0 SHL SUB AND DUP2 MSTORE PUSH1 0x20 DUP2 ADD SWAP2 SWAP1 SWAP2 MSTORE PUSH1 0x40 ADD PUSH1 0x0 KECCAK256 SLOAD PUSH2 0xFFFF AND ISZERO PUSH3 0x90A JUMPI PUSH1 0x0 DUP1 REVERT JUMPDEST DUP1 PUSH1 0x9 PUSH1 0x0 DUP15 PUSH1 0x0 ADD PUSH1 0x20 DUP2 ADD SWAP1 PUSH3 0x924 SWAP2 SWAP1 PUSH3 0x4239 JUMP JUMPDEST PUSH1 0x1 PUSH1 0x1 PUSH1 0xA0 SHL SUB AND DUP2 MSTORE PUSH1 0x20 DUP2 ADD SWAP2 SWAP1 SWAP2 MSTORE PUSH1 0x40 ADD PUSH1 0x0 KECCAK256 DUP1 SLOAD PUSH2 0xFFFF NOT AND PUSH2 0xFFFF SWAP3 DUP4 AND OR SWAP1 SSTORE PUSH3 0x96B SWAP1 DUP3 AND PUSH3 0x965 CALLDATASIZE DUP16 SWAP1 SUB DUP16 ADD DUP16 PUSH3 0x47AA JUMP JUMPDEST PUSH3 0x1A7A JUMP JUMPDEST PUSH3 0x977 DUP2 DUP13 PUSH3 0x1CAD JUMP JUMPDEST PUSH3 0x983 DUP2 DUP11 PUSH3 0x1EBD JUMP JUMPDEST PUSH1 0x0 DUP10 PUSH1 0x1 PUSH1 0x1 PUSH1 0xA0 SHL SUB AND PUSH4 0xEF81F216 PUSH1 0x40 MLOAD DUP2 PUSH4 0xFFFFFFFF AND PUSH1 0xE0 SHL DUP2 MSTORE PUSH1 0x4 ADD PUSH1 0x40 DUP1 MLOAD DUP1 DUP4 SUB DUP2 PUSH1 0x0 DUP8 DUP1 EXTCODESIZE ISZERO DUP1 ISZERO PUSH3 0x9C0 JUMPI PUSH1 0x0 DUP1 REVERT JUMPDEST POP GAS CALL ISZERO DUP1 ISZERO PUSH3 0x9D5 JUMPI RETURNDATASIZE PUSH1 0x0 DUP1 RETURNDATACOPY RETURNDATASIZE PUSH1 0x0 REVERT JUMPDEST POP POP POP POP PUSH1 0x40 MLOAD RETURNDATASIZE PUSH1 0x1F NOT PUSH1 0x1F DUP3 ADD AND DUP3 ADD DUP1 PUSH1 0x40 MSTORE POP DUP2 ADD SWAP1 PUSH3 0x9FB SWAP2 SWAP1 PUSH3 0x4C22 JUMP JUMPDEST SWAP2 POP POP PUSH3 0xA28 DUP3 PUSH3 0xA0E DUP4 PUSH3 0x212C JUMP JUMPDEST PUSH3 0xA1F CALLDATASIZE DUP16 SWAP1 SUB DUP16 ADD DUP16 PUSH3 0x454C JUMP JUMPDEST DUP14 DUP14 DUP14 PUSH3 0x2147 JUMP JUMPDEST PUSH1 0x0 DUP3 DUP15 PUSH1 0x0 ADD PUSH1 0x20 DUP2 ADD SWAP1 PUSH3 0xA40 SWAP2 SWAP1 PUSH3 0x4239 JUMP JUMPDEST DUP10 DUP10 DUP10 DUP10 PUSH1 0x40 MLOAD PUSH1 0x24 ADD PUSH3 0xA5B SWAP7 SWAP6 SWAP5 SWAP4 SWAP3 SWAP2 SWAP1 PUSH3 0x5188 JUMP JUMPDEST PUSH1 0x40 DUP1 MLOAD PUSH1 0x1F NOT DUP2 DUP5 SUB ADD DUP2 MSTORE SWAP2 DUP2 MSTORE PUSH1 0x20 DUP3 ADD DUP1 MLOAD PUSH1 0x1 PUSH1 0x1 PUSH1 0xE0 SHL SUB AND PUSH4 0x54C938A7 PUSH1 0xE1 SHL OR SWAP1 MSTORE MLOAD SWAP1 SWAP2 POP PUSH1 0x0 SWAP1 PUSH20 0x1F681977AF5392D9CA5572FB394BC4D12939A6A9 SWAP1 DUP4 SWAP1 PUSH3 0xAAF SWAP1 PUSH3 0x4039 JUMP JUMPDEST PUSH3 0xABC SWAP3 SWAP2 SWAP1 PUSH3 0x4D03 JUMP JUMPDEST PUSH1 0x40 MLOAD DUP1 SWAP2 SUB SWAP1 PUSH1 0x0 CREATE DUP1 ISZERO DUP1 ISZERO PUSH3 0xAD9 JUMPI RETURNDATASIZE PUSH1 0x0 DUP1 RETURNDATACOPY RETURNDATASIZE PUSH1 0x0 REVERT JUMPDEST POP SWAP1 POP PUSH3 0xAEA DUP5 DUP3 PUSH1 0x1 PUSH3 0x234D JUMP JUMPDEST DUP11 ISZERO PUSH3 0xB54 JUMPI PUSH1 0x0 PUSH20 0xDF08039C0AF34E34660AC7C2705C0DA953247640 DUP4 PUSH1 0x40 MLOAD PUSH3 0xB17 SWAP1 PUSH3 0x4039 JUMP JUMPDEST PUSH3 0xB24 SWAP3 SWAP2 SWAP1 PUSH3 0x4D03 JUMP JUMPDEST PUSH1 0x40 MLOAD DUP1 SWAP2 SUB SWAP1 PUSH1 0x0 CREATE DUP1 ISZERO DUP1 ISZERO PUSH3 0xB41 JUMPI RETURNDATASIZE PUSH1 0x0 DUP1 RETURNDATACOPY RETURNDATASIZE PUSH1 0x0 REVERT JUMPDEST POP SWAP1 POP PUSH3 0xB52 DUP6 DUP3 PUSH1 0x0 PUSH3 0x234D JUMP JUMPDEST POP JUMPDEST PUSH3 0xB60 DUP5 DUP5 PUSH3 0x2408 JUMP JUMPDEST PUSH32 0x31404FF4A0F1116F17CFC89A376D7CB9CD8DBD8415E6AA24FDCB8E14E60D7142 DUP5 PUSH1 0x40 MLOAD PUSH3 0xB91 SWAP2 SWAP1 PUSH3 0x515C JUMP JUMPDEST PUSH1 0x40 MLOAD DUP1 SWAP2 SUB SWAP1 LOG1 POP SWAP2 SWAP14 SWAP13 POP POP POP POP POP POP POP POP POP POP POP POP POP JUMP JUMPDEST PUSH1 0xD SLOAD PUSH1 0x1 PUSH1 0x1 PUSH1 0xA0 SHL SUB AND CALLER DUP2 EQ PUSH3 0xBDA JUMPI PUSH1 0x40 MLOAD PUSH3 0x461BCD PUSH1 0xE5 SHL DUP2 MSTORE PUSH1 0x4 ADD PUSH3 0x4A0 SWAP1 PUSH3 0x5000 JUMP JUMPDEST PUSH1 0x0 DUP1 SLOAD PUSH1 0x40 MLOAD PUSH1 0x1 PUSH1 0x1 PUSH1 0xA0 SHL SUB DUP1 DUP6 AND SWAP4 PUSH1 0x1 PUSH1 0x20 SHL SWAP1 SWAP4 DIV AND SWAP2 PUSH32 0x8BE0079C531659141344CD1FD0A4F28419497F9722A3DAAFE3B4186F6B6457E0 SWAP2 LOG3 PUSH1 0x0 DUP1 SLOAD PUSH1 0x1 PUSH1 0x1 PUSH1 0xA0 SHL SUB SWAP1 SWAP3 AND PUSH1 0x1 PUSH1 0x20 SHL MUL PUSH5 0x100000000 PUSH1 0x1 PUSH1 0xC0 SHL SUB NOT SWAP1 SWAP3 AND SWAP2 SWAP1 SWAP2 OR SWAP1 SSTORE PUSH1 0xD DUP1 SLOAD PUSH1 0x1 PUSH1 0x1 PUSH1 0xA0 SHL SUB NOT AND SWAP1 SSTORE JUMP JUMPDEST PUSH3 0xC62 DUP3 PUSH3 0x16FA JUMP JUMPDEST PUSH3 0x762 DUP3 DUP3 PUSH1 0x1 PUSH3 0x17A1 JUMP JUMPDEST PUSH1 0x0 SLOAD PUSH1 0x1 PUSH1 0x20 SHL SWAP1 DIV PUSH1 0x1 PUSH1 0x1 PUSH1 0xA0 SHL SUB AND CALLER EQ PUSH3 0xCA4 JUMPI PUSH1 0x40 MLOAD PUSH3 0x461BCD PUSH1 0xE5 SHL DUP2 MSTORE PUSH1 0x4 ADD PUSH3 0x4A0 SWAP1 PUSH3 0x4F9D JUMP JUMPDEST PUSH3 0xCAF DUP6 PUSH3 0x2457 JUMP JUMPDEST PUSH1 0x0 PUSH3 0xCC0 DUP7 PUSH2 0xFFFF AND PUSH3 0x248E JUMP JUMPDEST DUP1 MLOAD PUSH1 0x40 MLOAD SWAP2 SWAP3 POP PUSH1 0x0 SWAP2 PUSH3 0xCE3 SWAP2 DUP10 SWAP2 DUP10 SWAP1 DUP10 SWAP1 DUP10 SWAP1 DUP10 SWAP1 PUSH1 0x24 ADD PUSH3 0x5188 JUMP JUMPDEST PUSH1 0x40 DUP1 MLOAD PUSH1 0x1F NOT DUP2 DUP5 SUB ADD DUP2 MSTORE SWAP2 DUP2 MSTORE PUSH1 0x20 DUP3 ADD DUP1 MLOAD PUSH1 0x1 PUSH1 0x1 PUSH1 0xE0 SHL SUB AND PUSH4 0x54C938A7 PUSH1 0xE1 SHL OR SWAP1 MSTORE MLOAD SWAP1 SWAP2 POP PUSH1 0x0 SWAP1 PUSH20 0xDF08039C0AF34E34660AC7C2705C0DA953247640 SWAP1 DUP4 SWAP1 PUSH3 0xD37 SWAP1 PUSH3 0x4039 JUMP JUMPDEST PUSH3 0xD44 SWAP3 SWAP2 SWAP1 PUSH3 0x4D03 JUMP JUMPDEST PUSH1 0x40 MLOAD DUP1 SWAP2 SUB SWAP1 PUSH1 0x0 CREATE DUP1 ISZERO DUP1 ISZERO PUSH3 0xD61 JUMPI RETURNDATASIZE PUSH1 0x0 DUP1 RETURNDATACOPY RETURNDATASIZE PUSH1 0x0 REVERT JUMPDEST POP SWAP1 POP PUSH3 0xD72 DUP9 DUP3 PUSH1 0x0 PUSH3 0x234D JUMP JUMPDEST POP POP POP POP POP POP POP POP JUMP JUMPDEST PUSH1 0x0 SLOAD PUSH1 0x1 PUSH1 0x20 SHL SWAP1 DIV PUSH1 0x1 PUSH1 0x1 PUSH1 0xA0 SHL SUB AND CALLER EQ PUSH3 0xDB0 JUMPI PUSH1 0x40 MLOAD PUSH3 0x461BCD PUSH1 0xE5 SHL DUP2 MSTORE PUSH1 0x4 ADD PUSH3 0x4A0 SWAP1 PUSH3 0x4F9D JUMP JUMPDEST PUSH1 0x1 DUP1 SLOAD PUSH1 0x1 PUSH1 0x1 PUSH1 0xA0 SHL SUB NOT SWAP1 DUP2 AND PUSH1 0x1 PUSH1 0x1 PUSH1 0xA0 SHL SUB DUP6 DUP2 AND SWAP2 DUP3 OR SWAP1 SWAP4 SSTORE PUSH1 0x2 DUP1 SLOAD SWAP1 SWAP3 AND SWAP3 DUP5 AND SWAP3 DUP4 OR SWAP1 SWAP2 SSTORE PUSH1 0x40 MLOAD PUSH32 0x792A598A7F3FB01623BBA2594035C736BA3D7EC06210F07D9D7EF036C4A22AC6 SWAP1 PUSH1 0x0 SWAP1 LOG3 POP POP JUMP JUMPDEST PUSH1 0x1 SLOAD PUSH1 0x1 PUSH1 0x1 PUSH1 0xA0 SHL SUB AND DUP2 JUMP JUMPDEST PUSH1 0x0 SLOAD PUSH1 0x1 PUSH1 0x20 SHL SWAP1 DIV PUSH1 0x1 PUSH1 0x1 PUSH1 0xA0 SHL SUB AND DUP2 JUMP JUMPDEST PUSH1 0x0 SLOAD PUSH1 0x1 PUSH1 0x20 SHL SWAP1 DIV PUSH1 0x1 PUSH1 0x1 PUSH1 0xA0 SHL SUB AND CALLER EQ PUSH3 0xE67 JUMPI PUSH1 0x40 MLOAD PUSH3 0x461BCD PUSH1 0xE5 SHL DUP2 MSTORE PUSH1 0x4 ADD PUSH3 0x4A0 SWAP1 PUSH3 0x4F9D JUMP JUMPDEST PUSH3 0x762 DUP3 PUSH3 0xE7D CALLDATASIZE DUP5 SWAP1 SUB DUP5 ADD DUP5 PUSH3 0x454C JUMP JUMPDEST PUSH3 0x24AB JUMP JUMPDEST PUSH1 0x0 SLOAD PUSH1 0x1 PUSH1 0x20 SHL SWAP1 DIV PUSH1 0x1 PUSH1 0x1 PUSH1 0xA0 SHL SUB AND CALLER EQ PUSH3 0xEB7 JUMPI PUSH1 0x40 MLOAD PUSH3 0x461BCD PUSH1 0xE5 SHL DUP2 MSTORE PUSH1 0x4 ADD PUSH3 0x4A0 SWAP1 PUSH3 0x4F9D JUMP JUMPDEST DUP1 ISZERO PUSH3 0xF62 JUMPI PUSH1 0x1 PUSH1 0x1 PUSH1 0xA0 SHL SUB DUP3 AND PUSH3 0xEE7 JUMPI PUSH1 0x40 MLOAD PUSH3 0x461BCD PUSH1 0xE5 SHL DUP2 MSTORE PUSH1 0x4 ADD PUSH3 0x4A0 SWAP1 PUSH3 0x4E6C JUMP JUMPDEST PUSH1 0x0 DUP1 SLOAD PUSH1 0x40 MLOAD PUSH1 0x1 PUSH1 0x1 PUSH1 0xA0 SHL SUB DUP1 DUP7 AND SWAP4 PUSH1 0x1 PUSH1 0x20 SHL SWAP1 SWAP4 DIV AND SWAP2 PUSH32 0x8BE0079C531659141344CD1FD0A4F28419497F9722A3DAAFE3B4186F6B6457E0 SWAP2 LOG3 PUSH1 0x0 DUP1 SLOAD PUSH5 0x100000000 PUSH1 0x1 PUSH1 0xC0 SHL SUB NOT AND PUSH1 0x1 PUSH1 0x20 SHL PUSH1 0x1 PUSH1 0x1 PUSH1 0xA0 SHL SUB DUP6 AND MUL OR SWAP1 SSTORE PUSH1 0xD DUP1 SLOAD PUSH1 0x1 PUSH1 0x1 PUSH1 0xA0 SHL SUB NOT AND SWAP1 SSTORE PUSH3 0x762 JUMP JUMPDEST PUSH1 0xD DUP1 SLOAD PUSH1 0x1 PUSH1 0x1 PUSH1 0xA0 SHL SUB DUP5 AND PUSH1 0x1 PUSH1 0x1 PUSH1 0xA0 SHL SUB NOT SWAP1 SWAP2 AND OR SWAP1 SSTORE POP POP JUMP JUMPDEST PUSH1 0x0 SLOAD PUSH1 0x1 PUSH1 0x20 SHL SWAP1 DIV PUSH1 0x1 PUSH1 0x1 PUSH1 0xA0 SHL SUB AND CALLER EQ PUSH3 0xFB7 JUMPI PUSH1 0x40 MLOAD PUSH3 0x461BCD PUSH1 0xE5 SHL DUP2 MSTORE PUSH1 0x4 ADD PUSH3 0x4A0 SWAP1 PUSH3 0x4F9D JUMP JUMPDEST PUSH3 0xFC2 DUP7 PUSH3 0x150F JUMP JUMPDEST PUSH3 0xFCE DUP7 DUP7 PUSH3 0x18E7 JUMP JUMPDEST PUSH1 0x0 PUSH3 0xFDF DUP8 PUSH2 0xFFFF AND PUSH3 0x248E JUMP JUMPDEST SWAP1 POP PUSH3 0xFEC DUP8 PUSH3 0x24F7 JUMP JUMPDEST PUSH3 0xFF6 JUMPI PUSH1 0x0 DUP1 REVERT JUMPDEST DUP1 MLOAD PUSH1 0x40 MLOAD PUSH1 0x0 SWAP2 PUSH3 0x1017 SWAP2 DUP11 SWAP2 SWAP1 DUP10 SWAP1 DUP10 SWAP1 DUP10 SWAP1 DUP10 SWAP1 PUSH1 0x24 ADD PUSH3 0x5188 JUMP JUMPDEST PUSH1 0x40 DUP1 MLOAD PUSH1 0x1F NOT DUP2 DUP5 SUB ADD DUP2 MSTORE SWAP2 DUP2 MSTORE PUSH1 0x20 DUP3 ADD DUP1 MLOAD PUSH1 0x1 PUSH1 0x1 PUSH1 0xE0 SHL SUB AND PUSH4 0x54C938A7 PUSH1 0xE1 SHL OR SWAP1 MSTORE MLOAD SWAP1 SWAP2 POP PUSH1 0x0 SWAP1 PUSH20 0xC4FD259B816D081C8BDD22D6BBD3495DB1573DB7 SWAP1 DUP4 SWAP1 PUSH3 0x106B SWAP1 PUSH3 0x4039 JUMP JUMPDEST PUSH3 0x1078 SWAP3 SWAP2 SWAP1 PUSH3 0x4D03 JUMP JUMPDEST PUSH1 0x40 MLOAD DUP1 SWAP2 SUB SWAP1 PUSH1 0x0 CREATE DUP1 ISZERO DUP1 ISZERO PUSH3 0x1095 JUMPI RETURNDATASIZE PUSH1 0x0 DUP1 RETURNDATACOPY RETURNDATASIZE PUSH1 0x0 REVERT JUMPDEST POP SWAP1 POP PUSH3 0x10A4 DUP10 DUP3 PUSH3 0x252A JUMP JUMPDEST PUSH32 0x6793810FDF58CB4C6E0EE40E4B03EB1075B7CBBB55C34379B918873241972AEA DUP10 DUP3 PUSH1 0x40 MLOAD PUSH3 0x10D7 SWAP3 SWAP2 SWAP1 PUSH3 0x516B JUMP JUMPDEST PUSH1 0x40 MLOAD DUP1 SWAP2 SUB SWAP1 LOG1 POP POP POP POP POP POP POP POP POP JUMP JUMPDEST PUSH1 0x0 SLOAD PUSH1 0x1 PUSH1 0x20 SHL SWAP1 DIV PUSH1 0x1 PUSH1 0x1 PUSH1 0xA0 SHL SUB AND CALLER EQ PUSH3 0x111E JUMPI PUSH1 0x40 MLOAD PUSH3 0x461BCD PUSH1 0xE5 SHL DUP2 MSTORE PUSH1 0x4 ADD PUSH3 0x4A0 SWAP1 PUSH3 0x4F9D JUMP JUMPDEST PUSH3 0x1129 DUP7 PUSH3 0x150F JUMP JUMPDEST PUSH3 0x1179 DUP7 PUSH1 0x40 MLOAD DUP1 PUSH1 0xC0 ADD PUSH1 0x40 MSTORE DUP1 DUP9 PUSH1 0x1 PUSH1 0x1 PUSH1 0xA0 SHL SUB AND DUP2 MSTORE PUSH1 0x20 ADD PUSH1 0x0 PUSH1 0xFF AND DUP2 MSTORE PUSH1 0x20 ADD DUP8 ISZERO ISZERO DUP2 MSTORE PUSH1 0x20 ADD DUP7 PUSH1 0xFF AND DUP2 MSTORE PUSH1 0x20 ADD DUP6 PUSH1 0xFF AND DUP2 MSTORE PUSH1 0x20 ADD DUP5 PUSH1 0xFF AND DUP2 MSTORE POP PUSH3 0x1CAD JUMP JUMPDEST POP POP POP POP POP POP JUMP JUMPDEST PUSH1 0x0 SLOAD PUSH1 0x1 PUSH1 0x20 SHL SWAP1 DIV PUSH1 0x1 PUSH1 0x1 PUSH1 0xA0 SHL SUB AND CALLER EQ PUSH3 0x11B5 JUMPI PUSH1 0x40 MLOAD PUSH3 0x461BCD PUSH1 0xE5 SHL DUP2 MSTORE PUSH1 0x4 ADD PUSH3 0x4A0 SWAP1 PUSH3 0x4F9D JUMP JUMPDEST PUSH3 0x11C0 DUP6 PUSH3 0x150F JUMP JUMPDEST PUSH3 0x11D3 DUP6 PUSH2 0xFFFF AND DUP6 DUP6 DUP6 DUP6 PUSH3 0x2604 JUMP JUMPDEST PUSH32 0x6E2F98678675DA049B2CD990D6F467AAC69D623FF4ECDD26A5D42F184A69D342 DUP6 PUSH1 0x40 MLOAD PUSH3 0x85F SWAP2 SWAP1 PUSH3 0x515C JUMP JUMPDEST PUSH1 0x0 SLOAD PUSH1 0x1 PUSH1 0x20 SHL SWAP1 DIV PUSH1 0x1 PUSH1 0x1 PUSH1 0xA0 SHL SUB AND CALLER EQ PUSH3 0x1238 JUMPI PUSH1 0x40 MLOAD PUSH3 0x461BCD PUSH1 0xE5 SHL DUP2 MSTORE PUSH1 0x4 ADD PUSH3 0x4A0 SWAP1 PUSH3 0x4F9D JUMP JUMPDEST PUSH3 0x1243 DUP6 PUSH3 0x150F JUMP JUMPDEST PUSH1 0x0 PUSH3 0x1254 DUP7 PUSH2 0xFFFF AND PUSH3 0x2766 JUMP JUMPDEST SWAP1 POP DUP4 DUP3 EQ PUSH3 0x1263 JUMPI PUSH1 0x0 DUP1 REVERT JUMPDEST PUSH1 0x0 JUMPDEST DUP5 DUP2 LT ISZERO PUSH3 0x5CB JUMPI DUP6 DUP6 DUP3 DUP2 DUP2 LT PUSH3 0x127C JUMPI INVALID JUMPDEST SWAP1 POP PUSH1 0x20 MUL ADD PUSH1 0x20 DUP2 ADD SWAP1 PUSH3 0x1293 SWAP2 SWAP1 PUSH3 0x4C6C JUMP JUMPDEST PUSH1 0xFF AND PUSH1 0x0 LT PUSH3 0x12A3 JUMPI PUSH1 0x0 DUP1 REVERT JUMPDEST DUP2 PUSH1 0xFF AND DUP7 DUP7 DUP4 DUP2 DUP2 LT PUSH3 0x12B4 JUMPI INVALID JUMPDEST SWAP1 POP PUSH1 0x20 MUL ADD PUSH1 0x20 DUP2 ADD SWAP1 PUSH3 0x12CB SWAP2 SWAP1 PUSH3 0x4C6C JUMP JUMPDEST PUSH1 0xFF AND GT ISZERO PUSH3 0x12DA JUMPI PUSH1 0x0 DUP1 REVERT JUMPDEST DUP1 ISZERO PUSH3 0x133D JUMPI DUP6 DUP6 DUP3 DUP2 DUP2 LT PUSH3 0x12EE JUMPI INVALID JUMPDEST SWAP1 POP PUSH1 0x20 MUL ADD PUSH1 0x20 DUP2 ADD SWAP1 PUSH3 0x1305 SWAP2 SWAP1 PUSH3 0x4C6C JUMP JUMPDEST PUSH1 0xFF AND DUP7 DUP7 PUSH1 0x1 DUP5 SUB DUP2 DUP2 LT PUSH3 0x1318 JUMPI INVALID JUMPDEST SWAP1 POP PUSH1 0x20 MUL ADD PUSH1 0x20 DUP2 ADD SWAP1 PUSH3 0x132F SWAP2 SWAP1 PUSH3 0x4C6C JUMP JUMPDEST PUSH1 0xFF AND LT PUSH3 0x133D JUMPI PUSH1 0x0 DUP1 REVERT JUMPDEST PUSH3 0x1395 DUP8 DUP8 DUP8 DUP5 DUP2 DUP2 LT PUSH3 0x134F JUMPI INVALID JUMPDEST SWAP1 POP PUSH1 0x20 MUL ADD PUSH1 0x20 DUP2 ADD SWAP1 PUSH3 0x1366 SWAP2 SWAP1 PUSH3 0x4C6C JUMP JUMPDEST PUSH1 0xFF AND DUP7 DUP7 DUP6 DUP2 DUP2 LT PUSH3 0x1376 JUMPI INVALID JUMPDEST SWAP1 POP PUSH2 0x100 MUL ADD DUP1 CALLDATASIZE SUB DUP2 ADD SWAP1 PUSH3 0x138F SWAP2 SWAP1 PUSH3 0x454C JUMP JUMPDEST PUSH3 0x277E JUMP JUMPDEST DUP6 DUP6 DUP3 DUP2 DUP2 LT PUSH3 0x13A2 JUMPI INVALID JUMPDEST SWAP1 POP PUSH1 0x20 MUL ADD PUSH1 0x20 DUP2 ADD SWAP1 PUSH3 0x13B9 SWAP2 SWAP1 PUSH3 0x4C6C JUMP JUMPDEST PUSH1 0xFF AND DUP8 PUSH2 0xFFFF AND PUSH32 0x3E4A0F68027373459F0BDFF08DFB4C876EE3E2FB800EE3161C0670532F4EC3A4 PUSH1 0x40 MLOAD PUSH1 0x40 MLOAD DUP1 SWAP2 SUB SWAP1 LOG3 PUSH1 0x1 ADD PUSH3 0x1266 JUMP JUMPDEST PUSH1 0x0 SLOAD PUSH1 0x1 PUSH1 0x20 SHL SWAP1 DIV PUSH1 0x1 PUSH1 0x1 PUSH1 0xA0 SHL SUB AND CALLER EQ PUSH3 0x142A JUMPI PUSH1 0x40 MLOAD PUSH3 0x461BCD PUSH1 0xE5 SHL DUP2 MSTORE PUSH1 0x4 ADD PUSH3 0x4A0 SWAP1 PUSH3 0x4F9D JUMP JUMPDEST PUSH3 0x1435 DUP3 PUSH3 0x2803 JUMP JUMPDEST PUSH3 0x143F JUMPI PUSH1 0x0 DUP1 REVERT JUMPDEST PUSH1 0x1 PUSH1 0x1 PUSH1 0xA0 SHL SUB DUP3 AND PUSH1 0x0 SWAP1 DUP2 MSTORE PUSH1 0x8 PUSH1 0x20 MSTORE PUSH1 0x40 SWAP1 DUP2 SWAP1 KECCAK256 DUP1 SLOAD PUSH1 0xFF NOT AND DUP4 ISZERO ISZERO OR SWAP1 SSTORE MLOAD PUSH32 0xCCF663AAE81733293DCFCF2A91DA8C6F0E7BA8089B34EB4FD5760DD8FD605BD8 SWAP1 PUSH3 0x1497 SWAP1 DUP5 SWAP1 DUP5 SWAP1 PUSH3 0x4CE8 JUMP JUMPDEST PUSH1 0x40 MLOAD DUP1 SWAP2 SUB SWAP1 LOG1 POP POP JUMP JUMPDEST PUSH1 0x0 DUP1 PUSH3 0x14B0 PUSH3 0x2809 JUMP JUMPDEST PUSH1 0x0 DUP6 PUSH2 0xFFFF AND DUP2 MSTORE PUSH1 0x20 ADD SWAP1 DUP2 MSTORE PUSH1 0x20 ADD PUSH1 0x0 KECCAK256 SWAP1 POP PUSH3 0x14D2 DUP4 PUSH3 0x2818 JUMP JUMPDEST PUSH1 0x1 DUP3 ADD DUP1 SLOAD PUSH4 0xFFFFFFFF PUSH1 0x58 SHL NOT AND PUSH1 0x1 PUSH1 0x58 SHL PUSH4 0xFFFFFFFF SWAP4 DUP5 AND DUP2 MUL SWAP2 SWAP1 SWAP2 OR SWAP2 DUP3 SWAP1 SSTORE PUSH3 0x1507 SWAP3 SWAP2 DIV AND PUSH3 0x2846 JUMP JUMPDEST SWAP5 SWAP4 POP POP POP POP JUMP JUMPDEST DUP1 PUSH2 0xFFFF AND PUSH1 0x0 LT DUP1 ISZERO PUSH3 0x152E JUMPI POP PUSH1 0x0 SLOAD PUSH2 0xFFFF SWAP1 DUP2 AND SWAP1 DUP3 AND GT ISZERO JUMPDEST PUSH3 0x78E JUMPI PUSH1 0x40 MLOAD PUSH3 0x461BCD PUSH1 0xE5 SHL DUP2 MSTORE PUSH1 0x4 ADD PUSH3 0x4A0 SWAP1 PUSH3 0x5065 JUMP JUMPDEST PUSH1 0x0 DUP1 PUSH3 0x155A PUSH3 0x2854 JUMP JUMPDEST PUSH1 0x0 DUP5 DUP2 MSTORE PUSH1 0x20 SWAP2 SWAP1 SWAP2 MSTORE PUSH1 0x40 SWAP1 KECCAK256 SLOAD PUSH1 0x1 PUSH1 0x1 PUSH1 0xA0 SHL SUB AND SWAP2 POP POP JUMPDEST SWAP2 SWAP1 POP JUMP JUMPDEST PUSH1 0x0 PUSH3 0x1588 PUSH3 0x2863 JUMP JUMPDEST PUSH1 0x1 PUSH1 0x1 PUSH1 0xA0 SHL SUB DUP9 AND PUSH1 0x0 SWAP1 DUP2 MSTORE PUSH1 0x20 DUP3 SWAP1 MSTORE PUSH1 0x40 SWAP1 KECCAK256 SWAP1 SWAP2 POP PUSH1 0x64 PUSH1 0xFF DUP5 AND SGT ISZERO PUSH3 0x15CA JUMPI PUSH1 0x40 MLOAD PUSH3 0x461BCD PUSH1 0xE5 SHL DUP2 MSTORE PUSH1 0x4 ADD PUSH3 0x4A0 SWAP1 PUSH3 0x4E43 JUMP JUMPDEST DUP3 PUSH1 0xFF AND DUP7 PUSH1 0xFF AND LT PUSH3 0x15F2 JUMPI PUSH1 0x40 MLOAD PUSH3 0x461BCD PUSH1 0xE5 SHL DUP2 MSTORE PUSH1 0x4 ADD PUSH3 0x4A0 SWAP1 PUSH3 0x5130 JUMP JUMPDEST DUP4 PUSH1 0xFF AND DUP8 PUSH1 0xFF AND GT ISZERO PUSH3 0x161B JUMPI PUSH1 0x40 MLOAD PUSH3 0x461BCD PUSH1 0xE5 SHL DUP2 MSTORE PUSH1 0x4 ADD PUSH3 0x4A0 SWAP1 PUSH3 0x4E9B JUMP JUMPDEST DUP1 SLOAD PUSH5 0xFFFFFFFFFF PUSH1 0x58 SHL NOT AND PUSH1 0x1 PUSH1 0x58 SHL PUSH1 0xF8 SWAP5 SWAP1 SWAP5 SHL PUSH1 0x1 PUSH1 0x1 PUSH1 0xF8 SHL SUB NOT AND PUSH1 0xF0 SWAP6 SWAP1 SWAP6 SHL PUSH1 0xFF PUSH1 0xF0 SHL AND PUSH1 0xE8 SWAP7 SWAP1 SWAP7 SHL PUSH1 0xFF PUSH1 0xE8 SHL AND PUSH1 0xE0 SWAP8 SWAP1 SWAP8 SHL PUSH1 0xFF PUSH1 0xE0 SHL AND PUSH1 0xFF PUSH1 0xD8 SHL PUSH1 0xD8 SWAP10 DUP11 SHL AND OR SWAP7 SWAP1 SWAP7 OR SWAP5 SWAP1 SWAP5 OR SWAP3 SWAP1 SWAP3 OR SWAP1 SWAP5 SHR SWAP4 SWAP1 SWAP4 MUL SWAP2 SWAP1 SWAP2 OR SWAP1 SSTORE POP POP JUMP JUMPDEST PUSH1 0x0 PUSH3 0x1696 PUSH3 0x2872 JUMP JUMPDEST PUSH2 0xFFFF DUP5 AND PUSH1 0x0 DUP2 DUP2 MSTORE PUSH1 0x20 SWAP3 SWAP1 SWAP3 MSTORE PUSH1 0x40 SWAP2 DUP3 SWAP1 KECCAK256 DUP1 SLOAD PUSH1 0x1 PUSH1 0x1 PUSH1 0xA0 SHL SUB NOT AND PUSH1 0x1 PUSH1 0x1 PUSH1 0xA0 SHL SUB DUP7 AND OR DUP2 SSTORE SWAP2 MLOAD SWAP2 SWAP3 POP SWAP1 PUSH32 0x870041665F4908D4B05DB2C67D9D8735D37EC80A0F5F9286CE37E315B460682F SWAP1 PUSH3 0x64E SWAP1 DUP6 SWAP1 PUSH3 0x4CD4 JUMP JUMPDEST PUSH1 0x0 SLOAD PUSH1 0x1 PUSH1 0x20 SHL SWAP1 DIV PUSH1 0x1 PUSH1 0x1 PUSH1 0xA0 SHL SUB AND CALLER EQ DUP1 PUSH3 0x173E JUMPI POP PUSH1 0x2 SLOAD PUSH1 0x1 PUSH1 0x1 PUSH1 0xA0 SHL SUB AND CALLER EQ DUP1 ISZERO PUSH3 0x173E JUMPI POP PUSH1 0x1 SLOAD PUSH1 0x1 PUSH1 0x1 PUSH1 0xA0 SHL SUB DUP3 DUP2 AND SWAP2 AND EQ JUMPDEST PUSH3 0x175D JUMPI PUSH1 0x40 MLOAD PUSH3 0x461BCD PUSH1 0xE5 SHL DUP2 MSTORE PUSH1 0x4 ADD PUSH3 0x4A0 SWAP1 PUSH3 0x4FD2 JUMP JUMPDEST PUSH1 0x1 SLOAD PUSH1 0x1 PUSH1 0x1 PUSH1 0xA0 SHL SUB DUP3 DUP2 AND SWAP2 AND EQ ISZERO PUSH3 0x78E JUMPI PUSH3 0x177E PUSH3 0x2881 JUMP JUMPDEST PUSH1 0x3 DUP1 SLOAD PUSH1 0x1 PUSH1 0x1 PUSH1 0xA0 SHL SUB NOT AND PUSH1 0x1 PUSH1 0x1 PUSH1 0xA0 SHL SUB SWAP3 SWAP1 SWAP3 AND SWAP2 SWAP1 SWAP2 OR SWAP1 SSTORE POP JUMP JUMPDEST PUSH1 0x0 PUSH3 0x17AD PUSH3 0x2881 JUMP JUMPDEST SWAP1 POP PUSH3 0x17BA DUP5 PUSH3 0x28BD JUMP JUMPDEST PUSH1 0x0 DUP4 MLOAD GT DUP1 PUSH3 0x17C8 JUMPI POP DUP2 JUMPDEST ISZERO PUSH3 0x17DC JUMPI PUSH3 0x17DA DUP5 DUP5 PUSH3 0x2952 JUMP JUMPDEST POP JUMPDEST PUSH1 0x0 PUSH3 0x1809 PUSH32 0x4910FDFA16FED3260ED0E7147F7CC6DA11A60208B5B9406D12A635614FFD9143 PUSH3 0x2981 JUMP JUMPDEST DUP1 SLOAD SWAP1 SWAP2 POP PUSH1 0xFF AND PUSH3 0x18E0 JUMPI DUP1 SLOAD PUSH1 0xFF NOT AND PUSH1 0x1 OR DUP2 SSTORE PUSH1 0x40 DUP1 MLOAD PUSH1 0x1 PUSH1 0x1 PUSH1 0xA0 SHL SUB DUP5 AND PUSH1 0x24 DUP1 DUP4 ADD SWAP2 SWAP1 SWAP2 MSTORE DUP3 MLOAD DUP1 DUP4 SUB SWAP1 SWAP2 ADD DUP2 MSTORE PUSH1 0x44 SWAP1 SWAP2 ADD SWAP1 SWAP2 MSTORE PUSH1 0x20 DUP2 ADD DUP1 MLOAD PUSH1 0x1 PUSH1 0x1 PUSH1 0xE0 SHL SUB AND PUSH4 0x1B2CE7F3 PUSH1 0xE1 SHL OR SWAP1 MSTORE PUSH3 0x1871 SWAP1 DUP7 SWAP1 PUSH3 0x2952 JUMP JUMPDEST POP DUP1 SLOAD PUSH1 0xFF NOT AND DUP2 SSTORE PUSH3 0x1884 PUSH3 0x2881 JUMP JUMPDEST PUSH1 0x1 PUSH1 0x1 PUSH1 0xA0 SHL SUB AND DUP3 PUSH1 0x1 PUSH1 0x1 PUSH1 0xA0 SHL SUB AND EQ PUSH3 0x18D5 JUMPI PUSH1 0x40 MLOAD PUSH3 0x461BCD PUSH1 0xE5 SHL DUP2 MSTORE PUSH1 0x4 ADD DUP1 DUP1 PUSH1 0x20 ADD DUP3 DUP2 SUB DUP3 MSTORE PUSH1 0x2F DUP2 MSTORE PUSH1 0x20 ADD DUP1 PUSH3 0x5BE0 PUSH1 0x2F SWAP2 CODECOPY PUSH1 0x40 ADD SWAP2 POP POP PUSH1 0x40 MLOAD DUP1 SWAP2 SUB SWAP1 REVERT JUMPDEST PUSH3 0x18E0 DUP6 PUSH3 0x2984 JUMP JUMPDEST POP POP POP POP POP JUMP JUMPDEST PUSH3 0x1907 PUSH2 0xFFFF DUP4 AND PUSH3 0x1901 CALLDATASIZE DUP5 SWAP1 SUB DUP5 ADD DUP5 PUSH3 0x446A JUMP JUMPDEST PUSH3 0x29C6 JUMP JUMPDEST PUSH32 0x8FD2367AAACA3606DEE299BBEF980DA42D4E906E355F28C3DD3A2F4D81D6B463 DUP3 PUSH1 0x40 MLOAD PUSH3 0x1497 SWAP2 SWAP1 PUSH3 0x515C JUMP JUMPDEST PUSH1 0x7 DUP4 GT ISZERO PUSH3 0x195C JUMPI PUSH1 0x40 MLOAD PUSH3 0x461BCD PUSH1 0xE5 SHL DUP2 MSTORE PUSH1 0x4 ADD PUSH3 0x4A0 SWAP1 PUSH3 0x4F2B JUMP JUMPDEST DUP1 DUP4 EQ PUSH3 0x197E JUMPI PUSH1 0x40 MLOAD PUSH3 0x461BCD PUSH1 0xE5 SHL DUP2 MSTORE PUSH1 0x4 ADD PUSH3 0x4A0 SWAP1 PUSH3 0x4DB9 JUMP JUMPDEST PUSH1 0x0 JUMPDEST DUP2 DUP2 LT ISZERO PUSH3 0x1A4D JUMPI DUP5 DUP5 DUP3 DUP2 DUP2 LT PUSH3 0x1997 JUMPI INVALID JUMPDEST SWAP1 POP PUSH1 0x20 MUL ADD PUSH1 0x20 DUP2 ADD SWAP1 PUSH3 0x19AE SWAP2 SWAP1 PUSH3 0x4C46 JUMP JUMPDEST PUSH4 0xFFFFFFFF AND ISZERO PUSH3 0x19BF JUMPI PUSH1 0x0 DUP1 REVERT JUMPDEST PUSH1 0x0 DUP4 DUP4 DUP4 DUP2 DUP2 LT PUSH3 0x19CE JUMPI INVALID JUMPDEST SWAP1 POP PUSH1 0x20 MUL ADD PUSH1 0x20 DUP2 ADD SWAP1 PUSH3 0x19E5 SWAP2 SWAP1 PUSH3 0x4C46 JUMP JUMPDEST PUSH4 0xFFFFFFFF AND GT DUP1 ISZERO PUSH3 0x1A25 JUMPI POP PUSH4 0x3B9ACA00 DUP4 DUP4 DUP4 DUP2 DUP2 LT PUSH3 0x1A06 JUMPI INVALID JUMPDEST SWAP1 POP PUSH1 0x20 MUL ADD PUSH1 0x20 DUP2 ADD SWAP1 PUSH3 0x1A1D SWAP2 SWAP1 PUSH3 0x4C46 JUMP JUMPDEST PUSH4 0xFFFFFFFF AND SLT JUMPDEST PUSH3 0x1A44 JUMPI PUSH1 0x40 MLOAD PUSH3 0x461BCD PUSH1 0xE5 SHL DUP2 MSTORE PUSH1 0x4 ADD PUSH3 0x4A0 SWAP1 PUSH3 0x5100 JUMP JUMPDEST PUSH1 0x1 ADD PUSH3 0x1981 JUMP JUMPDEST POP PUSH1 0x0 PUSH3 0x1A5A PUSH3 0x2B80 JUMP JUMPDEST PUSH1 0x0 DUP8 DUP2 MSTORE PUSH1 0x20 DUP3 SWAP1 MSTORE PUSH1 0x40 SWAP1 KECCAK256 SWAP1 SWAP2 POP PUSH3 0x5CB DUP2 DUP8 DUP8 DUP8 DUP8 PUSH3 0x2B8F JUMP JUMPDEST PUSH1 0x0 PUSH3 0x1A86 PUSH3 0x2C6E JUMP JUMPDEST SWAP1 POP PUSH1 0x3 DUP3 PUSH1 0x40 ADD MLOAD PUSH1 0x5 DUP2 GT ISZERO PUSH3 0x1A9B JUMPI INVALID JUMPDEST EQ DUP1 ISZERO PUSH3 0x1AA9 JUMPI POP PUSH1 0x1 DUP4 EQ JUMPDEST ISZERO PUSH3 0x1AED JUMPI PUSH1 0x0 DUP4 DUP2 MSTORE PUSH1 0x20 SWAP2 DUP3 MSTORE PUSH1 0x40 DUP1 DUP3 KECCAK256 PUSH1 0x1 DUP4 MSTORE SWAP1 SWAP3 MSTORE KECCAK256 DUP1 SLOAD PUSH1 0x1 PUSH1 0x1 PUSH1 0xB0 SHL SUB NOT AND PUSH1 0x3 PUSH1 0xA8 SHL OR PUSH1 0xFF PUSH1 0xB0 SHL NOT AND PUSH1 0x9 PUSH1 0xB1 SHL OR SWAP1 SSTORE PUSH3 0x762 JUMP JUMPDEST DUP2 MLOAD PUSH1 0x1 PUSH1 0x1 PUSH1 0xA0 SHL SUB AND PUSH3 0x1B17 JUMPI PUSH1 0x40 MLOAD PUSH3 0x461BCD PUSH1 0xE5 SHL DUP2 MSTORE PUSH1 0x4 ADD PUSH3 0x4A0 SWAP1 PUSH3 0x4E16 JUMP JUMPDEST PUSH1 0x0 PUSH3 0x1B26 DUP5 PUSH1 0x1 PUSH3 0x2C7D JUMP JUMPDEST DUP4 MLOAD DUP2 MLOAD SWAP2 SWAP3 POP PUSH1 0x1 PUSH1 0x1 PUSH1 0xA0 SHL SUB SWAP2 DUP3 AND SWAP2 AND EQ DUP1 PUSH3 0x1B4F JUMPI POP DUP1 MLOAD PUSH1 0x1 PUSH1 0x1 PUSH1 0xA0 SHL SUB AND ISZERO JUMPDEST PUSH3 0x1B6E JUMPI PUSH1 0x40 MLOAD PUSH3 0x461BCD PUSH1 0xE5 SHL DUP2 MSTORE PUSH1 0x4 ADD PUSH3 0x4A0 SWAP1 PUSH3 0x4EF4 JUMP JUMPDEST DUP3 PUSH1 0x60 ADD MLOAD PUSH1 0xFF AND PUSH1 0x0 LT DUP1 ISZERO PUSH3 0x1B8E JUMPI POP PUSH1 0x24 DUP4 PUSH1 0x60 ADD MLOAD PUSH1 0xFF AND GT ISZERO JUMPDEST PUSH3 0x1BAD JUMPI PUSH1 0x40 MLOAD PUSH3 0x461BCD PUSH1 0xE5 SHL DUP2 MSTORE PUSH1 0x4 ADD PUSH3 0x4A0 SWAP1 PUSH3 0x4EC6 JUMP JUMPDEST PUSH1 0x3 DUP4 PUSH1 0x40 ADD MLOAD PUSH1 0x5 DUP2 GT ISZERO PUSH3 0x1BC0 JUMPI INVALID JUMPDEST EQ ISZERO PUSH3 0x1BCC JUMPI PUSH1 0x0 DUP1 REVERT JUMPDEST PUSH1 0x0 DUP4 PUSH1 0x40 ADD MLOAD PUSH1 0x5 DUP2 GT ISZERO PUSH3 0x1BDF JUMPI INVALID JUMPDEST EQ PUSH3 0x1BEA JUMPI PUSH1 0x0 DUP1 REVERT JUMPDEST PUSH1 0x0 DUP5 DUP2 MSTORE PUSH1 0x20 DUP4 DUP2 MSTORE PUSH1 0x40 DUP1 DUP4 KECCAK256 PUSH1 0x1 DUP5 MSTORE DUP3 MSTORE SWAP2 DUP3 SWAP1 KECCAK256 DUP6 MLOAD DUP2 SLOAD SWAP3 DUP8 ADD MLOAD ISZERO ISZERO PUSH1 0x1 PUSH1 0xA0 SHL MUL PUSH1 0xFF PUSH1 0xA0 SHL NOT PUSH1 0x1 PUSH1 0x1 PUSH1 0xA0 SHL SUB SWAP1 SWAP3 AND PUSH1 0x1 PUSH1 0x1 PUSH1 0xA0 SHL SUB NOT SWAP1 SWAP5 AND SWAP4 SWAP1 SWAP4 OR AND SWAP2 SWAP1 SWAP2 OR DUP1 DUP3 SSTORE SWAP2 DUP6 ADD MLOAD DUP6 SWAP3 DUP3 SWAP1 PUSH1 0xFF PUSH1 0xA8 SHL NOT AND PUSH1 0x1 PUSH1 0xA8 SHL DUP4 PUSH1 0x5 DUP2 GT ISZERO PUSH3 0x1C5D JUMPI INVALID JUMPDEST MUL OR SWAP1 SSTORE POP PUSH1 0x60 DUP3 ADD MLOAD DUP2 SLOAD PUSH1 0x80 SWAP1 SWAP4 ADD MLOAD PUSH9 0xFFFFFFFFFFFFFFFFFF AND PUSH1 0x1 PUSH1 0xB8 SHL MUL PUSH1 0x1 PUSH1 0x1 PUSH1 0xB8 SHL SUB PUSH1 0xFF SWAP1 SWAP3 AND PUSH1 0x1 PUSH1 0xB0 SHL MUL PUSH1 0xFF PUSH1 0xB0 SHL NOT SWAP1 SWAP5 AND SWAP4 SWAP1 SWAP4 OR AND SWAP2 SWAP1 SWAP2 OR SWAP1 SSTORE POP POP POP POP JUMP JUMPDEST PUSH1 0x1 DUP3 PUSH2 0xFFFF AND EQ ISZERO PUSH3 0x1CCC JUMPI PUSH1 0x0 DUP2 MSTORE PUSH1 0x12 PUSH1 0x20 DUP3 ADD MSTORE PUSH3 0x1D63 JUMP JUMPDEST DUP1 MLOAD PUSH1 0x1 PUSH1 0x1 PUSH1 0xA0 SHL SUB AND PUSH3 0x1CE1 JUMPI PUSH1 0x0 DUP1 REVERT JUMPDEST DUP1 PUSH1 0x0 ADD MLOAD PUSH1 0x1 PUSH1 0x1 PUSH1 0xA0 SHL SUB AND PUSH4 0x313CE567 PUSH1 0x40 MLOAD DUP2 PUSH4 0xFFFFFFFF AND PUSH1 0xE0 SHL DUP2 MSTORE PUSH1 0x4 ADD PUSH1 0x20 PUSH1 0x40 MLOAD DUP1 DUP4 SUB DUP2 DUP7 DUP1 EXTCODESIZE ISZERO DUP1 ISZERO PUSH3 0x1D1F JUMPI PUSH1 0x0 DUP1 REVERT JUMPDEST POP GAS STATICCALL ISZERO DUP1 ISZERO PUSH3 0x1D34 JUMPI RETURNDATASIZE PUSH1 0x0 DUP1 RETURNDATACOPY RETURNDATASIZE PUSH1 0x0 REVERT JUMPDEST POP POP POP POP PUSH1 0x40 MLOAD RETURNDATASIZE PUSH1 0x1F NOT PUSH1 0x1F DUP3 ADD AND DUP3 ADD DUP1 PUSH1 0x40 MSTORE POP DUP2 ADD SWAP1 PUSH3 0x1D5A SWAP2 SWAP1 PUSH3 0x4C8B JUMP JUMPDEST PUSH1 0xFF AND PUSH1 0x20 DUP3 ADD MSTORE JUMPDEST PUSH1 0x64 DUP2 PUSH1 0x60 ADD MLOAD PUSH1 0xFF AND SLT ISZERO PUSH3 0x1D79 JUMPI PUSH1 0x0 DUP1 REVERT JUMPDEST PUSH1 0x64 DUP2 PUSH1 0x80 ADD MLOAD PUSH1 0xFF AND SGT ISZERO PUSH3 0x1D8F JUMPI PUSH1 0x0 DUP1 REVERT JUMPDEST PUSH1 0x64 DUP2 PUSH1 0xA0 ADD MLOAD PUSH1 0xFF AND SGT PUSH3 0x1DA4 JUMPI PUSH1 0x0 DUP1 REVERT JUMPDEST PUSH1 0x24 DUP2 PUSH1 0x20 ADD MLOAD PUSH1 0xFF AND GT ISZERO PUSH3 0x1DBA JUMPI PUSH1 0x0 DUP1 REVERT JUMPDEST PUSH1 0x0 PUSH3 0x1DC6 PUSH3 0x2D1C JUMP JUMPDEST PUSH2 0xFFFF DUP5 AND PUSH1 0x0 SWAP1 DUP2 MSTORE PUSH1 0x20 DUP3 DUP2 MSTORE PUSH1 0x40 SWAP2 DUP3 SWAP1 KECCAK256 DUP6 MLOAD DUP2 SLOAD SWAP3 DUP8 ADD MLOAD DUP8 DUP6 ADD MLOAD PUSH1 0x60 DUP10 ADD MLOAD PUSH1 0x80 DUP11 ADD MLOAD PUSH1 0xA0 DUP12 ADD MLOAD PUSH1 0x1 PUSH1 0x1 PUSH1 0xA0 SHL SUB NOT SWAP1 SWAP8 AND PUSH1 0x1 PUSH1 0x1 PUSH1 0xA0 SHL SUB SWAP1 SWAP6 AND SWAP5 SWAP1 SWAP5 OR PUSH1 0xFF PUSH1 0xA0 SHL NOT AND PUSH1 0x1 PUSH1 0xA0 SHL PUSH1 0xFF SWAP5 DUP6 AND MUL OR PUSH1 0xFF PUSH1 0xA8 SHL NOT AND PUSH1 0x1 PUSH1 0xA8 SHL SWAP3 ISZERO ISZERO SWAP3 SWAP1 SWAP3 MUL SWAP2 SWAP1 SWAP2 OR PUSH1 0xFF PUSH1 0xB0 SHL NOT AND PUSH1 0x1 PUSH1 0xB0 SHL SWAP2 DUP4 AND SWAP2 SWAP1 SWAP2 MUL OR PUSH1 0xFF PUSH1 0xB8 SHL NOT AND PUSH1 0x1 PUSH1 0xB8 SHL SWAP3 DUP3 AND SWAP3 SWAP1 SWAP3 MUL SWAP2 SWAP1 SWAP2 OR PUSH1 0xFF PUSH1 0xC0 SHL NOT AND PUSH1 0x1 PUSH1 0xC0 SHL SWAP2 SWAP1 SWAP4 AND MUL SWAP2 SWAP1 SWAP2 OR SWAP1 SSTORE MLOAD SWAP1 SWAP2 POP PUSH32 0x32DF9E03D26F91A7FA4D4A9E48C2038679570CDE31D5C7F979A04515E00A767D SWAP1 PUSH3 0x1EB0 SWAP1 DUP6 SWAP1 PUSH3 0x515C JUMP JUMPDEST PUSH1 0x40 MLOAD DUP1 SWAP2 SUB SWAP1 LOG1 POP POP POP JUMP JUMPDEST PUSH1 0x0 DUP2 PUSH1 0x1 PUSH1 0x1 PUSH1 0xA0 SHL SUB AND PUSH4 0xE79BF13B PUSH1 0x40 MLOAD DUP2 PUSH4 0xFFFFFFFF AND PUSH1 0xE0 SHL DUP2 MSTORE PUSH1 0x4 ADD PUSH1 0x0 PUSH1 0x40 MLOAD DUP1 DUP4 SUB DUP2 DUP7 DUP1 EXTCODESIZE ISZERO DUP1 ISZERO PUSH3 0x1EF9 JUMPI PUSH1 0x0 DUP1 REVERT JUMPDEST POP GAS STATICCALL ISZERO DUP1 ISZERO PUSH3 0x1F0E JUMPI RETURNDATASIZE PUSH1 0x0 DUP1 RETURNDATACOPY RETURNDATASIZE PUSH1 0x0 REVERT JUMPDEST POP POP POP POP PUSH1 0x40 MLOAD RETURNDATASIZE PUSH1 0x0 DUP3 RETURNDATACOPY PUSH1 0x1F RETURNDATASIZE SWAP1 DUP2 ADD PUSH1 0x1F NOT AND DUP3 ADD PUSH1 0x40 MSTORE PUSH3 0x1F38 SWAP2 SWAP1 DUP2 ADD SWAP1 PUSH3 0x4391 JUMP JUMPDEST SWAP1 POP PUSH1 0x0 DUP3 PUSH1 0x1 PUSH1 0x1 PUSH1 0xA0 SHL SUB AND PUSH4 0x6F307DC3 PUSH1 0x40 MLOAD DUP2 PUSH4 0xFFFFFFFF AND PUSH1 0xE0 SHL DUP2 MSTORE PUSH1 0x4 ADD PUSH1 0x20 PUSH1 0x40 MLOAD DUP1 DUP4 SUB DUP2 DUP7 DUP1 EXTCODESIZE ISZERO DUP1 ISZERO PUSH3 0x1F76 JUMPI PUSH1 0x0 DUP1 REVERT JUMPDEST POP GAS STATICCALL ISZERO DUP1 ISZERO PUSH3 0x1F8B JUMPI RETURNDATASIZE PUSH1 0x0 DUP1 RETURNDATACOPY RETURNDATASIZE PUSH1 0x0 REVERT JUMPDEST POP POP POP POP PUSH1 0x40 MLOAD RETURNDATASIZE PUSH1 0x1F NOT PUSH1 0x1F DUP3 ADD AND DUP3 ADD DUP1 PUSH1 0x40 MSTORE POP DUP2 ADD SWAP1 PUSH3 0x1FB1 SWAP2 SWAP1 PUSH3 0x4258 JUMP JUMPDEST SWAP1 POP PUSH1 0x0 PUSH1 0x1 DUP6 PUSH2 0xFFFF AND EQ PUSH3 0x204A JUMPI PUSH1 0x40 MLOAD PUSH4 0x70A08231 PUSH1 0xE0 SHL DUP2 MSTORE PUSH1 0x1 PUSH1 0x1 PUSH1 0xA0 SHL SUB DUP4 AND SWAP1 PUSH4 0x70A08231 SWAP1 PUSH3 0x1FF0 SWAP1 ADDRESS SWAP1 PUSH1 0x4 ADD PUSH3 0x4CD4 JUMP JUMPDEST PUSH1 0x20 PUSH1 0x40 MLOAD DUP1 DUP4 SUB DUP2 DUP7 DUP1 EXTCODESIZE ISZERO DUP1 ISZERO PUSH3 0x2009 JUMPI PUSH1 0x0 DUP1 REVERT JUMPDEST POP GAS STATICCALL ISZERO DUP1 ISZERO PUSH3 0x201E JUMPI RETURNDATASIZE PUSH1 0x0 DUP1 RETURNDATACOPY RETURNDATASIZE PUSH1 0x0 REVERT JUMPDEST POP POP POP POP PUSH1 0x40 MLOAD RETURNDATASIZE PUSH1 0x1F NOT PUSH1 0x1F DUP3 ADD AND DUP3 ADD DUP1 PUSH1 0x40 MSTORE POP DUP2 ADD SWAP1 PUSH3 0x2044 SWAP2 SWAP1 PUSH3 0x4C09 JUMP JUMPDEST PUSH3 0x204C JUMP JUMPDEST SELFBALANCE JUMPDEST SWAP1 POP PUSH3 0x205C DUP3 PUSH1 0x0 DUP4 PUSH3 0x2D2B JUMP JUMPDEST PUSH1 0x0 JUMPDEST DUP4 MLOAD DUP2 LT ISZERO PUSH3 0x1179 JUMPI DUP4 DUP2 DUP2 MLOAD DUP2 LT PUSH3 0x2076 JUMPI INVALID JUMPDEST PUSH1 0x20 MUL PUSH1 0x20 ADD ADD MLOAD PUSH1 0x1 PUSH1 0x1 PUSH1 0xA0 SHL SUB AND PUSH4 0x70A08231 ADDRESS PUSH1 0x40 MLOAD DUP3 PUSH4 0xFFFFFFFF AND PUSH1 0xE0 SHL DUP2 MSTORE PUSH1 0x4 ADD PUSH3 0x20AB SWAP2 SWAP1 PUSH3 0x4CD4 JUMP JUMPDEST PUSH1 0x20 PUSH1 0x40 MLOAD DUP1 DUP4 SUB DUP2 DUP7 DUP1 EXTCODESIZE ISZERO DUP1 ISZERO PUSH3 0x20C4 JUMPI PUSH1 0x0 DUP1 REVERT JUMPDEST POP GAS STATICCALL ISZERO DUP1 ISZERO PUSH3 0x20D9 JUMPI RETURNDATASIZE PUSH1 0x0 DUP1 RETURNDATACOPY RETURNDATASIZE PUSH1 0x0 REVERT JUMPDEST POP POP POP POP PUSH1 0x40 MLOAD RETURNDATASIZE PUSH1 0x1F NOT PUSH1 0x1F DUP3 ADD AND DUP3 ADD DUP1 PUSH1 0x40 MSTORE POP DUP2 ADD SWAP1 PUSH3 0x20FF SWAP2 SWAP1 PUSH3 0x4C09 JUMP JUMPDEST SWAP2 POP PUSH3 0x2123 DUP5 DUP3 DUP2 MLOAD DUP2 LT PUSH3 0x2112 JUMPI INVALID JUMPDEST PUSH1 0x20 MUL PUSH1 0x20 ADD ADD MLOAD PUSH1 0x0 DUP5 PUSH3 0x2D2B JUMP JUMPDEST PUSH1 0x1 ADD PUSH3 0x205F JUMP JUMPDEST PUSH1 0x0 PUSH1 0x1 PUSH1 0x1 PUSH1 0x58 SHL SUB DUP3 GT ISZERO PUSH3 0x2143 JUMPI PUSH1 0x0 DUP1 REVERT JUMPDEST POP SWAP1 JUMP JUMPDEST PUSH1 0x0 PUSH3 0x2153 PUSH3 0x2809 JUMP JUMPDEST PUSH1 0x0 DUP9 PUSH2 0xFFFF AND DUP2 MSTORE PUSH1 0x20 ADD SWAP1 DUP2 MSTORE PUSH1 0x20 ADD PUSH1 0x0 KECCAK256 SWAP1 POP PUSH3 0x2176 DUP8 DUP6 PUSH3 0x168A JUMP JUMPDEST DUP1 SLOAD PUSH5 0xFFFFFFFFFF AND ISZERO PUSH3 0x218A JUMPI PUSH1 0x0 DUP1 REVERT JUMPDEST DUP6 PUSH1 0x1 PUSH1 0x1 PUSH1 0x58 SHL SUB AND PUSH1 0x0 LT PUSH3 0x21A1 JUMPI PUSH1 0x0 DUP1 REVERT JUMPDEST PUSH1 0x0 PUSH3 0x21AE DUP9 PUSH3 0x2DC0 JUMP JUMPDEST SWAP1 POP DUP1 PUSH1 0x0 LT PUSH3 0x21BE JUMPI PUSH1 0x0 DUP1 REVERT JUMPDEST PUSH3 0x21C9 TIMESTAMP PUSH3 0x2E43 JUMP JUMPDEST DUP3 SLOAD PUSH1 0x2 DUP5 ADD DUP1 SLOAD PUSH5 0xFFFFFFFFFF NOT SWAP1 SWAP3 AND PUSH5 0xFFFFFFFFFF SWAP4 SWAP1 SWAP4 AND SWAP3 SWAP1 SWAP3 OR PUSH16 0xFFFFFFFFFFFFFFFFFFFFFF0000000000 NOT AND PUSH6 0x10000000000 PUSH1 0x1 PUSH1 0x1 PUSH1 0x58 SHL SUB DUP12 AND SWAP1 DUP2 MUL SWAP2 SWAP1 SWAP2 OR PUSH1 0x1 PUSH1 0x1 PUSH1 0xF8 SHL SUB AND PUSH1 0x1 PUSH1 0xF8 SHL DUP9 ISZERO ISZERO MUL OR DUP6 SSTORE PUSH10 0xFFFFFFFFFFFFFFFFFFFF PUSH1 0x50 SHL NOT SWAP1 SWAP2 AND PUSH6 0x3782DACE9D9 PUSH1 0x62 SHL OR PUSH10 0xFFFFFFFFFFFFFFFFFFFF PUSH1 0xA0 SHL NOT AND PUSH6 0x3782DACE9D9 PUSH1 0xB2 SHL OR PUSH1 0xFF PUSH1 0xF0 SHL NOT AND PUSH1 0x1 PUSH1 0xF0 SHL PUSH1 0xFF DUP8 AND MUL OR SWAP1 SWAP2 SSTORE PUSH3 0x228E SWAP1 PUSH3 0x2288 SWAP1 DUP4 SWAP1 PUSH3 0x2E58 JUMP JUMPDEST PUSH3 0x2E79 JUMP JUMPDEST PUSH1 0x2 DUP4 ADD DUP1 SLOAD PUSH10 0xFFFFFFFFFFFFFFFFFFFF NOT AND PUSH1 0x1 PUSH1 0x1 PUSH1 0x50 SHL SUB SWAP3 SWAP1 SWAP3 AND SWAP2 SWAP1 SWAP2 OR SWAP1 SSTORE PUSH3 0x22BE DUP2 PUSH3 0x212C JUMP JUMPDEST DUP3 SLOAD PUSH1 0x1 DUP5 ADD DUP1 SLOAD PUSH11 0xFFFFFFFFFFFFFFFFFFFFFF NOT AND SWAP1 SSTORE PUSH4 0xFFFFFFFF PUSH1 0xD8 SHL NOT PUSH1 0x1 PUSH1 0x1 PUSH1 0x58 SHL SUB SWAP3 SWAP1 SWAP3 AND PUSH1 0x1 PUSH1 0x80 SHL MUL PUSH11 0xFFFFFFFFFFFFFFFFFFFFFF PUSH1 0x80 SHL NOT SWAP1 SWAP2 AND OR AND DUP3 SSTORE PUSH3 0x2314 DUP9 DUP8 PUSH3 0x2E90 JUMP JUMPDEST PUSH1 0x40 MLOAD PUSH2 0xFFFF DUP10 AND SWAP1 PUSH32 0x10A72302A4C7C7BBB57A6FBE822ED3D9A792EB3E4AAFC64E64745E3AE7BF1287 SWAP1 PUSH1 0x0 SWAP1 LOG2 POP POP POP POP POP POP POP POP JUMP JUMPDEST PUSH1 0x0 DUP2 PUSH3 0x2365 JUMPI PUSH3 0x235F PUSH3 0x2EFB JUMP JUMPDEST PUSH3 0x236F JUMP JUMPDEST PUSH3 0x236F PUSH3 0x2F0A JUMP JUMPDEST PUSH2 0xFFFF DUP6 AND PUSH1 0x0 SWAP1 DUP2 MSTORE PUSH1 0x20 DUP3 SWAP1 MSTORE PUSH1 0x40 SWAP1 KECCAK256 SLOAD SWAP1 SWAP2 POP PUSH1 0x1 PUSH1 0x1 PUSH1 0xA0 SHL SUB AND ISZERO PUSH3 0x239A JUMPI PUSH1 0x0 DUP1 REVERT JUMPDEST PUSH2 0xFFFF DUP5 AND PUSH1 0x0 DUP2 DUP2 MSTORE PUSH1 0x20 DUP4 SWAP1 MSTORE PUSH1 0x40 SWAP1 DUP2 SWAP1 KECCAK256 DUP1 SLOAD PUSH1 0x1 PUSH1 0x1 PUSH1 0xA0 SHL SUB NOT AND PUSH1 0x1 PUSH1 0x1 PUSH1 0xA0 SHL SUB DUP8 AND OR SWAP1 SSTORE MLOAD PUSH32 0xB492E9BF0487A94DAE4DD27D50F25F59E832FAA854ED4072EE0FC57D327CA4C8 SWAP1 PUSH3 0x23FA SWAP1 DUP7 SWAP1 DUP7 SWAP1 PUSH3 0x4CE8 JUMP JUMPDEST PUSH1 0x40 MLOAD DUP1 SWAP2 SUB SWAP1 LOG2 POP POP POP POP JUMP JUMPDEST PUSH1 0x0 DUP2 SLT ISZERO PUSH3 0x2417 JUMPI PUSH1 0x0 DUP1 REVERT JUMPDEST PUSH1 0x0 PUSH3 0x2427 PUSH2 0xFEE DUP5 PUSH3 0x2F19 JUMP JUMPDEST SWAP1 POP PUSH3 0x2438 PUSH2 0xFEE DUP5 DUP5 PUSH3 0x2F75 JUMP JUMPDEST PUSH3 0x2452 PUSH2 0xFEE DUP5 PUSH3 0x244C DUP6 DUP6 PUSH3 0x2FEE JUMP JUMPDEST PUSH3 0x3005 JUMP JUMPDEST POP POP POP JUMP JUMPDEST PUSH1 0x0 PUSH3 0x2463 PUSH3 0x2809 JUMP JUMPDEST PUSH2 0xFFFF SWAP1 SWAP3 AND PUSH1 0x0 SWAP1 DUP2 MSTORE PUSH1 0x20 SWAP3 SWAP1 SWAP3 MSTORE POP PUSH1 0x40 SWAP1 KECCAK256 DUP1 SLOAD PUSH1 0x1 PUSH1 0x1 PUSH1 0xF8 SHL SUB AND PUSH1 0x1 PUSH1 0xF8 SHL OR SWAP1 SSTORE JUMP JUMPDEST PUSH3 0x2498 PUSH3 0x4047 JUMP JUMPDEST PUSH3 0x24A5 DUP3 PUSH1 0x1 PUSH3 0x2C7D JUMP JUMPDEST SWAP3 SWAP2 POP POP JUMP JUMPDEST PUSH3 0x24B7 DUP3 TIMESTAMP PUSH3 0x308B JUMP JUMPDEST POP PUSH3 0x24C4 DUP3 DUP3 PUSH3 0x2E90 JUMP JUMPDEST PUSH1 0x40 MLOAD PUSH2 0xFFFF DUP4 AND SWAP1 PUSH32 0x10A72302A4C7C7BBB57A6FBE822ED3D9A792EB3E4AAFC64E64745E3AE7BF1287 SWAP1 PUSH1 0x0 SWAP1 LOG2 POP POP JUMP JUMPDEST PUSH1 0x0 DUP1 PUSH3 0x2504 PUSH3 0x2809 JUMP JUMPDEST PUSH2 0xFFFF SWAP4 SWAP1 SWAP4 AND PUSH1 0x0 SWAP1 DUP2 MSTORE PUSH1 0x20 SWAP4 SWAP1 SWAP4 MSTORE POP POP PUSH1 0x40 SWAP1 KECCAK256 SLOAD PUSH1 0x1 PUSH1 0xF8 SHL SWAP1 DIV PUSH1 0xFF AND SWAP1 JUMP JUMPDEST PUSH1 0x0 PUSH3 0x2536 PUSH3 0x2854 JUMP JUMPDEST PUSH2 0xFFFF DUP5 AND PUSH1 0x0 SWAP1 DUP2 MSTORE PUSH1 0x20 DUP3 SWAP1 MSTORE PUSH1 0x40 SWAP1 KECCAK256 SLOAD SWAP1 SWAP2 POP PUSH1 0x1 PUSH1 0x1 PUSH1 0xA0 SHL SUB AND ISZERO PUSH3 0x2576 JUMPI PUSH1 0x40 MLOAD PUSH3 0x461BCD PUSH1 0xE5 SHL DUP2 MSTORE PUSH1 0x4 ADD PUSH3 0x4A0 SWAP1 PUSH3 0x50C9 JUMP JUMPDEST PUSH1 0x0 PUSH3 0x2582 PUSH3 0x2863 JUMP JUMPDEST PUSH1 0x1 PUSH1 0x1 PUSH1 0xA0 SHL SUB DUP5 AND PUSH1 0x0 SWAP1 DUP2 MSTORE PUSH1 0x20 DUP3 SWAP1 MSTORE PUSH1 0x40 SWAP1 KECCAK256 DUP1 SLOAD SWAP2 SWAP3 POP SWAP1 PUSH2 0xFFFF AND ISZERO PUSH3 0x25C4 JUMPI PUSH1 0x40 MLOAD PUSH3 0x461BCD PUSH1 0xE5 SHL DUP2 MSTORE PUSH1 0x4 ADD PUSH3 0x4A0 SWAP1 PUSH3 0x4DE9 JUMP JUMPDEST DUP1 SLOAD PUSH2 0xFFFF NOT AND PUSH2 0xFFFF SWAP6 SWAP1 SWAP6 AND SWAP5 DUP6 OR SWAP1 SSTORE POP PUSH1 0x0 SWAP3 DUP4 MSTORE PUSH1 0x20 MSTORE PUSH1 0x40 SWAP1 SWAP2 KECCAK256 DUP1 SLOAD PUSH1 0x1 PUSH1 0x1 PUSH1 0xA0 SHL SUB NOT AND PUSH1 0x1 PUSH1 0x1 PUSH1 0xA0 SHL SUB SWAP1 SWAP3 AND SWAP2 SWAP1 SWAP2 OR SWAP1 SSTORE JUMP JUMPDEST PUSH1 0x7 DUP4 GT ISZERO PUSH3 0x2628 JUMPI PUSH1 0x40 MLOAD PUSH3 0x461BCD PUSH1 0xE5 SHL DUP2 MSTORE PUSH1 0x4 ADD PUSH3 0x4A0 SWAP1 PUSH3 0x5092 JUMP JUMPDEST DUP3 DUP2 EQ PUSH3 0x264A JUMPI PUSH1 0x40 MLOAD PUSH3 0x461BCD PUSH1 0xE5 SHL DUP2 MSTORE PUSH1 0x4 ADD PUSH3 0x4A0 SWAP1 PUSH3 0x4D82 JUMP JUMPDEST PUSH1 0x0 DUP1 JUMPDEST DUP5 DUP2 LT ISZERO PUSH3 0x2713 JUMPI DUP6 DUP6 DUP3 DUP2 DUP2 LT PUSH3 0x2664 JUMPI INVALID JUMPDEST SWAP1 POP PUSH1 0x20 MUL ADD PUSH1 0x20 DUP2 ADD SWAP1 PUSH3 0x267B SWAP2 SWAP1 PUSH3 0x4C46 JUMP JUMPDEST PUSH4 0xFFFFFFFF AND DUP3 ADD SWAP2 POP PUSH1 0x0 DUP5 DUP5 DUP4 DUP2 DUP2 LT PUSH3 0x2694 JUMPI INVALID JUMPDEST SWAP1 POP PUSH1 0x20 MUL ADD PUSH1 0x20 DUP2 ADD SWAP1 PUSH3 0x26AB SWAP2 SWAP1 PUSH3 0x4C46 JUMP JUMPDEST PUSH4 0xFFFFFFFF AND GT DUP1 ISZERO PUSH3 0x26EB JUMPI POP PUSH4 0x3B9ACA00 DUP5 DUP5 DUP4 DUP2 DUP2 LT PUSH3 0x26CC JUMPI INVALID JUMPDEST SWAP1 POP PUSH1 0x20 MUL ADD PUSH1 0x20 DUP2 ADD SWAP1 PUSH3 0x26E3 SWAP2 SWAP1 PUSH3 0x4C46 JUMP JUMPDEST PUSH4 0xFFFFFFFF AND SLT JUMPDEST PUSH3 0x270A JUMPI PUSH1 0x40 MLOAD PUSH3 0x461BCD PUSH1 0xE5 SHL DUP2 MSTORE PUSH1 0x4 ADD PUSH3 0x4A0 SWAP1 PUSH3 0x4F6D JUMP JUMPDEST PUSH1 0x1 ADD PUSH3 0x264E JUMP JUMPDEST POP PUSH4 0x5F5E100 DUP2 EQ PUSH3 0x273A JUMPI PUSH1 0x40 MLOAD PUSH3 0x461BCD PUSH1 0xE5 SHL DUP2 MSTORE PUSH1 0x4 ADD PUSH3 0x4A0 SWAP1 PUSH3 0x5035 JUMP JUMPDEST PUSH1 0x0 PUSH3 0x2746 PUSH3 0x3165 JUMP JUMPDEST PUSH1 0x0 DUP9 DUP2 MSTORE PUSH1 0x20 DUP3 SWAP1 MSTORE PUSH1 0x40 SWAP1 KECCAK256 SWAP1 SWAP2 POP PUSH3 0xD72 DUP2 DUP9 DUP9 DUP9 DUP9 PUSH3 0x2B8F JUMP JUMPDEST PUSH1 0x0 DUP1 PUSH3 0x2774 DUP4 PUSH3 0x3174 JUMP JUMPDEST PUSH1 0xFF AND SWAP4 SWAP3 POP POP POP JUMP JUMPDEST PUSH1 0x0 PUSH3 0x278A PUSH3 0x3193 JUMP JUMPDEST PUSH2 0xFFFF DUP6 AND PUSH1 0x0 SWAP1 DUP2 MSTORE PUSH1 0x20 SWAP2 SWAP1 SWAP2 MSTORE PUSH1 0x40 DUP2 KECCAK256 SWAP2 POP PUSH3 0x27AB DUP5 PUSH3 0x31A2 JUMP JUMPDEST PUSH1 0x8 MUL PUSH1 0xC0 SUB SWAP1 POP PUSH1 0x0 PUSH1 0x4 DUP6 LT PUSH3 0x27C6 JUMPI PUSH1 0x1 PUSH3 0x27C9 JUMP JUMPDEST PUSH1 0x0 JUMPDEST SWAP1 POP PUSH3 0x27E9 DUP4 DUP3 PUSH1 0xFF AND PUSH1 0x2 DUP2 LT PUSH3 0x27DF JUMPI INVALID JUMPDEST ADD SLOAD DUP4 DUP7 PUSH3 0x31DF JUMP JUMPDEST DUP4 DUP3 PUSH1 0xFF AND PUSH1 0x2 DUP2 LT PUSH3 0x27F9 JUMPI INVALID JUMPDEST ADD SSTORE POP POP POP POP POP POP JUMP JUMPDEST EXTCODESIZE ISZERO ISZERO SWAP1 JUMP JUMPDEST PUSH1 0x0 DUP1 PUSH3 0x24A5 PUSH1 0x1D PUSH3 0x320D JUMP JUMPDEST PUSH1 0x0 DUP1 PUSH3 0xFFFFFF DUP4 GT ISZERO PUSH3 0x2838 JUMPI PUSH1 0x17 PUSH3 0x2834 DUP5 PUSH3 0x3227 JUMP JUMPDEST SUB SWAP1 POP JUMPDEST DUP3 DUP2 SHR PUSH1 0x8 SHL OR SWAP1 POP SWAP2 SWAP1 POP JUMP JUMPDEST PUSH1 0x8 DUP2 SWAP1 SHR PUSH1 0xFF SWAP1 SWAP2 AND SHL SWAP1 JUMP JUMPDEST PUSH1 0x0 DUP1 PUSH3 0x24A5 PUSH1 0x3 PUSH3 0x320D JUMP JUMPDEST PUSH1 0x0 DUP1 PUSH3 0x24A5 PUSH1 0x2 PUSH3 0x320D JUMP JUMPDEST PUSH1 0x0 DUP1 PUSH3 0x24A5 PUSH1 0x1F PUSH3 0x320D JUMP JUMPDEST PUSH1 0x0 PUSH3 0x28AE PUSH32 0x360894A13BA1A3210667C828492DB98DCA3E2076CC3735A920A3CA505D382BBC PUSH3 0x2981 JUMP JUMPDEST SLOAD PUSH1 0x1 PUSH1 0x1 PUSH1 0xA0 SHL SUB AND SWAP1 POP SWAP1 JUMP JUMPDEST PUSH3 0x28C8 DUP2 PUSH3 0x2803 JUMP JUMPDEST PUSH3 0x2905 JUMPI PUSH1 0x40 MLOAD PUSH3 0x461BCD PUSH1 0xE5 SHL DUP2 MSTORE PUSH1 0x4 ADD DUP1 DUP1 PUSH1 0x20 ADD DUP3 DUP2 SUB DUP3 MSTORE PUSH1 0x2D DUP2 MSTORE PUSH1 0x20 ADD DUP1 PUSH3 0x5C0F PUSH1 0x2D SWAP2 CODECOPY PUSH1 0x40 ADD SWAP2 POP POP PUSH1 0x40 MLOAD DUP1 SWAP2 SUB SWAP1 REVERT JUMPDEST DUP1 PUSH3 0x2931 PUSH32 0x360894A13BA1A3210667C828492DB98DCA3E2076CC3735A920A3CA505D382BBC PUSH3 0x2981 JUMP JUMPDEST DUP1 SLOAD PUSH1 0x1 PUSH1 0x1 PUSH1 0xA0 SHL SUB NOT AND PUSH1 0x1 PUSH1 0x1 PUSH1 0xA0 SHL SUB SWAP3 SWAP1 SWAP3 AND SWAP2 SWAP1 SWAP2 OR SWAP1 SSTORE POP JUMP JUMPDEST PUSH1 0x60 PUSH3 0x297A DUP4 DUP4 PUSH1 0x40 MLOAD DUP1 PUSH1 0x60 ADD PUSH1 0x40 MSTORE DUP1 PUSH1 0x27 DUP2 MSTORE PUSH1 0x20 ADD PUSH3 0x5C3C PUSH1 0x27 SWAP2 CODECOPY PUSH3 0x32CD JUMP JUMPDEST SWAP4 SWAP3 POP POP POP JUMP JUMPDEST SWAP1 JUMP JUMPDEST PUSH3 0x298F DUP2 PUSH3 0x28BD JUMP JUMPDEST PUSH1 0x40 MLOAD PUSH1 0x1 PUSH1 0x1 PUSH1 0xA0 SHL SUB DUP3 AND SWAP1 PUSH32 0xBC7CD75A20EE27FD9ADEBAB32041F755214DBC6BFFA90CC0225B39DA2E5C2D3B SWAP1 PUSH1 0x0 SWAP1 LOG2 POP JUMP JUMPDEST DUP1 MLOAD PUSH1 0xFF AND PUSH1 0x2 GT DUP1 ISZERO SWAP1 PUSH3 0x29E4 JUMPI POP PUSH1 0x7 DUP2 PUSH1 0x0 ADD MLOAD PUSH1 0xFF AND GT ISZERO JUMPDEST PUSH3 0x29EE JUMPI PUSH1 0x0 DUP1 REVERT JUMPDEST PUSH1 0x64 DUP2 PUSH1 0x60 ADD MLOAD PUSH1 0xFF AND SGT ISZERO PUSH3 0x2A04 JUMPI PUSH1 0x0 DUP1 REVERT JUMPDEST DUP1 PUSH1 0x40 ADD MLOAD PUSH1 0xFF AND PUSH1 0x0 LT PUSH3 0x2A19 JUMPI PUSH1 0x0 DUP1 REVERT JUMPDEST DUP1 PUSH2 0x120 ADD MLOAD PUSH1 0xFF AND DUP2 PUSH1 0xC0 ADD MLOAD PUSH1 0xFF AND LT PUSH3 0x2A35 JUMPI PUSH1 0x0 DUP1 REVERT JUMPDEST DUP1 PUSH1 0xA0 ADD MLOAD PUSH1 0xFF AND DUP2 PUSH1 0xE0 ADD MLOAD PUSH1 0xFF AND LT PUSH3 0x2A50 JUMPI PUSH1 0x0 DUP1 REVERT JUMPDEST DUP1 PUSH1 0x80 ADD MLOAD PUSH1 0xFF AND DUP2 PUSH2 0x100 ADD MLOAD PUSH1 0xFF AND LT PUSH3 0x2A6C JUMPI PUSH1 0x0 DUP1 REVERT JUMPDEST PUSH1 0x0 PUSH3 0x2A79 DUP4 PUSH3 0x2766 JUMP JUMPDEST SWAP1 POP DUP2 PUSH1 0x0 ADD MLOAD PUSH1 0xFF AND DUP2 PUSH1 0xFF AND GT ISZERO PUSH3 0x2A93 JUMPI PUSH1 0x0 DUP1 REVERT JUMPDEST PUSH2 0x120 DUP3 ADD MLOAD PUSH2 0x100 DUP4 ADD MLOAD PUSH1 0xE0 DUP5 ADD MLOAD PUSH1 0xC0 DUP6 ADD MLOAD PUSH1 0xA0 DUP7 ADD MLOAD PUSH1 0x80 DUP8 ADD MLOAD PUSH1 0x60 DUP9 ADD MLOAD PUSH1 0x40 DUP1 DUP11 ADD MLOAD PUSH1 0x20 DUP1 DUP13 ADD MLOAD DUP13 MLOAD PUSH1 0x48 SWAP12 SWAP1 SWAP12 SHL PUSH10 0xFF000000000000000000 AND SWAP10 SWAP1 SWAP4 SHL PUSH9 0xFF0000000000000000 AND PUSH1 0x38 SWAP9 SWAP1 SWAP9 SHL PUSH1 0xFF PUSH1 0x38 SHL AND PUSH1 0x30 SWAP8 SWAP1 SWAP8 SHL PUSH7 0xFF000000000000 AND PUSH1 0x28 SWAP7 SWAP1 SWAP7 SHL PUSH6 0xFF0000000000 AND SWAP5 SWAP1 SHL PUSH5 0xFF00000000 AND PUSH1 0x18 SWAP4 SWAP1 SWAP4 SHL PUSH4 0xFF000000 AND PUSH1 0x10 SWAP2 SWAP1 SWAP2 SHL PUSH3 0xFF0000 AND PUSH1 0x8 SWAP3 SWAP1 SWAP3 SHL PUSH2 0xFF00 AND PUSH1 0xFF SWAP1 SWAP10 AND SWAP9 SWAP1 SWAP9 OR OR SWAP7 SWAP1 SWAP7 OR SWAP6 SWAP1 SWAP6 OR SWAP5 SWAP1 SWAP5 OR SWAP4 SWAP1 SWAP4 OR SWAP3 SWAP1 SWAP3 OR SWAP2 SWAP1 SWAP2 OR OR PUSH1 0x0 PUSH3 0x2B6A PUSH3 0x33D9 JUMP JUMPDEST PUSH1 0x0 SWAP6 DUP7 MSTORE PUSH1 0x20 MSTORE POP PUSH1 0x40 SWAP1 SWAP4 KECCAK256 SWAP3 SWAP1 SWAP3 SSTORE POP POP JUMP JUMPDEST PUSH1 0x0 DUP1 PUSH3 0x24A5 PUSH1 0x5 PUSH3 0x320D JUMP JUMPDEST PUSH1 0x0 DUP1 JUMPDEST DUP5 DUP2 LT ISZERO PUSH3 0x5CB JUMPI DUP6 DUP6 DUP3 DUP2 DUP2 LT PUSH3 0x2BA9 JUMPI INVALID JUMPDEST SWAP1 POP PUSH1 0x20 MUL ADD PUSH1 0x20 DUP2 ADD SWAP1 PUSH3 0x2BC0 SWAP2 SWAP1 PUSH3 0x4C46 JUMP JUMPDEST DUP8 DUP4 PUSH1 0xE DUP2 LT PUSH3 0x2BCD JUMPI INVALID JUMPDEST PUSH1 0x8 SWAP2 DUP3 DUP3 DIV ADD SWAP2 SWAP1 MOD PUSH1 0x4 MUL PUSH2 0x100 EXP DUP2 SLOAD DUP2 PUSH4 0xFFFFFFFF MUL NOT AND SWAP1 DUP4 PUSH4 0xFFFFFFFF AND MUL OR SWAP1 SSTORE POP DUP2 DUP1 PUSH1 0x1 ADD SWAP3 POP POP DUP4 DUP4 DUP3 DUP2 DUP2 LT PUSH3 0x2C0B JUMPI INVALID JUMPDEST SWAP1 POP PUSH1 0x20 MUL ADD PUSH1 0x20 DUP2 ADD SWAP1 PUSH3 0x2C22 SWAP2 SWAP1 PUSH3 0x4C46 JUMP JUMPDEST DUP8 DUP4 PUSH1 0xE DUP2 LT PUSH3 0x2C2F JUMPI INVALID JUMPDEST PUSH1 0x8 SWAP2 DUP3 DUP3 DIV ADD SWAP2 SWAP1 MOD PUSH1 0x4 MUL PUSH2 0x100 EXP DUP2 SLOAD DUP2 PUSH4 0xFFFFFFFF MUL NOT AND SWAP1 DUP4 PUSH4 0xFFFFFFFF AND MUL OR SWAP1 SSTORE POP DUP2 DUP1 PUSH1 0x1 ADD SWAP3 POP POP DUP1 DUP1 PUSH1 0x1 ADD SWAP2 POP POP PUSH3 0x2B93 JUMP JUMPDEST PUSH1 0x0 DUP1 PUSH3 0x24A5 PUSH1 0x7 PUSH3 0x320D JUMP JUMPDEST PUSH3 0x2C87 PUSH3 0x4047 JUMP JUMPDEST PUSH1 0x0 PUSH3 0x2C93 PUSH3 0x2C6E JUMP JUMPDEST PUSH1 0x0 DUP6 DUP2 MSTORE PUSH1 0x20 DUP3 DUP2 MSTORE PUSH1 0x40 DUP1 DUP4 KECCAK256 DUP8 ISZERO ISZERO DUP5 MSTORE DUP3 MSTORE SWAP2 DUP3 SWAP1 KECCAK256 DUP3 MLOAD PUSH1 0xA0 DUP2 ADD DUP5 MSTORE DUP2 SLOAD PUSH1 0x1 PUSH1 0x1 PUSH1 0xA0 SHL SUB DUP2 AND DUP3 MSTORE PUSH1 0xFF PUSH1 0x1 PUSH1 0xA0 SHL DUP3 DIV DUP2 AND ISZERO ISZERO SWAP5 DUP4 ADD SWAP5 SWAP1 SWAP5 MSTORE PUSH1 0x1 PUSH1 0xB0 SHL DUP2 DIV DUP5 AND PUSH1 0xA EXP SWAP5 DUP3 ADD SWAP5 SWAP1 SWAP5 MSTORE SWAP4 SWAP5 POP SWAP3 SWAP2 PUSH1 0x60 DUP4 ADD SWAP2 PUSH1 0x1 PUSH1 0xA8 SHL SWAP1 SWAP2 DIV AND PUSH1 0x5 DUP2 GT ISZERO PUSH3 0x2D09 JUMPI INVALID JUMPDEST DUP2 MSTORE PUSH1 0x0 PUSH1 0x20 SWAP1 SWAP2 ADD MSTORE SWAP6 SWAP5 POP POP POP POP POP JUMP JUMPDEST PUSH1 0x0 DUP1 PUSH3 0x24A5 PUSH1 0x10 PUSH3 0x320D JUMP JUMPDEST PUSH1 0x0 PUSH3 0x2D37 PUSH3 0x33E8 JUMP JUMPDEST PUSH1 0x1 PUSH1 0x1 PUSH1 0xA0 SHL SUB DUP6 AND PUSH1 0x0 SWAP1 DUP2 MSTORE PUSH1 0x20 DUP3 SWAP1 MSTORE PUSH1 0x40 SWAP1 KECCAK256 SLOAD SWAP1 SWAP2 POP DUP4 DUP2 GT ISZERO PUSH3 0x2D61 JUMPI PUSH1 0x0 DUP1 REVERT JUMPDEST PUSH1 0x0 PUSH3 0x2D84 PUSH3 0x2D72 DUP7 PUSH3 0x33F7 JUMP JUMPDEST PUSH3 0x2D7D DUP7 PUSH3 0x33F7 JUMP JUMPDEST SWAP1 PUSH3 0x2FEE JUMP JUMPDEST SWAP1 POP PUSH3 0x2D9C PUSH3 0x2D96 DUP4 DUP4 PUSH3 0x340E JUMP JUMPDEST PUSH3 0x3425 JUMP JUMPDEST PUSH1 0x1 PUSH1 0x1 PUSH1 0xA0 SHL SUB SWAP1 SWAP7 AND PUSH1 0x0 SWAP1 DUP2 MSTORE PUSH1 0x20 SWAP4 SWAP1 SWAP4 MSTORE POP POP PUSH1 0x40 SWAP1 KECCAK256 SWAP3 SWAP1 SWAP3 SSTORE POP POP JUMP JUMPDEST PUSH1 0x0 DUP1 PUSH3 0x2DCE DUP4 PUSH3 0x3435 JUMP JUMPDEST PUSH1 0x1 PUSH1 0x1 PUSH1 0xA0 SHL SUB AND PUSH4 0xEF81F216 PUSH1 0x40 MLOAD DUP2 PUSH4 0xFFFFFFFF AND PUSH1 0xE0 SHL DUP2 MSTORE PUSH1 0x4 ADD PUSH1 0x40 DUP1 MLOAD DUP1 DUP4 SUB DUP2 PUSH1 0x0 DUP8 DUP1 EXTCODESIZE ISZERO DUP1 ISZERO PUSH3 0x2E08 JUMPI PUSH1 0x0 DUP1 REVERT JUMPDEST POP GAS CALL ISZERO DUP1 ISZERO PUSH3 0x2E1D JUMPI RETURNDATASIZE PUSH1 0x0 DUP1 RETURNDATACOPY RETURNDATASIZE PUSH1 0x0 REVERT JUMPDEST POP POP POP POP PUSH1 0x40 MLOAD RETURNDATASIZE PUSH1 0x1F NOT PUSH1 0x1F DUP3 ADD AND DUP3 ADD DUP1 PUSH1 0x40 MSTORE POP DUP2 ADD SWAP1 PUSH3 0x1507 SWAP2 SWAP1 PUSH3 0x4C22 JUMP JUMPDEST PUSH1 0x0 PUSH5 0xFFFFFFFFFF DUP3 GT ISZERO PUSH3 0x2143 JUMPI PUSH1 0x0 DUP1 REVERT JUMPDEST PUSH1 0x0 PUSH3 0x297A PUSH3 0x2E72 DUP5 PUSH8 0xDE0B6B3A7640000 PUSH3 0x3467 JUMP JUMPDEST DUP4 PUSH3 0x3492 JUMP JUMPDEST PUSH1 0x0 PUSH1 0x1 PUSH1 0x1 PUSH1 0x50 SHL SUB DUP3 GT ISZERO PUSH3 0x2143 JUMPI PUSH1 0x0 DUP1 REVERT JUMPDEST PUSH1 0x0 PUSH3 0x2E9C PUSH3 0x34B3 JUMP JUMPDEST PUSH2 0xFFFF DUP5 AND PUSH1 0x0 SWAP1 DUP2 MSTORE PUSH1 0x20 SWAP2 SWAP1 SWAP2 MSTORE PUSH1 0x40 DUP2 KECCAK256 SWAP2 POP PUSH3 0x2EBC PUSH3 0x3193 JUMP JUMPDEST PUSH2 0xFFFF DUP6 AND PUSH1 0x0 SWAP1 DUP2 MSTORE PUSH1 0x20 SWAP2 SWAP1 SWAP2 MSTORE PUSH1 0x40 DUP2 KECCAK256 SWAP2 POP PUSH3 0x2EE5 SWAP1 DUP4 SWAP1 JUMPDEST ADD SLOAD PUSH1 0xC0 DUP6 PUSH3 0x31DF JUMP JUMPDEST DUP3 SSTORE PUSH3 0x2EF4 DUP2 PUSH1 0x0 PUSH3 0x2EDA JUMP JUMPDEST SWAP1 SSTORE POP POP POP JUMP JUMPDEST PUSH1 0x0 DUP1 PUSH3 0x24A5 PUSH1 0x22 PUSH3 0x320D JUMP JUMPDEST PUSH1 0x0 DUP1 PUSH3 0x24A5 PUSH1 0x21 PUSH3 0x320D JUMP JUMPDEST PUSH1 0x0 DUP1 PUSH3 0x2F26 PUSH3 0x34C2 JUMP JUMPDEST PUSH1 0x1 PUSH1 0x1 PUSH1 0xA0 SHL SUB DUP6 AND PUSH1 0x0 SWAP1 DUP2 MSTORE PUSH1 0x20 DUP3 DUP2 MSTORE PUSH1 0x40 DUP1 DUP4 KECCAK256 PUSH2 0xFFFF DUP9 AND DUP5 MSTORE SWAP1 SWAP2 MSTORE DUP2 KECCAK256 DUP1 SLOAD PUSH1 0x1 PUSH1 0xA8 SHL SWAP1 DIV PUSH1 0xA SWAP1 DUP2 SIGNEXTEND SWAP1 SIGNEXTEND SWAP5 POP SWAP2 SWAP3 POP DUP4 SLT ISZERO PUSH3 0x2F6D JUMPI PUSH1 0x0 DUP1 REVERT JUMPDEST POP POP SWAP3 SWAP2 POP POP JUMP JUMPDEST PUSH1 0x0 DUP2 SLT ISZERO PUSH3 0x2F84 JUMPI PUSH1 0x0 DUP1 REVERT JUMPDEST PUSH1 0x0 PUSH3 0x2F90 PUSH3 0x34C2 JUMP JUMPDEST PUSH1 0x1 PUSH1 0x1 PUSH1 0xA0 SHL SUB DUP6 AND PUSH1 0x0 SWAP1 DUP2 MSTORE PUSH1 0x20 DUP3 DUP2 MSTORE PUSH1 0x40 DUP1 DUP4 KECCAK256 PUSH2 0xFFFF DUP9 AND DUP5 MSTORE SWAP1 SWAP2 MSTORE SWAP1 KECCAK256 SWAP1 SWAP2 POP PUSH3 0x2FC3 DUP4 PUSH3 0x34D1 JUMP JUMPDEST DUP2 SLOAD PUSH1 0xA SWAP2 SWAP1 SWAP2 SIGNEXTEND PUSH1 0x1 PUSH1 0x1 PUSH1 0x58 SHL SUB AND PUSH1 0x1 PUSH1 0xA8 SHL MUL PUSH1 0x1 PUSH1 0x1 PUSH1 0xA8 SHL SUB SWAP1 SWAP2 AND OR SWAP1 SSTORE POP POP POP POP JUMP JUMPDEST DUP1 DUP3 SUB DUP3 DUP2 SGT ISZERO PUSH1 0x0 DUP4 SLT ISZERO EQ PUSH3 0x24A5 JUMPI PUSH1 0x0 DUP1 REVERT JUMPDEST PUSH1 0x0 PUSH3 0x3011 PUSH3 0x2F0A JUMP JUMPDEST PUSH2 0xFFFF DUP5 AND PUSH1 0x0 SWAP1 DUP2 MSTORE PUSH1 0x20 SWAP2 SWAP1 SWAP2 MSTORE PUSH1 0x40 SWAP1 DUP2 SWAP1 KECCAK256 SLOAD SWAP1 MLOAD PUSH4 0xAD1C095D PUSH1 0xE0 SHL DUP2 MSTORE PUSH1 0x1 PUSH1 0x1 PUSH1 0xA0 SHL SUB SWAP1 SWAP2 AND SWAP2 POP DUP2 SWAP1 PUSH4 0xAD1C095D SWAP1 PUSH3 0x305B SWAP1 DUP8 SWAP1 DUP7 SWAP1 PUSH1 0x4 ADD PUSH3 0x4D69 JUMP JUMPDEST PUSH1 0x0 PUSH1 0x40 MLOAD DUP1 DUP4 SUB DUP2 PUSH1 0x0 DUP8 DUP1 EXTCODESIZE ISZERO DUP1 ISZERO PUSH3 0x3076 JUMPI PUSH1 0x0 DUP1 REVERT JUMPDEST POP GAS CALL ISZERO DUP1 ISZERO PUSH3 0xD72 JUMPI RETURNDATASIZE PUSH1 0x0 DUP1 RETURNDATACOPY RETURNDATASIZE PUSH1 0x0 REVERT JUMPDEST PUSH3 0x3095 PUSH3 0x4076 JUMP JUMPDEST PUSH1 0x0 PUSH3 0x30A2 DUP5 PUSH3 0x3505 JUMP JUMPDEST SWAP1 POP DUP3 DUP2 PUSH1 0x0 ADD MLOAD LT ISZERO PUSH3 0x30E9 JUMPI PUSH1 0x0 DUP1 PUSH3 0x30BF DUP7 PUSH3 0x2DC0 JUMP JUMPDEST SWAP1 POP PUSH3 0x30CF DUP7 DUP5 DUP4 DUP9 PUSH3 0x35D3 JUMP JUMPDEST SWAP1 SWAP4 POP SWAP2 POP PUSH3 0x30E1 DUP7 DUP4 DUP6 PUSH3 0x3686 JUMP JUMPDEST POP POP PUSH3 0x30F7 JUMP JUMPDEST DUP1 MLOAD DUP4 EQ PUSH3 0x30F7 JUMPI PUSH1 0x0 DUP1 REVERT JUMPDEST PUSH1 0x40 MLOAD DUP1 PUSH1 0x60 ADD PUSH1 0x40 MSTORE DUP1 PUSH3 0x3129 PUSH3 0x3123 DUP5 PUSH1 0xA0 ADD MLOAD DUP6 PUSH1 0xC0 ADD MLOAD PUSH3 0x3467 SWAP1 SWAP2 SWAP1 PUSH4 0xFFFFFFFF AND JUMP JUMPDEST PUSH3 0x33F7 JUMP JUMPDEST DUP2 MSTORE PUSH1 0x20 ADD PUSH3 0x314F PUSH3 0x3123 DUP5 PUSH1 0xA0 ADD MLOAD DUP6 PUSH1 0xE0 ADD MLOAD PUSH3 0x3467 SWAP1 SWAP2 SWAP1 PUSH4 0xFFFFFFFF AND JUMP JUMPDEST DUP2 MSTORE PUSH1 0x20 ADD DUP3 PUSH1 0x60 ADD MLOAD DUP2 MSTORE POP SWAP2 POP POP SWAP3 SWAP2 POP POP JUMP JUMPDEST PUSH1 0x0 DUP1 PUSH3 0x24A5 PUSH1 0x4 PUSH3 0x320D JUMP JUMPDEST PUSH1 0x0 DUP1 PUSH3 0x3181 PUSH3 0x33D9 JUMP JUMPDEST PUSH1 0x0 SWAP4 DUP5 MSTORE PUSH1 0x20 MSTORE POP POP PUSH1 0x40 SWAP1 KECCAK256 SLOAD SWAP1 JUMP JUMPDEST PUSH1 0x0 DUP1 PUSH3 0x24A5 PUSH1 0x1C PUSH3 0x320D JUMP JUMPDEST PUSH1 0x0 DUP2 PUSH1 0x0 LT PUSH3 0x31B2 JUMPI PUSH1 0x0 DUP1 REVERT JUMPDEST PUSH1 0x7 DUP3 GT ISZERO PUSH3 0x31C1 JUMPI PUSH1 0x0 DUP1 REVERT JUMPDEST PUSH1 0x4 DUP3 LT PUSH3 0x31D4 JUMPI PUSH1 0x4 DUP3 SUB PUSH3 0x31D6 JUMP JUMPDEST DUP2 JUMPDEST PUSH1 0x8 MUL SWAP3 SWAP2 POP POP JUMP JUMPDEST PUSH1 0x0 DUP1 PUSH3 0x31ED DUP4 PUSH3 0x38C9 JUMP JUMPDEST PUSH1 0x1 PUSH1 0x1 PUSH1 0x40 SHL SUB PUSH1 0xFF DUP7 AND SWAP1 DUP2 SHL NOT DUP8 AND SWAP2 SWAP1 SHL OR SWAP2 POP POP SWAP4 SWAP3 POP POP POP JUMP JUMPDEST PUSH1 0x0 PUSH3 0xF4240 DUP3 PUSH1 0x26 DUP2 GT ISZERO PUSH3 0x3220 JUMPI INVALID JUMPDEST ADD SWAP3 SWAP2 POP POP JUMP JUMPDEST PUSH1 0x0 DUP2 PUSH3 0x3234 JUMPI PUSH1 0x0 DUP1 REVERT JUMPDEST PUSH1 0x1 PUSH1 0x80 SHL DUP3 LT PUSH3 0x3248 JUMPI PUSH1 0x80 SWAP2 DUP3 SHR SWAP2 ADD JUMPDEST PUSH9 0x10000000000000000 DUP3 LT PUSH3 0x3261 JUMPI PUSH1 0x40 SWAP2 DUP3 SHR SWAP2 ADD JUMPDEST PUSH1 0x1 PUSH1 0x20 SHL DUP3 LT PUSH3 0x3275 JUMPI PUSH1 0x20 SWAP2 DUP3 SHR SWAP2 ADD JUMPDEST PUSH3 0x10000 DUP3 LT PUSH3 0x3288 JUMPI PUSH1 0x10 SWAP2 DUP3 SHR SWAP2 ADD JUMPDEST PUSH2 0x100 DUP3 LT PUSH3 0x329A JUMPI PUSH1 0x8 SWAP2 DUP3 SHR SWAP2 ADD JUMPDEST PUSH1 0x10 DUP3 LT PUSH3 0x32AB JUMPI PUSH1 0x4 SWAP2 DUP3 SHR SWAP2 ADD JUMPDEST PUSH1 0x4 DUP3 LT PUSH3 0x32BC JUMPI PUSH1 0x2 SWAP2 DUP3 SHR SWAP2 ADD JUMPDEST PUSH1 0x2 DUP3 LT PUSH3 0x1577 JUMPI PUSH1 0x1 ADD SWAP2 SWAP1 POP JUMP JUMPDEST PUSH1 0x60 PUSH3 0x32DA DUP5 PUSH3 0x2803 JUMP JUMPDEST PUSH3 0x3317 JUMPI PUSH1 0x40 MLOAD PUSH3 0x461BCD PUSH1 0xE5 SHL DUP2 MSTORE PUSH1 0x4 ADD DUP1 DUP1 PUSH1 0x20 ADD DUP3 DUP2 SUB DUP3 MSTORE PUSH1 0x26 DUP2 MSTORE PUSH1 0x20 ADD DUP1 PUSH3 0x5C63 PUSH1 0x26 SWAP2 CODECOPY PUSH1 0x40 ADD SWAP2 POP POP PUSH1 0x40 MLOAD DUP1 SWAP2 SUB SWAP1 REVERT JUMPDEST PUSH1 0x0 DUP1 DUP6 PUSH1 0x1 PUSH1 0x1 PUSH1 0xA0 SHL SUB AND DUP6 PUSH1 0x40 MLOAD DUP1 DUP3 DUP1 MLOAD SWAP1 PUSH1 0x20 ADD SWAP1 DUP1 DUP4 DUP4 JUMPDEST PUSH1 0x20 DUP4 LT PUSH3 0x3356 JUMPI DUP1 MLOAD DUP3 MSTORE PUSH1 0x1F NOT SWAP1 SWAP3 ADD SWAP2 PUSH1 0x20 SWAP2 DUP3 ADD SWAP2 ADD PUSH3 0x3335 JUMP JUMPDEST PUSH1 0x1 DUP4 PUSH1 0x20 SUB PUSH2 0x100 EXP SUB DUP1 NOT DUP3 MLOAD AND DUP2 DUP5 MLOAD AND DUP1 DUP3 OR DUP6 MSTORE POP POP POP POP POP POP SWAP1 POP ADD SWAP2 POP POP PUSH1 0x0 PUSH1 0x40 MLOAD DUP1 DUP4 SUB DUP2 DUP6 GAS DELEGATECALL SWAP2 POP POP RETURNDATASIZE DUP1 PUSH1 0x0 DUP2 EQ PUSH3 0x33B8 JUMPI PUSH1 0x40 MLOAD SWAP2 POP PUSH1 0x1F NOT PUSH1 0x3F RETURNDATASIZE ADD AND DUP3 ADD PUSH1 0x40 MSTORE RETURNDATASIZE DUP3 MSTORE RETURNDATASIZE PUSH1 0x0 PUSH1 0x20 DUP5 ADD RETURNDATACOPY PUSH3 0x33BD JUMP JUMPDEST PUSH1 0x60 SWAP2 POP JUMPDEST POP SWAP2 POP SWAP2 POP PUSH3 0x33CF DUP3 DUP3 DUP7 PUSH3 0x39EF JUMP JUMPDEST SWAP7 SWAP6 POP POP POP POP POP POP JUMP JUMPDEST PUSH1 0x0 DUP1 PUSH3 0x24A5 PUSH1 0x9 PUSH3 0x320D JUMP JUMPDEST PUSH1 0x0 DUP1 PUSH3 0x24A5 PUSH1 0x26 PUSH3 0x320D JUMP JUMPDEST PUSH1 0x0 PUSH1 0x1 PUSH1 0x1 PUSH1 0xFF SHL SUB DUP3 GT ISZERO PUSH3 0x2143 JUMPI PUSH1 0x0 DUP1 REVERT JUMPDEST DUP2 DUP2 ADD DUP3 DUP2 SLT ISZERO PUSH1 0x0 DUP4 SLT ISZERO EQ PUSH3 0x24A5 JUMPI PUSH1 0x0 DUP1 REVERT JUMPDEST PUSH1 0x0 DUP1 DUP3 SLT ISZERO PUSH3 0x2143 JUMPI PUSH1 0x0 DUP1 REVERT JUMPDEST PUSH1 0x0 DUP1 PUSH3 0x3442 PUSH3 0x2872 JUMP JUMPDEST PUSH2 0xFFFF SWAP4 SWAP1 SWAP4 AND PUSH1 0x0 SWAP1 DUP2 MSTORE PUSH1 0x20 SWAP4 SWAP1 SWAP4 MSTORE POP POP PUSH1 0x40 SWAP1 KECCAK256 SLOAD PUSH1 0x1 PUSH1 0x1 PUSH1 0xA0 SHL SUB AND SWAP1 JUMP JUMPDEST PUSH1 0x0 DUP3 PUSH3 0x3478 JUMPI POP PUSH1 0x0 PUSH3 0x24A5 JUMP JUMPDEST DUP3 DUP3 MUL DUP3 DUP5 DUP3 DUP2 PUSH3 0x3486 JUMPI INVALID JUMPDEST DIV EQ PUSH3 0x297A JUMPI PUSH1 0x0 DUP1 REVERT JUMPDEST PUSH1 0x0 DUP1 DUP3 GT PUSH3 0x34A1 JUMPI PUSH1 0x0 DUP1 REVERT JUMPDEST DUP2 DUP4 DUP2 PUSH3 0x34AB JUMPI INVALID JUMPDEST DIV SWAP4 SWAP3 POP POP POP JUMP JUMPDEST PUSH1 0x0 DUP1 PUSH3 0x24A5 PUSH1 0x1B PUSH3 0x320D JUMP JUMPDEST PUSH1 0x0 DUP1 PUSH3 0x24A5 PUSH1 0x6 PUSH3 0x320D JUMP JUMPDEST PUSH1 0x0 PUSH11 0x7FFFFFFFFFFFFFFFFFFFFF NOT DUP3 SLT DUP1 ISZERO SWAP1 PUSH3 0x34FB JUMPI POP PUSH11 0x7FFFFFFFFFFFFFFFFFFFFF DUP3 SGT ISZERO JUMPDEST PUSH3 0x2143 JUMPI PUSH1 0x0 DUP1 REVERT JUMPDEST PUSH3 0x350F PUSH3 0x4097 JUMP JUMPDEST PUSH1 0x0 PUSH3 0x351B PUSH3 0x2809 JUMP JUMPDEST PUSH2 0xFFFF SWAP4 DUP5 AND PUSH1 0x0 SWAP1 DUP2 MSTORE PUSH1 0x20 SWAP2 DUP3 MSTORE PUSH1 0x40 SWAP1 DUP2 SWAP1 KECCAK256 DUP1 SLOAD PUSH5 0xFFFFFFFFFF DUP2 AND DUP7 MSTORE PUSH6 0x10000000000 DUP2 DIV PUSH1 0x1 PUSH1 0x1 PUSH1 0x58 SHL SUB SWAP1 DUP2 AND SWAP5 DUP8 ADD SWAP5 SWAP1 SWAP5 MSTORE PUSH1 0x1 DUP3 ADD SLOAD DUP5 AND SWAP3 DUP7 ADD SWAP3 SWAP1 SWAP3 MSTORE PUSH1 0x1 PUSH1 0xD8 SHL DUP3 DIV PUSH4 0xFFFFFFFF AND PUSH1 0x60 DUP7 ADD MSTORE PUSH1 0x1 PUSH1 0x80 SHL SWAP1 SWAP2 DIV SWAP1 SWAP2 AND PUSH1 0x80 DUP5 ADD MSTORE PUSH1 0x2 ADD SLOAD PUSH1 0x1 PUSH1 0x1 PUSH1 0x50 SHL SUB DUP1 DUP3 AND PUSH1 0xA0 DUP6 ADD MSTORE PUSH1 0x1 PUSH1 0x50 SHL DUP3 DIV DUP2 AND PUSH1 0xC0 DUP6 ADD MSTORE PUSH1 0x1 PUSH1 0xA0 SHL DUP3 DIV AND PUSH1 0xE0 DUP5 ADD MSTORE PUSH1 0x1 PUSH1 0xF0 SHL SWAP1 DIV PUSH1 0xFF AND PUSH2 0x12C MUL SWAP1 SWAP3 AND PUSH2 0x100 DUP3 ADD MSTORE SWAP2 SWAP1 POP JUMP JUMPDEST PUSH3 0x35DD PUSH3 0x4097 JUMP JUMPDEST PUSH1 0x0 DUP1 PUSH1 0x0 PUSH3 0x35EF DUP9 DUP7 DUP10 PUSH3 0x3A99 JUMP JUMPDEST PUSH1 0xC0 DUP12 ADD SWAP3 SWAP1 SWAP3 MSTORE PUSH1 0xE0 DUP11 ADD SWAP3 SWAP1 SWAP3 MSTORE PUSH1 0x20 DUP10 ADD MLOAD SWAP2 SWAP4 POP SWAP2 POP PUSH3 0x3615 SWAP1 DUP4 PUSH3 0x3BC9 JUMP JUMPDEST PUSH1 0x20 DUP9 ADD MSTORE PUSH1 0x80 DUP8 ADD MLOAD PUSH1 0x0 SWAP1 ISZERO PUSH3 0x3648 JUMPI PUSH1 0x80 DUP9 ADD MLOAD PUSH3 0x3645 SWAP1 PUSH3 0x363E DUP10 DUP3 PUSH3 0x3BDC JUMP JUMPDEST SWAP1 PUSH3 0x2E58 JUMP JUMPDEST SWAP1 POP JUMPDEST PUSH3 0x366C PUSH3 0x3660 PUSH8 0xDE0B6B3A7640000 DUP4 PUSH3 0x3BC9 JUMP JUMPDEST PUSH1 0xA0 DUP11 ADD MLOAD SWAP1 PUSH3 0x3BF2 JUMP JUMPDEST PUSH1 0xA0 DUP10 ADD MSTORE POP POP PUSH1 0x80 DUP7 ADD SWAP5 SWAP1 SWAP5 MSTORE POP POP DUP3 MSTORE SWAP1 SWAP3 SWAP1 SWAP2 POP JUMP JUMPDEST PUSH1 0x0 PUSH3 0x3692 PUSH3 0x2809 JUMP JUMPDEST PUSH1 0x0 DUP6 PUSH2 0xFFFF AND DUP2 MSTORE PUSH1 0x20 ADD SWAP1 DUP2 MSTORE PUSH1 0x20 ADD PUSH1 0x0 KECCAK256 SWAP1 POP PUSH3 0x36B8 DUP3 PUSH1 0x0 ADD MLOAD PUSH3 0x2E43 JUMP JUMPDEST DUP2 SLOAD PUSH5 0xFFFFFFFFFF NOT AND PUSH5 0xFFFFFFFFFF SWAP2 SWAP1 SWAP2 AND OR DUP2 SSTORE PUSH1 0xA0 DUP3 ADD MLOAD PUSH3 0x36DF SWAP1 PUSH3 0x2E79 JUMP JUMPDEST PUSH1 0x2 DUP3 ADD DUP1 SLOAD PUSH10 0xFFFFFFFFFFFFFFFFFFFF NOT AND PUSH1 0x1 PUSH1 0x1 PUSH1 0x50 SHL SUB SWAP3 SWAP1 SWAP3 AND SWAP2 SWAP1 SWAP2 OR SWAP1 SSTORE PUSH1 0xC0 DUP3 ADD MLOAD PUSH3 0x3714 SWAP1 PUSH3 0x2E79 JUMP JUMPDEST DUP2 PUSH1 0x2 ADD PUSH1 0xA PUSH2 0x100 EXP DUP2 SLOAD DUP2 PUSH1 0x1 PUSH1 0x1 PUSH1 0x50 SHL SUB MUL NOT AND SWAP1 DUP4 PUSH1 0x1 PUSH1 0x1 PUSH1 0x50 SHL SUB AND MUL OR SWAP1 SSTORE POP PUSH3 0x374B DUP3 PUSH1 0xE0 ADD MLOAD PUSH3 0x2E79 JUMP JUMPDEST DUP2 PUSH1 0x2 ADD PUSH1 0x14 PUSH2 0x100 EXP DUP2 SLOAD DUP2 PUSH1 0x1 PUSH1 0x1 PUSH1 0x50 SHL SUB MUL NOT AND SWAP1 DUP4 PUSH1 0x1 PUSH1 0x1 PUSH1 0x50 SHL SUB AND MUL OR SWAP1 SSTORE POP PUSH3 0x3782 DUP3 PUSH1 0x20 ADD MLOAD PUSH3 0x212C JUMP JUMPDEST DUP2 SLOAD PUSH1 0x1 PUSH1 0x1 PUSH1 0x58 SHL SUB SWAP2 SWAP1 SWAP2 AND PUSH6 0x10000000000 MUL PUSH16 0xFFFFFFFFFFFFFFFFFFFFFF0000000000 NOT SWAP1 SWAP2 AND OR DUP2 SSTORE PUSH1 0x40 DUP3 ADD MLOAD PUSH3 0x37C0 SWAP1 PUSH3 0x212C JUMP JUMPDEST PUSH1 0x1 DUP3 ADD DUP1 SLOAD PUSH11 0xFFFFFFFFFFFFFFFFFFFFFF NOT AND PUSH1 0x1 PUSH1 0x1 PUSH1 0x58 SHL SUB SWAP3 SWAP1 SWAP3 AND SWAP2 SWAP1 SWAP2 OR SWAP1 SSTORE PUSH1 0x80 DUP3 ADD MLOAD PUSH3 0x37F6 SWAP1 PUSH3 0x212C JUMP JUMPDEST DUP2 SLOAD PUSH1 0x1 PUSH1 0x1 PUSH1 0x58 SHL SUB SWAP2 SWAP1 SWAP2 AND PUSH1 0x1 PUSH1 0x80 SHL MUL PUSH11 0xFFFFFFFFFFFFFFFFFFFFFF PUSH1 0x80 SHL NOT SWAP1 SWAP2 AND OR DUP2 SSTORE PUSH1 0x60 DUP3 ADD MLOAD PUSH3 0x3830 SWAP1 PUSH3 0x3C13 JUMP JUMPDEST DUP2 SLOAD PUSH4 0xFFFFFFFF SWAP2 SWAP1 SWAP2 AND PUSH1 0x1 PUSH1 0xD8 SHL MUL PUSH4 0xFFFFFFFF PUSH1 0xD8 SHL NOT SWAP1 SWAP2 AND OR DUP2 SSTORE DUP3 ISZERO PUSH3 0x3883 JUMPI PUSH1 0x0 PUSH3 0x3864 DUP5 PUSH3 0x33F7 JUMP JUMPDEST SWAP1 POP PUSH3 0x3872 DUP6 DUP3 PUSH3 0x3C27 JUMP JUMPDEST PUSH3 0x3881 PUSH2 0xFEE DUP7 DUP4 PUSH3 0x3005 JUMP JUMPDEST POP JUMPDEST DUP4 PUSH2 0xFFFF AND PUSH32 0xEF25641E225E493886510CA1AD6584FA7B442B9FEA820A29D1DE3CE27D270FD2 DUP4 PUSH1 0xA0 ADD MLOAD DUP5 PUSH1 0xC0 ADD MLOAD DUP6 PUSH1 0xE0 ADD MLOAD PUSH1 0x40 MLOAD PUSH3 0x23FA SWAP4 SWAP3 SWAP2 SWAP1 PUSH3 0x51E4 JUMP JUMPDEST PUSH1 0x0 DUP2 PUSH1 0x20 ADD MLOAD PUSH1 0xFF AND DUP3 PUSH1 0x0 ADD MLOAD PUSH1 0xFF AND LT PUSH3 0x38E6 JUMPI PUSH1 0x0 DUP1 REVERT JUMPDEST PUSH1 0x64 DUP3 PUSH1 0x20 ADD MLOAD PUSH1 0xFF AND GT ISZERO PUSH3 0x38FC JUMPI PUSH1 0x0 DUP1 REVERT JUMPDEST DUP2 PUSH1 0x60 ADD MLOAD PUSH1 0xFF AND DUP3 PUSH1 0x40 ADD MLOAD PUSH1 0xFF AND LT PUSH3 0x3917 JUMPI PUSH1 0x0 DUP1 REVERT JUMPDEST PUSH1 0xC0 DUP3 ADD MLOAD PUSH1 0xA0 DUP4 ADD MLOAD PUSH3 0x2625A0 PUSH1 0xFF SWAP3 DUP4 AND MUL SWAP2 AND PUSH3 0x7A120 MUL GT ISZERO PUSH3 0x393E JUMPI PUSH1 0x0 DUP1 REVERT JUMPDEST PUSH1 0x64 DUP3 PUSH1 0xE0 ADD MLOAD PUSH1 0xFF AND LT PUSH3 0x3953 JUMPI PUSH1 0x0 DUP1 REVERT JUMPDEST POP PUSH1 0xE0 DUP2 ADD MLOAD PUSH1 0xC0 DUP3 ADD MLOAD PUSH1 0xA0 DUP4 ADD MLOAD PUSH1 0x60 DUP5 ADD MLOAD PUSH1 0x40 DUP6 ADD MLOAD PUSH1 0x80 DUP7 ADD MLOAD PUSH1 0x20 DUP1 DUP9 ADD MLOAD SWAP8 MLOAD PUSH1 0xFF SWAP1 SWAP8 AND PUSH1 0x8 SWAP7 SWAP1 SWAP7 SHL PUSH2 0xFF00 AND PUSH1 0x10 SWAP6 SWAP1 SWAP6 SHL PUSH3 0xFF0000 AND PUSH1 0x18 SWAP5 SWAP1 SWAP5 SHL PUSH4 0xFF000000 AND SWAP3 SWAP1 SHL PUSH5 0xFF00000000 AND PUSH1 0x28 SWAP2 SWAP1 SWAP2 SHL PUSH6 0xFF0000000000 AND PUSH1 0x30 SWAP8 SWAP1 SWAP8 SHL PUSH7 0xFF000000000000 AND PUSH1 0x38 SWAP7 SWAP1 SWAP7 SHL PUSH1 0xFF PUSH1 0x38 SHL AND SWAP6 SWAP1 SWAP6 OR SWAP6 SWAP1 SWAP6 OR SWAP4 SWAP1 SWAP4 OR SWAP4 SWAP1 SWAP4 OR SWAP2 SWAP1 SWAP2 OR SWAP2 SWAP1 SWAP2 OR OR SWAP1 JUMP JUMPDEST PUSH1 0x60 DUP4 ISZERO PUSH3 0x3A00 JUMPI POP DUP2 PUSH3 0x297A JUMP JUMPDEST DUP3 MLOAD ISZERO PUSH3 0x3A11 JUMPI DUP3 MLOAD DUP1 DUP5 PUSH1 0x20 ADD REVERT JUMPDEST DUP2 PUSH1 0x40 MLOAD PUSH3 0x461BCD PUSH1 0xE5 SHL DUP2 MSTORE PUSH1 0x4 ADD DUP1 DUP1 PUSH1 0x20 ADD DUP3 DUP2 SUB DUP3 MSTORE DUP4 DUP2 DUP2 MLOAD DUP2 MSTORE PUSH1 0x20 ADD SWAP2 POP DUP1 MLOAD SWAP1 PUSH1 0x20 ADD SWAP1 DUP1 DUP4 DUP4 PUSH1 0x0 JUMPDEST DUP4 DUP2 LT ISZERO PUSH3 0x3A5D JUMPI DUP2 DUP2 ADD MLOAD DUP4 DUP3 ADD MSTORE PUSH1 0x20 ADD PUSH3 0x3A43 JUMP JUMPDEST POP POP POP POP SWAP1 POP SWAP1 DUP2 ADD SWAP1 PUSH1 0x1F AND DUP1 ISZERO PUSH3 0x3A8B JUMPI DUP1 DUP3 SUB DUP1 MLOAD PUSH1 0x1 DUP4 PUSH1 0x20 SUB PUSH2 0x100 EXP SUB NOT AND DUP2 MSTORE PUSH1 0x20 ADD SWAP2 POP JUMPDEST POP SWAP3 POP POP POP PUSH1 0x40 MLOAD DUP1 SWAP2 SUB SWAP1 REVERT JUMPDEST PUSH1 0x0 DUP1 PUSH1 0x0 DUP1 PUSH1 0x0 DUP1 PUSH3 0x3AAE DUP10 DUP9 PUSH3 0x3C65 JUMP JUMPDEST DUP10 MLOAD SWAP1 SWAP6 POP SWAP2 SWAP4 POP SWAP2 POP PUSH1 0x0 SWAP1 PUSH3 0x3AD9 SWAP1 PUSH3 0x3ACD SWAP1 DUP12 SWAP1 PUSH3 0x3BDC JUMP JUMPDEST PUSH4 0x3B9ACA00 SWAP1 PUSH3 0x3467 JUMP JUMPDEST SWAP1 POP PUSH3 0x3B1A PUSH3 0x3B0E PUSH4 0x1DA9C00 PUSH3 0x3AF4 DUP6 DUP6 PUSH3 0x3467 JUMP JUMPDEST DUP2 PUSH3 0x3AFC JUMPI INVALID JUMPDEST PUSH8 0xDE0B6B3A7640000 SWAP2 SWAP1 DIV PUSH3 0x3BC9 JUMP JUMPDEST PUSH1 0xE0 DUP11 ADD MLOAD SWAP1 PUSH3 0x3BF2 JUMP JUMPDEST SWAP7 POP PUSH3 0x3B41 PUSH3 0x3B35 PUSH4 0x1DA9C00 PUSH3 0x3AF4 DUP8 DUP6 PUSH3 0x3467 JUMP JUMPDEST PUSH1 0xC0 DUP11 ADD MLOAD SWAP1 PUSH3 0x3BF2 JUMP JUMPDEST SWAP6 POP DUP2 DUP4 EQ ISZERO PUSH3 0x3B5A JUMPI POP PUSH1 0x0 SWAP4 POP PUSH3 0x3BC0 SWAP2 POP POP JUMP JUMPDEST PUSH1 0x0 PUSH3 0x3B81 PUSH3 0x3B75 PUSH4 0x1DA9C00 PUSH3 0x3AF4 DUP8 DUP7 PUSH3 0x3467 JUMP JUMPDEST PUSH1 0xE0 DUP12 ADD MLOAD SWAP1 PUSH3 0x3BF2 JUMP JUMPDEST SWAP1 POP PUSH1 0x0 PUSH3 0x3B91 DUP10 DUP4 PUSH3 0x3BDC JUMP JUMPDEST SWAP1 POP PUSH3 0x3BB8 DUP9 PUSH3 0x3BB1 DUP4 DUP14 PUSH1 0x40 ADD MLOAD PUSH3 0x3467 SWAP1 SWAP2 SWAP1 PUSH4 0xFFFFFFFF AND JUMP JUMPDEST SWAP1 PUSH3 0x3492 JUMP JUMPDEST SWAP7 POP POP POP POP POP POP JUMPDEST SWAP4 POP SWAP4 POP SWAP4 POP SWAP4 JUMP JUMPDEST PUSH1 0x0 DUP3 DUP3 ADD DUP4 DUP2 LT ISZERO PUSH3 0x297A JUMPI PUSH1 0x0 DUP1 REVERT JUMPDEST PUSH1 0x0 DUP3 DUP3 GT ISZERO PUSH3 0x3BEC JUMPI PUSH1 0x0 DUP1 REVERT JUMPDEST POP SWAP1 SUB SWAP1 JUMP JUMPDEST PUSH1 0x0 PUSH3 0x297A PUSH3 0x3C04 DUP5 DUP5 PUSH3 0x3467 JUMP JUMPDEST PUSH8 0xDE0B6B3A7640000 PUSH3 0x3492 JUMP JUMPDEST PUSH1 0x0 PUSH4 0xFFFFFFFF DUP3 GT ISZERO PUSH3 0x2143 JUMPI PUSH1 0x0 DUP1 REVERT JUMPDEST PUSH1 0x0 DUP2 SLT ISZERO PUSH3 0x3C36 JUMPI PUSH1 0x0 DUP1 REVERT JUMPDEST PUSH1 0x0 PUSH3 0x3C46 PUSH2 0xFEE DUP5 PUSH3 0x2F19 JUMP JUMPDEST SWAP1 POP PUSH3 0x3C54 DUP2 DUP4 PUSH3 0x340E JUMP JUMPDEST SWAP1 POP PUSH3 0x2452 PUSH2 0xFEE DUP5 DUP4 PUSH3 0x2F75 JUMP JUMPDEST PUSH1 0x0 DUP1 PUSH1 0x0 DUP1 PUSH1 0x0 DUP6 PUSH1 0x20 ADD MLOAD GT ISZERO PUSH3 0x3CB9 JUMPI PUSH3 0x3CB6 PUSH3 0x3C9A DUP7 PUSH1 0xC0 ADD MLOAD DUP8 PUSH1 0x20 ADD MLOAD PUSH3 0x3467 SWAP1 SWAP2 SWAP1 PUSH4 0xFFFFFFFF AND JUMP JUMPDEST PUSH1 0xE0 DUP8 ADD MLOAD PUSH1 0x40 DUP9 ADD MLOAD PUSH3 0x3CAF SWAP2 PUSH3 0x3467 JUMP JUMPDEST SWAP1 PUSH3 0x3D11 JUMP JUMPDEST SWAP1 POP JUMPDEST PUSH1 0x0 PUSH3 0x3CC6 DUP8 PUSH3 0x3D27 JUMP JUMPDEST SWAP1 POP PUSH3 0x3CD4 DUP2 DUP4 PUSH3 0x3D60 JUMP JUMPDEST SWAP5 POP DUP2 ISZERO PUSH3 0x3CEE JUMPI PUSH3 0x3CEB DUP2 DUP7 PUSH1 0x1 PUSH3 0x3E31 JUMP JUMPDEST SWAP4 POP JUMPDEST PUSH1 0x20 DUP7 ADD MLOAD ISZERO PUSH3 0x3D08 JUMPI PUSH3 0x3D05 DUP6 DUP4 PUSH3 0x3EB7 JUMP JUMPDEST SWAP3 POP JUMPDEST POP POP SWAP3 POP SWAP3 POP SWAP3 JUMP JUMPDEST PUSH1 0x0 PUSH3 0x297A PUSH3 0x2E72 DUP5 PUSH4 0x3B9ACA00 PUSH3 0x3467 JUMP JUMPDEST PUSH3 0x3D31 PUSH3 0x40E3 JUMP JUMPDEST PUSH1 0x0 PUSH3 0x3D3D PUSH3 0x34B3 JUMP JUMPDEST PUSH2 0xFFFF DUP5 AND PUSH1 0x0 SWAP1 DUP2 MSTORE PUSH1 0x20 SWAP2 SWAP1 SWAP2 MSTORE PUSH1 0x40 DUP2 KECCAK256 SLOAD SWAP2 POP PUSH3 0x297A SWAP1 DUP3 PUSH3 0x3ED4 JUMP JUMPDEST PUSH1 0x0 DUP1 DUP4 PUSH1 0x80 ADD MLOAD GT PUSH3 0x3D73 JUMPI PUSH1 0x0 DUP1 REVERT JUMPDEST PUSH4 0x3B9ACA00 DUP3 GT ISZERO PUSH3 0x3D85 JUMPI PUSH1 0x0 DUP1 REVERT JUMPDEST DUP3 MLOAD DUP3 GT PUSH3 0x3DB0 JUMPI DUP3 MLOAD PUSH1 0x40 DUP5 ADD MLOAD PUSH3 0x3DA8 SWAP2 SWAP1 PUSH3 0x3BB1 SWAP1 DUP6 SWAP1 PUSH3 0x3467 JUMP JUMPDEST SWAP1 POP PUSH3 0x24A5 JUMP JUMPDEST DUP3 PUSH1 0x20 ADD MLOAD DUP3 GT PUSH3 0x3DF4 JUMPI PUSH1 0x40 DUP4 ADD MLOAD DUP4 MLOAD PUSH1 0x20 DUP6 ADD MLOAD PUSH1 0x60 DUP7 ADD MLOAD PUSH3 0x3DA8 SWAP4 SWAP3 PUSH3 0x3DED SWAP3 DUP2 SWAP1 SUB SWAP2 PUSH3 0x3BB1 SWAP2 DUP9 SUB SWAP1 DUP6 SWAP1 SUB PUSH3 0x3467 JUMP JUMPDEST SWAP1 PUSH3 0x3BC9 JUMP JUMPDEST PUSH3 0x297A DUP4 PUSH1 0x60 ADD MLOAD PUSH3 0x3DED DUP6 PUSH1 0x20 ADD MLOAD PUSH4 0x3B9ACA00 SUB PUSH3 0x3BB1 DUP8 PUSH1 0x60 ADD MLOAD DUP9 PUSH1 0x80 ADD MLOAD SUB DUP9 PUSH1 0x20 ADD MLOAD DUP9 SUB PUSH3 0x3467 SWAP1 SWAP2 SWAP1 PUSH4 0xFFFFFFFF AND JUMP JUMPDEST PUSH1 0x0 DUP1 PUSH3 0x3E53 PUSH1 0x64 PUSH3 0x3BB1 DUP8 PUSH1 0xE0 ADD MLOAD DUP8 PUSH3 0x3467 SWAP1 SWAP2 SWAP1 PUSH4 0xFFFFFFFF AND JUMP JUMPDEST SWAP1 POP DUP5 PUSH1 0xA0 ADD MLOAD DUP2 LT ISZERO PUSH3 0x3E69 JUMPI POP PUSH1 0xA0 DUP5 ADD MLOAD JUMPDEST DUP5 PUSH1 0xC0 ADD MLOAD DUP2 GT ISZERO PUSH3 0x3E7D JUMPI POP PUSH1 0xC0 DUP5 ADD MLOAD JUMPDEST DUP3 ISZERO PUSH3 0x3E98 JUMPI PUSH3 0x3E90 DUP5 DUP3 PUSH3 0x3BC9 JUMP JUMPDEST SWAP2 POP PUSH3 0x3EAF JUMP JUMPDEST DUP4 DUP2 GT PUSH3 0x3EA9 JUMPI DUP1 DUP5 SUB PUSH3 0x3EAC JUMP JUMPDEST PUSH1 0x0 JUMPDEST SWAP2 POP JUMPDEST POP SWAP4 SWAP3 POP POP POP JUMP JUMPDEST PUSH1 0x0 PUSH3 0x297A PUSH3 0x3EC9 DUP5 DUP5 PUSH3 0x3467 JUMP JUMPDEST PUSH4 0x3B9ACA00 PUSH3 0x3492 JUMP JUMPDEST PUSH3 0x3EDE PUSH3 0x40E3 JUMP JUMPDEST PUSH1 0x64 PUSH4 0x3B9ACA00 DUP4 PUSH1 0xFF DUP7 AND PUSH1 0x20 DUP2 LT PUSH3 0x3EF5 JUMPI INVALID JUMPDEST BYTE MUL DUP2 PUSH3 0x3EFF JUMPI INVALID JUMPDEST DIV DUP2 MSTORE PUSH1 0x64 PUSH4 0x3B9ACA00 DUP4 PUSH1 0xFF DUP7 AND PUSH1 0x1 ADD PUSH1 0x20 DUP2 LT PUSH3 0x3F1C JUMPI INVALID JUMPDEST BYTE MUL DUP2 PUSH3 0x3F26 JUMPI INVALID JUMPDEST DIV DUP2 PUSH1 0x20 ADD DUP2 DUP2 MSTORE POP POP PUSH3 0x3F4E DUP3 PUSH1 0x2 DUP6 PUSH1 0xFF AND ADD PUSH1 0x20 DUP2 LT PUSH3 0x3F47 JUMPI INVALID JUMPDEST BYTE PUSH3 0x4003 JUMP JUMPDEST PUSH1 0x80 DUP3 ADD DUP2 SWAP1 MSTORE PUSH2 0x100 SWAP1 DUP4 PUSH1 0xFF DUP7 AND PUSH1 0x3 ADD PUSH1 0x20 DUP2 LT PUSH3 0x3F6C JUMPI INVALID JUMPDEST BYTE MUL DUP2 PUSH3 0x3F76 JUMPI INVALID JUMPDEST DIV PUSH1 0x40 DUP3 ADD MSTORE PUSH1 0x80 DUP2 ADD MLOAD PUSH2 0x100 SWAP1 DUP4 PUSH1 0xFF DUP7 AND PUSH1 0x4 ADD PUSH1 0x20 DUP2 LT PUSH3 0x3F98 JUMPI INVALID JUMPDEST BYTE MUL DUP2 PUSH3 0x3FA2 JUMPI INVALID JUMPDEST DIV PUSH1 0x60 DUP3 ADD MSTORE PUSH3 0x7A120 DUP3 PUSH1 0xFF DUP6 AND PUSH1 0x5 ADD PUSH1 0x20 DUP2 LT PUSH3 0x3FBF JUMPI INVALID JUMPDEST BYTE MUL PUSH1 0xA0 DUP3 ADD MSTORE PUSH3 0x2625A0 DUP3 PUSH1 0xFF DUP6 AND PUSH1 0x6 ADD PUSH1 0x20 DUP2 LT PUSH3 0x3FDD JUMPI INVALID JUMPDEST BYTE MUL PUSH1 0xC0 DUP3 ADD MSTORE DUP2 PUSH1 0xFF DUP5 AND PUSH1 0x7 ADD PUSH1 0x20 DUP2 LT PUSH3 0x3FF7 JUMPI INVALID JUMPDEST BYTE PUSH1 0xE0 DUP3 ADD MSTORE SWAP3 SWAP2 POP POP JUMP JUMPDEST PUSH1 0x0 DUP2 PUSH1 0xFF AND PUSH1 0x96 LT PUSH3 0x4020 JUMPI PUSH1 0xFF DUP3 AND PUSH3 0x2625A0 MUL PUSH3 0x24A5 JUMP JUMPDEST POP PUSH1 0x95 NOT PUSH1 0xFF SWAP2 SWAP1 SWAP2 AND ADD PUSH3 0xE4E1C0 MUL PUSH4 0x165A0BC0 ADD SWAP1 JUMP JUMPDEST PUSH2 0x99B DUP1 PUSH3 0x5245 DUP4 CODECOPY ADD SWAP1 JUMP JUMPDEST PUSH1 0x40 DUP1 MLOAD PUSH1 0xA0 DUP2 ADD DUP3 MSTORE PUSH1 0x0 DUP1 DUP3 MSTORE PUSH1 0x20 DUP3 ADD DUP2 SWAP1 MSTORE SWAP2 DUP2 ADD DUP3 SWAP1 MSTORE SWAP1 PUSH1 0x60 DUP3 ADD SWAP1 DUP2 MSTORE PUSH1 0x20 ADD PUSH1 0x0 DUP2 MSTORE POP SWAP1 JUMP JUMPDEST PUSH1 0x40 MLOAD DUP1 PUSH1 0x60 ADD PUSH1 0x40 MSTORE DUP1 PUSH1 0x0 DUP2 MSTORE PUSH1 0x20 ADD PUSH1 0x0 DUP2 MSTORE PUSH1 0x20 ADD PUSH1 0x0 DUP2 MSTORE POP SWAP1 JUMP JUMPDEST PUSH1 0x40 MLOAD DUP1 PUSH2 0x120 ADD PUSH1 0x40 MSTORE DUP1 PUSH1 0x0 DUP2 MSTORE PUSH1 0x20 ADD PUSH1 0x0 DUP2 MSTORE PUSH1 0x20 ADD PUSH1 0x0 DUP2 MSTORE PUSH1 0x20 ADD PUSH1 0x0 DUP2 MSTORE PUSH1 0x20 ADD PUSH1 0x0 DUP2 MSTORE PUSH1 0x20 ADD PUSH1 0x0 DUP2 MSTORE PUSH1 0x20 ADD PUSH1 0x0 DUP2 MSTORE PUSH1 0x20 ADD PUSH1 0x0 DUP2 MSTORE PUSH1 0x20 ADD PUSH1 0x0 DUP2 MSTORE POP SWAP1 JUMP JUMPDEST PUSH1 0x40 MLOAD DUP1 PUSH2 0x100 ADD PUSH1 0x40 MSTORE DUP1 PUSH1 0x0 DUP2 MSTORE PUSH1 0x20 ADD PUSH1 0x0 DUP2 MSTORE PUSH1 0x20 ADD PUSH1 0x0 DUP2 MSTORE PUSH1 0x20 ADD PUSH1 0x0 DUP2 MSTORE PUSH1 0x20 ADD PUSH1 0x0 DUP2 MSTORE PUSH1 0x20 ADD PUSH1 0x0 DUP2 MSTORE PUSH1 0x20 ADD PUSH1 0x0 DUP2 MSTORE PUSH1 0x20 ADD PUSH1 0x0 DUP2 MSTORE POP SWAP1 JUMP JUMPDEST PUSH1 0x0 DUP1 DUP4 PUSH1 0x1F DUP5 ADD SLT PUSH3 0x413A JUMPI DUP2 DUP3 REVERT JUMPDEST POP DUP2 CALLDATALOAD PUSH1 0x1 PUSH1 0x1 PUSH1 0x40 SHL SUB DUP2 GT ISZERO PUSH3 0x4151 JUMPI DUP2 DUP3 REVERT JUMPDEST PUSH1 0x20 DUP4 ADD SWAP2 POP DUP4 PUSH1 0x20 DUP1 DUP4 MUL DUP6 ADD ADD GT ISZERO PUSH3 0x416C JUMPI PUSH1 0x0 DUP1 REVERT JUMPDEST SWAP3 POP SWAP3 SWAP1 POP JUMP JUMPDEST DUP1 CALLDATALOAD DUP1 ISZERO ISZERO DUP2 EQ PUSH3 0x1577 JUMPI PUSH1 0x0 DUP1 REVERT JUMPDEST DUP1 CALLDATALOAD PUSH3 0x1577 DUP2 PUSH3 0x521E JUMP JUMPDEST PUSH1 0x0 DUP1 DUP4 PUSH1 0x1F DUP5 ADD SLT PUSH3 0x41A3 JUMPI DUP2 DUP3 REVERT JUMPDEST POP DUP2 CALLDATALOAD PUSH1 0x1 PUSH1 0x1 PUSH1 0x40 SHL SUB DUP2 GT ISZERO PUSH3 0x41BA JUMPI DUP2 DUP3 REVERT JUMPDEST PUSH1 0x20 DUP4 ADD SWAP2 POP DUP4 PUSH1 0x20 DUP3 DUP6 ADD ADD GT ISZERO PUSH3 0x416C JUMPI PUSH1 0x0 DUP1 REVERT JUMPDEST PUSH1 0x0 PUSH2 0x140 DUP3 DUP5 SUB SLT ISZERO PUSH3 0x41E6 JUMPI DUP1 DUP2 REVERT JUMPDEST POP SWAP2 SWAP1 POP JUMP JUMPDEST PUSH1 0x0 PUSH2 0x100 DUP3 DUP5 SUB SLT ISZERO PUSH3 0x41E6 JUMPI DUP1 DUP2 REVERT JUMPDEST DUP1 CALLDATALOAD PUSH2 0xFFFF DUP2 AND DUP2 EQ PUSH3 0x1577 JUMPI PUSH1 0x0 DUP1 REVERT JUMPDEST DUP1 CALLDATALOAD PUSH9 0xFFFFFFFFFFFFFFFFFF DUP2 AND DUP2 EQ PUSH3 0x1577 JUMPI PUSH1 0x0 DUP1 REVERT JUMPDEST DUP1 CALLDATALOAD PUSH3 0x1577 DUP2 PUSH3 0x5234 JUMP JUMPDEST PUSH1 0x0 PUSH1 0x20 DUP3 DUP5 SUB SLT ISZERO PUSH3 0x424B JUMPI DUP1 DUP2 REVERT JUMPDEST DUP2 CALLDATALOAD PUSH3 0x297A DUP2 PUSH3 0x521E JUMP JUMPDEST PUSH1 0x0 PUSH1 0x20 DUP3 DUP5 SUB SLT ISZERO PUSH3 0x426A JUMPI DUP1 DUP2 REVERT JUMPDEST DUP2 MLOAD PUSH3 0x297A DUP2 PUSH3 0x521E JUMP JUMPDEST PUSH1 0x0 DUP1 PUSH1 0x40 DUP4 DUP6 SUB SLT ISZERO PUSH3 0x428A JUMPI DUP1 DUP2 REVERT JUMPDEST DUP3 CALLDATALOAD PUSH3 0x4297 DUP2 PUSH3 0x521E JUMP JUMPDEST SWAP2 POP PUSH1 0x20 DUP4 ADD CALLDATALOAD PUSH3 0x42A9 DUP2 PUSH3 0x521E JUMP JUMPDEST DUP1 SWAP2 POP POP SWAP3 POP SWAP3 SWAP1 POP JUMP JUMPDEST PUSH1 0x0 DUP1 PUSH1 0x40 DUP4 DUP6 SUB SLT ISZERO PUSH3 0x42C7 JUMPI DUP2 DUP3 REVERT JUMPDEST DUP3 CALLDATALOAD PUSH3 0x42D4 DUP2 PUSH3 0x521E JUMP JUMPDEST SWAP2 POP PUSH3 0x42E4 PUSH1 0x20 DUP5 ADD PUSH3 0x4173 JUMP JUMPDEST SWAP1 POP SWAP3 POP SWAP3 SWAP1 POP JUMP JUMPDEST PUSH1 0x0 DUP1 PUSH1 0x40 DUP4 DUP6 SUB SLT ISZERO PUSH3 0x4300 JUMPI DUP2 DUP3 REVERT JUMPDEST DUP3 CALLDATALOAD PUSH3 0x430D DUP2 PUSH3 0x521E JUMP JUMPDEST SWAP2 POP PUSH1 0x20 DUP4 DUP2 ADD CALLDATALOAD PUSH1 0x1 PUSH1 0x1 PUSH1 0x40 SHL SUB DUP1 DUP3 GT ISZERO PUSH3 0x432A JUMPI DUP4 DUP5 REVERT JUMPDEST DUP2 DUP7 ADD SWAP2 POP DUP7 PUSH1 0x1F DUP4 ADD SLT PUSH3 0x433E JUMPI DUP4 DUP5 REVERT JUMPDEST DUP2 CALLDATALOAD DUP2 DUP2 GT ISZERO PUSH3 0x434B JUMPI INVALID JUMPDEST PUSH3 0x435F PUSH1 0x1F DUP3 ADD PUSH1 0x1F NOT AND DUP6 ADD PUSH3 0x51FA JUMP JUMPDEST SWAP2 POP DUP1 DUP3 MSTORE DUP8 DUP5 DUP3 DUP6 ADD ADD GT ISZERO PUSH3 0x4375 JUMPI DUP5 DUP6 REVERT JUMPDEST DUP1 DUP5 DUP5 ADD DUP6 DUP5 ADD CALLDATACOPY DUP2 ADD SWAP1 SWAP3 ADD SWAP3 SWAP1 SWAP3 MSTORE SWAP2 SWAP5 SWAP2 SWAP4 POP SWAP1 SWAP2 POP POP JUMP JUMPDEST PUSH1 0x0 PUSH1 0x20 DUP1 DUP4 DUP6 SUB SLT ISZERO PUSH3 0x43A4 JUMPI DUP2 DUP3 REVERT JUMPDEST DUP3 MLOAD PUSH1 0x1 PUSH1 0x1 PUSH1 0x40 SHL SUB DUP1 DUP3 GT ISZERO PUSH3 0x43BB JUMPI DUP4 DUP5 REVERT JUMPDEST DUP2 DUP6 ADD SWAP2 POP DUP6 PUSH1 0x1F DUP4 ADD SLT PUSH3 0x43CF JUMPI DUP4 DUP5 REVERT JUMPDEST DUP2 MLOAD DUP2 DUP2 GT ISZERO PUSH3 0x43DC JUMPI INVALID JUMPDEST DUP4 DUP2 MUL SWAP2 POP PUSH3 0x43EE DUP5 DUP4 ADD PUSH3 0x51FA JUMP JUMPDEST DUP2 DUP2 MSTORE DUP5 DUP2 ADD SWAP1 DUP5 DUP7 ADD DUP5 DUP7 ADD DUP8 ADD DUP11 LT ISZERO PUSH3 0x4409 JUMPI DUP8 DUP9 REVERT JUMPDEST DUP8 SWAP6 POP JUMPDEST DUP4 DUP7 LT ISZERO PUSH3 0x443B JUMPI DUP1 MLOAD SWAP5 POP PUSH3 0x4425 DUP6 PUSH3 0x521E JUMP JUMPDEST DUP5 DUP4 MSTORE PUSH1 0x1 SWAP6 SWAP1 SWAP6 ADD SWAP5 SWAP2 DUP7 ADD SWAP2 DUP7 ADD PUSH3 0x440D JUMP JUMPDEST POP SWAP9 SWAP8 POP POP POP POP POP POP POP POP JUMP JUMPDEST PUSH1 0x0 DUP1 PUSH1 0x40 DUP4 DUP6 SUB SLT ISZERO PUSH3 0x445B JUMPI DUP2 DUP3 REVERT JUMPDEST DUP3 CALLDATALOAD PUSH1 0x4 DUP2 LT PUSH3 0x4297 JUMPI DUP3 DUP4 REVERT JUMPDEST PUSH1 0x0 PUSH2 0x140 DUP1 DUP4 DUP6 SUB SLT ISZERO PUSH3 0x447E JUMPI DUP2 DUP3 REVERT JUMPDEST PUSH3 0x4489 DUP2 PUSH3 0x51FA JUMP JUMPDEST SWAP1 POP PUSH3 0x4496 DUP4 PUSH3 0x422C JUMP JUMPDEST DUP2 MSTORE PUSH3 0x44A6 PUSH1 0x20 DUP5 ADD PUSH3 0x422C JUMP JUMPDEST PUSH1 0x20 DUP3 ADD MSTORE PUSH3 0x44B9 PUSH1 0x40 DUP5 ADD PUSH3 0x422C JUMP JUMPDEST PUSH1 0x40 DUP3 ADD MSTORE PUSH3 0x44CC PUSH1 0x60 DUP5 ADD PUSH3 0x422C JUMP JUMPDEST PUSH1 0x60 DUP3 ADD MSTORE PUSH3 0x44DF PUSH1 0x80 DUP5 ADD PUSH3 0x422C JUMP JUMPDEST PUSH1 0x80 DUP3 ADD MSTORE PUSH3 0x44F2 PUSH1 0xA0 DUP5 ADD PUSH3 0x422C JUMP JUMPDEST PUSH1 0xA0 DUP3 ADD MSTORE PUSH3 0x4505 PUSH1 0xC0 DUP5 ADD PUSH3 0x422C JUMP JUMPDEST PUSH1 0xC0 DUP3 ADD MSTORE PUSH3 0x4518 PUSH1 0xE0 DUP5 ADD PUSH3 0x422C JUMP JUMPDEST PUSH1 0xE0 DUP3 ADD MSTORE PUSH2 0x100 PUSH3 0x452D DUP2 DUP6 ADD PUSH3 0x422C JUMP JUMPDEST SWAP1 DUP3 ADD MSTORE PUSH2 0x120 PUSH3 0x4541 DUP5 DUP3 ADD PUSH3 0x422C JUMP JUMPDEST SWAP1 DUP3 ADD MSTORE SWAP4 SWAP3 POP POP POP JUMP JUMPDEST PUSH1 0x0 PUSH2 0x100 DUP1 DUP4 DUP6 SUB SLT ISZERO PUSH3 0x4560 JUMPI DUP2 DUP3 REVERT JUMPDEST PUSH1 0x40 MLOAD SWAP1 DUP2 ADD SWAP1 PUSH1 0x1 PUSH1 0x1 PUSH1 0x40 SHL SUB DUP3 GT DUP2 DUP4 LT OR ISZERO PUSH3 0x457D JUMPI INVALID JUMPDEST DUP2 PUSH1 0x40 MSTORE PUSH3 0x458C DUP5 PUSH3 0x422C JUMP JUMPDEST DUP2 MSTORE PUSH3 0x459C PUSH1 0x20 DUP6 ADD PUSH3 0x422C JUMP JUMPDEST PUSH1 0x20 DUP3 ADD MSTORE PUSH3 0x45AF PUSH1 0x40 DUP6 ADD PUSH3 0x422C JUMP JUMPDEST PUSH1 0x40 DUP3 ADD MSTORE PUSH3 0x45C2 PUSH1 0x60 DUP6 ADD PUSH3 0x422C JUMP JUMPDEST PUSH1 0x60 DUP3 ADD MSTORE PUSH3 0x45D5 PUSH1 0x80 DUP6 ADD PUSH3 0x422C JUMP JUMPDEST PUSH1 0x80 DUP3 ADD MSTORE PUSH3 0x45E8 PUSH1 0xA0 DUP6 ADD PUSH3 0x422C JUMP JUMPDEST PUSH1 0xA0 DUP3 ADD MSTORE PUSH3 0x45FB PUSH1 0xC0 DUP6 ADD PUSH3 0x422C JUMP JUMPDEST PUSH1 0xC0 DUP3 ADD MSTORE PUSH3 0x460E PUSH1 0xE0 DUP6 ADD PUSH3 0x422C JUMP JUMPDEST PUSH1 0xE0 DUP3 ADD MSTORE SWAP5 SWAP4 POP POP POP POP JUMP JUMPDEST PUSH1 0x0 DUP1 PUSH1 0x0 DUP1 PUSH1 0x0 DUP1 PUSH1 0x0 DUP1 PUSH1 0x0 DUP1 DUP11 DUP13 SUB PUSH2 0x300 DUP2 SLT ISZERO PUSH3 0x463C JUMPI DUP7 DUP8 REVERT JUMPDEST PUSH1 0xA0 DUP2 SLT ISZERO PUSH3 0x464A JUMPI DUP7 DUP8 REVERT JUMPDEST DUP12 SWAP11 POP PUSH1 0xC0 PUSH1 0x9F NOT DUP3 ADD SLT ISZERO PUSH3 0x465F JUMPI DUP7 DUP8 REVERT JUMPDEST POP PUSH1 0x40 MLOAD PUSH1 0x1 PUSH1 0x1 PUSH1 0x40 SHL SUB DUP2 PUSH1 0xC0 DUP4 ADD LT DUP2 PUSH1 0xC0 DUP5 ADD GT OR ISZERO PUSH3 0x4680 JUMPI INVALID JUMPDEST PUSH1 0xC0 DUP3 ADD PUSH1 0x40 MSTORE PUSH1 0xA0 DUP14 ADD CALLDATALOAD PUSH3 0x4697 DUP2 PUSH3 0x521E JUMP JUMPDEST DUP3 MSTORE PUSH1 0xC0 DUP14 ADD CALLDATALOAD PUSH3 0x46A9 DUP2 PUSH3 0x5234 JUMP JUMPDEST PUSH1 0x20 DUP4 ADD MSTORE PUSH3 0x46BC PUSH1 0xE0 DUP15 ADD PUSH3 0x4173 JUMP JUMPDEST PUSH1 0x40 DUP4 ADD MSTORE PUSH3 0x46D0 PUSH2 0x100 DUP15 ADD PUSH3 0x422C JUMP JUMPDEST PUSH1 0x60 DUP4 ADD MSTORE PUSH3 0x46E4 PUSH2 0x120 DUP15 ADD PUSH3 0x422C JUMP JUMPDEST PUSH1 0x80 DUP4 ADD MSTORE PUSH3 0x46F8 PUSH2 0x140 DUP15 ADD PUSH3 0x422C JUMP JUMPDEST PUSH1 0xA0 DUP4 ADD MSTORE DUP2 SWAP11 POP PUSH3 0x4710 DUP15 PUSH2 0x160 DUP16 ADD PUSH3 0x41EC JUMP JUMPDEST SWAP10 POP PUSH3 0x4721 PUSH2 0x260 DUP15 ADD PUSH3 0x4184 JUMP JUMPDEST SWAP9 POP PUSH3 0x4732 PUSH2 0x280 DUP15 ADD PUSH3 0x4173 JUMP JUMPDEST SWAP8 POP PUSH3 0x4743 PUSH2 0x2A0 DUP15 ADD PUSH3 0x422C JUMP JUMPDEST SWAP7 POP PUSH2 0x2C0 DUP14 ADD CALLDATALOAD SWAP2 POP DUP1 DUP3 GT ISZERO PUSH3 0x475A JUMPI DUP6 DUP7 REVERT JUMPDEST PUSH3 0x4768 DUP15 DUP4 DUP16 ADD PUSH3 0x4191 JUMP JUMPDEST SWAP1 SWAP7 POP SWAP5 POP PUSH2 0x2E0 DUP14 ADD CALLDATALOAD SWAP2 POP DUP1 DUP3 GT ISZERO PUSH3 0x4782 JUMPI DUP4 DUP5 REVERT JUMPDEST POP PUSH3 0x4791 DUP14 DUP3 DUP15 ADD PUSH3 0x4191 JUMP JUMPDEST SWAP2 POP DUP1 SWAP4 POP POP DUP1 SWAP2 POP POP SWAP3 SWAP6 SWAP9 SWAP12 SWAP2 SWAP5 SWAP8 SWAP11 POP SWAP3 SWAP6 SWAP9 POP JUMP JUMPDEST PUSH1 0x0 PUSH1 0xA0 DUP3 DUP5 SUB SLT ISZERO PUSH3 0x47BC JUMPI DUP1 DUP2 REVERT JUMPDEST PUSH1 0x40 MLOAD PUSH1 0xA0 DUP2 ADD DUP2 DUP2 LT PUSH1 0x1 PUSH1 0x1 PUSH1 0x40 SHL SUB DUP3 GT OR ISZERO PUSH3 0x47D9 JUMPI INVALID JUMPDEST PUSH1 0x40 MSTORE DUP3 CALLDATALOAD PUSH3 0x47E9 DUP2 PUSH3 0x521E JUMP JUMPDEST DUP2 MSTORE PUSH3 0x47F9 PUSH1 0x20 DUP5 ADD PUSH3 0x4173 JUMP JUMPDEST PUSH1 0x20 DUP3 ADD MSTORE PUSH1 0x40 DUP4 ADD CALLDATALOAD PUSH1 0x6 DUP2 LT PUSH3 0x4810 JUMPI DUP3 DUP4 REVERT JUMPDEST PUSH1 0x40 DUP3 ADD MSTORE PUSH1 0x60 DUP4 ADD CALLDATALOAD PUSH3 0x4825 DUP2 PUSH3 0x5234 JUMP JUMPDEST PUSH1 0x60 DUP3 ADD MSTORE PUSH3 0x4838 PUSH1 0x80 DUP5 ADD PUSH3 0x4212 JUMP JUMPDEST PUSH1 0x80 DUP3 ADD MSTORE SWAP4 SWAP3 POP POP POP JUMP JUMPDEST PUSH1 0x0 DUP1 PUSH1 0x0 DUP1 PUSH1 0x0 PUSH1 0x60 DUP7 DUP9 SUB SLT ISZERO PUSH3 0x485C JUMPI DUP3 DUP4 REVERT JUMPDEST PUSH3 0x4867 DUP7 PUSH3 0x41FF JUMP JUMPDEST SWAP5 POP PUSH1 0x20 DUP7 ADD CALLDATALOAD PUSH1 0x1 PUSH1 0x1 PUSH1 0x40 SHL SUB DUP1 DUP3 GT ISZERO PUSH3 0x4883 JUMPI DUP5 DUP6 REVERT JUMPDEST PUSH3 0x4891 DUP10 DUP4 DUP11 ADD PUSH3 0x4128 JUMP JUMPDEST SWAP1 SWAP7 POP SWAP5 POP PUSH1 0x40 DUP9 ADD CALLDATALOAD SWAP2 POP DUP1 DUP3 GT ISZERO PUSH3 0x48AA JUMPI DUP3 DUP4 REVERT JUMPDEST POP PUSH3 0x48B9 DUP9 DUP3 DUP10 ADD PUSH3 0x4128 JUMP JUMPDEST SWAP7 SWAP10 SWAP6 SWAP9 POP SWAP4 SWAP7 POP SWAP3 SWAP5 SWAP4 SWAP3 POP POP POP JUMP JUMPDEST PUSH1 0x0 DUP1 PUSH1 0x0 DUP1 PUSH1 0x0 PUSH1 0x60 DUP7 DUP9 SUB SLT ISZERO PUSH3 0x48E2 JUMPI DUP3 DUP4 REVERT JUMPDEST PUSH3 0x48ED DUP7 PUSH3 0x41FF JUMP JUMPDEST SWAP5 POP PUSH1 0x20 DUP7 ADD CALLDATALOAD PUSH1 0x1 PUSH1 0x1 PUSH1 0x40 SHL SUB DUP1 DUP3 GT ISZERO PUSH3 0x4909 JUMPI DUP5 DUP6 REVERT JUMPDEST PUSH3 0x4917 DUP10 DUP4 DUP11 ADD PUSH3 0x4128 JUMP JUMPDEST SWAP1 SWAP7 POP SWAP5 POP PUSH1 0x40 DUP9 ADD CALLDATALOAD SWAP2 POP DUP1 DUP3 GT ISZERO PUSH3 0x4930 JUMPI DUP3 DUP4 REVERT JUMPDEST DUP2 DUP9 ADD SWAP2 POP DUP9 PUSH1 0x1F DUP4 ADD SLT PUSH3 0x4944 JUMPI DUP3 DUP4 REVERT JUMPDEST DUP2 CALLDATALOAD DUP2 DUP2 GT ISZERO PUSH3 0x4953 JUMPI DUP4 DUP5 REVERT JUMPDEST DUP10 PUSH1 0x20 PUSH2 0x100 DUP4 MUL DUP6 ADD ADD GT ISZERO PUSH3 0x4969 JUMPI DUP4 DUP5 REVERT JUMPDEST SWAP7 SWAP10 SWAP6 SWAP9 POP SWAP4 SWAP7 POP PUSH1 0x20 ADD SWAP5 SWAP4 SWAP3 POP POP POP JUMP JUMPDEST PUSH1 0x0 DUP1 PUSH1 0x0 DUP1 PUSH1 0x0 DUP1 PUSH1 0xC0 DUP8 DUP10 SUB SLT ISZERO PUSH3 0x4995 JUMPI DUP4 DUP5 REVERT JUMPDEST PUSH3 0x49A0 DUP8 PUSH3 0x41FF JUMP JUMPDEST SWAP6 POP PUSH1 0x20 DUP8 ADD CALLDATALOAD PUSH3 0x49B2 DUP2 PUSH3 0x521E JUMP JUMPDEST SWAP5 POP PUSH3 0x49C2 PUSH1 0x40 DUP9 ADD PUSH3 0x4173 JUMP JUMPDEST SWAP4 POP PUSH1 0x60 DUP8 ADD CALLDATALOAD PUSH3 0x49D4 DUP2 PUSH3 0x5234 JUMP JUMPDEST SWAP3 POP PUSH1 0x80 DUP8 ADD CALLDATALOAD PUSH3 0x49E6 DUP2 PUSH3 0x5234 JUMP JUMPDEST SWAP2 POP PUSH1 0xA0 DUP8 ADD CALLDATALOAD PUSH3 0x49F8 DUP2 PUSH3 0x5234 JUMP JUMPDEST DUP1 SWAP2 POP POP SWAP3 SWAP6 POP SWAP3 SWAP6 POP SWAP3 SWAP6 JUMP JUMPDEST PUSH1 0x0 DUP1 PUSH1 0x40 DUP4 DUP6 SUB SLT ISZERO PUSH3 0x4A19 JUMPI DUP2 DUP3 REVERT JUMPDEST PUSH3 0x4297 DUP4 PUSH3 0x41FF JUMP JUMPDEST PUSH1 0x0 DUP1 PUSH1 0x0 DUP1 PUSH1 0x0 PUSH1 0x60 DUP7 DUP9 SUB SLT ISZERO PUSH3 0x4A3C JUMPI DUP3 DUP4 REVERT JUMPDEST PUSH3 0x4A47 DUP7 PUSH3 0x41FF JUMP JUMPDEST SWAP5 POP PUSH1 0x20 DUP7 ADD CALLDATALOAD PUSH1 0x1 PUSH1 0x1 PUSH1 0x40 SHL SUB DUP1 DUP3 GT ISZERO PUSH3 0x4A63 JUMPI DUP5 DUP6 REVERT JUMPDEST PUSH3 0x4A71 DUP10 DUP4 DUP11 ADD PUSH3 0x4191 JUMP JUMPDEST SWAP1 SWAP7 POP SWAP5 POP PUSH1 0x40 DUP9 ADD CALLDATALOAD SWAP2 POP DUP1 DUP3 GT ISZERO PUSH3 0x4A8A JUMPI DUP3 DUP4 REVERT JUMPDEST POP PUSH3 0x48B9 DUP9 DUP3 DUP10 ADD PUSH3 0x4191 JUMP JUMPDEST PUSH1 0x0 DUP1 PUSH2 0x160 DUP4 DUP6 SUB SLT ISZERO PUSH3 0x4AAD JUMPI DUP2 DUP3 REVERT JUMPDEST PUSH3 0x4AB8 DUP4 PUSH3 0x41FF JUMP JUMPDEST SWAP2 POP PUSH3 0x42E4 DUP5 PUSH1 0x20 DUP6 ADD PUSH3 0x41D3 JUMP JUMPDEST PUSH1 0x0 DUP1 PUSH1 0x0 DUP1 PUSH1 0x0 DUP1 PUSH2 0x1A0 DUP8 DUP10 SUB SLT ISZERO PUSH3 0x4AE3 JUMPI DUP4 DUP5 REVERT JUMPDEST PUSH3 0x4AEE DUP8 PUSH3 0x41FF JUMP JUMPDEST SWAP6 POP PUSH3 0x4AFF DUP9 PUSH1 0x20 DUP10 ADD PUSH3 0x41D3 JUMP JUMPDEST SWAP5 POP PUSH2 0x160 DUP8 ADD CALLDATALOAD PUSH1 0x1 PUSH1 0x1 PUSH1 0x40 SHL SUB DUP1 DUP3 GT ISZERO PUSH3 0x4B1C JUMPI DUP6 DUP7 REVERT JUMPDEST PUSH3 0x4B2A DUP11 DUP4 DUP12 ADD PUSH3 0x4191 JUMP JUMPDEST SWAP1 SWAP7 POP SWAP5 POP PUSH2 0x180 DUP10 ADD CALLDATALOAD SWAP2 POP DUP1 DUP3 GT ISZERO PUSH3 0x4B44 JUMPI DUP4 DUP5 REVERT JUMPDEST POP PUSH3 0x4B53 DUP10 DUP3 DUP11 ADD PUSH3 0x4191 JUMP JUMPDEST SWAP8 SWAP11 SWAP7 SWAP10 POP SWAP5 SWAP8 POP SWAP3 SWAP6 SWAP4 SWAP5 SWAP3 POP POP POP JUMP JUMPDEST PUSH1 0x0 DUP1 PUSH2 0x120 DUP4 DUP6 SUB SLT ISZERO PUSH3 0x4B79 JUMPI DUP2 DUP3 REVERT JUMPDEST PUSH3 0x4B84 DUP4 PUSH3 0x41FF JUMP JUMPDEST SWAP2 POP PUSH3 0x42E4 DUP5 PUSH1 0x20 DUP6 ADD PUSH3 0x41EC JUMP JUMPDEST PUSH1 0x0 DUP1 PUSH1 0x40 DUP4 DUP6 SUB SLT ISZERO PUSH3 0x4BA8 JUMPI DUP2 DUP3 REVERT JUMPDEST PUSH3 0x4BB3 DUP4 PUSH3 0x41FF JUMP JUMPDEST SWAP5 PUSH1 0x20 SWAP4 SWAP1 SWAP4 ADD CALLDATALOAD SWAP4 POP POP POP JUMP JUMPDEST PUSH1 0x0 DUP1 PUSH1 0x0 DUP1 PUSH1 0x0 DUP1 PUSH1 0xC0 DUP8 DUP10 SUB SLT ISZERO PUSH3 0x4BDA JUMPI DUP4 DUP5 REVERT JUMPDEST PUSH3 0x4BE5 DUP8 PUSH3 0x41FF JUMP JUMPDEST SWAP6 POP PUSH1 0x20 DUP8 ADD CALLDATALOAD PUSH3 0x4BF7 DUP2 PUSH3 0x5234 JUMP JUMPDEST SWAP5 POP PUSH1 0x40 DUP8 ADD CALLDATALOAD PUSH3 0x49C2 DUP2 PUSH3 0x5234 JUMP JUMPDEST PUSH1 0x0 PUSH1 0x20 DUP3 DUP5 SUB SLT ISZERO PUSH3 0x4C1B JUMPI DUP1 DUP2 REVERT JUMPDEST POP MLOAD SWAP2 SWAP1 POP JUMP JUMPDEST PUSH1 0x0 DUP1 PUSH1 0x40 DUP4 DUP6 SUB SLT ISZERO PUSH3 0x4C35 JUMPI DUP2 DUP3 REVERT JUMPDEST POP POP DUP1 MLOAD PUSH1 0x20 SWAP1 SWAP2 ADD MLOAD SWAP1 SWAP3 SWAP1 SWAP2 POP JUMP JUMPDEST PUSH1 0x0 PUSH1 0x20 DUP3 DUP5 SUB SLT ISZERO PUSH3 0x4C58 JUMPI DUP1 DUP2 REVERT JUMPDEST DUP2 CALLDATALOAD PUSH4 0xFFFFFFFF DUP2 AND DUP2 EQ PUSH3 0x297A JUMPI DUP2 DUP3 REVERT JUMPDEST PUSH1 0x0 PUSH1 0x20 DUP3 DUP5 SUB SLT ISZERO PUSH3 0x4C7E JUMPI DUP1 DUP2 REVERT JUMPDEST DUP2 CALLDATALOAD PUSH3 0x297A DUP2 PUSH3 0x5234 JUMP JUMPDEST PUSH1 0x0 PUSH1 0x20 DUP3 DUP5 SUB SLT ISZERO PUSH3 0x4C9D JUMPI DUP1 DUP2 REVERT JUMPDEST DUP2 MLOAD PUSH3 0x297A DUP2 PUSH3 0x5234 JUMP JUMPDEST PUSH1 0x0 DUP3 DUP5 MSTORE DUP3 DUP3 PUSH1 0x20 DUP7 ADD CALLDATACOPY DUP1 PUSH1 0x20 DUP5 DUP7 ADD ADD MSTORE PUSH1 0x20 PUSH1 0x1F NOT PUSH1 0x1F DUP6 ADD AND DUP6 ADD ADD SWAP1 POP SWAP4 SWAP3 POP POP POP JUMP JUMPDEST PUSH1 0x1 PUSH1 0x1 PUSH1 0xA0 SHL SUB SWAP2 SWAP1 SWAP2 AND DUP2 MSTORE PUSH1 0x20 ADD SWAP1 JUMP JUMPDEST PUSH1 0x1 PUSH1 0x1 PUSH1 0xA0 SHL SUB SWAP3 SWAP1 SWAP3 AND DUP3 MSTORE ISZERO ISZERO PUSH1 0x20 DUP3 ADD MSTORE PUSH1 0x40 ADD SWAP1 JUMP JUMPDEST PUSH1 0x0 PUSH1 0x1 DUP1 PUSH1 0xA0 SHL SUB DUP5 AND DUP3 MSTORE PUSH1 0x20 PUSH1 0x40 DUP2 DUP5 ADD MSTORE DUP4 MLOAD DUP1 PUSH1 0x40 DUP6 ADD MSTORE DUP3 JUMPDEST DUP2 DUP2 LT ISZERO PUSH3 0x4D40 JUMPI DUP6 DUP2 ADD DUP4 ADD MLOAD DUP6 DUP3 ADD PUSH1 0x60 ADD MSTORE DUP3 ADD PUSH3 0x4D22 JUMP JUMPDEST DUP2 DUP2 GT ISZERO PUSH3 0x4D52 JUMPI DUP4 PUSH1 0x60 DUP4 DUP8 ADD ADD MSTORE JUMPDEST POP PUSH1 0x1F ADD PUSH1 0x1F NOT AND SWAP3 SWAP1 SWAP3 ADD PUSH1 0x60 ADD SWAP5 SWAP4 POP POP POP POP JUMP JUMPDEST PUSH1 0x1 PUSH1 0x1 PUSH1 0xA0 SHL SUB SWAP3 SWAP1 SWAP3 AND DUP3 MSTORE PUSH1 0x20 DUP3 ADD MSTORE PUSH1 0x40 ADD SWAP1 JUMP JUMPDEST PUSH1 0x20 DUP1 DUP3 MSTORE PUSH1 0x19 SWAP1 DUP3 ADD MSTORE PUSH32 0x50543A206C65766572616765207368617265206C656E67746800000000000000 PUSH1 0x40 DUP3 ADD MSTORE PUSH1 0x60 ADD SWAP1 JUMP JUMPDEST PUSH1 0x20 DUP1 DUP3 MSTORE PUSH1 0x16 SWAP1 DUP3 ADD MSTORE PUSH22 0xA0A87440E0E4DEE0DEE4E8D2DEDCE640D8CADCCEE8D PUSH1 0x53 SHL PUSH1 0x40 DUP3 ADD MSTORE PUSH1 0x60 ADD SWAP1 JUMP JUMPDEST PUSH1 0x20 DUP1 DUP3 MSTORE PUSH1 0x13 SWAP1 DUP3 ADD MSTORE PUSH19 0x50543A2063757272656E637920657869737473 PUSH1 0x68 SHL PUSH1 0x40 DUP3 ADD MSTORE PUSH1 0x60 ADD SWAP1 JUMP JUMPDEST PUSH1 0x20 DUP1 DUP3 MSTORE PUSH1 0x13 SWAP1 DUP3 ADD MSTORE PUSH19 0x54483A2061646472657373206973207A65726F PUSH1 0x68 SHL PUSH1 0x40 DUP3 ADD MSTORE PUSH1 0x60 ADD SWAP1 JUMP JUMPDEST PUSH1 0x20 DUP1 DUP3 MSTORE PUSH1 0xF SWAP1 DUP3 ADD MSTORE PUSH15 0x125B9D985B1A59081A185A5C98DD5D PUSH1 0x8A SHL PUSH1 0x40 DUP3 ADD MSTORE PUSH1 0x60 ADD SWAP1 JUMP JUMPDEST PUSH1 0x20 DUP1 DUP3 MSTORE PUSH1 0x15 SWAP1 DUP3 ADD MSTORE PUSH21 0x4F776E61626C653A207A65726F2061646472657373 PUSH1 0x58 SHL PUSH1 0x40 DUP3 ADD MSTORE PUSH1 0x60 ADD SWAP1 JUMP JUMPDEST PUSH1 0x20 DUP1 DUP3 MSTORE PUSH1 0x11 SWAP1 DUP3 ADD MSTORE PUSH17 0x496E76616C696420646973636F756E7473 PUSH1 0x78 SHL PUSH1 0x40 DUP3 ADD MSTORE PUSH1 0x60 ADD SWAP1 JUMP JUMPDEST PUSH1 0x20 DUP1 DUP3 MSTORE PUSH1 0x14 SWAP1 DUP3 ADD MSTORE PUSH20 0x54483A20696E76616C696420646563696D616C73 PUSH1 0x60 SHL PUSH1 0x40 DUP3 ADD MSTORE PUSH1 0x60 ADD SWAP1 JUMP JUMPDEST PUSH1 0x20 DUP1 DUP3 MSTORE PUSH1 0x19 SWAP1 DUP3 ADD MSTORE PUSH32 0x54483A20746F6B656E2063616E6E6F7420626520726573657400000000000000 PUSH1 0x40 DUP3 ADD MSTORE PUSH1 0x60 ADD SWAP1 JUMP JUMPDEST PUSH1 0x20 DUP1 DUP3 MSTORE PUSH1 0x22 SWAP1 DUP3 ADD MSTORE PUSH32 0x50543A20616E6E75616C697A656420616E63686F72207261746573206C656E67 PUSH1 0x40 DUP3 ADD MSTORE PUSH2 0xE8D PUSH1 0xF3 SHL PUSH1 0x60 DUP3 ADD MSTORE PUSH1 0x80 ADD SWAP1 JUMP JUMPDEST PUSH1 0x20 DUP1 DUP3 MSTORE PUSH1 0x16 SWAP1 DUP3 ADD MSTORE PUSH22 0x14150E881B195D995C9859D9481D1A1C995CDA1BDB19 PUSH1 0x52 SHL PUSH1 0x40 DUP3 ADD MSTORE PUSH1 0x60 ADD SWAP1 JUMP JUMPDEST PUSH1 0x20 DUP1 DUP3 MSTORE DUP2 DUP2 ADD MSTORE PUSH32 0x4F776E61626C653A2063616C6C6572206973206E6F7420746865206F776E6572 PUSH1 0x40 DUP3 ADD MSTORE PUSH1 0x60 ADD SWAP1 JUMP JUMPDEST PUSH1 0x20 DUP1 DUP3 MSTORE PUSH1 0x14 SWAP1 DUP3 ADD MSTORE PUSH20 0x556E617574686F72697A65642075706772616465 PUSH1 0x60 SHL PUSH1 0x40 DUP3 ADD MSTORE PUSH1 0x60 ADD SWAP1 JUMP JUMPDEST PUSH1 0x20 DUP1 DUP3 MSTORE DUP2 DUP2 ADD MSTORE PUSH32 0x4F776E61626C653A2063616C6C657220213D2070656E64696E67206F776E6572 PUSH1 0x40 DUP3 ADD MSTORE PUSH1 0x60 ADD SWAP1 JUMP JUMPDEST PUSH1 0x20 DUP1 DUP3 MSTORE PUSH1 0x16 SWAP1 DUP3 ADD MSTORE PUSH22 0x50543A206465706F736974207368617265732073756D PUSH1 0x50 SHL PUSH1 0x40 DUP3 ADD MSTORE PUSH1 0x60 ADD SWAP1 JUMP JUMPDEST PUSH1 0x20 DUP1 DUP3 MSTORE PUSH1 0x13 SWAP1 DUP3 ADD MSTORE PUSH19 0x125B9D985B1A590818DD5C9C995B98DE481A59 PUSH1 0x6A SHL PUSH1 0x40 DUP3 ADD MSTORE PUSH1 0x60 ADD SWAP1 JUMP JUMPDEST PUSH1 0x20 DUP1 DUP3 MSTORE PUSH1 0x18 SWAP1 DUP3 ADD MSTORE PUSH32 0x50543A206465706F736974207368617265206C656E6774680000000000000000 PUSH1 0x40 DUP3 ADD MSTORE PUSH1 0x60 ADD SWAP1 JUMP JUMPDEST PUSH1 0x20 DUP1 DUP3 MSTORE PUSH1 0x18 SWAP1 DUP3 ADD MSTORE PUSH32 0x50543A20746F6B656E2061646472657373206578697374730000000000000000 PUSH1 0x40 DUP3 ADD MSTORE PUSH1 0x60 ADD SWAP1 JUMP JUMPDEST PUSH1 0x20 DUP1 DUP3 MSTORE PUSH1 0x16 SWAP1 DUP3 ADD MSTORE PUSH22 0x282A1D1034B73B30B634B210383937B837B93A34B7B7 PUSH1 0x51 SHL PUSH1 0x40 DUP3 ADD MSTORE PUSH1 0x60 ADD SWAP1 JUMP JUMPDEST PUSH1 0x20 DUP1 DUP3 MSTORE PUSH1 0x12 SWAP1 DUP3 ADD MSTORE PUSH18 0x125B9D985B1A59081C1D881A185A5C98DD5D PUSH1 0x72 SHL PUSH1 0x40 DUP3 ADD MSTORE PUSH1 0x60 ADD SWAP1 JUMP JUMPDEST PUSH2 0xFFFF SWAP2 SWAP1 SWAP2 AND DUP2 MSTORE PUSH1 0x20 ADD SWAP1 JUMP JUMPDEST PUSH2 0xFFFF SWAP3 SWAP1 SWAP3 AND DUP3 MSTORE PUSH1 0x1 PUSH1 0x1 PUSH1 0xA0 SHL SUB AND PUSH1 0x20 DUP3 ADD MSTORE PUSH1 0x40 ADD SWAP1 JUMP JUMPDEST PUSH2 0xFFFF DUP8 AND DUP2 MSTORE PUSH1 0x1 PUSH1 0x1 PUSH1 0xA0 SHL SUB DUP7 AND PUSH1 0x20 DUP3 ADD MSTORE PUSH1 0x80 PUSH1 0x40 DUP3 ADD DUP2 SWAP1 MSTORE PUSH1 0x0 SWAP1 PUSH3 0x51B9 SWAP1 DUP4 ADD DUP7 DUP9 PUSH3 0x4CAA JUMP JUMPDEST DUP3 DUP2 SUB PUSH1 0x60 DUP5 ADD MSTORE PUSH3 0x51CE DUP2 DUP6 DUP8 PUSH3 0x4CAA JUMP JUMPDEST SWAP10 SWAP9 POP POP POP POP POP POP POP POP POP JUMP JUMPDEST SWAP1 DUP2 MSTORE PUSH1 0x20 ADD SWAP1 JUMP JUMPDEST SWAP3 DUP4 MSTORE PUSH1 0x20 DUP4 ADD SWAP2 SWAP1 SWAP2 MSTORE PUSH1 0x40 DUP3 ADD MSTORE PUSH1 0x60 ADD SWAP1 JUMP JUMPDEST PUSH1 0x40 MLOAD DUP2 DUP2 ADD PUSH1 0x1 PUSH1 0x1 PUSH1 0x40 SHL SUB DUP2 GT DUP3 DUP3 LT OR ISZERO PUSH3 0x5216 JUMPI INVALID JUMPDEST PUSH1 0x40 MSTORE SWAP2 SWAP1 POP JUMP JUMPDEST PUSH1 0x1 PUSH1 0x1 PUSH1 0xA0 SHL SUB DUP2 AND DUP2 EQ PUSH3 0x78E JUMPI PUSH1 0x0 DUP1 REVERT JUMPDEST PUSH1 0xFF DUP2 AND DUP2 EQ PUSH3 0x78E JUMPI PUSH1 0x0 DUP1 REVERT INVALID PUSH1 0x80 PUSH1 0x40 MSTORE PUSH1 0x40 MLOAD PUSH2 0x99B CODESIZE SUB DUP1 PUSH2 0x99B DUP4 CODECOPY DUP2 DUP2 ADD PUSH1 0x40 MSTORE PUSH1 0x40 DUP2 LT ISZERO PUSH2 0x26 JUMPI PUSH1 0x0 DUP1 REVERT JUMPDEST DUP2 MLOAD PUSH1 0x20 DUP4 ADD DUP1 MLOAD PUSH1 0x40 MLOAD SWAP3 SWAP5 SWAP3 SWAP4 DUP4 ADD SWAP3 SWAP2 SWAP1 DUP5 PUSH5 0x100000000 DUP3 GT ISZERO PUSH2 0x4D JUMPI PUSH1 0x0 DUP1 REVERT JUMPDEST SWAP1 DUP4 ADD SWAP1 PUSH1 0x20 DUP3 ADD DUP6 DUP2 GT ISZERO PUSH2 0x62 JUMPI PUSH1 0x0 DUP1 REVERT JUMPDEST DUP3 MLOAD PUSH5 0x100000000 DUP2 GT DUP3 DUP3 ADD DUP9 LT OR ISZERO PUSH2 0x7C JUMPI PUSH1 0x0 DUP1 REVERT JUMPDEST DUP3 MSTORE POP DUP2 MLOAD PUSH1 0x20 SWAP2 DUP3 ADD SWAP3 SWAP1 SWAP2 ADD SWAP1 DUP1 DUP4 DUP4 PUSH1 0x0 JUMPDEST DUP4 DUP2 LT ISZERO PUSH2 0xA9 JUMPI DUP2 DUP2 ADD MLOAD DUP4 DUP3 ADD MSTORE PUSH1 0x20 ADD PUSH2 0x91 JUMP JUMPDEST POP POP POP POP SWAP1 POP SWAP1 DUP2 ADD SWAP1 PUSH1 0x1F AND DUP1 ISZERO PUSH2 0xD6 JUMPI DUP1 DUP3 SUB DUP1 MLOAD PUSH1 0x1 DUP4 PUSH1 0x20 SUB PUSH2 0x100 EXP SUB NOT AND DUP2 MSTORE PUSH1 0x20 ADD SWAP2 POP JUMPDEST POP PUSH1 0x40 MSTORE POP DUP4 SWAP2 POP DUP3 SWAP1 POP PUSH2 0xED DUP3 DUP3 PUSH1 0x0 PUSH2 0xF6 JUMP JUMPDEST POP POP POP POP PUSH2 0x4FA JUMP JUMPDEST PUSH2 0xFF DUP4 PUSH2 0x1C5 JUMP JUMPDEST PUSH1 0x40 MLOAD PUSH1 0x1 PUSH1 0x1 PUSH1 0xA0 SHL SUB DUP5 AND SWAP1 PUSH32 0x1CF3B03A6CF19FA2BABA4DF148E9DCABEDEA7F8A5C07840E207E5C089BE95D3E SWAP1 PUSH1 0x0 SWAP1 LOG2 PUSH1 0x0 DUP3 MLOAD GT DUP1 PUSH2 0x140 JUMPI POP DUP1 JUMPDEST ISZERO PUSH2 0x1C0 JUMPI PUSH2 0x1BE DUP4 PUSH1 0x1 PUSH1 0x1 PUSH1 0xA0 SHL SUB AND PUSH4 0x5C60DA1B PUSH1 0x40 MLOAD DUP2 PUSH4 0xFFFFFFFF AND PUSH1 0xE0 SHL DUP2 MSTORE PUSH1 0x4 ADD PUSH1 0x20 PUSH1 0x40 MLOAD DUP1 DUP4 SUB DUP2 DUP7 DUP1 EXTCODESIZE ISZERO DUP1 ISZERO PUSH2 0x181 JUMPI PUSH1 0x0 DUP1 REVERT JUMPDEST POP GAS STATICCALL ISZERO DUP1 ISZERO PUSH2 0x195 JUMPI RETURNDATASIZE PUSH1 0x0 DUP1 RETURNDATACOPY RETURNDATASIZE PUSH1 0x0 REVERT JUMPDEST POP POP POP POP PUSH1 0x40 MLOAD RETURNDATASIZE PUSH1 0x20 DUP2 LT ISZERO PUSH2 0x1AB JUMPI PUSH1 0x0 DUP1 REVERT JUMPDEST POP MLOAD DUP4 PUSH2 0x31E PUSH1 0x20 SWAP1 DUP2 SHL PUSH2 0xB7 OR SWAP1 SHR JUMP JUMPDEST POP JUMPDEST POP POP POP JUMP JUMPDEST PUSH2 0x1D8 DUP2 PUSH2 0x34A PUSH1 0x20 SHL PUSH2 0xE3 OR PUSH1 0x20 SHR JUMP JUMPDEST PUSH2 0x213 JUMPI PUSH1 0x40 MLOAD PUSH3 0x461BCD PUSH1 0xE5 SHL DUP2 MSTORE PUSH1 0x4 ADD DUP1 DUP1 PUSH1 0x20 ADD DUP3 DUP2 SUB DUP3 MSTORE PUSH1 0x25 DUP2 MSTORE PUSH1 0x20 ADD DUP1 PUSH2 0x8F9 PUSH1 0x25 SWAP2 CODECOPY PUSH1 0x40 ADD SWAP2 POP POP PUSH1 0x40 MLOAD DUP1 SWAP2 SUB SWAP1 REVERT JUMPDEST PUSH2 0x28B DUP2 PUSH1 0x1 PUSH1 0x1 PUSH1 0xA0 SHL SUB AND PUSH4 0x5C60DA1B PUSH1 0x40 MLOAD DUP2 PUSH4 0xFFFFFFFF AND PUSH1 0xE0 SHL DUP2 MSTORE PUSH1 0x4 ADD PUSH1 0x20 PUSH1 0x40 MLOAD DUP1 DUP4 SUB DUP2 DUP7 DUP1 EXTCODESIZE ISZERO DUP1 ISZERO PUSH2 0x24F JUMPI PUSH1 0x0 DUP1 REVERT JUMPDEST POP GAS STATICCALL ISZERO DUP1 ISZERO PUSH2 0x263 JUMPI RETURNDATASIZE PUSH1 0x0 DUP1 RETURNDATACOPY RETURNDATASIZE PUSH1 0x0 REVERT JUMPDEST POP POP POP POP PUSH1 0x40 MLOAD RETURNDATASIZE PUSH1 0x20 DUP2 LT ISZERO PUSH2 0x279 JUMPI PUSH1 0x0 DUP1 REVERT JUMPDEST POP MLOAD PUSH2 0x34A PUSH1 0x20 SWAP1 DUP2 SHL PUSH2 0xE3 OR SWAP1 SHR JUMP JUMPDEST PUSH2 0x2C6 JUMPI PUSH1 0x40 MLOAD PUSH3 0x461BCD PUSH1 0xE5 SHL DUP2 MSTORE PUSH1 0x4 ADD DUP1 DUP1 PUSH1 0x20 ADD DUP3 DUP2 SUB DUP3 MSTORE PUSH1 0x30 DUP2 MSTORE PUSH1 0x20 ADD DUP1 PUSH2 0x96B PUSH1 0x30 SWAP2 CODECOPY PUSH1 0x40 ADD SWAP2 POP POP PUSH1 0x40 MLOAD DUP1 SWAP2 SUB SWAP1 REVERT JUMPDEST DUP1 PUSH2 0x2FD PUSH32 0xA3F0AD74E5423AEBFD80D3EF4346578335A9A72AEAEE59FF6CB3582B35133D50 PUSH1 0x0 SHL PUSH2 0x350 PUSH1 0x20 SHL PUSH2 0xE9 OR PUSH1 0x20 SHR JUMP JUMPDEST DUP1 SLOAD PUSH1 0x1 PUSH1 0x1 PUSH1 0xA0 SHL SUB NOT AND PUSH1 0x1 PUSH1 0x1 PUSH1 0xA0 SHL SUB SWAP3 SWAP1 SWAP3 AND SWAP2 SWAP1 SWAP2 OR SWAP1 SSTORE POP JUMP JUMPDEST PUSH1 0x60 PUSH2 0x343 DUP4 DUP4 PUSH1 0x40 MLOAD DUP1 PUSH1 0x60 ADD PUSH1 0x40 MSTORE DUP1 PUSH1 0x27 DUP2 MSTORE PUSH1 0x20 ADD PUSH2 0x91E PUSH1 0x27 SWAP2 CODECOPY PUSH2 0x353 JUMP JUMPDEST SWAP4 SWAP3 POP POP POP JUMP JUMPDEST EXTCODESIZE ISZERO ISZERO SWAP1 JUMP JUMPDEST SWAP1 JUMP JUMPDEST PUSH1 0x60 PUSH2 0x35E DUP5 PUSH2 0x34A JUMP JUMPDEST PUSH2 0x399 JUMPI PUSH1 0x40 MLOAD PUSH3 0x461BCD PUSH1 0xE5 SHL DUP2 MSTORE PUSH1 0x4 ADD DUP1 DUP1 PUSH1 0x20 ADD DUP3 DUP2 SUB DUP3 MSTORE PUSH1 0x26 DUP2 MSTORE PUSH1 0x20 ADD DUP1 PUSH2 0x945 PUSH1 0x26 SWAP2 CODECOPY PUSH1 0x40 ADD SWAP2 POP POP PUSH1 0x40 MLOAD DUP1 SWAP2 SUB SWAP1 REVERT JUMPDEST PUSH1 0x0 DUP1 DUP6 PUSH1 0x1 PUSH1 0x1 PUSH1 0xA0 SHL SUB AND DUP6 PUSH1 0x40 MLOAD DUP1 DUP3 DUP1 MLOAD SWAP1 PUSH1 0x20 ADD SWAP1 DUP1 DUP4 DUP4 JUMPDEST PUSH1 0x20 DUP4 LT PUSH2 0x3D6 JUMPI DUP1 MLOAD DUP3 MSTORE PUSH1 0x1F NOT SWAP1 SWAP3 ADD SWAP2 PUSH1 0x20 SWAP2 DUP3 ADD SWAP2 ADD PUSH2 0x3B7 JUMP JUMPDEST PUSH1 0x1 DUP4 PUSH1 0x20 SUB PUSH2 0x100 EXP SUB DUP1 NOT DUP3 MLOAD AND DUP2 DUP5 MLOAD AND DUP1 DUP3 OR DUP6 MSTORE POP POP POP POP POP POP SWAP1 POP ADD SWAP2 POP POP PUSH1 0x0 PUSH1 0x40 MLOAD DUP1 DUP4 SUB DUP2 DUP6 GAS DELEGATECALL SWAP2 POP POP RETURNDATASIZE DUP1 PUSH1 0x0 DUP2 EQ PUSH2 0x436 JUMPI PUSH1 0x40 MLOAD SWAP2 POP PUSH1 0x1F NOT PUSH1 0x3F RETURNDATASIZE ADD AND DUP3 ADD PUSH1 0x40 MSTORE RETURNDATASIZE DUP3 MSTORE RETURNDATASIZE PUSH1 0x0 PUSH1 0x20 DUP5 ADD RETURNDATACOPY PUSH2 0x43B JUMP JUMPDEST PUSH1 0x60 SWAP2 POP JUMPDEST POP SWAP1 SWAP3 POP SWAP1 POP PUSH2 0x44C DUP3 DUP3 DUP7 PUSH2 0x456 JUMP JUMPDEST SWAP7 SWAP6 POP POP POP POP POP POP JUMP JUMPDEST PUSH1 0x60 DUP4 ISZERO PUSH2 0x465 JUMPI POP DUP2 PUSH2 0x343 JUMP JUMPDEST DUP3 MLOAD ISZERO PUSH2 0x475 JUMPI DUP3 MLOAD DUP1 DUP5 PUSH1 0x20 ADD REVERT JUMPDEST DUP2 PUSH1 0x40 MLOAD PUSH3 0x461BCD PUSH1 0xE5 SHL DUP2 MSTORE PUSH1 0x4 ADD DUP1 DUP1 PUSH1 0x20 ADD DUP3 DUP2 SUB DUP3 MSTORE DUP4 DUP2 DUP2 MLOAD DUP2 MSTORE PUSH1 0x20 ADD SWAP2 POP DUP1 MLOAD SWAP1 PUSH1 0x20 ADD SWAP1 DUP1 DUP4 DUP4 PUSH1 0x0 JUMPDEST DUP4 DUP2 LT ISZERO PUSH2 0x4BF JUMPI DUP2 DUP2 ADD MLOAD DUP4 DUP3 ADD MSTORE PUSH1 0x20 ADD PUSH2 0x4A7 JUMP JUMPDEST POP POP POP POP SWAP1 POP SWAP1 DUP2 ADD SWAP1 PUSH1 0x1F AND DUP1 ISZERO PUSH2 0x4EC JUMPI DUP1 DUP3 SUB DUP1 MLOAD PUSH1 0x1 DUP4 PUSH1 0x20 SUB PUSH2 0x100 EXP SUB NOT AND DUP2 MSTORE PUSH1 0x20 ADD SWAP2 POP JUMPDEST POP SWAP3 POP POP POP PUSH1 0x40 MLOAD DUP1 SWAP2 SUB SWAP1 REVERT JUMPDEST PUSH2 0x3F0 DUP1 PUSH2 0x509 PUSH1 0x0 CODECOPY PUSH1 0x0 RETURN INVALID PUSH1 0x80 PUSH1 0x40 MSTORE PUSH1 0x4 CALLDATASIZE LT PUSH2 0x2D JUMPI PUSH1 0x0 CALLDATALOAD PUSH1 0xE0 SHR DUP1 PUSH4 0x2D6B3A6B EQ PUSH2 0x3E JUMPI DUP1 PUSH4 0xAAF10F42 EQ PUSH2 0x6F JUMPI PUSH2 0x34 JUMP JUMPDEST CALLDATASIZE PUSH2 0x34 JUMPI STOP JUMPDEST PUSH2 0x3C PUSH2 0x84 JUMP JUMPDEST STOP JUMPDEST CALLVALUE DUP1 ISZERO PUSH2 0x4A JUMPI PUSH1 0x0 DUP1 REVERT JUMPDEST POP PUSH2 0x53 PUSH2 0x9E JUMP JUMPDEST PUSH1 0x40 DUP1 MLOAD PUSH1 0x1 PUSH1 0x1 PUSH1 0xA0 SHL SUB SWAP1 SWAP3 AND DUP3 MSTORE MLOAD SWAP1 DUP2 SWAP1 SUB PUSH1 0x20 ADD SWAP1 RETURN JUMPDEST CALLVALUE DUP1 ISZERO PUSH2 0x7B JUMPI PUSH1 0x0 DUP1 REVERT JUMPDEST POP PUSH2 0x53 PUSH2 0xAD JUMP JUMPDEST PUSH2 0x8C PUSH2 0x9C JUMP JUMPDEST PUSH2 0x9C PUSH2 0x97 PUSH2 0xEC JUMP JUMPDEST PUSH2 0x15F JUMP JUMPDEST JUMP JUMPDEST PUSH1 0x0 PUSH2 0xA8 PUSH2 0x183 JUMP JUMPDEST SWAP1 POP SWAP1 JUMP JUMPDEST PUSH1 0x0 PUSH2 0xA8 PUSH2 0xEC JUMP JUMPDEST PUSH1 0x60 PUSH2 0xDC DUP4 DUP4 PUSH1 0x40 MLOAD DUP1 PUSH1 0x60 ADD PUSH1 0x40 MSTORE DUP1 PUSH1 0x27 DUP2 MSTORE PUSH1 0x20 ADD PUSH2 0x36E PUSH1 0x27 SWAP2 CODECOPY PUSH2 0x18D JUMP JUMPDEST SWAP4 SWAP3 POP POP POP JUMP JUMPDEST EXTCODESIZE ISZERO ISZERO SWAP1 JUMP JUMPDEST SWAP1 JUMP JUMPDEST PUSH1 0x0 PUSH2 0xF6 PUSH2 0x28F JUMP JUMPDEST PUSH1 0x1 PUSH1 0x1 PUSH1 0xA0 SHL SUB AND PUSH4 0x5C60DA1B PUSH1 0x40 MLOAD DUP2 PUSH4 0xFFFFFFFF AND PUSH1 0xE0 SHL DUP2 MSTORE PUSH1 0x4 ADD PUSH1 0x20 PUSH1 0x40 MLOAD DUP1 DUP4 SUB DUP2 DUP7 DUP1 EXTCODESIZE ISZERO DUP1 ISZERO PUSH2 0x12E JUMPI PUSH1 0x0 DUP1 REVERT JUMPDEST POP GAS STATICCALL ISZERO DUP1 ISZERO PUSH2 0x142 JUMPI RETURNDATASIZE PUSH1 0x0 DUP1 RETURNDATACOPY RETURNDATASIZE PUSH1 0x0 REVERT JUMPDEST POP POP POP POP PUSH1 0x40 MLOAD RETURNDATASIZE PUSH1 0x20 DUP2 LT ISZERO PUSH2 0x158 JUMPI PUSH1 0x0 DUP1 REVERT JUMPDEST POP MLOAD SWAP1 POP SWAP1 JUMP JUMPDEST CALLDATASIZE PUSH1 0x0 DUP1 CALLDATACOPY PUSH1 0x0 DUP1 CALLDATASIZE PUSH1 0x0 DUP5 GAS DELEGATECALL RETURNDATASIZE PUSH1 0x0 DUP1 RETURNDATACOPY DUP1 DUP1 ISZERO PUSH2 0x17E JUMPI RETURNDATASIZE PUSH1 0x0 RETURN JUMPDEST RETURNDATASIZE PUSH1 0x0 REVERT JUMPDEST PUSH1 0x0 PUSH2 0xA8 PUSH2 0x28F JUMP JUMPDEST PUSH1 0x60 PUSH2 0x198 DUP5 PUSH2 0xE3 JUMP JUMPDEST PUSH2 0x1D3 JUMPI PUSH1 0x40 MLOAD PUSH3 0x461BCD PUSH1 0xE5 SHL DUP2 MSTORE PUSH1 0x4 ADD DUP1 DUP1 PUSH1 0x20 ADD DUP3 DUP2 SUB DUP3 MSTORE PUSH1 0x26 DUP2 MSTORE PUSH1 0x20 ADD DUP1 PUSH2 0x395 PUSH1 0x26 SWAP2 CODECOPY PUSH1 0x40 ADD SWAP2 POP POP PUSH1 0x40 MLOAD DUP1 SWAP2 SUB SWAP1 REVERT JUMPDEST PUSH1 0x0 DUP1 DUP6 PUSH1 0x1 PUSH1 0x1 PUSH1 0xA0 SHL SUB AND DUP6 PUSH1 0x40 MLOAD DUP1 DUP3 DUP1 MLOAD SWAP1 PUSH1 0x20 ADD SWAP1 DUP1 DUP4 DUP4 JUMPDEST PUSH1 0x20 DUP4 LT PUSH2 0x210 JUMPI DUP1 MLOAD DUP3 MSTORE PUSH1 0x1F NOT SWAP1 SWAP3 ADD SWAP2 PUSH1 0x20 SWAP2 DUP3 ADD SWAP2 ADD PUSH2 0x1F1 JUMP JUMPDEST PUSH1 0x1 DUP4 PUSH1 0x20 SUB PUSH2 0x100 EXP SUB DUP1 NOT DUP3 MLOAD AND DUP2 DUP5 MLOAD AND DUP1 DUP3 OR DUP6 MSTORE POP POP POP POP POP POP SWAP1 POP ADD SWAP2 POP POP PUSH1 0x0 PUSH1 0x40 MLOAD DUP1 DUP4 SUB DUP2 DUP6 GAS DELEGATECALL SWAP2 POP POP RETURNDATASIZE DUP1 PUSH1 0x0 DUP2 EQ PUSH2 0x270 JUMPI PUSH1 0x40 MLOAD SWAP2 POP PUSH1 0x1F NOT PUSH1 0x3F RETURNDATASIZE ADD AND DUP3 ADD PUSH1 0x40 MSTORE RETURNDATASIZE DUP3 MSTORE RETURNDATASIZE PUSH1 0x0 PUSH1 0x20 DUP5 ADD RETURNDATACOPY PUSH2 0x275 JUMP JUMPDEST PUSH1 0x60 SWAP2 POP JUMPDEST POP SWAP2 POP SWAP2 POP PUSH2 0x285 DUP3 DUP3 DUP7 PUSH2 0x2C9 JUMP JUMPDEST SWAP7 SWAP6 POP POP POP POP POP POP JUMP JUMPDEST PUSH1 0x0 PUSH2 0x2BA PUSH32 0xA3F0AD74E5423AEBFD80D3EF4346578335A9A72AEAEE59FF6CB3582B35133D50 PUSH2 0xE9 JUMP JUMPDEST SLOAD PUSH1 0x1 PUSH1 0x1 PUSH1 0xA0 SHL SUB AND SWAP1 POP SWAP1 JUMP JUMPDEST PUSH1 0x60 DUP4 ISZERO PUSH2 0x2D8 JUMPI POP DUP2 PUSH2 0xDC JUMP JUMPDEST DUP3 MLOAD ISZERO PUSH2 0x2E8 JUMPI DUP3 MLOAD DUP1 DUP5 PUSH1 0x20 ADD REVERT JUMPDEST DUP2 PUSH1 0x40 MLOAD PUSH3 0x461BCD PUSH1 0xE5 SHL DUP2 MSTORE PUSH1 0x4 ADD DUP1 DUP1 PUSH1 0x20 ADD DUP3 DUP2 SUB DUP3 MSTORE DUP4 DUP2 DUP2 MLOAD DUP2 MSTORE PUSH1 0x20 ADD SWAP2 POP DUP1 MLOAD SWAP1 PUSH1 0x20 ADD SWAP1 DUP1 DUP4 DUP4 PUSH1 0x0 JUMPDEST DUP4 DUP2 LT ISZERO PUSH2 0x332 JUMPI DUP2 DUP2 ADD MLOAD DUP4 DUP3 ADD MSTORE PUSH1 0x20 ADD PUSH2 0x31A JUMP JUMPDEST POP POP POP POP SWAP1 POP SWAP1 DUP2 ADD SWAP1 PUSH1 0x1F AND DUP1 ISZERO PUSH2 0x35F JUMPI DUP1 DUP3 SUB DUP1 MLOAD PUSH1 0x1 DUP4 PUSH1 0x20 SUB PUSH2 0x100 EXP SUB NOT AND DUP2 MSTORE PUSH1 0x20 ADD SWAP2 POP JUMPDEST POP SWAP3 POP POP POP PUSH1 0x40 MLOAD DUP1 SWAP2 SUB SWAP1 REVERT INVALID COINBASE PUSH5 0x6472657373 GASPRICE KECCAK256 PUSH13 0x6F772D6C6576656C2064656C65 PUSH8 0x6174652063616C6C KECCAK256 PUSH7 0x61696C65644164 PUSH5 0x726573733A KECCAK256 PUSH5 0x656C656761 PUSH21 0x652063616C6C20746F206E6F6E2D636F6E74726163 PUSH21 0xA26469706673582212209140E03FCC039E1369CDF0 SLOAD CALL 0xCB MSIZE PUSH29 0xE755A741C8C8A47EDC66203D357DED6764736F6C634300070600334552 NUMBER BALANCE CODECOPY CALLDATASIZE CALLDATACOPY GASPRICE KECCAK256 PUSH15 0x657720626561636F6E206973206E6F PUSH21 0x206120636F6E7472616374416464726573733A206C PUSH16 0x772D6C6576656C2064656C6567617465 KECCAK256 PUSH4 0x616C6C20 PUSH7 0x61696C65644164 PUSH5 0x726573733A KECCAK256 PUSH5 0x656C656761 PUSH21 0x652063616C6C20746F206E6F6E2D636F6E74726163 PUSH21 0x455243313936373A20626561636F6E20696D706C65 PUSH14 0x656E746174696F6E206973206E6F PUSH21 0x206120636F6E747261637445524331393637557067 PUSH19 0x6164653A207570677261646520627265616B73 KECCAK256 PUSH7 0x75727468657220 PUSH22 0x70677261646573455243313936373A206E657720696D PUSH17 0x6C656D656E746174696F6E206973206E6F PUSH21 0x206120636F6E7472616374416464726573733A206C PUSH16 0x772D6C6576656C2064656C6567617465 KECCAK256 PUSH4 0x616C6C20 PUSH7 0x61696C65644164 PUSH5 0x726573733A KECCAK256 PUSH5 0x656C656761 PUSH21 0x652063616C6C20746F206E6F6E2D636F6E74726163 PUSH21 0xA26469706673582212204355DCF6FF1F854B5816DF AND 0xB9 DUP8 PUSH13 0x9409365C6059B8177A57A0E237 0xE6 0xD4 0x1E 0xF9 PUSH5 0x736F6C6343 STOP SMOD MOD STOP CALLER ",
  "sha1": "2165a38104b6f21468ac92315c96b8c5b28109fc",
  "source": "// SPDX-License-Identifier: BSUL-1.1\npragma solidity =0.7.6;\npragma abicoder v2;\n\nimport {\n    CashGroupSettings,\n    TokenStorage,\n    ETHRateStorage,\n    InterestRateCurveSettings,\n    Token\n} from \"../../global/Types.sol\";\nimport {StorageLayoutV2} from \"../../global/StorageLayoutV2.sol\";\nimport {LibStorage} from \"../../global/LibStorage.sol\";\nimport {Constants} from \"../../global/Constants.sol\";\nimport {Deployments} from \"../../global/Deployments.sol\";\nimport {SafeUint256} from \"../../math/SafeUint256.sol\";\n\nimport {ExchangeRate} from \"../../internal/valuation/ExchangeRate.sol\";\nimport {CashGroup} from \"../../internal/markets/CashGroup.sol\";\nimport {nTokenHandler} from \"../../internal/nToken/nTokenHandler.sol\";\nimport {nTokenSupply} from \"../../internal/nToken/nTokenSupply.sol\";\nimport {TokenHandler} from \"../../internal/balances/TokenHandler.sol\";\nimport {BalanceHandler} from \"../../internal/balances/BalanceHandler.sol\";\nimport {PrimeCashExchangeRate} from \"../../internal/pCash/PrimeCashExchangeRate.sol\";\nimport {InterestRateCurve} from \"../../internal/markets/InterestRateCurve.sol\";\n\nimport \"@openzeppelin/contracts/utils/Address.sol\";\nimport {ActionGuards} from \"./ActionGuards.sol\";\n\n// Proxies\nimport {UUPSUpgradeable} from \"../../proxy/utils/UUPSUpgradeable.sol\";\nimport {nBeaconProxy} from \"../../proxy/nBeaconProxy.sol\";\nimport {IUpgradeableBeacon} from \"../../proxy/beacon/IBeacon.sol\";\n\n// Interfaces\nimport {IRewarder} from \"../../../interfaces/notional/IRewarder.sol\";\nimport {AggregatorV2V3Interface} from \"../../../interfaces/chainlink/AggregatorV2V3Interface.sol\";\nimport {NotionalGovernance} from \"../../../interfaces/notional/NotionalGovernance.sol\";\nimport {IPrimeCashHoldingsOracle} from \"../../../interfaces/notional/IPrimeCashHoldingsOracle.sol\";\n\n/// @notice Governance methods can only be called by the governance contract\ncontract GovernanceAction is StorageLayoutV2, NotionalGovernance, UUPSUpgradeable, ActionGuards {\n\n    /// @notice Transfers ownership to `newOwner`. Either directly or claimable by the new pending owner.\n    /// Can only be invoked by the current `owner`.\n    /// @param newOwner Address of the new owner.\n    /// @param direct True if `newOwner` should be set immediately. False if `newOwner` needs to use `claimOwnership`.\n    function transferOwnership(\n        address newOwner,\n        bool direct\n    ) external override onlyOwner {\n        if (direct) {\n            // Checks\n            require(newOwner != address(0), \"Ownable: zero address\");\n\n            // Effects\n            emit OwnershipTransferred(owner, newOwner);\n            owner = newOwner;\n            pendingOwner = address(0);\n        } else {\n            // Effects\n            pendingOwner = newOwner;\n        }\n    }\n\n    /// @notice Needs to be called by `pendingOwner` to claim ownership.\n    function claimOwnership() external override {\n        address _pendingOwner = pendingOwner;\n\n        // Checks\n        require(msg.sender == _pendingOwner, \"Ownable: caller != pending owner\");\n\n        // Effects\n        emit OwnershipTransferred(owner, _pendingOwner);\n        owner = _pendingOwner;\n        pendingOwner = address(0);\n    }\n\n    /// @dev Only the owner may upgrade the contract, the pauseGuardian may downgrade the contract\n    /// to a predetermined router contract that provides read only access to the system.\n    function _authorizeUpgrade(address newImplementation) internal override {\n        require(\n            owner == msg.sender ||\n            (msg.sender == pauseGuardian && newImplementation == pauseRouter),\n            \"Unauthorized upgrade\"\n        );\n\n        // This is set temporarily during a downgrade to the pauseRouter so that the upgrade\n        // will pass _authorizeUpgrade on the pauseRouter during the UUPSUpgradeable rollback check\n        if (newImplementation == pauseRouter) rollbackRouterImplementation = _getImplementation();\n    }\n\n    /// @notice Allows Notional governance to upgrade various Beacon proxies external to the system\n    function upgradeBeacon(Deployments.BeaconType proxy, address newBeacon) external override onlyOwner {\n        IUpgradeableBeacon beacon;\n        if (proxy == Deployments.BeaconType.NTOKEN) {\n            beacon = Deployments.NTOKEN_BEACON;\n        } else if (proxy == Deployments.BeaconType.PCASH) {\n            beacon = Deployments.PCASH_BEACON;\n        } else if (proxy == Deployments.BeaconType.PDEBT) {\n            beacon = Deployments.PDEBT_BEACON;\n        } else if (proxy == Deployments.BeaconType.WRAPPED_FCASH) {\n            beacon = Deployments.WRAPPED_FCASH_BEACON;\n        } else {\n            revert();\n        }\n\n        beacon.upgradeTo(newBeacon);\n    }\n\n    /// @notice Sets a new pause router and guardian address.\n    function setPauseRouterAndGuardian(\n        address pauseRouter_,\n        address pauseGuardian_\n    ) external override onlyOwner {\n        pauseRouter = pauseRouter_;\n        pauseGuardian = pauseGuardian_;\n\n        emit PauseRouterAndGuardianUpdated(pauseRouter_, pauseGuardian_);\n    }\n\n    /// @notice Lists a new currency along with its exchange rate to ETH\n    /// @dev emit:ListCurrency emit:UpdateETHRate\n    /// @param underlyingToken the underlying token (if asset token is an interest bearing wrapper)\n    /// @return the new currency id\n    function listCurrency(\n        TokenStorage calldata underlyingToken,\n        ETHRateStorage memory ethRate,\n        InterestRateCurveSettings calldata primeDebtCurve,\n        IPrimeCashHoldingsOracle primeCashHoldingsOracle,\n        bool allowPrimeCashDebt,\n        uint8 rateOracleTimeWindow5Min,\n        string calldata underlyingName,\n        string calldata underlyingSymbol\n    ) external override onlyOwner returns (uint16) {\n        uint16 currencyId = maxCurrencyId + 1;\n        // Set the new max currency id\n        maxCurrencyId = currencyId;\n        require(currencyId <= Constants.MAX_CURRENCIES);\n        require(tokenAddressToCurrencyId[underlyingToken.tokenAddress] == 0); // dev: duplicate listing\n        tokenAddressToCurrencyId[underlyingToken.tokenAddress] = currencyId;\n\n        // NOTE: set token will enforce the restriction that Ether can only be set once as the zero\n        // address. This sets the underlying token\n        TokenHandler.setToken(currencyId, underlyingToken);\n\n        // rateDecimalPlaces will be set inside this method\n        _updateETHRate(currencyId, ethRate);\n\n        // Since we use internal balance tracking to mitigate donation type exploits,\n        // the first time a prime cash curve is initialized we have to set the initial\n        // balances in order to get currentTotalUnderlying.\n        PrimeCashExchangeRate.initTokenBalanceStorage(currencyId, primeCashHoldingsOracle);\n\n        // This must return some positive amount of the given token in order to initialize\n        // the total supply value\n        (/* */, uint256 initialPrimeSupply) = primeCashHoldingsOracle\n            .getTotalUnderlyingValueStateful();\n\n        PrimeCashExchangeRate.initPrimeCashCurve(\n            currencyId,\n            SafeUint256.toUint88(initialPrimeSupply),\n            primeDebtCurve,\n            primeCashHoldingsOracle,\n            allowPrimeCashDebt,\n            rateOracleTimeWindow5Min\n        );\n\n        bytes memory initCallData = abi.encodeWithSignature(\n            \"initialize(uint16,address,string,string)\",\n            currencyId,\n            underlyingToken.tokenAddress, \n            underlyingName,\n            underlyingSymbol\n        );\n\n        // A beacon proxy gets its implementation via the UpgradeableBeacon set here.\n        nBeaconProxy cashProxy = new nBeaconProxy(address(Deployments.PCASH_BEACON), initCallData);\n        PrimeCashExchangeRate.setProxyAddress({\n            currencyId: currencyId, proxy: address(cashProxy), isCashProxy: true\n        });\n\n        if (allowPrimeCashDebt) {\n            nBeaconProxy debtProxy = new nBeaconProxy(address(Deployments.PDEBT_BEACON), initCallData);\n            PrimeCashExchangeRate.setProxyAddress({\n                currencyId: currencyId, proxy: address(debtProxy), isCashProxy: false\n            });\n        }\n\n        // Set the reserve cash balance to the initial donation, must be done after proxies are set\n        // no overflow possible due to toUint88 check above\n        BalanceHandler.setReserveCashBalance(currencyId, int256(initialPrimeSupply));\n\n        emit ListCurrency(currencyId);\n\n        return currencyId;\n    }\n\n    /// @notice Enables a cash group on a given currency so that it can have lend and borrow markets. Will\n    /// also deploy an nToken contract so that markets can be initialized.\n    /// @dev emit:UpdateCashGroup emit:UpdateAssetRate emit:DeployNToken\n    /// @param currencyId id of the currency to enable\n    /// @param cashGroup parameters for the cash group\n    /// @param underlyingName underlying token name for seeding nToken name\n    /// @param underlyingSymbol underlying token symbol for seeding nToken symbol (i.e. nDAI)\n    function enableCashGroup(\n        uint16 currencyId,\n        CashGroupSettings calldata cashGroup,\n        string calldata underlyingName,\n        string calldata underlyingSymbol\n    ) external override onlyOwner {\n        _checkValidCurrency(currencyId);\n        _updateCashGroup(currencyId, cashGroup);\n\n        Token memory underlyingToken = TokenHandler.getUnderlyingToken(currencyId);\n\n        // This must be set to true to enable cash groups.\n        require(PrimeCashExchangeRate.doesAllowPrimeDebt(currencyId));\n\n        // Creates the nToken erc20 proxy that routes back to the main contract\n        bytes memory initCallData = abi.encodeWithSignature(\n            \"initialize(uint16,address,string,string)\",\n            currencyId,\n            underlyingToken.tokenAddress,\n            underlyingName,\n            underlyingSymbol\n        );\n\n        // A beacon proxy gets its implementation via the UpgradeableBeacon set here.\n        nBeaconProxy proxy = new nBeaconProxy(address(Deployments.NTOKEN_BEACON), initCallData);\n        nTokenHandler.setNTokenAddress(currencyId, address(proxy));\n\n        emit DeployNToken(currencyId, address(proxy));\n    }\n\n    function setMaxUnderlyingSupply(\n        uint16 currencyId,\n        uint256 maxUnderlyingSupply\n    ) external override onlyOwner {\n        uint256 unpackedSupply = PrimeCashExchangeRate.setMaxUnderlyingSupply(currencyId, maxUnderlyingSupply);\n        emit UpdateMaxUnderlyingSupply(currencyId, unpackedSupply);\n    }\n\n    function updatePrimeCashHoldingsOracle(\n        uint16 currencyId,\n        IPrimeCashHoldingsOracle primeCashHoldingsOracle\n    ) external override onlyOwner {\n        PrimeCashExchangeRate.updatePrimeCashHoldingsOracle(currencyId, primeCashHoldingsOracle);\n    }\n\n    function updatePrimeCashCurve(\n        uint16 currencyId,\n        InterestRateCurveSettings calldata primeDebtCurve\n    ) external override onlyOwner {\n        PrimeCashExchangeRate.updatePrimeCashCurve(currencyId, primeDebtCurve);\n    }\n\n    function enablePrimeDebt(\n        uint16 currencyId,\n        string calldata underlyingName,\n        string calldata underlyingSymbol\n    ) external override onlyOwner {\n        PrimeCashExchangeRate.allowPrimeDebt(currencyId);\n\n        // Deploy the prime debt proxy\n        Token memory underlyingToken = TokenHandler.getUnderlyingToken(currencyId);\n\n        bytes memory initCallData = abi.encodeWithSignature(\n            \"initialize(uint16,address,string,string)\",\n            currencyId,\n            underlyingToken.tokenAddress, \n            underlyingName,\n            underlyingSymbol\n        );\n\n        nBeaconProxy debtProxy = new nBeaconProxy(address(Deployments.PDEBT_BEACON), initCallData);\n        PrimeCashExchangeRate.setProxyAddress({\n            currencyId: currencyId, proxy: address(debtProxy), isCashProxy: false\n        });\n    }\n\n    /// @notice Updates the deposit parameters for an nToken\n    /// @dev emit:UpdateDepositParameters\n    /// @param currencyId the currency id that the nToken references\n    /// @param depositShares an array of values that represent the proportion of each deposit\n    /// that will go to a respective market, must add up to DEPOSIT_PERCENT_BASIS. For example,\n    /// 0.40e8, 0.40e8 and 0.20e8 will result in 40%, 40% and 20% deposited as liquidity into\n    /// the 3 month, 6 month and 1 year markets.\n    /// @param leverageThresholds an array of values denominated in RATE_PRECISION that mark the\n    /// highest proportion of fCash where the nToken will provide liquidity. Above this proportion,\n    /// the nToken will lend to the market instead to reduce the leverage in the market.\n    function updateDepositParameters(\n        uint16 currencyId,\n        uint32[] calldata depositShares,\n        uint32[] calldata leverageThresholds\n    ) external override onlyOwner {\n        _checkValidCurrency(currencyId);\n        nTokenHandler.setDepositParameters(currencyId, depositShares, leverageThresholds);\n        emit UpdateDepositParameters(currencyId);\n    }\n\n    /// @notice Updates the interest rate curve parameters that will take effect after the next market\n    /// initialization.\n    /// @dev emit:UpdateInterestRateCurve\n    /// @param currencyId the currency id to update\n    /// @param marketIndices a list of market indices to update the settings for\n    /// @param settings the settings for the interest rate curve that will be set on the next\n    /// market initialization for the interest rate curve, corresponding to the marketIndices\n    function updateInterestRateCurve(\n        uint16 currencyId,\n        uint8[] calldata marketIndices,\n        InterestRateCurveSettings[] calldata settings\n    ) external override onlyOwner {\n        _checkValidCurrency(currencyId);\n        uint8 maxMarketIndex = CashGroup.getMaxMarketIndex(currencyId);\n        require(marketIndices.length == settings.length);\n\n        for (uint256 i = 0; i < marketIndices.length; i++) {\n            require(0 < marketIndices[i]);\n            require(marketIndices[i] <= maxMarketIndex);\n            // Require that marketIndices are sorted so that we do not get\n            // any duplicates on accident.\n            if (i > 0) require(marketIndices[i - 1] < marketIndices[i]);\n\n            InterestRateCurve.setNextInterestRateParameters(\n                currencyId,\n                marketIndices[i],\n                settings[i]\n            );\n\n            emit UpdateInterestRateCurve(currencyId, marketIndices[i]);\n        }\n    }\n\n    /// @notice Updates the market initialization parameters for an nToken\n    /// @dev emit:UpdateInitializationParameters\n    /// @param currencyId the currency id that the nToken references\n    /// @param annualizedAnchorRates is a target interest rate that will be used to calculate a \n    /// rate anchor during initialize markets. This rate anchor will set the offset from the\n    /// x-axis where the liquidity curve will be initialized. This is used in combination with\n    /// previous market rates to determine the initial proportion where markets will be initialized\n    /// every quarter.\n    /// @param proportions used to combination with annualizedAnchorRate set the initial proportion when\n    /// a market is first initialized. This is required since there is no previous rate to reference.\n    function updateInitializationParameters(\n        uint16 currencyId,\n        uint32[] calldata annualizedAnchorRates,\n        uint32[] calldata proportions\n    ) external override onlyOwner {\n        _checkValidCurrency(currencyId);\n        nTokenHandler.setInitializationParameters(currencyId, annualizedAnchorRates, proportions);\n        emit UpdateInitializationParameters(currencyId);\n    }\n\n    /// @notice Updates collateralization parameters for an nToken\n    /// @dev emit:UpdateTokenCollateralParameters\n    /// @param currencyId the currency id that the nToken references\n    /// @param residualPurchaseIncentive10BPS nTokens will have residual amounts of fCash at the end of each\n    /// quarter that are \"dead weight\" because they are at idiosyncratic maturities and do not contribute to\n    /// actively providing liquidity. This parameter will incentivize market participants to purchase these residuals\n    /// at a discount from the on chain oracle rate, denominated in 10 basis point increments. These residuals will\n    /// be added back into nToken balances and will be used to provide liquidity upon the next market initialization.\n    /// @param pvHaircutPercentage a percentage (< 100) that the present value of the nToken's assets will be valued\n    /// at for the purposes of free collateral, relevant when accounts hold nTokens as collateral against debts.\n    /// @param residualPurchaseTimeBufferHours an arbitrage opportunity is available by pushing markets in one direction\n    /// before quarterly settlement to generate large residual balances that can be purchased at a discount. The time buffer\n    /// here ensures that anyone attempting such an act would have to wait some number of hours (likely a few days) before\n    /// they could attempt to purchase residuals, ensuring that the market could realign to rates where the arbitrage is\n    /// no longer possible.\n    /// @param cashWithholdingBuffer10BPS nToken residuals may be negative fCash (debt), in this case cash is withheld to\n    /// transfer to accounts that take on the debt. This parameter denominates the discounted rate at which the cash will\n    /// be withheld at for this purpose.\n    /// @param liquidationHaircutPercentage a percentage of nToken present value (> pvHaircutPercentage and <= 100) at which\n    /// liquidators will purchase nTokens during liquidation\n    function updateTokenCollateralParameters(\n        uint16 currencyId,\n        uint8 residualPurchaseIncentive10BPS,\n        uint8 pvHaircutPercentage,\n        uint8 residualPurchaseTimeBufferHours,\n        uint8 cashWithholdingBuffer10BPS,\n        uint8 liquidationHaircutPercentage\n    ) external override onlyOwner {\n        _checkValidCurrency(currencyId);\n        address nTokenAddress = nTokenHandler.nTokenAddress(currencyId);\n        require(nTokenAddress != address(0));\n\n        nTokenHandler.setNTokenCollateralParameters(\n            nTokenAddress,\n            residualPurchaseIncentive10BPS,\n            pvHaircutPercentage,\n            residualPurchaseTimeBufferHours,\n            cashWithholdingBuffer10BPS,\n            liquidationHaircutPercentage\n        );\n        emit UpdateTokenCollateralParameters(currencyId);\n    }\n\n    /// @notice Updates cash group parameters\n    /// @dev emit:UpdateCashGroup\n    /// @param currencyId id of the currency to enable\n    /// @param cashGroup new parameters for the cash group\n    function updateCashGroup(uint16 currencyId, CashGroupSettings calldata cashGroup)\n        external\n        override\n        onlyOwner\n    {\n        _checkValidCurrency(currencyId);\n        _updateCashGroup(currencyId, cashGroup);\n    }\n\n    /// @notice Updates ETH exchange rate or related parameters\n    /// @dev emit:UpdateETHRate\n    /// @param currencyId id of the currency\n    /// @param rateOracle new rate oracle for the asset\n    /// @param rateOracle ETH to underlying rate oracle\n    /// @param mustInvert if the rate from the oracle needs to be inverted\n    /// @param buffer multiplier (>= 100) for negative balances when calculating free collateral\n    /// @param haircut multiplier (<= 100) for positive balances when calculating free collateral\n    /// @param liquidationDiscount multiplier (>= 100) for exchange rate when liquidating\n    function updateETHRate(\n        uint16 currencyId,\n        AggregatorV2V3Interface rateOracle,\n        bool mustInvert,\n        uint8 buffer,\n        uint8 haircut,\n        uint8 liquidationDiscount\n    ) external override onlyOwner {\n        _checkValidCurrency(currencyId);\n        _updateETHRate(\n            currencyId,\n            ETHRateStorage({\n                rateOracle: rateOracle,\n                mustInvert: mustInvert,\n                buffer: buffer,\n                haircut: haircut,\n                liquidationDiscount: liquidationDiscount,\n                rateDecimalPlaces: 0 // This will be set inside updateETHRate\n            })\n        );\n    }\n\n    /// @notice Approves contracts that can call `batchTradeActionWithCallback`. These contracts can\n    /// \"flash loan\" from Notional V2 and receive a callback before the free collateral check. Flash loans\n    /// via the Notional V2 liquidity pool are not very gas efficient so this is not generally available,\n    /// it can be used for migrating borrows into Notional V2 from other platforms.\n    /// @dev emit:UpdateAuthorizedCallbackContract\n    /// @param operator address of the contract\n    /// @param approved true if the contract is authorized\n    function updateAuthorizedCallbackContract(address operator, bool approved)\n        external\n        override\n        onlyOwner\n    {\n        // Sanity check to ensure that operator is a contract, not an EOA\n        require(Address.isContract(operator));\n        authorizedCallbackContract[operator] = approved;\n        emit UpdateAuthorizedCallbackContract(operator, approved);\n    }\n\n    function _updateCashGroup(uint16 currencyId, CashGroupSettings calldata cashGroup) internal {\n        CashGroup.setCashGroupStorage(currencyId, cashGroup);\n        emit UpdateCashGroup(currencyId);\n    }\n\n    function _updateETHRate(\n        uint16 currencyId,\n        ETHRateStorage memory ethRate\n    ) internal {\n        if (currencyId == Constants.ETH_CURRENCY_ID) {\n            // ETH to ETH exchange rate is fixed at 1 and has no rate oracle\n            ethRate.rateOracle = AggregatorV2V3Interface(address(0));\n            ethRate.rateDecimalPlaces = Constants.ETH_DECIMAL_PLACES;\n        } else {\n            require(address(ethRate.rateOracle) != address(0));\n            ethRate.rateDecimalPlaces = ethRate.rateOracle.decimals();\n        }\n        require(ethRate.buffer >= Constants.PERCENTAGE_DECIMALS);\n        require(ethRate.haircut <= Constants.PERCENTAGE_DECIMALS);\n        require(ethRate.liquidationDiscount > Constants.PERCENTAGE_DECIMALS);\n\n        // Perform this check to ensure that decimal calculations don't overflow\n        require(ethRate.rateDecimalPlaces <= Constants.MAX_DECIMAL_PLACES);\n        mapping(uint256 => ETHRateStorage) storage store = LibStorage.getExchangeRateStorage();\n        store[currencyId] = ethRate;\n\n        emit UpdateETHRate(currencyId);\n    }\n}\n",
  "sourcePath": "contracts/external/actions/GovernanceAction.sol",
  "type": "contract"
}